{"contracts/HabitTracker.sol":{"HabitTracker":{"abi":[{"inputs":[{"internalType":"address","name":"_treasury","type":"address"}],"stateMutability":"nonpayable","type":"constructor"},{"inputs":[],"name":"AlreadyCheckedIn","type":"error"},{"inputs":[],"name":"AlreadySettled","type":"error"},{"inputs":[],"name":"CannotSettleCurrentDay","type":"error"},{"inputs":[],"name":"DayNotFunded","type":"error"},{"inputs":[],"name":"HabitAlreadyArchived","type":"error"},{"inputs":[],"name":"HabitNotFound","type":"error"},{"inputs":[],"name":"HabitTextTooLong","type":"error"},{"inputs":[],"name":"HabitTextTooShort","type":"error"},{"inputs":[],"name":"InsufficientBalance","type":"error"},{"inputs":[],"name":"InvalidAmount","type":"error"},{"inputs":[],"name":"InvalidBatchSize","type":"error"},{"inputs":[],"name":"InvalidEpoch","type":"error"},{"inputs":[],"name":"InvalidTreasury","type":"error"},{"inputs":[],"name":"NotHabitOwner","type":"error"},{"inputs":[],"name":"TransferFailed","type":"error"},{"anonymous":false,"inputs":[{"indexed":true,"internalType":"address","name":"user","type":"address"},{"indexed":true,"internalType":"uint32","name":"habitId","type":"uint32"},{"indexed":true,"internalType":"uint64","name":"epoch","type":"uint64"}],"name":"CheckedIn","type":"event"},{"anonymous":false,"inputs":[{"indexed":true,"internalType":"address","name":"user","type":"address"},{"indexed":false,"internalType":"uint256","name":"amount","type":"uint256"}],"name":"Claimed","type":"event"},{"anonymous":false,"inputs":[{"indexed":true,"internalType":"address","name":"user","type":"address"},{"indexed":true,"internalType":"uint64","name":"epoch","type":"uint64"},{"indexed":false,"internalType":"uint32","name":"fundedCount","type":"uint32"},{"indexed":false,"internalType":"uint32","name":"insufficientCount","type":"uint32"}],"name":"DayPrepared","type":"event"},{"anonymous":false,"inputs":[{"indexed":true,"internalType":"address","name":"user","type":"address"},{"indexed":false,"internalType":"uint256","name":"amount","type":"uint256"}],"name":"Deposited","type":"event"},{"anonymous":false,"inputs":[{"indexed":true,"internalType":"address","name":"user","type":"address"},{"indexed":true,"internalType":"uint32","name":"habitId","type":"uint32"}],"name":"HabitArchived","type":"event"},{"anonymous":false,"inputs":[{"indexed":true,"internalType":"address","name":"user","type":"address"},{"indexed":true,"internalType":"uint32","name":"habitId","type":"uint32"},{"indexed":false,"internalType":"string","name":"text","type":"string"}],"name":"HabitCreated","type":"event"},{"anonymous":false,"inputs":[{"indexed":true,"internalType":"address","name":"user","type":"address"},{"indexed":false,"internalType":"uint256","name":"amount","type":"uint256"}],"name":"RedepositedFromClaimable","type":"event"},{"anonymous":false,"inputs":[{"indexed":true,"internalType":"address","name":"user","type":"address"},{"indexed":true,"internalType":"uint32","name":"habitId","type":"uint32"},{"indexed":true,"internalType":"uint64","name":"epoch","type":"uint64"},{"indexed":false,"internalType":"uint256","name":"slashed","type":"uint256"}],"name":"SettledFail","type":"event"},{"anonymous":false,"inputs":[{"indexed":true,"internalType":"address","name":"user","type":"address"},{"indexed":true,"internalType":"uint32","name":"habitId","type":"uint32"},{"indexed":true,"internalType":"uint64","name":"epoch","type":"uint64"},{"indexed":false,"internalType":"uint256","name":"reward","type":"uint256"}],"name":"SettledSuccess","type":"event"},{"anonymous":false,"inputs":[{"indexed":true,"internalType":"address","name":"user","type":"address"},{"indexed":false,"internalType":"uint256","name":"amount","type":"uint256"}],"name":"Withdrawn","type":"event"},{"inputs":[],"name":"STAKE_PER_DAY","outputs":[{"internalType":"uint256","name":"","type":"uint256"}],"stateMutability":"view","type":"function"},{"inputs":[{"internalType":"uint32","name":"habitId","type":"uint32"}],"name":"archiveHabit","outputs":[],"stateMutability":"nonpayable","type":"function"},{"inputs":[{"internalType":"uint32","name":"habitId","type":"uint32"},{"internalType":"uint64","name":"epoch","type":"uint64"}],"name":"checkIn","outputs":[],"stateMutability":"nonpayable","type":"function"},{"inputs":[{"internalType":"uint256","name":"amount","type":"uint256"}],"name":"claim","outputs":[],"stateMutability":"nonpayable","type":"function"},{"inputs":[{"internalType":"string","name":"text","type":"string"}],"name":"createHabit","outputs":[{"internalType":"uint32","name":"","type":"uint32"}],"stateMutability":"nonpayable","type":"function"},{"inputs":[{"internalType":"address","name":"","type":"address"},{"internalType":"uint64","name":"","type":"uint64"},{"internalType":"uint32","name":"","type":"uint32"}],"name":"dailyStatuses","outputs":[{"internalType":"bool","name":"funded","type":"bool"},{"internalType":"bool","name":"checked","type":"bool"},{"internalType":"bool","name":"settled","type":"bool"}],"stateMutability":"view","type":"function"},{"inputs":[],"name":"deposit","outputs":[],"stateMutability":"payable","type":"function"},{"inputs":[],"name":"epochNow","outputs":[{"internalType":"uint64","name":"","type":"uint64"}],"stateMutability":"view","type":"function"},{"inputs":[{"internalType":"address","name":"user","type":"address"}],"name":"getUserState","outputs":[{"components":[{"internalType":"uint256","name":"depositBalance","type":"uint256"},{"internalType":"uint256","name":"blockedBalance","type":"uint256"},{"internalType":"uint256","name":"claimableBalance","type":"uint256"},{"internalType":"uint32","name":"activeHabitCount","type":"uint32"}],"internalType":"struct HabitTracker.UserState","name":"","type":"tuple"}],"stateMutability":"view","type":"function"},{"inputs":[{"internalType":"address","name":"","type":"address"},{"internalType":"uint32","name":"","type":"uint32"}],"name":"habits","outputs":[{"internalType":"uint32","name":"id","type":"uint32"},{"internalType":"address","name":"owner","type":"address"},{"internalType":"string","name":"text","type":"string"},{"internalType":"uint64","name":"createdAtEpoch","type":"uint64"},{"internalType":"bool","name":"archived","type":"bool"}],"stateMutability":"view","type":"function"},{"inputs":[{"internalType":"uint64","name":"epoch","type":"uint64"}],"name":"prepareDay","outputs":[],"stateMutability":"nonpayable","type":"function"},{"inputs":[{"internalType":"uint256","name":"amount","type":"uint256"}],"name":"redepositFromClaimable","outputs":[],"stateMutability":"nonpayable","type":"function"},{"inputs":[{"internalType":"address","name":"user","type":"address"},{"internalType":"uint64","name":"epoch","type":"uint64"},{"internalType":"uint32","name":"habitId","type":"uint32"}],"name":"settle","outputs":[],"stateMutability":"nonpayable","type":"function"},{"inputs":[{"internalType":"address","name":"user","type":"address"},{"internalType":"uint64","name":"epoch","type":"uint64"},{"internalType":"uint32","name":"maxCount","type":"uint32"}],"name":"settleAll","outputs":[],"stateMutability":"nonpayable","type":"function"},{"inputs":[],"name":"totalTreasuryReceived","outputs":[{"internalType":"uint256","name":"","type":"uint256"}],"stateMutability":"view","type":"function"},{"inputs":[],"name":"treasury","outputs":[{"internalType":"address","name":"","type":"address"}],"stateMutability":"view","type":"function"},{"inputs":[{"internalType":"address","name":"","type":"address"}],"name":"userHabitCounters","outputs":[{"internalType":"uint32","name":"","type":"uint32"}],"stateMutability":"view","type":"function"},{"inputs":[{"internalType":"address","name":"","type":"address"}],"name":"userStates","outputs":[{"internalType":"uint256","name":"depositBalance","type":"uint256"},{"internalType":"uint256","name":"blockedBalance","type":"uint256"},{"internalType":"uint256","name":"claimableBalance","type":"uint256"},{"internalType":"uint32","name":"activeHabitCount","type":"uint32"}],"stateMutability":"view","type":"function"},{"inputs":[{"internalType":"uint256","name":"amount","type":"uint256"}],"name":"withdraw","outputs":[],"stateMutability":"nonpayable","type":"function"}],"evm":{"assembly":"// RO data = 0/0 bytes\n// RW data = 380/66000 bytes\n// Stack size = 32768 bytes\n\n// Instructions = 12241\n// Code size = 43376 bytes\n\n      : @0 (gas: 1)\n     0: jump @14 if a0 == a1\n      : @1 (gas: 9)\n     3: a3 = a1 << 0x20\n     6: a3 = a3 >> 0x20\n     9: a4 = a0 << 0x20\n    12: a4 = a4 >> 0x20\n    15: a4 = a4 + a2\n    18: a3 = a3 - a4\n    21: a4 = a2 << 0x1\n    24: a4 = -a4\n    26: jump @7 if a4 >=u a3\n      : @2 (gas: 1)\n    29: jump @11 if a0 >=u a1\n      : @3 (gas: 1)\n    32: jump @14 if a2 == 0\n      : @4 (gas: 3)\n    35: a2 = a2 + a0\n    38: a3 = a0\n    40: fallthrough\n      : @5 (gas: 6)\n    41: a4 = u8 [a1]\n    43: a1 = a1 + 0x1\n    46: a5 = a3 + 0x1\n    49: u8 [a3] = a4\n    51: a3 = a5\n    53: jump @5 if a5 != a2\n      : @6 (gas: 1)\n    56: jump @14\n      : @7 (gas: 1)\n    58: jump @14 if a2 == 0\n      : @8 (gas: 3)\n    61: a2 = a2 + a0\n    64: a3 = a0\n    66: fallthrough\n      : @9 (gas: 6)\n    67: a4 = u8 [a1]\n    69: a1 = a1 + 0x1\n    72: a5 = a3 + 0x1\n    75: u8 [a3] = a4\n    77: a3 = a5\n    79: jump @9 if a5 != a2\n      : @10 (gas: 1)\n    82: jump @14\n      : @11 (gas: 1)\n    84: jump @14 if a2 == 0\n      : @12 (gas: 2)\n    87: i32 a3 = a2 + 0xffffffffffffffff\n    90: fallthrough\n      : @13 (gas: 7)\n    91: a4 = a1 + a3\n    94: a4 = u8 [a4]\n    96: a2 = a2 + 0xffffffffffffffff\n    99: a5 = a0 + a3\n   102: u8 [a5] = a4\n   104: i32 a3 = a3 + 0xffffffffffffffff\n   107: jump @13 if a2 != 0\n      : @14 (gas: 1)\n   110: ret\n      : @15 (gas: 7)\n   112: sp = sp + 0xffffffffffffffe8\n   115: u64 [sp + 0x10] = ra\n   118: u64 [sp + 0x8] = s0\n   121: u64 [sp] = s1\n   123: s1 = 0x20178\n   128: s0 = i32 [0x20178]\n   133: jump @18 if s0 == 0\n      : @16 (gas: 5)\n   136: a0 = 0x301b0\n   141: i32 a0 = a0 + 0\n   143: i32 a1 = s1 + 0\n   145: ecalli 6 // 'get_immutable_data'\n   147: fallthrough\n      : @17 (gas: 3)\n   148: a0 = i32 [0x20178]\n   153: u32 [0x20178] = 0\n   158: jump @19 if a0 <u s0\n      : @18 (gas: 5)\n   161: ra = u64 [sp + 0x10]\n   164: s0 = u64 [sp + 0x8]\n   167: s1 = u64 [sp]\n   169: sp = sp + 0x18\n   172: ret\n      : @19 (gas: 1)\n   174: trap\n      : @20 (gas: 2)\n   175: a1 = i32 [0x20178]\n   180: jump @70 if a1 == 0\n      : @21 (gas: 4)\n   184: a0 = 0x301b0\n   189: i32 a0 = a0 + 0\n   191: ecalli 14 // 'set_immutable_data'\n   193: jump @70\n      : @22 (gas: 8)\n   196: sp = sp + 0xfffffffffffffff0\n   199: u64 [sp + 0x8] = ra\n   202: u64 [sp] = s0\n   204: a2 = a1\n   206: s0 = a0\n   208: a1 = 0x20\n   211: a0 = a2\n   213: ra = 2, jump @37\n      : @23 [@dyn 1] (gas: 100)\n   218: a1 = u8 [a0 + 0x1]\n   221: a2 = u8 [a0]\n   223: a3 = u8 [a0 + 0x2]\n   226: a4 = u8 [a0 + 0x3]\n   229: a1 = a1 << 0x8\n   232: a1 = a1 | a2\n   235: a3 = a3 << 0x10\n   238: a4 = a4 << 0x18\n   241: a3 = a3 | a4\n   244: a1 = a1 | a3\n   247: a2 = u8 [a0 + 0x5]\n   250: a3 = u8 [a0 + 0x4]\n   253: a4 = u8 [a0 + 0x6]\n   256: a5 = u8 [a0 + 0x7]\n   259: a2 = a2 << 0x8\n   262: a2 = a2 | a3\n   265: a4 = a4 << 0x10\n   268: a5 = a5 << 0x18\n   271: a4 = a4 | a5\n   274: a2 = a2 | a4\n   277: a2 = a2 << 0x20\n   280: t0 = a2 | a1\n   283: a2 = u8 [a0 + 0x9]\n   286: a3 = u8 [a0 + 0x8]\n   289: a4 = u8 [a0 + 0xa]\n   292: a5 = u8 [a0 + 0xb]\n   295: a2 = a2 << 0x8\n   298: a2 = a2 | a3\n   301: a4 = a4 << 0x10\n   304: a5 = a5 << 0x18\n   307: a4 = a4 | a5\n   310: a2 = a2 | a4\n   313: a3 = u8 [a0 + 0xd]\n   316: a4 = u8 [a0 + 0xc]\n   319: a5 = u8 [a0 + 0xe]\n   322: a1 = u8 [a0 + 0xf]\n   325: a3 = a3 << 0x8\n   328: a3 = a3 | a4\n   331: a5 = a5 << 0x10\n   334: a1 = a1 << 0x18\n   337: a1 = a1 | a5\n   340: a1 = a1 | a3\n   343: a1 = a1 << 0x20\n   346: t1 = a1 | a2\n   349: a1 = u8 [a0 + 0x11]\n   352: a3 = u8 [a0 + 0x10]\n   355: a4 = u8 [a0 + 0x12]\n   358: a5 = u8 [a0 + 0x13]\n   361: a1 = a1 << 0x8\n   364: a1 = a1 | a3\n   367: a4 = a4 << 0x10\n   370: a5 = a5 << 0x18\n   373: a4 = a4 | a5\n   376: a1 = a1 | a4\n   379: a3 = u8 [a0 + 0x15]\n   382: a4 = u8 [a0 + 0x14]\n   385: a5 = u8 [a0 + 0x16]\n   388: a2 = u8 [a0 + 0x17]\n   391: a3 = a3 << 0x8\n   394: a3 = a3 | a4\n   397: a5 = a5 << 0x10\n   400: a2 = a2 << 0x18\n   403: a2 = a2 | a5\n   406: a2 = a2 | a3\n   409: a2 = a2 << 0x20\n   412: a3 = a2 | a1\n   415: a1 = u8 [a0 + 0x19]\n   418: a2 = u8 [a0 + 0x18]\n   421: a4 = u8 [a0 + 0x1a]\n   424: a5 = u8 [a0 + 0x1b]\n   427: a1 = a1 << 0x8\n   430: a1 = a1 | a2\n   433: a4 = a4 << 0x10\n   436: a5 = a5 << 0x18\n   439: a4 = a4 | a5\n   442: a1 = a1 | a4\n   445: a2 = u8 [a0 + 0x1d]\n   448: a4 = u8 [a0 + 0x1c]\n   451: a5 = u8 [a0 + 0x1e]\n   454: a0 = u8 [a0 + 0x1f]\n   457: a2 = a2 << 0x8\n   460: a2 = a2 | a4\n   463: a5 = a5 << 0x10\n   466: a0 = a0 << 0x18\n   469: a0 = a0 | a5\n   472: a0 = a0 | a2\n   475: a0 = a0 << 0x20\n   478: a0 = a0 | a1\n   481: a0 = reverse a0\n   483: a1 = reverse a3\n   485: a2 = reverse t1\n   487: a3 = reverse t0\n   489: u64 [s0 + 0x18] = a3\n   492: u64 [s0 + 0x10] = a2\n   495: u64 [s0 + 0x8] = a1\n   498: u64 [s0] = a0\n   500: ra = u64 [sp + 0x8]\n   503: s0 = u64 [sp]\n   505: sp = sp + 0x10\n   508: ret\n      : @24 (gas: 12)\n   510: sp = sp + 0xffffffffffffffd8\n   513: u64 [sp + 0x20] = ra\n   516: u64 [sp + 0x18] = s0\n   519: u64 [sp + 0x10] = s1\n   522: a2 = u64 [a1]\n   524: u64 [sp + 0x8] = a2\n   527: a2 = u64 [a1 + 0x8]\n   530: u64 [sp] = a2\n   532: s0 = u64 [a1 + 0x10]\n   535: s1 = u64 [a1 + 0x18]\n   538: a1 = 0x20\n   541: ra = 4, jump @37\n      : @25 [@dyn 2] (gas: 71)\n   546: a1 = reverse s1\n   548: a2 = reverse s0\n   550: a3 = u64 [sp]\n   552: a3 = reverse a3\n   554: a4 = u64 [sp + 0x8]\n   557: a4 = reverse a4\n   559: u8 [a0 + 0x18] = a4\n   562: u8 [a0 + 0x10] = a3\n   565: u8 [a0 + 0x8] = a2\n   568: u8 [a0] = a1\n   570: a5 = a4 >> 0x38\n   573: u8 [a0 + 0x1f] = a5\n   576: a5 = a4 >> 0x30\n   579: u8 [a0 + 0x1e] = a5\n   582: a5 = a4 >> 0x28\n   585: u8 [a0 + 0x1d] = a5\n   588: a5 = a4 >> 0x20\n   591: u8 [a0 + 0x1c] = a5\n   594: a5 = a4 >> 0x18\n   597: u8 [a0 + 0x1b] = a5\n   600: a5 = a4 >> 0x10\n   603: u8 [a0 + 0x1a] = a5\n   606: a4 = a4 >> 0x8\n   609: u8 [a0 + 0x19] = a4\n   612: a4 = a3 >> 0x38\n   615: u8 [a0 + 0x17] = a4\n   618: a4 = a3 >> 0x30\n   621: u8 [a0 + 0x16] = a4\n   624: a4 = a3 >> 0x28\n   627: u8 [a0 + 0x15] = a4\n   630: a4 = a3 >> 0x20\n   633: u8 [a0 + 0x14] = a4\n   636: a4 = a3 >> 0x18\n   639: u8 [a0 + 0x13] = a4\n   642: a4 = a3 >> 0x10\n   645: u8 [a0 + 0x12] = a4\n   648: a3 = a3 >> 0x8\n   651: u8 [a0 + 0x11] = a3\n   654: a3 = a2 >> 0x38\n   657: u8 [a0 + 0xf] = a3\n   660: a3 = a2 >> 0x30\n   663: u8 [a0 + 0xe] = a3\n   666: a3 = a2 >> 0x28\n   669: u8 [a0 + 0xd] = a3\n   672: a3 = a2 >> 0x20\n   675: u8 [a0 + 0xc] = a3\n   678: a3 = a2 >> 0x18\n   681: u8 [a0 + 0xb] = a3\n   684: a3 = a2 >> 0x10\n   687: u8 [a0 + 0xa] = a3\n   690: a2 = a2 >> 0x8\n   693: u8 [a0 + 0x9] = a2\n   696: a2 = a1 >> 0x38\n   699: u8 [a0 + 0x7] = a2\n   702: a2 = a1 >> 0x30\n   705: u8 [a0 + 0x6] = a2\n   708: a2 = a1 >> 0x28\n   711: u8 [a0 + 0x5] = a2\n   714: a2 = a1 >> 0x20\n   717: u8 [a0 + 0x4] = a2\n   720: a2 = a1 >> 0x18\n   723: u8 [a0 + 0x3] = a2\n   726: a2 = a1 >> 0x10\n   729: u8 [a0 + 0x2] = a2\n   732: a1 = a1 >> 0x8\n   735: u8 [a0 + 0x1] = a1\n   738: ra = u64 [sp + 0x20]\n   741: s0 = u64 [sp + 0x18]\n   744: s1 = u64 [sp + 0x10]\n   747: sp = sp + 0x28\n   750: ret\n      : @26 (gas: 43)\n   752: sp = sp + 0xffffffffffffffa0\n   755: u64 [sp + 0x58] = ra\n   758: u64 [sp + 0x50] = s0\n   761: u64 [sp + 0x48] = s1\n   764: s0 = sp + 0x60\n   767: sp = sp & 0xffffffffffffffe0\n   770: s1 = a0\n   772: a0 = u64 [a1 + 0x18]\n   775: a2 = u64 [a1 + 0x10]\n   778: a3 = u64 [a1 + 0x8]\n   781: a1 = u64 [a1]\n   783: a0 = reverse a0\n   785: a2 = reverse a2\n   787: a3 = reverse a3\n   789: a1 = reverse a1\n   791: u64 [sp + 0x18] = a1\n   794: u64 [sp + 0x10] = a3\n   797: u64 [sp + 0x8] = a2\n   800: u64 [sp] = a0\n   802: u64 [sp + 56] = 0\n   805: u64 [sp + 48] = 0\n   808: u64 [sp + 40] = 0\n   811: u64 [sp + 32] = 0\n   814: u32 [sp + 64] = 0x20\n   818: i32 a1 = sp + 0\n   820: i32 a3 = sp + 0x20\n   823: i32 a4 = sp + 0x40\n   826: a2 = 0xffffffffffffffff\n   829: a0 = 0\n   831: ecalli 7 // 'get_storage'\n   833: a0 = u64 [sp + 0x38]\n   836: a1 = u64 [sp + 0x30]\n   839: a2 = u64 [sp + 0x28]\n   842: a3 = u64 [sp + 0x20]\n   845: a0 = reverse a0\n   847: a1 = reverse a1\n   849: a2 = reverse a2\n   851: a3 = reverse a3\n   853: u64 [s1 + 0x18] = a3\n   856: u64 [s1 + 0x10] = a2\n   859: u64 [s1 + 0x8] = a1\n   862: u64 [s1] = a0\n   864: t0 = 6, jump @1579\n      : @27 [@dyn 3] (gas: 1)\n   870: ret\n      : @28 (gas: 40)\n   872: sp = sp + 0xffffffffffffffa0\n   875: u64 [sp + 0x58] = ra\n   878: u64 [sp + 0x50] = s0\n   881: s0 = sp + 0x60\n   884: sp = sp & 0xffffffffffffffe0\n   887: t0 = u64 [a0]\n   889: a3 = u64 [a0 + 0x8]\n   892: a4 = u64 [a0 + 0x10]\n   895: a0 = u64 [a0 + 0x18]\n   898: t1 = u64 [a1]\n   900: a2 = u64 [a1 + 0x8]\n   903: a5 = u64 [a1 + 0x10]\n   906: a1 = u64 [a1 + 0x18]\n   909: t2 = reverse a0\n   911: a4 = reverse a4\n   913: a3 = reverse a3\n   915: a0 = reverse t0\n   917: t0 = reverse a1\n   919: a5 = reverse a5\n   921: a2 = reverse a2\n   923: a1 = reverse t1\n   925: u64 [sp + 0x18] = a0\n   928: u64 [sp + 0x10] = a3\n   931: u64 [sp + 0x8] = a4\n   934: u64 [sp] = t2\n   936: u64 [sp + 0x38] = a1\n   939: u64 [sp + 0x30] = a2\n   942: u64 [sp + 0x28] = a5\n   945: u64 [sp + 0x20] = t0\n   948: i32 a1 = sp + 0\n   950: i32 a3 = sp + 0x20\n   953: a2 = 0xffffffffffffffff\n   956: a4 = 0x20\n   959: a0 = 0\n   961: ecalli 15 // 'set_storage'\n   963: sp = s0 + 0xffffffffffffffa0\n   966: ra = u64 [sp + 0x58]\n   969: s0 = u64 [sp + 0x50]\n   972: sp = sp + 0x60\n   975: ret\n      : @29 (gas: 24)\n   977: sp = sp + 0xffffffffffffff60\n   981: u64 [sp + 0x98] = ra\n   985: u64 [sp + 0x90] = s0\n   989: u64 [sp + 0x88] = s1\n   993: s0 = sp + 0xa0\n   997: sp = sp & 0xffffffffffffffe0\n  1000: a4 = u64 [a3]\n  1002: u64 [sp + 0x38] = a4\n  1005: a4 = u64 [a3 + 0x8]\n  1008: u64 [sp + 0x30] = a4\n  1011: a4 = u64 [a3 + 0x10]\n  1014: u64 [sp + 0x28] = a4\n  1017: a3 = u64 [a3 + 0x18]\n  1020: u64 [sp + 0x20] = a3\n  1023: a3 = u64 [a2]\n  1025: u64 [sp + 0x18] = a3\n  1028: a3 = u64 [a2 + 0x8]\n  1031: u64 [sp + 0x10] = a3\n  1034: a3 = u64 [a2 + 0x10]\n  1037: u64 [sp + 0x8] = a3\n  1040: a2 = u64 [a2 + 0x18]\n  1043: u64 [sp] = a2\n  1045: s1 = a1\n  1047: ra = 8, jump @37\n      : @30 [@dyn 4] (gas: 35)\n  1052: a1 = u64 [sp]\n  1054: a1 = reverse a1\n  1056: a2 = u64 [sp + 0x8]\n  1059: a2 = reverse a2\n  1061: a3 = u64 [sp + 0x10]\n  1064: a3 = reverse a3\n  1066: a4 = u64 [sp + 0x18]\n  1069: a4 = reverse a4\n  1071: u64 [sp + 0x58] = a4\n  1074: u64 [sp + 0x50] = a3\n  1077: u64 [sp + 0x48] = a2\n  1080: u64 [sp + 0x40] = a1\n  1083: a1 = u64 [sp + 0x20]\n  1086: a1 = reverse a1\n  1088: a2 = u64 [sp + 0x28]\n  1091: a2 = reverse a2\n  1093: a3 = u64 [sp + 0x30]\n  1096: a3 = reverse a3\n  1098: a4 = u64 [sp + 0x38]\n  1101: a4 = reverse a4\n  1103: u64 [sp + 0x78] = a4\n  1106: u64 [sp + 0x70] = a3\n  1109: u64 [sp + 0x68] = a2\n  1112: u64 [sp + 0x60] = a1\n  1115: i32 a2 = a0 + 0\n  1117: i32 a3 = s1 + 0\n  1119: i32 a0 = sp + 0x40\n  1122: a1 = 0x2\n  1125: ecalli 5 // 'deposit_event'\n  1127: sp = s0 + 0xffffffffffffff60\n  1131: ra = u64 [sp + 0x98]\n  1135: s0 = u64 [sp + 0x90]\n  1139: s1 = u64 [sp + 0x88]\n  1143: sp = sp + 0xa0\n  1147: ret\n      : @31 (gas: 15)\n  1149: sp = sp + 0xffffffffffffff20\n  1153: u64 [sp + 0xd8] = ra\n  1157: u64 [sp + 0xd0] = s0\n  1161: u64 [sp + 0xc8] = s1\n  1165: s0 = sp + 0xe0\n  1169: sp = sp & 0xffffffffffffffe0\n  1172: a5 = u64 [a4]\n  1174: u64 [sp + 0x40] = a5\n  1177: a5 = u64 [a4 + 0x8]\n  1180: u64 [sp + 0x48] = a5\n  1183: a5 = u64 [a4 + 0x10]\n  1186: u64 [sp + 0x50] = a5\n  1189: a4 = u64 [a4 + 0x18]\n  1192: u64 [sp + 0x58] = a4\n  1195: t0 = 10, jump @1554\n      : @32 [@dyn 5] (gas: 2)\n  1201: u64 [sp + 0x38] = a1\n  1204: ra = 12, jump @37\n      : @33 [@dyn 6] (gas: 46)\n  1209: a1 = reverse s1\n  1211: u64 [sp + 0x78] = a1\n  1214: a1 = u64 [sp]\n  1216: a1 = reverse a1\n  1218: u64 [sp + 0x70] = a1\n  1221: a1 = u64 [sp + 0x8]\n  1224: a1 = reverse a1\n  1226: u64 [sp + 0x68] = a1\n  1229: a1 = u64 [sp + 0x10]\n  1232: a1 = reverse a1\n  1234: u64 [sp + 0x60] = a1\n  1237: a1 = u64 [sp + 0x18]\n  1240: a1 = reverse a1\n  1242: u64 [sp + 0x98] = a1\n  1246: a1 = u64 [sp + 0x20]\n  1249: a1 = reverse a1\n  1251: u64 [sp + 0x90] = a1\n  1255: a1 = u64 [sp + 0x28]\n  1258: a1 = reverse a1\n  1260: u64 [sp + 0x88] = a1\n  1264: a1 = u64 [sp + 0x30]\n  1267: a1 = reverse a1\n  1269: u64 [sp + 0x80] = a1\n  1273: a1 = u64 [sp + 0x40]\n  1276: a1 = reverse a1\n  1278: u64 [sp + 0xb8] = a1\n  1282: a1 = u64 [sp + 0x48]\n  1285: a1 = reverse a1\n  1287: u64 [sp + 0xb0] = a1\n  1291: a1 = u64 [sp + 0x50]\n  1294: a1 = reverse a1\n  1296: u64 [sp + 0xa8] = a1\n  1300: a1 = u64 [sp + 0x58]\n  1303: a1 = reverse a1\n  1305: u64 [sp + 0xa0] = a1\n  1309: i32 a2 = a0 + 0\n  1311: a3 = i32 [sp + 0x38]\n  1314: i32 a0 = sp + 0x60\n  1317: a1 = 0x3\n  1320: ecalli 5 // 'deposit_event'\n  1322: sp = s0 + 0xffffffffffffff20\n  1326: ra = u64 [sp + 0xd8]\n  1330: s0 = u64 [sp + 0xd0]\n  1334: s1 = u64 [sp + 0xc8]\n  1338: sp = sp + 0xe0\n  1342: ret\n      : @34 (gas: 23)\n  1344: sp = sp + 0xfffffffffffffee0\n  1348: u64 [sp + 0x118] = ra\n  1352: u64 [sp + 0x110] = s0\n  1356: u64 [sp + 0x108] = s1\n  1360: s0 = sp + 0x120\n  1364: sp = sp & 0xffffffffffffffe0\n  1367: s1 = u64 [a5]\n  1369: u64 [sp + 0x60] = s1\n  1372: s1 = u64 [a5 + 0x8]\n  1375: u64 [sp + 0x68] = s1\n  1378: s1 = u64 [a5 + 0x10]\n  1381: u64 [sp + 0x70] = s1\n  1384: a5 = u64 [a5 + 0x18]\n  1387: u64 [sp + 0x78] = a5\n  1390: a5 = u64 [a4]\n  1392: u64 [sp + 0x38] = a5\n  1395: a5 = u64 [a4 + 0x8]\n  1398: u64 [sp + 0x40] = a5\n  1401: a5 = u64 [a4 + 0x10]\n  1404: u64 [sp + 0x48] = a5\n  1407: a4 = u64 [a4 + 0x18]\n  1410: u64 [sp + 0x50] = a4\n  1413: t0 = 14, jump @1554\n      : @35 [@dyn 7] (gas: 2)\n  1419: u64 [sp + 0x58] = a1\n  1422: ra = 16, jump @37\n      : @36 [@dyn 8] (gas: 58)\n  1427: a1 = reverse s1\n  1429: u64 [sp + 0x98] = a1\n  1433: a1 = u64 [sp]\n  1435: a1 = reverse a1\n  1437: u64 [sp + 0x90] = a1\n  1441: a1 = u64 [sp + 0x8]\n  1444: a1 = reverse a1\n  1446: u64 [sp + 0x88] = a1\n  1450: a1 = u64 [sp + 0x10]\n  1453: a1 = reverse a1\n  1455: u64 [sp + 0x80] = a1\n  1459: a1 = u64 [sp + 0x18]\n  1462: a1 = reverse a1\n  1464: u64 [sp + 0xb8] = a1\n  1468: a1 = u64 [sp + 0x20]\n  1471: a1 = reverse a1\n  1473: u64 [sp + 0xb0] = a1\n  1477: a1 = u64 [sp + 0x28]\n  1480: a1 = reverse a1\n  1482: u64 [sp + 0xa8] = a1\n  1486: a1 = u64 [sp + 0x30]\n  1489: a1 = reverse a1\n  1491: u64 [sp + 0xa0] = a1\n  1495: a1 = u64 [sp + 0x38]\n  1498: a1 = reverse a1\n  1500: u64 [sp + 0xd8] = a1\n  1504: a1 = u64 [sp + 0x40]\n  1507: a1 = reverse a1\n  1509: u64 [sp + 0xd0] = a1\n  1513: a1 = u64 [sp + 0x48]\n  1516: a1 = reverse a1\n  1518: u64 [sp + 0xc8] = a1\n  1522: a1 = u64 [sp + 0x50]\n  1525: a1 = reverse a1\n  1527: u64 [sp + 0xc0] = a1\n  1531: a1 = u64 [sp + 0x60]\n  1534: a1 = reverse a1\n  1536: u64 [sp + 0xf8] = a1\n  1540: a1 = u64 [sp + 0x68]\n  1543: a1 = reverse a1\n  1545: u64 [sp + 0xf0] = a1\n  1549: a1 = u64 [sp + 0x70]\n  1552: a1 = reverse a1\n  1554: u64 [sp + 0xe8] = a1\n  1558: a1 = u64 [sp + 0x78]\n  1561: a1 = reverse a1\n  1563: u64 [sp + 0xe0] = a1\n  1567: i32 a2 = a0 + 0\n  1569: a3 = i32 [sp + 0x58]\n  1572: i32 a0 = sp + 0x80\n  1576: a1 = 0x4\n  1579: ecalli 5 // 'deposit_event'\n  1581: sp = s0 + 0xfffffffffffffee0\n  1585: ra = u64 [sp + 0x118]\n  1589: s0 = u64 [sp + 0x110]\n  1593: s1 = u64 [sp + 0x108]\n  1597: sp = sp + 0x120\n  1601: ret\n      : @37 (gas: 2)\n  1603: i32 a2 = a0 >> 0x10\n  1606: jump @42 if a2 != 0\n      : @38 (gas: 4)\n  1609: a1 = a1 + a0\n  1612: i32 a1 = a1 + 0x1f\n  1615: a1 = a1 & 0xffffffffffffffe0\n  1618: jump @42 if a1 >u 65536\n      : @39 (gas: 3)\n  1624: a2 = 0x20180\n  1629: a3 = i32 [0x20180]\n  1634: jump @41 if a3 >=u a1\n      : @40 (gas: 2)\n  1637: u32 [0x20180] = a1\n  1642: fallthrough\n      : @41 (gas: 4)\n  1643: a1 = 0x20190\n  1648: i32 a0 = a0 + 0\n  1650: a0 = a0 + a1\n  1653: ret\n      : @42 (gas: 1)\n  1655: trap\n      : @43 (gas: 6)\n  1656: sp = sp + 0xfffffffffffffff0\n  1659: u64 [sp + 0x8] = ra\n  1662: u64 [sp] = s0\n  1664: s0 = a0 & 0x1\n  1667: ecalli 3 // 'call_data_size'\n  1669: fallthrough\n      : @44 (gas: 2)\n  1670: u32 [0x2017c] = a0\n  1675: jump @46 if s0 == 0\n      : @45 (gas: 1)\n  1678: ra = 18, jump @47\n      : @46 [@dyn 9] (gas: 1)\n  1682: ra = 20, jump @73\n      : @47 [@dyn 10] (gas: 13)\n  1687: sp = sp + 0xffffffffffffff00\n  1691: u64 [sp + 0xf8] = ra\n  1695: u64 [sp + 0xf0] = s0\n  1699: u64 [sp + 0xe8] = s1\n  1703: s0 = sp + 0x100\n  1707: sp = sp & 0xffffffffffffffe0\n  1710: u64 [sp + 216] = 0\n  1714: u64 [sp + 208] = 0\n  1718: u64 [sp + 200] = 0\n  1722: u64 [sp + 192] = 0\n  1726: i32 a0 = sp + 0xc0\n  1730: ecalli 16 // 'value_transferred'\n  1732: fallthrough\n      : @48 (gas: 8)\n  1733: a0 = u64 [sp + 0xd0]\n  1737: a1 = u64 [sp + 0xd8]\n  1741: a2 = u64 [sp + 0xc8]\n  1745: a3 = u64 [sp + 0xc0]\n  1749: a1 = a1 | a2\n  1752: a0 = a0 | a3\n  1755: a0 = a0 | a1\n  1758: jump @60 if a0 != 0\n      : @49 (gas: 15)\n  1762: s1 = i32 [0x2017c]\n  1767: a0 = s1 << 0x20\n  1770: a0 = a0 >> 0x20\n  1773: a0 = a0 + 0x1f\n  1776: a0 = a0 & 0xffffffffffffffe0\n  1779: a1 = a0 + 0xa0\n  1783: a0 = a1 <u a0\n  1786: u64 [sp + 0xa0] = a1\n  1790: u64 [sp + 0xa8] = a0\n  1794: a0 = 0 if a0 != 0\n  1796: u64 [sp + 0xb0] = a0\n  1800: a0 = 0x40\n  1803: a1 = sp + 0xa0\n  1807: u64 [sp + 184] = 0\n  1811: ra = 22, jump @24\n      : @50 [@dyn 11] (gas: 3)\n  1816: a0 = 0xa0\n  1820: a1 = s1\n  1822: ra = 24, jump @37\n      : @51 [@dyn 12] (gas: 5)\n  1827: i32 a0 = a0 + 0\n  1829: a1 = s1\n  1831: a2 = 0\n  1833: ecalli 1 // 'call_data_copy'\n  1835: fallthrough\n      : @52 (gas: 1)\n  1836: jump @61 if s1 <=u 31\n      : @53 (gas: 3)\n  1841: a0 = sp + 0x80\n  1845: a1 = 0xa0\n  1849: ra = 26, jump @22\n      : @54 [@dyn 13] (gas: 10)\n  1854: a0 = u64 [sp + 0x90]\n  1858: a2 = u64 [sp + 0x98]\n  1862: a1 = 0x100000000\n  1872: a1 = a1 ^ a0\n  1875: a1 = a1 | a2\n  1878: a3 = a0 >> 0x20\n  1881: a3 = a3 <u 0x1\n  1884: a3 = 0 if a2 != 0\n  1886: a3 = 0 if a1 == 0\n  1888: jump @62 if a3 == 0\n      : @55 (gas: 6)\n  1891: a1 = u64 [sp + 0x80]\n  1895: a3 = u64 [sp + 0x88]\n  1899: a4 = a1 | a0\n  1902: a5 = a3 | a2\n  1905: a4 = a4 | a5\n  1908: jump @63 if a4 == 0\n      : @56 (gas: 7)\n  1911: u64 [sp + 0x60] = a1\n  1914: u64 [sp + 0x68] = a3\n  1917: u64 [sp + 0x70] = a0\n  1920: a0 = 0x80\n  1924: a1 = sp + 0x60\n  1927: u64 [sp + 0x78] = a2\n  1930: ra = 28, jump @24\n      : @57 [@dyn 14] (gas: 3)\n  1935: a0 = sp + 0x40\n  1938: a1 = 0x40\n  1941: ra = 30, jump @22\n      : @58 [@dyn 15] (gas: 12)\n  1946: a0 = u64 [sp + 0x58]\n  1949: a1 = u64 [sp + 0x50]\n  1952: a2 = u64 [sp + 0x48]\n  1955: s1 = u64 [sp + 0x40]\n  1958: a0 = a0 | a2\n  1961: a2 = s1 | a1\n  1964: a2 = a2 | a0\n  1967: a2 = a2 >> 0x20\n  1970: a0 = a0 | a1\n  1973: a0 = a0 << 0x20\n  1976: a0 = a0 | a2\n  1979: jump @67 if a0 == 0\n      : @59 (gas: 1)\n  1982: trap\n      : @60 (gas: 4)\n  1983: a1 = 0x20190\n  1988: i32 a1 = a1 + 0\n  1990: a0 = 0x1\n  1993: jump @72\n      : @61 (gas: 4)\n  1996: a1 = 0x20190\n  2001: i32 a1 = a1 + 0\n  2003: a0 = 0x1\n  2006: jump @72\n      : @62 (gas: 4)\n  2009: a1 = 0x20190\n  2014: i32 a1 = a1 + 0\n  2016: a0 = 0x1\n  2019: jump @72\n      : @63 (gas: 8)\n  2022: u64 [sp + 16] = 0\n  2025: u64 [sp + 8] = 0\n  2028: u64 [sp + 0] = 0\n  2030: a0 = 0x14bcf5c800000000\n  2040: a1 = sp\n  2042: u64 [sp + 0x18] = a0\n  2045: a0 = 0\n  2047: ra = 32, jump @24\n      : @64 [@dyn 16] (gas: 2)\n  2052: a1 = i32 [0x20180]\n  2057: jump @66 if a1 >u 31\n      : @65 (gas: 2)\n  2061: u32 [0x20180] = 0x20\n  2067: fallthrough\n      : @66 (gas: 6)\n  2068: a1 = 0x20190\n  2073: i32 a1 = a1 + 0\n  2075: a0 = 0x1\n  2078: a2 = 0x4\n  2081: ecalli 13 // 'seal_return'\n  2083: fallthrough\n      : @67 (gas: 3)\n  2084: a0 = s1\n  2086: a1 = 0\n  2088: ra = 34, jump @37\n      : @68 [@dyn 17] (gas: 7)\n  2093: i32 a0 = a0 + 0\n  2095: a1 = 0\n  2097: a2 = 0\n  2099: ecalli 1 // 'call_data_copy'\n  2101: a0 = sp + 0x20\n  2104: a1 = 0x80\n  2108: ra = 36, jump @22\n      : @69 [@dyn 18] (gas: 9)\n  2113: a0 = u64 [sp + 0x38]\n  2116: a2 = u64 [sp + 0x30]\n  2119: a3 = u64 [sp + 0x28]\n  2122: a4 = u64 [sp + 0x20]\n  2125: u64 [0x301c8] = a0\n  2130: u64 [0x301c0] = a2\n  2135: u64 [0x301b8] = a3\n  2140: u64 [0x301b0] = a4\n  2145: jump @20\n      : @70 (gas: 3)\n  2148: a0 = s1\n  2150: a1 = 0\n  2152: ra = 38, jump @37\n      : @71 [@dyn 19] (gas: 6)\n  2157: i32 a1 = a0 + 0\n  2159: a0 = 0\n  2161: a2 = 0\n  2163: ra = 0x28\n  2166: ecalli 13 // 'seal_return'\n  2168: jump @73\n      : @72 (gas: 4)\n  2170: a2 = 0\n  2172: ra = 0x28\n  2175: ecalli 13 // 'seal_return'\n  2177: fallthrough\n      : @73 [@dyn 20] (gas: 16)\n  2178: sp = sp + 0xfffffffffffffe10\n  2182: u64 [sp + 0x1e8] = ra\n  2186: u64 [sp + 0x1e0] = s0\n  2190: u64 [sp + 0x1d8] = s1\n  2194: s0 = sp + 0x1f0\n  2198: sp = sp + 0xffffffffffffcd50\n  2202: sp = sp & 0xffffffffffffffe0\n  2205: s1 = sp\n  2207: a2 = s1 + 0x2938\n  2211: u64 [a2 + 512] = 0\n  2215: u64 [a2 + 504] = 0\n  2219: u64 [a2 + 488] = 0x80\n  2225: a0 = 0x40\n  2228: a1 = s1 + 0x2b20\n  2232: u64 [a2 + 496] = 0\n  2236: ra = 42, jump @24\n      : @74 [@dyn 21] (gas: 4)\n  2241: a0 = 0x2017c\n  2246: u64 [s1 + 0x198] = a0\n  2250: a0 = i32 [0x2017c]\n  2255: jump @76 if a0 >=u 4\n      : @75 (gas: 1)\n  2259: jump @1040\n      : @76 (gas: 6)\n  2262: a0 = s1 + 0x3000\n  2266: i32 a0 = a0 + 0xfffffffffffffb40\n  2270: a1 = 0\n  2272: ra = 0x2c\n  2275: ecalli 2 // 'call_data_load'\n  2277: fallthrough\n      : @77 [@dyn 22] (gas: 3)\n  2278: a2 = s1 + 0x2938\n  2282: a0 = i32 [a2 + 0x224]\n  2286: jump @79 if a0 != 2293374087\n      : @78 (gas: 1)\n  2293: jump @415\n      : @79 (gas: 1)\n  2296: jump @185 if a0 == 2401489772\n      : @80 (gas: 1)\n  2304: jump @109 if a0 == 2573362740\n      : @81 (gas: 2)\n  2312: a3 = s1 + 0x3138\n  2316: jump @83 if a0 != 3062082785\n      : @82 (gas: 1)\n  2323: jump @488\n      : @83 (gas: 1)\n  2326: jump @219 if a0 == 3135182381\n      : @84 (gas: 1)\n  2334: jump @86 if a0 != 3504541104\n      : @85 (gas: 1)\n  2341: jump @535\n      : @86 (gas: 1)\n  2344: jump @88 if a0 != 248271711\n      : @87 (gas: 1)\n  2351: jump @325\n      : @88 (gas: 1)\n  2354: jump @90 if a0 != 573237126\n      : @89 (gas: 1)\n  2361: jump @461\n      : @90 (gas: 1)\n  2364: jump @92 if a0 != 773487949\n      : @91 (gas: 1)\n  2371: jump @375\n      : @92 (gas: 1)\n  2374: jump @147 if a0 == 932579317\n      : @93 (gas: 1)\n  2382: jump @95 if a0 != 1097525096\n      : @94 (gas: 1)\n  2389: jump @256\n      : @95 (gas: 1)\n  2392: jump @97 if a0 != 1221342904\n      : @96 (gas: 1)\n  2399: jump @230\n      : @97 (gas: 1)\n  2402: jump @99 if a0 == 1251080110\n      : @98 (gas: 1)\n  2409: jump @360\n      : @99 (gas: 10)\n  2412: u64 [a2 + 1664] = 0\n  2416: u64 [a2 + 1656] = 0\n  2420: u64 [a2 + 1648] = 0\n  2424: u64 [a2 + 1640] = 0\n  2428: a0 = s1 + 0x3000\n  2432: i32 a0 = a0 + 0xffffffffffffffa0\n  2435: ra = 0x2e\n  2438: ecalli 16 // 'value_transferred'\n  2440: t0 = 0x30\n  2443: jump @1558\n      : @100 [@dyn 23] (gas: 1)\n  2447: t0 = 48, jump @1558\n      : @101 [@dyn 24] (gas: 8)\n  2453: a0 = u64 [a4 + 0x78]\n  2456: a1 = u64 [a4 + 0x80]\n  2460: a2 = u64 [a4 + 0x70]\n  2463: a3 = u64 [a4 + 0x68]\n  2466: a1 = a1 | a2\n  2469: a0 = a0 | a3\n  2472: a0 = a0 | a1\n  2475: jump @103 if a0 == 0\n      : @102 (gas: 1)\n  2478: jump @860\n      : @103 (gas: 3)\n  2481: a0 = u64 [s1 + 0x198]\n  2485: a0 = i32 [a0]\n  2487: jump @105 if a0 >u 3\n      : @104 (gas: 1)\n  2491: jump @861\n      : @105 (gas: 3)\n  2494: a0 = s1 + 0x1300\n  2498: a1 = 0x40\n  2501: ra = 50, jump @22\n      : @106 [@dyn 25] (gas: 14)\n  2506: a3 = s1 + 0x1118\n  2510: a4 = u64 [a3 + 0x200]\n  2514: a5 = a3 + 0x100\n  2518: a1 = u64 [a5 + 0xf8]\n  2522: a2 = u64 [a5 + 0xf0]\n  2526: a0 = u64 [a5 + 0xe8]\n  2530: a4 = a4 | a2\n  2533: a2 = a0 | a1\n  2536: a2 = a2 | a4\n  2539: a2 = a2 >> 0x20\n  2542: a1 = a1 | a4\n  2545: a1 = a1 << 0x20\n  2548: a1 = a1 | a2\n  2551: jump @108 if a1 == 0\n      : @107 (gas: 1)\n  2554: jump @854\n      : @108 (gas: 9)\n  2557: a1 = u64 [0x200a0]\n  2562: u64 [a3 + 480] = 0\n  2566: u64 [a3 + 472] = 0\n  2570: u64 [a3 + 0x1c8] = a1\n  2574: a1 = s1 + 0x12e0\n  2578: u64 [a3 + 464] = 0\n  2582: u64 [s1 + 0x198] = a0\n  2586: ra = 0xb6\n  2590: jump @24\n      : @109 (gas: 10)\n  2593: u64 [a2 + 1888] = 0\n  2597: u64 [a2 + 1880] = 0\n  2601: u64 [a2 + 1872] = 0\n  2605: u64 [a2 + 1864] = 0\n  2609: a0 = s1 + 0x3000\n  2613: i32 a0 = a0 + 0x80\n  2617: ra = 0x34\n  2620: ecalli 16 // 'value_transferred'\n  2622: t0 = 0x36\n  2625: jump @1586\n      : @110 [@dyn 26] (gas: 1)\n  2629: t0 = 54, jump @1586\n      : @111 [@dyn 27] (gas: 8)\n  2635: a0 = u64 [a4 + 0x58]\n  2638: a1 = u64 [a4 + 0x60]\n  2641: a2 = u64 [a4 + 0x50]\n  2644: a3 = u64 [a4 + 0x48]\n  2647: a1 = a1 | a2\n  2650: a0 = a0 | a3\n  2653: a0 = a0 | a1\n  2656: jump @113 if a0 == 0\n      : @112 (gas: 1)\n  2659: jump @862\n      : @113 (gas: 3)\n  2662: a0 = u64 [s1 + 0x198]\n  2666: a0 = i32 [a0]\n  2668: jump @115 if a0 >u 67\n      : @114 (gas: 1)\n  2672: jump @863\n      : @115 (gas: 4)\n  2675: a0 = s1 + 0x1a60\n  2679: ra = 0x38\n  2682: t0 = 0x566\n  2686: jump @1577\n      : @116 [@dyn 28] (gas: 13)\n  2690: a0 = s1 + 0x1918\n  2694: a2 = a0 + 0x100\n  2698: a1 = u64 [a2 + 0x58]\n  2701: u64 [s1 + 0x168] = a1\n  2705: a1 = u64 [a2 + 0x50]\n  2708: u64 [s1 + 0x198] = a1\n  2712: a0 = u64 [a2 + 0x48]\n  2715: u64 [s1 + 0x190] = a0\n  2719: a0 = s1 + 0x3000\n  2723: i32 a0 = a0 + 0xa0\n  2727: a1 = 0x24\n  2730: ecalli 2 // 'call_data_load'\n  2732: fallthrough\n      : @117 (gas: 19)\n  2733: a0 = s1 + 0x2938\n  2737: a5 = a0 + 0x700\n  2741: a4 = u64 [a5 + 0x80]\n  2745: a3 = u64 [a5 + 0x78]\n  2748: a2 = u64 [a5 + 0x70]\n  2751: a1 = u64 [a5 + 0x68]\n  2754: a5 = s1 + 0x100\n  2758: u64 [a5 + 0x80] = a2\n  2762: u64 [a5 + 0x70] = a4\n  2765: a0 = a2 | a4\n  2768: u64 [a5 + 0x88] = a1\n  2772: a1 = a1 | a3\n  2775: a1 = a1 | a0\n  2778: a1 = a1 >> 0x20\n  2781: u64 [a5 + 0x78] = a3\n  2784: a0 = a0 | a3\n  2787: a0 = a0 << 0x20\n  2790: a0 = a0 | a1\n  2793: jump @119 if a0 == 0\n      : @118 (gas: 1)\n  2796: jump @864\n      : @119 (gas: 15)\n  2799: a3 = s1 + 0x100\n  2803: a0 = u64 [a3 + 0x68]\n  2806: a0 = a0 << 0x20\n  2809: a0 = a0 >> 0x20\n  2812: a2 = s1 + 0x1918\n  2816: u64 [a2 + 320] = 0\n  2820: a1 = u64 [a3 + 0x90]\n  2824: a4 = a2 + 0x100\n  2828: u64 [a4 + 0x28] = a1\n  2831: a1 = u64 [a3 + 0x98]\n  2835: u64 [a4 + 0x30] = a1\n  2838: a1 = s1 + 0x1a40\n  2842: u64 [a4 + 0x38] = a0\n  2845: a0 = 0\n  2847: ra = 58, jump @24\n      : @120 [@dyn 29] (gas: 3)\n  2852: t0 = 0x3c\n  2855: a1 = s1 + 0x1918\n  2859: fallthrough\n      : @121 [@dyn 30] (gas: 8)\n  2860: u64 [a1 + 288] = 0\n  2864: u64 [a1 + 280] = 0\n  2868: u64 [a1 + 264] = 0x2\n  2873: a2 = a1\n  2875: a0 = 0x20\n  2878: a1 = s1 + 0x1a20\n  2882: u64 [a2 + 272] = 0\n  2886: ra = 62, jump @24\n      : @122 [@dyn 31] (gas: 3)\n  2891: a1 = 0x20180\n  2896: a0 = i32 [0x20180]\n  2901: jump @124 if a0 >u 63\n      : @123 (gas: 2)\n  2905: u32 [0x20180] = 0x40\n  2911: fallthrough\n      : @124 (gas: 14)\n  2912: a0 = sp + 0xffffffffffffffe0\n  2915: a2 = a0 & 0xffffffffffffffe0\n  2918: u64 [s1 + 0x168] = a2\n  2922: sp = a2\n  2924: a0 = 0x20190\n  2929: i32 a0 = a0 + 0\n  2931: u64 [s1 + 0x198] = a1\n  2935: i32 a2 = a2 + 0\n  2937: a1 = 0x40\n  2940: u64 [s1 + 0x190] = a0\n  2944: ra = 0x40\n  2947: ecalli 8 // 'hash_keccak_256'\n  2949: t0 = 0x42\n  2952: jump @1527\n      : @125 [@dyn 32] (gas: 1)\n  2956: t0 = 66, jump @1527\n      : @126 [@dyn 33] (gas: 3)\n  2962: t0 = 0x44\n  2965: a2 = s1 + 0x1918\n  2969: fallthrough\n      : @127 [@dyn 34] (gas: 11)\n  2970: a0 = u64 [s1 + 0x170]\n  2974: u64 [a2 + 0x100] = a0\n  2978: a0 = u64 [s1 + 0x178]\n  2982: u64 [a2 + 0xf8] = a0\n  2986: a0 = u64 [s1 + 0x180]\n  2990: u64 [a2 + 0xf0] = a0\n  2994: a1 = s1 + 0x1a00\n  2998: a0 = u64 [s1 + 0x188]\n  3002: u64 [a2 + 0xe8] = a0\n  3006: a0 = 0\n  3008: ra = 70, jump @24\n      : @128 [@dyn 35] (gas: 3)\n  3013: t0 = 0x48\n  3016: a1 = s1 + 0x1918\n  3020: fallthrough\n      : @129 [@dyn 36] (gas: 12)\n  3021: a0 = u64 [s1 + 0x148]\n  3025: u64 [a1 + 0xe0] = a0\n  3029: a0 = u64 [s1 + 0x150]\n  3033: u64 [a1 + 0xd8] = a0\n  3037: a0 = u64 [s1 + 0x158]\n  3041: u64 [a1 + 0xd0] = a0\n  3045: a3 = a1\n  3047: a0 = 0x20\n  3050: a1 = s1 + 0x19e0\n  3054: a2 = u64 [s1 + 0x160]\n  3058: u64 [a3 + 0xc8] = a2\n  3062: ra = 74, jump @24\n      : @130 [@dyn 37] (gas: 3)\n  3067: a1 = u64 [s1 + 0x198]\n  3071: a0 = i32 [a1]\n  3073: jump @132 if a0 >u 63\n      : @131 (gas: 2)\n  3077: u32 [a1 + 0] = 0x40\n  3080: fallthrough\n      : @132 (gas: 4)\n  3081: a0 = sp + 0xffffffffffffffe0\n  3084: a0 = a0 & 0xffffffffffffffe0\n  3087: u64 [s1 + 0x188] = a0\n  3091: t0 = 76, jump @1535\n      : @133 [@dyn 38] (gas: 21)\n  3097: ecalli 8 // 'hash_keccak_256'\n  3099: a3 = u64 [s1 + 0x188]\n  3103: a0 = u64 [a3 + 0x18]\n  3106: a1 = u64 [a3 + 0x10]\n  3109: a2 = u64 [a3 + 0x8]\n  3112: a3 = u64 [a3]\n  3114: a5 = reverse a0\n  3116: u64 [s1 + 0xd8] = a5\n  3120: a4 = reverse a1\n  3122: u64 [s1 + 0xe0] = a4\n  3126: a2 = reverse a2\n  3128: u64 [s1 + 0xf0] = a2\n  3132: a0 = reverse a3\n  3134: u64 [s1 + 0xe8] = a0\n  3138: a1 = u64 [s1 + 0x168]\n  3142: u64 [a1 + 0x18] = a0\n  3145: u64 [a1 + 0x10] = a2\n  3148: u64 [a1 + 0x8] = a4\n  3151: u64 [a1] = a5\n  3153: a0 = s1 + 0x19c0\n  3157: ra = 78, jump @26\n      : @134 [@dyn 39] (gas: 3)\n  3162: t0 = 0x50\n  3165: a1 = s1 + 0x1918\n  3169: fallthrough\n      : @135 [@dyn 40] (gas: 33)\n  3170: a0 = u64 [a1 + 0xb8]\n  3174: u64 [s1 + 0xc8] = a0\n  3178: a0 = u64 [a1 + 0xb0]\n  3182: u64 [s1 + 0xc0] = a0\n  3186: a0 = u64 [a1 + 0xa8]\n  3190: u64 [s1 + 0xd0] = a0\n  3194: a0 = sp + 0xffffffffffffffe0\n  3197: a4 = a0 & 0xffffffffffffffe0\n  3200: u64 [s1 + 0x188] = a4\n  3204: sp = a4\n  3206: a1 = u64 [s1 + 0xd8]\n  3210: a1 = a1 + 0x1\n  3213: a0 = a1 <u 0x1\n  3216: a2 = u64 [s1 + 0xe0]\n  3220: a2 = a2 + a0\n  3223: a0 = a1 | a2\n  3226: a0 = a0 <u 0x1\n  3229: a5 = u64 [s1 + 0xf0]\n  3233: a3 = a5 + a0\n  3236: a0 = a3 <u a5\n  3239: a5 = u64 [s1 + 0xe8]\n  3243: a0 = a0 + a5\n  3246: u64 [s1 + 0x180] = a0\n  3250: u64 [a4 + 0x18] = a0\n  3253: u64 [s1 + 0x168] = a3\n  3257: u64 [a4 + 0x10] = a3\n  3260: u64 [s1 + 0x170] = a2\n  3264: u64 [a4 + 0x8] = a2\n  3267: u64 [s1 + 0x178] = a1\n  3271: u64 [a4] = a1\n  3273: a0 = s1 + 0x19a0\n  3277: a1 = 0x40\n  3280: ra = 82, jump @22\n      : @136 [@dyn 41] (gas: 12)\n  3285: a0 = s1 + 0x1918\n  3289: a1 = u64 [a0 + 0xa0]\n  3293: u64 [s1 + 0x110] = a1\n  3297: a1 = u64 [a0 + 0x98]\n  3301: u64 [s1 + 0xf8] = a1\n  3305: a1 = u64 [a0 + 0x90]\n  3309: u64 [s1 + 0x100] = a1\n  3313: a1 = u64 [a0 + 0x88]\n  3317: u64 [s1 + 0x108] = a1\n  3321: a0 = s1 + 0x1980\n  3325: a1 = u64 [s1 + 0x188]\n  3329: ra = 84, jump @26\n      : @137 [@dyn 42] (gas: 16)\n  3334: a3 = s1 + 0x1918\n  3338: a0 = u64 [a3 + 0x80]\n  3342: a1 = u64 [a3 + 0x78]\n  3345: a2 = u64 [a3 + 0x70]\n  3348: a4 = u64 [a3 + 0x68]\n  3351: u64 [s1 + 0x160] = a0\n  3355: u64 [a3 + 0x40] = a0\n  3358: u64 [s1 + 0x130] = a1\n  3362: u64 [a3 + 0x38] = a1\n  3365: u64 [s1 + 0x128] = a2\n  3369: u64 [a3 + 0x30] = a2\n  3372: a0 = s1 + 0x1960\n  3376: a1 = s1 + 0x1940\n  3380: u64 [s1 + 0x188] = a4\n  3384: u64 [a3 + 0x28] = a4\n  3387: ra = 86, jump @1327\n      : @138 [@dyn 43] (gas: 13)\n  3392: a3 = s1 + 0x100\n  3396: a1 = u64 [a3 + 0x10]\n  3399: a0 = u64 [a3 + 0x8]\n  3402: a2 = u64 [a3]\n  3404: a2 = a2 | a1\n  3407: a4 = u64 [s1 + 0xf8]\n  3411: a1 = a0 | a4\n  3414: a1 = a1 | a2\n  3417: a1 = a1 >> 0x20\n  3420: a2 = a2 | a4\n  3423: a2 = a2 << 0x20\n  3426: a1 = a1 | a2\n  3429: jump @140 if a1 == 0\n      : @139 (gas: 1)\n  3432: jump @854\n      : @140 (gas: 15)\n  3435: a2 = s1 + 0x1918\n  3439: t0 = u64 [a2 + 0x60]\n  3442: a4 = u64 [a2 + 0x58]\n  3445: a1 = u64 [a2 + 0x50]\n  3448: a5 = u64 [a2 + 0x48]\n  3451: u64 [s1 + 0x140] = a5\n  3455: u64 [a2 + 0x8] = a5\n  3458: u64 [s1 + 0x150] = a1\n  3462: u64 [a2 + 0x10] = a1\n  3465: u64 [s1 + 0x148] = a4\n  3469: u64 [a2 + 0x18] = a4\n  3472: a1 = s1 + 0x1920\n  3476: u64 [s1 + 0x158] = t0\n  3480: u64 [a2 + 0x20] = t0\n  3483: ra = 88, jump @24\n      : @141 [@dyn 44] (gas: 9)\n  3488: a1 = u64 [s1 + 0x108]\n  3492: a0 = a1 + 0x20\n  3495: a2 = u64 [s1 + 0x188]\n  3499: a4 = a2 & 0x1\n  3502: a3 = u64 [s1 + 0x110]\n  3506: a5 = u64 [s1 + 0xf8]\n  3510: t0 = a5 | a3\n  3513: u64 [s1 + 0x138] = a0\n  3517: jump @143 if a4 == 0\n      : @142 (gas: 1)\n  3520: jump @563\n      : @143 (gas: 8)\n  3523: a5 = a2\n  3525: a2 = 0xffffffe0\n  3535: a3 = a1 <u a2\n  3538: a1 = u64 [s1 + 0x100]\n  3542: a3 = 0 if a1 != 0\n  3544: a3 = 0 if t0 != 0\n  3546: a2 = s1 + 0x1118\n  3550: jump @145 if a3 != 0\n      : @144 (gas: 1)\n  3553: jump @854\n      : @145 (gas: 12)\n  3556: u64 [s1 + 0xb8] = t0\n  3560: a1 = a5 & 0xffffffffffffff00\n  3564: a3 = u64 [s1 + 0x128]\n  3568: a4 = a2 + 0x700\n  3572: u64 [a4 + 0x90] = a3\n  3576: u64 [a4 + 0x88] = a1\n  3580: a1 = u64 [s1 + 0x130]\n  3584: u64 [a4 + 0x98] = a1\n  3588: a1 = s1 + 0x18a0\n  3592: a3 = u64 [s1 + 0x160]\n  3596: u64 [a4 + 0xa0] = a3\n  3600: ra = 90, jump @24\n      : @146 [@dyn 45] (gas: 16)\n  3605: a5 = s1 + 0x1118\n  3609: t2 = 0\n  3611: t1 = 0\n  3613: u64 [s1 + 400] = 0\n  3617: a3 = s1 + 0x100\n  3621: a0 = u64 [a3 + 0x48]\n  3624: a1 = u64 [a3 + 0x40]\n  3627: a0 = a0 | a1\n  3630: a1 = u64 [a3 + 0x58]\n  3633: a2 = u64 [a3 + 0x50]\n  3636: a1 = a1 | a2\n  3639: a0 = a0 | a1\n  3642: a0 = a0 >u 0\n  3644: a0 = a0 << 0x5\n  3647: u64 [a3 + 0x98] = a0\n  3651: jump @763\n      : @147 (gas: 9)\n  3654: u64 [a2 + 1024] = 0\n  3658: u64 [a2 + 1016] = 0\n  3662: u64 [a2 + 1008] = 0\n  3666: u64 [a2 + 1000] = 0\n  3670: a0 = s1 + 0x3000\n  3674: i32 a0 = a0 + 0xfffffffffffffd20\n  3678: ra = 0x5c\n  3681: ecalli 16 // 'value_transferred'\n  3683: fallthrough\n      : @148 [@dyn 46] (gas: 10)\n  3684: a3 = s1 + 0x2938\n  3688: a4 = a3 + 0x300\n  3692: a0 = u64 [a4 + 0xf8]\n  3696: a1 = u64 [a3 + 0x400]\n  3700: a2 = u64 [a4 + 0xf0]\n  3704: a3 = u64 [a4 + 0xe8]\n  3708: a1 = a1 | a2\n  3711: a0 = a0 | a3\n  3714: a0 = a0 | a1\n  3717: jump @150 if a0 == 0\n      : @149 (gas: 1)\n  3720: jump @865\n      : @150 (gas: 1)\n  3723: t0 = 94, jump @1567\n      : @151 [@dyn 47] (gas: 1)\n  3729: jump @153 if a1 <u a0\n      : @152 (gas: 1)\n  3732: jump @866\n      : @153 (gas: 6)\n  3735: a0 = s1 + 0x3000\n  3739: i32 a0 = a0 + 0xfffffffffffffd40\n  3743: a1 = 0x4\n  3746: ra = 0x60\n  3749: ecalli 2 // 'call_data_load'\n  3751: fallthrough\n      : @154 [@dyn 48] (gas: 7)\n  3752: a0 = s1 + 0x2938\n  3756: a5 = a0 + 0x400\n  3760: a1 = u64 [a5 + 0x20]\n  3763: a2 = u64 [a5 + 0x18]\n  3766: a3 = u64 [a5 + 0x10]\n  3769: a4 = u64 [a5 + 0x8]\n  3772: t0 = 98, jump @1575\n      : @155 [@dyn 49] (gas: 1)\n  3778: jump @157 if a0 != 0\n      : @156 (gas: 1)\n  3781: jump @867\n      : @157 (gas: 8)\n  3784: a0 = 0x30190\n  3789: u64 [s1 + 0x198] = a0\n  3793: i32 a0 = a0 + 0\n  3795: u64 [s1 + 0x168] = a0\n  3799: ra = 0x64\n  3802: ecalli 4 // 'caller'\n  3804: t0 = 0x66\n  3807: jump @1541\n      : @158 [@dyn 50] (gas: 1)\n  3811: t0 = 102, jump @1541\n      : @159 [@dyn 51] (gas: 7)\n  3817: u64 [s1 + 1912] = 0\n  3821: u64 [s1 + 0x770] = a1\n  3825: u64 [s1 + 0x768] = a0\n  3829: a1 = s1 + 0x760\n  3833: u64 [s1 + 0x760] = a3\n  3837: a0 = 0\n  3839: ra = 104, jump @24\n      : @160 [@dyn 52] (gas: 7)\n  3844: u64 [s1 + 1880] = 0\n  3848: u64 [s1 + 1872] = 0\n  3852: u64 [s1 + 1856] = 0x1\n  3857: a0 = 0x20\n  3860: a1 = s1 + 0x740\n  3864: u64 [s1 + 1864] = 0\n  3868: ra = 106, jump @24\n      : @161 [@dyn 53] (gas: 7)\n  3873: a0 = sp + 0xffffffffffffffe0\n  3876: a0 = a0 & 0xffffffffffffffe0\n  3879: u64 [s1 + 0x170] = a0\n  3883: sp = a0\n  3885: a2 = 0x20180\n  3890: a0 = i32 [0x20180]\n  3895: jump @163 if a0 >u 63\n      : @162 (gas: 2)\n  3899: u32 [0x20180] = 0x40\n  3905: fallthrough\n      : @163 (gas: 14)\n  3906: u64 [s1 + 0x140] = a2\n  3910: a0 = sp + 0xffffffffffffffe0\n  3913: a2 = a0 & 0xffffffffffffffe0\n  3916: u64 [s1 + 0x158] = a2\n  3920: sp = a2\n  3922: a0 = 0x20190\n  3927: u64 [s1 + 0x160] = a0\n  3931: i32 a0 = a0 + 0\n  3933: i32 a2 = a2 + 0\n  3935: a1 = 0x40\n  3938: u64 [s1 + 0x148] = a0\n  3942: ra = 0x6c\n  3945: ecalli 8 // 'hash_keccak_256'\n  3947: fallthrough\n      : @164 [@dyn 54] (gas: 11)\n  3948: a3 = u64 [s1 + 0x158]\n  3952: a0 = u64 [a3]\n  3954: a1 = u64 [a3 + 0x8]\n  3957: a2 = u64 [a3 + 0x10]\n  3960: a3 = u64 [a3 + 0x18]\n  3963: a0 = reverse a0\n  3965: a1 = reverse a1\n  3967: a2 = reverse a2\n  3969: a3 = reverse a3\n  3971: a4 = a3 + 0x2\n  3974: t0 = 110, jump @1529\n      : @165 [@dyn 55] (gas: 7)\n  3980: a1 = u64 [s1 + 0x170]\n  3984: u64 [a1] = a4\n  3986: u64 [a1 + 0x8] = a5\n  3989: u64 [a1 + 0x10] = a2\n  3992: u64 [a1 + 0x18] = a0\n  3995: a0 = s1 + 0x720\n  3999: ra = 112, jump @26\n      : @166 [@dyn 56] (gas: 20)\n  4004: t0 = u64 [s1 + 0x738]\n  4008: a1 = u64 [s1 + 0x728]\n  4012: t2 = u64 [s1 + 0x730]\n  4016: t1 = u64 [s1 + 0x720]\n  4020: ra = u64 [s1 + 0x180]\n  4024: a0 = t0 ^ ra\n  4027: a2 = u64 [s1 + 0x190]\n  4031: a5 = a1 ^ a2\n  4034: a3 = a1 <u a2\n  4037: a2 = u64 [s1 + 0x188]\n  4041: a2 = t1 <u a2\n  4044: a2 = a3 if a5 != 0\n  4047: a3 = t0 <u ra\n  4050: a4 = u64 [s1 + 0x178]\n  4054: a5 = t2 <u a4\n  4057: a5 = a3 if a0 != 0\n  4060: a3 = t2 ^ a4\n  4063: a3 = a3 | a0\n  4066: a2 = a5 if a3 != 0\n  4069: jump @168 if a2 == 0\n      : @167 (gas: 1)\n  4072: jump @871\n      : @168 (gas: 15)\n  4075: a0 = u64 [s1 + 0x188]\n  4079: a2 = s1 + 0x600\n  4083: u64 [a2 + 0xc0] = a0\n  4087: u64 [s1 + 0x6e0] = t1\n  4091: a0 = u64 [s1 + 0x190]\n  4095: u64 [a2 + 0xc8] = a0\n  4099: u64 [a2 + 0xe8] = a1\n  4103: u64 [a2 + 0xd0] = a4\n  4107: u64 [s1 + 0x6f0] = t2\n  4111: u64 [s1 + 0x6d8] = ra\n  4115: a0 = s1 + 0x700\n  4119: a1 = s1 + 0x6e0\n  4123: a2 = s1 + 0x6c0\n  4127: u64 [s1 + 0x6f8] = t0\n  4131: ra = 114, jump @1355\n      : @169 [@dyn 57] (gas: 14)\n  4136: a4 = s1 + 0x700\n  4140: a0 = u64 [a4 + 0x18]\n  4143: a1 = u64 [a4 + 0x10]\n  4146: a2 = u64 [a4 + 0x8]\n  4149: a3 = u64 [a4]\n  4151: a4 = s1 + 0x2938\n  4155: a5 = a4 + 0x400\n  4159: u64 [a5 + 0x40] = a0\n  4162: u64 [a5 + 0x38] = a1\n  4165: u64 [a5 + 0x30] = a2\n  4168: u64 [a5 + 0x28] = a3\n  4171: a1 = s1 + 0x2d60\n  4175: a0 = u64 [s1 + 0x170]\n  4179: ra = 116, jump @28\n      : @170 [@dyn 58] (gas: 5)\n  4184: a0 = u64 [s1 + 0x168]\n  4188: ra = 0x76\n  4191: ecalli 4 // 'caller'\n  4193: t0 = 0x78\n  4196: jump @1574\n      : @171 [@dyn 59] (gas: 1)\n  4200: t0 = 120, jump @1574\n      : @172 [@dyn 60] (gas: 4)\n  4206: ra = 0x7a\n  4209: ecalli 10 // 'ref_time_left'\n  4211: t0 = 0x7c\n  4214: jump @1544\n      : @173 [@dyn 61] (gas: 1)\n  4218: t0 = 124, jump @1544\n      : @174 [@dyn 62] (gas: 37)\n  4224: a4 = a2 + 0x400\n  4228: u64 [a4 + 0x60] = a1\n  4231: a1 = u64 [s1 + 0x178]\n  4235: u64 [a4 + 0x58] = a1\n  4238: a1 = u64 [s1 + 0x190]\n  4242: u64 [a4 + 0x50] = a1\n  4245: a1 = u64 [s1 + 0x188]\n  4249: u64 [a4 + 0x48] = a1\n  4252: u32 [a2 + 1128] = 0\n  4256: a0 = a0 >u 0x8fc\n  4260: a1 = -a0\n  4262: u64 [a4 + 0xa0] = a1\n  4266: u64 [a4 + 0x98] = a1\n  4270: u64 [a4 + 0x90] = a1\n  4274: u64 [a4 + 0x88] = a1\n  4278: a1 = a3 << 0x20\n  4281: a1 = a1 >> 0x20\n  4284: a0 = a0 << 0x23\n  4287: a0 = a0 | a1\n  4290: a1 = s1 + 0x2d80\n  4294: a1 = a1 << 0x20\n  4297: a1 = a1 >> 0x20\n  4300: a2 = s1 + 0x2dc0\n  4304: a2 = a2 << 0x20\n  4307: a3 = a2 | a1\n  4310: a4 = u64 [s1 + 0x160]\n  4314: a4 = a4 << 0x20\n  4317: a4 = a4 >> 0x20\n  4320: a1 = s1 + 0x2da0\n  4324: a1 = a1 << 0x20\n  4327: a5 = a1 | a4\n  4330: a1 = 0xffffffffffffffff\n  4333: a2 = 0xffffffffffffffff\n  4336: ecalli 0 // 'call'\n  4337: u64 [s1 + 0x170] = a0\n  4341: a0 = s1 + 0x6a0\n  4345: ra = 126, jump @1370\n      : @175 [@dyn 63] (gas: 2)\n  4350: a0 = u64 [s1 + 0x170]\n  4354: jump @177 if a0 == 0\n      : @176 (gas: 1)\n  4357: jump @872\n      : @177 (gas: 3)\n  4360: a0 = s1 + 0x660\n  4364: a1 = 0x40\n  4367: ra = 128, jump @22\n      : @178 [@dyn 64] (gas: 6)\n  4373: a4 = s1 + 0x600\n  4377: a0 = u64 [a4 + 0x78]\n  4380: a1 = u64 [a4 + 0x70]\n  4383: a2 = u64 [a4 + 0x68]\n  4386: a3 = u64 [a4 + 0x60]\n  4389: t0 = 130, jump @1533\n      : @179 [@dyn 65] (gas: 1)\n  4396: jump @181 if a0 == 0\n      : @180 (gas: 1)\n  4399: jump @854\n      : @181 (gas: 12)\n  4402: a0 = u64 [s1 + 0x188]\n  4406: u64 [s1 + 0x640] = a0\n  4410: a0 = u64 [s1 + 0x190]\n  4414: u64 [s1 + 0x648] = a0\n  4418: a0 = u64 [s1 + 0x178]\n  4422: u64 [s1 + 0x650] = a0\n  4426: a1 = s1 + 0x640\n  4430: a0 = u64 [s1 + 0x180]\n  4434: u64 [s1 + 0x658] = a0\n  4438: a0 = a3\n  4440: u64 [s1 + 0x190] = a3\n  4444: ra = 132, jump @24\n      : @182 [@dyn 66] (gas: 6)\n  4450: a0 = u64 [s1 + 0x168]\n  4454: ra = 0x86\n  4458: ecalli 4 // 'caller'\n  4460: a2 = u64 [s1 + 0x198]\n  4464: t0 = 0x88\n  4468: jump @1519\n      : @183 [@dyn 67] (gas: 2)\n  4472: a2 = u64 [s1 + 0x198]\n  4476: t0 = 136, jump @1519\n      : @184 [@dyn 68] (gas: 25)\n  4483: t0 = a1 | a0\n  4486: a3 = a3 >> 0x20\n  4489: a2 = reverse a2\n  4491: a1 = a2 << 0x20\n  4494: a1 = a1 | a3\n  4497: a2 = a2 >> 0x20\n  4500: u64 [s1 + 1560] = 0\n  4504: a3 = u64 [0x200e0]\n  4509: a4 = u64 [0x200e8]\n  4514: a5 = u64 [0x200f0]\n  4519: a0 = u64 [0x200f8]\n  4524: u64 [s1 + 0x638] = a3\n  4528: a3 = s1 + 0x600\n  4532: u64 [a3 + 0x30] = a4\n  4535: u64 [a3 + 0x28] = a5\n  4538: u64 [a3 + 0x20] = a0\n  4541: u64 [a3 + 0x10] = a2\n  4544: u64 [a3 + 0x8] = a1\n  4547: a1 = 0x20\n  4550: a2 = s1 + 0x620\n  4554: a3 = s1 + 0x600\n  4558: u64 [s1 + 0x600] = t0\n  4562: a0 = u64 [s1 + 0x190]\n  4566: ra = 0x180\n  4570: jump @29\n      : @185 (gas: 10)\n  4573: u64 [a2 + 1760] = 0\n  4577: u64 [a2 + 1752] = 0\n  4581: u64 [a2 + 1744] = 0\n  4585: u64 [a2 + 1736] = 0\n  4589: a0 = s1 + 0x3000\n  4593: i32 a0 = a0 + 0\n  4595: ra = 0x8a\n  4599: ecalli 16 // 'value_transferred'\n  4601: t0 = 0x8c\n  4605: jump @1558\n      : @186 [@dyn 69] (gas: 1)\n  4609: t0 = 140, jump @1558\n      : @187 [@dyn 70] (gas: 1)\n  4616: t0 = 142, jump @1585\n      : @188 [@dyn 71] (gas: 1)\n  4623: jump @190 if a0 == 0\n      : @189 (gas: 1)\n  4626: jump @873\n      : @190 (gas: 1)\n  4629: t0 = 144, jump @1567\n      : @191 [@dyn 72] (gas: 1)\n  4636: jump @193 if a1 <u a0\n      : @192 (gas: 1)\n  4639: jump @874\n      : @193 (gas: 5)\n  4642: a0 = s1 + 0x3000\n  4646: i32 a0 = a0 + 0x20\n  4649: a1 = 0x4\n  4652: ecalli 2 // 'call_data_load'\n  4654: fallthrough\n      : @194 (gas: 15)\n  4655: a0 = s1 + 0x2938\n  4659: a1 = u64 [a0 + 0x700]\n  4663: a5 = a0 + 0x600\n  4667: a2 = u64 [a5 + 0xf8]\n  4671: a3 = u64 [a5 + 0xf0]\n  4675: a4 = u64 [a5 + 0xe8]\n  4679: a5 = s1 + 0x100\n  4683: u64 [a5 + 0x80] = a1\n  4687: u64 [a5 + 0x98] = a3\n  4691: a0 = a3 | a1\n  4694: u64 [a5 + 0x78] = a2\n  4697: u64 [a5 + 0x90] = a4\n  4701: a1 = a4 | a2\n  4704: a0 = a0 | a1\n  4707: jump @196 if a0 != 0\n      : @195 (gas: 1)\n  4710: jump @875\n      : @196 (gas: 9)\n  4713: a0 = 0x30190\n  4718: u64 [s1 + 0x170] = a0\n  4722: i32 a0 = a0 + 0\n  4724: u64 [s1 + 0x158] = a0\n  4728: ra = 0x92\n  4732: ecalli 4 // 'caller'\n  4734: a2 = u64 [s1 + 0x170]\n  4738: t0 = 0x94\n  4742: jump @1516\n      : @197 [@dyn 73] (gas: 2)\n  4746: a2 = u64 [s1 + 0x170]\n  4750: t0 = 148, jump @1516\n      : @198 [@dyn 74] (gas: 8)\n  4757: u64 [a2 + 1536] = 0\n  4761: a4 = a2 + 0x500\n  4765: u64 [a4 + 0xf8] = a1\n  4769: u64 [a4 + 0xf0] = a0\n  4773: a1 = s1 + 0x1700\n  4777: u64 [a4 + 0xe8] = a3\n  4781: a0 = 0\n  4783: ra = 150, jump @24\n      : @199 [@dyn 75] (gas: 9)\n  4789: a1 = s1 + 0x1118\n  4793: u64 [a1 + 1504] = 0\n  4797: u64 [a1 + 1496] = 0\n  4801: u64 [a1 + 1480] = 0x1\n  4806: a2 = a1\n  4808: a0 = 0x20\n  4811: a1 = s1 + 0x16e0\n  4815: u64 [a2 + 1488] = 0\n  4819: ra = 152, jump @24\n      : @200 [@dyn 76] (gas: 7)\n  4825: a0 = sp + 0xffffffffffffffe0\n  4828: a0 = a0 & 0xffffffffffffffe0\n  4831: u64 [s1 + 0x188] = a0\n  4835: sp = a0\n  4837: a2 = 0x20180\n  4842: a0 = i32 [0x20180]\n  4847: jump @202 if a0 >u 63\n      : @201 (gas: 2)\n  4851: u32 [0x20180] = 0x40\n  4857: fallthrough\n      : @202 (gas: 43)\n  4858: u64 [s1 + 0x150] = a2\n  4862: a0 = sp + 0xffffffffffffffe0\n  4865: a2 = a0 & 0xffffffffffffffe0\n  4868: u64 [s1 + 0x168] = a2\n  4872: sp = a2\n  4874: a0 = 0x20190\n  4879: i32 a0 = a0 + 0\n  4881: i32 a2 = a2 + 0\n  4883: a1 = 0x40\n  4886: u64 [s1 + 0x160] = a0\n  4890: ecalli 8 // 'hash_keccak_256'\n  4892: a3 = u64 [s1 + 0x168]\n  4896: a0 = u64 [a3 + 0x18]\n  4899: a1 = u64 [a3 + 0x10]\n  4902: a2 = u64 [a3 + 0x8]\n  4905: a3 = u64 [a3]\n  4907: a0 = reverse a0\n  4909: a5 = reverse a1\n  4911: a2 = reverse a2\n  4913: t0 = reverse a3\n  4915: a4 = u64 [s1 + 0x188]\n  4919: u64 [a4 + 0x18] = t0\n  4922: u64 [a4 + 0x10] = a2\n  4925: u64 [a4 + 0x8] = a5\n  4928: u64 [a4] = a0\n  4930: a4 = sp + 0xffffffffffffffe0\n  4933: a1 = a4 & 0xffffffffffffffe0\n  4936: sp = a1\n  4938: a4 = a0 + 0x2\n  4941: a0 = a4 <u a0\n  4944: a3 = a5 + a0\n  4947: a5 = a3 <u a5\n  4950: a5 = a0 if a0 == 0\n  4953: a5 = a5 + a2\n  4956: a0 = a5 <u a2\n  4959: a0 = a0 + t0\n  4962: u64 [a1 + 0x10] = a5\n  4965: u64 [a1 + 0x8] = a3\n  4968: u64 [a1] = a4\n  4970: u64 [a1 + 0x18] = a0\n  4973: a0 = s1 + 0x16c0\n  4977: u64 [s1 + 0x168] = a1\n  4981: ra = 154, jump @26\n      : @203 [@dyn 77] (gas: 21)\n  4987: a0 = s1 + 0x1118\n  4991: t0 = u64 [a0 + 0x5c0]\n  4995: a1 = u64 [a0 + 0x5b0]\n  4999: t2 = u64 [a0 + 0x5b8]\n  5003: t1 = u64 [a0 + 0x5a8]\n  5007: ra = u64 [s1 + 0x180]\n  5011: a0 = t0 ^ ra\n  5014: a2 = u64 [s1 + 0x198]\n  5018: a5 = a1 ^ a2\n  5021: a3 = a1 <u a2\n  5024: a2 = u64 [s1 + 0x190]\n  5028: a2 = t1 <u a2\n  5031: a2 = a3 if a5 != 0\n  5034: a3 = t0 <u ra\n  5037: a4 = u64 [s1 + 0x178]\n  5041: a5 = t2 <u a4\n  5044: a5 = a3 if a0 != 0\n  5047: a3 = t2 ^ a4\n  5050: a3 = a3 | a0\n  5053: a2 = a5 if a3 != 0\n  5056: jump @205 if a2 == 0\n      : @204 (gas: 1)\n  5059: jump @880\n      : @205 (gas: 17)\n  5062: a2 = s1 + 0x1118\n  5066: a0 = u64 [s1 + 0x190]\n  5070: a3 = a2 + 0x500\n  5074: u64 [a3 + 0x48] = a0\n  5077: u64 [a2 + 0x568] = t1\n  5081: a0 = u64 [s1 + 0x198]\n  5085: u64 [a3 + 0x50] = a0\n  5088: u64 [a3 + 0x70] = a1\n  5091: u64 [a3 + 0x58] = a4\n  5094: u64 [a2 + 0x578] = t2\n  5098: u64 [a2 + 0x560] = ra\n  5102: a3 = a2\n  5104: a0 = s1 + 0x16a0\n  5108: a1 = s1 + 0x1680\n  5112: a2 = s1 + 0x1660\n  5116: u64 [a3 + 0x580] = t0\n  5120: ra = 156, jump @1355\n      : @206 [@dyn 78] (gas: 15)\n  5126: a3 = s1 + 0x1118\n  5130: a4 = a3 + 0x500\n  5134: a0 = u64 [a4 + 0xa0]\n  5138: a1 = u64 [a4 + 0x98]\n  5142: a2 = u64 [a4 + 0x90]\n  5146: a3 = u64 [a4 + 0x88]\n  5150: a4 = s1 + 0x2938\n  5154: a5 = a4 + 0x700\n  5158: u64 [a5 + 0x20] = a0\n  5161: u64 [a5 + 0x18] = a1\n  5164: u64 [a5 + 0x10] = a2\n  5167: u64 [a5 + 0x8] = a3\n  5170: a1 = s1 + 0x3040\n  5174: a0 = u64 [s1 + 0x168]\n  5178: ra = 158, jump @28\n      : @207 [@dyn 79] (gas: 3)\n  5184: a0 = s1 + 0x1640\n  5188: a1 = u64 [s1 + 0x188]\n  5192: ra = 160, jump @26\n      : @208 [@dyn 80] (gas: 22)\n  5198: a4 = s1 + 0x1118\n  5202: a3 = u64 [a4 + 0x528]\n  5206: a0 = u64 [a4 + 0x530]\n  5210: a1 = u64 [a4 + 0x538]\n  5214: a2 = u64 [a4 + 0x540]\n  5218: a5 = u64 [s1 + 0x180]\n  5222: u64 [a4 + 0x4e0] = a5\n  5226: a5 = u64 [s1 + 0x178]\n  5230: u64 [a4 + 0x4d8] = a5\n  5234: a5 = u64 [s1 + 0x198]\n  5238: u64 [a4 + 0x4d0] = a5\n  5242: a5 = u64 [s1 + 0x190]\n  5246: u64 [a4 + 0x4c8] = a5\n  5250: u64 [a4 + 0x500] = a2\n  5254: a5 = a4 + 0x400\n  5258: u64 [a5 + 0xf8] = a1\n  5262: u64 [a5 + 0xf0] = a0\n  5266: a0 = s1 + 0x1620\n  5270: a1 = s1 + 0x1600\n  5274: a2 = s1 + 0x15e0\n  5278: u64 [a5 + 0xe8] = a3\n  5282: ra = 162, jump @1394\n      : @209 [@dyn 81] (gas: 15)\n  5288: a3 = s1 + 0x1118\n  5292: a4 = a3 + 0x500\n  5296: a0 = u64 [a4 + 0x20]\n  5299: a1 = u64 [a4 + 0x18]\n  5302: a2 = u64 [a4 + 0x10]\n  5305: a3 = u64 [a4 + 0x8]\n  5308: a4 = s1 + 0x2938\n  5312: a5 = a4 + 0x700\n  5316: u64 [a5 + 0x40] = a0\n  5319: u64 [a5 + 0x38] = a1\n  5322: u64 [a5 + 0x30] = a2\n  5325: u64 [a5 + 0x28] = a3\n  5328: a1 = s1 + 0x3060\n  5332: a0 = u64 [s1 + 0x188]\n  5336: ra = 164, jump @28\n      : @210 [@dyn 82] (gas: 3)\n  5342: a0 = s1 + 0x15c0\n  5346: a1 = 0x40\n  5349: ra = 166, jump @22\n      : @211 [@dyn 83] (gas: 7)\n  5355: a3 = s1 + 0x1118\n  5359: a4 = a3 + 0x400\n  5363: a0 = u64 [a4 + 0xc0]\n  5367: a1 = u64 [a4 + 0xb8]\n  5371: a2 = u64 [a4 + 0xb0]\n  5375: a3 = u64 [a4 + 0xa8]\n  5379: t0 = 168, jump @1533\n      : @212 [@dyn 84] (gas: 1)\n  5386: jump @214 if a0 == 0\n      : @213 (gas: 1)\n  5389: jump @854\n      : @214 (gas: 3)\n  5392: t0 = 0xaa\n  5396: a2 = s1 + 0x1118\n  5400: fallthrough\n      : @215 [@dyn 85] (gas: 13)\n  5401: a0 = u64 [s1 + 0x190]\n  5405: a4 = a2 + 0x400\n  5409: u64 [a4 + 0x88] = a0\n  5413: a0 = u64 [s1 + 0x198]\n  5417: u64 [a4 + 0x90] = a0\n  5421: a0 = u64 [s1 + 0x178]\n  5425: u64 [a4 + 0x98] = a0\n  5429: a1 = s1 + 0x15a0\n  5433: a0 = u64 [s1 + 0x180]\n  5437: u64 [a4 + 0xa0] = a0\n  5441: a0 = a3\n  5443: u64 [s1 + 0x198] = a3\n  5447: ra = 172, jump @24\n      : @216 [@dyn 86] (gas: 6)\n  5453: a0 = u64 [s1 + 0x158]\n  5457: ra = 0xae\n  5461: ecalli 4 // 'caller'\n  5463: a2 = u64 [s1 + 0x170]\n  5467: t0 = 0xb0\n  5471: jump @1519\n      : @217 [@dyn 87] (gas: 2)\n  5475: a2 = u64 [s1 + 0x170]\n  5479: t0 = 176, jump @1519\n      : @218 [@dyn 88] (gas: 26)\n  5486: t0 = a1 | a0\n  5489: a3 = a3 >> 0x20\n  5492: a2 = reverse a2\n  5494: a1 = a2 << 0x20\n  5497: a1 = a1 | a3\n  5500: a2 = a2 >> 0x20\n  5503: a3 = u64 [0x20080]\n  5508: a0 = s1 + 0x1118\n  5512: u64 [a0 + 0x480] = a3\n  5516: a3 = u64 [0x20088]\n  5521: a4 = u64 [0x20090]\n  5526: a5 = u64 [0x20098]\n  5531: u64 [a0 + 0x478] = a3\n  5535: a3 = a0 + 0x400\n  5539: u64 [a3 + 0x70] = a4\n  5542: u64 [a0 + 1120] = 0\n  5546: u64 [a3 + 0x68] = a5\n  5549: u64 [a3 + 0x58] = a2\n  5552: u64 [a3 + 0x50] = a1\n  5555: a1 = 0x20\n  5558: a2 = s1 + 0x1580\n  5562: a3 = s1 + 0x1560\n  5566: u64 [a0 + 0x448] = t0\n  5570: a0 = u64 [s1 + 0x198]\n  5574: ra = 0x21c\n  5578: jump @29\n      : @219 (gas: 8)\n  5581: u64 [a3 + 672] = 0\n  5585: u64 [a3 + 664] = 0\n  5589: u64 [a3 + 656] = 0\n  5593: u64 [a3 + 648] = 0\n  5597: a0 = s1 + 0x3000\n  5601: i32 a0 = a0 + 0x3c0\n  5605: ecalli 16 // 'value_transferred'\n  5607: fallthrough\n      : @220 (gas: 10)\n  5608: a3 = s1 + 0x3138\n  5612: a4 = a3 + 0x200\n  5616: a0 = u64 [a4 + 0x98]\n  5620: a1 = u64 [a4 + 0xa0]\n  5624: a2 = u64 [a4 + 0x90]\n  5628: a3 = u64 [a4 + 0x88]\n  5632: a1 = a1 | a2\n  5635: a0 = a0 | a3\n  5638: a0 = a0 | a1\n  5641: jump @222 if a0 == 0\n      : @221 (gas: 1)\n  5644: jump @884\n      : @222 (gas: 3)\n  5647: a0 = u64 [s1 + 0x198]\n  5651: a0 = i32 [a0]\n  5653: jump @224 if a0 >u 3\n      : @223 (gas: 1)\n  5657: jump @885\n      : @224 (gas: 8)\n  5660: a0 = s1 + 0x3138\n  5664: u64 [a0 + 704] = 0\n  5668: u64 [a0 + 696] = 0\n  5672: u64 [a0 + 688] = 0\n  5676: u64 [a0 + 680] = 0\n  5680: a0 = s1 + 0x29a0\n  5684: a1 = s1 + 0x33e0\n  5688: ra = 178, jump @26\n      : @225 [@dyn 89] (gas: 13)\n  5694: a1 = s1 + 0x2938\n  5698: a0 = u64 [a1 + 0x80]\n  5702: a2 = s1 + 0x100\n  5706: u64 [a2 + 0x98] = a0\n  5710: a0 = u64 [a1 + 0x78]\n  5713: u64 [a2 + 0x90] = a0\n  5717: a0 = u64 [a1 + 0x70]\n  5720: u64 [a2 + 0x88] = a0\n  5724: a0 = u64 [a1 + 0x68]\n  5727: u64 [a2 + 0x80] = a0\n  5731: a0 = s1 + 0x2980\n  5735: a1 = 0x40\n  5738: ra = 180, jump @22\n      : @226 [@dyn 90] (gas: 13)\n  5744: a3 = s1 + 0x2938\n  5748: a0 = u64 [a3 + 0x60]\n  5751: a1 = u64 [a3 + 0x58]\n  5754: a2 = u64 [a3 + 0x50]\n  5757: a4 = u64 [a3 + 0x48]\n  5760: a0 = a0 | a2\n  5763: a2 = a4 | a1\n  5766: a2 = a2 | a0\n  5769: a2 = a2 >> 0x20\n  5772: a0 = a0 | a1\n  5775: a0 = a0 << 0x20\n  5778: a0 = a0 | a2\n  5781: jump @228 if a0 == 0\n      : @227 (gas: 1)\n  5784: jump @854\n      : @228 (gas: 13)\n  5787: a2 = s1 + 0x100\n  5791: a0 = u64 [a2 + 0x80]\n  5795: u64 [a3 + 0x28] = a0\n  5798: a0 = u64 [a2 + 0x88]\n  5802: u64 [a3 + 0x30] = a0\n  5805: a0 = u64 [a2 + 0x90]\n  5809: u64 [a3 + 0x38] = a0\n  5812: a1 = s1 + 0x2960\n  5816: a0 = u64 [a2 + 0x98]\n  5820: u64 [a3 + 0x40] = a0\n  5823: a0 = a4\n  5825: u64 [a2 + 0x98] = a4\n  5829: ra = 182, jump @24\n      : @229 [@dyn 91] (gas: 4)\n  5835: a1 = 0x20\n  5838: a0 = u64 [s1 + 0x198]\n  5842: ra = 0x3b0\n  5846: jump @37\n      : @230 (gas: 10)\n  5849: u64 [a2 + 1472] = 0\n  5853: u64 [a2 + 1464] = 0\n  5857: u64 [a2 + 1456] = 0\n  5861: u64 [a2 + 1448] = 0\n  5865: a0 = s1 + 0x3000\n  5869: i32 a0 = a0 + 0xfffffffffffffee0\n  5873: ra = 0xb8\n  5877: ecalli 16 // 'value_transferred'\n  5879: t0 = 0xba\n  5883: jump @1588\n      : @231 [@dyn 92] (gas: 1)\n  5887: t0 = 186, jump @1588\n      : @232 [@dyn 93] (gas: 1)\n  5894: t0 = 188, jump @1557\n      : @233 [@dyn 94] (gas: 1)\n  5901: jump @235 if a0 == 0\n      : @234 (gas: 1)\n  5904: jump @886\n      : @235 (gas: 1)\n  5907: t0 = 190, jump @1567\n      : @236 [@dyn 95] (gas: 1)\n  5914: jump @238 if a1 <u a0\n      : @237 (gas: 1)\n  5917: jump @887\n      : @238 (gas: 7)\n  5920: a0 = s1 + 0x3000\n  5924: i32 a0 = a0 + 0xffffffffffffff00\n  5928: a1 = 0x4\n  5931: ra = 0xc0\n  5935: ecalli 2 // 'call_data_load'\n  5937: t0 = 0xc2\n  5941: jump @1588\n      : @239 [@dyn 96] (gas: 1)\n  5945: t0 = 194, jump @1588\n      : @240 [@dyn 97] (gas: 7)\n  5952: a0 = u64 [a4 + 0xe0]\n  5956: a1 = u64 [a4 + 0xd8]\n  5960: a2 = u64 [a4 + 0xd0]\n  5964: a0 = a0 | a1\n  5967: a1 = a2 <u 0x1\n  5970: a1 = 0 if a0 != 0\n  5972: jump @242 if a1 != 0\n      : @241 (gas: 1)\n  5975: jump @888\n      : @242 (gas: 6)\n  5978: a0 = u64 [a3 + 0x5c8]\n  5982: u64 [s1 + 0x120] = a0\n  5986: a0 = s1 + 0x3000\n  5990: i32 a0 = a0 + 0xffffffffffffff20\n  5994: ecalli 9 // 'now'\n  5996: fallthrough\n      : @243 (gas: 49)\n  5997: a0 = s1 + 0x2938\n  6001: t2 = u64 [a0 + 0x600]\n  6005: a3 = u64 [a0 + 0x5f8]\n  6009: u64 [s1 + 0x150] = a3\n  6013: t0 = u64 [a0 + 0x5f0]\n  6017: ra = u64 [a0 + 0x5e8]\n  6021: a0 = clz t2\n  6023: a1 = clz a3\n  6025: a2 = a1 + 0x40\n  6028: a2 = a0 if t2 != 0\n  6031: a0 = clz t0\n  6033: a1 = clz ra\n  6035: a1 = a1 + 0x40\n  6038: a1 = a0 if t0 != 0\n  6041: a0 = a1 + 0x80\n  6045: a3 = a3 | t2\n  6048: a2 = a0 if a3 == 0\n  6051: a5 = a0 <u a1\n  6054: a5 = 0 if a3 != 0\n  6056: a4 = a5 >u 0\n  6058: a0 = a2 <u 0xf0\n  6062: a3 = a0 ^ 0x1\n  6065: a4 = a3 if a5 == 0\n  6068: a0 = a4 <u 0x1\n  6071: a0 = a0 + 0xffffffffffffffff\n  6074: a1 = -a4\n  6076: a5 = -a5\n  6078: a3 = a5 - a3\n  6081: t1 = 0xef - a2\n  6085: u64 [s1 + 0x198] = a1\n  6089: a5 = a1 >u 0\n  6091: a1 = a0 >u 0\n  6093: a1 = a5 if a0 == 0\n  6096: a5 = t1 <u 0x100\n  6100: a5 = a5 ^ 0x1\n  6103: a2 = a3 >u 0\n  6105: a5 = a2 if a3 != 0\n  6108: a5 = a1 if a4 != 0\n  6111: u64 [s1 + 0x140] = t2\n  6115: u64 [s1 + 0x158] = t0\n  6119: a1 = t0 | t2\n  6122: t2 = u64 [s1 + 0x150]\n  6126: a2 = ra | t2\n  6129: a1 = a1 | a2\n  6132: a1 = a1 <u 0x1\n  6135: a1 = a1 | a5\n  6138: a4 = ra\n  6140: a4 = 0 if a1 != 0\n  6142: jump @245 if a1 == 0\n      : @244 (gas: 1)\n  6145: jump @587\n      : @245 (gas: 6)\n  6148: a1 = t1 ^ 0xff\n  6152: a5 = u64 [s1 + 0x198]\n  6156: a1 = a1 | a5\n  6159: a2 = a3 | a0\n  6162: a1 = a1 | a2\n  6165: jump @247 if a1 != 0\n      : @246 (gas: 1)\n  6168: jump @587\n      : @247 (gas: 20)\n  6171: t0 = ra\n  6173: a2 = t1 + 0x1\n  6176: u64 [s1 + 0x190] = a2\n  6180: a1 = a2 <u 0x1\n  6183: a1 = a1 + a3\n  6186: u64 [s1 + 0x180] = a1\n  6190: a1 = a1 | a2\n  6193: a1 = a1 <u 0x1\n  6196: a1 = a1 + a5\n  6199: u64 [s1 + 0x170] = a1\n  6203: a1 = a1 <u a5\n  6206: a0 = a0 + a1\n  6209: u64 [s1 + 0x178] = a0\n  6213: a1 = 0xff - t1\n  6217: u64 [s1 + 0x168] = a1\n  6221: a2 = 0x80 - a1\n  6225: a0 = ra\n  6227: u64 [s1 + 0x148] = t0\n  6231: a1 = u64 [s1 + 0x158]\n  6235: ra = 196, jump @1594\n      : @248 [@dyn 98] (gas: 1)\n  6242: t0 = 198, jump @1582\n      : @249 [@dyn 99] (gas: 1)\n  6249: ra = 200, jump @1599\n      : @250 [@dyn 100] (gas: 7)\n  6256: u64 [s1 + 0x130] = a0\n  6260: u64 [s1 + 0x128] = a1\n  6264: a0 = u64 [s1 + 0x168]\n  6268: a2 = a0 + 0xffffffffffffff80\n  6271: a0 = u64 [s1 + 0x148]\n  6275: a1 = u64 [s1 + 0x158]\n  6279: ra = 202, jump @1599\n      : @251 [@dyn 101] (gas: 1)\n  6286: t0 = 204, jump @1593\n      : @252 [@dyn 102] (gas: 3)\n  6293: a0 = u64 [s1 + 0x148]\n  6297: a1 = u64 [s1 + 0x158]\n  6301: ra = 206, jump @1599\n      : @253 [@dyn 103] (gas: 11)\n  6308: a4 = u64 [s1 + 0x138]\n  6312: t0 = u64 [s1 + 0x170]\n  6316: a5 = u64 [s1 + 0x178]\n  6320: a2 = u64 [s1 + 0x180]\n  6324: a5 = a5 | a2\n  6327: a3 = u64 [s1 + 0x190]\n  6331: a3 = a3 | t0\n  6334: a3 = a3 | a5\n  6337: a0 = 0 if a4 == 0\n  6339: u64 [s1 + 0x188] = a0\n  6343: jump @255 if a3 == 0\n      : @254 (gas: 1)\n  6346: jump @574\n      : @255 (gas: 2)\n  6349: a4 = 0\n  6351: jump @586\n      : @256 (gas: 9)\n  6354: u64 [a2 + 1216] = 0\n  6358: u64 [a2 + 1208] = 0\n  6362: u64 [a2 + 1200] = 0\n  6366: u64 [a2 + 1192] = 0\n  6370: a0 = s1 + 0x3000\n  6374: i32 a0 = a0 + 0xfffffffffffffde0\n  6378: ra = 0xd0\n  6382: ecalli 16 // 'value_transferred'\n  6384: fallthrough\n      : @257 [@dyn 104] (gas: 3)\n  6385: a3 = s1 + 0x2938\n  6389: a4 = a3 + 0x400\n  6393: t0 = 210, jump @1557\n      : @258 [@dyn 105] (gas: 1)\n  6400: jump @260 if a0 == 0\n      : @259 (gas: 1)\n  6403: jump @889\n      : @260 (gas: 1)\n  6406: t0 = 212, jump @1567\n      : @261 [@dyn 106] (gas: 1)\n  6413: jump @263 if a1 <u a0\n      : @262 (gas: 1)\n  6416: jump @890\n      : @263 (gas: 5)\n  6419: a0 = s1 + 0x7ff\n  6423: a0 = a0 + 0x2c1\n  6427: ra = 0xd6\n  6431: t0 = 0x566\n  6435: jump @1577\n      : @264 [@dyn 107] (gas: 13)\n  6439: a1 = s1 + 0x7ff\n  6443: a1 = a1 + 0x111\n  6447: a2 = a1 + 0x100\n  6451: a0 = u64 [a2 + 0xc0]\n  6455: u64 [s1 + 0x168] = a0\n  6459: a0 = u64 [a2 + 0xb8]\n  6463: u64 [s1 + 0x170] = a0\n  6467: a0 = u64 [a2 + 0xb0]\n  6471: u64 [s1 + 0x178] = a0\n  6475: a0 = s1 + 0x7ff\n  6479: a0 = a0 + 0x2a1\n  6483: a1 = 0x40\n  6486: ra = 216, jump @22\n      : @265 [@dyn 108] (gas: 19)\n  6492: a0 = s1 + 0x7ff\n  6496: a0 = a0 + 0x111\n  6500: a5 = a0 + 0x100\n  6504: a1 = u64 [a5 + 0xa8]\n  6508: u64 [s1 + 0x188] = a1\n  6512: a2 = u64 [a5 + 0xa0]\n  6516: u64 [s1 + 0x180] = a2\n  6520: a4 = u64 [a5 + 0x98]\n  6524: u64 [s1 + 0x190] = a4\n  6528: a3 = u64 [a5 + 0x90]\n  6532: u64 [s1 + 0x198] = a3\n  6536: u64 [a5 + 0x88] = a1\n  6540: u64 [a5 + 0x80] = a2\n  6544: u64 [a5 + 0x78] = a4\n  6547: a1 = a0\n  6549: a0 = s1 + 0x7ff\n  6553: a0 = a0 + 0x281\n  6557: u64 [a1 + 0x170] = a3\n  6561: ra = 218, jump @1336\n      : @266 [@dyn 109] (gas: 7)\n  6567: a3 = s1 + 0x100\n  6571: a0 = u64 [a3 + 0x88]\n  6575: a1 = u64 [a3 + 0x90]\n  6579: a0 = a0 | a1\n  6582: a2 = u64 [a3 + 0x80]\n  6586: a1 = u64 [a3 + 0x98]\n  6590: t0 = 220, jump @1589\n      : @267 [@dyn 110] (gas: 1)\n  6597: jump @269 if a0 == 0\n      : @268 (gas: 1)\n  6600: jump @854\n      : @269 (gas: 10)\n  6603: a0 = s1 + 0x7ff\n  6607: a0 = a0 + 0x111\n  6611: u64 [a0 + 360] = 0\n  6615: u64 [a0 + 352] = 0\n  6619: u64 [a0 + 344] = 0\n  6623: a1 = s1 + 0x7ff\n  6627: a1 = a1 + 0x261\n  6631: u64 [a0 + 336] = 0\n  6635: a0 = u64 [s1 + 0x198]\n  6639: ra = 222, jump @24\n      : @270 [@dyn 111] (gas: 12)\n  6645: a4 = s1 + 0x100\n  6649: a0 = u64 [a4 + 0x88]\n  6653: a2 = u64 [a4 + 0x80]\n  6657: a2 = a2 | a0\n  6660: a3 = 0x100000000\n  6670: a0 = 0xffffffe0\n  6680: a1 = u64 [a4 + 0x98]\n  6684: a0 = a1 <u a0\n  6687: a1 = u64 [a4 + 0x90]\n  6691: a0 = 0 if a1 != 0\n  6693: a0 = 0 if a2 != 0\n  6695: jump @272 if a0 != 0\n      : @271 (gas: 1)\n  6698: jump @854\n      : @272 (gas: 14)\n  6701: a0 = u64 [s1 + 0x198]\n  6705: i32 a0 = a0 + 0x20\n  6708: a1 = s1 + 0x7ff\n  6712: a1 = a1 + 0x111\n  6716: u64 [s1 + 0x188] = a2\n  6720: a2 = a1\n  6722: u64 [a1 + 328] = 0\n  6726: u64 [a1 + 320] = 0\n  6730: u64 [a1 + 312] = 0\n  6734: a1 = s1 + 0x7ff\n  6738: a1 = a1 + 0x241\n  6742: u64 [a2 + 304] = 0\n  6746: u64 [s1 + 0x180] = a3\n  6750: ra = 224, jump @24\n      : @273 [@dyn 112] (gas: 10)\n  6756: a3 = s1 + 0x100\n  6760: a2 = u64 [a3 + 0x88]\n  6764: a0 = u64 [a3 + 0x80]\n  6768: a0 = a0 + 0xffffffffffffffc0\n  6771: a1 = u64 [a3 + 0x98]\n  6775: a0 = a1 <u a0\n  6778: a1 = u64 [a3 + 0x90]\n  6782: a0 = 0 if a1 != 0\n  6784: a0 = 0 if a2 != 0\n  6786: jump @275 if a0 != 0\n      : @274 (gas: 1)\n  6789: jump @854\n      : @275 (gas: 11)\n  6792: a0 = u64 [s1 + 0x198]\n  6796: i32 a0 = a0 + 0x40\n  6799: a2 = s1 + 0x7ff\n  6803: a2 = a2 + 0x111\n  6807: u64 [a2 + 296] = 0\n  6811: u64 [a2 + 288] = 0\n  6815: u64 [a2 + 280] = 0\n  6819: a1 = s1 + 0x7ff\n  6823: a1 = a1 + 0x221\n  6827: u64 [a2 + 272] = 0\n  6831: ra = 226, jump @24\n      : @276 [@dyn 113] (gas: 1)\n  6837: t0 = 228, jump @1569\n      : @277 [@dyn 114] (gas: 3)\n  6844: a1 = u64 [a2 + 0x88]\n  6848: a0 = 0 if a1 != 0\n  6850: jump @279 if a0 != 0\n      : @278 (gas: 1)\n  6853: jump @854\n      : @279 (gas: 11)\n  6856: a0 = u64 [s1 + 0x198]\n  6860: i32 a0 = a0 + 0x60\n  6863: a2 = s1 + 0x7ff\n  6867: a2 = a2 + 0x111\n  6871: u64 [a2 + 264] = 0\n  6875: u64 [a2 + 256] = 0\n  6879: u64 [a2 + 248] = 0\n  6883: a1 = s1 + 0x7ff\n  6887: a1 = a1 + 0x201\n  6891: u64 [a2 + 240] = 0\n  6895: ra = 230, jump @24\n      : @280 [@dyn 115] (gas: 15)\n  6901: a0 = u64 [s1 + 0x168]\n  6905: a0 = a0 << 0x20\n  6908: a0 = a0 >> 0x20\n  6911: a2 = s1 + 0x7ff\n  6915: a2 = a2 + 0x111\n  6919: u64 [a2 + 232] = 0\n  6923: a1 = u64 [s1 + 0x170]\n  6927: u64 [a2 + 0xd8] = a1\n  6931: a1 = u64 [s1 + 0x178]\n  6935: u64 [a2 + 0xd0] = a1\n  6939: a1 = s1 + 0x7ff\n  6943: a1 = a1 + 0x1e1\n  6947: u64 [a2 + 0xe0] = a0\n  6951: a0 = 0\n  6953: ra = 232, jump @24\n      : @281 [@dyn 116] (gas: 11)\n  6959: a1 = s1 + 0x7ff\n  6963: a1 = a1 + 0x111\n  6967: u64 [a1 + 200] = 0\n  6971: u64 [a1 + 192] = 0\n  6975: u64 [a1 + 176] = 0x1\n  6980: a2 = a1\n  6982: a0 = 0x20\n  6985: a1 = s1 + 0x7ff\n  6989: a1 = a1 + 0x1c1\n  6993: u64 [a2 + 184] = 0\n  6997: ra = 234, jump @24\n      : @282 [@dyn 117] (gas: 6)\n  7003: a0 = sp + 0xffffffffffffffe0\n  7006: a0 = a0 & 0xffffffffffffffe0\n  7009: u64 [s1 + 0x190] = a0\n  7013: sp = a0\n  7015: a1 = i32 [0x20180]\n  7020: jump @284 if a1 >u 63\n      : @283 (gas: 4)\n  7024: a1 = 0x40\n  7027: u32 [0x20180] = a1\n  7032: t0 = 0xec\n  7036: jump @1552\n      : @284 (gas: 1)\n  7040: t0 = 236, jump @1552\n      : @285 [@dyn 118] (gas: 9)\n  7047: a0 = 0x20190\n  7052: i32 a0 = a0 + 0\n  7054: i32 a2 = a2 + 0\n  7056: a1 = 0x40\n  7059: ra = 0xee\n  7063: ecalli 8 // 'hash_keccak_256'\n  7065: a3 = u64 [s1 + 0x198]\n  7069: t0 = 0xf0\n  7073: jump @1584\n      : @286 [@dyn 119] (gas: 2)\n  7077: a3 = u64 [s1 + 0x198]\n  7081: t0 = 240, jump @1584\n      : @287 [@dyn 120] (gas: 14)\n  7088: a1 = reverse a3\n  7090: u64 [s1 + 0x168] = a1\n  7094: a2 = u64 [s1 + 0x190]\n  7098: u64 [a2 + 0x18] = a1\n  7101: u64 [s1 + 0x170] = a0\n  7105: u64 [a2 + 0x10] = a0\n  7108: u64 [s1 + 0x160] = a4\n  7112: u64 [a2 + 0x8] = a4\n  7115: u64 [s1 + 0x158] = a5\n  7119: u64 [a2] = a5\n  7121: a0 = s1 + 0x7ff\n  7125: a0 = a0 + 0x1a1\n  7129: a1 = 0x40\n  7132: ra = 242, jump @22\n      : @288 [@dyn 121] (gas: 17)\n  7138: a1 = s1 + 0x7ff\n  7142: a1 = a1 + 0x111\n  7146: a0 = u64 [a1 + 0xa8]\n  7150: u64 [s1 + 0x180] = a0\n  7154: a2 = u64 [a1 + 0xa0]\n  7158: u64 [s1 + 0x178] = a2\n  7162: a4 = u64 [a1 + 0x98]\n  7166: u64 [s1 + 0x188] = a4\n  7170: a3 = u64 [a1 + 0x90]\n  7174: u64 [s1 + 0x198] = a3\n  7178: u64 [a1 + 0x88] = a0\n  7182: u64 [a1 + 0x80] = a2\n  7186: u64 [a1 + 0x78] = a4\n  7189: a0 = s1 + 0x7ff\n  7193: a0 = a0 + 0x181\n  7197: u64 [a1 + 0x70] = a3\n  7200: ra = 244, jump @1336\n      : @289 [@dyn 122] (gas: 4)\n  7206: a0 = s1 + 0x7ff\n  7210: a0 = a0 + 0x161\n  7214: a1 = u64 [s1 + 0x190]\n  7218: ra = 246, jump @26\n      : @290 [@dyn 123] (gas: 7)\n  7224: a3 = s1 + 0x100\n  7228: a0 = u64 [a3 + 0x80]\n  7232: a1 = u64 [a3 + 0x88]\n  7236: a0 = a0 | a1\n  7239: a2 = u64 [a3 + 0x78]\n  7242: a1 = u64 [a3 + 0x98]\n  7246: t0 = 248, jump @1589\n      : @291 [@dyn 124] (gas: 1)\n  7253: jump @293 if a0 == 0\n      : @292 (gas: 1)\n  7256: jump @854\n      : @293 (gas: 18)\n  7259: a4 = s1 + 0x7ff\n  7263: a4 = a4 + 0x111\n  7267: a0 = u64 [a4 + 0x68]\n  7270: a1 = u64 [a4 + 0x60]\n  7273: a2 = u64 [a4 + 0x58]\n  7276: a3 = u64 [a4 + 0x50]\n  7279: u64 [s1 + 0x138] = a3\n  7283: u64 [a4 + 0x30] = a3\n  7286: u64 [s1 + 0x140] = a2\n  7290: u64 [a4 + 0x38] = a2\n  7293: u64 [s1 + 0x148] = a1\n  7297: u64 [a4 + 0x40] = a1\n  7300: a1 = s1 + 0x7ff\n  7304: a1 = a1 + 0x141\n  7308: u64 [s1 + 0x150] = a0\n  7312: u64 [a4 + 0x48] = a0\n  7315: a0 = u64 [s1 + 0x198]\n  7319: ra = 250, jump @24\n      : @294 [@dyn 125] (gas: 22)\n  7325: a0 = u64 [s1 + 0x158]\n  7329: a0 = a0 + 0x1\n  7332: a1 = a0 <u 0x1\n  7335: a2 = u64 [s1 + 0x160]\n  7339: a1 = a1 + a2\n  7342: a2 = a0 | a1\n  7345: a2 = a2 <u 0x1\n  7348: a3 = u64 [s1 + 0x170]\n  7352: a2 = a2 + a3\n  7355: a3 = a2 <u a3\n  7358: a4 = u64 [s1 + 0x168]\n  7362: a3 = a3 + a4\n  7365: a4 = s1 + 0x2938\n  7369: a5 = a4 + 0x400\n  7373: u64 [a5 + 0xd0] = a1\n  7377: u64 [a5 + 0xc8] = a0\n  7381: u64 [a5 + 0xd8] = a2\n  7385: u64 [a5 + 0xe0] = a3\n  7389: a0 = s1 + 0x7ff\n  7393: a0 = a0 + 0x121\n  7397: a1 = s1 + 0x2e00\n  7401: ra = 252, jump @26\n      : @295 [@dyn 126] (gas: 12)\n  7407: a4 = s1 + 0x100\n  7411: a0 = u64 [a4 + 0x80]\n  7415: a2 = u64 [a4 + 0x78]\n  7418: a2 = a2 | a0\n  7421: a3 = 0x100000000\n  7431: a0 = 0xffffffe0\n  7441: a1 = u64 [a4 + 0x98]\n  7445: a0 = a1 <u a0\n  7448: a1 = u64 [a4 + 0x88]\n  7452: a0 = 0 if a1 != 0\n  7454: a0 = 0 if a2 != 0\n  7456: jump @297 if a0 != 0\n      : @296 (gas: 1)\n  7459: jump @854\n      : @297 (gas: 20)\n  7462: a5 = s1 + 0x7ff\n  7466: a5 = a5 + 0x111\n  7470: t0 = u64 [a5 + 0x28]\n  7473: a1 = u64 [a5 + 0x20]\n  7476: u64 [s1 + 0x190] = a2\n  7480: a2 = u64 [a5 + 0x18]\n  7483: u64 [s1 + 0x180] = a3\n  7487: a3 = u64 [a5 + 0x10]\n  7490: a0 = u64 [s1 + 0x198]\n  7494: i32 a0 = a0 + 0x20\n  7497: a4 = s1 + 0x1000\n  7501: u64 [a4 + 0xfffffffffffff900] = a3\n  7505: a3 = s1 + 0x1000\n  7509: u64 [a3 + 0xfffffffffffff908] = a2\n  7513: u64 [a5] = a1\n  7515: a1 = s1 + 0x7ff\n  7519: a1 = a1 + 0x101\n  7523: u64 [a5 + 0x8] = t0\n  7526: u64 [s1 + 0x178] = a0\n  7530: ra = 254, jump @24\n      : @298 [@dyn 127] (gas: 3)\n  7536: a1 = u64 [s1 + 0x158]\n  7540: a0 = a1 + 0x2\n  7543: t0 = 256, jump @1536\n      : @299 [@dyn 128] (gas: 9)\n  7550: a5 = a4 + 0x400\n  7554: u64 [a5 + 0xf0] = a2\n  7558: u64 [a5 + 0xe8] = a0\n  7562: u64 [a5 + 0xf8] = a3\n  7566: u64 [a4 + 0x500] = a1\n  7570: a0 = s1 + 0x7ff\n  7574: a0 = a0 + 0xe1\n  7578: a1 = s1 + 0x2e20\n  7582: ra = 258, jump @26\n      : @300 [@dyn 129] (gas: 10)\n  7588: a3 = s1 + 0x100\n  7592: a2 = u64 [a3 + 0x90]\n  7596: a0 = u64 [a3 + 0x80]\n  7600: a0 = a0 + 0xffffffffffffffc0\n  7603: a1 = u64 [a3 + 0x98]\n  7607: a0 = a1 <u a0\n  7610: a1 = u64 [a3 + 0x88]\n  7614: a0 = 0 if a1 != 0\n  7616: a0 = 0 if a2 != 0\n  7618: jump @302 if a0 != 0\n      : @301 (gas: 1)\n  7621: jump @854\n      : @302 (gas: 22)\n  7624: a0 = s1 + 0x1000\n  7628: a4 = u64 [a0 + 0xfffffffffffff8f8]\n  7632: a0 = s1 + 0x1000\n  7636: a1 = u64 [a0 + 0xfffffffffffff8f0]\n  7640: a0 = s1 + 0x1000\n  7644: a2 = u64 [a0 + 0xfffffffffffff8e8]\n  7648: a0 = s1 + 0x1000\n  7652: a3 = u64 [a0 + 0xfffffffffffff8e0]\n  7656: a0 = u64 [s1 + 0x198]\n  7660: i32 a0 = a0 + 0x40\n  7663: a5 = s1 + 0x1000\n  7667: u64 [a5 + 0xfffffffffffff8c0] = a3\n  7671: a3 = s1 + 0x1000\n  7675: u64 [a3 + 0xfffffffffffff8c8] = a2\n  7679: a2 = s1 + 0x1000\n  7683: u64 [a2 + 0xfffffffffffff8d0] = a1\n  7687: a1 = s1 + 0x7ff\n  7691: a1 = a1 + 0xc1\n  7695: a2 = s1 + 0x1000\n  7699: u64 [a2 + 0xfffffffffffff8d8] = a4\n  7703: u64 [s1 + 0x180] = a0\n  7707: ra = 260, jump @24\n      : @303 [@dyn 130] (gas: 3)\n  7713: a1 = u64 [s1 + 0x158]\n  7717: a0 = a1 + 0x3\n  7720: t0 = 262, jump @1536\n      : @304 [@dyn 131] (gas: 9)\n  7727: a5 = a4 + 0x500\n  7731: u64 [a5 + 0x10] = a2\n  7734: u64 [a5 + 0x8] = a0\n  7737: u64 [a5 + 0x18] = a3\n  7740: u64 [a5 + 0x20] = a1\n  7743: a0 = s1 + 0x7ff\n  7747: a0 = a0 + 0xa1\n  7751: a1 = s1 + 0x2e40\n  7755: ra = 264, jump @26\n      : @305 [@dyn 132] (gas: 9)\n  7761: a0 = 0xffffffa0\n  7771: a2 = s1 + 0x100\n  7775: a1 = u64 [a2 + 0x98]\n  7779: a0 = a1 <u a0\n  7782: a1 = u64 [a2 + 0x88]\n  7786: a0 = 0 if a1 != 0\n  7788: a1 = u64 [a2 + 0x90]\n  7792: a0 = 0 if a1 != 0\n  7794: jump @307 if a0 != 0\n      : @306 (gas: 1)\n  7797: jump @854\n      : @307 (gas: 18)\n  7800: a0 = s1 + 0x1000\n  7804: a0 = u64 [a0 + 0xfffffffffffff8a0]\n  7808: a0 = a0 << 0x20\n  7811: a2 = a0 >> 0x20\n  7814: a1 = u64 [s1 + 0x198]\n  7818: i32 a0 = a1 + 0x60\n  7821: a1 = s1 + 0x1000\n  7825: u64 [a1 + 4294965400] = 0\n  7829: a1 = s1 + 0x1000\n  7833: u64 [a1 + 4294965392] = 0\n  7837: a1 = s1 + 0x1000\n  7841: u64 [a1 + 4294965384] = 0\n  7845: a1 = s1 + 0x7ff\n  7849: a1 = a1 + 0x81\n  7853: a3 = s1 + 0x1000\n  7857: u64 [a3 + 0xfffffffffffff880] = a2\n  7861: u64 [s1 + 0x188] = a0\n  7865: ra = 266, jump @24\n      : @308 [@dyn 133] (gas: 4)\n  7871: a0 = s1 + 0x7ff\n  7875: a0 = a0 + 0x61\n  7878: a1 = 0x40\n  7881: ra = 268, jump @22\n      : @309 [@dyn 134] (gas: 18)\n  7887: a0 = s1 + 0x1000\n  7891: a2 = u64 [a0 + 0xfffffffffffff878]\n  7895: a0 = s1 + 0x1000\n  7899: a3 = u64 [a0 + 0xfffffffffffff870]\n  7903: a0 = s1 + 0x1000\n  7907: a0 = u64 [a0 + 0xfffffffffffff868]\n  7911: a1 = s1 + 0x1000\n  7915: a1 = u64 [a1 + 0xfffffffffffff860]\n  7919: u64 [s1 + 0x190] = a0\n  7923: a0 = a0 | a2\n  7926: u64 [s1 + 0x198] = a1\n  7930: a1 = a1 | a3\n  7933: a1 = a1 | a0\n  7936: a1 = a1 >> 0x20\n  7939: a0 = a0 | a3\n  7942: a0 = a0 << 0x20\n  7945: a0 = a0 | a1\n  7948: jump @311 if a0 == 0\n      : @310 (gas: 1)\n  7951: jump @854\n      : @311 (gas: 18)\n  7954: a0 = u64 [s1 + 0x138]\n  7958: a1 = s1 + 0x1000\n  7962: u64 [a1 + 0xfffffffffffff840] = a0\n  7966: a0 = u64 [s1 + 0x140]\n  7970: a1 = s1 + 0x1000\n  7974: u64 [a1 + 0xfffffffffffff848] = a0\n  7978: a0 = u64 [s1 + 0x148]\n  7982: a1 = s1 + 0x1000\n  7986: u64 [a1 + 0xfffffffffffff850] = a0\n  7990: a1 = s1 + 0x7ff\n  7994: a1 = a1 + 0x41\n  7997: a0 = u64 [s1 + 0x150]\n  8001: a4 = s1 + 0x1000\n  8005: u64 [a4 + 0xfffffffffffff858] = a0\n  8009: a0 = u64 [s1 + 0x198]\n  8013: u64 [s1 + 0x170] = a2\n  8017: u64 [s1 + 0x168] = a3\n  8021: ra = 270, jump @24\n      : @312 [@dyn 135] (gas: 4)\n  8027: a0 = s1 + 0x7ff\n  8031: a0 = a0 + 0x21\n  8034: a1 = u64 [s1 + 0x178]\n  8038: ra = 272, jump @22\n      : @313 [@dyn 136] (gas: 14)\n  8044: a3 = s1 + 0x100\n  8048: a0 = u64 [a3 + 0x70]\n  8051: a2 = u64 [a3 + 0x68]\n  8054: a2 = a2 | a0\n  8057: a0 = 0x100000000\n  8067: u64 [a3 + 0x70] = a0\n  8070: a0 = 0xffffffe0\n  8080: a1 = u64 [a3 + 0x98]\n  8084: a0 = a1 <u a0\n  8087: a1 = u64 [a3 + 0x90]\n  8091: a0 = 0 if a1 != 0\n  8093: u64 [a3 + 0x78] = a2\n  8096: a0 = 0 if a2 != 0\n  8098: jump @315 if a0 != 0\n      : @314 (gas: 1)\n  8101: jump @854\n      : @315 (gas: 21)\n  8104: a0 = s1 + 0x1000\n  8108: a2 = u64 [a0 + 0xfffffffffffff838]\n  8112: a0 = s1 + 0x1000\n  8116: a1 = u64 [a0 + 0xfffffffffffff830]\n  8120: a0 = s1 + 0x1000\n  8124: a3 = u64 [a0 + 0xfffffffffffff828]\n  8128: a0 = s1 + 0x1000\n  8132: a4 = u64 [a0 + 0xfffffffffffff820]\n  8136: a0 = u64 [s1 + 0x198]\n  8140: i32 a0 = a0 + 0x20\n  8143: a5 = s1 + 0x1000\n  8147: u64 [a5 + 0xfffffffffffff800] = a4\n  8151: a4 = s1 + 0x1000\n  8155: u64 [a4 + 0xfffffffffffff808] = a3\n  8159: a3 = s1 + 0x1000\n  8163: u64 [a3 + 0xfffffffffffff810] = a1\n  8167: a1 = s1 + 0x7ff\n  8171: a1 = a1 + 0x1\n  8174: a3 = s1 + 0x1000\n  8178: u64 [a3 + 0xfffffffffffff818] = a2\n  8182: ra = 274, jump @24\n      : @316 [@dyn 137] (gas: 3)\n  8188: a0 = s1 + 0x7e0\n  8192: a1 = u64 [s1 + 0x180]\n  8196: ra = 276, jump @22\n      : @317 [@dyn 138] (gas: 10)\n  8202: a2 = s1 + 0x100\n  8206: a0 = u64 [a2 + 0x70]\n  8209: a0 = a0 + 0xffffffffffffffc0\n  8212: a1 = u64 [a2 + 0x98]\n  8216: a0 = a1 <u a0\n  8219: a1 = u64 [a2 + 0x90]\n  8223: a0 = 0 if a1 != 0\n  8225: a1 = u64 [a2 + 0x78]\n  8228: a0 = 0 if a1 != 0\n  8230: jump @319 if a0 != 0\n      : @318 (gas: 1)\n  8233: jump @854\n      : @319 (gas: 13)\n  8236: a5 = s1 + 0x700\n  8240: a2 = u64 [a5 + 0xf8]\n  8244: a1 = u64 [a5 + 0xf0]\n  8248: a3 = u64 [a5 + 0xe8]\n  8252: a4 = u64 [a5 + 0xe0]\n  8256: a0 = u64 [s1 + 0x198]\n  8260: i32 a0 = a0 + 0x40\n  8263: u64 [a5 + 0xc0] = a4\n  8267: u64 [a5 + 0xc8] = a3\n  8271: u64 [a5 + 0xd0] = a1\n  8275: a1 = s1 + 0x7c0\n  8279: u64 [a5 + 0xd8] = a2\n  8283: ra = 278, jump @24\n      : @320 [@dyn 139] (gas: 3)\n  8289: a0 = s1 + 0x7a0\n  8293: a1 = u64 [s1 + 0x188]\n  8297: ra = 280, jump @22\n      : @321 [@dyn 140] (gas: 1)\n  8303: t0 = 282, jump @1569\n      : @322 [@dyn 141] (gas: 3)\n  8310: a1 = u64 [a2 + 0x78]\n  8313: a0 = 0 if a1 != 0\n  8315: jump @324 if a0 != 0\n      : @323 (gas: 1)\n  8318: jump @854\n      : @324 (gas: 12)\n  8321: a0 = u64 [s1 + 0x7a0]\n  8325: a1 = 0xffffffff\n  8335: a1 = a1 & a0\n  8338: a0 = u64 [s1 + 0x198]\n  8342: i32 a0 = a0 + 0x60\n  8345: u64 [s1 + 1944] = 0\n  8349: u64 [s1 + 1936] = 0\n  8353: u64 [s1 + 0x780] = a1\n  8357: a1 = s1 + 0x780\n  8361: u64 [s1 + 1928] = 0\n  8365: ra = 0x140\n  8369: jump @24\n      : @325 (gas: 10)\n  8372: u64 [a2 + 640] = 0\n  8376: u64 [a2 + 632] = 0\n  8380: u64 [a2 + 624] = 0\n  8384: u64 [a2 + 616] = 0\n  8388: a0 = s1 + 0x3000\n  8392: i32 a0 = a0 + 0xfffffffffffffba0\n  8396: ra = 0x11c\n  8400: ecalli 16 // 'value_transferred'\n  8402: t0 = 0x11e\n  8406: jump @1587\n      : @326 [@dyn 142] (gas: 1)\n  8410: t0 = 286, jump @1587\n      : @327 [@dyn 143] (gas: 8)\n  8417: a0 = u64 [a4 + 0x78]\n  8420: a1 = u64 [a4 + 0x80]\n  8424: a2 = u64 [a4 + 0x70]\n  8427: a3 = u64 [a4 + 0x68]\n  8430: a1 = a1 | a2\n  8433: a0 = a0 | a3\n  8436: a0 = a0 | a1\n  8439: jump @329 if a0 == 0\n      : @328 (gas: 1)\n  8442: jump @891\n      : @329 (gas: 1)\n  8445: t0 = 288, jump @1567\n      : @330 [@dyn 144] (gas: 1)\n  8452: jump @332 if a1 <u a0\n      : @331 (gas: 1)\n  8455: jump @892\n      : @332 (gas: 4)\n  8458: a0 = s1 + 0x3a0\n  8462: ra = 0x122\n  8466: t0 = 0x566\n  8470: jump @1577\n      : @333 [@dyn 145] (gas: 10)\n  8474: a0 = u64 [s1 + 0x3a0]\n  8478: a1 = u64 [s1 + 0x3a8]\n  8482: a2 = u32 [s1 + 0x3b0]\n  8486: u64 [s1 + 920] = 0\n  8490: u64 [s1 + 0x390] = a2\n  8494: u64 [s1 + 0x388] = a1\n  8498: a1 = s1 + 0x380\n  8502: u64 [s1 + 0x380] = a0\n  8506: a0 = 0\n  8508: ra = 292, jump @24\n      : @334 [@dyn 146] (gas: 7)\n  8514: u64 [s1 + 888] = 0\n  8518: u64 [s1 + 880] = 0\n  8522: u64 [s1 + 864] = 0x1\n  8527: a0 = 0x20\n  8530: a1 = s1 + 0x360\n  8534: u64 [s1 + 872] = 0\n  8538: ra = 294, jump @24\n      : @335 [@dyn 147] (gas: 6)\n  8544: a0 = sp + 0xffffffffffffffe0\n  8547: a0 = a0 & 0xffffffffffffffe0\n  8550: u64 [s1 + 0x178] = a0\n  8554: sp = a0\n  8556: a1 = i32 [0x20180]\n  8561: jump @337 if a1 >u 63\n      : @336 (gas: 4)\n  8565: a1 = 0x40\n  8568: u32 [0x20180] = a1\n  8573: t0 = 0x128\n  8577: jump @1552\n      : @337 (gas: 1)\n  8581: t0 = 296, jump @1552\n      : @338 [@dyn 148] (gas: 25)\n  8588: a0 = 0x20190\n  8593: i32 a0 = a0 + 0\n  8595: i32 a2 = a2 + 0\n  8597: a1 = 0x40\n  8600: ecalli 8 // 'hash_keccak_256'\n  8602: a3 = u64 [s1 + 0x198]\n  8606: a0 = u64 [a3 + 0x18]\n  8609: a1 = u64 [a3 + 0x10]\n  8612: a2 = u64 [a3 + 0x8]\n  8615: a3 = u64 [a3]\n  8617: a5 = reverse a0\n  8619: u64 [s1 + 0x188] = a5\n  8623: a4 = reverse a1\n  8625: u64 [s1 + 0x190] = a4\n  8629: a2 = reverse a2\n  8631: u64 [s1 + 0x180] = a2\n  8635: a0 = reverse a3\n  8637: u64 [s1 + 0x198] = a0\n  8641: a1 = u64 [s1 + 0x178]\n  8645: u64 [a1 + 0x18] = a0\n  8648: u64 [a1 + 0x10] = a2\n  8651: u64 [a1 + 0x8] = a4\n  8654: u64 [a1] = a5\n  8656: a0 = s1 + 0x340\n  8660: ra = 298, jump @26\n      : @339 [@dyn 149] (gas: 29)\n  8666: a0 = u64 [s1 + 0x358]\n  8670: u64 [s1 + 0x178] = a0\n  8674: a0 = u64 [s1 + 0x350]\n  8678: u64 [s1 + 0x170] = a0\n  8682: a0 = u64 [s1 + 0x348]\n  8686: u64 [s1 + 0x168] = a0\n  8690: a0 = u64 [s1 + 0x340]\n  8694: u64 [s1 + 0x160] = a0\n  8698: a0 = u64 [s1 + 0x188]\n  8702: a0 = a0 + 0x1\n  8705: a1 = a0 <u 0x1\n  8708: a2 = u64 [s1 + 0x190]\n  8712: a1 = a1 + a2\n  8715: a2 = s1 + 0x2938\n  8719: a3 = a2 + 0x200\n  8723: u64 [a3 + 0x90] = a1\n  8727: a1 = a1 | a0\n  8730: u64 [a3 + 0x88] = a0\n  8734: a0 = a1 <u 0x1\n  8737: a1 = u64 [s1 + 0x180]\n  8741: a0 = a0 + a1\n  8744: u64 [a3 + 0x98] = a0\n  8748: a0 = a0 <u a1\n  8751: a1 = u64 [s1 + 0x198]\n  8755: a0 = a0 + a1\n  8758: u64 [a3 + 0xa0] = a0\n  8762: a0 = s1 + 0x320\n  8766: a1 = s1 + 0x2bc0\n  8770: ra = 300, jump @26\n      : @340 [@dyn 150] (gas: 13)\n  8776: a0 = u64 [s1 + 0x338]\n  8780: u64 [s1 + 0x158] = a0\n  8784: a0 = u64 [s1 + 0x330]\n  8788: u64 [s1 + 0x150] = a0\n  8792: a0 = u64 [s1 + 0x328]\n  8796: u64 [s1 + 0x148] = a0\n  8800: a0 = u64 [s1 + 0x320]\n  8804: u64 [s1 + 0x140] = a0\n  8808: a1 = u64 [s1 + 0x188]\n  8812: a0 = a1 + 0x2\n  8815: a1 = a0 <u a1\n  8818: a3 = u64 [s1 + 0x190]\n  8822: t0 = 302, jump @1571\n      : @341 [@dyn 151] (gas: 14)\n  8829: a1 = u64 [s1 + 0x180]\n  8833: a3 = a3 + a1\n  8836: a1 = a3 <u a1\n  8839: a4 = u64 [s1 + 0x198]\n  8843: a1 = a1 + a4\n  8846: a4 = s1 + 0x2938\n  8850: a5 = a4 + 0x200\n  8854: u64 [a5 + 0xc0] = a1\n  8858: u64 [a5 + 0xb8] = a3\n  8862: u64 [a5 + 0xb0] = a2\n  8866: u64 [a5 + 0xa8] = a0\n  8870: a0 = s1 + 0x300\n  8874: a1 = s1 + 0x2be0\n  8878: ra = 304, jump @26\n      : @342 [@dyn 152] (gas: 10)\n  8884: a5 = s1 + 0x300\n  8888: a0 = u64 [a5 + 0x18]\n  8891: u64 [s1 + 0x138] = a0\n  8895: a0 = u64 [a5 + 0x10]\n  8898: u64 [s1 + 0x130] = a0\n  8902: a1 = u64 [s1 + 0x188]\n  8906: a0 = a1 + 0x3\n  8909: a1 = a0 <u a1\n  8912: a3 = u64 [s1 + 0x190]\n  8916: t0 = 306, jump @1571\n      : @343 [@dyn 153] (gas: 18)\n  8923: a1 = u64 [a5 + 0x8]\n  8926: u64 [s1 + 0x188] = a1\n  8930: a1 = u64 [s1 + 0x180]\n  8934: a3 = a3 + a1\n  8937: a1 = a3 <u a1\n  8940: a4 = u64 [s1 + 0x198]\n  8944: a1 = a1 + a4\n  8947: a4 = u64 [a5]\n  8949: u64 [s1 + 0x180] = a4\n  8953: a4 = s1 + 0x2938\n  8957: a5 = a4 + 0x200\n  8961: u64 [a5 + 0xe0] = a1\n  8965: u64 [a5 + 0xd8] = a3\n  8969: u64 [a5 + 0xd0] = a2\n  8973: u64 [a5 + 0xc8] = a0\n  8977: a0 = s1 + 0x2e0\n  8981: a1 = s1 + 0x2c00\n  8985: ra = 308, jump @26\n      : @344 [@dyn 154] (gas: 5)\n  8991: a0 = u64 [s1 + 0x2e0]\n  8995: u64 [s1 + 0x128] = a0\n  8999: a0 = s1 + 0x2c0\n  9003: a1 = 0x40\n  9006: ra = 310, jump @22\n      : @345 [@dyn 155] (gas: 13)\n  9012: a0 = s1 + 0x200\n  9016: a4 = u64 [a0 + 0xd8]\n  9020: a5 = u64 [a0 + 0xd0]\n  9024: a3 = u64 [a0 + 0xc8]\n  9028: a2 = u64 [a0 + 0xc0]\n  9032: a0 = a3 | a4\n  9035: a1 = a2 | a5\n  9038: a1 = a1 | a0\n  9041: a1 = a1 >> 0x20\n  9044: a0 = a0 | a5\n  9047: a0 = a0 << 0x20\n  9050: a0 = a0 | a1\n  9053: jump @347 if a0 == 0\n      : @346 (gas: 1)\n  9056: jump @854\n      : @347 (gas: 15)\n  9059: a0 = u64 [s1 + 0x160]\n  9063: u64 [s1 + 0x2a0] = a0\n  9067: a0 = u64 [s1 + 0x168]\n  9071: u64 [s1 + 0x2a8] = a0\n  9075: a0 = u64 [s1 + 0x170]\n  9079: u64 [s1 + 0x2b0] = a0\n  9083: a1 = s1 + 0x2a0\n  9087: a0 = u64 [s1 + 0x178]\n  9091: u64 [s1 + 0x2b8] = a0\n  9095: a0 = a2\n  9097: u64 [s1 + 0x198] = a2\n  9101: u64 [s1 + 0x190] = a3\n  9105: u64 [s1 + 0x178] = a4\n  9109: u64 [s1 + 0x170] = a5\n  9113: ra = 312, jump @24\n      : @348 [@dyn 156] (gas: 6)\n  9119: a5 = s1 + 0x100\n  9123: a1 = u64 [a5 + 0x98]\n  9127: a0 = u64 [a5 + 0x78]\n  9130: a3 = u64 [a5 + 0x70]\n  9133: a3 = a3 | a0\n  9136: t0 = 314, jump @1570\n      : @349 [@dyn 157] (gas: 1)\n  9143: jump @351 if a0 != 0\n      : @350 (gas: 1)\n  9146: jump @854\n      : @351 (gas: 14)\n  9149: i32 a0 = a1 + 0x20\n  9152: a1 = u64 [s1 + 0x140]\n  9156: a5 = s1 + 0x200\n  9160: u64 [a5 + 0x80] = a1\n  9164: a1 = u64 [s1 + 0x148]\n  9168: u64 [a5 + 0x88] = a1\n  9172: a1 = u64 [s1 + 0x150]\n  9176: u64 [a5 + 0x90] = a1\n  9180: a1 = s1 + 0x280\n  9184: a2 = u64 [s1 + 0x158]\n  9188: u64 [a5 + 0x98] = a2\n  9192: u64 [s1 + 0x178] = a3\n  9196: u64 [s1 + 0x170] = a4\n  9200: ra = 316, jump @24\n      : @352 [@dyn 158] (gas: 10)\n  9206: a2 = s1 + 0x100\n  9210: a4 = u64 [a2 + 0x78]\n  9213: a3 = u64 [a2 + 0x90]\n  9217: a1 = u64 [a2 + 0x98]\n  9221: a0 = u64 [a2 + 0x70]\n  9224: a0 = a0 + 0xffffffffffffffc0\n  9227: a0 = a1 <u a0\n  9230: a0 = 0 if a3 != 0\n  9232: a0 = 0 if a4 != 0\n  9234: jump @354 if a0 != 0\n      : @353 (gas: 1)\n  9237: jump @854\n      : @354 (gas: 12)\n  9240: i32 a0 = a1 + 0x40\n  9243: a1 = u64 [s1 + 0x180]\n  9247: a3 = s1 + 0x200\n  9251: u64 [a3 + 0x60] = a1\n  9254: a1 = u64 [s1 + 0x188]\n  9258: u64 [a3 + 0x68] = a1\n  9261: a1 = u64 [s1 + 0x130]\n  9265: u64 [a3 + 0x70] = a1\n  9268: a1 = s1 + 0x260\n  9272: a2 = u64 [s1 + 0x138]\n  9276: u64 [a3 + 0x78] = a2\n  9279: ra = 318, jump @24\n      : @355 [@dyn 159] (gas: 9)\n  9285: a3 = s1 + 0x100\n  9289: a2 = u64 [a3 + 0x98]\n  9293: a0 = 0xffffffa0\n  9303: a0 = a2 <u a0\n  9306: a1 = u64 [a3 + 0x90]\n  9310: a0 = 0 if a1 != 0\n  9312: a1 = u64 [a3 + 0x78]\n  9315: a0 = 0 if a1 != 0\n  9317: jump @357 if a0 != 0\n      : @356 (gas: 1)\n  9320: jump @854\n      : @357 (gas: 10)\n  9323: a0 = u64 [s1 + 0x128]\n  9327: a0 = a0 << 0x20\n  9330: a1 = a0 >> 0x20\n  9333: i32 a0 = a2 + 0x60\n  9336: u64 [s1 + 600] = 0\n  9340: u64 [s1 + 592] = 0\n  9344: u64 [s1 + 0x240] = a1\n  9348: a1 = s1 + 0x240\n  9352: u64 [s1 + 584] = 0\n  9356: ra = 320, jump @24\n      : @358 [@dyn 160] (gas: 3)\n  9362: a1 = 0x80\n  9366: a0 = u64 [s1 + 0x198]\n  9370: ra = 322, jump @37\n      : @359 [@dyn 161] (gas: 5)\n  9376: i32 a1 = a0 + 0\n  9378: a2 = 0x80\n  9382: a0 = 0\n  9384: ecalli 13 // 'seal_return'\n  9386: jump @962\n      : @360 (gas: 1)\n  9389: jump @362 if a0 == 1641031603\n      : @361 (gas: 1)\n  9396: jump @893\n      : @362 (gas: 10)\n  9399: u64 [a2 + 1696] = 0\n  9403: u64 [a2 + 1688] = 0\n  9407: u64 [a2 + 1680] = 0\n  9411: u64 [a2 + 1672] = 0\n  9415: a0 = s1 + 0x3000\n  9419: i32 a0 = a0 + 0xffffffffffffffc0\n  9422: ra = 0x144\n  9426: ecalli 16 // 'value_transferred'\n  9428: t0 = 0x146\n  9432: jump @1558\n      : @363 [@dyn 162] (gas: 1)\n  9436: t0 = 326, jump @1558\n      : @364 [@dyn 163] (gas: 8)\n  9443: a0 = u64 [a4 + 0x98]\n  9447: a1 = u64 [a4 + 0xa0]\n  9451: a2 = u64 [a4 + 0x90]\n  9455: a3 = u64 [a4 + 0x88]\n  9459: a1 = a1 | a2\n  9462: a0 = a0 | a3\n  9465: a0 = a0 | a1\n  9468: jump @366 if a0 == 0\n      : @365 (gas: 1)\n  9471: jump @899\n      : @366 (gas: 3)\n  9474: a0 = u64 [s1 + 0x198]\n  9478: a0 = i32 [a0]\n  9480: jump @368 if a0 >u 3\n      : @367 (gas: 1)\n  9484: jump @900\n      : @368 (gas: 3)\n  9487: a0 = s1 + 0x1340\n  9491: a1 = 0x40\n  9494: ra = 328, jump @22\n      : @369 [@dyn 164] (gas: 11)\n  9500: a0 = s1 + 0x1118\n  9504: a2 = a0 + 0x200\n  9508: a1 = u64 [a2 + 0x40]\n  9511: u64 [s1 + 0x198] = a1\n  9515: a1 = u64 [a2 + 0x38]\n  9518: u64 [s1 + 0x190] = a1\n  9522: a1 = u64 [a2 + 0x30]\n  9525: u64 [s1 + 0x180] = a1\n  9529: a0 = u64 [a2 + 0x28]\n  9532: u64 [s1 + 0x188] = a0\n  9536: ra = 330, jump @15\n      : @370 [@dyn 165] (gas: 8)\n  9542: a4 = s1 + 0x100\n  9546: a0 = u64 [a4 + 0x98]\n  9550: a1 = u64 [a4 + 0x80]\n  9554: a0 = a0 | a1\n  9557: a1 = u64 [a4 + 0x88]\n  9561: a3 = a1\n  9563: a2 = u64 [a4 + 0x90]\n  9567: t0 = 332, jump @1589\n      : @371 [@dyn 166] (gas: 1)\n  9574: jump @373 if a0 == 0\n      : @372 (gas: 1)\n  9577: jump @854\n      : @373 (gas: 12)\n  9580: a2 = u64 [0x301b0]\n  9585: a1 = u64 [0x301b8]\n  9590: a0 = u32 [0x301c0]\n  9595: a4 = s1 + 0x1118\n  9599: u64 [a4 + 544] = 0\n  9603: a5 = a4 + 0x200\n  9607: u64 [a5 + 0x18] = a0\n  9610: u64 [a5 + 0x10] = a1\n  9613: a1 = s1 + 0x1320\n  9617: u64 [a5 + 0x8] = a2\n  9620: a0 = a3\n  9622: ra = 334, jump @24\n      : @374 [@dyn 167] (gas: 4)\n  9628: a1 = 0x20\n  9631: a0 = u64 [s1 + 0x188]\n  9635: ra = 0x3b0\n  9639: jump @37\n      : @375 (gas: 9)\n  9642: u64 [a2 + 832] = 0\n  9646: u64 [a2 + 824] = 0\n  9650: u64 [a2 + 816] = 0\n  9654: u64 [a2 + 808] = 0\n  9658: a0 = s1 + 0x3000\n  9662: i32 a0 = a0 + 0xfffffffffffffc60\n  9666: ra = 0x150\n  9670: ecalli 16 // 'value_transferred'\n  9672: fallthrough\n      : @376 [@dyn 168] (gas: 3)\n  9673: a3 = s1 + 0x2938\n  9677: a4 = a3 + 0x300\n  9681: t0 = 338, jump @1583\n      : @377 [@dyn 169] (gas: 1)\n  9688: jump @379 if a0 == 0\n      : @378 (gas: 1)\n  9691: jump @901\n      : @379 (gas: 1)\n  9694: t0 = 340, jump @1567\n      : @380 [@dyn 170] (gas: 1)\n  9701: jump @382 if a1 <u a0\n      : @381 (gas: 1)\n  9704: jump @902\n      : @382 (gas: 6)\n  9707: a0 = s1 + 0x3000\n  9711: i32 a0 = a0 + 0xfffffffffffffc80\n  9715: a1 = 0x4\n  9718: ra = 0x156\n  9722: ecalli 2 // 'call_data_load'\n  9724: fallthrough\n      : @383 [@dyn 171] (gas: 7)\n  9725: a0 = s1 + 0x2938\n  9729: a5 = a0 + 0x300\n  9733: a1 = u64 [a5 + 0x60]\n  9736: a2 = u64 [a5 + 0x58]\n  9739: a3 = u64 [a5 + 0x50]\n  9742: a4 = u64 [a5 + 0x48]\n  9745: t0 = 344, jump @1575\n      : @384 [@dyn 172] (gas: 1)\n  9752: jump @386 if a0 != 0\n      : @385 (gas: 1)\n  9755: jump @903\n      : @386 (gas: 8)\n  9758: a0 = 0x30190\n  9763: u64 [s1 + 0x198] = a0\n  9767: i32 a0 = a0 + 0\n  9769: u64 [s1 + 0x168] = a0\n  9773: ra = 0x15a\n  9777: ecalli 4 // 'caller'\n  9779: t0 = 0x15c\n  9783: jump @1541\n      : @387 [@dyn 173] (gas: 1)\n  9786: t0 = 348, jump @1541\n      : @388 [@dyn 174] (gas: 7)\n  9792: u64 [s1 + 1464] = 0\n  9796: u64 [s1 + 0x5b0] = a1\n  9800: u64 [s1 + 0x5a8] = a0\n  9804: a1 = s1 + 0x5a0\n  9808: u64 [s1 + 0x5a0] = a3\n  9812: a0 = 0\n  9814: ra = 350, jump @24\n      : @389 [@dyn 175] (gas: 7)\n  9820: u64 [s1 + 1432] = 0\n  9824: u64 [s1 + 1424] = 0\n  9828: u64 [s1 + 1408] = 0x1\n  9833: a0 = 0x20\n  9836: a1 = s1 + 0x580\n  9840: u64 [s1 + 1416] = 0\n  9844: ra = 352, jump @24\n      : @390 [@dyn 176] (gas: 7)\n  9850: a0 = sp + 0xffffffffffffffe0\n  9853: a0 = a0 & 0xffffffffffffffe0\n  9856: u64 [s1 + 0x170] = a0\n  9860: sp = a0\n  9862: a2 = 0x20180\n  9867: a0 = i32 [0x20180]\n  9872: jump @392 if a0 >u 63\n      : @391 (gas: 2)\n  9876: u32 [0x20180] = 0x40\n  9882: fallthrough\n      : @392 (gas: 16)\n  9883: u64 [s1 + 0x140] = a2\n  9887: a0 = sp + 0xffffffffffffffe0\n  9890: a2 = a0 & 0xffffffffffffffe0\n  9893: u64 [s1 + 0x158] = a2\n  9897: sp = a2\n  9899: a0 = 0x20190\n  9904: u64 [s1 + 0x160] = a0\n  9908: i32 a0 = a0 + 0\n  9910: i32 a2 = a2 + 0\n  9912: a1 = 0x40\n  9915: u64 [s1 + 0x148] = a0\n  9919: ra = 0x162\n  9923: ecalli 8 // 'hash_keccak_256'\n  9925: a3 = u64 [s1 + 0x158]\n  9929: t0 = 0x164\n  9933: jump @1526\n      : @393 [@dyn 177] (gas: 2)\n  9936: a3 = u64 [s1 + 0x158]\n  9940: t0 = 356, jump @1526\n      : @394 [@dyn 178] (gas: 7)\n  9946: a1 = u64 [s1 + 0x170]\n  9950: u64 [a1 + 0x18] = a3\n  9953: u64 [a1 + 0x10] = a2\n  9956: u64 [a1 + 0x8] = a4\n  9959: u64 [a1] = a0\n  9961: a0 = s1 + 0x560\n  9965: ra = 358, jump @26\n      : @395 [@dyn 179] (gas: 20)\n  9971: t0 = u64 [s1 + 0x578]\n  9975: a1 = u64 [s1 + 0x568]\n  9979: t2 = u64 [s1 + 0x570]\n  9983: t1 = u64 [s1 + 0x560]\n  9987: ra = u64 [s1 + 0x180]\n  9991: a0 = t0 ^ ra\n  9994: a2 = u64 [s1 + 0x190]\n  9998: a5 = a1 ^ a2\n 10001: a3 = a1 <u a2\n 10004: a2 = u64 [s1 + 0x188]\n 10008: a2 = t1 <u a2\n 10011: a2 = a3 if a5 != 0\n 10014: a3 = t0 <u ra\n 10017: a4 = u64 [s1 + 0x178]\n 10021: a5 = t2 <u a4\n 10024: a5 = a3 if a0 != 0\n 10027: a3 = t2 ^ a4\n 10030: a3 = a3 | a0\n 10033: a2 = a5 if a3 != 0\n 10036: jump @397 if a2 == 0\n      : @396 (gas: 1)\n 10039: jump @907\n      : @397 (gas: 14)\n 10042: a0 = u64 [s1 + 0x188]\n 10046: u64 [s1 + 0x500] = a0\n 10050: u64 [s1 + 0x520] = t1\n 10054: a0 = u64 [s1 + 0x190]\n 10058: u64 [s1 + 0x508] = a0\n 10062: u64 [s1 + 0x528] = a1\n 10066: u64 [s1 + 0x510] = a4\n 10070: u64 [s1 + 0x530] = t2\n 10074: u64 [s1 + 0x518] = ra\n 10078: a0 = s1 + 0x540\n 10082: a1 = s1 + 0x520\n 10086: a2 = s1 + 0x500\n 10090: u64 [s1 + 0x538] = t0\n 10094: ra = 360, jump @1355\n      : @398 [@dyn 180] (gas: 14)\n 10100: a4 = s1 + 0x500\n 10104: a0 = u64 [a4 + 0x58]\n 10107: a1 = u64 [a4 + 0x50]\n 10110: a2 = u64 [a4 + 0x48]\n 10113: a3 = u64 [a4 + 0x40]\n 10116: a4 = s1 + 0x2938\n 10120: a5 = a4 + 0x300\n 10124: u64 [a5 + 0x80] = a0\n 10128: u64 [a5 + 0x78] = a1\n 10131: u64 [a5 + 0x70] = a2\n 10134: u64 [a5 + 0x68] = a3\n 10137: a1 = s1 + 0x2ca0\n 10141: a0 = u64 [s1 + 0x170]\n 10145: ra = 362, jump @28\n      : @399 [@dyn 181] (gas: 5)\n 10151: a0 = u64 [s1 + 0x168]\n 10155: ra = 0x16c\n 10159: ecalli 4 // 'caller'\n 10161: t0 = 0x16e\n 10165: jump @1574\n      : @400 [@dyn 182] (gas: 1)\n 10168: t0 = 366, jump @1574\n      : @401 [@dyn 183] (gas: 4)\n 10174: ra = 0x170\n 10178: ecalli 10 // 'ref_time_left'\n 10180: t0 = 0x172\n 10184: jump @1544\n      : @402 [@dyn 184] (gas: 1)\n 10187: t0 = 370, jump @1544\n      : @403 [@dyn 185] (gas: 37)\n 10193: a4 = a2 + 0x300\n 10197: u64 [a4 + 0xa0] = a1\n 10201: a1 = u64 [s1 + 0x178]\n 10205: u64 [a4 + 0x98] = a1\n 10209: a1 = u64 [s1 + 0x190]\n 10213: u64 [a4 + 0x90] = a1\n 10217: a1 = u64 [s1 + 0x188]\n 10221: u64 [a4 + 0x88] = a1\n 10225: u32 [a2 + 936] = 0\n 10229: a0 = a0 >u 0x8fc\n 10233: a1 = -a0\n 10235: u64 [a4 + 0xe0] = a1\n 10239: u64 [a4 + 0xd8] = a1\n 10243: u64 [a4 + 0xd0] = a1\n 10247: u64 [a4 + 0xc8] = a1\n 10251: a1 = a3 << 0x20\n 10254: a1 = a1 >> 0x20\n 10257: a0 = a0 << 0x23\n 10260: a0 = a0 | a1\n 10263: a1 = s1 + 0x2cc0\n 10267: a1 = a1 << 0x20\n 10270: a1 = a1 >> 0x20\n 10273: a2 = s1 + 0x2d00\n 10277: a2 = a2 << 0x20\n 10280: a3 = a2 | a1\n 10283: a4 = u64 [s1 + 0x160]\n 10287: a4 = a4 << 0x20\n 10290: a4 = a4 >> 0x20\n 10293: a1 = s1 + 0x2ce0\n 10297: a1 = a1 << 0x20\n 10300: a5 = a1 | a4\n 10303: a1 = 0xffffffffffffffff\n 10306: a2 = 0xffffffffffffffff\n 10309: ecalli 0 // 'call'\n 10310: u64 [s1 + 0x170] = a0\n 10314: a0 = s1 + 0x4e0\n 10318: ra = 372, jump @1370\n      : @404 [@dyn 186] (gas: 2)\n 10324: a0 = u64 [s1 + 0x170]\n 10328: jump @406 if a0 == 0\n      : @405 (gas: 1)\n 10331: jump @908\n      : @406 (gas: 3)\n 10334: a0 = s1 + 0x4a0\n 10338: a1 = 0x40\n 10341: ra = 374, jump @22\n      : @407 [@dyn 187] (gas: 6)\n 10347: a4 = s1 + 0x400\n 10351: a0 = u64 [a4 + 0xb8]\n 10355: a1 = u64 [a4 + 0xb0]\n 10359: a2 = u64 [a4 + 0xa8]\n 10363: a3 = u64 [a4 + 0xa0]\n 10367: t0 = 376, jump @1533\n      : @408 [@dyn 188] (gas: 1)\n 10373: jump @410 if a0 == 0\n      : @409 (gas: 1)\n 10376: jump @854\n      : @410 (gas: 12)\n 10379: a0 = u64 [s1 + 0x188]\n 10383: u64 [s1 + 0x480] = a0\n 10387: a0 = u64 [s1 + 0x190]\n 10391: u64 [s1 + 0x488] = a0\n 10395: a0 = u64 [s1 + 0x178]\n 10399: u64 [s1 + 0x490] = a0\n 10403: a1 = s1 + 0x480\n 10407: a0 = u64 [s1 + 0x180]\n 10411: u64 [s1 + 0x498] = a0\n 10415: a0 = a3\n 10417: u64 [s1 + 0x190] = a3\n 10421: ra = 378, jump @24\n      : @411 [@dyn 189] (gas: 6)\n 10427: a0 = u64 [s1 + 0x168]\n 10431: ra = 0x17c\n 10435: ecalli 4 // 'caller'\n 10437: a2 = u64 [s1 + 0x198]\n 10441: t0 = 0x17e\n 10445: jump @1519\n      : @412 [@dyn 190] (gas: 2)\n 10448: a2 = u64 [s1 + 0x198]\n 10452: t0 = 382, jump @1519\n      : @413 [@dyn 191] (gas: 24)\n 10458: t0 = a1 | a0\n 10461: a3 = a3 >> 0x20\n 10464: a2 = reverse a2\n 10466: a1 = a2 << 0x20\n 10469: a1 = a1 | a3\n 10472: a2 = a2 >> 0x20\n 10475: u64 [s1 + 1112] = 0\n 10479: a3 = u64 [0x20100]\n 10484: a4 = u64 [0x20108]\n 10489: a5 = u64 [0x20110]\n 10494: a0 = u64 [0x20118]\n 10499: u64 [s1 + 0x478] = a3\n 10503: a3 = s1 + 0x400\n 10507: u64 [a3 + 0x70] = a4\n 10510: u64 [a3 + 0x68] = a5\n 10513: u64 [a3 + 0x60] = a0\n 10516: u64 [a3 + 0x50] = a2\n 10519: u64 [a3 + 0x48] = a1\n 10522: a1 = 0x20\n 10525: a2 = s1 + 0x460\n 10529: a3 = s1 + 0x440\n 10533: u64 [s1 + 0x440] = t0\n 10537: a0 = u64 [s1 + 0x190]\n 10541: ra = 384, jump @29\n      : @414 [@dyn 192] (gas: 7)\n 10547: a0 = 0\n 10549: a1 = u64 [s1 + 0x148]\n 10553: a2 = 0\n 10555: ra = 0x418\n 10559: ecalli 13 // 'seal_return'\n 10561: t0 = 0x41a\n 10565: jump @1567\n      : @415 (gas: 10)\n 10568: u64 [a2 + 1728] = 0\n 10572: u64 [a2 + 1720] = 0\n 10576: u64 [a2 + 1712] = 0\n 10580: u64 [a2 + 1704] = 0\n 10584: a0 = s1 + 0x3000\n 10588: i32 a0 = a0 + 0xffffffffffffffe0\n 10591: ra = 0x182\n 10595: ecalli 16 // 'value_transferred'\n 10597: t0 = 0x184\n 10601: jump @1558\n      : @416 [@dyn 193] (gas: 1)\n 10604: t0 = 388, jump @1558\n      : @417 [@dyn 194] (gas: 1)\n 10610: t0 = 390, jump @1557\n      : @418 [@dyn 195] (gas: 1)\n 10616: jump @420 if a0 == 0\n      : @419 (gas: 1)\n 10619: jump @912\n      : @420 (gas: 3)\n 10622: a0 = u64 [s1 + 0x198]\n 10626: a0 = i32 [a0]\n 10628: jump @422 if a0 >u 99\n      : @421 (gas: 1)\n 10632: jump @913\n      : @422 (gas: 4)\n 10635: a0 = s1 + 0x1500\n 10639: ra = 0x188\n 10643: t0 = 0x566\n 10647: jump @1577\n      : @423 [@dyn 196] (gas: 11)\n 10650: a1 = s1 + 0x1118\n 10654: a0 = u64 [a1 + 0x3e8]\n 10658: u64 [s1 + 0x198] = a0\n 10662: a0 = u64 [a1 + 0x3f0]\n 10666: u64 [s1 + 0x190] = a0\n 10670: a0 = u32 [a1 + 0x3f8]\n 10674: u64 [s1 + 0x178] = a0\n 10678: a0 = s1 + 0x14e0\n 10682: ra = 0x18a\n 10686: t0 = 0x56a\n 10690: jump @1590\n      : @424 [@dyn 197] (gas: 7)\n 10693: a0 = s1 + 0x1118\n 10697: a0 = u64 [a0 + 0x3c8]\n 10701: u64 [s1 + 0x180] = a0\n 10705: a0 = s1 + 0x14c0\n 10709: ra = 0x18c\n 10713: t0 = 0x570\n 10717: jump @1590\n      : @425 [@dyn 198] (gas: 3)\n 10720: t0 = 0x18e\n 10724: a2 = s1 + 0x1118\n 10728: fallthrough\n      : @426 [@dyn 199] (gas: 14)\n 10729: a3 = a2 + 0x300\n 10733: a0 = u64 [a3 + 0xa8]\n 10737: a4 = s1 + 0x100\n 10741: u64 [a4 + 0x88] = a0\n 10745: u64 [a2 + 928] = 0\n 10749: a0 = u64 [a4 + 0x78]\n 10752: u64 [a3 + 0x98] = a0\n 10756: a0 = u64 [a4 + 0x90]\n 10760: u64 [a3 + 0x90] = a0\n 10764: a1 = s1 + 0x14a0\n 10768: a0 = u64 [a4 + 0x98]\n 10772: u64 [a3 + 0x88] = a0\n 10776: a0 = 0\n 10778: ra = 400, jump @24\n      : @427 [@dyn 200] (gas: 9)\n 10784: a1 = s1 + 0x1118\n 10788: u64 [a1 + 896] = 0\n 10792: u64 [a1 + 888] = 0\n 10796: u64 [a1 + 872] = 0x4\n 10801: a2 = a1\n 10803: a0 = 0x20\n 10806: a1 = s1 + 0x1480\n 10810: u64 [a2 + 880] = 0\n 10814: ra = 402, jump @24\n      : @428 [@dyn 201] (gas: 3)\n 10820: a1 = 0x20180\n 10825: a0 = i32 [0x20180]\n 10830: jump @430 if a0 >u 63\n      : @429 (gas: 2)\n 10834: u32 [0x20180] = 0x40\n 10840: fallthrough\n      : @430 (gas: 15)\n 10841: a0 = sp + 0xffffffffffffffe0\n 10844: a2 = a0 & 0xffffffffffffffe0\n 10847: u64 [s1 + 0x178] = a2\n 10851: sp = a2\n 10853: a0 = 0x20190\n 10858: i32 a0 = a0 + 0\n 10860: i32 a2 = a2 + 0\n 10862: u64 [s1 + 0x198] = a1\n 10866: a1 = 0x40\n 10869: u64 [s1 + 0x190] = a0\n 10873: ra = 0x194\n 10877: ecalli 8 // 'hash_keccak_256'\n 10879: a3 = u64 [s1 + 0x178]\n 10883: t0 = 0x196\n 10887: jump @1539\n      : @431 [@dyn 202] (gas: 2)\n 10890: a3 = u64 [s1 + 0x178]\n 10894: t0 = 406, jump @1539\n      : @432 [@dyn 203] (gas: 3)\n 10900: t0 = 0x198\n 10904: a2 = s1 + 0x1118\n 10908: fallthrough\n      : @433 [@dyn 204] (gas: 8)\n 10909: u64 [a2 + 864] = 0\n 10913: u64 [a2 + 856] = 0\n 10917: u64 [a2 + 848] = 0\n 10921: a1 = s1 + 0x1460\n 10925: a0 = u64 [s1 + 0x180]\n 10929: u64 [a2 + 0x348] = a0\n 10933: a0 = 0\n 10935: ra = 410, jump @24\n      : @434 [@dyn 205] (gas: 14)\n 10941: a0 = u64 [s1 + 0x160]\n 10945: a1 = s1 + 0x1118\n 10949: a2 = a1 + 0x300\n 10953: u64 [a2 + 0x40] = a0\n 10956: a0 = u64 [s1 + 0x168]\n 10960: u64 [a2 + 0x38] = a0\n 10963: a0 = u64 [s1 + 0x170]\n 10967: u64 [a2 + 0x30] = a0\n 10970: a3 = a1\n 10972: a0 = 0x20\n 10975: a1 = s1 + 0x1440\n 10979: a2 = u64 [s1 + 0x178]\n 10983: u64 [a3 + 0x328] = a2\n 10987: ra = 412, jump @24\n      : @435 [@dyn 206] (gas: 3)\n 10993: a1 = u64 [s1 + 0x198]\n 10997: a0 = i32 [a1]\n 10999: jump @437 if a0 >u 63\n      : @436 (gas: 2)\n 11003: u32 [a1 + 0] = 0x40\n 11006: fallthrough\n      : @437 (gas: 4)\n 11007: a0 = sp + 0xffffffffffffffe0\n 11010: a0 = a0 & 0xffffffffffffffe0\n 11013: u64 [s1 + 0x180] = a0\n 11017: t0 = 414, jump @1535\n      : @438 [@dyn 207] (gas: 5)\n 11023: ra = 0x1a0\n 11027: ecalli 8 // 'hash_keccak_256'\n 11029: a3 = u64 [s1 + 0x180]\n 11033: t0 = 0x1a2\n 11037: jump @1539\n      : @439 [@dyn 208] (gas: 2)\n 11040: a3 = u64 [s1 + 0x180]\n 11044: t0 = 418, jump @1539\n      : @440 [@dyn 209] (gas: 15)\n 11050: a0 = sp + 0xffffffffffffffe0\n 11053: a0 = a0 & 0xffffffffffffffe0\n 11056: u64 [s1 + 0x180] = a0\n 11060: sp = a0\n 11062: a0 = u64 [s1 + 0x188]\n 11066: a0 = a0 << 0x20\n 11069: a0 = a0 >> 0x20\n 11072: a2 = s1 + 0x1118\n 11076: u64 [a2 + 800] = 0\n 11080: u64 [a2 + 792] = 0\n 11084: u64 [a2 + 784] = 0\n 11088: a1 = s1 + 0x1420\n 11092: u64 [a2 + 0x308] = a0\n 11096: a0 = 0\n 11098: ra = 420, jump @24\n      : @441 [@dyn 210] (gas: 13)\n 11104: a0 = u64 [s1 + 0x160]\n 11108: a1 = s1 + 0x1118\n 11112: u64 [a1 + 0x300] = a0\n 11116: a0 = u64 [s1 + 0x168]\n 11120: u64 [a1 + 0x2f8] = a0\n 11124: a0 = u64 [s1 + 0x170]\n 11128: u64 [a1 + 0x2f0] = a0\n 11132: a3 = a1\n 11134: a0 = 0x20\n 11137: a1 = s1 + 0x1400\n 11141: a2 = u64 [s1 + 0x178]\n 11145: u64 [a3 + 0x2e8] = a2\n 11149: ra = 422, jump @24\n      : @442 [@dyn 211] (gas: 3)\n 11155: a1 = u64 [s1 + 0x198]\n 11159: a0 = i32 [a1]\n 11161: jump @444 if a0 >=u 64\n      : @443 (gas: 2)\n 11165: u32 [a1 + 0] = 0x40\n 11168: fallthrough\n      : @444 (gas: 4)\n 11169: a0 = sp + 0xffffffffffffffe0\n 11172: a0 = a0 & 0xffffffffffffffe0\n 11175: u64 [s1 + 0x198] = a0\n 11179: t0 = 424, jump @1535\n      : @445 [@dyn 212] (gas: 5)\n 11185: ra = 0x1aa\n 11189: ecalli 8 // 'hash_keccak_256'\n 11191: a3 = u64 [s1 + 0x198]\n 11195: t0 = 0x1ac\n 11199: jump @1526\n      : @446 [@dyn 213] (gas: 2)\n 11202: a3 = u64 [s1 + 0x198]\n 11206: t0 = 428, jump @1526\n      : @447 [@dyn 214] (gas: 7)\n 11212: a1 = u64 [s1 + 0x180]\n 11216: u64 [a1 + 0x18] = a3\n 11219: u64 [a1 + 0x10] = a2\n 11222: u64 [a1 + 0x8] = a4\n 11225: u64 [a1] = a0\n 11227: a0 = s1 + 0x13e0\n 11231: ra = 430, jump @26\n      : @448 [@dyn 215] (gas: 6)\n 11237: a0 = s1 + 0x1118\n 11241: a0 = u64 [a0 + 0x2c8]\n 11245: u64 [s1 + 0x198] = a0\n 11249: a0 = s1 + 0x13c0\n 11253: a1 = 0x40\n 11256: ra = 432, jump @22\n      : @449 [@dyn 216] (gas: 2)\n 11262: a2 = s1 + 0x1118\n 11266: fallthrough\n      : @450 (gas: 13)\n 11267: t0 = u64 [a2 + 0x2c0]\n 11271: a1 = a2 + 0x200\n 11275: a5 = u64 [a1 + 0xb8]\n 11279: a4 = u64 [a1 + 0xb0]\n 11283: a0 = u64 [a1 + 0xa8]\n 11287: a3 = a4 | t0\n 11290: a1 = a0 | a5\n 11293: a1 = a1 | a3\n 11296: a1 = a1 >> 0x20\n 11299: a3 = a3 | a5\n 11302: a3 = a3 << 0x20\n 11305: a1 = a1 | a3\n 11308: jump @452 if a1 == 0\n      : @451 (gas: 1)\n 11311: jump @854\n      : @452 (gas: 12)\n 11314: a1 = u8 [s1 + 0x198]\n 11318: a3 = a1 >u 0\n 11320: u64 [a2 + 672] = 0\n 11324: u64 [a2 + 664] = 0\n 11328: u64 [a2 + 656] = 0\n 11332: a1 = s1 + 0x13a0\n 11336: u64 [a2 + 0x288] = a3\n 11340: u64 [s1 + 0x190] = a0\n 11344: u64 [s1 + 0x188] = a4\n 11348: u64 [s1 + 0x178] = t0\n 11352: u64 [s1 + 0x180] = a5\n 11356: ra = 434, jump @24\n      : @453 [@dyn 217] (gas: 12)\n 11362: a4 = s1 + 0x100\n 11366: a3 = u64 [a4 + 0x88]\n 11370: a2 = u64 [a4 + 0x90]\n 11374: a0 = u64 [a4 + 0x80]\n 11378: a1 = u64 [a4 + 0x78]\n 11381: a1 = a1 | a0\n 11384: a4 = 0x100000000\n 11394: a0 = 0xffffffe0\n 11404: a0 = a2 <u a0\n 11407: a0 = 0 if a3 != 0\n 11409: a0 = 0 if a1 != 0\n 11411: jump @455 if a0 != 0\n      : @454 (gas: 1)\n 11414: jump @854\n      : @455 (gas: 13)\n 11417: u64 [s1 + 0x180] = a1\n 11421: a1 = u64 [s1 + 0x198]\n 11425: a0 = a1 & 0xff00\n 11430: a1 = a0 >u 0\n 11432: i32 a0 = a2 + 0x20\n 11435: a2 = s1 + 0x1118\n 11439: u64 [a2 + 640] = 0\n 11443: u64 [a2 + 632] = 0\n 11447: u64 [a2 + 0x268] = a1\n 11451: a1 = s1 + 0x1380\n 11455: u64 [a2 + 624] = 0\n 11459: u64 [s1 + 0x178] = a4\n 11463: ra = 436, jump @24\n      : @456 [@dyn 218] (gas: 10)\n 11469: a3 = s1 + 0x100\n 11473: a2 = u64 [a3 + 0x90]\n 11477: a0 = u64 [a3 + 0x78]\n 11480: a0 = a0 + 0xffffffffffffffc0\n 11483: a0 = a2 <u a0\n 11486: a1 = u64 [a3 + 0x88]\n 11490: a0 = 0 if a1 != 0\n 11492: a1 = u64 [a3 + 0x80]\n 11496: a0 = 0 if a1 != 0\n 11498: jump @458 if a0 != 0\n      : @457 (gas: 1)\n 11501: jump @854\n      : @458 (gas: 11)\n 11504: a1 = u64 [s1 + 0x198]\n 11508: a0 = a1 & 0xff0000\n 11514: a1 = a0 >u 0\n 11516: i32 a0 = a2 + 0x40\n 11519: a3 = s1 + 0x1118\n 11523: u64 [a3 + 608] = 0\n 11527: u64 [a3 + 600] = 0\n 11531: u64 [a3 + 0x248] = a1\n 11535: a1 = s1 + 0x1360\n 11539: u64 [a3 + 592] = 0\n 11543: ra = 438, jump @24\n      : @459 [@dyn 219] (gas: 3)\n 11549: a1 = 0x60\n 11552: a0 = u64 [s1 + 0x190]\n 11556: ra = 440, jump @37\n      : @460 [@dyn 220] (gas: 5)\n 11562: i32 a1 = a0 + 0\n 11564: a2 = 0x60\n 11567: a0 = 0\n 11569: ecalli 13 // 'seal_return'\n 11571: jump @962\n      : @461 (gas: 10)\n 11574: u64 [a2 + 768] = 0\n 11578: u64 [a2 + 760] = 0\n 11582: u64 [a2 + 752] = 0\n 11586: u64 [a2 + 744] = 0\n 11590: a0 = s1 + 0x3000\n 11594: i32 a0 = a0 + 0xfffffffffffffc20\n 11598: ra = 0x1ba\n 11602: ecalli 16 // 'value_transferred'\n 11604: t0 = 0x1bc\n 11608: jump @1587\n      : @462 [@dyn 221] (gas: 1)\n 11611: t0 = 444, jump @1587\n      : @463 [@dyn 222] (gas: 8)\n 11617: a0 = u64 [a4 + 0xf8]\n 11621: a1 = u64 [a3 + 0x300]\n 11625: a2 = u64 [a4 + 0xf0]\n 11629: a3 = u64 [a4 + 0xe8]\n 11633: a1 = a1 | a2\n 11636: a0 = a0 | a3\n 11639: a0 = a0 | a1\n 11642: jump @465 if a0 == 0\n      : @464 (gas: 1)\n 11645: jump @914\n      : @465 (gas: 3)\n 11648: a0 = u64 [s1 + 0x198]\n 11652: a0 = i32 [a0]\n 11654: jump @467 if a0 >u 3\n      : @466 (gas: 1)\n 11658: jump @915\n      : @467 (gas: 17)\n 11661: a0 = s1 + 0x3000\n 11665: i32 a0 = a0 + 0xfffffffffffffc40\n 11669: ecalli 9 // 'now'\n 11671: a0 = s1 + 0x2938\n 11675: a2 = a0 + 0x300\n 11679: a1 = u64 [a2 + 0x20]\n 11682: a3 = s1 + 0x100\n 11686: u64 [a3 + 0x58] = a1\n 11689: a1 = u64 [a2 + 0x18]\n 11692: u64 [a3 + 0x50] = a1\n 11695: a1 = u64 [a2 + 0x10]\n 11698: u64 [a3 + 0x98] = a1\n 11702: a0 = u64 [a2 + 0x8]\n 11705: u64 [a3 + 0x90] = a0\n 11709: a0 = s1 + 0x3e0\n 11713: a1 = 0x40\n 11716: ra = 446, jump @22\n      : @468 [@dyn 223] (gas: 6)\n 11722: a4 = s1 + 0x300\n 11726: a0 = u64 [a4 + 0xf8]\n 11730: a1 = u64 [a4 + 0xf0]\n 11734: a2 = u64 [a4 + 0xe8]\n 11738: a3 = u64 [a4 + 0xe0]\n 11742: t0 = 448, jump @1533\n      : @469 [@dyn 224] (gas: 1)\n 11748: jump @471 if a0 == 0\n      : @470 (gas: 1)\n 11751: jump @854\n      : @471 (gas: 46)\n 11754: u64 [s1 + 0x118] = a3\n 11758: t1 = u64 [s1 + 0x150]\n 11762: a0 = clz t1\n 11764: a0 = a0 + 0x40\n 11767: ra = u64 [s1 + 0x158]\n 11771: a2 = clz ra\n 11773: a2 = a0 if ra == 0\n 11776: t2 = u64 [s1 + 0x190]\n 11780: a0 = clz t2\n 11782: a0 = a0 + 0x40\n 11785: t0 = u64 [s1 + 0x198]\n 11789: a1 = clz t0\n 11791: a1 = a0 if t0 == 0\n 11794: a0 = a1 + 0x80\n 11798: a3 = t1 | ra\n 11801: a2 = a0 if a3 == 0\n 11804: a5 = a0 <u a1\n 11807: a5 = 0 if a3 != 0\n 11809: a4 = a5 >u 0\n 11811: a0 = a2 <u 0xf0\n 11815: a3 = a0 ^ 0x1\n 11818: a4 = a3 if a5 == 0\n 11821: a0 = a4 <u 0x1\n 11824: a0 = a0 + 0xffffffffffffffff\n 11827: a1 = -a4\n 11829: a5 = -a5\n 11831: a3 = a5 - a3\n 11834: a2 = 0xef - a2\n 11838: u64 [s1 + 0x178] = a1\n 11842: a5 = a1 >u 0\n 11844: a1 = a0 >u 0\n 11846: a1 = a5 if a0 == 0\n 11849: a5 = a3 >u 0\n 11851: u64 [s1 + 0x168] = a2\n 11855: a2 = a2 <u 0x100\n 11859: a2 = a2 ^ 0x1\n 11862: a2 = a5 if a3 != 0\n 11865: a2 = a1 if a4 != 0\n 11868: a1 = t2 | t1\n 11871: a4 = t0 | ra\n 11874: a1 = a1 | a4\n 11877: a1 = a1 <u 0x1\n 11880: a1 = a1 | a2\n 11883: a4 = t2\n 11885: a4 = 0 if a1 != 0\n 11887: jump @473 if a1 == 0\n      : @472 (gas: 1)\n 11890: jump @958\n      : @473 (gas: 7)\n 11893: a1 = u64 [s1 + 0x168]\n 11897: a1 = a1 ^ 0xff\n 11901: a2 = u64 [s1 + 0x178]\n 11905: a1 = a1 | a2\n 11908: a2 = a3 | a0\n 11911: a1 = a1 | a2\n 11914: jump @475 if a1 != 0\n      : @474 (gas: 1)\n 11917: jump @958\n      : @475 (gas: 20)\n 11920: a4 = u64 [s1 + 0x168]\n 11924: a2 = a4 + 0x1\n 11927: u64 [s1 + 0x188] = a2\n 11931: a1 = a2 <u 0x1\n 11934: a1 = a1 + a3\n 11937: u64 [s1 + 0x180] = a1\n 11941: a1 = a1 | a2\n 11944: a1 = a1 <u 0x1\n 11947: a3 = u64 [s1 + 0x178]\n 11951: a1 = a1 + a3\n 11954: u64 [s1 + 0x170] = a1\n 11958: a1 = a1 <u a3\n 11961: a0 = a0 + a1\n 11964: u64 [s1 + 0x178] = a0\n 11968: a1 = 0xff - a4\n 11972: u64 [s1 + 0x140] = a1\n 11976: a2 = 0x80 - a1\n 11980: a0 = u64 [s1 + 0x190]\n 11984: a1 = u64 [s1 + 0x198]\n 11988: ra = 450, jump @1594\n      : @476 [@dyn 225] (gas: 6)\n 11994: u64 [s1 + 0x138] = a0\n 11998: u64 [s1 + 0x148] = a1\n 12002: a0 = u64 [s1 + 0x150]\n 12006: a1 = u64 [s1 + 0x158]\n 12010: a2 = u64 [s1 + 0x140]\n 12014: ra = 452, jump @1599\n      : @477 [@dyn 226] (gas: 7)\n 12020: u64 [s1 + 0x130] = a0\n 12024: u64 [s1 + 0x128] = a1\n 12028: a0 = u64 [s1 + 0x140]\n 12032: a2 = a0 + 0xffffffffffffff80\n 12035: a0 = u64 [s1 + 0x190]\n 12039: a1 = u64 [s1 + 0x198]\n 12043: ra = 454, jump @1599\n      : @478 [@dyn 227] (gas: 8)\n 12049: u64 [s1 + 0x120] = a0\n 12053: u64 [s1 + 0x110] = a1\n 12057: a2 = u64 [s1 + 0x140]\n 12061: a0 = a2 <u 0x80\n 12065: u64 [s1 + 0x108] = a0\n 12069: a0 = u64 [s1 + 0x190]\n 12073: a1 = u64 [s1 + 0x198]\n 12077: ra = 456, jump @1599\n      : @479 [@dyn 228] (gas: 13)\n 12083: a4 = s1 + 0x100\n 12087: u64 [a4 + 0x60] = a1\n 12090: a1 = u64 [a4 + 0x80]\n 12094: a2 = u64 [a4 + 0x78]\n 12097: a2 = a2 | a1\n 12100: a1 = u64 [a4 + 0x88]\n 12104: a3 = u64 [a4 + 0x70]\n 12107: a1 = a1 | a3\n 12110: a1 = a1 | a2\n 12113: a3 = u64 [a4 + 0x8]\n 12116: a0 = 0 if a3 == 0\n 12118: u64 [a4 + 0x68] = a0\n 12121: jump @481 if a1 != 0\n      : @480 (gas: 1)\n 12124: jump @956\n      : @481 (gas: 30)\n 12127: a2 = a3\n 12129: a0 = u64 [s1 + 0x148]\n 12133: a1 = u64 [s1 + 0x128]\n 12137: a0 = a0 | a1\n 12140: a5 = a3\n 12142: a1 = u64 [s1 + 0x110]\n 12146: a0 = a1 if a2 == 0\n 12149: a2 = u64 [s1 + 0x158]\n 12153: a3 = a2\n 12155: a1 = a2\n 12157: a2 = u64 [s1 + 0x140]\n 12161: a3 = a0 if a2 != 0\n 12164: u64 [s1 + 0x148] = a3\n 12168: a0 = u64 [s1 + 0x138]\n 12172: a3 = u64 [s1 + 0x130]\n 12176: a0 = a0 | a3\n 12179: a3 = u64 [s1 + 0x120]\n 12183: a0 = a3 if a5 == 0\n 12186: a4 = u64 [s1 + 0x150]\n 12190: a3 = a4\n 12192: a3 = a0 if a2 != 0\n 12195: u64 [s1 + 0x140] = a3\n 12199: a0 = u64 [s1 + 0x160]\n 12203: a0 = 0 if a5 == 0\n 12205: u64 [s1 + 0x160] = a0\n 12209: u64 [s1 + 304] = 0x15180\n 12216: a0 = u64 [s1 + 0x188]\n 12220: a2 = a0 + 0xffffffffffffff80\n 12223: a0 = a4\n 12225: ra = 458, jump @1594\n      : @482 [@dyn 229] (gas: 6)\n 12231: u64 [s1 + 0x138] = a0\n 12235: u64 [s1 + 0x120] = a1\n 12239: a0 = u64 [s1 + 0x190]\n 12243: a1 = u64 [s1 + 0x198]\n 12247: a2 = u64 [s1 + 0x188]\n 12251: ra = 460, jump @1594\n      : @483 [@dyn 230] (gas: 7)\n 12257: u64 [s1 + 0x110] = a0\n 12261: u64 [s1 + 0x128] = a1\n 12265: a1 = u64 [s1 + 0x188]\n 12269: a2 = 0x80 - a1\n 12273: a0 = u64 [s1 + 0x150]\n 12277: a1 = u64 [s1 + 0x158]\n 12281: ra = 462, jump @1599\n      : @484 [@dyn 231] (gas: 20)\n 12287: a2 = u64 [s1 + 0x128]\n 12291: a1 = a1 | a2\n 12294: a2 = u64 [s1 + 0x188]\n 12298: a3 = a2 <u 0x80\n 12302: u64 [s1 + 0x128] = a3\n 12306: a4 = u64 [s1 + 0x120]\n 12310: a1 = a4 if a3 == 0\n 12313: a4 = u64 [s1 + 0x198]\n 12317: a4 = a1 if a2 != 0\n 12320: u64 [s1 + 0x198] = a4\n 12324: a1 = u64 [s1 + 0x110]\n 12328: a0 = a0 | a1\n 12331: a1 = u64 [s1 + 0x138]\n 12335: a0 = a1 if a3 == 0\n 12338: a1 = u64 [s1 + 0x190]\n 12342: a1 = a0 if a2 != 0\n 12345: u64 [s1 + 0x190] = a1\n 12349: a0 = u64 [s1 + 0x150]\n 12353: a1 = u64 [s1 + 0x158]\n 12357: ra = 464, jump @1594\n      : @485 [@dyn 232] (gas: 16)\n 12363: t2 = u64 [s1 + 0x190]\n 12367: t1 = u64 [s1 + 0x198]\n 12371: u64 [s1 + 344] = 0\n 12375: u64 [s1 + 336] = 0\n 12379: a4 = s1 + 0x100\n 12383: a2 = u64 [a4 + 0x28]\n 12386: a1 = 0 if a2 == 0\n 12388: a0 = 0 if a2 == 0\n 12390: u64 [a4 + 0x38] = a0\n 12393: a3 = u64 [a4 + 0x30]\n 12396: a2 = a3 + 0xffffffffffffffff\n 12399: u64 [a4 + 0x28] = a2\n 12402: a2 = a3 >u 0\n 12404: a2 = a2 + 0xffffffffffffffff\n 12407: u64 [a4 + 0x20] = a2\n 12410: fallthrough\n      : @486 (gas: 89)\n 12411: a2 = t2 >> 0x3f\n 12414: a3 = t1 << 0x1\n 12417: a2 = a2 | a3\n 12420: a3 = t2 << 0x1\n 12423: t2 = u64 [s1 + 0x148]\n 12427: a4 = t2 >> 0x3f\n 12430: a3 = a3 | a4\n 12433: u64 [s1 + 0x198] = a3\n 12437: ra = u64 [s1 + 0x120]\n 12441: a0 = t1\n 12443: t1 = ra ^ a2\n 12446: t0 = ra <u a2\n 12449: a4 = u64 [s1 + 0x128]\n 12453: a5 = a4 <u a3\n 12456: a5 = t0 if t1 != 0\n 12459: a1 = a1 << 0x1\n 12462: a4 = u64 [s1 + 0x138]\n 12466: a3 = a4 >> 0x3f\n 12469: a1 = a1 | a3\n 12472: u64 [s1 + 0x190] = a1\n 12476: a3 = a0 >> 0x3f\n 12479: a0 = a4 << 0x1\n 12482: a3 = a3 | a0\n 12485: a0 = t2 << 0x1\n 12488: a4 = u64 [s1 + 0x140]\n 12492: a1 = a4 >> 0x3f\n 12495: t0 = a0 | a1\n 12498: a1 = a4 << 0x1\n 12501: a4 = u64 [s1 + 0x160]\n 12505: t1 = a4 >> 0x3f\n 12508: t1 = a1 | t1\n 12511: a1 = a4 << 0x1\n 12514: a4 = u64 [s1 + 0x168]\n 12518: t2 = a4 >> 0x3f\n 12521: a1 = a1 | t2\n 12524: a4 = a4 << 0x1\n 12527: a0 = u64 [s1 + 0x158]\n 12531: a4 = a4 | a0\n 12534: u64 [s1 + 0x168] = a4\n 12538: a0 = u64 [s1 + 0x150]\n 12542: a1 = a1 | a0\n 12545: u64 [s1 + 0x160] = a1\n 12549: a1 = a0 | t1\n 12552: u64 [s1 + 0x140] = a1\n 12556: a0 = a0 | t0\n 12559: u64 [s1 + 0x148] = a0\n 12563: a0 = ra - a3\n 12566: a0 = a0 <u a5\n 12569: a1 = ra <u a3\n 12572: a5 = u64 [s1 + 0x190]\n 12576: a4 = ra - a5\n 12579: a4 = a4 - a1\n 12582: a4 = a4 - a0\n 12585: ra = a4 >>a 0x3f\n 12588: a0 = u64 [s1 + 0x130]\n 12592: a0 = ra & a0\n 12595: a1 = u64 [s1 + 0x198]\n 12599: t2 = a1 - a0\n 12602: a1 = a1 <u a0\n 12605: t1 = a2 - a1\n 12608: a1 = 0 if a2 != 0\n 12610: a0 = a3 - a1\n 12613: u64 [s1 + 0x138] = a0\n 12617: a1 = a3 <u a1\n 12620: a1 = a5 - a1\n 12623: a0 = s1 + 0x100\n 12627: a3 = u64 [a0 + 0x88]\n 12631: a5 = u64 [a0 + 0x80]\n 12635: a2 = a3 | a5\n 12638: a2 = a2 <u 0x1\n 12641: a4 = u64 [a0 + 0x70]\n 12644: t0 = a4 <u a2\n 12647: a2 = a4 - a2\n 12650: a4 = a3 <u 0x1\n 12653: a5 = a5 - a4\n 12656: a4 = u64 [a0 + 0x78]\n 12659: a4 = a4 - t0\n 12662: a3 = a3 + 0xffffffffffffffff\n 12665: u64 [a0 + 0x80] = a5\n 12669: u64 [a0 + 0x78] = a4\n 12672: t0 = a5 | a4\n 12675: u64 [a0 + 0x88] = a3\n 12679: a4 = a3 | a2\n 12682: a3 = a4 | t0\n 12685: a4 = ra & 0x1\n 12688: u64 [a0 + 0x58] = a4\n 12691: u64 [a0 + 0x70] = a2\n 12694: u64 [s1 + 336] = 0\n 12698: jump @486 if a3 != 0\n      : @487 (gas: 1)\n 12702: jump @957\n      : @488 (gas: 9)\n 12705: u64 [a3 + 192] = 0\n 12709: u64 [a3 + 184] = 0\n 12713: u64 [a3 + 176] = 0\n 12717: u64 [a3 + 168] = 0\n 12721: a0 = s1 + 0x3000\n 12725: i32 a0 = a0 + 0x1e0\n 12729: ra = 0x1d2\n 12733: ecalli 16 // 'value_transferred'\n 12735: fallthrough\n      : @489 [@dyn 233] (gas: 9)\n 12736: a3 = s1 + 0x3138\n 12740: a0 = u64 [a3 + 0xb8]\n 12744: a1 = u64 [a3 + 0xc0]\n 12748: a2 = u64 [a3 + 0xb0]\n 12752: a3 = u64 [a3 + 0xa8]\n 12756: a1 = a1 | a2\n 12759: a0 = a0 | a3\n 12762: a0 = a0 | a1\n 12765: jump @491 if a0 == 0\n      : @490 (gas: 1)\n 12768: jump @916\n      : @491 (gas: 1)\n 12771: t0 = 468, jump @1567\n      : @492 [@dyn 234] (gas: 1)\n 12777: jump @494 if a1 <u a0\n      : @493 (gas: 1)\n 12780: jump @917\n      : @494 (gas: 5)\n 12783: a0 = s1 + 0x3000\n 12787: i32 a0 = a0 + 0x200\n 12791: a1 = 0x4\n 12794: ecalli 2 // 'call_data_load'\n 12796: fallthrough\n      : @495 (gas: 8)\n 12797: a5 = s1 + 0x3138\n 12801: a3 = u64 [a5 + 0xe0]\n 12805: a1 = u64 [a5 + 0xd8]\n 12809: a4 = u64 [a5 + 0xd0]\n 12813: a2 = a1 | a3\n 12816: a0 = a4 <u 0x1\n 12819: a0 = 0 if a2 != 0\n 12821: jump @497 if a0 != 0\n      : @496 (gas: 1)\n 12824: jump @918\n      : @497 (gas: 20)\n 12827: u64 [s1 + 0x98] = a2\n 12831: a5 = u64 [a5 + 0xc8]\n 12835: a0 = u64 [s1 + 0x198]\n 12839: t1 = u32 [a0]\n 12841: a0 = a5 + 0x23\n 12844: a2 = a0 <u a5\n 12847: t0 = a4 + a2\n 12850: u64 [s1 + 0xd0] = a4\n 12854: a4 = t0 <u a4\n 12857: a4 = a2 if a2 == 0\n 12860: a4 = a4 + a1\n 12863: u64 [s1 + 0x180] = a1\n 12867: a2 = a4 <u a1\n 12870: u64 [s1 + 0x188] = a3\n 12874: a2 = a2 + a3\n 12877: a2 = a2 | a4\n 12880: a0 = a0 <u t1\n 12883: a0 = 0 if t0 != 0\n 12885: a0 = 0 if a2 != 0\n 12887: jump @499 if a0 != 0\n      : @498 (gas: 1)\n 12890: jump @919\n      : @499 (gas: 6)\n 12893: i32 a1 = a5 + 0x4\n 12896: a0 = s1 + 0x3000\n 12900: i32 a0 = a0 + 0x220\n 12904: u64 [s1 + 0xc8] = a5\n 12908: ecalli 2 // 'call_data_load'\n 12910: fallthrough\n      : @500 (gas: 10)\n 12911: a3 = s1 + 0x3138\n 12915: t0 = u64 [a3 + 0x100]\n 12919: a0 = u64 [a3 + 0xf8]\n 12923: a2 = u64 [a3 + 0xf0]\n 12927: u64 [s1 + 0xe8] = a0\n 12931: a0 = a0 | t0\n 12934: a1 = a2 <u 0x1\n 12937: u64 [s1 + 0x190] = a0\n 12941: a1 = 0 if a0 != 0\n 12943: jump @502 if a1 != 0\n      : @501 (gas: 1)\n 12946: jump @920\n      : @502 (gas: 42)\n 12949: t2 = u64 [a3 + 0xe8]\n 12953: a1 = u64 [s1 + 0xc8]\n 12957: a0 = a1 + 0x24\n 12960: a3 = a0 <u a1\n 12963: ra = u64 [s1 + 0xd0]\n 12967: a4 = ra + a3\n 12970: t1 = a0 + t2\n 12973: u64 [s1 + 0x120] = a0\n 12977: a5 = t1 <u a0\n 12980: a1 = a4 + a2\n 12983: a1 = a1 + a5\n 12986: a0 = a1 ^ a4\n 12989: u64 [s1 + 0xe0] = a2\n 12993: a2 = a1 <u a4\n 12996: a2 = a5 if a0 == 0\n 12999: a0 = a4 <u ra\n 13002: a0 = a3 if a3 == 0\n 13005: a3 = u64 [s1 + 0x180]\n 13009: a0 = a0 + a3\n 13012: a3 = a0 <u a3\n 13015: a4 = u64 [s1 + 0x188]\n 13019: a4 = a4 + t0\n 13022: a3 = a3 + a4\n 13025: a5 = u64 [s1 + 0xe8]\n 13029: a4 = a0 + a5\n 13032: a0 = a4 <u a0\n 13035: a0 = a0 + a3\n 13038: a3 = u64 [s1 + 0x198]\n 13042: a3 = u32 [a3]\n 13044: a2 = a2 + a4\n 13047: a4 = a2 <u a4\n 13050: a0 = a0 + a4\n 13053: a3 = a3 <u t1\n 13056: a4 = a1 <u 0x1\n 13059: a3 = a3 ^ 0x1\n 13062: a3 = a4 if a1 != 0\n 13065: a1 = a0 <u 0x1\n 13068: a4 = a2 <u 0x1\n 13071: a4 = a1 if a0 != 0\n 13074: a0 = a0 | a2\n 13077: a3 = a4 if a0 != 0\n 13080: jump @504 if a3 != 0\n      : @503 (gas: 1)\n 13083: jump @921\n      : @504 (gas: 6)\n 13086: a0 = t2 <u 0x3\n 13089: a2 = u64 [s1 + 0xe0]\n 13093: a0 = 0 if a2 != 0\n 13095: a3 = u64 [s1 + 0x190]\n 13099: a0 = 0 if a3 != 0\n 13101: jump @506 if a0 == 0\n      : @505 (gas: 1)\n 13104: jump @922\n      : @506 (gas: 12)\n 13107: a4 = a5\n 13109: a0 = a2 >u 0\n 13111: u64 [s1 + 0xb8] = t2\n 13115: a1 = t2 <u 0x65\n 13118: a1 = a1 ^ 0x1\n 13121: a1 = a0 if a2 != 0\n 13124: a0 = a5 >u 0\n 13126: a2 = t0 >u 0\n 13128: u64 [s1 + 0xb0] = t0\n 13132: a2 = a0 if t0 == 0\n 13135: a2 = a1 if a3 == 0\n 13138: jump @508 if a2 == 0\n      : @507 (gas: 1)\n 13141: jump @926\n      : @508 (gas: 9)\n 13144: a0 = 0x30190\n 13149: u64 [s1 + 0xd8] = a0\n 13153: i32 a0 = a0 + 0\n 13155: u64 [s1 + 0xc0] = a0\n 13159: ra = 0x1d6\n 13163: ecalli 4 // 'caller'\n 13165: a2 = u64 [s1 + 0xd8]\n 13169: t0 = 0x1d8\n 13173: jump @1537\n      : @509 [@dyn 235] (gas: 2)\n 13176: a2 = u64 [s1 + 0xd8]\n 13180: t0 = 472, jump @1537\n      : @510 [@dyn 236] (gas: 7)\n 13186: u64 [a2 + 32] = 0\n 13189: u64 [a2 + 0x18] = a1\n 13192: u64 [a2 + 0x10] = a0\n 13195: a1 = s1 + 0x2940\n 13199: u64 [a2 + 0x8] = a3\n 13202: a0 = 0\n 13204: ra = 474, jump @24\n      : @511 [@dyn 237] (gas: 9)\n 13210: a1 = s1 + 0x2938\n 13214: u64 [a1 + 0] = 0\n 13216: u64 [a1 + 4294967288] = 0\n 13219: u64 [a1 + 4294967272] = 0x3\n 13223: a2 = a1\n 13225: a0 = 0x20\n 13228: a1 = s1 + 0x2920\n 13232: u64 [a2 + 4294967280] = 0\n 13235: ra = 476, jump @24\n      : @512 [@dyn 238] (gas: 1)\n 13241: t0 = 478, jump @1564\n      : @513 [@dyn 239] (gas: 3)\n 13247: a2 = 0x20180\n 13252: a0 = i32 [0x20180]\n 13257: jump @515 if a0 >u 63\n      : @514 (gas: 2)\n 13261: u32 [0x20180] = 0x40\n 13267: fallthrough\n      : @515 (gas: 15)\n 13268: u64 [s1 + 0xa8] = a2\n 13272: a0 = sp + 0xffffffffffffffe0\n 13275: a2 = a0 & 0xffffffffffffffe0\n 13278: u64 [s1 + 0x190] = a2\n 13282: sp = a2\n 13284: a0 = 0x20190\n 13289: i32 a0 = a0 + 0\n 13291: i32 a2 = a2 + 0\n 13293: a1 = 0x40\n 13296: u64 [s1 + 0xa0] = a0\n 13300: ra = 0x1e0\n 13304: ecalli 8 // 'hash_keccak_256'\n 13306: a3 = u64 [s1 + 0x190]\n 13310: t0 = 0x1e2\n 13314: jump @1526\n      : @516 [@dyn 240] (gas: 2)\n 13317: a3 = u64 [s1 + 0x190]\n 13321: t0 = 482, jump @1526\n      : @517 [@dyn 241] (gas: 7)\n 13327: a1 = u64 [s1 + 0x198]\n 13331: u64 [a1 + 0x18] = a3\n 13334: u64 [a1 + 0x10] = a2\n 13337: u64 [a1 + 0x8] = a4\n 13340: u64 [a1] = a0\n 13342: a0 = s1 + 0x2900\n 13346: ra = 484, jump @26\n      : @518 [@dyn 242] (gas: 9)\n 13352: a2 = s1 + 0x2118\n 13356: a0 = u32 [a2 + 0x7e8]\n 13360: u64 [a2 + 1984] = 0\n 13364: u64 [a2 + 1976] = 0\n 13368: u64 [a2 + 0x7a8] = a0\n 13372: a0 = s1 + 0x28e0\n 13376: a1 = s1 + 0x28c0\n 13380: u64 [a2 + 1968] = 0\n 13384: ra = 486, jump @1386\n      : @519 [@dyn 243] (gas: 13)\n 13390: a0 = s1 + 0x2118\n 13394: a2 = a0 + 0x700\n 13398: a1 = u64 [a2 + 0xe0]\n 13402: u64 [s1 + 0x108] = a1\n 13406: a1 = u64 [a2 + 0xd8]\n 13410: u64 [s1 + 0x100] = a1\n 13414: a1 = u64 [a2 + 0xd0]\n 13418: u64 [s1 + 0xf8] = a1\n 13422: a1 = u64 [a2 + 0xc8]\n 13426: u64 [s1 + 0xf0] = a1\n 13430: a0 = s1 + 0x28a0\n 13434: a1 = u64 [s1 + 0x198]\n 13438: ra = 488, jump @26\n      : @520 [@dyn 244] (gas: 24)\n 13444: a3 = s1 + 0x2118\n 13448: a0 = u32 [a3 + 0x78c]\n 13452: a0 = a0 << 0x20\n 13455: a4 = a3 + 0x700\n 13459: a1 = u64 [a4 + 0x90]\n 13463: a2 = u64 [a4 + 0x98]\n 13467: a3 = u64 [a4 + 0xa0]\n 13471: a4 = u64 [s1 + 0xf0]\n 13475: a0 = a0 | a4\n 13478: a4 = u64 [s1 + 0xf8]\n 13482: a1 = a1 | a4\n 13485: a4 = u64 [s1 + 0x100]\n 13489: a2 = a2 | a4\n 13492: a4 = u64 [s1 + 0x108]\n 13496: a3 = a3 | a4\n 13499: a4 = s1 + 0x3138\n 13503: a5 = a4 + 0x100\n 13507: u64 [a5 + 0x20] = a3\n 13510: u64 [a5 + 0x18] = a2\n 13513: u64 [a5 + 0x10] = a1\n 13516: u64 [a5 + 0x8] = a0\n 13519: a1 = s1 + 0x3240\n 13523: a0 = u64 [s1 + 0x198]\n 13527: ra = 490, jump @28\n      : @521 [@dyn 245] (gas: 4)\n 13533: a0 = s1 + 0x3000\n 13537: i32 a0 = a0 + 0x260\n 13541: ecalli 9 // 'now'\n 13543: fallthrough\n      : @522 (gas: 50)\n 13544: a0 = s1 + 0x3138\n 13548: t2 = u64 [a0 + 0x140]\n 13552: a3 = u64 [a0 + 0x138]\n 13556: u64 [s1 + 0x150] = a3\n 13560: t1 = u64 [a0 + 0x130]\n 13564: ra = u64 [a0 + 0x128]\n 13568: a0 = clz t2\n 13570: a1 = clz a3\n 13572: a2 = a1 + 0x40\n 13575: a2 = a0 if t2 != 0\n 13578: a0 = clz t1\n 13580: a1 = clz ra\n 13582: a1 = a1 + 0x40\n 13585: a1 = a0 if t1 != 0\n 13588: a0 = a1 + 0x80\n 13592: a3 = a3 | t2\n 13595: a2 = a0 if a3 == 0\n 13598: a5 = a0 <u a1\n 13601: a5 = 0 if a3 != 0\n 13603: a4 = a5 >u 0\n 13605: a0 = a2 <u 0xf0\n 13609: a3 = a0 ^ 0x1\n 13612: a4 = a3 if a5 == 0\n 13615: a0 = a4 <u 0x1\n 13618: a0 = a0 + 0xffffffffffffffff\n 13621: a1 = -a4\n 13623: a5 = -a5\n 13625: a3 = a5 - a3\n 13628: t0 = 0xef - a2\n 13632: u64 [s1 + 0x198] = a1\n 13636: a5 = a1 >u 0\n 13638: a1 = a0 >u 0\n 13640: a1 = a5 if a0 == 0\n 13643: a5 = t0 <u 0x100\n 13647: a5 = a5 ^ 0x1\n 13650: a2 = a3 >u 0\n 13652: a5 = a2 if a3 != 0\n 13655: a5 = a1 if a4 != 0\n 13658: u64 [s1 + 0x140] = t2\n 13662: a1 = t1 | t2\n 13665: t2 = t1\n 13667: t1 = u64 [s1 + 0x150]\n 13671: a2 = ra | t1\n 13674: a1 = a1 | a2\n 13677: a1 = a1 <u 0x1\n 13680: a1 = a1 | a5\n 13683: u64 [s1 + 0x158] = ra\n 13687: a4 = ra\n 13689: a4 = 0 if a1 != 0\n 13691: jump @524 if a1 == 0\n      : @523 (gas: 1)\n 13694: jump @695\n      : @524 (gas: 6)\n 13697: a1 = t0 ^ 0xff\n 13701: a5 = u64 [s1 + 0x198]\n 13705: a1 = a1 | a5\n 13708: a2 = a3 | a0\n 13711: a1 = a1 | a2\n 13714: jump @526 if a1 != 0\n      : @525 (gas: 1)\n 13717: jump @695\n      : @526 (gas: 19)\n 13720: a2 = t0 + 0x1\n 13723: u64 [s1 + 0x190] = a2\n 13727: a1 = a2 <u 0x1\n 13730: a1 = a1 + a3\n 13733: u64 [s1 + 0x180] = a1\n 13737: a1 = a1 | a2\n 13740: a1 = a1 <u 0x1\n 13743: a1 = a1 + a5\n 13746: u64 [s1 + 0x170] = a1\n 13750: a1 = a1 <u a5\n 13753: a0 = a0 + a1\n 13756: u64 [s1 + 0x178] = a0\n 13760: a1 = 0xff - t0\n 13764: u64 [s1 + 0x168] = a1\n 13768: a2 = 0x80 - a1\n 13772: a0 = u64 [s1 + 0x158]\n 13776: a1 = t2\n 13778: u64 [s1 + 0x148] = t2\n 13782: ra = 492, jump @1594\n      : @527 [@dyn 246] (gas: 1)\n 13788: t0 = 494, jump @1582\n      : @528 [@dyn 247] (gas: 1)\n 13794: ra = 496, jump @1599\n      : @529 [@dyn 248] (gas: 7)\n 13800: u64 [s1 + 0x130] = a0\n 13804: u64 [s1 + 0x128] = a1\n 13808: a0 = u64 [s1 + 0x168]\n 13812: a2 = a0 + 0xffffffffffffff80\n 13815: a0 = u64 [s1 + 0x158]\n 13819: a1 = u64 [s1 + 0x148]\n 13823: ra = 498, jump @1599\n      : @530 [@dyn 249] (gas: 1)\n 13829: t0 = 500, jump @1593\n      : @531 [@dyn 250] (gas: 3)\n 13835: a0 = u64 [s1 + 0x158]\n 13839: a1 = u64 [s1 + 0x148]\n 13843: ra = 502, jump @1599\n      : @532 [@dyn 251] (gas: 11)\n 13849: a4 = u64 [s1 + 0x138]\n 13853: t0 = u64 [s1 + 0x170]\n 13857: a5 = u64 [s1 + 0x178]\n 13861: a2 = u64 [s1 + 0x180]\n 13865: a5 = a5 | a2\n 13868: a3 = u64 [s1 + 0x190]\n 13872: a3 = a3 | t0\n 13875: a3 = a3 | a5\n 13878: a0 = 0 if a4 == 0\n 13880: u64 [s1 + 0x188] = a0\n 13884: jump @534 if a3 == 0\n      : @533 (gas: 1)\n 13887: jump @682\n      : @534 (gas: 2)\n 13890: a4 = 0\n 13892: jump @694\n      : @535 (gas: 3)\n 13895: a0 = u64 [s1 + 0x198]\n 13899: a0 = i32 [a0]\n 13901: jump @537 if a0 >u 3\n      : @536 (gas: 1)\n 13905: jump @930\n      : @537 (gas: 9)\n 13908: u64 [a3 + 736] = 0\n 13912: u64 [a3 + 728] = 0\n 13916: u64 [a3 + 720] = 0\n 13920: u64 [a3 + 712] = 0\n 13924: a0 = s1 + 0x3000\n 13928: i32 a0 = a0 + 0x400\n 13932: ra = 0x1f8\n 13936: ecalli 16 // 'value_transferred'\n 13938: fallthrough\n      : @538 [@dyn 252] (gas: 3)\n 13939: a3 = s1 + 0x3138\n 13943: a4 = a3 + 0x200\n 13947: t0 = 506, jump @1585\n      : @539 [@dyn 253] (gas: 1)\n 13953: jump @541 if a0 != 0\n      : @540 (gas: 1)\n 13956: jump @931\n      : @541 (gas: 9)\n 13959: a0 = 0x30190\n 13964: u64 [s1 + 0x190] = a0\n 13968: i32 a0 = a0 + 0\n 13970: u64 [s1 + 0x168] = a0\n 13974: ra = 0x1fc\n 13978: ecalli 4 // 'caller'\n 13980: a2 = u64 [s1 + 0x190]\n 13984: t0 = 0x1fe\n 13988: jump @1537\n      : @542 [@dyn 254] (gas: 2)\n 13991: a2 = u64 [s1 + 0x190]\n 13995: t0 = 510, jump @1537\n      : @543 [@dyn 255] (gas: 8)\n 14001: u64 [a2 + 480] = 0\n 14005: a4 = a2 + 0x100\n 14009: u64 [a4 + 0xd8] = a1\n 14013: u64 [a4 + 0xd0] = a0\n 14017: a1 = s1 + 0x2b00\n 14021: u64 [a4 + 0xc8] = a3\n 14025: a0 = 0\n 14027: ra = 512, jump @24\n      : @544 [@dyn 256] (gas: 9)\n 14033: a1 = s1 + 0x2938\n 14037: u64 [a1 + 448] = 0\n 14041: u64 [a1 + 440] = 0\n 14045: u64 [a1 + 424] = 0x1\n 14050: a2 = a1\n 14052: a0 = 0x20\n 14055: a1 = s1 + 0x2ae0\n 14059: u64 [a2 + 432] = 0\n 14063: ra = 514, jump @24\n      : @545 [@dyn 257] (gas: 1)\n 14069: t0 = 516, jump @1564\n      : @546 [@dyn 258] (gas: 2)\n 14075: a1 = i32 [0x20180]\n 14080: jump @548 if a1 >u 63\n      : @547 (gas: 2)\n 14084: u32 [0x20180] = 0x40\n 14090: fallthrough\n      : @548 (gas: 14)\n 14091: a0 = sp + 0xffffffffffffffe0\n 14094: a2 = a0 & 0xffffffffffffffe0\n 14097: u64 [s1 + 0x188] = a2\n 14101: sp = a2\n 14103: a0 = 0x20190\n 14108: i32 a0 = a0 + 0\n 14110: i32 a2 = a2 + 0\n 14112: a1 = 0x40\n 14115: u64 [s1 + 0x160] = a0\n 14119: ra = 0x206\n 14123: ecalli 8 // 'hash_keccak_256'\n 14125: a3 = u64 [s1 + 0x188]\n 14129: t0 = 0x208\n 14133: jump @1548\n      : @549 [@dyn 259] (gas: 2)\n 14136: a3 = u64 [s1 + 0x188]\n 14140: t0 = 520, jump @1548\n      : @550 [@dyn 260] (gas: 21)\n 14146: a0 = s1 + 0x3138\n 14150: u64 [a0 + 768] = 0\n 14154: u64 [a0 + 760] = 0\n 14158: u64 [a0 + 752] = 0\n 14162: u64 [a0 + 744] = 0\n 14166: a0 = s1 + 0x3000\n 14170: i32 a0 = a0 + 0x420\n 14174: ecalli 16 // 'value_transferred'\n 14176: a0 = s1 + 0x3138\n 14180: a2 = a0 + 0x200\n 14184: a1 = u64 [a2 + 0xe8]\n 14188: u64 [s1 + 0x188] = a1\n 14192: a1 = u64 [a2 + 0xf0]\n 14196: u64 [s1 + 0x180] = a1\n 14200: a1 = u64 [a2 + 0xf8]\n 14204: u64 [s1 + 0x178] = a1\n 14208: a0 = u64 [a0 + 0x300]\n 14212: u64 [s1 + 0x170] = a0\n 14216: a0 = s1 + 0x2ac0\n 14220: a1 = u64 [s1 + 0x198]\n 14224: ra = 522, jump @26\n      : @551 [@dyn 261] (gas: 22)\n 14230: a4 = s1 + 0x2938\n 14234: a3 = u64 [a4 + 0x188]\n 14238: a0 = u64 [a4 + 0x190]\n 14242: a1 = u64 [a4 + 0x198]\n 14246: a2 = u64 [a4 + 0x1a0]\n 14250: a5 = u64 [s1 + 0x170]\n 14254: u64 [a4 + 0x140] = a5\n 14258: a5 = u64 [s1 + 0x178]\n 14262: u64 [a4 + 0x138] = a5\n 14266: a5 = u64 [s1 + 0x180]\n 14270: u64 [a4 + 0x130] = a5\n 14274: a5 = u64 [s1 + 0x188]\n 14278: u64 [a4 + 0x128] = a5\n 14282: a5 = a4 + 0x100\n 14286: u64 [a5 + 0x60] = a2\n 14289: u64 [a5 + 0x58] = a1\n 14292: u64 [a5 + 0x50] = a0\n 14295: a0 = s1 + 0x2aa0\n 14299: a1 = s1 + 0x2a80\n 14303: a2 = s1 + 0x2a60\n 14307: u64 [a5 + 0x48] = a3\n 14310: ra = 524, jump @1394\n      : @552 [@dyn 262] (gas: 15)\n 14316: a3 = s1 + 0x2938\n 14320: a4 = a3 + 0x100\n 14324: a0 = u64 [a4 + 0x80]\n 14328: a1 = u64 [a4 + 0x78]\n 14331: a2 = u64 [a4 + 0x70]\n 14334: a3 = u64 [a4 + 0x68]\n 14337: a4 = s1 + 0x3138\n 14341: a5 = a4 + 0x300\n 14345: u64 [a5 + 0x20] = a0\n 14348: u64 [a5 + 0x18] = a1\n 14351: u64 [a5 + 0x10] = a2\n 14354: u64 [a5 + 0x8] = a3\n 14357: a1 = s1 + 0x3440\n 14361: a0 = u64 [s1 + 0x198]\n 14365: ra = 526, jump @28\n      : @553 [@dyn 263] (gas: 3)\n 14371: a0 = s1 + 0x2a40\n 14375: a1 = 0x40\n 14378: ra = 528, jump @22\n      : @554 [@dyn 264] (gas: 20)\n 14384: a0 = s1 + 0x2938\n 14388: a2 = a0 + 0x100\n 14392: a1 = u64 [a2 + 0x20]\n 14395: u64 [s1 + 0x188] = a1\n 14399: a1 = u64 [a2 + 0x18]\n 14402: u64 [s1 + 0x180] = a1\n 14406: a1 = u64 [a2 + 0x10]\n 14409: u64 [s1 + 0x178] = a1\n 14413: a0 = u64 [a2 + 0x8]\n 14416: u64 [s1 + 0x198] = a0\n 14420: a0 = s1 + 0x3138\n 14424: u64 [a0 + 832] = 0\n 14428: u64 [a0 + 824] = 0\n 14432: u64 [a0 + 816] = 0\n 14436: u64 [a0 + 808] = 0\n 14440: a0 = s1 + 0x3000\n 14444: i32 a0 = a0 + 0x460\n 14448: ra = 0x212\n 14452: ecalli 16 // 'value_transferred'\n 14454: fallthrough\n      : @555 [@dyn 265] (gas: 8)\n 14455: a3 = s1 + 0x100\n 14459: a0 = u64 [a3 + 0x88]\n 14463: a1 = u64 [a3 + 0x78]\n 14466: a0 = a0 | a1\n 14469: a1 = u64 [a3 + 0x98]\n 14473: a5 = a1\n 14475: a2 = u64 [a3 + 0x80]\n 14479: t0 = 532, jump @1589\n      : @556 [@dyn 266] (gas: 1)\n 14485: jump @558 if a0 == 0\n      : @557 (gas: 1)\n 14488: jump @854\n      : @558 (gas: 14)\n 14491: a3 = s1 + 0x3138\n 14495: a4 = a3 + 0x300\n 14499: a0 = u64 [a4 + 0x28]\n 14502: a1 = u64 [a4 + 0x30]\n 14505: a2 = u64 [a4 + 0x38]\n 14508: a3 = u64 [a4 + 0x40]\n 14511: a4 = s1 + 0x2938\n 14515: u64 [a4 + 0x100] = a3\n 14519: u64 [a4 + 0xf8] = a2\n 14523: u64 [a4 + 0xf0] = a1\n 14527: a1 = s1 + 0x2a20\n 14531: u64 [a4 + 0xe8] = a0\n 14535: a0 = a5\n 14537: ra = 534, jump @24\n      : @559 [@dyn 267] (gas: 6)\n 14543: a0 = u64 [s1 + 0x168]\n 14547: ra = 0x218\n 14551: ecalli 4 // 'caller'\n 14553: a2 = u64 [s1 + 0x190]\n 14557: t0 = 0x21a\n 14561: jump @1519\n      : @560 [@dyn 268] (gas: 2)\n 14564: a2 = u64 [s1 + 0x190]\n 14568: t0 = 538, jump @1519\n      : @561 [@dyn 269] (gas: 24)\n 14574: t0 = a1 | a0\n 14577: a3 = a3 >> 0x20\n 14580: a2 = reverse a2\n 14582: a1 = a2 << 0x20\n 14585: a1 = a1 | a3\n 14588: a2 = a2 >> 0x20\n 14591: a3 = u64 [0x20000]\n 14596: a0 = s1 + 0x2938\n 14600: u64 [a0 + 0xe0] = a3\n 14604: a3 = u64 [0x20008]\n 14609: a4 = u64 [0x20010]\n 14614: a5 = u64 [0x20018]\n 14619: u64 [a0 + 0xd8] = a3\n 14623: u64 [a0 + 0xd0] = a4\n 14627: u64 [a0 + 192] = 0\n 14631: u64 [a0 + 0xc8] = a5\n 14635: u64 [a0 + 0xb8] = a2\n 14639: u64 [a0 + 0xb0] = a1\n 14643: a1 = 0x20\n 14646: a2 = s1 + 0x2a00\n 14650: a3 = s1 + 0x29e0\n 14654: u64 [a0 + 0xa8] = t0\n 14658: a0 = u64 [s1 + 0x198]\n 14662: ra = 540, jump @29\n      : @562 [@dyn 270] (gas: 7)\n 14668: a0 = 0\n 14670: a1 = u64 [s1 + 0x160]\n 14674: a2 = 0\n 14676: ra = 0x418\n 14680: ecalli 13 // 'seal_return'\n 14682: t0 = 0x41a\n 14686: jump @1567\n      : @563 (gas: 25)\n 14689: u64 [s1 + 0xb8] = t0\n 14693: a0 = a0 <u a1\n 14696: a1 = u64 [s1 + 0x100]\n 14700: a2 = a1 + a0\n 14703: u64 [s1 + 0x128] = a2\n 14707: a1 = a2 <u a1\n 14710: a1 = a0 if a0 == 0\n 14713: a1 = a1 + a5\n 14716: u64 [s1 + 0x120] = a1\n 14720: a0 = a1 <u a5\n 14723: u64 [s1 + 0x188] = a0\n 14727: a0 = s1 + 0x1118\n 14731: a1 = u64 [s1 + 0x178]\n 14735: a2 = a0 + 0x700\n 14739: u64 [a2 + 0xe8] = a1\n 14743: a1 = u64 [s1 + 0x170]\n 14747: u64 [a2 + 0xf0] = a1\n 14751: a1 = u64 [s1 + 0x168]\n 14755: u64 [a2 + 0xf8] = a1\n 14759: a1 = s1 + 0x1900\n 14763: a0 = s1 + 0x1918\n 14767: a2 = u64 [s1 + 0x180]\n 14771: u64 [a0] = a2\n 14773: a0 = 0\n 14775: ra = 542, jump @24\n      : @564 [@dyn 271] (gas: 7)\n 14781: a0 = sp + 0xffffffffffffffe0\n 14784: a0 = a0 & 0xffffffffffffffe0\n 14787: u64 [s1 + 0x130] = a0\n 14791: sp = a0\n 14793: a2 = u64 [s1 + 0x198]\n 14797: a0 = i32 [a2]\n 14799: jump @566 if a0 >u 31\n      : @565 (gas: 2)\n 14803: u32 [a2 + 0] = 0x20\n 14806: fallthrough\n      : @566 (gas: 35)\n 14807: a0 = u64 [s1 + 0x110]\n 14811: a1 = u64 [s1 + 0x188]\n 14815: a0 = a0 + a1\n 14818: u64 [s1 + 0x118] = a0\n 14822: a0 = sp + 0xffffffffffffffe0\n 14825: a0 = a0 & 0xffffffffffffffe0\n 14828: u64 [s1 + 0x188] = a0\n 14832: sp = a0\n 14834: i32 a2 = a0 + 0\n 14836: a1 = 0x20\n 14839: a0 = u64 [s1 + 0x190]\n 14843: ecalli 8 // 'hash_keccak_256'\n 14845: u64 [s1 + 408] = 0\n 14849: t2 = 0\n 14851: t1 = 0\n 14853: u64 [s1 + 400] = 0\n 14857: a3 = u64 [s1 + 0x188]\n 14861: a0 = u64 [a3 + 0x18]\n 14864: a1 = u64 [a3 + 0x10]\n 14867: a2 = u64 [a3 + 0x8]\n 14870: a3 = u64 [a3]\n 14872: a0 = reverse a0\n 14874: a4 = reverse a1\n 14876: a5 = reverse a2\n 14878: a2 = reverse a3\n 14880: a1 = u64 [s1 + 0x130]\n 14884: a3 = a2\n 14886: u64 [a1 + 0x18] = a2\n 14889: u64 [s1 + 0x160] = a5\n 14893: u64 [a1 + 0x10] = a5\n 14896: ra = a4\n 14898: u64 [a1 + 0x8] = a4\n 14901: a2 = a0\n 14903: u64 [a1] = a0\n 14905: fallthrough\n      : @567 (gas: 22)\n 14906: a4 = s1 + 0x100\n 14910: u64 [a4 + 0x68] = a3\n 14913: u64 [s1 + 0x170] = ra\n 14917: u64 [a4 + 0x78] = a2\n 14920: a0 = u64 [a4 + 0x40]\n 14923: a2 = u64 [a4 + 0x98]\n 14927: a0 = a2 <u a0\n 14930: a2 = u64 [a4 + 0x50]\n 14933: a3 = t2 ^ a2\n 14936: a2 = t2 <u a2\n 14939: a2 = a0 if a3 == 0\n 14942: a0 = u64 [a4 + 0x48]\n 14945: t0 = t1 <u a0\n 14948: a3 = u64 [a4 + 0x58]\n 14951: a5 = u64 [a4 + 0x90]\n 14955: a4 = a5 ^ a3\n 14958: a3 = a5 <u a3\n 14961: a3 = t0 if a4 == 0\n 14964: a0 = t1 ^ a0\n 14967: a0 = a0 | a4\n 14970: a3 = a2 if a0 == 0\n 14973: jump @569 if a3 != 0\n      : @568 (gas: 1)\n 14976: jump @762\n      : @569 (gas: 4)\n 14979: a0 = s1 + 0x18e0\n 14983: u64 [s1 + 0x188] = t1\n 14987: u64 [s1 + 0x180] = t2\n 14991: ra = 544, jump @26\n      : @570 [@dyn 272] (gas: 30)\n 14997: ra = u64 [s1 + 0x198]\n 15001: t2 = u64 [s1 + 0x180]\n 15005: t1 = u64 [s1 + 0x188]\n 15009: a1 = u64 [s1 + 0x138]\n 15013: a0 = a1 + ra\n 15016: a1 = a0 <u a1\n 15019: a4 = u64 [s1 + 0x128]\n 15023: a2 = a4 + t2\n 15026: a2 = a2 + a1\n 15029: a3 = a2 ^ a4\n 15032: a4 = a2 <u a4\n 15035: a4 = a1 if a3 == 0\n 15038: a3 = u64 [s1 + 0x120]\n 15042: a1 = a3 + t1\n 15045: t0 = a1 <u a3\n 15048: a5 = u64 [s1 + 0x118]\n 15052: a3 = u64 [s1 + 0x190]\n 15056: a5 = a5 + a3\n 15059: a3 = a5 + t0\n 15062: a4 = a4 + a1\n 15065: a1 = a4 <u a1\n 15068: a1 = a1 + a3\n 15071: a1 = a1 | a2\n 15074: a2 = a0 | a4\n 15077: a2 = a2 | a1\n 15080: a1 = a1 | a4\n 15083: a2 = a2 >> 0x20\n 15086: a1 = a1 << 0x20\n 15089: a1 = a1 | a2\n 15092: jump @572 if a1 == 0\n      : @571 (gas: 1)\n 15095: jump @854\n      : @572 (gas: 13)\n 15098: a5 = s1 + 0x1118\n 15102: a2 = u64 [a5 + 0x7e0]\n 15106: a1 = u64 [a5 + 0x7d8]\n 15110: a3 = u64 [a5 + 0x7d0]\n 15114: a4 = u64 [a5 + 0x7c8]\n 15118: u64 [a5 + 0x7a8] = a4\n 15122: a4 = a5 + 0x700\n 15126: u64 [a4 + 0xb0] = a3\n 15130: u64 [a4 + 0xb8] = a1\n 15134: a1 = s1 + 0x18c0\n 15138: u64 [a4 + 0xc0] = a2\n 15142: u64 [s1 + 0x198] = ra\n 15146: ra = 546, jump @24\n      : @573 [@dyn 273] (gas: 38)\n 15152: a5 = u64 [s1 + 0x178]\n 15156: a5 = a5 + 0x1\n 15159: a0 = a5 <u 0x1\n 15162: a3 = u64 [s1 + 0x170]\n 15166: a3 = a3 + a0\n 15169: a0 = a5 | a3\n 15172: a0 = a0 <u 0x1\n 15175: a1 = u64 [s1 + 0x160]\n 15179: t2 = a1 + a0\n 15182: a1 = t2 <u a1\n 15185: a0 = u64 [s1 + 0x168]\n 15189: a0 = a0 + a1\n 15192: a1 = u64 [s1 + 0x198]\n 15196: t1 = a1 + 0x20\n 15199: a2 = t1 <u a1\n 15202: a1 = u64 [s1 + 0x180]\n 15206: t0 = a1 + a2\n 15209: a4 = t0 <u a1\n 15212: a4 = a2 if a2 == 0\n 15215: a1 = u64 [s1 + 0x188]\n 15219: a4 = a4 + a1\n 15222: a2 = a4 <u a1\n 15225: a1 = u64 [s1 + 0x190]\n 15229: a1 = a1 + a2\n 15232: u64 [s1 + 0x190] = a1\n 15236: ra = a3\n 15238: a1 = u64 [s1 + 0x130]\n 15242: u64 [a1 + 0x8] = a3\n 15245: a2 = a5\n 15247: u64 [a1] = a5\n 15249: u64 [a1 + 0x10] = t2\n 15252: a3 = a0\n 15254: u64 [a1 + 0x18] = a0\n 15257: u64 [s1 + 0x160] = t2\n 15261: u64 [s1 + 0x198] = t1\n 15265: t2 = t0\n 15267: t1 = a4\n 15269: jump @567\n      : @574 (gas: 1)\n 15272: t0 = 548, jump @1568\n      : @575 [@dyn 274] (gas: 12)\n 15278: t0 = u64 [s1 + 0x168]\n 15282: a3 = a0 if t0 != 0\n 15285: u64 [s1 + 0x198] = a3\n 15289: a0 = u64 [s1 + 0x160]\n 15293: a2 = u64 [s1 + 0x130]\n 15297: a0 = a0 | a2\n 15300: a2 = u64 [s1 + 0x118]\n 15304: a0 = a2 if a4 == 0\n 15307: a5 = u64 [s1 + 0x150]\n 15311: a3 = a5\n 15313: a3 = a0 if t0 != 0\n 15316: t0 = 550, jump @1550\n      : @576 [@dyn 275] (gas: 1)\n 15322: ra = 552, jump @1594\n      : @577 [@dyn 276] (gas: 6)\n 15328: u64 [s1 + 0x130] = a0\n 15332: u64 [s1 + 0x118] = a1\n 15336: a0 = u64 [s1 + 0x148]\n 15340: a1 = u64 [s1 + 0x158]\n 15344: a2 = u64 [s1 + 0x190]\n 15348: ra = 554, jump @1594\n      : @578 [@dyn 277] (gas: 1)\n 15354: t0 = 556, jump @1555\n      : @579 [@dyn 278] (gas: 1)\n 15360: ra = 558, jump @1599\n      : @580 [@dyn 279] (gas: 1)\n 15366: t0 = 560, jump @1559\n      : @581 [@dyn 280] (gas: 14)\n 15372: a2 = u64 [s1 + 0x158]\n 15376: a2 = a1 if a3 != 0\n 15379: u64 [s1 + 0x158] = a2\n 15383: a1 = u64 [s1 + 0x110]\n 15387: a0 = a0 | a1\n 15390: a1 = u64 [s1 + 0x130]\n 15394: a0 = a1 if a4 == 0\n 15397: a1 = u64 [s1 + 0x148]\n 15401: a1 = a0 if a3 != 0\n 15404: a2 = a3\n 15406: u64 [s1 + 0x148] = a1\n 15410: a0 = u64 [s1 + 0x150]\n 15414: a1 = u64 [s1 + 0x140]\n 15418: ra = 562, jump @1594\n      : @582 [@dyn 281] (gas: 1)\n 15424: t0 = 564, jump @1543\n      : @583 [@dyn 282] (gas: 3)\n 15430: t1 = u64 [s1 + 0x158]\n 15434: t2 = u64 [s1 + 0x148]\n 15438: fallthrough\n      : @584 (gas: 68)\n 15439: u64 [s1 + 0x158] = a4\n 15443: a2 = t2 >> 0x3f\n 15446: a3 = t1 << 0x1\n 15449: t0 = a3 | a2\n 15452: a3 = t2 << 0x1\n 15455: a4 = u64 [s1 + 0x198]\n 15459: a4 = a4 >> 0x3f\n 15462: a3 = a3 | a4\n 15465: u64 [s1 + 0x148] = a3\n 15469: a2 = u64 [s1 + 0x128]\n 15473: t2 = a1\n 15475: u64 [s1 + 0x150] = t0\n 15479: a1 = a2 ^ t0\n 15482: ra = t1\n 15484: t1 = a2 <u t0\n 15487: a4 = u64 [s1 + 0x130]\n 15491: t0 = a4 <u a3\n 15494: t0 = t1 if a1 != 0\n 15497: a1 = t2 << 0x1\n 15500: a3 = a0 >> 0x3f\n 15503: a1 = a1 | a3\n 15506: u64 [s1 + 0x140] = a1\n 15510: a3 = ra >> 0x3f\n 15513: a0 = a0 << 0x1\n 15516: a3 = a3 | a0\n 15519: a0 = u64 [s1 + 0x198]\n 15523: a0 = a0 << 0x1\n 15526: a4 = u64 [s1 + 0x160]\n 15530: a1 = a4 >> 0x3f\n 15533: ra = a0 | a1\n 15536: a1 = a4 << 0x1\n 15539: a4 = u64 [s1 + 0x168]\n 15543: t1 = a4 >> 0x3f\n 15546: t1 = a1 | t1\n 15549: a1 = a4 << 0x1\n 15552: a4 = u64 [s1 + 0x188]\n 15556: t2 = a4 >> 0x3f\n 15559: a1 = a1 | t2\n 15562: a4 = a4 << 0x1\n 15565: a0 = u64 [s1 + 0x158]\n 15569: a4 = a4 | a0\n 15572: u64 [s1 + 0x188] = a4\n 15576: a1 = a1 | a5\n 15579: u64 [s1 + 0x168] = a1\n 15583: a1 = a5 | t1\n 15586: u64 [s1 + 0x160] = a1\n 15590: a0 = a5 | ra\n 15593: u64 [s1 + 0x198] = a0\n 15597: a0 = a2 - a3\n 15600: a0 = a0 <u t0\n 15603: a1 = a2 <u a3\n 15606: t0 = u64 [s1 + 0x140]\n 15610: a4 = a2 - t0\n 15613: a4 = a4 - a1\n 15616: a4 = a4 - a0\n 15619: a5 = a4 >>a 0x3f\n 15622: a0 = u64 [s1 + 0x138]\n 15626: a0 = a0 & a5\n 15629: a1 = u64 [s1 + 0x148]\n 15633: t2 = a1 - a0\n 15636: a1 = a1 <u a0\n 15639: a0 = u64 [s1 + 0x150]\n 15643: t1 = a0 - a1\n 15646: a1 = 0 if a0 != 0\n 15648: a0 = a3 - a1\n 15651: a1 = a3 <u a1\n 15654: a1 = t0 - a1\n 15657: t0 = 566, jump @1592\n      : @585 [@dyn 283] (gas: 17)\n 15663: t0 = a4 <u a2\n 15666: a2 = a4 - a2\n 15669: a4 = a3 <u 0x1\n 15672: ra = ra - a4\n 15675: a4 = u64 [s1 + 0x178]\n 15679: a4 = a4 - t0\n 15682: a3 = a3 + 0xffffffffffffffff\n 15685: u64 [s1 + 0x180] = ra\n 15689: u64 [s1 + 0x178] = a4\n 15693: t0 = ra | a4\n 15696: u64 [s1 + 0x190] = a3\n 15700: a4 = a3 | a2\n 15703: a3 = a4 | t0\n 15706: a4 = a5 & 0x1\n 15709: u64 [s1 + 0x170] = a2\n 15713: a5 = 0\n 15715: jump @584 if a3 != 0\n      : @586 (gas: 4)\n 15719: a0 = u64 [s1 + 0x188]\n 15723: a0 = a0 << 0x1\n 15726: a4 = a4 | a0\n 15729: fallthrough\n      : @587 (gas: 3)\n 15730: a0 = a4 & 0xffffffffffffffff\n 15733: a1 = u64 [s1 + 0x120]\n 15737: jump @589 if a1 == a0\n      : @588 (gas: 1)\n 15740: jump @935\n      : @589 (gas: 9)\n 15743: a0 = 0x30190\n 15748: u64 [s1 + 0x140] = a0\n 15752: i32 a0 = a0 + 0\n 15754: u64 [s1 + 0x138] = a0\n 15758: ra = 0x238\n 15762: ecalli 4 // 'caller'\n 15764: a2 = u64 [s1 + 0x140]\n 15768: t0 = 0x23a\n 15772: jump @1516\n      : @590 [@dyn 284] (gas: 2)\n 15775: a2 = u64 [s1 + 0x140]\n 15779: t0 = 570, jump @1516\n      : @591 [@dyn 285] (gas: 8)\n 15785: u64 [a2 + 416] = 0\n 15789: a4 = a2 + 0x100\n 15793: u64 [a4 + 0x98] = a1\n 15797: u64 [a4 + 0x90] = a0\n 15801: a1 = s1 + 0x12a0\n 15805: u64 [a4 + 0x88] = a3\n 15809: a0 = 0\n 15811: ra = 572, jump @24\n      : @592 [@dyn 286] (gas: 9)\n 15817: a1 = s1 + 0x1118\n 15821: u64 [a1 + 384] = 0\n 15825: u64 [a1 + 376] = 0\n 15829: u64 [a1 + 360] = 0x1\n 15834: a2 = a1\n 15836: a0 = 0x20\n 15839: a1 = s1 + 0x1280\n 15843: u64 [a2 + 368] = 0\n 15847: ra = 574, jump @24\n      : @593 [@dyn 287] (gas: 7)\n 15853: a0 = sp + 0xffffffffffffffe0\n 15856: a0 = a0 & 0xffffffffffffffe0\n 15859: u64 [s1 + 0x118] = a0\n 15863: sp = a0\n 15865: a1 = 0x20180\n 15870: a0 = i32 [0x20180]\n 15875: jump @595 if a0 >u 63\n      : @594 (gas: 3)\n 15879: u32 [0x20180] = 0x40\n 15885: t0 = 0x240\n 15889: jump @1552\n      : @595 (gas: 1)\n 15892: t0 = 576, jump @1552\n      : @596 [@dyn 288] (gas: 31)\n 15898: a0 = 0x20190\n 15903: i32 a0 = a0 + 0\n 15905: i32 a2 = a2 + 0\n 15907: u64 [s1 + 0x170] = a1\n 15911: a1 = 0x40\n 15914: u64 [s1 + 0x178] = a0\n 15918: ecalli 8 // 'hash_keccak_256'\n 15920: a3 = u64 [s1 + 0x198]\n 15924: a0 = u64 [a3 + 0x18]\n 15927: a1 = u64 [a3 + 0x10]\n 15930: a2 = u64 [a3 + 0x8]\n 15933: a3 = u64 [a3]\n 15935: a5 = reverse a0\n 15937: a4 = reverse a1\n 15939: a1 = reverse a2\n 15941: a2 = reverse a3\n 15943: a0 = u64 [s1 + 0x118]\n 15947: u64 [s1 + 0x190] = a2\n 15951: u64 [a0 + 0x18] = a2\n 15954: u64 [s1 + 0x198] = a1\n 15958: u64 [a0 + 0x10] = a1\n 15961: u64 [s1 + 0x188] = a4\n 15965: u64 [a0 + 0x8] = a4\n 15968: u64 [s1 + 0x180] = a5\n 15972: u64 [a0] = a5\n 15974: a0 = u64 [s1 + 0x138]\n 15978: ra = 0x242\n 15982: ecalli 4 // 'caller'\n 15984: a2 = u64 [s1 + 0x140]\n 15988: t0 = 0x244\n 15992: jump @1516\n      : @597 [@dyn 289] (gas: 2)\n 15995: a2 = u64 [s1 + 0x140]\n 15999: t0 = 580, jump @1516\n      : @598 [@dyn 290] (gas: 8)\n 16005: u64 [a2 + 352] = 0\n 16009: a4 = a2 + 0x100\n 16013: u64 [a4 + 0x58] = a1\n 16016: u64 [a4 + 0x50] = a0\n 16019: a1 = s1 + 0x1260\n 16023: u64 [a4 + 0x48] = a3\n 16026: a0 = 0\n 16028: ra = 582, jump @24\n      : @599 [@dyn 291] (gas: 9)\n 16034: a1 = s1 + 0x1118\n 16038: u64 [a1 + 320] = 0\n 16042: u64 [a1 + 312] = 0\n 16046: u64 [a1 + 296] = 0x3\n 16051: a2 = a1\n 16053: a0 = 0x20\n 16056: a1 = s1 + 0x1240\n 16060: u64 [a2 + 304] = 0\n 16064: ra = 584, jump @24\n      : @600 [@dyn 292] (gas: 3)\n 16070: a1 = u64 [s1 + 0x170]\n 16074: a0 = i32 [a1]\n 16076: jump @602 if a0 >u 63\n      : @601 (gas: 2)\n 16080: u32 [a1 + 0] = 0x40\n 16083: fallthrough\n      : @602 (gas: 5)\n 16084: a1 = 0xffffffff00000000\n 16094: u64 [s1 + 0x128] = a1\n 16098: a0 = 0xffffffff\n 16108: u64 [s1 + 0xb0] = a0\n 16112: t0 = 586, jump @1528\n      : @603 [@dyn 293] (gas: 5)\n 16118: ra = 0x24c\n 16122: ecalli 8 // 'hash_keccak_256'\n 16124: a3 = u64 [s1 + 0x168]\n 16128: t0 = 0x24e\n 16132: jump @1525\n      : @604 [@dyn 294] (gas: 2)\n 16135: a3 = u64 [s1 + 0x168]\n 16139: t0 = 590, jump @1525\n      : @605 [@dyn 295] (gas: 8)\n 16145: a5 = a4 + 0x600\n 16149: u64 [a5 + 0x20] = a3\n 16152: u64 [a5 + 0x18] = a2\n 16155: u64 [a5 + 0x10] = a1\n 16158: u64 [a5 + 0x8] = a0\n 16161: a0 = s1 + 0x1220\n 16165: a1 = s1 + 0x2f40\n 16169: ra = 592, jump @26\n      : @606 [@dyn 296] (gas: 33)\n 16175: u64 [s1 + 264] = 0\n 16179: u64 [s1 + 240] = 0\n 16183: u64 [s1 + 248] = 0\n 16187: u64 [s1 + 256] = 0\n 16191: u64 [s1 + 272] = 0\n 16195: u64 [s1 + 232] = 0\n 16199: u64 [s1 + 224] = 0\n 16203: u64 [s1 + 216] = 0\n 16207: a5 = 0\n 16209: a4 = 0\n 16211: a3 = 0\n 16213: a1 = u64 [s1 + 0x180]\n 16217: a1 = a1 + 0x1\n 16220: a0 = a1 <u 0x1\n 16223: a2 = u64 [s1 + 0x188]\n 16227: a0 = a0 + a2\n 16230: u64 [s1 + 0xd0] = a1\n 16234: u64 [s1 + 0xc8] = a0\n 16238: a0 = a0 | a1\n 16241: a0 = a0 <u 0x1\n 16244: a2 = s1 + 0x100\n 16248: a1 = u64 [a2 + 0x98]\n 16252: a0 = a0 + a1\n 16255: u64 [s1 + 0xc0] = a0\n 16259: a0 = a0 <u a1\n 16262: a1 = u64 [a2 + 0x90]\n 16266: a0 = a0 + a1\n 16269: u64 [s1 + 0xb8] = a0\n 16273: a0 = s1 + 0x1118\n 16277: a0 = u32 [a0 + 0x108]\n 16281: u64 [a2 + 0x30] = a0\n 16284: t0 = 0x1\n 16287: fallthrough\n      : @607 (gas: 10)\n 16288: a0 = a4 >u 0\n 16290: a1 = a3 >u 0\n 16292: a1 = a0 if a3 == 0\n 16295: a0 = u64 [s1 + 0x130]\n 16299: a0 = a0 <u t0\n 16302: a2 = a5 >u 0\n 16304: a2 = a0 if a5 == 0\n 16307: a0 = a4 | a3\n 16310: a2 = a1 if a0 != 0\n 16313: jump @671 if a2 != 0\n      : @608 (gas: 10)\n 16317: u64 [s1 + 0x180] = t0\n 16321: u64 [s1 + 0x188] = a5\n 16325: u64 [s1 + 0x190] = a4\n 16329: u64 [s1 + 0x198] = a3\n 16333: a0 = u64 [s1 + 0x138]\n 16337: ra = 0x252\n 16341: ecalli 4 // 'caller'\n 16343: a2 = u64 [s1 + 0x140]\n 16347: t0 = 0x254\n 16351: jump @1516\n      : @609 [@dyn 297] (gas: 2)\n 16354: a2 = u64 [s1 + 0x140]\n 16358: t0 = 596, jump @1516\n      : @610 [@dyn 298] (gas: 7)\n 16364: u64 [a2 + 256] = 0\n 16368: u64 [a2 + 0xf8] = a1\n 16372: u64 [a2 + 0xf0] = a0\n 16376: a1 = s1 + 0x1200\n 16380: u64 [a2 + 0xe8] = a3\n 16384: a0 = 0\n 16386: ra = 598, jump @24\n      : @611 [@dyn 299] (gas: 9)\n 16392: a0 = s1 + 0x1118\n 16396: u64 [a0 + 224] = 0\n 16400: u64 [a0 + 216] = 0\n 16404: u64 [a0 + 208] = 0\n 16408: a3 = a0\n 16410: a0 = 0x20\n 16413: a1 = s1 + 0x11e0\n 16417: u64 [a3 + 200] = 0x2\n 16422: ra = 600, jump @24\n      : @612 [@dyn 300] (gas: 3)\n 16428: a1 = u64 [s1 + 0x170]\n 16432: a0 = i32 [a1]\n 16434: jump @614 if a0 >u 63\n      : @613 (gas: 3)\n 16438: u32 [a1 + 0] = 0x40\n 16441: t0 = 0x25a\n 16445: jump @1528\n      : @614 (gas: 1)\n 16448: t0 = 602, jump @1528\n      : @615 [@dyn 301] (gas: 4)\n 16454: ra = 0x25c\n 16458: ecalli 8 // 'hash_keccak_256'\n 16460: t0 = 0x25e\n 16464: jump @1527\n      : @616 [@dyn 302] (gas: 1)\n 16467: t0 = 606, jump @1527\n      : @617 [@dyn 303] (gas: 3)\n 16473: t0 = 0x260\n 16477: a2 = s1 + 0x1118\n 16481: fallthrough\n      : @618 [@dyn 304] (gas: 11)\n 16482: a0 = u64 [s1 + 0x198]\n 16486: u64 [a2 + 0xc0] = a0\n 16490: a0 = u64 [s1 + 0x190]\n 16494: u64 [a2 + 0xb8] = a0\n 16498: a0 = u64 [s1 + 0x188]\n 16502: u64 [a2 + 0xb0] = a0\n 16506: a1 = s1 + 0x11c0\n 16510: a0 = u64 [s1 + 0x180]\n 16514: u64 [a2 + 0xa8] = a0\n 16518: a0 = 0\n 16520: ra = 610, jump @24\n      : @619 [@dyn 305] (gas: 13)\n 16526: a0 = u64 [s1 + 0x148]\n 16530: a1 = s1 + 0x1118\n 16534: u64 [a1 + 0xa0] = a0\n 16538: a0 = u64 [s1 + 0x150]\n 16542: u64 [a1 + 0x98] = a0\n 16546: a0 = u64 [s1 + 0x158]\n 16550: u64 [a1 + 0x90] = a0\n 16554: a3 = a1\n 16556: a0 = 0x20\n 16559: a1 = s1 + 0x11a0\n 16563: a2 = u64 [s1 + 0x160]\n 16567: u64 [a3 + 0x88] = a2\n 16571: ra = 612, jump @24\n      : @620 [@dyn 306] (gas: 3)\n 16577: a1 = u64 [s1 + 0x170]\n 16581: a0 = i32 [a1]\n 16583: jump @622 if a0 >u 63\n      : @621 (gas: 3)\n 16587: u32 [a1 + 0] = 0x40\n 16590: t0 = 0x266\n 16594: jump @1565\n      : @622 (gas: 1)\n 16597: t0 = 614, jump @1565\n      : @623 [@dyn 307] (gas: 5)\n 16603: ra = 0x268\n 16607: ecalli 8 // 'hash_keccak_256'\n 16609: a3 = u64 [s1 + 0x160]\n 16613: t0 = 0x26a\n 16617: jump @1563\n      : @624 [@dyn 308] (gas: 2)\n 16620: a3 = u64 [s1 + 0x160]\n 16624: t0 = 618, jump @1563\n      : @625 [@dyn 309] (gas: 22)\n 16630: a4 = u64 [s1 + 0x168]\n 16634: u64 [a4 + 0x18] = a3\n 16637: u64 [a4 + 0x10] = a2\n 16640: u64 [a4 + 0x8] = a1\n 16643: u64 [a4] = a0\n 16645: a4 = a0 + 0x2\n 16648: a0 = a4 <u a0\n 16651: a5 = a1 + a0\n 16654: a1 = a5 <u a1\n 16657: a1 = a0 if a0 == 0\n 16660: a1 = a1 + a2\n 16663: a0 = a1 <u a2\n 16666: a0 = a0 + a3\n 16669: a2 = s1 + 0x2938\n 16673: a3 = a2 + 0x600\n 16677: u64 [a3 + 0x28] = a4\n 16680: u64 [a3 + 0x30] = a5\n 16683: u64 [a3 + 0x38] = a1\n 16686: u64 [a3 + 0x40] = a0\n 16689: a0 = s1 + 0x1180\n 16693: a1 = s1 + 0x2f60\n 16697: ra = 620, jump @26\n      : @626 [@dyn 310] (gas: 4)\n 16703: a0 = s1 + 0x1118\n 16707: a0 = u64 [a0 + 0x70]\n 16710: a0 = a0 & 0xff\n 16714: jump @630 if a0 == 0\n      : @627 (gas: 3)\n 16717: a2 = s1 + 0x7ff\n 16721: a2 = a2 + 0x111\n 16725: fallthrough\n      : @628 (gas: 15)\n 16726: a4 = s1 + 0x100\n 16730: a0 = u64 [a4 + 0x80]\n 16734: a5 = a2 + 0x600\n 16738: u64 [a5 + 0x10] = a0\n 16741: a0 = u64 [a4 + 0x88]\n 16745: u64 [a5 + 0x18] = a0\n 16748: a0 = u64 [a4 + 0x90]\n 16752: u64 [a5 + 0x20] = a0\n 16755: a0 = s1 + 0x7ff\n 16759: a0 = a0 + 0x741\n 16763: a1 = s1 + 0x7ff\n 16767: a1 = a1 + 0x721\n 16771: a3 = u64 [a4 + 0x98]\n 16775: u64 [a5 + 0x28] = a3\n 16778: ra = 622, jump @1386\n      : @629 [@dyn 311] (gas: 8)\n 16784: a0 = s1 + 0x7ff\n 16788: a0 = a0 + 0x111\n 16792: a1 = a0 + 0x600\n 16796: a3 = u64 [a1 + 0x48]\n 16799: a4 = u64 [a1 + 0x40]\n 16802: a5 = u64 [a1 + 0x38]\n 16805: t0 = u64 [a0 + 0x630]\n 16809: jump @607\n      : @630 (gas: 3)\n 16812: a0 = s1 + 0x1160\n 16816: a1 = u64 [s1 + 0x168]\n 16820: ra = 624, jump @26\n      : @631 [@dyn 312] (gas: 3)\n 16826: t0 = 0x272\n 16830: a2 = s1 + 0x1118\n 16834: fallthrough\n      : @632 [@dyn 313] (gas: 10)\n 16835: a0 = u64 [a2 + 0x50]\n 16838: a1 = u64 [a2 + 0x58]\n 16841: a2 = u64 [a2 + 0x48]\n 16844: a0 = a0 & 0xffffffffffffffff\n 16847: a1 = a1 & 0xffffffffffffffff\n 16850: a3 = u64 [s1 + 0x128]\n 16854: a2 = a2 & a3\n 16857: a1 = a1 | a2\n 16860: a0 = a0 | a1\n 16863: jump @627 if a0 == 0\n      : @633 (gas: 6)\n 16867: a0 = u64 [s1 + 0x138]\n 16871: ra = 0x274\n 16875: ecalli 4 // 'caller'\n 16877: a2 = u64 [s1 + 0x140]\n 16881: t0 = 0x276\n 16885: jump @1516\n      : @634 [@dyn 314] (gas: 2)\n 16888: a2 = u64 [s1 + 0x140]\n 16892: t0 = 630, jump @1516\n      : @635 [@dyn 315] (gas: 7)\n 16898: u64 [a2 + 64] = 0\n 16901: u64 [a2 + 0x38] = a1\n 16904: u64 [a2 + 0x30] = a0\n 16907: a1 = s1 + 0x1140\n 16911: u64 [a2 + 0x28] = a3\n 16914: a0 = 0\n 16916: ra = 632, jump @24\n      : @636 [@dyn 316] (gas: 9)\n 16922: a0 = s1 + 0x1118\n 16926: u64 [a0 + 32] = 0\n 16929: u64 [a0 + 24] = 0\n 16932: u64 [a0 + 16] = 0\n 16935: a3 = a0\n 16937: a0 = 0x20\n 16940: a1 = s1 + 0x1120\n 16944: u64 [a3 + 8] = 0x4\n 16948: ra = 634, jump @24\n      : @637 [@dyn 317] (gas: 3)\n 16954: a1 = u64 [s1 + 0x170]\n 16958: a0 = i32 [a1]\n 16960: jump @639 if a0 >u 63\n      : @638 (gas: 3)\n 16964: u32 [a1 + 0] = 0x40\n 16967: t0 = 0x27c\n 16971: jump @1528\n      : @639 (gas: 1)\n 16974: t0 = 636, jump @1528\n      : @640 [@dyn 318] (gas: 5)\n 16980: ra = 0x27e\n 16984: ecalli 8 // 'hash_keccak_256'\n 16986: a3 = u64 [s1 + 0x168]\n 16990: t0 = 0x280\n 16994: jump @1522\n      : @641 [@dyn 319] (gas: 2)\n 16997: a3 = u64 [s1 + 0x168]\n 17001: t0 = 640, jump @1522\n      : @642 [@dyn 320] (gas: 9)\n 17007: a0 = s1 + 0x1118\n 17011: u64 [a0 + 0] = 0\n 17013: u64 [a0 + 4294967288] = 0\n 17016: u64 [a0 + 4294967280] = 0\n 17019: a1 = s1 + 0x1100\n 17023: a2 = u64 [s1 + 0x120]\n 17027: u64 [a0 + 0xffffffffffffffe8] = a2\n 17030: a0 = 0\n 17032: ra = 642, jump @24\n      : @643 [@dyn 321] (gas: 14)\n 17038: a2 = s1 + 0x7ff\n 17042: a2 = a2 + 0x111\n 17046: a0 = u64 [s1 + 0x150]\n 17050: a4 = a2 + 0x700\n 17054: u64 [a4 + 0xe8] = a0\n 17058: a0 = u64 [s1 + 0x158]\n 17062: u64 [a4 + 0xe0] = a0\n 17066: a0 = u64 [s1 + 0x160]\n 17070: u64 [a4 + 0xd8] = a0\n 17074: a0 = 0x20\n 17077: a1 = s1 + 0x10e0\n 17081: a3 = u64 [s1 + 0x168]\n 17085: u64 [a4 + 0xd0] = a3\n 17089: ra = 644, jump @24\n      : @644 [@dyn 322] (gas: 3)\n 17095: a1 = u64 [s1 + 0x170]\n 17099: a0 = i32 [a1]\n 17101: jump @646 if a0 >u 63\n      : @645 (gas: 3)\n 17105: u32 [a1 + 0] = 0x40\n 17108: t0 = 0x286\n 17112: jump @1528\n      : @646 (gas: 1)\n 17115: t0 = 646, jump @1528\n      : @647 [@dyn 323] (gas: 4)\n 17121: ra = 0x288\n 17125: ecalli 8 // 'hash_keccak_256'\n 17127: t0 = 0x28a\n 17131: jump @1517\n      : @648 [@dyn 324] (gas: 1)\n 17134: t0 = 650, jump @1517\n      : @649 [@dyn 325] (gas: 11)\n 17140: a3 = a2 + 0x700\n 17144: u64 [a3 + 0xc8] = a0\n 17148: a0 = u64 [s1 + 0x190]\n 17152: u64 [a3 + 0xc0] = a0\n 17156: a0 = u64 [s1 + 0x188]\n 17160: u64 [a3 + 0xb8] = a0\n 17164: a1 = s1 + 0x10c0\n 17168: a0 = u64 [s1 + 0x180]\n 17172: u64 [a3 + 0xb0] = a0\n 17176: a0 = 0\n 17178: ra = 652, jump @24\n      : @650 [@dyn 326] (gas: 15)\n 17184: a0 = u64 [s1 + 0x148]\n 17188: a1 = s1 + 0x7ff\n 17192: a1 = a1 + 0x111\n 17196: a2 = a1 + 0x700\n 17200: u64 [a2 + 0xa8] = a0\n 17204: a0 = u64 [s1 + 0x150]\n 17208: u64 [a2 + 0xa0] = a0\n 17212: a0 = u64 [s1 + 0x158]\n 17216: u64 [a2 + 0x98] = a0\n 17220: a3 = a1\n 17222: a0 = 0x20\n 17225: a1 = s1 + 0x10a0\n 17229: a2 = u64 [s1 + 0x160]\n 17233: u64 [a3 + 0x790] = a2\n 17237: ra = 654, jump @24\n      : @651 [@dyn 327] (gas: 3)\n 17243: a1 = u64 [s1 + 0x170]\n 17247: a0 = i32 [a1]\n 17249: jump @653 if a0 >u 63\n      : @652 (gas: 3)\n 17253: u32 [a1 + 0] = 0x40\n 17256: t0 = 0x290\n 17260: jump @1565\n      : @653 (gas: 1)\n 17263: t0 = 656, jump @1565\n      : @654 [@dyn 328] (gas: 4)\n 17269: ra = 0x292\n 17273: ecalli 8 // 'hash_keccak_256'\n 17275: t0 = 0x294\n 17279: jump @1542\n      : @655 [@dyn 329] (gas: 1)\n 17282: t0 = 660, jump @1542\n      : @656 [@dyn 330] (gas: 2)\n 17288: a0 = s1 + 0x1080\n 17292: ra = 662, jump @26\n      : @657 [@dyn 331] (gas: 4)\n 17298: a2 = s1 + 0x7ff\n 17302: a2 = a2 + 0x111\n 17306: a0 = u8 [a2 + 0x770]\n 17310: jump @628 if a0 != 0\n      : @658 (gas: 3)\n 17314: a0 = s1 + 0x1060\n 17318: a1 = u64 [s1 + 0x118]\n 17322: ra = 664, jump @26\n      : @659 [@dyn 332] (gas: 16)\n 17328: a3 = s1 + 0x7ff\n 17332: a3 = a3 + 0x111\n 17336: a0 = u64 [a3 + 0x768]\n 17340: t1 = u64 [a3 + 0x760]\n 17344: a2 = u64 [a3 + 0x758]\n 17348: t0 = u64 [a3 + 0x750]\n 17352: a1 = u64 [0x200a8]\n 17357: a5 = a0 >u 0\n 17359: a4 = t1 >u 0\n 17361: a4 = a5 if a0 != 0\n 17364: a1 = a1 <u t0\n 17367: a5 = a2 >u 0\n 17369: a5 = a1 if a2 == 0\n 17372: a1 = t1 | a0\n 17375: a5 = a4 if a1 != 0\n 17378: jump @662 if a5 != 0\n      : @660 (gas: 14)\n 17381: a0 = u64 [s1 + 0x108]\n 17385: a4 = a3 + 0x600\n 17389: u64 [a4 + 0x50] = a0\n 17392: a0 = u64 [s1 + 0xf0]\n 17396: u64 [a4 + 0x58] = a0\n 17399: a0 = u64 [s1 + 0xf8]\n 17403: u64 [a4 + 0x60] = a0\n 17406: a0 = s1 + 0x7ff\n 17410: a0 = a0 + 0x781\n 17414: a1 = s1 + 0x7ff\n 17418: a1 = a1 + 0x761\n 17422: a2 = u64 [s1 + 0x100]\n 17426: u64 [a4 + 0x68] = a2\n 17429: ra = 666, jump @1386\n      : @661 [@dyn 333] (gas: 12)\n 17435: a2 = s1 + 0x7ff\n 17439: a2 = a2 + 0x111\n 17443: a1 = a2 + 0x600\n 17447: a0 = u64 [a1 + 0x88]\n 17451: u64 [s1 + 0x100] = a0\n 17455: a0 = u64 [a1 + 0x80]\n 17459: u64 [s1 + 0xf8] = a0\n 17463: a0 = u64 [a1 + 0x78]\n 17466: u64 [s1 + 0xf0] = a0\n 17470: a0 = u64 [a1 + 0x70]\n 17473: u64 [s1 + 0x108] = a0\n 17477: jump @628\n      : @662 (gas: 23)\n 17480: a1 = sp + 0xffffffffffffffe0\n 17483: a1 = a1 & 0xffffffffffffffe0\n 17486: sp = a1\n 17488: a4 = u64 [0x200b0]\n 17493: a4 = a4 + t0\n 17496: a5 = a4 <u t0\n 17499: a3 = a2 + a5\n 17502: a3 = a3 + 0xffffffffffffffff\n 17505: t0 = a3 ^ a2\n 17508: a2 = a3 <u a2\n 17511: a2 = a5 if t0 == 0\n 17514: a5 = t1 + 0xffffffffffffffff\n 17517: a2 = a2 + a5\n 17520: t0 = a2 <u a5\n 17523: a5 = t1 <u 0x1\n 17526: a0 = a0 - a5\n 17529: a0 = a0 + t0\n 17532: u64 [a1 + 0x8] = a3\n 17535: u64 [a1] = a4\n 17537: u64 [a1 + 0x10] = a2\n 17540: u64 [a1 + 0x18] = a0\n 17543: a0 = u64 [s1 + 0x118]\n 17547: ra = 668, jump @28\n      : @663 [@dyn 334] (gas: 14)\n 17553: a0 = sp + 0xffffffffffffffe0\n 17556: a1 = a0 & 0xffffffffffffffe0\n 17559: sp = a1\n 17561: a0 = u64 [s1 + 0xb8]\n 17565: u64 [a1 + 0x18] = a0\n 17568: a0 = u64 [s1 + 0xc0]\n 17572: u64 [a1 + 0x10] = a0\n 17575: a0 = u64 [s1 + 0xc8]\n 17579: u64 [a1 + 0x8] = a0\n 17582: a0 = u64 [s1 + 0xd0]\n 17586: u64 [a1] = a0\n 17588: a0 = s1 + 0x1040\n 17592: u64 [s1 + 0x160] = a1\n 17596: ra = 670, jump @26\n      : @664 [@dyn 335] (gas: 30)\n 17602: a0 = s1 + 0x7ff\n 17606: a0 = a0 + 0x111\n 17610: t0 = u64 [a0 + 0x748]\n 17614: t1 = u64 [a0 + 0x740]\n 17618: a2 = u64 [a0 + 0x738]\n 17622: a4 = u64 [a0 + 0x730]\n 17626: a1 = sp + 0xffffffffffffffe0\n 17629: a1 = a1 & 0xffffffffffffffe0\n 17632: sp = a1\n 17634: a5 = u64 [0x200a0]\n 17639: t2 = a4 + a5\n 17642: a0 = t2 <u a4\n 17645: a3 = a2 + a0\n 17648: a5 = a3 <u a2\n 17651: a5 = a0 if a0 == 0\n 17654: a5 = a5 + t1\n 17657: a0 = a5 <u t1\n 17660: u64 [a1 + 0x10] = a5\n 17663: a5 = u64 [0x200b8]\n 17668: a0 = a0 + t0\n 17671: u64 [a1 + 0x8] = a3\n 17674: u64 [a1] = t2\n 17676: a3 = a5 <u a4\n 17679: a2 = a2 + 0x1\n 17682: a3 = 0 if a2 != 0\n 17684: a2 = t1 & t0\n 17687: a2 = a2 + 0x1\n 17690: a3 = 0 if a2 != 0\n 17692: u64 [a1 + 0x18] = a0\n 17695: jump @666 if a3 == 0\n      : @665 (gas: 1)\n 17698: jump @855\n      : @666 (gas: 2)\n 17701: a0 = u64 [s1 + 0x160]\n 17705: ra = 672, jump @28\n      : @667 [@dyn 336] (gas: 3)\n 17711: a0 = s1 + 0x1020\n 17715: a1 = u64 [s1 + 0x168]\n 17719: ra = 674, jump @26\n      : @668 [@dyn 337] (gas: 18)\n 17725: a3 = s1 + 0x7ff\n 17729: a3 = a3 + 0x111\n 17733: a4 = a3 + 0x700\n 17737: a0 = u64 [a4 + 0x10]\n 17740: a1 = u64 [a4 + 0x18]\n 17743: a2 = u64 [a4 + 0x28]\n 17746: a3 = u64 [a4 + 0x20]\n 17749: a0 = a0 & 0xffffffffffffff00\n 17753: a0 = a0 | 0x1\n 17756: a4 = s1 + 0x2938\n 17760: a5 = a4 + 0x600\n 17764: u64 [a5 + 0x60] = a2\n 17767: u64 [a5 + 0x58] = a3\n 17770: u64 [a5 + 0x50] = a1\n 17773: u64 [a5 + 0x48] = a0\n 17776: a1 = s1 + 0x2f80\n 17780: a0 = u64 [s1 + 0x168]\n 17784: ra = 676, jump @28\n      : @669 [@dyn 338] (gas: 15)\n 17790: a0 = u64 [s1 + 0xd8]\n 17794: a3 = s1 + 0x7ff\n 17798: a3 = a3 + 0x111\n 17802: a4 = a3 + 0x600\n 17806: u64 [a4 + 0xe8] = a0\n 17810: a0 = u64 [s1 + 0xe0]\n 17814: u64 [a4 + 0xe0] = a0\n 17818: a0 = u64 [s1 + 0xe8]\n 17822: u64 [a4 + 0xd8] = a0\n 17826: a0 = s1 + 0x1000\n 17830: a1 = s1 + 0x7ff\n 17834: a1 = a1 + 0x7e1\n 17838: a2 = u64 [s1 + 0x110]\n 17842: u64 [a4 + 0xd0] = a2\n 17846: ra = 678, jump @1386\n      : @670 [@dyn 339] (gas: 11)\n 17852: a2 = s1 + 0x7ff\n 17856: a2 = a2 + 0x111\n 17860: a0 = u64 [a2 + 0x708]\n 17864: u64 [s1 + 0xd8] = a0\n 17868: a0 = u64 [a2 + 0x700]\n 17872: u64 [s1 + 0xe0] = a0\n 17876: a0 = u64 [a2 + 0x6f8]\n 17880: u64 [s1 + 0xe8] = a0\n 17884: a0 = u64 [a2 + 0x6f0]\n 17888: u64 [s1 + 0x110] = a0\n 17892: jump @628\n      : @671 (gas: 4)\n 17895: a0 = s1 + 0x7ff\n 17899: a0 = a0 + 0x701\n 17903: a1 = 0x40\n 17906: ra = 680, jump @22\n      : @672 [@dyn 340] (gas: 14)\n 17912: a2 = s1 + 0x7ff\n 17916: a2 = a2 + 0x111\n 17920: t0 = u64 [a2 + 0x608]\n 17924: a5 = u64 [a2 + 0x600]\n 17928: a4 = u64 [a2 + 0x5f8]\n 17932: a3 = u64 [a2 + 0x5f0]\n 17936: a0 = a4 | t0\n 17939: a1 = a3 | a5\n 17942: a1 = a1 | a0\n 17945: a1 = a1 >> 0x20\n 17948: a0 = a0 | a5\n 17951: a0 = a0 << 0x20\n 17954: a0 = a0 | a1\n 17957: jump @674 if a0 == 0\n      : @673 (gas: 1)\n 17960: jump @854\n      : @674 (gas: 15)\n 17963: a0 = u64 [s1 + 0x110]\n 17967: a1 = u64 [s1 + 0xb0]\n 17971: a0 = a0 & a1\n 17974: u64 [a2 + 1512] = 0\n 17978: u64 [a2 + 1504] = 0\n 17982: u64 [a2 + 1496] = 0\n 17986: a1 = s1 + 0x7ff\n 17990: a1 = a1 + 0x6e1\n 17994: u64 [a2 + 0x5d0] = a0\n 17998: a0 = a3\n 18000: u64 [s1 + 0x198] = a3\n 18004: u64 [s1 + 0x190] = a4\n 18008: u64 [s1 + 0x180] = t0\n 18012: u64 [s1 + 0x188] = a5\n 18016: ra = 682, jump @24\n      : @675 [@dyn 341] (gas: 11)\n 18022: a4 = s1 + 0x100\n 18026: a2 = u64 [a4 + 0x98]\n 18030: a0 = u64 [a4 + 0x88]\n 18034: a1 = u64 [a4 + 0x80]\n 18038: a0 = a0 | a1\n 18041: a1 = 0xffffffe0\n 18051: a1 = a2 <u a1\n 18054: a3 = u64 [a4 + 0x90]\n 18058: a1 = 0 if a3 != 0\n 18060: a1 = 0 if a0 != 0\n 18062: jump @677 if a1 != 0\n      : @676 (gas: 1)\n 18065: jump @854\n      : @677 (gas: 13)\n 18068: a0 = u64 [s1 + 0x108]\n 18072: a1 = u64 [s1 + 0xb0]\n 18076: a1 = a1 & a0\n 18079: i32 a0 = a2 + 0x20\n 18082: a3 = s1 + 0x7ff\n 18086: a3 = a3 + 0x111\n 18090: u64 [a3 + 1480] = 0\n 18094: u64 [a3 + 1472] = 0\n 18098: u64 [a3 + 0x5b0] = a1\n 18102: a1 = s1 + 0x7ff\n 18106: a1 = a1 + 0x6c1\n 18110: u64 [a3 + 1464] = 0\n 18114: ra = 684, jump @24\n      : @678 [@dyn 342] (gas: 6)\n 18120: a0 = u64 [s1 + 0x138]\n 18124: ra = 0x2ae\n 18128: ecalli 4 // 'caller'\n 18130: a2 = u64 [s1 + 0x140]\n 18134: t0 = 0x2b0\n 18138: jump @1519\n      : @679 [@dyn 343] (gas: 2)\n 18141: a2 = u64 [s1 + 0x140]\n 18145: t0 = 688, jump @1519\n      : @680 [@dyn 344] (gas: 36)\n 18151: t0 = a1 | a0\n 18154: a3 = a3 >> 0x20\n 18157: a2 = reverse a2\n 18159: a1 = a2 << 0x20\n 18162: t1 = a1 | a3\n 18165: a2 = a2 >> 0x20\n 18168: a3 = u64 [0x200c0]\n 18173: a4 = u64 [0x200c8]\n 18178: a5 = u64 [0x200d0]\n 18183: a0 = u64 [s1 + 0x120]\n 18187: a1 = s1 + 0x7ff\n 18191: a1 = a1 + 0x111\n 18195: u64 [a1 + 0x550] = a0\n 18199: a0 = a1 + 0x500\n 18203: u64 [a0 + 0xa8] = a3\n 18207: u64 [a0 + 0xa0] = a4\n 18211: u64 [a0 + 0x98] = a5\n 18215: a3 = u64 [0x200d8]\n 18220: u64 [a1 + 1384] = 0\n 18224: u64 [a1 + 1376] = 0\n 18228: u64 [a1 + 1368] = 0\n 18232: u64 [a0 + 0x90] = a3\n 18236: u64 [a0 + 0x80] = a2\n 18240: u64 [a1 + 0x578] = t1\n 18244: u64 [a1 + 0x570] = t0\n 18248: a0 = a1\n 18250: a1 = 0x40\n 18253: a2 = s1 + 0x7ff\n 18257: a2 = a2 + 0x6a1\n 18261: a3 = s1 + 0x7ff\n 18265: a3 = a3 + 0x681\n 18269: a4 = s1 + 0x7ff\n 18273: a4 = a4 + 0x661\n 18277: u64 [a0 + 1416] = 0\n 18281: a0 = u64 [s1 + 0x198]\n 18285: ra = 690, jump @31\n      : @681 [@dyn 345] (gas: 7)\n 18291: a0 = 0\n 18293: a1 = u64 [s1 + 0x178]\n 18297: a2 = 0\n 18299: ra = 0x418\n 18303: ecalli 13 // 'seal_return'\n 18305: t0 = 0x41a\n 18309: jump @1567\n      : @682 (gas: 1)\n 18312: t0 = 692, jump @1568\n      : @683 [@dyn 346] (gas: 12)\n 18318: t0 = u64 [s1 + 0x168]\n 18322: a3 = a0 if t0 != 0\n 18325: u64 [s1 + 0x198] = a3\n 18329: a0 = u64 [s1 + 0x160]\n 18333: a2 = u64 [s1 + 0x130]\n 18337: a0 = a0 | a2\n 18340: a2 = u64 [s1 + 0x118]\n 18344: a0 = a2 if a4 == 0\n 18347: a5 = u64 [s1 + 0x150]\n 18351: a3 = a5\n 18353: a3 = a0 if t0 != 0\n 18356: t0 = 694, jump @1550\n      : @684 [@dyn 347] (gas: 1)\n 18362: ra = 696, jump @1594\n      : @685 [@dyn 348] (gas: 6)\n 18368: u64 [s1 + 0x130] = a0\n 18372: u64 [s1 + 0x118] = a1\n 18376: a0 = u64 [s1 + 0x158]\n 18380: a1 = u64 [s1 + 0x148]\n 18384: a2 = u64 [s1 + 0x190]\n 18388: ra = 698, jump @1594\n      : @686 [@dyn 349] (gas: 1)\n 18394: t0 = 700, jump @1555\n      : @687 [@dyn 350] (gas: 1)\n 18400: ra = 702, jump @1599\n      : @688 [@dyn 351] (gas: 1)\n 18406: t0 = 704, jump @1559\n      : @689 [@dyn 352] (gas: 14)\n 18412: a2 = u64 [s1 + 0x148]\n 18416: a2 = a1 if a3 != 0\n 18419: u64 [s1 + 0x148] = a2\n 18423: a1 = u64 [s1 + 0x110]\n 18427: a0 = a0 | a1\n 18430: a1 = u64 [s1 + 0x130]\n 18434: a0 = a1 if a4 == 0\n 18437: a1 = u64 [s1 + 0x158]\n 18441: a1 = a0 if a3 != 0\n 18444: a2 = a3\n 18446: u64 [s1 + 0x158] = a1\n 18450: a0 = u64 [s1 + 0x150]\n 18454: a1 = u64 [s1 + 0x140]\n 18458: ra = 706, jump @1594\n      : @690 [@dyn 353] (gas: 1)\n 18464: t0 = 708, jump @1543\n      : @691 [@dyn 354] (gas: 3)\n 18470: t1 = u64 [s1 + 0x148]\n 18474: t2 = u64 [s1 + 0x158]\n 18478: fallthrough\n      : @692 (gas: 68)\n 18479: u64 [s1 + 0x158] = a4\n 18483: a2 = t2 >> 0x3f\n 18486: a3 = t1 << 0x1\n 18489: t0 = a3 | a2\n 18492: a3 = t2 << 0x1\n 18495: a4 = u64 [s1 + 0x198]\n 18499: a4 = a4 >> 0x3f\n 18502: a3 = a3 | a4\n 18505: u64 [s1 + 0x148] = a3\n 18509: a2 = u64 [s1 + 0x128]\n 18513: t2 = a1\n 18515: u64 [s1 + 0x150] = t0\n 18519: a1 = a2 ^ t0\n 18522: ra = t1\n 18524: t1 = a2 <u t0\n 18527: a4 = u64 [s1 + 0x130]\n 18531: t0 = a4 <u a3\n 18534: t0 = t1 if a1 != 0\n 18537: a1 = t2 << 0x1\n 18540: a3 = a0 >> 0x3f\n 18543: a1 = a1 | a3\n 18546: u64 [s1 + 0x140] = a1\n 18550: a3 = ra >> 0x3f\n 18553: a0 = a0 << 0x1\n 18556: a3 = a3 | a0\n 18559: a0 = u64 [s1 + 0x198]\n 18563: a0 = a0 << 0x1\n 18566: a4 = u64 [s1 + 0x160]\n 18570: a1 = a4 >> 0x3f\n 18573: ra = a0 | a1\n 18576: a1 = a4 << 0x1\n 18579: a4 = u64 [s1 + 0x168]\n 18583: t1 = a4 >> 0x3f\n 18586: t1 = a1 | t1\n 18589: a1 = a4 << 0x1\n 18592: a4 = u64 [s1 + 0x188]\n 18596: t2 = a4 >> 0x3f\n 18599: a1 = a1 | t2\n 18602: a4 = a4 << 0x1\n 18605: a0 = u64 [s1 + 0x158]\n 18609: a4 = a4 | a0\n 18612: u64 [s1 + 0x188] = a4\n 18616: a1 = a1 | a5\n 18619: u64 [s1 + 0x168] = a1\n 18623: a1 = a5 | t1\n 18626: u64 [s1 + 0x160] = a1\n 18630: a0 = a5 | ra\n 18633: u64 [s1 + 0x198] = a0\n 18637: a0 = a2 - a3\n 18640: a0 = a0 <u t0\n 18643: a1 = a2 <u a3\n 18646: t0 = u64 [s1 + 0x140]\n 18650: a4 = a2 - t0\n 18653: a4 = a4 - a1\n 18656: a4 = a4 - a0\n 18659: a5 = a4 >>a 0x3f\n 18662: a0 = u64 [s1 + 0x138]\n 18666: a0 = a0 & a5\n 18669: a1 = u64 [s1 + 0x148]\n 18673: t2 = a1 - a0\n 18676: a1 = a1 <u a0\n 18679: a0 = u64 [s1 + 0x150]\n 18683: t1 = a0 - a1\n 18686: a1 = 0 if a0 != 0\n 18688: a0 = a3 - a1\n 18691: a1 = a3 <u a1\n 18694: a1 = t0 - a1\n 18697: t0 = 710, jump @1592\n      : @693 [@dyn 355] (gas: 17)\n 18703: t0 = a4 <u a2\n 18706: a2 = a4 - a2\n 18709: a4 = a3 <u 0x1\n 18712: ra = ra - a4\n 18715: a4 = u64 [s1 + 0x178]\n 18719: a4 = a4 - t0\n 18722: a3 = a3 + 0xffffffffffffffff\n 18725: u64 [s1 + 0x180] = ra\n 18729: u64 [s1 + 0x178] = a4\n 18733: t0 = ra | a4\n 18736: u64 [s1 + 0x190] = a3\n 18740: a4 = a3 | a2\n 18743: a3 = a4 | t0\n 18746: a4 = a5 & 0x1\n 18749: u64 [s1 + 0x170] = a2\n 18753: a5 = 0\n 18755: jump @692 if a3 != 0\n      : @694 (gas: 4)\n 18759: a0 = u64 [s1 + 0x188]\n 18763: a0 = a0 << 0x1\n 18766: a4 = a4 | a0\n 18769: fallthrough\n      : @695 (gas: 4)\n 18770: u64 [s1 + 0x170] = a4\n 18774: a0 = s1 + 0x2880\n 18778: a1 = 0x40\n 18781: ra = 712, jump @22\n      : @696 [@dyn 356] (gas: 17)\n 18787: t0 = s1 + 0x2118\n 18791: t1 = u64 [t0 + 0x780]\n 18795: a0 = t0 + 0x700\n 18799: a5 = u64 [a0 + 0x78]\n 18802: a3 = u64 [a0 + 0x70]\n 18805: a4 = u64 [a0 + 0x68]\n 18808: a0 = t1 >u 0\n 18810: a1 = a5 >u 0\n 18812: a1 = a0 if t1 != 0\n 18815: a0 = a3 >u 0\n 18817: a2 = a4 <u 0xffffffffffffff60\n 18821: a2 = a2 ^ 0x1\n 18824: a2 = a0 if a3 != 0\n 18827: a0 = a5 | t1\n 18830: u64 [s1 + 0x178] = a0\n 18834: a2 = a1 if a0 != 0\n 18837: jump @698 if a2 == 0\n      : @697 (gas: 1)\n 18840: jump @941\n      : @698 (gas: 20)\n 18843: a0 = a4 + 0xa0\n 18847: a1 = a0 <u a4\n 18850: a2 = a3 + a1\n 18853: u64 [s1 + 0x198] = a3\n 18857: a3 = u64 [s1 + 0x198]\n 18861: a3 = a2 <u a3\n 18864: a3 = a1 if a1 == 0\n 18867: a3 = a3 + a5\n 18870: a1 = a3 <u a5\n 18873: u64 [s1 + 0x190] = a4\n 18877: a4 = t1 + a1\n 18880: u64 [t0 + 0x748] = a0\n 18884: u64 [t0 + 0x750] = a2\n 18888: u64 [t0 + 0x758] = a3\n 18892: a0 = 0x40\n 18895: a1 = s1 + 0x2860\n 18899: u64 [t0 + 0x760] = a4\n 18903: u64 [s1 + 0x180] = a5\n 18907: u64 [s1 + 0x188] = t1\n 18911: ra = 714, jump @24\n      : @699 [@dyn 357] (gas: 13)\n 18917: a5 = s1 + 0x100\n 18921: a2 = u64 [a5 + 0x90]\n 18925: a3 = u64 [a5 + 0x80]\n 18929: a0 = a2 | a3\n 18932: a1 = u64 [a5 + 0x98]\n 18936: a4 = u64 [a5 + 0x88]\n 18940: a1 = a1 | a4\n 18943: a0 = a0 | a1\n 18946: a0 = a0 >> 0x20\n 18949: a1 = a1 | a3\n 18952: a1 = a1 << 0x20\n 18955: a0 = a0 | a1\n 18958: jump @701 if a0 == 0\n      : @700 (gas: 1)\n 18961: jump @854\n      : @701 (gas: 13)\n 18964: a0 = u64 [s1 + 0xf0]\n 18968: a3 = s1 + 0x2118\n 18972: a4 = a3 + 0x700\n 18976: u64 [a4 + 0x28] = a0\n 18979: a0 = u64 [s1 + 0xf8]\n 18983: u64 [a4 + 0x30] = a0\n 18986: a0 = u64 [s1 + 0x100]\n 18990: u64 [a4 + 0x38] = a0\n 18993: a1 = s1 + 0x2840\n 18997: a0 = u64 [s1 + 0x108]\n 19001: u64 [a4 + 0x40] = a0\n 19004: a0 = a2\n 19006: ra = 716, jump @24\n      : @702 [@dyn 358] (gas: 3)\n 19012: a0 = u64 [s1 + 0xc0]\n 19016: ecalli 4 // 'caller'\n 19018: fallthrough\n      : @703 (gas: 9)\n 19019: a2 = s1 + 0x100\n 19023: a4 = u64 [a2 + 0x90]\n 19027: a0 = 0xffffffe0\n 19037: a0 = a4 <u a0\n 19040: a1 = u64 [a2 + 0x98]\n 19044: a0 = 0 if a1 != 0\n 19046: a1 = u64 [a2 + 0x78]\n 19049: a0 = 0 if a1 != 0\n 19051: jump @705 if a0 != 0\n      : @704 (gas: 1)\n 19054: jump @854\n      : @705 (gas: 24)\n 19057: a2 = u64 [s1 + 0xd8]\n 19061: a0 = u64 [a2 + 0x8]\n 19064: a1 = i32 [a2 + 0x10]\n 19067: a2 = u64 [a2]\n 19069: a0 = reverse a0\n 19071: a3 = a0 << 0x20\n 19074: a1 = reverse a1\n 19076: a1 = a1 >> 0x20\n 19079: a3 = a3 | a1\n 19082: a0 = a0 >> 0x20\n 19085: a1 = reverse a2\n 19087: a2 = a1 << 0x20\n 19090: a2 = a2 | a0\n 19093: a1 = a1 >> 0x20\n 19096: i32 a0 = a4 + 0x20\n 19099: a4 = s1 + 0x2118\n 19103: u64 [a4 + 1824] = 0\n 19107: a5 = a4 + 0x700\n 19111: u64 [a5 + 0x18] = a1\n 19114: u64 [a5 + 0x10] = a2\n 19117: a1 = s1 + 0x2820\n 19121: u64 [a5 + 0x8] = a3\n 19124: u64 [s1 + 0x138] = a0\n 19128: ra = 718, jump @24\n      : @706 [@dyn 359] (gas: 13)\n 19134: a0 = u64 [s1 + 0xb0]\n 19138: a3 = s1 + 0x2118\n 19142: a4 = a3 + 0x600\n 19146: u64 [a4 + 0xe0] = a0\n 19150: a0 = u64 [s1 + 0xe8]\n 19154: u64 [a4 + 0xd8] = a0\n 19158: a0 = u64 [s1 + 0xe0]\n 19162: u64 [a4 + 0xd0] = a0\n 19166: a0 = s1 + 0x2800\n 19170: a1 = s1 + 0x27e0\n 19174: a2 = u64 [s1 + 0xb8]\n 19178: u64 [a4 + 0xc8] = a2\n 19182: ra = 720, jump @1362\n      : @707 [@dyn 360] (gas: 13)\n 19188: a0 = s1 + 0x2118\n 19192: a2 = a0 + 0x600\n 19196: a1 = u64 [a2 + 0xe8]\n 19200: u64 [s1 + 0x158] = a1\n 19204: a1 = u64 [a2 + 0xf0]\n 19208: u64 [s1 + 0x150] = a1\n 19212: a1 = u64 [a2 + 0xf8]\n 19216: u64 [s1 + 0x148] = a1\n 19220: a1 = u64 [a0 + 0x700]\n 19224: u64 [s1 + 0x140] = a1\n 19228: a0 = s1 + 0x27c0\n 19232: a1 = 0x40\n 19235: ra = 722, jump @22\n      : @708 [@dyn 361] (gas: 26)\n 19241: a0 = s1 + 0x2118\n 19245: a3 = u64 [a0 + 0x6c0]\n 19249: u64 [s1 + 0x188] = a3\n 19253: a1 = u64 [a0 + 0x6b8]\n 19257: u64 [s1 + 0x180] = a1\n 19261: a5 = u64 [a0 + 0x6b0]\n 19265: u64 [s1 + 0x168] = a5\n 19269: a4 = u64 [a0 + 0x6a8]\n 19273: u64 [s1 + 0x160] = a4\n 19277: a2 = u64 [s1 + 0x140]\n 19281: u64 [a0 + 0x680] = a2\n 19285: a2 = u64 [s1 + 0x148]\n 19289: u64 [a0 + 0x678] = a2\n 19293: a2 = u64 [s1 + 0x150]\n 19297: u64 [a0 + 0x670] = a2\n 19301: a2 = u64 [s1 + 0x158]\n 19305: u64 [a0 + 0x668] = a2\n 19309: a2 = a0 + 0x600\n 19313: u64 [a2 + 0xa0] = a3\n 19317: u64 [a2 + 0x98] = a1\n 19321: u64 [a2 + 0x90] = a5\n 19325: a2 = a0\n 19327: a0 = s1 + 0x27a0\n 19331: a1 = s1 + 0x2780\n 19335: u64 [a2 + 0x688] = a4\n 19339: ra = 724, jump @1345\n      : @709 [@dyn 362] (gas: 14)\n 19345: a2 = s1 + 0x100\n 19349: a1 = u64 [a2 + 0x68]\n 19352: a0 = u64 [a2 + 0x88]\n 19356: a0 = a0 | a1\n 19359: a1 = u64 [a2 + 0x60]\n 19362: a5 = a1\n 19364: a4 = u64 [a2 + 0x80]\n 19368: a1 = a1 | a4\n 19371: a1 = a1 | a0\n 19374: a1 = a1 >> 0x20\n 19377: a0 = a0 | a4\n 19380: a0 = a0 << 0x20\n 19383: a0 = a0 | a1\n 19386: jump @711 if a0 == 0\n      : @710 (gas: 1)\n 19389: jump @854\n      : @711 (gas: 13)\n 19392: a0 = s1 + 0x2118\n 19396: a1 = u64 [s1 + 0xb8]\n 19400: a2 = a0 + 0x600\n 19404: u64 [a2 + 0x48] = a1\n 19407: a1 = u64 [s1 + 0xe0]\n 19411: u64 [a2 + 0x50] = a1\n 19414: a1 = u64 [s1 + 0xe8]\n 19418: u64 [a2 + 0x58] = a1\n 19421: a1 = s1 + 0x2760\n 19425: a4 = u64 [s1 + 0xb0]\n 19429: u64 [a2 + 0x60] = a4\n 19432: a0 = a5\n 19434: ra = 726, jump @24\n      : @712 [@dyn 363] (gas: 10)\n 19440: a0 = u64 [s1 + 0x188]\n 19444: a3 = u64 [s1 + 0x180]\n 19448: a0 = a0 | a3\n 19451: a4 = 0xffffffe0\n 19461: a5 = u64 [s1 + 0x160]\n 19465: a1 = a5 <u a4\n 19468: a2 = u64 [s1 + 0x168]\n 19472: a1 = 0 if a2 != 0\n 19474: a1 = 0 if a0 != 0\n 19476: jump @714 if a1 != 0\n      : @713 (gas: 1)\n 19479: jump @854\n      : @714 (gas: 8)\n 19482: a1 = u64 [s1 + 0xb8]\n 19486: i32 a0 = a1 + 0\n 19488: u64 [s1 + 0x90] = a0\n 19492: a0 = i32 [s1 + 0x120]\n 19496: u64 [s1 + 0x88] = a0\n 19500: i32 a0 = a5 + 0x20\n 19503: u64 [s1 + 0x158] = a4\n 19507: ra = 728, jump @37\n      : @715 [@dyn 364] (gas: 5)\n 19513: i32 a0 = a0 + 0\n 19515: a1 = u64 [s1 + 0x90]\n 19519: a2 = u64 [s1 + 0x88]\n 19523: ecalli 1 // 'call_data_copy'\n 19525: fallthrough\n      : @716 (gas: 28)\n 19526: a4 = u64 [s1 + 0x168]\n 19530: t0 = u64 [s1 + 0xb8]\n 19534: a0 = u64 [s1 + 0x160]\n 19538: t0 = t0 + a0\n 19541: a1 = t0 <u a0\n 19544: a2 = u64 [s1 + 0xe0]\n 19548: a2 = a2 + a4\n 19551: a2 = a2 + a1\n 19554: a3 = a2 ^ a4\n 19557: a4 = a2 <u a4\n 19560: a4 = a1 if a3 == 0\n 19563: a1 = u64 [s1 + 0xe8]\n 19567: a0 = u64 [s1 + 0x180]\n 19571: a1 = a1 + a0\n 19574: a3 = a1 <u a0\n 19577: a5 = u64 [s1 + 0x188]\n 19581: a0 = u64 [s1 + 0xb0]\n 19585: a5 = a5 + a0\n 19588: a3 = a3 + a5\n 19591: a4 = a4 + a1\n 19594: a1 = a4 <u a1\n 19597: a1 = a1 + a3\n 19600: a1 = a1 | a4\n 19603: a0 = u64 [s1 + 0x158]\n 19607: a3 = t0 <u a0\n 19610: a3 = 0 if a2 != 0\n 19612: a3 = 0 if a1 != 0\n 19614: jump @718 if a3 != 0\n      : @717 (gas: 1)\n 19617: jump @854\n      : @718 (gas: 8)\n 19620: i32 a0 = t0 + 0x20\n 19623: a2 = s1 + 0x2118\n 19627: u64 [a2 + 1600] = 0\n 19631: u64 [a2 + 1592] = 0\n 19635: u64 [a2 + 1584] = 0\n 19639: a1 = s1 + 0x2740\n 19643: u64 [a2 + 1576] = 0\n 19647: ra = 730, jump @24\n      : @719 [@dyn 365] (gas: 10)\n 19653: a3 = 0x100000000\n 19663: a0 = 0xffffffc0\n 19673: a4 = s1 + 0x100\n 19677: a1 = u64 [a4 + 0x90]\n 19681: a0 = a1 <u a0\n 19684: a2 = u64 [a4 + 0x98]\n 19688: a0 = 0 if a2 != 0\n 19690: a2 = u64 [a4 + 0x78]\n 19693: a0 = 0 if a2 != 0\n 19695: jump @721 if a0 != 0\n      : @720 (gas: 1)\n 19698: jump @854\n      : @721 (gas: 16)\n 19701: i32 a0 = a1 + 0x40\n 19704: a1 = s1 + 0x2118\n 19708: u64 [s1 + 0x158] = a3\n 19712: a3 = a1\n 19714: a1 = u64 [s1 + 0x160]\n 19718: a4 = a3 + 0x600\n 19722: u64 [a4 + 0x8] = a1\n 19725: a1 = u64 [s1 + 0x168]\n 19729: u64 [a4 + 0x10] = a1\n 19732: a1 = u64 [s1 + 0x180]\n 19736: u64 [a4 + 0x18] = a1\n 19739: a1 = s1 + 0x2720\n 19743: a2 = u64 [s1 + 0x188]\n 19747: u64 [a4 + 0x20] = a2\n 19750: u64 [s1 + 0x188] = a0\n 19754: ra = 732, jump @24\n      : @722 [@dyn 366] (gas: 10)\n 19760: a4 = s1 + 0x100\n 19764: a2 = u64 [a4 + 0x78]\n 19767: a3 = u64 [a4 + 0x98]\n 19771: a1 = u64 [a4 + 0x90]\n 19775: a0 = u64 [a4 + 0x58]\n 19778: a0 = a0 + 0xffffffffffffffa0\n 19781: a0 = a1 <u a0\n 19784: a0 = 0 if a3 != 0\n 19786: a0 = 0 if a2 != 0\n 19788: jump @724 if a0 != 0\n      : @723 (gas: 1)\n 19791: jump @854\n      : @724 (gas: 10)\n 19794: i32 a0 = a1 + 0x60\n 19797: a4 = s1 + 0x2118\n 19801: u64 [a4 + 1536] = 0\n 19805: u64 [a4 + 1528] = 0\n 19809: u64 [a4 + 1520] = 0\n 19813: a1 = s1 + 0x2700\n 19817: a2 = u64 [s1 + 0x170]\n 19821: u64 [a4 + 0x5e8] = a2\n 19825: u64 [s1 + 0x68] = a0\n 19828: ra = 734, jump @24\n      : @725 [@dyn 367] (gas: 9)\n 19834: a3 = s1 + 0x100\n 19838: a1 = u64 [a3 + 0x90]\n 19842: a0 = 0xffffff80\n 19852: a0 = a1 <u a0\n 19855: a2 = u64 [a3 + 0x98]\n 19859: a0 = 0 if a2 != 0\n 19861: a2 = u64 [a3 + 0x78]\n 19864: a0 = 0 if a2 != 0\n 19866: jump @727 if a0 != 0\n      : @726 (gas: 1)\n 19869: jump @854\n      : @727 (gas: 9)\n 19872: i32 a0 = a1 + 0x80\n 19876: a2 = s1 + 0x2118\n 19880: u64 [a2 + 1504] = 0\n 19884: u64 [a2 + 1496] = 0\n 19888: u64 [a2 + 1488] = 0\n 19892: a1 = s1 + 0x26e0\n 19896: u64 [a2 + 1480] = 0\n 19900: u64 [s1 + 0x20] = a0\n 19903: ra = 736, jump @24\n      : @728 [@dyn 368] (gas: 6)\n 19909: a0 = u64 [s1 + 0xc0]\n 19913: ra = 0x2e2\n 19917: ecalli 4 // 'caller'\n 19919: a2 = u64 [s1 + 0xd8]\n 19923: t0 = 0x2e4\n 19927: jump @1521\n      : @729 [@dyn 369] (gas: 2)\n 19930: a2 = u64 [s1 + 0xd8]\n 19934: t0 = 740, jump @1521\n      : @730 [@dyn 370] (gas: 8)\n 19940: u64 [a2 + 1472] = 0\n 19944: a4 = a2 + 0x500\n 19948: u64 [a4 + 0xb8] = a1\n 19952: u64 [a4 + 0xb0] = a0\n 19956: a1 = s1 + 0x26c0\n 19960: u64 [a4 + 0xa8] = a3\n 19964: a0 = 0\n 19966: ra = 742, jump @24\n      : @731 [@dyn 371] (gas: 9)\n 19972: a1 = s1 + 0x2118\n 19976: u64 [a1 + 1440] = 0\n 19980: u64 [a1 + 1432] = 0\n 19984: u64 [a1 + 1416] = 0x2\n 19989: a2 = a1\n 19991: a0 = 0x20\n 19994: a1 = s1 + 0x26a0\n 19998: u64 [a2 + 1424] = 0\n 20002: ra = 744, jump @24\n      : @732 [@dyn 372] (gas: 3)\n 20008: a1 = u64 [s1 + 0xa8]\n 20012: a0 = i32 [a1]\n 20014: jump @734 if a0 >u 63\n      : @733 (gas: 2)\n 20018: u32 [a1 + 0] = 0x40\n 20021: fallthrough\n      : @734 (gas: 14)\n 20022: a1 = 0xffffffff00000000\n 20032: u64 [s1 + 0x78] = a1\n 20035: a0 = 0xffffffff\n 20045: u64 [s1 + 0x70] = a0\n 20048: a0 = sp + 0xffffffffffffffe0\n 20051: a0 = a0 & 0xffffffffffffffe0\n 20054: u64 [s1 + 0x198] = a0\n 20058: sp = a0\n 20060: i32 a2 = a0 + 0\n 20062: a1 = 0x40\n 20065: a0 = u64 [s1 + 0xa0]\n 20069: ra = 0x2ea\n 20073: ecalli 8 // 'hash_keccak_256'\n 20075: fallthrough\n      : @735 [@dyn 373] (gas: 14)\n 20076: a3 = u64 [s1 + 0x198]\n 20080: a0 = u64 [a3 + 0x18]\n 20083: a1 = u64 [a3 + 0x10]\n 20086: a2 = u64 [a3 + 0x8]\n 20089: a3 = u64 [a3]\n 20091: a0 = reverse a0\n 20093: u64 [s1 + 0x180] = a0\n 20097: a0 = reverse a1\n 20099: u64 [s1 + 0x178] = a0\n 20103: a0 = reverse a2\n 20105: u64 [s1 + 0x170] = a0\n 20109: a0 = reverse a3\n 20111: u64 [s1 + 0x168] = a0\n 20115: t0 = 748, jump @1564\n      : @736 [@dyn 374] (gas: 13)\n 20121: a2 = s1 + 0x2118\n 20125: a0 = u64 [s1 + 0x108]\n 20129: a3 = a2 + 0x500\n 20133: u64 [a3 + 0x80] = a0\n 20137: a0 = u64 [s1 + 0x100]\n 20141: u64 [a3 + 0x78] = a0\n 20144: a0 = u64 [s1 + 0xf8]\n 20148: u64 [a3 + 0x70] = a0\n 20151: a1 = s1 + 0x2680\n 20155: a0 = u64 [s1 + 0xf0]\n 20159: u64 [a3 + 0x68] = a0\n 20162: a0 = 0\n 20164: ra = 750, jump @24\n      : @737 [@dyn 375] (gas: 15)\n 20170: a1 = s1 + 0x2118\n 20174: a4 = s1 + 0x100\n 20178: a0 = u64 [a4 + 0x68]\n 20181: a2 = a1 + 0x500\n 20185: u64 [a2 + 0x60] = a0\n 20188: a0 = u64 [a4 + 0x70]\n 20191: u64 [a2 + 0x58] = a0\n 20194: a0 = u64 [a4 + 0x78]\n 20197: u64 [a2 + 0x50] = a0\n 20200: a3 = a1\n 20202: a0 = 0x20\n 20205: a1 = s1 + 0x2660\n 20209: a2 = u64 [a4 + 0x80]\n 20213: u64 [a3 + 0x548] = a2\n 20217: ra = 752, jump @24\n      : @738 [@dyn 376] (gas: 3)\n 20223: a1 = u64 [s1 + 0xa8]\n 20227: a0 = i32 [a1]\n 20229: jump @740 if a0 >u 63\n      : @739 (gas: 2)\n 20233: u32 [a1 + 0] = 0x40\n 20236: fallthrough\n      : @740 (gas: 29)\n 20237: a0 = sp + 0xffffffffffffffe0\n 20240: a0 = a0 & 0xffffffffffffffe0\n 20243: u64 [s1 + 0x180] = a0\n 20247: sp = a0\n 20249: i32 a2 = a0 + 0\n 20251: a1 = 0x40\n 20254: a0 = u64 [s1 + 0xa0]\n 20258: ecalli 8 // 'hash_keccak_256'\n 20260: a3 = u64 [s1 + 0x180]\n 20264: a0 = u64 [a3 + 0x18]\n 20267: a1 = u64 [a3 + 0x10]\n 20270: a2 = u64 [a3 + 0x8]\n 20273: a3 = u64 [a3]\n 20275: a5 = reverse a0\n 20277: u64 [s1 + 0x48] = a5\n 20280: a4 = reverse a1\n 20282: u64 [s1 + 0x50] = a4\n 20285: a1 = reverse a2\n 20287: u64 [s1 + 0x60] = a1\n 20290: a0 = reverse a3\n 20292: u64 [s1 + 0x58] = a0\n 20295: a2 = u64 [s1 + 0x198]\n 20299: u64 [a2 + 0x18] = a0\n 20302: u64 [a2 + 0x10] = a1\n 20305: u64 [a2 + 0x8] = a4\n 20308: u64 [a2] = a5\n 20310: a0 = s1 + 0x2640\n 20314: a1 = u64 [s1 + 0x190]\n 20318: ra = 754, jump @22\n      : @741 [@dyn 377] (gas: 8)\n 20324: a0 = s1 + 0x2118\n 20328: a0 = u64 [a0 + 0x528]\n 20332: a1 = u64 [s1 + 0x70]\n 20335: a0 = a0 & a1\n 20338: u64 [s1 + 0x190] = a0\n 20342: a0 = s1 + 0x2620\n 20346: a1 = u64 [s1 + 0x198]\n 20350: ra = 756, jump @26\n      : @742 [@dyn 378] (gas: 22)\n 20356: a3 = s1 + 0x2118\n 20360: a4 = a3 + 0x500\n 20364: a0 = u64 [a4 + 0x10]\n 20367: a1 = u64 [a4 + 0x18]\n 20370: a2 = u64 [a4 + 0x20]\n 20373: a3 = u64 [a4 + 0x8]\n 20376: a0 = a0 & 0xffffffffffffffff\n 20379: a1 = a1 & 0xffffffffffffffff\n 20382: a2 = a2 & 0xffffffffffffffff\n 20385: a4 = u64 [s1 + 0x78]\n 20388: a3 = a3 & a4\n 20391: a4 = u64 [s1 + 0x190]\n 20395: a3 = a3 | a4\n 20398: a4 = s1 + 0x3138\n 20402: a5 = a4 + 0x100\n 20406: u64 [a5 + 0x60] = a2\n 20409: u64 [a5 + 0x58] = a1\n 20412: u64 [a5 + 0x50] = a0\n 20415: u64 [a5 + 0x48] = a3\n 20418: a1 = s1 + 0x3280\n 20422: a0 = u64 [s1 + 0x198]\n 20426: ra = 758, jump @28\n      : @743 [@dyn 379] (gas: 3)\n 20432: a0 = s1 + 0x2600\n 20436: a1 = u64 [s1 + 0x138]\n 20440: ra = 760, jump @22\n      : @744 [@dyn 380] (gas: 11)\n 20446: a0 = s1 + 0x2118\n 20450: a2 = a0 + 0x400\n 20454: a1 = u64 [a2 + 0xf8]\n 20458: u64 [s1 + 0x190] = a1\n 20462: a1 = u64 [a2 + 0xf0]\n 20466: u64 [s1 + 0x180] = a1\n 20470: a1 = u64 [a2 + 0xe8]\n 20474: u64 [s1 + 0x178] = a1\n 20478: a0 = s1 + 0x25e0\n 20482: a1 = u64 [s1 + 0x198]\n 20486: ra = 762, jump @26\n      : @745 [@dyn 381] (gas: 23)\n 20492: a1 = s1 + 0x2118\n 20496: a0 = u64 [a1 + 0x4e0]\n 20500: a1 = u32 [a1 + 0x4c8]\n 20504: a5 = u64 [s1 + 0x178]\n 20508: a2 = a5 >> 0x20\n 20511: a4 = u64 [s1 + 0x180]\n 20515: a3 = a4 << 0x20\n 20518: a2 = a2 | a3\n 20521: a3 = a4 >> 0x20\n 20524: a4 = u64 [s1 + 0x190]\n 20528: a4 = a4 << 0x20\n 20531: a3 = a3 | a4\n 20534: a4 = a5 << 0x20\n 20537: a1 = a1 | a4\n 20540: a4 = s1 + 0x3138\n 20544: a5 = a4 + 0x100\n 20548: u64 [a5 + 0x78] = a3\n 20551: u64 [a5 + 0x70] = a2\n 20554: u64 [a5 + 0x80] = a0\n 20558: u64 [a5 + 0x68] = a1\n 20561: a1 = s1 + 0x32a0\n 20565: a0 = u64 [s1 + 0x198]\n 20569: ra = 764, jump @28\n      : @746 [@dyn 382] (gas: 27)\n 20575: a0 = sp + 0xffffffffffffffe0\n 20578: a1 = a0 & 0xffffffffffffffe0\n 20581: sp = a1\n 20583: a2 = u64 [s1 + 0x48]\n 20586: a2 = a2 + 0x1\n 20589: a0 = a2 <u 0x1\n 20592: a3 = u64 [s1 + 0x50]\n 20595: a3 = a3 + a0\n 20598: a0 = a2 | a3\n 20601: a0 = a0 <u 0x1\n 20604: a5 = u64 [s1 + 0x60]\n 20607: a4 = a5 + a0\n 20610: a0 = a4 <u a5\n 20613: a5 = u64 [s1 + 0x58]\n 20616: a0 = a0 + a5\n 20619: u64 [s1 + 0x148] = a0\n 20623: u64 [a1 + 0x18] = a0\n 20626: u64 [s1 + 0x138] = a4\n 20630: u64 [a1 + 0x10] = a4\n 20633: u64 [s1 + 0x140] = a3\n 20637: u64 [a1 + 0x8] = a3\n 20640: u64 [s1 + 0x38] = a1\n 20643: u64 [s1 + 0x150] = a2\n 20647: u64 [a1] = a2\n 20649: a0 = s1 + 0x25c0\n 20653: a1 = u64 [s1 + 0x188]\n 20657: ra = 766, jump @22\n      : @747 [@dyn 383] (gas: 18)\n 20663: a0 = s1 + 0x2118\n 20667: a5 = a0 + 0x400\n 20671: a3 = u64 [a5 + 0xc0]\n 20675: a4 = u64 [a5 + 0xb8]\n 20679: a2 = u64 [a5 + 0xb0]\n 20683: a1 = u64 [a5 + 0xa8]\n 20687: a5 = s1 + 0x100\n 20691: u64 [a5 + 0x30] = a2\n 20694: u64 [a5 + 0x28] = a3\n 20697: a0 = a2 | a3\n 20700: a2 = a1 | a4\n 20703: a2 = a2 | a0\n 20706: a2 = a2 >> 0x20\n 20709: u64 [a5 + 0x20] = a4\n 20712: a0 = a0 | a4\n 20715: a0 = a0 << 0x20\n 20718: a0 = a0 | a2\n 20721: jump @749 if a0 == 0\n      : @748 (gas: 1)\n 20724: jump @854\n      : @749 (gas: 3)\n 20727: a0 = s1 + 0x25a0\n 20731: u64 [s1 + 0x118] = a1\n 20735: ra = 768, jump @22\n      : @750 [@dyn 384] (gas: 18)\n 20741: a2 = s1 + 0x2118\n 20745: a0 = a2 + 0x400\n 20749: a4 = u64 [a0 + 0xa0]\n 20753: a3 = u64 [a0 + 0x98]\n 20757: a1 = u64 [a0 + 0x90]\n 20761: a0 = a4 >u 0\n 20763: a5 = a3 >u 0\n 20765: a5 = a0 if a4 != 0\n 20768: u64 [s1 + 0x40] = a1\n 20771: a0 = a1 >u 0\n 20773: u64 [s1 + 0x30] = a3\n 20776: u64 [s1 + 0x28] = a4\n 20779: a3 = a3 | a4\n 20782: u64 [s1 + 0x8] = a0\n 20785: u64 [s1 + 0x10] = a5\n 20788: u64 [s1 + 0x110] = a3\n 20792: a0 = a5 if a3 != 0\n 20795: jump @752 if a0 == 0\n      : @751 (gas: 1)\n 20798: jump @962\n      : @752 (gas: 5)\n 20801: a0 = u64 [a2 + 0x488]\n 20805: u64 [s1 + 0x80] = a0\n 20809: a0 = s1 + 0x2580\n 20813: a1 = u64 [s1 + 0x38]\n 20816: ra = 770, jump @26\n      : @753 [@dyn 385] (gas: 13)\n 20822: a4 = s1 + 0x2118\n 20826: a5 = a4 + 0x400\n 20830: a2 = u64 [a5 + 0x68]\n 20833: a0 = u64 [a5 + 0x70]\n 20836: a1 = u64 [a5 + 0x78]\n 20839: a3 = u64 [a5 + 0x80]\n 20843: u64 [a5 + 0x40] = a3\n 20846: u64 [a5 + 0x38] = a1\n 20849: u64 [a5 + 0x30] = a0\n 20852: a0 = s1 + 0x2560\n 20856: a1 = s1 + 0x2540\n 20860: u64 [a5 + 0x28] = a2\n 20863: ra = 772, jump @1327\n      : @754 [@dyn 386] (gas: 23)\n 20869: a0 = s1 + 0x2118\n 20873: a1 = a0 + 0x400\n 20877: a3 = u64 [a1 + 0x60]\n 20880: a4 = u64 [a1 + 0x58]\n 20883: a5 = u64 [a1 + 0x50]\n 20886: a2 = u64 [a1 + 0x48]\n 20889: a0 = a3 >u 0\n 20891: a1 = a4 >u 0\n 20893: a1 = a0 if a3 != 0\n 20896: a0 = a5 >u 0\n 20898: u64 [s1 + 0x178] = a2\n 20902: a2 = a2 <u 0x20\n 20905: a2 = a2 ^ 0x1\n 20908: u64 [s1 + 0x180] = a5\n 20912: a2 = a0 if a5 != 0\n 20915: u64 [s1 + 0x188] = a3\n 20919: u64 [s1 + 0x190] = a4\n 20923: a0 = a4 | a3\n 20926: a2 = a1 if a0 != 0\n 20929: a0 = u64 [s1 + 0x80]\n 20933: a0 = a0 <u 0x20\n 20936: u64 [s1 + 0x18] = a0\n 20939: jump @790 if a2 == 0\n      : @755 (gas: 14)\n 20943: a0 = s1 + 0x2118\n 20947: a3 = s1 + 0x100\n 20951: a1 = u64 [a3 + 0x50]\n 20954: a4 = a0 + 0x400\n 20958: u64 [a4 + 0x8] = a1\n 20961: a1 = u64 [a3 + 0x40]\n 20964: u64 [a4 + 0x10] = a1\n 20967: a1 = u64 [a3 + 0x38]\n 20970: u64 [a4 + 0x18] = a1\n 20973: a1 = s1 + 0x2520\n 20977: a2 = u64 [a3 + 0x48]\n 20980: u64 [a4 + 0x20] = a2\n 20983: a0 = 0\n 20985: ra = 774, jump @24\n      : @756 [@dyn 387] (gas: 3)\n 20991: a0 = u64 [s1 + 0xa8]\n 20995: a0 = i32 [a0]\n 20997: jump @758 if a0 >u 31\n      : @757 (gas: 3)\n 21001: a1 = u64 [s1 + 0xa8]\n 21005: u32 [a1 + 0] = 0x20\n 21008: fallthrough\n      : @758 (gas: 117)\n 21009: a0 = sp + 0xffffffffffffffe0\n 21012: a0 = a0 & 0xffffffffffffffe0\n 21015: u64 [s1 + 0x168] = a0\n 21019: sp = a0\n 21021: i32 a2 = a0 + 0\n 21023: a1 = 0x20\n 21026: a0 = u64 [s1 + 0xa0]\n 21030: ecalli 8 // 'hash_keccak_256'\n 21032: a0 = u64 [s1 + 0x80]\n 21036: a1 = a0 + 0x1f\n 21039: a0 = a1 <u a0\n 21042: a5 = u64 [s1 + 0x40]\n 21045: a2 = a5 + a0\n 21048: a3 = a2 <u a5\n 21051: a3 = a0 if a0 == 0\n 21054: a4 = u64 [s1 + 0x30]\n 21057: a3 = a3 + a4\n 21060: u64 [s1 + 0x160] = a3\n 21064: a3 = a3 << 0x3b\n 21067: a4 = a2 >> 0x5\n 21070: a4 = a4 | a3\n 21073: a0 = u64 [s1 + 0x168]\n 21077: t1 = u64 [a0 + 0x18]\n 21080: a2 = a2 << 0x3b\n 21083: a3 = u64 [a0 + 0x10]\n 21086: a1 = a1 >> 0x5\n 21089: a0 = a1 | a2\n 21092: t2 = reverse t1\n 21094: a2 = reverse a3\n 21096: a1 = u64 [s1 + 0x18]\n 21099: a1 = 0 if a5 != 0\n 21101: a3 = u64 [s1 + 0x110]\n 21105: a1 = 0 if a3 != 0\n 21107: a4 = 0 if a1 != 0\n 21109: a0 = 0 if a1 != 0\n 21111: t0 = t2 + a0\n 21114: a0 = t0 <u t2\n 21117: a5 = a2 + a0\n 21120: a4 = a4 + a5\n 21123: u64 [s1 + 0x198] = a4\n 21127: a5 = a4 ^ a2\n 21130: a3 = a4 <u a2\n 21133: a3 = a0 if a5 == 0\n 21136: u64 [s1 + 0x158] = a3\n 21140: a0 = u64 [s1 + 0x178]\n 21144: ra = a0 + 0x1f\n 21147: a4 = ra <u a0\n 21150: a3 = u64 [s1 + 0x180]\n 21154: a0 = a3 + a4\n 21157: a5 = a0 <u a3\n 21160: a5 = a4 if a4 == 0\n 21163: t1 = u64 [s1 + 0x190]\n 21167: t1 = t1 + a5\n 21170: a4 = t1 << 0x3b\n 21173: a3 = a0 >> 0x5\n 21176: a3 = a3 | a4\n 21179: a0 = a0 << 0x3b\n 21182: a4 = ra >> 0x5\n 21185: a0 = a0 | a4\n 21188: a0 = a0 + t2\n 21191: u64 [s1 + 0x178] = a0\n 21195: a0 = a0 <u t2\n 21198: t2 = t0\n 21200: a4 = a2 + a0\n 21203: a4 = a4 + a3\n 21206: a3 = a4 ^ a2\n 21209: u64 [s1 + 0x170] = a4\n 21213: a2 = a4 <u a2\n 21216: a2 = a0 if a3 == 0\n 21219: a4 = u64 [s1 + 0x160]\n 21223: a0 = u64 [s1 + 0x30]\n 21226: a0 = a4 <u a0\n 21229: a3 = u64 [s1 + 0x28]\n 21232: a0 = a0 + a3\n 21235: a3 = a4 >> 0x5\n 21238: a4 = a0 << 0x3b\n 21241: a3 = a3 | a4\n 21244: a4 = u64 [s1 + 0x168]\n 21248: t0 = u64 [a4]\n 21250: a4 = u64 [a4 + 0x8]\n 21253: a0 = a0 >> 0x5\n 21256: a3 = 0 if a1 != 0\n 21258: a0 = 0 if a1 != 0\n 21260: a1 = reverse a4\n 21262: a4 = reverse t0\n 21264: a0 = a0 + a4\n 21267: a3 = a3 + a1\n 21270: a5 = a3 <u a1\n 21273: a0 = a0 + a5\n 21276: ra = u64 [s1 + 0x158]\n 21280: ra = ra + a3\n 21283: a3 = ra <u a3\n 21286: t0 = a0 + a3\n 21289: a0 = u64 [s1 + 0x190]\n 21293: a0 = t1 <u a0\n 21296: a3 = u64 [s1 + 0x188]\n 21300: a0 = a0 + a3\n 21303: a3 = t1 >> 0x5\n 21306: a5 = a0 << 0x3b\n 21309: a3 = a3 | a5\n 21312: a0 = a0 >> 0x5\n 21315: a0 = a0 + a4\n 21318: a5 = s1 + 0x100\n 21322: a4 = u64 [a5 + 0x98]\n 21326: a3 = a3 + a1\n 21329: a1 = a3 <u a1\n 21332: a0 = a0 + a1\n 21335: a2 = a2 + a3\n 21338: u64 [a5 + 0x68] = a2\n 21341: a1 = a2 <u a3\n 21344: a0 = a0 + a1\n 21347: u64 [a5 + 0x60] = a0\n 21350: a0 = sp + 0xffffffffffffffe0\n 21353: t1 = a0 & 0xffffffffffffffe0\n 21356: sp = t1\n 21358: u64 [s1 + 0x158] = t1\n 21362: fallthrough\n      : @759 (gas: 24)\n 21363: a0 = u64 [s1 + 0x178]\n 21367: a0 = t2 <u a0\n 21370: a2 = u64 [s1 + 0x170]\n 21374: a1 = a4 ^ a2\n 21377: a2 = a4 <u a2\n 21380: a2 = a0 if a1 == 0\n 21383: a5 = u64 [s1 + 0x168]\n 21387: a0 = ra <u a5\n 21390: a3 = u64 [s1 + 0x160]\n 21394: a1 = t0 ^ a3\n 21397: a3 = t0 <u a3\n 21400: a3 = a0 if a1 == 0\n 21403: a0 = ra ^ a5\n 21406: a0 = a0 | a1\n 21409: a3 = a2 if a0 == 0\n 21412: u64 [s1 + 0x190] = t2\n 21416: u64 [t1] = t2\n 21418: u64 [s1 + 0x198] = a4\n 21422: u64 [t1 + 0x8] = a4\n 21425: u64 [s1 + 0x180] = ra\n 21429: u64 [t1 + 0x10] = ra\n 21432: u64 [s1 + 0x188] = t0\n 21436: u64 [t1 + 0x18] = t0\n 21439: jump @790 if a3 == 0\n      : @760 (gas: 8)\n 21443: a0 = s1 + 0x3138\n 21447: u64 [a0 + 416] = 0\n 21451: u64 [a0 + 408] = 0\n 21455: u64 [a0 + 400] = 0\n 21459: u64 [a0 + 392] = 0\n 21463: a1 = s1 + 0x32c0\n 21467: a0 = t1\n 21469: ra = 776, jump @28\n      : @761 [@dyn 388] (gas: 15)\n 21475: t1 = u64 [s1 + 0x158]\n 21479: t2 = u64 [s1 + 0x190]\n 21483: t2 = t2 + 0x1\n 21486: a0 = t2 <u 0x1\n 21489: a4 = u64 [s1 + 0x198]\n 21493: a4 = a4 + a0\n 21496: a0 = t2 | a4\n 21499: a0 = a0 <u 0x1\n 21502: a1 = u64 [s1 + 0x180]\n 21506: a0 = a0 + a1\n 21509: a1 = a0 <u a1\n 21512: t0 = u64 [s1 + 0x188]\n 21516: t0 = t0 + a1\n 21519: ra = a0\n 21521: jump @759\n      : @762 (gas: 2)\n 21524: a5 = s1 + 0x1118\n 21528: fallthrough\n      : @763 (gas: 26)\n 21529: a1 = u64 [s1 + 0x198]\n 21533: a0 = a1 + 0x20\n 21536: a1 = a0 <u a1\n 21539: a2 = t2 + a1\n 21542: a3 = a2 <u t2\n 21545: a3 = a1 if a1 == 0\n 21548: a3 = a3 + t1\n 21551: a1 = a3 <u t1\n 21554: a4 = u64 [s1 + 0x190]\n 21558: a4 = a4 + a1\n 21561: a1 = u64 [s1 + 0x108]\n 21565: u64 [a5 + 0x768] = a1\n 21569: u64 [a5 + 0x748] = a0\n 21573: a0 = u64 [s1 + 0x100]\n 21577: u64 [a5 + 0x770] = a0\n 21581: a0 = u64 [s1 + 0xf8]\n 21585: u64 [a5 + 0x778] = a0\n 21589: u64 [a5 + 0x750] = a2\n 21593: a0 = u64 [s1 + 0x110]\n 21597: a2 = a5 + 0x700\n 21601: u64 [a2 + 0x80] = a0\n 21605: u64 [a2 + 0x58] = a3\n 21608: a0 = s1 + 0x1880\n 21612: a1 = s1 + 0x1860\n 21616: u64 [a2 + 0x60] = a4\n 21619: ra = 778, jump @1345\n      : @764 [@dyn 389] (gas: 5)\n 21625: a1 = u64 [s1 + 0xd8]\n 21629: a0 = a1 + 0x2\n 21632: a1 = a0 <u a1\n 21635: a3 = u64 [s1 + 0xe0]\n 21639: t0 = 780, jump @1571\n      : @765 [@dyn 390] (gas: 14)\n 21645: a1 = u64 [s1 + 0xf0]\n 21649: a3 = a3 + a1\n 21652: a1 = a3 <u a1\n 21655: a4 = u64 [s1 + 0xe8]\n 21659: a1 = a1 + a4\n 21662: a4 = s1 + 0x2938\n 21666: a5 = a4 + 0x700\n 21670: u64 [a5 + 0xa0] = a1\n 21674: u64 [a5 + 0x98] = a3\n 21678: u64 [a5 + 0x90] = a2\n 21682: u64 [a5 + 0x88] = a0\n 21686: a0 = s1 + 0x1840\n 21690: a1 = s1 + 0x30c0\n 21694: ra = 782, jump @26\n      : @766 [@dyn 391] (gas: 8)\n 21700: a1 = s1 + 0x1118\n 21704: a0 = u64 [a1 + 0x730]\n 21708: u64 [s1 + 0x178] = a0\n 21712: a0 = u64 [a1 + 0x728]\n 21716: u64 [s1 + 0x170] = a0\n 21720: a0 = s1 + 0x1820\n 21724: a1 = 0x40\n 21727: ra = 784, jump @22\n      : @767 [@dyn 392] (gas: 14)\n 21733: a4 = s1 + 0x1118\n 21737: t0 = u64 [a4 + 0x720]\n 21741: a1 = a4 + 0x700\n 21745: a3 = u64 [a1 + 0x18]\n 21748: a5 = u64 [a1 + 0x10]\n 21751: a0 = u64 [a1 + 0x8]\n 21754: a2 = a5 | t0\n 21757: a1 = a0 | a3\n 21760: a1 = a1 | a2\n 21763: a1 = a1 >> 0x20\n 21766: a2 = a2 | a3\n 21769: a2 = a2 << 0x20\n 21772: a1 = a1 | a2\n 21775: jump @854 if a1 != 0\n      : @768 (gas: 13)\n 21779: a1 = u64 [s1 + 0xd0]\n 21783: a1 = a1 << 0x20\n 21786: u64 [s1 + 0x188] = a3\n 21790: a3 = a1 >> 0x20\n 21793: u64 [a4 + 1792] = 0\n 21797: u64 [a4 + 1784] = 0\n 21801: u64 [a4 + 1776] = 0\n 21805: a1 = s1 + 0x1800\n 21809: u64 [a4 + 0x6e8] = a3\n 21813: u64 [s1 + 0x198] = a0\n 21817: u64 [s1 + 0x180] = t0\n 21821: u64 [s1 + 0x190] = a5\n 21825: ra = 786, jump @24\n      : @769 [@dyn 393] (gas: 6)\n 21831: a5 = s1 + 0x100\n 21835: a1 = u64 [a5 + 0x98]\n 21839: a0 = u64 [a5 + 0x88]\n 21843: a2 = u64 [a5 + 0x80]\n 21847: a3 = a0 | a2\n 21850: t0 = 788, jump @1570\n      : @770 [@dyn 394] (gas: 1)\n 21856: jump @854 if a0 == 0\n      : @771 (gas: 24)\n 21860: t0 = 0xffffffff\n 21870: a2 = u64 [s1 + 0xd0]\n 21874: a2 = a2 >> 0x20\n 21877: u64 [s1 + 0x160] = a4\n 21881: a4 = u64 [s1 + 0xc0]\n 21885: u64 [s1 + 0x168] = a3\n 21889: a3 = a4 << 0x20\n 21892: a2 = a2 | a3\n 21895: a3 = a4 >> 0x20\n 21898: a5 = u64 [s1 + 0xc8]\n 21902: a4 = a5 << 0x20\n 21905: a3 = a3 | a4\n 21908: a4 = a5 >> 0x20\n 21911: a3 = a3 & 0xffffffffffffffff\n 21914: a2 = a2 & 0xffffffffffffffff\n 21917: a4 = a4 & t0\n 21920: i32 a0 = a1 + 0x20\n 21923: a5 = s1 + 0x1118\n 21927: u64 [a5 + 1760] = 0\n 21931: u64 [a5 + 0x6d8] = a4\n 21935: u64 [a5 + 0x6c8] = a2\n 21939: a1 = s1 + 0x17e0\n 21943: u64 [a5 + 0x6d0] = a3\n 21947: ra = 790, jump @24\n      : @772 [@dyn 395] (gas: 10)\n 21953: a3 = s1 + 0x100\n 21957: a1 = u64 [a3 + 0x98]\n 21961: a0 = u64 [a3 + 0x60]\n 21964: a0 = a0 + 0xffffffffffffffc0\n 21967: a0 = a1 <u a0\n 21970: a2 = u64 [a3 + 0x90]\n 21974: a0 = 0 if a2 != 0\n 21976: a2 = u64 [a3 + 0x68]\n 21979: a0 = 0 if a2 != 0\n 21981: jump @854 if a0 == 0\n      : @773 (gas: 8)\n 21985: i32 a0 = a1 + 0x40\n 21988: a2 = s1 + 0x1118\n 21992: u64 [a2 + 1728] = 0\n 21996: u64 [a2 + 1720] = 0\n 22000: u64 [a2 + 1704] = 0xa0\n 22006: a1 = s1 + 0x17c0\n 22010: u64 [a2 + 1712] = 0\n 22014: ra = 792, jump @24\n      : @774 [@dyn 396] (gas: 3)\n 22020: a0 = s1 + 0x17a0\n 22024: a1 = u64 [s1 + 0x108]\n 22028: ra = 794, jump @22\n      : @775 [@dyn 397] (gas: 10)\n 22034: a5 = s1 + 0x100\n 22038: a3 = u64 [a5 + 0x68]\n 22041: a1 = u64 [a5 + 0x98]\n 22045: a4 = 0x100000000\n 22055: a0 = 0xffffff60\n 22065: a0 = a1 <u a0\n 22068: a2 = u64 [a5 + 0x90]\n 22072: a0 = 0 if a2 != 0\n 22074: a0 = 0 if a3 != 0\n 22076: jump @854 if a0 == 0\n      : @776 (gas: 18)\n 22080: a0 = s1 + 0x1118\n 22084: u64 [s1 + 0x160] = a4\n 22088: a4 = a0\n 22090: t0 = u64 [a0 + 0x6a0]\n 22094: t1 = u64 [a0 + 0x698]\n 22098: a5 = u64 [a0 + 0x690]\n 22102: a2 = u64 [a0 + 0x688]\n 22106: i32 a0 = a1 + 0xa0\n 22110: u64 [s1 + 0x158] = a2\n 22114: u64 [a4 + 0x668] = a2\n 22118: u64 [s1 + 0x140] = a5\n 22122: u64 [a4 + 0x670] = a5\n 22126: u64 [s1 + 0x150] = t1\n 22130: u64 [a4 + 0x678] = t1\n 22134: a1 = s1 + 0x1780\n 22138: u64 [s1 + 0x148] = t0\n 22142: u64 [a4 + 0x680] = t0\n 22146: ra = 796, jump @24\n      : @777 [@dyn 398] (gas: 10)\n 22152: a4 = s1 + 0x100\n 22156: a3 = u64 [a4 + 0x90]\n 22160: a2 = u64 [a4 + 0x98]\n 22164: a0 = u64 [a4 + 0x60]\n 22167: a0 = a0 + 0xffffffffffffff40\n 22171: a0 = a2 <u a0\n 22174: a0 = 0 if a3 != 0\n 22176: a1 = u64 [a4 + 0x68]\n 22179: a0 = 0 if a1 != 0\n 22181: jump @854 if a0 == 0\n      : @778 (gas: 8)\n 22185: a0 = 0xffffffe0\n 22195: a1 = u64 [s1 + 0x108]\n 22199: a0 = a1 <u a0\n 22202: a1 = u64 [s1 + 0x100]\n 22206: a0 = 0 if a1 != 0\n 22208: a1 = u64 [s1 + 0xb8]\n 22212: a0 = 0 if a1 != 0\n 22214: jump @854 if a0 == 0\n      : @779 (gas: 12)\n 22218: a1 = u64 [s1 + 0x158]\n 22222: a5 = u64 [s1 + 0x150]\n 22226: a0 = a1 | a5\n 22229: t0 = u64 [s1 + 0x148]\n 22233: t1 = u64 [s1 + 0x140]\n 22237: a4 = t1 | t0\n 22240: a0 = a0 | a4\n 22243: a0 = a0 >> 0x20\n 22246: a4 = a4 | a5\n 22249: a4 = a4 << 0x20\n 22252: a0 = a0 | a4\n 22255: jump @854 if a0 != 0\n      : @780 (gas: 2)\n 22259: i32 a0 = a2 + 0xc0\n 22263: ra = 798, jump @37\n      : @781 [@dyn 399] (gas: 4)\n 22269: u64 [s1 + 0x168] = a0\n 22273: a0 = u64 [s1 + 0x138]\n 22277: a1 = u64 [s1 + 0x158]\n 22281: ra = 800, jump @37\n      : @782 [@dyn 400] (gas: 4)\n 22287: a1 = a0\n 22289: a0 = u64 [s1 + 0x168]\n 22293: a2 = u64 [s1 + 0x158]\n 22297: ra = 802, jump @0\n      : @783 [@dyn 401] (gas: 29)\n 22303: a1 = u64 [s1 + 0x158]\n 22307: a0 = u64 [s1 + 0x198]\n 22311: a0 = a0 + a1\n 22314: a2 = a0 <u a1\n 22317: a4 = u64 [s1 + 0x140]\n 22321: a1 = u64 [s1 + 0x190]\n 22325: a1 = a1 + a4\n 22328: a1 = a1 + a2\n 22331: a3 = a1 ^ a4\n 22334: a4 = a1 <u a4\n 22337: a4 = a2 if a3 == 0\n 22340: a2 = u64 [s1 + 0x180]\n 22344: a3 = u64 [s1 + 0x148]\n 22348: a2 = a2 + a3\n 22351: a3 = u64 [s1 + 0x188]\n 22355: a5 = u64 [s1 + 0x150]\n 22359: a3 = a3 + a5\n 22362: a4 = a4 + a3\n 22365: a5 = a3 <u a5\n 22368: a3 = a4 <u a3\n 22371: a2 = a2 + a5\n 22374: a2 = a2 + a3\n 22377: a2 = a2 | a4\n 22380: a3 = 0xffffff40\n 22390: u64 [s1 + 0x190] = a3\n 22394: a3 = a0 <u a3\n 22397: a3 = 0 if a1 != 0\n 22399: a3 = 0 if a2 != 0\n 22401: jump @854 if a3 == 0\n      : @784 (gas: 8)\n 22405: i32 a0 = a0 + 0xc0\n 22409: a2 = s1 + 0x1118\n 22413: u64 [a2 + 1632] = 0\n 22417: u64 [a2 + 1624] = 0\n 22421: u64 [a2 + 1616] = 0\n 22425: a1 = s1 + 0x1760\n 22429: u64 [a2 + 1608] = 0\n 22433: ra = 804, jump @24\n      : @785 [@dyn 402] (gas: 10)\n 22439: a0 = u64 [s1 + 0x198]\n 22443: i32 a0 = a0 + 0x60\n 22446: a2 = s1 + 0x1118\n 22450: u64 [a2 + 1600] = 0\n 22454: u64 [a2 + 1592] = 0\n 22458: a1 = u64 [s1 + 0x170]\n 22462: u64 [a2 + 0x628] = a1\n 22466: a1 = s1 + 0x1740\n 22470: u64 [a2 + 1584] = 0\n 22474: ra = 806, jump @24\n      : @786 [@dyn 403] (gas: 11)\n 22480: a0 = u8 [s1 + 0x178]\n 22484: a1 = a0 >u 0\n 22486: a0 = u64 [s1 + 0x198]\n 22490: i32 a0 = a0 + 0x80\n 22494: a2 = s1 + 0x1118\n 22498: u64 [a2 + 1568] = 0\n 22502: u64 [a2 + 1560] = 0\n 22506: u64 [a2 + 0x608] = a1\n 22510: a1 = s1 + 0x1720\n 22514: u64 [a2 + 1552] = 0\n 22518: ra = 808, jump @24\n      : @787 [@dyn 404] (gas: 6)\n 22524: a0 = u64 [s1 + 0x158]\n 22528: a0 = a0 + 0x1f\n 22531: a1 = 0x1ffffffe0\n 22541: a0 = a0 & a1\n 22544: a1 = u64 [s1 + 0x190]\n 22548: jump @854 if a0 >=u a1\n      : @788 (gas: 4)\n 22552: i32 a1 = a0 + 0xc0\n 22556: u64 [s1 + 0x190] = a1\n 22560: a0 = u64 [s1 + 0x198]\n 22564: ra = 810, jump @37\n      : @789 [@dyn 405] (gas: 5)\n 22570: i32 a1 = a0 + 0\n 22572: a0 = 0\n 22574: a2 = u64 [s1 + 0x190]\n 22578: ecalli 13 // 'seal_return'\n 22580: fallthrough\n      : @790 (gas: 9)\n 22581: a0 = u64 [s1 + 0x18]\n 22584: a0 = a0 ^ 0x1\n 22587: a1 = u64 [s1 + 0x40]\n 22590: a2 = u64 [s1 + 0x8]\n 22593: a0 = a2 if a1 != 0\n 22596: a1 = u64 [s1 + 0x10]\n 22599: a2 = u64 [s1 + 0x110]\n 22603: a0 = a1 if a2 != 0\n 22606: jump @799 if a0 == 0\n      : @791 (gas: 16)\n 22610: a0 = u64 [s1 + 0x80]\n 22614: a0 = a0 & 0xffffffffffffffe0\n 22617: u64 [s1 + 0x110] = a0\n 22621: a0 = s1 + 0x2118\n 22625: a1 = u64 [s1 + 0x150]\n 22629: a3 = a0 + 0x300\n 22633: u64 [a3 + 0xc8] = a1\n 22637: a1 = u64 [s1 + 0x140]\n 22641: u64 [a3 + 0xd0] = a1\n 22645: a1 = u64 [s1 + 0x138]\n 22649: u64 [a3 + 0xd8] = a1\n 22653: a1 = s1 + 0x24e0\n 22657: a2 = u64 [s1 + 0x148]\n 22661: u64 [a3 + 0xe0] = a2\n 22665: a0 = 0\n 22667: ra = 812, jump @24\n      : @792 [@dyn 406] (gas: 7)\n 22673: a0 = sp + 0xffffffffffffffe0\n 22676: a0 = a0 & 0xffffffffffffffe0\n 22679: u64 [s1 + 0x170] = a0\n 22683: sp = a0\n 22685: a1 = 0x20\n 22688: a0 = 0\n 22690: ra = 814, jump @37\n      : @793 [@dyn 407] (gas: 34)\n 22696: a1 = sp + 0xffffffffffffffe0\n 22699: a1 = a1 & 0xffffffffffffffe0\n 22702: u64 [s1 + 0x168] = a1\n 22706: sp = a1\n 22708: i32 a0 = a0 + 0\n 22710: i32 a2 = a1 + 0\n 22712: a1 = 0x20\n 22715: ecalli 8 // 'hash_keccak_256'\n 22717: u64 [s1 + 408] = 0x20\n 22722: a5 = 0\n 22724: u64 [s1 + 400] = 0\n 22728: u64 [s1 + 392] = 0\n 22732: u64 [s1 + 376] = 0\n 22736: u64 [s1 + 384] = 0\n 22740: a3 = u64 [s1 + 0x168]\n 22744: a0 = u64 [a3 + 0x18]\n 22747: a1 = u64 [a3 + 0x10]\n 22750: a2 = u64 [a3 + 0x8]\n 22753: a3 = u64 [a3]\n 22755: t1 = reverse a0\n 22757: t2 = reverse a1\n 22759: ra = reverse a2\n 22761: a2 = 0\n 22763: a4 = u64 [s1 + 0x178]\n 22767: a0 = reverse a3\n 22769: a3 = 0\n 22771: t0 = a0\n 22773: a1 = u64 [s1 + 0x170]\n 22777: u64 [a1 + 0x18] = a0\n 22780: u64 [s1 + 0x150] = ra\n 22784: u64 [a1 + 0x10] = ra\n 22787: u64 [a1 + 0x8] = t2\n 22790: u64 [a1] = t1\n 22792: fallthrough\n      : @794 (gas: 24)\n 22793: u64 [s1 + 0x168] = t0\n 22797: a0 = u64 [s1 + 0x110]\n 22801: u64 [s1 + 0x178] = a4\n 22805: a0 = a4 <u a0\n 22808: a4 = a0 ^ 0x1\n 22811: u64 [s1 + 0x158] = a3\n 22815: a4 = 0x1 if a3 != 0\n 22818: u64 [s1 + 0x160] = a2\n 22822: a0 = u64 [s1 + 0x180]\n 22826: a0 = a0 | a2\n 22829: a4 = 0x1 if a0 != 0\n 22832: a1 = u64 [s1 + 0x118]\n 22836: a0 = u64 [s1 + 0x198]\n 22840: a1 = a1 + a0\n 22843: a3 = u64 [s1 + 0x130]\n 22847: a3 = a3 + a5\n 22850: a2 = u64 [s1 + 0x120]\n 22854: a0 = u64 [s1 + 0x190]\n 22858: a2 = a2 + a0\n 22861: a0 = u64 [s1 + 0x128]\n 22865: ra = a5\n 22867: a5 = u64 [s1 + 0x188]\n 22871: a0 = a0 + a5\n 22874: jump @801 if a4 != 0\n      : @795 (gas: 23)\n 22878: a4 = u64 [s1 + 0x198]\n 22882: a4 = a1 <u a4\n 22885: a3 = a3 + a4\n 22888: t0 = a3 ^ ra\n 22891: u64 [s1 + 0x138] = ra\n 22895: a5 = a3 <u ra\n 22898: a5 = a4 if t0 == 0\n 22901: a5 = a5 + a2\n 22904: t0 = a5 <u a2\n 22907: a4 = u64 [s1 + 0x190]\n 22911: a2 = a2 <u a4\n 22914: a0 = a0 + a2\n 22917: a0 = a0 + t0\n 22920: a2 = a1 | a5\n 22923: a0 = a0 | a3\n 22926: a2 = a2 | a0\n 22929: a2 = a2 >> 0x20\n 22932: a0 = a0 | a5\n 22935: a0 = a0 << 0x20\n 22938: a0 = a0 | a2\n 22941: u64 [s1 + 0x148] = t1\n 22945: u64 [s1 + 0x140] = t2\n 22949: jump @854 if a0 != 0\n      : @796 (gas: 2)\n 22953: a0 = s1 + 0x2240\n 22957: ra = 816, jump @22\n      : @797 [@dyn 408] (gas: 15)\n 22963: a3 = s1 + 0x2118\n 22967: a4 = a3 + 0x100\n 22971: a0 = u64 [a4 + 0x40]\n 22974: a1 = u64 [a4 + 0x38]\n 22977: a2 = u64 [a4 + 0x30]\n 22980: a3 = u64 [a4 + 0x28]\n 22983: a4 = s1 + 0x3138\n 22987: a5 = a4 + 0x100\n 22991: u64 [a5 + 0xc0] = a0\n 22995: u64 [a5 + 0xb8] = a1\n 22999: u64 [a5 + 0xb0] = a2\n 23003: u64 [a5 + 0xa8] = a3\n 23007: a1 = s1 + 0x32e0\n 23011: a0 = u64 [s1 + 0x170]\n 23015: ra = 818, jump @28\n      : @798 [@dyn 409] (gas: 53)\n 23021: t1 = u64 [s1 + 0x148]\n 23025: t1 = t1 + 0x1\n 23028: a0 = t1 <u 0x1\n 23031: t2 = u64 [s1 + 0x140]\n 23035: t2 = t2 + a0\n 23038: a0 = t1 | t2\n 23041: a0 = a0 <u 0x1\n 23044: a1 = u64 [s1 + 0x150]\n 23048: ra = a1 + a0\n 23051: a1 = ra <u a1\n 23054: a0 = u64 [s1 + 0x168]\n 23058: a0 = a0 + a1\n 23061: a1 = u64 [s1 + 0x198]\n 23065: a2 = a1 + 0x20\n 23068: u64 [s1 + 0x168] = a2\n 23072: a3 = a2 <u a1\n 23075: a1 = u64 [s1 + 0x138]\n 23079: a2 = a1 + a3\n 23082: u64 [s1 + 0x148] = a2\n 23086: a4 = a2 <u a1\n 23089: a4 = a3 if a3 == 0\n 23092: a1 = u64 [s1 + 0x190]\n 23096: a3 = a1 + a4\n 23099: a4 = a3 <u a1\n 23102: a1 = u64 [s1 + 0x188]\n 23106: a1 = a1 + a4\n 23109: u64 [s1 + 0x188] = a1\n 23113: a1 = u64 [s1 + 0x178]\n 23117: a4 = a1 + 0x20\n 23120: a5 = a4 <u a1\n 23123: a2 = u64 [s1 + 0x158]\n 23127: a1 = a2 + a5\n 23130: a2 = a1 <u a2\n 23133: a2 = a5 if a5 == 0\n 23136: a5 = u64 [s1 + 0x160]\n 23140: a2 = a2 + a5\n 23143: a5 = a2 <u a5\n 23146: t0 = u64 [s1 + 0x180]\n 23150: t0 = t0 + a5\n 23153: u64 [s1 + 0x180] = t0\n 23157: a5 = u64 [s1 + 0x170]\n 23161: u64 [a5 + 0x8] = t2\n 23164: u64 [a5] = t1\n 23166: u64 [a5 + 0x10] = ra\n 23169: t0 = a0\n 23171: u64 [a5 + 0x18] = a0\n 23174: u64 [s1 + 0x150] = ra\n 23178: a0 = u64 [s1 + 0x168]\n 23182: u64 [s1 + 0x198] = a0\n 23186: a5 = u64 [s1 + 0x148]\n 23190: u64 [s1 + 0x190] = a3\n 23194: a3 = a1\n 23196: jump @794\n      : @799 (gas: 8)\n 23199: a0 = u64 [s1 + 0x80]\n 23203: a1 = u64 [s1 + 0x30]\n 23206: a0 = a0 | a1\n 23209: a1 = u64 [s1 + 0x40]\n 23212: a2 = u64 [s1 + 0x28]\n 23215: a1 = a1 | a2\n 23218: a0 = a0 | a1\n 23221: jump @809 if a0 != 0\n      : @800 (gas: 5)\n 23225: u64 [s1 + 320] = 0\n 23229: u64 [s1 + 312] = 0\n 23233: u64 [s1 + 328] = 0\n 23237: u64 [s1 + 336] = 0\n 23241: jump @812\n      : @801 (gas: 12)\n 23244: t2 = u64 [s1 + 0x190]\n 23248: t1 = u64 [s1 + 0x198]\n 23252: a4 = u64 [s1 + 0x80]\n 23256: a5 = u64 [s1 + 0x110]\n 23260: a4 = a4 ^ a5\n 23263: a5 = u64 [s1 + 0x30]\n 23266: t0 = a4 | a5\n 23269: a5 = u64 [s1 + 0x40]\n 23272: a4 = u64 [s1 + 0x28]\n 23275: a5 = a5 | a4\n 23278: a4 = t0 | a5\n 23281: jump @808 if a4 == 0\n      : @802 (gas: 18)\n 23285: a4 = a1 <u t1\n 23288: a3 = a3 + a4\n 23291: t0 = a3 ^ ra\n 23294: a5 = a3 <u ra\n 23297: a5 = a4 if t0 == 0\n 23300: a5 = a5 + a2\n 23303: a4 = a5 <u a2\n 23306: a2 = a2 <u t2\n 23309: a0 = a0 + a2\n 23312: a0 = a0 + a4\n 23315: a2 = a1 | a5\n 23318: a0 = a0 | a3\n 23321: a2 = a2 | a0\n 23324: a2 = a2 >> 0x20\n 23327: a0 = a0 | a5\n 23330: a0 = a0 << 0x20\n 23333: a0 = a0 | a2\n 23336: jump @854 if a0 != 0\n      : @803 (gas: 2)\n 23340: a0 = s1 + 0x24c0\n 23344: ra = 820, jump @22\n      : @804 [@dyn 410] (gas: 18)\n 23350: a0 = s1 + 0x2118\n 23354: a2 = a0 + 0x300\n 23358: a1 = u64 [a2 + 0xc0]\n 23362: u64 [s1 + 0x190] = a1\n 23366: a1 = u64 [a2 + 0xb8]\n 23370: u64 [s1 + 0x188] = a1\n 23374: a1 = u64 [a2 + 0xb0]\n 23378: u64 [s1 + 0x180] = a1\n 23382: a0 = u64 [a2 + 0xa8]\n 23386: u64 [s1 + 0x178] = a0\n 23390: a0 = u64 [s1 + 0x80]\n 23394: a0 = a0 << 0x3b\n 23397: a1 = a0 >> 0x38\n 23400: u64 [s1 + 0x198] = a1\n 23404: a2 = 0x80 - a1\n 23408: a0 = 0xffffffffffffffff\n 23411: a1 = 0xffffffffffffffff\n 23414: ra = 822, jump @1599\n      : @805 [@dyn 411] (gas: 6)\n 23420: u64 [s1 + 0x168] = a0\n 23424: u64 [s1 + 0x150] = a1\n 23428: a0 = 0xffffffffffffffff\n 23431: a1 = 0xffffffffffffffff\n 23434: a2 = u64 [s1 + 0x198]\n 23438: ra = 824, jump @1594\n      : @806 [@dyn 412] (gas: 10)\n 23444: u64 [s1 + 0x158] = a0\n 23448: u64 [s1 + 0x160] = a1\n 23452: a0 = u64 [s1 + 0x150]\n 23456: a0 = a0 | a1\n 23459: u64 [s1 + 0x150] = a0\n 23463: a0 = u64 [s1 + 0x198]\n 23467: a2 = a0 + 0xffffffffffffff80\n 23470: a0 = 0xffffffffffffffff\n 23473: a1 = 0xffffffffffffffff\n 23476: ra = 826, jump @1594\n      : @807 [@dyn 413] (gas: 30)\n 23482: a4 = u64 [s1 + 0x198]\n 23486: a2 = a4 <u 0x80\n 23490: a3 = u64 [s1 + 0x150]\n 23494: a1 = a3 if a2 != 0\n 23497: a5 = u64 [s1 + 0x158]\n 23501: a3 = u64 [s1 + 0x168]\n 23505: a3 = a3 | a5\n 23508: a3 = a0 if a2 == 0\n 23511: a1 = 0xffffffffffffffff if a4 == 0\n 23514: a3 = 0xffffffffffffffff if a4 == 0\n 23517: a4 = u64 [s1 + 0x160]\n 23521: a4 = 0 if a2 == 0\n 23523: a5 = 0 if a2 == 0\n 23525: a0 = u64 [s1 + 0x178]\n 23529: a0 = a0 & ~a3\n 23532: a2 = u64 [s1 + 0x180]\n 23536: a1 = a2 & ~a1\n 23539: a2 = u64 [s1 + 0x188]\n 23543: a2 = a2 & ~a5\n 23546: a3 = u64 [s1 + 0x190]\n 23550: a3 = a3 & ~a4\n 23553: a4 = s1 + 0x3138\n 23557: a5 = a4 + 0x100\n 23561: u64 [a5 + 0xe0] = a3\n 23565: u64 [a5 + 0xd8] = a2\n 23569: u64 [a5 + 0xd0] = a1\n 23573: u64 [a5 + 0xc8] = a0\n 23577: a1 = s1 + 0x3300\n 23581: a0 = u64 [s1 + 0x170]\n 23585: ra = 828, jump @28\n      : @808 [@dyn 414] (gas: 23)\n 23591: a2 = u64 [s1 + 0x30]\n 23594: a0 = a2 >> 0x3f\n 23597: a1 = u64 [s1 + 0x28]\n 23600: a1 = a1 << 0x1\n 23603: a0 = a0 | a1\n 23606: a3 = u64 [s1 + 0x40]\n 23609: a1 = a3 >> 0x3f\n 23612: a2 = a2 << 0x1\n 23615: a1 = a1 | a2\n 23618: a4 = u64 [s1 + 0x80]\n 23622: a2 = a4 >> 0x3f\n 23625: a3 = a3 << 0x1\n 23628: a2 = a2 | a3\n 23631: a3 = a4 << 0x1\n 23634: a3 = a3 + 0x1\n 23637: a4 = s1 + 0x3138\n 23641: a5 = a4 + 0x100\n 23645: u64 [a5 + 0xe8] = a3\n 23649: u64 [a5 + 0xf0] = a2\n 23653: u64 [a5 + 0xf8] = a1\n 23657: u64 [a4 + 0x200] = a0\n 23661: a0 = 0x3320\n 23665: jump @816\n      : @809 (gas: 11)\n 23668: a3 = s1 + 0x100\n 23672: a0 = u64 [a3 + 0x28]\n 23675: a1 = u64 [a3 + 0x20]\n 23678: a0 = a0 | a1\n 23681: a1 = 0xffffffe0\n 23691: a2 = u64 [a3 + 0x18]\n 23694: a1 = a2 <u a1\n 23697: a2 = u64 [a3 + 0x30]\n 23700: a1 = 0 if a2 != 0\n 23702: a1 = 0 if a0 != 0\n 23704: jump @854 if a1 == 0\n      : @810 (gas: 4)\n 23708: a0 = u64 [s1 + 0x118]\n 23712: i32 a1 = a0 + 0x20\n 23715: a0 = s1 + 0x2500\n 23719: ra = 830, jump @22\n      : @811 [@dyn 415] (gas: 12)\n 23725: a0 = s1 + 0x2118\n 23729: a1 = u64 [a0 + 0x400]\n 23733: a2 = s1 + 0x100\n 23737: u64 [a2 + 0x50] = a1\n 23740: a3 = a0 + 0x300\n 23744: a1 = u64 [a3 + 0xf8]\n 23748: u64 [a2 + 0x48] = a1\n 23751: a1 = u64 [a3 + 0xf0]\n 23755: u64 [a2 + 0x38] = a1\n 23758: a0 = u64 [a3 + 0xe8]\n 23762: u64 [a2 + 0x40] = a0\n 23765: fallthrough\n      : @812 (gas: 24)\n 23766: a2 = u64 [s1 + 0x40]\n 23769: a0 = a2 >> 0x3f\n 23772: a3 = u64 [s1 + 0x30]\n 23775: a1 = a3 << 0x1\n 23778: a0 = a0 | a1\n 23781: u64 [s1 + 0x190] = a0\n 23785: a0 = a3 >> 0x3f\n 23788: a1 = u64 [s1 + 0x28]\n 23791: a1 = a1 << 0x1\n 23794: a0 = a0 | a1\n 23797: u64 [s1 + 0x188] = a0\n 23801: a3 = u64 [s1 + 0x80]\n 23805: a0 = a3 >> 0x3f\n 23808: a1 = a2 << 0x1\n 23811: a0 = a0 | a1\n 23814: u64 [s1 + 0x180] = a0\n 23818: a0 = a3 << 0x1\n 23821: u64 [s1 + 0x178] = a0\n 23825: a1 = a3 << 0x3\n 23828: u64 [s1 + 0x198] = a1\n 23832: i32 a2 = 0x80 - a1\n 23836: a0 = 0xffffffffffffffff\n 23839: a1 = 0xffffffffffffffff\n 23842: ra = 832, jump @1599\n      : @813 [@dyn 416] (gas: 7)\n 23848: u64 [s1 + 0x158] = a0\n 23852: u64 [s1 + 0x170] = a1\n 23856: a0 = u64 [s1 + 0x80]\n 23860: i32 a2 = a0 << 0x3\n 23863: a0 = 0xffffffffffffffff\n 23866: a1 = 0xffffffffffffffff\n 23869: ra = 834, jump @1594\n      : @814 [@dyn 417] (gas: 10)\n 23875: u64 [s1 + 0x168] = a0\n 23879: u64 [s1 + 0x160] = a1\n 23883: a1 = u64 [s1 + 0x158]\n 23887: a0 = a0 | a1\n 23890: u64 [s1 + 0x158] = a0\n 23894: a0 = u64 [s1 + 0x198]\n 23898: i32 a2 = a0 + 0xffffffffffffff80\n 23901: a0 = 0xffffffffffffffff\n 23904: a1 = 0xffffffffffffffff\n 23907: ra = 836, jump @1594\n      : @815 [@dyn 418] (gas: 38)\n 23913: a4 = u64 [s1 + 0x198]\n 23917: a2 = a4 <u 0x80\n 23921: a3 = u64 [s1 + 0x158]\n 23925: a0 = a3 if a2 != 0\n 23928: a5 = u64 [s1 + 0x160]\n 23932: a3 = u64 [s1 + 0x170]\n 23936: a3 = a3 | a5\n 23939: a3 = a1 if a2 == 0\n 23942: a0 = 0xffffffffffffffff if a4 == 0\n 23945: a3 = 0xffffffffffffffff if a4 == 0\n 23948: a5 = 0 if a2 == 0\n 23950: a4 = u64 [s1 + 0x168]\n 23954: a4 = 0 if a2 == 0\n 23956: a1 = u64 [s1 + 0x138]\n 23960: a1 = a1 & ~a3\n 23963: a2 = u64 [s1 + 0x140]\n 23967: a0 = a2 & ~a0\n 23970: a2 = u64 [s1 + 0x148]\n 23974: a2 = a2 & ~a4\n 23977: a3 = u64 [s1 + 0x150]\n 23981: a3 = a3 & ~a5\n 23984: a5 = s1 + 0x100\n 23988: a4 = u64 [a5 + 0x78]\n 23991: a0 = a0 | a4\n 23994: a4 = u64 [a5 + 0x80]\n 23998: a1 = a1 | a4\n 24001: a4 = u64 [a5 + 0x88]\n 24005: a3 = a3 | a4\n 24008: a4 = u64 [a5 + 0x90]\n 24012: a2 = a2 | a4\n 24015: a4 = s1 + 0x3138\n 24019: a5 = a4 + 0x200\n 24023: u64 [a5 + 0x18] = a2\n 24026: u64 [a5 + 0x20] = a3\n 24029: u64 [a5 + 0x10] = a1\n 24032: u64 [a5 + 0x8] = a0\n 24035: a0 = 0x3340\n 24039: fallthrough\n      : @816 (gas: 3)\n 24040: a1 = s1 + a0\n 24043: a0 = u64 [s1 + 0x38]\n 24046: ra = 838, jump @28\n      : @817 [@dyn 419] (gas: 8)\n 24052: a0 = sp + 0xffffffffffffffe0\n 24055: a5 = a0 & 0xffffffffffffffe0\n 24058: sp = a5\n 24060: a1 = u64 [s1 + 0x48]\n 24063: a0 = a1 + 0x2\n 24066: a1 = a0 <u a1\n 24069: a3 = u64 [s1 + 0x50]\n 24072: t0 = 840, jump @1571\n      : @818 [@dyn 420] (gas: 13)\n 24078: a1 = u64 [s1 + 0x60]\n 24081: a3 = a3 + a1\n 24084: a1 = a3 <u a1\n 24087: a4 = u64 [s1 + 0x58]\n 24090: a1 = a1 + a4\n 24093: u64 [s1 + 0x198] = a5\n 24097: u64 [a5 + 0x10] = a3\n 24100: u64 [a5 + 0x8] = a2\n 24103: u64 [a5] = a0\n 24105: u64 [a5 + 0x18] = a1\n 24108: a0 = s1 + 0x24a0\n 24112: a1 = u64 [s1 + 0x68]\n 24115: ra = 842, jump @22\n      : @819 [@dyn 421] (gas: 7)\n 24121: a0 = s1 + 0x2118\n 24125: a0 = u64 [a0 + 0x388]\n 24129: a0 = a0 & 0xffffffffffffffff\n 24132: u64 [s1 + 0x190] = a0\n 24136: a0 = s1 + 0x2480\n 24140: a1 = u64 [s1 + 0x198]\n 24144: ra = 844, jump @26\n      : @820 [@dyn 422] (gas: 15)\n 24150: a2 = s1 + 0x2118\n 24154: a3 = a2 + 0x300\n 24158: a0 = u64 [a3 + 0x80]\n 24162: a1 = u64 [a3 + 0x78]\n 24165: a2 = u64 [a3 + 0x70]\n 24168: a3 = s1 + 0x3138\n 24172: a4 = u64 [s1 + 0x190]\n 24176: a5 = a3 + 0x200\n 24180: u64 [a5 + 0x28] = a4\n 24183: u64 [a5 + 0x40] = a0\n 24186: u64 [a5 + 0x38] = a1\n 24189: u64 [a5 + 0x30] = a2\n 24192: a1 = s1 + 0x3360\n 24196: a0 = u64 [s1 + 0x198]\n 24200: ra = 846, jump @28\n      : @821 [@dyn 423] (gas: 3)\n 24206: a0 = s1 + 0x2460\n 24210: a1 = u64 [s1 + 0x20]\n 24213: ra = 848, jump @22\n      : @822 [@dyn 424] (gas: 14)\n 24219: a3 = s1 + 0x2118\n 24223: a4 = a3 + 0x300\n 24227: a0 = u64 [a4 + 0x60]\n 24230: a1 = u64 [a4 + 0x50]\n 24233: a2 = u64 [a4 + 0x58]\n 24236: a3 = u64 [a4 + 0x48]\n 24239: a0 = a0 | a1\n 24242: a2 = a2 | a3\n 24245: a0 = a0 | a2\n 24248: a0 = a0 >u 0\n 24250: u64 [s1 + 0x190] = a0\n 24254: a0 = s1 + 0x2440\n 24258: a1 = u64 [s1 + 0x198]\n 24262: ra = 850, jump @26\n      : @823 [@dyn 425] (gas: 18)\n 24268: a3 = s1 + 0x2118\n 24272: a4 = a3 + 0x300\n 24276: a0 = u64 [a4 + 0x30]\n 24279: a1 = u64 [a4 + 0x28]\n 24282: a2 = u64 [a4 + 0x40]\n 24285: a3 = u64 [a4 + 0x38]\n 24288: a0 = a0 & 0xffffffffffffff00\n 24292: a4 = u64 [s1 + 0x190]\n 24296: a0 = a0 | a4\n 24299: a4 = s1 + 0x3138\n 24303: a5 = a4 + 0x200\n 24307: u64 [a5 + 0x60] = a2\n 24310: u64 [a5 + 0x58] = a3\n 24313: u64 [a5 + 0x48] = a1\n 24316: u64 [a5 + 0x50] = a0\n 24319: a1 = s1 + 0x3380\n 24323: a0 = u64 [s1 + 0x198]\n 24327: ra = 852, jump @28\n      : @824 [@dyn 426] (gas: 6)\n 24333: a0 = u64 [s1 + 0xc0]\n 24337: ra = 0x356\n 24341: ecalli 4 // 'caller'\n 24343: a2 = u64 [s1 + 0xd8]\n 24347: t0 = 0x358\n 24351: jump @1521\n      : @825 [@dyn 427] (gas: 2)\n 24354: a2 = u64 [s1 + 0xd8]\n 24358: t0 = 856, jump @1521\n      : @826 [@dyn 428] (gas: 8)\n 24364: u64 [a2 + 800] = 0\n 24368: a4 = a2 + 0x300\n 24372: u64 [a4 + 0x18] = a1\n 24375: u64 [a4 + 0x10] = a0\n 24378: a1 = s1 + 0x2420\n 24382: u64 [a4 + 0x8] = a3\n 24385: a0 = 0\n 24387: ra = 858, jump @24\n      : @827 [@dyn 429] (gas: 9)\n 24393: a1 = s1 + 0x2118\n 24397: u64 [a1 + 768] = 0\n 24401: u64 [a1 + 760] = 0\n 24405: u64 [a1 + 744] = 0x1\n 24410: a2 = a1\n 24412: a0 = 0x20\n 24415: a1 = s1 + 0x2400\n 24419: u64 [a2 + 752] = 0\n 24423: ra = 860, jump @24\n      : @828 [@dyn 430] (gas: 1)\n 24429: t0 = 862, jump @1564\n      : @829 [@dyn 431] (gas: 3)\n 24435: a0 = u64 [s1 + 0xa8]\n 24439: a0 = i32 [a0]\n 24441: jump @831 if a0 >u 63\n      : @830 (gas: 3)\n 24445: a1 = u64 [s1 + 0xa8]\n 24449: u32 [a1 + 0] = 0x40\n 24452: fallthrough\n      : @831 (gas: 11)\n 24453: a0 = sp + 0xffffffffffffffe0\n 24456: a0 = a0 & 0xffffffffffffffe0\n 24459: u64 [s1 + 0x190] = a0\n 24463: sp = a0\n 24465: i32 a2 = a0 + 0\n 24467: a1 = 0x40\n 24470: a0 = u64 [s1 + 0xa0]\n 24474: ra = 0x360\n 24478: ecalli 8 // 'hash_keccak_256'\n 24480: t0 = 0x362\n 24484: jump @1556\n      : @832 [@dyn 432] (gas: 1)\n 24487: t0 = 866, jump @1556\n      : @833 [@dyn 433] (gas: 2)\n 24493: a4 = a3 + 0x3\n 24496: t0 = 868, jump @1529\n      : @834 [@dyn 434] (gas: 7)\n 24502: a1 = u64 [s1 + 0x198]\n 24506: u64 [a1] = a4\n 24508: u64 [a1 + 0x8] = a5\n 24511: u64 [a1 + 0x10] = a2\n 24514: u64 [a1 + 0x18] = a0\n 24517: a0 = s1 + 0x23e0\n 24521: ra = 870, jump @26\n      : @835 [@dyn 435] (gas: 11)\n 24527: a2 = s1 + 0x2118\n 24531: a0 = u64 [a2 + 0x2c8]\n 24535: a1 = u64 [s1 + 0x70]\n 24538: a0 = a0 & a1\n 24541: u64 [a2 + 672] = 0\n 24545: u64 [a2 + 664] = 0\n 24549: u64 [a2 + 0x288] = a0\n 24553: a0 = s1 + 0x23c0\n 24557: a1 = s1 + 0x23a0\n 24561: u64 [a2 + 656] = 0\n 24565: ra = 872, jump @1386\n      : @836 [@dyn 436] (gas: 13)\n 24571: a0 = s1 + 0x2118\n 24575: a2 = a0 + 0x200\n 24579: a1 = u64 [a2 + 0xc0]\n 24583: u64 [s1 + 0x190] = a1\n 24587: a1 = u64 [a2 + 0xb8]\n 24591: u64 [s1 + 0x188] = a1\n 24595: a1 = u64 [a2 + 0xb0]\n 24599: u64 [s1 + 0x180] = a1\n 24603: a1 = u64 [a2 + 0xa8]\n 24607: u64 [s1 + 0x178] = a1\n 24611: a0 = s1 + 0x2380\n 24615: a1 = u64 [s1 + 0x198]\n 24619: ra = 874, jump @26\n      : @837 [@dyn 437] (gas: 28)\n 24625: a3 = s1 + 0x2118\n 24629: a4 = a3 + 0x200\n 24633: a0 = u64 [a4 + 0x80]\n 24637: a1 = u64 [a4 + 0x78]\n 24640: a2 = u64 [a4 + 0x70]\n 24643: a3 = u64 [a4 + 0x68]\n 24646: a0 = a0 & 0xffffffffffffffff\n 24649: a1 = a1 & 0xffffffffffffffff\n 24652: a2 = a2 & 0xffffffffffffffff\n 24655: a4 = u64 [s1 + 0x78]\n 24658: a3 = a3 & a4\n 24661: a4 = u64 [s1 + 0x178]\n 24665: a3 = a3 | a4\n 24668: a4 = u64 [s1 + 0x180]\n 24672: a2 = a2 | a4\n 24675: a4 = u64 [s1 + 0x188]\n 24679: a1 = a1 | a4\n 24682: a4 = u64 [s1 + 0x190]\n 24686: a0 = a0 | a4\n 24689: a4 = s1 + 0x3138\n 24693: a5 = a4 + 0x200\n 24697: u64 [a5 + 0x80] = a0\n 24701: u64 [a5 + 0x78] = a1\n 24704: u64 [a5 + 0x70] = a2\n 24707: u64 [a5 + 0x68] = a3\n 24710: a1 = s1 + 0x33a0\n 24714: a0 = u64 [s1 + 0x198]\n 24718: ra = 876, jump @28\n      : @838 [@dyn 438] (gas: 3)\n 24724: a0 = s1 + 0x2360\n 24728: a1 = 0x40\n 24731: ra = 878, jump @22\n      : @839 [@dyn 439] (gas: 19)\n 24737: a1 = s1 + 0x2118\n 24741: a4 = a1 + 0x200\n 24745: a0 = u64 [a4 + 0x60]\n 24748: a2 = u64 [a4 + 0x58]\n 24751: a3 = u64 [a4 + 0x50]\n 24754: a1 = u64 [a4 + 0x48]\n 24757: a4 = s1 + 0x100\n 24761: u64 [a4 + 0x80] = a0\n 24765: u64 [a4 + 0x90] = a3\n 24769: a0 = a0 | a3\n 24772: u64 [a4 + 0x98] = a1\n 24776: a1 = a1 | a2\n 24779: a1 = a1 | a0\n 24782: a1 = a1 >> 0x20\n 24785: u64 [a4 + 0x88] = a2\n 24789: a0 = a0 | a2\n 24792: a0 = a0 << 0x20\n 24795: a0 = a0 | a1\n 24798: jump @854 if a0 != 0\n      : @840 (gas: 8)\n 24802: a2 = s1 + 0x2118\n 24806: u64 [a2 + 576] = 0\n 24810: u64 [a2 + 568] = 0\n 24814: u64 [a2 + 560] = 0\n 24818: a1 = s1 + 0x2340\n 24822: u64 [a2 + 552] = 0x20\n 24827: a0 = u64 [s1 + 0x198]\n 24831: ra = 880, jump @24\n      : @841 [@dyn 440] (gas: 14)\n 24837: a3 = s1 + 0x100\n 24841: a0 = u64 [a3 + 0x88]\n 24845: a1 = u64 [a3 + 0x80]\n 24849: a2 = a0 | a1\n 24852: a0 = 0x100000000\n 24862: u64 [a3 + 0x78] = a0\n 24865: a0 = 0xffffffe0\n 24875: a1 = u64 [a3 + 0x98]\n 24879: a0 = a1 <u a0\n 24882: a1 = u64 [a3 + 0x90]\n 24886: a0 = 0 if a1 != 0\n 24888: u64 [a3 + 0x70] = a2\n 24891: a0 = 0 if a2 != 0\n 24893: jump @854 if a0 == 0\n      : @842 (gas: 14)\n 24897: a0 = u64 [s1 + 0x198]\n 24901: i32 a0 = a0 + 0x20\n 24904: a2 = s1 + 0x2118\n 24908: a1 = u64 [s1 + 0xb8]\n 24912: a4 = a2 + 0x200\n 24916: u64 [a4 + 0x8] = a1\n 24919: a1 = u64 [s1 + 0xe0]\n 24923: u64 [a4 + 0x10] = a1\n 24926: a1 = u64 [s1 + 0xe8]\n 24930: u64 [a4 + 0x18] = a1\n 24933: a1 = s1 + 0x2320\n 24937: a3 = u64 [s1 + 0xb0]\n 24941: u64 [a4 + 0x20] = a3\n 24944: ra = 882, jump @24\n      : @843 [@dyn 441] (gas: 9)\n 24950: a0 = u64 [s1 + 0x178]\n 24954: a0 = a0 + 0xffffffffffffffdc\n 24957: a1 = u64 [s1 + 0xc8]\n 24961: a0 = a1 <u a0\n 24964: a1 = u64 [s1 + 0xd0]\n 24968: a0 = 0 if a1 != 0\n 24970: a1 = u64 [s1 + 0x98]\n 24974: a0 = 0 if a1 != 0\n 24976: jump @854 if a0 == 0\n      : @844 (gas: 10)\n 24980: a1 = 0xffffffc0\n 24990: a2 = s1 + 0x100\n 24994: a0 = u64 [a2 + 0x98]\n 24998: u64 [a2 + 0x78] = a1\n 25001: a0 = a0 <u a1\n 25004: a1 = u64 [a2 + 0x90]\n 25008: a0 = 0 if a1 != 0\n 25010: a1 = u64 [a2 + 0x70]\n 25013: a0 = 0 if a1 != 0\n 25015: jump @854 if a0 == 0\n      : @845 (gas: 4)\n 25019: a0 = u64 [s1 + 0x198]\n 25023: i32 a0 = a0 + 0x40\n 25026: a1 = u64 [s1 + 0x90]\n 25030: ra = 884, jump @37\n      : @846 [@dyn 442] (gas: 5)\n 25036: i32 a0 = a0 + 0\n 25038: a1 = u64 [s1 + 0x90]\n 25042: a2 = u64 [s1 + 0x88]\n 25046: ecalli 1 // 'call_data_copy'\n 25048: fallthrough\n      : @847 (gas: 28)\n 25049: a1 = u64 [s1 + 0xb8]\n 25053: a0 = u64 [s1 + 0x198]\n 25057: a0 = a0 + a1\n 25060: a1 = a0 <u a1\n 25063: a4 = u64 [s1 + 0xe0]\n 25067: a2 = u64 [s1 + 0x190]\n 25071: a2 = a2 + a4\n 25074: a2 = a2 + a1\n 25077: a3 = a2 ^ a4\n 25080: a4 = a2 <u a4\n 25083: a4 = a1 if a3 == 0\n 25086: a1 = u64 [s1 + 0xb0]\n 25090: a3 = u64 [s1 + 0x180]\n 25094: a1 = a1 + a3\n 25097: a5 = u64 [s1 + 0xe8]\n 25101: a3 = u64 [s1 + 0x188]\n 25105: a3 = a3 + a5\n 25108: a5 = a3 <u a5\n 25111: a1 = a1 + a5\n 25114: a4 = a4 + a3\n 25117: a3 = a4 <u a3\n 25120: a1 = a1 + a3\n 25123: a1 = a1 | a4\n 25126: a3 = u64 [s1 + 0x178]\n 25130: a3 = a0 <u a3\n 25133: a3 = 0 if a2 != 0\n 25135: a3 = 0 if a1 != 0\n 25137: jump @854 if a3 == 0\n      : @848 (gas: 8)\n 25141: i32 a0 = a0 + 0x40\n 25144: a2 = s1 + 0x2118\n 25148: u64 [a2 + 512] = 0\n 25152: u64 [a2 + 504] = 0\n 25156: u64 [a2 + 496] = 0\n 25160: a1 = s1 + 0x2300\n 25164: u64 [a2 + 488] = 0\n 25168: ra = 886, jump @24\n      : @849 [@dyn 443] (gas: 6)\n 25174: a0 = u64 [s1 + 0xc0]\n 25178: ra = 0x378\n 25182: ecalli 4 // 'caller'\n 25184: a2 = u64 [s1 + 0xd8]\n 25188: t0 = 0x37a\n 25192: jump @1519\n      : @850 [@dyn 444] (gas: 2)\n 25195: a2 = u64 [s1 + 0xd8]\n 25199: t0 = 890, jump @1519\n      : @851 [@dyn 445] (gas: 39)\n 25205: t0 = a1 | a0\n 25208: a3 = a3 >> 0x20\n 25211: a1 = reverse a2\n 25213: a2 = a1 << 0x20\n 25216: t1 = a2 | a3\n 25219: t2 = a1 >> 0x20\n 25222: a1 = u64 [s1 + 0xb8]\n 25226: a1 = a1 + 0x1f\n 25229: a1 = a1 & 0xe0\n 25233: a1 = a1 + 0x40\n 25236: a4 = u64 [0x20020]\n 25241: a5 = u64 [0x20028]\n 25246: a0 = u64 [0x20030]\n 25251: a2 = u64 [0x20038]\n 25256: a3 = s1 + 0x2118\n 25260: u64 [a3 + 0x1e0] = a4\n 25264: a4 = a3 + 0x100\n 25268: u64 [a4 + 0xd8] = a5\n 25272: u64 [a4 + 0xd0] = a0\n 25276: u64 [a4 + 0xc8] = a2\n 25280: a5 = s1 + 0x100\n 25284: a0 = u64 [a5 + 0x8]\n 25287: u64 [a4 + 0xa0] = a0\n 25291: a0 = u64 [a5]\n 25293: u64 [a4 + 0x98] = a0\n 25297: a0 = u64 [s1 + 0xf8]\n 25301: u64 [a4 + 0x90] = a0\n 25305: a0 = u64 [s1 + 0xf0]\n 25309: u64 [a4 + 0x88] = a0\n 25313: u64 [a3 + 0x1b8] = t2\n 25317: u64 [a3 + 0x1b0] = t1\n 25321: u64 [a3 + 0x1a8] = t0\n 25325: a0 = a3\n 25327: a2 = s1 + 0x22e0\n 25331: a3 = s1 + 0x22c0\n 25335: a4 = s1 + 0x22a0\n 25339: u64 [a0 + 448] = 0\n 25343: a0 = u64 [a5 + 0x98]\n 25347: ra = 892, jump @31\n      : @852 [@dyn 446] (gas: 3)\n 25353: a0 = s1 + 0x2280\n 25357: a1 = 0x40\n 25360: ra = 894, jump @22\n      : @853 [@dyn 447] (gas: 14)\n 25366: a3 = s1 + 0x2118\n 25370: a5 = a3 + 0x100\n 25374: a0 = u64 [a5 + 0x80]\n 25378: a1 = u64 [a5 + 0x78]\n 25381: a2 = u64 [a5 + 0x70]\n 25384: a4 = u64 [a5 + 0x68]\n 25387: a0 = a0 | a2\n 25390: a2 = a4 | a1\n 25393: a2 = a2 | a0\n 25396: a2 = a2 >> 0x20\n 25399: a0 = a0 | a1\n 25402: a0 = a0 << 0x20\n 25405: a0 = a0 | a2\n 25408: jump @964 if a0 == 0\n      : @854 (gas: 1)\n 25412: trap\n      : @855 (gas: 12)\n 25413: a0 = s1 + 0x7ff\n 25417: a0 = a0 + 0x111\n 25421: u64 [a0 + 1728] = 0\n 25425: u64 [a0 + 1720] = 0\n 25429: u64 [a0 + 1712] = 0\n 25433: a2 = a0\n 25435: a0 = 0x4e487b7100000000\n 25445: a1 = s1 + 0x7ff\n 25449: a1 = a1 + 0x7c1\n 25453: u64 [a2 + 0x6c8] = a0\n 25457: a0 = 0\n 25459: ra = 896, jump @24\n      : @856 [@dyn 448] (gas: 11)\n 25465: a1 = s1 + 0x7ff\n 25469: a1 = a1 + 0x111\n 25473: u64 [a1 + 1704] = 0\n 25477: u64 [a1 + 1696] = 0\n 25481: u64 [a1 + 1680] = 0x11\n 25486: a2 = a1\n 25488: a0 = 0x4\n 25491: a1 = s1 + 0x7ff\n 25495: a1 = a1 + 0x7a1\n 25499: u64 [a2 + 1688] = 0\n 25503: ra = 898, jump @24\n      : @857 [@dyn 449] (gas: 3)\n 25509: a0 = u64 [s1 + 0x170]\n 25513: a0 = i32 [a0]\n 25515: jump @859 if a0 >u 63\n      : @858 (gas: 3)\n 25519: a1 = u64 [s1 + 0x170]\n 25523: u32 [a1 + 0] = 0x40\n 25526: fallthrough\n      : @859 (gas: 5)\n 25527: a0 = 0x1\n 25530: a2 = 0x24\n 25533: a1 = u64 [s1 + 0x178]\n 25537: ecalli 13 // 'seal_return'\n 25539: fallthrough\n      : @860 (gas: 4)\n 25540: a1 = 0x20190\n 25545: i32 a1 = a1 + 0\n 25547: a0 = 0x1\n 25550: jump @1042\n      : @861 (gas: 4)\n 25553: a1 = 0x20190\n 25558: i32 a1 = a1 + 0\n 25560: a0 = 0x1\n 25563: jump @1042\n      : @862 (gas: 4)\n 25566: a1 = 0x20190\n 25571: i32 a1 = a1 + 0\n 25573: a0 = 0x1\n 25576: jump @1042\n      : @863 (gas: 4)\n 25579: a1 = 0x20190\n 25584: i32 a1 = a1 + 0\n 25586: a0 = 0x1\n 25589: jump @1042\n      : @864 (gas: 4)\n 25592: a1 = 0x20190\n 25597: i32 a1 = a1 + 0\n 25599: a0 = 0x1\n 25602: jump @1042\n      : @865 (gas: 4)\n 25605: a1 = 0x20190\n 25610: i32 a1 = a1 + 0\n 25612: a0 = 0x1\n 25615: jump @1042\n      : @866 (gas: 4)\n 25618: a1 = 0x20190\n 25623: i32 a1 = a1 + 0\n 25625: a0 = 0x1\n 25628: jump @1042\n      : @867 (gas: 8)\n 25631: u64 [s1 + 1488] = 0\n 25635: u64 [s1 + 1480] = 0\n 25639: u64 [s1 + 1472] = 0\n 25643: a0 = 0x2c5211c600000000\n 25653: a1 = s1 + 0x5c0\n 25657: u64 [s1 + 0x5d8] = a0\n 25661: a0 = 0\n 25663: ra = 900, jump @24\n      : @868 [@dyn 450] (gas: 2)\n 25669: a1 = i32 [0x20180]\n 25674: jump @870 if a1 >u 31\n      : @869 (gas: 3)\n 25678: u32 [0x20180] = 0x20\n 25684: a1 = 0x20190\n 25689: jump @940\n      : @870 (gas: 2)\n 25692: a1 = 0x20190\n 25697: jump @940\n      : @871 (gas: 9)\n 25700: u64 [s1 + 1520] = 0\n 25704: u64 [s1 + 1512] = 0\n 25708: u64 [s1 + 1504] = 0\n 25712: a0 = 0xf4d678b800000000\n 25722: a1 = s1 + 0x5e0\n 25726: u64 [s1 + 0x5f8] = a0\n 25730: a0 = 0\n 25732: ra = 0x394\n 25736: jump @24\n      : @872 (gas: 9)\n 25739: u64 [s1 + 1680] = 0\n 25743: u64 [s1 + 1672] = 0\n 25747: u64 [s1 + 1664] = 0\n 25751: a0 = 0x90b8ec1800000000\n 25761: a1 = s1 + 0x680\n 25765: u64 [s1 + 0x698] = a0\n 25769: a0 = 0\n 25771: ra = 0x394\n 25775: jump @24\n      : @873 (gas: 4)\n 25778: a1 = 0x20190\n 25783: i32 a1 = a1 + 0\n 25785: a0 = 0x1\n 25788: jump @1042\n      : @874 (gas: 4)\n 25791: a1 = 0x20190\n 25796: i32 a1 = a1 + 0\n 25798: a0 = 0x1\n 25801: jump @1042\n      : @875 (gas: 3)\n 25804: t0 = 0x386\n 25808: a2 = s1 + 0x1118\n 25812: fallthrough\n      : @876 [@dyn 451] (gas: 8)\n 25813: u64 [a2 + 1048] = 0\n 25817: u64 [a2 + 1040] = 0\n 25821: a0 = 0x2c5211c600000000\n 25831: u64 [a2 + 0x420] = a0\n 25835: a1 = s1 + 0x1520\n 25839: u64 [a2 + 1032] = 0\n 25843: a0 = 0\n 25845: ra = 904, jump @24\n      : @877 [@dyn 452] (gas: 2)\n 25851: a1 = i32 [0x20180]\n 25856: jump @879 if a1 >u 31\n      : @878 (gas: 3)\n 25860: u32 [0x20180] = 0x20\n 25866: a1 = 0x20190\n 25871: jump @940\n      : @879 (gas: 2)\n 25874: a1 = 0x20190\n 25879: jump @940\n      : @880 (gas: 9)\n 25882: a2 = s1 + 0x1118\n 25886: u64 [a2 + 1080] = 0\n 25890: u64 [a2 + 1072] = 0\n 25894: a0 = 0xf4d678b800000000\n 25904: u64 [a2 + 0x440] = a0\n 25908: a1 = s1 + 0x1540\n 25912: u64 [a2 + 1064] = 0\n 25916: a0 = 0\n 25918: ra = 906, jump @24\n      : @881 [@dyn 453] (gas: 3)\n 25924: a0 = u64 [s1 + 0x150]\n 25928: a0 = i32 [a0]\n 25930: jump @883 if a0 >u 31\n      : @882 (gas: 3)\n 25934: a1 = u64 [s1 + 0x150]\n 25938: u32 [a1 + 0] = 0x20\n 25941: fallthrough\n      : @883 (gas: 5)\n 25942: a0 = 0x1\n 25945: a2 = 0x4\n 25948: a1 = u64 [s1 + 0x160]\n 25952: ecalli 13 // 'seal_return'\n 25954: fallthrough\n      : @884 (gas: 4)\n 25955: a1 = 0x20190\n 25960: i32 a1 = a1 + 0\n 25962: a0 = 0x1\n 25965: jump @1042\n      : @885 (gas: 4)\n 25968: a1 = 0x20190\n 25973: i32 a1 = a1 + 0\n 25975: a0 = 0x1\n 25978: jump @1042\n      : @886 (gas: 4)\n 25981: a1 = 0x20190\n 25986: i32 a1 = a1 + 0\n 25988: a0 = 0x1\n 25991: jump @1042\n      : @887 (gas: 4)\n 25994: a1 = 0x20190\n 25999: i32 a1 = a1 + 0\n 26001: a0 = 0x1\n 26004: jump @1042\n      : @888 (gas: 4)\n 26007: a1 = 0x20190\n 26012: i32 a1 = a1 + 0\n 26014: a0 = 0x1\n 26017: jump @1042\n      : @889 (gas: 4)\n 26020: a1 = 0x20190\n 26025: i32 a1 = a1 + 0\n 26027: a0 = 0x1\n 26030: jump @1042\n      : @890 (gas: 4)\n 26033: a1 = 0x20190\n 26038: i32 a1 = a1 + 0\n 26040: a0 = 0x1\n 26043: jump @1042\n      : @891 (gas: 4)\n 26046: a1 = 0x20190\n 26051: i32 a1 = a1 + 0\n 26053: a0 = 0x1\n 26056: jump @1042\n      : @892 (gas: 4)\n 26059: a1 = 0x20190\n 26064: i32 a1 = a1 + 0\n 26066: a0 = 0x1\n 26069: jump @1042\n      : @893 (gas: 1)\n 26072: jump @946 if a0 != 2618616686\n      : @894 (gas: 11)\n 26080: a0 = s1 + 0x2938\n 26084: u64 [a0 + 1984] = 0\n 26088: u64 [a0 + 1976] = 0\n 26092: u64 [a0 + 1968] = 0\n 26096: u64 [a0 + 1960] = 0\n 26100: a0 = s1 + 0x3000\n 26104: i32 a0 = a0 + 0xe0\n 26108: ra = 0x38c\n 26112: ecalli 16 // 'value_transferred'\n 26114: t0 = 0x38e\n 26118: jump @1586\n      : @895 [@dyn 454] (gas: 1)\n 26121: t0 = 910, jump @1586\n      : @896 [@dyn 455] (gas: 1)\n 26127: t0 = 912, jump @1557\n      : @897 [@dyn 456] (gas: 1)\n 26133: jump @965 if a0 == 0\n      : @898 (gas: 4)\n 26137: a1 = 0x20190\n 26142: i32 a1 = a1 + 0\n 26144: a0 = 0x1\n 26147: jump @1042\n      : @899 (gas: 4)\n 26150: a1 = 0x20190\n 26155: i32 a1 = a1 + 0\n 26157: a0 = 0x1\n 26160: jump @1042\n      : @900 (gas: 4)\n 26163: a1 = 0x20190\n 26168: i32 a1 = a1 + 0\n 26170: a0 = 0x1\n 26173: jump @1042\n      : @901 (gas: 4)\n 26176: a1 = 0x20190\n 26181: i32 a1 = a1 + 0\n 26183: a0 = 0x1\n 26186: jump @1042\n      : @902 (gas: 4)\n 26189: a1 = 0x20190\n 26194: i32 a1 = a1 + 0\n 26196: a0 = 0x1\n 26199: jump @1042\n      : @903 (gas: 8)\n 26202: u64 [s1 + 1040] = 0\n 26206: u64 [s1 + 1032] = 0\n 26210: u64 [s1 + 1024] = 0\n 26214: a0 = 0x2c5211c600000000\n 26224: a1 = s1 + 0x400\n 26228: u64 [s1 + 0x418] = a0\n 26232: a0 = 0\n 26234: ra = 914, jump @24\n      : @904 [@dyn 457] (gas: 2)\n 26240: a1 = i32 [0x20180]\n 26245: jump @906 if a1 >u 31\n      : @905 (gas: 3)\n 26249: u32 [0x20180] = 0x20\n 26255: a1 = 0x20190\n 26260: jump @940\n      : @906 (gas: 2)\n 26263: a1 = 0x20190\n 26268: jump @940\n      : @907 (gas: 9)\n 26271: u64 [s1 + 1072] = 0\n 26275: u64 [s1 + 1064] = 0\n 26279: u64 [s1 + 1056] = 0\n 26283: a0 = 0xf4d678b800000000\n 26293: a1 = s1 + 0x420\n 26297: u64 [s1 + 0x438] = a0\n 26301: a0 = 0\n 26303: ra = 0x394\n 26307: jump @24\n      : @908 (gas: 8)\n 26310: u64 [s1 + 1232] = 0\n 26314: u64 [s1 + 1224] = 0\n 26318: u64 [s1 + 1216] = 0\n 26322: a0 = 0x90b8ec1800000000\n 26332: a1 = s1 + 0x4c0\n 26336: u64 [s1 + 0x4d8] = a0\n 26340: a0 = 0\n 26342: ra = 916, jump @24\n      : @909 [@dyn 458] (gas: 3)\n 26348: a0 = u64 [s1 + 0x140]\n 26352: a0 = i32 [a0]\n 26354: jump @911 if a0 >u 31\n      : @910 (gas: 3)\n 26358: a1 = u64 [s1 + 0x140]\n 26362: u32 [a1 + 0] = 0x20\n 26365: fallthrough\n      : @911 (gas: 5)\n 26366: a0 = 0x1\n 26369: a2 = 0x4\n 26372: a1 = u64 [s1 + 0x148]\n 26376: ecalli 13 // 'seal_return'\n 26378: fallthrough\n      : @912 (gas: 4)\n 26379: a1 = 0x20190\n 26384: i32 a1 = a1 + 0\n 26386: a0 = 0x1\n 26389: jump @1042\n      : @913 (gas: 4)\n 26392: a1 = 0x20190\n 26397: i32 a1 = a1 + 0\n 26399: a0 = 0x1\n 26402: jump @1042\n      : @914 (gas: 4)\n 26405: a1 = 0x20190\n 26410: i32 a1 = a1 + 0\n 26412: a0 = 0x1\n 26415: jump @1042\n      : @915 (gas: 4)\n 26418: a1 = 0x20190\n 26423: i32 a1 = a1 + 0\n 26425: a0 = 0x1\n 26428: jump @1042\n      : @916 (gas: 4)\n 26431: a1 = 0x20190\n 26436: i32 a1 = a1 + 0\n 26438: a0 = 0x1\n 26441: jump @1042\n      : @917 (gas: 4)\n 26444: a1 = 0x20190\n 26449: i32 a1 = a1 + 0\n 26451: a0 = 0x1\n 26454: jump @1042\n      : @918 (gas: 4)\n 26457: a1 = 0x20190\n 26462: i32 a1 = a1 + 0\n 26464: a0 = 0x1\n 26467: jump @1042\n      : @919 (gas: 4)\n 26470: a1 = 0x20190\n 26475: i32 a1 = a1 + 0\n 26477: a0 = 0x1\n 26480: jump @1042\n      : @920 (gas: 4)\n 26483: a1 = 0x20190\n 26488: i32 a1 = a1 + 0\n 26490: a0 = 0x1\n 26493: jump @1042\n      : @921 (gas: 4)\n 26496: a1 = 0x20190\n 26501: i32 a1 = a1 + 0\n 26503: a0 = 0x1\n 26506: jump @1042\n      : @922 (gas: 9)\n 26509: a2 = s1 + 0x2118\n 26513: u64 [a2 + 120] = 0\n 26516: u64 [a2 + 112] = 0\n 26519: a0 = 0xbe29e9600000000\n 26529: u64 [a2 + 0x80] = a0\n 26533: a1 = s1 + 0x2180\n 26537: u64 [a2 + 104] = 0\n 26540: a0 = 0\n 26542: ra = 918, jump @24\n      : @923 [@dyn 459] (gas: 2)\n 26548: a1 = i32 [0x20180]\n 26553: jump @925 if a1 >u 31\n      : @924 (gas: 3)\n 26557: u32 [0x20180] = 0x20\n 26563: a1 = 0x20190\n 26568: jump @940\n      : @925 (gas: 2)\n 26571: a1 = 0x20190\n 26576: jump @940\n      : @926 (gas: 9)\n 26579: a2 = s1 + 0x2118\n 26583: u64 [a2 + 152] = 0\n 26587: u64 [a2 + 144] = 0\n 26591: a0 = 0xcc67c13b00000000\n 26601: u64 [a2 + 0xa0] = a0\n 26605: a1 = s1 + 0x21a0\n 26609: u64 [a2 + 136] = 0\n 26613: a0 = 0\n 26615: ra = 920, jump @24\n      : @927 [@dyn 460] (gas: 2)\n 26621: a1 = i32 [0x20180]\n 26626: jump @929 if a1 >u 31\n      : @928 (gas: 3)\n 26630: u32 [0x20180] = 0x20\n 26636: a1 = 0x20190\n 26641: jump @940\n      : @929 (gas: 2)\n 26644: a1 = 0x20190\n 26649: jump @940\n      : @930 (gas: 4)\n 26652: a1 = 0x20190\n 26657: i32 a1 = a1 + 0\n 26659: a0 = 0x1\n 26662: jump @1042\n      : @931 (gas: 9)\n 26665: a2 = s1 + 0x2938\n 26669: u64 [a2 + 152] = 0\n 26673: u64 [a2 + 144] = 0\n 26677: a0 = 0x2c5211c600000000\n 26687: u64 [a2 + 0xa0] = a0\n 26691: a1 = s1 + 0x29c0\n 26695: u64 [a2 + 136] = 0\n 26699: a0 = 0\n 26701: ra = 922, jump @24\n      : @932 [@dyn 461] (gas: 2)\n 26707: a1 = i32 [0x20180]\n 26712: jump @934 if a1 >u 31\n      : @933 (gas: 3)\n 26716: u32 [0x20180] = 0x20\n 26722: a1 = 0x20190\n 26727: jump @940\n      : @934 (gas: 2)\n 26729: a1 = 0x20190\n 26734: jump @940\n      : @935 (gas: 3)\n 26736: t0 = 0x39c\n 26740: a2 = s1 + 0x1118\n 26744: fallthrough\n      : @936 [@dyn 462] (gas: 8)\n 26745: u64 [a2 + 440] = 0\n 26749: u64 [a2 + 432] = 0\n 26753: a0 = 0xd5b25b6300000000\n 26763: u64 [a2 + 0x1c0] = a0\n 26767: a1 = s1 + 0x12c0\n 26771: u64 [a2 + 424] = 0\n 26775: a0 = 0\n 26777: ra = 926, jump @24\n      : @937 [@dyn 463] (gas: 2)\n 26783: a1 = i32 [0x20180]\n 26788: jump @939 if a1 >u 31\n      : @938 (gas: 3)\n 26792: u32 [0x20180] = 0x20\n 26798: a1 = 0x20190\n 26803: jump @940\n      : @939 (gas: 2)\n 26805: a1 = 0x20190\n 26810: fallthrough\n      : @940 (gas: 5)\n 26811: i32 a1 = a1 + 0\n 26813: a0 = 0x1\n 26816: a2 = 0x4\n 26819: ecalli 13 // 'seal_return'\n 26821: fallthrough\n      : @941 (gas: 8)\n 26822: u64 [t0 + 216] = 0\n 26826: u64 [t0 + 208] = 0\n 26830: u64 [t0 + 200] = 0\n 26834: a0 = 0x4e487b7100000000\n 26844: a1 = s1 + 0x21e0\n 26848: u64 [t0 + 0xe0] = a0\n 26852: a0 = 0\n 26854: ra = 928, jump @24\n      : @942 [@dyn 464] (gas: 9)\n 26860: a1 = s1 + 0x2118\n 26864: u64 [a1 + 192] = 0\n 26868: u64 [a1 + 184] = 0\n 26872: u64 [a1 + 168] = 0x41\n 26877: a2 = a1\n 26879: a0 = 0x4\n 26882: a1 = s1 + 0x21c0\n 26886: u64 [a2 + 176] = 0\n 26890: ra = 930, jump @24\n      : @943 [@dyn 465] (gas: 3)\n 26896: a0 = u64 [s1 + 0xa8]\n 26900: a0 = i32 [a0]\n 26902: jump @945 if a0 >u 63\n      : @944 (gas: 3)\n 26906: a1 = u64 [s1 + 0xa8]\n 26910: u32 [a1 + 0] = 0x40\n 26913: fallthrough\n      : @945 (gas: 6)\n 26914: a0 = 0x1\n 26917: a2 = 0x24\n 26920: a1 = u64 [s1 + 0xa0]\n 26924: ra = 0x3a4\n 26928: ecalli 13 // 'seal_return'\n 26930: fallthrough\n      : @946 [@dyn 466] (gas: 1)\n 26931: jump @952 if a0 != 2685688103\n      : @947 (gas: 11)\n 26938: a0 = s1 + 0x2938\n 26942: u64 [a0 + 2016] = 0\n 26946: u64 [a0 + 2008] = 0\n 26950: u64 [a0 + 2000] = 0\n 26954: u64 [a0 + 1992] = 0\n 26958: a0 = s1 + 0x3000\n 26962: i32 a0 = a0 + 0x100\n 26966: ra = 0x3a6\n 26970: ecalli 16 // 'value_transferred'\n 26972: t0 = 0x3a8\n 26976: jump @1586\n      : @948 [@dyn 467] (gas: 1)\n 26979: t0 = 936, jump @1586\n      : @949 [@dyn 468] (gas: 1)\n 26985: t0 = 938, jump @1585\n      : @950 [@dyn 469] (gas: 1)\n 26991: jump @967 if a0 == 0\n      : @951 (gas: 4)\n 26995: a1 = 0x20190\n 27000: i32 a1 = a1 + 0\n 27002: a0 = 0x1\n 27005: jump @1042\n      : @952 (gas: 1)\n 27008: jump @969 if a0 != 3058722618\n      : @953 (gas: 10)\n 27016: a0 = s1 + 0x3138\n 27020: u64 [a0 + 96] = 0\n 27023: u64 [a0 + 88] = 0\n 27026: u64 [a0 + 80] = 0\n 27029: u64 [a0 + 72] = 0\n 27032: a0 = s1 + 0x3000\n 27036: i32 a0 = a0 + 0x180\n 27040: ra = 0x3ac\n 27044: ecalli 16 // 'value_transferred'\n 27046: fallthrough\n      : @954 [@dyn 470] (gas: 9)\n 27047: a3 = s1 + 0x3138\n 27051: a0 = u64 [a3 + 0x58]\n 27054: a1 = u64 [a3 + 0x60]\n 27057: a2 = u64 [a3 + 0x50]\n 27060: a3 = u64 [a3 + 0x48]\n 27063: a1 = a1 | a2\n 27066: a0 = a0 | a3\n 27069: a0 = a0 | a1\n 27072: jump @975 if a0 == 0\n      : @955 (gas: 4)\n 27076: a1 = 0x20190\n 27081: i32 a1 = a1 + 0\n 27083: a0 = 0x1\n 27086: jump @1042\n      : @956 (gas: 2)\n 27089: u64 [s1 + 344] = 0\n 27093: fallthrough\n      : @957 (gas: 5)\n 27094: a0 = u64 [s1 + 0x168]\n 27098: a0 = a0 << 0x1\n 27101: a4 = u64 [s1 + 0x158]\n 27105: a4 = a4 | a0\n 27108: fallthrough\n      : @958 (gas: 7)\n 27109: u64 [s1 + 984] = 0\n 27113: u64 [s1 + 976] = 0\n 27117: u64 [s1 + 968] = 0\n 27121: a1 = s1 + 0x3c0\n 27125: u64 [s1 + 0x3c0] = a4\n 27129: a0 = u64 [s1 + 0x118]\n 27133: ra = 942, jump @24\n      : @959 [@dyn 471] (gas: 3)\n 27139: a1 = 0x20\n 27142: a0 = u64 [s1 + 0x118]\n 27146: ra = 944, jump @37\n      : @960 [@dyn 472] (gas: 5)\n 27152: i32 a1 = a0 + 0\n 27154: a2 = 0x20\n 27157: a0 = 0\n 27159: ecalli 13 // 'seal_return'\n 27161: jump @962\n      : @961 (gas: 4)\n 27163: a2 = 0x20\n 27166: a0 = 0\n 27168: ecalli 13 // 'seal_return'\n 27170: fallthrough\n      : @962 (gas: 8)\n 27171: u64 [a2 + 280] = 0\n 27175: u64 [a2 + 272] = 0\n 27179: u64 [a2 + 264] = 0\n 27183: a0 = 0x4e487b7100000000\n 27193: a1 = s1 + 0x2220\n 27197: u64 [a2 + 0x120] = a0\n 27201: a0 = 0\n 27203: ra = 946, jump @24\n      : @963 [@dyn 473] (gas: 10)\n 27209: a1 = s1 + 0x2118\n 27213: u64 [a1 + 256] = 0\n 27217: u64 [a1 + 248] = 0\n 27221: u64 [a1 + 232] = 0x41\n 27226: a2 = a1\n 27228: a0 = 0x4\n 27231: a1 = s1 + 0x2200\n 27235: u64 [a2 + 240] = 0\n 27239: ra = 0x3a2\n 27243: jump @24\n      : @964 (gas: 16)\n 27246: a3 = a4\n 27248: a0 = s1 + 0x2118\n 27252: a1 = u64 [s1 + 0xf0]\n 27256: a5 = a0 + 0x100\n 27260: u64 [a5 + 0x48] = a1\n 27263: a1 = u64 [s1 + 0xf8]\n 27267: u64 [a5 + 0x50] = a1\n 27270: a1 = u64 [s1 + 0x100]\n 27274: u64 [a5 + 0x58] = a1\n 27277: a1 = s1 + 0x2260\n 27281: a2 = u64 [s1 + 0x108]\n 27285: u64 [a5 + 0x60] = a2\n 27288: a0 = a4\n 27290: u64 [s1 + 0x198] = a3\n 27294: ra = 0xb6\n 27298: jump @24\n      : @965 (gas: 3)\n 27301: a0 = u64 [s1 + 0x198]\n 27305: a0 = i32 [a0]\n 27307: jump @978 if a0 >u 99\n      : @966 (gas: 4)\n 27312: a1 = 0x20190\n 27317: i32 a1 = a1 + 0\n 27319: a0 = 0x1\n 27322: jump @1042\n      : @967 (gas: 3)\n 27325: a0 = u64 [s1 + 0x198]\n 27329: a0 = i32 [a0]\n 27331: jump @983 if a0 >u 67\n      : @968 (gas: 4)\n 27336: a1 = 0x20190\n 27341: i32 a1 = a1 + 0\n 27343: a0 = 0x1\n 27346: jump @1042\n      : @969 (gas: 1)\n 27349: jump @1034 if a0 != 235423050\n      : @970 (gas: 11)\n 27357: a0 = s1 + 0x2938\n 27361: u64 [a0 + 576] = 0\n 27365: u64 [a0 + 568] = 0\n 27369: u64 [a0 + 560] = 0\n 27373: u64 [a0 + 552] = 0\n 27377: a0 = s1 + 0x3000\n 27381: i32 a0 = a0 + 0xfffffffffffffb60\n 27385: ra = 0x3b4\n 27389: ecalli 16 // 'value_transferred'\n 27391: t0 = 0x3b6\n 27395: jump @1587\n      : @971 [@dyn 474] (gas: 1)\n 27398: t0 = 950, jump @1587\n      : @972 [@dyn 475] (gas: 1)\n 27404: t0 = 952, jump @1583\n      : @973 [@dyn 476] (gas: 1)\n 27410: jump @1043 if a0 == 0\n      : @974 (gas: 4)\n 27414: a1 = 0x20190\n 27419: i32 a1 = a1 + 0\n 27421: a0 = 0x1\n 27424: jump @1042\n      : @975 (gas: 1)\n 27427: t0 = 954, jump @1567\n      : @976 [@dyn 477] (gas: 1)\n 27433: jump @1046 if a1 <u a0\n      : @977 (gas: 4)\n 27437: a1 = 0x20190\n 27442: i32 a1 = a1 + 0\n 27444: a0 = 0x1\n 27447: jump @1042\n      : @978 (gas: 4)\n 27450: a0 = s1 + 0x1b20\n 27454: ra = 0x3bc\n 27458: t0 = 0x566\n 27462: jump @1577\n      : @979 [@dyn 478] (gas: 14)\n 27465: a1 = s1 + 0x1918\n 27469: a2 = a1 + 0x200\n 27473: a0 = u64 [a2 + 0x8]\n 27476: u64 [s1 + 0x198] = a0\n 27480: a0 = u64 [a2 + 0x10]\n 27483: u64 [s1 + 0x190] = a0\n 27487: a0 = u64 [a2 + 0x18]\n 27490: u64 [s1 + 0x188] = a0\n 27494: a0 = u64 [a2 + 0x20]\n 27497: u64 [s1 + 0x180] = a0\n 27501: a0 = s1 + 0x1b00\n 27505: ra = 0x3be\n 27509: t0 = 0x56a\n 27513: jump @1590\n      : @980 [@dyn 479] (gas: 14)\n 27516: a1 = s1 + 0x1918\n 27520: a2 = a1 + 0x100\n 27524: a0 = u64 [a2 + 0xe8]\n 27528: u64 [s1 + 0x178] = a0\n 27532: a0 = u64 [a2 + 0xf0]\n 27536: u64 [s1 + 0x170] = a0\n 27540: a0 = u64 [a2 + 0xf8]\n 27544: u64 [s1 + 0x168] = a0\n 27548: a0 = u64 [a1 + 0x200]\n 27552: u64 [s1 + 0x160] = a0\n 27556: a0 = s1 + 0x1ae0\n 27560: ra = 0x3c0\n 27564: t0 = 0x570\n 27568: jump @1590\n      : @981 [@dyn 480] (gas: 31)\n 27571: a4 = s1 + 0x1918\n 27575: a5 = a4 + 0x100\n 27579: a0 = u64 [a5 + 0xc8]\n 27583: a1 = u64 [a5 + 0xd0]\n 27587: a2 = u64 [a5 + 0xd8]\n 27591: a3 = u64 [a5 + 0xe0]\n 27595: u64 [a5 + 0x80] = a3\n 27599: u64 [a5 + 0x78] = a2\n 27602: u64 [a5 + 0x70] = a1\n 27605: u64 [a5 + 0x68] = a0\n 27608: a4 = s1 + 0x100\n 27612: a0 = u64 [a4 + 0x60]\n 27615: u64 [a5 + 0xa0] = a0\n 27619: a0 = u64 [a4 + 0x68]\n 27622: u64 [a5 + 0x98] = a0\n 27626: a0 = u64 [a4 + 0x70]\n 27629: u64 [a5 + 0x90] = a0\n 27633: a0 = u64 [a4 + 0x78]\n 27636: u64 [a5 + 0x88] = a0\n 27640: a0 = u64 [a4 + 0x80]\n 27644: u64 [a5 + 0xc0] = a0\n 27648: a0 = u64 [a4 + 0x88]\n 27652: u64 [a5 + 0xb8] = a0\n 27656: a0 = u64 [a4 + 0x90]\n 27660: u64 [a5 + 0xb0] = a0\n 27664: a0 = s1 + 0x1ac0\n 27668: a1 = s1 + 0x1aa0\n 27672: a2 = s1 + 0x1a80\n 27676: a3 = u64 [a4 + 0x98]\n 27680: u64 [a5 + 0xa8] = a3\n 27684: ra = 962, jump @1402\n      : @982 [@dyn 481] (gas: 8)\n 27690: a1 = 0x20190\n 27695: i32 a1 = a1 + 0\n 27697: a0 = 0\n 27699: a2 = 0\n 27701: ra = 0x418\n 27705: ecalli 13 // 'seal_return'\n 27707: t0 = 0x41a\n 27711: jump @1567\n      : @983 (gas: 4)\n 27714: a0 = s1 + 0x1ea0\n 27718: ra = 0x3c4\n 27722: t0 = 0x57a\n 27726: jump @1577\n      : @984 [@dyn 482] (gas: 7)\n 27729: a0 = s1 + 0x1918\n 27733: a0 = u64 [a0 + 0x588]\n 27737: u64 [s1 + 0x190] = a0\n 27741: a0 = s1 + 0x1e80\n 27745: ra = 0x3c6\n 27749: t0 = 0x56a\n 27753: jump @1590\n      : @985 [@dyn 483] (gas: 12)\n 27756: a0 = s1 + 0x1918\n 27760: a0 = u64 [a0 + 0x568]\n 27764: u64 [s1 + 0xf0] = a0\n 27768: a0 = 0x30190\n 27773: u64 [s1 + 0x108] = a0\n 27777: i32 a0 = a0 + 0\n 27779: u64 [s1 + 0x100] = a0\n 27783: ra = 0x3c8\n 27787: ecalli 4 // 'caller'\n 27789: a2 = u64 [s1 + 0x108]\n 27793: t0 = 0x3ca\n 27797: jump @1515\n      : @986 [@dyn 484] (gas: 2)\n 27800: a2 = u64 [s1 + 0x108]\n 27804: t0 = 970, jump @1515\n      : @987 [@dyn 485] (gas: 8)\n 27810: u64 [a2 + 1376] = 0\n 27814: a4 = a2 + 0x500\n 27818: u64 [a4 + 0x58] = a1\n 27821: u64 [a4 + 0x50] = a0\n 27824: a1 = s1 + 0x1e60\n 27828: u64 [a4 + 0x48] = a3\n 27831: a0 = 0\n 27833: ra = 972, jump @24\n      : @988 [@dyn 486] (gas: 3)\n 27839: t0 = 0x3ce\n 27843: a1 = s1 + 0x1918\n 27847: fallthrough\n      : @989 [@dyn 487] (gas: 8)\n 27848: u64 [a1 + 1344] = 0\n 27852: u64 [a1 + 1336] = 0\n 27856: u64 [a1 + 1320] = 0x2\n 27861: a2 = a1\n 27863: a0 = 0x20\n 27866: a1 = s1 + 0x1e40\n 27870: u64 [a2 + 1328] = 0\n 27874: ra = 976, jump @24\n      : @990 [@dyn 488] (gas: 5)\n 27880: a0 = 0x20180\n 27885: u64 [s1 + 0x118] = a0\n 27889: a0 = i32 [0x20180]\n 27894: a1 = 0x3f\n 27897: jump @992 if a1 <u a0\n      : @991 (gas: 4)\n 27900: a1 = u64 [s1 + 0x118]\n 27904: u32 [a1 + 0] = 0x40\n 27907: t0 = 0x3d2\n 27911: jump @1552\n      : @992 (gas: 1)\n 27914: t0 = 978, jump @1552\n      : @993 [@dyn 489] (gas: 10)\n 27920: a0 = 0x20190\n 27925: i32 a0 = a0 + 0\n 27927: i32 a2 = a2 + 0\n 27929: a1 = 0x40\n 27932: u64 [s1 + 0x110] = a0\n 27936: ra = 0x3d4\n 27940: ecalli 8 // 'hash_keccak_256'\n 27942: a3 = u64 [s1 + 0x198]\n 27946: t0 = 0x3d6\n 27950: jump @1534\n      : @994 [@dyn 490] (gas: 2)\n 27953: a3 = u64 [s1 + 0x198]\n 27957: t0 = 982, jump @1534\n      : @995 [@dyn 491] (gas: 14)\n 27963: u64 [s1 + 0x198] = a0\n 27967: sp = a0\n 27969: a0 = u64 [s1 + 0x190]\n 27973: a0 = a0 << 0x20\n 27976: a2 = a0 >> 0x20\n 27979: a0 = s1 + 0x1918\n 27983: u64 [a0 + 1312] = 0\n 27987: u64 [a0 + 1304] = 0\n 27991: u64 [a0 + 1296] = 0\n 27995: a1 = s1 + 0x1e20\n 27999: u64 [s1 + 0xf8] = a2\n 28003: u64 [a0 + 0x508] = a2\n 28007: a0 = 0\n 28009: ra = 984, jump @24\n      : @996 [@dyn 492] (gas: 13)\n 28015: a0 = u64 [s1 + 0x170]\n 28019: a1 = s1 + 0x1918\n 28023: u64 [a1 + 0x500] = a0\n 28027: a0 = u64 [s1 + 0x178]\n 28031: u64 [a1 + 0x4f8] = a0\n 28035: a0 = u64 [s1 + 0x180]\n 28039: u64 [a1 + 0x4f0] = a0\n 28043: a3 = a1\n 28045: a0 = 0x20\n 28048: a1 = s1 + 0x1e00\n 28052: a2 = u64 [s1 + 0x188]\n 28056: u64 [a3 + 0x4e8] = a2\n 28060: ra = 986, jump @24\n      : @997 [@dyn 493] (gas: 3)\n 28066: a0 = u64 [s1 + 0x118]\n 28070: a0 = i32 [a0]\n 28072: jump @999 if a0 >u 63\n      : @998 (gas: 4)\n 28076: a0 = u64 [s1 + 0x118]\n 28080: u32 [a0 + 0] = 0x40\n 28083: t0 = 0x3dc\n 28087: jump @1523\n      : @999 (gas: 1)\n 28090: t0 = 988, jump @1523\n      : @1000 [@dyn 494] (gas: 5)\n 28096: ra = 0x3de\n 28100: ecalli 8 // 'hash_keccak_256'\n 28102: a3 = u64 [s1 + 0x190]\n 28106: t0 = 0x3e0\n 28110: jump @1548\n      : @1001 [@dyn 495] (gas: 2)\n 28113: a3 = u64 [s1 + 0x190]\n 28117: t0 = 992, jump @1548\n      : @1002 [@dyn 496] (gas: 6)\n 28123: a0 = u64 [s1 + 0x100]\n 28127: ra = 0x3e2\n 28131: ecalli 4 // 'caller'\n 28133: a2 = u64 [s1 + 0x108]\n 28137: t0 = 0x3e4\n 28141: jump @1578\n      : @1003 [@dyn 497] (gas: 2)\n 28144: a2 = u64 [s1 + 0x108]\n 28148: t0 = 996, jump @1578\n      : @1004 [@dyn 498] (gas: 10)\n 28154: u64 [s1 + 0x190] = a1\n 28158: a0 = a0 >> 0x20\n 28161: a1 = reverse a2\n 28163: u64 [s1 + 0x188] = a1\n 28167: a1 = a1 << 0x20\n 28170: a0 = a0 | a1\n 28173: u64 [s1 + 0x180] = a0\n 28177: a0 = s1 + 0x1de0\n 28181: a1 = u64 [s1 + 0x198]\n 28185: ra = 998, jump @26\n      : @1005 [@dyn 499] (gas: 2)\n 28191: a2 = s1 + 0x1918\n 28195: fallthrough\n      : @1006 (gas: 19)\n 28196: a0 = u64 [a2 + 0x4d0]\n 28200: a1 = u32 [a2 + 0x4cc]\n 28204: a2 = u64 [a2 + 0x4d8]\n 28208: a3 = a0 << 0x20\n 28211: a1 = a1 | a3\n 28214: a3 = a2 << 0x20\n 28217: a0 = a0 >> 0x20\n 28220: a0 = a0 | a3\n 28223: a4 = s1 + 0x100\n 28227: a3 = u64 [a4 + 0x80]\n 28231: a0 = a0 ^ a3\n 28234: a3 = u64 [a4 + 0x90]\n 28238: a1 = a1 ^ a3\n 28241: a3 = u64 [a4 + 0x88]\n 28245: a2 = a2 ^ a3\n 28248: a2 = a2 >> 0x20\n 28251: a1 = a1 | a2\n 28254: a0 = a0 | a1\n 28257: jump @1086 if a0 != 0\n      : @1007 (gas: 4)\n 28261: a0 = s1 + 0x3000\n 28265: i32 a0 = a0 + 0x120\n 28269: ecalli 9 // 'now'\n 28271: fallthrough\n      : @1008 (gas: 52)\n 28272: a1 = s1 + 0x3138\n 28276: t0 = u64 [a1]\n 28278: a4 = u64 [a1 + 0xfffffffffffffff8]\n 28281: u64 [s1 + 0x158] = a4\n 28285: a0 = s1 + 0x2938\n 28289: t2 = u64 [a0 + 0x7f0]\n 28293: a3 = u64 [a1 + 0xffffffffffffffe8]\n 28296: u64 [s1 + 0x140] = a3\n 28300: a0 = clz t0\n 28302: a1 = clz a4\n 28304: a2 = a1 + 0x40\n 28307: a2 = a0 if t0 != 0\n 28310: a0 = clz t2\n 28312: a1 = clz a3\n 28314: a1 = a1 + 0x40\n 28317: a1 = a0 if t2 != 0\n 28320: a0 = a1 + 0x80\n 28324: a3 = a4 | t0\n 28327: a2 = a0 if a3 == 0\n 28330: a5 = a0 <u a1\n 28333: a5 = 0 if a3 != 0\n 28335: a4 = a5 >u 0\n 28337: a0 = a2 <u 0xf0\n 28341: a3 = a0 ^ 0x1\n 28344: a4 = a3 if a5 == 0\n 28347: a0 = a4 <u 0x1\n 28350: ra = a0 + 0xffffffffffffffff\n 28353: t1 = -a4\n 28355: a5 = -a5\n 28357: a3 = a5 - a3\n 28360: a2 = 0xef - a2\n 28364: a5 = t1 >u 0\n 28366: a0 = ra >u 0\n 28368: a0 = a5 if ra == 0\n 28371: a5 = a2 <u 0x100\n 28375: a5 = a5 ^ 0x1\n 28378: a1 = a3 >u 0\n 28380: a5 = a1 if a3 != 0\n 28383: a5 = a0 if a4 != 0\n 28386: u64 [s1 + 0x138] = t2\n 28390: u64 [s1 + 0x150] = t0\n 28394: a0 = t2 | t0\n 28397: a4 = u64 [s1 + 0x140]\n 28401: a1 = u64 [s1 + 0x158]\n 28405: a1 = a1 | a4\n 28408: a0 = a0 | a1\n 28411: a0 = a0 <u 0x1\n 28414: a0 = a0 | a5\n 28417: a1 = a4\n 28419: a1 = 0 if a0 != 0\n 28421: u64 [s1 + 0x198] = a1\n 28425: jump @1090 if a0 != 0\n      : @1009 (gas: 5)\n 28429: a0 = a2 ^ 0xff\n 28433: a0 = a0 | t1\n 28436: a1 = a3 | ra\n 28439: a0 = a0 | a1\n 28442: jump @1090 if a0 == 0\n      : @1010 (gas: 1)\n 28446: t0 = 1000, jump @1524\n      : @1011 [@dyn 500] (gas: 1)\n 28452: ra = 1002, jump @1594\n      : @1012 [@dyn 501] (gas: 1)\n 28458: t0 = 1004, jump @1580\n      : @1013 [@dyn 502] (gas: 1)\n 28464: ra = 1006, jump @1599\n      : @1014 [@dyn 503] (gas: 1)\n 28470: t0 = 1008, jump @1573\n      : @1015 [@dyn 504] (gas: 1)\n 28476: ra = 1010, jump @1599\n      : @1016 [@dyn 505] (gas: 8)\n 28482: u64 [s1 + 0x120] = a0\n 28486: u64 [s1 + 0xe8] = a1\n 28490: a2 = u64 [s1 + 0x160]\n 28494: a0 = a2 <u 0x80\n 28498: u64 [s1 + 0xe0] = a0\n 28502: a0 = u64 [s1 + 0x140]\n 28506: a1 = u64 [s1 + 0x138]\n 28510: ra = 1012, jump @1599\n      : @1017 [@dyn 506] (gas: 1)\n 28516: t0 = 1014, jump @1591\n      : @1018 [@dyn 507] (gas: 4)\n 28522: a3 = u64 [s1 + 0xe0]\n 28526: a0 = 0 if a3 == 0\n 28528: u64 [a4 + 0x78] = a0\n 28531: jump @1088 if a1 == 0\n      : @1019 (gas: 7)\n 28535: a2 = a3\n 28537: a0 = u64 [s1 + 0x168]\n 28541: a1 = u64 [s1 + 0x128]\n 28545: a0 = a0 | a1\n 28548: a5 = a3\n 28550: a1 = u64 [s1 + 0xe8]\n 28554: t0 = 1016, jump @1520\n      : @1020 [@dyn 508] (gas: 1)\n 28560: ra = 1018, jump @1594\n      : @1021 [@dyn 509] (gas: 1)\n 28566: t0 = 1020, jump @1581\n      : @1022 [@dyn 510] (gas: 1)\n 28572: ra = 1022, jump @1594\n      : @1023 [@dyn 511] (gas: 2)\n 28578: u64 [s1 + 0xe8] = a0\n 28582: t0 = 1024, jump @1572\n      : @1024 [@dyn 512] (gas: 1)\n 28588: ra = 1026, jump @1599\n      : @1025 [@dyn 513] (gas: 1)\n 28594: t0 = 1028, jump @1547\n      : @1026 [@dyn 514] (gas: 2)\n 28600: a1 = u64 [s1 + 0xe8]\n 28604: t0 = 1030, jump @1553\n      : @1027 [@dyn 515] (gas: 1)\n 28610: ra = 1032, jump @1594\n      : @1028 [@dyn 516] (gas: 1)\n 28616: t0 = 1034, jump @1532\n      : @1029 [@dyn 517] (gas: 1)\n 28622: t0 = 1036, jump @1545\n      : @1030 [@dyn 518] (gas: 5)\n 28628: t0 = ra <u a2\n 28631: a4 = u64 [s1 + 0x128]\n 28635: a5 = a4 <u a3\n 28638: a5 = t0 if t1 != 0\n 28641: t0 = 1038, jump @1546\n      : @1031 [@dyn 519] (gas: 20)\n 28647: t0 = a0 | a1\n 28650: a1 = a4 << 0x1\n 28653: a4 = u64 [s1 + 0x170]\n 28657: t1 = a4 >> 0x3f\n 28660: t1 = a1 | t1\n 28663: a1 = a4 << 0x1\n 28666: a4 = u64 [s1 + 0x178]\n 28670: t2 = a4 >> 0x3f\n 28673: a1 = a1 | t2\n 28676: a4 = a4 << 0x1\n 28679: a0 = u64 [s1 + 0x158]\n 28683: a4 = a4 | a0\n 28686: u64 [s1 + 0x178] = a4\n 28690: a0 = u64 [s1 + 0x150]\n 28694: a1 = a1 | a0\n 28697: u64 [s1 + 0x170] = a1\n 28701: a1 = a0 | t1\n 28704: u64 [s1 + 0x160] = a1\n 28708: a0 = a0 | t0\n 28711: t0 = 1040, jump @1518\n      : @1032 [@dyn 520] (gas: 18)\n 28717: t0 = a4 <u a2\n 28720: a2 = a4 - a2\n 28723: a4 = a3 <u 0x1\n 28726: a5 = a5 - a4\n 28729: a4 = u64 [a0 + 0x88]\n 28733: a4 = a4 - t0\n 28736: a3 = a3 + 0xffffffffffffffff\n 28739: u64 [a0 + 0x90] = a5\n 28743: u64 [a0 + 0x88] = a4\n 28747: t0 = a5 | a4\n 28750: u64 [a0 + 0x98] = a3\n 28754: a4 = a3 | a2\n 28757: a3 = a4 | t0\n 28760: a4 = ra & 0x1\n 28763: u64 [a0 + 0x58] = a4\n 28766: u64 [a0 + 0x80] = a2\n 28770: u64 [s1 + 336] = 0\n 28774: jump @1029 if a3 != 0\n      : @1033 (gas: 1)\n 28778: jump @1089\n      : @1034 (gas: 2)\n 28781: a2 = s1 + 0x2938\n 28785: jump @1040 if a0 != 1158823118\n      : @1035 (gas: 10)\n 28792: u64 [a2 + 1344] = 0\n 28796: u64 [a2 + 1336] = 0\n 28800: u64 [a2 + 1328] = 0\n 28804: u64 [a2 + 1320] = 0\n 28808: a0 = s1 + 0x3000\n 28812: i32 a0 = a0 + 0xfffffffffffffe60\n 28816: ra = 0x412\n 28820: ecalli 16 // 'value_transferred'\n 28822: t0 = 0x414\n 28826: jump @1588\n      : @1036 [@dyn 521] (gas: 1)\n 28829: t0 = 1044, jump @1588\n      : @1037 [@dyn 522] (gas: 1)\n 28835: t0 = 1046, jump @1583\n      : @1038 [@dyn 523] (gas: 1)\n 28841: jump @1113 if a0 == 0\n      : @1039 (gas: 4)\n 28845: a1 = 0x20190\n 28850: i32 a1 = a1 + 0\n 28852: a0 = 0x1\n 28855: jump @1042\n      : @1040 (gas: 4)\n 28857: a1 = 0x20190\n 28862: i32 a1 = a1 + 0\n 28864: a0 = 0x1\n 28867: jump @1042\n      : @1041 (gas: 7)\n 28869: i32 a1 = a1 + 0\n 28871: a0 = 0x1\n 28874: a2 = 0\n 28876: ra = 0x418\n 28880: ecalli 13 // 'seal_return'\n 28882: t0 = 0x41a\n 28886: jump @1567\n      : @1042 (gas: 5)\n 28889: a2 = 0\n 28891: ra = 0x418\n 28895: ecalli 13 // 'seal_return'\n 28897: t0 = 0x41a\n 28901: jump @1567\n      : @1043 [@dyn 524] (gas: 1)\n 28904: t0 = 1050, jump @1567\n      : @1044 [@dyn 525] (gas: 1)\n 28910: jump @1115 if a1 <u a0\n      : @1045 (gas: 2)\n 28914: a1 = 0x20190\n 28919: jump @1041\n      : @1046 (gas: 4)\n 28921: a0 = s1 + 0x2160\n 28925: ra = 0x41c\n 28929: t0 = 0x57a\n 28933: jump @1577\n      : @1047 [@dyn 526] (gas: 12)\n 28936: a0 = s1 + 0x2118\n 28940: a0 = u64 [a0 + 0x48]\n 28943: u64 [s1 + 0x170] = a0\n 28947: a0 = 0x30190\n 28952: u64 [s1 + 0x188] = a0\n 28956: i32 a0 = a0 + 0\n 28958: u64 [s1 + 0x180] = a0\n 28962: ra = 0x41e\n 28966: ecalli 4 // 'caller'\n 28968: a2 = u64 [s1 + 0x188]\n 28972: t0 = 0x420\n 28976: jump @1521\n      : @1048 [@dyn 527] (gas: 2)\n 28979: a2 = u64 [s1 + 0x188]\n 28983: t0 = 1056, jump @1521\n      : @1049 [@dyn 528] (gas: 7)\n 28989: u64 [a2 + 64] = 0\n 28992: u64 [a2 + 0x38] = a1\n 28995: u64 [a2 + 0x30] = a0\n 28998: a1 = s1 + 0x2140\n 29002: u64 [a2 + 0x28] = a3\n 29005: a0 = 0\n 29007: ra = 1058, jump @24\n      : @1050 [@dyn 529] (gas: 9)\n 29013: a1 = s1 + 0x2118\n 29017: u64 [a1 + 32] = 0\n 29020: u64 [a1 + 24] = 0\n 29023: u64 [a1 + 8] = 0x2\n 29027: a2 = a1\n 29029: a0 = 0x20\n 29032: a1 = s1 + 0x2120\n 29036: u64 [a2 + 16] = 0\n 29039: ra = 1060, jump @24\n      : @1051 [@dyn 530] (gas: 4)\n 29045: a0 = 0x20180\n 29050: u64 [s1 + 0x198] = a0\n 29054: a0 = i32 [0x20180]\n 29059: jump @1053 if a0 >u 63\n      : @1052 (gas: 3)\n 29063: a1 = u64 [s1 + 0x198]\n 29067: u32 [a1 + 0] = 0x40\n 29070: fallthrough\n      : @1053 (gas: 14)\n 29071: a0 = sp + 0xffffffffffffffe0\n 29074: a2 = a0 & 0xffffffffffffffe0\n 29077: u64 [s1 + 0x178] = a2\n 29081: sp = a2\n 29083: a0 = 0x20190\n 29088: i32 a0 = a0 + 0\n 29090: i32 a2 = a2 + 0\n 29092: a1 = 0x40\n 29095: u64 [s1 + 0x190] = a0\n 29099: ra = 0x426\n 29103: ecalli 8 // 'hash_keccak_256'\n 29105: a3 = u64 [s1 + 0x178]\n 29109: t0 = 0x428\n 29113: jump @1522\n      : @1054 [@dyn 531] (gas: 2)\n 29116: a3 = u64 [s1 + 0x178]\n 29120: t0 = 1064, jump @1522\n      : @1055 [@dyn 532] (gas: 16)\n 29126: a0 = sp + 0xffffffffffffffe0\n 29129: a0 = a0 & 0xffffffffffffffe0\n 29132: u64 [s1 + 0x178] = a0\n 29136: sp = a0\n 29138: a0 = u64 [s1 + 0x170]\n 29142: a0 = a0 << 0x20\n 29145: a2 = a0 >> 0x20\n 29148: a0 = s1 + 0x2118\n 29152: u64 [a0 + 0] = 0\n 29154: u64 [a0 + 4294967288] = 0\n 29157: u64 [a0 + 4294967280] = 0\n 29160: a1 = s1 + 0x2100\n 29164: u64 [s1 + 0x170] = a2\n 29168: u64 [a0 + 0xffffffffffffffe8] = a2\n 29171: a0 = 0\n 29173: ra = 1066, jump @24\n      : @1056 [@dyn 533] (gas: 3)\n 29179: t0 = 0x42c\n 29183: a2 = s1 + 0x1918\n 29187: fallthrough\n      : @1057 [@dyn 534] (gas: 12)\n 29188: a0 = u64 [s1 + 0x150]\n 29192: a4 = a2 + 0x700\n 29196: u64 [a4 + 0xe0] = a0\n 29200: a0 = u64 [s1 + 0x158]\n 29204: u64 [a4 + 0xd8] = a0\n 29208: a0 = u64 [s1 + 0x160]\n 29212: u64 [a4 + 0xd0] = a0\n 29216: a0 = 0x20\n 29219: a1 = s1 + 0x20e0\n 29223: a3 = u64 [s1 + 0x168]\n 29227: u64 [a4 + 0xc8] = a3\n 29231: ra = 1070, jump @24\n      : @1058 [@dyn 535] (gas: 3)\n 29237: a0 = u64 [s1 + 0x198]\n 29241: a0 = i32 [a0]\n 29243: jump @1060 if a0 >u 63\n      : @1059 (gas: 3)\n 29247: a0 = u64 [s1 + 0x198]\n 29251: u32 [a0 + 0] = 0x40\n 29254: fallthrough\n      : @1060 (gas: 4)\n 29255: a0 = sp + 0xffffffffffffffe0\n 29258: a0 = a0 & 0xffffffffffffffe0\n 29261: u64 [s1 + 0x168] = a0\n 29265: t0 = 1072, jump @1535\n      : @1061 [@dyn 536] (gas: 5)\n 29271: ra = 0x432\n 29275: ecalli 8 // 'hash_keccak_256'\n 29277: a3 = u64 [s1 + 0x168]\n 29281: t0 = 0x434\n 29285: jump @1563\n      : @1062 [@dyn 537] (gas: 2)\n 29288: a3 = u64 [s1 + 0x168]\n 29292: t0 = 1076, jump @1563\n      : @1063 [@dyn 538] (gas: 11)\n 29298: a4 = u64 [s1 + 0x178]\n 29302: u64 [a4 + 0x18] = a3\n 29305: u64 [a4 + 0x10] = a2\n 29308: u64 [a4 + 0x8] = a1\n 29311: u64 [a4] = a0\n 29313: a0 = u64 [s1 + 0x180]\n 29317: ra = 0x436\n 29321: ecalli 4 // 'caller'\n 29323: a2 = u64 [s1 + 0x188]\n 29327: t0 = 0x438\n 29331: jump @1578\n      : @1064 [@dyn 539] (gas: 2)\n 29334: a2 = u64 [s1 + 0x188]\n 29338: t0 = 1080, jump @1578\n      : @1065 [@dyn 540] (gas: 10)\n 29344: u64 [s1 + 0x168] = a1\n 29348: a0 = a0 >> 0x20\n 29351: a1 = reverse a2\n 29353: u64 [s1 + 0x160] = a1\n 29357: a1 = a1 << 0x20\n 29360: a0 = a0 | a1\n 29363: u64 [s1 + 0x158] = a0\n 29367: a0 = s1 + 0x20c0\n 29371: a1 = u64 [s1 + 0x178]\n 29375: ra = 1082, jump @26\n      : @1066 [@dyn 541] (gas: 2)\n 29381: a2 = s1 + 0x1918\n 29385: fallthrough\n      : @1067 (gas: 19)\n 29386: a0 = u64 [a2 + 0x7b0]\n 29390: a1 = u32 [a2 + 0x7ac]\n 29394: a2 = u64 [a2 + 0x7b8]\n 29398: a3 = a0 << 0x20\n 29401: a1 = a1 | a3\n 29404: a3 = a2 << 0x20\n 29407: a0 = a0 >> 0x20\n 29410: a0 = a0 | a3\n 29413: a4 = s1 + 0x100\n 29417: a3 = u64 [a4 + 0x58]\n 29420: a0 = a0 ^ a3\n 29423: a3 = u64 [a4 + 0x68]\n 29426: a1 = a1 ^ a3\n 29429: a3 = u64 [a4 + 0x60]\n 29432: a2 = a2 ^ a3\n 29435: a2 = a2 >> 0x20\n 29438: a1 = a1 | a2\n 29441: a0 = a0 | a1\n 29444: jump @1127 if a0 != 0\n      : @1068 (gas: 6)\n 29448: a0 = u64 [s1 + 0x180]\n 29452: ra = 0x43c\n 29456: ecalli 4 // 'caller'\n 29458: a2 = u64 [s1 + 0x188]\n 29462: t0 = 0x43e\n 29466: jump @1515\n      : @1069 [@dyn 542] (gas: 2)\n 29469: a2 = u64 [s1 + 0x188]\n 29473: t0 = 1086, jump @1515\n      : @1070 [@dyn 543] (gas: 8)\n 29479: u64 [a2 + 1920] = 0\n 29483: a4 = a2 + 0x700\n 29487: u64 [a4 + 0x78] = a1\n 29490: u64 [a4 + 0x70] = a0\n 29493: a1 = s1 + 0x2080\n 29497: u64 [a4 + 0x68] = a3\n 29500: a0 = 0\n 29502: ra = 1088, jump @24\n      : @1071 [@dyn 544] (gas: 3)\n 29508: t0 = 0x442\n 29512: a1 = s1 + 0x1918\n 29516: fallthrough\n      : @1072 [@dyn 545] (gas: 8)\n 29517: u64 [a1 + 1888] = 0\n 29521: u64 [a1 + 1880] = 0\n 29525: u64 [a1 + 1864] = 0x2\n 29530: a2 = a1\n 29532: a0 = 0x20\n 29535: a1 = s1 + 0x2060\n 29539: u64 [a2 + 1872] = 0\n 29543: ra = 1092, jump @24\n      : @1073 [@dyn 546] (gas: 3)\n 29549: a0 = u64 [s1 + 0x198]\n 29553: a0 = i32 [a0]\n 29555: jump @1075 if a0 >u 63\n      : @1074 (gas: 3)\n 29559: a1 = u64 [s1 + 0x198]\n 29563: u32 [a1 + 0] = 0x40\n 29566: fallthrough\n      : @1075 (gas: 4)\n 29567: a0 = sp + 0xffffffffffffffe0\n 29570: a0 = a0 & 0xffffffffffffffe0\n 29573: u64 [s1 + 0x178] = a0\n 29577: t0 = 1094, jump @1535\n      : @1076 [@dyn 547] (gas: 17)\n 29583: ecalli 8 // 'hash_keccak_256'\n 29585: a3 = u64 [s1 + 0x178]\n 29589: a0 = u64 [a3 + 0x18]\n 29592: a1 = u64 [a3 + 0x10]\n 29595: a2 = u64 [a3 + 0x8]\n 29598: a3 = u64 [a3]\n 29600: a0 = reverse a0\n 29602: u64 [s1 + 0x178] = a0\n 29606: a0 = reverse a1\n 29608: u64 [s1 + 0x168] = a0\n 29612: a0 = reverse a2\n 29614: u64 [s1 + 0x160] = a0\n 29618: a0 = reverse a3\n 29620: u64 [s1 + 0x158] = a0\n 29624: t0 = 0x448\n 29628: a2 = s1 + 0x1918\n 29632: fallthrough\n      : @1077 [@dyn 548] (gas: 8)\n 29633: u64 [a2 + 1856] = 0\n 29637: u64 [a2 + 1848] = 0\n 29641: u64 [a2 + 1840] = 0\n 29645: a1 = s1 + 0x2040\n 29649: a0 = u64 [s1 + 0x170]\n 29653: u64 [a2 + 0x728] = a0\n 29657: a0 = 0\n 29659: ra = 1098, jump @24\n      : @1078 [@dyn 549] (gas: 14)\n 29665: a0 = u64 [s1 + 0x158]\n 29669: a1 = s1 + 0x1918\n 29673: a2 = a1 + 0x700\n 29677: u64 [a2 + 0x20] = a0\n 29680: a0 = u64 [s1 + 0x160]\n 29684: u64 [a2 + 0x18] = a0\n 29687: a0 = u64 [s1 + 0x168]\n 29691: u64 [a2 + 0x10] = a0\n 29694: a3 = a1\n 29696: a0 = 0x20\n 29699: a1 = s1 + 0x2020\n 29703: a2 = u64 [s1 + 0x178]\n 29707: u64 [a3 + 0x708] = a2\n 29711: ra = 1100, jump @24\n      : @1079 [@dyn 550] (gas: 3)\n 29717: a0 = u64 [s1 + 0x198]\n 29721: a0 = i32 [a0]\n 29723: jump @1081 if a0 >u 63\n      : @1080 (gas: 3)\n 29727: a0 = u64 [s1 + 0x198]\n 29731: u32 [a0 + 0] = 0x40\n 29734: fallthrough\n      : @1081 (gas: 4)\n 29735: a0 = sp + 0xffffffffffffffe0\n 29738: a0 = a0 & 0xffffffffffffffe0\n 29741: u64 [s1 + 0x178] = a0\n 29745: t0 = 1102, jump @1535\n      : @1082 [@dyn 551] (gas: 28)\n 29751: ecalli 8 // 'hash_keccak_256'\n 29753: a3 = u64 [s1 + 0x178]\n 29757: a0 = u64 [a3]\n 29759: a1 = u64 [a3 + 0x8]\n 29762: a2 = u64 [a3 + 0x10]\n 29765: a3 = u64 [a3 + 0x18]\n 29768: t0 = reverse a0\n 29770: a0 = reverse a1\n 29772: a2 = reverse a2\n 29774: a3 = reverse a3\n 29776: a4 = sp + 0xffffffffffffffe0\n 29779: a1 = a4 & 0xffffffffffffffe0\n 29782: sp = a1\n 29784: a4 = a3 + 0x2\n 29787: a3 = a4 <u a3\n 29790: a5 = a2 + a3\n 29793: a2 = a5 <u a2\n 29796: a2 = a3 if a3 == 0\n 29799: a2 = a2 + a0\n 29802: a0 = a2 <u a0\n 29805: a0 = a0 + t0\n 29808: u64 [a1 + 0x8] = a5\n 29811: u64 [a1] = a4\n 29813: u64 [a1 + 0x10] = a2\n 29816: u64 [a1 + 0x18] = a0\n 29819: a0 = s1 + 0x2000\n 29823: u64 [s1 + 0x178] = a1\n 29827: ra = 1104, jump @26\n      : @1083 [@dyn 552] (gas: 4)\n 29833: a0 = s1 + 0x1918\n 29837: a0 = u64 [a0 + 0x6f0]\n 29841: a1 = a0 & 0xff\n 29845: jump @1132 if a1 == 0\n      : @1084 (gas: 3)\n 29849: t0 = 0x452\n 29853: a2 = s1 + 0x1918\n 29857: fallthrough\n      : @1085 [@dyn 553] (gas: 9)\n 29858: u64 [a2 + 1752] = 0\n 29862: u64 [a2 + 1744] = 0\n 29866: a0 = 0xc1c184c800000000\n 29876: u64 [a2 + 0x6e0] = a0\n 29880: a1 = s1 + 0x1fe0\n 29884: u64 [a2 + 1736] = 0\n 29888: a0 = 0\n 29890: ra = 0x486\n 29894: jump @24\n      : @1086 (gas: 3)\n 29897: t0 = 0x454\n 29901: a2 = s1 + 0x1918\n 29905: fallthrough\n      : @1087 [@dyn 554] (gas: 9)\n 29906: u64 [a2 + 1208] = 0\n 29910: u64 [a2 + 1200] = 0\n 29914: a0 = 0x6f1cf7db00000000\n 29924: u64 [a2 + 0x4c0] = a0\n 29928: a1 = s1 + 0x1dc0\n 29932: u64 [a2 + 1192] = 0\n 29936: a0 = 0\n 29938: ra = 0x508\n 29942: jump @24\n      : @1088 (gas: 2)\n 29945: u64 [s1 + 344] = 0\n 29949: fallthrough\n      : @1089 (gas: 7)\n 29950: a2 = s1 + 0x100\n 29954: a0 = u64 [a2 + 0x78]\n 29957: a0 = a0 << 0x1\n 29960: a1 = u64 [a2 + 0x58]\n 29963: a0 = a0 | a1\n 29966: u64 [a2 + 0x98] = a0\n 29970: fallthrough\n      : @1090 (gas: 3)\n 29971: a0 = u64 [s1 + 0xf0]\n 29975: a1 = u64 [s1 + 0x198]\n 29979: jump @1151 if a0 != a1\n      : @1091 (gas: 6)\n 29983: a0 = u64 [s1 + 0x100]\n 29987: ra = 0x456\n 29991: ecalli 4 // 'caller'\n 29993: a2 = u64 [s1 + 0x108]\n 29997: t0 = 0x458\n 30001: jump @1515\n      : @1092 [@dyn 555] (gas: 2)\n 30004: a2 = u64 [s1 + 0x108]\n 30008: t0 = 1112, jump @1515\n      : @1093 [@dyn 556] (gas: 8)\n 30014: u64 [a2 + 1152] = 0\n 30018: a4 = a2 + 0x400\n 30022: u64 [a4 + 0x78] = a1\n 30025: u64 [a4 + 0x70] = a0\n 30028: a1 = s1 + 0x1d80\n 30032: u64 [a4 + 0x68] = a3\n 30035: a0 = 0\n 30037: ra = 1114, jump @24\n      : @1094 [@dyn 557] (gas: 3)\n 30043: t0 = 0x45c\n 30047: a1 = s1 + 0x1918\n 30051: fallthrough\n      : @1095 [@dyn 558] (gas: 8)\n 30052: u64 [a1 + 1120] = 0\n 30056: u64 [a1 + 1112] = 0\n 30060: u64 [a1 + 1096] = 0x2\n 30065: a2 = a1\n 30067: a0 = 0x20\n 30070: a1 = s1 + 0x1d60\n 30074: u64 [a2 + 1104] = 0\n 30078: ra = 1118, jump @24\n      : @1096 [@dyn 559] (gas: 3)\n 30084: a0 = u64 [s1 + 0x118]\n 30088: a0 = i32 [a0]\n 30090: jump @1098 if a0 >u 63\n      : @1097 (gas: 4)\n 30094: a1 = u64 [s1 + 0x118]\n 30098: u32 [a1 + 0] = 0x40\n 30101: t0 = 0x460\n 30105: jump @1523\n      : @1098 (gas: 1)\n 30108: t0 = 1120, jump @1523\n      : @1099 [@dyn 560] (gas: 4)\n 30114: ra = 0x462\n 30118: ecalli 8 // 'hash_keccak_256'\n 30120: t0 = 0x464\n 30124: jump @1530\n      : @1100 [@dyn 561] (gas: 1)\n 30127: t0 = 1124, jump @1530\n      : @1101 [@dyn 562] (gas: 8)\n 30133: u64 [a2 + 1088] = 0\n 30137: u64 [a2 + 1080] = 0\n 30141: u64 [a2 + 1072] = 0\n 30145: a1 = s1 + 0x1d40\n 30149: a0 = u64 [s1 + 0xf8]\n 30153: u64 [a2 + 0x428] = a0\n 30157: a0 = 0\n 30159: ra = 1126, jump @24\n      : @1102 [@dyn 563] (gas: 14)\n 30165: a0 = u64 [s1 + 0x178]\n 30169: a1 = s1 + 0x1918\n 30173: a2 = a1 + 0x400\n 30177: u64 [a2 + 0x20] = a0\n 30180: a0 = u64 [s1 + 0x180]\n 30184: u64 [a2 + 0x18] = a0\n 30187: a0 = u64 [s1 + 0x188]\n 30191: u64 [a2 + 0x10] = a0\n 30194: a3 = a1\n 30196: a0 = 0x20\n 30199: a1 = s1 + 0x1d20\n 30203: a2 = u64 [s1 + 0x190]\n 30207: u64 [a3 + 0x408] = a2\n 30211: ra = 1128, jump @24\n      : @1103 [@dyn 564] (gas: 3)\n 30217: a0 = u64 [s1 + 0x118]\n 30221: a0 = i32 [a0]\n 30223: jump @1105 if a0 >u 63\n      : @1104 (gas: 4)\n 30227: a0 = u64 [s1 + 0x118]\n 30231: u32 [a0 + 0] = 0x40\n 30234: t0 = 0x46a\n 30238: jump @1523\n      : @1105 (gas: 1)\n 30241: t0 = 1130, jump @1523\n      : @1106 [@dyn 565] (gas: 4)\n 30247: ra = 0x46c\n 30251: ecalli 8 // 'hash_keccak_256'\n 30253: t0 = 0x46e\n 30257: jump @1556\n      : @1107 [@dyn 566] (gas: 1)\n 30260: t0 = 1134, jump @1556\n      : @1108 [@dyn 567] (gas: 2)\n 30266: a4 = a3 + 0x2\n 30269: t0 = 1136, jump @1529\n      : @1109 [@dyn 568] (gas: 8)\n 30275: a1 = s1 + 0x3138\n 30279: u64 [a1 + 0x8] = a4\n 30282: u64 [a1 + 0x10] = a5\n 30285: u64 [a1 + 0x18] = a2\n 30288: u64 [a1 + 0x20] = a0\n 30291: a0 = s1 + 0x1d00\n 30295: a1 = s1 + 0x3140\n 30299: ra = 1138, jump @26\n      : @1110 [@dyn 569] (gas: 3)\n 30305: a0 = s1 + 0x1918\n 30309: a0 = u8 [a0 + 0x3f0]\n 30313: jump @1153 if a0 == 0\n      : @1111 (gas: 3)\n 30317: t0 = 0x474\n 30321: a2 = s1 + 0x1918\n 30325: fallthrough\n      : @1112 [@dyn 570] (gas: 9)\n 30326: u64 [a2 + 984] = 0\n 30330: u64 [a2 + 976] = 0\n 30334: a0 = 0xa7a9536d00000000\n 30344: u64 [a2 + 0x3e0] = a0\n 30348: a1 = s1 + 0x1ce0\n 30352: u64 [a2 + 968] = 0\n 30356: a0 = 0\n 30358: ra = 0x508\n 30362: jump @24\n      : @1113 (gas: 3)\n 30365: a0 = u64 [s1 + 0x198]\n 30369: a0 = i32 [a0]\n 30371: jump @1182 if a0 >u 99\n      : @1114 (gas: 2)\n 30376: a1 = 0x20190\n 30381: jump @1041\n      : @1115 (gas: 4)\n 30384: a0 = s1 + 0x220\n 30388: ra = 0x476\n 30392: t0 = 0x566\n 30396: jump @1577\n      : @1116 [@dyn 571] (gas: 11)\n 30399: a3 = s1 + 0x200\n 30403: a0 = u64 [a3 + 0x20]\n 30406: a1 = u64 [a3 + 0x28]\n 30409: a2 = u32 [s1 + 0x230]\n 30413: u64 [s1 + 536] = 0\n 30417: u64 [a3 + 0x10] = a2\n 30420: u64 [a3 + 0x8] = a1\n 30423: a1 = s1 + 0x200\n 30427: u64 [a3] = a0\n 30429: a0 = 0\n 30431: ra = 1144, jump @24\n      : @1117 [@dyn 572] (gas: 7)\n 30437: u64 [s1 + 504] = 0\n 30441: u64 [s1 + 496] = 0\n 30445: u64 [s1 + 480] = 0x3\n 30450: a0 = 0x20\n 30453: a1 = s1 + 0x1e0\n 30457: u64 [s1 + 488] = 0\n 30461: ra = 1146, jump @24\n      : @1118 [@dyn 573] (gas: 4)\n 30467: a0 = 0x20180\n 30472: u64 [s1 + 0x198] = a0\n 30476: a0 = i32 [0x20180]\n 30481: jump @1120 if a0 >u 63\n      : @1119 (gas: 3)\n 30485: a1 = u64 [s1 + 0x198]\n 30489: u32 [a1 + 0] = 0x40\n 30492: fallthrough\n      : @1120 (gas: 14)\n 30493: a0 = sp + 0xffffffffffffffe0\n 30496: a2 = a0 & 0xffffffffffffffe0\n 30499: u64 [s1 + 0x188] = a2\n 30503: sp = a2\n 30505: a0 = 0x20190\n 30510: u64 [s1 + 0x190] = a0\n 30514: i32 a0 = a0 + 0\n 30516: i32 a2 = a2 + 0\n 30518: a1 = 0x40\n 30521: ra = 0x47c\n 30525: ecalli 8 // 'hash_keccak_256'\n 30527: a3 = u64 [s1 + 0x188]\n 30531: t0 = 0x47e\n 30535: jump @1525\n      : @1121 [@dyn 574] (gas: 2)\n 30538: a3 = u64 [s1 + 0x188]\n 30542: t0 = 1150, jump @1525\n      : @1122 [@dyn 575] (gas: 8)\n 30548: a5 = a4 + 0x200\n 30552: u64 [a5 + 0x60] = a3\n 30555: u64 [a5 + 0x58] = a2\n 30558: u64 [a5 + 0x50] = a1\n 30561: u64 [a5 + 0x48] = a0\n 30564: a0 = s1 + 0x1c0\n 30568: a1 = s1 + 0x2b80\n 30572: ra = 1152, jump @26\n      : @1123 [@dyn 576] (gas: 8)\n 30578: a0 = u32 [s1 + 0x1c0]\n 30582: u64 [s1 + 440] = 0\n 30586: u64 [s1 + 432] = 0\n 30590: u64 [s1 + 0x1a0] = a0\n 30594: a0 = 0x80\n 30598: a1 = s1 + 0x1a0\n 30602: u64 [s1 + 424] = 0\n 30606: ra = 1154, jump @24\n      : @1124 [@dyn 577] (gas: 3)\n 30612: a0 = u64 [s1 + 0x198]\n 30616: a0 = i32 [a0]\n 30618: jump @1126 if a0 >u 159\n      : @1125 (gas: 5)\n 30623: a1 = u64 [s1 + 0x198]\n 30627: u32 [a1 + 0] = 0xa0\n 30631: a0 = u64 [s1 + 0x190]\n 30635: i32 a1 = a0 + 0x80\n 30639: jump @961\n      : @1126 (gas: 3)\n 30642: a0 = u64 [s1 + 0x190]\n 30646: i32 a1 = a0 + 0x80\n 30650: jump @961\n      : @1127 (gas: 3)\n 30653: t0 = 0x484\n 30657: a2 = s1 + 0x1918\n 30661: fallthrough\n      : @1128 [@dyn 578] (gas: 8)\n 30662: u64 [a2 + 1944] = 0\n 30666: u64 [a2 + 1936] = 0\n 30670: a0 = 0x6f1cf7db00000000\n 30680: u64 [a2 + 0x7a0] = a0\n 30684: a1 = s1 + 0x20a0\n 30688: u64 [a2 + 1928] = 0\n 30692: a0 = 0\n 30694: ra = 1158, jump @24\n      : @1129 [@dyn 579] (gas: 3)\n 30700: a0 = u64 [s1 + 0x198]\n 30704: a0 = i32 [a0]\n 30706: jump @1131 if a0 >u 31\n      : @1130 (gas: 5)\n 30710: a1 = u64 [s1 + 0x198]\n 30714: u32 [a1 + 0] = 0x20\n 30717: a0 = 0x1\n 30720: a2 = 0x4\n 30723: jump @1218\n      : @1131 (gas: 7)\n 30726: a0 = 0x1\n 30729: a2 = 0x4\n 30732: a1 = u64 [s1 + 0x190]\n 30736: ecalli 13 // 'seal_return'\n 30738: t0 = 0x506\n 30742: a2 = s1 + 0x1918\n 30746: jump @1220\n      : @1132 (gas: 15)\n 30749: a1 = 0xffffffff\n 30759: u64 [s1 + 0x168] = a1\n 30763: a3 = s1 + 0x1918\n 30767: a1 = u64 [a3 + 0x6e8]\n 30771: a2 = u64 [a3 + 0x6f8]\n 30775: a3 = u64 [a3 + 0x700]\n 30779: a0 = a0 | 0x1\n 30782: a4 = s1 + 0x3138\n 30786: u64 [a4 + 0x68] = a1\n 30789: u64 [a4 + 0x78] = a2\n 30792: u64 [a4 + 0x70] = a0\n 30795: u64 [a4 + 0x80] = a3\n 30799: a1 = s1 + 0x31a0\n 30803: a0 = u64 [s1 + 0x178]\n 30807: ra = 1160, jump @28\n      : @1133 [@dyn 580] (gas: 6)\n 30813: a0 = u64 [s1 + 0x180]\n 30817: ra = 0x48a\n 30821: ecalli 4 // 'caller'\n 30823: a2 = u64 [s1 + 0x188]\n 30827: t0 = 0x48c\n 30831: jump @1515\n      : @1134 [@dyn 581] (gas: 2)\n 30834: a2 = u64 [s1 + 0x188]\n 30838: t0 = 1164, jump @1515\n      : @1135 [@dyn 582] (gas: 8)\n 30844: u64 [a2 + 1728] = 0\n 30848: a4 = a2 + 0x600\n 30852: u64 [a4 + 0xb8] = a1\n 30856: u64 [a4 + 0xb0] = a0\n 30860: a1 = s1 + 0x1fc0\n 30864: u64 [a4 + 0xa8] = a3\n 30868: a0 = 0\n 30870: ra = 1166, jump @24\n      : @1136 [@dyn 583] (gas: 3)\n 30876: t0 = 0x490\n 30880: a1 = s1 + 0x1918\n 30884: fallthrough\n      : @1137 [@dyn 584] (gas: 8)\n 30885: u64 [a1 + 1696] = 0\n 30889: u64 [a1 + 1688] = 0\n 30893: u64 [a1 + 1672] = 0x1\n 30898: a2 = a1\n 30900: a0 = 0x20\n 30903: a1 = s1 + 0x1fa0\n 30907: u64 [a2 + 1680] = 0\n 30911: ra = 1170, jump @24\n      : @1138 [@dyn 585] (gas: 7)\n 30917: a0 = sp + 0xffffffffffffffe0\n 30920: a0 = a0 & 0xffffffffffffffe0\n 30923: u64 [s1 + 0x178] = a0\n 30927: sp = a0\n 30929: a0 = u64 [s1 + 0x198]\n 30933: a0 = i32 [a0]\n 30935: jump @1140 if a0 >u 63\n      : @1139 (gas: 3)\n 30939: a1 = u64 [s1 + 0x198]\n 30943: u32 [a1 + 0] = 0x40\n 30946: fallthrough\n      : @1140 (gas: 4)\n 30947: a0 = sp + 0xffffffffffffffe0\n 30950: a0 = a0 & 0xffffffffffffffe0\n 30953: u64 [s1 + 0x160] = a0\n 30957: t0 = 1172, jump @1535\n      : @1141 [@dyn 586] (gas: 3)\n 30963: ra = 0x496\n 30967: ecalli 8 // 'hash_keccak_256'\n 30969: fallthrough\n      : @1142 [@dyn 587] (gas: 11)\n 30970: a3 = u64 [s1 + 0x160]\n 30974: a0 = u64 [a3]\n 30976: a1 = u64 [a3 + 0x8]\n 30979: a2 = u64 [a3 + 0x10]\n 30982: a3 = u64 [a3 + 0x18]\n 30985: a0 = reverse a0\n 30987: a1 = reverse a1\n 30989: a2 = reverse a2\n 30991: a3 = reverse a3\n 30993: a4 = a3 + 0x3\n 30996: t0 = 1176, jump @1529\n      : @1143 [@dyn 588] (gas: 7)\n 31002: a1 = u64 [s1 + 0x178]\n 31006: u64 [a1] = a4\n 31008: u64 [a1 + 0x8] = a5\n 31011: u64 [a1 + 0x10] = a2\n 31014: u64 [a1 + 0x18] = a0\n 31017: a0 = s1 + 0x1f80\n 31021: ra = 1178, jump @26\n      : @1144 [@dyn 589] (gas: 5)\n 31027: a0 = s1 + 0x1918\n 31031: a0 = u64 [a0 + 0x668]\n 31035: a1 = u64 [s1 + 0x168]\n 31039: a1 = a1 & a0\n 31042: jump @1212 if a1 == 0\n      : @1145 (gas: 7)\n 31046: a1 = u64 [s1 + 0x168]\n 31050: a0 = a0 + a1\n 31053: a0 = a0 & a1\n 31056: u64 [s1 + 0x198] = a0\n 31060: a0 = s1 + 0x1f60\n 31064: a1 = u64 [s1 + 0x178]\n 31068: ra = 1180, jump @26\n      : @1146 [@dyn 590] (gas: 17)\n 31074: a3 = s1 + 0x1918\n 31078: a0 = u32 [a3 + 0x64c]\n 31082: a0 = a0 << 0x20\n 31085: a4 = a3 + 0x600\n 31089: a1 = u64 [a4 + 0x60]\n 31092: a2 = u64 [a4 + 0x58]\n 31095: a3 = u64 [a4 + 0x50]\n 31098: a4 = u64 [s1 + 0x198]\n 31102: a0 = a0 | a4\n 31105: a4 = s1 + 0x3138\n 31109: u64 [a4 + 0xa0] = a1\n 31113: u64 [a4 + 0x98] = a2\n 31117: u64 [a4 + 0x90] = a3\n 31121: u64 [a4 + 0x88] = a0\n 31125: a1 = s1 + 0x31c0\n 31129: a0 = u64 [s1 + 0x178]\n 31133: ra = 1182, jump @28\n      : @1147 [@dyn 591] (gas: 6)\n 31139: a0 = u64 [s1 + 0x180]\n 31143: ra = 0x4a0\n 31147: ecalli 4 // 'caller'\n 31149: a2 = u64 [s1 + 0x188]\n 31153: t0 = 0x4a2\n 31157: jump @1519\n      : @1148 [@dyn 592] (gas: 2)\n 31160: a2 = u64 [s1 + 0x188]\n 31164: t0 = 1186, jump @1519\n      : @1149 [@dyn 593] (gas: 31)\n 31170: t0 = a1 | a0\n 31173: a3 = a3 >> 0x20\n 31176: a2 = reverse a2\n 31178: a1 = a2 << 0x20\n 31181: a1 = a1 | a3\n 31184: a2 = a2 >> 0x20\n 31187: a3 = u64 [s1 + 0x170]\n 31191: a0 = s1 + 0x1918\n 31195: u64 [a0 + 0x5e8] = a3\n 31199: a3 = u64 [0x20040]\n 31204: a4 = u64 [0x20048]\n 31209: a5 = u64 [0x20050]\n 31214: u64 [a0 + 0x640] = a3\n 31218: u64 [a0 + 0x638] = a4\n 31222: u64 [a0 + 1536] = 0\n 31226: a4 = a0 + 0x600\n 31230: u64 [a4 + 0x30] = a5\n 31233: a3 = u64 [0x20058]\n 31238: u64 [a0 + 1528] = 0\n 31242: u64 [a0 + 1520] = 0\n 31246: u64 [a0 + 1568] = 0\n 31250: u64 [a4 + 0x28] = a3\n 31253: u64 [a4 + 0x18] = a2\n 31256: u64 [a4 + 0x10] = a1\n 31259: a2 = s1 + 0x1f40\n 31263: a3 = s1 + 0x1f20\n 31267: a4 = s1 + 0x1f00\n 31271: u64 [a0 + 0x608] = t0\n 31275: a0 = 0\n 31277: a1 = 0\n 31279: ra = 1188, jump @31\n      : @1150 [@dyn 594] (gas: 3)\n 31285: a0 = 0\n 31287: a1 = u64 [s1 + 0x190]\n 31291: jump @1042\n      : @1151 (gas: 3)\n 31294: t0 = 0x4a6\n 31298: a2 = s1 + 0x1918\n 31302: fallthrough\n      : @1152 [@dyn 595] (gas: 9)\n 31303: u64 [a2 + 1176] = 0\n 31307: u64 [a2 + 1168] = 0\n 31311: a0 = 0xd5b25b6300000000\n 31321: u64 [a2 + 0x4a0] = a0\n 31325: a1 = s1 + 0x1da0\n 31329: u64 [a2 + 1160] = 0\n 31333: a0 = 0\n 31335: ra = 0x508\n 31339: jump @24\n      : @1153 (gas: 6)\n 31342: a0 = u64 [s1 + 0x100]\n 31346: ra = 0x4a8\n 31350: ecalli 4 // 'caller'\n 31352: a2 = u64 [s1 + 0x108]\n 31356: t0 = 0x4aa\n 31360: jump @1515\n      : @1154 [@dyn 596] (gas: 2)\n 31363: a2 = u64 [s1 + 0x108]\n 31367: t0 = 1194, jump @1515\n      : @1155 [@dyn 597] (gas: 8)\n 31373: u64 [a2 + 960] = 0\n 31377: a4 = a2 + 0x300\n 31381: u64 [a4 + 0xb8] = a1\n 31385: u64 [a4 + 0xb0] = a0\n 31389: a1 = s1 + 0x1cc0\n 31393: u64 [a4 + 0xa8] = a3\n 31397: a0 = 0\n 31399: ra = 1196, jump @24\n      : @1156 [@dyn 598] (gas: 3)\n 31405: t0 = 0x4ae\n 31409: a1 = s1 + 0x1918\n 31413: fallthrough\n      : @1157 [@dyn 599] (gas: 8)\n 31414: u64 [a1 + 928] = 0\n 31418: u64 [a1 + 920] = 0\n 31422: u64 [a1 + 904] = 0x4\n 31427: a2 = a1\n 31429: a0 = 0x20\n 31432: a1 = s1 + 0x1ca0\n 31436: u64 [a2 + 912] = 0\n 31440: ra = 1200, jump @24\n      : @1158 [@dyn 600] (gas: 3)\n 31446: a0 = u64 [s1 + 0x118]\n 31450: a0 = i32 [a0]\n 31452: jump @1160 if a0 >u 63\n      : @1159 (gas: 4)\n 31456: a1 = u64 [s1 + 0x118]\n 31460: u32 [a1 + 0] = 0x40\n 31463: t0 = 0x4b2\n 31467: jump @1523\n      : @1160 (gas: 1)\n 31470: t0 = 1202, jump @1523\n      : @1161 [@dyn 601] (gas: 4)\n 31476: ra = 0x4b4\n 31480: ecalli 8 // 'hash_keccak_256'\n 31482: t0 = 0x4b6\n 31486: jump @1530\n      : @1162 [@dyn 602] (gas: 1)\n 31489: t0 = 1206, jump @1530\n      : @1163 [@dyn 603] (gas: 8)\n 31495: u64 [a2 + 896] = 0\n 31499: u64 [a2 + 888] = 0\n 31503: u64 [a2 + 880] = 0\n 31507: a1 = s1 + 0x1c80\n 31511: a0 = u64 [s1 + 0x198]\n 31515: u64 [a2 + 0x368] = a0\n 31519: a0 = 0\n 31521: ra = 1208, jump @24\n      : @1164 [@dyn 604] (gas: 14)\n 31527: a0 = u64 [s1 + 0x178]\n 31531: a1 = s1 + 0x1918\n 31535: a2 = a1 + 0x300\n 31539: u64 [a2 + 0x60] = a0\n 31542: a0 = u64 [s1 + 0x180]\n 31546: u64 [a2 + 0x58] = a0\n 31549: a0 = u64 [s1 + 0x188]\n 31553: u64 [a2 + 0x50] = a0\n 31556: a3 = a1\n 31558: a0 = 0x20\n 31561: a1 = s1 + 0x1c60\n 31565: a2 = u64 [s1 + 0x190]\n 31569: u64 [a3 + 0x348] = a2\n 31573: ra = 1210, jump @24\n      : @1165 [@dyn 605] (gas: 3)\n 31579: a0 = u64 [s1 + 0x118]\n 31583: a0 = i32 [a0]\n 31585: jump @1167 if a0 >u 63\n      : @1166 (gas: 4)\n 31589: a0 = u64 [s1 + 0x118]\n 31593: u32 [a0 + 0] = 0x40\n 31596: t0 = 0x4bc\n 31600: jump @1523\n      : @1167 (gas: 1)\n 31603: t0 = 1212, jump @1523\n      : @1168 [@dyn 606] (gas: 5)\n 31609: ra = 0x4be\n 31613: ecalli 8 // 'hash_keccak_256'\n 31615: a3 = u64 [s1 + 0x190]\n 31619: t0 = 0x4c0\n 31623: jump @1534\n      : @1169 [@dyn 607] (gas: 2)\n 31626: a3 = u64 [s1 + 0x190]\n 31630: t0 = 1216, jump @1534\n      : @1170 [@dyn 608] (gas: 5)\n 31636: u64 [s1 + 0x190] = a0\n 31640: sp = a0\n 31642: t0 = 0x4c2\n 31646: a2 = s1 + 0x1918\n 31650: fallthrough\n      : @1171 [@dyn 609] (gas: 8)\n 31651: u64 [a2 + 832] = 0\n 31655: u64 [a2 + 824] = 0\n 31659: u64 [a2 + 816] = 0\n 31663: a1 = s1 + 0x1c40\n 31667: a0 = u64 [s1 + 0xf8]\n 31671: u64 [a2 + 0x328] = a0\n 31675: a0 = 0\n 31677: ra = 1220, jump @24\n      : @1172 [@dyn 610] (gas: 14)\n 31683: a0 = u64 [s1 + 0x170]\n 31687: a1 = s1 + 0x1918\n 31691: a2 = a1 + 0x300\n 31695: u64 [a2 + 0x20] = a0\n 31698: a0 = u64 [s1 + 0x178]\n 31702: u64 [a2 + 0x18] = a0\n 31705: a0 = u64 [s1 + 0x180]\n 31709: u64 [a2 + 0x10] = a0\n 31712: a3 = a1\n 31714: a0 = 0x20\n 31717: a1 = s1 + 0x1c20\n 31721: a2 = u64 [s1 + 0x188]\n 31725: u64 [a3 + 0x308] = a2\n 31729: ra = 1222, jump @24\n      : @1173 [@dyn 611] (gas: 3)\n 31735: a0 = u64 [s1 + 0x118]\n 31739: a0 = i32 [a0]\n 31741: jump @1175 if a0 >=u 64\n      : @1174 (gas: 3)\n 31745: a0 = u64 [s1 + 0x118]\n 31749: u32 [a0 + 0] = 0x40\n 31752: fallthrough\n      : @1175 (gas: 12)\n 31753: a0 = sp + 0xffffffffffffffe0\n 31756: a0 = a0 & 0xffffffffffffffe0\n 31759: u64 [s1 + 0x188] = a0\n 31763: sp = a0\n 31765: i32 a2 = a0 + 0\n 31767: a1 = 0x40\n 31770: a0 = u64 [s1 + 0x110]\n 31774: ra = 0x4c8\n 31778: ecalli 8 // 'hash_keccak_256'\n 31780: a3 = u64 [s1 + 0x188]\n 31784: t0 = 0x4ca\n 31788: jump @1526\n      : @1176 [@dyn 612] (gas: 2)\n 31791: a3 = u64 [s1 + 0x188]\n 31795: t0 = 1226, jump @1526\n      : @1177 [@dyn 613] (gas: 7)\n 31801: a1 = u64 [s1 + 0x190]\n 31805: u64 [a1 + 0x18] = a3\n 31808: u64 [a1 + 0x10] = a2\n 31811: u64 [a1 + 0x8] = a4\n 31814: u64 [a1] = a0\n 31816: a0 = s1 + 0x1c00\n 31820: ra = 1228, jump @26\n      : @1178 [@dyn 614] (gas: 4)\n 31826: a0 = s1 + 0x1918\n 31830: a0 = u64 [a0 + 0x2e8]\n 31834: a1 = a0 & 0xff\n 31838: jump @1219 if a1 == 0\n      : @1179 (gas: 2)\n 31842: a1 = a0 & 0xff00\n 31847: jump @1224 if a1 == 0\n      : @1180 (gas: 3)\n 31851: t0 = 0x4ce\n 31855: a2 = s1 + 0x1918\n 31859: fallthrough\n      : @1181 [@dyn 615] (gas: 9)\n 31860: u64 [a2 + 728] = 0\n 31864: u64 [a2 + 720] = 0\n 31868: a0 = 0xc98289f000000000\n 31878: u64 [a2 + 0x2e0] = a0\n 31882: a1 = s1 + 0x1be0\n 31886: u64 [a2 + 712] = 0\n 31890: a0 = 0\n 31892: ra = 0x508\n 31896: jump @24\n      : @1182 (gas: 5)\n 31899: a0 = s1 + 0x7ff\n 31903: a0 = a0 + 0x641\n 31907: ra = 0x4d0\n 31911: t0 = 0x566\n 31915: jump @1577\n      : @1183 [@dyn 616] (gas: 16)\n 31918: a1 = s1 + 0x7ff\n 31922: a1 = a1 + 0x111\n 31926: a2 = a1 + 0x500\n 31930: a0 = u64 [a2 + 0x48]\n 31933: u64 [s1 + 0xd8] = a0\n 31937: a0 = u64 [a2 + 0x40]\n 31940: u64 [s1 + 0xe0] = a0\n 31944: a0 = u64 [a2 + 0x38]\n 31947: u64 [s1 + 0x118] = a0\n 31951: a0 = u64 [a2 + 0x30]\n 31954: u64 [s1 + 0x110] = a0\n 31958: a0 = s1 + 0x7ff\n 31962: a0 = a0 + 0x621\n 31966: ra = 0x4d2\n 31970: t0 = 0x56a\n 31974: jump @1590\n      : @1184 [@dyn 617] (gas: 16)\n 31977: a1 = s1 + 0x7ff\n 31981: a1 = a1 + 0x111\n 31985: a2 = a1 + 0x500\n 31989: a0 = u64 [a2 + 0x28]\n 31992: u64 [s1 + 0xd0] = a0\n 31996: a0 = u64 [a2 + 0x20]\n 31999: u64 [s1 + 0xc8] = a0\n 32003: a0 = u64 [a2 + 0x18]\n 32006: u64 [s1 + 0xc0] = a0\n 32010: a0 = u64 [a2 + 0x10]\n 32013: u64 [s1 + 0x100] = a0\n 32017: a0 = s1 + 0x7ff\n 32021: a0 = a0 + 0x601\n 32025: ra = 0x4d4\n 32029: t0 = 0x570\n 32033: jump @1590\n      : @1185 [@dyn 618] (gas: 8)\n 32036: a0 = s1 + 0x7ff\n 32040: a0 = a0 + 0x111\n 32044: a0 = u64 [a0 + 0x4f0]\n 32048: u64 [s1 + 0x108] = a0\n 32052: a0 = s1 + 0x3000\n 32056: i32 a0 = a0 + 0xfffffffffffffe80\n 32060: ecalli 9 // 'now'\n 32062: fallthrough\n      : @1186 (gas: 49)\n 32063: a0 = s1 + 0x2938\n 32067: t0 = u64 [a0 + 0x560]\n 32071: a4 = u64 [a0 + 0x558]\n 32075: u64 [s1 + 0x158] = a4\n 32079: t2 = u64 [a0 + 0x550]\n 32083: a3 = u64 [a0 + 0x548]\n 32087: u64 [s1 + 0x140] = a3\n 32091: a0 = clz t0\n 32093: a1 = clz a4\n 32095: a2 = a1 + 0x40\n 32098: a2 = a0 if t0 != 0\n 32101: a0 = clz t2\n 32103: a1 = clz a3\n 32105: a1 = a1 + 0x40\n 32108: a1 = a0 if t2 != 0\n 32111: a0 = a1 + 0x80\n 32115: a3 = a4 | t0\n 32118: a2 = a0 if a3 == 0\n 32121: a5 = a0 <u a1\n 32124: a5 = 0 if a3 != 0\n 32126: a4 = a5 >u 0\n 32128: a0 = a2 <u 0xf0\n 32132: a3 = a0 ^ 0x1\n 32135: a4 = a3 if a5 == 0\n 32138: a0 = a4 <u 0x1\n 32141: ra = a0 + 0xffffffffffffffff\n 32144: t1 = -a4\n 32146: a5 = -a5\n 32148: a3 = a5 - a3\n 32151: a2 = 0xef - a2\n 32155: a5 = t1 >u 0\n 32157: a0 = ra >u 0\n 32159: a0 = a5 if ra == 0\n 32162: a5 = a2 <u 0x100\n 32166: a5 = a5 ^ 0x1\n 32169: a1 = a3 >u 0\n 32171: a5 = a1 if a3 != 0\n 32174: a5 = a0 if a4 != 0\n 32177: u64 [s1 + 0x138] = t2\n 32181: u64 [s1 + 0x150] = t0\n 32185: a0 = t2 | t0\n 32188: a4 = u64 [s1 + 0x140]\n 32192: a1 = u64 [s1 + 0x158]\n 32196: a1 = a1 | a4\n 32199: a0 = a0 | a1\n 32202: a0 = a0 <u 0x1\n 32205: a0 = a0 | a5\n 32208: a4 = 0 if a0 != 0\n 32210: jump @1231 if a0 != 0\n      : @1187 (gas: 5)\n 32214: a0 = a2 ^ 0xff\n 32218: a0 = a0 | t1\n 32221: a1 = a3 | ra\n 32224: a0 = a0 | a1\n 32227: jump @1231 if a0 == 0\n      : @1188 (gas: 1)\n 32231: t0 = 1238, jump @1524\n      : @1189 [@dyn 619] (gas: 1)\n 32237: ra = 1240, jump @1594\n      : @1190 [@dyn 620] (gas: 1)\n 32243: t0 = 1242, jump @1580\n      : @1191 [@dyn 621] (gas: 1)\n 32249: ra = 1244, jump @1599\n      : @1192 [@dyn 622] (gas: 1)\n 32255: t0 = 1246, jump @1573\n      : @1193 [@dyn 623] (gas: 1)\n 32261: ra = 1248, jump @1599\n      : @1194 [@dyn 624] (gas: 8)\n 32267: u64 [s1 + 0x120] = a0\n 32271: u64 [s1 + 0xf8] = a1\n 32275: a2 = u64 [s1 + 0x160]\n 32279: a0 = a2 <u 0x80\n 32283: u64 [s1 + 0xf0] = a0\n 32287: a0 = u64 [s1 + 0x140]\n 32291: a1 = u64 [s1 + 0x138]\n 32295: ra = 1250, jump @1599\n      : @1195 [@dyn 625] (gas: 1)\n 32301: t0 = 1252, jump @1591\n      : @1196 [@dyn 626] (gas: 4)\n 32307: a3 = u64 [s1 + 0xf0]\n 32311: a0 = 0 if a3 == 0\n 32313: u64 [a4 + 0x78] = a0\n 32316: jump @1229 if a1 == 0\n      : @1197 (gas: 7)\n 32320: a2 = a3\n 32322: a0 = u64 [s1 + 0x168]\n 32326: a1 = u64 [s1 + 0x128]\n 32330: a0 = a0 | a1\n 32333: a5 = a3\n 32335: a1 = u64 [s1 + 0xf8]\n 32339: t0 = 1254, jump @1520\n      : @1198 [@dyn 627] (gas: 1)\n 32345: ra = 1256, jump @1594\n      : @1199 [@dyn 628] (gas: 1)\n 32351: t0 = 1258, jump @1581\n      : @1200 [@dyn 629] (gas: 1)\n 32357: ra = 1260, jump @1594\n      : @1201 [@dyn 630] (gas: 2)\n 32363: u64 [s1 + 0xf8] = a0\n 32367: t0 = 1262, jump @1572\n      : @1202 [@dyn 631] (gas: 1)\n 32373: ra = 1264, jump @1599\n      : @1203 [@dyn 632] (gas: 1)\n 32379: t0 = 1266, jump @1547\n      : @1204 [@dyn 633] (gas: 2)\n 32385: a1 = u64 [s1 + 0xf8]\n 32389: t0 = 1268, jump @1553\n      : @1205 [@dyn 634] (gas: 1)\n 32395: ra = 1270, jump @1594\n      : @1206 [@dyn 635] (gas: 1)\n 32401: t0 = 1272, jump @1532\n      : @1207 [@dyn 636] (gas: 1)\n 32407: t0 = 1274, jump @1545\n      : @1208 [@dyn 637] (gas: 5)\n 32413: t0 = ra <u a2\n 32416: a4 = u64 [s1 + 0x128]\n 32420: a5 = a4 <u a3\n 32423: a5 = t0 if t1 != 0\n 32426: t0 = 1276, jump @1546\n      : @1209 [@dyn 638] (gas: 20)\n 32432: t0 = a0 | a1\n 32435: a1 = a4 << 0x1\n 32438: a4 = u64 [s1 + 0x170]\n 32442: t1 = a4 >> 0x3f\n 32445: t1 = a1 | t1\n 32448: a1 = a4 << 0x1\n 32451: a4 = u64 [s1 + 0x178]\n 32455: t2 = a4 >> 0x3f\n 32458: a1 = a1 | t2\n 32461: a4 = a4 << 0x1\n 32464: a0 = u64 [s1 + 0x158]\n 32468: a4 = a4 | a0\n 32471: u64 [s1 + 0x178] = a4\n 32475: a0 = u64 [s1 + 0x150]\n 32479: a1 = a1 | a0\n 32482: u64 [s1 + 0x170] = a1\n 32486: a1 = a0 | t1\n 32489: u64 [s1 + 0x160] = a1\n 32493: a0 = a0 | t0\n 32496: t0 = 1278, jump @1518\n      : @1210 [@dyn 639] (gas: 18)\n 32502: t0 = a4 <u a2\n 32505: a2 = a4 - a2\n 32508: a4 = a3 <u 0x1\n 32511: a5 = a5 - a4\n 32514: a4 = u64 [a0 + 0x88]\n 32518: a4 = a4 - t0\n 32521: a3 = a3 + 0xffffffffffffffff\n 32524: u64 [a0 + 0x90] = a5\n 32528: u64 [a0 + 0x88] = a4\n 32532: t0 = a5 | a4\n 32535: u64 [a0 + 0x98] = a3\n 32539: a4 = a3 | a2\n 32542: a3 = a4 | t0\n 32545: a4 = ra & 0x1\n 32548: u64 [a0 + 0x58] = a4\n 32551: u64 [a0 + 0x80] = a2\n 32555: u64 [s1 + 336] = 0\n 32559: jump @1207 if a3 != 0\n      : @1211 (gas: 1)\n 32563: jump @1230\n      : @1212 (gas: 10)\n 32566: a0 = s1 + 0x1918\n 32570: u64 [a0 + 1496] = 0\n 32574: u64 [a0 + 1488] = 0\n 32578: u64 [a0 + 1480] = 0\n 32582: a2 = a0\n 32584: a0 = 0x4e487b7100000000\n 32594: a1 = s1 + 0x1ee0\n 32598: u64 [a2 + 0x5e0] = a0\n 32602: a0 = 0\n 32604: ra = 1280, jump @24\n      : @1213 [@dyn 640] (gas: 3)\n 32610: t0 = 0x502\n 32614: a1 = s1 + 0x1918\n 32618: fallthrough\n      : @1214 [@dyn 641] (gas: 8)\n 32619: u64 [a1 + 1472] = 0\n 32623: u64 [a1 + 1464] = 0\n 32627: u64 [a1 + 1448] = 0x11\n 32632: a2 = a1\n 32634: a0 = 0x4\n 32637: a1 = s1 + 0x1ec0\n 32641: u64 [a2 + 1456] = 0\n 32645: ra = 1284, jump @24\n      : @1215 [@dyn 642] (gas: 3)\n 32651: a0 = u64 [s1 + 0x198]\n 32655: a0 = i32 [a0]\n 32657: jump @1217 if a0 >u 63\n      : @1216 (gas: 5)\n 32661: a1 = u64 [s1 + 0x198]\n 32665: u32 [a1 + 0] = 0x40\n 32668: a0 = 0x1\n 32671: a2 = 0x24\n 32674: jump @1218\n      : @1217 (gas: 7)\n 32676: a0 = 0x1\n 32679: a2 = 0x24\n 32682: a1 = u64 [s1 + 0x190]\n 32686: ecalli 13 // 'seal_return'\n 32688: t0 = 0x506\n 32692: a2 = s1 + 0x1918\n 32696: jump @1220\n      : @1218 (gas: 5)\n 32698: a1 = u64 [s1 + 0x190]\n 32702: ecalli 13 // 'seal_return'\n 32704: t0 = 0x506\n 32708: a2 = s1 + 0x1918\n 32712: jump @1220\n      : @1219 (gas: 3)\n 32714: t0 = 0x506\n 32718: a2 = s1 + 0x1918\n 32722: fallthrough\n      : @1220 [@dyn 643] (gas: 8)\n 32723: u64 [a2 + 568] = 0\n 32727: u64 [a2 + 560] = 0\n 32731: a0 = 0xafa4e2b600000000\n 32741: u64 [a2 + 0x240] = a0\n 32745: a1 = s1 + 0x1b40\n 32749: u64 [a2 + 552] = 0\n 32753: a0 = 0\n 32755: ra = 1288, jump @24\n      : @1221 [@dyn 644] (gas: 3)\n 32761: a0 = u64 [s1 + 0x118]\n 32765: a0 = i32 [a0]\n 32767: jump @1223 if a0 >u 31\n      : @1222 (gas: 3)\n 32771: a1 = u64 [s1 + 0x118]\n 32775: u32 [a1 + 0] = 0x20\n 32778: fallthrough\n      : @1223 (gas: 5)\n 32779: a0 = 0x1\n 32782: a2 = 0x4\n 32785: a1 = u64 [s1 + 0x110]\n 32789: ecalli 13 // 'seal_return'\n 32791: fallthrough\n      : @1224 (gas: 13)\n 32792: a3 = s1 + 0x1918\n 32796: a1 = u64 [a3 + 0x2f0]\n 32800: a2 = u64 [a3 + 0x300]\n 32804: a3 = u64 [a3 + 0x2f8]\n 32808: a0 = a0 | 0x100\n 32812: a4 = s1 + 0x3138\n 32816: u64 [a4 + 0x30] = a1\n 32819: u64 [a4 + 0x28] = a0\n 32822: u64 [a4 + 0x38] = a3\n 32825: u64 [a4 + 0x40] = a2\n 32828: a1 = s1 + 0x3160\n 32832: a0 = u64 [s1 + 0x190]\n 32836: ra = 1290, jump @28\n      : @1225 [@dyn 645] (gas: 6)\n 32842: a0 = u64 [s1 + 0x100]\n 32846: ra = 0x50c\n 32850: ecalli 4 // 'caller'\n 32852: a2 = u64 [s1 + 0x108]\n 32856: t0 = 0x50e\n 32860: jump @1519\n      : @1226 [@dyn 646] (gas: 2)\n 32863: a2 = u64 [s1 + 0x108]\n 32867: t0 = 1294, jump @1519\n      : @1227 [@dyn 647] (gas: 38)\n 32873: a0 = a0 | a1\n 32876: a3 = a3 >> 0x20\n 32879: a2 = reverse a2\n 32881: a1 = a2 << 0x20\n 32884: a1 = a1 | a3\n 32887: a2 = a2 >> 0x20\n 32890: a5 = s1 + 0x1918\n 32894: u64 [a5 + 608] = 0\n 32898: u64 [a5 + 600] = 0\n 32902: u64 [a5 + 592] = 0\n 32906: a3 = u64 [s1 + 0x198]\n 32910: u64 [a5 + 0x248] = a3\n 32914: a3 = u64 [s1 + 0xf8]\n 32918: u64 [a5 + 0x268] = a3\n 32922: a3 = u64 [0x20060]\n 32927: a4 = u64 [0x20068]\n 32932: u64 [a5 + 640] = 0\n 32936: u64 [a5 + 632] = 0\n 32940: u64 [a5 + 0x2c0] = a3\n 32944: u64 [a5 + 0x2b8] = a4\n 32948: a3 = u64 [0x20070]\n 32953: a4 = u64 [0x20078]\n 32958: u64 [a5 + 624] = 0\n 32962: u64 [a5 + 672] = 0\n 32966: u64 [a5 + 0x2b0] = a3\n 32970: a3 = a5 + 0x200\n 32974: u64 [a3 + 0xa8] = a4\n 32978: u64 [a3 + 0x98] = a2\n 32982: u64 [a3 + 0x90] = a1\n 32986: a1 = a5\n 32988: a2 = s1 + 0x1bc0\n 32992: a3 = s1 + 0x1ba0\n 32996: a4 = s1 + 0x1b80\n 33000: a5 = s1 + 0x1b60\n 33004: u64 [a1 + 0x288] = a0\n 33008: a0 = 0\n 33010: a1 = 0\n 33012: ra = 1296, jump @34\n      : @1228 [@dyn 648] (gas: 3)\n 33018: a0 = 0\n 33020: a1 = u64 [s1 + 0x110]\n 33024: jump @1042\n      : @1229 (gas: 2)\n 33027: u64 [s1 + 344] = 0\n 33031: fallthrough\n      : @1230 (gas: 5)\n 33032: a0 = u64 [s1 + 0x178]\n 33036: a0 = a0 << 0x1\n 33039: a4 = u64 [s1 + 0x158]\n 33043: a4 = a4 | a0\n 33046: fallthrough\n      : @1231 (gas: 2)\n 33047: a0 = u64 [s1 + 0x100]\n 33051: jump @1294 if a0 >=u a4\n      : @1232 (gas: 9)\n 33055: a0 = u64 [s1 + 0x108]\n 33059: a0 = a0 << 0x20\n 33062: a1 = a0 >> 0x20\n 33065: a0 = a1 + 0xffffffffffffffff\n 33068: a0 = a0 <u 0x32\n 33071: a0 = 0 if a1 == 0\n 33073: u64 [s1 + 0x128] = a1\n 33077: a0 = 0 if a1 == 0\n 33079: jump @1298 if a0 == 0\n      : @1233 (gas: 19)\n 33083: a0 = 0xffffffff\n 33093: u64 [s1 + 0x130] = a0\n 33097: a0 = u64 [s1 + 0xe0]\n 33101: a0 = a0 << 0x20\n 33104: a2 = a0 >> 0x20\n 33107: a3 = s1 + 0x7ff\n 33111: a3 = a3 + 0x111\n 33115: u64 [a3 + 1192] = 0\n 33119: a0 = u64 [s1 + 0x110]\n 33123: a4 = a3 + 0x400\n 33127: u64 [a4 + 0x90] = a0\n 33131: a0 = u64 [s1 + 0x118]\n 33135: u64 [a4 + 0x98] = a0\n 33139: a1 = s1 + 0x7ff\n 33143: a1 = a1 + 0x5a1\n 33147: u64 [s1 + 0x140] = a2\n 33151: u64 [a4 + 0xa0] = a2\n 33155: a0 = 0\n 33157: ra = 1298, jump @24\n      : @1234 [@dyn 649] (gas: 11)\n 33163: a1 = s1 + 0x7ff\n 33167: a1 = a1 + 0x111\n 33171: u64 [a1 + 1160] = 0\n 33175: u64 [a1 + 1152] = 0\n 33179: u64 [a1 + 1136] = 0x3\n 33184: a2 = a1\n 33186: a0 = 0x20\n 33189: a1 = s1 + 0x7ff\n 33193: a1 = a1 + 0x581\n 33197: u64 [a2 + 1144] = 0\n 33201: ra = 1300, jump @24\n      : @1235 [@dyn 650] (gas: 5)\n 33207: a0 = 0x20180\n 33212: u64 [s1 + 0x178] = a0\n 33216: a0 = i32 [0x20180]\n 33221: a1 = 0x3f\n 33224: jump @1237 if a1 <u a0\n      : @1236 (gas: 3)\n 33227: a1 = u64 [s1 + 0x178]\n 33231: u32 [a1 + 0] = 0x40\n 33234: fallthrough\n      : @1237 (gas: 3)\n 33235: a0 = 0xffffffff00000000\n 33245: u64 [s1 + 0x120] = a0\n 33249: t0 = 1302, jump @1552\n      : @1238 [@dyn 651] (gas: 10)\n 33255: a0 = 0x20190\n 33260: i32 a0 = a0 + 0\n 33262: i32 a2 = a2 + 0\n 33264: a1 = 0x40\n 33267: u64 [s1 + 0x170] = a0\n 33271: ra = 0x518\n 33275: ecalli 8 // 'hash_keccak_256'\n 33277: a3 = u64 [s1 + 0x198]\n 33281: t0 = 0x51a\n 33285: jump @1525\n      : @1239 [@dyn 652] (gas: 2)\n 33288: a3 = u64 [s1 + 0x198]\n 33292: t0 = 1306, jump @1525\n      : @1240 [@dyn 653] (gas: 9)\n 33298: a5 = a4 + 0x500\n 33302: u64 [a5 + 0x80] = a3\n 33306: u64 [a5 + 0x78] = a2\n 33309: u64 [a5 + 0x70] = a1\n 33312: u64 [a5 + 0x68] = a0\n 33315: a0 = s1 + 0x7ff\n 33319: a0 = a0 + 0x561\n 33323: a1 = s1 + 0x2ea0\n 33327: ra = 1308, jump @26\n      : @1241 [@dyn 654] (gas: 15)\n 33333: a0 = s1 + 0x7ff\n 33337: a0 = a0 + 0x111\n 33341: a0 = u64 [a0 + 0x450]\n 33345: u64 [s1 + 312] = 0\n 33349: u64 [s1 + 248] = 0\n 33353: u64 [s1 + 240] = 0\n 33357: u64 [s1 + 232] = 0\n 33361: u64 [s1 + 392] = 0\n 33365: u64 [s1 + 400] = 0\n 33369: u64 [s1 + 408] = 0\n 33373: a1 = u64 [s1 + 0x130]\n 33377: a0 = a0 & a1\n 33380: u64 [s1 + 0x108] = a0\n 33384: a0 = 0x1\n 33387: fallthrough\n      : @1242 (gas: 15)\n 33388: u64 [s1 + 0x180] = a0\n 33392: a4 = u64 [s1 + 0x190]\n 33396: a0 = a4 >u 0\n 33398: a3 = u64 [s1 + 0x198]\n 33402: a1 = a3 >u 0\n 33404: a1 = a0 if a3 == 0\n 33407: a0 = u64 [s1 + 0x108]\n 33411: a2 = u64 [s1 + 0x180]\n 33415: a0 = a0 <u a2\n 33418: a5 = u64 [s1 + 0x188]\n 33422: a2 = a5 >u 0\n 33424: a2 = a0 if a5 == 0\n 33427: a0 = a4 | a3\n 33430: a2 = a1 if a0 != 0\n 33433: jump @1302 if a2 != 0\n      : @1243 (gas: 6)\n 33437: a2 = s1 + 0x100\n 33441: a0 = u64 [a2 + 0x30]\n 33444: a1 = u64 [a2 + 0x38]\n 33447: a0 = a0 & a1\n 33450: a1 = u64 [a2 + 0x28]\n 33453: jump @1302 if a0 >=u a1\n      : @1244 (gas: 14)\n 33457: a2 = s1 + 0x7ff\n 33461: a2 = a2 + 0x111\n 33465: u64 [a2 + 1096] = 0\n 33469: a0 = u64 [s1 + 0x110]\n 33473: a3 = a2 + 0x400\n 33477: u64 [a3 + 0x30] = a0\n 33480: a0 = u64 [s1 + 0x118]\n 33484: u64 [a3 + 0x38] = a0\n 33487: a1 = s1 + 0x7ff\n 33491: a1 = a1 + 0x541\n 33495: a0 = u64 [s1 + 0x140]\n 33499: u64 [a3 + 0x40] = a0\n 33502: a0 = 0\n 33504: ra = 1310, jump @24\n      : @1245 [@dyn 655] (gas: 11)\n 33511: a0 = s1 + 0x7ff\n 33515: a0 = a0 + 0x111\n 33519: u64 [a0 + 1064] = 0\n 33523: u64 [a0 + 1056] = 0\n 33527: u64 [a0 + 1048] = 0\n 33531: a3 = a0\n 33533: a0 = 0x20\n 33536: a1 = s1 + 0x7ff\n 33540: a1 = a1 + 0x521\n 33544: u64 [a3 + 1040] = 0x2\n 33549: ra = 1312, jump @24\n      : @1246 [@dyn 656] (gas: 3)\n 33556: a0 = u64 [s1 + 0x178]\n 33560: a0 = i32 [a0]\n 33562: jump @1248 if a0 >u 63\n      : @1247 (gas: 4)\n 33566: a1 = u64 [s1 + 0x178]\n 33570: u32 [a1 + 0] = 0x40\n 33573: t0 = 0x522\n 33577: jump @1540\n      : @1248 (gas: 1)\n 33580: t0 = 1314, jump @1540\n      : @1249 [@dyn 657] (gas: 4)\n 33586: ra = 0x524\n 33590: ecalli 8 // 'hash_keccak_256'\n 33592: t0 = 0x526\n 33596: jump @1517\n      : @1250 [@dyn 658] (gas: 1)\n 33599: t0 = 1318, jump @1517\n      : @1251 [@dyn 659] (gas: 11)\n 33605: u64 [a2 + 0x408] = a0\n 33609: a0 = u64 [s1 + 0x190]\n 33613: u64 [a2 + 0x400] = a0\n 33617: a0 = u64 [s1 + 0x188]\n 33621: u64 [a2 + 0x3f8] = a0\n 33625: a1 = s1 + 0x7ff\n 33629: a1 = a1 + 0x501\n 33633: a0 = u64 [s1 + 0x180]\n 33637: u64 [a2 + 0x3f0] = a0\n 33641: a0 = 0\n 33643: ra = 1320, jump @24\n      : @1252 [@dyn 660] (gas: 5)\n 33650: a0 = u64 [s1 + 0x148]\n 33654: a1 = s1 + 0x7ff\n 33658: a1 = a1 + 0x111\n 33662: a2 = a1 + 0x300\n 33666: t0 = 1322, jump @1561\n      : @1253 [@dyn 661] (gas: 4)\n 33672: a1 = a1 + 0x4e1\n 33676: a2 = u64 [s1 + 0x160]\n 33680: u64 [a3 + 0x3d0] = a2\n 33684: ra = 1324, jump @24\n      : @1254 [@dyn 662] (gas: 3)\n 33691: a0 = u64 [s1 + 0x178]\n 33695: a0 = i32 [a0]\n 33697: jump @1256 if a0 >u 63\n      : @1255 (gas: 4)\n 33701: a0 = u64 [s1 + 0x178]\n 33705: u32 [a0 + 0] = 0x40\n 33708: t0 = 0x52e\n 33712: jump @1566\n      : @1256 (gas: 1)\n 33715: t0 = 1326, jump @1566\n      : @1257 [@dyn 663] (gas: 5)\n 33721: ra = 0x530\n 33725: ecalli 8 // 'hash_keccak_256'\n 33727: a3 = u64 [s1 + 0x160]\n 33731: t0 = 0x532\n 33735: jump @1584\n      : @1258 [@dyn 664] (gas: 2)\n 33738: a3 = u64 [s1 + 0x160]\n 33742: t0 = 1330, jump @1584\n      : @1259 [@dyn 665] (gas: 13)\n 33748: a2 = reverse a3\n 33750: a1 = u64 [s1 + 0x168]\n 33754: u64 [s1 + 0x158] = a2\n 33758: u64 [a1 + 0x18] = a2\n 33761: u64 [s1 + 0x160] = a0\n 33765: u64 [a1 + 0x10] = a0\n 33768: u64 [s1 + 0x150] = a4\n 33772: u64 [a1 + 0x8] = a4\n 33775: u64 [s1 + 0x148] = a5\n 33779: u64 [a1] = a5\n 33781: a0 = s1 + 0x7ff\n 33785: a0 = a0 + 0x4c1\n 33789: ra = 1332, jump @26\n      : @1260 [@dyn 666] (gas: 13)\n 33796: a2 = s1 + 0x7ff\n 33800: a2 = a2 + 0x111\n 33804: a3 = a2 + 0x300\n 33808: a0 = u64 [a3 + 0xb8]\n 33812: a1 = u64 [a3 + 0xc0]\n 33816: a2 = u64 [a3 + 0xb0]\n 33820: a0 = a0 & 0xffffffffffffffff\n 33823: a1 = a1 & 0xffffffffffffffff\n 33826: a3 = u64 [s1 + 0x120]\n 33830: a2 = a2 & a3\n 33833: a1 = a1 | a2\n 33836: a0 = a0 | a1\n 33839: jump @1292 if a0 == 0\n      : @1261 (gas: 6)\n 33843: a5 = s1 + 0x100\n 33847: a1 = u64 [a5 + 0x48]\n 33850: a0 = a1 + 0x2\n 33853: a1 = a0 <u a1\n 33856: a3 = u64 [a5 + 0x50]\n 33859: t0 = 1334, jump @1571\n      : @1262 [@dyn 667] (gas: 15)\n 33865: a1 = u64 [a5 + 0x60]\n 33868: a3 = a3 + a1\n 33871: a1 = a3 <u a1\n 33874: a4 = u64 [a5 + 0x58]\n 33877: a1 = a1 + a4\n 33880: a4 = s1 + 0x2938\n 33884: a5 = a4 + 0x500\n 33888: u64 [a5 + 0x88] = a0\n 33892: u64 [a5 + 0x90] = a2\n 33896: u64 [a5 + 0x98] = a3\n 33900: u64 [a5 + 0xa0] = a1\n 33904: a0 = s1 + 0x7ff\n 33908: a0 = a0 + 0x4a1\n 33912: a1 = s1 + 0x2ec0\n 33916: ra = 1336, jump @26\n      : @1263 [@dyn 668] (gas: 5)\n 33923: a0 = s1 + 0x7ff\n 33927: a0 = a0 + 0x111\n 33931: a0 = u64 [a0 + 0x398]\n 33935: a0 = a0 & 0xff\n 33939: jump @1292 if a0 != 0\n      : @1264 (gas: 14)\n 33943: a2 = s1 + 0x7ff\n 33947: a2 = a2 + 0x111\n 33951: u64 [a2 + 904] = 0\n 33955: a0 = u64 [s1 + 0x110]\n 33959: a3 = a2 + 0x300\n 33963: u64 [a3 + 0x70] = a0\n 33966: a0 = u64 [s1 + 0x118]\n 33970: u64 [a3 + 0x78] = a0\n 33973: a1 = s1 + 0x7ff\n 33977: a1 = a1 + 0x481\n 33981: a0 = u64 [s1 + 0x140]\n 33985: u64 [a3 + 0x80] = a0\n 33989: a0 = 0\n 33991: ra = 1338, jump @24\n      : @1265 [@dyn 669] (gas: 11)\n 33998: a0 = s1 + 0x7ff\n 34002: a0 = a0 + 0x111\n 34006: u64 [a0 + 872] = 0\n 34010: u64 [a0 + 864] = 0\n 34014: u64 [a0 + 856] = 0\n 34018: a3 = a0\n 34020: a0 = 0x20\n 34023: a1 = s1 + 0x7ff\n 34027: a1 = a1 + 0x461\n 34031: u64 [a3 + 848] = 0x4\n 34036: ra = 1340, jump @24\n      : @1266 [@dyn 670] (gas: 3)\n 34043: a0 = u64 [s1 + 0x178]\n 34047: a0 = i32 [a0]\n 34049: jump @1268 if a0 >u 63\n      : @1267 (gas: 4)\n 34053: a0 = u64 [s1 + 0x178]\n 34057: u32 [a0 + 0] = 0x40\n 34060: t0 = 0x53e\n 34064: jump @1540\n      : @1268 (gas: 1)\n 34067: t0 = 1342, jump @1540\n      : @1269 [@dyn 671] (gas: 5)\n 34073: ra = 0x540\n 34077: ecalli 8 // 'hash_keccak_256'\n 34079: a3 = u64 [s1 + 0x168]\n 34083: t0 = 0x542\n 34087: jump @1522\n      : @1270 [@dyn 672] (gas: 2)\n 34090: a3 = u64 [s1 + 0x168]\n 34094: t0 = 1346, jump @1522\n      : @1271 [@dyn 673] (gas: 11)\n 34100: a2 = s1 + 0x7ff\n 34104: a2 = a2 + 0x111\n 34108: u64 [a2 + 840] = 0\n 34112: u64 [a2 + 832] = 0\n 34116: u64 [a2 + 824] = 0\n 34120: a1 = s1 + 0x7ff\n 34124: a1 = a1 + 0x441\n 34128: a0 = u64 [s1 + 0x100]\n 34132: u64 [a2 + 0x330] = a0\n 34136: a0 = 0\n 34138: ra = 1348, jump @24\n      : @1272 [@dyn 674] (gas: 16)\n 34145: a0 = u64 [s1 + 0x150]\n 34149: a1 = s1 + 0x7ff\n 34153: a1 = a1 + 0x111\n 34157: a2 = a1 + 0x300\n 34161: u64 [a2 + 0x28] = a0\n 34164: a0 = u64 [s1 + 0x158]\n 34168: u64 [a2 + 0x20] = a0\n 34171: a0 = u64 [s1 + 0x160]\n 34175: u64 [a2 + 0x18] = a0\n 34178: a3 = a1\n 34180: a0 = 0x20\n 34183: a1 = s1 + 0x7ff\n 34187: a1 = a1 + 0x421\n 34191: a2 = u64 [s1 + 0x168]\n 34195: u64 [a3 + 0x310] = a2\n 34199: ra = 1350, jump @24\n      : @1273 [@dyn 675] (gas: 3)\n 34206: a0 = u64 [s1 + 0x178]\n 34210: a0 = i32 [a0]\n 34212: jump @1275 if a0 >u 63\n      : @1274 (gas: 4)\n 34216: a0 = u64 [s1 + 0x178]\n 34220: u32 [a0 + 0] = 0x40\n 34223: t0 = 0x548\n 34227: jump @1540\n      : @1275 (gas: 1)\n 34230: t0 = 1352, jump @1540\n      : @1276 [@dyn 676] (gas: 4)\n 34236: ra = 0x54a\n 34240: ecalli 8 // 'hash_keccak_256'\n 34242: t0 = 0x54c\n 34246: jump @1517\n      : @1277 [@dyn 677] (gas: 1)\n 34249: t0 = 1356, jump @1517\n      : @1278 [@dyn 678] (gas: 11)\n 34255: u64 [a2 + 0x308] = a0\n 34259: a0 = u64 [s1 + 0x190]\n 34263: u64 [a2 + 0x300] = a0\n 34267: a0 = u64 [s1 + 0x188]\n 34271: u64 [a2 + 0x2f8] = a0\n 34275: a1 = s1 + 0x7ff\n 34279: a1 = a1 + 0x401\n 34283: a0 = u64 [s1 + 0x180]\n 34287: u64 [a2 + 0x2f0] = a0\n 34291: a0 = 0\n 34293: ra = 1358, jump @24\n      : @1279 [@dyn 679] (gas: 5)\n 34300: a0 = u64 [s1 + 0x148]\n 34304: a1 = s1 + 0x7ff\n 34308: a1 = a1 + 0x111\n 34312: a2 = a1 + 0x200\n 34316: t0 = 1360, jump @1561\n      : @1280 [@dyn 680] (gas: 4)\n 34322: a1 = a1 + 0x3e1\n 34326: a2 = u64 [s1 + 0x160]\n 34330: u64 [a3 + 0x2d0] = a2\n 34334: ra = 1362, jump @24\n      : @1281 [@dyn 681] (gas: 3)\n 34341: a0 = u64 [s1 + 0x178]\n 34345: a0 = i32 [a0]\n 34347: jump @1283 if a0 >u 63\n      : @1282 (gas: 4)\n 34351: a0 = u64 [s1 + 0x178]\n 34355: u32 [a0 + 0] = 0x40\n 34358: t0 = 0x554\n 34362: jump @1566\n      : @1283 (gas: 1)\n 34365: t0 = 1364, jump @1566\n      : @1284 [@dyn 682] (gas: 4)\n 34371: ra = 0x556\n 34375: ecalli 8 // 'hash_keccak_256'\n 34377: t0 = 0x558\n 34381: jump @1542\n      : @1285 [@dyn 683] (gas: 1)\n 34384: t0 = 1368, jump @1542\n      : @1286 [@dyn 684] (gas: 3)\n 34390: a0 = s1 + 0x7ff\n 34394: a0 = a0 + 0x3c1\n 34398: ra = 1370, jump @26\n      : @1287 [@dyn 685] (gas: 5)\n 34405: a0 = s1 + 0x7ff\n 34409: a0 = a0 + 0x111\n 34413: a0 = u64 [a0 + 0x2b0]\n 34417: a1 = a0 & 0xff\n 34421: jump @1292 if a1 == 0\n      : @1288 (gas: 2)\n 34425: a0 = a0 & 0xff0000\n 34431: jump @1292 if a0 != 0\n      : @1289 (gas: 35)\n 34435: a1 = s1 + 0x7ff\n 34439: a1 = a1 + 0x111\n 34443: a0 = u64 [s1 + 0x180]\n 34447: a2 = a1 + 0x200\n 34451: u64 [a2 + 0x50] = a0\n 34454: a0 = u64 [s1 + 0x100]\n 34458: u64 [a2 + 0x70] = a0\n 34461: a0 = u64 [s1 + 0x110]\n 34465: u64 [a2 + 0x90] = a0\n 34469: a0 = u64 [s1 + 0x188]\n 34473: u64 [a2 + 0x58] = a0\n 34476: a0 = u64 [s1 + 0xc0]\n 34480: u64 [a2 + 0x78] = a0\n 34483: a0 = u64 [s1 + 0x118]\n 34487: u64 [a2 + 0x98] = a0\n 34491: a0 = u64 [s1 + 0x190]\n 34495: u64 [a2 + 0x60] = a0\n 34498: a0 = u64 [s1 + 0xc8]\n 34502: u64 [a2 + 0x80] = a0\n 34506: a0 = u64 [s1 + 0xe0]\n 34510: u64 [a2 + 0xa0] = a0\n 34514: a0 = u64 [s1 + 0x198]\n 34518: u64 [a2 + 0x68] = a0\n 34521: a0 = u64 [s1 + 0xd0]\n 34525: u64 [a2 + 0x88] = a0\n 34529: a4 = a1\n 34531: a0 = s1 + 0x7ff\n 34535: a0 = a0 + 0x3a1\n 34539: a1 = s1 + 0x7ff\n 34543: a1 = a1 + 0x381\n 34547: a2 = s1 + 0x7ff\n 34551: a2 = a2 + 0x361\n 34555: a3 = u64 [s1 + 0xd8]\n 34559: u64 [a4 + 0x2a8] = a3\n 34563: ra = 1372, jump @1402\n      : @1290 [@dyn 686] (gas: 16)\n 34569: a0 = u64 [s1 + 0xe8]\n 34573: a3 = s1 + 0x7ff\n 34577: a3 = a3 + 0x111\n 34581: a4 = a3 + 0x200\n 34585: u64 [a4 + 0x28] = a0\n 34588: a0 = u64 [s1 + 0xf0]\n 34592: u64 [a4 + 0x20] = a0\n 34595: a0 = u64 [s1 + 0xf8]\n 34599: u64 [a4 + 0x18] = a0\n 34602: a0 = s1 + 0x7ff\n 34606: a0 = a0 + 0x341\n 34610: a1 = s1 + 0x7ff\n 34614: a1 = a1 + 0x321\n 34618: a2 = u64 [s1 + 0x138]\n 34622: u64 [a4 + 0x10] = a2\n 34625: ra = 1374, jump @1386\n      : @1291 [@dyn 687] (gas: 12)\n 34631: a1 = s1 + 0x7ff\n 34635: a1 = a1 + 0x111\n 34639: a2 = a1 + 0x200\n 34643: a0 = u64 [a2 + 0x48]\n 34646: u64 [s1 + 0xe8] = a0\n 34650: a0 = u64 [a2 + 0x40]\n 34653: u64 [s1 + 0xf0] = a0\n 34657: a0 = u64 [a2 + 0x38]\n 34660: u64 [s1 + 0xf8] = a0\n 34664: a0 = u64 [a2 + 0x30]\n 34667: u64 [s1 + 0x138] = a0\n 34671: fallthrough\n      : @1292 (gas: 16)\n 34672: a3 = s1 + 0x7ff\n 34676: a3 = a3 + 0x111\n 34680: a0 = u64 [s1 + 0x180]\n 34684: a4 = a3 + 0x100\n 34688: u64 [a4 + 0xd0] = a0\n 34692: a0 = u64 [s1 + 0x188]\n 34696: u64 [a4 + 0xd8] = a0\n 34700: a0 = u64 [s1 + 0x190]\n 34704: u64 [a4 + 0xe0] = a0\n 34708: a0 = s1 + 0x7ff\n 34712: a0 = a0 + 0x301\n 34716: a1 = s1 + 0x7ff\n 34720: a1 = a1 + 0x2e1\n 34724: a2 = u64 [s1 + 0x198]\n 34728: u64 [a4 + 0xe8] = a2\n 34732: ra = 1376, jump @1386\n      : @1293 [@dyn 688] (gas: 11)\n 34738: a1 = s1 + 0x7ff\n 34742: a1 = a1 + 0x111\n 34746: a0 = u64 [a1 + 0x208]\n 34750: a2 = s1 + 0x100\n 34754: u64 [a2 + 0x98] = a0\n 34758: a0 = u64 [a1 + 0x200]\n 34762: u64 [a2 + 0x90] = a0\n 34766: a0 = u64 [a1 + 0x1f8]\n 34770: u64 [a2 + 0x88] = a0\n 34774: a0 = u64 [a1 + 0x1f0]\n 34778: jump @1242\n      : @1294 (gas: 11)\n 34781: a2 = s1 + 0x7ff\n 34785: a2 = a2 + 0x111\n 34789: u64 [a2 + 1248] = 0\n 34793: u64 [a2 + 1240] = 0\n 34797: a0 = 0xcf114bd900000000\n 34807: u64 [a2 + 0x4e8] = a0\n 34811: a1 = s1 + 0x7ff\n 34815: a1 = a1 + 0x5e1\n 34819: u64 [a2 + 1232] = 0\n 34823: a0 = 0\n 34825: ra = 1378, jump @24\n      : @1295 [@dyn 689] (gas: 2)\n 34832: a1 = i32 [0x20180]\n 34837: jump @1297 if a1 >u 31\n      : @1296 (gas: 3)\n 34841: u32 [0x20180] = 0x20\n 34847: a1 = 0x20190\n 34852: jump @940\n      : @1297 (gas: 2)\n 34855: a1 = 0x20190\n 34860: jump @940\n      : @1298 (gas: 11)\n 34863: a2 = s1 + 0x7ff\n 34867: a2 = a2 + 0x111\n 34871: u64 [a2 + 1216] = 0\n 34875: u64 [a2 + 1208] = 0\n 34879: a0 = 0x7862e95900000000\n 34889: u64 [a2 + 0x4c8] = a0\n 34893: a1 = s1 + 0x7ff\n 34897: a1 = a1 + 0x5c1\n 34901: u64 [a2 + 1200] = 0\n 34905: a0 = 0\n 34907: ra = 1380, jump @24\n      : @1299 [@dyn 690] (gas: 2)\n 34914: a1 = i32 [0x20180]\n 34919: jump @1301 if a1 >u 31\n      : @1300 (gas: 3)\n 34923: u32 [0x20180] = 0x20\n 34929: a1 = 0x20190\n 34934: jump @940\n      : @1301 (gas: 2)\n 34937: a1 = 0x20190\n 34942: jump @940\n      : @1302 (gas: 3)\n 34945: a0 = 0\n 34947: a1 = u64 [s1 + 0x170]\n 34951: jump @1042\n      : @1303 [@dyn 691] (gas: 2)\n 34954: ecalli 2 // 'call_data_load'\n 34956: fallthrough\n      : @1304 (gas: 10)\n 34957: a0 = u64 [sp + 0x10]\n 34960: a1 = u64 [sp + 0x18]\n 34963: a2 = 0x100000000\n 34973: a2 = a2 ^ a0\n 34976: a2 = a2 | a1\n 34979: a3 = a0 >> 0x20\n 34982: a3 = a3 <u 0x1\n 34985: a3 = 0 if a1 != 0\n 34987: a3 = 0 if a2 == 0\n 34989: jump @1306 if a3 == 0\n      : @1305 (gas: 12)\n 34992: a2 = u64 [sp]\n 34994: a3 = u64 [sp + 0x8]\n 34997: u64 [s1] = a2\n 34999: u64 [s1 + 0x8] = a3\n 35002: u64 [s1 + 0x10] = a0\n 35005: u64 [s1 + 0x18] = a1\n 35008: sp = s0 + 0xffffffffffffffc0\n 35011: ra = u64 [sp + 0x38]\n 35014: s0 = u64 [sp + 0x30]\n 35017: s1 = u64 [sp + 0x28]\n 35020: sp = sp + 0x40\n 35023: ret\n      : @1306 (gas: 8)\n 35025: a1 = 0x20190\n 35030: i32 a1 = a1 + 0\n 35032: a0 = 0x1\n 35035: a2 = 0\n 35037: ra = 0x568\n 35041: ecalli 13 // 'seal_return'\n 35043: t0 = 0x56a\n 35047: jump @1590\n      : @1307 [@dyn 692] (gas: 1)\n 35050: t0 = 1386, jump @1590\n      : @1308 [@dyn 693] (gas: 3)\n 35056: a1 = 0x24\n 35059: ecalli 2 // 'call_data_load'\n 35061: fallthrough\n      : @1309 (gas: 7)\n 35062: a0 = u64 [sp + 0x18]\n 35065: a1 = u64 [sp + 0x10]\n 35068: a2 = u64 [sp + 0x8]\n 35071: a3 = a1 | a0\n 35074: a4 = a2 <u 0x1\n 35077: a4 = 0 if a3 != 0\n 35079: jump @1312 if a4 == 0\n      : @1310 (gas: 2)\n 35082: a3 = u64 [sp]\n 35084: t0 = 1388, jump @1551\n      : @1311 [@dyn 694] (gas: 1)\n 35090: ret\n      : @1312 (gas: 8)\n 35092: a1 = 0x20190\n 35097: i32 a1 = a1 + 0\n 35099: a0 = 0x1\n 35102: a2 = 0\n 35104: ra = 0x56e\n 35108: ecalli 13 // 'seal_return'\n 35110: t0 = 0x570\n 35114: jump @1590\n      : @1313 [@dyn 695] (gas: 1)\n 35117: t0 = 1392, jump @1590\n      : @1314 [@dyn 696] (gas: 5)\n 35123: a1 = 0x44\n 35126: ra = 0x572\n 35130: ecalli 2 // 'call_data_load'\n 35132: t0 = 0x574\n 35136: jump @1560\n      : @1315 [@dyn 697] (gas: 1)\n 35139: t0 = 1396, jump @1560\n      : @1316 [@dyn 698] (gas: 1)\n 35145: jump @1319 if a4 != 0\n      : @1317 (gas: 1)\n 35148: t0 = 1398, jump @1551\n      : @1318 [@dyn 699] (gas: 1)\n 35154: ret\n      : @1319 (gas: 8)\n 35156: a1 = 0x20190\n 35161: i32 a1 = a1 + 0\n 35163: a0 = 0x1\n 35166: a2 = 0\n 35168: ra = 0x578\n 35172: ecalli 13 // 'seal_return'\n 35174: t0 = 0x57a\n 35178: jump @1577\n      : @1320 [@dyn 700] (gas: 1)\n 35181: t0 = 1402, jump @1577\n      : @1321 [@dyn 701] (gas: 4)\n 35187: ra = 0x57c\n 35191: ecalli 2 // 'call_data_load'\n 35193: t0 = 0x57e\n 35197: jump @1560\n      : @1322 [@dyn 702] (gas: 1)\n 35200: t0 = 1406, jump @1560\n      : @1323 [@dyn 703] (gas: 1)\n 35206: jump @1326 if a4 != 0\n      : @1324 (gas: 1)\n 35209: t0 = 1408, jump @1551\n      : @1325 [@dyn 704] (gas: 1)\n 35215: ret\n      : @1326 (gas: 7)\n 35217: a1 = 0x20190\n 35222: i32 a1 = a1 + 0\n 35224: a0 = 0x1\n 35227: a2 = 0\n 35229: ra = 0x582\n 35233: ecalli 13 // 'seal_return'\n 35235: fallthrough\n      : @1327 [@dyn 705] (gas: 33)\n 35236: sp = sp + 0xffffffffffffffa0\n 35239: u64 [sp + 0x58] = ra\n 35242: u64 [sp + 0x50] = s0\n 35245: u64 [sp + 0x48] = s1\n 35248: s0 = sp + 0x60\n 35251: sp = sp & 0xfffffffffffffff0\n 35254: a2 = u64 [a1 + 0x10]\n 35257: a5 = u64 [a1 + 0x8]\n 35260: a4 = u64 [a1]\n 35262: a1 = u64 [a1 + 0x18]\n 35265: t0 = a2 << 0x3f\n 35268: a3 = a5 >> 0x1\n 35271: t0 = a3 | t0\n 35274: a3 = a1 << 0x3f\n 35277: a2 = a2 >> 0x1\n 35280: a3 = a3 | a2\n 35283: a5 = a5 << 0x3f\n 35286: a2 = a4 >> 0x1\n 35289: a5 = a5 | a2\n 35292: t1 = a1 >> 0x1\n 35295: a4 = a4 & 0x1\n 35298: a1 = -a4\n 35300: s1 = a4 <u 0x1\n 35303: a2 = a5 & 0x7f\n 35306: t2 = a1 & a3\n 35309: a3 = a1 & t0\n 35312: a2 = a5 if a4 != 0\n 35315: a4 = a1 & t1\n 35318: a1 = a2 <u 0x20\n 35321: a1 = 0 if a3 != 0\n 35323: a5 = t2 | a4\n 35326: a1 = 0 if a5 != 0\n 35328: jump @1330 if s1 != a1\n      : @1328 (gas: 5)\n 35331: u64 [a0] = a2\n 35333: u64 [a0 + 0x8] = a3\n 35336: u64 [a0 + 0x10] = t2\n 35339: u64 [a0 + 0x18] = a4\n 35342: t0 = 1412, jump @1579\n      : @1329 [@dyn 706] (gas: 1)\n 35348: ret\n      : @1330 (gas: 1)\n 35350: t0 = 1414, jump @1531\n      : @1331 [@dyn 707] (gas: 1)\n 35356: ra = 1416, jump @24\n      : @1332 [@dyn 708] (gas: 7)\n 35363: u64 [sp + 24] = 0\n 35366: u64 [sp + 16] = 0\n 35369: u64 [sp + 0] = 0x22\n 35372: a0 = 0x4\n 35375: a1 = sp\n 35377: u64 [sp + 8] = 0\n 35380: ra = 1418, jump @24\n      : @1333 [@dyn 709] (gas: 2)\n 35387: a1 = i32 [0x20180]\n 35392: jump @1335 if a1 >u 63\n      : @1334 (gas: 2)\n 35396: u32 [0x20180] = 0x40\n 35402: fallthrough\n      : @1335 (gas: 7)\n 35403: a1 = 0x20190\n 35408: i32 a1 = a1 + 0\n 35410: a0 = 0x1\n 35413: a2 = 0x24\n 35416: ra = 0x58c\n 35420: ecalli 13 // 'seal_return'\n 35422: fallthrough\n      : @1336 [@dyn 710] (gas: 19)\n 35423: sp = sp + 0xffffffffffffff90\n 35426: u64 [sp + 0x68] = ra\n 35429: u64 [sp + 0x60] = s0\n 35432: s0 = sp + 0x70\n 35435: sp = sp & 0xfffffffffffffff0\n 35438: a3 = u64 [a0 + 0x18]\n 35441: a2 = u64 [a0 + 0x10]\n 35444: t1 = u64 [a0]\n 35446: a0 = u64 [a0 + 0x8]\n 35449: a4 = a3 >u 0\n 35451: a5 = a2 >u 0\n 35453: a5 = a4 if a3 != 0\n 35456: t0 = a0 >u 0\n 35458: a4 = t1 <u 0xffffffffffffff80\n 35461: a4 = a4 ^ 0x1\n 35464: a4 = t0 if a0 != 0\n 35467: a1 = a2 | a3\n 35470: a4 = a5 if a1 != 0\n 35473: jump @1339 if a4 != 0\n      : @1337 (gas: 15)\n 35476: a1 = t1 + 0x80\n 35480: a4 = a1 <u t1\n 35483: a5 = a0 + a4\n 35486: a0 = a5 <u a0\n 35489: a0 = a4 if a4 == 0\n 35492: a0 = a0 + a2\n 35495: a2 = a0 <u a2\n 35498: a2 = a2 + a3\n 35501: u64 [sp + 0x40] = a1\n 35504: u64 [sp + 0x48] = a5\n 35507: u64 [sp + 0x50] = a0\n 35510: a0 = 0x40\n 35513: a1 = sp + a0\n 35516: u64 [sp + 0x58] = a2\n 35519: ra = 1422, jump @24\n      : @1338 [@dyn 711] (gas: 5)\n 35526: sp = s0 + 0xffffffffffffff90\n 35529: ra = u64 [sp + 0x68]\n 35532: s0 = u64 [sp + 0x60]\n 35535: sp = sp + 0x70\n 35538: ret\n      : @1339 (gas: 1)\n 35540: t0 = 1424, jump @1531\n      : @1340 [@dyn 712] (gas: 1)\n 35546: ra = 1426, jump @24\n      : @1341 [@dyn 713] (gas: 7)\n 35553: u64 [sp + 24] = 0\n 35556: u64 [sp + 16] = 0\n 35559: u64 [sp + 0] = 0x41\n 35562: a0 = 0x4\n 35565: a1 = sp\n 35567: u64 [sp + 8] = 0\n 35570: ra = 1428, jump @24\n      : @1342 [@dyn 714] (gas: 2)\n 35577: a1 = i32 [0x20180]\n 35582: jump @1344 if a1 >u 63\n      : @1343 (gas: 2)\n 35586: u32 [0x20180] = 0x40\n 35592: fallthrough\n      : @1344 (gas: 7)\n 35593: a1 = 0x20190\n 35598: i32 a1 = a1 + 0\n 35600: a0 = 0x1\n 35603: a2 = 0x24\n 35606: ra = 0x596\n 35610: ecalli 13 // 'seal_return'\n 35612: fallthrough\n      : @1345 [@dyn 715] (gas: 46)\n 35613: sp = sp + 0xffffffffffffff70\n 35617: u64 [sp + 0x88] = ra\n 35621: u64 [sp + 0x80] = s0\n 35625: u64 [sp + 0x78] = s1\n 35628: s0 = sp + 0x90\n 35632: sp = sp & 0xfffffffffffffff0\n 35635: t0 = a0\n 35637: a2 = u64 [a1]\n 35639: t2 = u64 [a0 + 0x8]\n 35642: a5 = u64 [a1 + 0x8]\n 35645: t1 = u64 [a0]\n 35647: a3 = a2 + 0x1f\n 35650: ra = a3 <u a2\n 35653: a2 = a5 + ra\n 35656: a3 = a3 & 0xffffffffffffffe0\n 35659: u64 [sp + 0x8] = t1\n 35662: t1 = t1 + a3\n 35665: a4 = t1 <u a3\n 35668: a3 = a2 + t2\n 35671: a3 = a3 + a4\n 35674: s1 = a3 ^ a2\n 35677: a0 = a3 <u a2\n 35680: a0 = a4 if s1 == 0\n 35683: a4 = u64 [t0 + 0x18]\n 35686: a5 = a2 <u a5\n 35689: s1 = u64 [a1 + 0x10]\n 35692: t0 = u64 [t0 + 0x10]\n 35695: a1 = u64 [a1 + 0x18]\n 35698: a5 = ra if ra == 0\n 35701: a5 = a5 + s1\n 35704: s1 = a5 <u s1\n 35707: a2 = a5 + t0\n 35710: a0 = a0 + a2\n 35713: a5 = a2 <u a5\n 35716: a2 = a0 <u a2\n 35719: a1 = a1 + a4\n 35722: a1 = a1 + s1\n 35725: a1 = a1 + a5\n 35728: a5 = a1 + a2\n 35731: a1 = a5 >u 0\n 35733: a2 = a0 >u 0\n 35735: a2 = a1 if a5 != 0\n 35738: a1 = a0 | a5\n 35741: s1 = a3 >u 0\n 35743: s1 = a2 if a1 != 0\n 35746: jump @1349 if s1 != 0\n      : @1346 (gas: 13)\n 35749: a1 = u64 [sp + 0x8]\n 35752: a1 = t1 <u a1\n 35755: a2 = a3 ^ t2\n 35758: s1 = a3 <u t2\n 35761: s1 = a1 if a2 == 0\n 35764: a1 = a0 <u t0\n 35767: a2 = a5 ^ a4\n 35770: a4 = a5 <u a4\n 35773: a4 = a1 if a2 == 0\n 35776: a1 = a0 ^ t0\n 35779: a1 = a1 | a2\n 35782: a4 = s1 if a1 == 0\n 35785: jump @1349 if a4 != 0\n      : @1347 (gas: 7)\n 35788: u64 [sp + 0x50] = t1\n 35791: u64 [sp + 0x58] = a3\n 35794: u64 [sp + 0x60] = a0\n 35797: a0 = 0x40\n 35800: a1 = sp + 0x50\n 35803: u64 [sp + 0x68] = a5\n 35806: ra = 1432, jump @24\n      : @1348 [@dyn 716] (gas: 6)\n 35813: sp = s0 + 0xffffffffffffff70\n 35817: ra = u64 [sp + 0x88]\n 35821: s0 = u64 [sp + 0x80]\n 35825: s1 = u64 [sp + 0x78]\n 35828: sp = sp + 0x90\n 35832: ret\n      : @1349 (gas: 1)\n 35834: t0 = 1434, jump @1576\n      : @1350 [@dyn 717] (gas: 1)\n 35840: ra = 1436, jump @24\n      : @1351 [@dyn 718] (gas: 7)\n 35847: u64 [sp + 40] = 0\n 35850: u64 [sp + 32] = 0\n 35853: u64 [sp + 16] = 0x41\n 35857: a0 = 0x4\n 35860: a1 = sp + 0x10\n 35863: u64 [sp + 24] = 0\n 35866: ra = 1438, jump @24\n      : @1352 [@dyn 719] (gas: 2)\n 35873: a1 = i32 [0x20180]\n 35878: jump @1354 if a1 >u 63\n      : @1353 (gas: 2)\n 35882: u32 [0x20180] = 0x40\n 35888: fallthrough\n      : @1354 (gas: 7)\n 35889: a1 = 0x20190\n 35894: i32 a1 = a1 + 0\n 35896: a0 = 0x1\n 35899: a2 = 0x24\n 35902: ra = 0x5a0\n 35906: ecalli 13 // 'seal_return'\n 35908: fallthrough\n      : @1355 [@dyn 720] (gas: 30)\n 35909: sp = sp + 0xffffffffffffff80\n 35912: u64 [sp + 0x78] = ra\n 35915: u64 [sp + 0x70] = s0\n 35918: u64 [sp + 0x68] = s1\n 35921: s0 = sp + 0x80\n 35925: sp = sp & 0xfffffffffffffff0\n 35928: a4 = u64 [a2]\n 35930: a3 = u64 [a1]\n 35932: s1 = u64 [a2 + 0x8]\n 35935: t1 = u64 [a1 + 0x8]\n 35938: t2 = u64 [a2 + 0x10]\n 35941: a5 = u64 [a1 + 0x10]\n 35944: a2 = u64 [a2 + 0x18]\n 35947: a1 = u64 [a1 + 0x18]\n 35950: t0 = t1 ^ s1\n 35953: u64 [sp + 0x8] = s1\n 35956: s1 = t1 <u s1\n 35959: u64 [sp + 0x18] = a4\n 35962: u64 [sp + 0x10] = a3\n 35965: a3 = a3 <u a4\n 35968: u64 [sp] = a3\n 35970: s1 = a3 if t0 == 0\n 35973: a3 = a1 ^ a2\n 35976: ra = a1 <u a2\n 35979: t0 = a5 <u t2\n 35982: ra = t0 if a3 == 0\n 35985: a4 = a5 ^ t2\n 35988: a3 = a3 | a4\n 35991: ra = s1 if a3 == 0\n 35994: jump @1357 if ra != 0\n      : @1356 (gas: 23)\n 35997: a3 = a5 - t2\n 36000: a1 = a1 - a2\n 36003: a1 = a1 - t0\n 36006: a2 = a3 <u s1\n 36009: a1 = a1 - a2\n 36012: a3 = a3 - s1\n 36015: a2 = u64 [sp + 0x8]\n 36018: a2 = t1 - a2\n 36021: a4 = u64 [sp]\n 36023: a2 = a2 - a4\n 36026: a4 = u64 [sp + 0x18]\n 36029: a5 = u64 [sp + 0x10]\n 36032: a4 = a5 - a4\n 36035: u64 [a0] = a4\n 36037: u64 [a0 + 0x8] = a2\n 36040: u64 [a0 + 0x10] = a3\n 36043: u64 [a0 + 0x18] = a1\n 36046: sp = s0 + 0xffffffffffffff80\n 36049: ra = u64 [sp + 0x78]\n 36052: s0 = u64 [sp + 0x70]\n 36055: s1 = u64 [sp + 0x68]\n 36058: sp = sp + 0x80\n 36062: ret\n      : @1357 (gas: 8)\n 36064: u64 [sp + 80] = 0\n 36067: u64 [sp + 72] = 0\n 36070: u64 [sp + 64] = 0\n 36073: a0 = 0x4e487b7100000000\n 36083: a1 = sp + 0x40\n 36086: u64 [sp + 0x58] = a0\n 36089: a0 = 0\n 36091: ra = 1442, jump @24\n      : @1358 [@dyn 721] (gas: 7)\n 36098: u64 [sp + 56] = 0\n 36101: u64 [sp + 48] = 0\n 36104: u64 [sp + 32] = 0x11\n 36108: a0 = 0x4\n 36111: a1 = sp + 0x20\n 36114: u64 [sp + 40] = 0\n 36117: ra = 1444, jump @24\n      : @1359 [@dyn 722] (gas: 2)\n 36124: a1 = i32 [0x20180]\n 36129: jump @1361 if a1 >u 63\n      : @1360 (gas: 2)\n 36133: u32 [0x20180] = 0x40\n 36139: fallthrough\n      : @1361 (gas: 7)\n 36140: a1 = 0x20190\n 36145: i32 a1 = a1 + 0\n 36147: a0 = 0x1\n 36150: a2 = 0x24\n 36153: ra = 0x5a6\n 36157: ecalli 13 // 'seal_return'\n 36159: fallthrough\n      : @1362 [@dyn 723] (gas: 10)\n 36160: a3 = u64 [a1 + 0x18]\n 36163: a4 = u64 [a1 + 0x10]\n 36166: t0 = u64 [a1 + 0x8]\n 36169: a5 = a3 >u 0\n 36171: a2 = a4 >u 0\n 36173: a2 = a5 if a3 != 0\n 36176: a3 = a3 | a4\n 36179: a4 = t0 >u 0\n 36181: a4 = a2 if a3 != 0\n 36184: jump @1364 if a4 != 0\n      : @1363 (gas: 16)\n 36187: a1 = u64 [a1]\n 36189: a2 = a1 + 0x1f\n 36192: a1 = a2 <u a1\n 36195: a1 = a1 + t0\n 36198: a1 = a1 & 0x1\n 36201: a2 = a2 & 0xffffffffffffffe0\n 36204: a3 = a2 + 0x20\n 36207: a2 = a3 <u a2\n 36210: a4 = a1 + a2\n 36213: a1 = a4 <u a1\n 36216: a1 = a2 if a2 == 0\n 36219: u64 [a0 + 24] = 0\n 36222: u64 [a0] = a3\n 36224: u64 [a0 + 0x8] = a4\n 36227: u64 [a0 + 0x10] = a1\n 36230: ret\n      : @1364 (gas: 6)\n 36232: sp = sp + 0xffffffffffffffb0\n 36235: u64 [sp + 0x48] = ra\n 36238: u64 [sp + 0x40] = s0\n 36241: s0 = sp + 0x50\n 36244: sp = sp & 0xfffffffffffffff0\n 36247: t0 = 1448, jump @1531\n      : @1365 [@dyn 724] (gas: 1)\n 36253: ra = 1450, jump @24\n      : @1366 [@dyn 725] (gas: 7)\n 36260: u64 [sp + 24] = 0\n 36263: u64 [sp + 16] = 0\n 36266: u64 [sp + 0] = 0x41\n 36269: a0 = 0x4\n 36272: a1 = sp\n 36274: u64 [sp + 8] = 0\n 36277: ra = 1452, jump @24\n      : @1367 [@dyn 726] (gas: 2)\n 36284: a1 = i32 [0x20180]\n 36289: jump @1369 if a1 >u 63\n      : @1368 (gas: 2)\n 36293: u32 [0x20180] = 0x40\n 36299: fallthrough\n      : @1369 (gas: 7)\n 36300: a1 = 0x20190\n 36305: i32 a1 = a1 + 0\n 36307: a0 = 0x1\n 36310: a2 = 0x24\n 36313: ra = 0x5ae\n 36317: ecalli 13 // 'seal_return'\n 36319: fallthrough\n      : @1370 [@dyn 727] (gas: 9)\n 36320: sp = sp + 0xfffffffffffffec0\n 36324: u64 [sp + 0x138] = ra\n 36328: u64 [sp + 0x130] = s0\n 36332: u64 [sp + 0x128] = s1\n 36336: s0 = sp + 0x140\n 36340: sp = sp & 0xffffffffffffffe0\n 36343: s1 = a0\n 36345: ecalli 12 // 'return_data_size'\n 36347: fallthrough\n      : @1371 (gas: 1)\n 36348: jump @1384 if a0 == 0\n      : @1372 (gas: 11)\n 36352: u64 [sp + 0x18] = s1\n 36355: ecalli 12 // 'return_data_size'\n 36357: a2 = a0\n 36359: u64 [sp + 248] = 0\n 36363: u64 [sp + 240] = 0\n 36367: u64 [sp + 232] = 0\n 36371: a0 = sp + 0x100\n 36375: a1 = sp + 0xe0\n 36379: u64 [sp + 0x20] = a2\n 36382: u64 [sp + 0xe0] = a2\n 36386: ra = 1456, jump @1362\n      : @1373 [@dyn 728] (gas: 11)\n 36392: a0 = u64 [sp + 0x100]\n 36396: u64 [sp + 0x40] = a0\n 36399: a0 = u64 [sp + 0x108]\n 36403: u64 [sp + 0x38] = a0\n 36406: a0 = u64 [sp + 0x110]\n 36410: u64 [sp + 0x30] = a0\n 36413: a0 = u64 [sp + 0x118]\n 36417: u64 [sp + 0x28] = a0\n 36420: a0 = sp + 0xc0\n 36424: a1 = 0x40\n 36427: ra = 1458, jump @22\n      : @1374 [@dyn 729] (gas: 22)\n 36434: a0 = u64 [sp + 0xd8]\n 36438: u64 [sp + 0x58] = a0\n 36441: s1 = u64 [sp + 0xd0]\n 36445: a2 = u64 [sp + 0xc8]\n 36449: u64 [sp + 0x50] = a2\n 36452: a3 = u64 [sp + 0xc0]\n 36456: u64 [sp + 0x48] = a3\n 36459: a1 = u64 [sp + 0x28]\n 36462: u64 [sp + 0x98] = a1\n 36466: a1 = u64 [sp + 0x30]\n 36469: u64 [sp + 0x90] = a1\n 36473: a1 = u64 [sp + 0x38]\n 36476: u64 [sp + 0x88] = a1\n 36480: a1 = u64 [sp + 0x40]\n 36483: u64 [sp + 0x80] = a1\n 36487: u64 [sp + 0xb8] = a0\n 36491: u64 [sp + 0xb0] = s1\n 36495: u64 [sp + 0xa8] = a2\n 36499: a0 = sp + 0xa0\n 36503: a1 = sp + 0x80\n 36507: u64 [sp + 0xa0] = a3\n 36511: ra = 1460, jump @1345\n      : @1375 [@dyn 730] (gas: 12)\n 36517: a0 = u64 [sp + 0x48]\n 36520: a1 = u64 [sp + 0x58]\n 36523: a2 = u64 [sp + 0x50]\n 36526: a2 = a2 | a1\n 36529: a1 = a0 | s1\n 36532: a1 = a1 | a2\n 36535: a1 = a1 >> 0x20\n 36538: u64 [sp + 0x40] = s1\n 36541: a2 = a2 | s1\n 36544: a2 = a2 << 0x20\n 36547: a1 = a1 | a2\n 36550: jump @1383 if a1 != 0\n      : @1376 (gas: 7)\n 36554: u64 [sp + 120] = 0\n 36557: u64 [sp + 112] = 0\n 36560: u64 [sp + 104] = 0\n 36563: a1 = sp + 0x60\n 36566: a2 = u64 [sp + 0x20]\n 36569: u64 [sp + 0x60] = a2\n 36572: ra = 1462, jump @24\n      : @1377 [@dyn 731] (gas: 2)\n 36579: ecalli 12 // 'return_data_size'\n 36581: fallthrough\n      : @1378 (gas: 10)\n 36582: a3 = u64 [sp + 0x48]\n 36585: a1 = u64 [sp + 0x40]\n 36588: a2 = u64 [sp + 0x58]\n 36591: a1 = a1 | a2\n 36594: a2 = 0xffffffe0\n 36604: a2 = a3 <u a2\n 36607: a4 = u64 [sp + 0x50]\n 36610: a2 = 0 if a4 != 0\n 36612: a2 = 0 if a1 != 0\n 36614: jump @1383 if a2 == 0\n      : @1379 (gas: 3)\n 36617: s1 = a0\n 36619: a0 = a0 >> 0x20\n 36622: jump @1383 if a0 != 0\n      : @1380 (gas: 5)\n 36625: i32 a0 = a3 + 0x20\n 36628: i32 a1 = s1 + 0\n 36630: u64 [sp + 0x38] = a1\n 36633: a1 = s1\n 36635: ra = 1464, jump @37\n      : @1381 [@dyn 732] (gas: 6)\n 36642: u32 [sp + 0x120] = s1\n 36646: i32 a0 = a0 + 0\n 36648: i32 a1 = sp + 0x120\n 36652: a2 = 0\n 36654: ecalli 11 // 'return_data_copy'\n 36656: fallthrough\n      : @1382 (gas: 8)\n 36657: a4 = u64 [sp + 0x48]\n 36660: a0 = i32 [sp + 0x120]\n 36664: s1 = u64 [sp + 0x18]\n 36667: a1 = u64 [sp + 0x58]\n 36670: a2 = u64 [sp + 0x40]\n 36673: a3 = u64 [sp + 0x50]\n 36676: a5 = u64 [sp + 0x38]\n 36679: jump @1385 if a0 >=u a5\n      : @1383 (gas: 1)\n 36682: trap\n      : @1384 (gas: 5)\n 36683: a3 = 0\n 36685: a2 = 0\n 36687: a1 = 0\n 36689: a4 = 0x60\n 36692: fallthrough\n      : @1385 (gas: 10)\n 36693: u64 [s1] = a4\n 36695: u64 [s1 + 0x8] = a3\n 36698: u64 [s1 + 0x10] = a2\n 36701: u64 [s1 + 0x18] = a1\n 36704: sp = s0 + 0xfffffffffffffec0\n 36708: ra = u64 [sp + 0x138]\n 36712: s0 = u64 [sp + 0x130]\n 36716: s1 = u64 [sp + 0x128]\n 36720: sp = sp + 0x140\n 36724: ret\n      : @1386 (gas: 3)\n 36726: a1 = u32 [a1]\n 36728: a2 = 0xffffffff\n 36738: jump @1388 if a1 == a2\n      : @1387 (gas: 9)\n 36741: a1 = a1 + 0x1\n 36744: a2 = a1 <u 0x1\n 36747: a3 = a1 | a2\n 36750: a3 = a3 <u 0x1\n 36753: u64 [a0 + 24] = 0\n 36756: u64 [a0] = a1\n 36758: u64 [a0 + 0x8] = a2\n 36761: u64 [a0 + 0x10] = a3\n 36764: ret\n      : @1388 (gas: 6)\n 36766: sp = sp + 0xffffffffffffffb0\n 36769: u64 [sp + 0x48] = ra\n 36772: u64 [sp + 0x40] = s0\n 36775: s0 = sp + 0x50\n 36778: sp = sp & 0xfffffffffffffff0\n 36781: t0 = 1466, jump @1531\n      : @1389 [@dyn 733] (gas: 1)\n 36787: ra = 1468, jump @24\n      : @1390 [@dyn 734] (gas: 7)\n 36794: u64 [sp + 24] = 0\n 36797: u64 [sp + 16] = 0\n 36800: u64 [sp + 0] = 0x11\n 36803: a0 = 0x4\n 36806: a1 = sp\n 36808: u64 [sp + 8] = 0\n 36811: ra = 1470, jump @24\n      : @1391 [@dyn 735] (gas: 2)\n 36818: a1 = i32 [0x20180]\n 36823: jump @1393 if a1 >u 63\n      : @1392 (gas: 2)\n 36827: u32 [0x20180] = 0x40\n 36833: fallthrough\n      : @1393 (gas: 7)\n 36834: a1 = 0x20190\n 36839: i32 a1 = a1 + 0\n 36841: a0 = 0x1\n 36844: a2 = 0x24\n 36847: ra = 0x5c0\n 36851: ecalli 13 // 'seal_return'\n 36853: fallthrough\n      : @1394 [@dyn 736] (gas: 45)\n 36854: sp = sp + 0xffffffffffffff90\n 36857: u64 [sp + 0x68] = ra\n 36860: u64 [sp + 0x60] = s0\n 36863: u64 [sp + 0x58] = s1\n 36866: s0 = sp + 0x70\n 36869: sp = sp & 0xfffffffffffffff0\n 36872: a3 = u64 [a1 + 0x18]\n 36875: u64 [sp + 0x8] = a3\n 36878: a4 = u64 [a2 + 0x18]\n 36881: t2 = u64 [a1]\n 36883: u64 [sp] = t2\n 36885: a3 = u64 [a1 + 0x8]\n 36888: s1 = u64 [a2 + 0x8]\n 36891: a5 = u64 [a2]\n 36893: t1 = u64 [a1 + 0x10]\n 36896: t0 = u64 [a2 + 0x10]\n 36899: a2 = s1 + a3\n 36902: t2 = t2 + a5\n 36905: a5 = t2 <u a5\n 36908: a2 = a2 + a5\n 36911: ra = a2 ^ s1\n 36914: s1 = a2 <u s1\n 36917: s1 = a5 if ra == 0\n 36920: a1 = t0 + t1\n 36923: a5 = u64 [sp + 0x8]\n 36926: a5 = a5 + a4\n 36929: a4 = a1 <u t0\n 36932: a4 = a4 + a5\n 36935: a5 = a1 + s1\n 36938: a1 = a5 <u a1\n 36941: ra = a4 + a1\n 36944: a4 = a2 ^ a3\n 36947: a3 = a2 <u a3\n 36950: a1 = u64 [sp]\n 36952: s1 = t2 <u a1\n 36955: s1 = a3 if a4 != 0\n 36958: t0 = a5 <u t1\n 36961: a1 = u64 [sp + 0x8]\n 36964: a4 = ra ^ a1\n 36967: a3 = ra <u a1\n 36970: a3 = t0 if a4 == 0\n 36973: a1 = a5 ^ t1\n 36976: a1 = a1 | a4\n 36979: s1 = a3 if a1 != 0\n 36982: jump @1396 if s1 != 0\n      : @1395 (gas: 10)\n 36985: u64 [a0] = t2\n 36987: u64 [a0 + 0x8] = a2\n 36990: u64 [a0 + 0x10] = a5\n 36993: u64 [a0 + 0x18] = ra\n 36996: sp = s0 + 0xffffffffffffff90\n 36999: ra = u64 [sp + 0x68]\n 37002: s0 = u64 [sp + 0x60]\n 37005: s1 = u64 [sp + 0x58]\n 37008: sp = sp + 0x70\n 37011: ret\n      : @1396 (gas: 1)\n 37013: t0 = 1474, jump @1576\n      : @1397 [@dyn 737] (gas: 1)\n 37019: ra = 1476, jump @24\n      : @1398 [@dyn 738] (gas: 7)\n 37026: u64 [sp + 40] = 0\n 37029: u64 [sp + 32] = 0\n 37032: u64 [sp + 16] = 0x11\n 37036: a0 = 0x4\n 37039: a1 = sp + 0x10\n 37042: u64 [sp + 24] = 0\n 37045: ra = 1478, jump @24\n      : @1399 [@dyn 739] (gas: 2)\n 37052: a1 = i32 [0x20180]\n 37057: jump @1401 if a1 >u 63\n      : @1400 (gas: 2)\n 37061: u32 [0x20180] = 0x40\n 37067: fallthrough\n      : @1401 (gas: 7)\n 37068: a1 = 0x20190\n 37073: i32 a1 = a1 + 0\n 37075: a0 = 0x1\n 37078: a2 = 0x24\n 37081: ra = 0x5c8\n 37085: ecalli 13 // 'seal_return'\n 37087: fallthrough\n      : @1402 [@dyn 740] (gas: 21)\n 37088: sp = sp + 0xfffffffffffff900\n 37092: a3 = sp + 0x600\n 37096: u64 [a3 + 0xf8] = ra\n 37100: u64 [a3 + 0xf0] = s0\n 37104: u64 [a3 + 0xe8] = s1\n 37108: s0 = sp + 0x700\n 37112: sp = sp & 0xffffffffffffffe0\n 37115: s1 = sp\n 37117: a2 = u64 [a2]\n 37119: u64 [s1 + 0x28] = a2\n 37122: a1 = u64 [a1]\n 37124: u64 [s1 + 0x30] = a1\n 37127: a1 = u64 [a0 + 0x10]\n 37130: u64 [s1 + 0x20] = a1\n 37133: a1 = u64 [a0 + 0x8]\n 37136: u64 [s1 + 0x38] = a1\n 37139: a0 = u64 [a0]\n 37141: u64 [s1 + 0x40] = a0\n 37144: i32 a0 = s1 + 0x620\n 37148: ecalli 9 // 'now'\n 37150: fallthrough\n      : @1403 (gas: 48)\n 37151: t0 = u64 [s1 + 0x638]\n 37155: t1 = u64 [s1 + 0x630]\n 37159: a0 = u64 [s1 + 0x628]\n 37163: a4 = u64 [s1 + 0x620]\n 37167: u64 [s1 + 0x78] = a4\n 37170: a2 = clz t0\n 37172: a1 = clz t1\n 37174: a3 = a1 + 0x40\n 37177: a3 = a2 if t0 != 0\n 37180: a2 = clz a0\n 37182: a1 = clz a4\n 37184: a1 = a1 + 0x40\n 37187: a1 = a2 if a0 != 0\n 37190: a4 = a1 + 0x80\n 37194: a2 = t1 | t0\n 37197: a3 = a4 if a2 == 0\n 37200: a5 = a4 <u a1\n 37203: a5 = 0 if a2 != 0\n 37205: a4 = a5 >u 0\n 37207: a1 = a3 <u 0xf0\n 37211: a2 = a1 ^ 0x1\n 37214: a4 = a2 if a5 == 0\n 37217: t2 = a4 <u 0x1\n 37220: ra = t2 + 0xffffffffffffffff\n 37223: t2 = -a4\n 37225: a5 = -a5\n 37227: a2 = a5 - a2\n 37230: a1 = 0xef - a3\n 37234: u64 [s1 + 0xa8] = t2\n 37238: a3 = t2 >u 0\n 37240: a5 = ra >u 0\n 37242: a5 = a3 if ra == 0\n 37245: u64 [s1 + 0xb8] = a1\n 37249: a3 = a1 <u 0x100\n 37253: a3 = a3 ^ 0x1\n 37256: a1 = a2 >u 0\n 37258: a3 = a1 if a2 != 0\n 37261: a3 = a5 if a4 != 0\n 37264: t2 = a0\n 37266: a0 = u64 [s1 + 0x78]\n 37269: a1 = t2 | t0\n 37272: a4 = a0 | t1\n 37275: a1 = a1 | a4\n 37278: a1 = a1 <u 0x1\n 37281: a1 = a1 | a3\n 37284: a3 = a0\n 37286: a3 = 0 if a1 != 0\n 37288: jump @1419 if a1 != 0\n      : @1404 (gas: 7)\n 37292: a1 = u64 [s1 + 0xb8]\n 37296: a1 = a1 ^ 0xff\n 37300: a5 = u64 [s1 + 0xa8]\n 37304: a1 = a1 | a5\n 37307: a4 = a2 | ra\n 37310: a1 = a1 | a4\n 37313: jump @1419 if a1 == 0\n      : @1405 (gas: 21)\n 37317: a4 = u64 [s1 + 0xb8]\n 37321: a3 = a4 + 0x1\n 37324: u64 [s1 + 0xb0] = a3\n 37328: a1 = a3 <u 0x1\n 37331: a1 = a1 + a2\n 37334: u64 [s1 + 0xa0] = a1\n 37338: a1 = a1 | a3\n 37341: a1 = a1 <u 0x1\n 37344: a1 = a1 + a5\n 37347: u64 [s1 + 0x90] = a1\n 37351: a1 = a1 <u a5\n 37354: a1 = a1 + ra\n 37357: u64 [s1 + 0x98] = a1\n 37361: a2 = 0xff - a4\n 37365: u64 [s1 + 0x88] = a2\n 37369: a2 = 0x80 - a2\n 37373: a1 = t2\n 37375: u64 [s1 + 0x70] = t2\n 37378: u64 [s1 + 0x68] = t0\n 37381: u64 [s1 + 0x60] = t1\n 37384: ra = 1482, jump @1594\n      : @1406 [@dyn 741] (gas: 6)\n 37390: u64 [s1 + 0x80] = a0\n 37394: u64 [s1 + 0x50] = a1\n 37397: a0 = u64 [s1 + 0x60]\n 37400: a1 = u64 [s1 + 0x68]\n 37403: a2 = u64 [s1 + 0x88]\n 37407: ra = 1484, jump @1599\n      : @1407 [@dyn 742] (gas: 7)\n 37413: u64 [s1 + 0x48] = a0\n 37416: u64 [s1 + 0x18] = a1\n 37419: a1 = u64 [s1 + 0xb8]\n 37423: a2 = 0x7f - a1\n 37426: a0 = u64 [s1 + 0x78]\n 37429: a1 = u64 [s1 + 0x70]\n 37432: ra = 1486, jump @1599\n      : @1408 [@dyn 743] (gas: 8)\n 37438: u64 [s1 + 0x10] = a0\n 37441: u64 [s1 + 0xb8] = a1\n 37445: a2 = u64 [s1 + 0x88]\n 37449: a0 = a2 <u 0x80\n 37453: u64 [s1 + 0x58] = a0\n 37456: a0 = u64 [s1 + 0x78]\n 37459: a1 = u64 [s1 + 0x70]\n 37462: ra = 1488, jump @1599\n      : @1409 [@dyn 744] (gas: 11)\n 37468: a5 = u64 [s1 + 0x58]\n 37471: a4 = u64 [s1 + 0x90]\n 37475: a3 = u64 [s1 + 0x98]\n 37479: a2 = u64 [s1 + 0xa0]\n 37483: a2 = a2 | a3\n 37486: a3 = u64 [s1 + 0xb0]\n 37490: a3 = a3 | a4\n 37493: a3 = a3 | a2\n 37496: a0 = 0 if a5 == 0\n 37498: u64 [s1 + 0xa8] = a0\n 37502: jump @1417 if a3 == 0\n      : @1410 (gas: 27)\n 37506: a0 = u64 [s1 + 0x50]\n 37509: a2 = u64 [s1 + 0x18]\n 37512: a0 = a0 | a2\n 37515: a2 = u64 [s1 + 0xb8]\n 37519: a0 = a2 if a5 == 0\n 37522: t0 = u64 [s1 + 0x68]\n 37525: a3 = t0\n 37527: t1 = u64 [s1 + 0x88]\n 37531: a3 = a0 if t1 != 0\n 37534: u64 [s1 + 0xb8] = a3\n 37538: a0 = u64 [s1 + 0x80]\n 37542: a2 = u64 [s1 + 0x48]\n 37545: a0 = a0 | a2\n 37548: a2 = u64 [s1 + 0x10]\n 37551: a0 = a2 if a5 == 0\n 37554: a4 = u64 [s1 + 0x60]\n 37557: a3 = a4\n 37559: a3 = a0 if t1 != 0\n 37562: u64 [s1 + 0x80] = a3\n 37566: a1 = 0 if a5 == 0\n 37568: u64 [s1 + 0x88] = a1\n 37572: u64 [s1 + 88] = 0x15180\n 37578: a0 = u64 [s1 + 0xb0]\n 37582: a2 = a0 + 0xffffffffffffff80\n 37585: a0 = a4\n 37587: a1 = t0\n 37589: ra = 1490, jump @1594\n      : @1411 [@dyn 745] (gas: 6)\n 37595: u64 [s1 + 0x50] = a0\n 37598: u64 [s1 + 0x18] = a1\n 37601: a0 = u64 [s1 + 0x78]\n 37604: a1 = u64 [s1 + 0x70]\n 37607: a2 = u64 [s1 + 0xb0]\n 37611: ra = 1492, jump @1594\n      : @1412 [@dyn 746] (gas: 7)\n 37617: u64 [s1 + 0x10] = a0\n 37620: u64 [s1 + 0x48] = a1\n 37623: a1 = u64 [s1 + 0xb0]\n 37627: a2 = 0x80 - a1\n 37631: a0 = u64 [s1 + 0x60]\n 37634: a1 = u64 [s1 + 0x68]\n 37637: ra = 1494, jump @1599\n      : @1413 [@dyn 747] (gas: 21)\n 37643: a2 = u64 [s1 + 0x48]\n 37646: a1 = a1 | a2\n 37649: a3 = u64 [s1 + 0xb0]\n 37653: a4 = a3 <u 0x80\n 37657: u64 [s1 + 0x48] = a4\n 37660: a2 = u64 [s1 + 0x18]\n 37663: a1 = a2 if a4 == 0\n 37666: a2 = u64 [s1 + 0x70]\n 37669: a2 = a1 if a3 != 0\n 37672: u64 [s1 + 0x70] = a2\n 37675: a1 = u64 [s1 + 0x10]\n 37678: a0 = a0 | a1\n 37681: a1 = u64 [s1 + 0x50]\n 37684: a0 = a1 if a4 == 0\n 37687: a1 = u64 [s1 + 0x78]\n 37690: a1 = a0 if a3 != 0\n 37693: a2 = a3\n 37695: u64 [s1 + 0x78] = a1\n 37698: a0 = u64 [s1 + 0x60]\n 37701: a1 = u64 [s1 + 0x68]\n 37704: ra = 1496, jump @1594\n      : @1414 [@dyn 748] (gas: 13)\n 37710: a5 = 0\n 37712: a2 = u64 [s1 + 0x48]\n 37715: a1 = 0 if a2 == 0\n 37717: a0 = 0 if a2 == 0\n 37719: a3 = u64 [s1 + 0x58]\n 37722: a2 = a3 + 0xffffffffffffffff\n 37725: u64 [s1 + 0x50] = a2\n 37728: a2 = a3 >u 0\n 37730: a2 = a2 + 0xffffffffffffffff\n 37733: u64 [s1 + 0x48] = a2\n 37736: t1 = u64 [s1 + 0x70]\n 37739: t2 = u64 [s1 + 0x78]\n 37742: fallthrough\n      : @1415 (gas: 87)\n 37743: u64 [s1 + 0x78] = a5\n 37746: a2 = t2 >> 0x3f\n 37749: a3 = t1 << 0x1\n 37752: a5 = a3 | a2\n 37755: a3 = t2 << 0x1\n 37758: a4 = u64 [s1 + 0xb8]\n 37762: a4 = a4 >> 0x3f\n 37765: a3 = a3 | a4\n 37768: u64 [s1 + 0x68] = a3\n 37771: a2 = u64 [s1 + 0x48]\n 37774: u64 [s1 + 0x70] = a5\n 37777: t2 = t1\n 37779: t1 = a2 ^ a5\n 37782: t0 = a2 <u a5\n 37785: a4 = u64 [s1 + 0x50]\n 37788: a5 = a4 <u a3\n 37791: a5 = t0 if t1 != 0\n 37794: a1 = a1 << 0x1\n 37797: a3 = a0 >> 0x3f\n 37800: a1 = a1 | a3\n 37803: u64 [s1 + 0x60] = a1\n 37806: a3 = t2 >> 0x3f\n 37809: a0 = a0 << 0x1\n 37812: a3 = a3 | a0\n 37815: a0 = u64 [s1 + 0xb8]\n 37819: a0 = a0 << 0x1\n 37822: a4 = u64 [s1 + 0x80]\n 37826: a1 = a4 >> 0x3f\n 37829: t0 = a0 | a1\n 37832: a1 = a4 << 0x1\n 37835: a4 = u64 [s1 + 0x88]\n 37839: t1 = a4 >> 0x3f\n 37842: t1 = a1 | t1\n 37845: a1 = a4 << 0x1\n 37848: a4 = u64 [s1 + 0xa8]\n 37852: t2 = a4 >> 0x3f\n 37855: a1 = a1 | t2\n 37858: a4 = a4 << 0x1\n 37861: a0 = u64 [s1 + 0x78]\n 37864: a4 = a4 | a0\n 37867: u64 [s1 + 0xa8] = a4\n 37871: a1 = a1 | 0\n 37873: u64 [s1 + 0x88] = a1\n 37877: a1 = t1 | 0\n 37879: u64 [s1 + 0x80] = a1\n 37883: a0 = t0 | 0\n 37885: u64 [s1 + 0xb8] = a0\n 37889: a0 = a2 - a3\n 37892: a0 = a0 <u a5\n 37895: a1 = a2 <u a3\n 37898: t0 = u64 [s1 + 0x60]\n 37901: a4 = a2 - t0\n 37904: a4 = a4 - a1\n 37907: a4 = a4 - a0\n 37910: a5 = a4 >>a 0x3f\n 37913: a0 = u64 [s1 + 0x58]\n 37916: a0 = a0 & a5\n 37919: a1 = u64 [s1 + 0x68]\n 37922: t2 = a1 - a0\n 37925: a1 = a1 <u a0\n 37928: a0 = u64 [s1 + 0x70]\n 37931: t1 = a0 - a1\n 37934: a1 = 0 if a0 != 0\n 37936: a0 = a3 - a1\n 37939: a1 = a3 <u a1\n 37942: a1 = t0 - a1\n 37945: a3 = u64 [s1 + 0xb0]\n 37949: ra = u64 [s1 + 0xa0]\n 37953: a2 = a3 | ra\n 37956: a2 = a2 <u 0x1\n 37959: a4 = u64 [s1 + 0x90]\n 37963: t0 = a4 <u a2\n 37966: a2 = a4 - a2\n 37969: a4 = a3 <u 0x1\n 37972: ra = ra - a4\n 37975: a4 = u64 [s1 + 0x98]\n 37979: a4 = a4 - t0\n 37982: a3 = a3 + 0xffffffffffffffff\n 37985: u64 [s1 + 0xa0] = ra\n 37989: u64 [s1 + 0x98] = a4\n 37993: t0 = ra | a4\n 37996: u64 [s1 + 0xb0] = a3\n 38000: a4 = a3 | a2\n 38003: a3 = a4 | t0\n 38006: a5 = a5 & 0x1\n 38009: u64 [s1 + 0x90] = a2\n 38013: jump @1415 if a3 != 0\n      : @1416 (gas: 1)\n 38017: jump @1418\n      : @1417 (gas: 2)\n 38019: a5 = 0\n 38021: fallthrough\n      : @1418 (gas: 4)\n 38022: a0 = u64 [s1 + 0xa8]\n 38026: a0 = a0 << 0x1\n 38029: a3 = a5 | a0\n 38032: fallthrough\n      : @1419 (gas: 2)\n 38033: a0 = u64 [s1 + 0x30]\n 38036: jump @1490 if a0 >=u a3\n      : @1420 (gas: 13)\n 38040: a0 = u64 [s1 + 0x20]\n 38043: a0 = a0 << 0x20\n 38046: a2 = a0 >> 0x20\n 38049: u64 [s1 + 1528] = 0\n 38053: a0 = u64 [s1 + 0x40]\n 38056: u64 [s1 + 0x5e0] = a0\n 38060: a0 = u64 [s1 + 0x38]\n 38063: u64 [s1 + 0x5e8] = a0\n 38067: a1 = s1 + 0x5e0\n 38071: u64 [s1 + 0xa8] = a2\n 38075: u64 [s1 + 0x5f0] = a2\n 38079: a0 = 0\n 38081: ra = 1498, jump @24\n      : @1421 [@dyn 749] (gas: 7)\n 38088: u64 [s1 + 1496] = 0\n 38092: u64 [s1 + 1488] = 0\n 38096: u64 [s1 + 1472] = 0x2\n 38101: a0 = 0x20\n 38104: a1 = s1 + 0x5c0\n 38108: u64 [s1 + 1480] = 0\n 38112: ra = 1500, jump @24\n      : @1422 [@dyn 750] (gas: 3)\n 38119: a1 = 0x20180\n 38124: a0 = i32 [0x20180]\n 38129: jump @1424 if a0 >u 63\n      : @1423 (gas: 2)\n 38133: u32 [0x20180] = 0x40\n 38139: fallthrough\n      : @1424 (gas: 15)\n 38140: a0 = sp + 0xffffffffffffffe0\n 38143: a2 = a0 & 0xffffffffffffffe0\n 38146: u64 [s1 + 0xa0] = a2\n 38150: sp = a2\n 38152: a0 = 0x20190\n 38157: u64 [s1 + 0x50] = a0\n 38160: i32 a0 = a0 + 0\n 38162: u64 [s1 + 0xb0] = a1\n 38166: i32 a2 = a2 + 0\n 38168: a1 = 0x40\n 38171: u64 [s1 + 0xb8] = a0\n 38175: ra = 0x5de\n 38179: ecalli 8 // 'hash_keccak_256'\n 38181: t0 = 0x5e0\n 38185: jump @1538\n      : @1425 [@dyn 751] (gas: 1)\n 38188: t0 = 1504, jump @1538\n      : @1426 [@dyn 752] (gas: 11)\n 38194: a0 = u64 [s1 + 0x28]\n 38197: a0 = a0 << 0x20\n 38200: a0 = a0 >> 0x20\n 38203: u64 [s1 + 1464] = 0\n 38207: u64 [s1 + 1456] = 0\n 38211: u64 [s1 + 1448] = 0\n 38215: a1 = s1 + 0x5a0\n 38219: u64 [s1 + 0x90] = a0\n 38223: u64 [s1 + 0x5a0] = a0\n 38227: a0 = 0\n 38229: ra = 1506, jump @24\n      : @1427 [@dyn 753] (gas: 12)\n 38236: a0 = u64 [s1 + 0x78]\n 38239: a3 = s1 + 0x500\n 38243: u64 [a3 + 0x98] = a0\n 38247: a0 = u64 [s1 + 0x80]\n 38251: u64 [a3 + 0x90] = a0\n 38255: a0 = u64 [s1 + 0x88]\n 38259: u64 [a3 + 0x88] = a0\n 38263: a0 = 0x20\n 38266: a1 = s1 + 0x580\n 38270: a2 = u64 [s1 + 0x98]\n 38274: u64 [a3 + 0x80] = a2\n 38278: ra = 1508, jump @24\n      : @1428 [@dyn 754] (gas: 3)\n 38285: a1 = u64 [s1 + 0xb0]\n 38289: a0 = i32 [a1]\n 38291: jump @1430 if a0 >u 63\n      : @1429 (gas: 2)\n 38295: u32 [a1 + 0] = 0x40\n 38298: fallthrough\n      : @1430 (gas: 4)\n 38299: a0 = sp + 0xffffffffffffffe0\n 38302: a0 = a0 & 0xffffffffffffffe0\n 38305: u64 [s1 + 0x98] = a0\n 38309: t0 = 1510, jump @1562\n      : @1431 [@dyn 755] (gas: 4)\n 38315: ra = 0x5e8\n 38319: ecalli 8 // 'hash_keccak_256'\n 38321: t0 = 0x5ea\n 38325: jump @1549\n      : @1432 [@dyn 756] (gas: 1)\n 38328: t0 = 1514, jump @1549\n      : @1433 [@dyn 757] (gas: 2)\n 38334: a0 = s1 + 0x560\n 38338: ra = 1516, jump @26\n      : @1434 [@dyn 758] (gas: 7)\n 38345: a0 = u32 [s1 + 0x564]\n 38349: a1 = u64 [s1 + 0x568]\n 38353: a2 = u64 [s1 + 0x570]\n 38357: a0 = a0 << 0x20\n 38360: a1 = a1 | a2\n 38363: a0 = a0 | a1\n 38366: jump @1494 if a0 == 0\n      : @1435 (gas: 10)\n 38370: u64 [s1 + 1368] = 0\n 38374: a0 = u64 [s1 + 0x40]\n 38377: u64 [s1 + 0x540] = a0\n 38381: a0 = u64 [s1 + 0x38]\n 38384: u64 [s1 + 0x548] = a0\n 38388: a1 = s1 + 0x540\n 38392: a0 = u64 [s1 + 0xa8]\n 38396: u64 [s1 + 0x550] = a0\n 38400: a0 = 0\n 38402: ra = 1518, jump @24\n      : @1436 [@dyn 759] (gas: 7)\n 38409: u64 [s1 + 1336] = 0\n 38413: u64 [s1 + 1328] = 0\n 38417: u64 [s1 + 1312] = 0x4\n 38422: a0 = 0x20\n 38425: a1 = s1 + 0x520\n 38429: u64 [s1 + 1320] = 0\n 38433: ra = 1520, jump @24\n      : @1437 [@dyn 760] (gas: 3)\n 38440: a1 = u64 [s1 + 0xb0]\n 38444: a0 = i32 [a1]\n 38446: jump @1439 if a0 >u 63\n      : @1438 (gas: 2)\n 38450: u32 [a1 + 0] = 0x40\n 38453: fallthrough\n      : @1439 (gas: 4)\n 38454: a0 = sp + 0xffffffffffffffe0\n 38457: a0 = a0 & 0xffffffffffffffe0\n 38460: u64 [s1 + 0xa0] = a0\n 38464: t0 = 1522, jump @1562\n      : @1440 [@dyn 761] (gas: 22)\n 38470: ecalli 8 // 'hash_keccak_256'\n 38472: a3 = u64 [s1 + 0xa0]\n 38476: a0 = u64 [a3 + 0x18]\n 38479: a1 = u64 [a3 + 0x10]\n 38482: a2 = u64 [a3 + 0x8]\n 38485: a3 = u64 [a3]\n 38487: a0 = reverse a0\n 38489: u64 [s1 + 0xa0] = a0\n 38493: a0 = reverse a1\n 38495: u64 [s1 + 0x98] = a0\n 38499: a0 = reverse a2\n 38501: u64 [s1 + 0x88] = a0\n 38505: a0 = reverse a3\n 38507: u64 [s1 + 0x80] = a0\n 38511: u64 [s1 + 1304] = 0\n 38515: u64 [s1 + 1296] = 0\n 38519: u64 [s1 + 1288] = 0\n 38523: a1 = s1 + 0x500\n 38527: a0 = u64 [s1 + 0x30]\n 38530: u64 [s1 + 0x500] = a0\n 38534: a0 = 0\n 38536: ra = 1524, jump @24\n      : @1441 [@dyn 762] (gas: 12)\n 38543: a0 = u64 [s1 + 0x80]\n 38547: a3 = s1 + 0x400\n 38551: u64 [a3 + 0xf8] = a0\n 38555: a0 = u64 [s1 + 0x88]\n 38559: u64 [a3 + 0xf0] = a0\n 38563: a0 = u64 [s1 + 0x98]\n 38567: u64 [a3 + 0xe8] = a0\n 38571: a0 = 0x20\n 38574: a1 = s1 + 0x4e0\n 38578: a2 = u64 [s1 + 0xa0]\n 38582: u64 [a3 + 0xe0] = a2\n 38586: ra = 1526, jump @24\n      : @1442 [@dyn 763] (gas: 3)\n 38593: a1 = u64 [s1 + 0xb0]\n 38597: a0 = i32 [a1]\n 38599: jump @1444 if a0 >u 63\n      : @1443 (gas: 2)\n 38603: u32 [a1 + 0] = 0x40\n 38606: fallthrough\n      : @1444 (gas: 4)\n 38607: a0 = sp + 0xffffffffffffffe0\n 38610: a0 = a0 & 0xffffffffffffffe0\n 38613: u64 [s1 + 0xa0] = a0\n 38617: t0 = 1528, jump @1562\n      : @1445 [@dyn 764] (gas: 4)\n 38623: ra = 0x5fa\n 38627: ecalli 8 // 'hash_keccak_256'\n 38629: t0 = 0x5fc\n 38633: jump @1538\n      : @1446 [@dyn 765] (gas: 1)\n 38636: t0 = 1532, jump @1538\n      : @1447 [@dyn 766] (gas: 8)\n 38642: u64 [s1 + 1240] = 0\n 38646: u64 [s1 + 1232] = 0\n 38650: u64 [s1 + 1224] = 0\n 38654: a1 = s1 + 0x4c0\n 38658: a0 = u64 [s1 + 0x90]\n 38662: u64 [s1 + 0x4c0] = a0\n 38666: a0 = 0\n 38668: ra = 1534, jump @24\n      : @1448 [@dyn 767] (gas: 12)\n 38675: a0 = u64 [s1 + 0x78]\n 38678: a3 = s1 + 0x400\n 38682: u64 [a3 + 0xb8] = a0\n 38686: a0 = u64 [s1 + 0x80]\n 38690: u64 [a3 + 0xb0] = a0\n 38694: a0 = u64 [s1 + 0x88]\n 38698: u64 [a3 + 0xa8] = a0\n 38702: a0 = 0x20\n 38705: a1 = s1 + 0x4a0\n 38709: a2 = u64 [s1 + 0x98]\n 38713: u64 [a3 + 0xa0] = a2\n 38717: ra = 1536, jump @24\n      : @1449 [@dyn 768] (gas: 3)\n 38724: a1 = u64 [s1 + 0xb0]\n 38728: a0 = i32 [a1]\n 38730: jump @1451 if a0 >=u 64\n      : @1450 (gas: 2)\n 38734: u32 [a1 + 0] = 0x40\n 38737: fallthrough\n      : @1451 (gas: 4)\n 38738: a0 = sp + 0xffffffffffffffe0\n 38741: a0 = a0 & 0xffffffffffffffe0\n 38744: u64 [s1 + 0x98] = a0\n 38748: t0 = 1538, jump @1562\n      : @1452 [@dyn 769] (gas: 4)\n 38754: ra = 0x604\n 38758: ecalli 8 // 'hash_keccak_256'\n 38760: t0 = 0x606\n 38764: jump @1549\n      : @1453 [@dyn 770] (gas: 1)\n 38767: t0 = 1542, jump @1549\n      : @1454 [@dyn 771] (gas: 2)\n 38773: a0 = s1 + 0x480\n 38777: ra = 1544, jump @26\n      : @1455 [@dyn 772] (gas: 3)\n 38784: a1 = u64 [s1 + 0x480]\n 38788: a0 = a1 & 0xff\n 38792: jump @1495 if a0 == 0\n      : @1456 (gas: 3)\n 38796: u64 [s1 + 0x98] = a1\n 38800: a0 = a1 & 0xff0000\n 38806: jump @1496 if a0 != 0\n      : @1457 (gas: 16)\n 38810: a0 = u64 [s1 + 0x498]\n 38814: u64 [s1 + 0x58] = a0\n 38817: a0 = u64 [s1 + 0x490]\n 38821: u64 [s1 + 0x60] = a0\n 38824: a0 = u64 [s1 + 0x488]\n 38828: u64 [s1 + 0x68] = a0\n 38831: u64 [s1 + 1112] = 0\n 38835: a0 = u64 [s1 + 0x40]\n 38838: u64 [s1 + 0x440] = a0\n 38842: a0 = u64 [s1 + 0x38]\n 38845: u64 [s1 + 0x448] = a0\n 38849: a1 = s1 + 0x440\n 38853: a0 = u64 [s1 + 0xa8]\n 38857: u64 [s1 + 0x450] = a0\n 38861: a0 = 0\n 38863: ra = 1546, jump @24\n      : @1458 [@dyn 773] (gas: 7)\n 38870: u64 [s1 + 1080] = 0\n 38874: u64 [s1 + 1072] = 0\n 38878: u64 [s1 + 1056] = 0x1\n 38883: a0 = 0x20\n 38886: a1 = s1 + 0x420\n 38890: u64 [s1 + 1064] = 0\n 38894: ra = 1548, jump @24\n      : @1459 [@dyn 774] (gas: 3)\n 38901: a2 = u64 [s1 + 0xb0]\n 38905: a0 = i32 [a2]\n 38907: jump @1461 if a0 >u 63\n      : @1460 (gas: 2)\n 38911: u32 [a2 + 0] = 0x40\n 38914: fallthrough\n      : @1461 (gas: 4)\n 38915: a0 = sp + 0xffffffffffffffe0\n 38918: a0 = a0 & 0xffffffffffffffe0\n 38921: u64 [s1 + 0x88] = a0\n 38925: t0 = 1550, jump @1562\n      : @1462 [@dyn 775] (gas: 28)\n 38931: ecalli 8 // 'hash_keccak_256'\n 38933: a3 = u64 [s1 + 0x88]\n 38937: a0 = u64 [a3]\n 38939: a1 = u64 [a3 + 0x8]\n 38942: a2 = u64 [a3 + 0x10]\n 38945: a3 = u64 [a3 + 0x18]\n 38948: a0 = reverse a0\n 38950: u64 [s1 + 0x88] = a0\n 38954: a0 = reverse a1\n 38956: u64 [s1 + 0x80] = a0\n 38960: a0 = reverse a2\n 38962: u64 [s1 + 0x78] = a0\n 38965: a0 = reverse a3\n 38967: u64 [s1 + 0x70] = a0\n 38970: a1 = sp + 0xffffffffffffffe0\n 38973: a1 = a1 & 0xffffffffffffffe0\n 38976: sp = a1\n 38978: a2 = u64 [s1 + 0x98]\n 38982: a0 = a2 | 0x10000\n 38987: a2 = u64 [s1 + 0x58]\n 38990: u64 [a1 + 0x18] = a2\n 38993: a2 = u64 [s1 + 0x60]\n 38996: u64 [a1 + 0x10] = a2\n 38999: a2 = u64 [s1 + 0x68]\n 39002: u64 [a1 + 0x8] = a2\n 39005: u64 [a1] = a0\n 39007: a0 = u64 [s1 + 0xa0]\n 39011: ra = 1552, jump @28\n      : @1463 [@dyn 776] (gas: 25)\n 39018: a1 = u64 [s1 + 0x98]\n 39022: a0 = a1 & 0xff00\n 39027: u64 [s1 + 0x98] = a0\n 39031: a0 = sp + 0xffffffffffffffe0\n 39034: a1 = a0 & 0xffffffffffffffe0\n 39037: sp = a1\n 39039: a0 = u64 [s1 + 0x70]\n 39042: a0 = a0 + 0x1\n 39045: a2 = a0 <u 0x1\n 39048: a4 = u64 [s1 + 0x78]\n 39051: a4 = a4 + a2\n 39054: a2 = a0 | a4\n 39057: a2 = a2 <u 0x1\n 39060: a3 = u64 [s1 + 0x80]\n 39064: a2 = a2 + a3\n 39067: a3 = a2 <u a3\n 39070: a5 = u64 [s1 + 0x88]\n 39074: a3 = a3 + a5\n 39077: u64 [a1 + 0x18] = a3\n 39080: u64 [a1 + 0x10] = a2\n 39083: u64 [a1 + 0x8] = a4\n 39086: u64 [a1] = a0\n 39088: a0 = s1 + 0x400\n 39092: u64 [s1 + 0xa0] = a1\n 39096: ra = 1554, jump @26\n      : @1464 [@dyn 777] (gas: 27)\n 39103: t0 = u64 [s1 + 0x418]\n 39107: t1 = u64 [s1 + 0x410]\n 39111: a3 = u64 [s1 + 0x408]\n 39115: t2 = u64 [s1 + 0x400]\n 39119: a1 = sp + 0xffffffffffffffe0\n 39122: a1 = a1 & 0xffffffffffffffe0\n 39125: sp = a1\n 39127: a5 = u64 [0x20120]\n 39132: a5 = a5 + t2\n 39135: a2 = a5 <u t2\n 39138: a0 = a3 + a2\n 39141: a0 = a0 + 0xffffffffffffffff\n 39144: ra = a0 ^ a3\n 39147: a4 = a0 <u a3\n 39150: a4 = a2 if ra == 0\n 39153: a2 = t1 + 0xffffffffffffffff\n 39156: a4 = a4 + a2\n 39159: ra = a4 <u a2\n 39162: a2 = t1 <u 0x1\n 39165: a2 = t0 - a2\n 39168: a2 = a2 + ra\n 39171: u64 [a1 + 0x8] = a0\n 39174: u64 [a1] = a5\n 39176: u64 [a1 + 0x10] = a4\n 39179: u64 [a1 + 0x18] = a2\n 39182: a0 = u64 [s1 + 0x98]\n 39186: jump @1475 if a0 == 0\n      : @1465 (gas: 7)\n 39190: a0 = u64 [0x20128]\n 39195: u64 [s1 + 0x98] = a0\n 39199: a0 = t2 <u a0\n 39202: a0 = 0 if a3 != 0\n 39204: a2 = t1 | t0\n 39207: a0 = 0 if a2 != 0\n 39209: jump @1497 if a0 != 0\n      : @1466 (gas: 2)\n 39213: a0 = u64 [s1 + 0xa0]\n 39217: ra = 1556, jump @28\n      : @1467 [@dyn 778] (gas: 22)\n 39224: a0 = sp + 0xffffffffffffffe0\n 39227: a1 = a0 & 0xffffffffffffffe0\n 39230: sp = a1\n 39232: a2 = u64 [s1 + 0x70]\n 39235: a0 = a2 + 0x2\n 39238: a4 = a0 <u a2\n 39241: a3 = u64 [s1 + 0x78]\n 39244: a2 = a3 + a4\n 39247: a3 = a2 <u a3\n 39250: a3 = a4 if a4 == 0\n 39253: a4 = u64 [s1 + 0x80]\n 39257: a3 = a3 + a4\n 39260: a5 = a3 <u a4\n 39263: a4 = u64 [s1 + 0x88]\n 39267: a4 = a4 + a5\n 39270: u64 [a1 + 0x10] = a3\n 39273: u64 [a1 + 0x8] = a2\n 39276: u64 [a1] = a0\n 39278: u64 [a1 + 0x18] = a4\n 39281: a0 = s1 + 0x3e0\n 39285: u64 [s1 + 0xa0] = a1\n 39289: ra = 1558, jump @26\n      : @1468 [@dyn 779] (gas: 28)\n 39296: t0 = u64 [s1 + 0x3f8]\n 39300: t1 = u64 [s1 + 0x3f0]\n 39304: a3 = u64 [s1 + 0x3e8]\n 39308: a4 = u64 [s1 + 0x3e0]\n 39312: a1 = sp + 0xffffffffffffffe0\n 39315: a1 = a1 & 0xffffffffffffffe0\n 39318: sp = a1\n 39320: t2 = u64 [s1 + 0x98]\n 39324: t2 = t2 + a4\n 39327: a0 = t2 <u a4\n 39330: a2 = a3 + a0\n 39333: a5 = a2 <u a3\n 39336: a5 = a0 if a0 == 0\n 39339: a5 = a5 + t1\n 39342: a0 = a5 <u t1\n 39345: u64 [a1 + 0x10] = a5\n 39348: a5 = u64 [0x20130]\n 39353: a0 = a0 + t0\n 39356: u64 [a1 + 0x8] = a2\n 39359: u64 [a1] = t2\n 39361: a2 = a5 <u a4\n 39364: a3 = a3 + 0x1\n 39367: a2 = 0 if a3 != 0\n 39369: a3 = t1 & t0\n 39372: a3 = a3 + 0x1\n 39375: a2 = 0 if a3 != 0\n 39377: u64 [a1 + 0x18] = a0\n 39380: jump @1499 if a2 != 0\n      : @1469 (gas: 2)\n 39384: a0 = u64 [s1 + 0xa0]\n 39388: ra = 1560, jump @28\n      : @1470 [@dyn 780] (gas: 3)\n 39395: a0 = s1 + 0x3c0\n 39399: a1 = 0x40\n 39402: ra = 1562, jump @22\n      : @1471 [@dyn 781] (gas: 6)\n 39409: a4 = s1 + 0x300\n 39413: a0 = u64 [a4 + 0xd8]\n 39417: a1 = u64 [a4 + 0xd0]\n 39421: a2 = u64 [a4 + 0xc8]\n 39425: a3 = u64 [a4 + 0xc0]\n 39429: t0 = 1564, jump @1533\n      : @1472 [@dyn 782] (gas: 1)\n 39435: jump @1489 if a0 != 0\n      : @1473 (gas: 9)\n 39439: u64 [s1 + 952] = 0\n 39443: u64 [s1 + 944] = 0\n 39447: u64 [s1 + 936] = 0\n 39451: a1 = s1 + 0x3a0\n 39455: a0 = u64 [s1 + 0x98]\n 39459: u64 [s1 + 0x3a0] = a0\n 39463: a0 = a3\n 39465: u64 [s1 + 0xb8] = a3\n 39469: ra = 1566, jump @24\n      : @1474 [@dyn 783] (gas: 33)\n 39476: u64 [s1 + 824] = 0\n 39480: u64 [s1 + 816] = 0\n 39484: u64 [s1 + 808] = 0\n 39488: a0 = u64 [s1 + 0x30]\n 39491: u64 [s1 + 0x320] = a0\n 39495: u64 [s1 + 856] = 0\n 39499: u64 [s1 + 848] = 0\n 39503: u64 [s1 + 840] = 0\n 39507: a0 = u64 [s1 + 0x90]\n 39511: u64 [s1 + 0x340] = a0\n 39515: u64 [s1 + 888] = 0\n 39519: a0 = u64 [s1 + 0xa8]\n 39523: u64 [s1 + 0x370] = a0\n 39527: a0 = u64 [s1 + 0x38]\n 39530: u64 [s1 + 0x368] = a0\n 39534: a0 = u64 [0x20138]\n 39539: a1 = u64 [0x20140]\n 39544: a2 = u64 [0x20148]\n 39549: a3 = u64 [s1 + 0x40]\n 39552: u64 [s1 + 0x360] = a3\n 39556: u64 [s1 + 0x398] = a0\n 39560: u64 [s1 + 0x390] = a1\n 39564: u64 [s1 + 0x388] = a2\n 39568: a0 = u64 [0x20150]\n 39573: a1 = 0x20\n 39576: a2 = s1 + 0x380\n 39580: a3 = s1 + 0x360\n 39584: a4 = s1 + 0x340\n 39588: a5 = s1 + 0x320\n 39592: u64 [s1 + 0x380] = a0\n 39596: a0 = u64 [s1 + 0xb8]\n 39600: ra = 0x630\n 39604: jump @34\n      : @1475 (gas: 7)\n 39608: a0 = u64 [0x20128]\n 39613: u64 [s1 + 0x98] = a0\n 39617: a0 = t2 <u a0\n 39620: a0 = 0 if a3 != 0\n 39622: a2 = t1 | t0\n 39625: a0 = 0 if a2 != 0\n 39627: jump @1501 if a0 != 0\n      : @1476 (gas: 2)\n 39631: a0 = u64 [s1 + 0xa0]\n 39635: ra = 1568, jump @28\n      : @1477 [@dyn 784] (gas: 7)\n 39642: u64 [s1 + 1624] = 0\n 39646: u64 [s1 + 1616] = 0\n 39650: u64 [s1 + 1608] = 0\n 39654: u64 [s1 + 1600] = 0\n 39658: a0 = s1 + 0x280\n 39662: a1 = s1 + 0x640\n 39666: ra = 1570, jump @26\n      : @1478 [@dyn 785] (gas: 28)\n 39673: t0 = u64 [s1 + 0x298]\n 39677: t1 = u64 [s1 + 0x290]\n 39681: a3 = u64 [s1 + 0x288]\n 39685: a4 = u64 [s1 + 0x280]\n 39689: a1 = sp + 0xffffffffffffffe0\n 39692: a1 = a1 & 0xffffffffffffffe0\n 39695: sp = a1\n 39697: t2 = u64 [s1 + 0x98]\n 39701: t2 = t2 + a4\n 39704: a0 = t2 <u a4\n 39707: a2 = a3 + a0\n 39710: a5 = a2 <u a3\n 39713: a5 = a0 if a0 == 0\n 39716: a5 = a5 + t1\n 39719: a0 = a5 <u t1\n 39722: u64 [a1 + 0x10] = a5\n 39725: a5 = u64 [0x20130]\n 39730: a0 = a0 + t0\n 39733: u64 [a1 + 0x8] = a2\n 39736: u64 [a1] = t2\n 39738: a2 = a5 <u a4\n 39741: a3 = a3 + 0x1\n 39744: a2 = 0 if a3 != 0\n 39746: a3 = t1 & t0\n 39749: a3 = a3 + 0x1\n 39752: a2 = 0 if a3 != 0\n 39754: u64 [a1 + 0x18] = a0\n 39757: jump @1503 if a2 != 0\n      : @1479 (gas: 6)\n 39761: u64 [s1 + 1656] = 0\n 39765: u64 [s1 + 1648] = 0\n 39769: u64 [s1 + 1640] = 0\n 39773: u64 [s1 + 1632] = 0\n 39777: a0 = s1 + 0x660\n 39781: ra = 1572, jump @28\n      : @1480 [@dyn 786] (gas: 1)\n 39788: ra = 1574, jump @15\n      : @1481 [@dyn 787] (gas: 59)\n 39795: a1 = u64 [0x301b0]\n 39800: u64 [s1 + 0xa0] = a1\n 39804: a1 = u64 [0x301c0]\n 39809: u64 [s1 + 0x88] = a1\n 39813: a0 = u64 [0x301b8]\n 39818: u64 [s1 + 0x80] = a0\n 39822: ecalli 10 // 'ref_time_left'\n 39824: a1 = u64 [s1 + 0x80]\n 39828: a1 = reverse a1\n 39830: a2 = a1 << 0x20\n 39833: a3 = u64 [s1 + 0x88]\n 39837: a3 = reverse a3\n 39839: a3 = a3 >> 0x20\n 39842: a2 = a2 | a3\n 39845: a1 = a1 >> 0x20\n 39848: a3 = u64 [s1 + 0xa0]\n 39852: a3 = reverse a3\n 39854: a4 = 0x30190\n 39859: a5 = a3 << 0x20\n 39862: a1 = a1 | a5\n 39865: a3 = a3 >> 0x20\n 39868: u32 [0x301a0] = a3\n 39873: u64 [0x30198] = a1\n 39878: u64 [0x30190] = a2\n 39883: u64 [s1 + 1688] = 0\n 39887: u64 [s1 + 1680] = 0\n 39891: u64 [s1 + 1672] = 0\n 39895: a1 = u64 [s1 + 0x98]\n 39899: a2 = s1 + 0x600\n 39903: u64 [a2 + 0x80] = a1\n 39907: u32 [s1 + 1696] = 0\n 39911: a0 = a0 >u 0x8fc\n 39915: a1 = -a0\n 39917: u64 [a2 + 0xd8] = a1\n 39921: u64 [a2 + 0xd0] = a1\n 39925: u64 [a2 + 0xc8] = a1\n 39929: u64 [a2 + 0xc0] = a1\n 39933: a4 = a4 << 0x20\n 39936: a4 = a4 >> 0x20\n 39939: a0 = a0 << 0x23\n 39942: a0 = a0 | a4\n 39945: a1 = s1 + 0x680\n 39949: a1 = a1 << 0x20\n 39952: a1 = a1 >> 0x20\n 39955: a2 = s1 + 0x6c0\n 39959: a2 = a2 << 0x20\n 39962: a3 = a2 | a1\n 39965: a4 = u64 [s1 + 0x50]\n 39968: a4 = a4 << 0x20\n 39971: a4 = a4 >> 0x20\n 39974: a1 = s1 + 0x6a0\n 39978: a1 = a1 << 0x20\n 39981: a5 = a1 | a4\n 39984: a1 = 0xffffffffffffffff\n 39987: a2 = 0xffffffffffffffff\n 39990: ecalli 0 // 'call'\n 39991: u64 [s1 + 0xa0] = a0\n 39995: a0 = s1 + 0x260\n 39999: ra = 1576, jump @1370\n      : @1482 [@dyn 788] (gas: 2)\n 40005: a0 = u64 [s1 + 0xa0]\n 40009: jump @1508 if a0 != 0\n      : @1483 (gas: 3)\n 40013: a0 = s1 + 0x220\n 40017: a1 = 0x40\n 40020: ra = 1578, jump @22\n      : @1484 [@dyn 789] (gas: 6)\n 40027: a4 = s1 + 0x200\n 40031: a0 = u64 [a4 + 0x38]\n 40034: a1 = u64 [a4 + 0x30]\n 40037: a2 = u64 [a4 + 0x28]\n 40040: a3 = u64 [a4 + 0x20]\n 40043: t0 = 1580, jump @1533\n      : @1485 [@dyn 790] (gas: 1)\n 40049: jump @1489 if a0 != 0\n      : @1486 (gas: 9)\n 40053: u64 [s1 + 536] = 0\n 40057: u64 [s1 + 528] = 0\n 40061: u64 [s1 + 520] = 0\n 40065: a1 = s1 + 0x200\n 40069: a0 = u64 [s1 + 0x98]\n 40073: u64 [s1 + 0x200] = a0\n 40077: a0 = a3\n 40079: u64 [s1 + 0xb8] = a3\n 40083: ra = 1582, jump @24\n      : @1487 [@dyn 791] (gas: 32)\n 40090: u64 [s1 + 408] = 0\n 40094: u64 [s1 + 400] = 0\n 40098: u64 [s1 + 392] = 0\n 40102: a0 = u64 [s1 + 0x30]\n 40105: u64 [s1 + 0x180] = a0\n 40109: u64 [s1 + 440] = 0\n 40113: u64 [s1 + 432] = 0\n 40117: u64 [s1 + 424] = 0\n 40121: a0 = u64 [s1 + 0x90]\n 40125: u64 [s1 + 0x1a0] = a0\n 40129: u64 [s1 + 472] = 0\n 40133: a0 = u64 [s1 + 0xa8]\n 40137: u64 [s1 + 0x1d0] = a0\n 40141: a0 = u64 [s1 + 0x38]\n 40144: u64 [s1 + 0x1c8] = a0\n 40148: a0 = u64 [0x20158]\n 40153: a1 = u64 [0x20160]\n 40158: a2 = u64 [0x20168]\n 40163: a3 = u64 [s1 + 0x40]\n 40166: u64 [s1 + 0x1c0] = a3\n 40170: u64 [s1 + 0x1f8] = a0\n 40174: u64 [s1 + 0x1f0] = a1\n 40178: u64 [s1 + 0x1e8] = a2\n 40182: a0 = u64 [0x20170]\n 40187: a1 = 0x20\n 40190: a2 = s1 + 0x1e0\n 40194: a3 = s1 + 0x1c0\n 40198: a4 = s1 + 0x1a0\n 40202: a5 = s1 + 0x180\n 40206: u64 [s1 + 0x1e0] = a0\n 40210: a0 = u64 [s1 + 0xb8]\n 40214: ra = 1584, jump @34\n      : @1488 [@dyn 792] (gas: 7)\n 40221: sp = s0 + 0xfffffffffffff900\n 40225: a0 = sp + 0x600\n 40229: ra = u64 [a0 + 0xf8]\n 40233: s0 = u64 [a0 + 0xf0]\n 40237: s1 = u64 [a0 + 0xe8]\n 40241: sp = sp + 0x700\n 40245: ret\n      : @1489 (gas: 1)\n 40247: trap\n      : @1490 (gas: 8)\n 40248: u64 [s1 + 1552] = 0\n 40252: u64 [s1 + 1544] = 0\n 40256: u64 [s1 + 1536] = 0\n 40260: a0 = 0xcf114bd900000000\n 40270: a1 = s1 + 0x600\n 40274: u64 [s1 + 0x618] = a0\n 40278: a0 = 0\n 40280: ra = 1586, jump @24\n      : @1491 [@dyn 793] (gas: 2)\n 40287: a1 = i32 [0x20180]\n 40292: jump @1493 if a1 >u 31\n      : @1492 (gas: 2)\n 40296: u32 [0x20180] = 0x20\n 40302: fallthrough\n      : @1493 (gas: 6)\n 40303: a1 = 0x20190\n 40308: i32 a1 = a1 + 0\n 40310: a0 = 0x1\n 40313: a2 = 0x4\n 40316: ecalli 13 // 'seal_return'\n 40318: fallthrough\n      : @1494 (gas: 9)\n 40319: u64 [s1 + 208] = 0\n 40323: u64 [s1 + 200] = 0\n 40327: u64 [s1 + 192] = 0\n 40331: a0 = 0xa7a9536d00000000\n 40341: a1 = s1 + 0xc0\n 40345: u64 [s1 + 0xd8] = a0\n 40349: a0 = 0\n 40351: ra = 0x63e\n 40355: jump @24\n      : @1495 (gas: 9)\n 40359: u64 [s1 + 240] = 0\n 40363: u64 [s1 + 232] = 0\n 40367: u64 [s1 + 224] = 0\n 40371: a0 = 0xafa4e2b600000000\n 40381: a1 = s1 + 0xe0\n 40385: u64 [s1 + 0xf8] = a0\n 40389: a0 = 0\n 40391: ra = 0x63e\n 40395: jump @24\n      : @1496 (gas: 9)\n 40399: u64 [s1 + 1136] = 0\n 40403: u64 [s1 + 1128] = 0\n 40407: u64 [s1 + 1120] = 0\n 40411: a0 = 0x560ff90000000000\n 40421: a1 = s1 + 0x460\n 40425: u64 [s1 + 0x478] = a0\n 40429: a0 = 0\n 40431: ra = 0x63e\n 40435: jump @24\n      : @1497 (gas: 8)\n 40439: u64 [s1 + 720] = 0\n 40443: u64 [s1 + 712] = 0\n 40447: u64 [s1 + 704] = 0\n 40451: a0 = 0x4e487b7100000000\n 40461: a1 = s1 + 0x2c0\n 40465: u64 [s1 + 0x2d8] = a0\n 40469: a0 = 0\n 40471: ra = 1588, jump @24\n      : @1498 [@dyn 794] (gas: 8)\n 40478: u64 [s1 + 696] = 0\n 40482: u64 [s1 + 688] = 0\n 40486: u64 [s1 + 672] = 0x11\n 40491: a0 = 0x4\n 40494: a1 = s1 + 0x2a0\n 40498: u64 [s1 + 680] = 0\n 40502: ra = 0x63c\n 40506: jump @24\n      : @1499 (gas: 8)\n 40510: u64 [s1 + 784] = 0\n 40514: u64 [s1 + 776] = 0\n 40518: u64 [s1 + 768] = 0\n 40522: a0 = 0x4e487b7100000000\n 40532: a1 = s1 + 0x300\n 40536: u64 [s1 + 0x318] = a0\n 40540: a0 = 0\n 40542: ra = 1590, jump @24\n      : @1500 [@dyn 795] (gas: 8)\n 40549: u64 [s1 + 760] = 0\n 40553: u64 [s1 + 752] = 0\n 40557: u64 [s1 + 736] = 0x11\n 40562: a0 = 0x4\n 40565: a1 = s1 + 0x2e0\n 40569: u64 [s1 + 744] = 0\n 40573: ra = 0x63c\n 40577: jump @24\n      : @1501 (gas: 8)\n 40581: u64 [s1 + 304] = 0\n 40585: u64 [s1 + 296] = 0\n 40589: u64 [s1 + 288] = 0\n 40593: a0 = 0x4e487b7100000000\n 40603: a1 = s1 + 0x120\n 40607: u64 [s1 + 0x138] = a0\n 40611: a0 = 0\n 40613: ra = 1592, jump @24\n      : @1502 [@dyn 796] (gas: 8)\n 40620: u64 [s1 + 280] = 0\n 40624: u64 [s1 + 272] = 0\n 40628: u64 [s1 + 256] = 0x11\n 40633: a0 = 0x4\n 40636: a1 = s1 + 0x100\n 40640: u64 [s1 + 264] = 0\n 40644: ra = 0x63c\n 40648: jump @24\n      : @1503 (gas: 8)\n 40652: u64 [s1 + 368] = 0\n 40656: u64 [s1 + 360] = 0\n 40660: u64 [s1 + 352] = 0\n 40664: a0 = 0x4e487b7100000000\n 40674: a1 = s1 + 0x160\n 40678: u64 [s1 + 0x178] = a0\n 40682: a0 = 0\n 40684: ra = 1594, jump @24\n      : @1504 [@dyn 797] (gas: 7)\n 40691: u64 [s1 + 344] = 0\n 40695: u64 [s1 + 336] = 0\n 40699: u64 [s1 + 320] = 0x11\n 40704: a0 = 0x4\n 40707: a1 = s1 + 0x140\n 40711: u64 [s1 + 328] = 0\n 40715: ra = 1596, jump @24\n      : @1505 [@dyn 798] (gas: 3)\n 40722: a0 = u64 [s1 + 0xb0]\n 40726: a0 = i32 [a0]\n 40728: jump @1507 if a0 >u 63\n      : @1506 (gas: 5)\n 40732: a1 = u64 [s1 + 0xb0]\n 40736: u32 [a1 + 0] = 0x40\n 40739: a0 = 0x1\n 40742: a2 = 0x24\n 40745: jump @1512\n      : @1507 (gas: 7)\n 40747: a0 = 0x1\n 40750: a2 = 0x24\n 40753: a1 = u64 [s1 + 0xb8]\n 40757: ecalli 13 // 'seal_return'\n 40759: a0 = 0\n 40761: ra = 0x640\n 40765: jump @43\n      : @1508 (gas: 8)\n 40769: u64 [s1 + 592] = 0\n 40773: u64 [s1 + 584] = 0\n 40777: u64 [s1 + 576] = 0\n 40781: a0 = 0x90b8ec1800000000\n 40791: a1 = s1 + 0x240\n 40795: u64 [s1 + 0x258] = a0\n 40799: a0 = 0\n 40801: ra = 1598, jump @24\n      : @1509 [@dyn 799] (gas: 3)\n 40808: a0 = u64 [s1 + 0xb0]\n 40812: a0 = i32 [a0]\n 40814: jump @1511 if a0 >u 31\n      : @1510 (gas: 5)\n 40818: a1 = u64 [s1 + 0xb0]\n 40822: u32 [a1 + 0] = 0x20\n 40825: a0 = 0x1\n 40828: a2 = 0x4\n 40831: jump @1512\n      : @1511 (gas: 7)\n 40833: a0 = 0x1\n 40836: a2 = 0x4\n 40839: a1 = u64 [s1 + 0xb8]\n 40843: ecalli 13 // 'seal_return'\n 40845: a0 = 0\n 40847: ra = 0x640\n 40851: jump @43\n      : @1512 (gas: 5)\n 40855: a1 = u64 [s1 + 0xb8]\n 40859: ecalli 13 // 'seal_return'\n 40861: a0 = 0\n 40863: ra = 0x640\n 40867: jump @43\n      : @1513 [export #0: 'call'] (gas: 2)\n 40871: a0 = 0\n 40873: ra = 1600, jump @43\n      : @1514 [@dyn 800] [export #1: 'deploy'] (gas: 2)\n 40880: a0 = 0x1\n 40883: ra = 1602, jump @43\n      : @1515 [@dyn 801] (gas: 15)\n 40890: a0 = u64 [a2 + 0x8]\n 40893: a1 = i32 [a2 + 0x10]\n 40896: a2 = u64 [a2]\n 40898: a0 = reverse a0\n 40900: a3 = a0 << 0x20\n 40903: a1 = reverse a1\n 40905: a1 = a1 >> 0x20\n 40908: a3 = a3 | a1\n 40911: a0 = a0 >> 0x20\n 40914: a1 = reverse a2\n 40916: a2 = a1 << 0x20\n 40919: a0 = a0 | a2\n 40922: a1 = a1 >> 0x20\n 40925: a2 = s1 + 0x1918\n 40929: jump [t0]\n      : @1516 (gas: 15)\n 40931: a0 = u64 [a2 + 0x8]\n 40934: a1 = i32 [a2 + 0x10]\n 40937: a2 = u64 [a2]\n 40939: a0 = reverse a0\n 40941: a3 = a0 << 0x20\n 40944: a1 = reverse a1\n 40946: a1 = a1 >> 0x20\n 40949: a3 = a3 | a1\n 40952: a0 = a0 >> 0x20\n 40955: a1 = reverse a2\n 40957: a2 = a1 << 0x20\n 40960: a0 = a0 | a2\n 40963: a1 = a1 >> 0x20\n 40966: a2 = s1 + 0x1118\n 40970: jump [t0]\n      : @1517 (gas: 21)\n 40972: a3 = u64 [s1 + 0x168]\n 40976: a0 = u64 [a3 + 0x18]\n 40979: a1 = u64 [a3 + 0x10]\n 40982: a2 = u64 [a3 + 0x8]\n 40985: a3 = u64 [a3]\n 40987: a0 = reverse a0\n 40989: u64 [s1 + 0x160] = a0\n 40993: a0 = reverse a1\n 40995: u64 [s1 + 0x158] = a0\n 40999: a0 = reverse a2\n 41001: u64 [s1 + 0x150] = a0\n 41005: a0 = reverse a3\n 41007: u64 [s1 + 0x148] = a0\n 41011: a0 = sp + 0xffffffffffffffe0\n 41014: a0 = a0 & 0xffffffffffffffe0\n 41017: u64 [s1 + 0x168] = a0\n 41021: sp = a0\n 41023: a2 = s1 + 0x7ff\n 41027: a2 = a2 + 0x111\n 41031: a0 = u64 [s1 + 0x198]\n 41035: jump [t0]\n      : @1518 (gas: 27)\n 41037: u64 [s1 + 0x168] = a0\n 41041: a0 = ra - a3\n 41044: a0 = a0 <u a5\n 41047: a1 = ra <u a3\n 41050: a5 = u64 [s1 + 0x138]\n 41054: a4 = ra - a5\n 41057: a4 = a4 - a1\n 41060: a4 = a4 - a0\n 41063: ra = a4 >>a 0x3f\n 41066: a0 = u64 [s1 + 0x130]\n 41070: a0 = ra & a0\n 41073: a1 = u64 [s1 + 0x140]\n 41077: t2 = a1 - a0\n 41080: a1 = a1 <u a0\n 41083: t1 = a2 - a1\n 41086: a1 = 0 if a2 != 0\n 41088: a0 = a3 - a1\n 41091: u64 [s1 + 0x148] = a0\n 41095: a1 = a3 <u a1\n 41098: a1 = a5 - a1\n 41101: a0 = s1 + 0x100\n 41105: a3 = u64 [a0 + 0x98]\n 41109: a5 = u64 [a0 + 0x90]\n 41113: a2 = a3 | a5\n 41116: a2 = a2 <u 0x1\n 41119: a4 = u64 [a0 + 0x80]\n 41123: jump [t0]\n      : @1519 (gas: 8)\n 41125: a0 = u64 [a2 + 0x8]\n 41128: a1 = i32 [a2 + 0x10]\n 41131: a2 = u64 [a2]\n 41133: a3 = reverse a0\n 41135: a0 = a3 << 0x20\n 41138: a1 = reverse a1\n 41140: a1 = a1 >> 0x20\n 41143: jump [t0]\n      : @1520 (gas: 24)\n 41145: a0 = a1 if a2 == 0\n 41148: a2 = u64 [s1 + 0x150]\n 41152: a3 = a2\n 41154: a1 = a2\n 41156: a2 = u64 [s1 + 0x160]\n 41160: a3 = a0 if a2 != 0\n 41163: u64 [s1 + 0x168] = a3\n 41167: a0 = u64 [s1 + 0x148]\n 41171: a3 = u64 [s1 + 0x130]\n 41175: a0 = a0 | a3\n 41178: a3 = u64 [s1 + 0x120]\n 41182: a0 = a3 if a5 == 0\n 41185: a4 = u64 [s1 + 0x158]\n 41189: a3 = a4\n 41191: a3 = a0 if a2 != 0\n 41194: u64 [s1 + 0x160] = a3\n 41198: a0 = u64 [s1 + 0x170]\n 41202: a0 = 0 if a5 == 0\n 41204: u64 [s1 + 0x170] = a0\n 41208: u64 [s1 + 304] = 0x15180\n 41215: a0 = u64 [s1 + 0x198]\n 41219: a2 = a0 + 0xffffffffffffff80\n 41222: a0 = a4\n 41224: jump [t0]\n      : @1521 (gas: 15)\n 41226: a0 = u64 [a2 + 0x8]\n 41229: a1 = i32 [a2 + 0x10]\n 41232: a2 = u64 [a2]\n 41234: a0 = reverse a0\n 41236: a3 = a0 << 0x20\n 41239: a1 = reverse a1\n 41241: a1 = a1 >> 0x20\n 41244: a3 = a3 | a1\n 41247: a0 = a0 >> 0x20\n 41250: a1 = reverse a2\n 41252: a2 = a1 << 0x20\n 41255: a0 = a0 | a2\n 41258: a1 = a1 >> 0x20\n 41261: a2 = s1 + 0x2118\n 41265: jump [t0]\n      : @1522 (gas: 13)\n 41267: a0 = u64 [a3 + 0x18]\n 41270: a1 = u64 [a3 + 0x10]\n 41273: a2 = u64 [a3 + 0x8]\n 41276: a3 = u64 [a3]\n 41278: a0 = reverse a0\n 41280: u64 [s1 + 0x168] = a0\n 41284: a0 = reverse a1\n 41286: u64 [s1 + 0x160] = a0\n 41290: a0 = reverse a2\n 41292: u64 [s1 + 0x158] = a0\n 41296: a0 = reverse a3\n 41298: u64 [s1 + 0x150] = a0\n 41302: jump [t0]\n      : @1523 (gas: 8)\n 41304: a0 = sp + 0xffffffffffffffe0\n 41307: a0 = a0 & 0xffffffffffffffe0\n 41310: u64 [s1 + 0x190] = a0\n 41314: sp = a0\n 41316: i32 a2 = a0 + 0\n 41318: a1 = 0x40\n 41321: a0 = u64 [s1 + 0x110]\n 41325: jump [t0]\n      : @1524 (gas: 18)\n 41327: a1 = a2 + 0x1\n 41330: u64 [s1 + 0x198] = a1\n 41334: a0 = a1 <u 0x1\n 41337: a0 = a0 + a3\n 41340: u64 [s1 + 0x190] = a0\n 41344: a0 = a0 | a1\n 41347: a0 = a0 <u 0x1\n 41350: a0 = a0 + t1\n 41353: u64 [s1 + 0x180] = a0\n 41357: a0 = a0 <u t1\n 41360: a0 = a0 + ra\n 41363: u64 [s1 + 0x188] = a0\n 41367: a1 = 0xff - a2\n 41371: u64 [s1 + 0x160] = a1\n 41375: a2 = 0x80 - a1\n 41379: a0 = u64 [s1 + 0x140]\n 41383: a1 = u64 [s1 + 0x138]\n 41387: jump [t0]\n      : @1525 (gas: 10)\n 41389: a0 = u64 [a3 + 0x18]\n 41392: a1 = u64 [a3 + 0x10]\n 41395: a2 = u64 [a3 + 0x8]\n 41398: a3 = u64 [a3]\n 41400: a0 = reverse a0\n 41402: a1 = reverse a1\n 41404: a2 = reverse a2\n 41406: a3 = reverse a3\n 41408: a4 = s1 + 0x2938\n 41412: jump [t0]\n      : @1526 (gas: 9)\n 41414: a0 = u64 [a3 + 0x18]\n 41417: a1 = u64 [a3 + 0x10]\n 41420: a2 = u64 [a3 + 0x8]\n 41423: a3 = u64 [a3]\n 41425: a0 = reverse a0\n 41427: a4 = reverse a1\n 41429: a2 = reverse a2\n 41431: a3 = reverse a3\n 41433: jump [t0]\n      : @1527 (gas: 18)\n 41435: a3 = u64 [s1 + 0x168]\n 41439: a0 = u64 [a3 + 0x18]\n 41442: a1 = u64 [a3 + 0x10]\n 41445: a2 = u64 [a3 + 0x8]\n 41448: a3 = u64 [a3]\n 41450: a0 = reverse a0\n 41452: u64 [s1 + 0x160] = a0\n 41456: a0 = reverse a1\n 41458: u64 [s1 + 0x158] = a0\n 41462: a0 = reverse a2\n 41464: u64 [s1 + 0x150] = a0\n 41468: a0 = reverse a3\n 41470: u64 [s1 + 0x148] = a0\n 41474: a0 = sp + 0xffffffffffffffe0\n 41477: a0 = a0 & 0xffffffffffffffe0\n 41480: u64 [s1 + 0x168] = a0\n 41484: sp = a0\n 41486: jump [t0]\n      : @1528 (gas: 8)\n 41488: a0 = sp + 0xffffffffffffffe0\n 41491: a0 = a0 & 0xffffffffffffffe0\n 41494: u64 [s1 + 0x168] = a0\n 41498: sp = a0\n 41500: i32 a2 = a0 + 0\n 41502: a1 = 0x40\n 41505: a0 = u64 [s1 + 0x178]\n 41509: jump [t0]\n      : @1529 (gas: 8)\n 41511: a3 = a4 <u a3\n 41514: a5 = a2 + a3\n 41517: a2 = a5 <u a2\n 41520: a2 = a3 if a3 == 0\n 41523: a2 = a2 + a1\n 41526: a1 = a2 <u a1\n 41529: a0 = a0 + a1\n 41532: jump [t0]\n      : @1530 (gas: 16)\n 41534: a3 = u64 [s1 + 0x190]\n 41538: a0 = u64 [a3 + 0x18]\n 41541: a1 = u64 [a3 + 0x10]\n 41544: a2 = u64 [a3 + 0x8]\n 41547: a3 = u64 [a3]\n 41549: a0 = reverse a0\n 41551: u64 [s1 + 0x190] = a0\n 41555: a0 = reverse a1\n 41557: u64 [s1 + 0x188] = a0\n 41561: a0 = reverse a2\n 41563: u64 [s1 + 0x180] = a0\n 41567: a0 = reverse a3\n 41569: u64 [s1 + 0x178] = a0\n 41573: a0 = 0x1918\n 41577: a2 = s1 + a0\n 41580: jump [t0]\n      : @1531 (gas: 8)\n 41582: u64 [sp + 48] = 0\n 41585: u64 [sp + 40] = 0\n 41588: u64 [sp + 32] = 0\n 41591: a0 = 0x4e487b7100000000\n 41601: a1 = sp + 0x20\n 41604: u64 [sp + 0x38] = a0\n 41607: a0 = 0\n 41609: jump [t0]\n      : @1532 (gas: 16)\n 41611: t2 = u64 [s1 + 0x140]\n 41615: t1 = u64 [s1 + 0x138]\n 41619: u64 [s1 + 344] = 0\n 41623: u64 [s1 + 336] = 0\n 41627: a4 = s1 + 0x100\n 41631: a2 = u64 [a4 + 0x28]\n 41634: a1 = 0 if a2 == 0\n 41636: a0 = 0 if a2 == 0\n 41638: u64 [a4 + 0x48] = a0\n 41641: a3 = u64 [a4 + 0x30]\n 41644: a2 = a3 + 0xffffffffffffffff\n 41647: u64 [a4 + 0x28] = a2\n 41650: a2 = a3 >u 0\n 41652: a2 = a2 + 0xffffffffffffffff\n 41655: u64 [a4 + 0x20] = a2\n 41658: jump [t0]\n      : @1533 (gas: 8)\n 41660: a0 = a0 | a2\n 41663: a2 = a3 | a1\n 41666: a2 = a2 | a0\n 41669: a2 = a2 >> 0x20\n 41672: a0 = a0 | a1\n 41675: a0 = a0 << 0x20\n 41678: a0 = a0 | a2\n 41681: jump [t0]\n      : @1534 (gas: 15)\n 41683: a0 = u64 [a3 + 0x18]\n 41686: a1 = u64 [a3 + 0x10]\n 41689: a2 = u64 [a3 + 0x8]\n 41692: a3 = u64 [a3]\n 41694: a0 = reverse a0\n 41696: u64 [s1 + 0x188] = a0\n 41700: a0 = reverse a1\n 41702: u64 [s1 + 0x180] = a0\n 41706: a0 = reverse a2\n 41708: u64 [s1 + 0x178] = a0\n 41712: a0 = reverse a3\n 41714: u64 [s1 + 0x170] = a0\n 41718: a0 = sp + 0xffffffffffffffe0\n 41721: a0 = a0 & 0xffffffffffffffe0\n 41724: jump [t0]\n      : @1535 (gas: 5)\n 41726: sp = a0\n 41728: i32 a2 = a0 + 0\n 41730: a1 = 0x40\n 41733: a0 = u64 [s1 + 0x190]\n 41737: jump [t0]\n      : @1536 (gas: 12)\n 41739: a1 = a0 <u a1\n 41742: a3 = u64 [s1 + 0x160]\n 41746: a2 = a3 + a1\n 41749: a3 = a2 <u a3\n 41752: a3 = a1 if a1 == 0\n 41755: a1 = u64 [s1 + 0x170]\n 41759: a3 = a3 + a1\n 41762: a1 = a3 <u a1\n 41765: a4 = u64 [s1 + 0x168]\n 41769: a1 = a1 + a4\n 41772: a4 = s1 + 0x2938\n 41776: jump [t0]\n      : @1537 (gas: 15)\n 41778: a0 = u64 [a2 + 0x8]\n 41781: a1 = i32 [a2 + 0x10]\n 41784: a2 = u64 [a2]\n 41786: a0 = reverse a0\n 41788: a3 = a0 << 0x20\n 41791: a1 = reverse a1\n 41793: a1 = a1 >> 0x20\n 41796: a3 = a3 | a1\n 41799: a0 = a0 >> 0x20\n 41802: a1 = reverse a2\n 41804: a2 = a1 << 0x20\n 41807: a0 = a0 | a2\n 41810: a1 = a1 >> 0x20\n 41813: a2 = s1 + 0x2938\n 41817: jump [t0]\n      : @1538 (gas: 18)\n 41819: a3 = u64 [s1 + 0xa0]\n 41823: a0 = u64 [a3 + 0x18]\n 41826: a1 = u64 [a3 + 0x10]\n 41829: a2 = u64 [a3 + 0x8]\n 41832: a3 = u64 [a3]\n 41834: a0 = reverse a0\n 41836: u64 [s1 + 0x98] = a0\n 41840: a0 = reverse a1\n 41842: u64 [s1 + 0x88] = a0\n 41846: a0 = reverse a2\n 41848: u64 [s1 + 0x80] = a0\n 41852: a0 = reverse a3\n 41854: u64 [s1 + 0x78] = a0\n 41857: a0 = sp + 0xffffffffffffffe0\n 41860: a0 = a0 & 0xffffffffffffffe0\n 41863: u64 [s1 + 0xa0] = a0\n 41867: sp = a0\n 41869: jump [t0]\n      : @1539 (gas: 13)\n 41871: a0 = u64 [a3 + 0x18]\n 41874: a1 = u64 [a3 + 0x10]\n 41877: a2 = u64 [a3 + 0x8]\n 41880: a3 = u64 [a3]\n 41882: a0 = reverse a0\n 41884: u64 [s1 + 0x178] = a0\n 41888: a0 = reverse a1\n 41890: u64 [s1 + 0x170] = a0\n 41894: a0 = reverse a2\n 41896: u64 [s1 + 0x168] = a0\n 41900: a0 = reverse a3\n 41902: u64 [s1 + 0x160] = a0\n 41906: jump [t0]\n      : @1540 (gas: 8)\n 41908: a0 = sp + 0xffffffffffffffe0\n 41911: a0 = a0 & 0xffffffffffffffe0\n 41914: u64 [s1 + 0x168] = a0\n 41918: sp = a0\n 41920: i32 a2 = a0 + 0\n 41922: a1 = 0x40\n 41925: a0 = u64 [s1 + 0x170]\n 41929: jump [t0]\n      : @1541 (gas: 15)\n 41931: a2 = u64 [s1 + 0x198]\n 41935: a0 = u64 [a2 + 0x8]\n 41938: a1 = i32 [a2 + 0x10]\n 41941: a2 = u64 [a2]\n 41943: a0 = reverse a0\n 41945: a3 = a0 << 0x20\n 41948: a1 = reverse a1\n 41950: a1 = a1 >> 0x20\n 41953: a3 = a3 | a1\n 41956: a0 = a0 >> 0x20\n 41959: a1 = reverse a2\n 41961: a2 = a1 << 0x20\n 41964: a0 = a0 | a2\n 41967: a1 = a1 >> 0x20\n 41970: jump [t0]\n      : @1542 (gas: 15)\n 41972: a3 = u64 [s1 + 0x160]\n 41976: a0 = u64 [a3 + 0x18]\n 41979: a1 = u64 [a3 + 0x10]\n 41982: a2 = u64 [a3 + 0x8]\n 41985: a3 = u64 [a3]\n 41987: a0 = reverse a0\n 41989: a4 = reverse a1\n 41991: a2 = reverse a2\n 41993: a3 = reverse a3\n 41995: a1 = u64 [s1 + 0x168]\n 41999: u64 [a1 + 0x18] = a3\n 42002: u64 [a1 + 0x10] = a2\n 42005: u64 [a1 + 0x8] = a4\n 42008: u64 [a1] = a0\n 42010: jump [t0]\n      : @1543 (gas: 12)\n 42012: a4 = 0\n 42014: a5 = 0\n 42016: a2 = u64 [s1 + 0x128]\n 42020: a1 = 0 if a2 == 0\n 42022: a0 = 0 if a2 == 0\n 42024: a3 = u64 [s1 + 0x138]\n 42028: a2 = a3 + 0xffffffffffffffff\n 42031: u64 [s1 + 0x130] = a2\n 42035: a2 = a3 >u 0\n 42037: a2 = a2 + 0xffffffffffffffff\n 42040: u64 [s1 + 0x128] = a2\n 42044: jump [t0]\n      : @1544 (gas: 11)\n 42046: a1 = u64 [s1 + 0x198]\n 42050: a2 = u64 [s1 + 0x150]\n 42054: u64 [a1 + 0x8] = a2\n 42057: a2 = u64 [s1 + 0x158]\n 42061: u64 [a1] = a2\n 42063: a2 = u64 [s1 + 0x170]\n 42067: u32 [a1 + 0x10] = a2\n 42070: a3 = a1\n 42072: a2 = s1 + 0x2938\n 42076: a1 = u64 [s1 + 0x180]\n 42080: jump [t0]\n      : @1545 (gas: 12)\n 42082: a2 = t2 >> 0x3f\n 42085: a3 = t1 << 0x1\n 42088: a2 = a2 | a3\n 42091: a3 = t2 << 0x1\n 42094: t2 = u64 [s1 + 0x168]\n 42098: a4 = t2 >> 0x3f\n 42101: a3 = a3 | a4\n 42104: u64 [s1 + 0x140] = a3\n 42108: ra = u64 [s1 + 0x120]\n 42112: a0 = t1\n 42114: t1 = ra ^ a2\n 42117: jump [t0]\n      : @1546 (gas: 12)\n 42119: a1 = a1 << 0x1\n 42122: a4 = u64 [s1 + 0x148]\n 42126: a3 = a4 >> 0x3f\n 42129: a1 = a1 | a3\n 42132: u64 [s1 + 0x138] = a1\n 42136: a3 = a0 >> 0x3f\n 42139: a0 = a4 << 0x1\n 42142: a3 = a3 | a0\n 42145: a0 = t2 << 0x1\n 42148: a4 = u64 [s1 + 0x160]\n 42152: a1 = a4 >> 0x3f\n 42155: jump [t0]\n      : @1547 (gas: 11)\n 42157: a2 = u64 [s1 + 0x128]\n 42161: a1 = a1 | a2\n 42164: a2 = u64 [s1 + 0x198]\n 42168: a3 = a2 <u 0x80\n 42172: u64 [s1 + 0x128] = a3\n 42176: a4 = u64 [s1 + 0x120]\n 42180: a1 = a4 if a3 == 0\n 42183: a4 = u64 [s1 + 0x138]\n 42187: a4 = a1 if a2 != 0\n 42190: u64 [s1 + 0x138] = a4\n 42194: jump [t0]\n      : @1548 (gas: 14)\n 42196: a0 = u64 [a3 + 0x18]\n 42199: a1 = u64 [a3 + 0x10]\n 42202: a2 = u64 [a3 + 0x8]\n 42205: a3 = u64 [a3]\n 42207: a0 = reverse a0\n 42209: a1 = reverse a1\n 42211: a2 = reverse a2\n 42213: a3 = reverse a3\n 42215: a4 = u64 [s1 + 0x198]\n 42219: u64 [a4 + 0x18] = a3\n 42222: u64 [a4 + 0x10] = a2\n 42225: u64 [a4 + 0x8] = a1\n 42228: u64 [a4] = a0\n 42230: jump [t0]\n      : @1549 (gas: 15)\n 42232: a3 = u64 [s1 + 0x98]\n 42236: a0 = u64 [a3 + 0x18]\n 42239: a1 = u64 [a3 + 0x10]\n 42242: a2 = u64 [a3 + 0x8]\n 42245: a3 = u64 [a3]\n 42247: a0 = reverse a0\n 42249: a4 = reverse a1\n 42251: a2 = reverse a2\n 42253: a3 = reverse a3\n 42255: a1 = u64 [s1 + 0xa0]\n 42259: u64 [a1 + 0x18] = a3\n 42262: u64 [a1 + 0x10] = a2\n 42265: u64 [a1 + 0x8] = a4\n 42268: u64 [a1] = a0\n 42270: jump [t0]\n      : @1550 (gas: 9)\n 42272: u64 [s1 + 0x160] = a3\n 42276: a1 = 0 if a4 == 0\n 42278: u64 [s1 + 0x168] = a1\n 42282: u64 [s1 + 312] = 0x15180\n 42289: a0 = u64 [s1 + 0x190]\n 42293: a2 = a0 + 0xffffffffffffff80\n 42296: a0 = a5\n 42298: a1 = t1\n 42300: jump [t0]\n      : @1551 (gas: 10)\n 42302: u64 [s1] = a3\n 42304: u64 [s1 + 0x8] = a2\n 42307: u64 [s1 + 0x10] = a1\n 42310: u64 [s1 + 0x18] = a0\n 42313: sp = s0 + 0xffffffffffffffc0\n 42316: ra = u64 [sp + 0x38]\n 42319: s0 = u64 [sp + 0x30]\n 42322: s1 = u64 [sp + 0x28]\n 42325: sp = sp + 0x40\n 42328: jump [t0]\n      : @1552 (gas: 5)\n 42330: a0 = sp + 0xffffffffffffffe0\n 42333: a2 = a0 & 0xffffffffffffffe0\n 42336: u64 [s1 + 0x198] = a2\n 42340: sp = a2\n 42342: jump [t0]\n      : @1553 (gas: 9)\n 42344: a0 = a0 | a1\n 42347: a1 = u64 [s1 + 0x148]\n 42351: a0 = a1 if a3 == 0\n 42354: a1 = u64 [s1 + 0x140]\n 42358: a1 = a0 if a2 != 0\n 42361: u64 [s1 + 0x140] = a1\n 42365: a0 = u64 [s1 + 0x158]\n 42369: a1 = u64 [s1 + 0x150]\n 42373: jump [t0]\n      : @1554 (gas: 16)\n 42375: a4 = u64 [a3]\n 42377: u64 [sp + 0x18] = a4\n 42380: a4 = u64 [a3 + 0x8]\n 42383: u64 [sp + 0x20] = a4\n 42386: a4 = u64 [a3 + 0x10]\n 42389: u64 [sp + 0x28] = a4\n 42392: a3 = u64 [a3 + 0x18]\n 42395: u64 [sp + 0x30] = a3\n 42398: s1 = u64 [a2]\n 42400: a3 = u64 [a2 + 0x8]\n 42403: u64 [sp] = a3\n 42405: a3 = u64 [a2 + 0x10]\n 42408: u64 [sp + 0x8] = a3\n 42411: a2 = u64 [a2 + 0x18]\n 42414: u64 [sp + 0x10] = a2\n 42417: jump [t0]\n      : @1555 (gas: 7)\n 42419: u64 [s1 + 0x110] = a0\n 42423: u64 [s1 + 0x128] = a1\n 42427: a1 = u64 [s1 + 0x190]\n 42431: a2 = 0x80 - a1\n 42435: a0 = u64 [s1 + 0x150]\n 42439: a1 = u64 [s1 + 0x140]\n 42443: jump [t0]\n      : @1556 (gas: 10)\n 42445: a3 = u64 [s1 + 0x190]\n 42449: a0 = u64 [a3]\n 42451: a1 = u64 [a3 + 0x8]\n 42454: a2 = u64 [a3 + 0x10]\n 42457: a3 = u64 [a3 + 0x18]\n 42460: a0 = reverse a0\n 42462: a1 = reverse a1\n 42464: a2 = reverse a2\n 42466: a3 = reverse a3\n 42468: jump [t0]\n      : @1557 (gas: 8)\n 42470: a0 = u64 [a4 + 0xb8]\n 42474: a1 = u64 [a4 + 0xc0]\n 42478: a2 = u64 [a4 + 0xb0]\n 42482: a3 = u64 [a4 + 0xa8]\n 42486: a1 = a1 | a2\n 42489: a0 = a0 | a3\n 42492: a0 = a0 | a1\n 42495: jump [t0]\n      : @1558 (gas: 4)\n 42497: a0 = 0x2938\n 42501: a3 = s1 + a0\n 42504: a4 = a3 + 0x600\n 42508: jump [t0]\n      : @1559 (gas: 8)\n 42510: a2 = u64 [s1 + 0x128]\n 42514: a1 = a1 | a2\n 42517: a3 = u64 [s1 + 0x190]\n 42521: a4 = a3 <u 0x80\n 42525: u64 [s1 + 0x128] = a4\n 42529: a2 = u64 [s1 + 0x118]\n 42533: a1 = a2 if a4 == 0\n 42536: jump [t0]\n      : @1560 (gas: 12)\n 42538: a0 = u64 [sp + 0x18]\n 42541: a1 = u64 [sp + 0x10]\n 42544: a2 = u64 [sp + 0x8]\n 42547: a3 = u64 [sp]\n 42549: a4 = a2 | a0\n 42552: a5 = a3 | a1\n 42555: a5 = a5 | a4\n 42558: a5 = a5 >> 0x20\n 42561: a4 = a4 | a1\n 42564: a4 = a4 << 0x20\n 42567: a4 = a4 | a5\n 42570: jump [t0]\n      : @1561 (gas: 9)\n 42572: u64 [a2 + 0xe8] = a0\n 42576: a0 = u64 [s1 + 0x150]\n 42580: u64 [a2 + 0xe0] = a0\n 42584: a0 = u64 [s1 + 0x158]\n 42588: u64 [a2 + 0xd8] = a0\n 42592: a3 = a1\n 42594: a0 = 0x20\n 42597: a1 = s1 + 0x7ff\n 42601: jump [t0]\n      : @1562 (gas: 5)\n 42603: sp = a0\n 42605: i32 a2 = a0 + 0\n 42607: a1 = 0x40\n 42610: a0 = u64 [s1 + 0xb8]\n 42614: jump [t0]\n      : @1563 (gas: 9)\n 42616: a0 = u64 [a3 + 0x18]\n 42619: a1 = u64 [a3 + 0x10]\n 42622: a2 = u64 [a3 + 0x8]\n 42625: a3 = u64 [a3]\n 42627: a0 = reverse a0\n 42629: a1 = reverse a1\n 42631: a2 = reverse a2\n 42633: a3 = reverse a3\n 42635: jump [t0]\n      : @1564 (gas: 5)\n 42637: a0 = sp + 0xffffffffffffffe0\n 42640: a0 = a0 & 0xffffffffffffffe0\n 42643: u64 [s1 + 0x198] = a0\n 42647: sp = a0\n 42649: jump [t0]\n      : @1565 (gas: 8)\n 42651: a0 = sp + 0xffffffffffffffe0\n 42654: a0 = a0 & 0xffffffffffffffe0\n 42657: u64 [s1 + 0x160] = a0\n 42661: sp = a0\n 42663: i32 a2 = a0 + 0\n 42665: a1 = 0x40\n 42668: a0 = u64 [s1 + 0x178]\n 42672: jump [t0]\n      : @1566 (gas: 8)\n 42674: a0 = sp + 0xffffffffffffffe0\n 42677: a0 = a0 & 0xffffffffffffffe0\n 42680: u64 [s1 + 0x160] = a0\n 42684: sp = a0\n 42686: i32 a2 = a0 + 0\n 42688: a1 = 0x40\n 42691: a0 = u64 [s1 + 0x170]\n 42695: jump [t0]\n      : @1567 (gas: 4)\n 42697: a0 = u64 [s1 + 0x198]\n 42701: a0 = i32 [a0]\n 42703: a1 = 0x23\n 42706: jump [t0]\n      : @1568 (gas: 8)\n 42708: a0 = u64 [s1 + 0x198]\n 42712: a2 = u64 [s1 + 0x128]\n 42716: a0 = a0 | a2\n 42719: a2 = u64 [s1 + 0x110]\n 42723: a0 = a2 if a4 == 0\n 42726: t1 = u64 [s1 + 0x140]\n 42730: a3 = t1\n 42732: jump [t0]\n      : @1569 (gas: 7)\n 42734: a0 = 0xffffffa0\n 42744: a2 = s1 + 0x100\n 42748: a1 = u64 [a2 + 0x98]\n 42752: a0 = a1 <u a0\n 42755: a1 = u64 [a2 + 0x90]\n 42759: a0 = 0 if a1 != 0\n 42761: jump [t0]\n      : @1570 (gas: 7)\n 42763: a4 = 0x100000000\n 42773: a0 = 0xffffffe0\n 42783: a0 = a1 <u a0\n 42786: a2 = u64 [a5 + 0x90]\n 42790: a0 = 0 if a2 != 0\n 42792: a0 = 0 if a3 != 0\n 42794: jump [t0]\n      : @1571 (gas: 4)\n 42796: a2 = a3 + a1\n 42799: a3 = a2 <u a3\n 42802: a3 = a1 if a1 == 0\n 42805: jump [t0]\n      : @1572 (gas: 6)\n 42807: u64 [s1 + 0x128] = a1\n 42811: a1 = u64 [s1 + 0x198]\n 42815: a2 = 0x80 - a1\n 42819: a0 = u64 [s1 + 0x158]\n 42823: a1 = u64 [s1 + 0x150]\n 42827: jump [t0]\n      : @1573 (gas: 7)\n 42829: u64 [s1 + 0x130] = a0\n 42833: u64 [s1 + 0x128] = a1\n 42837: a0 = u64 [s1 + 0x160]\n 42841: a2 = a0 + 0xffffffffffffff80\n 42844: a0 = u64 [s1 + 0x140]\n 42848: a1 = u64 [s1 + 0x138]\n 42852: jump [t0]\n      : @1574 (gas: 8)\n 42854: a1 = u64 [s1 + 0x198]\n 42858: a0 = i32 [a1 + 0x10]\n 42861: u64 [s1 + 0x170] = a0\n 42865: a0 = u64 [a1]\n 42867: u64 [s1 + 0x158] = a0\n 42871: a0 = u64 [a1 + 0x8]\n 42874: u64 [s1 + 0x150] = a0\n 42878: jump [t0]\n      : @1575 (gas: 9)\n 42880: a5 = s1 + 0x100\n 42884: u64 [a5 + 0x80] = a1\n 42888: u64 [a5 + 0x90] = a3\n 42892: a0 = a3 | a1\n 42895: u64 [a5 + 0x78] = a2\n 42898: u64 [a5 + 0x88] = a4\n 42902: a1 = a4 | a2\n 42905: a0 = a0 | a1\n 42908: jump [t0]\n      : @1576 (gas: 8)\n 42910: u64 [sp + 64] = 0\n 42913: u64 [sp + 56] = 0\n 42916: u64 [sp + 48] = 0\n 42919: a0 = 0x4e487b7100000000\n 42929: a1 = sp + 0x30\n 42932: u64 [sp + 0x48] = a0\n 42935: a0 = 0\n 42937: jump [t0]\n      : @1577 (gas: 10)\n 42939: sp = sp + 0xffffffffffffffc0\n 42942: u64 [sp + 0x38] = ra\n 42945: u64 [sp + 0x30] = s0\n 42948: u64 [sp + 0x28] = s1\n 42951: s0 = sp + 0x40\n 42954: sp = sp & 0xffffffffffffffe0\n 42957: s1 = a0\n 42959: i32 a0 = sp + 0\n 42961: a1 = 0x4\n 42964: jump [t0]\n      : @1578 (gas: 9)\n 42966: a0 = u64 [a2 + 0x8]\n 42969: a1 = i32 [a2 + 0x10]\n 42972: a2 = u64 [a2]\n 42974: a0 = reverse a0\n 42976: a3 = a0 << 0x20\n 42979: a1 = reverse a1\n 42981: a1 = a1 >> 0x20\n 42984: a1 = a1 | a3\n 42987: jump [t0]\n      : @1579 (gas: 6)\n 42989: sp = s0 + 0xffffffffffffffa0\n 42992: ra = u64 [sp + 0x58]\n 42995: s0 = u64 [sp + 0x50]\n 42998: s1 = u64 [sp + 0x48]\n 43001: sp = sp + 0x60\n 43004: jump [t0]\n      : @1580 (gas: 6)\n 43006: u64 [s1 + 0x148] = a0\n 43010: u64 [s1 + 0x168] = a1\n 43014: a0 = u64 [s1 + 0x158]\n 43018: a1 = u64 [s1 + 0x150]\n 43022: a2 = u64 [s1 + 0x160]\n 43026: jump [t0]\n      : @1581 (gas: 6)\n 43028: u64 [s1 + 0x148] = a0\n 43032: u64 [s1 + 0x120] = a1\n 43036: a0 = u64 [s1 + 0x140]\n 43040: a1 = u64 [s1 + 0x138]\n 43044: a2 = u64 [s1 + 0x198]\n 43048: jump [t0]\n      : @1582 (gas: 6)\n 43050: u64 [s1 + 0x160] = a0\n 43054: u64 [s1 + 0x198] = a1\n 43058: a0 = u64 [s1 + 0x150]\n 43062: a1 = u64 [s1 + 0x140]\n 43066: a2 = u64 [s1 + 0x168]\n 43070: jump [t0]\n      : @1583 (gas: 8)\n 43072: a0 = u64 [a4 + 0x38]\n 43075: a1 = u64 [a4 + 0x40]\n 43078: a2 = u64 [a4 + 0x30]\n 43081: a3 = u64 [a4 + 0x28]\n 43084: a1 = a1 | a2\n 43087: a0 = a0 | a3\n 43090: a0 = a0 | a1\n 43093: jump [t0]\n      : @1584 (gas: 8)\n 43095: a0 = u64 [a3 + 0x18]\n 43098: a1 = u64 [a3 + 0x10]\n 43101: a2 = u64 [a3 + 0x8]\n 43104: a3 = u64 [a3]\n 43106: a5 = reverse a0\n 43108: a4 = reverse a1\n 43110: a0 = reverse a2\n 43112: jump [t0]\n      : @1585 (gas: 8)\n 43114: a0 = u64 [a4 + 0xd8]\n 43118: a1 = u64 [a4 + 0xe0]\n 43122: a2 = u64 [a4 + 0xd0]\n 43126: a3 = u64 [a4 + 0xc8]\n 43130: a1 = a1 | a2\n 43133: a0 = a0 | a3\n 43136: a0 = a0 | a1\n 43139: jump [t0]\n      : @1586 (gas: 4)\n 43141: a0 = 0x2938\n 43145: a3 = s1 + a0\n 43148: a4 = a3 + 0x700\n 43152: jump [t0]\n      : @1587 (gas: 4)\n 43154: a0 = 0x2938\n 43158: a3 = s1 + a0\n 43161: a4 = a3 + 0x200\n 43165: jump [t0]\n      : @1588 (gas: 4)\n 43167: a0 = 0x2938\n 43171: a3 = s1 + a0\n 43174: a4 = a3 + 0x500\n 43178: jump [t0]\n      : @1589 (gas: 7)\n 43180: a1 = a1 | a2\n 43183: a1 = a1 | a0\n 43186: a1 = a1 >> 0x20\n 43189: a0 = a0 | a2\n 43192: a0 = a0 << 0x20\n 43195: a0 = a0 | a1\n 43198: jump [t0]\n      : @1590 (gas: 9)\n 43200: sp = sp + 0xffffffffffffffc0\n 43203: u64 [sp + 0x38] = ra\n 43206: u64 [sp + 0x30] = s0\n 43209: u64 [sp + 0x28] = s1\n 43212: s0 = sp + 0x40\n 43215: sp = sp & 0xffffffffffffffe0\n 43218: s1 = a0\n 43220: i32 a0 = sp + 0\n 43222: jump [t0]\n      : @1591 (gas: 10)\n 43224: a4 = s1 + 0x100\n 43228: u64 [a4 + 0x70] = a1\n 43231: a1 = u64 [a4 + 0x90]\n 43235: a2 = u64 [a4 + 0x88]\n 43239: a2 = a2 | a1\n 43242: a1 = u64 [a4 + 0x98]\n 43246: a3 = u64 [a4 + 0x80]\n 43250: a1 = a1 | a3\n 43253: a1 = a1 | a2\n 43256: jump [t0]\n      : @1592 (gas: 6)\n 43258: a3 = u64 [s1 + 0x190]\n 43262: ra = u64 [s1 + 0x180]\n 43266: a2 = a3 | ra\n 43269: a2 = a2 <u 0x1\n 43272: a4 = u64 [s1 + 0x170]\n 43276: jump [t0]\n      : @1593 (gas: 6)\n 43278: u64 [s1 + 0x118] = a0\n 43282: u64 [s1 + 0x110] = a1\n 43286: a2 = u64 [s1 + 0x168]\n 43290: a0 = a2 <u 0x80\n 43294: u64 [s1 + 0x138] = a0\n 43298: jump [t0]\n      : @1594 (gas: 2)\n 43300: a3 = a2 & 0x40\n 43303: jump @1598 if a3 != 0\n      : @1595 (gas: 1)\n 43306: jump @1597 if a2 == 0\n      : @1596 (gas: 6)\n 43309: i32 a3 = 0x40 - a2\n 43312: a3 = a1 << a3\n 43315: a1 = a1 >> a2\n 43318: a0 = a0 >> a2\n 43321: a0 = a0 | a3\n 43324: ret\n      : @1597 (gas: 1)\n 43326: ret\n      : @1598 (gas: 4)\n 43328: a0 = a2 + 0xffffffffffffffc0\n 43331: a0 = a1 >> a0\n 43334: a1 = 0\n 43336: ret\n      : @1599 (gas: 2)\n 43338: a3 = a2 & 0x40\n 43341: jump @1603 if a3 != 0\n      : @1600 (gas: 1)\n 43344: jump @1602 if a2 == 0\n      : @1601 (gas: 6)\n 43347: i32 a3 = 0x40 - a2\n 43350: a3 = a0 >> a3\n 43353: a0 = a0 << a2\n 43356: a1 = a1 << a2\n 43359: a1 = a1 | a3\n 43362: ret\n      : @1602 (gas: 1)\n 43364: ret\n      : @1603 (gas: 4)\n 43366: a1 = a2 + 0xffffffffffffffc0\n 43369: a1 = a0 << a1\n 43372: a0 = 0\n 43374: ret\n","bytecode":{"object":"50564d0000b3c7000000000000010700c1d001c0008003817cf40443b2a766a42db9815a1e2efa877e5c0519ec4fe51c83c442ba392fca77e2116ca4777b81d4ea98e10c16c565173f400507b7679bbdc6b249bd00a16076687a96c0a237ac310730ce86cab6918a9cee1f20395b3b80e1e34a4eb67d08a74e0dc354af37bd04b03f2522518a6d9314cf35a01b6f25119782e62a75888f78d1b417406592b5dbd6886d772784123ca0859bbddc544b79277c562e79691cb8290000e8890423c78affffe7890423c78a00001876fbdc3875ffff1776fbdc3875975752f4e33b24c3dceff4c6a46dc4173eb68630b623f1b6b5ef1d0584397d33527c373f8a8f13d8dec2e4708e54ca59a13610a1f529f1946a422bba3c51695be6d8186647f5847091063f7d0def110bff283e79b8ad5546d505d5764c8d017f00001876fbdc38750000e8890423c78affff1776fbdc3875f2a8b439f25bd8ebdf119a7090238fa225717e85c68e190f0982ba0d5cabfde394247a18b5e26bbe1d817609543b3c0451c960f58acf6b97ba06c2c9ba61c0412000000004811b11000000000400000012000000200000002e0000003400000041000000530000005e0000006d000000700000007d0000008d0000009d000000a8000000ba000000c500000063616c6c63616c6c5f646174615f636f707963616c6c5f646174615f6c6f616463616c6c5f646174615f73697a6563616c6c65726465706f7369745f6576656e746765745f696d6d757461626c655f646174616765745f73746f72616765686173685f6b656363616b5f3235366e6f777265665f74696d655f6c65667472657475726e5f646174615f636f707972657475726e5f646174615f73697a657365616c5f72657475726e7365745f696d6d757461626c655f646174617365745f73746f7261676576616c75655f7472616e73666572726564051302c0a79f0463616c6cc0b09f066465706c6f7906c0e6c4832102c070a9da00220266031c04b104b9048b05930592069706180723073e078f079a0704082d0841086d088208c108e6088f099509ca09450a4b0a820a240b2c0b4b0b8c0b920b9a0bc50bcd0bfb0b190c5a0c620cd50c060d400da00d150e640e910ea80ec20ee30ee90e040f210f6c0f8c0fa40f2810581068106e107a108010fe1015112c11621178118311011208120f121c128a129512b512d9127b13061440144e14a814de14eb140a1519154d1563156e153e167016cb16ff1606170d171a17391740176218691870188e189518a418f11800190d1927195c19a719c519f519641ab51abc1af51a2f1b5b1b871ba51bb01be21b261c381c551c9d1cef1c701d7e1da41d211e2f1e511ebf1ecf1e5b1f6c1ffc1f0a2061206f207620da20e12004211a21422160218c21da2148227d22b422db221f2334239f23b723f62345249224a024dc24e3241c25462566259c25c925d825e525fd2518263a2640265c267a26d026da26f3267427a727b827be27cb27d12754286b288528bb28d028da2833296c29722978299a29c529e029e929202a442a8a2a942a9d2abd2af12a0f2b202b2a2b602b932bb12bc22bcc2be52bfe2b622ccd2c1d2d2a2d5b2d612dca2de42dda2ef42e112f332fc72fe12fff2f4b30c031e931783382339a33b933bf3305340f3428344e348434dd34dc35e235e83505360b36193673368136a736b136d136f536fb36383742379637ec372338303877389538cf38e438ee384c39bd39953a303bae3bda3be03bfa3b003c063c0c3c403c463c2f3d9f3da93dc93ded3d1a3e7b3e853ea23ec63ef63e073f113f2f3fe23fec3f08402c4046405340594062408e40c140db40ec40f6403f419041ba41c341f84102421a423a42544265426f428e42c742e142ee42f44220435b437543824388439243b0431b449144c2442f453d457e45bc45f8456646c846dd46e74673478e47ba47c047da47e047e647ec47204826480f496349e549444abe4af44a294b914bf04b394cc54c304d7a4dc54dda4de44d044e284e6c4e994eca4eff4e644f844fd04fde4f0c505f50b750055156518551ff51e35379548d54c454e55447556055c155045612568856fd560f571f57a757d057fc572a589158a858b359ed59365b7c5b945bba5b275cad5c285d435d695df45d0e5e395e565e8e5e9b5ecc5e0d5f225f2c5f495f6d5f735fa75fad5fb65fcf5ffb5f31609460a16005617661cc6156626b627562096316637963a5634564d564fb64446509660f6615668066ec66b467fd67536879689f68ec6810693369636969696f69a769036a106a496a066b0c6b126b296b496b7c6bb36b2a6c516c6c6c986ca26cbf6cc86ce86c106d316d3b6d6f6da26dc06dd16ddb6df06dfa6d1f6e246f2a6f306f366f3c6f426f646f6a6f906f966f9c6fa26fac6fb26fb86fc26fc86fce6fd46fe76f2d709d70a370a970e870ee70087133713d7155717571bc71c671fb71047235725772687272729672a072c5721d73277344734d736d738f73c173e173157437748974a274d27434753e755b7564758475a275af75b575d5750976277634763a76437661767676bf76e57603774a77547772779477c677ec775d7872787c789c78a578c578f378fa781a7933796279a379b879c279357a477a837a8d7aad7ab67ad67af47a017b077b277b5b7b797b8a7b947ba37bc37bf77b2f7c397c527c747cae7ce97c247ded7df37df97dff7d057e0b7e2d7e337e597e5f7e657e6b7e757e7b7e817e8b7e917e977e9d7eb07ef67e627f6b7f8b7fd37ff97f4a805f806980fa808b81b781e781088212823582e782148332833f834583728388839b83b983ca83d483048449848384ce84fb8419852a85348561859e85bc85c985cf85fc8512862586438650865686658609874787b287108862888a88ea88f08812892d8933894389498952896d897389808986898f89a489148a1c8a238a3b8a5f8ac68ada8ae18af98a1d8be58b008c078c218c458c028d1c8d408d9d8da48dbc8de08d288e528ea58ee38e228fb38fba8fd28ff68f9b90a290bc90e0900e9225923e925c92db92f1920b934e93c894e7942c9532955c958d95ab95b895be95c9950996289646968f96c196df96ec96f2961397449762976f9775978097d697f59713986a98bf9838998099e399f1990b9a349ada9af99a6c9b739b459c5b9c719c9a9c1d9d5f9d1e9e659eac9ef39e129f689fb09fba9faa876e978a2098aa20977b2098bb20c89b0bc9ba0a979b019abbaeab20ae873751094ec87909647a017c8b95880195ac0178ab64caab9cf42836510934c87909647a017c8b95880195ac0178ab64caab9cf4281c51091a839aff01c8a80b7cbb9599ffc8a70c78cb83aaff5209f032009511e87b10107b15087b163306780102390578010251051c3307b00103837783680a060139077801022003780102ac5710821010821508821695111832000039087801025108b0073307b0010383770a0e28a3079511f07b10087b156489647533082064975010026e057c78017c797c7a027c7b03978808d4980897aa1097bb18d4ba0ad4a8087c79057c7a047c7b067c7c07979908d4a90997bb1097cc18d4cb0bd4b909979920d489027c79097c7a087c7b0a7c7c0b979908d4a90997bb1097cc18d4cb0bd4b9097c7a0d7c7b0c7c7c0e7c780f97aa08d4ba0a97cc10978818d4c808d4a808978820d498037c78117c7a107c7b127c7c13978808d4a80897bb1097cc18d4cb0bd4b8087c7a157c7b147c7c167c791797aa08d4ba0a97cc10979918d4c909d4a909979920d4890a7c78197c79187c7b1a7c7c1b978808d4980897bb1097cc18d4cb0bd4b8087c791d7c7b1c7c7c1e7c771f979908d4b90997cc10977718d4c707d49707977720d487076f776fa86f396f2a7b5a187b59107b58087b57821008821595111032009511d87b10207b15187b161082897b19088289087b1982851082861833082050100426046f686f59821a6faa821b086fbb787b18787a10787908787898bc38787c1f98bc30787c1e98bc28787c1d98bc20787c1c98bc18787c1b98bc10787c1a98bb08787b1998ab38787b1798ab30787b1698ab28787b1598ab20787b1498ab18787b1398ab10787b1298aa08787a11989a38787a0f989a30787a0e989a28787a0d989a20787a0c989a18787a0b989a10787a0a98990878790998893878790798893078790698892878790598892078790498891878790398891078790298880878780182102082151882161095112832009511a07b10587b15507b16489515608411e06476828718828910828a0882886f776f996faa6f887b18187b1a107b19087b17491138491130491128491120481140208318831a20831b403309ff33070a07821738821830821928821a206f776f886f996faa7b6a187b69107b68087b675012068da40032009511a07b10587b15509515608411e08272827a08827b108277188283828908828c108288186f746fbb6faa6f276f826fcc6f996f387b17187b1a107b1b087b147b18387b19307b1c287b12208318831a203309ff330b2033070a0f9551a08210588215509511603200951160ff7b1098007b1590007b1688009515a0008411e082ab7b1b3882ab087b1b3082ab107b1b2882aa187b1a20829a7b1a18829a087b1a10829a107b1a088299187b1964865010082c0282186f888219086f99821a106faa821b186fbb7b1b587b1a507b19487b18408218206f888219286f99821a306faa821b386fbb7b1b787b1a707b19687b18608379836a8317403308020a05955160ff8210980082159000821688009511a0003200951120ff7b10d8007b15d0007b16c8009515e0008411e082bc7b1c4082bc087b1c4882bc107b1c5082bb187b1b5850120adca0007b183850100c8f016f687b187882186f887b18708218086f887b18688218106f887b18608218186f887b1898008218206f887b1890008218286f887b1888008218306f887b1880008218406f887b18b8008218486f887b18b0008218506f887b18a8008218586f887b18a0008379811a388317603308030a05955120ff8210d8008215d0008216c8009511e00032009511e0fe7b1018017b1510017b160801951520018411e082c67b166082c6087b166882c6107b167082cc187b1c7882bc7b1c3882bc087b1c4082bc107b1c4882bb187b1b5050120e02a0007b1858501010b5006f687b18980082186f887b1890008218086f887b1888008218106f887b1880008218186f887b18b8008218206f887b18b0008218286f887b18a8008218306f887b18a0008218386f887b18d8008218406f887b18d0008218486f887b18c8008218506f887b18c0008218606f887b18f8008218686f887b18f0008218706f887b18e8008218786f887b18e0008379811a58831780003308040a059551e0fe8210180182151001821608019511200132008b7910520931c8780883881f8488e05638000001253309800102390a800102ae8a093d088001020133089001028377c887073200009511f07b10087b158475010a03013d077c010251050750101209501014f001951100ff7b10f8007b15f0007b16e800951500018411e04921d8004921d0004921c8004921c0008317c0000a10018217d0008218d8008219c800821ac000d49808d4a707d487075207e10039067c010297672098772095771f8477e09578a000d878077b18a0007b17a80094777b17b0003307409518a0004921b800501016ebfa3307a000646850101825ff8377646833090a010154161fa000951780003308a00050101a8bf9821790008219980014080000000001000000d37808d49808987a2088aa01949a938a510a7982188000821a8800d4780bd49a0cd4cb0b510b727b18607b1a687b1770330780009518607b197850101c74fa95174033084050101e2ff9821758821850821948821640d49707d48609d47909989920d48707977720d49707510769003308900102838833070128b1003308900102838833070128a400330890010283883307012897004911104911084901140700000000c8f5bc1464187b17183307501020fff9390880010256181f0b20038001022001330890010283883307013309040a0d01646733085010221bfe8377330833090a019517203308800050102488f8821738821930821a28821b203e07c801033e09c001033e0ab801033e0bb00103284ef864673308501026dbfd8378330733093300280a0d280a33093300280a0d01951110fe7b10e8017b15e0017b16d8019515f001951150cd8411e0641695693829492900024929f8014929e80180003307409568202b4929f00150102a42f933077c01027b67980139077c01025517040728e66795670030837740fb330833002c0a020195693829819724025247871cb2880a28532051476cd3238fe5085147346662992101956a38315247e1ac83b60a288e2851472d16dfbab70c5247b00de3d00a28222d52475f53cc0e0a288517524786e72a220a28fd2352474d7d1a2e0a28671c5147f50796370005524768e76a410a287d0f5247b836cc480a287a0d5147aef7914a0a28441b49298006492978064929700649296806956700308377a033002e0a1033023028769c00501230729c0082b77882b8800082b97082ba68d49808d4a707d4870751070628165a8267980181775617030728165a95670013330840501032fff6956a181182ab000295ac000182c8f80082c9f00082c7e800d49b0bd48709d4b909989920d4b808978820d49808510806284a593a08a00002492ae001492ad8017ba8c8019568e012492ad0017b6798013300b60028e0f74929600749295807492950074929480795670030837780003300340a1033023628449e00501236409e0082b75882b86082b95082ba48d49808d4a707d48707510706287b5982679801817756174307287b599567601a33003833026605283d9d0095671819957900018298587b6868018298507b6898018297487b679001956700308377a0003308240a020195673829957c000782cb800082ca7882c97082c868956c00017bc980007bcb70d4b9077bc88800d4a808d478089888207bca78d4a707977720d48707510706280c59956a000182a768977720987720956918194929400182a89000959b00017bb82882a898007bb8309568401a7bb738330750103adff633023c95681819014928200149281801492808010264893307209568201a4929100150103eb8f63308800102390780010256173f0b200380010240019517e08479e07b6968016491330790010283777b68980183993308407b6790013300400a08330242285396005012424f96003302449569181901826770017b970001826778017b97f800826780017b97f0009568001a826788017b97e80033075010463ef63302489568181901826748017b87e000826750017b87d800826758017b87d000648a3307209568e019826960017ba9c80050104a08f682689801818756173f08480840019517e08477e07b67880150124ceb96000a08826a880182a71882a81082a90882aa6f7c7b6cd8006f8b7b6be0006f997b69f0006fa77b67e800826868017b87187b89107b8b087b8c9567c01950104e9bf633025095681819018287b8007b67c8008287b0007b67c0008287a8007b67d0009517e0847be07b6b880164b18268d8009588018887018269e000c87909d49807887701826cf000c87c0ad8ca07826ce800c8c7077b6780017bb7187b6a68017bba107b6970017bb9087b6878017bb89567a019330840501052f4f3956718198278a0007b681001827898007b68f800827890007b680001827888007b6808019567801982688801501054eff5956a181982a7800082a87882a97082ab687b6760017ba7407b6830017ba8387b6928017ba93095676019956840197b6b88017bab28501056697c956a000182a81082a70882a9d48909826bf800d4b708d49808988820d4b909979920d4980851080628dc5595691819829260829b58829850829c487b6c40017b9c087b6850017b98107b6b48017b9b18956820197b6258017b922050105863f48268080195872082698801849b01826a1001826cf800d4ac027b673801510b0628a12b649c1409e0ffffff00000000d8980a82680001948a942a95691811520a062863557b62b80084c800ff826a2801959b00077bba90007bb88800826830017bb898009568a018826a60017bbaa00050105aeef3956c18113304330349269001956a000182a74882a840d4870782a85882a950d49808d487078e779777057ba7980028d645492900044929f8034929f0034929e80395670030837720fd33005c0a1001956a382995ab000382b7f80082a8000482b9f00082bae800d49808d4a707d48707510706287d5550125e3e9800ac7806287e5595670030837740fd3308043300600a020195673829957c000482c82082c91882ca1082cb08501262c49800520706285a5533079001037b67980183777b6768013300640a0433026628ec9400501266e89400492678077b6870077b676807956860077b6a60073307501068fff249265807492650074926400701330720956840074926480750106ae2f29517e08477e07b67700164713309800102390780010256173f0b200380010240017b6940019517e08479e07b695801649133079001027b676001837783993308407b67480133006c0a0801826a580182a782a80882a91082aa186f776f886f996faa95ab0250126ea19200826870017b8b7b8c087b89107b87189567200750107051f38262380782682807826430078263200782608001d3020782699001d3980cd8980a82698801d89309dbca09d8020a826b7801d8b40cdb7a0cd3b40ad47a0adbac09510906287c5482678801956900067b97c0007b63e006826790017b97c8007b98e8007b9bd0007b64f0067b60d806956700079568e0069569c0067b62f806501072227c956b000782b71882b81082b90882ba956b382995bc00047bc7407bc8387bc9307bca289568602d8267700150107415f3826768013300760a0433027828029700501278fe960033007a0a0a33027c28c8930050127cc49300959b00047bb860826878017bb858826890017bb850826888017bb848482968048e77fc089a787bb8a0007bb898007bb890007bb8880097a820988820977723d487079568802d9788209888209569c02d979920d4890a826b600197bb2098bb209568a02d978820d4b80c3308ff3309ff0a7b6770019567a00650107ee77c826770015107062886539567600633084050208000b5ef956b000682b77882b87082b96882ba6050228200979100510706281552826788017b674006826790017b674806826778017b67500695684006826780017b67580664a77b6a900150208400a2f082676801330086000a04826998013302880028318f008269980150228800298f00d4780298aa206f99979820d4a808989920492618063a0ae000023a0be800023a0cf000023a07f800027b6a3806956a00067bab307bac287ba7207ba9107ba80833082095692006956a00067b620006826790013300800128f7f14929e0064929d8064929d0064929c80695670030837733008a000a1033028c002804940050228c0000940050228e0062960051070628a05250229000b49400ac780628a052956700308377203308040a02019567382982780007957c000682c9f80082caf00082cbe800956c00017bc880007bca9800d48a077bc9787bcb9000d49b08d4870752070628665233079001037b67700183777b675801330092000a048269700133029400285d8d008269700150229400558d0049290006959b00057bb8f8007bb7f000956800177bbae8003307502096004fef956818114928e0054928d8054928c8050164893307209568e0164929d005502098002bef9517e08477e07b67880164713309800102390780010256173f0b200380010240017b6950019517e08479e07b69680164913307900102837783993308407b6760010a08826a680182a71882a81082a90882aa6f776f8c6f996fa2826b88017bb2187bb9107bbc087bb7951be084b8e06481957b02d87b07c87c0ad8ca0cda770cc89c0cd89c07c827077b8c107b8a087b8b7b87189567c0167b68680150209a007bef956718118272c0058278b0058274b8058273a80582608001d3020782699801d3980cd8980a82699001d89309dbca09d8020a826b7801d8b40cdb7a0cd3b40ad47a0adbac095109062857519569181182679001959a00057ba7487b936805826798017ba7507ba8707bab587b9478057b906005649a9567a01695688016956960167ba2800550209c004578956a181195ab000582b7a00082b8980082b9900082ba8800956b382995bc00077bc7207bc8187bc9107bca08956840308267680150209e002eef95674016826888015020a000a8ee956b181182ba280582b7300582b8380582b94005826c80017bbce004826c78017bbcd804826c98017bbcd004826c90017bbcc8047bb9000595bc00047bc8f8007bc7f00095672016956800169569e0157bcae8005020a200547b956a181195ab000582b72082b81882b91082ba08956b382995bc00077bc7407bc8387bc9307bca2895686030826788015020a40090ee9567c0153308405020a600dfeb956a181195ab000482b7c00082b8b80082b9b00082baa8005022a800b98d0051070628374e3302aa00956918110182679001959b00047bb78800826798017bb79000826778017bb798009568a015826780017bb7a00064a77b6a98015020ac00b7ec826758013300ae000a04826970013302b00028468b00826970015022b0003e8b00d4780298aa206f99979820d4a8089899203a0a800002956718117b7a80043a0a8800023a0b9000023a0c9800027b7a7804957a00047bab70492760047bac687ba9587ba85033082095698015956a60157b7248048267980133001c022807ee492aa002492a9802492a9002492a8802956700308377c0030a1001956a383195ab000282b7980082b8a00082b9900082ba8800d49808d4a707d4870751070628574f8267980181775617030728574f956738314927c0024927b8024927b0024927a8029567a0299568e0335020b200b8ec9568382982878000956900017b9798008287787b9790008287707b9788008287687b978000956780293308405020b4005aea956a382982a76082a85882a95082ab48d49707d48b09d47909989920d48707977720d4970751070628ac4c95690001829780007ba728829788007ba730829790007ba73895686029829798007ba74064b77b9b98005020b60039eb330820826798013300b003286def4929c0054929b8054929b0054929a805956700308377e0fe3300b8000a103302ba0028a491005022ba00a091005022bc00e08e00510706286d4e5022be00b68f00ac7806286d4e95670030837700ff3308043300c0000a023302c200286a91005022c20066910082b7e00082b8d80082b9d000d48707889801947852080628404e82a7c8057b67200195670030837720ff0a09019567382982740006827af8057b6a50018272f0058270e805684768a8958940db470968276808958840db270895878000d44a0adaa709d8870c94ac8ecb8897f000857a01daca0b88b7019577ff9ab89accc9ac0a9a93ef007b6898018e8c8e78da7c08883c000185cc018ea9dba90cdbb80c7b6440017b625801d4420882645001d44009d49808888801d4c808640b948b5108062871258538ff00826c9801d4c808d47a09d49808520806285a2564029539017b699001889801c8a8087b688001d49808888801c8c8087b687001d8c808c887077b6778019a38ff007b6868019a89800064077b624801826858015020c400c990005022c600c88f005020c800e190007b6730017b6828018267680195798082674801826858015020ca00c390005022cc0080900082674801826858015020ce00ad9000826b380182627001826c780182698001d49c0c826a9001d42a0ad4ca0a93b77b678801510a0628de22330b2898244929c0044929b8044929b0044929a804956700308377e0fd3300d0000a1001956a382995ab00045022d200ed8c0051070628a14c5022d400c38d00ac780628a14c9567ff079577c1023300d6003302660528988e009568ff0795881101958900018297c0007b6768018297b8007b6770018297b0007b6778019567ff079577a1023308405020d8006ee79567ff0795771101957c000182c8a8007b68880182c9a0007b69800182cb98007b6b900182ca90007b6a98017bc888007bc980007bcb7864789567ff07957781027b8a70015020da00be70956a000182a7880082a89000d4870782a9800082a898005022dc00ee8e00510706287c499567ff07957711014927680149276001492758019568ff079588610249275001826798015020de000fe8956b000182b7880082b98000d47909140a00000000010000001407e0ffffff0000000082b89800d8780782b8900094879497520706281a49826798018377209568ff07958811017b69880164894928480149284001492838019568ff0795884102492930017b6a80015020e000a0e7956a000182a9880082a780009577c082a89800d8780782a890009487949752070628bf48826798018377409569ff07959911014929280149292001492918019568ff0795882102492910015020e2004fe75022e400398c00829888009487520706287f48826798018377609569ff079599110149290801492900014929f8009568ff07958801024929f0005020e6000fe7826768019777209877209569ff07959911014929e800826870017b98d800826878017b98d0009568ff079588e1017b97e00033075020e800d5e69568ff07958811014928c8004928c0004928b0000164893307209568ff079588c1014929b8005020ea00a9e69517e08477e07b6790016471390880010256183f143308403d088001023302ec0028de89005022ec00da89003307900102837783993308403300ee000a08826a98013302f00028b68c00826a98015022f000ae8c006fa87b686801826990017b98187b6770017b97107b6b60017b9b087b6c58017b9c9567ff079577a1013308405020f200e8e49568ff07958811018287a8007b6780018289a0007b697801828b98007b6b8801828a90007b6a98017b8788007b8980007b8b789567ff07957781017b8a705020f4003f6e9567ff0795776101826890015020f600bee6956a000182a7800082a88800d4870782a97882a898005022f8005e8c0051070628ec46956bff0795bb110182b76882b86082b95882ba507b6a38017bba307b6940017bb9387b6848017bb8409568ff07958841017b6750017bb748826798015020fa0067e58267580195770188780182696001c89808d48709889901826a7001c8a909d8a90a826b6801c8ba0a956b382995bc00047bc8d0007bc7c8007bc9d8007bcae0009567ff07957721019568002e5020fc0007e6956b000182b7800082b978d47909140a00000000010000001407e0ffffff0000000082b89800d8780782b8880094879497520706282146956cff0795cc110182c22882c8207b69900182c9187b6a800182ca1082679801837720956b00107bba00f9956a00107ba908f97bc89568ff07958801017bc2087b6778015020fe0094e4826858019587025022000194850095bc00047bc9f0007bc7e8007bcaf8007bb800059567ff079577e1009568202e5020020152e5956a000182a9900082a780009577c082a89800d8780782a8880094879497520706287f4595670010827bf8f8956700108278f0f8956700108279e8f895670010827ae0f882679801837740956c00107bcac0f8956a00107ba9c8f8956900107b98d0f89568ff079588c100956900107b9bd8f87b67800150200401e3e38268580195870350220601e3840095bc00057bc9107bc7087bca187bc8209567ff079577a1009568402e50200801a5e41407a0ffffff000000009569000182989800d8780782988800948782989000948752070628cf44956700108277a0f89777209879208268980183876095680010492898f895680010492890f895680010492888f89568ff0795888100956a00107ba980f87b67880150200a0145e39567ff0795776133084050200c01fbe195670010827978f895670010827a70f895670010827768f895680010828860f87b679001d497077b689801d4a808d47808988820d4a707977720d4870751070628354482673801956800107b8740f882674001956800107b8748f882674801956800107b8750f89568ff0795884182675001956b00107bb758f8826798017b6970017b6a680150200e01a9e29567ff0795772182687801502010015ee1956a000182a77082a968d47909140700000000010000007ba7701407e0ffffff0000000082a89800d8780782a8900094877ba9789497520706289f4395670010827938f895670010827830f895670010827a28f895670010827b20f882679801837720956c00107bcb00f8956b00107bba08f8956a00107ba810f89568ff07958801956a00107ba918f85020120108e29567e0078268800150201401c0e0956900018297709577c082989800d878078298900094878298789487520706281b43956c000782c9f80082c8f00082cae80082cbe000826798018377407bcbc0007bcac8007bc8d0009568c0077bc9d80050201601a3e19567a00782688801502018015be050221a017f8600829878948752070628c6428267a0071408ffffffff00000000d278088267980183776049269807492690077b688007956880074926880733004001284de149298002492978024929700249296802956700308377a0fb33001c010a1033021e0128bc870050221e01b8870082b77882b8800082b97082ba68d49808d4a707d4870751070628c44450222001cc8500ac780628c4449567a003330022013302660528a586008267a0038268a8038069b003492698037b6990037b688803956880037b678003330750202401c2e049267803492670034926600301330720956860034926680350202601a4e09517e08477e07b6778016471390880010256183f143308403d088001023302280128d9830050222801d583003307900102837783993308400a08826a980182a71882a81082a90882aa6f7c7b6c88016f8b7b6b90016f997b6980016fa77b679801826878017b87187b89107b8b087b8c9567400350202a011ce1826758037b677801826750037b677001826748037b676801826740037b6760018267880195770188780182699001c8980895693829959a00027ba89000d478087ba7880088870182688001c887077ba79800d8870782689801c887077ba7a000956720039568c02b50202c01aee0826738037b675801826730037b675001826728037b674801826720037b67400182688801958702d88708826a900150222e01b6840082688001c88a0ad88a08826b9801c8b808956b382995bc00027bc8c0007bcab8007bc9b0007bc7a800956700039568e02b5020300142e0956c000382c7187b67380182c7107b67300182688801958703d88708826a90015022320158840082c8087b68880182688001c88a0ad88a08826b9801c8b80882cb7b6b8001956b382995bc00027bc8e0007bcad8007bc9d0007bc7c8009567e0029568002c50203401d7df8267e0027b6728019567c0023308405020360196dd95670002827bd800827cd000827ac8008279c000d4ba07d4c908d47808988820d4c707977720d4870751070628e43f826760017b67a002826768017b67a802826770017b67b0029568a002826778017b67b80264977b6998017b6a90017b6b78017b6c70015020380165de956c000182c8980082c77882ca70d47a0a50223a015b8300520706288a3f83872082684001956c00027bc88000826848017bc88800826850017bc8900095688002826958017bc998007b6a78017b6b700150203c010ede95690001829b78829a9000829898008297709577c0d8780794a794b7520706282f3f83874082688001956a00027ba860826888017ba868826830017ba87095686002826938017ba97850203e01bfdd956a000182a998001407a0ffffff00000000d8790782a89000948782a878948752070628dc3e8267280197772098782083976049265802492650027b68400295684002492648025020400172dd330880008267980150204201a9e183783309800033070a0d2879455147b327d0610a2824414929a006492998064929900649298806956700308377c0330044010a1033024601282981005022460125810082b7980082b8a00082b9900082ba8800d49808d4a707d48707510706282741826798018177561703072827419567401333084050204801aedb95671811957900028298407b6898018298387b6890018298307b6880018297287b67880150204a0130db956b000182b7980082b88000d4870782b88800648a82b9900050224c014d830051070628db3d3a09b001033a08b801033807c00103956b1811492b200295bc00027bc7187bc810956820137bc90864a750204e0168dc330820826788013300b003289ce04929400349293803492930034929280395670030837760fc330050010a1001956a382995ab0003502252016f820051070628654050225401eb8000ac780628654095670030837780fc330804330056010a020195673829957c000382c86082c95882ca5082cb48502258016f8100520706283f4033079001037b67980183777b67680133005a010a0433025c0128947d50225c01917d4926b8057b68b0057b67a8059568a0057b6aa005330750205e01a8db492698054926900549268005013307209568800549268805502060018adb9517e08477e07b67700164713309800102390780010256173f0b200380010240017b6940019517e08479e07b695801649133079001027b676001837783993308407b674801330062010a08826a58013302640128f97a826a580150226401f27a826870017b8a187b89107b8b087b87956760055020660103dc8262780582686805826470058263600582608001d3020782699001d3980cd8980a82698801d89309dbca09d8020a826b7801d8b40cdb7a0cd3b40ad47a0adbac0951090628683f826788017b6700057b632005826790017b6708057b6828057b6b10057b6430057b6018059567400595682005956900057b62380550206801d764956b000582b75882b85082b94882ba40956b382995bc00037bc780007bc8787bc9707bca689568a02c8267700150206a01c7db8267680133006c010a0433026e0128b17f50226e01ae7f330070010a0a3302720128767c50227201737c959b00037bb8a000826878017bb89800826890017bb89000826888017bb888004829a8038e77fc089a787bb8e0007bb8d8007bb8d0007bb8c80097a820988820977723d487079568c02c9788209888209569002d979920d4890a826b600197bb2098bb209568e02c978820d4b80c3308ff3309ff0a7b6770019567e00450207401926582677001510706286b3e9567a004330840502076015fd8956b000482b7b80082b8b00082b9a80082baa000502278013d7a51070628bc3a826788017b678004826790017b678804826778017b67900495688004826780017b67980464a77b6a900150207a0149d98267680133007c010a048269980133027e0128d8778269980150227e01d177d4780298aa206f99979820d4a808989920492658043a0a0001023a0b0801023a0c1001023a071801027b6a7804956a00047bab707bac687ba7607ba9507ba84833082095696004956a40047b6240048267900150208001a4da3307826848013309330018040a0d33021a0428847d4929c0064929b8064929b0064929a806956700308377e0330082010a103302840128987c50228401957c50228601747c51070628903d8267980181775617630728903d95670015330088013302660528247e956818118287e8037b6798018287f0037b6790018087f8037b6778019567e01433008a0133026a0528fe7e956718118277c8037b6780019567c01433008c013302700528e37e33028e019569181101959a000382a7a800956b00017bb788004929a00382b7787ba7980082b790007ba790009568a01482b798007ba78800330750209001e4d795681811492880034928780349286803046489330720956880144929700350209201c0d73308800102390780010256173f0b200380010240019517e08479e07b69780164913307900102837783997b6898013308407b679001330094010a08826a780133029601280879826a780150229601017933029801956918110149296003492958034929500395686014826780017b974803330750209a0147d78267600195681811958900037b9740826768017b9738826770017b9730648a33072095684014826978017ba9280350209c0113d782689801818756173f08480840019517e08477e07b67800150229e01f5773300a0010a08826a80013302a201287278826a80015022a2016b789517e08477e07b67800164718267880197772098772095691811492920034929180349291003956820147b97080333075020a401a4d682676001956818117b870003826768017b87f802826770017b87f002648a33072095680014826978017ba9e8025020a60171d682689801818755174008480840019517e08477e07b6798015022a80153773300aa010a08826a98013302ac01280776826a98015022ac010076826880017b8a187b89107b8b087b879567e0135020ae0111d7956718118277c8027b6798019567c0133308405020b001ccd495691811018292c00295980002828cb800828bb0008287a800d42b0ad4c708d4a808988820d4ca0a97aa20d4a8085108062815377c6898018e8a4929a00249299802492990029568a0137b9a88027b6790017b6b88017b6278017b6c80015020b201a2d5956b000182ba880082b9900082b7800082b878d47808140b00000000010000001407e0ffffff00000000d8790794a7948752070628ae367b68800182689801848700ff008e788397209569181149298002492978027b98680295688013492970027b6b78015020b40137d5956a000182a9900082a7789577c0d8790782a88800948782a8800094875207062857368268980184870000ff008e78839740956a1811492a6002492a58027ba8480295686013492a50025020b601e7d4330860826790015020b8011fd9837833096033070a0d28f03c492900034929f8024929f0024929e80295670030837720fc3300ba010a103302bc01283a7b5022bc01377b82b7f80082a8000382b9f00082bae800d49808d4a707d4870751070628a8398267980181775617030728a83995670030837740fc0a099567382995790003829820956a00017ba8588298187ba8508298107ba898008297087ba790009567e0033308405020be0100d3956b000382b7f80082b8f00082b9e80082bae0005022c001de74510706285d357b6a1801826350016837957740826058016809da0709826490016847957740826298016828da270895878000d4030adaa709d8870c94ac8ecb8897f000857a01daca0b88b7019577ff9ab89accc9ac0a9a99ef007b6878018e8c8e78da7c088eac7b69680188990001859901dbac09dbb809d43408d4020bd4b808888801d49808644b948b51080628733b826868018588ff0082697801d49808d47a09d4980852080628583b826b680195b9017b698801889801c8a8087b688001d49808888801826a7801c8a8087b687001d8a808c887077b6778019ab8ff007b6840019a89800082679001826898015020c201507a7b6738017b6848018267500182685801826940015020c4015c7a7b6730017b6828018267400195798082679001826898015020c6013f7a7b6720017b68100182694001889780007b67080182679001826898015020c8011d7a956b00017bb86082b8800082b978d4890982b8880082ba70d4a808d4980882ba0893a77bb76852080628753a64a98267480182682801d4870764ac82681001da980782695801649a649882694001db970a7b6a480182673801826a3001d4a707826a2001daca07826b500164badb970a7b6a40018267600193c77b676001492630018051018267880195798064b75020ca0163797b6738017b6820018267900182689801826988015020cc0149797b6710017b682801826888019a89800082675001826858015020ce01517982692801d4980882698801889a80007b6a2801826b2001daab08826b9801db980b7b6b980182681001d4870782683801daa80782689001db97087b68900182675001826858015020d001df7882649001826398014926580149265001956b000182b928939893977bb73882ba3095a9ff7bb9288ea99599ff7bb9200198493f973a01d4a909974a0182644801984b3fd4ba0a7b6a9801826020016437d39003d89002826b2801d8ab0cdb320c978801826b380198ba3fd4a8087b689001987a3f97b701d47a0a974701826b400198b83fd4870297b801826b600198b33fd4380397b801826b680198b43fd4480897bb0182675801d47b0b7b6b680182675001d478087b686001d437087b684001d427077b674801c9a007d8c707d8a008826c9001c9c00bc98b0bc97b0b99b03f82673001d2700782689801c97804d87808c989039498c98a077b673801d88a08c98c0895670001827a8800827c8000d4ca09889901827b70d89b02c99b0988ab01c9bc0c827b78c92b0b95aaff7b7c80007b7b78d4bc027b7a8800d49a0bd42b0a840b017b7b587b797049265001520ae1fe283838492ac000492ab800492ab000492aa800956700308377e0013300d2010a1001956a383182a7b80082a8c00082a9b00082aaa800d49808d4a707d48707510706285f355022d401e674ac780628603595670030837700023308040a0201956c383182cae00082c8d80082cbd000d4a80988b70194975207062841357b69980082ccc80082679801807395c723d8c709c89b027b6bd000d8b20bda990bc88b0b7b688001d88b097b6a8801c8a909d4b909d8370794279497520706280c3583c80495670030837720027b6cc8000a0201956a383182a2000182a7f80082a9f0007b67e800d427078898017b679001947852080628e13482a4e8008268c800958724d8870a8260d000c8a00bc847037b672001d8730cc89b08c8c808d3b8077b69e000d8b809da7c09d80b07daaa07826a8001c8a707d8a70a826b8801c82b0bc8ba0a826ce800c8c70bd87b07c8a707826a980180aac8b909d8b90bc8b707d83a0a888b0185aa01db8b0a887801889b01db780bd49707db7b0a520a062865348847038269e0009497826a900194a7510706285d3464cb8e977b64b800884865858801db97088ec78e297b62b000da2709daa809510906287e3433079001037b67d80083777b67c0003300d6010a048269d8003302d80128bd6f8269d8005022d801b66f4919207b98187b9710956840297b9a0833075020da016ace9568382949084918f84918e8036489330720956820294919f05020dc014bce5022de01d4723309800102390780010256173f0b200380010240017b69a8009517e08479e07b69900164913307900102837783993308407b67a0003300e0010a08826a90013302e20128c46d826a90015022e201bd6d826898017b8a187b89107b8b087b87956700295020e401cece956918218097e8074929c0074929b8077b97a8079567e0289568c0284929b0075020e6012e5b95671821957900078298e0007b6808018298d8007b6800018298d0007b68f8008298c8007b68f0009567a028826898015020e80172ce956a182180a78c0797772095ab000782b8900082b9980082baa000826bf000d4b707826bf800d4b808826b0001d4b909826b0801d4ba0a956b383195bc00017bca207bc9187bc8107bc70895684032826798015020ea0191ce95670030837760020a09019567383182744001827a38017b6a50018273300182702801684768a8958940db470968376808958840db370895878000d44a0adaa709d8870c94ac8ecb8897f000857a01daca0b88b7019577ff9ab89accc9ac0a9a92ef007b6898018e8c8e78da7c08882c000185cc018ea9dba90cdbb80c7b644001d44308643482635001d43009d49808888801d4c8087b605801640b948b51080628d4138528ff00826c9801d4c808d47a09d4980852080628bd139529017b699001889801c8a8087b688001d49808888801c8c8087b687001d8c808c887077b6778019a28ff007b6868019a8980008267580164487b6448015020ec014e735022ee014e725020f00168737b6730017b6828018267680195798082675801826848015020f2014b735022f401097382675801826848015020f6013773826b380182627001826c780182698001d49c0c826a9001d42a0ad4ca0a93b77b678801510a06284911330b2803138267980181775617030728cb31492ae002492ad802492ad002492ac80295670030837700043300f8010a1001956a383195ab00025022fa01ef7152070628a53133079001037b67900183777b6768013300fc010a04826990013302fe01288e6c826990015022fe01876c4929e001959b00017bb8d8007bb7d0009568002b7bbac80033075020000233cb956838294928c0014928b8014928a8010164893307209568e02a4929b001502002020fcb50220402986f390880010256183f0b200380010240019517e08479e07b69880164913307900102837783993308407b676001330006020a08826a880133020802289f6d826a880150220802986d95673831492700034927f8024927f0024927e80295670030837720040a1095673831957900028298e8007b6888018298f0007b6880018298f8007b687801827700037b6770019567c02a8268980150200a0260cb956b382982ba880182b7900182b8980182b9a001826c70017bbc4001826c78017bbc3801826c80017bbc3001826c88017bbc280195bc00017bc9607bc8587bc7509567a02a9568802a9569602a7bca4850200c021058956a382995ab000182b7800082b87882b97082ba68956b383195bc00037bc7207bc8187bc9107bca08956840348267980150200e024bcb9567402a330840502010029ac895673829957900018298207b6888018298187b6880018298107b6878018297087b67980195673831492740034927380349273003492728039567003083776004330012020a1001956a000182a7880082a878d4870782a89800648c82a98000502214021d7051070628ac2a956a383195ab000382b72882b83082b93882ba40956b38297bba00017bb9f8007bb8f0009568202a7bb7e80064c75020160235c982676801330018020a048269900133021a0228c4678269900150221a02bd67d4780298aa206f99979820d4a8089899203a0a000002956738297b7ae0003a0a0800023a0b1000023a0c1800027b7ad8007b7bd0004927c0007b7cc8007b79b8007b78b0003308209569002a956ae0297b72a8008267980150201c028bca3307826860013309330018040a0d33021a04286b6d7b62b800d8870782680001c878097b692801d88908da7708c8c8087b682001d8c8077b6788019567181182687801957900077b98e800826870017b98f000826868017b98f8009568001995671819826980017b79330750201e0247c89517e08477e07b673001647182699801819756171f08480920018267100182688801c887077b6718019517e08477e07b67880164718379330820826790010a08492698013304330349269001826a880182a71882a81082a90882aa6f776f8b6f9c6fa982683001649a7b89187b6c60017b8c1064b07b8b0864797b8701956b00017bba687b6070017bb97882b74082b99800d8790782b950d3940ad89409daa70982b748d8730282ba5882bc9000d3ac0bd8ac0adab20ad37307d4b707da790a520a062894199567e0187b6388017b6480015020200261c882609801826480018263880182683801c80807d88708826b2801c84b09c88909d3b90ad8b90bdaa80b826a2001c83a08d8a802826c1801826a9001c8ac0cc82c0ac88b0bd88b08c8a808d49808d4b709d48909d4b808989920978820d49808510806284d28956c181182c9e00782c8d80782cad00782cbc8077bcba80795cb00077bbab0007bb8b8009568c0187bb9c0007b60980150202202d4c6826c780195cc0188c701826a7001c87a0ad4ac0788770182686001c87804d8840882676801c8870782689801958320d8830982688001c89802d8820bda990b82688801c88b0bd88b0982689001c898087b68900164a0826830017b8a0864c97b8c7b8410647a7b87187b6460017b639801642464b32895fe502224022c6b82626801db270a7b6a98018267600182693001d4970782691801dab907826c500164cadb270a502226024c69502028024a6d7b6730017b68180182674801826858018269900150202a02306d50222c02b96950202e024a6d50223002086a82695801dba8097b69580182681001d4870782683001dab80782684801dba70864a97b684801826750018268400150203202ea6c50223402dc678263580182644801017b6b580198493f973a01d49a02974a01826b980198bb3fd4ba0a7b6a48018269280164847b625001d329086430d82903826b3001d8ab02db8302974801987a3fd4a8087b684001980a3f977701d47a0a82679801977701826b600198b83fd4870097b801826b680198b33fd4380397b801826b880198b43fd4480897bb0182675801d47b0b7b6b8801d4c8087b686801d43c087b686001d40c077b679801c9a907d82707d8a90882624001c9290bc98b0bc97b0b99bc3f82673801d2c70782684801c97804d8780882675001c987039478c98a07d88a08c9820850223602d16bd89b02c99b0988ab01c9b000826b7801c92b0b95aaff7b6080017b6b7801d4b0027b6a9001d49a0bd42b0a84cb017b697001330c520aecfe82678801977701d47b0b0184b7ff82682001aa780628f42a33079001037b67400183777b673801330038020a048269400133023a022847628269400150223a0240624929a001959b00017bb898007bb790009568a0127bba8800330750203c023bc495681811492880014928780149286801016489330720956880124929700150203e0217c49517e08477e07b67180164713308800102390780010256173f11200380010240330240022849675022400246673307900102837783997b6870013308407b6778010a08826a980182a71882a81082a90882aa6f7c6f8b6f986fa9826718017b6990017b79187b6898017b78107b6b88017b7b087b6c80017b7c82673801330042020a048269400133024402286b618269400150224402646149296001959b00017bb8587bb750956860127bba4833075020460262c3956818114928400149283801492828010364893307209568401249293001502048023ec382687001818756173f0848084001140800000000ffffffff7b6828011407ffffffff000000007b67b00050224a02206333004c020a08826a680133024e0228a962826a680150224e02a26295bc00067bca207bc9187bc8107bc708956720129568402f50205002c7c3492608014926f0004926f80049260001492610014926e8004926e0004926d800330c330b330a8268800195880188870182698801c897077b68d0007b67c800d487078877019569000182989800c887077b67c000d8870782989000c887077b67b80095671811807708017b9730330201018eb78ea8daa70882673001d827078ec9dac709d4ab07db780952092e067b6280017b6c88017b6b90017b6a980182673801330052020a0482694001330254022804608269400150225402fd5f492900017b98f8007b97f000956800127b9ae800330750205602fcc1956718114927e0004927d8004927d000647a3307209568e011492ac8000250205802d8c182687001818756173f0e48084033025a0228d36150225a02d06133005c020a0833025e02288b6150225e028861330260029569181101826798017b97c000826790017b97b800826788017b97b0009568c011826780017b97a80033075020620276c182674801956818117b87a000826750017b879800826758017b879000648a3307209568a011826960017ba988005020640243c182687001818756173f0e4808403302660228c96550226602c665330068020a08826a600133026a02288f65826a600150226a028865826b68017bba187bb9107bb8087bb7957b02d87b07c8780cd88c08da7708c89808d89807c8a70795693829959a00067bab287bac307ba8387ba740956780119568602f50206c02b7c1956718118277708477ff005107629569ff079599110101956b000182b78000959c00067bc71082b788007bc71882b790007bc7209567ff07957741079568ff079588210782ba98007bca2850206e02ec4d9567ff079577110195780006828a48828b40828c388272300628f7fd9567601182686801502070023cc13302720295691811018297508298588299488477ff8488ff826a2801d2a909d49808d4870751076eff82673801330074020a04826940013302760228ee5d8269400150227602e75d4919407b98387b9730956840117b9a28330750207802eabf95671811491720491718491710647a33072095682011491a080450207a02cabf82687001818756173f0e48084033027c0228c55f50227c02c25f33007e020a08826a68013302800228d15e826a680150228002ca5e9567181149074917f84917f095680011826920017b79e833075020820276bf9569ff079599110182675001959b00077bb7e800826758017bb7e000826760017bb7d8003307209568e010826a68017bbad000502084023dbf82687001818756173f0e4808403302860228385f50228602355f330088020a0833028a0228215d50228a021e5d959a00077ba7c800826790017ba7c000826788017ba7b8009568c010826780017ba7b000330750208c02e4be826748019568ff0795881101958900077b97a800826750017b97a000826758017b979800648a3307209568a010826960017ba9900750208e02a9be82687001818756173f0e48084033029002282f63502290022c63330092020a0833029402287560502294027260956780105020960264bf9569ff07959911017c9770075207b8fd95676010826818015020980246bf956aff0795aa110182a7680782a3600782a9580782a250073a08a800028e7c8e3bdb7c0bd828088e9cda980cd47308db8b0c520c668267080195ab00067bb7508267f0007bb7588267f8007bb7609567ff07957781079568ff0795886107826900017bb96850209a02614b9569ff079599110195980006828788007b670001828780007b67f8008287787b67f0008287707b6708012811fd9518e08488e064813a0bb00002c82b0bd82b0cc8c90a95aaffd39a02d89a09da2c09953cffc8c909d8c902883c01c9c707c827077b8a087b8b7b89107b87188267180150209c02ddbe9517e08478e064818267b8007b87188267c0007b87108267c8007b87088267d0007b87956740107b68600150209e0234be9567ff0795771101827248078273400782793807827b30079518e08488e064813a0ca00002c8cb04d8b407c8790ad89a0cda770cc83c0cd83c077b8c103a0cb80002c827077b8a087b84d8bc0a959901949ad22309959901949a7b8718510a0628231e826760015020a0023fbe95672010826868015020a202b9bd956aff0795aa110195ab000782b71082b81882b92882ba20847700ff867701956b382995bc00067bc9607bca587bc8507bc7489568802f826768015020a402f0bd8267d800956aff0795aa110195ab00067bb7e8008267e0007bb7e0008267e8007bb7d800956700109568ff079588e107826910017bb9d0005020a602c0499569ff0795991101829708077b67d800829700077b67e0008297f8067b67e8008297f0067b6710012872fb9567ff07957701073308405020a802d2ba9569ff079599110182920806829c0006829bf805829af005d42b07d4ca08d47808988820d4c707977720d48707510706281c1d826710018268b000d287074929e8054929e0054929d8059568ff079588e1067b97d00564a77b6a98017b6b90017b6280017b6c88015020aa029ebb956b000182b9980082b7880082b88000d487071408e0ffffff00000000d8890882ba900094a8947852080628b31c826708018268b000d27808839720956aff0795aa1101492ac805492ac0057ba8b0059568ff079588c106492ab8055020ac023cbb826738013300ae020a04826940013302b00228cb59826940015022b002c459d4780298aa206f99979820d4a8039899203a0ac000023a0bc800023a0cd00002826720019568ff07958811017b875005958700057b7aa8007b7ba0007b7c98003a0ad800024928680549286005492858057b7a90007b7980007b8378057b82700564873308409569ff079599a106956aff0795aa8106956bff0795bb610649278805826798015020b20210bd3307826878013309330018040a0d33021a0428445f5022b4024c5f82626801db270a7b6a98018267600182693001d4970782691801dab907826c500164cadb270a5022b6026c5d5020b8026a617b6730017b6818018267580182684801826990015020ba0250615022bc02d95d5020be026a615022c002285e82694801dba8097b69480182681001d4870782683001dab80782685801dba70864a97b68580182675001826840015020c2020a615022c402fc5b8263480182645801017b6b580198493f973a01d49a02974a01826b980198bb3fd4ba0a7b6a48018269280164847b625001d329086430d82903826b3001d8ab02db8302974801987a3fd4a8087b684001980a3f977701d47a0a82679801977701826b600198b83fd4870097b801826b680198b33fd4380397b801826b880198b43fd4480897bb0182675801d47b0b7b6b8801d4c8087b686801d43c087b686001d40c077b679801c9a907d82707d8a90882624001c9290bc98b0bc97b0b99bc3f82673801d2c70782684801c97804d8780882675001c987039478c98a07d88a08c982085022c602f15fd89b02c99b0988ab01c9b000826b7801c92b0b95aaff7b6080017b6b7801d4b0027b6a9001d49a0bd42b0a84cb017b697001330c520aecfe82678801977701d47b0b017b6b7001956780283308405020c80267b7956218218223800795270007827c78827a70827b688e378ec8db37088ea788b960ff859901dba709d43c077b677801db7809510906282e1f95b7a000d8b708c88a097b6a9801826a9801d8a90ada880ac8ca0ad8ca087b6b9001c8830b7b2748077b2950077b2a5807330740956860287b2b60077b6c80017b6388015020ca021fb8956c000182c9900082ca8000d4a90782c8980082cb8800d4b808d48707987720d4a808978820d487075107062833198267f000956a182195ab00077bb7288267f8007bb730826700017bb73895684028826708017bb74064975020cc02c0b78267c0000a040195690001829b90001407e0ffffff00000000d87b07829898009487829878948752070628d6188269d80082970881981082996f77977a206f88988820d48a0a9877206f98978920d4790998882083b720956b1821492b200795bc00077bc8187bc910956820287bca087b6738015020ce0246b78267b000956a182195ab00067bb7e0008267e8007bb7d8008267e0007bb7d000956700289568e0278269b8007bb9c8005020d002524295671821957900068298e8007b6858018298f0007b6850018298f8007b684801827800077b6840019567c0273308405020d202a1b595671821827ac0067b6a88018278b8067b688001827cb0067b6c6801827ba8067b6b6001826940017b798006826948017b797806826950017b797006826958017b796806957900067b9aa0007b9898007b9c900064799567a027956880277b9b88065020d402923f9569000182986882978800d48707829860648c829b8000d4b808d47808988820d4b707977720d48707510706288717956718218268b800957900067b98488268e0007b98508268e8007b985895686027826bb0007b9b6064c75020d60214b682678801826a8001d4a707140be0ffffff00000000826c6001d8bc088269680194989478520806282d178268b80083877b679000816720017b67880083c7207b6b58015020d80210ba837782689000826988000a0101826b68018262b80082676001c87202d872088269e000c8b909c88909d3b90ad8b90bdaa80b8268e80082678001c87808d8780a826c88018267b000c87c0cc8ca0ac88b0bd88b08c8a808d4b80882675801d8720a949a948a520a0628a3168327209569182149294006492938064929300695684027492928065020da023fb5140a00000000010000001407c0ffffff00000000956b000182b89000d8780782b99800949782b9789497520706285216838740956818217b6a5801648a8268600195ab00067bb808826868017bb810826880017bb81895682027826988017bb9207b6788015020dc02d4b4956b000182b97882ba980082b8900082b7589577a0d8780794a7949752070628f515838760956b1821492b0006492bf805492bf00595680027826970017bb9e8057b67685020de028ab4956a000182a89000140780ffffff00000000d8780782a99800949782a978949752070628a71583878000956918214929e0054929d8054929d0059568e0264929c8057b67205020e0023fb48267c0003300e2020a048269d8003302e4022833538269d8005022e4022c534929c005959b00057bb8b8007bb7b0009568c0267bbaa80033075020e60200b4956818214928a00549289805492888050264893307209568a026492990055020e802dcb38268a800818756173f0848084001140800000000ffffffff7b68781407ffffffff000000007b67709517e08477e07b679801647183793308408267a0003300ea020a0801826a980182a71882a81082a90882aa6f777b6780016f877b6778016f977b6770016fa77b6768015022ec02fa579569182182670801959a00057ba78000826700017ba7788267f8007ba770956880268267f0007ba76833075020ee023ab395681821956b000182b768958900057b976082b7707b975882b7787b9750648a3307209568602682b980007ba948055020f00205b38268a800818756173f08480840019517e08477e07b678001647183793308408267a0000a08826a800182a71882a81082a90882aa6f7c7b6c486f8b7b6b506f987b68606fa77b6758826998017b97187b98107b9b087b9c95674026826890015020f20266b19567182182772805826870d287077b67900195672026826898015020f40272b3956a182195ab000582b71082b81882b92082ba088477ff8488ff8499ff826b78d2ba0a826b9001d4ba0a956b383195bc00017bc9607bc8587bc7507bca4895688032826798015020f6029eb395670026826838015020f802ecb095671821957900048298f8007b6890018298f0007b6880018298e8007b6878019567e025826898015020fa02eab2956818218287e0048088c804826c780198c920826b800197ba20d4a90998ba20826b900197bb20d4ba0a97cb20d4b808956b383195bc00017bca787bc9707bc780007bc8689568a032826798015020fc020fb39517e08478e06481826948959901889701826a50c87a0ad4a907887701826c60c87c0bd8cb07826c58c8c7077b6748017b87187b6b38017b8b107b6a40017b8a087b68387b6950017b899567c025826888015020fe0213b095671821957c000482cac00082cbb80082c9b00082c8a800956c00017bc9307bca28d4a907d4b809d479099899207bcb20d4b707977720d497075107062850129567a0257b68180150200003c5af9569182195970004827ba000827a9800827890008eb78eacdbb70c7b68408e877b6a307b6b28d4ba0a7b67087b6c107b6a1001dbac0751070628e518829788047b6780009567802582683850200203a0b1956b182195bc000482c96882c77082c87882ca80007bca407bc8387bc73095676025956840257bc9285020040325389567182195780004828a60828b58828c508289488ea78eb8dba7088ec77b6978018899208599017b6c8001dbc7097b6a88017b6b9001d4ab07db7809826780008877207b671851096a0695671821956a000182a850957b00047bb80882a8407bb81082a8387bb8189568202582a9487bb92033075020060305b08267a800817756171f0c8268a800480820019517e08477e07b676801647183793308208267a0000a088267800095781fd87807826c40c87c09d8c90ada770a826b30c8ba0a7b6a600197aa3b989b05d4ab0b8267680182731897993b827a10988805d498076f346fa982681894c8826a100194a8948b9487c87402d84207c8790cc8cb0b7b6b9801d39b0cd89b0adac70a7b6a58018267780195701fd8700b826a8001c8ba07d8a70cdabb0c82639001c8c303973b3b987a05d4ba0a97773b980b05d4b707c847077b677801d847076424c8790bc8ab0bd39b0a7b6b7001d89b09daa709826b6001826730d87b07826a28c8a70798ba05977b3bd4ba0a826b680182b282bb08987705948a94876fb86f2bc8b707c88a0ad88a0cc8c70782605801c8a000d8a00ac8a70282679001d87307826a8801c8a707983a05977c3bd4ca0a987705c8b707956c000182cb9800c88a0ad88a08c88707c8a9097bc968d8a908c887077bc7609517e08473e064317b6358010182677801d8740782697001d39b08d89b09da8709826c6801d8c007826a6001d3a208d8a20ada870ad3c007d48707da790a7b6490017b347b6b98017b3b087b6080017b30107b6288017b3218510a7604956738314927a0014927980149279001492788019568c0326437502008038baf8263580182649001954401884701826b9801c87b0bd4b40788770182688001c88707d8870882628801c8820264702862ff956c18110182689801958720d88708c88409d8490ada880ac83a0ad83a08826b9001c88b0b826808017bc868077bc74807826700017bc770078267f8007bc778077bc950078267100195c900077b9780007b9a5895678018956860187b9b6050200a03aa368268d800958702d88708826ae00050220c03a5528268f000c88a0ad88a08826be800c8b808956b382995bc00077bc8a0007bca98007bc990007bc78800956740189568c03050200e0332ae95681811828730077b677801828728077b6770019567201833084050201003e5ab956b181182b2200795b80007828a18828c10828708d42c09d4a708d49808988820d4a909979920d498085208350e8268d0009788207b6a8801988a20492b0007492bf806492bf006956800187bbae8067b6798017b6280017b6c900150201203bdac956c000182c8980082c7880082c98000d4970a50221403b1515107e40d1402ffffffff000000008269d0009899207b6b6001826bc0007b6a680197ba20d4a90998ba20826cc80097cb20d4ba0a98cb2084aaff8499ffd22b0b838720956c1811492ce0067bcbd8067bc9c8069568e0177bcad0065020160343ac956a000182a8980082a7609577c0d8780782a99000949782a96894975107670d838740956918114929c0064929b8064929a806a0009568c0174929b0065020180300ac9567a0178268080150201a03b8aa956c000182ca6882c89800140b0000000001000000140760ffffff00000000d8780782c99000949794a75107080d956718117b6b6001647b8272a00682739806827c9006827988068387a0007b6958017bb968067b6c40017bbc70067b6350017bb37806956880177b6248017bb2800650201c037cab956b000182ba900082b9980082b760957740ffd8790794a782b868948751079f0c1407e0ffffff0000000082680801d878078268000194878268b800948751077e0c82685801826c5001d4c8078262480182634001d4230bd4b707987720d4cb0b97bb20d4b7075207550c8397c00050201e034caf7b6768018267380182685801502020033aaf6478826768018269580150202203e7a88268580182679801c88707d88709826b400182689001c8b808c89808d3b80ad8b80bdaa90b82698001826a4801c8a909826a8801826c5001c8ca0ac8ab0bd8ca0cd8ab0ac8c909c8a909d4b909140a40ffffff000000007b6a9001d8a70a948a949a510ac30b8377c000956918114929600649295806492950069568601749294806502024035daa82679801837760956918114929400649293806826870017b98280695684017492930065020260334aa7c6778018e7882679801837780009569181149292006492918067b98080695682017492910065020280308aa8267580195771f1408e0ffffff01000000d2870782689001ae87300b8378c0007b6890018267980150202a031fae83783307826990010a0d01826718857701826840826908db890782681082691001db980751075102826780008477e07b6710019567182182685001957a00037ba8c800826840017ba8d000826838017ba8d8009568e024826948017ba9e000330750202c0373a99517e08477e07b6770016471330820330750202e03a1ad9518e08488e07b6868016481837783893308200a084926980120330c49269001492688014926780149268001826a680182a71882a81082a90882aa6f736f846f903309826b78016fa7330a6472826870017b87187b6050017b80107b84087b83017b626801826710017b6b7801d87b07857b017b6a580194ab017b69600182678001d49707947b018268180182679801c87808826a3001c8ca0a8269200182679001c879098267280164c0826c8801c8c707520b7201826b9801d8b80bc8ba0ad30a027b603801d80a0cda2b0cc89c0cd89c02826b9001d8b909c89707c82707d4c809d4a707d47909989920d4c707977720d497077b6348017b64400152079f09956740225020300317a7956a182195ab000182b74082b83882b93082ba28956b383195bc00017bc7c0007bc8b8007bc9b0007bcaa8009568e032826770015020320381a98263480195330188370182644001c87404d4430788770182685001c87800d8800882676801c88707826898019589207b696801d8890a82683801c8a8097b694801d8890bdaaa0b82689001c8b80ad88a0b82688801c8b8087b68880182687801958b20d88b0c82695801c8c908d89809dacc09826c6001c8c909d8c90c82628001c8c2027b628001826c70017bc4087bc37bc01064727bc7187b605001826768017b679801826c48017b6a9001648a286dfe82678000826830d48707826840826928d49808d487075207bf0149264001492638014926480149265001280d028264900182639801826b8000826c1001d3cb0b826c30d4cb02826c40826b28d4bc0cd4c20b510b3601d8380bc8ba0ad30a02d80a0cda2b0cc89c0cd89c0bd84909c89707c8b707d4c809d4a707d47909989920d4c707977720d4970752071c089567c0245020340394a595671821957900038298c0007b6890018298b8007b6888018298b0007b6880018297a8007b6778018267800097773b9878387b6898019a8980003307ff3308ff50203603d44d7b6768017b6850013307ff3308ff8269980150203803964d7b6758017b68600182675001d487077b675001826798019579803307ff3308ff50203a03704d826b980188b98000826a5001db9a08826c5801826a6801d4ca0ada970a93b8ff93baff826b6001939b939c82677801e0a70782698001e0890882698801e0c909826a9001e0ba0a956b383195bc00017bcae0007bc9d8007bc8d0007bc7c800956800338267700150203c0347a782693098973f826828978801d48707826a4098a83f979901d49808826b800098b93f97aa01d4a90997ba0195aa01956b383195bc00017bcae8007bc9f0007bc8f8007bb7000233072033287701956a000182a72882a820d487071408e0ffffff0000000082a918d8890882a930949894785108ac06826718018378209567002550203e031da49567182182780004956900017b9850957a000382a8f8007b984882a8f0007b983882a7e8007b97400182694098973f826a3097a801d487077b67900198a73f826828978801d487077b678801826a800098a73f979801d487077b67800197a7017b67780197a8037b6898018d8980003307ff3308ff50204003284c7b6758017b687001826780008a79033307ff3308ff50204203e74b7b6768017b68600182685801d487077b675801826798018379803307ff3308ff50204403c14b826b980188b98000826a5801db9a07826c6001826a7001d4ca0ada980a93b7ff93baff939c826b6801939b82683801e0a80882694001e0790782694801e0b909826a5001e0ca0a956c000182cb78d4b70782cb8000d4b80882cb8800d4ba0a82cb9000d4b909956b383195bc00027bc9187bca207bc8107bc7083307403301c87608826738502046037aa59517e0847ce064c1826848958702d88708826a50502248032449826860c88a0ad88a08826b58c8b8087b6c98017bca107bc9087bc77bc8189567a02482686850204a0391a295671821827788038477ff7b679001956780248268980150204c03a0a495691821959a000382a7800082a87882a970956a3831826b900195ac00027bcb287bc7407bc8387bc930956860338267980150204e03e0a495676024826820502050032fa2956a182195ab000382b76082b85082b95882ba48d48707d4a909d497078e777b6790019567402482689801502052032aa4956a182195ab000382b73082b82882b94082ba38847700ff826b9001d4b707956b383195bc00027bc9607bca587bc8487bc75095688033826798015020540361a48267c000330056030a048269d8003302580328eb418269d80050225803e44149292003959b00037bb8187bb710956820247bba08330750205a03bba295681821492800034928f8024928e802016489330720956800244929f00250205c0397a250225e0320478267a800817756173f0c8268a800480840019517e08477e07b679001647183793308408267a000330060030a083302620328294650226203264695ab03502264037742826898017b8b7b8c087b89107b87189567e0235020660327a3956918218297c802826870d287074929a002492998027b9788029567c0239568a0234929900250206803812f95671821957900028298c0007b6890018298b8007b6888018298b0007b6880018298a8007b687801956780238268980150206a03c5a2956a182195ab000282b7800082b87882b97082ba688477ff8488ff8499ff826b78d2ba0a826b7801d4ba0a826b8001d4b909826b8801d4b808826b9001d4b707956b383195bc00027bc780007bc8787bc9707bca689568a0338267980150206c03daa29567602333084050206e0329a095681821958b000282b76082b95882ba5082b848956b00017bb780007bba9000d4a7077bb89800d49808d478089888207bb98800d49707977720d4870752076602956918214929400249293802492930029568402349292802208267980150207003ffa0956a000182a7880082a88000d48709140700000000010000007ba7781407e0ffffff0000000082a89800d8780782a8900094877ba97094975107070282679801837720956918218268b800959b00027bb8088268e0007bb8108268e8007bb81895682023826ab0007bba20502072038ea0826778019577dc8268c800d878078268d00094878268980094875107b4011408c0ffffff0000000095690001829798007b9878d88707829890009487829870948751078d018267980183774082689000502074037da4837782689000826988000a01018268b80082679801c88707d88708826be00082699001c8b909c88909d3b90ad8b90bdaa80b8268b000826a8001c8a808826ce800826a8801c8ca0ad8ca0cc8c808c8ab0bd8ab0ac8a808d4b808826a7801d8a70a949a948a510a130183774095691821492900024929f8014929f001956800234929e80150207603ae9f8267c000330078030a048269d80033027a03283d3e8269d80050227a03363ed4780298aa206f98978920d4a9039884208268b80095881f8488e0009588403a0b2000023a0c2800023a073000023a09380002956a18217babe00195ab00017bbcd8007bb7d0007bb9c800956c000182c7087bb7a00082c77bb798008267f8007bb790008267f0007bb788007ba4b8017ba3b0017ba2a80164a79569e022956ac022956ba0224927c00182c7980050207c037aa19567802233084050207e03b49d956a182195ac000182c7800082c87882c97082cb68d49707d48b09d47909989920d48707977720d4970751072e07009567ff07957711014927c0064927b8064927b0066479140700000000717b484e9568ff079588c1077b97c8063307502080038b9e9568ff07958811014928a8064928a006492890061164893307049568ff079588a10749299806502082035f9e82677001817756173f0c8268700148084001330701330924826878010a0d0133089001028388330701280b0d3308900102838833070128fe0c3308900102838833070128f10c3308900102838833070128e40c3308900102838833070128d70c3308900102838833070128ca0c3308900102838833070128bd0c4926d0054926c8054926c005140700000000c611522c9568c0057b67d805330750208403bf9d390880010256181f1220038001022033089001022862043308900102285a044926f0054926e8054926e005140700000000b878d6f49568e0057b67f80533073300940328769d49269006492688064926800614070000000018ecb890956880067b679806330733009403284f9d33089001028388330701281d0c3308900102838833070128100c3302860395691811014929180449291004140700000000c611522c7b9720049568201549290804330750208803099d390880010256181f12200380010220330890010228ac03330890010228a403956918114929380449293004140700000000b878d6f47b9740049568401549292804330750208a03c09c82675001817756171f0c8268500148082001330701330904826860010a0d0133089001028388330701286c0b33089001028388330701285f0b3308900102838833070128520b3308900102838833070128450b3308900102838833070128380b33089001028388330701282b0b33089001028388330701281e0b3308900102838833070128110b3308900102838833070128040b52476eeb149c5b03956738294927c0074927b8074927b0074927a807956700308377e00033008c030a1033028e03287f4250228e037c4250229003d73f510790043308900102838833070128b60a3308900102838833070128a90a33089001028388330701289c0a33089001028388330701288f0a3308900102838833070128820a492610044926080449260004140700000000c611522c956800047b671804330750209203849b390880010256181f1220038001022033089001022827023308900102281f02492630044926280449262004140700000000b878d6f4956820047b673804330733009403283b9b4926d0044926c8044926c00414070000000018ecb8909568c0047b67d804330750209403189b82674001817756171f0c8268400148082001330701330904826848010a0d013308900102838833070128c4093308900102838833070128b7093308900102838833070128aa0933089001028388330701289d093308900102838833070128900933089001028388330701288309330890010283883307012876093308900102838833070128690933089001028388330701285c0933089001028388330701284f0995691821491978491970140700000000969ee20b7b97800095688021491968330750209603509a390880010256181f12200380010220330890010228f300330890010228eb009569182149299800492990001407000000003bc167cc7b97a0009568a02149298800330750209803079a390880010256181f12200380010220330890010228aa00330890010228a2003308900102838833070128b308956938294929980049299000140700000000c611522c7b97a0009568c02949298800330750209a03b199390880010256181f11200380010220330890010228543308900102284d33029c0395691811014929b8014929b001140700000000635bb2d57b97c0019568c0124929a801330750209e036599390880010256181f112003800102203308900102280833089001020183883307013309040a0d014922d8004922d0004922c800140700000000717b484e9568e0217b27e00033075020a0031899956818214928c0004928b8004928a8004164893307049568c0214929b0005020a203f4988267a800817756173f0c8268a800480840013307013309248268a0003300a4030a0d015247275914a04d956738294927e0074927d8074927d0074927c80795670030837700013300a6030a103302a80328253f5022a803223f5022aa03013f51074e0133089001028388330701285c0752473a6750b655019567383149176049175849175049174895670030837780013300ac030a1001956a383182a75882a86082a95082aa48d49808d4a707d487075107630133089001028388330701280b07492658010182676801977701826b5801d47b0b014926d8034926d0034926c8039568c0037b6bc003826718015020ae030198330820826718015020b003399c837833092033070a0d280a33092033070a0d01492918014929100149290801140700000000717b484e956820227b97200133075020b203bb9795681821492800014928f8004928e800416489330704956800224929f0003300a20328939764ba956718218268f000957c00017bc8488268f8007bc850826800017bc85895686022826908017bc96064b77b6a98013300b600285c978267980181775617638f0033089001028388330701281f068267980181775617437f013308900102838833070128070652474a45080e9805956738294927400249273802492730024927280295670030837760fb3300b4030a103302b603288f3d5022b6038c3d5022b803343d5107d6053308900102838833070128b9055022ba03a63bac78d0053308900102838833070128a2059567201b3300bc033302660528753c95681819958900028297087b6798018297107b6790018297187b6788018297207b6780019567001b3300be0333026a0528473d95681819958900018297e8007b6778018297f0007b6770018297f8007b676801828700027b6760019567e01a3300c0033302700528103d956b181995bc000182c7c80082c8d00082c9d80082cae0007bca80007bc9787bc8707bc768956b000182b7607bc7a00082b7687bc7980082b7707bc7900082b7787bc7880082b780007bc7c00082b788007bc7b80082b790007bc7b0009567c01a9568a01a9569801a82ba98007bcaa8005020c203bc243308900102838833073309330018040a0d33021a04288a3a9567a01e3300c40333027a05286d3b95671819827788057b6790019567801e3300c60333026a0528573c95671819827768057b67f00033079001037b67080183777b6700013300c8030a04826908013302ca03282533826908015022ca031e3349296005959b00057bb8587bb7509568601e7bba4833075020cc0345953302ce0395681819014928400549283805492828050264893307209568401e492930055020d0031c9533078001027b671801390780010233083fac7811826818014808403302d2032853385022d20350383307900102837783993308407b6710013300d4030a08826a98013302d60328a535826a98015022d6039e357b679801647182679001977720987920956718194927200549271805492710059568201e7b69f8007b79080533075020d803959482677001956818197b870005826778017b87f804826780017b87f004648a3307209568001e826988017ba9e8045020da03629482671801817756173f12826718014807403302dc0328a1335022dc039e333300de030a08826a90013302e003280637826a90015022e003ff36826700013300e2030a04826908013302e40328e939826908015022e403e2397b6890019877206f987b688801978820d487077b6780019567e01d826898015020e603d79495691819018297d0048098cc048299d804977a20d4a808979a20987720d4a707956b000182ba8000d3a70782ba9000d3a80882ba8800d3a909989920d49808d487075207680695670030837720010a0901956838318282828bf87b6b5801956738298274f007828ae87b6a4001682768b8958940db2709684768a8958840db470895878000d42b0adaa709d8870c94ac8ecb8897f000857a01daca0b88b7019570ff9ab39accc9ac0a9a99ef008e3c8e07da0c07889c000185cc018ea8dba80cdbb70c7b6438017b625001d42407826b400182685801d4b808d48707887701d4c70764b894787b68980152070a068597ff00d43707d40a08d487075107f9055022e80351325020ea03003a5022ec03d4385020ee031a3a5022f00317385020f2030e3a7b6720017b68e80082696001889780007b67e00082674001826838015020f403ec395022f6037439826ae00093a77bb7785108860564a98267680182682801d4870764ac8268e8005022f8032f315020fa0394395022fc037e385020fe0388397b67e800502200049137502002049e3950220404fb348268e80050220604ac3550200804623950220a04c33250220c049434d89002826b2801d8ab0cdb320c50220e04a634d4870297b801826b700198b33fd4380397b801826b780198b43fd4480897bb0182675801d47b0b7b6b780182675001d478087b687001d437087b686001d42707502210042630d89b02c99b0988ab01c9bc0c827b8800c92b0b95aaff7b7c90007b7b8800d4bc027b7a9800d49a0bd42b0a840b017b7b587b79800049265001520a68ff289404956938295247ce3c1245484929400549293805492930054929280595670030837760fe330012040a1033021404280538502214040238502216049d375107f40533089001028388330701282233089001028388330701281683883307013309330018040a0d33021a0428f3353309330018040a0d33021a0428e43550221a04e135ac78c205330890010228ce9567602133001c0433027a0528b636956718218277487b67700133079001037b67880183777b67800133001e040a04826988013302200428da2f8269880150222004d32f4919407b98387b9730956840217b9a28330750202204af909568182149182049181849180802648933072095682021491910502024048f9033078001027b679801390780010256173f0c82689801480840019517e08479e07b69780164913307900102837783993308407b679001330026040a08826a780133022804287a2f826a780150222804732f9517e08477e07b6778016471826770019777209879209567182149074917f84917f0956800217b6970017b79e8330750202a04099033022c04956918190182675001959b00077bb7e000826758017bb7d800826760017bb7d0003307209568e020826a68017bbac80050202e04cf8f82679801817756173f0c82679801480740019517e08477e07b67680150223004ad30330032040a08826a680133023404281334826a6801502234040c34826b78017bba187bb9107bb8087bb782678001330036040a04826988013302380428433582698801502238043c357b6868019877206f987b686001978820d487077b6758019567c0208268780150203a04319095691819018297b0078098ac078299b807977a20d4a808979a20987720d4a707956b000182ba58d3a70782ba68d3a80882ba60d3a909989920d49808d487075207b9048267800133003c040a048269880133023e0428a02c8269880150223e04992c49298007959b00077bb8787bb770956880207bba68330750204004c08e330242049568181901492860074928580749284807026489330720956860204929500750204404978e82679801817756173f0c82689801480840019517e08477e07b67780150224604752f0a08826a780182a71882a81082a90882aa6f777b6778016f877b6768016f977b6760016fa77b67580133024804956918190149294007492938074929300795684020826770017b972807330750204a04238e8267580195681819958900077b9720826760017b9718826768017b9710648a33072095682020826978017ba9080750204c04ef8d82679801817756173f0c82679801480740019517e08477e07b67780150224e04cd2e0a08826a780182a782a80882a91082aa186f726f876f996faa951be084b8e0648195ab02d8ab0ac8a90cd89c09daaa09c87909d87907c827077b8c087b8b7b89107b8718956700207b687801502050046d8e956718198277f0068478ff00510888033302520495691819014929d8064929d006140700000000c884c1c17b97e0069568e01f4929c80633073300860428388d3302540495691819014929b8044929b004140700000000dbf71c6f7b97c0049568c01d4929a80433073300080528088d492658010195690001829778977701829858d487077b979800018267f00082689801ab87230582670001330056040a04826908013302580428892a8269080150225804822a49298004959b00047bb8787bb7709568801d7bba68330750205a04a98c33025c0495681819014928600449285804492848040264893307209568601d4929500450205e04808c82671801817756173f12826818014808403302600428bf2b50226004bc2b330062040a083302640428922c502264048f2c4929400449293804492930049568401d8267f8007b9728043307502066042f8c8267780195681819958900047b9720826780017b9718826788017b9710648a3307209568201d826990017ba9080450206804fb8b82671801817756173f128267180148074033026a04283a2b50226a04372b33006c040a0833026e04289c2f50226e04992f95ab0250227004ea2b956838317b8b087b8c107b89187b87209567001d9568403150207204958c956718197c77f003510705043302740495691819014929d8034929d0031407000000006d53a9a77b97e0039568e01c4929c80333073300080528648b826798018177561763f80533089001022818fa95672002330076043302660528ff30956a000282a72082a82880693002492618027ba9107ba808956800027ba73307502078041f8b4926f8014926f0014926e001033307209568e0014926e80150207a04018b33078001027b679801390780010256173f0c82689801480840019517e08479e07b698801649133079001027b6790018377839933084033007c040a08826a880133027e0428662a826a880150227e045f2a95bc00027bca607bc9587bc8507bc7489567c0019568802b50208004848b8067c0014926b8014926b0017b67a001330780009568a0014926a80150208204708a82679801817756279f0018826898014808a0008267900183788000286cf282679001837880002861f23302840495691819014929980749299007140700000000dbf71c6f7b97a0079568a02049298807330750208604188a82679801817756171f148268980148082033070133090428b707330701330904826890010a0d330206059569181928b9071408ffffffff000000007b686801956a181982a8e80682a9f80682aa0007867701956b38317bb8687bb9787bb7707bba80009568a0318267780150208804118b8267800133008a040a048269880133028c04284b278269880150228c0444274929c006959b00067bb8b8007bb7b0009568c01f7bbaa800330750208e0468893302900495681819014928a00649289806492888060164893307209568a01f49299006502092043f899517e08477e07b677801647182679801817756173f0c82689801480840019517e08477e07b67600150229404112a330096040a0801826a600182a782a80882a91082aa186f776f886f996faa95ab03502298041329826878017b8b7b8c087b89107b87189567801f50209a04c389956718198277680682686801d278085108f40582686801c88707d287077b6798019567601f8268780150209c049489956a181980a74c0697772095ab000682b86082b95882ba50826b9801d4b707956b38317bb8a0007bb998007bba90007bb788009568c0318267780150209e04cb89826780013300a0040a04826988013302a20428f026826988015022a204e926d4780298aa206f99979820d4a808989920826a7001956718197b7ae8053a0a4000023a0b4800023a0c5000027b7a40067b7b380649270006957b00067bbc303a0a5800024927f8054927f005492720067bba287bb9187bb8109569401f956a201f956b001f7b720806330733085020a4044e8a330782689001289ef63302a60495691819014929980449299004140700000000635bb2d57b97a0049568a01d49298804330733000805289387826700013300a8040a04826908013302aa04283a25826908015022aa0433254929c003959b00037bb8b8007bb7b0009568c01c7bbaa80033075020ac0457873302ae0495681819014928a00349289803492888030464893307209568a01c492990035020b0042e8782671801817756173f12826818014808403302b204286d265022b2046a263300b4040a083302b6042840275022b6043d274929800349297803492970039568801c826798017b97680333075020b804dd868267780195681819958900037b9760826780017b9758826788017b9750648a3307209568601c826990017ba948035020ba04a98682671801817756173f12826718014807403302bc0428e8255022bc04e5253300be040a08826a90013302c004284c27826a90015022c00445277b67900164713302c20495691819014929400349293803492930039568401c8267f8007b97280333075020c40441868267700195681819958900037b9720826778017b9718826780017b9710648a3307209568201c826988017ba908035020c6040d868267180181775517400c82671801480740019517e08477e07b67880164718379330840826710013300c8040a08826a88013302ca04289a25826a88015022ca049325826890017b8a187b89107b8b087b879567001c5020cc04a486956718198277e8028478ff0051086c03847800ff005108b1033302ce0495691819014929d8024929d002140700000000f08982c97b97e0029568e01b4929c8023307330008052866859567ff07957741063300d0043302660528102b9568ff0795881101958900058297487b67d8008297407b67e0008297387b6718018297307b6710019567ff07957721063300d20433026a0528da2b9568ff0795881101958900058297287b67d0008297207b67c8008297187b67c0008297107b6700019567ff07957701063300d40433027005289f2b9567ff07957711018277f0047b67080195670030837780fe0a09019567382982726005827b58057b6b580182745005827a48057b6a4001682768b8958940db2709684768a8958840db470895878000d42b0adaa709d8870c94ac8ecb8897f000857a01daca0b88b7019570ff9ab39accc9ac0a9a99ef008e3c8e07da0c07889c000185cc018ea8dba80cdbb70c7b6438017b625001d42407826b400182685801d4b808d48707887701d4c707947b520745038597ff00d43707d40a08d48707510734035022d60488235020d804372b5022da040b2a5020dc04512b5022de044e295020e004452b7b6720017b68f80082696001889780007b67f00082674001826838015020e204232b5022e404ab2a826af00093a77bb7785108c70264a98267680182682801d4870764ac8268f8005022e60466225020e804cb2a5022ea04b5295020ec04bf2a7b67f8005022ee04c8285020f004d52a5022f20432268268f8005022f404e3265020f604992a5022f804fa235022fa04cb25d89002826b2801d8ab0cdb320c5022fc04dd25d4870297b801826b700198b33fd4380397b801826b780198b43fd4480897bb0182675801d47b0b7b6b780182675001d478087b687001d437087b686001d427075022fe045d21d89b02c99b0988ab01c9bc0c827b8800c92b0b95aaff7b7c90007b7b8800d4bc027b7a9800d49a0bd42b0a840b017b7b587b79800049265001520a68ff28d501956718194927d8054927d0054927c8056479140700000000717b484e9568e01e7b97e005330750200005a2823302020595681819014928c0054928b8054928a8051164893307049568c01e4929b00550200405798282679801817756173f13826898014808403307013309242818330701330924826890010a0d3302060595691819281b826890010a0d3302060595691819280b3302060595691819014929380249293002140700000000b6e2a4af7b9740029568401b492928023307502008050b8282671801817756171f0c8268180148082001330701330904826810010a0d01956a181982a8f00282a9000382aaf80286770001956b38317bb8307bb7287bba387bb940956860318267900150200a0524838267000133000c050a048269080133020e052849208269080150220e054220d4870798aa206f99979820d4a808989920956c1819492c6002492c5802492c5002826a98017bca4802826af8007bca68023a0a6000023a0b680002492c8002492c78027bcac0027bcbb8023a0a7000023a0b780002492c7002492ca0027bcab00295ca00027baba8007ba998007ba8900064c89569c01b956aa01b956b801b956c601b7b87880233073308502010054c8433078268100128d9ef492658010182677801977701826b5801d47b0b0182670001aeb7c206826708019777209878209587ff88773293877b68280193875107f8061407ffffffff000000007b6730018267e000977720987920956aff0795aa1101492aa8048267100195ab00047bb79000826718017bb798009568ff079588a1057b6940017bb9a00033075020120579809568ff07958811014928880449288004492870040364893307209568ff079588810549297804502014054d8033078001027b677801390780010233083fac780b8268780148084001140700000000ffffffff7b6720015022160579233307900102837783993308407b677001330018050a08826a980133021a0528a81f826a980150221a05a11f95bc00057bca80007bc9787bc8707bc7689567ff07957761059568a02e50201c05c1809567ff079577110182775004492638014926f8004926f0004926e80049268801492690014926980182683001d287077b670801330701017b678001826b90018eb7826a98018ea8daa7088267080182698001d89707826c88018ec9dac709d4ab07db78095209e80595690001829730829838d28707829828ae87d4059569ff07959911014929480482671001959a00047ba730826718017ba7389568ff0795884105826740017ba740330750201e051e7fff9567ff0795771101492728044927200449271804647a3307209568ff0795882105492a10040250202005f17eff82677801817756173f128268780148084033022205288b20502222058820330024050a083302260528d01c50222605cd1c7b970804826790017b970004826788017b97f8039568ff0795880105826780017b97f003330750202805937eff826748019568ff07958811019589000350222a05ca229588e104826960017ba9d00350202c056a7eff82677801817756173f128267780148074033022e0528022350222e05ff22330030050a08826a600133023205289024826a60015022320589246fa9826868017b6958017b89187b6760017b87107b6b50017b8b087b6c48017b8c9567ff079577c10450203405f37eff9569ff0795991101959a000382a7b80082a8c00082a9b0008477ff8488ff826a2001d2a909d49808d4870751074103956c000182c848958702d8870882ca5050223605e92282c860c88a0ad88a0882cb58c8b808956b382995bc00057bc788007bc990007bca98007bc8a0009567ff079577a1049568c02e50203805747eff9567ff0795771101827798038477ff005207dd029569ff07959911014929880382671001959a00037ba770826718017ba7789568ff0795888104826740017ba78000330750203a05377dff9567ff0795771101492768034927600349275803647a3307209568ff0795886104492a50030450203c050a7dff82677801817756173f128267780148074033023e0528a41e50223e05a11e330040050a08826a680133024205280c1c826a680150224205051c9569ff07959911014929480349294003492938039568ff0795884104826700017b973003330750204405a47cff826750019568ff0795881101958900037b9728826758017b9720826760017b9718648a3307209568ff0795882104826968017ba9100350204605677cff82677801817756173f12826778014807403302480528011e50224805fe1d33004a050a0833024c0528461a50224c05431a7b970803826790017b970003826788017b97f8029568ff0795880104826780017b97f002330750204e05097cff826748019568ff0795881101958900025022500540209588e103826960017ba9d00250205205e07bff82677801817756173f128267780148074033025405287820502254057520330056050a083302580528a71d50225805a41d9567ff079577c10350205a05927cff9567ff07957711018277b0028478ff005108fb0084770000ff005207f1009568ff079588110182678001958900027b9750826700017b9770826710017b979000826788017b97588267c0007b9778826718017b979800826790017b97608267c8007b9780008267e0007b97a000826798017b97688267d0007b978800648b9567ff079577a1039568ff07958881039569ff0795996103826ad8007bbaa80250205c05dd098267e800956aff0795aa110195ab00027bb7288267f0007bb7208267f8007bb7189567ff07957741039568ff0795882103826938017bb91050205e0535089568ff0795881101958900028297487b67e8008297407b67f0008297387b67f8008297307b67380101956aff0795aa11018267800195ab00017bb7d000826788017bb7d800826790017bb7e0009567ff07957701039568ff079588e102826998017bb9e80050206005ca079568ff079588110182870802956900017b979800828700027b9790008287f8017b9788008287f0012892fa9569ff07959911014929e0044929d804140700000000d94b11cf7b97e8049568ff079588e1054929d004330750206205f579ff390880010256181f1220038001022033089001022897e03308900102288fe09569ff07959911014929c0044929b80414070000000059e962787b97c8049568ff079588c1054929b004330750206405a379ff390880010256181f1220038001022033089001022845e03308900102283de03307826870012852e80a020182171082181814090000000001000000d37909d48909987a2088aa01948a939a510a248219821a087b697b6a087b67107b68189551c08210388215308216289511403200330890010283883307013309330068050a0d33026a0528d91f50226a05d61f3308240a0201821718821810821908d4780a889b0194ab510b0d821a50226c05321c320033089001028388330701330933006e050a0d3302700528961f50227005931f330844330072050a023302740528ea1c50227405e71c520b0b50227605f21b3200330890010283883307013309330078050a0d33027a0528511e50227a054e1e33007c050a0233027e0528ad1c50227e05aa1c520b0b50228005b51b3200330890010283883307013309330082050a0d019511a07b10587b15507b16489515608411f0828910828c08828b82881897923f98ca01d42a02978a3f989901d49a0a97cc3f98b901d49c0c98830184bb019ab888b60184c97fd2a804d2280adbbc09d2380b88982094a8d4b40c94c8ab86167b797b7a087b74107b7b1850228405df1d320050228605581850208805e277ff491118491110490122330704641849110850208a05ca77ff390880010256183f0b200380010240013308900102838833070133092433008c050a0d019511907b10687b15609515708411f0827a1882791082738277088eab8e9cdbab0c8e72883b8085bb01db720bd4a908db8c0b520b4395388000d8380bc8b70cd87c07dabb07c89707d89709c8a9097b18407b1c487b1750330740c871087b195850208e053f77ff9551908210688215609511703200502290059a17502092052477ff4911184911104901413307046418491108502094050c77ff390880010256183f0b2003800102400133089001028388330701330924330096050a0d01951170ff7b1088007b1580007b1678951590008411f064728289827408828c088273959a1fd89a00c80c0984aae07b1308c8a303d8a30bc8490ac8ba0ad39a06d89a07da6b07822b18d8c90c828610822210828818da000cc86c0cd86c06c82c09c89707d8c90cd89709c8b808c86808c8c808c8980c8ec88e79dbc809d4c7088ea6db8906520658821808d88308d34a09d84a06da9806d82708d3bc09d8bc0bda980bd32708d49808da860b520b317b13507b1a587b17603307409518507b1c68502098052076ff955170ff821088008215800082167895119000320050229a05a41b50209c05fe75ff4911284911204911104133070495181049111850209e05e475ff390880010256183f0b20038001024001330890010283883307013309243300a0050a0d019511807b10787b15707b1668951580008411f0829b828a829608828308829410828c10829918828818d363027b1608d863067b1b187b1a10d8ba0a7b1ada2a06d3980ad89800d84c02daa200d34c0bd4ba0adaa600520046c94c0ac99808c92808d86a09c99808c96a0a821908c99309821bc9b909821b18821c10c9bc0b7b7b7b79087b7a107b7818955180821078821570821668951180003200491150491148491140140700000000717b484e9518407b175833075020a2050375ff491138491130491120113307049518204911285020a405e974ff390880010256183f0b20038001024001330890010283883307013309243300a6050a0d01828a18828b108282088eac8eb9dbac09d4ba0a8e2bdba90b520b30828895891fd88908c828088488018499e0959a20d89a09c8980bd88b08da99084917187b7a7b7b087b781032009511b07b10487b15409515508411f05022a805d7145020aa056174ff49111849111049014133070464184911085020ac054974ff390880010256183f0b20038001024001330890010283883307013309243300ae050a0d019511c0fe7b1038017b1530017b162801951540018411e064760a0c0151074f017b16180a0c64794921f8004921f0004921e800951700019518e0007b19207b19e0005020b0051eff821700017b1740821708017b1738821710017b1730821718017b17289517c0003308405020b2057972ff8217d8007b17588216d0008219c8007b1950821ac0007b1a488218287b1898008218307b1890008218387b1888008218407b1880007b17b8007b16b0007b19a8009517a000951880007b1aa0005020b4057efc821748821858821950d48909d46708d498089888207b1640d46909979920d49808520884004911784911704911689518608219207b19605020b6052273ff0a0c01821a48821840821958d498081409e0ffffff00000000d89a09821b5094b99489510944647698772052073c83a72083687b183864685020b8052877ff7a16200183778318200133090a0b01821b4881172001821618821858821940821a50821c38aec70e00330a33093308330b60017b6b7b6a087b69107b68189551c0fe82103801821530018216280195114001320080881409ffffffff00000000aa981c958801888901d4980a88aa014917187b787b79087b7a1032009511b07b10487b15409515508411f05022ba05c1125020bc054b72ff49111849111049011133070464184911085020be053372ff390880010256183f0b20038001024001330890010283883307013309243300c0050a0d019511907b10687b15607b16589515708411f0828a187b1a08829b1882847b14828a08829608829c828310829210c8a609c8c404d8c40cc8c909d36900d86906da0c06c83208821c08c8bc0cd8280bc8cb0bc8680cd88c08c88b00d3a90bd8a90a8218d88406dbba06d83c02821808d3800bd8800adab20ad33c08d4b808db8a0652061f7b747b79087b7c107b701895519082106882156082165895117032005022c20509175020c4056371ff491128491120491110113307049518104911185020c6054971ff390880010256183f0b20038001024001330890010283883307013309243300c8050a0d01951100f9951a00067ba0f8007ba5f0007ba6e800951500078411e0641682997b692882887b68308278107b68208278087b683882777b6740836720060a0901826238068263300682672806826b20067b6b7868296838958a40db290a687968b8958840db7908958b8000d42309da9b0ad88b0c949c8ecb88a8f000858901dac90b88b4019540ff9ab49accc99c099aa8ef007b64a8008e4a8e0cda0a0c7b68b800888a000185aa018e98db980adbbc0a6474826778d42408d4370bd4b808888801d4a808647a948a5208e9028268b8008588ff00826ca800d4c808d4090bd4b8085108d002826bb80095ba017b6ab00088a801c898087b68a000d4a808888801c8c8087b689000d8c808c808087b6898009ab9ff007b6988009a99800064487b64707b62687b63605020ca051c177b6780007b6850826760826868826988005020cc052b177b67487b68188268b8009a897f8267788268705020ce0512177b67107b68b80082698800889780007b67588267788268705020d005f416826c58826b9000826a98008269a000d4a909826ab000d4ba0ad49a0a93c77b67a800510a0502826750826918d497078269b800dac907826268642a82638800db370a7b6ab80082678000826948d49707826910dac907826b6064badb370a7b6a800093c87b6888004916588051018267b00095798064b764285020d2054f167b67507b68188267788268708269b0005020d40539167b67107b68488268b0009a8980008267608268685020d6054516826948d49808826ab00088ab80007b6b48826918dab908826970dba8097b6970826810d48707826850dab807826878dba70864a97b68788267608268685020d805dc15330c82694893989397826a5895a9ff7b69508ea99599ff7b6948826370826478017b6c7898493f973a01d49a0c974a01826bb80098bb3fd4ba0a7b6a688269487b6c706434d3c903d8c902826b50d8ab0cdb320c978801987a3fd4a8087b6860984a3f977701d47a0a8267b800977701826b800098b83fd4870297b801826b880098b33fd4380397b801826ba80098b43fd4480897bb01826778d47b0b7b6ba80086887b68880086387b68800086277b67b800c9a907d8c707d8a908826260c9290bc98b0bc97b0b99bc3f826758d2c707826868c97804d87808826770c987039478c98a07d88a08c98208826ab0008260a000d40a09889901826b9000d89b02c99b0988ab01c9b000826b9800c92b0b95aaff7b60a0007b6b9800d4b0027b6ab000d49a0bd42b0a84cc017b699000520af2fe2805330c018267a800977701d47c0a01826730aea7a4088267209777209879204926f8058267407b67e0058267387b67e8059568e0057b69a8007b69f00533075020da053d6dff4926d8054926d0054926c005023307209568c0054926c8055020dc051e6dff3308800102390780010256173f0b200380010240019517e08479e07b69a000649133079001027b675083777b68b00083993308407b67b8003300de050a083302e00528320e5022e0052f0e8267289777209877204926b8054926b0054926a8059568a0057b6790007b67a00533075020e205a96cff826778956a00057ba79800826780007ba79000826788007ba7880033072095688005826998007ba980005020e405786cff8268b000818756173f08480840019517e08477e07b6798005022e605c6103300e8050a083302ea0528430f5022ea05400f956760055020ec052e6dff806764058268680582697005977720d49808d487075107a107492658058267407b6740058267387b674805956840058267a8007b67500533075020ee05fc6bff4926380549263005492620050433072095682005492628055020f005dd6bff8268b000818756173f08480840019517e08477e07b67a0005022f2052b100a08826aa00082a71882a81082a90882aa6f777b67a0006f877b6798006f977b6788006fa77b678000492618054926100549260805956800058267307b67000533075020f405766bff82678000956a00047ba7f800826788007ba7f000826798007ba7e8003307209568e0048269a0007ba9e0005020f605446bff8268b000818756173f08480840019517e08477e07b67a0005022f805920f3300fa050a083302fc0528720c5022fc056f0c4926d8044926d0044926c8049568c004826790007b67c00433075020fe05f26aff826778956a00047ba7b800826780007ba7b000826788007ba7a8003307209568a004826998007ba9a00050200006c16aff8268b000818755174008480840019517e08477e07b679800502202060f0f330004060a0833020606288c0d50220606890d9567800450200806776bff826880048487ff0051071f067b68980084870000ff0052073906826798047b6758826790047b6760826788047b6768492658048267407b6740048267387b674804956840048267a8007b675004330750200a062f6aff49263804492630044926200401330720956820044926280450200c06106aff8269b000819756173f08480940019517e08477e07b67880050220e065e0e0a08826a880082a782a80882a91082aa186f777b6788006f877b6780006f977b67786fa77b67709518e08488e064818269980086970000018269587b89188269607b89108269687b89087b878267a00050201006056bff82689800848700ff007b6798009517e08478e06481826770957701887901826b78c89b0bd4b709889901826a8000c8a909d8a90a826c8800c8ca0a7b8a187b89107b8b087b87956700047b68a00050201206386aff8262180482631004826a0804826400049518e08488e064813a0c200102c84c0cd84c09c89a079577ffd3a700d8a70bda090b9539ffc89b0bd89b00883901c99209c809097b87087b8c7b8b107b8918826798005107a6013a072801027b679800d8740794a7d4230994975207ce048267a00050201406376aff9517e08478e06481826970959702d8970b826a78c8ba09d8a90adabb0a826b8000c8ba0ad8ba0c826b8800c8cb0b7b8a107b89087b877b8b189567e0037b68a000502016067769ff8262f8038263f003826ae803826be0039518e08488e0648182649800c8b404d8b407c87a09d8a90cda770cc83c0cd83c077b8c103a0c300102c827077b89087b84d8bc0995aa0194a9d2230a95aa0194a97b871852096a048267a000502018068c69ff9567c00333084050201a06da66ff956b000382b7d80082b8d00082b9c80082bac00050221c06b70852072c034926b8034926b0034926a8039568a003826798007b67a00364a77b6ab80050201e06d167ff4926380349263003492628038267307b672003492658034926500349264803826790007b674003492678038267a8007b6770038267387b6768033a073801023a084001023a09480102826a407b6a60037b6798037b6890037b6988033a0750010233082095698003956a6003956b4003956c20037b6780038267b80033003006288c6aff3a072801027b679800d8740794a7d4230994975207ba038267a000502020069568ff49265806492650064926480649264006956780029568400650202206fe67ff8262980282639002826a8802826b80029518e08488e0648182649800c8b404d8b407c87a09d8a90cda770cc83c0cd83c077b8c103a0c300102c827077b89087b84d8bc0995aa0194a9d2230a95aa0194a97b871852097f034926780649267006492668064926600695676006502024060368ff502026060465ff3a08b001037b68a0003a08c001037b6888003a07b801037b6780000a0a826880006f88978920826a88006faa98aa20d4a909988820826aa0006faa330b90010397ac20d4c80898aa203d0aa001033e089801033e0990010349269806492690064926880682689800956900067b9880004826a0068e77fc089a787b98d8007b98d0007b98c8007b98c00097bb2098bb20977723d4b707956880069788209888209569c006979920d4890a826b5097bb2098bb209568a006978820d4b80c3308ff3309ff0a7b67a0009567600250202806a1f18267a0005207f8029567200233084050202a067064ff956b000282b73882b83082b92882ba2050222c0651065207c60049261802492610024926080295680002826798007b67000264a77b6ab80050202e066b65ff4926980149269001492688018267307b6780014926b8014926b0014926a801826790007b67a0014926d8018267a8007b67d0018267387b67c8013a075801023a086001023a09680102826a407b6ac0017b67f8017b68f0017b69e8013a077001023308209569e001956ac001956ba001956c80017b67e0018267b800502030062a68ff955100f9951700068270f8008275f0008276e80095110007320000492610064926080649260006140700000000d94b11cf956800067b671806330750203206a664ff390880010256181f0b20038001022001330890010283883307013309040a0d014926d0004926c8004926c0001407000000006d53a9a79568c0007b67d800330733003e06285b64ff4926f0004926e8004926e000140700000000b6e2a4af9568e0007b67f800330733003e06283364ff49267004492668044926600414070000000000f90f56956860047b677804330733003e06280b64ff4926d0024926c8024926c002140700000000717b484e9568c0027b67d802330750203406e763ff4926b8024926b0024926a002113307049568a0024926a80233003c0628c463ff492610034926080349260003140700000000717b484e956800037b671803330750203606a063ff4926f8024926f0024926e002113307049568e0024926e80233003c06287d63ff492630014926280149262001140700000000717b484e956820017b6738013307502038065963ff49261801492610014926000111330704956800014926080133003c06283663ff492670014926680149266001140700000000717b484e956860017b677801330750203a061263ff49265801492650014926400111330704956840014926480150203c06f362ff8267b000817756173f138268b000480840330701330924286e3307013309248268b8000a0d330733004006283b67ff49265002492648024926400214070000000018ecb890956840027b675802330750203e069d62ff8267b000817756171f138268b00048082033070133090428183307013309048268b8000a0d33073300400628e566ff8268b8000a0d33073300400628d566ff330750204006cf66ff33070150204206c566ff82970881981082996f77977a206f88988820d48a0a9877206f98978920d4970798882095691819320282970881981082996f77977a206f88988820d48a0a9877206f98978920d49707988820956918113202826a680182a71882a81082a90882aa6f777b6760016f877b6758016f977b6750016fa77b6748019517e08477e07b67680164719569ff07959911018267980132027b676801c9a007d8c707d8a008826c3801c9c00bc98b0bc97b0b99b03f82673001d2700782684001c97804d87808c989039498c98a077b674801d88a08c98c0895670001827a9800827c9000d4ca09889901827b8000320282970881981082996f7a97a7206f889888203202da980782695001649a649882696001db970a7b6a680182674801826a3001d4a707826a2001daca07826b580164badb970a7b6a60018267700193c77b677001492630018051018267980195798064b7320282970881981082996f77977a206f88988820d48a0a9877206f98978920d4970798882095691821320282a71882a81082a90882aa6f777b6768016f877b6760016f977b6758016fa77b67500132029517e08477e07b679001647183793308408267100132029598017b689801888701c8a7077b679001d48707887701c837077b678001d83707c807077b6788019a98ff007b6860019a8980008267400182683801320282a71882a81082a90882aa6f776f886f996faa956b3829320282a71882a81082a90882aa6f776f8b6f996faa3202826a680182a71882a81082a90882aa6f777b6760016f877b6758016f977b6750016fa77b6748019517e08477e07b676801647132029517e08477e07b67680164718379330840826778013202d8ab0ac8a90cd89c09daaa09c88909d88908c887073202826a900182a71882a81082a90882aa6f777b6790016f877b6788016f977b6780016fa77b67780133071819c876093202491130491128491120140700000000717b484e9518207b17383307320282644001826338014926580149265001956b000182b928939893977bb74882ba3095a9ff7bb9288ea99599ff7bb9203202d49707d48a09d47909989920d48707977720d49707320282a71882a81082a90882aa6f777b6788016f877b6780016f977b6778016fa77b6770019517e08477e0320264718379330840826790013202d88708826a6001c88a09d8a90ada880a82687001c88a0ad88a08826b6801c8b808956b3829320282970881981082996f77977a206f88988820d48a0a9877206f98978920d49707988820956938293202826aa00082a71882a81082a90882aa6f777b6798006f877b6788006f977b6780006fa77b67789517e08477e07b67a0006471320282a71882a81082a90882aa6f777b6778016f877b6770016f977b6768016fa77b67600132029517e08477e07b676801647183793308408267700132028269980182970881981082996f77977a206f88988820d48a0a9877206f98978920d497079888203202826a600182a71882a81082a90882aa6f776f8b6f996faa826868017b8a187b89107b8b087b873202330b330c8269280193989397826a380195a9ff7b6930018ea99599ff7b692801320282689801826950017b8908826958017b89826970017a8910648a9569382982688001320298493f973a01d4a909974a0182646801984b3fd4ba0a7b6a4001826020016437d390033202978801826b480198ba3fd4a8087b683801987a3f97b701d47a0a974701826b600198b83f320282692801d4980882699801889a80007b6a2801826b2001daab08826b3801db980b7b6b3801320282a71882a81082a90882aa6f776f886f996faa826b98017bba187bb9107bb8087bb73202826a980082a71882a81082a90882aa6f776f8b6f996faa8268a0007b8a187b89107b8b087b8732027b6a600193b87b686801492638018051018267900195798064c7643832027b6a7b69087b68107b67189551c082103882153082162895114032029517e08479e07b69980164913202d4870782684801daa80782684001db97087b6840018267580182685001320282ab7b1b1882ab087b1b2082ab107b1b2882aa187b1a308296829a087b1a829a107b1a088299187b191032027b6710017b682801826890019a89800082675001826840013202826a900182a782a80882a91082aa186f776f886f996faa320282b7b80082b8c00082b9b00082baa800d49808d4a707d48707320233073829c8760a95ab0006320282692801d49808826a900188ab80007b6b280182691801dab9083202821718821810821908821ad4790bd48a0cd4bc0c98cc20d48b0b97bb20d4cb0b32027b97e800826750017b97e000826758017b97d800648a3307209568ff073202647183793308408267b800320282a71882a81082a90882aa6f776f886f996faa32029517e08477e07b679801647132029517e08477e07b676001647183793308408267780132029517e08477e07b6760016471837933084082677001320282679801817733082332028267980182692801d4970782691001dab90782634001643a32021407a0ffffff000000009569000182989800d878078298900094873202140b00000000010000001407e0ffffff00000000d8780782c99000949794a73202c88a09d8a90ada880a32027b682801826898019a898000826758018268500132027b6730017b6828018267600195798082674001826838013202826898018187107b67700182877b6758018287087b6750013202956c00017bc880007bca9000d48a077bc9787bcb8800d49b08d487073202491140491138491130140700000000717b484e9518307b1748330732029511c07b10387b15307b16289515408411e064768317330804320282970881981082996f77977a206f88988820d4a80832029551a082105882155082164895116032027b6748017b68680182675801826850018269600132027b6748017b68200182674001826838018269980132027b6760017b689801826750018268400182696801320282b73882b84082b93082ba28d49808d4a707d48707320282a71882a81082a90882aa6f7c6f8b6f97320282b7d80082b8e00082b9d00082bac800d49808d4a707d48707320233073829c8760a95ab0007320233073829c8760a95ab0002320233073829c8760a95ab00053202d49808d47808988820d49707977720d4870732029511c07b10387b15307b16289515408411e0647683173202956b00017bb87082b8900082b98800d4890982b8980082ba8000d4a808d498083202826a900182608001d40a09889901826b700132027b6718017b68100182696801889780007b6738013202849a40520a195109148d9a40cfa80ad09808d09707d4a707320032009597c0d0780733083200849a40520a195109148d9a40d0a70acf9707cf9808d4a808320032009598c0cf87083307320049922425494b2a252da9944c4949490a21a11a4292d210a1925429a42449922449922449922449922449922449922449922449922449922449922449aa9294529294942454a5242549922449922449922449922449922449922449922449499294a4aa24254994a492a42a494149929294a4aa2a494952924a922222222549929224a95029a5244929a524a9a4888828222252922409124a252525458a142952a44891a22445444411119192244949922448282a52a4489122458a142952a4489122458a122922224a920421240ca5496948848888484444342222498424894414890851a81a2242440049528948922491842424499224c950124a42495200a51022184a5aa12a119224841052a14a95464444a488081211428448446944200101114840208104124840208104121111498920912449a24824444444244992244444444422222252224892244914894444241289883422924424912449924812119148a49018114a4408218249148a12291124464444444421312222a24444882293088a2415455144922224464444245124912492482412892221222222222242449248241211099194489224892489442211099148442229804445121111111111212a22499294484444441a11119124099288a411491224218a94082222a21011121192288408461285a8441a25a94a102589101111892492449224898888888888880891a4882489089112414a049148241251444492441249249124234224912092249044444444441144141111484a1221841091244944442422228a220281249044d2888888884822494214514444202222a22022428908922884084612854a1449aa8a24252549922425228888884824912492244944242249441111414444444492440411414444444444444444444404114912912411412488888808241123222222228a20a28888405292101142884824494444242222a2111111499228121111114144442291880491244992248948241291224844222222a28840200924118922021191944444342222a2924a2249459254222a919288449254129124299144924822228a080402119188402022101191488aa4444444442302492089888888888888884810111111111111292282884844208988888888202212400091a8241211454444441011894425918888888820102591888888882092888888888882888850222248a210091181508922220245241289221244444444444424224144041191442089489248241211892092481249242222222282882480002251494412894422228a4804914044444444101189442511111111918888888888082281489288080288481425114924222222222282488288888888482449924444444444242222228844104902480091282511111111918888884844101144128952121111918888082282404a228044222222121111114504124992249044444444444414448444044914222122102a45928aa228224911444444444412898844229148440411111111914420924844444444108944241148441229222222228288481011114992248988888888222282882481241111111111114124224925894824129120228044298924111111440445259088884814118888489244914810914824124144248a40124288882452908844444444230249208948342249024988228a0411115110111211245108118c240a51892822114492228888884412492249924444444444444410491211492282882241140922222222228a8848924822892492644410492488888820898888888822882822112425891042884892242222288a2211119128120449148988444444444424222222112322221111110511114a4410420493285424a2884410312222a220221289948808a2c824822822112451241111110511111151222288229308a2884410498a202222418c88882449924411111111114444240104904a224289888888202249142511948888882011944a4444441409222292245124a28844924422124444449044942851a244928a24a944548a489224a92422922491482289441211111144444410118908222222228844124952922252242a121189448928029182888808222222824844442211894422228888885492944c9248224a2249249124912492449248442291481249128924259288489224492289244944222222a2111191240992883422222989889244924824a92411d1888848a2242289249224922492482249942449922449a228a948529124218a282211248914448912098210221849142a114524824852041111111141444444444444109188884824128948928820a2111111955412492a92a412518994448a24894a2292248924924412111145100411918820880822221249919428121111118d089210451491082222220a222294882008114ca250892822114444444411111111111141444444444444449288481011492292242288041189442211111111d188248a208948928888888288221241529210114288888848444450144522914812898888888888a82089a2c888441295282a2249555122a5462289244992489224898820222289244924114992244992444444444444049144924822914492482251a452222a4124221289120411111104411089482452440441c4489248228a94489244924824892491241289442249244924924849822489242291248a48269210451491082222220a22229488208942882012848a4491a4aa8844225144118920228914444428114114194004104114910822492282888888882a924844129148242292954849222222a28844101111051111254210452241140922464444444441444444948808a2482488221241242949922422492282482462442412898888041191241211444c9244928828221124891444921211449148104524822889484144444444242282281209a24810111111110511111111512222882291208a041144444404111111a1929224229148444424888888884422492149922449929208922291481411444444248524499290949494248288202292241291241141444444444444441011111111918804111111499224894844444411114144440248541291444444440411452482a424218488888888101111112522222222288a224124221289120411111104411089482452440441c4489248228a94489244924824892491241289442249244924924849822489242291248a48462488882495224924892422492211918888202212912449121189442252108d0820514a22a994a42489882412414444444444441011111111110922222222222222222222a288082291144992241191482422051109201295441191088a684424912489482292248954928888882080002212a5241145241289480491882495242222221244049028251111119120a28844101111511011a1440451640009204954221a492a8aa208222222918814442492242522822832894a14492aa5944852441091444410912449924844924404114144444444441011914812491291442282a4244992248944228922828888884892244992882022222a2949124922224144924812912022492a451289482289884492249282282293a844912449124922495229aa248924114924892449924849228924491225554912492291244944922449528c4492482449124522918888882888482249249112234992442222222222221109228920924844444444101111912022922449928844222222228288880411402422924492248988880822924429121141441011442280001215114544444444444404119148290288445144242249928820228222828824224912918824491240a42222222282484444440451444444441009201111115434499248442222222222220a92280549542914111149aa8a2a12492322894424118944248a442489248924499224222288489288888888209248124924128944124924228924914422524a444494489224222212119124492249922449922411414444444444241149109144101189481244442292242a1289442222222282244992449224222222124902485211892022129148649224922422492412910411912488884424092222114952148944229144229188248949909424419224921209221211414424119124114124884892244544109124118948928820a288441091440a2222948820882232894a44912041942482882422222288888888888808222249922412894422224944100922922422124922494444448820221240028844292211914824224124124511404412a58844504423928824494422922449a42211111141441189202949241242081111119128222222a2888808224144244992243122220a20220a2222428988208ac8241a4a4249280925a124948492880820a2204410121211014414898800228a849250123122808828081184844444001151104564120d25a12494849250124a424928092501111111114582204249280925a12494444400110521829090880820a24844041051104564120d25a12494849250124a4249280925a124920022521022080989880022a220441012124a2222808828081184421123028888821041282c69440410511011a14404514426110d44444444140982082501912411d1489224114a6224322222224804a54a8d8800220a2222948848119148242245240aa1240aa12420222222a248104428092294444422128944222212111111111111898888882491482412111111111111842a8a44442222221211218a282211442491828811a144042142128904a112514422882289888888828888882811114411890451442288282211448a242282181149928844224922a251222251492591a422492a518994442422492a22924410044110444444441044892252044110441004110441904882249244924844229120492289482449442402111111512408229442a914458a22418422229108514411892049a420922891204488c8240a958822124112451225112988181111118988208ac824822822114492228a480491228988204644922492244912114524828824521031229488208ac824822249455114112322220a222291488988208ac82482a224554949922429890822222246041011452246041011456224498c88882212414412298818114a44104524124491202222a220221289948808a28844822812248824890822226244001151240a211191482292a82022242208112232894254a2884410491211444444441085888844246244001151104524491245248088884824898820a288441011115110312294882089a2884c22884649aa1244492288884424111144249244222222228828221124258988104244444244248988a8a048c4880022a248441189202222a22062442811411491481045828888888288482452222288221209a2884410458c88882888884422252282282293a8441491082249114444848818114044148988484424128944444422229148242222121111d1888888a8a4924852912495a8444a22129124452489200882208888888820881245a408822088200822088220910449248924918844224192441291489288484444014414448c0825228822929444114511458c0820220aa2884ca211111149121144149108929244444444841011114244444414111115148991c8884892a2082022898888888888288888082522821021890c20825089282211442489882022222222221219519488444922922422222291884881888828112110452412449120222222220a444404111188221209a28844504422912822101111914492882409922411111111118888888888482422a240444494881088221209a28844101111111105222212899488884014914810458288888888281011114444208a482488224144202222828888482422128988444444228a888888082222128944444482884824128911111111111111114444444444242222808888022182909088880022220a840842428a340920492aa524499242298a046992a414144a512448140912144a51248822418242299a244952922449929424494a2949501048921208110c25d12449522a25491249922449924092140492a40442044349342212a9a424499224499224499224a9a424499224499224492022120581249204420443493449229524499224254992244992a424294992444902480a2491241022184aa2492a292949922449494992209024251022184aa21111911aa988884804914824120944221249241289888888204992244924491268920490544a520a4451134992acb224111151012449525292240824490984088692689224492a2949922449922449499224494a922429082491241022184aa2111111a9942429d1888854524924a948924a4425222525495211114922124924892422a2244124892089244122224990884824452489a4484492a44411442a489208928824482292244992a42441a92425c9244924494a9224499248248924912489a228922449922449492292489248221249226a2413492291888802112111811022984421458928122489888828908888884444208a4c22882241042222494422111105224222025164124191a4a2288a88884481888888484404a2c824822812444444144844444422221045261144912002111141442291482422a240444844208a4c22284a5214a524454892a4084488a424491249244911818888a490244992244949448894220249499224924852220211114991244912929292121188042222228888888822101189888888884408211111211111111121528a08444444042222922249922424252525222222100811224451a2245148124288888888282222492289244924c988202212882409222222a20844442222222222114248444448444444202222a2111140448110c150d2880820a288880820a288880820a288880820a2404448444444041051202224222222028828101112111111014414880889084411494aa222222280880251449292a888a888020924959294244a2a25294914492a8aa248a288289244924422498924229228a9941215898844a24414814825959294244a525114454954a2441249228988882849555192aa8a2415455124514954a224495224a9288a22529200928a88885492949424494a5251144552254a2489241225959294248a2415455192a8241545519444258aa45292921449aa8a24555191285144a2481125492411a544124912291211914894a4aa485291a4aa4852510422554992242551894422a292244929498a8888284a525544449222512422222529499214111125aa4449aa2a894aa212255189a2149148540011890a20804495a4888828221251248a44119144529200924a92a452522929495244441411114544444992a42455454424291245a2489424494992549188442445245144449424495249254992545200"},"methodIdentifiers":{"STAKE_PER_DAY()":"4a91f7ae","archiveHabit(uint32)":"b650673a","checkIn(uint32,uint64)":"a0145927","claim(uint256)":"379607f5","createHabit(string)":"b683ace1","dailyStatuses(address,uint64,uint32)":"88b21c87","deposit()":"d0e30db0","epochNow()":"222ae786","getUserState(address)":"416ae768","habits(address,uint32)":"99626634","prepareDay(uint64)":"48cc36b8","redepositFromClaimable(uint256)":"8f23d36c","settle(address,uint64,uint32)":"9c14eb6e","settleAll(address,uint64,uint32)":"45123cce","totalTreasuryReceived()":"badf162d","treasury()":"61d027b3","userHabitCounters(address)":"0e08454a","userStates(address)":"0ecc535f","withdraw(uint256)":"2e1a7d4d"}},"hash":"f710b0b19cec77efdc280030926486fbf2166bba358fdbde76e330bafcb65988","factoryDependencies":{}}}}