{"contracts/HabitTracker.sol":{"HabitTracker":{"abi":[{"inputs":[{"internalType":"address","name":"_treasury","type":"address"}],"stateMutability":"nonpayable","type":"constructor"},{"inputs":[],"name":"AlreadyCheckedIn","type":"error"},{"inputs":[],"name":"AlreadySettled","type":"error"},{"inputs":[],"name":"CannotSettleCurrentDay","type":"error"},{"inputs":[],"name":"DayNotFunded","type":"error"},{"inputs":[],"name":"HabitAlreadyArchived","type":"error"},{"inputs":[],"name":"HabitNotFound","type":"error"},{"inputs":[],"name":"HabitTextTooLong","type":"error"},{"inputs":[],"name":"InsufficientBalance","type":"error"},{"inputs":[],"name":"InvalidAmount","type":"error"},{"inputs":[],"name":"InvalidBatchSize","type":"error"},{"inputs":[],"name":"InvalidEpoch","type":"error"},{"inputs":[],"name":"InvalidTreasury","type":"error"},{"inputs":[],"name":"NotHabitOwner","type":"error"},{"inputs":[],"name":"TransferFailed","type":"error"},{"anonymous":false,"inputs":[{"indexed":true,"internalType":"address","name":"user","type":"address"},{"indexed":true,"internalType":"uint32","name":"habitId","type":"uint32"},{"indexed":true,"internalType":"uint64","name":"epoch","type":"uint64"}],"name":"CheckedIn","type":"event"},{"anonymous":false,"inputs":[{"indexed":true,"internalType":"address","name":"user","type":"address"},{"indexed":false,"internalType":"uint256","name":"amount","type":"uint256"}],"name":"Claimed","type":"event"},{"anonymous":false,"inputs":[{"indexed":true,"internalType":"address","name":"user","type":"address"},{"indexed":true,"internalType":"uint64","name":"epoch","type":"uint64"},{"indexed":false,"internalType":"uint32","name":"fundedCount","type":"uint32"},{"indexed":false,"internalType":"uint32","name":"insufficientCount","type":"uint32"}],"name":"DayPrepared","type":"event"},{"anonymous":false,"inputs":[{"indexed":true,"internalType":"address","name":"user","type":"address"},{"indexed":false,"internalType":"uint256","name":"amount","type":"uint256"}],"name":"Deposited","type":"event"},{"anonymous":false,"inputs":[{"indexed":true,"internalType":"address","name":"user","type":"address"},{"indexed":true,"internalType":"uint32","name":"habitId","type":"uint32"}],"name":"HabitArchived","type":"event"},{"anonymous":false,"inputs":[{"indexed":true,"internalType":"address","name":"user","type":"address"},{"indexed":true,"internalType":"uint32","name":"habitId","type":"uint32"},{"indexed":false,"internalType":"string","name":"text","type":"string"}],"name":"HabitCreated","type":"event"},{"anonymous":false,"inputs":[{"indexed":true,"internalType":"address","name":"user","type":"address"},{"indexed":false,"internalType":"uint256","name":"amount","type":"uint256"}],"name":"RedepositedFromClaimable","type":"event"},{"anonymous":false,"inputs":[{"indexed":true,"internalType":"address","name":"user","type":"address"},{"indexed":true,"internalType":"uint32","name":"habitId","type":"uint32"},{"indexed":true,"internalType":"uint64","name":"epoch","type":"uint64"},{"indexed":false,"internalType":"uint256","name":"slashed","type":"uint256"}],"name":"SettledFail","type":"event"},{"anonymous":false,"inputs":[{"indexed":true,"internalType":"address","name":"user","type":"address"},{"indexed":true,"internalType":"uint32","name":"habitId","type":"uint32"},{"indexed":true,"internalType":"uint64","name":"epoch","type":"uint64"},{"indexed":false,"internalType":"uint256","name":"reward","type":"uint256"}],"name":"SettledSuccess","type":"event"},{"anonymous":false,"inputs":[{"indexed":true,"internalType":"address","name":"user","type":"address"},{"indexed":false,"internalType":"uint256","name":"amount","type":"uint256"}],"name":"Withdrawn","type":"event"},{"inputs":[],"name":"STAKE_PER_DAY","outputs":[{"internalType":"uint256","name":"","type":"uint256"}],"stateMutability":"view","type":"function"},{"inputs":[{"internalType":"uint32","name":"habitId","type":"uint32"}],"name":"archiveHabit","outputs":[],"stateMutability":"nonpayable","type":"function"},{"inputs":[{"internalType":"uint32","name":"habitId","type":"uint32"},{"internalType":"uint64","name":"epoch","type":"uint64"}],"name":"checkIn","outputs":[],"stateMutability":"nonpayable","type":"function"},{"inputs":[{"internalType":"uint256","name":"amount","type":"uint256"}],"name":"claim","outputs":[],"stateMutability":"nonpayable","type":"function"},{"inputs":[{"internalType":"string","name":"text","type":"string"}],"name":"createHabit","outputs":[{"internalType":"uint32","name":"","type":"uint32"}],"stateMutability":"nonpayable","type":"function"},{"inputs":[{"internalType":"address","name":"","type":"address"},{"internalType":"uint64","name":"","type":"uint64"},{"internalType":"uint32","name":"","type":"uint32"}],"name":"dailyStatuses","outputs":[{"internalType":"uint8","name":"flags","type":"uint8"}],"stateMutability":"view","type":"function"},{"inputs":[],"name":"deposit","outputs":[],"stateMutability":"payable","type":"function"},{"inputs":[],"name":"epochNow","outputs":[{"internalType":"uint64","name":"","type":"uint64"}],"stateMutability":"view","type":"function"},{"inputs":[{"internalType":"address","name":"user","type":"address"},{"internalType":"uint64","name":"startEpoch","type":"uint64"},{"internalType":"uint32","name":"maxSettlements","type":"uint32"}],"name":"forceSettleAllEpochs","outputs":[],"stateMutability":"nonpayable","type":"function"},{"inputs":[{"internalType":"address","name":"","type":"address"},{"internalType":"uint32","name":"","type":"uint32"}],"name":"habits","outputs":[{"internalType":"uint32","name":"id","type":"uint32"},{"internalType":"address","name":"owner","type":"address"},{"internalType":"string","name":"text","type":"string"},{"internalType":"uint64","name":"createdAtEpoch","type":"uint64"},{"internalType":"bool","name":"archived","type":"bool"}],"stateMutability":"view","type":"function"},{"inputs":[{"internalType":"uint64","name":"epoch","type":"uint64"}],"name":"prepareDay","outputs":[],"stateMutability":"nonpayable","type":"function"},{"inputs":[{"internalType":"uint256","name":"amount","type":"uint256"}],"name":"redepositFromClaimable","outputs":[],"stateMutability":"nonpayable","type":"function"},{"inputs":[{"internalType":"address","name":"user","type":"address"},{"internalType":"uint64","name":"epoch","type":"uint64"},{"internalType":"uint32","name":"habitId","type":"uint32"}],"name":"settle","outputs":[],"stateMutability":"nonpayable","type":"function"},{"inputs":[{"internalType":"address","name":"user","type":"address"},{"internalType":"uint64","name":"epoch","type":"uint64"},{"internalType":"uint32","name":"maxCount","type":"uint32"}],"name":"settleAll","outputs":[],"stateMutability":"nonpayable","type":"function"},{"inputs":[],"name":"totalTreasuryReceived","outputs":[{"internalType":"uint256","name":"","type":"uint256"}],"stateMutability":"view","type":"function"},{"inputs":[],"name":"treasury","outputs":[{"internalType":"address","name":"","type":"address"}],"stateMutability":"view","type":"function"},{"inputs":[{"internalType":"address","name":"","type":"address"}],"name":"userHabitCounters","outputs":[{"internalType":"uint32","name":"","type":"uint32"}],"stateMutability":"view","type":"function"},{"inputs":[{"internalType":"address","name":"","type":"address"}],"name":"userStates","outputs":[{"internalType":"uint256","name":"depositBalance","type":"uint256"},{"internalType":"uint256","name":"blockedBalance","type":"uint256"},{"internalType":"uint256","name":"claimableBalance","type":"uint256"},{"internalType":"uint32","name":"activeHabitCount","type":"uint32"}],"stateMutability":"view","type":"function"},{"inputs":[{"internalType":"uint256","name":"amount","type":"uint256"}],"name":"withdraw","outputs":[],"stateMutability":"nonpayable","type":"function"}],"evm":{"assembly":"// RO data = 0/0 bytes\n// RW data = 364/65984 bytes\n// Stack size = 32768 bytes\n\n// Instructions = 12151\n// Code size = 42758 bytes\n\n      : @0 (gas: 1)\n     0: jump @14 if a0 == a1\n      : @1 (gas: 9)\n     3: a3 = a1 << 0x20\n     6: a3 = a3 >> 0x20\n     9: a4 = a0 << 0x20\n    12: a4 = a4 >> 0x20\n    15: a4 = a4 + a2\n    18: a3 = a3 - a4\n    21: a4 = a2 << 0x1\n    24: a4 = -a4\n    26: jump @7 if a4 >=u a3\n      : @2 (gas: 1)\n    29: jump @11 if a0 >=u a1\n      : @3 (gas: 1)\n    32: jump @14 if a2 == 0\n      : @4 (gas: 3)\n    35: a2 = a2 + a0\n    38: a3 = a0\n    40: fallthrough\n      : @5 (gas: 6)\n    41: a4 = u8 [a1]\n    43: a1 = a1 + 0x1\n    46: a5 = a3 + 0x1\n    49: u8 [a3] = a4\n    51: a3 = a5\n    53: jump @5 if a5 != a2\n      : @6 (gas: 1)\n    56: jump @14\n      : @7 (gas: 1)\n    58: jump @14 if a2 == 0\n      : @8 (gas: 3)\n    61: a2 = a2 + a0\n    64: a3 = a0\n    66: fallthrough\n      : @9 (gas: 6)\n    67: a4 = u8 [a1]\n    69: a1 = a1 + 0x1\n    72: a5 = a3 + 0x1\n    75: u8 [a3] = a4\n    77: a3 = a5\n    79: jump @9 if a5 != a2\n      : @10 (gas: 1)\n    82: jump @14\n      : @11 (gas: 1)\n    84: jump @14 if a2 == 0\n      : @12 (gas: 2)\n    87: i32 a3 = a2 + 0xffffffffffffffff\n    90: fallthrough\n      : @13 (gas: 7)\n    91: a4 = a1 + a3\n    94: a4 = u8 [a4]\n    96: a2 = a2 + 0xffffffffffffffff\n    99: a5 = a0 + a3\n   102: u8 [a5] = a4\n   104: i32 a3 = a3 + 0xffffffffffffffff\n   107: jump @13 if a2 != 0\n      : @14 (gas: 1)\n   110: ret\n      : @15 (gas: 7)\n   112: sp = sp + 0xffffffffffffffe8\n   115: u64 [sp + 0x10] = ra\n   118: u64 [sp + 0x8] = s0\n   121: u64 [sp] = s1\n   123: s1 = 0x20168\n   128: s0 = i32 [0x20168]\n   133: jump @18 if s0 == 0\n      : @16 (gas: 5)\n   136: a0 = 0x301a0\n   141: i32 a0 = a0 + 0\n   143: i32 a1 = s1 + 0\n   145: ecalli 6 // 'get_immutable_data'\n   147: fallthrough\n      : @17 (gas: 3)\n   148: a0 = i32 [0x20168]\n   153: u32 [0x20168] = 0\n   158: jump @19 if a0 <u s0\n      : @18 (gas: 5)\n   161: ra = u64 [sp + 0x10]\n   164: s0 = u64 [sp + 0x8]\n   167: s1 = u64 [sp]\n   169: sp = sp + 0x18\n   172: ret\n      : @19 (gas: 1)\n   174: trap\n      : @20 (gas: 2)\n   175: a1 = i32 [0x20168]\n   180: jump @70 if a1 == 0\n      : @21 (gas: 4)\n   184: a0 = 0x301a0\n   189: i32 a0 = a0 + 0\n   191: ecalli 14 // 'set_immutable_data'\n   193: jump @70\n      : @22 (gas: 8)\n   196: sp = sp + 0xfffffffffffffff0\n   199: u64 [sp + 0x8] = ra\n   202: u64 [sp] = s0\n   204: a2 = a1\n   206: s0 = a0\n   208: a1 = 0x20\n   211: a0 = a2\n   213: ra = 2, jump @37\n      : @23 [@dyn 1] (gas: 100)\n   218: a1 = u8 [a0 + 0x1]\n   221: a2 = u8 [a0]\n   223: a3 = u8 [a0 + 0x2]\n   226: a4 = u8 [a0 + 0x3]\n   229: a1 = a1 << 0x8\n   232: a1 = a1 | a2\n   235: a3 = a3 << 0x10\n   238: a4 = a4 << 0x18\n   241: a3 = a3 | a4\n   244: a1 = a1 | a3\n   247: a2 = u8 [a0 + 0x5]\n   250: a3 = u8 [a0 + 0x4]\n   253: a4 = u8 [a0 + 0x6]\n   256: a5 = u8 [a0 + 0x7]\n   259: a2 = a2 << 0x8\n   262: a2 = a2 | a3\n   265: a4 = a4 << 0x10\n   268: a5 = a5 << 0x18\n   271: a4 = a4 | a5\n   274: a2 = a2 | a4\n   277: a2 = a2 << 0x20\n   280: t0 = a2 | a1\n   283: a2 = u8 [a0 + 0x9]\n   286: a3 = u8 [a0 + 0x8]\n   289: a4 = u8 [a0 + 0xa]\n   292: a5 = u8 [a0 + 0xb]\n   295: a2 = a2 << 0x8\n   298: a2 = a2 | a3\n   301: a4 = a4 << 0x10\n   304: a5 = a5 << 0x18\n   307: a4 = a4 | a5\n   310: a2 = a2 | a4\n   313: a3 = u8 [a0 + 0xd]\n   316: a4 = u8 [a0 + 0xc]\n   319: a5 = u8 [a0 + 0xe]\n   322: a1 = u8 [a0 + 0xf]\n   325: a3 = a3 << 0x8\n   328: a3 = a3 | a4\n   331: a5 = a5 << 0x10\n   334: a1 = a1 << 0x18\n   337: a1 = a1 | a5\n   340: a1 = a1 | a3\n   343: a1 = a1 << 0x20\n   346: t1 = a1 | a2\n   349: a1 = u8 [a0 + 0x11]\n   352: a3 = u8 [a0 + 0x10]\n   355: a4 = u8 [a0 + 0x12]\n   358: a5 = u8 [a0 + 0x13]\n   361: a1 = a1 << 0x8\n   364: a1 = a1 | a3\n   367: a4 = a4 << 0x10\n   370: a5 = a5 << 0x18\n   373: a4 = a4 | a5\n   376: a1 = a1 | a4\n   379: a3 = u8 [a0 + 0x15]\n   382: a4 = u8 [a0 + 0x14]\n   385: a5 = u8 [a0 + 0x16]\n   388: a2 = u8 [a0 + 0x17]\n   391: a3 = a3 << 0x8\n   394: a3 = a3 | a4\n   397: a5 = a5 << 0x10\n   400: a2 = a2 << 0x18\n   403: a2 = a2 | a5\n   406: a2 = a2 | a3\n   409: a2 = a2 << 0x20\n   412: a3 = a2 | a1\n   415: a1 = u8 [a0 + 0x19]\n   418: a2 = u8 [a0 + 0x18]\n   421: a4 = u8 [a0 + 0x1a]\n   424: a5 = u8 [a0 + 0x1b]\n   427: a1 = a1 << 0x8\n   430: a1 = a1 | a2\n   433: a4 = a4 << 0x10\n   436: a5 = a5 << 0x18\n   439: a4 = a4 | a5\n   442: a1 = a1 | a4\n   445: a2 = u8 [a0 + 0x1d]\n   448: a4 = u8 [a0 + 0x1c]\n   451: a5 = u8 [a0 + 0x1e]\n   454: a0 = u8 [a0 + 0x1f]\n   457: a2 = a2 << 0x8\n   460: a2 = a2 | a4\n   463: a5 = a5 << 0x10\n   466: a0 = a0 << 0x18\n   469: a0 = a0 | a5\n   472: a0 = a0 | a2\n   475: a0 = a0 << 0x20\n   478: a0 = a0 | a1\n   481: a0 = reverse a0\n   483: a1 = reverse a3\n   485: a2 = reverse t1\n   487: a3 = reverse t0\n   489: u64 [s0 + 0x18] = a3\n   492: u64 [s0 + 0x10] = a2\n   495: u64 [s0 + 0x8] = a1\n   498: u64 [s0] = a0\n   500: ra = u64 [sp + 0x8]\n   503: s0 = u64 [sp]\n   505: sp = sp + 0x10\n   508: ret\n      : @24 (gas: 12)\n   510: sp = sp + 0xffffffffffffffd8\n   513: u64 [sp + 0x20] = ra\n   516: u64 [sp + 0x18] = s0\n   519: u64 [sp + 0x10] = s1\n   522: a2 = u64 [a1]\n   524: u64 [sp + 0x8] = a2\n   527: a2 = u64 [a1 + 0x8]\n   530: u64 [sp] = a2\n   532: s0 = u64 [a1 + 0x10]\n   535: s1 = u64 [a1 + 0x18]\n   538: a1 = 0x20\n   541: ra = 4, jump @37\n      : @25 [@dyn 2] (gas: 71)\n   546: a1 = reverse s1\n   548: a2 = reverse s0\n   550: a3 = u64 [sp]\n   552: a3 = reverse a3\n   554: a4 = u64 [sp + 0x8]\n   557: a4 = reverse a4\n   559: u8 [a0 + 0x18] = a4\n   562: u8 [a0 + 0x10] = a3\n   565: u8 [a0 + 0x8] = a2\n   568: u8 [a0] = a1\n   570: a5 = a4 >> 0x38\n   573: u8 [a0 + 0x1f] = a5\n   576: a5 = a4 >> 0x30\n   579: u8 [a0 + 0x1e] = a5\n   582: a5 = a4 >> 0x28\n   585: u8 [a0 + 0x1d] = a5\n   588: a5 = a4 >> 0x20\n   591: u8 [a0 + 0x1c] = a5\n   594: a5 = a4 >> 0x18\n   597: u8 [a0 + 0x1b] = a5\n   600: a5 = a4 >> 0x10\n   603: u8 [a0 + 0x1a] = a5\n   606: a4 = a4 >> 0x8\n   609: u8 [a0 + 0x19] = a4\n   612: a4 = a3 >> 0x38\n   615: u8 [a0 + 0x17] = a4\n   618: a4 = a3 >> 0x30\n   621: u8 [a0 + 0x16] = a4\n   624: a4 = a3 >> 0x28\n   627: u8 [a0 + 0x15] = a4\n   630: a4 = a3 >> 0x20\n   633: u8 [a0 + 0x14] = a4\n   636: a4 = a3 >> 0x18\n   639: u8 [a0 + 0x13] = a4\n   642: a4 = a3 >> 0x10\n   645: u8 [a0 + 0x12] = a4\n   648: a3 = a3 >> 0x8\n   651: u8 [a0 + 0x11] = a3\n   654: a3 = a2 >> 0x38\n   657: u8 [a0 + 0xf] = a3\n   660: a3 = a2 >> 0x30\n   663: u8 [a0 + 0xe] = a3\n   666: a3 = a2 >> 0x28\n   669: u8 [a0 + 0xd] = a3\n   672: a3 = a2 >> 0x20\n   675: u8 [a0 + 0xc] = a3\n   678: a3 = a2 >> 0x18\n   681: u8 [a0 + 0xb] = a3\n   684: a3 = a2 >> 0x10\n   687: u8 [a0 + 0xa] = a3\n   690: a2 = a2 >> 0x8\n   693: u8 [a0 + 0x9] = a2\n   696: a2 = a1 >> 0x38\n   699: u8 [a0 + 0x7] = a2\n   702: a2 = a1 >> 0x30\n   705: u8 [a0 + 0x6] = a2\n   708: a2 = a1 >> 0x28\n   711: u8 [a0 + 0x5] = a2\n   714: a2 = a1 >> 0x20\n   717: u8 [a0 + 0x4] = a2\n   720: a2 = a1 >> 0x18\n   723: u8 [a0 + 0x3] = a2\n   726: a2 = a1 >> 0x10\n   729: u8 [a0 + 0x2] = a2\n   732: a1 = a1 >> 0x8\n   735: u8 [a0 + 0x1] = a1\n   738: ra = u64 [sp + 0x20]\n   741: s0 = u64 [sp + 0x18]\n   744: s1 = u64 [sp + 0x10]\n   747: sp = sp + 0x28\n   750: ret\n      : @26 (gas: 43)\n   752: sp = sp + 0xffffffffffffffa0\n   755: u64 [sp + 0x58] = ra\n   758: u64 [sp + 0x50] = s0\n   761: u64 [sp + 0x48] = s1\n   764: s0 = sp + 0x60\n   767: sp = sp & 0xffffffffffffffe0\n   770: s1 = a0\n   772: a0 = u64 [a1 + 0x18]\n   775: a2 = u64 [a1 + 0x10]\n   778: a3 = u64 [a1 + 0x8]\n   781: a1 = u64 [a1]\n   783: a0 = reverse a0\n   785: a2 = reverse a2\n   787: a3 = reverse a3\n   789: a1 = reverse a1\n   791: u64 [sp + 0x18] = a1\n   794: u64 [sp + 0x10] = a3\n   797: u64 [sp + 0x8] = a2\n   800: u64 [sp] = a0\n   802: u64 [sp + 56] = 0\n   805: u64 [sp + 48] = 0\n   808: u64 [sp + 40] = 0\n   811: u64 [sp + 32] = 0\n   814: u32 [sp + 64] = 0x20\n   818: i32 a1 = sp + 0\n   820: i32 a3 = sp + 0x20\n   823: i32 a4 = sp + 0x40\n   826: a2 = 0xffffffffffffffff\n   829: a0 = 0\n   831: ecalli 7 // 'get_storage'\n   833: a0 = u64 [sp + 0x38]\n   836: a1 = u64 [sp + 0x30]\n   839: a2 = u64 [sp + 0x28]\n   842: a3 = u64 [sp + 0x20]\n   845: a0 = reverse a0\n   847: a1 = reverse a1\n   849: a2 = reverse a2\n   851: a3 = reverse a3\n   853: u64 [s1 + 0x18] = a3\n   856: u64 [s1 + 0x10] = a2\n   859: u64 [s1 + 0x8] = a1\n   862: u64 [s1] = a0\n   864: t0 = 6, jump @1558\n      : @27 [@dyn 3] (gas: 1)\n   870: ret\n      : @28 (gas: 40)\n   872: sp = sp + 0xffffffffffffffa0\n   875: u64 [sp + 0x58] = ra\n   878: u64 [sp + 0x50] = s0\n   881: s0 = sp + 0x60\n   884: sp = sp & 0xffffffffffffffe0\n   887: t0 = u64 [a0]\n   889: a3 = u64 [a0 + 0x8]\n   892: a4 = u64 [a0 + 0x10]\n   895: a0 = u64 [a0 + 0x18]\n   898: t1 = u64 [a1]\n   900: a2 = u64 [a1 + 0x8]\n   903: a5 = u64 [a1 + 0x10]\n   906: a1 = u64 [a1 + 0x18]\n   909: t2 = reverse a0\n   911: a4 = reverse a4\n   913: a3 = reverse a3\n   915: a0 = reverse t0\n   917: t0 = reverse a1\n   919: a5 = reverse a5\n   921: a2 = reverse a2\n   923: a1 = reverse t1\n   925: u64 [sp + 0x18] = a0\n   928: u64 [sp + 0x10] = a3\n   931: u64 [sp + 0x8] = a4\n   934: u64 [sp] = t2\n   936: u64 [sp + 0x38] = a1\n   939: u64 [sp + 0x30] = a2\n   942: u64 [sp + 0x28] = a5\n   945: u64 [sp + 0x20] = t0\n   948: i32 a1 = sp + 0\n   950: i32 a3 = sp + 0x20\n   953: a2 = 0xffffffffffffffff\n   956: a4 = 0x20\n   959: a0 = 0\n   961: ecalli 15 // 'set_storage'\n   963: sp = s0 + 0xffffffffffffffa0\n   966: ra = u64 [sp + 0x58]\n   969: s0 = u64 [sp + 0x50]\n   972: sp = sp + 0x60\n   975: ret\n      : @29 (gas: 24)\n   977: sp = sp + 0xffffffffffffff60\n   981: u64 [sp + 0x98] = ra\n   985: u64 [sp + 0x90] = s0\n   989: u64 [sp + 0x88] = s1\n   993: s0 = sp + 0xa0\n   997: sp = sp & 0xffffffffffffffe0\n  1000: a4 = u64 [a3]\n  1002: u64 [sp + 0x38] = a4\n  1005: a4 = u64 [a3 + 0x8]\n  1008: u64 [sp + 0x30] = a4\n  1011: a4 = u64 [a3 + 0x10]\n  1014: u64 [sp + 0x28] = a4\n  1017: a3 = u64 [a3 + 0x18]\n  1020: u64 [sp + 0x20] = a3\n  1023: a3 = u64 [a2]\n  1025: u64 [sp + 0x18] = a3\n  1028: a3 = u64 [a2 + 0x8]\n  1031: u64 [sp + 0x10] = a3\n  1034: a3 = u64 [a2 + 0x10]\n  1037: u64 [sp + 0x8] = a3\n  1040: a2 = u64 [a2 + 0x18]\n  1043: u64 [sp] = a2\n  1045: s1 = a1\n  1047: ra = 8, jump @37\n      : @30 [@dyn 4] (gas: 35)\n  1052: a1 = u64 [sp]\n  1054: a1 = reverse a1\n  1056: a2 = u64 [sp + 0x8]\n  1059: a2 = reverse a2\n  1061: a3 = u64 [sp + 0x10]\n  1064: a3 = reverse a3\n  1066: a4 = u64 [sp + 0x18]\n  1069: a4 = reverse a4\n  1071: u64 [sp + 0x58] = a4\n  1074: u64 [sp + 0x50] = a3\n  1077: u64 [sp + 0x48] = a2\n  1080: u64 [sp + 0x40] = a1\n  1083: a1 = u64 [sp + 0x20]\n  1086: a1 = reverse a1\n  1088: a2 = u64 [sp + 0x28]\n  1091: a2 = reverse a2\n  1093: a3 = u64 [sp + 0x30]\n  1096: a3 = reverse a3\n  1098: a4 = u64 [sp + 0x38]\n  1101: a4 = reverse a4\n  1103: u64 [sp + 0x78] = a4\n  1106: u64 [sp + 0x70] = a3\n  1109: u64 [sp + 0x68] = a2\n  1112: u64 [sp + 0x60] = a1\n  1115: i32 a2 = a0 + 0\n  1117: i32 a3 = s1 + 0\n  1119: i32 a0 = sp + 0x40\n  1122: a1 = 0x2\n  1125: ecalli 5 // 'deposit_event'\n  1127: sp = s0 + 0xffffffffffffff60\n  1131: ra = u64 [sp + 0x98]\n  1135: s0 = u64 [sp + 0x90]\n  1139: s1 = u64 [sp + 0x88]\n  1143: sp = sp + 0xa0\n  1147: ret\n      : @31 (gas: 15)\n  1149: sp = sp + 0xffffffffffffff20\n  1153: u64 [sp + 0xd8] = ra\n  1157: u64 [sp + 0xd0] = s0\n  1161: u64 [sp + 0xc8] = s1\n  1165: s0 = sp + 0xe0\n  1169: sp = sp & 0xffffffffffffffe0\n  1172: a5 = u64 [a4]\n  1174: u64 [sp + 0x40] = a5\n  1177: a5 = u64 [a4 + 0x8]\n  1180: u64 [sp + 0x48] = a5\n  1183: a5 = u64 [a4 + 0x10]\n  1186: u64 [sp + 0x50] = a5\n  1189: a4 = u64 [a4 + 0x18]\n  1192: u64 [sp + 0x58] = a4\n  1195: t0 = 10, jump @1529\n      : @32 [@dyn 5] (gas: 2)\n  1201: u64 [sp + 0x38] = a1\n  1204: ra = 12, jump @37\n      : @33 [@dyn 6] (gas: 46)\n  1209: a1 = reverse s1\n  1211: u64 [sp + 0x78] = a1\n  1214: a1 = u64 [sp]\n  1216: a1 = reverse a1\n  1218: u64 [sp + 0x70] = a1\n  1221: a1 = u64 [sp + 0x8]\n  1224: a1 = reverse a1\n  1226: u64 [sp + 0x68] = a1\n  1229: a1 = u64 [sp + 0x10]\n  1232: a1 = reverse a1\n  1234: u64 [sp + 0x60] = a1\n  1237: a1 = u64 [sp + 0x18]\n  1240: a1 = reverse a1\n  1242: u64 [sp + 0x98] = a1\n  1246: a1 = u64 [sp + 0x20]\n  1249: a1 = reverse a1\n  1251: u64 [sp + 0x90] = a1\n  1255: a1 = u64 [sp + 0x28]\n  1258: a1 = reverse a1\n  1260: u64 [sp + 0x88] = a1\n  1264: a1 = u64 [sp + 0x30]\n  1267: a1 = reverse a1\n  1269: u64 [sp + 0x80] = a1\n  1273: a1 = u64 [sp + 0x40]\n  1276: a1 = reverse a1\n  1278: u64 [sp + 0xb8] = a1\n  1282: a1 = u64 [sp + 0x48]\n  1285: a1 = reverse a1\n  1287: u64 [sp + 0xb0] = a1\n  1291: a1 = u64 [sp + 0x50]\n  1294: a1 = reverse a1\n  1296: u64 [sp + 0xa8] = a1\n  1300: a1 = u64 [sp + 0x58]\n  1303: a1 = reverse a1\n  1305: u64 [sp + 0xa0] = a1\n  1309: i32 a2 = a0 + 0\n  1311: a3 = i32 [sp + 0x38]\n  1314: i32 a0 = sp + 0x60\n  1317: a1 = 0x3\n  1320: ecalli 5 // 'deposit_event'\n  1322: sp = s0 + 0xffffffffffffff20\n  1326: ra = u64 [sp + 0xd8]\n  1330: s0 = u64 [sp + 0xd0]\n  1334: s1 = u64 [sp + 0xc8]\n  1338: sp = sp + 0xe0\n  1342: ret\n      : @34 (gas: 23)\n  1344: sp = sp + 0xfffffffffffffee0\n  1348: u64 [sp + 0x118] = ra\n  1352: u64 [sp + 0x110] = s0\n  1356: u64 [sp + 0x108] = s1\n  1360: s0 = sp + 0x120\n  1364: sp = sp & 0xffffffffffffffe0\n  1367: s1 = u64 [a5]\n  1369: u64 [sp + 0x60] = s1\n  1372: s1 = u64 [a5 + 0x8]\n  1375: u64 [sp + 0x68] = s1\n  1378: s1 = u64 [a5 + 0x10]\n  1381: u64 [sp + 0x70] = s1\n  1384: a5 = u64 [a5 + 0x18]\n  1387: u64 [sp + 0x78] = a5\n  1390: a5 = u64 [a4]\n  1392: u64 [sp + 0x38] = a5\n  1395: a5 = u64 [a4 + 0x8]\n  1398: u64 [sp + 0x40] = a5\n  1401: a5 = u64 [a4 + 0x10]\n  1404: u64 [sp + 0x48] = a5\n  1407: a4 = u64 [a4 + 0x18]\n  1410: u64 [sp + 0x50] = a4\n  1413: t0 = 14, jump @1529\n      : @35 [@dyn 7] (gas: 2)\n  1419: u64 [sp + 0x58] = a1\n  1422: ra = 16, jump @37\n      : @36 [@dyn 8] (gas: 58)\n  1427: a1 = reverse s1\n  1429: u64 [sp + 0x98] = a1\n  1433: a1 = u64 [sp]\n  1435: a1 = reverse a1\n  1437: u64 [sp + 0x90] = a1\n  1441: a1 = u64 [sp + 0x8]\n  1444: a1 = reverse a1\n  1446: u64 [sp + 0x88] = a1\n  1450: a1 = u64 [sp + 0x10]\n  1453: a1 = reverse a1\n  1455: u64 [sp + 0x80] = a1\n  1459: a1 = u64 [sp + 0x18]\n  1462: a1 = reverse a1\n  1464: u64 [sp + 0xb8] = a1\n  1468: a1 = u64 [sp + 0x20]\n  1471: a1 = reverse a1\n  1473: u64 [sp + 0xb0] = a1\n  1477: a1 = u64 [sp + 0x28]\n  1480: a1 = reverse a1\n  1482: u64 [sp + 0xa8] = a1\n  1486: a1 = u64 [sp + 0x30]\n  1489: a1 = reverse a1\n  1491: u64 [sp + 0xa0] = a1\n  1495: a1 = u64 [sp + 0x38]\n  1498: a1 = reverse a1\n  1500: u64 [sp + 0xd8] = a1\n  1504: a1 = u64 [sp + 0x40]\n  1507: a1 = reverse a1\n  1509: u64 [sp + 0xd0] = a1\n  1513: a1 = u64 [sp + 0x48]\n  1516: a1 = reverse a1\n  1518: u64 [sp + 0xc8] = a1\n  1522: a1 = u64 [sp + 0x50]\n  1525: a1 = reverse a1\n  1527: u64 [sp + 0xc0] = a1\n  1531: a1 = u64 [sp + 0x60]\n  1534: a1 = reverse a1\n  1536: u64 [sp + 0xf8] = a1\n  1540: a1 = u64 [sp + 0x68]\n  1543: a1 = reverse a1\n  1545: u64 [sp + 0xf0] = a1\n  1549: a1 = u64 [sp + 0x70]\n  1552: a1 = reverse a1\n  1554: u64 [sp + 0xe8] = a1\n  1558: a1 = u64 [sp + 0x78]\n  1561: a1 = reverse a1\n  1563: u64 [sp + 0xe0] = a1\n  1567: i32 a2 = a0 + 0\n  1569: a3 = i32 [sp + 0x58]\n  1572: i32 a0 = sp + 0x80\n  1576: a1 = 0x4\n  1579: ecalli 5 // 'deposit_event'\n  1581: sp = s0 + 0xfffffffffffffee0\n  1585: ra = u64 [sp + 0x118]\n  1589: s0 = u64 [sp + 0x110]\n  1593: s1 = u64 [sp + 0x108]\n  1597: sp = sp + 0x120\n  1601: ret\n      : @37 (gas: 2)\n  1603: i32 a2 = a0 >> 0x10\n  1606: jump @42 if a2 != 0\n      : @38 (gas: 4)\n  1609: a1 = a1 + a0\n  1612: i32 a1 = a1 + 0x1f\n  1615: a1 = a1 & 0xffffffffffffffe0\n  1618: jump @42 if a1 >u 65536\n      : @39 (gas: 3)\n  1624: a2 = 0x20170\n  1629: a3 = i32 [0x20170]\n  1634: jump @41 if a3 >=u a1\n      : @40 (gas: 2)\n  1637: u32 [0x20170] = a1\n  1642: fallthrough\n      : @41 (gas: 4)\n  1643: a1 = 0x20180\n  1648: i32 a0 = a0 + 0\n  1650: a0 = a0 + a1\n  1653: ret\n      : @42 (gas: 1)\n  1655: trap\n      : @43 (gas: 6)\n  1656: sp = sp + 0xfffffffffffffff0\n  1659: u64 [sp + 0x8] = ra\n  1662: u64 [sp] = s0\n  1664: s0 = a0 & 0x1\n  1667: ecalli 3 // 'call_data_size'\n  1669: fallthrough\n      : @44 (gas: 2)\n  1670: u32 [0x2016c] = a0\n  1675: jump @46 if s0 == 0\n      : @45 (gas: 1)\n  1678: ra = 18, jump @47\n      : @46 [@dyn 9] (gas: 1)\n  1682: ra = 20, jump @73\n      : @47 [@dyn 10] (gas: 13)\n  1687: sp = sp + 0xffffffffffffff00\n  1691: u64 [sp + 0xf8] = ra\n  1695: u64 [sp + 0xf0] = s0\n  1699: u64 [sp + 0xe8] = s1\n  1703: s0 = sp + 0x100\n  1707: sp = sp & 0xffffffffffffffe0\n  1710: u64 [sp + 216] = 0\n  1714: u64 [sp + 208] = 0\n  1718: u64 [sp + 200] = 0\n  1722: u64 [sp + 192] = 0\n  1726: i32 a0 = sp + 0xc0\n  1730: ecalli 16 // 'value_transferred'\n  1732: fallthrough\n      : @48 (gas: 8)\n  1733: a0 = u64 [sp + 0xd0]\n  1737: a1 = u64 [sp + 0xd8]\n  1741: a2 = u64 [sp + 0xc8]\n  1745: a3 = u64 [sp + 0xc0]\n  1749: a1 = a1 | a2\n  1752: a0 = a0 | a3\n  1755: a0 = a0 | a1\n  1758: jump @60 if a0 != 0\n      : @49 (gas: 15)\n  1762: s1 = i32 [0x2016c]\n  1767: a0 = s1 << 0x20\n  1770: a0 = a0 >> 0x20\n  1773: a0 = a0 + 0x1f\n  1776: a0 = a0 & 0xffffffffffffffe0\n  1779: a1 = a0 + 0xa0\n  1783: a0 = a1 <u a0\n  1786: u64 [sp + 0xa0] = a1\n  1790: u64 [sp + 0xa8] = a0\n  1794: a0 = 0 if a0 != 0\n  1796: u64 [sp + 0xb0] = a0\n  1800: a0 = 0x40\n  1803: a1 = sp + 0xa0\n  1807: u64 [sp + 184] = 0\n  1811: ra = 22, jump @24\n      : @50 [@dyn 11] (gas: 3)\n  1816: a0 = 0xa0\n  1820: a1 = s1\n  1822: ra = 24, jump @37\n      : @51 [@dyn 12] (gas: 5)\n  1827: i32 a0 = a0 + 0\n  1829: a1 = s1\n  1831: a2 = 0\n  1833: ecalli 1 // 'call_data_copy'\n  1835: fallthrough\n      : @52 (gas: 1)\n  1836: jump @61 if s1 <=u 31\n      : @53 (gas: 3)\n  1841: a0 = sp + 0x80\n  1845: a1 = 0xa0\n  1849: ra = 26, jump @22\n      : @54 [@dyn 13] (gas: 10)\n  1854: a0 = u64 [sp + 0x90]\n  1858: a2 = u64 [sp + 0x98]\n  1862: a1 = 0x100000000\n  1872: a1 = a1 ^ a0\n  1875: a1 = a1 | a2\n  1878: a3 = a0 >> 0x20\n  1881: a3 = a3 <u 0x1\n  1884: a3 = 0 if a2 != 0\n  1886: a3 = 0 if a1 == 0\n  1888: jump @62 if a3 == 0\n      : @55 (gas: 6)\n  1891: a1 = u64 [sp + 0x80]\n  1895: a3 = u64 [sp + 0x88]\n  1899: a4 = a1 | a0\n  1902: a5 = a3 | a2\n  1905: a4 = a4 | a5\n  1908: jump @63 if a4 == 0\n      : @56 (gas: 7)\n  1911: u64 [sp + 0x60] = a1\n  1914: u64 [sp + 0x68] = a3\n  1917: u64 [sp + 0x70] = a0\n  1920: a0 = 0x80\n  1924: a1 = sp + 0x60\n  1927: u64 [sp + 0x78] = a2\n  1930: ra = 28, jump @24\n      : @57 [@dyn 14] (gas: 3)\n  1935: a0 = sp + 0x40\n  1938: a1 = 0x40\n  1941: ra = 30, jump @22\n      : @58 [@dyn 15] (gas: 12)\n  1946: a0 = u64 [sp + 0x58]\n  1949: a1 = u64 [sp + 0x50]\n  1952: a2 = u64 [sp + 0x48]\n  1955: s1 = u64 [sp + 0x40]\n  1958: a0 = a0 | a2\n  1961: a2 = s1 | a1\n  1964: a2 = a2 | a0\n  1967: a2 = a2 >> 0x20\n  1970: a0 = a0 | a1\n  1973: a0 = a0 << 0x20\n  1976: a0 = a0 | a2\n  1979: jump @67 if a0 == 0\n      : @59 (gas: 1)\n  1982: trap\n      : @60 (gas: 4)\n  1983: a1 = 0x20180\n  1988: i32 a1 = a1 + 0\n  1990: a0 = 0x1\n  1993: jump @72\n      : @61 (gas: 4)\n  1996: a1 = 0x20180\n  2001: i32 a1 = a1 + 0\n  2003: a0 = 0x1\n  2006: jump @72\n      : @62 (gas: 4)\n  2009: a1 = 0x20180\n  2014: i32 a1 = a1 + 0\n  2016: a0 = 0x1\n  2019: jump @72\n      : @63 (gas: 8)\n  2022: u64 [sp + 16] = 0\n  2025: u64 [sp + 8] = 0\n  2028: u64 [sp + 0] = 0\n  2030: a0 = 0x14bcf5c800000000\n  2040: a1 = sp\n  2042: u64 [sp + 0x18] = a0\n  2045: a0 = 0\n  2047: ra = 32, jump @24\n      : @64 [@dyn 16] (gas: 2)\n  2052: a1 = i32 [0x20170]\n  2057: jump @66 if a1 >u 31\n      : @65 (gas: 2)\n  2061: u32 [0x20170] = 0x20\n  2067: fallthrough\n      : @66 (gas: 6)\n  2068: a1 = 0x20180\n  2073: i32 a1 = a1 + 0\n  2075: a0 = 0x1\n  2078: a2 = 0x4\n  2081: ecalli 13 // 'seal_return'\n  2083: fallthrough\n      : @67 (gas: 3)\n  2084: a0 = s1\n  2086: a1 = 0\n  2088: ra = 34, jump @37\n      : @68 [@dyn 17] (gas: 7)\n  2093: i32 a0 = a0 + 0\n  2095: a1 = 0\n  2097: a2 = 0\n  2099: ecalli 1 // 'call_data_copy'\n  2101: a0 = sp + 0x20\n  2104: a1 = 0x80\n  2108: ra = 36, jump @22\n      : @69 [@dyn 18] (gas: 9)\n  2113: a0 = u64 [sp + 0x38]\n  2116: a2 = u64 [sp + 0x30]\n  2119: a3 = u64 [sp + 0x28]\n  2122: a4 = u64 [sp + 0x20]\n  2125: u64 [0x301b8] = a0\n  2130: u64 [0x301b0] = a2\n  2135: u64 [0x301a8] = a3\n  2140: u64 [0x301a0] = a4\n  2145: jump @20\n      : @70 (gas: 3)\n  2148: a0 = s1\n  2150: a1 = 0\n  2152: ra = 38, jump @37\n      : @71 [@dyn 19] (gas: 6)\n  2157: i32 a1 = a0 + 0\n  2159: a0 = 0\n  2161: a2 = 0\n  2163: ra = 0x28\n  2166: ecalli 13 // 'seal_return'\n  2168: jump @73\n      : @72 (gas: 4)\n  2170: a2 = 0\n  2172: ra = 0x28\n  2175: ecalli 13 // 'seal_return'\n  2177: fallthrough\n      : @73 [@dyn 20] (gas: 16)\n  2178: sp = sp + 0xfffffffffffffe10\n  2182: u64 [sp + 0x1e8] = ra\n  2186: u64 [sp + 0x1e0] = s0\n  2190: u64 [sp + 0x1d8] = s1\n  2194: s0 = sp + 0x1f0\n  2198: sp = sp + 0xffffffffffffd1f0\n  2202: sp = sp & 0xffffffffffffffe0\n  2205: s1 = sp\n  2207: a2 = s1 + 0x2118\n  2211: u64 [a2 + 1536] = 0\n  2215: u64 [a2 + 1528] = 0\n  2219: u64 [a2 + 1512] = 0x80\n  2225: a0 = 0x40\n  2228: a1 = s1 + 0x2700\n  2232: u64 [a2 + 1520] = 0\n  2236: ra = 42, jump @24\n      : @74 [@dyn 21] (gas: 4)\n  2241: a0 = 0x2016c\n  2246: u64 [s1 + 0x198] = a0\n  2250: a0 = i32 [0x2016c]\n  2255: jump @76 if a0 >=u 4\n      : @75 (gas: 1)\n  2259: jump @1037\n      : @76 (gas: 6)\n  2262: a0 = s1 + 0x2000\n  2266: i32 a0 = a0 + 0x720\n  2270: a1 = 0\n  2272: ra = 0x2c\n  2275: ecalli 2 // 'call_data_load'\n  2277: fallthrough\n      : @77 [@dyn 22] (gas: 3)\n  2278: a2 = s1 + 0x2118\n  2282: a0 = i32 [a2 + 0x624]\n  2286: jump @79 if a0 != 2293374087\n      : @78 (gas: 1)\n  2293: jump @283\n      : @79 (gas: 1)\n  2296: jump @154 if a0 == 2401489772\n      : @80 (gas: 1)\n  2304: jump @82 if a0 != 2573362740\n      : @81 (gas: 1)\n  2311: jump @428\n      : @82 (gas: 1)\n  2314: jump @84 if a0 != 3062082785\n      : @83 (gas: 1)\n  2321: jump @322\n      : @84 (gas: 1)\n  2324: jump @106 if a0 == 3135182381\n      : @85 (gas: 1)\n  2332: jump @87 if a0 != 3504541104\n      : @86 (gas: 1)\n  2339: jump @396\n      : @87 (gas: 1)\n  2342: jump @187 if a0 == 248271711\n      : @88 (gas: 1)\n  2350: jump @90 if a0 != 573237126\n      : @89 (gas: 1)\n  2357: jump @369\n      : @90 (gas: 1)\n  2360: jump @118 if a0 == 773487949\n      : @91 (gas: 1)\n  2368: jump @224 if a0 == 932579317\n      : @92 (gas: 1)\n  2376: jump @94 if a0 != 1221342904\n      : @93 (gas: 1)\n  2383: jump @260\n      : @94 (gas: 1)\n  2386: jump @96 if a0 == 1251080110\n      : @95 (gas: 1)\n  2393: jump @465\n      : @96 (gas: 11)\n  2396: a0 = s1 + 0x2918\n  2400: u64 [a0 + 544] = 0\n  2404: u64 [a0 + 536] = 0\n  2408: u64 [a0 + 528] = 0\n  2412: u64 [a0 + 520] = 0\n  2416: a0 = s1 + 0x3000\n  2420: i32 a0 = a0 + 0xfffffffffffffb20\n  2424: ra = 0x2e\n  2427: ecalli 16 // 'value_transferred'\n  2429: t0 = 0x30\n  2432: jump @1525\n      : @97 [@dyn 23] (gas: 1)\n  2436: t0 = 48, jump @1525\n      : @98 [@dyn 24] (gas: 8)\n  2442: a0 = u64 [a4 + 0x18]\n  2445: a1 = u64 [a4 + 0x20]\n  2448: a2 = u64 [a4 + 0x10]\n  2451: a3 = u64 [a4 + 0x8]\n  2454: a1 = a1 | a2\n  2457: a0 = a0 | a3\n  2460: a0 = a0 | a1\n  2463: jump @100 if a0 == 0\n      : @99 (gas: 1)\n  2466: jump @776\n      : @100 (gas: 3)\n  2469: a0 = u64 [s1 + 0x198]\n  2473: a0 = i32 [a0]\n  2475: jump @102 if a0 >u 3\n      : @101 (gas: 1)\n  2479: jump @777\n      : @102 (gas: 3)\n  2482: a0 = s1 + 0x1080\n  2486: a1 = 0x40\n  2489: ra = 50, jump @22\n      : @103 [@dyn 25] (gas: 15)\n  2494: a3 = s1 + 0x7ff\n  2498: a3 = a3 + 0x119\n  2502: a5 = a3 + 0x700\n  2506: a4 = u64 [a5 + 0x80]\n  2510: a1 = u64 [a5 + 0x78]\n  2513: a2 = u64 [a5 + 0x70]\n  2516: a0 = u64 [a5 + 0x68]\n  2519: a4 = a4 | a2\n  2522: a2 = a0 | a1\n  2525: a2 = a2 | a4\n  2528: a2 = a2 >> 0x20\n  2531: a1 = a1 | a4\n  2534: a1 = a1 << 0x20\n  2537: a1 = a1 | a2\n  2540: jump @105 if a1 == 0\n      : @104 (gas: 1)\n  2543: jump @775\n      : @105 (gas: 9)\n  2546: a1 = u64 [0x200a0]\n  2551: u64 [a3 + 1888] = 0\n  2555: u64 [a3 + 1880] = 0\n  2559: u64 [a3 + 0x748] = a1\n  2563: a1 = s1 + 0x1060\n  2567: u64 [a3 + 1872] = 0\n  2571: u64 [s1 + 0x198] = a0\n  2575: ra = 0x130\n  2579: jump @24\n      : @106 (gas: 12)\n  2582: a0 = s1 + 0x2918\n  2586: u64 [a0 + 1600] = 0\n  2590: u64 [a0 + 1592] = 0\n  2594: u64 [a0 + 1584] = 0\n  2598: u64 [a0 + 1576] = 0\n  2602: a0 = s1 + 0x3000\n  2606: i32 a0 = a0 + 0xffffffffffffff40\n  2610: ra = 0x34\n  2613: ecalli 16 // 'value_transferred'\n  2615: a0 = 0x3000\n  2619: t0 = 0x36\n  2622: jump @1563\n      : @107 [@dyn 26] (gas: 2)\n  2626: a0 = 0x3000\n  2630: t0 = 54, jump @1563\n      : @108 [@dyn 27] (gas: 1)\n  2636: t0 = 56, jump @1536\n      : @109 [@dyn 28] (gas: 1)\n  2642: jump @111 if a0 == 0\n      : @110 (gas: 1)\n  2645: jump @778\n      : @111 (gas: 3)\n  2648: a0 = u64 [s1 + 0x198]\n  2652: a0 = i32 [a0]\n  2654: jump @113 if a0 >u 3\n      : @112 (gas: 1)\n  2658: jump @779\n      : @113 (gas: 8)\n  2661: a0 = s1 + 0x2918\n  2665: u64 [a0 + 1632] = 0\n  2669: u64 [a0 + 1624] = 0\n  2673: u64 [a0 + 1616] = 0\n  2677: u64 [a0 + 1608] = 0\n  2681: a0 = s1 + 0x25a0\n  2685: a1 = s1 + 0x2f60\n  2689: ra = 58, jump @26\n      : @114 [@dyn 29] (gas: 14)\n  2694: a1 = s1 + 0x2118\n  2698: a2 = a1 + 0x400\n  2702: a0 = u64 [a2 + 0xa0]\n  2706: a1 = s1 + 0x100\n  2710: u64 [a1 + 0x98] = a0\n  2714: a0 = u64 [a2 + 0x98]\n  2718: u64 [a1 + 0x90] = a0\n  2722: a0 = u64 [a2 + 0x90]\n  2726: u64 [a1 + 0x88] = a0\n  2730: a0 = u64 [a2 + 0x88]\n  2734: u64 [a1 + 0x80] = a0\n  2738: a0 = s1 + 0x2580\n  2742: a1 = 0x40\n  2745: ra = 60, jump @22\n      : @115 [@dyn 30] (gas: 14)\n  2750: a3 = s1 + 0x2118\n  2754: a5 = a3 + 0x400\n  2758: a0 = u64 [a5 + 0x80]\n  2762: a1 = u64 [a5 + 0x78]\n  2765: a2 = u64 [a5 + 0x70]\n  2768: a4 = u64 [a5 + 0x68]\n  2771: a0 = a0 | a2\n  2774: a2 = a4 | a1\n  2777: a2 = a2 | a0\n  2780: a2 = a2 >> 0x20\n  2783: a0 = a0 | a1\n  2786: a0 = a0 << 0x20\n  2789: a0 = a0 | a2\n  2792: jump @117 if a0 == 0\n      : @116 (gas: 1)\n  2795: jump @775\n      : @117 (gas: 15)\n  2798: a2 = s1 + 0x100\n  2802: a0 = u64 [a2 + 0x80]\n  2806: a5 = a3 + 0x400\n  2810: u64 [a5 + 0x48] = a0\n  2813: a0 = u64 [a2 + 0x88]\n  2817: u64 [a5 + 0x50] = a0\n  2820: a0 = u64 [a2 + 0x90]\n  2824: u64 [a5 + 0x58] = a0\n  2827: a1 = s1 + 0x2560\n  2831: a0 = u64 [a2 + 0x98]\n  2835: u64 [a5 + 0x60] = a0\n  2838: a0 = a4\n  2840: u64 [a2 + 0x98] = a4\n  2844: ra = 0x130\n  2848: jump @24\n      : @118 (gas: 9)\n  2851: u64 [a2 + 1856] = 0\n  2855: u64 [a2 + 1848] = 0\n  2859: u64 [a2 + 1840] = 0\n  2863: u64 [a2 + 1832] = 0\n  2867: a0 = s1 + 0x3000\n  2871: i32 a0 = a0 + 0xfffffffffffff840\n  2875: ra = 0x3e\n  2878: ecalli 16 // 'value_transferred'\n  2880: fallthrough\n      : @119 [@dyn 31] (gas: 3)\n  2881: a3 = s1 + 0x2118\n  2885: a4 = a3 + 0x700\n  2889: t0 = 64, jump @1536\n      : @120 [@dyn 32] (gas: 1)\n  2895: jump @122 if a0 == 0\n      : @121 (gas: 1)\n  2898: jump @780\n      : @122 (gas: 1)\n  2901: t0 = 66, jump @1552\n      : @123 [@dyn 33] (gas: 1)\n  2907: jump @125 if a1 <u a0\n      : @124 (gas: 1)\n  2910: jump @781\n      : @125 (gas: 6)\n  2913: a0 = s1 + 0x3000\n  2917: i32 a0 = a0 + 0xfffffffffffff860\n  2921: a1 = 0x4\n  2924: ra = 0x44\n  2927: ecalli 2 // 'call_data_load'\n  2929: fallthrough\n      : @126 [@dyn 34] (gas: 7)\n  2930: a0 = s1 + 0x2118\n  2934: a5 = a0 + 0x700\n  2938: a1 = u64 [a5 + 0x60]\n  2941: a2 = u64 [a5 + 0x58]\n  2944: a3 = u64 [a5 + 0x50]\n  2947: a4 = u64 [a5 + 0x48]\n  2950: t0 = 70, jump @1521\n      : @127 [@dyn 35] (gas: 1)\n  2956: jump @129 if a0 != 0\n      : @128 (gas: 1)\n  2959: jump @782\n      : @129 (gas: 8)\n  2962: a0 = 0x30180\n  2967: u64 [s1 + 0x180] = a0\n  2971: i32 a0 = a0 + 0\n  2973: u64 [s1 + 0x168] = a0\n  2977: ra = 0x48\n  2980: ecalli 4 // 'caller'\n  2982: t0 = 0x4a\n  2985: jump @1498\n      : @130 [@dyn 36] (gas: 1)\n  2989: t0 = 74, jump @1498\n      : @131 [@dyn 37] (gas: 7)\n  2995: u64 [s1 + 1368] = 0\n  2999: u64 [s1 + 0x550] = a1\n  3003: u64 [s1 + 0x548] = a0\n  3007: a1 = s1 + 0x540\n  3011: u64 [s1 + 0x540] = a3\n  3015: a0 = 0\n  3017: ra = 76, jump @24\n      : @132 [@dyn 38] (gas: 7)\n  3022: u64 [s1 + 1336] = 0\n  3026: u64 [s1 + 1328] = 0\n  3030: u64 [s1 + 1312] = 0x1\n  3035: a0 = 0x20\n  3038: a1 = s1 + 0x520\n  3042: u64 [s1 + 1320] = 0\n  3046: ra = 78, jump @24\n      : @133 [@dyn 39] (gas: 1)\n  3051: t0 = 80, jump @1560\n      : @134 [@dyn 40] (gas: 3)\n  3057: a2 = 0x20170\n  3062: a0 = i32 [0x20170]\n  3067: jump @136 if a0 >u 63\n      : @135 (gas: 2)\n  3071: u32 [0x20170] = 0x40\n  3077: fallthrough\n      : @136 (gas: 15)\n  3078: u64 [s1 + 0x140] = a2\n  3082: a0 = sp + 0xffffffffffffffe0\n  3085: a2 = a0 & 0xffffffffffffffe0\n  3088: u64 [s1 + 0x160] = a2\n  3092: sp = a2\n  3094: a0 = 0x20180\n  3099: i32 a0 = a0 + 0\n  3101: i32 a2 = a2 + 0\n  3103: a1 = 0x40\n  3106: u64 [s1 + 0x148] = a0\n  3110: ra = 0x52\n  3113: ecalli 8 // 'hash_keccak_256'\n  3115: a3 = u64 [s1 + 0x160]\n  3119: t0 = 0x54\n  3122: jump @1501\n      : @137 [@dyn 41] (gas: 2)\n  3126: a3 = u64 [s1 + 0x160]\n  3130: t0 = 84, jump @1501\n      : @138 [@dyn 42] (gas: 2)\n  3136: a0 = s1 + 0x500\n  3140: ra = 86, jump @26\n      : @139 [@dyn 43] (gas: 24)\n  3145: t1 = u64 [s1 + 0x518]\n  3149: t2 = u64 [s1 + 0x510]\n  3153: t0 = u64 [s1 + 0x508]\n  3157: a3 = u64 [s1 + 0x500]\n  3161: a0 = u64 [s1 + 0x198]\n  3165: a4 = t1 ^ a0\n  3168: a5 = t1 <u a0\n  3171: a1 = u64 [s1 + 0x178]\n  3175: a0 = t2 <u a1\n  3178: u64 [s1 + 0x158] = a0\n  3182: a5 = a0 if a4 == 0\n  3185: a0 = u64 [s1 + 0x190]\n  3189: ra = t0 ^ a0\n  3192: a0 = t0 <u a0\n  3195: a2 = u64 [s1 + 0x188]\n  3199: u64 [s1 + 0x160] = a3\n  3203: a2 = a3 <u a2\n  3206: u64 [s1 + 0x150] = a2\n  3210: a0 = a2 if ra == 0\n  3213: ra = a1\n  3215: a1 = t2 ^ a1\n  3218: a1 = a1 | a4\n  3221: a5 = a0 if a1 == 0\n  3224: jump @141 if a5 == 0\n      : @140 (gas: 1)\n  3227: jump @786\n      : @141 (gas: 11)\n  3230: a1 = t2 - ra\n  3233: a2 = u64 [s1 + 0x198]\n  3237: a2 = t1 - a2\n  3240: a3 = u64 [s1 + 0x158]\n  3244: a2 = a2 - a3\n  3247: a3 = a1 <u a0\n  3250: a2 = a2 - a3\n  3253: a1 = a1 - a0\n  3256: a0 = u64 [s1 + 0x190]\n  3260: a0 = t0 - a0\n  3263: t0 = 88, jump @1527\n      : @142 [@dyn 44] (gas: 7)\n  3269: u64 [a5 + 0x68] = a3\n  3272: u64 [a5 + 0x70] = a0\n  3275: u64 [a5 + 0x78] = a1\n  3278: u64 [a5 + 0x80] = a2\n  3282: a1 = s1 + 0x2880\n  3286: a0 = u64 [s1 + 0x170]\n  3290: ra = 90, jump @28\n      : @143 [@dyn 45] (gas: 5)\n  3295: a0 = u64 [s1 + 0x168]\n  3299: ra = 0x5c\n  3302: ecalli 4 // 'caller'\n  3304: t0 = 0x5e\n  3307: jump @1510\n      : @144 [@dyn 46] (gas: 1)\n  3311: t0 = 94, jump @1510\n      : @145 [@dyn 47] (gas: 14)\n  3317: u64 [s1 + 0x4d8] = a2\n  3321: a2 = u64 [a4 + 0x78]\n  3324: u64 [s1 + 0x4d0] = a2\n  3328: a2 = u64 [a4 + 0x90]\n  3332: u64 [s1 + 0x4c8] = a2\n  3336: a2 = u64 [a4 + 0x88]\n  3340: u64 [s1 + 0x4c0] = a2\n  3344: u64 [s1 + 1272] = 0\n  3348: u64 [s1 + 0x4f0] = a1\n  3352: u64 [s1 + 0x4e8] = a0\n  3356: a0 = s1 + 0x4e0\n  3360: a1 = s1 + 0x4c0\n  3364: u64 [s1 + 0x4e0] = a3\n  3368: ra = 96, jump @1468\n      : @146 [@dyn 48] (gas: 3)\n  3374: a0 = s1 + 0x4a0\n  3378: a1 = 0x40\n  3381: ra = 98, jump @22\n      : @147 [@dyn 49] (gas: 6)\n  3386: a4 = s1 + 0x400\n  3390: a0 = u64 [a4 + 0xb8]\n  3394: a1 = u64 [a4 + 0xb0]\n  3398: a2 = u64 [a4 + 0xa8]\n  3402: a3 = u64 [a4 + 0xa0]\n  3406: t0 = 100, jump @1514\n      : @148 [@dyn 50] (gas: 1)\n  3412: jump @150 if a0 == 0\n      : @149 (gas: 1)\n  3415: jump @775\n      : @150 (gas: 12)\n  3418: a0 = u64 [s1 + 0x188]\n  3422: u64 [s1 + 0x480] = a0\n  3426: a0 = u64 [s1 + 0x190]\n  3430: u64 [s1 + 0x488] = a0\n  3434: a0 = u64 [s1 + 0x178]\n  3438: u64 [s1 + 0x490] = a0\n  3442: a1 = s1 + 0x480\n  3446: a0 = u64 [s1 + 0x198]\n  3450: u64 [s1 + 0x498] = a0\n  3454: a0 = a3\n  3456: u64 [s1 + 0x198] = a3\n  3460: ra = 102, jump @24\n      : @151 [@dyn 51] (gas: 6)\n  3465: a0 = u64 [s1 + 0x168]\n  3469: ra = 0x68\n  3472: ecalli 4 // 'caller'\n  3474: a2 = u64 [s1 + 0x180]\n  3478: t0 = 0x6a\n  3481: jump @1494\n      : @152 [@dyn 52] (gas: 2)\n  3485: a2 = u64 [s1 + 0x180]\n  3489: t0 = 106, jump @1494\n      : @153 [@dyn 53] (gas: 25)\n  3495: t0 = a1 | a0\n  3498: a3 = a3 >> 0x20\n  3501: a2 = reverse a2\n  3503: a1 = a2 << 0x20\n  3506: a1 = a1 | a3\n  3509: a2 = a2 >> 0x20\n  3512: u64 [s1 + 1112] = 0\n  3516: a3 = u64 [0x200f8]\n  3521: a4 = u64 [0x20100]\n  3526: a5 = u64 [0x20108]\n  3531: a0 = u64 [0x20110]\n  3536: u64 [s1 + 0x478] = a3\n  3540: a3 = s1 + 0x400\n  3544: u64 [a3 + 0x70] = a4\n  3547: u64 [a3 + 0x68] = a5\n  3550: u64 [a3 + 0x60] = a0\n  3553: u64 [a3 + 0x50] = a2\n  3556: u64 [a3 + 0x48] = a1\n  3559: a1 = 0x20\n  3562: a2 = s1 + 0x460\n  3566: a3 = s1 + 0x440\n  3570: u64 [s1 + 0x440] = t0\n  3574: a0 = u64 [s1 + 0x198]\n  3578: ra = 0xec\n  3582: jump @29\n      : @154 (gas: 11)\n  3585: a0 = s1 + 0x2918\n  3589: u64 [a0 + 640] = 0\n  3593: u64 [a0 + 632] = 0\n  3597: u64 [a0 + 624] = 0\n  3601: u64 [a0 + 616] = 0\n  3605: a0 = s1 + 0x3000\n  3609: i32 a0 = a0 + 0xfffffffffffffb80\n  3613: ra = 0x6c\n  3616: ecalli 16 // 'value_transferred'\n  3618: t0 = 0x6e\n  3621: jump @1525\n      : @155 [@dyn 54] (gas: 1)\n  3625: t0 = 110, jump @1525\n      : @156 [@dyn 55] (gas: 1)\n  3631: t0 = 112, jump @1526\n      : @157 [@dyn 56] (gas: 1)\n  3637: jump @159 if a0 == 0\n      : @158 (gas: 1)\n  3640: jump @787\n      : @159 (gas: 1)\n  3643: t0 = 114, jump @1552\n      : @160 [@dyn 57] (gas: 1)\n  3649: jump @162 if a1 <u a0\n      : @161 (gas: 1)\n  3652: jump @788\n      : @162 (gas: 6)\n  3655: a0 = s1 + 0x3000\n  3659: i32 a0 = a0 + 0xfffffffffffffba0\n  3663: a1 = 0x4\n  3666: ra = 0x74\n  3669: ecalli 2 // 'call_data_load'\n  3671: fallthrough\n      : @163 [@dyn 58] (gas: 7)\n  3672: a0 = s1 + 0x2918\n  3676: a5 = a0 + 0x200\n  3680: a1 = u64 [a5 + 0xa0]\n  3684: a2 = u64 [a5 + 0x98]\n  3688: a3 = u64 [a5 + 0x90]\n  3692: a4 = u64 [a5 + 0x88]\n  3696: t0 = 118, jump @1521\n      : @164 [@dyn 59] (gas: 1)\n  3702: jump @166 if a0 != 0\n      : @165 (gas: 1)\n  3705: jump @789\n      : @166 (gas: 28)\n  3708: a0 = 0x30180\n  3713: u64 [s1 + 0x170] = a0\n  3717: i32 a0 = a0 + 0\n  3719: u64 [s1 + 0x140] = a0\n  3723: ecalli 4 // 'caller'\n  3725: a2 = u64 [s1 + 0x170]\n  3729: a0 = u64 [a2 + 0x8]\n  3732: a1 = i32 [a2 + 0x10]\n  3735: a2 = u64 [a2]\n  3737: a0 = reverse a0\n  3739: a3 = a0 << 0x20\n  3742: a1 = reverse a1\n  3744: a1 = a1 >> 0x20\n  3747: a3 = a3 | a1\n  3750: a0 = a0 >> 0x20\n  3753: a1 = reverse a2\n  3755: a2 = a1 << 0x20\n  3758: a0 = a0 | a2\n  3761: a1 = a1 >> 0x20\n  3764: a2 = s1 + 0x1118\n  3768: u64 [a2 + 640] = 0\n  3772: a4 = a2 + 0x200\n  3776: u64 [a4 + 0x78] = a1\n  3779: u64 [a4 + 0x70] = a0\n  3782: a1 = s1 + 0x1380\n  3786: u64 [a4 + 0x68] = a3\n  3789: a0 = 0\n  3791: ra = 120, jump @24\n      : @167 [@dyn 60] (gas: 3)\n  3796: t0 = 0x7a\n  3799: a1 = s1 + 0x1118\n  3803: fallthrough\n      : @168 [@dyn 61] (gas: 8)\n  3804: u64 [a1 + 608] = 0\n  3808: u64 [a1 + 600] = 0\n  3812: u64 [a1 + 584] = 0x1\n  3817: a2 = a1\n  3819: a0 = 0x20\n  3822: a1 = s1 + 0x1360\n  3826: u64 [a2 + 592] = 0\n  3830: ra = 124, jump @24\n      : @169 [@dyn 62] (gas: 7)\n  3835: a0 = sp + 0xffffffffffffffe0\n  3838: a0 = a0 & 0xffffffffffffffe0\n  3841: u64 [s1 + 0x180] = a0\n  3845: sp = a0\n  3847: a2 = 0x20170\n  3852: a0 = i32 [0x20170]\n  3857: jump @171 if a0 >u 63\n      : @170 (gas: 2)\n  3861: u32 [0x20170] = 0x40\n  3867: fallthrough\n      : @171 (gas: 14)\n  3868: u64 [s1 + 0x138] = a2\n  3872: a0 = sp + 0xffffffffffffffe0\n  3875: a2 = a0 & 0xffffffffffffffe0\n  3878: u64 [s1 + 0x168] = a2\n  3882: sp = a2\n  3884: a0 = 0x20180\n  3889: i32 a0 = a0 + 0\n  3891: i32 a2 = a2 + 0\n  3893: a1 = 0x40\n  3896: u64 [s1 + 0x148] = a0\n  3900: ra = 0x7e\n  3903: ecalli 8 // 'hash_keccak_256'\n  3905: t0 = 0x80\n  3909: jump @1547\n      : @172 [@dyn 63] (gas: 1)\n  3913: t0 = 128, jump @1547\n      : @173 [@dyn 64] (gas: 26)\n  3920: a5 = reverse a1\n  3922: a2 = reverse a2\n  3924: t0 = reverse a3\n  3926: a4 = u64 [s1 + 0x180]\n  3930: u64 [a4 + 0x18] = t0\n  3933: u64 [a4 + 0x10] = a2\n  3936: u64 [a4 + 0x8] = a5\n  3939: u64 [a4] = a0\n  3941: a4 = sp + 0xffffffffffffffe0\n  3944: a1 = a4 & 0xffffffffffffffe0\n  3947: sp = a1\n  3949: a4 = a0 + 0x2\n  3952: a0 = a4 <u a0\n  3955: a3 = a5 + a0\n  3958: a5 = a3 <u a5\n  3961: a5 = a0 if a0 == 0\n  3964: a5 = a5 + a2\n  3967: a0 = a5 <u a2\n  3970: a0 = a0 + t0\n  3973: u64 [a1 + 0x10] = a5\n  3976: u64 [a1 + 0x8] = a3\n  3979: u64 [a1] = a4\n  3981: u64 [a1 + 0x18] = a0\n  3984: a0 = s1 + 0x1340\n  3988: u64 [s1 + 0x168] = a1\n  3992: ra = 130, jump @26\n      : @174 [@dyn 65] (gas: 25)\n  3998: a0 = s1 + 0x1118\n  4002: t1 = u64 [a0 + 0x240]\n  4006: t2 = u64 [a0 + 0x238]\n  4010: t0 = u64 [a0 + 0x230]\n  4014: a3 = u64 [a0 + 0x228]\n  4018: a0 = u64 [s1 + 0x198]\n  4022: a4 = t1 ^ a0\n  4025: a5 = t1 <u a0\n  4028: a1 = u64 [s1 + 0x178]\n  4032: a0 = t2 <u a1\n  4035: u64 [s1 + 0x158] = a0\n  4039: a5 = a0 if a4 == 0\n  4042: a0 = u64 [s1 + 0x190]\n  4046: ra = t0 ^ a0\n  4049: a0 = t0 <u a0\n  4052: a2 = u64 [s1 + 0x188]\n  4056: u64 [s1 + 0x160] = a3\n  4060: a2 = a3 <u a2\n  4063: u64 [s1 + 0x150] = a2\n  4067: a0 = a2 if ra == 0\n  4070: ra = a1\n  4072: a1 = t2 ^ a1\n  4075: a1 = a1 | a4\n  4078: a5 = a0 if a1 == 0\n  4081: jump @176 if a5 == 0\n      : @175 (gas: 1)\n  4084: jump @794\n      : @176 (gas: 24)\n  4087: a1 = t2 - ra\n  4090: a2 = u64 [s1 + 0x198]\n  4094: a2 = t1 - a2\n  4097: a3 = u64 [s1 + 0x158]\n  4101: a2 = a2 - a3\n  4104: a3 = a1 <u a0\n  4107: a2 = a2 - a3\n  4110: a1 = a1 - a0\n  4113: a0 = u64 [s1 + 0x190]\n  4117: a0 = t0 - a0\n  4120: a3 = u64 [s1 + 0x150]\n  4124: a0 = a0 - a3\n  4127: a3 = u64 [s1 + 0x160]\n  4131: a4 = u64 [s1 + 0x188]\n  4135: a3 = a3 - a4\n  4138: a4 = s1 + 0x2918\n  4142: a5 = a4 + 0x200\n  4146: u64 [a5 + 0xa8] = a3\n  4150: u64 [a5 + 0xb0] = a0\n  4154: u64 [a5 + 0xb8] = a1\n  4158: u64 [a5 + 0xc0] = a2\n  4162: a1 = s1 + 0x2bc0\n  4166: a0 = u64 [s1 + 0x168]\n  4170: ra = 132, jump @28\n      : @177 [@dyn 66] (gas: 3)\n  4176: a0 = s1 + 0x1320\n  4180: a1 = u64 [s1 + 0x180]\n  4184: ra = 134, jump @26\n      : @178 [@dyn 67] (gas: 33)\n  4190: a2 = s1 + 0x1118\n  4194: a4 = a2 + 0x200\n  4198: a0 = u64 [a4 + 0x10]\n  4201: a1 = u64 [a4 + 0x8]\n  4204: t0 = u64 [a2 + 0x220]\n  4208: a3 = u64 [a4 + 0x18]\n  4211: a4 = u64 [s1 + 0x190]\n  4215: a4 = a4 + a0\n  4218: a5 = u64 [s1 + 0x188]\n  4222: a5 = a5 + a1\n  4225: a1 = a5 <u a1\n  4228: a4 = a4 + a1\n  4231: a2 = a4 ^ a0\n  4234: a0 = a4 <u a0\n  4237: a0 = a1 if a2 == 0\n  4240: a1 = u64 [s1 + 0x178]\n  4244: a1 = a1 + a3\n  4247: a2 = u64 [s1 + 0x198]\n  4251: t0 = t0 + a2\n  4254: a2 = a1 <u a3\n  4257: a2 = a2 + t0\n  4260: a0 = a0 + a1\n  4263: a1 = a0 <u a1\n  4266: a1 = a1 + a2\n  4269: a2 = s1 + 0x2918\n  4273: a3 = a2 + 0x200\n  4277: u64 [a3 + 0xc8] = a5\n  4281: u64 [a3 + 0xd0] = a4\n  4285: u64 [a3 + 0xd8] = a0\n  4289: u64 [a3 + 0xe0] = a1\n  4293: a1 = s1 + 0x2be0\n  4297: a0 = u64 [s1 + 0x180]\n  4301: ra = 136, jump @28\n      : @179 [@dyn 68] (gas: 3)\n  4307: a0 = s1 + 0x1300\n  4311: a1 = 0x40\n  4314: ra = 138, jump @22\n      : @180 [@dyn 69] (gas: 7)\n  4320: a4 = s1 + 0x1118\n  4324: a0 = u64 [a4 + 0x200]\n  4328: a5 = a4 + 0x100\n  4332: a1 = u64 [a5 + 0xf8]\n  4336: a2 = u64 [a5 + 0xf0]\n  4340: a3 = u64 [a5 + 0xe8]\n  4344: t0 = 140, jump @1514\n      : @181 [@dyn 70] (gas: 1)\n  4351: jump @183 if a0 == 0\n      : @182 (gas: 1)\n  4354: jump @775\n      : @183 (gas: 13)\n  4357: a0 = u64 [s1 + 0x188]\n  4361: a2 = a4 + 0x100\n  4365: u64 [a2 + 0xc8] = a0\n  4369: a0 = u64 [s1 + 0x190]\n  4373: u64 [a2 + 0xd0] = a0\n  4377: a0 = u64 [s1 + 0x178]\n  4381: u64 [a2 + 0xd8] = a0\n  4385: a1 = s1 + 0x12e0\n  4389: a0 = u64 [s1 + 0x198]\n  4393: u64 [a2 + 0xe0] = a0\n  4397: a0 = a3\n  4399: u64 [s1 + 0x198] = a3\n  4403: ra = 142, jump @24\n      : @184 [@dyn 71] (gas: 6)\n  4409: a0 = u64 [s1 + 0x140]\n  4413: ra = 0x90\n  4417: ecalli 4 // 'caller'\n  4419: a2 = u64 [s1 + 0x170]\n  4423: t0 = 0x92\n  4427: jump @1494\n      : @185 [@dyn 72] (gas: 2)\n  4431: a2 = u64 [s1 + 0x170]\n  4435: t0 = 146, jump @1494\n      : @186 [@dyn 73] (gas: 26)\n  4442: t0 = a1 | a0\n  4445: a3 = a3 >> 0x20\n  4448: a2 = reverse a2\n  4450: a1 = a2 << 0x20\n  4453: a1 = a1 | a3\n  4456: a2 = a2 >> 0x20\n  4459: a3 = u64 [0x20080]\n  4464: a0 = s1 + 0x1118\n  4468: u64 [a0 + 0x1c0] = a3\n  4472: a3 = u64 [0x20088]\n  4477: a4 = u64 [0x20090]\n  4482: a5 = u64 [0x20098]\n  4487: u64 [a0 + 0x1b8] = a3\n  4491: a3 = a0 + 0x100\n  4495: u64 [a3 + 0xb0] = a4\n  4499: u64 [a0 + 416] = 0\n  4503: u64 [a3 + 0xa8] = a5\n  4507: u64 [a3 + 0x98] = a2\n  4511: u64 [a3 + 0x90] = a1\n  4515: a1 = 0x20\n  4518: a2 = s1 + 0x12c0\n  4522: a3 = s1 + 0x12a0\n  4526: u64 [a0 + 0x188] = t0\n  4530: a0 = u64 [s1 + 0x198]\n  4534: ra = 0xec\n  4538: jump @29\n      : @187 (gas: 10)\n  4541: u64 [a2 + 1664] = 0\n  4545: u64 [a2 + 1656] = 0\n  4549: u64 [a2 + 1648] = 0\n  4553: u64 [a2 + 1640] = 0\n  4557: a0 = s1 + 0x2000\n  4561: i32 a0 = a0 + 0x780\n  4565: ra = 0x94\n  4569: ecalli 16 // 'value_transferred'\n  4571: t0 = 0x96\n  4575: jump @1566\n      : @188 [@dyn 74] (gas: 1)\n  4579: t0 = 150, jump @1566\n      : @189 [@dyn 75] (gas: 1)\n  4586: t0 = 152, jump @1526\n      : @190 [@dyn 76] (gas: 1)\n  4593: jump @192 if a0 == 0\n      : @191 (gas: 1)\n  4596: jump @798\n      : @192 (gas: 1)\n  4599: t0 = 154, jump @1552\n      : @193 [@dyn 77] (gas: 1)\n  4606: jump @195 if a1 <u a0\n      : @194 (gas: 1)\n  4609: jump @799\n      : @195 (gas: 4)\n  4612: a0 = s1 + 0x3a0\n  4616: ra = 0x9c\n  4620: t0 = 0x588\n  4624: jump @1553\n      : @196 [@dyn 78] (gas: 10)\n  4628: a0 = u64 [s1 + 0x3a0]\n  4632: a1 = u64 [s1 + 0x3a8]\n  4636: a2 = u32 [s1 + 0x3b0]\n  4640: u64 [s1 + 920] = 0\n  4644: u64 [s1 + 0x390] = a2\n  4648: u64 [s1 + 0x388] = a1\n  4652: a1 = s1 + 0x380\n  4656: u64 [s1 + 0x380] = a0\n  4660: a0 = 0\n  4662: ra = 158, jump @24\n      : @197 [@dyn 79] (gas: 7)\n  4668: u64 [s1 + 888] = 0\n  4672: u64 [s1 + 880] = 0\n  4676: u64 [s1 + 864] = 0x1\n  4681: a0 = 0x20\n  4684: a1 = s1 + 0x360\n  4688: u64 [s1 + 872] = 0\n  4692: ra = 160, jump @24\n      : @198 [@dyn 80] (gas: 1)\n  4698: t0 = 162, jump @1561\n      : @199 [@dyn 81] (gas: 2)\n  4705: a1 = i32 [0x20170]\n  4710: jump @201 if a1 >u 63\n      : @200 (gas: 4)\n  4714: a1 = 0x40\n  4717: u32 [0x20170] = a1\n  4722: t0 = 0xa4\n  4726: jump @1534\n      : @201 (gas: 1)\n  4730: t0 = 164, jump @1534\n      : @202 [@dyn 82] (gas: 25)\n  4737: a0 = 0x20180\n  4742: i32 a0 = a0 + 0\n  4744: i32 a2 = a2 + 0\n  4746: a1 = 0x40\n  4749: ecalli 8 // 'hash_keccak_256'\n  4751: a3 = u64 [s1 + 0x198]\n  4755: a0 = u64 [a3 + 0x18]\n  4758: a1 = u64 [a3 + 0x10]\n  4761: a2 = u64 [a3 + 0x8]\n  4764: a3 = u64 [a3]\n  4766: a5 = reverse a0\n  4768: u64 [s1 + 0x188] = a5\n  4772: a4 = reverse a1\n  4774: u64 [s1 + 0x190] = a4\n  4778: a2 = reverse a2\n  4780: u64 [s1 + 0x180] = a2\n  4784: a0 = reverse a3\n  4786: u64 [s1 + 0x198] = a0\n  4790: a1 = u64 [s1 + 0x178]\n  4794: u64 [a1 + 0x18] = a0\n  4797: u64 [a1 + 0x10] = a2\n  4800: u64 [a1 + 0x8] = a4\n  4803: u64 [a1] = a5\n  4805: a0 = s1 + 0x340\n  4809: ra = 166, jump @26\n      : @203 [@dyn 83] (gas: 29)\n  4815: a0 = u64 [s1 + 0x358]\n  4819: u64 [s1 + 0x178] = a0\n  4823: a0 = u64 [s1 + 0x350]\n  4827: u64 [s1 + 0x170] = a0\n  4831: a0 = u64 [s1 + 0x348]\n  4835: u64 [s1 + 0x168] = a0\n  4839: a0 = u64 [s1 + 0x340]\n  4843: u64 [s1 + 0x160] = a0\n  4847: a0 = u64 [s1 + 0x188]\n  4851: a0 = a0 + 0x1\n  4854: a1 = a0 <u 0x1\n  4857: a2 = u64 [s1 + 0x190]\n  4861: a1 = a1 + a2\n  4864: a2 = s1 + 0x2118\n  4868: a3 = a2 + 0x600\n  4872: u64 [a3 + 0x90] = a1\n  4876: a1 = a1 | a0\n  4879: u64 [a3 + 0x88] = a0\n  4883: a0 = a1 <u 0x1\n  4886: a1 = u64 [s1 + 0x180]\n  4890: a0 = a0 + a1\n  4893: u64 [a3 + 0x98] = a0\n  4897: a0 = a0 <u a1\n  4900: a1 = u64 [s1 + 0x198]\n  4904: a0 = a0 + a1\n  4907: u64 [a3 + 0xa0] = a0\n  4911: a0 = s1 + 0x320\n  4915: a1 = s1 + 0x27a0\n  4919: ra = 168, jump @26\n      : @204 [@dyn 84] (gas: 13)\n  4925: a0 = u64 [s1 + 0x338]\n  4929: u64 [s1 + 0x158] = a0\n  4933: a0 = u64 [s1 + 0x330]\n  4937: u64 [s1 + 0x150] = a0\n  4941: a0 = u64 [s1 + 0x328]\n  4945: u64 [s1 + 0x148] = a0\n  4949: a0 = u64 [s1 + 0x320]\n  4953: u64 [s1 + 0x140] = a0\n  4957: a1 = u64 [s1 + 0x188]\n  4961: a0 = a1 + 0x2\n  4964: a1 = a0 <u a1\n  4967: a3 = u64 [s1 + 0x190]\n  4971: t0 = 170, jump @1532\n      : @205 [@dyn 85] (gas: 14)\n  4978: a1 = u64 [s1 + 0x180]\n  4982: a3 = a3 + a1\n  4985: a1 = a3 <u a1\n  4988: a4 = u64 [s1 + 0x198]\n  4992: a1 = a1 + a4\n  4995: a4 = s1 + 0x2118\n  4999: a5 = a4 + 0x600\n  5003: u64 [a5 + 0xc0] = a1\n  5007: u64 [a5 + 0xb8] = a3\n  5011: u64 [a5 + 0xb0] = a2\n  5015: u64 [a5 + 0xa8] = a0\n  5019: a0 = s1 + 0x300\n  5023: a1 = s1 + 0x27c0\n  5027: ra = 172, jump @26\n      : @206 [@dyn 86] (gas: 10)\n  5033: a5 = s1 + 0x300\n  5037: a0 = u64 [a5 + 0x18]\n  5040: u64 [s1 + 0x138] = a0\n  5044: a0 = u64 [a5 + 0x10]\n  5047: u64 [s1 + 0x130] = a0\n  5051: a1 = u64 [s1 + 0x188]\n  5055: a0 = a1 + 0x3\n  5058: a1 = a0 <u a1\n  5061: a3 = u64 [s1 + 0x190]\n  5065: t0 = 174, jump @1532\n      : @207 [@dyn 87] (gas: 18)\n  5072: a1 = u64 [a5 + 0x8]\n  5075: u64 [s1 + 0x188] = a1\n  5079: a1 = u64 [s1 + 0x180]\n  5083: a3 = a3 + a1\n  5086: a1 = a3 <u a1\n  5089: a4 = u64 [s1 + 0x198]\n  5093: a1 = a1 + a4\n  5096: a4 = u64 [a5]\n  5098: u64 [s1 + 0x180] = a4\n  5102: a4 = s1 + 0x2118\n  5106: a5 = a4 + 0x600\n  5110: u64 [a5 + 0xe0] = a1\n  5114: u64 [a5 + 0xd8] = a3\n  5118: u64 [a5 + 0xd0] = a2\n  5122: u64 [a5 + 0xc8] = a0\n  5126: a0 = s1 + 0x2e0\n  5130: a1 = s1 + 0x27e0\n  5134: ra = 176, jump @26\n      : @208 [@dyn 88] (gas: 5)\n  5140: a0 = u64 [s1 + 0x2e0]\n  5144: u64 [s1 + 0x128] = a0\n  5148: a0 = s1 + 0x2c0\n  5152: a1 = 0x40\n  5155: ra = 178, jump @22\n      : @209 [@dyn 89] (gas: 13)\n  5161: a0 = s1 + 0x200\n  5165: a4 = u64 [a0 + 0xd8]\n  5169: a5 = u64 [a0 + 0xd0]\n  5173: a3 = u64 [a0 + 0xc8]\n  5177: a2 = u64 [a0 + 0xc0]\n  5181: a0 = a3 | a4\n  5184: a1 = a2 | a5\n  5187: a1 = a1 | a0\n  5190: a1 = a1 >> 0x20\n  5193: a0 = a0 | a5\n  5196: a0 = a0 << 0x20\n  5199: a0 = a0 | a1\n  5202: jump @211 if a0 == 0\n      : @210 (gas: 1)\n  5205: jump @775\n      : @211 (gas: 15)\n  5208: a0 = u64 [s1 + 0x160]\n  5212: u64 [s1 + 0x2a0] = a0\n  5216: a0 = u64 [s1 + 0x168]\n  5220: u64 [s1 + 0x2a8] = a0\n  5224: a0 = u64 [s1 + 0x170]\n  5228: u64 [s1 + 0x2b0] = a0\n  5232: a1 = s1 + 0x2a0\n  5236: a0 = u64 [s1 + 0x178]\n  5240: u64 [s1 + 0x2b8] = a0\n  5244: a0 = a2\n  5246: u64 [s1 + 0x198] = a2\n  5250: u64 [s1 + 0x190] = a3\n  5254: u64 [s1 + 0x178] = a4\n  5258: u64 [s1 + 0x170] = a5\n  5262: ra = 180, jump @24\n      : @212 [@dyn 90] (gas: 6)\n  5268: a5 = s1 + 0x100\n  5272: a1 = u64 [a5 + 0x98]\n  5276: a0 = u64 [a5 + 0x78]\n  5279: a3 = u64 [a5 + 0x70]\n  5282: a3 = a3 | a0\n  5285: t0 = 182, jump @1546\n      : @213 [@dyn 91] (gas: 1)\n  5292: jump @215 if a0 != 0\n      : @214 (gas: 1)\n  5295: jump @775\n      : @215 (gas: 14)\n  5298: i32 a0 = a1 + 0x20\n  5301: a1 = u64 [s1 + 0x140]\n  5305: a5 = s1 + 0x200\n  5309: u64 [a5 + 0x80] = a1\n  5313: a1 = u64 [s1 + 0x148]\n  5317: u64 [a5 + 0x88] = a1\n  5321: a1 = u64 [s1 + 0x150]\n  5325: u64 [a5 + 0x90] = a1\n  5329: a1 = s1 + 0x280\n  5333: a2 = u64 [s1 + 0x158]\n  5337: u64 [a5 + 0x98] = a2\n  5341: u64 [s1 + 0x178] = a3\n  5345: u64 [s1 + 0x170] = a4\n  5349: ra = 184, jump @24\n      : @216 [@dyn 92] (gas: 10)\n  5355: a2 = s1 + 0x100\n  5359: a4 = u64 [a2 + 0x78]\n  5362: a3 = u64 [a2 + 0x90]\n  5366: a1 = u64 [a2 + 0x98]\n  5370: a0 = u64 [a2 + 0x70]\n  5373: a0 = a0 + 0xffffffffffffffc0\n  5376: a0 = a1 <u a0\n  5379: a0 = 0 if a3 != 0\n  5381: a0 = 0 if a4 != 0\n  5383: jump @218 if a0 != 0\n      : @217 (gas: 1)\n  5386: jump @775\n      : @218 (gas: 12)\n  5389: i32 a0 = a1 + 0x40\n  5392: a1 = u64 [s1 + 0x180]\n  5396: a3 = s1 + 0x200\n  5400: u64 [a3 + 0x60] = a1\n  5403: a1 = u64 [s1 + 0x188]\n  5407: u64 [a3 + 0x68] = a1\n  5410: a1 = u64 [s1 + 0x130]\n  5414: u64 [a3 + 0x70] = a1\n  5417: a1 = s1 + 0x260\n  5421: a2 = u64 [s1 + 0x138]\n  5425: u64 [a3 + 0x78] = a2\n  5428: ra = 186, jump @24\n      : @219 [@dyn 93] (gas: 9)\n  5434: a3 = s1 + 0x100\n  5438: a2 = u64 [a3 + 0x98]\n  5442: a0 = 0xffffffa0\n  5452: a0 = a2 <u a0\n  5455: a1 = u64 [a3 + 0x90]\n  5459: a0 = 0 if a1 != 0\n  5461: a1 = u64 [a3 + 0x78]\n  5464: a0 = 0 if a1 != 0\n  5466: jump @221 if a0 != 0\n      : @220 (gas: 1)\n  5469: jump @775\n      : @221 (gas: 10)\n  5472: a0 = u64 [s1 + 0x128]\n  5476: a0 = a0 << 0x20\n  5479: a1 = a0 >> 0x20\n  5482: i32 a0 = a2 + 0x60\n  5485: u64 [s1 + 600] = 0\n  5489: u64 [s1 + 592] = 0\n  5493: u64 [s1 + 0x240] = a1\n  5497: a1 = s1 + 0x240\n  5501: u64 [s1 + 584] = 0\n  5505: ra = 188, jump @24\n      : @222 [@dyn 94] (gas: 3)\n  5511: a1 = 0x80\n  5515: a0 = u64 [s1 + 0x198]\n  5519: ra = 190, jump @37\n      : @223 [@dyn 95] (gas: 5)\n  5525: i32 a1 = a0 + 0\n  5527: a2 = 0x80\n  5531: a0 = 0\n  5533: ecalli 13 // 'seal_return'\n  5535: jump @877\n      : @224 (gas: 9)\n  5538: u64 [a2 + 1952] = 0\n  5542: u64 [a2 + 1944] = 0\n  5546: u64 [a2 + 1936] = 0\n  5550: u64 [a2 + 1928] = 0\n  5554: a0 = s1 + 0x3000\n  5558: i32 a0 = a0 + 0xfffffffffffff8a0\n  5562: ra = 0xc0\n  5566: ecalli 16 // 'value_transferred'\n  5568: fallthrough\n      : @225 [@dyn 96] (gas: 10)\n  5569: a3 = s1 + 0x2118\n  5573: a4 = a3 + 0x700\n  5577: a0 = u64 [a4 + 0x98]\n  5581: a1 = u64 [a4 + 0xa0]\n  5585: a2 = u64 [a4 + 0x90]\n  5589: a3 = u64 [a4 + 0x88]\n  5593: a1 = a1 | a2\n  5596: a0 = a0 | a3\n  5599: a0 = a0 | a1\n  5602: jump @227 if a0 == 0\n      : @226 (gas: 1)\n  5605: jump @800\n      : @227 (gas: 1)\n  5608: t0 = 194, jump @1552\n      : @228 [@dyn 97] (gas: 1)\n  5615: jump @230 if a1 <u a0\n      : @229 (gas: 1)\n  5618: jump @801\n      : @230 (gas: 6)\n  5621: a0 = s1 + 0x3000\n  5625: i32 a0 = a0 + 0xfffffffffffff8c0\n  5629: a1 = 0x4\n  5632: ra = 0xc4\n  5636: ecalli 2 // 'call_data_load'\n  5638: fallthrough\n      : @231 [@dyn 98] (gas: 7)\n  5639: a0 = s1 + 0x2118\n  5643: a5 = a0 + 0x700\n  5647: a1 = u64 [a5 + 0xc0]\n  5651: a2 = u64 [a5 + 0xb8]\n  5655: a3 = u64 [a5 + 0xb0]\n  5659: a4 = u64 [a5 + 0xa8]\n  5663: t0 = 198, jump @1521\n      : @232 [@dyn 99] (gas: 1)\n  5670: jump @234 if a0 != 0\n      : @233 (gas: 1)\n  5673: jump @802\n      : @234 (gas: 8)\n  5676: a0 = 0x30180\n  5681: u64 [s1 + 0x180] = a0\n  5685: i32 a0 = a0 + 0\n  5687: u64 [s1 + 0x168] = a0\n  5691: ra = 0xc8\n  5695: ecalli 4 // 'caller'\n  5697: t0 = 0xca\n  5701: jump @1498\n      : @235 [@dyn 100] (gas: 1)\n  5705: t0 = 202, jump @1498\n      : @236 [@dyn 101] (gas: 7)\n  5712: u64 [s1 + 1720] = 0\n  5716: u64 [s1 + 0x6b0] = a1\n  5720: u64 [s1 + 0x6a8] = a0\n  5724: a1 = s1 + 0x6a0\n  5728: u64 [s1 + 0x6a0] = a3\n  5732: a0 = 0\n  5734: ra = 204, jump @24\n      : @237 [@dyn 102] (gas: 7)\n  5740: u64 [s1 + 1688] = 0\n  5744: u64 [s1 + 1680] = 0\n  5748: u64 [s1 + 1664] = 0x1\n  5753: a0 = 0x20\n  5756: a1 = s1 + 0x680\n  5760: u64 [s1 + 1672] = 0\n  5764: ra = 206, jump @24\n      : @238 [@dyn 103] (gas: 1)\n  5770: t0 = 208, jump @1560\n      : @239 [@dyn 104] (gas: 3)\n  5777: a2 = 0x20170\n  5782: a0 = i32 [0x20170]\n  5787: jump @241 if a0 >u 63\n      : @240 (gas: 2)\n  5791: u32 [0x20170] = 0x40\n  5797: fallthrough\n      : @241 (gas: 13)\n  5798: u64 [s1 + 0x140] = a2\n  5802: a0 = sp + 0xffffffffffffffe0\n  5805: a2 = a0 & 0xffffffffffffffe0\n  5808: u64 [s1 + 0x160] = a2\n  5812: sp = a2\n  5814: a0 = 0x20180\n  5819: i32 a0 = a0 + 0\n  5821: i32 a2 = a2 + 0\n  5823: a1 = 0x40\n  5826: u64 [s1 + 0x148] = a0\n  5830: ra = 0xd2\n  5834: ecalli 8 // 'hash_keccak_256'\n  5836: fallthrough\n      : @242 [@dyn 105] (gas: 11)\n  5837: a3 = u64 [s1 + 0x160]\n  5841: a0 = u64 [a3]\n  5843: a1 = u64 [a3 + 0x8]\n  5846: a2 = u64 [a3 + 0x10]\n  5849: a3 = u64 [a3 + 0x18]\n  5852: a0 = reverse a0\n  5854: a1 = reverse a1\n  5856: a2 = reverse a2\n  5858: a3 = reverse a3\n  5860: a4 = a3 + 0x2\n  5863: t0 = 212, jump @1506\n      : @243 [@dyn 106] (gas: 7)\n  5870: a1 = u64 [s1 + 0x170]\n  5874: u64 [a1] = a4\n  5876: u64 [a1 + 0x8] = a5\n  5879: u64 [a1 + 0x10] = a2\n  5882: u64 [a1 + 0x18] = a0\n  5885: a0 = s1 + 0x660\n  5889: ra = 214, jump @26\n      : @244 [@dyn 107] (gas: 24)\n  5895: t1 = u64 [s1 + 0x678]\n  5899: t2 = u64 [s1 + 0x670]\n  5903: t0 = u64 [s1 + 0x668]\n  5907: a3 = u64 [s1 + 0x660]\n  5911: a0 = u64 [s1 + 0x198]\n  5915: a4 = t1 ^ a0\n  5918: a5 = t1 <u a0\n  5921: a1 = u64 [s1 + 0x178]\n  5925: a0 = t2 <u a1\n  5928: u64 [s1 + 0x158] = a0\n  5932: a5 = a0 if a4 == 0\n  5935: a0 = u64 [s1 + 0x190]\n  5939: ra = t0 ^ a0\n  5942: a0 = t0 <u a0\n  5945: a2 = u64 [s1 + 0x188]\n  5949: u64 [s1 + 0x160] = a3\n  5953: a2 = a3 <u a2\n  5956: u64 [s1 + 0x150] = a2\n  5960: a0 = a2 if ra == 0\n  5963: ra = a1\n  5965: a1 = t2 ^ a1\n  5968: a1 = a1 | a4\n  5971: a5 = a0 if a1 == 0\n  5974: jump @246 if a5 == 0\n      : @245 (gas: 1)\n  5977: jump @806\n      : @246 (gas: 11)\n  5980: a1 = t2 - ra\n  5983: a2 = u64 [s1 + 0x198]\n  5987: a2 = t1 - a2\n  5990: a3 = u64 [s1 + 0x158]\n  5994: a2 = a2 - a3\n  5997: a3 = a1 <u a0\n  6000: a2 = a2 - a3\n  6003: a1 = a1 - a0\n  6006: a0 = u64 [s1 + 0x190]\n  6010: a0 = t0 - a0\n  6013: t0 = 216, jump @1527\n      : @247 [@dyn 108] (gas: 7)\n  6020: u64 [a5 + 0xc8] = a3\n  6024: u64 [a5 + 0xd0] = a0\n  6028: u64 [a5 + 0xd8] = a1\n  6032: u64 [a5 + 0xe0] = a2\n  6036: a1 = s1 + 0x28e0\n  6040: a0 = u64 [s1 + 0x170]\n  6044: ra = 218, jump @28\n      : @248 [@dyn 109] (gas: 5)\n  6050: a0 = u64 [s1 + 0x168]\n  6054: ra = 0xdc\n  6058: ecalli 4 // 'caller'\n  6060: t0 = 0xde\n  6064: jump @1510\n      : @249 [@dyn 110] (gas: 1)\n  6068: t0 = 222, jump @1510\n      : @250 [@dyn 111] (gas: 14)\n  6075: u64 [s1 + 0x638] = a2\n  6079: a2 = u64 [a4 + 0x78]\n  6082: u64 [s1 + 0x630] = a2\n  6086: a2 = u64 [a4 + 0x90]\n  6090: u64 [s1 + 0x628] = a2\n  6094: a2 = u64 [a4 + 0x88]\n  6098: u64 [s1 + 0x620] = a2\n  6102: u64 [s1 + 1624] = 0\n  6106: u64 [s1 + 0x650] = a1\n  6110: u64 [s1 + 0x648] = a0\n  6114: a0 = s1 + 0x640\n  6118: a1 = s1 + 0x620\n  6122: u64 [s1 + 0x640] = a3\n  6126: ra = 224, jump @1468\n      : @251 [@dyn 112] (gas: 3)\n  6133: a0 = s1 + 0x600\n  6137: a1 = 0x40\n  6140: ra = 226, jump @22\n      : @252 [@dyn 113] (gas: 6)\n  6146: a4 = s1 + 0x600\n  6150: a0 = u64 [a4 + 0x18]\n  6153: a1 = u64 [a4 + 0x10]\n  6156: a2 = u64 [a4 + 0x8]\n  6159: a3 = u64 [a4]\n  6161: t0 = 228, jump @1514\n      : @253 [@dyn 114] (gas: 1)\n  6168: jump @255 if a0 == 0\n      : @254 (gas: 1)\n  6171: jump @775\n      : @255 (gas: 12)\n  6174: a0 = u64 [s1 + 0x188]\n  6178: u64 [s1 + 0x5e0] = a0\n  6182: a0 = u64 [s1 + 0x190]\n  6186: u64 [s1 + 0x5e8] = a0\n  6190: a0 = u64 [s1 + 0x178]\n  6194: u64 [s1 + 0x5f0] = a0\n  6198: a1 = s1 + 0x5e0\n  6202: a0 = u64 [s1 + 0x198]\n  6206: u64 [s1 + 0x5f8] = a0\n  6210: a0 = a3\n  6212: u64 [s1 + 0x198] = a3\n  6216: ra = 230, jump @24\n      : @256 [@dyn 115] (gas: 6)\n  6222: a0 = u64 [s1 + 0x168]\n  6226: ra = 0xe8\n  6230: ecalli 4 // 'caller'\n  6232: a2 = u64 [s1 + 0x180]\n  6236: t0 = 0xea\n  6240: jump @1494\n      : @257 [@dyn 116] (gas: 2)\n  6244: a2 = u64 [s1 + 0x180]\n  6248: t0 = 234, jump @1494\n      : @258 [@dyn 117] (gas: 24)\n  6255: t0 = a1 | a0\n  6258: a3 = a3 >> 0x20\n  6261: a2 = reverse a2\n  6263: a1 = a2 << 0x20\n  6266: a1 = a1 | a3\n  6269: a2 = a2 >> 0x20\n  6272: u64 [s1 + 1464] = 0\n  6276: a3 = u64 [0x200d8]\n  6281: a4 = u64 [0x200e0]\n  6286: a5 = u64 [0x200e8]\n  6291: a0 = u64 [0x200f0]\n  6296: u64 [s1 + 0x5d8] = a3\n  6300: a3 = s1 + 0x500\n  6304: u64 [a3 + 0xd0] = a4\n  6308: u64 [a3 + 0xc8] = a5\n  6312: u64 [a3 + 0xc0] = a0\n  6316: u64 [a3 + 0xb0] = a2\n  6320: u64 [a3 + 0xa8] = a1\n  6324: a1 = 0x20\n  6327: a2 = s1 + 0x5c0\n  6331: a3 = s1 + 0x5a0\n  6335: u64 [s1 + 0x5a0] = t0\n  6339: a0 = u64 [s1 + 0x198]\n  6343: ra = 236, jump @29\n      : @259 [@dyn 118] (gas: 5)\n  6349: a0 = 0\n  6351: a1 = u64 [s1 + 0x148]\n  6355: a2 = 0\n  6357: ecalli 13 // 'seal_return'\n  6359: jump @1039\n      : @260 (gas: 10)\n  6362: a0 = s1 + 0x2918\n  6366: u64 [a0 + 128] = 0\n  6370: u64 [a0 + 120] = 0\n  6373: u64 [a0 + 112] = 0\n  6376: u64 [a0 + 104] = 0\n  6379: a0 = s1 + 0x3000\n  6383: i32 a0 = a0 + 0xfffffffffffff980\n  6387: ra = 0xee\n  6391: ecalli 16 // 'value_transferred'\n  6393: fallthrough\n      : @261 [@dyn 119] (gas: 9)\n  6394: a3 = s1 + 0x2918\n  6398: a0 = u64 [a3 + 0x78]\n  6401: a1 = u64 [a3 + 0x80]\n  6405: a2 = u64 [a3 + 0x70]\n  6408: a3 = u64 [a3 + 0x68]\n  6411: a1 = a1 | a2\n  6414: a0 = a0 | a3\n  6417: a0 = a0 | a1\n  6420: jump @263 if a0 == 0\n      : @262 (gas: 1)\n  6423: jump @810\n      : @263 (gas: 1)\n  6426: t0 = 240, jump @1552\n      : @264 [@dyn 120] (gas: 1)\n  6433: jump @266 if a1 <u a0\n      : @265 (gas: 1)\n  6436: jump @811\n      : @266 (gas: 5)\n  6439: a0 = s1 + 0x3000\n  6443: i32 a0 = a0 + 0xfffffffffffff9a0\n  6447: a1 = 0x4\n  6450: ecalli 2 // 'call_data_load'\n  6452: fallthrough\n      : @267 (gas: 8)\n  6453: a3 = s1 + 0x2918\n  6457: a0 = u64 [a3 + 0xa0]\n  6461: a1 = u64 [a3 + 0x98]\n  6465: a2 = u64 [a3 + 0x90]\n  6469: a0 = a0 | a1\n  6472: a1 = a2 <u 0x1\n  6475: a1 = 0 if a0 != 0\n  6477: jump @269 if a1 != 0\n      : @268 (gas: 1)\n  6480: jump @812\n      : @269 (gas: 6)\n  6483: a0 = u64 [a3 + 0x88]\n  6487: u64 [s1 + 0x120] = a0\n  6491: a0 = s1 + 0x3000\n  6495: i32 a0 = a0 + 0xfffffffffffff9c0\n  6499: ecalli 9 // 'now'\n  6501: fallthrough\n      : @270 (gas: 49)\n  6502: a0 = s1 + 0x2918\n  6506: t2 = u64 [a0 + 0xc0]\n  6510: a3 = u64 [a0 + 0xb8]\n  6514: u64 [s1 + 0x150] = a3\n  6518: t0 = u64 [a0 + 0xb0]\n  6522: ra = u64 [a0 + 0xa8]\n  6526: a0 = clz t2\n  6528: a1 = clz a3\n  6530: a2 = a1 + 0x40\n  6533: a2 = a0 if t2 != 0\n  6536: a0 = clz t0\n  6538: a1 = clz ra\n  6540: a1 = a1 + 0x40\n  6543: a1 = a0 if t0 != 0\n  6546: a0 = a1 + 0x80\n  6550: a3 = a3 | t2\n  6553: a2 = a0 if a3 == 0\n  6556: a5 = a0 <u a1\n  6559: a5 = 0 if a3 != 0\n  6561: a4 = a5 >u 0\n  6563: a0 = a2 <u 0xf0\n  6567: a3 = a0 ^ 0x1\n  6570: a4 = a3 if a5 == 0\n  6573: a0 = a4 <u 0x1\n  6576: a0 = a0 + 0xffffffffffffffff\n  6579: a1 = -a4\n  6581: a5 = -a5\n  6583: a3 = a5 - a3\n  6586: t1 = 0xef - a2\n  6590: u64 [s1 + 0x198] = a1\n  6594: a5 = a1 >u 0\n  6596: a1 = a0 >u 0\n  6598: a1 = a5 if a0 == 0\n  6601: a5 = t1 <u 0x100\n  6605: a5 = a5 ^ 0x1\n  6608: a2 = a3 >u 0\n  6610: a5 = a2 if a3 != 0\n  6613: a5 = a1 if a4 != 0\n  6616: u64 [s1 + 0x140] = t2\n  6620: u64 [s1 + 0x158] = t0\n  6624: a1 = t0 | t2\n  6627: t2 = u64 [s1 + 0x150]\n  6631: a2 = ra | t2\n  6634: a1 = a1 | a2\n  6637: a1 = a1 <u 0x1\n  6640: a1 = a1 | a5\n  6643: a4 = ra\n  6645: a4 = 0 if a1 != 0\n  6647: jump @272 if a1 == 0\n      : @271 (gas: 1)\n  6650: jump @493\n      : @272 (gas: 6)\n  6653: a1 = t1 ^ 0xff\n  6657: a5 = u64 [s1 + 0x198]\n  6661: a1 = a1 | a5\n  6664: a2 = a3 | a0\n  6667: a1 = a1 | a2\n  6670: jump @274 if a1 != 0\n      : @273 (gas: 1)\n  6673: jump @493\n      : @274 (gas: 20)\n  6676: t0 = ra\n  6678: a2 = t1 + 0x1\n  6681: u64 [s1 + 0x190] = a2\n  6685: a1 = a2 <u 0x1\n  6688: a1 = a1 + a3\n  6691: u64 [s1 + 0x180] = a1\n  6695: a1 = a1 | a2\n  6698: a1 = a1 <u 0x1\n  6701: a1 = a1 + a5\n  6704: u64 [s1 + 0x170] = a1\n  6708: a1 = a1 <u a5\n  6711: a0 = a0 + a1\n  6714: u64 [s1 + 0x178] = a0\n  6718: a1 = 0xff - t1\n  6722: u64 [s1 + 0x168] = a1\n  6726: a2 = 0x80 - a1\n  6730: a0 = ra\n  6732: u64 [s1 + 0x148] = t0\n  6736: a1 = u64 [s1 + 0x158]\n  6740: ra = 242, jump @1574\n      : @275 [@dyn 121] (gas: 1)\n  6747: t0 = 244, jump @1568\n      : @276 [@dyn 122] (gas: 1)\n  6754: ra = 246, jump @1579\n      : @277 [@dyn 123] (gas: 7)\n  6761: u64 [s1 + 0x130] = a0\n  6765: u64 [s1 + 0x128] = a1\n  6769: a0 = u64 [s1 + 0x168]\n  6773: a2 = a0 + 0xffffffffffffff80\n  6776: a0 = u64 [s1 + 0x148]\n  6780: a1 = u64 [s1 + 0x158]\n  6784: ra = 248, jump @1579\n      : @278 [@dyn 124] (gas: 1)\n  6791: t0 = 250, jump @1572\n      : @279 [@dyn 125] (gas: 3)\n  6798: a0 = u64 [s1 + 0x148]\n  6802: a1 = u64 [s1 + 0x158]\n  6806: ra = 252, jump @1579\n      : @280 [@dyn 126] (gas: 11)\n  6813: a4 = u64 [s1 + 0x138]\n  6817: t0 = u64 [s1 + 0x170]\n  6821: a5 = u64 [s1 + 0x178]\n  6825: a2 = u64 [s1 + 0x180]\n  6829: a5 = a5 | a2\n  6832: a3 = u64 [s1 + 0x190]\n  6836: a3 = a3 | t0\n  6839: a3 = a3 | a5\n  6842: a0 = 0 if a4 == 0\n  6844: u64 [s1 + 0x188] = a0\n  6848: jump @282 if a3 == 0\n      : @281 (gas: 1)\n  6851: jump @480\n      : @282 (gas: 2)\n  6854: a4 = 0\n  6856: jump @492\n      : @283 (gas: 11)\n  6859: a0 = s1 + 0x2918\n  6863: u64 [a0 + 608] = 0\n  6867: u64 [a0 + 600] = 0\n  6871: u64 [a0 + 592] = 0\n  6875: u64 [a0 + 584] = 0\n  6879: a0 = s1 + 0x3000\n  6883: i32 a0 = a0 + 0xfffffffffffffb60\n  6887: ra = 0xfe\n  6891: ecalli 16 // 'value_transferred'\n  6893: t0 = 0x100\n  6897: jump @1525\n      : @284 [@dyn 127] (gas: 1)\n  6901: t0 = 256, jump @1525\n      : @285 [@dyn 128] (gas: 1)\n  6908: t0 = 258, jump @1571\n      : @286 [@dyn 129] (gas: 1)\n  6915: jump @288 if a0 == 0\n      : @287 (gas: 1)\n  6918: jump @813\n      : @288 (gas: 3)\n  6921: a0 = u64 [s1 + 0x198]\n  6925: a0 = i32 [a0]\n  6927: jump @290 if a0 >u 99\n      : @289 (gas: 1)\n  6931: jump @814\n      : @290 (gas: 4)\n  6934: a0 = s1 + 0x1240\n  6938: ra = 0x104\n  6942: t0 = 0x588\n  6946: jump @1553\n      : @291 [@dyn 130] (gas: 11)\n  6950: a1 = s1 + 0x1118\n  6954: a0 = u64 [a1 + 0x128]\n  6958: u64 [s1 + 0x198] = a0\n  6962: a0 = u64 [a1 + 0x130]\n  6966: u64 [s1 + 0x190] = a0\n  6970: a0 = u32 [a1 + 0x138]\n  6974: u64 [s1 + 0x178] = a0\n  6978: a0 = s1 + 0x1220\n  6982: ra = 0x106\n  6986: t0 = 0x58c\n  6990: jump @1569\n      : @292 [@dyn 131] (gas: 7)\n  6994: a0 = s1 + 0x1118\n  6998: a0 = u64 [a0 + 0x108]\n  7002: u64 [s1 + 0x180] = a0\n  7006: a0 = s1 + 0x1200\n  7010: ra = 0x108\n  7014: t0 = 0x592\n  7018: jump @1569\n      : @293 [@dyn 132] (gas: 3)\n  7022: t0 = 0x10a\n  7026: a2 = s1 + 0x1118\n  7030: fallthrough\n      : @294 [@dyn 133] (gas: 13)\n  7031: a0 = u64 [a2 + 0xe8]\n  7035: a3 = s1 + 0x100\n  7039: u64 [a3 + 0x88] = a0\n  7043: u64 [a2 + 224] = 0\n  7047: a0 = u64 [a3 + 0x78]\n  7050: u64 [a2 + 0xd8] = a0\n  7054: a0 = u64 [a3 + 0x90]\n  7058: u64 [a2 + 0xd0] = a0\n  7062: a1 = s1 + 0x11e0\n  7066: a0 = u64 [a3 + 0x98]\n  7070: u64 [a2 + 0xc8] = a0\n  7074: a0 = 0\n  7076: ra = 268, jump @24\n      : @295 [@dyn 134] (gas: 3)\n  7082: t0 = 0x10e\n  7086: a1 = s1 + 0x1118\n  7090: fallthrough\n      : @296 [@dyn 135] (gas: 8)\n  7091: u64 [a1 + 192] = 0\n  7095: u64 [a1 + 184] = 0\n  7099: u64 [a1 + 168] = 0x4\n  7104: a2 = a1\n  7106: a0 = 0x20\n  7109: a1 = s1 + 0x11c0\n  7113: u64 [a2 + 176] = 0\n  7117: ra = 272, jump @24\n      : @297 [@dyn 136] (gas: 3)\n  7123: a1 = 0x20170\n  7128: a0 = i32 [0x20170]\n  7133: jump @299 if a0 >u 63\n      : @298 (gas: 2)\n  7137: u32 [0x20170] = 0x40\n  7143: fallthrough\n      : @299 (gas: 15)\n  7144: a0 = sp + 0xffffffffffffffe0\n  7147: a2 = a0 & 0xffffffffffffffe0\n  7150: u64 [s1 + 0x178] = a2\n  7154: sp = a2\n  7156: a0 = 0x20180\n  7161: i32 a0 = a0 + 0\n  7163: i32 a2 = a2 + 0\n  7165: u64 [s1 + 0x198] = a1\n  7169: a1 = 0x40\n  7172: u64 [s1 + 0x190] = a0\n  7176: ra = 0x112\n  7180: ecalli 8 // 'hash_keccak_256'\n  7182: a3 = u64 [s1 + 0x178]\n  7186: t0 = 0x114\n  7190: jump @1512\n      : @300 [@dyn 137] (gas: 2)\n  7194: a3 = u64 [s1 + 0x178]\n  7198: t0 = 276, jump @1512\n      : @301 [@dyn 138] (gas: 3)\n  7205: t0 = 0x116\n  7209: a2 = s1 + 0x1118\n  7213: fallthrough\n      : @302 [@dyn 139] (gas: 8)\n  7214: u64 [a2 + 160] = 0\n  7218: u64 [a2 + 152] = 0\n  7222: u64 [a2 + 144] = 0\n  7226: a1 = s1 + 0x11a0\n  7230: a0 = u64 [s1 + 0x180]\n  7234: u64 [a2 + 0x88] = a0\n  7238: a0 = 0\n  7240: ra = 280, jump @24\n      : @303 [@dyn 140] (gas: 13)\n  7246: a0 = u64 [s1 + 0x160]\n  7250: a1 = s1 + 0x1118\n  7254: u64 [a1 + 0x80] = a0\n  7258: a0 = u64 [s1 + 0x168]\n  7262: u64 [a1 + 0x78] = a0\n  7265: a0 = u64 [s1 + 0x170]\n  7269: u64 [a1 + 0x70] = a0\n  7272: a3 = a1\n  7274: a0 = 0x20\n  7277: a1 = s1 + 0x1180\n  7281: a2 = u64 [s1 + 0x178]\n  7285: u64 [a3 + 0x68] = a2\n  7288: ra = 282, jump @24\n      : @304 [@dyn 141] (gas: 3)\n  7294: a1 = u64 [s1 + 0x198]\n  7298: a0 = i32 [a1]\n  7300: jump @306 if a0 >u 63\n      : @305 (gas: 2)\n  7304: u32 [a1 + 0] = 0x40\n  7307: fallthrough\n      : @306 (gas: 4)\n  7308: a0 = sp + 0xffffffffffffffe0\n  7311: a0 = a0 & 0xffffffffffffffe0\n  7314: u64 [s1 + 0x180] = a0\n  7318: t0 = 284, jump @1492\n      : @307 [@dyn 142] (gas: 5)\n  7325: ra = 0x11e\n  7329: ecalli 8 // 'hash_keccak_256'\n  7331: a3 = u64 [s1 + 0x180]\n  7335: t0 = 0x120\n  7339: jump @1512\n      : @308 [@dyn 143] (gas: 2)\n  7343: a3 = u64 [s1 + 0x180]\n  7347: t0 = 288, jump @1512\n      : @309 [@dyn 144] (gas: 15)\n  7354: a0 = sp + 0xffffffffffffffe0\n  7357: a0 = a0 & 0xffffffffffffffe0\n  7360: u64 [s1 + 0x180] = a0\n  7364: sp = a0\n  7366: a0 = u64 [s1 + 0x188]\n  7370: a0 = a0 << 0x20\n  7373: a0 = a0 >> 0x20\n  7376: a2 = s1 + 0x1118\n  7380: u64 [a2 + 96] = 0\n  7383: u64 [a2 + 88] = 0\n  7386: u64 [a2 + 80] = 0\n  7389: a1 = s1 + 0x1160\n  7393: u64 [a2 + 0x48] = a0\n  7396: a0 = 0\n  7398: ra = 290, jump @24\n      : @310 [@dyn 145] (gas: 13)\n  7404: a0 = u64 [s1 + 0x160]\n  7408: a1 = s1 + 0x1118\n  7412: u64 [a1 + 0x40] = a0\n  7415: a0 = u64 [s1 + 0x168]\n  7419: u64 [a1 + 0x38] = a0\n  7422: a0 = u64 [s1 + 0x170]\n  7426: u64 [a1 + 0x30] = a0\n  7429: a3 = a1\n  7431: a0 = 0x20\n  7434: a1 = s1 + 0x1140\n  7438: a2 = u64 [s1 + 0x178]\n  7442: u64 [a3 + 0x28] = a2\n  7445: ra = 292, jump @24\n      : @311 [@dyn 146] (gas: 3)\n  7451: a1 = u64 [s1 + 0x198]\n  7455: a0 = i32 [a1]\n  7457: jump @313 if a0 >=u 64\n      : @312 (gas: 2)\n  7461: u32 [a1 + 0] = 0x40\n  7464: fallthrough\n      : @313 (gas: 4)\n  7465: a0 = sp + 0xffffffffffffffe0\n  7468: a0 = a0 & 0xffffffffffffffe0\n  7471: u64 [s1 + 0x198] = a0\n  7475: t0 = 294, jump @1492\n      : @314 [@dyn 147] (gas: 5)\n  7482: ra = 0x128\n  7486: ecalli 8 // 'hash_keccak_256'\n  7488: a3 = u64 [s1 + 0x198]\n  7492: t0 = 0x12a\n  7496: jump @1519\n      : @315 [@dyn 148] (gas: 2)\n  7500: a3 = u64 [s1 + 0x198]\n  7504: t0 = 298, jump @1519\n      : @316 [@dyn 149] (gas: 2)\n  7511: a0 = s1 + 0x1120\n  7515: ra = 300, jump @26\n      : @317 [@dyn 150] (gas: 6)\n  7521: a0 = s1 + 0x1118\n  7525: a0 = u64 [a0 + 0x8]\n  7528: u64 [s1 + 0x198] = a0\n  7532: a0 = s1 + 0x1100\n  7536: a1 = 0x40\n  7539: ra = 302, jump @22\n      : @318 [@dyn 151] (gas: 14)\n  7545: a0 = s1 + 0x1118\n  7549: a3 = u64 [a0]\n  7551: a4 = a0 + 0xffffffffffffff00\n  7555: a1 = u64 [a4 + 0xf8]\n  7559: a2 = u64 [a4 + 0xf0]\n  7563: a0 = u64 [a4 + 0xe8]\n  7567: a3 = a3 | a2\n  7570: a2 = a0 | a1\n  7573: a2 = a2 | a3\n  7576: a2 = a2 >> 0x20\n  7579: a1 = a1 | a3\n  7582: a1 = a1 << 0x20\n  7585: a1 = a1 | a2\n  7588: jump @320 if a1 == 0\n      : @319 (gas: 1)\n  7591: jump @775\n      : @320 (gas: 10)\n  7594: a3 = u8 [s1 + 0x198]\n  7598: a2 = s1 + 0x7ff\n  7602: a2 = a2 + 0x119\n  7606: u64 [a2 + 2016] = 0\n  7610: u64 [a2 + 2008] = 0\n  7614: u64 [a2 + 0x7c8] = a3\n  7618: a1 = s1 + 0x10e0\n  7622: u64 [a2 + 2000] = 0\n  7626: u64 [s1 + 0x198] = a0\n  7630: ra = 304, jump @24\n      : @321 [@dyn 152] (gas: 4)\n  7636: a1 = 0x20\n  7639: a0 = u64 [s1 + 0x198]\n  7643: ra = 0x372\n  7647: jump @37\n      : @322 (gas: 10)\n  7650: a0 = s1 + 0x2918\n  7654: u64 [a0 + 1120] = 0\n  7658: u64 [a0 + 1112] = 0\n  7662: u64 [a0 + 1104] = 0\n  7666: u64 [a0 + 1096] = 0\n  7670: a0 = s1 + 0x3000\n  7674: i32 a0 = a0 + 0xfffffffffffffd60\n  7678: ra = 0x132\n  7682: ecalli 16 // 'value_transferred'\n  7684: fallthrough\n      : @323 [@dyn 153] (gas: 3)\n  7685: a3 = s1 + 0x2918\n  7689: a4 = a3 + 0x400\n  7693: t0 = 308, jump @1571\n      : @324 [@dyn 154] (gas: 1)\n  7700: jump @326 if a0 == 0\n      : @325 (gas: 1)\n  7703: jump @815\n      : @326 (gas: 1)\n  7706: t0 = 310, jump @1552\n      : @327 [@dyn 155] (gas: 1)\n  7713: jump @329 if a1 <u a0\n      : @328 (gas: 1)\n  7716: jump @816\n      : @329 (gas: 5)\n  7719: a0 = s1 + 0x3000\n  7723: i32 a0 = a0 + 0xfffffffffffffd80\n  7727: a1 = 0x4\n  7730: ecalli 2 // 'call_data_load'\n  7732: fallthrough\n      : @330 (gas: 9)\n  7733: a3 = s1 + 0x2918\n  7737: a0 = a3 + 0x400\n  7741: a1 = u64 [a0 + 0x80]\n  7745: a2 = u64 [a0 + 0x78]\n  7748: a4 = u64 [a0 + 0x70]\n  7751: a5 = a2 | a1\n  7754: a0 = a4 <u 0x1\n  7757: a0 = 0 if a5 != 0\n  7759: jump @332 if a0 != 0\n      : @331 (gas: 1)\n  7762: jump @817\n      : @332 (gas: 20)\n  7765: u64 [s1 + 0x98] = a5\n  7769: a5 = u64 [a3 + 0x468]\n  7773: a0 = u64 [s1 + 0x198]\n  7777: t0 = u32 [a0]\n  7779: a0 = a5 + 0x23\n  7782: a3 = a0 <u a5\n  7785: t1 = a4 + a3\n  7788: u64 [s1 + 0xd8] = a4\n  7792: a4 = t1 <u a4\n  7795: a4 = a3 if a3 == 0\n  7798: a4 = a4 + a2\n  7801: u64 [s1 + 0x188] = a2\n  7805: a2 = a4 <u a2\n  7808: u64 [s1 + 0x190] = a1\n  7812: a2 = a2 + a1\n  7815: a2 = a2 | a4\n  7818: a0 = a0 <u t0\n  7821: a0 = 0 if t1 != 0\n  7823: a0 = 0 if a2 != 0\n  7825: jump @334 if a0 != 0\n      : @333 (gas: 1)\n  7828: jump @818\n      : @334 (gas: 6)\n  7831: i32 a1 = a5 + 0x4\n  7834: a0 = s1 + 0x3000\n  7838: i32 a0 = a0 + 0xfffffffffffffda0\n  7842: u64 [s1 + 0xd0] = a5\n  7846: ecalli 2 // 'call_data_load'\n  7848: fallthrough\n      : @335 (gas: 9)\n  7849: a2 = s1 + 0x2918\n  7853: a0 = u64 [a2 + 0x4a0]\n  7857: t0 = u64 [a2 + 0x498]\n  7861: ra = u64 [a2 + 0x490]\n  7865: u64 [s1 + 0xf0] = a0\n  7869: a0 = t0 | a0\n  7872: a1 = ra <u 0x1\n  7875: a1 = 0 if a0 != 0\n  7877: jump @337 if a1 != 0\n      : @336 (gas: 1)\n  7880: jump @819\n      : @337 (gas: 43)\n  7883: t1 = u64 [a2 + 0x488]\n  7887: a1 = u64 [s1 + 0xd0]\n  7891: a0 = a1 + 0x24\n  7894: a2 = a0 <u a1\n  7897: t2 = u64 [s1 + 0xd8]\n  7901: a3 = t2 + a2\n  7904: a1 = a0 + t1\n  7907: u64 [s1 + 0x180] = a1\n  7911: u64 [s1 + 0x120] = a0\n  7915: a4 = a1 <u a0\n  7918: a0 = a3 + ra\n  7921: a0 = a0 + a4\n  7924: a5 = a0 ^ a3\n  7927: a1 = a0 <u a3\n  7930: a1 = a4 if a5 == 0\n  7933: a3 = a3 <u t2\n  7936: a3 = a2 if a2 == 0\n  7939: a2 = u64 [s1 + 0x188]\n  7943: a3 = a3 + a2\n  7946: a2 = a3 <u a2\n  7949: a5 = u64 [s1 + 0xf0]\n  7953: a4 = u64 [s1 + 0x190]\n  7957: a4 = a4 + a5\n  7960: a2 = a2 + a4\n  7963: a4 = a3 + t0\n  7966: a3 = a4 <u a3\n  7969: a2 = a2 + a3\n  7972: a3 = u64 [s1 + 0x198]\n  7976: a3 = u32 [a3]\n  7978: a1 = a1 + a4\n  7981: a4 = a1 <u a4\n  7984: a2 = a2 + a4\n  7987: a4 = u64 [s1 + 0x180]\n  7991: a3 = a3 <u a4\n  7994: a4 = a0 <u 0x1\n  7997: a3 = a3 ^ 0x1\n  8000: a3 = a4 if a0 != 0\n  8003: a0 = a2 <u 0x1\n  8006: a4 = a1 <u 0x1\n  8009: a4 = a0 if a2 != 0\n  8012: a1 = a1 | a2\n  8015: a3 = a4 if a1 != 0\n  8018: jump @339 if a3 != 0\n      : @338 (gas: 1)\n  8021: jump @820\n      : @339 (gas: 26)\n  8024: a0 = t1 + 0xfffffffffffffffd\n  8027: u64 [s1 + 0xc0] = t1\n  8031: a1 = a0 <u t1\n  8034: a2 = ra + a1\n  8037: a2 = a2 + 0xffffffffffffffff\n  8040: a3 = a2 ^ ra\n  8043: u64 [s1 + 0xb0] = ra\n  8047: a4 = a2 <u ra\n  8050: a4 = a1 if a3 == 0\n  8053: a1 = t0 + 0xffffffffffffffff\n  8056: a4 = a4 + a1\n  8059: a1 = a4 <u a1\n  8062: u64 [s1 + 0xb8] = t0\n  8066: a3 = t0 <u 0x1\n  8069: a3 = a5 - a3\n  8072: a1 = a1 + a3\n  8075: a3 = a4 >u 0\n  8077: a5 = a1 >u 0\n  8079: a5 = a3 if a1 == 0\n  8082: a1 = a1 | a4\n  8085: a3 = a2 >u 0\n  8087: a0 = a0 <u 0x62\n  8090: a0 = a0 ^ 0x1\n  8093: a0 = a3 if a2 != 0\n  8096: a0 = a5 if a1 != 0\n  8099: jump @341 if a0 == 0\n      : @340 (gas: 1)\n  8102: jump @852\n      : @341 (gas: 9)\n  8105: a0 = 0x30180\n  8110: u64 [s1 + 0xe8] = a0\n  8114: i32 a0 = a0 + 0\n  8116: u64 [s1 + 0xc8] = a0\n  8120: ra = 0x138\n  8124: ecalli 4 // 'caller'\n  8126: a2 = u64 [s1 + 0xe8]\n  8130: t0 = 0x13a\n  8134: jump @1496\n      : @342 [@dyn 156] (gas: 2)\n  8137: a2 = u64 [s1 + 0xe8]\n  8141: t0 = 314, jump @1496\n      : @343 [@dyn 157] (gas: 8)\n  8147: u64 [a2 + 1056] = 0\n  8151: a4 = a2 + 0x400\n  8155: u64 [a4 + 0x18] = a1\n  8158: u64 [a4 + 0x10] = a0\n  8161: a1 = s1 + 0x2520\n  8165: u64 [a4 + 0x8] = a3\n  8168: a0 = 0\n  8170: ra = 316, jump @24\n      : @344 [@dyn 158] (gas: 9)\n  8176: a1 = s1 + 0x2118\n  8180: u64 [a1 + 1024] = 0\n  8184: u64 [a1 + 1016] = 0\n  8188: u64 [a1 + 1000] = 0x3\n  8193: a2 = a1\n  8195: a0 = 0x20\n  8198: a1 = s1 + 0x2500\n  8202: u64 [a2 + 1008] = 0\n  8206: ra = 318, jump @24\n      : @345 [@dyn 159] (gas: 1)\n  8212: t0 = 320, jump @1542\n      : @346 [@dyn 160] (gas: 3)\n  8219: a2 = 0x20170\n  8224: a0 = i32 [0x20170]\n  8229: jump @348 if a0 >u 63\n      : @347 (gas: 2)\n  8233: u32 [0x20170] = 0x40\n  8239: fallthrough\n      : @348 (gas: 16)\n  8240: u64 [s1 + 0xa8] = a2\n  8244: a0 = 0xffffffff\n  8254: u64 [s1 + 0xe0] = a0\n  8258: a0 = sp + 0xffffffffffffffe0\n  8261: a2 = a0 & 0xffffffffffffffe0\n  8264: u64 [s1 + 0x190] = a2\n  8268: sp = a2\n  8270: a0 = 0x20180\n  8275: i32 a0 = a0 + 0\n  8277: i32 a2 = a2 + 0\n  8279: a1 = 0x40\n  8282: u64 [s1 + 0xa0] = a0\n  8286: ra = 0x142\n  8290: ecalli 8 // 'hash_keccak_256'\n  8292: t0 = 0x144\n  8296: jump @1511\n      : @349 [@dyn 161] (gas: 1)\n  8300: t0 = 324, jump @1511\n      : @350 [@dyn 162] (gas: 3)\n  8307: i32 a0 = a0 + 0x4e0\n  8311: a0 = a0 + s1\n  8314: ra = 326, jump @26\n      : @351 [@dyn 163] (gas: 4)\n  8320: a0 = s1 + 0x2118\n  8324: a0 = u32 [a0 + 0x3c8]\n  8328: a1 = u64 [s1 + 0xe0]\n  8332: jump @353 if a0 != a1\n      : @352 (gas: 1)\n  8335: jump @821\n      : @353 (gas: 10)\n  8338: a1 = a0 + 0x1\n  8341: u64 [s1 + 0x100] = a1\n  8345: a0 = a1 <u 0x1\n  8348: u64 [s1 + 0xf8] = a0\n  8352: a0 = a0 | a1\n  8355: a0 = a0 <u 0x1\n  8358: u64 [s1 + 0x108] = a0\n  8362: a0 = s1 + 0x24c0\n  8366: a1 = u64 [s1 + 0x198]\n  8370: ra = 328, jump @26\n      : @354 [@dyn 164] (gas: 22)\n  8376: a3 = s1 + 0x2118\n  8380: a0 = u32 [a3 + 0x3ac]\n  8384: a4 = a3 + 0x300\n  8388: a1 = u64 [a4 + 0xb8]\n  8392: a0 = a0 << 0x20\n  8395: a2 = u64 [a4 + 0xb0]\n  8399: a3 = u64 [a4 + 0xc0]\n  8403: a4 = u64 [s1 + 0x108]\n  8407: a1 = a1 | a4\n  8410: a4 = u64 [s1 + 0x100]\n  8414: a0 = a0 | a4\n  8417: a4 = u64 [s1 + 0xf8]\n  8421: a2 = a2 | a4\n  8424: a4 = s1 + 0x2918\n  8428: a5 = a4 + 0x400\n  8432: u64 [a5 + 0xc0] = a3\n  8436: u64 [a5 + 0xb0] = a2\n  8440: u64 [a5 + 0xa8] = a0\n  8444: u64 [a5 + 0xb8] = a1\n  8448: a1 = s1 + 0x2dc0\n  8452: a0 = u64 [s1 + 0x198]\n  8456: ra = 330, jump @28\n      : @355 [@dyn 165] (gas: 4)\n  8462: a0 = s1 + 0x3000\n  8466: i32 a0 = a0 + 0xfffffffffffffde0\n  8470: ecalli 9 // 'now'\n  8472: fallthrough\n      : @356 (gas: 50)\n  8473: a0 = s1 + 0x2918\n  8477: t2 = u64 [a0 + 0x4e0]\n  8481: a3 = u64 [a0 + 0x4d8]\n  8485: u64 [s1 + 0x150] = a3\n  8489: t1 = u64 [a0 + 0x4d0]\n  8493: ra = u64 [a0 + 0x4c8]\n  8497: a0 = clz t2\n  8499: a1 = clz a3\n  8501: a2 = a1 + 0x40\n  8504: a2 = a0 if t2 != 0\n  8507: a0 = clz t1\n  8509: a1 = clz ra\n  8511: a1 = a1 + 0x40\n  8514: a1 = a0 if t1 != 0\n  8517: a0 = a1 + 0x80\n  8521: a3 = a3 | t2\n  8524: a2 = a0 if a3 == 0\n  8527: a5 = a0 <u a1\n  8530: a5 = 0 if a3 != 0\n  8532: a4 = a5 >u 0\n  8534: a0 = a2 <u 0xf0\n  8538: a3 = a0 ^ 0x1\n  8541: a4 = a3 if a5 == 0\n  8544: a0 = a4 <u 0x1\n  8547: a0 = a0 + 0xffffffffffffffff\n  8550: a1 = -a4\n  8552: a5 = -a5\n  8554: a3 = a5 - a3\n  8557: t0 = 0xef - a2\n  8561: u64 [s1 + 0x198] = a1\n  8565: a5 = a1 >u 0\n  8567: a1 = a0 >u 0\n  8569: a1 = a5 if a0 == 0\n  8572: a5 = t0 <u 0x100\n  8576: a5 = a5 ^ 0x1\n  8579: a2 = a3 >u 0\n  8581: a5 = a2 if a3 != 0\n  8584: a5 = a1 if a4 != 0\n  8587: u64 [s1 + 0x140] = t2\n  8591: a1 = t1 | t2\n  8594: t2 = t1\n  8596: t1 = u64 [s1 + 0x150]\n  8600: a2 = ra | t1\n  8603: a1 = a1 | a2\n  8606: a1 = a1 <u 0x1\n  8609: a1 = a1 | a5\n  8612: u64 [s1 + 0x158] = ra\n  8616: a4 = ra\n  8618: a4 = 0 if a1 != 0\n  8620: jump @358 if a1 == 0\n      : @357 (gas: 1)\n  8623: jump @608\n      : @358 (gas: 6)\n  8626: a1 = t0 ^ 0xff\n  8630: a5 = u64 [s1 + 0x198]\n  8634: a1 = a1 | a5\n  8637: a2 = a3 | a0\n  8640: a1 = a1 | a2\n  8643: jump @360 if a1 != 0\n      : @359 (gas: 1)\n  8646: jump @608\n      : @360 (gas: 19)\n  8649: a2 = t0 + 0x1\n  8652: u64 [s1 + 0x190] = a2\n  8656: a1 = a2 <u 0x1\n  8659: a1 = a1 + a3\n  8662: u64 [s1 + 0x180] = a1\n  8666: a1 = a1 | a2\n  8669: a1 = a1 <u 0x1\n  8672: a1 = a1 + a5\n  8675: u64 [s1 + 0x170] = a1\n  8679: a1 = a1 <u a5\n  8682: a0 = a0 + a1\n  8685: u64 [s1 + 0x178] = a0\n  8689: a1 = 0xff - t0\n  8693: u64 [s1 + 0x168] = a1\n  8697: a2 = 0x80 - a1\n  8701: a0 = u64 [s1 + 0x158]\n  8705: a1 = t2\n  8707: u64 [s1 + 0x148] = t2\n  8711: ra = 332, jump @1574\n      : @361 [@dyn 166] (gas: 1)\n  8718: t0 = 334, jump @1568\n      : @362 [@dyn 167] (gas: 1)\n  8725: ra = 336, jump @1579\n      : @363 [@dyn 168] (gas: 7)\n  8732: u64 [s1 + 0x130] = a0\n  8736: u64 [s1 + 0x128] = a1\n  8740: a0 = u64 [s1 + 0x168]\n  8744: a2 = a0 + 0xffffffffffffff80\n  8747: a0 = u64 [s1 + 0x158]\n  8751: a1 = u64 [s1 + 0x148]\n  8755: ra = 338, jump @1579\n      : @364 [@dyn 169] (gas: 1)\n  8762: t0 = 340, jump @1572\n      : @365 [@dyn 170] (gas: 3)\n  8769: a0 = u64 [s1 + 0x158]\n  8773: a1 = u64 [s1 + 0x148]\n  8777: ra = 342, jump @1579\n      : @366 [@dyn 171] (gas: 11)\n  8784: a4 = u64 [s1 + 0x138]\n  8788: t0 = u64 [s1 + 0x170]\n  8792: a5 = u64 [s1 + 0x178]\n  8796: a2 = u64 [s1 + 0x180]\n  8800: a5 = a5 | a2\n  8803: a3 = u64 [s1 + 0x190]\n  8807: a3 = a3 | t0\n  8810: a3 = a3 | a5\n  8813: a0 = 0 if a4 == 0\n  8815: u64 [s1 + 0x188] = a0\n  8819: jump @368 if a3 == 0\n      : @367 (gas: 1)\n  8822: jump @595\n      : @368 (gas: 2)\n  8825: a4 = 0\n  8827: jump @607\n      : @369 (gas: 10)\n  8830: u64 [a2 + 1792] = 0\n  8834: u64 [a2 + 1784] = 0\n  8838: u64 [a2 + 1776] = 0\n  8842: u64 [a2 + 1768] = 0\n  8846: a0 = s1 + 0x3000\n  8850: i32 a0 = a0 + 0xfffffffffffff800\n  8854: ra = 0x158\n  8858: ecalli 16 // 'value_transferred'\n  8860: t0 = 0x15a\n  8864: jump @1566\n      : @370 [@dyn 172] (gas: 1)\n  8868: t0 = 346, jump @1566\n      : @371 [@dyn 173] (gas: 8)\n  8875: a0 = u64 [a4 + 0xf8]\n  8879: a1 = u64 [a3 + 0x700]\n  8883: a2 = u64 [a4 + 0xf0]\n  8887: a3 = u64 [a4 + 0xe8]\n  8891: a1 = a1 | a2\n  8894: a0 = a0 | a3\n  8897: a0 = a0 | a1\n  8900: jump @373 if a0 == 0\n      : @372 (gas: 1)\n  8903: jump @825\n      : @373 (gas: 3)\n  8906: a0 = u64 [s1 + 0x198]\n  8910: a0 = i32 [a0]\n  8912: jump @375 if a0 >u 3\n      : @374 (gas: 1)\n  8916: jump @826\n      : @375 (gas: 17)\n  8919: a0 = s1 + 0x3000\n  8923: i32 a0 = a0 + 0xfffffffffffff820\n  8927: ecalli 9 // 'now'\n  8929: a0 = s1 + 0x2118\n  8933: a2 = a0 + 0x700\n  8937: a1 = u64 [a2 + 0x20]\n  8940: a3 = s1 + 0x100\n  8944: u64 [a3 + 0x58] = a1\n  8947: a1 = u64 [a2 + 0x18]\n  8950: u64 [a3 + 0x50] = a1\n  8953: a1 = u64 [a2 + 0x10]\n  8956: u64 [a3 + 0x98] = a1\n  8960: a0 = u64 [a2 + 0x8]\n  8963: u64 [a3 + 0x90] = a0\n  8967: a0 = s1 + 0x3e0\n  8971: a1 = 0x40\n  8974: ra = 348, jump @22\n      : @376 [@dyn 174] (gas: 6)\n  8980: a4 = s1 + 0x300\n  8984: a0 = u64 [a4 + 0xf8]\n  8988: a1 = u64 [a4 + 0xf0]\n  8992: a2 = u64 [a4 + 0xe8]\n  8996: a3 = u64 [a4 + 0xe0]\n  9000: t0 = 350, jump @1514\n      : @377 [@dyn 175] (gas: 1)\n  9006: jump @379 if a0 == 0\n      : @378 (gas: 1)\n  9009: jump @775\n      : @379 (gas: 46)\n  9012: u64 [s1 + 0x118] = a3\n  9016: t1 = u64 [s1 + 0x150]\n  9020: a0 = clz t1\n  9022: a0 = a0 + 0x40\n  9025: ra = u64 [s1 + 0x158]\n  9029: a2 = clz ra\n  9031: a2 = a0 if ra == 0\n  9034: t2 = u64 [s1 + 0x190]\n  9038: a0 = clz t2\n  9040: a0 = a0 + 0x40\n  9043: t0 = u64 [s1 + 0x198]\n  9047: a1 = clz t0\n  9049: a1 = a0 if t0 == 0\n  9052: a0 = a1 + 0x80\n  9056: a3 = t1 | ra\n  9059: a2 = a0 if a3 == 0\n  9062: a5 = a0 <u a1\n  9065: a5 = 0 if a3 != 0\n  9067: a4 = a5 >u 0\n  9069: a0 = a2 <u 0xf0\n  9073: a3 = a0 ^ 0x1\n  9076: a4 = a3 if a5 == 0\n  9079: a0 = a4 <u 0x1\n  9082: a0 = a0 + 0xffffffffffffffff\n  9085: a1 = -a4\n  9087: a5 = -a5\n  9089: a3 = a5 - a3\n  9092: a2 = 0xef - a2\n  9096: u64 [s1 + 0x178] = a1\n  9100: a5 = a1 >u 0\n  9102: a1 = a0 >u 0\n  9104: a1 = a5 if a0 == 0\n  9107: a5 = a3 >u 0\n  9109: u64 [s1 + 0x168] = a2\n  9113: a2 = a2 <u 0x100\n  9117: a2 = a2 ^ 0x1\n  9120: a2 = a5 if a3 != 0\n  9123: a2 = a1 if a4 != 0\n  9126: a1 = t2 | t1\n  9129: a4 = t0 | ra\n  9132: a1 = a1 | a4\n  9135: a1 = a1 <u 0x1\n  9138: a1 = a1 | a2\n  9141: a4 = t2\n  9143: a4 = 0 if a1 != 0\n  9145: jump @381 if a1 == 0\n      : @380 (gas: 1)\n  9148: jump @873\n      : @381 (gas: 7)\n  9151: a1 = u64 [s1 + 0x168]\n  9155: a1 = a1 ^ 0xff\n  9159: a2 = u64 [s1 + 0x178]\n  9163: a1 = a1 | a2\n  9166: a2 = a3 | a0\n  9169: a1 = a1 | a2\n  9172: jump @383 if a1 != 0\n      : @382 (gas: 1)\n  9175: jump @873\n      : @383 (gas: 20)\n  9178: a4 = u64 [s1 + 0x168]\n  9182: a2 = a4 + 0x1\n  9185: u64 [s1 + 0x188] = a2\n  9189: a1 = a2 <u 0x1\n  9192: a1 = a1 + a3\n  9195: u64 [s1 + 0x180] = a1\n  9199: a1 = a1 | a2\n  9202: a1 = a1 <u 0x1\n  9205: a3 = u64 [s1 + 0x178]\n  9209: a1 = a1 + a3\n  9212: u64 [s1 + 0x170] = a1\n  9216: a1 = a1 <u a3\n  9219: a0 = a0 + a1\n  9222: u64 [s1 + 0x178] = a0\n  9226: a1 = 0xff - a4\n  9230: u64 [s1 + 0x140] = a1\n  9234: a2 = 0x80 - a1\n  9238: a0 = u64 [s1 + 0x190]\n  9242: a1 = u64 [s1 + 0x198]\n  9246: ra = 352, jump @1574\n      : @384 [@dyn 176] (gas: 6)\n  9253: u64 [s1 + 0x130] = a0\n  9257: u64 [s1 + 0x148] = a1\n  9261: a0 = u64 [s1 + 0x150]\n  9265: a1 = u64 [s1 + 0x158]\n  9269: a2 = u64 [s1 + 0x140]\n  9273: ra = 354, jump @1579\n      : @385 [@dyn 177] (gas: 7)\n  9280: u64 [s1 + 0x128] = a0\n  9284: u64 [s1 + 0x120] = a1\n  9288: a0 = u64 [s1 + 0x140]\n  9292: a2 = a0 + 0xffffffffffffff80\n  9295: a0 = u64 [s1 + 0x190]\n  9299: a1 = u64 [s1 + 0x198]\n  9303: ra = 356, jump @1579\n      : @386 [@dyn 178] (gas: 8)\n  9310: u64 [s1 + 0x110] = a0\n  9314: u64 [s1 + 0x108] = a1\n  9318: a2 = u64 [s1 + 0x140]\n  9322: a0 = a2 <u 0x80\n  9326: u64 [s1 + 0x138] = a0\n  9330: a0 = u64 [s1 + 0x190]\n  9334: a1 = u64 [s1 + 0x198]\n  9338: ra = 358, jump @1579\n      : @387 [@dyn 179] (gas: 13)\n  9345: a4 = s1 + 0x100\n  9349: u64 [a4 + 0x60] = a1\n  9352: a1 = u64 [a4 + 0x80]\n  9356: a2 = u64 [a4 + 0x78]\n  9359: a2 = a2 | a1\n  9362: a1 = u64 [a4 + 0x88]\n  9366: a3 = u64 [a4 + 0x70]\n  9369: a1 = a1 | a3\n  9372: a1 = a1 | a2\n  9375: a3 = u64 [a4 + 0x38]\n  9378: a0 = 0 if a3 == 0\n  9380: u64 [a4 + 0x68] = a0\n  9383: jump @389 if a1 != 0\n      : @388 (gas: 1)\n  9386: jump @871\n      : @389 (gas: 30)\n  9389: a2 = a3\n  9391: a0 = u64 [s1 + 0x148]\n  9395: a1 = u64 [s1 + 0x120]\n  9399: a0 = a0 | a1\n  9402: a5 = a3\n  9404: a1 = u64 [s1 + 0x108]\n  9408: a0 = a1 if a2 == 0\n  9411: a2 = u64 [s1 + 0x158]\n  9415: a3 = a2\n  9417: a1 = a2\n  9419: a2 = u64 [s1 + 0x140]\n  9423: a3 = a0 if a2 != 0\n  9426: u64 [s1 + 0x148] = a3\n  9430: a0 = u64 [s1 + 0x130]\n  9434: a3 = u64 [s1 + 0x128]\n  9438: a0 = a0 | a3\n  9441: a3 = u64 [s1 + 0x110]\n  9445: a0 = a3 if a5 == 0\n  9448: a4 = u64 [s1 + 0x150]\n  9452: a3 = a4\n  9454: a3 = a0 if a2 != 0\n  9457: u64 [s1 + 0x140] = a3\n  9461: a0 = u64 [s1 + 0x160]\n  9465: a0 = 0 if a5 == 0\n  9467: u64 [s1 + 0x160] = a0\n  9471: u64 [s1 + 304] = 0x15180\n  9478: a0 = u64 [s1 + 0x188]\n  9482: a2 = a0 + 0xffffffffffffff80\n  9485: a0 = a4\n  9487: ra = 360, jump @1574\n      : @390 [@dyn 180] (gas: 6)\n  9494: u64 [s1 + 0x138] = a0\n  9498: u64 [s1 + 0x120] = a1\n  9502: a0 = u64 [s1 + 0x190]\n  9506: a1 = u64 [s1 + 0x198]\n  9510: a2 = u64 [s1 + 0x188]\n  9514: ra = 362, jump @1574\n      : @391 [@dyn 181] (gas: 7)\n  9521: u64 [s1 + 0x110] = a0\n  9525: u64 [s1 + 0x128] = a1\n  9529: a1 = u64 [s1 + 0x188]\n  9533: a2 = 0x80 - a1\n  9537: a0 = u64 [s1 + 0x150]\n  9541: a1 = u64 [s1 + 0x158]\n  9545: ra = 364, jump @1579\n      : @392 [@dyn 182] (gas: 20)\n  9552: a2 = u64 [s1 + 0x128]\n  9556: a1 = a1 | a2\n  9559: a2 = u64 [s1 + 0x188]\n  9563: a3 = a2 <u 0x80\n  9567: u64 [s1 + 0x128] = a3\n  9571: a4 = u64 [s1 + 0x120]\n  9575: a1 = a4 if a3 == 0\n  9578: a4 = u64 [s1 + 0x198]\n  9582: a4 = a1 if a2 != 0\n  9585: u64 [s1 + 0x198] = a4\n  9589: a1 = u64 [s1 + 0x110]\n  9593: a0 = a0 | a1\n  9596: a1 = u64 [s1 + 0x138]\n  9600: a0 = a1 if a3 == 0\n  9603: a1 = u64 [s1 + 0x190]\n  9607: a1 = a0 if a2 != 0\n  9610: u64 [s1 + 0x190] = a1\n  9614: a0 = u64 [s1 + 0x150]\n  9618: a1 = u64 [s1 + 0x158]\n  9622: ra = 366, jump @1574\n      : @393 [@dyn 183] (gas: 16)\n  9629: t2 = u64 [s1 + 0x190]\n  9633: t1 = u64 [s1 + 0x198]\n  9637: u64 [s1 + 344] = 0\n  9641: u64 [s1 + 336] = 0\n  9645: a4 = s1 + 0x100\n  9649: a2 = u64 [a4 + 0x28]\n  9652: a1 = 0 if a2 == 0\n  9654: a0 = 0 if a2 == 0\n  9656: u64 [a4 + 0x38] = a0\n  9659: a3 = u64 [a4 + 0x30]\n  9662: a2 = a3 + 0xffffffffffffffff\n  9665: u64 [a4 + 0x28] = a2\n  9668: a2 = a3 >u 0\n  9670: a2 = a2 + 0xffffffffffffffff\n  9673: u64 [a4 + 0x20] = a2\n  9676: fallthrough\n      : @394 (gas: 89)\n  9677: a2 = t2 >> 0x3f\n  9680: a3 = t1 << 0x1\n  9683: a2 = a2 | a3\n  9686: a3 = t2 << 0x1\n  9689: t2 = u64 [s1 + 0x148]\n  9693: a4 = t2 >> 0x3f\n  9696: a3 = a3 | a4\n  9699: u64 [s1 + 0x198] = a3\n  9703: ra = u64 [s1 + 0x120]\n  9707: a0 = t1\n  9709: t1 = ra ^ a2\n  9712: t0 = ra <u a2\n  9715: a4 = u64 [s1 + 0x128]\n  9719: a5 = a4 <u a3\n  9722: a5 = t0 if t1 != 0\n  9725: a1 = a1 << 0x1\n  9728: a4 = u64 [s1 + 0x138]\n  9732: a3 = a4 >> 0x3f\n  9735: a1 = a1 | a3\n  9738: u64 [s1 + 0x190] = a1\n  9742: a3 = a0 >> 0x3f\n  9745: a0 = a4 << 0x1\n  9748: a3 = a3 | a0\n  9751: a0 = t2 << 0x1\n  9754: a4 = u64 [s1 + 0x140]\n  9758: a1 = a4 >> 0x3f\n  9761: t0 = a0 | a1\n  9764: a1 = a4 << 0x1\n  9767: a4 = u64 [s1 + 0x160]\n  9771: t1 = a4 >> 0x3f\n  9774: t1 = a1 | t1\n  9777: a1 = a4 << 0x1\n  9780: a4 = u64 [s1 + 0x168]\n  9784: t2 = a4 >> 0x3f\n  9787: a1 = a1 | t2\n  9790: a4 = a4 << 0x1\n  9793: a0 = u64 [s1 + 0x158]\n  9797: a4 = a4 | a0\n  9800: u64 [s1 + 0x168] = a4\n  9804: a0 = u64 [s1 + 0x150]\n  9808: a1 = a1 | a0\n  9811: u64 [s1 + 0x160] = a1\n  9815: a1 = a0 | t1\n  9818: u64 [s1 + 0x140] = a1\n  9822: a0 = a0 | t0\n  9825: u64 [s1 + 0x148] = a0\n  9829: a0 = ra - a3\n  9832: a0 = a0 <u a5\n  9835: a1 = ra <u a3\n  9838: a5 = u64 [s1 + 0x190]\n  9842: a4 = ra - a5\n  9845: a4 = a4 - a1\n  9848: a4 = a4 - a0\n  9851: ra = a4 >>a 0x3f\n  9854: a0 = u64 [s1 + 0x130]\n  9858: a0 = ra & a0\n  9861: a1 = u64 [s1 + 0x198]\n  9865: t2 = a1 - a0\n  9868: a1 = a1 <u a0\n  9871: t1 = a2 - a1\n  9874: a1 = 0 if a2 != 0\n  9876: a0 = a3 - a1\n  9879: u64 [s1 + 0x138] = a0\n  9883: a1 = a3 <u a1\n  9886: a1 = a5 - a1\n  9889: a0 = s1 + 0x100\n  9893: a3 = u64 [a0 + 0x88]\n  9897: a5 = u64 [a0 + 0x80]\n  9901: a2 = a3 | a5\n  9904: a2 = a2 <u 0x1\n  9907: a4 = u64 [a0 + 0x70]\n  9910: t0 = a4 <u a2\n  9913: a2 = a4 - a2\n  9916: a4 = a3 <u 0x1\n  9919: a5 = a5 - a4\n  9922: a4 = u64 [a0 + 0x78]\n  9925: a4 = a4 - t0\n  9928: a3 = a3 + 0xffffffffffffffff\n  9931: u64 [a0 + 0x80] = a5\n  9935: u64 [a0 + 0x78] = a4\n  9938: t0 = a5 | a4\n  9941: u64 [a0 + 0x88] = a3\n  9945: a4 = a3 | a2\n  9948: a3 = a4 | t0\n  9951: a4 = ra & 0x1\n  9954: u64 [a0 + 0x58] = a4\n  9957: u64 [a0 + 0x70] = a2\n  9960: u64 [s1 + 336] = 0\n  9964: jump @394 if a3 != 0\n      : @395 (gas: 1)\n  9968: jump @872\n      : @396 (gas: 3)\n  9971: a0 = u64 [s1 + 0x198]\n  9975: a0 = i32 [a0]\n  9977: jump @398 if a0 >u 3\n      : @397 (gas: 1)\n  9981: jump @827\n      : @398 (gas: 12)\n  9984: a0 = s1 + 0x2918\n  9988: u64 [a0 + 1664] = 0\n  9992: u64 [a0 + 1656] = 0\n  9996: u64 [a0 + 1648] = 0\n 10000: u64 [a0 + 1640] = 0\n 10004: a0 = s1 + 0x3000\n 10008: i32 a0 = a0 + 0xffffffffffffff80\n 10011: ra = 0x170\n 10015: ecalli 16 // 'value_transferred'\n 10017: a0 = 0x3000\n 10021: t0 = 0x172\n 10025: jump @1563\n      : @399 [@dyn 184] (gas: 2)\n 10028: a0 = 0x3000\n 10032: t0 = 370, jump @1563\n      : @400 [@dyn 185] (gas: 1)\n 10038: t0 = 372, jump @1526\n      : @401 [@dyn 186] (gas: 1)\n 10044: jump @403 if a0 != 0\n      : @402 (gas: 1)\n 10047: jump @828\n      : @403 (gas: 9)\n 10050: a0 = 0x30180\n 10055: u64 [s1 + 0x180] = a0\n 10059: i32 a0 = a0 + 0\n 10061: u64 [s1 + 0x158] = a0\n 10065: ra = 0x176\n 10069: ecalli 4 // 'caller'\n 10071: a2 = u64 [s1 + 0x180]\n 10075: t0 = 0x178\n 10079: jump @1496\n      : @404 [@dyn 187] (gas: 2)\n 10082: a2 = u64 [s1 + 0x180]\n 10086: t0 = 376, jump @1496\n      : @405 [@dyn 188] (gas: 8)\n 10092: u64 [a2 + 1504] = 0\n 10096: a4 = a2 + 0x500\n 10100: u64 [a4 + 0xd8] = a1\n 10104: u64 [a4 + 0xd0] = a0\n 10108: a1 = s1 + 0x26e0\n 10112: u64 [a4 + 0xc8] = a3\n 10116: a0 = 0\n 10118: ra = 378, jump @24\n      : @406 [@dyn 189] (gas: 9)\n 10124: a1 = s1 + 0x2118\n 10128: u64 [a1 + 1472] = 0\n 10132: u64 [a1 + 1464] = 0\n 10136: u64 [a1 + 1448] = 0x1\n 10141: a2 = a1\n 10143: a0 = 0x20\n 10146: a1 = s1 + 0x26c0\n 10150: u64 [a2 + 1456] = 0\n 10154: ra = 380, jump @24\n      : @407 [@dyn 190] (gas: 1)\n 10160: t0 = 382, jump @1542\n      : @408 [@dyn 191] (gas: 3)\n 10166: a2 = 0x20170\n 10171: a0 = i32 [0x20170]\n 10176: jump @410 if a0 >u 63\n      : @409 (gas: 2)\n 10180: u32 [0x20170] = 0x40\n 10186: fallthrough\n      : @410 (gas: 14)\n 10187: u64 [s1 + 0x150] = a2\n 10191: a0 = sp + 0xffffffffffffffe0\n 10194: a2 = a0 & 0xffffffffffffffe0\n 10197: u64 [s1 + 0x190] = a2\n 10201: sp = a2\n 10203: a0 = 0x20180\n 10208: i32 a0 = a0 + 0\n 10210: i32 a2 = a2 + 0\n 10212: a1 = 0x40\n 10215: u64 [s1 + 0x160] = a0\n 10219: ra = 0x180\n 10223: ecalli 8 // 'hash_keccak_256'\n 10225: t0 = 0x182\n 10229: jump @1511\n      : @411 [@dyn 192] (gas: 1)\n 10232: t0 = 386, jump @1511\n      : @412 [@dyn 193] (gas: 3)\n 10238: i32 a0 = a0 + 0x6a0\n 10242: a0 = a0 + s1\n 10245: ra = 388, jump @26\n      : @413 [@dyn 194] (gas: 11)\n 10251: a0 = s1 + 0x2118\n 10255: a2 = a0 + 0x500\n 10259: a1 = u64 [a2 + 0xa0]\n 10263: u64 [s1 + 0x170] = a1\n 10267: a1 = u64 [a2 + 0x98]\n 10271: u64 [s1 + 0x190] = a1\n 10275: a1 = u64 [a2 + 0x88]\n 10279: u64 [s1 + 0x168] = a1\n 10283: a0 = u64 [a2 + 0x90]\n 10287: u64 [s1 + 0x188] = a0\n 10291: t0 = 390, jump @1561\n      : @414 [@dyn 195] (gas: 9)\n 10297: a0 = s1 + 0x2918\n 10301: u64 [a0 + 1696] = 0\n 10305: u64 [a0 + 1688] = 0\n 10309: u64 [a0 + 1680] = 0\n 10313: u64 [a0 + 1672] = 0\n 10317: a0 = s1 + 0x3000\n 10321: i32 a0 = a0 + 0xffffffffffffffa0\n 10324: ecalli 16 // 'value_transferred'\n 10326: fallthrough\n      : @415 (gas: 43)\n 10327: a0 = s1 + 0x2918\n 10331: a3 = a0 + 0x600\n 10335: a2 = u64 [a3 + 0x90]\n 10339: a1 = u64 [a3 + 0x88]\n 10343: t0 = u64 [a0 + 0x6a0]\n 10347: a4 = u64 [a3 + 0x98]\n 10351: a5 = u64 [s1 + 0x188]\n 10355: a5 = a5 + a2\n 10358: a0 = u64 [s1 + 0x168]\n 10362: t1 = a1 + a0\n 10365: a1 = t1 <u a1\n 10368: a5 = a5 + a1\n 10371: a3 = a5 ^ a2\n 10374: a2 = a5 <u a2\n 10377: a2 = a1 if a3 == 0\n 10380: a1 = u64 [s1 + 0x190]\n 10384: a1 = a1 + a4\n 10387: ra = u64 [s1 + 0x170]\n 10391: t0 = t0 + ra\n 10394: a3 = a1 <u a4\n 10397: a3 = a3 + t0\n 10400: a2 = a2 + a1\n 10403: a1 = a2 <u a1\n 10406: t2 = a3 + a1\n 10409: a3 = u64 [s1 + 0x188]\n 10413: a1 = a3 ^ a5\n 10416: a4 = a5 <u a3\n 10419: a0 = t1 <u a0\n 10422: a0 = a4 if a1 != 0\n 10425: a3 = u64 [s1 + 0x190]\n 10429: t0 = a2 <u a3\n 10432: a4 = ra ^ t2\n 10435: a1 = t2 <u ra\n 10438: a1 = t0 if a4 == 0\n 10441: a3 = a3 ^ a2\n 10444: a3 = a3 | a4\n 10447: a0 = a1 if a3 != 0\n 10450: a1 = u64 [s1 + 0x178]\n 10454: u64 [a1] = t1\n 10456: u64 [a1 + 0x8] = a5\n 10459: u64 [a1 + 0x10] = a2\n 10462: u64 [a1 + 0x18] = t2\n 10465: jump @417 if a0 == 0\n      : @416 (gas: 1)\n 10468: jump @832\n      : @417 (gas: 2)\n 10471: a0 = u64 [s1 + 0x198]\n 10475: ra = 392, jump @28\n      : @418 [@dyn 196] (gas: 3)\n 10481: a0 = s1 + 0x2680\n 10485: a1 = 0x40\n 10488: ra = 394, jump @22\n      : @419 [@dyn 197] (gas: 20)\n 10494: a0 = s1 + 0x2118\n 10498: a2 = a0 + 0x500\n 10502: a1 = u64 [a2 + 0x80]\n 10506: u64 [s1 + 0x190] = a1\n 10510: a1 = u64 [a2 + 0x78]\n 10513: u64 [s1 + 0x188] = a1\n 10517: a1 = u64 [a2 + 0x70]\n 10520: u64 [s1 + 0x178] = a1\n 10524: a0 = u64 [a2 + 0x68]\n 10527: u64 [s1 + 0x198] = a0\n 10531: a0 = s1 + 0x2918\n 10535: u64 [a0 + 1728] = 0\n 10539: u64 [a0 + 1720] = 0\n 10543: u64 [a0 + 1712] = 0\n 10547: u64 [a0 + 1704] = 0\n 10551: a0 = s1 + 0x3000\n 10555: i32 a0 = a0 + 0xffffffffffffffc0\n 10558: ra = 0x18c\n 10562: ecalli 16 // 'value_transferred'\n 10564: fallthrough\n      : @420 [@dyn 198] (gas: 14)\n 10565: a3 = s1 + 0x100\n 10569: a0 = u64 [a3 + 0x90]\n 10573: a1 = u64 [a3 + 0x78]\n 10576: a0 = a0 | a1\n 10579: a1 = u64 [a3 + 0x98]\n 10583: a5 = a1\n 10585: a2 = u64 [a3 + 0x88]\n 10589: a1 = a1 | a2\n 10592: a1 = a1 | a0\n 10595: a1 = a1 >> 0x20\n 10598: a0 = a0 | a2\n 10601: a0 = a0 << 0x20\n 10604: a0 = a0 | a1\n 10607: jump @422 if a0 == 0\n      : @421 (gas: 1)\n 10610: jump @775\n      : @422 (gas: 2)\n 10613: a0 = 0x3000\n 10617: t0 = 398, jump @1563\n      : @423 [@dyn 199] (gas: 13)\n 10623: a0 = u64 [a4 + 0xa8]\n 10627: a1 = u64 [a4 + 0xb0]\n 10631: a2 = u64 [a4 + 0xb8]\n 10635: a3 = u64 [a4 + 0xc0]\n 10639: a4 = s1 + 0x2118\n 10643: u64 [a4 + 0x560] = a3\n 10647: a3 = a4 + 0x500\n 10651: u64 [a3 + 0x58] = a2\n 10654: u64 [a3 + 0x50] = a1\n 10657: a1 = s1 + 0x2660\n 10661: u64 [a3 + 0x48] = a0\n 10664: a0 = a5\n 10666: ra = 400, jump @24\n      : @424 [@dyn 200] (gas: 6)\n 10672: a0 = u64 [s1 + 0x158]\n 10676: ra = 0x192\n 10680: ecalli 4 // 'caller'\n 10682: a2 = u64 [s1 + 0x180]\n 10686: t0 = 0x194\n 10690: jump @1494\n      : @425 [@dyn 201] (gas: 2)\n 10693: a2 = u64 [s1 + 0x180]\n 10697: t0 = 404, jump @1494\n      : @426 [@dyn 202] (gas: 25)\n 10703: t0 = a1 | a0\n 10706: a3 = a3 >> 0x20\n 10709: a2 = reverse a2\n 10711: a1 = a2 << 0x20\n 10714: a1 = a1 | a3\n 10717: a2 = a2 >> 0x20\n 10720: a3 = u64 [0x20000]\n 10725: a0 = s1 + 0x2118\n 10729: u64 [a0 + 0x540] = a3\n 10733: a3 = u64 [0x20008]\n 10738: a4 = u64 [0x20010]\n 10743: a5 = u64 [0x20018]\n 10748: u64 [a0 + 0x538] = a3\n 10752: a3 = a0 + 0x500\n 10756: u64 [a3 + 0x30] = a4\n 10759: u64 [a0 + 1312] = 0\n 10763: u64 [a3 + 0x28] = a5\n 10766: u64 [a3 + 0x18] = a2\n 10769: u64 [a3 + 0x10] = a1\n 10772: a1 = 0x20\n 10775: a2 = s1 + 0x2640\n 10779: a3 = s1 + 0x2620\n 10783: u64 [a0 + 0x508] = t0\n 10787: a0 = u64 [s1 + 0x198]\n 10791: ra = 406, jump @29\n      : @427 [@dyn 203] (gas: 5)\n 10797: a0 = 0\n 10799: a1 = u64 [s1 + 0x160]\n 10803: a2 = 0\n 10805: ecalli 13 // 'seal_return'\n 10807: jump @1039\n      : @428 (gas: 11)\n 10810: a0 = s1 + 0x2918\n 10814: u64 [a0 + 768] = 0\n 10818: u64 [a0 + 760] = 0\n 10822: u64 [a0 + 752] = 0\n 10826: u64 [a0 + 744] = 0\n 10830: a0 = s1 + 0x3000\n 10834: i32 a0 = a0 + 0xfffffffffffffc00\n 10838: ra = 0x198\n 10842: ecalli 16 // 'value_transferred'\n 10844: t0 = 0x19a\n 10848: jump @1525\n      : @429 [@dyn 204] (gas: 1)\n 10851: t0 = 410, jump @1525\n      : @430 [@dyn 205] (gas: 8)\n 10857: a0 = u64 [a4 + 0xf8]\n 10861: a1 = u64 [a3 + 0x300]\n 10865: a2 = u64 [a4 + 0xf0]\n 10869: a3 = u64 [a4 + 0xe8]\n 10873: a1 = a1 | a2\n 10876: a0 = a0 | a3\n 10879: a0 = a0 | a1\n 10882: jump @432 if a0 == 0\n      : @431 (gas: 1)\n 10885: jump @839\n      : @432 (gas: 3)\n 10888: a0 = u64 [s1 + 0x198]\n 10892: a0 = i32 [a0]\n 10894: jump @434 if a0 >u 67\n      : @433 (gas: 1)\n 10898: jump @840\n      : @434 (gas: 4)\n 10901: a0 = s1 + 0x16e0\n 10905: ra = 0x19c\n 10909: t0 = 0x588\n 10913: jump @1553\n      : @435 [@dyn 206] (gas: 13)\n 10916: a0 = s1 + 0x1118\n 10920: a2 = a0 + 0x500\n 10924: a1 = u64 [a2 + 0xd8]\n 10928: u64 [s1 + 0x168] = a1\n 10932: a1 = u64 [a2 + 0xd0]\n 10936: u64 [s1 + 0x198] = a1\n 10940: a0 = u64 [a2 + 0xc8]\n 10944: u64 [s1 + 0x190] = a0\n 10948: a0 = s1 + 0x3000\n 10952: i32 a0 = a0 + 0xfffffffffffffc20\n 10956: a1 = 0x24\n 10959: ecalli 2 // 'call_data_load'\n 10961: fallthrough\n      : @436 (gas: 19)\n 10962: a0 = s1 + 0x2918\n 10966: a5 = a0 + 0x300\n 10970: a4 = u64 [a5 + 0x20]\n 10973: a3 = u64 [a5 + 0x18]\n 10976: a2 = u64 [a5 + 0x10]\n 10979: a1 = u64 [a5 + 0x8]\n 10982: a5 = s1 + 0x100\n 10986: u64 [a5 + 0x80] = a2\n 10990: u64 [a5 + 0x70] = a4\n 10993: a0 = a2 | a4\n 10996: u64 [a5 + 0x88] = a1\n 11000: a1 = a1 | a3\n 11003: a1 = a1 | a0\n 11006: a1 = a1 >> 0x20\n 11009: u64 [a5 + 0x78] = a3\n 11012: a0 = a0 | a3\n 11015: a0 = a0 << 0x20\n 11018: a0 = a0 | a1\n 11021: jump @438 if a0 == 0\n      : @437 (gas: 1)\n 11024: jump @841\n      : @438 (gas: 15)\n 11027: a3 = s1 + 0x100\n 11031: a0 = u64 [a3 + 0x68]\n 11034: a0 = a0 << 0x20\n 11037: a0 = a0 >> 0x20\n 11040: a2 = s1 + 0x1118\n 11044: u64 [a2 + 1472] = 0\n 11048: a1 = u64 [a3 + 0x90]\n 11052: a4 = a2 + 0x500\n 11056: u64 [a4 + 0xa8] = a1\n 11060: a1 = u64 [a3 + 0x98]\n 11064: u64 [a4 + 0xb0] = a1\n 11068: a1 = s1 + 0x16c0\n 11072: u64 [a4 + 0xb8] = a0\n 11076: a0 = 0\n 11078: ra = 414, jump @24\n      : @439 [@dyn 207] (gas: 3)\n 11084: t0 = 0x1a0\n 11088: a1 = s1 + 0x1118\n 11092: fallthrough\n      : @440 [@dyn 208] (gas: 8)\n 11093: u64 [a1 + 1440] = 0\n 11097: u64 [a1 + 1432] = 0\n 11101: u64 [a1 + 1416] = 0x2\n 11106: a2 = a1\n 11108: a0 = 0x20\n 11111: a1 = s1 + 0x16a0\n 11115: u64 [a2 + 1424] = 0\n 11119: ra = 418, jump @24\n      : @441 [@dyn 209] (gas: 3)\n 11125: a1 = 0x20170\n 11130: a0 = i32 [0x20170]\n 11135: jump @443 if a0 >u 63\n      : @442 (gas: 2)\n 11139: u32 [0x20170] = 0x40\n 11145: fallthrough\n      : @443 (gas: 14)\n 11146: a0 = sp + 0xffffffffffffffe0\n 11149: a2 = a0 & 0xffffffffffffffe0\n 11152: u64 [s1 + 0x168] = a2\n 11156: sp = a2\n 11158: a0 = 0x20180\n 11163: i32 a0 = a0 + 0\n 11165: u64 [s1 + 0x198] = a1\n 11169: i32 a2 = a2 + 0\n 11171: a1 = 0x40\n 11174: u64 [s1 + 0x190] = a0\n 11178: ra = 0x1a4\n 11182: ecalli 8 // 'hash_keccak_256'\n 11184: t0 = 0x1a6\n 11188: jump @1547\n      : @444 [@dyn 210] (gas: 1)\n 11191: t0 = 422, jump @1547\n      : @445 [@dyn 211] (gas: 14)\n 11197: u64 [s1 + 0x160] = a0\n 11201: a0 = reverse a1\n 11203: u64 [s1 + 0x158] = a0\n 11207: a0 = reverse a2\n 11209: u64 [s1 + 0x150] = a0\n 11213: a0 = reverse a3\n 11215: u64 [s1 + 0x148] = a0\n 11219: a0 = sp + 0xffffffffffffffe0\n 11222: a0 = a0 & 0xffffffffffffffe0\n 11225: u64 [s1 + 0x168] = a0\n 11229: sp = a0\n 11231: t0 = 0x1a8\n 11235: a2 = s1 + 0x1118\n 11239: fallthrough\n      : @446 [@dyn 212] (gas: 12)\n 11240: a0 = u64 [s1 + 0x170]\n 11244: a3 = a2 + 0x500\n 11248: u64 [a3 + 0x80] = a0\n 11252: a0 = u64 [s1 + 0x178]\n 11256: u64 [a3 + 0x78] = a0\n 11259: a0 = u64 [s1 + 0x180]\n 11263: u64 [a3 + 0x70] = a0\n 11266: a1 = s1 + 0x1680\n 11270: a0 = u64 [s1 + 0x188]\n 11274: u64 [a3 + 0x68] = a0\n 11277: a0 = 0\n 11279: ra = 426, jump @24\n      : @447 [@dyn 213] (gas: 3)\n 11285: t0 = 0x1ac\n 11289: a1 = s1 + 0x1118\n 11293: fallthrough\n      : @448 [@dyn 214] (gas: 13)\n 11294: a0 = u64 [s1 + 0x148]\n 11298: a2 = a1 + 0x500\n 11302: u64 [a2 + 0x60] = a0\n 11305: a0 = u64 [s1 + 0x150]\n 11309: u64 [a2 + 0x58] = a0\n 11312: a0 = u64 [s1 + 0x158]\n 11316: u64 [a2 + 0x50] = a0\n 11319: a3 = a1\n 11321: a0 = 0x20\n 11324: a1 = s1 + 0x1660\n 11328: a2 = u64 [s1 + 0x160]\n 11332: u64 [a3 + 0x548] = a2\n 11336: ra = 430, jump @24\n      : @449 [@dyn 215] (gas: 3)\n 11342: a1 = u64 [s1 + 0x198]\n 11346: a0 = i32 [a1]\n 11348: jump @451 if a0 >u 63\n      : @450 (gas: 2)\n 11352: u32 [a1 + 0] = 0x40\n 11355: fallthrough\n      : @451 (gas: 4)\n 11356: a0 = sp + 0xffffffffffffffe0\n 11359: a0 = a0 & 0xffffffffffffffe0\n 11362: u64 [s1 + 0x188] = a0\n 11366: t0 = 432, jump @1492\n      : @452 [@dyn 216] (gas: 21)\n 11372: ecalli 8 // 'hash_keccak_256'\n 11374: a3 = u64 [s1 + 0x188]\n 11378: a0 = u64 [a3 + 0x18]\n 11381: a1 = u64 [a3 + 0x10]\n 11384: a2 = u64 [a3 + 0x8]\n 11387: a3 = u64 [a3]\n 11389: a5 = reverse a0\n 11391: u64 [s1 + 0xd8] = a5\n 11395: a4 = reverse a1\n 11397: u64 [s1 + 0xe0] = a4\n 11401: a2 = reverse a2\n 11403: u64 [s1 + 0xf0] = a2\n 11407: a0 = reverse a3\n 11409: u64 [s1 + 0xe8] = a0\n 11413: a1 = u64 [s1 + 0x168]\n 11417: u64 [a1 + 0x18] = a0\n 11420: u64 [a1 + 0x10] = a2\n 11423: u64 [a1 + 0x8] = a4\n 11426: u64 [a1] = a5\n 11428: a0 = s1 + 0x1640\n 11432: ra = 434, jump @26\n      : @453 [@dyn 217] (gas: 3)\n 11438: t0 = 0x1b4\n 11442: a1 = s1 + 0x1118\n 11446: fallthrough\n      : @454 [@dyn 218] (gas: 34)\n 11447: a2 = a1 + 0x500\n 11451: a0 = u64 [a2 + 0x38]\n 11454: u64 [s1 + 0xc8] = a0\n 11458: a0 = u64 [a2 + 0x30]\n 11461: u64 [s1 + 0xc0] = a0\n 11465: a0 = u64 [a2 + 0x28]\n 11468: u64 [s1 + 0xd0] = a0\n 11472: a0 = sp + 0xffffffffffffffe0\n 11475: a4 = a0 & 0xffffffffffffffe0\n 11478: u64 [s1 + 0x188] = a4\n 11482: sp = a4\n 11484: a1 = u64 [s1 + 0xd8]\n 11488: a1 = a1 + 0x1\n 11491: a0 = a1 <u 0x1\n 11494: a2 = u64 [s1 + 0xe0]\n 11498: a2 = a2 + a0\n 11501: a0 = a1 | a2\n 11504: a0 = a0 <u 0x1\n 11507: a5 = u64 [s1 + 0xf0]\n 11511: a3 = a5 + a0\n 11514: a0 = a3 <u a5\n 11517: a5 = u64 [s1 + 0xe8]\n 11521: a0 = a0 + a5\n 11524: u64 [s1 + 0x180] = a0\n 11528: u64 [a4 + 0x18] = a0\n 11531: u64 [s1 + 0x168] = a3\n 11535: u64 [a4 + 0x10] = a3\n 11538: u64 [s1 + 0x170] = a2\n 11542: u64 [a4 + 0x8] = a2\n 11545: u64 [s1 + 0x178] = a1\n 11549: u64 [a4] = a1\n 11551: a0 = s1 + 0x1620\n 11555: a1 = 0x40\n 11558: ra = 438, jump @22\n      : @455 [@dyn 219] (gas: 13)\n 11564: a0 = s1 + 0x1118\n 11568: a2 = a0 + 0x500\n 11572: a1 = u64 [a2 + 0x20]\n 11575: u64 [s1 + 0x110] = a1\n 11579: a1 = u64 [a2 + 0x18]\n 11582: u64 [s1 + 0xf8] = a1\n 11586: a1 = u64 [a2 + 0x10]\n 11589: u64 [s1 + 0x100] = a1\n 11593: a1 = u64 [a2 + 0x8]\n 11596: u64 [s1 + 0x108] = a1\n 11600: a0 = s1 + 0x1600\n 11604: a1 = u64 [s1 + 0x188]\n 11608: ra = 440, jump @26\n      : @456 [@dyn 220] (gas: 17)\n 11614: a3 = s1 + 0x1118\n 11618: a0 = u64 [a3 + 0x500]\n 11622: a5 = a3 + 0x400\n 11626: a1 = u64 [a5 + 0xf8]\n 11630: a2 = u64 [a5 + 0xf0]\n 11634: a4 = u64 [a5 + 0xe8]\n 11638: u64 [s1 + 0x160] = a0\n 11642: u64 [a5 + 0xc0] = a0\n 11646: u64 [s1 + 0x130] = a1\n 11650: u64 [a5 + 0xb8] = a1\n 11654: u64 [s1 + 0x128] = a2\n 11658: u64 [a5 + 0xb0] = a2\n 11662: a0 = s1 + 0x15e0\n 11666: a1 = s1 + 0x15c0\n 11670: u64 [s1 + 0x188] = a4\n 11674: u64 [a5 + 0xa8] = a4\n 11678: ra = 442, jump @1333\n      : @457 [@dyn 221] (gas: 13)\n 11684: a3 = u64 [s1 + 0xf8]\n 11688: a4 = s1 + 0x100\n 11692: a1 = u64 [a4 + 0x10]\n 11695: a0 = u64 [a4 + 0x8]\n 11698: a2 = u64 [a4]\n 11700: a2 = a2 | a1\n 11703: a1 = a0 | a3\n 11706: a1 = a1 | a2\n 11709: a1 = a1 >> 0x20\n 11712: a2 = a2 | a3\n 11715: a2 = a2 << 0x20\n 11718: a1 = a1 | a2\n 11721: jump @459 if a1 == 0\n      : @458 (gas: 1)\n 11724: jump @775\n      : @459 (gas: 16)\n 11727: a5 = s1 + 0x1118\n 11731: t0 = u64 [a5 + 0x4e0]\n 11735: t1 = u64 [a5 + 0x4d8]\n 11739: a3 = a5 + 0x400\n 11743: a1 = u64 [a3 + 0xd0]\n 11747: a2 = u64 [a3 + 0xc8]\n 11751: u64 [s1 + 0x140] = a2\n 11755: u64 [a3 + 0x88] = a2\n 11759: u64 [s1 + 0x150] = a1\n 11763: u64 [a3 + 0x90] = a1\n 11767: u64 [s1 + 0x148] = t1\n 11771: u64 [a5 + 0x498] = t1\n 11775: a1 = s1 + 0x15a0\n 11779: u64 [s1 + 0x158] = t0\n 11783: u64 [a5 + 0x4a0] = t0\n 11787: ra = 444, jump @24\n      : @460 [@dyn 222] (gas: 9)\n 11793: a4 = u64 [s1 + 0xf8]\n 11797: a1 = u64 [s1 + 0x108]\n 11801: a0 = a1 + 0x20\n 11804: a5 = u64 [s1 + 0x188]\n 11808: a2 = a5 & 0x1\n 11811: a3 = u64 [s1 + 0x110]\n 11815: a3 = a3 | a4\n 11818: u64 [s1 + 0x138] = a0\n 11822: jump @583 if a2 != 0\n      : @461 (gas: 6)\n 11826: a2 = 0xffffffe0\n 11836: a2 = a1 <u a2\n 11839: a1 = u64 [s1 + 0x100]\n 11843: a2 = 0 if a1 != 0\n 11845: a2 = 0 if a3 != 0\n 11847: jump @463 if a2 != 0\n      : @462 (gas: 1)\n 11850: jump @775\n      : @463 (gas: 13)\n 11853: u64 [s1 + 0xb8] = a3\n 11857: a2 = a5 & 0xffffffffffffff00\n 11861: a3 = s1 + 0x1118\n 11865: a1 = u64 [s1 + 0x128]\n 11869: a4 = a3 + 0x400\n 11873: u64 [a4 + 0x10] = a1\n 11876: u64 [a4 + 0x8] = a2\n 11879: a1 = u64 [s1 + 0x130]\n 11883: u64 [a4 + 0x18] = a1\n 11886: a1 = s1 + 0x1520\n 11890: a2 = u64 [s1 + 0x160]\n 11894: u64 [a4 + 0x20] = a2\n 11897: ra = 446, jump @24\n      : @464 [@dyn 223] (gas: 16)\n 11903: a5 = s1 + 0x1118\n 11907: t2 = 0\n 11909: t1 = 0\n 11911: u64 [s1 + 400] = 0\n 11915: a3 = s1 + 0x100\n 11919: a0 = u64 [a3 + 0x48]\n 11922: a1 = u64 [a3 + 0x40]\n 11925: a0 = a0 | a1\n 11928: a1 = u64 [a3 + 0x58]\n 11931: a2 = u64 [a3 + 0x50]\n 11934: a1 = a1 | a2\n 11937: a0 = a0 | a1\n 11940: a0 = a0 >u 0\n 11942: a0 = a0 << 0x5\n 11945: u64 [a3 + 0x98] = a0\n 11949: jump @678\n      : @465 (gas: 1)\n 11952: jump @467 if a0 == 1641031603\n      : @466 (gas: 1)\n 11959: jump @857\n      : @467 (gas: 11)\n 11962: a0 = s1 + 0x2918\n 11966: u64 [a0 + 576] = 0\n 11970: u64 [a0 + 568] = 0\n 11974: u64 [a0 + 560] = 0\n 11978: u64 [a0 + 552] = 0\n 11982: a0 = s1 + 0x3000\n 11986: i32 a0 = a0 + 0xfffffffffffffb40\n 11990: ra = 0x1c0\n 11994: ecalli 16 // 'value_transferred'\n 11996: t0 = 0x1c2\n 12000: jump @1525\n      : @468 [@dyn 224] (gas: 1)\n 12003: t0 = 450, jump @1525\n      : @469 [@dyn 225] (gas: 1)\n 12009: t0 = 452, jump @1536\n      : @470 [@dyn 226] (gas: 1)\n 12015: jump @472 if a0 == 0\n      : @471 (gas: 1)\n 12018: jump @863\n      : @472 (gas: 3)\n 12021: a0 = u64 [s1 + 0x198]\n 12025: a0 = i32 [a0]\n 12027: jump @474 if a0 >u 3\n      : @473 (gas: 1)\n 12031: jump @864\n      : @474 (gas: 3)\n 12034: a0 = s1 + 0x10c0\n 12038: a1 = 0x40\n 12041: ra = 454, jump @22\n      : @475 [@dyn 227] (gas: 12)\n 12047: a0 = s1 + 0x7ff\n 12051: a0 = a0 + 0x119\n 12055: a2 = a0 + 0x700\n 12059: a1 = u64 [a2 + 0xc0]\n 12063: u64 [s1 + 0x198] = a1\n 12067: a1 = u64 [a2 + 0xb8]\n 12071: u64 [s1 + 0x190] = a1\n 12075: a1 = u64 [a2 + 0xb0]\n 12079: u64 [s1 + 0x180] = a1\n 12083: a0 = u64 [a2 + 0xa8]\n 12087: u64 [s1 + 0x188] = a0\n 12091: ra = 456, jump @15\n      : @476 [@dyn 228] (gas: 14)\n 12097: a4 = s1 + 0x100\n 12101: a0 = u64 [a4 + 0x98]\n 12105: a1 = u64 [a4 + 0x80]\n 12109: a0 = a0 | a1\n 12112: a1 = u64 [a4 + 0x88]\n 12116: a3 = a1\n 12118: a2 = u64 [a4 + 0x90]\n 12122: a1 = a1 | a2\n 12125: a1 = a1 | a0\n 12128: a1 = a1 >> 0x20\n 12131: a0 = a0 | a2\n 12134: a0 = a0 << 0x20\n 12137: a0 = a0 | a1\n 12140: jump @478 if a0 == 0\n      : @477 (gas: 1)\n 12143: jump @775\n      : @478 (gas: 13)\n 12146: a2 = u64 [0x301a0]\n 12151: a1 = u64 [0x301a8]\n 12156: a0 = u32 [0x301b0]\n 12161: a4 = s1 + 0x7ff\n 12165: a4 = a4 + 0x119\n 12169: u64 [a4 + 1952] = 0\n 12173: a5 = a4 + 0x700\n 12177: u64 [a5 + 0x98] = a0\n 12181: u64 [a5 + 0x90] = a1\n 12185: a1 = s1 + 0x10a0\n 12189: u64 [a5 + 0x88] = a2\n 12193: a0 = a3\n 12195: ra = 458, jump @24\n      : @479 [@dyn 229] (gas: 4)\n 12201: a1 = 0x20\n 12204: a0 = u64 [s1 + 0x188]\n 12208: ra = 0x372\n 12212: jump @37\n      : @480 (gas: 1)\n 12215: t0 = 460, jump @1543\n      : @481 [@dyn 230] (gas: 12)\n 12221: t0 = u64 [s1 + 0x168]\n 12225: a3 = a0 if t0 != 0\n 12228: u64 [s1 + 0x198] = a3\n 12232: a0 = u64 [s1 + 0x160]\n 12236: a2 = u64 [s1 + 0x130]\n 12240: a0 = a0 | a2\n 12243: a2 = u64 [s1 + 0x118]\n 12247: a0 = a2 if a4 == 0\n 12250: a5 = u64 [s1 + 0x150]\n 12254: a3 = a5\n 12256: a3 = a0 if t0 != 0\n 12259: t0 = 462, jump @1522\n      : @482 [@dyn 231] (gas: 1)\n 12265: ra = 464, jump @1574\n      : @483 [@dyn 232] (gas: 6)\n 12271: u64 [s1 + 0x130] = a0\n 12275: u64 [s1 + 0x118] = a1\n 12279: a0 = u64 [s1 + 0x148]\n 12283: a1 = u64 [s1 + 0x158]\n 12287: a2 = u64 [s1 + 0x190]\n 12291: ra = 466, jump @1574\n      : @484 [@dyn 233] (gas: 1)\n 12297: t0 = 468, jump @1531\n      : @485 [@dyn 234] (gas: 1)\n 12303: ra = 470, jump @1579\n      : @486 [@dyn 235] (gas: 1)\n 12309: t0 = 472, jump @1537\n      : @487 [@dyn 236] (gas: 14)\n 12315: a2 = u64 [s1 + 0x158]\n 12319: a2 = a1 if a3 != 0\n 12322: u64 [s1 + 0x158] = a2\n 12326: a1 = u64 [s1 + 0x110]\n 12330: a0 = a0 | a1\n 12333: a1 = u64 [s1 + 0x130]\n 12337: a0 = a1 if a4 == 0\n 12340: a1 = u64 [s1 + 0x148]\n 12344: a1 = a0 if a3 != 0\n 12347: a2 = a3\n 12349: u64 [s1 + 0x148] = a1\n 12353: a0 = u64 [s1 + 0x150]\n 12357: a1 = u64 [s1 + 0x140]\n 12361: ra = 474, jump @1574\n      : @488 [@dyn 237] (gas: 1)\n 12367: t0 = 476, jump @1515\n      : @489 [@dyn 238] (gas: 3)\n 12373: t1 = u64 [s1 + 0x158]\n 12377: t2 = u64 [s1 + 0x148]\n 12381: fallthrough\n      : @490 (gas: 68)\n 12382: u64 [s1 + 0x158] = a4\n 12386: a2 = t2 >> 0x3f\n 12389: a3 = t1 << 0x1\n 12392: t0 = a3 | a2\n 12395: a3 = t2 << 0x1\n 12398: a4 = u64 [s1 + 0x198]\n 12402: a4 = a4 >> 0x3f\n 12405: a3 = a3 | a4\n 12408: u64 [s1 + 0x148] = a3\n 12412: a2 = u64 [s1 + 0x128]\n 12416: t2 = a1\n 12418: u64 [s1 + 0x150] = t0\n 12422: a1 = a2 ^ t0\n 12425: ra = t1\n 12427: t1 = a2 <u t0\n 12430: a4 = u64 [s1 + 0x130]\n 12434: t0 = a4 <u a3\n 12437: t0 = t1 if a1 != 0\n 12440: a1 = t2 << 0x1\n 12443: a3 = a0 >> 0x3f\n 12446: a1 = a1 | a3\n 12449: u64 [s1 + 0x140] = a1\n 12453: a3 = ra >> 0x3f\n 12456: a0 = a0 << 0x1\n 12459: a3 = a3 | a0\n 12462: a0 = u64 [s1 + 0x198]\n 12466: a0 = a0 << 0x1\n 12469: a4 = u64 [s1 + 0x160]\n 12473: a1 = a4 >> 0x3f\n 12476: ra = a0 | a1\n 12479: a1 = a4 << 0x1\n 12482: a4 = u64 [s1 + 0x168]\n 12486: t1 = a4 >> 0x3f\n 12489: t1 = a1 | t1\n 12492: a1 = a4 << 0x1\n 12495: a4 = u64 [s1 + 0x188]\n 12499: t2 = a4 >> 0x3f\n 12502: a1 = a1 | t2\n 12505: a4 = a4 << 0x1\n 12508: a0 = u64 [s1 + 0x158]\n 12512: a4 = a4 | a0\n 12515: u64 [s1 + 0x188] = a4\n 12519: a1 = a1 | a5\n 12522: u64 [s1 + 0x168] = a1\n 12526: a1 = a5 | t1\n 12529: u64 [s1 + 0x160] = a1\n 12533: a0 = a5 | ra\n 12536: u64 [s1 + 0x198] = a0\n 12540: a0 = a2 - a3\n 12543: a0 = a0 <u t0\n 12546: a1 = a2 <u a3\n 12549: t0 = u64 [s1 + 0x140]\n 12553: a4 = a2 - t0\n 12556: a4 = a4 - a1\n 12559: a4 = a4 - a0\n 12562: a5 = a4 >>a 0x3f\n 12565: a0 = u64 [s1 + 0x138]\n 12569: a0 = a0 & a5\n 12572: a1 = u64 [s1 + 0x148]\n 12576: t2 = a1 - a0\n 12579: a1 = a1 <u a0\n 12582: a0 = u64 [s1 + 0x150]\n 12586: t1 = a0 - a1\n 12589: a1 = 0 if a0 != 0\n 12591: a0 = a3 - a1\n 12594: a1 = a3 <u a1\n 12597: a1 = t0 - a1\n 12600: t0 = 478, jump @1565\n      : @491 [@dyn 239] (gas: 17)\n 12606: t0 = a4 <u a2\n 12609: a2 = a4 - a2\n 12612: a4 = a3 <u 0x1\n 12615: ra = ra - a4\n 12618: a4 = u64 [s1 + 0x178]\n 12622: a4 = a4 - t0\n 12625: a3 = a3 + 0xffffffffffffffff\n 12628: u64 [s1 + 0x180] = ra\n 12632: u64 [s1 + 0x178] = a4\n 12636: t0 = ra | a4\n 12639: u64 [s1 + 0x190] = a3\n 12643: a4 = a3 | a2\n 12646: a3 = a4 | t0\n 12649: a4 = a5 & 0x1\n 12652: u64 [s1 + 0x170] = a2\n 12656: a5 = 0\n 12658: jump @490 if a3 != 0\n      : @492 (gas: 4)\n 12662: a0 = u64 [s1 + 0x188]\n 12666: a0 = a0 << 0x1\n 12669: a4 = a4 | a0\n 12672: fallthrough\n      : @493 (gas: 3)\n 12673: a0 = a4 & 0xffffffffffffffff\n 12676: a1 = u64 [s1 + 0x120]\n 12680: jump @495 if a1 == a0\n      : @494 (gas: 1)\n 12683: jump @842\n      : @495 (gas: 8)\n 12686: a0 = 0x30180\n 12691: u64 [s1 + 0x150] = a0\n 12695: i32 a0 = a0 + 0\n 12697: u64 [s1 + 0x148] = a0\n 12701: ra = 0x1e0\n 12705: ecalli 4 // 'caller'\n 12707: t0 = 0x1e2\n 12711: jump @1491\n      : @496 [@dyn 240] (gas: 1)\n 12714: t0 = 482, jump @1491\n      : @497 [@dyn 241] (gas: 9)\n 12720: u64 [a2 + 1056] = 0\n 12724: a4 = a2 + 0x400\n 12728: u64 [a4 + 0x18] = a1\n 12731: u64 [a4 + 0x10] = a0\n 12734: a1 = s1 + 0x7ff\n 12738: a1 = a1 + 0x521\n 12742: u64 [a4 + 0x8] = a3\n 12745: a0 = 0\n 12747: ra = 484, jump @24\n      : @498 [@dyn 242] (gas: 11)\n 12753: a1 = s1 + 0x7ff\n 12757: a1 = a1 + 0x119\n 12761: u64 [a1 + 1024] = 0\n 12765: u64 [a1 + 1016] = 0\n 12769: u64 [a1 + 1000] = 0x1\n 12774: a2 = a1\n 12776: a0 = 0x20\n 12779: a1 = s1 + 0x7ff\n 12783: a1 = a1 + 0x501\n 12787: u64 [a2 + 1008] = 0\n 12791: ra = 486, jump @24\n      : @499 [@dyn 243] (gas: 7)\n 12797: a0 = sp + 0xffffffffffffffe0\n 12800: a0 = a0 & 0xffffffffffffffe0\n 12803: u64 [s1 + 0x128] = a0\n 12807: sp = a0\n 12809: a1 = 0x20170\n 12814: a0 = i32 [0x20170]\n 12819: jump @501 if a0 >u 63\n      : @500 (gas: 3)\n 12823: u32 [0x20170] = 0x40\n 12829: t0 = 0x1e8\n 12833: jump @1534\n      : @501 (gas: 1)\n 12836: t0 = 488, jump @1534\n      : @502 [@dyn 244] (gas: 30)\n 12842: a0 = 0x20180\n 12847: i32 a0 = a0 + 0\n 12849: i32 a2 = a2 + 0\n 12851: u64 [s1 + 0x188] = a1\n 12855: a1 = 0x40\n 12858: u64 [s1 + 0x190] = a0\n 12862: ecalli 8 // 'hash_keccak_256'\n 12864: a3 = u64 [s1 + 0x198]\n 12868: a0 = u64 [a3 + 0x18]\n 12871: a1 = u64 [a3 + 0x10]\n 12874: a2 = u64 [a3 + 0x8]\n 12877: a3 = u64 [a3]\n 12879: a5 = reverse a0\n 12881: a4 = reverse a1\n 12883: a1 = reverse a2\n 12885: a2 = reverse a3\n 12887: a0 = u64 [s1 + 0x128]\n 12891: u64 [s1 + 0x180] = a2\n 12895: u64 [a0 + 0x18] = a2\n 12898: u64 [s1 + 0x198] = a1\n 12902: u64 [a0 + 0x10] = a1\n 12905: u64 [s1 + 0x178] = a4\n 12909: u64 [a0 + 0x8] = a4\n 12912: u64 [s1 + 0x170] = a5\n 12916: u64 [a0] = a5\n 12918: a0 = u64 [s1 + 0x148]\n 12922: ra = 0x1ea\n 12926: ecalli 4 // 'caller'\n 12928: t0 = 0x1ec\n 12932: jump @1491\n      : @503 [@dyn 245] (gas: 1)\n 12935: t0 = 492, jump @1491\n      : @504 [@dyn 246] (gas: 9)\n 12941: u64 [a2 + 992] = 0\n 12945: a4 = a2 + 0x300\n 12949: u64 [a4 + 0xd8] = a1\n 12953: u64 [a4 + 0xd0] = a0\n 12957: a1 = s1 + 0x7ff\n 12961: a1 = a1 + 0x4e1\n 12965: u64 [a4 + 0xc8] = a3\n 12969: a0 = 0\n 12971: ra = 494, jump @24\n      : @505 [@dyn 247] (gas: 11)\n 12977: a1 = s1 + 0x7ff\n 12981: a1 = a1 + 0x119\n 12985: u64 [a1 + 960] = 0\n 12989: u64 [a1 + 952] = 0\n 12993: u64 [a1 + 936] = 0x3\n 12998: a2 = a1\n 13000: a0 = 0x20\n 13003: a1 = s1 + 0x7ff\n 13007: a1 = a1 + 0x4c1\n 13011: u64 [a2 + 944] = 0\n 13015: ra = 496, jump @24\n      : @506 [@dyn 248] (gas: 3)\n 13021: a1 = u64 [s1 + 0x188]\n 13025: a0 = i32 [a1]\n 13027: jump @508 if a0 >u 63\n      : @507 (gas: 2)\n 13031: u32 [a1 + 0] = 0x40\n 13034: fallthrough\n      : @508 (gas: 8)\n 13035: a1 = 0xffffffff00000000\n 13045: u64 [s1 + 0x130] = a1\n 13049: a0 = 0xffffffff\n 13059: u64 [s1 + 0x140] = a0\n 13063: a0 = sp + 0xffffffffffffffe0\n 13066: a0 = a0 & 0xffffffffffffffe0\n 13069: u64 [s1 + 0x168] = a0\n 13073: t0 = 498, jump @1492\n      : @509 [@dyn 249] (gas: 5)\n 13079: ra = 0x1f4\n 13083: ecalli 8 // 'hash_keccak_256'\n 13085: a3 = u64 [s1 + 0x168]\n 13089: t0 = 0x1f6\n 13093: jump @1504\n      : @510 [@dyn 250] (gas: 2)\n 13096: a3 = u64 [s1 + 0x168]\n 13100: t0 = 502, jump @1504\n      : @511 [@dyn 251] (gas: 8)\n 13106: u64 [a4 + 0xe0] = a3\n 13110: u64 [a4 + 0xd8] = a2\n 13114: u64 [a4 + 0xd0] = a1\n 13118: u64 [a4 + 0xc8] = a0\n 13122: a0 = s1 + 0x7ff\n 13126: a0 = a0 + 0x4a1\n 13130: a1 = s1 + 0x29e0\n 13134: ra = 504, jump @26\n      : @512 [@dyn 252] (gas: 26)\n 13140: u64 [s1 + 272] = 0\n 13144: u64 [s1 + 280] = 0\n 13148: a4 = 0\n 13150: a0 = s1 + 0x7ff\n 13154: a0 = a0 + 0x119\n 13158: a0 = u32 [a0 + 0x388]\n 13162: a3 = s1 + 0x100\n 13166: u64 [a3 + 0x38] = a0\n 13169: a1 = u64 [a3 + 0x70]\n 13172: a1 = a1 + 0x1\n 13175: a0 = a1 <u 0x1\n 13178: a2 = u64 [a3 + 0x78]\n 13181: a0 = a0 + a2\n 13184: u64 [a3 + 0x8] = a1\n 13187: u64 [a3] = a0\n 13189: a0 = a0 | a1\n 13192: a0 = a0 <u 0x1\n 13195: a1 = u64 [a3 + 0x98]\n 13199: a0 = a0 + a1\n 13202: u64 [s1 + 0xf8] = a0\n 13206: a0 = a0 <u a1\n 13209: a1 = u64 [a3 + 0x80]\n 13213: a0 = a0 + a1\n 13216: u64 [s1 + 0xf0] = a0\n 13220: a3 = 0x1\n 13223: fallthrough\n      : @513 (gas: 9)\n 13224: a1 = 0\n 13226: a1 = 0 if a4 == 0\n 13228: a0 = u64 [s1 + 0x138]\n 13232: a0 = a0 <u a3\n 13235: a2 = 0\n 13237: a2 = a0 if a4 == 0\n 13240: a0 = 0\n 13242: a2 = a1 if a0 != 0\n 13245: jump @573 if a2 != 0\n      : @514 (gas: 7)\n 13249: u64 [s1 + 376] = 0\n 13253: u64 [s1 + 0x198] = a3\n 13257: a0 = u64 [s1 + 0x148]\n 13261: ra = 0x1fa\n 13265: ecalli 4 // 'caller'\n 13267: t0 = 0x1fc\n 13271: jump @1491\n      : @515 [@dyn 253] (gas: 1)\n 13274: t0 = 508, jump @1491\n      : @516 [@dyn 254] (gas: 9)\n 13280: u64 [a2 + 896] = 0\n 13284: a4 = a2 + 0x300\n 13288: u64 [a4 + 0x78] = a1\n 13291: u64 [a4 + 0x70] = a0\n 13294: a1 = s1 + 0x7ff\n 13298: a1 = a1 + 0x481\n 13302: u64 [a4 + 0x68] = a3\n 13305: a0 = 0\n 13307: ra = 510, jump @24\n      : @517 [@dyn 255] (gas: 11)\n 13313: a0 = s1 + 0x7ff\n 13317: a0 = a0 + 0x119\n 13321: u64 [a0 + 864] = 0\n 13325: u64 [a0 + 856] = 0\n 13329: u64 [a0 + 848] = 0\n 13333: a3 = a0\n 13335: a0 = 0x20\n 13338: a1 = s1 + 0x7ff\n 13342: a1 = a1 + 0x461\n 13346: u64 [a3 + 840] = 0x2\n 13351: ra = 512, jump @24\n      : @518 [@dyn 256] (gas: 3)\n 13357: a1 = u64 [s1 + 0x188]\n 13361: a0 = i32 [a1]\n 13363: jump @520 if a0 >u 63\n      : @519 (gas: 2)\n 13367: u32 [a1 + 0] = 0x40\n 13370: fallthrough\n      : @520 (gas: 4)\n 13371: a0 = sp + 0xffffffffffffffe0\n 13374: a0 = a0 & 0xffffffffffffffe0\n 13377: u64 [s1 + 0x180] = a0\n 13381: t0 = 514, jump @1492\n      : @521 [@dyn 257] (gas: 4)\n 13387: ra = 0x204\n 13391: ecalli 8 // 'hash_keccak_256'\n 13393: t0 = 0x206\n 13397: jump @1500\n      : @522 [@dyn 258] (gas: 1)\n 13400: t0 = 518, jump @1500\n      : @523 [@dyn 259] (gas: 10)\n 13406: a3 = a2 + 0x300\n 13410: u64 [a3 + 0x40] = a0\n 13413: u64 [a3 + 0x38] = a0\n 13416: u64 [a3 + 0x30] = a0\n 13419: a1 = s1 + 0x7ff\n 13423: a1 = a1 + 0x441\n 13427: a0 = u64 [s1 + 0x198]\n 13431: u64 [a3 + 0x28] = a0\n 13434: a0 = 0\n 13436: ra = 520, jump @24\n      : @524 [@dyn 260] (gas: 5)\n 13442: a0 = u64 [s1 + 0x158]\n 13446: a1 = s1 + 0x7ff\n 13450: a1 = a1 + 0x119\n 13454: a2 = a1 + 0x300\n 13458: t0 = 522, jump @1544\n      : @525 [@dyn 261] (gas: 4)\n 13464: a1 = a1 + 0x421\n 13468: a2 = u64 [s1 + 0x170]\n 13472: u64 [a3 + 0x308] = a2\n 13476: ra = 524, jump @24\n      : @526 [@dyn 262] (gas: 3)\n 13482: a1 = u64 [s1 + 0x188]\n 13486: a0 = i32 [a1]\n 13488: jump @528 if a0 >u 63\n      : @527 (gas: 2)\n 13492: u32 [a1 + 0] = 0x40\n 13495: fallthrough\n      : @528 (gas: 4)\n 13496: a0 = sp + 0xffffffffffffffe0\n 13499: a0 = a0 & 0xffffffffffffffe0\n 13502: u64 [s1 + 0x170] = a0\n 13506: t0 = 526, jump @1492\n      : @529 [@dyn 263] (gas: 5)\n 13512: ra = 0x210\n 13516: ecalli 8 // 'hash_keccak_256'\n 13518: a3 = u64 [s1 + 0x170]\n 13522: t0 = 0x212\n 13526: jump @1503\n      : @530 [@dyn 264] (gas: 2)\n 13529: a3 = u64 [s1 + 0x170]\n 13533: t0 = 530, jump @1503\n      : @531 [@dyn 265] (gas: 22)\n 13539: a4 = u64 [s1 + 0x180]\n 13543: u64 [a4 + 0x18] = a3\n 13546: u64 [a4 + 0x10] = a2\n 13549: u64 [a4 + 0x8] = a1\n 13552: u64 [a4] = a0\n 13554: a4 = a0 + 0x2\n 13557: a0 = a4 <u a0\n 13560: a5 = a1 + a0\n 13563: a1 = a5 <u a1\n 13566: a1 = a0 if a0 == 0\n 13569: a1 = a1 + a2\n 13572: a0 = a1 <u a2\n 13575: a0 = a0 + a3\n 13578: a2 = s1 + 0x2918\n 13582: u64 [a2 + 0xe8] = a4\n 13586: u64 [a2 + 0xf0] = a5\n 13590: u64 [a2 + 0xf8] = a1\n 13594: u64 [a2 + 0x100] = a0\n 13598: a0 = s1 + 0x7ff\n 13602: a0 = a0 + 0x401\n 13606: a1 = s1 + 0x2a00\n 13610: ra = 532, jump @26\n      : @532 [@dyn 266] (gas: 5)\n 13616: a0 = s1 + 0x7ff\n 13620: a0 = a0 + 0x119\n 13624: a0 = u64 [a0 + 0x2f0]\n 13628: a0 = a0 & 0xff\n 13632: jump @535 if a0 == 0\n      : @533 (gas: 2)\n 13635: a1 = u64 [s1 + 0x140]\n 13639: fallthrough\n      : @534 (gas: 5)\n 13640: a4 = 0\n 13642: a0 = u64 [s1 + 0x198]\n 13646: a0 = a0 + 0x1\n 13649: a3 = a0 & a1\n 13652: jump @513\n      : @535 (gas: 4)\n 13655: a0 = s1 + 0x7ff\n 13659: a0 = a0 + 0x3e1\n 13663: a1 = u64 [s1 + 0x180]\n 13667: ra = 534, jump @26\n      : @536 [@dyn 267] (gas: 13)\n 13673: a2 = s1 + 0x7ff\n 13677: a2 = a2 + 0x119\n 13681: a3 = a2 + 0x200\n 13685: a0 = u64 [a3 + 0xd0]\n 13689: a1 = u64 [a3 + 0xd8]\n 13693: a2 = u64 [a3 + 0xc8]\n 13697: a0 = a0 & 0xffffffffffffffff\n 13700: a1 = a1 & 0xffffffffffffffff\n 13703: a4 = u64 [s1 + 0x130]\n 13707: a2 = a2 & a4\n 13710: a1 = a1 | a2\n 13713: a0 = a0 | a1\n 13716: jump @533 if a0 == 0\n      : @537 (gas: 5)\n 13719: a0 = u64 [s1 + 0x148]\n 13723: ra = 0x218\n 13727: ecalli 4 // 'caller'\n 13729: t0 = 0x21a\n 13733: jump @1491\n      : @538 [@dyn 268] (gas: 1)\n 13736: t0 = 538, jump @1491\n      : @539 [@dyn 269] (gas: 9)\n 13742: u64 [a2 + 704] = 0\n 13746: a4 = a2 + 0x200\n 13750: u64 [a4 + 0xb8] = a1\n 13754: u64 [a4 + 0xb0] = a0\n 13758: a1 = s1 + 0x7ff\n 13762: a1 = a1 + 0x3c1\n 13766: u64 [a4 + 0xa8] = a3\n 13770: a0 = 0\n 13772: ra = 540, jump @24\n      : @540 [@dyn 270] (gas: 11)\n 13778: a0 = s1 + 0x7ff\n 13782: a0 = a0 + 0x119\n 13786: u64 [a0 + 672] = 0\n 13790: u64 [a0 + 664] = 0\n 13794: u64 [a0 + 656] = 0\n 13798: a3 = a0\n 13800: a0 = 0x20\n 13803: a1 = s1 + 0x7ff\n 13807: a1 = a1 + 0x3a1\n 13811: u64 [a3 + 648] = 0x4\n 13816: ra = 542, jump @24\n      : @541 [@dyn 271] (gas: 3)\n 13822: a1 = u64 [s1 + 0x188]\n 13826: a0 = i32 [a1]\n 13828: jump @543 if a0 >u 63\n      : @542 (gas: 2)\n 13832: u32 [a1 + 0] = 0x40\n 13835: fallthrough\n      : @543 (gas: 4)\n 13836: a0 = sp + 0xffffffffffffffe0\n 13839: a0 = a0 & 0xffffffffffffffe0\n 13842: u64 [s1 + 0x180] = a0\n 13846: t0 = 544, jump @1492\n      : @544 [@dyn 272] (gas: 5)\n 13852: ra = 0x222\n 13856: ecalli 8 // 'hash_keccak_256'\n 13858: a3 = u64 [s1 + 0x180]\n 13862: t0 = 0x224\n 13866: jump @1555\n      : @545 [@dyn 273] (gas: 2)\n 13869: a3 = u64 [s1 + 0x180]\n 13873: t0 = 548, jump @1555\n      : @546 [@dyn 274] (gas: 16)\n 13879: u64 [s1 + 0x170] = a0\n 13883: a0 = reverse a2\n 13885: u64 [s1 + 0x168] = a0\n 13889: a0 = reverse a3\n 13891: u64 [s1 + 0x160] = a0\n 13895: a2 = s1 + 0x7ff\n 13899: a2 = a2 + 0x119\n 13903: u64 [a2 + 640] = 0\n 13907: u64 [a2 + 632] = 0\n 13911: u64 [a2 + 624] = 0\n 13915: a1 = s1 + 0x7ff\n 13919: a1 = a1 + 0x381\n 13923: a0 = u64 [s1 + 0x120]\n 13927: u64 [a2 + 0x268] = a0\n 13931: a0 = 0\n 13933: ra = 550, jump @24\n      : @547 [@dyn 275] (gas: 16)\n 13939: a0 = u64 [s1 + 0x160]\n 13943: a1 = s1 + 0x7ff\n 13947: a1 = a1 + 0x119\n 13951: a2 = a1 + 0x200\n 13955: u64 [a2 + 0x60] = a0\n 13958: a0 = u64 [s1 + 0x168]\n 13962: u64 [a2 + 0x58] = a0\n 13965: a0 = u64 [s1 + 0x170]\n 13969: u64 [a2 + 0x50] = a0\n 13972: a3 = a1\n 13974: a0 = 0x20\n 13977: a1 = s1 + 0x7ff\n 13981: a1 = a1 + 0x361\n 13985: a2 = u64 [s1 + 0x180]\n 13989: u64 [a3 + 0x248] = a2\n 13993: ra = 552, jump @24\n      : @548 [@dyn 276] (gas: 3)\n 13999: a1 = u64 [s1 + 0x188]\n 14003: a0 = i32 [a1]\n 14005: jump @550 if a0 >u 63\n      : @549 (gas: 2)\n 14009: u32 [a1 + 0] = 0x40\n 14012: fallthrough\n      : @550 (gas: 4)\n 14013: a0 = sp + 0xffffffffffffffe0\n 14016: a0 = a0 & 0xffffffffffffffe0\n 14019: u64 [s1 + 0x180] = a0\n 14023: t0 = 554, jump @1492\n      : @551 [@dyn 277] (gas: 4)\n 14029: ra = 0x22c\n 14033: ecalli 8 // 'hash_keccak_256'\n 14035: t0 = 0x22e\n 14039: jump @1500\n      : @552 [@dyn 278] (gas: 1)\n 14042: t0 = 558, jump @1500\n      : @553 [@dyn 279] (gas: 10)\n 14048: a3 = a2 + 0x200\n 14052: u64 [a3 + 0x40] = a0\n 14055: u64 [a3 + 0x38] = a0\n 14058: u64 [a3 + 0x30] = a0\n 14061: a1 = s1 + 0x7ff\n 14065: a1 = a1 + 0x341\n 14069: a0 = u64 [s1 + 0x198]\n 14073: u64 [a3 + 0x28] = a0\n 14076: a0 = 0\n 14078: ra = 560, jump @24\n      : @554 [@dyn 280] (gas: 5)\n 14084: a0 = u64 [s1 + 0x158]\n 14088: a1 = s1 + 0x7ff\n 14092: a1 = a1 + 0x119\n 14096: a2 = a1 + 0x200\n 14100: t0 = 562, jump @1544\n      : @555 [@dyn 281] (gas: 4)\n 14106: a1 = a1 + 0x321\n 14110: a2 = u64 [s1 + 0x170]\n 14114: u64 [a3 + 0x208] = a2\n 14118: ra = 564, jump @24\n      : @556 [@dyn 282] (gas: 3)\n 14124: a1 = u64 [s1 + 0x188]\n 14128: a0 = i32 [a1]\n 14130: jump @558 if a0 >u 63\n      : @557 (gas: 2)\n 14134: u32 [a1 + 0] = 0x40\n 14137: fallthrough\n      : @558 (gas: 4)\n 14138: a0 = sp + 0xffffffffffffffe0\n 14141: a0 = a0 & 0xffffffffffffffe0\n 14144: u64 [s1 + 0x178] = a0\n 14148: t0 = 566, jump @1492\n      : @559 [@dyn 283] (gas: 5)\n 14154: ra = 0x238\n 14158: ecalli 8 // 'hash_keccak_256'\n 14160: a3 = u64 [s1 + 0x178]\n 14164: t0 = 0x23a\n 14168: jump @1519\n      : @560 [@dyn 284] (gas: 2)\n 14171: a3 = u64 [s1 + 0x178]\n 14175: t0 = 570, jump @1519\n      : @561 [@dyn 285] (gas: 3)\n 14181: a0 = s1 + 0x7ff\n 14185: a0 = a0 + 0x301\n 14189: ra = 572, jump @26\n      : @562 [@dyn 286] (gas: 5)\n 14195: a0 = s1 + 0x7ff\n 14199: a0 = a0 + 0x119\n 14203: a0 = u64 [a0 + 0x1e8]\n 14207: a0 = a0 & 0x1\n 14210: jump @533 if a0 != 0\n      : @563 (gas: 4)\n 14214: a0 = s1 + 0x7ff\n 14218: a0 = a0 + 0x2e1\n 14222: a1 = u64 [s1 + 0x128]\n 14226: ra = 574, jump @26\n      : @564 [@dyn 287] (gas: 17)\n 14232: a3 = s1 + 0x7ff\n 14236: a3 = a3 + 0x119\n 14240: a4 = a3 + 0x100\n 14244: a0 = u64 [a4 + 0xe0]\n 14248: a1 = u64 [a4 + 0xd8]\n 14252: a2 = u64 [a4 + 0xd0]\n 14256: t0 = u64 [a3 + 0x1c8]\n 14260: a4 = u64 [0x200a8]\n 14265: a5 = a0 >u 0\n 14267: a3 = a1 >u 0\n 14269: a3 = a5 if a0 != 0\n 14272: a4 = a4 <u t0\n 14275: a5 = a2 >u 0\n 14277: a5 = a4 if a2 == 0\n 14280: a4 = a1 | a0\n 14283: a5 = a3 if a4 != 0\n 14286: jump @566 if a5 != 0\n      : @565 (gas: 7)\n 14289: a2 = s1 + 0x100\n 14293: a0 = u64 [a2 + 0x10]\n 14296: a0 = a0 + 0x1\n 14299: a1 = u64 [a2 + 0x40]\n 14302: a0 = a0 & a1\n 14305: u64 [a2 + 0x10] = a0\n 14308: jump @534\n      : @566 (gas: 23)\n 14311: a3 = u64 [0x200b0]\n 14316: a3 = a3 + t0\n 14319: a4 = a3 <u t0\n 14322: a5 = a2 + a4\n 14325: a5 = a5 + 0xffffffffffffffff\n 14328: t0 = a5 ^ a2\n 14331: a2 = a5 <u a2\n 14334: a2 = a4 if t0 == 0\n 14337: a4 = a1 + 0xffffffffffffffff\n 14340: a2 = a2 + a4\n 14343: a4 = a2 <u a4\n 14346: a1 = a1 <u 0x1\n 14349: a0 = a0 - a1\n 14352: a0 = a0 + a4\n 14355: a1 = s1 + 0x2918\n 14359: a4 = a1 + 0x100\n 14363: u64 [a4 + 0x8] = a3\n 14366: u64 [a4 + 0x10] = a5\n 14369: u64 [a4 + 0x18] = a2\n 14372: u64 [a4 + 0x20] = a0\n 14375: a1 = s1 + 0x2a20\n 14379: a0 = u64 [s1 + 0x128]\n 14383: ra = 576, jump @28\n      : @567 [@dyn 288] (gas: 15)\n 14389: a0 = sp + 0xffffffffffffffe0\n 14392: a1 = a0 & 0xffffffffffffffe0\n 14395: u64 [s1 + 0x178] = a1\n 14399: sp = a1\n 14401: a0 = u64 [s1 + 0xf0]\n 14405: u64 [a1 + 0x18] = a0\n 14408: a0 = u64 [s1 + 0xf8]\n 14412: u64 [a1 + 0x10] = a0\n 14415: a0 = u64 [s1 + 0x100]\n 14419: u64 [a1 + 0x8] = a0\n 14422: a0 = u64 [s1 + 0x108]\n 14426: u64 [a1] = a0\n 14428: a0 = s1 + 0x7ff\n 14432: a0 = a0 + 0x2c1\n 14436: ra = 578, jump @26\n      : @568 [@dyn 289] (gas: 30)\n 14442: a0 = s1 + 0x7ff\n 14446: a0 = a0 + 0x119\n 14450: a0 = u64 [a0 + 0x1a8]\n 14454: a1 = u64 [0x200a0]\n 14459: a2 = s1 + 0x7ff\n 14463: a2 = a2 + 0x119\n 14467: a2 = u64 [a2 + 0x1c0]\n 14471: a3 = s1 + 0x7ff\n 14475: a3 = a3 + 0x119\n 14479: a3 = u64 [a3 + 0x1b0]\n 14483: a4 = s1 + 0x7ff\n 14487: a4 = a4 + 0x119\n 14491: a4 = u64 [a4 + 0x1b8]\n 14495: a1 = a1 + a0\n 14498: a0 = a1 <u a0\n 14501: a5 = a3 + a0\n 14504: a3 = a5 <u a3\n 14507: a3 = a0 if a0 == 0\n 14510: a3 = a3 + a4\n 14513: a0 = a3 <u a4\n 14516: a0 = a0 + a2\n 14519: a2 = s1 + 0x2918\n 14523: a4 = a2 + 0x100\n 14527: u64 [a4 + 0x28] = a1\n 14530: u64 [a4 + 0x30] = a5\n 14533: u64 [a4 + 0x38] = a3\n 14536: u64 [a4 + 0x40] = a0\n 14539: a1 = s1 + 0x2a40\n 14543: a0 = u64 [s1 + 0x178]\n 14547: ra = 580, jump @28\n      : @569 [@dyn 290] (gas: 9)\n 14553: a0 = u64 [s1 + 0x118]\n 14557: a0 = a0 + 0x1\n 14560: a1 = u64 [s1 + 0x140]\n 14564: a0 = a0 & a1\n 14567: u64 [s1 + 0x118] = a0\n 14571: a0 = s1 + 0x7ff\n 14575: a0 = a0 + 0x2a1\n 14579: a1 = u64 [s1 + 0x180]\n 14583: ra = 582, jump @26\n      : @570 [@dyn 291] (gas: 9)\n 14589: a0 = s1 + 0x7ff\n 14593: a0 = a0 + 0x119\n 14597: a0 = u64 [a0 + 0x188]\n 14601: a0 = a0 & 0xfe\n 14605: u64 [s1 + 0x178] = a0\n 14609: a0 = s1 + 0x7ff\n 14613: a0 = a0 + 0x281\n 14617: a1 = u64 [s1 + 0x180]\n 14621: ra = 584, jump @26\n      : @571 [@dyn 292] (gas: 25)\n 14627: a0 = s1 + 0x7ff\n 14631: a0 = a0 + 0x119\n 14635: a0 = u64 [a0 + 0x168]\n 14639: a1 = s1 + 0x7ff\n 14643: a1 = a1 + 0x119\n 14647: a1 = u64 [a1 + 0x170]\n 14651: a2 = s1 + 0x7ff\n 14655: a2 = a2 + 0x119\n 14659: a2 = u64 [a2 + 0x178]\n 14663: a3 = s1 + 0x7ff\n 14667: a3 = a3 + 0x119\n 14671: a3 = u64 [a3 + 0x180]\n 14675: a0 = a0 & 0xffffffffffffff00\n 14679: a4 = u64 [s1 + 0x178]\n 14683: a0 = a0 | a4\n 14686: a0 = a0 + 0x1\n 14689: a4 = s1 + 0x2918\n 14693: a5 = a4 + 0x100\n 14697: u64 [a5 + 0x60] = a3\n 14700: u64 [a5 + 0x58] = a2\n 14703: u64 [a5 + 0x50] = a1\n 14706: u64 [a5 + 0x48] = a0\n 14709: a1 = s1 + 0x2a60\n 14713: a0 = u64 [s1 + 0x180]\n 14717: ra = 586, jump @28\n      : @572 [@dyn 293] (gas: 1)\n 14723: jump @533\n      : @573 (gas: 4)\n 14726: a0 = s1 + 0x7ff\n 14730: a0 = a0 + 0x261\n 14734: a1 = 0x40\n 14737: ra = 588, jump @22\n      : @574 [@dyn 294] (gas: 15)\n 14743: a2 = s1 + 0x7ff\n 14747: a2 = a2 + 0x119\n 14751: t0 = u64 [a2 + 0x160]\n 14755: a0 = a2 + 0x100\n 14759: a5 = u64 [a0 + 0x58]\n 14762: a4 = u64 [a0 + 0x50]\n 14765: a3 = u64 [a0 + 0x48]\n 14768: a0 = a4 | t0\n 14771: a1 = a3 | a5\n 14774: a1 = a1 | a0\n 14777: a1 = a1 >> 0x20\n 14780: a0 = a0 | a5\n 14783: a0 = a0 << 0x20\n 14786: a0 = a0 | a1\n 14789: jump @576 if a0 == 0\n      : @575 (gas: 1)\n 14792: jump @775\n      : @576 (gas: 15)\n 14795: a0 = u64 [s1 + 0x118]\n 14799: a1 = u64 [s1 + 0x140]\n 14803: a0 = a0 & a1\n 14806: u64 [a2 + 320] = 0\n 14810: u64 [a2 + 312] = 0\n 14814: u64 [a2 + 304] = 0\n 14818: a1 = s1 + 0x7ff\n 14822: a1 = a1 + 0x241\n 14826: u64 [a2 + 0x128] = a0\n 14830: a0 = a3\n 14832: u64 [s1 + 0x198] = a3\n 14836: u64 [s1 + 0x188] = a4\n 14840: u64 [s1 + 0x178] = t0\n 14844: u64 [s1 + 0x180] = a5\n 14848: ra = 590, jump @24\n      : @577 [@dyn 295] (gas: 11)\n 14854: a4 = s1 + 0x100\n 14858: a2 = u64 [a4 + 0x98]\n 14862: a0 = u64 [a4 + 0x80]\n 14866: a1 = u64 [a4 + 0x78]\n 14869: a0 = a0 | a1\n 14872: a1 = 0xffffffe0\n 14882: a1 = a2 <u a1\n 14885: a3 = u64 [a4 + 0x88]\n 14889: a1 = 0 if a3 != 0\n 14891: a1 = 0 if a0 != 0\n 14893: jump @579 if a1 != 0\n      : @578 (gas: 1)\n 14896: jump @775\n      : @579 (gas: 13)\n 14899: a0 = u64 [s1 + 0x110]\n 14903: a1 = u64 [s1 + 0x140]\n 14907: a1 = a1 & a0\n 14910: i32 a0 = a2 + 0x20\n 14913: a3 = s1 + 0x7ff\n 14917: a3 = a3 + 0x119\n 14921: u64 [a3 + 288] = 0\n 14925: u64 [a3 + 280] = 0\n 14929: u64 [a3 + 0x108] = a1\n 14933: a1 = s1 + 0x7ff\n 14937: a1 = a1 + 0x221\n 14941: u64 [a3 + 272] = 0\n 14945: ra = 592, jump @24\n      : @580 [@dyn 296] (gas: 6)\n 14951: a0 = u64 [s1 + 0x148]\n 14955: ra = 0x252\n 14959: ecalli 4 // 'caller'\n 14961: a2 = u64 [s1 + 0x150]\n 14965: t0 = 0x254\n 14969: jump @1494\n      : @581 [@dyn 297] (gas: 2)\n 14972: a2 = u64 [s1 + 0x150]\n 14976: t0 = 596, jump @1494\n      : @582 [@dyn 298] (gas: 36)\n 14982: t0 = a1 | a0\n 14985: a3 = a3 >> 0x20\n 14988: a2 = reverse a2\n 14990: a1 = a2 << 0x20\n 14993: t1 = a1 | a3\n 14996: a2 = a2 >> 0x20\n 14999: a3 = u64 [0x200b8]\n 15004: a4 = u64 [0x200c0]\n 15009: a5 = u64 [0x200c8]\n 15014: a0 = u64 [s1 + 0x120]\n 15018: a1 = s1 + 0x7ff\n 15022: a1 = a1 + 0x119\n 15026: u64 [a1 + 0xa8] = a0\n 15030: u64 [a1 + 0x100] = a3\n 15034: u64 [a1 + 0xf8] = a4\n 15038: u64 [a1 + 0xf0] = a5\n 15042: a3 = u64 [0x200d0]\n 15047: u64 [a1 + 192] = 0\n 15051: u64 [a1 + 184] = 0\n 15055: u64 [a1 + 176] = 0\n 15059: u64 [a1 + 0xe8] = a3\n 15063: u64 [a1 + 0xd8] = a2\n 15067: u64 [a1 + 0xd0] = t1\n 15071: u64 [a1 + 0xc8] = t0\n 15075: a0 = a1\n 15077: a1 = 0x40\n 15080: a2 = s1 + 0x7ff\n 15084: a2 = a2 + 0x201\n 15088: a3 = s1 + 0x7ff\n 15092: a3 = a3 + 0x1e1\n 15096: a4 = s1 + 0x7ff\n 15100: a4 = a4 + 0x1c1\n 15104: u64 [a0 + 224] = 0\n 15108: a0 = u64 [s1 + 0x198]\n 15112: ra = 0x470\n 15116: jump @31\n      : @583 (gas: 24)\n 15119: u64 [s1 + 0xb8] = a3\n 15123: a0 = a0 <u a1\n 15126: a1 = u64 [s1 + 0x100]\n 15130: a2 = a1 + a0\n 15133: u64 [s1 + 0x128] = a2\n 15137: a1 = a2 <u a1\n 15140: a1 = a0 if a0 == 0\n 15143: a1 = a1 + a4\n 15146: u64 [s1 + 0x120] = a1\n 15150: a0 = a1 <u a4\n 15153: u64 [s1 + 0x188] = a0\n 15157: a0 = s1 + 0x1118\n 15161: a1 = u64 [s1 + 0x178]\n 15165: a3 = a0 + 0x400\n 15169: u64 [a3 + 0x68] = a1\n 15172: a1 = u64 [s1 + 0x170]\n 15176: u64 [a3 + 0x70] = a1\n 15179: a1 = u64 [s1 + 0x168]\n 15183: u64 [a3 + 0x78] = a1\n 15186: a1 = s1 + 0x1580\n 15190: a2 = u64 [s1 + 0x180]\n 15194: u64 [a3 + 0x80] = a2\n 15198: a0 = 0\n 15200: ra = 598, jump @24\n      : @584 [@dyn 299] (gas: 7)\n 15206: a0 = sp + 0xffffffffffffffe0\n 15209: a0 = a0 & 0xffffffffffffffe0\n 15212: u64 [s1 + 0x130] = a0\n 15216: sp = a0\n 15218: a2 = u64 [s1 + 0x198]\n 15222: a0 = i32 [a2]\n 15224: jump @586 if a0 >u 31\n      : @585 (gas: 2)\n 15228: u32 [a2 + 0] = 0x20\n 15231: fallthrough\n      : @586 (gas: 14)\n 15232: a0 = u64 [s1 + 0x110]\n 15236: a1 = u64 [s1 + 0x188]\n 15240: a0 = a0 + a1\n 15243: u64 [s1 + 0x118] = a0\n 15247: a0 = sp + 0xffffffffffffffe0\n 15250: a0 = a0 & 0xffffffffffffffe0\n 15253: u64 [s1 + 0x188] = a0\n 15257: sp = a0\n 15259: i32 a2 = a0 + 0\n 15261: a1 = 0x20\n 15264: a0 = u64 [s1 + 0x190]\n 15268: ra = 0x258\n 15272: ecalli 8 // 'hash_keccak_256'\n 15274: fallthrough\n      : @587 [@dyn 300] (gas: 5)\n 15275: u64 [s1 + 408] = 0\n 15279: t2 = 0\n 15281: t1 = 0\n 15283: u64 [s1 + 400] = 0\n 15287: t0 = 602, jump @1554\n      : @588 [@dyn 301] (gas: 12)\n 15293: a5 = reverse a2\n 15295: a2 = reverse a3\n 15297: a1 = u64 [s1 + 0x130]\n 15301: a3 = a2\n 15303: u64 [a1 + 0x18] = a2\n 15306: u64 [s1 + 0x160] = a5\n 15310: u64 [a1 + 0x10] = a5\n 15313: ra = a4\n 15315: u64 [a1 + 0x8] = a4\n 15318: a2 = a0\n 15320: u64 [a1] = a0\n 15322: fallthrough\n      : @589 (gas: 22)\n 15323: a4 = s1 + 0x100\n 15327: u64 [a4 + 0x68] = a3\n 15330: u64 [s1 + 0x170] = ra\n 15334: u64 [a4 + 0x78] = a2\n 15337: a0 = u64 [a4 + 0x40]\n 15340: a2 = u64 [a4 + 0x98]\n 15344: a0 = a2 <u a0\n 15347: a2 = u64 [a4 + 0x50]\n 15350: a3 = t2 ^ a2\n 15353: a2 = t2 <u a2\n 15356: a2 = a0 if a3 == 0\n 15359: a0 = u64 [a4 + 0x48]\n 15362: t0 = t1 <u a0\n 15365: a3 = u64 [a4 + 0x58]\n 15368: a5 = u64 [a4 + 0x90]\n 15372: a4 = a5 ^ a3\n 15375: a3 = a5 <u a3\n 15378: a3 = t0 if a4 == 0\n 15381: a0 = t1 ^ a0\n 15384: a0 = a0 | a4\n 15387: a3 = a2 if a0 == 0\n 15390: jump @677 if a3 == 0\n      : @590 (gas: 4)\n 15394: a0 = s1 + 0x1560\n 15398: u64 [s1 + 0x188] = t1\n 15402: u64 [s1 + 0x180] = t2\n 15406: ra = 604, jump @26\n      : @591 [@dyn 302] (gas: 30)\n 15412: ra = u64 [s1 + 0x198]\n 15416: t2 = u64 [s1 + 0x180]\n 15420: t1 = u64 [s1 + 0x188]\n 15424: a1 = u64 [s1 + 0x138]\n 15428: a0 = a1 + ra\n 15431: a1 = a0 <u a1\n 15434: a4 = u64 [s1 + 0x128]\n 15438: a2 = a4 + t2\n 15441: a2 = a2 + a1\n 15444: a3 = a2 ^ a4\n 15447: a4 = a2 <u a4\n 15450: a4 = a1 if a3 == 0\n 15453: a3 = u64 [s1 + 0x120]\n 15457: a1 = a3 + t1\n 15460: t0 = a1 <u a3\n 15463: a5 = u64 [s1 + 0x118]\n 15467: a3 = u64 [s1 + 0x190]\n 15471: a5 = a5 + a3\n 15474: a3 = a5 + t0\n 15477: a4 = a4 + a1\n 15480: a1 = a4 <u a1\n 15483: a1 = a1 + a3\n 15486: a1 = a1 | a2\n 15489: a2 = a0 | a4\n 15492: a2 = a2 | a1\n 15495: a1 = a1 | a4\n 15498: a2 = a2 >> 0x20\n 15501: a1 = a1 << 0x20\n 15504: a1 = a1 | a2\n 15507: jump @593 if a1 == 0\n      : @592 (gas: 1)\n 15510: jump @775\n      : @593 (gas: 13)\n 15513: a5 = s1 + 0x1118\n 15517: a2 = u64 [a5 + 0x460]\n 15521: a1 = u64 [a5 + 0x458]\n 15525: a3 = u64 [a5 + 0x450]\n 15529: a4 = u64 [a5 + 0x448]\n 15533: u64 [a5 + 0x428] = a4\n 15537: a4 = a5 + 0x400\n 15541: u64 [a4 + 0x30] = a3\n 15544: u64 [a4 + 0x38] = a1\n 15547: a1 = s1 + 0x1540\n 15551: u64 [a4 + 0x40] = a2\n 15554: u64 [s1 + 0x198] = ra\n 15558: ra = 606, jump @24\n      : @594 [@dyn 303] (gas: 38)\n 15564: a5 = u64 [s1 + 0x178]\n 15568: a5 = a5 + 0x1\n 15571: a0 = a5 <u 0x1\n 15574: a3 = u64 [s1 + 0x170]\n 15578: a3 = a3 + a0\n 15581: a0 = a5 | a3\n 15584: a0 = a0 <u 0x1\n 15587: a1 = u64 [s1 + 0x160]\n 15591: t2 = a1 + a0\n 15594: a1 = t2 <u a1\n 15597: a0 = u64 [s1 + 0x168]\n 15601: a0 = a0 + a1\n 15604: a1 = u64 [s1 + 0x198]\n 15608: t1 = a1 + 0x20\n 15611: a2 = t1 <u a1\n 15614: a1 = u64 [s1 + 0x180]\n 15618: t0 = a1 + a2\n 15621: a4 = t0 <u a1\n 15624: a4 = a2 if a2 == 0\n 15627: a1 = u64 [s1 + 0x188]\n 15631: a4 = a4 + a1\n 15634: a2 = a4 <u a1\n 15637: a1 = u64 [s1 + 0x190]\n 15641: a1 = a1 + a2\n 15644: u64 [s1 + 0x190] = a1\n 15648: ra = a3\n 15650: a1 = u64 [s1 + 0x130]\n 15654: u64 [a1 + 0x8] = a3\n 15657: a2 = a5\n 15659: u64 [a1] = a5\n 15661: u64 [a1 + 0x10] = t2\n 15664: a3 = a0\n 15666: u64 [a1 + 0x18] = a0\n 15669: u64 [s1 + 0x160] = t2\n 15673: u64 [s1 + 0x198] = t1\n 15677: t2 = t0\n 15679: t1 = a4\n 15681: jump @589\n      : @595 (gas: 1)\n 15684: t0 = 608, jump @1543\n      : @596 [@dyn 304] (gas: 12)\n 15690: t0 = u64 [s1 + 0x168]\n 15694: a3 = a0 if t0 != 0\n 15697: u64 [s1 + 0x198] = a3\n 15701: a0 = u64 [s1 + 0x160]\n 15705: a2 = u64 [s1 + 0x130]\n 15709: a0 = a0 | a2\n 15712: a2 = u64 [s1 + 0x118]\n 15716: a0 = a2 if a4 == 0\n 15719: a5 = u64 [s1 + 0x150]\n 15723: a3 = a5\n 15725: a3 = a0 if t0 != 0\n 15728: t0 = 610, jump @1522\n      : @597 [@dyn 305] (gas: 1)\n 15734: ra = 612, jump @1574\n      : @598 [@dyn 306] (gas: 6)\n 15740: u64 [s1 + 0x130] = a0\n 15744: u64 [s1 + 0x118] = a1\n 15748: a0 = u64 [s1 + 0x158]\n 15752: a1 = u64 [s1 + 0x148]\n 15756: a2 = u64 [s1 + 0x190]\n 15760: ra = 614, jump @1574\n      : @599 [@dyn 307] (gas: 1)\n 15766: t0 = 616, jump @1531\n      : @600 [@dyn 308] (gas: 1)\n 15772: ra = 618, jump @1579\n      : @601 [@dyn 309] (gas: 1)\n 15778: t0 = 620, jump @1537\n      : @602 [@dyn 310] (gas: 14)\n 15784: a2 = u64 [s1 + 0x148]\n 15788: a2 = a1 if a3 != 0\n 15791: u64 [s1 + 0x148] = a2\n 15795: a1 = u64 [s1 + 0x110]\n 15799: a0 = a0 | a1\n 15802: a1 = u64 [s1 + 0x130]\n 15806: a0 = a1 if a4 == 0\n 15809: a1 = u64 [s1 + 0x158]\n 15813: a1 = a0 if a3 != 0\n 15816: a2 = a3\n 15818: u64 [s1 + 0x158] = a1\n 15822: a0 = u64 [s1 + 0x150]\n 15826: a1 = u64 [s1 + 0x140]\n 15830: ra = 622, jump @1574\n      : @603 [@dyn 311] (gas: 1)\n 15836: t0 = 624, jump @1515\n      : @604 [@dyn 312] (gas: 3)\n 15842: t1 = u64 [s1 + 0x148]\n 15846: t2 = u64 [s1 + 0x158]\n 15850: fallthrough\n      : @605 (gas: 68)\n 15851: u64 [s1 + 0x158] = a4\n 15855: a2 = t2 >> 0x3f\n 15858: a3 = t1 << 0x1\n 15861: t0 = a3 | a2\n 15864: a3 = t2 << 0x1\n 15867: a4 = u64 [s1 + 0x198]\n 15871: a4 = a4 >> 0x3f\n 15874: a3 = a3 | a4\n 15877: u64 [s1 + 0x148] = a3\n 15881: a2 = u64 [s1 + 0x128]\n 15885: t2 = a1\n 15887: u64 [s1 + 0x150] = t0\n 15891: a1 = a2 ^ t0\n 15894: ra = t1\n 15896: t1 = a2 <u t0\n 15899: a4 = u64 [s1 + 0x130]\n 15903: t0 = a4 <u a3\n 15906: t0 = t1 if a1 != 0\n 15909: a1 = t2 << 0x1\n 15912: a3 = a0 >> 0x3f\n 15915: a1 = a1 | a3\n 15918: u64 [s1 + 0x140] = a1\n 15922: a3 = ra >> 0x3f\n 15925: a0 = a0 << 0x1\n 15928: a3 = a3 | a0\n 15931: a0 = u64 [s1 + 0x198]\n 15935: a0 = a0 << 0x1\n 15938: a4 = u64 [s1 + 0x160]\n 15942: a1 = a4 >> 0x3f\n 15945: ra = a0 | a1\n 15948: a1 = a4 << 0x1\n 15951: a4 = u64 [s1 + 0x168]\n 15955: t1 = a4 >> 0x3f\n 15958: t1 = a1 | t1\n 15961: a1 = a4 << 0x1\n 15964: a4 = u64 [s1 + 0x188]\n 15968: t2 = a4 >> 0x3f\n 15971: a1 = a1 | t2\n 15974: a4 = a4 << 0x1\n 15977: a0 = u64 [s1 + 0x158]\n 15981: a4 = a4 | a0\n 15984: u64 [s1 + 0x188] = a4\n 15988: a1 = a1 | a5\n 15991: u64 [s1 + 0x168] = a1\n 15995: a1 = a5 | t1\n 15998: u64 [s1 + 0x160] = a1\n 16002: a0 = a5 | ra\n 16005: u64 [s1 + 0x198] = a0\n 16009: a0 = a2 - a3\n 16012: a0 = a0 <u t0\n 16015: a1 = a2 <u a3\n 16018: t0 = u64 [s1 + 0x140]\n 16022: a4 = a2 - t0\n 16025: a4 = a4 - a1\n 16028: a4 = a4 - a0\n 16031: a5 = a4 >>a 0x3f\n 16034: a0 = u64 [s1 + 0x138]\n 16038: a0 = a0 & a5\n 16041: a1 = u64 [s1 + 0x148]\n 16045: t2 = a1 - a0\n 16048: a1 = a1 <u a0\n 16051: a0 = u64 [s1 + 0x150]\n 16055: t1 = a0 - a1\n 16058: a1 = 0 if a0 != 0\n 16060: a0 = a3 - a1\n 16063: a1 = a3 <u a1\n 16066: a1 = t0 - a1\n 16069: t0 = 626, jump @1565\n      : @606 [@dyn 313] (gas: 17)\n 16075: t0 = a4 <u a2\n 16078: a2 = a4 - a2\n 16081: a4 = a3 <u 0x1\n 16084: ra = ra - a4\n 16087: a4 = u64 [s1 + 0x178]\n 16091: a4 = a4 - t0\n 16094: a3 = a3 + 0xffffffffffffffff\n 16097: u64 [s1 + 0x180] = ra\n 16101: u64 [s1 + 0x178] = a4\n 16105: t0 = ra | a4\n 16108: u64 [s1 + 0x190] = a3\n 16112: a4 = a3 | a2\n 16115: a3 = a4 | t0\n 16118: a4 = a5 & 0x1\n 16121: u64 [s1 + 0x170] = a2\n 16125: a5 = 0\n 16127: jump @605 if a3 != 0\n      : @607 (gas: 4)\n 16131: a0 = u64 [s1 + 0x188]\n 16135: a0 = a0 << 0x1\n 16138: a4 = a4 | a0\n 16141: fallthrough\n      : @608 (gas: 4)\n 16142: u64 [s1 + 0x170] = a4\n 16146: a0 = s1 + 0x24a0\n 16150: a1 = 0x40\n 16153: ra = 628, jump @22\n      : @609 [@dyn 314] (gas: 17)\n 16159: t0 = s1 + 0x2118\n 16163: t1 = u64 [t0 + 0x3a0]\n 16167: a0 = t0 + 0x300\n 16171: a5 = u64 [a0 + 0x98]\n 16175: a3 = u64 [a0 + 0x90]\n 16179: a4 = u64 [a0 + 0x88]\n 16183: a0 = t1 >u 0\n 16185: a1 = a5 >u 0\n 16187: a1 = a0 if t1 != 0\n 16190: a0 = a3 >u 0\n 16192: a2 = a4 <u 0xffffffffffffff60\n 16196: a2 = a2 ^ 0x1\n 16199: a2 = a0 if a3 != 0\n 16202: a0 = a5 | t1\n 16205: u64 [s1 + 0x178] = a0\n 16209: a2 = a1 if a0 != 0\n 16212: jump @611 if a2 == 0\n      : @610 (gas: 1)\n 16215: jump @846\n      : @611 (gas: 20)\n 16218: a0 = a4 + 0xa0\n 16222: a1 = a0 <u a4\n 16225: a2 = a3 + a1\n 16228: u64 [s1 + 0x198] = a3\n 16232: a3 = u64 [s1 + 0x198]\n 16236: a3 = a2 <u a3\n 16239: a3 = a1 if a1 == 0\n 16242: a3 = a3 + a5\n 16245: a1 = a3 <u a5\n 16248: u64 [s1 + 0x190] = a4\n 16252: a4 = t1 + a1\n 16255: u64 [t0 + 0x368] = a0\n 16259: u64 [t0 + 0x370] = a2\n 16263: u64 [t0 + 0x378] = a3\n 16267: a0 = 0x40\n 16270: a1 = s1 + 0x2480\n 16274: u64 [t0 + 0x380] = a4\n 16278: u64 [s1 + 0x180] = a5\n 16282: u64 [s1 + 0x188] = t1\n 16286: ra = 630, jump @24\n      : @612 [@dyn 315] (gas: 13)\n 16292: a5 = s1 + 0x100\n 16296: a2 = u64 [a5 + 0x90]\n 16300: a3 = u64 [a5 + 0x80]\n 16304: a0 = a2 | a3\n 16307: a1 = u64 [a5 + 0x98]\n 16311: a4 = u64 [a5 + 0x88]\n 16315: a1 = a1 | a4\n 16318: a0 = a0 | a1\n 16321: a0 = a0 >> 0x20\n 16324: a1 = a1 | a3\n 16327: a1 = a1 << 0x20\n 16330: a0 = a0 | a1\n 16333: jump @614 if a0 == 0\n      : @613 (gas: 1)\n 16336: jump @775\n      : @614 (gas: 12)\n 16339: a3 = s1 + 0x2118\n 16343: u64 [a3 + 864] = 0\n 16347: a0 = u64 [s1 + 0x100]\n 16351: a4 = a3 + 0x300\n 16355: u64 [a4 + 0x48] = a0\n 16358: a0 = u64 [s1 + 0xf8]\n 16362: u64 [a4 + 0x50] = a0\n 16365: a1 = s1 + 0x2460\n 16369: a0 = u64 [s1 + 0x108]\n 16373: u64 [a4 + 0x58] = a0\n 16376: a0 = a2\n 16378: ra = 632, jump @24\n      : @615 [@dyn 316] (gas: 3)\n 16384: a0 = u64 [s1 + 0xc8]\n 16388: ecalli 4 // 'caller'\n 16390: fallthrough\n      : @616 (gas: 9)\n 16391: a2 = s1 + 0x100\n 16395: a4 = u64 [a2 + 0x90]\n 16399: a0 = 0xffffffe0\n 16409: a0 = a4 <u a0\n 16412: a1 = u64 [a2 + 0x98]\n 16416: a0 = 0 if a1 != 0\n 16418: a1 = u64 [a2 + 0x78]\n 16421: a0 = 0 if a1 != 0\n 16423: jump @618 if a0 != 0\n      : @617 (gas: 1)\n 16426: jump @775\n      : @618 (gas: 24)\n 16429: a2 = u64 [s1 + 0xe8]\n 16433: a0 = u64 [a2 + 0x8]\n 16436: a1 = i32 [a2 + 0x10]\n 16439: a2 = u64 [a2]\n 16441: a0 = reverse a0\n 16443: a3 = a0 << 0x20\n 16446: a1 = reverse a1\n 16448: a1 = a1 >> 0x20\n 16451: a3 = a3 | a1\n 16454: a0 = a0 >> 0x20\n 16457: a1 = reverse a2\n 16459: a2 = a1 << 0x20\n 16462: a2 = a2 | a0\n 16465: a1 = a1 >> 0x20\n 16468: i32 a0 = a4 + 0x20\n 16471: a4 = s1 + 0x2118\n 16475: u64 [a4 + 832] = 0\n 16479: a5 = a4 + 0x300\n 16483: u64 [a5 + 0x38] = a1\n 16486: u64 [a5 + 0x30] = a2\n 16489: a1 = s1 + 0x2440\n 16493: u64 [a5 + 0x28] = a3\n 16496: u64 [s1 + 0x138] = a0\n 16500: ra = 634, jump @24\n      : @619 [@dyn 317] (gas: 13)\n 16506: a0 = u64 [s1 + 0xf0]\n 16510: a3 = s1 + 0x2118\n 16514: u64 [a3 + 0x300] = a0\n 16518: a0 = u64 [s1 + 0xb8]\n 16522: a4 = a3 + 0x200\n 16526: u64 [a4 + 0xf8] = a0\n 16530: a0 = u64 [s1 + 0xb0]\n 16534: u64 [a4 + 0xf0] = a0\n 16538: a0 = s1 + 0x2420\n 16542: a1 = s1 + 0x2400\n 16546: a2 = u64 [s1 + 0xc0]\n 16550: u64 [a4 + 0xe8] = a2\n 16554: ra = 636, jump @1460\n      : @620 [@dyn 318] (gas: 13)\n 16560: a0 = s1 + 0x2118\n 16564: a2 = a0 + 0x300\n 16568: a1 = u64 [a2 + 0x8]\n 16571: u64 [s1 + 0x158] = a1\n 16575: a1 = u64 [a2 + 0x10]\n 16578: u64 [s1 + 0x150] = a1\n 16582: a1 = u64 [a2 + 0x18]\n 16585: u64 [s1 + 0x148] = a1\n 16589: a1 = u64 [a2 + 0x20]\n 16592: u64 [s1 + 0x140] = a1\n 16596: a0 = s1 + 0x23e0\n 16600: a1 = 0x40\n 16603: ra = 638, jump @22\n      : @621 [@dyn 319] (gas: 26)\n 16609: a0 = s1 + 0x2118\n 16613: a3 = u64 [a0 + 0x2e0]\n 16617: u64 [s1 + 0x188] = a3\n 16621: a1 = u64 [a0 + 0x2d8]\n 16625: u64 [s1 + 0x180] = a1\n 16629: a5 = u64 [a0 + 0x2d0]\n 16633: u64 [s1 + 0x168] = a5\n 16637: a4 = u64 [a0 + 0x2c8]\n 16641: u64 [s1 + 0x160] = a4\n 16645: a2 = u64 [s1 + 0x140]\n 16649: u64 [a0 + 0x2a0] = a2\n 16653: a2 = u64 [s1 + 0x148]\n 16657: u64 [a0 + 0x298] = a2\n 16661: a2 = u64 [s1 + 0x150]\n 16665: u64 [a0 + 0x290] = a2\n 16669: a2 = u64 [s1 + 0x158]\n 16673: u64 [a0 + 0x288] = a2\n 16677: a2 = a0 + 0x200\n 16681: u64 [a2 + 0xc0] = a3\n 16685: u64 [a2 + 0xb8] = a1\n 16689: u64 [a2 + 0xb0] = a5\n 16693: a2 = a0\n 16695: a0 = s1 + 0x23c0\n 16699: a1 = s1 + 0x23a0\n 16703: u64 [a2 + 0x2a8] = a4\n 16707: ra = 640, jump @1342\n      : @622 [@dyn 320] (gas: 14)\n 16713: a2 = s1 + 0x100\n 16717: a1 = u64 [a2 + 0x68]\n 16720: a0 = u64 [a2 + 0x88]\n 16724: a0 = a0 | a1\n 16727: a1 = u64 [a2 + 0x60]\n 16730: a5 = a1\n 16732: a4 = u64 [a2 + 0x80]\n 16736: a1 = a1 | a4\n 16739: a1 = a1 | a0\n 16742: a1 = a1 >> 0x20\n 16745: a0 = a0 | a4\n 16748: a0 = a0 << 0x20\n 16751: a0 = a0 | a1\n 16754: jump @624 if a0 == 0\n      : @623 (gas: 1)\n 16757: jump @775\n      : @624 (gas: 13)\n 16760: a0 = s1 + 0x2118\n 16764: a1 = u64 [s1 + 0xc0]\n 16768: a2 = a0 + 0x200\n 16772: u64 [a2 + 0x68] = a1\n 16775: a1 = u64 [s1 + 0xb0]\n 16779: u64 [a2 + 0x70] = a1\n 16782: a1 = u64 [s1 + 0xb8]\n 16786: u64 [a2 + 0x78] = a1\n 16789: a1 = s1 + 0x2380\n 16793: a4 = u64 [s1 + 0xf0]\n 16797: u64 [a2 + 0x80] = a4\n 16801: a0 = a5\n 16803: ra = 642, jump @24\n      : @625 [@dyn 321] (gas: 10)\n 16809: a0 = u64 [s1 + 0x188]\n 16813: a3 = u64 [s1 + 0x180]\n 16817: a0 = a0 | a3\n 16820: a4 = 0xffffffe0\n 16830: a5 = u64 [s1 + 0x160]\n 16834: a1 = a5 <u a4\n 16837: a2 = u64 [s1 + 0x168]\n 16841: a1 = 0 if a2 != 0\n 16843: a1 = 0 if a0 != 0\n 16845: jump @627 if a1 != 0\n      : @626 (gas: 1)\n 16848: jump @775\n      : @627 (gas: 8)\n 16851: a0 = i32 [s1 + 0x120]\n 16855: u64 [s1 + 0x88] = a0\n 16859: a1 = u64 [s1 + 0xc0]\n 16863: i32 a0 = a1 + 0\n 16865: u64 [s1 + 0x90] = a0\n 16869: i32 a0 = a5 + 0x20\n 16872: u64 [s1 + 0x158] = a4\n 16876: ra = 644, jump @37\n      : @628 [@dyn 322] (gas: 5)\n 16882: i32 a0 = a0 + 0\n 16884: a1 = u64 [s1 + 0x90]\n 16888: a2 = u64 [s1 + 0x88]\n 16892: ecalli 1 // 'call_data_copy'\n 16894: fallthrough\n      : @629 (gas: 28)\n 16895: a4 = u64 [s1 + 0x168]\n 16899: t0 = u64 [s1 + 0xc0]\n 16903: a0 = u64 [s1 + 0x160]\n 16907: t0 = t0 + a0\n 16910: a1 = t0 <u a0\n 16913: a2 = u64 [s1 + 0xb0]\n 16917: a2 = a2 + a4\n 16920: a2 = a2 + a1\n 16923: a3 = a2 ^ a4\n 16926: a4 = a2 <u a4\n 16929: a4 = a1 if a3 == 0\n 16932: a1 = u64 [s1 + 0xb8]\n 16936: a0 = u64 [s1 + 0x180]\n 16940: a1 = a1 + a0\n 16943: a3 = a1 <u a0\n 16946: a5 = u64 [s1 + 0x188]\n 16950: a0 = u64 [s1 + 0xf0]\n 16954: a5 = a5 + a0\n 16957: a3 = a3 + a5\n 16960: a4 = a4 + a1\n 16963: a1 = a4 <u a1\n 16966: a1 = a1 + a3\n 16969: a1 = a1 | a4\n 16972: a0 = u64 [s1 + 0x158]\n 16976: a3 = t0 <u a0\n 16979: a3 = 0 if a2 != 0\n 16981: a3 = 0 if a1 != 0\n 16983: jump @631 if a3 != 0\n      : @630 (gas: 1)\n 16986: jump @775\n      : @631 (gas: 8)\n 16989: i32 a0 = t0 + 0x20\n 16992: a2 = s1 + 0x2118\n 16996: u64 [a2 + 608] = 0\n 17000: u64 [a2 + 600] = 0\n 17004: u64 [a2 + 592] = 0\n 17008: a1 = s1 + 0x2360\n 17012: u64 [a2 + 584] = 0\n 17016: ra = 646, jump @24\n      : @632 [@dyn 323] (gas: 10)\n 17022: a3 = 0x100000000\n 17032: a0 = 0xffffffc0\n 17042: a4 = s1 + 0x100\n 17046: a1 = u64 [a4 + 0x90]\n 17050: a0 = a1 <u a0\n 17053: a2 = u64 [a4 + 0x98]\n 17057: a0 = 0 if a2 != 0\n 17059: a2 = u64 [a4 + 0x78]\n 17062: a0 = 0 if a2 != 0\n 17064: jump @634 if a0 != 0\n      : @633 (gas: 1)\n 17067: jump @775\n      : @634 (gas: 16)\n 17070: i32 a0 = a1 + 0x40\n 17073: a1 = s1 + 0x2118\n 17077: u64 [s1 + 0x158] = a3\n 17081: a3 = a1\n 17083: a1 = u64 [s1 + 0x160]\n 17087: a4 = a3 + 0x200\n 17091: u64 [a4 + 0x28] = a1\n 17094: a1 = u64 [s1 + 0x168]\n 17098: u64 [a4 + 0x30] = a1\n 17101: a1 = u64 [s1 + 0x180]\n 17105: u64 [a4 + 0x38] = a1\n 17108: a1 = s1 + 0x2340\n 17112: a2 = u64 [s1 + 0x188]\n 17116: u64 [a4 + 0x40] = a2\n 17119: u64 [s1 + 0x188] = a0\n 17123: ra = 648, jump @24\n      : @635 [@dyn 324] (gas: 10)\n 17129: a4 = s1 + 0x100\n 17133: a2 = u64 [a4 + 0x78]\n 17136: a3 = u64 [a4 + 0x98]\n 17140: a1 = u64 [a4 + 0x90]\n 17144: a0 = u64 [a4 + 0x58]\n 17147: a0 = a0 + 0xffffffffffffffa0\n 17150: a0 = a1 <u a0\n 17153: a0 = 0 if a3 != 0\n 17155: a0 = 0 if a2 != 0\n 17157: jump @637 if a0 != 0\n      : @636 (gas: 1)\n 17160: jump @775\n      : @637 (gas: 10)\n 17163: i32 a0 = a1 + 0x60\n 17166: a4 = s1 + 0x2118\n 17170: u64 [a4 + 544] = 0\n 17174: u64 [a4 + 536] = 0\n 17178: u64 [a4 + 528] = 0\n 17182: a1 = s1 + 0x2320\n 17186: a2 = u64 [s1 + 0x170]\n 17190: u64 [a4 + 0x208] = a2\n 17194: u64 [s1 + 0x78] = a0\n 17197: ra = 650, jump @24\n      : @638 [@dyn 325] (gas: 9)\n 17203: a3 = s1 + 0x100\n 17207: a1 = u64 [a3 + 0x90]\n 17211: a0 = 0xffffff80\n 17221: a0 = a1 <u a0\n 17224: a2 = u64 [a3 + 0x98]\n 17228: a0 = 0 if a2 != 0\n 17230: a2 = u64 [a3 + 0x78]\n 17233: a0 = 0 if a2 != 0\n 17235: jump @640 if a0 != 0\n      : @639 (gas: 1)\n 17238: jump @775\n      : @640 (gas: 9)\n 17241: i32 a0 = a1 + 0x80\n 17245: a2 = s1 + 0x2118\n 17249: u64 [a2 + 512] = 0\n 17253: u64 [a2 + 504] = 0\n 17257: u64 [a2 + 496] = 0\n 17261: a1 = s1 + 0x2300\n 17265: u64 [a2 + 488] = 0\n 17269: u64 [s1 + 0x28] = a0\n 17272: ra = 652, jump @24\n      : @641 [@dyn 326] (gas: 6)\n 17278: a0 = u64 [s1 + 0xc8]\n 17282: ra = 0x28e\n 17286: ecalli 4 // 'caller'\n 17288: a2 = u64 [s1 + 0xe8]\n 17292: t0 = 0x290\n 17296: jump @1496\n      : @642 [@dyn 327] (gas: 2)\n 17299: a2 = u64 [s1 + 0xe8]\n 17303: t0 = 656, jump @1496\n      : @643 [@dyn 328] (gas: 8)\n 17309: u64 [a2 + 480] = 0\n 17313: a4 = a2 + 0x100\n 17317: u64 [a4 + 0xd8] = a1\n 17321: u64 [a4 + 0xd0] = a0\n 17325: a1 = s1 + 0x22e0\n 17329: u64 [a4 + 0xc8] = a3\n 17333: a0 = 0\n 17335: ra = 658, jump @24\n      : @644 [@dyn 329] (gas: 9)\n 17341: a1 = s1 + 0x2118\n 17345: u64 [a1 + 448] = 0\n 17349: u64 [a1 + 440] = 0\n 17353: u64 [a1 + 424] = 0x2\n 17358: a2 = a1\n 17360: a0 = 0x20\n 17363: a1 = s1 + 0x22c0\n 17367: u64 [a2 + 432] = 0\n 17371: ra = 660, jump @24\n      : @645 [@dyn 330] (gas: 3)\n 17377: a1 = u64 [s1 + 0xa8]\n 17381: a0 = i32 [a1]\n 17383: jump @647 if a0 >u 63\n      : @646 (gas: 2)\n 17387: u32 [a1 + 0] = 0x40\n 17390: fallthrough\n      : @647 (gas: 14)\n 17391: a0 = 0xffffffff00000000\n 17401: u64 [s1 + 0x70] = a0\n 17404: a0 = sp + 0xffffffffffffffe0\n 17407: a0 = a0 & 0xffffffffffffffe0\n 17410: u64 [s1 + 0x198] = a0\n 17414: sp = a0\n 17416: i32 a2 = a0 + 0\n 17418: a1 = 0x40\n 17421: a0 = u64 [s1 + 0xa0]\n 17425: ra = 0x296\n 17429: ecalli 8 // 'hash_keccak_256'\n 17431: a3 = u64 [s1 + 0x198]\n 17435: t0 = 0x298\n 17439: jump @1555\n      : @648 [@dyn 331] (gas: 2)\n 17442: a3 = u64 [s1 + 0x198]\n 17446: t0 = 664, jump @1555\n      : @649 [@dyn 332] (gas: 6)\n 17452: u64 [s1 + 0x178] = a0\n 17456: a0 = reverse a2\n 17458: u64 [s1 + 0x170] = a0\n 17462: a0 = reverse a3\n 17464: u64 [s1 + 0x168] = a0\n 17468: t0 = 666, jump @1542\n      : @650 [@dyn 333] (gas: 12)\n 17474: a2 = s1 + 0x2118\n 17478: u64 [a2 + 416] = 0\n 17482: a0 = u64 [s1 + 0x108]\n 17486: a3 = a2 + 0x100\n 17490: u64 [a3 + 0x98] = a0\n 17494: a0 = u64 [s1 + 0xf8]\n 17498: u64 [a3 + 0x90] = a0\n 17502: a1 = s1 + 0x22a0\n 17506: a0 = u64 [s1 + 0x100]\n 17510: u64 [a3 + 0x88] = a0\n 17514: a0 = 0\n 17516: ra = 668, jump @24\n      : @651 [@dyn 334] (gas: 15)\n 17522: a4 = s1 + 0x100\n 17526: a0 = u64 [a4 + 0x68]\n 17529: a1 = s1 + 0x2118\n 17533: a2 = a1 + 0x100\n 17537: u64 [a2 + 0x80] = a0\n 17541: a0 = u64 [a4 + 0x70]\n 17544: u64 [a2 + 0x78] = a0\n 17547: a0 = u64 [a4 + 0x78]\n 17550: u64 [a2 + 0x70] = a0\n 17553: a3 = a1\n 17555: a0 = 0x20\n 17558: a1 = s1 + 0x2280\n 17562: a2 = u64 [a4 + 0x80]\n 17566: u64 [a3 + 0x168] = a2\n 17570: ra = 670, jump @24\n      : @652 [@dyn 335] (gas: 3)\n 17576: a1 = u64 [s1 + 0xa8]\n 17580: a0 = i32 [a1]\n 17582: jump @654 if a0 >u 63\n      : @653 (gas: 2)\n 17586: u32 [a1 + 0] = 0x40\n 17589: fallthrough\n      : @654 (gas: 29)\n 17590: a0 = sp + 0xffffffffffffffe0\n 17593: a0 = a0 & 0xffffffffffffffe0\n 17596: u64 [s1 + 0x180] = a0\n 17600: sp = a0\n 17602: i32 a2 = a0 + 0\n 17604: a1 = 0x40\n 17607: a0 = u64 [s1 + 0xa0]\n 17611: ecalli 8 // 'hash_keccak_256'\n 17613: a3 = u64 [s1 + 0x180]\n 17617: a0 = u64 [a3 + 0x18]\n 17620: a1 = u64 [a3 + 0x10]\n 17623: a2 = u64 [a3 + 0x8]\n 17626: a3 = u64 [a3]\n 17628: a5 = reverse a0\n 17630: u64 [s1 + 0x50] = a5\n 17633: a4 = reverse a1\n 17635: u64 [s1 + 0x58] = a4\n 17638: a1 = reverse a2\n 17640: u64 [s1 + 0x68] = a1\n 17643: a0 = reverse a3\n 17645: u64 [s1 + 0x60] = a0\n 17648: a2 = u64 [s1 + 0x198]\n 17652: u64 [a2 + 0x18] = a0\n 17655: u64 [a2 + 0x10] = a1\n 17658: u64 [a2 + 0x8] = a4\n 17661: u64 [a2] = a5\n 17663: a0 = s1 + 0x2260\n 17667: a1 = u64 [s1 + 0x190]\n 17671: ra = 672, jump @22\n      : @655 [@dyn 336] (gas: 8)\n 17677: a0 = s1 + 0x2118\n 17681: a0 = u64 [a0 + 0x148]\n 17685: a1 = u64 [s1 + 0xe0]\n 17689: a0 = a0 & a1\n 17692: u64 [s1 + 0x190] = a0\n 17696: a0 = s1 + 0x2240\n 17700: a1 = u64 [s1 + 0x198]\n 17704: ra = 674, jump @26\n      : @656 [@dyn 337] (gas: 7)\n 17710: a3 = s1 + 0x2118\n 17714: a4 = a3 + 0x100\n 17718: a0 = u64 [a4 + 0x30]\n 17721: a1 = u64 [a4 + 0x38]\n 17724: a2 = u64 [a4 + 0x40]\n 17727: a3 = u64 [a4 + 0x28]\n 17730: t0 = 676, jump @1538\n      : @657 [@dyn 338] (gas: 8)\n 17736: u64 [a4 + 0x500] = a2\n 17740: a2 = a4 + 0x400\n 17744: u64 [a2 + 0xf8] = a1\n 17748: u64 [a2 + 0xf0] = a0\n 17752: u64 [a2 + 0xe8] = a3\n 17756: a1 = s1 + 0x2e00\n 17760: a0 = u64 [s1 + 0x198]\n 17764: ra = 678, jump @28\n      : @658 [@dyn 339] (gas: 3)\n 17770: a0 = s1 + 0x2220\n 17774: a1 = u64 [s1 + 0x138]\n 17778: ra = 680, jump @22\n      : @659 [@dyn 340] (gas: 11)\n 17784: a0 = s1 + 0x2118\n 17788: a2 = a0 + 0x100\n 17792: a1 = u64 [a2 + 0x18]\n 17795: u64 [s1 + 0x190] = a1\n 17799: a1 = u64 [a2 + 0x10]\n 17802: u64 [s1 + 0x180] = a1\n 17806: a1 = u64 [a2 + 0x8]\n 17809: u64 [s1 + 0x178] = a1\n 17813: a0 = s1 + 0x2200\n 17817: a1 = u64 [s1 + 0x198]\n 17821: ra = 682, jump @26\n      : @660 [@dyn 341] (gas: 23)\n 17827: a1 = s1 + 0x2118\n 17831: a0 = u64 [a1 + 0x100]\n 17835: a1 = u32 [a1 + 0xe8]\n 17839: a5 = u64 [s1 + 0x178]\n 17843: a2 = a5 >> 0x20\n 17846: a4 = u64 [s1 + 0x180]\n 17850: a3 = a4 << 0x20\n 17853: a2 = a2 | a3\n 17856: a3 = a4 >> 0x20\n 17859: a4 = u64 [s1 + 0x190]\n 17863: a4 = a4 << 0x20\n 17866: a3 = a3 | a4\n 17869: a4 = a5 << 0x20\n 17872: a1 = a1 | a4\n 17875: a4 = s1 + 0x2918\n 17879: a5 = a4 + 0x500\n 17883: u64 [a5 + 0x18] = a3\n 17886: u64 [a5 + 0x10] = a2\n 17889: u64 [a5 + 0x20] = a0\n 17892: u64 [a5 + 0x8] = a1\n 17895: a1 = s1 + 0x2e20\n 17899: a0 = u64 [s1 + 0x198]\n 17903: ra = 684, jump @28\n      : @661 [@dyn 342] (gas: 27)\n 17909: a0 = sp + 0xffffffffffffffe0\n 17912: a1 = a0 & 0xffffffffffffffe0\n 17915: sp = a1\n 17917: a2 = u64 [s1 + 0x50]\n 17920: a2 = a2 + 0x1\n 17923: a0 = a2 <u 0x1\n 17926: a3 = u64 [s1 + 0x58]\n 17929: a3 = a3 + a0\n 17932: a0 = a2 | a3\n 17935: a0 = a0 <u 0x1\n 17938: a5 = u64 [s1 + 0x68]\n 17941: a4 = a5 + a0\n 17944: a0 = a4 <u a5\n 17947: a5 = u64 [s1 + 0x60]\n 17950: a0 = a0 + a5\n 17953: u64 [s1 + 0x148] = a0\n 17957: u64 [a1 + 0x18] = a0\n 17960: u64 [s1 + 0x138] = a4\n 17964: u64 [a1 + 0x10] = a4\n 17967: u64 [s1 + 0x140] = a3\n 17971: u64 [a1 + 0x8] = a3\n 17974: u64 [s1 + 0x40] = a1\n 17977: u64 [s1 + 0x150] = a2\n 17981: u64 [a1] = a2\n 17983: a0 = s1 + 0x21e0\n 17987: a1 = u64 [s1 + 0x188]\n 17991: ra = 686, jump @22\n      : @662 [@dyn 343] (gas: 17)\n 17997: a0 = s1 + 0x2118\n 18001: a3 = u64 [a0 + 0xe0]\n 18005: a4 = u64 [a0 + 0xd8]\n 18009: a2 = u64 [a0 + 0xd0]\n 18013: a1 = u64 [a0 + 0xc8]\n 18017: a5 = s1 + 0x100\n 18021: u64 [a5 + 0x30] = a2\n 18024: u64 [a5 + 0x28] = a3\n 18027: a0 = a2 | a3\n 18030: a2 = a1 | a4\n 18033: a2 = a2 | a0\n 18036: a2 = a2 >> 0x20\n 18039: u64 [a5 + 0x20] = a4\n 18042: a0 = a0 | a4\n 18045: a0 = a0 << 0x20\n 18048: a0 = a0 | a2\n 18051: jump @664 if a0 == 0\n      : @663 (gas: 1)\n 18054: jump @775\n      : @664 (gas: 3)\n 18057: a0 = s1 + 0x21c0\n 18061: u64 [s1 + 0x118] = a1\n 18065: ra = 688, jump @22\n      : @665 [@dyn 344] (gas: 17)\n 18071: a2 = s1 + 0x2118\n 18075: a4 = u64 [a2 + 0xc0]\n 18079: a3 = u64 [a2 + 0xb8]\n 18083: a1 = u64 [a2 + 0xb0]\n 18087: a0 = a4 >u 0\n 18089: a5 = a3 >u 0\n 18091: a5 = a0 if a4 != 0\n 18094: u64 [s1 + 0x48] = a1\n 18097: a0 = a1 >u 0\n 18099: u64 [s1 + 0x38] = a3\n 18102: u64 [s1 + 0x30] = a4\n 18105: a3 = a3 | a4\n 18108: u64 [s1 + 0x10] = a0\n 18111: u64 [s1 + 0x18] = a5\n 18114: u64 [s1 + 0x110] = a3\n 18118: a0 = a5 if a3 != 0\n 18121: jump @667 if a0 == 0\n      : @666 (gas: 1)\n 18124: jump @877\n      : @667 (gas: 5)\n 18127: a0 = u64 [a2 + 0xa8]\n 18131: u64 [s1 + 0x80] = a0\n 18135: a0 = s1 + 0x21a0\n 18139: a1 = u64 [s1 + 0x40]\n 18142: ra = 690, jump @26\n      : @668 [@dyn 345] (gas: 12)\n 18148: a4 = s1 + 0x2118\n 18152: a2 = u64 [a4 + 0x88]\n 18156: a0 = u64 [a4 + 0x90]\n 18160: a1 = u64 [a4 + 0x98]\n 18164: a3 = u64 [a4 + 0xa0]\n 18168: u64 [a4 + 0x60] = a3\n 18171: u64 [a4 + 0x58] = a1\n 18174: u64 [a4 + 0x50] = a0\n 18177: a0 = s1 + 0x2180\n 18181: a1 = s1 + 0x2160\n 18185: u64 [a4 + 0x48] = a2\n 18188: ra = 692, jump @1333\n      : @669 [@dyn 346] (gas: 22)\n 18194: a0 = s1 + 0x2118\n 18198: a3 = u64 [a0 + 0x80]\n 18202: a4 = u64 [a0 + 0x78]\n 18205: a5 = u64 [a0 + 0x70]\n 18208: a2 = u64 [a0 + 0x68]\n 18211: a0 = a3 >u 0\n 18213: a1 = a4 >u 0\n 18215: a1 = a0 if a3 != 0\n 18218: a0 = a5 >u 0\n 18220: u64 [s1 + 0x178] = a2\n 18224: a2 = a2 <u 0x20\n 18227: a2 = a2 ^ 0x1\n 18230: u64 [s1 + 0x180] = a5\n 18234: a2 = a0 if a5 != 0\n 18237: u64 [s1 + 0x188] = a3\n 18241: u64 [s1 + 0x190] = a4\n 18245: a0 = a4 | a3\n 18248: a2 = a1 if a0 != 0\n 18251: a0 = u64 [s1 + 0x80]\n 18255: a0 = a0 <u 0x20\n 18258: u64 [s1 + 0x20] = a0\n 18261: jump @706 if a2 == 0\n      : @670 (gas: 13)\n 18265: a0 = s1 + 0x2118\n 18269: a3 = s1 + 0x100\n 18273: a1 = u64 [a3 + 0x50]\n 18276: u64 [a0 + 0x28] = a1\n 18279: a1 = u64 [a3 + 0x40]\n 18282: u64 [a0 + 0x30] = a1\n 18285: a1 = u64 [a3 + 0x38]\n 18288: u64 [a0 + 0x38] = a1\n 18291: a1 = s1 + 0x2140\n 18295: a2 = u64 [a3 + 0x48]\n 18298: u64 [a0 + 0x40] = a2\n 18301: a0 = 0\n 18303: ra = 694, jump @24\n      : @671 [@dyn 347] (gas: 3)\n 18309: a0 = u64 [s1 + 0xa8]\n 18313: a0 = i32 [a0]\n 18315: jump @673 if a0 >u 31\n      : @672 (gas: 3)\n 18319: a1 = u64 [s1 + 0xa8]\n 18323: u32 [a1 + 0] = 0x20\n 18326: fallthrough\n      : @673 (gas: 117)\n 18327: a0 = sp + 0xffffffffffffffe0\n 18330: a0 = a0 & 0xffffffffffffffe0\n 18333: u64 [s1 + 0x168] = a0\n 18337: sp = a0\n 18339: i32 a2 = a0 + 0\n 18341: a1 = 0x20\n 18344: a0 = u64 [s1 + 0xa0]\n 18348: ecalli 8 // 'hash_keccak_256'\n 18350: a0 = u64 [s1 + 0x80]\n 18354: a1 = a0 + 0x1f\n 18357: a0 = a1 <u a0\n 18360: a5 = u64 [s1 + 0x48]\n 18363: a2 = a5 + a0\n 18366: a3 = a2 <u a5\n 18369: a3 = a0 if a0 == 0\n 18372: a4 = u64 [s1 + 0x38]\n 18375: a3 = a3 + a4\n 18378: u64 [s1 + 0x160] = a3\n 18382: a3 = a3 << 0x3b\n 18385: a4 = a2 >> 0x5\n 18388: a4 = a4 | a3\n 18391: a0 = u64 [s1 + 0x168]\n 18395: t1 = u64 [a0 + 0x18]\n 18398: a2 = a2 << 0x3b\n 18401: a3 = u64 [a0 + 0x10]\n 18404: a1 = a1 >> 0x5\n 18407: a0 = a1 | a2\n 18410: t2 = reverse t1\n 18412: a2 = reverse a3\n 18414: a1 = u64 [s1 + 0x20]\n 18417: a1 = 0 if a5 != 0\n 18419: a3 = u64 [s1 + 0x110]\n 18423: a1 = 0 if a3 != 0\n 18425: a4 = 0 if a1 != 0\n 18427: a0 = 0 if a1 != 0\n 18429: t0 = t2 + a0\n 18432: a0 = t0 <u t2\n 18435: a5 = a2 + a0\n 18438: a4 = a4 + a5\n 18441: u64 [s1 + 0x198] = a4\n 18445: a5 = a4 ^ a2\n 18448: a3 = a4 <u a2\n 18451: a3 = a0 if a5 == 0\n 18454: u64 [s1 + 0x158] = a3\n 18458: a0 = u64 [s1 + 0x178]\n 18462: ra = a0 + 0x1f\n 18465: a4 = ra <u a0\n 18468: a3 = u64 [s1 + 0x180]\n 18472: a0 = a3 + a4\n 18475: a5 = a0 <u a3\n 18478: a5 = a4 if a4 == 0\n 18481: t1 = u64 [s1 + 0x190]\n 18485: t1 = t1 + a5\n 18488: a4 = t1 << 0x3b\n 18491: a3 = a0 >> 0x5\n 18494: a3 = a3 | a4\n 18497: a0 = a0 << 0x3b\n 18500: a4 = ra >> 0x5\n 18503: a0 = a0 | a4\n 18506: a0 = a0 + t2\n 18509: u64 [s1 + 0x178] = a0\n 18513: a0 = a0 <u t2\n 18516: t2 = t0\n 18518: a4 = a2 + a0\n 18521: a4 = a4 + a3\n 18524: a3 = a4 ^ a2\n 18527: u64 [s1 + 0x170] = a4\n 18531: a2 = a4 <u a2\n 18534: a2 = a0 if a3 == 0\n 18537: a4 = u64 [s1 + 0x160]\n 18541: a0 = u64 [s1 + 0x38]\n 18544: a0 = a4 <u a0\n 18547: a3 = u64 [s1 + 0x30]\n 18550: a0 = a0 + a3\n 18553: a3 = a4 >> 0x5\n 18556: a4 = a0 << 0x3b\n 18559: a3 = a3 | a4\n 18562: a4 = u64 [s1 + 0x168]\n 18566: t0 = u64 [a4]\n 18568: a4 = u64 [a4 + 0x8]\n 18571: a0 = a0 >> 0x5\n 18574: a3 = 0 if a1 != 0\n 18576: a0 = 0 if a1 != 0\n 18578: a1 = reverse a4\n 18580: a4 = reverse t0\n 18582: a0 = a0 + a4\n 18585: a3 = a3 + a1\n 18588: a5 = a3 <u a1\n 18591: a0 = a0 + a5\n 18594: ra = u64 [s1 + 0x158]\n 18598: ra = ra + a3\n 18601: a3 = ra <u a3\n 18604: t0 = a0 + a3\n 18607: a0 = u64 [s1 + 0x190]\n 18611: a0 = t1 <u a0\n 18614: a3 = u64 [s1 + 0x188]\n 18618: a0 = a0 + a3\n 18621: a3 = t1 >> 0x5\n 18624: a5 = a0 << 0x3b\n 18627: a3 = a3 | a5\n 18630: a0 = a0 >> 0x5\n 18633: a0 = a0 + a4\n 18636: a5 = s1 + 0x100\n 18640: a4 = u64 [a5 + 0x98]\n 18644: a3 = a3 + a1\n 18647: a1 = a3 <u a1\n 18650: a0 = a0 + a1\n 18653: a2 = a2 + a3\n 18656: u64 [a5 + 0x68] = a2\n 18659: a1 = a2 <u a3\n 18662: a0 = a0 + a1\n 18665: u64 [a5 + 0x60] = a0\n 18668: a0 = sp + 0xffffffffffffffe0\n 18671: t1 = a0 & 0xffffffffffffffe0\n 18674: sp = t1\n 18676: u64 [s1 + 0x158] = t1\n 18680: fallthrough\n      : @674 (gas: 24)\n 18681: a0 = u64 [s1 + 0x178]\n 18685: a0 = t2 <u a0\n 18688: a2 = u64 [s1 + 0x170]\n 18692: a1 = a4 ^ a2\n 18695: a2 = a4 <u a2\n 18698: a2 = a0 if a1 == 0\n 18701: a5 = u64 [s1 + 0x168]\n 18705: a0 = ra <u a5\n 18708: a3 = u64 [s1 + 0x160]\n 18712: a1 = t0 ^ a3\n 18715: a3 = t0 <u a3\n 18718: a3 = a0 if a1 == 0\n 18721: a0 = ra ^ a5\n 18724: a0 = a0 | a1\n 18727: a3 = a2 if a0 == 0\n 18730: u64 [s1 + 0x190] = t2\n 18734: u64 [t1] = t2\n 18736: u64 [s1 + 0x198] = a4\n 18740: u64 [t1 + 0x8] = a4\n 18743: u64 [s1 + 0x180] = ra\n 18747: u64 [t1 + 0x10] = ra\n 18750: u64 [s1 + 0x188] = t0\n 18754: u64 [t1 + 0x18] = t0\n 18757: jump @706 if a3 == 0\n      : @675 (gas: 8)\n 18761: a0 = s1 + 0x2918\n 18765: u64 [a0 + 1344] = 0\n 18769: u64 [a0 + 1336] = 0\n 18773: u64 [a0 + 1328] = 0\n 18777: u64 [a0 + 1320] = 0\n 18781: a1 = s1 + 0x2e40\n 18785: a0 = t1\n 18787: ra = 696, jump @28\n      : @676 [@dyn 348] (gas: 15)\n 18793: t1 = u64 [s1 + 0x158]\n 18797: t2 = u64 [s1 + 0x190]\n 18801: t2 = t2 + 0x1\n 18804: a0 = t2 <u 0x1\n 18807: a4 = u64 [s1 + 0x198]\n 18811: a4 = a4 + a0\n 18814: a0 = t2 | a4\n 18817: a0 = a0 <u 0x1\n 18820: a1 = u64 [s1 + 0x180]\n 18824: a0 = a0 + a1\n 18827: a1 = a0 <u a1\n 18830: t0 = u64 [s1 + 0x188]\n 18834: t0 = t0 + a1\n 18837: ra = a0\n 18839: jump @674\n      : @677 (gas: 2)\n 18842: a5 = s1 + 0x1118\n 18846: fallthrough\n      : @678 (gas: 25)\n 18847: a1 = u64 [s1 + 0x198]\n 18851: a0 = a1 + 0x20\n 18854: a1 = a0 <u a1\n 18857: a2 = t2 + a1\n 18860: a3 = a2 <u t2\n 18863: a3 = a1 if a1 == 0\n 18866: a3 = a3 + t1\n 18869: a1 = a3 <u t1\n 18872: a4 = u64 [s1 + 0x190]\n 18876: a4 = a4 + a1\n 18879: a1 = u64 [s1 + 0x108]\n 18883: u64 [a5 + 0x3e8] = a1\n 18887: u64 [a5 + 0x3c8] = a0\n 18891: a0 = u64 [s1 + 0x100]\n 18895: u64 [a5 + 0x3f0] = a0\n 18899: a0 = u64 [s1 + 0xf8]\n 18903: u64 [a5 + 0x3f8] = a0\n 18907: u64 [a5 + 0x3d0] = a2\n 18911: a0 = u64 [s1 + 0x110]\n 18915: u64 [a5 + 0x400] = a0\n 18919: u64 [a5 + 0x3d8] = a3\n 18923: a0 = s1 + 0x1500\n 18927: a1 = s1 + 0x14e0\n 18931: u64 [a5 + 0x3e0] = a4\n 18935: ra = 698, jump @1342\n      : @679 [@dyn 349] (gas: 5)\n 18941: a1 = u64 [s1 + 0xd8]\n 18945: a0 = a1 + 0x2\n 18948: a1 = a0 <u a1\n 18951: a3 = u64 [s1 + 0xe0]\n 18955: t0 = 700, jump @1532\n      : @680 [@dyn 350] (gas: 14)\n 18961: a1 = u64 [s1 + 0xf0]\n 18965: a3 = a3 + a1\n 18968: a1 = a3 <u a1\n 18971: a4 = u64 [s1 + 0xe8]\n 18975: a1 = a1 + a4\n 18978: a4 = s1 + 0x2918\n 18982: a5 = a4 + 0x300\n 18986: u64 [a5 + 0x40] = a1\n 18989: u64 [a5 + 0x38] = a3\n 18992: u64 [a5 + 0x30] = a2\n 18995: u64 [a5 + 0x28] = a0\n 18998: a0 = s1 + 0x14c0\n 19002: a1 = s1 + 0x2c40\n 19006: ra = 702, jump @26\n      : @681 [@dyn 351] (gas: 3)\n 19012: t0 = 0x2c0\n 19016: a1 = s1 + 0x1118\n 19020: fallthrough\n      : @682 [@dyn 352] (gas: 7)\n 19021: a0 = u64 [a1 + 0x3b0]\n 19025: u64 [s1 + 0x178] = a0\n 19029: a0 = u64 [a1 + 0x3a8]\n 19033: u64 [s1 + 0x170] = a0\n 19037: a0 = s1 + 0x14a0\n 19041: a1 = 0x40\n 19044: ra = 706, jump @22\n      : @683 [@dyn 353] (gas: 14)\n 19050: a4 = s1 + 0x1118\n 19054: t0 = u64 [a4 + 0x3a0]\n 19058: a1 = a4 + 0x300\n 19062: a3 = u64 [a1 + 0x98]\n 19066: a5 = u64 [a1 + 0x90]\n 19070: a0 = u64 [a1 + 0x88]\n 19074: a2 = a5 | t0\n 19077: a1 = a0 | a3\n 19080: a1 = a1 | a2\n 19083: a1 = a1 >> 0x20\n 19086: a2 = a2 | a3\n 19089: a2 = a2 << 0x20\n 19092: a1 = a1 | a2\n 19095: jump @775 if a1 != 0\n      : @684 (gas: 13)\n 19099: a1 = u64 [s1 + 0xd0]\n 19103: a1 = a1 << 0x20\n 19106: u64 [s1 + 0x188] = a3\n 19110: a3 = a1 >> 0x20\n 19113: u64 [a4 + 896] = 0\n 19117: u64 [a4 + 888] = 0\n 19121: u64 [a4 + 880] = 0\n 19125: a1 = s1 + 0x1480\n 19129: u64 [a4 + 0x368] = a3\n 19133: u64 [s1 + 0x198] = a0\n 19137: u64 [s1 + 0x180] = t0\n 19141: u64 [s1 + 0x190] = a5\n 19145: ra = 708, jump @24\n      : @685 [@dyn 354] (gas: 6)\n 19151: a5 = s1 + 0x100\n 19155: a1 = u64 [a5 + 0x98]\n 19159: a0 = u64 [a5 + 0x88]\n 19163: a2 = u64 [a5 + 0x80]\n 19167: a3 = a0 | a2\n 19170: t0 = 710, jump @1546\n      : @686 [@dyn 355] (gas: 1)\n 19176: jump @775 if a0 == 0\n      : @687 (gas: 24)\n 19180: t0 = 0xffffffff\n 19190: a2 = u64 [s1 + 0xd0]\n 19194: a2 = a2 >> 0x20\n 19197: u64 [s1 + 0x160] = a4\n 19201: a4 = u64 [s1 + 0xc0]\n 19205: u64 [s1 + 0x168] = a3\n 19209: a3 = a4 << 0x20\n 19212: a2 = a2 | a3\n 19215: a3 = a4 >> 0x20\n 19218: a5 = u64 [s1 + 0xc8]\n 19222: a4 = a5 << 0x20\n 19225: a3 = a3 | a4\n 19228: a4 = a5 >> 0x20\n 19231: a3 = a3 & 0xffffffffffffffff\n 19234: a2 = a2 & 0xffffffffffffffff\n 19237: a4 = a4 & t0\n 19240: i32 a0 = a1 + 0x20\n 19243: a5 = s1 + 0x1118\n 19247: u64 [a5 + 864] = 0\n 19251: u64 [a5 + 0x358] = a4\n 19255: u64 [a5 + 0x348] = a2\n 19259: a1 = s1 + 0x1460\n 19263: u64 [a5 + 0x350] = a3\n 19267: ra = 712, jump @24\n      : @688 [@dyn 356] (gas: 10)\n 19273: a3 = s1 + 0x100\n 19277: a1 = u64 [a3 + 0x98]\n 19281: a0 = u64 [a3 + 0x60]\n 19284: a0 = a0 + 0xffffffffffffffc0\n 19287: a0 = a1 <u a0\n 19290: a2 = u64 [a3 + 0x90]\n 19294: a0 = 0 if a2 != 0\n 19296: a2 = u64 [a3 + 0x68]\n 19299: a0 = 0 if a2 != 0\n 19301: jump @775 if a0 == 0\n      : @689 (gas: 8)\n 19305: i32 a0 = a1 + 0x40\n 19308: a2 = s1 + 0x1118\n 19312: u64 [a2 + 832] = 0\n 19316: u64 [a2 + 824] = 0\n 19320: u64 [a2 + 808] = 0xa0\n 19326: a1 = s1 + 0x1440\n 19330: u64 [a2 + 816] = 0\n 19334: ra = 714, jump @24\n      : @690 [@dyn 357] (gas: 3)\n 19340: a0 = s1 + 0x1420\n 19344: a1 = u64 [s1 + 0x108]\n 19348: ra = 716, jump @22\n      : @691 [@dyn 358] (gas: 10)\n 19354: a5 = s1 + 0x100\n 19358: a3 = u64 [a5 + 0x68]\n 19361: a1 = u64 [a5 + 0x98]\n 19365: a4 = 0x100000000\n 19375: a0 = 0xffffff60\n 19385: a0 = a1 <u a0\n 19388: a2 = u64 [a5 + 0x90]\n 19392: a0 = 0 if a2 != 0\n 19394: a0 = 0 if a3 != 0\n 19396: jump @775 if a0 == 0\n      : @692 (gas: 18)\n 19400: a0 = s1 + 0x1118\n 19404: u64 [s1 + 0x160] = a4\n 19408: a4 = a0\n 19410: t0 = u64 [a0 + 0x320]\n 19414: t1 = u64 [a0 + 0x318]\n 19418: a5 = u64 [a0 + 0x310]\n 19422: a2 = u64 [a0 + 0x308]\n 19426: i32 a0 = a1 + 0xa0\n 19430: u64 [s1 + 0x158] = a2\n 19434: u64 [a4 + 0x2e8] = a2\n 19438: u64 [s1 + 0x140] = a5\n 19442: u64 [a4 + 0x2f0] = a5\n 19446: u64 [s1 + 0x150] = t1\n 19450: u64 [a4 + 0x2f8] = t1\n 19454: a1 = s1 + 0x1400\n 19458: u64 [s1 + 0x148] = t0\n 19462: u64 [a4 + 0x300] = t0\n 19466: ra = 718, jump @24\n      : @693 [@dyn 359] (gas: 10)\n 19472: a4 = s1 + 0x100\n 19476: a3 = u64 [a4 + 0x90]\n 19480: a2 = u64 [a4 + 0x98]\n 19484: a0 = u64 [a4 + 0x60]\n 19487: a0 = a0 + 0xffffffffffffff40\n 19491: a0 = a2 <u a0\n 19494: a0 = 0 if a3 != 0\n 19496: a1 = u64 [a4 + 0x68]\n 19499: a0 = 0 if a1 != 0\n 19501: jump @775 if a0 == 0\n      : @694 (gas: 8)\n 19505: a0 = 0xffffffe0\n 19515: a1 = u64 [s1 + 0x108]\n 19519: a0 = a1 <u a0\n 19522: a1 = u64 [s1 + 0x100]\n 19526: a0 = 0 if a1 != 0\n 19528: a1 = u64 [s1 + 0xb8]\n 19532: a0 = 0 if a1 != 0\n 19534: jump @775 if a0 == 0\n      : @695 (gas: 12)\n 19538: a1 = u64 [s1 + 0x158]\n 19542: a5 = u64 [s1 + 0x150]\n 19546: a0 = a1 | a5\n 19549: t0 = u64 [s1 + 0x148]\n 19553: t1 = u64 [s1 + 0x140]\n 19557: a4 = t1 | t0\n 19560: a0 = a0 | a4\n 19563: a0 = a0 >> 0x20\n 19566: a4 = a4 | a5\n 19569: a4 = a4 << 0x20\n 19572: a0 = a0 | a4\n 19575: jump @775 if a0 != 0\n      : @696 (gas: 2)\n 19579: i32 a0 = a2 + 0xc0\n 19583: ra = 720, jump @37\n      : @697 [@dyn 360] (gas: 4)\n 19589: u64 [s1 + 0x168] = a0\n 19593: a0 = u64 [s1 + 0x138]\n 19597: a1 = u64 [s1 + 0x158]\n 19601: ra = 722, jump @37\n      : @698 [@dyn 361] (gas: 4)\n 19607: a1 = a0\n 19609: a0 = u64 [s1 + 0x168]\n 19613: a2 = u64 [s1 + 0x158]\n 19617: ra = 724, jump @0\n      : @699 [@dyn 362] (gas: 29)\n 19623: a1 = u64 [s1 + 0x158]\n 19627: a0 = u64 [s1 + 0x198]\n 19631: a0 = a0 + a1\n 19634: a2 = a0 <u a1\n 19637: a4 = u64 [s1 + 0x140]\n 19641: a1 = u64 [s1 + 0x190]\n 19645: a1 = a1 + a4\n 19648: a1 = a1 + a2\n 19651: a3 = a1 ^ a4\n 19654: a4 = a1 <u a4\n 19657: a4 = a2 if a3 == 0\n 19660: a2 = u64 [s1 + 0x180]\n 19664: a3 = u64 [s1 + 0x148]\n 19668: a2 = a2 + a3\n 19671: a3 = u64 [s1 + 0x188]\n 19675: a5 = u64 [s1 + 0x150]\n 19679: a3 = a3 + a5\n 19682: a4 = a4 + a3\n 19685: a5 = a3 <u a5\n 19688: a3 = a4 <u a3\n 19691: a2 = a2 + a5\n 19694: a2 = a2 + a3\n 19697: a2 = a2 | a4\n 19700: a3 = 0xffffff40\n 19710: u64 [s1 + 0x190] = a3\n 19714: a3 = a0 <u a3\n 19717: a3 = 0 if a1 != 0\n 19719: a3 = 0 if a2 != 0\n 19721: jump @775 if a3 == 0\n      : @700 (gas: 8)\n 19725: i32 a0 = a0 + 0xc0\n 19729: a2 = s1 + 0x1118\n 19733: u64 [a2 + 736] = 0\n 19737: u64 [a2 + 728] = 0\n 19741: u64 [a2 + 720] = 0\n 19745: a1 = s1 + 0x13e0\n 19749: u64 [a2 + 712] = 0\n 19753: ra = 726, jump @24\n      : @701 [@dyn 363] (gas: 10)\n 19759: a0 = u64 [s1 + 0x198]\n 19763: i32 a0 = a0 + 0x60\n 19766: a2 = s1 + 0x1118\n 19770: u64 [a2 + 704] = 0\n 19774: u64 [a2 + 696] = 0\n 19778: a1 = u64 [s1 + 0x170]\n 19782: u64 [a2 + 0x2a8] = a1\n 19786: a1 = s1 + 0x13c0\n 19790: u64 [a2 + 688] = 0\n 19794: ra = 728, jump @24\n      : @702 [@dyn 364] (gas: 11)\n 19800: a0 = u8 [s1 + 0x178]\n 19804: a1 = a0 >u 0\n 19806: a0 = u64 [s1 + 0x198]\n 19810: i32 a0 = a0 + 0x80\n 19814: a2 = s1 + 0x1118\n 19818: u64 [a2 + 672] = 0\n 19822: u64 [a2 + 664] = 0\n 19826: u64 [a2 + 0x288] = a1\n 19830: a1 = s1 + 0x13a0\n 19834: u64 [a2 + 656] = 0\n 19838: ra = 730, jump @24\n      : @703 [@dyn 365] (gas: 6)\n 19844: a0 = u64 [s1 + 0x158]\n 19848: a0 = a0 + 0x1f\n 19851: a1 = 0x1ffffffe0\n 19861: a0 = a0 & a1\n 19864: a1 = u64 [s1 + 0x190]\n 19868: jump @775 if a0 >=u a1\n      : @704 (gas: 4)\n 19872: i32 a1 = a0 + 0xc0\n 19876: u64 [s1 + 0x190] = a1\n 19880: a0 = u64 [s1 + 0x198]\n 19884: ra = 732, jump @37\n      : @705 [@dyn 366] (gas: 5)\n 19890: i32 a1 = a0 + 0\n 19892: a0 = 0\n 19894: a2 = u64 [s1 + 0x190]\n 19898: ecalli 13 // 'seal_return'\n 19900: fallthrough\n      : @706 (gas: 9)\n 19901: a0 = u64 [s1 + 0x20]\n 19904: a0 = a0 ^ 0x1\n 19907: a1 = u64 [s1 + 0x48]\n 19910: a2 = u64 [s1 + 0x10]\n 19913: a0 = a2 if a1 != 0\n 19916: a1 = u64 [s1 + 0x18]\n 19919: a2 = u64 [s1 + 0x110]\n 19923: a0 = a1 if a2 != 0\n 19926: jump @716 if a0 == 0\n      : @707 (gas: 17)\n 19930: a0 = u64 [s1 + 0x80]\n 19934: a0 = a0 & 0xffffffffffffffe0\n 19937: u64 [s1 + 0x110] = a0\n 19941: a0 = s1 + 0x1918\n 19945: a1 = u64 [s1 + 0x150]\n 19949: a2 = a0 + 0x700\n 19953: u64 [a2 + 0xe8] = a1\n 19957: a1 = u64 [s1 + 0x140]\n 19961: u64 [a2 + 0xf0] = a1\n 19965: a1 = u64 [s1 + 0x138]\n 19969: u64 [a2 + 0xf8] = a1\n 19973: a1 = s1 + 0x2100\n 19977: a0 = s1 + 0x2118\n 19981: a2 = u64 [s1 + 0x148]\n 19985: u64 [a0] = a2\n 19987: a0 = 0\n 19989: ra = 734, jump @24\n      : @708 [@dyn 367] (gas: 1)\n 19995: t0 = 736, jump @1560\n      : @709 [@dyn 368] (gas: 3)\n 20001: a1 = 0x20\n 20004: a0 = 0\n 20006: ra = 738, jump @37\n      : @710 [@dyn 369] (gas: 34)\n 20012: a1 = sp + 0xffffffffffffffe0\n 20015: a1 = a1 & 0xffffffffffffffe0\n 20018: u64 [s1 + 0x168] = a1\n 20022: sp = a1\n 20024: i32 a0 = a0 + 0\n 20026: i32 a2 = a1 + 0\n 20028: a1 = 0x20\n 20031: ecalli 8 // 'hash_keccak_256'\n 20033: u64 [s1 + 408] = 0x20\n 20038: a5 = 0\n 20040: u64 [s1 + 400] = 0\n 20044: u64 [s1 + 392] = 0\n 20048: u64 [s1 + 376] = 0\n 20052: u64 [s1 + 384] = 0\n 20056: a3 = u64 [s1 + 0x168]\n 20060: a0 = u64 [a3 + 0x18]\n 20063: a1 = u64 [a3 + 0x10]\n 20066: a2 = u64 [a3 + 0x8]\n 20069: a3 = u64 [a3]\n 20071: t1 = reverse a0\n 20073: t2 = reverse a1\n 20075: ra = reverse a2\n 20077: a2 = 0\n 20079: a4 = u64 [s1 + 0x178]\n 20083: a0 = reverse a3\n 20085: a3 = 0\n 20087: t0 = a0\n 20089: a1 = u64 [s1 + 0x170]\n 20093: u64 [a1 + 0x18] = a0\n 20096: u64 [s1 + 0x150] = ra\n 20100: u64 [a1 + 0x10] = ra\n 20103: u64 [a1 + 0x8] = t2\n 20106: u64 [a1] = t1\n 20108: fallthrough\n      : @711 (gas: 24)\n 20109: u64 [s1 + 0x168] = t0\n 20113: a0 = u64 [s1 + 0x110]\n 20117: u64 [s1 + 0x178] = a4\n 20121: a0 = a4 <u a0\n 20124: a4 = a0 ^ 0x1\n 20127: u64 [s1 + 0x158] = a3\n 20131: a4 = 0x1 if a3 != 0\n 20134: u64 [s1 + 0x160] = a2\n 20138: a0 = u64 [s1 + 0x180]\n 20142: a0 = a0 | a2\n 20145: a4 = 0x1 if a0 != 0\n 20148: a1 = u64 [s1 + 0x118]\n 20152: a0 = u64 [s1 + 0x198]\n 20156: a1 = a1 + a0\n 20159: a3 = u64 [s1 + 0x130]\n 20163: a3 = a3 + a5\n 20166: a2 = u64 [s1 + 0x120]\n 20170: a0 = u64 [s1 + 0x190]\n 20174: a2 = a2 + a0\n 20177: a0 = u64 [s1 + 0x128]\n 20181: ra = a5\n 20183: a5 = u64 [s1 + 0x188]\n 20187: a0 = a0 + a5\n 20190: jump @718 if a4 != 0\n      : @712 (gas: 23)\n 20194: a4 = u64 [s1 + 0x198]\n 20198: a4 = a1 <u a4\n 20201: a3 = a3 + a4\n 20204: t0 = a3 ^ ra\n 20207: u64 [s1 + 0x138] = ra\n 20211: a5 = a3 <u ra\n 20214: a5 = a4 if t0 == 0\n 20217: a5 = a5 + a2\n 20220: t0 = a5 <u a2\n 20223: a4 = u64 [s1 + 0x190]\n 20227: a2 = a2 <u a4\n 20230: a0 = a0 + a2\n 20233: a0 = a0 + t0\n 20236: a2 = a1 | a5\n 20239: a0 = a0 | a3\n 20242: a2 = a2 | a0\n 20245: a2 = a2 >> 0x20\n 20248: a0 = a0 | a5\n 20251: a0 = a0 << 0x20\n 20254: a0 = a0 | a2\n 20257: u64 [s1 + 0x148] = t1\n 20261: u64 [s1 + 0x140] = t2\n 20265: jump @775 if a0 != 0\n      : @713 (gas: 2)\n 20269: a0 = s1 + 0x1ea0\n 20273: ra = 740, jump @22\n      : @714 [@dyn 370] (gas: 15)\n 20279: a3 = s1 + 0x1918\n 20283: a4 = a3 + 0x500\n 20287: a0 = u64 [a4 + 0xa0]\n 20291: a1 = u64 [a4 + 0x98]\n 20295: a2 = u64 [a4 + 0x90]\n 20299: a3 = u64 [a4 + 0x88]\n 20303: a4 = s1 + 0x2918\n 20307: a5 = a4 + 0x500\n 20311: u64 [a5 + 0x60] = a0\n 20314: u64 [a5 + 0x58] = a1\n 20317: u64 [a5 + 0x50] = a2\n 20320: u64 [a5 + 0x48] = a3\n 20323: a1 = s1 + 0x2e60\n 20327: a0 = u64 [s1 + 0x170]\n 20331: ra = 742, jump @28\n      : @715 [@dyn 371] (gas: 53)\n 20337: t1 = u64 [s1 + 0x148]\n 20341: t1 = t1 + 0x1\n 20344: a0 = t1 <u 0x1\n 20347: t2 = u64 [s1 + 0x140]\n 20351: t2 = t2 + a0\n 20354: a0 = t1 | t2\n 20357: a0 = a0 <u 0x1\n 20360: a1 = u64 [s1 + 0x150]\n 20364: ra = a1 + a0\n 20367: a1 = ra <u a1\n 20370: a0 = u64 [s1 + 0x168]\n 20374: a0 = a0 + a1\n 20377: a1 = u64 [s1 + 0x198]\n 20381: a2 = a1 + 0x20\n 20384: u64 [s1 + 0x168] = a2\n 20388: a3 = a2 <u a1\n 20391: a1 = u64 [s1 + 0x138]\n 20395: a2 = a1 + a3\n 20398: u64 [s1 + 0x148] = a2\n 20402: a4 = a2 <u a1\n 20405: a4 = a3 if a3 == 0\n 20408: a1 = u64 [s1 + 0x190]\n 20412: a3 = a1 + a4\n 20415: a4 = a3 <u a1\n 20418: a1 = u64 [s1 + 0x188]\n 20422: a1 = a1 + a4\n 20425: u64 [s1 + 0x188] = a1\n 20429: a1 = u64 [s1 + 0x178]\n 20433: a4 = a1 + 0x20\n 20436: a5 = a4 <u a1\n 20439: a2 = u64 [s1 + 0x158]\n 20443: a1 = a2 + a5\n 20446: a2 = a1 <u a2\n 20449: a2 = a5 if a5 == 0\n 20452: a5 = u64 [s1 + 0x160]\n 20456: a2 = a2 + a5\n 20459: a5 = a2 <u a5\n 20462: t0 = u64 [s1 + 0x180]\n 20466: t0 = t0 + a5\n 20469: u64 [s1 + 0x180] = t0\n 20473: a5 = u64 [s1 + 0x170]\n 20477: u64 [a5 + 0x8] = t2\n 20480: u64 [a5] = t1\n 20482: u64 [a5 + 0x10] = ra\n 20485: t0 = a0\n 20487: u64 [a5 + 0x18] = a0\n 20490: u64 [s1 + 0x150] = ra\n 20494: a0 = u64 [s1 + 0x168]\n 20498: u64 [s1 + 0x198] = a0\n 20502: a5 = u64 [s1 + 0x148]\n 20506: u64 [s1 + 0x190] = a3\n 20510: a3 = a1\n 20512: jump @711\n      : @716 (gas: 8)\n 20515: a0 = u64 [s1 + 0x80]\n 20519: a1 = u64 [s1 + 0x38]\n 20522: a0 = a0 | a1\n 20525: a1 = u64 [s1 + 0x48]\n 20528: a2 = u64 [s1 + 0x30]\n 20531: a1 = a1 | a2\n 20534: a0 = a0 | a1\n 20537: jump @726 if a0 != 0\n      : @717 (gas: 5)\n 20541: u64 [s1 + 320] = 0\n 20545: u64 [s1 + 312] = 0\n 20549: u64 [s1 + 328] = 0\n 20553: u64 [s1 + 336] = 0\n 20557: jump @729\n      : @718 (gas: 12)\n 20560: t2 = u64 [s1 + 0x190]\n 20564: t1 = u64 [s1 + 0x198]\n 20568: a4 = u64 [s1 + 0x80]\n 20572: a5 = u64 [s1 + 0x110]\n 20576: a4 = a4 ^ a5\n 20579: a5 = u64 [s1 + 0x38]\n 20582: t0 = a4 | a5\n 20585: a5 = u64 [s1 + 0x48]\n 20588: a4 = u64 [s1 + 0x30]\n 20591: a5 = a5 | a4\n 20594: a4 = t0 | a5\n 20597: jump @725 if a4 == 0\n      : @719 (gas: 18)\n 20601: a4 = a1 <u t1\n 20604: a3 = a3 + a4\n 20607: t0 = a3 ^ ra\n 20610: a5 = a3 <u ra\n 20613: a5 = a4 if t0 == 0\n 20616: a5 = a5 + a2\n 20619: a4 = a5 <u a2\n 20622: a2 = a2 <u t2\n 20625: a0 = a0 + a2\n 20628: a0 = a0 + a4\n 20631: a2 = a1 | a5\n 20634: a0 = a0 | a3\n 20637: a2 = a2 | a0\n 20640: a2 = a2 >> 0x20\n 20643: a0 = a0 | a5\n 20646: a0 = a0 << 0x20\n 20649: a0 = a0 | a2\n 20652: jump @775 if a0 != 0\n      : @720 (gas: 2)\n 20656: a0 = s1 + 0x20e0\n 20660: ra = 744, jump @22\n      : @721 [@dyn 372] (gas: 18)\n 20666: a0 = s1 + 0x1918\n 20670: a2 = a0 + 0x700\n 20674: a1 = u64 [a2 + 0xe0]\n 20678: u64 [s1 + 0x190] = a1\n 20682: a1 = u64 [a2 + 0xd8]\n 20686: u64 [s1 + 0x188] = a1\n 20690: a1 = u64 [a2 + 0xd0]\n 20694: u64 [s1 + 0x180] = a1\n 20698: a0 = u64 [a2 + 0xc8]\n 20702: u64 [s1 + 0x178] = a0\n 20706: a0 = u64 [s1 + 0x80]\n 20710: a0 = a0 << 0x3b\n 20713: a1 = a0 >> 0x38\n 20716: u64 [s1 + 0x198] = a1\n 20720: a2 = 0x80 - a1\n 20724: a0 = 0xffffffffffffffff\n 20727: a1 = 0xffffffffffffffff\n 20730: ra = 746, jump @1579\n      : @722 [@dyn 373] (gas: 6)\n 20736: u64 [s1 + 0x168] = a0\n 20740: u64 [s1 + 0x150] = a1\n 20744: a0 = 0xffffffffffffffff\n 20747: a1 = 0xffffffffffffffff\n 20750: a2 = u64 [s1 + 0x198]\n 20754: ra = 748, jump @1574\n      : @723 [@dyn 374] (gas: 10)\n 20760: u64 [s1 + 0x158] = a0\n 20764: u64 [s1 + 0x160] = a1\n 20768: a0 = u64 [s1 + 0x150]\n 20772: a0 = a0 | a1\n 20775: u64 [s1 + 0x150] = a0\n 20779: a0 = u64 [s1 + 0x198]\n 20783: a2 = a0 + 0xffffffffffffff80\n 20786: a0 = 0xffffffffffffffff\n 20789: a1 = 0xffffffffffffffff\n 20792: ra = 750, jump @1574\n      : @724 [@dyn 375] (gas: 30)\n 20798: a4 = u64 [s1 + 0x198]\n 20802: a2 = a4 <u 0x80\n 20806: a3 = u64 [s1 + 0x150]\n 20810: a1 = a3 if a2 != 0\n 20813: a5 = u64 [s1 + 0x158]\n 20817: a3 = u64 [s1 + 0x168]\n 20821: a3 = a3 | a5\n 20824: a3 = a0 if a2 == 0\n 20827: a1 = 0xffffffffffffffff if a4 == 0\n 20830: a3 = 0xffffffffffffffff if a4 == 0\n 20833: a4 = u64 [s1 + 0x160]\n 20837: a4 = 0 if a2 == 0\n 20839: a5 = 0 if a2 == 0\n 20841: a0 = u64 [s1 + 0x178]\n 20845: a0 = a0 & ~a3\n 20848: a2 = u64 [s1 + 0x180]\n 20852: a1 = a2 & ~a1\n 20855: a2 = u64 [s1 + 0x188]\n 20859: a2 = a2 & ~a5\n 20862: a3 = u64 [s1 + 0x190]\n 20866: a3 = a3 & ~a4\n 20869: a4 = s1 + 0x2918\n 20873: a5 = a4 + 0x500\n 20877: u64 [a5 + 0x80] = a3\n 20881: u64 [a5 + 0x78] = a2\n 20884: u64 [a5 + 0x70] = a1\n 20887: u64 [a5 + 0x68] = a0\n 20890: a1 = s1 + 0x2e80\n 20894: a0 = u64 [s1 + 0x170]\n 20898: ra = 752, jump @28\n      : @725 [@dyn 376] (gas: 23)\n 20904: a2 = u64 [s1 + 0x38]\n 20907: a0 = a2 >> 0x3f\n 20910: a1 = u64 [s1 + 0x30]\n 20913: a1 = a1 << 0x1\n 20916: a0 = a0 | a1\n 20919: a3 = u64 [s1 + 0x48]\n 20922: a1 = a3 >> 0x3f\n 20925: a2 = a2 << 0x1\n 20928: a1 = a1 | a2\n 20931: a4 = u64 [s1 + 0x80]\n 20935: a2 = a4 >> 0x3f\n 20938: a3 = a3 << 0x1\n 20941: a2 = a2 | a3\n 20944: a3 = a4 << 0x1\n 20947: a3 = a3 + 0x1\n 20950: a4 = s1 + 0x2918\n 20954: a5 = a4 + 0x500\n 20958: u64 [a5 + 0x88] = a3\n 20962: u64 [a5 + 0x90] = a2\n 20966: u64 [a5 + 0x98] = a1\n 20970: u64 [a5 + 0xa0] = a0\n 20974: a0 = 0x2ea0\n 20978: jump @733\n      : @726 (gas: 11)\n 20981: a3 = s1 + 0x100\n 20985: a0 = u64 [a3 + 0x28]\n 20988: a1 = u64 [a3 + 0x20]\n 20991: a0 = a0 | a1\n 20994: a1 = 0xffffffe0\n 21004: a2 = u64 [a3 + 0x18]\n 21007: a1 = a2 <u a1\n 21010: a2 = u64 [a3 + 0x30]\n 21013: a1 = 0 if a2 != 0\n 21015: a1 = 0 if a0 != 0\n 21017: jump @775 if a1 == 0\n      : @727 (gas: 4)\n 21021: a0 = u64 [s1 + 0x118]\n 21025: i32 a1 = a0 + 0x20\n 21028: a0 = s1 + 0x2120\n 21032: ra = 754, jump @22\n      : @728 [@dyn 377] (gas: 11)\n 21038: a0 = s1 + 0x2118\n 21042: a1 = u64 [a0 + 0x20]\n 21045: a2 = s1 + 0x100\n 21049: u64 [a2 + 0x50] = a1\n 21052: a1 = u64 [a0 + 0x18]\n 21055: u64 [a2 + 0x48] = a1\n 21058: a1 = u64 [a0 + 0x10]\n 21061: u64 [a2 + 0x38] = a1\n 21064: a0 = u64 [a0 + 0x8]\n 21067: u64 [a2 + 0x40] = a0\n 21070: fallthrough\n      : @729 (gas: 24)\n 21071: a2 = u64 [s1 + 0x48]\n 21074: a0 = a2 >> 0x3f\n 21077: a3 = u64 [s1 + 0x38]\n 21080: a1 = a3 << 0x1\n 21083: a0 = a0 | a1\n 21086: u64 [s1 + 0x190] = a0\n 21090: a0 = a3 >> 0x3f\n 21093: a1 = u64 [s1 + 0x30]\n 21096: a1 = a1 << 0x1\n 21099: a0 = a0 | a1\n 21102: u64 [s1 + 0x188] = a0\n 21106: a3 = u64 [s1 + 0x80]\n 21110: a0 = a3 >> 0x3f\n 21113: a1 = a2 << 0x1\n 21116: a0 = a0 | a1\n 21119: u64 [s1 + 0x180] = a0\n 21123: a0 = a3 << 0x1\n 21126: u64 [s1 + 0x178] = a0\n 21130: a1 = a3 << 0x3\n 21133: u64 [s1 + 0x198] = a1\n 21137: i32 a2 = 0x80 - a1\n 21141: a0 = 0xffffffffffffffff\n 21144: a1 = 0xffffffffffffffff\n 21147: ra = 756, jump @1579\n      : @730 [@dyn 378] (gas: 7)\n 21153: u64 [s1 + 0x158] = a0\n 21157: u64 [s1 + 0x170] = a1\n 21161: a0 = u64 [s1 + 0x80]\n 21165: i32 a2 = a0 << 0x3\n 21168: a0 = 0xffffffffffffffff\n 21171: a1 = 0xffffffffffffffff\n 21174: ra = 758, jump @1574\n      : @731 [@dyn 379] (gas: 10)\n 21180: u64 [s1 + 0x168] = a0\n 21184: u64 [s1 + 0x160] = a1\n 21188: a1 = u64 [s1 + 0x158]\n 21192: a0 = a0 | a1\n 21195: u64 [s1 + 0x158] = a0\n 21199: a0 = u64 [s1 + 0x198]\n 21203: i32 a2 = a0 + 0xffffffffffffff80\n 21206: a0 = 0xffffffffffffffff\n 21209: a1 = 0xffffffffffffffff\n 21212: ra = 760, jump @1574\n      : @732 [@dyn 380] (gas: 38)\n 21218: a4 = u64 [s1 + 0x198]\n 21222: a2 = a4 <u 0x80\n 21226: a3 = u64 [s1 + 0x158]\n 21230: a0 = a3 if a2 != 0\n 21233: a5 = u64 [s1 + 0x160]\n 21237: a3 = u64 [s1 + 0x170]\n 21241: a3 = a3 | a5\n 21244: a3 = a1 if a2 == 0\n 21247: a0 = 0xffffffffffffffff if a4 == 0\n 21250: a3 = 0xffffffffffffffff if a4 == 0\n 21253: a5 = 0 if a2 == 0\n 21255: a4 = u64 [s1 + 0x168]\n 21259: a4 = 0 if a2 == 0\n 21261: a1 = u64 [s1 + 0x138]\n 21265: a1 = a1 & ~a3\n 21268: a2 = u64 [s1 + 0x140]\n 21272: a0 = a2 & ~a0\n 21275: a2 = u64 [s1 + 0x148]\n 21279: a2 = a2 & ~a4\n 21282: a3 = u64 [s1 + 0x150]\n 21286: a3 = a3 & ~a5\n 21289: a5 = s1 + 0x100\n 21293: a4 = u64 [a5 + 0x78]\n 21296: a0 = a0 | a4\n 21299: a4 = u64 [a5 + 0x80]\n 21303: a1 = a1 | a4\n 21306: a4 = u64 [a5 + 0x88]\n 21310: a3 = a3 | a4\n 21313: a4 = u64 [a5 + 0x90]\n 21317: a2 = a2 | a4\n 21320: a4 = s1 + 0x2918\n 21324: a5 = a4 + 0x500\n 21328: u64 [a5 + 0xb8] = a2\n 21332: u64 [a5 + 0xc0] = a3\n 21336: u64 [a5 + 0xb0] = a1\n 21340: u64 [a5 + 0xa8] = a0\n 21344: a0 = 0x2ec0\n 21348: fallthrough\n      : @733 (gas: 3)\n 21349: a1 = s1 + a0\n 21352: a0 = u64 [s1 + 0x40]\n 21355: ra = 762, jump @28\n      : @734 [@dyn 381] (gas: 8)\n 21361: a0 = sp + 0xffffffffffffffe0\n 21364: a5 = a0 & 0xffffffffffffffe0\n 21367: sp = a5\n 21369: a1 = u64 [s1 + 0x50]\n 21372: a0 = a1 + 0x2\n 21375: a1 = a0 <u a1\n 21378: a3 = u64 [s1 + 0x58]\n 21381: t0 = 764, jump @1532\n      : @735 [@dyn 382] (gas: 13)\n 21387: a1 = u64 [s1 + 0x68]\n 21390: a3 = a3 + a1\n 21393: a1 = a3 <u a1\n 21396: a4 = u64 [s1 + 0x60]\n 21399: a1 = a1 + a4\n 21402: u64 [s1 + 0x198] = a5\n 21406: u64 [a5 + 0x10] = a3\n 21409: u64 [a5 + 0x8] = a2\n 21412: u64 [a5] = a0\n 21414: u64 [a5 + 0x18] = a1\n 21417: a0 = s1 + 0x20c0\n 21421: a1 = u64 [s1 + 0x78]\n 21424: ra = 766, jump @22\n      : @736 [@dyn 383] (gas: 7)\n 21430: a0 = s1 + 0x1918\n 21434: a0 = u64 [a0 + 0x7a8]\n 21438: a0 = a0 & 0xffffffffffffffff\n 21441: u64 [s1 + 0x190] = a0\n 21445: a0 = s1 + 0x20a0\n 21449: a1 = u64 [s1 + 0x198]\n 21453: ra = 768, jump @26\n      : @737 [@dyn 384] (gas: 15)\n 21459: a2 = s1 + 0x1918\n 21463: a3 = a2 + 0x700\n 21467: a0 = u64 [a3 + 0xa0]\n 21471: a1 = u64 [a3 + 0x98]\n 21475: a2 = u64 [a3 + 0x90]\n 21479: a3 = s1 + 0x2918\n 21483: a4 = u64 [s1 + 0x190]\n 21487: a5 = a3 + 0x500\n 21491: u64 [a5 + 0xc8] = a4\n 21495: u64 [a5 + 0xe0] = a0\n 21499: u64 [a5 + 0xd8] = a1\n 21503: u64 [a5 + 0xd0] = a2\n 21507: a1 = s1 + 0x2ee0\n 21511: a0 = u64 [s1 + 0x198]\n 21515: ra = 770, jump @28\n      : @738 [@dyn 385] (gas: 3)\n 21521: a0 = s1 + 0x2080\n 21525: a1 = u64 [s1 + 0x28]\n 21528: ra = 772, jump @22\n      : @739 [@dyn 386] (gas: 14)\n 21534: a3 = s1 + 0x1918\n 21538: a4 = a3 + 0x700\n 21542: a0 = u64 [a4 + 0x80]\n 21546: a1 = u64 [a4 + 0x70]\n 21549: a2 = u64 [a4 + 0x78]\n 21552: a3 = u64 [a4 + 0x68]\n 21555: a0 = a0 | a1\n 21558: a2 = a2 | a3\n 21561: a0 = a0 | a2\n 21564: a0 = a0 >u 0\n 21566: u64 [s1 + 0x190] = a0\n 21570: a0 = s1 + 0x2060\n 21574: a1 = u64 [s1 + 0x198]\n 21578: ra = 774, jump @26\n      : @740 [@dyn 387] (gas: 18)\n 21584: a3 = s1 + 0x1918\n 21588: a4 = a3 + 0x700\n 21592: a0 = u64 [a4 + 0x50]\n 21595: a1 = u64 [a4 + 0x48]\n 21598: a2 = u64 [a4 + 0x60]\n 21601: a3 = u64 [a4 + 0x58]\n 21604: a0 = a0 & 0xffffffffffffff00\n 21608: a4 = u64 [s1 + 0x190]\n 21612: a0 = a0 | a4\n 21615: a4 = s1 + 0x2918\n 21619: u64 [a4 + 0x600] = a2\n 21623: a2 = a4 + 0x500\n 21627: u64 [a2 + 0xf8] = a3\n 21631: u64 [a2 + 0xe8] = a1\n 21635: u64 [a2 + 0xf0] = a0\n 21639: a1 = s1 + 0x2f00\n 21643: a0 = u64 [s1 + 0x198]\n 21647: ra = 776, jump @28\n      : @741 [@dyn 388] (gas: 6)\n 21653: a0 = u64 [s1 + 0xc8]\n 21657: ra = 0x30a\n 21661: ecalli 4 // 'caller'\n 21663: a2 = u64 [s1 + 0xe8]\n 21667: t0 = 0x30c\n 21671: jump @1490\n      : @742 [@dyn 389] (gas: 2)\n 21674: a2 = u64 [s1 + 0xe8]\n 21678: t0 = 780, jump @1490\n      : @743 [@dyn 390] (gas: 8)\n 21684: u64 [a2 + 1856] = 0\n 21688: a4 = a2 + 0x700\n 21692: u64 [a4 + 0x38] = a1\n 21695: u64 [a4 + 0x30] = a0\n 21698: a1 = s1 + 0x2040\n 21702: u64 [a4 + 0x28] = a3\n 21705: a0 = 0\n 21707: ra = 782, jump @24\n      : @744 [@dyn 391] (gas: 3)\n 21713: t0 = 0x310\n 21717: a1 = s1 + 0x1918\n 21721: fallthrough\n      : @745 [@dyn 392] (gas: 8)\n 21722: u64 [a1 + 1824] = 0\n 21726: u64 [a1 + 1816] = 0\n 21730: u64 [a1 + 1800] = 0x1\n 21735: a2 = a1\n 21737: a0 = 0x20\n 21740: a1 = s1 + 0x2020\n 21744: u64 [a2 + 1808] = 0\n 21748: ra = 786, jump @24\n      : @746 [@dyn 393] (gas: 1)\n 21754: t0 = 788, jump @1542\n      : @747 [@dyn 394] (gas: 3)\n 21760: a2 = u64 [s1 + 0xa8]\n 21764: a0 = i32 [a2]\n 21766: jump @749 if a0 >u 63\n      : @748 (gas: 2)\n 21770: u32 [a2 + 0] = 0x40\n 21773: fallthrough\n      : @749 (gas: 11)\n 21774: a0 = sp + 0xffffffffffffffe0\n 21777: a0 = a0 & 0xffffffffffffffe0\n 21780: u64 [s1 + 0x190] = a0\n 21784: sp = a0\n 21786: i32 a2 = a0 + 0\n 21788: a1 = 0x40\n 21791: a0 = u64 [s1 + 0xa0]\n 21795: ra = 0x316\n 21799: ecalli 8 // 'hash_keccak_256'\n 21801: t0 = 0x318\n 21805: jump @1533\n      : @750 [@dyn 395] (gas: 1)\n 21808: t0 = 792, jump @1533\n      : @751 [@dyn 396] (gas: 2)\n 21814: a4 = a3 + 0x3\n 21817: t0 = 794, jump @1506\n      : @752 [@dyn 397] (gas: 7)\n 21823: a1 = u64 [s1 + 0x198]\n 21827: u64 [a1] = a4\n 21829: u64 [a1 + 0x8] = a5\n 21832: u64 [a1 + 0x10] = a2\n 21835: u64 [a1 + 0x18] = a0\n 21838: a0 = s1 + 0x2000\n 21842: ra = 796, jump @26\n      : @753 [@dyn 398] (gas: 9)\n 21848: a0 = s1 + 0x1918\n 21852: a0 = u64 [a0 + 0x6e8]\n 21856: a0 = a0 + 0x1\n 21859: a1 = u64 [s1 + 0xe0]\n 21863: a0 = a0 & a1\n 21866: u64 [s1 + 0x190] = a0\n 21870: a0 = s1 + 0x1fe0\n 21874: a1 = u64 [s1 + 0x198]\n 21878: ra = 798, jump @26\n      : @754 [@dyn 399] (gas: 2)\n 21884: a0 = 0x2000\n 21888: t0 = 800, jump @1563\n      : @755 [@dyn 400] (gas: 5)\n 21894: a0 = u64 [a4 + 0xd0]\n 21898: a1 = u64 [a4 + 0xd8]\n 21902: a2 = u64 [a4 + 0xe0]\n 21906: a3 = u64 [a4 + 0xc8]\n 21910: t0 = 802, jump @1538\n      : @756 [@dyn 401] (gas: 8)\n 21916: a5 = a4 + 0x600\n 21920: u64 [a5 + 0x20] = a2\n 21923: u64 [a5 + 0x18] = a1\n 21926: u64 [a5 + 0x10] = a0\n 21929: u64 [a5 + 0x8] = a3\n 21932: a1 = s1 + 0x2f20\n 21936: a0 = u64 [s1 + 0x198]\n 21940: ra = 804, jump @28\n      : @757 [@dyn 402] (gas: 3)\n 21946: a0 = s1 + 0x1fc0\n 21950: a1 = 0x40\n 21953: ra = 806, jump @22\n      : @758 [@dyn 403] (gas: 3)\n 21959: t0 = 0x328\n 21963: a2 = s1 + 0x1918\n 21967: fallthrough\n      : @759 [@dyn 404] (gas: 17)\n 21968: a5 = a2 + 0x600\n 21972: a3 = u64 [a5 + 0xc0]\n 21976: a4 = u64 [a5 + 0xb8]\n 21980: a1 = u64 [a5 + 0xb0]\n 21984: a0 = u64 [a5 + 0xa8]\n 21988: a5 = s1 + 0x100\n 21992: u64 [a5 + 0x98] = a1\n 21996: u64 [a5 + 0x88] = a3\n 22000: a3 = a3 | a1\n 22003: a1 = a0 | a4\n 22006: a1 = a1 | a3\n 22009: a1 = a1 >> 0x20\n 22012: u64 [a5 + 0x90] = a4\n 22016: a3 = a3 | a4\n 22019: a3 = a3 << 0x20\n 22022: a1 = a1 | a3\n 22025: jump @775 if a1 != 0\n      : @760 (gas: 7)\n 22029: u64 [a2 + 1696] = 0\n 22033: u64 [a2 + 1688] = 0\n 22037: u64 [a2 + 1680] = 0\n 22041: a1 = s1 + 0x1fa0\n 22045: u64 [a2 + 1672] = 0x20\n 22050: u64 [s1 + 0x180] = a0\n 22054: ra = 810, jump @24\n      : @761 [@dyn 405] (gas: 14)\n 22060: a3 = s1 + 0x100\n 22064: a0 = u64 [a3 + 0x88]\n 22068: a1 = u64 [a3 + 0x90]\n 22072: a1 = a1 | a0\n 22075: a0 = 0x100000000\n 22085: u64 [a3 + 0x78] = a0\n 22088: a0 = 0xffffffe0\n 22098: a2 = u64 [a3 + 0x80]\n 22102: a0 = a2 <u a0\n 22105: a2 = u64 [a3 + 0x98]\n 22109: a0 = 0 if a2 != 0\n 22111: u64 [a3 + 0x70] = a1\n 22114: a0 = 0 if a1 != 0\n 22116: jump @775 if a0 == 0\n      : @762 (gas: 14)\n 22120: a0 = u64 [s1 + 0x180]\n 22124: i32 a0 = a0 + 0x20\n 22127: a2 = s1 + 0x1918\n 22131: a1 = u64 [s1 + 0xc0]\n 22135: a4 = a2 + 0x600\n 22139: u64 [a4 + 0x68] = a1\n 22142: a1 = u64 [s1 + 0xb0]\n 22146: u64 [a4 + 0x70] = a1\n 22149: a1 = u64 [s1 + 0xb8]\n 22153: u64 [a4 + 0x78] = a1\n 22156: a1 = s1 + 0x1f80\n 22160: a3 = u64 [s1 + 0xf0]\n 22164: u64 [a4 + 0x80] = a3\n 22168: ra = 812, jump @24\n      : @763 [@dyn 406] (gas: 9)\n 22174: a0 = u64 [s1 + 0x178]\n 22178: a0 = a0 + 0xffffffffffffffdc\n 22181: a1 = u64 [s1 + 0xd0]\n 22185: a0 = a1 <u a0\n 22188: a1 = u64 [s1 + 0xd8]\n 22192: a0 = 0 if a1 != 0\n 22194: a1 = u64 [s1 + 0x98]\n 22198: a0 = 0 if a1 != 0\n 22200: jump @775 if a0 == 0\n      : @764 (gas: 12)\n 22204: a0 = u64 [s1 + 0xc0]\n 22208: a2 = u64 [s1 + 0xb8]\n 22212: a0 = a0 | a2\n 22215: a1 = u64 [s1 + 0xf0]\n 22219: a3 = u64 [s1 + 0xb0]\n 22223: a1 = a1 | a3\n 22226: a0 = a0 | a1\n 22229: a0 = a0 >> 0x20\n 22232: a1 = a1 | a2\n 22235: a1 = a1 << 0x20\n 22238: a0 = a0 | a1\n 22241: jump @775 if a0 != 0\n      : @765 (gas: 10)\n 22245: a1 = 0xffffffc0\n 22255: a2 = s1 + 0x100\n 22259: a0 = u64 [a2 + 0x80]\n 22263: u64 [a2 + 0x78] = a1\n 22266: a0 = a0 <u a1\n 22269: a1 = u64 [a2 + 0x98]\n 22273: a0 = 0 if a1 != 0\n 22275: a1 = u64 [a2 + 0x70]\n 22278: a0 = 0 if a1 != 0\n 22280: jump @775 if a0 == 0\n      : @766 (gas: 4)\n 22284: a0 = u64 [s1 + 0x180]\n 22288: i32 a0 = a0 + 0x40\n 22291: a1 = u64 [s1 + 0x90]\n 22295: ra = 814, jump @37\n      : @767 [@dyn 407] (gas: 5)\n 22301: i32 a0 = a0 + 0\n 22303: a1 = u64 [s1 + 0x90]\n 22307: a2 = u64 [s1 + 0x88]\n 22311: ecalli 1 // 'call_data_copy'\n 22313: fallthrough\n      : @768 (gas: 28)\n 22314: a1 = u64 [s1 + 0xc0]\n 22318: a0 = u64 [s1 + 0x180]\n 22322: a0 = a0 + a1\n 22325: a1 = a0 <u a1\n 22328: a4 = u64 [s1 + 0xb0]\n 22332: a2 = u64 [s1 + 0x198]\n 22336: a2 = a2 + a4\n 22339: a2 = a2 + a1\n 22342: a3 = a2 ^ a4\n 22345: a4 = a2 <u a4\n 22348: a4 = a1 if a3 == 0\n 22351: a1 = u64 [s1 + 0xf0]\n 22355: a3 = u64 [s1 + 0x188]\n 22359: a1 = a1 + a3\n 22362: a5 = u64 [s1 + 0xb8]\n 22366: a3 = u64 [s1 + 0x190]\n 22370: a3 = a3 + a5\n 22373: a5 = a3 <u a5\n 22376: a1 = a1 + a5\n 22379: a4 = a4 + a3\n 22382: a3 = a4 <u a3\n 22385: a1 = a1 + a3\n 22388: a1 = a1 | a4\n 22391: a3 = u64 [s1 + 0x178]\n 22395: a3 = a0 <u a3\n 22398: a3 = 0 if a2 != 0\n 22400: a3 = 0 if a1 != 0\n 22402: jump @775 if a3 == 0\n      : @769 (gas: 8)\n 22406: i32 a0 = a0 + 0x40\n 22409: a2 = s1 + 0x1918\n 22413: u64 [a2 + 1632] = 0\n 22417: u64 [a2 + 1624] = 0\n 22421: u64 [a2 + 1616] = 0\n 22425: a1 = s1 + 0x1f60\n 22429: u64 [a2 + 1608] = 0\n 22433: ra = 816, jump @24\n      : @770 [@dyn 408] (gas: 6)\n 22439: a0 = u64 [s1 + 0xc8]\n 22443: ra = 0x332\n 22447: ecalli 4 // 'caller'\n 22449: a2 = u64 [s1 + 0xe8]\n 22453: t0 = 0x334\n 22457: jump @1494\n      : @771 [@dyn 409] (gas: 2)\n 22460: a2 = u64 [s1 + 0xe8]\n 22464: t0 = 820, jump @1494\n      : @772 [@dyn 410] (gas: 36)\n 22470: t0 = a1 | a0\n 22473: a3 = a3 >> 0x20\n 22476: a1 = reverse a2\n 22478: a2 = a1 << 0x20\n 22481: a2 = a2 | a3\n 22484: a3 = a1 >> 0x20\n 22487: a1 = u64 [s1 + 0xc0]\n 22491: a1 = a1 + 0x1f\n 22494: a1 = a1 & 0xe0\n 22498: a1 = a1 + 0x40\n 22501: a4 = u64 [0x20020]\n 22506: a5 = u64 [0x20028]\n 22511: a0 = s1 + 0x1918\n 22515: u64 [a0 + 0x640] = a4\n 22519: a4 = u64 [0x20030]\n 22524: u64 [a0 + 0x638] = a5\n 22528: u64 [a0 + 1536] = 0\n 22532: a5 = u64 [s1 + 0x108]\n 22536: u64 [a0 + 0x5f8] = a5\n 22540: u64 [a0 + 0x630] = a4\n 22544: a4 = u64 [0x20038]\n 22549: a5 = u64 [s1 + 0xf8]\n 22553: u64 [a0 + 0x5f0] = a5\n 22557: a5 = u64 [s1 + 0x100]\n 22561: u64 [a0 + 0x5e8] = a5\n 22565: u64 [a0 + 1568] = 0\n 22569: a5 = a0 + 0x600\n 22573: u64 [a5 + 0x28] = a4\n 22576: u64 [a5 + 0x18] = a3\n 22579: u64 [a5 + 0x10] = a2\n 22582: a2 = s1 + 0x1f40\n 22586: a3 = s1 + 0x1f20\n 22590: a4 = s1 + 0x1f00\n 22594: u64 [a0 + 0x608] = t0\n 22598: a0 = u64 [s1 + 0x180]\n 22602: ra = 822, jump @31\n      : @773 [@dyn 411] (gas: 3)\n 22608: a0 = s1 + 0x1ee0\n 22612: a1 = 0x40\n 22615: ra = 824, jump @22\n      : @774 [@dyn 412] (gas: 14)\n 22621: a3 = s1 + 0x1918\n 22625: a5 = a3 + 0x500\n 22629: a0 = u64 [a5 + 0xe0]\n 22633: a1 = u64 [a5 + 0xd8]\n 22637: a2 = u64 [a5 + 0xd0]\n 22641: a4 = u64 [a5 + 0xc8]\n 22645: a0 = a0 | a2\n 22648: a2 = a4 | a1\n 22651: a2 = a2 | a0\n 22654: a2 = a2 >> 0x20\n 22657: a0 = a0 | a1\n 22660: a0 = a0 << 0x20\n 22663: a0 = a0 | a2\n 22666: jump @880 if a0 == 0\n      : @775 (gas: 1)\n 22670: trap\n      : @776 (gas: 6)\n 22671: a1 = 0x20180\n 22676: i32 a1 = a1 + 0\n 22678: a0 = 0x1\n 22681: a2 = 0\n 22683: ecalli 13 // 'seal_return'\n 22685: jump @1039\n      : @777 (gas: 6)\n 22688: a1 = 0x20180\n 22693: i32 a1 = a1 + 0\n 22695: a0 = 0x1\n 22698: a2 = 0\n 22700: ecalli 13 // 'seal_return'\n 22702: jump @1039\n      : @778 (gas: 6)\n 22705: a1 = 0x20180\n 22710: i32 a1 = a1 + 0\n 22712: a0 = 0x1\n 22715: a2 = 0\n 22717: ecalli 13 // 'seal_return'\n 22719: jump @1039\n      : @779 (gas: 6)\n 22722: a1 = 0x20180\n 22727: i32 a1 = a1 + 0\n 22729: a0 = 0x1\n 22732: a2 = 0\n 22734: ecalli 13 // 'seal_return'\n 22736: jump @1039\n      : @780 (gas: 6)\n 22739: a1 = 0x20180\n 22744: i32 a1 = a1 + 0\n 22746: a0 = 0x1\n 22749: a2 = 0\n 22751: ecalli 13 // 'seal_return'\n 22753: jump @1039\n      : @781 (gas: 6)\n 22756: a1 = 0x20180\n 22761: i32 a1 = a1 + 0\n 22763: a0 = 0x1\n 22766: a2 = 0\n 22768: ecalli 13 // 'seal_return'\n 22770: jump @1039\n      : @782 (gas: 8)\n 22773: u64 [s1 + 1040] = 0\n 22777: u64 [s1 + 1032] = 0\n 22781: u64 [s1 + 1024] = 0\n 22785: a0 = 0x2c5211c600000000\n 22795: a1 = s1 + 0x400\n 22799: u64 [s1 + 0x418] = a0\n 22803: a0 = 0\n 22805: ra = 826, jump @24\n      : @783 [@dyn 413] (gas: 2)\n 22811: a1 = i32 [0x20170]\n 22816: jump @785 if a1 >u 31\n      : @784 (gas: 3)\n 22820: u32 [0x20170] = 0x20\n 22826: a1 = 0x20180\n 22831: jump @856\n      : @785 (gas: 2)\n 22834: a1 = 0x20180\n 22839: jump @856\n      : @786 (gas: 9)\n 22842: u64 [s1 + 1072] = 0\n 22846: u64 [s1 + 1064] = 0\n 22850: u64 [s1 + 1056] = 0\n 22854: a0 = 0xf4d678b800000000\n 22864: a1 = s1 + 0x420\n 22868: u64 [s1 + 0x438] = a0\n 22872: a0 = 0\n 22874: ra = 0x346\n 22878: jump @24\n      : @787 (gas: 6)\n 22881: a1 = 0x20180\n 22886: i32 a1 = a1 + 0\n 22888: a0 = 0x1\n 22891: a2 = 0\n 22893: ecalli 13 // 'seal_return'\n 22895: jump @1039\n      : @788 (gas: 6)\n 22898: a1 = 0x20180\n 22903: i32 a1 = a1 + 0\n 22905: a0 = 0x1\n 22908: a2 = 0\n 22910: ecalli 13 // 'seal_return'\n 22912: jump @1039\n      : @789 (gas: 3)\n 22915: t0 = 0x33c\n 22919: a2 = s1 + 0x1118\n 22923: fallthrough\n      : @790 [@dyn 414] (gas: 8)\n 22924: u64 [a2 + 344] = 0\n 22928: u64 [a2 + 336] = 0\n 22932: a0 = 0x2c5211c600000000\n 22942: u64 [a2 + 0x160] = a0\n 22946: a1 = s1 + 0x1260\n 22950: u64 [a2 + 328] = 0\n 22954: a0 = 0\n 22956: ra = 830, jump @24\n      : @791 [@dyn 415] (gas: 2)\n 22962: a1 = i32 [0x20170]\n 22967: jump @793 if a1 >u 31\n      : @792 (gas: 3)\n 22971: u32 [0x20170] = 0x20\n 22977: a1 = 0x20180\n 22982: jump @856\n      : @793 (gas: 2)\n 22985: a1 = 0x20180\n 22990: jump @856\n      : @794 (gas: 3)\n 22993: t0 = 0x340\n 22997: a2 = s1 + 0x1118\n 23001: fallthrough\n      : @795 [@dyn 416] (gas: 8)\n 23002: u64 [a2 + 376] = 0\n 23006: u64 [a2 + 368] = 0\n 23010: a0 = 0xf4d678b800000000\n 23020: u64 [a2 + 0x180] = a0\n 23024: a1 = s1 + 0x1280\n 23028: u64 [a2 + 360] = 0\n 23032: a0 = 0\n 23034: ra = 834, jump @24\n      : @796 [@dyn 417] (gas: 3)\n 23040: a0 = u64 [s1 + 0x138]\n 23044: a0 = i32 [a0]\n 23046: jump @809 if a0 >u 31\n      : @797 (gas: 3)\n 23051: a1 = u64 [s1 + 0x138]\n 23055: u32 [a1 + 0] = 0x20\n 23058: jump @809\n      : @798 (gas: 6)\n 23061: a1 = 0x20180\n 23066: i32 a1 = a1 + 0\n 23068: a0 = 0x1\n 23071: a2 = 0\n 23073: ecalli 13 // 'seal_return'\n 23075: jump @1039\n      : @799 (gas: 6)\n 23078: a1 = 0x20180\n 23083: i32 a1 = a1 + 0\n 23085: a0 = 0x1\n 23088: a2 = 0\n 23090: ecalli 13 // 'seal_return'\n 23092: jump @1039\n      : @800 (gas: 6)\n 23095: a1 = 0x20180\n 23100: i32 a1 = a1 + 0\n 23102: a0 = 0x1\n 23105: a2 = 0\n 23107: ecalli 13 // 'seal_return'\n 23109: jump @1039\n      : @801 (gas: 6)\n 23112: a1 = 0x20180\n 23117: i32 a1 = a1 + 0\n 23119: a0 = 0x1\n 23122: a2 = 0\n 23124: ecalli 13 // 'seal_return'\n 23126: jump @1039\n      : @802 (gas: 8)\n 23129: u64 [s1 + 1392] = 0\n 23133: u64 [s1 + 1384] = 0\n 23137: u64 [s1 + 1376] = 0\n 23141: a0 = 0x2c5211c600000000\n 23151: a1 = s1 + 0x560\n 23155: u64 [s1 + 0x578] = a0\n 23159: a0 = 0\n 23161: ra = 836, jump @24\n      : @803 [@dyn 418] (gas: 2)\n 23167: a1 = i32 [0x20170]\n 23172: jump @805 if a1 >u 31\n      : @804 (gas: 3)\n 23176: u32 [0x20170] = 0x20\n 23182: a1 = 0x20180\n 23187: jump @856\n      : @805 (gas: 2)\n 23190: a1 = 0x20180\n 23195: jump @856\n      : @806 (gas: 8)\n 23198: u64 [s1 + 1424] = 0\n 23202: u64 [s1 + 1416] = 0\n 23206: u64 [s1 + 1408] = 0\n 23210: a0 = 0xf4d678b800000000\n 23220: a1 = s1 + 0x580\n 23224: u64 [s1 + 0x598] = a0\n 23228: a0 = 0\n 23230: ra = 838, jump @24\n      : @807 [@dyn 419] (gas: 3)\n 23236: a0 = u64 [s1 + 0x140]\n 23240: a0 = i32 [a0]\n 23242: jump @809 if a0 >u 31\n      : @808 (gas: 3)\n 23246: a1 = u64 [s1 + 0x140]\n 23250: u32 [a1 + 0] = 0x20\n 23253: fallthrough\n      : @809 (gas: 5)\n 23254: a0 = 0x1\n 23257: a2 = 0x4\n 23260: a1 = u64 [s1 + 0x148]\n 23264: ecalli 13 // 'seal_return'\n 23266: fallthrough\n      : @810 (gas: 6)\n 23267: a1 = 0x20180\n 23272: i32 a1 = a1 + 0\n 23274: a0 = 0x1\n 23277: a2 = 0\n 23279: ecalli 13 // 'seal_return'\n 23281: jump @1039\n      : @811 (gas: 6)\n 23284: a1 = 0x20180\n 23289: i32 a1 = a1 + 0\n 23291: a0 = 0x1\n 23294: a2 = 0\n 23296: ecalli 13 // 'seal_return'\n 23298: jump @1039\n      : @812 (gas: 6)\n 23301: a1 = 0x20180\n 23306: i32 a1 = a1 + 0\n 23308: a0 = 0x1\n 23311: a2 = 0\n 23313: ecalli 13 // 'seal_return'\n 23315: jump @1039\n      : @813 (gas: 6)\n 23318: a1 = 0x20180\n 23323: i32 a1 = a1 + 0\n 23325: a0 = 0x1\n 23328: a2 = 0\n 23330: ecalli 13 // 'seal_return'\n 23332: jump @1039\n      : @814 (gas: 6)\n 23335: a1 = 0x20180\n 23340: i32 a1 = a1 + 0\n 23342: a0 = 0x1\n 23345: a2 = 0\n 23347: ecalli 13 // 'seal_return'\n 23349: jump @1039\n      : @815 (gas: 6)\n 23352: a1 = 0x20180\n 23357: i32 a1 = a1 + 0\n 23359: a0 = 0x1\n 23362: a2 = 0\n 23364: ecalli 13 // 'seal_return'\n 23366: jump @1039\n      : @816 (gas: 6)\n 23369: a1 = 0x20180\n 23374: i32 a1 = a1 + 0\n 23376: a0 = 0x1\n 23379: a2 = 0\n 23381: ecalli 13 // 'seal_return'\n 23383: jump @1039\n      : @817 (gas: 6)\n 23386: a1 = 0x20180\n 23391: i32 a1 = a1 + 0\n 23393: a0 = 0x1\n 23396: a2 = 0\n 23398: ecalli 13 // 'seal_return'\n 23400: jump @1039\n      : @818 (gas: 6)\n 23403: a1 = 0x20180\n 23408: i32 a1 = a1 + 0\n 23410: a0 = 0x1\n 23413: a2 = 0\n 23415: ecalli 13 // 'seal_return'\n 23417: jump @1039\n      : @819 (gas: 6)\n 23420: a1 = 0x20180\n 23425: i32 a1 = a1 + 0\n 23427: a0 = 0x1\n 23430: a2 = 0\n 23432: ecalli 13 // 'seal_return'\n 23434: jump @1039\n      : @820 (gas: 6)\n 23437: a1 = 0x20180\n 23442: i32 a1 = a1 + 0\n 23444: a0 = 0x1\n 23447: a2 = 0\n 23449: ecalli 13 // 'seal_return'\n 23451: jump @1039\n      : @821 (gas: 2)\n 23454: a0 = 0x1918\n 23458: t0 = 840, jump @1530\n      : @822 [@dyn 420] (gas: 5)\n 23464: i32 a1 = a1 + 0xfffffffffffffe00\n 23468: a1 = a1 + s1\n 23471: u64 [a2 + 0x500] = a0\n 23475: a0 = 0\n 23477: ra = 842, jump @24\n      : @823 [@dyn 421] (gas: 2)\n 23483: a1 = s1 + 0x1918\n 23487: t0 = 844, jump @1562\n      : @824 [@dyn 422] (gas: 5)\n 23493: i32 a1 = a1 + 0xfffffffffffffde0\n 23497: a1 = a1 + s1\n 23500: u64 [a2 + 1232] = 0\n 23504: ra = 0x35e\n 23508: jump @24\n      : @825 (gas: 6)\n 23511: a1 = 0x20180\n 23516: i32 a1 = a1 + 0\n 23518: a0 = 0x1\n 23521: a2 = 0\n 23523: ecalli 13 // 'seal_return'\n 23525: jump @1039\n      : @826 (gas: 6)\n 23528: a1 = 0x20180\n 23533: i32 a1 = a1 + 0\n 23535: a0 = 0x1\n 23538: a2 = 0\n 23540: ecalli 13 // 'seal_return'\n 23542: jump @1039\n      : @827 (gas: 6)\n 23545: a1 = 0x20180\n 23550: i32 a1 = a1 + 0\n 23552: a0 = 0x1\n 23555: a2 = 0\n 23557: ecalli 13 // 'seal_return'\n 23559: jump @1039\n      : @828 (gas: 9)\n 23562: a2 = s1 + 0x2118\n 23566: u64 [a2 + 1208] = 0\n 23570: u64 [a2 + 1200] = 0\n 23574: a0 = 0x2c5211c600000000\n 23584: u64 [a2 + 0x4c0] = a0\n 23588: a1 = s1 + 0x25c0\n 23592: u64 [a2 + 1192] = 0\n 23596: a0 = 0\n 23598: ra = 846, jump @24\n      : @829 [@dyn 423] (gas: 2)\n 23604: a1 = i32 [0x20170]\n 23609: jump @831 if a1 >u 31\n      : @830 (gas: 3)\n 23613: u32 [0x20170] = 0x20\n 23619: a1 = 0x20180\n 23624: jump @856\n      : @831 (gas: 2)\n 23627: a1 = 0x20180\n 23632: jump @856\n      : @832 (gas: 2)\n 23635: a0 = 0x2118\n 23639: t0 = 848, jump @1530\n      : @833 [@dyn 424] (gas: 5)\n 23645: i32 a1 = a1 + 0x600\n 23649: a1 = a1 + s1\n 23652: u64 [a2 + 0x500] = a0\n 23656: a0 = 0\n 23658: ra = 850, jump @24\n      : @834 [@dyn 425] (gas: 2)\n 23664: a1 = s1 + 0x2118\n 23668: t0 = 852, jump @1562\n      : @835 [@dyn 426] (gas: 4)\n 23674: i32 a1 = a1 + 0x5e0\n 23678: a1 = a1 + s1\n 23681: u64 [a2 + 1232] = 0\n 23685: ra = 854, jump @24\n      : @836 [@dyn 427] (gas: 3)\n 23691: a0 = u64 [s1 + 0x150]\n 23695: a0 = i32 [a0]\n 23697: jump @838 if a0 >u 63\n      : @837 (gas: 3)\n 23701: a1 = u64 [s1 + 0x150]\n 23705: u32 [a1 + 0] = 0x40\n 23708: fallthrough\n      : @838 (gas: 5)\n 23709: a0 = 0x1\n 23712: a2 = 0x24\n 23715: a1 = u64 [s1 + 0x160]\n 23719: ecalli 13 // 'seal_return'\n 23721: fallthrough\n      : @839 (gas: 6)\n 23722: a1 = 0x20180\n 23727: i32 a1 = a1 + 0\n 23729: a0 = 0x1\n 23732: a2 = 0\n 23734: ecalli 13 // 'seal_return'\n 23736: jump @1039\n      : @840 (gas: 6)\n 23739: a1 = 0x20180\n 23744: i32 a1 = a1 + 0\n 23746: a0 = 0x1\n 23749: a2 = 0\n 23751: ecalli 13 // 'seal_return'\n 23753: jump @1039\n      : @841 (gas: 6)\n 23756: a1 = 0x20180\n 23761: i32 a1 = a1 + 0\n 23763: a0 = 0x1\n 23766: a2 = 0\n 23768: ecalli 13 // 'seal_return'\n 23770: jump @1039\n      : @842 (gas: 11)\n 23773: a2 = s1 + 0x7ff\n 23777: a2 = a2 + 0x119\n 23781: u64 [a2 + 1080] = 0\n 23785: u64 [a2 + 1072] = 0\n 23789: a0 = 0xd5b25b6300000000\n 23799: u64 [a2 + 0x440] = a0\n 23803: a1 = s1 + 0x7ff\n 23807: a1 = a1 + 0x541\n 23811: u64 [a2 + 1064] = 0\n 23815: a0 = 0\n 23817: ra = 856, jump @24\n      : @843 [@dyn 428] (gas: 2)\n 23823: a1 = i32 [0x20170]\n 23828: jump @845 if a1 >u 31\n      : @844 (gas: 3)\n 23832: u32 [0x20170] = 0x20\n 23838: a1 = 0x20180\n 23843: jump @856\n      : @845 (gas: 2)\n 23846: a1 = 0x20180\n 23851: jump @856\n      : @846 (gas: 10)\n 23854: a0 = s1 + 0x1918\n 23858: u64 [a0 + 1336] = 0\n 23862: u64 [a0 + 1328] = 0\n 23866: u64 [a0 + 1320] = 0\n 23870: a2 = a0\n 23872: a0 = 0x4e487b7100000000\n 23882: a1 = s1 + 0x1e40\n 23886: u64 [a2 + 0x540] = a0\n 23890: a0 = 0\n 23892: ra = 858, jump @24\n      : @847 [@dyn 429] (gas: 3)\n 23898: t0 = 0x35c\n 23902: a1 = s1 + 0x1918\n 23906: fallthrough\n      : @848 [@dyn 430] (gas: 8)\n 23907: u64 [a1 + 1312] = 0\n 23911: u64 [a1 + 1304] = 0\n 23915: u64 [a1 + 1288] = 0x41\n 23920: a2 = a1\n 23922: a0 = 0x4\n 23925: a1 = s1 + 0x1e20\n 23929: u64 [a2 + 1296] = 0\n 23933: ra = 862, jump @24\n      : @849 [@dyn 431] (gas: 3)\n 23939: a0 = u64 [s1 + 0xa8]\n 23943: a0 = i32 [a0]\n 23945: jump @851 if a0 >u 63\n      : @850 (gas: 3)\n 23949: a1 = u64 [s1 + 0xa8]\n 23953: u32 [a1 + 0] = 0x40\n 23956: fallthrough\n      : @851 (gas: 5)\n 23957: a0 = 0x1\n 23960: a2 = 0x24\n 23963: a1 = u64 [s1 + 0xa0]\n 23967: ecalli 13 // 'seal_return'\n 23969: fallthrough\n      : @852 (gas: 9)\n 23970: a2 = s1 + 0x2118\n 23974: u64 [a2 + 1080] = 0\n 23978: u64 [a2 + 1072] = 0\n 23982: a0 = 0xcc67c13b00000000\n 23992: u64 [a2 + 0x440] = a0\n 23996: a1 = s1 + 0x2540\n 24000: u64 [a2 + 1064] = 0\n 24004: a0 = 0\n 24006: ra = 864, jump @24\n      : @853 [@dyn 432] (gas: 2)\n 24012: a1 = i32 [0x20170]\n 24017: jump @855 if a1 >u 31\n      : @854 (gas: 3)\n 24021: u32 [0x20170] = 0x20\n 24027: a1 = 0x20180\n 24032: jump @856\n      : @855 (gas: 2)\n 24034: a1 = 0x20180\n 24039: fallthrough\n      : @856 (gas: 6)\n 24040: i32 a1 = a1 + 0\n 24042: a0 = 0x1\n 24045: a2 = 0x4\n 24048: ra = 0x362\n 24052: ecalli 13 // 'seal_return'\n 24054: fallthrough\n      : @857 [@dyn 433] (gas: 1)\n 24055: jump @865 if a0 != 2618616686\n      : @858 (gas: 11)\n 24062: a0 = s1 + 0x2918\n 24066: u64 [a0 + 864] = 0\n 24070: u64 [a0 + 856] = 0\n 24074: u64 [a0 + 848] = 0\n 24078: u64 [a0 + 840] = 0\n 24082: a0 = s1 + 0x3000\n 24086: i32 a0 = a0 + 0xfffffffffffffc60\n 24090: ra = 0x364\n 24094: ecalli 16 // 'value_transferred'\n 24096: t0 = 0x366\n 24100: jump @1567\n      : @859 [@dyn 434] (gas: 1)\n 24103: t0 = 870, jump @1567\n      : @860 [@dyn 435] (gas: 1)\n 24109: t0 = 872, jump @1571\n      : @861 [@dyn 436] (gas: 1)\n 24115: jump @881 if a0 == 0\n      : @862 (gas: 6)\n 24119: a1 = 0x20180\n 24124: i32 a1 = a1 + 0\n 24126: a0 = 0x1\n 24129: a2 = 0\n 24131: ecalli 13 // 'seal_return'\n 24133: jump @1039\n      : @863 (gas: 6)\n 24136: a1 = 0x20180\n 24141: i32 a1 = a1 + 0\n 24143: a0 = 0x1\n 24146: a2 = 0\n 24148: ecalli 13 // 'seal_return'\n 24150: jump @1039\n      : @864 (gas: 6)\n 24153: a1 = 0x20180\n 24158: i32 a1 = a1 + 0\n 24160: a0 = 0x1\n 24163: a2 = 0\n 24165: ecalli 13 // 'seal_return'\n 24167: jump @1039\n      : @865 (gas: 1)\n 24170: jump @883 if a0 != 2685688103\n      : @866 (gas: 11)\n 24178: a0 = s1 + 0x2918\n 24182: u64 [a0 + 896] = 0\n 24186: u64 [a0 + 888] = 0\n 24190: u64 [a0 + 880] = 0\n 24194: u64 [a0 + 872] = 0\n 24198: a0 = s1 + 0x3000\n 24202: i32 a0 = a0 + 0xfffffffffffffc80\n 24206: ra = 0x36a\n 24210: ecalli 16 // 'value_transferred'\n 24212: t0 = 0x36c\n 24216: jump @1567\n      : @867 [@dyn 437] (gas: 1)\n 24219: t0 = 876, jump @1567\n      : @868 [@dyn 438] (gas: 1)\n 24225: t0 = 878, jump @1526\n      : @869 [@dyn 439] (gas: 1)\n 24231: jump @888 if a0 == 0\n      : @870 (gas: 6)\n 24235: a1 = 0x20180\n 24240: i32 a1 = a1 + 0\n 24242: a0 = 0x1\n 24245: a2 = 0\n 24247: ecalli 13 // 'seal_return'\n 24249: jump @1039\n      : @871 (gas: 2)\n 24252: u64 [s1 + 344] = 0\n 24256: fallthrough\n      : @872 (gas: 5)\n 24257: a0 = u64 [s1 + 0x168]\n 24261: a0 = a0 << 0x1\n 24264: a4 = u64 [s1 + 0x158]\n 24268: a4 = a4 | a0\n 24271: fallthrough\n      : @873 (gas: 7)\n 24272: u64 [s1 + 984] = 0\n 24276: u64 [s1 + 976] = 0\n 24280: u64 [s1 + 968] = 0\n 24284: a1 = s1 + 0x3c0\n 24288: u64 [s1 + 0x3c0] = a4\n 24292: a0 = u64 [s1 + 0x118]\n 24296: ra = 880, jump @24\n      : @874 [@dyn 440] (gas: 3)\n 24302: a1 = 0x20\n 24305: a0 = u64 [s1 + 0x118]\n 24309: ra = 882, jump @37\n      : @875 [@dyn 441] (gas: 5)\n 24315: i32 a1 = a0 + 0\n 24317: a2 = 0x20\n 24320: a0 = 0\n 24322: ecalli 13 // 'seal_return'\n 24324: jump @877\n      : @876 (gas: 4)\n 24326: a2 = 0x20\n 24329: a0 = 0\n 24331: ecalli 13 // 'seal_return'\n 24333: fallthrough\n      : @877 (gas: 10)\n 24334: a0 = s1 + 0x1918\n 24338: u64 [a0 + 1400] = 0\n 24342: u64 [a0 + 1392] = 0\n 24346: u64 [a0 + 1384] = 0\n 24350: a2 = a0\n 24352: a0 = 0x4e487b7100000000\n 24362: a1 = s1 + 0x1e80\n 24366: u64 [a2 + 0x580] = a0\n 24370: a0 = 0\n 24372: ra = 884, jump @24\n      : @878 [@dyn 442] (gas: 3)\n 24378: t0 = 0x376\n 24382: a1 = s1 + 0x1918\n 24386: fallthrough\n      : @879 [@dyn 443] (gas: 9)\n 24387: u64 [a1 + 1376] = 0\n 24391: u64 [a1 + 1368] = 0\n 24395: u64 [a1 + 1352] = 0x41\n 24400: a2 = a1\n 24402: a0 = 0x4\n 24405: a1 = s1 + 0x1e60\n 24409: u64 [a2 + 1360] = 0\n 24413: ra = 0x35e\n 24417: jump @24\n      : @880 (gas: 15)\n 24420: a3 = a4\n 24422: a0 = s1 + 0x1918\n 24426: u64 [a0 + 1472] = 0\n 24430: a5 = s1 + 0x100\n 24434: a1 = u64 [a5]\n 24436: u64 [a0 + 0x5a8] = a1\n 24440: a1 = u64 [s1 + 0xf8]\n 24444: u64 [a0 + 0x5b0] = a1\n 24448: a1 = s1 + 0x1ec0\n 24452: a2 = u64 [a5 + 0x8]\n 24455: u64 [a0 + 0x5b8] = a2\n 24459: a0 = a4\n 24461: u64 [a5 + 0x98] = a3\n 24465: ra = 0x130\n 24469: jump @24\n      : @881 (gas: 3)\n 24472: a0 = u64 [s1 + 0x198]\n 24476: a0 = i32 [a0]\n 24478: jump @890 if a0 >u 99\n      : @882 (gas: 6)\n 24483: a1 = 0x20180\n 24488: i32 a1 = a1 + 0\n 24490: a0 = 0x1\n 24493: a2 = 0\n 24495: ecalli 13 // 'seal_return'\n 24497: jump @1039\n      : @883 (gas: 1)\n 24500: jump @895 if a0 != 3058722618\n      : @884 (gas: 11)\n 24508: a0 = s1 + 0x2918\n 24512: u64 [a0 + 1024] = 0\n 24516: u64 [a0 + 1016] = 0\n 24520: u64 [a0 + 1008] = 0\n 24524: u64 [a0 + 1000] = 0\n 24528: a0 = s1 + 0x3000\n 24532: i32 a0 = a0 + 0xfffffffffffffd00\n 24536: ra = 0x378\n 24540: ecalli 16 // 'value_transferred'\n 24542: t0 = 0x37a\n 24546: jump @1567\n      : @885 [@dyn 444] (gas: 1)\n 24549: t0 = 890, jump @1567\n      : @886 [@dyn 445] (gas: 8)\n 24555: a0 = u64 [a4 + 0xf8]\n 24559: a1 = u64 [a3 + 0x400]\n 24563: a2 = u64 [a4 + 0xf0]\n 24567: a3 = u64 [a4 + 0xe8]\n 24571: a1 = a1 | a2\n 24574: a0 = a0 | a3\n 24577: a0 = a0 | a1\n 24580: jump @901 if a0 == 0\n      : @887 (gas: 6)\n 24584: a1 = 0x20180\n 24589: i32 a1 = a1 + 0\n 24591: a0 = 0x1\n 24594: a2 = 0\n 24596: ecalli 13 // 'seal_return'\n 24598: jump @1039\n      : @888 (gas: 3)\n 24601: a0 = u64 [s1 + 0x198]\n 24605: a0 = i32 [a0]\n 24607: jump @904 if a0 >u 67\n      : @889 (gas: 6)\n 24612: a1 = 0x20180\n 24617: i32 a1 = a1 + 0\n 24619: a0 = 0x1\n 24622: a2 = 0\n 24624: ecalli 13 // 'seal_return'\n 24626: jump @1039\n      : @890 (gas: 4)\n 24629: a0 = s1 + 0x17a0\n 24633: ra = 0x37c\n 24637: t0 = 0x588\n 24641: jump @1553\n      : @891 [@dyn 446] (gas: 14)\n 24644: a1 = s1 + 0x1118\n 24648: a2 = a1 + 0x600\n 24652: a0 = u64 [a2 + 0x88]\n 24656: u64 [s1 + 0x198] = a0\n 24660: a0 = u64 [a2 + 0x90]\n 24664: u64 [s1 + 0x190] = a0\n 24668: a0 = u64 [a2 + 0x98]\n 24672: u64 [s1 + 0x188] = a0\n 24676: a0 = u64 [a2 + 0xa0]\n 24680: u64 [s1 + 0x180] = a0\n 24684: a0 = s1 + 0x1780\n 24688: ra = 0x37e\n 24692: t0 = 0x58c\n 24696: jump @1569\n      : @892 [@dyn 447] (gas: 14)\n 24699: a1 = s1 + 0x1118\n 24703: a2 = a1 + 0x600\n 24707: a0 = u64 [a2 + 0x68]\n 24710: u64 [s1 + 0x178] = a0\n 24714: a0 = u64 [a2 + 0x70]\n 24717: u64 [s1 + 0x170] = a0\n 24721: a0 = u64 [a2 + 0x78]\n 24724: u64 [s1 + 0x168] = a0\n 24728: a0 = u64 [a2 + 0x80]\n 24732: u64 [s1 + 0x160] = a0\n 24736: a0 = s1 + 0x1760\n 24740: ra = 0x380\n 24744: t0 = 0x592\n 24748: jump @1569\n      : @893 [@dyn 448] (gas: 32)\n 24751: a4 = s1 + 0x1118\n 24755: a5 = a4 + 0x600\n 24759: a0 = u64 [a5 + 0x48]\n 24762: a1 = u64 [a5 + 0x50]\n 24765: a2 = u64 [a5 + 0x58]\n 24768: a3 = u64 [a5 + 0x60]\n 24771: u64 [a5] = a3\n 24773: a3 = a4 + 0x500\n 24777: u64 [a3 + 0xf8] = a2\n 24781: u64 [a3 + 0xf0] = a1\n 24785: u64 [a3 + 0xe8] = a0\n 24789: a4 = s1 + 0x100\n 24793: a0 = u64 [a4 + 0x60]\n 24796: u64 [a5 + 0x20] = a0\n 24799: a0 = u64 [a4 + 0x68]\n 24802: u64 [a5 + 0x18] = a0\n 24805: a0 = u64 [a4 + 0x70]\n 24808: u64 [a5 + 0x10] = a0\n 24811: a0 = u64 [a4 + 0x78]\n 24814: u64 [a5 + 0x8] = a0\n 24817: a0 = u64 [a4 + 0x80]\n 24821: u64 [a5 + 0x40] = a0\n 24824: a0 = u64 [a4 + 0x88]\n 24828: u64 [a5 + 0x38] = a0\n 24831: a0 = u64 [a4 + 0x90]\n 24835: u64 [a5 + 0x30] = a0\n 24838: a0 = s1 + 0x1740\n 24842: a1 = s1 + 0x1720\n 24846: a2 = s1 + 0x1700\n 24850: a3 = u64 [a4 + 0x98]\n 24854: u64 [a5 + 0x28] = a3\n 24857: ra = 898, jump @1351\n      : @894 [@dyn 449] (gas: 6)\n 24863: a1 = 0x20180\n 24868: i32 a1 = a1 + 0\n 24870: a0 = 0\n 24872: a2 = 0\n 24874: ecalli 13 // 'seal_return'\n 24876: jump @1039\n      : @895 (gas: 1)\n 24879: jump @956 if a0 != 235423050\n      : @896 (gas: 11)\n 24887: a0 = s1 + 0x2118\n 24891: u64 [a0 + 1600] = 0\n 24895: u64 [a0 + 1592] = 0\n 24899: u64 [a0 + 1584] = 0\n 24903: u64 [a0 + 1576] = 0\n 24907: a0 = s1 + 0x2000\n 24911: i32 a0 = a0 + 0x740\n 24915: ra = 0x384\n 24919: ecalli 16 // 'value_transferred'\n 24921: t0 = 0x386\n 24925: jump @1566\n      : @897 [@dyn 450] (gas: 1)\n 24928: t0 = 902, jump @1566\n      : @898 [@dyn 451] (gas: 1)\n 24934: t0 = 904, jump @1536\n      : @899 [@dyn 452] (gas: 1)\n 24940: jump @960 if a0 == 0\n      : @900 (gas: 6)\n 24944: a1 = 0x20180\n 24949: i32 a1 = a1 + 0\n 24951: a0 = 0x1\n 24954: a2 = 0\n 24956: ecalli 13 // 'seal_return'\n 24958: jump @1039\n      : @901 (gas: 1)\n 24961: t0 = 906, jump @1552\n      : @902 [@dyn 453] (gas: 1)\n 24967: jump @963 if a1 <u a0\n      : @903 (gas: 6)\n 24971: a1 = 0x20180\n 24976: i32 a1 = a1 + 0\n 24978: a0 = 0x1\n 24981: a2 = 0\n 24983: ecalli 13 // 'seal_return'\n 24985: jump @1039\n      : @904 (gas: 4)\n 24988: a0 = s1 + 0x1b40\n 24992: ra = 0x38c\n 24996: t0 = 0x59c\n 25000: jump @1553\n      : @905 [@dyn 454] (gas: 7)\n 25003: a0 = s1 + 0x1918\n 25007: a0 = u64 [a0 + 0x228]\n 25011: u64 [s1 + 0x190] = a0\n 25015: a0 = s1 + 0x1b20\n 25019: ra = 0x38e\n 25023: t0 = 0x58c\n 25027: jump @1569\n      : @906 [@dyn 455] (gas: 12)\n 25030: a0 = s1 + 0x1918\n 25034: a0 = u64 [a0 + 0x208]\n 25038: u64 [s1 + 0xf0] = a0\n 25042: a0 = 0x30180\n 25047: u64 [s1 + 0x108] = a0\n 25051: i32 a0 = a0 + 0\n 25053: u64 [s1 + 0x100] = a0\n 25057: ra = 0x390\n 25061: ecalli 4 // 'caller'\n 25063: a2 = u64 [s1 + 0x108]\n 25067: t0 = 0x392\n 25071: jump @1490\n      : @907 [@dyn 456] (gas: 2)\n 25074: a2 = u64 [s1 + 0x108]\n 25078: t0 = 914, jump @1490\n      : @908 [@dyn 457] (gas: 8)\n 25084: u64 [a2 + 512] = 0\n 25088: a4 = a2 + 0x100\n 25092: u64 [a4 + 0xf8] = a1\n 25096: u64 [a4 + 0xf0] = a0\n 25100: a1 = s1 + 0x1b00\n 25104: u64 [a4 + 0xe8] = a3\n 25108: a0 = 0\n 25110: ra = 916, jump @24\n      : @909 [@dyn 458] (gas: 3)\n 25116: t0 = 0x396\n 25120: a1 = s1 + 0x1918\n 25124: fallthrough\n      : @910 [@dyn 459] (gas: 8)\n 25125: u64 [a1 + 480] = 0\n 25129: u64 [a1 + 472] = 0\n 25133: u64 [a1 + 456] = 0x2\n 25138: a2 = a1\n 25140: a0 = 0x20\n 25143: a1 = s1 + 0x1ae0\n 25147: u64 [a2 + 464] = 0\n 25151: ra = 920, jump @24\n      : @911 [@dyn 460] (gas: 5)\n 25157: a0 = 0x20170\n 25162: u64 [s1 + 0x118] = a0\n 25166: a0 = i32 [0x20170]\n 25171: a1 = 0x3f\n 25174: jump @913 if a1 <u a0\n      : @912 (gas: 4)\n 25177: a1 = u64 [s1 + 0x118]\n 25181: u32 [a1 + 0] = 0x40\n 25184: t0 = 0x39a\n 25188: jump @1534\n      : @913 (gas: 1)\n 25191: t0 = 922, jump @1534\n      : @914 [@dyn 461] (gas: 10)\n 25197: a0 = 0x20180\n 25202: i32 a0 = a0 + 0\n 25204: i32 a2 = a2 + 0\n 25206: a1 = 0x40\n 25209: u64 [s1 + 0x110] = a0\n 25213: ra = 0x39c\n 25217: ecalli 8 // 'hash_keccak_256'\n 25219: a3 = u64 [s1 + 0x198]\n 25223: t0 = 0x39e\n 25227: jump @1508\n      : @915 [@dyn 462] (gas: 2)\n 25230: a3 = u64 [s1 + 0x198]\n 25234: t0 = 926, jump @1508\n      : @916 [@dyn 463] (gas: 14)\n 25240: u64 [s1 + 0x198] = a0\n 25244: sp = a0\n 25246: a0 = u64 [s1 + 0x190]\n 25250: a0 = a0 << 0x20\n 25253: a2 = a0 >> 0x20\n 25256: a0 = s1 + 0x1918\n 25260: u64 [a0 + 448] = 0\n 25264: u64 [a0 + 440] = 0\n 25268: u64 [a0 + 432] = 0\n 25272: a1 = s1 + 0x1ac0\n 25276: u64 [s1 + 0xf8] = a2\n 25280: u64 [a0 + 0x1a8] = a2\n 25284: a0 = 0\n 25286: ra = 928, jump @24\n      : @917 [@dyn 464] (gas: 14)\n 25292: a0 = u64 [s1 + 0x170]\n 25296: a1 = s1 + 0x1918\n 25300: a2 = a1 + 0x100\n 25304: u64 [a2 + 0xa0] = a0\n 25308: a0 = u64 [s1 + 0x178]\n 25312: u64 [a2 + 0x98] = a0\n 25316: a0 = u64 [s1 + 0x180]\n 25320: u64 [a2 + 0x90] = a0\n 25324: a3 = a1\n 25326: a0 = 0x20\n 25329: a1 = s1 + 0x1aa0\n 25333: a2 = u64 [s1 + 0x188]\n 25337: u64 [a3 + 0x188] = a2\n 25341: ra = 930, jump @24\n      : @918 [@dyn 465] (gas: 3)\n 25347: a0 = u64 [s1 + 0x118]\n 25351: a0 = i32 [a0]\n 25353: jump @920 if a0 >u 63\n      : @919 (gas: 4)\n 25357: a0 = u64 [s1 + 0x118]\n 25361: u32 [a0 + 0] = 0x40\n 25364: t0 = 0x3a4\n 25368: jump @1497\n      : @920 (gas: 1)\n 25371: t0 = 932, jump @1497\n      : @921 [@dyn 466] (gas: 5)\n 25377: ra = 0x3a6\n 25381: ecalli 8 // 'hash_keccak_256'\n 25383: a3 = u64 [s1 + 0x190]\n 25387: t0 = 0x3a8\n 25391: jump @1503\n      : @922 [@dyn 467] (gas: 2)\n 25394: a3 = u64 [s1 + 0x190]\n 25398: t0 = 936, jump @1503\n      : @923 [@dyn 468] (gas: 11)\n 25404: a4 = u64 [s1 + 0x198]\n 25408: u64 [a4 + 0x18] = a3\n 25411: u64 [a4 + 0x10] = a2\n 25414: u64 [a4 + 0x8] = a1\n 25417: u64 [a4] = a0\n 25419: a0 = u64 [s1 + 0x100]\n 25423: ra = 0x3aa\n 25427: ecalli 4 // 'caller'\n 25429: a2 = u64 [s1 + 0x108]\n 25433: t0 = 0x3ac\n 25437: jump @1551\n      : @924 [@dyn 469] (gas: 2)\n 25440: a2 = u64 [s1 + 0x108]\n 25444: t0 = 940, jump @1551\n      : @925 [@dyn 470] (gas: 10)\n 25450: u64 [s1 + 0x190] = a1\n 25454: a0 = a0 >> 0x20\n 25457: a1 = reverse a2\n 25459: u64 [s1 + 0x188] = a1\n 25463: a1 = a1 << 0x20\n 25466: a0 = a0 | a1\n 25469: u64 [s1 + 0x180] = a0\n 25473: a0 = s1 + 0x1a80\n 25477: a1 = u64 [s1 + 0x198]\n 25481: ra = 942, jump @26\n      : @926 [@dyn 471] (gas: 2)\n 25487: a2 = s1 + 0x1918\n 25491: fallthrough\n      : @927 (gas: 19)\n 25492: a0 = u64 [a2 + 0x170]\n 25496: a1 = u32 [a2 + 0x16c]\n 25500: a2 = u64 [a2 + 0x178]\n 25504: a3 = a0 << 0x20\n 25507: a1 = a1 | a3\n 25510: a3 = a2 << 0x20\n 25513: a0 = a0 >> 0x20\n 25516: a0 = a0 | a3\n 25519: a4 = s1 + 0x100\n 25523: a3 = u64 [a4 + 0x80]\n 25527: a0 = a0 ^ a3\n 25530: a3 = u64 [a4 + 0x90]\n 25534: a1 = a1 ^ a3\n 25537: a3 = u64 [a4 + 0x88]\n 25541: a2 = a2 ^ a3\n 25544: a2 = a2 >> 0x20\n 25547: a1 = a1 | a2\n 25550: a0 = a0 | a1\n 25553: jump @1005 if a0 != 0\n      : @928 (gas: 4)\n 25557: a0 = s1 + 0x3000\n 25561: i32 a0 = a0 + 0xfffffffffffffca0\n 25565: ecalli 9 // 'now'\n 25567: fallthrough\n      : @929 (gas: 51)\n 25568: a0 = s1 + 0x2918\n 25572: t0 = u64 [a0 + 0x3a0]\n 25576: a4 = u64 [a0 + 0x398]\n 25580: u64 [s1 + 0x158] = a4\n 25584: t2 = u64 [a0 + 0x390]\n 25588: a3 = u64 [a0 + 0x388]\n 25592: u64 [s1 + 0x140] = a3\n 25596: a0 = clz t0\n 25598: a1 = clz a4\n 25600: a2 = a1 + 0x40\n 25603: a2 = a0 if t0 != 0\n 25606: a0 = clz t2\n 25608: a1 = clz a3\n 25610: a1 = a1 + 0x40\n 25613: a1 = a0 if t2 != 0\n 25616: a0 = a1 + 0x80\n 25620: a3 = a4 | t0\n 25623: a2 = a0 if a3 == 0\n 25626: a5 = a0 <u a1\n 25629: a5 = 0 if a3 != 0\n 25631: a4 = a5 >u 0\n 25633: a0 = a2 <u 0xf0\n 25637: a3 = a0 ^ 0x1\n 25640: a4 = a3 if a5 == 0\n 25643: a0 = a4 <u 0x1\n 25646: ra = a0 + 0xffffffffffffffff\n 25649: t1 = -a4\n 25651: a5 = -a5\n 25653: a3 = a5 - a3\n 25656: a2 = 0xef - a2\n 25660: a5 = t1 >u 0\n 25662: a0 = ra >u 0\n 25664: a0 = a5 if ra == 0\n 25667: a5 = a2 <u 0x100\n 25671: a5 = a5 ^ 0x1\n 25674: a1 = a3 >u 0\n 25676: a5 = a1 if a3 != 0\n 25679: a5 = a0 if a4 != 0\n 25682: u64 [s1 + 0x138] = t2\n 25686: u64 [s1 + 0x150] = t0\n 25690: a0 = t2 | t0\n 25693: a4 = u64 [s1 + 0x140]\n 25697: a1 = u64 [s1 + 0x158]\n 25701: a1 = a1 | a4\n 25704: a0 = a0 | a1\n 25707: a0 = a0 <u 0x1\n 25710: a0 = a0 | a5\n 25713: a1 = a4\n 25715: a1 = 0 if a0 != 0\n 25717: u64 [s1 + 0x198] = a1\n 25721: jump @1009 if a0 != 0\n      : @930 (gas: 1)\n 25725: t0 = 944, jump @1570\n      : @931 [@dyn 472] (gas: 1)\n 25731: jump @1009 if a0 == 0\n      : @932 (gas: 1)\n 25735: t0 = 946, jump @1499\n      : @933 [@dyn 473] (gas: 1)\n 25741: ra = 948, jump @1574\n      : @934 [@dyn 474] (gas: 1)\n 25747: t0 = 950, jump @1557\n      : @935 [@dyn 475] (gas: 1)\n 25753: ra = 952, jump @1579\n      : @936 [@dyn 476] (gas: 1)\n 25759: t0 = 954, jump @1545\n      : @937 [@dyn 477] (gas: 1)\n 25765: ra = 956, jump @1579\n      : @938 [@dyn 478] (gas: 8)\n 25771: u64 [s1 + 0x120] = a0\n 25775: u64 [s1 + 0xe8] = a1\n 25779: a2 = u64 [s1 + 0x160]\n 25783: a0 = a2 <u 0x80\n 25787: u64 [s1 + 0xe0] = a0\n 25791: a0 = u64 [s1 + 0x140]\n 25795: a1 = u64 [s1 + 0x138]\n 25799: ra = 958, jump @1579\n      : @939 [@dyn 479] (gas: 1)\n 25805: t0 = 960, jump @1573\n      : @940 [@dyn 480] (gas: 4)\n 25811: a3 = u64 [s1 + 0xe0]\n 25815: a0 = 0 if a3 == 0\n 25817: u64 [a4 + 0x78] = a0\n 25820: jump @1007 if a1 == 0\n      : @941 (gas: 7)\n 25824: a2 = a3\n 25826: a0 = u64 [s1 + 0x168]\n 25830: a1 = u64 [s1 + 0x128]\n 25834: a0 = a0 | a1\n 25837: a5 = a3\n 25839: a1 = u64 [s1 + 0xe8]\n 25843: t0 = 962, jump @1495\n      : @942 [@dyn 481] (gas: 1)\n 25849: ra = 964, jump @1574\n      : @943 [@dyn 482] (gas: 1)\n 25855: t0 = 966, jump @1556\n      : @944 [@dyn 483] (gas: 1)\n 25861: ra = 968, jump @1574\n      : @945 [@dyn 484] (gas: 2)\n 25867: u64 [s1 + 0xe8] = a0\n 25871: t0 = 970, jump @1549\n      : @946 [@dyn 485] (gas: 1)\n 25877: ra = 972, jump @1579\n      : @947 [@dyn 486] (gas: 1)\n 25883: t0 = 974, jump @1516\n      : @948 [@dyn 487] (gas: 2)\n 25889: a1 = u64 [s1 + 0xe8]\n 25893: t0 = 976, jump @1528\n      : @949 [@dyn 488] (gas: 1)\n 25899: ra = 978, jump @1574\n      : @950 [@dyn 489] (gas: 1)\n 25905: t0 = 980, jump @1507\n      : @951 [@dyn 490] (gas: 1)\n 25911: t0 = 982, jump @1517\n      : @952 [@dyn 491] (gas: 5)\n 25917: t0 = ra <u a2\n 25920: a4 = u64 [s1 + 0x128]\n 25924: a5 = a4 <u a3\n 25927: a5 = t0 if t1 != 0\n 25930: t0 = 984, jump @1518\n      : @953 [@dyn 492] (gas: 20)\n 25936: t0 = a0 | a1\n 25939: a1 = a4 << 0x1\n 25942: a4 = u64 [s1 + 0x170]\n 25946: t1 = a4 >> 0x3f\n 25949: t1 = a1 | t1\n 25952: a1 = a4 << 0x1\n 25955: a4 = u64 [s1 + 0x178]\n 25959: t2 = a4 >> 0x3f\n 25962: a1 = a1 | t2\n 25965: a4 = a4 << 0x1\n 25968: a0 = u64 [s1 + 0x158]\n 25972: a4 = a4 | a0\n 25975: u64 [s1 + 0x178] = a4\n 25979: a0 = u64 [s1 + 0x150]\n 25983: a1 = a1 | a0\n 25986: u64 [s1 + 0x170] = a1\n 25990: a1 = a0 | t1\n 25993: u64 [s1 + 0x160] = a1\n 25997: a0 = a0 | t0\n 26000: t0 = 986, jump @1493\n      : @954 [@dyn 493] (gas: 18)\n 26006: t0 = a4 <u a2\n 26009: a2 = a4 - a2\n 26012: a4 = a3 <u 0x1\n 26015: a5 = a5 - a4\n 26018: a4 = u64 [a0 + 0x88]\n 26022: a4 = a4 - t0\n 26025: a3 = a3 + 0xffffffffffffffff\n 26028: u64 [a0 + 0x90] = a5\n 26032: u64 [a0 + 0x88] = a4\n 26036: t0 = a5 | a4\n 26039: u64 [a0 + 0x98] = a3\n 26043: a4 = a3 | a2\n 26046: a3 = a4 | t0\n 26049: a4 = ra & 0x1\n 26052: u64 [a0 + 0x58] = a4\n 26055: u64 [a0 + 0x80] = a2\n 26059: u64 [s1 + 336] = 0\n 26063: jump @951 if a3 != 0\n      : @955 (gas: 1)\n 26067: jump @1008\n      : @956 (gas: 1)\n 26070: jump @1032 if a0 != 1158823118\n      : @957 (gas: 9)\n 26078: a0 = s1 + 0x2918\n 26082: u64 [a0 + 0] = 0\n 26084: u64 [a0 + 4294967288] = 0\n 26087: u64 [a0 + 4294967280] = 0\n 26090: u64 [a0 + 4294967272] = 0\n 26093: a0 = s1 + 0x3000\n 26097: i32 a0 = a0 + 0xfffffffffffff900\n 26101: ecalli 16 // 'value_transferred'\n 26103: fallthrough\n      : @958 (gas: 10)\n 26104: a3 = s1 + 0x2918\n 26108: a4 = a3 + 0xffffffffffffff00\n 26112: a0 = u64 [a4 + 0xf8]\n 26116: a1 = u64 [a3]\n 26118: a2 = u64 [a4 + 0xf0]\n 26122: a3 = u64 [a4 + 0xe8]\n 26126: a1 = a1 | a2\n 26129: a0 = a0 | a3\n 26132: a0 = a0 | a1\n 26135: jump @1039 if a0 == 0\n      : @959 (gas: 6)\n 26139: a1 = 0x20180\n 26144: i32 a1 = a1 + 0\n 26146: a0 = 0x1\n 26149: a2 = 0\n 26151: ecalli 13 // 'seal_return'\n 26153: jump @1039\n      : @960 (gas: 1)\n 26156: t0 = 988, jump @1552\n      : @961 [@dyn 494] (gas: 1)\n 26162: jump @1041 if a1 <u a0\n      : @962 (gas: 6)\n 26166: a1 = 0x20180\n 26171: i32 a1 = a1 + 0\n 26173: a0 = 0x1\n 26176: a2 = 0\n 26178: ecalli 13 // 'seal_return'\n 26180: jump @1039\n      : @963 (gas: 4)\n 26183: a0 = s1 + 0x1dc0\n 26187: ra = 0x3de\n 26191: t0 = 0x59c\n 26195: jump @1553\n      : @964 [@dyn 495] (gas: 12)\n 26198: a0 = s1 + 0x1918\n 26202: a0 = u64 [a0 + 0x4a8]\n 26206: u64 [s1 + 0x170] = a0\n 26210: a0 = 0x30180\n 26215: u64 [s1 + 0x188] = a0\n 26219: i32 a0 = a0 + 0\n 26221: u64 [s1 + 0x180] = a0\n 26225: ra = 0x3e0\n 26229: ecalli 4 // 'caller'\n 26231: a2 = u64 [s1 + 0x188]\n 26235: t0 = 0x3e2\n 26239: jump @1490\n      : @965 [@dyn 496] (gas: 2)\n 26242: a2 = u64 [s1 + 0x188]\n 26246: t0 = 994, jump @1490\n      : @966 [@dyn 497] (gas: 8)\n 26252: u64 [a2 + 1184] = 0\n 26256: a4 = a2 + 0x400\n 26260: u64 [a4 + 0x98] = a1\n 26264: u64 [a4 + 0x90] = a0\n 26268: a1 = s1 + 0x1da0\n 26272: u64 [a4 + 0x88] = a3\n 26276: a0 = 0\n 26278: ra = 996, jump @24\n      : @967 [@dyn 498] (gas: 3)\n 26284: t0 = 0x3e6\n 26288: a1 = s1 + 0x1918\n 26292: fallthrough\n      : @968 [@dyn 499] (gas: 8)\n 26293: u64 [a1 + 1152] = 0\n 26297: u64 [a1 + 1144] = 0\n 26301: u64 [a1 + 1128] = 0x2\n 26306: a2 = a1\n 26308: a0 = 0x20\n 26311: a1 = s1 + 0x1d80\n 26315: u64 [a2 + 1136] = 0\n 26319: ra = 1000, jump @24\n      : @969 [@dyn 500] (gas: 4)\n 26325: a0 = 0x20170\n 26330: u64 [s1 + 0x198] = a0\n 26334: a0 = i32 [0x20170]\n 26339: jump @971 if a0 >u 63\n      : @970 (gas: 3)\n 26343: a1 = u64 [s1 + 0x198]\n 26347: u32 [a1 + 0] = 0x40\n 26350: fallthrough\n      : @971 (gas: 12)\n 26351: a0 = sp + 0xffffffffffffffe0\n 26354: a2 = a0 & 0xffffffffffffffe0\n 26357: u64 [s1 + 0x178] = a2\n 26361: sp = a2\n 26363: a0 = 0x20180\n 26368: i32 a0 = a0 + 0\n 26370: i32 a2 = a2 + 0\n 26372: a1 = 0x40\n 26375: u64 [s1 + 0x190] = a0\n 26379: ra = 0x3ea\n 26383: ecalli 8 // 'hash_keccak_256'\n 26385: fallthrough\n      : @972 [@dyn 501] (gas: 14)\n 26386: a3 = u64 [s1 + 0x178]\n 26390: a0 = u64 [a3 + 0x18]\n 26393: a1 = u64 [a3 + 0x10]\n 26396: a2 = u64 [a3 + 0x8]\n 26399: a3 = u64 [a3]\n 26401: a0 = reverse a0\n 26403: u64 [s1 + 0x168] = a0\n 26407: a0 = reverse a1\n 26409: u64 [s1 + 0x160] = a0\n 26413: a0 = reverse a2\n 26415: u64 [s1 + 0x158] = a0\n 26419: a0 = reverse a3\n 26421: u64 [s1 + 0x150] = a0\n 26425: t0 = 1004, jump @1561\n      : @973 [@dyn 502] (gas: 12)\n 26431: a0 = u64 [s1 + 0x170]\n 26435: a0 = a0 << 0x20\n 26438: a2 = a0 >> 0x20\n 26441: a0 = s1 + 0x1918\n 26445: u64 [a0 + 1120] = 0\n 26449: u64 [a0 + 1112] = 0\n 26453: u64 [a0 + 1104] = 0\n 26457: a1 = s1 + 0x1d60\n 26461: u64 [s1 + 0x170] = a2\n 26465: u64 [a0 + 0x448] = a2\n 26469: a0 = 0\n 26471: ra = 1006, jump @24\n      : @974 [@dyn 503] (gas: 14)\n 26477: a0 = u64 [s1 + 0x150]\n 26481: a1 = s1 + 0x1918\n 26485: a2 = a1 + 0x400\n 26489: u64 [a2 + 0x40] = a0\n 26492: a0 = u64 [s1 + 0x158]\n 26496: u64 [a2 + 0x38] = a0\n 26499: a0 = u64 [s1 + 0x160]\n 26503: u64 [a2 + 0x30] = a0\n 26506: a3 = a1\n 26508: a0 = 0x20\n 26511: a1 = s1 + 0x1d40\n 26515: a2 = u64 [s1 + 0x168]\n 26519: u64 [a3 + 0x428] = a2\n 26523: ra = 1008, jump @24\n      : @975 [@dyn 504] (gas: 3)\n 26529: a0 = u64 [s1 + 0x198]\n 26533: a0 = i32 [a0]\n 26535: jump @977 if a0 >u 63\n      : @976 (gas: 3)\n 26539: a0 = u64 [s1 + 0x198]\n 26543: u32 [a0 + 0] = 0x40\n 26546: fallthrough\n      : @977 (gas: 4)\n 26547: a0 = sp + 0xffffffffffffffe0\n 26550: a0 = a0 & 0xffffffffffffffe0\n 26553: u64 [s1 + 0x168] = a0\n 26557: t0 = 1010, jump @1492\n      : @978 [@dyn 505] (gas: 5)\n 26563: ra = 0x3f4\n 26567: ecalli 8 // 'hash_keccak_256'\n 26569: a3 = u64 [s1 + 0x168]\n 26573: t0 = 0x3f6\n 26577: jump @1503\n      : @979 [@dyn 506] (gas: 2)\n 26580: a3 = u64 [s1 + 0x168]\n 26584: t0 = 1014, jump @1503\n      : @980 [@dyn 507] (gas: 11)\n 26590: a4 = u64 [s1 + 0x178]\n 26594: u64 [a4 + 0x18] = a3\n 26597: u64 [a4 + 0x10] = a2\n 26600: u64 [a4 + 0x8] = a1\n 26603: u64 [a4] = a0\n 26605: a0 = u64 [s1 + 0x180]\n 26609: ra = 0x3f8\n 26613: ecalli 4 // 'caller'\n 26615: a2 = u64 [s1 + 0x188]\n 26619: t0 = 0x3fa\n 26623: jump @1551\n      : @981 [@dyn 508] (gas: 2)\n 26626: a2 = u64 [s1 + 0x188]\n 26630: t0 = 1018, jump @1551\n      : @982 [@dyn 509] (gas: 10)\n 26636: u64 [s1 + 0x168] = a1\n 26640: a0 = a0 >> 0x20\n 26643: a1 = reverse a2\n 26645: u64 [s1 + 0x160] = a1\n 26649: a1 = a1 << 0x20\n 26652: a0 = a0 | a1\n 26655: u64 [s1 + 0x158] = a0\n 26659: a0 = s1 + 0x1d20\n 26663: a1 = u64 [s1 + 0x178]\n 26667: ra = 1020, jump @26\n      : @983 [@dyn 510] (gas: 2)\n 26673: a2 = s1 + 0x1918\n 26677: fallthrough\n      : @984 (gas: 19)\n 26678: a0 = u64 [a2 + 0x410]\n 26682: a1 = u32 [a2 + 0x40c]\n 26686: a2 = u64 [a2 + 0x418]\n 26690: a3 = a0 << 0x20\n 26693: a1 = a1 | a3\n 26696: a3 = a2 << 0x20\n 26699: a0 = a0 >> 0x20\n 26702: a0 = a0 | a3\n 26705: a4 = s1 + 0x100\n 26709: a3 = u64 [a4 + 0x58]\n 26712: a0 = a0 ^ a3\n 26715: a3 = u64 [a4 + 0x68]\n 26718: a1 = a1 ^ a3\n 26721: a3 = u64 [a4 + 0x60]\n 26724: a2 = a2 ^ a3\n 26727: a2 = a2 >> 0x20\n 26730: a1 = a1 | a2\n 26733: a0 = a0 | a1\n 26736: jump @1053 if a0 != 0\n      : @985 (gas: 6)\n 26740: a0 = u64 [s1 + 0x180]\n 26744: ra = 0x3fe\n 26748: ecalli 4 // 'caller'\n 26750: a2 = u64 [s1 + 0x188]\n 26754: t0 = 0x400\n 26758: jump @1490\n      : @986 [@dyn 511] (gas: 2)\n 26761: a2 = u64 [s1 + 0x188]\n 26765: t0 = 1024, jump @1490\n      : @987 [@dyn 512] (gas: 8)\n 26771: u64 [a2 + 992] = 0\n 26775: a4 = a2 + 0x300\n 26779: u64 [a4 + 0xd8] = a1\n 26783: u64 [a4 + 0xd0] = a0\n 26787: a1 = s1 + 0x1ce0\n 26791: u64 [a4 + 0xc8] = a3\n 26795: a0 = 0\n 26797: ra = 1026, jump @24\n      : @988 [@dyn 513] (gas: 3)\n 26803: t0 = 0x404\n 26807: a1 = s1 + 0x1918\n 26811: fallthrough\n      : @989 [@dyn 514] (gas: 8)\n 26812: u64 [a1 + 960] = 0\n 26816: u64 [a1 + 952] = 0\n 26820: u64 [a1 + 936] = 0x2\n 26825: a2 = a1\n 26827: a0 = 0x20\n 26830: a1 = s1 + 0x1cc0\n 26834: u64 [a2 + 944] = 0\n 26838: ra = 1030, jump @24\n      : @990 [@dyn 515] (gas: 3)\n 26844: a0 = u64 [s1 + 0x198]\n 26848: a0 = i32 [a0]\n 26850: jump @992 if a0 >u 63\n      : @991 (gas: 3)\n 26854: a1 = u64 [s1 + 0x198]\n 26858: u32 [a1 + 0] = 0x40\n 26861: fallthrough\n      : @992 (gas: 4)\n 26862: a0 = sp + 0xffffffffffffffe0\n 26865: a0 = a0 & 0xffffffffffffffe0\n 26868: u64 [s1 + 0x178] = a0\n 26872: t0 = 1032, jump @1492\n      : @993 [@dyn 516] (gas: 3)\n 26878: ra = 0x40a\n 26882: ecalli 8 // 'hash_keccak_256'\n 26884: fallthrough\n      : @994 [@dyn 517] (gas: 8)\n 26885: a3 = u64 [s1 + 0x178]\n 26889: a0 = u64 [a3 + 0x18]\n 26892: a1 = u64 [a3 + 0x10]\n 26895: a2 = u64 [a3 + 0x8]\n 26898: a3 = u64 [a3]\n 26900: a0 = reverse a0\n 26902: u64 [s1 + 0x178] = a0\n 26906: t0 = 1036, jump @1548\n      : @995 [@dyn 518] (gas: 3)\n 26912: t0 = 0x40e\n 26916: a2 = s1 + 0x1918\n 26920: fallthrough\n      : @996 [@dyn 519] (gas: 8)\n 26921: u64 [a2 + 928] = 0\n 26925: u64 [a2 + 920] = 0\n 26929: u64 [a2 + 912] = 0\n 26933: a1 = s1 + 0x1ca0\n 26937: a0 = u64 [s1 + 0x170]\n 26941: u64 [a2 + 0x388] = a0\n 26945: a0 = 0\n 26947: ra = 1040, jump @24\n      : @997 [@dyn 520] (gas: 14)\n 26953: a0 = u64 [s1 + 0x158]\n 26957: a1 = s1 + 0x1918\n 26961: a2 = a1 + 0x300\n 26965: u64 [a2 + 0x80] = a0\n 26969: a0 = u64 [s1 + 0x160]\n 26973: u64 [a2 + 0x78] = a0\n 26976: a0 = u64 [s1 + 0x168]\n 26980: u64 [a2 + 0x70] = a0\n 26983: a3 = a1\n 26985: a0 = 0x20\n 26988: a1 = s1 + 0x1c80\n 26992: a2 = u64 [s1 + 0x178]\n 26996: u64 [a3 + 0x368] = a2\n 27000: ra = 1042, jump @24\n      : @998 [@dyn 521] (gas: 3)\n 27006: a0 = u64 [s1 + 0x198]\n 27010: a0 = i32 [a0]\n 27012: jump @1000 if a0 >u 63\n      : @999 (gas: 3)\n 27016: a0 = u64 [s1 + 0x198]\n 27020: u32 [a0 + 0] = 0x40\n 27023: fallthrough\n      : @1000 (gas: 4)\n 27024: a0 = sp + 0xffffffffffffffe0\n 27027: a0 = a0 & 0xffffffffffffffe0\n 27030: u64 [s1 + 0x178] = a0\n 27034: t0 = 1044, jump @1492\n      : @1001 [@dyn 522] (gas: 28)\n 27040: ecalli 8 // 'hash_keccak_256'\n 27042: a3 = u64 [s1 + 0x178]\n 27046: a0 = u64 [a3]\n 27048: a1 = u64 [a3 + 0x8]\n 27051: a2 = u64 [a3 + 0x10]\n 27054: a3 = u64 [a3 + 0x18]\n 27057: t0 = reverse a0\n 27059: a0 = reverse a1\n 27061: a2 = reverse a2\n 27063: a3 = reverse a3\n 27065: a4 = sp + 0xffffffffffffffe0\n 27068: a1 = a4 & 0xffffffffffffffe0\n 27071: sp = a1\n 27073: a4 = a3 + 0x2\n 27076: a3 = a4 <u a3\n 27079: a5 = a2 + a3\n 27082: a2 = a5 <u a2\n 27085: a2 = a3 if a3 == 0\n 27088: a2 = a2 + a0\n 27091: a0 = a2 <u a0\n 27094: a0 = a0 + t0\n 27097: u64 [a1 + 0x8] = a5\n 27100: u64 [a1] = a4\n 27102: u64 [a1 + 0x10] = a2\n 27105: u64 [a1 + 0x18] = a0\n 27108: a0 = s1 + 0x1c60\n 27112: u64 [s1 + 0x178] = a1\n 27116: ra = 1046, jump @26\n      : @1002 [@dyn 523] (gas: 4)\n 27122: a0 = s1 + 0x1918\n 27126: a0 = u64 [a0 + 0x350]\n 27130: a1 = a0 & 0xff\n 27134: jump @1058 if a1 == 0\n      : @1003 (gas: 3)\n 27138: t0 = 0x418\n 27142: a2 = s1 + 0x1918\n 27146: fallthrough\n      : @1004 [@dyn 524] (gas: 9)\n 27147: u64 [a2 + 824] = 0\n 27151: u64 [a2 + 816] = 0\n 27155: a0 = 0xc1c184c800000000\n 27165: u64 [a2 + 0x340] = a0\n 27169: a1 = s1 + 0x1c40\n 27173: u64 [a2 + 808] = 0\n 27177: a0 = 0\n 27179: ra = 0x450\n 27183: jump @24\n      : @1005 (gas: 3)\n 27186: t0 = 0x41a\n 27190: a2 = s1 + 0x1918\n 27194: fallthrough\n      : @1006 [@dyn 525] (gas: 9)\n 27195: u64 [a2 + 344] = 0\n 27199: u64 [a2 + 336] = 0\n 27203: a0 = 0x6f1cf7db00000000\n 27213: u64 [a2 + 0x160] = a0\n 27217: a1 = s1 + 0x1a60\n 27221: u64 [a2 + 328] = 0\n 27225: a0 = 0\n 27227: ra = 0x546\n 27231: jump @24\n      : @1007 (gas: 2)\n 27234: u64 [s1 + 344] = 0\n 27238: fallthrough\n      : @1008 (gas: 7)\n 27239: a2 = s1 + 0x100\n 27243: a0 = u64 [a2 + 0x78]\n 27246: a0 = a0 << 0x1\n 27249: a1 = u64 [a2 + 0x58]\n 27252: a0 = a0 | a1\n 27255: u64 [a2 + 0x98] = a0\n 27259: fallthrough\n      : @1009 (gas: 3)\n 27260: a0 = u64 [s1 + 0xf0]\n 27264: a1 = u64 [s1 + 0x198]\n 27268: jump @1077 if a0 != a1\n      : @1010 (gas: 6)\n 27272: a0 = u64 [s1 + 0x100]\n 27276: ra = 0x41c\n 27280: ecalli 4 // 'caller'\n 27282: a2 = u64 [s1 + 0x108]\n 27286: t0 = 0x41e\n 27290: jump @1490\n      : @1011 [@dyn 526] (gas: 2)\n 27293: a2 = u64 [s1 + 0x108]\n 27297: t0 = 1054, jump @1490\n      : @1012 [@dyn 527] (gas: 8)\n 27303: u64 [a2 + 288] = 0\n 27307: a4 = a2 + 0x100\n 27311: u64 [a4 + 0x18] = a1\n 27314: u64 [a4 + 0x10] = a0\n 27317: a1 = s1 + 0x1a20\n 27321: u64 [a4 + 0x8] = a3\n 27324: a0 = 0\n 27326: ra = 1056, jump @24\n      : @1013 [@dyn 528] (gas: 3)\n 27332: t0 = 0x422\n 27336: a1 = s1 + 0x1918\n 27340: fallthrough\n      : @1014 [@dyn 529] (gas: 8)\n 27341: u64 [a1 + 256] = 0\n 27345: u64 [a1 + 248] = 0\n 27349: u64 [a1 + 232] = 0x2\n 27354: a2 = a1\n 27356: a0 = 0x20\n 27359: a1 = s1 + 0x1a00\n 27363: u64 [a2 + 240] = 0\n 27367: ra = 1060, jump @24\n      : @1015 [@dyn 530] (gas: 3)\n 27373: a0 = u64 [s1 + 0x118]\n 27377: a0 = i32 [a0]\n 27379: jump @1017 if a0 >u 63\n      : @1016 (gas: 4)\n 27383: a1 = u64 [s1 + 0x118]\n 27387: u32 [a1 + 0] = 0x40\n 27390: t0 = 0x426\n 27394: jump @1497\n      : @1017 (gas: 1)\n 27397: t0 = 1062, jump @1497\n      : @1018 [@dyn 531] (gas: 4)\n 27403: ra = 0x428\n 27407: ecalli 8 // 'hash_keccak_256'\n 27409: t0 = 0x42a\n 27413: jump @1505\n      : @1019 [@dyn 532] (gas: 1)\n 27416: t0 = 1066, jump @1505\n      : @1020 [@dyn 533] (gas: 8)\n 27422: u64 [a2 + 0xe0] = a0\n 27426: u64 [a2 + 0xd8] = a0\n 27430: u64 [a2 + 0xd0] = a0\n 27434: a1 = s1 + 0x19e0\n 27438: a0 = u64 [s1 + 0xf8]\n 27442: u64 [a2 + 0xc8] = a0\n 27446: a0 = 0\n 27448: ra = 1068, jump @24\n      : @1021 [@dyn 534] (gas: 13)\n 27454: a0 = u64 [s1 + 0x178]\n 27458: a1 = s1 + 0x1918\n 27462: u64 [a1 + 0xc0] = a0\n 27466: a0 = u64 [s1 + 0x180]\n 27470: u64 [a1 + 0xb8] = a0\n 27474: a0 = u64 [s1 + 0x188]\n 27478: u64 [a1 + 0xb0] = a0\n 27482: a3 = a1\n 27484: a0 = 0x20\n 27487: a1 = s1 + 0x19c0\n 27491: a2 = u64 [s1 + 0x190]\n 27495: u64 [a3 + 0xa8] = a2\n 27499: ra = 1070, jump @24\n      : @1022 [@dyn 535] (gas: 3)\n 27505: a0 = u64 [s1 + 0x118]\n 27509: a0 = i32 [a0]\n 27511: jump @1024 if a0 >u 63\n      : @1023 (gas: 4)\n 27515: a0 = u64 [s1 + 0x118]\n 27519: u32 [a0 + 0] = 0x40\n 27522: t0 = 0x430\n 27526: jump @1497\n      : @1024 (gas: 1)\n 27529: t0 = 1072, jump @1497\n      : @1025 [@dyn 536] (gas: 4)\n 27535: ra = 0x432\n 27539: ecalli 8 // 'hash_keccak_256'\n 27541: t0 = 0x434\n 27545: jump @1533\n      : @1026 [@dyn 537] (gas: 1)\n 27548: t0 = 1076, jump @1533\n      : @1027 [@dyn 538] (gas: 2)\n 27554: a4 = a3 + 0x2\n 27557: t0 = 1078, jump @1506\n      : @1028 [@dyn 539] (gas: 9)\n 27563: a1 = s1 + 0x2918\n 27567: a3 = a1 + 0x300\n 27571: u64 [a3 + 0xa8] = a4\n 27575: u64 [a3 + 0xb0] = a5\n 27579: u64 [a3 + 0xb8] = a2\n 27583: u64 [a3 + 0xc0] = a0\n 27587: a0 = s1 + 0x19a0\n 27591: a1 = s1 + 0x2cc0\n 27595: ra = 1080, jump @26\n      : @1029 [@dyn 540] (gas: 3)\n 27601: a0 = s1 + 0x1918\n 27605: a0 = u8 [a0 + 0x90]\n 27609: jump @1079 if a0 == 0\n      : @1030 (gas: 3)\n 27613: t0 = 0x43a\n 27617: a2 = s1 + 0x1918\n 27621: fallthrough\n      : @1031 [@dyn 541] (gas: 9)\n 27622: u64 [a2 + 120] = 0\n 27625: u64 [a2 + 112] = 0\n 27628: a0 = 0xa7a9536d00000000\n 27638: u64 [a2 + 0x80] = a0\n 27642: a1 = s1 + 0x1980\n 27646: u64 [a2 + 104] = 0\n 27649: a0 = 0\n 27651: ra = 0x546\n 27655: jump @24\n      : @1032 (gas: 1)\n 27658: jump @1037 if a0 != 1229702701\n      : @1033 (gas: 10)\n 27665: a0 = s1 + 0x2918\n 27669: u64 [a0 + 384] = 0\n 27673: u64 [a0 + 376] = 0\n 27677: u64 [a0 + 368] = 0\n 27681: u64 [a0 + 360] = 0\n 27685: a0 = s1 + 0x3000\n 27689: i32 a0 = a0 + 0xfffffffffffffa80\n 27693: ra = 0x43c\n 27697: ecalli 16 // 'value_transferred'\n 27699: fallthrough\n      : @1034 [@dyn 542] (gas: 3)\n 27700: a3 = s1 + 0x2918\n 27704: a4 = a3 + 0x100\n 27708: t0 = 1086, jump @1526\n      : @1035 [@dyn 543] (gas: 1)\n 27714: jump @1107 if a0 == 0\n      : @1036 (gas: 6)\n 27718: a1 = 0x20180\n 27723: i32 a1 = a1 + 0\n 27725: a0 = 0x1\n 27728: a2 = 0\n 27730: ecalli 13 // 'seal_return'\n 27732: jump @1039\n      : @1037 (gas: 6)\n 27734: a1 = 0x20180\n 27739: i32 a1 = a1 + 0\n 27741: a0 = 0x1\n 27744: a2 = 0\n 27746: ecalli 13 // 'seal_return'\n 27748: jump @1039\n      : @1038 (gas: 5)\n 27750: i32 a1 = a1 + 0\n 27752: a0 = 0x1\n 27755: a2 = 0\n 27757: ecalli 13 // 'seal_return'\n 27759: fallthrough\n      : @1039 (gas: 3)\n 27760: a0 = u64 [s1 + 0x198]\n 27764: a0 = i32 [a0]\n 27766: jump @1109 if a0 >u 99\n      : @1040 (gas: 2)\n 27771: a1 = 0x20180\n 27776: jump @1038\n      : @1041 (gas: 4)\n 27778: a0 = s1 + 0x220\n 27782: ra = 0x440\n 27786: t0 = 0x588\n 27790: jump @1553\n      : @1042 [@dyn 544] (gas: 11)\n 27793: a3 = s1 + 0x200\n 27797: a0 = u64 [a3 + 0x20]\n 27800: a1 = u64 [a3 + 0x28]\n 27803: a2 = u32 [s1 + 0x230]\n 27807: u64 [s1 + 536] = 0\n 27811: u64 [a3 + 0x10] = a2\n 27814: u64 [a3 + 0x8] = a1\n 27817: a1 = s1 + 0x200\n 27821: u64 [a3] = a0\n 27823: a0 = 0\n 27825: ra = 1090, jump @24\n      : @1043 [@dyn 545] (gas: 7)\n 27831: u64 [s1 + 504] = 0\n 27835: u64 [s1 + 496] = 0\n 27839: u64 [s1 + 480] = 0x3\n 27844: a0 = 0x20\n 27847: a1 = s1 + 0x1e0\n 27851: u64 [s1 + 488] = 0\n 27855: ra = 1092, jump @24\n      : @1044 [@dyn 546] (gas: 4)\n 27861: a0 = 0x20170\n 27866: u64 [s1 + 0x198] = a0\n 27870: a0 = i32 [0x20170]\n 27875: jump @1046 if a0 >u 63\n      : @1045 (gas: 3)\n 27879: a1 = u64 [s1 + 0x198]\n 27883: u32 [a1 + 0] = 0x40\n 27886: fallthrough\n      : @1046 (gas: 14)\n 27887: a0 = sp + 0xffffffffffffffe0\n 27890: a2 = a0 & 0xffffffffffffffe0\n 27893: u64 [s1 + 0x188] = a2\n 27897: sp = a2\n 27899: a0 = 0x20180\n 27904: u64 [s1 + 0x190] = a0\n 27908: i32 a0 = a0 + 0\n 27910: i32 a2 = a2 + 0\n 27912: a1 = 0x40\n 27915: ra = 0x446\n 27919: ecalli 8 // 'hash_keccak_256'\n 27921: a3 = u64 [s1 + 0x188]\n 27925: t0 = 0x448\n 27929: jump @1503\n      : @1047 [@dyn 547] (gas: 2)\n 27932: a3 = u64 [s1 + 0x188]\n 27936: t0 = 1096, jump @1503\n      : @1048 [@dyn 548] (gas: 9)\n 27942: a4 = s1 + 0x2118\n 27946: a5 = a4 + 0x600\n 27950: u64 [a5 + 0x60] = a3\n 27953: u64 [a5 + 0x58] = a2\n 27956: u64 [a5 + 0x50] = a1\n 27959: u64 [a5 + 0x48] = a0\n 27962: a0 = s1 + 0x1c0\n 27966: a1 = s1 + 0x2760\n 27970: ra = 1098, jump @26\n      : @1049 [@dyn 549] (gas: 8)\n 27976: a0 = u32 [s1 + 0x1c0]\n 27980: u64 [s1 + 440] = 0\n 27984: u64 [s1 + 432] = 0\n 27988: u64 [s1 + 0x1a0] = a0\n 27992: a0 = 0x80\n 27996: a1 = s1 + 0x1a0\n 28000: u64 [s1 + 424] = 0\n 28004: ra = 1100, jump @24\n      : @1050 [@dyn 550] (gas: 3)\n 28010: a0 = u64 [s1 + 0x198]\n 28014: a0 = i32 [a0]\n 28016: jump @1052 if a0 >u 159\n      : @1051 (gas: 5)\n 28021: a1 = u64 [s1 + 0x198]\n 28025: u32 [a1 + 0] = 0xa0\n 28029: a0 = u64 [s1 + 0x190]\n 28033: i32 a1 = a0 + 0x80\n 28037: jump @876\n      : @1052 (gas: 3)\n 28040: a0 = u64 [s1 + 0x190]\n 28044: i32 a1 = a0 + 0x80\n 28048: jump @876\n      : @1053 (gas: 3)\n 28051: t0 = 0x44e\n 28055: a2 = s1 + 0x1918\n 28059: fallthrough\n      : @1054 [@dyn 551] (gas: 8)\n 28060: u64 [a2 + 1016] = 0\n 28064: u64 [a2 + 1008] = 0\n 28068: a0 = 0x6f1cf7db00000000\n 28078: u64 [a2 + 0x400] = a0\n 28082: a1 = s1 + 0x1d00\n 28086: u64 [a2 + 1000] = 0\n 28090: a0 = 0\n 28092: ra = 1104, jump @24\n      : @1055 [@dyn 552] (gas: 3)\n 28098: a0 = u64 [s1 + 0x198]\n 28102: a0 = i32 [a0]\n 28104: jump @1057 if a0 >u 31\n      : @1056 (gas: 3)\n 28108: a1 = u64 [s1 + 0x198]\n 28112: u32 [a1 + 0] = 0x20\n 28115: fallthrough\n      : @1057 (gas: 5)\n 28116: a0 = 0x1\n 28119: a2 = 0x4\n 28122: a1 = u64 [s1 + 0x190]\n 28126: ecalli 13 // 'seal_return'\n 28128: fallthrough\n      : @1058 (gas: 17)\n 28129: a1 = 0xffffffff\n 28139: u64 [s1 + 0x168] = a1\n 28143: a3 = s1 + 0x1918\n 28147: a4 = a3 + 0x300\n 28151: a1 = u64 [a4 + 0x48]\n 28154: a2 = u64 [a4 + 0x58]\n 28157: a3 = u64 [a4 + 0x60]\n 28160: a0 = a0 | 0x1\n 28163: a4 = s1 + 0x2918\n 28167: a5 = a4 + 0x400\n 28171: u64 [a5 + 0x8] = a1\n 28174: u64 [a5 + 0x18] = a2\n 28177: u64 [a5 + 0x10] = a0\n 28180: u64 [a5 + 0x20] = a3\n 28183: a1 = s1 + 0x2d20\n 28187: a0 = u64 [s1 + 0x178]\n 28191: ra = 1106, jump @28\n      : @1059 [@dyn 553] (gas: 6)\n 28197: a0 = u64 [s1 + 0x180]\n 28201: ra = 0x454\n 28205: ecalli 4 // 'caller'\n 28207: a2 = u64 [s1 + 0x188]\n 28211: t0 = 0x456\n 28215: jump @1490\n      : @1060 [@dyn 554] (gas: 2)\n 28218: a2 = u64 [s1 + 0x188]\n 28222: t0 = 1110, jump @1490\n      : @1061 [@dyn 555] (gas: 8)\n 28228: u64 [a2 + 800] = 0\n 28232: a4 = a2 + 0x300\n 28236: u64 [a4 + 0x18] = a1\n 28239: u64 [a4 + 0x10] = a0\n 28242: a1 = s1 + 0x1c20\n 28246: u64 [a4 + 0x8] = a3\n 28249: a0 = 0\n 28251: ra = 1112, jump @24\n      : @1062 [@dyn 556] (gas: 3)\n 28257: t0 = 0x45a\n 28261: a1 = s1 + 0x1918\n 28265: fallthrough\n      : @1063 [@dyn 557] (gas: 8)\n 28266: u64 [a1 + 768] = 0\n 28270: u64 [a1 + 760] = 0\n 28274: u64 [a1 + 744] = 0x1\n 28279: a2 = a1\n 28281: a0 = 0x20\n 28284: a1 = s1 + 0x1c00\n 28288: u64 [a2 + 752] = 0\n 28292: ra = 1116, jump @24\n      : @1064 [@dyn 558] (gas: 1)\n 28298: t0 = 1118, jump @1561\n      : @1065 [@dyn 559] (gas: 3)\n 28304: a0 = u64 [s1 + 0x198]\n 28308: a0 = i32 [a0]\n 28310: jump @1067 if a0 >u 63\n      : @1066 (gas: 3)\n 28314: a1 = u64 [s1 + 0x198]\n 28318: u32 [a1 + 0] = 0x40\n 28321: fallthrough\n      : @1067 (gas: 4)\n 28322: a0 = sp + 0xffffffffffffffe0\n 28325: a0 = a0 & 0xffffffffffffffe0\n 28328: u64 [s1 + 0x198] = a0\n 28332: t0 = 1120, jump @1492\n      : @1068 [@dyn 560] (gas: 3)\n 28338: ra = 0x462\n 28342: ecalli 8 // 'hash_keccak_256'\n 28344: fallthrough\n      : @1069 [@dyn 561] (gas: 11)\n 28345: a3 = u64 [s1 + 0x198]\n 28349: a0 = u64 [a3]\n 28351: a1 = u64 [a3 + 0x8]\n 28354: a2 = u64 [a3 + 0x10]\n 28357: a3 = u64 [a3 + 0x18]\n 28360: a0 = reverse a0\n 28362: a1 = reverse a1\n 28364: a2 = reverse a2\n 28366: a3 = reverse a3\n 28368: a4 = a3 + 0x3\n 28371: t0 = 1124, jump @1506\n      : @1070 [@dyn 562] (gas: 7)\n 28377: a1 = u64 [s1 + 0x178]\n 28381: u64 [a1] = a4\n 28383: u64 [a1 + 0x8] = a5\n 28386: u64 [a1 + 0x10] = a2\n 28389: u64 [a1 + 0x18] = a0\n 28392: a0 = s1 + 0x1be0\n 28396: ra = 1126, jump @26\n      : @1071 [@dyn 563] (gas: 9)\n 28402: a0 = s1 + 0x1918\n 28406: a0 = u64 [a0 + 0x2c8]\n 28410: a1 = u64 [s1 + 0x168]\n 28414: a0 = a0 + a1\n 28417: a0 = a0 & a1\n 28420: u64 [s1 + 0x198] = a0\n 28424: a0 = s1 + 0x1bc0\n 28428: a1 = u64 [s1 + 0x178]\n 28432: ra = 1128, jump @26\n      : @1072 [@dyn 564] (gas: 18)\n 28438: a3 = s1 + 0x1918\n 28442: a0 = u32 [a3 + 0x2ac]\n 28446: a0 = a0 << 0x20\n 28449: a4 = a3 + 0x200\n 28453: a1 = u64 [a4 + 0xc0]\n 28457: a2 = u64 [a4 + 0xb8]\n 28461: a3 = u64 [a4 + 0xb0]\n 28465: a4 = u64 [s1 + 0x198]\n 28469: a0 = a0 | a4\n 28472: a4 = s1 + 0x2918\n 28476: a5 = a4 + 0x400\n 28480: u64 [a5 + 0x40] = a1\n 28483: u64 [a5 + 0x38] = a2\n 28486: u64 [a5 + 0x30] = a3\n 28489: u64 [a5 + 0x28] = a0\n 28492: a1 = s1 + 0x2d40\n 28496: a0 = u64 [s1 + 0x178]\n 28500: ra = 1130, jump @28\n      : @1073 [@dyn 565] (gas: 6)\n 28506: a0 = u64 [s1 + 0x180]\n 28510: ra = 0x46c\n 28514: ecalli 4 // 'caller'\n 28516: a2 = u64 [s1 + 0x188]\n 28520: t0 = 0x46e\n 28524: jump @1494\n      : @1074 [@dyn 566] (gas: 2)\n 28527: a2 = u64 [s1 + 0x188]\n 28531: t0 = 1134, jump @1494\n      : @1075 [@dyn 567] (gas: 31)\n 28537: t0 = a1 | a0\n 28540: a3 = a3 >> 0x20\n 28543: a2 = reverse a2\n 28545: a1 = a2 << 0x20\n 28548: a1 = a1 | a3\n 28551: a2 = a2 >> 0x20\n 28554: a3 = u64 [s1 + 0x170]\n 28558: a0 = s1 + 0x1918\n 28562: u64 [a0 + 0x248] = a3\n 28566: a3 = u64 [0x20040]\n 28571: a4 = u64 [0x20048]\n 28576: a5 = u64 [0x20050]\n 28581: u64 [a0 + 0x2a0] = a3\n 28585: u64 [a0 + 0x298] = a4\n 28589: u64 [a0 + 608] = 0\n 28593: a4 = a0 + 0x200\n 28597: u64 [a4 + 0x90] = a5\n 28601: a3 = u64 [0x20058]\n 28606: u64 [a0 + 600] = 0\n 28610: u64 [a0 + 592] = 0\n 28614: u64 [a0 + 640] = 0\n 28618: u64 [a4 + 0x88] = a3\n 28622: u64 [a4 + 0x78] = a2\n 28625: u64 [a4 + 0x70] = a1\n 28628: a2 = s1 + 0x1ba0\n 28632: a3 = s1 + 0x1b80\n 28636: a4 = s1 + 0x1b60\n 28640: u64 [a0 + 0x268] = t0\n 28644: a0 = 0\n 28646: a1 = 0\n 28648: ra = 1136, jump @31\n      : @1076 [@dyn 568] (gas: 5)\n 28654: a0 = 0\n 28656: a1 = u64 [s1 + 0x190]\n 28660: a2 = 0\n 28662: ecalli 13 // 'seal_return'\n 28664: jump @1039\n      : @1077 (gas: 3)\n 28667: t0 = 0x472\n 28671: a2 = s1 + 0x1918\n 28675: fallthrough\n      : @1078 [@dyn 569] (gas: 9)\n 28676: u64 [a2 + 312] = 0\n 28680: u64 [a2 + 304] = 0\n 28684: a0 = 0xd5b25b6300000000\n 28694: u64 [a2 + 0x140] = a0\n 28698: a1 = s1 + 0x1a40\n 28702: u64 [a2 + 296] = 0\n 28706: a0 = 0\n 28708: ra = 0x546\n 28712: jump @24\n      : @1079 (gas: 6)\n 28715: a0 = u64 [s1 + 0x100]\n 28719: ra = 0x474\n 28723: ecalli 4 // 'caller'\n 28725: a2 = u64 [s1 + 0x108]\n 28729: t0 = 0x476\n 28733: jump @1490\n      : @1080 [@dyn 570] (gas: 2)\n 28736: a2 = u64 [s1 + 0x108]\n 28740: t0 = 1142, jump @1490\n      : @1081 [@dyn 571] (gas: 7)\n 28746: u64 [a2 + 96] = 0\n 28749: u64 [a2 + 0x58] = a1\n 28752: u64 [a2 + 0x50] = a0\n 28755: a1 = s1 + 0x1960\n 28759: u64 [a2 + 0x48] = a3\n 28762: a0 = 0\n 28764: ra = 1144, jump @24\n      : @1082 [@dyn 572] (gas: 3)\n 28770: t0 = 0x47a\n 28774: a1 = s1 + 0x1918\n 28778: fallthrough\n      : @1083 [@dyn 573] (gas: 8)\n 28779: u64 [a1 + 64] = 0\n 28782: u64 [a1 + 56] = 0\n 28785: u64 [a1 + 40] = 0x4\n 28789: a2 = a1\n 28791: a0 = 0x20\n 28794: a1 = s1 + 0x1940\n 28798: u64 [a2 + 48] = 0\n 28801: ra = 1148, jump @24\n      : @1084 [@dyn 574] (gas: 3)\n 28807: a0 = u64 [s1 + 0x118]\n 28811: a0 = i32 [a0]\n 28813: jump @1086 if a0 >u 63\n      : @1085 (gas: 4)\n 28817: a1 = u64 [s1 + 0x118]\n 28821: u32 [a1 + 0] = 0x40\n 28824: t0 = 0x47e\n 28828: jump @1497\n      : @1086 (gas: 1)\n 28831: t0 = 1150, jump @1497\n      : @1087 [@dyn 575] (gas: 4)\n 28837: ra = 0x480\n 28841: ecalli 8 // 'hash_keccak_256'\n 28843: t0 = 0x482\n 28847: jump @1505\n      : @1088 [@dyn 576] (gas: 1)\n 28850: t0 = 1154, jump @1505\n      : @1089 [@dyn 577] (gas: 8)\n 28856: u64 [a2 + 0x20] = a0\n 28859: u64 [a2 + 0x18] = a0\n 28862: u64 [a2 + 0x10] = a0\n 28865: a1 = s1 + 0x1920\n 28869: a0 = u64 [s1 + 0x198]\n 28873: u64 [a2 + 0x8] = a0\n 28876: a0 = 0\n 28878: ra = 1156, jump @24\n      : @1090 [@dyn 578] (gas: 13)\n 28884: a0 = u64 [s1 + 0x178]\n 28888: a1 = s1 + 0x1918\n 28892: u64 [a1] = a0\n 28894: a0 = u64 [s1 + 0x180]\n 28898: u64 [a1 + 0xfffffffffffffff8] = a0\n 28901: a0 = u64 [s1 + 0x188]\n 28905: u64 [a1 + 0xfffffffffffffff0] = a0\n 28908: a3 = a1\n 28910: a0 = 0x20\n 28913: a1 = s1 + 0x1900\n 28917: a2 = u64 [s1 + 0x190]\n 28921: u64 [a3 + 0xffffffffffffffe8] = a2\n 28924: ra = 1158, jump @24\n      : @1091 [@dyn 579] (gas: 3)\n 28930: a0 = u64 [s1 + 0x118]\n 28934: a0 = i32 [a0]\n 28936: jump @1093 if a0 >u 63\n      : @1092 (gas: 4)\n 28940: a0 = u64 [s1 + 0x118]\n 28944: u32 [a0 + 0] = 0x40\n 28947: t0 = 0x488\n 28951: jump @1497\n      : @1093 (gas: 1)\n 28954: t0 = 1160, jump @1497\n      : @1094 [@dyn 580] (gas: 5)\n 28960: ra = 0x48a\n 28964: ecalli 8 // 'hash_keccak_256'\n 28966: a3 = u64 [s1 + 0x190]\n 28970: t0 = 0x48c\n 28974: jump @1508\n      : @1095 [@dyn 581] (gas: 2)\n 28977: a3 = u64 [s1 + 0x190]\n 28981: t0 = 1164, jump @1508\n      : @1096 [@dyn 582] (gas: 5)\n 28987: u64 [s1 + 0x190] = a0\n 28991: sp = a0\n 28993: t0 = 0x48e\n 28997: a2 = s1 + 0x1118\n 29001: fallthrough\n      : @1097 [@dyn 583] (gas: 8)\n 29002: u64 [a2 + 2016] = 0\n 29006: u64 [a2 + 2008] = 0\n 29010: u64 [a2 + 2000] = 0\n 29014: a1 = s1 + 0x18e0\n 29018: a0 = u64 [s1 + 0xf8]\n 29022: u64 [a2 + 0x7c8] = a0\n 29026: a0 = 0\n 29028: ra = 1168, jump @24\n      : @1098 [@dyn 584] (gas: 14)\n 29034: a0 = u64 [s1 + 0x170]\n 29038: a1 = s1 + 0x1118\n 29042: a2 = a1 + 0x700\n 29046: u64 [a2 + 0xc0] = a0\n 29050: a0 = u64 [s1 + 0x178]\n 29054: u64 [a2 + 0xb8] = a0\n 29058: a0 = u64 [s1 + 0x180]\n 29062: u64 [a2 + 0xb0] = a0\n 29066: a3 = a1\n 29068: a0 = 0x20\n 29071: a1 = s1 + 0x18c0\n 29075: a2 = u64 [s1 + 0x188]\n 29079: u64 [a3 + 0x7a8] = a2\n 29083: ra = 1170, jump @24\n      : @1099 [@dyn 585] (gas: 3)\n 29089: a0 = u64 [s1 + 0x118]\n 29093: a0 = i32 [a0]\n 29095: jump @1101 if a0 >=u 64\n      : @1100 (gas: 3)\n 29099: a0 = u64 [s1 + 0x118]\n 29103: u32 [a0 + 0] = 0x40\n 29106: fallthrough\n      : @1101 (gas: 11)\n 29107: a0 = sp + 0xffffffffffffffe0\n 29110: a0 = a0 & 0xffffffffffffffe0\n 29113: u64 [s1 + 0x188] = a0\n 29117: sp = a0\n 29119: i32 a2 = a0 + 0\n 29121: a1 = 0x40\n 29124: a0 = u64 [s1 + 0x110]\n 29128: ra = 0x494\n 29132: ecalli 8 // 'hash_keccak_256'\n 29134: t0 = 0x496\n 29138: jump @1554\n      : @1102 [@dyn 586] (gas: 1)\n 29141: t0 = 1174, jump @1554\n      : @1103 [@dyn 587] (gas: 9)\n 29147: a2 = reverse a2\n 29149: a3 = reverse a3\n 29151: a1 = u64 [s1 + 0x190]\n 29155: u64 [a1 + 0x18] = a3\n 29158: u64 [a1 + 0x10] = a2\n 29161: u64 [a1 + 0x8] = a4\n 29164: u64 [a1] = a0\n 29166: a0 = s1 + 0x18a0\n 29170: ra = 1176, jump @26\n      : @1104 [@dyn 588] (gas: 4)\n 29176: a0 = s1 + 0x1118\n 29180: a0 = u64 [a0 + 0x788]\n 29184: a1 = a0 & 0x1\n 29187: jump @1140 if a1 != 0\n      : @1105 (gas: 3)\n 29191: t0 = 0x49a\n 29195: a2 = s1 + 0x1118\n 29199: fallthrough\n      : @1106 [@dyn 589] (gas: 9)\n 29200: u64 [a2 + 1720] = 0\n 29204: u64 [a2 + 1712] = 0\n 29208: a0 = 0xafa4e2b600000000\n 29218: u64 [a2 + 0x6c0] = a0\n 29222: a1 = s1 + 0x17c0\n 29226: u64 [a2 + 1704] = 0\n 29230: a0 = 0\n 29232: ra = 0x546\n 29236: jump @24\n      : @1107 (gas: 3)\n 29239: a0 = u64 [s1 + 0x198]\n 29243: a0 = i32 [a0]\n 29245: jump @1147 if a0 >u 99\n      : @1108 (gas: 2)\n 29250: a1 = 0x20180\n 29255: jump @1038\n      : @1109 (gas: 5)\n 29258: a0 = s1 + 0x7ff\n 29262: a0 = a0 + 0x1a1\n 29266: ra = 0x49c\n 29270: t0 = 0x588\n 29274: jump @1553\n      : @1110 [@dyn 590] (gas: 15)\n 29277: a1 = s1 + 0x7ff\n 29281: a1 = a1 + 0x119\n 29285: a0 = u64 [a1 + 0xa0]\n 29289: u64 [s1 + 0xf8] = a0\n 29293: a0 = u64 [a1 + 0x98]\n 29297: u64 [s1 + 0x100] = a0\n 29301: a0 = u64 [a1 + 0x90]\n 29305: u64 [s1 + 0x118] = a0\n 29309: a0 = u64 [a1 + 0x88]\n 29313: u64 [s1 + 0x110] = a0\n 29317: a0 = s1 + 0x7ff\n 29321: a0 = a0 + 0x181\n 29325: ra = 0x49e\n 29329: t0 = 0x58c\n 29333: jump @1569\n      : @1111 [@dyn 591] (gas: 15)\n 29336: a1 = s1 + 0x7ff\n 29340: a1 = a1 + 0x119\n 29344: a0 = u64 [a1 + 0x80]\n 29348: u64 [s1 + 0xf0] = a0\n 29352: a0 = u64 [a1 + 0x78]\n 29355: u64 [s1 + 0xe8] = a0\n 29359: a0 = u64 [a1 + 0x70]\n 29362: u64 [s1 + 0xe0] = a0\n 29366: a0 = u64 [a1 + 0x68]\n 29369: u64 [s1 + 0x108] = a0\n 29373: a0 = s1 + 0x7ff\n 29377: a0 = a0 + 0x161\n 29381: ra = 0x4a0\n 29385: t0 = 0x592\n 29389: jump @1569\n      : @1112 [@dyn 592] (gas: 8)\n 29392: a0 = s1 + 0x7ff\n 29396: a0 = a0 + 0x119\n 29400: a0 = u64 [a0 + 0x48]\n 29403: u64 [s1 + 0xd8] = a0\n 29407: a0 = s1 + 0x3000\n 29411: i32 a0 = a0 + 0xfffffffffffff920\n 29415: ecalli 9 // 'now'\n 29417: fallthrough\n      : @1113 (gas: 49)\n 29418: a0 = s1 + 0x2918\n 29422: t0 = u64 [a0 + 0x20]\n 29425: a4 = u64 [a0 + 0x18]\n 29428: u64 [s1 + 0x158] = a4\n 29432: t2 = u64 [a0 + 0x10]\n 29435: a3 = u64 [a0 + 0x8]\n 29438: u64 [s1 + 0x140] = a3\n 29442: a0 = clz t0\n 29444: a1 = clz a4\n 29446: a2 = a1 + 0x40\n 29449: a2 = a0 if t0 != 0\n 29452: a0 = clz t2\n 29454: a1 = clz a3\n 29456: a1 = a1 + 0x40\n 29459: a1 = a0 if t2 != 0\n 29462: a0 = a1 + 0x80\n 29466: a3 = a4 | t0\n 29469: a2 = a0 if a3 == 0\n 29472: a5 = a0 <u a1\n 29475: a5 = 0 if a3 != 0\n 29477: a4 = a5 >u 0\n 29479: a0 = a2 <u 0xf0\n 29483: a3 = a0 ^ 0x1\n 29486: a4 = a3 if a5 == 0\n 29489: a0 = a4 <u 0x1\n 29492: ra = a0 + 0xffffffffffffffff\n 29495: t1 = -a4\n 29497: a5 = -a5\n 29499: a3 = a5 - a3\n 29502: a2 = 0xef - a2\n 29506: a5 = t1 >u 0\n 29508: a0 = ra >u 0\n 29510: a0 = a5 if ra == 0\n 29513: a5 = a2 <u 0x100\n 29517: a5 = a5 ^ 0x1\n 29520: a1 = a3 >u 0\n 29522: a5 = a1 if a3 != 0\n 29525: a5 = a0 if a4 != 0\n 29528: u64 [s1 + 0x138] = t2\n 29532: u64 [s1 + 0x150] = t0\n 29536: a0 = t2 | t0\n 29539: a4 = u64 [s1 + 0x140]\n 29543: a1 = u64 [s1 + 0x158]\n 29547: a1 = a1 | a4\n 29550: a0 = a0 | a1\n 29553: a0 = a0 <u 0x1\n 29556: a0 = a0 | a5\n 29559: a4 = 0 if a0 != 0\n 29561: jump @1176 if a0 != 0\n      : @1114 (gas: 1)\n 29565: t0 = 1186, jump @1570\n      : @1115 [@dyn 593] (gas: 1)\n 29571: jump @1176 if a0 == 0\n      : @1116 (gas: 1)\n 29575: t0 = 1188, jump @1499\n      : @1117 [@dyn 594] (gas: 1)\n 29581: ra = 1190, jump @1574\n      : @1118 [@dyn 595] (gas: 1)\n 29587: t0 = 1192, jump @1557\n      : @1119 [@dyn 596] (gas: 1)\n 29593: ra = 1194, jump @1579\n      : @1120 [@dyn 597] (gas: 1)\n 29599: t0 = 1196, jump @1545\n      : @1121 [@dyn 598] (gas: 1)\n 29605: ra = 1198, jump @1579\n      : @1122 [@dyn 599] (gas: 8)\n 29611: u64 [s1 + 0x120] = a0\n 29615: u64 [s1 + 0xd0] = a1\n 29619: a2 = u64 [s1 + 0x160]\n 29623: a0 = a2 <u 0x80\n 29627: u64 [s1 + 0xc8] = a0\n 29631: a0 = u64 [s1 + 0x140]\n 29635: a1 = u64 [s1 + 0x138]\n 29639: ra = 1200, jump @1579\n      : @1123 [@dyn 600] (gas: 1)\n 29645: t0 = 1202, jump @1573\n      : @1124 [@dyn 601] (gas: 4)\n 29651: a3 = u64 [s1 + 0xc8]\n 29655: a0 = 0 if a3 == 0\n 29657: u64 [a4 + 0x78] = a0\n 29660: jump @1174 if a1 == 0\n      : @1125 (gas: 7)\n 29664: a2 = a3\n 29666: a0 = u64 [s1 + 0x168]\n 29670: a1 = u64 [s1 + 0x128]\n 29674: a0 = a0 | a1\n 29677: a5 = a3\n 29679: a1 = u64 [s1 + 0xd0]\n 29683: t0 = 1204, jump @1495\n      : @1126 [@dyn 602] (gas: 1)\n 29689: ra = 1206, jump @1574\n      : @1127 [@dyn 603] (gas: 1)\n 29695: t0 = 1208, jump @1556\n      : @1128 [@dyn 604] (gas: 1)\n 29701: ra = 1210, jump @1574\n      : @1129 [@dyn 605] (gas: 2)\n 29707: u64 [s1 + 0xd0] = a0\n 29711: t0 = 1212, jump @1549\n      : @1130 [@dyn 606] (gas: 1)\n 29717: ra = 1214, jump @1579\n      : @1131 [@dyn 607] (gas: 1)\n 29723: t0 = 1216, jump @1516\n      : @1132 [@dyn 608] (gas: 2)\n 29729: a1 = u64 [s1 + 0xd0]\n 29733: t0 = 1218, jump @1528\n      : @1133 [@dyn 609] (gas: 1)\n 29739: ra = 1220, jump @1574\n      : @1134 [@dyn 610] (gas: 1)\n 29745: t0 = 1222, jump @1507\n      : @1135 [@dyn 611] (gas: 1)\n 29751: t0 = 1224, jump @1517\n      : @1136 [@dyn 612] (gas: 5)\n 29757: t0 = ra <u a2\n 29760: a4 = u64 [s1 + 0x128]\n 29764: a5 = a4 <u a3\n 29767: a5 = t0 if t1 != 0\n 29770: t0 = 1226, jump @1518\n      : @1137 [@dyn 613] (gas: 20)\n 29776: t0 = a0 | a1\n 29779: a1 = a4 << 0x1\n 29782: a4 = u64 [s1 + 0x170]\n 29786: t1 = a4 >> 0x3f\n 29789: t1 = a1 | t1\n 29792: a1 = a4 << 0x1\n 29795: a4 = u64 [s1 + 0x178]\n 29799: t2 = a4 >> 0x3f\n 29802: a1 = a1 | t2\n 29805: a4 = a4 << 0x1\n 29808: a0 = u64 [s1 + 0x158]\n 29812: a4 = a4 | a0\n 29815: u64 [s1 + 0x178] = a4\n 29819: a0 = u64 [s1 + 0x150]\n 29823: a1 = a1 | a0\n 29826: u64 [s1 + 0x170] = a1\n 29830: a1 = a0 | t1\n 29833: u64 [s1 + 0x160] = a1\n 29837: a0 = a0 | t0\n 29840: t0 = 1228, jump @1493\n      : @1138 [@dyn 614] (gas: 18)\n 29846: t0 = a4 <u a2\n 29849: a2 = a4 - a2\n 29852: a4 = a3 <u 0x1\n 29855: a5 = a5 - a4\n 29858: a4 = u64 [a0 + 0x88]\n 29862: a4 = a4 - t0\n 29865: a3 = a3 + 0xffffffffffffffff\n 29868: u64 [a0 + 0x90] = a5\n 29872: u64 [a0 + 0x88] = a4\n 29876: t0 = a5 | a4\n 29879: u64 [a0 + 0x98] = a3\n 29883: a4 = a3 | a2\n 29886: a3 = a4 | t0\n 29889: a4 = ra & 0x1\n 29892: u64 [a0 + 0x58] = a4\n 29895: u64 [a0 + 0x80] = a2\n 29899: u64 [s1 + 336] = 0\n 29903: jump @1135 if a3 != 0\n      : @1139 (gas: 1)\n 29907: jump @1175\n      : @1140 (gas: 2)\n 29910: a1 = a0 & 0x2\n 29913: jump @1235 if a1 != 0\n      : @1141 (gas: 5)\n 29917: a0 = a0 & 0xfd\n 29921: u64 [s1 + 0x188] = a0\n 29925: a0 = s1 + 0x1860\n 29929: a1 = u64 [s1 + 0x190]\n 29933: ra = 1230, jump @26\n      : @1142 [@dyn 615] (gas: 19)\n 29939: a3 = s1 + 0x1118\n 29943: a4 = a3 + 0x700\n 29947: a0 = u64 [a4 + 0x48]\n 29950: a1 = u64 [a4 + 0x50]\n 29953: a2 = u64 [a4 + 0x58]\n 29956: a3 = u64 [a4 + 0x60]\n 29959: a0 = a0 & 0xffffffffffffff00\n 29963: a4 = u64 [s1 + 0x188]\n 29967: a0 = a0 | a4\n 29970: a0 = a0 + 0x2\n 29973: a4 = s1 + 0x2918\n 29977: a5 = a4 + 0x300\n 29981: u64 [a5 + 0xe0] = a3\n 29985: u64 [a5 + 0xd8] = a2\n 29989: u64 [a5 + 0xd0] = a1\n 29993: u64 [a5 + 0xc8] = a0\n 29997: a1 = s1 + 0x2ce0\n 30001: a0 = u64 [s1 + 0x190]\n 30005: ra = 1232, jump @28\n      : @1143 [@dyn 616] (gas: 6)\n 30011: a0 = u64 [s1 + 0x100]\n 30015: ra = 0x4d2\n 30019: ecalli 4 // 'caller'\n 30021: a2 = u64 [s1 + 0x108]\n 30025: t0 = 0x4d4\n 30029: jump @1494\n      : @1144 [@dyn 617] (gas: 2)\n 30032: a2 = u64 [s1 + 0x108]\n 30036: t0 = 1236, jump @1494\n      : @1145 [@dyn 618] (gas: 38)\n 30042: a0 = a0 | a1\n 30045: a3 = a3 >> 0x20\n 30048: a2 = reverse a2\n 30050: a1 = a2 << 0x20\n 30053: a1 = a1 | a3\n 30056: a2 = a2 >> 0x20\n 30059: a5 = s1 + 0x1118\n 30063: u64 [a5 + 1760] = 0\n 30067: u64 [a5 + 1752] = 0\n 30071: u64 [a5 + 1744] = 0\n 30075: a3 = u64 [s1 + 0x198]\n 30079: u64 [a5 + 0x6c8] = a3\n 30083: a3 = u64 [s1 + 0xf8]\n 30087: u64 [a5 + 0x6e8] = a3\n 30091: a3 = u64 [0x20060]\n 30096: a4 = u64 [0x20068]\n 30101: u64 [a5 + 1792] = 0\n 30105: u64 [a5 + 1784] = 0\n 30109: u64 [a5 + 0x740] = a3\n 30113: u64 [a5 + 0x738] = a4\n 30117: a3 = u64 [0x20070]\n 30122: a4 = u64 [0x20078]\n 30127: u64 [a5 + 1776] = 0\n 30131: u64 [a5 + 1824] = 0\n 30135: u64 [a5 + 0x730] = a3\n 30139: a3 = a5 + 0x700\n 30143: u64 [a3 + 0x28] = a4\n 30146: u64 [a3 + 0x18] = a2\n 30149: u64 [a3 + 0x10] = a1\n 30152: a1 = a5\n 30154: a2 = s1 + 0x1840\n 30158: a3 = s1 + 0x1820\n 30162: a4 = s1 + 0x1800\n 30166: a5 = s1 + 0x17e0\n 30170: u64 [a1 + 0x708] = a0\n 30174: a0 = 0\n 30176: a1 = 0\n 30178: ra = 1238, jump @34\n      : @1146 [@dyn 619] (gas: 5)\n 30184: a0 = 0\n 30186: a1 = u64 [s1 + 0x110]\n 30190: a2 = 0\n 30192: ecalli 13 // 'seal_return'\n 30194: jump @1039\n      : @1147 (gas: 4)\n 30197: a0 = s1 + 0x1040\n 30201: ra = 0x4d8\n 30205: t0 = 0x588\n 30209: jump @1553\n      : @1148 [@dyn 620] (gas: 15)\n 30212: a1 = s1 + 0x7ff\n 30216: a1 = a1 + 0x119\n 30220: a2 = a1 + 0x700\n 30224: a0 = u64 [a2 + 0x40]\n 30227: u64 [s1 + 0xf0] = a0\n 30231: a0 = u64 [a2 + 0x38]\n 30234: u64 [s1 + 0xf8] = a0\n 30238: a0 = u64 [a2 + 0x30]\n 30241: u64 [s1 + 0x138] = a0\n 30245: a0 = u64 [a2 + 0x28]\n 30248: u64 [s1 + 0x130] = a0\n 30252: a0 = s1 + 0x1020\n 30256: ra = 0x4da\n 30260: t0 = 0x58c\n 30264: jump @1569\n      : @1149 [@dyn 621] (gas: 15)\n 30267: a1 = s1 + 0x7ff\n 30271: a1 = a1 + 0x119\n 30275: a2 = a1 + 0x700\n 30279: a0 = u64 [a2 + 0x20]\n 30282: u64 [s1 + 0xc8] = a0\n 30286: a0 = u64 [a2 + 0x18]\n 30289: u64 [s1 + 0xc0] = a0\n 30293: a0 = u64 [a2 + 0x10]\n 30296: u64 [s1 + 0xb8] = a0\n 30300: a0 = u64 [a2 + 0x8]\n 30303: u64 [s1 + 0xb0] = a0\n 30307: a0 = s1 + 0x1000\n 30311: ra = 0x4dc\n 30315: t0 = 0x592\n 30319: jump @1569\n      : @1150 [@dyn 622] (gas: 11)\n 30322: a0 = s1 + 0x7ff\n 30326: a0 = a0 + 0x119\n 30330: a2 = u32 [a0 + 0x6e8]\n 30334: a0 = a2 <u 0x1\n 30337: a1 = a2 + 0xffffffffffffffff\n 30340: a1 = a1 <u 0x32\n 30343: a1 = a1 ^ 0x1\n 30346: a1 = a0 if a2 == 0\n 30349: u64 [s1 + 0x110] = a2\n 30353: a1 = a0 if a2 == 0\n 30356: jump @1240 if a1 != 0\n      : @1151 (gas: 17)\n 30360: a0 = u64 [s1 + 0xf8]\n 30364: a0 = a0 << 0x20\n 30367: a2 = a0 >> 0x20\n 30370: a3 = s1 + 0x7ff\n 30374: a3 = a3 + 0x119\n 30378: u64 [a3 + 1728] = 0\n 30382: a0 = u64 [s1 + 0x130]\n 30386: a4 = a3 + 0x600\n 30390: u64 [a4 + 0xa8] = a0\n 30394: a0 = u64 [s1 + 0x138]\n 30398: u64 [a4 + 0xb0] = a0\n 30402: a1 = s1 + 0x7ff\n 30406: a1 = a1 + 0x7c1\n 30410: u64 [s1 + 0x108] = a2\n 30414: u64 [a4 + 0xb8] = a2\n 30418: a0 = 0\n 30420: ra = 1246, jump @24\n      : @1152 [@dyn 623] (gas: 11)\n 30426: a1 = s1 + 0x7ff\n 30430: a1 = a1 + 0x119\n 30434: u64 [a1 + 1696] = 0\n 30438: u64 [a1 + 1688] = 0\n 30442: u64 [a1 + 1672] = 0x3\n 30447: a2 = a1\n 30449: a0 = 0x20\n 30452: a1 = s1 + 0x7ff\n 30456: a1 = a1 + 0x7a1\n 30460: u64 [a2 + 1680] = 0\n 30464: ra = 1248, jump @24\n      : @1153 [@dyn 624] (gas: 4)\n 30470: a0 = 0x20170\n 30475: u64 [s1 + 0x198] = a0\n 30479: a0 = i32 [0x20170]\n 30484: jump @1155 if a0 >u 63\n      : @1154 (gas: 3)\n 30488: a1 = u64 [s1 + 0x198]\n 30492: u32 [a1 + 0] = 0x40\n 30495: fallthrough\n      : @1155 (gas: 16)\n 30496: a0 = 0xffffffff\n 30506: u64 [s1 + 0x140] = a0\n 30510: a0 = sp + 0xffffffffffffffe0\n 30513: a2 = a0 & 0xffffffffffffffe0\n 30516: u64 [s1 + 0x188] = a2\n 30520: sp = a2\n 30522: a0 = 0x20180\n 30527: i32 a0 = a0 + 0\n 30529: i32 a2 = a2 + 0\n 30531: a1 = 0x40\n 30534: u64 [s1 + 0x190] = a0\n 30538: ra = 0x4e2\n 30542: ecalli 8 // 'hash_keccak_256'\n 30544: a3 = u64 [s1 + 0x188]\n 30548: t0 = 0x4e4\n 30552: jump @1504\n      : @1156 [@dyn 625] (gas: 2)\n 30555: a3 = u64 [s1 + 0x188]\n 30559: t0 = 1252, jump @1504\n      : @1157 [@dyn 626] (gas: 9)\n 30565: a5 = a4 + 0x100\n 30569: u64 [a5 + 0xa0] = a3\n 30573: u64 [a5 + 0x98] = a2\n 30577: u64 [a5 + 0x90] = a1\n 30581: u64 [a5 + 0x88] = a0\n 30585: a0 = s1 + 0x7ff\n 30589: a0 = a0 + 0x781\n 30593: a1 = s1 + 0x2aa0\n 30597: ra = 1254, jump @26\n      : @1158 [@dyn 627] (gas: 8)\n 30603: a0 = s1 + 0x7ff\n 30607: a0 = a0 + 0x119\n 30611: a0 = u64 [a0 + 0x668]\n 30615: u64 [s1 + 0xa8] = a0\n 30619: a0 = s1 + 0x3000\n 30623: i32 a0 = a0 + 0xfffffffffffffac0\n 30627: ecalli 9 // 'now'\n 30629: fallthrough\n      : @1159 (gas: 51)\n 30630: a0 = s1 + 0x2918\n 30634: t0 = u64 [a0 + 0x1c0]\n 30638: a4 = u64 [a0 + 0x1b8]\n 30642: u64 [s1 + 0x150] = a4\n 30646: t2 = u64 [a0 + 0x1b0]\n 30650: a3 = u64 [a0 + 0x1a8]\n 30654: u64 [s1 + 0x188] = a3\n 30658: a0 = clz t0\n 30660: a1 = clz a4\n 30662: a2 = a1 + 0x40\n 30665: a2 = a0 if t0 != 0\n 30668: a0 = clz t2\n 30670: a1 = clz a3\n 30672: a1 = a1 + 0x40\n 30675: a1 = a0 if t2 != 0\n 30678: a0 = a1 + 0x80\n 30682: a3 = a4 | t0\n 30685: a2 = a0 if a3 == 0\n 30688: a5 = a0 <u a1\n 30691: a5 = 0 if a3 != 0\n 30693: a4 = a5 >u 0\n 30695: a0 = a2 <u 0xf0\n 30699: a3 = a0 ^ 0x1\n 30702: a4 = a3 if a5 == 0\n 30705: a0 = a4 <u 0x1\n 30708: ra = a0 + 0xffffffffffffffff\n 30711: t1 = -a4\n 30713: a5 = -a5\n 30715: a3 = a5 - a3\n 30718: a2 = 0xef - a2\n 30722: a5 = t1 >u 0\n 30724: a0 = ra >u 0\n 30726: a0 = a5 if ra == 0\n 30729: a5 = a2 <u 0x100\n 30733: a5 = a5 ^ 0x1\n 30736: a1 = a3 >u 0\n 30738: a5 = a1 if a3 != 0\n 30741: a5 = a0 if a4 != 0\n 30744: u64 [s1 + 0x180] = t2\n 30748: u64 [s1 + 0x118] = t0\n 30752: a0 = t2 | t0\n 30755: a4 = u64 [s1 + 0x188]\n 30759: a1 = u64 [s1 + 0x150]\n 30763: a1 = a1 | a4\n 30766: a0 = a0 | a1\n 30769: a0 = a0 <u 0x1\n 30772: a0 = a0 | a5\n 30775: a1 = a4\n 30777: a1 = 0 if a0 != 0\n 30779: u64 [s1 + 0x100] = a1\n 30783: jump @1246 if a0 != 0\n      : @1160 (gas: 1)\n 30787: t0 = 1256, jump @1570\n      : @1161 [@dyn 628] (gas: 1)\n 30793: jump @1246 if a0 == 0\n      : @1162 (gas: 18)\n 30797: a1 = a2 + 0x1\n 30800: u64 [s1 + 0x178] = a1\n 30804: a0 = a1 <u 0x1\n 30807: a0 = a0 + a3\n 30810: u64 [s1 + 0x168] = a0\n 30814: a0 = a0 | a1\n 30817: a0 = a0 <u 0x1\n 30820: a0 = a0 + t1\n 30823: u64 [s1 + 0x158] = a0\n 30827: a0 = a0 <u t1\n 30830: a0 = a0 + ra\n 30833: u64 [s1 + 0x160] = a0\n 30837: a1 = 0xff - a2\n 30841: u64 [s1 + 0x120] = a1\n 30845: a2 = 0x80 - a1\n 30849: a0 = u64 [s1 + 0x188]\n 30853: a1 = u64 [s1 + 0x180]\n 30857: ra = 1258, jump @1574\n      : @1163 [@dyn 629] (gas: 6)\n 30863: u64 [s1 + 0x100] = a0\n 30867: u64 [s1 + 0x128] = a1\n 30871: a0 = u64 [s1 + 0x150]\n 30875: a1 = u64 [s1 + 0x118]\n 30879: a2 = u64 [s1 + 0x120]\n 30883: ra = 1260, jump @1579\n      : @1164 [@dyn 630] (gas: 7)\n 30889: u64 [s1 + 0xe8] = a0\n 30893: u64 [s1 + 0xe0] = a1\n 30897: a0 = u64 [s1 + 0x120]\n 30901: a2 = a0 + 0xffffffffffffff80\n 30904: a0 = u64 [s1 + 0x188]\n 30908: a1 = u64 [s1 + 0x180]\n 30912: ra = 1262, jump @1579\n      : @1165 [@dyn 631] (gas: 8)\n 30918: u64 [s1 + 0xd8] = a0\n 30922: u64 [s1 + 0xd0] = a1\n 30926: a2 = u64 [s1 + 0x120]\n 30930: a0 = a2 <u 0x80\n 30934: u64 [s1 + 0xa0] = a0\n 30938: a0 = u64 [s1 + 0x188]\n 30942: a1 = u64 [s1 + 0x180]\n 30946: ra = 1264, jump @1579\n      : @1166 [@dyn 632] (gas: 13)\n 30952: a4 = s1 + 0x100\n 30956: u64 [a4 + 0x70] = a1\n 30959: a1 = u64 [a4 + 0x68]\n 30962: a2 = u64 [a4 + 0x60]\n 30965: a2 = a2 | a1\n 30968: a1 = u64 [a4 + 0x78]\n 30971: a3 = u64 [a4 + 0x58]\n 30974: a1 = a1 | a3\n 30977: a1 = a1 | a2\n 30980: a3 = u64 [s1 + 0xa0]\n 30984: a0 = 0 if a3 == 0\n 30986: u64 [a4 + 0x48] = a0\n 30989: jump @1244 if a1 == 0\n      : @1167 (gas: 30)\n 30993: a2 = a3\n 30995: a0 = u64 [s1 + 0x128]\n 30999: a1 = u64 [s1 + 0xe0]\n 31003: a0 = a0 | a1\n 31006: a5 = a3\n 31008: a1 = u64 [s1 + 0xd0]\n 31012: a0 = a1 if a2 == 0\n 31015: a2 = u64 [s1 + 0x118]\n 31019: a3 = a2\n 31021: a1 = a2\n 31023: a2 = u64 [s1 + 0x120]\n 31027: a3 = a0 if a2 != 0\n 31030: u64 [s1 + 0x128] = a3\n 31034: a0 = u64 [s1 + 0x100]\n 31038: a3 = u64 [s1 + 0xe8]\n 31042: a0 = a0 | a3\n 31045: a3 = u64 [s1 + 0xd8]\n 31049: a0 = a3 if a5 == 0\n 31052: a4 = u64 [s1 + 0x150]\n 31056: a3 = a4\n 31058: a3 = a0 if a2 != 0\n 31061: u64 [s1 + 0x120] = a3\n 31065: a0 = u64 [s1 + 0x170]\n 31069: a0 = 0 if a5 == 0\n 31071: u64 [s1 + 0x170] = a0\n 31075: u64 [s1 + 224] = 0x15180\n 31082: a0 = u64 [s1 + 0x178]\n 31086: a2 = a0 + 0xffffffffffffff80\n 31089: a0 = a4\n 31091: ra = 1266, jump @1574\n      : @1168 [@dyn 633] (gas: 6)\n 31097: u64 [s1 + 0x100] = a0\n 31101: u64 [s1 + 0xe8] = a1\n 31105: a0 = u64 [s1 + 0x188]\n 31109: a1 = u64 [s1 + 0x180]\n 31113: a2 = u64 [s1 + 0x178]\n 31117: ra = 1268, jump @1574\n      : @1169 [@dyn 634] (gas: 7)\n 31123: u64 [s1 + 0xd0] = a0\n 31127: u64 [s1 + 0xd8] = a1\n 31131: a1 = u64 [s1 + 0x178]\n 31135: a2 = 0x80 - a1\n 31139: a0 = u64 [s1 + 0x150]\n 31143: a1 = u64 [s1 + 0x118]\n 31147: ra = 1270, jump @1579\n      : @1170 [@dyn 635] (gas: 20)\n 31153: a2 = u64 [s1 + 0xd8]\n 31157: a1 = a1 | a2\n 31160: a2 = u64 [s1 + 0x178]\n 31164: a3 = a2 <u 0x80\n 31168: u64 [s1 + 0xd8] = a3\n 31172: a4 = u64 [s1 + 0xe8]\n 31176: a1 = a4 if a3 == 0\n 31179: a4 = u64 [s1 + 0x180]\n 31183: a4 = a1 if a2 != 0\n 31186: u64 [s1 + 0x180] = a4\n 31190: a1 = u64 [s1 + 0xd0]\n 31194: a0 = a0 | a1\n 31197: a1 = u64 [s1 + 0x100]\n 31201: a0 = a1 if a3 == 0\n 31204: a1 = u64 [s1 + 0x188]\n 31208: a1 = a0 if a2 != 0\n 31211: u64 [s1 + 0x188] = a1\n 31215: a0 = u64 [s1 + 0x150]\n 31219: a1 = u64 [s1 + 0x118]\n 31223: ra = 1272, jump @1574\n      : @1171 [@dyn 636] (gas: 13)\n 31229: u64 [s1 + 336] = 0\n 31233: u64 [s1 + 280] = 0\n 31237: a2 = u64 [s1 + 0xd8]\n 31241: a1 = 0 if a2 == 0\n 31243: u64 [s1 + 0x100] = a1\n 31247: a0 = 0 if a2 == 0\n 31249: a3 = u64 [s1 + 0xe0]\n 31253: a2 = a3 + 0xffffffffffffffff\n 31256: u64 [s1 + 0xd8] = a2\n 31260: a2 = a3 >u 0\n 31262: a2 = a2 + 0xffffffffffffffff\n 31265: u64 [s1 + 0xd0] = a2\n 31269: fallthrough\n      : @1172 (gas: 92)\n 31270: a4 = u64 [s1 + 0x188]\n 31274: a2 = a4 >> 0x3f\n 31277: t1 = u64 [s1 + 0x180]\n 31281: a3 = t1 << 0x1\n 31284: ra = a3 | a2\n 31287: a3 = a4 << 0x1\n 31290: t2 = u64 [s1 + 0x128]\n 31294: a4 = t2 >> 0x3f\n 31297: a3 = a3 | a4\n 31300: u64 [s1 + 0xe8] = a3\n 31304: a2 = u64 [s1 + 0xd0]\n 31308: a1 = a2 ^ ra\n 31311: t0 = a2 <u ra\n 31314: a4 = u64 [s1 + 0xd8]\n 31318: a5 = a4 <u a3\n 31321: a5 = t0 if a1 != 0\n 31324: a1 = u64 [s1 + 0x100]\n 31328: a1 = a1 << 0x1\n 31331: a3 = a0 >> 0x3f\n 31334: a1 = a1 | a3\n 31337: u64 [s1 + 0x100] = a1\n 31341: a3 = t1 >> 0x3f\n 31344: a0 = a0 << 0x1\n 31347: a3 = a3 | a0\n 31350: a0 = t2 << 0x1\n 31353: a4 = u64 [s1 + 0x120]\n 31357: a1 = a4 >> 0x3f\n 31360: t0 = a0 | a1\n 31363: a1 = a4 << 0x1\n 31366: a4 = u64 [s1 + 0x170]\n 31370: t1 = a4 >> 0x3f\n 31373: t1 = a1 | t1\n 31376: a1 = a4 << 0x1\n 31379: a4 = u64 [s1 + 0x148]\n 31383: t2 = a4 >> 0x3f\n 31386: a1 = a1 | t2\n 31389: a4 = a4 << 0x1\n 31392: a0 = u64 [s1 + 0x150]\n 31396: a4 = a4 | a0\n 31399: u64 [s1 + 0x148] = a4\n 31403: a0 = u64 [s1 + 0x118]\n 31407: a1 = a1 | a0\n 31410: u64 [s1 + 0x170] = a1\n 31414: a1 = a0 | t1\n 31417: u64 [s1 + 0x120] = a1\n 31421: a0 = a0 | t0\n 31424: u64 [s1 + 0x128] = a0\n 31428: a0 = a2 - a3\n 31431: a0 = a0 <u a5\n 31434: a1 = a2 <u a3\n 31437: a5 = u64 [s1 + 0x100]\n 31441: a4 = a2 - a5\n 31444: a4 = a4 - a1\n 31447: a4 = a4 - a0\n 31450: t1 = a4 >>a 0x3f\n 31453: a0 = u64 [s1 + 0xe0]\n 31457: a0 = t1 & a0\n 31460: a2 = u64 [s1 + 0xe8]\n 31464: a1 = a2 - a0\n 31467: u64 [s1 + 0x188] = a1\n 31471: a1 = a2 <u a0\n 31474: a0 = ra - a1\n 31477: u64 [s1 + 0x180] = a0\n 31481: a1 = 0 if ra != 0\n 31483: a0 = a3 - a1\n 31486: a1 = a3 <u a1\n 31489: a1 = a5 - a1\n 31492: u64 [s1 + 0x100] = a1\n 31496: a1 = s1 + 0x100\n 31500: a5 = u64 [a1 + 0x78]\n 31503: a3 = u64 [a1 + 0x68]\n 31506: a2 = a5 | a3\n 31509: a2 = a2 <u 0x1\n 31512: a4 = u64 [a1 + 0x58]\n 31515: t0 = a4 <u a2\n 31518: a2 = a4 - a2\n 31521: a4 = a5 <u 0x1\n 31524: a3 = a3 - a4\n 31527: a4 = u64 [a1 + 0x60]\n 31530: a4 = a4 - t0\n 31533: a5 = a5 + 0xffffffffffffffff\n 31536: u64 [a1 + 0x68] = a3\n 31539: u64 [a1 + 0x60] = a4\n 31542: a3 = a3 | a4\n 31545: u64 [a1 + 0x78] = a5\n 31548: a4 = a5 | a2\n 31551: a3 = a3 | a4\n 31554: a4 = t1 & 0x1\n 31557: u64 [a1 + 0x50] = a4\n 31560: u64 [a1 + 0x58] = a2\n 31563: u64 [s1 + 280] = 0\n 31567: jump @1172 if a3 != 0\n      : @1173 (gas: 1)\n 31571: jump @1245\n      : @1174 (gas: 2)\n 31574: u64 [s1 + 344] = 0\n 31578: fallthrough\n      : @1175 (gas: 5)\n 31579: a0 = u64 [s1 + 0x178]\n 31583: a0 = a0 << 0x1\n 31586: a4 = u64 [s1 + 0x158]\n 31590: a4 = a4 | a0\n 31593: fallthrough\n      : @1176 (gas: 2)\n 31594: a0 = u64 [s1 + 0x108]\n 31598: jump @1300 if a0 >=u a4\n      : @1177 (gas: 9)\n 31602: a0 = u64 [s1 + 0xd8]\n 31606: a0 = a0 << 0x20\n 31609: a1 = a0 >> 0x20\n 31612: a0 = a1 + 0xffffffffffffffff\n 31615: a0 = a0 <u 0x32\n 31618: a0 = 0 if a1 == 0\n 31620: u64 [s1 + 0x138] = a1\n 31624: a0 = 0 if a1 == 0\n 31626: jump @1304 if a0 == 0\n      : @1178 (gas: 20)\n 31630: a0 = 0xffffffff\n 31640: u64 [s1 + 0x178] = a0\n 31644: a0 = u64 [s1 + 0x100]\n 31648: a0 = a0 << 0x20\n 31651: a2 = a0 >> 0x20\n 31654: a0 = s1 + 0x7ff\n 31658: a0 = a0 + 0x119\n 31662: u64 [a0 + 0] = 0\n 31664: a1 = u64 [s1 + 0x110]\n 31668: a3 = s1 + 0x1000\n 31672: u64 [a3 + 0xfffffffffffff900] = a1\n 31676: a1 = u64 [s1 + 0x118]\n 31680: a3 = s1 + 0x1000\n 31684: u64 [a3 + 0xfffffffffffff908] = a1\n 31688: a1 = s1 + 0x7ff\n 31692: a1 = a1 + 0x101\n 31696: u64 [s1 + 0x148] = a2\n 31700: u64 [a0 + 0xfffffffffffffff8] = a2\n 31703: a0 = 0\n 31705: ra = 1274, jump @24\n      : @1179 [@dyn 637] (gas: 12)\n 31711: a0 = s1 + 0x1000\n 31715: u64 [a0 + 4294965496] = 0\n 31719: a0 = s1 + 0x1000\n 31723: u64 [a0 + 4294965488] = 0\n 31727: a1 = s1 + 0x1000\n 31731: u64 [a1 + 4294965472] = 0x3\n 31736: a0 = 0x20\n 31739: a1 = s1 + 0x7ff\n 31743: a1 = a1 + 0xe1\n 31747: a2 = s1 + 0x1000\n 31751: u64 [a2 + 4294965480] = 0\n 31755: ra = 1276, jump @24\n      : @1180 [@dyn 638] (gas: 5)\n 31761: a0 = 0x20170\n 31766: u64 [s1 + 0x190] = a0\n 31770: a0 = i32 [0x20170]\n 31775: a1 = 0x3f\n 31778: jump @1182 if a1 <u a0\n      : @1181 (gas: 3)\n 31781: a1 = u64 [s1 + 0x190]\n 31785: u32 [a1 + 0] = 0x40\n 31788: fallthrough\n      : @1182 (gas: 3)\n 31789: a0 = 0xffffffff00000000\n 31799: u64 [s1 + 0x130] = a0\n 31803: t0 = 1278, jump @1534\n      : @1183 [@dyn 639] (gas: 10)\n 31809: a0 = 0x20180\n 31814: i32 a0 = a0 + 0\n 31816: i32 a2 = a2 + 0\n 31818: a1 = 0x40\n 31821: u64 [s1 + 0x180] = a0\n 31825: ra = 0x500\n 31829: ecalli 8 // 'hash_keccak_256'\n 31831: a3 = u64 [s1 + 0x198]\n 31835: t0 = 0x502\n 31839: jump @1504\n      : @1184 [@dyn 640] (gas: 2)\n 31842: a3 = u64 [s1 + 0x198]\n 31846: t0 = 1282, jump @1504\n      : @1185 [@dyn 641] (gas: 8)\n 31852: u64 [a4 + 0x40] = a3\n 31855: u64 [a4 + 0x38] = a2\n 31858: u64 [a4 + 0x30] = a1\n 31861: u64 [a4 + 0x28] = a0\n 31864: a0 = s1 + 0x7ff\n 31868: a0 = a0 + 0xc1\n 31872: a1 = s1 + 0x2940\n 31876: ra = 1284, jump @26\n      : @1186 [@dyn 642] (gas: 9)\n 31882: a0 = s1 + 0x1000\n 31886: a0 = u64 [a0 + 0xfffffffffffff8c0]\n 31890: u64 [s1 + 320] = 0\n 31894: u64 [s1 + 392] = 0\n 31898: a1 = u64 [s1 + 0x178]\n 31902: a0 = a0 & a1\n 31905: u64 [s1 + 0x128] = a0\n 31909: a0 = 0x1\n 31912: fallthrough\n      : @1187 (gas: 9)\n 31913: a4 = s1 + 0x100\n 31917: u64 [a4 + 0x98] = a0\n 31921: a3 = u64 [a4 + 0x88]\n 31925: a0 = a3 >u 0\n 31927: a1 = a3 >u 0\n 31929: a1 = a0 if a3 == 0\n 31932: a0 = u64 [a4 + 0x28]\n 31935: a2 = u64 [a4 + 0x98]\n 31939: t0 = 1286, jump @1564\n      : @1188 [@dyn 643] (gas: 1)\n 31945: jump @1308 if a2 != 0\n      : @1189 (gas: 6)\n 31949: a2 = s1 + 0x100\n 31953: a0 = u64 [a2 + 0x78]\n 31956: a1 = u64 [a2 + 0x40]\n 31959: a0 = a0 & a1\n 31962: a1 = u64 [a2 + 0x38]\n 31965: jump @1308 if a0 >=u a1\n      : @1190 (gas: 15)\n 31969: a0 = s1 + 0x1000\n 31973: u64 [a0 + 4294965432] = 0\n 31977: a0 = u64 [s1 + 0x110]\n 31981: a1 = s1 + 0x1000\n 31985: u64 [a1 + 0xfffffffffffff8a0] = a0\n 31989: a0 = u64 [s1 + 0x118]\n 31993: a1 = s1 + 0x1000\n 31997: u64 [a1 + 0xfffffffffffff8a8] = a0\n 32001: a1 = s1 + 0x7ff\n 32005: a1 = a1 + 0xa1\n 32009: a0 = u64 [s1 + 0x148]\n 32013: a2 = s1 + 0x1000\n 32017: u64 [a2 + 0xfffffffffffff8b0] = a0\n 32021: a0 = 0\n 32023: ra = 1288, jump @24\n      : @1191 [@dyn 644] (gas: 12)\n 32029: a0 = s1 + 0x1000\n 32033: u64 [a0 + 4294965400] = 0\n 32037: a0 = s1 + 0x1000\n 32041: u64 [a0 + 4294965392] = 0\n 32045: a0 = s1 + 0x1000\n 32049: u64 [a0 + 4294965384] = 0\n 32053: a0 = 0x20\n 32056: a1 = s1 + 0x7ff\n 32060: a1 = a1 + 0x81\n 32064: a3 = s1 + 0x1000\n 32068: u64 [a3 + 4294965376] = 0x2\n 32073: ra = 1290, jump @24\n      : @1192 [@dyn 645] (gas: 3)\n 32079: a0 = u64 [s1 + 0x190]\n 32083: a0 = i32 [a0]\n 32085: jump @1194 if a0 >u 63\n      : @1193 (gas: 4)\n 32089: a1 = u64 [s1 + 0x190]\n 32093: u32 [a1 + 0] = 0x40\n 32096: t0 = 0x50c\n 32100: jump @1513\n      : @1194 (gas: 1)\n 32103: t0 = 1292, jump @1513\n      : @1195 [@dyn 646] (gas: 4)\n 32109: ra = 0x50e\n 32113: ecalli 8 // 'hash_keccak_256'\n 32115: t0 = 0x510\n 32119: jump @1502\n      : @1196 [@dyn 647] (gas: 1)\n 32122: t0 = 1296, jump @1502\n      : @1197 [@dyn 648] (gas: 13)\n 32128: a1 = s1 + 0x1000\n 32132: u64 [a1 + 0xfffffffffffff878] = a0\n 32136: a1 = s1 + 0x1000\n 32140: u64 [a1 + 0xfffffffffffff870] = a0\n 32144: a1 = s1 + 0x1000\n 32148: u64 [a1 + 0xfffffffffffff868] = a0\n 32152: a1 = s1 + 0x7ff\n 32156: a1 = a1 + 0x61\n 32159: a0 = u64 [s1 + 0x198]\n 32163: a2 = s1 + 0x1000\n 32167: u64 [a2 + 0xfffffffffffff860] = a0\n 32171: a0 = 0\n 32173: ra = 1298, jump @24\n      : @1198 [@dyn 649] (gas: 16)\n 32179: a0 = u64 [s1 + 0x150]\n 32183: a1 = s1 + 0x1000\n 32187: u64 [a1 + 0xfffffffffffff858] = a0\n 32191: a0 = u64 [s1 + 0x158]\n 32195: a1 = s1 + 0x1000\n 32199: u64 [a1 + 0xfffffffffffff850] = a0\n 32203: a0 = u64 [s1 + 0x160]\n 32207: a1 = s1 + 0x1000\n 32211: u64 [a1 + 0xfffffffffffff848] = a0\n 32215: a0 = 0x20\n 32218: a1 = s1 + 0x7ff\n 32222: a1 = a1 + 0x41\n 32225: a2 = u64 [s1 + 0x168]\n 32229: a3 = s1 + 0x1000\n 32233: u64 [a3 + 0xfffffffffffff840] = a2\n 32237: ra = 1300, jump @24\n      : @1199 [@dyn 650] (gas: 3)\n 32243: a0 = u64 [s1 + 0x190]\n 32247: a0 = i32 [a0]\n 32249: jump @1201 if a0 >u 63\n      : @1200 (gas: 4)\n 32253: a0 = u64 [s1 + 0x190]\n 32257: u32 [a0 + 0] = 0x40\n 32260: t0 = 0x516\n 32264: jump @1541\n      : @1201 (gas: 1)\n 32267: t0 = 1302, jump @1541\n      : @1202 [@dyn 651] (gas: 5)\n 32273: ra = 0x518\n 32277: ecalli 8 // 'hash_keccak_256'\n 32279: a3 = u64 [s1 + 0x168]\n 32283: t0 = 0x51a\n 32287: jump @1540\n      : @1203 [@dyn 652] (gas: 2)\n 32290: a3 = u64 [s1 + 0x168]\n 32294: t0 = 1306, jump @1540\n      : @1204 [@dyn 653] (gas: 12)\n 32300: a1 = u64 [s1 + 0x170]\n 32304: u64 [s1 + 0x160] = a2\n 32308: u64 [a1 + 0x18] = a2\n 32311: u64 [s1 + 0x168] = a0\n 32315: u64 [a1 + 0x10] = a0\n 32318: u64 [s1 + 0x158] = a4\n 32322: u64 [a1 + 0x8] = a4\n 32325: u64 [s1 + 0x150] = a5\n 32329: u64 [a1] = a5\n 32331: a0 = s1 + 0x7ff\n 32335: a0 = a0 + 0x21\n 32338: ra = 1308, jump @26\n      : @1205 [@dyn 654] (gas: 13)\n 32344: a0 = s1 + 0x1000\n 32348: a0 = u64 [a0 + 0xfffffffffffff828]\n 32352: a1 = s1 + 0x1000\n 32356: a1 = u64 [a1 + 0xfffffffffffff830]\n 32360: a2 = s1 + 0x1000\n 32364: a2 = u64 [a2 + 0xfffffffffffff820]\n 32368: a0 = a0 & 0xffffffffffffffff\n 32371: a1 = a1 & 0xffffffffffffffff\n 32374: a3 = u64 [s1 + 0x130]\n 32378: a2 = a2 & a3\n 32381: a1 = a1 | a2\n 32384: a0 = a0 | a1\n 32387: jump @1234 if a0 == 0\n      : @1206 (gas: 6)\n 32391: a5 = s1 + 0x100\n 32395: a1 = u64 [a5 + 0x50]\n 32398: a0 = a1 + 0x2\n 32401: a1 = a0 <u a1\n 32404: a3 = u64 [a5 + 0x58]\n 32407: t0 = 1310, jump @1532\n      : @1207 [@dyn 655] (gas: 14)\n 32413: a1 = u64 [a5 + 0x68]\n 32416: a3 = a3 + a1\n 32419: a1 = a3 <u a1\n 32422: a4 = u64 [a5 + 0x60]\n 32425: a1 = a1 + a4\n 32428: a4 = s1 + 0x2918\n 32432: u64 [a4 + 0x48] = a0\n 32435: u64 [a4 + 0x50] = a2\n 32438: u64 [a4 + 0x58] = a3\n 32441: u64 [a4 + 0x60] = a1\n 32444: a0 = s1 + 0x7ff\n 32448: a0 = a0 + 0x1\n 32451: a1 = s1 + 0x2960\n 32455: ra = 1312, jump @26\n      : @1208 [@dyn 656] (gas: 4)\n 32461: a0 = s1 + 0x1000\n 32465: a0 = u64 [a0 + 0xfffffffffffff808]\n 32469: a0 = a0 & 0xff\n 32473: jump @1234 if a0 != 0\n      : @1209 (gas: 10)\n 32477: u64 [s1 + 2040] = 0\n 32481: a0 = u64 [s1 + 0x110]\n 32485: u64 [s1 + 0x7e0] = a0\n 32489: a0 = u64 [s1 + 0x118]\n 32493: u64 [s1 + 0x7e8] = a0\n 32497: a1 = s1 + 0x7e0\n 32501: a0 = u64 [s1 + 0x148]\n 32505: u64 [s1 + 0x7f0] = a0\n 32509: a0 = 0\n 32511: ra = 1314, jump @24\n      : @1210 [@dyn 657] (gas: 7)\n 32517: u64 [s1 + 2008] = 0\n 32521: u64 [s1 + 2000] = 0\n 32525: u64 [s1 + 1992] = 0\n 32529: a0 = 0x20\n 32532: a1 = s1 + 0x7c0\n 32536: u64 [s1 + 1984] = 0x4\n 32541: ra = 1316, jump @24\n      : @1211 [@dyn 658] (gas: 3)\n 32547: a0 = u64 [s1 + 0x190]\n 32551: a0 = i32 [a0]\n 32553: jump @1213 if a0 >u 63\n      : @1212 (gas: 4)\n 32557: a0 = u64 [s1 + 0x190]\n 32561: u32 [a0 + 0] = 0x40\n 32564: t0 = 0x526\n 32568: jump @1513\n      : @1213 (gas: 1)\n 32571: t0 = 1318, jump @1513\n      : @1214 [@dyn 659] (gas: 3)\n 32577: ra = 0x528\n 32581: ecalli 8 // 'hash_keccak_256'\n 32583: fallthrough\n      : @1215 [@dyn 660] (gas: 8)\n 32584: a3 = u64 [s1 + 0x170]\n 32588: a0 = u64 [a3 + 0x18]\n 32591: a1 = u64 [a3 + 0x10]\n 32594: a2 = u64 [a3 + 0x8]\n 32597: a3 = u64 [a3]\n 32599: a0 = reverse a0\n 32601: u64 [s1 + 0x170] = a0\n 32605: t0 = 1322, jump @1548\n      : @1216 [@dyn 661] (gas: 8)\n 32611: u64 [s1 + 1976] = 0\n 32615: u64 [s1 + 1968] = 0\n 32619: u64 [s1 + 1960] = 0\n 32623: a1 = s1 + 0x7a0\n 32627: a0 = u64 [s1 + 0x108]\n 32631: u64 [s1 + 0x7a0] = a0\n 32635: a0 = 0\n 32637: ra = 1324, jump @24\n      : @1217 [@dyn 662] (gas: 12)\n 32643: a0 = u64 [s1 + 0x158]\n 32647: a3 = s1 + 0x700\n 32651: u64 [a3 + 0x98] = a0\n 32655: a0 = u64 [s1 + 0x160]\n 32659: u64 [a3 + 0x90] = a0\n 32663: a0 = u64 [s1 + 0x168]\n 32667: u64 [a3 + 0x88] = a0\n 32671: a0 = 0x20\n 32674: a1 = s1 + 0x780\n 32678: a2 = u64 [s1 + 0x170]\n 32682: u64 [a3 + 0x80] = a2\n 32686: ra = 1326, jump @24\n      : @1218 [@dyn 663] (gas: 3)\n 32692: a0 = u64 [s1 + 0x190]\n 32696: a0 = i32 [a0]\n 32698: jump @1220 if a0 >u 63\n      : @1219 (gas: 4)\n 32702: a0 = u64 [s1 + 0x190]\n 32706: u32 [a0 + 0] = 0x40\n 32709: t0 = 0x530\n 32713: jump @1513\n      : @1220 (gas: 1)\n 32716: t0 = 1328, jump @1513\n      : @1221 [@dyn 664] (gas: 4)\n 32722: ra = 0x532\n 32726: ecalli 8 // 'hash_keccak_256'\n 32728: t0 = 0x534\n 32732: jump @1502\n      : @1222 [@dyn 665] (gas: 1)\n 32735: t0 = 1332, jump @1502\n      : @1223 [@dyn 666] (gas: 8)\n 32741: u64 [s1 + 0x778] = a0\n 32745: u64 [s1 + 0x770] = a0\n 32749: u64 [s1 + 0x768] = a0\n 32753: a1 = s1 + 0x760\n 32757: a0 = u64 [s1 + 0x198]\n 32761: u64 [s1 + 0x760] = a0\n 32765: a0 = 0\n 32767: ra = 1334, jump @24\n      : @1224 [@dyn 667] (gas: 12)\n 32773: a0 = u64 [s1 + 0x150]\n 32777: a3 = s1 + 0x700\n 32781: u64 [a3 + 0x58] = a0\n 32784: a0 = u64 [s1 + 0x158]\n 32788: u64 [a3 + 0x50] = a0\n 32791: a0 = u64 [s1 + 0x160]\n 32795: u64 [a3 + 0x48] = a0\n 32798: a0 = 0x20\n 32801: a1 = s1 + 0x740\n 32805: a2 = u64 [s1 + 0x168]\n 32809: u64 [a3 + 0x40] = a2\n 32812: ra = 1336, jump @24\n      : @1225 [@dyn 668] (gas: 3)\n 32818: a0 = u64 [s1 + 0x190]\n 32822: a0 = i32 [a0]\n 32824: jump @1227 if a0 >u 63\n      : @1226 (gas: 4)\n 32828: a0 = u64 [s1 + 0x190]\n 32832: u32 [a0 + 0] = 0x40\n 32835: t0 = 0x53a\n 32839: jump @1541\n      : @1227 (gas: 1)\n 32842: t0 = 1338, jump @1541\n      : @1228 [@dyn 669] (gas: 5)\n 32848: ra = 0x53c\n 32852: ecalli 8 // 'hash_keccak_256'\n 32854: a3 = u64 [s1 + 0x168]\n 32858: t0 = 0x53e\n 32862: jump @1501\n      : @1229 [@dyn 670] (gas: 2)\n 32865: a3 = u64 [s1 + 0x168]\n 32869: t0 = 1342, jump @1501\n      : @1230 [@dyn 671] (gas: 2)\n 32875: a0 = s1 + 0x720\n 32879: ra = 1344, jump @26\n      : @1231 [@dyn 672] (gas: 3)\n 32885: a0 = u64 [s1 + 0x720]\n 32889: a0 = a0 & 0x5\n 32892: jump @1234 if a0 != 1\n      : @1232 (gas: 28)\n 32897: a0 = u64 [s1 + 0x198]\n 32901: a2 = s1 + 0x600\n 32905: u64 [a2 + 0xc0] = a0\n 32909: a0 = u64 [s1 + 0x108]\n 32913: u64 [a2 + 0xe0] = a0\n 32917: a0 = u64 [s1 + 0x110]\n 32921: a4 = s1 + 0x700\n 32925: u64 [a4] = a0\n 32927: a1 = u64 [s1 + 0x188]\n 32931: u64 [a2 + 0xc8] = a1\n 32935: a0 = u64 [s1 + 0xe0]\n 32939: u64 [a2 + 0xe8] = a0\n 32943: a0 = u64 [s1 + 0x118]\n 32947: u64 [a4 + 0x8] = a0\n 32950: u64 [a2 + 0xd0] = a1\n 32954: a0 = u64 [s1 + 0xe8]\n 32958: u64 [a2 + 0xf0] = a0\n 32962: a0 = u64 [s1 + 0x100]\n 32966: u64 [a4 + 0x10] = a0\n 32969: u64 [a2 + 0xd8] = a1\n 32973: a0 = u64 [s1 + 0xf0]\n 32977: u64 [a2 + 0xf8] = a0\n 32981: a0 = s1 + 0x700\n 32985: a1 = s1 + 0x6e0\n 32989: a2 = s1 + 0x6c0\n 32993: a3 = u64 [s1 + 0xf8]\n 32997: u64 [a4 + 0x18] = a3\n 33000: ra = 1346, jump @1351\n      : @1233 [@dyn 673] (gas: 7)\n 33006: a2 = s1 + 0x100\n 33010: a0 = u64 [a2 + 0x40]\n 33013: a0 = a0 + 0x1\n 33016: a1 = u64 [a2 + 0x78]\n 33019: a0 = a0 & a1\n 33022: u64 [a2 + 0x40] = a0\n 33025: fallthrough\n      : @1234 (gas: 6)\n 33026: u64 [s1 + 392] = 0\n 33030: a0 = u64 [s1 + 0x198]\n 33034: a0 = a0 + 0x1\n 33037: a1 = u64 [s1 + 0x178]\n 33041: a0 = a0 & a1\n 33044: jump @1187\n      : @1235 (gas: 3)\n 33047: t0 = 0x544\n 33051: a2 = s1 + 0x1118\n 33055: fallthrough\n      : @1236 [@dyn 674] (gas: 8)\n 33056: u64 [a2 + 1912] = 0\n 33060: u64 [a2 + 1904] = 0\n 33064: a0 = 0xc98289f000000000\n 33074: u64 [a2 + 0x780] = a0\n 33078: a1 = s1 + 0x1880\n 33082: u64 [a2 + 1896] = 0\n 33086: a0 = 0\n 33088: ra = 1350, jump @24\n      : @1237 [@dyn 675] (gas: 3)\n 33094: a0 = u64 [s1 + 0x118]\n 33098: a0 = i32 [a0]\n 33100: jump @1239 if a0 >u 31\n      : @1238 (gas: 3)\n 33104: a1 = u64 [s1 + 0x118]\n 33108: u32 [a1 + 0] = 0x20\n 33111: fallthrough\n      : @1239 (gas: 5)\n 33112: a0 = 0x1\n 33115: a2 = 0x4\n 33118: a1 = u64 [s1 + 0x110]\n 33122: ecalli 13 // 'seal_return'\n 33124: fallthrough\n      : @1240 (gas: 11)\n 33125: a2 = s1 + 0x7ff\n 33129: a2 = a2 + 0x119\n 33133: u64 [a2 + 1752] = 0\n 33137: u64 [a2 + 1744] = 0\n 33141: a0 = 0x7862e95900000000\n 33151: u64 [a2 + 0x6e0] = a0\n 33155: a1 = s1 + 0x7ff\n 33159: a1 = a1 + 0x7e1\n 33163: u64 [a2 + 1736] = 0\n 33167: a0 = 0\n 33169: ra = 1352, jump @24\n      : @1241 [@dyn 676] (gas: 2)\n 33175: a1 = i32 [0x20170]\n 33180: jump @1243 if a1 >u 31\n      : @1242 (gas: 3)\n 33184: u32 [0x20170] = 0x20\n 33190: a1 = 0x20180\n 33195: jump @856\n      : @1243 (gas: 2)\n 33198: a1 = 0x20180\n 33203: jump @856\n      : @1244 (gas: 2)\n 33206: u64 [s1 + 336] = 0\n 33210: fallthrough\n      : @1245 (gas: 7)\n 33211: a2 = s1 + 0x100\n 33215: a0 = u64 [a2 + 0x48]\n 33218: a0 = a0 << 0x1\n 33221: a1 = u64 [a2 + 0x50]\n 33224: a0 = a0 | a1\n 33227: u64 [a2] = a0\n 33229: fallthrough\n      : @1246 (gas: 10)\n 33230: u64 [s1 + 384] = 0\n 33234: u64 [s1 + 328] = 0\n 33238: a0 = u64 [s1 + 0x140]\n 33242: a1 = u64 [s1 + 0xa8]\n 33246: a0 = a0 & a1\n 33249: u64 [s1 + 0xe8] = a0\n 33253: a0 = 0xffffffff00000000\n 33263: u64 [s1 + 0xe0] = a0\n 33267: a0 = 0x1\n 33270: fallthrough\n      : @1247 (gas: 9)\n 33271: a4 = s1 + 0x100\n 33275: u64 [a4 + 0x78] = a0\n 33278: a3 = u64 [a4 + 0x48]\n 33281: a0 = a3 >u 0\n 33283: a1 = a3 >u 0\n 33285: a1 = a0 if a3 == 0\n 33288: a0 = u64 [s1 + 0xe8]\n 33292: a2 = u64 [a4 + 0x78]\n 33295: t0 = 1354, jump @1564\n      : @1248 [@dyn 677] (gas: 1)\n 33301: jump @1250 if a2 == 0\n      : @1249 (gas: 1)\n 33304: jump @1076\n      : @1250 (gas: 6)\n 33307: a2 = s1 + 0x100\n 33311: a0 = u64 [a2 + 0x40]\n 33314: a1 = u64 [a2 + 0x80]\n 33318: a0 = a0 & a1\n 33321: a1 = u64 [a2 + 0x10]\n 33324: jump @1252 if a0 <u a1\n      : @1251 (gas: 1)\n 33327: jump @1076\n      : @1252 (gas: 14)\n 33330: a2 = s1 + 0x7ff\n 33334: a2 = a2 + 0x119\n 33338: u64 [a2 + 1632] = 0\n 33342: a0 = u64 [s1 + 0x130]\n 33346: a3 = a2 + 0x600\n 33350: u64 [a3 + 0x48] = a0\n 33353: a0 = u64 [s1 + 0x138]\n 33357: u64 [a3 + 0x50] = a0\n 33360: a1 = s1 + 0x7ff\n 33364: a1 = a1 + 0x761\n 33368: a0 = u64 [s1 + 0x108]\n 33372: u64 [a3 + 0x58] = a0\n 33375: a0 = 0\n 33377: ra = 1356, jump @24\n      : @1253 [@dyn 678] (gas: 11)\n 33384: a0 = s1 + 0x7ff\n 33388: a0 = a0 + 0x119\n 33392: u64 [a0 + 1600] = 0\n 33396: u64 [a0 + 1592] = 0\n 33400: u64 [a0 + 1584] = 0\n 33404: a3 = a0\n 33406: a0 = 0x20\n 33409: a1 = s1 + 0x7ff\n 33413: a1 = a1 + 0x741\n 33417: u64 [a3 + 1576] = 0x2\n 33422: ra = 1358, jump @24\n      : @1254 [@dyn 679] (gas: 3)\n 33429: a0 = u64 [s1 + 0x198]\n 33433: a0 = i32 [a0]\n 33435: jump @1256 if a0 >u 63\n      : @1255 (gas: 3)\n 33439: a1 = u64 [s1 + 0x198]\n 33443: u32 [a1 + 0] = 0x40\n 33446: fallthrough\n      : @1256 (gas: 4)\n 33447: a0 = sp + 0xffffffffffffffe0\n 33450: a0 = a0 & 0xffffffffffffffe0\n 33453: u64 [s1 + 0x188] = a0\n 33457: t0 = 1360, jump @1492\n      : @1257 [@dyn 680] (gas: 31)\n 33463: ecalli 8 // 'hash_keccak_256'\n 33465: a3 = u64 [s1 + 0x188]\n 33469: a0 = u64 [a3 + 0x18]\n 33472: a1 = u64 [a3 + 0x10]\n 33475: a2 = u64 [a3 + 0x8]\n 33478: a3 = u64 [a3]\n 33480: a0 = reverse a0\n 33482: u64 [s1 + 0x170] = a0\n 33486: a0 = reverse a1\n 33488: u64 [s1 + 0x168] = a0\n 33492: a0 = reverse a2\n 33494: u64 [s1 + 0x160] = a0\n 33498: a0 = reverse a3\n 33500: u64 [s1 + 0x158] = a0\n 33504: a0 = sp + 0xffffffffffffffe0\n 33507: a0 = a0 & 0xffffffffffffffe0\n 33510: u64 [s1 + 0x188] = a0\n 33514: sp = a0\n 33516: a2 = s1 + 0x7ff\n 33520: a2 = a2 + 0x119\n 33524: a0 = u64 [s1 + 0x148]\n 33528: a3 = a2 + 0x600\n 33532: u64 [a3 + 0x20] = a0\n 33535: u64 [a3 + 0x18] = a0\n 33538: u64 [a3 + 0x10] = a0\n 33541: a1 = s1 + 0x7ff\n 33545: a1 = a1 + 0x721\n 33549: a0 = u64 [s1 + 0x178]\n 33553: u64 [a3 + 0x8] = a0\n 33556: a0 = 0\n 33558: ra = 1362, jump @24\n      : @1258 [@dyn 681] (gas: 15)\n 33565: a0 = u64 [s1 + 0x158]\n 33569: a1 = s1 + 0x7ff\n 33573: a1 = a1 + 0x119\n 33577: u64 [a1 + 0x600] = a0\n 33581: a0 = u64 [s1 + 0x160]\n 33585: u64 [a1 + 0x5f8] = a0\n 33589: a0 = u64 [s1 + 0x168]\n 33593: u64 [a1 + 0x5f0] = a0\n 33597: a3 = a1\n 33599: a0 = 0x20\n 33602: a1 = s1 + 0x7ff\n 33606: a1 = a1 + 0x701\n 33610: a2 = u64 [s1 + 0x170]\n 33614: u64 [a3 + 0x5e8] = a2\n 33618: ra = 1364, jump @24\n      : @1259 [@dyn 682] (gas: 3)\n 33625: a0 = u64 [s1 + 0x198]\n 33629: a0 = i32 [a0]\n 33631: jump @1261 if a0 >u 63\n      : @1260 (gas: 3)\n 33635: a0 = u64 [s1 + 0x198]\n 33639: u32 [a0 + 0] = 0x40\n 33642: fallthrough\n      : @1261 (gas: 4)\n 33643: a0 = sp + 0xffffffffffffffe0\n 33646: a0 = a0 & 0xffffffffffffffe0\n 33649: u64 [s1 + 0x170] = a0\n 33653: t0 = 1366, jump @1492\n      : @1262 [@dyn 683] (gas: 5)\n 33659: ra = 0x558\n 33663: ecalli 8 // 'hash_keccak_256'\n 33665: a3 = u64 [s1 + 0x170]\n 33669: t0 = 0x55a\n 33673: jump @1540\n      : @1263 [@dyn 684] (gas: 2)\n 33676: a3 = u64 [s1 + 0x170]\n 33680: t0 = 1370, jump @1540\n      : @1264 [@dyn 685] (gas: 13)\n 33686: a3 = s1 + 0x100\n 33690: a1 = u64 [a3 + 0x88]\n 33694: u64 [a3 + 0x68] = a2\n 33697: u64 [a1 + 0x18] = a2\n 33700: u64 [a3 + 0x70] = a0\n 33703: u64 [a1 + 0x10] = a0\n 33706: u64 [a3 + 0x60] = a4\n 33709: u64 [a1 + 0x8] = a4\n 33712: u64 [a3 + 0x58] = a5\n 33715: u64 [a1] = a5\n 33717: a0 = s1 + 0x7ff\n 33721: a0 = a0 + 0x6e1\n 33725: ra = 1372, jump @26\n      : @1265 [@dyn 686] (gas: 13)\n 33732: a2 = s1 + 0x7ff\n 33736: a2 = a2 + 0x119\n 33740: a3 = a2 + 0x500\n 33744: a0 = u64 [a3 + 0xd0]\n 33748: a1 = u64 [a3 + 0xd8]\n 33752: a2 = u64 [a3 + 0xc8]\n 33756: a0 = a0 & 0xffffffffffffffff\n 33759: a1 = a1 & 0xffffffffffffffff\n 33762: a3 = u64 [s1 + 0xe0]\n 33766: a2 = a2 & a3\n 33769: a1 = a1 | a2\n 33772: a0 = a0 | a1\n 33775: jump @1268 if a0 == 0\n      : @1266 (gas: 27)\n 33778: a5 = s1 + 0x100\n 33782: a0 = u64 [a5 + 0x58]\n 33785: a2 = a0 + 0x2\n 33788: a0 = a2 <u a0\n 33791: a1 = u64 [a5 + 0x60]\n 33794: a3 = a1 + a0\n 33797: a1 = a3 <u a1\n 33800: a1 = a0 if a0 == 0\n 33803: a0 = u64 [a5 + 0x70]\n 33806: a4 = a0 + a1\n 33809: a0 = a4 <u a0\n 33812: a1 = u64 [a5 + 0x68]\n 33815: a1 = a1 + a0\n 33818: a0 = s1 + 0x2918\n 33822: u64 [a5 + 0x88] = a2\n 33826: u64 [a0 + 0x1c8] = a2\n 33830: u64 [a5 + 0x70] = a3\n 33833: a2 = a0 + 0x100\n 33837: u64 [a2 + 0xd0] = a3\n 33841: u64 [a5 + 0x68] = a4\n 33844: u64 [a2 + 0xd8] = a4\n 33848: u64 [a5 + 0x60] = a1\n 33851: u64 [a2 + 0xe0] = a1\n 33855: a0 = s1 + 0x7ff\n 33859: a0 = a0 + 0x6c1\n 33863: a1 = s1 + 0x2ae0\n 33867: ra = 1374, jump @26\n      : @1267 [@dyn 687] (gas: 5)\n 33874: a0 = s1 + 0x7ff\n 33878: a0 = a0 + 0x119\n 33882: a0 = u64 [a0 + 0x5b0]\n 33886: a0 = a0 & 0xff\n 33890: jump @1269 if a0 == 0\n      : @1268 (gas: 6)\n 33893: u64 [s1 + 328] = 0\n 33897: a0 = u64 [s1 + 0x178]\n 33901: a0 = a0 + 0x1\n 33904: a1 = u64 [s1 + 0x140]\n 33908: a0 = a0 & a1\n 33911: jump @1247\n      : @1269 (gas: 15)\n 33914: a0 = s1 + 0x2918\n 33918: a2 = s1 + 0x100\n 33922: a1 = u64 [a2 + 0x88]\n 33926: a3 = a0 + 0x100\n 33930: u64 [a3 + 0xe8] = a1\n 33934: a1 = u64 [a2 + 0x70]\n 33937: u64 [a3 + 0xf0] = a1\n 33941: a1 = u64 [a2 + 0x68]\n 33944: u64 [a3 + 0xf8] = a1\n 33948: a1 = u64 [a2 + 0x60]\n 33951: u64 [a0 + 0x200] = a1\n 33955: a0 = s1 + 0x7ff\n 33959: a0 = a0 + 0x6a1\n 33963: a1 = s1 + 0x2b00\n 33967: ra = 1376, jump @26\n      : @1270 [@dyn 688] (gas: 14)\n 33974: a3 = s1 + 0x7ff\n 33978: a3 = a3 + 0x119\n 33982: a0 = u64 [a3 + 0x588]\n 33986: a4 = a0 & 0xffffffffffffffff\n 33989: a1 = u64 [s1 + 0xb0]\n 33993: a0 = a4 <u a1\n 33996: a4 = a1 if a0 != 0\n 33999: t0 = u64 [s1 + 0xc8]\n 34003: t0 = 0 if a0 == 0\n 34005: a5 = u64 [s1 + 0xc0]\n 34009: a5 = 0 if a0 == 0\n 34011: a1 = u64 [s1 + 0xb8]\n 34015: a1 = 0 if a0 == 0\n 34017: fallthrough\n      : @1271 (gas: 3)\n 34018: a2 = a4 & 0xffffffffffffffff\n 34021: a0 = u64 [s1 + 0x100]\n 34025: jump @1268 if a2 >=u a0\n      : @1272 (gas: 11)\n 34029: u64 [s1 + 0x170] = a2\n 34033: a2 = s1 + 0x100\n 34037: u64 [a2 + 0x18] = a1\n 34040: u64 [a2 + 0x20] = a5\n 34043: u64 [s1 + 0x128] = t0\n 34047: u64 [a2 + 0x88] = a4\n 34051: a0 = u64 [a2 + 0x40]\n 34054: a1 = u64 [a2 + 0x80]\n 34058: a0 = a0 & a1\n 34061: a1 = u64 [a2 + 0x10]\n 34064: jump @1268 if a0 >=u a1\n      : @1273 (gas: 12)\n 34068: u64 [a3 + 1408] = 0\n 34072: a0 = u64 [s1 + 0x130]\n 34076: a2 = a3 + 0x500\n 34080: u64 [a2 + 0x68] = a0\n 34083: a0 = u64 [s1 + 0x138]\n 34087: u64 [a2 + 0x70] = a0\n 34090: a1 = s1 + 0x7ff\n 34094: a1 = a1 + 0x681\n 34098: a0 = u64 [s1 + 0x108]\n 34102: u64 [a2 + 0x78] = a0\n 34105: a0 = 0\n 34107: ra = 1378, jump @24\n      : @1274 [@dyn 689] (gas: 11)\n 34114: a0 = s1 + 0x7ff\n 34118: a0 = a0 + 0x119\n 34122: u64 [a0 + 1376] = 0\n 34126: u64 [a0 + 1368] = 0\n 34130: u64 [a0 + 1360] = 0\n 34134: a3 = a0\n 34136: a0 = 0x20\n 34139: a1 = s1 + 0x7ff\n 34143: a1 = a1 + 0x661\n 34147: u64 [a3 + 1352] = 0x4\n 34152: ra = 1380, jump @24\n      : @1275 [@dyn 690] (gas: 3)\n 34159: a1 = u64 [s1 + 0x198]\n 34163: a0 = i32 [a1]\n 34165: jump @1277 if a0 >u 63\n      : @1276 (gas: 2)\n 34169: u32 [a1 + 0] = 0x40\n 34172: fallthrough\n      : @1277 (gas: 4)\n 34173: a0 = sp + 0xffffffffffffffe0\n 34176: a0 = a0 & 0xffffffffffffffe0\n 34179: u64 [s1 + 0x168] = a0\n 34183: t0 = 1382, jump @1492\n      : @1278 [@dyn 691] (gas: 4)\n 34189: ra = 0x568\n 34193: ecalli 8 // 'hash_keccak_256'\n 34195: t0 = 0x56a\n 34199: jump @1547\n      : @1279 [@dyn 692] (gas: 1)\n 34202: t0 = 1386, jump @1547\n      : @1280 [@dyn 693] (gas: 18)\n 34208: u64 [s1 + 0x168] = a0\n 34212: a0 = reverse a1\n 34214: u64 [s1 + 0x160] = a0\n 34218: a0 = reverse a2\n 34220: u64 [s1 + 0x158] = a0\n 34224: a0 = reverse a3\n 34226: u64 [s1 + 0x150] = a0\n 34230: a2 = s1 + 0x7ff\n 34234: a2 = a2 + 0x119\n 34238: u64 [a2 + 1344] = 0\n 34242: u64 [a2 + 1336] = 0\n 34246: u64 [a2 + 1328] = 0\n 34250: a1 = s1 + 0x7ff\n 34254: a1 = a1 + 0x641\n 34258: a0 = u64 [s1 + 0x170]\n 34262: u64 [a2 + 0x528] = a0\n 34266: a0 = 0\n 34268: ra = 1388, jump @24\n      : @1281 [@dyn 694] (gas: 16)\n 34275: a0 = u64 [s1 + 0x150]\n 34279: a1 = s1 + 0x7ff\n 34283: a1 = a1 + 0x119\n 34287: a2 = a1 + 0x500\n 34291: u64 [a2 + 0x20] = a0\n 34294: a0 = u64 [s1 + 0x158]\n 34298: u64 [a2 + 0x18] = a0\n 34301: a0 = u64 [s1 + 0x160]\n 34305: u64 [a2 + 0x10] = a0\n 34308: a3 = a1\n 34310: a0 = 0x20\n 34313: a1 = s1 + 0x7ff\n 34317: a1 = a1 + 0x621\n 34321: a2 = u64 [s1 + 0x168]\n 34325: u64 [a3 + 0x508] = a2\n 34329: ra = 1390, jump @24\n      : @1282 [@dyn 695] (gas: 3)\n 34336: a1 = u64 [s1 + 0x198]\n 34340: a0 = i32 [a1]\n 34342: jump @1284 if a0 >u 63\n      : @1283 (gas: 2)\n 34346: u32 [a1 + 0] = 0x40\n 34349: fallthrough\n      : @1284 (gas: 4)\n 34350: a0 = sp + 0xffffffffffffffe0\n 34353: a0 = a0 & 0xffffffffffffffe0\n 34356: u64 [s1 + 0x170] = a0\n 34360: t0 = 1392, jump @1492\n      : @1285 [@dyn 696] (gas: 3)\n 34366: ra = 0x572\n 34370: ecalli 8 // 'hash_keccak_256'\n 34372: fallthrough\n      : @1286 [@dyn 697] (gas: 14)\n 34373: a3 = u64 [s1 + 0x170]\n 34377: a0 = u64 [a3 + 0x18]\n 34380: a1 = u64 [a3 + 0x10]\n 34383: a2 = u64 [a3 + 0x8]\n 34386: a3 = u64 [a3]\n 34388: a0 = reverse a0\n 34390: u64 [s1 + 0x168] = a0\n 34394: a0 = reverse a1\n 34396: u64 [s1 + 0x160] = a0\n 34400: a0 = reverse a2\n 34402: u64 [s1 + 0x158] = a0\n 34406: a0 = reverse a3\n 34408: u64 [s1 + 0x150] = a0\n 34412: t0 = 1396, jump @1560\n      : @1287 [@dyn 698] (gas: 13)\n 34418: a2 = s1 + 0x7ff\n 34422: a2 = a2 + 0x119\n 34426: a0 = u64 [s1 + 0x148]\n 34430: u64 [a2 + 0x500] = a0\n 34434: a3 = a2 + 0x400\n 34438: u64 [a3 + 0xf8] = a0\n 34442: u64 [a3 + 0xf0] = a0\n 34446: a1 = s1 + 0x7ff\n 34450: a1 = a1 + 0x601\n 34454: a0 = u64 [s1 + 0x178]\n 34458: u64 [a3 + 0xe8] = a0\n 34462: a0 = 0\n 34464: ra = 1398, jump @24\n      : @1288 [@dyn 699] (gas: 16)\n 34471: a0 = u64 [s1 + 0x150]\n 34475: a1 = s1 + 0x7ff\n 34479: a1 = a1 + 0x119\n 34483: a2 = a1 + 0x400\n 34487: u64 [a2 + 0xe0] = a0\n 34491: a0 = u64 [s1 + 0x158]\n 34495: u64 [a2 + 0xd8] = a0\n 34499: a0 = u64 [s1 + 0x160]\n 34503: u64 [a2 + 0xd0] = a0\n 34507: a3 = a1\n 34509: a0 = 0x20\n 34512: a1 = s1 + 0x7ff\n 34516: a1 = a1 + 0x5e1\n 34520: a2 = u64 [s1 + 0x168]\n 34524: u64 [a3 + 0x4c8] = a2\n 34528: ra = 1400, jump @24\n      : @1289 [@dyn 700] (gas: 3)\n 34535: a1 = u64 [s1 + 0x198]\n 34539: a0 = i32 [a1]\n 34541: jump @1291 if a0 >u 63\n      : @1290 (gas: 2)\n 34545: u32 [a1 + 0] = 0x40\n 34548: fallthrough\n      : @1291 (gas: 4)\n 34549: a0 = sp + 0xffffffffffffffe0\n 34552: a0 = a0 & 0xffffffffffffffe0\n 34555: u64 [s1 + 0x168] = a0\n 34559: t0 = 1402, jump @1492\n      : @1292 [@dyn 701] (gas: 5)\n 34565: ra = 0x57c\n 34569: ecalli 8 // 'hash_keccak_256'\n 34571: a3 = u64 [s1 + 0x168]\n 34575: t0 = 0x57e\n 34579: jump @1501\n      : @1293 [@dyn 702] (gas: 2)\n 34582: a3 = u64 [s1 + 0x168]\n 34586: t0 = 1406, jump @1501\n      : @1294 [@dyn 703] (gas: 3)\n 34592: a0 = s1 + 0x7ff\n 34596: a0 = a0 + 0x5c1\n 34600: ra = 1408, jump @26\n      : @1295 [@dyn 704] (gas: 5)\n 34607: a3 = s1 + 0x7ff\n 34611: a3 = a3 + 0x119\n 34615: a0 = u64 [a3 + 0x4a8]\n 34619: a0 = a0 & 0x5\n 34622: jump @1298 if a0 != 1\n      : @1296 (gas: 30)\n 34627: a0 = u64 [s1 + 0x178]\n 34631: a5 = a3 + 0x400\n 34635: u64 [a5 + 0x48] = a0\n 34638: a0 = u64 [s1 + 0x188]\n 34642: u64 [a5 + 0x68] = a0\n 34645: a0 = u64 [s1 + 0x130]\n 34649: u64 [a5 + 0x88] = a0\n 34653: a1 = u64 [s1 + 0x148]\n 34657: u64 [a5 + 0x50] = a1\n 34660: a0 = u64 [s1 + 0x118]\n 34664: u64 [a5 + 0x70] = a0\n 34667: a0 = u64 [s1 + 0x138]\n 34671: u64 [a5 + 0x90] = a0\n 34675: u64 [a5 + 0x58] = a1\n 34678: a0 = u64 [s1 + 0x120]\n 34682: u64 [a5 + 0x78] = a0\n 34685: a0 = u64 [s1 + 0xf8]\n 34689: u64 [a5 + 0x98] = a0\n 34693: u64 [a5 + 0x60] = a1\n 34696: a0 = u64 [s1 + 0x128]\n 34700: u64 [a5 + 0x80] = a0\n 34704: a0 = s1 + 0x7ff\n 34708: a0 = a0 + 0x5a1\n 34712: a1 = s1 + 0x7ff\n 34716: a1 = a1 + 0x581\n 34720: a2 = s1 + 0x7ff\n 34724: a2 = a2 + 0x561\n 34728: a4 = u64 [s1 + 0xf0]\n 34732: u64 [a5 + 0xa0] = a4\n 34736: ra = 1410, jump @1351\n      : @1297 [@dyn 705] (gas: 10)\n 34742: a2 = s1 + 0x100\n 34746: a4 = u64 [a2 + 0x88]\n 34750: a3 = s1 + 0x7ff\n 34754: a3 = a3 + 0x119\n 34758: a0 = u64 [a2 + 0x80]\n 34762: a0 = a0 + 0x1\n 34765: a1 = u64 [a2 + 0x40]\n 34768: a0 = a0 & a1\n 34771: u64 [a2 + 0x80] = a0\n 34775: jump @1299\n      : @1298 (gas: 2)\n 34777: a4 = u64 [s1 + 0x188]\n 34781: fallthrough\n      : @1299 (gas: 6)\n 34782: a1 = 0\n 34784: a5 = 0\n 34786: t0 = 0\n 34788: a0 = a4 + 0x1\n 34791: a4 = a0 & 0xffffffffffffffff\n 34794: jump @1271\n      : @1300 (gas: 11)\n 34797: a2 = s1 + 0x7ff\n 34801: a2 = a2 + 0x119\n 34805: u64 [a2 + 56] = 0\n 34808: u64 [a2 + 48] = 0\n 34811: a0 = 0xcf114bd900000000\n 34821: u64 [a2 + 0x40] = a0\n 34824: a1 = s1 + 0x7ff\n 34828: a1 = a1 + 0x141\n 34832: u64 [a2 + 40] = 0\n 34835: a0 = 0\n 34837: ra = 1412, jump @24\n      : @1301 [@dyn 706] (gas: 2)\n 34844: a1 = i32 [0x20170]\n 34849: jump @1303 if a1 >u 31\n      : @1302 (gas: 3)\n 34853: u32 [0x20170] = 0x20\n 34859: a1 = 0x20180\n 34864: jump @856\n      : @1303 (gas: 2)\n 34867: a1 = 0x20180\n 34872: jump @856\n      : @1304 (gas: 11)\n 34875: a2 = s1 + 0x7ff\n 34879: a2 = a2 + 0x119\n 34883: u64 [a2 + 24] = 0\n 34886: u64 [a2 + 16] = 0\n 34889: a0 = 0x7862e95900000000\n 34899: u64 [a2 + 0x20] = a0\n 34902: a1 = s1 + 0x7ff\n 34906: a1 = a1 + 0x121\n 34910: u64 [a2 + 8] = 0\n 34913: a0 = 0\n 34915: ra = 1414, jump @24\n      : @1305 [@dyn 707] (gas: 2)\n 34922: a1 = i32 [0x20170]\n 34927: jump @1307 if a1 >u 31\n      : @1306 (gas: 3)\n 34931: u32 [0x20170] = 0x20\n 34937: a1 = 0x20180\n 34942: jump @856\n      : @1307 (gas: 2)\n 34945: a1 = 0x20180\n 34950: jump @856\n      : @1308 (gas: 5)\n 34953: a0 = 0\n 34955: a1 = u64 [s1 + 0x180]\n 34959: a2 = 0\n 34961: ecalli 13 // 'seal_return'\n 34963: jump @1039\n      : @1309 [@dyn 708] (gas: 2)\n 34966: ecalli 2 // 'call_data_load'\n 34968: fallthrough\n      : @1310 (gas: 10)\n 34969: a0 = u64 [sp + 0x10]\n 34972: a1 = u64 [sp + 0x18]\n 34975: a2 = 0x100000000\n 34985: a2 = a2 ^ a0\n 34988: a2 = a2 | a1\n 34991: a3 = a0 >> 0x20\n 34994: a3 = a3 <u 0x1\n 34997: a3 = 0 if a1 != 0\n 34999: a3 = 0 if a2 == 0\n 35001: jump @1312 if a3 == 0\n      : @1311 (gas: 12)\n 35004: a2 = u64 [sp]\n 35006: a3 = u64 [sp + 0x8]\n 35009: u64 [s1] = a2\n 35011: u64 [s1 + 0x8] = a3\n 35014: u64 [s1 + 0x10] = a0\n 35017: u64 [s1 + 0x18] = a1\n 35020: sp = s0 + 0xffffffffffffffc0\n 35023: ra = u64 [sp + 0x38]\n 35026: s0 = u64 [sp + 0x30]\n 35029: s1 = u64 [sp + 0x28]\n 35032: sp = sp + 0x40\n 35035: ret\n      : @1312 (gas: 8)\n 35037: a1 = 0x20180\n 35042: i32 a1 = a1 + 0\n 35044: a0 = 0x1\n 35047: a2 = 0\n 35049: ra = 0x58a\n 35053: ecalli 13 // 'seal_return'\n 35055: t0 = 0x58c\n 35059: jump @1569\n      : @1313 [@dyn 709] (gas: 1)\n 35062: t0 = 1420, jump @1569\n      : @1314 [@dyn 710] (gas: 3)\n 35068: a1 = 0x24\n 35071: ecalli 2 // 'call_data_load'\n 35073: fallthrough\n      : @1315 (gas: 7)\n 35074: a0 = u64 [sp + 0x18]\n 35077: a1 = u64 [sp + 0x10]\n 35080: a2 = u64 [sp + 0x8]\n 35083: a3 = a1 | a0\n 35086: a4 = a2 <u 0x1\n 35089: a4 = 0 if a3 != 0\n 35091: jump @1318 if a4 == 0\n      : @1316 (gas: 2)\n 35094: a3 = u64 [sp]\n 35096: t0 = 1422, jump @1523\n      : @1317 [@dyn 711] (gas: 1)\n 35102: ret\n      : @1318 (gas: 8)\n 35104: a1 = 0x20180\n 35109: i32 a1 = a1 + 0\n 35111: a0 = 0x1\n 35114: a2 = 0\n 35116: ra = 0x590\n 35120: ecalli 13 // 'seal_return'\n 35122: t0 = 0x592\n 35126: jump @1569\n      : @1319 [@dyn 712] (gas: 1)\n 35129: t0 = 1426, jump @1569\n      : @1320 [@dyn 713] (gas: 5)\n 35135: a1 = 0x44\n 35138: ra = 0x594\n 35142: ecalli 2 // 'call_data_load'\n 35144: t0 = 0x596\n 35148: jump @1539\n      : @1321 [@dyn 714] (gas: 1)\n 35151: t0 = 1430, jump @1539\n      : @1322 [@dyn 715] (gas: 1)\n 35157: jump @1325 if a4 != 0\n      : @1323 (gas: 1)\n 35160: t0 = 1432, jump @1523\n      : @1324 [@dyn 716] (gas: 1)\n 35166: ret\n      : @1325 (gas: 8)\n 35168: a1 = 0x20180\n 35173: i32 a1 = a1 + 0\n 35175: a0 = 0x1\n 35178: a2 = 0\n 35180: ra = 0x59a\n 35184: ecalli 13 // 'seal_return'\n 35186: t0 = 0x59c\n 35190: jump @1553\n      : @1326 [@dyn 717] (gas: 1)\n 35193: t0 = 1436, jump @1553\n      : @1327 [@dyn 718] (gas: 4)\n 35199: ra = 0x59e\n 35203: ecalli 2 // 'call_data_load'\n 35205: t0 = 0x5a0\n 35209: jump @1539\n      : @1328 [@dyn 719] (gas: 1)\n 35212: t0 = 1440, jump @1539\n      : @1329 [@dyn 720] (gas: 1)\n 35218: jump @1332 if a4 != 0\n      : @1330 (gas: 1)\n 35221: t0 = 1442, jump @1523\n      : @1331 [@dyn 721] (gas: 1)\n 35227: ret\n      : @1332 (gas: 7)\n 35229: a1 = 0x20180\n 35234: i32 a1 = a1 + 0\n 35236: a0 = 0x1\n 35239: a2 = 0\n 35241: ra = 0x5a4\n 35245: ecalli 13 // 'seal_return'\n 35247: fallthrough\n      : @1333 [@dyn 722] (gas: 33)\n 35248: sp = sp + 0xffffffffffffffa0\n 35251: u64 [sp + 0x58] = ra\n 35254: u64 [sp + 0x50] = s0\n 35257: u64 [sp + 0x48] = s1\n 35260: s0 = sp + 0x60\n 35263: sp = sp & 0xfffffffffffffff0\n 35266: a2 = u64 [a1 + 0x10]\n 35269: a5 = u64 [a1 + 0x8]\n 35272: a4 = u64 [a1]\n 35274: a1 = u64 [a1 + 0x18]\n 35277: t0 = a2 << 0x3f\n 35280: a3 = a5 >> 0x1\n 35283: t0 = a3 | t0\n 35286: a3 = a1 << 0x3f\n 35289: a2 = a2 >> 0x1\n 35292: a3 = a3 | a2\n 35295: a5 = a5 << 0x3f\n 35298: a2 = a4 >> 0x1\n 35301: a5 = a5 | a2\n 35304: t1 = a1 >> 0x1\n 35307: a4 = a4 & 0x1\n 35310: a1 = -a4\n 35312: s1 = a4 <u 0x1\n 35315: a2 = a5 & 0x7f\n 35318: t2 = a1 & a3\n 35321: a3 = a1 & t0\n 35324: a2 = a5 if a4 != 0\n 35327: a4 = a1 & t1\n 35330: a1 = a2 <u 0x20\n 35333: a1 = 0 if a3 != 0\n 35335: a5 = t2 | a4\n 35338: a1 = 0 if a5 != 0\n 35340: jump @1336 if s1 != a1\n      : @1334 (gas: 5)\n 35343: u64 [a0] = a2\n 35345: u64 [a0 + 0x8] = a3\n 35348: u64 [a0 + 0x10] = t2\n 35351: u64 [a0 + 0x18] = a4\n 35354: t0 = 1446, jump @1558\n      : @1335 [@dyn 723] (gas: 1)\n 35360: ret\n      : @1336 (gas: 1)\n 35362: t0 = 1448, jump @1550\n      : @1337 [@dyn 724] (gas: 1)\n 35368: ra = 1450, jump @24\n      : @1338 [@dyn 725] (gas: 7)\n 35375: u64 [sp + 24] = 0\n 35378: u64 [sp + 16] = 0\n 35381: u64 [sp + 0] = 0x22\n 35384: a0 = 0x4\n 35387: a1 = sp\n 35389: u64 [sp + 8] = 0\n 35392: ra = 1452, jump @24\n      : @1339 [@dyn 726] (gas: 2)\n 35399: a1 = i32 [0x20170]\n 35404: jump @1341 if a1 >u 63\n      : @1340 (gas: 2)\n 35408: u32 [0x20170] = 0x40\n 35414: fallthrough\n      : @1341 (gas: 7)\n 35415: a1 = 0x20180\n 35420: i32 a1 = a1 + 0\n 35422: a0 = 0x1\n 35425: a2 = 0x24\n 35428: ra = 0x5ae\n 35432: ecalli 13 // 'seal_return'\n 35434: fallthrough\n      : @1342 [@dyn 727] (gas: 46)\n 35435: sp = sp + 0xffffffffffffff70\n 35439: u64 [sp + 0x88] = ra\n 35443: u64 [sp + 0x80] = s0\n 35447: u64 [sp + 0x78] = s1\n 35450: s0 = sp + 0x90\n 35454: sp = sp & 0xfffffffffffffff0\n 35457: t0 = a0\n 35459: a2 = u64 [a1]\n 35461: t2 = u64 [a0 + 0x8]\n 35464: a5 = u64 [a1 + 0x8]\n 35467: t1 = u64 [a0]\n 35469: a3 = a2 + 0x1f\n 35472: ra = a3 <u a2\n 35475: a2 = a5 + ra\n 35478: a3 = a3 & 0xffffffffffffffe0\n 35481: u64 [sp + 0x8] = t1\n 35484: t1 = t1 + a3\n 35487: a4 = t1 <u a3\n 35490: a3 = a2 + t2\n 35493: a3 = a3 + a4\n 35496: s1 = a3 ^ a2\n 35499: a0 = a3 <u a2\n 35502: a0 = a4 if s1 == 0\n 35505: a4 = u64 [t0 + 0x18]\n 35508: a5 = a2 <u a5\n 35511: s1 = u64 [a1 + 0x10]\n 35514: t0 = u64 [t0 + 0x10]\n 35517: a1 = u64 [a1 + 0x18]\n 35520: a5 = ra if ra == 0\n 35523: a5 = a5 + s1\n 35526: s1 = a5 <u s1\n 35529: a2 = a5 + t0\n 35532: a0 = a0 + a2\n 35535: a5 = a2 <u a5\n 35538: a2 = a0 <u a2\n 35541: a1 = a1 + a4\n 35544: a1 = a1 + s1\n 35547: a1 = a1 + a5\n 35550: a5 = a1 + a2\n 35553: a1 = a5 >u 0\n 35555: a2 = a0 >u 0\n 35557: a2 = a1 if a5 != 0\n 35560: a1 = a0 | a5\n 35563: s1 = a3 >u 0\n 35565: s1 = a2 if a1 != 0\n 35568: jump @1346 if s1 != 0\n      : @1343 (gas: 13)\n 35571: a1 = u64 [sp + 0x8]\n 35574: a1 = t1 <u a1\n 35577: a2 = a3 ^ t2\n 35580: s1 = a3 <u t2\n 35583: s1 = a1 if a2 == 0\n 35586: a1 = a0 <u t0\n 35589: a2 = a5 ^ a4\n 35592: a4 = a5 <u a4\n 35595: a4 = a1 if a2 == 0\n 35598: a1 = a0 ^ t0\n 35601: a1 = a1 | a2\n 35604: a4 = s1 if a1 == 0\n 35607: jump @1346 if a4 != 0\n      : @1344 (gas: 7)\n 35610: u64 [sp + 0x50] = t1\n 35613: u64 [sp + 0x58] = a3\n 35616: u64 [sp + 0x60] = a0\n 35619: a0 = 0x40\n 35622: a1 = sp + 0x50\n 35625: u64 [sp + 0x68] = a5\n 35628: ra = 1456, jump @24\n      : @1345 [@dyn 728] (gas: 6)\n 35635: sp = s0 + 0xffffffffffffff70\n 35639: ra = u64 [sp + 0x88]\n 35643: s0 = u64 [sp + 0x80]\n 35647: s1 = u64 [sp + 0x78]\n 35650: sp = sp + 0x90\n 35654: ret\n      : @1346 (gas: 8)\n 35656: u64 [sp + 64] = 0\n 35659: u64 [sp + 56] = 0\n 35662: u64 [sp + 48] = 0\n 35665: a0 = 0x4e487b7100000000\n 35675: a1 = sp + 0x30\n 35678: u64 [sp + 0x48] = a0\n 35681: a0 = 0\n 35683: ra = 1458, jump @24\n      : @1347 [@dyn 729] (gas: 7)\n 35690: u64 [sp + 40] = 0\n 35693: u64 [sp + 32] = 0\n 35696: u64 [sp + 16] = 0x41\n 35700: a0 = 0x4\n 35703: a1 = sp + 0x10\n 35706: u64 [sp + 24] = 0\n 35709: ra = 1460, jump @24\n      : @1348 [@dyn 730] (gas: 2)\n 35716: a1 = i32 [0x20170]\n 35721: jump @1350 if a1 >u 63\n      : @1349 (gas: 2)\n 35725: u32 [0x20170] = 0x40\n 35731: fallthrough\n      : @1350 (gas: 7)\n 35732: a1 = 0x20180\n 35737: i32 a1 = a1 + 0\n 35739: a0 = 0x1\n 35742: a2 = 0x24\n 35745: ra = 0x5b6\n 35749: ecalli 13 // 'seal_return'\n 35751: fallthrough\n      : @1351 [@dyn 731] (gas: 21)\n 35752: sp = sp + 0xfffffffffffff8a0\n 35756: a3 = sp + 0x700\n 35760: u64 [a3 + 0x58] = ra\n 35763: u64 [a3 + 0x50] = s0\n 35766: u64 [a3 + 0x48] = s1\n 35769: s0 = sp + 0x760\n 35773: sp = sp & 0xffffffffffffffe0\n 35776: s1 = sp\n 35778: a2 = u64 [a2]\n 35780: u64 [s1 + 0x28] = a2\n 35783: a1 = u64 [a1]\n 35785: u64 [s1 + 0x30] = a1\n 35788: a1 = u64 [a0 + 0x10]\n 35791: u64 [s1 + 0x20] = a1\n 35794: a1 = u64 [a0 + 0x8]\n 35797: u64 [s1 + 0x38] = a1\n 35800: a0 = u64 [a0]\n 35802: u64 [s1 + 0x40] = a0\n 35805: i32 a0 = s1 + 0x5e0\n 35809: ecalli 9 // 'now'\n 35811: fallthrough\n      : @1352 (gas: 48)\n 35812: t0 = u64 [s1 + 0x5f8]\n 35816: t1 = u64 [s1 + 0x5f0]\n 35820: a0 = u64 [s1 + 0x5e8]\n 35824: a4 = u64 [s1 + 0x5e0]\n 35828: u64 [s1 + 0x78] = a4\n 35831: a2 = clz t0\n 35833: a1 = clz t1\n 35835: a3 = a1 + 0x40\n 35838: a3 = a2 if t0 != 0\n 35841: a2 = clz a0\n 35843: a1 = clz a4\n 35845: a1 = a1 + 0x40\n 35848: a1 = a2 if a0 != 0\n 35851: a4 = a1 + 0x80\n 35855: a2 = t1 | t0\n 35858: a3 = a4 if a2 == 0\n 35861: a5 = a4 <u a1\n 35864: a5 = 0 if a2 != 0\n 35866: a4 = a5 >u 0\n 35868: a1 = a3 <u 0xf0\n 35872: a2 = a1 ^ 0x1\n 35875: a4 = a2 if a5 == 0\n 35878: t2 = a4 <u 0x1\n 35881: ra = t2 + 0xffffffffffffffff\n 35884: t2 = -a4\n 35886: a5 = -a5\n 35888: a2 = a5 - a2\n 35891: a1 = 0xef - a3\n 35895: u64 [s1 + 0xa8] = t2\n 35899: a3 = t2 >u 0\n 35901: a5 = ra >u 0\n 35903: a5 = a3 if ra == 0\n 35906: u64 [s1 + 0xb8] = a1\n 35910: a3 = a1 <u 0x100\n 35914: a3 = a3 ^ 0x1\n 35917: a1 = a2 >u 0\n 35919: a3 = a1 if a2 != 0\n 35922: a3 = a5 if a4 != 0\n 35925: t2 = a0\n 35927: a0 = u64 [s1 + 0x78]\n 35930: a1 = t2 | t0\n 35933: a4 = a0 | t1\n 35936: a1 = a1 | a4\n 35939: a1 = a1 <u 0x1\n 35942: a1 = a1 | a3\n 35945: a3 = a0\n 35947: a3 = 0 if a1 != 0\n 35949: jump @1368 if a1 != 0\n      : @1353 (gas: 7)\n 35953: a1 = u64 [s1 + 0xb8]\n 35957: a1 = a1 ^ 0xff\n 35961: a5 = u64 [s1 + 0xa8]\n 35965: a1 = a1 | a5\n 35968: a4 = a2 | ra\n 35971: a1 = a1 | a4\n 35974: jump @1368 if a1 == 0\n      : @1354 (gas: 21)\n 35978: a4 = u64 [s1 + 0xb8]\n 35982: a3 = a4 + 0x1\n 35985: u64 [s1 + 0xb0] = a3\n 35989: a1 = a3 <u 0x1\n 35992: a1 = a1 + a2\n 35995: u64 [s1 + 0xa0] = a1\n 35999: a1 = a1 | a3\n 36002: a1 = a1 <u 0x1\n 36005: a1 = a1 + a5\n 36008: u64 [s1 + 0x90] = a1\n 36012: a1 = a1 <u a5\n 36015: a1 = a1 + ra\n 36018: u64 [s1 + 0x98] = a1\n 36022: a2 = 0xff - a4\n 36026: u64 [s1 + 0x88] = a2\n 36030: a2 = 0x80 - a2\n 36034: a1 = t2\n 36036: u64 [s1 + 0x70] = t2\n 36039: u64 [s1 + 0x68] = t0\n 36042: u64 [s1 + 0x60] = t1\n 36045: ra = 1464, jump @1574\n      : @1355 [@dyn 732] (gas: 6)\n 36051: u64 [s1 + 0x80] = a0\n 36055: u64 [s1 + 0x50] = a1\n 36058: a0 = u64 [s1 + 0x60]\n 36061: a1 = u64 [s1 + 0x68]\n 36064: a2 = u64 [s1 + 0x88]\n 36068: ra = 1466, jump @1579\n      : @1356 [@dyn 733] (gas: 7)\n 36074: u64 [s1 + 0x48] = a0\n 36077: u64 [s1 + 0x18] = a1\n 36080: a1 = u64 [s1 + 0xb8]\n 36084: a2 = 0x7f - a1\n 36087: a0 = u64 [s1 + 0x78]\n 36090: a1 = u64 [s1 + 0x70]\n 36093: ra = 1468, jump @1579\n      : @1357 [@dyn 734] (gas: 8)\n 36099: u64 [s1 + 0x10] = a0\n 36102: u64 [s1 + 0xb8] = a1\n 36106: a2 = u64 [s1 + 0x88]\n 36110: a0 = a2 <u 0x80\n 36114: u64 [s1 + 0x58] = a0\n 36117: a0 = u64 [s1 + 0x78]\n 36120: a1 = u64 [s1 + 0x70]\n 36123: ra = 1470, jump @1579\n      : @1358 [@dyn 735] (gas: 11)\n 36129: a5 = u64 [s1 + 0x58]\n 36132: a4 = u64 [s1 + 0x90]\n 36136: a3 = u64 [s1 + 0x98]\n 36140: a2 = u64 [s1 + 0xa0]\n 36144: a2 = a2 | a3\n 36147: a3 = u64 [s1 + 0xb0]\n 36151: a3 = a3 | a4\n 36154: a3 = a3 | a2\n 36157: a0 = 0 if a5 == 0\n 36159: u64 [s1 + 0xa8] = a0\n 36163: jump @1366 if a3 == 0\n      : @1359 (gas: 27)\n 36167: a0 = u64 [s1 + 0x50]\n 36170: a2 = u64 [s1 + 0x18]\n 36173: a0 = a0 | a2\n 36176: a2 = u64 [s1 + 0xb8]\n 36180: a0 = a2 if a5 == 0\n 36183: t0 = u64 [s1 + 0x68]\n 36186: a3 = t0\n 36188: t1 = u64 [s1 + 0x88]\n 36192: a3 = a0 if t1 != 0\n 36195: u64 [s1 + 0xb8] = a3\n 36199: a0 = u64 [s1 + 0x80]\n 36203: a2 = u64 [s1 + 0x48]\n 36206: a0 = a0 | a2\n 36209: a2 = u64 [s1 + 0x10]\n 36212: a0 = a2 if a5 == 0\n 36215: a4 = u64 [s1 + 0x60]\n 36218: a3 = a4\n 36220: a3 = a0 if t1 != 0\n 36223: u64 [s1 + 0x80] = a3\n 36227: a1 = 0 if a5 == 0\n 36229: u64 [s1 + 0x88] = a1\n 36233: u64 [s1 + 88] = 0x15180\n 36239: a0 = u64 [s1 + 0xb0]\n 36243: a2 = a0 + 0xffffffffffffff80\n 36246: a0 = a4\n 36248: a1 = t0\n 36250: ra = 1472, jump @1574\n      : @1360 [@dyn 736] (gas: 6)\n 36256: u64 [s1 + 0x50] = a0\n 36259: u64 [s1 + 0x18] = a1\n 36262: a0 = u64 [s1 + 0x78]\n 36265: a1 = u64 [s1 + 0x70]\n 36268: a2 = u64 [s1 + 0xb0]\n 36272: ra = 1474, jump @1574\n      : @1361 [@dyn 737] (gas: 7)\n 36278: u64 [s1 + 0x10] = a0\n 36281: u64 [s1 + 0x48] = a1\n 36284: a1 = u64 [s1 + 0xb0]\n 36288: a2 = 0x80 - a1\n 36292: a0 = u64 [s1 + 0x60]\n 36295: a1 = u64 [s1 + 0x68]\n 36298: ra = 1476, jump @1579\n      : @1362 [@dyn 738] (gas: 21)\n 36304: a2 = u64 [s1 + 0x48]\n 36307: a1 = a1 | a2\n 36310: a3 = u64 [s1 + 0xb0]\n 36314: a4 = a3 <u 0x80\n 36318: u64 [s1 + 0x48] = a4\n 36321: a2 = u64 [s1 + 0x18]\n 36324: a1 = a2 if a4 == 0\n 36327: a2 = u64 [s1 + 0x70]\n 36330: a2 = a1 if a3 != 0\n 36333: u64 [s1 + 0x70] = a2\n 36336: a1 = u64 [s1 + 0x10]\n 36339: a0 = a0 | a1\n 36342: a1 = u64 [s1 + 0x50]\n 36345: a0 = a1 if a4 == 0\n 36348: a1 = u64 [s1 + 0x78]\n 36351: a1 = a0 if a3 != 0\n 36354: a2 = a3\n 36356: u64 [s1 + 0x78] = a1\n 36359: a0 = u64 [s1 + 0x60]\n 36362: a1 = u64 [s1 + 0x68]\n 36365: ra = 1478, jump @1574\n      : @1363 [@dyn 739] (gas: 13)\n 36371: a5 = 0\n 36373: a2 = u64 [s1 + 0x48]\n 36376: a1 = 0 if a2 == 0\n 36378: a0 = 0 if a2 == 0\n 36380: a3 = u64 [s1 + 0x58]\n 36383: a2 = a3 + 0xffffffffffffffff\n 36386: u64 [s1 + 0x50] = a2\n 36389: a2 = a3 >u 0\n 36391: a2 = a2 + 0xffffffffffffffff\n 36394: u64 [s1 + 0x48] = a2\n 36397: t1 = u64 [s1 + 0x70]\n 36400: t2 = u64 [s1 + 0x78]\n 36403: fallthrough\n      : @1364 (gas: 87)\n 36404: u64 [s1 + 0x78] = a5\n 36407: a2 = t2 >> 0x3f\n 36410: a3 = t1 << 0x1\n 36413: a5 = a3 | a2\n 36416: a3 = t2 << 0x1\n 36419: a4 = u64 [s1 + 0xb8]\n 36423: a4 = a4 >> 0x3f\n 36426: a3 = a3 | a4\n 36429: u64 [s1 + 0x68] = a3\n 36432: a2 = u64 [s1 + 0x48]\n 36435: u64 [s1 + 0x70] = a5\n 36438: t2 = t1\n 36440: t1 = a2 ^ a5\n 36443: t0 = a2 <u a5\n 36446: a4 = u64 [s1 + 0x50]\n 36449: a5 = a4 <u a3\n 36452: a5 = t0 if t1 != 0\n 36455: a1 = a1 << 0x1\n 36458: a3 = a0 >> 0x3f\n 36461: a1 = a1 | a3\n 36464: u64 [s1 + 0x60] = a1\n 36467: a3 = t2 >> 0x3f\n 36470: a0 = a0 << 0x1\n 36473: a3 = a3 | a0\n 36476: a0 = u64 [s1 + 0xb8]\n 36480: a0 = a0 << 0x1\n 36483: a4 = u64 [s1 + 0x80]\n 36487: a1 = a4 >> 0x3f\n 36490: t0 = a0 | a1\n 36493: a1 = a4 << 0x1\n 36496: a4 = u64 [s1 + 0x88]\n 36500: t1 = a4 >> 0x3f\n 36503: t1 = a1 | t1\n 36506: a1 = a4 << 0x1\n 36509: a4 = u64 [s1 + 0xa8]\n 36513: t2 = a4 >> 0x3f\n 36516: a1 = a1 | t2\n 36519: a4 = a4 << 0x1\n 36522: a0 = u64 [s1 + 0x78]\n 36525: a4 = a4 | a0\n 36528: u64 [s1 + 0xa8] = a4\n 36532: a1 = a1 | 0\n 36534: u64 [s1 + 0x88] = a1\n 36538: a1 = t1 | 0\n 36540: u64 [s1 + 0x80] = a1\n 36544: a0 = t0 | 0\n 36546: u64 [s1 + 0xb8] = a0\n 36550: a0 = a2 - a3\n 36553: a0 = a0 <u a5\n 36556: a1 = a2 <u a3\n 36559: t0 = u64 [s1 + 0x60]\n 36562: a4 = a2 - t0\n 36565: a4 = a4 - a1\n 36568: a4 = a4 - a0\n 36571: a5 = a4 >>a 0x3f\n 36574: a0 = u64 [s1 + 0x58]\n 36577: a0 = a0 & a5\n 36580: a1 = u64 [s1 + 0x68]\n 36583: t2 = a1 - a0\n 36586: a1 = a1 <u a0\n 36589: a0 = u64 [s1 + 0x70]\n 36592: t1 = a0 - a1\n 36595: a1 = 0 if a0 != 0\n 36597: a0 = a3 - a1\n 36600: a1 = a3 <u a1\n 36603: a1 = t0 - a1\n 36606: a3 = u64 [s1 + 0xb0]\n 36610: ra = u64 [s1 + 0xa0]\n 36614: a2 = a3 | ra\n 36617: a2 = a2 <u 0x1\n 36620: a4 = u64 [s1 + 0x90]\n 36624: t0 = a4 <u a2\n 36627: a2 = a4 - a2\n 36630: a4 = a3 <u 0x1\n 36633: ra = ra - a4\n 36636: a4 = u64 [s1 + 0x98]\n 36640: a4 = a4 - t0\n 36643: a3 = a3 + 0xffffffffffffffff\n 36646: u64 [s1 + 0xa0] = ra\n 36650: u64 [s1 + 0x98] = a4\n 36654: t0 = ra | a4\n 36657: u64 [s1 + 0xb0] = a3\n 36661: a4 = a3 | a2\n 36664: a3 = a4 | t0\n 36667: a5 = a5 & 0x1\n 36670: u64 [s1 + 0x90] = a2\n 36674: jump @1364 if a3 != 0\n      : @1365 (gas: 1)\n 36678: jump @1367\n      : @1366 (gas: 2)\n 36680: a5 = 0\n 36682: fallthrough\n      : @1367 (gas: 4)\n 36683: a0 = u64 [s1 + 0xa8]\n 36687: a0 = a0 << 0x1\n 36690: a3 = a5 | a0\n 36693: fallthrough\n      : @1368 (gas: 2)\n 36694: a0 = u64 [s1 + 0x30]\n 36697: jump @1449 if a0 >=u a3\n      : @1369 (gas: 13)\n 36701: a0 = u64 [s1 + 0x20]\n 36704: a0 = a0 << 0x20\n 36707: a2 = a0 >> 0x20\n 36710: u64 [s1 + 1464] = 0\n 36714: a0 = u64 [s1 + 0x40]\n 36717: u64 [s1 + 0x5a0] = a0\n 36721: a0 = u64 [s1 + 0x38]\n 36724: u64 [s1 + 0x5a8] = a0\n 36728: a1 = s1 + 0x5a0\n 36732: u64 [s1 + 0xa0] = a2\n 36736: u64 [s1 + 0x5b0] = a2\n 36740: a0 = 0\n 36742: ra = 1480, jump @24\n      : @1370 [@dyn 740] (gas: 7)\n 36749: u64 [s1 + 1432] = 0\n 36753: u64 [s1 + 1424] = 0\n 36757: u64 [s1 + 1408] = 0x2\n 36762: a0 = 0x20\n 36765: a1 = s1 + 0x580\n 36769: u64 [s1 + 1416] = 0\n 36773: ra = 1482, jump @24\n      : @1371 [@dyn 741] (gas: 3)\n 36780: a1 = 0x20170\n 36785: a0 = i32 [0x20170]\n 36790: jump @1373 if a0 >u 63\n      : @1372 (gas: 2)\n 36794: u32 [0x20170] = 0x40\n 36800: fallthrough\n      : @1373 (gas: 15)\n 36801: a0 = sp + 0xffffffffffffffe0\n 36804: a2 = a0 & 0xffffffffffffffe0\n 36807: u64 [s1 + 0xa8] = a2\n 36811: sp = a2\n 36813: a0 = 0x20180\n 36818: u64 [s1 + 0x70] = a0\n 36821: i32 a0 = a0 + 0\n 36823: u64 [s1 + 0xb0] = a1\n 36827: i32 a2 = a2 + 0\n 36829: a1 = 0x40\n 36832: u64 [s1 + 0xb8] = a0\n 36836: ra = 0x5cc\n 36840: ecalli 8 // 'hash_keccak_256'\n 36842: t0 = 0x5ce\n 36846: jump @1509\n      : @1374 [@dyn 742] (gas: 1)\n 36849: t0 = 1486, jump @1509\n      : @1375 [@dyn 743] (gas: 11)\n 36855: a0 = u64 [s1 + 0x28]\n 36858: a0 = a0 << 0x20\n 36861: a0 = a0 >> 0x20\n 36864: u64 [s1 + 1400] = 0\n 36868: u64 [s1 + 1392] = 0\n 36872: u64 [s1 + 1384] = 0\n 36876: a1 = s1 + 0x560\n 36880: u64 [s1 + 0x98] = a0\n 36884: u64 [s1 + 0x560] = a0\n 36888: a0 = 0\n 36890: ra = 1488, jump @24\n      : @1376 [@dyn 744] (gas: 12)\n 36897: a0 = u64 [s1 + 0x78]\n 36900: a3 = s1 + 0x500\n 36904: u64 [a3 + 0x58] = a0\n 36907: a0 = u64 [s1 + 0x80]\n 36911: u64 [a3 + 0x50] = a0\n 36914: a0 = u64 [s1 + 0x88]\n 36918: u64 [a3 + 0x48] = a0\n 36921: a0 = 0x20\n 36924: a1 = s1 + 0x540\n 36928: a2 = u64 [s1 + 0x90]\n 36932: u64 [a3 + 0x40] = a2\n 36935: ra = 1490, jump @24\n      : @1377 [@dyn 745] (gas: 3)\n 36942: a1 = u64 [s1 + 0xb0]\n 36946: a0 = i32 [a1]\n 36948: jump @1379 if a0 >u 63\n      : @1378 (gas: 3)\n 36952: u32 [a1 + 0] = 0x40\n 36955: t0 = 0x5d4\n 36959: jump @1559\n      : @1379 (gas: 1)\n 36962: t0 = 1492, jump @1559\n      : @1380 [@dyn 746] (gas: 4)\n 36968: ra = 0x5d6\n 36972: ecalli 8 // 'hash_keccak_256'\n 36974: t0 = 0x5d8\n 36978: jump @1520\n      : @1381 [@dyn 747] (gas: 1)\n 36981: t0 = 1496, jump @1520\n      : @1382 [@dyn 748] (gas: 2)\n 36987: a0 = s1 + 0x520\n 36991: ra = 1498, jump @26\n      : @1383 [@dyn 749] (gas: 7)\n 36998: a0 = u32 [s1 + 0x524]\n 37002: a1 = u64 [s1 + 0x528]\n 37006: a2 = u64 [s1 + 0x530]\n 37010: a0 = a0 << 0x20\n 37013: a1 = a1 | a2\n 37016: a0 = a0 | a1\n 37019: jump @1453 if a0 == 0\n      : @1384 (gas: 11)\n 37023: u64 [s1 + 1304] = 0\n 37027: a0 = u64 [s1 + 0x40]\n 37030: a2 = s1 + 0x500\n 37034: u64 [a2] = a0\n 37036: a0 = u64 [s1 + 0x38]\n 37039: u64 [a2 + 0x8] = a0\n 37042: a1 = s1 + 0x500\n 37046: a0 = u64 [s1 + 0xa0]\n 37050: u64 [a2 + 0x10] = a0\n 37053: a0 = 0\n 37055: ra = 1500, jump @24\n      : @1385 [@dyn 750] (gas: 7)\n 37062: u64 [s1 + 1272] = 0\n 37066: u64 [s1 + 1264] = 0\n 37070: u64 [s1 + 1248] = 0x4\n 37075: a0 = 0x20\n 37078: a1 = s1 + 0x4e0\n 37082: u64 [s1 + 1256] = 0\n 37086: ra = 1502, jump @24\n      : @1386 [@dyn 751] (gas: 3)\n 37093: a1 = u64 [s1 + 0xb0]\n 37097: a0 = i32 [a1]\n 37099: jump @1388 if a0 >u 63\n      : @1387 (gas: 3)\n 37103: u32 [a1 + 0] = 0x40\n 37106: t0 = 0x5e0\n 37110: jump @1524\n      : @1388 (gas: 1)\n 37113: t0 = 1504, jump @1524\n      : @1389 [@dyn 752] (gas: 22)\n 37119: ecalli 8 // 'hash_keccak_256'\n 37121: a3 = u64 [s1 + 0xa8]\n 37125: a0 = u64 [a3 + 0x18]\n 37128: a1 = u64 [a3 + 0x10]\n 37131: a2 = u64 [a3 + 0x8]\n 37134: a3 = u64 [a3]\n 37136: a0 = reverse a0\n 37138: u64 [s1 + 0xa8] = a0\n 37142: a0 = reverse a1\n 37144: u64 [s1 + 0x90] = a0\n 37148: a0 = reverse a2\n 37150: u64 [s1 + 0x88] = a0\n 37154: a0 = reverse a3\n 37156: u64 [s1 + 0x80] = a0\n 37160: u64 [s1 + 1240] = 0\n 37164: u64 [s1 + 1232] = 0\n 37168: u64 [s1 + 1224] = 0\n 37172: a1 = s1 + 0x4c0\n 37176: a0 = u64 [s1 + 0x30]\n 37179: u64 [s1 + 0x4c0] = a0\n 37183: a0 = 0\n 37185: ra = 1506, jump @24\n      : @1390 [@dyn 753] (gas: 12)\n 37192: a0 = u64 [s1 + 0x80]\n 37196: a3 = s1 + 0x400\n 37200: u64 [a3 + 0xb8] = a0\n 37204: a0 = u64 [s1 + 0x88]\n 37208: u64 [a3 + 0xb0] = a0\n 37212: a0 = u64 [s1 + 0x90]\n 37216: u64 [a3 + 0xa8] = a0\n 37220: a0 = 0x20\n 37223: a1 = s1 + 0x4a0\n 37227: a2 = u64 [s1 + 0xa8]\n 37231: u64 [a3 + 0xa0] = a2\n 37235: ra = 1508, jump @24\n      : @1391 [@dyn 754] (gas: 3)\n 37242: a1 = u64 [s1 + 0xb0]\n 37246: a0 = i32 [a1]\n 37248: jump @1393 if a0 >u 63\n      : @1392 (gas: 3)\n 37252: u32 [a1 + 0] = 0x40\n 37255: t0 = 0x5e6\n 37259: jump @1524\n      : @1393 (gas: 1)\n 37262: t0 = 1510, jump @1524\n      : @1394 [@dyn 755] (gas: 4)\n 37268: ra = 0x5e8\n 37272: ecalli 8 // 'hash_keccak_256'\n 37274: t0 = 0x5ea\n 37278: jump @1509\n      : @1395 [@dyn 756] (gas: 1)\n 37281: t0 = 1514, jump @1509\n      : @1396 [@dyn 757] (gas: 8)\n 37287: u64 [s1 + 1176] = 0\n 37291: u64 [s1 + 1168] = 0\n 37295: u64 [s1 + 1160] = 0\n 37299: a1 = s1 + 0x480\n 37303: a0 = u64 [s1 + 0x98]\n 37307: u64 [s1 + 0x480] = a0\n 37311: a0 = 0\n 37313: ra = 1516, jump @24\n      : @1397 [@dyn 758] (gas: 12)\n 37320: a0 = u64 [s1 + 0x78]\n 37323: a3 = s1 + 0x400\n 37327: u64 [a3 + 0x78] = a0\n 37330: a0 = u64 [s1 + 0x80]\n 37334: u64 [a3 + 0x70] = a0\n 37337: a0 = u64 [s1 + 0x88]\n 37341: u64 [a3 + 0x68] = a0\n 37344: a0 = 0x20\n 37347: a1 = s1 + 0x460\n 37351: a2 = u64 [s1 + 0x90]\n 37355: u64 [a3 + 0x60] = a2\n 37358: ra = 1518, jump @24\n      : @1398 [@dyn 759] (gas: 3)\n 37365: a1 = u64 [s1 + 0xb0]\n 37369: a0 = i32 [a1]\n 37371: jump @1400 if a0 >=u 64\n      : @1399 (gas: 3)\n 37375: u32 [a1 + 0] = 0x40\n 37378: t0 = 0x5f0\n 37382: jump @1559\n      : @1400 (gas: 1)\n 37385: t0 = 1520, jump @1559\n      : @1401 [@dyn 760] (gas: 4)\n 37391: ra = 0x5f2\n 37395: ecalli 8 // 'hash_keccak_256'\n 37397: t0 = 0x5f4\n 37401: jump @1520\n      : @1402 [@dyn 761] (gas: 1)\n 37404: t0 = 1524, jump @1520\n      : @1403 [@dyn 762] (gas: 2)\n 37410: a0 = s1 + 0x440\n 37414: ra = 1526, jump @26\n      : @1404 [@dyn 763] (gas: 3)\n 37421: a1 = u64 [s1 + 0x440]\n 37425: a0 = a1 & 0x1\n 37428: jump @1454 if a0 == 0\n      : @1405 (gas: 2)\n 37432: a0 = a1 & 0x4\n 37435: jump @1455 if a0 != 0\n      : @1406 (gas: 6)\n 37439: u64 [s1 + 0x90] = a1\n 37443: a0 = a1 & 0xfb\n 37447: u64 [s1 + 0x88] = a0\n 37451: a0 = s1 + 0x400\n 37455: a1 = u64 [s1 + 0xa8]\n 37459: ra = 1528, jump @26\n      : @1407 [@dyn 764] (gas: 17)\n 37466: a4 = s1 + 0x400\n 37470: a0 = u64 [a4]\n 37472: a1 = u64 [a4 + 0x8]\n 37475: a2 = u64 [a4 + 0x10]\n 37478: a3 = u64 [a4 + 0x18]\n 37481: a0 = a0 & 0xffffffffffffff00\n 37485: a4 = u64 [s1 + 0x88]\n 37489: a0 = a0 | a4\n 37492: a0 = a0 + 0x4\n 37495: a4 = s1 + 0x600\n 37499: u64 [a4 + 0x18] = a3\n 37502: u64 [a4 + 0x10] = a2\n 37505: u64 [a4 + 0x8] = a1\n 37508: u64 [a4] = a0\n 37510: a1 = s1 + 0x600\n 37514: a0 = u64 [s1 + 0xa8]\n 37518: ra = 1530, jump @28\n      : @1408 [@dyn 765] (gas: 10)\n 37525: u64 [s1 + 1016] = 0\n 37529: a0 = u64 [s1 + 0xa0]\n 37533: u64 [s1 + 0x3f0] = a0\n 37537: a0 = u64 [s1 + 0x38]\n 37540: u64 [s1 + 0x3e8] = a0\n 37544: a1 = s1 + 0x3e0\n 37548: a0 = u64 [s1 + 0x40]\n 37551: u64 [s1 + 0x3e0] = a0\n 37555: a0 = 0\n 37557: ra = 1532, jump @24\n      : @1409 [@dyn 766] (gas: 7)\n 37564: u64 [s1 + 984] = 0\n 37568: u64 [s1 + 976] = 0\n 37572: u64 [s1 + 960] = 0x1\n 37577: a0 = 0x20\n 37580: a1 = s1 + 0x3c0\n 37584: u64 [s1 + 968] = 0\n 37588: ra = 1534, jump @24\n      : @1410 [@dyn 767] (gas: 3)\n 37595: a2 = u64 [s1 + 0xb0]\n 37599: a0 = i32 [a2]\n 37601: jump @1412 if a0 >u 63\n      : @1411 (gas: 3)\n 37605: u32 [a2 + 0] = 0x40\n 37608: t0 = 0x600\n 37612: jump @1524\n      : @1412 (gas: 1)\n 37615: t0 = 1536, jump @1524\n      : @1413 [@dyn 768] (gas: 32)\n 37621: ecalli 8 // 'hash_keccak_256'\n 37623: a3 = u64 [s1 + 0xa8]\n 37627: a0 = u64 [a3]\n 37629: a1 = u64 [a3 + 0x8]\n 37632: a2 = u64 [a3 + 0x10]\n 37635: a3 = u64 [a3 + 0x18]\n 37638: t0 = reverse a0\n 37640: a5 = reverse a1\n 37642: a2 = reverse a2\n 37644: a3 = reverse a3\n 37646: a0 = sp + 0xffffffffffffffe0\n 37649: a1 = a0 & 0xffffffffffffffe0\n 37652: u64 [s1 + 0xa8] = a1\n 37656: sp = a1\n 37658: u64 [s1 + 0x68] = a3\n 37661: a0 = a3 + 0x1\n 37664: a3 = a0 <u 0x1\n 37667: u64 [s1 + 0x78] = a2\n 37670: a4 = a2 + a3\n 37673: a2 = a0 | a4\n 37676: a2 = a2 <u 0x1\n 37679: a2 = a2 + a5\n 37682: u64 [s1 + 0x80] = a5\n 37686: a3 = a2 <u a5\n 37689: u64 [s1 + 0x88] = t0\n 37693: a3 = a3 + t0\n 37696: u64 [a1 + 0x8] = a4\n 37699: u64 [a1] = a0\n 37701: u64 [a1 + 0x10] = a2\n 37704: u64 [a1 + 0x18] = a3\n 37707: a0 = s1 + 0x3a0\n 37711: ra = 1538, jump @26\n      : @1414 [@dyn 769] (gas: 27)\n 37718: a2 = s1 + 0x300\n 37722: a0 = u64 [a2 + 0xa0]\n 37726: a1 = u64 [0x20118]\n 37731: t0 = u64 [s1 + 0x3b8]\n 37735: a3 = u64 [a2 + 0xa8]\n 37739: a4 = u64 [a2 + 0xb0]\n 37743: a1 = a1 + a0\n 37746: a0 = a1 <u a0\n 37749: a5 = a3 + a0\n 37752: a5 = a5 + 0xffffffffffffffff\n 37755: a2 = a5 ^ a3\n 37758: a3 = a5 <u a3\n 37761: a3 = a0 if a2 == 0\n 37764: a0 = a4 + 0xffffffffffffffff\n 37767: a3 = a3 + a0\n 37770: a0 = a3 <u a0\n 37773: a2 = a4 <u 0x1\n 37776: a2 = t0 - a2\n 37779: a0 = a0 + a2\n 37782: a2 = s1 + 0x600\n 37786: u64 [a2 + 0x20] = a1\n 37789: u64 [a2 + 0x28] = a5\n 37792: u64 [a2 + 0x30] = a3\n 37795: u64 [a2 + 0x38] = a0\n 37798: a1 = s1 + 0x620\n 37802: a0 = u64 [s1 + 0xa8]\n 37806: ra = 1540, jump @28\n      : @1415 [@dyn 770] (gas: 3)\n 37813: a0 = u64 [s1 + 0x90]\n 37817: a0 = a0 & 0x2\n 37820: jump @1439 if a0 != 0\n      : @1416 (gas: 7)\n 37824: u64 [s1 + 1624] = 0\n 37828: u64 [s1 + 1616] = 0\n 37832: u64 [s1 + 1608] = 0\n 37836: u64 [s1 + 1600] = 0\n 37840: a0 = s1 + 0x2a0\n 37844: a1 = s1 + 0x640\n 37848: ra = 1542, jump @26\n      : @1417 [@dyn 771] (gas: 8)\n 37855: a5 = s1 + 0x200\n 37859: a0 = u64 [a5 + 0xa0]\n 37863: a4 = u64 [0x20120]\n 37868: u64 [s1 + 0xa8] = a4\n 37872: a1 = u64 [a5 + 0xb8]\n 37876: a2 = u64 [a5 + 0xa8]\n 37880: a3 = u64 [a5 + 0xb0]\n 37884: t0 = 1544, jump @1535\n      : @1418 [@dyn 772] (gas: 11)\n 37890: u64 [s1 + 1656] = 0\n 37894: u64 [s1 + 1648] = 0\n 37898: u64 [s1 + 1640] = 0\n 37902: u64 [s1 + 1632] = 0\n 37906: u64 [s1 + 0x680] = a4\n 37910: u64 [s1 + 0x688] = a5\n 37914: u64 [s1 + 0x690] = a2\n 37918: u64 [s1 + 0x698] = a0\n 37922: a0 = s1 + 0x660\n 37926: a1 = s1 + 0x680\n 37930: ra = 1546, jump @28\n      : @1419 [@dyn 773] (gas: 1)\n 37937: ra = 1548, jump @15\n      : @1420 [@dyn 774] (gas: 59)\n 37944: a1 = u64 [0x301a0]\n 37949: u64 [s1 + 0x90] = a1\n 37953: a1 = u64 [0x301b0]\n 37958: u64 [s1 + 0x88] = a1\n 37962: a0 = u64 [0x301a8]\n 37967: u64 [s1 + 0x80] = a0\n 37971: ecalli 10 // 'ref_time_left'\n 37973: a1 = u64 [s1 + 0x80]\n 37977: a1 = reverse a1\n 37979: a2 = a1 << 0x20\n 37982: a3 = u64 [s1 + 0x88]\n 37986: a3 = reverse a3\n 37988: a3 = a3 >> 0x20\n 37991: a2 = a2 | a3\n 37994: a1 = a1 >> 0x20\n 37997: a3 = u64 [s1 + 0x90]\n 38001: a3 = reverse a3\n 38003: a4 = 0x30180\n 38008: a5 = a3 << 0x20\n 38011: a1 = a1 | a5\n 38014: a3 = a3 >> 0x20\n 38017: u32 [0x30190] = a3\n 38022: u64 [0x30188] = a1\n 38027: u64 [0x30180] = a2\n 38032: u64 [s1 + 1720] = 0\n 38036: u64 [s1 + 1712] = 0\n 38040: u64 [s1 + 1704] = 0\n 38044: a1 = u64 [s1 + 0xa8]\n 38048: a2 = s1 + 0x600\n 38052: u64 [a2 + 0xa0] = a1\n 38056: u32 [s1 + 1728] = 0\n 38060: a0 = a0 >u 0x8fc\n 38064: a1 = -a0\n 38066: u64 [a2 + 0xf8] = a1\n 38070: u64 [a2 + 0xf0] = a1\n 38074: u64 [a2 + 0xe8] = a1\n 38078: u64 [a2 + 0xe0] = a1\n 38082: a4 = a4 << 0x20\n 38085: a4 = a4 >> 0x20\n 38088: a0 = a0 << 0x23\n 38091: a0 = a0 | a4\n 38094: a1 = s1 + 0x6a0\n 38098: a1 = a1 << 0x20\n 38101: a1 = a1 >> 0x20\n 38104: a2 = s1 + 0x6e0\n 38108: a2 = a2 << 0x20\n 38111: a3 = a2 | a1\n 38114: a4 = u64 [s1 + 0x70]\n 38117: a4 = a4 << 0x20\n 38120: a4 = a4 >> 0x20\n 38123: a1 = s1 + 0x6c0\n 38127: a1 = a1 << 0x20\n 38130: a5 = a1 | a4\n 38133: a1 = 0xffffffffffffffff\n 38136: a2 = 0xffffffffffffffff\n 38139: ecalli 0 // 'call'\n 38140: u64 [s1 + 0x90] = a0\n 38144: ecalli 12 // 'return_data_size'\n 38146: fallthrough\n      : @1421 (gas: 1)\n 38147: jump @1433 if a0 == 0\n      : @1422 (gas: 10)\n 38151: ecalli 12 // 'return_data_size'\n 38153: a2 = a0\n 38155: u64 [s1 + 632] = 0\n 38159: u64 [s1 + 624] = 0\n 38163: u64 [s1 + 616] = 0\n 38167: a0 = s1 + 0x280\n 38171: a1 = s1 + 0x260\n 38175: u64 [s1 + 0x48] = a2\n 38178: u64 [s1 + 0x260] = a2\n 38182: ra = 1550, jump @1460\n      : @1423 [@dyn 775] (gas: 11)\n 38188: a0 = u64 [s1 + 0x280]\n 38192: u64 [s1 + 0x68] = a0\n 38195: a0 = u64 [s1 + 0x288]\n 38199: u64 [s1 + 0x60] = a0\n 38202: a0 = u64 [s1 + 0x290]\n 38206: u64 [s1 + 0x58] = a0\n 38209: a0 = u64 [s1 + 0x298]\n 38213: u64 [s1 + 0x50] = a0\n 38216: a0 = s1 + 0x240\n 38220: a1 = 0x40\n 38223: ra = 1552, jump @22\n      : @1424 [@dyn 776] (gas: 24)\n 38230: a5 = s1 + 0x200\n 38234: a0 = u64 [a5 + 0x58]\n 38237: u64 [s1 + 0x78] = a0\n 38240: a1 = u64 [a5 + 0x50]\n 38243: u64 [s1 + 0x70] = a1\n 38246: a3 = u64 [a5 + 0x48]\n 38249: u64 [s1 + 0x80] = a3\n 38253: a4 = u64 [a5 + 0x40]\n 38256: u64 [s1 + 0x88] = a4\n 38260: a2 = u64 [s1 + 0x50]\n 38263: u64 [a5 + 0x18] = a2\n 38266: a2 = u64 [s1 + 0x58]\n 38269: u64 [a5 + 0x10] = a2\n 38272: a2 = u64 [s1 + 0x60]\n 38275: u64 [a5 + 0x8] = a2\n 38278: a2 = u64 [s1 + 0x68]\n 38281: u64 [a5] = a2\n 38283: u64 [a5 + 0x38] = a0\n 38286: u64 [a5 + 0x30] = a1\n 38289: u64 [a5 + 0x28] = a3\n 38292: a0 = s1 + 0x220\n 38296: a1 = s1 + 0x200\n 38300: u64 [a5 + 0x20] = a4\n 38303: ra = 1554, jump @1342\n      : @1425 [@dyn 777] (gas: 12)\n 38309: a2 = u64 [s1 + 0x88]\n 38313: a0 = u64 [s1 + 0x78]\n 38316: a1 = u64 [s1 + 0x80]\n 38320: a0 = a0 | a1\n 38323: a3 = u64 [s1 + 0x70]\n 38326: a1 = a2 | a3\n 38329: a1 = a1 | a0\n 38332: a1 = a1 >> 0x20\n 38335: a0 = a0 | a3\n 38338: a0 = a0 << 0x20\n 38341: a0 = a0 | a1\n 38344: jump @1448 if a0 != 0\n      : @1426 (gas: 8)\n 38348: u64 [s1 + 504] = 0\n 38352: u64 [s1 + 496] = 0\n 38356: u64 [s1 + 488] = 0\n 38360: a1 = s1 + 0x1e0\n 38364: a0 = u64 [s1 + 0x48]\n 38367: u64 [s1 + 0x1e0] = a0\n 38371: a0 = a2\n 38373: ra = 1556, jump @24\n      : @1427 [@dyn 778] (gas: 2)\n 38380: ecalli 12 // 'return_data_size'\n 38382: fallthrough\n      : @1428 (gas: 10)\n 38383: a3 = u64 [s1 + 0x88]\n 38387: a1 = u64 [s1 + 0x78]\n 38390: a2 = u64 [s1 + 0x70]\n 38393: a1 = a1 | a2\n 38396: a2 = 0xffffffe0\n 38406: a2 = a3 <u a2\n 38409: a4 = u64 [s1 + 0x80]\n 38413: a2 = 0 if a4 != 0\n 38415: a2 = 0 if a1 != 0\n 38417: jump @1448 if a2 == 0\n      : @1429 (gas: 3)\n 38421: a1 = a0\n 38423: a0 = a0 >> 0x20\n 38426: jump @1448 if a0 != 0\n      : @1430 (gas: 7)\n 38430: i32 a0 = a3 + 0x20\n 38433: a2 = a1\n 38435: u64 [s1 + 0x80] = a1\n 38439: i32 a1 = a1 + 0\n 38441: u64 [s1 + 0x88] = a1\n 38445: a1 = a2\n 38447: ra = 1558, jump @37\n      : @1431 [@dyn 779] (gas: 7)\n 38454: a1 = u64 [s1 + 0x80]\n 38458: u32 [s1 + 0x700] = a1\n 38462: i32 a0 = a0 + 0\n 38464: i32 a1 = s1 + 0x700\n 38468: a2 = 0\n 38470: ecalli 11 // 'return_data_copy'\n 38472: fallthrough\n      : @1432 (gas: 3)\n 38473: a0 = i32 [s1 + 0x700]\n 38477: a1 = u64 [s1 + 0x88]\n 38481: jump @1448 if a0 <u a1\n      : @1433 (gas: 2)\n 38485: a0 = u64 [s1 + 0x90]\n 38489: jump @1456 if a0 != 0\n      : @1434 (gas: 3)\n 38493: a0 = s1 + 0x1a0\n 38497: a1 = 0x40\n 38500: ra = 1560, jump @22\n      : @1435 [@dyn 780] (gas: 6)\n 38507: a4 = s1 + 0x100\n 38511: a0 = u64 [a4 + 0xb8]\n 38515: a1 = u64 [a4 + 0xb0]\n 38519: a2 = u64 [a4 + 0xa8]\n 38523: a3 = u64 [a4 + 0xa0]\n 38527: t0 = 1562, jump @1514\n      : @1436 [@dyn 781] (gas: 1)\n 38533: jump @1448 if a0 != 0\n      : @1437 (gas: 9)\n 38537: u64 [s1 + 408] = 0\n 38541: u64 [s1 + 400] = 0\n 38545: u64 [s1 + 392] = 0\n 38549: a1 = s1 + 0x180\n 38553: a0 = u64 [s1 + 0xa8]\n 38557: u64 [s1 + 0x180] = a0\n 38561: a0 = a3\n 38563: u64 [s1 + 0xb8] = a3\n 38567: ra = 1564, jump @24\n      : @1438 [@dyn 782] (gas: 33)\n 38574: u64 [s1 + 280] = 0\n 38578: u64 [s1 + 272] = 0\n 38582: u64 [s1 + 264] = 0\n 38586: a0 = u64 [s1 + 0x30]\n 38589: u64 [s1 + 0x100] = a0\n 38593: u64 [s1 + 312] = 0\n 38597: u64 [s1 + 304] = 0\n 38601: u64 [s1 + 296] = 0\n 38605: a0 = u64 [s1 + 0x98]\n 38609: u64 [s1 + 0x120] = a0\n 38613: u64 [s1 + 344] = 0\n 38617: a0 = u64 [s1 + 0xa0]\n 38621: u64 [s1 + 0x150] = a0\n 38625: a0 = u64 [s1 + 0x38]\n 38628: u64 [s1 + 0x148] = a0\n 38632: a0 = u64 [0x20148]\n 38637: a1 = u64 [0x20150]\n 38642: a2 = u64 [0x20158]\n 38647: a3 = u64 [s1 + 0x40]\n 38650: u64 [s1 + 0x140] = a3\n 38654: u64 [s1 + 0x178] = a0\n 38658: u64 [s1 + 0x170] = a1\n 38662: u64 [s1 + 0x168] = a2\n 38666: a0 = u64 [0x20160]\n 38671: a1 = 0x20\n 38674: a2 = s1 + 0x160\n 38678: a3 = s1 + 0x140\n 38682: a4 = s1 + 0x120\n 38686: a5 = s1 + 0x100\n 38690: u64 [s1 + 0x160] = a0\n 38694: a0 = u64 [s1 + 0xb8]\n 38698: ra = 0x62a\n 38702: jump @34\n      : @1439 (gas: 8)\n 38706: a0 = sp + 0xffffffffffffffe0\n 38709: a5 = a0 & 0xffffffffffffffe0\n 38712: sp = a5\n 38714: a1 = u64 [s1 + 0x68]\n 38717: a0 = a1 + 0x2\n 38720: a1 = a0 <u a1\n 38723: a3 = u64 [s1 + 0x78]\n 38726: t0 = 1566, jump @1532\n      : @1440 [@dyn 783] (gas: 13)\n 38732: a1 = u64 [s1 + 0x80]\n 38736: a3 = a3 + a1\n 38739: a1 = a3 <u a1\n 38742: a4 = u64 [s1 + 0x88]\n 38746: a4 = a4 + a1\n 38749: a1 = a5\n 38751: u64 [s1 + 0xb8] = a5\n 38755: u64 [a5 + 0x8] = a2\n 38758: u64 [a5] = a0\n 38760: u64 [a5 + 0x10] = a3\n 38763: u64 [a5 + 0x18] = a4\n 38766: a0 = s1 + 0x380\n 38770: ra = 1568, jump @26\n      : @1441 [@dyn 784] (gas: 7)\n 38777: a0 = u64 [s1 + 0x380]\n 38781: a4 = u64 [0x20120]\n 38786: a1 = u64 [s1 + 0x398]\n 38790: a2 = u64 [s1 + 0x388]\n 38794: a3 = u64 [s1 + 0x390]\n 38798: u64 [s1 + 0xb0] = a4\n 38802: t0 = 1570, jump @1535\n      : @1442 [@dyn 785] (gas: 8)\n 38808: a1 = s1 + 0x700\n 38812: u64 [a1 + 0x20] = a4\n 38815: u64 [a1 + 0x28] = a5\n 38818: u64 [a1 + 0x30] = a2\n 38821: u64 [a1 + 0x38] = a0\n 38824: a1 = s1 + 0x720\n 38828: a0 = u64 [s1 + 0xb8]\n 38832: ra = 1572, jump @28\n      : @1443 [@dyn 786] (gas: 3)\n 38839: a0 = s1 + 0x360\n 38843: a1 = 0x40\n 38846: ra = 1574, jump @22\n      : @1444 [@dyn 787] (gas: 13)\n 38853: a4 = s1 + 0x300\n 38857: a3 = u64 [a4 + 0x78]\n 38860: a1 = u64 [a4 + 0x70]\n 38863: a2 = u64 [a4 + 0x68]\n 38866: a0 = u64 [a4 + 0x60]\n 38869: a3 = a3 | a2\n 38872: a2 = a0 | a1\n 38875: a2 = a2 | a3\n 38878: a2 = a2 >> 0x20\n 38881: a1 = a1 | a3\n 38884: a1 = a1 << 0x20\n 38887: a1 = a1 | a2\n 38890: jump @1448 if a1 != 0\n      : @1445 (gas: 8)\n 38894: u64 [s1 + 856] = 0\n 38898: u64 [s1 + 848] = 0\n 38902: u64 [s1 + 840] = 0\n 38906: a1 = s1 + 0x340\n 38910: a2 = u64 [s1 + 0xb0]\n 38914: u64 [s1 + 0x340] = a2\n 38918: u64 [s1 + 0xb8] = a0\n 38922: ra = 1576, jump @24\n      : @1446 [@dyn 788] (gas: 32)\n 38929: u64 [s1 + 728] = 0\n 38933: u64 [s1 + 720] = 0\n 38937: u64 [s1 + 712] = 0\n 38941: a0 = u64 [s1 + 0x30]\n 38944: u64 [s1 + 0x2c0] = a0\n 38948: u64 [s1 + 760] = 0\n 38952: u64 [s1 + 752] = 0\n 38956: u64 [s1 + 744] = 0\n 38960: a0 = u64 [s1 + 0x98]\n 38964: u64 [s1 + 0x2e0] = a0\n 38968: u64 [s1 + 792] = 0\n 38972: a0 = u64 [s1 + 0xa0]\n 38976: u64 [s1 + 0x310] = a0\n 38980: a0 = u64 [s1 + 0x38]\n 38983: u64 [s1 + 0x308] = a0\n 38987: a0 = u64 [0x20128]\n 38992: a1 = u64 [0x20130]\n 38997: a2 = u64 [0x20138]\n 39002: a3 = u64 [s1 + 0x40]\n 39005: u64 [s1 + 0x300] = a3\n 39009: u64 [s1 + 0x338] = a0\n 39013: u64 [s1 + 0x330] = a1\n 39017: u64 [s1 + 0x328] = a2\n 39021: a0 = u64 [0x20140]\n 39026: a1 = 0x20\n 39029: a2 = s1 + 0x320\n 39033: a3 = s1 + 0x300\n 39037: a4 = s1 + 0x2e0\n 39041: a5 = s1 + 0x2c0\n 39045: u64 [s1 + 0x320] = a0\n 39049: a0 = u64 [s1 + 0xb8]\n 39053: ra = 1578, jump @34\n      : @1447 [@dyn 789] (gas: 7)\n 39060: sp = s0 + 0xfffffffffffff8a0\n 39064: a0 = sp + 0x700\n 39068: ra = u64 [a0 + 0x58]\n 39071: s0 = u64 [a0 + 0x50]\n 39074: s1 = u64 [a0 + 0x48]\n 39077: sp = sp + 0x760\n 39081: ret\n      : @1448 (gas: 1)\n 39083: trap\n      : @1449 (gas: 8)\n 39084: u64 [s1 + 1488] = 0\n 39088: u64 [s1 + 1480] = 0\n 39092: u64 [s1 + 1472] = 0\n 39096: a0 = 0xcf114bd900000000\n 39106: a1 = s1 + 0x5c0\n 39110: u64 [s1 + 0x5d8] = a0\n 39114: a0 = 0\n 39116: ra = 1580, jump @24\n      : @1450 [@dyn 790] (gas: 2)\n 39123: a1 = i32 [0x20170]\n 39128: jump @1452 if a1 >u 31\n      : @1451 (gas: 2)\n 39132: u32 [0x20170] = 0x20\n 39138: fallthrough\n      : @1452 (gas: 6)\n 39139: a1 = 0x20180\n 39144: i32 a1 = a1 + 0\n 39146: a0 = 0x1\n 39149: a2 = 0x4\n 39152: ecalli 13 // 'seal_return'\n 39154: fallthrough\n      : @1453 (gas: 9)\n 39155: u64 [s1 + 208] = 0\n 39159: u64 [s1 + 200] = 0\n 39163: u64 [s1 + 192] = 0\n 39167: a0 = 0xa7a9536d00000000\n 39177: a1 = s1 + 0xc0\n 39181: u64 [s1 + 0xd8] = a0\n 39185: a0 = 0\n 39187: ra = 0x62e\n 39191: jump @24\n      : @1454 (gas: 9)\n 39195: u64 [s1 + 240] = 0\n 39199: u64 [s1 + 232] = 0\n 39203: u64 [s1 + 224] = 0\n 39207: a0 = 0xafa4e2b600000000\n 39217: a1 = s1 + 0xe0\n 39221: u64 [s1 + 0xf8] = a0\n 39225: a0 = 0\n 39227: ra = 0x62e\n 39231: jump @24\n      : @1455 (gas: 9)\n 39235: u64 [s1 + 1072] = 0\n 39239: u64 [s1 + 1064] = 0\n 39243: u64 [s1 + 1056] = 0\n 39247: a0 = 0x560ff90000000000\n 39257: a1 = s1 + 0x420\n 39261: u64 [s1 + 0x438] = a0\n 39265: a0 = 0\n 39267: ra = 0x62e\n 39271: jump @24\n      : @1456 (gas: 8)\n 39275: u64 [s1 + 464] = 0\n 39279: u64 [s1 + 456] = 0\n 39283: u64 [s1 + 448] = 0\n 39287: a0 = 0x90b8ec1800000000\n 39297: a1 = s1 + 0x1c0\n 39301: u64 [s1 + 0x1d8] = a0\n 39305: a0 = 0\n 39307: ra = 1582, jump @24\n      : @1457 [@dyn 791] (gas: 3)\n 39314: a0 = u64 [s1 + 0xb0]\n 39318: a0 = i32 [a0]\n 39320: jump @1459 if a0 >u 31\n      : @1458 (gas: 3)\n 39324: a1 = u64 [s1 + 0xb0]\n 39328: u32 [a1 + 0] = 0x20\n 39331: fallthrough\n      : @1459 (gas: 6)\n 39332: a0 = 0x1\n 39335: a2 = 0x4\n 39338: a1 = u64 [s1 + 0xb8]\n 39342: ra = 0x630\n 39346: ecalli 13 // 'seal_return'\n 39348: fallthrough\n      : @1460 [@dyn 792] (gas: 10)\n 39349: a3 = u64 [a1 + 0x18]\n 39352: a4 = u64 [a1 + 0x10]\n 39355: t0 = u64 [a1 + 0x8]\n 39358: a5 = a3 >u 0\n 39360: a2 = a4 >u 0\n 39362: a2 = a5 if a3 != 0\n 39365: a3 = a3 | a4\n 39368: a4 = t0 >u 0\n 39370: a4 = a2 if a3 != 0\n 39373: jump @1462 if a4 != 0\n      : @1461 (gas: 16)\n 39376: a1 = u64 [a1]\n 39378: a2 = a1 + 0x1f\n 39381: a1 = a2 <u a1\n 39384: a1 = a1 + t0\n 39387: a1 = a1 & 0x1\n 39390: a2 = a2 & 0xffffffffffffffe0\n 39393: a3 = a2 + 0x20\n 39396: a2 = a3 <u a2\n 39399: a4 = a1 + a2\n 39402: a1 = a4 <u a1\n 39405: a1 = a2 if a2 == 0\n 39408: u64 [a0 + 24] = 0\n 39411: u64 [a0] = a3\n 39413: u64 [a0 + 0x8] = a4\n 39416: u64 [a0 + 0x10] = a1\n 39419: ret\n      : @1462 (gas: 6)\n 39421: sp = sp + 0xffffffffffffffb0\n 39424: u64 [sp + 0x48] = ra\n 39427: u64 [sp + 0x40] = s0\n 39430: s0 = sp + 0x50\n 39433: sp = sp & 0xfffffffffffffff0\n 39436: t0 = 1586, jump @1550\n      : @1463 [@dyn 793] (gas: 1)\n 39442: ra = 1588, jump @24\n      : @1464 [@dyn 794] (gas: 7)\n 39449: u64 [sp + 24] = 0\n 39452: u64 [sp + 16] = 0\n 39455: u64 [sp + 0] = 0x41\n 39458: a0 = 0x4\n 39461: a1 = sp\n 39463: u64 [sp + 8] = 0\n 39466: ra = 1590, jump @24\n      : @1465 [@dyn 795] (gas: 2)\n 39473: a1 = i32 [0x20170]\n 39478: jump @1467 if a1 >u 63\n      : @1466 (gas: 2)\n 39482: u32 [0x20170] = 0x40\n 39488: fallthrough\n      : @1467 (gas: 7)\n 39489: a1 = 0x20180\n 39494: i32 a1 = a1 + 0\n 39496: a0 = 0x1\n 39499: a2 = 0x24\n 39502: ra = 0x638\n 39506: ecalli 13 // 'seal_return'\n 39508: fallthrough\n      : @1468 [@dyn 796] (gas: 74)\n 39509: sp = sp + 0xfffffffffffffe40\n 39513: u64 [sp + 0x1b8] = ra\n 39517: u64 [sp + 0x1b0] = s0\n 39521: u64 [sp + 0x1a8] = s1\n 39525: s0 = sp + 0x1c0\n 39529: sp = sp & 0xffffffffffffffe0\n 39532: a2 = u64 [a1]\n 39534: u64 [sp + 0x58] = a2\n 39537: a2 = u64 [a1 + 0x8]\n 39540: u64 [sp + 0x50] = a2\n 39543: a2 = u64 [a1 + 0x10]\n 39546: u64 [sp + 0x48] = a2\n 39549: a1 = u64 [a1 + 0x18]\n 39552: u64 [sp + 0x40] = a1\n 39555: a1 = u64 [a0]\n 39557: u64 [sp + 0x38] = a1\n 39560: a1 = u64 [a0 + 0x10]\n 39563: u64 [sp + 0x30] = a1\n 39566: s1 = u64 [a0 + 0x8]\n 39569: ecalli 10 // 'ref_time_left'\n 39571: a1 = reverse s1\n 39573: a2 = a1 << 0x20\n 39576: a3 = u64 [sp + 0x30]\n 39579: a3 = reverse a3\n 39581: a3 = a3 >> 0x20\n 39584: a2 = a2 | a3\n 39587: a1 = a1 >> 0x20\n 39590: a3 = u64 [sp + 0x38]\n 39593: a3 = reverse a3\n 39595: a4 = 0x30180\n 39600: a5 = a3 << 0x20\n 39603: a1 = a1 | a5\n 39606: a3 = a3 >> 0x20\n 39609: u32 [0x30190] = a3\n 39614: u64 [0x30188] = a1\n 39619: u64 [0x30180] = a2\n 39624: a1 = u64 [sp + 0x40]\n 39627: u64 [sp + 0x158] = a1\n 39631: a1 = u64 [sp + 0x48]\n 39634: u64 [sp + 0x150] = a1\n 39638: a1 = u64 [sp + 0x50]\n 39641: u64 [sp + 0x148] = a1\n 39645: a1 = u64 [sp + 0x58]\n 39648: u64 [sp + 0x140] = a1\n 39652: u32 [sp + 352] = 0\n 39656: a0 = a0 >u 0x8fc\n 39660: a1 = -a0\n 39662: u64 [sp + 0x198] = a1\n 39666: u64 [sp + 0x190] = a1\n 39670: u64 [sp + 0x188] = a1\n 39674: u64 [sp + 0x180] = a1\n 39678: a4 = a4 << 0x20\n 39681: a4 = a4 >> 0x20\n 39684: a0 = a0 << 0x23\n 39687: a0 = a0 | a4\n 39690: a1 = sp + 0x140\n 39694: a1 = a1 << 0x20\n 39697: a1 = a1 >> 0x20\n 39700: a4 = 0x20180\n 39705: a2 = sp + 0x180\n 39709: a2 = a2 << 0x20\n 39712: a3 = a2 | a1\n 39715: u64 [sp + 0x10] = a4\n 39718: a4 = a4 << 0x20\n 39721: a4 = a4 >> 0x20\n 39724: a1 = sp + 0x160\n 39728: a1 = a1 << 0x20\n 39731: a5 = a1 | a4\n 39734: a1 = 0xffffffffffffffff\n 39737: a2 = 0xffffffffffffffff\n 39740: ecalli 0 // 'call'\n 39741: s1 = a0\n 39743: ecalli 12 // 'return_data_size'\n 39745: fallthrough\n      : @1469 (gas: 1)\n 39746: jump @1481 if a0 == 0\n      : @1470 (gas: 11)\n 39750: u64 [sp + 0x18] = s1\n 39753: ecalli 12 // 'return_data_size'\n 39755: a2 = a0\n 39757: u64 [sp + 280] = 0\n 39761: u64 [sp + 272] = 0\n 39765: u64 [sp + 264] = 0\n 39769: a0 = sp + 0x120\n 39773: a1 = sp + 0x100\n 39777: u64 [sp + 0x20] = a2\n 39780: u64 [sp + 0x100] = a2\n 39784: ra = 1594, jump @1460\n      : @1471 [@dyn 797] (gas: 11)\n 39790: a0 = u64 [sp + 0x120]\n 39794: u64 [sp + 0x48] = a0\n 39797: a0 = u64 [sp + 0x128]\n 39801: u64 [sp + 0x40] = a0\n 39804: a0 = u64 [sp + 0x130]\n 39808: u64 [sp + 0x38] = a0\n 39811: a0 = u64 [sp + 0x138]\n 39815: u64 [sp + 0x30] = a0\n 39818: a0 = sp + 0xe0\n 39822: a1 = 0x40\n 39825: ra = 1596, jump @22\n      : @1472 [@dyn 798] (gas: 22)\n 39832: a0 = u64 [sp + 0xf8]\n 39836: u64 [sp + 0x50] = a0\n 39839: s1 = u64 [sp + 0xf0]\n 39843: a2 = u64 [sp + 0xe8]\n 39847: u64 [sp + 0x58] = a2\n 39850: a3 = u64 [sp + 0xe0]\n 39854: u64 [sp + 0x28] = a3\n 39857: a1 = u64 [sp + 0x30]\n 39860: u64 [sp + 0xb8] = a1\n 39864: a1 = u64 [sp + 0x38]\n 39867: u64 [sp + 0xb0] = a1\n 39871: a1 = u64 [sp + 0x40]\n 39874: u64 [sp + 0xa8] = a1\n 39878: a1 = u64 [sp + 0x48]\n 39881: u64 [sp + 0xa0] = a1\n 39885: u64 [sp + 0xd8] = a0\n 39889: u64 [sp + 0xd0] = s1\n 39893: u64 [sp + 0xc8] = a2\n 39897: a0 = sp + 0xc0\n 39901: a1 = sp + 0xa0\n 39905: u64 [sp + 0xc0] = a3\n 39909: ra = 1598, jump @1342\n      : @1473 [@dyn 799] (gas: 12)\n 39915: a2 = u64 [sp + 0x28]\n 39918: a0 = u64 [sp + 0x50]\n 39921: a1 = u64 [sp + 0x58]\n 39924: a0 = a0 | a1\n 39927: a1 = a2 | s1\n 39930: a1 = a1 | a0\n 39933: a1 = a1 >> 0x20\n 39936: u64 [sp + 0x48] = s1\n 39939: a0 = a0 | s1\n 39942: a0 = a0 << 0x20\n 39945: a0 = a0 | a1\n 39948: jump @1483 if a0 != 0\n      : @1474 (gas: 9)\n 39952: u64 [sp + 152] = 0\n 39956: u64 [sp + 144] = 0\n 39960: u64 [sp + 136] = 0\n 39964: a1 = sp + 0x80\n 39968: a0 = u64 [sp + 0x20]\n 39971: u64 [sp + 0x80] = a0\n 39975: a0 = a2\n 39977: s1 = a2\n 39979: ra = 1600, jump @24\n      : @1475 [@dyn 800] (gas: 2)\n 39986: ecalli 12 // 'return_data_size'\n 39988: fallthrough\n      : @1476 (gas: 9)\n 39989: a1 = u64 [sp + 0x50]\n 39992: a2 = u64 [sp + 0x48]\n 39995: a1 = a1 | a2\n 39998: a2 = 0xffffffe0\n 40008: a2 = s1 <u a2\n 40011: a4 = u64 [sp + 0x58]\n 40014: a2 = 0 if a4 != 0\n 40016: a2 = 0 if a1 != 0\n 40018: jump @1483 if a2 == 0\n      : @1477 (gas: 4)\n 40021: a3 = s1\n 40023: s1 = a0\n 40025: a0 = a0 >> 0x20\n 40028: jump @1483 if a0 != 0\n      : @1478 (gas: 5)\n 40031: i32 a0 = a3 + 0x20\n 40034: i32 a1 = s1 + 0\n 40036: u64 [sp + 0x58] = a1\n 40039: a1 = s1\n 40041: ra = 1602, jump @37\n      : @1479 [@dyn 801] (gas: 6)\n 40048: u32 [sp + 0x1a0] = s1\n 40052: i32 a0 = a0 + 0\n 40054: i32 a1 = sp + 0x1a0\n 40058: a2 = 0\n 40060: ecalli 11 // 'return_data_copy'\n 40062: fallthrough\n      : @1480 (gas: 4)\n 40063: a0 = i32 [sp + 0x1a0]\n 40067: s1 = u64 [sp + 0x18]\n 40070: a1 = u64 [sp + 0x58]\n 40073: jump @1483 if a0 <u a1\n      : @1481 (gas: 1)\n 40076: jump @1484 if s1 != 0\n      : @1482 (gas: 6)\n 40079: sp = s0 + 0xfffffffffffffe40\n 40083: ra = u64 [sp + 0x1b8]\n 40087: s0 = u64 [sp + 0x1b0]\n 40091: s1 = u64 [sp + 0x1a8]\n 40095: sp = sp + 0x1c0\n 40099: ret\n      : @1483 (gas: 1)\n 40101: trap\n      : @1484 (gas: 8)\n 40102: u64 [sp + 112] = 0\n 40105: u64 [sp + 104] = 0\n 40108: u64 [sp + 96] = 0\n 40111: a0 = 0x90b8ec1800000000\n 40121: a1 = sp + 0x60\n 40124: u64 [sp + 0x78] = a0\n 40127: a0 = 0\n 40129: ra = 1604, jump @24\n      : @1485 [@dyn 802] (gas: 2)\n 40136: a1 = i32 [0x20170]\n 40141: jump @1487 if a1 >u 31\n      : @1486 (gas: 2)\n 40145: u32 [0x20170] = 0x20\n 40151: fallthrough\n      : @1487 (gas: 7)\n 40152: a1 = i32 [sp + 0x10]\n 40155: a0 = 0x1\n 40158: a2 = 0x4\n 40161: ecalli 13 // 'seal_return'\n 40163: a0 = 0\n 40165: ra = 0x646\n 40169: jump @43\n      : @1488 [export #0: 'call'] (gas: 2)\n 40173: a0 = 0\n 40175: ra = 1606, jump @43\n      : @1489 [@dyn 803] [export #1: 'deploy'] (gas: 2)\n 40182: a0 = 0x1\n 40185: ra = 1608, jump @43\n      : @1490 [@dyn 804] (gas: 15)\n 40192: a0 = u64 [a2 + 0x8]\n 40195: a1 = i32 [a2 + 0x10]\n 40198: a2 = u64 [a2]\n 40200: a0 = reverse a0\n 40202: a3 = a0 << 0x20\n 40205: a1 = reverse a1\n 40207: a1 = a1 >> 0x20\n 40210: a3 = a3 | a1\n 40213: a0 = a0 >> 0x20\n 40216: a1 = reverse a2\n 40218: a2 = a1 << 0x20\n 40221: a0 = a0 | a2\n 40224: a1 = a1 >> 0x20\n 40227: a2 = s1 + 0x1918\n 40231: jump [t0]\n      : @1491 (gas: 17)\n 40233: a2 = u64 [s1 + 0x150]\n 40237: a0 = u64 [a2 + 0x8]\n 40240: a1 = i32 [a2 + 0x10]\n 40243: a2 = u64 [a2]\n 40245: a0 = reverse a0\n 40247: a3 = a0 << 0x20\n 40250: a1 = reverse a1\n 40252: a1 = a1 >> 0x20\n 40255: a3 = a3 | a1\n 40258: a0 = a0 >> 0x20\n 40261: a1 = reverse a2\n 40263: a2 = a1 << 0x20\n 40266: a0 = a0 | a2\n 40269: a1 = a1 >> 0x20\n 40272: a2 = s1 + 0x7ff\n 40276: a2 = a2 + 0x119\n 40280: jump [t0]\n      : @1492 (gas: 5)\n 40282: sp = a0\n 40284: i32 a2 = a0 + 0\n 40286: a1 = 0x40\n 40289: a0 = u64 [s1 + 0x190]\n 40293: jump [t0]\n      : @1493 (gas: 27)\n 40295: u64 [s1 + 0x168] = a0\n 40299: a0 = ra - a3\n 40302: a0 = a0 <u a5\n 40305: a1 = ra <u a3\n 40308: a5 = u64 [s1 + 0x138]\n 40312: a4 = ra - a5\n 40315: a4 = a4 - a1\n 40318: a4 = a4 - a0\n 40321: ra = a4 >>a 0x3f\n 40324: a0 = u64 [s1 + 0x130]\n 40328: a0 = ra & a0\n 40331: a1 = u64 [s1 + 0x140]\n 40335: t2 = a1 - a0\n 40338: a1 = a1 <u a0\n 40341: t1 = a2 - a1\n 40344: a1 = 0 if a2 != 0\n 40346: a0 = a3 - a1\n 40349: u64 [s1 + 0x148] = a0\n 40353: a1 = a3 <u a1\n 40356: a1 = a5 - a1\n 40359: a0 = s1 + 0x100\n 40363: a3 = u64 [a0 + 0x98]\n 40367: a5 = u64 [a0 + 0x90]\n 40371: a2 = a3 | a5\n 40374: a2 = a2 <u 0x1\n 40377: a4 = u64 [a0 + 0x80]\n 40381: jump [t0]\n      : @1494 (gas: 8)\n 40383: a0 = u64 [a2 + 0x8]\n 40386: a1 = i32 [a2 + 0x10]\n 40389: a2 = u64 [a2]\n 40391: a3 = reverse a0\n 40393: a0 = a3 << 0x20\n 40396: a1 = reverse a1\n 40398: a1 = a1 >> 0x20\n 40401: jump [t0]\n      : @1495 (gas: 24)\n 40403: a0 = a1 if a2 == 0\n 40406: a2 = u64 [s1 + 0x150]\n 40410: a3 = a2\n 40412: a1 = a2\n 40414: a2 = u64 [s1 + 0x160]\n 40418: a3 = a0 if a2 != 0\n 40421: u64 [s1 + 0x168] = a3\n 40425: a0 = u64 [s1 + 0x148]\n 40429: a3 = u64 [s1 + 0x130]\n 40433: a0 = a0 | a3\n 40436: a3 = u64 [s1 + 0x120]\n 40440: a0 = a3 if a5 == 0\n 40443: a4 = u64 [s1 + 0x158]\n 40447: a3 = a4\n 40449: a3 = a0 if a2 != 0\n 40452: u64 [s1 + 0x160] = a3\n 40456: a0 = u64 [s1 + 0x170]\n 40460: a0 = 0 if a5 == 0\n 40462: u64 [s1 + 0x170] = a0\n 40466: u64 [s1 + 304] = 0x15180\n 40473: a0 = u64 [s1 + 0x198]\n 40477: a2 = a0 + 0xffffffffffffff80\n 40480: a0 = a4\n 40482: jump [t0]\n      : @1496 (gas: 15)\n 40484: a0 = u64 [a2 + 0x8]\n 40487: a1 = i32 [a2 + 0x10]\n 40490: a2 = u64 [a2]\n 40492: a0 = reverse a0\n 40494: a3 = a0 << 0x20\n 40497: a1 = reverse a1\n 40499: a1 = a1 >> 0x20\n 40502: a3 = a3 | a1\n 40505: a0 = a0 >> 0x20\n 40508: a1 = reverse a2\n 40510: a2 = a1 << 0x20\n 40513: a0 = a0 | a2\n 40516: a1 = a1 >> 0x20\n 40519: a2 = s1 + 0x2118\n 40523: jump [t0]\n      : @1497 (gas: 8)\n 40525: a0 = sp + 0xffffffffffffffe0\n 40528: a0 = a0 & 0xffffffffffffffe0\n 40531: u64 [s1 + 0x190] = a0\n 40535: sp = a0\n 40537: i32 a2 = a0 + 0\n 40539: a1 = 0x40\n 40542: a0 = u64 [s1 + 0x110]\n 40546: jump [t0]\n      : @1498 (gas: 15)\n 40548: a2 = u64 [s1 + 0x180]\n 40552: a0 = u64 [a2 + 0x8]\n 40555: a1 = i32 [a2 + 0x10]\n 40558: a2 = u64 [a2]\n 40560: a0 = reverse a0\n 40562: a3 = a0 << 0x20\n 40565: a1 = reverse a1\n 40567: a1 = a1 >> 0x20\n 40570: a3 = a3 | a1\n 40573: a0 = a0 >> 0x20\n 40576: a1 = reverse a2\n 40578: a2 = a1 << 0x20\n 40581: a0 = a0 | a2\n 40584: a1 = a1 >> 0x20\n 40587: jump [t0]\n      : @1499 (gas: 18)\n 40589: a1 = a2 + 0x1\n 40592: u64 [s1 + 0x198] = a1\n 40596: a0 = a1 <u 0x1\n 40599: a0 = a0 + a3\n 40602: u64 [s1 + 0x190] = a0\n 40606: a0 = a0 | a1\n 40609: a0 = a0 <u 0x1\n 40612: a0 = a0 + t1\n 40615: u64 [s1 + 0x180] = a0\n 40619: a0 = a0 <u t1\n 40622: a0 = a0 + ra\n 40625: u64 [s1 + 0x188] = a0\n 40629: a1 = 0xff - a2\n 40633: u64 [s1 + 0x160] = a1\n 40637: a2 = 0x80 - a1\n 40641: a0 = u64 [s1 + 0x140]\n 40645: a1 = u64 [s1 + 0x138]\n 40649: jump [t0]\n      : @1500 (gas: 21)\n 40651: a3 = u64 [s1 + 0x180]\n 40655: a0 = u64 [a3 + 0x18]\n 40658: a1 = u64 [a3 + 0x10]\n 40661: a2 = u64 [a3 + 0x8]\n 40664: a3 = u64 [a3]\n 40666: a0 = reverse a0\n 40668: u64 [s1 + 0x170] = a0\n 40672: a0 = reverse a1\n 40674: u64 [s1 + 0x168] = a0\n 40678: a0 = reverse a2\n 40680: u64 [s1 + 0x160] = a0\n 40684: a0 = reverse a3\n 40686: u64 [s1 + 0x158] = a0\n 40690: a0 = sp + 0xffffffffffffffe0\n 40693: a0 = a0 & 0xffffffffffffffe0\n 40696: u64 [s1 + 0x180] = a0\n 40700: sp = a0\n 40702: a2 = s1 + 0x7ff\n 40706: a2 = a2 + 0x119\n 40710: a0 = u64 [s1 + 0x178]\n 40714: jump [t0]\n      : @1501 (gas: 14)\n 40716: a0 = u64 [a3 + 0x18]\n 40719: a1 = u64 [a3 + 0x10]\n 40722: a2 = u64 [a3 + 0x8]\n 40725: a3 = u64 [a3]\n 40727: a0 = reverse a0\n 40729: a4 = reverse a1\n 40731: a2 = reverse a2\n 40733: a3 = reverse a3\n 40735: a1 = u64 [s1 + 0x170]\n 40739: u64 [a1 + 0x18] = a3\n 40742: u64 [a1 + 0x10] = a2\n 40745: u64 [a1 + 0x8] = a4\n 40748: u64 [a1] = a0\n 40750: jump [t0]\n      : @1502 (gas: 19)\n 40752: a3 = u64 [s1 + 0x170]\n 40756: a0 = u64 [a3 + 0x18]\n 40759: a1 = u64 [a3 + 0x10]\n 40762: a2 = u64 [a3 + 0x8]\n 40765: a3 = u64 [a3]\n 40767: a0 = reverse a0\n 40769: u64 [s1 + 0x168] = a0\n 40773: a0 = reverse a1\n 40775: u64 [s1 + 0x160] = a0\n 40779: a0 = reverse a2\n 40781: u64 [s1 + 0x158] = a0\n 40785: a0 = reverse a3\n 40787: u64 [s1 + 0x150] = a0\n 40791: a0 = sp + 0xffffffffffffffe0\n 40794: a0 = a0 & 0xffffffffffffffe0\n 40797: u64 [s1 + 0x170] = a0\n 40801: sp = a0\n 40803: a0 = u64 [s1 + 0x188]\n 40807: jump [t0]\n      : @1503 (gas: 9)\n 40809: a0 = u64 [a3 + 0x18]\n 40812: a1 = u64 [a3 + 0x10]\n 40815: a2 = u64 [a3 + 0x8]\n 40818: a3 = u64 [a3]\n 40820: a0 = reverse a0\n 40822: a1 = reverse a1\n 40824: a2 = reverse a2\n 40826: a3 = reverse a3\n 40828: jump [t0]\n      : @1504 (gas: 10)\n 40830: a0 = u64 [a3 + 0x18]\n 40833: a1 = u64 [a3 + 0x10]\n 40836: a2 = u64 [a3 + 0x8]\n 40839: a3 = u64 [a3]\n 40841: a0 = reverse a0\n 40843: a1 = reverse a1\n 40845: a2 = reverse a2\n 40847: a3 = reverse a3\n 40849: a4 = s1 + 0x2918\n 40853: jump [t0]\n      : @1505 (gas: 16)\n 40855: a3 = u64 [s1 + 0x190]\n 40859: a0 = u64 [a3 + 0x18]\n 40862: a1 = u64 [a3 + 0x10]\n 40865: a2 = u64 [a3 + 0x8]\n 40868: a3 = u64 [a3]\n 40870: a0 = reverse a0\n 40872: u64 [s1 + 0x190] = a0\n 40876: a0 = reverse a1\n 40878: u64 [s1 + 0x188] = a0\n 40882: a0 = reverse a2\n 40884: u64 [s1 + 0x180] = a0\n 40888: a0 = reverse a3\n 40890: u64 [s1 + 0x178] = a0\n 40894: a2 = s1 + 0x1918\n 40898: a0 = 0\n 40900: jump [t0]\n      : @1506 (gas: 8)\n 40902: a3 = a4 <u a3\n 40905: a5 = a2 + a3\n 40908: a2 = a5 <u a2\n 40911: a2 = a3 if a3 == 0\n 40914: a2 = a2 + a1\n 40917: a1 = a2 <u a1\n 40920: a0 = a0 + a1\n 40923: jump [t0]\n      : @1507 (gas: 16)\n 40925: t2 = u64 [s1 + 0x140]\n 40929: t1 = u64 [s1 + 0x138]\n 40933: u64 [s1 + 344] = 0\n 40937: u64 [s1 + 336] = 0\n 40941: a4 = s1 + 0x100\n 40945: a2 = u64 [a4 + 0x28]\n 40948: a1 = 0 if a2 == 0\n 40950: a0 = 0 if a2 == 0\n 40952: u64 [a4 + 0x48] = a0\n 40955: a3 = u64 [a4 + 0x30]\n 40958: a2 = a3 + 0xffffffffffffffff\n 40961: u64 [a4 + 0x28] = a2\n 40964: a2 = a3 >u 0\n 40966: a2 = a2 + 0xffffffffffffffff\n 40969: u64 [a4 + 0x20] = a2\n 40972: jump [t0]\n      : @1508 (gas: 15)\n 40974: a0 = u64 [a3 + 0x18]\n 40977: a1 = u64 [a3 + 0x10]\n 40980: a2 = u64 [a3 + 0x8]\n 40983: a3 = u64 [a3]\n 40985: a0 = reverse a0\n 40987: u64 [s1 + 0x188] = a0\n 40991: a0 = reverse a1\n 40993: u64 [s1 + 0x180] = a0\n 40997: a0 = reverse a2\n 40999: u64 [s1 + 0x178] = a0\n 41003: a0 = reverse a3\n 41005: u64 [s1 + 0x170] = a0\n 41009: a0 = sp + 0xffffffffffffffe0\n 41012: a0 = a0 & 0xffffffffffffffe0\n 41015: jump [t0]\n      : @1509 (gas: 18)\n 41017: a3 = u64 [s1 + 0xa8]\n 41021: a0 = u64 [a3 + 0x18]\n 41024: a1 = u64 [a3 + 0x10]\n 41027: a2 = u64 [a3 + 0x8]\n 41030: a3 = u64 [a3]\n 41032: a0 = reverse a0\n 41034: u64 [s1 + 0x90] = a0\n 41038: a0 = reverse a1\n 41040: u64 [s1 + 0x88] = a0\n 41044: a0 = reverse a2\n 41046: u64 [s1 + 0x80] = a0\n 41050: a0 = reverse a3\n 41052: u64 [s1 + 0x78] = a0\n 41055: a0 = sp + 0xffffffffffffffe0\n 41058: a0 = a0 & 0xffffffffffffffe0\n 41061: u64 [s1 + 0xa8] = a0\n 41065: sp = a0\n 41067: jump [t0]\n      : @1510 (gas: 17)\n 41069: a4 = s1 + 0x100\n 41073: a2 = u64 [a4 + 0x80]\n 41077: a0 = u64 [a2 + 0x8]\n 41080: a1 = i32 [a2 + 0x10]\n 41083: a2 = u64 [a2]\n 41085: a0 = reverse a0\n 41087: a3 = a0 << 0x20\n 41090: a1 = reverse a1\n 41092: a1 = a1 >> 0x20\n 41095: a3 = a3 | a1\n 41098: a0 = a0 >> 0x20\n 41101: a1 = reverse a2\n 41103: a2 = a1 << 0x20\n 41106: a0 = a0 | a2\n 41109: a1 = a1 >> 0x20\n 41112: a2 = u64 [a4 + 0x98]\n 41116: jump [t0]\n      : @1511 (gas: 16)\n 41118: a3 = u64 [s1 + 0x190]\n 41122: a0 = u64 [a3 + 0x18]\n 41125: a1 = u64 [a3 + 0x10]\n 41128: a2 = u64 [a3 + 0x8]\n 41131: a3 = u64 [a3]\n 41133: a0 = reverse a0\n 41135: a4 = reverse a1\n 41137: a2 = reverse a2\n 41139: a3 = reverse a3\n 41141: a1 = u64 [s1 + 0x198]\n 41145: u64 [a1 + 0x18] = a3\n 41148: u64 [a1 + 0x10] = a2\n 41151: u64 [a1 + 0x8] = a4\n 41154: u64 [a1] = a0\n 41156: a0 = 0x2000\n 41160: jump [t0]\n      : @1512 (gas: 13)\n 41162: a0 = u64 [a3 + 0x18]\n 41165: a1 = u64 [a3 + 0x10]\n 41168: a2 = u64 [a3 + 0x8]\n 41171: a3 = u64 [a3]\n 41173: a0 = reverse a0\n 41175: u64 [s1 + 0x178] = a0\n 41179: a0 = reverse a1\n 41181: u64 [s1 + 0x170] = a0\n 41185: a0 = reverse a2\n 41187: u64 [s1 + 0x168] = a0\n 41191: a0 = reverse a3\n 41193: u64 [s1 + 0x160] = a0\n 41197: jump [t0]\n      : @1513 (gas: 8)\n 41199: a0 = sp + 0xffffffffffffffe0\n 41202: a0 = a0 & 0xffffffffffffffe0\n 41205: u64 [s1 + 0x170] = a0\n 41209: sp = a0\n 41211: i32 a2 = a0 + 0\n 41213: a1 = 0x40\n 41216: a0 = u64 [s1 + 0x180]\n 41220: jump [t0]\n      : @1514 (gas: 8)\n 41222: a0 = a0 | a2\n 41225: a2 = a3 | a1\n 41228: a2 = a2 | a0\n 41231: a2 = a2 >> 0x20\n 41234: a0 = a0 | a1\n 41237: a0 = a0 << 0x20\n 41240: a0 = a0 | a2\n 41243: jump [t0]\n      : @1515 (gas: 12)\n 41245: a4 = 0\n 41247: a5 = 0\n 41249: a2 = u64 [s1 + 0x128]\n 41253: a1 = 0 if a2 == 0\n 41255: a0 = 0 if a2 == 0\n 41257: a3 = u64 [s1 + 0x138]\n 41261: a2 = a3 + 0xffffffffffffffff\n 41264: u64 [s1 + 0x130] = a2\n 41268: a2 = a3 >u 0\n 41270: a2 = a2 + 0xffffffffffffffff\n 41273: u64 [s1 + 0x128] = a2\n 41277: jump [t0]\n      : @1516 (gas: 11)\n 41279: a2 = u64 [s1 + 0x128]\n 41283: a1 = a1 | a2\n 41286: a2 = u64 [s1 + 0x198]\n 41290: a3 = a2 <u 0x80\n 41294: u64 [s1 + 0x128] = a3\n 41298: a4 = u64 [s1 + 0x120]\n 41302: a1 = a4 if a3 == 0\n 41305: a4 = u64 [s1 + 0x138]\n 41309: a4 = a1 if a2 != 0\n 41312: u64 [s1 + 0x138] = a4\n 41316: jump [t0]\n      : @1517 (gas: 12)\n 41318: a2 = t2 >> 0x3f\n 41321: a3 = t1 << 0x1\n 41324: a2 = a2 | a3\n 41327: a3 = t2 << 0x1\n 41330: t2 = u64 [s1 + 0x168]\n 41334: a4 = t2 >> 0x3f\n 41337: a3 = a3 | a4\n 41340: u64 [s1 + 0x140] = a3\n 41344: ra = u64 [s1 + 0x120]\n 41348: a0 = t1\n 41350: t1 = ra ^ a2\n 41353: jump [t0]\n      : @1518 (gas: 12)\n 41355: a1 = a1 << 0x1\n 41358: a4 = u64 [s1 + 0x148]\n 41362: a3 = a4 >> 0x3f\n 41365: a1 = a1 | a3\n 41368: u64 [s1 + 0x138] = a1\n 41372: a3 = a0 >> 0x3f\n 41375: a0 = a4 << 0x1\n 41378: a3 = a3 | a0\n 41381: a0 = t2 << 0x1\n 41384: a4 = u64 [s1 + 0x160]\n 41388: a1 = a4 >> 0x3f\n 41391: jump [t0]\n      : @1519 (gas: 14)\n 41393: a0 = u64 [a3 + 0x18]\n 41396: a1 = u64 [a3 + 0x10]\n 41399: a2 = u64 [a3 + 0x8]\n 41402: a3 = u64 [a3]\n 41404: a0 = reverse a0\n 41406: a4 = reverse a1\n 41408: a2 = reverse a2\n 41410: a3 = reverse a3\n 41412: a1 = u64 [s1 + 0x180]\n 41416: u64 [a1 + 0x18] = a3\n 41419: u64 [a1 + 0x10] = a2\n 41422: u64 [a1 + 0x8] = a4\n 41425: u64 [a1] = a0\n 41427: jump [t0]\n      : @1520 (gas: 15)\n 41429: a3 = u64 [s1 + 0x90]\n 41433: a0 = u64 [a3 + 0x18]\n 41436: a1 = u64 [a3 + 0x10]\n 41439: a2 = u64 [a3 + 0x8]\n 41442: a3 = u64 [a3]\n 41444: a0 = reverse a0\n 41446: a4 = reverse a1\n 41448: a2 = reverse a2\n 41450: a3 = reverse a3\n 41452: a1 = u64 [s1 + 0xa8]\n 41456: u64 [a1 + 0x18] = a3\n 41459: u64 [a1 + 0x10] = a2\n 41462: u64 [a1 + 0x8] = a4\n 41465: u64 [a1] = a0\n 41467: jump [t0]\n      : @1521 (gas: 9)\n 41469: a5 = s1 + 0x100\n 41473: u64 [a5 + 0x98] = a1\n 41477: u64 [a5 + 0x90] = a3\n 41481: a0 = a3 | a1\n 41484: u64 [a5 + 0x78] = a2\n 41487: u64 [a5 + 0x88] = a4\n 41491: a1 = a4 | a2\n 41494: a0 = a0 | a1\n 41497: jump [t0]\n      : @1522 (gas: 9)\n 41499: u64 [s1 + 0x160] = a3\n 41503: a1 = 0 if a4 == 0\n 41505: u64 [s1 + 0x168] = a1\n 41509: u64 [s1 + 312] = 0x15180\n 41516: a0 = u64 [s1 + 0x190]\n 41520: a2 = a0 + 0xffffffffffffff80\n 41523: a0 = a5\n 41525: a1 = t1\n 41527: jump [t0]\n      : @1523 (gas: 10)\n 41529: u64 [s1] = a3\n 41531: u64 [s1 + 0x8] = a2\n 41534: u64 [s1 + 0x10] = a1\n 41537: u64 [s1 + 0x18] = a0\n 41540: sp = s0 + 0xffffffffffffffc0\n 41543: ra = u64 [sp + 0x38]\n 41546: s0 = u64 [sp + 0x30]\n 41549: s1 = u64 [sp + 0x28]\n 41552: sp = sp + 0x40\n 41555: jump [t0]\n      : @1524 (gas: 8)\n 41557: a0 = sp + 0xffffffffffffffe0\n 41560: a0 = a0 & 0xffffffffffffffe0\n 41563: u64 [s1 + 0xa8] = a0\n 41567: sp = a0\n 41569: i32 a2 = a0 + 0\n 41571: a1 = 0x40\n 41574: a0 = u64 [s1 + 0xb8]\n 41578: jump [t0]\n      : @1525 (gas: 4)\n 41580: a0 = 0x2918\n 41584: a3 = s1 + a0\n 41587: a4 = a3 + 0x200\n 41591: jump [t0]\n      : @1526 (gas: 8)\n 41593: a0 = u64 [a4 + 0x78]\n 41596: a1 = u64 [a4 + 0x80]\n 41600: a2 = u64 [a4 + 0x70]\n 41603: a3 = u64 [a4 + 0x68]\n 41606: a1 = a1 | a2\n 41609: a0 = a0 | a3\n 41612: a0 = a0 | a1\n 41615: jump [t0]\n      : @1527 (gas: 8)\n 41617: a3 = u64 [s1 + 0x150]\n 41621: a0 = a0 - a3\n 41624: a3 = u64 [s1 + 0x188]\n 41628: a4 = u64 [s1 + 0x160]\n 41632: a3 = a4 - a3\n 41635: a4 = s1 + 0x2118\n 41639: a5 = a4 + 0x700\n 41643: jump [t0]\n      : @1528 (gas: 9)\n 41645: a0 = a0 | a1\n 41648: a1 = u64 [s1 + 0x148]\n 41652: a0 = a1 if a3 == 0\n 41655: a1 = u64 [s1 + 0x140]\n 41659: a1 = a0 if a2 != 0\n 41662: u64 [s1 + 0x140] = a1\n 41666: a0 = u64 [s1 + 0x158]\n 41670: a1 = u64 [s1 + 0x150]\n 41674: jump [t0]\n      : @1529 (gas: 16)\n 41676: a4 = u64 [a3]\n 41678: u64 [sp + 0x18] = a4\n 41681: a4 = u64 [a3 + 0x8]\n 41684: u64 [sp + 0x20] = a4\n 41687: a4 = u64 [a3 + 0x10]\n 41690: u64 [sp + 0x28] = a4\n 41693: a3 = u64 [a3 + 0x18]\n 41696: u64 [sp + 0x30] = a3\n 41699: s1 = u64 [a2]\n 41701: a3 = u64 [a2 + 0x8]\n 41704: u64 [sp] = a3\n 41706: a3 = u64 [a2 + 0x10]\n 41709: u64 [sp + 0x8] = a3\n 41712: a2 = u64 [a2 + 0x18]\n 41715: u64 [sp + 0x10] = a2\n 41718: jump [t0]\n      : @1530 (gas: 8)\n 41720: a0 = a0 + s1\n 41723: u64 [a0 + 1272] = 0\n 41727: u64 [a0 + 1264] = 0\n 41731: u64 [a0 + 1256] = 0\n 41735: a2 = a0\n 41737: a0 = 0x4e487b7100000000\n 41747: a1 = 0x2000\n 41751: jump [t0]\n      : @1531 (gas: 7)\n 41753: u64 [s1 + 0x110] = a0\n 41757: u64 [s1 + 0x128] = a1\n 41761: a1 = u64 [s1 + 0x190]\n 41765: a2 = 0x80 - a1\n 41769: a0 = u64 [s1 + 0x150]\n 41773: a1 = u64 [s1 + 0x140]\n 41777: jump [t0]\n      : @1532 (gas: 4)\n 41779: a2 = a3 + a1\n 41782: a3 = a2 <u a3\n 41785: a3 = a1 if a1 == 0\n 41788: jump [t0]\n      : @1533 (gas: 10)\n 41790: a3 = u64 [s1 + 0x190]\n 41794: a0 = u64 [a3]\n 41796: a1 = u64 [a3 + 0x8]\n 41799: a2 = u64 [a3 + 0x10]\n 41802: a3 = u64 [a3 + 0x18]\n 41805: a0 = reverse a0\n 41807: a1 = reverse a1\n 41809: a2 = reverse a2\n 41811: a3 = reverse a3\n 41813: jump [t0]\n      : @1534 (gas: 5)\n 41815: a0 = sp + 0xffffffffffffffe0\n 41818: a2 = a0 & 0xffffffffffffffe0\n 41821: u64 [s1 + 0x198] = a2\n 41825: sp = a2\n 41827: jump [t0]\n      : @1535 (gas: 9)\n 41829: a4 = a4 + a0\n 41832: a0 = a4 <u a0\n 41835: a5 = a2 + a0\n 41838: a2 = a5 <u a2\n 41841: a2 = a0 if a0 == 0\n 41844: a2 = a2 + a3\n 41847: a0 = a2 <u a3\n 41850: a0 = a0 + a1\n 41853: jump [t0]\n      : @1536 (gas: 8)\n 41855: a0 = u64 [a4 + 0x38]\n 41858: a1 = u64 [a4 + 0x40]\n 41861: a2 = u64 [a4 + 0x30]\n 41864: a3 = u64 [a4 + 0x28]\n 41867: a1 = a1 | a2\n 41870: a0 = a0 | a3\n 41873: a0 = a0 | a1\n 41876: jump [t0]\n      : @1537 (gas: 8)\n 41878: a2 = u64 [s1 + 0x128]\n 41882: a1 = a1 | a2\n 41885: a3 = u64 [s1 + 0x190]\n 41889: a4 = a3 <u 0x80\n 41893: u64 [s1 + 0x128] = a4\n 41897: a2 = u64 [s1 + 0x118]\n 41901: a1 = a2 if a4 == 0\n 41904: jump [t0]\n      : @1538 (gas: 9)\n 41906: a0 = a0 & 0xffffffffffffffff\n 41909: a1 = a1 & 0xffffffffffffffff\n 41912: a2 = a2 & 0xffffffffffffffff\n 41915: a4 = u64 [s1 + 0x70]\n 41918: a3 = a3 & a4\n 41921: a4 = u64 [s1 + 0x190]\n 41925: a3 = a3 | a4\n 41928: a4 = s1 + 0x2918\n 41932: jump [t0]\n      : @1539 (gas: 12)\n 41934: a0 = u64 [sp + 0x18]\n 41937: a1 = u64 [sp + 0x10]\n 41940: a2 = u64 [sp + 0x8]\n 41943: a3 = u64 [sp]\n 41945: a4 = a2 | a0\n 41948: a5 = a3 | a1\n 41951: a5 = a5 | a4\n 41954: a5 = a5 >> 0x20\n 41957: a4 = a4 | a1\n 41960: a4 = a4 << 0x20\n 41963: a4 = a4 | a5\n 41966: jump [t0]\n      : @1540 (gas: 9)\n 41968: a0 = u64 [a3 + 0x18]\n 41971: a1 = u64 [a3 + 0x10]\n 41974: a2 = u64 [a3 + 0x8]\n 41977: a3 = u64 [a3]\n 41979: a5 = reverse a0\n 41981: a4 = reverse a1\n 41983: a0 = reverse a2\n 41985: a2 = reverse a3\n 41987: jump [t0]\n      : @1541 (gas: 8)\n 41989: a0 = sp + 0xffffffffffffffe0\n 41992: a0 = a0 & 0xffffffffffffffe0\n 41995: u64 [s1 + 0x168] = a0\n 41999: sp = a0\n 42001: i32 a2 = a0 + 0\n 42003: a1 = 0x40\n 42006: a0 = u64 [s1 + 0x180]\n 42010: jump [t0]\n      : @1542 (gas: 5)\n 42012: a0 = sp + 0xffffffffffffffe0\n 42015: a0 = a0 & 0xffffffffffffffe0\n 42018: u64 [s1 + 0x198] = a0\n 42022: sp = a0\n 42024: jump [t0]\n      : @1543 (gas: 8)\n 42026: a0 = u64 [s1 + 0x198]\n 42030: a2 = u64 [s1 + 0x128]\n 42034: a0 = a0 | a2\n 42037: a2 = u64 [s1 + 0x110]\n 42041: a0 = a2 if a4 == 0\n 42044: t1 = u64 [s1 + 0x140]\n 42048: a3 = t1\n 42050: jump [t0]\n      : @1544 (gas: 9)\n 42052: u64 [a2 + 0x20] = a0\n 42055: a0 = u64 [s1 + 0x160]\n 42059: u64 [a2 + 0x18] = a0\n 42062: a0 = u64 [s1 + 0x168]\n 42066: u64 [a2 + 0x10] = a0\n 42069: a3 = a1\n 42071: a0 = 0x20\n 42074: a1 = s1 + 0x7ff\n 42078: jump [t0]\n      : @1545 (gas: 7)\n 42080: u64 [s1 + 0x130] = a0\n 42084: u64 [s1 + 0x128] = a1\n 42088: a0 = u64 [s1 + 0x160]\n 42092: a2 = a0 + 0xffffffffffffff80\n 42095: a0 = u64 [s1 + 0x140]\n 42099: a1 = u64 [s1 + 0x138]\n 42103: jump [t0]\n      : @1546 (gas: 7)\n 42105: a4 = 0x100000000\n 42115: a0 = 0xffffffe0\n 42125: a0 = a1 <u a0\n 42128: a2 = u64 [a5 + 0x90]\n 42132: a0 = 0 if a2 != 0\n 42134: a0 = 0 if a3 != 0\n 42136: jump [t0]\n      : @1547 (gas: 7)\n 42138: a3 = u64 [s1 + 0x168]\n 42142: a0 = u64 [a3 + 0x18]\n 42145: a1 = u64 [a3 + 0x10]\n 42148: a2 = u64 [a3 + 0x8]\n 42151: a3 = u64 [a3]\n 42153: a0 = reverse a0\n 42155: jump [t0]\n      : @1548 (gas: 7)\n 42157: a0 = reverse a1\n 42159: u64 [s1 + 0x168] = a0\n 42163: a0 = reverse a2\n 42165: u64 [s1 + 0x160] = a0\n 42169: a0 = reverse a3\n 42171: u64 [s1 + 0x158] = a0\n 42175: jump [t0]\n      : @1549 (gas: 6)\n 42177: u64 [s1 + 0x128] = a1\n 42181: a1 = u64 [s1 + 0x198]\n 42185: a2 = 0x80 - a1\n 42189: a0 = u64 [s1 + 0x158]\n 42193: a1 = u64 [s1 + 0x150]\n 42197: jump [t0]\n      : @1550 (gas: 8)\n 42199: u64 [sp + 48] = 0\n 42202: u64 [sp + 40] = 0\n 42205: u64 [sp + 32] = 0\n 42208: a0 = 0x4e487b7100000000\n 42218: a1 = sp + 0x20\n 42221: u64 [sp + 0x38] = a0\n 42224: a0 = 0\n 42226: jump [t0]\n      : @1551 (gas: 9)\n 42228: a0 = u64 [a2 + 0x8]\n 42231: a1 = i32 [a2 + 0x10]\n 42234: a2 = u64 [a2]\n 42236: a0 = reverse a0\n 42238: a3 = a0 << 0x20\n 42241: a1 = reverse a1\n 42243: a1 = a1 >> 0x20\n 42246: a1 = a1 | a3\n 42249: jump [t0]\n      : @1552 (gas: 4)\n 42251: a0 = u64 [s1 + 0x198]\n 42255: a0 = i32 [a0]\n 42257: a1 = 0x23\n 42260: jump [t0]\n      : @1553 (gas: 10)\n 42262: sp = sp + 0xffffffffffffffc0\n 42265: u64 [sp + 0x38] = ra\n 42268: u64 [sp + 0x30] = s0\n 42271: u64 [sp + 0x28] = s1\n 42274: s0 = sp + 0x40\n 42277: sp = sp & 0xffffffffffffffe0\n 42280: s1 = a0\n 42282: i32 a0 = sp + 0\n 42284: a1 = 0x4\n 42287: jump [t0]\n      : @1554 (gas: 8)\n 42289: a3 = u64 [s1 + 0x188]\n 42293: a0 = u64 [a3 + 0x18]\n 42296: a1 = u64 [a3 + 0x10]\n 42299: a2 = u64 [a3 + 0x8]\n 42302: a3 = u64 [a3]\n 42304: a0 = reverse a0\n 42306: a4 = reverse a1\n 42308: jump [t0]\n      : @1555 (gas: 8)\n 42310: a0 = u64 [a3 + 0x18]\n 42313: a1 = u64 [a3 + 0x10]\n 42316: a2 = u64 [a3 + 0x8]\n 42319: a3 = u64 [a3]\n 42321: a0 = reverse a0\n 42323: u64 [s1 + 0x180] = a0\n 42327: a0 = reverse a1\n 42329: jump [t0]\n      : @1556 (gas: 6)\n 42331: u64 [s1 + 0x148] = a0\n 42335: u64 [s1 + 0x120] = a1\n 42339: a0 = u64 [s1 + 0x140]\n 42343: a1 = u64 [s1 + 0x138]\n 42347: a2 = u64 [s1 + 0x198]\n 42351: jump [t0]\n      : @1557 (gas: 6)\n 42353: u64 [s1 + 0x148] = a0\n 42357: u64 [s1 + 0x168] = a1\n 42361: a0 = u64 [s1 + 0x158]\n 42365: a1 = u64 [s1 + 0x150]\n 42369: a2 = u64 [s1 + 0x160]\n 42373: jump [t0]\n      : @1558 (gas: 6)\n 42375: sp = s0 + 0xffffffffffffffa0\n 42378: ra = u64 [sp + 0x58]\n 42381: s0 = u64 [sp + 0x50]\n 42384: s1 = u64 [sp + 0x48]\n 42387: sp = sp + 0x60\n 42390: jump [t0]\n      : @1559 (gas: 8)\n 42392: a0 = sp + 0xffffffffffffffe0\n 42395: a0 = a0 & 0xffffffffffffffe0\n 42398: u64 [s1 + 0x90] = a0\n 42402: sp = a0\n 42404: i32 a2 = a0 + 0\n 42406: a1 = 0x40\n 42409: a0 = u64 [s1 + 0xb8]\n 42413: jump [t0]\n      : @1560 (gas: 5)\n 42415: a0 = sp + 0xffffffffffffffe0\n 42418: a0 = a0 & 0xffffffffffffffe0\n 42421: u64 [s1 + 0x170] = a0\n 42425: sp = a0\n 42427: jump [t0]\n      : @1561 (gas: 5)\n 42429: a0 = sp + 0xffffffffffffffe0\n 42432: a0 = a0 & 0xffffffffffffffe0\n 42435: u64 [s1 + 0x178] = a0\n 42439: sp = a0\n 42441: jump [t0]\n      : @1562 (gas: 7)\n 42443: u64 [a1 + 1248] = 0\n 42447: u64 [a1 + 1240] = 0\n 42451: u64 [a1 + 1224] = 0x11\n 42456: a2 = a1\n 42458: a0 = 0x4\n 42461: a1 = 0x2000\n 42465: jump [t0]\n      : @1563 (gas: 4)\n 42467: i32 a0 = a0 + 0xfffffffffffff918\n 42471: a3 = s1 + a0\n 42474: a4 = a3 + 0x600\n 42478: jump [t0]\n      : @1564 (gas: 6)\n 42480: a0 = a0 <u a2\n 42483: a2 = a3 >u 0\n 42485: a2 = a0 if a3 == 0\n 42488: a0 = a3 | a3\n 42491: a2 = a1 if a0 != 0\n 42494: jump [t0]\n      : @1565 (gas: 6)\n 42496: a3 = u64 [s1 + 0x190]\n 42500: ra = u64 [s1 + 0x180]\n 42504: a2 = a3 | ra\n 42507: a2 = a2 <u 0x1\n 42510: a4 = u64 [s1 + 0x170]\n 42514: jump [t0]\n      : @1566 (gas: 4)\n 42516: a0 = 0x2118\n 42520: a3 = s1 + a0\n 42523: a4 = a3 + 0x600\n 42527: jump [t0]\n      : @1567 (gas: 4)\n 42529: a0 = 0x2918\n 42533: a3 = s1 + a0\n 42536: a4 = a3 + 0x300\n 42540: jump [t0]\n      : @1568 (gas: 6)\n 42542: u64 [s1 + 0x160] = a0\n 42546: u64 [s1 + 0x198] = a1\n 42550: a0 = u64 [s1 + 0x150]\n 42554: a1 = u64 [s1 + 0x140]\n 42558: a2 = u64 [s1 + 0x168]\n 42562: jump [t0]\n      : @1569 (gas: 9)\n 42564: sp = sp + 0xffffffffffffffc0\n 42567: u64 [sp + 0x38] = ra\n 42570: u64 [sp + 0x30] = s0\n 42573: u64 [sp + 0x28] = s1\n 42576: s0 = sp + 0x40\n 42579: sp = sp & 0xffffffffffffffe0\n 42582: s1 = a0\n 42584: i32 a0 = sp + 0\n 42586: jump [t0]\n      : @1570 (gas: 5)\n 42588: a0 = a2 ^ 0xff\n 42592: a0 = a0 | t1\n 42595: a1 = a3 | ra\n 42598: a0 = a0 | a1\n 42601: jump [t0]\n      : @1571 (gas: 8)\n 42603: a0 = u64 [a4 + 0x58]\n 42606: a1 = u64 [a4 + 0x60]\n 42609: a2 = u64 [a4 + 0x50]\n 42612: a3 = u64 [a4 + 0x48]\n 42615: a1 = a1 | a2\n 42618: a0 = a0 | a3\n 42621: a0 = a0 | a1\n 42624: jump [t0]\n      : @1572 (gas: 6)\n 42626: u64 [s1 + 0x118] = a0\n 42630: u64 [s1 + 0x110] = a1\n 42634: a2 = u64 [s1 + 0x168]\n 42638: a0 = a2 <u 0x80\n 42642: u64 [s1 + 0x138] = a0\n 42646: jump [t0]\n      : @1573 (gas: 10)\n 42648: a4 = s1 + 0x100\n 42652: u64 [a4 + 0x70] = a1\n 42655: a1 = u64 [a4 + 0x90]\n 42659: a2 = u64 [a4 + 0x88]\n 42663: a2 = a2 | a1\n 42666: a1 = u64 [a4 + 0x98]\n 42670: a3 = u64 [a4 + 0x80]\n 42674: a1 = a1 | a3\n 42677: a1 = a1 | a2\n 42680: jump [t0]\n      : @1574 (gas: 2)\n 42682: a3 = a2 & 0x40\n 42685: jump @1578 if a3 != 0\n      : @1575 (gas: 1)\n 42688: jump @1577 if a2 == 0\n      : @1576 (gas: 6)\n 42691: i32 a3 = 0x40 - a2\n 42694: a3 = a1 << a3\n 42697: a1 = a1 >> a2\n 42700: a0 = a0 >> a2\n 42703: a0 = a0 | a3\n 42706: ret\n      : @1577 (gas: 1)\n 42708: ret\n      : @1578 (gas: 4)\n 42710: a0 = a2 + 0xffffffffffffffc0\n 42713: a0 = a1 >> a0\n 42716: a1 = 0\n 42718: ret\n      : @1579 (gas: 2)\n 42720: a3 = a2 & 0x40\n 42723: jump @1583 if a3 != 0\n      : @1580 (gas: 1)\n 42726: jump @1582 if a2 == 0\n      : @1581 (gas: 6)\n 42729: i32 a3 = 0x40 - a2\n 42732: a3 = a0 >> a3\n 42735: a0 = a0 << a2\n 42738: a1 = a1 << a2\n 42741: a1 = a1 | a3\n 42744: ret\n      : @1582 (gas: 1)\n 42746: ret\n      : @1583 (gas: 4)\n 42748: a1 = a2 + 0xffffffffffffffc0\n 42751: a1 = a0 << a1\n 42754: a0 = 0\n 42756: ret\n","bytecode":{"object":"50564d0000f2c4000000000000010700c1c001c0008003816cf40443b2a766a42db9815a1e2efa877e5c0519ec4fe51c83c442ba392fca77e2116ca4777b81d4ea98e10c16c565173f400507b7679bbdc6b249bd00a16076687a96c0a237ac310730ce86cab6918a9cee1f20395b3b80e1e34a4eb67d08a74e0dc354af37bd04b03f2522518a6d9314cf35a01b6f25119782e62a75888f78d1b417406592b5dbd6886d772784123ca0859bbddc544b79277c562e79691cb8290000e8890423c78affffe7890423c78a00001876fbdc3875975752f4e33b24c3dceff4c6a46dc4173eb68630b623f1b6b5ef1d0584397d33527c373f8a8f13d8dec2e4708e54ca59a13610a1f529f1946a422bba3c51695be6d8186647f5847091063f7d0def110bff283e79b8ad5546d505d5764c8d017f00001876fbdc38750000e8890423c78af2a8b439f25bd8ebdf119a7090238fa225717e85c68e190f0982ba0d5cabfde394247a18b5e26bbe1d817609543b3c0451c960f58acf6b97ba06c2c9ba61c0412000000004811b11000000000400000012000000200000002e0000003400000041000000530000005e0000006d000000700000007d0000008d0000009d000000a8000000ba000000c500000063616c6c63616c6c5f646174615f636f707963616c6c5f646174615f6c6f616463616c6c5f646174615f73697a6563616c6c65726465706f7369745f6576656e746765745f696d6d757461626c655f646174616765745f73746f72616765686173685f6b656363616b5f3235366e6f777265665f74696d655f6c65667472657475726e5f646174615f636f707972657475726e5f646174615f73697a657365616c5f72657475726e7365745f696d6d757461626c655f646174617365745f73746f7261676576616c75655f7472616e73666572726564051302c0ed9c0463616c6cc0f69c066465706c6f7906c035c2832402c006a7da00220266031c04b104b9048b05930592069706180723073e078f079a0704082d0841086d088208c108e60884098a09be09420a4c0a520a860abe0a410b4f0b5b0b720b8c0bad0bb30bce0beb0bf10b360c400c490cc50cdf0cef0cf50c2e0d3a0d540d890d9d0da70d290e2f0e350e410e580e760ed40edc0efb0e490f500f9e0f50105e10d310e010ff1039114f115a11e311ea11f111fe1114123c125a1261128112cf123d137213a913d013141429149414ac14eb143a1587159515c115ef1507162616491650166c168a169116cd16ee1607178417a217b417bb17f517021818184e1864186f18cd18fa1821195b1a621a691a871a8e1a9d1af51afc1a031b261b521b6e1b771baa1bb31bd31b1a1c251c2e1c4e1c7e1c9d1caf1cba1cec1c1b1d3a1d4c1d571d611d791dd41d051e141e211ec91fd31ff01f14201b206c2073208020b8200e210e2215221c223a2241225022a422ab2214232e23252440245e2481241625312550259d252c2736273c2762276c278c27b027b627f827fe270b283928f128fe2845297f29b029c529cf292d2a632a692aa42a4c2b552b752bb72bbd2be82b152c1e2c4e2c6c2cae2cb72c2c2d5e2da42d112e7f2ee32ee92eef2e0f2f412fa92fbd2fe92fef2f09300f3015301b304f3055303e31aa31b031d131fd312a3287328d32b132dd321733283332335433da33e03301342d344b3458345e3482349834aa34c834d934e33430356935a835ae35d235fe351c362d3637367336af36cd36da36e03604371a372c374a375b3765377337983735386a38d938fd38233983399739063a673a7c3a863a663bab3bbd3b343ccc3c4a3d763d7c3d963d9c3da23da83ddc3de23dcb3e1f3fa43f00407a40b040e1404941a941f2417e42e94233437e4393439d43bd43e14322442c4442447244a8440d452e4548456a457845a345f5454d469746e446124785476949fd49114a444a4d4a6a4acf4ae84a494b8c4b9a4b104c854c974ca74c2f4d584d844db24d1b4e214e2c4e374f714fba50005118513e51a8512e52a152bc52e25271538b53b653d35311541e5450549554aa54b454d154da54fa540055305536553f5558557c5586559c55ba55c755d0552c569e561d57a757bc57c65750585d581b598c59b259da59005a7f5ac45aa85bbb5bc55b345c5d5c705c7a5c8b5c0f5d5a5d635d835dcc5df75d275e2d5e335e9b5ea15ea75eee5efb5e3a5f435fe55feb5f44607b60af601f61606166616c618761ab61c661f261fc611c62256245626d628e629862cc620363216332633c6360636a638f6383648d64936499649f64a564ab64cd64d364f964ff6405650b6515651b6521652b65316537653d65506596653266566682668c66ac66b566d56612673f676d67a167c367d467de6702680c68316889689368b368bc68dc68fe6805692069296949697e69a069f2690b6a3b6a9d6aa76ac46acd6aed6a0b6b186b1e6b3e6b716b8f6b9c6ba26bab6bd16be66b346c426c916cb76cd56c1c6d266d486d6a6d9c6dc26d256e3a6e446e616e6a6e8a6e906eb26eb96ed96ef26e166f5a6f6f6f796fee6f047040704a7062706b708770a570b270b870d4700271207131713b714a716a71a171d571db71f87110725d729872d07283738d73937399739f73a573ab73cd73d373f973ff7305740b7415741b7421742b74317437743d7450749674f3743b7550755a75e87504763b767276da7606775b7765778b7749788f78a978c678e87879799379b179fd79df7b117c417c627c6c7c8a7cc97c1d7d4f7d6d7d7a7d807db37df37d117e227e2c7e587e9d7ecd7e057f237f417f487f637f837fb47fd27fdf7fe57f05803280508061806b807580ee80208146819781158268829582b7821d8359837b838c839683c4835284b68442856f858d859a85a085e38520863e8645867286a786e7860587168720872f87b6871c886a889688f688fc881e8939893f894f8955895e8979897f898c8992899b89b089208a288a2f8a478a6b8a338b6a8b848ba88bd38cea8c038d218da08db68dd08d138e8d8fac8ff18ff78f21904e90689075907b908690c690e590ff9048917a919491a191a791c891f5910f921c9222922d925a929592bc92db92f5925693b593df930294319438942c955695a595ec9536966b968596ae964c9779979897b797c59711989498d3989299b599129a199a319a559a6e9b989beb9b329c709cc89cf69c009daa876e978a2098aa20977b2098bb20c89b0bc9ba0a979b019abbaeab20ae873751094ec87909647a017c8b95880195ac0178ab64caab9cf42836510934c87909647a017c8b95880195ac0178ab64caab9cf4281c51091a839aff01c8a80b7cbb9599ffc8a70c78cb83aaff5209f032009511e87b10107b15087b163306680102390568010251051c3307a00103837783680a060139076801022003680102ac5710821010821508821695111832000039086801025108b0073307a0010383770a0e28a3079511f07b10087b156489647533082064975010026e057c78017c797c7a027c7b03978808d4980897aa1097bb18d4ba0ad4a8087c79057c7a047c7b067c7c07979908d4a90997bb1097cc18d4cb0bd4b909979920d489027c79097c7a087c7b0a7c7c0b979908d4a90997bb1097cc18d4cb0bd4b9097c7a0d7c7b0c7c7c0e7c780f97aa08d4ba0a97cc10978818d4c808d4a808978820d498037c78117c7a107c7b127c7c13978808d4a80897bb1097cc18d4cb0bd4b8087c7a157c7b147c7c167c791797aa08d4ba0a97cc10979918d4c909d4a909979920d4890a7c78197c79187c7b1a7c7c1b978808d4980897bb1097cc18d4cb0bd4b8087c791d7c7b1c7c7c1e7c771f979908d4b90997cc10977718d4c707d49707977720d487076f776fa86f396f2a7b5a187b59107b58087b57821008821595111032009511d87b10207b15187b161082897b19088289087b1982851082861833082050100426046f686f59821a6faa821b086fbb787b18787a10787908787898bc38787c1f98bc30787c1e98bc28787c1d98bc20787c1c98bc18787c1b98bc10787c1a98bb08787b1998ab38787b1798ab30787b1698ab28787b1598ab20787b1498ab18787b1398ab10787b1298aa08787a11989a38787a0f989a30787a0e989a28787a0d989a20787a0c989a18787a0b989a10787a0a98990878790998893878790798893078790698892878790598892078790498891878790398891078790298880878780182102082151882161095112832009511a07b10587b15507b16489515608411e06476828718828910828a0882886f776f996faa6f887b18187b1a107b19087b17491138491130491128491120481140208318831a20831b403309ff33070a07821738821830821928821a206f776f886f996faa7b6a187b69107b68087b6750120627a20032009511a07b10587b15509515608411e08272827a08827b108277188283828908828c108288186f746fbb6faa6f276f826fcc6f996f387b17187b1a107b1b087b147b18387b19307b1c287b12208318831a203309ff330b2033070a0f9551a08210588215509511603200951160ff7b1098007b1590007b1688009515a0008411e082ab7b1b3882ab087b1b3082ab107b1b2882aa187b1a20829a7b1a18829a087b1a10829a107b1a088299187b1964865010082c0282186f888219086f99821a106faa821b186fbb7b1b587b1a507b19487b18408218206f888219286f99821a306faa821b386fbb7b1b787b1a707b19687b18608379836a8317403308020a05955160ff8210980082159000821688009511a0003200951120ff7b10d8007b15d0007b16c8009515e0008411e082bc7b1c4082bc087b1c4882bc107b1c5082bb187b1b5850120a219e007b183850100c8f016f687b187882186f887b18708218086f887b18688218106f887b18608218186f887b1898008218206f887b1890008218286f887b1888008218306f887b1880008218406f887b18b8008218486f887b18b0008218506f887b18a8008218586f887b18a0008379811a388317603308030a05955120ff8210d8008215d0008216c8009511e00032009511e0fe7b1018017b1510017b160801951520018411e082c67b166082c6087b166882c6107b167082cc187b1c7882bc7b1c3882bc087b1c4082bc107b1c4882bb187b1b5050120e479d007b1858501010b5006f687b18980082186f887b1890008218086f887b1888008218106f887b1880008218186f887b18b8008218206f887b18b0008218286f887b18a8008218306f887b18a0008218386f887b18d8008218406f887b18d0008218486f887b18c8008218506f887b18c0008218606f887b18f8008218686f887b18f0008218706f887b18e8008218786f887b18e0008379811a58831780003308040a059551e0fe8210180182151001821608019511200132008b7910520931c8780883881f8488e05638000001253309700102390a700102ae8a093d087001020133088001028377c887073200009511f07b10087b158475010a03013d076c010251050750101209501014f001951100ff7b10f8007b15f0007b16e800951500018411e04921d8004921d0004921c8004921c0008317c0000a10018217d0008218d8008219c800821ac000d49808d4a707d487075207e10039066c010297672098772095771f8477e09578a000d878077b18a0007b17a80094777b17b0003307409518a0004921b800501016ebfa3307a000646850101825ff8377646833090a010154161fa000951780003308a00050101a8bf9821790008219980014080000000001000000d37808d49808987a2088aa01949a938a510a7982188000821a8800d4780bd49a0cd4cb0b510b727b18607b1a687b1770330780009518607b197850101c74fa95174033084050101e2ff9821758821850821948821640d49707d48609d47909989920d48707977720d49707510769003308800102838833070128b1003308800102838833070128a400330880010283883307012897004911104911084901140700000000c8f5bc1464187b17183307501020fff9390870010256181f0b20037001022001330880010283883307013309040a0d01646733085010221bfe8377330833090a019517203308800050102488f8821738821930821a28821b203e07b801033e09b001033e0aa801033e0ba00103284ef864673308501026dbfd8378330733093300280a0d280a33093300280a0d01951110fe7b10e8017b15e0017b16d8019515f0019511f0d18411e0641695691821492900064929f8054929e8058000330740956800274929f00550102a42f933076c01027b67980139076c0102551704072883639567002083772007330833002c0a020195691821819724065247871cb2880a28d61151476cd3238f09055247346662990a2833215247e1ac83b60a28d11451472d16dfba02015247b00de3d00a28d01d51475f53cc0e9708524786e72a220a28491951474d7d1a2eeb015147f5079637620c5247b836cc480a288b0f5147aef7914a0a285725956718294927200249271802492710024927080295670030837720fb33002e0a1033023028ec9800501230e8980082b71882b82082b91082ba08d49808d4a707d4870751070628ed4e8267980181775617030728f14e956780103308405010320bf7956aff0795aa190195ac000782cb800082c87882c97082c768d49b0bd48709d4b909989920d4b808978820d49808510806289f4e3a08a00002492a6007492a58077ba8480795686010492a50077b6798013300300128ebf7956718294927400649273806492730064927280695670030837740ff3300340a103307003033023628a59b00330700305012369d9b00501238339900510706285c4e8267980181775617030728604e95671829492760064927580649275006492748069567a0259568602f50103a6ff895681821958900048297a000956800017b879800829798007b879000829790007b878800829788007b8780009567802533084050103c0bf6956a182195ac000482c7800082c87882c97082cb68d49707d48b09d47909989920d48707977720d4970751070628a34d956900018297800095ac00047bc748829788007bc750829790007bc75895686025829798007bc76064b77b9b98003300300128def64929400749293807492930074929280795670030837740f833003e0a1001956a182195ab000750124036980051070628814d501242b69900ac780628864d95670030837760f83308043300440a020195671821957c000782c86082c95882ca5082cb4850124677960052070628664d33078001037b67800183777b6768013300480a0433024a28bb920050124ab79200492658057b6850057b674805956840057b6a4005330750104c35f649263805492630054926200501330720956820054926280550104e18f6501250c499003309700102390770010256173f0b200370010240017b6940019517e08479e07b69600164913307800102837783993308407b6748013300520a08826a600133025428da9200826a6001501254d2920095670005501056acf6826318058264100582620805826a000582679801d3730bd8730c82687801d884077b675801dab70c82679001d37200d87207826988017b6a6001d89a097b695001da09076480d38408d4b808da870c510c06289f4cc9040882699801c99309826a5801c9a909d8780ac9a909c9780882679001c97207501258d295007bca687bc7707bc8787bc98000956880288267700150105a8ef68267680133005c0a0433025e2882930050125e7e93007b69d80482b9787b69d00482b990007b69c80482b988007b69c0044926f8047b68f0047b67e8049567e0049568c0047b6ae0045010602d8d009567a0043308405010628ff3956b000482b7b80082b8b00082b9a80082baa000501264b8930051070628374b826788017b678004826790017b678804826778017b67900495688004826798017b67980464a77b6a98015010667af4826768013300680a048269800133026a282690008269800150126a1e9000d4780298aa206f99979820d4a808989920492658043a0af800023a0b0001023a0c0801023a071001027b6a7804956a00047bab707bac687ba7607ba9507ba84833082095696004956a40047b624004826798013300ec0028d3f5956718294927800249277802492770024927680295670030837780fb33006c0a1033026e2847940050126e4394005012704a940051070628294b501272d09600ac7806282e4b956700308377a0fb3308043300740a020195671829957c000282c8a00082c9980082ca900082cb88005012768d9300520706280a4b33078001037b67700183777b6740010a048269700182970881981082996f77977a206f88988820d48a0a9877206f98978920d497079888209569181149298002959b00027bb8787bb770956880137bba6833075010782ff333027a9568181101492860024928580249284802016489330720956860134929500250107c08f39517e08477e07b67800164713309700102390770010256173f0b200370010240017b6938019517e08479e07b69680164913307800102837783993308407b67480133007e0a083302800028559500502280005195006f8c6f996fa2826b80017bb2187bb9107bbc087bb7951be084b8e06481957b02d87b07c87c0ad8ca0cda770cc89c0cd89c07c827077b8c107b8a087b8b7b8718956740137b6868015020820058f395671811827340028274380282723002827a280282679801d3730bd8730c82687801d884077b675801dab70c82679001d37200d87207826988017b6a6001d89a097b695001da09076480d38408d4b808da870c510c0628dd49c9040882699801c99309826a5801c9a909d8780ac9a909c9780882679001c97207826a5001c9a707826a6001826b8801c9ba0a956b182995bc00027bcaa8007bc7b0007bc8b8007bc9c0009568c02b82676801502084001ef395672013826880015020860098f295691811959b000282b71082b8088292200282ba18826b9001c87b0b826c8801c88c0cd88c08c88b0bd37b09d87b07da980782687801c8a80882699801c89202d8a809c82909c88707d88708c8980895691829959a00027bacc8007babd0007ba7d8007ba8e0009568e02b82678001502088009bf29567001333084050208a00eaef956b181182b7000295bc000182c8f80082c9f00082cae80050228c000e9000510706288c478267880195b900017b97c800826790017b97d000826778017b97d8009568e012826798017b97e00064a77b6a980150208e00cbf082674001330090000a04826970013302920028748c0082697001502292006c8c00d4780298aa206f99979820d4a8089899203a0a800002956718117b7ac0013a0a8800023a0b9000023a0c9800027b7ab801957a00017babb0004927a0017baca8007ba998007ba890003308209569c012956aa0127b728801826798013300ec002817f2492980064929780649297006492968069567002083778007330094000a10330296002835940050229600319400502298008f900051070628214850229a00149300ac78062825489567a00333009c0033028805280693008267a0038268a8038069b003492698037b6990037b688803956880037b678003330750209e00c8ef4926780349267003492660030133072095686003492668035020a000aaef5022a200639300390870010256183f143308403d087001023302a40028e190005022a400dd90003307800102837783993308400a08826a980182a71882a81082a90882aa6f7c7b6c88016f8b7b6b90016f997b6980016fa77b679801826878017b87187b89107b8b087b8c956740035020a60027f0826758037b677801826750037b677001826748037b676801826740037b6760018267880195770188780182699001c8980895691821959a00067ba89000d478087ba7880088870182688001c887077ba79800d8870782689801c887077ba7a000956720039568a0275020a800b9ef826738037b675801826730037b675001826728037b674801826720037b67400182688801958702d88708826a90015022aa00c88f0082688001c88a0ad88a08826b9801c8b808956b182195bc00067bc8c0007bcab8007bc9b0007bc7a800956700039568c0275020ac004def956c000382c7187b67380182c7107b67300182688801958703d88708826a90015022ae006a8f0082c8087b68880182688001c88a0ad88a08826b9801c8b80882cb7b6b8001956b182195bc00067bc8e0007bcad8007bc9d0007bc7c8009567e0029568e0275020b000e2ee8267e0027b6728019567c0023308405020b200a1ec95670002827bd800827cd000827ac8008279c000d4ba07d4c908d47808988820d4c707977720d48707510706283944826760017b67a002826768017b67a802826770017b67b0029568a002826778017b67b80264977b6998017b6a90017b6b78017b6c70015020b40070ed956c000182c8980082c77882ca70d47a0a5022b600d48f0052070628df4383872082684001956c00027bc88000826848017bc88800826850017bc8900095688002826958017bc998007b6a78017b6b70015020b80019ed95690001829b78829a9000829898008297709577c0d8780794a794b752070628844383874082688001956a00027ba860826888017ba868826830017ba87095686002826938017ba9785020ba00caec956a000182a998001407a0ffffff00000000d8790782a89000948782a87894875207062831438267280197772098782083976049265802492650027b68400295684002492648025020bc007dec33088000826798015020be00b4f083783309800033070a0d286f494929a007492998074929900749298807956700308377a0f83300c0000a1001956a182195ab000782b7980082b8a00082b9900082ba8800d49808d4a707d487075107062852445022c200238f00ac7806285644956700308377c0f83308043300c4000a020195671821957c000782c8c00082c9b80082cab00082cba8005022c600de8b0052070628304433078001037b67800183777b6768013300c8000a043302ca00281f88005022ca001b88004926b8067b68b0067b67a8069568a0067b6aa00633075020cc0098eb4926980649269006492680060133072095688006492688065020ce007aeb5022d000258f003309700102390770010256173f0b200370010240017b6940019517e08479e07b69600164913307800102837783993308407b6748013300d2000a0801826a600182a782a80882a91082aa186f776f886f996faa95ab025022d400df8800826870017b8b7b8c087b89107b8718956760065020d600efeb826378068264700682626806826a600682679801d3730bd8730c82687801d884077b675801dab70c82679001d37200d87207826988017b6a6001d89a097b695001da09076480d38408d4b808da870c510c06284543c9040882699801c99309826a5801c9a909d8780ac9a909c9780882679001c972075022d800148b007bcac8007bc7d0007bc8d8007bc9e0009568e028826770015020da00cceb826768013300dc000a043302de0028bd88005022de00b988007b69380682b9787b69300682b990007b69280682b988007b692006492658067b6850067b67480695674006956820067b6a40065020e000678200956700063308405020e200c8e8956b000682b71882b81082b90882ba5022e400f58800510706287340826788017b67e005826790017b67e805826778017b67f0059568e005826798017b67f80564a77b6a98015020e600b6e9826768013300e8000a04826980013302ea00285f8500826980015022ea00578500d4780298aa206f99979820d4a8089899204926b8053a0ad800023a0be000023a0ce800023a07f000027b6ad805956a00057babd0007bacc8007ba7c0007ba9b0007ba8a8003308209569c005956aa0057b62a005826798015020ec000aeb33078268480133090a0d289953956718294927800049177849177049176895670030837780f93300ee000a1001956a182982a77882a8800082a97082aa68d49808d4a707d4870751070628cc415022f000f18b00ac780628d041956700308377a0f93308040a0201956a182982a7a00082a8980082a99000d48707889801947852080628b54182a788007b672001956700308377c0f90a0901956718298274c000827ab8007b6a50018272b0008270a800684768a8958940db470968276808958840db270895878000d44a0adaa709d8870c94ac8ecb8897f000857a01daca0b88b7019577ff9ab89accc9ac0a9a93ef007b6898018e8c8e78da7c08883c000185cc018ea9dba90cdbb80c7b6440017b625801d4420882645001d44009d49808888801d4c808640b948b5108062887178538ff00826c9801d4c808d47a09d4980852080628701764029539017b699001889801c8a8087b688001d49808888801c8c8087b687001d8c808c887077b6778019a38ff007b6868019a89800064077b624801826858015020f200668c005022f400d38b005020f6007e8c007b6730017b6828018267680195798082674801826858015020f800608c005022fa00fb8b0082674801826858015020fc004a8c00826b380182627001826c780182698001d49c0c826a9001d42a0ad4ca0a93b77b678801510a0628f414330b28ae16956718294927600249275802492750024927480295670030837760fb3300fe000a1033020001287b870050220001778700502202016f8b005107062810408267980181775617630728144095674012330004013302880528f4890095681811828728017b679801828730017b679001808738017b677801956720123300060133028c0528f68a0095671811827708017b67800195670012330008013302920528da8a0033020a0195691811018297e800956a00017ba788004929e00082a7787b97d80082a790007b97d0009568e01182a798007b97c800330750200c015ae633020e0195681811014928c0004928b8004928a8000464893307209568c0114929b0005020100131e63308700102390770010256173f0b200370010240019517e08479e07b69780164913307800102837783997b6898013308407b679001330012010a08826a78013302140128b48400826a780150221401ac84003302160195691811014929a00049299800492990009568a011826780017b978800330750201801b6e582676001956818117b878000826768017b8778826770017b8770648a33072095688011826978017ba96850201a0186e582689801818756173f08480840019517e08477e07b67800150221c01c4800033001e010a08826a800133022001281f8400826a8001502220011784009517e08477e07b67800164718267880197772098772095691811491960491958491950956860117b974833075020220118e582676001956818117b8740826768017b8738826770017b8730648a33072095684011826978017ba92850202401e9e482689801818755174008480840019517e08477e07b67980150222601278000330028010a08826a980133022a0128698400826a980150222a016184009567201150202c0195e5956718118277087b6798019567001133084050202e0151e395671811827a957b00ff82b8f80082b9f00082b7e800d49a0ad48709d4a909989920d4a808978820d4980851080628e73a7c6a98019569ff07959919014929e0074929d8077b9ac8079568e0104929d0077b6798015020300130e433082082679801330072032864e8956718294927600449275804492750044927480495670030837760fd330032010a1001956a182995ab0004502234015e880051070628213d50223601f18600ac780628253d95670030837780fd3308040a0201956a182995a7000482788000827978827b70d4890c88b70194c752070628083d7b6c980082ac680482679801807295c723d8c70ac8ab037b6bd800d8b30bdaaa0bc89b0b7b698801d89b097b689001c88909d4b909d827079437949752070628d73c83c804956700308377a0fd7b6cd0000a0201956918298297a00482929804829090047b67f000d47207880801947852080628b43c829388048268d000958724d887098264d800c8940ac837087b6880017b672001d8780bc80a07c8b707d3a70cd8a708dacb08d84a0ada990a82698801c89a0ad89a09826cf000826b9001c8cb0bc8b909c82a0bd8ab0ac8a909826a980180aac8b808d8b80bc8b909826b8001d8ba0a887b0185aa01db7b0a889701888b01db970bd49808db8b0a520a0628383c9537fd7b63c000d83708c880099599ffd3090a7b60b000d8090bdaa80b9528ffc88b0bd88b087b62b800882a01c9ac0ac8a8088eba8e8cda8a0cd4b8088e9a887762857701db9a07db8c0751070628fc3d33078001037b67e80083777b67c800330038010a048269e80033023a01285e7e8269e80050223a01577e49292004959b00047bb8187bb710956820257bba08330750203c0114e295681821492800044928f8034928e803036489330720956800254929f00350203e01f0e1502240010884003309700102390770010256173f0b200370010240017b69a8001407ffffffff000000007b67e0009517e08479e07b69900164913307800102837783993308407b67a000330042010a083302440128368000502244013280008377e004c867075020460176e2956718218077c8038268e000ab8706280f3b9578017b6800018887017b67f800d487078877017b6708019567c02482689801502048013ee2956a182180a7ac0395ab000382b8b80097772082b9b00082bac000826b0801d4b808826b0001d4b707826bf800d4b909956b182995bc00047bcac0007bc9b0007bc7a8007bc8b8009568c02d8267980150204a0160e2956700308377e0fd0a0901956718298274e004827ad8047b6a50018273d0048270c804684768a8958940db470968376808958840db370895878000d44a0adaa709d8870c94ac8ecb8897f000857a01daca0b88b7019577ff9ab89accc9ac0a9a92ef007b6898018e8c8e78da7c08882c000185cc018ea9dba90cdbb80c7b644001d44308643482635001d43009d49808888801d4c8087b605801640b948b510806285f1d8528ff00826c9801d4c808d47a09d4980852080628481d9529017b699001889801c8a8087b688001d49808888801c8c8087b687001d8c808c887077b6778019a28ff007b6868019a8980008267580164487b64480150204c01b3840050224e0120840050205001cb84007b6730017b68280182676801957980826758018268480150205201ad840050225401488400826758018268480150205601978400826b380182627001826c780182698001d49c0c826a9001d42a0ad4ca0a93b77b678801510a0628ce1a330b28881c492900074929f8064929f0064929e80695670030837700f8330058010a1033025a012874830050225a0170830082b7f80082a8000782b9f00082bae800d49808d4a707d487075107062810398267980181775617030728143995670030837720f80a099567182195790007829820956a00017ba8588298187ba8508298107ba898008297087ba790009567e00333084050205c01b6dd956b000382b7f80082b8f00082b9e80082bae00050225e01de7d510706285d357b6a1801826350016837957740826058016809da0709826490016847957740826298016828da270895878000d4030adaa709d8870c94ac8ecb8897f000857a01daca0b88b7019577ff9ab89accc9ac0a9a99ef007b6878018e8c8e78da7c088eac7b69680188990001859901dbac09dbb809d43408d4020bd4b808888801d49808644b948b51080628143b826868018588ff0082697801d49808d47a09d4980852080628f93a826b680195b9017b698801889801c8a8087b688001d49808888801826a7801c8a8087b687001d8a808c887077b6778019ab8ff007b6840019a8980008267900182689801502060019c82007b6730017b68480182675001826858018269400150206201a782007b6728017b682001826740019579808267900182689801502064018982007b6710017b68080182694001889780007b673801826790018268980150206601668200956b00017bb86082b8800082b978d4890982b8880082ba70d4a808d4980882ba3893a77bb76852080628123a64a98267480182682001d4870764ac82680801da980782695801649a649882694001db970a7b6a480182673001826a2801d4a707826a1001daca07826b500164badb970a7b6a40018267600193c77b676001492630018051018267880195798064b750206801ab81007b6738017b68200182679001826898018269880150206a019081007b6710017b682801826888019a898000826750018268580150206c0197810082692801d4980882698801889a80007b6a2801826b2001daab08826b9801db980b7b6b980182681001d4870782683801daa80782689001db97087b689001826750018268580150206e0124810082649001826398014926580149265001956b000182b928939893977bb73882ba3095a9ff7bb9288ea99599ff7bb9200198493f973a01d4a909974a0182644801984b3fd4ba0a7b6a9801826020016437d39003d89002826b2801d8ab0cdb320c978801826b380198ba3fd4a8087b689001987a3f97b701d47a0a974701826b400198b83fd4870297b801826b600198b33fd4380397b801826b680198b43fd4480897bb0182675801d47b0b7b6b680182675001d478087b686001d437087b684001d427077b674801c9a007d8c707d8a008826c9001c9c00bc98b0bc97b0b99b03f82673001d2700782689801c97804d87808c989039498c98a077b673801d88a08c98c0895670001827a8800827c8000d4ca09889901827b70d89b02c99b0988ab01c9bc0c827b78c92b0b95aaff7b7c80007b7b78d4bc027b7a8800d49a0bd42b0a840b017b7b587b797049265001520ae1fe28d1378267980181775617030728fc34956718294927800649277806492770064927680695670030837780330070010a10330700303302720128ba7e3307003050227201b37e50227401437b52070628cb3433078001037b67800183777b675801330076010a04826980013302780128c5768269800150227801be764929e005959b00057bb8d8007bb7d0009568e0267bbac800330750207a0178da956818214928c0054928b8054928a8050164893307209568c0264929b00550207c0154da50227e016c7c3309700102390770010256173f0b200370010240017b6950019517e08479e07b69900164913307800102837783993308407b676001330080010a083302820128a97850228201a6788377a006c8670750208401ebda95671821957900058298a0007b687001829898007b689001829888007b686801829790007b678801502286018a7d956718294927a006492798064927900649278806956700308377a00a100195671829957a000682a9900082a888008272a00682ab9800826c8801c89c0c82676801c87803d88308c88c0cd39c0ad89c09daa80982689001c8b80882607001c80202d8b80ac82a0ac88909d88908c88a04826a8801d3ca08d8ac0bd87307db8b07826a9001d8a902d3400bd80408dab208d39a0ad4ba0adba807826878017b837b8c087b89107b8418510706286f3382679801502088017dda9567802633084050208a01ccd79567182195790005829880007b6890018298787b6888018298707b6878018297687b679801956718294927c0064927b8064927b0064927a806956700308377c033008c010a1001956a000182a7900082a878d4870782a89800648c82a98800d49808d47808988820d49707977720d48707510706281c2f3307003050228e016a7c82b7a80082b8b00082b9b80082bac000956b18217bba600595ba00057ba9587ba850956860267ba74864c75020900154d882675801330092010a04826980013302940128fd738269800150229401f673d4780298aa206f99979820d4a8089899203a0a000002956718217b7a40053a0a0800023a0b1000023a0c1800027b7a3805957a00057bab30492720057bac287ba9187ba81033082095694026956a20267b7208058267980150209601aad933078268600133090a0d28394295671829492700034927f8024927f0024927e80295670030837700fc330098010a1033029a01280c7850229a01097882b7f80082a8000382b9f00082bae800d49808d4a707d48707510706282532826798018177561743072829329567e01633009c013302880528757a95671811957900058298d8007b6868018298d0007b6898018297c8007b67900195670030837720fc3308240a020195671829957c000382cb2082ca1882c91082c808956c00017bc980007bcb70d4b9077bc88800d4a808d478089888207bca78d4a707977720d4870751070628bc31956a000182a768977720987720956918114929c00582a89000959b00057bb8a80082a898007bb8b0009568c0167bb7b800330750209e01b8d63302a00195681811014928a00549289805492888050264893307209568a016492990055020a2018fd63308700102390770010256173f0b200370010240019517e08479e07b6968016491330780010283777b68980183993308407b6790013300a4010a083302a60128e6785022a601e3787b6760016f877b6758016f977b6750016fa77b6748019517e08477e07b67680164713302a801956918110182677001959a00057ba78000826778017ba778826780017ba77095688016826788017ba76833075020aa01efd53302ac01956818110182674801958900057b9760826750017b9758826758017b9750648a33072095686016826960017ba948055020ae01b6d582689801818756173f08480840019517e08477e07b6788015022b001f4700a08826a880182a71882a81082a90882aa6f7c7b6cd8006f8b7b6be0006f997b69f0006fa77b67e800826868017b87187b89107b8b087b8c956740165020b20148d63302b4019568181101958900058297387b67c8008297307b67c0008297287b67d0009517e0847be07b6b880164b18268d8009588018887018269e000c87909d49807887701826cf000c87c0ad8ca07826ce800c8c7077b6780017bb7187b6a68017bba107b6970017bb9087b6878017bb8956720163308405020b6019ed395671811957900058298207b6810018298187b68f8008298107b6800018298087b68080195670016826888015020b80198d5956a181182a7000595ac000482c8f80082c9f00082cbe8007b6760017bc7c0007b6830017bc8b8007b6928017bc9b0009567e0159568c0157b6b88017bcba8005020ba01125c826af800956b000182b81082b70882b9d48909d4a708d49808988820d4a909979920d4980851080628c22a956c181182c2e00482c3d80495ca000482a8d00082a9c8007b6940017ba988007b6850017ba890007b6348017bc398049568a0157b6258017bc2a0045020bc01f3d3826bf80082680801958720826c880184c901826a1001d4ba0a7b6738015209e10c1409e0ffffff00000000d8980982680001948994a952090628442a7b6ab80084c900ff956a18118268280195ab00047bb8107bb908826830017bb81895682015826960017bb9205020be0185d3956c18113304330349269001956a000182a74882a840d4870782a85882a950d49808d487078e779777057ba7980028f21a5147b327d0610a28402f956718294927400249273802492730024927280295670030837740fb3300c0010a103302c201288c735022c20189735022c401967451070628562f82679801817756170307285a2f9567c0103308405020c601bbd19567ff0795771901957900078298c0007b6898018298b8007b6890018298b0007b6880018297a8007b6788015020c80135d1956b000182b7980082b88000d4870782b88800648a82b99000d49808d47808988820d49707977720d48707510706281f293a09a001033a08a801033807b00103956bff0795bb1901492ba00795bc00077bc798007bc890009568a0107bc9880064a75020ca015bd23308208267880133007203288fd65022cc01737482626801db270a7b6a98018267600182693001d4970782691801dab907826c500164cadb270a5022ce0138725020d001d1767b6730017b6818018267480182685801826990015020d201b7765022d40110735020d601d1765022d801817382695801dba8097b69580182681001d4870782683001dab80782684801dba70864a97b68480182675001826840015020da0171765022dc01ce708263580182644801017b6b580198493f973a01d49a02974a01826b980198bb3fd4ba0a7b6a48018269280164847b625001d329086430d82903826b3001d8ab02db8302974801987a3fd4a8087b684001980a3f977701d47a0a82679801977701826b600198b83fd4870097b801826b680198b33fd4380397b801826b880198b43fd4480897bb0182675801d47b0b7b6b8801d4c8087b686801d43c087b686001d40c077b679801c9a907d82707d8a90882624001c9290bc98b0bc97b0b99bc3f82673801d2c70782684801c97804d8780882675001c987039478c98a07d88a08c982085022de01c874d89b02c99b0988ab01c9b000826b7801c92b0b95aaff7b6080017b6b7801d4b0027b6a9001d49a0bd42b0a84cb017b697001330c520aecfe82678801977701d47b0b0184b7ff82682001aa780628522b33078001037b67500183777b6748013300e0010a043302e20128826b5022e2017f6b49292004959b00047bb8187bb7109568ff07958821057bba0833075020e40133d09568ff0795881901492800044928f8034928e8030164893307209568ff07958801054929f0035020e60107d09517e08477e07b67280164713308700102390770010256173f112003700102403302e8012836715022e80133713307800102837783997b6888013308407b6790010a08826a980182a71882a81082a90882aa6f7c6f8b6f986fa9826728017b6980017b79187b6898017b78107b6b78017b7b087b6c70017b7c826748013300ea010a043302ec0128a56a5022ec01a26a4929e003959b00037bb8d8007bb7d0009568ff079588e1047bbac80033075020ee0153cf9568ff07958819014928c0034928b8034928a8030364893307209568ff079588c1044929b0035020f00127cf82688801818756173f0848084001140800000000ffffffff7b6830011407ffffffff000000007b6740019517e08477e07b6768015022f201496a3300f4010a08826a68013302f60128596c826a68015022f601526c7bbae0007bb9d8007bb8d0007bb7c8009567ff079577a1049568e0295020f801a2cf4926100149261801330b9567ff079577190180778803956a00017ba73882a87095880188870182a978c897077ba8087ba7d4870788770182a89800c887077b67f800d8870782a88000c887077b67f000330a0101330893b882673801d8a7073309dab7093307db78095209c905492678017b6a9801826748013300fa010a043302fc012852695022fc014f6949298003959b00037bb8787bb7709568ff07958881047bba6833075020fe0103ce9567ff0795771901492760034927580349275003647a3307209568ff0795886104492a48030250200002d7cd82688801818756173f08480840019517e08477e07b678001502202021569330004020a083302060228766a50220602736a959a00037ba7407ba7387ba7309568ff0795884104826798017ba72833075020080282cd826758019568ff07958819019589000350220a02b26f95882104826970017ba9080350200c025acd82688801818756173f08480840019517e08477e07b67700150220e029868330010020a08826a70013302120228936a826a7001502212028c6a826b80017bba187bb9107bb8087bb7957b02d87b07c8780cd88c08da7708c89808d89807c8a707956918297b9be8007b9cf0007b98f8007b9700019567ff07957701049568002a50201402c6cd9567ff07957719018277f0028477ff005107178268400101330b82679801957701d2870a2854fe9567ff079577e10382688001502016028dcd9569ff0795991901959a000282a7d00082a8d80082a9c8008477ff8488ff826b3001d2b909d49808d487075107af82674801330018020a0433021a0228846750221a0281674929c002959b00027bb8b8007bb7b0009568ff079588c1037bbaa800330750201c0232cc9567ff07957719014927a0024927980249279002647a3307209568ff079588a103492a88020450201e0206cc82688801818756173f08480840019517e08477e07b678001502220024467330022020a08826a800133022402281c6f826a800150222402156f7b6770016f977b6768016fa77b6760019569ff07959919014929800249297802492970029568ff0795888103826720017b97680233075020260291cb826760019568ff0795881901958900027b9760826768017b9758826770017b9750648a3307209568ff0795886103826980017ba948025020280255cb82688801818756173f08480840019517e08477e07b67800150222a02936633002c020a0833022e0228f46750222e02f167959a00027ba7407ba7387ba7309568ff0795884103826798017ba72833075020300200cb826758019568ff07958819019589000250223202306d95882103826970017ba9080250203402d8ca82688801818756173f08480840019517e08477e07b677801502236021666330038020a08826a780133023a0228596a826a780150223a02526a9567ff079577010350203c0283cb9567ff07957719018277e8018477015207c1fd9567ff079577e1028268280150203e025ecb956aff0795aa190195ab000182b7e00082b8d80082b9d00082a2c8013a0ba800028e7c8e8adb7c0ad82b0b8e9cda9b0cd4780bdbba0c520c1995690001829710957701829840d287077b97102864fd3a0ab00002c82a0ad82a0bc8b90c95ccffd39c02d89c09da2b09958bffc8b909d8b90b888801c98707c8b70795681829958b00017bba087bbc107bb9187bb7209568202a826728015020400239cb9517e08478e07b68780164818267f0007b87188267f8007b8710826700017b8708826708017b879567ff079577c102502042028cca9567ff07957719018277a8013a08a000029569ff07959919018299c001956aff0795aa190182aab001956bff0795bb190182bbb801c87808d87807c87a0cd8ac0ada770ac8ba0ad8ba07c8970795691829959b00017bb8287bbc307bba387bb7409568402a826778015020440295ca8267180195770182684001d287077b6718019567ff079577a1028268800150204602f9c99567ff0795771901827788018477fe007b6778019567ff07957781028268800150204802d3c99567ff0795771901827768019568ff0795881901828870019569ff079599190182997801956aff0795aa190182aa8001847700ff826b7801d4b707957701956b182995bc00017bca607bc9587bc8507bc7489568602a8267800150204a02ebc928c0fb9567ff079577610233084050204c0233c79569ff07959919018292600195970001827c58827b50827a48d42b07d4ca08d47808988820d4c707977720d4870751070628c61e8267180182684001d287074929400149293801492930019568ff07958841027b97280164a77b6a98017b6b88017b6278017b6c800150204e02fec7956b000182b9980082b7800082b878d487071408e0ffffff00000000d8890882ba880094a89478520806285e1e8267100182684001d27808839720956aff0795aa1901492a2001492a18017ba808019568ff0795882102492a1001502050029dc782674801330052020a04826950013302540228466382695001502254023f63d4780298aa206f99979820d4a8039899203a0ab800023a0bc000023a0cc80002826720019568ff07958819017b87a8007b8a00017b8bf8007b8cf0003a0ad000024928c0004928b8004928b0007b8ae8007b89d8007b83d0007b82c80064873308409569ff0795990102956aff0795aae101956bff0795bbc1014927e00082679801330070042871c97b6ab800d8870782680001c878097b692801d88908da7708c8b8087b682001d8b8077b6788019567181182687801957a00047ba868826870017ba870826868017ba87895688015826980017ba980003307502056029ec69517e08477e07b673001647182699801819756171f08480920018267100182688801c887077b6718019517e08477e07b6788016471837933082082679001330058020a080149269801330433034926900150225a027a696f9c6fa982683001649a7b89187b6c60017b8c1064b07b8b0864797b8701956b00017bba687b6070017bb97882b74082b99800d8790782b950d3940ad89409daa70982b748d8730282ba5882bc9000d3ac0bd8ac0adab20ad37307d4b707da790a510a7c0d956760157b6388017b64800150205c02c2c682609801826480018263880182683801c80807d88708826b2801c84b09c88909d3b90ad8b90bdaa80b826a2001c83a08d8a802826c1801826a9001c8ac0cc82c0ac88b0bd88b08c8a808d49808d4b709d48909d4b808989920978820d4980851080628f81b956c181182c9600482c8580482ca500482cb48047bcb280495cb00047bba307bb838956840157bb9407b60980150205e0238c5826c780195cc0188c701826a7001c87a0ad4ac0788770182686001c87804d8840882676801c8870782689801958320d8830982688001c89802d8820bda990b82688801c88b0bd88b0982689001c898087b68900164a0826830017b8a0864c97b8c7b8410647a7b87187b6460017b639801642464b3289afe50226002e66682626801db270a7b6a98018267600182693001d4970782691801dab907826c500164cadb270a50226202ab645020640244697b6730017b681801826758018268480182699001502066022a6950226802836550206a02446950226c02f46582694801dba8097b69480182681001d4870782683001dab80782685801dba70864a97b685801826750018268400150206e02e4685022700241638263480182645801017b6b580198493f973a01d49a02974a01826b980198bb3fd4ba0a7b6a48018269280164847b625001d329086430d82903826b3001d8ab02db8302974801987a3fd4a8087b684001980a3f977701d47a0a82679801977701826b600198b83fd4870097b801826b680198b33fd4380397b801826b880198b43fd4480897bb0182675801d47b0b7b6b8801d4c8087b686801d43c087b686001d40c077b679801c9a907d82707d8a90882624001c9290bc98b0bc97b0b99bc3f82673801d2c70782684801c97804d8780882675001c987039478c98a07d88a08c98208502272023b67d89b02c99b0988ab01c9b000826b7801c92b0b95aaff7b6080017b6b7801d4b0027b6a9001d49a0bd42b0a84cb017b697001330c520aecfe82678801977701d47b0b017b6b70019567a02433084050207402abc1956218218223a00395270003827c9800827a9000827b88008e378ec8db37088ea788b960ff859901dba709d43c077b677801db780951090628d71d95b7a000d8b708c88a097b6a9801826a9801d8a90ada880ac8ca0ad8ca087b6b9001c8830b7b2768037b2970037b2a7803330740956880247b2b80037b6c80017b6388015020760260c2956c000182c9900082ca8000d4a90782c8980082cb8800d4b808d48707987720d4a808978820d4870751070628be18956a1821492a60038267000195ab00037bb7488267f8007bb75095686024826708017bb75864975020780204c28267c8000a040195690001829b90001407e0ffffff00000000d87b0782989800948782987894875207062864188269e80082970881981082996f77977a206f88988820d48a0a9877206f98978920d4790998882083b720956b1821492b400395bc00037bc8387bc930956840247bca287b67380150207a028ac18267f000956a18217ba700038267b80095ab00027bb7f8008267b0007bb7f00095672024956800248269c0007bb9e80050207c020b5995671821957900038298087b6858018298107b6850018298187b6848018298207b6840019567e02333084050207e02e9bf95671821827ae0027b6a88018278d8027b688001827cd0027b6c6801827bc8027b6b6001826940017b79a002826948017b799802826950017b799002826958017b798802957900027b9ac0007b98b8007b9cb00064799567c0239568a0237b9ba8025020800228499569000182986882978800d48707829860648c829b8000d4b808d47808988820d4b707977720d48707510706281917956718218268c000957900027b98688268b0007b98708268b8007b987895688023826bf0007b9b800064c7502082025bc082678801826a8001d4a707140be0ffffff00000000826c6001d8bc08826968019498947852080628be16816720017b6788008268c00083877b67900083c7207b6b58015020840257c4837782689000826988000a0101826b68018262c00082676001c87202d872088269b000c8b909c88909d3b90ad8b90bdaa80b8268b80082678001c87808d8780a826c88018267f000c87c0cc8ca0ac88b0bd88b08c8a808d4b80882675801d8720a949a948a520a062834168327209569182149296002492958024929500295686023492948025020860286bf140a00000000010000001407c0ffffff00000000956b000182b89000d8780782b99800949782b978949752070628e315838740956818217b6a5801648a8268600195ab00027bb828826868017bb830826880017bb83895684023826988017bb9407b678801502088021bbf956b000182b97882ba980082b8900082b7589577a0d8780794a79497520706288615838760956b1821492b2002492b1802492b100295682023826970017bb908027b677850208a02d1be956a000182a89000140780ffffff00000000d8780782a99800949782a97894975207062838158387800095691821492900024929f8014929f001956800234929e8017b672850208c0286be8267c80033008e020a048269e8003302900228945a8269e800502290028d5a4929e001959b00017bb8d8007bb7d0009568e0227bbac80033075020920247be956818214928c0014928b8014928a8010264893307209568c0224929b0015020940223be8268a800818756173f0848084001140700000000ffffffff7b67709517e08477e07b679801647183793308408267a000330096020a08826a980133029802282761826a98015022980220617b6778016f977b6770016fa77b67680150229a02e05f956918214929a00182670801959a00017ba798008267f8007ba790009568a022826700017ba78800330750209c0292bd956b000182b76895681821958900017b97800082b7707b977882b7787b9770648a3307209568802282b980007ba9680150209e025cbd8268a800818756173f08480840019517e08477e07b678001647183793308408267a0000a08826a800182a71882a81082a90882aa6f7c7b6c506f8b7b6b586f987b68686fa77b6760826998017b97187b98107b9b087b9c95676022826890015020a002bdbb95671821827748018268e000d287077b67900195674022826898015020a202c8bd956a182195ab000182b73082b83882b94082ba285022a402705e7bb9000595b900047b98f8007b97f0007b9ae8009568002e826798015020a60204be95672022826838015020a80252bb95671821957900018298187b6890018298107b6880018298087b68780195670022826898015020aa0253bd95681821828700018088e800826c780198c920826b800197ba20d4a90998ba20826b900197bb20d4ba0a97cb20d4b808956b182995bc00057bca187bc9107bc7207bc8089568202e826798015020ac0279bd9517e08478e06481826950959901889701826a58c87a0ad4a907887701826c68c87c0bd8cb07826c60c8c7077b6748017b87187b6b38017b8b107b6a40017b8a087b68407b6950017b899567e021826888015020ae027dba95671821827ae000827bd8008279d0008278c800956c00017bc9307bca28d4a907d4b809d479099899207bcb20d4b707977720d497075107062808129567c0217b6818015020b00233ba95691821829bc000829ab8008298b0008eb78eacdbb70c7b68488e877b6a387b6b30d4ba0a7b67107b6c187b6a1001dbac075107062842188297a8007b6780009567a0218268405020b20212bc956b182182b9880082b7900082b8980082baa0007bba607bb8587bb75095678021956860217bb9485020b402a44295671821827a8000827b78827c708279688ea78eb8dba7088ec77b6978018899208599017b6c8001dbc7097b6a88017b6b9001d4ab07db7809826780008877207b67205109680695671821956a000182a8507b782882a8407b783082a8387b78389568402182a9487b794033075020b6027fba8267a800817756171f0c8268a800480820019517e08477e07b676801647183793308208267a0000a088267800095781fd87807826c48c87c09d8c90ada770a826b38c8ba0a7b6a600197aa3b989b05d4ab0b8267680182731897993b827a10988805d498076f346fa982682094c8826a100194a8948b9487c87402d84207c8790cc8cb0b7b6b9801d39b0cd89b0adac70a7b6a58018267780195701fd8700b826a8001c8ba07d8a70cdabb0c82639001c8c303973b3b987a05d4ba0a97773b980b05d4b707c847077b677801d847076424c8790bc8ab0bd39b0a7b6b7001d89b09daa709826b6001826738d87b07826a30c8a70798ba05977b3bd4ba0a826b680182b282bb08987705948a94876fb86f2bc8b707c88a0ad88a0cc8c70782605801c8a000d8a00ac8a70282679001d87307826a8801c8a707983a05977c3bd4ca0a987705c8b707956c000182cb9800c88a0ad88a08c88707c8a9097bc968d8a908c887077bc7609517e08473e064317b6358010182677801d8740782697001d39b08d89b09da8709826c6801d8c007826a6001d3a208d8a20ada870ad3c007d48707da790a7b6490017b347b6b98017b3b087b6080017b30107b6288017b3218510a780495671829492740054927380549273005492728059568402e64375020b80205ba8263580182649001954401884701826b9801c87b0bd4b40788770182688001c88707d8870882628801c8820264702862ff956c18110182689801958720d88708c88409d8490ada880ac83a0ad83a08826b9001c88b0b826808017bc8e8037bc7c803826700017bc7f0038267f8007bc7f8037bc9d003826710017bc700047bcad803956700159568e0147bcbe0035020ba0274408268d800958702d88708826ae0005022bc0228598268f000c88a0ad88a08826be800c8b808956b182995bc00037bc8407bca387bc9307bc7289567c0149568402c5020be02b2b83302c00295681811018287b0037b6778018287a8037b6770019567a0143308405020c20260b6956b181182b2a00395b80003828a9800828c900082878800d42c09d4a708d49808988820d4a909979920d498085208f70d8268d0009788207b6a8801988a20492b8003492b7803492b7003956880147bba68037b6798017b6280017b6c90015020c40235b7956c000182c8980082c7880082c98000d4970a5022c60297595107a60d1402ffffffff000000008269d0009899207b6b6001826bc0007b6a680197ba20d4a90998ba20826cc80097cb20d4ba0a98cb2084aaff8499ffd22b0b838720956c1811492c60037bcb58037bc94803956860147bca50035020c802bbb6956a000182a8980082a7609577c0d8780782a99000949782a96894975107290d83874095691811492940034929380349292803a00095684014492930035020ca0278b695672014826808015020cc0230b5956c000182ca6882c89800140b0000000001000000140760ffffff00000000d8780782c99000949794a75107ca0c956718117b6b6001647b8272200382731803827c1003827908038387a0007b6958017bb9e8027b6c40017bbcf0027b6350017bb3f802956800147b6248017bb200035020ce02f4b5956b000182ba900082b9980082b760957740ffd8790794a782b86894875107610c1407e0ffffff0000000082680801d878078268000194878268b80094875107400c82685801826c5001d4c8078262480182634001d4230bd4b707987720d4cb0b97bb20d4b7075207170c8397c0005020d002c4b97b67680182673801826858015020d202b2b9647882676801826958015020d4025fb38268580182679801c88707d88709826b400182689001c8b808c89808d3b80ad8b80bdaa90b82698001826a4801c8a909826a8801826c5001c8ca0ac8ab0bd8ca0cd8ab0ac8c909c8a909d4b909140a40ffffff000000007b6a9001d8a70a948a949a510a850b8377c000956918114929e0024929d8024929d0029568e0134929c8025020d602d5b482679801837760956918114929c0024929b802826870017b98a8029568c0134929b0025020d802acb47c6778018e788267980183778000956918114929a002492998027b9888029568a013492990025020da0280b48267580195771f1408e0ffffff01000000d2870782689001ae87f20a8378c0007b689001826798015020dc0297b883783307826990010a0d01826720857701826848826910db890782681882691001db980751074d02826780008477e07b6710019567181982685001957900077b98e800826840017b98f000826838017b98f8009568002195671821826948017b7933075020de02e9b35022e002945733082033075020e2021db89518e08488e07b6868016481837783893308200a084926980120330c49269001492688014926780149268001826a680182a71882a81082a90882aa6f736f846f903309826b78016fa7330a6472826870017b87187b6050017b80107b84087b83017b626801826710017b6b7801d87b07857b017b6a580194ab017b69600182678001d49707947b018268180182679801c87808826a3001c8ca0a8269200182679001c879098267280164c0826c8801c8c707520b7201826b9801d8b80bc8ba0ad30a027b603801d80a0cda2b0cc89c0cd89c02826b9001d8b909c89707c82707d4c809d4a707d47909989920d4c707977720d497077b6348017b644001520765099567a01e5020e40293b1956a181995ab000582b7a00082b8980082b9900082ba8800956b182995bc00057bc7607bc8587bc9507bca489568602e826770015020e602fdb38263480195330188370182644001c87404d4430788770182685001c87800d8800882676801c88707826898019589207b696801d8890a82683801c8a8097b694801d8890bdaaa0b82689001c8b80ad88a0b82688801c8b8087b68880182687801958b20d88b0c82695801c8c908d89809dacc09826c6001c8c909d8c90c82628001c8c2027b628001826c70017bc4087bc37bc01064727bc7187b605001826768017b679801826c48017b6a9001648a286dfe82678000826838d48707826848826930d49808d487075207bc01492640014926380149264801492650012802028264900182639801826b8000826c1001d3cb0b826c38d4cb02826c48826b30d4bc0cd4c20b510b3301d8380bc8ba0ad30a02d80a0cda2b0cc89c0cd89c0bd84909c89707c8b707d4c809d4a707d47909989920d4c707977720d497075207e2079567e0205020e80210b095671819957900078298e0007b6890018298d8007b6888018298d0007b6880018297c8007b6778018267800097773b9878387b6898019a8980003307ff3308ff5020ea02e6557b6768017b6850013307ff3308ff826998015020ec02a8557b6758017b68600182675001d487077b675001826798019579803307ff3308ff5020ee028255826b980188b98000826a5001db9a08826c5801826a6801d4ca0ada970a93b8ff93baff826b6001939b939c82677801e0a70782698001e0890882698801e0c909826a9001e0ba0a956b182995bc00057bca80007bc9787bc8707bc7689568802e826770015020f002c6b182693898973f826830978801d48707826a4898a83f979901d49808826b800098b93f97aa01d4a90997ba0195aa01956b182995bc00057bca88007bc990007bc898007bc7a0003307a02e287301956a000182a72882a820d487071408e0ffffff0000000082a918d8890882a930949894785108750682671801837820956720215020f2029cae95671821827820956900017b98508278187b98488278107b98388277087b97400182694898973f826a3897a801d487077b67900198a73f826830978801d487077b678801826a800098a73f979801d487077b67800197a7017b67780197a8037b6898018d8980003307ff3308ff5020f40245547b6758017b687001826780008a79033307ff3308ff5020f60204547b6768017b68600182685801d487077b675801826798018379803307ff3308ff5020f802de53826b980188b98000826a5801db9a07826c6001826a7001d4ca0ada980a93b7ff93baff939c826b6801939b82683801e0a80882694001e0790782694801e0b909826a5001e0ca0a956c000182cb78d4b70782cb8000d4b80882cb8800d4ba0a82cb9000d4b909956b182995bc00057bc9b8007bcac0007bc8b0007bc7a8003307c02e01c876088267405020fa02fdaf9517e0847ce064c1826850958702d88708826a585022fc02ae4f826868c88a0ad88a08826b60c8b8087b6c98017bca107bc9087bc77bc8189567c0208268785020fe0214ad956718198277a8078477ff7b6790019567a020826898015020000323af95691819959a000782a7a00082a8980082a99000956a1829826b900195ac00057bcbc8007bc7e0007bc8d8007bc9d0009568e02e82679801502002035daf9567802082682850200403acac956a181995ab000782b7800082b87082b97882ba68d48707d4a909d497078e777b679001956760208268980150200603a6ae956a181995ab000782b75082b84882b96082ba58847700ff826b9001d4b707956b18297bb9000695b900057b9af8007b98e8007b97f0009568002f8267980150200803d9ae8267c80033000a030a048269e80033020c032859488269e80050220c03524849294007959b00077bb8387bb730956840207bba28330750200e0333ad3302100395681819014928200749281807492808070164893307209568202049291007502012030aad50221403224f8269a800819756173f08480940019517e08477e07b679001647183793308408267a000330016030a083302180328114e502218030e4e95ab0350221a038d4a826898017b8b7b8c087b89107b87189567002050201c039ead956718198277e8069577018268e000d287077b6790019567e01f8268980150201e037aad3307002050222003635082b7d00082b8d80082b9e00082bac800502222031c4e95bc00067bc9207bc8187bc7107bca089568202f8267980150202403b4ad9567c01f3308405020260303ab330228039569181901959c000682cac00082cbb80082c8b00082c7a800956c00017bc898007bca8800d48a0ad4b708d4a8089888207bcb9000d4ba0a97aa20d4a808520885024929a00649299806492990069568a01f49298806207b67800150202a03d8ab956a000182a7880082a89000d47808140700000000010000007ba7781407e0ffffff0000000082a98000d8790782a9980094977ba870948751072a0282678001837720956918198268c000959b00067bb8688268b0007bb8708268b8007bb8789568801f826af0007bba800050202c0366ab826778019577dc8268d000d878078268d80094878268980094875107d6018267c0008269b800d497078268f000826ab000d4a808d48707987720d49808978820d487075207ad011408c0ffffff0000000095690001829780007b9878d88707829898009487829870948751078601826780018377408268900050202e032caf837782689000826988000a01018268c00082678001c88707d88708826bb00082699801c8b909c88909d3b90ad8b90bdaa80b8268f000826a8801c8a808826cb800826a9001c8ca0ad8ca0cc8c808c8ab0bd8ab0ac8a808d4b808826a7801d8a70a949a948a510a0c01837740956918194929600649295806492950069568601f49294806502030035daa8267c800330032030a048269e800330234032806468269e80050223403ff45d4780298aa206f98978920d4a909988a208268c00095881f8488e0009588403a0b2000023a0c280002956718197b7b40063a0b3000027b7c380649270006826c08017b7cf8057b7b30063a0b380002826cf8007b7cf005826c00017b7ce80549272006957c00067bcb287bca187bc9109569401f956a201f956b001f7b720806826780015020360333ac9567e01e330840502038036da8956a181995ac000582c7e00082c8d80082c9d00082cbc800d49707d48b09d47909989920d48707977720d497075107da06003308800102838833070133090a0d28d3133308800102838833070133090a0d28c2133308800102838833070133090a0d28b1133308800102838833070133090a0d28a0133308800102838833070133090a0d288f133308800102838833070133090a0d287e13492610044926080449260004140700000000c611522c956800047b671804330750203a03e9a8390870010256181f12200370010220330880010228b904330880010228b104492630044926280449262004140700000000b878d6f4956820047b67380433073300460328a0a83308800102838833070133090a0d2801133308800102838833070133090a0d28f01233023c0395691811014929580149295001140700000000c611522c7b9760019568601249294801330750203e0352a8390870010256181f1220037001022033088001022822043308800102281a043302400395691811014929780149297001140700000000b878d6f47b978001956880124929680133075020420304a882673801817756171fd0008268380148082028c4003308800102838833070133090a0d284d123308800102838833070133090a0d283c123308800102838833070133090a0d282b123308800102838833070133090a0d281a12492670054926680549266005140700000000c611522c956860057b67780533075020440385a7390870010256181f1220037001022033088001022855033308800102284d03492690054926880549268005140700000000b878d6f4956880057b67980533075020460340a782674001817756171f0c8268400148082001330701330904826848010a0d013308800102838833070133090a0d287f113308800102838833070133090a0d286e113308800102838833070133090a0d285d113308800102838833070133090a0d284c113308800102838833070133090a0d283b113308800102838833070133090a0d282a113308800102838833070133090a0d2819113308800102838833070133090a0d2808113308800102838833070133090a0d28f7103308800102838833070133090a0d28e6103308800102838833070133090a0d28d51033071819502248035647838800fec868087b970005330750204a0349a69568181950224c030c4a8388e0fdc868084929d00433005e03282aa63308800102838833070133090a0d288b103308800102838833070133090a0d287a103308800102838833070133090a0d286910956918214929b8044929b004140700000000c611522c7b97c0049568c0254929a804330750204e03d0a5390870010256181f12200370010220330880010228a00133088001022898013307182150225003a14683880006c868087b97000533075020520394a5956818215022540357498388e005c868084929d0045020560379a582675001817756173f0c8268500148084001330701330924826860010a0d013308800102838833070133090a0d28b80f3308800102838833070133090a0d28a70f3308800102838833070133090a0d28960f9569ff07959919014929380449293004140700000000635bb2d57b9740049568ff079588410549292804330750205803f5a4390870010256181f12200370010220330880010228c500330880010228bd00956718194927380549273005492728056479140700000000717b484e9568401e7b974005330750205a03aaa433025c0395681819014928200549281805492808054164893307049568201e4929100550205e0381a48267a800817756173f0c8268a800480840013307013309248268a0000a0d019569182149293804492930041407000000003bc167cc7b974004956840254929280433075020600338a4390870010256181f11200370010220330880010228083308800102018388330701330904330062030a0d0152476eeb149c73956718294927600349275803492750034927480395670030837760fc330064030a103302660328fd4750226603fa47502268033e48510765013308800102838833070133090a0d282b0e3308800102838833070133090a0d281a0e3308800102838833070133090a0d28090e5247275914a04a01956718294927800349277803492770034927680395670030837780fc33006a030a1033026c0328894750226c03864750226e03d843510772013308800102838833070133090a0d28b70d492658010182676801977701826b5801d47b0b014926d8034926d0034926c8039568c0037b6bc003826718015020700316a333082082671801502072034ea7837833092033070a0d280a33092033070a0d01956718194927780549277005492768056479140700000000717b484e9568801e7b978005330750207403caa23302760395681819014928600549285805492848054164893307049568601e4929500533005e03289da264ba956718194927c005956c000182c87b78a8058268f8007b78b0059568c01e82c9087b79b80564b77bca9800330030012869a282679801817756176397003308800102838833070133090a0d28bf0c52473a6750b67b0195671829492700044927f8034927f0034927e80395670030837700fd330078030a1033027a03283f4650227a033c4682b7f80082a8000482b9f00082bae800d49808d4a707d4870751077d013308800102838833070133090a0d285a0c8267980181775617437d013308800102838833070133090a0d283e0c9567a01733007c033302880528d5449568181195890006829788007b679801829790007b679001829798007b6788018297a0007b6780019567801733007e0333028c0528cc4595681811958900068297687b6778018297707b6770018297787b676801829780007b676001956760173300800333029205289845956b181195bc000682c74882c85082c95882ca607bca95ba00057ba9f8007ba8f0007ba7e800956b000182b7607bc72082b7687bc71882b7707bc71082b7787bc70882b780007bc74082b788007bc73882b790007bc73095674017956820179569001782ba98007bca28502082038f2a33088001028388330733090a0d28440b52474a45080ea70495671821492740064927380649273006492728069567002083774007330084030a103302860328b74450228603b4445022880319425107c0043308800102838833070133090a0d28f20a50228a038a43ac78c0043308800102838833070133090a0d28d70a9567401b33008c0333029c05286e4395671819827728027b6790019567201b33008e0333028c0528814495671819827708027b67f00033078001037b67080183777b670001330090030a04826908013302920328113b82690801502292030a3b49290002959b00017bb8f8007bb7f0009568001b7bbae800330750209403e89f3302960395681819014928e0014928d8014928c8010264893307209568e01a4929d00150209803bf9f33077001027b671801390770010233083fac78118268180148084033029a0328f34050229a03f0403307800102837783993308407b67100133009c030a08826a980133029e0328833d826a980150229e037c3d7b679801647182679001977720987920956718194927c0014927b8014927b0019568c01a7b69f8007b79a80133075020a003389f8267700195681819958900017b97a000826778017b979800826780017b979000648a3307209568a01a826988017ba988015020a203019f82671801817756173f12826718014807403302a40328353b5022a403323b3300a6030a08826a90013302a803283a3c826a90015022a803333c826b98017bba187bb9107bb8087bb7826700013300aa030a04826908013302ac03289741826908015022ac0390417b6890019877206f987b688801978820d487077b6780019567801a826898015020ae03679f95691819018297700180986c0182997801977a20d4a808979a20987720d4a707956b000182ba8000d3a70782ba9000d3a80882ba8800d3a909989920d49808d4870752076106956700308377a0fc0a0901956718298272a003827b98037b6b580182749003827a88037b6a4001682768b8958940db2709684768a8958840db470895878000d42b0adaa709d8870c94ac8ecb8897f000857a01daca0b88b7019570ff9ab39accc9ac0a9a99ef008e3c8e07da0c07889c000185cc018ea8dba80cdbb70c7b6438017b625001d42407826b400182685801d4b808d48707887701d4c70764b894787b689801520703065022b003df415107f9055022b203063a5020b4032d425022b603de405020b80347425022ba03c13f5020bc033b427b6720017b68e80082696001889780007b67e00082674001826838015020be0319425022c003cb41826ae00093a77bb7785108860564a98267680182682801d4870764ac8268e8005022c203e0385020c403c1415022c6035c405020c803b5417b67e8005022ca03b23f5020cc03cb415022ce03243c8268e8005022d003883d5020d2038f415022d403ac3a5022d6032f3cd89002826b2801d8ab0cdb320c5022d803413cd4870297b801826b700198b33fd4380397b801826b780198b43fd4480897bb0182675801d47b0b7b6b780182675001d478087b687001d437087b686001d427075022da03d737d89b02c99b0988ab01c9bc0c827b8800c92b0b95aaff7b7c90007b7b8800d4bc027b7a9800d49a0bd42b0a840b017b7b587b79800049265001520a68ff2894045247ce3c124534069567182949074917f84917f04917e895670030837700f90a1001956a182995ab00ff82b7f80082a882b9f00082bae800d49808d4a707d48707510759063308800102838833070133090a0d2847065022dc03df3eac7850063308800102838833070133090a0d282c069567c01d3300de0333029c0528c33e956718198277a8047b67700133078001037b67880183777b6780013300e0030a04826988013302e203288136826988015022e2037a364929a004959b00047bb898007bb790009568a01d7bba880033075020e403589b3302e60395681819014928800449287804492868040264893307209568801d492970045020e8032f9b33077001027b679801390770010256173f0c82689801480840019517e08479e07b69780164913307800102837783993308407b6790013300ea030a0801826a780182a71882a81082a90882aa6f777b6768016f877b6760016f977b6758016fa77b6750015022ec03843e82677001977720987920956718194927600449275804492750049568601d7b6970017b79480433075020ee03979a8267500195681819958900047b9740826758017b9738826760017b9730648a3307209568401d826968017ba928045020f003639a82679801817756173f0c82679801480740019517e08477e07b6768015022f2039d353300f4030a08826a68013302f603289837826a68015022f6039137826b78017bba187bb9107bb8087bb7826780013300f8030a04826988013302fa0328f53c826988015022fa03ee3c7b6868019877206f987b686001978820d487077b6758019567201d826878015020fc03c59a95691819018297100480980c0482991804977a20d4a808979a20987720d4a707956b000182ba58d3a70782ba68d3a80882ba60d3a909989920d49808d4870752072305826780013300fe030a048269880133020004287a34826988015022000473344929e003959b00037bb8d8007bb7d0009568e01c7bbac80033075020020451993302040495681819014928c0034928b8034928a8030264893307209568c01c4929b00350200604289982679801817756173f0c82689801480840019517e08477e07b67780150220804623433000a040a0801826a780182a71882a81082a90882aa6f777b67780150220c04933b33020e0495691819014929a00349299803492990039568a01c826770017b978803330750201004bb988267580195681819958900037b978000826760017b9778826768017b9770648a3307209568801c826978017ba9680350201204869882679801817756173f0c82679801480740019517e08477e07b67780150221404c0330a08826a780182a782a80882a91082aa186f726f876f996faa951be084b8e0648195ab02d8ab0ac8a90cd89c09daaa09c87909d87907c827077b8c087b8b7b89107b87189567601c7b68780150201604049995671819827750038478ff005108e3033302180495691819014929380349293003140700000000c884c1c17b9740039568401c4929280333073300500428cf9733021a0495691819014929580149295001140700000000dbf71c6f7b9760019568601a49294801330733004605289f97492658010195690001829778977701829858d487077b979800018267f00082689801ab8777058267000133001c040a048269080133021e042866328269080150221e045f3249292001959b00017bb8187bb7109568201a7bba083307502020044097330222049568181901492800014928f8004928e8000264893307209568001a4929f00050202404179782671801817756173f128268180148084033022604284b33502226044833330028040a0833022a0428823450222a047f347b97e0007b97d8007b97d0009568e0198267f8007b97c800330750202c04c69682677801956818197b87c000826780017b87b800826788017b87b000648a3307209568c019826990017ba9a80050202e04939682671801817756173f12826718014807403302300428c73250223004c432330032040a083302340428a53750223404a23795ab0250223604213495681829958a00037baba8007bacb0007ba9b8007ba7c0009567a0199568c02c502038042597956718197c7790005107520433023a0495691819014919784919701407000000006d53a9a77b9780009568801949196833073300460528f79552472dc64b494c956718294927800149277801492770014927680195670030837780fa33003c040a1001956a182995ab000150223e043d365107f5053308800102838833070133090a0d281c3308800102838833070133090a0d280c838833070133090a0d01826798018177561763d405330880010228e6956720023300400433028805288838956a000282a72082a82880693002492618027ba9107ba808956800027ba73307502042044d954926f8014926f0014926e001033307209568e0014926e801502044042f9533077001027b679801390770010256173f0c82689801480840019517e08479e07b698801649133078001027b67900183778399330840330046040a08826a880133024804285032826a8801502248044932956b182195bc00067bca607bc9587bc8507bc7489567c0019568602750204a04ae958067c0014926b8014926b0017b67a001330780009568a0014926a80150204c049a9482679801817756279f0018826898014808a00082679001837880002881f182679001837880002876f133024e0495691819014929f8034929f003140700000000dbf71c6f7b9700049568001d4929e803330750205004429482679801817756171f0c8268980148082001330701330904826890010a0d011408ffffffff000000007b686801956a181995ab000382b84882b95882ba60867701956b182995bc00047bc8087bc9187bc7107bca209568202d8267780150205204499582678001330054040a04826988013302560428c92e8269880150225604c22e49292003959b00037bb8187bb7109568201c7bba08330750205804a39333025a049568181901492800034928f8024928e8020164893307209568001c4929f00250205c047a9350225e04333782679801817756173f0c82689801480840019517e08477e07b67980150226004ae2e330062040a0801826a980182a782a80882a91082aa186f776f886f996faa95ab0350226404f330826878017b8b7b8c087b89107b87189567e01b502066040494956718198277c80282686801c88707d287077b6798019567c01b8268780150206804e093956a181980a7ac0297772095ab000282b8c00082b9b80082bab000826b9801d4b707956b182995bc00047bc8407bc9387bca307bc7289568402d8267780150206a0414948267800133006c040a048269880133026e0428532e8269880150226e044c2ed4780298aa206f99979820d4a808989920826a7001956718197b7a48023a0a4000023a0b4800023a0c5000027b7aa0027b7b980249276002957b00027bbc90003a0a5800024927580249275002492780027bba88007bb9787bb8709569a01b956a801b956b601b7b7268023307330850207004959433078268900133090a0d2878fc3302720495691819014929380149293001140700000000635bb2d57b9740019568401a4929280133073300460528d69182670001330074040a04826908013302760428c32c8269080150227604bc2c4919607b98587b9750956860197b9a48330750207804a29133027a0495681819014918404918384918280464893307209568401949193050207c047d9182671801817756173f128268180148084033027e0428b12d50227e04ae2d330080040a083302820428e82e50228204e52e7b97207b97187b971095682019826798017b9708330750208404309182677801956818197b87826780017b87f8826788017b87f0648a33072095680019826990017ba9e850208604029182671801817756173f12826718014807403302880428362d50228804332d33008a040a08826a900133028c0428e02e826a900150228c04d92e7b679001647133028e0495691811014929e0074929d8074929d0079568e0188267f8007b97c8073307502090049a908267700195681811958900077b97c000826778017b97b800826780017b97b000648a3307209568c018826988017ba9a8075020920463908267180181775517400c82671801480740019517e08477e07b6788016471837933084082671001330094040a0833029604285f33502296045c336f996faa826890017b8a187b89107b8b087b879567a01850209804fe9095671811827788078478015208d30233029a0495691811014929b8064929b006140700000000b6e2a4af7b97c0069568c0174929a80633073300460528ca8f826798018177561763b8033308800102281ffa9567ff079577a10133009c043302880528bc329568ff07958819018287a0007b67f800828798007b670001828790007b671801828788007b6710019567ff079577810133009e0433028c0528af339568ff0795881901828780007b67f0008287787b67e8008287707b67e0008287687b6708019567ff07957761013300a004330292052877339567ff07957719018277487b67d80095670030837720f90a090195671829827220827b187b6b5801827410827a087b6a4001682768b8958940db2709684768a8958840db470895878000d42b0adaa709d8870c94ac8ecb8897f000857a01daca0b88b7019570ff9ab39accc9ac0a9a99ef008e3c8e07da0c07889c000185cc018ea8dba80cdbb70c7b6438017b625001d42407826b400182685801d4b808d48707887701d4c707947b5207f1075022a204df325107e7075022a404062b5020a6042d335022a804de315020aa0447335022ac04c1305020ae043b337b6720017b68d00082696001889780007b67c80082674001826838015020b00419335022b204cb32826ac80093a77bb77851087a0764a98267680182682801d4870764ac8268d0005022b404e0295020b604c1325022b8045c315020ba04b5327b67d0005022bc04b2305020be04cb325022c004242d8268d0005022c204882e5020c4048f325022c604ac2b5022c8042f2dd89002826b2801d8ab0cdb320c5022ca04412dd4870297b801826b700198b33fd4380397b801826b780198b43fd4480897bb0182675801d47b0b7b6b780182675001d478087b687001d437087b686001d427075022cc04d728d89b02c99b0988ab01c9bc0c827b8800c92b0b95aaff7b7c90007b7b8800d4bc027b7a9800d49a0bd42b0a840b017b7b587b79800049265001520a68ff28880684780252083e0c8477fd007b67880195676018826890015020ce04038e956a181195ab000782b74882b85082b95882ba60847700ff826b8801d4b707957702956b182995bc00037bcae0007bc9d8007bc8d0007bc7c8009568e02c826790015020d004338e826700013300d2040a04826908013302d404287228826908015022d4046b28d4870798aa206f99979820d4a808989920956c1811492ce006492cd806492cd006826a98017bcac806826af8007bcae8063a0a6000023a0b680002492c0007492cf8067bca40077bcb38073a0a7000023a0b780002492cf006492c20077bca300795ca00077bab287ba9187ba81064c895694018956a2018956b0018956ce0177b870807330733085020d6045e8f33078268100133090a0d287ef6956740103300d8043302880528152f9568ff0795881901958900078297407b67f0008297387b67f8008297307b6738018297287b673001956720103300da0433028c05280c309568ff0795881901958900078297207b67c8008297187b67c0008297107b67b8008297087b67b000956700103300dc043302920528d52f9567ff07957719018079e8068897019598ff888832858801da97087b691001da97085208d10a8267f800977720987920956aff0795aa1901492ac0068267300195ab00067bb7a800826738017bb7b0009568ff079588c1077b6908017bb9b80033075020de042a8b9568ff07958819014928a00649289806492888060364893307209568ff079588a107492990065020e004fe8a33077001027b679801390770010256173f0c82689801480840011407ffffffff000000007b6740019517e08479e07b69880164913307800102837783993308407b6790013300e2040a08826a88013302e404282628826a88015022e4041f2895bc00017bcaa0007bc998007bc890007bc788009567ff07957781079568a02a5020e6046b8b9567ff0795771901827768067b67a800956700308377c0fa0a0901956718298272c001827bb8017b6b50018274b001827aa8017b6a8801682768b8958940db2709684768a8958840db470895878000d42b0adaa709d8870c94ac8ecb8897f000857a01daca0b88b7019570ff9ab39accc9ac0a9a99ef008e3c8e07da0c07889c000185cc018ea8dba80cdbb70c7b6480017b621801d42407826b880182685001d4b808d48707887701d4c70764b894787b68000152078f095022e804192e510785099598017b687801888701c8a7077b676801d48707887701c837077b675801d83707c807077b6760019a98ff007b6820019a89800082678801826880015020ea04312e7b6700017b6828018267500182681801826920015020ec043d2e7b67e8007b68e0008267200195798082678801826880015020ee04202e7b67d8007b68d00082692001889780007b67a00082678801826880015020f004fe2d956b00017bb87082b86882b960d4890982b87882ba58d4a808d49808826aa00093a77bb7485108a90864a9826728018268e000d4870764ac8268d000da980782691801649a649882692001db970a7b6a280182670001826ae800d4a707826ad800daca07826b500164badb970a7b6a20018267700193c77b6770014926e0008051018267780195798064b75020f204472d7b6700017b68e8008267880182688001826978015020f4042d2d7b67d0007b68d800826878019a89800082675001826818015020f604352d8269d800d4980882697801889a80007b6ad800826be800daab08826b8001db980b7b6b80018268d000d4870782680001daa80782688801db97087b68880182675001826818015020f804c32c49265001492618018269d80093987b6800019397826ae00095a9ff7b69d8008ea99599ff7b69d00001826b880198b93f82638001973a01d49a0097ba0182642801984b3fd4ba0a7b6ae8008269d000d30908d80902826bd800d8ab0cdb820c82680001978801987a3fd4a8087b680001983a3f977701d47a0a974701826b200198b83fd4870297b801826b700198b33fd4380397b801826b480198b43fd4480897bb0182675001d47b0b7b6b480182671801d478087b687001d437087b682001d427077b672801c9a907d8c707d8a908826c0001c9c90bc98b0bc97b0b99b33f8267e000d273078269e800c979087b688801d87908c980077b6780019408c98a07d88a08c98c087b68000195680001828c78828a68d4ac09889901828b58d89b02c99b0988cb01c9ba0a828b60c92b0b95ccff7b8a687b8b60d4ba0a7b8c78d49c0bd4ba0a843b017b8b507b895849261801520ad7fe286806492658010182677801977701826b5801d47b0b0182670801aeb77f0c8267d8009777209878209587ff88773293877b68380193875107b10c1407ffffffff000000007b677801826700019777209879209567ff0795771901490782681001956a00107ba800f982681801956a00107ba808f99568ff07958801017b6948017b79f833075020fa042586956700104927f8f8956700104927f0f8956800104928e0f8033307209568ff079588e100956900104929e8f85020fc04f38533077001027b679001390770010233083fac780b8268900148084001140700000000ffffffff7b6730015022fe041c273307800102837783993308407b678001330000050a08826a980133020205281f23826a98015022020518237bba407bb9387bb8307bb7289567ff079577c10095684029502004056c86956700108277c0f8492640014926880182687801d287077b67280133070101956b00017bb7980082ba88008ea78ea8daa70882b72882b99800502206052d295209c00b95690001829778829840d28707829838ae87ac0b956700104927b8f882671001956800107b87a0f882671801956800107b87a8f89568ff079588a10082674801956900107b97b0f8330750200805e78495670010492798f895670010492790f895670010492788f83307209568ff0795888100956a0010492a80f80250200a05b58482679001817756173f128268900148084033020c05288b2350220c05882333000e050a083302100528b92150221005b621956800107b8778f8956800107b8770f8956800107b8768f89568ff0795886182679801956900107b9760f8330750201205518482675001956800107b8758f882675801956800107b8750f882676001956800107b8748f83307209568ff0795884182696801956a00107ba940f850201405118482679001817756173f12826790014807403302160528fd2550221605fa25330018050a08826a680133021a0528d125826a680150221a05ca25826870017b6960017b89187b6768017b87107b6b58017b8b087b6c50017b8c9567ff0795772150201c059e8495670010827728f895680010828830f895690010829920f88477ff8488ff826a3001d2a909d49808d4870751077f02956c000182c850958702d8870882ca5850221e059c2482c868c88a0ad88a0882cb60c8b808956b18297bb7487bb9507bba587bb8609567ff079577019568602950202005298495670010827708f88477ff00520729024926f807826710017b67e007826718017b67e8079568e007826748017b67f007330750202205ff824926d8074926d0074926c8073307209568c0074926c0070450202405e18282679001817756173f12826790014807403302260528b72150222605b421330028050a0801826a700182a71882a81082a90882aa6f777b67700150222a0550254926b8074926b0074926a8079568a007826708017b67a007330750202c05818282675801956a00077ba79800826760017ba79000826768017ba7880033072095688007826970017ba9800050202e05508282679001817756173f128267900148074033023005282621502230052321330032050a083302340528541f50223405511f7b6778077b6770077b67680795686007826798017b676007330750203605ff8182675001956a00077ba758826758017ba750826760017ba74833072095684007826968017ba94050203805d28182679001817756173f128267900148074033023a0528be2350223a05bb2333003c050a08826a680133023e0528ae1e826a680150223e05a71e9567200750204005818282672007847705521701860082679801956900067b97c000826708017b97e00082671001956b00077bb7826888017b98c8008267e0007b97e800826718017bb7087b98d0008267e8007b97f000826700017bb7107b98d8008267f0007b97f800956700079568e0069569c006826af8007bba1850204205c00a95690001829740957701829878d287077b974001492688018267980195770182687801d287072895fb3302440595691811014929780749297007140700000000f08982c97b9780079568801849296807330750204605be8082671801817756171f0c8268180148082001330701330904826810010a0d019569ff07959919014929d8064929d00614070000000059e962787b97e0069568ff079588e1074929c8063307502048056d80390870010256181f122003700102203308800102283ddc33088001022835dc492650010195690001829748977701829850d487077b97014926800149264801826740018268a800d287077b67e800140700000000ffffffff7b67e00033070101956b00017bb77882ba488ea78ea8daa7088267e80082b97850224a05e12351090628d6ed9569000182974082988000d28707829810ac870628bfed9569ff07959919014929600682673001959a00067ba748826738017ba7509568ff0795886107826708017ba758330750204c059d7fff9567ff0795771901492740064927380649273006647a3307209568ff0795884107492a28060250204e05707fff82679801817756173f0c82689801480840019517e08477e07b67880150225005a91a0a08826a880182a71882a81082a90882aa6f777b6770016f877b6768016f977b6760016fa77b6758019517e08477e07b67880164719569ff079599190182674801959a00067ba7207ba7187ba7109568ff0795882107826778017ba708330750205205e87eff826758019568ff07958819017b870006826760017b87f805826768017b87f005648a3307209568ff0795880107826970017ba9e80550205405ac7eff82679801817756173f0c82679801480740019517e08477e07b67700150225605e519330058050a08826a700133025a05286720826a700150225a056020956a000182a888007ba9687b89187ba7707b87107bab607b8b087bac587b8c9567ff079577e10650205c05337fff9569ff0795991901959a000582a7d00082a8d80082a9c8008477ff8488ff826ae000d2a909d49808d48707510776956c000182c758957902d8790782c860c8780ad88a08da770882c770c8870bd87b0782c868c87808956718297bc988007b79c8017bca70957900017b9ad0007bcb687b9bd8007bc8607b98e0009567ff079577c1069568e02a50205e05a57eff9567ff07957719018277b0058477ff00510718492648018267780195770182684001d287072880fd956718299569000182988800957a00017ba8e8008298707ba8f0008298687ba8f8008298607b7800029567ff079577a1069568002b50206005417eff956aff0795aa190182a78805847bff8268b000d88b07db780b8262c8009372826cc000937c8268b80093780184b9ff82670001ae797cff7b697001956900017b98187b9c207b6228017b9b880082974082988000d28707829810ae8755ff492a80058267300195a900057b9768826738017b97709568ff0795888106826708017b9778330750206205c37cff9567ff0795771901492760054927580549275005647a3307209568ff0795886106492a48050450206405967cff82689801818756173f08480840019517e08477e07b67680150226605d317330068050a0833026a0528031f50226a05001f7b6768016f877b6760016f977b6758016fa77b6750019569ff07959919014929400549293805492930059568ff0795884106826770017b972805330750206c05227cff826750019568ff0795881901958900057b9720826758017b9718826760017b9710648a3307209568ff0795882106826968017ba9080550206e05e57bff82689801818756173f08480840019517e08477e07b677001502270052217330072050a0801826a700182a71882a81082a90882aa6f777b6768016f877b6760016f977b6758016fa77b67500150227405431f9569ff0795991901826748017b970005959a00047ba7f8007ba7f0009568ff0795880106826778017ba7e8003307502076055e7bff826750019568ff0795881901958900047b97e000826758017b97d800826760017b97d000648a3307209568ff079588e105826968017ba9c804502078051e7bff82689801818756173f08480840019517e08477e07b67680150227a055b1633007c050a08826a680133027e0528f917826a680150227e05f2179567ff079577c10550208005c87bff956aff0795aa190182a7a8048477055217019b008267780195ac00047bc748826788017bc768826730017bc78800826848017bc850826718017bc770826738017bc790007bc858826720017bc7788267f8007bc798007bc860826728017bc780009567ff079577a1059568ff07958881059569ff0795996105826bf0007bcba00050208205f80395690001829b8800956aff0795aa190182978000957701829840d287077b9780002807826b8801013308330c330295b701847bff28f8fc9569ff0795991901491938491930140700000000d94b11cf7b97409568ff0795884101491928330750208405e979ff390870010256181f12200370010220330880010228b8d5330880010228b0d59569ff079599190149191849191014070000000059e962787b97209568ff07958821014919083307502086059b79ff390870010256181f122003700102203308800102286ad533088001022862d533078268800133090a0d28dde30a020182171082181814090000000001000000d37909d48909987a2088aa01948a939a510a248219821a087b697b6a087b67107b68189551c0821038821530821628951140320033088001028388330701330933008a050a0d33028c0528511d50228c054e1d3308240a0201821718821810821908d4780a889b0194ab510b0d821a50228e0521193200330880010283883307013309330090050a0d33029205280e1d502292050b1d330844330094050a023302960528821a502296057f1a520b0b50229805e118320033088001028388330701330933009a050a0d33029c0528a01b50229c059d1b33009e050a023302a00528451a5022a005421a520b0b5022a205a41832003308800102838833070133093300a4050a0d019511a07b10587b15507b16489515608411f0828910828c08828b82881897923f98ca01d42a02978a3f989901d49a0a97cc3f98b901d49c0c98830184bb019ab888b60184c97fd2a804d2280adbbc09d2380b88982094a8d4b40c94c8ab86167b797b7a087b74107b7b185022a6056d1b32005022a805b51a5020aa05d677ff49111849111049012233070464184911085020ac05be77ff390870010256183f0b20037001024001330880010283883307013309243300ae050a0d01951170ff7b1088007b1580007b1678951590008411f064728289827408828c088273959a1fd89a00c80c0984aae07b1308c8a303d8a30bc8490ac8ba0ad39a06d89a07da6b07822b18d8c90c828610822210828818da000cc86c0cd86c06c82c09c89707d8c90cd89709c8b808c86808c8c808c8980c8ec88e79dbc809d4c7088ea6db8906520658821808d88308d34a09d84a06da9806d82708d3bc09d8bc0bda980bd32708d49808da860b520b317b13507b1a587b17603307409518507b1c685020b005d276ff955170ff8210880082158000821678951190003200491140491138491130140700000000717b484e9518307b174833075020b2059b76ff491128491120491110413307049518104911185020b4058176ff390870010256183f0b20037001024001330880010283883307013309243300b6050a0d019511a0f8951a00077ba0587ba5507ba648951560078411e0641682997b692882887b68308278107b68208278087b683882777b67408367e0050a09018262f8058263f0058267e805826be0057b6b7868296838958a40db290a687968b8958840db7908958b8000d42309da9b0ad88b0c949c8ecb88a8f000858901dac90b88b4019540ff9ab49accc99c099aa8ef007b64a8008e4a8e0cda0a0c7b68b800888a000185aa018e98db980adbbc0a6474826778d42408d4370bd4b808888801d4a808647a948a5208e9028268b8008588ff00826ca800d4c808d4090bd4b8085108d002826bb80095ba017b6ab00088a801c898087b68a000d4a808888801c8c8087b689000d8c808c808087b6898009ab9ff007b6988009a99800064487b64707b62687b63605020b805ed197b6780007b6850826760826868826988005020ba05fc197b67487b68188268b8009a897f8267788268705020bc05e3197b67107b68b80082698800889780007b67588267788268705020be05c519826c58826b9000826a98008269a000d4a909826ab000d4ba0ad49a0a93c77b67a800510a0502826750826918d497078269b800dac907826268642a82638800db370a7b6ab80082678000826948d49707826910dac907826b6064badb370a7b6a800093c87b6888004916588051018267b00095798064b764285020c00520197b67507b68188267788268708269b0005020c2050a197b67107b68488268b0009a8980008267608268685020c4051619826948d49808826ab00088ab80007b6b48826918dab908826970dba8097b6970826810d48707826850dab807826878dba70864a97b68788267608268685020c605ad18330c82694893989397826a5895a9ff7b69508ea99599ff7b6948826370826478017b6c7898493f973a01d49a0c974a01826bb80098bb3fd4ba0a7b6a688269487b6c706434d3c903d8c902826b50d8ab0cdb320c978801987a3fd4a8087b6860984a3f977701d47a0a8267b800977701826b800098b83fd4870297b801826b880098b33fd4380397b801826ba80098b43fd4480897bb01826778d47b0b7b6ba80086887b68880086387b68800086277b67b800c9a907d8c707d8a908826260c9290bc98b0bc97b0b99bc3f826758d2c707826868c97804d87808826770c987039478c98a07d88a08c98208826ab0008260a000d40a09889901826b9000d89b02c99b0988ab01c9b000826b9800c92b0b95aaff7b60a0007b6b9800d4b0027b6ab000d49a0bd42b0a84cc017b699000520af2fe2805330c018267a800977701d47c0a01826730aea753098267209777209879204926b8058267407b67a0058267387b67a8059568a0057b69a0007b69b00533075020c8057872ff4926980549269005492680050233072095688005492688055020ca055972ff3308700102390770010256173f0b200370010240019517e08479e07b69a800649133078001027b677083777b68b00083993308407b67b8003300cc050a083302ce05284b105022ce054810826728977720987720492678054926700549266805956860057b6798007b67600533075020d005e471ff826778956a00057ba758826780007ba750826788007ba74833072095684005826990007ba9405020d205b771ff8268b000818756173f0e4808403302d4052839155022d40536153300d6050a083302d8052863115022d8056011956720055020da057172ff806724058268280582693005977720d49808d487075107580849261805826740956900057b978267387b9708956800058267a0007b971033075020dc053f71ff4926f8044926f0044926e004043307209568e0044926e8045020de052071ff8268b000818756173f0e4808403302e005285f115022e0055c110a08826aa80082a71882a81082a90882aa6f777b67a8006f877b6790006f977b6788006fa77b6780004926d8044926d0044926c8049568c0048267307b67c00433075020e205bd70ff82678000956a00047ba7b800826788007ba7b000826790007ba7a8003307209568a0048269a8007ba9a0005020e4058b70ff8268b000818756173f0e4808403302e60528ca105022e605c7103300e8050a083302ea05289b0e5022ea05980e49269804492690044926880495688004826798007b67800433075020ec053d70ff826778956a00047ba778826780007ba770826788007ba76833072095686004826990007ba9605020ee051070ff8268b00081875517400e4808403302f0052892135022f0058f133300f2050a083302f40528bc0f5022f405b90f956740045020f605ca70ff826840048487015107e706848704520708077b6890008487fb007b678800956700048268a8005020f8059d70ff956b000482b782b80882b91082ba18847700ff826b8800d4b707957704956b00067bba187bb9107bb8087bb7956800068267a8005020fa05da70ff4926f8038267a0007b67f0038267387b67e8039568e0038267407b67e00333075020fc05496fff4926d8034926d0034926c003013307209568c0034926c8035020fe052a6fff8269b000819756173f0e4809403302000628690f50220006660f0a08826aa80082a782a80882a91082aa186f726f8c6f996faa9517e08478e07b68a80064817b6a6895a701887a017b6978c8a90bd4b709889901c8c9097b6c8000d8c90a7b628800c82a0a7b8b087b877b89107b8a189567a00350200206a16fff956900038297a0003a081801028262b803829aa800829bb000c87808d87807c87a0c95ccffd3ac09d8ac0ada970a95b7ffc87a0ad87a0788b901c99209c89707956900067b98207b9c287b9a307b9738956820068267a80050200406ba6fff8267900084770252077603492658064926500649264806492640069567a0029568400650200606186fff956c000282c7a0003a0b2001027b6ba80082c8b80082c9a80082cab00050220806690f492678064926700649266806492660067b6b80067b6c88067b6990067b679806956760069568800650200a063e6fff50200c063f6cff3a08a001037b6890003a08b001037b6888003a07a801037b6780000a0a826880006f88978920826a88006faa98aa20d4a909988820826a90006faa330b80010397ac20d4c80898aa203d0a9001033e088801033e098001034926b8064926b0064926a8068268a800956900067b98a0004826c0068e77fc089a787b98f8007b98f0007b98e8007b98e00097bb2098bb20977723d4b7079568a0069788209888209569e006979920d4890a826b7097bb2098bb209568c006978820d4b80c3308ff3309ff0a7b6790000a0c01510752010a0c647949267802492670024926680295678002956860027b69487b69600250200e068f04826780027b6768826788027b6760826790027b6758826798027b67509567400233084050201006756bff956c000282c7587b677882c8507b687082ca487b6a800082cb407b6b88008269507bc9188269587bc9108269607bc9088269687bc97bc7387bc8307bca2895672002956800027bcb2050201206ccf48269880082677882688000d48707826a70d4a908d47808988820d4a707977720d487075207e3024926f8014926f0014926e8019568e0018267487b67e001649750201406196cff0a0c01826a8800826878826970d498081409e0ffffff00000000d89a09826b800094b9948951099a0264789877205207910283a72064897b68800083887b6888006498502016061470ff826880007a68000783778368000733090a0b018167000782688800ac875a0282679000520712039567a00133084050201806606aff956b000182b7b80082b8b00082b9a80082baa00050221a06870a52072602492698014926900149268801956880018267a8007b67800164a77b6ab80050201c06576bff4926180149261001492608018267307b670001492638014926300149262801826798007b672001492658018267a0007b6750018267387b6748013a074801023a085001023a09580102826a407b6a40017b6778017b6870017b6968013a0760010233082095696001956a4001956b2001956c00017b6760018267b80033002a0628126eff9517e0847ce064c1826868958702d88708826a7850221e06ed0b82688000c88a0ad88a08826b8800c88b0b64c87b6cb8007bc9087bc77bca107bcb1895678003502020067e6bff826780033a0b2001028268980382698803826a90037b6bb00050222206d30b956800077b8b207b8c287b89307b8738956820078267b80050202406b86bff95676003330840502026060669ff956b000382ba7882b87082b96882b760d49a0ad48709d4a909989920d4a808978820d498085208c100492658034926500349264803956840038269b0007b6940037b67b80050202806f469ff4926d8024926d0024926c8028267307b67c0024926f8024926f0024926e802826798007b67e002492618038267a0007b6710038267387b6708033a072801023a083001023a09380102826a407b6a00037b6738037b6830037b6928033a0740010233082095692003956a0003956be002956cc0027b6720038267b80050202a06b36cff9551a0f895170007827058827550827648951160073200004926d0054926c8054926c005140700000000d94b11cf9568c0057b67d805330750202c063269ff390870010256181f0b20037001022001330880010283883307013309040a0d014926d0004926c8004926c0001407000000006d53a9a79568c0007b67d800330733002e0628e768ff4926f0004926e8004926e000140700000000b6e2a4af9568e0007b67f800330733002e0628bf68ff49263004492628044926200414070000000000f90f56956820047b673804330733002e06289768ff4926d0014926c8014926c00114070000000018ecb8909568c0017b67d801330750202e067368ff8267b000817756171f0c8268b000480820013307013309048268b800330030060a0d01828a18828b108282088eac8eb9dbac09d4ba0a8e2bdba90b520b30828895891fd88908c828088488018499e0959a20d89a09c8980bd88b08da99084917187b7a7b7b087b781032009511b07b10487b15409515508411f050223206cb0a50203406ec67ff491118491110490141330704641849110850203606d467ff390870010256183f0b2003700102400133088001028388330701330924330038060a0d01951140fe7b10b8017b15b0017b16a8019515c0018411e082897b19588289087b19508289107b19488288187b184082787b18388278107b18308276080a0a6f68978920821a306faa98aa20d4a909988820821a386faa330b80010397ac20d4c80898aa203d0a9001033e088801033e098001038218407b1858018218487b1850018218507b1848018218587b184001482160018e77fc089a787b1898017b1890017b1888017b18800197bb2098bb20977723d4b70795184001978820988820330b80010295198001979920d4890a7b1b1097bb2098bb2095186001978820d4b80c3308ff3309ff0a64760a0c0151074a017b16180a0c647949211801492110014921080195172001951800017b19207b19000150203a064dfe821720017b1748821728017b1740821730017b1738821738017b17309517e00033084050203c063365ff8217f8007b17508216f0008219e8007b1958821ae0007b1a288218307b18b8008218387b18b0008218407b18a8008218487b18a0007b17d8007b16d0007b19c8009517c0009518a0007b1ac00050203e0686ee821928821750821858d48707d46908d478089888207b1648d46707977720d4870752079900492198004921900049218800951880008217207b1780006497649650204006d365ff0a0c01821850821948d498081409e0ffffff00000000d89609821b5894b99489510953646a647698772052074983a72083687b1858646850204206da69ff7a16a00183778318a00133090a0b018117a001821618821858ac871c52061a955140fe8210b8018215b0018216a8019511c00132000049117049116849116014070000000018ecb8909518607b17783307502044063d65ff390870010256181f0b200370010220018118103307013309040a0d330733004606288f69ff3307502046068969ff330701502048067f69ff82970881981082996f77977a206f88988820d48a0a9877206f98978920d497079888209569181932028269500182970881981082996f77977a206f88988820d48a0a9877206f98978920d497079888209569ff07959919013202647183793308408267900132027b676801c9a007d8c707d8a008826c3801c9c00bc98b0bc97b0b99b03f82673001d2700782684001c97804d87808c989039498c98a077b674801d88a08c98c0895670001827a9800827c9000d4ca09889901827b8000320282970881981082996f7a97a7206f889888203202da980782695001649a649882696001db970a7b6a680182674801826a3001d4a707826a2001daca07826b580164badb970a7b6a60018267700193c77b677001492630018051018267980195798064b7320282970881981082996f77977a206f88988820d48a0a9877206f98978920d497079888209569182132029517e08477e07b679001647183793308408267100132028269800182970881981082996f77977a206f88988820d48a0a9877206f98978920d4970798882032029598017b689801888701c8a7077b679001d48707887701c837077b678001d83707c807077b6788019a98ff007b6860019a89800082674001826838013202826a800182a71882a81082a90882aa6f777b6770016f877b6768016f977b6760016fa77b6758019517e08477e07b67800164719569ff079599190182677801320282a71882a81082a90882aa6f776f8b6f996faa826870017b8a187b89107b8b087b873202826a700182a71882a81082a90882aa6f777b6768016f877b6760016f977b6758016fa77b6750019517e08477e07b677001647182678801320282a71882a81082a90882aa6f776f886f996faa320282a71882a81082a90882aa6f776f886f996faa956b18293202826a900182a71882a81082a90882aa6f777b6790016f877b6788016f977b6780016fa77b6778019569181933073202d8ab0ac8a90cd89c09daaa09c88909d88908c88707320282644001826338014926580149265001956b000182b928939893977bb74882ba3095a9ff7bb9288ea99599ff7bb920320282a71882a81082a90882aa6f777b6788016f877b6780016f977b6778016fa77b6770019517e08477e03202826aa80082a71882a81082a90882aa6f777b6790006f877b6788006f977b6780006fa77b67789517e08477e07b67a80064713202956b000182b9800082970881981082996f77977a206f88988820d48a0a9877206f98978920d4970798882082b998003202826a900182a71882a81082a90882aa6f776f8b6f996faa826898017b8a187b89107b8b087b8733070020320282a71882a81082a90882aa6f777b6778016f877b6770016f977b6768016fa77b67600132029517e08477e07b67700164718379330840826780013202d49707d48a09d47909989920d48707977720d497073202330b330c8269280193989397826a380195a9ff7b6930018ea99599ff7b692801320282692801d4980882699801889a80007b6a2801826b2001daab08826b3801db980b7b6b3801320298493f973a01d4a909974a0182646801984b3fd4ba0a7b6a4001826020016437d390033202978801826b480198ba3fd4a8087b683801987a3f97b701d47a0a974701826b600198b83f320282a71882a81082a90882aa6f776f8b6f996faa826880017b8a187b89107b8b087b873202826a900082a71882a81082a90882aa6f776f8b6f996faa8268a8007b8a187b89107b8b087b873202956c00017bc898007bca9000d48a077bc9787bcb8800d49b08d4870732027b6a600193b87b686801492638018051018267900195798064c7643832027b6a7b69087b68107b67189551c082103882153082162895114032029517e08477e07b67a800647183793308408267b800320233071829c8760a95ab0002320282b77882b8800082b97082ba68d49808d4a707d487073202826a5001c9a707826a8801826b6001c9ab0a956b182195bc00073202d4870782684801daa80782684001db97087b6840018267580182685001320282ab7b1b1882ab087b1b2082ab107b1b2882aa187b1a308296829a087b1a829a107b1a088299187b19103202c867074927f8044927f0044927e8046479140700000000717b484e3308002032027b6710017b682801826890019a89800082675001826840013202c88a09d8a90ada880a3202826a900182a782a80882a91082aa186f776f886f996faa32029517e08479e07b69980164913202c87b0bd87b07c8790cd89c09da7709c8a909d8a907c88707320282b73882b84082b93082ba28d49808d4a707d48707320282692801d49808826a900188ab80007b6b280182691801dab90832028477ff8488ff8499ff826b70d2ba0a826b9001d4ba0a956b18293202821718821810821908821ad4790bd48a0cd4bc0c98cc20d48b0b97bb20d4cb0b320282a71882a81082a90882aa6f7c6f8b6f976fa932029517e08477e07b676801647183793308408267800132029517e08477e07b679801647132028267980182692801d4970782691001dab90782634001643a32027b9720826760017b9718826768017b9710648a3307209568ff0732027b6730017b6828018267600195798082674001826838013202140b00000000010000001407e0ffffff00000000d8780782c99000949794a73202826a680182a71882a81082a90882aa6f7732026f877b6768016f977b6760016fa77b67580132027b682801826898019a89800082675801826850013202491130491128491120140700000000717b484e9518207b17383307320282970881981082996f77977a206f88988820d4a808320282679801817733082332029511c07b10387b15307b16289515408411e0647683173308043202826a880182a71882a81082a90882aa6f776f8b320282a71882a81082a90882aa6f777b6780016f8732027b6748017b68200182674001826838018269980132027b6748017b68680182675801826850018269600132029551a082105882155082164895116032029517e08477e07b679000647183793308408267b80032029517e08477e07b677001647132029517e08477e07b677801647132024928e0044928d8044928c804116489330704330800203202837718f9c8760a95ab00063202d897078ea9daa709d4aa07db78093202826a900182608001d40a09889901826b7001320233071821c8760a95ab0006320233071829c8760a95ab000332027b6760017b68980182675001826840018269680132029511c07b10387b15307b16289515408411e06476831732028597ff00d43707d40a08d48707320282b75882b86082b95082ba48d49808d4a707d4870732027b6718017b68100182696801889780007b6738013202956b00017bb87082b8900082b98800d4890982b8980082ba8000d4a808d498083202849a40520a195109148d9a40cfa80ad09808d09707d4a707320032009597c0d0780733083200849a40520a195109148d9a40d0a70acf9707cf9808d4a808320032009598c0cf87083307320049922425494b2a252da9944c4949490a21a11a4292d210a1925429a42449922449922449922449922449922449922449922449922449922449922449aa9294529294942454a5242549922449922449922449922449922449922449922449499294a4aa24254994a492a42a494149929294a4aa2a494952924a922222222549929224a95029a5244929a524a9a4888828222252922409124a252525458a142952a44891a22445444411119192244949922448282a52a4489122458a142952a4489122458a122922224a920421240ca5496948848888484444342222498424894414890851a81a2242440049528948922491842424499224c950124a42495200a51022184a5aa12a119224841052a14a95464444a48808121142844844694420018104121048402001018104121111112911244992248a44424444922449928488888848444444a4484410245124222222424444444444444244244992244944241289481189888848238224482292462449908428522288888842444844084288602451a8448a4404112222228944228948a42449229124912049448448892012111111111141244444449044444444441122452282a42411420811499244444422222222258220099288a41111114112a228924a494a121149a49018114a4448a210221849142a9122025524292949922429114144444412894412914849924422492291884444444404114144128944922491489224222222228804111111812422222222a208228a8808242509112184888888484444242222228a080492401211111111115110111211044224440442a5485251144524298288888888482211914824128988202222222292084412898888880822918824028948224544444444101109222222499224111111115144441091249024222222222222884424a92411894422124404902825912422228288a0a8444444442322229224812422d18888884012a288220211115110111211044288602451a844344a529540942482888848229148221229499248244924101111114414118844444444444420124492024944444444144144111181a424114208111111918888a0a8442489884622499204928834222229898868444444259544928a24a944542225118924a924224952228924914444141108042222118140442022229114498988888828221048a2484444444444444444444444c4888844444414448c08252208218249142a12514444206244444441444422252241149944208a8808245124912452109148a44424882293084411118108221109a288882449924444444444908844444444342290049288342292a424224a12492291a492444423222229894822894892248924224912258924499224892489244924a9a4244942145144228848220511114a441008218211402451a84414118804119124124944041111898844221111111141442322222aa9249254244925a212298914491295442449124924892422228a402010118908042202111189a4484a444444141188884892449188221249128948101111411251a2448912492a92a4125129224992a4928848924422892412494444442022220211918840444444042291449294a48814898a44442251228a40a4404444042222220291888844221289444420222252495232492289288924914492449248124922118944224924492492944822224992248924922411892211111189221241908428a28844101111511011a144044108118c240a9588224124888888888808222222d28888884824491289244922492249924449920822414444229188888848342289224992248288888848220511452482a424212284109148928888a0a84444444414092222922451242212111111119146244944124992248924111111115110312294882084082651284a4491208aa248a28811118944a420624422911211411499445024a9288a22921441c4482412491449248924128944a2481091482412114144444444444444441091942449928888888888888808221289440490a824222292484482a888244952228144444444140982248a44828888888888082222512449928410222222220a129120121189440982888808822088442412292282206224492411454a24492249249244924812894422912492241249a424419244129148124524134988228a041149440a2222428988208942882012848a4491a4aa884422514491202222220a2222428988208a0c200288248228221144444444105144449224298944229115292522228a041149440a2222a24484208a4c228822412489881444440411114491490451442288242549924444444404111189459288082222229248928822414444441444444489084114994410452482288a88888888288888482452222282283289208a049124225210111144441045261144118920228888444404111111112a29492249929024499224894892882089229148141144448888888888244992882489082291888820222222228888888888888848229224224844828888244992248948444444111141442401242a8948222222228288221241529210424444448488888828111111119148249244222212894444411245911189242a118d8aa0a2444a8d44124992249124494444101191449224928824499224492222222289441049248924124924892412452a25a21244222291284110111141100491884422454410448c248924a24889244924894492481249229148249244924422899424489248221249a2886444828888884a912492441291249188484444101189489224898848242205d1880012a524924a494a92884822114444444444440411894422110922222222222222222222a2880822911449922411914824220a221240242a8988221114d188482249129144244912a92411111141000144244a49228a48241291082211492a4944444424880820514a2222222241441189202222a22022428908a2c800924425a28844104511444444444414442222494a4404516412952892544a2991a4882022121141449204111111114404118944222288884824892489489288202949922449229148a2882022222249922449228288884a4a92449288481011114922124424a914492422892422922489a4208ac8242a5124499244924892548a2a49224944124922499224529248224992444955924492482449129124499214239124124992449148242222220a2292481249a4c4489224918888888888888820920822894424494410312222124444442449928844222222228288880411402422924492248988880822924429121141441011442280001215114544444444444404119148290288445144242249928820228222828824224912918824491240a42222222282484444440451444444441009201111115434499248442222222222222a085290449542111191a4aaa82291342292484412914844a248449248924892244922228288888888248908228924914422914824914422924812492422a544444489244922222211114992249224499224491211444444444444129104114904119188244144242249a2229148242292440449922489244944444424920490a4221241249224c924492449449248242209222249101189481244442292a42812894422894422111111310992922448924452224144222288888888888888082241442449524404114912918888888820a288441091440a22468412110451641295882241822849041189444410414444104912114482881111111149124922222244101109200144a214918848241211412412451191882449228088244a1189a0884624114992884424499248452222228288221241529248248488101111212222224944440491202222224992c4502aa15442a9845209a5124a252202882808118484444400114542a9845289181140441484084242224604101105518824944a2895502aa15422228088821041484844041051104564120da5124a25944a2895502aa15442a9845209a5124a25944a04912888201291502aa15442a94444001151102208098920120511442288223289865209a5124a25222280888882104148484444014414448c0825228822328946440011511022088525d14044444444912088502aa15442a9044444444414098208a5122391111111412228556a4444014414448c082522524414119128225108a51210111111512488884812a154a2104a25221211111111111189482412111191882429222292244922914844448250958088888888224110a1548208a5121189888848448428a2884410111151103122948820444822912054228a48045124111111511011111151222288221209a2884410498a282211448a242282181149928844224922a211111151492591a422492a518994442422492a2288200882208888888820881245a40882208820082208822091044924892491884422419244129148928848409424a21151449208a5124428958848448428a28844101111511031229488204488c8240a958846928aa2288248222222a220221289948808a2884c22882212412429a288441029928808624424492249922411514422888888288818114a44104564124134925404112322220a22222291121141149149044549aa929224495212114444448c0820228a448c0820228ac448921811114524828824521031229488208a482488224144444441444444948808a288448228122488888888082222621240448a04222222221a114428552855a951084544228948a282889088204488c8240a51892212414492440411111111442122221189181140441444119944038888248948928820a288441091440a2246841211045144261144a3245509a2241144441211414422222211491211441491089292444408212222424444121151415189181140441489282211248914444ca24482282291208a044922521051245222124411890451442288224644441444444444948808a2884ca2125124a848520411898811014444912884444424222222222222221111894422222211898846124954524924a948924a542225118948922288200882208888888820881245a4088220882008220882209104492489249188442241924412914892884822222288489288242222222288282211242589888888082122228488882445444405452522121189442211118988442291888844449224129144444444444414444484121141881091014412854a44118920222222228888886844444454524924a948924a542225118948928a08229144924822222282888808222211414444440491244912258a4891a84844241225a208440a2222228888880822111189442412898820228a22516224924412914412492249224924892491884422912492241289244a12912449922449922489488c444644921445001149441111111191828888088988084284243280084225a28844902411114444442223a29208229224222222222222a220222222111182282291208a04111111918828888888888844222288221209a28844109148248a041111114924894892204912491289202222222222a22022122188221209a291a42288888828888888884444104524124491202222a220229148221244118904514422882012222222a288884844442222222241244946249288110144444114914934222280888882104148488c246944442280c8482a9120894492444444221191021111512242208ac8248222494551144914119124225220222222a2444404a2884c2288221241449224292210111191449244922449924444221289880844442422914444442291888840442492288a26222289482411118944440a444444890881283289208a045114454444444414888848245222220251641241349254144511444444444444818888888828111181283289208a4804118188488848242212894824221111111111414444248962952422092011291022080989480248440a840842428a4a930092a4524a92242994a2489026494a41a114458244912041a11445822812242894a249922425499224494992a4949204058124298110c150128d88442a29499224499224499224492a2949922449922449128888444902480a2491241022184aa2114922959224251a11914a2a892415495289a844a4a424492a22224944228924914444942488241124912448442409121189a488249114894892942882480549124112910449449224499294242895a42499248924494992244912892491249224511445922449922429494412491249442249448d64224924121151202224221042049328a428114582241111110512894412914014890451248840442489489444a440444844208a4482224945511411118902111111918808449148104582888888028944228948208a448228124420128988880844492292485244202212912810111211882291a028495512254992442229894044888824499224492449442012111111818810111144444444440402214284284a94240a49420811111111454424492491248924198d8a8888441089442291402449229124494a1291201249922411119128d0481240a2a2448aa240445123222212888888202222228a40442422222222122184444484444444442425491049a448490422444404912411814820922449924444444404222211111111910821242222242222221091241a1101441408110c258d8800228a888800228a888800228a888800220a441199443449252525499224292949120492a4044204434934222252922429492a29490a4942088944221151444492441222491249b2462a2222124124128944029188441289442222222248922449121111890a34490049a592940251d44892888868920092022182492aa2400249a524258922a994a4241155a248124912892425928848a2a4524a54242212891251042295544a529228894a1449a5242529914492482222228a2415455124514494a4aa485291a4a2288a248a92545592aaa2485251144554922429222252495252928aa228922249455194242a22a994a4245124a92a921425a9288aa2242a519224a9a22251a24844442251924412514a24912491925415492a925415492a2292488a2210a94a922429894a148912499222118928914844549224292549898802882222224a5294a4aa242a4992a4244952242222254922519292244949aa2a894a94444524129548a444119188020820514592aa288a2222a224012495544a8a52922495224955928a8a88882222a224494954a2242a898a08258a442949114914892251444494244915494a9224454444918844242549925452499224951400"},"methodIdentifiers":{"STAKE_PER_DAY()":"4a91f7ae","archiveHabit(uint32)":"b650673a","checkIn(uint32,uint64)":"a0145927","claim(uint256)":"379607f5","createHabit(string)":"b683ace1","dailyStatuses(address,uint64,uint32)":"88b21c87","deposit()":"d0e30db0","epochNow()":"222ae786","forceSettleAllEpochs(address,uint64,uint32)":"494bc62d","habits(address,uint32)":"99626634","prepareDay(uint64)":"48cc36b8","redepositFromClaimable(uint256)":"8f23d36c","settle(address,uint64,uint32)":"9c14eb6e","settleAll(address,uint64,uint32)":"45123cce","totalTreasuryReceived()":"badf162d","treasury()":"61d027b3","userHabitCounters(address)":"0e08454a","userStates(address)":"0ecc535f","withdraw(uint256)":"2e1a7d4d"}},"hash":"5b9a2ecc11a8d6b9dcb1086c7c7dd672dcaf5d747b5df37905397072f7cd5778","factoryDependencies":{}}}}