{"contracts/mocks/MockStakingRewards.sol":{"MockStakingRewards":{"abi":[{"inputs":[{"internalType":"uint256","name":"_ratePerSecond","type":"uint256"},{"internalType":"address","name":"_habitTracker","type":"address"}],"stateMutability":"nonpayable","type":"constructor"},{"inputs":[],"name":"InsufficientBalance","type":"error"},{"inputs":[],"name":"InvalidAmount","type":"error"},{"inputs":[],"name":"OnlyHabitTracker","type":"error"},{"inputs":[],"name":"TransferFailed","type":"error"},{"anonymous":false,"inputs":[{"indexed":true,"internalType":"address","name":"user","type":"address"},{"indexed":false,"internalType":"uint256","name":"amount","type":"uint256"}],"name":"RewardsClaimed","type":"event"},{"anonymous":false,"inputs":[{"indexed":true,"internalType":"address","name":"user","type":"address"},{"indexed":false,"internalType":"uint256","name":"amount","type":"uint256"}],"name":"Staked","type":"event"},{"anonymous":false,"inputs":[{"indexed":true,"internalType":"address","name":"user","type":"address"},{"indexed":false,"internalType":"uint256","name":"amount","type":"uint256"}],"name":"Unstaked","type":"event"},{"inputs":[],"name":"claimRewards","outputs":[{"internalType":"uint256","name":"claimed","type":"uint256"}],"stateMutability":"nonpayable","type":"function"},{"inputs":[{"internalType":"address","name":"","type":"address"}],"name":"deposits","outputs":[{"internalType":"uint256","name":"","type":"uint256"}],"stateMutability":"view","type":"function"},{"inputs":[],"name":"getContractBalance","outputs":[{"internalType":"uint256","name":"","type":"uint256"}],"stateMutability":"view","type":"function"},{"inputs":[{"internalType":"address","name":"who","type":"address"}],"name":"getPendingRewards","outputs":[{"internalType":"uint256","name":"","type":"uint256"}],"stateMutability":"view","type":"function"},{"inputs":[{"internalType":"address","name":"who","type":"address"}],"name":"getStakedAmount","outputs":[{"internalType":"uint256","name":"","type":"uint256"}],"stateMutability":"view","type":"function"},{"inputs":[],"name":"habitTracker","outputs":[{"internalType":"address","name":"","type":"address"}],"stateMutability":"view","type":"function"},{"inputs":[{"internalType":"address","name":"","type":"address"}],"name":"lastUpdateTime","outputs":[{"internalType":"uint256","name":"","type":"uint256"}],"stateMutability":"view","type":"function"},{"inputs":[],"name":"ratePerSecond","outputs":[{"internalType":"uint256","name":"","type":"uint256"}],"stateMutability":"view","type":"function"},{"inputs":[{"internalType":"uint256","name":"amount","type":"uint256"}],"name":"stake","outputs":[],"stateMutability":"payable","type":"function"},{"inputs":[{"internalType":"uint256","name":"amount","type":"uint256"}],"name":"unstake","outputs":[],"stateMutability":"nonpayable","type":"function"},{"stateMutability":"payable","type":"receive"}],"evm":{"assembly":"// RO data = 0/0 bytes\n// RW data = 100/65744 bytes\n// Stack size = 32768 bytes\n\n// Instructions = 4092\n// Code size = 13699 bytes\n\n      : @0 (gas: 7)\n     0: sp = sp + 0xffffffffffffffe8\n     3: u64 [sp + 0x10] = ra\n     6: u64 [sp + 0x8] = s0\n     9: u64 [sp] = s1\n    11: s1 = 0x20060\n    16: s0 = i32 [0x20060]\n    21: jump @3 if s0 == 0\n      : @1 (gas: 5)\n    24: a0 = 0x30090\n    29: i32 a0 = a0 + 0\n    31: i32 a1 = s1 + 0\n    33: ecalli 7 // 'get_immutable_data'\n    35: fallthrough\n      : @2 (gas: 3)\n    36: a0 = i32 [0x20060]\n    41: u32 [0x20060] = 0\n    46: jump @4 if a0 <u s0\n      : @3 (gas: 5)\n    49: ra = u64 [sp + 0x10]\n    52: s0 = u64 [sp + 0x8]\n    55: s1 = u64 [sp]\n    57: sp = sp + 0x18\n    60: ret\n      : @4 (gas: 1)\n    62: trap\n      : @5 (gas: 2)\n    63: a1 = i32 [0x20060]\n    68: jump @46 if a1 == 0\n      : @6 (gas: 4)\n    72: a0 = 0x30090\n    77: i32 a0 = a0 + 0\n    79: ecalli 15 // 'set_immutable_data'\n    81: jump @46\n      : @7 (gas: 8)\n    84: sp = sp + 0xfffffffffffffff0\n    87: u64 [sp + 0x8] = ra\n    90: u64 [sp] = s0\n    92: a2 = a1\n    94: s0 = a0\n    96: a1 = 0x20\n    99: a0 = a2\n   101: ra = 2, jump @15\n      : @8 [@dyn 1] (gas: 100)\n   106: a1 = u8 [a0 + 0x1]\n   109: a2 = u8 [a0]\n   111: a3 = u8 [a0 + 0x2]\n   114: a4 = u8 [a0 + 0x3]\n   117: a1 = a1 << 0x8\n   120: a1 = a1 | a2\n   123: a3 = a3 << 0x10\n   126: a4 = a4 << 0x18\n   129: a3 = a3 | a4\n   132: a1 = a1 | a3\n   135: a2 = u8 [a0 + 0x5]\n   138: a3 = u8 [a0 + 0x4]\n   141: a4 = u8 [a0 + 0x6]\n   144: a5 = u8 [a0 + 0x7]\n   147: a2 = a2 << 0x8\n   150: a2 = a2 | a3\n   153: a4 = a4 << 0x10\n   156: a5 = a5 << 0x18\n   159: a4 = a4 | a5\n   162: a2 = a2 | a4\n   165: a2 = a2 << 0x20\n   168: t0 = a2 | a1\n   171: a2 = u8 [a0 + 0x9]\n   174: a3 = u8 [a0 + 0x8]\n   177: a4 = u8 [a0 + 0xa]\n   180: a5 = u8 [a0 + 0xb]\n   183: a2 = a2 << 0x8\n   186: a2 = a2 | a3\n   189: a4 = a4 << 0x10\n   192: a5 = a5 << 0x18\n   195: a4 = a4 | a5\n   198: a2 = a2 | a4\n   201: a3 = u8 [a0 + 0xd]\n   204: a4 = u8 [a0 + 0xc]\n   207: a5 = u8 [a0 + 0xe]\n   210: a1 = u8 [a0 + 0xf]\n   213: a3 = a3 << 0x8\n   216: a3 = a3 | a4\n   219: a5 = a5 << 0x10\n   222: a1 = a1 << 0x18\n   225: a1 = a1 | a5\n   228: a1 = a1 | a3\n   231: a1 = a1 << 0x20\n   234: t1 = a1 | a2\n   237: a1 = u8 [a0 + 0x11]\n   240: a3 = u8 [a0 + 0x10]\n   243: a4 = u8 [a0 + 0x12]\n   246: a5 = u8 [a0 + 0x13]\n   249: a1 = a1 << 0x8\n   252: a1 = a1 | a3\n   255: a4 = a4 << 0x10\n   258: a5 = a5 << 0x18\n   261: a4 = a4 | a5\n   264: a1 = a1 | a4\n   267: a3 = u8 [a0 + 0x15]\n   270: a4 = u8 [a0 + 0x14]\n   273: a5 = u8 [a0 + 0x16]\n   276: a2 = u8 [a0 + 0x17]\n   279: a3 = a3 << 0x8\n   282: a3 = a3 | a4\n   285: a5 = a5 << 0x10\n   288: a2 = a2 << 0x18\n   291: a2 = a2 | a5\n   294: a2 = a2 | a3\n   297: a2 = a2 << 0x20\n   300: a3 = a2 | a1\n   303: a1 = u8 [a0 + 0x19]\n   306: a2 = u8 [a0 + 0x18]\n   309: a4 = u8 [a0 + 0x1a]\n   312: a5 = u8 [a0 + 0x1b]\n   315: a1 = a1 << 0x8\n   318: a1 = a1 | a2\n   321: a4 = a4 << 0x10\n   324: a5 = a5 << 0x18\n   327: a4 = a4 | a5\n   330: a1 = a1 | a4\n   333: a2 = u8 [a0 + 0x1d]\n   336: a4 = u8 [a0 + 0x1c]\n   339: a5 = u8 [a0 + 0x1e]\n   342: a0 = u8 [a0 + 0x1f]\n   345: a2 = a2 << 0x8\n   348: a2 = a2 | a4\n   351: a5 = a5 << 0x10\n   354: a0 = a0 << 0x18\n   357: a0 = a0 | a5\n   360: a0 = a0 | a2\n   363: a0 = a0 << 0x20\n   366: a0 = a0 | a1\n   369: a0 = reverse a0\n   371: a1 = reverse a3\n   373: a2 = reverse t1\n   375: a3 = reverse t0\n   377: u64 [s0 + 0x18] = a3\n   380: u64 [s0 + 0x10] = a2\n   383: u64 [s0 + 0x8] = a1\n   386: u64 [s0] = a0\n   388: ra = u64 [sp + 0x8]\n   391: s0 = u64 [sp]\n   393: sp = sp + 0x10\n   396: ret\n      : @9 (gas: 12)\n   398: sp = sp + 0xffffffffffffffd8\n   401: u64 [sp + 0x20] = ra\n   404: u64 [sp + 0x18] = s0\n   407: u64 [sp + 0x10] = s1\n   410: a2 = u64 [a1]\n   412: u64 [sp + 0x8] = a2\n   415: a2 = u64 [a1 + 0x8]\n   418: u64 [sp] = a2\n   420: s0 = u64 [a1 + 0x10]\n   423: s1 = u64 [a1 + 0x18]\n   426: a1 = 0x20\n   429: ra = 4, jump @15\n      : @10 [@dyn 2] (gas: 71)\n   434: a1 = reverse s1\n   436: a2 = reverse s0\n   438: a3 = u64 [sp]\n   440: a3 = reverse a3\n   442: a4 = u64 [sp + 0x8]\n   445: a4 = reverse a4\n   447: u8 [a0 + 0x18] = a4\n   450: u8 [a0 + 0x10] = a3\n   453: u8 [a0 + 0x8] = a2\n   456: u8 [a0] = a1\n   458: a5 = a4 >> 0x38\n   461: u8 [a0 + 0x1f] = a5\n   464: a5 = a4 >> 0x30\n   467: u8 [a0 + 0x1e] = a5\n   470: a5 = a4 >> 0x28\n   473: u8 [a0 + 0x1d] = a5\n   476: a5 = a4 >> 0x20\n   479: u8 [a0 + 0x1c] = a5\n   482: a5 = a4 >> 0x18\n   485: u8 [a0 + 0x1b] = a5\n   488: a5 = a4 >> 0x10\n   491: u8 [a0 + 0x1a] = a5\n   494: a4 = a4 >> 0x8\n   497: u8 [a0 + 0x19] = a4\n   500: a4 = a3 >> 0x38\n   503: u8 [a0 + 0x17] = a4\n   506: a4 = a3 >> 0x30\n   509: u8 [a0 + 0x16] = a4\n   512: a4 = a3 >> 0x28\n   515: u8 [a0 + 0x15] = a4\n   518: a4 = a3 >> 0x20\n   521: u8 [a0 + 0x14] = a4\n   524: a4 = a3 >> 0x18\n   527: u8 [a0 + 0x13] = a4\n   530: a4 = a3 >> 0x10\n   533: u8 [a0 + 0x12] = a4\n   536: a3 = a3 >> 0x8\n   539: u8 [a0 + 0x11] = a3\n   542: a3 = a2 >> 0x38\n   545: u8 [a0 + 0xf] = a3\n   548: a3 = a2 >> 0x30\n   551: u8 [a0 + 0xe] = a3\n   554: a3 = a2 >> 0x28\n   557: u8 [a0 + 0xd] = a3\n   560: a3 = a2 >> 0x20\n   563: u8 [a0 + 0xc] = a3\n   566: a3 = a2 >> 0x18\n   569: u8 [a0 + 0xb] = a3\n   572: a3 = a2 >> 0x10\n   575: u8 [a0 + 0xa] = a3\n   578: a2 = a2 >> 0x8\n   581: u8 [a0 + 0x9] = a2\n   584: a2 = a1 >> 0x38\n   587: u8 [a0 + 0x7] = a2\n   590: a2 = a1 >> 0x30\n   593: u8 [a0 + 0x6] = a2\n   596: a2 = a1 >> 0x28\n   599: u8 [a0 + 0x5] = a2\n   602: a2 = a1 >> 0x20\n   605: u8 [a0 + 0x4] = a2\n   608: a2 = a1 >> 0x18\n   611: u8 [a0 + 0x3] = a2\n   614: a2 = a1 >> 0x10\n   617: u8 [a0 + 0x2] = a2\n   620: a1 = a1 >> 0x8\n   623: u8 [a0 + 0x1] = a1\n   626: ra = u64 [sp + 0x20]\n   629: s0 = u64 [sp + 0x18]\n   632: s1 = u64 [sp + 0x10]\n   635: sp = sp + 0x28\n   638: ret\n      : @11 (gas: 48)\n   640: sp = sp + 0xffffffffffffffa0\n   643: u64 [sp + 0x58] = ra\n   646: u64 [sp + 0x50] = s0\n   649: u64 [sp + 0x48] = s1\n   652: s0 = sp + 0x60\n   655: sp = sp & 0xffffffffffffffe0\n   658: s1 = a0\n   660: a0 = u64 [a1 + 0x18]\n   663: a2 = u64 [a1 + 0x10]\n   666: a3 = u64 [a1 + 0x8]\n   669: a1 = u64 [a1]\n   671: a0 = reverse a0\n   673: a2 = reverse a2\n   675: a3 = reverse a3\n   677: a1 = reverse a1\n   679: u64 [sp + 0x18] = a1\n   682: u64 [sp + 0x10] = a3\n   685: u64 [sp + 0x8] = a2\n   688: u64 [sp] = a0\n   690: u64 [sp + 56] = 0\n   693: u64 [sp + 48] = 0\n   696: u64 [sp + 40] = 0\n   699: u64 [sp + 32] = 0\n   702: u32 [sp + 64] = 0x20\n   706: i32 a1 = sp + 0\n   708: i32 a3 = sp + 0x20\n   711: i32 a4 = sp + 0x40\n   714: a2 = 0xffffffffffffffff\n   717: a0 = 0\n   719: ecalli 8 // 'get_storage'\n   721: a0 = u64 [sp + 0x38]\n   724: a1 = u64 [sp + 0x30]\n   727: a2 = u64 [sp + 0x28]\n   730: a3 = u64 [sp + 0x20]\n   733: a0 = reverse a0\n   735: a1 = reverse a1\n   737: a2 = reverse a2\n   739: a3 = reverse a3\n   741: u64 [s1 + 0x18] = a3\n   744: u64 [s1 + 0x10] = a2\n   747: u64 [s1 + 0x8] = a1\n   750: u64 [s1] = a0\n   752: sp = s0 + 0xffffffffffffffa0\n   755: ra = u64 [sp + 0x58]\n   758: s0 = u64 [sp + 0x50]\n   761: s1 = u64 [sp + 0x48]\n   764: sp = sp + 0x60\n   767: ret\n      : @12 (gas: 40)\n   769: sp = sp + 0xffffffffffffffa0\n   772: u64 [sp + 0x58] = ra\n   775: u64 [sp + 0x50] = s0\n   778: s0 = sp + 0x60\n   781: sp = sp & 0xffffffffffffffe0\n   784: t0 = u64 [a0]\n   786: a3 = u64 [a0 + 0x8]\n   789: a4 = u64 [a0 + 0x10]\n   792: a0 = u64 [a0 + 0x18]\n   795: t1 = u64 [a1]\n   797: a2 = u64 [a1 + 0x8]\n   800: a5 = u64 [a1 + 0x10]\n   803: a1 = u64 [a1 + 0x18]\n   806: t2 = reverse a0\n   808: a4 = reverse a4\n   810: a3 = reverse a3\n   812: a0 = reverse t0\n   814: t0 = reverse a1\n   816: a5 = reverse a5\n   818: a2 = reverse a2\n   820: a1 = reverse t1\n   822: u64 [sp + 0x18] = a0\n   825: u64 [sp + 0x10] = a3\n   828: u64 [sp + 0x8] = a4\n   831: u64 [sp] = t2\n   833: u64 [sp + 0x38] = a1\n   836: u64 [sp + 0x30] = a2\n   839: u64 [sp + 0x28] = a5\n   842: u64 [sp + 0x20] = t0\n   845: i32 a1 = sp + 0\n   847: i32 a3 = sp + 0x20\n   850: a2 = 0xffffffffffffffff\n   853: a4 = 0x20\n   856: a0 = 0\n   858: ecalli 16 // 'set_storage'\n   860: sp = s0 + 0xffffffffffffffa0\n   863: ra = u64 [sp + 0x58]\n   866: s0 = u64 [sp + 0x50]\n   869: sp = sp + 0x60\n   872: ret\n      : @13 (gas: 24)\n   874: sp = sp + 0xffffffffffffff60\n   878: u64 [sp + 0x98] = ra\n   882: u64 [sp + 0x90] = s0\n   886: u64 [sp + 0x88] = s1\n   890: s0 = sp + 0xa0\n   894: sp = sp & 0xffffffffffffffe0\n   897: a4 = u64 [a3]\n   899: u64 [sp + 0x38] = a4\n   902: a4 = u64 [a3 + 0x8]\n   905: u64 [sp + 0x30] = a4\n   908: a4 = u64 [a3 + 0x10]\n   911: u64 [sp + 0x28] = a4\n   914: a3 = u64 [a3 + 0x18]\n   917: u64 [sp + 0x20] = a3\n   920: a3 = u64 [a2]\n   922: u64 [sp + 0x18] = a3\n   925: a3 = u64 [a2 + 0x8]\n   928: u64 [sp + 0x10] = a3\n   931: a3 = u64 [a2 + 0x10]\n   934: u64 [sp + 0x8] = a3\n   937: a2 = u64 [a2 + 0x18]\n   940: u64 [sp] = a2\n   942: s1 = a1\n   944: ra = 6, jump @15\n      : @14 [@dyn 3] (gas: 35)\n   948: a1 = u64 [sp]\n   950: a1 = reverse a1\n   952: a2 = u64 [sp + 0x8]\n   955: a2 = reverse a2\n   957: a3 = u64 [sp + 0x10]\n   960: a3 = reverse a3\n   962: a4 = u64 [sp + 0x18]\n   965: a4 = reverse a4\n   967: u64 [sp + 0x58] = a4\n   970: u64 [sp + 0x50] = a3\n   973: u64 [sp + 0x48] = a2\n   976: u64 [sp + 0x40] = a1\n   979: a1 = u64 [sp + 0x20]\n   982: a1 = reverse a1\n   984: a2 = u64 [sp + 0x28]\n   987: a2 = reverse a2\n   989: a3 = u64 [sp + 0x30]\n   992: a3 = reverse a3\n   994: a4 = u64 [sp + 0x38]\n   997: a4 = reverse a4\n   999: u64 [sp + 0x78] = a4\n  1002: u64 [sp + 0x70] = a3\n  1005: u64 [sp + 0x68] = a2\n  1008: u64 [sp + 0x60] = a1\n  1011: i32 a2 = a0 + 0\n  1013: i32 a3 = s1 + 0\n  1015: i32 a0 = sp + 0x40\n  1018: a1 = 0x2\n  1021: ecalli 6 // 'deposit_event'\n  1023: sp = s0 + 0xffffffffffffff60\n  1027: ra = u64 [sp + 0x98]\n  1031: s0 = u64 [sp + 0x90]\n  1035: s1 = u64 [sp + 0x88]\n  1039: sp = sp + 0xa0\n  1043: ret\n      : @15 (gas: 2)\n  1045: i32 a2 = a0 >> 0x10\n  1048: jump @20 if a2 != 0\n      : @16 (gas: 4)\n  1051: a1 = a1 + a0\n  1054: i32 a1 = a1 + 0x1f\n  1057: a1 = a1 & 0xffffffffffffffe0\n  1060: jump @20 if a1 >u 65536\n      : @17 (gas: 3)\n  1066: a2 = 0x20068\n  1071: a3 = i32 [0x20068]\n  1076: jump @19 if a3 >=u a1\n      : @18 (gas: 2)\n  1079: u32 [0x20068] = a1\n  1084: fallthrough\n      : @19 (gas: 4)\n  1085: a1 = 0x20070\n  1090: i32 a0 = a0 + 0\n  1092: a0 = a0 + a1\n  1095: ret\n      : @20 (gas: 1)\n  1097: trap\n      : @21 (gas: 6)\n  1098: sp = sp + 0xfffffffffffffff0\n  1101: u64 [sp + 0x8] = ra\n  1104: u64 [sp] = s0\n  1106: s0 = a0 & 0x1\n  1109: ecalli 4 // 'call_data_size'\n  1111: fallthrough\n      : @22 (gas: 2)\n  1112: u32 [0x20064] = a0\n  1117: jump @24 if s0 == 0\n      : @23 (gas: 1)\n  1120: ra = 8, jump @25\n      : @24 [@dyn 4] (gas: 1)\n  1124: ra = 10, jump @49\n      : @25 [@dyn 5] (gas: 13)\n  1129: sp = sp + 0xfffffffffffffe80\n  1133: u64 [sp + 0x178] = ra\n  1137: u64 [sp + 0x170] = s0\n  1141: u64 [sp + 0x168] = s1\n  1145: s0 = sp + 0x180\n  1149: sp = sp & 0xffffffffffffffe0\n  1152: u64 [sp + 344] = 0\n  1156: u64 [sp + 336] = 0\n  1160: u64 [sp + 328] = 0\n  1164: u64 [sp + 320] = 0\n  1168: i32 a0 = sp + 0x140\n  1172: ecalli 17 // 'value_transferred'\n  1174: fallthrough\n      : @26 (gas: 8)\n  1175: a0 = u64 [sp + 0x150]\n  1179: a1 = u64 [sp + 0x158]\n  1183: a2 = u64 [sp + 0x148]\n  1187: a3 = u64 [sp + 0x140]\n  1191: a1 = a1 | a2\n  1194: a0 = a0 | a3\n  1197: a0 = a0 | a1\n  1200: jump @39 if a0 != 0\n      : @27 (gas: 15)\n  1204: s1 = i32 [0x20064]\n  1209: a0 = s1 << 0x20\n  1212: a0 = a0 >> 0x20\n  1215: a0 = a0 + 0x1f\n  1218: a0 = a0 & 0xffffffffffffffe0\n  1221: a1 = a0 + 0xc0\n  1225: a0 = a1 <u a0\n  1228: u64 [sp + 312] = 0\n  1232: u64 [sp + 0x120] = a1\n  1236: u64 [sp + 0x128] = a0\n  1240: a0 = 0 if a0 != 0\n  1242: u64 [sp + 0x130] = a0\n  1246: a0 = 0x40\n  1249: a1 = sp + 0x120\n  1253: ra = 12, jump @9\n      : @28 [@dyn 6] (gas: 3)\n  1258: a0 = 0xc0\n  1262: a1 = s1\n  1264: ra = 14, jump @15\n      : @29 [@dyn 7] (gas: 5)\n  1269: i32 a0 = a0 + 0\n  1271: a1 = s1\n  1273: a2 = 0\n  1275: ecalli 2 // 'call_data_copy'\n  1277: fallthrough\n      : @30 (gas: 1)\n  1278: jump @40 if s1 <u 64\n      : @31 (gas: 3)\n  1283: a0 = sp + 0x100\n  1287: a1 = 0xc0\n  1291: ra = 16, jump @7\n      : @32 [@dyn 8] (gas: 11)\n  1296: a0 = u64 [sp + 0x118]\n  1300: u64 [sp + 0x38] = a0\n  1303: a0 = u64 [sp + 0x110]\n  1307: u64 [sp + 0x30] = a0\n  1310: a0 = u64 [sp + 0x108]\n  1314: u64 [sp + 0x20] = a0\n  1317: a0 = u64 [sp + 0x100]\n  1321: u64 [sp + 0x18] = a0\n  1324: a0 = sp + 0xe0\n  1328: a1 = 0xe0\n  1332: ra = 18, jump @7\n      : @33 [@dyn 9] (gas: 11)\n  1337: a1 = u64 [sp + 0xf0]\n  1341: s1 = u64 [sp + 0xf8]\n  1345: a0 = 0x100000000\n  1355: a0 = a0 ^ a1\n  1358: a0 = a0 | s1\n  1361: u64 [sp + 0x28] = a1\n  1364: a1 = a1 >> 0x20\n  1367: a1 = a1 <u 0x1\n  1370: a1 = 0 if s1 != 0\n  1372: a1 = 0 if a0 == 0\n  1374: jump @41 if a1 == 0\n      : @34 (gas: 15)\n  1378: a0 = u64 [sp + 0xe8]\n  1382: u64 [sp + 0x8] = a0\n  1385: a0 = u64 [sp + 0xe0]\n  1389: u64 [sp + 0x10] = a0\n  1392: a0 = u64 [sp + 0x18]\n  1395: u64 [sp + 0xc0] = a0\n  1399: a0 = u64 [sp + 0x20]\n  1402: u64 [sp + 0xc8] = a0\n  1406: a0 = u64 [sp + 0x30]\n  1409: u64 [sp + 0xd0] = a0\n  1413: a0 = 0x80\n  1417: a1 = sp + 0xc0\n  1421: a2 = u64 [sp + 0x38]\n  1424: u64 [sp + 0xd8] = a2\n  1428: ra = 20, jump @9\n      : @35 [@dyn 10] (gas: 10)\n  1433: u64 [sp + 0xb8] = s1\n  1437: a0 = u64 [sp + 0x28]\n  1440: u64 [sp + 0xb0] = a0\n  1444: a0 = u64 [sp + 0x8]\n  1447: u64 [sp + 0xa8] = a0\n  1451: a0 = 0xa0\n  1455: a1 = sp + a0\n  1458: a2 = u64 [sp + 0x10]\n  1461: u64 [sp + 0xa0] = a2\n  1465: ra = 22, jump @9\n      : @36 [@dyn 11] (gas: 3)\n  1470: a0 = sp + 0x80\n  1474: a1 = 0x40\n  1477: ra = 24, jump @7\n      : @37 [@dyn 12] (gas: 12)\n  1482: a0 = u64 [sp + 0x98]\n  1486: a1 = u64 [sp + 0x90]\n  1490: a2 = u64 [sp + 0x88]\n  1494: s1 = u64 [sp + 0x80]\n  1498: a0 = a0 | a2\n  1501: a2 = s1 | a1\n  1504: a2 = a2 | a0\n  1507: a2 = a2 >> 0x20\n  1510: a0 = a0 | a1\n  1513: a0 = a0 << 0x20\n  1516: a0 = a0 | a2\n  1519: jump @42 if a0 == 0\n      : @38 (gas: 1)\n  1522: trap\n      : @39 (gas: 4)\n  1523: a1 = 0x20070\n  1528: i32 a1 = a1 + 0\n  1530: a0 = 0x1\n  1533: jump @48\n      : @40 (gas: 4)\n  1536: a1 = 0x20070\n  1541: i32 a1 = a1 + 0\n  1543: a0 = 0x1\n  1546: jump @48\n      : @41 (gas: 4)\n  1549: a1 = 0x20070\n  1554: i32 a1 = a1 + 0\n  1556: a0 = 0x1\n  1559: jump @48\n      : @42 (gas: 3)\n  1562: a0 = s1\n  1564: a1 = 0\n  1566: ra = 26, jump @15\n      : @43 [@dyn 13] (gas: 7)\n  1571: i32 a0 = a0 + 0\n  1573: a1 = 0\n  1575: a2 = 0\n  1577: ecalli 2 // 'call_data_copy'\n  1579: a0 = sp + 0x60\n  1582: a1 = 0x80\n  1586: ra = 28, jump @7\n      : @44 [@dyn 14] (gas: 13)\n  1591: a0 = u64 [sp + 0x78]\n  1594: a4 = 0x30090\n  1599: u64 [sp + 0x38] = a4\n  1602: a1 = u64 [sp + 0x70]\n  1605: a2 = u64 [sp + 0x68]\n  1608: a3 = u64 [sp + 0x60]\n  1611: u64 [0x300a8] = a0\n  1616: u64 [0x300a0] = a1\n  1621: u64 [0x30098] = a2\n  1626: u64 [0x30090] = a3\n  1631: a0 = sp + 0x40\n  1634: a1 = 0xa0\n  1638: ra = 30, jump @7\n      : @45 [@dyn 15] (gas: 10)\n  1643: a0 = u64 [sp + 0x58]\n  1646: a1 = u64 [sp + 0x50]\n  1649: a2 = u64 [sp + 0x48]\n  1652: a3 = u64 [sp + 0x40]\n  1655: a4 = u64 [sp + 0x38]\n  1658: u64 [a4 + 0x38] = a0\n  1661: u64 [a4 + 0x30] = a1\n  1664: u64 [a4 + 0x28] = a2\n  1667: u64 [a4 + 0x20] = a3\n  1670: jump @5\n      : @46 (gas: 3)\n  1673: a0 = s1\n  1675: a1 = 0\n  1677: ra = 32, jump @15\n      : @47 [@dyn 16] (gas: 6)\n  1682: i32 a1 = a0 + 0\n  1684: a0 = 0\n  1686: a2 = 0\n  1688: ra = 0x22\n  1691: ecalli 14 // 'seal_return'\n  1693: jump @49\n      : @48 (gas: 4)\n  1695: a2 = 0\n  1697: ra = 0x22\n  1700: ecalli 14 // 'seal_return'\n  1702: fallthrough\n      : @49 [@dyn 17] (gas: 18)\n  1703: sp = sp + 0xfffffffffffff808\n  1707: a0 = sp + 0x700\n  1711: u64 [a0 + 0xf0] = ra\n  1715: u64 [a0 + 0xe8] = s0\n  1719: u64 [a0 + 0xe0] = s1\n  1723: s0 = sp + 0x7f8\n  1727: sp = sp + 0xfffffffffffffc78\n  1731: sp = sp & 0xffffffffffffffe0\n  1734: s1 = sp\n  1736: a2 = s1 + 0x7f0\n  1740: u64 [a2 + 40] = 0\n  1743: u64 [a2 + 32] = 0\n  1746: u64 [a2 + 16] = 0x80\n  1751: a0 = 0x40\n  1754: a1 = s1 + 0x7ff\n  1758: a1 = a1 + 0x1\n  1761: u64 [a2 + 24] = 0\n  1764: ra = 36, jump @9\n      : @50 [@dyn 18] (gas: 4)\n  1769: a0 = 0x20064\n  1774: u64 [s1 + 0x78] = a0\n  1777: a0 = i32 [0x20064]\n  1782: jump @52 if a0 >=u 4\n      : @51 (gas: 1)\n  1786: jump @279\n      : @52 (gas: 6)\n  1789: a0 = s1 + 0x1000\n  1793: i32 a0 = a0 + 0xfffffffffffff820\n  1797: a1 = 0\n  1799: ra = 0x26\n  1802: ecalli 3 // 'call_data_load'\n  1804: fallthrough\n      : @53 [@dyn 19] (gas: 3)\n  1805: a2 = s1 + 0x7f0\n  1809: a0 = i32 [a2 + 0x4c]\n  1812: jump @55 if a0 != 2205082048\n      : @54 (gas: 1)\n  1819: jump @208\n      : @55 (gas: 1)\n  1822: jump @151 if a0 == 2399083160\n      : @56 (gas: 1)\n  1830: jump @178 if a0 == 2794781754\n      : @57 (gas: 1)\n  1838: jump @166 if a0 == 4142735383\n      : @58 (gas: 1)\n  1846: jump @82 if a0 == 4236126317\n      : @59 (gas: 1)\n  1854: jump @111 if a0 == 773316216\n      : @60 (gas: 1)\n  1862: jump @99 if a0 == 925171883\n      : @61 (gas: 1)\n  1870: jump @158 if a0 != 1302766934\n      : @62 (gas: 8)\n  1878: u64 [a2 + 456] = 0\n  1882: u64 [a2 + 448] = 0\n  1886: u64 [a2 + 440] = 0\n  1890: u64 [a2 + 432] = 0\n  1894: a0 = s1 + 0x1000\n  1898: i32 a0 = a0 + 0xfffffffffffff9a0\n  1902: ecalli 17 // 'value_transferred'\n  1904: fallthrough\n      : @63 (gas: 10)\n  1905: a3 = s1 + 0x7f0\n  1909: a4 = a3 + 0x100\n  1913: a0 = u64 [a4 + 0xc0]\n  1917: a1 = u64 [a4 + 0xc8]\n  1921: a2 = u64 [a4 + 0xb8]\n  1925: a3 = u64 [a4 + 0xb0]\n  1929: a1 = a1 | a2\n  1932: a0 = a0 | a3\n  1935: a0 = a0 | a1\n  1938: jump @65 if a0 == 0\n      : @64 (gas: 1)\n  1941: jump @215\n      : @65 (gas: 3)\n  1944: a0 = u64 [s1 + 0x78]\n  1947: a0 = i32 [a0]\n  1949: jump @67 if a0 >u 35\n      : @66 (gas: 1)\n  1953: jump @216\n      : @67 (gas: 6)\n  1956: a0 = s1 + 0x1000\n  1960: i32 a0 = a0 + 0xfffffffffffff9c0\n  1964: a1 = 0x4\n  1967: ra = 0x28\n  1970: ecalli 3 // 'call_data_load'\n  1972: fallthrough\n      : @68 [@dyn 20] (gas: 4)\n  1973: a4 = s1 + 0x7f0\n  1977: a1 = u64 [a4 + 0x1e0]\n  1981: a0 = u64 [a4 + 0x1e8]\n  1985: t0 = 42, jump @464\n      : @69 [@dyn 21] (gas: 1)\n  1990: jump @71 if a3 != 0\n      : @70 (gas: 1)\n  1993: jump @217\n      : @71 (gas: 10)\n  1996: a2 = u64 [a4 + 0x1d8]\n  2000: a3 = u64 [a4 + 0x1d0]\n  2004: a4 = s1 + 0x400\n  2008: u64 [a4 + 0x60] = a3\n  2011: u64 [a4 + 0x68] = a2\n  2014: u64 [a4 + 0x70] = a1\n  2017: a1 = s1 + 0x460\n  2021: u64 [a4 + 0x78] = a0\n  2024: a0 = 0\n  2026: ra = 44, jump @9\n      : @72 [@dyn 22] (gas: 7)\n  2031: u64 [s1 + 1112] = 0\n  2035: u64 [s1 + 1104] = 0\n  2039: u64 [s1 + 1096] = 0\n  2043: a0 = 0x20\n  2046: a1 = s1 + 0x440\n  2050: u64 [s1 + 1088] = 0\n  2054: ra = 46, jump @9\n      : @73 [@dyn 23] (gas: 2)\n  2059: a1 = i32 [0x20068]\n  2064: jump @75 if a1 >u 63\n      : @74 (gas: 2)\n  2068: u32 [0x20068] = 0x40\n  2074: fallthrough\n      : @75 (gas: 13)\n  2075: a0 = sp + 0xffffffffffffffe0\n  2078: a2 = a0 & 0xffffffffffffffe0\n  2081: u64 [s1 + 0x78] = a2\n  2084: sp = a2\n  2086: a0 = 0x20070\n  2091: i32 a0 = a0 + 0\n  2093: i32 a2 = a2 + 0\n  2095: a1 = 0x40\n  2098: ra = 0x30\n  2101: ecalli 9 // 'hash_keccak_256'\n  2103: a3 = u64 [s1 + 0x78]\n  2106: t0 = 0x32\n  2109: jump @460\n      : @76 [@dyn 24] (gas: 2)\n  2112: a3 = u64 [s1 + 0x78]\n  2115: t0 = 50, jump @460\n      : @77 [@dyn 25] (gas: 8)\n  2120: u64 [a4 + 0x208] = a3\n  2124: u64 [a4 + 0x200] = a2\n  2128: u64 [a4 + 0x1f8] = a1\n  2132: u64 [a4 + 0x1f0] = a0\n  2136: a0 = s1 + 0x420\n  2140: a1 = s1 + 0x7ff\n  2144: a1 = a1 + 0x1e1\n  2148: ra = 52, jump @11\n      : @78 [@dyn 26] (gas: 11)\n  2153: a0 = u64 [s1 + 0x438]\n  2157: u64 [s1 + 0x78] = a0\n  2160: a0 = u64 [s1 + 0x430]\n  2164: u64 [s1 + 0x70] = a0\n  2167: a0 = u64 [s1 + 0x428]\n  2171: u64 [s1 + 0x68] = a0\n  2174: a0 = u64 [s1 + 0x420]\n  2178: u64 [s1 + 0x60] = a0\n  2181: a0 = s1 + 0x400\n  2185: a1 = 0x40\n  2188: ra = 54, jump @7\n      : @79 [@dyn 27] (gas: 6)\n  2193: a4 = s1 + 0x400\n  2197: a0 = u64 [a4 + 0x18]\n  2200: a1 = u64 [a4 + 0x10]\n  2203: a2 = u64 [a4 + 0x8]\n  2206: a3 = u64 [a4]\n  2208: t0 = 56, jump @462\n      : @80 [@dyn 28] (gas: 1)\n  2213: jump @214 if a0 != 0\n      : @81 (gas: 11)\n  2217: a0 = u64 [s1 + 0x60]\n  2220: a2 = s1 + 0x300\n  2224: u64 [a2 + 0xe0] = a0\n  2228: a0 = u64 [s1 + 0x68]\n  2231: u64 [a2 + 0xe8] = a0\n  2235: a0 = u64 [s1 + 0x70]\n  2238: u64 [a2 + 0xf0] = a0\n  2242: a1 = s1 + 0x3e0\n  2246: a0 = u64 [s1 + 0x78]\n  2249: u64 [a2 + 0xf8] = a0\n  2253: jump @176\n      : @82 (gas: 8)\n  2256: u64 [a2 + 808] = 0\n  2260: u64 [a2 + 800] = 0\n  2264: u64 [a2 + 792] = 0\n  2268: u64 [a2 + 784] = 0\n  2272: a0 = s1 + 0x1000\n  2276: i32 a0 = a0 + 0xfffffffffffffb00\n  2280: ecalli 17 // 'value_transferred'\n  2282: fallthrough\n      : @83 (gas: 10)\n  2283: a3 = s1 + 0x7f0\n  2287: a4 = a3 + 0x300\n  2291: a0 = u64 [a4 + 0x20]\n  2294: a1 = u64 [a4 + 0x28]\n  2297: a2 = u64 [a4 + 0x18]\n  2300: a3 = u64 [a4 + 0x10]\n  2303: a1 = a1 | a2\n  2306: a0 = a0 | a3\n  2309: a0 = a0 | a1\n  2312: jump @218 if a0 != 0\n      : @84 (gas: 3)\n  2316: a0 = u64 [s1 + 0x78]\n  2319: a0 = i32 [a0]\n  2321: jump @219 if a0 <=u 35\n      : @85 (gas: 6)\n  2326: a0 = s1 + 0x1000\n  2330: i32 a0 = a0 + 0xfffffffffffffb20\n  2334: a1 = 0x4\n  2337: ra = 0x3a\n  2340: ecalli 3 // 'call_data_load'\n  2342: fallthrough\n      : @86 [@dyn 29] (gas: 4)\n  2343: a4 = s1 + 0x7f0\n  2347: a1 = u64 [a4 + 0x340]\n  2351: a0 = u64 [a4 + 0x348]\n  2355: t0 = 60, jump @464\n      : @87 [@dyn 30] (gas: 1)\n  2360: jump @220 if a3 == 0\n      : @88 (gas: 9)\n  2364: a2 = u64 [a4 + 0x338]\n  2368: a3 = u64 [a4 + 0x330]\n  2372: u64 [s1 + 0x7e0] = a3\n  2376: u64 [s1 + 0x7e8] = a2\n  2380: u64 [a4] = a1\n  2382: a1 = s1 + 0x7e0\n  2386: u64 [a4 + 0x8] = a0\n  2389: a0 = 0\n  2391: ra = 62, jump @9\n      : @89 [@dyn 31] (gas: 7)\n  2396: u64 [s1 + 2008] = 0\n  2400: u64 [s1 + 2000] = 0\n  2404: u64 [s1 + 1992] = 0\n  2408: a0 = 0x20\n  2411: a1 = s1 + 0x7c0\n  2415: u64 [s1 + 1984] = 0\n  2419: ra = 64, jump @9\n      : @90 [@dyn 32] (gas: 2)\n  2424: a1 = i32 [0x20068]\n  2429: jump @92 if a1 >u 63\n      : @91 (gas: 2)\n  2433: u32 [0x20068] = 0x40\n  2439: fallthrough\n      : @92 (gas: 13)\n  2440: a0 = sp + 0xffffffffffffffe0\n  2443: a2 = a0 & 0xffffffffffffffe0\n  2446: u64 [s1 + 0x78] = a2\n  2449: sp = a2\n  2451: a0 = 0x20070\n  2456: i32 a0 = a0 + 0\n  2458: i32 a2 = a2 + 0\n  2460: a1 = 0x40\n  2463: ra = 0x42\n  2466: ecalli 9 // 'hash_keccak_256'\n  2468: a3 = u64 [s1 + 0x78]\n  2471: t0 = 0x44\n  2474: jump @460\n      : @93 [@dyn 33] (gas: 2)\n  2477: a3 = u64 [s1 + 0x78]\n  2480: t0 = 68, jump @460\n      : @94 [@dyn 34] (gas: 9)\n  2485: a5 = a4 + 0x300\n  2489: u64 [a5 + 0x68] = a3\n  2492: u64 [a5 + 0x60] = a2\n  2495: u64 [a5 + 0x58] = a1\n  2498: u64 [a5 + 0x50] = a0\n  2501: a0 = s1 + 0x7a0\n  2505: a1 = s1 + 0x7ff\n  2509: a1 = a1 + 0x341\n  2513: ra = 70, jump @11\n      : @95 [@dyn 35] (gas: 11)\n  2518: a0 = u64 [s1 + 0x7b8]\n  2522: u64 [s1 + 0x78] = a0\n  2525: a0 = u64 [s1 + 0x7b0]\n  2529: u64 [s1 + 0x70] = a0\n  2532: a0 = u64 [s1 + 0x7a8]\n  2536: u64 [s1 + 0x68] = a0\n  2539: a0 = u64 [s1 + 0x7a0]\n  2543: u64 [s1 + 0x60] = a0\n  2546: a0 = s1 + 0x780\n  2550: a1 = 0x40\n  2553: ra = 72, jump @7\n      : @96 [@dyn 36] (gas: 6)\n  2558: a4 = s1 + 0x700\n  2562: a0 = u64 [a4 + 0x98]\n  2566: a1 = u64 [a4 + 0x90]\n  2570: a2 = u64 [a4 + 0x88]\n  2574: a3 = u64 [a4 + 0x80]\n  2578: t0 = 74, jump @462\n      : @97 [@dyn 37] (gas: 1)\n  2583: jump @214 if a0 != 0\n      : @98 (gas: 11)\n  2587: a0 = u64 [s1 + 0x60]\n  2590: a2 = s1 + 0x700\n  2594: u64 [a2 + 0x60] = a0\n  2597: a0 = u64 [s1 + 0x68]\n  2600: u64 [a2 + 0x68] = a0\n  2603: a0 = u64 [s1 + 0x70]\n  2606: u64 [a2 + 0x70] = a0\n  2609: a1 = s1 + 0x760\n  2613: a0 = u64 [s1 + 0x78]\n  2616: u64 [a2 + 0x78] = a0\n  2619: jump @176\n      : @99 (gas: 8)\n  2622: u64 [a2 + 424] = 0\n  2626: u64 [a2 + 416] = 0\n  2630: u64 [a2 + 408] = 0\n  2634: u64 [a2 + 400] = 0\n  2638: a0 = s1 + 0x1000\n  2642: i32 a0 = a0 + 0xfffffffffffff980\n  2646: ecalli 17 // 'value_transferred'\n  2648: fallthrough\n      : @100 (gas: 10)\n  2649: a3 = s1 + 0x7f0\n  2653: a4 = a3 + 0x100\n  2657: a0 = u64 [a4 + 0xa0]\n  2661: a1 = u64 [a4 + 0xa8]\n  2665: a2 = u64 [a4 + 0x98]\n  2669: a3 = u64 [a4 + 0x90]\n  2673: a1 = a1 | a2\n  2676: a0 = a0 | a3\n  2679: a0 = a0 | a1\n  2682: jump @221 if a0 != 0\n      : @101 (gas: 4)\n  2686: a0 = u64 [s1 + 0x78]\n  2689: a0 = i32 [a0]\n  2691: a1 = 0x3\n  2694: jump @222 if a1 >=u a0\n      : @102 (gas: 1)\n  2698: ra = 76, jump @0\n      : @103 [@dyn 38] (gas: 14)\n  2703: a1 = u64 [0x300b8]\n  2708: u64 [s1 + 0x78] = a1\n  2711: a1 = u64 [0x300b0]\n  2716: u64 [s1 + 0x70] = a1\n  2719: a0 = u32 [0x300c0]\n  2724: u64 [s1 + 0x68] = a0\n  2727: a0 = 0x30070\n  2732: u64 [s1 + 0x60] = a0\n  2735: i32 a0 = a0 + 0\n  2737: ra = 0x4e\n  2740: ecalli 5 // 'caller'\n  2742: a2 = u64 [s1 + 0x60]\n  2745: t0 = 0x50\n  2748: jump @466\n      : @104 [@dyn 39] (gas: 2)\n  2751: a2 = u64 [s1 + 0x60]\n  2754: t0 = 80, jump @466\n      : @105 [@dyn 40] (gas: 9)\n  2759: a2 = u64 [s1 + 0x68]\n  2762: a1 = a1 ^ a2\n  2765: a2 = u64 [s1 + 0x70]\n  2768: a0 = a0 ^ a2\n  2771: a0 = a0 | a1\n  2774: a1 = u64 [s1 + 0x78]\n  2777: a1 = a1 ^ a3\n  2780: a0 = a0 | a1\n  2783: jump @223 if a0 != 0\n      : @106 (gas: 2)\n  2787: a0 = s1 + 0x3a0\n  2791: ra = 82, jump @329\n      : @107 [@dyn 41] (gas: 11)\n  2796: a0 = u64 [s1 + 0x3b8]\n  2800: u64 [s1 + 0x78] = a0\n  2803: a0 = u64 [s1 + 0x3b0]\n  2807: u64 [s1 + 0x70] = a0\n  2810: a0 = u64 [s1 + 0x3a8]\n  2814: u64 [s1 + 0x68] = a0\n  2817: a0 = u64 [s1 + 0x3a0]\n  2821: u64 [s1 + 0x60] = a0\n  2824: a0 = s1 + 0x380\n  2828: a1 = 0x40\n  2831: ra = 84, jump @7\n      : @108 [@dyn 42] (gas: 6)\n  2836: a4 = s1 + 0x300\n  2840: a0 = u64 [a4 + 0x98]\n  2844: a1 = u64 [a4 + 0x90]\n  2848: a2 = u64 [a4 + 0x88]\n  2852: a3 = u64 [a4 + 0x80]\n  2856: t0 = 86, jump @462\n      : @109 [@dyn 43] (gas: 1)\n  2861: jump @214 if a0 != 0\n      : @110 (gas: 11)\n  2865: a0 = u64 [s1 + 0x60]\n  2868: a2 = s1 + 0x300\n  2872: u64 [a2 + 0x60] = a0\n  2875: a0 = u64 [s1 + 0x68]\n  2878: u64 [a2 + 0x68] = a0\n  2881: a0 = u64 [s1 + 0x70]\n  2884: u64 [a2 + 0x70] = a0\n  2887: a1 = s1 + 0x360\n  2891: a0 = u64 [s1 + 0x78]\n  2894: u64 [a2 + 0x78] = a0\n  2897: jump @176\n      : @111 (gas: 8)\n  2900: u64 [a2 + 200] = 0\n  2904: u64 [a2 + 192] = 0\n  2908: u64 [a2 + 184] = 0\n  2912: u64 [a2 + 176] = 0\n  2916: a0 = s1 + 0x1000\n  2920: i32 a0 = a0 + 0xfffffffffffff8a0\n  2924: ecalli 17 // 'value_transferred'\n  2926: fallthrough\n      : @112 (gas: 9)\n  2927: a3 = s1 + 0x7f0\n  2931: a0 = u64 [a3 + 0xc0]\n  2935: a1 = u64 [a3 + 0xc8]\n  2939: a2 = u64 [a3 + 0xb8]\n  2943: a3 = u64 [a3 + 0xb0]\n  2947: a1 = a1 | a2\n  2950: a0 = a0 | a3\n  2953: a0 = a0 | a1\n  2956: jump @227 if a0 != 0\n      : @113 (gas: 3)\n  2960: a0 = u64 [s1 + 0x78]\n  2963: a0 = i32 [a0]\n  2965: jump @228 if a0 <=u 35\n      : @114 (gas: 14)\n  2970: a0 = s1 + 0x1000\n  2974: i32 a0 = a0 + 0xfffffffffffff8c0\n  2978: a1 = 0x4\n  2981: ecalli 3 // 'call_data_load'\n  2983: a0 = s1 + 0x7f0\n  2987: a1 = u64 [a0 + 0xe8]\n  2991: u64 [s1 + 0x70] = a1\n  2994: a1 = u64 [a0 + 0xe0]\n  2998: u64 [s1 + 0x68] = a1\n  3001: a1 = u64 [a0 + 0xd8]\n  3005: u64 [s1 + 0x60] = a1\n  3008: a0 = u64 [a0 + 0xd0]\n  3012: u64 [s1 + 0x58] = a0\n  3015: ra = 88, jump @0\n      : @115 [@dyn 44] (gas: 12)\n  3020: a1 = u64 [0x300b8]\n  3025: u64 [s1 + 0x48] = a1\n  3028: a1 = u64 [0x300b0]\n  3033: u64 [s1 + 0x40] = a1\n  3036: a0 = u32 [0x300c0]\n  3041: u64 [s1 + 0x38] = a0\n  3044: a0 = 0x30070\n  3049: u64 [s1 + 0x78] = a0\n  3052: i32 a0 = a0 + 0\n  3054: u64 [s1 + 0x50] = a0\n  3057: ecalli 5 // 'caller'\n  3059: fallthrough\n      : @116 (gas: 23)\n  3060: a0 = u64 [s1 + 0x78]\n  3063: t0 = u64 [a0 + 0x8]\n  3066: a4 = u64 [a0]\n  3068: a5 = u32 [a0 + 0x10]\n  3071: a0 = reverse t0\n  3073: a1 = a0 >> 0x20\n  3076: a2 = reverse a4\n  3078: a3 = a2 << 0x20\n  3081: a1 = a1 | a3\n  3084: a0 = a0 << 0x20\n  3087: a3 = reverse a5\n  3089: a3 = a3 >> 0x20\n  3092: a0 = a0 | a3\n  3095: a2 = a2 >> 0x20\n  3098: a3 = u64 [s1 + 0x38]\n  3101: a2 = a2 ^ a3\n  3104: a3 = u64 [s1 + 0x40]\n  3107: a0 = a0 ^ a3\n  3110: a0 = a0 | a2\n  3113: a2 = u64 [s1 + 0x48]\n  3116: a1 = a1 ^ a2\n  3119: a0 = a0 | a1\n  3122: jump @229 if a0 != 0\n      : @117 (gas: 11)\n  3126: u64 [s1 + 0x20] = a5\n  3129: u64 [s1 + 0x28] = t0\n  3132: u64 [s1 + 0x30] = a4\n  3135: a0 = u64 [s1 + 0x68]\n  3138: a1 = u64 [s1 + 0x58]\n  3141: a0 = a0 | a1\n  3144: a1 = u64 [s1 + 0x70]\n  3147: a2 = u64 [s1 + 0x60]\n  3150: a1 = a1 | a2\n  3153: a0 = a0 | a1\n  3156: jump @233 if a0 == 0\n      : @118 (gas: 6)\n  3160: a0 = u64 [s1 + 0x50]\n  3163: ra = 0x5a\n  3166: ecalli 5 // 'caller'\n  3168: a2 = u64 [s1 + 0x78]\n  3171: t0 = 0x5c\n  3174: jump @459\n      : @119 [@dyn 45] (gas: 2)\n  3177: a2 = u64 [s1 + 0x78]\n  3180: t0 = 92, jump @459\n      : @120 [@dyn 46] (gas: 8)\n  3185: u64 [s1 + 824] = 0\n  3189: a2 = s1 + 0x300\n  3193: u64 [a2 + 0x30] = a1\n  3196: u64 [a2 + 0x28] = a0\n  3199: a1 = s1 + 0x320\n  3203: u64 [a2 + 0x20] = a3\n  3206: a0 = 0\n  3208: ra = 94, jump @9\n      : @121 [@dyn 47] (gas: 7)\n  3213: u64 [s1 + 792] = 0\n  3217: u64 [s1 + 784] = 0\n  3221: u64 [s1 + 776] = 0\n  3225: a0 = 0x20\n  3228: a1 = s1 + 0x300\n  3232: u64 [s1 + 768] = 0\n  3236: ra = 96, jump @9\n      : @122 [@dyn 48] (gas: 4)\n  3241: a0 = 0x20068\n  3246: u64 [s1 + 0x48] = a0\n  3249: a0 = i32 [0x20068]\n  3254: jump @124 if a0 >u 63\n      : @123 (gas: 3)\n  3258: a1 = u64 [s1 + 0x48]\n  3261: u32 [a1 + 0] = 0x40\n  3264: fallthrough\n      : @124 (gas: 15)\n  3265: a0 = sp + 0xffffffffffffffe0\n  3268: a2 = a0 & 0xffffffffffffffe0\n  3271: u64 [s1 + 0x40] = a2\n  3274: sp = a2\n  3276: a0 = 0x20070\n  3281: u64 [s1 + 0x18] = a0\n  3284: i32 a0 = a0 + 0\n  3286: i32 a2 = a2 + 0\n  3288: a1 = 0x40\n  3291: u64 [s1 + 0x38] = a0\n  3294: ra = 0x62\n  3297: ecalli 9 // 'hash_keccak_256'\n  3299: a3 = u64 [s1 + 0x40]\n  3302: t0 = 0x64\n  3305: jump @460\n      : @125 [@dyn 49] (gas: 2)\n  3308: a3 = u64 [s1 + 0x40]\n  3311: t0 = 100, jump @460\n      : @126 [@dyn 50] (gas: 8)\n  3316: u64 [a4 + 0x108] = a3\n  3320: u64 [a4 + 0x100] = a2\n  3324: u64 [a4 + 0xf8] = a1\n  3328: u64 [a4 + 0xf0] = a0\n  3332: a0 = s1 + 0x2e0\n  3336: a1 = s1 + 0x7ff\n  3340: a1 = a1 + 0xe1\n  3344: ra = 102, jump @11\n      : @127 [@dyn 51] (gas: 21)\n  3349: a1 = s1 + 0x200\n  3353: a0 = u64 [a1 + 0xf8]\n  3357: t0 = u64 [s1 + 0x2e0]\n  3361: a2 = u64 [a1 + 0xf0]\n  3365: a3 = u64 [a1 + 0xe8]\n  3369: a5 = u64 [s1 + 0x70]\n  3372: a4 = a0 ^ a5\n  3375: a1 = a0 <u a5\n  3378: a0 = u64 [s1 + 0x68]\n  3381: a5 = a2 <u a0\n  3384: a5 = a1 if a4 != 0\n  3387: a1 = u64 [s1 + 0x60]\n  3390: t1 = a3 ^ a1\n  3393: a3 = a3 <u a1\n  3396: a1 = u64 [s1 + 0x58]\n  3399: a1 = t0 <u a1\n  3402: a1 = a3 if t1 != 0\n  3405: a0 = a0 ^ a2\n  3408: a0 = a0 | a4\n  3411: a1 = a5 if a0 != 0\n  3414: jump @237 if a1 != 0\n      : @128 (gas: 5)\n  3418: a0 = u64 [s1 + 0x50]\n  3421: ra = 0x68\n  3424: ecalli 5 // 'caller'\n  3426: t0 = 0x6a\n  3429: jump @465\n      : @129 [@dyn 52] (gas: 1)\n  3432: t0 = 106, jump @465\n      : @130 [@dyn 53] (gas: 6)\n  3437: u64 [s1 + 728] = 0\n  3441: u64 [s1 + 0x2d0] = a2\n  3445: u64 [s1 + 0x2c8] = a0\n  3449: a0 = s1 + 0x2c0\n  3453: u64 [s1 + 0x2c0] = a1\n  3457: ra = 108, jump @378\n      : @131 [@dyn 54] (gas: 6)\n  3462: a0 = u64 [s1 + 0x50]\n  3465: ra = 0x6e\n  3468: ecalli 5 // 'caller'\n  3470: a2 = u64 [s1 + 0x78]\n  3473: t0 = 0x70\n  3476: jump @459\n      : @132 [@dyn 55] (gas: 2)\n  3479: a2 = u64 [s1 + 0x78]\n  3482: t0 = 112, jump @459\n      : @133 [@dyn 56] (gas: 8)\n  3487: u64 [s1 + 696] = 0\n  3491: a2 = s1 + 0x200\n  3495: u64 [a2 + 0xb0] = a1\n  3499: u64 [a2 + 0xa8] = a0\n  3503: a1 = s1 + 0x2a0\n  3507: u64 [a2 + 0xa0] = a3\n  3511: a0 = 0\n  3513: ra = 114, jump @9\n      : @134 [@dyn 57] (gas: 7)\n  3518: u64 [s1 + 664] = 0\n  3522: u64 [s1 + 656] = 0\n  3526: u64 [s1 + 648] = 0\n  3530: a0 = 0x20\n  3533: a1 = s1 + 0x280\n  3537: u64 [s1 + 640] = 0\n  3541: ra = 116, jump @9\n      : @135 [@dyn 58] (gas: 7)\n  3546: a0 = sp + 0xffffffffffffffe0\n  3549: a0 = a0 & 0xffffffffffffffe0\n  3552: u64 [s1 + 0x40] = a0\n  3555: sp = a0\n  3557: a0 = u64 [s1 + 0x48]\n  3560: a0 = i32 [a0]\n  3562: jump @137 if a0 >u 63\n      : @136 (gas: 3)\n  3566: a1 = u64 [s1 + 0x48]\n  3569: u32 [a1 + 0] = 0x40\n  3572: fallthrough\n      : @137 (gas: 12)\n  3573: a0 = sp + 0xffffffffffffffe0\n  3576: a0 = a0 & 0xffffffffffffffe0\n  3579: u64 [s1 + 0x10] = a0\n  3582: sp = a0\n  3584: i32 a2 = a0 + 0\n  3586: a1 = 0x40\n  3589: a0 = u64 [s1 + 0x38]\n  3592: ra = 0x76\n  3595: ecalli 9 // 'hash_keccak_256'\n  3597: a3 = u64 [s1 + 0x10]\n  3600: t0 = 0x78\n  3603: jump @468\n      : @138 [@dyn 59] (gas: 2)\n  3606: a3 = u64 [s1 + 0x10]\n  3609: t0 = 120, jump @468\n      : @139 [@dyn 60] (gas: 7)\n  3614: a1 = u64 [s1 + 0x40]\n  3617: u64 [a1 + 0x18] = a3\n  3620: u64 [a1 + 0x10] = a2\n  3623: u64 [a1 + 0x8] = a4\n  3626: u64 [a1] = a0\n  3628: a0 = s1 + 0x260\n  3632: ra = 122, jump @11\n      : @140 [@dyn 61] (gas: 20)\n  3637: a3 = u64 [s1 + 0x260]\n  3641: a0 = u64 [s1 + 0x268]\n  3645: a1 = u64 [s1 + 0x270]\n  3649: a2 = u64 [s1 + 0x278]\n  3653: a4 = u64 [s1 + 0x70]\n  3656: u64 [s1 + 0x218] = a4\n  3660: a4 = u64 [s1 + 0x68]\n  3663: u64 [s1 + 0x210] = a4\n  3667: a4 = u64 [s1 + 0x60]\n  3670: u64 [s1 + 0x208] = a4\n  3674: a4 = u64 [s1 + 0x58]\n  3677: u64 [s1 + 0x200] = a4\n  3681: u64 [s1 + 0x238] = a2\n  3685: u64 [s1 + 0x230] = a1\n  3689: u64 [s1 + 0x228] = a0\n  3693: a0 = s1 + 0x240\n  3697: a1 = s1 + 0x220\n  3701: a2 = s1 + 0x200\n  3705: u64 [s1 + 0x220] = a3\n  3709: ra = 124, jump @300\n      : @141 [@dyn 62] (gas: 15)\n  3714: a4 = s1 + 0x200\n  3718: a0 = u64 [a4 + 0x58]\n  3721: a1 = u64 [a4 + 0x50]\n  3724: a2 = u64 [a4 + 0x48]\n  3727: a3 = u64 [a4 + 0x40]\n  3730: a4 = s1 + 0x7f0\n  3734: a5 = a4 + 0x100\n  3738: u64 [a5 + 0x28] = a0\n  3741: u64 [a5 + 0x20] = a1\n  3744: u64 [a5 + 0x18] = a2\n  3747: u64 [a5 + 0x10] = a3\n  3750: a1 = s1 + 0x7ff\n  3754: a1 = a1 + 0x101\n  3758: a0 = u64 [s1 + 0x40]\n  3761: ra = 126, jump @12\n      : @142 [@dyn 63] (gas: 50)\n  3766: ecalli 11 // 'ref_time_left'\n  3768: a2 = u64 [s1 + 0x78]\n  3771: a1 = u64 [s1 + 0x28]\n  3774: u64 [a2 + 0x8] = a1\n  3777: a1 = u64 [s1 + 0x30]\n  3780: u64 [a2] = a1\n  3782: a1 = u64 [s1 + 0x20]\n  3785: u32 [a2 + 0x10] = a1\n  3788: a1 = u64 [s1 + 0x70]\n  3791: a3 = s1 + 0x7f0\n  3795: a4 = a3 + 0x100\n  3799: u64 [a4 + 0x48] = a1\n  3802: a1 = u64 [s1 + 0x68]\n  3805: u64 [a4 + 0x40] = a1\n  3808: a1 = u64 [s1 + 0x60]\n  3811: u64 [a4 + 0x38] = a1\n  3814: a1 = u64 [s1 + 0x58]\n  3817: u64 [a4 + 0x30] = a1\n  3820: u32 [a3 + 336] = 0\n  3824: a0 = a0 >u 0x8fc\n  3828: a1 = -a0\n  3830: u64 [a4 + 0x88] = a1\n  3834: u64 [a4 + 0x80] = a1\n  3838: u64 [a4 + 0x78] = a1\n  3841: u64 [a4 + 0x70] = a1\n  3844: a1 = a2 << 0x20\n  3847: a1 = a1 >> 0x20\n  3850: a0 = a0 << 0x23\n  3853: a0 = a0 | a1\n  3856: a1 = s1 + 0x7ff\n  3860: a1 = a1 + 0x121\n  3864: a1 = a1 << 0x20\n  3867: a1 = a1 >> 0x20\n  3870: a2 = s1 + 0x7ff\n  3874: a2 = a2 + 0x161\n  3878: a2 = a2 << 0x20\n  3881: a3 = a2 | a1\n  3884: a4 = u64 [s1 + 0x18]\n  3887: a4 = a4 << 0x20\n  3890: a4 = a4 >> 0x20\n  3893: a1 = s1 + 0x7ff\n  3897: a1 = a1 + 0x141\n  3901: a1 = a1 << 0x20\n  3904: a5 = a1 | a4\n  3907: a1 = 0xffffffffffffffff\n  3910: a2 = 0xffffffffffffffff\n  3913: ecalli 1 // 'call'\n  3915: u64 [s1 + 0x40] = a0\n  3918: a0 = s1 + 0x1e0\n  3922: ra = 128, jump @307\n      : @143 [@dyn 64] (gas: 2)\n  3928: a0 = u64 [s1 + 0x40]\n  3931: jump @238 if a0 != 0\n      : @144 (gas: 3)\n  3935: a0 = s1 + 0x1a0\n  3939: a1 = 0x40\n  3942: ra = 130, jump @7\n      : @145 [@dyn 65] (gas: 6)\n  3948: a4 = s1 + 0x100\n  3952: a0 = u64 [a4 + 0xb8]\n  3956: a1 = u64 [a4 + 0xb0]\n  3960: a2 = u64 [a4 + 0xa8]\n  3964: a3 = u64 [a4 + 0xa0]\n  3968: t0 = 132, jump @462\n      : @146 [@dyn 66] (gas: 1)\n  3974: jump @214 if a0 != 0\n      : @147 (gas: 12)\n  3978: a0 = u64 [s1 + 0x58]\n  3981: u64 [s1 + 0x180] = a0\n  3985: a0 = u64 [s1 + 0x60]\n  3988: u64 [s1 + 0x188] = a0\n  3992: a0 = u64 [s1 + 0x68]\n  3995: u64 [s1 + 0x190] = a0\n  3999: a1 = s1 + 0x180\n  4003: a0 = u64 [s1 + 0x70]\n  4006: u64 [s1 + 0x198] = a0\n  4010: a0 = a3\n  4012: u64 [s1 + 0x70] = a3\n  4015: ra = 134, jump @9\n      : @148 [@dyn 67] (gas: 6)\n  4021: a0 = u64 [s1 + 0x50]\n  4024: ra = 0x88\n  4028: ecalli 5 // 'caller'\n  4030: a2 = u64 [s1 + 0x78]\n  4033: t0 = 0x8a\n  4037: jump @467\n      : @149 [@dyn 68] (gas: 2)\n  4040: a2 = u64 [s1 + 0x78]\n  4043: t0 = 138, jump @467\n      : @150 [@dyn 69] (gas: 25)\n  4049: t0 = a1 | a0\n  4052: a3 = a3 >> 0x20\n  4055: a2 = reverse a2\n  4057: a1 = a2 << 0x20\n  4060: a1 = a1 | a3\n  4063: a2 = a2 >> 0x20\n  4066: u64 [s1 + 344] = 0\n  4070: a3 = u64 [0x20020]\n  4075: a4 = u64 [0x20028]\n  4080: a5 = u64 [0x20030]\n  4085: a0 = u64 [0x20038]\n  4090: u64 [s1 + 0x178] = a3\n  4094: a3 = s1 + 0x100\n  4098: u64 [a3 + 0x70] = a4\n  4101: u64 [a3 + 0x68] = a5\n  4104: u64 [a3 + 0x60] = a0\n  4107: u64 [a3 + 0x50] = a2\n  4110: u64 [a3 + 0x48] = a1\n  4113: a1 = 0x20\n  4116: a2 = s1 + 0x160\n  4120: a3 = s1 + 0x140\n  4124: u64 [s1 + 0x140] = t0\n  4128: a0 = u64 [s1 + 0x70]\n  4131: ra = 0xc2\n  4135: jump @13\n      : @151 (gas: 8)\n  4138: u64 [a2 + 648] = 0\n  4142: u64 [a2 + 640] = 0\n  4146: u64 [a2 + 632] = 0\n  4150: u64 [a2 + 624] = 0\n  4154: a0 = s1 + 0x1000\n  4158: i32 a0 = a0 + 0xfffffffffffffa60\n  4162: ecalli 17 // 'value_transferred'\n  4164: fallthrough\n      : @152 (gas: 10)\n  4165: a3 = s1 + 0x7f0\n  4169: a4 = a3 + 0x200\n  4173: a0 = u64 [a4 + 0x80]\n  4177: a1 = u64 [a4 + 0x88]\n  4181: a2 = u64 [a4 + 0x78]\n  4184: a3 = u64 [a4 + 0x70]\n  4187: a1 = a1 | a2\n  4190: a0 = a0 | a3\n  4193: a0 = a0 | a1\n  4196: jump @242 if a0 != 0\n      : @153 (gas: 3)\n  4200: a0 = u64 [s1 + 0x78]\n  4203: a0 = i32 [a0]\n  4205: jump @243 if a0 <=u 3\n      : @154 (gas: 3)\n  4210: a0 = s1 + 0x520\n  4214: a1 = 0x40\n  4217: ra = 140, jump @7\n      : @155 [@dyn 70] (gas: 10)\n  4223: a1 = s1 + 0x500\n  4227: a0 = u64 [a1 + 0x38]\n  4230: u64 [s1 + 0x78] = a0\n  4233: a0 = u64 [a1 + 0x30]\n  4236: u64 [s1 + 0x70] = a0\n  4239: a0 = u64 [a1 + 0x28]\n  4242: u64 [s1 + 0x60] = a0\n  4245: a0 = u64 [a1 + 0x20]\n  4248: u64 [s1 + 0x68] = a0\n  4251: ra = 142, jump @0\n      : @156 [@dyn 71] (gas: 13)\n  4257: a0 = u64 [s1 + 0x78]\n  4260: a1 = u64 [s1 + 0x60]\n  4263: a0 = a0 | a1\n  4266: a1 = u64 [s1 + 0x68]\n  4269: a4 = a1\n  4271: a2 = u64 [s1 + 0x70]\n  4274: a1 = a1 | a2\n  4277: a1 = a1 | a0\n  4280: a1 = a1 >> 0x20\n  4283: a0 = a0 | a2\n  4286: a0 = a0 << 0x20\n  4289: a0 = a0 | a1\n  4292: jump @214 if a0 != 0\n      : @157 (gas: 13)\n  4296: a2 = u64 [0x30090]\n  4301: a1 = u64 [0x30098]\n  4306: a3 = u64 [0x300a0]\n  4311: a0 = u64 [0x300a8]\n  4316: a5 = s1 + 0x500\n  4320: u64 [a5 + 0x18] = a0\n  4323: u64 [a5 + 0x10] = a3\n  4326: u64 [a5 + 0x8] = a1\n  4329: a1 = s1 + 0x500\n  4333: u64 [a5] = a2\n  4335: a0 = a4\n  4337: ra = 0xda\n  4341: jump @9\n      : @158 (gas: 1)\n  4344: jump @244 if a0 != 1872738698\n      : @159 (gas: 8)\n  4352: u64 [a2 + 552] = 0\n  4356: u64 [a2 + 544] = 0\n  4360: u64 [a2 + 536] = 0\n  4364: u64 [a2 + 528] = 0\n  4368: a0 = s1 + 0x1000\n  4372: i32 a0 = a0 + 0xfffffffffffffa00\n  4376: ecalli 17 // 'value_transferred'\n  4378: fallthrough\n      : @160 (gas: 10)\n  4379: a3 = s1 + 0x7f0\n  4383: a4 = a3 + 0x200\n  4387: a0 = u64 [a4 + 0x20]\n  4390: a1 = u64 [a4 + 0x28]\n  4393: a2 = u64 [a4 + 0x18]\n  4396: a3 = u64 [a4 + 0x10]\n  4399: a1 = a1 | a2\n  4402: a0 = a0 | a3\n  4405: a0 = a0 | a1\n  4408: jump @248 if a0 != 0\n      : @161 (gas: 3)\n  4412: a0 = u64 [s1 + 0x78]\n  4415: a0 = i32 [a0]\n  4417: jump @249 if a0 <=u 3\n      : @162 (gas: 16)\n  4422: a0 = s1 + 0x1000\n  4426: i32 a0 = a0 + 0xfffffffffffffa20\n  4430: ecalli 0 // 'balance'\n  4431: a0 = s1 + 0x7f0\n  4435: a2 = a0 + 0x200\n  4439: a1 = u64 [a2 + 0x48]\n  4442: u64 [s1 + 0x78] = a1\n  4445: a1 = u64 [a2 + 0x40]\n  4448: u64 [s1 + 0x70] = a1\n  4451: a1 = u64 [a2 + 0x38]\n  4454: u64 [s1 + 0x68] = a1\n  4457: a0 = u64 [a2 + 0x30]\n  4460: u64 [s1 + 0x60] = a0\n  4463: a0 = s1 + 0x4a0\n  4467: a1 = 0x40\n  4470: ra = 144, jump @7\n      : @163 [@dyn 72] (gas: 6)\n  4476: a4 = s1 + 0x400\n  4480: a0 = u64 [a4 + 0xb8]\n  4484: a1 = u64 [a4 + 0xb0]\n  4488: a2 = u64 [a4 + 0xa8]\n  4492: a3 = u64 [a4 + 0xa0]\n  4496: t0 = 146, jump @462\n      : @164 [@dyn 73] (gas: 1)\n  4502: jump @214 if a0 != 0\n      : @165 (gas: 11)\n  4506: a0 = u64 [s1 + 0x60]\n  4509: a2 = s1 + 0x400\n  4513: u64 [a2 + 0x80] = a0\n  4517: a0 = u64 [s1 + 0x68]\n  4520: u64 [a2 + 0x88] = a0\n  4524: a0 = u64 [s1 + 0x70]\n  4527: u64 [a2 + 0x90] = a0\n  4531: a1 = s1 + 0x480\n  4535: a0 = u64 [s1 + 0x78]\n  4538: u64 [a2 + 0x98] = a0\n  4542: jump @176\n      : @166 (gas: 8)\n  4545: u64 [a2 + 744] = 0\n  4549: u64 [a2 + 736] = 0\n  4553: u64 [a2 + 728] = 0\n  4557: u64 [a2 + 720] = 0\n  4561: a0 = s1 + 0x1000\n  4565: i32 a0 = a0 + 0xfffffffffffffac0\n  4569: ecalli 17 // 'value_transferred'\n  4571: fallthrough\n      : @167 (gas: 10)\n  4572: a3 = s1 + 0x7f0\n  4576: a4 = a3 + 0x200\n  4580: a0 = u64 [a4 + 0xe0]\n  4584: a1 = u64 [a4 + 0xe8]\n  4588: a2 = u64 [a4 + 0xd8]\n  4592: a3 = u64 [a4 + 0xd0]\n  4596: a1 = a1 | a2\n  4599: a0 = a0 | a3\n  4602: a0 = a0 | a1\n  4605: jump @250 if a0 != 0\n      : @168 (gas: 3)\n  4609: a0 = u64 [s1 + 0x78]\n  4612: a0 = i32 [a0]\n  4614: jump @251 if a0 <=u 35\n      : @169 (gas: 5)\n  4619: a0 = s1 + 0x1000\n  4623: i32 a0 = a0 + 0xfffffffffffffae0\n  4627: a1 = 0x4\n  4630: ecalli 3 // 'call_data_load'\n  4632: fallthrough\n      : @170 (gas: 11)\n  4633: a4 = s1 + 0x7f0\n  4637: a0 = u64 [a4 + 0x300]\n  4641: a2 = u64 [a4 + 0x308]\n  4645: a1 = 0x100000000\n  4655: a1 = a1 ^ a0\n  4658: a1 = a1 | a2\n  4661: a3 = a0 >> 0x20\n  4664: a3 = a3 <u 0x1\n  4667: a3 = 0 if a2 != 0\n  4669: a3 = 0 if a1 == 0\n  4671: jump @252 if a3 == 0\n      : @171 (gas: 9)\n  4675: a1 = u64 [a4 + 0x2f8]\n  4679: a3 = u64 [a4 + 0x2f0]\n  4683: u64 [s1 + 0x720] = a3\n  4687: u64 [s1 + 0x728] = a1\n  4691: u64 [s1 + 0x730] = a0\n  4695: a0 = s1 + 0x740\n  4699: a1 = s1 + 0x720\n  4703: u64 [s1 + 0x738] = a2\n  4707: ra = 148, jump @403\n      : @172 [@dyn 74] (gas: 11)\n  4713: a0 = u64 [s1 + 0x758]\n  4717: u64 [s1 + 0x78] = a0\n  4720: a0 = u64 [s1 + 0x750]\n  4724: u64 [s1 + 0x70] = a0\n  4727: a0 = u64 [s1 + 0x748]\n  4731: u64 [s1 + 0x68] = a0\n  4734: a0 = u64 [s1 + 0x740]\n  4738: u64 [s1 + 0x60] = a0\n  4741: a0 = s1 + 0x700\n  4745: a1 = 0x40\n  4748: ra = 150, jump @7\n      : @173 [@dyn 75] (gas: 6)\n  4754: a4 = s1 + 0x700\n  4758: a0 = u64 [a4 + 0x18]\n  4761: a1 = u64 [a4 + 0x10]\n  4764: a2 = u64 [a4 + 0x8]\n  4767: a3 = u64 [a4]\n  4769: t0 = 152, jump @462\n      : @174 [@dyn 76] (gas: 1)\n  4775: jump @214 if a0 != 0\n      : @175 (gas: 11)\n  4779: a0 = u64 [s1 + 0x60]\n  4782: a2 = s1 + 0x600\n  4786: u64 [a2 + 0xe0] = a0\n  4790: a0 = u64 [s1 + 0x68]\n  4793: u64 [a2 + 0xe8] = a0\n  4797: a0 = u64 [s1 + 0x70]\n  4800: u64 [a2 + 0xf0] = a0\n  4804: a1 = s1 + 0x6e0\n  4808: a0 = u64 [s1 + 0x78]\n  4811: u64 [a2 + 0xf8] = a0\n  4815: fallthrough\n      : @176 (gas: 3)\n  4816: a0 = a3\n  4818: u64 [s1 + 0x78] = a3\n  4821: ra = 154, jump @9\n      : @177 [@dyn 77] (gas: 4)\n  4827: a1 = 0x20\n  4830: a0 = u64 [s1 + 0x78]\n  4833: ra = 0xdc\n  4837: jump @15\n      : @178 (gas: 3)\n  4840: a0 = u64 [s1 + 0x78]\n  4843: a0 = i32 [a0]\n  4845: jump @253 if a0 <=u 35\n      : @179 (gas: 15)\n  4850: a0 = s1 + 0x1000\n  4854: i32 a0 = a0 + 0xfffffffffffffa80\n  4858: a1 = 0x4\n  4861: ecalli 3 // 'call_data_load'\n  4863: a1 = s1 + 0x7f0\n  4867: a2 = a1 + 0x200\n  4871: a0 = u64 [a2 + 0xa8]\n  4875: u64 [s1 + 0x70] = a0\n  4878: a0 = u64 [a2 + 0xa0]\n  4882: u64 [s1 + 0x68] = a0\n  4885: a0 = u64 [a2 + 0x98]\n  4889: u64 [s1 + 0x60] = a0\n  4892: a0 = u64 [a2 + 0x90]\n  4896: u64 [s1 + 0x58] = a0\n  4899: ra = 156, jump @0\n      : @180 [@dyn 78] (gas: 15)\n  4905: a1 = u64 [0x300b8]\n  4910: u64 [s1 + 0x48] = a1\n  4913: a1 = u64 [0x300b0]\n  4918: u64 [s1 + 0x40] = a1\n  4921: a0 = u32 [0x300c0]\n  4926: u64 [s1 + 0x38] = a0\n  4929: a0 = 0x30070\n  4934: u64 [s1 + 0x78] = a0\n  4937: i32 a0 = a0 + 0\n  4939: u64 [s1 + 0x50] = a0\n  4942: ra = 0x9e\n  4946: ecalli 5 // 'caller'\n  4948: a2 = u64 [s1 + 0x78]\n  4951: t0 = 0xa0\n  4955: jump @466\n      : @181 [@dyn 79] (gas: 2)\n  4958: a2 = u64 [s1 + 0x78]\n  4961: t0 = 160, jump @466\n      : @182 [@dyn 80] (gas: 9)\n  4967: a2 = u64 [s1 + 0x38]\n  4970: a1 = a1 ^ a2\n  4973: a2 = u64 [s1 + 0x40]\n  4976: a0 = a0 ^ a2\n  4979: a0 = a0 | a1\n  4982: a1 = u64 [s1 + 0x48]\n  4985: a1 = a1 ^ a3\n  4988: a0 = a0 | a1\n  4991: jump @254 if a0 != 0\n      : @183 (gas: 9)\n  4995: a0 = s1 + 0x7f0\n  4999: u64 [a0 + 712] = 0\n  5003: u64 [a0 + 704] = 0\n  5007: u64 [a0 + 696] = 0\n  5011: u64 [a0 + 688] = 0\n  5015: a0 = s1 + 0x1000\n  5019: i32 a0 = a0 + 0xfffffffffffffaa0\n  5023: ecalli 17 // 'value_transferred'\n  5025: fallthrough\n      : @184 (gas: 18)\n  5026: a2 = s1 + 0x7f0\n  5030: a3 = a2 + 0x200\n  5034: a0 = u64 [a3 + 0xc8]\n  5038: a1 = u64 [a3 + 0xb8]\n  5042: t0 = u64 [a2 + 0x2b0]\n  5046: a2 = u64 [a3 + 0xc0]\n  5050: t1 = u64 [s1 + 0x70]\n  5053: a0 = a0 ^ t1\n  5056: a3 = u64 [s1 + 0x60]\n  5059: a1 = a1 ^ a3\n  5062: a0 = a0 | a1\n  5065: a5 = u64 [s1 + 0x68]\n  5068: a1 = a2 ^ a5\n  5071: a4 = u64 [s1 + 0x58]\n  5074: a2 = t0 ^ a4\n  5077: a1 = a1 | a2\n  5080: a0 = a0 | a1\n  5083: jump @258 if a0 != 0\n      : @185 (gas: 4)\n  5087: a0 = a4 | a5\n  5090: a1 = a3 | t1\n  5093: a0 = a0 | a1\n  5096: jump @262 if a0 == 0\n      : @186 (gas: 5)\n  5100: a0 = u64 [s1 + 0x50]\n  5103: ra = 0xa2\n  5107: ecalli 5 // 'caller'\n  5109: t0 = 0xa4\n  5113: jump @465\n      : @187 [@dyn 81] (gas: 1)\n  5116: t0 = 164, jump @465\n      : @188 [@dyn 82] (gas: 6)\n  5122: u64 [s1 + 1688] = 0\n  5126: u64 [s1 + 0x690] = a2\n  5130: u64 [s1 + 0x688] = a0\n  5134: a0 = s1 + 0x680\n  5138: u64 [s1 + 0x680] = a1\n  5142: ra = 166, jump @378\n      : @189 [@dyn 83] (gas: 6)\n  5148: a0 = u64 [s1 + 0x50]\n  5151: ra = 0xa8\n  5155: ecalli 5 // 'caller'\n  5157: a2 = u64 [s1 + 0x78]\n  5160: t0 = 0xaa\n  5164: jump @459\n      : @190 [@dyn 84] (gas: 2)\n  5167: a2 = u64 [s1 + 0x78]\n  5170: t0 = 170, jump @459\n      : @191 [@dyn 85] (gas: 8)\n  5176: u64 [s1 + 1656] = 0\n  5180: a2 = s1 + 0x600\n  5184: u64 [a2 + 0x70] = a1\n  5187: u64 [a2 + 0x68] = a0\n  5190: a1 = s1 + 0x660\n  5194: u64 [a2 + 0x60] = a3\n  5197: a0 = 0\n  5199: ra = 172, jump @9\n      : @192 [@dyn 86] (gas: 7)\n  5205: u64 [s1 + 1624] = 0\n  5209: u64 [s1 + 1616] = 0\n  5213: u64 [s1 + 1608] = 0\n  5217: a0 = 0x20\n  5220: a1 = s1 + 0x640\n  5224: u64 [s1 + 1600] = 0\n  5228: ra = 174, jump @9\n      : @193 [@dyn 87] (gas: 7)\n  5234: a0 = sp + 0xffffffffffffffe0\n  5237: a0 = a0 & 0xffffffffffffffe0\n  5240: u64 [s1 + 0x48] = a0\n  5243: sp = a0\n  5245: a2 = 0x20068\n  5250: a0 = i32 [0x20068]\n  5255: jump @195 if a0 >u 63\n      : @194 (gas: 2)\n  5259: u32 [0x20068] = 0x40\n  5265: fallthrough\n      : @195 (gas: 15)\n  5266: u64 [s1 + 0x30] = a2\n  5269: a0 = sp + 0xffffffffffffffe0\n  5272: a2 = a0 & 0xffffffffffffffe0\n  5275: u64 [s1 + 0x40] = a2\n  5278: sp = a2\n  5280: a0 = 0x20070\n  5285: i32 a0 = a0 + 0\n  5287: i32 a2 = a2 + 0\n  5289: a1 = 0x40\n  5292: u64 [s1 + 0x38] = a0\n  5295: ra = 0xb0\n  5299: ecalli 9 // 'hash_keccak_256'\n  5301: a3 = u64 [s1 + 0x40]\n  5304: t0 = 0xb2\n  5308: jump @468\n      : @196 [@dyn 88] (gas: 2)\n  5311: a3 = u64 [s1 + 0x40]\n  5314: t0 = 178, jump @468\n      : @197 [@dyn 89] (gas: 7)\n  5320: a1 = u64 [s1 + 0x48]\n  5323: u64 [a1 + 0x18] = a3\n  5326: u64 [a1 + 0x10] = a2\n  5329: u64 [a1 + 0x8] = a4\n  5332: u64 [a1] = a0\n  5334: a0 = s1 + 0x620\n  5338: ra = 180, jump @11\n      : @198 [@dyn 90] (gas: 38)\n  5344: t2 = u64 [s1 + 0x638]\n  5348: a1 = s1 + 0x600\n  5352: a0 = u64 [a1 + 0x30]\n  5355: a4 = u64 [a1 + 0x20]\n  5358: a5 = u64 [a1 + 0x28]\n  5361: a1 = sp + 0xffffffffffffffe0\n  5364: a1 = a1 & 0xffffffffffffffe0\n  5367: sp = a1\n  5369: a3 = u64 [s1 + 0x60]\n  5372: a3 = a3 + a5\n  5375: t0 = u64 [s1 + 0x58]\n  5378: t0 = t0 + a4\n  5381: a4 = t0 <u a4\n  5384: a3 = a3 + a4\n  5387: t1 = a3 ^ a5\n  5390: a2 = a3 <u a5\n  5393: a2 = a4 if t1 == 0\n  5396: a4 = u64 [s1 + 0x68]\n  5399: a4 = a4 + a0\n  5402: a5 = a4 + a2\n  5405: t1 = a5 <u a4\n  5408: ra = u64 [s1 + 0x70]\n  5411: ra = ra + t2\n  5414: a4 = a4 <u a0\n  5417: a4 = a4 + ra\n  5420: ra = a4 + t1\n  5423: t1 = a5 <u a0\n  5426: a4 = t2 ^ ra\n  5429: t2 = ra <u t2\n  5432: t2 = t1 if a4 == 0\n  5435: a0 = a0 ^ a5\n  5438: a0 = a0 | a4\n  5441: t2 = a2 if a0 == 0\n  5444: u64 [a1 + 0x10] = a5\n  5447: u64 [a1 + 0x8] = a3\n  5450: u64 [a1] = t0\n  5452: u64 [a1 + 0x18] = ra\n  5455: jump @267 if t2 != 0\n      : @199 (gas: 2)\n  5459: a0 = u64 [s1 + 0x48]\n  5462: ra = 182, jump @12\n      : @200 [@dyn 91] (gas: 3)\n  5468: a0 = s1 + 0x600\n  5472: a1 = 0x40\n  5475: ra = 184, jump @7\n      : @201 [@dyn 92] (gas: 6)\n  5481: a4 = s1 + 0x600\n  5485: a0 = u64 [a4 + 0x18]\n  5488: a1 = u64 [a4 + 0x10]\n  5491: a2 = u64 [a4 + 0x8]\n  5494: a3 = u64 [a4]\n  5496: t0 = 186, jump @462\n      : @202 [@dyn 93] (gas: 1)\n  5502: jump @214 if a0 != 0\n      : @203 (gas: 12)\n  5506: a0 = u64 [s1 + 0x58]\n  5509: u64 [s1 + 0x5e0] = a0\n  5513: a0 = u64 [s1 + 0x60]\n  5516: u64 [s1 + 0x5e8] = a0\n  5520: a0 = u64 [s1 + 0x68]\n  5523: u64 [s1 + 0x5f0] = a0\n  5527: a1 = s1 + 0x5e0\n  5531: a0 = u64 [s1 + 0x70]\n  5534: u64 [s1 + 0x5f8] = a0\n  5538: a0 = a3\n  5540: u64 [s1 + 0x70] = a3\n  5543: ra = 188, jump @9\n      : @204 [@dyn 94] (gas: 6)\n  5549: a0 = u64 [s1 + 0x50]\n  5552: ra = 0xbe\n  5556: ecalli 5 // 'caller'\n  5558: a2 = u64 [s1 + 0x78]\n  5561: t0 = 0xc0\n  5565: jump @467\n      : @205 [@dyn 95] (gas: 2)\n  5568: a2 = u64 [s1 + 0x78]\n  5571: t0 = 192, jump @467\n      : @206 [@dyn 96] (gas: 24)\n  5577: t0 = a1 | a0\n  5580: a3 = a3 >> 0x20\n  5583: a2 = reverse a2\n  5585: a1 = a2 << 0x20\n  5588: a1 = a1 | a3\n  5591: a2 = a2 >> 0x20\n  5594: u64 [s1 + 1464] = 0\n  5598: a3 = u64 [0x20000]\n  5603: a4 = u64 [0x20008]\n  5608: a5 = u64 [0x20010]\n  5613: a0 = u64 [0x20018]\n  5618: u64 [s1 + 0x5d8] = a3\n  5622: a3 = s1 + 0x500\n  5626: u64 [a3 + 0xd0] = a4\n  5630: u64 [a3 + 0xc8] = a5\n  5634: u64 [a3 + 0xc0] = a0\n  5638: u64 [a3 + 0xb0] = a2\n  5642: u64 [a3 + 0xa8] = a1\n  5646: a1 = 0x20\n  5649: a2 = s1 + 0x5c0\n  5653: a3 = s1 + 0x5a0\n  5657: u64 [s1 + 0x5a0] = t0\n  5661: a0 = u64 [s1 + 0x70]\n  5664: ra = 194, jump @13\n      : @207 [@dyn 97] (gas: 5)\n  5670: a0 = 0\n  5672: a1 = u64 [s1 + 0x38]\n  5675: a2 = 0\n  5677: ecalli 14 // 'seal_return'\n  5679: jump @282\n      : @208 (gas: 8)\n  5682: u64 [a2 + 616] = 0\n  5686: u64 [a2 + 608] = 0\n  5690: u64 [a2 + 600] = 0\n  5694: u64 [a2 + 592] = 0\n  5698: a0 = s1 + 0x1000\n  5702: i32 a0 = a0 + 0xfffffffffffffa40\n  5706: ecalli 17 // 'value_transferred'\n  5708: fallthrough\n      : @209 (gas: 10)\n  5709: a3 = s1 + 0x7f0\n  5713: a4 = a3 + 0x200\n  5717: a0 = u64 [a4 + 0x60]\n  5720: a1 = u64 [a4 + 0x68]\n  5723: a2 = u64 [a4 + 0x58]\n  5726: a3 = u64 [a4 + 0x50]\n  5729: a1 = a1 | a2\n  5732: a0 = a0 | a3\n  5735: a0 = a0 | a1\n  5738: jump @272 if a0 != 0\n      : @210 (gas: 3)\n  5742: a0 = u64 [s1 + 0x78]\n  5745: a0 = i32 [a0]\n  5747: jump @273 if a0 <=u 3\n      : @211 (gas: 3)\n  5752: a0 = s1 + 0x4e0\n  5756: a1 = 0x40\n  5759: ra = 196, jump @7\n      : @212 [@dyn 98] (gas: 10)\n  5765: a1 = s1 + 0x400\n  5769: a0 = u64 [a1 + 0xf8]\n  5773: u64 [s1 + 0x78] = a0\n  5776: a0 = u64 [a1 + 0xf0]\n  5780: u64 [s1 + 0x70] = a0\n  5783: a0 = u64 [a1 + 0xe8]\n  5787: u64 [s1 + 0x60] = a0\n  5790: a0 = u64 [a1 + 0xe0]\n  5794: u64 [s1 + 0x68] = a0\n  5797: ra = 198, jump @0\n      : @213 [@dyn 99] (gas: 13)\n  5803: a0 = u64 [s1 + 0x78]\n  5806: a1 = u64 [s1 + 0x60]\n  5809: a0 = a0 | a1\n  5812: a1 = u64 [s1 + 0x68]\n  5815: a3 = a1\n  5817: a2 = u64 [s1 + 0x70]\n  5820: a1 = a1 | a2\n  5823: a1 = a1 | a0\n  5826: a1 = a1 >> 0x20\n  5829: a0 = a0 | a2\n  5832: a0 = a0 << 0x20\n  5835: a0 = a0 | a1\n  5838: jump @274 if a0 == 0\n      : @214 (gas: 1)\n  5842: trap\n      : @215 (gas: 6)\n  5843: a1 = 0x20070\n  5848: i32 a1 = a1 + 0\n  5850: a0 = 0x1\n  5853: a2 = 0\n  5855: ecalli 14 // 'seal_return'\n  5857: jump @282\n      : @216 (gas: 6)\n  5860: a1 = 0x20070\n  5865: i32 a1 = a1 + 0\n  5867: a0 = 0x1\n  5870: a2 = 0\n  5872: ecalli 14 // 'seal_return'\n  5874: jump @282\n      : @217 (gas: 6)\n  5877: a1 = 0x20070\n  5882: i32 a1 = a1 + 0\n  5884: a0 = 0x1\n  5887: a2 = 0\n  5889: ecalli 14 // 'seal_return'\n  5891: jump @282\n      : @218 (gas: 6)\n  5894: a1 = 0x20070\n  5899: i32 a1 = a1 + 0\n  5901: a0 = 0x1\n  5904: a2 = 0\n  5906: ecalli 14 // 'seal_return'\n  5908: jump @282\n      : @219 (gas: 6)\n  5911: a1 = 0x20070\n  5916: i32 a1 = a1 + 0\n  5918: a0 = 0x1\n  5921: a2 = 0\n  5923: ecalli 14 // 'seal_return'\n  5925: jump @282\n      : @220 (gas: 6)\n  5928: a1 = 0x20070\n  5933: i32 a1 = a1 + 0\n  5935: a0 = 0x1\n  5938: a2 = 0\n  5940: ecalli 14 // 'seal_return'\n  5942: jump @282\n      : @221 (gas: 6)\n  5945: a1 = 0x20070\n  5950: i32 a1 = a1 + 0\n  5952: a0 = 0x1\n  5955: a2 = 0\n  5957: ecalli 14 // 'seal_return'\n  5959: jump @282\n      : @222 (gas: 6)\n  5962: a1 = 0x20070\n  5967: i32 a1 = a1 + 0\n  5969: a0 = 0x1\n  5972: a2 = 0\n  5974: ecalli 14 // 'seal_return'\n  5976: jump @282\n      : @223 (gas: 8)\n  5979: u64 [s1 + 976] = 0\n  5983: u64 [s1 + 968] = 0\n  5987: u64 [s1 + 960] = 0\n  5991: a0 = 0xc39fa00400000000\n  6001: a1 = s1 + 0x3c0\n  6005: u64 [s1 + 0x3d8] = a0\n  6009: a0 = 0\n  6011: ra = 200, jump @9\n      : @224 [@dyn 100] (gas: 2)\n  6017: a1 = i32 [0x20068]\n  6022: jump @226 if a1 >u 31\n      : @225 (gas: 3)\n  6026: u32 [0x20068] = 0x20\n  6032: a1 = 0x20070\n  6037: jump @266\n      : @226 (gas: 2)\n  6040: a1 = 0x20070\n  6045: jump @266\n      : @227 (gas: 6)\n  6048: a1 = 0x20070\n  6053: i32 a1 = a1 + 0\n  6055: a0 = 0x1\n  6058: a2 = 0\n  6060: ecalli 14 // 'seal_return'\n  6062: jump @282\n      : @228 (gas: 6)\n  6065: a1 = 0x20070\n  6070: i32 a1 = a1 + 0\n  6072: a0 = 0x1\n  6075: a2 = 0\n  6077: ecalli 14 // 'seal_return'\n  6079: jump @282\n      : @229 (gas: 8)\n  6082: u64 [s1 + 848] = 0\n  6086: u64 [s1 + 840] = 0\n  6090: u64 [s1 + 832] = 0\n  6094: a0 = 0xc39fa00400000000\n  6104: a1 = s1 + 0x340\n  6108: u64 [s1 + 0x358] = a0\n  6112: a0 = 0\n  6114: ra = 202, jump @9\n      : @230 [@dyn 101] (gas: 2)\n  6120: a1 = i32 [0x20068]\n  6125: jump @232 if a1 >u 31\n      : @231 (gas: 3)\n  6129: u32 [0x20068] = 0x20\n  6135: a1 = 0x20070\n  6140: jump @266\n      : @232 (gas: 2)\n  6143: a1 = 0x20070\n  6148: jump @266\n      : @233 (gas: 8)\n  6151: u64 [s1 + 272] = 0\n  6155: u64 [s1 + 264] = 0\n  6159: u64 [s1 + 256] = 0\n  6163: a0 = 0x2c5211c600000000\n  6173: a1 = s1 + 0x100\n  6177: u64 [s1 + 0x118] = a0\n  6181: a0 = 0\n  6183: ra = 204, jump @9\n      : @234 [@dyn 102] (gas: 2)\n  6189: a1 = i32 [0x20068]\n  6194: jump @236 if a1 >u 31\n      : @235 (gas: 3)\n  6198: u32 [0x20068] = 0x20\n  6204: a1 = 0x20070\n  6209: jump @266\n      : @236 (gas: 2)\n  6212: a1 = 0x20070\n  6217: jump @266\n      : @237 (gas: 9)\n  6220: u64 [s1 + 304] = 0\n  6224: u64 [s1 + 296] = 0\n  6228: u64 [s1 + 288] = 0\n  6232: a0 = 0xf4d678b800000000\n  6242: a1 = s1 + 0x120\n  6246: u64 [s1 + 0x138] = a0\n  6250: a0 = 0\n  6252: ra = 0xce\n  6256: jump @9\n      : @238 (gas: 8)\n  6259: u64 [s1 + 464] = 0\n  6263: u64 [s1 + 456] = 0\n  6267: u64 [s1 + 448] = 0\n  6271: a0 = 0x90b8ec1800000000\n  6281: a1 = s1 + 0x1c0\n  6285: u64 [s1 + 0x1d8] = a0\n  6289: a0 = 0\n  6291: ra = 206, jump @9\n      : @239 [@dyn 103] (gas: 3)\n  6297: a0 = u64 [s1 + 0x48]\n  6300: a0 = i32 [a0]\n  6302: jump @241 if a0 >u 31\n      : @240 (gas: 7)\n  6306: a1 = u64 [s1 + 0x48]\n  6309: u32 [a1 + 0] = 0x20\n  6312: a0 = 0x1\n  6315: a2 = 0x4\n  6318: a1 = u64 [s1 + 0x38]\n  6321: ecalli 14 // 'seal_return'\n  6323: jump @272\n      : @241 (gas: 5)\n  6326: a0 = 0x1\n  6329: a2 = 0x4\n  6332: a1 = u64 [s1 + 0x38]\n  6335: ecalli 14 // 'seal_return'\n  6337: jump @272\n      : @242 (gas: 6)\n  6340: a1 = 0x20070\n  6345: i32 a1 = a1 + 0\n  6347: a0 = 0x1\n  6350: a2 = 0\n  6352: ecalli 14 // 'seal_return'\n  6354: jump @282\n      : @243 (gas: 6)\n  6357: a1 = 0x20070\n  6362: i32 a1 = a1 + 0\n  6364: a0 = 0x1\n  6367: a2 = 0\n  6369: ecalli 14 // 'seal_return'\n  6371: jump @282\n      : @244 (gas: 1)\n  6374: jump @278 if a0 != 753512109\n      : @245 (gas: 9)\n  6382: a0 = s1 + 0x7f0\n  6386: u64 [a0 + 104] = 0\n  6389: u64 [a0 + 96] = 0\n  6392: u64 [a0 + 88] = 0\n  6395: u64 [a0 + 80] = 0\n  6398: a0 = s1 + 0x1000\n  6402: i32 a0 = a0 + 0xfffffffffffff840\n  6406: ecalli 17 // 'value_transferred'\n  6408: fallthrough\n      : @246 (gas: 9)\n  6409: a3 = s1 + 0x7f0\n  6413: a0 = u64 [a3 + 0x60]\n  6416: a1 = u64 [a3 + 0x68]\n  6419: a2 = u64 [a3 + 0x58]\n  6422: a3 = u64 [a3 + 0x50]\n  6425: a1 = a1 | a2\n  6428: a0 = a0 | a3\n  6431: a0 = a0 | a1\n  6434: jump @283 if a0 == 0\n      : @247 (gas: 6)\n  6438: a1 = 0x20070\n  6443: i32 a1 = a1 + 0\n  6445: a0 = 0x1\n  6448: a2 = 0\n  6450: ecalli 14 // 'seal_return'\n  6452: jump @282\n      : @248 (gas: 6)\n  6455: a1 = 0x20070\n  6460: i32 a1 = a1 + 0\n  6462: a0 = 0x1\n  6465: a2 = 0\n  6467: ecalli 14 // 'seal_return'\n  6469: jump @282\n      : @249 (gas: 6)\n  6472: a1 = 0x20070\n  6477: i32 a1 = a1 + 0\n  6479: a0 = 0x1\n  6482: a2 = 0\n  6484: ecalli 14 // 'seal_return'\n  6486: jump @282\n      : @250 (gas: 6)\n  6489: a1 = 0x20070\n  6494: i32 a1 = a1 + 0\n  6496: a0 = 0x1\n  6499: a2 = 0\n  6501: ecalli 14 // 'seal_return'\n  6503: jump @282\n      : @251 (gas: 6)\n  6506: a1 = 0x20070\n  6511: i32 a1 = a1 + 0\n  6513: a0 = 0x1\n  6516: a2 = 0\n  6518: ecalli 14 // 'seal_return'\n  6520: jump @282\n      : @252 (gas: 6)\n  6523: a1 = 0x20070\n  6528: i32 a1 = a1 + 0\n  6530: a0 = 0x1\n  6533: a2 = 0\n  6535: ecalli 14 // 'seal_return'\n  6537: jump @282\n      : @253 (gas: 6)\n  6540: a1 = 0x20070\n  6545: i32 a1 = a1 + 0\n  6547: a0 = 0x1\n  6550: a2 = 0\n  6552: ecalli 14 // 'seal_return'\n  6554: jump @282\n      : @254 (gas: 8)\n  6557: u64 [s1 + 1744] = 0\n  6561: u64 [s1 + 1736] = 0\n  6565: u64 [s1 + 1728] = 0\n  6569: a0 = 0xc39fa00400000000\n  6579: a1 = s1 + 0x6c0\n  6583: u64 [s1 + 0x6d8] = a0\n  6587: a0 = 0\n  6589: ra = 208, jump @9\n      : @255 [@dyn 104] (gas: 2)\n  6595: a1 = i32 [0x20068]\n  6600: jump @257 if a1 >u 31\n      : @256 (gas: 3)\n  6604: u32 [0x20068] = 0x20\n  6610: a1 = 0x20070\n  6615: jump @266\n      : @257 (gas: 2)\n  6618: a1 = 0x20070\n  6623: jump @266\n      : @258 (gas: 8)\n  6626: u64 [s1 + 1712] = 0\n  6630: u64 [s1 + 1704] = 0\n  6634: u64 [s1 + 1696] = 0\n  6638: a0 = 0x2c5211c600000000\n  6648: a1 = s1 + 0x6a0\n  6652: u64 [s1 + 0x6b8] = a0\n  6656: a0 = 0\n  6658: ra = 210, jump @9\n      : @259 [@dyn 105] (gas: 2)\n  6664: a1 = i32 [0x20068]\n  6669: jump @261 if a1 >u 31\n      : @260 (gas: 3)\n  6673: u32 [0x20068] = 0x20\n  6679: a1 = 0x20070\n  6684: jump @266\n      : @261 (gas: 2)\n  6686: a1 = 0x20070\n  6691: jump @266\n      : @262 (gas: 8)\n  6693: u64 [s1 + 1360] = 0\n  6697: u64 [s1 + 1352] = 0\n  6701: u64 [s1 + 1344] = 0\n  6705: a0 = 0x2c5211c600000000\n  6715: a1 = s1 + 0x540\n  6719: u64 [s1 + 0x558] = a0\n  6723: a0 = 0\n  6725: ra = 212, jump @9\n      : @263 [@dyn 106] (gas: 2)\n  6731: a1 = i32 [0x20068]\n  6736: jump @265 if a1 >u 31\n      : @264 (gas: 3)\n  6740: u32 [0x20068] = 0x20\n  6746: a1 = 0x20070\n  6751: jump @266\n      : @265 (gas: 2)\n  6753: a1 = 0x20070\n  6758: fallthrough\n      : @266 (gas: 5)\n  6759: i32 a1 = a1 + 0\n  6761: a0 = 0x1\n  6764: a2 = 0x4\n  6767: ecalli 14 // 'seal_return'\n  6769: fallthrough\n      : @267 (gas: 8)\n  6770: u64 [s1 + 1424] = 0\n  6774: u64 [s1 + 1416] = 0\n  6778: u64 [s1 + 1408] = 0\n  6782: a0 = 0x4e487b7100000000\n  6792: a1 = s1 + 0x580\n  6796: u64 [s1 + 0x598] = a0\n  6800: a0 = 0\n  6802: ra = 214, jump @9\n      : @268 [@dyn 107] (gas: 7)\n  6808: u64 [s1 + 1400] = 0\n  6812: u64 [s1 + 1392] = 0\n  6816: u64 [s1 + 1376] = 0x11\n  6821: a0 = 0x4\n  6824: a1 = s1 + 0x560\n  6828: u64 [s1 + 1384] = 0\n  6832: ra = 216, jump @9\n      : @269 [@dyn 108] (gas: 3)\n  6838: a0 = u64 [s1 + 0x30]\n  6841: a0 = i32 [a0]\n  6843: jump @271 if a0 >u 63\n      : @270 (gas: 7)\n  6847: a1 = u64 [s1 + 0x30]\n  6850: u32 [a1 + 0] = 0x40\n  6853: a0 = 0x1\n  6856: a2 = 0x24\n  6859: a1 = u64 [s1 + 0x38]\n  6862: ecalli 14 // 'seal_return'\n  6864: jump @272\n      : @271 (gas: 5)\n  6866: a0 = 0x1\n  6869: a2 = 0x24\n  6872: a1 = u64 [s1 + 0x38]\n  6875: ecalli 14 // 'seal_return'\n  6877: fallthrough\n      : @272 (gas: 6)\n  6878: a1 = 0x20070\n  6883: i32 a1 = a1 + 0\n  6885: a0 = 0x1\n  6888: a2 = 0\n  6890: ecalli 14 // 'seal_return'\n  6892: jump @282\n      : @273 (gas: 6)\n  6895: a1 = 0x20070\n  6900: i32 a1 = a1 + 0\n  6902: a0 = 0x1\n  6905: a2 = 0\n  6907: ecalli 14 // 'seal_return'\n  6909: jump @282\n      : @274 (gas: 11)\n  6911: a2 = u64 [0x300b0]\n  6916: a1 = u64 [0x300b8]\n  6921: a0 = u32 [0x300c0]\n  6926: u64 [s1 + 1240] = 0\n  6930: a4 = s1 + 0x400\n  6934: u64 [a4 + 0xd0] = a0\n  6938: u64 [a4 + 0xc8] = a1\n  6942: a1 = s1 + 0x4c0\n  6946: u64 [a4 + 0xc0] = a2\n  6950: a0 = a3\n  6952: ra = 218, jump @9\n      : @275 [@dyn 109] (gas: 3)\n  6958: a1 = 0x20\n  6961: a0 = u64 [s1 + 0x68]\n  6964: ra = 220, jump @15\n      : @276 [@dyn 110] (gas: 2)\n  6970: i32 a1 = a0 + 0\n  6972: fallthrough\n      : @277 (gas: 6)\n  6973: a2 = 0x20\n  6976: a0 = 0\n  6978: ecalli 14 // 'seal_return'\n  6980: a0 = u64 [s1 + 0x78]\n  6983: a0 = i32 [a0]\n  6985: jump @279\n      : @278 (gas: 3)\n  6987: a0 = u64 [s1 + 0x78]\n  6990: a0 = i32 [a0]\n  6992: fallthrough\n      : @279 (gas: 1)\n  6993: jump @282 if a0 == 0\n      : @280 (gas: 6)\n  6996: a1 = 0x20070\n  7001: i32 a1 = a1 + 0\n  7003: a0 = 0x1\n  7006: a2 = 0\n  7008: ecalli 14 // 'seal_return'\n  7010: jump @282\n      : @281 (gas: 5)\n  7012: i32 a1 = a1 + 0\n  7014: a0 = 0x1\n  7017: a2 = 0\n  7019: ecalli 14 // 'seal_return'\n  7021: fallthrough\n      : @282 (gas: 6)\n  7022: a1 = 0x20070\n  7027: i32 a1 = a1 + 0\n  7029: a0 = 0\n  7031: a2 = 0\n  7033: ecalli 14 // 'seal_return'\n  7035: jump @282\n      : @283 (gas: 3)\n  7037: a0 = u64 [s1 + 0x78]\n  7040: a0 = i32 [a0]\n  7042: jump @285 if a0 >u 35\n      : @284 (gas: 2)\n  7046: a1 = 0x20070\n  7051: jump @281\n      : @285 (gas: 6)\n  7053: a0 = s1 + 0x1000\n  7057: i32 a0 = a0 + 0xfffffffffffff860\n  7061: a1 = 0x4\n  7064: ra = 0xde\n  7068: ecalli 3 // 'call_data_load'\n  7070: fallthrough\n      : @286 [@dyn 111] (gas: 4)\n  7071: a0 = s1 + 0x7f0\n  7075: a1 = u64 [a0 + 0x80]\n  7079: a0 = u64 [a0 + 0x88]\n  7083: t0 = 224, jump @464\n      : @287 [@dyn 112] (gas: 1)\n  7089: jump @289 if a3 != 0\n      : @288 (gas: 2)\n  7092: a1 = 0x20070\n  7097: jump @281\n      : @289 (gas: 10)\n  7099: a3 = s1 + 0x7f0\n  7103: a2 = u64 [a3 + 0x78]\n  7106: a3 = u64 [a3 + 0x70]\n  7109: u64 [s1 + 0xe0] = a3\n  7113: u64 [s1 + 0xe8] = a2\n  7117: u64 [s1 + 0xf0] = a1\n  7121: a1 = s1 + 0xe0\n  7125: u64 [s1 + 0xf8] = a0\n  7129: a0 = 0\n  7131: ra = 226, jump @9\n      : @290 [@dyn 113] (gas: 7)\n  7137: u64 [s1 + 216] = 0\n  7141: u64 [s1 + 208] = 0\n  7145: u64 [s1 + 192] = 0x1\n  7150: a0 = 0x20\n  7153: a1 = s1 + 0xc0\n  7157: u64 [s1 + 200] = 0\n  7161: ra = 228, jump @9\n      : @291 [@dyn 114] (gas: 4)\n  7167: a0 = 0x20068\n  7172: u64 [s1 + 0x78] = a0\n  7175: a0 = i32 [0x20068]\n  7180: jump @293 if a0 >u 63\n      : @292 (gas: 3)\n  7184: a1 = u64 [s1 + 0x78]\n  7187: u32 [a1 + 0] = 0x40\n  7190: fallthrough\n      : @293 (gas: 14)\n  7191: a0 = sp + 0xffffffffffffffe0\n  7194: a2 = a0 & 0xffffffffffffffe0\n  7197: u64 [s1 + 0x68] = a2\n  7200: sp = a2\n  7202: a0 = 0x20070\n  7207: u64 [s1 + 0x70] = a0\n  7210: i32 a0 = a0 + 0\n  7212: i32 a2 = a2 + 0\n  7214: a1 = 0x40\n  7217: ra = 0xe6\n  7221: ecalli 9 // 'hash_keccak_256'\n  7223: a3 = u64 [s1 + 0x68]\n  7226: t0 = 0xe8\n  7230: jump @460\n      : @294 [@dyn 115] (gas: 2)\n  7233: a3 = u64 [s1 + 0x68]\n  7236: t0 = 232, jump @460\n      : @295 [@dyn 116] (gas: 8)\n  7242: u64 [a4 + 0xa8] = a3\n  7246: u64 [a4 + 0xa0] = a2\n  7250: u64 [a4 + 0x98] = a1\n  7254: u64 [a4 + 0x90] = a0\n  7258: a0 = s1 + 0xa0\n  7262: a1 = s1 + 0x7ff\n  7266: a1 = a1 + 0x81\n  7270: ra = 234, jump @11\n      : @296 [@dyn 117] (gas: 11)\n  7276: a2 = u64 [s1 + 0xa0]\n  7280: a0 = u64 [s1 + 0xa8]\n  7284: a1 = u64 [s1 + 0xb0]\n  7288: a3 = u64 [s1 + 0xb8]\n  7292: u64 [s1 + 0x98] = a3\n  7296: u64 [s1 + 0x90] = a1\n  7300: u64 [s1 + 0x88] = a0\n  7304: a0 = 0x80\n  7308: a1 = s1 + a0\n  7311: u64 [s1 + 0x80] = a2\n  7315: ra = 236, jump @9\n      : @297 [@dyn 118] (gas: 3)\n  7321: a0 = u64 [s1 + 0x78]\n  7324: a0 = i32 [a0]\n  7326: jump @299 if a0 >u 159\n      : @298 (gas: 5)\n  7331: a1 = u64 [s1 + 0x78]\n  7334: u32 [a1 + 0] = 0xa0\n  7338: a0 = u64 [s1 + 0x70]\n  7341: i32 a1 = a0 + 0x80\n  7345: jump @277\n      : @299 (gas: 3)\n  7348: a0 = u64 [s1 + 0x70]\n  7351: i32 a1 = a0 + 0x80\n  7355: jump @277\n      : @300 (gas: 30)\n  7358: sp = sp + 0xffffffffffffff80\n  7361: u64 [sp + 0x78] = ra\n  7364: u64 [sp + 0x70] = s0\n  7367: u64 [sp + 0x68] = s1\n  7370: s0 = sp + 0x80\n  7374: sp = sp & 0xfffffffffffffff0\n  7377: a4 = u64 [a2]\n  7379: a3 = u64 [a1]\n  7381: s1 = u64 [a2 + 0x8]\n  7384: t1 = u64 [a1 + 0x8]\n  7387: t2 = u64 [a2 + 0x10]\n  7390: a5 = u64 [a1 + 0x10]\n  7393: a2 = u64 [a2 + 0x18]\n  7396: a1 = u64 [a1 + 0x18]\n  7399: t0 = t1 ^ s1\n  7402: u64 [sp + 0x8] = s1\n  7405: s1 = t1 <u s1\n  7408: u64 [sp + 0x18] = a4\n  7411: u64 [sp + 0x10] = a3\n  7414: a3 = a3 <u a4\n  7417: u64 [sp] = a3\n  7419: s1 = a3 if t0 == 0\n  7422: a3 = a1 ^ a2\n  7425: ra = a1 <u a2\n  7428: t0 = a5 <u t2\n  7431: ra = t0 if a3 == 0\n  7434: a4 = a5 ^ t2\n  7437: a3 = a3 | a4\n  7440: ra = s1 if a3 == 0\n  7443: jump @302 if ra != 0\n      : @301 (gas: 23)\n  7446: a3 = a5 - t2\n  7449: a1 = a1 - a2\n  7452: a1 = a1 - t0\n  7455: a2 = a3 <u s1\n  7458: a1 = a1 - a2\n  7461: a3 = a3 - s1\n  7464: a2 = u64 [sp + 0x8]\n  7467: a2 = t1 - a2\n  7470: a4 = u64 [sp]\n  7472: a2 = a2 - a4\n  7475: a4 = u64 [sp + 0x18]\n  7478: a5 = u64 [sp + 0x10]\n  7481: a4 = a5 - a4\n  7484: u64 [a0] = a4\n  7486: u64 [a0 + 0x8] = a2\n  7489: u64 [a0 + 0x10] = a3\n  7492: u64 [a0 + 0x18] = a1\n  7495: sp = s0 + 0xffffffffffffff80\n  7498: ra = u64 [sp + 0x78]\n  7501: s0 = u64 [sp + 0x70]\n  7504: s1 = u64 [sp + 0x68]\n  7507: sp = sp + 0x80\n  7511: ret\n      : @302 (gas: 8)\n  7513: u64 [sp + 80] = 0\n  7516: u64 [sp + 72] = 0\n  7519: u64 [sp + 64] = 0\n  7522: a0 = 0x4e487b7100000000\n  7532: a1 = sp + 0x40\n  7535: u64 [sp + 0x58] = a0\n  7538: a0 = 0\n  7540: ra = 238, jump @9\n      : @303 [@dyn 119] (gas: 7)\n  7546: u64 [sp + 56] = 0\n  7549: u64 [sp + 48] = 0\n  7552: u64 [sp + 32] = 0x11\n  7556: a0 = 0x4\n  7559: a1 = sp + 0x20\n  7562: u64 [sp + 40] = 0\n  7565: ra = 240, jump @9\n      : @304 [@dyn 120] (gas: 2)\n  7571: a1 = i32 [0x20068]\n  7576: jump @306 if a1 >u 63\n      : @305 (gas: 2)\n  7580: u32 [0x20068] = 0x40\n  7586: fallthrough\n      : @306 (gas: 7)\n  7587: a1 = 0x20070\n  7592: i32 a1 = a1 + 0\n  7594: a0 = 0x1\n  7597: a2 = 0x24\n  7600: ra = 0xf2\n  7604: ecalli 14 // 'seal_return'\n  7606: fallthrough\n      : @307 [@dyn 121] (gas: 9)\n  7607: sp = sp + 0xffffffffffffff00\n  7611: u64 [sp + 0xf8] = ra\n  7615: u64 [sp + 0xf0] = s0\n  7619: u64 [sp + 0xe8] = s1\n  7623: s0 = sp + 0x100\n  7627: sp = sp & 0xffffffffffffffe0\n  7630: s1 = a0\n  7632: ecalli 13 // 'return_data_size'\n  7634: fallthrough\n      : @308 (gas: 1)\n  7635: jump @322 if a0 == 0\n      : @309 (gas: 6)\n  7639: u64 [sp + 0x10] = s1\n  7642: ecalli 13 // 'return_data_size'\n  7644: s1 = a0\n  7646: a0 = sp + 0xc0\n  7650: a1 = 0x40\n  7653: ra = 244, jump @7\n      : @310 [@dyn 122] (gas: 30)\n  7659: t1 = u64 [sp + 0xd8]\n  7663: t2 = u64 [sp + 0xd0]\n  7667: ra = u64 [sp + 0xc8]\n  7671: t0 = u64 [sp + 0xc0]\n  7675: a0 = s1 + 0x1f\n  7678: u64 [sp + 0x18] = s1\n  7681: a1 = a0 <u s1\n  7684: a0 = a0 & 0xffffffffffffffe0\n  7687: a2 = a0 + 0x3f\n  7690: a0 = a2 <u a0\n  7693: a3 = a1 + a0\n  7696: a2 = a2 & 0xffffffffffffffe0\n  7699: a1 = a3 + ra\n  7702: u64 [sp + 0x38] = t0\n  7705: t0 = t0 + a2\n  7708: a2 = t0 <u a2\n  7711: a1 = a1 + a2\n  7714: a4 = a1 ^ a3\n  7717: a3 = a1 <u a3\n  7720: a3 = a2 if a4 == 0\n  7723: a3 = a3 + t2\n  7726: a4 = a3 <u t2\n  7729: a2 = t1 + a4\n  7732: a5 = a3 >u 0\n  7734: s1 = a2 >u 0\n  7736: s1 = a5 if a2 == 0\n  7739: a5 = a3 | a2\n  7742: a0 = a1 >u 0\n  7744: a0 = s1 if a5 != 0\n  7747: jump @324 if a0 != 0\n      : @311 (gas: 12)\n  7751: a0 = u64 [sp + 0x38]\n  7754: a0 = t0 <u a0\n  7757: a5 = a1 ^ ra\n  7760: s1 = a1 <u ra\n  7763: s1 = a0 if a5 == 0\n  7766: a0 = a2 ^ t1\n  7769: a5 = a2 <u t1\n  7772: a4 = a5 if a0 != 0\n  7775: a5 = a3 ^ t2\n  7778: a0 = a0 | a5\n  7781: a4 = s1 if a0 == 0\n  7784: jump @324 if a4 != 0\n      : @312 (gas: 10)\n  7788: u64 [sp + 0xa0] = t0\n  7792: u64 [sp + 0xa8] = a1\n  7796: u64 [sp + 0xb0] = a3\n  7800: a0 = 0x40\n  7803: a1 = sp + 0xa0\n  7807: u64 [sp + 0xb8] = a2\n  7811: u64 [sp + 0x30] = t1\n  7814: s1 = t2\n  7816: u64 [sp + 0x28] = ra\n  7819: ra = 246, jump @9\n      : @313 [@dyn 123] (gas: 12)\n  7825: a2 = u64 [sp + 0x38]\n  7828: a0 = a2 | s1\n  7831: a1 = u64 [sp + 0x30]\n  7834: a3 = u64 [sp + 0x28]\n  7837: a1 = a1 | a3\n  7840: a0 = a0 | a1\n  7843: a0 = a0 >> 0x20\n  7846: u64 [sp + 0x20] = s1\n  7849: a1 = a1 | s1\n  7852: a1 = a1 << 0x20\n  7855: a1 = a1 | a0\n  7858: jump @321 if a1 != 0\n      : @314 (gas: 8)\n  7862: a0 = a2\n  7864: u64 [sp + 152] = 0\n  7868: u64 [sp + 144] = 0\n  7872: u64 [sp + 136] = 0\n  7876: a1 = sp + 0x80\n  7880: a2 = u64 [sp + 0x18]\n  7883: u64 [sp + 0x80] = a2\n  7887: ra = 248, jump @9\n      : @315 [@dyn 124] (gas: 2)\n  7893: ecalli 13 // 'return_data_size'\n  7895: fallthrough\n      : @316 (gas: 10)\n  7896: a4 = u64 [sp + 0x38]\n  7899: a1 = u64 [sp + 0x20]\n  7902: a2 = u64 [sp + 0x30]\n  7905: a1 = a1 | a2\n  7908: a2 = 0xffffffe0\n  7918: a2 = a4 <u a2\n  7921: a3 = u64 [sp + 0x28]\n  7924: a2 = 0 if a3 != 0\n  7926: a2 = 0 if a1 != 0\n  7928: jump @321 if a2 == 0\n      : @317 (gas: 3)\n  7931: s1 = a0\n  7933: a0 = a0 >> 0x20\n  7936: jump @321 if a0 != 0\n      : @318 (gas: 5)\n  7939: i32 a0 = a4 + 0x20\n  7942: i32 a1 = s1 + 0\n  7944: u64 [sp + 0x18] = a1\n  7947: a1 = s1\n  7949: ra = 250, jump @15\n      : @319 [@dyn 125] (gas: 6)\n  7955: u32 [sp + 0xe0] = s1\n  7959: i32 a0 = a0 + 0\n  7961: i32 a1 = sp + 0xe0\n  7965: a2 = 0\n  7967: ecalli 12 // 'return_data_copy'\n  7969: fallthrough\n      : @320 (gas: 8)\n  7970: a4 = u64 [sp + 0x38]\n  7973: a0 = i32 [sp + 0xe0]\n  7977: s1 = u64 [sp + 0x10]\n  7980: a1 = u64 [sp + 0x30]\n  7983: a2 = u64 [sp + 0x20]\n  7986: a3 = u64 [sp + 0x28]\n  7989: a5 = u64 [sp + 0x18]\n  7992: jump @323 if a0 >=u a5\n      : @321 (gas: 1)\n  7995: trap\n      : @322 (gas: 5)\n  7996: a3 = 0\n  7998: a2 = 0\n  8000: a1 = 0\n  8002: a4 = 0x60\n  8005: fallthrough\n      : @323 (gas: 10)\n  8006: u64 [s1] = a4\n  8008: u64 [s1 + 0x8] = a3\n  8011: u64 [s1 + 0x10] = a2\n  8014: u64 [s1 + 0x18] = a1\n  8017: sp = s0 + 0xffffffffffffff00\n  8021: ra = u64 [sp + 0xf8]\n  8025: s0 = u64 [sp + 0xf0]\n  8029: s1 = u64 [sp + 0xe8]\n  8033: sp = sp + 0x100\n  8037: ret\n      : @324 (gas: 8)\n  8039: u64 [sp + 112] = 0\n  8042: u64 [sp + 104] = 0\n  8045: u64 [sp + 96] = 0\n  8048: a0 = 0x4e487b7100000000\n  8058: a1 = sp + 0x60\n  8061: u64 [sp + 0x78] = a0\n  8064: a0 = 0\n  8066: ra = 252, jump @9\n      : @325 [@dyn 126] (gas: 7)\n  8072: u64 [sp + 88] = 0\n  8075: u64 [sp + 80] = 0\n  8078: u64 [sp + 64] = 0x41\n  8082: a0 = 0x4\n  8085: a1 = sp + 0x40\n  8088: u64 [sp + 72] = 0\n  8091: ra = 254, jump @9\n      : @326 [@dyn 127] (gas: 2)\n  8097: a1 = i32 [0x20068]\n  8102: jump @328 if a1 >u 63\n      : @327 (gas: 2)\n  8106: u32 [0x20068] = 0x40\n  8112: fallthrough\n      : @328 (gas: 7)\n  8113: a1 = 0x20070\n  8118: i32 a1 = a1 + 0\n  8120: a0 = 0x1\n  8123: a2 = 0x24\n  8126: ra = 0x100\n  8130: ecalli 14 // 'seal_return'\n  8132: fallthrough\n      : @329 [@dyn 128] (gas: 18)\n  8133: sp = sp + 0xfffffffffffffce0\n  8137: a1 = sp + 0x300\n  8141: u64 [a1 + 0x18] = ra\n  8144: u64 [a1 + 0x10] = s0\n  8147: u64 [a1 + 0x8] = s1\n  8150: s0 = sp + 0x320\n  8154: sp = sp & 0xffffffffffffffe0\n  8157: s1 = sp\n  8159: u64 [s1 + 0x18] = a0\n  8162: a0 = 0x30070\n  8167: u64 [s1 + 0x38] = a0\n  8170: i32 a0 = a0 + 0\n  8172: u64 [s1 + 0x10] = a0\n  8175: ra = 0x102\n  8179: ecalli 5 // 'caller'\n  8181: a2 = u64 [s1 + 0x38]\n  8184: t0 = 0x104\n  8188: jump @459\n      : @330 [@dyn 129] (gas: 2)\n  8191: a2 = u64 [s1 + 0x38]\n  8194: t0 = 260, jump @459\n      : @331 [@dyn 130] (gas: 8)\n  8200: u64 [s1 + 504] = 0\n  8204: a2 = s1 + 0x100\n  8208: u64 [a2 + 0xf0] = a1\n  8212: u64 [a2 + 0xe8] = a0\n  8216: a0 = s1 + 0x200\n  8220: a1 = s1 + 0x1e0\n  8224: u64 [a2 + 0xe0] = a3\n  8228: ra = 262, jump @403\n      : @332 [@dyn 131] (gas: 11)\n  8234: a0 = u64 [s1 + 0x218]\n  8238: u64 [s1 + 0x40] = a0\n  8241: a0 = u64 [s1 + 0x210]\n  8245: u64 [s1 + 0x48] = a0\n  8248: a0 = u64 [s1 + 0x208]\n  8252: u64 [s1 + 0x50] = a0\n  8255: a0 = u64 [s1 + 0x200]\n  8259: u64 [s1 + 0x58] = a0\n  8262: i32 a0 = s1 + 0x220\n  8266: ecalli 0 // 'balance'\n  8267: fallthrough\n      : @333 (gas: 8)\n  8268: a5 = u64 [s1 + 0x238]\n  8272: t1 = u64 [s1 + 0x230]\n  8276: t0 = u64 [s1 + 0x228]\n  8280: ra = u64 [s1 + 0x220]\n  8284: a0 = t0 | a5\n  8287: a1 = ra | t1\n  8290: a0 = a0 | a1\n  8293: jump @371 if a0 == 0\n      : @334 (gas: 51)\n  8297: a0 = a0 <u 0x1\n  8300: u64 [s1 + 0xd8] = a0\n  8304: a1 = clz t1\n  8306: a2 = a1 + 0x40\n  8309: a1 = clz a5\n  8311: a1 = a2 if a5 == 0\n  8314: a2 = clz ra\n  8316: a2 = a2 + 0x40\n  8319: a3 = clz t0\n  8321: a3 = a2 if t0 == 0\n  8324: a2 = a3 + 0x80\n  8328: a4 = t1 | a5\n  8331: a1 = a2 if a4 == 0\n  8334: u64 [s1 + 0x30] = t0\n  8337: u64 [s1 + 0x60] = a5\n  8340: a5 = a2 <u a3\n  8343: a5 = 0 if a4 != 0\n  8345: a3 = a5 >u 0\n  8347: a2 = a1 <u 0xfd\n  8351: a4 = a2 ^ 0x1\n  8354: a3 = a4 if a5 == 0\n  8357: a2 = a3 <u 0x1\n  8360: a2 = a2 + 0xffffffffffffffff\n  8363: t2 = -a3\n  8365: a5 = -a5\n  8367: t0 = a5 - a4\n  8370: a0 = 0xfc - a1\n  8374: u64 [s1 + 0xc0] = t2\n  8378: a1 = t2 >u 0\n  8380: a4 = a2 >u 0\n  8382: u64 [s1 + 0xc8] = a2\n  8386: a4 = a1 if a2 == 0\n  8389: a1 = t0 >u 0\n  8391: u64 [s1 + 0xd0] = a0\n  8395: a0 = a0 <u 0x100\n  8399: a0 = a0 ^ 0x1\n  8402: a0 = a1 if t0 != 0\n  8405: a0 = a4 if a3 != 0\n  8408: a2 = u64 [s1 + 0xd8]\n  8412: a2 = a2 | a0\n  8415: a4 = u64 [s1 + 0x60]\n  8418: a4 = 0 if a2 != 0\n  8420: u64 [s1 + 0x20] = t1\n  8423: a1 = t1\n  8425: a1 = 0 if a2 != 0\n  8427: a3 = u64 [s1 + 0x30]\n  8430: a3 = 0 if a2 != 0\n  8432: a5 = ra\n  8434: a5 = 0 if a2 != 0\n  8436: u64 [s1 + 0x28] = ra\n  8439: jump @350 if a2 != 0\n      : @335 (gas: 8)\n  8443: a0 = u64 [s1 + 0xd0]\n  8447: a2 = a0 ^ 0xff\n  8451: t1 = u64 [s1 + 0xc0]\n  8455: a0 = a2 | t1\n  8458: t2 = u64 [s1 + 0xc8]\n  8462: a2 = t0 | t2\n  8465: a2 = a2 | a0\n  8468: jump @350 if a2 == 0\n      : @336 (gas: 19)\n  8472: a2 = u64 [s1 + 0xd0]\n  8476: a1 = a2 + 0x1\n  8479: u64 [s1 + 0xd8] = a1\n  8483: a0 = a1 <u 0x1\n  8486: a0 = a0 + t0\n  8489: u64 [s1 + 0xb8] = a0\n  8493: a0 = a0 | a1\n  8496: a0 = a0 <u 0x1\n  8499: a0 = a0 + t1\n  8502: u64 [s1 + 0xa8] = a0\n  8506: a0 = a0 <u t1\n  8509: a0 = a0 + t2\n  8512: u64 [s1 + 0xb0] = a0\n  8516: a1 = 0xff - a2\n  8520: u64 [s1 + 0xc0] = a1\n  8524: a2 = 0x80 - a1\n  8528: a0 = u64 [s1 + 0x28]\n  8531: a1 = u64 [s1 + 0x30]\n  8534: ra = 264, jump @470\n      : @337 [@dyn 132] (gas: 6)\n  8540: u64 [s1 + 0xc8] = a0\n  8544: u64 [s1 + 0x98] = a1\n  8548: a0 = u64 [s1 + 0x20]\n  8551: a1 = u64 [s1 + 0x60]\n  8554: a2 = u64 [s1 + 0xc0]\n  8558: ra = 266, jump @475\n      : @338 [@dyn 133] (gas: 9)\n  8564: u64 [s1 + 0xa0] = a0\n  8568: a0 = u64 [s1 + 0x98]\n  8572: a0 = a0 | a1\n  8575: u64 [s1 + 0x98] = a0\n  8579: a1 = u64 [s1 + 0xd0]\n  8583: a2 = 0x7f - a1\n  8586: a0 = u64 [s1 + 0x28]\n  8589: a1 = u64 [s1 + 0x30]\n  8592: ra = 268, jump @475\n      : @339 [@dyn 134] (gas: 18)\n  8598: a2 = u64 [s1 + 0xc0]\n  8602: a3 = a2 <u 0x80\n  8606: u64 [s1 + 0xd0] = a3\n  8610: a4 = u64 [s1 + 0x98]\n  8614: a1 = a4 if a3 != 0\n  8617: a4 = u64 [s1 + 0x60]\n  8620: a1 = a4 if a2 == 0\n  8623: u64 [s1 + 0x90] = a1\n  8627: a1 = u64 [s1 + 0xc8]\n  8631: a4 = u64 [s1 + 0xa0]\n  8635: a1 = a1 | a4\n  8638: a1 = a0 if a3 == 0\n  8641: a0 = u64 [s1 + 0x20]\n  8644: a1 = a0 if a2 == 0\n  8647: u64 [s1 + 0xc8] = a1\n  8651: a0 = u64 [s1 + 0x28]\n  8654: a1 = u64 [s1 + 0x30]\n  8657: ra = 270, jump @475\n      : @340 [@dyn 135] (gas: 13)\n  8663: a4 = u64 [s1 + 0xa8]\n  8667: a5 = u64 [s1 + 0xb0]\n  8671: a2 = u64 [s1 + 0xb8]\n  8675: a5 = a5 | a2\n  8678: a3 = u64 [s1 + 0xd8]\n  8682: a3 = a3 | a4\n  8685: a3 = a3 | a5\n  8688: a2 = u64 [s1 + 0xd0]\n  8692: a1 = 0 if a2 == 0\n  8694: u64 [s1 + 0xc0] = a1\n  8698: a0 = 0 if a2 == 0\n  8700: u64 [s1 + 0xd0] = a0\n  8704: jump @348 if a3 == 0\n      : @341 (gas: 5)\n  8708: a0 = u64 [s1 + 0xd8]\n  8712: a2 = a0 + 0xffffffffffffff80\n  8715: a0 = u64 [s1 + 0x20]\n  8718: a1 = u64 [s1 + 0x60]\n  8721: ra = 272, jump @470\n      : @342 [@dyn 136] (gas: 6)\n  8727: u64 [s1 + 0x98] = a0\n  8731: u64 [s1 + 0xa0] = a1\n  8735: a0 = u64 [s1 + 0x28]\n  8738: a1 = u64 [s1 + 0x30]\n  8741: a2 = u64 [s1 + 0xd8]\n  8745: ra = 274, jump @470\n      : @343 [@dyn 137] (gas: 7)\n  8751: u64 [s1 + 0x80] = a0\n  8755: u64 [s1 + 0x88] = a1\n  8759: a1 = u64 [s1 + 0xd8]\n  8763: a2 = 0x80 - a1\n  8767: a0 = u64 [s1 + 0x20]\n  8770: a1 = u64 [s1 + 0x60]\n  8773: ra = 276, jump @475\n      : @344 [@dyn 138] (gas: 20)\n  8779: a2 = u64 [s1 + 0x88]\n  8783: a1 = a1 | a2\n  8786: a2 = u64 [s1 + 0xd8]\n  8790: a3 = a2 <u 0x80\n  8794: u64 [s1 + 0x88] = a3\n  8798: a4 = u64 [s1 + 0xa0]\n  8802: a1 = a4 if a3 == 0\n  8805: a4 = u64 [s1 + 0x30]\n  8808: a1 = a4 if a2 == 0\n  8811: u64 [s1 + 0xa0] = a1\n  8815: a1 = u64 [s1 + 0x80]\n  8819: a0 = a0 | a1\n  8822: a1 = u64 [s1 + 0x98]\n  8826: a0 = a1 if a3 == 0\n  8829: a1 = u64 [s1 + 0x28]\n  8832: a0 = a1 if a2 == 0\n  8835: u64 [s1 + 0x98] = a0\n  8839: a0 = u64 [s1 + 0x20]\n  8842: a1 = u64 [s1 + 0x60]\n  8845: ra = 278, jump @470\n      : @345 [@dyn 139] (gas: 8)\n  8851: a5 = 0\n  8853: a2 = u64 [s1 + 0x88]\n  8857: a1 = 0 if a2 == 0\n  8859: a0 = 0 if a2 == 0\n  8861: u64 [s1 + 112] = 0x9\n  8865: u64 [s1 + 104] = 0\n  8868: ra = u64 [s1 + 0x90]\n  8872: fallthrough\n      : @346 (gas: 91)\n  8873: u64 [s1 + 0x80] = a1\n  8877: u64 [s1 + 0x88] = a5\n  8881: u64 [s1 + 120] = 0\n  8884: a1 = u64 [s1 + 0x98]\n  8888: a2 = a1 >> 0x3f\n  8891: a5 = u64 [s1 + 0xa0]\n  8895: a3 = a5 << 0x1\n  8898: t1 = a3 | a2\n  8901: a2 = a1 << 0x1\n  8904: a4 = ra >> 0x3f\n  8907: a4 = a4 | a2\n  8910: u64 [s1 + 0x90] = a4\n  8914: a3 = u64 [s1 + 0x68]\n  8917: a1 = a3 ^ t1\n  8920: u64 [s1 + 0x98] = a1\n  8924: a1 = a3 <u t1\n  8927: a2 = u64 [s1 + 0x70]\n  8930: t0 = a2 <u a4\n  8933: a2 = u64 [s1 + 0x98]\n  8937: t0 = a1 if a2 != 0\n  8940: a1 = u64 [s1 + 0x80]\n  8944: a1 = a1 << 0x1\n  8947: a4 = a0 >> 0x3f\n  8950: a1 = a1 | a4\n  8953: u64 [s1 + 0x80] = a1\n  8957: a4 = a5 >> 0x3f\n  8960: a0 = a0 << 0x1\n  8963: a4 = a4 | a0\n  8966: a0 = ra << 0x1\n  8969: a1 = u64 [s1 + 0xc8]\n  8973: a5 = a1 >> 0x3f\n  8976: a0 = a0 | a5\n  8979: u64 [s1 + 0xa0] = a0\n  8983: a5 = a1 << 0x1\n  8986: a0 = u64 [s1 + 0xc0]\n  8990: a1 = a0 >> 0x3f\n  8993: a1 = a1 | a5\n  8996: a5 = a0 << 0x1\n  8999: a0 = u64 [s1 + 0xd0]\n  9003: ra = a0 >> 0x3f\n  9006: a5 = a5 | ra\n  9009: a0 = a0 << 0x1\n  9012: a2 = u64 [s1 + 0x88]\n  9016: a0 = a0 | a2\n  9019: u64 [s1 + 0xd0] = a0\n  9023: a0 = a5 | 0\n  9025: u64 [s1 + 0xc0] = a0\n  9029: a0 = a1 | 0\n  9031: u64 [s1 + 0xc8] = a0\n  9035: a0 = u64 [s1 + 0xa0]\n  9039: ra = a0 | 0\n  9041: a0 = a3 - a4\n  9044: a0 = a0 <u t0\n  9047: a1 = a3 <u a4\n  9050: t2 = u64 [s1 + 0x80]\n  9054: a5 = a3 - t2\n  9057: a5 = a5 - a1\n  9060: a5 = a5 - a0\n  9063: t0 = a5 >>a 0x3f\n  9066: a0 = t0 & 0xa\n  9069: a2 = u64 [s1 + 0x90]\n  9073: a1 = a2 - a0\n  9076: u64 [s1 + 0x98] = a1\n  9080: a1 = a2 <u a0\n  9083: a0 = t1 - a1\n  9086: u64 [s1 + 0xa0] = a0\n  9090: a1 = 0 if t1 != 0\n  9092: a0 = a4 - a1\n  9095: a1 = a4 <u a1\n  9098: a1 = t2 - a1\n  9101: a3 = u64 [s1 + 0xd8]\n  9105: a5 = u64 [s1 + 0xb8]\n  9109: a2 = a3 | a5\n  9112: a2 = a2 <u 0x1\n  9115: a4 = u64 [s1 + 0xa8]\n  9119: t1 = a4 <u a2\n  9122: a4 = a4 - a2\n  9125: a2 = a3 <u 0x1\n  9128: a5 = a5 - a2\n  9131: a2 = u64 [s1 + 0xb0]\n  9135: a2 = a2 - t1\n  9138: a3 = a3 + 0xffffffffffffffff\n  9141: u64 [s1 + 0xb8] = a5\n  9145: u64 [s1 + 0xb0] = a2\n  9149: a2 = a2 | a5\n  9152: u64 [s1 + 0xd8] = a3\n  9156: a3 = a3 | a4\n  9159: a2 = a2 | a3\n  9162: a5 = t0 & 0x1\n  9165: u64 [s1 + 0xa8] = a4\n  9169: jump @346 if a2 != 0\n      : @347 (gas: 1)\n  9173: jump @349\n      : @348 (gas: 4)\n  9175: a5 = 0\n  9177: u64 [s1 + 120] = 0\n  9180: ra = u64 [s1 + 0x90]\n  9184: fallthrough\n      : @349 (gas: 19)\n  9185: a2 = u64 [s1 + 0xc8]\n  9189: a0 = a2 >> 0x3f\n  9192: a1 = ra << 0x1\n  9195: a0 = a0 | a1\n  9198: a3 = u64 [s1 + 0xc0]\n  9202: a1 = a3 >> 0x3f\n  9205: a2 = a2 << 0x1\n  9208: a1 = a1 | a2\n  9211: a4 = u64 [s1 + 0xd0]\n  9215: a2 = a4 >> 0x3f\n  9218: a3 = a3 << 0x1\n  9221: a4 = a4 << 0x1\n  9224: a5 = a5 | a4\n  9227: a4 = u64 [s1 + 0x78]\n  9230: a2 = a2 | a4\n  9233: a3 = a3 | a2\n  9236: a1 = a1 | a4\n  9239: a4 = a4 | a0\n  9242: fallthrough\n      : @350 (gas: 31)\n  9243: u64 [s1 + 0xc8] = a1\n  9247: t2 = u64 [s1 + 0x58]\n  9250: u64 [s1 + 0xd8] = a5\n  9254: t0 = t2 <u a5\n  9257: a0 = u64 [s1 + 0x50]\n  9260: a5 = a0 ^ a3\n  9263: t1 = a0 <u a3\n  9266: t1 = t0 if a5 == 0\n  9269: a5 = u64 [s1 + 0x48]\n  9272: ra = a5 <u a1\n  9275: a2 = u64 [s1 + 0x40]\n  9278: t0 = a2 ^ a4\n  9281: u64 [s1 + 0xd0] = a4\n  9285: a4 = a2 <u a4\n  9288: a4 = ra if t0 == 0\n  9291: ra = a0\n  9293: a1 = a3\n  9295: a3 = u64 [s1 + 0xc8]\n  9299: a0 = a5 ^ a3\n  9302: a0 = a0 | t0\n  9305: a4 = t1 if a0 == 0\n  9308: a0 = u64 [s1 + 0xd8]\n  9312: t2 = a0 if a4 == 0\n  9315: ra = a1 if a4 == 0\n  9318: a5 = a3 if a4 == 0\n  9321: a0 = u64 [s1 + 0xd0]\n  9325: a2 = a0 if a4 == 0\n  9328: a0 = ra | a2\n  9331: a1 = t2 | a5\n  9334: a0 = a0 | a1\n  9337: jump @371 if a0 == 0\n      : @351 (gas: 34)\n  9341: a1 = u64 [s1 + 0x60]\n  9344: a0 = a2 ^ a1\n  9347: u64 [s1 + 0xd8] = a0\n  9351: a0 = a1\n  9353: t1 = u64 [s1 + 0x30]\n  9356: t0 = ra ^ t1\n  9359: a4 = ra <u t1\n  9362: a1 = u64 [s1 + 0x28]\n  9365: a3 = t2 <u a1\n  9368: a3 = a4 if t0 != 0\n  9371: a1 = a2 <u a0\n  9374: t0 = u64 [s1 + 0x20]\n  9377: a4 = a5 <u t0\n  9380: a0 = u64 [s1 + 0xd8]\n  9384: a4 = a1 if a0 != 0\n  9387: a1 = a5 ^ t0\n  9390: a0 = a0 | a1\n  9393: a3 = a4 if a0 != 0\n  9396: a0 = u64 [s1 + 0x60]\n  9399: a2 = a0 if a3 == 0\n  9402: u64 [s1 + 0x40] = a2\n  9405: a5 = t0 if a3 == 0\n  9408: u64 [s1 + 0x48] = a5\n  9411: ra = t1 if a3 == 0\n  9414: u64 [s1 + 0x50] = ra\n  9417: a0 = u64 [s1 + 0x28]\n  9420: t2 = a0 if a3 == 0\n  9423: u64 [s1 + 0x58] = t2\n  9426: a0 = u64 [s1 + 0x10]\n  9429: ra = 0x118\n  9433: ecalli 5 // 'caller'\n  9435: a2 = u64 [s1 + 0x38]\n  9438: t0 = 0x11a\n  9442: jump @459\n      : @352 [@dyn 140] (gas: 2)\n  9445: a2 = u64 [s1 + 0x38]\n  9448: t0 = 282, jump @459\n      : @353 [@dyn 141] (gas: 7)\n  9454: u64 [s1 + 472] = 0\n  9458: u64 [s1 + 0x1d0] = a1\n  9462: u64 [s1 + 0x1c8] = a0\n  9466: a1 = s1 + 0x1c0\n  9470: u64 [s1 + 0x1c0] = a3\n  9474: a0 = 0\n  9476: ra = 284, jump @9\n      : @354 [@dyn 142] (gas: 7)\n  9482: u64 [s1 + 440] = 0\n  9486: u64 [s1 + 432] = 0\n  9490: u64 [s1 + 416] = 0x1\n  9495: a0 = 0x20\n  9498: a1 = s1 + 0x1a0\n  9502: u64 [s1 + 424] = 0\n  9506: ra = 286, jump @9\n      : @355 [@dyn 143] (gas: 3)\n  9512: i32 a0 = s1 + 0x240\n  9516: ecalli 10 // 'now'\n  9518: fallthrough\n      : @356 (gas: 12)\n  9519: a2 = 0x20068\n  9524: a3 = s1 + 0x200\n  9528: a0 = u64 [a3 + 0x58]\n  9531: u64 [s1 + 0xc0] = a0\n  9535: a0 = u64 [a3 + 0x50]\n  9538: u64 [s1 + 0xc8] = a0\n  9542: a0 = u64 [a3 + 0x48]\n  9545: u64 [s1 + 0xd0] = a0\n  9549: a0 = i32 [0x20068]\n  9554: a1 = u64 [a3 + 0x40]\n  9557: u64 [s1 + 0xb8] = a1\n  9561: jump @358 if a0 >u 63\n      : @357 (gas: 2)\n  9565: u32 [0x20068] = 0x40\n  9571: fallthrough\n      : @358 (gas: 16)\n  9572: u64 [s1 + 0xa8] = a2\n  9576: a0 = sp + 0xffffffffffffffe0\n  9579: a2 = a0 & 0xffffffffffffffe0\n  9582: u64 [s1 + 0xb0] = a2\n  9586: sp = a2\n  9588: a0 = 0x20070\n  9593: u64 [s1 + 0xd8] = a0\n  9597: i32 a0 = a0 + 0\n  9599: i32 a2 = a2 + 0\n  9601: a1 = 0x40\n  9604: u64 [s1 + 0xa0] = a0\n  9608: ra = 0x120\n  9612: ecalli 9 // 'hash_keccak_256'\n  9614: a3 = u64 [s1 + 0xb0]\n  9618: t0 = 0x122\n  9622: jump @461\n      : @359 [@dyn 144] (gas: 2)\n  9625: a3 = u64 [s1 + 0xb0]\n  9629: t0 = 290, jump @461\n      : @360 [@dyn 145] (gas: 15)\n  9635: u64 [s1 + 0x278] = a3\n  9639: u64 [s1 + 0x270] = a2\n  9643: u64 [s1 + 0x268] = a1\n  9647: u64 [s1 + 0x260] = a0\n  9651: a0 = u64 [s1 + 0xc0]\n  9655: u64 [s1 + 0x298] = a0\n  9659: a0 = u64 [s1 + 0xc8]\n  9663: u64 [s1 + 0x290] = a0\n  9667: a0 = u64 [s1 + 0xd0]\n  9671: u64 [s1 + 0x288] = a0\n  9675: a0 = u64 [s1 + 0xb8]\n  9679: u64 [s1 + 0x280] = a0\n  9683: a0 = s1 + 0x260\n  9687: a1 = s1 + 0x280\n  9691: ra = 292, jump @12\n      : @361 [@dyn 146] (gas: 1)\n  9697: ra = 294, jump @0\n      : @362 [@dyn 147] (gas: 62)\n  9703: a1 = u64 [0x300b0]\n  9708: u64 [s1 + 0xd0] = a1\n  9712: a1 = u64 [0x300c0]\n  9717: u64 [s1 + 0xc8] = a1\n  9721: a0 = u64 [0x300b8]\n  9726: u64 [s1 + 0xc0] = a0\n  9730: ecalli 11 // 'ref_time_left'\n  9732: a1 = u64 [s1 + 0xc0]\n  9736: a1 = reverse a1\n  9738: a2 = a1 << 0x20\n  9741: a3 = u64 [s1 + 0xc8]\n  9745: a3 = reverse a3\n  9747: a3 = a3 >> 0x20\n  9750: a2 = a2 | a3\n  9753: a1 = a1 >> 0x20\n  9756: a3 = u64 [s1 + 0xd0]\n  9760: a3 = reverse a3\n  9762: a4 = a3 << 0x20\n  9765: a1 = a1 | a4\n  9768: a3 = a3 >> 0x20\n  9771: a4 = u64 [s1 + 0x38]\n  9774: u32 [a4 + 0x10] = a3\n  9777: u64 [a4 + 0x8] = a1\n  9780: u64 [a4] = a2\n  9782: a1 = u64 [s1 + 0x40]\n  9785: a2 = s1 + 0x200\n  9789: u64 [a2 + 0xb8] = a1\n  9793: a1 = u64 [s1 + 0x48]\n  9796: u64 [a2 + 0xb0] = a1\n  9800: a1 = u64 [s1 + 0x50]\n  9803: u64 [a2 + 0xa8] = a1\n  9807: a1 = u64 [s1 + 0x58]\n  9810: u64 [a2 + 0xa0] = a1\n  9814: u32 [s1 + 704] = 0\n  9818: a0 = a0 >u 0x8fc\n  9822: a1 = -a0\n  9824: u64 [a2 + 0xf8] = a1\n  9828: u64 [a2 + 0xf0] = a1\n  9832: u64 [a2 + 0xe8] = a1\n  9836: u64 [a2 + 0xe0] = a1\n  9840: a1 = a4 << 0x20\n  9843: a1 = a1 >> 0x20\n  9846: a0 = a0 << 0x23\n  9849: a0 = a0 | a1\n  9852: a1 = s1 + 0x2a0\n  9856: a1 = a1 << 0x20\n  9859: a1 = a1 >> 0x20\n  9862: a2 = s1 + 0x2e0\n  9866: a2 = a2 << 0x20\n  9869: a3 = a2 | a1\n  9872: a4 = u64 [s1 + 0xd8]\n  9876: a4 = a4 << 0x20\n  9879: a4 = a4 >> 0x20\n  9882: a1 = s1 + 0x2c0\n  9886: a1 = a1 << 0x20\n  9889: a5 = a1 | a4\n  9892: a1 = 0xffffffffffffffff\n  9895: a2 = 0xffffffffffffffff\n  9898: ecalli 1 // 'call'\n  9900: u64 [s1 + 0xd8] = a0\n  9904: a0 = s1 + 0x180\n  9908: ra = 296, jump @307\n      : @363 [@dyn 148] (gas: 2)\n  9914: a0 = u64 [s1 + 0xd8]\n  9918: jump @374 if a0 != 0\n      : @364 (gas: 3)\n  9922: a0 = s1 + 0x140\n  9926: a1 = 0x40\n  9929: ra = 298, jump @7\n      : @365 [@dyn 149] (gas: 13)\n  9935: a4 = s1 + 0x100\n  9939: a3 = u64 [a4 + 0x58]\n  9942: a1 = u64 [a4 + 0x50]\n  9945: a2 = u64 [a4 + 0x48]\n  9948: a0 = u64 [a4 + 0x40]\n  9951: a3 = a3 | a2\n  9954: a2 = a0 | a1\n  9957: a2 = a2 | a3\n  9960: a2 = a2 >> 0x20\n  9963: a1 = a1 | a3\n  9966: a1 = a1 << 0x20\n  9969: a1 = a1 | a2\n  9972: jump @373 if a1 != 0\n      : @366 (gas: 11)\n  9976: a1 = u64 [s1 + 0x58]\n  9979: u64 [s1 + 0x120] = a1\n  9983: a1 = u64 [s1 + 0x50]\n  9986: u64 [s1 + 0x128] = a1\n  9990: a1 = u64 [s1 + 0x48]\n  9993: u64 [s1 + 0x130] = a1\n  9997: a1 = s1 + 0x120\n 10001: a2 = u64 [s1 + 0x40]\n 10004: u64 [s1 + 0x138] = a2\n 10008: u64 [s1 + 0xd8] = a0\n 10012: ra = 300, jump @9\n      : @367 [@dyn 150] (gas: 6)\n 10018: a0 = u64 [s1 + 0x10]\n 10021: ra = 0x12e\n 10025: ecalli 5 // 'caller'\n 10027: a2 = u64 [s1 + 0x38]\n 10030: t0 = 0x130\n 10034: jump @467\n      : @368 [@dyn 151] (gas: 2)\n 10037: a2 = u64 [s1 + 0x38]\n 10040: t0 = 304, jump @467\n      : @369 [@dyn 152] (gas: 24)\n 10046: t0 = a1 | a0\n 10049: a3 = a3 >> 0x20\n 10052: a2 = reverse a2\n 10054: a1 = a2 << 0x20\n 10057: a1 = a1 | a3\n 10060: a2 = a2 >> 0x20\n 10063: u64 [s1 + 248] = 0\n 10067: a3 = u64 [0x20040]\n 10072: a4 = u64 [0x20048]\n 10077: a5 = u64 [0x20050]\n 10082: a0 = u64 [0x20058]\n 10087: u64 [s1 + 0x118] = a3\n 10091: a3 = s1 + 0x100\n 10095: u64 [a3 + 0x10] = a4\n 10098: u64 [a3 + 0x8] = a5\n 10101: u64 [a3] = a0\n 10103: u64 [s1 + 0xf0] = a2\n 10107: u64 [s1 + 0xe8] = a1\n 10111: a1 = 0x20\n 10114: a2 = s1 + 0x100\n 10118: a3 = s1 + 0xe0\n 10122: u64 [s1 + 0xe0] = t0\n 10126: a0 = u64 [s1 + 0xd8]\n 10130: ra = 306, jump @13\n      : @370 [@dyn 153] (gas: 5)\n 10136: a4 = u64 [s1 + 0x40]\n 10139: a3 = u64 [s1 + 0x48]\n 10142: a2 = u64 [s1 + 0x50]\n 10145: a1 = u64 [s1 + 0x58]\n 10148: jump @372\n      : @371 (gas: 5)\n 10150: a1 = 0\n 10152: a2 = 0\n 10154: a3 = 0\n 10156: a4 = 0\n 10158: fallthrough\n      : @372 (gas: 12)\n 10159: a0 = u64 [s1 + 0x18]\n 10162: u64 [a0] = a1\n 10164: u64 [a0 + 0x8] = a2\n 10167: u64 [a0 + 0x10] = a3\n 10170: u64 [a0 + 0x18] = a4\n 10173: sp = s0 + 0xfffffffffffffce0\n 10177: a0 = sp + 0x300\n 10181: ra = u64 [a0 + 0x18]\n 10184: s0 = u64 [a0 + 0x10]\n 10187: s1 = u64 [a0 + 0x8]\n 10190: sp = sp + 0x320\n 10194: ret\n      : @373 (gas: 1)\n 10196: trap\n      : @374 (gas: 8)\n 10197: u64 [s1 + 368] = 0\n 10201: u64 [s1 + 360] = 0\n 10205: u64 [s1 + 352] = 0\n 10209: a0 = 0x90b8ec1800000000\n 10219: a1 = s1 + 0x160\n 10223: u64 [s1 + 0x178] = a0\n 10227: a0 = 0\n 10229: ra = 308, jump @9\n      : @375 [@dyn 154] (gas: 3)\n 10235: a0 = u64 [s1 + 0xa8]\n 10239: a0 = i32 [a0]\n 10241: jump @377 if a0 >u 31\n      : @376 (gas: 3)\n 10245: a1 = u64 [s1 + 0xa8]\n 10249: u32 [a1 + 0] = 0x20\n 10252: fallthrough\n      : @377 (gas: 6)\n 10253: a0 = 0x1\n 10256: a2 = 0x4\n 10259: a1 = u64 [s1 + 0xa0]\n 10263: ra = 0x136\n 10267: ecalli 14 // 'seal_return'\n 10269: fallthrough\n      : @378 [@dyn 155] (gas: 20)\n 10270: sp = sp + 0xfffffffffffffe80\n 10274: u64 [sp + 0x178] = ra\n 10278: u64 [sp + 0x170] = s0\n 10282: u64 [sp + 0x168] = s1\n 10286: s0 = sp + 0x180\n 10290: sp = sp & 0xffffffffffffffe0\n 10293: s1 = sp\n 10295: a2 = u64 [a0]\n 10297: a1 = u64 [a0 + 0x8]\n 10300: a0 = u32 [a0 + 0x10]\n 10303: u64 [s1 + 216] = 0\n 10307: u64 [s1 + 0x28] = a0\n 10310: u64 [s1 + 0xd0] = a0\n 10314: u64 [s1 + 0x10] = a1\n 10317: u64 [s1 + 0xc8] = a1\n 10321: a1 = s1 + 0xc0\n 10325: u64 [s1 + 0x18] = a2\n 10328: u64 [s1 + 0xc0] = a2\n 10332: a0 = 0\n 10334: ra = 312, jump @9\n      : @379 [@dyn 156] (gas: 7)\n 10340: u64 [s1 + 184] = 0\n 10344: u64 [s1 + 176] = 0\n 10348: u64 [s1 + 160] = 0x1\n 10353: a0 = 0x20\n 10356: a1 = s1 + 0xa0\n 10360: u64 [s1 + 168] = 0\n 10364: ra = 314, jump @9\n      : @380 [@dyn 157] (gas: 3)\n 10370: a2 = 0x20068\n 10375: a0 = i32 [0x20068]\n 10380: jump @382 if a0 >u 63\n      : @381 (gas: 2)\n 10384: u32 [0x20068] = 0x40\n 10390: fallthrough\n      : @382 (gas: 15)\n 10391: u64 [s1 + 0x30] = a2\n 10394: a0 = sp + 0xffffffffffffffe0\n 10397: a2 = a0 & 0xffffffffffffffe0\n 10400: u64 [s1 + 0x38] = a2\n 10403: sp = a2\n 10405: a0 = 0x20070\n 10410: i32 a0 = a0 + 0\n 10412: i32 a2 = a2 + 0\n 10414: a1 = 0x40\n 10417: u64 [s1 + 0x20] = a0\n 10420: ra = 0x13c\n 10424: ecalli 9 // 'hash_keccak_256'\n 10426: a3 = u64 [s1 + 0x38]\n 10429: t0 = 0x13e\n 10433: jump @461\n      : @383 [@dyn 158] (gas: 2)\n 10436: a3 = u64 [s1 + 0x38]\n 10439: t0 = 318, jump @461\n      : @384 [@dyn 159] (gas: 7)\n 10445: u64 [s1 + 0xf8] = a3\n 10449: u64 [s1 + 0xf0] = a2\n 10453: u64 [s1 + 0xe8] = a1\n 10457: u64 [s1 + 0xe0] = a0\n 10461: a0 = s1 + 0x80\n 10465: a1 = s1 + 0xe0\n 10469: ra = 320, jump @11\n      : @385 [@dyn 160] (gas: 8)\n 10475: a0 = u64 [s1 + 0x90]\n 10479: a1 = u64 [s1 + 0x98]\n 10483: a2 = u64 [s1 + 0x88]\n 10487: a3 = u64 [s1 + 0x80]\n 10491: a1 = a1 | a2\n 10494: a0 = a0 | a3\n 10497: a0 = a0 | a1\n 10500: jump @394 if a0 != 0\n      : @386 (gas: 10)\n 10504: u64 [s1 + 120] = 0\n 10507: a0 = u64 [s1 + 0x18]\n 10510: u64 [s1 + 0x60] = a0\n 10513: a0 = u64 [s1 + 0x10]\n 10516: u64 [s1 + 0x68] = a0\n 10519: a1 = s1 + 0x60\n 10522: a0 = u64 [s1 + 0x28]\n 10525: u64 [s1 + 0x70] = a0\n 10528: a0 = 0\n 10530: ra = 322, jump @9\n      : @387 [@dyn 161] (gas: 7)\n 10536: u64 [s1 + 88] = 0\n 10539: u64 [s1 + 80] = 0\n 10542: u64 [s1 + 64] = 0x1\n 10546: a0 = 0x20\n 10549: a1 = s1 + 0x40\n 10552: u64 [s1 + 72] = 0\n 10555: ra = 324, jump @9\n      : @388 [@dyn 162] (gas: 3)\n 10561: i32 a0 = s1 + 0x100\n 10565: ecalli 10 // 'now'\n 10567: fallthrough\n      : @389 (gas: 12)\n 10568: a3 = s1 + 0x100\n 10572: a0 = u64 [a3 + 0x18]\n 10575: u64 [s1 + 0x18] = a0\n 10578: a0 = u64 [a3 + 0x10]\n 10581: u64 [s1 + 0x28] = a0\n 10584: a0 = u64 [a3 + 0x8]\n 10587: u64 [s1 + 0x38] = a0\n 10590: a2 = u64 [s1 + 0x30]\n 10593: a0 = i32 [a2]\n 10595: a1 = u64 [a3]\n 10597: u64 [s1 + 0x10] = a1\n 10600: jump @391 if a0 >u 63\n      : @390 (gas: 2)\n 10604: u32 [a2 + 0] = 0x40\n 10607: fallthrough\n      : @391 (gas: 12)\n 10608: a0 = sp + 0xffffffffffffffe0\n 10611: a0 = a0 & 0xffffffffffffffe0\n 10614: u64 [s1 + 0x30] = a0\n 10617: sp = a0\n 10619: i32 a2 = a0 + 0\n 10621: a1 = 0x40\n 10624: a0 = u64 [s1 + 0x20]\n 10627: ra = 0x146\n 10631: ecalli 9 // 'hash_keccak_256'\n 10633: a3 = u64 [s1 + 0x30]\n 10636: t0 = 0x148\n 10640: jump @461\n      : @392 [@dyn 163] (gas: 2)\n 10643: a3 = u64 [s1 + 0x30]\n 10646: t0 = 328, jump @461\n      : @393 [@dyn 164] (gas: 16)\n 10652: a4 = s1 + 0x100\n 10656: u64 [a4 + 0x38] = a3\n 10659: u64 [a4 + 0x30] = a2\n 10662: u64 [a4 + 0x28] = a1\n 10665: u64 [a4 + 0x20] = a0\n 10668: a0 = u64 [s1 + 0x18]\n 10671: u64 [a4 + 0x58] = a0\n 10674: a0 = u64 [s1 + 0x28]\n 10677: u64 [a4 + 0x50] = a0\n 10680: a0 = u64 [s1 + 0x38]\n 10683: u64 [a4 + 0x48] = a0\n 10686: a0 = u64 [s1 + 0x10]\n 10689: u64 [a4 + 0x40] = a0\n 10692: a0 = s1 + 0x120\n 10696: a1 = s1 + 0x140\n 10700: ra = 330, jump @12\n      : @394 [@dyn 165] (gas: 6)\n 10706: sp = s0 + 0xfffffffffffffe80\n 10710: ra = u64 [sp + 0x178]\n 10714: s0 = u64 [sp + 0x170]\n 10718: s1 = u64 [sp + 0x168]\n 10722: sp = sp + 0x180\n 10726: ret\n      : @395 (gas: 70)\n 10728: sp = sp + 0xffffffffffffff40\n 10732: u64 [sp + 0xb8] = ra\n 10736: u64 [sp + 0xb0] = s0\n 10740: u64 [sp + 0xa8] = s1\n 10744: s0 = sp + 0xc0\n 10748: sp = sp & 0xfffffffffffffff0\n 10751: ra = u64 [a2]\n 10753: t0 = u64 [a1]\n 10755: a3 = u64 [a1 + 0x8]\n 10758: u64 [sp + 0x58] = a0\n 10761: a4 = u64 [a2 + 0x8]\n 10764: a0 = t0 mulhu ra\n 10767: s1 = a3 * ra\n 10770: a0 = a0 + s1\n 10773: s1 = a0 <u s1\n 10776: a5 = a3 mulhu ra\n 10779: a5 = a5 + s1\n 10782: s1 = t0 * a4\n 10785: a0 = a0 + s1\n 10788: u64 [sp + 0x50] = a0\n 10791: a0 = a0 <u s1\n 10794: s1 = t0 mulhu a4\n 10797: a0 = a0 + s1\n 10800: a0 = a0 + a5\n 10803: a5 = a0 <u a5\n 10806: s1 = a3 mulhu a4\n 10809: a5 = a5 + s1\n 10812: s1 = a3 * a4\n 10815: a0 = a0 + s1\n 10818: u64 [sp + 0x48] = a0\n 10821: s1 = a0 <u s1\n 10824: a5 = a5 + s1\n 10827: u64 [sp + 0x40] = a5\n 10830: t1 = u64 [a2 + 0x10]\n 10833: a2 = u64 [a2 + 0x18]\n 10836: t2 = u64 [a1 + 0x18]\n 10839: a0 = u64 [a1 + 0x10]\n 10842: a5 = a3 * t1\n 10845: u64 [sp + 0x20] = a2\n 10848: s1 = a2 * t0\n 10851: a1 = s1 + a5\n 10854: u64 [sp + 0x28] = a4\n 10857: s1 = a4 * a0\n 10860: a2 = t2 * ra\n 10863: a2 = a2 + s1\n 10866: s1 = t1 * t0\n 10869: a5 = a0 * ra\n 10872: s1 = s1 + a5\n 10875: u64 [sp + 0x30] = t1\n 10878: a4 = t1 mulhu t0\n 10881: u64 [sp + 0x10] = a4\n 10884: a4 = a4 + a1\n 10887: t1 = a0 mulhu ra\n 10890: a1 = t1 + a2\n 10893: a2 = s1 <u a5\n 10896: u64 [sp + 0x18] = a1\n 10899: u64 [sp + 0x8] = a4\n 10902: a5 = a1 + a4\n 10905: a2 = a2 + a5\n 10908: u64 [sp + 0x38] = t2\n 10911: a5 = a3 | t2\n 10914: a1 = t0 | a0\n 10917: a1 = a1 | a5\n 10920: a4 = u64 [sp + 0x40]\n 10923: a5 = u64 [sp + 0x48]\n 10926: s1 = s1 + a5\n 10929: t2 = s1 <u a5\n 10932: a2 = a2 + a4\n 10935: a2 = a2 + t2\n 10938: jump @397 if a1 == 0\n      : @396 (gas: 50)\n 10942: a1 = a2 ^ a4\n 10945: u64 [sp + 0x48] = a2\n 10948: a2 = u64 [sp + 0x48]\n 10951: a2 = a2 <u a4\n 10954: t2 = a2 if a1 != 0\n 10957: u64 [sp + 0x40] = s1\n 10960: a1 = u64 [sp + 0x10]\n 10963: a2 = u64 [sp + 0x8]\n 10966: s1 = a2 <u a1\n 10969: a2 = a3 >u 0\n 10971: a1 = u64 [sp + 0x20]\n 10974: a5 = a1 >u 0\n 10976: a2 = a2 & a5\n 10979: a5 = a1 mulhu t0\n 10982: a5 = a5 >u 0\n 10984: a2 = a2 | a5\n 10987: a4 = t1\n 10989: t1 = u64 [sp + 0x30]\n 10992: a3 = a3 mulhu t1\n 10995: a3 = a3 >u 0\n 10997: a2 = a2 | a3\n 11000: a2 = a2 | s1\n 11003: u64 [sp + 0x10] = a2\n 11006: a2 = u64 [sp + 0x18]\n 11009: a2 = a2 <u a4\n 11012: a4 = u64 [sp + 0x28]\n 11015: a3 = a4 >u 0\n 11017: s1 = u64 [sp + 0x38]\n 11020: a5 = s1 >u 0\n 11022: a3 = a3 & a5\n 11025: a5 = s1 mulhu ra\n 11028: a5 = a5 >u 0\n 11030: a3 = a3 | a5\n 11033: a5 = a4 mulhu a0\n 11036: a5 = a5 >u 0\n 11038: a3 = a3 | a5\n 11041: a2 = a2 | a3\n 11044: a3 = t1 | a1\n 11047: a5 = a0 | s1\n 11050: s1 = u64 [sp + 0x40]\n 11053: a3 = a3 >u 0\n 11055: a5 = a5 >u 0\n 11057: a3 = a3 & a5\n 11060: a2 = a2 | a3\n 11063: a1 = u64 [sp + 0x10]\n 11066: a1 = a1 | a2\n 11069: a2 = u64 [sp + 0x48]\n 11072: a0 = a1 | t2\n 11075: a0 = a0 & 0x1\n 11078: jump @398 if a0 != 0\n      : @397 (gas: 13)\n 11081: a0 = t0 * ra\n 11084: a1 = u64 [sp + 0x58]\n 11087: u64 [a1] = a0\n 11089: a0 = u64 [sp + 0x50]\n 11092: u64 [a1 + 0x8] = a0\n 11095: u64 [a1 + 0x10] = s1\n 11098: u64 [a1 + 0x18] = a2\n 11101: sp = s0 + 0xffffffffffffff40\n 11105: ra = u64 [sp + 0xb8]\n 11109: s0 = u64 [sp + 0xb0]\n 11113: s1 = u64 [sp + 0xa8]\n 11117: sp = sp + 0xc0\n 11121: ret\n      : @398 (gas: 8)\n 11123: u64 [sp + 144] = 0\n 11127: u64 [sp + 136] = 0\n 11131: u64 [sp + 128] = 0\n 11135: a0 = 0x4e487b7100000000\n 11145: a1 = sp + 0x80\n 11149: u64 [sp + 0x98] = a0\n 11153: a0 = 0\n 11155: ra = 332, jump @9\n      : @399 [@dyn 166] (gas: 7)\n 11161: u64 [sp + 120] = 0\n 11164: u64 [sp + 112] = 0\n 11167: u64 [sp + 96] = 0x11\n 11171: a0 = 0x4\n 11174: a1 = sp + 0x60\n 11177: u64 [sp + 104] = 0\n 11180: ra = 334, jump @9\n      : @400 [@dyn 167] (gas: 2)\n 11186: a1 = i32 [0x20068]\n 11191: jump @402 if a1 >u 63\n      : @401 (gas: 2)\n 11195: u32 [0x20068] = 0x40\n 11201: fallthrough\n      : @402 (gas: 7)\n 11202: a1 = 0x20070\n 11207: i32 a1 = a1 + 0\n 11209: a0 = 0x1\n 11212: a2 = 0x24\n 11215: ra = 0x150\n 11219: ecalli 14 // 'seal_return'\n 11221: fallthrough\n      : @403 [@dyn 168] (gas: 22)\n 11222: sp = sp + 0xfffffffffffffc00\n 11226: a2 = sp + 0x300\n 11230: u64 [a2 + 0xf8] = ra\n 11234: u64 [a2 + 0xf0] = s0\n 11238: u64 [a2 + 0xe8] = s1\n 11242: s0 = sp + 0x400\n 11246: sp = sp & 0xffffffffffffffe0\n 11249: s1 = sp\n 11251: a2 = u64 [a1]\n 11253: a3 = u64 [a1 + 0x8]\n 11256: a1 = u32 [a1 + 0x10]\n 11259: u64 [s1 + 0x18] = a0\n 11262: u64 [s1 + 824] = 0\n 11266: u64 [s1 + 0x88] = a1\n 11270: u64 [s1 + 0x330] = a1\n 11274: u64 [s1 + 0x90] = a3\n 11278: u64 [s1 + 0x328] = a3\n 11282: a1 = s1 + 0x320\n 11286: u64 [s1 + 0x98] = a2\n 11290: u64 [s1 + 0x320] = a2\n 11294: a0 = 0\n 11296: ra = 338, jump @9\n      : @404 [@dyn 169] (gas: 7)\n 11302: u64 [s1 + 792] = 0\n 11306: u64 [s1 + 784] = 0\n 11310: u64 [s1 + 768] = 0x1\n 11315: a0 = 0x20\n 11318: a1 = s1 + 0x300\n 11322: u64 [s1 + 776] = 0\n 11326: ra = 340, jump @9\n      : @405 [@dyn 170] (gas: 3)\n 11332: a2 = 0x20068\n 11337: a0 = i32 [0x20068]\n 11342: jump @407 if a0 >u 63\n      : @406 (gas: 2)\n 11346: u32 [0x20068] = 0x40\n 11352: fallthrough\n      : @407 (gas: 15)\n 11353: u64 [s1 + 0x80] = a2\n 11357: a0 = sp + 0xffffffffffffffe0\n 11360: a2 = a0 & 0xffffffffffffffe0\n 11363: u64 [s1 + 0x70] = a2\n 11366: sp = a2\n 11368: a0 = 0x20070\n 11373: i32 a0 = a0 + 0\n 11375: i32 a2 = a2 + 0\n 11377: a1 = 0x40\n 11380: u64 [s1 + 0x78] = a0\n 11383: ra = 0x156\n 11387: ecalli 9 // 'hash_keccak_256'\n 11389: a3 = u64 [s1 + 0x70]\n 11392: t0 = 0x158\n 11396: jump @463\n      : @408 [@dyn 171] (gas: 2)\n 11399: a3 = u64 [s1 + 0x70]\n 11402: t0 = 344, jump @463\n      : @409 [@dyn 172] (gas: 7)\n 11408: u64 [a4 + 0x58] = a3\n 11411: u64 [a4 + 0x50] = a2\n 11414: u64 [a4 + 0x48] = a1\n 11417: u64 [a4 + 0x40] = a0\n 11420: a0 = s1 + 0x2e0\n 11424: a1 = s1 + 0x340\n 11428: ra = 346, jump @11\n      : @410 [@dyn 173] (gas: 9)\n 11434: a4 = s1 + 0x200\n 11438: a0 = u64 [a4 + 0xf0]\n 11442: a1 = u64 [a4 + 0xf8]\n 11446: a2 = u64 [a4 + 0xe8]\n 11450: a3 = u64 [a4 + 0xe0]\n 11454: a1 = a1 | a2\n 11457: a0 = a0 | a3\n 11460: a0 = a0 | a1\n 11463: jump @453 if a0 == 0\n      : @411 (gas: 11)\n 11467: u64 [s1 + 728] = 0\n 11471: a0 = u64 [s1 + 0x98]\n 11475: a2 = s1 + 0x200\n 11479: u64 [a2 + 0xc0] = a0\n 11483: a0 = u64 [s1 + 0x90]\n 11487: u64 [a2 + 0xc8] = a0\n 11491: a1 = s1 + 0x2c0\n 11495: a0 = u64 [s1 + 0x88]\n 11499: u64 [a2 + 0xd0] = a0\n 11503: a0 = 0\n 11505: ra = 348, jump @9\n      : @412 [@dyn 174] (gas: 7)\n 11511: u64 [s1 + 696] = 0\n 11515: u64 [s1 + 688] = 0\n 11519: u64 [s1 + 680] = 0\n 11523: a0 = 0x20\n 11526: a1 = s1 + 0x2a0\n 11530: u64 [s1 + 672] = 0\n 11534: ra = 350, jump @9\n      : @413 [@dyn 175] (gas: 3)\n 11540: a2 = u64 [s1 + 0x80]\n 11544: a0 = i32 [a2]\n 11546: jump @415 if a0 >u 63\n      : @414 (gas: 3)\n 11550: u32 [a2 + 0] = 0x40\n 11553: t0 = 0x160\n 11557: jump @469\n      : @415 (gas: 1)\n 11560: t0 = 352, jump @469\n      : @416 [@dyn 176] (gas: 5)\n 11566: ra = 0x162\n 11570: ecalli 9 // 'hash_keccak_256'\n 11572: a3 = u64 [s1 + 0x70]\n 11575: t0 = 0x164\n 11579: jump @463\n      : @417 [@dyn 177] (gas: 2)\n 11582: a3 = u64 [s1 + 0x70]\n 11585: t0 = 356, jump @463\n      : @418 [@dyn 178] (gas: 7)\n 11591: u64 [a4 + 0x78] = a3\n 11594: u64 [a4 + 0x70] = a2\n 11597: u64 [a4 + 0x68] = a1\n 11600: u64 [a4 + 0x60] = a0\n 11603: a0 = s1 + 0x280\n 11607: a1 = s1 + 0x360\n 11611: ra = 358, jump @11\n      : @419 [@dyn 179] (gas: 9)\n 11617: a4 = s1 + 0x200\n 11621: a0 = u64 [a4 + 0x90]\n 11625: a1 = u64 [a4 + 0x98]\n 11629: a2 = u64 [a4 + 0x88]\n 11633: a3 = u64 [a4 + 0x80]\n 11637: a1 = a1 | a2\n 11640: a0 = a0 | a3\n 11643: a0 = a0 | a1\n 11646: jump @453 if a0 == 0\n      : @420 (gas: 10)\n 11650: u64 [s1 + 632] = 0\n 11654: a0 = u64 [s1 + 0x98]\n 11658: u64 [s1 + 0x260] = a0\n 11662: a0 = u64 [s1 + 0x90]\n 11666: u64 [s1 + 0x268] = a0\n 11670: a1 = s1 + 0x260\n 11674: a0 = u64 [s1 + 0x88]\n 11678: u64 [s1 + 0x270] = a0\n 11682: a0 = 0\n 11684: ra = 360, jump @9\n      : @421 [@dyn 180] (gas: 7)\n 11690: u64 [s1 + 600] = 0\n 11694: u64 [s1 + 592] = 0\n 11698: u64 [s1 + 576] = 0x1\n 11703: a0 = 0x20\n 11706: a1 = s1 + 0x240\n 11710: u64 [s1 + 584] = 0\n 11714: ra = 362, jump @9\n      : @422 [@dyn 181] (gas: 3)\n 11720: a1 = u64 [s1 + 0x80]\n 11724: a0 = i32 [a1]\n 11726: jump @424 if a0 >u 63\n      : @423 (gas: 3)\n 11730: u32 [a1 + 0] = 0x40\n 11733: t0 = 0x16c\n 11737: jump @469\n      : @424 (gas: 1)\n 11740: t0 = 364, jump @469\n      : @425 [@dyn 182] (gas: 5)\n 11746: ra = 0x16e\n 11750: ecalli 9 // 'hash_keccak_256'\n 11752: a3 = u64 [s1 + 0x70]\n 11755: t0 = 0x170\n 11759: jump @461\n      : @426 [@dyn 183] (gas: 2)\n 11762: a3 = u64 [s1 + 0x70]\n 11765: t0 = 368, jump @461\n      : @427 [@dyn 184] (gas: 7)\n 11771: u64 [s1 + 0x398] = a3\n 11775: u64 [s1 + 0x390] = a2\n 11779: u64 [s1 + 0x388] = a1\n 11783: u64 [s1 + 0x380] = a0\n 11787: a0 = s1 + 0x220\n 11791: a1 = s1 + 0x380\n 11795: ra = 370, jump @11\n      : @428 [@dyn 185] (gas: 31)\n 11801: a0 = u64 [s1 + 0x220]\n 11805: u64 [s1 + 0x70] = a0\n 11808: a0 = u64 [s1 + 0x228]\n 11812: u64 [s1 + 0x68] = a0\n 11815: a0 = u64 [s1 + 0x230]\n 11819: u64 [s1 + 0x60] = a0\n 11822: a0 = u64 [s1 + 0x238]\n 11826: u64 [s1 + 0x58] = a0\n 11829: i32 a0 = s1 + 0x3a0\n 11833: ecalli 10 // 'now'\n 11835: a4 = s1 + 0x300\n 11839: a3 = u64 [a4 + 0xa0]\n 11843: a0 = u64 [a4 + 0xa8]\n 11847: a1 = u64 [a4 + 0xb0]\n 11851: a2 = u64 [a4 + 0xb8]\n 11855: a4 = u64 [s1 + 0x58]\n 11858: u64 [s1 + 0x1d8] = a4\n 11862: a4 = u64 [s1 + 0x60]\n 11865: u64 [s1 + 0x1d0] = a4\n 11869: a4 = u64 [s1 + 0x68]\n 11872: u64 [s1 + 0x1c8] = a4\n 11876: a4 = u64 [s1 + 0x70]\n 11879: u64 [s1 + 0x1c0] = a4\n 11883: u64 [s1 + 0x1f8] = a2\n 11887: u64 [s1 + 0x1f0] = a1\n 11891: u64 [s1 + 0x1e8] = a0\n 11895: a0 = s1 + 0x200\n 11899: a1 = s1 + 0x1e0\n 11903: a2 = s1 + 0x1c0\n 11907: u64 [s1 + 0x1e0] = a3\n 11911: ra = 372, jump @300\n      : @429 [@dyn 186] (gas: 20)\n 11917: a1 = s1 + 0x200\n 11921: a0 = u64 [a1 + 0x18]\n 11924: u64 [s1 + 0x58] = a0\n 11927: a0 = u64 [a1 + 0x10]\n 11930: u64 [s1 + 0x60] = a0\n 11933: a0 = u64 [a1 + 0x8]\n 11936: u64 [s1 + 0x68] = a0\n 11939: a0 = u64 [a1]\n 11941: u64 [s1 + 0x70] = a0\n 11944: u64 [s1 + 440] = 0\n 11948: a0 = u64 [s1 + 0x88]\n 11952: a2 = s1 + 0x100\n 11956: u64 [a2 + 0xb0] = a0\n 11960: a0 = u64 [s1 + 0x90]\n 11964: u64 [a2 + 0xa8] = a0\n 11968: a1 = s1 + 0x1a0\n 11972: a0 = u64 [s1 + 0x98]\n 11976: u64 [a2 + 0xa0] = a0\n 11980: a0 = 0\n 11982: ra = 374, jump @9\n      : @430 [@dyn 187] (gas: 7)\n 11988: u64 [s1 + 408] = 0\n 11992: u64 [s1 + 400] = 0\n 11996: u64 [s1 + 392] = 0\n 12000: a0 = 0x20\n 12003: a1 = s1 + 0x180\n 12007: u64 [s1 + 384] = 0\n 12011: ra = 376, jump @9\n      : @431 [@dyn 188] (gas: 3)\n 12017: a1 = u64 [s1 + 0x80]\n 12021: a0 = i32 [a1]\n 12023: jump @433 if a0 >u 63\n      : @432 (gas: 2)\n 12027: u32 [a1 + 0] = 0x40\n 12030: fallthrough\n      : @433 (gas: 12)\n 12031: a0 = sp + 0xffffffffffffffe0\n 12034: a0 = a0 & 0xffffffffffffffe0\n 12037: u64 [s1 + 0x98] = a0\n 12041: sp = a0\n 12043: i32 a2 = a0 + 0\n 12045: a1 = 0x40\n 12048: a0 = u64 [s1 + 0x78]\n 12051: ra = 0x17a\n 12055: ecalli 9 // 'hash_keccak_256'\n 12057: a3 = u64 [s1 + 0x98]\n 12061: t0 = 0x17c\n 12065: jump @463\n      : @434 [@dyn 189] (gas: 2)\n 12068: a3 = u64 [s1 + 0x98]\n 12072: t0 = 380, jump @463\n      : @435 [@dyn 190] (gas: 7)\n 12078: u64 [a4 + 0xd8] = a3\n 12082: u64 [a4 + 0xd0] = a2\n 12086: u64 [a4 + 0xc8] = a1\n 12090: u64 [a4 + 0xc0] = a0\n 12094: a0 = s1 + 0x160\n 12098: a1 = s1 + 0x3c0\n 12102: ra = 382, jump @11\n      : @436 [@dyn 191] (gas: 9)\n 12108: a0 = u64 [s1 + 0x160]\n 12112: u64 [s1 + 0x98] = a0\n 12116: a0 = u64 [s1 + 0x168]\n 12120: u64 [s1 + 0x90] = a0\n 12124: a0 = u64 [s1 + 0x170]\n 12128: u64 [s1 + 0x88] = a0\n 12132: a0 = u64 [s1 + 0x178]\n 12136: u64 [s1 + 0x80] = a0\n 12140: ra = 384, jump @0\n      : @437 [@dyn 192] (gas: 20)\n 12146: a1 = u64 [0x30090]\n 12151: a2 = u64 [0x30098]\n 12156: a3 = u64 [0x300a0]\n 12161: a0 = u64 [0x300a8]\n 12166: u64 [s1 + 0x118] = a0\n 12170: u64 [s1 + 0x110] = a3\n 12174: u64 [s1 + 0x108] = a2\n 12178: u64 [s1 + 0x100] = a1\n 12182: a0 = u64 [s1 + 0x80]\n 12186: u64 [s1 + 0x138] = a0\n 12190: a0 = u64 [s1 + 0x88]\n 12194: u64 [s1 + 0x130] = a0\n 12198: a0 = u64 [s1 + 0x90]\n 12202: u64 [s1 + 0x128] = a0\n 12206: a0 = s1 + 0x140\n 12210: a1 = s1 + 0x120\n 12214: a2 = s1 + 0x100\n 12218: a3 = u64 [s1 + 0x98]\n 12222: u64 [s1 + 0x120] = a3\n 12226: ra = 386, jump @395\n      : @438 [@dyn 193] (gas: 21)\n 12232: a4 = s1 + 0x100\n 12236: a3 = u64 [a4 + 0x40]\n 12239: a0 = u64 [a4 + 0x48]\n 12242: a1 = u64 [a4 + 0x50]\n 12245: a2 = u64 [a4 + 0x58]\n 12248: a4 = u64 [s1 + 0x58]\n 12251: u64 [s1 + 0xb8] = a4\n 12255: a4 = u64 [s1 + 0x60]\n 12258: u64 [s1 + 0xb0] = a4\n 12262: a4 = u64 [s1 + 0x68]\n 12265: u64 [s1 + 0xa8] = a4\n 12269: a4 = u64 [s1 + 0x70]\n 12272: u64 [s1 + 0xa0] = a4\n 12276: u64 [s1 + 0xd8] = a2\n 12280: u64 [s1 + 0xd0] = a1\n 12284: u64 [s1 + 0xc8] = a0\n 12288: a0 = s1 + 0xe0\n 12292: a1 = s1 + 0xc0\n 12296: a2 = s1 + 0xa0\n 12300: u64 [s1 + 0xc0] = a3\n 12304: ra = 388, jump @395\n      : @439 [@dyn 194] (gas: 55)\n 12310: t0 = u64 [s1 + 0xf8]\n 12314: t2 = u64 [s1 + 0xf0]\n 12318: t1 = u64 [s1 + 0xe8]\n 12322: a1 = u64 [s1 + 0xe0]\n 12326: u64 [s1 + 0x58] = a1\n 12329: a0 = clz t0\n 12331: a2 = clz t2\n 12333: a5 = a2 + 0x40\n 12336: a5 = a0 if t0 != 0\n 12339: a0 = clz t1\n 12341: a2 = clz a1\n 12343: a2 = a2 + 0x40\n 12346: a2 = a0 if t1 != 0\n 12349: a0 = a2 + 0x80\n 12353: a3 = t2 | t0\n 12356: a5 = a0 if a3 == 0\n 12359: a2 = a0 <u a2\n 12362: a2 = 0 if a3 != 0\n 12364: a3 = a2 >u 0\n 12366: a0 = a5 <u 0xc5\n 12370: a4 = a0 ^ 0x1\n 12373: a3 = a4 if a2 == 0\n 12376: a0 = a3 <u 0x1\n 12379: a0 = a0 + 0xffffffffffffffff\n 12382: ra = -a3\n 12384: a2 = -a2\n 12386: a1 = a2 - a4\n 12389: a2 = 0xc4 - a5\n 12393: u64 [s1 + 0x88] = ra\n 12397: a5 = ra >u 0\n 12399: a4 = a0 >u 0\n 12401: u64 [s1 + 0x80] = a0\n 12405: a4 = a5 if a0 == 0\n 12408: u64 [s1 + 0x90] = a2\n 12412: a0 = a2 <u 0x100\n 12416: a0 = a0 ^ 0x1\n 12419: a5 = a1 >u 0\n 12421: a0 = a5 if a1 != 0\n 12424: a0 = a4 if a3 != 0\n 12427: a3 = t1 | t0\n 12430: ra = u64 [s1 + 0x58]\n 12433: a4 = ra | t2\n 12436: a3 = a3 | a4\n 12439: a3 = a3 <u 0x1\n 12442: a0 = a0 | a3\n 12445: u64 [s1 + 0x50] = t0\n 12448: a2 = t0\n 12450: a2 = 0 if a0 != 0\n 12452: a5 = t2\n 12454: a5 = 0 if a0 != 0\n 12456: a4 = t1\n 12458: a4 = 0 if a0 != 0\n 12460: t0 = ra\n 12462: t0 = 0 if a0 != 0\n 12464: jump @456 if a0 != 0\n      : @440 (gas: 9)\n 12468: ra = t2\n 12470: a0 = u64 [s1 + 0x90]\n 12474: a0 = a0 ^ 0xff\n 12478: a3 = u64 [s1 + 0x88]\n 12482: t2 = a0 | a3\n 12485: a3 = u64 [s1 + 0x80]\n 12489: a0 = a1 | a3\n 12492: a0 = t2 | a0\n 12495: jump @456 if a0 == 0\n      : @441 (gas: 22)\n 12499: a4 = u64 [s1 + 0x90]\n 12503: a2 = a4 + 0x1\n 12506: u64 [s1 + 0x98] = a2\n 12510: a0 = a2 <u 0x1\n 12513: a0 = a0 + a1\n 12516: u64 [s1 + 0x70] = a0\n 12519: a0 = a0 | a2\n 12522: a0 = a0 <u 0x1\n 12525: a2 = u64 [s1 + 0x88]\n 12529: a0 = a0 + a2\n 12532: u64 [s1 + 0x60] = a0\n 12535: a0 = a0 <u a2\n 12538: a0 = a0 + a3\n 12541: u64 [s1 + 0x68] = a0\n 12544: a1 = 0xff - a4\n 12548: u64 [s1 + 0x78] = a1\n 12551: a2 = 0x80 - a1\n 12555: a0 = u64 [s1 + 0x58]\n 12558: a1 = t1\n 12560: u64 [s1 + 0x48] = t1\n 12563: u64 [s1 + 0x40] = ra\n 12566: ra = 390, jump @470\n      : @442 [@dyn 195] (gas: 6)\n 12572: u64 [s1 + 0x88] = a0\n 12576: u64 [s1 + 0x80] = a1\n 12580: a0 = u64 [s1 + 0x40]\n 12583: a1 = u64 [s1 + 0x50]\n 12586: a2 = u64 [s1 + 0x78]\n 12589: ra = 392, jump @475\n      : @443 [@dyn 196] (gas: 9)\n 12595: u64 [s1 + 0x38] = a0\n 12598: a0 = u64 [s1 + 0x80]\n 12602: a0 = a0 | a1\n 12605: u64 [s1 + 0x80] = a0\n 12609: a1 = u64 [s1 + 0x90]\n 12613: a2 = 0x7f - a1\n 12616: a0 = u64 [s1 + 0x58]\n 12619: a1 = u64 [s1 + 0x48]\n 12622: ra = 394, jump @475\n      : @444 [@dyn 197] (gas: 18)\n 12628: a2 = u64 [s1 + 0x78]\n 12631: a3 = a2 <u 0x80\n 12635: u64 [s1 + 0x90] = a3\n 12639: a4 = u64 [s1 + 0x80]\n 12643: a1 = a4 if a3 != 0\n 12646: a4 = u64 [s1 + 0x50]\n 12649: a1 = a4 if a2 == 0\n 12652: u64 [s1 + 0x80] = a1\n 12656: a1 = u64 [s1 + 0x88]\n 12660: a4 = u64 [s1 + 0x38]\n 12663: a1 = a1 | a4\n 12666: a1 = a0 if a3 == 0\n 12669: a0 = u64 [s1 + 0x40]\n 12672: a1 = a0 if a2 == 0\n 12675: u64 [s1 + 0x88] = a1\n 12679: a0 = u64 [s1 + 0x58]\n 12682: a1 = u64 [s1 + 0x48]\n 12685: ra = 396, jump @475\n      : @445 [@dyn 198] (gas: 13)\n 12691: a3 = u64 [s1 + 0x60]\n 12694: a4 = u64 [s1 + 0x68]\n 12697: a2 = u64 [s1 + 0x70]\n 12700: a2 = a2 | a4\n 12703: a5 = u64 [s1 + 0x98]\n 12707: a5 = a5 | a3\n 12710: a2 = a2 | a5\n 12713: a3 = u64 [s1 + 0x90]\n 12717: a1 = 0 if a3 == 0\n 12719: u64 [s1 + 0x78] = a1\n 12722: a0 = 0 if a3 == 0\n 12724: u64 [s1 + 0x90] = a0\n 12728: jump @454 if a2 == 0\n      : @446 (gas: 7)\n 12732: a0 = 0xde0b6b3a7640000\n 12742: u64 [s1 + 0x30] = a0\n 12745: a0 = u64 [s1 + 0x98]\n 12749: a2 = a0 + 0xffffffffffffff80\n 12752: a0 = u64 [s1 + 0x40]\n 12755: a1 = u64 [s1 + 0x50]\n 12758: ra = 398, jump @470\n      : @447 [@dyn 199] (gas: 6)\n 12764: u64 [s1 + 0x38] = a0\n 12767: u64 [s1 + 0x20] = a1\n 12770: a0 = u64 [s1 + 0x58]\n 12773: a1 = u64 [s1 + 0x48]\n 12776: a2 = u64 [s1 + 0x98]\n 12780: ra = 400, jump @470\n      : @448 [@dyn 200] (gas: 7)\n 12786: u64 [s1 + 0x10] = a0\n 12789: u64 [s1 + 0x28] = a1\n 12792: a1 = u64 [s1 + 0x98]\n 12796: a2 = 0x80 - a1\n 12800: a0 = u64 [s1 + 0x40]\n 12803: a1 = u64 [s1 + 0x50]\n 12806: ra = 402, jump @475\n      : @449 [@dyn 201] (gas: 21)\n 12812: a2 = u64 [s1 + 0x28]\n 12815: a1 = a1 | a2\n 12818: a3 = u64 [s1 + 0x98]\n 12822: a4 = a3 <u 0x80\n 12826: u64 [s1 + 0x28] = a4\n 12829: a2 = u64 [s1 + 0x20]\n 12832: a1 = a2 if a4 == 0\n 12835: a2 = u64 [s1 + 0x48]\n 12838: a2 = a1 if a3 != 0\n 12841: u64 [s1 + 0x48] = a2\n 12844: a1 = u64 [s1 + 0x10]\n 12847: a0 = a0 | a1\n 12850: a1 = u64 [s1 + 0x38]\n 12853: a0 = a1 if a4 == 0\n 12856: a1 = u64 [s1 + 0x58]\n 12859: a1 = a0 if a3 != 0\n 12862: a2 = a3\n 12864: u64 [s1 + 0x58] = a1\n 12867: a0 = u64 [s1 + 0x40]\n 12870: a1 = u64 [s1 + 0x50]\n 12873: ra = 404, jump @470\n      : @450 [@dyn 202] (gas: 13)\n 12879: a5 = 0\n 12881: a2 = u64 [s1 + 0x28]\n 12884: a1 = 0 if a2 == 0\n 12886: a0 = 0 if a2 == 0\n 12888: a4 = u64 [s1 + 0x30]\n 12891: a2 = a4 + 0xffffffffffffffff\n 12894: u64 [s1 + 0x28] = a2\n 12897: a2 = a4 >u 0\n 12899: a2 = a2 + 0xffffffffffffffff\n 12902: u64 [s1 + 0x20] = a2\n 12905: t2 = u64 [s1 + 0x48]\n 12908: t0 = u64 [s1 + 0x58]\n 12911: fallthrough\n      : @451 (gas: 90)\n 12912: u64 [s1 + 0x48] = a1\n 12915: u64 [s1 + 0x50] = a5\n 12918: u64 [s1 + 56] = 0\n 12921: a2 = t0 >> 0x3f\n 12924: a3 = t2 << 0x1\n 12927: a3 = a3 | a2\n 12930: a2 = t0 << 0x1\n 12933: ra = u64 [s1 + 0x80]\n 12937: a4 = ra >> 0x3f\n 12940: a4 = a4 | a2\n 12943: u64 [s1 + 0x58] = a4\n 12946: a2 = u64 [s1 + 0x20]\n 12949: a1 = a2 ^ a3\n 12952: u64 [s1 + 0x40] = a1\n 12955: a1 = a2 <u a3\n 12958: a5 = u64 [s1 + 0x28]\n 12961: t0 = a5 <u a4\n 12964: a4 = u64 [s1 + 0x40]\n 12967: t0 = a1 if a4 != 0\n 12970: a1 = u64 [s1 + 0x48]\n 12973: a1 = a1 << 0x1\n 12976: a4 = a0 >> 0x3f\n 12979: a1 = a1 | a4\n 12982: u64 [s1 + 0x48] = a1\n 12985: a4 = t2 >> 0x3f\n 12988: a0 = a0 << 0x1\n 12991: a4 = a4 | a0\n 12994: a0 = ra << 0x1\n 12997: a1 = u64 [s1 + 0x88]\n 13001: a5 = a1 >> 0x3f\n 13004: a0 = a0 | a5\n 13007: u64 [s1 + 0x80] = a0\n 13011: a5 = a1 << 0x1\n 13014: a0 = u64 [s1 + 0x78]\n 13017: a1 = a0 >> 0x3f\n 13020: t2 = a5 | a1\n 13023: a5 = a0 << 0x1\n 13026: a0 = u64 [s1 + 0x90]\n 13030: ra = a0 >> 0x3f\n 13033: a5 = a5 | ra\n 13036: a0 = a0 << 0x1\n 13039: a1 = u64 [s1 + 0x50]\n 13042: a0 = a0 | a1\n 13045: u64 [s1 + 0x90] = a0\n 13049: a0 = a5 | 0\n 13051: u64 [s1 + 0x78] = a0\n 13054: a0 = t2 | 0\n 13056: u64 [s1 + 0x88] = a0\n 13060: a0 = u64 [s1 + 0x80]\n 13064: a0 = a0 | 0\n 13066: u64 [s1 + 0x80] = a0\n 13070: a0 = a2 - a4\n 13073: a0 = a0 <u t0\n 13076: a1 = a2 <u a4\n 13079: t1 = u64 [s1 + 0x48]\n 13082: a5 = a2 - t1\n 13085: a5 = a5 - a1\n 13088: a5 = a5 - a0\n 13091: ra = a5 >>a 0x3f\n 13094: a0 = u64 [s1 + 0x30]\n 13097: a0 = ra & a0\n 13100: a1 = u64 [s1 + 0x58]\n 13103: t0 = a1 - a0\n 13106: a1 = a1 <u a0\n 13109: t2 = a3 - a1\n 13112: a1 = 0 if a3 != 0\n 13114: a0 = a4 - a1\n 13117: a1 = a4 <u a1\n 13120: a1 = t1 - a1\n 13123: a3 = u64 [s1 + 0x98]\n 13127: a5 = u64 [s1 + 0x70]\n 13130: a2 = a3 | a5\n 13133: a2 = a2 <u 0x1\n 13136: a4 = u64 [s1 + 0x60]\n 13139: t1 = a4 <u a2\n 13142: a4 = a4 - a2\n 13145: a2 = a3 <u 0x1\n 13148: a5 = a5 - a2\n 13151: a2 = u64 [s1 + 0x68]\n 13154: a2 = a2 - t1\n 13157: a3 = a3 + 0xffffffffffffffff\n 13160: u64 [s1 + 0x70] = a5\n 13163: u64 [s1 + 0x68] = a2\n 13166: a2 = a2 | a5\n 13169: u64 [s1 + 0x98] = a3\n 13173: a3 = a3 | a4\n 13176: a2 = a2 | a3\n 13179: a5 = ra & 0x1\n 13182: u64 [s1 + 0x60] = a4\n 13185: jump @451 if a2 != 0\n      : @452 (gas: 1)\n 13189: jump @455\n      : @453 (gas: 5)\n 13191: t0 = 0\n 13193: a4 = 0\n 13195: a5 = 0\n 13197: a2 = 0\n 13199: jump @456\n      : @454 (gas: 3)\n 13201: a5 = 0\n 13203: u64 [s1 + 56] = 0\n 13206: fallthrough\n      : @455 (gas: 20)\n 13207: a2 = u64 [s1 + 0x88]\n 13211: a0 = a2 >> 0x3f\n 13214: a1 = u64 [s1 + 0x80]\n 13218: a1 = a1 << 0x1\n 13221: t1 = a1 | a0\n 13224: a4 = u64 [s1 + 0x78]\n 13227: a1 = a4 >> 0x3f\n 13230: a2 = a2 << 0x1\n 13233: a1 = a1 | a2\n 13236: a3 = u64 [s1 + 0x90]\n 13240: a2 = a3 >> 0x3f\n 13243: a4 = a4 << 0x1\n 13246: a3 = a3 << 0x1\n 13249: t0 = a5 | a3\n 13252: a0 = u64 [s1 + 0x38]\n 13255: a2 = a2 | a0\n 13258: a4 = a4 | a2\n 13261: a5 = a0 | a1\n 13264: a2 = a0 | t1\n 13267: fallthrough\n      : @456 (gas: 12)\n 13268: a1 = u64 [s1 + 0x18]\n 13271: u64 [a1] = t0\n 13273: u64 [a1 + 0x8] = a4\n 13276: u64 [a1 + 0x10] = a5\n 13279: u64 [a1 + 0x18] = a2\n 13282: sp = s0 + 0xfffffffffffffc00\n 13286: a0 = sp + 0x300\n 13290: ra = u64 [a0 + 0xf8]\n 13294: s0 = u64 [a0 + 0xf0]\n 13298: s1 = u64 [a0 + 0xe8]\n 13302: sp = sp + 0x400\n 13306: ret\n      : @457 [export #0: 'call'] (gas: 2)\n 13308: a0 = 0\n 13310: ra = 406, jump @21\n      : @458 [@dyn 203] [export #1: 'deploy'] (gas: 2)\n 13316: a0 = 0x1\n 13319: ra = 408, jump @21\n      : @459 [@dyn 204] (gas: 14)\n 13325: a0 = u64 [a2 + 0x8]\n 13328: a1 = i32 [a2 + 0x10]\n 13331: a2 = u64 [a2]\n 13333: a0 = reverse a0\n 13335: a3 = a0 << 0x20\n 13338: a1 = reverse a1\n 13340: a1 = a1 >> 0x20\n 13343: a3 = a3 | a1\n 13346: a0 = a0 >> 0x20\n 13349: a1 = reverse a2\n 13351: a2 = a1 << 0x20\n 13354: a0 = a0 | a2\n 13357: a1 = a1 >> 0x20\n 13360: jump [t0]\n      : @460 (gas: 10)\n 13362: a0 = u64 [a3 + 0x18]\n 13365: a1 = u64 [a3 + 0x10]\n 13368: a2 = u64 [a3 + 0x8]\n 13371: a3 = u64 [a3]\n 13373: a0 = reverse a0\n 13375: a1 = reverse a1\n 13377: a2 = reverse a2\n 13379: a3 = reverse a3\n 13381: a4 = s1 + 0x7f0\n 13385: jump [t0]\n      : @461 (gas: 9)\n 13387: a0 = u64 [a3 + 0x18]\n 13390: a1 = u64 [a3 + 0x10]\n 13393: a2 = u64 [a3 + 0x8]\n 13396: a3 = u64 [a3]\n 13398: a0 = reverse a0\n 13400: a1 = reverse a1\n 13402: a2 = reverse a2\n 13404: a3 = reverse a3\n 13406: jump [t0]\n      : @462 (gas: 8)\n 13408: a0 = a0 | a2\n 13411: a2 = a3 | a1\n 13414: a2 = a2 | a0\n 13417: a2 = a2 >> 0x20\n 13420: a0 = a0 | a1\n 13423: a0 = a0 << 0x20\n 13426: a0 = a0 | a2\n 13429: jump [t0]\n      : @463 (gas: 10)\n 13431: a0 = u64 [a3 + 0x18]\n 13434: a1 = u64 [a3 + 0x10]\n 13437: a2 = u64 [a3 + 0x8]\n 13440: a3 = u64 [a3]\n 13442: a0 = reverse a0\n 13444: a1 = reverse a1\n 13446: a2 = reverse a2\n 13448: a3 = reverse a3\n 13450: a4 = s1 + 0x300\n 13454: jump [t0]\n      : @464 (gas: 8)\n 13456: a2 = 0x100000000\n 13466: a2 = a2 ^ a1\n 13469: a2 = a2 | a0\n 13472: a3 = a1 >> 0x20\n 13475: a3 = a3 <u 0x1\n 13478: a3 = 0 if a0 != 0\n 13480: a3 = 0 if a2 == 0\n 13482: jump [t0]\n      : @465 (gas: 15)\n 13484: a2 = u64 [s1 + 0x78]\n 13487: a0 = u64 [a2 + 0x8]\n 13490: a1 = i32 [a2 + 0x10]\n 13493: a2 = u64 [a2]\n 13495: a0 = reverse a0\n 13497: a3 = a0 << 0x20\n 13500: a1 = reverse a1\n 13502: a1 = a1 >> 0x20\n 13505: a1 = a1 | a3\n 13508: a0 = a0 >> 0x20\n 13511: a2 = reverse a2\n 13513: a3 = a2 << 0x20\n 13516: a0 = a0 | a3\n 13519: a2 = a2 >> 0x20\n 13522: jump [t0]\n      : @466 (gas: 14)\n 13524: a0 = u64 [a2 + 0x8]\n 13527: a1 = u64 [a2]\n 13529: a2 = i32 [a2 + 0x10]\n 13532: a0 = reverse a0\n 13534: a3 = a0 >> 0x20\n 13537: a1 = reverse a1\n 13539: a4 = a1 << 0x20\n 13542: a3 = a3 | a4\n 13545: a0 = a0 << 0x20\n 13548: a2 = reverse a2\n 13550: a2 = a2 >> 0x20\n 13553: a0 = a0 | a2\n 13556: a1 = a1 >> 0x20\n 13559: jump [t0]\n      : @467 (gas: 8)\n 13561: a0 = u64 [a2 + 0x8]\n 13564: a1 = i32 [a2 + 0x10]\n 13567: a2 = u64 [a2]\n 13569: a3 = reverse a0\n 13571: a0 = a3 << 0x20\n 13574: a1 = reverse a1\n 13576: a1 = a1 >> 0x20\n 13579: jump [t0]\n      : @468 (gas: 9)\n 13581: a0 = u64 [a3 + 0x18]\n 13584: a1 = u64 [a3 + 0x10]\n 13587: a2 = u64 [a3 + 0x8]\n 13590: a3 = u64 [a3]\n 13592: a0 = reverse a0\n 13594: a4 = reverse a1\n 13596: a2 = reverse a2\n 13598: a3 = reverse a3\n 13600: jump [t0]\n      : @469 (gas: 8)\n 13602: a0 = sp + 0xffffffffffffffe0\n 13605: a0 = a0 & 0xffffffffffffffe0\n 13608: u64 [s1 + 0x70] = a0\n 13611: sp = a0\n 13613: i32 a2 = a0 + 0\n 13615: a1 = 0x40\n 13618: a0 = u64 [s1 + 0x78]\n 13621: jump [t0]\n      : @470 (gas: 2)\n 13623: a3 = a2 & 0x40\n 13626: jump @474 if a3 != 0\n      : @471 (gas: 1)\n 13629: jump @473 if a2 == 0\n      : @472 (gas: 6)\n 13632: i32 a3 = 0x40 - a2\n 13635: a3 = a1 << a3\n 13638: a1 = a1 >> a2\n 13641: a0 = a0 >> a2\n 13644: a0 = a0 | a3\n 13647: ret\n      : @473 (gas: 1)\n 13649: ret\n      : @474 (gas: 4)\n 13651: a0 = a2 + 0xffffffffffffffc0\n 13654: a0 = a1 >> a0\n 13657: a1 = 0\n 13659: ret\n      : @475 (gas: 2)\n 13661: a3 = a2 & 0x40\n 13664: jump @479 if a3 != 0\n      : @476 (gas: 1)\n 13667: jump @478 if a2 == 0\n      : @477 (gas: 6)\n 13670: i32 a3 = 0x40 - a2\n 13673: a3 = a0 >> a3\n 13676: a0 = a0 << a2\n 13679: a1 = a1 << a2\n 13682: a1 = a1 | a3\n 13685: ret\n      : @478 (gas: 1)\n 13687: ret\n      : @479 (gas: 4)\n 13689: a1 = a2 + 0xffffffffffffffc0\n 13692: a1 = a0 << a1\n 13695: a0 = 0\n 13697: ret\n","bytecode":{"object":"50564d00008d3f000000000000010700c1d000c00080036439a602ea8ebc719eb9af2d8f8109f569dbf91943903245253d5f4ad37bb679dab5b1fe7621b85b0f1592aa7184e247e7f2459fabf3d9046a753fb93242702d8ef42b8ea3decd30fcadb6d39e3f7dead6d83b96f41964177ffe73ee4a7a061813400000000481261200000000070000000b0000001900000027000000350000003b000000480000005a0000006500000074000000770000008400000094000000a4000000af000000c1000000cc00000062616c616e636563616c6c63616c6c5f646174615f636f707963616c6c5f646174615f6c6f616463616c6c5f646174615f73697a6563616c6c65726465706f7369745f6576656e746765745f696d6d757461626c655f646174616765745f73746f72616765686173685f6b656363616b5f3235366e6f777265665f74696d655f6c65667472657475726e5f646174615f636f707972657475726e5f646174615f73697a657365616c5f72657475726e7365745f696d6d757461626c655f646174617365745f73746f7261676576616c75655f7472616e73666572726564051102b3fc0463616c6cb404066465706c6f7906bdd180cc02b5836a00b201b40364046904ea04f504100539059905be05ca05230637066b069206a706e9060d07b507c607ef070b084008480869089108a508270938095c097809ad09b509d609fe09170a8f0abf0ac70aec0a140b2d0bcc0b690c710c8d0ca90cec0cf40c150d680d6d0d860d970d9f0dbe0dda0d160e1e0e350e820eb60e580f6c0f860fb50fc80fd10f7f10a1107c11961169129212a712db1229135e136713fc1302141c142f14381455147214bf14c814e0145c1569157e15ad15c015c91526168516ab168117e8172d189918c319081a4b1a981ab61a2e1b3a1b9f1bb11be11bff1b411c4a1c6c1c991c7a1d931db71deb1d911ed51e131f881fa11fc51fff1f08202a205c2174219621d72117222f224b229322e524ee240a2528259925a325e125e725ba26cf26222735273e279827fb271e2864288228c428cd28eb282829412993299c29d229992bb22bd62b262c442c872c902caa2cf72c142d2e2d3e2d472d612daa2dc82de22df22dfb2d192e8d2ed42ef12e242f2e2f4c2f722fc82f16301c31333154319331dc31f2310c324f3204340d349511e87b10107b15087b163306600002390560000251051c3307900003837783680a070139076000022003600002ac57108210108215088216951118320000390860000251084506330790000383770a0f2838069511f07b10087b15648964753308206497501002b0037c78017c797c7a027c7b03978808d4980897aa1097bb18d4ba0ad4a8087c79057c7a047c7b067c7c07979908d4a90997bb1097cc18d4cb0bd4b909979920d489027c79097c7a087c7b0a7c7c0b979908d4a90997bb1097cc18d4cb0bd4b9097c7a0d7c7b0c7c7c0e7c780f97aa08d4ba0a97cc10978818d4c808d4a808978820d498037c78117c7a107c7b127c7c13978808d4a80897bb1097cc18d4cb0bd4b8087c7a157c7b147c7c167c791797aa08d4ba0a97cc10979918d4c909d4a909979920d4890a7c78197c79187c7b1a7c7c1b978808d4980897bb1097cc18d4cb0bd4b8087c791d7c7b1c7c7c1e7c771f979908d4b90997cc10977718d4c707d49707977720d487076f776fa86f396f2a7b5a187b59107b58087b57821008821595111032009511d87b10207b15187b161082897b19088289087b1982851082861833082050100468026f686f59821a6faa821b086fbb787b18787a10787908787898bc38787c1f98bc30787c1e98bc28787c1d98bc20787c1c98bc18787c1b98bc10787c1a98bb08787b1998ab38787b1798ab30787b1698ab28787b1598ab20787b1498ab18787b1398ab10787b1298aa08787a11989a38787a0f989a30787a0e989a28787a0d989a20787a0c989a18787a0b989a10787a0a98990878790998893878790798893078790698892878790598892078790498891878790398891078790298880878780182102082151882161095112832009511a07b10587b15507b16489515608411e06476828718828910828a0882886f776f996faa6f887b18187b1a107b19087b17491138491130491128491120481140208318831a20831b403309ff33070a08821738821830821928821a206f776f886f996faa7b6a187b69107b68087b679551a082105882155082164895116032009511a07b10587b15509515608411e08272827a08827b108277188283828908828c108288186f746fbb6faa6f276f826fcc6f996f387b17187b1a107b1b087b147b18387b19307b1c287b12208318831a203309ff330b2033070a109551a08210588215509511603200951160ff7b1098007b1590007b1688009515a0008411e082ab7b1b3882ab087b1b3082ab107b1b2882aa187b1a20829a7b1a18829a087b1a10829a107b1a088299187b1964865010066582186f888219086f99821a106faa821b186fbb7b1b587b1a507b19487b18408218206f888219286f99821a306faa821b386fbb7b1b787b1a707b19687b18608379836a8317403308020a06955160ff8210980082159000821688009511a00032008b7910520931c8780883881f8488e05638000001253309680002390a680002ae8a093d086800020133087000028377c887073200009511f07b10087b158475010a04013d076400025105075010080950100a4302951180fe7b1078017b1570017b166801951580018411e049215801492150014921480149214001831740010a1101821750018218580182194801821a4001d49808d4a707d4870752074301390664000297672098772095771f8477e09578c000d87807492138017b1820017b17280194777b1730013307409518200150100ca9fc3307c000646850100e25ff8377646833090a02015316400201951700013308c00050101049fb821718017b1738821710017b1730821708017b1720821700017b17189517e0003308e00050101220fb8218f0008216f80014070000000001000000d38707d467077b1828988820888801946893785108af008217e8007b17088217e0007b17108217187b17c0008217207b17c8008217307b17d000330780009518c0008219387b19d800501014fafb7b16b8008217287b17b0008217087b17a8003307a000c871088219107b19a000501016d5fb951780003308405010188ffa82179800821890008219880082168000d49707d48609d47909989920d48707977720d4970751072b003308700002838833070128a20033087000028388330701289500330870000283883307012888006467330850101af7fd8377330833090a029517603308800050101c22fa821778330b9000037b1b38821870821968821a603e07a800033e08a000033e099800033e0a9000039517403308a00050101eeef9821758821850821948821a40821b387bb7387bb8307bb9287bba2028b9f96467330850102088fd8378330733093300220a0e280a33093300220a0e01951108f8951700077b70f0007b75e8007b76e0009515f807951178fc8411e064169569f00749192849192049191080003307409568ff07958801491918501024aafa33076400027b677839076400025517040728571495670010837720f833083300260a03019569f00781974c5247c0e16e830a28170f5147981aff8e0c0951473afc94a6c20b51471720edf6930a51476d287efc9a01514778de172e16045147ab002537f802524756a5a64daa094929c8014929c0014929b8014929b001956700108377a0f90a1101956af00795ab000182b7c00082b8c80082b9b80082bab000d49808d4a707d48707510706283e0f82677881775617230728430f956700108377c0f93308043300280a0301956bf00782b8e00182b7e80150122acf2c520a06282c0f82b9d80182bad001956b00047bba607bb9687bb870956860047bb778330750102ca4f9492658044926500449264804330720956840044926400450102e88f9390868000256183f0b200368000240019517e08479e07b697864913307700002837783993308403300300a09826a7833023228f52b826a78501232ef2b7bba08027bb900027bb8f8017bb7f001956720049568ff079588e1015010341cfa826738047b6778826730047b6770826728047b6768826720047b676095670004330840501036c8f7956b000482b71882b81082b90882ba501238c02b52072d0e826760956900037b97e0008267687b97e8008267707b97f0009568e0038267787b97f80028030a4929280349292003492918034929100395670010837700fb0a1101956af00795ab000382b72082b82882b91882ba10d49808d4a707d487075207fe0d8267788177541723060e95670010837720fb33080433003a0a0301956bf00782b8400382b7480350123c5d2b510af00d82b9380382ba30037b6ae0077b69e8077bb89568e0077bb708330750103e37f84926d8074926d0074926c8073307209568c0074926c0075010401bf8390868000256183f0b200368000240019517e08479e07b697864913307700002837783993308403300420a09826a7833024428882a826a78501244822a95bc00037bca687bc9607bc8587bc7509567a0079568ff0795884103501046aff88267b8077b67788267b0077b67708267a8077b67688267a0077b6760956780073308405010485bf6956b000782b7980082b8900082b9880082ba800050124a4e2a5207bb0c826760956900077b97608267687b97688267707b9770956860078267787b97782895084929a8014929a001492998014929900195670010837780f90a1101956af00795ab000182b7a00082b8a80082b9980082ba9000d49808d4a707d487075207bf0c8267788177330803ae78c40c50104c76f53a08b800037b68783a08b000037b68703807c000037b676833077000037b6760837733004e0a0582696033025028182a826960501250122a826968d39808826970d39707d48707826878d3a808d4870752077c0c9567a003501052de148267b8037b67788267b0037b67708267a8037b67688267a0037b67609567800333084050105445f5956b000382b7980082b8900082b9880082ba800050125638295207a50b826760956900037b97608267687b97688267707b9770956860038267787b9778287f074929c8004929c0004929b8004929b000956700108377a0f80a1101956af00782a7c00082a8c80082a9b80082aab000d49808d4a707d487075207140c82677881775417231c0c956700108377c0f83308040a039567f0078278e8007b68708278e0007b68688278d8007b68608277d0007b675850105839f43a08b800037b68483a08b000037b68403807c000037b673833077000037b677883777b67500a0501826778827208827b807c106f279878206fb9979a20d4a8089777206fca98aa20d4a707989920826a38d3a909826a40d3a707d49707826948d39808d487075207900b7b6c207b62287b6b30826768826858d48707826870826960d49808d487075107b30b82675033005a0a0582697833025c28a72782697850125ca12749263803956900037b98307b9728956820037b9a20330750105e06f54926180349261003492608033307209568000349260003501060eaf433076800027b6748390768000256173f0b826848480840019517e08479e07b6940649133077000027b6718837783993308407b67383300620a09826a40330264284927826a4050126443277bba08017bb900017bb8f8007bb7f0009567e0029568ff079588e10050106670f5956800028287f8008262e0028289f000828ae800826c70d3c70bd8c708826768d8790cdbb80c826860d38a03d88a0a826858d88208db3a08d39707d4b707db7c085208f60a8267503300680a0533026a28472750126a44274926d8027b69d0027b67c8029567c0027b68c00250106c9d1a82675033006e0a0582697833027028792682697850127073264926b802956900027b98b0007b97a8009568a0027b9aa0003307501072d5f34926980249269002492688023307209568800249268002501074b9f39517e08477e07b67406471826748817756173f0b826848480840019517e08477e07b6710647183793308408267383300760a09826a1033027828fa26826a10501278f4268268407b8a187b89107b8b087b879567600250107a50f4826a6002826768028268700282697802826b707b6b1802826b687b6b1002826b607b6b0802826b587b6b00027b6938027b6830027b6728029567400295682002956900027b6a200250107c410e956b000282b75882b85082b94882ba40956bf00795bc00017bc7287bc8207bc9187bca109568ff079588010182674050107e50f40a0b8269788268287b98088268307b988268207a9810826870956af00795ab00017bb8488268687bb8408268607bb8388268587bb830482a50018e77fc089a787bb888007bb880007bb8787bb870979820988820977723d487079568ff07958821019788209888209569ff0795996101979920d4890a826b1897bb2098bb209568ff0795884101978820d4b80c3308ff3309ff0a017b67409567e00150208000650e826740520718099567a00133084050208200eef0956b000182b7b80082b8b00082b9a80082baa00050228400e02452074c078267587b6780018267607b6788018267687b679001956880018267707b67980164a77b6a7050208600dff1826750330088000a0582697833028a0028342582697850228a002e25d4780298aa206f99979820d4a808989920492658013a0a2000023a0b2800023a0c3000023a073800027b6a7801956a00017bab707bac687ba7607ba9507ba84833082095696001956a40017b6240018267703300c2002843f34929880249298002492978024929700295670010837760fa0a1101956af00795ab000282b7800082b8880082b97882ba70d49808d4a707d4870752076008826778817754170368089567200533084050208c00dbef956800058287387b67788287307b67708287287b67608287207b676850208e0065ef826778826860d48707826868648b826970d49808d47808988820d49707977720d4870752070e063a099000033a089800033a0aa000033a07a80003956c00057bc7187bca107bc808956800057bc964b73300da002899f052478ab99f6fee074929280249292002492918024929100295670010837700fa0a1101956af00795ab000282b72082b82882b91882ba10d49808d4a707d487075207ff078267788177541703070895670010837720fa0a9567f007957900028298487b68788298407b68708298387b68688297307b67609567a00433084050209000deee956b000482b7b80082b8b00082b9a80082baa00050229200d02252073c05826760956900047b9780008267687b9788008267707b979000956880048267787b9798002812014929e8024929e0024929d8024929d002956700108377c0fa0a1101956af00795ab000282b7e00082b8e80082b9d80082bad000d49808d4a707d4870752075c0782677881775417236407956700108377e0fa3308040a0301956bf00782b7000382b9080314080000000001000000d37808d49808987a2088aa01949a938a510a3c0782b8f80282baf0027b6a20077b6828077b67300795674007956820077b693807502094007319826758077b6778826750077b6770826748077b6768826740077b67609567000733084050209600c8ed956b000782b71882b81082b90882ba50229800bf2152072b04826760956900067b97e0008267687b97e8008267707b97f0009568e0068267787b97f8000164a77b6a7850209a00b9ee3308208267783300dc002830f182677881775417239f0695670010837780fa3308040a039568f007958900028297a8007b67708297a0007b6768829798007b6760829790007b675850209c00ddec3a08b800037b68483a08b000037b68403807c000037b673833077000037b677883777b675033009e000a058269783302a0002879218269785022a0007321826938d39808826940d39707d48707826848d3a808d4870752071e069567f0074927c8024927c0024927b8024927b002956700108377a0fa0a11019569f007959a000282a7c80082a8b8008292b00282a9c000826370d33707826a60d3a808d48707826c68d3c908826b58d3b209d49808d4870752070706d4cb07d43a08d4870751073d068267503300a2000a053302a40028b3205022a400b020492698067b6990067b678806956780067b6880065020a60008148267503300a8000a058269783302aa0028e11f8269785022aa00db1f49267806956900067b98707b9768956860067b9a6033075020ac003fed49265806492650064926480633072095684006492640065020ae0022ed9517e08477e07b674864713309680002390768000256173f0b200368000240017b69309517e08479e07b694064913307700002837783993308407b67383300b0000a09826a403302b200285120826a405022b2004b208268487b8a187b89107b8b087b87956720065020b400a6ed8264380695680006828730828b20828c289518e08488e06481826a60c8ca0a826258c8b202d8b20bc8ba0ad3ca03d8ca09da3b09826b68c87b0bc89b0cd8bc03826070c84000d87b0bc80b0bc83b00d87c03d3040bd84004dab304d3c707d4b707da79047b8c107b8a087b827b8018520423058267485020b600abed956700063308405020b800f1ea956b000682b71882b81082b90882ba5022ba00e81e520754018267587b67e0058267607b67e8058267687b67f0059568e0058267707b67f80564a77b6a705020bc00e7eb8267503300be000a058269783302c000283c1f8269785022c000361fd4780298aa206f99979820d4a8089899204926b8053a0a0000023a0b0800023a0c1000023a071800027b6ad805956a00057babd0007bacc8007ba7c0007ba9b0007ba8a8003308209569c005956aa0057b62a0058267705020c2004aed330782683833090a0e283f054929680249296002492958024929500295670010837740fa0a1101956af00795ab000282b76082b86882b95882ba50d49808d4a707d487075207740482677881775417037c049567e0043308405020c400d5e9956800048287f8007b67788287f0007b67708287e8007b67608287e0007b67685020c6005be9826778826860d48707826868648a826970d49808d47808988820d49707977720d4870751073104003308700002838833070133090a0e288d043308700002838833070133090a0e287c043308700002838833070133090a0e286b043308700002838833070133090a0e285a043308700002838833070133090a0e2849043308700002838833070133090a0e2838043308700002838833070133090a0e2827043308700002838833070133090a0e2816044926d0034926c8034926c00314070000000004a09fc39568c0037b67d80333075020c80013ea390868000256181f12200368000220330870000228d202330870000228ca023308700002838833070133090a0e28c0033308700002838833070133090a0e28af0349265003492648034926400314070000000004a09fc3956840037b67580333075020ca00ace9390868000256181f122003680002203308700002286b023308700002286302492610014926080149260001140700000000c611522c956800017b67180133075020cc0067e9390868000256181f1220036800022033087000022826023308700002281e02492630014926280149262001140700000000b878d6f4956820017b67380133073300ce00281ee94926d0014926c8014926c00114070000000018ecb8909568c0017b67d80133075020ce00fbe8826748817756171f188268484808203307013309048268380a0e282b023307013309048268380a0e281d023308700002838833070133090a0e289c023308700002838833070133090a0e288b025247adaee92c65029567f00749176849176049175849175095670010837740f80a1101956af00782a76082a86882a95882aa50d49808d4a707d4870751075b023308700002838833070133090a0e283a023308700002838833070133090a0e2829023308700002838833070133090a0e2818023308700002838833070133090a0e2807023308700002838833070133090a0e28f6013308700002838833070133090a0e28e5013308700002838833070133090a0e28d4014926d0064926c8064926c00614070000000004a09fc39568c0067b67d80633075020d000d1e7390868000256181f12200368000220330870000228900033087000022888004926b0064926a8064926a006140700000000c611522c9568a0067b67b80633075020d2008ce7390868000256181f112003680002203308700002284b33087000022844492650054926480549264005140700000000c611522c956840057b67580533075020d40049e7390868000256181f112003680002203308700002280833087000020183883307013309040a0e01492690054926880549268005140700000000717b484e956880057b67980533075020d600fce64926780549267005492660051133070495686005492668055020d800dee6826730817756173f178268304808403307013309248268380a0e280e3307013309248268380a0e013308700002838833070133090a0e2882003308700002838833070133090a0e28713a09b000033a08b800033807c000034926d804956b00047bb7d0007bb8c8009568c0047bb9c00064a75020da0066e63308208267685020dc00e1e883780133092033070a0e8267788177280882677881770151071d3308700002838833070133090a0e280c838833070133090a0e0133087000028388330733090a0e28f382677881775617230b330870000228d995670010837760f83308043300de000a03019567f00782788000827788005022e000e518520a0a330870000228ab956af00782a97882aa707b6ae0007b69e8007b68f0009568e0007b67f80033075020e200b3e54926d8004926d0004926c000013307209568c0004926c8005020e40095e533076800027b6778390768000256173f0b826878480840019517e08479e07b6968649133077000027b6770837783993308403300e6000a09826a683302e80028f417826a685022e800ee177bbaa8007bb9a0007bb898007bb790009567a0009568ff07958881005020ea001ae68269a0008267a8008268b000826ab8007b6a98007b6890007b67880033078000c876087b6980005020ec00fbe4826778817756279f00168268784808a00082677083788000288cfe826770837880002882fe9511807b10787b15707b1668951580008411f0829b828a829608828308829410828c10829918828818d363027b1608d863067b1b187b1a10d8ba0a7b1ada2a06d3980ad89800d84c02daa200d34c0bd4ba0adaa600520046c94c0ac99808c92808d86a09c99808c96a0a821908c99309821bc9b909821b18821c10c9bc0b7b7b7b79087b7a107b7818955180821078821570821668951180003200491150491148491140140700000000717b484e9518407b175833075020ee001ae4491138491130491120113307049518204911285020f00001e4390868000256183f0b20036800024001330870000283883307013309243300f2000a0e01951100ff7b10f8007b15f0007b16e800951500018411e064760a0d01510769017b16100a0d64769517c0003308405020f4006fe28213d8008214d0008210c8008212c00095671f7b1618d867088477e095793fd87907c8780a8499e0c80a087b1238c89202d89209c89808d3a80bd8a80adab90ac84a0ad84a0bc8b3098eac8e96da9c06d49a0c8e87dbc60752072401821738d87207d3080cd80806dac706d33907d8390cdb7c0bd34a0cd4c707da760b520bff007b12a0007b18a8007b1ab0003307409518a0007b19b8007b133064467b10285020f60003e3821938d46907821830821a28d4a808d487079877207b1620d46808978820d47808520889006497492198004921900049218800951880008219187b1980005020f800bfe20a0d01821b38821820821930d498081409e0ffffff00000000d89b09821a2894a99489510943647698772052073b83b72083687b181864685020fa0008e57a16e00083778318e00033090a0c01821b388117e000821610821830821920821a28821c18aec70e00330a33093308330b60017b6b7b6a087b69107b6818955100ff8210f8008215f0008216e800951100013200491170491168491160140700000000717b484e9518607b177833075020fc000ce2491158491150491140413307049518404911485020fe00f3e1390868000256183f0b2003680002400133087000028388330701330924330000010a0e019511e0fc951800037b80187b85107b8608951520038411e064167b671833077000037b673883777b6710330002010a0582693833020401281114826938502204010b144926f801956900017b98f0007b97e800956700029568e0017b9ae00050200601b20b826718027b6740826710027b6748826708027b6750826700027b6758836720020a01826c3802826330028262280282602002d4c207d43008d48707510741078877017b67d800683895894068c8dac9086809959940682ada290a95a98000d4c30bdab9087b62307b6c60d8a90c94bc8eca8889fd00859b01dacb0a88a9019599ff9aa49accc9bc029a87fc007b64c0008e488e9b7b69c800da980b8e287b67d00088770001857701db2807dbab078269d800d47909826b60949b7b632064389498826a30949a640c949c7b6028520924038267d0008579ff008263c000d439078264c800d44209d47909510907038269d0009598017b68d800888701c827077b67b800d48707887701c837077b67a800d83707c847077b67b0009a98ff007b68c0009a89800082672882683050200801e1137b67c8007b6898008267208268608269c00050200a01ef137b67a00082679800d487077b6798008268d0009a897f82672882683050200c01cd138269c000889a80007b6ad000826b9800dbab08826b60da9b087b6890008268c800826ba000d4b808daa708826720da97087b68c80082672882683050200e018c13826ba800826cb0008269b800d49c0c826ad800d4ba0ad4ca0a8269d00093987b68c00093977b67d000510ad7018267d8009579808267208268605020100126137b6798007b68a0008267288268308269d800502012010e137b6780007b6888008268d8009a89800082672082686050201401181382698800d498088269d800889a80007b6a8800826ba000daab08826b30da9b087b68a00082688000d4870782689800daa807826828da98077b67980082672082686050201601aa12330c82698800939893974916700949166882609000017b6880007b6c88004916788268980098893f826ca00097ca01d49a03978901980b3fd49b0b7b6b9000826a68d33a087b689800d83a08826970d8b90282699800db980282688000978801987b3fd4b8087b68800098cb3f977701d47b0b9707018268c800988c3fd4c7077b67a000978c018267c00098783fd4c808977c018267d00098703fd40c0c97770182698800d497077b67d00086c77b67c00086877b67c8008267a0008670c9ba07d82707d8ba0882648000c94a0cc98c0cc97c0c99c23f84270a82699000c979087b689800d87908c983077b67a0009438c98b07d88b08c98408826ad800826cb800d4ca09889901826ba800d89b03c99b0b88a901c99c0c8269b000c9390995aaff7b6cb8007b69b000d4c9097b6ad800d4ba0ad4a909842c017b6ba8005209d8fe280c330c49167882609000018269c80098973f970801d48707826ac00098a83f979901d49808826bd00098b93f97aa0197bb01d4bc0c826b78d4b909d49a0ad4b808d47b0b017b68c8008264587b6cd800d8c402826750d3a70cd8a703dac203826c48d88c00826940d3b9027b6bd000d8b90bda200b647064a8826ac800d3ac07d42707da730b8267d800dab704dab800daba0c8267d000dab709d49007d4c408d4870751072d03826860d389077b67d8006487826330d33002d8300b826828d8840adb2b0ad87908826220d82c0b8267d800db780bd32c08d48707db7b0a826760daa7097b6940daa20c7b6c48daa3007b6050826728daa7047b6458826710330018010a0582693833021a01282b0f82693850221a01250f4926d8017b68d0017b67c8019568c0017b6ac001330750201c018adc4926b8014926b0014926a001013307209568a0014926a80150201e016cdc836740020a0a013309680002956a000282a7587b67c00082a7507b67c80082a7487b67d000390768000282a8407b68b80056173f0b200368000240017b69a8009517e08479e07b69b000649133077000027b67d800837783993308407b67a000330020010a09826ab0003302220128b50e826ab00050222201ae0e7b6a78027b6970027b6868027b6760028267c0007b6798028267c8007b6790028267d0007b6788028267b8007b67800295676002956880025020240126dd502026011fda3a08b000037b68d0003a08c000037b68c8003a07b800037b67c0000a0b8268c0006f88978920826ac8006faa98aa20d4a909988820826ad0006faa97ab20d4b80898aa20826b387aba107bb8087bb9826840956900027b98b8008268487b98b0008268507b98a8008268587b98a0004826c0028e77fc089a787b98f8007b98f0007b98e8007b98e00097b820988820977723d487079568a0029788209888209569e002979920d4890a826bd80097bb2098bb209568c002978820d4b80c3308ff3309ff0a017b67d800956780015020280103f78267d800520717019567400133084050202a018bd9956b000182ba5882b85082b94882b740d49a0ad48709d4a909989920d4a808978820d498085208e0008268587b6820018268507b6828018268487b683001956820018269407b6938017b67d80050202c0172da82671033002e010a058269383302300128c70d82693850223001c10dd4780298aa206f99979820d4a8089899204926f8003a0a4000023a0b4800023a0c5000023a075800027b6a1801956a00017bab107bac087ba77b69f0007b68e80033082095690001956ae0007b62e0008267d80050203201d8db826b40826a48826950826858280b33083309330a330b018267187b787b79087b7a107b7b189551e0fc951700038270188275108276089511200332000049267001492668014926600114070000000018ecb890956860017b67780133075020340199d98267a800817756171f0c8268a800480820013307013309048268a000330036010a0e01951180fe7b1078017b1570017b166801951580018411e0641682798278088077104926d8007b67287b67d0007b68107b68c8009568c0007b69187b69c00033075020380130d94926b8004926b0004926a000013307209568a0004926a80050203a0112d93309680002390768000256173f0b200368000240017b69309517e08479e07b693864913307700002837783993308407b672033003c010a09826a3833023e01288a0b826a3850223e01840b7b6af8007b69f0007b68e8007b67e000956780009568e000502040019bd9826790008268980082698800826a8000d49808d4a707d487075207ce004916788267187b67608267107b67689568608267287b67703307502042016cd8491658491650491640013307209568404916485020440153d8836700010a0a01956a000182a7187b671882a7107b672882a7087b6738826930819782a87b681056173f08480940019517e08477e07b673064718379330840826720330046010a09826a303302480128bb0a826a3050224801b50a956b00017bba387bb9307bb8287bb7208267187bb7588267287bb7508267387bb7488267107bb740956720019568400150204a0135d9955180fe821078018215700182166801951180013200951140ff7b10b8007b15b0007b16a8009515c0008411f082908282828a087b1758829b08d60207ca0a06c86707d86706d60a0cc86c0ccab206c867077b1750d86707d6b206c86707c8c707d8c70cd6ba06c86c0ccaba06c867077b1748d86706c86c0c7b1c40829310829918828418828710ca3a0c7b1920ca2906c8c6087b1b28ca7b06ca0409c86909ca2306ca070cc8c6067b1330d6230b7b1b10c88b0bd60703c89308d8c6097b18187b1b08c8b80cc8c9097b1438d44a0cd47208d4c808821b40821c48c8c606d8c604c8b909c8490951088f00d3b9087b1948821948d8b909db89047b1640821810821908d889068ea98218208e8cd2c909d6280c8eccd4c909643b821330d63a0a8eaad4a909d469097b1910821918d8b909821b288eba8216388e6cd2ca0ad6060c8eccd4ca0ad67b0c8eccd4ca0ad4a909d4830ad4670c8216408eaa8eccd2ca0ad4a909821810d49808821948d4480784770152072dca02078218587b878217507b87087b86107b8918955140ff8210b8008215b0008216a8009511c0003200492190004921880049218000140700000000717b484e951880007b179800330750204c01fbd54911784911704911601133070495186049116850204e01e2d5390868000256183f0b2003680002400133087000028388330701330924330050010a0e01951100fc951900037b90f8007b95f0007b96e800951500048411e064168289828a088088107b6718492638037b6888007b6830037b6a90007b6a2803956820037b6998007b6920033307502052016ed54926180349261003492600030133072095680003492608035020540150d53309680002390768000256173f0b200368000240017b6980009517e08479e07b697064913307700002837783993308407b6778330056010a09826a703302580128f307826a7050225801ed077bba587bb9507bb8487bb7409567e0029568400350205a01dcd5956b000282b7f00082b8f80082b9e80082bae000d49808d4a707d487075107c0064926d80282679800956900027b97c000826790007b97c8009568c002826788007b97d000330750205c019dd44926b8024926b0024926a8023307209568a0024926a00250205e0180d482698000819756173f0e4809403302600128fd0750226001fa07330062010a09826a7033026401283c07826a705022640136077bba787bb9707bb8687bb76095678002956860035020660125d5956b000282b7900082b8980082b9880082ba8000d49808d4a707d487075107090649267802826798007b676002826790007b67680295686002826788007b677002330750206801ead349265802492650024926400201330720956840024926480250206a01ccd382688000818756173f0e48084033026c0128490750226c01460733006e010a09826a7033027001285c06826a705022700156067b6a98037b6990037b6888037b6780039567200295688003502072016dd4826720027b6770826728027b6768826730027b6760826738027b67588367a0030a0a956b000382baa00082b7a80082b8b00082b9b800826b587b6bd801826b607b6bd001826b687b6bc801826b707b6bc0017b69f8017b68f0017b67e801956700029568e0019569c0017b6ae0015020740137ee956800028287187b67588287107b67608287087b676882877b67704926b80182678800956900017b97b000826790007b97a8009568a001826798007b97a000330750207601c0d2492698014926900149268801330720956880014926800150207801a3d282688000818756173f08480840019517e08477e07b6798006471837933084082677833007a010a09826a980033027c01285605826a980050227c014f057bbad8007bb9d0007bb8c8007bb7c000956760019568c00350207e013ad3826760017b679800826768017b679000826770017b678800826778017b6780005020800194d03a089000033a099800033a0aa000033a07a800037b6718017b6a10017b6908017b680001826780007b673801826788007b673001826790007b672801956740019568200195690001826a98007b6a20015020820126fa956b000182ba4082b74882b85082b958826b587b6bb800826b607b6bb000826b687b6ba800826b707b6ba0007b69d8007b68d0007b67c8009567e0009568c0009569a0007b6ac00050208401d8f98262f8008264f0008263e8008268e0007b685868276849959c40db270c68376889959940db370995978000d4240adaa70cd8970994a98e9a88c7c500857b01da9b0a88a7019577ff9aa09a99c9b9089ac9c4007b6088008e0c8e7b7b678000da7c0b7b699000889700018577018e8cdb8c07dbab07d4230a826058d4400bd4ba0a88aa01d4a7077b625064299479644c947c643b947b64029472520724036440826790008577ff00826a8800d4a704826a8000d4a807d4740751070503826b900095b9017b699800889701c887077b6770d4970788770182698800c897077b6760d89707c8a7077b67689ab8ff007b68789a89800082675864387b63487b60405020860121047b6788007b6880008267408268508269785020880130047b673882678000d487077b678000826890009a897f82675882684850208a010f04826978889a80007b6a9000826b8000dbab08826b50da9b087b68800082688800826b38d4b808daa708826740da97087b68880082675882684850208c01d003826a60826b68826970d4b909826c9800d4ac0cd4c909826a900093a87b687893a77b6790005109d9011407000064a7b3b6e00d7b67308267980095798082674082685050208e0161037b67387b682082675882684882699800502090014b037b67107b6828826898009a898000826740826850502092015703826928d49808826a980088ab80007b6b28826920dab908826948dba8097b6948826810d48707826838dab807826858dba70864a97b685882674082685050209401ee02330c82692893989397826b3095b9ff7b69288eb99599ff7b6920826448826258017b68487b6c5049163898293f974a01d49a0a97290182608000980b3fd49b0b7b6b58826920d3a9087b6840d8a908826c28d8bc02826b40dbb802826848978801987b3fd4b8087b6848984b3f977701d47b0b97070182688800988c3fd4c7077b678000978c0182677898783fd48c04977c018267900098703fd40c0c977701826850d487077b67900086c77b677886477b6788008267800086777b678000c9b907d82707d8b908826348c9390cc98c0cc97c0c99c03f826730d27007826858c97802d87808c98a0494a8c98b07d88b08c98308826a9800826c70d4ca09889901826b60d89b03c99b0b88a901c99c0c826968c9390995aaff7b6c707b6968d4c9097b6a9800d4ba0ad4a909840c017b6b605209effe28123302330b330c33092845330c491638018269880098973f82688000978801d47803826b7898b83f979901d49808826a900098a93f97bb0197aa01d4ac02826738d47909d49b0bd4870cd43709018268187b827b8b087b8c107b8918955100fc951700038270f8008275f0008276e8009511000432003307502096014cd03307015020980143d082970881981082996f77977a206f88988820d48a0a9877206f98978920d49707988820320282a71882a81082a90882aa6f776f886f996faa956bf007320282a71882a81082a90882aa6f776f886f996faa3202d49707d48a09d47909989920d48707977720d49707320282a71882a81082a90882aa6f776f886f996faa956b0003320214090000000001000000d38909d47909988a2088aa01947a939a320282697882970881981082996f77977a206f88988820d4a8089877206f99979a20d4a707989920320282970882988199106f77987a206f88978b20d4ba0a9777206f99989920d49707988820320282970881981082996f7a97a7206f88988820320282a71882a81082a90882aa6f776f8b6f996faa32029517e08477e07b6770647183793308408267783202849a40520a195109148d9a40cfa80ad09808d09707d4a707320032009597c0d0780733083200849a40520a195109148d9a40d0a70acf9707cf9808d4a808320032009598c0cf870833073200490a21a11a4292d210a1925429a42449922449922449922449922449922449922449922449922449922449922449aa9294529294942454a5242549922449922449922449922449922449922449922449499294a4aa24254994a492a42a494992922425294955559292a42495244544444a92242549525129a5244929a524a9a488882849128490309426a521112222221111d18888241192241211452244a16a8808914824121122024892544422894422221122918824422444442449920c25a1249454a84a84842409218444489224492a54a9d28888884891844412424224a2341248404040404040404444442322229224291291342242121149228588484408114c52a8a4240911111111229148241222492112914844221111118d489224914244d28808111151a4101189082182490a95942421922422422412894442444484482449224944444423222292444a84909090905292842449928810894422911011112112499248121111d1888848122944a48844229110121212529a94529292244992449224491249491222924821221211424224931452494a921011111121222292244992244924252122224252928488888842442422242945324925294942921421222291482422222222449244244944424952928824491251449224114944922422494a04894810111141241289489420512209929244082144244912118944444434222249122944824892240992a424491221841049a222011111118d4892249142c488244992481011114124229188442222221a1111912452884823228024a98888888808229148241244928248442211892548222944a48848241209424242424a94488224499288888888464444244992248924912812444444902891041149a420221211242984082649a1922891044952041149929224499224499224499294481009224941241289489420512209929244082144444444222241a944444434224992440a91202291482448929224490ca5124a25944a2895502aa15442a98452898800220a42042121a15442a9444400110521829090880820a2204410121211014414898800220a5224494a92124a25944a40244944234992442895502aa15442a9845209a5124a25220288280811848444440011052182502822028828081184c2924644001105112111418a24492569289550aa1042444444411234954a134a556aa82a452822d18808128a2422220a224222829010c9248554a2441244444444101111119108524824924892442a499224494a92244992244949529224899204901424912408110c25d18888488d54248888489224499224495249892449922411118948099224499244111189a04912405229492988a22692245965492222a22401240549240942044349342249a4849428910411111111442291481c11912412a5941249928a24a94454a4882491944a95888844129148224924111149109144109188244144449288489248828848245114114982882482888824884444248948248924282a1223128924492491241249224922894492481289a28892449224124994242289248924229124a212234924892449928c4492244922a948124922492289922449124992244992244a244144441444844404d1108944222422184914a21251442288888888888888088210214214254a122549522212894444111149124924914492141144448248922449128944221211244a2441529208218488a4884444044952d594242249342202882888223289684444a49248242251101112118410c1242954122592202222228888481249922405492409a29124492a91492a891249104992244912114444441111914a92244992244992244992244992244992244992244992449224494a492929499252525292a492244992922422228a8800220a92481284088692684444442a4944444444414448441042042349a19228910449121144444492888888888882884844104522419448822489082222224944444444144484440451241244892488888808229148248a88884422918888888820922429111111115110118908a2c8242a89221241444444101111111184104244444444444444049124894422111111114144442aa9249254244925a2221129499224555551442492884492249224914849109124482422499088481291248924489248a2141140224990241124114990442449922449498252494a9249922492244992244992249248924492244a11459224499224258924499224492249a2aaca482449124992249992444444549020a994a42425a92a4a52554992a424554501244995a452929294524a5292924a29495525a9a42449924a2a4992a4920200"},"methodIdentifiers":{"claimRewards()":"372500ab","deposits(address)":"fc7e286d","getContractBalance()":"6f9fb98a","getPendingRewards(address)":"f6ed2017","getStakedAmount(address)":"4da6a556","habitTracker()":"836ee1c0","lastUpdateTime(address)":"2ce9aead","ratePerSecond()":"8eff1a98","stake(uint256)":"a694fc3a","unstake(uint256)":"2e17de78"}},"hash":"02461eed42b3df9f0c47522ece3ee98433e9f704ee13dbe4f695ecd3f70098c7","factoryDependencies":{}}}}