{"contracts/HabitTracker.sol":{"HabitTracker":{"abi":[{"inputs":[{"internalType":"address","name":"_treasury","type":"address"}],"stateMutability":"nonpayable","type":"constructor"},{"inputs":[],"name":"AlreadyCheckedIn","type":"error"},{"inputs":[],"name":"AlreadySettled","type":"error"},{"inputs":[],"name":"CannotSettleCurrentDay","type":"error"},{"inputs":[],"name":"DayNotFunded","type":"error"},{"inputs":[],"name":"HabitAlreadyArchived","type":"error"},{"inputs":[],"name":"HabitNotFound","type":"error"},{"inputs":[],"name":"HabitTextTooLong","type":"error"},{"inputs":[],"name":"InsufficientBalance","type":"error"},{"inputs":[],"name":"InvalidAmount","type":"error"},{"inputs":[],"name":"InvalidBatchSize","type":"error"},{"inputs":[],"name":"InvalidEpoch","type":"error"},{"inputs":[],"name":"InvalidTreasury","type":"error"},{"inputs":[],"name":"NotHabitOwner","type":"error"},{"inputs":[],"name":"TransferFailed","type":"error"},{"anonymous":false,"inputs":[{"indexed":true,"internalType":"address","name":"user","type":"address"},{"indexed":true,"internalType":"uint32","name":"habitId","type":"uint32"},{"indexed":true,"internalType":"uint64","name":"epoch","type":"uint64"}],"name":"CheckedIn","type":"event"},{"anonymous":false,"inputs":[{"indexed":true,"internalType":"address","name":"user","type":"address"},{"indexed":false,"internalType":"uint256","name":"amount","type":"uint256"}],"name":"Claimed","type":"event"},{"anonymous":false,"inputs":[{"indexed":true,"internalType":"address","name":"user","type":"address"},{"indexed":true,"internalType":"uint64","name":"epoch","type":"uint64"},{"indexed":false,"internalType":"uint32","name":"fundedCount","type":"uint32"},{"indexed":false,"internalType":"uint32","name":"insufficientCount","type":"uint32"}],"name":"DayPrepared","type":"event"},{"anonymous":false,"inputs":[{"indexed":true,"internalType":"address","name":"user","type":"address"},{"indexed":false,"internalType":"uint256","name":"amount","type":"uint256"}],"name":"Deposited","type":"event"},{"anonymous":false,"inputs":[{"indexed":true,"internalType":"address","name":"user","type":"address"},{"indexed":true,"internalType":"uint32","name":"habitId","type":"uint32"}],"name":"HabitArchived","type":"event"},{"anonymous":false,"inputs":[{"indexed":true,"internalType":"address","name":"user","type":"address"},{"indexed":true,"internalType":"uint32","name":"habitId","type":"uint32"},{"indexed":false,"internalType":"bytes32","name":"text","type":"bytes32"}],"name":"HabitCreated","type":"event"},{"anonymous":false,"inputs":[{"indexed":true,"internalType":"address","name":"user","type":"address"},{"indexed":false,"internalType":"uint256","name":"amount","type":"uint256"}],"name":"RedepositedFromClaimable","type":"event"},{"anonymous":false,"inputs":[{"indexed":true,"internalType":"address","name":"user","type":"address"},{"indexed":true,"internalType":"uint32","name":"habitId","type":"uint32"},{"indexed":true,"internalType":"uint64","name":"epoch","type":"uint64"},{"indexed":false,"internalType":"uint256","name":"slashed","type":"uint256"}],"name":"SettledFail","type":"event"},{"anonymous":false,"inputs":[{"indexed":true,"internalType":"address","name":"user","type":"address"},{"indexed":true,"internalType":"uint32","name":"habitId","type":"uint32"},{"indexed":true,"internalType":"uint64","name":"epoch","type":"uint64"},{"indexed":false,"internalType":"uint256","name":"reward","type":"uint256"}],"name":"SettledSuccess","type":"event"},{"anonymous":false,"inputs":[{"indexed":true,"internalType":"address","name":"user","type":"address"},{"indexed":false,"internalType":"uint256","name":"amount","type":"uint256"}],"name":"Withdrawn","type":"event"},{"inputs":[],"name":"STAKE_PER_DAY","outputs":[{"internalType":"uint256","name":"","type":"uint256"}],"stateMutability":"view","type":"function"},{"inputs":[{"internalType":"uint32","name":"habitId","type":"uint32"}],"name":"archiveHabit","outputs":[],"stateMutability":"nonpayable","type":"function"},{"inputs":[{"internalType":"uint32","name":"habitId","type":"uint32"},{"internalType":"uint64","name":"epoch","type":"uint64"}],"name":"checkIn","outputs":[],"stateMutability":"nonpayable","type":"function"},{"inputs":[{"internalType":"uint256","name":"amount","type":"uint256"}],"name":"claim","outputs":[],"stateMutability":"nonpayable","type":"function"},{"inputs":[{"internalType":"bytes32","name":"text","type":"bytes32"}],"name":"createHabit","outputs":[{"internalType":"uint32","name":"","type":"uint32"}],"stateMutability":"nonpayable","type":"function"},{"inputs":[{"internalType":"address","name":"","type":"address"},{"internalType":"uint64","name":"","type":"uint64"},{"internalType":"uint32","name":"","type":"uint32"}],"name":"dailyStatuses","outputs":[{"internalType":"uint8","name":"flags","type":"uint8"}],"stateMutability":"view","type":"function"},{"inputs":[],"name":"deposit","outputs":[],"stateMutability":"payable","type":"function"},{"inputs":[],"name":"epochNow","outputs":[{"internalType":"uint64","name":"","type":"uint64"}],"stateMutability":"view","type":"function"},{"inputs":[{"internalType":"address","name":"user","type":"address"},{"internalType":"uint64","name":"startEpoch","type":"uint64"},{"internalType":"uint32","name":"maxSettlements","type":"uint32"}],"name":"forceSettleAllEpochs","outputs":[],"stateMutability":"nonpayable","type":"function"},{"inputs":[{"internalType":"address","name":"user","type":"address"},{"internalType":"uint64","name":"epoch","type":"uint64"},{"internalType":"uint32","name":"maxCount","type":"uint32"}],"name":"forceSettleDay","outputs":[],"stateMutability":"nonpayable","type":"function"},{"inputs":[{"internalType":"address","name":"","type":"address"},{"internalType":"uint32","name":"","type":"uint32"}],"name":"habits","outputs":[{"internalType":"uint32","name":"id","type":"uint32"},{"internalType":"address","name":"owner","type":"address"},{"internalType":"bytes32","name":"text","type":"bytes32"},{"internalType":"uint64","name":"createdAtEpoch","type":"uint64"},{"internalType":"bool","name":"archived","type":"bool"}],"stateMutability":"view","type":"function"},{"inputs":[{"internalType":"uint64","name":"epoch","type":"uint64"}],"name":"prepareDay","outputs":[],"stateMutability":"nonpayable","type":"function"},{"inputs":[{"internalType":"uint256","name":"amount","type":"uint256"}],"name":"redepositFromClaimable","outputs":[],"stateMutability":"nonpayable","type":"function"},{"inputs":[{"internalType":"address","name":"user","type":"address"},{"internalType":"uint64","name":"epoch","type":"uint64"},{"internalType":"uint32","name":"habitId","type":"uint32"}],"name":"settle","outputs":[],"stateMutability":"nonpayable","type":"function"},{"inputs":[{"internalType":"address","name":"user","type":"address"},{"internalType":"uint64","name":"epoch","type":"uint64"},{"internalType":"uint32","name":"maxCount","type":"uint32"}],"name":"settleAll","outputs":[],"stateMutability":"nonpayable","type":"function"},{"inputs":[],"name":"treasury","outputs":[{"internalType":"address","name":"","type":"address"}],"stateMutability":"view","type":"function"},{"inputs":[{"internalType":"address","name":"","type":"address"}],"name":"userHabitCounters","outputs":[{"internalType":"uint32","name":"","type":"uint32"}],"stateMutability":"view","type":"function"},{"inputs":[{"internalType":"address","name":"","type":"address"}],"name":"userStates","outputs":[{"internalType":"uint256","name":"depositBalance","type":"uint256"},{"internalType":"uint256","name":"blockedBalance","type":"uint256"},{"internalType":"uint256","name":"claimableBalance","type":"uint256"},{"internalType":"uint32","name":"activeHabitCount","type":"uint32"}],"stateMutability":"view","type":"function"},{"inputs":[{"internalType":"uint256","name":"amount","type":"uint256"}],"name":"withdraw","outputs":[],"stateMutability":"nonpayable","type":"function"}],"evm":{"assembly":"// RO data = 0/0 bytes\n// RW data = 364/65984 bytes\n// Stack size = 32768 bytes\n\n// Instructions = 10816\n// Code size = 38081 bytes\n\n      : @0 (gas: 7)\n     0: sp = sp + 0xffffffffffffffe8\n     3: u64 [sp + 0x10] = ra\n     6: u64 [sp + 0x8] = s0\n     9: u64 [sp] = s1\n    11: s1 = 0x20168\n    16: s0 = i32 [0x20168]\n    21: jump @3 if s0 == 0\n      : @1 (gas: 5)\n    24: a0 = 0x301a0\n    29: i32 a0 = a0 + 0\n    31: i32 a1 = s1 + 0\n    33: ecalli 6 // 'get_immutable_data'\n    35: fallthrough\n      : @2 (gas: 3)\n    36: a0 = i32 [0x20168]\n    41: u32 [0x20168] = 0\n    46: jump @4 if a0 <u s0\n      : @3 (gas: 5)\n    49: ra = u64 [sp + 0x10]\n    52: s0 = u64 [sp + 0x8]\n    55: s1 = u64 [sp]\n    57: sp = sp + 0x18\n    60: ret\n      : @4 (gas: 1)\n    62: trap\n      : @5 (gas: 2)\n    63: a1 = i32 [0x20168]\n    68: jump @54 if a1 == 0\n      : @6 (gas: 4)\n    72: a0 = 0x301a0\n    77: i32 a0 = a0 + 0\n    79: ecalli 14 // 'set_immutable_data'\n    81: jump @54\n      : @7 (gas: 8)\n    84: sp = sp + 0xfffffffffffffff0\n    87: u64 [sp + 0x8] = ra\n    90: u64 [sp] = s0\n    92: a2 = a1\n    94: s0 = a0\n    96: a1 = 0x20\n    99: a0 = a2\n   101: ra = 2, jump @21\n      : @8 [@dyn 1] (gas: 100)\n   106: a1 = u8 [a0 + 0x1]\n   109: a2 = u8 [a0]\n   111: a3 = u8 [a0 + 0x2]\n   114: a4 = u8 [a0 + 0x3]\n   117: a1 = a1 << 0x8\n   120: a1 = a1 | a2\n   123: a3 = a3 << 0x10\n   126: a4 = a4 << 0x18\n   129: a3 = a3 | a4\n   132: a1 = a1 | a3\n   135: a2 = u8 [a0 + 0x5]\n   138: a3 = u8 [a0 + 0x4]\n   141: a4 = u8 [a0 + 0x6]\n   144: a5 = u8 [a0 + 0x7]\n   147: a2 = a2 << 0x8\n   150: a2 = a2 | a3\n   153: a4 = a4 << 0x10\n   156: a5 = a5 << 0x18\n   159: a4 = a4 | a5\n   162: a2 = a2 | a4\n   165: a2 = a2 << 0x20\n   168: t0 = a2 | a1\n   171: a2 = u8 [a0 + 0x9]\n   174: a3 = u8 [a0 + 0x8]\n   177: a4 = u8 [a0 + 0xa]\n   180: a5 = u8 [a0 + 0xb]\n   183: a2 = a2 << 0x8\n   186: a2 = a2 | a3\n   189: a4 = a4 << 0x10\n   192: a5 = a5 << 0x18\n   195: a4 = a4 | a5\n   198: a2 = a2 | a4\n   201: a3 = u8 [a0 + 0xd]\n   204: a4 = u8 [a0 + 0xc]\n   207: a5 = u8 [a0 + 0xe]\n   210: a1 = u8 [a0 + 0xf]\n   213: a3 = a3 << 0x8\n   216: a3 = a3 | a4\n   219: a5 = a5 << 0x10\n   222: a1 = a1 << 0x18\n   225: a1 = a1 | a5\n   228: a1 = a1 | a3\n   231: a1 = a1 << 0x20\n   234: t1 = a1 | a2\n   237: a1 = u8 [a0 + 0x11]\n   240: a3 = u8 [a0 + 0x10]\n   243: a4 = u8 [a0 + 0x12]\n   246: a5 = u8 [a0 + 0x13]\n   249: a1 = a1 << 0x8\n   252: a1 = a1 | a3\n   255: a4 = a4 << 0x10\n   258: a5 = a5 << 0x18\n   261: a4 = a4 | a5\n   264: a1 = a1 | a4\n   267: a3 = u8 [a0 + 0x15]\n   270: a4 = u8 [a0 + 0x14]\n   273: a5 = u8 [a0 + 0x16]\n   276: a2 = u8 [a0 + 0x17]\n   279: a3 = a3 << 0x8\n   282: a3 = a3 | a4\n   285: a5 = a5 << 0x10\n   288: a2 = a2 << 0x18\n   291: a2 = a2 | a5\n   294: a2 = a2 | a3\n   297: a2 = a2 << 0x20\n   300: a3 = a2 | a1\n   303: a1 = u8 [a0 + 0x19]\n   306: a2 = u8 [a0 + 0x18]\n   309: a4 = u8 [a0 + 0x1a]\n   312: a5 = u8 [a0 + 0x1b]\n   315: a1 = a1 << 0x8\n   318: a1 = a1 | a2\n   321: a4 = a4 << 0x10\n   324: a5 = a5 << 0x18\n   327: a4 = a4 | a5\n   330: a1 = a1 | a4\n   333: a2 = u8 [a0 + 0x1d]\n   336: a4 = u8 [a0 + 0x1c]\n   339: a5 = u8 [a0 + 0x1e]\n   342: a0 = u8 [a0 + 0x1f]\n   345: a2 = a2 << 0x8\n   348: a2 = a2 | a4\n   351: a5 = a5 << 0x10\n   354: a0 = a0 << 0x18\n   357: a0 = a0 | a5\n   360: a0 = a0 | a2\n   363: a0 = a0 << 0x20\n   366: a0 = a0 | a1\n   369: a0 = reverse a0\n   371: a1 = reverse a3\n   373: a2 = reverse t1\n   375: a3 = reverse t0\n   377: u64 [s0 + 0x18] = a3\n   380: u64 [s0 + 0x10] = a2\n   383: u64 [s0 + 0x8] = a1\n   386: u64 [s0] = a0\n   388: ra = u64 [sp + 0x8]\n   391: s0 = u64 [sp]\n   393: sp = sp + 0x10\n   396: ret\n      : @9 (gas: 12)\n   398: sp = sp + 0xffffffffffffffd8\n   401: u64 [sp + 0x20] = ra\n   404: u64 [sp + 0x18] = s0\n   407: u64 [sp + 0x10] = s1\n   410: a2 = u64 [a1]\n   412: u64 [sp + 0x8] = a2\n   415: a2 = u64 [a1 + 0x8]\n   418: u64 [sp] = a2\n   420: s0 = u64 [a1 + 0x10]\n   423: s1 = u64 [a1 + 0x18]\n   426: a1 = 0x20\n   429: ra = 4, jump @21\n      : @10 [@dyn 2] (gas: 71)\n   434: a1 = reverse s1\n   436: a2 = reverse s0\n   438: a3 = u64 [sp]\n   440: a3 = reverse a3\n   442: a4 = u64 [sp + 0x8]\n   445: a4 = reverse a4\n   447: u8 [a0 + 0x18] = a4\n   450: u8 [a0 + 0x10] = a3\n   453: u8 [a0 + 0x8] = a2\n   456: u8 [a0] = a1\n   458: a5 = a4 >> 0x38\n   461: u8 [a0 + 0x1f] = a5\n   464: a5 = a4 >> 0x30\n   467: u8 [a0 + 0x1e] = a5\n   470: a5 = a4 >> 0x28\n   473: u8 [a0 + 0x1d] = a5\n   476: a5 = a4 >> 0x20\n   479: u8 [a0 + 0x1c] = a5\n   482: a5 = a4 >> 0x18\n   485: u8 [a0 + 0x1b] = a5\n   488: a5 = a4 >> 0x10\n   491: u8 [a0 + 0x1a] = a5\n   494: a4 = a4 >> 0x8\n   497: u8 [a0 + 0x19] = a4\n   500: a4 = a3 >> 0x38\n   503: u8 [a0 + 0x17] = a4\n   506: a4 = a3 >> 0x30\n   509: u8 [a0 + 0x16] = a4\n   512: a4 = a3 >> 0x28\n   515: u8 [a0 + 0x15] = a4\n   518: a4 = a3 >> 0x20\n   521: u8 [a0 + 0x14] = a4\n   524: a4 = a3 >> 0x18\n   527: u8 [a0 + 0x13] = a4\n   530: a4 = a3 >> 0x10\n   533: u8 [a0 + 0x12] = a4\n   536: a3 = a3 >> 0x8\n   539: u8 [a0 + 0x11] = a3\n   542: a3 = a2 >> 0x38\n   545: u8 [a0 + 0xf] = a3\n   548: a3 = a2 >> 0x30\n   551: u8 [a0 + 0xe] = a3\n   554: a3 = a2 >> 0x28\n   557: u8 [a0 + 0xd] = a3\n   560: a3 = a2 >> 0x20\n   563: u8 [a0 + 0xc] = a3\n   566: a3 = a2 >> 0x18\n   569: u8 [a0 + 0xb] = a3\n   572: a3 = a2 >> 0x10\n   575: u8 [a0 + 0xa] = a3\n   578: a2 = a2 >> 0x8\n   581: u8 [a0 + 0x9] = a2\n   584: a2 = a1 >> 0x38\n   587: u8 [a0 + 0x7] = a2\n   590: a2 = a1 >> 0x30\n   593: u8 [a0 + 0x6] = a2\n   596: a2 = a1 >> 0x28\n   599: u8 [a0 + 0x5] = a2\n   602: a2 = a1 >> 0x20\n   605: u8 [a0 + 0x4] = a2\n   608: a2 = a1 >> 0x18\n   611: u8 [a0 + 0x3] = a2\n   614: a2 = a1 >> 0x10\n   617: u8 [a0 + 0x2] = a2\n   620: a1 = a1 >> 0x8\n   623: u8 [a0 + 0x1] = a1\n   626: ra = u64 [sp + 0x20]\n   629: s0 = u64 [sp + 0x18]\n   632: s1 = u64 [sp + 0x10]\n   635: sp = sp + 0x28\n   638: ret\n      : @11 (gas: 48)\n   640: sp = sp + 0xffffffffffffffa0\n   643: u64 [sp + 0x58] = ra\n   646: u64 [sp + 0x50] = s0\n   649: u64 [sp + 0x48] = s1\n   652: s0 = sp + 0x60\n   655: sp = sp & 0xffffffffffffffe0\n   658: s1 = a0\n   660: a0 = u64 [a1 + 0x18]\n   663: a2 = u64 [a1 + 0x10]\n   666: a3 = u64 [a1 + 0x8]\n   669: a1 = u64 [a1]\n   671: a0 = reverse a0\n   673: a2 = reverse a2\n   675: a3 = reverse a3\n   677: a1 = reverse a1\n   679: u64 [sp + 0x18] = a1\n   682: u64 [sp + 0x10] = a3\n   685: u64 [sp + 0x8] = a2\n   688: u64 [sp] = a0\n   690: u64 [sp + 56] = 0\n   693: u64 [sp + 48] = 0\n   696: u64 [sp + 40] = 0\n   699: u64 [sp + 32] = 0\n   702: u32 [sp + 64] = 0x20\n   706: i32 a1 = sp + 0\n   708: i32 a3 = sp + 0x20\n   711: i32 a4 = sp + 0x40\n   714: a2 = 0xffffffffffffffff\n   717: a0 = 0\n   719: ecalli 7 // 'get_storage'\n   721: a0 = u64 [sp + 0x38]\n   724: a1 = u64 [sp + 0x30]\n   727: a2 = u64 [sp + 0x28]\n   730: a3 = u64 [sp + 0x20]\n   733: a0 = reverse a0\n   735: a1 = reverse a1\n   737: a2 = reverse a2\n   739: a3 = reverse a3\n   741: u64 [s1 + 0x18] = a3\n   744: u64 [s1 + 0x10] = a2\n   747: u64 [s1 + 0x8] = a1\n   750: u64 [s1] = a0\n   752: sp = s0 + 0xffffffffffffffa0\n   755: ra = u64 [sp + 0x58]\n   758: s0 = u64 [sp + 0x50]\n   761: s1 = u64 [sp + 0x48]\n   764: sp = sp + 0x60\n   767: ret\n      : @12 (gas: 40)\n   769: sp = sp + 0xffffffffffffffa0\n   772: u64 [sp + 0x58] = ra\n   775: u64 [sp + 0x50] = s0\n   778: s0 = sp + 0x60\n   781: sp = sp & 0xffffffffffffffe0\n   784: t0 = u64 [a0]\n   786: a3 = u64 [a0 + 0x8]\n   789: a4 = u64 [a0 + 0x10]\n   792: a0 = u64 [a0 + 0x18]\n   795: t1 = u64 [a1]\n   797: a2 = u64 [a1 + 0x8]\n   800: a5 = u64 [a1 + 0x10]\n   803: a1 = u64 [a1 + 0x18]\n   806: t2 = reverse a0\n   808: a4 = reverse a4\n   810: a3 = reverse a3\n   812: a0 = reverse t0\n   814: t0 = reverse a1\n   816: a5 = reverse a5\n   818: a2 = reverse a2\n   820: a1 = reverse t1\n   822: u64 [sp + 0x18] = a0\n   825: u64 [sp + 0x10] = a3\n   828: u64 [sp + 0x8] = a4\n   831: u64 [sp] = t2\n   833: u64 [sp + 0x38] = a1\n   836: u64 [sp + 0x30] = a2\n   839: u64 [sp + 0x28] = a5\n   842: u64 [sp + 0x20] = t0\n   845: i32 a1 = sp + 0\n   847: i32 a3 = sp + 0x20\n   850: a2 = 0xffffffffffffffff\n   853: a4 = 0x20\n   856: a0 = 0\n   858: ecalli 15 // 'set_storage'\n   860: sp = s0 + 0xffffffffffffffa0\n   863: ra = u64 [sp + 0x58]\n   866: s0 = u64 [sp + 0x50]\n   869: sp = sp + 0x60\n   872: ret\n      : @13 (gas: 24)\n   874: sp = sp + 0xffffffffffffff60\n   878: u64 [sp + 0x98] = ra\n   882: u64 [sp + 0x90] = s0\n   886: u64 [sp + 0x88] = s1\n   890: s0 = sp + 0xa0\n   894: sp = sp & 0xffffffffffffffe0\n   897: a4 = u64 [a3]\n   899: u64 [sp + 0x38] = a4\n   902: a4 = u64 [a3 + 0x8]\n   905: u64 [sp + 0x30] = a4\n   908: a4 = u64 [a3 + 0x10]\n   911: u64 [sp + 0x28] = a4\n   914: a3 = u64 [a3 + 0x18]\n   917: u64 [sp + 0x20] = a3\n   920: a3 = u64 [a2]\n   922: u64 [sp + 0x18] = a3\n   925: a3 = u64 [a2 + 0x8]\n   928: u64 [sp + 0x10] = a3\n   931: a3 = u64 [a2 + 0x10]\n   934: u64 [sp + 0x8] = a3\n   937: a2 = u64 [a2 + 0x18]\n   940: u64 [sp] = a2\n   942: s1 = a1\n   944: ra = 6, jump @21\n      : @14 [@dyn 3] (gas: 35)\n   949: a1 = u64 [sp]\n   951: a1 = reverse a1\n   953: a2 = u64 [sp + 0x8]\n   956: a2 = reverse a2\n   958: a3 = u64 [sp + 0x10]\n   961: a3 = reverse a3\n   963: a4 = u64 [sp + 0x18]\n   966: a4 = reverse a4\n   968: u64 [sp + 0x58] = a4\n   971: u64 [sp + 0x50] = a3\n   974: u64 [sp + 0x48] = a2\n   977: u64 [sp + 0x40] = a1\n   980: a1 = u64 [sp + 0x20]\n   983: a1 = reverse a1\n   985: a2 = u64 [sp + 0x28]\n   988: a2 = reverse a2\n   990: a3 = u64 [sp + 0x30]\n   993: a3 = reverse a3\n   995: a4 = u64 [sp + 0x38]\n   998: a4 = reverse a4\n  1000: u64 [sp + 0x78] = a4\n  1003: u64 [sp + 0x70] = a3\n  1006: u64 [sp + 0x68] = a2\n  1009: u64 [sp + 0x60] = a1\n  1012: i32 a2 = a0 + 0\n  1014: i32 a3 = s1 + 0\n  1016: i32 a0 = sp + 0x40\n  1019: a1 = 0x2\n  1022: ecalli 5 // 'deposit_event'\n  1024: sp = s0 + 0xffffffffffffff60\n  1028: ra = u64 [sp + 0x98]\n  1032: s0 = u64 [sp + 0x90]\n  1036: s1 = u64 [sp + 0x88]\n  1040: sp = sp + 0xa0\n  1044: ret\n      : @15 (gas: 15)\n  1046: sp = sp + 0xffffffffffffff20\n  1050: u64 [sp + 0xd8] = ra\n  1054: u64 [sp + 0xd0] = s0\n  1058: u64 [sp + 0xc8] = s1\n  1062: s0 = sp + 0xe0\n  1066: sp = sp & 0xffffffffffffffe0\n  1069: a5 = u64 [a4]\n  1071: u64 [sp + 0x40] = a5\n  1074: a5 = u64 [a4 + 0x8]\n  1077: u64 [sp + 0x48] = a5\n  1080: a5 = u64 [a4 + 0x10]\n  1083: u64 [sp + 0x50] = a5\n  1086: a4 = u64 [a4 + 0x18]\n  1089: u64 [sp + 0x58] = a4\n  1092: t0 = 8, jump @1443\n      : @16 [@dyn 4] (gas: 2)\n  1098: u64 [sp + 0x38] = a1\n  1101: ra = 10, jump @21\n      : @17 [@dyn 5] (gas: 46)\n  1106: a1 = reverse s1\n  1108: u64 [sp + 0x78] = a1\n  1111: a1 = u64 [sp]\n  1113: a1 = reverse a1\n  1115: u64 [sp + 0x70] = a1\n  1118: a1 = u64 [sp + 0x8]\n  1121: a1 = reverse a1\n  1123: u64 [sp + 0x68] = a1\n  1126: a1 = u64 [sp + 0x10]\n  1129: a1 = reverse a1\n  1131: u64 [sp + 0x60] = a1\n  1134: a1 = u64 [sp + 0x18]\n  1137: a1 = reverse a1\n  1139: u64 [sp + 0x98] = a1\n  1143: a1 = u64 [sp + 0x20]\n  1146: a1 = reverse a1\n  1148: u64 [sp + 0x90] = a1\n  1152: a1 = u64 [sp + 0x28]\n  1155: a1 = reverse a1\n  1157: u64 [sp + 0x88] = a1\n  1161: a1 = u64 [sp + 0x30]\n  1164: a1 = reverse a1\n  1166: u64 [sp + 0x80] = a1\n  1170: a1 = u64 [sp + 0x40]\n  1173: a1 = reverse a1\n  1175: u64 [sp + 0xb8] = a1\n  1179: a1 = u64 [sp + 0x48]\n  1182: a1 = reverse a1\n  1184: u64 [sp + 0xb0] = a1\n  1188: a1 = u64 [sp + 0x50]\n  1191: a1 = reverse a1\n  1193: u64 [sp + 0xa8] = a1\n  1197: a1 = u64 [sp + 0x58]\n  1200: a1 = reverse a1\n  1202: u64 [sp + 0xa0] = a1\n  1206: i32 a2 = a0 + 0\n  1208: a3 = i32 [sp + 0x38]\n  1211: i32 a0 = sp + 0x60\n  1214: a1 = 0x3\n  1217: ecalli 5 // 'deposit_event'\n  1219: sp = s0 + 0xffffffffffffff20\n  1223: ra = u64 [sp + 0xd8]\n  1227: s0 = u64 [sp + 0xd0]\n  1231: s1 = u64 [sp + 0xc8]\n  1235: sp = sp + 0xe0\n  1239: ret\n      : @18 (gas: 23)\n  1241: sp = sp + 0xfffffffffffffee0\n  1245: u64 [sp + 0x118] = ra\n  1249: u64 [sp + 0x110] = s0\n  1253: u64 [sp + 0x108] = s1\n  1257: s0 = sp + 0x120\n  1261: sp = sp & 0xffffffffffffffe0\n  1264: s1 = u64 [a5]\n  1266: u64 [sp + 0x60] = s1\n  1269: s1 = u64 [a5 + 0x8]\n  1272: u64 [sp + 0x68] = s1\n  1275: s1 = u64 [a5 + 0x10]\n  1278: u64 [sp + 0x70] = s1\n  1281: a5 = u64 [a5 + 0x18]\n  1284: u64 [sp + 0x78] = a5\n  1287: a5 = u64 [a4]\n  1289: u64 [sp + 0x38] = a5\n  1292: a5 = u64 [a4 + 0x8]\n  1295: u64 [sp + 0x40] = a5\n  1298: a5 = u64 [a4 + 0x10]\n  1301: u64 [sp + 0x48] = a5\n  1304: a4 = u64 [a4 + 0x18]\n  1307: u64 [sp + 0x50] = a4\n  1310: t0 = 12, jump @1443\n      : @19 [@dyn 6] (gas: 2)\n  1316: u64 [sp + 0x58] = a1\n  1319: ra = 14, jump @21\n      : @20 [@dyn 7] (gas: 58)\n  1324: a1 = reverse s1\n  1326: u64 [sp + 0x98] = a1\n  1330: a1 = u64 [sp]\n  1332: a1 = reverse a1\n  1334: u64 [sp + 0x90] = a1\n  1338: a1 = u64 [sp + 0x8]\n  1341: a1 = reverse a1\n  1343: u64 [sp + 0x88] = a1\n  1347: a1 = u64 [sp + 0x10]\n  1350: a1 = reverse a1\n  1352: u64 [sp + 0x80] = a1\n  1356: a1 = u64 [sp + 0x18]\n  1359: a1 = reverse a1\n  1361: u64 [sp + 0xb8] = a1\n  1365: a1 = u64 [sp + 0x20]\n  1368: a1 = reverse a1\n  1370: u64 [sp + 0xb0] = a1\n  1374: a1 = u64 [sp + 0x28]\n  1377: a1 = reverse a1\n  1379: u64 [sp + 0xa8] = a1\n  1383: a1 = u64 [sp + 0x30]\n  1386: a1 = reverse a1\n  1388: u64 [sp + 0xa0] = a1\n  1392: a1 = u64 [sp + 0x38]\n  1395: a1 = reverse a1\n  1397: u64 [sp + 0xd8] = a1\n  1401: a1 = u64 [sp + 0x40]\n  1404: a1 = reverse a1\n  1406: u64 [sp + 0xd0] = a1\n  1410: a1 = u64 [sp + 0x48]\n  1413: a1 = reverse a1\n  1415: u64 [sp + 0xc8] = a1\n  1419: a1 = u64 [sp + 0x50]\n  1422: a1 = reverse a1\n  1424: u64 [sp + 0xc0] = a1\n  1428: a1 = u64 [sp + 0x60]\n  1431: a1 = reverse a1\n  1433: u64 [sp + 0xf8] = a1\n  1437: a1 = u64 [sp + 0x68]\n  1440: a1 = reverse a1\n  1442: u64 [sp + 0xf0] = a1\n  1446: a1 = u64 [sp + 0x70]\n  1449: a1 = reverse a1\n  1451: u64 [sp + 0xe8] = a1\n  1455: a1 = u64 [sp + 0x78]\n  1458: a1 = reverse a1\n  1460: u64 [sp + 0xe0] = a1\n  1464: i32 a2 = a0 + 0\n  1466: a3 = i32 [sp + 0x58]\n  1469: i32 a0 = sp + 0x80\n  1473: a1 = 0x4\n  1476: ecalli 5 // 'deposit_event'\n  1478: sp = s0 + 0xfffffffffffffee0\n  1482: ra = u64 [sp + 0x118]\n  1486: s0 = u64 [sp + 0x110]\n  1490: s1 = u64 [sp + 0x108]\n  1494: sp = sp + 0x120\n  1498: ret\n      : @21 (gas: 2)\n  1500: i32 a2 = a0 >> 0x10\n  1503: jump @26 if a2 != 0\n      : @22 (gas: 4)\n  1506: a1 = a1 + a0\n  1509: i32 a1 = a1 + 0x1f\n  1512: a1 = a1 & 0xffffffffffffffe0\n  1515: jump @26 if a1 >u 65536\n      : @23 (gas: 3)\n  1521: a2 = 0x20170\n  1526: a3 = i32 [0x20170]\n  1531: jump @25 if a3 >=u a1\n      : @24 (gas: 2)\n  1534: u32 [0x20170] = a1\n  1539: fallthrough\n      : @25 (gas: 4)\n  1540: a1 = 0x20180\n  1545: i32 a0 = a0 + 0\n  1547: a0 = a0 + a1\n  1550: ret\n      : @26 (gas: 1)\n  1552: trap\n      : @27 (gas: 6)\n  1553: sp = sp + 0xfffffffffffffff0\n  1556: u64 [sp + 0x8] = ra\n  1559: u64 [sp] = s0\n  1561: s0 = a0 & 0x1\n  1564: ecalli 3 // 'call_data_size'\n  1566: fallthrough\n      : @28 (gas: 2)\n  1567: u32 [0x2016c] = a0\n  1572: jump @30 if s0 == 0\n      : @29 (gas: 1)\n  1575: ra = 16, jump @31\n      : @30 [@dyn 8] (gas: 1)\n  1579: ra = 18, jump @57\n      : @31 [@dyn 9] (gas: 13)\n  1584: sp = sp + 0xffffffffffffff00\n  1588: u64 [sp + 0xf8] = ra\n  1592: u64 [sp + 0xf0] = s0\n  1596: u64 [sp + 0xe8] = s1\n  1600: s0 = sp + 0x100\n  1604: sp = sp & 0xffffffffffffffe0\n  1607: u64 [sp + 216] = 0\n  1611: u64 [sp + 208] = 0\n  1615: u64 [sp + 200] = 0\n  1619: u64 [sp + 192] = 0\n  1623: i32 a0 = sp + 0xc0\n  1627: ecalli 16 // 'value_transferred'\n  1629: fallthrough\n      : @32 (gas: 8)\n  1630: a0 = u64 [sp + 0xd0]\n  1634: a1 = u64 [sp + 0xd8]\n  1638: a2 = u64 [sp + 0xc8]\n  1642: a3 = u64 [sp + 0xc0]\n  1646: a1 = a1 | a2\n  1649: a0 = a0 | a3\n  1652: a0 = a0 | a1\n  1655: jump @44 if a0 != 0\n      : @33 (gas: 15)\n  1659: s1 = i32 [0x2016c]\n  1664: a0 = s1 << 0x20\n  1667: a0 = a0 >> 0x20\n  1670: a0 = a0 + 0x1f\n  1673: a0 = a0 & 0xffffffffffffffe0\n  1676: a1 = a0 + 0xa0\n  1680: a0 = a1 <u a0\n  1683: u64 [sp + 0xa0] = a1\n  1687: u64 [sp + 0xa8] = a0\n  1691: a0 = 0 if a0 != 0\n  1693: u64 [sp + 0xb0] = a0\n  1697: a0 = 0x40\n  1700: a1 = sp + 0xa0\n  1704: u64 [sp + 184] = 0\n  1708: ra = 20, jump @9\n      : @34 [@dyn 10] (gas: 3)\n  1713: a0 = 0xa0\n  1717: a1 = s1\n  1719: ra = 22, jump @21\n      : @35 [@dyn 11] (gas: 5)\n  1724: i32 a0 = a0 + 0\n  1726: a1 = s1\n  1728: a2 = 0\n  1730: ecalli 1 // 'call_data_copy'\n  1732: fallthrough\n      : @36 (gas: 1)\n  1733: jump @45 if s1 <=u 31\n      : @37 (gas: 3)\n  1738: a0 = sp + 0x80\n  1742: a1 = 0xa0\n  1746: ra = 24, jump @7\n      : @38 [@dyn 12] (gas: 10)\n  1751: a0 = u64 [sp + 0x90]\n  1755: a2 = u64 [sp + 0x98]\n  1759: a1 = 0x100000000\n  1769: a1 = a1 ^ a0\n  1772: a1 = a1 | a2\n  1775: a3 = a0 >> 0x20\n  1778: a3 = a3 <u 0x1\n  1781: a3 = 0 if a2 != 0\n  1783: a3 = 0 if a1 == 0\n  1785: jump @46 if a3 == 0\n      : @39 (gas: 6)\n  1788: a1 = u64 [sp + 0x80]\n  1792: a3 = u64 [sp + 0x88]\n  1796: a4 = a1 | a0\n  1799: a5 = a3 | a2\n  1802: a4 = a4 | a5\n  1805: jump @47 if a4 == 0\n      : @40 (gas: 7)\n  1808: u64 [sp + 0x60] = a1\n  1811: u64 [sp + 0x68] = a3\n  1814: u64 [sp + 0x70] = a0\n  1817: a0 = 0x80\n  1821: a1 = sp + 0x60\n  1824: u64 [sp + 0x78] = a2\n  1827: ra = 26, jump @9\n      : @41 [@dyn 13] (gas: 3)\n  1832: a0 = sp + 0x40\n  1835: a1 = 0x40\n  1838: ra = 28, jump @7\n      : @42 [@dyn 14] (gas: 12)\n  1843: a0 = u64 [sp + 0x58]\n  1846: a1 = u64 [sp + 0x50]\n  1849: a2 = u64 [sp + 0x48]\n  1852: s1 = u64 [sp + 0x40]\n  1855: a0 = a0 | a2\n  1858: a2 = s1 | a1\n  1861: a2 = a2 | a0\n  1864: a2 = a2 >> 0x20\n  1867: a0 = a0 | a1\n  1870: a0 = a0 << 0x20\n  1873: a0 = a0 | a2\n  1876: jump @51 if a0 == 0\n      : @43 (gas: 1)\n  1879: trap\n      : @44 (gas: 4)\n  1880: a1 = 0x20180\n  1885: i32 a1 = a1 + 0\n  1887: a0 = 0x1\n  1890: jump @56\n      : @45 (gas: 4)\n  1893: a1 = 0x20180\n  1898: i32 a1 = a1 + 0\n  1900: a0 = 0x1\n  1903: jump @56\n      : @46 (gas: 4)\n  1906: a1 = 0x20180\n  1911: i32 a1 = a1 + 0\n  1913: a0 = 0x1\n  1916: jump @56\n      : @47 (gas: 8)\n  1919: u64 [sp + 16] = 0\n  1922: u64 [sp + 8] = 0\n  1925: u64 [sp + 0] = 0\n  1927: a0 = 0x14bcf5c800000000\n  1937: a1 = sp\n  1939: u64 [sp + 0x18] = a0\n  1942: a0 = 0\n  1944: ra = 30, jump @9\n      : @48 [@dyn 15] (gas: 2)\n  1949: a1 = i32 [0x20170]\n  1954: jump @50 if a1 >u 31\n      : @49 (gas: 2)\n  1958: u32 [0x20170] = 0x20\n  1964: fallthrough\n      : @50 (gas: 6)\n  1965: a1 = 0x20180\n  1970: i32 a1 = a1 + 0\n  1972: a0 = 0x1\n  1975: a2 = 0x4\n  1978: ecalli 13 // 'seal_return'\n  1980: fallthrough\n      : @51 (gas: 3)\n  1981: a0 = s1\n  1983: a1 = 0\n  1985: ra = 32, jump @21\n      : @52 [@dyn 16] (gas: 7)\n  1990: i32 a0 = a0 + 0\n  1992: a1 = 0\n  1994: a2 = 0\n  1996: ecalli 1 // 'call_data_copy'\n  1998: a0 = sp + 0x20\n  2001: a1 = 0x80\n  2005: ra = 34, jump @7\n      : @53 [@dyn 17] (gas: 9)\n  2010: a0 = u64 [sp + 0x38]\n  2013: a2 = u64 [sp + 0x30]\n  2016: a3 = u64 [sp + 0x28]\n  2019: a4 = u64 [sp + 0x20]\n  2022: u64 [0x301b8] = a0\n  2027: u64 [0x301b0] = a2\n  2032: u64 [0x301a8] = a3\n  2037: u64 [0x301a0] = a4\n  2042: jump @5\n      : @54 (gas: 3)\n  2045: a0 = s1\n  2047: a1 = 0\n  2049: ra = 36, jump @21\n      : @55 [@dyn 18] (gas: 6)\n  2054: i32 a1 = a0 + 0\n  2056: a0 = 0\n  2058: a2 = 0\n  2060: ra = 0x26\n  2063: ecalli 13 // 'seal_return'\n  2065: jump @57\n      : @56 (gas: 4)\n  2067: a2 = 0\n  2069: ra = 0x26\n  2072: ecalli 13 // 'seal_return'\n  2074: fallthrough\n      : @57 [@dyn 19] (gas: 16)\n  2075: sp = sp + 0xfffffffffffffe10\n  2079: u64 [sp + 0x1e8] = ra\n  2083: u64 [sp + 0x1e0] = s0\n  2087: u64 [sp + 0x1d8] = s1\n  2091: s0 = sp + 0x1f0\n  2095: sp = sp + 0xffffffffffffd450\n  2099: sp = sp & 0xffffffffffffffe0\n  2102: s1 = sp\n  2104: a2 = s1 + 0x20b8\n  2108: u64 [a2 + 1088] = 0\n  2112: u64 [a2 + 1080] = 0\n  2116: u64 [a2 + 1064] = 0x80\n  2122: a0 = 0x40\n  2125: a1 = s1 + 0x24e0\n  2129: u64 [a2 + 1072] = 0\n  2133: ra = 40, jump @9\n      : @58 [@dyn 20] (gas: 4)\n  2138: a0 = 0x2016c\n  2143: u64 [s1 + 0x118] = a0\n  2147: a0 = i32 [0x2016c]\n  2152: jump @60 if a0 >=u 4\n      : @59 (gas: 1)\n  2156: jump @953\n      : @60 (gas: 8)\n  2159: a0 = s1 + 0x2000\n  2163: i32 a0 = a0 + 0x500\n  2167: a1 = 0\n  2169: ra = 0x2a\n  2172: ecalli 2 // 'call_data_load'\n  2174: t0 = 0x2c\n  2177: a3 = s1 + 0x20b8\n  2181: jump @62\n      : @61 [@dyn 21] (gas: 3)\n  2183: t0 = 0x2c\n  2186: a3 = s1 + 0x20b8\n  2190: fallthrough\n      : @62 [@dyn 22] (gas: 2)\n  2191: a0 = i32 [a3 + 0x464]\n  2195: jump @64 if a0 != 2293374087\n      : @63 (gas: 1)\n  2202: jump @252\n      : @64 (gas: 1)\n  2205: jump @89 if a0 == 2401489772\n      : @65 (gas: 2)\n  2213: a2 = s1 + 0x28b8\n  2217: jump @67 if a0 != 2573362740\n      : @66 (gas: 1)\n  2224: jump @385\n      : @67 (gas: 1)\n  2227: jump @69 if a0 != 3504541104\n      : @68 (gas: 1)\n  2234: jump @221\n      : @69 (gas: 1)\n  2237: jump @184 if a0 == 3916516871\n      : @70 (gas: 1)\n  2245: jump @72 if a0 != 248271711\n      : @71 (gas: 1)\n  2252: jump @349\n      : @72 (gas: 1)\n  2255: jump @120 if a0 == 573237126\n      : @73 (gas: 1)\n  2263: jump @148 if a0 == 773487949\n      : @74 (gas: 1)\n  2271: jump @76 if a0 != 932579317\n      : @75 (gas: 1)\n  2278: jump @289\n      : @76 (gas: 1)\n  2281: jump @78 if a0 != 1221342904\n      : @77 (gas: 1)\n  2288: jump @325\n      : @78 (gas: 1)\n  2291: jump @80 if a0 == 1251080110\n      : @79 (gas: 1)\n  2298: jump @435\n      : @80 (gas: 8)\n  2301: u64 [a2 + 96] = 0\n  2304: u64 [a2 + 88] = 0\n  2307: u64 [a2 + 80] = 0\n  2310: u64 [a2 + 72] = 0\n  2313: a0 = s1 + 0x3000\n  2317: i32 a0 = a0 + 0xfffffffffffff900\n  2321: ecalli 16 // 'value_transferred'\n  2323: fallthrough\n      : @81 (gas: 9)\n  2324: a3 = s1 + 0x28b8\n  2328: a0 = u64 [a3 + 0x58]\n  2331: a1 = u64 [a3 + 0x60]\n  2334: a2 = u64 [a3 + 0x50]\n  2337: a3 = u64 [a3 + 0x48]\n  2340: a1 = a1 | a2\n  2343: a0 = a0 | a3\n  2346: a0 = a0 | a1\n  2349: jump @83 if a0 == 0\n      : @82 (gas: 1)\n  2352: jump @623\n      : @83 (gas: 3)\n  2355: a0 = u64 [s1 + 0x118]\n  2359: a0 = i32 [a0]\n  2361: jump @85 if a0 >u 3\n      : @84 (gas: 1)\n  2365: jump @624\n      : @85 (gas: 3)\n  2368: a0 = s1 + 0x1000\n  2372: a1 = 0x40\n  2375: ra = 46, jump @7\n      : @86 [@dyn 23] (gas: 15)\n  2380: a3 = s1 + 0x7ff\n  2384: a3 = a3 + 0x99\n  2388: a5 = a3 + 0x700\n  2392: a4 = u64 [a5 + 0x80]\n  2396: a1 = u64 [a5 + 0x78]\n  2399: a2 = u64 [a5 + 0x70]\n  2402: a0 = u64 [a5 + 0x68]\n  2405: a4 = a4 | a2\n  2408: a2 = a0 | a1\n  2411: a2 = a2 | a4\n  2414: a2 = a2 >> 0x20\n  2417: a1 = a1 | a4\n  2420: a1 = a1 << 0x20\n  2423: a1 = a1 | a2\n  2426: jump @88 if a1 == 0\n      : @87 (gas: 1)\n  2429: jump @622\n      : @88 (gas: 10)\n  2432: a1 = u64 [0x200a0]\n  2437: u64 [a3 + 1888] = 0\n  2441: u64 [a3 + 1880] = 0\n  2445: u64 [a3 + 0x748] = a1\n  2449: a1 = s1 + 0x7ff\n  2453: a1 = a1 + 0x7e1\n  2457: u64 [a3 + 1872] = 0\n  2461: u64 [s1 + 0x118] = a0\n  2465: ra = 0x112\n  2469: jump @9\n      : @89 (gas: 10)\n  2472: a0 = s1 + 0x28b8\n  2476: u64 [a0 + 288] = 0\n  2480: u64 [a0 + 280] = 0\n  2484: u64 [a0 + 272] = 0\n  2488: u64 [a0 + 264] = 0\n  2492: a0 = s1 + 0x3000\n  2496: i32 a0 = a0 + 0xfffffffffffff9c0\n  2500: ra = 0x30\n  2503: ecalli 16 // 'value_transferred'\n  2505: fallthrough\n      : @90 [@dyn 24] (gas: 3)\n  2506: a3 = s1 + 0x28b8\n  2510: a4 = a3 + 0x100\n  2514: t0 = 50, jump @1468\n      : @91 [@dyn 25] (gas: 1)\n  2520: jump @93 if a0 == 0\n      : @92 (gas: 1)\n  2523: jump @625\n      : @93 (gas: 1)\n  2526: t0 = 52, jump @1460\n      : @94 [@dyn 26] (gas: 1)\n  2532: jump @96 if a1 <u a0\n      : @95 (gas: 1)\n  2535: jump @626\n      : @96 (gas: 6)\n  2538: a0 = s1 + 0x3000\n  2542: i32 a0 = a0 + 0xfffffffffffff9e0\n  2546: a1 = 0x4\n  2549: ra = 0x36\n  2552: ecalli 2 // 'call_data_load'\n  2554: fallthrough\n      : @97 [@dyn 27] (gas: 7)\n  2555: a0 = s1 + 0x28b8\n  2559: a5 = a0 + 0x100\n  2563: a1 = u64 [a5 + 0x40]\n  2566: a2 = u64 [a5 + 0x38]\n  2569: a3 = u64 [a5 + 0x30]\n  2572: a4 = u64 [a5 + 0x28]\n  2575: t0 = 56, jump @1433\n      : @98 [@dyn 28] (gas: 1)\n  2581: jump @100 if a0 != 0\n      : @99 (gas: 1)\n  2584: jump @627\n      : @100 (gas: 28)\n  2587: a0 = 0x30180\n  2592: u64 [s1 + 0xf0] = a0\n  2596: i32 a0 = a0 + 0\n  2598: u64 [s1 + 0xc0] = a0\n  2602: ecalli 4 // 'caller'\n  2604: a2 = u64 [s1 + 0xf0]\n  2608: a0 = u64 [a2 + 0x8]\n  2611: a1 = i32 [a2 + 0x10]\n  2614: a2 = u64 [a2]\n  2616: a0 = reverse a0\n  2618: a3 = a0 << 0x20\n  2621: a1 = reverse a1\n  2623: a1 = a1 >> 0x20\n  2626: a3 = a3 | a1\n  2629: a0 = a0 >> 0x20\n  2632: a1 = reverse a2\n  2634: a2 = a1 << 0x20\n  2637: a0 = a0 | a2\n  2640: a1 = a1 >> 0x20\n  2643: a2 = s1 + 0x10b8\n  2647: u64 [a2 + 1344] = 0\n  2651: a4 = a2 + 0x500\n  2655: u64 [a4 + 0x38] = a1\n  2658: u64 [a4 + 0x30] = a0\n  2661: a1 = s1 + 0x15e0\n  2665: u64 [a4 + 0x28] = a3\n  2668: a0 = 0\n  2670: ra = 58, jump @9\n      : @101 [@dyn 29] (gas: 9)\n  2675: a0 = s1 + 0x10b8\n  2679: u64 [a0 + 1312] = 0\n  2683: u64 [a0 + 1304] = 0\n  2687: u64 [a0 + 1296] = 0\n  2691: a2 = a0\n  2693: a0 = 0x20\n  2696: a1 = s1 + 0x15c0\n  2700: u64 [a2 + 1288] = 0\n  2704: ra = 60, jump @9\n      : @102 [@dyn 30] (gas: 7)\n  2709: a0 = sp + 0xffffffffffffffe0\n  2712: a0 = a0 & 0xffffffffffffffe0\n  2715: u64 [s1 + 0x100] = a0\n  2719: sp = a0\n  2721: a2 = 0x20170\n  2726: a0 = i32 [0x20170]\n  2731: jump @104 if a0 >u 63\n      : @103 (gas: 2)\n  2735: u32 [0x20170] = 0x40\n  2741: fallthrough\n      : @104 (gas: 15)\n  2742: u64 [s1 + 0xb8] = a2\n  2746: a0 = sp + 0xffffffffffffffe0\n  2749: a2 = a0 & 0xffffffffffffffe0\n  2752: u64 [s1 + 0xe8] = a2\n  2756: sp = a2\n  2758: a0 = 0x20180\n  2763: i32 a0 = a0 + 0\n  2765: i32 a2 = a2 + 0\n  2767: a1 = 0x40\n  2770: u64 [s1 + 0xc8] = a0\n  2774: ra = 0x3e\n  2777: ecalli 8 // 'hash_keccak_256'\n  2779: a3 = u64 [s1 + 0xe8]\n  2783: t0 = 0x40\n  2786: jump @1463\n      : @105 [@dyn 31] (gas: 2)\n  2790: a3 = u64 [s1 + 0xe8]\n  2794: t0 = 64, jump @1463\n      : @106 [@dyn 32] (gas: 26)\n  2800: a5 = reverse a1\n  2802: a2 = reverse a2\n  2804: t0 = reverse a3\n  2806: a4 = u64 [s1 + 0x100]\n  2810: u64 [a4 + 0x18] = t0\n  2813: u64 [a4 + 0x10] = a2\n  2816: u64 [a4 + 0x8] = a5\n  2819: u64 [a4] = a0\n  2821: a4 = sp + 0xffffffffffffffe0\n  2824: a1 = a4 & 0xffffffffffffffe0\n  2827: sp = a1\n  2829: a4 = a0 + 0x2\n  2832: a0 = a4 <u a0\n  2835: a3 = a5 + a0\n  2838: a5 = a3 <u a5\n  2841: a5 = a0 if a0 == 0\n  2844: a5 = a5 + a2\n  2847: a0 = a5 <u a2\n  2850: a0 = a0 + t0\n  2853: u64 [a1 + 0x10] = a5\n  2856: u64 [a1 + 0x8] = a3\n  2859: u64 [a1] = a4\n  2861: u64 [a1 + 0x18] = a0\n  2864: a0 = s1 + 0x15a0\n  2868: u64 [s1 + 0xe8] = a1\n  2872: ra = 66, jump @11\n      : @107 [@dyn 33] (gas: 25)\n  2877: a0 = s1 + 0x10b8\n  2881: t1 = u64 [a0 + 0x500]\n  2885: t2 = u64 [a0 + 0x4f8]\n  2889: t0 = u64 [a0 + 0x4f0]\n  2893: a3 = u64 [a0 + 0x4e8]\n  2897: a0 = u64 [s1 + 0x118]\n  2901: a4 = t1 ^ a0\n  2904: a5 = t1 <u a0\n  2907: a1 = u64 [s1 + 0xf8]\n  2911: a0 = t2 <u a1\n  2914: u64 [s1 + 0xd8] = a0\n  2918: a5 = a0 if a4 == 0\n  2921: a0 = u64 [s1 + 0x110]\n  2925: ra = t0 ^ a0\n  2928: a0 = t0 <u a0\n  2931: a2 = u64 [s1 + 0x108]\n  2935: u64 [s1 + 0xe0] = a3\n  2939: a2 = a3 <u a2\n  2942: u64 [s1 + 0xd0] = a2\n  2946: a0 = a2 if ra == 0\n  2949: ra = a1\n  2951: a1 = t2 ^ a1\n  2954: a1 = a1 | a4\n  2957: a5 = a0 if a1 == 0\n  2960: jump @109 if a5 == 0\n      : @108 (gas: 1)\n  2963: jump @632\n      : @109 (gas: 24)\n  2966: a1 = t2 - ra\n  2969: a2 = u64 [s1 + 0x118]\n  2973: a2 = t1 - a2\n  2976: a3 = u64 [s1 + 0xd8]\n  2980: a2 = a2 - a3\n  2983: a3 = a1 <u a0\n  2986: a2 = a2 - a3\n  2989: a1 = a1 - a0\n  2992: a0 = u64 [s1 + 0x110]\n  2996: a0 = t0 - a0\n  2999: a3 = u64 [s1 + 0xd0]\n  3003: a0 = a0 - a3\n  3006: a3 = u64 [s1 + 0xe0]\n  3010: a4 = u64 [s1 + 0x108]\n  3014: a3 = a3 - a4\n  3017: a4 = s1 + 0x28b8\n  3021: a5 = a4 + 0x100\n  3025: u64 [a5 + 0x48] = a3\n  3028: u64 [a5 + 0x50] = a0\n  3031: u64 [a5 + 0x58] = a1\n  3034: u64 [a5 + 0x60] = a2\n  3037: a1 = s1 + 0x2a00\n  3041: a0 = u64 [s1 + 0xe8]\n  3045: ra = 68, jump @12\n      : @110 [@dyn 34] (gas: 3)\n  3050: a0 = s1 + 0x1580\n  3054: a1 = u64 [s1 + 0x100]\n  3058: ra = 70, jump @11\n      : @111 [@dyn 35] (gas: 33)\n  3063: a2 = s1 + 0x10b8\n  3067: a4 = a2 + 0x400\n  3071: a0 = u64 [a4 + 0xd0]\n  3075: a1 = u64 [a4 + 0xc8]\n  3079: t0 = u64 [a2 + 0x4e0]\n  3083: a3 = u64 [a4 + 0xd8]\n  3087: a4 = u64 [s1 + 0x110]\n  3091: a4 = a4 + a0\n  3094: a5 = u64 [s1 + 0x108]\n  3098: a5 = a5 + a1\n  3101: a1 = a5 <u a1\n  3104: a4 = a4 + a1\n  3107: a2 = a4 ^ a0\n  3110: a0 = a4 <u a0\n  3113: a0 = a1 if a2 == 0\n  3116: a1 = u64 [s1 + 0xf8]\n  3120: a1 = a1 + a3\n  3123: a2 = u64 [s1 + 0x118]\n  3127: t0 = t0 + a2\n  3130: a2 = a1 <u a3\n  3133: a2 = a2 + t0\n  3136: a0 = a0 + a1\n  3139: a1 = a0 <u a1\n  3142: a1 = a1 + a2\n  3145: a2 = s1 + 0x28b8\n  3149: a3 = a2 + 0x100\n  3153: u64 [a3 + 0x68] = a5\n  3156: u64 [a3 + 0x70] = a4\n  3159: u64 [a3 + 0x78] = a0\n  3162: u64 [a3 + 0x80] = a1\n  3166: a1 = s1 + 0x2a20\n  3170: a0 = u64 [s1 + 0x100]\n  3174: ra = 72, jump @12\n      : @112 [@dyn 36] (gas: 3)\n  3179: a0 = s1 + 0x1560\n  3183: a1 = 0x40\n  3186: ra = 74, jump @7\n      : @113 [@dyn 37] (gas: 7)\n  3191: a4 = s1 + 0x10b8\n  3195: a5 = a4 + 0x400\n  3199: a0 = u64 [a5 + 0xc0]\n  3203: a1 = u64 [a5 + 0xb8]\n  3207: a2 = u64 [a5 + 0xb0]\n  3211: a3 = u64 [a5 + 0xa8]\n  3215: t0 = 76, jump @1419\n      : @114 [@dyn 38] (gas: 1)\n  3221: jump @116 if a0 == 0\n      : @115 (gas: 1)\n  3224: jump @622\n      : @116 (gas: 14)\n  3227: a2 = s1 + 0x100\n  3231: a0 = u64 [a2 + 0x8]\n  3234: a5 = a4 + 0x400\n  3238: u64 [a5 + 0x88] = a0\n  3242: a0 = u64 [a2 + 0x10]\n  3245: u64 [a5 + 0x90] = a0\n  3249: a0 = u64 [s1 + 0xf8]\n  3253: u64 [a5 + 0x98] = a0\n  3257: a1 = s1 + 0x1540\n  3261: a0 = u64 [a2 + 0x18]\n  3264: u64 [a5 + 0xa0] = a0\n  3268: a0 = a3\n  3270: u64 [a2 + 0x18] = a3\n  3273: ra = 78, jump @9\n      : @117 [@dyn 39] (gas: 6)\n  3278: a0 = u64 [s1 + 0xc0]\n  3282: ra = 0x50\n  3285: ecalli 4 // 'caller'\n  3287: a2 = u64 [s1 + 0xf0]\n  3291: t0 = 0x52\n  3294: jump @1404\n      : @118 [@dyn 40] (gas: 2)\n  3297: a2 = u64 [s1 + 0xf0]\n  3301: t0 = 82, jump @1404\n      : @119 [@dyn 41] (gas: 26)\n  3306: t0 = a1 | a0\n  3309: a3 = a3 >> 0x20\n  3312: a2 = reverse a2\n  3314: a1 = a2 << 0x20\n  3317: a1 = a1 | a3\n  3320: a2 = a2 >> 0x20\n  3323: a3 = u64 [0x20080]\n  3328: a0 = s1 + 0x10b8\n  3332: u64 [a0 + 0x480] = a3\n  3336: a3 = u64 [0x20088]\n  3341: a4 = u64 [0x20090]\n  3346: a5 = u64 [0x20098]\n  3351: u64 [a0 + 0x478] = a3\n  3355: a3 = a0 + 0x400\n  3359: u64 [a3 + 0x70] = a4\n  3362: u64 [a0 + 1120] = 0\n  3366: u64 [a3 + 0x68] = a5\n  3369: u64 [a3 + 0x58] = a2\n  3372: u64 [a3 + 0x50] = a1\n  3375: a1 = 0x20\n  3378: a2 = s1 + 0x1520\n  3382: a3 = s1 + 0x1500\n  3386: u64 [a0 + 0x448] = t0\n  3390: a0 = u64 [s1 + 0x118]\n  3394: ra = 0x140\n  3398: jump @13\n      : @120 (gas: 10)\n  3401: u64 [a3 + 1344] = 0\n  3405: u64 [a3 + 1336] = 0\n  3409: u64 [a3 + 1328] = 0\n  3413: u64 [a3 + 1320] = 0\n  3417: a0 = s1 + 0x2000\n  3421: i32 a0 = a0 + 0x5e0\n  3425: ra = 0x54\n  3428: ecalli 16 // 'value_transferred'\n  3430: t0 = 0x56\n  3433: jump @1471\n      : @121 [@dyn 42] (gas: 1)\n  3437: t0 = 86, jump @1471\n      : @122 [@dyn 43] (gas: 1)\n  3443: t0 = 88, jump @1481\n      : @123 [@dyn 44] (gas: 1)\n  3449: jump @125 if a0 == 0\n      : @124 (gas: 1)\n  3452: jump @636\n      : @125 (gas: 3)\n  3455: a0 = u64 [s1 + 0x118]\n  3459: a0 = i32 [a0]\n  3461: jump @127 if a0 >u 3\n      : @126 (gas: 1)\n  3465: jump @637\n      : @127 (gas: 16)\n  3468: a0 = s1 + 0x2000\n  3472: i32 a0 = a0 + 0x600\n  3476: ecalli 9 // 'now'\n  3478: a0 = s1 + 0x20b8\n  3482: a2 = a0 + 0x500\n  3486: a1 = u64 [a2 + 0x60]\n  3489: u64 [s1 + 0xd8] = a1\n  3493: a1 = u64 [a2 + 0x58]\n  3496: u64 [s1 + 0xd0] = a1\n  3500: a1 = u64 [a2 + 0x50]\n  3503: u64 [s1 + 0x118] = a1\n  3507: a0 = u64 [a2 + 0x48]\n  3510: u64 [s1 + 0x110] = a0\n  3514: a0 = s1 + 0x360\n  3518: a1 = 0x40\n  3521: ra = 90, jump @7\n      : @128 [@dyn 45] (gas: 6)\n  3526: a4 = s1 + 0x300\n  3530: a0 = u64 [a4 + 0x78]\n  3533: a1 = u64 [a4 + 0x70]\n  3536: a2 = u64 [a4 + 0x68]\n  3539: a3 = u64 [a4 + 0x60]\n  3542: t0 = 92, jump @1419\n      : @129 [@dyn 46] (gas: 1)\n  3547: jump @131 if a0 == 0\n      : @130 (gas: 1)\n  3550: jump @622\n      : @131 (gas: 46)\n  3553: u64 [s1 + 0x98] = a3\n  3557: t1 = u64 [s1 + 0xd0]\n  3561: a0 = clz t1\n  3563: a0 = a0 + 0x40\n  3566: ra = u64 [s1 + 0xd8]\n  3570: a2 = clz ra\n  3572: a2 = a0 if ra == 0\n  3575: t2 = u64 [s1 + 0x110]\n  3579: a0 = clz t2\n  3581: a0 = a0 + 0x40\n  3584: t0 = u64 [s1 + 0x118]\n  3588: a1 = clz t0\n  3590: a1 = a0 if t0 == 0\n  3593: a0 = a1 + 0x80\n  3597: a3 = t1 | ra\n  3600: a2 = a0 if a3 == 0\n  3603: a5 = a0 <u a1\n  3606: a5 = 0 if a3 != 0\n  3608: a4 = a5 >u 0\n  3610: a0 = a2 <u 0xf0\n  3614: a3 = a0 ^ 0x1\n  3617: a4 = a3 if a5 == 0\n  3620: a0 = a4 <u 0x1\n  3623: a0 = a0 + 0xffffffffffffffff\n  3626: a1 = -a4\n  3628: a5 = -a5\n  3630: a3 = a5 - a3\n  3633: a2 = 0xef - a2\n  3637: u64 [s1 + 0xf8] = a1\n  3641: a5 = a1 >u 0\n  3643: a1 = a0 >u 0\n  3645: a1 = a5 if a0 == 0\n  3648: a5 = a3 >u 0\n  3650: u64 [s1 + 0xe8] = a2\n  3654: a2 = a2 <u 0x100\n  3658: a2 = a2 ^ 0x1\n  3661: a2 = a5 if a3 != 0\n  3664: a2 = a1 if a4 != 0\n  3667: a1 = t2 | t1\n  3670: a4 = t0 | ra\n  3673: a1 = a1 | a4\n  3676: a1 = a1 <u 0x1\n  3679: a1 = a1 | a2\n  3682: a4 = t2\n  3684: a4 = 0 if a1 != 0\n  3686: jump @133 if a1 == 0\n      : @132 (gas: 1)\n  3689: jump @721\n      : @133 (gas: 7)\n  3692: a1 = u64 [s1 + 0xe8]\n  3696: a1 = a1 ^ 0xff\n  3700: a2 = u64 [s1 + 0xf8]\n  3704: a1 = a1 | a2\n  3707: a2 = a3 | a0\n  3710: a1 = a1 | a2\n  3713: jump @135 if a1 != 0\n      : @134 (gas: 1)\n  3716: jump @721\n      : @135 (gas: 20)\n  3719: a4 = u64 [s1 + 0xe8]\n  3723: a2 = a4 + 0x1\n  3726: u64 [s1 + 0x108] = a2\n  3730: a1 = a2 <u 0x1\n  3733: a1 = a1 + a3\n  3736: u64 [s1 + 0x100] = a1\n  3740: a1 = a1 | a2\n  3743: a1 = a1 <u 0x1\n  3746: a3 = u64 [s1 + 0xf8]\n  3750: a1 = a1 + a3\n  3753: u64 [s1 + 0xf0] = a1\n  3757: a1 = a1 <u a3\n  3760: a0 = a0 + a1\n  3763: u64 [s1 + 0xf8] = a0\n  3767: a1 = 0xff - a4\n  3771: u64 [s1 + 0xc0] = a1\n  3775: a2 = 0x80 - a1\n  3779: a0 = u64 [s1 + 0x110]\n  3783: a1 = u64 [s1 + 0x118]\n  3787: ra = 94, jump @1482\n      : @136 [@dyn 47] (gas: 6)\n  3793: u64 [s1 + 0xb8] = a0\n  3797: u64 [s1 + 0xc8] = a1\n  3801: a0 = u64 [s1 + 0xd0]\n  3805: a1 = u64 [s1 + 0xd8]\n  3809: a2 = u64 [s1 + 0xc0]\n  3813: ra = 96, jump @1487\n      : @137 [@dyn 48] (gas: 7)\n  3819: u64 [s1 + 0xb0] = a0\n  3823: u64 [s1 + 0xa8] = a1\n  3827: a0 = u64 [s1 + 0xc0]\n  3831: a2 = a0 + 0xffffffffffffff80\n  3834: a0 = u64 [s1 + 0x110]\n  3838: a1 = u64 [s1 + 0x118]\n  3842: ra = 98, jump @1487\n      : @138 [@dyn 49] (gas: 8)\n  3848: u64 [s1 + 0xa0] = a0\n  3852: u64 [s1 + 0x90] = a1\n  3856: a2 = u64 [s1 + 0xc0]\n  3860: a0 = a2 <u 0x80\n  3864: u64 [s1 + 0x88] = a0\n  3868: a0 = u64 [s1 + 0x110]\n  3872: a1 = u64 [s1 + 0x118]\n  3876: ra = 100, jump @1487\n      : @139 [@dyn 50] (gas: 12)\n  3882: u64 [s1 + 0xe0] = a1\n  3886: a1 = u64 [s1 + 0x100]\n  3890: a2 = u64 [s1 + 0xf8]\n  3894: a2 = a2 | a1\n  3897: a1 = u64 [s1 + 0x108]\n  3901: a3 = u64 [s1 + 0xf0]\n  3905: a1 = a1 | a3\n  3908: a1 = a1 | a2\n  3911: a3 = u64 [s1 + 0x88]\n  3915: a0 = 0 if a3 == 0\n  3917: u64 [s1 + 0xe8] = a0\n  3921: jump @141 if a1 != 0\n      : @140 (gas: 1)\n  3924: jump @719\n      : @141 (gas: 30)\n  3927: a2 = a3\n  3929: a0 = u64 [s1 + 0xc8]\n  3933: a1 = u64 [s1 + 0xa8]\n  3937: a0 = a0 | a1\n  3940: a5 = a3\n  3942: a1 = u64 [s1 + 0x90]\n  3946: a0 = a1 if a2 == 0\n  3949: a2 = u64 [s1 + 0xd8]\n  3953: a3 = a2\n  3955: a1 = a2\n  3957: a2 = u64 [s1 + 0xc0]\n  3961: a3 = a0 if a2 != 0\n  3964: u64 [s1 + 0xc8] = a3\n  3968: a0 = u64 [s1 + 0xb8]\n  3972: a3 = u64 [s1 + 0xb0]\n  3976: a0 = a0 | a3\n  3979: a3 = u64 [s1 + 0xa0]\n  3983: a0 = a3 if a5 == 0\n  3986: a4 = u64 [s1 + 0xd0]\n  3990: a3 = a4\n  3992: a3 = a0 if a2 != 0\n  3995: u64 [s1 + 0xc0] = a3\n  3999: a0 = u64 [s1 + 0xe0]\n  4003: a0 = 0 if a5 == 0\n  4005: u64 [s1 + 0xe0] = a0\n  4009: u64 [s1 + 176] = 0x15180\n  4016: a0 = u64 [s1 + 0x108]\n  4020: a2 = a0 + 0xffffffffffffff80\n  4023: a0 = a4\n  4025: ra = 102, jump @1482\n      : @142 [@dyn 51] (gas: 6)\n  4031: u64 [s1 + 0xb8] = a0\n  4035: u64 [s1 + 0xa0] = a1\n  4039: a0 = u64 [s1 + 0x110]\n  4043: a1 = u64 [s1 + 0x118]\n  4047: a2 = u64 [s1 + 0x108]\n  4051: ra = 104, jump @1482\n      : @143 [@dyn 52] (gas: 7)\n  4057: u64 [s1 + 0x90] = a0\n  4061: u64 [s1 + 0xa8] = a1\n  4065: a1 = u64 [s1 + 0x108]\n  4069: a2 = 0x80 - a1\n  4073: a0 = u64 [s1 + 0xd0]\n  4077: a1 = u64 [s1 + 0xd8]\n  4081: ra = 106, jump @1487\n      : @144 [@dyn 53] (gas: 21)\n  4087: a2 = u64 [s1 + 0xa8]\n  4091: a1 = a1 | a2\n  4094: a5 = s1 + 0x100\n  4098: a2 = u64 [a5 + 0x8]\n  4101: a3 = a2 <u 0x80\n  4105: u64 [s1 + 0xa8] = a3\n  4109: a4 = u64 [s1 + 0xa0]\n  4113: a1 = a4 if a3 == 0\n  4116: a4 = u64 [a5 + 0x18]\n  4119: a4 = a1 if a2 != 0\n  4122: u64 [a5 + 0x18] = a4\n  4125: a1 = u64 [s1 + 0x90]\n  4129: a0 = a0 | a1\n  4132: a1 = u64 [s1 + 0xb8]\n  4136: a0 = a1 if a3 == 0\n  4139: a1 = u64 [a5 + 0x10]\n  4142: a1 = a0 if a2 != 0\n  4145: u64 [a5 + 0x10] = a1\n  4148: a0 = u64 [s1 + 0xd0]\n  4152: a1 = u64 [s1 + 0xd8]\n  4156: ra = 108, jump @1482\n      : @145 [@dyn 54] (gas: 15)\n  4162: t2 = u64 [s1 + 0x110]\n  4166: t1 = u64 [s1 + 0x118]\n  4170: u64 [s1 + 216] = 0\n  4174: u64 [s1 + 208] = 0\n  4178: a2 = u64 [s1 + 0xa8]\n  4182: a1 = 0 if a2 == 0\n  4184: a0 = 0 if a2 == 0\n  4186: u64 [s1 + 0xb8] = a0\n  4190: a3 = u64 [s1 + 0xb0]\n  4194: a2 = a3 + 0xffffffffffffffff\n  4197: u64 [s1 + 0xa8] = a2\n  4201: a2 = a3 >u 0\n  4203: a2 = a2 + 0xffffffffffffffff\n  4206: u64 [s1 + 0xa0] = a2\n  4210: fallthrough\n      : @146 (gas: 89)\n  4211: a2 = t2 >> 0x3f\n  4214: a3 = t1 << 0x1\n  4217: a2 = a2 | a3\n  4220: a3 = t2 << 0x1\n  4223: t2 = u64 [s1 + 0xc8]\n  4227: a4 = t2 >> 0x3f\n  4230: a3 = a3 | a4\n  4233: u64 [s1 + 0x118] = a3\n  4237: ra = u64 [s1 + 0xa0]\n  4241: a0 = t1\n  4243: t1 = ra ^ a2\n  4246: t0 = ra <u a2\n  4249: a4 = u64 [s1 + 0xa8]\n  4253: a5 = a4 <u a3\n  4256: a5 = t0 if t1 != 0\n  4259: a1 = a1 << 0x1\n  4262: a4 = u64 [s1 + 0xb8]\n  4266: a3 = a4 >> 0x3f\n  4269: a1 = a1 | a3\n  4272: u64 [s1 + 0x110] = a1\n  4276: a3 = a0 >> 0x3f\n  4279: a0 = a4 << 0x1\n  4282: a3 = a3 | a0\n  4285: a0 = t2 << 0x1\n  4288: a4 = u64 [s1 + 0xc0]\n  4292: a1 = a4 >> 0x3f\n  4295: t0 = a0 | a1\n  4298: a1 = a4 << 0x1\n  4301: a4 = u64 [s1 + 0xe0]\n  4305: t1 = a4 >> 0x3f\n  4308: t1 = a1 | t1\n  4311: a1 = a4 << 0x1\n  4314: a4 = u64 [s1 + 0xe8]\n  4318: t2 = a4 >> 0x3f\n  4321: a1 = a1 | t2\n  4324: a4 = a4 << 0x1\n  4327: a0 = u64 [s1 + 0xd8]\n  4331: a4 = a4 | a0\n  4334: u64 [s1 + 0xe8] = a4\n  4338: a0 = u64 [s1 + 0xd0]\n  4342: a1 = a1 | a0\n  4345: u64 [s1 + 0xe0] = a1\n  4349: a1 = a0 | t1\n  4352: u64 [s1 + 0xc0] = a1\n  4356: a0 = a0 | t0\n  4359: u64 [s1 + 0xc8] = a0\n  4363: a0 = ra - a3\n  4366: a0 = a0 <u a5\n  4369: a1 = ra <u a3\n  4372: a5 = u64 [s1 + 0x110]\n  4376: a4 = ra - a5\n  4379: a4 = a4 - a1\n  4382: a4 = a4 - a0\n  4385: ra = a4 >>a 0x3f\n  4388: a0 = u64 [s1 + 0xb0]\n  4392: a0 = ra & a0\n  4395: a1 = u64 [s1 + 0x118]\n  4399: t2 = a1 - a0\n  4402: a1 = a1 <u a0\n  4405: t1 = a2 - a1\n  4408: a1 = 0 if a2 != 0\n  4410: a0 = a3 - a1\n  4413: u64 [s1 + 0xb8] = a0\n  4417: a1 = a3 <u a1\n  4420: a1 = a5 - a1\n  4423: a0 = s1 + 0x100\n  4427: a3 = u64 [a0 + 0x8]\n  4430: a5 = u64 [a0]\n  4432: a2 = a3 | a5\n  4435: a2 = a2 <u 0x1\n  4438: a4 = u64 [s1 + 0xf0]\n  4442: t0 = a4 <u a2\n  4445: a2 = a4 - a2\n  4448: a4 = a3 <u 0x1\n  4451: a5 = a5 - a4\n  4454: a4 = u64 [s1 + 0xf8]\n  4458: a4 = a4 - t0\n  4461: a3 = a3 + 0xffffffffffffffff\n  4464: u64 [a0] = a5\n  4466: u64 [s1 + 0xf8] = a4\n  4470: t0 = a5 | a4\n  4473: u64 [a0 + 0x8] = a3\n  4476: a4 = a3 | a2\n  4479: a3 = a4 | t0\n  4482: a4 = ra & 0x1\n  4485: u64 [s1 + 0xd8] = a4\n  4489: u64 [s1 + 0xf0] = a2\n  4493: u64 [s1 + 208] = 0\n  4497: jump @146 if a3 != 0\n      : @147 (gas: 1)\n  4501: jump @720\n      : @148 (gas: 10)\n  4504: u64 [a3 + 1408] = 0\n  4508: u64 [a3 + 1400] = 0\n  4512: u64 [a3 + 1392] = 0\n  4516: u64 [a3 + 1384] = 0\n  4520: a0 = s1 + 0x2000\n  4524: i32 a0 = a0 + 0x620\n  4528: ra = 0x6e\n  4531: ecalli 16 // 'value_transferred'\n  4533: t0 = 0x70\n  4536: jump @1471\n      : @149 [@dyn 55] (gas: 1)\n  4540: t0 = 112, jump @1471\n      : @150 [@dyn 56] (gas: 1)\n  4546: t0 = 114, jump @1480\n      : @151 [@dyn 57] (gas: 1)\n  4552: jump @153 if a0 == 0\n      : @152 (gas: 1)\n  4555: jump @638\n      : @153 (gas: 1)\n  4558: t0 = 116, jump @1460\n      : @154 [@dyn 58] (gas: 1)\n  4564: jump @156 if a1 <u a0\n      : @155 (gas: 1)\n  4567: jump @639\n      : @156 (gas: 6)\n  4570: a0 = s1 + 0x2000\n  4574: i32 a0 = a0 + 0x640\n  4578: a1 = 0x4\n  4581: ra = 0x76\n  4584: ecalli 2 // 'call_data_load'\n  4586: fallthrough\n      : @157 [@dyn 59] (gas: 7)\n  4587: a0 = s1 + 0x20b8\n  4591: a5 = a0 + 0x500\n  4595: a1 = u64 [a5 + 0xa0]\n  4599: a2 = u64 [a5 + 0x98]\n  4603: a3 = u64 [a5 + 0x90]\n  4607: a4 = u64 [a5 + 0x88]\n  4611: t0 = 120, jump @1433\n      : @158 [@dyn 60] (gas: 1)\n  4616: jump @160 if a0 != 0\n      : @159 (gas: 1)\n  4619: jump @640\n      : @160 (gas: 8)\n  4622: a0 = 0x30180\n  4627: u64 [s1 + 0x100] = a0\n  4631: i32 a0 = a0 + 0\n  4633: u64 [s1 + 0xe8] = a0\n  4637: ra = 0x7a\n  4640: ecalli 4 // 'caller'\n  4642: t0 = 0x7c\n  4645: jump @1407\n      : @161 [@dyn 61] (gas: 1)\n  4648: t0 = 124, jump @1407\n      : @162 [@dyn 62] (gas: 8)\n  4653: u64 [s1 + 1240] = 0\n  4657: a2 = s1 + 0x400\n  4661: u64 [a2 + 0xd0] = a1\n  4665: u64 [a2 + 0xc8] = a0\n  4669: a1 = s1 + 0x4c0\n  4673: u64 [a2 + 0xc0] = a3\n  4677: a0 = 0\n  4679: ra = 126, jump @9\n      : @163 [@dyn 63] (gas: 7)\n  4684: u64 [s1 + 1208] = 0\n  4688: u64 [s1 + 1200] = 0\n  4692: u64 [s1 + 1192] = 0\n  4696: a0 = 0x20\n  4699: a1 = s1 + 0x4a0\n  4703: u64 [s1 + 1184] = 0\n  4707: ra = 128, jump @9\n      : @164 [@dyn 64] (gas: 7)\n  4713: a0 = sp + 0xffffffffffffffe0\n  4716: a0 = a0 & 0xffffffffffffffe0\n  4719: u64 [s1 + 0xf0] = a0\n  4723: sp = a0\n  4725: a2 = 0x20170\n  4730: a0 = i32 [0x20170]\n  4735: jump @166 if a0 >u 63\n      : @165 (gas: 2)\n  4739: u32 [0x20170] = 0x40\n  4745: fallthrough\n      : @166 (gas: 15)\n  4746: u64 [s1 + 0xc0] = a2\n  4750: a0 = sp + 0xffffffffffffffe0\n  4753: a2 = a0 & 0xffffffffffffffe0\n  4756: u64 [s1 + 0xe0] = a2\n  4760: sp = a2\n  4762: a0 = 0x20180\n  4767: i32 a0 = a0 + 0\n  4769: i32 a2 = a2 + 0\n  4771: a1 = 0x40\n  4774: u64 [s1 + 0xc8] = a0\n  4778: ra = 0x82\n  4782: ecalli 8 // 'hash_keccak_256'\n  4784: a3 = u64 [s1 + 0xe0]\n  4788: t0 = 0x84\n  4792: jump @1411\n      : @167 [@dyn 65] (gas: 2)\n  4795: a3 = u64 [s1 + 0xe0]\n  4799: t0 = 132, jump @1411\n      : @168 [@dyn 66] (gas: 2)\n  4805: a0 = s1 + 0x480\n  4809: ra = 134, jump @11\n      : @169 [@dyn 67] (gas: 24)\n  4815: t1 = u64 [s1 + 0x498]\n  4819: t2 = u64 [s1 + 0x490]\n  4823: t0 = u64 [s1 + 0x488]\n  4827: a3 = u64 [s1 + 0x480]\n  4831: a0 = u64 [s1 + 0x118]\n  4835: a4 = t1 ^ a0\n  4838: a5 = t1 <u a0\n  4841: a1 = u64 [s1 + 0xf8]\n  4845: a0 = t2 <u a1\n  4848: u64 [s1 + 0xd8] = a0\n  4852: a5 = a0 if a4 == 0\n  4855: a0 = u64 [s1 + 0x110]\n  4859: ra = t0 ^ a0\n  4862: a0 = t0 <u a0\n  4865: a2 = u64 [s1 + 0x108]\n  4869: u64 [s1 + 0xe0] = a3\n  4873: a2 = a3 <u a2\n  4876: u64 [s1 + 0xd0] = a2\n  4880: a0 = a2 if ra == 0\n  4883: ra = a1\n  4885: a1 = t2 ^ a1\n  4888: a1 = a1 | a4\n  4891: a5 = a0 if a1 == 0\n  4894: jump @171 if a5 == 0\n      : @170 (gas: 1)\n  4897: jump @644\n      : @171 (gas: 11)\n  4900: a1 = t2 - ra\n  4903: a2 = u64 [s1 + 0x118]\n  4907: a2 = t1 - a2\n  4910: a3 = u64 [s1 + 0xd8]\n  4914: a2 = a2 - a3\n  4917: a3 = a1 <u a0\n  4920: a2 = a2 - a3\n  4923: a1 = a1 - a0\n  4926: a0 = u64 [s1 + 0x110]\n  4930: a0 = t0 - a0\n  4933: t0 = 136, jump @1456\n      : @172 [@dyn 68] (gas: 8)\n  4939: a5 = a4 + 0x500\n  4943: u64 [a5 + 0xa8] = a3\n  4947: u64 [a5 + 0xb0] = a0\n  4951: u64 [a5 + 0xb8] = a1\n  4955: u64 [a5 + 0xc0] = a2\n  4959: a1 = s1 + 0x2660\n  4963: a0 = u64 [s1 + 0xf0]\n  4967: ra = 138, jump @12\n      : @173 [@dyn 69] (gas: 5)\n  4973: a0 = u64 [s1 + 0xe8]\n  4977: ra = 0x8c\n  4981: ecalli 4 // 'caller'\n  4983: t0 = 0x8e\n  4987: jump @1421\n      : @174 [@dyn 70] (gas: 1)\n  4990: t0 = 142, jump @1421\n      : @175 [@dyn 71] (gas: 14)\n  4996: u64 [s1 + 0x458] = a2\n  5000: a2 = u64 [s1 + 0xf8]\n  5004: u64 [s1 + 0x450] = a2\n  5008: a2 = u64 [a4 + 0x10]\n  5011: u64 [s1 + 0x448] = a2\n  5015: a2 = u64 [a4 + 0x8]\n  5018: u64 [s1 + 0x440] = a2\n  5022: u64 [s1 + 1144] = 0\n  5026: u64 [s1 + 0x470] = a1\n  5030: u64 [s1 + 0x468] = a0\n  5034: a0 = s1 + 0x460\n  5038: a1 = s1 + 0x440\n  5042: u64 [s1 + 0x460] = a3\n  5046: ra = 144, jump @1379\n      : @176 [@dyn 72] (gas: 3)\n  5052: a0 = s1 + 0x420\n  5056: a1 = 0x40\n  5059: ra = 146, jump @7\n      : @177 [@dyn 73] (gas: 6)\n  5065: a4 = s1 + 0x400\n  5069: a0 = u64 [a4 + 0x38]\n  5072: a1 = u64 [a4 + 0x30]\n  5075: a2 = u64 [a4 + 0x28]\n  5078: a3 = u64 [a4 + 0x20]\n  5081: t0 = 148, jump @1419\n      : @178 [@dyn 74] (gas: 1)\n  5087: jump @180 if a0 == 0\n      : @179 (gas: 1)\n  5090: jump @622\n      : @180 (gas: 13)\n  5093: a0 = u64 [s1 + 0x108]\n  5097: a2 = s1 + 0x400\n  5101: u64 [a2] = a0\n  5103: a0 = u64 [s1 + 0x110]\n  5107: u64 [a2 + 0x8] = a0\n  5110: a0 = u64 [s1 + 0xf8]\n  5114: u64 [a2 + 0x10] = a0\n  5117: a1 = s1 + 0x400\n  5121: a0 = u64 [s1 + 0x118]\n  5125: u64 [a2 + 0x18] = a0\n  5128: a0 = a3\n  5130: u64 [s1 + 0x118] = a3\n  5134: ra = 150, jump @9\n      : @181 [@dyn 75] (gas: 6)\n  5140: a0 = u64 [s1 + 0xe8]\n  5144: ra = 0x98\n  5148: ecalli 4 // 'caller'\n  5150: a2 = u64 [s1 + 0x100]\n  5154: t0 = 0x9a\n  5158: jump @1404\n      : @182 [@dyn 76] (gas: 2)\n  5161: a2 = u64 [s1 + 0x100]\n  5165: t0 = 154, jump @1404\n      : @183 [@dyn 77] (gas: 25)\n  5171: t0 = a1 | a0\n  5174: a3 = a3 >> 0x20\n  5177: a2 = reverse a2\n  5179: a1 = a2 << 0x20\n  5182: a1 = a1 | a3\n  5185: a2 = a2 >> 0x20\n  5188: u64 [s1 + 984] = 0\n  5192: a3 = u64 [0x200f8]\n  5197: a4 = u64 [0x20100]\n  5202: a5 = u64 [0x20108]\n  5207: a0 = u64 [0x20110]\n  5212: u64 [s1 + 0x3f8] = a3\n  5216: a3 = s1 + 0x300\n  5220: u64 [a3 + 0xf0] = a4\n  5224: u64 [a3 + 0xe8] = a5\n  5228: u64 [a3 + 0xe0] = a0\n  5232: u64 [a3 + 0xd0] = a2\n  5236: u64 [a3 + 0xc8] = a1\n  5240: a1 = 0x20\n  5243: a2 = s1 + 0x3e0\n  5247: a3 = s1 + 0x3c0\n  5251: u64 [s1 + 0x3c0] = t0\n  5255: a0 = u64 [s1 + 0x118]\n  5259: ra = 0x140\n  5263: jump @13\n      : @184 (gas: 10)\n  5266: u64 [a2 + 896] = 0\n  5270: u64 [a2 + 888] = 0\n  5274: u64 [a2 + 880] = 0\n  5278: u64 [a2 + 872] = 0\n  5282: a0 = s1 + 0x3000\n  5286: i32 a0 = a0 + 0xfffffffffffffc20\n  5290: ra = 0x9c\n  5294: ecalli 16 // 'value_transferred'\n  5296: t0 = 0x9e\n  5300: jump @1472\n      : @185 [@dyn 78] (gas: 1)\n  5303: t0 = 158, jump @1472\n      : @186 [@dyn 79] (gas: 1)\n  5309: t0 = 160, jump @1480\n      : @187 [@dyn 80] (gas: 1)\n  5315: jump @189 if a0 == 0\n      : @188 (gas: 1)\n  5318: jump @645\n      : @189 (gas: 1)\n  5321: t0 = 162, jump @1460\n      : @190 [@dyn 81] (gas: 1)\n  5327: jump @192 if a1 <u a0\n      : @191 (gas: 1)\n  5330: jump @646\n      : @192 (gas: 5)\n  5333: a0 = s1 + 0x3000\n  5337: i32 a0 = a0 + 0xfffffffffffffc40\n  5341: a1 = 0x4\n  5344: ecalli 2 // 'call_data_load'\n  5346: fallthrough\n      : @193 (gas: 14)\n  5347: a0 = s1 + 0x28b8\n  5351: a5 = a0 + 0x300\n  5355: a1 = u64 [a5 + 0xa0]\n  5359: a2 = u64 [a5 + 0x98]\n  5363: a3 = u64 [a5 + 0x90]\n  5367: a4 = u64 [a5 + 0x88]\n  5371: u64 [s1 + 0x70] = a1\n  5374: u64 [s1 + 0x60] = a3\n  5377: a0 = a3 | a1\n  5380: u64 [s1 + 0x68] = a2\n  5383: u64 [s1 + 0x58] = a4\n  5386: a1 = a4 | a2\n  5389: a0 = a0 | a1\n  5392: jump @195 if a0 != 0\n      : @194 (gas: 1)\n  5395: jump @647\n      : @195 (gas: 8)\n  5398: a0 = 0x30180\n  5403: u64 [s1 + 0x88] = a0\n  5407: i32 a0 = a0 + 0\n  5409: u64 [s1 + 0x78] = a0\n  5412: ra = 0xa4\n  5416: ecalli 4 // 'caller'\n  5418: t0 = 0xa6\n  5422: jump @1405\n      : @196 [@dyn 82] (gas: 1)\n  5425: t0 = 166, jump @1405\n      : @197 [@dyn 83] (gas: 8)\n  5431: u64 [a2 + 1056] = 0\n  5435: a4 = a2 + 0x400\n  5439: u64 [a4 + 0x18] = a1\n  5442: u64 [a4 + 0x10] = a0\n  5445: a1 = s1 + 0x24c0\n  5449: u64 [a4 + 0x8] = a3\n  5452: a0 = 0\n  5454: ra = 168, jump @9\n      : @198 [@dyn 84] (gas: 9)\n  5460: a1 = s1 + 0x20b8\n  5464: u64 [a1 + 1024] = 0\n  5468: u64 [a1 + 1016] = 0\n  5472: u64 [a1 + 1000] = 0x2\n  5477: a2 = a1\n  5479: a0 = 0x20\n  5482: a1 = s1 + 0x24a0\n  5486: u64 [a2 + 1008] = 0\n  5490: ra = 170, jump @9\n      : @199 [@dyn 85] (gas: 8)\n  5496: a0 = sp + 0xffffffffffffffe0\n  5499: a0 = a0 & 0xffffffffffffffe0\n  5502: u64 [s1 + 0x118] = a0\n  5506: sp = a0\n  5508: a2 = 0x20170\n  5513: a0 = i32 [0x20170]\n  5518: a1 = 0x3f\n  5521: jump @201 if a1 <u a0\n      : @200 (gas: 2)\n  5524: u32 [0x20170] = 0x40\n  5530: fallthrough\n      : @201 (gas: 4)\n  5531: u64 [s1 + 0x48] = a2\n  5534: a0 = 0xffffffff\n  5544: u64 [s1 + 0x80] = a0\n  5548: t0 = 172, jump @1466\n      : @202 [@dyn 86] (gas: 9)\n  5554: a0 = 0x20180\n  5559: i32 a0 = a0 + 0\n  5561: i32 a2 = a2 + 0\n  5563: a1 = 0x40\n  5566: u64 [s1 + 0x50] = a0\n  5569: ra = 0xae\n  5573: ecalli 8 // 'hash_keccak_256'\n  5575: t0 = 0xb0\n  5579: jump @1426\n      : @203 [@dyn 87] (gas: 1)\n  5582: t0 = 176, jump @1426\n      : @204 [@dyn 88] (gas: 3)\n  5588: i32 a0 = a0 + 0x480\n  5592: a0 = a0 + s1\n  5595: ra = 178, jump @11\n      : @205 [@dyn 89] (gas: 4)\n  5601: a0 = s1 + 0x20b8\n  5605: a0 = u32 [a0 + 0x3c8]\n  5609: a1 = u64 [s1 + 0x80]\n  5613: jump @207 if a0 != a1\n      : @206 (gas: 1)\n  5616: jump @652\n      : @207 (gas: 10)\n  5619: a1 = a0 + 0x1\n  5622: u64 [s1 + 0x98] = a1\n  5626: a0 = a1 <u 0x1\n  5629: u64 [s1 + 0x90] = a0\n  5633: a0 = a0 | a1\n  5636: a0 = a0 <u 0x1\n  5639: u64 [s1 + 0xa0] = a0\n  5643: a0 = s1 + 0x2460\n  5647: a1 = u64 [s1 + 0x118]\n  5651: ra = 180, jump @11\n      : @208 [@dyn 90] (gas: 22)\n  5657: a3 = s1 + 0x20b8\n  5661: a0 = u32 [a3 + 0x3ac]\n  5665: a4 = a3 + 0x300\n  5669: a1 = u64 [a4 + 0xb8]\n  5673: a0 = a0 << 0x20\n  5676: a2 = u64 [a4 + 0xb0]\n  5680: a3 = u64 [a4 + 0xc0]\n  5684: a4 = u64 [s1 + 0xa0]\n  5688: a1 = a1 | a4\n  5691: a4 = u64 [s1 + 0x98]\n  5695: a0 = a0 | a4\n  5698: a4 = u64 [s1 + 0x90]\n  5702: a2 = a2 | a4\n  5705: a4 = s1 + 0x28b8\n  5709: a5 = a4 + 0x300\n  5713: u64 [a5 + 0xc0] = a3\n  5717: u64 [a5 + 0xb0] = a2\n  5721: u64 [a5 + 0xa8] = a0\n  5725: u64 [a5 + 0xb8] = a1\n  5729: a1 = s1 + 0x2c60\n  5733: a0 = u64 [s1 + 0x118]\n  5737: ra = 182, jump @12\n      : @209 [@dyn 91] (gas: 4)\n  5743: a0 = s1 + 0x3000\n  5747: i32 a0 = a0 + 0xfffffffffffffc80\n  5751: ecalli 9 // 'now'\n  5753: fallthrough\n      : @210 (gas: 48)\n  5754: a0 = s1 + 0x28b8\n  5758: t2 = u64 [a0 + 0x3e0]\n  5762: a3 = u64 [a0 + 0x3d8]\n  5766: u64 [s1 + 0xd8] = a3\n  5770: t1 = u64 [a0 + 0x3d0]\n  5774: ra = u64 [a0 + 0x3c8]\n  5778: a0 = clz t2\n  5780: a1 = clz a3\n  5782: a2 = a1 + 0x40\n  5785: a2 = a0 if t2 != 0\n  5788: a0 = clz t1\n  5790: a1 = clz ra\n  5792: a1 = a1 + 0x40\n  5795: a1 = a0 if t1 != 0\n  5798: a0 = a1 + 0x80\n  5802: a3 = a3 | t2\n  5805: a2 = a0 if a3 == 0\n  5808: a5 = a0 <u a1\n  5811: a5 = 0 if a3 != 0\n  5813: a4 = a5 >u 0\n  5815: a0 = a2 <u 0xf0\n  5819: a3 = a0 ^ 0x1\n  5822: a4 = a3 if a5 == 0\n  5825: a0 = a4 <u 0x1\n  5828: a0 = a0 + 0xffffffffffffffff\n  5831: a1 = -a4\n  5833: a5 = -a5\n  5835: a3 = a5 - a3\n  5838: t0 = 0xef - a2\n  5842: u64 [s1 + 0x118] = a1\n  5846: a5 = a1 >u 0\n  5848: a1 = a0 >u 0\n  5850: a1 = a5 if a0 == 0\n  5853: a5 = t0 <u 0x100\n  5857: a5 = a5 ^ 0x1\n  5860: a2 = a3 >u 0\n  5862: a5 = a2 if a3 != 0\n  5865: a5 = a1 if a4 != 0\n  5868: u64 [s1 + 0xc0] = t2\n  5872: a1 = t1 | t2\n  5875: a4 = u64 [s1 + 0xd8]\n  5879: a2 = ra | a4\n  5882: a1 = a1 | a2\n  5885: a1 = a1 <u 0x1\n  5888: a1 = a1 | a5\n  5891: t2 = ra\n  5893: ra = 0 if a1 != 0\n  5895: jump @212 if a1 == 0\n      : @211 (gas: 1)\n  5898: jump @457\n      : @212 (gas: 6)\n  5901: a1 = t0 ^ 0xff\n  5905: a5 = u64 [s1 + 0x118]\n  5909: a1 = a1 | a5\n  5912: a2 = a3 | a0\n  5915: a1 = a1 | a2\n  5918: jump @214 if a1 != 0\n      : @213 (gas: 1)\n  5921: jump @457\n      : @214 (gas: 20)\n  5924: a2 = t0 + 0x1\n  5927: u64 [s1 + 0x110] = a2\n  5931: a1 = a2 <u 0x1\n  5934: a1 = a1 + a3\n  5937: u64 [s1 + 0x100] = a1\n  5941: a1 = a1 | a2\n  5944: a1 = a1 <u 0x1\n  5947: a1 = a1 + a5\n  5950: u64 [s1 + 0xf0] = a1\n  5954: a1 = a1 <u a5\n  5957: a0 = a0 + a1\n  5960: u64 [s1 + 0xf8] = a0\n  5964: a1 = 0xff - t0\n  5968: u64 [s1 + 0xe8] = a1\n  5972: a2 = 0x80 - a1\n  5976: a0 = t2\n  5978: u64 [s1 + 0xd0] = t2\n  5982: a1 = t1\n  5984: u64 [s1 + 0xc8] = t1\n  5988: ra = 184, jump @1482\n      : @215 [@dyn 92] (gas: 6)\n  5994: u64 [s1 + 0xe0] = a0\n  5998: u64 [s1 + 0x118] = a1\n  6002: a0 = u64 [s1 + 0xd8]\n  6006: a1 = u64 [s1 + 0xc0]\n  6010: a2 = u64 [s1 + 0xe8]\n  6014: ra = 186, jump @1487\n      : @216 [@dyn 93] (gas: 7)\n  6020: u64 [s1 + 0xb0] = a0\n  6024: u64 [s1 + 0xa8] = a1\n  6028: a0 = u64 [s1 + 0xe8]\n  6032: a2 = a0 + 0xffffffffffffff80\n  6035: a0 = u64 [s1 + 0xd0]\n  6039: a1 = u64 [s1 + 0xc8]\n  6043: ra = 188, jump @1487\n      : @217 [@dyn 94] (gas: 8)\n  6049: u64 [s1 + 0x40] = a0\n  6052: u64 [s1 + 0x38] = a1\n  6055: a2 = u64 [s1 + 0xe8]\n  6059: a0 = a2 <u 0x80\n  6063: u64 [s1 + 0xb8] = a0\n  6067: a0 = u64 [s1 + 0xd0]\n  6071: a1 = u64 [s1 + 0xc8]\n  6075: ra = 190, jump @1487\n      : @218 [@dyn 95] (gas: 11)\n  6081: a4 = u64 [s1 + 0xb8]\n  6085: t0 = u64 [s1 + 0xf0]\n  6089: a5 = u64 [s1 + 0xf8]\n  6093: a2 = u64 [s1 + 0x100]\n  6097: a5 = a5 | a2\n  6100: a3 = u64 [s1 + 0x110]\n  6104: a3 = a3 | t0\n  6107: a3 = a3 | a5\n  6110: a0 = 0 if a4 == 0\n  6112: u64 [s1 + 0x108] = a0\n  6116: jump @220 if a3 == 0\n      : @219 (gas: 1)\n  6119: jump @448\n      : @220 (gas: 2)\n  6122: a5 = 0\n  6124: jump @456\n      : @221 (gas: 3)\n  6127: a0 = u64 [s1 + 0x118]\n  6131: a0 = i32 [a0]\n  6133: jump @223 if a0 >u 3\n      : @222 (gas: 1)\n  6137: jump @656\n      : @223 (gas: 10)\n  6140: u64 [a2 + 800] = 0\n  6144: u64 [a2 + 792] = 0\n  6148: u64 [a2 + 784] = 0\n  6152: u64 [a2 + 776] = 0\n  6156: a0 = s1 + 0x3000\n  6160: i32 a0 = a0 + 0xfffffffffffffbc0\n  6164: ra = 0xc0\n  6168: ecalli 16 // 'value_transferred'\n  6170: t0 = 0xc2\n  6174: jump @1472\n      : @224 [@dyn 96] (gas: 1)\n  6177: t0 = 194, jump @1472\n      : @225 [@dyn 97] (gas: 1)\n  6183: t0 = 196, jump @1468\n      : @226 [@dyn 98] (gas: 1)\n  6189: jump @228 if a0 != 0\n      : @227 (gas: 1)\n  6192: jump @657\n      : @228 (gas: 9)\n  6195: a0 = 0x30180\n  6200: u64 [s1 + 0x100] = a0\n  6204: i32 a0 = a0 + 0\n  6206: u64 [s1 + 0xd8] = a0\n  6210: ra = 0xc6\n  6214: ecalli 4 // 'caller'\n  6216: a2 = u64 [s1 + 0x100]\n  6220: t0 = 0xc8\n  6224: jump @1401\n      : @229 [@dyn 99] (gas: 2)\n  6227: a2 = u64 [s1 + 0x100]\n  6231: t0 = 200, jump @1401\n      : @230 [@dyn 100] (gas: 8)\n  6237: u64 [a2 + 1824] = 0\n  6241: a4 = a2 + 0x700\n  6245: u64 [a4 + 0x18] = a1\n  6248: u64 [a4 + 0x10] = a0\n  6251: a1 = s1 + 0x1fc0\n  6255: u64 [a4 + 0x8] = a3\n  6258: a0 = 0\n  6260: ra = 202, jump @9\n      : @231 [@dyn 101] (gas: 9)\n  6266: a0 = s1 + 0x18b8\n  6270: u64 [a0 + 1792] = 0\n  6274: u64 [a0 + 1784] = 0\n  6278: u64 [a0 + 1776] = 0\n  6282: a2 = a0\n  6284: a0 = 0x20\n  6287: a1 = s1 + 0x1fa0\n  6291: u64 [a2 + 1768] = 0\n  6295: ra = 204, jump @9\n      : @232 [@dyn 102] (gas: 8)\n  6301: a0 = sp + 0xffffffffffffffe0\n  6304: a0 = a0 & 0xffffffffffffffe0\n  6307: u64 [s1 + 0x118] = a0\n  6311: sp = a0\n  6313: a2 = 0x20170\n  6318: a0 = i32 [0x20170]\n  6323: a1 = 0x3f\n  6326: jump @234 if a1 <u a0\n      : @233 (gas: 4)\n  6329: u32 [0x20170] = 0x40\n  6335: u64 [s1 + 0xd0] = a2\n  6339: t0 = 0xce\n  6343: jump @1466\n      : @234 (gas: 2)\n  6346: u64 [s1 + 0xd0] = a2\n  6350: t0 = 206, jump @1466\n      : @235 [@dyn 103] (gas: 9)\n  6356: a0 = 0x20180\n  6361: i32 a0 = a0 + 0\n  6363: i32 a2 = a2 + 0\n  6365: a1 = 0x40\n  6368: u64 [s1 + 0xe0] = a0\n  6372: ra = 0xd0\n  6376: ecalli 8 // 'hash_keccak_256'\n  6378: t0 = 0xd2\n  6382: jump @1426\n      : @236 [@dyn 104] (gas: 1)\n  6385: t0 = 210, jump @1426\n      : @237 [@dyn 105] (gas: 3)\n  6391: i32 a0 = a0 + 0xffffffffffffff80\n  6394: a0 = a0 + s1\n  6397: ra = 212, jump @11\n      : @238 [@dyn 106] (gas: 23)\n  6403: a0 = s1 + 0x18b8\n  6407: a2 = a0 + 0x600\n  6411: a1 = u64 [a2 + 0xe0]\n  6415: u64 [s1 + 0xf0] = a1\n  6419: a1 = u64 [a2 + 0xd8]\n  6423: u64 [s1 + 0x110] = a1\n  6427: a1 = u64 [a2 + 0xc8]\n  6431: u64 [s1 + 0xe8] = a1\n  6435: a0 = u64 [a2 + 0xd0]\n  6439: u64 [s1 + 0x108] = a0\n  6443: a0 = sp + 0xffffffffffffffe0\n  6446: a0 = a0 & 0xffffffffffffffe0\n  6449: u64 [s1 + 0xf8] = a0\n  6453: sp = a0\n  6455: a0 = s1 + 0x28b8\n  6459: u64 [a0 + 832] = 0\n  6463: u64 [a0 + 824] = 0\n  6467: u64 [a0 + 816] = 0\n  6471: u64 [a0 + 808] = 0\n  6475: a0 = s1 + 0x3000\n  6479: i32 a0 = a0 + 0xfffffffffffffbe0\n  6483: ecalli 16 // 'value_transferred'\n  6485: fallthrough\n      : @239 (gas: 43)\n  6486: a0 = s1 + 0x28b8\n  6490: a3 = a0 + 0x300\n  6494: a2 = u64 [a3 + 0x30]\n  6497: a1 = u64 [a3 + 0x28]\n  6500: t0 = u64 [a0 + 0x340]\n  6504: a4 = u64 [a3 + 0x38]\n  6507: a5 = u64 [s1 + 0x108]\n  6511: a5 = a5 + a2\n  6514: a0 = u64 [s1 + 0xe8]\n  6518: t1 = a1 + a0\n  6521: a1 = t1 <u a1\n  6524: a5 = a5 + a1\n  6527: a3 = a5 ^ a2\n  6530: a2 = a5 <u a2\n  6533: a2 = a1 if a3 == 0\n  6536: a1 = u64 [s1 + 0x110]\n  6540: a1 = a1 + a4\n  6543: ra = u64 [s1 + 0xf0]\n  6547: t0 = t0 + ra\n  6550: a3 = a1 <u a4\n  6553: a3 = a3 + t0\n  6556: a2 = a2 + a1\n  6559: a1 = a2 <u a1\n  6562: t2 = a3 + a1\n  6565: a3 = u64 [s1 + 0x108]\n  6569: a1 = a3 ^ a5\n  6572: a4 = a5 <u a3\n  6575: a0 = t1 <u a0\n  6578: a0 = a4 if a1 != 0\n  6581: a3 = u64 [s1 + 0x110]\n  6585: t0 = a2 <u a3\n  6588: a4 = ra ^ t2\n  6591: a1 = t2 <u ra\n  6594: a1 = t0 if a4 == 0\n  6597: a3 = a3 ^ a2\n  6600: a3 = a3 | a4\n  6603: a0 = a1 if a3 != 0\n  6606: a1 = u64 [s1 + 0xf8]\n  6610: u64 [a1] = t1\n  6612: u64 [a1 + 0x8] = a5\n  6615: u64 [a1 + 0x10] = a2\n  6618: u64 [a1 + 0x18] = t2\n  6621: jump @241 if a0 == 0\n      : @240 (gas: 1)\n  6624: jump @662\n      : @241 (gas: 2)\n  6627: a0 = u64 [s1 + 0x118]\n  6631: ra = 214, jump @12\n      : @242 [@dyn 107] (gas: 3)\n  6637: a0 = s1 + 0x1f60\n  6641: a1 = 0x40\n  6644: ra = 216, jump @7\n      : @243 [@dyn 108] (gas: 20)\n  6650: a0 = s1 + 0x18b8\n  6654: a2 = a0 + 0x600\n  6658: a1 = u64 [a2 + 0xc0]\n  6662: u64 [s1 + 0x110] = a1\n  6666: a1 = u64 [a2 + 0xb8]\n  6670: u64 [s1 + 0x108] = a1\n  6674: a1 = u64 [a2 + 0xb0]\n  6678: u64 [s1 + 0xf8] = a1\n  6682: a0 = u64 [a2 + 0xa8]\n  6686: u64 [s1 + 0x118] = a0\n  6690: a0 = s1 + 0x28b8\n  6694: u64 [a0 + 864] = 0\n  6698: u64 [a0 + 856] = 0\n  6702: u64 [a0 + 848] = 0\n  6706: u64 [a0 + 840] = 0\n  6710: a0 = s1 + 0x3000\n  6714: i32 a0 = a0 + 0xfffffffffffffc00\n  6718: ra = 0xda\n  6722: ecalli 16 // 'value_transferred'\n  6724: fallthrough\n      : @244 [@dyn 109] (gas: 14)\n  6725: a3 = s1 + 0x100\n  6729: a0 = u64 [a3 + 0x10]\n  6732: a1 = u64 [s1 + 0xf8]\n  6736: a0 = a0 | a1\n  6739: a1 = u64 [a3 + 0x18]\n  6742: a5 = a1\n  6744: a2 = u64 [a3 + 0x8]\n  6747: a1 = a1 | a2\n  6750: a1 = a1 | a0\n  6753: a1 = a1 >> 0x20\n  6756: a0 = a0 | a2\n  6759: a0 = a0 << 0x20\n  6762: a0 = a0 | a1\n  6765: jump @246 if a0 == 0\n      : @245 (gas: 1)\n  6768: jump @622\n      : @246 (gas: 1)\n  6771: t0 = 220, jump @1472\n      : @247 [@dyn 110] (gas: 13)\n  6777: a0 = u64 [a4 + 0x48]\n  6780: a1 = u64 [a4 + 0x50]\n  6783: a2 = u64 [a4 + 0x58]\n  6786: a3 = u64 [a4 + 0x60]\n  6789: a4 = s1 + 0x18b8\n  6793: u64 [a4 + 0x6a0] = a3\n  6797: a3 = a4 + 0x600\n  6801: u64 [a3 + 0x98] = a2\n  6805: u64 [a3 + 0x90] = a1\n  6809: a1 = s1 + 0x1f40\n  6813: u64 [a3 + 0x88] = a0\n  6817: a0 = a5\n  6819: ra = 222, jump @9\n      : @248 [@dyn 111] (gas: 6)\n  6825: a0 = u64 [s1 + 0xd8]\n  6829: ra = 0xe0\n  6833: ecalli 4 // 'caller'\n  6835: a2 = u64 [s1 + 0x100]\n  6839: t0 = 0xe2\n  6843: jump @1404\n      : @249 [@dyn 112] (gas: 2)\n  6846: a2 = u64 [s1 + 0x100]\n  6850: t0 = 226, jump @1404\n      : @250 [@dyn 113] (gas: 25)\n  6856: t0 = a1 | a0\n  6859: a3 = a3 >> 0x20\n  6862: a2 = reverse a2\n  6864: a1 = a2 << 0x20\n  6867: a1 = a1 | a3\n  6870: a2 = a2 >> 0x20\n  6873: a3 = u64 [0x20020]\n  6878: a0 = s1 + 0x18b8\n  6882: u64 [a0 + 0x680] = a3\n  6886: a3 = u64 [0x20028]\n  6891: a4 = u64 [0x20030]\n  6896: a5 = u64 [0x20038]\n  6901: u64 [a0 + 0x678] = a3\n  6905: a3 = a0 + 0x600\n  6909: u64 [a3 + 0x70] = a4\n  6912: u64 [a0 + 1632] = 0\n  6916: u64 [a3 + 0x68] = a5\n  6919: u64 [a3 + 0x58] = a2\n  6922: u64 [a3 + 0x50] = a1\n  6925: a1 = 0x20\n  6928: a2 = s1 + 0x1f20\n  6932: a3 = s1 + 0x1f00\n  6936: u64 [a0 + 0x648] = t0\n  6940: a0 = u64 [s1 + 0x118]\n  6944: ra = 228, jump @13\n      : @251 [@dyn 114] (gas: 5)\n  6950: a0 = 0\n  6952: a1 = u64 [s1 + 0xe0]\n  6956: a2 = 0\n  6958: ecalli 13 // 'seal_return'\n  6960: jump @955\n      : @252 (gas: 9)\n  6963: a0 = s1 + 0x28b8\n  6967: u64 [a0 + 256] = 0\n  6971: u64 [a0 + 248] = 0\n  6975: u64 [a0 + 240] = 0\n  6979: u64 [a0 + 232] = 0\n  6983: a0 = s1 + 0x3000\n  6987: i32 a0 = a0 + 0xfffffffffffff9a0\n  6991: ecalli 16 // 'value_transferred'\n  6993: fallthrough\n      : @253 (gas: 9)\n  6994: a3 = s1 + 0x28b8\n  6998: a0 = u64 [a3 + 0xf8]\n  7002: a1 = u64 [a3 + 0x100]\n  7006: a2 = u64 [a3 + 0xf0]\n  7010: a3 = u64 [a3 + 0xe8]\n  7014: a1 = a1 | a2\n  7017: a0 = a0 | a3\n  7020: a0 = a0 | a1\n  7023: jump @255 if a0 == 0\n      : @254 (gas: 1)\n  7026: jump @669\n      : @255 (gas: 3)\n  7029: a0 = u64 [s1 + 0x118]\n  7033: a0 = i32 [a0]\n  7035: jump @257 if a0 >u 99\n      : @256 (gas: 1)\n  7039: jump @670\n      : @257 (gas: 4)\n  7042: a0 = s1 + 0x14a0\n  7046: ra = 0xe6\n  7050: t0 = 0x57c\n  7054: jump @1462\n      : @258 [@dyn 115] (gas: 11)\n  7057: a1 = s1 + 0x10b8\n  7061: a0 = u64 [a1 + 0x3e8]\n  7065: u64 [s1 + 0x118] = a0\n  7069: a0 = u64 [a1 + 0x3f0]\n  7073: u64 [s1 + 0x110] = a0\n  7077: a0 = u32 [a1 + 0x3f8]\n  7081: u64 [s1 + 0xf8] = a0\n  7085: a0 = s1 + 0x1480\n  7089: ra = 0xe8\n  7093: t0 = 0x580\n  7097: jump @1478\n      : @259 [@dyn 116] (gas: 7)\n  7100: a0 = s1 + 0x10b8\n  7104: a0 = u64 [a0 + 0x3c8]\n  7108: u64 [s1 + 0x100] = a0\n  7112: a0 = s1 + 0x1460\n  7116: ra = 0xea\n  7120: t0 = 0x586\n  7124: jump @1478\n      : @260 [@dyn 117] (gas: 3)\n  7127: t0 = 0xec\n  7131: a2 = s1 + 0x10b8\n  7135: fallthrough\n      : @261 [@dyn 118] (gas: 14)\n  7136: a3 = a2 + 0x300\n  7140: a0 = u64 [a3 + 0xa8]\n  7144: a4 = s1 + 0x100\n  7148: u64 [a4 + 0x8] = a0\n  7151: u64 [a2 + 928] = 0\n  7155: a0 = u64 [s1 + 0xf8]\n  7159: u64 [a3 + 0x98] = a0\n  7163: a0 = u64 [a4 + 0x10]\n  7166: u64 [a3 + 0x90] = a0\n  7170: a1 = s1 + 0x1440\n  7174: a0 = u64 [a4 + 0x18]\n  7177: u64 [a3 + 0x88] = a0\n  7181: a0 = 0\n  7183: ra = 238, jump @9\n      : @262 [@dyn 119] (gas: 3)\n  7189: t0 = 0xf0\n  7193: a1 = s1 + 0x10b8\n  7197: fallthrough\n      : @263 [@dyn 120] (gas: 8)\n  7198: u64 [a1 + 896] = 0\n  7202: u64 [a1 + 888] = 0\n  7206: u64 [a1 + 872] = 0x3\n  7211: a2 = a1\n  7213: a0 = 0x20\n  7216: a1 = s1 + 0x1420\n  7220: u64 [a2 + 880] = 0\n  7224: ra = 242, jump @9\n      : @264 [@dyn 121] (gas: 3)\n  7230: a1 = 0x20170\n  7235: a0 = i32 [0x20170]\n  7240: jump @266 if a0 >u 63\n      : @265 (gas: 2)\n  7244: u32 [0x20170] = 0x40\n  7250: fallthrough\n      : @266 (gas: 14)\n  7251: a0 = sp + 0xffffffffffffffe0\n  7254: a2 = a0 & 0xffffffffffffffe0\n  7257: u64 [s1 + 0xf8] = a2\n  7261: sp = a2\n  7263: a0 = 0x20180\n  7268: i32 a0 = a0 + 0\n  7270: i32 a2 = a2 + 0\n  7272: u64 [s1 + 0x118] = a1\n  7276: a1 = 0x40\n  7279: u64 [s1 + 0x110] = a0\n  7283: ra = 0xf4\n  7287: ecalli 8 // 'hash_keccak_256'\n  7289: t0 = 0xf6\n  7293: jump @1477\n      : @267 [@dyn 122] (gas: 1)\n  7296: t0 = 246, jump @1477\n      : @268 [@dyn 123] (gas: 8)\n  7302: u64 [s1 + 0xf0] = a0\n  7306: a0 = reverse a2\n  7308: u64 [s1 + 0xe8] = a0\n  7312: a0 = reverse a3\n  7314: u64 [s1 + 0xe0] = a0\n  7318: t0 = 0xf8\n  7322: a2 = s1 + 0x10b8\n  7326: fallthrough\n      : @269 [@dyn 124] (gas: 8)\n  7327: u64 [a2 + 864] = 0\n  7331: u64 [a2 + 856] = 0\n  7335: u64 [a2 + 848] = 0\n  7339: a1 = s1 + 0x1400\n  7343: a0 = u64 [s1 + 0x100]\n  7347: u64 [a2 + 0x348] = a0\n  7351: a0 = 0\n  7353: ra = 250, jump @9\n      : @270 [@dyn 125] (gas: 14)\n  7359: a0 = u64 [s1 + 0xe0]\n  7363: a1 = s1 + 0x10b8\n  7367: a2 = a1 + 0x300\n  7371: u64 [a2 + 0x40] = a0\n  7374: a0 = u64 [s1 + 0xe8]\n  7378: u64 [a2 + 0x38] = a0\n  7381: a0 = u64 [s1 + 0xf0]\n  7385: u64 [a2 + 0x30] = a0\n  7388: a3 = a1\n  7390: a0 = 0x20\n  7393: a1 = s1 + 0x13e0\n  7397: a2 = u64 [s1 + 0xf8]\n  7401: u64 [a3 + 0x328] = a2\n  7405: ra = 252, jump @9\n      : @271 [@dyn 126] (gas: 3)\n  7411: a1 = u64 [s1 + 0x118]\n  7415: a0 = i32 [a1]\n  7417: jump @273 if a0 >u 63\n      : @272 (gas: 2)\n  7421: u32 [a1 + 0] = 0x40\n  7424: fallthrough\n      : @273 (gas: 4)\n  7425: a0 = sp + 0xffffffffffffffe0\n  7428: a0 = a0 & 0xffffffffffffffe0\n  7431: u64 [s1 + 0x100] = a0\n  7435: t0 = 254, jump @1403\n      : @274 [@dyn 127] (gas: 5)\n  7441: ra = 0x100\n  7445: ecalli 8 // 'hash_keccak_256'\n  7447: a3 = u64 [s1 + 0x100]\n  7451: t0 = 0x102\n  7455: jump @1428\n      : @275 [@dyn 128] (gas: 2)\n  7458: a3 = u64 [s1 + 0x100]\n  7462: t0 = 258, jump @1428\n      : @276 [@dyn 129] (gas: 13)\n  7468: u64 [s1 + 0x100] = a0\n  7472: sp = a0\n  7474: a0 = u64 [s1 + 0x108]\n  7478: a0 = a0 << 0x20\n  7481: a0 = a0 >> 0x20\n  7484: a2 = s1 + 0x10b8\n  7488: u64 [a2 + 800] = 0\n  7492: u64 [a2 + 792] = 0\n  7496: u64 [a2 + 784] = 0\n  7500: a1 = s1 + 0x13c0\n  7504: u64 [a2 + 0x308] = a0\n  7508: a0 = 0\n  7510: ra = 260, jump @9\n      : @277 [@dyn 130] (gas: 13)\n  7516: a0 = u64 [s1 + 0xe0]\n  7520: a1 = s1 + 0x10b8\n  7524: u64 [a1 + 0x300] = a0\n  7528: a0 = u64 [s1 + 0xe8]\n  7532: u64 [a1 + 0x2f8] = a0\n  7536: a0 = u64 [s1 + 0xf0]\n  7540: u64 [a1 + 0x2f0] = a0\n  7544: a3 = a1\n  7546: a0 = 0x20\n  7549: a1 = s1 + 0x13a0\n  7553: a2 = u64 [s1 + 0xf8]\n  7557: u64 [a3 + 0x2e8] = a2\n  7561: ra = 262, jump @9\n      : @278 [@dyn 131] (gas: 3)\n  7567: a1 = u64 [s1 + 0x118]\n  7571: a0 = i32 [a1]\n  7573: jump @280 if a0 >=u 64\n      : @279 (gas: 2)\n  7577: u32 [a1 + 0] = 0x40\n  7580: fallthrough\n      : @280 (gas: 4)\n  7581: a0 = sp + 0xffffffffffffffe0\n  7584: a0 = a0 & 0xffffffffffffffe0\n  7587: u64 [s1 + 0x118] = a0\n  7591: t0 = 264, jump @1403\n      : @281 [@dyn 132] (gas: 5)\n  7597: ra = 0x10a\n  7601: ecalli 8 // 'hash_keccak_256'\n  7603: a3 = u64 [s1 + 0x118]\n  7607: t0 = 0x10c\n  7611: jump @1429\n      : @282 [@dyn 133] (gas: 2)\n  7614: a3 = u64 [s1 + 0x118]\n  7618: t0 = 268, jump @1429\n      : @283 [@dyn 134] (gas: 2)\n  7624: a0 = s1 + 0x1380\n  7628: ra = 270, jump @11\n      : @284 [@dyn 135] (gas: 6)\n  7634: a0 = s1 + 0x10b8\n  7638: a0 = u64 [a0 + 0x2c8]\n  7642: u64 [s1 + 0x118] = a0\n  7646: a0 = s1 + 0x1360\n  7650: a1 = 0x40\n  7653: ra = 272, jump @7\n      : @285 [@dyn 136] (gas: 14)\n  7659: a3 = s1 + 0x10b8\n  7663: a5 = a3 + 0x200\n  7667: a4 = u64 [a5 + 0xc0]\n  7671: a1 = u64 [a5 + 0xb8]\n  7675: a2 = u64 [a5 + 0xb0]\n  7679: a0 = u64 [a5 + 0xa8]\n  7683: a4 = a4 | a2\n  7686: a2 = a0 | a1\n  7689: a2 = a2 | a4\n  7692: a2 = a2 >> 0x20\n  7695: a1 = a1 | a4\n  7698: a1 = a1 << 0x20\n  7701: a1 = a1 | a2\n  7704: jump @287 if a1 == 0\n      : @286 (gas: 1)\n  7707: jump @622\n      : @287 (gas: 8)\n  7710: a1 = u8 [s1 + 0x118]\n  7714: u64 [a3 + 672] = 0\n  7718: u64 [a3 + 664] = 0\n  7722: u64 [a3 + 0x288] = a1\n  7726: a1 = s1 + 0x1340\n  7730: u64 [a3 + 656] = 0\n  7734: u64 [s1 + 0x118] = a0\n  7738: ra = 274, jump @9\n      : @288 [@dyn 137] (gas: 4)\n  7744: a1 = 0x20\n  7747: a0 = u64 [s1 + 0x118]\n  7751: ra = 0x2ec\n  7755: jump @21\n      : @289 (gas: 10)\n  7758: u64 [a3 + 1504] = 0\n  7762: u64 [a3 + 1496] = 0\n  7766: u64 [a3 + 1488] = 0\n  7770: u64 [a3 + 1480] = 0\n  7774: a0 = s1 + 0x2000\n  7778: i32 a0 = a0 + 0x680\n  7782: ra = 0x114\n  7786: ecalli 16 // 'value_transferred'\n  7788: t0 = 0x116\n  7792: jump @1471\n      : @290 [@dyn 138] (gas: 1)\n  7795: t0 = 278, jump @1471\n      : @291 [@dyn 139] (gas: 8)\n  7801: a0 = u64 [a4 + 0xd8]\n  7805: a1 = u64 [a4 + 0xe0]\n  7809: a2 = u64 [a4 + 0xd0]\n  7813: a3 = u64 [a4 + 0xc8]\n  7817: a1 = a1 | a2\n  7820: a0 = a0 | a3\n  7823: a0 = a0 | a1\n  7826: jump @293 if a0 == 0\n      : @292 (gas: 1)\n  7829: jump @671\n      : @293 (gas: 1)\n  7832: t0 = 280, jump @1460\n      : @294 [@dyn 140] (gas: 1)\n  7838: jump @296 if a1 <u a0\n      : @295 (gas: 1)\n  7841: jump @672\n      : @296 (gas: 6)\n  7844: a0 = s1 + 0x2000\n  7848: i32 a0 = a0 + 0x6a0\n  7852: a1 = 0x4\n  7855: ra = 0x11a\n  7859: ecalli 2 // 'call_data_load'\n  7861: fallthrough\n      : @297 [@dyn 141] (gas: 7)\n  7862: a0 = s1 + 0x20b8\n  7866: a1 = u64 [a0 + 0x600]\n  7870: a5 = a0 + 0x500\n  7874: a2 = u64 [a5 + 0xf8]\n  7878: a3 = u64 [a5 + 0xf0]\n  7882: a4 = u64 [a5 + 0xe8]\n  7886: t0 = 284, jump @1433\n      : @298 [@dyn 142] (gas: 1)\n  7892: jump @300 if a0 != 0\n      : @299 (gas: 1)\n  7895: jump @673\n      : @300 (gas: 8)\n  7898: a0 = 0x30180\n  7903: u64 [s1 + 0x100] = a0\n  7907: i32 a0 = a0 + 0\n  7909: u64 [s1 + 0xe8] = a0\n  7913: ra = 0x11e\n  7917: ecalli 4 // 'caller'\n  7919: t0 = 0x120\n  7923: jump @1407\n      : @301 [@dyn 143] (gas: 1)\n  7926: t0 = 288, jump @1407\n      : @302 [@dyn 144] (gas: 8)\n  7932: u64 [s1 + 1592] = 0\n  7936: a2 = s1 + 0x600\n  7940: u64 [a2 + 0x30] = a1\n  7943: u64 [a2 + 0x28] = a0\n  7946: a1 = s1 + 0x620\n  7950: u64 [a2 + 0x20] = a3\n  7953: a0 = 0\n  7955: ra = 290, jump @9\n      : @303 [@dyn 145] (gas: 7)\n  7961: u64 [s1 + 1560] = 0\n  7965: u64 [s1 + 1552] = 0\n  7969: u64 [s1 + 1544] = 0\n  7973: a0 = 0x20\n  7976: a1 = s1 + 0x600\n  7980: u64 [s1 + 1536] = 0\n  7984: ra = 292, jump @9\n      : @304 [@dyn 146] (gas: 7)\n  7990: a0 = sp + 0xffffffffffffffe0\n  7993: a0 = a0 & 0xffffffffffffffe0\n  7996: u64 [s1 + 0xf0] = a0\n  8000: sp = a0\n  8002: a2 = 0x20170\n  8007: a0 = i32 [0x20170]\n  8012: jump @306 if a0 >u 63\n      : @305 (gas: 2)\n  8016: u32 [0x20170] = 0x40\n  8022: fallthrough\n      : @306 (gas: 13)\n  8023: u64 [s1 + 0xc0] = a2\n  8027: a0 = sp + 0xffffffffffffffe0\n  8030: a2 = a0 & 0xffffffffffffffe0\n  8033: u64 [s1 + 0xe0] = a2\n  8037: sp = a2\n  8039: a0 = 0x20180\n  8044: i32 a0 = a0 + 0\n  8046: i32 a2 = a2 + 0\n  8048: a1 = 0x40\n  8051: u64 [s1 + 0xc8] = a0\n  8055: ra = 0x126\n  8059: ecalli 8 // 'hash_keccak_256'\n  8061: fallthrough\n      : @307 [@dyn 147] (gas: 11)\n  8062: a3 = u64 [s1 + 0xe0]\n  8066: a0 = u64 [a3]\n  8068: a1 = u64 [a3 + 0x8]\n  8071: a2 = u64 [a3 + 0x10]\n  8074: a3 = u64 [a3 + 0x18]\n  8077: a0 = reverse a0\n  8079: a1 = reverse a1\n  8081: a2 = reverse a2\n  8083: a3 = reverse a3\n  8085: a4 = a3 + 0x2\n  8088: t0 = 296, jump @1416\n      : @308 [@dyn 148] (gas: 7)\n  8094: a1 = u64 [s1 + 0xf0]\n  8098: u64 [a1] = a4\n  8100: u64 [a1 + 0x8] = a5\n  8103: u64 [a1 + 0x10] = a2\n  8106: u64 [a1 + 0x18] = a0\n  8109: a0 = s1 + 0x5e0\n  8113: ra = 298, jump @11\n      : @309 [@dyn 149] (gas: 24)\n  8119: t1 = u64 [s1 + 0x5f8]\n  8123: t2 = u64 [s1 + 0x5f0]\n  8127: t0 = u64 [s1 + 0x5e8]\n  8131: a3 = u64 [s1 + 0x5e0]\n  8135: a0 = u64 [s1 + 0x118]\n  8139: a4 = t1 ^ a0\n  8142: a5 = t1 <u a0\n  8145: a1 = u64 [s1 + 0xf8]\n  8149: a0 = t2 <u a1\n  8152: u64 [s1 + 0xd8] = a0\n  8156: a5 = a0 if a4 == 0\n  8159: a0 = u64 [s1 + 0x110]\n  8163: ra = t0 ^ a0\n  8166: a0 = t0 <u a0\n  8169: a2 = u64 [s1 + 0x108]\n  8173: u64 [s1 + 0xe0] = a3\n  8177: a2 = a3 <u a2\n  8180: u64 [s1 + 0xd0] = a2\n  8184: a0 = a2 if ra == 0\n  8187: ra = a1\n  8189: a1 = t2 ^ a1\n  8192: a1 = a1 | a4\n  8195: a5 = a0 if a1 == 0\n  8198: jump @311 if a5 == 0\n      : @310 (gas: 1)\n  8201: jump @677\n      : @311 (gas: 11)\n  8204: a1 = t2 - ra\n  8207: a2 = u64 [s1 + 0x118]\n  8211: a2 = t1 - a2\n  8214: a3 = u64 [s1 + 0xd8]\n  8218: a2 = a2 - a3\n  8221: a3 = a1 <u a0\n  8224: a2 = a2 - a3\n  8227: a1 = a1 - a0\n  8230: a0 = u64 [s1 + 0x110]\n  8234: a0 = t0 - a0\n  8237: t0 = 300, jump @1456\n      : @312 [@dyn 150] (gas: 8)\n  8243: a5 = a4 + 0x600\n  8247: u64 [a5 + 0x8] = a3\n  8250: u64 [a5 + 0x10] = a0\n  8253: u64 [a5 + 0x18] = a1\n  8256: u64 [a5 + 0x20] = a2\n  8259: a1 = s1 + 0x26c0\n  8263: a0 = u64 [s1 + 0xf0]\n  8267: ra = 302, jump @12\n      : @313 [@dyn 151] (gas: 5)\n  8273: a0 = u64 [s1 + 0xe8]\n  8277: ra = 0x130\n  8281: ecalli 4 // 'caller'\n  8283: t0 = 0x132\n  8287: jump @1421\n      : @314 [@dyn 152] (gas: 1)\n  8290: t0 = 306, jump @1421\n      : @315 [@dyn 153] (gas: 14)\n  8296: u64 [s1 + 0x5b8] = a2\n  8300: a2 = u64 [s1 + 0xf8]\n  8304: u64 [s1 + 0x5b0] = a2\n  8308: a2 = u64 [a4 + 0x10]\n  8311: u64 [s1 + 0x5a8] = a2\n  8315: a2 = u64 [a4 + 0x8]\n  8318: u64 [s1 + 0x5a0] = a2\n  8322: u64 [s1 + 1496] = 0\n  8326: u64 [s1 + 0x5d0] = a1\n  8330: u64 [s1 + 0x5c8] = a0\n  8334: a0 = s1 + 0x5c0\n  8338: a1 = s1 + 0x5a0\n  8342: u64 [s1 + 0x5c0] = a3\n  8346: ra = 308, jump @1379\n      : @316 [@dyn 154] (gas: 3)\n  8352: a0 = s1 + 0x580\n  8356: a1 = 0x40\n  8359: ra = 310, jump @7\n      : @317 [@dyn 155] (gas: 6)\n  8365: a4 = s1 + 0x500\n  8369: a0 = u64 [a4 + 0x98]\n  8373: a1 = u64 [a4 + 0x90]\n  8377: a2 = u64 [a4 + 0x88]\n  8381: a3 = u64 [a4 + 0x80]\n  8385: t0 = 312, jump @1419\n      : @318 [@dyn 156] (gas: 1)\n  8391: jump @320 if a0 == 0\n      : @319 (gas: 1)\n  8394: jump @622\n      : @320 (gas: 12)\n  8397: a0 = u64 [s1 + 0x108]\n  8401: u64 [s1 + 0x560] = a0\n  8405: a0 = u64 [s1 + 0x110]\n  8409: u64 [s1 + 0x568] = a0\n  8413: a0 = u64 [s1 + 0xf8]\n  8417: u64 [s1 + 0x570] = a0\n  8421: a1 = s1 + 0x560\n  8425: a0 = u64 [s1 + 0x118]\n  8429: u64 [s1 + 0x578] = a0\n  8433: a0 = a3\n  8435: u64 [s1 + 0x118] = a3\n  8439: ra = 314, jump @9\n      : @321 [@dyn 157] (gas: 6)\n  8445: a0 = u64 [s1 + 0xe8]\n  8449: ra = 0x13c\n  8453: ecalli 4 // 'caller'\n  8455: a2 = u64 [s1 + 0x100]\n  8459: t0 = 0x13e\n  8463: jump @1404\n      : @322 [@dyn 158] (gas: 2)\n  8466: a2 = u64 [s1 + 0x100]\n  8470: t0 = 318, jump @1404\n      : @323 [@dyn 159] (gas: 24)\n  8476: t0 = a1 | a0\n  8479: a3 = a3 >> 0x20\n  8482: a2 = reverse a2\n  8484: a1 = a2 << 0x20\n  8487: a1 = a1 | a3\n  8490: a2 = a2 >> 0x20\n  8493: u64 [s1 + 1336] = 0\n  8497: a3 = u64 [0x200d8]\n  8502: a4 = u64 [0x200e0]\n  8507: a5 = u64 [0x200e8]\n  8512: a0 = u64 [0x200f0]\n  8517: u64 [s1 + 0x558] = a3\n  8521: a3 = s1 + 0x500\n  8525: u64 [a3 + 0x50] = a4\n  8528: u64 [a3 + 0x48] = a5\n  8531: u64 [a3 + 0x40] = a0\n  8534: u64 [a3 + 0x30] = a2\n  8537: u64 [a3 + 0x28] = a1\n  8540: a1 = 0x20\n  8543: a2 = s1 + 0x540\n  8547: a3 = s1 + 0x520\n  8551: u64 [s1 + 0x520] = t0\n  8555: a0 = u64 [s1 + 0x118]\n  8559: ra = 320, jump @13\n      : @324 [@dyn 160] (gas: 5)\n  8565: a0 = 0\n  8567: a1 = u64 [s1 + 0xc8]\n  8571: a2 = 0\n  8573: ecalli 13 // 'seal_return'\n  8575: jump @955\n      : @325 (gas: 10)\n  8578: u64 [a3 + 1728] = 0\n  8582: u64 [a3 + 1720] = 0\n  8586: u64 [a3 + 1712] = 0\n  8590: u64 [a3 + 1704] = 0\n  8594: a0 = s1 + 0x2000\n  8598: i32 a0 = a0 + 0x760\n  8602: ra = 0x142\n  8606: ecalli 16 // 'value_transferred'\n  8608: t0 = 0x144\n  8612: jump @1470\n      : @326 [@dyn 161] (gas: 1)\n  8615: t0 = 324, jump @1470\n      : @327 [@dyn 162] (gas: 1)\n  8621: t0 = 326, jump @1451\n      : @328 [@dyn 163] (gas: 1)\n  8627: jump @330 if a0 == 0\n      : @329 (gas: 1)\n  8630: jump @681\n      : @330 (gas: 1)\n  8633: t0 = 328, jump @1460\n      : @331 [@dyn 164] (gas: 1)\n  8639: jump @333 if a1 <u a0\n      : @332 (gas: 1)\n  8642: jump @682\n      : @333 (gas: 7)\n  8645: a0 = s1 + 0x2000\n  8649: i32 a0 = a0 + 0x780\n  8653: a1 = 0x4\n  8656: ra = 0x14a\n  8660: ecalli 2 // 'call_data_load'\n  8662: t0 = 0x14c\n  8666: jump @1470\n      : @334 [@dyn 165] (gas: 1)\n  8669: t0 = 332, jump @1470\n      : @335 [@dyn 166] (gas: 7)\n  8675: a0 = u64 [a4 + 0xe0]\n  8679: a1 = u64 [a4 + 0xd8]\n  8683: a2 = u64 [a4 + 0xd0]\n  8687: a0 = a0 | a1\n  8690: a1 = a2 <u 0x1\n  8693: a1 = 0 if a0 != 0\n  8695: jump @337 if a1 != 0\n      : @336 (gas: 1)\n  8698: jump @683\n      : @337 (gas: 6)\n  8701: a0 = u64 [a3 + 0x6c8]\n  8705: u64 [s1 + 0xa0] = a0\n  8709: a0 = s1 + 0x2000\n  8713: i32 a0 = a0 + 0x7a0\n  8717: ecalli 9 // 'now'\n  8719: fallthrough\n      : @338 (gas: 49)\n  8720: a0 = s1 + 0x20b8\n  8724: t2 = u64 [a0 + 0x700]\n  8728: a3 = u64 [a0 + 0x6f8]\n  8732: u64 [s1 + 0xd0] = a3\n  8736: t0 = u64 [a0 + 0x6f0]\n  8740: ra = u64 [a0 + 0x6e8]\n  8744: a0 = clz t2\n  8746: a1 = clz a3\n  8748: a2 = a1 + 0x40\n  8751: a2 = a0 if t2 != 0\n  8754: a0 = clz t0\n  8756: a1 = clz ra\n  8758: a1 = a1 + 0x40\n  8761: a1 = a0 if t0 != 0\n  8764: a0 = a1 + 0x80\n  8768: a3 = a3 | t2\n  8771: a2 = a0 if a3 == 0\n  8774: a5 = a0 <u a1\n  8777: a5 = 0 if a3 != 0\n  8779: a4 = a5 >u 0\n  8781: a0 = a2 <u 0xf0\n  8785: a3 = a0 ^ 0x1\n  8788: a4 = a3 if a5 == 0\n  8791: a0 = a4 <u 0x1\n  8794: a0 = a0 + 0xffffffffffffffff\n  8797: a1 = -a4\n  8799: a5 = -a5\n  8801: a3 = a5 - a3\n  8804: t1 = 0xef - a2\n  8808: u64 [s1 + 0x118] = a1\n  8812: a5 = a1 >u 0\n  8814: a1 = a0 >u 0\n  8816: a1 = a5 if a0 == 0\n  8819: a5 = t1 <u 0x100\n  8823: a5 = a5 ^ 0x1\n  8826: a2 = a3 >u 0\n  8828: a5 = a2 if a3 != 0\n  8831: a5 = a1 if a4 != 0\n  8834: u64 [s1 + 0xc0] = t2\n  8838: u64 [s1 + 0xd8] = t0\n  8842: a1 = t0 | t2\n  8845: t2 = u64 [s1 + 0xd0]\n  8849: a2 = ra | t2\n  8852: a1 = a1 | a2\n  8855: a1 = a1 <u 0x1\n  8858: a1 = a1 | a5\n  8861: a4 = ra\n  8863: a4 = 0 if a1 != 0\n  8865: jump @340 if a1 == 0\n      : @339 (gas: 1)\n  8868: jump @539\n      : @340 (gas: 6)\n  8871: a1 = t1 ^ 0xff\n  8875: a5 = u64 [s1 + 0x118]\n  8879: a1 = a1 | a5\n  8882: a2 = a3 | a0\n  8885: a1 = a1 | a2\n  8888: jump @342 if a1 != 0\n      : @341 (gas: 1)\n  8891: jump @539\n      : @342 (gas: 20)\n  8894: t0 = ra\n  8896: a2 = t1 + 0x1\n  8899: u64 [s1 + 0x110] = a2\n  8903: a1 = a2 <u 0x1\n  8906: a1 = a1 + a3\n  8909: u64 [s1 + 0x100] = a1\n  8913: a1 = a1 | a2\n  8916: a1 = a1 <u 0x1\n  8919: a1 = a1 + a5\n  8922: u64 [s1 + 0xf0] = a1\n  8926: a1 = a1 <u a5\n  8929: a0 = a0 + a1\n  8932: u64 [s1 + 0xf8] = a0\n  8936: a1 = 0xff - t1\n  8940: u64 [s1 + 0xe8] = a1\n  8944: a2 = 0x80 - a1\n  8948: a0 = ra\n  8950: u64 [s1 + 0xc8] = t0\n  8954: a1 = u64 [s1 + 0xd8]\n  8958: ra = 334, jump @1482\n      : @343 [@dyn 167] (gas: 6)\n  8964: u64 [s1 + 0xe0] = a0\n  8968: u64 [s1 + 0x118] = a1\n  8972: a0 = u64 [s1 + 0xd0]\n  8976: a1 = u64 [s1 + 0xc0]\n  8980: a2 = u64 [s1 + 0xe8]\n  8984: ra = 336, jump @1487\n      : @344 [@dyn 168] (gas: 7)\n  8990: u64 [s1 + 0xb0] = a0\n  8994: u64 [s1 + 0xa8] = a1\n  8998: a0 = u64 [s1 + 0xe8]\n  9002: a2 = a0 + 0xffffffffffffff80\n  9005: a0 = u64 [s1 + 0xc8]\n  9009: a1 = u64 [s1 + 0xd8]\n  9013: ra = 338, jump @1487\n      : @345 [@dyn 169] (gas: 8)\n  9019: u64 [s1 + 0x98] = a0\n  9023: u64 [s1 + 0x90] = a1\n  9027: a2 = u64 [s1 + 0xe8]\n  9031: a0 = a2 <u 0x80\n  9035: u64 [s1 + 0xb8] = a0\n  9039: a0 = u64 [s1 + 0xc8]\n  9043: a1 = u64 [s1 + 0xd8]\n  9047: ra = 340, jump @1487\n      : @346 [@dyn 170] (gas: 11)\n  9053: a4 = u64 [s1 + 0xb8]\n  9057: t0 = u64 [s1 + 0xf0]\n  9061: a5 = u64 [s1 + 0xf8]\n  9065: a2 = u64 [s1 + 0x100]\n  9069: a5 = a5 | a2\n  9072: a3 = u64 [s1 + 0x110]\n  9076: a3 = a3 | t0\n  9079: a3 = a3 | a5\n  9082: a0 = 0 if a4 == 0\n  9084: u64 [s1 + 0x108] = a0\n  9088: jump @348 if a3 == 0\n      : @347 (gas: 1)\n  9091: jump @530\n      : @348 (gas: 2)\n  9094: a4 = 0\n  9096: jump @538\n      : @349 (gas: 9)\n  9099: u64 [a3 + 1216] = 0\n  9103: u64 [a3 + 1208] = 0\n  9107: u64 [a3 + 1200] = 0\n  9111: u64 [a3 + 1192] = 0\n  9115: a0 = s1 + 0x2000\n  9119: i32 a0 = a0 + 0x560\n  9123: ra = 0x156\n  9127: ecalli 16 // 'value_transferred'\n  9129: fallthrough\n      : @350 [@dyn 171] (gas: 3)\n  9130: a3 = s1 + 0x20b8\n  9134: a4 = a3 + 0x400\n  9138: t0 = 344, jump @1451\n      : @351 [@dyn 172] (gas: 1)\n  9144: jump @353 if a0 == 0\n      : @352 (gas: 1)\n  9147: jump @684\n      : @353 (gas: 1)\n  9150: t0 = 346, jump @1460\n      : @354 [@dyn 173] (gas: 1)\n  9156: jump @356 if a1 <u a0\n      : @355 (gas: 1)\n  9159: jump @685\n      : @356 (gas: 4)\n  9162: a0 = s1 + 0x320\n  9166: ra = 0x15c\n  9170: t0 = 0x57c\n  9174: jump @1462\n      : @357 [@dyn 174] (gas: 11)\n  9177: a3 = s1 + 0x300\n  9181: a0 = u64 [a3 + 0x20]\n  9184: a1 = u64 [a3 + 0x28]\n  9187: a2 = u32 [s1 + 0x330]\n  9191: u64 [s1 + 792] = 0\n  9195: u64 [a3 + 0x10] = a2\n  9198: u64 [a3 + 0x8] = a1\n  9201: a1 = s1 + 0x300\n  9205: u64 [a3] = a0\n  9207: a0 = 0\n  9209: ra = 350, jump @9\n      : @358 [@dyn 175] (gas: 7)\n  9215: u64 [s1 + 760] = 0\n  9219: u64 [s1 + 752] = 0\n  9223: u64 [s1 + 744] = 0\n  9227: a0 = 0x20\n  9230: a1 = s1 + 0x2e0\n  9234: u64 [s1 + 736] = 0\n  9238: ra = 352, jump @9\n      : @359 [@dyn 176] (gas: 6)\n  9244: a0 = sp + 0xffffffffffffffe0\n  9247: a0 = a0 & 0xffffffffffffffe0\n  9250: u64 [s1 + 0xf8] = a0\n  9254: sp = a0\n  9256: a1 = i32 [0x20170]\n  9261: jump @361 if a1 >u 63\n      : @360 (gas: 4)\n  9265: a1 = 0x40\n  9268: u32 [0x20170] = a1\n  9273: t0 = 0x162\n  9277: jump @1450\n      : @361 (gas: 1)\n  9280: t0 = 354, jump @1450\n      : @362 [@dyn 177] (gas: 8)\n  9286: a0 = 0x20180\n  9291: i32 a0 = a0 + 0\n  9293: i32 a2 = a2 + 0\n  9295: a1 = 0x40\n  9298: ra = 0x164\n  9302: ecalli 8 // 'hash_keccak_256'\n  9304: t0 = 0x166\n  9308: jump @1423\n      : @363 [@dyn 178] (gas: 1)\n  9311: t0 = 358, jump @1423\n      : @364 [@dyn 179] (gas: 7)\n  9317: a1 = u64 [s1 + 0xf8]\n  9321: u64 [a1 + 0x18] = a0\n  9324: u64 [a1 + 0x10] = a2\n  9327: u64 [a1 + 0x8] = a4\n  9330: u64 [a1] = a5\n  9332: a0 = s1 + 0x2c0\n  9336: ra = 360, jump @11\n      : @365 [@dyn 180] (gas: 16)\n  9342: a0 = u64 [s1 + 0x2d8]\n  9346: u64 [s1 + 0xf8] = a0\n  9350: a0 = u64 [s1 + 0x2d0]\n  9354: u64 [s1 + 0xf0] = a0\n  9358: a0 = u64 [s1 + 0x2c8]\n  9362: u64 [s1 + 0xe8] = a0\n  9366: a0 = u64 [s1 + 0x2c0]\n  9370: u64 [s1 + 0xe0] = a0\n  9374: a0 = u64 [s1 + 0x108]\n  9378: a0 = a0 + 0x1\n  9381: a1 = a0 <u 0x1\n  9384: a2 = u64 [s1 + 0x110]\n  9388: a1 = a1 + a2\n  9391: a2 = s1 + 0x20b8\n  9395: a3 = a2 + 0x400\n  9399: t0 = 362, jump @1442\n      : @366 [@dyn 181] (gas: 3)\n  9405: a0 = s1 + 0x2a0\n  9409: a1 = s1 + 0x2580\n  9413: ra = 364, jump @11\n      : @367 [@dyn 182] (gas: 9)\n  9419: a0 = u64 [s1 + 0x2b8]\n  9423: u64 [s1 + 0xd8] = a0\n  9427: a0 = u64 [s1 + 0x2b0]\n  9431: u64 [s1 + 0xd0] = a0\n  9435: a0 = u64 [s1 + 0x2a8]\n  9439: u64 [s1 + 0xc8] = a0\n  9443: a0 = u64 [s1 + 0x2a0]\n  9447: u64 [s1 + 0xc0] = a0\n  9451: t0 = 366, jump @1449\n      : @368 [@dyn 183] (gas: 14)\n  9457: a1 = u64 [s1 + 0x100]\n  9461: a3 = a3 + a1\n  9464: a1 = a3 <u a1\n  9467: a4 = u64 [s1 + 0x118]\n  9471: a1 = a1 + a4\n  9474: a4 = s1 + 0x20b8\n  9478: u64 [a4 + 0x500] = a1\n  9482: a1 = a4 + 0x400\n  9486: u64 [a1 + 0xf8] = a3\n  9490: u64 [a1 + 0xf0] = a2\n  9494: u64 [a1 + 0xe8] = a0\n  9498: a0 = s1 + 0x280\n  9502: a1 = s1 + 0x25a0\n  9506: ra = 368, jump @11\n      : @369 [@dyn 184] (gas: 30)\n  9512: a0 = u64 [s1 + 0x298]\n  9516: u64 [s1 + 0xb8] = a0\n  9520: a0 = u64 [s1 + 0x290]\n  9524: u64 [s1 + 0xb0] = a0\n  9528: a5 = s1 + 0x100\n  9532: a1 = u64 [a5 + 0x8]\n  9535: a0 = a1 + 0x3\n  9538: a1 = a0 <u a1\n  9541: a3 = u64 [a5 + 0x10]\n  9544: a2 = a3 + a1\n  9547: a3 = a2 <u a3\n  9550: a3 = a1 if a1 == 0\n  9553: a1 = u64 [s1 + 0x288]\n  9557: u64 [a5 + 0x8] = a1\n  9560: a1 = u64 [a5]\n  9562: a3 = a3 + a1\n  9565: a1 = a3 <u a1\n  9568: a4 = u64 [a5 + 0x18]\n  9571: a1 = a1 + a4\n  9574: a4 = u64 [s1 + 0x280]\n  9578: u64 [a5] = a4\n  9580: a4 = s1 + 0x20b8\n  9584: a5 = a4 + 0x500\n  9588: u64 [a5 + 0x20] = a1\n  9591: u64 [a5 + 0x18] = a3\n  9594: u64 [a5 + 0x10] = a2\n  9597: u64 [a5 + 0x8] = a0\n  9600: a0 = s1 + 0x260\n  9604: a1 = s1 + 0x25c0\n  9608: ra = 370, jump @11\n      : @370 [@dyn 185] (gas: 5)\n  9614: a0 = u64 [s1 + 0x260]\n  9618: u64 [s1 + 0xa8] = a0\n  9622: a0 = s1 + 0x240\n  9626: a1 = 0x40\n  9629: ra = 372, jump @7\n      : @371 [@dyn 186] (gas: 13)\n  9635: a0 = s1 + 0x200\n  9639: a4 = u64 [a0 + 0x58]\n  9642: a5 = u64 [a0 + 0x50]\n  9645: a3 = u64 [a0 + 0x48]\n  9648: a2 = u64 [a0 + 0x40]\n  9651: a0 = a3 | a4\n  9654: a1 = a2 | a5\n  9657: a1 = a1 | a0\n  9660: a1 = a1 >> 0x20\n  9663: a0 = a0 | a5\n  9666: a0 = a0 << 0x20\n  9669: a0 = a0 | a1\n  9672: jump @373 if a0 == 0\n      : @372 (gas: 1)\n  9675: jump @622\n      : @373 (gas: 15)\n  9678: a0 = u64 [s1 + 0xe0]\n  9682: u64 [s1 + 0x220] = a0\n  9686: a0 = u64 [s1 + 0xe8]\n  9690: u64 [s1 + 0x228] = a0\n  9694: a0 = u64 [s1 + 0xf0]\n  9698: u64 [s1 + 0x230] = a0\n  9702: a1 = s1 + 0x220\n  9706: a0 = u64 [s1 + 0xf8]\n  9710: u64 [s1 + 0x238] = a0\n  9714: a0 = a2\n  9716: u64 [s1 + 0x118] = a2\n  9720: u64 [s1 + 0x110] = a3\n  9724: u64 [s1 + 0xf8] = a4\n  9728: u64 [s1 + 0xf0] = a5\n  9732: ra = 374, jump @9\n      : @374 [@dyn 187] (gas: 11)\n  9738: a1 = u64 [s1 + 0x118]\n  9742: a0 = u64 [s1 + 0xf8]\n  9746: a3 = u64 [s1 + 0xf0]\n  9750: a3 = a3 | a0\n  9753: a4 = 0x100000000\n  9763: a0 = 0xffffffe0\n  9773: a0 = a1 <u a0\n  9776: a2 = u64 [s1 + 0x110]\n  9780: a0 = 0 if a2 != 0\n  9782: a0 = 0 if a3 != 0\n  9784: jump @376 if a0 != 0\n      : @375 (gas: 1)\n  9787: jump @622\n      : @376 (gas: 14)\n  9790: i32 a0 = a1 + 0x20\n  9793: a1 = u64 [s1 + 0xc0]\n  9797: a5 = s1 + 0x200\n  9801: u64 [a5] = a1\n  9803: a1 = u64 [s1 + 0xc8]\n  9807: u64 [a5 + 0x8] = a1\n  9810: a1 = u64 [s1 + 0xd0]\n  9814: u64 [a5 + 0x10] = a1\n  9817: a1 = s1 + 0x200\n  9821: a2 = u64 [s1 + 0xd8]\n  9825: u64 [a5 + 0x18] = a2\n  9828: u64 [s1 + 0xf8] = a3\n  9832: u64 [s1 + 0xf0] = a4\n  9836: ra = 376, jump @9\n      : @377 [@dyn 188] (gas: 9)\n  9842: a4 = u64 [s1 + 0xf8]\n  9846: a3 = u64 [s1 + 0x110]\n  9850: a1 = u64 [s1 + 0x118]\n  9854: a0 = u64 [s1 + 0xf0]\n  9858: a0 = a0 + 0xffffffffffffffc0\n  9861: a0 = a1 <u a0\n  9864: a0 = 0 if a3 != 0\n  9866: a0 = 0 if a4 != 0\n  9868: jump @379 if a0 != 0\n      : @378 (gas: 1)\n  9871: jump @622\n      : @379 (gas: 11)\n  9874: i32 a0 = a1 + 0x40\n  9877: a1 = u64 [s1 + 0x100]\n  9881: u64 [s1 + 0x1e0] = a1\n  9885: a1 = u64 [s1 + 0x108]\n  9889: u64 [s1 + 0x1e8] = a1\n  9893: a1 = u64 [s1 + 0xb0]\n  9897: u64 [s1 + 0x1f0] = a1\n  9901: a1 = s1 + 0x1e0\n  9905: a2 = u64 [s1 + 0xb8]\n  9909: u64 [s1 + 0x1f8] = a2\n  9913: ra = 378, jump @9\n      : @380 [@dyn 189] (gas: 8)\n  9919: a2 = u64 [s1 + 0x118]\n  9923: a0 = 0xffffffa0\n  9933: a0 = a2 <u a0\n  9936: a1 = u64 [s1 + 0x110]\n  9940: a0 = 0 if a1 != 0\n  9942: a1 = u64 [s1 + 0xf8]\n  9946: a0 = 0 if a1 != 0\n  9948: jump @382 if a0 != 0\n      : @381 (gas: 1)\n  9951: jump @622\n      : @382 (gas: 10)\n  9954: a0 = u64 [s1 + 0xa8]\n  9958: a0 = a0 << 0x20\n  9961: a1 = a0 >> 0x20\n  9964: i32 a0 = a2 + 0x60\n  9967: u64 [s1 + 472] = 0\n  9971: u64 [s1 + 464] = 0\n  9975: u64 [s1 + 0x1c0] = a1\n  9979: a1 = s1 + 0x1c0\n  9983: u64 [s1 + 456] = 0\n  9987: ra = 380, jump @9\n      : @383 [@dyn 190] (gas: 3)\n  9993: a1 = 0x80\n  9997: a0 = u64 [s1 + 0x118]\n 10001: ra = 382, jump @21\n      : @384 [@dyn 191] (gas: 5)\n 10007: i32 a1 = a0 + 0\n 10009: a2 = 0x80\n 10013: a0 = 0\n 10015: ecalli 13 // 'seal_return'\n 10017: jump @725\n      : @385 (gas: 8)\n 10020: u64 [a2 + 416] = 0\n 10024: u64 [a2 + 408] = 0\n 10028: u64 [a2 + 400] = 0\n 10032: u64 [a2 + 392] = 0\n 10036: a0 = s1 + 0x3000\n 10040: i32 a0 = a0 + 0xfffffffffffffa40\n 10044: ecalli 16 // 'value_transferred'\n 10046: fallthrough\n      : @386 (gas: 10)\n 10047: a3 = s1 + 0x28b8\n 10051: a4 = a3 + 0x100\n 10055: a0 = u64 [a4 + 0x98]\n 10059: a1 = u64 [a4 + 0xa0]\n 10063: a2 = u64 [a4 + 0x90]\n 10067: a3 = u64 [a4 + 0x88]\n 10071: a1 = a1 | a2\n 10074: a0 = a0 | a3\n 10077: a0 = a0 | a1\n 10080: jump @388 if a0 == 0\n      : @387 (gas: 1)\n 10083: jump @686\n      : @388 (gas: 3)\n 10086: a0 = u64 [s1 + 0x118]\n 10090: a0 = i32 [a0]\n 10092: jump @390 if a0 >u 67\n      : @389 (gas: 1)\n 10096: jump @687\n      : @390 (gas: 4)\n 10099: a0 = s1 + 0x17a0\n 10103: ra = 0x180\n 10107: t0 = 0x57c\n 10111: jump @1462\n      : @391 [@dyn 192] (gas: 13)\n 10114: a0 = s1 + 0x10b8\n 10118: a2 = a0 + 0x600\n 10122: a1 = u64 [a2 + 0xf8]\n 10126: u64 [s1 + 0xe8] = a1\n 10130: a1 = u64 [a2 + 0xf0]\n 10134: u64 [s1 + 0xf8] = a1\n 10138: a0 = u64 [a2 + 0xe8]\n 10142: u64 [s1 + 0xf0] = a0\n 10146: a0 = s1 + 0x3000\n 10150: i32 a0 = a0 + 0xfffffffffffffa60\n 10154: a1 = 0x24\n 10157: ecalli 2 // 'call_data_load'\n 10159: fallthrough\n      : @392 (gas: 19)\n 10160: a0 = s1 + 0x28b8\n 10164: a5 = a0 + 0x100\n 10168: a4 = u64 [a5 + 0xc0]\n 10172: a3 = u64 [a5 + 0xb8]\n 10176: a2 = u64 [a5 + 0xb0]\n 10180: a1 = u64 [a5 + 0xa8]\n 10184: a5 = s1 + 0x100\n 10188: u64 [a5 + 0x10] = a2\n 10191: u64 [a5] = a4\n 10193: a0 = a2 | a4\n 10196: u64 [a5 + 0x18] = a1\n 10199: a1 = a1 | a3\n 10202: a1 = a1 | a0\n 10205: a1 = a1 >> 0x20\n 10208: u64 [a5 + 0x8] = a3\n 10211: a0 = a0 | a3\n 10214: a0 = a0 << 0x20\n 10217: a0 = a0 | a1\n 10220: jump @394 if a0 == 0\n      : @393 (gas: 1)\n 10223: jump @688\n      : @394 (gas: 14)\n 10226: a0 = u64 [s1 + 0xe8]\n 10230: a0 = a0 << 0x20\n 10233: a0 = a0 >> 0x20\n 10236: a2 = s1 + 0x10b8\n 10240: u64 [a2 + 1760] = 0\n 10244: a1 = u64 [s1 + 0xf0]\n 10248: a3 = a2 + 0x600\n 10252: u64 [a3 + 0xc8] = a1\n 10256: a1 = u64 [s1 + 0xf8]\n 10260: u64 [a3 + 0xd0] = a1\n 10264: a1 = s1 + 0x1780\n 10268: u64 [a3 + 0xd8] = a0\n 10272: a0 = 0\n 10274: ra = 386, jump @9\n      : @395 [@dyn 193] (gas: 3)\n 10280: t0 = 0x184\n 10284: a1 = s1 + 0x10b8\n 10288: fallthrough\n      : @396 [@dyn 194] (gas: 8)\n 10289: u64 [a1 + 1728] = 0\n 10293: u64 [a1 + 1720] = 0\n 10297: u64 [a1 + 1704] = 0x1\n 10302: a2 = a1\n 10304: a0 = 0x20\n 10307: a1 = s1 + 0x1760\n 10311: u64 [a2 + 1712] = 0\n 10315: ra = 390, jump @9\n      : @397 [@dyn 195] (gas: 3)\n 10321: a1 = 0x20170\n 10326: a0 = i32 [0x20170]\n 10331: jump @399 if a0 >u 63\n      : @398 (gas: 2)\n 10335: u32 [0x20170] = 0x40\n 10341: fallthrough\n      : @399 (gas: 15)\n 10342: a0 = sp + 0xffffffffffffffe0\n 10345: a2 = a0 & 0xffffffffffffffe0\n 10348: u64 [s1 + 0xe8] = a2\n 10352: sp = a2\n 10354: a0 = 0x20180\n 10359: i32 a0 = a0 + 0\n 10361: i32 a2 = a2 + 0\n 10363: u64 [s1 + 0xf8] = a1\n 10367: a1 = 0x40\n 10370: u64 [s1 + 0xf0] = a0\n 10374: ra = 0x188\n 10378: ecalli 8 // 'hash_keccak_256'\n 10380: a3 = u64 [s1 + 0xe8]\n 10384: t0 = 0x18a\n 10388: jump @1463\n      : @400 [@dyn 196] (gas: 2)\n 10391: a3 = u64 [s1 + 0xe8]\n 10395: t0 = 394, jump @1463\n      : @401 [@dyn 197] (gas: 14)\n 10401: u64 [s1 + 0xe0] = a0\n 10405: a0 = reverse a1\n 10407: u64 [s1 + 0xd8] = a0\n 10411: a0 = reverse a2\n 10413: u64 [s1 + 0xd0] = a0\n 10417: a0 = reverse a3\n 10419: u64 [s1 + 0xc8] = a0\n 10423: a0 = sp + 0xffffffffffffffe0\n 10426: a0 = a0 & 0xffffffffffffffe0\n 10429: u64 [s1 + 0xe8] = a0\n 10433: sp = a0\n 10435: t0 = 0x18c\n 10439: a2 = s1 + 0x10b8\n 10443: fallthrough\n      : @402 [@dyn 198] (gas: 13)\n 10444: a3 = s1 + 0x100\n 10448: a0 = u64 [a3]\n 10450: a4 = a2 + 0x600\n 10454: u64 [a4 + 0xa0] = a0\n 10458: a0 = u64 [a3 + 0x8]\n 10461: u64 [a4 + 0x98] = a0\n 10465: a0 = u64 [a3 + 0x10]\n 10468: u64 [a4 + 0x90] = a0\n 10472: a1 = s1 + 0x1740\n 10476: a0 = u64 [a3 + 0x18]\n 10479: u64 [a4 + 0x88] = a0\n 10483: a0 = 0\n 10485: ra = 398, jump @9\n      : @403 [@dyn 199] (gas: 3)\n 10491: t0 = 0x190\n 10495: a1 = s1 + 0x10b8\n 10499: fallthrough\n      : @404 [@dyn 200] (gas: 13)\n 10500: a0 = u64 [s1 + 0xc8]\n 10504: a2 = a1 + 0x600\n 10508: u64 [a2 + 0x80] = a0\n 10512: a0 = u64 [s1 + 0xd0]\n 10516: u64 [a2 + 0x78] = a0\n 10519: a0 = u64 [s1 + 0xd8]\n 10523: u64 [a2 + 0x70] = a0\n 10526: a3 = a1\n 10528: a0 = 0x20\n 10531: a1 = s1 + 0x1720\n 10535: a2 = u64 [s1 + 0xe0]\n 10539: u64 [a3 + 0x668] = a2\n 10543: ra = 402, jump @9\n      : @405 [@dyn 201] (gas: 3)\n 10549: a1 = u64 [s1 + 0xf8]\n 10553: a0 = i32 [a1]\n 10555: jump @407 if a0 >u 63\n      : @406 (gas: 3)\n 10559: u32 [a1 + 0] = 0x40\n 10562: t0 = 0x194\n 10566: jump @1464\n      : @407 (gas: 1)\n 10569: t0 = 404, jump @1464\n      : @408 [@dyn 202] (gas: 5)\n 10575: a0 = u64 [s1 + 0xf0]\n 10579: ra = 0x196\n 10583: ecalli 8 // 'hash_keccak_256'\n 10585: t0 = 0x198\n 10589: jump @1423\n      : @409 [@dyn 203] (gas: 1)\n 10592: t0 = 408, jump @1423\n      : @410 [@dyn 204] (gas: 7)\n 10598: a1 = u64 [s1 + 0xe8]\n 10602: u64 [a1 + 0x18] = a0\n 10605: u64 [a1 + 0x10] = a2\n 10608: u64 [a1 + 0x8] = a4\n 10611: u64 [a1] = a5\n 10613: a0 = s1 + 0x1700\n 10617: ra = 410, jump @11\n      : @411 [@dyn 205] (gas: 16)\n 10623: a1 = s1 + 0x10b8\n 10627: a2 = a1 + 0x600\n 10631: a0 = u64 [a2 + 0x58]\n 10634: u64 [s1 + 0xf0] = a0\n 10638: a0 = u64 [a2 + 0x50]\n 10641: u64 [s1 + 0xe8] = a0\n 10645: a0 = u64 [a2 + 0x48]\n 10648: u64 [s1 + 0xf8] = a0\n 10652: a0 = u64 [s1 + 0x108]\n 10656: a0 = a0 + 0x1\n 10659: a1 = a0 <u 0x1\n 10662: a2 = u64 [s1 + 0x110]\n 10666: a1 = a1 + a2\n 10669: a2 = s1 + 0x28b8\n 10673: a3 = a2 + 0x100\n 10677: t0 = 412, jump @1442\n      : @412 [@dyn 206] (gas: 3)\n 10683: a0 = s1 + 0x16e0\n 10687: a1 = s1 + 0x2a80\n 10691: ra = 414, jump @11\n      : @413 [@dyn 207] (gas: 6)\n 10697: a5 = s1 + 0x10b8\n 10701: a0 = u64 [a5 + 0x640]\n 10705: u64 [s1 + 0xe0] = a0\n 10709: a0 = u64 [a5 + 0x638]\n 10713: u64 [s1 + 0xd8] = a0\n 10717: t0 = 416, jump @1449\n      : @414 [@dyn 208] (gas: 18)\n 10723: a1 = u64 [a5 + 0x630]\n 10727: u64 [s1 + 0x108] = a1\n 10731: a1 = u64 [s1 + 0x100]\n 10735: a3 = a3 + a1\n 10738: a1 = a3 <u a1\n 10741: a4 = u64 [s1 + 0x118]\n 10745: a1 = a1 + a4\n 10748: a4 = u64 [a5 + 0x628]\n 10752: u64 [s1 + 0x100] = a4\n 10756: a4 = s1 + 0x28b8\n 10760: u64 [a4 + 0x200] = a1\n 10764: a1 = a4 + 0x100\n 10768: u64 [a1 + 0xf8] = a3\n 10772: u64 [a1 + 0xf0] = a2\n 10776: u64 [a1 + 0xe8] = a0\n 10780: a0 = s1 + 0x16c0\n 10784: a1 = s1 + 0x2aa0\n 10788: ra = 418, jump @11\n      : @415 [@dyn 209] (gas: 3)\n 10794: t0 = 0x1a4\n 10798: a1 = s1 + 0x10b8\n 10802: fallthrough\n      : @416 [@dyn 210] (gas: 7)\n 10803: a0 = u64 [a1 + 0x610]\n 10807: u64 [s1 + 0xc8] = a0\n 10811: a0 = u64 [a1 + 0x608]\n 10815: u64 [s1 + 0xd0] = a0\n 10819: a0 = s1 + 0x16a0\n 10823: a1 = 0x40\n 10826: ra = 422, jump @7\n      : @417 [@dyn 211] (gas: 2)\n 10832: a2 = s1 + 0x10b8\n 10836: fallthrough\n      : @418 (gas: 13)\n 10837: t0 = u64 [a2 + 0x600]\n 10841: a1 = a2 + 0x500\n 10845: a5 = u64 [a1 + 0xf8]\n 10849: a4 = u64 [a1 + 0xf0]\n 10853: a0 = u64 [a1 + 0xe8]\n 10857: a3 = a4 | t0\n 10860: a1 = a0 | a5\n 10863: a1 = a1 | a3\n 10866: a1 = a1 >> 0x20\n 10869: a3 = a3 | a5\n 10872: a3 = a3 << 0x20\n 10875: a1 = a1 | a3\n 10878: jump @420 if a1 == 0\n      : @419 (gas: 1)\n 10881: jump @622\n      : @420 (gas: 13)\n 10884: a1 = u64 [s1 + 0xf8]\n 10888: a1 = a1 << 0x20\n 10891: a3 = a1 >> 0x20\n 10894: u64 [a2 + 1504] = 0\n 10898: u64 [a2 + 1496] = 0\n 10902: u64 [a2 + 1488] = 0\n 10906: a1 = s1 + 0x1680\n 10910: u64 [a2 + 0x5c8] = a3\n 10914: u64 [s1 + 0x118] = a0\n 10918: u64 [s1 + 0x110] = a4\n 10922: u64 [s1 + 0xb8] = t0\n 10926: u64 [s1 + 0xc0] = a5\n 10930: ra = 424, jump @9\n      : @421 [@dyn 212] (gas: 11)\n 10936: a5 = u64 [s1 + 0x118]\n 10940: a0 = u64 [s1 + 0xc0]\n 10944: a3 = u64 [s1 + 0xb8]\n 10948: a3 = a3 | a0\n 10951: a2 = 0x100000000\n 10961: a0 = 0xffffffe0\n 10971: a0 = a5 <u a0\n 10974: a1 = u64 [s1 + 0x110]\n 10978: a0 = 0 if a1 != 0\n 10980: a0 = 0 if a3 != 0\n 10982: jump @423 if a0 != 0\n      : @422 (gas: 1)\n 10985: jump @622\n      : @423 (gas: 26)\n 10988: t0 = 0xffffffffffffffff\n 10991: a1 = 0xffffffff\n 11001: u64 [s1 + 0xb8] = a2\n 11005: a2 = u64 [s1 + 0xf8]\n 11009: a2 = a2 >> 0x20\n 11012: a0 = u64 [s1 + 0xe8]\n 11016: u64 [s1 + 0xc0] = a3\n 11020: a3 = a0 << 0x20\n 11023: a2 = a2 | a3\n 11026: a3 = a0 >> 0x20\n 11029: a0 = u64 [s1 + 0xf0]\n 11033: a4 = a0 << 0x20\n 11036: a3 = a3 | a4\n 11039: a4 = a0 >> 0x20\n 11042: a3 = a3 & t0\n 11045: a2 = a2 & t0\n 11048: a1 = a1 & a4\n 11051: i32 a0 = a5 + 0x20\n 11054: a4 = s1 + 0x10b8\n 11058: u64 [a4 + 1472] = 0\n 11062: a5 = a4 + 0x500\n 11066: u64 [a5 + 0xb8] = a1\n 11070: u64 [a5 + 0xa8] = a2\n 11074: a1 = s1 + 0x1660\n 11078: u64 [a5 + 0xb0] = a3\n 11082: ra = 426, jump @9\n      : @424 [@dyn 213] (gas: 9)\n 11088: a1 = u64 [s1 + 0x118]\n 11092: a0 = u64 [s1 + 0xb8]\n 11096: a0 = a0 + 0xffffffffffffffc0\n 11099: a0 = a1 <u a0\n 11102: a2 = u64 [s1 + 0x110]\n 11106: a0 = 0 if a2 != 0\n 11108: a2 = u64 [s1 + 0xc0]\n 11112: a0 = 0 if a2 != 0\n 11114: jump @426 if a0 != 0\n      : @425 (gas: 1)\n 11117: jump @622\n      : @426 (gas: 13)\n 11120: i32 a0 = a1 + 0x40\n 11123: a3 = s1 + 0x10b8\n 11127: a1 = u64 [s1 + 0x100]\n 11131: a4 = a3 + 0x500\n 11135: u64 [a4 + 0x88] = a1\n 11139: a1 = u64 [s1 + 0x108]\n 11143: u64 [a4 + 0x90] = a1\n 11147: a1 = u64 [s1 + 0xd8]\n 11151: u64 [a4 + 0x98] = a1\n 11155: a1 = s1 + 0x1640\n 11159: a2 = u64 [s1 + 0xe0]\n 11163: u64 [a4 + 0xa0] = a2\n 11167: ra = 428, jump @9\n      : @427 [@dyn 214] (gas: 9)\n 11173: a3 = u64 [s1 + 0xc0]\n 11177: a2 = u64 [s1 + 0x110]\n 11181: a1 = u64 [s1 + 0x118]\n 11185: a4 = 0x100000000\n 11195: a0 = 0xffffffa0\n 11205: a0 = a1 <u a0\n 11208: a0 = 0 if a2 != 0\n 11210: a0 = 0 if a3 != 0\n 11212: jump @429 if a0 != 0\n      : @428 (gas: 1)\n 11215: jump @622\n      : @429 (gas: 10)\n 11218: i32 a0 = a1 + 0x60\n 11221: a3 = s1 + 0x10b8\n 11225: u64 [a3 + 1408] = 0\n 11229: u64 [a3 + 1400] = 0\n 11233: a1 = u64 [s1 + 0xd0]\n 11237: u64 [a3 + 0x568] = a1\n 11241: a1 = s1 + 0x1620\n 11245: u64 [a3 + 1392] = 0\n 11249: u64 [s1 + 0x108] = a4\n 11253: ra = 430, jump @9\n      : @430 [@dyn 215] (gas: 10)\n 11259: a3 = s1 + 0x100\n 11263: a2 = u64 [a3 + 0x18]\n 11266: a0 = u64 [a3 + 0x8]\n 11269: a0 = a0 + 0xffffffffffffff80\n 11272: a0 = a2 <u a0\n 11275: a1 = u64 [a3 + 0x10]\n 11278: a0 = 0 if a1 != 0\n 11280: a1 = u64 [s1 + 0xc0]\n 11284: a0 = 0 if a1 != 0\n 11286: jump @432 if a0 != 0\n      : @431 (gas: 1)\n 11289: jump @622\n      : @432 (gas: 10)\n 11292: a0 = u8 [s1 + 0xc8]\n 11296: a1 = a0 >u 0\n 11298: i32 a0 = a2 + 0x80\n 11302: a3 = s1 + 0x10b8\n 11306: u64 [a3 + 1376] = 0\n 11310: u64 [a3 + 1368] = 0\n 11314: u64 [a3 + 0x548] = a1\n 11318: a1 = s1 + 0x1600\n 11322: u64 [a3 + 1360] = 0\n 11326: ra = 432, jump @9\n      : @433 [@dyn 216] (gas: 3)\n 11332: a1 = 0xa0\n 11336: a0 = u64 [s1 + 0x118]\n 11340: ra = 434, jump @21\n      : @434 [@dyn 217] (gas: 5)\n 11346: i32 a1 = a0 + 0\n 11348: a2 = 0xa0\n 11352: a0 = 0\n 11354: ecalli 13 // 'seal_return'\n 11356: jump @725\n      : @435 (gas: 1)\n 11359: jump @437 if a0 == 1641031603\n      : @436 (gas: 1)\n 11366: jump @701\n      : @437 (gas: 8)\n 11369: u64 [a2 + 224] = 0\n 11373: u64 [a2 + 216] = 0\n 11377: u64 [a2 + 208] = 0\n 11381: u64 [a2 + 200] = 0\n 11385: a0 = s1 + 0x3000\n 11389: i32 a0 = a0 + 0xfffffffffffff980\n 11393: ecalli 16 // 'value_transferred'\n 11395: fallthrough\n      : @438 (gas: 9)\n 11396: a3 = s1 + 0x28b8\n 11400: a0 = u64 [a3 + 0xd8]\n 11404: a1 = u64 [a3 + 0xe0]\n 11408: a2 = u64 [a3 + 0xd0]\n 11412: a3 = u64 [a3 + 0xc8]\n 11416: a1 = a1 | a2\n 11419: a0 = a0 | a3\n 11422: a0 = a0 | a1\n 11425: jump @440 if a0 == 0\n      : @439 (gas: 1)\n 11428: jump @707\n      : @440 (gas: 3)\n 11431: a0 = u64 [s1 + 0x118]\n 11435: a0 = i32 [a0]\n 11437: jump @442 if a0 >u 3\n      : @441 (gas: 1)\n 11441: jump @708\n      : @442 (gas: 3)\n 11444: a0 = s1 + 0x1320\n 11448: a1 = 0x40\n 11451: ra = 436, jump @7\n      : @443 [@dyn 218] (gas: 11)\n 11457: a0 = s1 + 0x10b8\n 11461: a2 = a0 + 0x200\n 11465: a1 = u64 [a2 + 0x80]\n 11469: u64 [s1 + 0x118] = a1\n 11473: a1 = u64 [a2 + 0x78]\n 11476: u64 [s1 + 0x110] = a1\n 11480: a1 = u64 [a2 + 0x70]\n 11483: u64 [s1 + 0x100] = a1\n 11487: a0 = u64 [a2 + 0x68]\n 11490: u64 [s1 + 0x108] = a0\n 11494: ra = 438, jump @0\n      : @444 [@dyn 219] (gas: 14)\n 11500: a4 = s1 + 0x100\n 11504: a0 = u64 [a4 + 0x18]\n 11507: a1 = u64 [a4]\n 11509: a0 = a0 | a1\n 11512: a1 = u64 [a4 + 0x8]\n 11515: a3 = a1\n 11517: a2 = u64 [a4 + 0x10]\n 11520: a1 = a1 | a2\n 11523: a1 = a1 | a0\n 11526: a1 = a1 >> 0x20\n 11529: a0 = a0 | a2\n 11532: a0 = a0 << 0x20\n 11535: a0 = a0 | a1\n 11538: jump @446 if a0 == 0\n      : @445 (gas: 1)\n 11541: jump @622\n      : @446 (gas: 12)\n 11544: a2 = u64 [0x301a0]\n 11549: a1 = u64 [0x301a8]\n 11554: a0 = u32 [0x301b0]\n 11559: a4 = s1 + 0x10b8\n 11563: u64 [a4 + 608] = 0\n 11567: a5 = a4 + 0x200\n 11571: u64 [a5 + 0x58] = a0\n 11574: u64 [a5 + 0x50] = a1\n 11577: a1 = s1 + 0x1300\n 11581: u64 [a5 + 0x48] = a2\n 11584: a0 = a3\n 11586: ra = 440, jump @9\n      : @447 [@dyn 220] (gas: 4)\n 11592: a1 = 0x20\n 11595: a0 = u64 [s1 + 0x108]\n 11599: ra = 0x2ec\n 11603: jump @21\n      : @448 (gas: 19)\n 11606: a0 = u64 [s1 + 0x118]\n 11610: a2 = u64 [s1 + 0xa8]\n 11614: a0 = a0 | a2\n 11617: a2 = u64 [s1 + 0x38]\n 11620: a0 = a2 if a4 == 0\n 11623: t1 = u64 [s1 + 0xc0]\n 11627: a3 = t1\n 11629: t0 = u64 [s1 + 0xe8]\n 11633: a3 = a0 if t0 != 0\n 11636: u64 [s1 + 0x118] = a3\n 11640: a0 = u64 [s1 + 0xe0]\n 11644: a2 = u64 [s1 + 0xb0]\n 11648: a0 = a0 | a2\n 11651: a2 = u64 [s1 + 0x40]\n 11654: a0 = a2 if a4 == 0\n 11657: a5 = u64 [s1 + 0xd8]\n 11661: a3 = a5\n 11663: a3 = a0 if t0 != 0\n 11666: t0 = 442, jump @1444\n      : @449 [@dyn 221] (gas: 1)\n 11672: ra = 444, jump @1482\n      : @450 [@dyn 222] (gas: 6)\n 11678: u64 [s1 + 0xb0] = a0\n 11682: u64 [s1 + 0x40] = a1\n 11685: a0 = u64 [s1 + 0xd0]\n 11689: a1 = u64 [s1 + 0xc8]\n 11693: a2 = u64 [s1 + 0x110]\n 11697: ra = 446, jump @1482\n      : @451 [@dyn 223] (gas: 7)\n 11703: u64 [s1 + 0x38] = a0\n 11706: u64 [s1 + 0xa8] = a1\n 11710: a1 = u64 [s1 + 0x110]\n 11714: a2 = 0x80 - a1\n 11718: a0 = u64 [s1 + 0xd8]\n 11722: a1 = u64 [s1 + 0xc0]\n 11726: ra = 448, jump @1487\n      : @452 [@dyn 224] (gas: 21)\n 11732: a2 = u64 [s1 + 0xa8]\n 11736: a1 = a1 | a2\n 11739: a3 = u64 [s1 + 0x110]\n 11743: a4 = a3 <u 0x80\n 11747: u64 [s1 + 0xa8] = a4\n 11751: a2 = u64 [s1 + 0x40]\n 11754: a1 = a2 if a4 == 0\n 11757: a2 = u64 [s1 + 0xc8]\n 11761: a2 = a1 if a3 != 0\n 11764: u64 [s1 + 0xc8] = a2\n 11768: a1 = u64 [s1 + 0x38]\n 11771: a0 = a0 | a1\n 11774: a1 = u64 [s1 + 0xb0]\n 11778: a0 = a1 if a4 == 0\n 11781: a1 = u64 [s1 + 0xd0]\n 11785: a1 = a0 if a3 != 0\n 11788: a2 = a3\n 11790: u64 [s1 + 0xd0] = a1\n 11794: a0 = u64 [s1 + 0xd8]\n 11798: a1 = u64 [s1 + 0xc0]\n 11802: ra = 450, jump @1482\n      : @453 [@dyn 225] (gas: 3)\n 11808: a5 = 0\n 11810: ra = 0\n 11812: t0 = 452, jump @1452\n      : @454 [@dyn 226] (gas: 3)\n 11818: t1 = u64 [s1 + 0xc8]\n 11822: t2 = u64 [s1 + 0xd0]\n 11826: fallthrough\n      : @455 (gas: 88)\n 11827: u64 [s1 + 0xd8] = a5\n 11831: a2 = t2 >> 0x3f\n 11834: a3 = t1 << 0x1\n 11837: a5 = a3 | a2\n 11840: a3 = t2 << 0x1\n 11843: a4 = u64 [s1 + 0x118]\n 11847: a4 = a4 >> 0x3f\n 11850: a3 = a3 | a4\n 11853: u64 [s1 + 0xc8] = a3\n 11857: a2 = u64 [s1 + 0xa8]\n 11861: u64 [s1 + 0xd0] = a5\n 11865: t2 = t1\n 11867: t1 = a2 ^ a5\n 11870: t0 = a2 <u a5\n 11873: a4 = u64 [s1 + 0xb0]\n 11877: a5 = a4 <u a3\n 11880: a5 = t0 if t1 != 0\n 11883: a1 = a1 << 0x1\n 11886: a3 = a0 >> 0x3f\n 11889: a1 = a1 | a3\n 11892: u64 [s1 + 0xc0] = a1\n 11896: a3 = t2 >> 0x3f\n 11899: a0 = a0 << 0x1\n 11902: a3 = a3 | a0\n 11905: a0 = u64 [s1 + 0x118]\n 11909: a0 = a0 << 0x1\n 11912: a4 = u64 [s1 + 0xe0]\n 11916: a1 = a4 >> 0x3f\n 11919: t0 = a0 | a1\n 11922: a1 = a4 << 0x1\n 11925: a4 = u64 [s1 + 0xe8]\n 11929: t1 = a4 >> 0x3f\n 11932: t1 = a1 | t1\n 11935: a1 = a4 << 0x1\n 11938: a4 = u64 [s1 + 0x108]\n 11942: t2 = a4 >> 0x3f\n 11945: a1 = a1 | t2\n 11948: a4 = a4 << 0x1\n 11951: a0 = u64 [s1 + 0xd8]\n 11955: a4 = a4 | a0\n 11958: u64 [s1 + 0x108] = a4\n 11962: a1 = ra | a1\n 11965: u64 [s1 + 0xe8] = a1\n 11969: a1 = ra | t1\n 11972: u64 [s1 + 0xe0] = a1\n 11976: a0 = ra | t0\n 11979: u64 [s1 + 0x118] = a0\n 11983: a0 = a2 - a3\n 11986: a0 = a0 <u a5\n 11989: a1 = a2 <u a3\n 11992: t0 = u64 [s1 + 0xc0]\n 11996: a4 = a2 - t0\n 11999: a4 = a4 - a1\n 12002: a4 = a4 - a0\n 12005: a5 = a4 >>a 0x3f\n 12008: a0 = u64 [s1 + 0xb8]\n 12012: a0 = a0 & a5\n 12015: a1 = u64 [s1 + 0xc8]\n 12019: t2 = a1 - a0\n 12022: a1 = a1 <u a0\n 12025: a0 = u64 [s1 + 0xd0]\n 12029: t1 = a0 - a1\n 12032: a1 = 0 if a0 != 0\n 12034: a0 = a3 - a1\n 12037: a1 = a3 <u a1\n 12040: a1 = t0 - a1\n 12043: a3 = u64 [s1 + 0x110]\n 12047: ra = u64 [s1 + 0x100]\n 12051: a2 = a3 | ra\n 12054: a2 = a2 <u 0x1\n 12057: a4 = u64 [s1 + 0xf0]\n 12061: t0 = a4 <u a2\n 12064: a2 = a4 - a2\n 12067: a4 = a3 <u 0x1\n 12070: ra = ra - a4\n 12073: a4 = u64 [s1 + 0xf8]\n 12077: a4 = a4 - t0\n 12080: a3 = a3 + 0xffffffffffffffff\n 12083: u64 [s1 + 0x100] = ra\n 12087: u64 [s1 + 0xf8] = a4\n 12091: t0 = ra | a4\n 12094: u64 [s1 + 0x110] = a3\n 12098: a4 = a3 | a2\n 12101: a3 = a4 | t0\n 12104: a5 = a5 & 0x1\n 12107: u64 [s1 + 0xf0] = a2\n 12111: ra = 0\n 12113: jump @455 if a3 != 0\n      : @456 (gas: 4)\n 12117: a0 = u64 [s1 + 0x108]\n 12121: a0 = a0 << 0x1\n 12124: ra = a5 | a0\n 12127: fallthrough\n      : @457 (gas: 4)\n 12128: u64 [s1 + 0xf0] = ra\n 12132: a0 = s1 + 0x2440\n 12136: a1 = 0x40\n 12139: ra = 454, jump @7\n      : @458 [@dyn 227] (gas: 18)\n 12145: t0 = s1 + 0x20b8\n 12149: t1 = u64 [t0 + 0x3a0]\n 12153: a0 = t0 + 0x300\n 12157: a5 = u64 [a0 + 0x98]\n 12161: a3 = u64 [a0 + 0x90]\n 12165: a4 = u64 [a0 + 0x88]\n 12169: a0 = t1 >u 0\n 12171: a1 = a5 >u 0\n 12173: a1 = a0 if t1 != 0\n 12176: a0 = a3 >u 0\n 12178: a2 = a4 <u 0xffffffffffffff60\n 12182: a2 = a2 ^ 0x1\n 12185: u64 [s1 + 0x118] = a3\n 12189: a2 = a0 if a3 != 0\n 12192: a0 = a5 | t1\n 12195: u64 [s1 + 0xf8] = a0\n 12199: a2 = a1 if a0 != 0\n 12202: jump @460 if a2 == 0\n      : @459 (gas: 1)\n 12205: jump @689\n      : @460 (gas: 20)\n 12208: t2 = a4 + 0xa0\n 12212: a1 = t2 <u a4\n 12215: a2 = u64 [s1 + 0x118]\n 12219: a0 = a2 + a1\n 12222: a3 = a0 <u a2\n 12225: a3 = a1 if a1 == 0\n 12228: a3 = a3 + a5\n 12231: a1 = a3 <u a5\n 12234: u64 [s1 + 0x110] = a4\n 12238: a4 = t1 + a1\n 12241: u64 [t0 + 0x368] = t2\n 12245: a2 = t0 + 0x300\n 12249: u64 [a2 + 0x70] = a0\n 12252: u64 [a2 + 0x78] = a3\n 12255: a0 = 0x40\n 12258: a1 = s1 + 0x2420\n 12262: u64 [a2 + 0x80] = a4\n 12266: u64 [s1 + 0x100] = a5\n 12270: u64 [s1 + 0x108] = t1\n 12274: ra = 456, jump @9\n      : @461 [@dyn 228] (gas: 13)\n 12280: a5 = s1 + 0x100\n 12284: a2 = u64 [a5 + 0x10]\n 12287: a3 = u64 [a5]\n 12289: a0 = a2 | a3\n 12292: a1 = u64 [a5 + 0x18]\n 12295: a4 = u64 [a5 + 0x8]\n 12298: a1 = a1 | a4\n 12301: a0 = a0 | a1\n 12304: a0 = a0 >> 0x20\n 12307: a1 = a1 | a3\n 12310: a1 = a1 << 0x20\n 12313: a0 = a0 | a1\n 12316: jump @463 if a0 == 0\n      : @462 (gas: 1)\n 12319: jump @622\n      : @463 (gas: 3)\n 12322: t0 = 0x1ca\n 12326: a3 = s1 + 0x20b8\n 12330: fallthrough\n      : @464 [@dyn 229] (gas: 11)\n 12331: u64 [a3 + 864] = 0\n 12335: a0 = u64 [s1 + 0x98]\n 12339: a4 = a3 + 0x300\n 12343: u64 [a4 + 0x48] = a0\n 12346: a0 = u64 [s1 + 0x90]\n 12350: u64 [a4 + 0x50] = a0\n 12353: a1 = s1 + 0x2400\n 12357: a0 = u64 [s1 + 0xa0]\n 12361: u64 [a4 + 0x58] = a0\n 12364: a0 = a2\n 12366: ra = 460, jump @9\n      : @465 [@dyn 230] (gas: 3)\n 12372: a0 = u64 [s1 + 0x78]\n 12375: ecalli 4 // 'caller'\n 12377: fallthrough\n      : @466 (gas: 9)\n 12378: a4 = u64 [s1 + 0x110]\n 12382: a2 = 0x100000000\n 12392: a0 = 0xffffffe0\n 12402: a0 = a4 <u a0\n 12405: a1 = u64 [s1 + 0x118]\n 12409: a0 = 0 if a1 != 0\n 12411: a1 = u64 [s1 + 0xf8]\n 12415: a0 = 0 if a1 != 0\n 12417: jump @468 if a0 != 0\n      : @467 (gas: 1)\n 12420: jump @622\n      : @468 (gas: 25)\n 12423: u64 [s1 + 0x108] = a2\n 12427: a2 = u64 [s1 + 0x88]\n 12431: a0 = u64 [a2 + 0x8]\n 12434: a1 = i32 [a2 + 0x10]\n 12437: a2 = u64 [a2]\n 12439: a0 = reverse a0\n 12441: a3 = a0 << 0x20\n 12444: a1 = reverse a1\n 12446: a1 = a1 >> 0x20\n 12449: a3 = a3 | a1\n 12452: a0 = a0 >> 0x20\n 12455: a1 = reverse a2\n 12457: a2 = a1 << 0x20\n 12460: a2 = a2 | a0\n 12463: a1 = a1 >> 0x20\n 12466: i32 a0 = a4 + 0x20\n 12469: a4 = s1 + 0x20b8\n 12473: u64 [a4 + 832] = 0\n 12477: a5 = a4 + 0x300\n 12481: u64 [a5 + 0x38] = a1\n 12484: u64 [a5 + 0x30] = a2\n 12487: a1 = s1 + 0x23e0\n 12491: u64 [a5 + 0x28] = a3\n 12494: u64 [s1 + 0x100] = a0\n 12498: ra = 462, jump @9\n      : @469 [@dyn 231] (gas: 10)\n 12504: a3 = s1 + 0x100\n 12508: a1 = u64 [a3 + 0x10]\n 12511: a0 = u64 [a3 + 0x8]\n 12514: a0 = a0 + 0xffffffffffffffc0\n 12517: a0 = a1 <u a0\n 12520: a2 = u64 [a3 + 0x18]\n 12523: a0 = 0 if a2 != 0\n 12525: a2 = u64 [s1 + 0xf8]\n 12529: a0 = 0 if a2 != 0\n 12531: jump @471 if a0 != 0\n      : @470 (gas: 1)\n 12534: jump @622\n      : @471 (gas: 15)\n 12537: i32 a2 = a1 + 0x40\n 12540: a0 = u64 [s1 + 0x58]\n 12543: a3 = s1 + 0x20b8\n 12547: a4 = a3 + 0x300\n 12551: u64 [a4 + 0x8] = a0\n 12554: a0 = u64 [s1 + 0x60]\n 12557: u64 [a4 + 0x10] = a0\n 12560: a0 = u64 [s1 + 0x68]\n 12563: u64 [a4 + 0x18] = a0\n 12566: a1 = s1 + 0x23c0\n 12570: a0 = u64 [s1 + 0x70]\n 12573: u64 [a4 + 0x20] = a0\n 12576: u64 [s1 + 0x108] = a2\n 12580: a0 = a2\n 12582: ra = 464, jump @9\n      : @472 [@dyn 232] (gas: 9)\n 12588: a1 = u64 [s1 + 0x110]\n 12592: a3 = 0x100000000\n 12602: a0 = 0xffffffa0\n 12612: a0 = a1 <u a0\n 12615: a2 = u64 [s1 + 0x118]\n 12619: a0 = 0 if a2 != 0\n 12621: a2 = u64 [s1 + 0xf8]\n 12625: a0 = 0 if a2 != 0\n 12627: jump @474 if a0 != 0\n      : @473 (gas: 1)\n 12630: jump @622\n      : @474 (gas: 11)\n 12633: i32 a0 = a1 + 0x60\n 12636: a2 = s1 + 0x20b8\n 12640: u64 [a2 + 768] = 0\n 12644: u64 [a2 + 760] = 0\n 12648: u64 [a2 + 752] = 0\n 12652: a1 = s1 + 0x23a0\n 12656: u64 [s1 + 0xe8] = a3\n 12660: a3 = u64 [s1 + 0xf0]\n 12664: u64 [a2 + 0x2e8] = a3\n 12668: u64 [s1 + 0xf0] = a0\n 12672: ra = 466, jump @9\n      : @475 [@dyn 233] (gas: 9)\n 12678: a1 = u64 [s1 + 0x110]\n 12682: a0 = u64 [s1 + 0xe8]\n 12686: a0 = a0 + 0xffffffffffffff80\n 12689: a0 = a1 <u a0\n 12692: a2 = u64 [s1 + 0x118]\n 12696: a0 = 0 if a2 != 0\n 12698: a2 = u64 [s1 + 0xf8]\n 12702: a0 = 0 if a2 != 0\n 12704: jump @477 if a0 != 0\n      : @476 (gas: 1)\n 12707: jump @622\n      : @477 (gas: 9)\n 12710: i32 a0 = a1 + 0x80\n 12714: a2 = s1 + 0x20b8\n 12718: u64 [a2 + 736] = 0\n 12722: u64 [a2 + 728] = 0\n 12726: u64 [a2 + 720] = 0\n 12730: a1 = s1 + 0x2380\n 12734: u64 [a2 + 712] = 0\n 12738: u64 [s1 + 0xc8] = a0\n 12742: ra = 468, jump @9\n      : @478 [@dyn 234] (gas: 5)\n 12748: a0 = u64 [s1 + 0x78]\n 12751: ra = 0x1d6\n 12755: ecalli 4 // 'caller'\n 12757: t0 = 0x1d8\n 12761: jump @1405\n      : @479 [@dyn 235] (gas: 1)\n 12764: t0 = 472, jump @1405\n      : @480 [@dyn 236] (gas: 8)\n 12770: u64 [a2 + 704] = 0\n 12774: a4 = a2 + 0x200\n 12778: u64 [a4 + 0xb8] = a1\n 12782: u64 [a4 + 0xb0] = a0\n 12786: a1 = s1 + 0x2360\n 12790: u64 [a4 + 0xa8] = a3\n 12794: a0 = 0\n 12796: ra = 474, jump @9\n      : @481 [@dyn 237] (gas: 9)\n 12802: a1 = s1 + 0x20b8\n 12806: u64 [a1 + 672] = 0\n 12810: u64 [a1 + 664] = 0\n 12814: u64 [a1 + 648] = 0x1\n 12819: a2 = a1\n 12821: a0 = 0x20\n 12824: a1 = s1 + 0x2340\n 12828: u64 [a2 + 656] = 0\n 12832: ra = 476, jump @9\n      : @482 [@dyn 238] (gas: 3)\n 12838: a1 = u64 [s1 + 0x48]\n 12841: a0 = i32 [a1]\n 12843: jump @484 if a0 >u 63\n      : @483 (gas: 2)\n 12847: u32 [a1 + 0] = 0x40\n 12850: fallthrough\n      : @484 (gas: 3)\n 12851: a0 = 0xffffffff00000000\n 12861: u64 [s1 + 0xf8] = a0\n 12865: t0 = 478, jump @1464\n      : @485 [@dyn 239] (gas: 6)\n 12871: a0 = u64 [s1 + 0x50]\n 12874: ra = 0x1e0\n 12878: ecalli 8 // 'hash_keccak_256'\n 12880: a3 = u64 [s1 + 0x118]\n 12884: t0 = 0x1e2\n 12888: jump @1427\n      : @486 [@dyn 240] (gas: 2)\n 12891: a3 = u64 [s1 + 0x118]\n 12895: t0 = 482, jump @1427\n      : @487 [@dyn 241] (gas: 14)\n 12901: u64 [s1 + 0x118] = a0\n 12905: sp = a0\n 12907: a2 = s1 + 0x20b8\n 12911: u64 [a2 + 640] = 0\n 12915: a0 = u64 [s1 + 0xa0]\n 12919: a3 = a2 + 0x200\n 12923: u64 [a3 + 0x78] = a0\n 12926: a0 = u64 [s1 + 0x90]\n 12930: u64 [a3 + 0x70] = a0\n 12933: a1 = s1 + 0x2320\n 12937: a0 = u64 [s1 + 0x98]\n 12941: u64 [a3 + 0x68] = a0\n 12944: a0 = 0\n 12946: ra = 484, jump @9\n      : @488 [@dyn 242] (gas: 14)\n 12952: a0 = u64 [s1 + 0xd0]\n 12956: a1 = s1 + 0x20b8\n 12960: a2 = a1 + 0x200\n 12964: u64 [a2 + 0x60] = a0\n 12967: a0 = u64 [s1 + 0xd8]\n 12971: u64 [a2 + 0x58] = a0\n 12974: a0 = u64 [s1 + 0xe0]\n 12978: u64 [a2 + 0x50] = a0\n 12981: a3 = a1\n 12983: a0 = 0x20\n 12986: a1 = s1 + 0x2300\n 12990: a2 = u64 [s1 + 0xe8]\n 12994: u64 [a3 + 0x248] = a2\n 12998: ra = 486, jump @9\n      : @489 [@dyn 243] (gas: 3)\n 13004: a1 = u64 [s1 + 0x48]\n 13007: a0 = i32 [a1]\n 13009: jump @491 if a0 >u 63\n      : @490 (gas: 2)\n 13013: u32 [a1 + 0] = 0x40\n 13016: fallthrough\n      : @491 (gas: 29)\n 13017: a0 = sp + 0xffffffffffffffe0\n 13020: a0 = a0 & 0xffffffffffffffe0\n 13023: u64 [s1 + 0xe8] = a0\n 13027: sp = a0\n 13029: i32 a2 = a0 + 0\n 13031: a1 = 0x40\n 13034: a0 = u64 [s1 + 0x50]\n 13037: ecalli 8 // 'hash_keccak_256'\n 13039: a3 = u64 [s1 + 0xe8]\n 13043: a0 = u64 [a3 + 0x18]\n 13046: a1 = u64 [a3 + 0x10]\n 13049: a2 = u64 [a3 + 0x8]\n 13052: a3 = u64 [a3]\n 13054: a4 = reverse a0\n 13056: u64 [s1 + 0xd8] = a4\n 13060: a1 = reverse a1\n 13062: u64 [s1 + 0xe0] = a1\n 13066: a2 = reverse a2\n 13068: u64 [s1 + 0xd0] = a2\n 13072: a0 = reverse a3\n 13074: u64 [s1 + 0xe8] = a0\n 13078: a3 = u64 [s1 + 0x118]\n 13082: u64 [a3 + 0x18] = a0\n 13085: u64 [a3 + 0x10] = a2\n 13088: u64 [a3 + 0x8] = a1\n 13091: u64 [a3] = a4\n 13093: a0 = s1 + 0x22e0\n 13097: a1 = u64 [s1 + 0x110]\n 13101: ra = 488, jump @7\n      : @492 [@dyn 244] (gas: 8)\n 13107: a0 = s1 + 0x20b8\n 13111: a0 = u64 [a0 + 0x228]\n 13115: a1 = u64 [s1 + 0x80]\n 13119: a0 = a0 & a1\n 13122: u64 [s1 + 0x110] = a0\n 13126: a0 = s1 + 0x22c0\n 13130: a1 = u64 [s1 + 0x118]\n 13134: ra = 490, jump @11\n      : @493 [@dyn 245] (gas: 7)\n 13140: a3 = s1 + 0x20b8\n 13144: a4 = a3 + 0x200\n 13148: a0 = u64 [a4 + 0x10]\n 13151: a1 = u64 [a4 + 0x18]\n 13154: a2 = u64 [a4 + 0x20]\n 13157: a3 = u64 [a4 + 0x8]\n 13160: t0 = 492, jump @1453\n      : @494 [@dyn 246] (gas: 8)\n 13166: u64 [a4 + 0x400] = a2\n 13170: a2 = a4 + 0x300\n 13174: u64 [a2 + 0xf8] = a1\n 13178: u64 [a2 + 0xf0] = a0\n 13182: u64 [a2 + 0xe8] = a3\n 13186: a1 = s1 + 0x2ca0\n 13190: a0 = u64 [s1 + 0x118]\n 13194: ra = 494, jump @12\n      : @495 [@dyn 247] (gas: 3)\n 13200: a0 = s1 + 0x22a0\n 13204: a1 = u64 [s1 + 0x100]\n 13208: ra = 496, jump @7\n      : @496 [@dyn 248] (gas: 11)\n 13214: a0 = s1 + 0x20b8\n 13218: a2 = a0 + 0x100\n 13222: a1 = u64 [a2 + 0xf8]\n 13226: u64 [s1 + 0x110] = a1\n 13230: a1 = u64 [a2 + 0xf0]\n 13234: u64 [s1 + 0x100] = a1\n 13238: a1 = u64 [a2 + 0xe8]\n 13242: u64 [s1 + 0xc0] = a1\n 13246: a0 = s1 + 0x2280\n 13250: a1 = u64 [s1 + 0x118]\n 13254: ra = 498, jump @11\n      : @497 [@dyn 249] (gas: 23)\n 13260: a1 = s1 + 0x20b8\n 13264: a0 = u64 [a1 + 0x1e0]\n 13268: a1 = u32 [a1 + 0x1c8]\n 13272: a5 = u64 [s1 + 0xc0]\n 13276: a2 = a5 >> 0x20\n 13279: a4 = u64 [s1 + 0x100]\n 13283: a3 = a4 << 0x20\n 13286: a2 = a2 | a3\n 13289: a3 = a4 >> 0x20\n 13292: a4 = u64 [s1 + 0x110]\n 13296: a4 = a4 << 0x20\n 13299: a3 = a3 | a4\n 13302: a4 = a5 << 0x20\n 13305: a1 = a1 | a4\n 13308: a4 = s1 + 0x28b8\n 13312: a5 = a4 + 0x400\n 13316: u64 [a5 + 0x18] = a3\n 13319: u64 [a5 + 0x10] = a2\n 13322: u64 [a5 + 0x20] = a0\n 13325: u64 [a5 + 0x8] = a1\n 13328: a1 = s1 + 0x2cc0\n 13332: a0 = u64 [s1 + 0x118]\n 13336: ra = 500, jump @12\n      : @498 [@dyn 250] (gas: 3)\n 13342: a0 = s1 + 0x2260\n 13346: a1 = u64 [s1 + 0x108]\n 13350: ra = 502, jump @7\n      : @499 [@dyn 251] (gas: 30)\n 13356: a0 = s1 + 0x20b8\n 13360: t0 = u64 [a0 + 0x1a8]\n 13364: t1 = u64 [a0 + 0x1b0]\n 13368: t2 = u64 [a0 + 0x1b8]\n 13372: a3 = u64 [a0 + 0x1c0]\n 13376: a0 = u64 [s1 + 0xd8]\n 13380: a0 = a0 + 0x1\n 13383: a5 = a0 <u 0x1\n 13386: a1 = u64 [s1 + 0xe0]\n 13390: a5 = a5 + a1\n 13393: a4 = a0 | a5\n 13396: a4 = a4 <u 0x1\n 13399: a1 = u64 [s1 + 0xd0]\n 13403: a4 = a4 + a1\n 13406: a1 = a4 <u a1\n 13409: a2 = u64 [s1 + 0xe8]\n 13413: a1 = a1 + a2\n 13416: a2 = s1 + 0x28b8\n 13420: u64 [a2 + 0x440] = a1\n 13424: a1 = a2 + 0x400\n 13428: u64 [a1 + 0x38] = a4\n 13431: u64 [a1 + 0x30] = a5\n 13434: u64 [a1 + 0x28] = a0\n 13437: u64 [a1 + 0x60] = a3\n 13440: u64 [a2 + 0x458] = t2\n 13444: u64 [a2 + 0x450] = t1\n 13448: u64 [a2 + 0x448] = t0\n 13452: a0 = s1 + 0x2ce0\n 13456: a1 = s1 + 0x2d00\n 13460: ra = 504, jump @12\n      : @500 [@dyn 252] (gas: 23)\n 13466: a0 = sp + 0xffffffffffffffe0\n 13469: a5 = a0 & 0xffffffffffffffe0\n 13472: sp = a5\n 13474: a1 = u64 [s1 + 0xd8]\n 13478: a0 = a1 + 0x2\n 13481: a1 = a0 <u a1\n 13484: a3 = u64 [s1 + 0xe0]\n 13488: a2 = a3 + a1\n 13491: a3 = a2 <u a3\n 13494: a3 = a1 if a1 == 0\n 13497: a1 = u64 [s1 + 0xd0]\n 13501: a3 = a3 + a1\n 13504: a1 = a3 <u a1\n 13507: a4 = u64 [s1 + 0xe8]\n 13511: a1 = a1 + a4\n 13514: u64 [s1 + 0x118] = a5\n 13518: u64 [a5 + 0x18] = a1\n 13521: u64 [a5 + 0x10] = a3\n 13524: u64 [a5 + 0x8] = a2\n 13527: u64 [a5] = a0\n 13529: a0 = s1 + 0x2240\n 13533: a1 = u64 [s1 + 0xf0]\n 13537: ra = 506, jump @7\n      : @501 [@dyn 253] (gas: 7)\n 13543: a0 = s1 + 0x20b8\n 13547: a0 = u64 [a0 + 0x188]\n 13551: a0 = a0 & 0xffffffffffffffff\n 13554: u64 [s1 + 0x110] = a0\n 13558: a0 = s1 + 0x2220\n 13562: a1 = u64 [s1 + 0x118]\n 13566: ra = 508, jump @11\n      : @502 [@dyn 254] (gas: 15)\n 13572: a2 = s1 + 0x20b8\n 13576: a3 = a2 + 0x100\n 13580: a0 = u64 [a3 + 0x80]\n 13584: a1 = u64 [a3 + 0x78]\n 13587: a2 = u64 [a3 + 0x70]\n 13590: a3 = s1 + 0x28b8\n 13594: a4 = u64 [s1 + 0x110]\n 13598: a5 = a3 + 0x400\n 13602: u64 [a5 + 0x68] = a4\n 13605: u64 [a5 + 0x80] = a0\n 13609: u64 [a5 + 0x78] = a1\n 13612: u64 [a5 + 0x70] = a2\n 13615: a1 = s1 + 0x2d20\n 13619: a0 = u64 [s1 + 0x118]\n 13623: ra = 510, jump @12\n      : @503 [@dyn 255] (gas: 3)\n 13629: a0 = s1 + 0x2200\n 13633: a1 = u64 [s1 + 0xc8]\n 13637: ra = 512, jump @7\n      : @504 [@dyn 256] (gas: 14)\n 13643: a3 = s1 + 0x20b8\n 13647: a4 = a3 + 0x100\n 13651: a0 = u64 [a4 + 0x60]\n 13654: a1 = u64 [a4 + 0x50]\n 13657: a2 = u64 [a4 + 0x58]\n 13660: a3 = u64 [a4 + 0x48]\n 13663: a0 = a0 | a1\n 13666: a2 = a2 | a3\n 13669: a0 = a0 | a2\n 13672: a0 = a0 >u 0\n 13674: u64 [s1 + 0x110] = a0\n 13678: a0 = s1 + 0x21e0\n 13682: a1 = u64 [s1 + 0x118]\n 13686: ra = 514, jump @11\n      : @505 [@dyn 257] (gas: 18)\n 13692: a3 = s1 + 0x20b8\n 13696: a4 = a3 + 0x100\n 13700: a0 = u64 [a4 + 0x30]\n 13703: a1 = u64 [a4 + 0x28]\n 13706: a2 = u64 [a4 + 0x40]\n 13709: a3 = u64 [a4 + 0x38]\n 13712: a0 = a0 & 0xffffffffffffff00\n 13716: a4 = u64 [s1 + 0x110]\n 13720: a0 = a0 | a4\n 13723: a4 = s1 + 0x28b8\n 13727: a5 = a4 + 0x400\n 13731: u64 [a5 + 0xa0] = a2\n 13735: u64 [a5 + 0x98] = a3\n 13739: u64 [a5 + 0x88] = a1\n 13743: u64 [a5 + 0x90] = a0\n 13747: a1 = s1 + 0x2d40\n 13751: a0 = u64 [s1 + 0x118]\n 13755: ra = 516, jump @12\n      : @506 [@dyn 258] (gas: 5)\n 13761: a0 = u64 [s1 + 0x78]\n 13764: ra = 0x206\n 13768: ecalli 4 // 'caller'\n 13770: t0 = 0x208\n 13774: jump @1405\n      : @507 [@dyn 259] (gas: 1)\n 13777: t0 = 520, jump @1405\n      : @508 [@dyn 260] (gas: 8)\n 13783: u64 [a2 + 288] = 0\n 13787: a4 = a2 + 0x100\n 13791: u64 [a4 + 0x18] = a1\n 13794: u64 [a4 + 0x10] = a0\n 13797: a1 = s1 + 0x21c0\n 13801: u64 [a4 + 0x8] = a3\n 13804: a0 = 0\n 13806: ra = 522, jump @9\n      : @509 [@dyn 261] (gas: 9)\n 13812: a0 = s1 + 0x20b8\n 13816: u64 [a0 + 256] = 0\n 13820: u64 [a0 + 248] = 0\n 13824: u64 [a0 + 240] = 0\n 13828: a2 = a0\n 13830: a0 = 0x20\n 13833: a1 = s1 + 0x21a0\n 13837: u64 [a2 + 232] = 0\n 13841: ra = 524, jump @9\n      : @510 [@dyn 262] (gas: 7)\n 13847: a1 = u64 [s1 + 0x48]\n 13850: a0 = sp + 0xffffffffffffffe0\n 13853: a0 = a0 & 0xffffffffffffffe0\n 13856: u64 [s1 + 0x118] = a0\n 13860: sp = a0\n 13862: a0 = i32 [a1]\n 13864: jump @512 if a0 >=u 64\n      : @511 (gas: 2)\n 13868: u32 [a1 + 0] = 0x40\n 13871: fallthrough\n      : @512 (gas: 11)\n 13872: a0 = sp + 0xffffffffffffffe0\n 13875: a0 = a0 & 0xffffffffffffffe0\n 13878: u64 [s1 + 0x110] = a0\n 13882: sp = a0\n 13884: i32 a2 = a0 + 0\n 13886: a1 = 0x40\n 13889: a0 = u64 [s1 + 0x50]\n 13892: ra = 0x20e\n 13896: ecalli 8 // 'hash_keccak_256'\n 13898: t0 = 0x210\n 13902: jump @1445\n      : @513 [@dyn 263] (gas: 1)\n 13905: t0 = 528, jump @1445\n      : @514 [@dyn 264] (gas: 2)\n 13911: a4 = a3 + 0x3\n 13914: t0 = 530, jump @1416\n      : @515 [@dyn 265] (gas: 7)\n 13920: a1 = u64 [s1 + 0x118]\n 13924: u64 [a1] = a4\n 13926: u64 [a1 + 0x8] = a5\n 13929: u64 [a1 + 0x10] = a2\n 13932: u64 [a1 + 0x18] = a0\n 13935: a0 = s1 + 0x2180\n 13939: ra = 532, jump @11\n      : @516 [@dyn 266] (gas: 9)\n 13945: a0 = s1 + 0x20b8\n 13949: a0 = u64 [a0 + 0xc8]\n 13953: a0 = a0 + 0x1\n 13956: a1 = u64 [s1 + 0x80]\n 13960: a0 = a0 & a1\n 13963: u64 [s1 + 0x110] = a0\n 13967: a0 = s1 + 0x2160\n 13971: a1 = u64 [s1 + 0x118]\n 13975: ra = 534, jump @11\n      : @517 [@dyn 267] (gas: 6)\n 13981: a3 = s1 + 0x20b8\n 13985: a0 = u64 [a3 + 0xb0]\n 13989: a1 = u64 [a3 + 0xb8]\n 13993: a2 = u64 [a3 + 0xc0]\n 13997: a3 = u64 [a3 + 0xa8]\n 14001: t0 = 536, jump @1453\n      : @518 [@dyn 268] (gas: 8)\n 14007: a5 = a4 + 0x400\n 14011: u64 [a5 + 0xc0] = a2\n 14015: u64 [a5 + 0xb8] = a1\n 14019: u64 [a5 + 0xb0] = a0\n 14023: u64 [a5 + 0xa8] = a3\n 14027: a1 = s1 + 0x2d60\n 14031: a0 = u64 [s1 + 0x118]\n 14035: ra = 538, jump @12\n      : @519 [@dyn 269] (gas: 3)\n 14041: a0 = s1 + 0x2140\n 14045: a1 = 0x40\n 14048: ra = 540, jump @7\n      : @520 [@dyn 270] (gas: 3)\n 14054: t0 = 0x21e\n 14058: a3 = s1 + 0x20b8\n 14062: fallthrough\n      : @521 [@dyn 271] (gas: 12)\n 14063: a0 = u64 [a3 + 0xa0]\n 14067: a1 = u64 [a3 + 0x98]\n 14071: a2 = u64 [a3 + 0x90]\n 14075: a4 = u64 [a3 + 0x88]\n 14079: a0 = a0 | a2\n 14082: a2 = a4 | a1\n 14085: a2 = a2 | a0\n 14088: a2 = a2 >> 0x20\n 14091: a0 = a0 | a1\n 14094: a0 = a0 << 0x20\n 14097: a0 = a0 | a2\n 14100: jump @622 if a0 != 0\n      : @522 (gas: 12)\n 14104: a0 = u64 [s1 + 0x58]\n 14107: u64 [a3 + 0x68] = a0\n 14110: a0 = u64 [s1 + 0x60]\n 14113: u64 [a3 + 0x70] = a0\n 14116: a0 = u64 [s1 + 0x68]\n 14119: u64 [a3 + 0x78] = a0\n 14122: a1 = s1 + 0x2120\n 14126: a0 = u64 [s1 + 0x70]\n 14129: u64 [a3 + 0x80] = a0\n 14133: a0 = a4\n 14135: u64 [s1 + 0x118] = a4\n 14139: ra = 544, jump @9\n      : @523 [@dyn 272] (gas: 6)\n 14145: a0 = u64 [s1 + 0x78]\n 14148: ra = 0x222\n 14152: ecalli 4 // 'caller'\n 14154: a2 = u64 [s1 + 0x88]\n 14158: t0 = 0x224\n 14162: jump @1404\n      : @524 [@dyn 273] (gas: 2)\n 14165: a2 = u64 [s1 + 0x88]\n 14169: t0 = 548, jump @1404\n      : @525 [@dyn 274] (gas: 32)\n 14175: t0 = a1 | a0\n 14178: a3 = a3 >> 0x20\n 14181: a2 = reverse a2\n 14183: a1 = a2 << 0x20\n 14186: a1 = a1 | a3\n 14189: a2 = a2 >> 0x20\n 14192: a3 = u64 [0x20000]\n 14197: a4 = u64 [0x20008]\n 14202: a5 = u64 [0x20010]\n 14207: a0 = s1 + 0x20b8\n 14211: u64 [a0 + 0x60] = a3\n 14214: u64 [a0 + 0x58] = a4\n 14217: u64 [a0 + 32] = 0\n 14220: u64 [a0 + 0x50] = a5\n 14223: a3 = u64 [0x20018]\n 14228: a4 = u64 [s1 + 0xa0]\n 14232: u64 [a0 + 0x18] = a4\n 14235: a4 = u64 [s1 + 0x90]\n 14239: u64 [a0 + 0x10] = a4\n 14242: a4 = u64 [s1 + 0x98]\n 14246: u64 [a0 + 0x8] = a4\n 14249: u64 [a0 + 0x48] = a3\n 14252: u64 [a0 + 0x38] = a2\n 14255: u64 [a0 + 0x30] = a1\n 14258: u64 [a0 + 0x28] = t0\n 14261: a1 = 0x20\n 14264: a2 = s1 + 0x2100\n 14268: a3 = s1 + 0x20e0\n 14272: a4 = s1 + 0x20c0\n 14276: u64 [a0 + 64] = 0\n 14279: a0 = u64 [s1 + 0x118]\n 14283: ra = 550, jump @15\n      : @526 [@dyn 275] (gas: 3)\n 14289: a0 = s1 + 0x20a0\n 14293: a1 = 0x40\n 14296: ra = 552, jump @7\n      : @527 [@dyn 276] (gas: 7)\n 14302: a3 = s1 + 0x20b8\n 14306: a0 = u64 [a3]\n 14308: a4 = a3 + 0xffffffffffffff00\n 14312: a1 = u64 [a4 + 0xf8]\n 14316: a2 = u64 [a4 + 0xf0]\n 14320: a3 = u64 [a4 + 0xe8]\n 14324: t0 = 554, jump @1419\n      : @528 [@dyn 277] (gas: 1)\n 14330: jump @622 if a0 != 0\n      : @529 (gas: 14)\n 14334: a0 = s1 + 0x18b8\n 14338: u64 [a0 + 2016] = 0\n 14342: a1 = u64 [s1 + 0x98]\n 14346: a4 = a0 + 0x700\n 14350: u64 [a4 + 0xc8] = a1\n 14354: a1 = u64 [s1 + 0x90]\n 14358: u64 [a4 + 0xd0] = a1\n 14362: a1 = s1 + 0x2080\n 14366: a2 = u64 [s1 + 0xa0]\n 14370: u64 [a4 + 0xd8] = a2\n 14374: a0 = a3\n 14376: u64 [s1 + 0x118] = a3\n 14380: ra = 0x112\n 14384: jump @9\n      : @530 (gas: 19)\n 14387: a0 = u64 [s1 + 0x118]\n 14391: a2 = u64 [s1 + 0xa8]\n 14395: a0 = a0 | a2\n 14398: a2 = u64 [s1 + 0x90]\n 14402: a0 = a2 if a4 == 0\n 14405: t1 = u64 [s1 + 0xc0]\n 14409: a3 = t1\n 14411: t0 = u64 [s1 + 0xe8]\n 14415: a3 = a0 if t0 != 0\n 14418: u64 [s1 + 0x118] = a3\n 14422: a0 = u64 [s1 + 0xe0]\n 14426: a2 = u64 [s1 + 0xb0]\n 14430: a0 = a0 | a2\n 14433: a2 = u64 [s1 + 0x98]\n 14437: a0 = a2 if a4 == 0\n 14440: a5 = u64 [s1 + 0xd0]\n 14444: a3 = a5\n 14446: a3 = a0 if t0 != 0\n 14449: t0 = 556, jump @1444\n      : @531 [@dyn 278] (gas: 1)\n 14455: ra = 558, jump @1482\n      : @532 [@dyn 279] (gas: 6)\n 14461: u64 [s1 + 0xb0] = a0\n 14465: u64 [s1 + 0x98] = a1\n 14469: a0 = u64 [s1 + 0xc8]\n 14473: a1 = u64 [s1 + 0xd8]\n 14477: a2 = u64 [s1 + 0x110]\n 14481: ra = 560, jump @1482\n      : @533 [@dyn 280] (gas: 7)\n 14487: u64 [s1 + 0x90] = a0\n 14491: u64 [s1 + 0xa8] = a1\n 14495: a1 = u64 [s1 + 0x110]\n 14499: a2 = 0x80 - a1\n 14503: a0 = u64 [s1 + 0xd0]\n 14507: a1 = u64 [s1 + 0xc0]\n 14511: ra = 562, jump @1487\n      : @534 [@dyn 281] (gas: 21)\n 14517: a2 = u64 [s1 + 0xa8]\n 14521: a1 = a1 | a2\n 14524: a3 = u64 [s1 + 0x110]\n 14528: a4 = a3 <u 0x80\n 14532: u64 [s1 + 0xa8] = a4\n 14536: a2 = u64 [s1 + 0x98]\n 14540: a1 = a2 if a4 == 0\n 14543: a2 = u64 [s1 + 0xd8]\n 14547: a2 = a1 if a3 != 0\n 14550: u64 [s1 + 0xd8] = a2\n 14554: a1 = u64 [s1 + 0x90]\n 14558: a0 = a0 | a1\n 14561: a1 = u64 [s1 + 0xb0]\n 14565: a0 = a1 if a4 == 0\n 14568: a1 = u64 [s1 + 0xc8]\n 14572: a1 = a0 if a3 != 0\n 14575: a2 = a3\n 14577: u64 [s1 + 0xc8] = a1\n 14581: a0 = u64 [s1 + 0xd0]\n 14585: a1 = u64 [s1 + 0xc0]\n 14589: ra = 564, jump @1482\n      : @535 [@dyn 282] (gas: 3)\n 14595: a4 = 0\n 14597: a5 = 0\n 14599: t0 = 566, jump @1452\n      : @536 [@dyn 283] (gas: 3)\n 14605: t1 = u64 [s1 + 0xd8]\n 14609: t2 = u64 [s1 + 0xc8]\n 14613: fallthrough\n      : @537 (gas: 89)\n 14614: u64 [s1 + 0xd8] = a4\n 14618: a2 = t2 >> 0x3f\n 14621: a3 = t1 << 0x1\n 14624: t0 = a3 | a2\n 14627: a3 = t2 << 0x1\n 14630: a4 = u64 [s1 + 0x118]\n 14634: a4 = a4 >> 0x3f\n 14637: a3 = a3 | a4\n 14640: u64 [s1 + 0xc8] = a3\n 14644: a2 = u64 [s1 + 0xa8]\n 14648: t2 = a1\n 14650: u64 [s1 + 0xd0] = t0\n 14654: a1 = a2 ^ t0\n 14657: ra = t1\n 14659: t1 = a2 <u t0\n 14662: a4 = u64 [s1 + 0xb0]\n 14666: t0 = a4 <u a3\n 14669: t0 = t1 if a1 != 0\n 14672: a1 = t2 << 0x1\n 14675: a3 = a0 >> 0x3f\n 14678: a1 = a1 | a3\n 14681: u64 [s1 + 0xc0] = a1\n 14685: a3 = ra >> 0x3f\n 14688: a0 = a0 << 0x1\n 14691: a3 = a3 | a0\n 14694: a0 = u64 [s1 + 0x118]\n 14698: a0 = a0 << 0x1\n 14701: a4 = u64 [s1 + 0xe0]\n 14705: a1 = a4 >> 0x3f\n 14708: ra = a0 | a1\n 14711: a1 = a4 << 0x1\n 14714: a4 = u64 [s1 + 0xe8]\n 14718: t1 = a4 >> 0x3f\n 14721: t1 = a1 | t1\n 14724: a1 = a4 << 0x1\n 14727: a4 = u64 [s1 + 0x108]\n 14731: t2 = a4 >> 0x3f\n 14734: a1 = a1 | t2\n 14737: a4 = a4 << 0x1\n 14740: a0 = u64 [s1 + 0xd8]\n 14744: a4 = a4 | a0\n 14747: u64 [s1 + 0x108] = a4\n 14751: a1 = a1 | a5\n 14754: u64 [s1 + 0xe8] = a1\n 14758: a1 = a5 | t1\n 14761: u64 [s1 + 0xe0] = a1\n 14765: a0 = a5 | ra\n 14768: u64 [s1 + 0x118] = a0\n 14772: a0 = a2 - a3\n 14775: a0 = a0 <u t0\n 14778: a1 = a2 <u a3\n 14781: t0 = u64 [s1 + 0xc0]\n 14785: a4 = a2 - t0\n 14788: a4 = a4 - a1\n 14791: a4 = a4 - a0\n 14794: a5 = a4 >>a 0x3f\n 14797: a0 = u64 [s1 + 0xb8]\n 14801: a0 = a0 & a5\n 14804: a1 = u64 [s1 + 0xc8]\n 14808: t2 = a1 - a0\n 14811: a1 = a1 <u a0\n 14814: a0 = u64 [s1 + 0xd0]\n 14818: t1 = a0 - a1\n 14821: a1 = 0 if a0 != 0\n 14823: a0 = a3 - a1\n 14826: a1 = a3 <u a1\n 14829: a1 = t0 - a1\n 14832: a3 = u64 [s1 + 0x110]\n 14836: ra = u64 [s1 + 0x100]\n 14840: a2 = a3 | ra\n 14843: a2 = a2 <u 0x1\n 14846: a4 = u64 [s1 + 0xf0]\n 14850: t0 = a4 <u a2\n 14853: a2 = a4 - a2\n 14856: a4 = a3 <u 0x1\n 14859: ra = ra - a4\n 14862: a4 = u64 [s1 + 0xf8]\n 14866: a4 = a4 - t0\n 14869: a3 = a3 + 0xffffffffffffffff\n 14872: u64 [s1 + 0x100] = ra\n 14876: u64 [s1 + 0xf8] = a4\n 14880: t0 = ra | a4\n 14883: u64 [s1 + 0x110] = a3\n 14887: a4 = a3 | a2\n 14890: a3 = a4 | t0\n 14893: a4 = a5 & 0x1\n 14896: u64 [s1 + 0xf0] = a2\n 14900: a5 = 0\n 14902: jump @537 if a3 != 0\n      : @538 (gas: 4)\n 14906: a0 = u64 [s1 + 0x108]\n 14910: a0 = a0 << 0x1\n 14913: a4 = a4 | a0\n 14916: fallthrough\n      : @539 (gas: 3)\n 14917: a0 = a4 & 0xffffffffffffffff\n 14920: a1 = u64 [s1 + 0xa0]\n 14924: jump @696 if a1 != a0\n      : @540 (gas: 8)\n 14928: a0 = 0x30180\n 14933: u64 [s1 + 0xd0] = a0\n 14937: i32 a0 = a0 + 0\n 14939: u64 [s1 + 0xc8] = a0\n 14943: ra = 0x238\n 14947: ecalli 4 // 'caller'\n 14949: t0 = 0x23a\n 14953: jump @1402\n      : @541 [@dyn 284] (gas: 1)\n 14956: t0 = 570, jump @1402\n      : @542 [@dyn 285] (gas: 9)\n 14962: u64 [a2 + 1056] = 0\n 14966: a4 = a2 + 0x400\n 14970: u64 [a4 + 0x18] = a1\n 14973: u64 [a4 + 0x10] = a0\n 14976: a1 = s1 + 0x7ff\n 14980: a1 = a1 + 0x4a1\n 14984: u64 [a4 + 0x8] = a3\n 14987: a0 = 0\n 14989: ra = 572, jump @9\n      : @543 [@dyn 286] (gas: 11)\n 14995: a0 = s1 + 0x7ff\n 14999: a0 = a0 + 0x99\n 15003: u64 [a0 + 1024] = 0\n 15007: u64 [a0 + 1016] = 0\n 15011: u64 [a0 + 1008] = 0\n 15015: a2 = a0\n 15017: a0 = 0x20\n 15020: a1 = s1 + 0x7ff\n 15024: a1 = a1 + 0x481\n 15028: u64 [a2 + 1000] = 0\n 15032: ra = 574, jump @9\n      : @544 [@dyn 287] (gas: 7)\n 15038: a0 = sp + 0xffffffffffffffe0\n 15041: a0 = a0 & 0xffffffffffffffe0\n 15044: u64 [s1 + 0xa8] = a0\n 15048: sp = a0\n 15050: a1 = 0x20170\n 15055: a0 = i32 [0x20170]\n 15060: jump @546 if a0 >u 63\n      : @545 (gas: 3)\n 15064: u32 [0x20170] = 0x40\n 15070: t0 = 0x240\n 15074: jump @1450\n      : @546 (gas: 1)\n 15077: t0 = 576, jump @1450\n      : @547 [@dyn 288] (gas: 30)\n 15083: a0 = 0x20180\n 15088: i32 a0 = a0 + 0\n 15090: i32 a2 = a2 + 0\n 15092: u64 [s1 + 0x108] = a1\n 15096: a1 = 0x40\n 15099: u64 [s1 + 0x110] = a0\n 15103: ecalli 8 // 'hash_keccak_256'\n 15105: a3 = u64 [s1 + 0x118]\n 15109: a0 = u64 [a3 + 0x18]\n 15112: a1 = u64 [a3 + 0x10]\n 15115: a2 = u64 [a3 + 0x8]\n 15118: a3 = u64 [a3]\n 15120: a5 = reverse a0\n 15122: a4 = reverse a1\n 15124: a1 = reverse a2\n 15126: a2 = reverse a3\n 15128: a0 = u64 [s1 + 0xa8]\n 15132: u64 [s1 + 0x100] = a2\n 15136: u64 [a0 + 0x18] = a2\n 15139: u64 [s1 + 0x118] = a1\n 15143: u64 [a0 + 0x10] = a1\n 15146: u64 [s1 + 0xf8] = a4\n 15150: u64 [a0 + 0x8] = a4\n 15153: u64 [s1 + 0xf0] = a5\n 15157: u64 [a0] = a5\n 15159: a0 = u64 [s1 + 0xc8]\n 15163: ra = 0x242\n 15167: ecalli 4 // 'caller'\n 15169: t0 = 0x244\n 15173: jump @1402\n      : @548 [@dyn 289] (gas: 1)\n 15176: t0 = 580, jump @1402\n      : @549 [@dyn 290] (gas: 9)\n 15182: u64 [a2 + 992] = 0\n 15186: a4 = a2 + 0x300\n 15190: u64 [a4 + 0xd8] = a1\n 15194: u64 [a4 + 0xd0] = a0\n 15198: a1 = s1 + 0x7ff\n 15202: a1 = a1 + 0x461\n 15206: u64 [a4 + 0xc8] = a3\n 15210: a0 = 0\n 15212: ra = 582, jump @9\n      : @550 [@dyn 291] (gas: 11)\n 15218: a1 = s1 + 0x7ff\n 15222: a1 = a1 + 0x99\n 15226: u64 [a1 + 960] = 0\n 15230: u64 [a1 + 952] = 0\n 15234: u64 [a1 + 936] = 0x2\n 15239: a2 = a1\n 15241: a0 = 0x20\n 15244: a1 = s1 + 0x7ff\n 15248: a1 = a1 + 0x441\n 15252: u64 [a2 + 944] = 0\n 15256: ra = 584, jump @9\n      : @551 [@dyn 292] (gas: 3)\n 15262: a1 = u64 [s1 + 0x108]\n 15266: a0 = i32 [a1]\n 15268: jump @553 if a0 >u 63\n      : @552 (gas: 2)\n 15272: u32 [a1 + 0] = 0x40\n 15275: fallthrough\n      : @553 (gas: 8)\n 15276: a1 = 0xffffffff00000000\n 15286: u64 [s1 + 0xb0] = a1\n 15290: a0 = 0xffffffff\n 15300: u64 [s1 + 0xc0] = a0\n 15304: a0 = sp + 0xffffffffffffffe0\n 15307: a0 = a0 & 0xffffffffffffffe0\n 15310: u64 [s1 + 0xe8] = a0\n 15314: t0 = 586, jump @1403\n      : @554 [@dyn 293] (gas: 5)\n 15320: ra = 0x24c\n 15324: ecalli 8 // 'hash_keccak_256'\n 15326: a3 = u64 [s1 + 0xe8]\n 15330: t0 = 0x24e\n 15334: jump @1430\n      : @555 [@dyn 294] (gas: 2)\n 15337: a3 = u64 [s1 + 0xe8]\n 15341: t0 = 590, jump @1430\n      : @556 [@dyn 295] (gas: 8)\n 15347: u64 [a5 + 0x20] = a3\n 15350: u64 [a5 + 0x18] = a2\n 15353: u64 [a5 + 0x10] = a1\n 15356: u64 [a5 + 0x8] = a0\n 15359: a0 = s1 + 0x7ff\n 15363: a0 = a0 + 0x421\n 15367: a1 = s1 + 0x27c0\n 15371: ra = 592, jump @11\n      : @557 [@dyn 296] (gas: 25)\n 15377: u64 [s1 + 144] = 0\n 15381: u64 [s1 + 152] = 0\n 15385: a4 = 0\n 15387: a0 = s1 + 0x7ff\n 15391: a0 = a0 + 0x99\n 15395: a0 = u32 [a0 + 0x388]\n 15399: u64 [s1 + 0xb8] = a0\n 15403: a1 = u64 [s1 + 0xf0]\n 15407: a1 = a1 + 0x1\n 15410: a0 = a1 <u 0x1\n 15413: a2 = u64 [s1 + 0xf8]\n 15417: a0 = a0 + a2\n 15420: u64 [s1 + 0x88] = a1\n 15424: u64 [s1 + 0x80] = a0\n 15428: a0 = a0 | a1\n 15431: a0 = a0 <u 0x1\n 15434: a1 = u64 [s1 + 0x118]\n 15438: a0 = a0 + a1\n 15441: u64 [s1 + 0x78] = a0\n 15444: a0 = a0 <u a1\n 15447: a1 = u64 [s1 + 0x100]\n 15451: a0 = a0 + a1\n 15454: u64 [s1 + 0x70] = a0\n 15457: a3 = 0x1\n 15460: fallthrough\n      : @558 (gas: 9)\n 15461: a1 = 0\n 15463: a1 = 0 if a4 == 0\n 15465: a0 = u64 [s1 + 0xb8]\n 15469: a0 = a0 <u a3\n 15472: a2 = 0\n 15474: a2 = a0 if a4 == 0\n 15477: a0 = 0\n 15479: a2 = a1 if a0 != 0\n 15482: jump @618 if a2 != 0\n      : @559 (gas: 7)\n 15486: u64 [s1 + 248] = 0\n 15490: u64 [s1 + 0x118] = a3\n 15494: a0 = u64 [s1 + 0xc8]\n 15498: ra = 0x252\n 15502: ecalli 4 // 'caller'\n 15504: t0 = 0x254\n 15508: jump @1402\n      : @560 [@dyn 297] (gas: 1)\n 15511: t0 = 596, jump @1402\n      : @561 [@dyn 298] (gas: 9)\n 15517: u64 [a2 + 896] = 0\n 15521: a4 = a2 + 0x300\n 15525: u64 [a4 + 0x78] = a1\n 15528: u64 [a4 + 0x70] = a0\n 15531: a1 = s1 + 0x7ff\n 15535: a1 = a1 + 0x401\n 15539: u64 [a4 + 0x68] = a3\n 15542: a0 = 0\n 15544: ra = 598, jump @9\n      : @562 [@dyn 299] (gas: 11)\n 15550: a0 = s1 + 0x7ff\n 15554: a0 = a0 + 0x99\n 15558: u64 [a0 + 864] = 0\n 15562: u64 [a0 + 856] = 0\n 15566: u64 [a0 + 848] = 0\n 15570: a3 = a0\n 15572: a0 = 0x20\n 15575: a1 = s1 + 0x7ff\n 15579: a1 = a1 + 0x3e1\n 15583: u64 [a3 + 840] = 0x1\n 15588: ra = 600, jump @9\n      : @563 [@dyn 300] (gas: 3)\n 15594: a1 = u64 [s1 + 0x108]\n 15598: a0 = i32 [a1]\n 15600: jump @565 if a0 >u 63\n      : @564 (gas: 2)\n 15604: u32 [a1 + 0] = 0x40\n 15607: fallthrough\n      : @565 (gas: 4)\n 15608: a0 = sp + 0xffffffffffffffe0\n 15611: a0 = a0 & 0xffffffffffffffe0\n 15614: u64 [s1 + 0x100] = a0\n 15618: t0 = 602, jump @1403\n      : @566 [@dyn 301] (gas: 4)\n 15624: ra = 0x25c\n 15628: ecalli 8 // 'hash_keccak_256'\n 15630: t0 = 0x25e\n 15634: jump @1414\n      : @567 [@dyn 302] (gas: 1)\n 15637: t0 = 606, jump @1414\n      : @568 [@dyn 303] (gas: 10)\n 15643: a3 = a2 + 0x300\n 15647: u64 [a3 + 0x40] = a0\n 15650: u64 [a3 + 0x38] = a0\n 15653: u64 [a3 + 0x30] = a0\n 15656: a1 = s1 + 0x7ff\n 15660: a1 = a1 + 0x3c1\n 15664: a0 = u64 [s1 + 0x118]\n 15668: u64 [a3 + 0x28] = a0\n 15671: a0 = 0\n 15673: ra = 608, jump @9\n      : @569 [@dyn 304] (gas: 5)\n 15679: a0 = u64 [s1 + 0xd8]\n 15683: a1 = s1 + 0x7ff\n 15687: a1 = a1 + 0x99\n 15691: a2 = a1 + 0x300\n 15695: t0 = 610, jump @1439\n      : @570 [@dyn 305] (gas: 4)\n 15701: a1 = a1 + 0x3a1\n 15705: a2 = u64 [s1 + 0xf0]\n 15709: u64 [a3 + 0x308] = a2\n 15713: ra = 612, jump @9\n      : @571 [@dyn 306] (gas: 3)\n 15719: a1 = u64 [s1 + 0x108]\n 15723: a0 = i32 [a1]\n 15725: jump @573 if a0 >u 63\n      : @572 (gas: 2)\n 15729: u32 [a1 + 0] = 0x40\n 15732: fallthrough\n      : @573 (gas: 4)\n 15733: a0 = sp + 0xffffffffffffffe0\n 15736: a0 = a0 & 0xffffffffffffffe0\n 15739: u64 [s1 + 0xf0] = a0\n 15743: t0 = 614, jump @1403\n      : @574 [@dyn 307] (gas: 5)\n 15749: ra = 0x268\n 15753: ecalli 8 // 'hash_keccak_256'\n 15755: a3 = u64 [s1 + 0xf0]\n 15759: t0 = 0x26a\n 15763: jump @1415\n      : @575 [@dyn 308] (gas: 2)\n 15766: a3 = u64 [s1 + 0xf0]\n 15770: t0 = 618, jump @1415\n      : @576 [@dyn 309] (gas: 23)\n 15776: a4 = u64 [s1 + 0x100]\n 15780: u64 [a4 + 0x18] = a3\n 15783: u64 [a4 + 0x10] = a2\n 15786: u64 [a4 + 0x8] = a1\n 15789: u64 [a4] = a0\n 15791: a4 = a0 + 0x2\n 15794: a0 = a4 <u a0\n 15797: a5 = a1 + a0\n 15800: a1 = a5 <u a1\n 15803: a1 = a0 if a0 == 0\n 15806: a1 = a1 + a2\n 15809: a0 = a1 <u a2\n 15812: a0 = a0 + a3\n 15815: a2 = s1 + 0x20b8\n 15819: a3 = a2 + 0x700\n 15823: u64 [a3 + 0x28] = a4\n 15826: u64 [a3 + 0x30] = a5\n 15829: u64 [a3 + 0x38] = a1\n 15832: u64 [a3 + 0x40] = a0\n 15835: a0 = s1 + 0x7ff\n 15839: a0 = a0 + 0x381\n 15843: a1 = s1 + 0x27e0\n 15847: ra = 620, jump @11\n      : @577 [@dyn 310] (gas: 5)\n 15853: a0 = s1 + 0x7ff\n 15857: a0 = a0 + 0x99\n 15861: a0 = u64 [a0 + 0x2f0]\n 15865: a0 = a0 & 0xff\n 15869: jump @580 if a0 == 0\n      : @578 (gas: 2)\n 15872: a1 = u64 [s1 + 0xc0]\n 15876: fallthrough\n      : @579 (gas: 5)\n 15877: a4 = 0\n 15879: a0 = u64 [s1 + 0x118]\n 15883: a0 = a0 + 0x1\n 15886: a3 = a0 & a1\n 15889: jump @558\n      : @580 (gas: 4)\n 15892: a0 = s1 + 0x7ff\n 15896: a0 = a0 + 0x361\n 15900: a1 = u64 [s1 + 0x100]\n 15904: ra = 622, jump @11\n      : @581 [@dyn 311] (gas: 13)\n 15910: a2 = s1 + 0x7ff\n 15914: a2 = a2 + 0x99\n 15918: a3 = a2 + 0x200\n 15922: a0 = u64 [a3 + 0xd0]\n 15926: a1 = u64 [a3 + 0xd8]\n 15930: a2 = u64 [a3 + 0xc8]\n 15934: a0 = a0 & 0xffffffffffffffff\n 15937: a1 = a1 & 0xffffffffffffffff\n 15940: a4 = u64 [s1 + 0xb0]\n 15944: a2 = a2 & a4\n 15947: a1 = a1 | a2\n 15950: a0 = a0 | a1\n 15953: jump @578 if a0 == 0\n      : @582 (gas: 5)\n 15956: a0 = u64 [s1 + 0xc8]\n 15960: ra = 0x270\n 15964: ecalli 4 // 'caller'\n 15966: t0 = 0x272\n 15970: jump @1402\n      : @583 [@dyn 312] (gas: 1)\n 15973: t0 = 626, jump @1402\n      : @584 [@dyn 313] (gas: 9)\n 15979: u64 [a2 + 704] = 0\n 15983: a4 = a2 + 0x200\n 15987: u64 [a4 + 0xb8] = a1\n 15991: u64 [a4 + 0xb0] = a0\n 15995: a1 = s1 + 0x7ff\n 15999: a1 = a1 + 0x341\n 16003: u64 [a4 + 0xa8] = a3\n 16007: a0 = 0\n 16009: ra = 628, jump @9\n      : @585 [@dyn 314] (gas: 11)\n 16015: a0 = s1 + 0x7ff\n 16019: a0 = a0 + 0x99\n 16023: u64 [a0 + 672] = 0\n 16027: u64 [a0 + 664] = 0\n 16031: u64 [a0 + 656] = 0\n 16035: a3 = a0\n 16037: a0 = 0x20\n 16040: a1 = s1 + 0x7ff\n 16044: a1 = a1 + 0x321\n 16048: u64 [a3 + 648] = 0x3\n 16053: ra = 630, jump @9\n      : @586 [@dyn 315] (gas: 3)\n 16059: a1 = u64 [s1 + 0x108]\n 16063: a0 = i32 [a1]\n 16065: jump @588 if a0 >u 63\n      : @587 (gas: 2)\n 16069: u32 [a1 + 0] = 0x40\n 16072: fallthrough\n      : @588 (gas: 4)\n 16073: a0 = sp + 0xffffffffffffffe0\n 16076: a0 = a0 & 0xffffffffffffffe0\n 16079: u64 [s1 + 0x100] = a0\n 16083: t0 = 632, jump @1403\n      : @589 [@dyn 316] (gas: 5)\n 16089: ra = 0x27a\n 16093: ecalli 8 // 'hash_keccak_256'\n 16095: a3 = u64 [s1 + 0x100]\n 16099: t0 = 0x27c\n 16103: jump @1463\n      : @590 [@dyn 317] (gas: 2)\n 16106: a3 = u64 [s1 + 0x100]\n 16110: t0 = 636, jump @1463\n      : @591 [@dyn 318] (gas: 18)\n 16116: u64 [s1 + 0x100] = a0\n 16120: a0 = reverse a1\n 16122: u64 [s1 + 0xf0] = a0\n 16126: a0 = reverse a2\n 16128: u64 [s1 + 0xe8] = a0\n 16132: a0 = reverse a3\n 16134: u64 [s1 + 0xe0] = a0\n 16138: a2 = s1 + 0x7ff\n 16142: a2 = a2 + 0x99\n 16146: u64 [a2 + 640] = 0\n 16150: u64 [a2 + 632] = 0\n 16154: u64 [a2 + 624] = 0\n 16158: a1 = s1 + 0x7ff\n 16162: a1 = a1 + 0x301\n 16166: a0 = u64 [s1 + 0xa0]\n 16170: u64 [a2 + 0x268] = a0\n 16174: a0 = 0\n 16176: ra = 638, jump @9\n      : @592 [@dyn 319] (gas: 16)\n 16182: a0 = u64 [s1 + 0xe0]\n 16186: a1 = s1 + 0x7ff\n 16190: a1 = a1 + 0x99\n 16194: a2 = a1 + 0x200\n 16198: u64 [a2 + 0x60] = a0\n 16201: a0 = u64 [s1 + 0xe8]\n 16205: u64 [a2 + 0x58] = a0\n 16208: a0 = u64 [s1 + 0xf0]\n 16212: u64 [a2 + 0x50] = a0\n 16215: a3 = a1\n 16217: a0 = 0x20\n 16220: a1 = s1 + 0x7ff\n 16224: a1 = a1 + 0x2e1\n 16228: a2 = u64 [s1 + 0x100]\n 16232: u64 [a3 + 0x248] = a2\n 16236: ra = 640, jump @9\n      : @593 [@dyn 320] (gas: 3)\n 16242: a1 = u64 [s1 + 0x108]\n 16246: a0 = i32 [a1]\n 16248: jump @595 if a0 >u 63\n      : @594 (gas: 2)\n 16252: u32 [a1 + 0] = 0x40\n 16255: fallthrough\n      : @595 (gas: 4)\n 16256: a0 = sp + 0xffffffffffffffe0\n 16259: a0 = a0 & 0xffffffffffffffe0\n 16262: u64 [s1 + 0x100] = a0\n 16266: t0 = 642, jump @1403\n      : @596 [@dyn 321] (gas: 4)\n 16272: ra = 0x284\n 16276: ecalli 8 // 'hash_keccak_256'\n 16278: t0 = 0x286\n 16282: jump @1414\n      : @597 [@dyn 322] (gas: 1)\n 16285: t0 = 646, jump @1414\n      : @598 [@dyn 323] (gas: 10)\n 16291: a3 = a2 + 0x200\n 16295: u64 [a3 + 0x40] = a0\n 16298: u64 [a3 + 0x38] = a0\n 16301: u64 [a3 + 0x30] = a0\n 16304: a1 = s1 + 0x7ff\n 16308: a1 = a1 + 0x2c1\n 16312: a0 = u64 [s1 + 0x118]\n 16316: u64 [a3 + 0x28] = a0\n 16319: a0 = 0\n 16321: ra = 648, jump @9\n      : @599 [@dyn 324] (gas: 5)\n 16327: a0 = u64 [s1 + 0xd8]\n 16331: a1 = s1 + 0x7ff\n 16335: a1 = a1 + 0x99\n 16339: a2 = a1 + 0x200\n 16343: t0 = 650, jump @1439\n      : @600 [@dyn 325] (gas: 4)\n 16349: a1 = a1 + 0x2a1\n 16353: a2 = u64 [s1 + 0xf0]\n 16357: u64 [a3 + 0x208] = a2\n 16361: ra = 652, jump @9\n      : @601 [@dyn 326] (gas: 3)\n 16367: a1 = u64 [s1 + 0x108]\n 16371: a0 = i32 [a1]\n 16373: jump @603 if a0 >u 63\n      : @602 (gas: 2)\n 16377: u32 [a1 + 0] = 0x40\n 16380: fallthrough\n      : @603 (gas: 4)\n 16381: a0 = sp + 0xffffffffffffffe0\n 16384: a0 = a0 & 0xffffffffffffffe0\n 16387: u64 [s1 + 0xf8] = a0\n 16391: t0 = 654, jump @1403\n      : @604 [@dyn 327] (gas: 5)\n 16397: ra = 0x290\n 16401: ecalli 8 // 'hash_keccak_256'\n 16403: a3 = u64 [s1 + 0xf8]\n 16407: t0 = 0x292\n 16411: jump @1429\n      : @605 [@dyn 328] (gas: 2)\n 16414: a3 = u64 [s1 + 0xf8]\n 16418: t0 = 658, jump @1429\n      : @606 [@dyn 329] (gas: 3)\n 16424: a0 = s1 + 0x7ff\n 16428: a0 = a0 + 0x281\n 16432: ra = 660, jump @11\n      : @607 [@dyn 330] (gas: 5)\n 16438: a0 = s1 + 0x7ff\n 16442: a0 = a0 + 0x99\n 16446: a0 = u64 [a0 + 0x1e8]\n 16450: a0 = a0 & 0x1\n 16453: jump @578 if a0 != 0\n      : @608 (gas: 4)\n 16457: a0 = s1 + 0x7ff\n 16461: a0 = a0 + 0x261\n 16465: a1 = u64 [s1 + 0xa8]\n 16469: ra = 662, jump @11\n      : @609 [@dyn 331] (gas: 17)\n 16475: a3 = s1 + 0x7ff\n 16479: a3 = a3 + 0x99\n 16483: a4 = a3 + 0x100\n 16487: a0 = u64 [a4 + 0xe0]\n 16491: a1 = u64 [a4 + 0xd8]\n 16495: a2 = u64 [a4 + 0xd0]\n 16499: t0 = u64 [a3 + 0x1c8]\n 16503: a4 = u64 [0x200a8]\n 16508: a5 = a0 >u 0\n 16510: a3 = a1 >u 0\n 16512: a3 = a5 if a0 != 0\n 16515: a4 = a4 <u t0\n 16518: a5 = a2 >u 0\n 16520: a5 = a4 if a2 == 0\n 16523: a4 = a1 | a0\n 16526: a5 = a3 if a4 != 0\n 16529: jump @611 if a5 != 0\n      : @610 (gas: 6)\n 16532: a0 = u64 [s1 + 0x90]\n 16536: a0 = a0 + 0x1\n 16539: a1 = u64 [s1 + 0xc0]\n 16543: a0 = a0 & a1\n 16546: u64 [s1 + 0x90] = a0\n 16550: jump @579\n      : @611 (gas: 23)\n 16553: a3 = u64 [0x200b0]\n 16558: a3 = a3 + t0\n 16561: a4 = a3 <u t0\n 16564: a5 = a2 + a4\n 16567: a5 = a5 + 0xffffffffffffffff\n 16570: t0 = a5 ^ a2\n 16573: a2 = a5 <u a2\n 16576: a2 = a4 if t0 == 0\n 16579: a4 = a1 + 0xffffffffffffffff\n 16582: a2 = a2 + a4\n 16585: a4 = a2 <u a4\n 16588: a1 = a1 <u 0x1\n 16591: a0 = a0 - a1\n 16594: a0 = a0 + a4\n 16597: a1 = s1 + 0x20b8\n 16601: a4 = a1 + 0x700\n 16605: u64 [a4 + 0x48] = a3\n 16608: u64 [a4 + 0x50] = a5\n 16611: u64 [a4 + 0x58] = a2\n 16614: u64 [a4 + 0x60] = a0\n 16617: a1 = s1 + 0x2800\n 16621: a0 = u64 [s1 + 0xa8]\n 16625: ra = 664, jump @12\n      : @612 [@dyn 332] (gas: 15)\n 16631: a0 = sp + 0xffffffffffffffe0\n 16634: a1 = a0 & 0xffffffffffffffe0\n 16637: u64 [s1 + 0xf8] = a1\n 16641: sp = a1\n 16643: a0 = u64 [s1 + 0x70]\n 16646: u64 [a1 + 0x18] = a0\n 16649: a0 = u64 [s1 + 0x78]\n 16652: u64 [a1 + 0x10] = a0\n 16655: a0 = u64 [s1 + 0x80]\n 16659: u64 [a1 + 0x8] = a0\n 16662: a0 = u64 [s1 + 0x88]\n 16666: u64 [a1] = a0\n 16668: a0 = s1 + 0x7ff\n 16672: a0 = a0 + 0x241\n 16676: ra = 666, jump @11\n      : @613 [@dyn 333] (gas: 30)\n 16682: a0 = s1 + 0x7ff\n 16686: a0 = a0 + 0x99\n 16690: a0 = u64 [a0 + 0x1a8]\n 16694: a1 = u64 [0x200a0]\n 16699: a2 = s1 + 0x7ff\n 16703: a2 = a2 + 0x99\n 16707: a2 = u64 [a2 + 0x1c0]\n 16711: a3 = s1 + 0x7ff\n 16715: a3 = a3 + 0x99\n 16719: a3 = u64 [a3 + 0x1b0]\n 16723: a4 = s1 + 0x7ff\n 16727: a4 = a4 + 0x99\n 16731: a4 = u64 [a4 + 0x1b8]\n 16735: a1 = a1 + a0\n 16738: a0 = a1 <u a0\n 16741: a5 = a3 + a0\n 16744: a3 = a5 <u a3\n 16747: a3 = a0 if a0 == 0\n 16750: a3 = a3 + a4\n 16753: a0 = a3 <u a4\n 16756: a0 = a0 + a2\n 16759: a2 = s1 + 0x20b8\n 16763: a4 = a2 + 0x700\n 16767: u64 [a4 + 0x68] = a1\n 16770: u64 [a4 + 0x70] = a5\n 16773: u64 [a4 + 0x78] = a3\n 16776: u64 [a4 + 0x80] = a0\n 16780: a1 = s1 + 0x2820\n 16784: a0 = u64 [s1 + 0xf8]\n 16788: ra = 668, jump @12\n      : @614 [@dyn 334] (gas: 9)\n 16794: a0 = u64 [s1 + 0x98]\n 16798: a0 = a0 + 0x1\n 16801: a1 = u64 [s1 + 0xc0]\n 16805: a0 = a0 & a1\n 16808: u64 [s1 + 0x98] = a0\n 16812: a0 = s1 + 0x7ff\n 16816: a0 = a0 + 0x221\n 16820: a1 = u64 [s1 + 0x100]\n 16824: ra = 670, jump @11\n      : @615 [@dyn 335] (gas: 9)\n 16830: a0 = s1 + 0x7ff\n 16834: a0 = a0 + 0x99\n 16838: a0 = u64 [a0 + 0x188]\n 16842: a0 = a0 & 0xfe\n 16846: u64 [s1 + 0xf8] = a0\n 16850: a0 = s1 + 0x7ff\n 16854: a0 = a0 + 0x201\n 16858: a1 = u64 [s1 + 0x100]\n 16862: ra = 672, jump @11\n      : @616 [@dyn 336] (gas: 25)\n 16868: a0 = s1 + 0x7ff\n 16872: a0 = a0 + 0x99\n 16876: a0 = u64 [a0 + 0x168]\n 16880: a1 = s1 + 0x7ff\n 16884: a1 = a1 + 0x99\n 16888: a1 = u64 [a1 + 0x170]\n 16892: a2 = s1 + 0x7ff\n 16896: a2 = a2 + 0x99\n 16900: a2 = u64 [a2 + 0x178]\n 16904: a3 = s1 + 0x7ff\n 16908: a3 = a3 + 0x99\n 16912: a3 = u64 [a3 + 0x180]\n 16916: a0 = a0 & 0xffffffffffffff00\n 16920: a4 = u64 [s1 + 0xf8]\n 16924: a0 = a0 | a4\n 16927: a0 = a0 + 0x1\n 16930: a4 = s1 + 0x20b8\n 16934: a5 = a4 + 0x700\n 16938: u64 [a5 + 0xa0] = a3\n 16942: u64 [a5 + 0x98] = a2\n 16946: u64 [a5 + 0x90] = a1\n 16950: u64 [a5 + 0x88] = a0\n 16954: a1 = s1 + 0x2840\n 16958: a0 = u64 [s1 + 0x100]\n 16962: ra = 674, jump @12\n      : @617 [@dyn 337] (gas: 1)\n 16968: jump @578\n      : @618 (gas: 4)\n 16971: a0 = s1 + 0x7ff\n 16975: a0 = a0 + 0x1e1\n 16979: a1 = 0x40\n 16982: ra = 676, jump @7\n      : @619 [@dyn 338] (gas: 15)\n 16988: a2 = s1 + 0x7ff\n 16992: a2 = a2 + 0x99\n 16996: t0 = u64 [a2 + 0x160]\n 17000: a0 = a2 + 0x100\n 17004: a5 = u64 [a0 + 0x58]\n 17007: a4 = u64 [a0 + 0x50]\n 17010: a3 = u64 [a0 + 0x48]\n 17013: a0 = a4 | t0\n 17016: a1 = a3 | a5\n 17019: a1 = a1 | a0\n 17022: a1 = a1 >> 0x20\n 17025: a0 = a0 | a5\n 17028: a0 = a0 << 0x20\n 17031: a0 = a0 | a1\n 17034: jump @622 if a0 != 0\n      : @620 (gas: 15)\n 17037: a0 = u64 [s1 + 0x98]\n 17041: a1 = u64 [s1 + 0xc0]\n 17045: a0 = a0 & a1\n 17048: u64 [a2 + 320] = 0\n 17052: u64 [a2 + 312] = 0\n 17056: u64 [a2 + 304] = 0\n 17060: a1 = s1 + 0x7ff\n 17064: a1 = a1 + 0x1c1\n 17068: u64 [a2 + 0x128] = a0\n 17072: a0 = a3\n 17074: u64 [s1 + 0x118] = a3\n 17078: u64 [s1 + 0x108] = a4\n 17082: u64 [s1 + 0xf8] = t0\n 17086: u64 [s1 + 0x100] = a5\n 17090: ra = 678, jump @9\n      : @621 [@dyn 339] (gas: 11)\n 17096: a4 = s1 + 0x100\n 17100: a2 = u64 [a4 + 0x18]\n 17103: a0 = u64 [a4]\n 17105: a1 = u64 [s1 + 0xf8]\n 17109: a0 = a0 | a1\n 17112: a1 = 0xffffffe0\n 17122: a1 = a2 <u a1\n 17125: a3 = u64 [a4 + 0x8]\n 17128: a1 = 0 if a3 != 0\n 17130: a1 = 0 if a0 != 0\n 17132: jump @709 if a1 != 0\n      : @622 (gas: 1)\n 17136: trap\n      : @623 (gas: 6)\n 17137: a1 = 0x20180\n 17142: i32 a1 = a1 + 0\n 17144: a0 = 0x1\n 17147: a2 = 0\n 17149: ecalli 13 // 'seal_return'\n 17151: jump @955\n      : @624 (gas: 6)\n 17154: a1 = 0x20180\n 17159: i32 a1 = a1 + 0\n 17161: a0 = 0x1\n 17164: a2 = 0\n 17166: ecalli 13 // 'seal_return'\n 17168: jump @955\n      : @625 (gas: 6)\n 17171: a1 = 0x20180\n 17176: i32 a1 = a1 + 0\n 17178: a0 = 0x1\n 17181: a2 = 0\n 17183: ecalli 13 // 'seal_return'\n 17185: jump @955\n      : @626 (gas: 6)\n 17188: a1 = 0x20180\n 17193: i32 a1 = a1 + 0\n 17195: a0 = 0x1\n 17198: a2 = 0\n 17200: ecalli 13 // 'seal_return'\n 17202: jump @955\n      : @627 (gas: 3)\n 17205: t0 = 0x2a8\n 17209: a2 = s1 + 0x10b8\n 17213: fallthrough\n      : @628 [@dyn 340] (gas: 8)\n 17214: u64 [a2 + 1048] = 0\n 17218: u64 [a2 + 1040] = 0\n 17222: a0 = 0x2c5211c600000000\n 17232: u64 [a2 + 0x420] = a0\n 17236: a1 = s1 + 0x14c0\n 17240: u64 [a2 + 1032] = 0\n 17244: a0 = 0\n 17246: ra = 682, jump @9\n      : @629 [@dyn 341] (gas: 2)\n 17252: a1 = i32 [0x20170]\n 17257: jump @631 if a1 >u 31\n      : @630 (gas: 3)\n 17261: u32 [0x20170] = 0x20\n 17267: a1 = 0x20180\n 17272: jump @700\n      : @631 (gas: 2)\n 17275: a1 = 0x20180\n 17280: jump @700\n      : @632 (gas: 3)\n 17283: t0 = 0x2ac\n 17287: a2 = s1 + 0x10b8\n 17291: fallthrough\n      : @633 [@dyn 342] (gas: 8)\n 17292: u64 [a2 + 1080] = 0\n 17296: u64 [a2 + 1072] = 0\n 17300: a0 = 0xf4d678b800000000\n 17310: u64 [a2 + 0x440] = a0\n 17314: a1 = s1 + 0x14e0\n 17318: u64 [a2 + 1064] = 0\n 17322: a0 = 0\n 17324: ra = 686, jump @9\n      : @634 [@dyn 343] (gas: 3)\n 17330: a0 = u64 [s1 + 0xb8]\n 17334: a0 = i32 [a0]\n 17336: jump @680 if a0 >u 31\n      : @635 (gas: 3)\n 17341: a1 = u64 [s1 + 0xb8]\n 17345: u32 [a1 + 0] = 0x20\n 17348: jump @680\n      : @636 (gas: 6)\n 17351: a1 = 0x20180\n 17356: i32 a1 = a1 + 0\n 17358: a0 = 0x1\n 17361: a2 = 0\n 17363: ecalli 13 // 'seal_return'\n 17365: jump @955\n      : @637 (gas: 6)\n 17368: a1 = 0x20180\n 17373: i32 a1 = a1 + 0\n 17375: a0 = 0x1\n 17378: a2 = 0\n 17380: ecalli 13 // 'seal_return'\n 17382: jump @955\n      : @638 (gas: 6)\n 17385: a1 = 0x20180\n 17390: i32 a1 = a1 + 0\n 17392: a0 = 0x1\n 17395: a2 = 0\n 17397: ecalli 13 // 'seal_return'\n 17399: jump @955\n      : @639 (gas: 6)\n 17402: a1 = 0x20180\n 17407: i32 a1 = a1 + 0\n 17409: a0 = 0x1\n 17412: a2 = 0\n 17414: ecalli 13 // 'seal_return'\n 17416: jump @955\n      : @640 (gas: 8)\n 17419: u64 [s1 + 912] = 0\n 17423: u64 [s1 + 904] = 0\n 17427: u64 [s1 + 896] = 0\n 17431: a0 = 0x2c5211c600000000\n 17441: a1 = s1 + 0x380\n 17445: u64 [s1 + 0x398] = a0\n 17449: a0 = 0\n 17451: ra = 688, jump @9\n      : @641 [@dyn 344] (gas: 2)\n 17457: a1 = i32 [0x20170]\n 17462: jump @643 if a1 >u 31\n      : @642 (gas: 3)\n 17466: u32 [0x20170] = 0x20\n 17472: a1 = 0x20180\n 17477: jump @700\n      : @643 (gas: 2)\n 17480: a1 = 0x20180\n 17485: jump @700\n      : @644 (gas: 9)\n 17488: u64 [s1 + 944] = 0\n 17492: u64 [s1 + 936] = 0\n 17496: u64 [s1 + 928] = 0\n 17500: a0 = 0xf4d678b800000000\n 17510: a1 = s1 + 0x3a0\n 17514: u64 [s1 + 0x3b8] = a0\n 17518: a0 = 0\n 17520: ra = 0x2ca\n 17524: jump @9\n      : @645 (gas: 6)\n 17527: a1 = 0x20180\n 17532: i32 a1 = a1 + 0\n 17534: a0 = 0x1\n 17537: a2 = 0\n 17539: ecalli 13 // 'seal_return'\n 17541: jump @955\n      : @646 (gas: 6)\n 17544: a1 = 0x20180\n 17549: i32 a1 = a1 + 0\n 17551: a0 = 0x1\n 17554: a2 = 0\n 17556: ecalli 13 // 'seal_return'\n 17558: jump @955\n      : @647 (gas: 3)\n 17561: t0 = 0x2b2\n 17565: a2 = s1 + 0x18b8\n 17569: fallthrough\n      : @648 [@dyn 345] (gas: 8)\n 17570: u64 [a2 + 1848] = 0\n 17574: u64 [a2 + 1840] = 0\n 17578: a0 = 0xcc67c13b00000000\n 17588: u64 [a2 + 0x740] = a0\n 17592: a1 = s1 + 0x1fe0\n 17596: u64 [a2 + 1832] = 0\n 17600: a0 = 0\n 17602: ra = 692, jump @9\n      : @649 [@dyn 346] (gas: 2)\n 17608: a1 = i32 [0x20170]\n 17613: jump @651 if a1 >u 31\n      : @650 (gas: 3)\n 17617: u32 [0x20170] = 0x20\n 17623: a1 = 0x20180\n 17628: jump @700\n      : @651 (gas: 2)\n 17631: a1 = 0x20180\n 17636: jump @700\n      : @652 (gas: 5)\n 17639: a0 = s1 + 0x18b8\n 17643: u64 [a0 + 1912] = 0\n 17647: u64 [a0 + 1904] = 0\n 17651: u64 [a0 + 1896] = 0\n 17655: t0 = 694, jump @1475\n      : @653 [@dyn 347] (gas: 5)\n 17661: i32 a1 = a1 + 0x20\n 17664: a1 = a1 + s1\n 17667: u64 [a2 + 0x780] = a0\n 17671: a0 = 0\n 17673: ra = 696, jump @9\n      : @654 [@dyn 348] (gas: 3)\n 17679: t0 = 0x2ba\n 17683: a1 = s1 + 0x18b8\n 17687: fallthrough\n      : @655 [@dyn 349] (gas: 9)\n 17688: u64 [a1 + 1888] = 0\n 17692: u64 [a1 + 1880] = 0\n 17696: u64 [a1 + 1864] = 0x11\n 17701: a2 = a1\n 17703: a0 = 0x4\n 17706: a1 = s1 + 0x2000\n 17710: u64 [a2 + 1872] = 0\n 17714: ra = 0x2d2\n 17718: jump @9\n      : @656 (gas: 6)\n 17721: a1 = 0x20180\n 17726: i32 a1 = a1 + 0\n 17728: a0 = 0x1\n 17731: a2 = 0\n 17733: ecalli 13 // 'seal_return'\n 17735: jump @955\n      : @657 (gas: 3)\n 17738: t0 = 0x2bc\n 17742: a2 = s1 + 0x18b8\n 17746: fallthrough\n      : @658 [@dyn 350] (gas: 8)\n 17747: u64 [a2 + 1528] = 0\n 17751: u64 [a2 + 1520] = 0\n 17755: a0 = 0x2c5211c600000000\n 17765: u64 [a2 + 0x600] = a0\n 17769: a1 = s1 + 0x1ea0\n 17773: u64 [a2 + 1512] = 0\n 17777: a0 = 0\n 17779: ra = 702, jump @9\n      : @659 [@dyn 351] (gas: 2)\n 17785: a1 = i32 [0x20170]\n 17790: jump @661 if a1 >u 31\n      : @660 (gas: 3)\n 17794: u32 [0x20170] = 0x20\n 17800: a1 = 0x20180\n 17805: jump @700\n      : @661 (gas: 2)\n 17808: a1 = 0x20180\n 17813: jump @700\n      : @662 (gas: 5)\n 17816: a0 = s1 + 0x18b8\n 17820: u64 [a0 + 1592] = 0\n 17824: u64 [a0 + 1584] = 0\n 17828: u64 [a0 + 1576] = 0\n 17832: t0 = 704, jump @1475\n      : @663 [@dyn 352] (gas: 5)\n 17838: i32 a1 = a1 + 0xfffffffffffffee0\n 17842: a1 = a1 + s1\n 17845: u64 [a2 + 0x640] = a0\n 17849: a0 = 0\n 17851: ra = 706, jump @9\n      : @664 [@dyn 353] (gas: 3)\n 17857: t0 = 0x2c4\n 17861: a1 = s1 + 0x18b8\n 17865: fallthrough\n      : @665 [@dyn 354] (gas: 8)\n 17866: u64 [a1 + 1568] = 0\n 17870: u64 [a1 + 1560] = 0\n 17874: u64 [a1 + 1544] = 0x11\n 17879: a2 = a1\n 17881: a0 = 0x4\n 17884: a1 = s1 + 0x1ec0\n 17888: u64 [a2 + 1552] = 0\n 17892: ra = 710, jump @9\n      : @666 [@dyn 355] (gas: 3)\n 17898: a0 = u64 [s1 + 0xd0]\n 17902: a0 = i32 [a0]\n 17904: jump @668 if a0 >u 63\n      : @667 (gas: 3)\n 17908: a1 = u64 [s1 + 0xd0]\n 17912: u32 [a1 + 0] = 0x40\n 17915: fallthrough\n      : @668 (gas: 5)\n 17916: a0 = 0x1\n 17919: a2 = 0x24\n 17922: a1 = u64 [s1 + 0xe0]\n 17926: ecalli 13 // 'seal_return'\n 17928: fallthrough\n      : @669 (gas: 6)\n 17929: a1 = 0x20180\n 17934: i32 a1 = a1 + 0\n 17936: a0 = 0x1\n 17939: a2 = 0\n 17941: ecalli 13 // 'seal_return'\n 17943: jump @955\n      : @670 (gas: 6)\n 17946: a1 = 0x20180\n 17951: i32 a1 = a1 + 0\n 17953: a0 = 0x1\n 17956: a2 = 0\n 17958: ecalli 13 // 'seal_return'\n 17960: jump @955\n      : @671 (gas: 6)\n 17963: a1 = 0x20180\n 17968: i32 a1 = a1 + 0\n 17970: a0 = 0x1\n 17973: a2 = 0\n 17975: ecalli 13 // 'seal_return'\n 17977: jump @955\n      : @672 (gas: 6)\n 17980: a1 = 0x20180\n 17985: i32 a1 = a1 + 0\n 17987: a0 = 0x1\n 17990: a2 = 0\n 17992: ecalli 13 // 'seal_return'\n 17994: jump @955\n      : @673 (gas: 8)\n 17997: u64 [s1 + 1264] = 0\n 18001: u64 [s1 + 1256] = 0\n 18005: u64 [s1 + 1248] = 0\n 18009: a0 = 0x2c5211c600000000\n 18019: a1 = s1 + 0x4e0\n 18023: u64 [s1 + 0x4f8] = a0\n 18027: a0 = 0\n 18029: ra = 712, jump @9\n      : @674 [@dyn 356] (gas: 2)\n 18035: a1 = i32 [0x20170]\n 18040: jump @676 if a1 >u 31\n      : @675 (gas: 3)\n 18044: u32 [0x20170] = 0x20\n 18050: a1 = 0x20180\n 18055: jump @700\n      : @676 (gas: 2)\n 18058: a1 = 0x20180\n 18063: jump @700\n      : @677 (gas: 8)\n 18066: u64 [s1 + 1296] = 0\n 18070: u64 [s1 + 1288] = 0\n 18074: u64 [s1 + 1280] = 0\n 18078: a0 = 0xf4d678b800000000\n 18088: a1 = s1 + 0x500\n 18092: u64 [s1 + 0x518] = a0\n 18096: a0 = 0\n 18098: ra = 714, jump @9\n      : @678 [@dyn 357] (gas: 3)\n 18104: a0 = u64 [s1 + 0xc0]\n 18108: a0 = i32 [a0]\n 18110: jump @680 if a0 >u 31\n      : @679 (gas: 3)\n 18114: a1 = u64 [s1 + 0xc0]\n 18118: u32 [a1 + 0] = 0x20\n 18121: fallthrough\n      : @680 (gas: 5)\n 18122: a0 = 0x1\n 18125: a2 = 0x4\n 18128: a1 = u64 [s1 + 0xc8]\n 18132: ecalli 13 // 'seal_return'\n 18134: fallthrough\n      : @681 (gas: 6)\n 18135: a1 = 0x20180\n 18140: i32 a1 = a1 + 0\n 18142: a0 = 0x1\n 18145: a2 = 0\n 18147: ecalli 13 // 'seal_return'\n 18149: jump @955\n      : @682 (gas: 6)\n 18152: a1 = 0x20180\n 18157: i32 a1 = a1 + 0\n 18159: a0 = 0x1\n 18162: a2 = 0\n 18164: ecalli 13 // 'seal_return'\n 18166: jump @955\n      : @683 (gas: 6)\n 18169: a1 = 0x20180\n 18174: i32 a1 = a1 + 0\n 18176: a0 = 0x1\n 18179: a2 = 0\n 18181: ecalli 13 // 'seal_return'\n 18183: jump @955\n      : @684 (gas: 6)\n 18186: a1 = 0x20180\n 18191: i32 a1 = a1 + 0\n 18193: a0 = 0x1\n 18196: a2 = 0\n 18198: ecalli 13 // 'seal_return'\n 18200: jump @955\n      : @685 (gas: 6)\n 18203: a1 = 0x20180\n 18208: i32 a1 = a1 + 0\n 18210: a0 = 0x1\n 18213: a2 = 0\n 18215: ecalli 13 // 'seal_return'\n 18217: jump @955\n      : @686 (gas: 6)\n 18220: a1 = 0x20180\n 18225: i32 a1 = a1 + 0\n 18227: a0 = 0x1\n 18230: a2 = 0\n 18232: ecalli 13 // 'seal_return'\n 18234: jump @955\n      : @687 (gas: 6)\n 18237: a1 = 0x20180\n 18242: i32 a1 = a1 + 0\n 18244: a0 = 0x1\n 18247: a2 = 0\n 18249: ecalli 13 // 'seal_return'\n 18251: jump @955\n      : @688 (gas: 6)\n 18254: a1 = 0x20180\n 18259: i32 a1 = a1 + 0\n 18261: a0 = 0x1\n 18264: a2 = 0\n 18266: ecalli 13 // 'seal_return'\n 18268: jump @955\n      : @689 (gas: 5)\n 18271: a0 = s1 + 0x18b8\n 18275: u64 [a0 + 1976] = 0\n 18279: u64 [a0 + 1968] = 0\n 18283: u64 [a0 + 1960] = 0\n 18287: t0 = 716, jump @1475\n      : @690 [@dyn 358] (gas: 5)\n 18293: i32 a1 = a1 + 0x60\n 18296: a1 = a1 + s1\n 18299: u64 [a2 + 0x7c0] = a0\n 18303: a0 = 0\n 18305: ra = 718, jump @9\n      : @691 [@dyn 359] (gas: 3)\n 18311: t0 = 0x2d0\n 18315: a1 = s1 + 0x18b8\n 18319: fallthrough\n      : @692 [@dyn 360] (gas: 8)\n 18320: u64 [a1 + 1952] = 0\n 18324: u64 [a1 + 1944] = 0\n 18328: u64 [a1 + 1928] = 0x41\n 18333: a2 = a1\n 18335: a0 = 0x4\n 18338: a1 = s1 + 0x2040\n 18342: u64 [a2 + 1936] = 0\n 18346: ra = 722, jump @9\n      : @693 [@dyn 361] (gas: 3)\n 18352: a0 = u64 [s1 + 0x48]\n 18355: a0 = i32 [a0]\n 18357: jump @695 if a0 >u 63\n      : @694 (gas: 3)\n 18361: a1 = u64 [s1 + 0x48]\n 18364: u32 [a1 + 0] = 0x40\n 18367: fallthrough\n      : @695 (gas: 5)\n 18368: a0 = 0x1\n 18371: a2 = 0x24\n 18374: a1 = u64 [s1 + 0x50]\n 18377: ecalli 13 // 'seal_return'\n 18379: fallthrough\n      : @696 (gas: 11)\n 18380: a2 = s1 + 0x7ff\n 18384: a2 = a2 + 0x99\n 18388: u64 [a2 + 1080] = 0\n 18392: u64 [a2 + 1072] = 0\n 18396: a0 = 0xd5b25b6300000000\n 18406: u64 [a2 + 0x440] = a0\n 18410: a1 = s1 + 0x7ff\n 18414: a1 = a1 + 0x4c1\n 18418: u64 [a2 + 1064] = 0\n 18422: a0 = 0\n 18424: ra = 724, jump @9\n      : @697 [@dyn 362] (gas: 2)\n 18430: a1 = i32 [0x20170]\n 18435: jump @699 if a1 >u 31\n      : @698 (gas: 3)\n 18439: u32 [0x20170] = 0x20\n 18445: a1 = 0x20180\n 18450: jump @700\n      : @699 (gas: 2)\n 18452: a1 = 0x20180\n 18457: fallthrough\n      : @700 (gas: 6)\n 18458: i32 a1 = a1 + 0\n 18460: a0 = 0x1\n 18463: a2 = 0x4\n 18466: ra = 0x2d6\n 18470: ecalli 13 // 'seal_return'\n 18472: fallthrough\n      : @701 [@dyn 363] (gas: 1)\n 18473: jump @713 if a0 != 2618616686\n      : @702 (gas: 11)\n 18481: a0 = s1 + 0x28b8\n 18485: u64 [a0 + 544] = 0\n 18489: u64 [a0 + 536] = 0\n 18493: u64 [a0 + 528] = 0\n 18497: u64 [a0 + 520] = 0\n 18501: a0 = s1 + 0x3000\n 18505: i32 a0 = a0 + 0xfffffffffffffac0\n 18509: ra = 0x2d8\n 18513: ecalli 16 // 'value_transferred'\n 18515: t0 = 0x2da\n 18519: jump @1473\n      : @703 [@dyn 364] (gas: 1)\n 18522: t0 = 730, jump @1473\n      : @704 [@dyn 365] (gas: 1)\n 18528: t0 = 732, jump @1468\n      : @705 [@dyn 366] (gas: 1)\n 18534: jump @725 if a0 == 0\n      : @706 (gas: 6)\n 18538: a1 = 0x20180\n 18543: i32 a1 = a1 + 0\n 18545: a0 = 0x1\n 18548: a2 = 0\n 18550: ecalli 13 // 'seal_return'\n 18552: jump @955\n      : @707 (gas: 6)\n 18555: a1 = 0x20180\n 18560: i32 a1 = a1 + 0\n 18562: a0 = 0x1\n 18565: a2 = 0\n 18567: ecalli 13 // 'seal_return'\n 18569: jump @955\n      : @708 (gas: 6)\n 18572: a1 = 0x20180\n 18577: i32 a1 = a1 + 0\n 18579: a0 = 0x1\n 18582: a2 = 0\n 18584: ecalli 13 // 'seal_return'\n 18586: jump @955\n      : @709 (gas: 13)\n 18589: a0 = u64 [s1 + 0x90]\n 18593: a1 = u64 [s1 + 0xc0]\n 18597: a1 = a1 & a0\n 18600: i32 a0 = a2 + 0x20\n 18603: a3 = s1 + 0x7ff\n 18607: a3 = a3 + 0x99\n 18611: u64 [a3 + 288] = 0\n 18615: u64 [a3 + 280] = 0\n 18619: u64 [a3 + 0x108] = a1\n 18623: a1 = s1 + 0x7ff\n 18627: a1 = a1 + 0x1a1\n 18631: u64 [a3 + 272] = 0\n 18635: ra = 734, jump @9\n      : @710 [@dyn 367] (gas: 6)\n 18641: a0 = u64 [s1 + 0xc8]\n 18645: ra = 0x2e0\n 18649: ecalli 4 // 'caller'\n 18651: a2 = u64 [s1 + 0xd0]\n 18655: t0 = 0x2e2\n 18659: jump @1404\n      : @711 [@dyn 368] (gas: 2)\n 18662: a2 = u64 [s1 + 0xd0]\n 18666: t0 = 738, jump @1404\n      : @712 [@dyn 369] (gas: 36)\n 18672: t0 = a1 | a0\n 18675: a3 = a3 >> 0x20\n 18678: a2 = reverse a2\n 18680: a1 = a2 << 0x20\n 18683: t1 = a1 | a3\n 18686: a2 = a2 >> 0x20\n 18689: a3 = u64 [0x200b8]\n 18694: a4 = u64 [0x200c0]\n 18699: a5 = u64 [0x200c8]\n 18704: a0 = u64 [s1 + 0xa0]\n 18708: a1 = s1 + 0x7ff\n 18712: a1 = a1 + 0x99\n 18716: u64 [a1 + 0xa8] = a0\n 18720: u64 [a1 + 0x100] = a3\n 18724: u64 [a1 + 0xf8] = a4\n 18728: u64 [a1 + 0xf0] = a5\n 18732: a3 = u64 [0x200d0]\n 18737: u64 [a1 + 192] = 0\n 18741: u64 [a1 + 184] = 0\n 18745: u64 [a1 + 176] = 0\n 18749: u64 [a1 + 0xe8] = a3\n 18753: u64 [a1 + 0xd8] = a2\n 18757: u64 [a1 + 0xd0] = t1\n 18761: u64 [a1 + 0xc8] = t0\n 18765: a0 = a1\n 18767: a1 = 0x40\n 18770: a2 = s1 + 0x7ff\n 18774: a2 = a2 + 0x181\n 18778: a3 = s1 + 0x7ff\n 18782: a3 = a3 + 0x161\n 18786: a4 = s1 + 0x7ff\n 18790: a4 = a4 + 0x141\n 18794: u64 [a0 + 224] = 0\n 18798: a0 = u64 [s1 + 0x118]\n 18802: ra = 0x3f4\n 18806: jump @15\n      : @713 (gas: 1)\n 18809: jump @727 if a0 != 2685688103\n      : @714 (gas: 11)\n 18817: a0 = s1 + 0x28b8\n 18821: u64 [a0 + 576] = 0\n 18825: u64 [a0 + 568] = 0\n 18829: u64 [a0 + 560] = 0\n 18833: u64 [a0 + 552] = 0\n 18837: a0 = s1 + 0x3000\n 18841: i32 a0 = a0 + 0xfffffffffffffae0\n 18845: ra = 0x2e4\n 18849: ecalli 16 // 'value_transferred'\n 18851: t0 = 0x2e6\n 18855: jump @1473\n      : @715 [@dyn 370] (gas: 1)\n 18858: t0 = 742, jump @1473\n      : @716 [@dyn 371] (gas: 1)\n 18864: t0 = 744, jump @1481\n      : @717 [@dyn 372] (gas: 1)\n 18870: jump @733 if a0 == 0\n      : @718 (gas: 6)\n 18874: a1 = 0x20180\n 18879: i32 a1 = a1 + 0\n 18881: a0 = 0x1\n 18884: a2 = 0\n 18886: ecalli 13 // 'seal_return'\n 18888: jump @955\n      : @719 (gas: 2)\n 18891: u64 [s1 + 216] = 0\n 18895: fallthrough\n      : @720 (gas: 5)\n 18896: a0 = u64 [s1 + 0xe8]\n 18900: a0 = a0 << 0x1\n 18903: a4 = u64 [s1 + 0xd8]\n 18907: a4 = a4 | a0\n 18910: fallthrough\n      : @721 (gas: 7)\n 18911: u64 [s1 + 856] = 0\n 18915: u64 [s1 + 848] = 0\n 18919: u64 [s1 + 840] = 0\n 18923: a1 = s1 + 0x340\n 18927: u64 [s1 + 0x340] = a4\n 18931: a0 = u64 [s1 + 0x98]\n 18935: ra = 746, jump @9\n      : @722 [@dyn 373] (gas: 3)\n 18941: a1 = 0x20\n 18944: a0 = u64 [s1 + 0x98]\n 18948: ra = 748, jump @21\n      : @723 [@dyn 374] (gas: 5)\n 18954: i32 a1 = a0 + 0\n 18956: a2 = 0x20\n 18959: a0 = 0\n 18961: ecalli 13 // 'seal_return'\n 18963: jump @725\n      : @724 (gas: 4)\n 18965: a2 = 0x20\n 18968: a0 = 0\n 18970: ecalli 13 // 'seal_return'\n 18972: fallthrough\n      : @725 (gas: 3)\n 18973: a0 = u64 [s1 + 0x118]\n 18977: a0 = i32 [a0]\n 18979: jump @735 if a0 >u 99\n      : @726 (gas: 6)\n 18984: a1 = 0x20180\n 18989: i32 a1 = a1 + 0\n 18991: a0 = 0x1\n 18994: a2 = 0\n 18996: ecalli 13 // 'seal_return'\n 18998: jump @955\n      : @727 (gas: 1)\n 19001: jump @740 if a0 != 3058722618\n      : @728 (gas: 11)\n 19009: a0 = s1 + 0x28b8\n 19013: u64 [a0 + 704] = 0\n 19017: u64 [a0 + 696] = 0\n 19021: u64 [a0 + 688] = 0\n 19025: u64 [a0 + 680] = 0\n 19029: a0 = s1 + 0x3000\n 19033: i32 a0 = a0 + 0xfffffffffffffb60\n 19037: ra = 0x2ee\n 19041: ecalli 16 // 'value_transferred'\n 19043: t0 = 0x2f0\n 19047: jump @1473\n      : @729 [@dyn 375] (gas: 1)\n 19050: t0 = 752, jump @1473\n      : @730 [@dyn 376] (gas: 1)\n 19056: t0 = 754, jump @1451\n      : @731 [@dyn 377] (gas: 1)\n 19062: jump @745 if a0 == 0\n      : @732 (gas: 6)\n 19066: a1 = 0x20180\n 19071: i32 a1 = a1 + 0\n 19073: a0 = 0x1\n 19076: a2 = 0\n 19078: ecalli 13 // 'seal_return'\n 19080: jump @955\n      : @733 (gas: 3)\n 19083: a0 = u64 [s1 + 0x118]\n 19087: a0 = i32 [a0]\n 19089: jump @748 if a0 >u 67\n      : @734 (gas: 6)\n 19094: a1 = 0x20180\n 19099: i32 a1 = a1 + 0\n 19101: a0 = 0x1\n 19104: a2 = 0\n 19106: ecalli 13 // 'seal_return'\n 19108: jump @955\n      : @735 (gas: 4)\n 19111: a0 = s1 + 0x1860\n 19115: ra = 0x2f4\n 19119: t0 = 0x57c\n 19123: jump @1462\n      : @736 [@dyn 378] (gas: 14)\n 19126: a1 = s1 + 0x10b8\n 19130: a2 = a1 + 0x700\n 19134: a0 = u64 [a2 + 0xa8]\n 19138: u64 [s1 + 0x118] = a0\n 19142: a0 = u64 [a2 + 0xb0]\n 19146: u64 [s1 + 0x110] = a0\n 19150: a0 = u64 [a2 + 0xb8]\n 19154: u64 [s1 + 0x108] = a0\n 19158: a0 = u64 [a2 + 0xc0]\n 19162: u64 [s1 + 0x100] = a0\n 19166: a0 = s1 + 0x1840\n 19170: ra = 0x2f6\n 19174: t0 = 0x580\n 19178: jump @1478\n      : @737 [@dyn 379] (gas: 14)\n 19181: a1 = s1 + 0x10b8\n 19185: a2 = a1 + 0x700\n 19189: a0 = u64 [a2 + 0x88]\n 19193: u64 [s1 + 0xf8] = a0\n 19197: a0 = u64 [a2 + 0x90]\n 19201: u64 [s1 + 0xf0] = a0\n 19205: a0 = u64 [a2 + 0x98]\n 19209: u64 [s1 + 0xe8] = a0\n 19213: a0 = u64 [a2 + 0xa0]\n 19217: u64 [s1 + 0xe0] = a0\n 19221: a0 = s1 + 0x1820\n 19225: ra = 0x2f8\n 19229: t0 = 0x586\n 19233: jump @1478\n      : @738 [@dyn 380] (gas: 31)\n 19236: a4 = s1 + 0x10b8\n 19240: a5 = a4 + 0x700\n 19244: a0 = u64 [a5 + 0x68]\n 19247: a1 = u64 [a5 + 0x70]\n 19250: a2 = u64 [a5 + 0x78]\n 19253: a3 = u64 [a5 + 0x80]\n 19257: u64 [a5 + 0x20] = a3\n 19260: u64 [a5 + 0x18] = a2\n 19263: u64 [a5 + 0x10] = a1\n 19266: u64 [a5 + 0x8] = a0\n 19269: a0 = u64 [s1 + 0xe0]\n 19273: u64 [a5 + 0x40] = a0\n 19276: a0 = u64 [s1 + 0xe8]\n 19280: u64 [a5 + 0x38] = a0\n 19283: a0 = u64 [s1 + 0xf0]\n 19287: u64 [a5 + 0x30] = a0\n 19290: a0 = u64 [s1 + 0xf8]\n 19294: u64 [a5 + 0x28] = a0\n 19297: a4 = s1 + 0x100\n 19301: a0 = u64 [a4]\n 19303: u64 [a5 + 0x60] = a0\n 19306: a0 = u64 [a4 + 0x8]\n 19309: u64 [a5 + 0x58] = a0\n 19312: a0 = u64 [a4 + 0x10]\n 19315: u64 [a5 + 0x50] = a0\n 19318: a0 = s1 + 0x1800\n 19322: a1 = s1 + 0x17e0\n 19326: a2 = s1 + 0x17c0\n 19330: a3 = u64 [a4 + 0x18]\n 19333: u64 [a5 + 0x48] = a3\n 19336: ra = 762, jump @1263\n      : @739 [@dyn 381] (gas: 6)\n 19342: a1 = 0x20180\n 19347: i32 a1 = a1 + 0\n 19349: a0 = 0\n 19351: a2 = 0\n 19353: ecalli 13 // 'seal_return'\n 19355: jump @955\n      : @740 (gas: 1)\n 19358: jump @796 if a0 != 235423050\n      : @741 (gas: 10)\n 19366: a0 = s1 + 0x20b8\n 19370: u64 [a0 + 1152] = 0\n 19374: u64 [a0 + 1144] = 0\n 19378: u64 [a0 + 1136] = 0\n 19382: u64 [a0 + 1128] = 0\n 19386: a0 = s1 + 0x2000\n 19390: i32 a0 = a0 + 0x520\n 19394: ra = 0x2fc\n 19398: ecalli 16 // 'value_transferred'\n 19400: fallthrough\n      : @742 [@dyn 382] (gas: 3)\n 19401: a3 = s1 + 0x20b8\n 19405: a4 = a3 + 0x400\n 19409: t0 = 766, jump @1480\n      : @743 [@dyn 383] (gas: 1)\n 19415: jump @802 if a0 == 0\n      : @744 (gas: 6)\n 19419: a1 = 0x20180\n 19424: i32 a1 = a1 + 0\n 19426: a0 = 0x1\n 19429: a2 = 0\n 19431: ecalli 13 // 'seal_return'\n 19433: jump @955\n      : @745 (gas: 1)\n 19436: t0 = 768, jump @1460\n      : @746 [@dyn 384] (gas: 1)\n 19442: jump @805 if a1 <u a0\n      : @747 (gas: 6)\n 19446: a1 = 0x20180\n 19451: i32 a1 = a1 + 0\n 19453: a0 = 0x1\n 19456: a2 = 0\n 19458: ecalli 13 // 'seal_return'\n 19460: jump @955\n      : @748 (gas: 4)\n 19463: a0 = s1 + 0x1c00\n 19467: ra = 0x302\n 19471: t0 = 0x590\n 19475: jump @1462\n      : @749 [@dyn 385] (gas: 7)\n 19478: a0 = s1 + 0x18b8\n 19482: a0 = u64 [a0 + 0x348]\n 19486: u64 [s1 + 0x110] = a0\n 19490: a0 = s1 + 0x1be0\n 19494: ra = 0x304\n 19498: t0 = 0x580\n 19502: jump @1478\n      : @750 [@dyn 386] (gas: 12)\n 19505: a0 = s1 + 0x18b8\n 19509: a0 = u64 [a0 + 0x328]\n 19513: u64 [s1 + 0x70] = a0\n 19516: a0 = 0x30180\n 19521: u64 [s1 + 0x88] = a0\n 19525: i32 a0 = a0 + 0\n 19527: u64 [s1 + 0x80] = a0\n 19531: ra = 0x306\n 19535: ecalli 4 // 'caller'\n 19537: a2 = u64 [s1 + 0x88]\n 19541: t0 = 0x308\n 19545: jump @1401\n      : @751 [@dyn 387] (gas: 2)\n 19548: a2 = u64 [s1 + 0x88]\n 19552: t0 = 776, jump @1401\n      : @752 [@dyn 388] (gas: 8)\n 19558: u64 [a2 + 800] = 0\n 19562: a4 = a2 + 0x300\n 19566: u64 [a4 + 0x18] = a1\n 19569: u64 [a4 + 0x10] = a0\n 19572: a1 = s1 + 0x1bc0\n 19576: u64 [a4 + 0x8] = a3\n 19579: a0 = 0\n 19581: ra = 778, jump @9\n      : @753 [@dyn 389] (gas: 3)\n 19587: t0 = 0x30c\n 19591: a1 = s1 + 0x18b8\n 19595: fallthrough\n      : @754 [@dyn 390] (gas: 8)\n 19596: u64 [a1 + 768] = 0\n 19600: u64 [a1 + 760] = 0\n 19604: u64 [a1 + 744] = 0x1\n 19609: a2 = a1\n 19611: a0 = 0x20\n 19614: a1 = s1 + 0x1ba0\n 19618: u64 [a2 + 752] = 0\n 19622: ra = 782, jump @9\n      : @755 [@dyn 391] (gas: 5)\n 19628: a0 = 0x20170\n 19633: u64 [s1 + 0x98] = a0\n 19637: a0 = i32 [0x20170]\n 19642: a1 = 0x3f\n 19645: jump @757 if a1 <u a0\n      : @756 (gas: 4)\n 19648: a1 = u64 [s1 + 0x98]\n 19652: u32 [a1 + 0] = 0x40\n 19655: t0 = 0x310\n 19659: jump @1450\n      : @757 (gas: 1)\n 19662: t0 = 784, jump @1450\n      : @758 [@dyn 392] (gas: 10)\n 19668: a0 = 0x20180\n 19673: i32 a0 = a0 + 0\n 19675: i32 a2 = a2 + 0\n 19677: a1 = 0x40\n 19680: u64 [s1 + 0x90] = a0\n 19684: ra = 0x312\n 19688: ecalli 8 // 'hash_keccak_256'\n 19690: a3 = u64 [s1 + 0x118]\n 19694: t0 = 0x314\n 19698: jump @1424\n      : @759 [@dyn 393] (gas: 2)\n 19701: a3 = u64 [s1 + 0x118]\n 19705: t0 = 788, jump @1424\n      : @760 [@dyn 394] (gas: 14)\n 19711: u64 [s1 + 0x118] = a0\n 19715: sp = a0\n 19717: a0 = u64 [s1 + 0x110]\n 19721: a0 = a0 << 0x20\n 19724: a2 = a0 >> 0x20\n 19727: a0 = s1 + 0x18b8\n 19731: u64 [a0 + 736] = 0\n 19735: u64 [a0 + 728] = 0\n 19739: u64 [a0 + 720] = 0\n 19743: a1 = s1 + 0x1b80\n 19747: u64 [s1 + 0x78] = a2\n 19750: u64 [a0 + 0x2c8] = a2\n 19754: a0 = 0\n 19756: ra = 790, jump @9\n      : @761 [@dyn 395] (gas: 14)\n 19762: a0 = u64 [s1 + 0xf0]\n 19766: a1 = s1 + 0x18b8\n 19770: a2 = a1 + 0x200\n 19774: u64 [a2 + 0xc0] = a0\n 19778: a0 = u64 [s1 + 0xf8]\n 19782: u64 [a2 + 0xb8] = a0\n 19786: a0 = u64 [s1 + 0x100]\n 19790: u64 [a2 + 0xb0] = a0\n 19794: a3 = a1\n 19796: a0 = 0x20\n 19799: a1 = s1 + 0x1b60\n 19803: a2 = u64 [s1 + 0x108]\n 19807: u64 [a3 + 0x2a8] = a2\n 19811: ra = 792, jump @9\n      : @762 [@dyn 396] (gas: 3)\n 19817: a0 = u64 [s1 + 0x98]\n 19821: a0 = i32 [a0]\n 19823: jump @764 if a0 >u 63\n      : @763 (gas: 4)\n 19827: a0 = u64 [s1 + 0x98]\n 19831: u32 [a0 + 0] = 0x40\n 19834: t0 = 0x31a\n 19838: jump @1409\n      : @764 (gas: 1)\n 19841: t0 = 794, jump @1409\n      : @765 [@dyn 397] (gas: 5)\n 19847: ra = 0x31c\n 19851: ecalli 8 // 'hash_keccak_256'\n 19853: a3 = u64 [s1 + 0x110]\n 19857: t0 = 0x31e\n 19861: jump @1415\n      : @766 [@dyn 398] (gas: 2)\n 19864: a3 = u64 [s1 + 0x110]\n 19868: t0 = 798, jump @1415\n      : @767 [@dyn 399] (gas: 11)\n 19874: a4 = u64 [s1 + 0x118]\n 19878: u64 [a4 + 0x18] = a3\n 19881: u64 [a4 + 0x10] = a2\n 19884: u64 [a4 + 0x8] = a1\n 19887: u64 [a4] = a0\n 19889: a0 = u64 [s1 + 0x80]\n 19893: ra = 0x320\n 19897: ecalli 4 // 'caller'\n 19899: a2 = u64 [s1 + 0x88]\n 19903: t0 = 0x322\n 19907: jump @1459\n      : @768 [@dyn 400] (gas: 2)\n 19910: a2 = u64 [s1 + 0x88]\n 19914: t0 = 802, jump @1459\n      : @769 [@dyn 401] (gas: 10)\n 19920: u64 [s1 + 0x110] = a1\n 19924: a0 = a0 >> 0x20\n 19927: a1 = reverse a2\n 19929: u64 [s1 + 0x108] = a1\n 19933: a1 = a1 << 0x20\n 19936: a0 = a0 | a1\n 19939: u64 [s1 + 0x100] = a0\n 19943: a0 = s1 + 0x1b40\n 19947: a1 = u64 [s1 + 0x118]\n 19951: ra = 804, jump @11\n      : @770 [@dyn 402] (gas: 2)\n 19957: a2 = s1 + 0x18b8\n 19961: fallthrough\n      : @771 (gas: 19)\n 19962: a0 = u64 [a2 + 0x290]\n 19966: a1 = u32 [a2 + 0x28c]\n 19970: a2 = u64 [a2 + 0x298]\n 19974: a3 = a0 << 0x20\n 19977: a1 = a1 | a3\n 19980: a3 = a2 << 0x20\n 19983: a0 = a0 >> 0x20\n 19986: a0 = a0 | a3\n 19989: a4 = s1 + 0x100\n 19993: a3 = u64 [a4]\n 19995: a0 = a0 ^ a3\n 19998: a3 = u64 [a4 + 0x10]\n 20001: a1 = a1 ^ a3\n 20004: a3 = u64 [a4 + 0x8]\n 20007: a2 = a2 ^ a3\n 20010: a2 = a2 >> 0x20\n 20013: a1 = a1 | a2\n 20016: a0 = a0 | a1\n 20019: jump @850 if a0 != 0\n      : @772 (gas: 4)\n 20023: a0 = s1 + 0x3000\n 20027: i32 a0 = a0 + 0xfffffffffffffb00\n 20031: ecalli 9 // 'now'\n 20033: fallthrough\n      : @773 (gas: 51)\n 20034: a0 = s1 + 0x28b8\n 20038: t0 = u64 [a0 + 0x260]\n 20042: a4 = u64 [a0 + 0x258]\n 20046: u64 [s1 + 0xd8] = a4\n 20050: t2 = u64 [a0 + 0x250]\n 20054: a3 = u64 [a0 + 0x248]\n 20058: u64 [s1 + 0xc0] = a3\n 20062: a0 = clz t0\n 20064: a1 = clz a4\n 20066: a2 = a1 + 0x40\n 20069: a2 = a0 if t0 != 0\n 20072: a0 = clz t2\n 20074: a1 = clz a3\n 20076: a1 = a1 + 0x40\n 20079: a1 = a0 if t2 != 0\n 20082: a0 = a1 + 0x80\n 20086: a3 = a4 | t0\n 20089: a2 = a0 if a3 == 0\n 20092: a5 = a0 <u a1\n 20095: a5 = 0 if a3 != 0\n 20097: a4 = a5 >u 0\n 20099: a0 = a2 <u 0xf0\n 20103: a3 = a0 ^ 0x1\n 20106: a4 = a3 if a5 == 0\n 20109: a0 = a4 <u 0x1\n 20112: ra = a0 + 0xffffffffffffffff\n 20115: t1 = -a4\n 20117: a5 = -a5\n 20119: a3 = a5 - a3\n 20122: a2 = 0xef - a2\n 20126: a5 = t1 >u 0\n 20128: a0 = ra >u 0\n 20130: a0 = a5 if ra == 0\n 20133: a5 = a2 <u 0x100\n 20137: a5 = a5 ^ 0x1\n 20140: a1 = a3 >u 0\n 20142: a5 = a1 if a3 != 0\n 20145: a5 = a0 if a4 != 0\n 20148: u64 [s1 + 0xb8] = t2\n 20152: u64 [s1 + 0xd0] = t0\n 20156: a0 = t2 | t0\n 20159: a4 = u64 [s1 + 0xc0]\n 20163: a1 = u64 [s1 + 0xd8]\n 20167: a1 = a1 | a4\n 20170: a0 = a0 | a1\n 20173: a0 = a0 <u 0x1\n 20176: a0 = a0 | a5\n 20179: a1 = a4\n 20181: a1 = 0 if a0 != 0\n 20183: u64 [s1 + 0x118] = a1\n 20187: jump @854 if a0 != 0\n      : @774 (gas: 1)\n 20191: t0 = 806, jump @1467\n      : @775 [@dyn 403] (gas: 1)\n 20197: jump @854 if a0 == 0\n      : @776 (gas: 1)\n 20201: t0 = 808, jump @1410\n      : @777 [@dyn 404] (gas: 1)\n 20207: ra = 810, jump @1482\n      : @778 [@dyn 405] (gas: 6)\n 20213: u64 [s1 + 0xc8] = a0\n 20217: u64 [s1 + 0xe8] = a1\n 20221: a0 = u64 [s1 + 0xd8]\n 20225: a1 = u64 [s1 + 0xd0]\n 20229: a2 = u64 [s1 + 0xe0]\n 20233: ra = 812, jump @1487\n      : @779 [@dyn 406] (gas: 7)\n 20239: u64 [s1 + 0xb0] = a0\n 20243: u64 [s1 + 0xa8] = a1\n 20247: a0 = u64 [s1 + 0xe0]\n 20251: a2 = a0 + 0xffffffffffffff80\n 20254: a0 = u64 [s1 + 0xc0]\n 20258: a1 = u64 [s1 + 0xb8]\n 20262: ra = 814, jump @1487\n      : @780 [@dyn 407] (gas: 8)\n 20268: u64 [s1 + 0xa0] = a0\n 20272: u64 [s1 + 0x68] = a1\n 20275: a2 = u64 [s1 + 0xe0]\n 20279: a0 = a2 <u 0x80\n 20283: u64 [s1 + 0x60] = a0\n 20286: a0 = u64 [s1 + 0xc0]\n 20290: a1 = u64 [s1 + 0xb8]\n 20294: ra = 816, jump @1487\n      : @781 [@dyn 408] (gas: 1)\n 20300: t0 = 818, jump @1476\n      : @782 [@dyn 409] (gas: 4)\n 20306: a3 = u64 [s1 + 0x60]\n 20309: a0 = 0 if a3 == 0\n 20311: u64 [s1 + 0xf8] = a0\n 20315: jump @852 if a1 == 0\n      : @783 (gas: 7)\n 20319: a2 = a3\n 20321: a0 = u64 [s1 + 0xe8]\n 20325: a1 = u64 [s1 + 0xa8]\n 20329: a0 = a0 | a1\n 20332: a5 = a3\n 20334: a1 = u64 [s1 + 0x68]\n 20337: t0 = 820, jump @1408\n      : @784 [@dyn 410] (gas: 1)\n 20343: ra = 822, jump @1482\n      : @785 [@dyn 411] (gas: 6)\n 20349: u64 [s1 + 0xc8] = a0\n 20353: u64 [s1 + 0xa0] = a1\n 20357: a0 = u64 [s1 + 0xc0]\n 20361: a1 = u64 [s1 + 0xb8]\n 20365: a2 = u64 [s1 + 0x118]\n 20369: ra = 824, jump @1482\n      : @786 [@dyn 412] (gas: 7)\n 20375: u64 [s1 + 0x68] = a0\n 20378: u64 [s1 + 0xa8] = a1\n 20382: a1 = u64 [s1 + 0x118]\n 20386: a2 = 0x80 - a1\n 20390: a0 = u64 [s1 + 0xd8]\n 20394: a1 = u64 [s1 + 0xd0]\n 20398: ra = 826, jump @1487\n      : @787 [@dyn 413] (gas: 1)\n 20404: t0 = 828, jump @1448\n      : @788 [@dyn 414] (gas: 2)\n 20410: a1 = u64 [s1 + 0x68]\n 20413: t0 = 830, jump @1479\n      : @789 [@dyn 415] (gas: 1)\n 20419: ra = 832, jump @1482\n      : @790 [@dyn 416] (gas: 1)\n 20425: t0 = 834, jump @1425\n      : @791 [@dyn 417] (gas: 1)\n 20431: t0 = 836, jump @1436\n      : @792 [@dyn 418] (gas: 5)\n 20437: t0 = ra <u a2\n 20440: a4 = u64 [s1 + 0xa8]\n 20444: a5 = a4 <u a3\n 20447: a5 = t0 if t1 != 0\n 20450: t0 = 838, jump @1441\n      : @793 [@dyn 419] (gas: 20)\n 20456: t0 = a0 | a1\n 20459: a1 = a4 << 0x1\n 20462: a4 = u64 [s1 + 0xf0]\n 20466: t1 = a4 >> 0x3f\n 20469: t1 = a1 | t1\n 20472: a1 = a4 << 0x1\n 20475: a4 = u64 [s1 + 0xf8]\n 20479: t2 = a4 >> 0x3f\n 20482: a1 = a1 | t2\n 20485: a4 = a4 << 0x1\n 20488: a0 = u64 [s1 + 0xd8]\n 20492: a4 = a4 | a0\n 20495: u64 [s1 + 0xf8] = a4\n 20499: a0 = u64 [s1 + 0xd0]\n 20503: a1 = a1 | a0\n 20506: u64 [s1 + 0xf0] = a1\n 20510: a1 = a0 | t1\n 20513: u64 [s1 + 0xe0] = a1\n 20517: a0 = a0 | t0\n 20520: t0 = 840, jump @1406\n      : @794 [@dyn 420] (gas: 18)\n 20526: t0 = a4 <u a2\n 20529: a2 = a4 - a2\n 20532: a4 = a3 <u 0x1\n 20535: a5 = a5 - a4\n 20538: a4 = u64 [a0 + 0x8]\n 20541: a4 = a4 - t0\n 20544: a3 = a3 + 0xffffffffffffffff\n 20547: u64 [a0 + 0x10] = a5\n 20550: u64 [a0 + 0x8] = a4\n 20553: t0 = a5 | a4\n 20556: u64 [a0 + 0x18] = a3\n 20559: a4 = a3 | a2\n 20562: a3 = a4 | t0\n 20565: a4 = ra & 0x1\n 20568: u64 [s1 + 0xd8] = a4\n 20572: u64 [a0] = a2\n 20574: u64 [s1 + 208] = 0\n 20578: jump @791 if a3 != 0\n      : @795 (gas: 1)\n 20582: jump @853\n      : @796 (gas: 1)\n 20585: jump @877 if a0 != 1158823118\n      : @797 (gas: 11)\n 20593: a0 = s1 + 0x20b8\n 20597: u64 [a0 + 1600] = 0\n 20601: u64 [a0 + 1592] = 0\n 20605: u64 [a0 + 1584] = 0\n 20609: u64 [a0 + 1576] = 0\n 20613: a0 = s1 + 0x2000\n 20617: i32 a0 = a0 + 0x6e0\n 20621: ra = 0x34a\n 20625: ecalli 16 // 'value_transferred'\n 20627: t0 = 0x34c\n 20631: jump @1470\n      : @798 [@dyn 421] (gas: 1)\n 20634: t0 = 844, jump @1470\n      : @799 [@dyn 422] (gas: 1)\n 20640: t0 = 846, jump @1481\n      : @800 [@dyn 423] (gas: 1)\n 20646: jump @882 if a0 == 0\n      : @801 (gas: 6)\n 20650: a1 = 0x20180\n 20655: i32 a1 = a1 + 0\n 20657: a0 = 0x1\n 20660: a2 = 0\n 20662: ecalli 13 // 'seal_return'\n 20664: jump @955\n      : @802 (gas: 1)\n 20667: t0 = 848, jump @1460\n      : @803 [@dyn 424] (gas: 1)\n 20673: jump @884 if a1 <u a0\n      : @804 (gas: 6)\n 20677: a1 = 0x20180\n 20682: i32 a1 = a1 + 0\n 20684: a0 = 0x1\n 20687: a2 = 0\n 20689: ecalli 13 // 'seal_return'\n 20691: jump @955\n      : @805 (gas: 4)\n 20694: a0 = s1 + 0x1e80\n 20698: ra = 0x352\n 20702: t0 = 0x590\n 20706: jump @1462\n      : @806 [@dyn 425] (gas: 12)\n 20709: a0 = s1 + 0x18b8\n 20713: a0 = u64 [a0 + 0x5c8]\n 20717: u64 [s1 + 0xf0] = a0\n 20721: a0 = 0x30180\n 20726: u64 [s1 + 0x108] = a0\n 20730: i32 a0 = a0 + 0\n 20732: u64 [s1 + 0x100] = a0\n 20736: ra = 0x354\n 20740: ecalli 4 // 'caller'\n 20742: a2 = u64 [s1 + 0x108]\n 20746: t0 = 0x356\n 20750: jump @1401\n      : @807 [@dyn 426] (gas: 2)\n 20753: a2 = u64 [s1 + 0x108]\n 20757: t0 = 854, jump @1401\n      : @808 [@dyn 427] (gas: 8)\n 20763: u64 [a2 + 1472] = 0\n 20767: a4 = a2 + 0x500\n 20771: u64 [a4 + 0xb8] = a1\n 20775: u64 [a4 + 0xb0] = a0\n 20779: a1 = s1 + 0x1e60\n 20783: u64 [a4 + 0xa8] = a3\n 20787: a0 = 0\n 20789: ra = 856, jump @9\n      : @809 [@dyn 428] (gas: 3)\n 20795: t0 = 0x35a\n 20799: a1 = s1 + 0x18b8\n 20803: fallthrough\n      : @810 [@dyn 429] (gas: 8)\n 20804: u64 [a1 + 1440] = 0\n 20808: u64 [a1 + 1432] = 0\n 20812: u64 [a1 + 1416] = 0x1\n 20817: a2 = a1\n 20819: a0 = 0x20\n 20822: a1 = s1 + 0x1e40\n 20826: u64 [a2 + 1424] = 0\n 20830: ra = 860, jump @9\n      : @811 [@dyn 430] (gas: 4)\n 20836: a0 = 0x20170\n 20841: u64 [s1 + 0x118] = a0\n 20845: a0 = i32 [0x20170]\n 20850: jump @813 if a0 >u 63\n      : @812 (gas: 1)\n 20854: t0 = 862, jump @1461\n      : @813 [@dyn 431] (gas: 14)\n 20860: a0 = sp + 0xffffffffffffffe0\n 20863: a2 = a0 & 0xffffffffffffffe0\n 20866: u64 [s1 + 0xf8] = a2\n 20870: sp = a2\n 20872: a0 = 0x20180\n 20877: i32 a0 = a0 + 0\n 20879: i32 a2 = a2 + 0\n 20881: a1 = 0x40\n 20884: u64 [s1 + 0x110] = a0\n 20888: ra = 0x360\n 20892: ecalli 8 // 'hash_keccak_256'\n 20894: a3 = u64 [s1 + 0xf8]\n 20898: t0 = 0x362\n 20902: jump @1427\n      : @814 [@dyn 432] (gas: 2)\n 20905: a3 = u64 [s1 + 0xf8]\n 20909: t0 = 866, jump @1427\n      : @815 [@dyn 433] (gas: 14)\n 20915: u64 [s1 + 0xf8] = a0\n 20919: sp = a0\n 20921: a0 = u64 [s1 + 0xf0]\n 20925: a0 = a0 << 0x20\n 20928: a2 = a0 >> 0x20\n 20931: a0 = s1 + 0x18b8\n 20935: u64 [a0 + 1408] = 0\n 20939: u64 [a0 + 1400] = 0\n 20943: u64 [a0 + 1392] = 0\n 20947: a1 = s1 + 0x1e20\n 20951: u64 [s1 + 0xf0] = a2\n 20955: u64 [a0 + 0x568] = a2\n 20959: a0 = 0\n 20961: ra = 868, jump @9\n      : @816 [@dyn 434] (gas: 14)\n 20967: a0 = u64 [s1 + 0xd0]\n 20971: a1 = s1 + 0x18b8\n 20975: a2 = a1 + 0x500\n 20979: u64 [a2 + 0x60] = a0\n 20982: a0 = u64 [s1 + 0xd8]\n 20986: u64 [a2 + 0x58] = a0\n 20989: a0 = u64 [s1 + 0xe0]\n 20993: u64 [a2 + 0x50] = a0\n 20996: a3 = a1\n 20998: a0 = 0x20\n 21001: a1 = s1 + 0x1e00\n 21005: a2 = u64 [s1 + 0xe8]\n 21009: u64 [a3 + 0x548] = a2\n 21013: ra = 870, jump @9\n      : @817 [@dyn 435] (gas: 1)\n 21019: t0 = 872, jump @1446\n      : @818 [@dyn 436] (gas: 1)\n 21025: jump @820 if a1 <u a0\n      : @819 (gas: 1)\n 21028: t0 = 874, jump @1469\n      : @820 [@dyn 437] (gas: 4)\n 21034: a0 = sp + 0xffffffffffffffe0\n 21037: a0 = a0 & 0xffffffffffffffe0\n 21040: u64 [s1 + 0xe8] = a0\n 21044: t0 = 876, jump @1403\n      : @821 [@dyn 438] (gas: 5)\n 21050: ra = 0x36e\n 21054: ecalli 8 // 'hash_keccak_256'\n 21056: a3 = u64 [s1 + 0xe8]\n 21060: t0 = 0x370\n 21064: jump @1415\n      : @822 [@dyn 439] (gas: 2)\n 21067: a3 = u64 [s1 + 0xe8]\n 21071: t0 = 880, jump @1415\n      : @823 [@dyn 440] (gas: 11)\n 21077: a4 = u64 [s1 + 0xf8]\n 21081: u64 [a4 + 0x18] = a3\n 21084: u64 [a4 + 0x10] = a2\n 21087: u64 [a4 + 0x8] = a1\n 21090: u64 [a4] = a0\n 21092: a0 = u64 [s1 + 0x100]\n 21096: ra = 0x372\n 21100: ecalli 4 // 'caller'\n 21102: a2 = u64 [s1 + 0x108]\n 21106: t0 = 0x374\n 21110: jump @1459\n      : @824 [@dyn 441] (gas: 2)\n 21113: a2 = u64 [s1 + 0x108]\n 21117: t0 = 884, jump @1459\n      : @825 [@dyn 442] (gas: 10)\n 21123: u64 [s1 + 0xe8] = a1\n 21127: a0 = a0 >> 0x20\n 21130: a1 = reverse a2\n 21132: u64 [s1 + 0xe0] = a1\n 21136: a1 = a1 << 0x20\n 21139: a0 = a0 | a1\n 21142: u64 [s1 + 0xd8] = a0\n 21146: a0 = s1 + 0x1de0\n 21150: a1 = u64 [s1 + 0xf8]\n 21154: ra = 886, jump @11\n      : @826 [@dyn 443] (gas: 2)\n 21160: a2 = s1 + 0x18b8\n 21164: fallthrough\n      : @827 (gas: 18)\n 21165: a0 = u64 [a2 + 0x530]\n 21169: a1 = u32 [a2 + 0x52c]\n 21173: a2 = u64 [a2 + 0x538]\n 21177: a3 = a0 << 0x20\n 21180: a1 = a1 | a3\n 21183: a3 = a2 << 0x20\n 21186: a0 = a0 >> 0x20\n 21189: a0 = a0 | a3\n 21192: a3 = u64 [s1 + 0xd8]\n 21196: a0 = a0 ^ a3\n 21199: a3 = u64 [s1 + 0xe8]\n 21203: a1 = a1 ^ a3\n 21206: a3 = u64 [s1 + 0xe0]\n 21210: a2 = a2 ^ a3\n 21213: a2 = a2 >> 0x20\n 21216: a1 = a1 | a2\n 21219: a0 = a0 | a1\n 21222: jump @896 if a0 != 0\n      : @828 (gas: 6)\n 21226: a0 = u64 [s1 + 0x100]\n 21230: ra = 0x378\n 21234: ecalli 4 // 'caller'\n 21236: a2 = u64 [s1 + 0x108]\n 21240: t0 = 0x37a\n 21244: jump @1401\n      : @829 [@dyn 444] (gas: 2)\n 21247: a2 = u64 [s1 + 0x108]\n 21251: t0 = 890, jump @1401\n      : @830 [@dyn 445] (gas: 8)\n 21257: u64 [a2 + 1280] = 0\n 21261: a4 = a2 + 0x400\n 21265: u64 [a4 + 0xf8] = a1\n 21269: u64 [a4 + 0xf0] = a0\n 21273: a1 = s1 + 0x1da0\n 21277: u64 [a4 + 0xe8] = a3\n 21281: a0 = 0\n 21283: ra = 892, jump @9\n      : @831 [@dyn 446] (gas: 3)\n 21289: t0 = 0x37e\n 21293: a1 = s1 + 0x18b8\n 21297: fallthrough\n      : @832 [@dyn 447] (gas: 8)\n 21298: u64 [a1 + 1248] = 0\n 21302: u64 [a1 + 1240] = 0\n 21306: u64 [a1 + 1224] = 0x1\n 21311: a2 = a1\n 21313: a0 = 0x20\n 21316: a1 = s1 + 0x1d80\n 21320: u64 [a2 + 1232] = 0\n 21324: ra = 896, jump @9\n      : @833 [@dyn 448] (gas: 1)\n 21330: t0 = 898, jump @1446\n      : @834 [@dyn 449] (gas: 1)\n 21336: jump @836 if a1 <u a0\n      : @835 (gas: 1)\n 21339: t0 = 900, jump @1461\n      : @836 [@dyn 450] (gas: 4)\n 21345: a0 = sp + 0xffffffffffffffe0\n 21348: a0 = a0 & 0xffffffffffffffe0\n 21351: u64 [s1 + 0xf8] = a0\n 21355: t0 = 902, jump @1403\n      : @837 [@dyn 451] (gas: 4)\n 21361: ra = 0x388\n 21365: ecalli 8 // 'hash_keccak_256'\n 21367: t0 = 0x38a\n 21371: jump @1477\n      : @838 [@dyn 452] (gas: 1)\n 21374: t0 = 906, jump @1477\n      : @839 [@dyn 453] (gas: 8)\n 21380: u64 [s1 + 0xe8] = a0\n 21384: a0 = reverse a2\n 21386: u64 [s1 + 0xe0] = a0\n 21390: a0 = reverse a3\n 21392: u64 [s1 + 0xd8] = a0\n 21396: t0 = 0x38c\n 21400: a2 = s1 + 0x18b8\n 21404: fallthrough\n      : @840 [@dyn 454] (gas: 8)\n 21405: u64 [a2 + 1216] = 0\n 21409: u64 [a2 + 1208] = 0\n 21413: u64 [a2 + 1200] = 0\n 21417: a1 = s1 + 0x1d60\n 21421: a0 = u64 [s1 + 0xf0]\n 21425: u64 [a2 + 0x4a8] = a0\n 21429: a0 = 0\n 21431: ra = 910, jump @9\n      : @841 [@dyn 455] (gas: 14)\n 21437: a0 = u64 [s1 + 0xd8]\n 21441: a1 = s1 + 0x18b8\n 21445: a2 = a1 + 0x400\n 21449: u64 [a2 + 0xa0] = a0\n 21453: a0 = u64 [s1 + 0xe0]\n 21457: u64 [a2 + 0x98] = a0\n 21461: a0 = u64 [s1 + 0xe8]\n 21465: u64 [a2 + 0x90] = a0\n 21469: a3 = a1\n 21471: a0 = 0x20\n 21474: a1 = s1 + 0x1d40\n 21478: a2 = u64 [s1 + 0xf8]\n 21482: u64 [a3 + 0x488] = a2\n 21486: ra = 912, jump @9\n      : @842 [@dyn 456] (gas: 1)\n 21492: t0 = 914, jump @1446\n      : @843 [@dyn 457] (gas: 1)\n 21498: jump @845 if a1 <u a0\n      : @844 (gas: 1)\n 21501: t0 = 916, jump @1469\n      : @845 [@dyn 458] (gas: 4)\n 21507: a0 = sp + 0xffffffffffffffe0\n 21510: a0 = a0 & 0xffffffffffffffe0\n 21513: u64 [s1 + 0xf8] = a0\n 21517: t0 = 918, jump @1403\n      : @846 [@dyn 459] (gas: 28)\n 21523: ecalli 8 // 'hash_keccak_256'\n 21525: a3 = u64 [s1 + 0xf8]\n 21529: a0 = u64 [a3]\n 21531: a1 = u64 [a3 + 0x8]\n 21534: a2 = u64 [a3 + 0x10]\n 21537: a3 = u64 [a3 + 0x18]\n 21540: t0 = reverse a0\n 21542: a0 = reverse a1\n 21544: a2 = reverse a2\n 21546: a3 = reverse a3\n 21548: a4 = sp + 0xffffffffffffffe0\n 21551: a1 = a4 & 0xffffffffffffffe0\n 21554: sp = a1\n 21556: a4 = a3 + 0x2\n 21559: a3 = a4 <u a3\n 21562: a5 = a2 + a3\n 21565: a2 = a5 <u a2\n 21568: a2 = a3 if a3 == 0\n 21571: a2 = a2 + a0\n 21574: a0 = a2 <u a0\n 21577: a0 = a0 + t0\n 21580: u64 [a1 + 0x8] = a5\n 21583: u64 [a1] = a4\n 21585: u64 [a1 + 0x10] = a2\n 21588: u64 [a1 + 0x18] = a0\n 21591: a0 = s1 + 0x1d20\n 21595: u64 [s1 + 0xf8] = a1\n 21599: ra = 920, jump @11\n      : @847 [@dyn 460] (gas: 4)\n 21605: a0 = s1 + 0x18b8\n 21609: a0 = u64 [a0 + 0x470]\n 21613: a1 = a0 & 0xff\n 21617: jump @901 if a1 == 0\n      : @848 (gas: 3)\n 21621: t0 = 0x39a\n 21625: a2 = s1 + 0x18b8\n 21629: fallthrough\n      : @849 [@dyn 461] (gas: 9)\n 21630: u64 [a2 + 1112] = 0\n 21634: u64 [a2 + 1104] = 0\n 21638: a0 = 0xc1c184c800000000\n 21648: u64 [a2 + 0x460] = a0\n 21652: a1 = s1 + 0x1d00\n 21656: u64 [a2 + 1096] = 0\n 21660: a0 = 0\n 21662: ra = 0x3d4\n 21666: jump @9\n      : @850 (gas: 3)\n 21669: t0 = 0x39c\n 21673: a2 = s1 + 0x18b8\n 21677: fallthrough\n      : @851 [@dyn 462] (gas: 9)\n 21678: u64 [a2 + 632] = 0\n 21682: u64 [a2 + 624] = 0\n 21686: a0 = 0x6f1cf7db00000000\n 21696: u64 [a2 + 0x280] = a0\n 21700: a1 = s1 + 0x1b20\n 21704: u64 [a2 + 616] = 0\n 21708: a0 = 0\n 21710: ra = 0x4da\n 21714: jump @9\n      : @852 (gas: 2)\n 21717: u64 [s1 + 216] = 0\n 21721: fallthrough\n      : @853 (gas: 6)\n 21722: a0 = u64 [s1 + 0xf8]\n 21726: a0 = a0 << 0x1\n 21729: a1 = u64 [s1 + 0xd8]\n 21733: a0 = a0 | a1\n 21736: u64 [s1 + 0x118] = a0\n 21740: fallthrough\n      : @854 (gas: 3)\n 21741: a0 = u64 [s1 + 0x70]\n 21744: a1 = u64 [s1 + 0x118]\n 21748: jump @919 if a0 != a1\n      : @855 (gas: 6)\n 21752: a0 = u64 [s1 + 0x80]\n 21756: ra = 0x39e\n 21760: ecalli 4 // 'caller'\n 21762: a2 = u64 [s1 + 0x88]\n 21766: t0 = 0x3a0\n 21770: jump @1401\n      : @856 [@dyn 463] (gas: 2)\n 21773: a2 = u64 [s1 + 0x88]\n 21777: t0 = 928, jump @1401\n      : @857 [@dyn 464] (gas: 8)\n 21783: u64 [a2 + 576] = 0\n 21787: a4 = a2 + 0x200\n 21791: u64 [a4 + 0x38] = a1\n 21794: u64 [a4 + 0x30] = a0\n 21797: a1 = s1 + 0x1ae0\n 21801: u64 [a4 + 0x28] = a3\n 21804: a0 = 0\n 21806: ra = 930, jump @9\n      : @858 [@dyn 465] (gas: 3)\n 21812: t0 = 0x3a4\n 21816: a1 = s1 + 0x18b8\n 21820: fallthrough\n      : @859 [@dyn 466] (gas: 8)\n 21821: u64 [a1 + 544] = 0\n 21825: u64 [a1 + 536] = 0\n 21829: u64 [a1 + 520] = 0x1\n 21834: a2 = a1\n 21836: a0 = 0x20\n 21839: a1 = s1 + 0x1ac0\n 21843: u64 [a2 + 528] = 0\n 21847: ra = 934, jump @9\n      : @860 [@dyn 467] (gas: 3)\n 21853: a0 = u64 [s1 + 0x98]\n 21857: a0 = i32 [a0]\n 21859: jump @862 if a0 >u 63\n      : @861 (gas: 4)\n 21863: a1 = u64 [s1 + 0x98]\n 21867: u32 [a1 + 0] = 0x40\n 21870: t0 = 0x3a8\n 21874: jump @1409\n      : @862 (gas: 1)\n 21877: t0 = 936, jump @1409\n      : @863 [@dyn 468] (gas: 4)\n 21883: ra = 0x3aa\n 21887: ecalli 8 // 'hash_keccak_256'\n 21889: t0 = 0x3ac\n 21893: jump @1417\n      : @864 [@dyn 469] (gas: 1)\n 21896: t0 = 940, jump @1417\n      : @865 [@dyn 470] (gas: 8)\n 21902: u64 [a2 + 512] = 0\n 21906: u64 [a2 + 504] = 0\n 21910: u64 [a2 + 496] = 0\n 21914: a1 = s1 + 0x1aa0\n 21918: a0 = u64 [s1 + 0x78]\n 21921: u64 [a2 + 0x1e8] = a0\n 21925: a0 = 0\n 21927: ra = 942, jump @9\n      : @866 [@dyn 471] (gas: 15)\n 21933: a0 = u64 [s1 + 0xf8]\n 21937: a1 = s1 + 0x18b8\n 21941: a2 = a1 + 0x100\n 21945: u64 [a2 + 0xe0] = a0\n 21949: a4 = s1 + 0x100\n 21953: a0 = u64 [a4]\n 21955: u64 [a2 + 0xd8] = a0\n 21959: a0 = u64 [a4 + 0x8]\n 21962: u64 [a2 + 0xd0] = a0\n 21966: a3 = a1\n 21968: a0 = 0x20\n 21971: a1 = s1 + 0x1a80\n 21975: a2 = u64 [a4 + 0x10]\n 21978: u64 [a3 + 0x1c8] = a2\n 21982: ra = 944, jump @9\n      : @867 [@dyn 472] (gas: 3)\n 21988: a0 = u64 [s1 + 0x98]\n 21992: a0 = i32 [a0]\n 21994: jump @869 if a0 >u 63\n      : @868 (gas: 4)\n 21998: a0 = u64 [s1 + 0x98]\n 22002: u32 [a0 + 0] = 0x40\n 22005: t0 = 0x3b2\n 22009: jump @1409\n      : @869 (gas: 1)\n 22012: t0 = 946, jump @1409\n      : @870 [@dyn 473] (gas: 4)\n 22018: ra = 0x3b4\n 22022: ecalli 8 // 'hash_keccak_256'\n 22024: t0 = 0x3b6\n 22028: jump @1445\n      : @871 [@dyn 474] (gas: 1)\n 22031: t0 = 950, jump @1445\n      : @872 [@dyn 475] (gas: 2)\n 22037: a4 = a3 + 0x2\n 22040: t0 = 952, jump @1416\n      : @873 [@dyn 476] (gas: 9)\n 22046: a1 = s1 + 0x28b8\n 22050: a3 = a1 + 0x200\n 22054: u64 [a3 + 0x68] = a4\n 22057: u64 [a3 + 0x70] = a5\n 22060: u64 [a3 + 0x78] = a2\n 22063: u64 [a3 + 0x80] = a0\n 22067: a0 = s1 + 0x1a60\n 22071: a1 = s1 + 0x2b20\n 22075: ra = 954, jump @11\n      : @874 [@dyn 477] (gas: 3)\n 22081: a0 = s1 + 0x18b8\n 22085: a0 = u8 [a0 + 0x1b0]\n 22089: jump @921 if a0 == 0\n      : @875 (gas: 3)\n 22093: t0 = 0x3bc\n 22097: a2 = s1 + 0x18b8\n 22101: fallthrough\n      : @876 [@dyn 478] (gas: 9)\n 22102: u64 [a2 + 408] = 0\n 22106: u64 [a2 + 400] = 0\n 22110: a0 = 0xa7a9536d00000000\n 22120: u64 [a2 + 0x1a0] = a0\n 22124: a1 = s1 + 0x1a40\n 22128: u64 [a2 + 392] = 0\n 22132: a0 = 0\n 22134: ra = 0x4da\n 22138: jump @9\n      : @877 (gas: 1)\n 22141: jump @949 if a0 != 1229702701\n      : @878 (gas: 13)\n 22149: a0 = s1 + 0x20b8\n 22153: u64 [a0 + 1984] = 0\n 22157: u64 [a0 + 1976] = 0\n 22161: u64 [a0 + 1968] = 0\n 22165: u64 [a0 + 1960] = 0\n 22169: a0 = s1 + 0x3000\n 22173: i32 a0 = a0 + 0xfffffffffffff860\n 22177: ra = 0x3be\n 22181: ecalli 16 // 'value_transferred'\n 22183: a3 = s1 + 0x20b8\n 22187: a4 = a3 + 0x700\n 22191: t0 = 0x3c0\n 22195: jump @1451\n      : @879 [@dyn 479] (gas: 3)\n 22198: a3 = s1 + 0x20b8\n 22202: a4 = a3 + 0x700\n 22206: t0 = 960, jump @1451\n      : @880 [@dyn 480] (gas: 1)\n 22212: jump @955 if a0 == 0\n      : @881 (gas: 6)\n 22216: a1 = 0x20180\n 22221: i32 a1 = a1 + 0\n 22223: a0 = 0x1\n 22226: a2 = 0\n 22228: ecalli 13 // 'seal_return'\n 22230: jump @955\n      : @882 (gas: 3)\n 22233: a0 = u64 [s1 + 0x118]\n 22237: a0 = i32 [a0]\n 22239: jump @957 if a0 >u 99\n      : @883 (gas: 6)\n 22244: a1 = 0x20180\n 22249: i32 a1 = a1 + 0\n 22251: a0 = 0x1\n 22254: a2 = 0\n 22256: ecalli 13 // 'seal_return'\n 22258: jump @955\n      : @884 (gas: 4)\n 22261: a0 = s1 + 0x1a0\n 22265: ra = 0x3c2\n 22269: t0 = 0x57c\n 22273: jump @1462\n      : @885 [@dyn 481] (gas: 10)\n 22276: a0 = u64 [s1 + 0x1a0]\n 22280: a1 = u64 [s1 + 0x1a8]\n 22284: a2 = u32 [s1 + 0x1b0]\n 22288: u64 [s1 + 408] = 0\n 22292: u64 [s1 + 0x190] = a2\n 22296: u64 [s1 + 0x188] = a1\n 22300: a1 = s1 + 0x180\n 22304: u64 [s1 + 0x180] = a0\n 22308: a0 = 0\n 22310: ra = 964, jump @9\n      : @886 [@dyn 482] (gas: 7)\n 22316: u64 [s1 + 376] = 0\n 22320: u64 [s1 + 368] = 0\n 22324: u64 [s1 + 352] = 0x2\n 22329: a0 = 0x20\n 22332: a1 = s1 + 0x160\n 22336: u64 [s1 + 360] = 0\n 22340: ra = 966, jump @9\n      : @887 [@dyn 483] (gas: 4)\n 22346: a0 = 0x20170\n 22351: u64 [s1 + 0x118] = a0\n 22355: a0 = i32 [0x20170]\n 22360: jump @889 if a0 >u 63\n      : @888 (gas: 1)\n 22364: t0 = 968, jump @1461\n      : @889 [@dyn 484] (gas: 14)\n 22370: a0 = sp + 0xffffffffffffffe0\n 22373: a2 = a0 & 0xffffffffffffffe0\n 22376: u64 [s1 + 0x108] = a2\n 22380: sp = a2\n 22382: a0 = 0x20180\n 22387: u64 [s1 + 0x110] = a0\n 22391: i32 a0 = a0 + 0\n 22393: i32 a2 = a2 + 0\n 22395: a1 = 0x40\n 22398: ra = 0x3ca\n 22402: ecalli 8 // 'hash_keccak_256'\n 22404: a3 = u64 [s1 + 0x108]\n 22408: t0 = 0x3cc\n 22412: jump @1438\n      : @890 [@dyn 485] (gas: 2)\n 22415: a3 = u64 [s1 + 0x108]\n 22419: t0 = 972, jump @1438\n      : @891 [@dyn 486] (gas: 8)\n 22425: a5 = a4 + 0x400\n 22429: u64 [a5 + 0xa0] = a3\n 22433: u64 [a5 + 0x98] = a2\n 22437: u64 [a5 + 0x90] = a1\n 22441: u64 [a5 + 0x88] = a0\n 22445: a0 = s1 + 0x140\n 22449: a1 = s1 + 0x2540\n 22453: ra = 974, jump @11\n      : @892 [@dyn 487] (gas: 8)\n 22459: a0 = u32 [s1 + 0x140]\n 22463: u64 [s1 + 312] = 0\n 22467: u64 [s1 + 304] = 0\n 22471: u64 [s1 + 0x120] = a0\n 22475: a0 = 0x80\n 22479: a1 = s1 + 0x120\n 22483: u64 [s1 + 296] = 0\n 22487: ra = 976, jump @9\n      : @893 [@dyn 488] (gas: 3)\n 22493: a0 = u64 [s1 + 0x118]\n 22497: a0 = i32 [a0]\n 22499: jump @895 if a0 >u 159\n      : @894 (gas: 5)\n 22504: a1 = u64 [s1 + 0x118]\n 22508: u32 [a1 + 0] = 0xa0\n 22512: a0 = u64 [s1 + 0x110]\n 22516: i32 a1 = a0 + 0x80\n 22520: jump @724\n      : @895 (gas: 3)\n 22523: a0 = u64 [s1 + 0x110]\n 22527: i32 a1 = a0 + 0x80\n 22531: jump @724\n      : @896 (gas: 3)\n 22534: t0 = 0x3d2\n 22538: a2 = s1 + 0x18b8\n 22542: fallthrough\n      : @897 [@dyn 489] (gas: 8)\n 22543: u64 [a2 + 1304] = 0\n 22547: u64 [a2 + 1296] = 0\n 22551: a0 = 0x6f1cf7db00000000\n 22561: u64 [a2 + 0x520] = a0\n 22565: a1 = s1 + 0x1dc0\n 22569: u64 [a2 + 1288] = 0\n 22573: a0 = 0\n 22575: ra = 980, jump @9\n      : @898 [@dyn 490] (gas: 3)\n 22581: a0 = u64 [s1 + 0x118]\n 22585: a0 = i32 [a0]\n 22587: jump @900 if a0 >u 31\n      : @899 (gas: 3)\n 22591: a1 = u64 [s1 + 0x118]\n 22595: u32 [a1 + 0] = 0x20\n 22598: fallthrough\n      : @900 (gas: 5)\n 22599: a0 = 0x1\n 22602: a2 = 0x4\n 22605: a1 = u64 [s1 + 0x110]\n 22609: ecalli 13 // 'seal_return'\n 22611: fallthrough\n      : @901 (gas: 17)\n 22612: a1 = 0xffffffff\n 22622: u64 [s1 + 0xe8] = a1\n 22626: a3 = s1 + 0x18b8\n 22630: a4 = a3 + 0x400\n 22634: a1 = u64 [a4 + 0x68]\n 22637: a2 = u64 [a4 + 0x78]\n 22640: a3 = u64 [a4 + 0x80]\n 22644: a0 = a0 | 0x1\n 22647: a4 = s1 + 0x28b8\n 22651: a5 = a4 + 0x200\n 22655: u64 [a5 + 0xc8] = a1\n 22659: u64 [a5 + 0xd8] = a2\n 22663: u64 [a5 + 0xd0] = a0\n 22667: u64 [a5 + 0xe0] = a3\n 22671: a1 = s1 + 0x2b80\n 22675: a0 = u64 [s1 + 0xf8]\n 22679: ra = 982, jump @12\n      : @902 [@dyn 491] (gas: 6)\n 22685: a0 = u64 [s1 + 0x100]\n 22689: ra = 0x3d8\n 22693: ecalli 4 // 'caller'\n 22695: a2 = u64 [s1 + 0x108]\n 22699: t0 = 0x3da\n 22703: jump @1401\n      : @903 [@dyn 492] (gas: 2)\n 22706: a2 = u64 [s1 + 0x108]\n 22710: t0 = 986, jump @1401\n      : @904 [@dyn 493] (gas: 8)\n 22716: u64 [a2 + 1088] = 0\n 22720: a4 = a2 + 0x400\n 22724: u64 [a4 + 0x38] = a1\n 22727: u64 [a4 + 0x30] = a0\n 22730: a1 = s1 + 0x1ce0\n 22734: u64 [a4 + 0x28] = a3\n 22737: a0 = 0\n 22739: ra = 988, jump @9\n      : @905 [@dyn 494] (gas: 9)\n 22745: a0 = s1 + 0x18b8\n 22749: u64 [a0 + 1056] = 0\n 22753: u64 [a0 + 1048] = 0\n 22757: u64 [a0 + 1040] = 0\n 22761: a2 = a0\n 22763: a0 = 0x20\n 22766: a1 = s1 + 0x1cc0\n 22770: u64 [a2 + 1032] = 0\n 22774: ra = 990, jump @9\n      : @906 [@dyn 495] (gas: 5)\n 22780: a0 = sp + 0xffffffffffffffe0\n 22783: a0 = a0 & 0xffffffffffffffe0\n 22786: u64 [s1 + 0xf8] = a0\n 22790: sp = a0\n 22792: t0 = 992, jump @1446\n      : @907 [@dyn 496] (gas: 1)\n 22798: jump @909 if a1 <u a0\n      : @908 (gas: 1)\n 22801: t0 = 994, jump @1461\n      : @909 [@dyn 497] (gas: 4)\n 22807: a0 = sp + 0xffffffffffffffe0\n 22810: a0 = a0 & 0xffffffffffffffe0\n 22813: u64 [s1 + 0x118] = a0\n 22817: t0 = 996, jump @1403\n      : @910 [@dyn 498] (gas: 3)\n 22823: ra = 0x3e6\n 22827: ecalli 8 // 'hash_keccak_256'\n 22829: fallthrough\n      : @911 [@dyn 499] (gas: 11)\n 22830: a3 = u64 [s1 + 0x118]\n 22834: a0 = u64 [a3]\n 22836: a1 = u64 [a3 + 0x8]\n 22839: a2 = u64 [a3 + 0x10]\n 22842: a3 = u64 [a3 + 0x18]\n 22845: a0 = reverse a0\n 22847: a1 = reverse a1\n 22849: a2 = reverse a2\n 22851: a3 = reverse a3\n 22853: a4 = a3 + 0x3\n 22856: t0 = 1000, jump @1416\n      : @912 [@dyn 500] (gas: 7)\n 22862: a1 = u64 [s1 + 0xf8]\n 22866: u64 [a1] = a4\n 22868: u64 [a1 + 0x8] = a5\n 22871: u64 [a1 + 0x10] = a2\n 22874: u64 [a1 + 0x18] = a0\n 22877: a0 = s1 + 0x1ca0\n 22881: ra = 1002, jump @11\n      : @913 [@dyn 501] (gas: 9)\n 22887: a0 = s1 + 0x18b8\n 22891: a0 = u64 [a0 + 0x3e8]\n 22895: a1 = u64 [s1 + 0xe8]\n 22899: a0 = a0 + a1\n 22902: a0 = a0 & a1\n 22905: u64 [s1 + 0x118] = a0\n 22909: a0 = s1 + 0x1c80\n 22913: a1 = u64 [s1 + 0xf8]\n 22917: ra = 1004, jump @11\n      : @914 [@dyn 502] (gas: 18)\n 22923: a3 = s1 + 0x18b8\n 22927: a0 = u32 [a3 + 0x3cc]\n 22931: a0 = a0 << 0x20\n 22934: a4 = a3 + 0x300\n 22938: a1 = u64 [a4 + 0xe0]\n 22942: a2 = u64 [a4 + 0xd8]\n 22946: a3 = u64 [a4 + 0xd0]\n 22950: a4 = u64 [s1 + 0x118]\n 22954: a0 = a0 | a4\n 22957: a4 = s1 + 0x28b8\n 22961: u64 [a4 + 0x300] = a1\n 22965: a1 = a4 + 0x200\n 22969: u64 [a1 + 0xf8] = a2\n 22973: u64 [a1 + 0xf0] = a3\n 22977: u64 [a1 + 0xe8] = a0\n 22981: a1 = s1 + 0x2ba0\n 22985: a0 = u64 [s1 + 0xf8]\n 22989: ra = 1006, jump @12\n      : @915 [@dyn 503] (gas: 6)\n 22995: a0 = u64 [s1 + 0x100]\n 22999: ra = 0x3f0\n 23003: ecalli 4 // 'caller'\n 23005: a2 = u64 [s1 + 0x108]\n 23009: t0 = 0x3f2\n 23013: jump @1404\n      : @916 [@dyn 504] (gas: 2)\n 23016: a2 = u64 [s1 + 0x108]\n 23020: t0 = 1010, jump @1404\n      : @917 [@dyn 505] (gas: 31)\n 23026: t0 = a1 | a0\n 23029: a3 = a3 >> 0x20\n 23032: a2 = reverse a2\n 23034: a1 = a2 << 0x20\n 23037: a1 = a1 | a3\n 23040: a2 = a2 >> 0x20\n 23043: a3 = u64 [s1 + 0xf0]\n 23047: a0 = s1 + 0x18b8\n 23051: u64 [a0 + 0x368] = a3\n 23055: a3 = u64 [0x20040]\n 23060: a4 = u64 [0x20048]\n 23065: a5 = u64 [0x20050]\n 23070: u64 [a0 + 0x3c0] = a3\n 23074: u64 [a0 + 0x3b8] = a4\n 23078: u64 [a0 + 896] = 0\n 23082: a4 = a0 + 0x300\n 23086: u64 [a4 + 0xb0] = a5\n 23090: a3 = u64 [0x20058]\n 23095: u64 [a0 + 888] = 0\n 23099: u64 [a0 + 880] = 0\n 23103: u64 [a0 + 928] = 0\n 23107: u64 [a4 + 0xa8] = a3\n 23111: u64 [a4 + 0x98] = a2\n 23115: u64 [a4 + 0x90] = a1\n 23119: a2 = s1 + 0x1c60\n 23123: a3 = s1 + 0x1c40\n 23127: a4 = s1 + 0x1c20\n 23131: u64 [a0 + 0x388] = t0\n 23135: a0 = 0\n 23137: a1 = 0\n 23139: ra = 1012, jump @15\n      : @918 [@dyn 506] (gas: 5)\n 23145: a0 = 0\n 23147: a1 = u64 [s1 + 0x110]\n 23151: a2 = 0\n 23153: ecalli 13 // 'seal_return'\n 23155: jump @955\n      : @919 (gas: 3)\n 23158: t0 = 0x3f6\n 23162: a2 = s1 + 0x18b8\n 23166: fallthrough\n      : @920 [@dyn 507] (gas: 9)\n 23167: u64 [a2 + 600] = 0\n 23171: u64 [a2 + 592] = 0\n 23175: a0 = 0xd5b25b6300000000\n 23185: u64 [a2 + 0x260] = a0\n 23189: a1 = s1 + 0x1b00\n 23193: u64 [a2 + 584] = 0\n 23197: a0 = 0\n 23199: ra = 0x4da\n 23203: jump @9\n      : @921 (gas: 6)\n 23206: a0 = u64 [s1 + 0x80]\n 23210: ra = 0x3f8\n 23214: ecalli 4 // 'caller'\n 23216: a2 = u64 [s1 + 0x88]\n 23220: t0 = 0x3fa\n 23224: jump @1401\n      : @922 [@dyn 508] (gas: 2)\n 23227: a2 = u64 [s1 + 0x88]\n 23231: t0 = 1018, jump @1401\n      : @923 [@dyn 509] (gas: 8)\n 23237: u64 [a2 + 384] = 0\n 23241: a4 = a2 + 0x100\n 23245: u64 [a4 + 0x78] = a1\n 23248: u64 [a4 + 0x70] = a0\n 23251: a1 = s1 + 0x1a20\n 23255: u64 [a4 + 0x68] = a3\n 23258: a0 = 0\n 23260: ra = 1020, jump @9\n      : @924 [@dyn 510] (gas: 3)\n 23266: t0 = 0x3fe\n 23270: a1 = s1 + 0x18b8\n 23274: fallthrough\n      : @925 [@dyn 511] (gas: 8)\n 23275: u64 [a1 + 352] = 0\n 23279: u64 [a1 + 344] = 0\n 23283: u64 [a1 + 328] = 0x3\n 23288: a2 = a1\n 23290: a0 = 0x20\n 23293: a1 = s1 + 0x1a00\n 23297: u64 [a2 + 336] = 0\n 23301: ra = 1024, jump @9\n      : @926 [@dyn 512] (gas: 3)\n 23307: a0 = u64 [s1 + 0x98]\n 23311: a0 = i32 [a0]\n 23313: jump @928 if a0 >u 63\n      : @927 (gas: 4)\n 23317: a1 = u64 [s1 + 0x98]\n 23321: u32 [a1 + 0] = 0x40\n 23324: t0 = 0x402\n 23328: jump @1409\n      : @928 (gas: 1)\n 23331: t0 = 1026, jump @1409\n      : @929 [@dyn 513] (gas: 4)\n 23337: ra = 0x404\n 23341: ecalli 8 // 'hash_keccak_256'\n 23343: t0 = 0x406\n 23347: jump @1417\n      : @930 [@dyn 514] (gas: 1)\n 23350: t0 = 1030, jump @1417\n      : @931 [@dyn 515] (gas: 8)\n 23356: u64 [a2 + 320] = 0\n 23360: u64 [a2 + 312] = 0\n 23364: u64 [a2 + 304] = 0\n 23368: a1 = s1 + 0x19e0\n 23372: a0 = u64 [s1 + 0x118]\n 23376: u64 [a2 + 0x128] = a0\n 23380: a0 = 0\n 23382: ra = 1032, jump @9\n      : @932 [@dyn 516] (gas: 15)\n 23388: a0 = u64 [s1 + 0xf8]\n 23392: a1 = s1 + 0x18b8\n 23396: a2 = a1 + 0x100\n 23400: u64 [a2 + 0x20] = a0\n 23403: a4 = s1 + 0x100\n 23407: a0 = u64 [a4]\n 23409: u64 [a2 + 0x18] = a0\n 23412: a0 = u64 [a4 + 0x8]\n 23415: u64 [a2 + 0x10] = a0\n 23418: a3 = a1\n 23420: a0 = 0x20\n 23423: a1 = s1 + 0x19c0\n 23427: a2 = u64 [a4 + 0x10]\n 23430: u64 [a3 + 0x108] = a2\n 23434: ra = 1034, jump @9\n      : @933 [@dyn 517] (gas: 3)\n 23440: a0 = u64 [s1 + 0x98]\n 23444: a0 = i32 [a0]\n 23446: jump @935 if a0 >u 63\n      : @934 (gas: 4)\n 23450: a0 = u64 [s1 + 0x98]\n 23454: u32 [a0 + 0] = 0x40\n 23457: t0 = 0x40c\n 23461: jump @1409\n      : @935 (gas: 1)\n 23464: t0 = 1036, jump @1409\n      : @936 [@dyn 518] (gas: 5)\n 23470: ra = 0x40e\n 23474: ecalli 8 // 'hash_keccak_256'\n 23476: a3 = u64 [s1 + 0x110]\n 23480: t0 = 0x410\n 23484: jump @1424\n      : @937 [@dyn 519] (gas: 2)\n 23487: a3 = u64 [s1 + 0x110]\n 23491: t0 = 1040, jump @1424\n      : @938 [@dyn 520] (gas: 5)\n 23497: u64 [s1 + 0x110] = a0\n 23501: sp = a0\n 23503: t0 = 0x412\n 23507: a2 = s1 + 0x18b8\n 23511: fallthrough\n      : @939 [@dyn 521] (gas: 8)\n 23512: u64 [a2 + 256] = 0\n 23516: u64 [a2 + 248] = 0\n 23520: u64 [a2 + 240] = 0\n 23524: a1 = s1 + 0x19a0\n 23528: a0 = u64 [s1 + 0x78]\n 23531: u64 [a2 + 0xe8] = a0\n 23535: a0 = 0\n 23537: ra = 1044, jump @9\n      : @940 [@dyn 522] (gas: 13)\n 23543: a0 = u64 [s1 + 0xf0]\n 23547: a1 = s1 + 0x18b8\n 23551: u64 [a1 + 0xe0] = a0\n 23555: a0 = u64 [s1 + 0xf8]\n 23559: u64 [a1 + 0xd8] = a0\n 23563: a0 = u64 [s1 + 0x100]\n 23567: u64 [a1 + 0xd0] = a0\n 23571: a3 = a1\n 23573: a0 = 0x20\n 23576: a1 = s1 + 0x1980\n 23580: a2 = u64 [s1 + 0x108]\n 23584: u64 [a3 + 0xc8] = a2\n 23588: ra = 1046, jump @9\n      : @941 [@dyn 523] (gas: 3)\n 23594: a0 = u64 [s1 + 0x98]\n 23598: a0 = i32 [a0]\n 23600: jump @943 if a0 >=u 64\n      : @942 (gas: 3)\n 23604: a0 = u64 [s1 + 0x98]\n 23608: u32 [a0 + 0] = 0x40\n 23611: fallthrough\n      : @943 (gas: 12)\n 23612: a0 = sp + 0xffffffffffffffe0\n 23615: a0 = a0 & 0xffffffffffffffe0\n 23618: u64 [s1 + 0x108] = a0\n 23622: sp = a0\n 23624: i32 a2 = a0 + 0\n 23626: a1 = 0x40\n 23629: a0 = u64 [s1 + 0x90]\n 23633: ra = 0x418\n 23637: ecalli 8 // 'hash_keccak_256'\n 23639: a3 = u64 [s1 + 0x108]\n 23643: t0 = 0x41a\n 23647: jump @1455\n      : @944 [@dyn 524] (gas: 2)\n 23650: a3 = u64 [s1 + 0x108]\n 23654: t0 = 1050, jump @1455\n      : @945 [@dyn 525] (gas: 7)\n 23660: a1 = u64 [s1 + 0x110]\n 23664: u64 [a1 + 0x18] = a3\n 23667: u64 [a1 + 0x10] = a2\n 23670: u64 [a1 + 0x8] = a4\n 23673: u64 [a1] = a0\n 23675: a0 = s1 + 0x1960\n 23679: ra = 1052, jump @11\n      : @946 [@dyn 526] (gas: 4)\n 23685: a0 = s1 + 0x18b8\n 23689: a0 = u64 [a0 + 0xa8]\n 23693: a1 = a0 & 0x1\n 23696: jump @984 if a1 != 0\n      : @947 (gas: 3)\n 23700: t0 = 0x41e\n 23704: a2 = s1 + 0x10b8\n 23708: fallthrough\n      : @948 [@dyn 527] (gas: 9)\n 23709: u64 [a2 + 2008] = 0\n 23713: u64 [a2 + 2000] = 0\n 23717: a0 = 0xafa4e2b600000000\n 23727: u64 [a2 + 0x7e0] = a0\n 23731: a1 = s1 + 0x1880\n 23735: u64 [a2 + 1992] = 0\n 23739: a0 = 0\n 23741: ra = 0x4da\n 23745: jump @9\n      : @949 (gas: 1)\n 23748: jump @953 if a0 != 1637274245\n      : @950 (gas: 9)\n 23755: a0 = s1 + 0x28b8\n 23759: u64 [a0 + 128] = 0\n 23763: u64 [a0 + 120] = 0\n 23766: u64 [a0 + 112] = 0\n 23769: u64 [a0 + 104] = 0\n 23772: a0 = s1 + 0x3000\n 23776: i32 a0 = a0 + 0xfffffffffffff920\n 23780: ecalli 16 // 'value_transferred'\n 23782: fallthrough\n      : @951 (gas: 9)\n 23783: a3 = s1 + 0x28b8\n 23787: a0 = u64 [a3 + 0x78]\n 23790: a1 = u64 [a3 + 0x80]\n 23794: a2 = u64 [a3 + 0x70]\n 23797: a3 = u64 [a3 + 0x68]\n 23800: a1 = a1 | a2\n 23803: a0 = a0 | a3\n 23806: a0 = a0 | a1\n 23809: jump @991 if a0 == 0\n      : @952 (gas: 6)\n 23813: a1 = 0x20180\n 23818: i32 a1 = a1 + 0\n 23820: a0 = 0x1\n 23823: a2 = 0\n 23825: ecalli 13 // 'seal_return'\n 23827: jump @955\n      : @953 (gas: 6)\n 23829: a1 = 0x20180\n 23834: i32 a1 = a1 + 0\n 23836: a0 = 0x1\n 23839: a2 = 0\n 23841: ecalli 13 // 'seal_return'\n 23843: jump @955\n      : @954 (gas: 5)\n 23845: i32 a1 = a1 + 0\n 23847: a0 = 0x1\n 23850: a2 = 0\n 23852: ecalli 13 // 'seal_return'\n 23854: fallthrough\n      : @955 (gas: 3)\n 23855: a0 = u64 [s1 + 0x118]\n 23859: a0 = i32 [a0]\n 23861: jump @993 if a0 >u 99\n      : @956 (gas: 2)\n 23866: a1 = 0x20180\n 23871: jump @954\n      : @957 (gas: 5)\n 23873: a0 = s1 + 0x7ff\n 23877: a0 = a0 + 0x121\n 23881: ra = 0x420\n 23885: t0 = 0x57c\n 23889: jump @1462\n      : @958 [@dyn 528] (gas: 15)\n 23892: a1 = s1 + 0x7ff\n 23896: a1 = a1 + 0x99\n 23900: a0 = u64 [a1 + 0xa0]\n 23904: u64 [s1 + 0x78] = a0\n 23907: a0 = u64 [a1 + 0x98]\n 23911: u64 [s1 + 0x80] = a0\n 23915: a0 = u64 [a1 + 0x90]\n 23919: u64 [s1 + 0x98] = a0\n 23923: a0 = u64 [a1 + 0x88]\n 23927: u64 [s1 + 0x90] = a0\n 23931: a0 = s1 + 0x7ff\n 23935: a0 = a0 + 0x101\n 23939: ra = 0x422\n 23943: t0 = 0x580\n 23947: jump @1478\n      : @959 [@dyn 529] (gas: 15)\n 23950: a1 = s1 + 0x7ff\n 23954: a1 = a1 + 0x99\n 23958: a0 = u64 [a1 + 0x80]\n 23962: u64 [s1 + 0x70] = a0\n 23965: a0 = u64 [a1 + 0x78]\n 23968: u64 [s1 + 0x68] = a0\n 23971: a0 = u64 [a1 + 0x70]\n 23974: u64 [s1 + 0x60] = a0\n 23977: a0 = u64 [a1 + 0x68]\n 23980: u64 [s1 + 0x88] = a0\n 23984: a0 = s1 + 0x7ff\n 23988: a0 = a0 + 0xe1\n 23992: ra = 0x424\n 23996: t0 = 0x586\n 24000: jump @1478\n      : @960 [@dyn 530] (gas: 8)\n 24003: a0 = s1 + 0x7ff\n 24007: a0 = a0 + 0x99\n 24011: a0 = u64 [a0 + 0x48]\n 24014: u64 [s1 + 0x58] = a0\n 24017: a0 = s1 + 0x2000\n 24021: i32 a0 = a0 + 0x700\n 24025: ecalli 9 // 'now'\n 24027: fallthrough\n      : @961 (gas: 49)\n 24028: a0 = s1 + 0x20b8\n 24032: t0 = u64 [a0 + 0x660]\n 24036: a4 = u64 [a0 + 0x658]\n 24040: u64 [s1 + 0xd8] = a4\n 24044: t2 = u64 [a0 + 0x650]\n 24048: a3 = u64 [a0 + 0x648]\n 24052: u64 [s1 + 0xc0] = a3\n 24056: a0 = clz t0\n 24058: a1 = clz a4\n 24060: a2 = a1 + 0x40\n 24063: a2 = a0 if t0 != 0\n 24066: a0 = clz t2\n 24068: a1 = clz a3\n 24070: a1 = a1 + 0x40\n 24073: a1 = a0 if t2 != 0\n 24076: a0 = a1 + 0x80\n 24080: a3 = a4 | t0\n 24083: a2 = a0 if a3 == 0\n 24086: a5 = a0 <u a1\n 24089: a5 = 0 if a3 != 0\n 24091: a4 = a5 >u 0\n 24093: a0 = a2 <u 0xf0\n 24097: a3 = a0 ^ 0x1\n 24100: a4 = a3 if a5 == 0\n 24103: a0 = a4 <u 0x1\n 24106: ra = a0 + 0xffffffffffffffff\n 24109: t1 = -a4\n 24111: a5 = -a5\n 24113: a3 = a5 - a3\n 24116: a2 = 0xef - a2\n 24120: a5 = t1 >u 0\n 24122: a0 = ra >u 0\n 24124: a0 = a5 if ra == 0\n 24127: a5 = a2 <u 0x100\n 24131: a5 = a5 ^ 0x1\n 24134: a1 = a3 >u 0\n 24136: a5 = a1 if a3 != 0\n 24139: a5 = a0 if a4 != 0\n 24142: u64 [s1 + 0xb8] = t2\n 24146: u64 [s1 + 0xd0] = t0\n 24150: a0 = t2 | t0\n 24153: a4 = u64 [s1 + 0xc0]\n 24157: a1 = u64 [s1 + 0xd8]\n 24161: a1 = a1 | a4\n 24164: a0 = a0 | a1\n 24167: a0 = a0 <u 0x1\n 24170: a0 = a0 | a5\n 24173: a4 = 0 if a0 != 0\n 24175: jump @1026 if a0 != 0\n      : @962 (gas: 1)\n 24179: t0 = 1062, jump @1467\n      : @963 [@dyn 531] (gas: 1)\n 24185: jump @1026 if a0 == 0\n      : @964 (gas: 1)\n 24189: t0 = 1064, jump @1410\n      : @965 [@dyn 532] (gas: 1)\n 24195: ra = 1066, jump @1482\n      : @966 [@dyn 533] (gas: 6)\n 24201: u64 [s1 + 0xc8] = a0\n 24205: u64 [s1 + 0xe8] = a1\n 24209: a0 = u64 [s1 + 0xd8]\n 24213: a1 = u64 [s1 + 0xd0]\n 24217: a2 = u64 [s1 + 0xe0]\n 24221: ra = 1068, jump @1487\n      : @967 [@dyn 534] (gas: 7)\n 24227: u64 [s1 + 0xb0] = a0\n 24231: u64 [s1 + 0xa8] = a1\n 24235: a0 = u64 [s1 + 0xe0]\n 24239: a2 = a0 + 0xffffffffffffff80\n 24242: a0 = u64 [s1 + 0xc0]\n 24246: a1 = u64 [s1 + 0xb8]\n 24250: ra = 1070, jump @1487\n      : @968 [@dyn 535] (gas: 8)\n 24256: u64 [s1 + 0xa0] = a0\n 24260: u64 [s1 + 0x50] = a1\n 24263: a2 = u64 [s1 + 0xe0]\n 24267: a0 = a2 <u 0x80\n 24271: u64 [s1 + 0x48] = a0\n 24274: a0 = u64 [s1 + 0xc0]\n 24278: a1 = u64 [s1 + 0xb8]\n 24282: ra = 1072, jump @1487\n      : @969 [@dyn 536] (gas: 1)\n 24288: t0 = 1074, jump @1476\n      : @970 [@dyn 537] (gas: 4)\n 24294: a3 = u64 [s1 + 0x48]\n 24297: a0 = 0 if a3 == 0\n 24299: u64 [s1 + 0xf8] = a0\n 24303: jump @1024 if a1 == 0\n      : @971 (gas: 7)\n 24307: a2 = a3\n 24309: a0 = u64 [s1 + 0xe8]\n 24313: a1 = u64 [s1 + 0xa8]\n 24317: a0 = a0 | a1\n 24320: a5 = a3\n 24322: a1 = u64 [s1 + 0x50]\n 24325: t0 = 1076, jump @1408\n      : @972 [@dyn 538] (gas: 1)\n 24331: ra = 1078, jump @1482\n      : @973 [@dyn 539] (gas: 6)\n 24337: u64 [s1 + 0xc8] = a0\n 24341: u64 [s1 + 0xa0] = a1\n 24345: a0 = u64 [s1 + 0xc0]\n 24349: a1 = u64 [s1 + 0xb8]\n 24353: a2 = u64 [s1 + 0x118]\n 24357: ra = 1080, jump @1482\n      : @974 [@dyn 540] (gas: 7)\n 24363: u64 [s1 + 0x50] = a0\n 24366: u64 [s1 + 0xa8] = a1\n 24370: a1 = u64 [s1 + 0x118]\n 24374: a2 = 0x80 - a1\n 24378: a0 = u64 [s1 + 0xd8]\n 24382: a1 = u64 [s1 + 0xd0]\n 24386: ra = 1082, jump @1487\n      : @975 [@dyn 541] (gas: 1)\n 24392: t0 = 1084, jump @1448\n      : @976 [@dyn 542] (gas: 2)\n 24398: a1 = u64 [s1 + 0x50]\n 24401: t0 = 1086, jump @1479\n      : @977 [@dyn 543] (gas: 1)\n 24407: ra = 1088, jump @1482\n      : @978 [@dyn 544] (gas: 1)\n 24413: t0 = 1090, jump @1425\n      : @979 [@dyn 545] (gas: 1)\n 24419: t0 = 1092, jump @1436\n      : @980 [@dyn 546] (gas: 5)\n 24425: t0 = ra <u a2\n 24428: a4 = u64 [s1 + 0xa8]\n 24432: a5 = a4 <u a3\n 24435: a5 = t0 if t1 != 0\n 24438: t0 = 1094, jump @1441\n      : @981 [@dyn 547] (gas: 20)\n 24444: t0 = a0 | a1\n 24447: a1 = a4 << 0x1\n 24450: a4 = u64 [s1 + 0xf0]\n 24454: t1 = a4 >> 0x3f\n 24457: t1 = a1 | t1\n 24460: a1 = a4 << 0x1\n 24463: a4 = u64 [s1 + 0xf8]\n 24467: t2 = a4 >> 0x3f\n 24470: a1 = a1 | t2\n 24473: a4 = a4 << 0x1\n 24476: a0 = u64 [s1 + 0xd8]\n 24480: a4 = a4 | a0\n 24483: u64 [s1 + 0xf8] = a4\n 24487: a0 = u64 [s1 + 0xd0]\n 24491: a1 = a1 | a0\n 24494: u64 [s1 + 0xf0] = a1\n 24498: a1 = a0 | t1\n 24501: u64 [s1 + 0xe0] = a1\n 24505: a0 = a0 | t0\n 24508: t0 = 1096, jump @1406\n      : @982 [@dyn 548] (gas: 18)\n 24514: t0 = a4 <u a2\n 24517: a2 = a4 - a2\n 24520: a4 = a3 <u 0x1\n 24523: a5 = a5 - a4\n 24526: a4 = u64 [a0 + 0x8]\n 24529: a4 = a4 - t0\n 24532: a3 = a3 + 0xffffffffffffffff\n 24535: u64 [a0 + 0x10] = a5\n 24538: u64 [a0 + 0x8] = a4\n 24541: t0 = a5 | a4\n 24544: u64 [a0 + 0x18] = a3\n 24547: a4 = a3 | a2\n 24550: a3 = a4 | t0\n 24553: a4 = ra & 0x1\n 24556: u64 [s1 + 0xd8] = a4\n 24560: u64 [a0] = a2\n 24562: u64 [s1 + 208] = 0\n 24566: jump @979 if a3 != 0\n      : @983 (gas: 1)\n 24570: jump @1025\n      : @984 (gas: 2)\n 24573: a1 = a0 & 0x2\n 24576: jump @1093 if a1 != 0\n      : @985 (gas: 5)\n 24580: a0 = a0 & 0xfd\n 24584: u64 [s1 + 0x108] = a0\n 24588: a0 = s1 + 0x1920\n 24592: a1 = u64 [s1 + 0x110]\n 24596: ra = 1098, jump @11\n      : @986 [@dyn 549] (gas: 18)\n 24602: a3 = s1 + 0x18b8\n 24606: a0 = u64 [a3 + 0x68]\n 24609: a1 = u64 [a3 + 0x70]\n 24612: a2 = u64 [a3 + 0x78]\n 24615: a3 = u64 [a3 + 0x80]\n 24619: a0 = a0 & 0xffffffffffffff00\n 24623: a4 = u64 [s1 + 0x108]\n 24627: a0 = a0 | a4\n 24630: a0 = a0 + 0x2\n 24633: a4 = s1 + 0x28b8\n 24637: a5 = a4 + 0x200\n 24641: u64 [a5 + 0xa0] = a3\n 24645: u64 [a5 + 0x98] = a2\n 24649: u64 [a5 + 0x90] = a1\n 24653: u64 [a5 + 0x88] = a0\n 24657: a1 = s1 + 0x2b40\n 24661: a0 = u64 [s1 + 0x110]\n 24665: ra = 1100, jump @12\n      : @987 [@dyn 550] (gas: 6)\n 24671: a0 = u64 [s1 + 0x80]\n 24675: ra = 0x44e\n 24679: ecalli 4 // 'caller'\n 24681: a2 = u64 [s1 + 0x88]\n 24685: t0 = 0x450\n 24689: jump @1404\n      : @988 [@dyn 551] (gas: 2)\n 24692: a2 = u64 [s1 + 0x88]\n 24696: t0 = 1104, jump @1404\n      : @989 [@dyn 552] (gas: 37)\n 24702: a0 = a0 | a1\n 24705: a3 = a3 >> 0x20\n 24708: a2 = reverse a2\n 24710: a1 = a2 << 0x20\n 24713: a1 = a1 | a3\n 24716: a2 = a2 >> 0x20\n 24719: a5 = s1 + 0x18b8\n 24723: u64 [a5 + 0] = 0\n 24725: u64 [a5 + 4294967288] = 0\n 24728: u64 [a5 + 4294967280] = 0\n 24731: a3 = u64 [s1 + 0x118]\n 24735: u64 [a5 + 0xffffffffffffffe8] = a3\n 24738: a3 = u64 [s1 + 0x78]\n 24741: u64 [a5 + 0x8] = a3\n 24744: a3 = u64 [0x20060]\n 24749: a4 = u64 [0x20068]\n 24754: u64 [a5 + 32] = 0\n 24757: u64 [a5 + 24] = 0\n 24760: u64 [a5 + 0x60] = a3\n 24763: u64 [a5 + 0x58] = a4\n 24766: a3 = u64 [0x20070]\n 24771: a4 = u64 [0x20078]\n 24776: u64 [a5 + 16] = 0\n 24779: u64 [a5 + 64] = 0\n 24782: u64 [a5 + 0x50] = a3\n 24785: u64 [a5 + 0x48] = a4\n 24788: u64 [a5 + 0x38] = a2\n 24791: u64 [a5 + 0x30] = a1\n 24794: a1 = a5\n 24796: a2 = s1 + 0x1900\n 24800: a3 = s1 + 0x18e0\n 24804: a4 = s1 + 0x18c0\n 24808: a5 = s1 + 0x18a0\n 24812: u64 [a1 + 0x28] = a0\n 24815: a0 = 0\n 24817: a1 = 0\n 24819: ra = 1106, jump @18\n      : @990 [@dyn 553] (gas: 5)\n 24825: a0 = 0\n 24827: a1 = u64 [s1 + 0x90]\n 24831: a2 = 0\n 24833: ecalli 13 // 'seal_return'\n 24835: jump @955\n      : @991 (gas: 3)\n 24838: a0 = u64 [s1 + 0x118]\n 24842: a0 = i32 [a0]\n 24844: jump @1098 if a0 >u 99\n      : @992 (gas: 2)\n 24849: a1 = 0x20180\n 24854: jump @954\n      : @993 (gas: 5)\n 24857: a0 = s1 + 0x7ff\n 24861: a0 = a0 + 0x7c1\n 24865: ra = 0x454\n 24869: t0 = 0x57c\n 24873: jump @1462\n      : @994 [@dyn 554] (gas: 16)\n 24876: a1 = s1 + 0x7ff\n 24880: a1 = a1 + 0x99\n 24884: a2 = a1 + 0x700\n 24888: a0 = u64 [a2 + 0x40]\n 24891: u64 [s1 + 0x70] = a0\n 24894: a0 = u64 [a2 + 0x38]\n 24897: u64 [s1 + 0x78] = a0\n 24900: a0 = u64 [a2 + 0x30]\n 24903: u64 [s1 + 0xb8] = a0\n 24907: a0 = u64 [a2 + 0x28]\n 24910: u64 [s1 + 0xb0] = a0\n 24914: a0 = s1 + 0x7ff\n 24918: a0 = a0 + 0x7a1\n 24922: ra = 0x456\n 24926: t0 = 0x580\n 24930: jump @1478\n      : @995 [@dyn 555] (gas: 16)\n 24933: a1 = s1 + 0x7ff\n 24937: a1 = a1 + 0x99\n 24941: a2 = a1 + 0x700\n 24945: a0 = u64 [a2 + 0x20]\n 24948: u64 [s1 + 0x48] = a0\n 24951: a0 = u64 [a2 + 0x18]\n 24954: u64 [s1 + 0x40] = a0\n 24957: a0 = u64 [a2 + 0x10]\n 24960: u64 [s1 + 0x38] = a0\n 24963: a0 = u64 [a2 + 0x8]\n 24966: u64 [s1 + 0x30] = a0\n 24969: a0 = s1 + 0x7ff\n 24973: a0 = a0 + 0x781\n 24977: ra = 0x458\n 24981: t0 = 0x586\n 24985: jump @1478\n      : @996 [@dyn 556] (gas: 4)\n 24988: a0 = s1 + 0x7ff\n 24992: a0 = a0 + 0x99\n 24996: a2 = u32 [a0 + 0x6e8]\n 25000: t0 = 1114, jump @1474\n      : @997 [@dyn 557] (gas: 3)\n 25006: u64 [s1 + 0x90] = a2\n 25010: a1 = a0 if a2 == 0\n 25013: jump @999 if a1 == 0\n      : @998 (gas: 1)\n 25016: jump @1164\n      : @999 (gas: 17)\n 25019: a0 = u64 [s1 + 0x78]\n 25022: a0 = a0 << 0x20\n 25025: a2 = a0 >> 0x20\n 25028: a3 = s1 + 0x7ff\n 25032: a3 = a3 + 0x99\n 25036: u64 [a3 + 1728] = 0\n 25040: a0 = u64 [s1 + 0xb0]\n 25044: a4 = a3 + 0x600\n 25048: u64 [a4 + 0xa8] = a0\n 25052: a0 = u64 [s1 + 0xb8]\n 25056: u64 [a4 + 0xb0] = a0\n 25060: a1 = s1 + 0x7ff\n 25064: a1 = a1 + 0x741\n 25068: u64 [s1 + 0x88] = a2\n 25072: u64 [a4 + 0xb8] = a2\n 25076: a0 = 0\n 25078: ra = 1116, jump @9\n      : @1000 [@dyn 558] (gas: 11)\n 25084: a1 = s1 + 0x7ff\n 25088: a1 = a1 + 0x99\n 25092: u64 [a1 + 1696] = 0\n 25096: u64 [a1 + 1688] = 0\n 25100: u64 [a1 + 1672] = 0x2\n 25105: a2 = a1\n 25107: a0 = 0x20\n 25110: a1 = s1 + 0x7ff\n 25114: a1 = a1 + 0x721\n 25118: u64 [a2 + 1680] = 0\n 25122: ra = 1118, jump @9\n      : @1001 [@dyn 559] (gas: 4)\n 25128: a0 = 0x20170\n 25133: u64 [s1 + 0x118] = a0\n 25137: a0 = i32 [0x20170]\n 25142: jump @1003 if a0 >u 63\n      : @1002 (gas: 1)\n 25146: t0 = 1120, jump @1461\n      : @1003 [@dyn 560] (gas: 16)\n 25152: a0 = 0xffffffff\n 25162: u64 [s1 + 0xc8] = a0\n 25166: a0 = sp + 0xffffffffffffffe0\n 25169: a2 = a0 & 0xffffffffffffffe0\n 25172: u64 [s1 + 0x108] = a2\n 25176: sp = a2\n 25178: a0 = 0x20180\n 25183: i32 a0 = a0 + 0\n 25185: i32 a2 = a2 + 0\n 25187: a1 = 0x40\n 25190: u64 [s1 + 0x110] = a0\n 25194: ra = 0x462\n 25198: ecalli 8 // 'hash_keccak_256'\n 25200: a3 = u64 [s1 + 0x108]\n 25204: t0 = 0x464\n 25208: jump @1430\n      : @1004 [@dyn 561] (gas: 2)\n 25211: a3 = u64 [s1 + 0x108]\n 25215: t0 = 1124, jump @1430\n      : @1005 [@dyn 562] (gas: 8)\n 25221: u64 [a5 + 0xe0] = a3\n 25225: u64 [a5 + 0xd8] = a2\n 25229: u64 [a5 + 0xd0] = a1\n 25233: u64 [a5 + 0xc8] = a0\n 25237: a0 = s1 + 0x7ff\n 25241: a0 = a0 + 0x701\n 25245: a1 = s1 + 0x2880\n 25249: ra = 1126, jump @11\n      : @1006 [@dyn 563] (gas: 8)\n 25255: a0 = s1 + 0x7ff\n 25259: a0 = a0 + 0x99\n 25263: a0 = u64 [a0 + 0x668]\n 25267: u64 [s1 + 0x28] = a0\n 25270: a0 = s1 + 0x3000\n 25274: i32 a0 = a0 + 0xfffffffffffff8a0\n 25278: ecalli 9 // 'now'\n 25280: fallthrough\n      : @1007 (gas: 52)\n 25281: a0 = s1 + 0x28b8\n 25285: t0 = u64 [a0]\n 25287: a4 = u64 [a0 + 0xfffffffffffffff8]\n 25290: u64 [s1 + 0xd0] = a4\n 25294: a1 = s1 + 0x20b8\n 25298: t2 = u64 [a1 + 0x7f0]\n 25302: a3 = u64 [a0 + 0xffffffffffffffe8]\n 25305: u64 [s1 + 0x108] = a3\n 25309: a0 = clz t0\n 25311: a1 = clz a4\n 25313: a2 = a1 + 0x40\n 25316: a2 = a0 if t0 != 0\n 25319: a0 = clz t2\n 25321: a1 = clz a3\n 25323: a1 = a1 + 0x40\n 25326: a1 = a0 if t2 != 0\n 25329: a0 = a1 + 0x80\n 25333: a3 = a4 | t0\n 25336: a2 = a0 if a3 == 0\n 25339: a5 = a0 <u a1\n 25342: a5 = 0 if a3 != 0\n 25344: a4 = a5 >u 0\n 25346: a0 = a2 <u 0xf0\n 25350: a3 = a0 ^ 0x1\n 25353: a4 = a3 if a5 == 0\n 25356: a0 = a4 <u 0x1\n 25359: ra = a0 + 0xffffffffffffffff\n 25362: t1 = -a4\n 25364: a5 = -a5\n 25366: a3 = a5 - a3\n 25369: a2 = 0xef - a2\n 25373: a5 = t1 >u 0\n 25375: a0 = ra >u 0\n 25377: a0 = a5 if ra == 0\n 25380: a5 = a2 <u 0x100\n 25384: a5 = a5 ^ 0x1\n 25387: a1 = a3 >u 0\n 25389: a5 = a1 if a3 != 0\n 25392: a5 = a0 if a4 != 0\n 25395: u64 [s1 + 0x100] = t2\n 25399: u64 [s1 + 0x98] = t0\n 25403: a0 = t2 | t0\n 25406: a4 = u64 [s1 + 0x108]\n 25410: a1 = u64 [s1 + 0xd0]\n 25414: a1 = a1 | a4\n 25417: a0 = a0 | a1\n 25420: a0 = a0 <u 0x1\n 25423: a0 = a0 | a5\n 25426: a1 = a4\n 25428: a1 = 0 if a0 != 0\n 25430: u64 [s1 + 0x80] = a1\n 25434: jump @1009 if a0 == 0\n      : @1008 (gas: 1)\n 25437: jump @1170\n      : @1009 (gas: 1)\n 25440: t0 = 1128, jump @1467\n      : @1010 [@dyn 564] (gas: 1)\n 25446: jump @1012 if a0 != 0\n      : @1011 (gas: 1)\n 25449: jump @1170\n      : @1012 (gas: 18)\n 25452: a1 = a2 + 0x1\n 25455: u64 [s1 + 0xf8] = a1\n 25459: a0 = a1 <u 0x1\n 25462: a0 = a0 + a3\n 25465: u64 [s1 + 0xe8] = a0\n 25469: a0 = a0 | a1\n 25472: a0 = a0 <u 0x1\n 25475: a0 = a0 + t1\n 25478: u64 [s1 + 0xd8] = a0\n 25482: a0 = a0 <u t1\n 25485: a0 = a0 + ra\n 25488: u64 [s1 + 0xe0] = a0\n 25492: a1 = 0xff - a2\n 25496: u64 [s1 + 0xa0] = a1\n 25500: a2 = 0x80 - a1\n 25504: a0 = u64 [s1 + 0x108]\n 25508: a1 = u64 [s1 + 0x100]\n 25512: ra = 1130, jump @1482\n      : @1013 [@dyn 565] (gas: 6)\n 25518: u64 [s1 + 0x80] = a0\n 25522: u64 [s1 + 0xa8] = a1\n 25526: a0 = u64 [s1 + 0xd0]\n 25530: a1 = u64 [s1 + 0x98]\n 25534: a2 = u64 [s1 + 0xa0]\n 25538: ra = 1132, jump @1487\n      : @1014 [@dyn 566] (gas: 7)\n 25544: u64 [s1 + 0x68] = a0\n 25547: u64 [s1 + 0x60] = a1\n 25550: a0 = u64 [s1 + 0xa0]\n 25554: a2 = a0 + 0xffffffffffffff80\n 25557: a0 = u64 [s1 + 0x108]\n 25561: a1 = u64 [s1 + 0x100]\n 25565: ra = 1134, jump @1487\n      : @1015 [@dyn 567] (gas: 8)\n 25571: u64 [s1 + 0x58] = a0\n 25574: u64 [s1 + 0x50] = a1\n 25577: a2 = u64 [s1 + 0xa0]\n 25581: a0 = a2 <u 0x80\n 25585: u64 [s1 + 0x20] = a0\n 25588: a0 = u64 [s1 + 0x108]\n 25592: a1 = u64 [s1 + 0x100]\n 25596: ra = 1136, jump @1487\n      : @1016 [@dyn 568] (gas: 12)\n 25602: u64 [s1 + 0xf0] = a1\n 25606: a1 = u64 [s1 + 0xe8]\n 25610: a2 = u64 [s1 + 0xe0]\n 25614: a2 = a2 | a1\n 25617: a1 = u64 [s1 + 0xf8]\n 25621: a3 = u64 [s1 + 0xd8]\n 25625: a1 = a1 | a3\n 25628: a1 = a1 | a2\n 25631: a3 = u64 [s1 + 0x20]\n 25634: a0 = 0 if a3 == 0\n 25636: u64 [s1 + 0xc0] = a0\n 25640: jump @1168 if a1 == 0\n      : @1017 (gas: 30)\n 25644: a2 = a3\n 25646: a0 = u64 [s1 + 0xa8]\n 25650: a1 = u64 [s1 + 0x60]\n 25653: a0 = a0 | a1\n 25656: a5 = a3\n 25658: a1 = u64 [s1 + 0x50]\n 25661: a0 = a1 if a2 == 0\n 25664: a2 = u64 [s1 + 0x98]\n 25668: a3 = a2\n 25670: a1 = a2\n 25672: a2 = u64 [s1 + 0xa0]\n 25676: a3 = a0 if a2 != 0\n 25679: u64 [s1 + 0xa8] = a3\n 25683: a0 = u64 [s1 + 0x80]\n 25687: a3 = u64 [s1 + 0x68]\n 25690: a0 = a0 | a3\n 25693: a3 = u64 [s1 + 0x58]\n 25696: a0 = a3 if a5 == 0\n 25699: a4 = u64 [s1 + 0xd0]\n 25703: a3 = a4\n 25705: a3 = a0 if a2 != 0\n 25708: u64 [s1 + 0xa0] = a3\n 25712: a0 = u64 [s1 + 0xf0]\n 25716: a0 = 0 if a5 == 0\n 25718: u64 [s1 + 0xf0] = a0\n 25722: u64 [s1 + 96] = 0x15180\n 25728: a0 = u64 [s1 + 0xf8]\n 25732: a2 = a0 + 0xffffffffffffff80\n 25735: a0 = a4\n 25737: ra = 1138, jump @1482\n      : @1018 [@dyn 569] (gas: 6)\n 25743: u64 [s1 + 0x80] = a0\n 25747: u64 [s1 + 0x68] = a1\n 25750: a0 = u64 [s1 + 0x108]\n 25754: a1 = u64 [s1 + 0x100]\n 25758: a2 = u64 [s1 + 0xf8]\n 25762: ra = 1140, jump @1482\n      : @1019 [@dyn 570] (gas: 7)\n 25768: u64 [s1 + 0x50] = a0\n 25771: u64 [s1 + 0x58] = a1\n 25774: a1 = u64 [s1 + 0xf8]\n 25778: a2 = 0x80 - a1\n 25782: a0 = u64 [s1 + 0xd0]\n 25786: a1 = u64 [s1 + 0x98]\n 25790: ra = 1142, jump @1487\n      : @1020 [@dyn 571] (gas: 21)\n 25796: a2 = u64 [s1 + 0x58]\n 25799: a1 = a1 | a2\n 25802: a2 = u64 [s1 + 0xf8]\n 25806: a3 = a2 <u 0x80\n 25810: u64 [s1 + 0x58] = a3\n 25813: a4 = u64 [s1 + 0x68]\n 25816: a1 = a4 if a3 == 0\n 25819: a5 = s1 + 0x100\n 25823: a4 = u64 [a5]\n 25825: a4 = a1 if a2 != 0\n 25828: u64 [a5] = a4\n 25830: a1 = u64 [s1 + 0x50]\n 25833: a0 = a0 | a1\n 25836: a1 = u64 [s1 + 0x80]\n 25840: a0 = a1 if a3 == 0\n 25843: a1 = u64 [a5 + 0x8]\n 25846: a1 = a0 if a2 != 0\n 25849: u64 [a5 + 0x8] = a1\n 25852: a0 = u64 [s1 + 0xd0]\n 25856: a1 = u64 [s1 + 0x98]\n 25860: ra = 1144, jump @1482\n      : @1021 [@dyn 572] (gas: 13)\n 25866: u64 [s1 + 208] = 0\n 25870: u64 [s1 + 152] = 0\n 25874: a2 = u64 [s1 + 0x58]\n 25877: a1 = 0 if a2 == 0\n 25879: u64 [s1 + 0x80] = a1\n 25883: a0 = 0 if a2 == 0\n 25885: a3 = u64 [s1 + 0x60]\n 25888: a2 = a3 + 0xffffffffffffffff\n 25891: u64 [s1 + 0x58] = a2\n 25894: a2 = a3 >u 0\n 25896: a2 = a2 + 0xffffffffffffffff\n 25899: u64 [s1 + 0x50] = a2\n 25902: fallthrough\n      : @1022 (gas: 91)\n 25903: a4 = u64 [s1 + 0x108]\n 25907: a2 = a4 >> 0x3f\n 25910: t1 = u64 [s1 + 0x100]\n 25914: a3 = t1 << 0x1\n 25917: ra = a3 | a2\n 25920: a3 = a4 << 0x1\n 25923: t2 = u64 [s1 + 0xa8]\n 25927: a4 = t2 >> 0x3f\n 25930: a3 = a3 | a4\n 25933: u64 [s1 + 0x68] = a3\n 25936: a2 = u64 [s1 + 0x50]\n 25939: a1 = a2 ^ ra\n 25942: t0 = a2 <u ra\n 25945: a4 = u64 [s1 + 0x58]\n 25948: a5 = a4 <u a3\n 25951: a5 = t0 if a1 != 0\n 25954: a1 = u64 [s1 + 0x80]\n 25958: a1 = a1 << 0x1\n 25961: a3 = a0 >> 0x3f\n 25964: a1 = a1 | a3\n 25967: u64 [s1 + 0x80] = a1\n 25971: a3 = t1 >> 0x3f\n 25974: a0 = a0 << 0x1\n 25977: a3 = a3 | a0\n 25980: a0 = t2 << 0x1\n 25983: a4 = u64 [s1 + 0xa0]\n 25987: a1 = a4 >> 0x3f\n 25990: t0 = a0 | a1\n 25993: a1 = a4 << 0x1\n 25996: a4 = u64 [s1 + 0xf0]\n 26000: t1 = a4 >> 0x3f\n 26003: t1 = a1 | t1\n 26006: a1 = a4 << 0x1\n 26009: a4 = u64 [s1 + 0xc0]\n 26013: t2 = a4 >> 0x3f\n 26016: a1 = a1 | t2\n 26019: a4 = a4 << 0x1\n 26022: a0 = u64 [s1 + 0xd0]\n 26026: a4 = a4 | a0\n 26029: u64 [s1 + 0xc0] = a4\n 26033: a0 = u64 [s1 + 0x98]\n 26037: a1 = a1 | a0\n 26040: u64 [s1 + 0xf0] = a1\n 26044: a1 = a0 | t1\n 26047: u64 [s1 + 0xa0] = a1\n 26051: a0 = a0 | t0\n 26054: u64 [s1 + 0xa8] = a0\n 26058: a0 = a2 - a3\n 26061: a0 = a0 <u a5\n 26064: a1 = a2 <u a3\n 26067: a5 = u64 [s1 + 0x80]\n 26071: a4 = a2 - a5\n 26074: a4 = a4 - a1\n 26077: a4 = a4 - a0\n 26080: t1 = a4 >>a 0x3f\n 26083: a0 = u64 [s1 + 0x60]\n 26086: a0 = t1 & a0\n 26089: a2 = u64 [s1 + 0x68]\n 26092: a1 = a2 - a0\n 26095: u64 [s1 + 0x108] = a1\n 26099: a1 = a2 <u a0\n 26102: a0 = ra - a1\n 26105: u64 [s1 + 0x100] = a0\n 26109: a1 = 0 if ra != 0\n 26111: a0 = a3 - a1\n 26114: a1 = a3 <u a1\n 26117: a1 = a5 - a1\n 26120: u64 [s1 + 0x80] = a1\n 26124: a5 = u64 [s1 + 0xf8]\n 26128: a3 = u64 [s1 + 0xe8]\n 26132: a2 = a5 | a3\n 26135: a2 = a2 <u 0x1\n 26138: a4 = u64 [s1 + 0xd8]\n 26142: t0 = a4 <u a2\n 26145: a2 = a4 - a2\n 26148: a4 = a5 <u 0x1\n 26151: a3 = a3 - a4\n 26154: a4 = u64 [s1 + 0xe0]\n 26158: a4 = a4 - t0\n 26161: a5 = a5 + 0xffffffffffffffff\n 26164: u64 [s1 + 0xe8] = a3\n 26168: u64 [s1 + 0xe0] = a4\n 26172: a3 = a3 | a4\n 26175: u64 [s1 + 0xf8] = a5\n 26179: a4 = a5 | a2\n 26182: a3 = a3 | a4\n 26185: a4 = t1 & 0x1\n 26188: u64 [s1 + 0xd0] = a4\n 26192: u64 [s1 + 0xd8] = a2\n 26196: u64 [s1 + 152] = 0\n 26200: jump @1022 if a3 != 0\n      : @1023 (gas: 1)\n 26204: jump @1169\n      : @1024 (gas: 2)\n 26207: u64 [s1 + 216] = 0\n 26211: fallthrough\n      : @1025 (gas: 5)\n 26212: a0 = u64 [s1 + 0xf8]\n 26216: a0 = a0 << 0x1\n 26219: a4 = u64 [s1 + 0xd8]\n 26223: a4 = a4 | a0\n 26226: fallthrough\n      : @1026 (gas: 2)\n 26227: a0 = u64 [s1 + 0x88]\n 26231: jump @1028 if a0 <u a4\n      : @1027 (gas: 1)\n 26234: jump @1224\n      : @1028 (gas: 9)\n 26237: a0 = u64 [s1 + 0x58]\n 26240: a0 = a0 << 0x20\n 26243: a1 = a0 >> 0x20\n 26246: a0 = a1 + 0xffffffffffffffff\n 26249: a0 = a0 <u 0x32\n 26252: a0 = 0 if a1 == 0\n 26254: u64 [s1 + 0xb8] = a1\n 26258: a0 = 0 if a1 == 0\n 26260: jump @1030 if a0 != 0\n      : @1029 (gas: 1)\n 26263: jump @1228\n      : @1030 (gas: 20)\n 26266: a0 = 0xffffffff\n 26276: u64 [s1 + 0xf8] = a0\n 26280: a0 = u64 [s1 + 0x80]\n 26284: a0 = a0 << 0x20\n 26287: a2 = a0 >> 0x20\n 26290: a0 = s1 + 0x7ff\n 26294: a0 = a0 + 0x99\n 26298: u64 [a0 + 0] = 0\n 26300: a1 = u64 [s1 + 0x90]\n 26304: a3 = s1 + 0x1000\n 26308: u64 [a3 + 0xfffffffffffff880] = a1\n 26312: a1 = u64 [s1 + 0x98]\n 26316: a3 = s1 + 0x1000\n 26320: u64 [a3 + 0xfffffffffffff888] = a1\n 26324: a1 = s1 + 0x7ff\n 26328: a1 = a1 + 0x81\n 26332: u64 [s1 + 0xc0] = a2\n 26336: u64 [a0 + 0xfffffffffffffff8] = a2\n 26339: a0 = 0\n 26341: ra = 1146, jump @9\n      : @1031 [@dyn 573] (gas: 12)\n 26347: a0 = s1 + 0x1000\n 26351: u64 [a0 + 4294965368] = 0\n 26355: a0 = s1 + 0x1000\n 26359: u64 [a0 + 4294965360] = 0\n 26363: a1 = s1 + 0x1000\n 26367: u64 [a1 + 4294965344] = 0x2\n 26372: a0 = 0x20\n 26375: a1 = s1 + 0x7ff\n 26379: a1 = a1 + 0x61\n 26382: a2 = s1 + 0x1000\n 26386: u64 [a2 + 4294965352] = 0\n 26390: ra = 1148, jump @9\n      : @1032 [@dyn 574] (gas: 5)\n 26396: a0 = 0x20170\n 26401: u64 [s1 + 0x118] = a0\n 26405: a0 = i32 [0x20170]\n 26410: a1 = 0x3f\n 26413: jump @1034 if a1 <u a0\n      : @1033 (gas: 1)\n 26416: t0 = 1150, jump @1461\n      : @1034 [@dyn 575] (gas: 3)\n 26422: a0 = 0xffffffff00000000\n 26432: u64 [s1 + 0xb0] = a0\n 26436: t0 = 1152, jump @1466\n      : @1035 [@dyn 576] (gas: 10)\n 26442: a0 = 0x20180\n 26447: i32 a0 = a0 + 0\n 26449: i32 a2 = a2 + 0\n 26451: a1 = 0x40\n 26454: u64 [s1 + 0x108] = a0\n 26458: ra = 0x482\n 26462: ecalli 8 // 'hash_keccak_256'\n 26464: a3 = u64 [s1 + 0x110]\n 26468: t0 = 0x484\n 26472: jump @1438\n      : @1036 [@dyn 577] (gas: 2)\n 26475: a3 = u64 [s1 + 0x110]\n 26479: t0 = 1156, jump @1438\n      : @1037 [@dyn 578] (gas: 9)\n 26485: a5 = a4 + 0x600\n 26489: u64 [a5 + 0x80] = a3\n 26493: u64 [a5 + 0x78] = a2\n 26496: u64 [a5 + 0x70] = a1\n 26499: u64 [a5 + 0x68] = a0\n 26502: a0 = s1 + 0x7ff\n 26506: a0 = a0 + 0x41\n 26509: a1 = s1 + 0x2720\n 26513: ra = 1158, jump @11\n      : @1038 [@dyn 579] (gas: 9)\n 26519: a0 = s1 + 0x1000\n 26523: a0 = u64 [a0 + 0xfffffffffffff840]\n 26527: u64 [s1 + 200] = 0\n 26531: a3 = 0\n 26533: a1 = u64 [s1 + 0xf8]\n 26537: a0 = a0 & a1\n 26540: u64 [s1 + 0xa8] = a0\n 26544: a2 = 0x1\n 26547: fallthrough\n      : @1039 (gas: 11)\n 26548: a1 = 0\n 26550: a1 = 0 if a3 == 0\n 26552: a0 = u64 [s1 + 0xa8]\n 26556: u64 [s1 + 0x110] = a2\n 26560: a0 = a0 <u a2\n 26563: a2 = 0\n 26565: a2 = a0 if a3 == 0\n 26568: u64 [s1 + 256] = 0\n 26572: a0 = 0\n 26574: a2 = a1 if a0 != 0\n 26577: jump @1041 if a2 == 0\n      : @1040 (gas: 1)\n 26580: jump @1232\n      : @1041 (gas: 5)\n 26583: a0 = u64 [s1 + 0xf8]\n 26587: a1 = u64 [s1 + 0xc8]\n 26591: a0 = a0 & a1\n 26594: a1 = u64 [s1 + 0xb8]\n 26598: jump @1043 if a0 <u a1\n      : @1042 (gas: 1)\n 26601: jump @1232\n      : @1043 (gas: 15)\n 26604: a0 = s1 + 0x1000\n 26608: u64 [a0 + 4294965304] = 0\n 26612: a0 = u64 [s1 + 0x90]\n 26616: a1 = s1 + 0x1000\n 26620: u64 [a1 + 0xfffffffffffff820] = a0\n 26624: a0 = u64 [s1 + 0x98]\n 26628: a1 = s1 + 0x1000\n 26632: u64 [a1 + 0xfffffffffffff828] = a0\n 26636: a1 = s1 + 0x7ff\n 26640: a1 = a1 + 0x21\n 26643: a0 = u64 [s1 + 0xc0]\n 26647: a2 = s1 + 0x1000\n 26651: u64 [a2 + 0xfffffffffffff830] = a0\n 26655: a0 = 0\n 26657: ra = 1160, jump @9\n      : @1044 [@dyn 580] (gas: 12)\n 26663: a0 = s1 + 0x1000\n 26667: u64 [a0 + 4294965272] = 0\n 26671: a0 = s1 + 0x1000\n 26675: u64 [a0 + 4294965264] = 0\n 26679: a0 = s1 + 0x1000\n 26683: u64 [a0 + 4294965256] = 0\n 26687: a0 = 0x20\n 26690: a1 = s1 + 0x7ff\n 26694: a1 = a1 + 0x1\n 26697: a3 = s1 + 0x1000\n 26701: u64 [a3 + 4294965248] = 0x1\n 26706: ra = 1162, jump @9\n      : @1045 [@dyn 581] (gas: 1)\n 26712: t0 = 1164, jump @1446\n      : @1046 [@dyn 582] (gas: 1)\n 26718: jump @1048 if a1 <u a0\n      : @1047 (gas: 1)\n 26721: t0 = 1166, jump @1461\n      : @1048 [@dyn 583] (gas: 1)\n 26727: t0 = 1168, jump @1432\n      : @1049 [@dyn 584] (gas: 4)\n 26733: ra = 0x492\n 26737: ecalli 8 // 'hash_keccak_256'\n 26739: t0 = 0x494\n 26743: jump @1418\n      : @1050 [@dyn 585] (gas: 1)\n 26746: t0 = 1172, jump @1418\n      : @1051 [@dyn 586] (gas: 8)\n 26752: u64 [s1 + 0x7f8] = a0\n 26756: u64 [s1 + 0x7f0] = a0\n 26760: u64 [s1 + 0x7e8] = a0\n 26764: a1 = s1 + 0x7e0\n 26768: a0 = u64 [s1 + 0x110]\n 26772: u64 [s1 + 0x7e0] = a0\n 26776: a0 = 0\n 26778: ra = 1174, jump @9\n      : @1052 [@dyn 587] (gas: 12)\n 26784: a0 = u64 [s1 + 0xd0]\n 26788: a3 = s1 + 0x700\n 26792: u64 [a3 + 0xd8] = a0\n 26796: a0 = u64 [s1 + 0xd8]\n 26800: u64 [a3 + 0xd0] = a0\n 26804: a0 = u64 [s1 + 0xe0]\n 26808: u64 [a3 + 0xc8] = a0\n 26812: a0 = 0x20\n 26815: a1 = s1 + 0x7c0\n 26819: a2 = u64 [s1 + 0xe8]\n 26823: u64 [a3 + 0xc0] = a2\n 26827: ra = 1176, jump @9\n      : @1053 [@dyn 588] (gas: 1)\n 26833: t0 = 1178, jump @1446\n      : @1054 [@dyn 589] (gas: 1)\n 26839: jump @1056 if a1 <u a0\n      : @1055 (gas: 1)\n 26842: t0 = 1180, jump @1469\n      : @1056 [@dyn 590] (gas: 1)\n 26848: t0 = 1182, jump @1458\n      : @1057 [@dyn 591] (gas: 4)\n 26854: ra = 0x4a0\n 26858: ecalli 8 // 'hash_keccak_256'\n 26860: t0 = 0x4a2\n 26864: jump @1420\n      : @1058 [@dyn 592] (gas: 1)\n 26867: t0 = 1186, jump @1420\n      : @1059 [@dyn 593] (gas: 2)\n 26873: a0 = s1 + 0x7a0\n 26877: ra = 1188, jump @11\n      : @1060 [@dyn 594] (gas: 11)\n 26883: a3 = s1 + 0x700\n 26887: a0 = u64 [a3 + 0xa8]\n 26891: a1 = u64 [a3 + 0xb0]\n 26895: a2 = u64 [a3 + 0xa0]\n 26899: a0 = a0 & 0xffffffffffffffff\n 26902: a1 = a1 & 0xffffffffffffffff\n 26905: a3 = u64 [s1 + 0xb0]\n 26909: a2 = a2 & a3\n 26912: a1 = a1 | a2\n 26915: a0 = a0 | a1\n 26918: jump @1092 if a0 == 0\n      : @1061 (gas: 1)\n 26922: t0 = 1190, jump @1434\n      : @1062 [@dyn 595] (gas: 9)\n 26928: a4 = s1 + 0x20b8\n 26932: a5 = a4 + 0x600\n 26936: u64 [a5 + 0x88] = a0\n 26940: u64 [a5 + 0x90] = a2\n 26944: u64 [a5 + 0x98] = a3\n 26948: u64 [a5 + 0xa0] = a1\n 26952: a0 = s1 + 0x780\n 26956: a1 = s1 + 0x2740\n 26960: ra = 1192, jump @11\n      : @1063 [@dyn 596] (gas: 3)\n 26966: a0 = u64 [s1 + 0x788]\n 26970: a0 = a0 & 0xff\n 26974: jump @1092 if a0 != 0\n      : @1064 (gas: 10)\n 26978: u64 [s1 + 1912] = 0\n 26982: a0 = u64 [s1 + 0x90]\n 26986: u64 [s1 + 0x760] = a0\n 26990: a0 = u64 [s1 + 0x98]\n 26994: u64 [s1 + 0x768] = a0\n 26998: a1 = s1 + 0x760\n 27002: a0 = u64 [s1 + 0xc0]\n 27006: u64 [s1 + 0x770] = a0\n 27010: a0 = 0\n 27012: ra = 1194, jump @9\n      : @1065 [@dyn 597] (gas: 7)\n 27018: u64 [s1 + 1880] = 0\n 27022: u64 [s1 + 1872] = 0\n 27026: u64 [s1 + 1864] = 0\n 27030: a0 = 0x20\n 27033: a1 = s1 + 0x740\n 27037: u64 [s1 + 1856] = 0x3\n 27042: ra = 1196, jump @9\n      : @1066 [@dyn 598] (gas: 1)\n 27048: t0 = 1198, jump @1446\n      : @1067 [@dyn 599] (gas: 1)\n 27054: jump @1069 if a1 <u a0\n      : @1068 (gas: 1)\n 27057: t0 = 1200, jump @1469\n      : @1069 [@dyn 600] (gas: 1)\n 27063: t0 = 1202, jump @1432\n      : @1070 [@dyn 601] (gas: 4)\n 27069: ra = 0x4b4\n 27073: ecalli 8 // 'hash_keccak_256'\n 27075: t0 = 0x4b6\n 27079: jump @1412\n      : @1071 [@dyn 602] (gas: 1)\n 27082: t0 = 1206, jump @1412\n      : @1072 [@dyn 603] (gas: 8)\n 27088: u64 [s1 + 1848] = 0\n 27092: u64 [s1 + 1840] = 0\n 27096: u64 [s1 + 1832] = 0\n 27100: a1 = s1 + 0x720\n 27104: a0 = u64 [s1 + 0x88]\n 27108: u64 [s1 + 0x720] = a0\n 27112: a0 = 0\n 27114: ra = 1208, jump @9\n      : @1073 [@dyn 604] (gas: 12)\n 27120: a0 = u64 [s1 + 0xd8]\n 27124: a3 = s1 + 0x700\n 27128: u64 [a3 + 0x18] = a0\n 27131: a0 = u64 [s1 + 0xe0]\n 27135: u64 [a3 + 0x10] = a0\n 27138: a0 = u64 [s1 + 0xe8]\n 27142: u64 [a3 + 0x8] = a0\n 27145: a0 = 0x20\n 27148: a1 = s1 + 0x700\n 27152: a2 = u64 [s1 + 0xf0]\n 27156: u64 [a3] = a2\n 27158: ra = 1210, jump @9\n      : @1074 [@dyn 605] (gas: 1)\n 27164: t0 = 1212, jump @1446\n      : @1075 [@dyn 606] (gas: 1)\n 27170: jump @1077 if a1 <u a0\n      : @1076 (gas: 1)\n 27173: t0 = 1214, jump @1469\n      : @1077 [@dyn 607] (gas: 1)\n 27179: t0 = 1216, jump @1432\n      : @1078 [@dyn 608] (gas: 4)\n 27185: ra = 0x4c2\n 27189: ecalli 8 // 'hash_keccak_256'\n 27191: t0 = 0x4c4\n 27195: jump @1418\n      : @1079 [@dyn 609] (gas: 1)\n 27198: t0 = 1220, jump @1418\n      : @1080 [@dyn 610] (gas: 8)\n 27204: u64 [s1 + 0x6f8] = a0\n 27208: u64 [s1 + 0x6f0] = a0\n 27212: u64 [s1 + 0x6e8] = a0\n 27216: a1 = s1 + 0x6e0\n 27220: a0 = u64 [s1 + 0x110]\n 27224: u64 [s1 + 0x6e0] = a0\n 27228: a0 = 0\n 27230: ra = 1222, jump @9\n      : @1081 [@dyn 611] (gas: 12)\n 27236: a0 = u64 [s1 + 0xd0]\n 27240: a3 = s1 + 0x600\n 27244: u64 [a3 + 0xd8] = a0\n 27248: a0 = u64 [s1 + 0xd8]\n 27252: u64 [a3 + 0xd0] = a0\n 27256: a0 = u64 [s1 + 0xe0]\n 27260: u64 [a3 + 0xc8] = a0\n 27264: a0 = 0x20\n 27267: a1 = s1 + 0x6c0\n 27271: a2 = u64 [s1 + 0xe8]\n 27275: u64 [a3 + 0xc0] = a2\n 27279: ra = 1224, jump @9\n      : @1082 [@dyn 612] (gas: 1)\n 27285: t0 = 1226, jump @1446\n      : @1083 [@dyn 613] (gas: 1)\n 27291: jump @1085 if a1 <u a0\n      : @1084 (gas: 1)\n 27294: t0 = 1228, jump @1469\n      : @1085 [@dyn 614] (gas: 1)\n 27300: t0 = 1230, jump @1458\n      : @1086 [@dyn 615] (gas: 5)\n 27306: ra = 0x4d0\n 27310: ecalli 8 // 'hash_keccak_256'\n 27312: a3 = u64 [s1 + 0xe8]\n 27316: t0 = 0x4d2\n 27320: jump @1411\n      : @1087 [@dyn 616] (gas: 2)\n 27323: a3 = u64 [s1 + 0xe8]\n 27327: t0 = 1234, jump @1411\n      : @1088 [@dyn 617] (gas: 2)\n 27333: a0 = s1 + 0x6a0\n 27337: ra = 1236, jump @11\n      : @1089 [@dyn 618] (gas: 3)\n 27343: a0 = u64 [s1 + 0x6a0]\n 27347: a0 = a0 & 0x5\n 27350: jump @1092 if a0 != 1\n      : @1090 (gas: 27)\n 27354: a0 = u64 [s1 + 0x110]\n 27358: a4 = s1 + 0x600\n 27362: u64 [a4 + 0x40] = a0\n 27365: a0 = u64 [s1 + 0x88]\n 27369: u64 [a4 + 0x60] = a0\n 27372: a0 = u64 [s1 + 0x90]\n 27376: u64 [a4 + 0x80] = a0\n 27380: a1 = u64 [s1 + 0x100]\n 27384: u64 [a4 + 0x48] = a1\n 27387: a0 = u64 [s1 + 0x60]\n 27390: u64 [a4 + 0x68] = a0\n 27393: a0 = u64 [s1 + 0x98]\n 27397: u64 [a4 + 0x88] = a0\n 27401: u64 [a4 + 0x50] = a1\n 27404: a0 = u64 [s1 + 0x68]\n 27407: u64 [a4 + 0x70] = a0\n 27410: a0 = u64 [s1 + 0x80]\n 27414: u64 [a4 + 0x90] = a0\n 27418: u64 [a4 + 0x58] = a1\n 27421: a0 = u64 [s1 + 0x70]\n 27424: u64 [a4 + 0x78] = a0\n 27427: a0 = s1 + 0x680\n 27431: a1 = s1 + 0x660\n 27435: a2 = s1 + 0x640\n 27439: a3 = u64 [s1 + 0x78]\n 27442: u64 [a4 + 0x98] = a3\n 27446: ra = 1238, jump @1263\n      : @1091 [@dyn 619] (gas: 6)\n 27452: a0 = u64 [s1 + 0xc8]\n 27456: a0 = a0 + 0x1\n 27459: a1 = u64 [s1 + 0xf8]\n 27463: a0 = a0 & a1\n 27466: u64 [s1 + 0xc8] = a0\n 27470: fallthrough\n      : @1092 (gas: 6)\n 27471: a3 = 0\n 27473: a0 = u64 [s1 + 0x110]\n 27477: a0 = a0 + 0x1\n 27480: a1 = u64 [s1 + 0xf8]\n 27484: a2 = a0 & a1\n 27487: jump @1039\n      : @1093 (gas: 3)\n 27490: t0 = 0x4d8\n 27494: a2 = s1 + 0x18b8\n 27498: fallthrough\n      : @1094 [@dyn 620] (gas: 8)\n 27499: u64 [a2 + 152] = 0\n 27503: u64 [a2 + 144] = 0\n 27507: a0 = 0xc98289f000000000\n 27517: u64 [a2 + 0xa0] = a0\n 27521: a1 = s1 + 0x1940\n 27525: u64 [a2 + 136] = 0\n 27529: a0 = 0\n 27531: ra = 1242, jump @9\n      : @1095 [@dyn 621] (gas: 3)\n 27537: a0 = u64 [s1 + 0x98]\n 27541: a0 = i32 [a0]\n 27543: jump @1097 if a0 >u 31\n      : @1096 (gas: 3)\n 27547: a1 = u64 [s1 + 0x98]\n 27551: u32 [a1 + 0] = 0x20\n 27554: fallthrough\n      : @1097 (gas: 5)\n 27555: a0 = 0x1\n 27558: a2 = 0x4\n 27561: a1 = u64 [s1 + 0x90]\n 27565: ecalli 13 // 'seal_return'\n 27567: fallthrough\n      : @1098 (gas: 4)\n 27568: a0 = s1 + 0x12e0\n 27572: ra = 0x4dc\n 27576: t0 = 0x57c\n 27580: jump @1462\n      : @1099 [@dyn 622] (gas: 14)\n 27583: a1 = s1 + 0x10b8\n 27587: a2 = a1 + 0x200\n 27591: a0 = u64 [a2 + 0x40]\n 27594: u64 [s1 + 0x80] = a0\n 27598: a0 = u64 [a2 + 0x38]\n 27601: u64 [s1 + 0x88] = a0\n 27605: a0 = u64 [a2 + 0x30]\n 27608: u64 [s1 + 0xc8] = a0\n 27612: a0 = u64 [a2 + 0x28]\n 27615: u64 [s1 + 0xc0] = a0\n 27619: a0 = s1 + 0x12c0\n 27623: ra = 0x4de\n 27627: t0 = 0x580\n 27631: jump @1478\n      : @1100 [@dyn 623] (gas: 14)\n 27634: a1 = s1 + 0x10b8\n 27638: a2 = a1 + 0x200\n 27642: a0 = u64 [a2 + 0x20]\n 27645: u64 [s1 + 0x78] = a0\n 27648: a0 = u64 [a2 + 0x18]\n 27651: u64 [s1 + 0x70] = a0\n 27654: a0 = u64 [a2 + 0x10]\n 27657: u64 [s1 + 0x68] = a0\n 27660: a0 = u64 [a2 + 0x8]\n 27663: u64 [s1 + 0x90] = a0\n 27667: a0 = s1 + 0x12a0\n 27671: ra = 0x4e0\n 27675: t0 = 0x586\n 27679: jump @1478\n      : @1101 [@dyn 624] (gas: 3)\n 27682: a0 = s1 + 0x10b8\n 27686: a2 = u32 [a0 + 0x1e8]\n 27690: t0 = 1250, jump @1474\n      : @1102 [@dyn 625] (gas: 3)\n 27696: u64 [s1 + 0xa8] = a2\n 27700: a1 = a0 if a2 == 0\n 27703: jump @1233 if a1 != 0\n      : @1103 (gas: 17)\n 27707: a0 = 0xffffffff\n 27717: u64 [s1 + 0xf8] = a0\n 27721: a0 = u64 [s1 + 0x88]\n 27725: a0 = a0 << 0x20\n 27728: a2 = a0 >> 0x20\n 27731: a3 = s1 + 0x10b8\n 27735: u64 [a3 + 448] = 0\n 27739: a0 = u64 [s1 + 0xc0]\n 27743: a4 = a3 + 0x100\n 27747: u64 [a4 + 0xa8] = a0\n 27751: a0 = u64 [s1 + 0xc8]\n 27755: u64 [a4 + 0xb0] = a0\n 27759: a1 = s1 + 0x1260\n 27763: u64 [s1 + 0xb8] = a2\n 27767: u64 [a4 + 0xb8] = a2\n 27771: a0 = 0\n 27773: ra = 1252, jump @9\n      : @1104 [@dyn 626] (gas: 3)\n 27779: t0 = 0x4e6\n 27783: a1 = s1 + 0x10b8\n 27787: fallthrough\n      : @1105 [@dyn 627] (gas: 8)\n 27788: u64 [a1 + 416] = 0\n 27792: u64 [a1 + 408] = 0\n 27796: u64 [a1 + 392] = 0x2\n 27801: a2 = a1\n 27803: a0 = 0x20\n 27806: a1 = s1 + 0x1240\n 27810: u64 [a2 + 400] = 0\n 27814: ra = 1256, jump @9\n      : @1106 [@dyn 628] (gas: 5)\n 27820: a0 = 0x20170\n 27825: u64 [s1 + 0x110] = a0\n 27829: a0 = i32 [0x20170]\n 27834: a1 = 0x3f\n 27837: jump @1108 if a1 <u a0\n      : @1107 (gas: 3)\n 27840: a1 = u64 [s1 + 0x110]\n 27844: u32 [a1 + 0] = 0x40\n 27847: fallthrough\n      : @1108 (gas: 3)\n 27848: a0 = 0xffffffff00000000\n 27858: u64 [s1 + 0xa0] = a0\n 27862: t0 = 1258, jump @1450\n      : @1109 [@dyn 629] (gas: 10)\n 27868: a0 = 0x20180\n 27873: i32 a0 = a0 + 0\n 27875: i32 a2 = a2 + 0\n 27877: a1 = 0x40\n 27880: u64 [s1 + 0x100] = a0\n 27884: ra = 0x4ec\n 27888: ecalli 8 // 'hash_keccak_256'\n 27890: a3 = u64 [s1 + 0x118]\n 27894: t0 = 0x4ee\n 27898: jump @1415\n      : @1110 [@dyn 630] (gas: 2)\n 27901: a3 = u64 [s1 + 0x118]\n 27905: t0 = 1262, jump @1415\n      : @1111 [@dyn 631] (gas: 8)\n 27911: a4 = s1 + 0x28b8\n 27915: u64 [a4 + 0xa0] = a3\n 27919: u64 [a4 + 0x98] = a2\n 27923: u64 [a4 + 0x90] = a1\n 27927: u64 [a4 + 0x88] = a0\n 27931: a0 = s1 + 0x1220\n 27935: a1 = s1 + 0x2940\n 27939: ra = 1264, jump @11\n      : @1112 [@dyn 632] (gas: 9)\n 27945: a0 = s1 + 0x10b8\n 27949: a0 = u64 [a0 + 0x168]\n 27953: u64 [s1 + 176] = 0\n 27957: u64 [s1 + 264] = 0\n 27961: a1 = u64 [s1 + 0xf8]\n 27965: a0 = a0 & a1\n 27968: u64 [s1 + 0x98] = a0\n 27972: a0 = 0x1\n 27975: fallthrough\n      : @1113 (gas: 14)\n 27976: a4 = s1 + 0x100\n 27980: u64 [a4 + 0x18] = a0\n 27983: a3 = u64 [a4 + 0x8]\n 27986: a0 = a3 >u 0\n 27988: a1 = a3 >u 0\n 27990: a1 = a0 if a3 == 0\n 27993: a0 = u64 [s1 + 0x98]\n 27997: a2 = u64 [a4 + 0x18]\n 28000: a0 = a0 <u a2\n 28003: a2 = a3 >u 0\n 28005: a2 = a0 if a3 == 0\n 28008: a0 = a3 | a3\n 28011: a2 = a1 if a0 != 0\n 28014: jump @1238 if a2 != 0\n      : @1114 (gas: 5)\n 28018: a0 = u64 [s1 + 0xf8]\n 28022: a1 = u64 [s1 + 0xb0]\n 28026: a0 = a0 & a1\n 28029: a1 = u64 [s1 + 0xa8]\n 28033: jump @1238 if a0 >=u a1\n      : @1115 (gas: 3)\n 28037: t0 = 0x4f2\n 28041: a2 = s1 + 0x10b8\n 28045: fallthrough\n      : @1116 [@dyn 633] (gas: 11)\n 28046: u64 [a2 + 352] = 0\n 28050: a0 = u64 [s1 + 0xc0]\n 28054: a3 = a2 + 0x100\n 28058: u64 [a3 + 0x48] = a0\n 28061: a0 = u64 [s1 + 0xc8]\n 28065: u64 [a3 + 0x50] = a0\n 28068: a1 = s1 + 0x1200\n 28072: a0 = u64 [s1 + 0xb8]\n 28076: u64 [a3 + 0x58] = a0\n 28079: a0 = 0\n 28081: ra = 1268, jump @9\n      : @1117 [@dyn 634] (gas: 9)\n 28087: a0 = s1 + 0x10b8\n 28091: u64 [a0 + 320] = 0\n 28095: u64 [a0 + 312] = 0\n 28099: u64 [a0 + 304] = 0\n 28103: a3 = a0\n 28105: a0 = 0x20\n 28108: a1 = s1 + 0x11e0\n 28112: u64 [a3 + 296] = 0x1\n 28117: ra = 1270, jump @9\n      : @1118 [@dyn 635] (gas: 3)\n 28123: a0 = u64 [s1 + 0x110]\n 28127: a0 = i32 [a0]\n 28129: jump @1120 if a0 >u 63\n      : @1119 (gas: 4)\n 28133: a0 = u64 [s1 + 0x110]\n 28137: u32 [a0 + 0] = 0x40\n 28140: t0 = 0x4f8\n 28144: jump @1431\n      : @1120 (gas: 1)\n 28147: t0 = 1272, jump @1431\n      : @1121 [@dyn 636] (gas: 4)\n 28153: ra = 0x4fa\n 28157: ecalli 8 // 'hash_keccak_256'\n 28159: t0 = 0x4fc\n 28163: jump @1413\n      : @1122 [@dyn 637] (gas: 1)\n 28166: t0 = 1276, jump @1413\n      : @1123 [@dyn 638] (gas: 9)\n 28172: a3 = a2 + 0x100\n 28176: u64 [a3 + 0x20] = a0\n 28179: u64 [a3 + 0x18] = a0\n 28182: u64 [a3 + 0x10] = a0\n 28185: a1 = s1 + 0x11c0\n 28189: a0 = u64 [s1 + 0x118]\n 28193: u64 [a3 + 0x8] = a0\n 28196: a0 = 0\n 28198: ra = 1278, jump @9\n      : @1124 [@dyn 639] (gas: 13)\n 28204: a0 = u64 [s1 + 0xd0]\n 28208: a1 = s1 + 0x10b8\n 28212: u64 [a1 + 0x100] = a0\n 28216: a0 = u64 [s1 + 0xd8]\n 28220: u64 [a1 + 0xf8] = a0\n 28224: a0 = u64 [s1 + 0xe0]\n 28228: u64 [a1 + 0xf0] = a0\n 28232: a3 = a1\n 28234: a0 = 0x20\n 28237: a1 = s1 + 0x11a0\n 28241: a2 = u64 [s1 + 0xe8]\n 28245: u64 [a3 + 0xe8] = a2\n 28249: ra = 1280, jump @9\n      : @1125 [@dyn 640] (gas: 3)\n 28255: a0 = u64 [s1 + 0x110]\n 28259: a0 = i32 [a0]\n 28261: jump @1127 if a0 >u 63\n      : @1126 (gas: 4)\n 28265: a0 = u64 [s1 + 0x110]\n 28269: u32 [a0 + 0] = 0x40\n 28272: t0 = 0x502\n 28276: jump @1457\n      : @1127 (gas: 1)\n 28279: t0 = 1282, jump @1457\n      : @1128 [@dyn 641] (gas: 4)\n 28285: ra = 0x504\n 28289: ecalli 8 // 'hash_keccak_256'\n 28291: t0 = 0x506\n 28295: jump @1420\n      : @1129 [@dyn 642] (gas: 1)\n 28298: t0 = 1286, jump @1420\n      : @1130 [@dyn 643] (gas: 2)\n 28304: a0 = s1 + 0x1180\n 28308: ra = 1288, jump @11\n      : @1131 [@dyn 644] (gas: 2)\n 28314: a2 = s1 + 0x10b8\n 28318: fallthrough\n      : @1132 (gas: 10)\n 28319: a0 = u64 [a2 + 0xd0]\n 28323: a1 = u64 [a2 + 0xd8]\n 28327: a2 = u64 [a2 + 0xc8]\n 28331: a0 = a0 & 0xffffffffffffffff\n 28334: a1 = a1 & 0xffffffffffffffff\n 28337: a3 = u64 [s1 + 0xa0]\n 28341: a2 = a2 & a3\n 28344: a1 = a1 | a2\n 28347: a0 = a0 | a1\n 28350: jump @1163 if a0 == 0\n      : @1133 (gas: 1)\n 28354: t0 = 1290, jump @1434\n      : @1134 [@dyn 645] (gas: 8)\n 28360: a4 = s1 + 0x28b8\n 28364: u64 [a4 + 0xa8] = a0\n 28368: u64 [a4 + 0xb0] = a2\n 28372: u64 [a4 + 0xb8] = a3\n 28376: u64 [a4 + 0xc0] = a1\n 28380: a0 = s1 + 0x1160\n 28384: a1 = s1 + 0x2960\n 28388: ra = 1292, jump @11\n      : @1135 [@dyn 646] (gas: 4)\n 28394: a0 = s1 + 0x10b8\n 28398: a0 = u64 [a0 + 0xb0]\n 28402: a0 = a0 & 0xff\n 28406: jump @1163 if a0 != 0\n      : @1136 (gas: 3)\n 28410: t0 = 0x50e\n 28414: a2 = s1 + 0x10b8\n 28418: fallthrough\n      : @1137 [@dyn 647] (gas: 10)\n 28419: u64 [a2 + 160] = 0\n 28423: a0 = u64 [s1 + 0xc0]\n 28427: u64 [a2 + 0x88] = a0\n 28431: a0 = u64 [s1 + 0xc8]\n 28435: u64 [a2 + 0x90] = a0\n 28439: a1 = s1 + 0x1140\n 28443: a0 = u64 [s1 + 0xb8]\n 28447: u64 [a2 + 0x98] = a0\n 28451: a0 = 0\n 28453: ra = 1296, jump @9\n      : @1138 [@dyn 648] (gas: 9)\n 28459: a0 = s1 + 0x10b8\n 28463: u64 [a0 + 128] = 0\n 28467: u64 [a0 + 120] = 0\n 28470: u64 [a0 + 112] = 0\n 28473: a3 = a0\n 28475: a0 = 0x20\n 28478: a1 = s1 + 0x1120\n 28482: u64 [a3 + 104] = 0x3\n 28486: ra = 1298, jump @9\n      : @1139 [@dyn 649] (gas: 3)\n 28492: a0 = u64 [s1 + 0x110]\n 28496: a0 = i32 [a0]\n 28498: jump @1141 if a0 >u 63\n      : @1140 (gas: 4)\n 28502: a0 = u64 [s1 + 0x110]\n 28506: u32 [a0 + 0] = 0x40\n 28509: t0 = 0x514\n 28513: jump @1431\n      : @1141 (gas: 1)\n 28516: t0 = 1300, jump @1431\n      : @1142 [@dyn 650] (gas: 4)\n 28522: ra = 0x516\n 28526: ecalli 8 // 'hash_keccak_256'\n 28528: t0 = 0x518\n 28532: jump @1412\n      : @1143 [@dyn 651] (gas: 1)\n 28535: t0 = 1304, jump @1412\n      : @1144 [@dyn 652] (gas: 3)\n 28541: t0 = 0x51a\n 28545: a2 = s1 + 0x10b8\n 28549: fallthrough\n      : @1145 [@dyn 653] (gas: 8)\n 28550: u64 [a2 + 96] = 0\n 28553: u64 [a2 + 88] = 0\n 28556: u64 [a2 + 80] = 0\n 28559: a1 = s1 + 0x1100\n 28563: a0 = u64 [s1 + 0x90]\n 28567: u64 [a2 + 0x48] = a0\n 28570: a0 = 0\n 28572: ra = 1308, jump @9\n      : @1146 [@dyn 654] (gas: 13)\n 28578: a0 = u64 [s1 + 0xd8]\n 28582: a1 = s1 + 0x10b8\n 28586: u64 [a1 + 0x40] = a0\n 28589: a0 = u64 [s1 + 0xe0]\n 28593: u64 [a1 + 0x38] = a0\n 28596: a0 = u64 [s1 + 0xe8]\n 28600: u64 [a1 + 0x30] = a0\n 28603: a3 = a1\n 28605: a0 = 0x20\n 28608: a1 = s1 + 0x10e0\n 28612: a2 = u64 [s1 + 0xf0]\n 28616: u64 [a3 + 0x28] = a2\n 28619: ra = 1310, jump @9\n      : @1147 [@dyn 655] (gas: 3)\n 28625: a0 = u64 [s1 + 0x110]\n 28629: a0 = i32 [a0]\n 28631: jump @1149 if a0 >u 63\n      : @1148 (gas: 4)\n 28635: a0 = u64 [s1 + 0x110]\n 28639: u32 [a0 + 0] = 0x40\n 28642: t0 = 0x520\n 28646: jump @1431\n      : @1149 (gas: 1)\n 28649: t0 = 1312, jump @1431\n      : @1150 [@dyn 656] (gas: 4)\n 28655: ra = 0x522\n 28659: ecalli 8 // 'hash_keccak_256'\n 28661: t0 = 0x524\n 28665: jump @1413\n      : @1151 [@dyn 657] (gas: 1)\n 28668: t0 = 1316, jump @1413\n      : @1152 [@dyn 658] (gas: 8)\n 28674: u64 [a2 + 0x20] = a0\n 28677: u64 [a2 + 0x18] = a0\n 28680: u64 [a2 + 0x10] = a0\n 28683: a1 = s1 + 0x10c0\n 28687: a0 = u64 [s1 + 0x118]\n 28691: u64 [a2 + 0x8] = a0\n 28694: a0 = 0\n 28696: ra = 1318, jump @9\n      : @1153 [@dyn 659] (gas: 13)\n 28702: a0 = u64 [s1 + 0xd0]\n 28706: a1 = s1 + 0x10b8\n 28710: u64 [a1] = a0\n 28712: a0 = u64 [s1 + 0xd8]\n 28716: u64 [a1 + 0xfffffffffffffff8] = a0\n 28719: a0 = u64 [s1 + 0xe0]\n 28723: u64 [a1 + 0xfffffffffffffff0] = a0\n 28726: a3 = a1\n 28728: a0 = 0x20\n 28731: a1 = s1 + 0x10a0\n 28735: a2 = u64 [s1 + 0xe8]\n 28739: u64 [a3 + 0xffffffffffffffe8] = a2\n 28742: ra = 1320, jump @9\n      : @1154 [@dyn 660] (gas: 3)\n 28748: a0 = u64 [s1 + 0x110]\n 28752: a0 = i32 [a0]\n 28754: jump @1156 if a0 >u 63\n      : @1155 (gas: 4)\n 28758: a0 = u64 [s1 + 0x110]\n 28762: u32 [a0 + 0] = 0x40\n 28765: t0 = 0x52a\n 28769: jump @1457\n      : @1156 (gas: 1)\n 28772: t0 = 1322, jump @1457\n      : @1157 [@dyn 661] (gas: 5)\n 28778: ra = 0x52c\n 28782: ecalli 8 // 'hash_keccak_256'\n 28784: a3 = u64 [s1 + 0xe8]\n 28788: t0 = 0x52e\n 28792: jump @1411\n      : @1158 [@dyn 662] (gas: 2)\n 28795: a3 = u64 [s1 + 0xe8]\n 28799: t0 = 1326, jump @1411\n      : @1159 [@dyn 663] (gas: 2)\n 28805: a0 = s1 + 0x1080\n 28809: ra = 1328, jump @11\n      : @1160 [@dyn 664] (gas: 5)\n 28815: a0 = s1 + 0x7ff\n 28819: a0 = a0 + 0x99\n 28823: a0 = u64 [a0 + 0x7e8]\n 28827: a0 = a0 & 0x5\n 28830: jump @1163 if a0 != 1\n      : @1161 (gas: 29)\n 28835: a3 = s1 + 0x7ff\n 28839: a3 = a3 + 0x99\n 28843: a0 = u64 [s1 + 0x118]\n 28847: a5 = a3 + 0x700\n 28851: u64 [a5 + 0x88] = a0\n 28855: a0 = u64 [s1 + 0x90]\n 28859: u64 [a5 + 0xa8] = a0\n 28863: a0 = u64 [s1 + 0xc0]\n 28867: u64 [a5 + 0xc8] = a0\n 28871: a1 = u64 [s1 + 0x108]\n 28875: u64 [a5 + 0x90] = a1\n 28879: a0 = u64 [s1 + 0x68]\n 28882: u64 [a5 + 0xb0] = a0\n 28886: a0 = u64 [s1 + 0xc8]\n 28890: u64 [a5 + 0xd0] = a0\n 28894: u64 [a5 + 0x98] = a1\n 28898: a0 = u64 [s1 + 0x70]\n 28901: u64 [a5 + 0xb8] = a0\n 28905: a0 = u64 [s1 + 0x88]\n 28909: u64 [a5 + 0xd8] = a0\n 28913: u64 [a5 + 0xa0] = a1\n 28917: a0 = u64 [s1 + 0x78]\n 28920: u64 [a5 + 0xc0] = a0\n 28924: a0 = s1 + 0x1060\n 28928: a1 = s1 + 0x1040\n 28932: a2 = s1 + 0x1020\n 28936: a4 = u64 [s1 + 0x80]\n 28940: u64 [a5 + 0xe0] = a4\n 28944: ra = 1330, jump @1263\n      : @1162 [@dyn 665] (gas: 6)\n 28950: a0 = u64 [s1 + 0xb0]\n 28954: a0 = a0 + 0x1\n 28957: a1 = u64 [s1 + 0xf8]\n 28961: a0 = a0 & a1\n 28964: u64 [s1 + 0xb0] = a0\n 28968: fallthrough\n      : @1163 (gas: 6)\n 28969: u64 [s1 + 264] = 0\n 28973: a0 = u64 [s1 + 0x118]\n 28977: a0 = a0 + 0x1\n 28980: a1 = u64 [s1 + 0xf8]\n 28984: a0 = a0 & a1\n 28987: jump @1113\n      : @1164 (gas: 11)\n 28990: a2 = s1 + 0x7ff\n 28994: a2 = a2 + 0x99\n 28998: u64 [a2 + 1752] = 0\n 29002: u64 [a2 + 1744] = 0\n 29006: a0 = 0x7862e95900000000\n 29016: u64 [a2 + 0x6e0] = a0\n 29020: a1 = s1 + 0x7ff\n 29024: a1 = a1 + 0x761\n 29028: u64 [a2 + 1736] = 0\n 29032: a0 = 0\n 29034: ra = 1332, jump @9\n      : @1165 [@dyn 666] (gas: 2)\n 29040: a1 = i32 [0x20170]\n 29045: jump @1167 if a1 >u 31\n      : @1166 (gas: 3)\n 29049: u32 [0x20170] = 0x20\n 29055: a1 = 0x20180\n 29060: jump @700\n      : @1167 (gas: 2)\n 29063: a1 = 0x20180\n 29068: jump @700\n      : @1168 (gas: 2)\n 29071: u64 [s1 + 208] = 0\n 29075: fallthrough\n      : @1169 (gas: 6)\n 29076: a0 = u64 [s1 + 0xc0]\n 29080: a0 = a0 << 0x1\n 29083: a1 = u64 [s1 + 0xd0]\n 29087: a0 = a0 | a1\n 29090: u64 [s1 + 0x80] = a0\n 29094: fallthrough\n      : @1170 (gas: 10)\n 29095: u64 [s1 + 256] = 0\n 29099: a3 = 0\n 29101: a0 = u64 [s1 + 0xc8]\n 29105: a1 = u64 [s1 + 0x28]\n 29108: a0 = a0 & a1\n 29111: u64 [s1 + 0x68] = a0\n 29114: a0 = 0xffffffff00000000\n 29124: u64 [s1 + 0x60] = a0\n 29127: a2 = 0x1\n 29130: fallthrough\n      : @1171 (gas: 11)\n 29131: a1 = 0\n 29133: a1 = 0 if a3 == 0\n 29135: a0 = u64 [s1 + 0x68]\n 29138: u64 [s1 + 0xd0] = a2\n 29142: a0 = a0 <u a2\n 29145: a2 = 0\n 29147: a2 = a0 if a3 == 0\n 29150: u64 [s1 + 192] = 0\n 29154: a0 = 0\n 29156: a2 = a1 if a0 != 0\n 29159: jump @1173 if a2 == 0\n      : @1172 (gas: 1)\n 29162: jump @918\n      : @1173 (gas: 5)\n 29165: a0 = u64 [s1 + 0xc8]\n 29169: a1 = u64 [s1 + 0x100]\n 29173: a0 = a0 & a1\n 29176: a1 = u64 [s1 + 0x90]\n 29180: jump @1175 if a0 <u a1\n      : @1174 (gas: 1)\n 29183: jump @918\n      : @1175 (gas: 14)\n 29186: a2 = s1 + 0x7ff\n 29190: a2 = a2 + 0x99\n 29194: u64 [a2 + 1632] = 0\n 29198: a0 = u64 [s1 + 0xb0]\n 29202: a3 = a2 + 0x600\n 29206: u64 [a3 + 0x48] = a0\n 29209: a0 = u64 [s1 + 0xb8]\n 29213: u64 [a3 + 0x50] = a0\n 29216: a1 = s1 + 0x7ff\n 29220: a1 = a1 + 0x6e1\n 29224: a0 = u64 [s1 + 0x88]\n 29228: u64 [a3 + 0x58] = a0\n 29231: a0 = 0\n 29233: ra = 1334, jump @9\n      : @1176 [@dyn 667] (gas: 11)\n 29239: a0 = s1 + 0x7ff\n 29243: a0 = a0 + 0x99\n 29247: u64 [a0 + 1600] = 0\n 29251: u64 [a0 + 1592] = 0\n 29255: u64 [a0 + 1584] = 0\n 29259: a3 = a0\n 29261: a0 = 0x20\n 29264: a1 = s1 + 0x7ff\n 29268: a1 = a1 + 0x6c1\n 29272: u64 [a3 + 1576] = 0x1\n 29277: ra = 1336, jump @9\n      : @1177 [@dyn 668] (gas: 1)\n 29283: t0 = 1338, jump @1446\n      : @1178 [@dyn 669] (gas: 1)\n 29289: jump @1180 if a1 <u a0\n      : @1179 (gas: 1)\n 29292: t0 = 1340, jump @1461\n      : @1180 [@dyn 670] (gas: 4)\n 29298: a0 = sp + 0xffffffffffffffe0\n 29301: a0 = a0 & 0xffffffffffffffe0\n 29304: u64 [s1 + 0x108] = a0\n 29308: t0 = 1342, jump @1403\n      : @1181 [@dyn 671] (gas: 5)\n 29314: ra = 0x540\n 29318: ecalli 8 // 'hash_keccak_256'\n 29320: a3 = u64 [s1 + 0x108]\n 29324: t0 = 0x542\n 29328: jump @1428\n      : @1182 [@dyn 672] (gas: 2)\n 29331: a3 = u64 [s1 + 0x108]\n 29335: t0 = 1346, jump @1428\n      : @1183 [@dyn 673] (gas: 15)\n 29341: u64 [s1 + 0x108] = a0\n 29345: sp = a0\n 29347: a2 = s1 + 0x7ff\n 29351: a2 = a2 + 0x99\n 29355: a0 = u64 [s1 + 0xc0]\n 29359: a3 = a2 + 0x600\n 29363: u64 [a3 + 0x20] = a0\n 29366: u64 [a3 + 0x18] = a0\n 29369: u64 [a3 + 0x10] = a0\n 29372: a1 = s1 + 0x7ff\n 29376: a1 = a1 + 0x6a1\n 29380: a0 = u64 [s1 + 0xd0]\n 29384: u64 [a3 + 0x8] = a0\n 29387: a0 = 0\n 29389: ra = 1348, jump @9\n      : @1184 [@dyn 674] (gas: 15)\n 29395: a0 = u64 [s1 + 0xe0]\n 29399: a1 = s1 + 0x7ff\n 29403: a1 = a1 + 0x99\n 29407: u64 [a1 + 0x600] = a0\n 29411: a0 = u64 [s1 + 0xe8]\n 29415: u64 [a1 + 0x5f8] = a0\n 29419: a0 = u64 [s1 + 0xf0]\n 29423: u64 [a1 + 0x5f0] = a0\n 29427: a3 = a1\n 29429: a0 = 0x20\n 29432: a1 = s1 + 0x7ff\n 29436: a1 = a1 + 0x681\n 29440: a2 = u64 [s1 + 0xf8]\n 29444: u64 [a3 + 0x5e8] = a2\n 29448: ra = 1350, jump @9\n      : @1185 [@dyn 675] (gas: 1)\n 29454: t0 = 1352, jump @1446\n      : @1186 [@dyn 676] (gas: 1)\n 29460: jump @1188 if a1 <u a0\n      : @1187 (gas: 1)\n 29463: t0 = 1354, jump @1469\n      : @1188 [@dyn 677] (gas: 4)\n 29469: a0 = sp + 0xffffffffffffffe0\n 29472: a0 = a0 & 0xffffffffffffffe0\n 29475: u64 [s1 + 0xf8] = a0\n 29479: t0 = 1356, jump @1403\n      : @1189 [@dyn 678] (gas: 22)\n 29485: ecalli 8 // 'hash_keccak_256'\n 29487: a3 = u64 [s1 + 0xf8]\n 29491: a0 = u64 [a3 + 0x18]\n 29494: a1 = u64 [a3 + 0x10]\n 29497: a2 = u64 [a3 + 0x8]\n 29500: a3 = u64 [a3]\n 29502: a5 = reverse a0\n 29504: a4 = reverse a1\n 29506: a0 = reverse a2\n 29508: a2 = reverse a3\n 29510: a1 = u64 [s1 + 0x108]\n 29514: u64 [s1 + 0xf0] = a2\n 29518: u64 [a1 + 0x18] = a2\n 29521: u64 [s1 + 0xf8] = a0\n 29525: u64 [a1 + 0x10] = a0\n 29528: u64 [s1 + 0xe8] = a4\n 29532: u64 [a1 + 0x8] = a4\n 29535: u64 [s1 + 0xe0] = a5\n 29539: u64 [a1] = a5\n 29541: a0 = s1 + 0x7ff\n 29545: a0 = a0 + 0x661\n 29549: ra = 1358, jump @11\n      : @1190 [@dyn 679] (gas: 13)\n 29555: a2 = s1 + 0x7ff\n 29559: a2 = a2 + 0x99\n 29563: a3 = a2 + 0x500\n 29567: a0 = u64 [a3 + 0xd0]\n 29571: a1 = u64 [a3 + 0xd8]\n 29575: a2 = u64 [a3 + 0xc8]\n 29579: a0 = a0 & 0xffffffffffffffff\n 29582: a1 = a1 & 0xffffffffffffffff\n 29585: a3 = u64 [s1 + 0x60]\n 29588: a2 = a2 & a3\n 29591: a1 = a1 | a2\n 29594: a0 = a0 | a1\n 29597: jump @1193 if a0 == 0\n      : @1191 (gas: 25)\n 29600: a0 = u64 [s1 + 0xe0]\n 29604: a2 = a0 + 0x2\n 29607: a0 = a2 <u a0\n 29610: a1 = u64 [s1 + 0xe8]\n 29614: a3 = a1 + a0\n 29617: a1 = a3 <u a1\n 29620: a1 = a0 if a0 == 0\n 29623: a0 = u64 [s1 + 0xf8]\n 29627: a4 = a0 + a1\n 29630: a0 = a4 <u a0\n 29633: a1 = u64 [s1 + 0xf0]\n 29637: a1 = a1 + a0\n 29640: a0 = s1 + 0x28b8\n 29644: u64 [s1 + 0x108] = a2\n 29648: u64 [a0 + 0x8] = a2\n 29651: u64 [s1 + 0xf8] = a3\n 29655: u64 [a0 + 0x10] = a3\n 29658: u64 [s1 + 0xf0] = a4\n 29662: u64 [a0 + 0x18] = a4\n 29665: u64 [s1 + 0xe8] = a1\n 29669: u64 [a0 + 0x20] = a1\n 29672: a0 = s1 + 0x7ff\n 29676: a0 = a0 + 0x641\n 29680: a1 = s1 + 0x28c0\n 29684: ra = 1360, jump @11\n      : @1192 [@dyn 680] (gas: 5)\n 29690: a0 = s1 + 0x7ff\n 29694: a0 = a0 + 0x99\n 29698: a0 = u64 [a0 + 0x5b0]\n 29702: a0 = a0 & 0xff\n 29706: jump @1194 if a0 == 0\n      : @1193 (gas: 6)\n 29709: a3 = 0\n 29711: a0 = u64 [s1 + 0xd0]\n 29715: a0 = a0 + 0x1\n 29718: a1 = u64 [s1 + 0xc8]\n 29722: a2 = a0 & a1\n 29725: jump @1171\n      : @1194 (gas: 13)\n 29728: a0 = s1 + 0x28b8\n 29732: a1 = u64 [s1 + 0x108]\n 29736: u64 [a0 + 0x28] = a1\n 29739: a1 = u64 [s1 + 0xf8]\n 29743: u64 [a0 + 0x30] = a1\n 29746: a1 = u64 [s1 + 0xf0]\n 29750: u64 [a0 + 0x38] = a1\n 29753: a1 = u64 [s1 + 0xe8]\n 29757: u64 [a0 + 0x40] = a1\n 29760: a0 = s1 + 0x7ff\n 29764: a0 = a0 + 0x621\n 29768: a1 = s1 + 0x28e0\n 29772: ra = 1362, jump @11\n      : @1195 [@dyn 681] (gas: 14)\n 29778: a3 = s1 + 0x7ff\n 29782: a3 = a3 + 0x99\n 29786: a0 = u64 [a3 + 0x588]\n 29790: a4 = a0 & 0xffffffffffffffff\n 29793: a1 = u64 [s1 + 0x30]\n 29796: a0 = a4 <u a1\n 29799: a4 = a1 if a0 != 0\n 29802: t0 = u64 [s1 + 0x48]\n 29805: t0 = 0 if a0 == 0\n 29807: a5 = u64 [s1 + 0x40]\n 29810: a5 = 0 if a0 == 0\n 29812: a1 = u64 [s1 + 0x38]\n 29815: a1 = 0 if a0 == 0\n 29817: fallthrough\n      : @1196 (gas: 3)\n 29818: a2 = a4 & 0xffffffffffffffff\n 29821: a0 = u64 [s1 + 0x80]\n 29825: jump @1193 if a2 >=u a0\n      : @1197 (gas: 10)\n 29828: u64 [s1 + 0xf8] = a2\n 29832: u64 [s1 + 0x98] = a1\n 29836: u64 [s1 + 0xa0] = a5\n 29840: u64 [s1 + 0xa8] = t0\n 29844: u64 [s1 + 0x108] = a4\n 29848: a0 = u64 [s1 + 0xc8]\n 29852: a1 = u64 [s1 + 0x100]\n 29856: a0 = a0 & a1\n 29859: a1 = u64 [s1 + 0x90]\n 29863: jump @1193 if a0 >=u a1\n      : @1198 (gas: 12)\n 29867: u64 [a3 + 1408] = 0\n 29871: a0 = u64 [s1 + 0xb0]\n 29875: a2 = a3 + 0x500\n 29879: u64 [a2 + 0x68] = a0\n 29882: a0 = u64 [s1 + 0xb8]\n 29886: u64 [a2 + 0x70] = a0\n 29889: a1 = s1 + 0x7ff\n 29893: a1 = a1 + 0x601\n 29897: a0 = u64 [s1 + 0x88]\n 29901: u64 [a2 + 0x78] = a0\n 29904: a0 = 0\n 29906: ra = 1364, jump @9\n      : @1199 [@dyn 682] (gas: 11)\n 29912: a0 = s1 + 0x7ff\n 29916: a0 = a0 + 0x99\n 29920: u64 [a0 + 1376] = 0\n 29924: u64 [a0 + 1368] = 0\n 29928: u64 [a0 + 1360] = 0\n 29932: a3 = a0\n 29934: a0 = 0x20\n 29937: a1 = s1 + 0x7ff\n 29941: a1 = a1 + 0x5e1\n 29945: u64 [a3 + 1352] = 0x3\n 29950: ra = 1366, jump @9\n      : @1200 [@dyn 683] (gas: 3)\n 29956: a1 = u64 [s1 + 0x118]\n 29960: a0 = i32 [a1]\n 29962: jump @1202 if a0 >u 63\n      : @1201 (gas: 2)\n 29966: u32 [a1 + 0] = 0x40\n 29969: fallthrough\n      : @1202 (gas: 4)\n 29970: a0 = sp + 0xffffffffffffffe0\n 29973: a0 = a0 & 0xffffffffffffffe0\n 29976: u64 [s1 + 0xf0] = a0\n 29980: t0 = 1368, jump @1403\n      : @1203 [@dyn 684] (gas: 4)\n 29986: ra = 0x55a\n 29990: ecalli 8 // 'hash_keccak_256'\n 29992: t0 = 0x55c\n 29996: jump @1412\n      : @1204 [@dyn 685] (gas: 1)\n 29999: t0 = 1372, jump @1412\n      : @1205 [@dyn 686] (gas: 11)\n 30005: a2 = s1 + 0x7ff\n 30009: a2 = a2 + 0x99\n 30013: u64 [a2 + 1344] = 0\n 30017: u64 [a2 + 1336] = 0\n 30021: u64 [a2 + 1328] = 0\n 30025: a1 = s1 + 0x7ff\n 30029: a1 = a1 + 0x5c1\n 30033: a0 = u64 [s1 + 0xf8]\n 30037: u64 [a2 + 0x528] = a0\n 30041: a0 = 0\n 30043: ra = 1374, jump @9\n      : @1206 [@dyn 687] (gas: 5)\n 30049: a0 = u64 [s1 + 0xd8]\n 30053: a1 = s1 + 0x7ff\n 30057: a1 = a1 + 0x99\n 30061: a2 = a1 + 0x500\n 30065: t0 = 1376, jump @1439\n      : @1207 [@dyn 688] (gas: 4)\n 30071: a1 = a1 + 0x5a1\n 30075: a2 = u64 [s1 + 0xf0]\n 30079: u64 [a3 + 0x508] = a2\n 30083: ra = 1378, jump @9\n      : @1208 [@dyn 689] (gas: 3)\n 30089: a1 = u64 [s1 + 0x118]\n 30093: a0 = i32 [a1]\n 30095: jump @1210 if a0 >u 63\n      : @1209 (gas: 2)\n 30099: u32 [a1 + 0] = 0x40\n 30102: fallthrough\n      : @1210 (gas: 4)\n 30103: a0 = sp + 0xffffffffffffffe0\n 30106: a0 = a0 & 0xffffffffffffffe0\n 30109: u64 [s1 + 0xf8] = a0\n 30113: t0 = 1380, jump @1403\n      : @1211 [@dyn 690] (gas: 31)\n 30119: ecalli 8 // 'hash_keccak_256'\n 30121: a3 = u64 [s1 + 0xf8]\n 30125: a0 = u64 [a3 + 0x18]\n 30128: a1 = u64 [a3 + 0x10]\n 30131: a2 = u64 [a3 + 0x8]\n 30134: a3 = u64 [a3]\n 30136: a0 = reverse a0\n 30138: u64 [s1 + 0xf0] = a0\n 30142: a0 = reverse a1\n 30144: u64 [s1 + 0xe8] = a0\n 30148: a0 = reverse a2\n 30150: u64 [s1 + 0xe0] = a0\n 30154: a0 = reverse a3\n 30156: u64 [s1 + 0xd8] = a0\n 30160: a0 = sp + 0xffffffffffffffe0\n 30163: a0 = a0 & 0xffffffffffffffe0\n 30166: u64 [s1 + 0xf8] = a0\n 30170: sp = a0\n 30172: a2 = s1 + 0x7ff\n 30176: a2 = a2 + 0x99\n 30180: a0 = u64 [s1 + 0xc0]\n 30184: u64 [a2 + 0x500] = a0\n 30188: a3 = a2 + 0x400\n 30192: u64 [a3 + 0xf8] = a0\n 30196: u64 [a3 + 0xf0] = a0\n 30200: a1 = s1 + 0x7ff\n 30204: a1 = a1 + 0x581\n 30208: a0 = u64 [s1 + 0xd0]\n 30212: u64 [a3 + 0xe8] = a0\n 30216: a0 = 0\n 30218: ra = 1382, jump @9\n      : @1212 [@dyn 691] (gas: 16)\n 30224: a0 = u64 [s1 + 0xd8]\n 30228: a1 = s1 + 0x7ff\n 30232: a1 = a1 + 0x99\n 30236: a2 = a1 + 0x400\n 30240: u64 [a2 + 0xe0] = a0\n 30244: a0 = u64 [s1 + 0xe0]\n 30248: u64 [a2 + 0xd8] = a0\n 30252: a0 = u64 [s1 + 0xe8]\n 30256: u64 [a2 + 0xd0] = a0\n 30260: a3 = a1\n 30262: a0 = 0x20\n 30265: a1 = s1 + 0x7ff\n 30269: a1 = a1 + 0x561\n 30273: a2 = u64 [s1 + 0xf0]\n 30277: u64 [a3 + 0x4c8] = a2\n 30281: ra = 1384, jump @9\n      : @1213 [@dyn 692] (gas: 3)\n 30287: a1 = u64 [s1 + 0x118]\n 30291: a0 = i32 [a1]\n 30293: jump @1215 if a0 >u 63\n      : @1214 (gas: 2)\n 30297: u32 [a1 + 0] = 0x40\n 30300: fallthrough\n      : @1215 (gas: 4)\n 30301: a0 = sp + 0xffffffffffffffe0\n 30304: a0 = a0 & 0xffffffffffffffe0\n 30307: u64 [s1 + 0xf0] = a0\n 30311: t0 = 1386, jump @1403\n      : @1216 [@dyn 693] (gas: 5)\n 30317: ra = 0x56c\n 30321: ecalli 8 // 'hash_keccak_256'\n 30323: a3 = u64 [s1 + 0xf0]\n 30327: t0 = 0x56e\n 30331: jump @1455\n      : @1217 [@dyn 694] (gas: 2)\n 30334: a3 = u64 [s1 + 0xf0]\n 30338: t0 = 1390, jump @1455\n      : @1218 [@dyn 695] (gas: 8)\n 30344: a1 = u64 [s1 + 0xf8]\n 30348: u64 [a1 + 0x18] = a3\n 30351: u64 [a1 + 0x10] = a2\n 30354: u64 [a1 + 0x8] = a4\n 30357: u64 [a1] = a0\n 30359: a0 = s1 + 0x7ff\n 30363: a0 = a0 + 0x541\n 30367: ra = 1392, jump @11\n      : @1219 [@dyn 696] (gas: 5)\n 30373: a3 = s1 + 0x7ff\n 30377: a3 = a3 + 0x99\n 30381: a0 = u64 [a3 + 0x4a8]\n 30385: a0 = a0 & 0x5\n 30388: jump @1222 if a0 != 1\n      : @1220 (gas: 30)\n 30393: a0 = u64 [s1 + 0xd0]\n 30397: a5 = a3 + 0x400\n 30401: u64 [a5 + 0x48] = a0\n 30404: a0 = u64 [s1 + 0x108]\n 30408: u64 [a5 + 0x68] = a0\n 30411: a0 = u64 [s1 + 0xb0]\n 30415: u64 [a5 + 0x88] = a0\n 30419: a1 = u64 [s1 + 0xc0]\n 30423: u64 [a5 + 0x50] = a1\n 30426: a0 = u64 [s1 + 0x98]\n 30430: u64 [a5 + 0x70] = a0\n 30433: a0 = u64 [s1 + 0xb8]\n 30437: u64 [a5 + 0x90] = a0\n 30441: u64 [a5 + 0x58] = a1\n 30444: a0 = u64 [s1 + 0xa0]\n 30448: u64 [a5 + 0x78] = a0\n 30451: a0 = u64 [s1 + 0x78]\n 30454: u64 [a5 + 0x98] = a0\n 30458: u64 [a5 + 0x60] = a1\n 30461: a0 = u64 [s1 + 0xa8]\n 30465: u64 [a5 + 0x80] = a0\n 30469: a0 = s1 + 0x7ff\n 30473: a0 = a0 + 0x521\n 30477: a1 = s1 + 0x7ff\n 30481: a1 = a1 + 0x501\n 30485: a2 = s1 + 0x7ff\n 30489: a2 = a2 + 0x4e1\n 30493: a4 = u64 [s1 + 0x70]\n 30496: u64 [a5 + 0xa0] = a4\n 30500: ra = 1394, jump @1263\n      : @1221 [@dyn 697] (gas: 10)\n 30506: a2 = s1 + 0x100\n 30510: a4 = u64 [a2 + 0x8]\n 30513: a3 = s1 + 0x7ff\n 30517: a3 = a3 + 0x99\n 30521: a0 = u64 [a2]\n 30523: a0 = a0 + 0x1\n 30526: a1 = u64 [s1 + 0xc8]\n 30530: a0 = a0 & a1\n 30533: u64 [a2] = a0\n 30535: jump @1223\n      : @1222 (gas: 2)\n 30537: a4 = u64 [s1 + 0x108]\n 30541: fallthrough\n      : @1223 (gas: 6)\n 30542: a1 = 0\n 30544: a5 = 0\n 30546: t0 = 0\n 30548: a0 = a4 + 0x1\n 30551: a4 = a0 & 0xffffffffffffffff\n 30554: jump @1196\n      : @1224 (gas: 11)\n 30557: a2 = s1 + 0x7ff\n 30561: a2 = a2 + 0x99\n 30565: u64 [a2 + 56] = 0\n 30568: u64 [a2 + 48] = 0\n 30571: a0 = 0xcf114bd900000000\n 30581: u64 [a2 + 0x40] = a0\n 30584: a1 = s1 + 0x7ff\n 30588: a1 = a1 + 0xc1\n 30592: u64 [a2 + 40] = 0\n 30595: a0 = 0\n 30597: ra = 1396, jump @9\n      : @1225 [@dyn 698] (gas: 2)\n 30603: a1 = i32 [0x20170]\n 30608: jump @1227 if a1 >u 31\n      : @1226 (gas: 3)\n 30612: u32 [0x20170] = 0x20\n 30618: a1 = 0x20180\n 30623: jump @700\n      : @1227 (gas: 2)\n 30626: a1 = 0x20180\n 30631: jump @700\n      : @1228 (gas: 11)\n 30634: a2 = s1 + 0x7ff\n 30638: a2 = a2 + 0x99\n 30642: u64 [a2 + 24] = 0\n 30645: u64 [a2 + 16] = 0\n 30648: a0 = 0x7862e95900000000\n 30658: u64 [a2 + 0x20] = a0\n 30661: a1 = s1 + 0x7ff\n 30665: a1 = a1 + 0xa1\n 30669: u64 [a2 + 8] = 0\n 30672: a0 = 0\n 30674: ra = 1398, jump @9\n      : @1229 [@dyn 699] (gas: 2)\n 30680: a1 = i32 [0x20170]\n 30685: jump @1231 if a1 >u 31\n      : @1230 (gas: 3)\n 30689: u32 [0x20170] = 0x20\n 30695: a1 = 0x20180\n 30700: jump @700\n      : @1231 (gas: 2)\n 30703: a1 = 0x20180\n 30708: jump @700\n      : @1232 (gas: 5)\n 30711: a0 = 0\n 30713: a1 = u64 [s1 + 0x108]\n 30717: a2 = 0\n 30719: ecalli 13 // 'seal_return'\n 30721: jump @955\n      : @1233 (gas: 3)\n 30724: t0 = 0x578\n 30728: a2 = s1 + 0x10b8\n 30732: fallthrough\n      : @1234 [@dyn 700] (gas: 8)\n 30733: u64 [a2 + 472] = 0\n 30737: u64 [a2 + 464] = 0\n 30741: a0 = 0x7862e95900000000\n 30751: u64 [a2 + 0x1e0] = a0\n 30755: a1 = s1 + 0x1280\n 30759: u64 [a2 + 456] = 0\n 30763: a0 = 0\n 30765: ra = 1402, jump @9\n      : @1235 [@dyn 701] (gas: 2)\n 30771: a1 = i32 [0x20170]\n 30776: jump @1237 if a1 >u 31\n      : @1236 (gas: 3)\n 30780: u32 [0x20170] = 0x20\n 30786: a1 = 0x20180\n 30791: jump @700\n      : @1237 (gas: 2)\n 30794: a1 = 0x20180\n 30799: jump @700\n      : @1238 (gas: 5)\n 30802: a0 = 0\n 30804: a1 = u64 [s1 + 0x100]\n 30808: a2 = 0\n 30810: ecalli 13 // 'seal_return'\n 30812: jump @955\n      : @1239 [@dyn 702] (gas: 2)\n 30815: ecalli 2 // 'call_data_load'\n 30817: fallthrough\n      : @1240 (gas: 10)\n 30818: a0 = u64 [sp + 0x10]\n 30821: a1 = u64 [sp + 0x18]\n 30824: a2 = 0x100000000\n 30834: a2 = a2 ^ a0\n 30837: a2 = a2 | a1\n 30840: a3 = a0 >> 0x20\n 30843: a3 = a3 <u 0x1\n 30846: a3 = 0 if a1 != 0\n 30848: a3 = 0 if a2 == 0\n 30850: jump @1242 if a3 == 0\n      : @1241 (gas: 12)\n 30853: a2 = u64 [sp]\n 30855: a3 = u64 [sp + 0x8]\n 30858: u64 [s1] = a2\n 30860: u64 [s1 + 0x8] = a3\n 30863: u64 [s1 + 0x10] = a0\n 30866: u64 [s1 + 0x18] = a1\n 30869: sp = s0 + 0xffffffffffffffc0\n 30872: ra = u64 [sp + 0x38]\n 30875: s0 = u64 [sp + 0x30]\n 30878: s1 = u64 [sp + 0x28]\n 30881: sp = sp + 0x40\n 30884: ret\n      : @1242 (gas: 8)\n 30886: a1 = 0x20180\n 30891: i32 a1 = a1 + 0\n 30893: a0 = 0x1\n 30896: a2 = 0\n 30898: ra = 0x57e\n 30902: ecalli 13 // 'seal_return'\n 30904: t0 = 0x580\n 30908: jump @1478\n      : @1243 [@dyn 703] (gas: 1)\n 30911: t0 = 1408, jump @1478\n      : @1244 [@dyn 704] (gas: 3)\n 30917: a1 = 0x24\n 30920: ecalli 2 // 'call_data_load'\n 30922: fallthrough\n      : @1245 (gas: 7)\n 30923: a0 = u64 [sp + 0x18]\n 30926: a1 = u64 [sp + 0x10]\n 30929: a2 = u64 [sp + 0x8]\n 30932: a3 = a1 | a0\n 30935: a4 = a2 <u 0x1\n 30938: a4 = 0 if a3 != 0\n 30940: jump @1248 if a4 == 0\n      : @1246 (gas: 2)\n 30943: a3 = u64 [sp]\n 30945: t0 = 1410, jump @1437\n      : @1247 [@dyn 705] (gas: 1)\n 30951: ret\n      : @1248 (gas: 8)\n 30953: a1 = 0x20180\n 30958: i32 a1 = a1 + 0\n 30960: a0 = 0x1\n 30963: a2 = 0\n 30965: ra = 0x584\n 30969: ecalli 13 // 'seal_return'\n 30971: t0 = 0x586\n 30975: jump @1478\n      : @1249 [@dyn 706] (gas: 1)\n 30978: t0 = 1414, jump @1478\n      : @1250 [@dyn 707] (gas: 5)\n 30984: a1 = 0x44\n 30987: ra = 0x588\n 30991: ecalli 2 // 'call_data_load'\n 30993: t0 = 0x58a\n 30997: jump @1454\n      : @1251 [@dyn 708] (gas: 1)\n 31000: t0 = 1418, jump @1454\n      : @1252 [@dyn 709] (gas: 1)\n 31006: jump @1255 if a4 != 0\n      : @1253 (gas: 1)\n 31009: t0 = 1420, jump @1437\n      : @1254 [@dyn 710] (gas: 1)\n 31015: ret\n      : @1255 (gas: 8)\n 31017: a1 = 0x20180\n 31022: i32 a1 = a1 + 0\n 31024: a0 = 0x1\n 31027: a2 = 0\n 31029: ra = 0x58e\n 31033: ecalli 13 // 'seal_return'\n 31035: t0 = 0x590\n 31039: jump @1462\n      : @1256 [@dyn 711] (gas: 1)\n 31042: t0 = 1424, jump @1462\n      : @1257 [@dyn 712] (gas: 4)\n 31048: ra = 0x592\n 31052: ecalli 2 // 'call_data_load'\n 31054: t0 = 0x594\n 31058: jump @1454\n      : @1258 [@dyn 713] (gas: 1)\n 31061: t0 = 1428, jump @1454\n      : @1259 [@dyn 714] (gas: 1)\n 31067: jump @1262 if a4 != 0\n      : @1260 (gas: 1)\n 31070: t0 = 1430, jump @1437\n      : @1261 [@dyn 715] (gas: 1)\n 31076: ret\n      : @1262 (gas: 7)\n 31078: a1 = 0x20180\n 31083: i32 a1 = a1 + 0\n 31085: a0 = 0x1\n 31088: a2 = 0\n 31090: ra = 0x598\n 31094: ecalli 13 // 'seal_return'\n 31096: fallthrough\n      : @1263 [@dyn 716] (gas: 21)\n 31097: sp = sp + 0xfffffffffffff980\n 31101: a3 = sp + 0x600\n 31105: u64 [a3 + 0x78] = ra\n 31108: u64 [a3 + 0x70] = s0\n 31111: u64 [a3 + 0x68] = s1\n 31114: s0 = sp + 0x680\n 31118: sp = sp & 0xffffffffffffffe0\n 31121: s1 = sp\n 31123: a2 = u64 [a2]\n 31125: u64 [s1 + 0x28] = a2\n 31128: a1 = u64 [a1]\n 31130: u64 [s1 + 0x30] = a1\n 31133: a1 = u64 [a0 + 0x10]\n 31136: u64 [s1 + 0x20] = a1\n 31139: a1 = u64 [a0 + 0x8]\n 31142: u64 [s1 + 0x38] = a1\n 31145: a0 = u64 [a0]\n 31147: u64 [s1 + 0x40] = a0\n 31150: i32 a0 = s1 + 0x560\n 31154: ecalli 9 // 'now'\n 31156: fallthrough\n      : @1264 (gas: 48)\n 31157: t0 = u64 [s1 + 0x578]\n 31161: t1 = u64 [s1 + 0x570]\n 31165: a0 = u64 [s1 + 0x568]\n 31169: a4 = u64 [s1 + 0x560]\n 31173: u64 [s1 + 0x78] = a4\n 31176: a2 = clz t0\n 31178: a1 = clz t1\n 31180: a3 = a1 + 0x40\n 31183: a3 = a2 if t0 != 0\n 31186: a2 = clz a0\n 31188: a1 = clz a4\n 31190: a1 = a1 + 0x40\n 31193: a1 = a2 if a0 != 0\n 31196: a4 = a1 + 0x80\n 31200: a2 = t1 | t0\n 31203: a3 = a4 if a2 == 0\n 31206: a5 = a4 <u a1\n 31209: a5 = 0 if a2 != 0\n 31211: a4 = a5 >u 0\n 31213: a1 = a3 <u 0xf0\n 31217: a2 = a1 ^ 0x1\n 31220: a4 = a2 if a5 == 0\n 31223: t2 = a4 <u 0x1\n 31226: ra = t2 + 0xffffffffffffffff\n 31229: t2 = -a4\n 31231: a5 = -a5\n 31233: a2 = a5 - a2\n 31236: a1 = 0xef - a3\n 31240: u64 [s1 + 0xa8] = t2\n 31244: a3 = t2 >u 0\n 31246: a5 = ra >u 0\n 31248: a5 = a3 if ra == 0\n 31251: u64 [s1 + 0xb8] = a1\n 31255: a3 = a1 <u 0x100\n 31259: a3 = a3 ^ 0x1\n 31262: a1 = a2 >u 0\n 31264: a3 = a1 if a2 != 0\n 31267: a3 = a5 if a4 != 0\n 31270: t2 = a0\n 31272: a0 = u64 [s1 + 0x78]\n 31275: a1 = t2 | t0\n 31278: a4 = a0 | t1\n 31281: a1 = a1 | a4\n 31284: a1 = a1 <u 0x1\n 31287: a1 = a1 | a3\n 31290: a3 = a0\n 31292: a3 = 0 if a1 != 0\n 31294: jump @1280 if a1 != 0\n      : @1265 (gas: 7)\n 31298: a1 = u64 [s1 + 0xb8]\n 31302: a1 = a1 ^ 0xff\n 31306: a5 = u64 [s1 + 0xa8]\n 31310: a1 = a1 | a5\n 31313: a4 = a2 | ra\n 31316: a1 = a1 | a4\n 31319: jump @1280 if a1 == 0\n      : @1266 (gas: 21)\n 31323: a4 = u64 [s1 + 0xb8]\n 31327: a3 = a4 + 0x1\n 31330: u64 [s1 + 0xb0] = a3\n 31334: a1 = a3 <u 0x1\n 31337: a1 = a1 + a2\n 31340: u64 [s1 + 0xa0] = a1\n 31344: a1 = a1 | a3\n 31347: a1 = a1 <u 0x1\n 31350: a1 = a1 + a5\n 31353: u64 [s1 + 0x90] = a1\n 31357: a1 = a1 <u a5\n 31360: a1 = a1 + ra\n 31363: u64 [s1 + 0x98] = a1\n 31367: a2 = 0xff - a4\n 31371: u64 [s1 + 0x88] = a2\n 31375: a2 = 0x80 - a2\n 31379: a1 = t2\n 31381: u64 [s1 + 0x70] = t2\n 31384: u64 [s1 + 0x68] = t0\n 31387: u64 [s1 + 0x60] = t1\n 31390: ra = 1434, jump @1482\n      : @1267 [@dyn 717] (gas: 6)\n 31396: u64 [s1 + 0x80] = a0\n 31400: u64 [s1 + 0x50] = a1\n 31403: a0 = u64 [s1 + 0x60]\n 31406: a1 = u64 [s1 + 0x68]\n 31409: a2 = u64 [s1 + 0x88]\n 31413: ra = 1436, jump @1487\n      : @1268 [@dyn 718] (gas: 7)\n 31419: u64 [s1 + 0x48] = a0\n 31422: u64 [s1 + 0x18] = a1\n 31425: a1 = u64 [s1 + 0xb8]\n 31429: a2 = 0x7f - a1\n 31432: a0 = u64 [s1 + 0x78]\n 31435: a1 = u64 [s1 + 0x70]\n 31438: ra = 1438, jump @1487\n      : @1269 [@dyn 719] (gas: 8)\n 31444: u64 [s1 + 0x10] = a0\n 31447: u64 [s1 + 0xb8] = a1\n 31451: a2 = u64 [s1 + 0x88]\n 31455: a0 = a2 <u 0x80\n 31459: u64 [s1 + 0x58] = a0\n 31462: a0 = u64 [s1 + 0x78]\n 31465: a1 = u64 [s1 + 0x70]\n 31468: ra = 1440, jump @1487\n      : @1270 [@dyn 720] (gas: 11)\n 31474: a5 = u64 [s1 + 0x58]\n 31477: a4 = u64 [s1 + 0x90]\n 31481: a3 = u64 [s1 + 0x98]\n 31485: a2 = u64 [s1 + 0xa0]\n 31489: a2 = a2 | a3\n 31492: a3 = u64 [s1 + 0xb0]\n 31496: a3 = a3 | a4\n 31499: a3 = a3 | a2\n 31502: a0 = 0 if a5 == 0\n 31504: u64 [s1 + 0xa8] = a0\n 31508: jump @1278 if a3 == 0\n      : @1271 (gas: 27)\n 31512: a0 = u64 [s1 + 0x50]\n 31515: a2 = u64 [s1 + 0x18]\n 31518: a0 = a0 | a2\n 31521: a2 = u64 [s1 + 0xb8]\n 31525: a0 = a2 if a5 == 0\n 31528: t0 = u64 [s1 + 0x68]\n 31531: a3 = t0\n 31533: t1 = u64 [s1 + 0x88]\n 31537: a3 = a0 if t1 != 0\n 31540: u64 [s1 + 0xb8] = a3\n 31544: a0 = u64 [s1 + 0x80]\n 31548: a2 = u64 [s1 + 0x48]\n 31551: a0 = a0 | a2\n 31554: a2 = u64 [s1 + 0x10]\n 31557: a0 = a2 if a5 == 0\n 31560: a4 = u64 [s1 + 0x60]\n 31563: a3 = a4\n 31565: a3 = a0 if t1 != 0\n 31568: u64 [s1 + 0x80] = a3\n 31572: a1 = 0 if a5 == 0\n 31574: u64 [s1 + 0x88] = a1\n 31578: u64 [s1 + 88] = 0x15180\n 31584: a0 = u64 [s1 + 0xb0]\n 31588: a2 = a0 + 0xffffffffffffff80\n 31591: a0 = a4\n 31593: a1 = t0\n 31595: ra = 1442, jump @1482\n      : @1272 [@dyn 721] (gas: 6)\n 31601: u64 [s1 + 0x50] = a0\n 31604: u64 [s1 + 0x18] = a1\n 31607: a0 = u64 [s1 + 0x78]\n 31610: a1 = u64 [s1 + 0x70]\n 31613: a2 = u64 [s1 + 0xb0]\n 31617: ra = 1444, jump @1482\n      : @1273 [@dyn 722] (gas: 7)\n 31623: u64 [s1 + 0x10] = a0\n 31626: u64 [s1 + 0x48] = a1\n 31629: a1 = u64 [s1 + 0xb0]\n 31633: a2 = 0x80 - a1\n 31637: a0 = u64 [s1 + 0x60]\n 31640: a1 = u64 [s1 + 0x68]\n 31643: ra = 1446, jump @1487\n      : @1274 [@dyn 723] (gas: 21)\n 31649: a2 = u64 [s1 + 0x48]\n 31652: a1 = a1 | a2\n 31655: a3 = u64 [s1 + 0xb0]\n 31659: a4 = a3 <u 0x80\n 31663: u64 [s1 + 0x48] = a4\n 31666: a2 = u64 [s1 + 0x18]\n 31669: a1 = a2 if a4 == 0\n 31672: a2 = u64 [s1 + 0x70]\n 31675: a2 = a1 if a3 != 0\n 31678: u64 [s1 + 0x70] = a2\n 31681: a1 = u64 [s1 + 0x10]\n 31684: a0 = a0 | a1\n 31687: a1 = u64 [s1 + 0x50]\n 31690: a0 = a1 if a4 == 0\n 31693: a1 = u64 [s1 + 0x78]\n 31696: a1 = a0 if a3 != 0\n 31699: a2 = a3\n 31701: u64 [s1 + 0x78] = a1\n 31704: a0 = u64 [s1 + 0x60]\n 31707: a1 = u64 [s1 + 0x68]\n 31710: ra = 1448, jump @1482\n      : @1275 [@dyn 724] (gas: 13)\n 31716: a5 = 0\n 31718: a2 = u64 [s1 + 0x48]\n 31721: a1 = 0 if a2 == 0\n 31723: a0 = 0 if a2 == 0\n 31725: a3 = u64 [s1 + 0x58]\n 31728: a2 = a3 + 0xffffffffffffffff\n 31731: u64 [s1 + 0x50] = a2\n 31734: a2 = a3 >u 0\n 31736: a2 = a2 + 0xffffffffffffffff\n 31739: u64 [s1 + 0x48] = a2\n 31742: t1 = u64 [s1 + 0x70]\n 31745: t2 = u64 [s1 + 0x78]\n 31748: fallthrough\n      : @1276 (gas: 87)\n 31749: u64 [s1 + 0x78] = a5\n 31752: a2 = t2 >> 0x3f\n 31755: a3 = t1 << 0x1\n 31758: a5 = a3 | a2\n 31761: a3 = t2 << 0x1\n 31764: a4 = u64 [s1 + 0xb8]\n 31768: a4 = a4 >> 0x3f\n 31771: a3 = a3 | a4\n 31774: u64 [s1 + 0x68] = a3\n 31777: a2 = u64 [s1 + 0x48]\n 31780: u64 [s1 + 0x70] = a5\n 31783: t2 = t1\n 31785: t1 = a2 ^ a5\n 31788: t0 = a2 <u a5\n 31791: a4 = u64 [s1 + 0x50]\n 31794: a5 = a4 <u a3\n 31797: a5 = t0 if t1 != 0\n 31800: a1 = a1 << 0x1\n 31803: a3 = a0 >> 0x3f\n 31806: a1 = a1 | a3\n 31809: u64 [s1 + 0x60] = a1\n 31812: a3 = t2 >> 0x3f\n 31815: a0 = a0 << 0x1\n 31818: a3 = a3 | a0\n 31821: a0 = u64 [s1 + 0xb8]\n 31825: a0 = a0 << 0x1\n 31828: a4 = u64 [s1 + 0x80]\n 31832: a1 = a4 >> 0x3f\n 31835: t0 = a0 | a1\n 31838: a1 = a4 << 0x1\n 31841: a4 = u64 [s1 + 0x88]\n 31845: t1 = a4 >> 0x3f\n 31848: t1 = a1 | t1\n 31851: a1 = a4 << 0x1\n 31854: a4 = u64 [s1 + 0xa8]\n 31858: t2 = a4 >> 0x3f\n 31861: a1 = a1 | t2\n 31864: a4 = a4 << 0x1\n 31867: a0 = u64 [s1 + 0x78]\n 31870: a4 = a4 | a0\n 31873: u64 [s1 + 0xa8] = a4\n 31877: a1 = a1 | 0\n 31879: u64 [s1 + 0x88] = a1\n 31883: a1 = t1 | 0\n 31885: u64 [s1 + 0x80] = a1\n 31889: a0 = t0 | 0\n 31891: u64 [s1 + 0xb8] = a0\n 31895: a0 = a2 - a3\n 31898: a0 = a0 <u a5\n 31901: a1 = a2 <u a3\n 31904: t0 = u64 [s1 + 0x60]\n 31907: a4 = a2 - t0\n 31910: a4 = a4 - a1\n 31913: a4 = a4 - a0\n 31916: a5 = a4 >>a 0x3f\n 31919: a0 = u64 [s1 + 0x58]\n 31922: a0 = a0 & a5\n 31925: a1 = u64 [s1 + 0x68]\n 31928: t2 = a1 - a0\n 31931: a1 = a1 <u a0\n 31934: a0 = u64 [s1 + 0x70]\n 31937: t1 = a0 - a1\n 31940: a1 = 0 if a0 != 0\n 31942: a0 = a3 - a1\n 31945: a1 = a3 <u a1\n 31948: a1 = t0 - a1\n 31951: a3 = u64 [s1 + 0xb0]\n 31955: ra = u64 [s1 + 0xa0]\n 31959: a2 = a3 | ra\n 31962: a2 = a2 <u 0x1\n 31965: a4 = u64 [s1 + 0x90]\n 31969: t0 = a4 <u a2\n 31972: a2 = a4 - a2\n 31975: a4 = a3 <u 0x1\n 31978: ra = ra - a4\n 31981: a4 = u64 [s1 + 0x98]\n 31985: a4 = a4 - t0\n 31988: a3 = a3 + 0xffffffffffffffff\n 31991: u64 [s1 + 0xa0] = ra\n 31995: u64 [s1 + 0x98] = a4\n 31999: t0 = ra | a4\n 32002: u64 [s1 + 0xb0] = a3\n 32006: a4 = a3 | a2\n 32009: a3 = a4 | t0\n 32012: a5 = a5 & 0x1\n 32015: u64 [s1 + 0x90] = a2\n 32019: jump @1276 if a3 != 0\n      : @1277 (gas: 1)\n 32023: jump @1279\n      : @1278 (gas: 2)\n 32025: a5 = 0\n 32027: fallthrough\n      : @1279 (gas: 4)\n 32028: a0 = u64 [s1 + 0xa8]\n 32032: a0 = a0 << 0x1\n 32035: a3 = a5 | a0\n 32038: fallthrough\n      : @1280 (gas: 2)\n 32039: a0 = u64 [s1 + 0x30]\n 32042: jump @1358 if a0 >=u a3\n      : @1281 (gas: 13)\n 32046: a0 = u64 [s1 + 0x20]\n 32049: a0 = a0 << 0x20\n 32052: a2 = a0 >> 0x20\n 32055: u64 [s1 + 1336] = 0\n 32059: a0 = u64 [s1 + 0x40]\n 32062: u64 [s1 + 0x520] = a0\n 32066: a0 = u64 [s1 + 0x38]\n 32069: u64 [s1 + 0x528] = a0\n 32073: a1 = s1 + 0x520\n 32077: u64 [s1 + 0xa0] = a2\n 32081: u64 [s1 + 0x530] = a2\n 32085: a0 = 0\n 32087: ra = 1450, jump @9\n      : @1282 [@dyn 725] (gas: 7)\n 32093: u64 [s1 + 1304] = 0\n 32097: u64 [s1 + 1296] = 0\n 32101: u64 [s1 + 1280] = 0x1\n 32106: a0 = 0x20\n 32109: a1 = s1 + 0x500\n 32113: u64 [s1 + 1288] = 0\n 32117: ra = 1452, jump @9\n      : @1283 [@dyn 726] (gas: 3)\n 32123: a1 = 0x20170\n 32128: a0 = i32 [0x20170]\n 32133: jump @1285 if a0 >u 63\n      : @1284 (gas: 2)\n 32137: u32 [0x20170] = 0x40\n 32143: fallthrough\n      : @1285 (gas: 15)\n 32144: a0 = sp + 0xffffffffffffffe0\n 32147: a2 = a0 & 0xffffffffffffffe0\n 32150: u64 [s1 + 0xa8] = a2\n 32154: sp = a2\n 32156: a0 = 0x20180\n 32161: u64 [s1 + 0x70] = a0\n 32164: i32 a0 = a0 + 0\n 32166: u64 [s1 + 0xb0] = a1\n 32170: i32 a2 = a2 + 0\n 32172: a1 = 0x40\n 32175: u64 [s1 + 0xb8] = a0\n 32179: ra = 0x5ae\n 32183: ecalli 8 // 'hash_keccak_256'\n 32185: t0 = 0x5b0\n 32189: jump @1422\n      : @1286 [@dyn 727] (gas: 1)\n 32192: t0 = 1456, jump @1422\n      : @1287 [@dyn 728] (gas: 11)\n 32198: a0 = u64 [s1 + 0x28]\n 32201: a0 = a0 << 0x20\n 32204: a0 = a0 >> 0x20\n 32207: u64 [s1 + 1272] = 0\n 32211: u64 [s1 + 1264] = 0\n 32215: u64 [s1 + 1256] = 0\n 32219: a1 = s1 + 0x4e0\n 32223: u64 [s1 + 0x98] = a0\n 32227: u64 [s1 + 0x4e0] = a0\n 32231: a0 = 0\n 32233: ra = 1458, jump @9\n      : @1288 [@dyn 729] (gas: 12)\n 32239: a0 = u64 [s1 + 0x78]\n 32242: a3 = s1 + 0x400\n 32246: u64 [a3 + 0xd8] = a0\n 32250: a0 = u64 [s1 + 0x80]\n 32254: u64 [a3 + 0xd0] = a0\n 32258: a0 = u64 [s1 + 0x88]\n 32262: u64 [a3 + 0xc8] = a0\n 32266: a0 = 0x20\n 32269: a1 = s1 + 0x4c0\n 32273: a2 = u64 [s1 + 0x90]\n 32277: u64 [a3 + 0xc0] = a2\n 32281: ra = 1460, jump @9\n      : @1289 [@dyn 730] (gas: 3)\n 32287: a1 = u64 [s1 + 0xb0]\n 32291: a0 = i32 [a1]\n 32293: jump @1291 if a0 >u 63\n      : @1290 (gas: 3)\n 32297: u32 [a1 + 0] = 0x40\n 32300: t0 = 0x5b6\n 32304: jump @1465\n      : @1291 (gas: 1)\n 32307: t0 = 1462, jump @1465\n      : @1292 [@dyn 731] (gas: 4)\n 32313: ra = 0x5b8\n 32317: ecalli 8 // 'hash_keccak_256'\n 32319: t0 = 0x5ba\n 32323: jump @1435\n      : @1293 [@dyn 732] (gas: 1)\n 32326: t0 = 1466, jump @1435\n      : @1294 [@dyn 733] (gas: 2)\n 32332: a0 = s1 + 0x4a0\n 32336: ra = 1468, jump @11\n      : @1295 [@dyn 734] (gas: 7)\n 32342: a0 = u32 [s1 + 0x4a4]\n 32346: a1 = u64 [s1 + 0x4a8]\n 32350: a2 = u64 [s1 + 0x4b0]\n 32354: a0 = a0 << 0x20\n 32357: a1 = a1 | a2\n 32360: a0 = a0 | a1\n 32363: jump @1362 if a0 == 0\n      : @1296 (gas: 10)\n 32367: u64 [s1 + 1176] = 0\n 32371: a0 = u64 [s1 + 0x40]\n 32374: u64 [s1 + 0x480] = a0\n 32378: a0 = u64 [s1 + 0x38]\n 32381: u64 [s1 + 0x488] = a0\n 32385: a1 = s1 + 0x480\n 32389: a0 = u64 [s1 + 0xa0]\n 32393: u64 [s1 + 0x490] = a0\n 32397: a0 = 0\n 32399: ra = 1470, jump @9\n      : @1297 [@dyn 735] (gas: 7)\n 32405: u64 [s1 + 1144] = 0\n 32409: u64 [s1 + 1136] = 0\n 32413: u64 [s1 + 1120] = 0x3\n 32418: a0 = 0x20\n 32421: a1 = s1 + 0x460\n 32425: u64 [s1 + 1128] = 0\n 32429: ra = 1472, jump @9\n      : @1298 [@dyn 736] (gas: 3)\n 32435: a1 = u64 [s1 + 0xb0]\n 32439: a0 = i32 [a1]\n 32441: jump @1300 if a0 >u 63\n      : @1299 (gas: 3)\n 32445: u32 [a1 + 0] = 0x40\n 32448: t0 = 0x5c2\n 32452: jump @1440\n      : @1300 (gas: 1)\n 32455: t0 = 1474, jump @1440\n      : @1301 [@dyn 737] (gas: 5)\n 32461: ra = 0x5c4\n 32465: ecalli 8 // 'hash_keccak_256'\n 32467: a3 = u64 [s1 + 0xa8]\n 32471: t0 = 0x5c6\n 32475: jump @1463\n      : @1302 [@dyn 738] (gas: 2)\n 32478: a3 = u64 [s1 + 0xa8]\n 32482: t0 = 1478, jump @1463\n      : @1303 [@dyn 739] (gas: 15)\n 32488: u64 [s1 + 0xa8] = a0\n 32492: a0 = reverse a1\n 32494: u64 [s1 + 0x90] = a0\n 32498: a0 = reverse a2\n 32500: u64 [s1 + 0x88] = a0\n 32504: a0 = reverse a3\n 32506: u64 [s1 + 0x80] = a0\n 32510: u64 [s1 + 1112] = 0\n 32514: u64 [s1 + 1104] = 0\n 32518: u64 [s1 + 1096] = 0\n 32522: a1 = s1 + 0x440\n 32526: a0 = u64 [s1 + 0x30]\n 32529: u64 [s1 + 0x440] = a0\n 32533: a0 = 0\n 32535: ra = 1480, jump @9\n      : @1304 [@dyn 740] (gas: 12)\n 32541: a0 = u64 [s1 + 0x80]\n 32545: a3 = s1 + 0x400\n 32549: u64 [a3 + 0x38] = a0\n 32552: a0 = u64 [s1 + 0x88]\n 32556: u64 [a3 + 0x30] = a0\n 32559: a0 = u64 [s1 + 0x90]\n 32563: u64 [a3 + 0x28] = a0\n 32566: a0 = 0x20\n 32569: a1 = s1 + 0x420\n 32573: a2 = u64 [s1 + 0xa8]\n 32577: u64 [a3 + 0x20] = a2\n 32580: ra = 1482, jump @9\n      : @1305 [@dyn 741] (gas: 3)\n 32586: a1 = u64 [s1 + 0xb0]\n 32590: a0 = i32 [a1]\n 32592: jump @1307 if a0 >u 63\n      : @1306 (gas: 3)\n 32596: u32 [a1 + 0] = 0x40\n 32599: t0 = 0x5cc\n 32603: jump @1440\n      : @1307 (gas: 1)\n 32606: t0 = 1484, jump @1440\n      : @1308 [@dyn 742] (gas: 4)\n 32612: ra = 0x5ce\n 32616: ecalli 8 // 'hash_keccak_256'\n 32618: t0 = 0x5d0\n 32622: jump @1422\n      : @1309 [@dyn 743] (gas: 1)\n 32625: t0 = 1488, jump @1422\n      : @1310 [@dyn 744] (gas: 8)\n 32631: u64 [s1 + 1048] = 0\n 32635: u64 [s1 + 1040] = 0\n 32639: u64 [s1 + 1032] = 0\n 32643: a1 = s1 + 0x400\n 32647: a0 = u64 [s1 + 0x98]\n 32651: u64 [s1 + 0x400] = a0\n 32655: a0 = 0\n 32657: ra = 1490, jump @9\n      : @1311 [@dyn 745] (gas: 12)\n 32663: a0 = u64 [s1 + 0x78]\n 32666: a3 = s1 + 0x300\n 32670: u64 [a3 + 0xf8] = a0\n 32674: a0 = u64 [s1 + 0x80]\n 32678: u64 [a3 + 0xf0] = a0\n 32682: a0 = u64 [s1 + 0x88]\n 32686: u64 [a3 + 0xe8] = a0\n 32690: a0 = 0x20\n 32693: a1 = s1 + 0x3e0\n 32697: a2 = u64 [s1 + 0x90]\n 32701: u64 [a3 + 0xe0] = a2\n 32705: ra = 1492, jump @9\n      : @1312 [@dyn 746] (gas: 3)\n 32711: a1 = u64 [s1 + 0xb0]\n 32715: a0 = i32 [a1]\n 32717: jump @1314 if a0 >=u 64\n      : @1313 (gas: 3)\n 32721: u32 [a1 + 0] = 0x40\n 32724: t0 = 0x5d6\n 32728: jump @1465\n      : @1314 (gas: 1)\n 32731: t0 = 1494, jump @1465\n      : @1315 [@dyn 747] (gas: 4)\n 32737: ra = 0x5d8\n 32741: ecalli 8 // 'hash_keccak_256'\n 32743: t0 = 0x5da\n 32747: jump @1435\n      : @1316 [@dyn 748] (gas: 1)\n 32750: t0 = 1498, jump @1435\n      : @1317 [@dyn 749] (gas: 2)\n 32756: a0 = s1 + 0x3c0\n 32760: ra = 1500, jump @11\n      : @1318 [@dyn 750] (gas: 3)\n 32766: a1 = u64 [s1 + 0x3c0]\n 32770: a0 = a1 & 0x1\n 32773: jump @1363 if a0 == 0\n      : @1319 (gas: 2)\n 32777: a0 = a1 & 0x4\n 32780: jump @1364 if a0 != 0\n      : @1320 (gas: 6)\n 32784: u64 [s1 + 0x90] = a1\n 32788: a0 = a1 & 0xfb\n 32792: u64 [s1 + 0x88] = a0\n 32796: a0 = s1 + 0x380\n 32800: a1 = u64 [s1 + 0xa8]\n 32804: ra = 1502, jump @11\n      : @1321 [@dyn 751] (gas: 16)\n 32810: a0 = u64 [s1 + 0x380]\n 32814: a1 = u64 [s1 + 0x388]\n 32818: a2 = u64 [s1 + 0x390]\n 32822: a3 = u64 [s1 + 0x398]\n 32826: a0 = a0 & 0xffffffffffffff00\n 32830: a4 = u64 [s1 + 0x88]\n 32834: a0 = a0 | a4\n 32837: a0 = a0 + 0x4\n 32840: a4 = s1 + 0x500\n 32844: u64 [a4 + 0x98] = a3\n 32848: u64 [a4 + 0x90] = a2\n 32852: u64 [a4 + 0x88] = a1\n 32856: u64 [a4 + 0x80] = a0\n 32860: a1 = s1 + 0x580\n 32864: a0 = u64 [s1 + 0xa8]\n 32868: ra = 1504, jump @12\n      : @1322 [@dyn 752] (gas: 11)\n 32874: u64 [s1 + 888] = 0\n 32878: a0 = u64 [s1 + 0xa0]\n 32882: a2 = s1 + 0x300\n 32886: u64 [a2 + 0x70] = a0\n 32889: a0 = u64 [s1 + 0x38]\n 32892: u64 [a2 + 0x68] = a0\n 32895: a1 = s1 + 0x360\n 32899: a0 = u64 [s1 + 0x40]\n 32902: u64 [a2 + 0x60] = a0\n 32905: a0 = 0\n 32907: ra = 1506, jump @9\n      : @1323 [@dyn 753] (gas: 7)\n 32913: u64 [s1 + 856] = 0\n 32917: u64 [s1 + 848] = 0\n 32921: u64 [s1 + 840] = 0\n 32925: a0 = 0x20\n 32928: a1 = s1 + 0x340\n 32932: u64 [s1 + 832] = 0\n 32936: ra = 1508, jump @9\n      : @1324 [@dyn 754] (gas: 3)\n 32942: a2 = u64 [s1 + 0xb0]\n 32946: a0 = i32 [a2]\n 32948: jump @1326 if a0 >u 63\n      : @1325 (gas: 3)\n 32952: u32 [a2 + 0] = 0x40\n 32955: t0 = 0x5e6\n 32959: jump @1440\n      : @1326 (gas: 1)\n 32962: t0 = 1510, jump @1440\n      : @1327 [@dyn 755] (gas: 32)\n 32968: ecalli 8 // 'hash_keccak_256'\n 32970: a3 = u64 [s1 + 0xa8]\n 32974: a0 = u64 [a3]\n 32976: a1 = u64 [a3 + 0x8]\n 32979: a2 = u64 [a3 + 0x10]\n 32982: a3 = u64 [a3 + 0x18]\n 32985: t0 = reverse a0\n 32987: a5 = reverse a1\n 32989: a2 = reverse a2\n 32991: a3 = reverse a3\n 32993: a0 = sp + 0xffffffffffffffe0\n 32996: a1 = a0 & 0xffffffffffffffe0\n 32999: u64 [s1 + 0xa8] = a1\n 33003: sp = a1\n 33005: u64 [s1 + 0x68] = a3\n 33008: a0 = a3 + 0x1\n 33011: a3 = a0 <u 0x1\n 33014: u64 [s1 + 0x78] = a2\n 33017: a4 = a2 + a3\n 33020: a2 = a0 | a4\n 33023: a2 = a2 <u 0x1\n 33026: a2 = a2 + a5\n 33029: u64 [s1 + 0x80] = a5\n 33033: a3 = a2 <u a5\n 33036: u64 [s1 + 0x88] = t0\n 33040: a3 = a3 + t0\n 33043: u64 [a1 + 0x8] = a4\n 33046: u64 [a1] = a0\n 33048: u64 [a1 + 0x10] = a2\n 33051: u64 [a1 + 0x18] = a3\n 33054: a0 = s1 + 0x320\n 33058: ra = 1512, jump @11\n      : @1328 [@dyn 756] (gas: 27)\n 33064: a2 = s1 + 0x300\n 33068: a0 = u64 [a2 + 0x20]\n 33071: a1 = u64 [0x20118]\n 33076: t0 = u64 [s1 + 0x338]\n 33080: a3 = u64 [a2 + 0x28]\n 33083: a4 = u64 [a2 + 0x30]\n 33086: a1 = a1 + a0\n 33089: a0 = a1 <u a0\n 33092: a5 = a3 + a0\n 33095: a5 = a5 + 0xffffffffffffffff\n 33098: a2 = a5 ^ a3\n 33101: a3 = a5 <u a3\n 33104: a3 = a0 if a2 == 0\n 33107: a0 = a4 + 0xffffffffffffffff\n 33110: a3 = a3 + a0\n 33113: a0 = a3 <u a0\n 33116: a2 = a4 <u 0x1\n 33119: a2 = t0 - a2\n 33122: a0 = a0 + a2\n 33125: a2 = s1 + 0x500\n 33129: u64 [a2 + 0xa0] = a1\n 33133: u64 [a2 + 0xa8] = a5\n 33137: u64 [a2 + 0xb0] = a3\n 33141: u64 [a2 + 0xb8] = a0\n 33145: a1 = s1 + 0x5a0\n 33149: a0 = u64 [s1 + 0xa8]\n 33153: ra = 1514, jump @12\n      : @1329 [@dyn 757] (gas: 3)\n 33159: a0 = u64 [s1 + 0x90]\n 33163: a0 = a0 & 0x2\n 33166: jump @1350 if a0 != 0\n      : @1330 (gas: 1)\n 33170: ra = 1516, jump @0\n      : @1331 [@dyn 758] (gas: 60)\n 33177: a1 = u64 [0x301a0]\n 33182: u64 [s1 + 0xa8] = a1\n 33186: a1 = u64 [0x301b0]\n 33191: u64 [s1 + 0x90] = a1\n 33195: a0 = u64 [0x301a8]\n 33200: u64 [s1 + 0x88] = a0\n 33204: ecalli 10 // 'ref_time_left'\n 33206: a1 = u64 [s1 + 0x88]\n 33210: a1 = reverse a1\n 33212: a2 = a1 << 0x20\n 33215: a3 = u64 [s1 + 0x90]\n 33219: a3 = reverse a3\n 33221: a3 = a3 >> 0x20\n 33224: a2 = a2 | a3\n 33227: a3 = a1 >> 0x20\n 33230: a1 = u64 [s1 + 0xa8]\n 33234: a4 = reverse a1\n 33236: a1 = 0x30180\n 33241: a5 = a4 << 0x20\n 33244: a3 = a3 | a5\n 33247: a4 = a4 >> 0x20\n 33250: u32 [0x30190] = a4\n 33255: u64 [0x30188] = a3\n 33260: u64 [0x30180] = a2\n 33265: a2 = u64 [0x20120]\n 33270: u64 [s1 + 1496] = 0\n 33274: u64 [s1 + 1488] = 0\n 33278: u64 [s1 + 1480] = 0\n 33282: u64 [s1 + 0x90] = a2\n 33286: u64 [s1 + 0x5c0] = a2\n 33290: u32 [s1 + 1504] = 0\n 33294: a0 = a0 >u 0x8fc\n 33298: a2 = -a0\n 33300: a3 = s1 + 0x600\n 33304: u64 [a3 + 0x18] = a2\n 33307: u64 [a3 + 0x10] = a2\n 33310: u64 [a3 + 0x8] = a2\n 33313: u64 [a3] = a2\n 33315: a1 = a1 << 0x20\n 33318: a1 = a1 >> 0x20\n 33321: a0 = a0 << 0x23\n 33324: a0 = a0 | a1\n 33327: a1 = s1 + 0x5c0\n 33331: a1 = a1 << 0x20\n 33334: a1 = a1 >> 0x20\n 33337: a2 = s1 + 0x600\n 33341: a2 = a2 << 0x20\n 33344: a3 = a2 | a1\n 33347: a4 = u64 [s1 + 0x70]\n 33350: a4 = a4 << 0x20\n 33353: a4 = a4 >> 0x20\n 33356: a1 = s1 + 0x5e0\n 33360: a1 = a1 << 0x20\n 33363: a5 = a1 | a4\n 33366: a1 = 0xffffffffffffffff\n 33369: a2 = 0xffffffffffffffff\n 33372: ecalli 0 // 'call'\n 33373: u64 [s1 + 0xa8] = a0\n 33377: ecalli 12 // 'return_data_size'\n 33379: fallthrough\n      : @1332 (gas: 1)\n 33380: jump @1344 if a0 == 0\n      : @1333 (gas: 3)\n 33384: ra = 0x5ee\n 33388: ecalli 12 // 'return_data_size'\n 33390: fallthrough\n      : @1334 [@dyn 759] (gas: 3)\n 33391: a2 = a0 + 0x1f\n 33394: u64 [s1 + 0x88] = a0\n 33398: t0 = 1520, jump @1447\n      : @1335 [@dyn 760] (gas: 7)\n 33404: u64 [s1 + 536] = 0\n 33408: u64 [s1 + 0x200] = a2\n 33412: u64 [s1 + 0x208] = a3\n 33416: a0 = s1 + 0x220\n 33420: a1 = s1 + 0x200\n 33424: u64 [s1 + 0x210] = a4\n 33428: ra = 1522, jump @1369\n      : @1336 [@dyn 761] (gas: 16)\n 33434: a4 = s1 + 0x200\n 33438: a2 = u64 [a4 + 0x38]\n 33441: a3 = u64 [a4 + 0x30]\n 33444: a1 = u64 [a4 + 0x28]\n 33447: a0 = u64 [a4 + 0x20]\n 33450: u64 [s1 + 0x80] = a1\n 33454: u64 [s1 + 0x78] = a2\n 33457: a2 = a2 | a1\n 33460: a1 = a0 | a3\n 33463: a1 = a1 | a2\n 33466: a1 = a1 >> 0x20\n 33469: u64 [s1 + 0x70] = a3\n 33472: a2 = a2 | a3\n 33475: a2 = a2 << 0x20\n 33478: a1 = a1 | a2\n 33481: jump @1357 if a1 != 0\n      : @1337 (gas: 8)\n 33485: u64 [s1 + 504] = 0\n 33489: u64 [s1 + 496] = 0\n 33493: u64 [s1 + 488] = 0\n 33497: a1 = s1 + 0x1e0\n 33501: a2 = u64 [s1 + 0x88]\n 33505: u64 [s1 + 0x1e0] = a2\n 33509: u64 [s1 + 0x88] = a0\n 33513: ra = 1524, jump @9\n      : @1338 [@dyn 762] (gas: 2)\n 33520: ecalli 12 // 'return_data_size'\n 33522: fallthrough\n      : @1339 (gas: 10)\n 33523: a3 = u64 [s1 + 0x88]\n 33527: a1 = u64 [s1 + 0x78]\n 33530: a2 = u64 [s1 + 0x70]\n 33533: a1 = a1 | a2\n 33536: a2 = 0xffffffe0\n 33546: a2 = a3 <u a2\n 33549: a4 = u64 [s1 + 0x80]\n 33553: a2 = 0 if a4 != 0\n 33555: a2 = 0 if a1 != 0\n 33557: jump @1357 if a2 == 0\n      : @1340 (gas: 3)\n 33561: a1 = a0\n 33563: a0 = a0 >> 0x20\n 33566: jump @1357 if a0 != 0\n      : @1341 (gas: 7)\n 33570: i32 a0 = a3 + 0x20\n 33573: a2 = a1\n 33575: u64 [s1 + 0x80] = a1\n 33579: i32 a1 = a1 + 0\n 33581: u64 [s1 + 0x88] = a1\n 33585: a1 = a2\n 33587: ra = 1526, jump @21\n      : @1342 [@dyn 763] (gas: 7)\n 33593: a1 = u64 [s1 + 0x80]\n 33597: u32 [s1 + 0x620] = a1\n 33601: i32 a0 = a0 + 0\n 33603: i32 a1 = s1 + 0x620\n 33607: a2 = 0\n 33609: ecalli 11 // 'return_data_copy'\n 33611: fallthrough\n      : @1343 (gas: 3)\n 33612: a0 = i32 [s1 + 0x620]\n 33616: a1 = u64 [s1 + 0x88]\n 33620: jump @1357 if a0 <u a1\n      : @1344 (gas: 2)\n 33624: a0 = u64 [s1 + 0xa8]\n 33628: jump @1365 if a0 != 0\n      : @1345 (gas: 3)\n 33632: a0 = s1 + 0x1a0\n 33636: a1 = 0x40\n 33639: ra = 1528, jump @7\n      : @1346 [@dyn 764] (gas: 6)\n 33646: a4 = s1 + 0x100\n 33650: a0 = u64 [a4 + 0xb8]\n 33654: a1 = u64 [a4 + 0xb0]\n 33658: a2 = u64 [a4 + 0xa8]\n 33662: a3 = u64 [a4 + 0xa0]\n 33666: t0 = 1530, jump @1419\n      : @1347 [@dyn 765] (gas: 1)\n 33672: jump @1357 if a0 != 0\n      : @1348 (gas: 9)\n 33676: u64 [s1 + 408] = 0\n 33680: u64 [s1 + 400] = 0\n 33684: u64 [s1 + 392] = 0\n 33688: a1 = s1 + 0x180\n 33692: a0 = u64 [s1 + 0x90]\n 33696: u64 [s1 + 0x180] = a0\n 33700: a0 = a3\n 33702: u64 [s1 + 0xb8] = a3\n 33706: ra = 1532, jump @9\n      : @1349 [@dyn 766] (gas: 33)\n 33713: u64 [s1 + 280] = 0\n 33717: u64 [s1 + 272] = 0\n 33721: u64 [s1 + 264] = 0\n 33725: a0 = u64 [s1 + 0x30]\n 33728: u64 [s1 + 0x100] = a0\n 33732: u64 [s1 + 312] = 0\n 33736: u64 [s1 + 304] = 0\n 33740: u64 [s1 + 296] = 0\n 33744: a0 = u64 [s1 + 0x98]\n 33748: u64 [s1 + 0x120] = a0\n 33752: u64 [s1 + 344] = 0\n 33756: a0 = u64 [s1 + 0xa0]\n 33760: u64 [s1 + 0x150] = a0\n 33764: a0 = u64 [s1 + 0x38]\n 33767: u64 [s1 + 0x148] = a0\n 33771: a0 = u64 [0x20148]\n 33776: a1 = u64 [0x20150]\n 33781: a2 = u64 [0x20158]\n 33786: a3 = u64 [s1 + 0x40]\n 33789: u64 [s1 + 0x140] = a3\n 33793: u64 [s1 + 0x178] = a0\n 33797: u64 [s1 + 0x170] = a1\n 33801: u64 [s1 + 0x168] = a2\n 33805: a0 = u64 [0x20160]\n 33810: a1 = 0x20\n 33813: a2 = s1 + 0x160\n 33817: a3 = s1 + 0x140\n 33821: a4 = s1 + 0x120\n 33825: a5 = s1 + 0x100\n 33829: u64 [s1 + 0x160] = a0\n 33833: a0 = u64 [s1 + 0xb8]\n 33837: ra = 0x606\n 33841: jump @18\n      : @1350 (gas: 23)\n 33844: a0 = sp + 0xffffffffffffffe0\n 33847: a5 = a0 & 0xffffffffffffffe0\n 33850: sp = a5\n 33852: a1 = u64 [s1 + 0x68]\n 33855: a0 = a1 + 0x2\n 33858: a1 = a0 <u a1\n 33861: a3 = u64 [s1 + 0x78]\n 33864: a2 = a3 + a1\n 33867: a3 = a2 <u a3\n 33870: a3 = a1 if a1 == 0\n 33873: a1 = u64 [s1 + 0x80]\n 33877: a3 = a3 + a1\n 33880: a1 = a3 <u a1\n 33883: a4 = u64 [s1 + 0x88]\n 33887: a4 = a4 + a1\n 33890: a1 = a5\n 33892: u64 [s1 + 0xb8] = a5\n 33896: u64 [a5 + 0x8] = a2\n 33899: u64 [a5] = a0\n 33901: u64 [a5 + 0x10] = a3\n 33904: u64 [a5 + 0x18] = a4\n 33907: a0 = s1 + 0x300\n 33911: ra = 1534, jump @11\n      : @1351 [@dyn 767] (gas: 23)\n 33918: a5 = s1 + 0x300\n 33922: a0 = u64 [a5]\n 33924: a4 = u64 [0x20120]\n 33929: a1 = u64 [a5 + 0x18]\n 33932: a2 = u64 [a5 + 0x8]\n 33935: a3 = u64 [a5 + 0x10]\n 33938: u64 [s1 + 0xb0] = a4\n 33942: a4 = a4 + a0\n 33945: a0 = a4 <u a0\n 33948: a5 = a2 + a0\n 33951: a2 = a5 <u a2\n 33954: a2 = a0 if a0 == 0\n 33957: a2 = a2 + a3\n 33960: a0 = a2 <u a3\n 33963: a0 = a0 + a1\n 33966: a1 = s1 + 0x600\n 33970: u64 [a1 + 0x40] = a4\n 33973: u64 [a1 + 0x48] = a5\n 33976: u64 [a1 + 0x50] = a2\n 33979: u64 [a1 + 0x58] = a0\n 33982: a1 = s1 + 0x640\n 33986: a0 = u64 [s1 + 0xb8]\n 33990: ra = 1536, jump @12\n      : @1352 [@dyn 768] (gas: 3)\n 33997: a0 = s1 + 0x2e0\n 34001: a1 = 0x40\n 34004: ra = 1538, jump @7\n      : @1353 [@dyn 769] (gas: 13)\n 34011: a4 = s1 + 0x200\n 34015: a3 = u64 [a4 + 0xf8]\n 34019: a1 = u64 [a4 + 0xf0]\n 34023: a2 = u64 [a4 + 0xe8]\n 34027: a0 = u64 [a4 + 0xe0]\n 34031: a3 = a3 | a2\n 34034: a2 = a0 | a1\n 34037: a2 = a2 | a3\n 34040: a2 = a2 >> 0x20\n 34043: a1 = a1 | a3\n 34046: a1 = a1 << 0x20\n 34049: a1 = a1 | a2\n 34052: jump @1357 if a1 != 0\n      : @1354 (gas: 8)\n 34056: u64 [s1 + 728] = 0\n 34060: u64 [s1 + 720] = 0\n 34064: u64 [s1 + 712] = 0\n 34068: a1 = s1 + 0x2c0\n 34072: a2 = u64 [s1 + 0xb0]\n 34076: u64 [s1 + 0x2c0] = a2\n 34080: u64 [s1 + 0xb8] = a0\n 34084: ra = 1540, jump @9\n      : @1355 [@dyn 770] (gas: 32)\n 34091: u64 [s1 + 600] = 0\n 34095: u64 [s1 + 592] = 0\n 34099: u64 [s1 + 584] = 0\n 34103: a0 = u64 [s1 + 0x30]\n 34106: u64 [s1 + 0x240] = a0\n 34110: u64 [s1 + 632] = 0\n 34114: u64 [s1 + 624] = 0\n 34118: u64 [s1 + 616] = 0\n 34122: a0 = u64 [s1 + 0x98]\n 34126: u64 [s1 + 0x260] = a0\n 34130: u64 [s1 + 664] = 0\n 34134: a0 = u64 [s1 + 0xa0]\n 34138: u64 [s1 + 0x290] = a0\n 34142: a0 = u64 [s1 + 0x38]\n 34145: u64 [s1 + 0x288] = a0\n 34149: a0 = u64 [0x20128]\n 34154: a1 = u64 [0x20130]\n 34159: a2 = u64 [0x20138]\n 34164: a3 = u64 [s1 + 0x40]\n 34167: u64 [s1 + 0x280] = a3\n 34171: u64 [s1 + 0x2b8] = a0\n 34175: u64 [s1 + 0x2b0] = a1\n 34179: u64 [s1 + 0x2a8] = a2\n 34183: a0 = u64 [0x20140]\n 34188: a1 = 0x20\n 34191: a2 = s1 + 0x2a0\n 34195: a3 = s1 + 0x280\n 34199: a4 = s1 + 0x260\n 34203: a5 = s1 + 0x240\n 34207: u64 [s1 + 0x2a0] = a0\n 34211: a0 = u64 [s1 + 0xb8]\n 34215: ra = 1542, jump @18\n      : @1356 [@dyn 771] (gas: 7)\n 34222: sp = s0 + 0xfffffffffffff980\n 34226: a0 = sp + 0x600\n 34230: ra = u64 [a0 + 0x78]\n 34233: s0 = u64 [a0 + 0x70]\n 34236: s1 = u64 [a0 + 0x68]\n 34239: sp = sp + 0x680\n 34243: ret\n      : @1357 (gas: 1)\n 34245: trap\n      : @1358 (gas: 8)\n 34246: u64 [s1 + 1360] = 0\n 34250: u64 [s1 + 1352] = 0\n 34254: u64 [s1 + 1344] = 0\n 34258: a0 = 0xcf114bd900000000\n 34268: a1 = s1 + 0x540\n 34272: u64 [s1 + 0x558] = a0\n 34276: a0 = 0\n 34278: ra = 1544, jump @9\n      : @1359 [@dyn 772] (gas: 2)\n 34285: a1 = i32 [0x20170]\n 34290: jump @1361 if a1 >u 31\n      : @1360 (gas: 2)\n 34294: u32 [0x20170] = 0x20\n 34300: fallthrough\n      : @1361 (gas: 6)\n 34301: a1 = 0x20180\n 34306: i32 a1 = a1 + 0\n 34308: a0 = 0x1\n 34311: a2 = 0x4\n 34314: ecalli 13 // 'seal_return'\n 34316: fallthrough\n      : @1362 (gas: 9)\n 34317: u64 [s1 + 208] = 0\n 34321: u64 [s1 + 200] = 0\n 34325: u64 [s1 + 192] = 0\n 34329: a0 = 0xa7a9536d00000000\n 34339: a1 = s1 + 0xc0\n 34343: u64 [s1 + 0xd8] = a0\n 34347: a0 = 0\n 34349: ra = 0x60a\n 34353: jump @9\n      : @1363 (gas: 9)\n 34357: u64 [s1 + 240] = 0\n 34361: u64 [s1 + 232] = 0\n 34365: u64 [s1 + 224] = 0\n 34369: a0 = 0xafa4e2b600000000\n 34379: a1 = s1 + 0xe0\n 34383: u64 [s1 + 0xf8] = a0\n 34387: a0 = 0\n 34389: ra = 0x60a\n 34393: jump @9\n      : @1364 (gas: 9)\n 34397: u64 [s1 + 944] = 0\n 34401: u64 [s1 + 936] = 0\n 34405: u64 [s1 + 928] = 0\n 34409: a0 = 0x560ff90000000000\n 34419: a1 = s1 + 0x3a0\n 34423: u64 [s1 + 0x3b8] = a0\n 34427: a0 = 0\n 34429: ra = 0x60a\n 34433: jump @9\n      : @1365 (gas: 8)\n 34437: u64 [s1 + 464] = 0\n 34441: u64 [s1 + 456] = 0\n 34445: u64 [s1 + 448] = 0\n 34449: a0 = 0x90b8ec1800000000\n 34459: a1 = s1 + 0x1c0\n 34463: u64 [s1 + 0x1d8] = a0\n 34467: a0 = 0\n 34469: ra = 1546, jump @9\n      : @1366 [@dyn 773] (gas: 3)\n 34476: a0 = u64 [s1 + 0xb0]\n 34480: a0 = i32 [a0]\n 34482: jump @1368 if a0 >u 31\n      : @1367 (gas: 3)\n 34486: a1 = u64 [s1 + 0xb0]\n 34490: u32 [a1 + 0] = 0x20\n 34493: fallthrough\n      : @1368 (gas: 6)\n 34494: a0 = 0x1\n 34497: a2 = 0x4\n 34500: a1 = u64 [s1 + 0xb8]\n 34504: ra = 0x60c\n 34508: ecalli 13 // 'seal_return'\n 34510: fallthrough\n      : @1369 [@dyn 774] (gas: 17)\n 34511: sp = sp + 0xffffffffffffff30\n 34515: u64 [sp + 0xc8] = ra\n 34519: u64 [sp + 0xc0] = s0\n 34523: u64 [sp + 0xb8] = s1\n 34527: s0 = sp + 0xd0\n 34531: sp = sp & 0xfffffffffffffff0\n 34534: a2 = u64 [a1 + 0x18]\n 34537: u64 [sp + 0x10] = a2\n 34540: a2 = u64 [a1 + 0x10]\n 34543: u64 [sp + 0x8] = a2\n 34546: a2 = u64 [a1 + 0x8]\n 34549: u64 [sp] = a2\n 34551: s1 = u64 [a1]\n 34553: u64 [sp + 0x28] = a0\n 34556: a0 = sp + 0x90\n 34560: a1 = 0x40\n 34563: ra = 1550, jump @7\n      : @1370 [@dyn 775] (gas: 39)\n 34570: a1 = u64 [sp + 0x98]\n 34574: a2 = u64 [sp + 0x90]\n 34578: a0 = s1 + 0x1f\n 34581: ra = a0 <u s1\n 34584: a3 = u64 [sp]\n 34586: a4 = a3 + ra\n 34589: a0 = a0 & 0xffffffffffffffe0\n 34592: t1 = a1 + a4\n 34595: t0 = a2 + a0\n 34598: u64 [sp + 0x20] = a2\n 34601: a5 = t0 <u a2\n 34604: t1 = t1 + a5\n 34607: s1 = t1 ^ a1\n 34610: u64 [sp + 0x18] = a1\n 34613: a2 = t1 <u a1\n 34616: a2 = a5 if s1 == 0\n 34619: t2 = u64 [sp + 0xa8]\n 34623: a4 = a4 <u a3\n 34626: s1 = u64 [sp + 0xa0]\n 34630: a4 = ra if ra == 0\n 34633: a0 = u64 [sp + 0x8]\n 34636: a4 = a4 + a0\n 34639: a5 = a4 <u a0\n 34642: a4 = a4 + s1\n 34645: a3 = a4 + a2\n 34648: a0 = u64 [sp + 0x10]\n 34651: a0 = a0 + t2\n 34654: a0 = a0 + a5\n 34657: a5 = a3 <u a4\n 34660: a4 = a4 <u s1\n 34663: a0 = a0 + a4\n 34666: a4 = a0 + a5\n 34669: a0 = a4 >u 0\n 34671: a5 = a3 >u 0\n 34673: a5 = a0 if a4 != 0\n 34676: a0 = a3 | a4\n 34679: a1 = t1 >u 0\n 34681: a1 = a5 if a0 != 0\n 34684: jump @1374 if a1 != 0\n      : @1371 (gas: 8)\n 34687: a0 = a3 <u s1\n 34690: a1 = a4 ^ t2\n 34693: a5 = a4 <u t2\n 34696: a5 = a0 if a1 == 0\n 34699: a0 = a3 ^ s1\n 34702: a0 = a0 | a1\n 34705: a2 = a5 if a0 != 0\n 34708: jump @1374 if a2 != 0\n      : @1372 (gas: 8)\n 34711: u64 [sp + 0x70] = t0\n 34714: u64 [sp + 0x78] = t1\n 34717: u64 [sp + 0x80] = a3\n 34721: a0 = 0x40\n 34724: a1 = sp + 0x70\n 34727: u64 [sp + 0x88] = a4\n 34731: u64 [sp + 0x10] = t2\n 34734: ra = 1552, jump @9\n      : @1373 [@dyn 776] (gas: 14)\n 34741: a0 = u64 [sp + 0x28]\n 34744: a1 = u64 [sp + 0x10]\n 34747: u64 [a0 + 0x18] = a1\n 34750: u64 [a0 + 0x10] = s1\n 34753: a1 = u64 [sp + 0x18]\n 34756: u64 [a0 + 0x8] = a1\n 34759: a1 = u64 [sp + 0x20]\n 34762: u64 [a0] = a1\n 34764: sp = s0 + 0xffffffffffffff30\n 34768: ra = u64 [sp + 0xc8]\n 34772: s0 = u64 [sp + 0xc0]\n 34776: s1 = u64 [sp + 0xb8]\n 34780: sp = sp + 0xd0\n 34784: ret\n      : @1374 (gas: 8)\n 34786: u64 [sp + 96] = 0\n 34789: u64 [sp + 88] = 0\n 34792: u64 [sp + 80] = 0\n 34795: a0 = 0x4e487b7100000000\n 34805: a1 = sp + 0x50\n 34808: u64 [sp + 0x68] = a0\n 34811: a0 = 0\n 34813: ra = 1554, jump @9\n      : @1375 [@dyn 777] (gas: 7)\n 34820: u64 [sp + 72] = 0\n 34823: u64 [sp + 64] = 0\n 34826: u64 [sp + 48] = 0x41\n 34830: a0 = 0x4\n 34833: a1 = sp + 0x30\n 34836: u64 [sp + 56] = 0\n 34839: ra = 1556, jump @9\n      : @1376 [@dyn 778] (gas: 2)\n 34846: a1 = i32 [0x20170]\n 34851: jump @1378 if a1 >u 63\n      : @1377 (gas: 2)\n 34855: u32 [0x20170] = 0x40\n 34861: fallthrough\n      : @1378 (gas: 7)\n 34862: a1 = 0x20180\n 34867: i32 a1 = a1 + 0\n 34869: a0 = 0x1\n 34872: a2 = 0x24\n 34875: ra = 0x616\n 34879: ecalli 13 // 'seal_return'\n 34881: fallthrough\n      : @1379 [@dyn 779] (gas: 74)\n 34882: sp = sp + 0xfffffffffffffec0\n 34886: u64 [sp + 0x138] = ra\n 34890: u64 [sp + 0x130] = s0\n 34894: u64 [sp + 0x128] = s1\n 34898: s0 = sp + 0x140\n 34902: sp = sp & 0xffffffffffffffe0\n 34905: a2 = u64 [a1]\n 34907: u64 [sp + 0x38] = a2\n 34910: a2 = u64 [a1 + 0x8]\n 34913: u64 [sp + 0x30] = a2\n 34916: a2 = u64 [a1 + 0x10]\n 34919: u64 [sp + 0x28] = a2\n 34922: a1 = u64 [a1 + 0x18]\n 34925: u64 [sp + 0x20] = a1\n 34928: a1 = u64 [a0]\n 34930: u64 [sp + 0x18] = a1\n 34933: a1 = u64 [a0 + 0x10]\n 34936: u64 [sp + 0x10] = a1\n 34939: s1 = u64 [a0 + 0x8]\n 34942: ecalli 10 // 'ref_time_left'\n 34944: a1 = reverse s1\n 34946: a2 = a1 << 0x20\n 34949: a3 = u64 [sp + 0x10]\n 34952: a3 = reverse a3\n 34954: a3 = a3 >> 0x20\n 34957: a2 = a2 | a3\n 34960: a1 = a1 >> 0x20\n 34963: a3 = u64 [sp + 0x18]\n 34966: a3 = reverse a3\n 34968: a4 = 0x30180\n 34973: a5 = a3 << 0x20\n 34976: a1 = a1 | a5\n 34979: a3 = a3 >> 0x20\n 34982: u32 [0x30190] = a3\n 34987: u64 [0x30188] = a1\n 34992: u64 [0x30180] = a2\n 34997: a1 = u64 [sp + 0x20]\n 35000: u64 [sp + 0xd8] = a1\n 35004: a1 = u64 [sp + 0x28]\n 35007: u64 [sp + 0xd0] = a1\n 35011: a1 = u64 [sp + 0x30]\n 35014: u64 [sp + 0xc8] = a1\n 35018: a1 = u64 [sp + 0x38]\n 35021: u64 [sp + 0xc0] = a1\n 35025: u32 [sp + 224] = 0\n 35029: a0 = a0 >u 0x8fc\n 35033: a1 = -a0\n 35035: u64 [sp + 0x118] = a1\n 35039: u64 [sp + 0x110] = a1\n 35043: u64 [sp + 0x108] = a1\n 35047: u64 [sp + 0x100] = a1\n 35051: a4 = a4 << 0x20\n 35054: a4 = a4 >> 0x20\n 35057: a0 = a0 << 0x23\n 35060: a0 = a0 | a4\n 35063: a1 = sp + 0xc0\n 35067: a1 = a1 << 0x20\n 35070: a1 = a1 >> 0x20\n 35073: a4 = 0x20180\n 35078: a2 = sp + 0x100\n 35082: a2 = a2 << 0x20\n 35085: a3 = a2 | a1\n 35088: u64 [sp + 0x18] = a4\n 35091: a4 = a4 << 0x20\n 35094: a4 = a4 >> 0x20\n 35097: a1 = sp + 0xe0\n 35101: a1 = a1 << 0x20\n 35104: a5 = a1 | a4\n 35107: a1 = 0xffffffffffffffff\n 35110: a2 = 0xffffffffffffffff\n 35113: ecalli 0 // 'call'\n 35114: s1 = a0\n 35116: ecalli 12 // 'return_data_size'\n 35118: fallthrough\n      : @1380 (gas: 1)\n 35119: jump @1392 if a0 == 0\n      : @1381 (gas: 4)\n 35123: u64 [sp + 0x20] = s1\n 35126: ra = 0x618\n 35130: ecalli 12 // 'return_data_size'\n 35132: fallthrough\n      : @1382 [@dyn 780] (gas: 3)\n 35133: a2 = a0 + 0x1f\n 35136: u64 [sp + 0x38] = a0\n 35139: t0 = 1562, jump @1447\n      : @1383 [@dyn 781] (gas: 7)\n 35145: u64 [sp + 152] = 0\n 35149: u64 [sp + 0x80] = a2\n 35153: u64 [sp + 0x88] = a3\n 35157: a0 = sp + 0xa0\n 35161: a1 = sp + 0x80\n 35165: u64 [sp + 0x90] = a4\n 35169: ra = 1564, jump @1369\n      : @1384 [@dyn 782] (gas: 14)\n 35175: a2 = u64 [sp + 0xb8]\n 35179: s1 = u64 [sp + 0xb0]\n 35183: a1 = u64 [sp + 0xa8]\n 35187: a0 = u64 [sp + 0xa0]\n 35191: u64 [sp + 0x30] = a1\n 35194: u64 [sp + 0x28] = a2\n 35197: a2 = a2 | a1\n 35200: a1 = a0 | s1\n 35203: a1 = a1 | a2\n 35206: a1 = a1 >> 0x20\n 35209: a2 = a2 | s1\n 35212: a2 = a2 << 0x20\n 35215: a1 = a1 | a2\n 35218: jump @1394 if a1 != 0\n      : @1385 (gas: 8)\n 35222: u64 [sp + 120] = 0\n 35225: u64 [sp + 112] = 0\n 35228: u64 [sp + 104] = 0\n 35231: a1 = sp + 0x60\n 35234: a2 = u64 [sp + 0x38]\n 35237: u64 [sp + 0x60] = a2\n 35240: u64 [sp + 0x38] = a0\n 35243: ra = 1566, jump @9\n      : @1386 [@dyn 783] (gas: 2)\n 35250: ecalli 12 // 'return_data_size'\n 35252: fallthrough\n      : @1387 (gas: 9)\n 35253: a3 = u64 [sp + 0x38]\n 35256: a1 = u64 [sp + 0x28]\n 35259: a1 = a1 | s1\n 35262: a2 = 0xffffffe0\n 35272: a2 = a3 <u a2\n 35275: a4 = u64 [sp + 0x30]\n 35278: a2 = 0 if a4 != 0\n 35280: a2 = 0 if a1 != 0\n 35282: jump @1394 if a2 == 0\n      : @1388 (gas: 3)\n 35285: s1 = a0\n 35287: a0 = a0 >> 0x20\n 35290: jump @1394 if a0 != 0\n      : @1389 (gas: 5)\n 35293: i32 a0 = a3 + 0x20\n 35296: i32 a1 = s1 + 0\n 35298: u64 [sp + 0x38] = a1\n 35301: a1 = s1\n 35303: ra = 1568, jump @21\n      : @1390 [@dyn 784] (gas: 6)\n 35310: u32 [sp + 0x120] = s1\n 35314: i32 a0 = a0 + 0\n 35316: i32 a1 = sp + 0x120\n 35320: a2 = 0\n 35322: ecalli 11 // 'return_data_copy'\n 35324: fallthrough\n      : @1391 (gas: 4)\n 35325: a0 = i32 [sp + 0x120]\n 35329: s1 = u64 [sp + 0x20]\n 35332: a1 = u64 [sp + 0x38]\n 35335: jump @1394 if a0 <u a1\n      : @1392 (gas: 1)\n 35338: jump @1395 if s1 != 0\n      : @1393 (gas: 6)\n 35341: sp = s0 + 0xfffffffffffffec0\n 35345: ra = u64 [sp + 0x138]\n 35349: s0 = u64 [sp + 0x130]\n 35353: s1 = u64 [sp + 0x128]\n 35357: sp = sp + 0x140\n 35361: ret\n      : @1394 (gas: 1)\n 35363: trap\n      : @1395 (gas: 8)\n 35364: u64 [sp + 80] = 0\n 35367: u64 [sp + 72] = 0\n 35370: u64 [sp + 64] = 0\n 35373: a0 = 0x90b8ec1800000000\n 35383: a1 = sp + 0x40\n 35386: u64 [sp + 0x58] = a0\n 35389: a0 = 0\n 35391: ra = 1570, jump @9\n      : @1396 [@dyn 785] (gas: 2)\n 35398: a1 = i32 [0x20170]\n 35403: jump @1398 if a1 >u 31\n      : @1397 (gas: 2)\n 35407: u32 [0x20170] = 0x20\n 35413: fallthrough\n      : @1398 (gas: 7)\n 35414: a1 = i32 [sp + 0x18]\n 35417: a0 = 0x1\n 35420: a2 = 0x4\n 35423: ecalli 13 // 'seal_return'\n 35425: a0 = 0\n 35427: ra = 0x624\n 35431: jump @27\n      : @1399 [export #0: 'call'] (gas: 2)\n 35435: a0 = 0\n 35437: ra = 1572, jump @27\n      : @1400 [@dyn 786] [export #1: 'deploy'] (gas: 2)\n 35444: a0 = 0x1\n 35447: ra = 1574, jump @27\n      : @1401 [@dyn 787] (gas: 15)\n 35454: a0 = u64 [a2 + 0x8]\n 35457: a1 = i32 [a2 + 0x10]\n 35460: a2 = u64 [a2]\n 35462: a0 = reverse a0\n 35464: a3 = a0 << 0x20\n 35467: a1 = reverse a1\n 35469: a1 = a1 >> 0x20\n 35472: a3 = a3 | a1\n 35475: a0 = a0 >> 0x20\n 35478: a1 = reverse a2\n 35480: a2 = a1 << 0x20\n 35483: a0 = a0 | a2\n 35486: a1 = a1 >> 0x20\n 35489: a2 = s1 + 0x18b8\n 35493: jump [t0]\n      : @1402 (gas: 17)\n 35495: a2 = u64 [s1 + 0xd0]\n 35499: a0 = u64 [a2 + 0x8]\n 35502: a1 = i32 [a2 + 0x10]\n 35505: a2 = u64 [a2]\n 35507: a0 = reverse a0\n 35509: a3 = a0 << 0x20\n 35512: a1 = reverse a1\n 35514: a1 = a1 >> 0x20\n 35517: a3 = a3 | a1\n 35520: a0 = a0 >> 0x20\n 35523: a1 = reverse a2\n 35525: a2 = a1 << 0x20\n 35528: a0 = a0 | a2\n 35531: a1 = a1 >> 0x20\n 35534: a2 = s1 + 0x7ff\n 35538: a2 = a2 + 0x99\n 35542: jump [t0]\n      : @1403 (gas: 5)\n 35544: sp = a0\n 35546: i32 a2 = a0 + 0\n 35548: a1 = 0x40\n 35551: a0 = u64 [s1 + 0x110]\n 35555: jump [t0]\n      : @1404 (gas: 8)\n 35557: a0 = u64 [a2 + 0x8]\n 35560: a1 = i32 [a2 + 0x10]\n 35563: a2 = u64 [a2]\n 35565: a3 = reverse a0\n 35567: a0 = a3 << 0x20\n 35570: a1 = reverse a1\n 35572: a1 = a1 >> 0x20\n 35575: jump [t0]\n      : @1405 (gas: 16)\n 35577: a2 = u64 [s1 + 0x88]\n 35581: a0 = u64 [a2 + 0x8]\n 35584: a1 = i32 [a2 + 0x10]\n 35587: a2 = u64 [a2]\n 35589: a0 = reverse a0\n 35591: a3 = a0 << 0x20\n 35594: a1 = reverse a1\n 35596: a1 = a1 >> 0x20\n 35599: a3 = a3 | a1\n 35602: a0 = a0 >> 0x20\n 35605: a1 = reverse a2\n 35607: a2 = a1 << 0x20\n 35610: a0 = a0 | a2\n 35613: a1 = a1 >> 0x20\n 35616: a2 = s1 + 0x20b8\n 35620: jump [t0]\n      : @1406 (gas: 27)\n 35622: u64 [s1 + 0xe8] = a0\n 35626: a0 = ra - a3\n 35629: a0 = a0 <u a5\n 35632: a1 = ra <u a3\n 35635: a5 = u64 [s1 + 0xb8]\n 35639: a4 = ra - a5\n 35642: a4 = a4 - a1\n 35645: a4 = a4 - a0\n 35648: ra = a4 >>a 0x3f\n 35651: a0 = u64 [s1 + 0xb0]\n 35655: a0 = ra & a0\n 35658: a1 = u64 [s1 + 0xc0]\n 35662: t2 = a1 - a0\n 35665: a1 = a1 <u a0\n 35668: t1 = a2 - a1\n 35671: a1 = 0 if a2 != 0\n 35673: a0 = a3 - a1\n 35676: u64 [s1 + 0xc8] = a0\n 35680: a1 = a3 <u a1\n 35683: a1 = a5 - a1\n 35686: a0 = s1 + 0x100\n 35690: a3 = u64 [a0 + 0x18]\n 35693: a5 = u64 [a0 + 0x10]\n 35696: a2 = a3 | a5\n 35699: a2 = a2 <u 0x1\n 35702: a4 = u64 [a0]\n 35704: jump [t0]\n      : @1407 (gas: 15)\n 35706: a2 = u64 [s1 + 0x100]\n 35710: a0 = u64 [a2 + 0x8]\n 35713: a1 = i32 [a2 + 0x10]\n 35716: a2 = u64 [a2]\n 35718: a0 = reverse a0\n 35720: a3 = a0 << 0x20\n 35723: a1 = reverse a1\n 35725: a1 = a1 >> 0x20\n 35728: a3 = a3 | a1\n 35731: a0 = a0 >> 0x20\n 35734: a1 = reverse a2\n 35736: a2 = a1 << 0x20\n 35739: a0 = a0 | a2\n 35742: a1 = a1 >> 0x20\n 35745: jump [t0]\n      : @1408 (gas: 24)\n 35747: a0 = a1 if a2 == 0\n 35750: a2 = u64 [s1 + 0xd0]\n 35754: a3 = a2\n 35756: a1 = a2\n 35758: a2 = u64 [s1 + 0xe0]\n 35762: a3 = a0 if a2 != 0\n 35765: u64 [s1 + 0xe8] = a3\n 35769: a0 = u64 [s1 + 0xc8]\n 35773: a3 = u64 [s1 + 0xb0]\n 35777: a0 = a0 | a3\n 35780: a3 = u64 [s1 + 0xa0]\n 35784: a0 = a3 if a5 == 0\n 35787: a4 = u64 [s1 + 0xd8]\n 35791: a3 = a4\n 35793: a3 = a0 if a2 != 0\n 35796: u64 [s1 + 0xe0] = a3\n 35800: a0 = u64 [s1 + 0xf0]\n 35804: a0 = 0 if a5 == 0\n 35806: u64 [s1 + 0xf0] = a0\n 35810: u64 [s1 + 176] = 0x15180\n 35817: a0 = u64 [s1 + 0x118]\n 35821: a2 = a0 + 0xffffffffffffff80\n 35824: a0 = a4\n 35826: jump [t0]\n      : @1409 (gas: 8)\n 35828: a0 = sp + 0xffffffffffffffe0\n 35831: a0 = a0 & 0xffffffffffffffe0\n 35834: u64 [s1 + 0x110] = a0\n 35838: sp = a0\n 35840: i32 a2 = a0 + 0\n 35842: a1 = 0x40\n 35845: a0 = u64 [s1 + 0x90]\n 35849: jump [t0]\n      : @1410 (gas: 18)\n 35851: a1 = a2 + 0x1\n 35854: u64 [s1 + 0x118] = a1\n 35858: a0 = a1 <u 0x1\n 35861: a0 = a0 + a3\n 35864: u64 [s1 + 0x110] = a0\n 35868: a0 = a0 | a1\n 35871: a0 = a0 <u 0x1\n 35874: a0 = a0 + t1\n 35877: u64 [s1 + 0x100] = a0\n 35881: a0 = a0 <u t1\n 35884: a0 = a0 + ra\n 35887: u64 [s1 + 0x108] = a0\n 35891: a1 = 0xff - a2\n 35895: u64 [s1 + 0xe0] = a1\n 35899: a2 = 0x80 - a1\n 35903: a0 = u64 [s1 + 0xc0]\n 35907: a1 = u64 [s1 + 0xb8]\n 35911: jump [t0]\n      : @1411 (gas: 14)\n 35913: a0 = u64 [a3 + 0x18]\n 35916: a1 = u64 [a3 + 0x10]\n 35919: a2 = u64 [a3 + 0x8]\n 35922: a3 = u64 [a3]\n 35924: a0 = reverse a0\n 35926: a4 = reverse a1\n 35928: a2 = reverse a2\n 35930: a3 = reverse a3\n 35932: a1 = u64 [s1 + 0xf0]\n 35936: u64 [a1 + 0x18] = a3\n 35939: u64 [a1 + 0x10] = a2\n 35942: u64 [a1 + 0x8] = a4\n 35945: u64 [a1] = a0\n 35947: jump [t0]\n      : @1412 (gas: 14)\n 35949: a3 = u64 [s1 + 0xf0]\n 35953: a0 = u64 [a3 + 0x18]\n 35956: a1 = u64 [a3 + 0x10]\n 35959: a2 = u64 [a3 + 0x8]\n 35962: a3 = u64 [a3]\n 35964: a0 = reverse a0\n 35966: u64 [s1 + 0xf0] = a0\n 35970: a0 = reverse a1\n 35972: u64 [s1 + 0xe8] = a0\n 35976: a0 = reverse a2\n 35978: u64 [s1 + 0xe0] = a0\n 35982: a0 = reverse a3\n 35984: u64 [s1 + 0xd8] = a0\n 35988: jump [t0]\n      : @1413 (gas: 20)\n 35990: a3 = u64 [s1 + 0xf0]\n 35994: a0 = u64 [a3 + 0x18]\n 35997: a1 = u64 [a3 + 0x10]\n 36000: a2 = u64 [a3 + 0x8]\n 36003: a3 = u64 [a3]\n 36005: a0 = reverse a0\n 36007: u64 [s1 + 0xe8] = a0\n 36011: a0 = reverse a1\n 36013: u64 [s1 + 0xe0] = a0\n 36017: a0 = reverse a2\n 36019: u64 [s1 + 0xd8] = a0\n 36023: a0 = reverse a3\n 36025: u64 [s1 + 0xd0] = a0\n 36029: a0 = sp + 0xffffffffffffffe0\n 36032: a0 = a0 & 0xffffffffffffffe0\n 36035: u64 [s1 + 0xf0] = a0\n 36039: sp = a0\n 36041: a2 = s1 + 0x10b8\n 36045: a0 = u64 [s1 + 0x108]\n 36049: jump [t0]\n      : @1414 (gas: 21)\n 36051: a3 = u64 [s1 + 0x100]\n 36055: a0 = u64 [a3 + 0x18]\n 36058: a1 = u64 [a3 + 0x10]\n 36061: a2 = u64 [a3 + 0x8]\n 36064: a3 = u64 [a3]\n 36066: a0 = reverse a0\n 36068: u64 [s1 + 0xf0] = a0\n 36072: a0 = reverse a1\n 36074: u64 [s1 + 0xe8] = a0\n 36078: a0 = reverse a2\n 36080: u64 [s1 + 0xe0] = a0\n 36084: a0 = reverse a3\n 36086: u64 [s1 + 0xd8] = a0\n 36090: a0 = sp + 0xffffffffffffffe0\n 36093: a0 = a0 & 0xffffffffffffffe0\n 36096: u64 [s1 + 0x100] = a0\n 36100: sp = a0\n 36102: a2 = s1 + 0x7ff\n 36106: a2 = a2 + 0x99\n 36110: a0 = u64 [s1 + 0xf8]\n 36114: jump [t0]\n      : @1415 (gas: 9)\n 36116: a0 = u64 [a3 + 0x18]\n 36119: a1 = u64 [a3 + 0x10]\n 36122: a2 = u64 [a3 + 0x8]\n 36125: a3 = u64 [a3]\n 36127: a0 = reverse a0\n 36129: a1 = reverse a1\n 36131: a2 = reverse a2\n 36133: a3 = reverse a3\n 36135: jump [t0]\n      : @1416 (gas: 8)\n 36137: a3 = a4 <u a3\n 36140: a5 = a2 + a3\n 36143: a2 = a5 <u a2\n 36146: a2 = a3 if a3 == 0\n 36149: a2 = a2 + a1\n 36152: a1 = a2 <u a1\n 36155: a0 = a0 + a1\n 36158: jump [t0]\n      : @1417 (gas: 16)\n 36160: a3 = u64 [s1 + 0x110]\n 36164: a0 = u64 [a3 + 0x18]\n 36167: a1 = u64 [a3 + 0x10]\n 36170: a2 = u64 [a3 + 0x8]\n 36173: a3 = u64 [a3]\n 36175: a0 = reverse a0\n 36177: u64 [s1 + 0x110] = a0\n 36181: a0 = reverse a1\n 36183: u64 [s1 + 0x108] = a0\n 36187: a0 = reverse a2\n 36189: u64 [s1 + 0x100] = a0\n 36193: a0 = reverse a3\n 36195: u64 [s1 + 0xf8] = a0\n 36199: a0 = 0x18b8\n 36203: a2 = s1 + a0\n 36206: jump [t0]\n      : @1418 (gas: 19)\n 36208: a3 = u64 [s1 + 0xf0]\n 36212: a0 = u64 [a3 + 0x18]\n 36215: a1 = u64 [a3 + 0x10]\n 36218: a2 = u64 [a3 + 0x8]\n 36221: a3 = u64 [a3]\n 36223: a0 = reverse a0\n 36225: u64 [s1 + 0xe8] = a0\n 36229: a0 = reverse a1\n 36231: u64 [s1 + 0xe0] = a0\n 36235: a0 = reverse a2\n 36237: u64 [s1 + 0xd8] = a0\n 36241: a0 = reverse a3\n 36243: u64 [s1 + 0xd0] = a0\n 36247: a0 = sp + 0xffffffffffffffe0\n 36250: a0 = a0 & 0xffffffffffffffe0\n 36253: u64 [s1 + 0xf0] = a0\n 36257: sp = a0\n 36259: a0 = u64 [s1 + 0x100]\n 36263: jump [t0]\n      : @1419 (gas: 8)\n 36265: a0 = a0 | a2\n 36268: a2 = a3 | a1\n 36271: a2 = a2 | a0\n 36274: a2 = a2 >> 0x20\n 36277: a0 = a0 | a1\n 36280: a0 = a0 << 0x20\n 36283: a0 = a0 | a2\n 36286: jump [t0]\n      : @1420 (gas: 19)\n 36288: a3 = u64 [s1 + 0xe8]\n 36292: a0 = u64 [a3 + 0x18]\n 36295: a1 = u64 [a3 + 0x10]\n 36298: a2 = u64 [a3 + 0x8]\n 36301: a3 = u64 [a3]\n 36303: a5 = reverse a0\n 36305: a4 = reverse a1\n 36307: a0 = reverse a2\n 36309: a2 = reverse a3\n 36311: a1 = u64 [s1 + 0xf0]\n 36315: u64 [s1 + 0xe0] = a2\n 36319: u64 [a1 + 0x18] = a2\n 36322: u64 [s1 + 0xe8] = a0\n 36326: u64 [a1 + 0x10] = a0\n 36329: u64 [s1 + 0xd8] = a4\n 36333: u64 [a1 + 0x8] = a4\n 36336: u64 [s1 + 0xd0] = a5\n 36340: u64 [a1] = a5\n 36342: jump [t0]\n      : @1421 (gas: 17)\n 36344: a4 = s1 + 0x100\n 36348: a2 = u64 [a4]\n 36350: a0 = u64 [a2 + 0x8]\n 36353: a1 = i32 [a2 + 0x10]\n 36356: a2 = u64 [a2]\n 36358: a0 = reverse a0\n 36360: a3 = a0 << 0x20\n 36363: a1 = reverse a1\n 36365: a1 = a1 >> 0x20\n 36368: a3 = a3 | a1\n 36371: a0 = a0 >> 0x20\n 36374: a1 = reverse a2\n 36376: a2 = a1 << 0x20\n 36379: a0 = a0 | a2\n 36382: a1 = a1 >> 0x20\n 36385: a2 = u64 [a4 + 0x18]\n 36388: jump [t0]\n      : @1422 (gas: 18)\n 36390: a3 = u64 [s1 + 0xa8]\n 36394: a0 = u64 [a3 + 0x18]\n 36397: a1 = u64 [a3 + 0x10]\n 36400: a2 = u64 [a3 + 0x8]\n 36403: a3 = u64 [a3]\n 36405: a0 = reverse a0\n 36407: u64 [s1 + 0x90] = a0\n 36411: a0 = reverse a1\n 36413: u64 [s1 + 0x88] = a0\n 36417: a0 = reverse a2\n 36419: u64 [s1 + 0x80] = a0\n 36423: a0 = reverse a3\n 36425: u64 [s1 + 0x78] = a0\n 36428: a0 = sp + 0xffffffffffffffe0\n 36431: a0 = a0 & 0xffffffffffffffe0\n 36434: u64 [s1 + 0xa8] = a0\n 36438: sp = a0\n 36440: jump [t0]\n      : @1423 (gas: 14)\n 36442: a3 = u64 [s1 + 0x118]\n 36446: a0 = u64 [a3 + 0x18]\n 36449: a1 = u64 [a3 + 0x10]\n 36452: a2 = u64 [a3 + 0x8]\n 36455: a3 = u64 [a3]\n 36457: a5 = reverse a0\n 36459: u64 [s1 + 0x108] = a5\n 36463: a4 = reverse a1\n 36465: u64 [s1 + 0x110] = a4\n 36469: a2 = reverse a2\n 36471: u64 [s1 + 0x100] = a2\n 36475: a0 = reverse a3\n 36477: u64 [s1 + 0x118] = a0\n 36481: jump [t0]\n      : @1424 (gas: 15)\n 36483: a0 = u64 [a3 + 0x18]\n 36486: a1 = u64 [a3 + 0x10]\n 36489: a2 = u64 [a3 + 0x8]\n 36492: a3 = u64 [a3]\n 36494: a0 = reverse a0\n 36496: u64 [s1 + 0x108] = a0\n 36500: a0 = reverse a1\n 36502: u64 [s1 + 0x100] = a0\n 36506: a0 = reverse a2\n 36508: u64 [s1 + 0xf8] = a0\n 36512: a0 = reverse a3\n 36514: u64 [s1 + 0xf0] = a0\n 36518: a0 = sp + 0xffffffffffffffe0\n 36521: a0 = a0 & 0xffffffffffffffe0\n 36524: jump [t0]\n      : @1425 (gas: 15)\n 36526: t2 = u64 [s1 + 0xc0]\n 36530: t1 = u64 [s1 + 0xb8]\n 36534: u64 [s1 + 216] = 0\n 36538: u64 [s1 + 208] = 0\n 36542: a2 = u64 [s1 + 0xa8]\n 36546: a1 = 0 if a2 == 0\n 36548: a0 = 0 if a2 == 0\n 36550: u64 [s1 + 0xc8] = a0\n 36554: a3 = u64 [s1 + 0xb0]\n 36558: a2 = a3 + 0xffffffffffffffff\n 36561: u64 [s1 + 0xa8] = a2\n 36565: a2 = a3 >u 0\n 36567: a2 = a2 + 0xffffffffffffffff\n 36570: u64 [s1 + 0xa0] = a2\n 36574: jump [t0]\n      : @1426 (gas: 16)\n 36576: a3 = u64 [s1 + 0x110]\n 36580: a0 = u64 [a3 + 0x18]\n 36583: a1 = u64 [a3 + 0x10]\n 36586: a2 = u64 [a3 + 0x8]\n 36589: a3 = u64 [a3]\n 36591: a0 = reverse a0\n 36593: a4 = reverse a1\n 36595: a2 = reverse a2\n 36597: a3 = reverse a3\n 36599: a1 = u64 [s1 + 0x118]\n 36603: u64 [a1 + 0x18] = a3\n 36606: u64 [a1 + 0x10] = a2\n 36609: u64 [a1 + 0x8] = a4\n 36612: u64 [a1] = a0\n 36614: a0 = 0x2000\n 36618: jump [t0]\n      : @1427 (gas: 15)\n 36620: a0 = u64 [a3 + 0x18]\n 36623: a1 = u64 [a3 + 0x10]\n 36626: a2 = u64 [a3 + 0x8]\n 36629: a3 = u64 [a3]\n 36631: a0 = reverse a0\n 36633: u64 [s1 + 0xe8] = a0\n 36637: a0 = reverse a1\n 36639: u64 [s1 + 0xe0] = a0\n 36643: a0 = reverse a2\n 36645: u64 [s1 + 0xd8] = a0\n 36649: a0 = reverse a3\n 36651: u64 [s1 + 0xd0] = a0\n 36655: a0 = sp + 0xffffffffffffffe0\n 36658: a0 = a0 & 0xffffffffffffffe0\n 36661: jump [t0]\n      : @1428 (gas: 15)\n 36663: a0 = u64 [a3 + 0x18]\n 36666: a1 = u64 [a3 + 0x10]\n 36669: a2 = u64 [a3 + 0x8]\n 36672: a3 = u64 [a3]\n 36674: a0 = reverse a0\n 36676: u64 [s1 + 0xf8] = a0\n 36680: a0 = reverse a1\n 36682: u64 [s1 + 0xf0] = a0\n 36686: a0 = reverse a2\n 36688: u64 [s1 + 0xe8] = a0\n 36692: a0 = reverse a3\n 36694: u64 [s1 + 0xe0] = a0\n 36698: a0 = sp + 0xffffffffffffffe0\n 36701: a0 = a0 & 0xffffffffffffffe0\n 36704: jump [t0]\n      : @1429 (gas: 14)\n 36706: a0 = u64 [a3 + 0x18]\n 36709: a1 = u64 [a3 + 0x10]\n 36712: a2 = u64 [a3 + 0x8]\n 36715: a3 = u64 [a3]\n 36717: a0 = reverse a0\n 36719: a4 = reverse a1\n 36721: a2 = reverse a2\n 36723: a3 = reverse a3\n 36725: a1 = u64 [s1 + 0x100]\n 36729: u64 [a1 + 0x18] = a3\n 36732: u64 [a1 + 0x10] = a2\n 36735: u64 [a1 + 0x8] = a4\n 36738: u64 [a1] = a0\n 36740: jump [t0]\n      : @1430 (gas: 11)\n 36742: a0 = u64 [a3 + 0x18]\n 36745: a1 = u64 [a3 + 0x10]\n 36748: a2 = u64 [a3 + 0x8]\n 36751: a3 = u64 [a3]\n 36753: a0 = reverse a0\n 36755: a1 = reverse a1\n 36757: a2 = reverse a2\n 36759: a3 = reverse a3\n 36761: a4 = s1 + 0x20b8\n 36765: a5 = a4 + 0x700\n 36769: jump [t0]\n      : @1431 (gas: 8)\n 36771: a0 = sp + 0xffffffffffffffe0\n 36774: a0 = a0 & 0xffffffffffffffe0\n 36777: u64 [s1 + 0xf0] = a0\n 36781: sp = a0\n 36783: i32 a2 = a0 + 0\n 36785: a1 = 0x40\n 36788: a0 = u64 [s1 + 0x100]\n 36792: jump [t0]\n      : @1432 (gas: 8)\n 36794: a0 = sp + 0xffffffffffffffe0\n 36797: a0 = a0 & 0xffffffffffffffe0\n 36800: u64 [s1 + 0xf0] = a0\n 36804: sp = a0\n 36806: i32 a2 = a0 + 0\n 36808: a1 = 0x40\n 36811: a0 = u64 [s1 + 0x108]\n 36815: jump [t0]\n      : @1433 (gas: 9)\n 36817: a5 = s1 + 0x100\n 36821: u64 [a5 + 0x18] = a1\n 36824: u64 [a5 + 0x10] = a3\n 36827: a0 = a3 | a1\n 36830: u64 [s1 + 0xf8] = a2\n 36834: u64 [a5 + 0x8] = a4\n 36837: a1 = a4 | a2\n 36840: a0 = a0 | a1\n 36843: jump [t0]\n      : @1434 (gas: 13)\n 36845: a1 = u64 [s1 + 0xd0]\n 36849: a0 = a1 + 0x2\n 36852: a1 = a0 <u a1\n 36855: a3 = u64 [s1 + 0xd8]\n 36859: a2 = a3 + a1\n 36862: a3 = a2 <u a3\n 36865: a3 = a1 if a1 == 0\n 36868: a1 = u64 [s1 + 0xe8]\n 36872: a3 = a3 + a1\n 36875: a1 = a3 <u a1\n 36878: a4 = u64 [s1 + 0xe0]\n 36882: a1 = a1 + a4\n 36885: jump [t0]\n      : @1435 (gas: 15)\n 36887: a3 = u64 [s1 + 0x90]\n 36891: a0 = u64 [a3 + 0x18]\n 36894: a1 = u64 [a3 + 0x10]\n 36897: a2 = u64 [a3 + 0x8]\n 36900: a3 = u64 [a3]\n 36902: a0 = reverse a0\n 36904: a4 = reverse a1\n 36906: a2 = reverse a2\n 36908: a3 = reverse a3\n 36910: a1 = u64 [s1 + 0xa8]\n 36914: u64 [a1 + 0x18] = a3\n 36917: u64 [a1 + 0x10] = a2\n 36920: u64 [a1 + 0x8] = a4\n 36923: u64 [a1] = a0\n 36925: jump [t0]\n      : @1436 (gas: 12)\n 36927: a2 = t2 >> 0x3f\n 36930: a3 = t1 << 0x1\n 36933: a2 = a2 | a3\n 36936: a3 = t2 << 0x1\n 36939: t2 = u64 [s1 + 0xe8]\n 36943: a4 = t2 >> 0x3f\n 36946: a3 = a3 | a4\n 36949: u64 [s1 + 0xc0] = a3\n 36953: ra = u64 [s1 + 0xa0]\n 36957: a0 = t1\n 36959: t1 = ra ^ a2\n 36962: jump [t0]\n      : @1437 (gas: 10)\n 36964: u64 [s1] = a3\n 36966: u64 [s1 + 0x8] = a2\n 36969: u64 [s1 + 0x10] = a1\n 36972: u64 [s1 + 0x18] = a0\n 36975: sp = s0 + 0xffffffffffffffc0\n 36978: ra = u64 [sp + 0x38]\n 36981: s0 = u64 [sp + 0x30]\n 36984: s1 = u64 [sp + 0x28]\n 36987: sp = sp + 0x40\n 36990: jump [t0]\n      : @1438 (gas: 10)\n 36992: a0 = u64 [a3 + 0x18]\n 36995: a1 = u64 [a3 + 0x10]\n 36998: a2 = u64 [a3 + 0x8]\n 37001: a3 = u64 [a3]\n 37003: a0 = reverse a0\n 37005: a1 = reverse a1\n 37007: a2 = reverse a2\n 37009: a3 = reverse a3\n 37011: a4 = s1 + 0x20b8\n 37015: jump [t0]\n      : @1439 (gas: 9)\n 37017: u64 [a2 + 0x20] = a0\n 37020: a0 = u64 [s1 + 0xe0]\n 37024: u64 [a2 + 0x18] = a0\n 37027: a0 = u64 [s1 + 0xe8]\n 37031: u64 [a2 + 0x10] = a0\n 37034: a3 = a1\n 37036: a0 = 0x20\n 37039: a1 = s1 + 0x7ff\n 37043: jump [t0]\n      : @1440 (gas: 8)\n 37045: a0 = sp + 0xffffffffffffffe0\n 37048: a0 = a0 & 0xffffffffffffffe0\n 37051: u64 [s1 + 0xa8] = a0\n 37055: sp = a0\n 37057: i32 a2 = a0 + 0\n 37059: a1 = 0x40\n 37062: a0 = u64 [s1 + 0xb8]\n 37066: jump [t0]\n      : @1441 (gas: 12)\n 37068: a1 = a1 << 0x1\n 37071: a4 = u64 [s1 + 0xc8]\n 37075: a3 = a4 >> 0x3f\n 37078: a1 = a1 | a3\n 37081: u64 [s1 + 0xb8] = a1\n 37085: a3 = a0 >> 0x3f\n 37088: a0 = a4 << 0x1\n 37091: a3 = a3 | a0\n 37094: a0 = t2 << 0x1\n 37097: a4 = u64 [s1 + 0xe0]\n 37101: a1 = a4 >> 0x3f\n 37104: jump [t0]\n      : @1442 (gas: 12)\n 37106: u64 [a3 + 0xd0] = a1\n 37110: a1 = a1 | a0\n 37113: u64 [a3 + 0xc8] = a0\n 37117: a0 = a1 <u 0x1\n 37120: a1 = u64 [s1 + 0x100]\n 37124: a0 = a0 + a1\n 37127: u64 [a3 + 0xd8] = a0\n 37131: a0 = a0 <u a1\n 37134: a1 = u64 [s1 + 0x118]\n 37138: a0 = a0 + a1\n 37141: u64 [a3 + 0xe0] = a0\n 37145: jump [t0]\n      : @1443 (gas: 16)\n 37147: a4 = u64 [a3]\n 37149: u64 [sp + 0x18] = a4\n 37152: a4 = u64 [a3 + 0x8]\n 37155: u64 [sp + 0x20] = a4\n 37158: a4 = u64 [a3 + 0x10]\n 37161: u64 [sp + 0x28] = a4\n 37164: a3 = u64 [a3 + 0x18]\n 37167: u64 [sp + 0x30] = a3\n 37170: s1 = u64 [a2]\n 37172: a3 = u64 [a2 + 0x8]\n 37175: u64 [sp] = a3\n 37177: a3 = u64 [a2 + 0x10]\n 37180: u64 [sp + 0x8] = a3\n 37183: a2 = u64 [a2 + 0x18]\n 37186: u64 [sp + 0x10] = a2\n 37189: jump [t0]\n      : @1444 (gas: 9)\n 37191: u64 [s1 + 0xe0] = a3\n 37195: a1 = 0 if a4 == 0\n 37197: u64 [s1 + 0xe8] = a1\n 37201: u64 [s1 + 184] = 0x15180\n 37208: a0 = u64 [s1 + 0x110]\n 37212: a2 = a0 + 0xffffffffffffff80\n 37215: a0 = a5\n 37217: a1 = t1\n 37219: jump [t0]\n      : @1445 (gas: 10)\n 37221: a3 = u64 [s1 + 0x110]\n 37225: a0 = u64 [a3]\n 37227: a1 = u64 [a3 + 0x8]\n 37230: a2 = u64 [a3 + 0x10]\n 37233: a3 = u64 [a3 + 0x18]\n 37236: a0 = reverse a0\n 37238: a1 = reverse a1\n 37240: a2 = reverse a2\n 37242: a3 = reverse a3\n 37244: jump [t0]\n      : @1446 (gas: 4)\n 37246: a0 = u64 [s1 + 0x118]\n 37250: a0 = i32 [a0]\n 37252: a1 = 0x3f\n 37255: jump [t0]\n      : @1447 (gas: 8)\n 37257: a1 = a2 <u a0\n 37260: a0 = a2 & 0xffffffffffffffe0\n 37263: a2 = a0 + 0x20\n 37266: a0 = a2 <u a0\n 37269: a3 = a1 + a0\n 37272: a4 = a3 <u a1\n 37275: a4 = a0 if a0 == 0\n 37278: jump [t0]\n      : @1448 (gas: 11)\n 37280: a2 = u64 [s1 + 0xa8]\n 37284: a1 = a1 | a2\n 37287: a2 = u64 [s1 + 0x118]\n 37291: a3 = a2 <u 0x80\n 37295: u64 [s1 + 0xa8] = a3\n 37299: a4 = u64 [s1 + 0xa0]\n 37303: a1 = a4 if a3 == 0\n 37306: a4 = u64 [s1 + 0xb8]\n 37310: a4 = a1 if a2 != 0\n 37313: u64 [s1 + 0xb8] = a4\n 37317: jump [t0]\n      : @1449 (gas: 8)\n 37319: a1 = u64 [s1 + 0x108]\n 37323: a0 = a1 + 0x2\n 37326: a1 = a0 <u a1\n 37329: a3 = u64 [s1 + 0x110]\n 37333: a2 = a3 + a1\n 37336: a3 = a2 <u a3\n 37339: a3 = a1 if a1 == 0\n 37342: jump [t0]\n      : @1450 (gas: 5)\n 37344: a0 = sp + 0xffffffffffffffe0\n 37347: a2 = a0 & 0xffffffffffffffe0\n 37350: u64 [s1 + 0x118] = a2\n 37354: sp = a2\n 37356: jump [t0]\n      : @1451 (gas: 8)\n 37358: a0 = u64 [a4 + 0xb8]\n 37362: a1 = u64 [a4 + 0xc0]\n 37366: a2 = u64 [a4 + 0xb0]\n 37370: a3 = u64 [a4 + 0xa8]\n 37374: a1 = a1 | a2\n 37377: a0 = a0 | a3\n 37380: a0 = a0 | a1\n 37383: jump [t0]\n      : @1452 (gas: 10)\n 37385: a2 = u64 [s1 + 0xa8]\n 37389: a1 = 0 if a2 == 0\n 37391: a0 = 0 if a2 == 0\n 37393: a3 = u64 [s1 + 0xb8]\n 37397: a2 = a3 + 0xffffffffffffffff\n 37400: u64 [s1 + 0xb0] = a2\n 37404: a2 = a3 >u 0\n 37406: a2 = a2 + 0xffffffffffffffff\n 37409: u64 [s1 + 0xa8] = a2\n 37413: jump [t0]\n      : @1453 (gas: 9)\n 37415: a0 = a0 & 0xffffffffffffffff\n 37418: a1 = a1 & 0xffffffffffffffff\n 37421: a2 = a2 & 0xffffffffffffffff\n 37424: a4 = u64 [s1 + 0xf8]\n 37428: a3 = a3 & a4\n 37431: a4 = u64 [s1 + 0x110]\n 37435: a3 = a3 | a4\n 37438: a4 = s1 + 0x28b8\n 37442: jump [t0]\n      : @1454 (gas: 12)\n 37444: a0 = u64 [sp + 0x18]\n 37447: a1 = u64 [sp + 0x10]\n 37450: a2 = u64 [sp + 0x8]\n 37453: a3 = u64 [sp]\n 37455: a4 = a2 | a0\n 37458: a5 = a3 | a1\n 37461: a5 = a5 | a4\n 37464: a5 = a5 >> 0x20\n 37467: a4 = a4 | a1\n 37470: a4 = a4 << 0x20\n 37473: a4 = a4 | a5\n 37476: jump [t0]\n      : @1455 (gas: 9)\n 37478: a0 = u64 [a3 + 0x18]\n 37481: a1 = u64 [a3 + 0x10]\n 37484: a2 = u64 [a3 + 0x8]\n 37487: a3 = u64 [a3]\n 37489: a0 = reverse a0\n 37491: a4 = reverse a1\n 37493: a2 = reverse a2\n 37495: a3 = reverse a3\n 37497: jump [t0]\n      : @1456 (gas: 7)\n 37499: a3 = u64 [s1 + 0xd0]\n 37503: a0 = a0 - a3\n 37506: a3 = u64 [s1 + 0x108]\n 37510: a4 = u64 [s1 + 0xe0]\n 37514: a3 = a4 - a3\n 37517: a4 = s1 + 0x20b8\n 37521: jump [t0]\n      : @1457 (gas: 8)\n 37523: a0 = sp + 0xffffffffffffffe0\n 37526: a0 = a0 & 0xffffffffffffffe0\n 37529: u64 [s1 + 0xe8] = a0\n 37533: sp = a0\n 37535: i32 a2 = a0 + 0\n 37537: a1 = 0x40\n 37540: a0 = u64 [s1 + 0x100]\n 37544: jump [t0]\n      : @1458 (gas: 8)\n 37546: a0 = sp + 0xffffffffffffffe0\n 37549: a0 = a0 & 0xffffffffffffffe0\n 37552: u64 [s1 + 0xe8] = a0\n 37556: sp = a0\n 37558: i32 a2 = a0 + 0\n 37560: a1 = 0x40\n 37563: a0 = u64 [s1 + 0x108]\n 37567: jump [t0]\n      : @1459 (gas: 9)\n 37569: a0 = u64 [a2 + 0x8]\n 37572: a1 = i32 [a2 + 0x10]\n 37575: a2 = u64 [a2]\n 37577: a0 = reverse a0\n 37579: a3 = a0 << 0x20\n 37582: a1 = reverse a1\n 37584: a1 = a1 >> 0x20\n 37587: a1 = a1 | a3\n 37590: jump [t0]\n      : @1460 (gas: 4)\n 37592: a0 = u64 [s1 + 0x118]\n 37596: a0 = i32 [a0]\n 37598: a1 = 0x23\n 37601: jump [t0]\n      : @1461 (gas: 4)\n 37603: a0 = 0x40\n 37606: a1 = u64 [s1 + 0x118]\n 37610: u32 [a1] = a0\n 37612: jump [t0]\n      : @1462 (gas: 10)\n 37614: sp = sp + 0xffffffffffffffc0\n 37617: u64 [sp + 0x38] = ra\n 37620: u64 [sp + 0x30] = s0\n 37623: u64 [sp + 0x28] = s1\n 37626: s0 = sp + 0x40\n 37629: sp = sp & 0xffffffffffffffe0\n 37632: s1 = a0\n 37634: i32 a0 = sp + 0\n 37636: a1 = 0x4\n 37639: jump [t0]\n      : @1463 (gas: 6)\n 37641: a0 = u64 [a3 + 0x18]\n 37644: a1 = u64 [a3 + 0x10]\n 37647: a2 = u64 [a3 + 0x8]\n 37650: a3 = u64 [a3]\n 37652: a0 = reverse a0\n 37654: jump [t0]\n      : @1464 (gas: 7)\n 37656: a0 = sp + 0xffffffffffffffe0\n 37659: a0 = a0 & 0xffffffffffffffe0\n 37662: u64 [s1 + 0x118] = a0\n 37666: sp = a0\n 37668: i32 a2 = a0 + 0\n 37670: a1 = 0x40\n 37673: jump [t0]\n      : @1465 (gas: 8)\n 37675: a0 = sp + 0xffffffffffffffe0\n 37678: a0 = a0 & 0xffffffffffffffe0\n 37681: u64 [s1 + 0x90] = a0\n 37685: sp = a0\n 37687: i32 a2 = a0 + 0\n 37689: a1 = 0x40\n 37692: a0 = u64 [s1 + 0xb8]\n 37696: jump [t0]\n      : @1466 (gas: 5)\n 37698: a0 = sp + 0xffffffffffffffe0\n 37701: a2 = a0 & 0xffffffffffffffe0\n 37704: u64 [s1 + 0x110] = a2\n 37708: sp = a2\n 37710: jump [t0]\n      : @1467 (gas: 5)\n 37712: a0 = a2 ^ 0xff\n 37716: a0 = a0 | t1\n 37719: a1 = a3 | ra\n 37722: a0 = a0 | a1\n 37725: jump [t0]\n      : @1468 (gas: 8)\n 37727: a0 = u64 [a4 + 0x18]\n 37730: a1 = u64 [a4 + 0x20]\n 37733: a2 = u64 [a4 + 0x10]\n 37736: a3 = u64 [a4 + 0x8]\n 37739: a1 = a1 | a2\n 37742: a0 = a0 | a3\n 37745: a0 = a0 | a1\n 37748: jump [t0]\n      : @1469 (gas: 4)\n 37750: a0 = u64 [s1 + 0x118]\n 37754: a1 = 0x40\n 37757: u32 [a0] = a1\n 37759: jump [t0]\n      : @1470 (gas: 4)\n 37761: a0 = 0x20b8\n 37765: a3 = s1 + a0\n 37768: a4 = a3 + 0x600\n 37772: jump [t0]\n      : @1471 (gas: 4)\n 37774: a0 = 0x20b8\n 37778: a3 = s1 + a0\n 37781: a4 = a3 + 0x500\n 37785: jump [t0]\n      : @1472 (gas: 4)\n 37787: a0 = 0x28b8\n 37791: a3 = s1 + a0\n 37794: a4 = a3 + 0x300\n 37798: jump [t0]\n      : @1473 (gas: 4)\n 37800: a0 = 0x28b8\n 37804: a3 = s1 + a0\n 37807: a4 = a3 + 0x200\n 37811: jump [t0]\n      : @1474 (gas: 6)\n 37813: a0 = a2 <u 0x1\n 37816: a1 = a2 + 0xffffffffffffffff\n 37819: a1 = a1 <u 0x32\n 37822: a1 = a1 ^ 0x1\n 37825: a1 = a0 if a2 == 0\n 37828: jump [t0]\n      : @1475 (gas: 4)\n 37830: a2 = a0\n 37832: a0 = 0x4e487b7100000000\n 37842: a1 = 0x2000\n 37846: jump [t0]\n      : @1476 (gas: 10)\n 37848: u64 [s1 + 0xf0] = a1\n 37852: a4 = s1 + 0x100\n 37856: a1 = u64 [a4 + 0x10]\n 37859: a2 = u64 [a4 + 0x8]\n 37862: a2 = a2 | a1\n 37865: a1 = u64 [a4 + 0x18]\n 37868: a3 = u64 [a4]\n 37870: a1 = a1 | a3\n 37873: a1 = a1 | a2\n 37876: jump [t0]\n      : @1477 (gas: 9)\n 37878: a3 = u64 [s1 + 0xf8]\n 37882: a0 = u64 [a3 + 0x18]\n 37885: a1 = u64 [a3 + 0x10]\n 37888: a2 = u64 [a3 + 0x8]\n 37891: a3 = u64 [a3]\n 37893: a0 = reverse a0\n 37895: u64 [s1 + 0xf8] = a0\n 37899: a0 = reverse a1\n 37901: jump [t0]\n      : @1478 (gas: 9)\n 37903: sp = sp + 0xffffffffffffffc0\n 37906: u64 [sp + 0x38] = ra\n 37909: u64 [sp + 0x30] = s0\n 37912: u64 [sp + 0x28] = s1\n 37915: s0 = sp + 0x40\n 37918: sp = sp & 0xffffffffffffffe0\n 37921: s1 = a0\n 37923: i32 a0 = sp + 0\n 37925: jump [t0]\n      : @1479 (gas: 9)\n 37927: a0 = a0 | a1\n 37930: a1 = u64 [s1 + 0xc8]\n 37934: a0 = a1 if a3 == 0\n 37937: a1 = u64 [s1 + 0xc0]\n 37941: a1 = a0 if a2 != 0\n 37944: u64 [s1 + 0xc0] = a1\n 37948: a0 = u64 [s1 + 0xd8]\n 37952: a1 = u64 [s1 + 0xd0]\n 37956: jump [t0]\n      : @1480 (gas: 8)\n 37958: a0 = u64 [a4 + 0x78]\n 37961: a1 = u64 [a4 + 0x80]\n 37965: a2 = u64 [a4 + 0x70]\n 37968: a3 = u64 [a4 + 0x68]\n 37971: a1 = a1 | a2\n 37974: a0 = a0 | a3\n 37977: a0 = a0 | a1\n 37980: jump [t0]\n      : @1481 (gas: 8)\n 37982: a0 = u64 [a4 + 0x38]\n 37985: a1 = u64 [a4 + 0x40]\n 37988: a2 = u64 [a4 + 0x30]\n 37991: a3 = u64 [a4 + 0x28]\n 37994: a1 = a1 | a2\n 37997: a0 = a0 | a3\n 38000: a0 = a0 | a1\n 38003: jump [t0]\n      : @1482 (gas: 2)\n 38005: a3 = a2 & 0x40\n 38008: jump @1486 if a3 != 0\n      : @1483 (gas: 1)\n 38011: jump @1485 if a2 == 0\n      : @1484 (gas: 6)\n 38014: i32 a3 = 0x40 - a2\n 38017: a3 = a1 << a3\n 38020: a1 = a1 >> a2\n 38023: a0 = a0 >> a2\n 38026: a0 = a0 | a3\n 38029: ret\n      : @1485 (gas: 1)\n 38031: ret\n      : @1486 (gas: 4)\n 38033: a0 = a2 + 0xffffffffffffffc0\n 38036: a0 = a1 >> a0\n 38039: a1 = 0\n 38041: ret\n      : @1487 (gas: 2)\n 38043: a3 = a2 & 0x40\n 38046: jump @1491 if a3 != 0\n      : @1488 (gas: 1)\n 38049: jump @1490 if a2 == 0\n      : @1489 (gas: 6)\n 38052: i32 a3 = 0x40 - a2\n 38055: a3 = a0 >> a3\n 38058: a0 = a0 << a2\n 38061: a1 = a1 << a2\n 38064: a1 = a1 | a3\n 38067: ret\n      : @1490 (gas: 1)\n 38069: ret\n      : @1491 (gas: 4)\n 38071: a1 = a2 + 0xffffffffffffffc0\n 38074: a1 = a0 << a1\n 38077: a0 = 0\n 38079: ret\n","bytecode":{"object":"50564d000043b0000000000000010700c1c001c0008003816c8c5429eea693f81e976c2a47cb5638031d6e7e460a43c54553b4e6a10ec9d36bf40443b2a766a42db9815a1e2efa877e5c0519ec4fe51c83c442ba392fca77e27a96c0a237ac310730ce86cab6918a9cee1f20395b3b80e1e34a4eb67d08a74e0dc354af37bd04b03f2522518a6d9314cf35a01b6f25119782e62a75888f78d1b417406592b5dbd6886d772784123ca0859bbddc544b79277c562e79691cb8290000e8890423c78affffe7890423c78a00001876fbdc3875975752f4e33b24c3dceff4c6a46dc4173eb68630b623f1b6b5ef1d0584397d33527c373f8a8f13d8dec2e4708e54ca59a13610a1f529f1946a422bba3c51695be6d8186647f5847091063f7d0def110bff283e79b8ad5546d505d5764c8d017f00001876fbdc38750000e8890423c78af2a8b439f25bd8ebdf119a7090238fa225717e85c68e190f0982ba0d5cabfde394247a18b5e26bbe1d817609543b3c0451c960f58acf6b97ba06c2c9ba61c0412000000004811b11000000000400000012000000200000002e0000003400000041000000530000005e0000006d000000700000007d0000008d0000009d000000a8000000ba000000c500000063616c6c63616c6c5f646174615f636f707963616c6c5f646174615f6c6f616463616c6c5f646174615f73697a6563616c6c65726465706f7369745f6576656e746765745f696d6d757461626c655f646174616765745f73746f72616765686173685f6b656363616b5f3235366e6f777265665f74696d655f6c65667472657475726e5f646174615f636f707972657475726e5f646174615f73697a657365616c5f72657475726e7365745f696d6d757461626c655f646174617365745f73746f7261676576616c75655f7472616e73666572726564051302c06b8a0463616c6cc0748a066465706c6f7906c086ad831302c0c1946a00b201b5034a04520424052c052b063006b106bc06d706280733079d07c607da0706081b085a0887088f084c09ca09d809e409fb09150a730a950ae60af00a3d0bea0bf70b6b0c770c950cce0ce10cea0c6d0d730d790dc60ddb0dd10eeb0e080f2a0fbf0fd90ff70f4210bc11c211c811d411eb11081228122d124c126912bb12c512cf124b136d137e138413bc13c913df13141429143314b714bd14c314cf143115371554157815b215ce15d415e11519166f166a178417a117c117211827182d1853185d187a189d18d418f118f7180319ed19fa19451a791aa91abe1ac81a261b911bbc1bd71be01b151c1e1c3e1c801c861c9f1cbf1cf31c111d221d2c1d5c1d8f1dad1dbe1dc81dd21deb1d401e731e791e9e1eb61ed41ef61efc1e191f361f7e1f9e1fb71f3320512062206820a020ad20c720fd2012211c217521a721ad21b321bf21dd21e32104231e233b235d23aa23b823c423d923ff231c2446245f2465247e24bd24cb24f12428258e25a3250a267226bf260927172782272828312851289728a128cc28fb28042935294f29602966297f29bb29c929e3292a2a332a502ab82a502ba52bfb2b442c522cc12cec2c482d982d9e2db72dd42d202e2a2e712ff82f2b305430d8302c318631cc31dc31e2310232263247325b3265329832cc32333354336e3390339e33cc331e342c349a34e73404353d354b357c35c135d135d735f435173651365736603679369d36b736d936e636ef36413755375f37d137de37fa3777387d389738b53803390d396c3a723a933abe3aeb3a483b4e3b723b9e3bd83be93bf33b113c973c9d3cbe3cea3c083d153d1b3d3f3d553d673d853d963da03ded3d263e653e6b3e8f3ebb3ed93eea3ef43e363f723f903f9d3fa33fc73fdd3fef3f0d401e40284036405b40f7402a419a41be41e44148425c42c8423e4364438c43b2433144a244c844fd440f45184553457945ae45c145ca45ea457346b846754787479047b047fe4729485a4860486648d148e648f048aa49b049b649fd490a4a6a4a704a764ab64aed4a244b8e4bc94bd74bf24b164c314c5c4c664c834c8c4cac4cd44cf54cff4c324d694d874d984da24dc64dd04df54de54eef4ef54e0f4f2c4f4c4f524f774f7d4f974fb44fba4fc34fc94fcf4fd54fe84f2e509a50a050a650c150e55011511b513b51445164517c51a951b351e7511b5221522a523a524b52555279528352a852ff5209532953325352535853615371537e5384539d53bd53f453fa530354135465547e54ae540d55175534553d555d557b5588558e55ad55e45502560f5615561e5641565656b656c45604572c574a5762578f579957bb57dd570f5835589d58b258bc58d958fc580e59175927592e594e5967598b59d359e859f259695a7f5abb5ac55ae25aeb5a0b5b295b365b3c5b5c5b905bae5bbf5bc95bd85bf75b2a5c625c6c5c855c9d5c545d8e5dc35d795e835e895ea35ec05ee05ee65e0b5f115f2b5f485f4e5f575f5d5f635f695f7c5fc25f1a605f6074607e60f9602c6165619c61ae61fc61286240627b628562a7626663ae63c863e36302648f64a864c4640a65eb661c6736674a676b6775679767276858685e6867686d687a688068a068d168d768e068e668f368f9680369306956698a69a869ae69b769bd69ca69d069f0691c6a226a2b6a316a3e6a446a646a956a9b6aa46aaa6abb6ac56acf6a3c6b6b6b916bbf6bf26b226c306c836c8c6cac6cdc6cfd6c076d296d8e6db76ddb6df96d066e0c6e2c6e5f6e7d6e8a6e906e9a6ec86eea6e036f2b6f4c6f6a6f776f7d6f866fa26fd16fef6ffc6f02701e704c706a707b7085708f70167170713772637269727272827293729d72d3720e7314731d732d737373fa735274d874047522752f753575617577758975a77510764f766d767e768876a5762a778b77d8770d7833785f78bf78c578e7780279087918791e7927794279487955795b7964797979a47abb7ad47af27a717b877ba17be47b5d7d7b7dc07dc67def7d1f7e397e467e4c7e567e957eb37ecd7ede7ee87e1d7f4a7f647f717f777f977fc77fe17fee7ff47ffe7f2a806a809180ae80c8802881878199816f827c829a82f08239836e838883b1837e84cd84db842b85ae85ed85ac86cf860a87b58704881e8842883d8949896789b289ee89468a748a7e8a9511e87b10107b15087b163306680102390568010251051c3307a00103837783680a060139076801022003680102ac5710821010821508821695111832000039086801025108b9073307a0010383770a0e28ac079511f07b10087b1564896475330820649750100277057c78017c797c7a027c7b03978808d4980897aa1097bb18d4ba0ad4a8087c79057c7a047c7b067c7c07979908d4a90997bb1097cc18d4cb0bd4b909979920d489027c79097c7a087c7b0a7c7c0b979908d4a90997bb1097cc18d4cb0bd4b9097c7a0d7c7b0c7c7c0e7c780f97aa08d4ba0a97cc10978818d4c808d4a808978820d498037c78117c7a107c7b127c7c13978808d4a80897bb1097cc18d4cb0bd4b8087c7a157c7b147c7c167c791797aa08d4ba0a97cc10979918d4c909d4a909979920d4890a7c78197c79187c7b1a7c7c1b978808d4980897bb1097cc18d4cb0bd4b8087c791d7c7b1c7c7c1e7c771f979908d4b90997cc10977718d4c707d49707977720d487076f776fa86f396f2a7b5a187b59107b58087b57821008821595111032009511d87b10207b15187b161082897b19088289087b198285108286183308205010042f046f686f59821a6faa821b086fbb787b18787a10787908787898bc38787c1f98bc30787c1e98bc28787c1d98bc20787c1c98bc18787c1b98bc10787c1a98bb08787b1998ab38787b1798ab30787b1698ab28787b1598ab20787b1498ab18787b1398ab10787b1298aa08787a11989a38787a0f989a30787a0e989a28787a0d989a20787a0c989a18787a0b989a10787a0a98990878790998893878790798893078790698892878790598892078790498891878790398891078790298880878780182102082151882161095112832009511a07b10587b15507b16489515608411e06476828718828910828a0882886f776f996faa6f887b18187b1a107b19087b17491138491130491128491120481140208318831a20831b403309ff33070a07821738821830821928821a206f776f886f996faa7b6a187b69107b68087b679551a082105882155082164895116032009511a07b10587b15509515608411e08272827a08827b108277188283828908828c108288186f746fbb6faa6f276f826fcc6f996f387b17187b1a107b1b087b147b18387b19307b1c287b12208318831a203309ff330b2033070a0f9551a08210588215509511603200951160ff7b1098007b1590007b1688009515a0008411e082ab7b1b3882ab087b1b3082ab107b1b2882aa187b1a20829a7b1a18829a087b1a10829a107b1a088299187b1964865010062c0282186f888219086f99821a106faa821b186fbb7b1b587b1a507b19487b18408218206f888219286f99821a306faa821b386fbb7b1b787b1a707b19687b18608379836a8317403308020a05955160ff8210980082159000821688009511a0003200951120ff7b10d8007b15d0007b16c8009515e0008411e082bc7b1c4082bc087b1c4882bc107b1c5082bb187b1b58501208d78c007b183850100a8f016f687b187882186f887b18708218086f887b18688218106f887b18608218186f887b1898008218206f887b1890008218286f887b1888008218306f887b1880008218406f887b18b8008218486f887b18b0008218506f887b18a8008218586f887b18a0008379811a388317603308030a05955120ff8210d8008215d0008216c8009511e00032009511e0fe7b1018017b1510017b160801951520018411e082c67b166082c6087b166882c6107b167082cc187b1c7882bc7b1c3882bc087b1c4082bc107b1c4882bb187b1b5050120cfd8b007b185850100eb5006f687b18980082186f887b1890008218086f887b1888008218106f887b1880008218186f887b18b8008218206f887b18b0008218286f887b18a8008218306f887b18a0008218386f887b18d8008218406f887b18d0008218486f887b18c8008218506f887b18c0008218606f887b18f8008218686f887b18f0008218706f887b18e8008218786f887b18e0008379811a58831780003308040a059551e0fe8210180182151001821608019511200132008b7910520931c8780883881f8488e05638000001253309700102390a700102ae8a093d087001020133088001028377c887073200009511f07b10087b158475010a03013d076c010251050750101009501012f001951100ff7b10f8007b15f0007b16e800951500018411e04921d8004921d0004921c8004921c0008317c0000a10018217d0008218d8008219c800821ac000d49808d4a707d487075207e10039066c010297672098772095771f8477e09578a000d878077b18a0007b17a80094777b17b0003307409518a0004921b800501014e2fa3307a000646850101625ff8377646833090a010154161fa000951780003308a00050101882f9821790008219980014080000000001000000d37808d49808987a2088aa01949a938a510a7982188000821a8800d4780bd49a0cd4cb0b510b727b18607b1a687b1770330780009518607b197850101a6bfa95174033084050101c26f9821758821850821948821640d49707d48609d47909989920d48707977720d49707510769003308800102838833070128b1003308800102838833070128a400330880010283883307012897004911104911084901140700000000c8f5bc1464187b1718330750101ef6f9390870010256181f0b20037001022001330880010283883307013309040a0d01646733085010201bfe8377330833090a01951720330880005010227ff8821738821930821a28821b203e07b801033e09b001033e0aa801033e0ba001032845f864673308501024dbfd8378330733093300260a0d280a33093300260a0d01951110fe7b10e8017b15e0017b16d8019515f001951150d48411e064169569b82049294004492938044929280480003307409568e0244929300450102839f933076c01027b67180139076c01025517040728a9549567002083770005330833002a0a0233022c956ab820280a33022c956ab8200181a764045247871cb2880a28991251476cd3238f0b019569b8285247346662990a28741e5247b00de3d00a28350f5147074e71e9d50b52475f53cc0e0a28bf1a514786e72a227a0451474d7d1a2ec1085247f50796370a2868155247b836cc480a2892185147aef7914a0a28652349196049195849195049194895670030837700f90a1001956ab82882a75882a86082a95082aa48d49808d4a707d4870751070628c1398267180181775617030728c5399567001033084050102e0df7956aff0795aa990095ac000782cb800082c87882c97082c768d49b0bd48709d4b909989920d4b808978820d498085108062873393a08a00002492a6007492a58077ba848079568ff079588e107492a50077b6718013300120128e9f79567b82849272001492718014927100149270801956700308377c0f93300300a1001956ab82895ab00015012328d8900510706283839501234fa8800ac7806283d39956700308377e0f93308043300360a02019567b828957c000182c84082c93882ca3082cb28501238c28500520706281d3933078001037b67f00083777b67c0000a048269f00082970881981082996f77977a206f88988820d48a0a9877206f98978920d497079888209569b81049294005959b00057bb8387bb7309568e0157bba28330750103a20f79567b81049272005492718054927100564793307209568c0154929080550103cfef69517e08477e07b67000164713309700102390770010256173f0b200370010240017b69b8009517e08479e07b69e80064913307800102837783993308407b67c80033003e0a08826ae80033024028278800826ae8005012401f88006f8c6f996fa2826b00017bb2187bb9107bbc087bb7951be084b8e06481957b02d87b07c87c0ad8ca0cda770cc89c0cd89c07c827077b8c107b8a087b8b7b87189567a0157b68e80050104248f79567b810827300058274f8048272f004827ae80482671801d3730bd8730c8268f800d884077b67d800dab70c82671001d37200d87207826908017b6ae000d89a097b69d000da09076480d38408d4b808da870c510c0628f037c9040882691801c99309826ad800c9a909d8780ac9a909c9780882671001c97207826ad000c9a707826ae000826b0801c9ba0a956bb82895bc00017bca487bc7507bc8587bc9609568002a8267e8005010441cf795678015826800015010468ef69569b810959b000482b7d00082b8c8008292e00482bad800826b1001c87b0b826c0801c88c0cd88c08c88b0bd37b09d87b07da98078268f800c8a80882691801c89202d8a809c82909c88707d88708c898089569b828959a00017bac687bab707ba7787ba880009568202a826700015010489bf69567601533084050104ae2f3956bb81095bc000482c7c00082c8b80082c9b00082caa80050124c1a81005107062858369569000182970895bc00047bc788008297107bc790008267f8007bc79800956840158297187bc7a00064a77b9a1850104ec5f48267c0003300500a048269f00033025228077e8269f000501252007ed4780298aa206f99979820d4a8089899203a0a8000029567b8107b7a80043a0a8800023a0b9000023a0c9800027b7a7804957a00047bab70492760047bac687ba9587ba85033082095692015956a00157b72480482671801330040012824f6492a4005492a3805492a3005492a2805956700208377e0053300540a1033025628258600501256218600501258eb8600510706284b3682671801817756170307284f3695670020837700060a099567b820957900058298607b68d8008298587b68d0008298507b6818018297487b6710019567600333084050105a93f2956b000382b77882b87082b96882ba6050125cd37f5107062812357b6a98008263d00068379577408260d8006809da0709826410016847957740826218016828da270895878000d4030adaa709d8870c94ac8ecb8897f000857a01daca0b88b7019577ff9ab89accc9ac0a9a99ef007b68f8008e8c8e78da7c088eac7b69e80088990001859901dbac09dbb809d43408d4020bd4b808888801d49808644b948b51080628763b8268e8008588ff008269f800d49808d47a09d49808520806285b3b826be80095b9017b690801889801c8a8087b680001d49808888801826af800c8a8087b68f000d8a808c887077b67f8009ab8ff007b68c0009a898000826710018268180150105eaa85007b67b8007b68c8008267d0008268d8008269c000501060b685007b67b0007b68a8008267c00095798082671001826818015010629985007b67a0007b6890008269c000889780007b67880082671001826818015010647785007b68e000826800018269f800d4890982680801826af000d4a808d49808826a880093a77b67e80052080628773a64a98267c8008268a800d4870764ac82689000da98078269d800649a64988269c000db970a7b6ac8008267b800826ab000d4a707826aa000daca07826bd00064badb970a7b6ac0008267e00093c77b67e0004926b0008051018267080195798064b7501066bc84007b67b8007b68a000826710018268180182690801501068a284007b6790007b68a800826808019a8980008267d0008268d80050106aaa84008269a800d49808956c000182c908889a80007b6aa800826ba000daab0882cb18db980b7bcb1882689000d487078268b800daa80782c810db97087bc8108267d0008268d80050106c39840082641001826318014926d8004926d0008269a800939893977b67b800826ab00095a9ff7b69a8008ea99599ff7b69a0000198493f973a01d4a909974a018264c800984b3fd4ba0a7b6a18018260a0006437d39003d89002826ba800d8ab0cdb320c978801826bb80098ba3fd4a8087b681001987a3f97b701d47a0a974701826bc00098b83fd4870297b801826be00098b33fd4380397b801826be80098b43fd4480897bb018267d800d47b0b7b6be8008267d000d478087b68e000d437087b68c000d427077b67c800c9a007d8c707d8a008826c1001c9c00bc98b0bc97b0b99b03f8267b000d2700782681801c97804d87808c989039498c98a077b67b800d88a08c98c0895670001827a08827cd4ca09889901826bf000d89b02c99b0988ab01c9bc0c826bf800c92b0b95aaff7b7c7b6bf800d4bc027b7a08d49a0bd42b0a840b017b6bd8007b69f0004926d000520ae2fe283b38492a8005492a7805492a7005492a6805956700208377200633006e0a1033027028d68100501270d28100501272848200510706281e325012740a8100ac780628233295670020837740063308043300760a02019567b820957c000582c8a00082c9980082ca900082cb8800501278ce7d52070628003233078001037b67000183777b67e80033007a0a0433027c28557950127c52794926d804956900047b98d0007b97c8009568c0047b9ac000330750107e47ef4926b8044926b0044926a8043307209568a0044926a004502080002bef9517e08477e07b67f00064713309700102390770010256173f0b200370010240017b69c0009517e08479e07b69e00064913307800102837783993308407b67c800330082000a08826ae00033028400289179826ae000502284008a799567800450208600b7ef826398048264900482628804826a800482671801d3730bd8730c8268f800d884077b67d800dab70c82671001d37200d87207826908017b6ae000d89a097b69d000da09076480d38408d4b808da870c510c06282f31c9040882691801c99309826ad800c9a909d8780ac9a909c9780882671001c9720750228800367f95bc00057bcaa8007bc7b0007bc8b8007bc9c000956860268267f00050208a009aef8267e80033008c000a0433028e00287d7a50228e007a7a7b6958048269f8007b69500482b9107b69480482b9087b694004492678047b6870047b67680495676004956840047b6a6004502090008c74956720043308405020920091ec956b000482b73882b83082b92882ba2050229400d079510706280e2f82670801956900047b97826710017b97088267f8007b971095680004826718017b971864a77b6a18015020960080ed8267e800330098000a048269000133029a0028bf768269000150229a00b876d4780298aa206f99979820d4a8089899204926d8033a0af800023a0b0001023a0c0801023a071001027b6af803956a00037babf0007bace8007ba7e0007ba9d0007ba8c8003308209569e003956ac0037b62c003826718013300400128dbee4929800349297803492970034929680395670030837720fc33009c000a1033029e0028e77e50229e00e47e5022a000897f51070628b12f5022a2000f7eac780628b62f95670030837740fc3308040a02019567b828957c000382c8a00082c9980082ca900082cb88007b68707b6a60d48a077b69687b6b58d49b08d4870752070628862f33078001037b67880083777b67783300a4000a043302a60028cb755022a600c87549292004959b00047bb8187bb7109568c0247bba0833075020a80040ec9568b820492800044928f8034928e8030264893307209568a0244929f0035020aa001cec9517e08477e07b67180164713309700102390770010233083fac780a200370010240017b69481407ffffffff000000007b6780005022ac00967d3307800102837783993308407b67503300ae000a083302b0002815795022b000127983778004c867075020b200a5ec9567b8208077c80382688000ab870628f72e9578017b6898008887017b679000d487078877017b67a00095676024826818015020b4006dec956ab82080a7ac0395ab000382b8b80097772082b9b00082bac000826ba000d4b808826b9800d4b707826b9000d4b909956bb82895bc00037bcac0007bc9b0007bc7a8007bc8b8009568602c826718015020b60098ec95670030837780fc0a09019567b8288274e003827ad8037b6ad8008273d0038270c803684768a8958940db470968376808958840db370895878000d44a0adaa709d8870c94ac8ecb8897f000857a01daca0b88b7019577ff9ab89accc9ac0a9a92ef007b6818018e8c8e78da7c08882c000185cc018ea9dba90cdbb80c7b64c000d44308826bd800d4b009d49808888801d4c808640494805108062856188528ff00826c1801d4c808d47a09d49808520806283f189529017b691001889801c8a8087b680001d49808888801c8c8087b68f000d8c808c887077b67f8009a28ff007b68e8009a89800064477b64d00064387b63c8005020b800117d7b67e0007b6818018267d8008268c0008269e8005020ba001d7d7b67b0007b68a8008267e8009579808267d0008268c8005020bc00007d7b67407b68388269e800889780007b67b8008267d0008268c8005020be00e07c826bb8008262f000826cf80082690001d49c0c826a1001d42a0ad4ca0a93b77b670801510a06286f15330c2869178267180181775617030728402d49292003492918034929100349290803956700308377c0fb3300c0000a103302c200287d7b5022c2007a7b5022c400387b520706281a2d33078001037b67000183777b67d8003300c6000a04826900013302c800282e72826900015022c800277249292007959b00077bb8187bb7109568c01f7bba0833075020ca001ae99567b818492700074927f8064927f00664793307209568a01f4929e8065020cc00f7e89517e08477e07b67180164713309700102390770010233083fac78142003700102407b69d0003302ce00287b7a7b69d0005022ce00747a3307800102837783993308407b67e0003300d0000a083302d20028f2755022d200ef75837780c867075020d40083e99567b818957900068298e0007b68f0008298d8007b6810018298c8007b68e8008297d0007b6708019517e08477e07b67f80064719567b82849274003492738034927300349272803956700308377e0fb0a10019567b828957a000382a93082a8288272400382ab38826c0801c89c0c8267e800c87803d88308c88c0cd39c0ad89c09daa80982681001c8b8088260f000c80202d8b80ac82a0ac88909d88908c88a04826a0801d3ca08d8ac0bd87307db8b07826a1001d8a902d3400bd80408dab208d39a0ad4ba0adba8078268f8007b837b8c087b89107b841851070628b82b826718015020d6001ae99567601f3308405020d80060e69567b818957900068298c0007b6810018298b8007b6808018298b0007b68f8008297a8007b6718019567b8284927600349275803492750034927480395670030837700fc3300da000a1001956a000182a7108268f800d4870782a818648c82a908d49808d47808988820d49707977720d487075107062880285022dc00287982b74882b85082b95882ba60956bb8187bbaa00695ba00067ba998007ba890009568401f7ba7880064c75020de00ebe68267d8003300e0000a04826900013302e200282a70826900015022e2002370d4780298aa206f99979820d4a8089899203a0a2000029567b8187b7a80063a0a2800023a0b3000023a0c3800027b7a7806957a00067bab70492760067bac687ba9587ba8503308209569201f956a001f7b724806826718015020e4004ae833078268e00033090a0d28ff419567b828492700014927f8004927f0004927e800956700308377a0f90a1001956ab82882a7f80082a8000182a9f00082aae800d49808d4a707d4870751070628972a82671801817756176307289b2a9567a0143300e60033027c052860779568b8108287e8037b6718018287f0037b6710018087f8037b67f800956780143300e800330280052856789567b8108277c8037b670001956760143300ea0033028605283b783302ec009569b81001959a000382a7a800956b00017bb7084929a0038267f8007ba7980082b7107ba790009568401482b7187ba7880033075020ee007fe53302f0009568b8100149288003492878034928680303648933072095682014492970035020f20056e53308700102390770010256173f0b200370010240019517e08479e07b69f80064913307800102837783997b6818013308407b6710013300f4000a083302f6002879775022f60076777b67f0006f977b67e8006fa77b67e0003302f8009569b8100149296003492958034929500395680014826700017b97480333075020fa00d5e48267e0009568b810958900037b97408267e8007b97388267f0007b9730648a3307209568e0138269f8007ba928035020fc00a1e482681801818756173f08480840019517e08477e07b6700015022fe00cd6d330000010a08826a000133020201281872826a00015022020111727b6700016471826708019777209877209569b8104929200349291803492910039568c0137b97080333075020040138e48267e0009568b8107b8700038267e8007b87f8028267f0007b87f002648a3307209568a0138269f8007ba9e8025020060105e482681801818755174008480840019517e08477e07b67180150220801316d33000a010a08826a180133020c0128a771826a180150220c01a0719567801350200e01b4e49567b8108277c8027b67180195676013330840502010016fe2956ab81095ac000282cbc00082c8b80082c9b00082c7a800d49b0bd48709d4b909989920d4b808978820d4980851080628d5247c681801492aa002492a98027ba8880295684013492a90027b6718015020120154e3330820826718013300ec022891e7492ae005492ad805492ad005492ac8059567002083778006330014010a1033021601281e75502216011b7582b7d80082b8e00082b9d00082bac800d49808d4a707d48707510706289627502218014074ac7806289b27956700208377a00633080433001a010a02019567b82082780006957c000582c9f80082caf00082cbe80050221c01037152070628762733078001037b67000183777b67e80033001e010a043302200128876c50222001846c49263806956900067b98307b9728956820067b9a203307502022017be24926180649261006492608063307209568000649260006502024015ee29517e08477e07b67f00064713309700102390770010256173f0b200370010240017b69c0009517e08479e07b69e00064913307800102837783993308407b67c800330026010a0801826ae00082a782a80882a91082aa186f776f886f996faa95ab0250222801916d8268f0007b8b7b8c087b89107b87189567e00550202a01cfe28263f8058264f0058262e805826ae00582671801d3730bd8730c8268f800d884077b67d800dab70c82671001d37200d87207826908017b6ae000d89a097b69d000da09076480d38408d4b808da870c510c06288926c9040882691801c99309826ad800c9a909d8780ac9a909c9780882671001c9720750222c014e7295bc00067bca087bc7107bc8187bc9209568c0268267f00050202e01b6e28267e800330030010a043302320128996d50223201966d7b69b8058269f8007b69b00582b9107b69a80582b9087b69a0054926d8057b68d0057b67c8059567c0059568a0057b6ac00550203401a8679567800533084050203601addf956b000582b7980082b8900082b9880082ba800050223801e86c510706282622826708017b676005826710017b6768058267f8007b67700595686005826718017b67780564a77b6a180150203a0197e08267e80033003c010a048269000133023e0128d6698269000150223e01cf69d4780298aa206f99979820d4a808989920492638053a0ad800023a0be000023a0ce800023a07f000027b6a5805956a00057bab507bac487ba7407ba9307ba82833082095694005956a20057b6220058267180150204001fbe133078268c80033090a0d28b03b492ac006492ab806492ab006492aa8069567002083776007330042010a103302440128dd7150224401da71502246014170510706282125502248011f71ac7806282625956700208377800733080433004a010a0233024c0128a77150224c01a47182b7e00082b8d80082b9d000d48707889801947852080628ff2482a7c8067b67a000956700208377a0070a09019567b82082740007827af8067b6ad0008272f0068270e806684768a8958940db470968276808958840db270895878000d44a0adaa709d8870c94ac8ecb8897f000857a01daca0b88b7019577ff9ab89accc9ac0a9a93ef007b6818018e8c8e78da7c08883c000185cc018ea9dba90cdbb80c7b64c0007b62d800d442088264d000d44009d49808888801d4c808640b948b51080628a1178538ff00826c1801d4c808d47a09d49808520806288a1764029539017b691001889801c8a8087b680001d49808888801c8c8087b68f000d8c808c887077b67f8009a38ff007b68e8009a89800064077b62c8008268d80050204e0177717b67e0007b6818018267d0008268c0008269e8005020500183717b67b0007b68a8008267e8009579808267c8008268d8005020520166717b6798007b6890008269e800889780007b67b8008267c8008268d800502054014471826bb8008262f000826cf80082690001d49c0c826a1001d42a0ad4ca0a93b77b670801510a0628b014330b28b216492ac004492ab804492ab004492aa8049567002083776005330056010a1001956ab82095ab0004502258013c6e510706284f2350225a011a6fac78062854239567200333005c0133027c0528186f956a000382a72082a82880693003492618037ba9107ba808956800037ba7330750205e0195dd4926f8024926f0024926e8023307209568e0024926e0025020600178dd9517e08477e07b67f8006471390870010256183f133308403d087001023302620128a36d50226201a06d330780010283778399330840330064010a083302660128fe6950226601fb698268f8007b87187b89107b8b087b8c9567c0025020680108de8267d8027b67f8008267d0027b67f0008267c8027b67e8008267c0027b67e0008267080195770188780182691001c898089569b820959a000450226a013b6c9567a0029568802550206c01bbdd8267b8027b67d8008267b0027b67d0008267a8027b67c8008267a0027b67c00050226e01dc6c82680001c88a0ad88a08826b1801c8b808956bb8207bb8000595b800047b8af8007b89f0007b87e800956780029568a025502070015edd826798027b67b800826790027b67b000956c000182c808958703d8870882ca10c88a09d8a90ada880a826888027bc80882c8c88a0ad88a0882cb18c8b808826b80027bcb956bb82095bc00057bc8207bca187bc9107bc708956760029568c02550207201f8dc826760027b67a8009567400233084050207401b7da95670002827b58827c50827a48827940d4ba07d4c908d47808988820d4c707977720d4870751070628251d8267e0007b6720028267e8007b6728028267f0007b673002956820028267f8007b67380264977b6918017b6a10017b6bf8007b6cf000502076018adb826818018267f800826af000d47a0a140b00000000010000001407e0ffffff00000000d8780782691001949794a752070628b51c8387208268c000956c00027bc88268c8007bc8088268d0007bc810956800028269d8007bc9187b6af8007b6bf0005020780122db826bf800826a1001826818018267f0009577c0d8780794a794b752070628611c838740826800017b68e001826808017b68e8018268b0007b68f0019568e0018269b8007b69f80150207a01d5da826918011407a0ffffff00000000d879078268100194878268f800948752070628111c8267a8009777209878208397604926d8014926d0017b68c0019568c0014926c80150207c018bda330880008267180150207e01cbde83783309800033070a0d28fc224929a00149299801492990014929880195670030837740fa0a1001956ab82895ab000182b7980082b8a00082b9900082ba8800d49808d4a707d4870751070628c91f8267180181775617430728cd1f9567a0173300800133027c05286f6b9567b810957900068298f8007b68e8008298f0007b68f8008297e8007b67f00095670030837760fa3308240a02019567b828957c000182cbc00082cab80082c9b00082c8a800956c00017bc9107bcbd4b9077bc818d4a808d478089888207bca08d4a707977720d48707510706285f1f8267e8009777209877209569b8104929e0068268f000959a00067ba8c8008268f8007ba8d000956880177ba7d8003307502082016cd9330284019568b810014928c0064928b8064928a806016489330720956860174929b0065020860143d93308700102390770010256173f0b200370010240019517e08479e07b69e80064913307800102837783997b68f8003308407b67f000330088010a08826ae80033028a0128756a826ae80050228a016e6a7b67e0006f877b67d8006f977b67d0006fa77b67c8009517e08477e07b67e800647133028c019569b81001956a000182a7959b00067bb7a00082a7087bb7980082a7107bb790009568401782a7187bb78800330750208e0199d8330290019568b810018267c800958900067b9780008267d0007b97788267d8007b9770648a330720956820178269e0007ba96806502092015fd88268f800818756173f0e4808403302940128d26950229401cf698267f000330096010a083302980128fd6450229801fa648268e8007b87187b89107b8b087b8c9567001750209a0107d99568b810958900068297587b67f0008297507b67e8008297487b67f8008267080195770188780182691001c898089569b828959a000150229c013d679567e0169568802a50209e01bdd8956cb81082c740067b67e00082c738067b67d8005022a001ea6782c830067b68080182680001c88a0ad88a08826b1801c8b80882cb28067b6b0001956bb8287bb8000295b800017b8af8007b89f0007b87e8009567c0169568a02a5020a2015cd83302a4019568b81001828710067b67c800828708067b67d0009567a0163308405020a6010ad69569b810018292000695980005828cf800828bf0008287e800d42b0ad4c708d4a808988820d4ca0a97aa20d4a808510806286f188268f800978820988a204929e0054929d8054929d005956880167b9ac8057b6718017b6b10017b62b8007b6cc0005020a801dcd6826c18018267c000826ab800d47a0a140900000000010000001407e0ffffff00000000d87c0782681001948794a75207062807183302ff1408ffffffff000000007b69b8008269f8009899208267e8007b6ac000977a20d4a909987a208267f000977b20d4ba0a987b20d22a0ad22909d2b80883c720956bb810492bc00595bc00057bc8b8007bc9a800956860167bcab0005020aa0144d6826818018267b8009577c0d878078269100194978269c0009497520706288317838740956ab8108268000195ab00057bb88800826808017bb890008268d8007bb89800956840168269e0007bb9a0005020ac01efd5826ac0008269100182681801140b00000000010000001407a0ffffff00000000d87807949794a7520706282117838760956ab810492a8005492a78058268d0007ba8680595682016492a70057b6b08015020ae0199d5956a000182a91882a708957780d8790782a81094878268c000948752070628d7167c67c8008e7883978000956ab810492a6005492a58057ba8480595680016492a50055020b00150d53308a000826718015020b20190d983783309a00033070a0d28c11d5147b327d0610a28c31b4929e0004929d8004929d0004929c80095670030837780f90a1001956ab82882a7d80082a8e00082a9d00082aac800d49808d4a707d4870751070628d71b8267180181775617030728db1b956720133308405020b40199d39567b81095790002829880007b6818018298787b6810018298707b6800018297687b6708015020b6011ad3956b000182b71882b8d4870782b808648a82b910d49808d47808988820d49707977720d4870751070628db153a09a001033a08a801033807b00103956bb810492b600295bc00027bc7587bc850956800137bc94864a75020b8014cd4330820826708013300ec022889d8826718018269a800d49707826938dab9078263c000643a8262e800db270a7b6a18018267e0008269b000d49707826940dab907826cd80064cadb270a5022ba01b5635020bc01dd667b67b0007b68408267d0008268c800826910015020be01c4667b67387b68a800826810019a8980008267d8008268c0005020c001cd668269a800d49808826a100188ab80007b6ba800826940dab9088269c800dba8097b69c800826838d487078268b000dab8078268d000dba70864a97b68d0008267d8008268c0005020c2015b66330c33005022c401e5638263c8008264d000017b6cd80098493f973a01d49a0c974a01826b180198bb3fd4ba0a7b6ac8008269a8007b6cd0006434d3c903d8c902826bb000d8ab0cdb320c978801987a3fd4a8087b68c000984a3f977701d47a0a82671801977701826be00098b83fd4870297b801826be80098b33fd4380397b801826b080198b43fd4480897bb018267d800d47b0b7b6b0801d480087b68e800d430087b68e000d420077b671801c9a907d8c707d8a9088262c000c9290bc98b0bc97b0b99bc3f8267b800d2c7078268c800c97804d878088267d000c987039478c98a07d88a08c98208826a100182600001d40a09889901826bf000d89b02c99b0988ab01c9b000826bf800c92b0b95aaff7b6000017b6bf800d4b0027b6a1001d49a0bd42b0a84cc017b69f0003300520ae2fe82670801977701d47c00017b60f000956740243308405020c601e9d09562b8208223a00395270003827c9800827a9000827b88008e378ec8db37088ea788b960ff8599017b6a1801dba709d43c077b67f800db780951090628b21795b4a000d8b40882691801c88907d8970ada880ac8ca0ad8ca087b6b1001c8830b7b246803952900037b97707b9a78330740956820247b9b80007b6c00017b6308015020c8019cd1956c000182c91082cad4a90782c81882cb08d4b808d48707987720d4a808978820d4870751070628d1123302ca01956ab82001492a60038267980095ab00037bb748826790007bb750956800248267a0007bb75864975020cc0140d18267780a0401826b1001140900000000010000001407e0ffffff00000000d87b078268180194878268f8009487520706286c127b6908018269880082970881981082996f77977a206f88988820d48a0a9877206f98978920d4790998882083b720956bb820492b400395bc00037bc8387bc9309568e0237bca287b6700015020ce01bcd0956a000182a81082a7089577c0d8780782a91894978269f800949752070628fa11838940826758956ab82095ab00037bb7088267607bb7108267687bb7189568c0238267707bb7207b69080164975020d00168d082681001140a00000000010000001407a0ffffff00000000d878078269180194978269f8009497520706289a118387609569b820492900034929f8024929f0029568a0237b6ae800826af0007b9ae8027b67f0005020d2010ed0826810018267e800957780d878078269180194978269f8009497520706284d11838780009569b8204929e0024929d8024929d002956880234929c8027b67c8005020d401c8cf8267783300d6010a043302d8012820595022d8011d594929c002959b00027bb8b8007bb7b000956860237bbaa80033075020da0192cf9568b8204928a002492898024928880201648933072095684023492990025020dc016ecf826848818756173f0848084001140700000000ffffffff7b67f8005022de01d7608267503300e0010a08826a18013302e20128b45c826a18015022e201ad5c7b67180164719569b820492980028267a000959a00027ba778826790007ba77095682023826798007ba76833075020e401fcce8267d0009568b820958900027b97608267d8007b97588267e0007b9750648a330720956800238269e8007ba948025020e601c8ce826848818756173f08480840019517e08477e07b67e800647183793308408267500a08826ae80082a71882a81082a90882aa6f7b7b6bd8006f887b68e0006f997b69d0006fa77b67e800826a18017ba7187ba9107ba8087bab9567e022826810015020e80127cd9567b8208277280282688000d287077b6710019567c022826818015020ea0132cf956ab82095ab000282b71082b81882b92082ba085022ec01bf5e7bb9000495b900037b98f8007b97f0007b9ae8009568a02c826718015020ee0177cf9567a022826800015020f001bccc9567b820957900018298f8007b6810018298f0007b6800018298e8007b68c00095678022826818015020f201bace9568b8208287e0018088c801826cc00098c920826b000197ba20d4a90998ba20826b100197bb20d4ba0a97cb20d4b808956bb82895bc00047bca187bc9107bc7207bc8089568c02c826718015020f401e9ce95676022826808015020f6012ecc9567b8208272a8018273b0018274b801827ac0018267d800957701887c018268e000c88c0cd4c70b88bb018268d000c88b0bd88b088269e800c898089569b8287b984004959800047b8b387b8c307b87287b8a607b9458047b9350047b9248049567e02c9568002d5020f8016dce9517e0847ce064c18268d800958702d88708826ae000c88a09d8a90ada880a8268d000c88a0ad88a08826be800c8b8087b6c18017bc8187bca107bc9087bc7956740228268f0005020fa0173cb9567b820827788018477ff7b67100195672022826818015020fc0182cd9569b820959a000182a7800082a87882a970956ab828826b100195ac00047bcb687bc780007bc8787bc9709568202d826718015020fe01cacd956700228268c800502000020fcb956ab82095ab000182b76082b85082b95882ba48d48707d4a909d497078e777b6710019567e02182681801502002020acd956ab82095ab000182b73082b82882b94082ba38847700ff826b1001d4b707956bb82895bc00047bc9a0007bca98007bc888007bc790009568402d826718015020040246cd826778330006020a0433020802282b5550220802285549292001959b00017bb8187bb7109568c0217bba08330750200a02a0cb9567b820492700014927f8004927f00064793307209568a0214929e80050200c027dcb8268489517e08477e07b6718016471818755174008480840019517e08477e07b6710016471837933084082675033000e020a083302100228175b50221002145b95ab0350221202cf56826818017b8b7b8c087b89107b871895678021502014020dcc9567b8208277c80095770182688000d287077b671001956760218268180150201602e9cb956ab82082a7b00082a8b80082a9c00082aaa80050221802765b95bc00047bc9c0007bc8b8007bc7b0007bcaa8009568602d8267180150201a022ecc9567402133084050201c0274c933021e02956ab8200182a7a00082a8980082a9900082ab8800d49707d48b09d47909989920d48707977720d497075207dc0b8267587ba7688267607ba7708267687ba778956820218267707ba7800064b77b6b18015020200253ca826778330022020a04826988003302240228935382698800502224028c53d4780298aa206f99979820d4a8089899203a0a0000023a0b0800023a0c1000029567b8207b7a607b7b584917207b7c503a0a180002826ba0007b7b18826b90007b7b10826b98007b7b087b7a487b79387b78307b722833082095690021956ae020956bc02049174082671801502026024bcc9567a020330840502028027cc8956ab82082a795ab00ff82b8f80082b9f00082bae80050222a02b5555207f60a9567b8184927e00782689800957b00077bb8c800826890007bb8d000956880208269a0007bb9d80064a77b6a180133001201285ec9826718018269a800d4970782699000dab9078263c000643a8262e800db270a7b6a18018267e0008269b000d4970782699800dab907826cd00064cadb270a50222c02d65850202e02fe5b7b67b0007b6898008267c8008268d8008269100150203002e45b7b6790007b68a800826810019a8980008267d0008268c00050203202ec5b8269a800d49808826a100188ab80007b6ba80082699800dab9088269d800dba8097b69d80082689000d487078268b000dab8078268c800dba70864a97b68c8008267d0008268c00050203402785b330b330c5022360202598263d8008264c800017b6bd80098493f973a01d49a02974a01826b180198bb3fd4ba0a7b6ac8008269a80064847b62d000d329086430d82903826bb000d8ab02db8302974801987a3fd4a8087b68c000980a3f977701d47a0a82671801977701826be00098b83fd4870097b801826be80098b33fd4380397b801826b080198b43fd4480897bb018267d800d47b0b7b6b0801d4c8087b68e800d43c087b68e000d40c077b671801c9a907d82707d8a9088262c000c9290bc98b0bc97b0b99bc3f8267b800d2c7078268c800c97804d878088267d000c987039478c98a07d88a08c98208826a100182600001d40a09889901826bf000d89b02c99b0988ab01c9b000826bf800c92b0b95aaff7b6000017b6bf800d4b0027b6a1001d49a0bd42b0a84cb017b69f000330c520ae0fe82670801977701d47b0b0184b7ff8268a000ab78800d33078001037b67d00083777b67c800330038020a0433023a02283e5050223a023b5049292004959b00047bb8187bb7109568ff079588a1047bba08330750203c0201c79567ff0795779900492700044927f8034927f00364793307209568ff07958881044929e80350203e02d6c69517e08477e07b67a80064713308700102390770010256173f112003700102403302400228fe5650224002fb563307800102837783997b6808013308407b6710010a08826a180182a71882a81082a90882aa6f7c6f8b6f986fa98267a8007b6900017b79187b6818017b78107b6bf8007b7b087b6cf0007b7c8267c800330042020a043302440228624f502244025f4f4929e003959b00037bb8d8007bb7d0009568ff07958861047bbac80033075020460222c69568ff07958899004928c0034928b8034928a8030264893307209568ff07958841044929b00350204802f6c582680801818756173f0848084001140800000000ffffffff7b68b0001407ffffffff000000007b67c0009517e08477e07b67e80050224a02064f33004c020a08826ae80033024e0228a053826ae80050224e0299537bca207bc9187bc8107bc7089567ff07957721049568c0275020500275c64926900049269800330b9567ff0795779900807788037b67b8008268f0009588018887018269f800c897077b6888007b678000d4870788770182681801c887077b6778d8870782680001c887077b6770330a0101330893b88267b800d8a7073309dab7093307db78095209d1054926f8007b6a18018267c800330052020a043302540228134e50225402104e49298003959b00037bb8787bb7709568ff07958801047bba68330750205602d6c49567ff0795779900492760034927580349275003647a3307209568ff079588e103492a48030150205802aac482680801818756173f08480840019517e08477e07b67000150225a02d64d33005c020a0833025e0228c14f50225e02be4f959a00037ba7407ba7387ba7309568ff079588c103826718017ba72833075020600255c48267d8009568ff079588990095890003502262024a539588a1038269f0007ba90803502064022dc482680801818756173f08480840019517e08477e07b67f00050226602594d330068020a08826af00033026a0228814f826af00050226a027a4f826b00017bba187bb9107bb8087bb7957b02d87b07c8780cd88c08da7708c89808d89807c8a7079569b820959a00077bab287bac307ba8387ba7409567ff07957781039568e02750206c0299c49567ff07957799008277f0028477ff005107178268c00001330b82671801957701d2870a2854fe9567ff07957761038268000150206e0260c49569ff0795999900959a000282a7d00082a8d80082a9c8008477ff8488ff826bb000d2b909d49808d487075107af8267c800330070020a043302720228454c50227202424c4929c002959b00027bb8b8007bb7b0009568ff07958841037bbaa80033075020740205c39567ff07957799004927a0024927980249279002647a3307209568ff0795882103492a88020350207602d9c282680801818756173f08480840019517e08477e07b67000150227802054c33007a020a08826a000133027c02282254826a000150227c021b547b6700016f877b67f0006f977b67e8006fa77b67e0009569ff07959999004929800249297802492970029568ff07958801038267a0007b976802330750207e025ec28267e0009568ff0795889900958900027b97608267e8007b97588267f0007b9750648a3307209568ff079588e102826900017ba948025020800222c282680801818756173f08480840019517e08477e07b670001502282024e4b330084020a083302860228394d50228602364d959a00027ba7407ba7387ba7309568ff079588c102826718017ba728330750208802cdc18267d8009568ff07958899009589000250228a02c2509588a1028269f0007ba9080250208c02a5c182680801818756173f08480840019517e08477e07b67f80050228e02d14a330090020a08826af8003302920228474f826af80050229202404f9567ff07957781025020940250c29567ff07957799008277e8018477015207bbfd9567ff07957761028268a800502096022bc2956aff0795aa990095ab000182b7e00082b8d80082b9d00082a2c8013a0ba800028e7c8e8adb7c0ad82b0b8e9cda9b0cd4780bdbba0c520c18826790009577018268c000d287077b679000285ffd3a0ab00002c82a0ad82a0bc8b90c95ccffd39c02d89c09da2b09958bffc8b909d8b90b888801c98707c8b7079568b820958b00077bba487bbc507bb9587bb760956800288267a8005020980210c29517e08478e07b68f80064818267707b87188267787b8710826780007b8708826788007b879567ff079577410250209a025cc19567ff07957799008277a8013a08a000029569ff07959999008299c001956aff0795aa990082aab001956bff0795bb990082bbb801c87808d87807c87a0cd8ac0ada770ac8ba0ad8ba07c897079569b820959b00077bb8687bbc707bba787bb78000956820288267f80050209c026dc1826798009577018268c000d287077b6798009567ff07957721028268000150209e02c8c09567ff0795779900827788018477fe007b67f8009567ff0795770102826800015020a002a2c09567ff0795779900827768019568ff0795889900828870019569ff079599990082997801956aff0795aa990082aa8001847700ff826bf800d4b707957701956bb82095bc00077bcaa0007bc998007bc890007bc7880095684028826700015020a202bfc028b8fb9567ff079577e1013308405020a402febd9569ff07959999008292600195970001827c58827b50827a48d42b07d4ca08d47808988820d4c707977720d48707520766826798008268c000d287074929400149293801492930019568ff079588c1017b97280164a77b6a18017b6b08017b62f8007b6c00015020a602ccbe956b000182b91882b78268f800d487071408e0ffffff00000000d8890882ba0894a894785208b105003308800102838833070133090a0d28301a3308800102838833070133090a0d281f1a3308800102838833070133090a0d280e1a3308800102838833070133090a0d28fd193302a8029569b810014929180449291004140700000000c611522c7b9720049568c0144929080433075020aa0230be390870010256181f12200370010220330880010228a2043308800102289a043302ac029569b810014929380449293004140700000000b878d6f47b9740049568e0144929280433075020ae02e2bd8267b800817756171f12038268b8004808202806033308800102838833070133090a0d285a193308800102838833070133090a0d2849193308800102838833070133090a0d2838193308800102838833070133090a0d282719492690034926880349268003140700000000c611522c956880037b67980333075020b00263bd390870010256181f12200370010220330880010228d503330880010228cd034926b0034926a8034926a003140700000000b878d6f49568a0037b67b80333073300ca02281abd3308800102838833070133090a0d28aa183308800102838833070133090a0d2899183302b2029569b8180149293807492930071407000000003bc167cc7b9740079568e01f4929280733075020b402ccbc390870010256181f122003700102203308800102283e0333088001022836039567b8184927780749277007492768075022b602cf4e838820c868087b97800733075020b80285bc3302ba029568b8180149286007492858074928480711648933070495680020492950073300d2022858bc3308800102838833070133090a0d28e8173302bc029569b818014929f8054929f005140700000000c611522c7b9700069568a01e4929e80533075020be021bbc390870010256181f122003700102203308800102288d0233088001022885029567b8184927380649273006492728065022c0021e4e8388e0fec868087b97400633075020c202d3bb3302c4029568b818014928200649281806492808061164893307049568c01e492910065020c602aabb8267d000817756173f0c8268d000480840013307013309248268e0000a0d013308800102838833070133090a0d2818173308800102838833070133090a0d2807173308800102838833070133090a0d28f6163308800102838833070133090a0d28e5164926f0044926e8044926e004140700000000c611522c9568e0047b67f80433075020c80221bb390870010256181f1220037001022033088001022893013308800102288b01492610054926080549260005140700000000b878d6f4956800057b67180533075020ca02dcba8267c000817756171f0c8268c000480820013307013309048268c8000a0d013308800102838833070133090a0d284a163308800102838833070133090a0d2839163308800102838833070133090a0d2828163308800102838833070133090a0d2817163308800102838833070133090a0d2806163308800102838833070133090a0d28f5153308800102838833070133090a0d28e4153308800102838833070133090a0d28d3159567b8184927b8074927b0074927a8075022cc02574c838860c868087b97c00733075020ce020dba3302d0029568b818014928a007492898074928880741648933070495684020492990075020d202e4b9826748817756173f0b826848480840013307013309248268500a0d019569ff07959999004929380449293004140700000000635bb2d57b9740049568ff079588c1044929280433075020d40296b9390870010256181f112003700102203308800102280833088001020183883307013309043300d6020a0d0152476eeb149c50019567b82849272002492718024927100249270802956700308377c0fa3300d8020a103302da0228514b5022da024e4b5022dc02ff4a5107b7013308800102838833070133090a0d28b7143308800102838833070133090a0d28a6143308800102838833070133090a0d289514826790008268c000d27808839720956aff0795aa9900492a2001492a18017ba808019568ff079588a101492a10015020de02c3b88267c8003300e0020a048269d0003302e2022802428269d0005022e202fb41d4780298aa206f99979820d4a8039899203a0ab800023a0bc000023a0cc800028267a0009568ff07958899007b87a8007b8a00017b8bf8007b8cf0003a0ad000024928c0004928b8004928b0007b8ae8007b89d8007b83d0007b82c80064873308409569ff0795998101956aff0795aa6101956bff0795bb41014927e000826718013300f40328a0ba5247275914a0c0009567b82849274002492738024927300249272802956700308377e0fa3300e4020a103302e60228014a5022e602fe495022e802ae4a5107d5003308800102838833070133090a0d2867134926d800018267e800977701826bd800d47b0b01492658034926500349264803956840037b6b4003826798005020ea0297b7330820826798005020ec02d8bb837833092033070a0d280a33092033070a0d0182671801817756176384003308800102838833070133090a0d28f91252473a6750b665019567b8284927c0024927b8024927b0024927a80295670030837760fb3300ee020a103302f0022841495022f0023e495022f2027e47510776013308800102838833070133090a0d28a71282671801817756174376013308800102838833070133090a0d288b12956760183300f40233027c05283b489568b810958900078297a8007b6718018297b0007b6710018297b8007b6708018297c0007b670001956740183300f602330280052825499568b81095890007829788007b67f800829790007b67f000829798007b67e8008297a0007b67e000956720183300f8023302860528ee48956bb81095bc000782c76882c87082c97882ca80007bca207bc9187bc8107bc7088267e0007bc7408267e8007bc7388267f0007bc7308267f8007bc728956b000182b77bc76082b7087bc75882b7107bc750956700189568e0179569c01782ba187bca485020fa02f12d33088001028388330733090a0d28941152474a45080ecb049567b8204927800449277804492770044927680495670020837720053300fc020a1001956ab82095ab00045022fe0275485107e4043308800102838833070133090a0d28461150220003ec46ac78e4043308800102838833070133090a0d282b119567001c330002033302900528db469567b818827748037b6710019567e01b330004033302800528e1479567b818827728037b677033078001037b67880083777b678000330006030a04826988003302080328253e82698800502208031e3e49292003959b00037bb8187bb7109568c01b7bba08330750200a0311b533020c039568b81801492800034928f8024928e8020164893307209568a01b4929f00250200e03e8b433077001027b679800390770010233083fac781182689800480840330210032815455022100312453307800102837783993308407b679000330012030a08826a180133021403289141826a1801502214038a417b6718016471826710019777209879209567b8184927e0024927d8024927d0029568801b7b69787b79c80233075020160362b48267f0009568b818958900027b97c0008267f8007b97b800826700017b97b000648a3307209568601b826908017ba9a802502018032bb482679800817756173f128267980048074033021a0328763e50221a03733e33001c030a08826a100133021e03287f3f826a100150221e03783f826b18017bba187bb9107bb8087bb782678000330020030a04826988003302220328fe448269880050222203f7447b6810019877206f987b680801978820d487077b6700019567401b826818015020240391b49569b818018297900280988c0282999802977a20d4a808979a20987720d4a707956b000182bad3a70782ba10d3a80882ba08d3a909989920d49808d487075207720695670030837700fb0a09019567b82882726002827b58027b6bd80082745002827a48027b6ac000682768b8958940db2709684768a8958840db470895878000d42b0adaa709d8870c94ac8ecb8897f000857a01daca0b88b7019570ff9ab39accc9ac0a9a99ef008e3c8e07da0c07889c000185cc018ea8dba80cdbb70c7b64b8007b62d000d42407826bc0008268d800d4b808d48707887701d4c70764b894787b681801520712065022260371445107080650222803223d50202a0386457b67c8007b68e8008267d8008268d0008269e00050202c0392457b67b0007b68a8008267e0009579808267c0008268b80050202e0375457b67a0007b68688269e000889780007b67608267c0008268b800502030035545502232038c44826a6093a77b67f80051087a0564a98267e8008268a800d4870764ac82686850223403323c50203603fe447b67c8007b68a0008267c0008268b8008269180150203803e4447b67687b68a800826818019a8980008267d8008268d00050203a03ed4450223c03ec4182686850223e036a4450204003b24450224203e53e502244037040d89002826ba800d8ab0cdb320c50224603ea40d4870297b801826bf00098b33fd4380397b801826bf80098b43fd4480897bb018267d800d47b0b7b6bf8008267d000d478087b68f000d437087b68e000d4270750224803fe3ad89b02c99b0988ab01c9bc0c827b08c92b0b95aaff7b7c107b7b08d4bc027b7a18d49a0bd42b0a840b017b6bd8007b794926d000520a6dff2874045247ce3c124514069567b82049274006492738064927300649272806956700208377e00633004a030a1033024c0328ea4250224c03e74250224e03be43510733063308800102838833070133090a0d28770c502250031d42ac7834063308800102838833070133090a0d285c0c9567801e3300520333029005280c429567b8188277c8057b67f00033078001037b67080183777b670001330054030a048269080133025603287039826908015022560369394929c005959b00057bb8b8007bb7b0009568601e7bbaa80033075020580359b033025a039568b818014928a00549289805492888050164893307209568401e4929900550205c0330b033077001027b671801390770010256173f0a50225e036d419517e08479e07b69f80064913307800102837783993308407b671001330060030a08826af8003302620328663d826af800502262035f3d7b67f80064718267f0009777209879209567b8184927800549277805492770059568201e7b69f0007b796805330750206403adaf8267d0009568b818958900057b97608267d8007b97588267e0007b9750648a3307209568001e8269e8007ba948055020660379af50226803633fac780950226a0352419517e08477e07b67e80050226c03a43833006e030a08826ae8003302700328cc3a826ae80050227003c53a826bf8007bba187bb9107bb8087bb782670001330072030a048269080133027403284b40826908015022740344407b68e8009877206f987b68e000978820d487077b67d8009567e01d8268f80050207603deaf9569b818018297300580982c0582993805977a20d4a808979a20987720d4a707826ad800d3a707826ae800d3a808826ae000d3a909989920d49808d487075207200582670001330078030a048269080133027a032882378269080150227a037b3749290005959b00047bb8f8007bb7f0009568a01d7bbae800330750207c036bae33027e039568b818014928e0044928d8044928c8040164893307209568801d4929d0045020800342ae502282032c3eac780950228403883f9517e08477e07b67f800502286036d37330088030a0833028a03287b4050228a0378407b67e8006f977b67e0006fa77b67d80033028c039569b818014929c0044929b8044929b0049568601d8267f0007b97a804330750208e03d7ad8267d8009568b818958900047b97a0008267e0007b9798008267e8007b979000648a3307209568401d8269f8007ba9880450209003a0ad502292038a3dac780950229403793f9517e08477e07b67f80050229603cb360a08826af80082a782a80882a91082aa186f726f876f996faa951be084b8e0648195ab02d8ab0ac8a90cd89c09daaa09c87909d87907c827077b8c087b8b7b89107b87189567201d7b68f8005020980321ae9567b818827770048478ff005108e30333029a039569b818014929580449295004140700000000c884c1c17b9760049568001d4929480433073300d40328ecac33029c039569b818014929780249297002140700000000dbf71c6f7b9780029568201b4929680233073300da0428bcac4926d800018267f8009777018268d800d487077b6718010182677082681801ab8782058267800033009e030a04826988003302a003287435826988005022a0036d3549294002959b00027bb8387bb7309568e01a7bba2833075020a20360ac3302a4039568b818014928200249281802492808020164893307209568c01a492910025020a60337ac82679800817756173f12826898004808403302a8032882365022a8037f363300aa030a083302ac0328bb375022ac03b837492900024929f8014929f0019568a01a8267787b97e80133075020ae03e7ab8267f8009568b818958900017b97e000956b000182b77b97d80082b7087b97d000648a3307209568801a82b9107ba9c8015020b003b0ab82679800817756173f12826798004807403302b20328fb355022b203f8353300b4030a083302b60328593b5022b603563b95ab025022b80311379568b828958a00027bab687bac707ba9787ba780009567601a9568202b5020ba0345ac9567b8187c77b00151075d043302bc039569b8180149299801492990011407000000006d53a9a77b97a0019568401a4929880133073300da042814ab52472dc64b4947069567b8204927c0074927b8074927b0074927a80795670030837760f83300be030a10956ab82095ab00073302c003283b3b956ab82095ab00075022c003303b51076b063308800102838833070133090a0d28590682671801817756176362063308800102838833070133090a0d283d069567a0013300c20333027c0528ed3b8267a0018268a8018069b001492698017b6990017b688801956880017b67800133075020c40368aa4926780149267001492660010233072095686001492668015020c6034aaa33077001027b671801390770010256173f0a5022c803873b9517e08479e07b690801649133078001027b671001837783993308403300ca030a08826a08013302cc0328f438826a08015022cc03ed3895bc00047bcaa0007bc998007bc890007bc7880095674001956840255020ce03cbaa8067400149263801492630017b6720013307800095682001492628015020d003b7a982671801817756279f0018826818014808a0008267100183788000281df282671001837880002812f23302d2039569b818014929180549291005140700000000dbf71c6f7b9720059568c01d4929080533075020d4035fa982671801817756171f0c8268180148082001330701330904826810010a0d011408ffffffff000000007b68e800956ab81895ab000482b86882b97882ba8000867701956bb82895bc00027bc8c8007bc9d8007bc7d0007bcae0009568802b8267f8005020d6036aaa826700013300d8030a04826908013302da0328cf31826908015022da03c83149294004959b00047bb8387bb7309568e01c7bba2833075020dc03bba89567b81849272004492718044927100464793307209568c01c492908045020de0398a89517e08477e07b67f80064715022e0037638ac78095022e203d2399517e08477e07b6718015022e403b7313300e6030a0801826a180182a782a80882a91082aa186f776f886f996faa95ab035022e803e1338268f8007b8b7b8c087b89107b87189567a01c5020ea031fa99567b8188277e8038268e800c88707d287077b6718019567801c8268f8005020ec03fba8956ab81880a7cc0397772095ab000382b8e00082b9d80082bad000826b1801d4b707956bb8287bb8000395b800027b89f8007b8af0007b87e8009568a02b8267f8005020ee0334a9826700013300f0030a04826908013302f203280031826908015022f203f930d4780298aa206f99979820d4a808989920826af0009567b8187b7a68033a0a4000023a0b4800023a0c5000027b7ac0037b7bb80349278003957b00037bbcb0003a0a58000249277803492770034927a0037bbaa8007bb998007bb890009569601c956a401c956b201c7b728803330733085020f403b3a933078268100133090a0d28bc023302f6039569b818014929580249295002140700000000635bb2d57b9760029568001b4929480233073300da0428eba6826780003300f8030a04826988003302fa0328c62f826988005022fa03bf2f49298001959b00017bb8787bb7709568201a7bba6833075020fc03b2a63302fe039568b818014928600149285801492848010364893307209568001a492950015020000489a682679800817756173f12826898004808403302020428d43050220204d130330004040a0833020604280d32502206040a324929400149293801492930019568e019826718017b97280133075020080438a68267f8009568b818958900017b9720956b000182b77b971882b7087b9710648a3307209568c01982b9107ba9080150200a0404a682679800817756173f128267980048074033020c04284f3050220c044c3033000e040a08826a10013302100428c732826a100150221004c0327b6710016471330212049569b81801492900014929f8004929f0009568a0198267787b97e8003307502014049da58267f0009568b8187b87e0008267f8007b87d800826700017b87d000648a33072095688019826908017ba9c800502016046aa58267980081775517400c82679800480740019517e08477e07b6708016471837933084082679000330018040a08826a080133021a04280736826a080150221a040036826810017b8a187b89107b8b087b879567601950201c0401a69567b8188277a80084780152086d0333021e049569b810014929d8074929d007140700000000b6e2a4af7b97e007956880184929c80733073300da0428cda4524785d29661519567b8284927800049177849177049176895670030837720f90a1001956ab82882a77882a8800082a97082aa68d49808d4a707d48707510705043308800102838833070133090a0d281c3308800102838833070133090a0d280c838833070133090a0d01826718018177561763e403330880010228e69567ff07957721013300200433027c05289d359568ff07958899008287a0007b6778828798007b678000828790007b679800828788007b6790009567ff079577010133002204330280052884369568ff0795889900828780007b67708287787b67688287707b67608287687b6788009567ff079577e1003300240433028605284f369567ff07957799008277487b675895670020837700070a09019567b82082726006827b58067b6bd80082745006827a48067b6ac000682768b8958940db2709684768a8958840db470895878000d42b0adaa709d8870c94ac8ecb8897f000857a01daca0b88b7019570ff9ab39accc9ac0a9a99ef008e3c8e07da0c07889c000185cc018ea8dba80cdbb70c7b64b8007b62d000d42407826bc0008268d800d4b808d48707887701d4c707947b5207040850222604dd345107fa07502228048e2d50202a04f2357b67c8007b68e8008267d8008268d0008269e00050202c04fe357b67b0007b68a8008267e0009579808267c0008268b80050202e04e1357b67a0007b68508269e000889780007b67488267c0008268b80050203004c13550223204f834826a4893a77b67f8005108700764a98267e8008268a800d4870764ac826850502234049e2c502036046a357b67c8007b68a0008267c0008268b800826918015020380450357b67507b68a800826818019a8980008267d8008268d00050203a04593550223c04583282685050223e04d634502040041e3550224204512f50224404dc30d89002826ba800d8ab0cdb320c502246045631d4870297b801826bf00098b33fd4380397b801826bf80098b43fd4480897bb018267d800d47b0b7b6bf8008267d000d478087b68f000d437087b68e000d42707502248046a2bd89b02c99b0988ab01c9bc0c827b08c92b0b95aaff7b7c107b7b08d4bc027b7a18d49a0bd42b0a840b017b6bd8007b794926d000520a6dff286a068478025208620b8477fd007b670801956720198268100150204a046ca2956ab81882a76882a87082a97882aa8000847700ff826b0801d4b707957702956bb82895bc00027bcaa0007bc998007bc890007bc788009568402b8267100150204c04a8a28267800033004e040a04826988003302500428742a82698800502250046d2ad4870798aa206f99979820d4a808989920956cb818490c491cf8491cf0826a18017bcae8826a787bca083a0a6000023a0b680002491c20491c187bca607bcb583a0a7000023a0b780002491c10491c407bca507bcb487bc9387bc83064c895690019956ae018956bc018956ca0187b87283307330850205204e6a333078268900033090a0d282cfc826718018177561763a40a3308800102280ffc9567ff079577c1073300540433027c0528c5319568ff0795889900958900078297407b67708297387b67788297307b67b8008297287b67b0009567ff079577a107330056043302800528ad329568ff0795889900958900078297207b67488297187b67408297107b67388297087b67309567ff079577810733005804330286052876329567ff07957799008079e80650225a040d327b699000da970851080628860f826778977720987920956aff0795aa9900492ac0068267b00095ab00067bb7a8008267b8007bb7b0009568ff07958841077b6988007bb9b800330750205c04989f9568ff07958899004928a00649289806492888060264893307209568ff07958821074929900650205e046c9f33077001027b671801390770010256173f0a50226004a9301407ffffffff000000007b67c8009517e08479e07b69080164913307800102837783993308407b671001330062040a08826a080133026404280e2d826a080150226404072d7bcae0007bc9d8007bc8d0007bc7c8009567ff07957701079568802850206604df9f9567ff0795779900827768067b6728956700308377a0f80a09019567b8288272827bf87b6bd0009568b8208284f007827ae87b6a0801682768b8958940db2709684768a8958840db470895878000d42b0adaa709d8870c94ac8ecb8897f000857a01daca0b88b7019570ff9ab39accc9ac0a9a99ef008e3c8e07da0c07889c000185cc018ea8dba80cdbb70c7b6400017b629800d42407826b08018268d000d4b808d48707887701d4c70764b894787b688000510706284a0e50226804f02f520706283e0e9598017b68f800888701c8a7077b67e800d48707887701c837077b67d800d83707c807077b67e0009a98ff007b68a0009a898000826708018268000150206a04cd307b6780007b68a8008267d000826898008269a00050206c04d9307b67687b68608267a000957980826708018268000150206e04be307b67587b68508269a000889780007b67208267080182680001502070049f307b68f0008268e8008269e000d489098268f800826ad800d4a808d49808826a2093a77b67c0005108670d64a98267a800826860d4870764ac826850da980782699800649a64988269a000db970a7b6aa80082678000826a68d4a707826a58daca07826bd00064badb970a7b6aa0008267f00093c77b67f0004916608051018267f80095798064b750207204ec2f7b6780007b686882670801826800018269f80050207404d32f7b67507b68588268f8009a8980008267d0008268980050207604dd2f826958d498088269f800889a80007b6a58826b68daab08956c000182cbdb980b7bcb826850d4870782688000daa80782c808db97087bc8088267d0008268980050207804712f4926d0004926980082695893987b6880009397826a6095a9ff7b69588ea99599ff7b695001826b080198b93f82630001973a01d49a0097ba018264a800984b3fd4ba0a7b6a68826950d30908d80902826b58d8ab0cdb820c82688000978801987a3fd4a8087b688000983a3f977701d47a0a974701826ba00098b83fd4870297b801826bf00098b33fd4380397b801826bc00098b43fd4480897bb018267d000d47b0b7b6bc00082679800d478087b68f000d437087b68a000d427077b67a800c9a907d8c707d8a908826c8000c9c90bc98b0bc97b0b99b33f826760d27307826968c979087b680801d87908c980077b6700019408c98a07d88a08c98c087b688000826cf800826ae800d4ac09889901826bd800d89b02c99b0988cb01c9ba0a826be000c92b0b95ccff7b6ae8007b6be000d4ba0a7b6cf800d49c0bd4ba0a843b017b6bd0007b69d80049269800520ad7fe28380b4926d800018267f800977701826bd800d47b0b0182678800acb70628e3108267589777209878209587ff88773293877b68b80093875207062813111407ffffffff000000007b67f800826780009777209879209567ff0795779900490782689000956a00107ba880f882689800956a00107ba888f89568ff07958881007b69c0007b79f8330750207a04a99a95670010492778f895670010492770f895680010492860f8023307209568ff0795886195690010492968f850207c04789a33077001027b671801390770010233083fac780950227e04b32b140700000000ffffffff7b67b00050228004fe2b3307800102837783993308407b670801330082040a08826a100133028404281829826a100150228404112995bc00067bca80007bc9787bc8707bc7689567ff079577419568202750208604ef9a95670010827740f84926c800330a8268f800d287077b67a80033090101330893a88267a8007b691001d897073309daa709492600013307db78095109062823108267f8008268c800d287078268b800ac8706280e1095670010492738f882679000956800107b8720f882679800956800107b8728f89568ff079588218267c000956900107b9730f83307502088046d9995670010492718f895670010492710f895670010492708f83307209568ff07958801956a0010492a00f80150208a043c9950228c042629ac780950228e04822a502290045327330092040a083302940428f92450229404f6247b67f8077b67f0077b67e8079568e007826710017b67e007330750209604f4988267d000956a00077ba7d8008267d8007ba7d0008267e0007ba7c8003307209568c0078269e8007ba9c00050209804c39850229a04ad28ac780950229c049c2a50229e04ca293300a0040a083302a20428d0245022a204cd249567a0075020a4048399956a000782a7a80082a8b00082a9a0008477ff8488ff826ab000d2a909d49808d48707510729025022a604c326956bb82095bc00067bc788007bc990007bca98007bc8a00095678007956840275020a8043099826788078477ff005207f10149267807826790007b676007826798007b676807956860078267c0007b67700733075020aa040a984926580749265007492648073307209568400749264007035020ac04ec975022ae04d627ac78095022b004c5295022b20403263300b4040a083302b60428a6225022b604a32249263807492630074926280795682007826788007b67200733075020b804a4978267d800956a00077ba7188267e0007ba7108267e8007ba708330720956800078269f0007ba95020ba0478975022bc046227ac78095022be0451295022c0048f253300c2040a083302c4042835235022c40432237b67f8067b67f0067b67e8069568e006826710017b67e00633075020c60430978267d000956a00067ba7d8008267d8007ba7d0008267e0007ba7c8003307209568c0068269e8007ba9c0005020c804ff965022ca04e926ac78095022cc04d8285022ce0406283300d0040a08826ae8003302d204289121826ae8005022d2048a219567a0065020d404b7978267a0068477055217017982671001956b00067bb740826788007bb760826790007bb78000826800017bb8488267607bb768826798007bb788007bb8508267687bb770826780007bb790007bb8588267707bb778956780069568600695694006826a787bba98005020d604430e8267c8009577018268f800d287077b67c80001330a826710019577018268f800d287092855fc3302d8049569b818014929980049299000140700000000f08982c97b97a000956840194929880033075020da04039682679800817756171f0c8268980048082001330701330904826890000a0d019567e0123300dc0433027c052832279568b810958900028297407b6780008297387b6788008297307b67c8008297287b67c0009567c0123300de04330280052820289568b810958900028297207b67788297187b67708297107b67688297087b6790009567a0123300e0043302860528f0279567b8108079e8015022e2048b277b69a800da97085208cd0b1407ffffffff000000007b67f80082678800977720987920956ab810492ac0018267c00095ab00017bb7a8008267c8007bb7b000956860127b69b8007bb9b80033075020e40411953302e6049568b810014928a001492898014928880102648933072095684012492990015020e804e89433077001027b671001390770010233083fac780b8268100148084001140700000000ffffffff7b67a0005022ea040a253307800102837783993308407b6700013300ec040a08826a18013302ee04281a20826a18015022ee041320956bb8287bbaa0007bb998007bb890007bb7880095672012956840295020f0045d959567b810827768014926b000492608018268f800d287077b67980033070101956b00017bb71882ba088ea78ea8daa7088267980082b918d897078ea9daa709d4aa07db78095209e40a8267f8008268b000d287078268a800ae87d10a3302f2049569b81001492960018267c000959a00017ba7488267c8007ba750956800128267b8007ba75833075020f404dd939567b810492740014927380149273001647a3307209568e011492a2801015020f604b99382671001817756173f12826710014807403302f80428b3215022f804b0213300fa040a083302fc0428931e5022fc04901e959a00017ba7207ba7187ba7109568c011826718017ba70833075020fe0468938267d0009568b8107b8700018267d8007b87f8008267e0007b87f000648a3307209568a0118269e8007ba9e80050200005359382671001817756173f128267100148074033020205281f24502202051c24330004050a083302060528391f50220605361f9567801150200805ec939569b810018297d0008298d8008299c8008477ff8488ff826aa000d2a909d49808d4870751076b0250220a052b21956bb8287bb7a8007bb9b0007bbab8007bb8c000956760119568602950200c059c939567b8108277b0008477ff005207330233020e059569b810014929a0008267c0007b9788008267c8007b979000956840118267b8007b97980033075020100569929567b81049278000491778491770647a33072095682011491a680350201205489282671001817756173f128267100148074033021405284220502214053f20330016050a083302180528f91c50221805f61c33021a059569b8100149196049195849195095680011826790007b9748330750201c05f2918267d8009568b8107b87408267e0007b87388267e8007b8730648a3307209568e0108269f0007ba92850201e05c39182671001817756173f12826710014807403302200528bd1f50222005ba1f330022050a0833022405289d1c502224059a1c7b97207b97187b97109568c010826718017b970833075020260576918267d0009568b8107b878267d8007b87f88267e0007b87f0648a3307209568a0108269e8007ba9e850202805489182671001817756173f128267100148074033022a0528322250222a052f2233002c050a08826ae80033022e0528d11b826ae80050222e05ca1b9567801050203005f7919567ff07957799008277e8078477055217018b00956aff0795aa99008267180195ac00077bc78800826790007bc7a8008267c0007bc7c800826808017bc890008267687bc7b0008267c8007bc7d0007bc898008267707bc7b800826788007bc7d8007bc8a0008267787bc7c000956760109568401095692010826b80007bcbe0005020320569088267b0009577018268f800d287077b67b0000149260801826718019577018268f800d28707280dfc9569ff07959999004929d8064929d00614070000000059e962787b97e0069568ff07958861074929c8063307502034052490390870010256181f1220037001022033088001022896d63308800102288ed64926d000018267c0009777018268d000d487077b6780000149260001330a8267c800826828d287077b6768140700000000ffffffff7b676033090101330893a88267687b69d000d897073309daa7094926c0003307db7809510906287fe88267c80082680001d2870782689000ac8706286ae89569ff0795999900492960068267b000959a00067ba7488267b8007ba7509568ff079588e106826788007ba7583307502036055d8f9567ff0795779900492740064927380649273006647a3307209568ff079588c106492a28060150203805318f50223a051b1fac780950223c0577209517e08477e07b67080150223e055c18330040050a08826a08013302420528a71c826a080150224205a01c7b67080164719569ff07959999008267c000959a00067ba7207ba7187ba7109568ff079588a1068267d0007ba708330750204405c18e8267e0009568ff07958899007b8700068267e8007b87f8058267f0007b87f005648a3307209568ff07958881068269f8007ba9e80550204605868e50224805701eac780950224a055f209517e08477e07b67f80050224c05b1170a08826af80082a71882a81082a90882aa6f7c6f8b6f976fa9826808017b69f0007b89187b67f8007b87107b6be8007b8b087b6ce0007b8c9567ff079577610650204e05138f9569ff0795999900959a000582a7d00082a8d80082a9c8008477ff8488ff826a60d2a909d49808d487075107708267e000957902d879078268e800c8780ad88a08da77088267f800c8870bd87b078268f000c878089567b8287b6908017b79087b6af8007b7a107b6bf0007b7b187b68e8007b78209567ff07957741069568c028502050058c8e9567ff07957799008277b0058477ff00510716330a8267d0009577018268c800d2870928aefd9567b828826808017b78288268f8007b78308268f0007b78388268e8007b78409567ff07957721069568e02850205205348e956aff0795aa990082a78805847bff826830d88b07db780b8262489372826c40937c82683893780184b9ff82678000ae798c7b69f8007b6898007b6ca0007b62a8007b6b08018267c80082680001d2870782689000ae8766ff492a80058267b00095a900057b97688267b8007b97709568ff0795880106826788007b9778330750205405bc8c9567ff0795779900492760054927580549275005647a3307209568ff079588e105492a48050350205605908c82681801818756173f08480840019517e08477e07b67f00050225805bc1533005a050a0833025c0528411750225c053e179569ff07959999004929400549293805492930059568ff079588c1058267f8007b972805330750205e05338c8267d8009568ff07958899009589000550226005281b9588a1058269f0007ba90805502062050b8c82681801818756173f08480840019517e08477e07b67f8005022640537150a08826af80082a71882a81082a90882aa6f777b67f0006f877b67e8006f977b67e0006fa77b67d8009517e08477e07b67f80064719569ff07959999008267c0007b970005959a00047ba7f8007ba7f0009568ff07958881058267d0007ba7e800330750206605848b8267d8009568ff0795889900958900047b97e0008267e0007b97d8008267e8007b97d000648a3307209568ff07958861058269f0007ba9c80450206805458b82681801818756173f08480840019517e08477e07b67f00050226a05711433006c050a08826af00033026e0528eb1b826af00050226e05e41b8268f8007b8a187b89107b8b087b879567ff079577410550207005e18b956aff0795aa990082a7a80484770552170195008267d00095ac00047bc748826708017bc7688267b0007bc788008268c0007bc850826798007bc7708267b8007bc790007bc8588267a0007bc7788267787bc798007bc8608267a8007bc780009567ff07957721059568ff07958801059569ff079599e104826b707bcba00050207205550295690001829b08956aff0795aa990082979577018268c800d287077b972807826b0801013308330c330295b701847bff2820fd9569ff0795999900491938491930140700000000d94b11cf7b97409568ff079588c100491928330750207405098a390870010256181f122003700102203308800102287bd033088001022873d09569ff079599990049191849191014070000000059e962787b97209568ff079588a100491908330750207605bc89390870010256181f122003700102203308800102282ed033088001022826d033078268080133090a0d282ee5330278059569b810014929d8014929d00114070000000059e962787b97e001956880124929c801330750207a056189390870010256181f12200370010220330880010228d3cf330880010228cbcf33078268000133090a0d28d3e40a020182171082181814090000000001000000d37909d48909987a2088aa01948a939a510a248219821a087b697b6a087b67107b68189551c0821038821530821628951140320033088001028388330701330933007e050a0d3302800528531b50228005501b3308240a0201821718821810821908d4780a889b0194ab510b0d821a5022820583173200330880010283883307013309330084050a0d3302860528101b502286050d1b330844330088050a0233028a05282f1950228a052c19520b0b50228c054317320033088001028388330701330933008e050a0d3302900528af1950229005ac19330092050a023302940528f21850229405ef18520b0b5022960506173200330880010283883307013309330098050a0d01951180f9951a00067ba0787ba5707ba668951580068411e0641682997b692882887b68308278107b68208278087b683882777b6740836760050a0901826278058263700582676805826b60057b6b7868296838958a40db290a687968b8958840db7908958b8000d42309da9b0ad88b0c949c8ecb88a8f000858901dac90b88b4019540ff9ab49accc99c099aa8ef007b64a8008e4a8e0cda0a0c7b68b800888a000185aa018e98db980adbbc0a6474826778d42408d4370bd4b808888801d4a808647a948a5208e9028268b8008588ff00826ca800d4c808d4090bd4b8085108d002826bb80095ba017b6ab00088a801c898087b68a000d4a808888801c8c8087b689000d8c808c808087b6898009ab9ff007b6988009a99800064487b64707b62687b636050209a05d7197b6780007b68508267608268688269880050209c05e6197b67487b68188268b8009a897f82677882687050209e05cd197b67107b68b80082698800889780007b67588267788268705020a005af19826c58826b9000826a98008269a000d4a909826ab000d4ba0ad49a0a93c77b67a800510a0502826750826918d497078269b800dac907826268642a82638800db370a7b6ab80082678000826948d49707826910dac907826b6064badb370a7b6a800093c87b6888004916588051018267b00095798064b764285020a2050a197b67507b68188267788268708269b0005020a405f4187b67107b68488268b0009a8980008267608268685020a6050019826948d49808826ab00088ab80007b6b48826918dab908826970dba8097b6970826810d48707826850dab807826878dba70864a97b68788267608268685020a8059718330c82694893989397826a5895a9ff7b69508ea99599ff7b6948826370826478017b6c7898493f973a01d49a0c974a01826bb80098bb3fd4ba0a7b6a688269487b6c706434d3c903d8c902826b50d8ab0cdb320c978801987a3fd4a8087b6860984a3f977701d47a0a8267b800977701826b800098b83fd4870297b801826b880098b33fd4380397b801826ba80098b43fd4480897bb01826778d47b0b7b6ba80086887b68880086387b68800086277b67b800c9a907d8c707d8a908826260c9290bc98b0bc97b0b99bc3f826758d2c707826868c97804d87808826770c987039478c98a07d88a08c98208826ab0008260a000d40a09889901826b9000d89b02c99b0988ab01c9b000826b9800c92b0b95aaff7b60a0007b6b9800d4b0027b6ab000d49a0bd42b0a84cc017b699000520af2fe2805330c018267a800977701d47c0a01826730aea79c08826720977720987920492638058267407b6720058267387b672805956820057b69a0007b69300533075020aa0537844926180549261005492600050133072095680005492608055020ac0519843308700102390770010256173f0b200370010240019517e08479e07b69a800649133078001027b677083777b68b00083993308407b67b8003300ae050a083302b0052869105022b00566108267289777209877204926f8044926f0044926e8049568e0047b6798007b67e00433075020b205a583826778956a00047ba7d800826780007ba7d000826788007ba7c8003307209568c004826990007ba9c0005020b40575838268b000818756173f0e4808403302b60528fb145022b605f8143300b8050a083302ba0528d4115022ba05d1119567a0045020bc0530848067a4048268a8048269b004977720d49808d487075107a207492698048267407b6780048267387b678804956880048267a0007b67900433075020be05ff824926780449267004492660040333072095686004492668045020c005e1828268b000818756173f0e4808403302c20528f1115022c205ee113300c4050a08826aa8003302c605282e14826aa8005022c60527147b67a8006f877b6790006f977b6788006fa77b678000492658044926500449264804956840048267307b67400433075020c805778282678000956a00047ba738826788007ba730826790007ba728330720956820048269a8007ba9205020ca054a828268b000818756173f0e4808403302cc05285a115022cc0557113300ce050a083302d00528b80e5022d005b50e49261804492610044926080495680004826798007b67000433075020d205fd81826778956a00037ba7f800826780007ba7f000826788007ba7e8003307209568e003826990007ba9e0005020d405cd818268b00081875517400e4808403302d6052853135022d60550133300d8050a083302da05282c105022da0529109567c0035020dc0588828268c00384870151073006848704520751067b6890008487fb007b678800956780038268a8005020de055c82826780038268880382699003826a9803847700ff826b8800d4b707957704956b00057bba98007bb990007bb888007bb78000956880058267a8005020e0059d82492678038267a000956900037b97708267387b9768956860038267407b976033075020e205038149265803492650034926480333072095684003492640035020e405e6808269b000819756173f0e4809403302e60528f60f5022e605f30f0a08826aa80082a782a80882a91082aa186f726f8c6f996faa9517e08478e07b68a80064817b6a6895a701887a017b6978c8a90bd4b709889901c8c9097b6c8000d8c90a7b628800c82a0a7b8b087b877b89107b8a18956720035020e8055e81956900038297203a0818010282623803829a28829b30c87808d87807c87a0c95ccffd3ac09d8ac0ada970a95b7ffc87a0ad87a0788b901c99209c89707956900057b98a0007b9ca8007b9ab0007b97b8009568a0058267a8005020ea058081826790008477025207a6025020ec056e7eff3a08a001037b68a8003a08b001037b6890003a07a801037b6788000a0a826888006f88978920826a90006faa98aa20d4a909988a208268a8006f8b330880010397bc20d4ca0a98bb203d0b9001033e0a8801033e098001033a092001024926d8054926d0054926c8057b6990007b69c0054826e0058e77fc089a79956a00067ba9187ba9107ba9087ba9978820988820977723d487079568c00597882098882095690006979920d4890a826b7097bb2098bb209568e005978820d4b80c3308ff3309ff0a7b67a8000a0c015107f4003300ee050a0c0195791f7b6788005022f005130f492618027b6900027b6a080295672002956800027b6b10025020f2053b04956b000282b93882ba3082b82882b7207b6880007b6978d48909d4a708d498089888207b6a70d4a909979920d498085208fc024926f8014926f0014926e8019568e001826988007b69e0017b6788005020f405a57eff0a0c01826a8800826878826970d498081409e0ffffff00000000d89a09826b800094b994895109b00264789877205207a70283a72064897b68800083887b68880064985020f605a982826880007a68200683778368200633090a0b018167200682688800ac8771028267a800520729039567a0013308405020f805ed7cff956b000182b7b80082b8b00082b9a80082baa0005022fa05270a52073d0249269801492690014926880195688001826790007b67800164a77b6ab8005020fc05e47dff4926180149261001492608018267307b670001492638014926300149262801826798007b672001492658018267a0007b6750018267387b6748013a074801023a085001023a09580102826a407b6a40017b6778017b6870017b6968013a0760010233082095696001956a4001956b2001956c00017b6760018267b8003300060628a8809517e0847ce064c1826868958702d88708826a78c88a09d8a90ada880a82688000c88a0ad88a08826b8800c88b0b64c87b6cb8007bc9087bc77bca107bcb18956700035020fe05097eff956c000382c73a0b20010282c81882c90882ca107b6bb000c87b0bd87b07c8790cd89c09da7709c8a909d8a907c88707956800067b8b407b8c487b89507b8758956840068267b800502000063b7eff9567e00233084050200206807bff956b000282baf80082b8f00082b9e80082b7e000d49a0ad48709d4a909989920d4a808978820d498085208c1004926d8024926d0024926c8029568c0028269b0007b69c0027b67b800502004066a7cff4926580249265002492648028267307b674002492678024926700249266802826798007b676002492698028267a0007b6790028267387b6788023a072801023a083001023a09380102826a407b6a80027b67b8027b68b0027b69a8023a074001023308209569a002956a8002956b6002956c40027b67a0028267b80050200606327fff955180f99517000682707882757082766895118006320000492650054926480549264005140700000000d94b11cf956840057b675805330750200806a87bff390870010256181f0b20037001022001330880010283883307013309040a0d014926d0004926c8004926c0001407000000006d53a9a79568c0007b67d800330733000a06285d7bff4926f0004926e8004926e000140700000000b6e2a4af9568e0007b67f800330733000a0628357bff4926b0034926a8034926a00314070000000000f90f569568a0037b67b803330733000a06280d7bff4926d0014926c8014926c00114070000000018ecb8909568c0017b67d801330750200a06e97aff8267b000817756171f0c8268b000480820013307013309048268b80033000c060a0d01951130ff7b10c8007b15c0007b16b8009515d0008411f08289187b19108289107b19088289087b1982867b17289517900033084050200e065179ff821898008219900095671fd86700821ac80a0b8477e0c8b803c879027b1920d8920cc8c303d383067b1818d88309da6c098214a800d8ab0b8216a000da000b821708c87b0bd87b0cc86b0bc89b0a821710c84707c8c707d8ba0cd86b0bc8b707c8c70b8eb78eacdbb70cd4ba078e38db7c08520866d86a07d34b08d84b0cda870cd36a07d48707db7c0952094e7b12707b13787b1a80003307409518707b1b88007b141050201006e079ff8217288218107b78187b76108218187b78088218207b78955130ff8210c8008215c0008216b8009511d0003200491160491158491150140700000000717b484e9518507b17683307502012069179ff49114849114049113041330704951830491138502014067779ff390870010256183f0b2003700102400133088001028388330701330924330016060a0d019511c0fe7b1038017b1530017b162801951540018411e082897b19388289087b19308289107b19288288187b182082787b18188278107b18108276080a0a6f68978920821a106faa98aa20d4a909988820821a186faa330b80010397ac20d4c80898aa203d0a9001033e088801033e098001038218207b18d8008218287b18d0008218307b18c8008218387b18c0004821e0008e77fc089a787b1818017b1810017b1808017b18000197bb2098bb20977723d4b7079518c000978820988820330b80010295190001979920d4890a7b1b1897bb2098bb209518e000978820d4b80c3308ff3309ff0a64760a0c015107db007b1620330018060a0c0195791f7b173850221a064608492198007b1980007b1a88009517a000951880007b1b900050201c066efd8219b8008216b0008218a8008217a0007b18307b1928d48909d46708d49808988820d46909979920d49808520891004911784911704911689518608219387b19607b173850201e06e377ff0a0c01821a38821828d468081409e0ffffff00000000d89a09821b3094b99489510951647698772052074983a72083687b1838646850202006f57bff7a16200183778318200133090a0b0181172001821620821838ac871c52061a9551c0fe8210380182153001821628019511400132000049115049114849114014070000000018ecb8909518407b17583307502022064f77ff390870010256181f0b200370010220018118183307013309040a0d33073300240628aa7bff330750202406a47bff330701502026069a7bff82970881981082996f77977a206f88988820d48a0a9877206f98978920d497079888209569b81832028269d00082970881981082996f77977a206f88988820d48a0a9877206f98978920d497079888209569ff079599990032026471837933084082671001320282970881981082996f7a97a7206f8898882032028269880082970881981082996f77977a206f88988820d48a0a9877206f98978920d497079888209569b82032027b67e800c9a007d8c707d8a008826cb800c9c00bc98b0bc97b0b99b03f8267b000d270078268c000c97804d87808c989039498c98a077b67c800d88a08c98c0895670001827a18827c10d4ca09889901827b32028269000182970881981082996f77977a206f88988820d48a0a9877206f98978920d497079888203202da98078269d000649a64988269e000db970a7b6ae8008267c800826ab000d4a707826aa000daca07826bd80064badb970a7b6ae0008267f00093c77b67f0004926b0008051018267180195798064b732029517e08477e07b671001647183793308408267900032029598017b681801888701c8a7077b671001d48707887701c837077b670001d83707c807077b6708019a98ff007b68e0009a8980008267c0008268b800320282a71882a81082a90882aa6f776f8b6f996faa8268f0007b8a187b89107b8b087b873202826af00082a71882a81082a90882aa6f777b67f0006f877b67e8006f977b67e0006fa77b67d8003202826af00082a71882a81082a90882aa6f777b67e8006f877b67e0006f977b67d8006fa77b67d0009517e08477e07b67f00064719569b810826708013202826a000182a71882a81082a90882aa6f777b67f0006f877b67e8006f977b67e0006fa77b67d8009517e08477e07b67000164719569ff07959999008267f800320282a71882a81082a90882aa6f776f886f996faa3202d8ab0ac8a90cd89c09daaa09c88909d88908c887073202826a100182a71882a81082a90882aa6f777b6710016f877b6708016f977b6700016fa77b67f8003307b818c876093202826af00082a71882a81082a90882aa6f777b67e8006f877b67e0006f977b67d8006fa77b67d0009517e08477e07b67f0006471826700013202d49707d48a09d47909989920d48707977720d497073202826ae80082a71882a81082a90882aa6f7c6f8b6f976fa98268f0007b69e0007b89187b67e8007b87107b6bd8007b8b087b6cd0007b8c3202956b000182b982970881981082996f77977a206f88988820d48a0a9877206f98978920d4970798882082b9183202826aa80082a71882a81082a90882aa6f777b6790006f877b6788006f977b6780006fa77b67789517e08477e07b67a80064713202826a180182a71882a81082a90882aa6f7c7b6c08016f8b7b6b10016f997b6900016fa77b671801320282a71882a81082a90882aa6f777b6708016f877b6700016f977b67f8006fa77b67f0009517e08477e032028264c0008263b8004926d8004926d0008269a800939893977b67c800826ab00095a9ff7b69a8008ea99599ff7b69a0003202826a100182a71882a81082a90882aa6f776f8b6f996faa826818017b8a187b89107b8b087b8733070020320282a71882a81082a90882aa6f777b67e8006f877b67e0006f977b67d8006fa77b67d0009517e08477e0320282a71882a81082a90882aa6f777b67f8006f877b67f0006f977b67e8006fa77b67e0009517e08477e0320282a71882a81082a90882aa6f776f8b6f996faa826800017b8a187b89107b8b087b87320282a71882a81082a90882aa6f776f886f996faa956bb82095bc000732029517e08477e07b67f000647183793308408267000132029517e08477e07b67f00064718379330840826708013202956c00017bc8187bca10d48a077b69f8007bcb08d49b08d4870732028268d000958702d88708826ad800c88a09d8a90ada880a8268e800c88a0ad88a08826be000c8b8083202826a900082a71882a81082a90882aa6f776f8b6f996faa8268a8007b8a187b89107b8b087b87320298493f973a01d4a909974a018264e800984b3fd4ba0a7b6ac0008260a0006437d3900332027b6a7b69087b68107b67189551c0821038821530821628951140320282a71882a81082a90882aa6f776f886f996faa956bb82032027b97208267e0007b97188267e8007b9710648a3307209568ff0732029517e08477e07b67a800647183793308408267b8003202978801826bc80098ba3fd4a8087b68b800987a3f97b701d47a0a974701826be00098b83f32027ba8d000d478087ba7c80088870182680001c887077ba7d800d8870782681801c887077ba7e000320282ab7b1b1882ab087b1b2082ab107b1b2882aa187b1a308296829a087b1a829a107b1a088299187b191032027b6ae00093b87b68e8004926b8008051018267100195798064c764383202826a100182a782a80882a91082aa186f776f886f996faa320282671801817733083f3202d879088497e0957920d87907c8780ad88a0bda770b32028269a800d4980882691801889a80007b6aa800826ba000daab08826bb800db980b7b6bb800320282680801958702d88708826a1001c88a09d8a90ada880a32029517e08479e07b6918016491320282b7b80082b8c00082b9b00082baa800d49808d4a707d4870732028269a80093989397826ab80095a9ff7b69b0008ea99599ff7b69a80032028477ff8488ff8499ff826bf800d2ba0a826b1001d4ba0a956bb8283202821718821810821908821ad4790bd48a0cd4bc0c98cc20d48b0b97bb20d4cb0b320282a71882a81082a90882aa6f776f8b6f996faa3202826ad000c9a707826a0801826be000c9ab0a956bb82032029517e08477e07b67e800647183793308408267000132029517e08477e07b67e8006471837933084082670801320282970881981082996f77977a206f88988820d4a80832028267180181773308233202330740826818017a8732029511c07b10387b15307b16289515408411e064768317330804320282a71882a81082a90882aa6f7732029517e08477e07b6718016471837933084032029517e08477e07b679000647183793308408267b80032029517e08479e07b691001649132028597ff00d43707d40a08d48707320282b71882b82082b91082ba08d49808d4a707d487073202826718013308407a7832023307b820c8760a95ab000632023307b820c8760a95ab000532023307b828c8760a95ab000332023307b828c8760a95ab000232028897019598ff888832858801da970832026479140700000000717b484e3308002032027b68f000956b000182b81082b908d4890982b81882bad4a808d498083202826af80082a71882a81082a90882aa6f777b67f8006f8732029511c07b10387b15307b16289515408411e0647683173202d487078268c800daa8078268c000db97087b68c0008267d8008268d000320282b77882b8800082b97082ba68d49808d4a707d48707320282b73882b84082b93082ba28d49808d4a707d487073202849a40520a195109148d9a40cfa80ad09808d09707d4a707320032009597c0d0780733083200849a40520a195109148d9a40d0a70acf9707cf9808d4a808320032009598c0cf870833073200490a21a11a4292d210a1925429a42449922449922449922449922449922449922449922449922449922449922449aa9294529294942454a5242549922449922449922449922449922449922449922449499294a4aa24254994a492a42a494992922425294955559292a42495244544444a9224254952a1524a4992524a4952491111514444a424491224944a4a4a8a142952a448912245498a8888222222254992922449905054a4489122458a142952a4489122458a14255244449424094248184a93d2900811119188886844449208491289281211a250354484880092a4129124492209494892244992a124948492a4004a21443094b442552224490821a442952a8d888848111124228408918852a2c4082420020924209080804002092449221a499224892291101191244992242122222222111111914604499044248d48922009511449a52425898824528888281121894288602451a8448a4404552429294992242911212222228944228948a42449229124914844229224224484888888482449128924492292444488848888882089442422225142a4482224250911218488449244444422222252220892281251442291484442244948224a9428512249459254222a45244992541211499248249144228988880822222288884404111111114444229228922252242a1211894489280291828888082222228248242292241249121144444445244a4c9248224a2249249124912492449248442291481249128924259248492449244592242222111111291104499044248d88880849882225212222a210118908922884084612854a44118920828888482291482212294992482449248888888820a24810118944444444100922498224a24824224510514422484a12218410111111898888444444449120488224228d888848922449881245828824521011a14404491442124c0011844aa24810092222492492880822221211894422222222828846444454524924a948924a442552128924a9242249924822492411114511444444101189089288880822221249919428121111114582200951441189202289144444948820894248828844102a11458224888888888848a28888886844128944922491489224922492244994248920124444444444444444443412494992240992242222220a228a4804494942440821229124111141518988888846444492248a4444222222222212111191881191884844a220624428114108114ca250918822411445c48888888288482452222288229308a2884410451211115110111111252282283289208a4804114444248888884892244944444404894844444414092222922441129168444444908428a2481091440a22221141128510c148a250896894a42a4194248288884822914822122949924824492488248908228a0411914844444404912022228224222222228a20a288449094244208212249928888a0a84444444491204882242251248888a42422a2111111955412492a92a412518994442492a4928824498924924412115144101111414424228888888820222291144989888888460449904444228948a282884844904421122241a84491209214414444444424918820228888888808228944444444041111912449222549149124114144248824499224494444444414111144440208205149228a44221211444424952422222222820820519444928888082282a2121111d188888824491489884444444444a4111111919224499244121111111105112342890842886012858a44149108a2288a248a18452412912888181191488988208a4482882241242982884422114924228808222222888824121111111111448c888804312222922449124944444444041191000248549200221291249224494444440411491425898888888888202202082095242222222288244951124544444410111495402222221a1111499228120922221289441029294992242184884822058948449228121149a204412422824444441089882412492452440415448c248924224a224912492291249244924824128924912491482225894822492289482489229211092222222a452289249148924422924444049192244992448c8844225290460001248a9288a452929224229248049124294a92882449245110010490284a12111111114144124549444444449028124444441444442811418a0c2082441189208a8848242205119148a44444902293a8a448525114452429228888444410912441444444041141444444444410119148124912912411414410111191449248221191241111112445124922894492228288444410114944249288202288489224454410912411898888880812458288245210115122822451914954124582045192082212898820222282888888082241c48888244912499244a20812452482a4242184489210894492241191082241141111444444444444118948248a44442251822022228288888820121191484422912222a8206224492411454a24492249249244924812894422912492241249a424114924492411892451443211218a2812442411298888881211411285104124081589224955118944a2882241444444144444841211411419400410490451442248928808228a8888241291449248b222a5444444912022894841444494881044914904512488241191828888202282283289208a480491a424499288248988202222b14812114144444412491251248888888882888828112188229308a288441045514444444444414444229112111144914904512488241191828888202282283289208a48041141442422228888888850494912894442922449922422492282244a9248141144448888888888244992882411114422111141444444441011111111111191444444440489481011912449922422111111454404912201241543a9845209a5124a25624400115110220809891811404414442192502aa15442a98452898800220a420421211111404491502aa1542246041011052182909088882089828811a1444442a9448c0820220a42042121111141240a22468412114411994443a9845209a5124a2522028828081184844444001105514426d1502aa15442a9845209a5124a25944a289588882089828811a144042992491a111140444441882014964403222222228a0441845209a5124a25228988888808228a48044949420811111111222222a2444444444402222222228a044184528991c88888882011942a350aa15402222222228a04418452894228958848444444444444242222222222221291249224128944a22449442441a84a4044444444238208a51244289588484444442212a2882212414412298818114a441022249148102a1145248228928888481444444444948808a28844822822114492228a48049122898820464492244a9224898846444444259544928a24a944255212918824a9882082202222828848441089484410a48822528220222282444444102408822091044924892491884422419224499224514402222222228a044184520922944a4424224214514422888888288818114a441022449044a112514422882289888888828848245222220812241144118920921451442288144944043122922491482449441491082222220a224684121104099208a248104511312222a220222222a2444410244822284a529594244992928820222262440011512462440011512446223111114524828824521031229488208a48248822414444a22022228a448944104524124491204144928808222262440011512420222222a288484410a154a2104a25221211111151101112118408112451884a1491082222222288888888200a11118948c4880022a2208ac8241a404424918888888820a288441091440a22224a449044418224826894a42a41942482884822228848444424222222228828221124258988104244448488888888880a8a4ac4880022a24844118920228914448c08252288221209a248101111511011899294480451442241149108a288111189828888882811114411994425a2884410498a202211312280882812884812d148244922942a94aad42884222212118988888888484424491211118948221a111111955412492a92a412954849442292a40822082222228888440491884404418a282225082222224844440441822008124990449248128948241224499224491245241111114492884822222222828822124152922889242124490849921411910a8a4a1442222212114992484444242292244922221211412449121111111111511011114a4404214204014412854a4411892022222282884844a34444a2924a2249459254a21229894844925424419248224924111111414444044924224822121144442292145124255191882489125104918248440449444490442489521249121144a42849c948248924499244924892481249224924229148248924499248a224119144924412914812119118898c2449529404109144141111111129888888904844102224410011844a44118920224924828828125911295192884412111111118988828888884422044182208a04111111051111119188088204411409228888482249041111111141444444444414444422044182208a04111111051189441251102408a248101111511011111189882048104411892082484424121149229244248988441089c42291448c0820220aa2884ca211918844229188884424499288884404910820228988888888288818114a44102224910144102a11452482888888082222229191542229494424226244241291828888122188221209a2481049225210111111252282282291208a0411c48848224904111111114444448c8888882888484a441045241244912062928814442412291109a2884482281224894841449148894810452412441189208288488888888888884444242222111111412412231249444400111105218290901889c428920490ac444a9424229144444422119182888828112108122411441189208a88481211298888888828111141902089a0485255442291282288888848922491449248221189442211114444a44824118944221111444492a494261211111189888844222205111151224210452611449120222222220a2222828808a2c82482224945511449141111111111051111111151222282283289208a480491a488202212221289884422124924222222221144224aa462952422092011290811848444240124220521829090a212312280882808118484149526012449a594244952284591204d92948242298a048922418242298a045124485028452392442a25494a342222955412492a92a41251894849499254444492884412492289882849104922482249908848122422124911492229129124295104910a9224822422099288244992242949502a494932491249929224499224124922492449a2288a244992244952928824922492884492881ac94492482422a220222422082182491452948822419288888882444444242282281209a2481041442489482422a220222422882291208a48045114454444a220229148221244914810458288888882444444242282281209a248104124121111114444442411111111444492480a222211411489044549aa922849922412494904911049922449922422222282480442840851942849149284104244444414494a924822491249321ad1441011111144924492244922222222028d2401242a4aa4280a228a1a111191404444041111115104222211111111910821242222242222229294244922891429894014924492244924494420128888882449121111111188884444444444228490888890888888404492684404105120443094342202882822220288282222028828222202882810456412d188884892a41209442425499224894492244992a492922449922492482049921411112509202990449240886028894644444a9224254925254921490821914824228a884892484224492249d64834092222228288882449924492240934490049a524a5401435922422229a2480a4408860928a28904052294949a2482a252949449528a99422a994a424512489248944921249244945522949494a5424221289125104229544254a24912492888888925415492a925414455124a9288a2289228a2415455124514494a4aa92244991a4a2288a4891a4a2288a248a92244991a4aa8844225151522949495224a9288a924445928aa2284a525114455244445444a24491a4aa485294a4a2288aa4241545512425a92a925492aa224aa2122551892249242992481249a448525524a9248924a25492244949aa8a12899428894a944822492245229148242a49929492a42802912a4a52559492244991888844a24822494954444492a22251a224914894a424495292aa8a44244aa212255189924a49514a54922495925449544aa212255191a4244952a42251248a449128495201441149525224a9a82449aa442211512249529224294992a4924a9224a9a40000"},"methodIdentifiers":{"STAKE_PER_DAY()":"4a91f7ae","archiveHabit(uint32)":"b650673a","checkIn(uint32,uint64)":"a0145927","claim(uint256)":"379607f5","createHabit(bytes32)":"e9714e07","dailyStatuses(address,uint64,uint32)":"88b21c87","deposit()":"d0e30db0","epochNow()":"222ae786","forceSettleAllEpochs(address,uint64,uint32)":"494bc62d","forceSettleDay(address,uint64,uint32)":"6196d285","habits(address,uint32)":"99626634","prepareDay(uint64)":"48cc36b8","redepositFromClaimable(uint256)":"8f23d36c","settle(address,uint64,uint32)":"9c14eb6e","settleAll(address,uint64,uint32)":"45123cce","treasury()":"61d027b3","userHabitCounters(address)":"0e08454a","userStates(address)":"0ecc535f","withdraw(uint256)":"2e1a7d4d"}},"hash":"37ac3c8917bc89748ff2ec7d3b371a7fa1fdbaf4654ff2dbe0e95d2b08bc90bc","factoryDependencies":{}}}}