{"contracts/HabitTracker.sol":{"HabitTracker":{"abi":[{"inputs":[{"internalType":"address","name":"_treasury","type":"address"}],"stateMutability":"nonpayable","type":"constructor"},{"inputs":[],"name":"AlreadyCheckedIn","type":"error"},{"inputs":[],"name":"AlreadySettled","type":"error"},{"inputs":[],"name":"CannotSettleCurrentDay","type":"error"},{"inputs":[],"name":"DayNotFunded","type":"error"},{"inputs":[],"name":"HabitAlreadyArchived","type":"error"},{"inputs":[],"name":"HabitNotFound","type":"error"},{"inputs":[],"name":"HabitTextTooLong","type":"error"},{"inputs":[],"name":"HabitTextTooShort","type":"error"},{"inputs":[],"name":"InsufficientBalance","type":"error"},{"inputs":[],"name":"InvalidAmount","type":"error"},{"inputs":[],"name":"InvalidBatchSize","type":"error"},{"inputs":[],"name":"InvalidEpoch","type":"error"},{"inputs":[],"name":"InvalidTreasury","type":"error"},{"inputs":[],"name":"NotHabitOwner","type":"error"},{"inputs":[],"name":"TransferFailed","type":"error"},{"anonymous":false,"inputs":[{"indexed":true,"internalType":"address","name":"user","type":"address"},{"indexed":true,"internalType":"uint32","name":"habitId","type":"uint32"},{"indexed":true,"internalType":"uint64","name":"epoch","type":"uint64"}],"name":"CheckedIn","type":"event"},{"anonymous":false,"inputs":[{"indexed":true,"internalType":"address","name":"user","type":"address"},{"indexed":false,"internalType":"uint256","name":"amount","type":"uint256"}],"name":"Claimed","type":"event"},{"anonymous":false,"inputs":[{"indexed":true,"internalType":"address","name":"user","type":"address"},{"indexed":true,"internalType":"uint64","name":"epoch","type":"uint64"},{"indexed":false,"internalType":"uint32","name":"fundedCount","type":"uint32"},{"indexed":false,"internalType":"uint32","name":"insufficientCount","type":"uint32"}],"name":"DayPrepared","type":"event"},{"anonymous":false,"inputs":[{"indexed":true,"internalType":"address","name":"user","type":"address"},{"indexed":false,"internalType":"uint256","name":"amount","type":"uint256"}],"name":"Deposited","type":"event"},{"anonymous":false,"inputs":[{"indexed":true,"internalType":"address","name":"user","type":"address"},{"indexed":true,"internalType":"uint32","name":"habitId","type":"uint32"}],"name":"HabitArchived","type":"event"},{"anonymous":false,"inputs":[{"indexed":true,"internalType":"address","name":"user","type":"address"},{"indexed":true,"internalType":"uint32","name":"habitId","type":"uint32"},{"indexed":false,"internalType":"string","name":"text","type":"string"}],"name":"HabitCreated","type":"event"},{"anonymous":false,"inputs":[{"indexed":true,"internalType":"address","name":"user","type":"address"},{"indexed":false,"internalType":"uint256","name":"amount","type":"uint256"}],"name":"RedepositedFromClaimable","type":"event"},{"anonymous":false,"inputs":[{"indexed":true,"internalType":"address","name":"user","type":"address"},{"indexed":true,"internalType":"uint32","name":"habitId","type":"uint32"},{"indexed":true,"internalType":"uint64","name":"epoch","type":"uint64"},{"indexed":false,"internalType":"uint256","name":"slashed","type":"uint256"}],"name":"SettledFail","type":"event"},{"anonymous":false,"inputs":[{"indexed":true,"internalType":"address","name":"user","type":"address"},{"indexed":true,"internalType":"uint32","name":"habitId","type":"uint32"},{"indexed":true,"internalType":"uint64","name":"epoch","type":"uint64"},{"indexed":false,"internalType":"uint256","name":"reward","type":"uint256"}],"name":"SettledSuccess","type":"event"},{"anonymous":false,"inputs":[{"indexed":true,"internalType":"address","name":"user","type":"address"},{"indexed":false,"internalType":"uint256","name":"amount","type":"uint256"}],"name":"Withdrawn","type":"event"},{"inputs":[],"name":"STAKE_PER_DAY","outputs":[{"internalType":"uint256","name":"","type":"uint256"}],"stateMutability":"view","type":"function"},{"inputs":[{"internalType":"uint32","name":"habitId","type":"uint32"}],"name":"archiveHabit","outputs":[],"stateMutability":"nonpayable","type":"function"},{"inputs":[{"internalType":"uint32","name":"habitId","type":"uint32"},{"internalType":"uint64","name":"epoch","type":"uint64"}],"name":"checkIn","outputs":[],"stateMutability":"nonpayable","type":"function"},{"inputs":[{"internalType":"uint256","name":"amount","type":"uint256"}],"name":"claim","outputs":[],"stateMutability":"nonpayable","type":"function"},{"inputs":[{"internalType":"string","name":"text","type":"string"}],"name":"createHabit","outputs":[{"internalType":"uint32","name":"","type":"uint32"}],"stateMutability":"nonpayable","type":"function"},{"inputs":[{"internalType":"address","name":"","type":"address"},{"internalType":"uint64","name":"","type":"uint64"},{"internalType":"uint32","name":"","type":"uint32"}],"name":"dailyStatuses","outputs":[{"internalType":"bool","name":"funded","type":"bool"},{"internalType":"bool","name":"checked","type":"bool"},{"internalType":"bool","name":"settled","type":"bool"}],"stateMutability":"view","type":"function"},{"inputs":[],"name":"deposit","outputs":[],"stateMutability":"payable","type":"function"},{"inputs":[],"name":"epochNow","outputs":[{"internalType":"uint64","name":"","type":"uint64"}],"stateMutability":"view","type":"function"},{"inputs":[{"internalType":"address","name":"user","type":"address"}],"name":"getActiveHabits","outputs":[{"components":[{"internalType":"uint32","name":"id","type":"uint32"},{"internalType":"address","name":"owner","type":"address"},{"internalType":"string","name":"text","type":"string"},{"internalType":"uint64","name":"createdAtEpoch","type":"uint64"},{"internalType":"bool","name":"archived","type":"bool"}],"internalType":"struct HabitTracker.Habit[]","name":"","type":"tuple[]"}],"stateMutability":"view","type":"function"},{"inputs":[{"internalType":"address","name":"user","type":"address"}],"name":"getAllHabits","outputs":[{"components":[{"internalType":"uint32","name":"id","type":"uint32"},{"internalType":"address","name":"owner","type":"address"},{"internalType":"string","name":"text","type":"string"},{"internalType":"uint64","name":"createdAtEpoch","type":"uint64"},{"internalType":"bool","name":"archived","type":"bool"}],"internalType":"struct HabitTracker.Habit[]","name":"","type":"tuple[]"}],"stateMutability":"view","type":"function"},{"inputs":[],"name":"getContractBalance","outputs":[{"internalType":"uint256","name":"","type":"uint256"}],"stateMutability":"view","type":"function"},{"inputs":[{"internalType":"address","name":"user","type":"address"},{"internalType":"uint64","name":"epoch","type":"uint64"},{"internalType":"uint32","name":"habitId","type":"uint32"}],"name":"getDailyStatus","outputs":[{"components":[{"internalType":"bool","name":"funded","type":"bool"},{"internalType":"bool","name":"checked","type":"bool"},{"internalType":"bool","name":"settled","type":"bool"}],"internalType":"struct HabitTracker.DailyStatus","name":"","type":"tuple"}],"stateMutability":"view","type":"function"},{"inputs":[{"internalType":"address","name":"user","type":"address"},{"internalType":"uint32","name":"habitId","type":"uint32"}],"name":"getHabit","outputs":[{"components":[{"internalType":"uint32","name":"id","type":"uint32"},{"internalType":"address","name":"owner","type":"address"},{"internalType":"string","name":"text","type":"string"},{"internalType":"uint64","name":"createdAtEpoch","type":"uint64"},{"internalType":"bool","name":"archived","type":"bool"}],"internalType":"struct HabitTracker.Habit","name":"","type":"tuple"}],"stateMutability":"view","type":"function"},{"inputs":[{"internalType":"address","name":"user","type":"address"}],"name":"getTotalUserFunds","outputs":[{"internalType":"uint256","name":"","type":"uint256"}],"stateMutability":"view","type":"function"},{"inputs":[{"internalType":"address","name":"user","type":"address"}],"name":"getUserState","outputs":[{"components":[{"internalType":"uint256","name":"depositBalance","type":"uint256"},{"internalType":"uint256","name":"blockedBalance","type":"uint256"},{"internalType":"uint256","name":"claimableBalance","type":"uint256"},{"internalType":"uint32","name":"activeHabitCount","type":"uint32"}],"internalType":"struct HabitTracker.UserState","name":"","type":"tuple"}],"stateMutability":"view","type":"function"},{"inputs":[{"internalType":"address","name":"","type":"address"},{"internalType":"uint32","name":"","type":"uint32"}],"name":"habits","outputs":[{"internalType":"uint32","name":"id","type":"uint32"},{"internalType":"address","name":"owner","type":"address"},{"internalType":"string","name":"text","type":"string"},{"internalType":"uint64","name":"createdAtEpoch","type":"uint64"},{"internalType":"bool","name":"archived","type":"bool"}],"stateMutability":"view","type":"function"},{"inputs":[{"internalType":"uint64","name":"epoch","type":"uint64"}],"name":"prepareDay","outputs":[],"stateMutability":"nonpayable","type":"function"},{"inputs":[{"internalType":"uint256","name":"amount","type":"uint256"}],"name":"redepositFromClaimable","outputs":[],"stateMutability":"nonpayable","type":"function"},{"inputs":[{"internalType":"address","name":"user","type":"address"},{"internalType":"uint64","name":"epoch","type":"uint64"},{"internalType":"uint32","name":"habitId","type":"uint32"}],"name":"settle","outputs":[],"stateMutability":"nonpayable","type":"function"},{"inputs":[{"internalType":"address","name":"user","type":"address"},{"internalType":"uint64","name":"epoch","type":"uint64"},{"internalType":"uint32","name":"maxCount","type":"uint32"}],"name":"settleAll","outputs":[],"stateMutability":"nonpayable","type":"function"},{"inputs":[],"name":"totalTreasuryReceived","outputs":[{"internalType":"uint256","name":"","type":"uint256"}],"stateMutability":"view","type":"function"},{"inputs":[],"name":"treasury","outputs":[{"internalType":"address","name":"","type":"address"}],"stateMutability":"view","type":"function"},{"inputs":[{"internalType":"address","name":"","type":"address"}],"name":"userHabitCounters","outputs":[{"internalType":"uint32","name":"","type":"uint32"}],"stateMutability":"view","type":"function"},{"inputs":[{"internalType":"address","name":"","type":"address"}],"name":"userStates","outputs":[{"internalType":"uint256","name":"depositBalance","type":"uint256"},{"internalType":"uint256","name":"blockedBalance","type":"uint256"},{"internalType":"uint256","name":"claimableBalance","type":"uint256"},{"internalType":"uint32","name":"activeHabitCount","type":"uint32"}],"stateMutability":"view","type":"function"},{"inputs":[{"internalType":"uint256","name":"amount","type":"uint256"}],"name":"withdraw","outputs":[],"stateMutability":"nonpayable","type":"function"}],"evm":{"assembly":"// RO data = 0/0 bytes\n// RW data = 380/66000 bytes\n// Stack size = 32768 bytes\n\n// Instructions = 15599\n// Code size = 55665 bytes\n\n      : @0 (gas: 1)\n     0: jump @14 if a0 == a1\n      : @1 (gas: 9)\n     3: a3 = a1 << 0x20\n     6: a3 = a3 >> 0x20\n     9: a4 = a0 << 0x20\n    12: a4 = a4 >> 0x20\n    15: a4 = a4 + a2\n    18: a3 = a3 - a4\n    21: a4 = a2 << 0x1\n    24: a4 = -a4\n    26: jump @7 if a4 >=u a3\n      : @2 (gas: 1)\n    29: jump @11 if a0 >=u a1\n      : @3 (gas: 1)\n    32: jump @14 if a2 == 0\n      : @4 (gas: 3)\n    35: a2 = a2 + a0\n    38: a3 = a0\n    40: fallthrough\n      : @5 (gas: 6)\n    41: a4 = u8 [a1]\n    43: a1 = a1 + 0x1\n    46: a5 = a3 + 0x1\n    49: u8 [a3] = a4\n    51: a3 = a5\n    53: jump @5 if a5 != a2\n      : @6 (gas: 1)\n    56: jump @14\n      : @7 (gas: 1)\n    58: jump @14 if a2 == 0\n      : @8 (gas: 3)\n    61: a2 = a2 + a0\n    64: a3 = a0\n    66: fallthrough\n      : @9 (gas: 6)\n    67: a4 = u8 [a1]\n    69: a1 = a1 + 0x1\n    72: a5 = a3 + 0x1\n    75: u8 [a3] = a4\n    77: a3 = a5\n    79: jump @9 if a5 != a2\n      : @10 (gas: 1)\n    82: jump @14\n      : @11 (gas: 1)\n    84: jump @14 if a2 == 0\n      : @12 (gas: 2)\n    87: i32 a3 = a2 + 0xffffffffffffffff\n    90: fallthrough\n      : @13 (gas: 7)\n    91: a4 = a1 + a3\n    94: a4 = u8 [a4]\n    96: a2 = a2 + 0xffffffffffffffff\n    99: a5 = a0 + a3\n   102: u8 [a5] = a4\n   104: i32 a3 = a3 + 0xffffffffffffffff\n   107: jump @13 if a2 != 0\n      : @14 (gas: 1)\n   110: ret\n      : @15 (gas: 7)\n   112: sp = sp + 0xffffffffffffffe8\n   115: u64 [sp + 0x10] = ra\n   118: u64 [sp + 0x8] = s0\n   121: u64 [sp] = s1\n   123: s1 = 0x20178\n   128: s0 = i32 [0x20178]\n   133: jump @18 if s0 == 0\n      : @16 (gas: 5)\n   136: a0 = 0x301b0\n   141: i32 a0 = a0 + 0\n   143: i32 a1 = s1 + 0\n   145: ecalli 7 // 'get_immutable_data'\n   147: fallthrough\n      : @17 (gas: 3)\n   148: a0 = i32 [0x20178]\n   153: u32 [0x20178] = 0\n   158: jump @19 if a0 <u s0\n      : @18 (gas: 5)\n   161: ra = u64 [sp + 0x10]\n   164: s0 = u64 [sp + 0x8]\n   167: s1 = u64 [sp]\n   169: sp = sp + 0x18\n   172: ret\n      : @19 (gas: 1)\n   174: trap\n      : @20 (gas: 2)\n   175: a1 = i32 [0x20178]\n   180: jump @70 if a1 == 0\n      : @21 (gas: 4)\n   184: a0 = 0x301b0\n   189: i32 a0 = a0 + 0\n   191: ecalli 15 // 'set_immutable_data'\n   193: jump @70\n      : @22 (gas: 8)\n   196: sp = sp + 0xfffffffffffffff0\n   199: u64 [sp + 0x8] = ra\n   202: u64 [sp] = s0\n   204: a2 = a1\n   206: s0 = a0\n   208: a1 = 0x20\n   211: a0 = a2\n   213: ra = 2, jump @37\n      : @23 [@dyn 1] (gas: 100)\n   218: a1 = u8 [a0 + 0x1]\n   221: a2 = u8 [a0]\n   223: a3 = u8 [a0 + 0x2]\n   226: a4 = u8 [a0 + 0x3]\n   229: a1 = a1 << 0x8\n   232: a1 = a1 | a2\n   235: a3 = a3 << 0x10\n   238: a4 = a4 << 0x18\n   241: a3 = a3 | a4\n   244: a1 = a1 | a3\n   247: a2 = u8 [a0 + 0x5]\n   250: a3 = u8 [a0 + 0x4]\n   253: a4 = u8 [a0 + 0x6]\n   256: a5 = u8 [a0 + 0x7]\n   259: a2 = a2 << 0x8\n   262: a2 = a2 | a3\n   265: a4 = a4 << 0x10\n   268: a5 = a5 << 0x18\n   271: a4 = a4 | a5\n   274: a2 = a2 | a4\n   277: a2 = a2 << 0x20\n   280: t0 = a2 | a1\n   283: a2 = u8 [a0 + 0x9]\n   286: a3 = u8 [a0 + 0x8]\n   289: a4 = u8 [a0 + 0xa]\n   292: a5 = u8 [a0 + 0xb]\n   295: a2 = a2 << 0x8\n   298: a2 = a2 | a3\n   301: a4 = a4 << 0x10\n   304: a5 = a5 << 0x18\n   307: a4 = a4 | a5\n   310: a2 = a2 | a4\n   313: a3 = u8 [a0 + 0xd]\n   316: a4 = u8 [a0 + 0xc]\n   319: a5 = u8 [a0 + 0xe]\n   322: a1 = u8 [a0 + 0xf]\n   325: a3 = a3 << 0x8\n   328: a3 = a3 | a4\n   331: a5 = a5 << 0x10\n   334: a1 = a1 << 0x18\n   337: a1 = a1 | a5\n   340: a1 = a1 | a3\n   343: a1 = a1 << 0x20\n   346: t1 = a1 | a2\n   349: a1 = u8 [a0 + 0x11]\n   352: a3 = u8 [a0 + 0x10]\n   355: a4 = u8 [a0 + 0x12]\n   358: a5 = u8 [a0 + 0x13]\n   361: a1 = a1 << 0x8\n   364: a1 = a1 | a3\n   367: a4 = a4 << 0x10\n   370: a5 = a5 << 0x18\n   373: a4 = a4 | a5\n   376: a1 = a1 | a4\n   379: a3 = u8 [a0 + 0x15]\n   382: a4 = u8 [a0 + 0x14]\n   385: a5 = u8 [a0 + 0x16]\n   388: a2 = u8 [a0 + 0x17]\n   391: a3 = a3 << 0x8\n   394: a3 = a3 | a4\n   397: a5 = a5 << 0x10\n   400: a2 = a2 << 0x18\n   403: a2 = a2 | a5\n   406: a2 = a2 | a3\n   409: a2 = a2 << 0x20\n   412: a3 = a2 | a1\n   415: a1 = u8 [a0 + 0x19]\n   418: a2 = u8 [a0 + 0x18]\n   421: a4 = u8 [a0 + 0x1a]\n   424: a5 = u8 [a0 + 0x1b]\n   427: a1 = a1 << 0x8\n   430: a1 = a1 | a2\n   433: a4 = a4 << 0x10\n   436: a5 = a5 << 0x18\n   439: a4 = a4 | a5\n   442: a1 = a1 | a4\n   445: a2 = u8 [a0 + 0x1d]\n   448: a4 = u8 [a0 + 0x1c]\n   451: a5 = u8 [a0 + 0x1e]\n   454: a0 = u8 [a0 + 0x1f]\n   457: a2 = a2 << 0x8\n   460: a2 = a2 | a4\n   463: a5 = a5 << 0x10\n   466: a0 = a0 << 0x18\n   469: a0 = a0 | a5\n   472: a0 = a0 | a2\n   475: a0 = a0 << 0x20\n   478: a0 = a0 | a1\n   481: a0 = reverse a0\n   483: a1 = reverse a3\n   485: a2 = reverse t1\n   487: a3 = reverse t0\n   489: u64 [s0 + 0x18] = a3\n   492: u64 [s0 + 0x10] = a2\n   495: u64 [s0 + 0x8] = a1\n   498: u64 [s0] = a0\n   500: ra = u64 [sp + 0x8]\n   503: s0 = u64 [sp]\n   505: sp = sp + 0x10\n   508: ret\n      : @24 (gas: 12)\n   510: sp = sp + 0xffffffffffffffd8\n   513: u64 [sp + 0x20] = ra\n   516: u64 [sp + 0x18] = s0\n   519: u64 [sp + 0x10] = s1\n   522: a2 = u64 [a1]\n   524: u64 [sp + 0x8] = a2\n   527: a2 = u64 [a1 + 0x8]\n   530: u64 [sp] = a2\n   532: s0 = u64 [a1 + 0x10]\n   535: s1 = u64 [a1 + 0x18]\n   538: a1 = 0x20\n   541: ra = 4, jump @37\n      : @25 [@dyn 2] (gas: 71)\n   546: a1 = reverse s1\n   548: a2 = reverse s0\n   550: a3 = u64 [sp]\n   552: a3 = reverse a3\n   554: a4 = u64 [sp + 0x8]\n   557: a4 = reverse a4\n   559: u8 [a0 + 0x18] = a4\n   562: u8 [a0 + 0x10] = a3\n   565: u8 [a0 + 0x8] = a2\n   568: u8 [a0] = a1\n   570: a5 = a4 >> 0x38\n   573: u8 [a0 + 0x1f] = a5\n   576: a5 = a4 >> 0x30\n   579: u8 [a0 + 0x1e] = a5\n   582: a5 = a4 >> 0x28\n   585: u8 [a0 + 0x1d] = a5\n   588: a5 = a4 >> 0x20\n   591: u8 [a0 + 0x1c] = a5\n   594: a5 = a4 >> 0x18\n   597: u8 [a0 + 0x1b] = a5\n   600: a5 = a4 >> 0x10\n   603: u8 [a0 + 0x1a] = a5\n   606: a4 = a4 >> 0x8\n   609: u8 [a0 + 0x19] = a4\n   612: a4 = a3 >> 0x38\n   615: u8 [a0 + 0x17] = a4\n   618: a4 = a3 >> 0x30\n   621: u8 [a0 + 0x16] = a4\n   624: a4 = a3 >> 0x28\n   627: u8 [a0 + 0x15] = a4\n   630: a4 = a3 >> 0x20\n   633: u8 [a0 + 0x14] = a4\n   636: a4 = a3 >> 0x18\n   639: u8 [a0 + 0x13] = a4\n   642: a4 = a3 >> 0x10\n   645: u8 [a0 + 0x12] = a4\n   648: a3 = a3 >> 0x8\n   651: u8 [a0 + 0x11] = a3\n   654: a3 = a2 >> 0x38\n   657: u8 [a0 + 0xf] = a3\n   660: a3 = a2 >> 0x30\n   663: u8 [a0 + 0xe] = a3\n   666: a3 = a2 >> 0x28\n   669: u8 [a0 + 0xd] = a3\n   672: a3 = a2 >> 0x20\n   675: u8 [a0 + 0xc] = a3\n   678: a3 = a2 >> 0x18\n   681: u8 [a0 + 0xb] = a3\n   684: a3 = a2 >> 0x10\n   687: u8 [a0 + 0xa] = a3\n   690: a2 = a2 >> 0x8\n   693: u8 [a0 + 0x9] = a2\n   696: a2 = a1 >> 0x38\n   699: u8 [a0 + 0x7] = a2\n   702: a2 = a1 >> 0x30\n   705: u8 [a0 + 0x6] = a2\n   708: a2 = a1 >> 0x28\n   711: u8 [a0 + 0x5] = a2\n   714: a2 = a1 >> 0x20\n   717: u8 [a0 + 0x4] = a2\n   720: a2 = a1 >> 0x18\n   723: u8 [a0 + 0x3] = a2\n   726: a2 = a1 >> 0x10\n   729: u8 [a0 + 0x2] = a2\n   732: a1 = a1 >> 0x8\n   735: u8 [a0 + 0x1] = a1\n   738: ra = u64 [sp + 0x20]\n   741: s0 = u64 [sp + 0x18]\n   744: s1 = u64 [sp + 0x10]\n   747: sp = sp + 0x28\n   750: ret\n      : @26 (gas: 43)\n   752: sp = sp + 0xffffffffffffffa0\n   755: u64 [sp + 0x58] = ra\n   758: u64 [sp + 0x50] = s0\n   761: u64 [sp + 0x48] = s1\n   764: s0 = sp + 0x60\n   767: sp = sp & 0xffffffffffffffe0\n   770: s1 = a0\n   772: a0 = u64 [a1 + 0x18]\n   775: a2 = u64 [a1 + 0x10]\n   778: a3 = u64 [a1 + 0x8]\n   781: a1 = u64 [a1]\n   783: a0 = reverse a0\n   785: a2 = reverse a2\n   787: a3 = reverse a3\n   789: a1 = reverse a1\n   791: u64 [sp + 0x18] = a1\n   794: u64 [sp + 0x10] = a3\n   797: u64 [sp + 0x8] = a2\n   800: u64 [sp] = a0\n   802: u64 [sp + 56] = 0\n   805: u64 [sp + 48] = 0\n   808: u64 [sp + 40] = 0\n   811: u64 [sp + 32] = 0\n   814: u32 [sp + 64] = 0x20\n   818: i32 a1 = sp + 0\n   820: i32 a3 = sp + 0x20\n   823: i32 a4 = sp + 0x40\n   826: a2 = 0xffffffffffffffff\n   829: a0 = 0\n   831: ecalli 8 // 'get_storage'\n   833: a0 = u64 [sp + 0x38]\n   836: a1 = u64 [sp + 0x30]\n   839: a2 = u64 [sp + 0x28]\n   842: a3 = u64 [sp + 0x20]\n   845: a0 = reverse a0\n   847: a1 = reverse a1\n   849: a2 = reverse a2\n   851: a3 = reverse a3\n   853: u64 [s1 + 0x18] = a3\n   856: u64 [s1 + 0x10] = a2\n   859: u64 [s1 + 0x8] = a1\n   862: u64 [s1] = a0\n   864: t0 = 6, jump @2084\n      : @27 [@dyn 3] (gas: 1)\n   870: ret\n      : @28 (gas: 40)\n   872: sp = sp + 0xffffffffffffffa0\n   875: u64 [sp + 0x58] = ra\n   878: u64 [sp + 0x50] = s0\n   881: s0 = sp + 0x60\n   884: sp = sp & 0xffffffffffffffe0\n   887: t0 = u64 [a0]\n   889: a3 = u64 [a0 + 0x8]\n   892: a4 = u64 [a0 + 0x10]\n   895: a0 = u64 [a0 + 0x18]\n   898: t1 = u64 [a1]\n   900: a2 = u64 [a1 + 0x8]\n   903: a5 = u64 [a1 + 0x10]\n   906: a1 = u64 [a1 + 0x18]\n   909: t2 = reverse a0\n   911: a4 = reverse a4\n   913: a3 = reverse a3\n   915: a0 = reverse t0\n   917: t0 = reverse a1\n   919: a5 = reverse a5\n   921: a2 = reverse a2\n   923: a1 = reverse t1\n   925: u64 [sp + 0x18] = a0\n   928: u64 [sp + 0x10] = a3\n   931: u64 [sp + 0x8] = a4\n   934: u64 [sp] = t2\n   936: u64 [sp + 0x38] = a1\n   939: u64 [sp + 0x30] = a2\n   942: u64 [sp + 0x28] = a5\n   945: u64 [sp + 0x20] = t0\n   948: i32 a1 = sp + 0\n   950: i32 a3 = sp + 0x20\n   953: a2 = 0xffffffffffffffff\n   956: a4 = 0x20\n   959: a0 = 0\n   961: ecalli 16 // 'set_storage'\n   963: sp = s0 + 0xffffffffffffffa0\n   966: ra = u64 [sp + 0x58]\n   969: s0 = u64 [sp + 0x50]\n   972: sp = sp + 0x60\n   975: ret\n      : @29 (gas: 24)\n   977: sp = sp + 0xffffffffffffff60\n   981: u64 [sp + 0x98] = ra\n   985: u64 [sp + 0x90] = s0\n   989: u64 [sp + 0x88] = s1\n   993: s0 = sp + 0xa0\n   997: sp = sp & 0xffffffffffffffe0\n  1000: a4 = u64 [a3]\n  1002: u64 [sp + 0x38] = a4\n  1005: a4 = u64 [a3 + 0x8]\n  1008: u64 [sp + 0x30] = a4\n  1011: a4 = u64 [a3 + 0x10]\n  1014: u64 [sp + 0x28] = a4\n  1017: a3 = u64 [a3 + 0x18]\n  1020: u64 [sp + 0x20] = a3\n  1023: a3 = u64 [a2]\n  1025: u64 [sp + 0x18] = a3\n  1028: a3 = u64 [a2 + 0x8]\n  1031: u64 [sp + 0x10] = a3\n  1034: a3 = u64 [a2 + 0x10]\n  1037: u64 [sp + 0x8] = a3\n  1040: a2 = u64 [a2 + 0x18]\n  1043: u64 [sp] = a2\n  1045: s1 = a1\n  1047: ra = 8, jump @37\n      : @30 [@dyn 4] (gas: 35)\n  1052: a1 = u64 [sp]\n  1054: a1 = reverse a1\n  1056: a2 = u64 [sp + 0x8]\n  1059: a2 = reverse a2\n  1061: a3 = u64 [sp + 0x10]\n  1064: a3 = reverse a3\n  1066: a4 = u64 [sp + 0x18]\n  1069: a4 = reverse a4\n  1071: u64 [sp + 0x58] = a4\n  1074: u64 [sp + 0x50] = a3\n  1077: u64 [sp + 0x48] = a2\n  1080: u64 [sp + 0x40] = a1\n  1083: a1 = u64 [sp + 0x20]\n  1086: a1 = reverse a1\n  1088: a2 = u64 [sp + 0x28]\n  1091: a2 = reverse a2\n  1093: a3 = u64 [sp + 0x30]\n  1096: a3 = reverse a3\n  1098: a4 = u64 [sp + 0x38]\n  1101: a4 = reverse a4\n  1103: u64 [sp + 0x78] = a4\n  1106: u64 [sp + 0x70] = a3\n  1109: u64 [sp + 0x68] = a2\n  1112: u64 [sp + 0x60] = a1\n  1115: i32 a2 = a0 + 0\n  1117: i32 a3 = s1 + 0\n  1119: i32 a0 = sp + 0x40\n  1122: a1 = 0x2\n  1125: ecalli 6 // 'deposit_event'\n  1127: sp = s0 + 0xffffffffffffff60\n  1131: ra = u64 [sp + 0x98]\n  1135: s0 = u64 [sp + 0x90]\n  1139: s1 = u64 [sp + 0x88]\n  1143: sp = sp + 0xa0\n  1147: ret\n      : @31 (gas: 15)\n  1149: sp = sp + 0xffffffffffffff20\n  1153: u64 [sp + 0xd8] = ra\n  1157: u64 [sp + 0xd0] = s0\n  1161: u64 [sp + 0xc8] = s1\n  1165: s0 = sp + 0xe0\n  1169: sp = sp & 0xffffffffffffffe0\n  1172: a5 = u64 [a4]\n  1174: u64 [sp + 0x40] = a5\n  1177: a5 = u64 [a4 + 0x8]\n  1180: u64 [sp + 0x48] = a5\n  1183: a5 = u64 [a4 + 0x10]\n  1186: u64 [sp + 0x50] = a5\n  1189: a4 = u64 [a4 + 0x18]\n  1192: u64 [sp + 0x58] = a4\n  1195: t0 = 10, jump @2047\n      : @32 [@dyn 5] (gas: 2)\n  1201: u64 [sp + 0x38] = a1\n  1204: ra = 12, jump @37\n      : @33 [@dyn 6] (gas: 46)\n  1209: a1 = reverse s1\n  1211: u64 [sp + 0x78] = a1\n  1214: a1 = u64 [sp]\n  1216: a1 = reverse a1\n  1218: u64 [sp + 0x70] = a1\n  1221: a1 = u64 [sp + 0x8]\n  1224: a1 = reverse a1\n  1226: u64 [sp + 0x68] = a1\n  1229: a1 = u64 [sp + 0x10]\n  1232: a1 = reverse a1\n  1234: u64 [sp + 0x60] = a1\n  1237: a1 = u64 [sp + 0x18]\n  1240: a1 = reverse a1\n  1242: u64 [sp + 0x98] = a1\n  1246: a1 = u64 [sp + 0x20]\n  1249: a1 = reverse a1\n  1251: u64 [sp + 0x90] = a1\n  1255: a1 = u64 [sp + 0x28]\n  1258: a1 = reverse a1\n  1260: u64 [sp + 0x88] = a1\n  1264: a1 = u64 [sp + 0x30]\n  1267: a1 = reverse a1\n  1269: u64 [sp + 0x80] = a1\n  1273: a1 = u64 [sp + 0x40]\n  1276: a1 = reverse a1\n  1278: u64 [sp + 0xb8] = a1\n  1282: a1 = u64 [sp + 0x48]\n  1285: a1 = reverse a1\n  1287: u64 [sp + 0xb0] = a1\n  1291: a1 = u64 [sp + 0x50]\n  1294: a1 = reverse a1\n  1296: u64 [sp + 0xa8] = a1\n  1300: a1 = u64 [sp + 0x58]\n  1303: a1 = reverse a1\n  1305: u64 [sp + 0xa0] = a1\n  1309: i32 a2 = a0 + 0\n  1311: a3 = i32 [sp + 0x38]\n  1314: i32 a0 = sp + 0x60\n  1317: a1 = 0x3\n  1320: ecalli 6 // 'deposit_event'\n  1322: sp = s0 + 0xffffffffffffff20\n  1326: ra = u64 [sp + 0xd8]\n  1330: s0 = u64 [sp + 0xd0]\n  1334: s1 = u64 [sp + 0xc8]\n  1338: sp = sp + 0xe0\n  1342: ret\n      : @34 (gas: 23)\n  1344: sp = sp + 0xfffffffffffffee0\n  1348: u64 [sp + 0x118] = ra\n  1352: u64 [sp + 0x110] = s0\n  1356: u64 [sp + 0x108] = s1\n  1360: s0 = sp + 0x120\n  1364: sp = sp & 0xffffffffffffffe0\n  1367: s1 = u64 [a5]\n  1369: u64 [sp + 0x60] = s1\n  1372: s1 = u64 [a5 + 0x8]\n  1375: u64 [sp + 0x68] = s1\n  1378: s1 = u64 [a5 + 0x10]\n  1381: u64 [sp + 0x70] = s1\n  1384: a5 = u64 [a5 + 0x18]\n  1387: u64 [sp + 0x78] = a5\n  1390: a5 = u64 [a4]\n  1392: u64 [sp + 0x38] = a5\n  1395: a5 = u64 [a4 + 0x8]\n  1398: u64 [sp + 0x40] = a5\n  1401: a5 = u64 [a4 + 0x10]\n  1404: u64 [sp + 0x48] = a5\n  1407: a4 = u64 [a4 + 0x18]\n  1410: u64 [sp + 0x50] = a4\n  1413: t0 = 14, jump @2047\n      : @35 [@dyn 7] (gas: 2)\n  1419: u64 [sp + 0x58] = a1\n  1422: ra = 16, jump @37\n      : @36 [@dyn 8] (gas: 58)\n  1427: a1 = reverse s1\n  1429: u64 [sp + 0x98] = a1\n  1433: a1 = u64 [sp]\n  1435: a1 = reverse a1\n  1437: u64 [sp + 0x90] = a1\n  1441: a1 = u64 [sp + 0x8]\n  1444: a1 = reverse a1\n  1446: u64 [sp + 0x88] = a1\n  1450: a1 = u64 [sp + 0x10]\n  1453: a1 = reverse a1\n  1455: u64 [sp + 0x80] = a1\n  1459: a1 = u64 [sp + 0x18]\n  1462: a1 = reverse a1\n  1464: u64 [sp + 0xb8] = a1\n  1468: a1 = u64 [sp + 0x20]\n  1471: a1 = reverse a1\n  1473: u64 [sp + 0xb0] = a1\n  1477: a1 = u64 [sp + 0x28]\n  1480: a1 = reverse a1\n  1482: u64 [sp + 0xa8] = a1\n  1486: a1 = u64 [sp + 0x30]\n  1489: a1 = reverse a1\n  1491: u64 [sp + 0xa0] = a1\n  1495: a1 = u64 [sp + 0x38]\n  1498: a1 = reverse a1\n  1500: u64 [sp + 0xd8] = a1\n  1504: a1 = u64 [sp + 0x40]\n  1507: a1 = reverse a1\n  1509: u64 [sp + 0xd0] = a1\n  1513: a1 = u64 [sp + 0x48]\n  1516: a1 = reverse a1\n  1518: u64 [sp + 0xc8] = a1\n  1522: a1 = u64 [sp + 0x50]\n  1525: a1 = reverse a1\n  1527: u64 [sp + 0xc0] = a1\n  1531: a1 = u64 [sp + 0x60]\n  1534: a1 = reverse a1\n  1536: u64 [sp + 0xf8] = a1\n  1540: a1 = u64 [sp + 0x68]\n  1543: a1 = reverse a1\n  1545: u64 [sp + 0xf0] = a1\n  1549: a1 = u64 [sp + 0x70]\n  1552: a1 = reverse a1\n  1554: u64 [sp + 0xe8] = a1\n  1558: a1 = u64 [sp + 0x78]\n  1561: a1 = reverse a1\n  1563: u64 [sp + 0xe0] = a1\n  1567: i32 a2 = a0 + 0\n  1569: a3 = i32 [sp + 0x58]\n  1572: i32 a0 = sp + 0x80\n  1576: a1 = 0x4\n  1579: ecalli 6 // 'deposit_event'\n  1581: sp = s0 + 0xfffffffffffffee0\n  1585: ra = u64 [sp + 0x118]\n  1589: s0 = u64 [sp + 0x110]\n  1593: s1 = u64 [sp + 0x108]\n  1597: sp = sp + 0x120\n  1601: ret\n      : @37 (gas: 2)\n  1603: i32 a2 = a0 >> 0x10\n  1606: jump @42 if a2 != 0\n      : @38 (gas: 4)\n  1609: a1 = a1 + a0\n  1612: i32 a1 = a1 + 0x1f\n  1615: a1 = a1 & 0xffffffffffffffe0\n  1618: jump @42 if a1 >u 65536\n      : @39 (gas: 3)\n  1624: a2 = 0x20180\n  1629: a3 = i32 [0x20180]\n  1634: jump @41 if a3 >=u a1\n      : @40 (gas: 2)\n  1637: u32 [0x20180] = a1\n  1642: fallthrough\n      : @41 (gas: 4)\n  1643: a1 = 0x20190\n  1648: i32 a0 = a0 + 0\n  1650: a0 = a0 + a1\n  1653: ret\n      : @42 (gas: 1)\n  1655: trap\n      : @43 (gas: 6)\n  1656: sp = sp + 0xfffffffffffffff0\n  1659: u64 [sp + 0x8] = ra\n  1662: u64 [sp] = s0\n  1664: s0 = a0 & 0x1\n  1667: ecalli 4 // 'call_data_size'\n  1669: fallthrough\n      : @44 (gas: 2)\n  1670: u32 [0x2017c] = a0\n  1675: jump @46 if s0 == 0\n      : @45 (gas: 1)\n  1678: ra = 18, jump @47\n      : @46 [@dyn 9] (gas: 1)\n  1682: ra = 20, jump @73\n      : @47 [@dyn 10] (gas: 13)\n  1687: sp = sp + 0xffffffffffffff00\n  1691: u64 [sp + 0xf8] = ra\n  1695: u64 [sp + 0xf0] = s0\n  1699: u64 [sp + 0xe8] = s1\n  1703: s0 = sp + 0x100\n  1707: sp = sp & 0xffffffffffffffe0\n  1710: u64 [sp + 216] = 0\n  1714: u64 [sp + 208] = 0\n  1718: u64 [sp + 200] = 0\n  1722: u64 [sp + 192] = 0\n  1726: i32 a0 = sp + 0xc0\n  1730: ecalli 17 // 'value_transferred'\n  1732: fallthrough\n      : @48 (gas: 8)\n  1733: a0 = u64 [sp + 0xd0]\n  1737: a1 = u64 [sp + 0xd8]\n  1741: a2 = u64 [sp + 0xc8]\n  1745: a3 = u64 [sp + 0xc0]\n  1749: a1 = a1 | a2\n  1752: a0 = a0 | a3\n  1755: a0 = a0 | a1\n  1758: jump @60 if a0 != 0\n      : @49 (gas: 15)\n  1762: s1 = i32 [0x2017c]\n  1767: a0 = s1 << 0x20\n  1770: a0 = a0 >> 0x20\n  1773: a0 = a0 + 0x1f\n  1776: a0 = a0 & 0xffffffffffffffe0\n  1779: a1 = a0 + 0xa0\n  1783: a0 = a1 <u a0\n  1786: u64 [sp + 0xa0] = a1\n  1790: u64 [sp + 0xa8] = a0\n  1794: a0 = 0 if a0 != 0\n  1796: u64 [sp + 0xb0] = a0\n  1800: a0 = 0x40\n  1803: a1 = sp + 0xa0\n  1807: u64 [sp + 184] = 0\n  1811: ra = 22, jump @24\n      : @50 [@dyn 11] (gas: 3)\n  1816: a0 = 0xa0\n  1820: a1 = s1\n  1822: ra = 24, jump @37\n      : @51 [@dyn 12] (gas: 5)\n  1827: i32 a0 = a0 + 0\n  1829: a1 = s1\n  1831: a2 = 0\n  1833: ecalli 2 // 'call_data_copy'\n  1835: fallthrough\n      : @52 (gas: 1)\n  1836: jump @61 if s1 <=u 31\n      : @53 (gas: 3)\n  1841: a0 = sp + 0x80\n  1845: a1 = 0xa0\n  1849: ra = 26, jump @22\n      : @54 [@dyn 13] (gas: 10)\n  1854: a0 = u64 [sp + 0x90]\n  1858: a2 = u64 [sp + 0x98]\n  1862: a1 = 0x100000000\n  1872: a1 = a1 ^ a0\n  1875: a1 = a1 | a2\n  1878: a3 = a0 >> 0x20\n  1881: a3 = a3 <u 0x1\n  1884: a3 = 0 if a2 != 0\n  1886: a3 = 0 if a1 == 0\n  1888: jump @62 if a3 == 0\n      : @55 (gas: 6)\n  1891: a1 = u64 [sp + 0x80]\n  1895: a3 = u64 [sp + 0x88]\n  1899: a4 = a1 | a0\n  1902: a5 = a3 | a2\n  1905: a4 = a4 | a5\n  1908: jump @63 if a4 == 0\n      : @56 (gas: 7)\n  1911: u64 [sp + 0x60] = a1\n  1914: u64 [sp + 0x68] = a3\n  1917: u64 [sp + 0x70] = a0\n  1920: a0 = 0x80\n  1924: a1 = sp + 0x60\n  1927: u64 [sp + 0x78] = a2\n  1930: ra = 28, jump @24\n      : @57 [@dyn 14] (gas: 3)\n  1935: a0 = sp + 0x40\n  1938: a1 = 0x40\n  1941: ra = 30, jump @22\n      : @58 [@dyn 15] (gas: 12)\n  1946: a0 = u64 [sp + 0x58]\n  1949: a1 = u64 [sp + 0x50]\n  1952: a2 = u64 [sp + 0x48]\n  1955: s1 = u64 [sp + 0x40]\n  1958: a0 = a0 | a2\n  1961: a2 = s1 | a1\n  1964: a2 = a2 | a0\n  1967: a2 = a2 >> 0x20\n  1970: a0 = a0 | a1\n  1973: a0 = a0 << 0x20\n  1976: a0 = a0 | a2\n  1979: jump @67 if a0 == 0\n      : @59 (gas: 1)\n  1982: trap\n      : @60 (gas: 4)\n  1983: a1 = 0x20190\n  1988: i32 a1 = a1 + 0\n  1990: a0 = 0x1\n  1993: jump @72\n      : @61 (gas: 4)\n  1996: a1 = 0x20190\n  2001: i32 a1 = a1 + 0\n  2003: a0 = 0x1\n  2006: jump @72\n      : @62 (gas: 4)\n  2009: a1 = 0x20190\n  2014: i32 a1 = a1 + 0\n  2016: a0 = 0x1\n  2019: jump @72\n      : @63 (gas: 8)\n  2022: u64 [sp + 16] = 0\n  2025: u64 [sp + 8] = 0\n  2028: u64 [sp + 0] = 0\n  2030: a0 = 0x14bcf5c800000000\n  2040: a1 = sp\n  2042: u64 [sp + 0x18] = a0\n  2045: a0 = 0\n  2047: ra = 32, jump @24\n      : @64 [@dyn 16] (gas: 2)\n  2052: a1 = i32 [0x20180]\n  2057: jump @66 if a1 >u 31\n      : @65 (gas: 2)\n  2061: u32 [0x20180] = 0x20\n  2067: fallthrough\n      : @66 (gas: 6)\n  2068: a1 = 0x20190\n  2073: i32 a1 = a1 + 0\n  2075: a0 = 0x1\n  2078: a2 = 0x4\n  2081: ecalli 14 // 'seal_return'\n  2083: fallthrough\n      : @67 (gas: 3)\n  2084: a0 = s1\n  2086: a1 = 0\n  2088: ra = 34, jump @37\n      : @68 [@dyn 17] (gas: 7)\n  2093: i32 a0 = a0 + 0\n  2095: a1 = 0\n  2097: a2 = 0\n  2099: ecalli 2 // 'call_data_copy'\n  2101: a0 = sp + 0x20\n  2104: a1 = 0x80\n  2108: ra = 36, jump @22\n      : @69 [@dyn 18] (gas: 9)\n  2113: a0 = u64 [sp + 0x38]\n  2116: a2 = u64 [sp + 0x30]\n  2119: a3 = u64 [sp + 0x28]\n  2122: a4 = u64 [sp + 0x20]\n  2125: u64 [0x301c8] = a0\n  2130: u64 [0x301c0] = a2\n  2135: u64 [0x301b8] = a3\n  2140: u64 [0x301b0] = a4\n  2145: jump @20\n      : @70 (gas: 3)\n  2148: a0 = s1\n  2150: a1 = 0\n  2152: ra = 38, jump @37\n      : @71 [@dyn 19] (gas: 6)\n  2157: i32 a1 = a0 + 0\n  2159: a0 = 0\n  2161: a2 = 0\n  2163: ra = 0x28\n  2166: ecalli 14 // 'seal_return'\n  2168: jump @73\n      : @72 (gas: 4)\n  2170: a2 = 0\n  2172: ra = 0x28\n  2175: ecalli 14 // 'seal_return'\n  2177: fallthrough\n      : @73 [@dyn 20] (gas: 16)\n  2178: sp = sp + 0xfffffffffffffe10\n  2182: u64 [sp + 0x1e8] = ra\n  2186: u64 [sp + 0x1e0] = s0\n  2190: u64 [sp + 0x1d8] = s1\n  2194: s0 = sp + 0x1f0\n  2198: sp = sp + 0xffffffffffffc090\n  2202: sp = sp & 0xffffffffffffffe0\n  2205: s1 = sp\n  2207: a2 = s1 + 0x3198\n  2211: u64 [a2 + 1248] = 0\n  2215: u64 [a2 + 1240] = 0\n  2219: u64 [a2 + 1224] = 0x80\n  2225: a0 = 0x40\n  2228: a1 = s1 + 0x3660\n  2232: u64 [a2 + 1232] = 0\n  2236: ra = 42, jump @24\n      : @74 [@dyn 21] (gas: 4)\n  2241: a0 = 0x2017c\n  2246: u64 [s1 + 0x1b8] = a0\n  2250: a0 = i32 [0x2017c]\n  2255: jump @76 if a0 >=u 4\n      : @75 (gas: 1)\n  2259: jump @1327\n      : @76 (gas: 6)\n  2262: a0 = s1 + 0x3000\n  2266: i32 a0 = a0 + 0x680\n  2270: a1 = 0\n  2272: ra = 0x2c\n  2275: ecalli 3 // 'call_data_load'\n  2277: fallthrough\n      : @77 [@dyn 22] (gas: 3)\n  2278: a2 = s1 + 0x3198\n  2282: a0 = i32 [a2 + 0x504]\n  2286: jump @79 if a0 != 2293374087\n      : @78 (gas: 1)\n  2293: jump @806\n      : @79 (gas: 1)\n  2296: jump @81 if a0 != 2401489772\n      : @80 (gas: 1)\n  2303: jump @705\n      : @81 (gas: 1)\n  2306: jump @83 if a0 != 2573362740\n      : @82 (gas: 1)\n  2313: jump @502\n      : @83 (gas: 1)\n  2316: jump @125 if a0 == 3062082785\n      : @84 (gas: 1)\n  2324: jump @86 if a0 != 3135182381\n      : @85 (gas: 1)\n  2331: jump @424\n      : @86 (gas: 1)\n  2334: jump @173 if a0 == 3504541104\n      : @87 (gas: 1)\n  2342: jump @89 if a0 != 3738232760\n      : @88 (gas: 1)\n  2349: jump @623\n      : @89 (gas: 1)\n  2352: jump @91 if a0 != 4008029008\n      : @90 (gas: 1)\n  2359: jump @261\n      : @91 (gas: 1)\n  2362: jump @203 if a0 == 4284228600\n      : @92 (gas: 1)\n  2370: jump @94 if a0 != 248271711\n      : @93 (gas: 1)\n  2377: jump @740\n      : @94 (gas: 1)\n  2380: jump @96 if a0 != 573237126\n      : @95 (gas: 1)\n  2387: jump @337\n      : @96 (gas: 1)\n  2390: jump @98 if a0 != 723922879\n      : @97 (gas: 1)\n  2397: jump @780\n      : @98 (gas: 1)\n  2400: jump @100 if a0 != 773487949\n      : @99 (gas: 1)\n  2407: jump @449\n      : @100 (gas: 1)\n  2410: jump @102 if a0 != 932579317\n      : @101 (gas: 1)\n  2417: jump @665\n      : @102 (gas: 1)\n  2420: jump @104 if a0 != 1097525096\n      : @103 (gas: 1)\n  2427: jump @552\n      : @104 (gas: 1)\n  2430: jump @237 if a0 == 1221342904\n      : @105 (gas: 1)\n  2438: jump @107 if a0 != 1251080110\n      : @106 (gas: 1)\n  2445: jump @437\n      : @107 (gas: 1)\n  2448: jump @109 if a0 != 1270513279\n      : @108 (gas: 1)\n  2455: jump @365\n      : @109 (gas: 1)\n  2458: jump @111 if a0 == 1641031603\n      : @110 (gas: 1)\n  2465: jump @488\n      : @111 (gas: 11)\n  2468: a0 = s1 + 0x3998\n  2472: u64 [a0 + 608] = 0\n  2476: u64 [a0 + 600] = 0\n  2480: u64 [a0 + 592] = 0\n  2484: u64 [a0 + 584] = 0\n  2488: a0 = s1 + 0x4000\n  2492: i32 a0 = a0 + 0xfffffffffffffbe0\n  2496: ra = 0x2e\n  2499: ecalli 17 // 'value_transferred'\n  2501: t0 = 0x30\n  2504: jump @2059\n      : @112 [@dyn 23] (gas: 1)\n  2508: t0 = 48, jump @2059\n      : @113 [@dyn 24] (gas: 1)\n  2514: t0 = 50, jump @2088\n      : @114 [@dyn 25] (gas: 1)\n  2520: jump @116 if a0 == 0\n      : @115 (gas: 1)\n  2523: jump @1135\n      : @116 (gas: 3)\n  2526: a0 = u64 [s1 + 0x1b8]\n  2530: a0 = i32 [a0]\n  2532: jump @118 if a0 >u 3\n      : @117 (gas: 1)\n  2536: jump @1136\n      : @118 (gas: 3)\n  2539: a0 = s1 + 0x1760\n  2543: a1 = 0x40\n  2546: ra = 52, jump @22\n      : @119 [@dyn 26] (gas: 11)\n  2551: a0 = s1 + 0x1158\n  2555: a2 = a0 + 0x600\n  2559: a1 = u64 [a2 + 0x20]\n  2562: u64 [s1 + 0x1b8] = a1\n  2566: a1 = u64 [a2 + 0x18]\n  2569: u64 [s1 + 0x1b0] = a1\n  2573: a1 = u64 [a2 + 0x10]\n  2576: u64 [s1 + 0x1a0] = a1\n  2580: a0 = u64 [a2 + 0x8]\n  2583: u64 [s1 + 0x1a8] = a0\n  2587: ra = 54, jump @15\n      : @120 [@dyn 27] (gas: 8)\n  2592: a4 = s1 + 0x100\n  2596: a0 = u64 [a4 + 0xb8]\n  2600: a1 = u64 [a4 + 0xa0]\n  2604: a0 = a0 | a1\n  2607: a1 = u64 [a4 + 0xa8]\n  2611: a3 = a1\n  2613: a2 = u64 [a4 + 0xb0]\n  2617: t0 = 56, jump @2050\n      : @121 [@dyn 28] (gas: 1)\n  2623: jump @123 if a0 == 0\n      : @122 (gas: 1)\n  2626: jump @1050\n      : @123 (gas: 12)\n  2629: a2 = u64 [0x301b0]\n  2634: a1 = u64 [0x301b8]\n  2639: a0 = u32 [0x301c0]\n  2644: a4 = s1 + 0x1158\n  2648: u64 [a4 + 1536] = 0\n  2652: a5 = a4 + 0x500\n  2656: u64 [a5 + 0xf8] = a0\n  2660: u64 [a5 + 0xf0] = a1\n  2664: a1 = s1 + 0x1740\n  2668: u64 [a5 + 0xe8] = a2\n  2672: a0 = a3\n  2674: ra = 58, jump @24\n      : @124 [@dyn 29] (gas: 4)\n  2679: a1 = 0x20\n  2682: a0 = u64 [s1 + 0x1a8]\n  2686: ra = 0x50c\n  2690: jump @37\n      : @125 (gas: 10)\n  2693: a0 = s1 + 0x3998\n  2697: u64 [a0 + 1184] = 0\n  2701: u64 [a0 + 1176] = 0\n  2705: u64 [a0 + 1168] = 0\n  2709: u64 [a0 + 1160] = 0\n  2713: a0 = s1 + 0x4000\n  2717: i32 a0 = a0 + 0xfffffffffffffe20\n  2721: ra = 0x3c\n  2724: ecalli 17 // 'value_transferred'\n  2726: fallthrough\n      : @126 [@dyn 30] (gas: 3)\n  2727: a3 = s1 + 0x3998\n  2731: a4 = a3 + 0x400\n  2735: t0 = 62, jump @2086\n      : @127 [@dyn 31] (gas: 1)\n  2741: jump @129 if a0 == 0\n      : @128 (gas: 1)\n  2744: jump @1137\n      : @129 (gas: 1)\n  2747: t0 = 64, jump @2045\n      : @130 [@dyn 32] (gas: 1)\n  2753: jump @132 if a1 <u a0\n      : @131 (gas: 1)\n  2756: jump @1138\n      : @132 (gas: 5)\n  2759: a0 = s1 + 0x4000\n  2763: i32 a0 = a0 + 0xfffffffffffffe40\n  2767: a1 = 0x4\n  2770: ecalli 3 // 'call_data_load'\n  2772: fallthrough\n      : @133 (gas: 9)\n  2773: a3 = s1 + 0x3998\n  2777: a0 = a3 + 0x400\n  2781: a1 = u64 [a0 + 0xc0]\n  2785: a2 = u64 [a0 + 0xb8]\n  2789: a4 = u64 [a0 + 0xb0]\n  2793: a5 = a2 | a1\n  2796: a0 = a4 <u 0x1\n  2799: a0 = 0 if a5 != 0\n  2801: jump @135 if a0 != 0\n      : @134 (gas: 1)\n  2804: jump @1139\n      : @135 (gas: 20)\n  2807: u64 [s1 + 0xb8] = a5\n  2811: a5 = u64 [a3 + 0x4a8]\n  2815: a0 = u64 [s1 + 0x1b8]\n  2819: t0 = u32 [a0]\n  2821: a0 = a5 + 0x23\n  2824: a3 = a0 <u a5\n  2827: t1 = a4 + a3\n  2830: u64 [s1 + 0xf0] = a4\n  2834: a4 = t1 <u a4\n  2837: a4 = a3 if a3 == 0\n  2840: a4 = a4 + a2\n  2843: u64 [s1 + 0x1a0] = a2\n  2847: a2 = a4 <u a2\n  2850: u64 [s1 + 0x1a8] = a1\n  2854: a2 = a2 + a1\n  2857: a2 = a2 | a4\n  2860: a0 = a0 <u t0\n  2863: a0 = 0 if t1 != 0\n  2865: a0 = 0 if a2 != 0\n  2867: jump @137 if a0 != 0\n      : @136 (gas: 1)\n  2870: jump @1140\n      : @137 (gas: 6)\n  2873: i32 a1 = a5 + 0x4\n  2876: a0 = s1 + 0x4000\n  2880: i32 a0 = a0 + 0xfffffffffffffe60\n  2884: u64 [s1 + 0xe8] = a5\n  2888: ecalli 3 // 'call_data_load'\n  2890: fallthrough\n      : @138 (gas: 10)\n  2891: a3 = s1 + 0x3998\n  2895: t0 = u64 [a3 + 0x4e0]\n  2899: a0 = u64 [a3 + 0x4d8]\n  2903: a2 = u64 [a3 + 0x4d0]\n  2907: u64 [s1 + 0x108] = a0\n  2911: a0 = a0 | t0\n  2914: a1 = a2 <u 0x1\n  2917: u64 [s1 + 0x1b0] = a0\n  2921: a1 = 0 if a0 != 0\n  2923: jump @140 if a1 != 0\n      : @139 (gas: 1)\n  2926: jump @1141\n      : @140 (gas: 42)\n  2929: t2 = u64 [a3 + 0x4c8]\n  2933: a1 = u64 [s1 + 0xe8]\n  2937: a0 = a1 + 0x24\n  2940: a3 = a0 <u a1\n  2943: ra = u64 [s1 + 0xf0]\n  2947: a4 = ra + a3\n  2950: t1 = a0 + t2\n  2953: u64 [s1 + 0x140] = a0\n  2957: a5 = t1 <u a0\n  2960: a1 = a4 + a2\n  2963: a1 = a1 + a5\n  2966: a0 = a1 ^ a4\n  2969: u64 [s1 + 0x100] = a2\n  2973: a2 = a1 <u a4\n  2976: a2 = a5 if a0 == 0\n  2979: a0 = a4 <u ra\n  2982: a0 = a3 if a3 == 0\n  2985: a3 = u64 [s1 + 0x1a0]\n  2989: a0 = a0 + a3\n  2992: a3 = a0 <u a3\n  2995: a4 = u64 [s1 + 0x1a8]\n  2999: a4 = a4 + t0\n  3002: a3 = a3 + a4\n  3005: a5 = u64 [s1 + 0x108]\n  3009: a4 = a0 + a5\n  3012: a0 = a4 <u a0\n  3015: a0 = a0 + a3\n  3018: a3 = u64 [s1 + 0x1b8]\n  3022: a3 = u32 [a3]\n  3024: a2 = a2 + a4\n  3027: a4 = a2 <u a4\n  3030: a0 = a0 + a4\n  3033: a3 = a3 <u t1\n  3036: a4 = a1 <u 0x1\n  3039: a3 = a3 ^ 0x1\n  3042: a3 = a4 if a1 != 0\n  3045: a1 = a0 <u 0x1\n  3048: a4 = a2 <u 0x1\n  3051: a4 = a1 if a0 != 0\n  3054: a0 = a0 | a2\n  3057: a3 = a4 if a0 != 0\n  3060: jump @142 if a3 != 0\n      : @141 (gas: 1)\n  3063: jump @1142\n      : @142 (gas: 6)\n  3066: a0 = t2 <u 0x3\n  3069: a2 = u64 [s1 + 0x100]\n  3073: a0 = 0 if a2 != 0\n  3075: a3 = u64 [s1 + 0x1b0]\n  3079: a0 = 0 if a3 != 0\n  3081: jump @144 if a0 == 0\n      : @143 (gas: 1)\n  3084: jump @1143\n      : @144 (gas: 12)\n  3087: a4 = a5\n  3089: a0 = a2 >u 0\n  3091: u64 [s1 + 0xd8] = t2\n  3095: a1 = t2 <u 0x65\n  3098: a1 = a1 ^ 0x1\n  3101: a1 = a0 if a2 != 0\n  3104: a0 = a5 >u 0\n  3106: a2 = t0 >u 0\n  3108: u64 [s1 + 0xd0] = t0\n  3112: a2 = a0 if t0 == 0\n  3115: a2 = a1 if a3 == 0\n  3118: jump @146 if a2 == 0\n      : @145 (gas: 1)\n  3121: jump @1148\n      : @146 (gas: 9)\n  3124: a0 = 0x30190\n  3129: u64 [s1 + 0xf8] = a0\n  3133: i32 a0 = a0 + 0\n  3135: u64 [s1 + 0xe0] = a0\n  3139: ra = 0x42\n  3142: ecalli 5 // 'caller'\n  3144: a2 = u64 [s1 + 0xf8]\n  3148: t0 = 0x44\n  3151: jump @2002\n      : @147 [@dyn 33] (gas: 2)\n  3155: a2 = u64 [s1 + 0xf8]\n  3159: t0 = 68, jump @2002\n      : @148 [@dyn 34] (gas: 8)\n  3165: u64 [a2 + 736] = 0\n  3169: a4 = a2 + 0x200\n  3173: u64 [a4 + 0xd8] = a1\n  3177: u64 [a4 + 0xd0] = a0\n  3181: a1 = s1 + 0x2c60\n  3185: u64 [a4 + 0xc8] = a3\n  3189: a0 = 0\n  3191: ra = 70, jump @24\n      : @149 [@dyn 35] (gas: 3)\n  3196: t0 = 0x48\n  3199: a1 = s1 + 0x2998\n  3203: fallthrough\n      : @150 [@dyn 36] (gas: 8)\n  3204: u64 [a1 + 704] = 0\n  3208: u64 [a1 + 696] = 0\n  3212: u64 [a1 + 680] = 0x3\n  3217: a2 = a1\n  3219: a0 = 0x20\n  3222: a1 = s1 + 0x2c40\n  3226: u64 [a2 + 688] = 0\n  3230: ra = 74, jump @24\n      : @151 [@dyn 37] (gas: 7)\n  3235: a0 = sp + 0xffffffffffffffe0\n  3238: a0 = a0 & 0xffffffffffffffe0\n  3241: u64 [s1 + 0x1b8] = a0\n  3245: sp = a0\n  3247: a2 = 0x20180\n  3252: a0 = i32 [0x20180]\n  3257: jump @153 if a0 >u 63\n      : @152 (gas: 2)\n  3261: u32 [0x20180] = 0x40\n  3267: fallthrough\n      : @153 (gas: 14)\n  3268: u64 [s1 + 0xc8] = a2\n  3272: a0 = sp + 0xffffffffffffffe0\n  3275: a2 = a0 & 0xffffffffffffffe0\n  3278: u64 [s1 + 0x1b0] = a2\n  3282: sp = a2\n  3284: a0 = 0x20190\n  3289: i32 a0 = a0 + 0\n  3291: i32 a2 = a2 + 0\n  3293: a1 = 0x40\n  3296: u64 [s1 + 0xc0] = a0\n  3300: ra = 0x4c\n  3303: ecalli 9 // 'hash_keccak_256'\n  3305: t0 = 0x4e\n  3308: jump @2029\n      : @154 [@dyn 38] (gas: 1)\n  3312: t0 = 78, jump @2029\n      : @155 [@dyn 39] (gas: 10)\n  3318: a4 = reverse a1\n  3320: a2 = reverse a2\n  3322: a3 = reverse a3\n  3324: a1 = u64 [s1 + 0x1b8]\n  3328: u64 [a1 + 0x18] = a3\n  3331: u64 [a1 + 0x10] = a2\n  3334: u64 [a1 + 0x8] = a4\n  3337: u64 [a1] = a0\n  3339: a0 = s1 + 0x2c20\n  3343: ra = 80, jump @26\n      : @156 [@dyn 40] (gas: 9)\n  3348: a2 = s1 + 0x2998\n  3352: a0 = u32 [a2 + 0x288]\n  3356: u64 [a2 + 608] = 0\n  3360: u64 [a2 + 600] = 0\n  3364: u64 [a2 + 0x248] = a0\n  3368: a0 = s1 + 0x2c00\n  3372: a1 = s1 + 0x2be0\n  3376: u64 [a2 + 592] = 0\n  3380: ra = 82, jump @1984\n      : @157 [@dyn 41] (gas: 13)\n  3386: a0 = s1 + 0x2998\n  3390: a2 = a0 + 0x200\n  3394: a1 = u64 [a2 + 0x80]\n  3398: u64 [s1 + 0x128] = a1\n  3402: a1 = u64 [a2 + 0x78]\n  3405: u64 [s1 + 0x120] = a1\n  3409: a1 = u64 [a2 + 0x70]\n  3412: u64 [s1 + 0x118] = a1\n  3416: a1 = u64 [a2 + 0x68]\n  3419: u64 [s1 + 0x110] = a1\n  3423: a0 = s1 + 0x2bc0\n  3427: a1 = u64 [s1 + 0x1b8]\n  3431: ra = 84, jump @26\n      : @158 [@dyn 42] (gas: 24)\n  3436: a3 = s1 + 0x2998\n  3440: a0 = u32 [a3 + 0x22c]\n  3444: a0 = a0 << 0x20\n  3447: a4 = a3 + 0x200\n  3451: a1 = u64 [a4 + 0x30]\n  3454: a2 = u64 [a4 + 0x38]\n  3457: a3 = u64 [a4 + 0x40]\n  3460: a4 = u64 [s1 + 0x110]\n  3464: a0 = a0 | a4\n  3467: a4 = u64 [s1 + 0x118]\n  3471: a1 = a1 | a4\n  3474: a4 = u64 [s1 + 0x120]\n  3478: a2 = a2 | a4\n  3481: a4 = u64 [s1 + 0x128]\n  3485: a3 = a3 | a4\n  3488: a4 = s1 + 0x3998\n  3492: u64 [a4 + 0x500] = a3\n  3496: a3 = a4 + 0x400\n  3500: u64 [a3 + 0xf8] = a2\n  3504: u64 [a3 + 0xf0] = a1\n  3508: u64 [a3 + 0xe8] = a0\n  3512: a1 = s1 + 0x3e80\n  3516: a0 = u64 [s1 + 0x1b8]\n  3520: ra = 86, jump @28\n      : @159 [@dyn 43] (gas: 4)\n  3525: a0 = s1 + 0x4000\n  3529: i32 a0 = a0 + 0xfffffffffffffea0\n  3533: ecalli 10 // 'now'\n  3535: fallthrough\n      : @160 (gas: 50)\n  3536: a0 = s1 + 0x3998\n  3540: t2 = u64 [a0 + 0x520]\n  3544: a3 = u64 [a0 + 0x518]\n  3548: u64 [s1 + 0x170] = a3\n  3552: t1 = u64 [a0 + 0x510]\n  3556: ra = u64 [a0 + 0x508]\n  3560: a0 = clz t2\n  3562: a1 = clz a3\n  3564: a2 = a1 + 0x40\n  3567: a2 = a0 if t2 != 0\n  3570: a0 = clz t1\n  3572: a1 = clz ra\n  3574: a1 = a1 + 0x40\n  3577: a1 = a0 if t1 != 0\n  3580: a0 = a1 + 0x80\n  3584: a3 = a3 | t2\n  3587: a2 = a0 if a3 == 0\n  3590: a5 = a0 <u a1\n  3593: a5 = 0 if a3 != 0\n  3595: a4 = a5 >u 0\n  3597: a0 = a2 <u 0xf0\n  3601: a3 = a0 ^ 0x1\n  3604: a4 = a3 if a5 == 0\n  3607: a0 = a4 <u 0x1\n  3610: a0 = a0 + 0xffffffffffffffff\n  3613: a1 = -a4\n  3615: a5 = -a5\n  3617: a3 = a5 - a3\n  3620: t0 = 0xef - a2\n  3624: u64 [s1 + 0x1b8] = a1\n  3628: a5 = a1 >u 0\n  3630: a1 = a0 >u 0\n  3632: a1 = a5 if a0 == 0\n  3635: a5 = t0 <u 0x100\n  3639: a5 = a5 ^ 0x1\n  3642: a2 = a3 >u 0\n  3644: a5 = a2 if a3 != 0\n  3647: a5 = a1 if a4 != 0\n  3650: u64 [s1 + 0x160] = t2\n  3654: a1 = t1 | t2\n  3657: t2 = t1\n  3659: t1 = u64 [s1 + 0x170]\n  3663: a2 = ra | t1\n  3666: a1 = a1 | a2\n  3669: a1 = a1 <u 0x1\n  3672: a1 = a1 | a5\n  3675: u64 [s1 + 0x178] = ra\n  3679: a4 = ra\n  3681: a4 = 0 if a1 != 0\n  3683: jump @162 if a1 == 0\n      : @161 (gas: 1)\n  3686: jump @880\n      : @162 (gas: 6)\n  3689: a1 = t0 ^ 0xff\n  3693: a5 = u64 [s1 + 0x1b8]\n  3697: a1 = a1 | a5\n  3700: a2 = a3 | a0\n  3703: a1 = a1 | a2\n  3706: jump @164 if a1 != 0\n      : @163 (gas: 1)\n  3709: jump @880\n      : @164 (gas: 19)\n  3712: a2 = t0 + 0x1\n  3715: u64 [s1 + 0x1b0] = a2\n  3719: a1 = a2 <u 0x1\n  3722: a1 = a1 + a3\n  3725: u64 [s1 + 0x1a0] = a1\n  3729: a1 = a1 | a2\n  3732: a1 = a1 <u 0x1\n  3735: a1 = a1 + a5\n  3738: u64 [s1 + 0x190] = a1\n  3742: a1 = a1 <u a5\n  3745: a0 = a0 + a1\n  3748: u64 [s1 + 0x198] = a0\n  3752: a1 = 0xff - t0\n  3756: u64 [s1 + 0x188] = a1\n  3760: a2 = 0x80 - a1\n  3764: a0 = u64 [s1 + 0x178]\n  3768: a1 = t2\n  3770: u64 [s1 + 0x168] = t2\n  3774: ra = 88, jump @2101\n      : @165 [@dyn 44] (gas: 1)\n  3780: t0 = 90, jump @2099\n      : @166 [@dyn 45] (gas: 1)\n  3786: ra = 92, jump @2106\n      : @167 [@dyn 46] (gas: 7)\n  3792: u64 [s1 + 0x150] = a0\n  3796: u64 [s1 + 0x148] = a1\n  3800: a0 = u64 [s1 + 0x188]\n  3804: a2 = a0 + 0xffffffffffffff80\n  3807: a0 = u64 [s1 + 0x178]\n  3811: a1 = u64 [s1 + 0x168]\n  3815: ra = 94, jump @2106\n      : @168 [@dyn 47] (gas: 1)\n  3821: t0 = 96, jump @2098\n      : @169 [@dyn 48] (gas: 3)\n  3827: a0 = u64 [s1 + 0x178]\n  3831: a1 = u64 [s1 + 0x168]\n  3835: ra = 98, jump @2106\n      : @170 [@dyn 49] (gas: 11)\n  3841: a4 = u64 [s1 + 0x158]\n  3845: t0 = u64 [s1 + 0x190]\n  3849: a5 = u64 [s1 + 0x198]\n  3853: a2 = u64 [s1 + 0x1a0]\n  3857: a5 = a5 | a2\n  3860: a3 = u64 [s1 + 0x1b0]\n  3864: a3 = a3 | t0\n  3867: a3 = a3 | a5\n  3870: a0 = 0 if a4 == 0\n  3872: u64 [s1 + 0x1a8] = a0\n  3876: jump @172 if a3 == 0\n      : @171 (gas: 1)\n  3879: jump @867\n      : @172 (gas: 2)\n  3882: a4 = 0\n  3884: jump @879\n      : @173 (gas: 3)\n  3887: a0 = u64 [s1 + 0x1b8]\n  3891: a0 = i32 [a0]\n  3893: jump @175 if a0 >u 3\n      : @174 (gas: 1)\n  3897: jump @1153\n      : @175 (gas: 10)\n  3900: a0 = s1 + 0x3998\n  3904: u64 [a0 + 1728] = 0\n  3908: u64 [a0 + 1720] = 0\n  3912: u64 [a0 + 1712] = 0\n  3916: u64 [a0 + 1704] = 0\n  3920: a0 = s1 + 0x4000\n  3924: i32 a0 = a0 + 0x40\n  3927: ra = 0x64\n  3930: ecalli 17 // 'value_transferred'\n  3932: fallthrough\n      : @176 [@dyn 50] (gas: 3)\n  3933: a3 = s1 + 0x3998\n  3937: a4 = a3 + 0x600\n  3941: t0 = 102, jump @2056\n      : @177 [@dyn 51] (gas: 1)\n  3947: jump @179 if a0 != 0\n      : @178 (gas: 1)\n  3950: jump @1154\n      : @179 (gas: 9)\n  3953: a0 = 0x30190\n  3958: u64 [s1 + 0x1b0] = a0\n  3962: i32 a0 = a0 + 0\n  3964: u64 [s1 + 0x188] = a0\n  3968: ra = 0x68\n  3971: ecalli 5 // 'caller'\n  3973: a2 = u64 [s1 + 0x1b0]\n  3977: t0 = 0x6a\n  3980: jump @2002\n      : @180 [@dyn 52] (gas: 2)\n  3984: a2 = u64 [s1 + 0x1b0]\n  3988: t0 = 106, jump @2002\n      : @181 [@dyn 53] (gas: 8)\n  3994: u64 [a2 + 1184] = 0\n  3998: a4 = a2 + 0x400\n  4002: u64 [a4 + 0x98] = a1\n  4006: u64 [a4 + 0x90] = a0\n  4010: a1 = s1 + 0x2e20\n  4014: u64 [a4 + 0x88] = a3\n  4018: a0 = 0\n  4020: ra = 108, jump @24\n      : @182 [@dyn 54] (gas: 3)\n  4025: t0 = 0x6e\n  4028: a1 = s1 + 0x2998\n  4032: fallthrough\n      : @183 [@dyn 55] (gas: 8)\n  4033: u64 [a1 + 1152] = 0\n  4037: u64 [a1 + 1144] = 0\n  4041: u64 [a1 + 1128] = 0x1\n  4046: a2 = a1\n  4048: a0 = 0x20\n  4051: a1 = s1 + 0x2e00\n  4055: u64 [a2 + 1136] = 0\n  4059: ra = 112, jump @24\n      : @184 [@dyn 56] (gas: 6)\n  4064: a0 = sp + 0xffffffffffffffe0\n  4067: a0 = a0 & 0xffffffffffffffe0\n  4070: u64 [s1 + 0x1b8] = a0\n  4074: sp = a0\n  4076: a1 = i32 [0x20180]\n  4081: jump @186 if a1 >u 63\n      : @185 (gas: 4)\n  4085: a1 = 0x40\n  4088: u32 [0x20180] = a1\n  4093: t0 = 0x72\n  4096: jump @2082\n      : @186 (gas: 1)\n  4100: t0 = 114, jump @2082\n      : @187 [@dyn 57] (gas: 8)\n  4106: a0 = 0x20190\n  4111: i32 a0 = a0 + 0\n  4113: i32 a2 = a2 + 0\n  4115: a1 = 0x40\n  4118: u64 [s1 + 0x180] = a0\n  4122: ra = 0x74\n  4125: ecalli 9 // 'hash_keccak_256'\n  4127: fallthrough\n      : @188 [@dyn 58] (gas: 7)\n  4128: a3 = u64 [s1 + 0x1a8]\n  4132: a0 = u64 [a3 + 0x18]\n  4135: a1 = u64 [a3 + 0x10]\n  4138: a2 = u64 [a3 + 0x8]\n  4141: a3 = u64 [a3]\n  4143: a0 = reverse a0\n  4145: t0 = 118, jump @2065\n      : @189 [@dyn 59] (gas: 21)\n  4151: a0 = s1 + 0x3998\n  4155: u64 [a0 + 1760] = 0\n  4159: u64 [a0 + 1752] = 0\n  4163: u64 [a0 + 1744] = 0\n  4167: u64 [a0 + 1736] = 0\n  4171: a0 = s1 + 0x4000\n  4175: i32 a0 = a0 + 0x60\n  4178: ecalli 17 // 'value_transferred'\n  4180: a0 = s1 + 0x3998\n  4184: a2 = a0 + 0x600\n  4188: a1 = u64 [a2 + 0xc8]\n  4192: u64 [s1 + 0x1a8] = a1\n  4196: a1 = u64 [a2 + 0xd0]\n  4200: u64 [s1 + 0x1a0] = a1\n  4204: a1 = u64 [a2 + 0xd8]\n  4208: u64 [s1 + 0x198] = a1\n  4212: a0 = u64 [a2 + 0xe0]\n  4216: u64 [s1 + 0x190] = a0\n  4220: a0 = s1 + 0x2de0\n  4224: a1 = u64 [s1 + 0x1b8]\n  4228: ra = 120, jump @26\n      : @190 [@dyn 60] (gas: 22)\n  4233: a4 = s1 + 0x2998\n  4237: a3 = u64 [a4 + 0x448]\n  4241: a0 = u64 [a4 + 0x450]\n  4245: a1 = u64 [a4 + 0x458]\n  4249: a2 = u64 [a4 + 0x460]\n  4253: a5 = u64 [s1 + 0x190]\n  4257: u64 [a4 + 0x400] = a5\n  4261: a5 = u64 [s1 + 0x198]\n  4265: u64 [a4 + 0x3f8] = a5\n  4269: a5 = u64 [s1 + 0x1a0]\n  4273: u64 [a4 + 0x3f0] = a5\n  4277: a5 = u64 [s1 + 0x1a8]\n  4281: u64 [a4 + 0x3e8] = a5\n  4285: a5 = a4 + 0x400\n  4289: u64 [a5 + 0x20] = a2\n  4292: u64 [a5 + 0x18] = a1\n  4295: u64 [a5 + 0x10] = a0\n  4298: a0 = s1 + 0x2dc0\n  4302: a1 = s1 + 0x2da0\n  4306: a2 = s1 + 0x2d80\n  4310: u64 [a5 + 0x8] = a3\n  4313: ra = 122, jump @1757\n      : @191 [@dyn 61] (gas: 15)\n  4319: a3 = s1 + 0x2998\n  4323: a4 = a3 + 0x400\n  4327: a0 = u64 [a4 + 0x40]\n  4330: a1 = u64 [a4 + 0x38]\n  4333: a2 = u64 [a4 + 0x30]\n  4336: a3 = u64 [a4 + 0x28]\n  4339: a4 = s1 + 0x3998\n  4343: u64 [a4 + 0x700] = a0\n  4347: a0 = a4 + 0x600\n  4351: u64 [a0 + 0xf8] = a1\n  4355: u64 [a0 + 0xf0] = a2\n  4359: u64 [a0 + 0xe8] = a3\n  4363: a1 = s1 + 0x4080\n  4367: a0 = u64 [s1 + 0x1b8]\n  4371: ra = 124, jump @28\n      : @192 [@dyn 62] (gas: 3)\n  4376: a0 = s1 + 0x2d60\n  4380: a1 = 0x40\n  4383: ra = 126, jump @22\n      : @193 [@dyn 63] (gas: 20)\n  4388: a0 = s1 + 0x2998\n  4392: a2 = a0 + 0x300\n  4396: a1 = u64 [a2 + 0xe0]\n  4400: u64 [s1 + 0x1a8] = a1\n  4404: a1 = u64 [a2 + 0xd8]\n  4408: u64 [s1 + 0x1a0] = a1\n  4412: a1 = u64 [a2 + 0xd0]\n  4416: u64 [s1 + 0x198] = a1\n  4420: a0 = u64 [a2 + 0xc8]\n  4424: u64 [s1 + 0x1b8] = a0\n  4428: a0 = s1 + 0x3998\n  4432: u64 [a0 + 1824] = 0\n  4436: u64 [a0 + 1816] = 0\n  4440: u64 [a0 + 1808] = 0\n  4444: u64 [a0 + 1800] = 0\n  4448: a0 = s1 + 0x4000\n  4452: i32 a0 = a0 + 0xa0\n  4456: ra = 0x80\n  4460: ecalli 17 // 'value_transferred'\n  4462: fallthrough\n      : @194 [@dyn 64] (gas: 8)\n  4463: a3 = s1 + 0x100\n  4467: a0 = u64 [a3 + 0xa8]\n  4471: a1 = u64 [a3 + 0x98]\n  4475: a0 = a0 | a1\n  4478: a1 = u64 [a3 + 0xb8]\n  4482: a5 = a1\n  4484: a2 = u64 [a3 + 0xa0]\n  4488: t0 = 130, jump @2050\n      : @195 [@dyn 65] (gas: 1)\n  4495: jump @197 if a0 == 0\n      : @196 (gas: 1)\n  4498: jump @1050\n      : @197 (gas: 1)\n  4501: t0 = 132, jump @2058\n      : @198 [@dyn 66] (gas: 13)\n  4508: a0 = u64 [a4 + 0x8]\n  4511: a1 = u64 [a4 + 0x10]\n  4514: a2 = u64 [a4 + 0x18]\n  4517: a3 = u64 [a4 + 0x20]\n  4520: a4 = s1 + 0x2998\n  4524: u64 [a4 + 0x3c0] = a3\n  4528: a3 = a4 + 0x300\n  4532: u64 [a3 + 0xb8] = a2\n  4536: u64 [a3 + 0xb0] = a1\n  4540: a1 = s1 + 0x2d40\n  4544: u64 [a3 + 0xa8] = a0\n  4548: a0 = a5\n  4550: ra = 134, jump @24\n      : @199 [@dyn 67] (gas: 6)\n  4556: a0 = u64 [s1 + 0x188]\n  4560: ra = 0x88\n  4564: ecalli 5 // 'caller'\n  4566: a2 = u64 [s1 + 0x1b0]\n  4570: t0 = 0x8a\n  4574: jump @1999\n      : @200 [@dyn 68] (gas: 2)\n  4578: a2 = u64 [s1 + 0x1b0]\n  4582: t0 = 138, jump @1999\n      : @201 [@dyn 69] (gas: 25)\n  4589: t0 = a1 | a0\n  4592: a3 = a3 >> 0x20\n  4595: a2 = reverse a2\n  4597: a1 = a2 << 0x20\n  4600: a1 = a1 | a3\n  4603: a2 = a2 >> 0x20\n  4606: a3 = u64 [0x20000]\n  4611: a0 = s1 + 0x2998\n  4615: u64 [a0 + 0x3a0] = a3\n  4619: a3 = u64 [0x20008]\n  4624: a4 = u64 [0x20010]\n  4629: a5 = u64 [0x20018]\n  4634: u64 [a0 + 0x398] = a3\n  4638: a3 = a0 + 0x300\n  4642: u64 [a3 + 0x90] = a4\n  4646: u64 [a0 + 896] = 0\n  4650: u64 [a3 + 0x88] = a5\n  4654: u64 [a3 + 0x78] = a2\n  4657: u64 [a3 + 0x70] = a1\n  4660: a1 = 0x20\n  4663: a2 = s1 + 0x2d20\n  4667: a3 = s1 + 0x2d00\n  4671: u64 [a0 + 0x368] = t0\n  4675: a0 = u64 [s1 + 0x1b8]\n  4679: ra = 140, jump @29\n      : @202 [@dyn 70] (gas: 7)\n  4685: a0 = 0\n  4687: a1 = u64 [s1 + 0x180]\n  4691: a2 = 0\n  4693: ra = 0x570\n  4697: ecalli 14 // 'seal_return'\n  4699: t0 = 0x572\n  4703: jump @2045\n      : @203 (gas: 11)\n  4707: a0 = s1 + 0x3998\n  4711: u64 [a0 + 1952] = 0\n  4715: u64 [a0 + 1944] = 0\n  4719: u64 [a0 + 1936] = 0\n  4723: u64 [a0 + 1928] = 0\n  4727: a0 = s1 + 0x4000\n  4731: i32 a0 = a0 + 0x120\n  4735: ra = 0x8e\n  4739: ecalli 17 // 'value_transferred'\n  4741: t0 = 0x90\n  4745: jump @2058\n      : @204 [@dyn 71] (gas: 1)\n  4749: t0 = 144, jump @2058\n      : @205 [@dyn 72] (gas: 1)\n  4756: t0 = 146, jump @2086\n      : @206 [@dyn 73] (gas: 1)\n  4763: jump @208 if a0 == 0\n      : @207 (gas: 1)\n  4766: jump @1158\n      : @208 (gas: 3)\n  4769: a0 = u64 [s1 + 0x1b8]\n  4773: a0 = i32 [a0]\n  4775: jump @210 if a0 >u 67\n      : @209 (gas: 1)\n  4779: jump @1159\n      : @210 (gas: 4)\n  4782: a0 = s1 + 0x3640\n  4786: ra = 0x94\n  4790: t0 = 0x6b8\n  4794: jump @2079\n      : @211 [@dyn 74] (gas: 11)\n  4798: a1 = s1 + 0x3198\n  4802: a0 = u64 [a1 + 0x4a8]\n  4806: u64 [s1 + 0x1b0] = a0\n  4810: a0 = u64 [a1 + 0x4b0]\n  4814: u64 [s1 + 0x1a8] = a0\n  4818: a0 = u32 [a1 + 0x4b8]\n  4822: u64 [s1 + 0x1a0] = a0\n  4826: a0 = s1 + 0x3620\n  4830: ra = 0x96\n  4834: t0 = 0x6ca\n  4838: jump @2074\n      : @212 [@dyn 75] (gas: 5)\n  4842: a0 = s1 + 0x3198\n  4846: a0 = u64 [a0 + 0x488]\n  4850: u64 [s1 + 0x1b8] = a0\n  4854: a0 = s1 + 0x3600\n  4858: ra = 152, jump @1807\n      : @213 [@dyn 76] (gas: 13)\n  4865: a0 = s1 + 0x3198\n  4869: u64 [a0 + 1120] = 0\n  4873: a3 = s1 + 0x100\n  4877: a1 = u64 [a3 + 0xa0]\n  4881: a4 = a0 + 0x400\n  4885: u64 [a4 + 0x58] = a1\n  4888: a1 = u64 [a3 + 0xa8]\n  4892: u64 [a4 + 0x50] = a1\n  4895: a1 = s1 + 0x35e0\n  4899: a2 = u64 [a3 + 0xb0]\n  4903: u64 [a4 + 0x48] = a2\n  4906: a0 = 0\n  4908: ra = 154, jump @24\n      : @214 [@dyn 77] (gas: 9)\n  4914: a1 = s1 + 0x3198\n  4918: u64 [a1 + 1088] = 0\n  4922: u64 [a1 + 1080] = 0\n  4926: u64 [a1 + 1064] = 0x2\n  4931: a2 = a1\n  4933: a0 = 0x20\n  4936: a1 = s1 + 0x35c0\n  4940: u64 [a2 + 1072] = 0\n  4944: ra = 156, jump @24\n      : @215 [@dyn 78] (gas: 3)\n  4950: a1 = 0x20180\n  4955: a0 = i32 [0x20180]\n  4960: jump @217 if a0 >u 63\n      : @216 (gas: 2)\n  4964: u32 [0x20180] = 0x40\n  4970: fallthrough\n      : @217 (gas: 13)\n  4971: a0 = sp + 0xffffffffffffffe0\n  4974: a2 = a0 & 0xffffffffffffffe0\n  4977: u64 [s1 + 0x1a0] = a2\n  4981: sp = a2\n  4983: a0 = 0x20190\n  4988: i32 a0 = a0 + 0\n  4990: i32 a2 = a2 + 0\n  4992: u64 [s1 + 0x1b0] = a1\n  4996: a1 = 0x40\n  4999: u64 [s1 + 0x1a8] = a0\n  5003: ra = 0x9e\n  5007: ecalli 9 // 'hash_keccak_256'\n  5009: fallthrough\n      : @218 [@dyn 79] (gas: 7)\n  5010: a3 = u64 [s1 + 0x1a0]\n  5014: a0 = u64 [a3 + 0x18]\n  5017: a1 = u64 [a3 + 0x10]\n  5020: a2 = u64 [a3 + 0x8]\n  5023: a3 = u64 [a3]\n  5025: a0 = reverse a0\n  5027: t0 = 160, jump @2049\n      : @219 [@dyn 80] (gas: 2)\n  5034: a0 = u64 [s1 + 0x1b8]\n  5038: t0 = 162, jump @2089\n      : @220 [@dyn 81] (gas: 7)\n  5045: u64 [a2 + 1056] = 0\n  5049: u64 [a2 + 1048] = 0\n  5053: u64 [a2 + 1040] = 0\n  5057: a1 = s1 + 0x35a0\n  5061: u64 [a2 + 0x408] = a0\n  5065: a0 = 0\n  5067: ra = 164, jump @24\n      : @221 [@dyn 82] (gas: 13)\n  5073: a0 = u64 [s1 + 0x188]\n  5077: a1 = s1 + 0x3198\n  5081: u64 [a1 + 0x400] = a0\n  5085: a0 = u64 [s1 + 0x190]\n  5089: u64 [a1 + 0x3f8] = a0\n  5093: a0 = u64 [s1 + 0x198]\n  5097: u64 [a1 + 0x3f0] = a0\n  5101: a3 = a1\n  5103: a0 = 0x20\n  5106: a1 = s1 + 0x3580\n  5110: a2 = u64 [s1 + 0x1a0]\n  5114: u64 [a3 + 0x3e8] = a2\n  5118: ra = 166, jump @24\n      : @222 [@dyn 83] (gas: 3)\n  5124: a1 = u64 [s1 + 0x1b0]\n  5128: a0 = i32 [a1]\n  5130: jump @224 if a0 >u 63\n      : @223 (gas: 3)\n  5134: u32 [a1 + 0] = 0x40\n  5137: t0 = 0xa8\n  5141: jump @2063\n      : @224 (gas: 1)\n  5145: t0 = 168, jump @2063\n      : @225 [@dyn 84] (gas: 5)\n  5152: ra = 0xaa\n  5156: ecalli 9 // 'hash_keccak_256'\n  5158: a3 = u64 [s1 + 0x1b8]\n  5162: t0 = 0xac\n  5166: jump @2061\n      : @226 [@dyn 85] (gas: 2)\n  5170: a3 = u64 [s1 + 0x1b8]\n  5174: t0 = 172, jump @2061\n      : @227 [@dyn 86] (gas: 10)\n  5181: i32 a3 = a3 + 0x198\n  5185: a3 = a3 + s1\n  5188: a5 = a3 + 0x300\n  5192: u64 [a5 + 0xc0] = a2\n  5196: u64 [a5 + 0xb8] = a1\n  5200: u64 [a5 + 0xb0] = a0\n  5204: a0 = s1 + 0x3560\n  5208: a1 = s1 + 0x3540\n  5212: u64 [a5 + 0xa8] = a4\n  5216: ra = 174, jump @1851\n      : @228 [@dyn 87] (gas: 14)\n  5223: a1 = s1 + 0x3198\n  5227: a2 = a1 + 0x300\n  5231: a0 = u64 [a2 + 0xe0]\n  5235: a1 = s1 + 0x100\n  5239: u64 [a1 + 0x98] = a0\n  5243: a0 = u64 [a2 + 0xd8]\n  5247: u64 [a1 + 0xa0] = a0\n  5251: a0 = u64 [a2 + 0xd0]\n  5255: u64 [a1 + 0xa8] = a0\n  5259: a0 = u64 [a2 + 0xc8]\n  5263: u64 [a1 + 0xb0] = a0\n  5267: a0 = s1 + 0x3520\n  5271: a1 = 0x40\n  5274: ra = 176, jump @22\n      : @229 [@dyn 88] (gas: 14)\n  5280: a2 = s1 + 0x3198\n  5284: t0 = u64 [a2 + 0x3a0]\n  5288: a1 = a2 + 0x300\n  5292: a5 = u64 [a1 + 0x98]\n  5296: a4 = u64 [a1 + 0x90]\n  5300: a0 = u64 [a1 + 0x88]\n  5304: a3 = a4 | t0\n  5307: a1 = a0 | a5\n  5310: a1 = a1 | a3\n  5313: a1 = a1 >> 0x20\n  5316: a3 = a3 | a5\n  5319: a3 = a3 << 0x20\n  5322: a1 = a1 | a3\n  5325: jump @231 if a1 == 0\n      : @230 (gas: 1)\n  5328: jump @1050\n      : @231 (gas: 10)\n  5331: u64 [a2 + 896] = 0\n  5335: u64 [a2 + 888] = 0\n  5339: u64 [a2 + 880] = 0\n  5343: a1 = s1 + 0x3500\n  5347: u64 [a2 + 872] = 0x20\n  5352: u64 [s1 + 0x1b8] = a0\n  5356: u64 [s1 + 0x180] = a4\n  5360: u64 [s1 + 0x190] = t0\n  5364: u64 [s1 + 0x188] = a5\n  5368: ra = 178, jump @24\n      : @232 [@dyn 89] (gas: 6)\n  5374: a0 = u64 [s1 + 0x1b8]\n  5378: a0 = a0 + 0x20\n  5381: a1 = u64 [s1 + 0x1b8]\n  5385: a1 = a0 <u a1\n  5388: a3 = u64 [s1 + 0x180]\n  5392: t0 = 180, jump @2023\n      : @233 [@dyn 90] (gas: 24)\n  5399: a1 = u64 [s1 + 0x188]\n  5403: a3 = a3 + a1\n  5406: a1 = a3 <u a1\n  5409: a4 = u64 [s1 + 0x190]\n  5413: a4 = a4 + a1\n  5416: a1 = s1 + 0x3198\n  5420: a5 = a1 + 0x300\n  5424: u64 [a5 + 0x10] = a2\n  5427: u64 [a5 + 0x8] = a0\n  5430: a0 = u64 [s1 + 0x198]\n  5434: u64 [a5 + 0x40] = a0\n  5437: a0 = u64 [s1 + 0x1a0]\n  5441: u64 [a5 + 0x38] = a0\n  5444: a0 = u64 [s1 + 0x1a8]\n  5448: u64 [a5 + 0x30] = a0\n  5451: a0 = u64 [s1 + 0x1b0]\n  5455: u64 [a5 + 0x28] = a0\n  5458: u64 [a5 + 0x18] = a3\n  5461: a3 = a1\n  5463: a0 = s1 + 0x34e0\n  5467: a1 = s1 + 0x34c0\n  5471: a2 = s1 + 0x34a0\n  5475: u64 [a3 + 0x320] = a4\n  5479: ra = 182, jump @1632\n      : @234 [@dyn 91] (gas: 27)\n  5486: a0 = s1 + 0x3198\n  5490: a1 = u64 [a0 + 0x350]\n  5494: t0 = u64 [a0 + 0x360]\n  5498: t1 = u64 [a0 + 0x348]\n  5502: a3 = u64 [a0 + 0x358]\n  5506: a0 = u64 [s1 + 0x180]\n  5510: a4 = a1 ^ a0\n  5513: a5 = a1 <u a0\n  5516: ra = a0\n  5518: a0 = u64 [s1 + 0x1b8]\n  5522: t2 = t1 <u a0\n  5525: a5 = t2 if a4 == 0\n  5528: a0 = u64 [s1 + 0x188]\n  5532: a4 = a3 - a0\n  5535: a3 = a3 <u a0\n  5538: a0 = u64 [s1 + 0x190]\n  5542: a2 = t0 - a0\n  5545: a2 = a2 - a3\n  5548: a3 = a4 <u a5\n  5551: a2 = a2 - a3\n  5554: a0 = u64 [s1 + 0x1b8]\n  5558: a4 = a4 - a5\n  5561: a1 = a1 - ra\n  5564: a3 = a1 - t2\n  5567: a1 = t1 - a0\n  5570: a2 = a2 | a3\n  5573: fallthrough\n      : @235 (gas: 7)\n  5574: a3 = a1 | a4\n  5577: a3 = a3 | a2\n  5580: a2 = a2 | a4\n  5583: a3 = a3 >> 0x20\n  5586: a2 = a2 << 0x20\n  5589: a2 = a2 | a3\n  5592: jump @865 if a2 == 0\n      : @236 (gas: 1)\n  5596: jump @1050\n      : @237 (gas: 10)\n  5599: a0 = s1 + 0x3998\n  5603: u64 [a0 + 256] = 0\n  5607: u64 [a0 + 248] = 0\n  5611: u64 [a0 + 240] = 0\n  5615: u64 [a0 + 232] = 0\n  5619: a0 = s1 + 0x4000\n  5623: i32 a0 = a0 + 0xfffffffffffffa80\n  5627: ra = 0xb8\n  5631: ecalli 17 // 'value_transferred'\n  5633: fallthrough\n      : @238 [@dyn 92] (gas: 9)\n  5634: a3 = s1 + 0x3998\n  5638: a0 = u64 [a3 + 0xf8]\n  5642: a1 = u64 [a3 + 0x100]\n  5646: a2 = u64 [a3 + 0xf0]\n  5650: a3 = u64 [a3 + 0xe8]\n  5654: a1 = a1 | a2\n  5657: a0 = a0 | a3\n  5660: a0 = a0 | a1\n  5663: jump @240 if a0 == 0\n      : @239 (gas: 1)\n  5666: jump @1160\n      : @240 (gas: 1)\n  5669: t0 = 186, jump @2045\n      : @241 [@dyn 93] (gas: 1)\n  5676: jump @243 if a1 <u a0\n      : @242 (gas: 1)\n  5679: jump @1161\n      : @243 (gas: 7)\n  5682: a0 = s1 + 0x4000\n  5686: i32 a0 = a0 + 0xfffffffffffffaa0\n  5690: a1 = 0x4\n  5693: ra = 0xbc\n  5697: ecalli 3 // 'call_data_load'\n  5699: t0 = 0xbe\n  5703: jump @2094\n      : @244 [@dyn 94] (gas: 1)\n  5707: t0 = 190, jump @2094\n      : @245 [@dyn 95] (gas: 7)\n  5714: a0 = u64 [a4 + 0x20]\n  5717: a1 = u64 [a4 + 0x18]\n  5720: a2 = u64 [a4 + 0x10]\n  5723: a0 = a0 | a1\n  5726: a1 = a2 <u 0x1\n  5729: a1 = 0 if a0 != 0\n  5731: jump @247 if a1 != 0\n      : @246 (gas: 1)\n  5734: jump @1162\n      : @247 (gas: 6)\n  5737: a0 = u64 [a3 + 0x108]\n  5741: u64 [s1 + 0x140] = a0\n  5745: a0 = s1 + 0x4000\n  5749: i32 a0 = a0 + 0xfffffffffffffac0\n  5753: ecalli 10 // 'now'\n  5755: fallthrough\n      : @248 (gas: 49)\n  5756: a0 = s1 + 0x3998\n  5760: t2 = u64 [a0 + 0x140]\n  5764: a3 = u64 [a0 + 0x138]\n  5768: u64 [s1 + 0x170] = a3\n  5772: t0 = u64 [a0 + 0x130]\n  5776: ra = u64 [a0 + 0x128]\n  5780: a0 = clz t2\n  5782: a1 = clz a3\n  5784: a2 = a1 + 0x40\n  5787: a2 = a0 if t2 != 0\n  5790: a0 = clz t0\n  5792: a1 = clz ra\n  5794: a1 = a1 + 0x40\n  5797: a1 = a0 if t0 != 0\n  5800: a0 = a1 + 0x80\n  5804: a3 = a3 | t2\n  5807: a2 = a0 if a3 == 0\n  5810: a5 = a0 <u a1\n  5813: a5 = 0 if a3 != 0\n  5815: a4 = a5 >u 0\n  5817: a0 = a2 <u 0xf0\n  5821: a3 = a0 ^ 0x1\n  5824: a4 = a3 if a5 == 0\n  5827: a0 = a4 <u 0x1\n  5830: a0 = a0 + 0xffffffffffffffff\n  5833: a1 = -a4\n  5835: a5 = -a5\n  5837: a3 = a5 - a3\n  5840: t1 = 0xef - a2\n  5844: u64 [s1 + 0x1b8] = a1\n  5848: a5 = a1 >u 0\n  5850: a1 = a0 >u 0\n  5852: a1 = a5 if a0 == 0\n  5855: a5 = t1 <u 0x100\n  5859: a5 = a5 ^ 0x1\n  5862: a2 = a3 >u 0\n  5864: a5 = a2 if a3 != 0\n  5867: a5 = a1 if a4 != 0\n  5870: u64 [s1 + 0x160] = t2\n  5874: u64 [s1 + 0x178] = t0\n  5878: a1 = t0 | t2\n  5881: t2 = u64 [s1 + 0x170]\n  5885: a2 = ra | t2\n  5888: a1 = a1 | a2\n  5891: a1 = a1 <u 0x1\n  5894: a1 = a1 | a5\n  5897: a4 = ra\n  5899: a4 = 0 if a1 != 0\n  5901: jump @250 if a1 == 0\n      : @249 (gas: 1)\n  5904: jump @963\n      : @250 (gas: 6)\n  5907: a1 = t1 ^ 0xff\n  5911: a5 = u64 [s1 + 0x1b8]\n  5915: a1 = a1 | a5\n  5918: a2 = a3 | a0\n  5921: a1 = a1 | a2\n  5924: jump @252 if a1 != 0\n      : @251 (gas: 1)\n  5927: jump @963\n      : @252 (gas: 20)\n  5930: t0 = ra\n  5932: a2 = t1 + 0x1\n  5935: u64 [s1 + 0x1b0] = a2\n  5939: a1 = a2 <u 0x1\n  5942: a1 = a1 + a3\n  5945: u64 [s1 + 0x1a0] = a1\n  5949: a1 = a1 | a2\n  5952: a1 = a1 <u 0x1\n  5955: a1 = a1 + a5\n  5958: u64 [s1 + 0x190] = a1\n  5962: a1 = a1 <u a5\n  5965: a0 = a0 + a1\n  5968: u64 [s1 + 0x198] = a0\n  5972: a1 = 0xff - t1\n  5976: u64 [s1 + 0x188] = a1\n  5980: a2 = 0x80 - a1\n  5984: a0 = ra\n  5986: u64 [s1 + 0x168] = t0\n  5990: a1 = u64 [s1 + 0x178]\n  5994: ra = 192, jump @2101\n      : @253 [@dyn 96] (gas: 1)\n  6001: t0 = 194, jump @2099\n      : @254 [@dyn 97] (gas: 1)\n  6008: ra = 196, jump @2106\n      : @255 [@dyn 98] (gas: 7)\n  6015: u64 [s1 + 0x150] = a0\n  6019: u64 [s1 + 0x148] = a1\n  6023: a0 = u64 [s1 + 0x188]\n  6027: a2 = a0 + 0xffffffffffffff80\n  6030: a0 = u64 [s1 + 0x168]\n  6034: a1 = u64 [s1 + 0x178]\n  6038: ra = 198, jump @2106\n      : @256 [@dyn 99] (gas: 1)\n  6045: t0 = 200, jump @2098\n      : @257 [@dyn 100] (gas: 3)\n  6052: a0 = u64 [s1 + 0x168]\n  6056: a1 = u64 [s1 + 0x178]\n  6060: ra = 202, jump @2106\n      : @258 [@dyn 101] (gas: 11)\n  6067: a4 = u64 [s1 + 0x158]\n  6071: t0 = u64 [s1 + 0x190]\n  6075: a5 = u64 [s1 + 0x198]\n  6079: a2 = u64 [s1 + 0x1a0]\n  6083: a5 = a5 | a2\n  6086: a3 = u64 [s1 + 0x1b0]\n  6090: a3 = a3 | t0\n  6093: a3 = a3 | a5\n  6096: a0 = 0 if a4 == 0\n  6098: u64 [s1 + 0x1a8] = a0\n  6102: jump @260 if a3 == 0\n      : @259 (gas: 1)\n  6105: jump @950\n      : @260 (gas: 2)\n  6108: a4 = 0\n  6110: jump @962\n      : @261 (gas: 11)\n  6113: a0 = s1 + 0x3998\n  6117: u64 [a0 + 1920] = 0\n  6121: u64 [a0 + 1912] = 0\n  6125: u64 [a0 + 1904] = 0\n  6129: u64 [a0 + 1896] = 0\n  6133: a0 = s1 + 0x4000\n  6137: i32 a0 = a0 + 0x100\n  6141: ra = 0xcc\n  6145: ecalli 17 // 'value_transferred'\n  6147: t0 = 0xce\n  6151: jump @2058\n      : @262 [@dyn 102] (gas: 1)\n  6155: t0 = 206, jump @2058\n      : @263 [@dyn 103] (gas: 1)\n  6162: t0 = 208, jump @2055\n      : @264 [@dyn 104] (gas: 1)\n  6169: jump @266 if a0 == 0\n      : @265 (gas: 1)\n  6172: jump @1163\n      : @266 (gas: 3)\n  6175: a0 = u64 [s1 + 0x1b8]\n  6179: a0 = i32 [a0]\n  6181: jump @268 if a0 >u 99\n      : @267 (gas: 1)\n  6185: jump @1164\n      : @268 (gas: 4)\n  6188: a0 = s1 + 0x3480\n  6192: ra = 0xd2\n  6196: t0 = 0x6b8\n  6200: jump @2079\n      : @269 [@dyn 105] (gas: 12)\n  6204: a1 = s1 + 0x3198\n  6208: a2 = a1 + 0x200\n  6212: a0 = u64 [a2 + 0xf8]\n  6216: u64 [s1 + 0x178] = a0\n  6220: a0 = u64 [a2 + 0xf0]\n  6224: u64 [s1 + 0x180] = a0\n  6228: a0 = u64 [a2 + 0xe8]\n  6232: u64 [s1 + 0x188] = a0\n  6236: a0 = s1 + 0x3460\n  6240: ra = 0xd4\n  6244: t0 = 0x6bc\n  6248: jump @2074\n      : @270 [@dyn 106] (gas: 5)\n  6252: a0 = s1 + 0x3198\n  6256: a0 = u64 [a0 + 0x2c8]\n  6260: u64 [s1 + 0x190] = a0\n  6264: a0 = s1 + 0x3440\n  6268: ra = 214, jump @1596\n      : @271 [@dyn 107] (gas: 6)\n  6275: a0 = s1 + 0x3198\n  6279: a0 = u64 [a0 + 0x2a8]\n  6283: u64 [s1 + 0x198] = a0\n  6287: a0 = s1 + 0x3420\n  6291: a1 = 0x40\n  6294: ra = 216, jump @22\n      : @272 [@dyn 108] (gas: 19)\n  6300: a0 = s1 + 0x3198\n  6304: a5 = a0 + 0x200\n  6308: a1 = u64 [a5 + 0xa0]\n  6312: u64 [s1 + 0x1a8] = a1\n  6316: a2 = u64 [a5 + 0x98]\n  6320: u64 [s1 + 0x1a0] = a2\n  6324: a4 = u64 [a5 + 0x90]\n  6328: u64 [s1 + 0x1b0] = a4\n  6332: a3 = u64 [a5 + 0x88]\n  6336: u64 [s1 + 0x1b8] = a3\n  6340: u64 [a5 + 0x80] = a1\n  6344: u64 [a5 + 0x78] = a2\n  6347: u64 [a5 + 0x70] = a4\n  6350: a1 = a0\n  6352: a0 = s1 + 0x3400\n  6356: u64 [a1 + 0x268] = a3\n  6360: ra = 0xda\n  6364: t0 = 0x74a\n  6368: jump @2010\n      : @273 [@dyn 109] (gas: 7)\n  6372: a3 = s1 + 0x100\n  6376: a0 = u64 [a3 + 0xa8]\n  6380: a1 = u64 [a3 + 0xb0]\n  6384: a0 = a0 | a1\n  6387: a2 = u64 [a3 + 0xa0]\n  6391: a1 = u64 [a3 + 0xb8]\n  6395: t0 = 220, jump @2050\n      : @274 [@dyn 110] (gas: 1)\n  6402: jump @276 if a0 == 0\n      : @275 (gas: 1)\n  6405: jump @1050\n      : @276 (gas: 8)\n  6408: a0 = s1 + 0x3198\n  6412: u64 [a0 + 608] = 0\n  6416: u64 [a0 + 600] = 0\n  6420: u64 [a0 + 592] = 0\n  6424: a1 = s1 + 0x33e0\n  6428: u64 [a0 + 584] = 0\n  6432: a0 = u64 [s1 + 0x1b8]\n  6436: ra = 222, jump @24\n      : @277 [@dyn 111] (gas: 5)\n  6442: a4 = s1 + 0x100\n  6446: a0 = u64 [a4 + 0xa8]\n  6450: a1 = u64 [a4 + 0xa0]\n  6454: a2 = a1 | a0\n  6457: t0 = 224, jump @2026\n      : @278 [@dyn 112] (gas: 1)\n  6464: jump @280 if a0 != 0\n      : @279 (gas: 1)\n  6467: jump @1050\n      : @280 (gas: 12)\n  6470: a0 = u64 [s1 + 0x1b8]\n  6474: i32 a0 = a0 + 0x20\n  6477: a1 = s1 + 0x3198\n  6481: u64 [s1 + 0x1a8] = a2\n  6485: a2 = a1\n  6487: u64 [a1 + 576] = 0\n  6491: u64 [a1 + 568] = 0\n  6495: u64 [a1 + 560] = 0\n  6499: a1 = s1 + 0x33c0\n  6503: u64 [a2 + 552] = 0\n  6507: u64 [s1 + 0x1a0] = a3\n  6511: ra = 226, jump @24\n      : @281 [@dyn 113] (gas: 4)\n  6517: a2 = s1 + 0x100\n  6521: a0 = u64 [a2 + 0xa0]\n  6525: a0 = a0 + 0xffffffffffffffc0\n  6528: t0 = 228, jump @2032\n      : @282 [@dyn 114] (gas: 1)\n  6535: jump @284 if a0 != 0\n      : @283 (gas: 1)\n  6538: jump @1050\n      : @284 (gas: 9)\n  6541: a0 = u64 [s1 + 0x1b8]\n  6545: i32 a0 = a0 + 0x40\n  6548: a2 = s1 + 0x3198\n  6552: u64 [a2 + 544] = 0\n  6556: u64 [a2 + 536] = 0\n  6560: u64 [a2 + 528] = 0\n  6564: a1 = s1 + 0x33a0\n  6568: u64 [a2 + 520] = 0\n  6572: ra = 230, jump @24\n      : @285 [@dyn 115] (gas: 3)\n  6578: a3 = s1 + 0x100\n  6582: a0 = u64 [a3 + 0x78]\n  6585: t0 = 232, jump @2089\n      : @286 [@dyn 116] (gas: 10)\n  6592: u64 [a2 + 512] = 0\n  6596: a1 = u64 [a3 + 0x80]\n  6600: a4 = a2 + 0x100\n  6604: u64 [a4 + 0xf0] = a1\n  6608: a1 = u64 [a3 + 0x88]\n  6612: u64 [a4 + 0xe8] = a1\n  6616: a1 = s1 + 0x3380\n  6620: u64 [a4 + 0xf8] = a0\n  6624: a0 = 0\n  6626: ra = 234, jump @24\n      : @287 [@dyn 117] (gas: 9)\n  6632: a1 = s1 + 0x3198\n  6636: u64 [a1 + 480] = 0\n  6640: u64 [a1 + 472] = 0\n  6644: u64 [a1 + 456] = 0x4\n  6649: a2 = a1\n  6651: a0 = 0x20\n  6654: a1 = s1 + 0x3360\n  6658: u64 [a2 + 464] = 0\n  6662: ra = 236, jump @24\n      : @288 [@dyn 118] (gas: 3)\n  6668: a1 = 0x20180\n  6673: a0 = i32 [0x20180]\n  6678: jump @290 if a0 >u 63\n      : @289 (gas: 3)\n  6682: u32 [0x20180] = 0x40\n  6688: t0 = 0xee\n  6692: jump @2082\n      : @290 (gas: 1)\n  6696: t0 = 238, jump @2082\n      : @291 [@dyn 119] (gas: 10)\n  6703: a0 = 0x20190\n  6708: i32 a0 = a0 + 0\n  6710: i32 a2 = a2 + 0\n  6712: u64 [s1 + 0x1b8] = a1\n  6716: a1 = 0x40\n  6719: u64 [s1 + 0x1b0] = a0\n  6723: ra = 0xf0\n  6727: ecalli 9 // 'hash_keccak_256'\n  6729: t0 = 0xf2\n  6733: jump @2070\n      : @292 [@dyn 120] (gas: 1)\n  6737: t0 = 242, jump @2070\n      : @293 [@dyn 121] (gas: 16)\n  6744: u64 [s1 + 0x1a8] = a0\n  6748: a0 = reverse a1\n  6750: u64 [s1 + 0x1a0] = a0\n  6754: a0 = reverse a2\n  6756: u64 [s1 + 0x188] = a0\n  6760: a0 = reverse a3\n  6762: u64 [s1 + 0x180] = a0\n  6766: a2 = s1 + 0x3198\n  6770: u64 [a2 + 448] = 0\n  6774: u64 [a2 + 440] = 0\n  6778: u64 [a2 + 432] = 0\n  6782: a1 = s1 + 0x3340\n  6786: a0 = u64 [s1 + 0x190]\n  6790: u64 [a2 + 0x1a8] = a0\n  6794: a0 = 0\n  6796: ra = 244, jump @24\n      : @294 [@dyn 122] (gas: 14)\n  6802: a0 = u64 [s1 + 0x180]\n  6806: a1 = s1 + 0x3198\n  6810: a2 = a1 + 0x100\n  6814: u64 [a2 + 0xa0] = a0\n  6818: a0 = u64 [s1 + 0x188]\n  6822: u64 [a2 + 0x98] = a0\n  6826: a0 = u64 [s1 + 0x1a0]\n  6830: u64 [a2 + 0x90] = a0\n  6834: a3 = a1\n  6836: a0 = 0x20\n  6839: a1 = s1 + 0x3320\n  6843: a2 = u64 [s1 + 0x1a8]\n  6847: u64 [a3 + 0x188] = a2\n  6851: ra = 246, jump @24\n      : @295 [@dyn 123] (gas: 3)\n  6857: a1 = u64 [s1 + 0x1b8]\n  6861: a0 = i32 [a1]\n  6863: jump @297 if a0 >u 63\n      : @296 (gas: 2)\n  6867: u32 [a1 + 0] = 0x40\n  6870: fallthrough\n      : @297 (gas: 4)\n  6871: a0 = sp + 0xffffffffffffffe0\n  6874: a0 = a0 & 0xffffffffffffffe0\n  6877: u64 [s1 + 0x1a8] = a0\n  6881: t0 = 248, jump @2001\n      : @298 [@dyn 124] (gas: 4)\n  6888: ra = 0xfa\n  6892: ecalli 9 // 'hash_keccak_256'\n  6894: t0 = 0xfc\n  6898: jump @2070\n      : @299 [@dyn 125] (gas: 1)\n  6902: t0 = 252, jump @2070\n      : @300 [@dyn 126] (gas: 2)\n  6909: u64 [s1 + 0x1a0] = a0\n  6913: t0 = 254, jump @2014\n      : @301 [@dyn 127] (gas: 4)\n  6920: u64 [s1 + 0x1a8] = a0\n  6924: sp = a0\n  6926: a0 = u64 [s1 + 0x198]\n  6930: t0 = 256, jump @2089\n      : @302 [@dyn 128] (gas: 7)\n  6937: u64 [a2 + 384] = 0\n  6941: u64 [a2 + 376] = 0\n  6945: u64 [a2 + 368] = 0\n  6949: a1 = s1 + 0x3300\n  6953: u64 [a2 + 0x168] = a0\n  6957: a0 = 0\n  6959: ra = 258, jump @24\n      : @303 [@dyn 129] (gas: 4)\n  6965: a0 = u64 [s1 + 0x180]\n  6969: a1 = s1 + 0x3198\n  6973: a2 = a1 + 0x100\n  6977: t0 = 260, jump @2100\n      : @304 [@dyn 130] (gas: 4)\n  6984: a1 = s1 + 0x32e0\n  6988: a2 = u64 [s1 + 0x1a0]\n  6992: u64 [a3 + 0x148] = a2\n  6996: ra = 262, jump @24\n      : @305 [@dyn 131] (gas: 3)\n  7002: a1 = u64 [s1 + 0x1b8]\n  7006: a0 = i32 [a1]\n  7008: jump @307 if a0 >=u 64\n      : @306 (gas: 2)\n  7012: u32 [a1 + 0] = 0x40\n  7015: fallthrough\n      : @307 (gas: 4)\n  7016: a0 = sp + 0xffffffffffffffe0\n  7019: a0 = a0 & 0xffffffffffffffe0\n  7022: u64 [s1 + 0x1b8] = a0\n  7026: t0 = 264, jump @2001\n      : @308 [@dyn 132] (gas: 5)\n  7033: ra = 0x10a\n  7037: ecalli 9 // 'hash_keccak_256'\n  7039: a3 = u64 [s1 + 0x1b8]\n  7043: t0 = 0x10c\n  7047: jump @2012\n      : @309 [@dyn 133] (gas: 2)\n  7051: a3 = u64 [s1 + 0x1b8]\n  7055: t0 = 268, jump @2012\n      : @310 [@dyn 134] (gas: 8)\n  7062: a4 = u64 [s1 + 0x1a8]\n  7066: u64 [a4 + 0x18] = a3\n  7069: u64 [a4 + 0x10] = a2\n  7072: u64 [a4 + 0x8] = a1\n  7075: u64 [a4] = a0\n  7077: a0 = s1 + 0x32c0\n  7081: a1 = 0x40\n  7084: ra = 270, jump @22\n      : @311 [@dyn 135] (gas: 18)\n  7090: a1 = s1 + 0x3198\n  7094: a5 = a1 + 0x100\n  7098: a0 = u64 [a5 + 0x40]\n  7101: u64 [s1 + 0x1a0] = a0\n  7105: a2 = u64 [a5 + 0x38]\n  7108: u64 [s1 + 0x198] = a2\n  7112: a4 = u64 [a5 + 0x30]\n  7115: u64 [s1 + 0x1b0] = a4\n  7119: a3 = u64 [a5 + 0x28]\n  7122: u64 [s1 + 0x1b8] = a3\n  7126: u64 [a5 + 0x20] = a0\n  7129: u64 [a5 + 0x18] = a2\n  7132: u64 [a5 + 0x10] = a4\n  7135: a0 = s1 + 0x32a0\n  7139: u64 [a5 + 0x8] = a3\n  7142: ra = 0x110\n  7146: t0 = 0x74a\n  7150: jump @2010\n      : @312 [@dyn 136] (gas: 3)\n  7154: a0 = s1 + 0x3280\n  7158: a1 = u64 [s1 + 0x1a8]\n  7162: ra = 274, jump @26\n      : @313 [@dyn 137] (gas: 7)\n  7168: a3 = s1 + 0x100\n  7172: a0 = u64 [a3 + 0xa0]\n  7176: a1 = u64 [a3 + 0xb0]\n  7180: a0 = a0 | a1\n  7183: a2 = u64 [a3 + 0x98]\n  7187: a1 = u64 [a3 + 0xb8]\n  7191: t0 = 276, jump @2050\n      : @314 [@dyn 138] (gas: 1)\n  7198: jump @316 if a0 == 0\n      : @315 (gas: 1)\n  7201: jump @1050\n      : @316 (gas: 13)\n  7204: a2 = s1 + 0x3198\n  7208: a0 = u64 [a2 + 0xe8]\n  7212: u64 [s1 + 0x1a8] = a0\n  7216: a0 = a0 & 0xff\n  7220: a0 = a0 >u 0\n  7222: u64 [a2 + 224] = 0\n  7226: u64 [a2 + 216] = 0\n  7230: u64 [a2 + 208] = 0\n  7234: a1 = s1 + 0x3260\n  7238: u64 [s1 + 0x190] = a0\n  7242: u64 [a2 + 0xc8] = a0\n  7246: a0 = u64 [s1 + 0x1b8]\n  7250: ra = 278, jump @24\n      : @317 [@dyn 139] (gas: 5)\n  7256: a4 = s1 + 0x100\n  7260: a0 = u64 [a4 + 0xa0]\n  7264: a1 = u64 [a4 + 0x98]\n  7268: a2 = a1 | a0\n  7271: t0 = 280, jump @2026\n      : @318 [@dyn 140] (gas: 1)\n  7278: jump @320 if a0 != 0\n      : @319 (gas: 1)\n  7281: jump @1050\n      : @320 (gas: 17)\n  7284: a1 = u64 [s1 + 0x1a8]\n  7288: a0 = a1 & 0xff00\n  7293: u64 [s1 + 0x198] = a3\n  7297: a3 = a0 >u 0\n  7299: a0 = u64 [s1 + 0x1b8]\n  7303: i32 a0 = a0 + 0x20\n  7306: a1 = s1 + 0x3198\n  7310: u64 [s1 + 0x1a0] = a2\n  7314: a2 = a1\n  7316: a4 = 0\n  7318: u64 [a1 + 192] = 0\n  7322: u64 [a1 + 184] = 0\n  7326: u64 [a1 + 176] = 0\n  7330: a1 = s1 + 0x3240\n  7334: u64 [a2 + 0xa8] = a3\n  7338: u64 [s1 + 0x188] = a0\n  7342: ra = 282, jump @24\n      : @321 [@dyn 141] (gas: 10)\n  7348: a2 = s1 + 0x100\n  7352: a0 = u64 [a2 + 0x98]\n  7356: a0 = a0 + 0xffffffffffffffc0\n  7359: a1 = u64 [a2 + 0xb8]\n  7363: a0 = a1 <u a0\n  7366: a1 = u64 [a2 + 0xb0]\n  7370: a0 = 0 if a1 != 0\n  7372: a1 = u64 [a2 + 0xa0]\n  7376: a0 = 0 if a1 != 0\n  7378: jump @323 if a0 != 0\n      : @322 (gas: 1)\n  7381: jump @1050\n      : @323 (gas: 14)\n  7384: a4 = s1 + 0x100\n  7388: a1 = u64 [a4 + 0xa8]\n  7392: a0 = a1 & 0xff0000\n  7398: a2 = a0 >u 0\n  7400: a0 = u64 [a4 + 0xb8]\n  7404: i32 a0 = a0 + 0x40\n  7407: a3 = s1 + 0x3198\n  7411: u64 [a3 + 160] = 0\n  7415: u64 [a3 + 152] = 0\n  7419: u64 [a3 + 144] = 0\n  7423: a1 = s1 + 0x3220\n  7427: u64 [a3 + 0x88] = a2\n  7431: u64 [a4 + 0xb0] = a0\n  7435: ra = 284, jump @24\n      : @324 [@dyn 142] (gas: 3)\n  7441: a0 = s1 + 0x3200\n  7445: a1 = 0x40\n  7448: ra = 286, jump @22\n      : @325 [@dyn 143] (gas: 14)\n  7454: t0 = s1 + 0x3198\n  7458: a1 = t0\n  7460: a4 = u64 [a1 + 0x80]\n  7464: a5 = u64 [a1 + 0x78]\n  7467: a3 = u64 [a1 + 0x70]\n  7470: a0 = u64 [a1 + 0x68]\n  7473: a2 = a3 | a4\n  7476: a1 = a0 | a5\n  7479: a1 = a1 | a2\n  7482: a1 = a1 >> 0x20\n  7485: a2 = a2 | a5\n  7488: a2 = a2 << 0x20\n  7491: a1 = a1 | a2\n  7494: jump @327 if a1 == 0\n      : @326 (gas: 1)\n  7497: jump @1050\n      : @327 (gas: 11)\n  7500: u64 [t0 + 96] = 0\n  7503: u64 [t0 + 88] = 0\n  7506: u64 [t0 + 80] = 0\n  7509: a1 = s1 + 0x31e0\n  7513: u64 [s1 + 0x1a8] = a3\n  7517: a3 = u64 [s1 + 0x190]\n  7521: u64 [t0 + 0x48] = a3\n  7524: u64 [s1 + 0x1b8] = a0\n  7528: u64 [s1 + 0x1a0] = a4\n  7532: u64 [s1 + 0x198] = a5\n  7536: ra = 288, jump @24\n      : @328 [@dyn 144] (gas: 3)\n  7542: a0 = s1 + 0x31c0\n  7546: a1 = u64 [s1 + 0x188]\n  7550: ra = 290, jump @22\n      : @329 [@dyn 145] (gas: 12)\n  7556: a2 = s1 + 0x100\n  7560: a3 = u64 [a2 + 0xa8]\n  7564: a4 = u64 [a2 + 0xb8]\n  7568: a0 = u64 [a2 + 0xa0]\n  7572: a1 = u64 [a2 + 0x98]\n  7576: a1 = a1 | a0\n  7579: a2 = 0x100000000\n  7589: a0 = 0xffffffe0\n  7599: a0 = a4 <u a0\n  7602: a0 = 0 if a3 != 0\n  7604: a0 = 0 if a1 != 0\n  7606: jump @331 if a0 != 0\n      : @330 (gas: 1)\n  7609: jump @1050\n      : @331 (gas: 18)\n  7612: a5 = s1 + 0x3198\n  7616: a0 = u64 [a5 + 0x40]\n  7619: u64 [s1 + 0x1a0] = a1\n  7623: a1 = u64 [a5 + 0x38]\n  7626: u64 [s1 + 0x198] = a2\n  7630: a2 = u64 [a5 + 0x28]\n  7633: a3 = u64 [a5 + 0x30]\n  7636: a1 = a1 | a2\n  7639: a0 = a0 | a3\n  7642: a0 = a0 | a1\n  7645: a1 = a0 >u 0\n  7647: i32 a0 = a4 + 0x20\n  7650: u64 [a5 + 32] = 0\n  7653: u64 [a5 + 24] = 0\n  7656: u64 [a5 + 0x8] = a1\n  7659: a1 = s1 + 0x31a0\n  7663: u64 [a5 + 16] = 0\n  7666: ra = 292, jump @24\n      : @332 [@dyn 146] (gas: 3)\n  7672: a0 = s1 + 0x3180\n  7676: a1 = u64 [s1 + 0x1b0]\n  7680: ra = 294, jump @22\n      : @333 [@dyn 147] (gas: 10)\n  7686: a2 = s1 + 0x100\n  7690: a4 = u64 [a2 + 0xb8]\n  7694: a0 = u64 [a2 + 0x98]\n  7698: a0 = a0 + 0xffffffffffffffc0\n  7701: a0 = a4 <u a0\n  7704: a1 = u64 [a2 + 0xa8]\n  7708: a0 = 0 if a1 != 0\n  7710: a1 = u64 [a2 + 0xa0]\n  7714: a0 = 0 if a1 != 0\n  7716: jump @335 if a0 != 0\n      : @334 (gas: 1)\n  7719: jump @1050\n      : @335 (gas: 18)\n  7722: a3 = s1 + 0x3198\n  7726: a0 = u64 [a3]\n  7728: a5 = a3 + 0xffffffffffffff00\n  7732: a1 = u64 [a5 + 0xf8]\n  7736: a2 = u64 [a5 + 0xe8]\n  7740: a3 = u64 [a5 + 0xf0]\n  7744: a1 = a1 | a2\n  7747: a0 = a0 | a3\n  7750: a0 = a0 | a1\n  7753: a1 = a0 >u 0\n  7755: i32 a0 = a4 + 0x40\n  7758: a2 = s1 + 0x2998\n  7762: u64 [a2 + 2016] = 0\n  7766: u64 [a2 + 2008] = 0\n  7770: u64 [a2 + 0x7c8] = a1\n  7774: a1 = s1 + 0x3160\n  7778: u64 [a2 + 2000] = 0\n  7782: ra = 296, jump @24\n      : @336 [@dyn 148] (gas: 4)\n  7788: a1 = 0x60\n  7791: a0 = u64 [s1 + 0x1b8]\n  7795: ra = 0x378\n  7799: jump @37\n      : @337 (gas: 10)\n  7802: u64 [a2 + 1504] = 0\n  7806: u64 [a2 + 1496] = 0\n  7810: u64 [a2 + 1488] = 0\n  7814: u64 [a2 + 1480] = 0\n  7818: a0 = s1 + 0x3000\n  7822: i32 a0 = a0 + 0x760\n  7826: ra = 0x12a\n  7830: ecalli 17 // 'value_transferred'\n  7832: t0 = 0x12c\n  7836: jump @2090\n      : @338 [@dyn 149] (gas: 1)\n  7840: t0 = 300, jump @2090\n      : @339 [@dyn 150] (gas: 1)\n  7847: t0 = 302, jump @2096\n      : @340 [@dyn 151] (gas: 1)\n  7854: jump @342 if a0 == 0\n      : @341 (gas: 1)\n  7857: jump @1165\n      : @342 (gas: 3)\n  7860: a0 = u64 [s1 + 0x1b8]\n  7864: a0 = i32 [a0]\n  7866: jump @344 if a0 >u 3\n      : @343 (gas: 1)\n  7870: jump @1166\n      : @344 (gas: 17)\n  7873: a0 = s1 + 0x3000\n  7877: i32 a0 = a0 + 0x780\n  7881: ecalli 10 // 'now'\n  7883: a0 = s1 + 0x3198\n  7887: a1 = u64 [a0 + 0x600]\n  7891: a2 = s1 + 0x100\n  7895: u64 [a2 + 0x78] = a1\n  7898: a3 = a0 + 0x500\n  7902: a1 = u64 [a3 + 0xf8]\n  7906: u64 [a2 + 0x70] = a1\n  7909: a1 = u64 [a3 + 0xf0]\n  7913: u64 [a2 + 0xb8] = a1\n  7917: a0 = u64 [a3 + 0xe8]\n  7921: u64 [a2 + 0xb0] = a0\n  7925: a0 = s1 + 0x400\n  7929: a1 = 0x40\n  7932: ra = 304, jump @22\n      : @345 [@dyn 152] (gas: 6)\n  7938: a4 = s1 + 0x400\n  7942: a0 = u64 [a4 + 0x18]\n  7945: a1 = u64 [a4 + 0x10]\n  7948: a2 = u64 [a4 + 0x8]\n  7951: a3 = u64 [a4]\n  7953: t0 = 306, jump @2018\n      : @346 [@dyn 153] (gas: 1)\n  7960: jump @348 if a0 == 0\n      : @347 (gas: 1)\n  7963: jump @1050\n      : @348 (gas: 46)\n  7966: u64 [s1 + 0x138] = a3\n  7970: t1 = u64 [s1 + 0x170]\n  7974: a0 = clz t1\n  7976: a0 = a0 + 0x40\n  7979: ra = u64 [s1 + 0x178]\n  7983: a2 = clz ra\n  7985: a2 = a0 if ra == 0\n  7988: t2 = u64 [s1 + 0x1b0]\n  7992: a0 = clz t2\n  7994: a0 = a0 + 0x40\n  7997: t0 = u64 [s1 + 0x1b8]\n  8001: a1 = clz t0\n  8003: a1 = a0 if t0 == 0\n  8006: a0 = a1 + 0x80\n  8010: a3 = t1 | ra\n  8013: a2 = a0 if a3 == 0\n  8016: a5 = a0 <u a1\n  8019: a5 = 0 if a3 != 0\n  8021: a4 = a5 >u 0\n  8023: a0 = a2 <u 0xf0\n  8027: a3 = a0 ^ 0x1\n  8030: a4 = a3 if a5 == 0\n  8033: a0 = a4 <u 0x1\n  8036: a0 = a0 + 0xffffffffffffffff\n  8039: a1 = -a4\n  8041: a5 = -a5\n  8043: a3 = a5 - a3\n  8046: a2 = 0xef - a2\n  8050: u64 [s1 + 0x198] = a1\n  8054: a5 = a1 >u 0\n  8056: a1 = a0 >u 0\n  8058: a1 = a5 if a0 == 0\n  8061: a5 = a3 >u 0\n  8063: u64 [s1 + 0x188] = a2\n  8067: a2 = a2 <u 0x100\n  8071: a2 = a2 ^ 0x1\n  8074: a2 = a5 if a3 != 0\n  8077: a2 = a1 if a4 != 0\n  8080: a1 = t2 | t1\n  8083: a4 = t0 | ra\n  8086: a1 = a1 | a4\n  8089: a1 = a1 <u 0x1\n  8092: a1 = a1 | a2\n  8095: a4 = t2\n  8097: a4 = 0 if a1 != 0\n  8099: jump @350 if a1 == 0\n      : @349 (gas: 1)\n  8102: jump @1245\n      : @350 (gas: 7)\n  8105: a1 = u64 [s1 + 0x188]\n  8109: a1 = a1 ^ 0xff\n  8113: a2 = u64 [s1 + 0x198]\n  8117: a1 = a1 | a2\n  8120: a2 = a3 | a0\n  8123: a1 = a1 | a2\n  8126: jump @352 if a1 != 0\n      : @351 (gas: 1)\n  8129: jump @1245\n      : @352 (gas: 20)\n  8132: a4 = u64 [s1 + 0x188]\n  8136: a2 = a4 + 0x1\n  8139: u64 [s1 + 0x1a8] = a2\n  8143: a1 = a2 <u 0x1\n  8146: a1 = a1 + a3\n  8149: u64 [s1 + 0x1a0] = a1\n  8153: a1 = a1 | a2\n  8156: a1 = a1 <u 0x1\n  8159: a3 = u64 [s1 + 0x198]\n  8163: a1 = a1 + a3\n  8166: u64 [s1 + 0x190] = a1\n  8170: a1 = a1 <u a3\n  8173: a0 = a0 + a1\n  8176: u64 [s1 + 0x198] = a0\n  8180: a1 = 0xff - a4\n  8184: u64 [s1 + 0x160] = a1\n  8188: a2 = 0x80 - a1\n  8192: a0 = u64 [s1 + 0x1b0]\n  8196: a1 = u64 [s1 + 0x1b8]\n  8200: ra = 308, jump @2101\n      : @353 [@dyn 154] (gas: 6)\n  8207: u64 [s1 + 0x158] = a0\n  8211: u64 [s1 + 0x168] = a1\n  8215: a0 = u64 [s1 + 0x170]\n  8219: a1 = u64 [s1 + 0x178]\n  8223: a2 = u64 [s1 + 0x160]\n  8227: ra = 310, jump @2106\n      : @354 [@dyn 155] (gas: 7)\n  8234: u64 [s1 + 0x150] = a0\n  8238: u64 [s1 + 0x148] = a1\n  8242: a0 = u64 [s1 + 0x160]\n  8246: a2 = a0 + 0xffffffffffffff80\n  8249: a0 = u64 [s1 + 0x1b0]\n  8253: a1 = u64 [s1 + 0x1b8]\n  8257: ra = 312, jump @2106\n      : @355 [@dyn 156] (gas: 8)\n  8264: u64 [s1 + 0x140] = a0\n  8268: u64 [s1 + 0x130] = a1\n  8272: a2 = u64 [s1 + 0x160]\n  8276: a0 = a2 <u 0x80\n  8280: u64 [s1 + 0x128] = a0\n  8284: a0 = u64 [s1 + 0x1b0]\n  8288: a1 = u64 [s1 + 0x1b8]\n  8292: ra = 314, jump @2106\n      : @356 [@dyn 157] (gas: 13)\n  8299: a4 = s1 + 0x100\n  8303: u64 [a4 + 0x80] = a1\n  8307: a1 = u64 [a4 + 0xa0]\n  8311: a2 = u64 [a4 + 0x98]\n  8315: a2 = a2 | a1\n  8318: a1 = u64 [a4 + 0xa8]\n  8322: a3 = u64 [a4 + 0x90]\n  8326: a1 = a1 | a3\n  8329: a1 = a1 | a2\n  8332: a3 = u64 [a4 + 0x28]\n  8335: a0 = 0 if a3 == 0\n  8337: u64 [a4 + 0x88] = a0\n  8341: jump @358 if a1 != 0\n      : @357 (gas: 1)\n  8344: jump @1243\n      : @358 (gas: 30)\n  8347: a2 = a3\n  8349: a0 = u64 [s1 + 0x168]\n  8353: a1 = u64 [s1 + 0x148]\n  8357: a0 = a0 | a1\n  8360: a5 = a3\n  8362: a1 = u64 [s1 + 0x130]\n  8366: a0 = a1 if a2 == 0\n  8369: a2 = u64 [s1 + 0x178]\n  8373: a3 = a2\n  8375: a1 = a2\n  8377: a2 = u64 [s1 + 0x160]\n  8381: a3 = a0 if a2 != 0\n  8384: u64 [s1 + 0x168] = a3\n  8388: a0 = u64 [s1 + 0x158]\n  8392: a3 = u64 [s1 + 0x150]\n  8396: a0 = a0 | a3\n  8399: a3 = u64 [s1 + 0x140]\n  8403: a0 = a3 if a5 == 0\n  8406: a4 = u64 [s1 + 0x170]\n  8410: a3 = a4\n  8412: a3 = a0 if a2 != 0\n  8415: u64 [s1 + 0x160] = a3\n  8419: a0 = u64 [s1 + 0x180]\n  8423: a0 = 0 if a5 == 0\n  8425: u64 [s1 + 0x180] = a0\n  8429: u64 [s1 + 336] = 0x15180\n  8436: a0 = u64 [s1 + 0x1a8]\n  8440: a2 = a0 + 0xffffffffffffff80\n  8443: a0 = a4\n  8445: ra = 316, jump @2101\n      : @359 [@dyn 158] (gas: 6)\n  8452: u64 [s1 + 0x158] = a0\n  8456: u64 [s1 + 0x140] = a1\n  8460: a0 = u64 [s1 + 0x1b0]\n  8464: a1 = u64 [s1 + 0x1b8]\n  8468: a2 = u64 [s1 + 0x1a8]\n  8472: ra = 318, jump @2101\n      : @360 [@dyn 159] (gas: 7)\n  8479: u64 [s1 + 0x130] = a0\n  8483: u64 [s1 + 0x148] = a1\n  8487: a1 = u64 [s1 + 0x1a8]\n  8491: a2 = 0x80 - a1\n  8495: a0 = u64 [s1 + 0x170]\n  8499: a1 = u64 [s1 + 0x178]\n  8503: ra = 320, jump @2106\n      : @361 [@dyn 160] (gas: 20)\n  8510: a2 = u64 [s1 + 0x148]\n  8514: a1 = a1 | a2\n  8517: a2 = u64 [s1 + 0x1a8]\n  8521: a3 = a2 <u 0x80\n  8525: u64 [s1 + 0x148] = a3\n  8529: a4 = u64 [s1 + 0x140]\n  8533: a1 = a4 if a3 == 0\n  8536: a4 = u64 [s1 + 0x1b8]\n  8540: a4 = a1 if a2 != 0\n  8543: u64 [s1 + 0x1b8] = a4\n  8547: a1 = u64 [s1 + 0x130]\n  8551: a0 = a0 | a1\n  8554: a1 = u64 [s1 + 0x158]\n  8558: a0 = a1 if a3 == 0\n  8561: a1 = u64 [s1 + 0x1b0]\n  8565: a1 = a0 if a2 != 0\n  8568: u64 [s1 + 0x1b0] = a1\n  8572: a0 = u64 [s1 + 0x170]\n  8576: a1 = u64 [s1 + 0x178]\n  8580: ra = 322, jump @2101\n      : @362 [@dyn 161] (gas: 16)\n  8587: t2 = u64 [s1 + 0x1b0]\n  8591: t1 = u64 [s1 + 0x1b8]\n  8595: u64 [s1 + 376] = 0\n  8599: u64 [s1 + 368] = 0\n  8603: a4 = s1 + 0x100\n  8607: a2 = u64 [a4 + 0x48]\n  8610: a1 = 0 if a2 == 0\n  8612: a0 = 0 if a2 == 0\n  8614: u64 [a4 + 0x58] = a0\n  8617: a3 = u64 [a4 + 0x50]\n  8620: a2 = a3 + 0xffffffffffffffff\n  8623: u64 [a4 + 0x48] = a2\n  8626: a2 = a3 >u 0\n  8628: a2 = a2 + 0xffffffffffffffff\n  8631: u64 [a4 + 0x40] = a2\n  8634: fallthrough\n      : @363 (gas: 89)\n  8635: a2 = t2 >> 0x3f\n  8638: a3 = t1 << 0x1\n  8641: a2 = a2 | a3\n  8644: a3 = t2 << 0x1\n  8647: t2 = u64 [s1 + 0x168]\n  8651: a4 = t2 >> 0x3f\n  8654: a3 = a3 | a4\n  8657: u64 [s1 + 0x1b8] = a3\n  8661: ra = u64 [s1 + 0x140]\n  8665: a0 = t1\n  8667: t1 = ra ^ a2\n  8670: t0 = ra <u a2\n  8673: a4 = u64 [s1 + 0x148]\n  8677: a5 = a4 <u a3\n  8680: a5 = t0 if t1 != 0\n  8683: a1 = a1 << 0x1\n  8686: a4 = u64 [s1 + 0x158]\n  8690: a3 = a4 >> 0x3f\n  8693: a1 = a1 | a3\n  8696: u64 [s1 + 0x1b0] = a1\n  8700: a3 = a0 >> 0x3f\n  8703: a0 = a4 << 0x1\n  8706: a3 = a3 | a0\n  8709: a0 = t2 << 0x1\n  8712: a4 = u64 [s1 + 0x160]\n  8716: a1 = a4 >> 0x3f\n  8719: t0 = a0 | a1\n  8722: a1 = a4 << 0x1\n  8725: a4 = u64 [s1 + 0x180]\n  8729: t1 = a4 >> 0x3f\n  8732: t1 = a1 | t1\n  8735: a1 = a4 << 0x1\n  8738: a4 = u64 [s1 + 0x188]\n  8742: t2 = a4 >> 0x3f\n  8745: a1 = a1 | t2\n  8748: a4 = a4 << 0x1\n  8751: a0 = u64 [s1 + 0x178]\n  8755: a4 = a4 | a0\n  8758: u64 [s1 + 0x188] = a4\n  8762: a0 = u64 [s1 + 0x170]\n  8766: a1 = a1 | a0\n  8769: u64 [s1 + 0x180] = a1\n  8773: a1 = a0 | t1\n  8776: u64 [s1 + 0x160] = a1\n  8780: a0 = a0 | t0\n  8783: u64 [s1 + 0x168] = a0\n  8787: a0 = ra - a3\n  8790: a0 = a0 <u a5\n  8793: a1 = ra <u a3\n  8796: a5 = u64 [s1 + 0x1b0]\n  8800: a4 = ra - a5\n  8803: a4 = a4 - a1\n  8806: a4 = a4 - a0\n  8809: ra = a4 >>a 0x3f\n  8812: a0 = u64 [s1 + 0x150]\n  8816: a0 = ra & a0\n  8819: a1 = u64 [s1 + 0x1b8]\n  8823: t2 = a1 - a0\n  8826: a1 = a1 <u a0\n  8829: t1 = a2 - a1\n  8832: a1 = 0 if a2 != 0\n  8834: a0 = a3 - a1\n  8837: u64 [s1 + 0x158] = a0\n  8841: a1 = a3 <u a1\n  8844: a1 = a5 - a1\n  8847: a0 = s1 + 0x100\n  8851: a3 = u64 [a0 + 0xa8]\n  8855: a5 = u64 [a0 + 0xa0]\n  8859: a2 = a3 | a5\n  8862: a2 = a2 <u 0x1\n  8865: a4 = u64 [a0 + 0x90]\n  8869: t0 = a4 <u a2\n  8872: a2 = a4 - a2\n  8875: a4 = a3 <u 0x1\n  8878: a5 = a5 - a4\n  8881: a4 = u64 [a0 + 0x98]\n  8885: a4 = a4 - t0\n  8888: a3 = a3 + 0xffffffffffffffff\n  8891: u64 [a0 + 0xa0] = a5\n  8895: u64 [a0 + 0x98] = a4\n  8899: t0 = a5 | a4\n  8902: u64 [a0 + 0xa8] = a3\n  8906: a4 = a3 | a2\n  8909: a3 = a4 | t0\n  8912: a4 = ra & 0x1\n  8915: u64 [a0 + 0x78] = a4\n  8918: u64 [a0 + 0x90] = a2\n  8922: u64 [s1 + 368] = 0\n  8926: jump @363 if a3 != 0\n      : @364 (gas: 1)\n  8930: jump @1244\n      : @365 (gas: 11)\n  8933: a0 = s1 + 0x3998\n  8937: u64 [a0 + 480] = 0\n  8941: u64 [a0 + 472] = 0\n  8945: u64 [a0 + 464] = 0\n  8949: u64 [a0 + 456] = 0\n  8953: a0 = s1 + 0x4000\n  8957: i32 a0 = a0 + 0xfffffffffffffb60\n  8961: ra = 0x144\n  8965: ecalli 17 // 'value_transferred'\n  8967: t0 = 0x146\n  8971: jump @2094\n      : @366 [@dyn 162] (gas: 1)\n  8975: t0 = 326, jump @2094\n      : @367 [@dyn 163] (gas: 1)\n  8982: t0 = 328, jump @2096\n      : @368 [@dyn 164] (gas: 1)\n  8989: jump @370 if a0 == 0\n      : @369 (gas: 1)\n  8992: jump @1167\n      : @370 (gas: 1)\n  8995: t0 = 330, jump @2045\n      : @371 [@dyn 165] (gas: 1)\n  9002: jump @373 if a1 <u a0\n      : @372 (gas: 1)\n  9005: jump @1168\n      : @373 (gas: 4)\n  9008: a0 = s1 + 0x1720\n  9012: ra = 0x14c\n  9016: t0 = 0x6b8\n  9020: jump @2079\n      : @374 [@dyn 166] (gas: 3)\n  9024: t0 = 0x14e\n  9028: a3 = s1 + 0x1158\n  9032: fallthrough\n      : @375 [@dyn 167] (gas: 15)\n  9033: a4 = a3 + 0x500\n  9037: a0 = u64 [a4 + 0xc8]\n  9041: a1 = u64 [a4 + 0xd0]\n  9045: a2 = u32 [a3 + 0x5d8]\n  9049: u64 [a3 + 1472] = 0\n  9053: a3 = s1 + 0x100\n  9057: u64 [a3 + 0x50] = a2\n  9060: u64 [a4 + 0xb8] = a2\n  9064: u64 [a3 + 0x58] = a1\n  9067: u64 [a4 + 0xb0] = a1\n  9071: a1 = s1 + 0x1700\n  9075: u64 [a3 + 0x60] = a0\n  9078: u64 [a4 + 0xa8] = a0\n  9082: a0 = 0\n  9084: ra = 336, jump @24\n      : @376 [@dyn 168] (gas: 9)\n  9090: a1 = s1 + 0x1158\n  9094: u64 [a1 + 1440] = 0\n  9098: u64 [a1 + 1432] = 0\n  9102: u64 [a1 + 1416] = 0x3\n  9107: a2 = a1\n  9109: a0 = 0x20\n  9112: a1 = s1 + 0x16e0\n  9116: u64 [a2 + 1424] = 0\n  9120: ra = 338, jump @24\n      : @377 [@dyn 169] (gas: 3)\n  9126: a1 = 0x20180\n  9131: a0 = i32 [0x20180]\n  9136: jump @379 if a0 >u 63\n      : @378 (gas: 2)\n  9140: u32 [0x20180] = 0x40\n  9146: fallthrough\n      : @379 (gas: 3)\n  9147: a0 = 0xffffffff\n  9157: u64 [s1 + 0x168] = a0\n  9161: t0 = 340, jump @2016\n      : @380 [@dyn 170] (gas: 11)\n  9168: a0 = 0x20190\n  9173: i32 a0 = a0 + 0\n  9175: i32 a2 = a2 + 0\n  9177: u64 [s1 + 0x1a0] = a1\n  9181: a1 = 0x40\n  9184: u64 [s1 + 0x198] = a0\n  9188: ra = 0x156\n  9192: ecalli 9 // 'hash_keccak_256'\n  9194: a3 = u64 [s1 + 0x1b8]\n  9198: t0 = 0x158\n  9202: jump @2004\n      : @381 [@dyn 171] (gas: 2)\n  9206: a3 = u64 [s1 + 0x1b8]\n  9210: t0 = 344, jump @2004\n      : @382 [@dyn 172] (gas: 8)\n  9217: u64 [a4 + 0x200] = a3\n  9221: a3 = a4 + 0x100\n  9225: u64 [a3 + 0xf8] = a2\n  9229: u64 [a3 + 0xf0] = a1\n  9233: u64 [a3 + 0xe8] = a0\n  9237: a0 = s1 + 0x16c0\n  9241: a1 = s1 + 0x3b80\n  9245: ra = 346, jump @26\n      : @383 [@dyn 173] (gas: 14)\n  9251: a2 = s1 + 0x1158\n  9255: a0 = u32 [a2 + 0x568]\n  9259: u64 [s1 + 0x148] = a0\n  9263: u64 [a2 + 1376] = 0\n  9267: a0 = u64 [s1 + 0x150]\n  9271: a3 = a2 + 0x500\n  9275: u64 [a3 + 0x58] = a0\n  9278: a0 = u64 [s1 + 0x158]\n  9282: u64 [a3 + 0x50] = a0\n  9285: a1 = s1 + 0x16a0\n  9289: a0 = u64 [s1 + 0x160]\n  9293: u64 [a3 + 0x48] = a0\n  9296: a0 = 0\n  9298: ra = 348, jump @24\n      : @384 [@dyn 174] (gas: 9)\n  9304: a0 = s1 + 0x1158\n  9308: u64 [a0 + 1344] = 0\n  9312: u64 [a0 + 1336] = 0\n  9316: u64 [a0 + 1328] = 0\n  9320: a3 = a0\n  9322: a0 = 0x20\n  9325: a1 = s1 + 0x1680\n  9329: u64 [a3 + 1320] = 0x1\n  9334: ra = 350, jump @24\n      : @385 [@dyn 175] (gas: 3)\n  9340: a1 = u64 [s1 + 0x1a0]\n  9344: a0 = i32 [a1]\n  9346: jump @387 if a0 >u 63\n      : @386 (gas: 2)\n  9350: u32 [a1 + 0] = 0x40\n  9353: fallthrough\n      : @387 (gas: 6)\n  9354: a0 = 0xffffffff00000000\n  9364: u64 [s1 + 0x120] = a0\n  9368: a0 = sp + 0xffffffffffffffe0\n  9371: a0 = a0 & 0xffffffffffffffe0\n  9374: u64 [s1 + 0x1b8] = a0\n  9378: t0 = 352, jump @2081\n      : @388 [@dyn 176] (gas: 5)\n  9385: ra = 0x162\n  9389: ecalli 9 // 'hash_keccak_256'\n  9391: a3 = u64 [s1 + 0x1b8]\n  9395: t0 = 0x164\n  9399: jump @1996\n      : @389 [@dyn 177] (gas: 2)\n  9403: a3 = u64 [s1 + 0x1b8]\n  9407: t0 = 356, jump @1996\n      : @390 [@dyn 178] (gas: 9)\n  9414: a1 = s1 + 0x3998\n  9418: a3 = a1 + 0x200\n  9422: u64 [a3 + 0x8] = a4\n  9425: u64 [a3 + 0x10] = a5\n  9428: u64 [a3 + 0x18] = a2\n  9431: u64 [a3 + 0x20] = a0\n  9434: a0 = s1 + 0x1660\n  9438: a1 = s1 + 0x3ba0\n  9442: ra = 358, jump @26\n      : @391 [@dyn 179] (gas: 12)\n  9448: a3 = s1 + 0x1158\n  9452: a0 = u64 [a3 + 0x508]\n  9456: a1 = u64 [s1 + 0x168]\n  9460: a2 = a0 & a1\n  9463: u64 [a3 + 1248] = 0\n  9467: u64 [a3 + 1240] = 0\n  9471: u64 [a3 + 1232] = 0\n  9475: a0 = s1 + 0x1640\n  9479: a1 = s1 + 0x1620\n  9483: u64 [s1 + 0x118] = a2\n  9487: u64 [a3 + 0x4c8] = a2\n  9491: ra = 360, jump @1824\n      : @392 [@dyn 180] (gas: 15)\n  9498: a3 = s1 + 0x1158\n  9502: a0 = u64 [a3 + 0x500]\n  9506: a1 = s1 + 0x100\n  9510: u64 [a1 + 0x28] = a0\n  9513: a2 = a3 + 0x400\n  9517: a0 = u64 [a2 + 0xf8]\n  9521: u64 [a1 + 0x30] = a0\n  9524: a0 = u64 [a2 + 0xf0]\n  9528: u64 [a1 + 0x38] = a0\n  9531: a0 = u64 [a2 + 0xe8]\n  9535: u64 [a1 + 0x40] = a0\n  9538: t0 = 0\n  9540: a5 = 0\n  9542: a4 = 0x1\n  9545: fallthrough\n      : @393 (gas: 9)\n  9546: a1 = 0\n  9548: a1 = 0 if a5 == 0\n  9550: a0 = u64 [s1 + 0x148]\n  9554: a0 = a0 <u a4\n  9557: a2 = 0\n  9559: a2 = a0 if a5 == 0\n  9562: a0 = 0\n  9564: a2 = a1 if a0 != 0\n  9567: jump @395 if a2 == 0\n      : @394 (gas: 1)\n  9570: jump @850\n      : @395 (gas: 14)\n  9573: u64 [s1 + 400] = 0\n  9577: u64 [s1 + 0x1a8] = t0\n  9581: u64 [s1 + 0x1b8] = a4\n  9585: u64 [a3 + 1216] = 0\n  9589: a0 = u64 [s1 + 0x160]\n  9593: a2 = a3 + 0x400\n  9597: u64 [a2 + 0xa8] = a0\n  9601: a0 = u64 [s1 + 0x158]\n  9605: u64 [a2 + 0xb0] = a0\n  9609: a1 = s1 + 0x1600\n  9613: a0 = u64 [s1 + 0x150]\n  9617: u64 [a2 + 0xb8] = a0\n  9621: a0 = 0\n  9623: ra = 362, jump @24\n      : @396 [@dyn 181] (gas: 9)\n  9629: a0 = s1 + 0x1158\n  9633: u64 [a0 + 1184] = 0\n  9637: u64 [a0 + 1176] = 0\n  9641: u64 [a0 + 1168] = 0\n  9645: a3 = a0\n  9647: a0 = 0x20\n  9650: a1 = s1 + 0x15e0\n  9654: u64 [a3 + 1160] = 0x2\n  9659: ra = 364, jump @24\n      : @397 [@dyn 182] (gas: 3)\n  9665: a1 = u64 [s1 + 0x1a0]\n  9669: a0 = i32 [a1]\n  9671: jump @399 if a0 >u 63\n      : @398 (gas: 2)\n  9675: u32 [a1 + 0] = 0x40\n  9678: fallthrough\n      : @399 (gas: 4)\n  9679: a0 = sp + 0xffffffffffffffe0\n  9682: a0 = a0 & 0xffffffffffffffe0\n  9685: u64 [s1 + 0x1b0] = a0\n  9689: t0 = 366, jump @2081\n      : @400 [@dyn 183] (gas: 5)\n  9696: ra = 0x170\n  9700: ecalli 9 // 'hash_keccak_256'\n  9702: a3 = u64 [s1 + 0x1b0]\n  9706: t0 = 0x172\n  9710: jump @2020\n      : @401 [@dyn 184] (gas: 2)\n  9714: a3 = u64 [s1 + 0x1b0]\n  9718: t0 = 370, jump @2020\n      : @402 [@dyn 185] (gas: 13)\n  9725: u64 [s1 + 0x1b0] = a0\n  9729: sp = a0\n  9731: a2 = s1 + 0x1158\n  9735: a0 = u64 [s1 + 0x190]\n  9739: a3 = a2 + 0x400\n  9743: u64 [a3 + 0x80] = a0\n  9747: u64 [a3 + 0x78] = a0\n  9750: u64 [a3 + 0x70] = a0\n  9753: a1 = s1 + 0x15c0\n  9757: a0 = u64 [s1 + 0x1b8]\n  9761: u64 [a3 + 0x68] = a0\n  9764: a0 = 0\n  9766: ra = 372, jump @24\n      : @403 [@dyn 186] (gas: 14)\n  9772: a0 = u64 [s1 + 0x170]\n  9776: a1 = s1 + 0x1158\n  9780: a2 = a1 + 0x400\n  9784: u64 [a2 + 0x60] = a0\n  9787: a0 = u64 [s1 + 0x178]\n  9791: u64 [a2 + 0x58] = a0\n  9794: a0 = u64 [s1 + 0x180]\n  9798: u64 [a2 + 0x50] = a0\n  9801: a3 = a1\n  9803: a0 = 0x20\n  9806: a1 = s1 + 0x15a0\n  9810: a2 = u64 [s1 + 0x188]\n  9814: u64 [a3 + 0x448] = a2\n  9818: ra = 374, jump @24\n      : @404 [@dyn 187] (gas: 3)\n  9824: a1 = u64 [s1 + 0x1a0]\n  9828: a0 = i32 [a1]\n  9830: jump @406 if a0 >u 63\n      : @405 (gas: 2)\n  9834: u32 [a1 + 0] = 0x40\n  9837: fallthrough\n      : @406 (gas: 4)\n  9838: a0 = sp + 0xffffffffffffffe0\n  9841: a0 = a0 & 0xffffffffffffffe0\n  9844: u64 [s1 + 0x190] = a0\n  9848: t0 = 376, jump @2081\n      : @407 [@dyn 188] (gas: 36)\n  9855: ecalli 9 // 'hash_keccak_256'\n  9857: a3 = u64 [s1 + 0x190]\n  9861: a0 = u64 [a3 + 0x18]\n  9864: a1 = u64 [a3 + 0x10]\n  9867: a2 = u64 [a3 + 0x8]\n  9870: a3 = u64 [a3]\n  9872: a4 = reverse a0\n  9874: a5 = reverse a1\n  9876: a2 = reverse a2\n  9878: t1 = reverse a3\n  9880: a0 = u64 [s1 + 0x1b0]\n  9884: u64 [a0 + 0x18] = t1\n  9887: u64 [a0 + 0x10] = a2\n  9890: u64 [a0 + 0x8] = a5\n  9893: u64 [a0] = a4\n  9895: t0 = a4 + 0x2\n  9898: u64 [s1 + 0x188] = a4\n  9902: a1 = t0 <u a4\n  9905: a0 = a5 + a1\n  9908: u64 [s1 + 0x180] = a5\n  9912: a3 = a0 <u a5\n  9915: a3 = a1 if a1 == 0\n  9918: a3 = a3 + a2\n  9921: u64 [s1 + 0x178] = a2\n  9925: a1 = a3 <u a2\n  9928: u64 [s1 + 0x190] = t1\n  9932: a1 = a1 + t1\n  9935: a4 = s1 + 0x3998\n  9939: u64 [a4 + 0x228] = t0\n  9943: a2 = a4 + 0x200\n  9947: u64 [a2 + 0x30] = a0\n  9950: u64 [a2 + 0x38] = a3\n  9953: u64 [a2 + 0x40] = a1\n  9956: a0 = s1 + 0x1580\n  9960: a1 = s1 + 0x3bc0\n  9964: ra = 378, jump @26\n      : @408 [@dyn 189] (gas: 2)\n  9970: a3 = s1 + 0x1158\n  9974: fallthrough\n      : @409 (gas: 3)\n  9975: a0 = u64 [a3 + 0x430]\n  9979: a0 = a0 & 0xff\n  9983: jump @411 if a0 == 0\n      : @410 (gas: 4)\n  9986: a1 = u64 [s1 + 0x168]\n  9990: a0 = u64 [s1 + 0x1b8]\n  9994: t0 = u64 [s1 + 0x1a8]\n  9998: jump @423\n      : @411 (gas: 3)\n 10001: a0 = s1 + 0x1560\n 10005: a1 = u64 [s1 + 0x1b0]\n 10009: ra = 380, jump @26\n      : @412 [@dyn 190] (gas: 3)\n 10015: t0 = 0x17e\n 10019: a3 = s1 + 0x1158\n 10023: fallthrough\n      : @413 [@dyn 191] (gas: 11)\n 10024: a4 = a3 + 0x400\n 10028: a0 = u64 [a4 + 0x10]\n 10031: a1 = u64 [a4 + 0x18]\n 10034: a2 = u64 [a4 + 0x8]\n 10037: a0 = a0 & 0xffffffffffffffff\n 10040: a1 = a1 & 0xffffffffffffffff\n 10043: a4 = u64 [s1 + 0x120]\n 10047: a2 = a2 & a4\n 10050: a1 = a1 | a2\n 10053: a0 = a0 | a1\n 10056: jump @410 if a0 == 0\n      : @414 (gas: 12)\n 10059: a0 = u64 [s1 + 0x188]\n 10063: a4 = a3 + 0x300\n 10067: u64 [a4 + 0xc8] = a0\n 10071: a0 = u64 [s1 + 0x180]\n 10075: u64 [a4 + 0xd0] = a0\n 10079: a0 = u64 [s1 + 0x178]\n 10083: u64 [a4 + 0xd8] = a0\n 10087: a0 = s1 + 0x1540\n 10091: a1 = s1 + 0x1520\n 10095: a2 = u64 [s1 + 0x190]\n 10099: u64 [a4 + 0xe0] = a2\n 10103: ra = 384, jump @1851\n      : @415 [@dyn 192] (gas: 41)\n 10110: a0 = s1 + 0x1158\n 10114: a0 = u64 [a0 + 0x400]\n 10118: a5 = s1 + 0x100\n 10122: u64 [a5 + 0x90] = a0\n 10126: a0 = s1 + 0x1158\n 10130: a0 = u64 [a0 + 0x3f8]\n 10134: u64 [a5 + 0x88] = a0\n 10138: a0 = s1 + 0x1158\n 10142: a0 = u64 [a0 + 0x3f0]\n 10146: u64 [a5 + 0x80] = a0\n 10150: a0 = s1 + 0x1158\n 10154: a0 = u64 [a0 + 0x3e8]\n 10158: u64 [a5 + 0x78] = a0\n 10161: a0 = u64 [a5 + 0x68]\n 10164: a1 = u64 [a5 + 0xa8]\n 10168: a1 = a1 & a0\n 10171: a0 = s1 + 0x1158\n 10175: u64 [a0 + 896] = 0\n 10179: a0 = s1 + 0x1158\n 10183: u64 [a0 + 888] = 0\n 10187: a0 = s1 + 0x1158\n 10191: u64 [a0 + 880] = 0\n 10195: a0 = s1 + 0x1158\n 10199: u64 [a5 + 0xb0] = a1\n 10203: u64 [a0 + 0x368] = a1\n 10207: a0 = s1 + 0x1158\n 10211: a1 = u64 [a5 + 0x28]\n 10214: u64 [a0 + 0x3a0] = a1\n 10218: a0 = s1 + 0x1158\n 10222: a1 = u64 [a5 + 0x30]\n 10225: u64 [a0 + 0x398] = a1\n 10229: a0 = s1 + 0x1158\n 10233: a1 = u64 [a5 + 0x38]\n 10236: u64 [a0 + 0x390] = a1\n 10240: a0 = s1 + 0x1500\n 10244: a1 = s1 + 0x14e0\n 10248: a2 = s1 + 0x14c0\n 10252: a3 = s1 + 0x1158\n 10256: a4 = u64 [a5 + 0x40]\n 10259: u64 [a3 + 0x388] = a4\n 10263: ra = 386, jump @1840\n      : @416 [@dyn 193] (gas: 14)\n 10270: a4 = s1 + 0x1158\n 10274: a5 = a4 + 0x300\n 10278: a1 = u64 [a5 + 0xc0]\n 10282: a2 = u64 [a5 + 0xb8]\n 10286: a3 = u64 [a5 + 0xb0]\n 10290: a0 = u64 [a5 + 0xa8]\n 10294: a1 = a1 | a3\n 10297: a3 = a0 | a2\n 10300: a3 = a3 | a1\n 10303: a3 = a3 >> 0x20\n 10306: a1 = a1 | a2\n 10309: a1 = a1 << 0x20\n 10312: a1 = a1 | a3\n 10315: jump @418 if a1 == 0\n      : @417 (gas: 1)\n 10318: jump @1050\n      : @418 (gas: 11)\n 10321: a1 = u64 [s1 + 0x178]\n 10325: a3 = a4 + 0x300\n 10329: u64 [a3 + 0x48] = a1\n 10332: a1 = u64 [s1 + 0x180]\n 10336: u64 [a3 + 0x50] = a1\n 10339: a1 = u64 [s1 + 0x188]\n 10343: u64 [a3 + 0x58] = a1\n 10346: a1 = s1 + 0x14a0\n 10350: a2 = u64 [s1 + 0x190]\n 10354: u64 [a3 + 0x60] = a2\n 10357: ra = 388, jump @24\n      : @419 [@dyn 194] (gas: 25)\n 10363: a0 = s1 + 0x1158\n 10367: u64 [a0 + 768] = 0\n 10371: a0 = s1 + 0x1158\n 10375: u64 [a0 + 760] = 0\n 10379: a0 = s1 + 0x1158\n 10383: u64 [a0 + 752] = 0\n 10387: a0 = s1 + 0x1158\n 10391: a1 = u64 [s1 + 0x1b0]\n 10395: u64 [a0 + 0x2e8] = a1\n 10399: a0 = s1 + 0x1158\n 10403: a1 = u64 [s1 + 0x128]\n 10407: u64 [a0 + 0x320] = a1\n 10411: a0 = s1 + 0x1158\n 10415: a1 = u64 [s1 + 0x130]\n 10419: u64 [a0 + 0x318] = a1\n 10423: a0 = s1 + 0x1158\n 10427: a1 = u64 [s1 + 0x138]\n 10431: u64 [a0 + 0x310] = a1\n 10435: a0 = s1 + 0x1480\n 10439: a1 = s1 + 0x1460\n 10443: a2 = s1 + 0x1440\n 10447: a3 = s1 + 0x1158\n 10451: a4 = u64 [s1 + 0x140]\n 10455: u64 [a3 + 0x308] = a4\n 10459: ra = 390, jump @1840\n      : @420 [@dyn 195] (gas: 2)\n 10466: a3 = s1 + 0x1158\n 10470: fallthrough\n      : @421 (gas: 8)\n 10471: a4 = s1 + 0x100\n 10475: a0 = u64 [a4 + 0xa8]\n 10479: a0 = a0 + 0x1\n 10482: a1 = u64 [a4 + 0x68]\n 10485: t0 = a0 & a1\n 10488: a0 = u64 [a4 + 0xb8]\n 10492: a2 = u64 [a4 + 0x18]\n 10495: jump @423 if t0 != a2\n      : @422 (gas: 1)\n 10498: jump @850\n      : @423 (gas: 4)\n 10501: a5 = 0\n 10503: a0 = a0 + 0x1\n 10506: a4 = a0 & a1\n 10509: jump @393\n      : @424 (gas: 10)\n 10512: a0 = s1 + 0x3998\n 10516: u64 [a0 + 1664] = 0\n 10520: u64 [a0 + 1656] = 0\n 10524: u64 [a0 + 1648] = 0\n 10528: u64 [a0 + 1640] = 0\n 10532: a0 = s1 + 0x4000\n 10536: i32 a0 = a0 + 0\n 10538: ra = 0x188\n 10542: ecalli 17 // 'value_transferred'\n 10544: fallthrough\n      : @425 [@dyn 196] (gas: 3)\n 10545: a3 = s1 + 0x3998\n 10549: a4 = a3 + 0x600\n 10553: t0 = 394, jump @2055\n      : @426 [@dyn 197] (gas: 1)\n 10560: jump @428 if a0 == 0\n      : @427 (gas: 1)\n 10563: jump @1169\n      : @428 (gas: 3)\n 10566: a0 = u64 [s1 + 0x1b8]\n 10570: a0 = i32 [a0]\n 10572: jump @430 if a0 >u 3\n      : @429 (gas: 1)\n 10576: jump @1170\n      : @430 (gas: 8)\n 10579: a0 = s1 + 0x3998\n 10583: u64 [a0 + 1696] = 0\n 10587: u64 [a0 + 1688] = 0\n 10591: u64 [a0 + 1680] = 0\n 10595: u64 [a0 + 1672] = 0\n 10599: a0 = s1 + 0x2cc0\n 10603: a1 = s1 + 0x4020\n 10607: ra = 396, jump @26\n      : @431 [@dyn 198] (gas: 3)\n 10613: t0 = 0x18e\n 10617: a1 = s1 + 0x2998\n 10621: fallthrough\n      : @432 [@dyn 199] (gas: 13)\n 10622: a2 = a1 + 0x300\n 10626: a0 = u64 [a2 + 0x40]\n 10629: a1 = s1 + 0x100\n 10633: u64 [a1 + 0xb8] = a0\n 10637: a0 = u64 [a2 + 0x38]\n 10640: u64 [a1 + 0xb0] = a0\n 10644: a0 = u64 [a2 + 0x30]\n 10647: u64 [a1 + 0xa8] = a0\n 10651: a0 = u64 [a2 + 0x28]\n 10654: u64 [a1 + 0xa0] = a0\n 10658: a0 = s1 + 0x2ca0\n 10662: a1 = 0x40\n 10665: ra = 400, jump @22\n      : @433 [@dyn 200] (gas: 7)\n 10671: a3 = s1 + 0x2998\n 10675: a5 = a3 + 0x300\n 10679: a0 = u64 [a5 + 0x20]\n 10682: a1 = u64 [a5 + 0x18]\n 10685: a2 = u64 [a5 + 0x10]\n 10688: a4 = u64 [a5 + 0x8]\n 10691: t0 = 402, jump @2044\n      : @434 [@dyn 201] (gas: 1)\n 10698: jump @436 if a0 == 0\n      : @435 (gas: 1)\n 10701: jump @1050\n      : @436 (gas: 15)\n 10704: a2 = s1 + 0x100\n 10708: a0 = u64 [a2 + 0xa0]\n 10712: a1 = a3 + 0x200\n 10716: u64 [a1 + 0xe8] = a0\n 10720: a0 = u64 [a2 + 0xa8]\n 10724: u64 [a1 + 0xf0] = a0\n 10728: a0 = u64 [a2 + 0xb0]\n 10732: u64 [a1 + 0xf8] = a0\n 10736: a1 = s1 + 0x2c80\n 10740: a0 = u64 [a2 + 0xb8]\n 10744: u64 [a3 + 0x300] = a0\n 10748: a0 = a4\n 10750: u64 [s1 + 0x1b8] = a4\n 10754: ra = 0x342\n 10758: jump @24\n      : @437 (gas: 11)\n 10761: a0 = s1 + 0x3998\n 10765: u64 [a0 + 448] = 0\n 10769: u64 [a0 + 440] = 0\n 10773: u64 [a0 + 432] = 0\n 10777: u64 [a0 + 424] = 0\n 10781: a0 = s1 + 0x4000\n 10785: i32 a0 = a0 + 0xfffffffffffffb40\n 10789: ra = 0x194\n 10793: ecalli 17 // 'value_transferred'\n 10795: t0 = 0x196\n 10799: jump @2094\n      : @438 [@dyn 202] (gas: 1)\n 10803: t0 = 406, jump @2094\n      : @439 [@dyn 203] (gas: 1)\n 10810: t0 = 408, jump @2056\n      : @440 [@dyn 204] (gas: 1)\n 10817: jump @442 if a0 == 0\n      : @441 (gas: 1)\n 10820: jump @1171\n      : @442 (gas: 3)\n 10823: a0 = u64 [s1 + 0x1b8]\n 10827: a0 = i32 [a0]\n 10829: jump @444 if a0 >u 3\n      : @443 (gas: 1)\n 10833: jump @1172\n      : @444 (gas: 3)\n 10836: a0 = s1 + 0x13a0\n 10840: a1 = 0x40\n 10843: ra = 410, jump @22\n      : @445 [@dyn 205] (gas: 3)\n 10849: t0 = 0x19c\n 10853: a3 = s1 + 0x1158\n 10857: fallthrough\n      : @446 [@dyn 206] (gas: 13)\n 10858: a5 = a3 + 0x200\n 10862: a4 = u64 [a5 + 0x60]\n 10865: a1 = u64 [a5 + 0x58]\n 10868: a2 = u64 [a5 + 0x50]\n 10871: a0 = u64 [a5 + 0x48]\n 10874: a4 = a4 | a2\n 10877: a2 = a0 | a1\n 10880: a2 = a2 | a4\n 10883: a2 = a2 >> 0x20\n 10886: a1 = a1 | a4\n 10889: a1 = a1 << 0x20\n 10892: a1 = a1 | a2\n 10895: jump @448 if a1 == 0\n      : @447 (gas: 1)\n 10898: jump @1050\n      : @448 (gas: 9)\n 10901: a1 = u64 [0x200a0]\n 10906: u64 [a3 + 576] = 0\n 10910: u64 [a3 + 568] = 0\n 10914: u64 [a3 + 0x228] = a1\n 10918: a1 = s1 + 0x1380\n 10922: u64 [a3 + 560] = 0\n 10926: u64 [s1 + 0x1b8] = a0\n 10930: ra = 0x342\n 10934: jump @24\n      : @449 (gas: 9)\n 10937: u64 [a2 + 1664] = 0\n 10941: u64 [a2 + 1656] = 0\n 10945: u64 [a2 + 1648] = 0\n 10949: u64 [a2 + 1640] = 0\n 10953: a0 = s1 + 0x4000\n 10957: i32 a0 = a0 + 0xfffffffffffff800\n 10961: ra = 0x19e\n 10965: ecalli 17 // 'value_transferred'\n 10967: fallthrough\n      : @450 [@dyn 207] (gas: 3)\n 10968: a3 = s1 + 0x3198\n 10972: a4 = a3 + 0x600\n 10976: t0 = 416, jump @2055\n      : @451 [@dyn 208] (gas: 1)\n 10983: jump @453 if a0 == 0\n      : @452 (gas: 1)\n 10986: jump @1173\n      : @453 (gas: 1)\n 10989: t0 = 418, jump @2045\n      : @454 [@dyn 209] (gas: 1)\n 10996: jump @456 if a1 <u a0\n      : @455 (gas: 1)\n 10999: jump @1174\n      : @456 (gas: 6)\n 11002: a0 = s1 + 0x4000\n 11006: i32 a0 = a0 + 0xfffffffffffff820\n 11010: a1 = 0x4\n 11013: ra = 0x1a4\n 11017: ecalli 3 // 'call_data_load'\n 11019: fallthrough\n      : @457 [@dyn 210] (gas: 7)\n 11020: a0 = s1 + 0x3198\n 11024: a5 = a0 + 0x600\n 11028: a1 = u64 [a5 + 0xa0]\n 11032: a2 = u64 [a5 + 0x98]\n 11036: a3 = u64 [a5 + 0x90]\n 11040: a4 = u64 [a5 + 0x88]\n 11044: t0 = 422, jump @2077\n      : @458 [@dyn 211] (gas: 1)\n 11051: jump @460 if a0 != 0\n      : @459 (gas: 1)\n 11054: jump @1175\n      : @460 (gas: 8)\n 11057: a0 = 0x30190\n 11062: u64 [s1 + 0x1b8] = a0\n 11066: i32 a0 = a0 + 0\n 11068: u64 [s1 + 0x188] = a0\n 11072: ra = 0x1a8\n 11076: ecalli 5 // 'caller'\n 11078: t0 = 0x1aa\n 11082: jump @2031\n      : @461 [@dyn 212] (gas: 1)\n 11086: t0 = 426, jump @2031\n      : @462 [@dyn 213] (gas: 7)\n 11093: u64 [s1 + 1944] = 0\n 11097: u64 [s1 + 0x790] = a1\n 11101: u64 [s1 + 0x788] = a0\n 11105: a1 = s1 + 0x780\n 11109: u64 [s1 + 0x780] = a3\n 11113: a0 = 0\n 11115: ra = 428, jump @24\n      : @463 [@dyn 214] (gas: 7)\n 11121: u64 [s1 + 1912] = 0\n 11125: u64 [s1 + 1904] = 0\n 11129: u64 [s1 + 1888] = 0x1\n 11134: a0 = 0x20\n 11137: a1 = s1 + 0x760\n 11141: u64 [s1 + 1896] = 0\n 11145: ra = 430, jump @24\n      : @464 [@dyn 215] (gas: 7)\n 11151: a0 = sp + 0xffffffffffffffe0\n 11154: a0 = a0 & 0xffffffffffffffe0\n 11157: u64 [s1 + 0x190] = a0\n 11161: sp = a0\n 11163: a2 = 0x20180\n 11168: a0 = i32 [0x20180]\n 11173: jump @466 if a0 >u 63\n      : @465 (gas: 2)\n 11177: u32 [0x20180] = 0x40\n 11183: fallthrough\n      : @466 (gas: 16)\n 11184: u64 [s1 + 0x160] = a2\n 11188: a0 = sp + 0xffffffffffffffe0\n 11191: a2 = a0 & 0xffffffffffffffe0\n 11194: u64 [s1 + 0x178] = a2\n 11198: sp = a2\n 11200: a0 = 0x20190\n 11205: u64 [s1 + 0x180] = a0\n 11209: i32 a0 = a0 + 0\n 11211: i32 a2 = a2 + 0\n 11213: a1 = 0x40\n 11216: u64 [s1 + 0x168] = a0\n 11220: ra = 0x1b0\n 11224: ecalli 9 // 'hash_keccak_256'\n 11226: a3 = u64 [s1 + 0x178]\n 11230: t0 = 0x1b2\n 11234: jump @2039\n      : @467 [@dyn 216] (gas: 2)\n 11238: a3 = u64 [s1 + 0x178]\n 11242: t0 = 434, jump @2039\n      : @468 [@dyn 217] (gas: 2)\n 11249: a0 = s1 + 0x740\n 11253: ra = 436, jump @26\n      : @469 [@dyn 218] (gas: 20)\n 11259: t0 = u64 [s1 + 0x758]\n 11263: a1 = u64 [s1 + 0x748]\n 11267: t2 = u64 [s1 + 0x750]\n 11271: t1 = u64 [s1 + 0x740]\n 11275: ra = u64 [s1 + 0x1a0]\n 11279: a0 = t0 ^ ra\n 11282: a2 = u64 [s1 + 0x1b0]\n 11286: a5 = a1 ^ a2\n 11289: a3 = a1 <u a2\n 11292: a2 = u64 [s1 + 0x1a8]\n 11296: a2 = t1 <u a2\n 11299: a2 = a3 if a5 != 0\n 11302: a3 = t0 <u ra\n 11305: a4 = u64 [s1 + 0x198]\n 11309: a5 = t2 <u a4\n 11312: a5 = a3 if a0 != 0\n 11315: a3 = t2 ^ a4\n 11318: a3 = a3 | a0\n 11321: a2 = a5 if a3 != 0\n 11324: jump @471 if a2 == 0\n      : @470 (gas: 1)\n 11327: jump @1179\n      : @471 (gas: 15)\n 11330: a0 = u64 [s1 + 0x1a8]\n 11334: a2 = s1 + 0x600\n 11338: u64 [a2 + 0xe0] = a0\n 11342: u64 [s1 + 0x700] = t1\n 11346: a0 = u64 [s1 + 0x1b0]\n 11350: u64 [a2 + 0xe8] = a0\n 11354: u64 [s1 + 0x708] = a1\n 11358: u64 [a2 + 0xf0] = a4\n 11362: u64 [s1 + 0x710] = t2\n 11366: u64 [s1 + 0x6f8] = ra\n 11370: a0 = s1 + 0x720\n 11374: a1 = s1 + 0x700\n 11378: a2 = s1 + 0x6e0\n 11382: u64 [s1 + 0x718] = t0\n 11386: ra = 438, jump @1765\n      : @472 [@dyn 219] (gas: 14)\n 11393: a4 = s1 + 0x700\n 11397: a0 = u64 [a4 + 0x38]\n 11400: a1 = u64 [a4 + 0x30]\n 11403: a2 = u64 [a4 + 0x28]\n 11406: a3 = u64 [a4 + 0x20]\n 11409: a4 = s1 + 0x3198\n 11413: a5 = a4 + 0x600\n 11417: u64 [a5 + 0xc0] = a0\n 11421: u64 [a5 + 0xb8] = a1\n 11425: u64 [a5 + 0xb0] = a2\n 11429: u64 [a5 + 0xa8] = a3\n 11433: a1 = s1 + 0x3840\n 11437: a0 = u64 [s1 + 0x190]\n 11441: ra = 440, jump @28\n      : @473 [@dyn 220] (gas: 5)\n 11447: a0 = u64 [s1 + 0x188]\n 11451: ra = 0x1ba\n 11455: ecalli 5 // 'caller'\n 11457: t0 = 0x1bc\n 11461: jump @2080\n      : @474 [@dyn 221] (gas: 1)\n 11465: t0 = 444, jump @2080\n      : @475 [@dyn 222] (gas: 4)\n 11472: ra = 0x1be\n 11476: ecalli 11 // 'ref_time_left'\n 11478: t0 = 0x1c0\n 11482: jump @2037\n      : @476 [@dyn 223] (gas: 1)\n 11486: t0 = 448, jump @2037\n      : @477 [@dyn 224] (gas: 38)\n 11493: a4 = a2 + 0x600\n 11497: u64 [a4 + 0xe0] = a1\n 11501: a1 = u64 [s1 + 0x198]\n 11505: u64 [a4 + 0xd8] = a1\n 11509: a1 = u64 [s1 + 0x1b0]\n 11513: u64 [a4 + 0xd0] = a1\n 11517: a1 = u64 [s1 + 0x1a8]\n 11521: u64 [a4 + 0xc8] = a1\n 11525: u32 [a2 + 1768] = 0\n 11529: a0 = a0 >u 0x8fc\n 11533: a1 = -a0\n 11535: a4 = a2 + 0x700\n 11539: u64 [a4 + 0x20] = a1\n 11542: u64 [a4 + 0x18] = a1\n 11545: u64 [a4 + 0x10] = a1\n 11548: u64 [a4 + 0x8] = a1\n 11551: a1 = a3 << 0x20\n 11554: a1 = a1 >> 0x20\n 11557: a0 = a0 << 0x23\n 11560: a0 = a0 | a1\n 11563: a1 = s1 + 0x3860\n 11567: a1 = a1 << 0x20\n 11570: a1 = a1 >> 0x20\n 11573: a2 = s1 + 0x38a0\n 11577: a2 = a2 << 0x20\n 11580: a3 = a2 | a1\n 11583: a4 = u64 [s1 + 0x180]\n 11587: a4 = a4 << 0x20\n 11590: a4 = a4 >> 0x20\n 11593: a1 = s1 + 0x3880\n 11597: a1 = a1 << 0x20\n 11600: a5 = a1 | a4\n 11603: a1 = 0xffffffffffffffff\n 11606: a2 = 0xffffffffffffffff\n 11609: ecalli 1 // 'call'\n 11611: u64 [s1 + 0x190] = a0\n 11615: a0 = s1 + 0x6c0\n 11619: ra = 450, jump @1782\n      : @478 [@dyn 225] (gas: 2)\n 11626: a0 = u64 [s1 + 0x190]\n 11630: jump @480 if a0 == 0\n      : @479 (gas: 1)\n 11633: jump @1180\n      : @480 (gas: 3)\n 11636: a0 = s1 + 0x680\n 11640: a1 = 0x40\n 11643: ra = 452, jump @22\n      : @481 [@dyn 226] (gas: 6)\n 11649: a4 = s1 + 0x600\n 11653: a0 = u64 [a4 + 0x98]\n 11657: a1 = u64 [a4 + 0x90]\n 11661: a2 = u64 [a4 + 0x88]\n 11665: a3 = u64 [a4 + 0x80]\n 11669: t0 = 454, jump @2018\n      : @482 [@dyn 227] (gas: 1)\n 11676: jump @484 if a0 == 0\n      : @483 (gas: 1)\n 11679: jump @1050\n      : @484 (gas: 12)\n 11682: a0 = u64 [s1 + 0x1a8]\n 11686: u64 [s1 + 0x660] = a0\n 11690: a0 = u64 [s1 + 0x1b0]\n 11694: u64 [s1 + 0x668] = a0\n 11698: a0 = u64 [s1 + 0x198]\n 11702: u64 [s1 + 0x670] = a0\n 11706: a1 = s1 + 0x660\n 11710: a0 = u64 [s1 + 0x1a0]\n 11714: u64 [s1 + 0x678] = a0\n 11718: a0 = a3\n 11720: u64 [s1 + 0x1b0] = a3\n 11724: ra = 456, jump @24\n      : @485 [@dyn 228] (gas: 6)\n 11730: a0 = u64 [s1 + 0x188]\n 11734: ra = 0x1ca\n 11738: ecalli 5 // 'caller'\n 11740: a2 = u64 [s1 + 0x1b8]\n 11744: t0 = 0x1cc\n 11748: jump @1999\n      : @486 [@dyn 229] (gas: 2)\n 11752: a2 = u64 [s1 + 0x1b8]\n 11756: t0 = 460, jump @1999\n      : @487 [@dyn 230] (gas: 25)\n 11763: t0 = a1 | a0\n 11766: a3 = a3 >> 0x20\n 11769: a2 = reverse a2\n 11771: a1 = a2 << 0x20\n 11774: a1 = a1 | a3\n 11777: a2 = a2 >> 0x20\n 11780: u64 [s1 + 1592] = 0\n 11784: a3 = u64 [0x20100]\n 11789: a4 = u64 [0x20108]\n 11794: a5 = u64 [0x20110]\n 11799: a0 = u64 [0x20118]\n 11804: u64 [s1 + 0x658] = a3\n 11808: a3 = s1 + 0x600\n 11812: u64 [a3 + 0x50] = a4\n 11815: u64 [a3 + 0x48] = a5\n 11818: u64 [a3 + 0x40] = a0\n 11821: u64 [a3 + 0x30] = a2\n 11824: u64 [a3 + 0x28] = a1\n 11827: a1 = 0x20\n 11830: a2 = s1 + 0x640\n 11834: a3 = s1 + 0x620\n 11838: u64 [s1 + 0x620] = t0\n 11842: a0 = u64 [s1 + 0x1b0]\n 11846: ra = 0x2c4\n 11850: jump @29\n      : @488 (gas: 1)\n 11853: jump @490 if a0 == 1872738698\n      : @489 (gas: 1)\n 11860: jump @1181\n      : @490 (gas: 11)\n 11863: a0 = s1 + 0x3998\n 11867: u64 [a0 + 640] = 0\n 11871: u64 [a0 + 632] = 0\n 11875: u64 [a0 + 624] = 0\n 11879: u64 [a0 + 616] = 0\n 11883: a0 = s1 + 0x4000\n 11887: i32 a0 = a0 + 0xfffffffffffffc00\n 11891: ra = 0x1ce\n 11895: ecalli 17 // 'value_transferred'\n 11897: t0 = 0x1d0\n 11901: jump @2059\n      : @491 [@dyn 231] (gas: 1)\n 11905: t0 = 464, jump @2059\n      : @492 [@dyn 232] (gas: 1)\n 11912: t0 = 466, jump @2055\n      : @493 [@dyn 233] (gas: 1)\n 11919: jump @495 if a0 == 0\n      : @494 (gas: 1)\n 11922: jump @1187\n      : @495 (gas: 3)\n 11925: a0 = u64 [s1 + 0x1b8]\n 11929: a0 = i32 [a0]\n 11931: jump @497 if a0 >u 3\n      : @496 (gas: 1)\n 11935: jump @1188\n      : @497 (gas: 17)\n 11938: a0 = s1 + 0x4000\n 11942: i32 a0 = a0 + 0xfffffffffffffc20\n 11946: ecalli 0 // 'balance'\n 11947: a0 = s1 + 0x3998\n 11951: a2 = a0 + 0x200\n 11955: a1 = u64 [a2 + 0xa0]\n 11959: a3 = s1 + 0x100\n 11963: u64 [a3 + 0xb8] = a1\n 11967: a1 = u64 [a2 + 0x98]\n 11971: u64 [a3 + 0xb0] = a1\n 11975: a1 = u64 [a2 + 0x90]\n 11979: u64 [a3 + 0xa8] = a1\n 11983: a0 = u64 [a2 + 0x88]\n 11987: u64 [a3 + 0xa0] = a0\n 11991: a0 = s1 + 0x17a0\n 11995: a1 = 0x40\n 11998: ra = 468, jump @22\n      : @498 [@dyn 234] (gas: 7)\n 12004: a3 = s1 + 0x1158\n 12008: a5 = a3 + 0x600\n 12012: a0 = u64 [a5 + 0x60]\n 12015: a1 = u64 [a5 + 0x58]\n 12018: a2 = u64 [a5 + 0x50]\n 12021: a4 = u64 [a5 + 0x48]\n 12024: t0 = 470, jump @2044\n      : @499 [@dyn 235] (gas: 1)\n 12031: jump @501 if a0 == 0\n      : @500 (gas: 1)\n 12034: jump @1050\n      : @501 (gas: 15)\n 12037: a2 = s1 + 0x100\n 12041: a0 = u64 [a2 + 0xa0]\n 12045: a5 = a3 + 0x600\n 12049: u64 [a5 + 0x28] = a0\n 12052: a0 = u64 [a2 + 0xa8]\n 12056: u64 [a5 + 0x30] = a0\n 12059: a0 = u64 [a2 + 0xb0]\n 12063: u64 [a5 + 0x38] = a0\n 12066: a1 = s1 + 0x1780\n 12070: a0 = u64 [a2 + 0xb8]\n 12074: u64 [a5 + 0x40] = a0\n 12077: a0 = a4\n 12079: u64 [s1 + 0x1b8] = a4\n 12083: ra = 0x342\n 12087: jump @24\n      : @502 (gas: 11)\n 12090: a0 = s1 + 0x3998\n 12094: u64 [a0 + 864] = 0\n 12098: u64 [a0 + 856] = 0\n 12102: u64 [a0 + 848] = 0\n 12106: u64 [a0 + 840] = 0\n 12110: a0 = s1 + 0x4000\n 12114: i32 a0 = a0 + 0xfffffffffffffce0\n 12118: ra = 0x1d8\n 12122: ecalli 17 // 'value_transferred'\n 12124: t0 = 0x1da\n 12128: jump @2093\n      : @503 [@dyn 236] (gas: 1)\n 12132: t0 = 474, jump @2093\n      : @504 [@dyn 237] (gas: 1)\n 12139: t0 = 476, jump @2088\n      : @505 [@dyn 238] (gas: 1)\n 12146: jump @507 if a0 == 0\n      : @506 (gas: 1)\n 12149: jump @1189\n      : @507 (gas: 3)\n 12152: a0 = u64 [s1 + 0x1b8]\n 12156: a0 = i32 [a0]\n 12158: jump @509 if a0 >u 67\n      : @508 (gas: 1)\n 12162: jump @1190\n      : @509 (gas: 4)\n 12165: a0 = s1 + 0x1dc0\n 12169: ra = 0x1de\n 12173: t0 = 0x6b8\n 12177: jump @2079\n      : @510 [@dyn 239] (gas: 11)\n 12181: a1 = s1 + 0x1958\n 12185: a0 = u64 [a1 + 0x468]\n 12189: u64 [s1 + 0x1b8] = a0\n 12193: a0 = u64 [a1 + 0x470]\n 12197: u64 [s1 + 0x1a8] = a0\n 12201: a0 = u32 [a1 + 0x478]\n 12205: u64 [s1 + 0x1a0] = a0\n 12209: a0 = s1 + 0x1da0\n 12213: ra = 0x1e0\n 12217: t0 = 0x6ca\n 12221: jump @2074\n      : @511 [@dyn 240] (gas: 3)\n 12225: t0 = 0x1e2\n 12229: a2 = s1 + 0x1958\n 12233: fallthrough\n      : @512 [@dyn 241] (gas: 14)\n 12234: a3 = a2 + 0x400\n 12238: a0 = u64 [a3 + 0x48]\n 12241: a4 = s1 + 0x100\n 12245: u64 [a4 + 0xb0] = a0\n 12249: u64 [a2 + 1088] = 0\n 12253: a0 = u64 [a4 + 0xa0]\n 12257: u64 [a3 + 0x38] = a0\n 12260: a0 = u64 [a4 + 0xa8]\n 12264: u64 [a3 + 0x30] = a0\n 12267: a1 = s1 + 0x1d80\n 12271: a0 = u64 [a4 + 0xb8]\n 12275: u64 [a3 + 0x28] = a0\n 12278: a0 = 0\n 12280: ra = 484, jump @24\n      : @513 [@dyn 242] (gas: 3)\n 12286: t0 = 0x1e6\n 12290: a1 = s1 + 0x1958\n 12294: fallthrough\n      : @514 [@dyn 243] (gas: 8)\n 12295: u64 [a1 + 1056] = 0\n 12299: u64 [a1 + 1048] = 0\n 12303: u64 [a1 + 1032] = 0x2\n 12308: a2 = a1\n 12310: a0 = 0x20\n 12313: a1 = s1 + 0x1d60\n 12317: u64 [a2 + 1040] = 0\n 12321: ra = 488, jump @24\n      : @515 [@dyn 244] (gas: 3)\n 12327: a1 = 0x20180\n 12332: a0 = i32 [0x20180]\n 12337: jump @517 if a0 >u 63\n      : @516 (gas: 2)\n 12341: u32 [0x20180] = 0x40\n 12347: fallthrough\n      : @517 (gas: 13)\n 12348: a0 = sp + 0xffffffffffffffe0\n 12351: a2 = a0 & 0xffffffffffffffe0\n 12354: u64 [s1 + 0x1a0] = a2\n 12358: sp = a2\n 12360: a0 = 0x20190\n 12365: i32 a0 = a0 + 0\n 12367: i32 a2 = a2 + 0\n 12369: u64 [s1 + 0x1b8] = a1\n 12373: a1 = 0x40\n 12376: u64 [s1 + 0x1a8] = a0\n 12380: ra = 0x1ea\n 12384: ecalli 9 // 'hash_keccak_256'\n 12386: fallthrough\n      : @518 [@dyn 245] (gas: 8)\n 12387: a3 = u64 [s1 + 0x1a0]\n 12391: a0 = u64 [a3 + 0x18]\n 12394: a1 = u64 [a3 + 0x10]\n 12397: a2 = u64 [a3 + 0x8]\n 12400: a3 = u64 [a3]\n 12402: a0 = reverse a0\n 12404: u64 [s1 + 0x1a0] = a0\n 12408: t0 = 492, jump @2014\n      : @519 [@dyn 246] (gas: 13)\n 12415: u64 [s1 + 0x198] = a0\n 12419: sp = a0\n 12421: a0 = u64 [s1 + 0x1b0]\n 12425: a0 = a0 << 0x20\n 12428: a0 = a0 >> 0x20\n 12431: a2 = s1 + 0x1958\n 12435: u64 [a2 + 1024] = 0\n 12439: u64 [a2 + 1016] = 0\n 12443: u64 [a2 + 1008] = 0\n 12447: a1 = s1 + 0x1d40\n 12451: u64 [a2 + 0x3e8] = a0\n 12455: a0 = 0\n 12457: ra = 494, jump @24\n      : @520 [@dyn 247] (gas: 14)\n 12463: a0 = u64 [s1 + 0x180]\n 12467: a1 = s1 + 0x1958\n 12471: a2 = a1 + 0x300\n 12475: u64 [a2 + 0xe0] = a0\n 12479: a0 = u64 [s1 + 0x188]\n 12483: u64 [a2 + 0xd8] = a0\n 12487: a0 = u64 [s1 + 0x190]\n 12491: u64 [a2 + 0xd0] = a0\n 12495: a3 = a1\n 12497: a0 = 0x20\n 12500: a1 = s1 + 0x1d20\n 12504: a2 = u64 [s1 + 0x1a0]\n 12508: u64 [a3 + 0x3c8] = a2\n 12512: ra = 496, jump @24\n      : @521 [@dyn 248] (gas: 3)\n 12518: a1 = u64 [s1 + 0x1b8]\n 12522: a0 = i32 [a1]\n 12524: jump @523 if a0 >u 63\n      : @522 (gas: 3)\n 12528: u32 [a1 + 0] = 0x40\n 12531: t0 = 0x1f2\n 12535: jump @2063\n      : @523 (gas: 1)\n 12539: t0 = 498, jump @2063\n      : @524 [@dyn 249] (gas: 4)\n 12546: ra = 0x1f4\n 12550: ecalli 9 // 'hash_keccak_256'\n 12552: t0 = 0x1f6\n 12556: jump @2011\n      : @525 [@dyn 250] (gas: 1)\n 12560: t0 = 502, jump @2011\n      : @526 [@dyn 251] (gas: 2)\n 12567: a0 = s1 + 0x1d00\n 12571: ra = 504, jump @26\n      : @527 [@dyn 252] (gas: 27)\n 12577: a4 = s1 + 0x1958\n 12581: a0 = u64 [a4 + 0x3b8]\n 12585: u64 [s1 + 0x190] = a0\n 12589: a0 = u64 [a4 + 0x3b0]\n 12593: u64 [s1 + 0x188] = a0\n 12597: a0 = u64 [a4 + 0x3a8]\n 12601: u64 [s1 + 0x198] = a0\n 12605: a0 = u64 [s1 + 0x1a8]\n 12609: a0 = a0 + 0x1\n 12612: a1 = a0 <u 0x1\n 12615: a2 = u64 [s1 + 0x1b0]\n 12619: a1 = a1 + a2\n 12622: a2 = a0 | a1\n 12625: a2 = a2 <u 0x1\n 12628: a3 = u64 [s1 + 0x1a0]\n 12632: a2 = a2 + a3\n 12635: a3 = a2 <u a3\n 12638: a5 = u64 [s1 + 0x1b8]\n 12642: a3 = a3 + a5\n 12645: a5 = a4 + 0x300\n 12649: u64 [a5 + 0x70] = a1\n 12652: u64 [a5 + 0x68] = a0\n 12655: u64 [a5 + 0x78] = a2\n 12658: a0 = s1 + 0x1ce0\n 12662: a1 = s1 + 0x1cc0\n 12666: u64 [a5 + 0x80] = a3\n 12670: ra = 506, jump @1734\n      : @528 [@dyn 253] (gas: 6)\n 12676: a5 = s1 + 0x1958\n 12680: a0 = u64 [a5 + 0x3a0]\n 12684: u64 [s1 + 0x178] = a0\n 12688: a0 = u64 [a5 + 0x398]\n 12692: u64 [s1 + 0x180] = a0\n 12696: t0 = 508, jump @2019\n      : @529 [@dyn 254] (gas: 3)\n 12703: a1 = u64 [a5 + 0x390]\n 12707: u64 [s1 + 0x170] = a1\n 12711: t0 = 510, jump @2043\n      : @530 [@dyn 255] (gas: 11)\n 12718: a4 = u64 [a5 + 0x388]\n 12722: u64 [s1 + 0x168] = a4\n 12726: a4 = s1 + 0x3998\n 12730: a5 = a4 + 0x300\n 12734: u64 [a5 + 0x80] = a1\n 12738: u64 [a5 + 0x78] = a3\n 12741: u64 [a5 + 0x70] = a2\n 12744: u64 [a5 + 0x68] = a0\n 12747: a0 = s1 + 0x1ca0\n 12751: a1 = s1 + 0x3d00\n 12755: ra = 512, jump @26\n      : @531 [@dyn 256] (gas: 3)\n 12761: t0 = 0x202\n 12765: a1 = s1 + 0x1958\n 12769: fallthrough\n      : @532 [@dyn 257] (gas: 7)\n 12770: a0 = u64 [a1 + 0x350]\n 12774: u64 [s1 + 0x158] = a0\n 12778: a0 = u64 [a1 + 0x348]\n 12782: u64 [s1 + 0x160] = a0\n 12786: a0 = s1 + 0x1c80\n 12790: a1 = 0x40\n 12793: ra = 516, jump @22\n      : @533 [@dyn 258] (gas: 3)\n 12799: t0 = 0x206\n 12803: a2 = s1 + 0x1958\n 12807: fallthrough\n      : @534 [@dyn 259] (gas: 14)\n 12808: a3 = a2 + 0x300\n 12812: a4 = u64 [a3 + 0x40]\n 12815: a5 = u64 [a3 + 0x38]\n 12818: a1 = u64 [a3 + 0x30]\n 12821: a0 = u64 [a3 + 0x28]\n 12824: u64 [s1 + 0x1b8] = a1\n 12828: a3 = a1 | a4\n 12831: a1 = a0 | a5\n 12834: a1 = a1 | a3\n 12837: a1 = a1 >> 0x20\n 12840: a3 = a3 | a5\n 12843: a3 = a3 << 0x20\n 12846: a1 = a1 | a3\n 12849: jump @536 if a1 == 0\n      : @535 (gas: 1)\n 12852: jump @1050\n      : @536 (gas: 13)\n 12855: a3 = 0xffffffff\n 12865: a1 = u64 [s1 + 0x198]\n 12869: u64 [s1 + 0x150] = a3\n 12873: a3 = a3 & a1\n 12876: u64 [a2 + 800] = 0\n 12880: u64 [a2 + 792] = 0\n 12884: u64 [a2 + 784] = 0\n 12888: a1 = s1 + 0x1c60\n 12892: u64 [a2 + 0x308] = a3\n 12896: u64 [s1 + 0x1b0] = a0\n 12900: u64 [s1 + 0x1a8] = a4\n 12904: u64 [s1 + 0x1a0] = a5\n 12908: ra = 520, jump @24\n      : @537 [@dyn 260] (gas: 12)\n 12914: a5 = s1 + 0x100\n 12918: a4 = u64 [a5 + 0xb0]\n 12922: a0 = u64 [a5 + 0xa8]\n 12926: a1 = u64 [a5 + 0xa0]\n 12930: a2 = a1 | a0\n 12933: a3 = 0x100000000\n 12943: a0 = 0xffffffe0\n 12953: a0 = a4 <u a0\n 12956: a1 = u64 [a5 + 0xb8]\n 12960: a0 = 0 if a1 != 0\n 12962: a0 = 0 if a2 != 0\n 12964: jump @539 if a0 != 0\n      : @538 (gas: 1)\n 12967: jump @1050\n      : @539 (gas: 25)\n 12970: a0 = u64 [s1 + 0x198]\n 12974: a0 = a0 >> 0x20\n 12977: u64 [s1 + 0x198] = a3\n 12981: a3 = u64 [s1 + 0x188]\n 12985: a1 = a3 << 0x20\n 12988: a0 = a0 | a1\n 12991: a1 = a3 >> 0x20\n 12994: u64 [s1 + 0x148] = a2\n 12998: a3 = u64 [s1 + 0x190]\n 13002: a2 = a3 << 0x20\n 13005: a1 = a1 | a2\n 13008: a2 = a3 >> 0x20\n 13011: a3 = a1 & 0xffffffffffffffff\n 13014: a1 = a0 & 0xffffffffffffffff\n 13017: a0 = u64 [s1 + 0x150]\n 13021: a2 = a2 & a0\n 13024: i32 a0 = a4 + 0x20\n 13027: a4 = s1 + 0x1958\n 13031: u64 [a4 + 768] = 0\n 13035: a5 = a4 + 0x200\n 13039: u64 [a5 + 0xf8] = a2\n 13043: u64 [a5 + 0xe8] = a1\n 13047: a1 = s1 + 0x1c40\n 13051: u64 [a5 + 0xf0] = a3\n 13055: ra = 522, jump @24\n      : @540 [@dyn 261] (gas: 10)\n 13061: a3 = s1 + 0x100\n 13065: a1 = u64 [a3 + 0xb0]\n 13069: a0 = u64 [a3 + 0x98]\n 13073: a0 = a0 + 0xffffffffffffffc0\n 13076: a0 = a1 <u a0\n 13079: a2 = u64 [a3 + 0xb8]\n 13083: a0 = 0 if a2 != 0\n 13085: a2 = u64 [a3 + 0x48]\n 13088: a0 = 0 if a2 != 0\n 13090: jump @542 if a0 != 0\n      : @541 (gas: 1)\n 13093: jump @1050\n      : @542 (gas: 8)\n 13096: i32 a0 = a1 + 0x40\n 13099: a2 = s1 + 0x1958\n 13103: u64 [a2 + 736] = 0\n 13107: u64 [a2 + 728] = 0\n 13111: u64 [a2 + 712] = 0xa0\n 13117: a1 = s1 + 0x1c20\n 13121: u64 [a2 + 720] = 0\n 13125: ra = 524, jump @24\n      : @543 [@dyn 262] (gas: 32)\n 13131: a0 = u64 [s1 + 0x1b0]\n 13135: a0 = a0 + 0xa0\n 13139: a1 = u64 [s1 + 0x1b0]\n 13143: a1 = a0 <u a1\n 13146: a3 = u64 [s1 + 0x1b8]\n 13150: a2 = a3 + a1\n 13153: a3 = a2 <u a3\n 13156: a3 = a1 if a1 == 0\n 13159: a1 = u64 [s1 + 0x1a0]\n 13163: a3 = a3 + a1\n 13166: a1 = a3 <u a1\n 13169: a4 = u64 [s1 + 0x1a8]\n 13173: a4 = a4 + a1\n 13176: a1 = s1 + 0x1958\n 13180: a5 = a1 + 0x200\n 13184: u64 [a5 + 0x70] = a2\n 13187: u64 [a5 + 0x68] = a0\n 13190: a0 = u64 [s1 + 0x178]\n 13194: u64 [a5 + 0xa0] = a0\n 13198: a0 = u64 [s1 + 0x180]\n 13202: u64 [a5 + 0x98] = a0\n 13206: a0 = u64 [s1 + 0x170]\n 13210: u64 [a5 + 0x90] = a0\n 13214: a0 = u64 [s1 + 0x168]\n 13218: u64 [a5 + 0x88] = a0\n 13222: u64 [a5 + 0x78] = a3\n 13225: a3 = a1\n 13227: a0 = s1 + 0x1c00\n 13231: a1 = s1 + 0x1be0\n 13235: a2 = s1 + 0x1bc0\n 13239: u64 [a3 + 0x280] = a4\n 13243: ra = 526, jump @1616\n      : @544 [@dyn 263] (gas: 10)\n 13249: a5 = s1 + 0x100\n 13253: a2 = u64 [a5 + 0x48]\n 13256: a1 = u64 [a5 + 0xb0]\n 13260: a4 = 0x100000000\n 13270: a0 = 0xffffffa0\n 13280: a0 = a1 <u a0\n 13283: a3 = u64 [a5 + 0xb8]\n 13287: a0 = 0 if a3 != 0\n 13289: a0 = 0 if a2 != 0\n 13291: jump @546 if a0 != 0\n      : @545 (gas: 1)\n 13294: jump @1050\n      : @546 (gas: 3)\n 13297: t0 = 0x210\n 13301: a2 = s1 + 0x1958\n 13305: fallthrough\n      : @547 [@dyn 264] (gas: 18)\n 13306: a3 = a2 + 0x200\n 13310: a0 = u64 [a3 + 0xc0]\n 13314: u64 [s1 + 0x180] = a0\n 13318: a0 = u64 [a3 + 0xb8]\n 13322: u64 [s1 + 0x178] = a0\n 13326: a0 = u64 [a3 + 0xb0]\n 13330: u64 [s1 + 0x188] = a0\n 13334: a0 = u64 [a3 + 0xa8]\n 13338: u64 [s1 + 0x190] = a0\n 13342: i32 a0 = a1 + 0x60\n 13345: u64 [a2 + 608] = 0\n 13349: u64 [a2 + 600] = 0\n 13353: a1 = u64 [s1 + 0x160]\n 13357: u64 [a3 + 0x48] = a1\n 13360: a1 = s1 + 0x1ba0\n 13364: u64 [a2 + 592] = 0\n 13368: u64 [s1 + 0x198] = a4\n 13372: ra = 530, jump @24\n      : @548 [@dyn 265] (gas: 10)\n 13378: a3 = s1 + 0x100\n 13382: a2 = u64 [a3 + 0xb0]\n 13386: a0 = u64 [a3 + 0x98]\n 13390: a0 = a0 + 0xffffffffffffff80\n 13393: a0 = a2 <u a0\n 13396: a1 = u64 [a3 + 0xb8]\n 13400: a0 = 0 if a1 != 0\n 13402: a1 = u64 [a3 + 0x48]\n 13405: a0 = 0 if a1 != 0\n 13407: jump @550 if a0 != 0\n      : @549 (gas: 1)\n 13410: jump @1050\n      : @550 (gas: 10)\n 13413: a0 = u8 [s1 + 0x158]\n 13417: a1 = a0 >u 0\n 13419: i32 a0 = a2 + 0x80\n 13423: a2 = s1 + 0x1958\n 13427: u64 [a2 + 576] = 0\n 13431: u64 [a2 + 568] = 0\n 13435: u64 [a2 + 0x228] = a1\n 13439: a1 = s1 + 0x1b80\n 13443: u64 [a2 + 560] = 0\n 13447: ra = 532, jump @24\n      : @551 [@dyn 266] (gas: 24)\n 13453: a0 = u64 [s1 + 0x1b0]\n 13457: t1 = u64 [s1 + 0x190]\n 13461: t0 = t1 <u a0\n 13464: a5 = u64 [s1 + 0x1b8]\n 13468: a1 = u64 [s1 + 0x188]\n 13472: a3 = a1 ^ a5\n 13475: a2 = a1 <u a5\n 13478: a2 = t0 if a3 == 0\n 13481: a3 = u64 [s1 + 0x1a0]\n 13485: a4 = u64 [s1 + 0x178]\n 13489: t2 = a4 - a3\n 13492: ra = a4 <u a3\n 13495: a4 = u64 [s1 + 0x1a8]\n 13499: a3 = u64 [s1 + 0x180]\n 13503: a4 = a3 - a4\n 13506: a4 = a4 - ra\n 13509: a3 = t2 <u a2\n 13512: a3 = a4 - a3\n 13515: a4 = t2 - a2\n 13518: a2 = a1 - a5\n 13521: a2 = a2 - t0\n 13524: a1 = t1 - a0\n 13527: a2 = a2 | a3\n 13530: jump @235\n      : @552 (gas: 10)\n 13533: a0 = s1 + 0x3998\n 13537: u64 [a0 + 0] = 0\n 13539: u64 [a0 + 4294967288] = 0\n 13542: u64 [a0 + 4294967280] = 0\n 13545: u64 [a0 + 4294967272] = 0\n 13548: a0 = s1 + 0x4000\n 13552: i32 a0 = a0 + 0xfffffffffffff980\n 13556: ra = 0x216\n 13560: ecalli 17 // 'value_transferred'\n 13562: fallthrough\n      : @553 [@dyn 267] (gas: 10)\n 13563: a3 = s1 + 0x3998\n 13567: a4 = a3 + 0xffffffffffffff00\n 13571: a0 = u64 [a4 + 0xf8]\n 13575: a1 = u64 [a3]\n 13577: a2 = u64 [a4 + 0xf0]\n 13581: a3 = u64 [a4 + 0xe8]\n 13585: a1 = a1 | a2\n 13588: a0 = a0 | a3\n 13591: a0 = a0 | a1\n 13594: jump @555 if a0 == 0\n      : @554 (gas: 1)\n 13597: jump @1191\n      : @555 (gas: 1)\n 13600: t0 = 536, jump @2045\n      : @556 [@dyn 268] (gas: 1)\n 13607: jump @558 if a1 <u a0\n      : @557 (gas: 1)\n 13610: jump @1192\n      : @558 (gas: 5)\n 13613: a0 = s1 + 0x7ff\n 13617: a0 = a0 + 0x4a1\n 13621: ra = 0x21a\n 13625: t0 = 0x6b8\n 13629: jump @2079\n      : @559 [@dyn 269] (gas: 13)\n 13633: a1 = s1 + 0x7ff\n 13637: a1 = a1 + 0x139\n 13641: a2 = a1 + 0x300\n 13645: a0 = u64 [a2 + 0x78]\n 13648: u64 [s1 + 0x188] = a0\n 13652: a0 = u64 [a2 + 0x70]\n 13655: u64 [s1 + 0x190] = a0\n 13659: a0 = u64 [a2 + 0x68]\n 13662: u64 [s1 + 0x198] = a0\n 13666: a0 = s1 + 0x7ff\n 13670: a0 = a0 + 0x481\n 13674: a1 = 0x40\n 13677: ra = 540, jump @22\n      : @560 [@dyn 270] (gas: 21)\n 13683: a0 = s1 + 0x7ff\n 13687: a0 = a0 + 0x139\n 13691: a5 = a0 + 0x300\n 13695: a1 = u64 [a5 + 0x60]\n 13698: u64 [s1 + 0x1a8] = a1\n 13702: a2 = u64 [a5 + 0x58]\n 13705: u64 [s1 + 0x1a0] = a2\n 13709: a4 = u64 [a5 + 0x50]\n 13712: u64 [s1 + 0x1b0] = a4\n 13716: a3 = u64 [a5 + 0x48]\n 13719: u64 [s1 + 0x1b8] = a3\n 13723: u64 [a5 + 0x40] = a1\n 13726: u64 [a5 + 0x38] = a2\n 13729: u64 [a5 + 0x30] = a4\n 13732: a1 = a0\n 13734: a0 = s1 + 0x7ff\n 13738: a0 = a0 + 0x461\n 13742: u64 [a1 + 0x328] = a3\n 13746: ra = 0x21e\n 13750: t0 = 0x72a\n 13754: jump @2010\n      : @561 [@dyn 271] (gas: 7)\n 13758: a3 = s1 + 0x100\n 13762: a0 = u64 [a3 + 0xa8]\n 13766: a1 = u64 [a3 + 0xb0]\n 13770: a0 = a0 | a1\n 13773: a2 = u64 [a3 + 0xa0]\n 13777: a1 = u64 [a3 + 0xb8]\n 13781: t0 = 544, jump @2050\n      : @562 [@dyn 272] (gas: 1)\n 13788: jump @564 if a0 == 0\n      : @563 (gas: 1)\n 13791: jump @1050\n      : @564 (gas: 10)\n 13794: a0 = s1 + 0x7ff\n 13798: a0 = a0 + 0x139\n 13802: u64 [a0 + 800] = 0\n 13806: u64 [a0 + 792] = 0\n 13810: u64 [a0 + 784] = 0\n 13814: a1 = s1 + 0x7ff\n 13818: a1 = a1 + 0x441\n 13822: u64 [a0 + 776] = 0\n 13826: a0 = u64 [s1 + 0x1b8]\n 13830: ra = 546, jump @24\n      : @565 [@dyn 273] (gas: 5)\n 13836: a4 = s1 + 0x100\n 13840: a0 = u64 [a4 + 0xa8]\n 13844: a2 = u64 [a4 + 0xa0]\n 13848: a2 = a2 | a0\n 13851: t0 = 548, jump @2026\n      : @566 [@dyn 274] (gas: 1)\n 13858: jump @568 if a0 != 0\n      : @567 (gas: 1)\n 13861: jump @1050\n      : @568 (gas: 14)\n 13864: a0 = u64 [s1 + 0x1b8]\n 13868: i32 a0 = a0 + 0x20\n 13871: a1 = s1 + 0x7ff\n 13875: a1 = a1 + 0x139\n 13879: u64 [s1 + 0x1a8] = a2\n 13883: a2 = a1\n 13885: u64 [a1 + 768] = 0\n 13889: u64 [a1 + 760] = 0\n 13893: u64 [a1 + 752] = 0\n 13897: a1 = s1 + 0x7ff\n 13901: a1 = a1 + 0x421\n 13905: u64 [a2 + 744] = 0\n 13909: u64 [s1 + 0x1a0] = a3\n 13913: ra = 550, jump @24\n      : @569 [@dyn 275] (gas: 10)\n 13919: a3 = s1 + 0x100\n 13923: a2 = u64 [a3 + 0xa8]\n 13927: a0 = u64 [a3 + 0xa0]\n 13931: a0 = a0 + 0xffffffffffffffc0\n 13934: a1 = u64 [a3 + 0xb8]\n 13938: a0 = a1 <u a0\n 13941: a1 = u64 [a3 + 0xb0]\n 13945: a0 = 0 if a1 != 0\n 13947: a0 = 0 if a2 != 0\n 13949: jump @571 if a0 != 0\n      : @570 (gas: 1)\n 13952: jump @1050\n      : @571 (gas: 11)\n 13955: a0 = u64 [s1 + 0x1b8]\n 13959: i32 a0 = a0 + 0x40\n 13962: a2 = s1 + 0x7ff\n 13966: a2 = a2 + 0x139\n 13970: u64 [a2 + 736] = 0\n 13974: u64 [a2 + 728] = 0\n 13978: u64 [a2 + 720] = 0\n 13982: a1 = s1 + 0x7ff\n 13986: a1 = a1 + 0x401\n 13990: u64 [a2 + 712] = 0\n 13994: ra = 552, jump @24\n      : @572 [@dyn 276] (gas: 3)\n 14000: a0 = 0xffffffa0\n 14010: a2 = s1 + 0x100\n 14014: t0 = 554, jump @2032\n      : @573 [@dyn 277] (gas: 1)\n 14021: jump @575 if a0 != 0\n      : @574 (gas: 1)\n 14024: jump @1050\n      : @575 (gas: 11)\n 14027: a0 = u64 [s1 + 0x1b8]\n 14031: i32 a0 = a0 + 0x60\n 14034: a2 = s1 + 0x7ff\n 14038: a2 = a2 + 0x139\n 14042: u64 [a2 + 704] = 0\n 14046: u64 [a2 + 696] = 0\n 14050: u64 [a2 + 688] = 0\n 14054: a1 = s1 + 0x7ff\n 14058: a1 = a1 + 0x3e1\n 14062: u64 [a2 + 680] = 0\n 14066: ra = 556, jump @24\n      : @576 [@dyn 278] (gas: 16)\n 14072: a0 = u64 [s1 + 0x188]\n 14076: a0 = a0 << 0x20\n 14079: a0 = a0 >> 0x20\n 14082: a2 = s1 + 0x7ff\n 14086: a2 = a2 + 0x139\n 14090: u64 [a2 + 672] = 0\n 14094: a1 = u64 [s1 + 0x190]\n 14098: a3 = a2 + 0x200\n 14102: u64 [a3 + 0x90] = a1\n 14106: a1 = u64 [s1 + 0x198]\n 14110: u64 [a3 + 0x88] = a1\n 14114: a1 = s1 + 0x7ff\n 14118: a1 = a1 + 0x3c1\n 14122: u64 [a3 + 0x98] = a0\n 14126: a0 = 0\n 14128: ra = 558, jump @24\n      : @577 [@dyn 279] (gas: 11)\n 14134: a1 = s1 + 0x7ff\n 14138: a1 = a1 + 0x139\n 14142: u64 [a1 + 640] = 0\n 14146: u64 [a1 + 632] = 0\n 14150: u64 [a1 + 616] = 0x1\n 14155: a2 = a1\n 14157: a0 = 0x20\n 14160: a1 = s1 + 0x7ff\n 14164: a1 = a1 + 0x3a1\n 14168: u64 [a2 + 624] = 0\n 14172: ra = 560, jump @24\n      : @578 [@dyn 280] (gas: 6)\n 14178: a0 = sp + 0xffffffffffffffe0\n 14181: a0 = a0 & 0xffffffffffffffe0\n 14184: u64 [s1 + 0x1b0] = a0\n 14188: sp = a0\n 14190: a1 = i32 [0x20180]\n 14195: jump @580 if a1 >u 63\n      : @579 (gas: 4)\n 14199: a1 = 0x40\n 14202: u32 [0x20180] = a1\n 14207: t0 = 0x232\n 14211: jump @2016\n      : @580 (gas: 1)\n 14215: t0 = 562, jump @2016\n      : @581 [@dyn 281] (gas: 8)\n 14222: a0 = 0x20190\n 14227: i32 a0 = a0 + 0\n 14229: i32 a2 = a2 + 0\n 14231: a1 = 0x40\n 14234: ra = 0x234\n 14238: ecalli 9 // 'hash_keccak_256'\n 14240: t0 = 0x236\n 14244: jump @2085\n      : @582 [@dyn 282] (gas: 1)\n 14248: t0 = 566, jump @2085\n      : @583 [@dyn 283] (gas: 15)\n 14255: a0 = reverse a2\n 14257: a1 = reverse a3\n 14259: u64 [s1 + 0x188] = a1\n 14263: a2 = u64 [s1 + 0x1b0]\n 14267: u64 [a2 + 0x18] = a1\n 14270: u64 [s1 + 0x190] = a0\n 14274: u64 [a2 + 0x10] = a0\n 14277: u64 [s1 + 0x180] = a4\n 14281: u64 [a2 + 0x8] = a4\n 14284: u64 [s1 + 0x178] = a5\n 14288: u64 [a2] = a5\n 14290: a0 = s1 + 0x7ff\n 14294: a0 = a0 + 0x381\n 14298: a1 = 0x40\n 14301: ra = 568, jump @22\n      : @584 [@dyn 284] (gas: 20)\n 14307: a1 = s1 + 0x7ff\n 14311: a1 = a1 + 0x139\n 14315: a5 = a1 + 0x200\n 14319: a0 = u64 [a5 + 0x60]\n 14322: u64 [s1 + 0x1a0] = a0\n 14326: a2 = u64 [a5 + 0x58]\n 14329: u64 [s1 + 0x198] = a2\n 14333: a4 = u64 [a5 + 0x50]\n 14336: u64 [s1 + 0x1a8] = a4\n 14340: a3 = u64 [a5 + 0x48]\n 14343: u64 [s1 + 0x1b8] = a3\n 14347: u64 [a5 + 0x40] = a0\n 14350: u64 [a5 + 0x38] = a2\n 14353: u64 [a5 + 0x30] = a4\n 14356: a0 = s1 + 0x7ff\n 14360: a0 = a0 + 0x361\n 14364: u64 [a5 + 0x28] = a3\n 14367: ra = 0x23a\n 14371: t0 = 0x72a\n 14375: jump @2010\n      : @585 [@dyn 285] (gas: 4)\n 14379: a0 = s1 + 0x7ff\n 14383: a0 = a0 + 0x341\n 14387: a1 = u64 [s1 + 0x1b0]\n 14391: ra = 572, jump @26\n      : @586 [@dyn 286] (gas: 7)\n 14397: a3 = s1 + 0x100\n 14401: a0 = u64 [a3 + 0xa0]\n 14405: a1 = u64 [a3 + 0xa8]\n 14409: a0 = a0 | a1\n 14412: a2 = u64 [a3 + 0x98]\n 14416: a1 = u64 [a3 + 0xb8]\n 14420: t0 = 574, jump @2050\n      : @587 [@dyn 287] (gas: 1)\n 14427: jump @589 if a0 == 0\n      : @588 (gas: 1)\n 14430: jump @1050\n      : @589 (gas: 19)\n 14433: a0 = s1 + 0x7ff\n 14437: a0 = a0 + 0x139\n 14441: a5 = a0 + 0x200\n 14445: a2 = u64 [a5 + 0x20]\n 14448: a1 = u64 [a5 + 0x18]\n 14451: a3 = u64 [a5 + 0x10]\n 14454: a4 = u64 [a5 + 0x8]\n 14457: u64 [s1 + 0x158] = a4\n 14461: u64 [a0 + 0x1e8] = a4\n 14465: u64 [s1 + 0x160] = a3\n 14469: u64 [a0 + 0x1f0] = a3\n 14473: u64 [s1 + 0x168] = a1\n 14477: u64 [a0 + 0x1f8] = a1\n 14481: a1 = s1 + 0x7ff\n 14485: a1 = a1 + 0x321\n 14489: u64 [s1 + 0x170] = a2\n 14493: u64 [a5] = a2\n 14495: a0 = u64 [s1 + 0x1b8]\n 14499: ra = 576, jump @24\n      : @590 [@dyn 288] (gas: 21)\n 14505: a0 = u64 [s1 + 0x178]\n 14509: a0 = a0 + 0x1\n 14512: a1 = a0 <u 0x1\n 14515: a2 = u64 [s1 + 0x180]\n 14519: a1 = a1 + a2\n 14522: a2 = a0 | a1\n 14525: a2 = a2 <u 0x1\n 14528: a3 = u64 [s1 + 0x190]\n 14532: a2 = a2 + a3\n 14535: a3 = a2 <u a3\n 14538: a4 = u64 [s1 + 0x188]\n 14542: a3 = a3 + a4\n 14545: a4 = s1 + 0x3998\n 14549: u64 [a4 + 0x10] = a1\n 14552: u64 [a4 + 0x8] = a0\n 14555: u64 [a4 + 0x18] = a2\n 14558: u64 [a4 + 0x20] = a3\n 14561: a0 = s1 + 0x7ff\n 14565: a0 = a0 + 0x301\n 14569: a1 = s1 + 0x39a0\n 14573: ra = 578, jump @26\n      : @591 [@dyn 289] (gas: 12)\n 14579: a4 = s1 + 0x100\n 14583: a0 = u64 [a4 + 0xa0]\n 14587: a2 = u64 [a4 + 0x98]\n 14591: a2 = a2 | a0\n 14594: a3 = 0x100000000\n 14604: a0 = 0xffffffe0\n 14614: a1 = u64 [a4 + 0xb8]\n 14618: a0 = a1 <u a0\n 14621: a1 = u64 [a4 + 0xa8]\n 14625: a0 = 0 if a1 != 0\n 14627: a0 = 0 if a2 != 0\n 14629: jump @593 if a0 != 0\n      : @592 (gas: 1)\n 14632: jump @1050\n      : @593 (gas: 19)\n 14635: a4 = s1 + 0x7ff\n 14639: a4 = a4 + 0x139\n 14643: t0 = u64 [a4 + 0x1e0]\n 14647: a5 = a4 + 0x100\n 14651: a1 = u64 [a5 + 0xd8]\n 14655: u64 [s1 + 0x1b0] = a2\n 14659: a2 = u64 [a5 + 0xd0]\n 14663: u64 [s1 + 0x1a0] = a3\n 14667: a3 = u64 [a5 + 0xc8]\n 14671: a0 = u64 [s1 + 0x1b8]\n 14675: i32 a0 = a0 + 0x20\n 14678: u64 [a5 + 0xa8] = a3\n 14682: u64 [a5 + 0xb0] = a2\n 14686: u64 [a5 + 0xb8] = a1\n 14690: a1 = s1 + 0x7ff\n 14694: a1 = a1 + 0x2e1\n 14698: u64 [a4 + 0x1c0] = t0\n 14702: u64 [s1 + 0x198] = a0\n 14706: ra = 580, jump @24\n      : @594 [@dyn 290] (gas: 3)\n 14712: a1 = u64 [s1 + 0x178]\n 14716: a0 = a1 + 0x2\n 14719: t0 = 582, jump @2024\n      : @595 [@dyn 291] (gas: 8)\n 14726: u64 [a4 + 0x30] = a2\n 14729: u64 [a4 + 0x28] = a0\n 14732: u64 [a4 + 0x38] = a3\n 14735: u64 [a4 + 0x40] = a1\n 14738: a0 = s1 + 0x7ff\n 14742: a0 = a0 + 0x2c1\n 14746: a1 = s1 + 0x39c0\n 14750: ra = 584, jump @26\n      : @596 [@dyn 292] (gas: 10)\n 14756: a3 = s1 + 0x100\n 14760: a2 = u64 [a3 + 0xb0]\n 14764: a0 = u64 [a3 + 0xa0]\n 14768: a0 = a0 + 0xffffffffffffffc0\n 14771: a1 = u64 [a3 + 0xb8]\n 14775: a0 = a1 <u a0\n 14778: a1 = u64 [a3 + 0xa8]\n 14782: a0 = 0 if a1 != 0\n 14784: a0 = 0 if a2 != 0\n 14786: jump @598 if a0 != 0\n      : @597 (gas: 1)\n 14789: jump @1050\n      : @598 (gas: 17)\n 14792: a4 = s1 + 0x7ff\n 14796: a4 = a4 + 0x139\n 14800: t0 = u64 [a4 + 0x1a0]\n 14804: a5 = a4 + 0x100\n 14808: a1 = u64 [a5 + 0x98]\n 14812: a2 = u64 [a5 + 0x90]\n 14816: a3 = u64 [a5 + 0x88]\n 14820: a0 = u64 [s1 + 0x1b8]\n 14824: i32 a0 = a0 + 0x40\n 14827: u64 [a5 + 0x68] = a3\n 14830: u64 [a5 + 0x70] = a2\n 14833: u64 [a5 + 0x78] = a1\n 14836: a1 = s1 + 0x7ff\n 14840: a1 = a1 + 0x2a1\n 14844: u64 [a4 + 0x180] = t0\n 14848: u64 [s1 + 0x1a0] = a0\n 14852: ra = 586, jump @24\n      : @599 [@dyn 293] (gas: 3)\n 14858: a1 = u64 [s1 + 0x178]\n 14862: a0 = a1 + 0x3\n 14865: t0 = 588, jump @2024\n      : @600 [@dyn 294] (gas: 8)\n 14872: u64 [a4 + 0x50] = a2\n 14875: u64 [a4 + 0x48] = a0\n 14878: u64 [a4 + 0x58] = a3\n 14881: u64 [a4 + 0x60] = a1\n 14884: a0 = s1 + 0x7ff\n 14888: a0 = a0 + 0x281\n 14892: a1 = s1 + 0x39e0\n 14896: ra = 590, jump @26\n      : @601 [@dyn 295] (gas: 9)\n 14902: a0 = 0xffffffa0\n 14912: a2 = s1 + 0x100\n 14916: a1 = u64 [a2 + 0xb8]\n 14920: a0 = a1 <u a0\n 14923: a1 = u64 [a2 + 0xa8]\n 14927: a0 = 0 if a1 != 0\n 14929: a1 = u64 [a2 + 0xb0]\n 14933: a0 = 0 if a1 != 0\n 14935: jump @603 if a0 != 0\n      : @602 (gas: 1)\n 14938: jump @1050\n      : @603 (gas: 15)\n 14941: a3 = s1 + 0x7ff\n 14945: a3 = a3 + 0x139\n 14949: a0 = u64 [a3 + 0x148]\n 14953: a0 = a0 << 0x20\n 14956: a2 = a0 >> 0x20\n 14959: a1 = u64 [s1 + 0x1b8]\n 14963: i32 a0 = a1 + 0x60\n 14966: u64 [a3 + 320] = 0\n 14970: u64 [a3 + 312] = 0\n 14974: u64 [a3 + 304] = 0\n 14978: a1 = s1 + 0x7ff\n 14982: a1 = a1 + 0x261\n 14986: u64 [a3 + 0x128] = a2\n 14990: u64 [s1 + 0x188] = a0\n 14994: ra = 592, jump @24\n      : @604 [@dyn 296] (gas: 4)\n 15000: a0 = s1 + 0x7ff\n 15004: a0 = a0 + 0x241\n 15008: a1 = 0x40\n 15011: ra = 594, jump @22\n      : @605 [@dyn 297] (gas: 20)\n 15017: a2 = s1 + 0x7ff\n 15021: a2 = a2 + 0x139\n 15025: a5 = a2 + 0x100\n 15029: a3 = u64 [a5 + 0x20]\n 15032: a4 = u64 [a5 + 0x18]\n 15035: a0 = u64 [a5 + 0x10]\n 15038: a1 = u64 [a5 + 0x8]\n 15041: a5 = s1 + 0x100\n 15045: u64 [a5 + 0xb0] = a0\n 15049: u64 [a5 + 0xa8] = a3\n 15053: a0 = a0 | a3\n 15056: u64 [a5 + 0xb8] = a1\n 15060: a1 = a1 | a4\n 15063: a1 = a1 | a0\n 15066: a1 = a1 >> 0x20\n 15069: u64 [a5 + 0x90] = a4\n 15073: a0 = a0 | a4\n 15076: a0 = a0 << 0x20\n 15079: a0 = a0 | a1\n 15082: jump @607 if a0 == 0\n      : @606 (gas: 1)\n 15085: jump @1050\n      : @607 (gas: 12)\n 15088: a0 = u64 [s1 + 0x158]\n 15092: u64 [a2 + 0xe8] = a0\n 15096: a0 = u64 [s1 + 0x160]\n 15100: u64 [a2 + 0xf0] = a0\n 15104: a0 = u64 [s1 + 0x168]\n 15108: u64 [a2 + 0xf8] = a0\n 15112: a1 = s1 + 0x7ff\n 15116: a1 = a1 + 0x221\n 15120: a0 = u64 [s1 + 0x170]\n 15124: u64 [a2 + 0x100] = a0\n 15128: a0 = u64 [s1 + 0x1b8]\n 15132: ra = 596, jump @24\n      : @608 [@dyn 298] (gas: 4)\n 15138: a0 = s1 + 0x7ff\n 15142: a0 = a0 + 0x201\n 15146: a1 = u64 [s1 + 0x198]\n 15150: ra = 598, jump @22\n      : @609 [@dyn 299] (gas: 5)\n 15156: a3 = s1 + 0x100\n 15160: a0 = u64 [a3 + 0xa8]\n 15164: a2 = u64 [a3 + 0x90]\n 15168: a2 = a2 | a0\n 15171: t0 = 600, jump @2095\n      : @610 [@dyn 300] (gas: 3)\n 15178: u64 [a3 + 0xa8] = a2\n 15182: a0 = 0 if a2 != 0\n 15184: jump @612 if a0 != 0\n      : @611 (gas: 1)\n 15187: jump @1050\n      : @612 (gas: 15)\n 15190: a5 = s1 + 0x7ff\n 15194: a5 = a5 + 0x139\n 15198: t0 = u64 [a5 + 0xe0]\n 15202: a1 = u64 [a5 + 0xd8]\n 15206: a3 = u64 [a5 + 0xd0]\n 15210: a4 = u64 [a5 + 0xc8]\n 15214: a0 = u64 [s1 + 0x1b8]\n 15218: i32 a0 = a0 + 0x20\n 15221: u64 [a5 + 0xa8] = a4\n 15225: u64 [a5 + 0xb0] = a3\n 15229: u64 [a5 + 0xb8] = a1\n 15233: a1 = s1 + 0x7ff\n 15237: a1 = a1 + 0x1e1\n 15241: u64 [a5 + 0xc0] = t0\n 15245: ra = 602, jump @24\n      : @613 [@dyn 301] (gas: 4)\n 15251: a0 = s1 + 0x7ff\n 15255: a0 = a0 + 0x1c1\n 15259: a1 = u64 [s1 + 0x1a0]\n 15263: ra = 604, jump @22\n      : @614 [@dyn 302] (gas: 4)\n 15269: a2 = s1 + 0x100\n 15273: a0 = u64 [a2 + 0x98]\n 15277: a0 = a0 + 0xffffffffffffffc0\n 15280: t0 = 606, jump @2032\n      : @615 [@dyn 303] (gas: 1)\n 15287: jump @617 if a0 != 0\n      : @616 (gas: 1)\n 15290: jump @1050\n      : @617 (gas: 15)\n 15293: a5 = s1 + 0x7ff\n 15297: a5 = a5 + 0x139\n 15301: t0 = u64 [a5 + 0xa0]\n 15305: a1 = u64 [a5 + 0x98]\n 15309: a3 = u64 [a5 + 0x90]\n 15313: a4 = u64 [a5 + 0x88]\n 15317: a0 = u64 [s1 + 0x1b8]\n 15321: i32 a0 = a0 + 0x40\n 15324: u64 [a5 + 0x68] = a4\n 15327: u64 [a5 + 0x70] = a3\n 15330: u64 [a5 + 0x78] = a1\n 15333: a1 = s1 + 0x7ff\n 15337: a1 = a1 + 0x1a1\n 15341: u64 [a5 + 0x80] = t0\n 15345: ra = 608, jump @24\n      : @618 [@dyn 304] (gas: 4)\n 15351: a0 = s1 + 0x7ff\n 15355: a0 = a0 + 0x181\n 15359: a1 = u64 [s1 + 0x188]\n 15363: ra = 610, jump @22\n      : @619 [@dyn 305] (gas: 3)\n 15369: a0 = 0xffffffa0\n 15379: a2 = s1 + 0x100\n 15383: t0 = 612, jump @2032\n      : @620 [@dyn 306] (gas: 1)\n 15390: jump @622 if a0 != 0\n      : @621 (gas: 1)\n 15393: jump @1050\n      : @622 (gas: 15)\n 15396: a2 = s1 + 0x7ff\n 15400: a2 = a2 + 0x139\n 15404: a0 = u64 [a2 + 0x48]\n 15407: a1 = 0xffffffff\n 15417: a1 = a1 & a0\n 15420: a0 = u64 [s1 + 0x1b8]\n 15424: i32 a0 = a0 + 0x60\n 15427: u64 [a2 + 64] = 0\n 15430: u64 [a2 + 56] = 0\n 15433: u64 [a2 + 0x28] = a1\n 15436: a1 = s1 + 0x7ff\n 15440: a1 = a1 + 0x161\n 15444: u64 [a2 + 48] = 0\n 15447: ra = 0x31e\n 15451: jump @24\n      : @623 (gas: 11)\n 15454: a0 = s1 + 0x3998\n 15458: u64 [a0 + 1856] = 0\n 15462: u64 [a0 + 1848] = 0\n 15466: u64 [a0 + 1840] = 0\n 15470: u64 [a0 + 1832] = 0\n 15474: a0 = s1 + 0x4000\n 15478: i32 a0 = a0 + 0xc0\n 15482: ra = 0x266\n 15486: ecalli 17 // 'value_transferred'\n 15488: t0 = 0x268\n 15492: jump @2058\n      : @624 [@dyn 307] (gas: 1)\n 15496: t0 = 616, jump @2058\n      : @625 [@dyn 308] (gas: 1)\n 15503: t0 = 618, jump @2097\n      : @626 [@dyn 309] (gas: 1)\n 15510: jump @628 if a0 == 0\n      : @627 (gas: 1)\n 15513: jump @1193\n      : @628 (gas: 1)\n 15516: t0 = 620, jump @2045\n      : @629 [@dyn 310] (gas: 1)\n 15523: jump @631 if a1 <u a0\n      : @630 (gas: 1)\n 15526: jump @1194\n      : @631 (gas: 4)\n 15529: a0 = s1 + 0x3140\n 15533: ra = 0x26e\n 15537: t0 = 0x6b8\n 15541: jump @2079\n      : @632 [@dyn 311] (gas: 15)\n 15545: a3 = s1 + 0x2998\n 15549: a4 = a3 + 0x700\n 15553: a0 = u64 [a4 + 0xa8]\n 15557: a1 = u64 [a4 + 0xb0]\n 15561: a2 = u32 [a3 + 0x7b8]\n 15565: u64 [a3 + 1952] = 0\n 15569: u64 [s1 + 0x110] = a2\n 15573: u64 [a4 + 0x98] = a2\n 15577: u64 [s1 + 0x118] = a1\n 15581: u64 [a4 + 0x90] = a1\n 15585: a1 = s1 + 0x3120\n 15589: u64 [s1 + 0x120] = a0\n 15593: u64 [a4 + 0x88] = a0\n 15597: a0 = 0\n 15599: ra = 624, jump @24\n      : @633 [@dyn 312] (gas: 3)\n 15605: t0 = 0x272\n 15609: a1 = s1 + 0x2998\n 15613: fallthrough\n      : @634 [@dyn 313] (gas: 8)\n 15614: u64 [a1 + 1920] = 0\n 15618: u64 [a1 + 1912] = 0\n 15622: u64 [a1 + 1896] = 0x3\n 15627: a2 = a1\n 15629: a0 = 0x20\n 15632: a1 = s1 + 0x3100\n 15636: u64 [a2 + 1904] = 0\n 15640: ra = 628, jump @24\n      : @635 [@dyn 314] (gas: 5)\n 15646: a0 = 0x20180\n 15651: u64 [s1 + 0x198] = a0\n 15655: a0 = i32 [0x20180]\n 15660: a1 = 0x3f\n 15663: jump @637 if a1 <u a0\n      : @636 (gas: 4)\n 15666: a1 = u64 [s1 + 0x198]\n 15670: u32 [a1 + 0] = 0x40\n 15673: t0 = 0x276\n 15677: jump @2016\n      : @637 (gas: 1)\n 15681: t0 = 630, jump @2016\n      : @638 [@dyn 315] (gas: 10)\n 15688: a0 = 0x20190\n 15693: i32 a0 = a0 + 0\n 15695: i32 a2 = a2 + 0\n 15697: a1 = 0x40\n 15700: u64 [s1 + 0x190] = a0\n 15704: ra = 0x278\n 15708: ecalli 9 // 'hash_keccak_256'\n 15710: a3 = u64 [s1 + 0x1b8]\n 15714: t0 = 0x27a\n 15718: jump @2004\n      : @639 [@dyn 316] (gas: 2)\n 15722: a3 = u64 [s1 + 0x1b8]\n 15726: t0 = 634, jump @2004\n      : @640 [@dyn 317] (gas: 8)\n 15733: a5 = a4 + 0x700\n 15737: u64 [a5 + 0x60] = a3\n 15740: u64 [a5 + 0x58] = a2\n 15743: u64 [a5 + 0x50] = a1\n 15746: u64 [a5 + 0x48] = a0\n 15749: a0 = s1 + 0x30e0\n 15753: a1 = s1 + 0x40e0\n 15757: ra = 636, jump @26\n      : @641 [@dyn 318] (gas: 10)\n 15763: a3 = s1 + 0x2998\n 15767: a2 = u32 [a3 + 0x748]\n 15771: u64 [a3 + 1824] = 0\n 15775: u64 [a3 + 1816] = 0\n 15779: u64 [a3 + 1808] = 0\n 15783: a0 = s1 + 0x30c0\n 15787: a1 = s1 + 0x30a0\n 15791: u64 [s1 + 0x128] = a2\n 15795: u64 [a3 + 0x708] = a2\n 15799: ra = 638, jump @1824\n      : @642 [@dyn 319] (gas: 16)\n 15805: a1 = 0\n 15807: a2 = 0\n 15809: a3 = 0\n 15811: a4 = 0\n 15813: a5 = s1 + 0x2998\n 15817: a0 = u64 [a5 + 0x740]\n 15821: u64 [s1 + 0x170] = a0\n 15825: a0 = u64 [a5 + 0x738]\n 15829: u64 [s1 + 0x178] = a0\n 15833: a0 = u64 [a5 + 0x730]\n 15837: u64 [s1 + 0x180] = a0\n 15841: a0 = u64 [a5 + 0x728]\n 15845: u64 [s1 + 0x188] = a0\n 15849: a0 = 0xfffffffe\n 15859: u64 [s1 + 0x108] = a0\n 15863: fallthrough\n      : @643 (gas: 6)\n 15864: a0 = u64 [s1 + 0x128]\n 15868: a0 = a1 <u a0\n 15871: a0 = 0 if a2 != 0\n 15873: a5 = a3 | a4\n 15876: a0 = 0 if a5 != 0\n 15878: jump @645 if a0 != 0\n      : @644 (gas: 1)\n 15881: jump @856\n      : @645 (gas: 17)\n 15884: u64 [s1 + 0x168] = a5\n 15888: u64 [s1 + 0x1a0] = a4\n 15892: u64 [s1 + 0x1a8] = a3\n 15896: u64 [s1 + 0x1b0] = a2\n 15900: u64 [s1 + 0x1b8] = a1\n 15904: a2 = s1 + 0x2998\n 15908: u64 [a2 + 1664] = 0\n 15912: a0 = u64 [s1 + 0x120]\n 15916: a3 = a2 + 0x600\n 15920: u64 [a3 + 0x68] = a0\n 15923: a0 = u64 [s1 + 0x118]\n 15927: u64 [a3 + 0x70] = a0\n 15930: a1 = s1 + 0x3000\n 15934: a0 = u64 [s1 + 0x110]\n 15938: u64 [a3 + 0x78] = a0\n 15941: a0 = 0\n 15943: ra = 640, jump @24\n      : @646 [@dyn 320] (gas: 9)\n 15949: a0 = s1 + 0x2998\n 15953: u64 [a0 + 1632] = 0\n 15957: u64 [a0 + 1624] = 0\n 15961: u64 [a0 + 1616] = 0\n 15965: a3 = a0\n 15967: a0 = 0x20\n 15970: a1 = s1 + 0x2fe0\n 15974: u64 [a3 + 1608] = 0x2\n 15979: ra = 642, jump @24\n      : @647 [@dyn 321] (gas: 3)\n 15985: a0 = u64 [s1 + 0x198]\n 15989: a0 = i32 [a0]\n 15991: jump @649 if a0 >u 63\n      : @648 (gas: 3)\n 15995: a0 = u64 [s1 + 0x198]\n 15999: u32 [a0 + 0] = 0x40\n 16002: fallthrough\n      : @649 (gas: 9)\n 16003: a0 = sp + 0xffffffffffffffe0\n 16006: a0 = a0 & 0xffffffffffffffe0\n 16009: sp = a0\n 16011: u64 [s1 + 0x160] = a0\n 16015: i32 a2 = a0 + 0\n 16017: a1 = 0x40\n 16020: a0 = u64 [s1 + 0x190]\n 16024: ecalli 9 // 'hash_keccak_256'\n 16026: fallthrough\n      : @650 (gas: 14)\n 16027: a5 = u64 [s1 + 0x1a8]\n 16031: a0 = a5 >u 0\n 16033: a1 = u64 [s1 + 0x1a0]\n 16037: t0 = a1 >u 0\n 16039: t0 = a0 if a1 == 0\n 16042: a3 = u64 [s1 + 0x1b8]\n 16046: a0 = u64 [s1 + 0x108]\n 16050: a0 = a0 <u a3\n 16053: a4 = u64 [s1 + 0x1b0]\n 16057: a2 = a4 >u 0\n 16059: a2 = a0 if a4 == 0\n 16062: a0 = u64 [s1 + 0x168]\n 16066: a2 = t0 if a0 != 0\n 16069: jump @652 if a2 == 0\n      : @651 (gas: 1)\n 16072: jump @1122\n      : @652 (gas: 34)\n 16075: a3 = a3 + 0x1\n 16078: a0 = a3 <u 0x1\n 16081: a4 = a4 + a0\n 16084: a0 = a3 | a4\n 16087: a0 = a0 <u 0x1\n 16090: a2 = a5 + a0\n 16093: a0 = a2 <u a5\n 16096: t1 = a1 + a0\n 16099: a5 = u64 [s1 + 0x160]\n 16103: a0 = u64 [a5 + 0x18]\n 16106: a1 = u64 [a5 + 0x10]\n 16109: t0 = u64 [a5 + 0x8]\n 16112: a5 = u64 [a5]\n 16114: a0 = reverse a0\n 16116: u64 [s1 + 0x168] = a0\n 16120: a0 = reverse a1\n 16122: u64 [s1 + 0x160] = a0\n 16126: a0 = reverse t0\n 16128: u64 [s1 + 0x158] = a0\n 16132: a0 = reverse a5\n 16134: u64 [s1 + 0x150] = a0\n 16138: a0 = s1 + 0x2998\n 16142: u64 [s1 + 0x138] = a2\n 16146: a1 = a0 + 0x600\n 16150: u64 [a1 + 0x38] = a2\n 16153: u64 [s1 + 0x140] = a4\n 16157: u64 [a1 + 0x30] = a4\n 16160: u64 [s1 + 0x148] = a3\n 16164: u64 [a1 + 0x28] = a3\n 16167: a1 = s1 + 0x2fc0\n 16171: u64 [s1 + 0x130] = t1\n 16175: u64 [a0 + 0x640] = t1\n 16179: a0 = 0\n 16181: ra = 644, jump @24\n      : @653 [@dyn 322] (gas: 14)\n 16187: a0 = u64 [s1 + 0x150]\n 16191: a1 = s1 + 0x2998\n 16195: a2 = a1 + 0x600\n 16199: u64 [a2 + 0x20] = a0\n 16202: a0 = u64 [s1 + 0x158]\n 16206: u64 [a2 + 0x18] = a0\n 16209: a0 = u64 [s1 + 0x160]\n 16213: u64 [a2 + 0x10] = a0\n 16216: a3 = a1\n 16218: a0 = 0x20\n 16221: a1 = s1 + 0x2fa0\n 16225: a2 = u64 [s1 + 0x168]\n 16229: u64 [a3 + 0x608] = a2\n 16233: ra = 646, jump @24\n      : @654 [@dyn 323] (gas: 3)\n 16239: a0 = u64 [s1 + 0x198]\n 16243: a0 = i32 [a0]\n 16245: jump @656 if a0 >u 63\n      : @655 (gas: 3)\n 16249: a0 = u64 [s1 + 0x198]\n 16253: u32 [a0 + 0] = 0x40\n 16256: fallthrough\n      : @656 (gas: 12)\n 16257: a0 = sp + 0xffffffffffffffe0\n 16260: a0 = a0 & 0xffffffffffffffe0\n 16263: u64 [s1 + 0x168] = a0\n 16267: sp = a0\n 16269: i32 a2 = a0 + 0\n 16271: a1 = 0x40\n 16274: a0 = u64 [s1 + 0x190]\n 16278: ra = 0x288\n 16282: ecalli 9 // 'hash_keccak_256'\n 16284: a3 = u64 [s1 + 0x168]\n 16288: t0 = 0x28a\n 16292: jump @2061\n      : @657 [@dyn 324] (gas: 2)\n 16296: a3 = u64 [s1 + 0x168]\n 16300: t0 = 650, jump @2061\n      : @658 [@dyn 325] (gas: 10)\n 16307: i32 a3 = a3 + 0xfffffffffffff998\n 16311: a3 = a3 + s1\n 16314: a5 = a3 + 0x500\n 16318: u64 [a5 + 0xe0] = a2\n 16322: u64 [a5 + 0xd8] = a1\n 16326: u64 [a5 + 0xd0] = a0\n 16330: a0 = s1 + 0x2f80\n 16334: a1 = s1 + 0x2f60\n 16338: u64 [a5 + 0xc8] = a4\n 16342: ra = 652, jump @1851\n      : @659 [@dyn 326] (gas: 30)\n 16348: a4 = s1 + 0x2998\n 16352: a0 = u64 [a4 + 0x600]\n 16356: a5 = s1 + 0x100\n 16360: u64 [a5 + 0x68] = a0\n 16363: a0 = u64 [a4 + 0x5f8]\n 16367: u64 [a5 + 0x60] = a0\n 16370: a0 = u64 [a4 + 0x5f0]\n 16374: u64 [a5 + 0x58] = a0\n 16377: a0 = u64 [a4 + 0x5e8]\n 16381: u64 [a5 + 0x50] = a0\n 16384: a0 = u64 [a5 + 0xa0]\n 16388: u64 [a4 + 0x580] = a0\n 16392: a0 = u64 [a5 + 0xa8]\n 16396: u64 [a4 + 0x578] = a0\n 16400: a0 = u64 [a5 + 0xb0]\n 16404: u64 [a4 + 0x570] = a0\n 16408: a0 = u64 [a5 + 0xb8]\n 16412: u64 [a4 + 0x568] = a0\n 16416: a0 = u64 [a5 + 0x70]\n 16419: u64 [a4 + 0x5a0] = a0\n 16423: a0 = u64 [a5 + 0x78]\n 16426: u64 [a4 + 0x598] = a0\n 16430: a0 = u64 [a5 + 0x80]\n 16434: u64 [a4 + 0x590] = a0\n 16438: a0 = s1 + 0x2f40\n 16442: a1 = s1 + 0x2f20\n 16446: a2 = s1 + 0x2f00\n 16450: a3 = u64 [a5 + 0x88]\n 16454: u64 [a4 + 0x588] = a3\n 16458: ra = 654, jump @1840\n      : @660 [@dyn 327] (gas: 15)\n 16464: a0 = s1 + 0x2998\n 16468: a5 = a0 + 0x500\n 16472: a1 = u64 [a5 + 0xc0]\n 16476: a2 = u64 [a5 + 0xb8]\n 16480: a3 = u64 [a5 + 0xb0]\n 16484: a4 = a0\n 16486: a0 = u64 [a5 + 0xa8]\n 16490: a1 = a1 | a3\n 16493: a3 = a0 | a2\n 16496: a3 = a3 | a1\n 16499: a3 = a3 >> 0x20\n 16502: a1 = a1 | a2\n 16505: a1 = a1 << 0x20\n 16508: a1 = a1 | a3\n 16511: jump @662 if a1 == 0\n      : @661 (gas: 1)\n 16514: jump @1050\n      : @662 (gas: 11)\n 16517: a1 = u64 [s1 + 0x150]\n 16521: a3 = a4 + 0x500\n 16525: u64 [a3 + 0x48] = a1\n 16528: a1 = u64 [s1 + 0x158]\n 16532: u64 [a3 + 0x50] = a1\n 16535: a1 = u64 [s1 + 0x160]\n 16539: u64 [a3 + 0x58] = a1\n 16542: a1 = s1 + 0x2ee0\n 16546: a2 = u64 [s1 + 0x168]\n 16550: u64 [a3 + 0x60] = a2\n 16553: ra = 656, jump @24\n      : @663 [@dyn 328] (gas: 24)\n 16559: a0 = u64 [s1 + 0x1a0]\n 16563: a1 = s1 + 0x2998\n 16567: a2 = a1 + 0x500\n 16571: u64 [a2] = a0\n 16573: a0 = u64 [s1 + 0x1a8]\n 16577: a3 = a1 + 0x400\n 16581: u64 [a3 + 0xf8] = a0\n 16585: a0 = u64 [s1 + 0x1b0]\n 16589: u64 [a3 + 0xf0] = a0\n 16593: a0 = u64 [s1 + 0x1b8]\n 16597: u64 [a3 + 0xe8] = a0\n 16601: a0 = u64 [s1 + 0x170]\n 16605: u64 [a2 + 0x20] = a0\n 16608: a0 = u64 [s1 + 0x178]\n 16612: u64 [a2 + 0x18] = a0\n 16615: a0 = u64 [s1 + 0x180]\n 16619: u64 [a2 + 0x10] = a0\n 16622: a4 = a1\n 16624: a0 = s1 + 0x2ec0\n 16628: a1 = s1 + 0x2ea0\n 16632: a2 = s1 + 0x2e80\n 16636: a3 = u64 [s1 + 0x188]\n 16640: u64 [a4 + 0x508] = a3\n 16644: ra = 658, jump @1840\n      : @664 [@dyn 329] (gas: 6)\n 16650: a0 = s1 + 0x100\n 16654: a1 = u64 [a0 + 0x48]\n 16657: a2 = u64 [a0 + 0x40]\n 16660: a3 = u64 [a0 + 0x38]\n 16663: a4 = u64 [a0 + 0x30]\n 16666: jump @643\n      : @665 (gas: 9)\n 16669: u64 [a2 + 1856] = 0\n 16673: u64 [a2 + 1848] = 0\n 16677: u64 [a2 + 1840] = 0\n 16681: u64 [a2 + 1832] = 0\n 16685: a0 = s1 + 0x4000\n 16689: i32 a0 = a0 + 0xfffffffffffff8c0\n 16693: ra = 0x294\n 16697: ecalli 17 // 'value_transferred'\n 16699: fallthrough\n      : @666 [@dyn 330] (gas: 3)\n 16700: a3 = s1 + 0x3198\n 16704: a4 = a3 + 0x700\n 16708: t0 = 662, jump @2097\n      : @667 [@dyn 331] (gas: 1)\n 16715: jump @669 if a0 == 0\n      : @668 (gas: 1)\n 16718: jump @1195\n      : @669 (gas: 1)\n 16721: t0 = 664, jump @2045\n      : @670 [@dyn 332] (gas: 1)\n 16728: jump @672 if a1 <u a0\n      : @671 (gas: 1)\n 16731: jump @1196\n      : @672 (gas: 6)\n 16734: a0 = s1 + 0x4000\n 16738: i32 a0 = a0 + 0xfffffffffffff8e0\n 16742: a1 = 0x4\n 16745: ra = 0x29a\n 16749: ecalli 3 // 'call_data_load'\n 16751: fallthrough\n      : @673 [@dyn 333] (gas: 7)\n 16752: a0 = s1 + 0x3198\n 16756: a5 = a0 + 0x700\n 16760: a1 = u64 [a5 + 0x60]\n 16763: a2 = u64 [a5 + 0x58]\n 16766: a3 = u64 [a5 + 0x50]\n 16769: a4 = u64 [a5 + 0x48]\n 16772: t0 = 668, jump @2077\n      : @674 [@dyn 334] (gas: 1)\n 16779: jump @676 if a0 != 0\n      : @675 (gas: 1)\n 16782: jump @1197\n      : @676 (gas: 8)\n 16785: a0 = 0x30190\n 16790: u64 [s1 + 0x1b8] = a0\n 16794: i32 a0 = a0 + 0\n 16796: u64 [s1 + 0x188] = a0\n 16800: ra = 0x29e\n 16804: ecalli 5 // 'caller'\n 16806: t0 = 0x2a0\n 16810: jump @2031\n      : @677 [@dyn 335] (gas: 1)\n 16814: t0 = 672, jump @2031\n      : @678 [@dyn 336] (gas: 10)\n 16821: a2 = s1 + 0x7ff\n 16825: a2 = a2 + 0x139\n 16829: u64 [a2 + 32] = 0\n 16832: u64 [a2 + 0x18] = a1\n 16835: u64 [a2 + 0x10] = a0\n 16838: a1 = s1 + 0x7ff\n 16842: a1 = a1 + 0x141\n 16846: u64 [a2 + 0x8] = a3\n 16849: a0 = 0\n 16851: ra = 674, jump @24\n      : @679 [@dyn 337] (gas: 12)\n 16857: a0 = s1 + 0x7ff\n 16861: a0 = a0 + 0x139\n 16865: u64 [a0 + 0] = 0\n 16867: u64 [a0 + 4294967288] = 0\n 16870: a1 = s1 + 0x1000\n 16874: u64 [a1 + 4294965536] = 0x1\n 16879: a0 = 0x20\n 16882: a1 = s1 + 0x7ff\n 16886: a1 = a1 + 0x121\n 16890: a2 = s1 + 0x1000\n 16894: u64 [a2 + 4294965544] = 0\n 16898: ra = 676, jump @24\n      : @680 [@dyn 338] (gas: 7)\n 16904: a0 = sp + 0xffffffffffffffe0\n 16907: a0 = a0 & 0xffffffffffffffe0\n 16910: u64 [s1 + 0x190] = a0\n 16914: sp = a0\n 16916: a2 = 0x20180\n 16921: a0 = i32 [0x20180]\n 16926: jump @682 if a0 >u 63\n      : @681 (gas: 2)\n 16930: u32 [0x20180] = 0x40\n 16936: fallthrough\n      : @682 (gas: 16)\n 16937: u64 [s1 + 0x160] = a2\n 16941: a0 = sp + 0xffffffffffffffe0\n 16944: a2 = a0 & 0xffffffffffffffe0\n 16947: u64 [s1 + 0x178] = a2\n 16951: sp = a2\n 16953: a0 = 0x20190\n 16958: u64 [s1 + 0x180] = a0\n 16962: i32 a0 = a0 + 0\n 16964: i32 a2 = a2 + 0\n 16966: a1 = 0x40\n 16969: u64 [s1 + 0x168] = a0\n 16973: ra = 0x2a6\n 16977: ecalli 9 // 'hash_keccak_256'\n 16979: a3 = u64 [s1 + 0x178]\n 16983: t0 = 0x2a8\n 16987: jump @2015\n      : @683 [@dyn 339] (gas: 2)\n 16991: a3 = u64 [s1 + 0x178]\n 16995: t0 = 680, jump @2015\n      : @684 [@dyn 340] (gas: 8)\n 17002: a1 = u64 [s1 + 0x190]\n 17006: u64 [a1] = a4\n 17008: u64 [a1 + 0x8] = a5\n 17011: u64 [a1 + 0x10] = a2\n 17014: u64 [a1 + 0x18] = a0\n 17017: a0 = s1 + 0x7ff\n 17021: a0 = a0 + 0x101\n 17025: ra = 682, jump @26\n      : @685 [@dyn 341] (gas: 24)\n 17031: a0 = s1 + 0x1000\n 17035: t0 = u64 [a0 + 0xfffffffffffff918]\n 17039: a0 = s1 + 0x1000\n 17043: a1 = u64 [a0 + 0xfffffffffffff908]\n 17047: a0 = s1 + 0x1000\n 17051: t2 = u64 [a0 + 0xfffffffffffff910]\n 17055: a0 = s1 + 0x1000\n 17059: t1 = u64 [a0 + 0xfffffffffffff900]\n 17063: ra = u64 [s1 + 0x1a0]\n 17067: a0 = t0 ^ ra\n 17070: a2 = u64 [s1 + 0x1b0]\n 17074: a5 = a1 ^ a2\n 17077: a3 = a1 <u a2\n 17080: a2 = u64 [s1 + 0x1a8]\n 17084: a2 = t1 <u a2\n 17087: a2 = a3 if a5 != 0\n 17090: a3 = t0 <u ra\n 17093: a4 = u64 [s1 + 0x198]\n 17097: a5 = t2 <u a4\n 17100: a5 = a3 if a0 != 0\n 17103: a3 = t2 ^ a4\n 17106: a3 = a3 | a0\n 17109: a2 = a5 if a3 != 0\n 17112: jump @687 if a2 == 0\n      : @686 (gas: 1)\n 17115: jump @1201\n      : @687 (gas: 25)\n 17118: a0 = u64 [s1 + 0x1a8]\n 17122: a2 = s1 + 0x1000\n 17126: u64 [a2 + 0xfffffffffffff8a0] = a0\n 17130: a0 = s1 + 0x1000\n 17134: u64 [a0 + 0xfffffffffffff8c0] = t1\n 17138: a0 = u64 [s1 + 0x1b0]\n 17142: a2 = s1 + 0x1000\n 17146: u64 [a2 + 0xfffffffffffff8a8] = a0\n 17150: a0 = s1 + 0x1000\n 17154: u64 [a0 + 0xfffffffffffff8c8] = a1\n 17158: a0 = s1 + 0x1000\n 17162: u64 [a0 + 0xfffffffffffff8b0] = a4\n 17166: a0 = s1 + 0x1000\n 17170: u64 [a0 + 0xfffffffffffff8d0] = t2\n 17174: a0 = s1 + 0x1000\n 17178: u64 [a0 + 0xfffffffffffff8b8] = ra\n 17182: a0 = s1 + 0x7ff\n 17186: a0 = a0 + 0xe1\n 17190: a1 = s1 + 0x7ff\n 17194: a1 = a1 + 0xc1\n 17198: a2 = s1 + 0x7ff\n 17202: a2 = a2 + 0xa1\n 17206: a3 = s1 + 0x1000\n 17210: u64 [a3 + 0xfffffffffffff8d8] = t0\n 17214: ra = 684, jump @1765\n      : @688 [@dyn 342] (gas: 17)\n 17220: a0 = s1 + 0x1000\n 17224: a0 = u64 [a0 + 0xfffffffffffff8f8]\n 17228: a1 = s1 + 0x1000\n 17232: a1 = u64 [a1 + 0xfffffffffffff8f0]\n 17236: a2 = s1 + 0x1000\n 17240: a2 = u64 [a2 + 0xfffffffffffff8e8]\n 17244: a3 = s1 + 0x1000\n 17248: a3 = u64 [a3 + 0xfffffffffffff8e0]\n 17252: a4 = s1 + 0x3198\n 17256: a5 = a4 + 0x700\n 17260: u64 [a5 + 0x80] = a0\n 17264: u64 [a5 + 0x78] = a1\n 17267: u64 [a5 + 0x70] = a2\n 17270: u64 [a5 + 0x68] = a3\n 17273: a1 = s1 + 0x3900\n 17277: a0 = u64 [s1 + 0x190]\n 17281: ra = 686, jump @28\n      : @689 [@dyn 343] (gas: 5)\n 17287: a0 = u64 [s1 + 0x188]\n 17291: ra = 0x2b0\n 17295: ecalli 5 // 'caller'\n 17297: t0 = 0x2b2\n 17301: jump @2080\n      : @690 [@dyn 344] (gas: 1)\n 17305: t0 = 690, jump @2080\n      : @691 [@dyn 345] (gas: 4)\n 17312: ra = 0x2b4\n 17316: ecalli 11 // 'ref_time_left'\n 17318: t0 = 0x2b6\n 17322: jump @2037\n      : @692 [@dyn 346] (gas: 1)\n 17326: t0 = 694, jump @2037\n      : @693 [@dyn 347] (gas: 38)\n 17333: a4 = a2 + 0x700\n 17337: u64 [a4 + 0xa0] = a1\n 17341: a1 = u64 [s1 + 0x198]\n 17345: u64 [a4 + 0x98] = a1\n 17349: a1 = u64 [s1 + 0x1b0]\n 17353: u64 [a4 + 0x90] = a1\n 17357: a1 = u64 [s1 + 0x1a8]\n 17361: u64 [a4 + 0x88] = a1\n 17365: u32 [a2 + 1960] = 0\n 17369: a0 = a0 >u 0x8fc\n 17373: a1 = -a0\n 17375: u64 [a4 + 0xe0] = a1\n 17379: u64 [a4 + 0xd8] = a1\n 17383: u64 [a4 + 0xd0] = a1\n 17387: u64 [a4 + 0xc8] = a1\n 17391: a1 = a3 << 0x20\n 17394: a1 = a1 >> 0x20\n 17397: a0 = a0 << 0x23\n 17400: a0 = a0 | a1\n 17403: a1 = s1 + 0x3920\n 17407: a1 = a1 << 0x20\n 17410: a1 = a1 >> 0x20\n 17413: a2 = s1 + 0x3960\n 17417: a2 = a2 << 0x20\n 17420: a3 = a2 | a1\n 17423: a4 = u64 [s1 + 0x180]\n 17427: a4 = a4 << 0x20\n 17430: a4 = a4 >> 0x20\n 17433: a1 = s1 + 0x3940\n 17437: a1 = a1 << 0x20\n 17440: a5 = a1 | a4\n 17443: a1 = 0xffffffffffffffff\n 17446: a2 = 0xffffffffffffffff\n 17449: ecalli 1 // 'call'\n 17451: u64 [s1 + 0x190] = a0\n 17455: a0 = s1 + 0x7ff\n 17459: a0 = a0 + 0x81\n 17463: ra = 696, jump @1782\n      : @694 [@dyn 348] (gas: 2)\n 17469: a0 = u64 [s1 + 0x190]\n 17473: jump @696 if a0 == 0\n      : @695 (gas: 1)\n 17476: jump @1202\n      : @696 (gas: 4)\n 17479: a0 = s1 + 0x7ff\n 17483: a0 = a0 + 0x41\n 17486: a1 = 0x40\n 17489: ra = 698, jump @22\n      : @697 [@dyn 349] (gas: 9)\n 17495: a0 = s1 + 0x1000\n 17499: a0 = u64 [a0 + 0xfffffffffffff858]\n 17503: a1 = s1 + 0x1000\n 17507: a1 = u64 [a1 + 0xfffffffffffff850]\n 17511: a2 = s1 + 0x1000\n 17515: a2 = u64 [a2 + 0xfffffffffffff848]\n 17519: a3 = s1 + 0x1000\n 17523: a3 = u64 [a3 + 0xfffffffffffff840]\n 17527: t0 = 700, jump @2018\n      : @698 [@dyn 350] (gas: 1)\n 17534: jump @700 if a0 == 0\n      : @699 (gas: 1)\n 17537: jump @1050\n      : @700 (gas: 17)\n 17540: a0 = u64 [s1 + 0x1a8]\n 17544: a1 = s1 + 0x1000\n 17548: u64 [a1 + 0xfffffffffffff820] = a0\n 17552: a0 = u64 [s1 + 0x1b0]\n 17556: a1 = s1 + 0x1000\n 17560: u64 [a1 + 0xfffffffffffff828] = a0\n 17564: a0 = u64 [s1 + 0x198]\n 17568: a1 = s1 + 0x1000\n 17572: u64 [a1 + 0xfffffffffffff830] = a0\n 17576: a1 = s1 + 0x7ff\n 17580: a1 = a1 + 0x21\n 17583: a0 = u64 [s1 + 0x1a0]\n 17587: a2 = s1 + 0x1000\n 17591: u64 [a2 + 0xfffffffffffff838] = a0\n 17595: a0 = a3\n 17597: u64 [s1 + 0x1b0] = a3\n 17601: ra = 702, jump @24\n      : @701 [@dyn 351] (gas: 6)\n 17607: a0 = u64 [s1 + 0x188]\n 17611: ra = 0x2c0\n 17615: ecalli 5 // 'caller'\n 17617: a2 = u64 [s1 + 0x1b8]\n 17621: t0 = 0x2c2\n 17625: jump @1999\n      : @702 [@dyn 352] (gas: 2)\n 17629: a2 = u64 [s1 + 0x1b8]\n 17633: t0 = 706, jump @1999\n      : @703 [@dyn 353] (gas: 28)\n 17640: t0 = a1 | a0\n 17643: a3 = a3 >> 0x20\n 17646: a2 = reverse a2\n 17648: a1 = a2 << 0x20\n 17651: a1 = a1 | a3\n 17654: a2 = a2 >> 0x20\n 17657: u64 [s1 + 2040] = 0\n 17661: a3 = u64 [0x200e0]\n 17666: a4 = u64 [0x200e8]\n 17671: a5 = u64 [0x200f0]\n 17676: a0 = u64 [0x200f8]\n 17681: t1 = s1 + 0x1000\n 17685: u64 [t1 + 0xfffffffffffff818] = a3\n 17689: a3 = s1 + 0x1000\n 17693: u64 [a3 + 0xfffffffffffff810] = a4\n 17697: a3 = s1 + 0x1000\n 17701: u64 [a3 + 0xfffffffffffff808] = a5\n 17705: a3 = s1 + 0x1000\n 17709: u64 [a3 + 0xfffffffffffff800] = a0\n 17713: u64 [s1 + 0x7f0] = a2\n 17717: u64 [s1 + 0x7e8] = a1\n 17721: a1 = 0x20\n 17724: a2 = s1 + 0x7ff\n 17728: a2 = a2 + 0x1\n 17731: a3 = s1 + 0x7e0\n 17735: u64 [s1 + 0x7e0] = t0\n 17739: a0 = u64 [s1 + 0x1b0]\n 17743: ra = 708, jump @29\n      : @704 [@dyn 354] (gas: 7)\n 17749: a0 = 0\n 17751: a1 = u64 [s1 + 0x168]\n 17755: a2 = 0\n 17757: ra = 0x570\n 17761: ecalli 14 // 'seal_return'\n 17763: t0 = 0x572\n 17767: jump @2045\n      : @705 (gas: 11)\n 17771: a0 = s1 + 0x3998\n 17775: u64 [a0 + 736] = 0\n 17779: u64 [a0 + 728] = 0\n 17783: u64 [a0 + 720] = 0\n 17787: u64 [a0 + 712] = 0\n 17791: a0 = s1 + 0x4000\n 17795: i32 a0 = a0 + 0xfffffffffffffc60\n 17799: ra = 0x2c6\n 17803: ecalli 17 // 'value_transferred'\n 17805: t0 = 0x2c8\n 17809: jump @2059\n      : @706 [@dyn 355] (gas: 1)\n 17813: t0 = 712, jump @2059\n      : @707 [@dyn 356] (gas: 1)\n 17820: t0 = 714, jump @2096\n      : @708 [@dyn 357] (gas: 1)\n 17827: jump @710 if a0 == 0\n      : @709 (gas: 1)\n 17830: jump @1206\n      : @710 (gas: 1)\n 17833: t0 = 716, jump @2045\n      : @711 [@dyn 358] (gas: 1)\n 17840: jump @713 if a1 <u a0\n      : @712 (gas: 1)\n 17843: jump @1207\n      : @713 (gas: 5)\n 17846: a0 = s1 + 0x4000\n 17850: i32 a0 = a0 + 0xfffffffffffffc80\n 17854: a1 = 0x4\n 17857: ecalli 3 // 'call_data_load'\n 17859: fallthrough\n      : @714 (gas: 15)\n 17860: a0 = s1 + 0x3998\n 17864: a1 = u64 [a0 + 0x300]\n 17868: a5 = a0 + 0x200\n 17872: a2 = u64 [a5 + 0xf8]\n 17876: a3 = u64 [a5 + 0xf0]\n 17880: a4 = u64 [a5 + 0xe8]\n 17884: a5 = s1 + 0x100\n 17888: u64 [a5 + 0x98] = a1\n 17892: u64 [a5 + 0xb0] = a3\n 17896: a0 = a3 | a1\n 17899: u64 [a5 + 0xb8] = a2\n 17903: u64 [a5 + 0xa8] = a4\n 17907: a1 = a4 | a2\n 17910: a0 = a0 | a1\n 17913: jump @716 if a0 != 0\n      : @715 (gas: 1)\n 17916: jump @1208\n      : @716 (gas: 9)\n 17919: a0 = 0x30190\n 17924: u64 [s1 + 0x190] = a0\n 17928: i32 a0 = a0 + 0\n 17930: u64 [s1 + 0x170] = a0\n 17934: ra = 0x2ce\n 17938: ecalli 5 // 'caller'\n 17940: a2 = u64 [s1 + 0x190]\n 17944: t0 = 0x2d0\n 17948: jump @2003\n      : @717 [@dyn 359] (gas: 2)\n 17952: a2 = u64 [s1 + 0x190]\n 17956: t0 = 720, jump @2003\n      : @718 [@dyn 360] (gas: 8)\n 17963: u64 [a2 + 544] = 0\n 17967: a4 = a2 + 0x200\n 17971: u64 [a4 + 0x18] = a1\n 17974: u64 [a4 + 0x10] = a0\n 17977: a1 = s1 + 0x1b60\n 17981: u64 [a4 + 0x8] = a3\n 17984: a0 = 0\n 17986: ra = 722, jump @24\n      : @719 [@dyn 361] (gas: 3)\n 17992: t0 = 0x2d4\n 17996: a1 = s1 + 0x1958\n 18000: fallthrough\n      : @720 [@dyn 362] (gas: 8)\n 18001: u64 [a1 + 512] = 0\n 18005: u64 [a1 + 504] = 0\n 18009: u64 [a1 + 488] = 0x1\n 18014: a2 = a1\n 18016: a0 = 0x20\n 18019: a1 = s1 + 0x1b40\n 18023: u64 [a2 + 496] = 0\n 18027: ra = 726, jump @24\n      : @721 [@dyn 363] (gas: 7)\n 18033: a0 = sp + 0xffffffffffffffe0\n 18036: a0 = a0 & 0xffffffffffffffe0\n 18039: u64 [s1 + 0x1a0] = a0\n 18043: sp = a0\n 18045: a2 = 0x20180\n 18050: a0 = i32 [0x20180]\n 18055: jump @723 if a0 >u 63\n      : @722 (gas: 2)\n 18059: u32 [0x20180] = 0x40\n 18065: fallthrough\n      : @723 (gas: 43)\n 18066: u64 [s1 + 0x168] = a2\n 18070: a0 = sp + 0xffffffffffffffe0\n 18073: a2 = a0 & 0xffffffffffffffe0\n 18076: u64 [s1 + 0x188] = a2\n 18080: sp = a2\n 18082: a0 = 0x20190\n 18087: i32 a0 = a0 + 0\n 18089: i32 a2 = a2 + 0\n 18091: a1 = 0x40\n 18094: u64 [s1 + 0x178] = a0\n 18098: ecalli 9 // 'hash_keccak_256'\n 18100: a3 = u64 [s1 + 0x188]\n 18104: a0 = u64 [a3 + 0x18]\n 18107: a1 = u64 [a3 + 0x10]\n 18110: a2 = u64 [a3 + 0x8]\n 18113: a3 = u64 [a3]\n 18115: a0 = reverse a0\n 18117: a5 = reverse a1\n 18119: a2 = reverse a2\n 18121: t0 = reverse a3\n 18123: a4 = u64 [s1 + 0x1a0]\n 18127: u64 [a4 + 0x18] = t0\n 18130: u64 [a4 + 0x10] = a2\n 18133: u64 [a4 + 0x8] = a5\n 18136: u64 [a4] = a0\n 18138: a4 = sp + 0xffffffffffffffe0\n 18141: a1 = a4 & 0xffffffffffffffe0\n 18144: sp = a1\n 18146: a4 = a0 + 0x2\n 18149: a0 = a4 <u a0\n 18152: a3 = a5 + a0\n 18155: a5 = a3 <u a5\n 18158: a5 = a0 if a0 == 0\n 18161: a5 = a5 + a2\n 18164: a0 = a5 <u a2\n 18167: a0 = a0 + t0\n 18170: u64 [a1 + 0x10] = a5\n 18173: u64 [a1 + 0x8] = a3\n 18176: u64 [a1] = a4\n 18178: u64 [a1 + 0x18] = a0\n 18181: a0 = s1 + 0x1b20\n 18185: u64 [s1 + 0x188] = a1\n 18189: ra = 728, jump @26\n      : @724 [@dyn 364] (gas: 22)\n 18195: a4 = s1 + 0x1958\n 18199: a5 = u64 [a4 + 0x1e0]\n 18203: a1 = u64 [a4 + 0x1d0]\n 18207: t2 = u64 [a4 + 0x1d8]\n 18211: t1 = u64 [a4 + 0x1c8]\n 18215: ra = u64 [s1 + 0x198]\n 18219: a0 = a5 ^ ra\n 18222: a2 = u64 [s1 + 0x1b0]\n 18226: t0 = a1 ^ a2\n 18229: a3 = a1 <u a2\n 18232: a2 = u64 [s1 + 0x1a8]\n 18236: a2 = t1 <u a2\n 18239: a2 = a3 if t0 != 0\n 18242: u64 [s1 + 0x180] = a5\n 18246: a3 = a5 <u ra\n 18249: t0 = u64 [s1 + 0x1b8]\n 18253: a5 = t2 <u t0\n 18256: a5 = a3 if a0 != 0\n 18259: a3 = t2 ^ t0\n 18262: a3 = a3 | a0\n 18265: a2 = a5 if a3 != 0\n 18268: jump @726 if a2 == 0\n      : @725 (gas: 1)\n 18271: jump @1213\n      : @726 (gas: 17)\n 18274: a0 = u64 [s1 + 0x1a8]\n 18278: a5 = a4 + 0x100\n 18282: u64 [a5 + 0x68] = a0\n 18285: u64 [a4 + 0x188] = t1\n 18289: a0 = u64 [s1 + 0x1b0]\n 18293: u64 [a5 + 0x70] = a0\n 18296: u64 [a5 + 0x90] = a1\n 18300: a0 = u64 [s1 + 0x1b8]\n 18304: u64 [a5 + 0x78] = a0\n 18307: u64 [a4 + 0x198] = t2\n 18311: u64 [a4 + 0x180] = ra\n 18315: a0 = s1 + 0x1b00\n 18319: a1 = s1 + 0x1ae0\n 18323: a2 = s1 + 0x1ac0\n 18327: a3 = u64 [s1 + 0x180]\n 18331: u64 [a5 + 0xa0] = a3\n 18335: ra = 730, jump @1765\n      : @727 [@dyn 365] (gas: 17)\n 18341: a0 = s1 + 0x1958\n 18345: a0 = u64 [a0 + 0x1c0]\n 18349: a1 = s1 + 0x1958\n 18353: a1 = u64 [a1 + 0x1b8]\n 18357: a2 = s1 + 0x1958\n 18361: a2 = u64 [a2 + 0x1b0]\n 18365: a3 = s1 + 0x1958\n 18369: a3 = u64 [a3 + 0x1a8]\n 18373: a4 = s1 + 0x3998\n 18377: a5 = a4 + 0x300\n 18381: u64 [a5 + 0x20] = a0\n 18384: u64 [a5 + 0x18] = a1\n 18387: u64 [a5 + 0x10] = a2\n 18390: u64 [a5 + 0x8] = a3\n 18393: a1 = s1 + 0x3ca0\n 18397: a0 = u64 [s1 + 0x188]\n 18401: ra = 732, jump @28\n      : @728 [@dyn 366] (gas: 3)\n 18407: a0 = s1 + 0x1aa0\n 18411: a1 = u64 [s1 + 0x1a0]\n 18415: ra = 734, jump @26\n      : @729 [@dyn 367] (gas: 32)\n 18421: a0 = s1 + 0x1958\n 18425: a3 = u64 [a0 + 0x148]\n 18429: a0 = s1 + 0x1958\n 18433: a0 = u64 [a0 + 0x150]\n 18437: a1 = s1 + 0x1958\n 18441: a1 = u64 [a1 + 0x158]\n 18445: a2 = s1 + 0x1958\n 18449: a2 = u64 [a2 + 0x160]\n 18453: a4 = s1 + 0x1958\n 18457: a5 = u64 [s1 + 0x198]\n 18461: u64 [a4 + 0x100] = a5\n 18465: a4 = s1 + 0x1958\n 18469: a5 = u64 [s1 + 0x1b8]\n 18473: u64 [a4 + 0xf8] = a5\n 18477: a4 = s1 + 0x1958\n 18481: a5 = u64 [s1 + 0x1b0]\n 18485: u64 [a4 + 0xf0] = a5\n 18489: a4 = s1 + 0x1958\n 18493: a5 = u64 [s1 + 0x1a8]\n 18497: u64 [a4 + 0xe8] = a5\n 18501: a4 = s1 + 0x1958\n 18505: u64 [a4 + 0x120] = a2\n 18509: a2 = s1 + 0x1958\n 18513: u64 [a2 + 0x118] = a1\n 18517: a1 = s1 + 0x1958\n 18521: u64 [a1 + 0x110] = a0\n 18525: a0 = s1 + 0x1a80\n 18529: a1 = s1 + 0x1a60\n 18533: a2 = s1 + 0x1a40\n 18537: a4 = s1 + 0x1958\n 18541: u64 [a4 + 0x108] = a3\n 18545: ra = 736, jump @1757\n      : @730 [@dyn 368] (gas: 17)\n 18551: a0 = s1 + 0x1958\n 18555: a0 = u64 [a0 + 0x140]\n 18559: a1 = s1 + 0x1958\n 18563: a1 = u64 [a1 + 0x138]\n 18567: a2 = s1 + 0x1958\n 18571: a2 = u64 [a2 + 0x130]\n 18575: a3 = s1 + 0x1958\n 18579: a3 = u64 [a3 + 0x128]\n 18583: a4 = s1 + 0x3998\n 18587: a5 = a4 + 0x300\n 18591: u64 [a5 + 0x40] = a0\n 18594: u64 [a5 + 0x38] = a1\n 18597: u64 [a5 + 0x30] = a2\n 18600: u64 [a5 + 0x28] = a3\n 18603: a1 = s1 + 0x3cc0\n 18607: a0 = u64 [s1 + 0x1a0]\n 18611: ra = 738, jump @28\n      : @731 [@dyn 369] (gas: 3)\n 18617: a0 = s1 + 0x1a20\n 18621: a1 = 0x40\n 18624: ra = 740, jump @22\n      : @732 [@dyn 370] (gas: 6)\n 18630: a3 = s1 + 0x1958\n 18634: a0 = u64 [a3 + 0xe0]\n 18638: a1 = u64 [a3 + 0xd8]\n 18642: a2 = u64 [a3 + 0xd0]\n 18646: a4 = u64 [a3 + 0xc8]\n 18650: t0 = 742, jump @2044\n      : @733 [@dyn 371] (gas: 1)\n 18657: jump @735 if a0 == 0\n      : @734 (gas: 1)\n 18660: jump @1050\n      : @735 (gas: 12)\n 18663: a0 = u64 [s1 + 0x1a8]\n 18667: u64 [a3 + 0xa8] = a0\n 18671: a0 = u64 [s1 + 0x1b0]\n 18675: u64 [a3 + 0xb0] = a0\n 18679: a0 = u64 [s1 + 0x1b8]\n 18683: u64 [a3 + 0xb8] = a0\n 18687: a1 = s1 + 0x1a00\n 18691: a0 = u64 [s1 + 0x198]\n 18695: u64 [a3 + 0xc0] = a0\n 18699: a0 = a4\n 18701: u64 [s1 + 0x1b8] = a4\n 18705: ra = 744, jump @24\n      : @736 [@dyn 372] (gas: 6)\n 18711: a0 = u64 [s1 + 0x170]\n 18715: ra = 0x2ea\n 18719: ecalli 5 // 'caller'\n 18721: a2 = u64 [s1 + 0x190]\n 18725: t0 = 0x2ec\n 18729: jump @1999\n      : @737 [@dyn 373] (gas: 2)\n 18733: a2 = u64 [s1 + 0x190]\n 18737: t0 = 748, jump @1999\n      : @738 [@dyn 374] (gas: 24)\n 18744: t0 = a1 | a0\n 18747: a3 = a3 >> 0x20\n 18750: a2 = reverse a2\n 18752: a1 = a2 << 0x20\n 18755: a1 = a1 | a3\n 18758: a2 = a2 >> 0x20\n 18761: a3 = u64 [0x20080]\n 18766: a0 = s1 + 0x1958\n 18770: u64 [a0 + 0xa0] = a3\n 18774: a3 = u64 [0x20088]\n 18779: a4 = u64 [0x20090]\n 18784: a5 = u64 [0x20098]\n 18789: u64 [a0 + 0x98] = a3\n 18793: u64 [a0 + 0x90] = a4\n 18797: u64 [a0 + 128] = 0\n 18801: u64 [a0 + 0x88] = a5\n 18805: u64 [a0 + 0x78] = a2\n 18808: u64 [a0 + 0x70] = a1\n 18811: a1 = 0x20\n 18814: a2 = s1 + 0x19e0\n 18818: a3 = s1 + 0x19c0\n 18822: u64 [a0 + 0x68] = t0\n 18825: a0 = u64 [s1 + 0x1b8]\n 18829: ra = 750, jump @29\n      : @739 [@dyn 375] (gas: 7)\n 18835: a0 = 0\n 18837: a1 = u64 [s1 + 0x178]\n 18841: a2 = 0\n 18843: ra = 0x570\n 18847: ecalli 14 // 'seal_return'\n 18849: t0 = 0x572\n 18853: jump @2045\n      : @740 (gas: 10)\n 18857: u64 [a2 + 1376] = 0\n 18861: u64 [a2 + 1368] = 0\n 18865: u64 [a2 + 1360] = 0\n 18869: u64 [a2 + 1352] = 0\n 18873: a0 = s1 + 0x3000\n 18877: i32 a0 = a0 + 0x6e0\n 18881: ra = 0x2f0\n 18885: ecalli 17 // 'value_transferred'\n 18887: t0 = 0x2f2\n 18891: jump @2090\n      : @741 [@dyn 376] (gas: 1)\n 18895: t0 = 754, jump @2090\n      : @742 [@dyn 377] (gas: 1)\n 18902: t0 = 756, jump @2088\n      : @743 [@dyn 378] (gas: 1)\n 18909: jump @745 if a0 == 0\n      : @744 (gas: 1)\n 18912: jump @1217\n      : @745 (gas: 1)\n 18915: t0 = 758, jump @2045\n      : @746 [@dyn 379] (gas: 1)\n 18922: jump @748 if a1 <u a0\n      : @747 (gas: 1)\n 18925: jump @1218\n      : @748 (gas: 4)\n 18928: a0 = s1 + 0x3c0\n 18932: ra = 0x2f8\n 18936: t0 = 0x6b8\n 18940: jump @2079\n      : @749 [@dyn 380] (gas: 10)\n 18944: a0 = u64 [s1 + 0x3c0]\n 18948: a1 = u64 [s1 + 0x3c8]\n 18952: a2 = u32 [s1 + 0x3d0]\n 18956: u64 [s1 + 952] = 0\n 18960: u64 [s1 + 0x3b0] = a2\n 18964: u64 [s1 + 0x3a8] = a1\n 18968: a1 = s1 + 0x3a0\n 18972: u64 [s1 + 0x3a0] = a0\n 18976: a0 = 0\n 18978: ra = 762, jump @24\n      : @750 [@dyn 381] (gas: 7)\n 18984: u64 [s1 + 920] = 0\n 18988: u64 [s1 + 912] = 0\n 18992: u64 [s1 + 896] = 0x1\n 18997: a0 = 0x20\n 19000: a1 = s1 + 0x380\n 19004: u64 [s1 + 904] = 0\n 19008: ra = 764, jump @24\n      : @751 [@dyn 382] (gas: 6)\n 19014: a0 = sp + 0xffffffffffffffe0\n 19017: a0 = a0 & 0xffffffffffffffe0\n 19020: u64 [s1 + 0x198] = a0\n 19024: sp = a0\n 19026: a1 = i32 [0x20180]\n 19031: jump @753 if a1 >u 63\n      : @752 (gas: 4)\n 19035: a1 = 0x40\n 19038: u32 [0x20180] = a1\n 19043: t0 = 0x2fe\n 19047: jump @2016\n      : @753 (gas: 1)\n 19051: t0 = 766, jump @2016\n      : @754 [@dyn 383] (gas: 8)\n 19058: a0 = 0x20190\n 19063: i32 a0 = a0 + 0\n 19065: i32 a2 = a2 + 0\n 19067: a1 = 0x40\n 19070: ra = 0x300\n 19074: ecalli 9 // 'hash_keccak_256'\n 19076: t0 = 0x302\n 19080: jump @2011\n      : @755 [@dyn 384] (gas: 1)\n 19084: t0 = 770, jump @2011\n      : @756 [@dyn 385] (gas: 2)\n 19091: a0 = s1 + 0x360\n 19095: ra = 772, jump @26\n      : @757 [@dyn 386] (gas: 8)\n 19101: a0 = u64 [s1 + 0x378]\n 19105: u64 [s1 + 0x198] = a0\n 19109: a0 = u64 [s1 + 0x370]\n 19113: u64 [s1 + 0x190] = a0\n 19117: a0 = u64 [s1 + 0x368]\n 19121: u64 [s1 + 0x188] = a0\n 19125: a0 = u64 [s1 + 0x360]\n 19129: t0 = 774, jump @2053\n      : @758 [@dyn 387] (gas: 15)\n 19136: a3 = a2 + 0x500\n 19140: u64 [a3 + 0x70] = a1\n 19143: a1 = a1 | a0\n 19146: u64 [a3 + 0x68] = a0\n 19149: a0 = a1 <u 0x1\n 19152: a1 = u64 [s1 + 0x1a0]\n 19156: a0 = a0 + a1\n 19159: u64 [a3 + 0x78] = a0\n 19162: a0 = a0 <u a1\n 19165: a1 = u64 [s1 + 0x1b8]\n 19169: a0 = a0 + a1\n 19172: u64 [a3 + 0x80] = a0\n 19176: a0 = s1 + 0x340\n 19180: a1 = s1 + 0x3700\n 19184: ra = 776, jump @26\n      : @759 [@dyn 388] (gas: 9)\n 19190: a0 = u64 [s1 + 0x358]\n 19194: u64 [s1 + 0x178] = a0\n 19198: a0 = u64 [s1 + 0x350]\n 19202: u64 [s1 + 0x170] = a0\n 19206: a0 = u64 [s1 + 0x348]\n 19210: u64 [s1 + 0x168] = a0\n 19214: a0 = u64 [s1 + 0x340]\n 19218: u64 [s1 + 0x160] = a0\n 19222: t0 = 778, jump @2019\n      : @760 [@dyn 389] (gas: 1)\n 19229: t0 = 780, jump @2043\n      : @761 [@dyn 390] (gas: 9)\n 19236: a4 = s1 + 0x3198\n 19240: a5 = a4 + 0x500\n 19244: u64 [a5 + 0xa0] = a1\n 19248: u64 [a5 + 0x98] = a3\n 19252: u64 [a5 + 0x90] = a2\n 19256: u64 [a5 + 0x88] = a0\n 19260: a0 = s1 + 0x320\n 19264: a1 = s1 + 0x3720\n 19268: ra = 782, jump @26\n      : @762 [@dyn 391] (gas: 9)\n 19274: a0 = u64 [s1 + 0x338]\n 19278: u64 [s1 + 0x158] = a0\n 19282: a0 = u64 [s1 + 0x330]\n 19286: u64 [s1 + 0x150] = a0\n 19290: a1 = u64 [s1 + 0x1a8]\n 19294: a0 = a1 + 0x3\n 19297: a1 = a0 <u a1\n 19300: a3 = u64 [s1 + 0x1b0]\n 19304: t0 = 784, jump @2023\n      : @763 [@dyn 392] (gas: 3)\n 19311: a1 = u64 [s1 + 0x328]\n 19315: u64 [s1 + 0x1a8] = a1\n 19319: t0 = 786, jump @2043\n      : @764 [@dyn 393] (gas: 11)\n 19326: a4 = u64 [s1 + 0x320]\n 19330: u64 [s1 + 0x1a0] = a4\n 19334: a4 = s1 + 0x3198\n 19338: a5 = a4 + 0x500\n 19342: u64 [a5 + 0xc0] = a1\n 19346: u64 [a5 + 0xb8] = a3\n 19350: u64 [a5 + 0xb0] = a2\n 19354: u64 [a5 + 0xa8] = a0\n 19358: a0 = s1 + 0x300\n 19362: a1 = s1 + 0x3740\n 19366: ra = 788, jump @26\n      : @765 [@dyn 394] (gas: 5)\n 19372: a0 = u64 [s1 + 0x300]\n 19376: u64 [s1 + 0x148] = a0\n 19380: a0 = s1 + 0x2e0\n 19384: a1 = 0x40\n 19387: ra = 790, jump @22\n      : @766 [@dyn 395] (gas: 13)\n 19393: a0 = s1 + 0x200\n 19397: a4 = u64 [a0 + 0xf8]\n 19401: a5 = u64 [a0 + 0xf0]\n 19405: a3 = u64 [a0 + 0xe8]\n 19409: a2 = u64 [a0 + 0xe0]\n 19413: a0 = a3 | a4\n 19416: a1 = a2 | a5\n 19419: a1 = a1 | a0\n 19422: a1 = a1 >> 0x20\n 19425: a0 = a0 | a5\n 19428: a0 = a0 << 0x20\n 19431: a0 = a0 | a1\n 19434: jump @768 if a0 == 0\n      : @767 (gas: 1)\n 19437: jump @1050\n      : @768 (gas: 15)\n 19440: a0 = u64 [s1 + 0x180]\n 19444: u64 [s1 + 0x2c0] = a0\n 19448: a0 = u64 [s1 + 0x188]\n 19452: u64 [s1 + 0x2c8] = a0\n 19456: a0 = u64 [s1 + 0x190]\n 19460: u64 [s1 + 0x2d0] = a0\n 19464: a1 = s1 + 0x2c0\n 19468: a0 = u64 [s1 + 0x198]\n 19472: u64 [s1 + 0x2d8] = a0\n 19476: a0 = a2\n 19478: u64 [s1 + 0x1b8] = a2\n 19482: u64 [s1 + 0x1b0] = a3\n 19486: u64 [s1 + 0x198] = a4\n 19490: u64 [s1 + 0x190] = a5\n 19494: ra = 792, jump @24\n      : @769 [@dyn 396] (gas: 12)\n 19500: a5 = s1 + 0x100\n 19504: a1 = u64 [a5 + 0xb8]\n 19508: a0 = u64 [a5 + 0x98]\n 19512: a3 = u64 [a5 + 0x90]\n 19516: a3 = a3 | a0\n 19519: a4 = 0x100000000\n 19529: a0 = 0xffffffe0\n 19539: a0 = a1 <u a0\n 19542: a2 = u64 [a5 + 0xb0]\n 19546: a0 = 0 if a2 != 0\n 19548: a0 = 0 if a3 != 0\n 19550: jump @771 if a0 != 0\n      : @770 (gas: 1)\n 19553: jump @1050\n      : @771 (gas: 14)\n 19556: i32 a0 = a1 + 0x20\n 19559: a1 = u64 [s1 + 0x160]\n 19563: a5 = s1 + 0x200\n 19567: u64 [a5 + 0xa0] = a1\n 19571: a1 = u64 [s1 + 0x168]\n 19575: u64 [a5 + 0xa8] = a1\n 19579: a1 = u64 [s1 + 0x170]\n 19583: u64 [a5 + 0xb0] = a1\n 19587: a1 = s1 + 0x2a0\n 19591: a2 = u64 [s1 + 0x178]\n 19595: u64 [a5 + 0xb8] = a2\n 19599: u64 [s1 + 0x198] = a3\n 19603: u64 [s1 + 0x190] = a4\n 19607: ra = 794, jump @24\n      : @772 [@dyn 397] (gas: 10)\n 19613: a2 = s1 + 0x100\n 19617: a4 = u64 [a2 + 0x98]\n 19621: a3 = u64 [a2 + 0xb0]\n 19625: a1 = u64 [a2 + 0xb8]\n 19629: a0 = u64 [a2 + 0x90]\n 19633: a0 = a0 + 0xffffffffffffffc0\n 19636: a0 = a1 <u a0\n 19639: a0 = 0 if a3 != 0\n 19641: a0 = 0 if a4 != 0\n 19643: jump @774 if a0 != 0\n      : @773 (gas: 1)\n 19646: jump @1050\n      : @774 (gas: 12)\n 19649: i32 a0 = a1 + 0x40\n 19652: a1 = u64 [s1 + 0x1a0]\n 19656: a3 = s1 + 0x200\n 19660: u64 [a3 + 0x80] = a1\n 19664: a1 = u64 [s1 + 0x1a8]\n 19668: u64 [a3 + 0x88] = a1\n 19672: a1 = u64 [s1 + 0x150]\n 19676: u64 [a3 + 0x90] = a1\n 19680: a1 = s1 + 0x280\n 19684: a2 = u64 [s1 + 0x158]\n 19688: u64 [a3 + 0x98] = a2\n 19692: ra = 796, jump @24\n      : @775 [@dyn 398] (gas: 9)\n 19698: a3 = s1 + 0x100\n 19702: a2 = u64 [a3 + 0xb8]\n 19706: a0 = 0xffffffa0\n 19716: a0 = a2 <u a0\n 19719: a1 = u64 [a3 + 0xb0]\n 19723: a0 = 0 if a1 != 0\n 19725: a1 = u64 [a3 + 0x98]\n 19729: a0 = 0 if a1 != 0\n 19731: jump @777 if a0 != 0\n      : @776 (gas: 1)\n 19734: jump @1050\n      : @777 (gas: 10)\n 19737: a0 = u64 [s1 + 0x148]\n 19741: a0 = a0 << 0x20\n 19744: a1 = a0 >> 0x20\n 19747: i32 a0 = a2 + 0x60\n 19750: u64 [s1 + 632] = 0\n 19754: u64 [s1 + 624] = 0\n 19758: u64 [s1 + 0x260] = a1\n 19762: a1 = s1 + 0x260\n 19766: u64 [s1 + 616] = 0\n 19770: ra = 798, jump @24\n      : @778 [@dyn 399] (gas: 3)\n 19776: a1 = 0x80\n 19780: a0 = u64 [s1 + 0x1b8]\n 19784: ra = 800, jump @37\n      : @779 [@dyn 400] (gas: 5)\n 19790: i32 a1 = a0 + 0\n 19792: a2 = 0x80\n 19796: a0 = 0\n 19798: ecalli 14 // 'seal_return'\n 19800: jump @1249\n      : @780 (gas: 9)\n 19803: u64 [a2 + 1568] = 0\n 19807: u64 [a2 + 1560] = 0\n 19811: u64 [a2 + 1552] = 0\n 19815: u64 [a2 + 1544] = 0\n 19819: a0 = s1 + 0x3000\n 19823: i32 a0 = a0 + 0x7a0\n 19827: ra = 0x322\n 19831: ecalli 17 // 'value_transferred'\n 19833: fallthrough\n      : @781 [@dyn 401] (gas: 10)\n 19834: a3 = s1 + 0x3198\n 19838: a4 = a3 + 0x600\n 19842: a0 = u64 [a4 + 0x18]\n 19845: a1 = u64 [a4 + 0x20]\n 19848: a2 = u64 [a4 + 0x10]\n 19851: a3 = u64 [a4 + 0x8]\n 19854: a1 = a1 | a2\n 19857: a0 = a0 | a3\n 19860: a0 = a0 | a1\n 19863: jump @783 if a0 == 0\n      : @782 (gas: 1)\n 19866: jump @1219\n      : @783 (gas: 1)\n 19869: t0 = 804, jump @2045\n      : @784 [@dyn 402] (gas: 1)\n 19876: jump @786 if a1 <u a0\n      : @785 (gas: 1)\n 19879: jump @1220\n      : @786 (gas: 4)\n 19882: a0 = s1 + 0x5c0\n 19886: ra = 0x326\n 19890: t0 = 0x6b8\n 19894: jump @2079\n      : @787 [@dyn 403] (gas: 10)\n 19898: a0 = u64 [s1 + 0x5c0]\n 19902: a1 = u64 [s1 + 0x5c8]\n 19906: a2 = u32 [s1 + 0x5d0]\n 19910: u64 [s1 + 1464] = 0\n 19914: u64 [s1 + 0x5b0] = a2\n 19918: u64 [s1 + 0x5a8] = a1\n 19922: a1 = s1 + 0x5a0\n 19926: u64 [s1 + 0x5a0] = a0\n 19930: a0 = 0\n 19932: ra = 808, jump @24\n      : @788 [@dyn 404] (gas: 7)\n 19938: u64 [s1 + 1432] = 0\n 19942: u64 [s1 + 1424] = 0\n 19946: u64 [s1 + 1408] = 0x1\n 19951: a0 = 0x20\n 19954: a1 = s1 + 0x580\n 19958: u64 [s1 + 1416] = 0\n 19962: ra = 810, jump @24\n      : @789 [@dyn 405] (gas: 6)\n 19968: a0 = sp + 0xffffffffffffffe0\n 19971: a0 = a0 & 0xffffffffffffffe0\n 19974: u64 [s1 + 0x198] = a0\n 19978: sp = a0\n 19980: a1 = i32 [0x20180]\n 19985: jump @791 if a1 >u 63\n      : @790 (gas: 4)\n 19989: a1 = 0x40\n 19992: u32 [0x20180] = a1\n 19997: t0 = 0x32c\n 20001: jump @2016\n      : @791 (gas: 1)\n 20005: t0 = 812, jump @2016\n      : @792 [@dyn 406] (gas: 25)\n 20012: a0 = 0x20190\n 20017: i32 a0 = a0 + 0\n 20019: i32 a2 = a2 + 0\n 20021: a1 = 0x40\n 20024: ecalli 9 // 'hash_keccak_256'\n 20026: a3 = u64 [s1 + 0x1b8]\n 20030: a0 = u64 [a3 + 0x18]\n 20033: a1 = u64 [a3 + 0x10]\n 20036: a2 = u64 [a3 + 0x8]\n 20039: a3 = u64 [a3]\n 20041: a4 = reverse a0\n 20043: u64 [s1 + 0x1a8] = a4\n 20047: a5 = reverse a1\n 20049: u64 [s1 + 0x1b0] = a5\n 20053: a2 = reverse a2\n 20055: u64 [s1 + 0x1a0] = a2\n 20059: a0 = reverse a3\n 20061: u64 [s1 + 0x1b8] = a0\n 20065: a1 = u64 [s1 + 0x198]\n 20069: u64 [a1 + 0x18] = a0\n 20072: u64 [a1 + 0x10] = a2\n 20075: u64 [a1 + 0x8] = a5\n 20078: u64 [a1] = a4\n 20080: a0 = s1 + 0x560\n 20084: ra = 814, jump @26\n      : @793 [@dyn 407] (gas: 8)\n 20090: a0 = u64 [s1 + 0x560]\n 20094: u64 [s1 + 0x198] = a0\n 20098: a0 = u64 [s1 + 0x568]\n 20102: u64 [s1 + 0x190] = a0\n 20106: a0 = u64 [s1 + 0x570]\n 20110: u64 [s1 + 0x188] = a0\n 20114: a0 = u64 [s1 + 0x578]\n 20118: t0 = 816, jump @2053\n      : @794 [@dyn 408] (gas: 15)\n 20125: a3 = a2 + 0x600\n 20129: u64 [a3 + 0x30] = a1\n 20132: a1 = a1 | a0\n 20135: u64 [a3 + 0x28] = a0\n 20138: a0 = a1 <u 0x1\n 20141: a1 = u64 [s1 + 0x1a0]\n 20145: a0 = a0 + a1\n 20148: u64 [a3 + 0x38] = a0\n 20151: a0 = a0 <u a1\n 20154: a1 = u64 [s1 + 0x1b8]\n 20158: a0 = a0 + a1\n 20161: u64 [a3 + 0x40] = a0\n 20164: a0 = s1 + 0x540\n 20168: a1 = s1 + 0x37c0\n 20172: ra = 818, jump @26\n      : @795 [@dyn 409] (gas: 20)\n 20178: a0 = u64 [s1 + 0x540]\n 20182: a1 = u64 [s1 + 0x548]\n 20186: a2 = u64 [s1 + 0x550]\n 20190: a3 = u64 [s1 + 0x558]\n 20194: u64 [s1 + 0x4f8] = a3\n 20198: u64 [s1 + 0x4f0] = a2\n 20202: u64 [s1 + 0x4e8] = a1\n 20206: u64 [s1 + 0x4e0] = a0\n 20210: a0 = u64 [s1 + 0x180]\n 20214: u64 [s1 + 0x518] = a0\n 20218: a0 = u64 [s1 + 0x188]\n 20222: u64 [s1 + 0x510] = a0\n 20226: a0 = u64 [s1 + 0x190]\n 20230: u64 [s1 + 0x508] = a0\n 20234: a0 = s1 + 0x520\n 20238: a1 = s1 + 0x500\n 20242: a2 = s1 + 0x4e0\n 20246: a3 = u64 [s1 + 0x198]\n 20250: u64 [s1 + 0x500] = a3\n 20254: ra = 820, jump @1757\n      : @796 [@dyn 410] (gas: 6)\n 20260: a5 = s1 + 0x500\n 20264: a0 = u64 [a5 + 0x20]\n 20267: u64 [s1 + 0x198] = a0\n 20271: a0 = u64 [a5 + 0x28]\n 20274: u64 [s1 + 0x190] = a0\n 20278: t0 = 822, jump @2019\n      : @797 [@dyn 411] (gas: 3)\n 20285: a1 = u64 [a5 + 0x30]\n 20288: u64 [s1 + 0x1b0] = a1\n 20292: t0 = 824, jump @2043\n      : @798 [@dyn 412] (gas: 11)\n 20299: a4 = u64 [a5 + 0x38]\n 20302: u64 [s1 + 0x1b8] = a4\n 20306: a4 = s1 + 0x3198\n 20310: a5 = a4 + 0x600\n 20314: u64 [a5 + 0x60] = a1\n 20317: u64 [a5 + 0x58] = a3\n 20320: u64 [a5 + 0x50] = a2\n 20323: u64 [a5 + 0x48] = a0\n 20326: a0 = s1 + 0x4c0\n 20330: a1 = s1 + 0x37e0\n 20334: ra = 826, jump @26\n      : @799 [@dyn 413] (gas: 20)\n 20340: a0 = u64 [s1 + 0x4c0]\n 20344: a1 = u64 [s1 + 0x4c8]\n 20348: a2 = u64 [s1 + 0x4d0]\n 20352: a3 = u64 [s1 + 0x4d8]\n 20356: u64 [s1 + 0x478] = a3\n 20360: u64 [s1 + 0x470] = a2\n 20364: u64 [s1 + 0x468] = a1\n 20368: u64 [s1 + 0x460] = a0\n 20372: a0 = u64 [s1 + 0x1b8]\n 20376: u64 [s1 + 0x498] = a0\n 20380: a0 = u64 [s1 + 0x1b0]\n 20384: u64 [s1 + 0x490] = a0\n 20388: a0 = u64 [s1 + 0x190]\n 20392: u64 [s1 + 0x488] = a0\n 20396: a0 = s1 + 0x4a0\n 20400: a1 = s1 + 0x480\n 20404: a2 = s1 + 0x460\n 20408: a3 = u64 [s1 + 0x198]\n 20412: u64 [s1 + 0x480] = a3\n 20416: ra = 828, jump @1757\n      : @800 [@dyn 414] (gas: 12)\n 20422: a0 = u64 [s1 + 0x4b8]\n 20426: a1 = s1 + 0x100\n 20430: u64 [a1 + 0xb8] = a0\n 20434: a0 = u64 [s1 + 0x4b0]\n 20438: u64 [a1 + 0xb0] = a0\n 20442: a0 = u64 [s1 + 0x4a8]\n 20446: u64 [a1 + 0xa8] = a0\n 20450: a0 = u64 [s1 + 0x4a0]\n 20454: u64 [a1 + 0xa0] = a0\n 20458: a0 = s1 + 0x440\n 20462: a1 = 0x40\n 20465: ra = 830, jump @22\n      : @801 [@dyn 415] (gas: 6)\n 20471: a4 = s1 + 0x400\n 20475: a0 = u64 [a4 + 0x58]\n 20478: a1 = u64 [a4 + 0x50]\n 20481: a2 = u64 [a4 + 0x48]\n 20484: a3 = u64 [a4 + 0x40]\n 20487: t0 = 832, jump @2018\n      : @802 [@dyn 416] (gas: 1)\n 20494: jump @804 if a0 == 0\n      : @803 (gas: 1)\n 20497: jump @1050\n      : @804 (gas: 14)\n 20500: a2 = s1 + 0x100\n 20504: a0 = u64 [a2 + 0xa0]\n 20508: a4 = s1 + 0x400\n 20512: u64 [a4 + 0x20] = a0\n 20515: a0 = u64 [a2 + 0xa8]\n 20519: u64 [a4 + 0x28] = a0\n 20522: a0 = u64 [a2 + 0xb0]\n 20526: u64 [a4 + 0x30] = a0\n 20529: a1 = s1 + 0x420\n 20533: a0 = u64 [a2 + 0xb8]\n 20537: u64 [a4 + 0x38] = a0\n 20540: a0 = a3\n 20542: u64 [s1 + 0x1b8] = a3\n 20546: ra = 834, jump @24\n      : @805 [@dyn 417] (gas: 4)\n 20552: a1 = 0x20\n 20555: a0 = u64 [s1 + 0x1b8]\n 20559: ra = 0x50c\n 20563: jump @37\n      : @806 (gas: 11)\n 20566: a0 = s1 + 0x3998\n 20570: u64 [a0 + 704] = 0\n 20574: u64 [a0 + 696] = 0\n 20578: u64 [a0 + 688] = 0\n 20582: u64 [a0 + 680] = 0\n 20586: a0 = s1 + 0x4000\n 20590: i32 a0 = a0 + 0xfffffffffffffc40\n 20594: ra = 0x344\n 20598: ecalli 17 // 'value_transferred'\n 20600: t0 = 0x346\n 20604: jump @2059\n      : @807 [@dyn 418] (gas: 1)\n 20608: t0 = 838, jump @2059\n      : @808 [@dyn 419] (gas: 1)\n 20615: t0 = 840, jump @2056\n      : @809 [@dyn 420] (gas: 1)\n 20622: jump @811 if a0 == 0\n      : @810 (gas: 1)\n 20625: jump @1221\n      : @811 (gas: 3)\n 20628: a0 = u64 [s1 + 0x1b8]\n 20632: a0 = i32 [a0]\n 20634: jump @813 if a0 >u 99\n      : @812 (gas: 1)\n 20638: jump @1222\n      : @813 (gas: 4)\n 20641: a0 = s1 + 0x1960\n 20645: ra = 0x34a\n 20649: t0 = 0x6b8\n 20653: jump @2079\n      : @814 [@dyn 421] (gas: 11)\n 20657: a1 = s1 + 0x1958\n 20661: a0 = u64 [a1 + 0x8]\n 20664: u64 [s1 + 0x1b8] = a0\n 20668: a0 = u64 [a1 + 0x10]\n 20671: u64 [s1 + 0x1b0] = a0\n 20675: a0 = u32 [a1 + 0x18]\n 20678: u64 [s1 + 0x198] = a0\n 20682: a0 = s1 + 0x1940\n 20686: ra = 0x34c\n 20690: t0 = 0x6bc\n 20694: jump @2074\n      : @815 [@dyn 422] (gas: 5)\n 20698: a0 = s1 + 0x1958\n 20702: a0 = u64 [a0 + 0xffffffffffffffe8]\n 20705: u64 [s1 + 0x1a0] = a0\n 20709: a0 = s1 + 0x1920\n 20713: ra = 846, jump @1596\n      : @816 [@dyn 423] (gas: 15)\n 20719: a2 = s1 + 0x1158\n 20723: a3 = a2 + 0x700\n 20727: a0 = u64 [a3 + 0xc8]\n 20731: a4 = s1 + 0x100\n 20735: u64 [a4 + 0xa8] = a0\n 20739: u64 [a2 + 1984] = 0\n 20743: a0 = u64 [a4 + 0x98]\n 20747: u64 [a3 + 0xb8] = a0\n 20751: a0 = u64 [a4 + 0xb0]\n 20755: u64 [a3 + 0xb0] = a0\n 20759: a1 = s1 + 0x1900\n 20763: a0 = u64 [a4 + 0xb8]\n 20767: u64 [a3 + 0xa8] = a0\n 20771: a0 = 0\n 20773: ra = 848, jump @24\n      : @817 [@dyn 424] (gas: 9)\n 20779: a1 = s1 + 0x1158\n 20783: u64 [a1 + 1952] = 0\n 20787: u64 [a1 + 1944] = 0\n 20791: u64 [a1 + 1928] = 0x4\n 20796: a2 = a1\n 20798: a0 = 0x20\n 20801: a1 = s1 + 0x18e0\n 20805: u64 [a2 + 1936] = 0\n 20809: ra = 850, jump @24\n      : @818 [@dyn 425] (gas: 3)\n 20815: a1 = 0x20180\n 20820: a0 = i32 [0x20180]\n 20825: jump @820 if a0 >u 63\n      : @819 (gas: 2)\n 20829: u32 [0x20180] = 0x40\n 20835: fallthrough\n      : @820 (gas: 13)\n 20836: a0 = sp + 0xffffffffffffffe0\n 20839: a2 = a0 & 0xffffffffffffffe0\n 20842: u64 [s1 + 0x198] = a2\n 20846: sp = a2\n 20848: a0 = 0x20190\n 20853: i32 a0 = a0 + 0\n 20855: i32 a2 = a2 + 0\n 20857: u64 [s1 + 0x1b8] = a1\n 20861: a1 = 0x40\n 20864: u64 [s1 + 0x1b0] = a0\n 20868: ra = 0x354\n 20872: ecalli 9 // 'hash_keccak_256'\n 20874: fallthrough\n      : @821 [@dyn 426] (gas: 8)\n 20875: a3 = u64 [s1 + 0x198]\n 20879: a0 = u64 [a3 + 0x18]\n 20882: a1 = u64 [a3 + 0x10]\n 20885: a2 = u64 [a3 + 0x8]\n 20888: a3 = u64 [a3]\n 20890: a0 = reverse a0\n 20892: u64 [s1 + 0x198] = a0\n 20896: t0 = 854, jump @2041\n      : @822 [@dyn 427] (gas: 8)\n 20903: u64 [a2 + 1920] = 0\n 20907: u64 [a2 + 1912] = 0\n 20911: u64 [a2 + 1904] = 0\n 20915: a1 = s1 + 0x18c0\n 20919: a0 = u64 [s1 + 0x1a0]\n 20923: u64 [a2 + 0x768] = a0\n 20927: a0 = 0\n 20929: ra = 856, jump @24\n      : @823 [@dyn 428] (gas: 4)\n 20935: a0 = u64 [s1 + 0x180]\n 20939: a1 = s1 + 0x1158\n 20943: a2 = a1 + 0x700\n 20947: t0 = 858, jump @2100\n      : @824 [@dyn 429] (gas: 4)\n 20954: a1 = s1 + 0x18a0\n 20958: a2 = u64 [s1 + 0x198]\n 20962: u64 [a3 + 0x748] = a2\n 20966: ra = 860, jump @24\n      : @825 [@dyn 430] (gas: 3)\n 20972: a1 = u64 [s1 + 0x1b8]\n 20976: a0 = i32 [a1]\n 20978: jump @827 if a0 >u 63\n      : @826 (gas: 2)\n 20982: u32 [a1 + 0] = 0x40\n 20985: fallthrough\n      : @827 (gas: 4)\n 20986: a0 = sp + 0xffffffffffffffe0\n 20989: a0 = a0 & 0xffffffffffffffe0\n 20992: u64 [s1 + 0x1a0] = a0\n 20996: t0 = 862, jump @2001\n      : @828 [@dyn 431] (gas: 3)\n 21002: ra = 0x360\n 21006: ecalli 9 // 'hash_keccak_256'\n 21008: fallthrough\n      : @829 [@dyn 432] (gas: 8)\n 21009: a3 = u64 [s1 + 0x1a0]\n 21013: a0 = u64 [a3 + 0x18]\n 21016: a1 = u64 [a3 + 0x10]\n 21019: a2 = u64 [a3 + 0x8]\n 21022: a3 = u64 [a3]\n 21024: a0 = reverse a0\n 21026: u64 [s1 + 0x198] = a0\n 21030: t0 = 866, jump @2014\n      : @830 [@dyn 433] (gas: 13)\n 21036: u64 [s1 + 0x1a0] = a0\n 21040: sp = a0\n 21042: a0 = u64 [s1 + 0x1a8]\n 21046: a0 = a0 << 0x20\n 21049: a0 = a0 >> 0x20\n 21052: a2 = s1 + 0x1158\n 21056: u64 [a2 + 1856] = 0\n 21060: u64 [a2 + 1848] = 0\n 21064: u64 [a2 + 1840] = 0\n 21068: a1 = s1 + 0x1880\n 21072: u64 [a2 + 0x728] = a0\n 21076: a0 = 0\n 21078: ra = 868, jump @24\n      : @831 [@dyn 434] (gas: 14)\n 21084: a0 = u64 [s1 + 0x180]\n 21088: a1 = s1 + 0x1158\n 21092: a2 = a1 + 0x700\n 21096: u64 [a2 + 0x20] = a0\n 21099: a0 = u64 [s1 + 0x188]\n 21103: u64 [a2 + 0x18] = a0\n 21106: a0 = u64 [s1 + 0x190]\n 21110: u64 [a2 + 0x10] = a0\n 21113: a3 = a1\n 21115: a0 = 0x20\n 21118: a1 = s1 + 0x1860\n 21122: a2 = u64 [s1 + 0x198]\n 21126: u64 [a3 + 0x708] = a2\n 21130: ra = 870, jump @24\n      : @832 [@dyn 435] (gas: 3)\n 21136: a1 = u64 [s1 + 0x1b8]\n 21140: a0 = i32 [a1]\n 21142: jump @834 if a0 >=u 64\n      : @833 (gas: 2)\n 21146: u32 [a1 + 0] = 0x40\n 21149: fallthrough\n      : @834 (gas: 4)\n 21150: a0 = sp + 0xffffffffffffffe0\n 21153: a0 = a0 & 0xffffffffffffffe0\n 21156: u64 [s1 + 0x1b8] = a0\n 21160: t0 = 872, jump @2001\n      : @835 [@dyn 436] (gas: 5)\n 21166: ra = 0x36a\n 21170: ecalli 9 // 'hash_keccak_256'\n 21172: a3 = u64 [s1 + 0x1b8]\n 21176: t0 = 0x36c\n 21180: jump @2040\n      : @836 [@dyn 437] (gas: 2)\n 21184: a3 = u64 [s1 + 0x1b8]\n 21188: t0 = 876, jump @2040\n      : @837 [@dyn 438] (gas: 2)\n 21195: a0 = s1 + 0x1840\n 21199: ra = 878, jump @26\n      : @838 [@dyn 439] (gas: 6)\n 21205: a0 = s1 + 0x1158\n 21209: a0 = u64 [a0 + 0x6e8]\n 21213: u64 [s1 + 0x1b8] = a0\n 21217: a0 = s1 + 0x1820\n 21221: a1 = 0x40\n 21224: ra = 880, jump @22\n      : @839 [@dyn 440] (gas: 14)\n 21230: a2 = s1 + 0x1158\n 21234: t0 = u64 [a2 + 0x6e0]\n 21238: a1 = a2 + 0x600\n 21242: a5 = u64 [a1 + 0xd8]\n 21246: a4 = u64 [a1 + 0xd0]\n 21250: a0 = u64 [a1 + 0xc8]\n 21254: a3 = a4 | t0\n 21257: a1 = a0 | a5\n 21260: a1 = a1 | a3\n 21263: a1 = a1 >> 0x20\n 21266: a3 = a3 | a5\n 21269: a3 = a3 << 0x20\n 21272: a1 = a1 | a3\n 21275: jump @841 if a1 == 0\n      : @840 (gas: 1)\n 21278: jump @1050\n      : @841 (gas: 12)\n 21281: a1 = u8 [s1 + 0x1b8]\n 21285: a3 = a1 >u 0\n 21287: u64 [a2 + 1728] = 0\n 21291: u64 [a2 + 1720] = 0\n 21295: u64 [a2 + 1712] = 0\n 21299: a1 = s1 + 0x1800\n 21303: u64 [a2 + 0x6a8] = a3\n 21307: u64 [s1 + 0x1b0] = a0\n 21311: u64 [s1 + 0x1a8] = a4\n 21315: u64 [s1 + 0x198] = t0\n 21319: u64 [s1 + 0x1a0] = a5\n 21323: ra = 882, jump @24\n      : @842 [@dyn 441] (gas: 12)\n 21329: a4 = s1 + 0x100\n 21333: a3 = u64 [a4 + 0xa8]\n 21337: a2 = u64 [a4 + 0xb0]\n 21341: a0 = u64 [a4 + 0xa0]\n 21345: a1 = u64 [a4 + 0x98]\n 21349: a1 = a1 | a0\n 21352: a4 = 0x100000000\n 21362: a0 = 0xffffffe0\n 21372: a0 = a2 <u a0\n 21375: a0 = 0 if a3 != 0\n 21377: a0 = 0 if a1 != 0\n 21379: jump @844 if a0 != 0\n      : @843 (gas: 1)\n 21382: jump @1050\n      : @844 (gas: 13)\n 21385: u64 [s1 + 0x1a0] = a1\n 21389: a1 = u64 [s1 + 0x1b8]\n 21393: a0 = a1 & 0xff00\n 21398: a1 = a0 >u 0\n 21400: i32 a0 = a2 + 0x20\n 21403: a2 = s1 + 0x1158\n 21407: u64 [a2 + 1696] = 0\n 21411: u64 [a2 + 1688] = 0\n 21415: u64 [a2 + 0x688] = a1\n 21419: a1 = s1 + 0x17e0\n 21423: u64 [a2 + 1680] = 0\n 21427: u64 [s1 + 0x198] = a4\n 21431: ra = 884, jump @24\n      : @845 [@dyn 442] (gas: 10)\n 21437: a3 = s1 + 0x100\n 21441: a2 = u64 [a3 + 0xb0]\n 21445: a0 = u64 [a3 + 0x98]\n 21449: a0 = a0 + 0xffffffffffffffc0\n 21452: a0 = a2 <u a0\n 21455: a1 = u64 [a3 + 0xa8]\n 21459: a0 = 0 if a1 != 0\n 21461: a1 = u64 [a3 + 0xa0]\n 21465: a0 = 0 if a1 != 0\n 21467: jump @847 if a0 != 0\n      : @846 (gas: 1)\n 21470: jump @1050\n      : @847 (gas: 11)\n 21473: a1 = u64 [s1 + 0x1b8]\n 21477: a0 = a1 & 0xff0000\n 21483: a1 = a0 >u 0\n 21485: i32 a0 = a2 + 0x40\n 21488: a3 = s1 + 0x1158\n 21492: u64 [a3 + 1664] = 0\n 21496: u64 [a3 + 1656] = 0\n 21500: u64 [a3 + 0x668] = a1\n 21504: a1 = s1 + 0x17c0\n 21508: u64 [a3 + 1648] = 0\n 21512: ra = 886, jump @24\n      : @848 [@dyn 443] (gas: 3)\n 21518: a1 = 0x60\n 21521: a0 = u64 [s1 + 0x1b0]\n 21525: ra = 888, jump @37\n      : @849 [@dyn 444] (gas: 5)\n 21531: i32 a1 = a0 + 0\n 21533: a2 = 0x60\n 21536: a0 = 0\n 21538: ecalli 14 // 'seal_return'\n 21540: jump @1249\n      : @850 (gas: 3)\n 21543: a0 = s1 + 0x1420\n 21547: a1 = 0x40\n 21550: ra = 890, jump @22\n      : @851 [@dyn 445] (gas: 27)\n 21556: a1 = s1 + 0x1158\n 21560: a3 = u64 [a1 + 0x2e0]\n 21564: u64 [s1 + 0x1b8] = a3\n 21568: a2 = u64 [a1 + 0x2d8]\n 21572: u64 [s1 + 0x1b0] = a2\n 21576: a4 = u64 [a1 + 0x2d0]\n 21580: u64 [s1 + 0x1a8] = a4\n 21584: a5 = u64 [a1 + 0x2c8]\n 21588: u64 [s1 + 0x1a0] = a5\n 21592: a0 = u64 [s1 + 0x128]\n 21596: u64 [a1 + 0x280] = a0\n 21600: a0 = u64 [s1 + 0x130]\n 21604: u64 [a1 + 0x278] = a0\n 21608: a0 = u64 [s1 + 0x138]\n 21612: u64 [a1 + 0x270] = a0\n 21616: a0 = u64 [s1 + 0x140]\n 21620: u64 [a1 + 0x268] = a0\n 21624: a0 = a1 + 0x200\n 21628: u64 [a0 + 0xa0] = a3\n 21632: u64 [a0 + 0x98] = a2\n 21636: u64 [a0 + 0x90] = a4\n 21640: a3 = a1\n 21642: a0 = s1 + 0x1400\n 21646: a1 = s1 + 0x13e0\n 21650: a2 = s1 + 0x13c0\n 21654: u64 [a3 + 0x288] = a5\n 21658: ra = 892, jump @1662\n      : @852 [@dyn 446] (gas: 1)\n 21664: t0 = 894, jump @2048\n      : @853 [@dyn 447] (gas: 1)\n 21670: jump @855 if a0 == 0\n      : @854 (gas: 1)\n 21673: jump @1050\n      : @855 (gas: 9)\n 21676: t0 = a3\n 21678: a1 = s1 + 0x1158\n 21682: a5 = a1 + 0x200\n 21686: a0 = u64 [a5 + 0xb0]\n 21690: a3 = u64 [a5 + 0xc0]\n 21694: u64 [s1 + 0x198] = a3\n 21698: t1 = u64 [a1 + 0x2a8]\n 21702: a3 = u64 [a5 + 0xb8]\n 21706: jump @862\n      : @856 (gas: 3)\n 21709: a0 = s1 + 0x3080\n 21713: a1 = 0x40\n 21716: ra = 896, jump @22\n      : @857 [@dyn 448] (gas: 25)\n 21722: a3 = s1 + 0x2998\n 21726: a2 = u64 [a3 + 0x700]\n 21730: u64 [s1 + 0x1b8] = a2\n 21734: a1 = u64 [a3 + 0x6f8]\n 21738: u64 [s1 + 0x1b0] = a1\n 21742: a4 = u64 [a3 + 0x6f0]\n 21746: u64 [s1 + 0x1a8] = a4\n 21750: a5 = u64 [a3 + 0x6e8]\n 21754: u64 [s1 + 0x1a0] = a5\n 21758: a0 = u64 [s1 + 0x170]\n 21762: u64 [a3 + 0x6a0] = a0\n 21766: a0 = u64 [s1 + 0x178]\n 21770: u64 [a3 + 0x698] = a0\n 21774: a0 = u64 [s1 + 0x180]\n 21778: u64 [a3 + 0x690] = a0\n 21782: a0 = u64 [s1 + 0x188]\n 21786: u64 [a3 + 0x688] = a0\n 21790: u64 [a3 + 0x6c0] = a2\n 21794: u64 [a3 + 0x6b8] = a1\n 21798: u64 [a3 + 0x6b0] = a4\n 21802: a0 = s1 + 0x3060\n 21806: a1 = s1 + 0x3040\n 21810: a2 = s1 + 0x3020\n 21814: u64 [a3 + 0x6a8] = a5\n 21818: ra = 898, jump @1662\n      : @858 [@dyn 449] (gas: 1)\n 21824: t0 = 900, jump @2048\n      : @859 [@dyn 450] (gas: 1)\n 21830: jump @861 if a0 == 0\n      : @860 (gas: 1)\n 21833: jump @1050\n      : @861 (gas: 9)\n 21836: t0 = a3\n 21838: a1 = s1 + 0x2998\n 21842: a5 = a1 + 0x600\n 21846: a0 = u64 [a5 + 0xd0]\n 21850: a3 = u64 [a5 + 0xe0]\n 21854: u64 [s1 + 0x198] = a3\n 21858: t1 = u64 [a1 + 0x6c8]\n 21862: a3 = u64 [a5 + 0xd8]\n 21866: fallthrough\n      : @862 (gas: 26)\n 21867: t2 = a0 ^ a4\n 21870: a5 = a0 <u a4\n 21873: ra = t1 <u a2\n 21876: a5 = ra if t2 == 0\n 21879: a1 = a3 - t0\n 21882: t2 = a1 - a5\n 21885: a1 = a1 <u a5\n 21888: u64 [s1 + 0x190] = a1\n 21892: a3 = a3 <u t0\n 21895: a5 = u64 [s1 + 0x1b8]\n 21899: a1 = u64 [s1 + 0x198]\n 21903: a5 = a1 - a5\n 21906: a5 = a5 - a3\n 21909: a1 = u64 [s1 + 0x190]\n 21913: a5 = a5 - a1\n 21916: a0 = a0 - a4\n 21919: a0 = a0 - ra\n 21922: a1 = t1 - a2\n 21925: a0 = a0 | a5\n 21928: a3 = a1 | t2\n 21931: a3 = a3 | a0\n 21934: a0 = a0 | t2\n 21937: a3 = a3 >> 0x20\n 21940: a0 = a0 << 0x20\n 21943: a0 = a0 | a3\n 21946: jump @864 if a0 == 0\n      : @863 (gas: 1)\n 21949: jump @1050\n      : @864 (gas: 4)\n 21952: a0 = a2\n 21954: u64 [s1 + 0x1b8] = a1\n 21958: ra = 0x386\n 21962: jump @37\n      : @865 (gas: 2)\n 21965: u64 [s1 + 0x1b8] = a1\n 21969: ra = 902, jump @37\n      : @866 [@dyn 451] (gas: 5)\n 21975: i32 a1 = a0 + 0\n 21977: a2 = i32 [s1 + 0x1b8]\n 21981: a0 = 0\n 21983: ecalli 14 // 'seal_return'\n 21985: jump @1249\n      : @867 (gas: 1)\n 21988: t0 = 904, jump @2067\n      : @868 [@dyn 452] (gas: 12)\n 21995: t0 = u64 [s1 + 0x188]\n 21999: a3 = a0 if t0 != 0\n 22002: u64 [s1 + 0x1b8] = a3\n 22006: a0 = u64 [s1 + 0x180]\n 22010: a2 = u64 [s1 + 0x150]\n 22014: a0 = a0 | a2\n 22017: a2 = u64 [s1 + 0x138]\n 22021: a0 = a2 if a4 == 0\n 22024: a5 = u64 [s1 + 0x170]\n 22028: a3 = a5\n 22030: a3 = a0 if t0 != 0\n 22033: t0 = 906, jump @2042\n      : @869 [@dyn 453] (gas: 1)\n 22039: ra = 908, jump @2101\n      : @870 [@dyn 454] (gas: 6)\n 22046: u64 [s1 + 0x150] = a0\n 22050: u64 [s1 + 0x138] = a1\n 22054: a0 = u64 [s1 + 0x178]\n 22058: a1 = u64 [s1 + 0x168]\n 22062: a2 = u64 [s1 + 0x1b0]\n 22066: ra = 910, jump @2101\n      : @871 [@dyn 455] (gas: 1)\n 22073: t0 = 912, jump @2052\n      : @872 [@dyn 456] (gas: 1)\n 22079: ra = 914, jump @2106\n      : @873 [@dyn 457] (gas: 1)\n 22086: t0 = 916, jump @2060\n      : @874 [@dyn 458] (gas: 14)\n 22092: a2 = u64 [s1 + 0x168]\n 22096: a2 = a1 if a3 != 0\n 22099: u64 [s1 + 0x168] = a2\n 22103: a1 = u64 [s1 + 0x130]\n 22107: a0 = a0 | a1\n 22110: a1 = u64 [s1 + 0x150]\n 22114: a0 = a1 if a4 == 0\n 22117: a1 = u64 [s1 + 0x178]\n 22121: a1 = a0 if a3 != 0\n 22124: a2 = a3\n 22126: u64 [s1 + 0x178] = a1\n 22130: a0 = u64 [s1 + 0x170]\n 22134: a1 = u64 [s1 + 0x160]\n 22138: ra = 918, jump @2101\n      : @875 [@dyn 459] (gas: 1)\n 22145: t0 = 920, jump @2033\n      : @876 [@dyn 460] (gas: 3)\n 22151: t1 = u64 [s1 + 0x168]\n 22155: t2 = u64 [s1 + 0x178]\n 22159: fallthrough\n      : @877 (gas: 68)\n 22160: u64 [s1 + 0x178] = a4\n 22164: a2 = t2 >> 0x3f\n 22167: a3 = t1 << 0x1\n 22170: t0 = a3 | a2\n 22173: a3 = t2 << 0x1\n 22176: a4 = u64 [s1 + 0x1b8]\n 22180: a4 = a4 >> 0x3f\n 22183: a3 = a3 | a4\n 22186: u64 [s1 + 0x168] = a3\n 22190: a2 = u64 [s1 + 0x148]\n 22194: t2 = a1\n 22196: u64 [s1 + 0x170] = t0\n 22200: a1 = a2 ^ t0\n 22203: ra = t1\n 22205: t1 = a2 <u t0\n 22208: a4 = u64 [s1 + 0x150]\n 22212: t0 = a4 <u a3\n 22215: t0 = t1 if a1 != 0\n 22218: a1 = t2 << 0x1\n 22221: a3 = a0 >> 0x3f\n 22224: a1 = a1 | a3\n 22227: u64 [s1 + 0x160] = a1\n 22231: a3 = ra >> 0x3f\n 22234: a0 = a0 << 0x1\n 22237: a3 = a3 | a0\n 22240: a0 = u64 [s1 + 0x1b8]\n 22244: a0 = a0 << 0x1\n 22247: a4 = u64 [s1 + 0x180]\n 22251: a1 = a4 >> 0x3f\n 22254: ra = a0 | a1\n 22257: a1 = a4 << 0x1\n 22260: a4 = u64 [s1 + 0x188]\n 22264: t1 = a4 >> 0x3f\n 22267: t1 = a1 | t1\n 22270: a1 = a4 << 0x1\n 22273: a4 = u64 [s1 + 0x1a8]\n 22277: t2 = a4 >> 0x3f\n 22280: a1 = a1 | t2\n 22283: a4 = a4 << 0x1\n 22286: a0 = u64 [s1 + 0x178]\n 22290: a4 = a4 | a0\n 22293: u64 [s1 + 0x1a8] = a4\n 22297: a1 = a1 | a5\n 22300: u64 [s1 + 0x188] = a1\n 22304: a1 = a5 | t1\n 22307: u64 [s1 + 0x180] = a1\n 22311: a0 = a5 | ra\n 22314: u64 [s1 + 0x1b8] = a0\n 22318: a0 = a2 - a3\n 22321: a0 = a0 <u t0\n 22324: a1 = a2 <u a3\n 22327: t0 = u64 [s1 + 0x160]\n 22331: a4 = a2 - t0\n 22334: a4 = a4 - a1\n 22337: a4 = a4 - a0\n 22340: a5 = a4 >>a 0x3f\n 22343: a0 = u64 [s1 + 0x158]\n 22347: a0 = a0 & a5\n 22350: a1 = u64 [s1 + 0x168]\n 22354: t2 = a1 - a0\n 22357: a1 = a1 <u a0\n 22360: a0 = u64 [s1 + 0x170]\n 22364: t1 = a0 - a1\n 22367: a1 = 0 if a0 != 0\n 22369: a0 = a3 - a1\n 22372: a1 = a3 <u a1\n 22375: a1 = t0 - a1\n 22378: t0 = 922, jump @2083\n      : @878 [@dyn 461] (gas: 17)\n 22385: t0 = a4 <u a2\n 22388: a2 = a4 - a2\n 22391: a4 = a3 <u 0x1\n 22394: ra = ra - a4\n 22397: a4 = u64 [s1 + 0x198]\n 22401: a4 = a4 - t0\n 22404: a3 = a3 + 0xffffffffffffffff\n 22407: u64 [s1 + 0x1a0] = ra\n 22411: u64 [s1 + 0x198] = a4\n 22415: t0 = ra | a4\n 22418: u64 [s1 + 0x1b0] = a3\n 22422: a4 = a3 | a2\n 22425: a3 = a4 | t0\n 22428: a4 = a5 & 0x1\n 22431: u64 [s1 + 0x190] = a2\n 22435: a5 = 0\n 22437: jump @877 if a3 != 0\n      : @879 (gas: 4)\n 22441: a0 = u64 [s1 + 0x1a8]\n 22445: a0 = a0 << 0x1\n 22448: a4 = a4 | a0\n 22451: fallthrough\n      : @880 (gas: 4)\n 22452: u64 [s1 + 0x198] = a4\n 22456: a0 = s1 + 0x2ba0\n 22460: a1 = 0x40\n 22463: ra = 924, jump @22\n      : @881 [@dyn 462] (gas: 19)\n 22469: a1 = s1 + 0x2998\n 22473: a5 = a1 + 0x200\n 22477: a0 = u64 [a5 + 0x20]\n 22480: u64 [s1 + 0x1a8] = a0\n 22484: a2 = u64 [a5 + 0x18]\n 22487: u64 [s1 + 0x1a0] = a2\n 22491: a3 = u64 [a5 + 0x10]\n 22494: u64 [s1 + 0x1b0] = a3\n 22498: a4 = u64 [a5 + 0x8]\n 22501: u64 [s1 + 0x1b8] = a4\n 22505: u64 [a5] = a0\n 22507: a5 = a1 + 0x100\n 22511: u64 [a5 + 0xf8] = a2\n 22515: u64 [a5 + 0xf0] = a3\n 22519: a0 = s1 + 0x2b80\n 22523: u64 [a5 + 0xe8] = a4\n 22527: ra = 0x39e\n 22531: t0 = 0x73a\n 22535: jump @2010\n      : @882 [@dyn 463] (gas: 13)\n 22538: a4 = s1 + 0x100\n 22542: a2 = u64 [a4 + 0xb8]\n 22546: a0 = u64 [a4 + 0xa8]\n 22550: a1 = u64 [a4 + 0xb0]\n 22554: a0 = a0 | a1\n 22557: a3 = u64 [a4 + 0xa0]\n 22561: a1 = a2 | a3\n 22564: a1 = a1 | a0\n 22567: a1 = a1 >> 0x20\n 22570: a0 = a0 | a3\n 22573: a0 = a0 << 0x20\n 22576: a0 = a0 | a1\n 22579: jump @884 if a0 == 0\n      : @883 (gas: 1)\n 22582: jump @1050\n      : @884 (gas: 13)\n 22585: a0 = u64 [s1 + 0x110]\n 22589: a3 = s1 + 0x2998\n 22593: a4 = a3 + 0x100\n 22597: u64 [a4 + 0xc8] = a0\n 22601: a0 = u64 [s1 + 0x118]\n 22605: u64 [a4 + 0xd0] = a0\n 22609: a0 = u64 [s1 + 0x120]\n 22613: u64 [a4 + 0xd8] = a0\n 22617: a1 = s1 + 0x2b60\n 22621: a0 = u64 [s1 + 0x128]\n 22625: u64 [a4 + 0xe0] = a0\n 22629: a0 = a2\n 22631: ra = 928, jump @24\n      : @885 [@dyn 464] (gas: 3)\n 22637: a0 = u64 [s1 + 0xe0]\n 22641: ecalli 5 // 'caller'\n 22643: fallthrough\n      : @886 (gas: 11)\n 22644: a3 = s1 + 0x100\n 22648: a4 = u64 [a3 + 0xb8]\n 22652: a0 = u64 [a3 + 0xa8]\n 22656: a2 = u64 [a3 + 0xa0]\n 22660: a2 = a2 | a0\n 22663: a0 = 0xffffffe0\n 22673: a0 = a4 <u a0\n 22676: a1 = u64 [a3 + 0xb0]\n 22680: a0 = 0 if a1 != 0\n 22682: a0 = 0 if a2 != 0\n 22684: jump @888 if a0 != 0\n      : @887 (gas: 1)\n 22687: jump @1050\n      : @888 (gas: 25)\n 22690: u64 [s1 + 0x160] = a2\n 22694: a2 = u64 [s1 + 0xf8]\n 22698: a0 = u64 [a2 + 0x8]\n 22701: a1 = i32 [a2 + 0x10]\n 22704: a2 = u64 [a2]\n 22706: a0 = reverse a0\n 22708: a3 = a0 << 0x20\n 22711: a1 = reverse a1\n 22713: a1 = a1 >> 0x20\n 22716: a3 = a3 | a1\n 22719: a0 = a0 >> 0x20\n 22722: a1 = reverse a2\n 22724: a2 = a1 << 0x20\n 22727: a2 = a2 | a0\n 22730: a1 = a1 >> 0x20\n 22733: i32 a0 = a4 + 0x20\n 22736: a4 = s1 + 0x2998\n 22740: u64 [a4 + 448] = 0\n 22744: a5 = a4 + 0x100\n 22748: u64 [a5 + 0xb8] = a1\n 22752: u64 [a5 + 0xb0] = a2\n 22756: a1 = s1 + 0x2b40\n 22760: u64 [a5 + 0xa8] = a3\n 22764: u64 [s1 + 0x158] = a0\n 22768: ra = 930, jump @24\n      : @889 [@dyn 465] (gas: 13)\n 22774: a0 = u64 [s1 + 0xd0]\n 22778: a3 = s1 + 0x2998\n 22782: a4 = a3 + 0x100\n 22786: u64 [a4 + 0x80] = a0\n 22790: a0 = u64 [s1 + 0x108]\n 22794: u64 [a4 + 0x78] = a0\n 22797: a0 = u64 [s1 + 0x100]\n 22801: u64 [a4 + 0x70] = a0\n 22804: a0 = s1 + 0x2b20\n 22808: a1 = s1 + 0x2b00\n 22812: a2 = u64 [s1 + 0xd8]\n 22816: u64 [a4 + 0x68] = a2\n 22819: ra = 932, jump @1773\n      : @890 [@dyn 466] (gas: 13)\n 22825: a0 = s1 + 0x2998\n 22829: a2 = a0 + 0x100\n 22833: a1 = u64 [a2 + 0x88]\n 22837: u64 [s1 + 0x180] = a1\n 22841: a1 = u64 [a2 + 0x90]\n 22845: u64 [s1 + 0x178] = a1\n 22849: a1 = u64 [a2 + 0x98]\n 22853: u64 [s1 + 0x170] = a1\n 22857: a1 = u64 [a2 + 0xa0]\n 22861: u64 [s1 + 0x168] = a1\n 22865: a0 = s1 + 0x2ae0\n 22869: a1 = 0x40\n 22872: ra = 934, jump @22\n      : @891 [@dyn 467] (gas: 26)\n 22878: a0 = s1 + 0x2998\n 22882: a3 = u64 [a0 + 0x160]\n 22886: u64 [s1 + 0x1a8] = a3\n 22890: a1 = u64 [a0 + 0x158]\n 22894: u64 [s1 + 0x1a0] = a1\n 22898: a5 = u64 [a0 + 0x150]\n 22902: u64 [s1 + 0x190] = a5\n 22906: a4 = u64 [a0 + 0x148]\n 22910: u64 [s1 + 0x188] = a4\n 22914: a2 = u64 [s1 + 0x168]\n 22918: u64 [a0 + 0x120] = a2\n 22922: a2 = u64 [s1 + 0x170]\n 22926: u64 [a0 + 0x118] = a2\n 22930: a2 = u64 [s1 + 0x178]\n 22934: u64 [a0 + 0x110] = a2\n 22938: a2 = u64 [s1 + 0x180]\n 22942: u64 [a0 + 0x108] = a2\n 22946: a2 = a0 + 0x100\n 22950: u64 [a2 + 0x40] = a3\n 22953: u64 [a2 + 0x38] = a1\n 22956: u64 [a2 + 0x30] = a5\n 22959: a2 = a0\n 22961: a0 = s1 + 0x2ac0\n 22965: a1 = s1 + 0x2aa0\n 22969: u64 [a2 + 0x128] = a4\n 22973: ra = 936, jump @1724\n      : @892 [@dyn 468] (gas: 14)\n 22979: a2 = s1 + 0x100\n 22983: a1 = u64 [a2 + 0x90]\n 22987: a0 = u64 [a2 + 0xa8]\n 22991: a0 = a0 | a1\n 22994: a1 = u64 [a2 + 0x88]\n 22998: a5 = a1\n 23000: a4 = u64 [a2 + 0xa0]\n 23004: a1 = a1 | a4\n 23007: a1 = a1 | a0\n 23010: a1 = a1 >> 0x20\n 23013: a0 = a0 | a4\n 23016: a0 = a0 << 0x20\n 23019: a0 = a0 | a1\n 23022: jump @894 if a0 == 0\n      : @893 (gas: 1)\n 23025: jump @1050\n      : @894 (gas: 12)\n 23028: a0 = s1 + 0x2998\n 23032: a1 = u64 [s1 + 0xd8]\n 23036: u64 [a0 + 0xe8] = a1\n 23040: a1 = u64 [s1 + 0x100]\n 23044: u64 [a0 + 0xf0] = a1\n 23048: a1 = u64 [s1 + 0x108]\n 23052: u64 [a0 + 0xf8] = a1\n 23056: a1 = s1 + 0x2a80\n 23060: a4 = u64 [s1 + 0xd0]\n 23064: u64 [a0 + 0x100] = a4\n 23068: a0 = a5\n 23070: ra = 938, jump @24\n      : @895 [@dyn 469] (gas: 10)\n 23076: a0 = u64 [s1 + 0x1a8]\n 23080: a3 = u64 [s1 + 0x1a0]\n 23084: a0 = a0 | a3\n 23087: a4 = 0xffffffe0\n 23097: a5 = u64 [s1 + 0x188]\n 23101: a1 = a5 <u a4\n 23104: a2 = u64 [s1 + 0x190]\n 23108: a1 = 0 if a2 != 0\n 23110: a1 = 0 if a0 != 0\n 23112: jump @897 if a1 != 0\n      : @896 (gas: 1)\n 23115: jump @1050\n      : @897 (gas: 8)\n 23118: a1 = u64 [s1 + 0xd8]\n 23122: i32 a0 = a1 + 0\n 23124: u64 [s1 + 0xb0] = a0\n 23128: a0 = i32 [s1 + 0x140]\n 23132: u64 [s1 + 0xa8] = a0\n 23136: i32 a0 = a5 + 0x20\n 23139: u64 [s1 + 0x180] = a4\n 23143: ra = 940, jump @37\n      : @898 [@dyn 470] (gas: 5)\n 23149: i32 a0 = a0 + 0\n 23151: a1 = u64 [s1 + 0xb0]\n 23155: a2 = u64 [s1 + 0xa8]\n 23159: ecalli 2 // 'call_data_copy'\n 23161: fallthrough\n      : @899 (gas: 28)\n 23162: a4 = u64 [s1 + 0x190]\n 23166: t0 = u64 [s1 + 0xd8]\n 23170: a0 = u64 [s1 + 0x188]\n 23174: t0 = t0 + a0\n 23177: a1 = t0 <u a0\n 23180: a2 = u64 [s1 + 0x100]\n 23184: a2 = a2 + a4\n 23187: a2 = a2 + a1\n 23190: a3 = a2 ^ a4\n 23193: a4 = a2 <u a4\n 23196: a4 = a1 if a3 == 0\n 23199: a1 = u64 [s1 + 0x108]\n 23203: a0 = u64 [s1 + 0x1a0]\n 23207: a1 = a1 + a0\n 23210: a3 = a1 <u a0\n 23213: a5 = u64 [s1 + 0x1a8]\n 23217: a0 = u64 [s1 + 0xd0]\n 23221: a5 = a5 + a0\n 23224: a3 = a3 + a5\n 23227: a4 = a4 + a1\n 23230: a1 = a4 <u a1\n 23233: a1 = a1 + a3\n 23236: a1 = a1 | a4\n 23239: a0 = u64 [s1 + 0x180]\n 23243: a3 = t0 <u a0\n 23246: a3 = 0 if a2 != 0\n 23248: a3 = 0 if a1 != 0\n 23250: jump @901 if a3 != 0\n      : @900 (gas: 1)\n 23253: jump @1050\n      : @901 (gas: 8)\n 23256: i32 a0 = t0 + 0x20\n 23259: a2 = s1 + 0x2998\n 23263: u64 [a2 + 224] = 0\n 23267: u64 [a2 + 216] = 0\n 23271: u64 [a2 + 208] = 0\n 23275: a1 = s1 + 0x2a60\n 23279: u64 [a2 + 200] = 0\n 23283: ra = 942, jump @24\n      : @902 [@dyn 471] (gas: 10)\n 23289: a3 = 0x100000000\n 23299: a0 = 0xffffffc0\n 23309: a4 = s1 + 0x100\n 23313: a1 = u64 [a4 + 0xb8]\n 23317: a0 = a1 <u a0\n 23320: a2 = u64 [a4 + 0xb0]\n 23324: a0 = 0 if a2 != 0\n 23326: a2 = u64 [a4 + 0x60]\n 23329: a0 = 0 if a2 != 0\n 23331: jump @904 if a0 != 0\n      : @903 (gas: 1)\n 23334: jump @1050\n      : @904 (gas: 15)\n 23337: i32 a0 = a1 + 0x40\n 23340: a1 = s1 + 0x2998\n 23344: u64 [s1 + 0x180] = a3\n 23348: a3 = a1\n 23350: a1 = u64 [s1 + 0x188]\n 23354: u64 [a3 + 0xa8] = a1\n 23358: a1 = u64 [s1 + 0x190]\n 23362: u64 [a3 + 0xb0] = a1\n 23366: a1 = u64 [s1 + 0x1a0]\n 23370: u64 [a3 + 0xb8] = a1\n 23374: a1 = s1 + 0x2a40\n 23378: a2 = u64 [s1 + 0x1a8]\n 23382: u64 [a3 + 0xc0] = a2\n 23386: u64 [s1 + 0x1a8] = a0\n 23390: ra = 944, jump @24\n      : @905 [@dyn 472] (gas: 10)\n 23396: a4 = s1 + 0x100\n 23400: a3 = u64 [a4 + 0x60]\n 23403: a2 = u64 [a4 + 0xb0]\n 23407: a1 = u64 [a4 + 0xb8]\n 23411: a0 = u64 [a4 + 0x80]\n 23415: a0 = a0 + 0xffffffffffffffa0\n 23418: a0 = a1 <u a0\n 23421: a0 = 0 if a2 != 0\n 23423: a0 = 0 if a3 != 0\n 23425: jump @907 if a0 != 0\n      : @906 (gas: 1)\n 23428: jump @1050\n      : @907 (gas: 10)\n 23431: i32 a0 = a1 + 0x60\n 23434: a4 = s1 + 0x2998\n 23438: u64 [a4 + 160] = 0\n 23442: u64 [a4 + 152] = 0\n 23446: u64 [a4 + 144] = 0\n 23450: a1 = s1 + 0x2a20\n 23454: a2 = u64 [s1 + 0x198]\n 23458: u64 [a4 + 0x88] = a2\n 23462: u64 [s1 + 0x88] = a0\n 23466: ra = 946, jump @24\n      : @908 [@dyn 473] (gas: 9)\n 23472: a3 = s1 + 0x100\n 23476: a1 = u64 [a3 + 0xb8]\n 23480: a0 = 0xffffff80\n 23490: a0 = a1 <u a0\n 23493: a2 = u64 [a3 + 0xb0]\n 23497: a0 = 0 if a2 != 0\n 23499: a2 = u64 [a3 + 0x60]\n 23502: a0 = 0 if a2 != 0\n 23504: jump @910 if a0 != 0\n      : @909 (gas: 1)\n 23507: jump @1050\n      : @910 (gas: 9)\n 23510: i32 a0 = a1 + 0x80\n 23514: a2 = s1 + 0x2998\n 23518: u64 [a2 + 128] = 0\n 23522: u64 [a2 + 120] = 0\n 23525: u64 [a2 + 112] = 0\n 23528: a1 = s1 + 0x2a00\n 23532: u64 [a2 + 104] = 0\n 23535: u64 [s1 + 0x40] = a0\n 23538: ra = 948, jump @24\n      : @911 [@dyn 474] (gas: 6)\n 23544: a0 = u64 [s1 + 0xe0]\n 23548: ra = 0x3b6\n 23552: ecalli 5 // 'caller'\n 23554: a2 = u64 [s1 + 0xf8]\n 23558: t0 = 0x3b8\n 23562: jump @2002\n      : @912 [@dyn 475] (gas: 2)\n 23565: a2 = u64 [s1 + 0xf8]\n 23569: t0 = 952, jump @2002\n      : @913 [@dyn 476] (gas: 7)\n 23575: u64 [a2 + 96] = 0\n 23578: u64 [a2 + 0x58] = a1\n 23581: u64 [a2 + 0x50] = a0\n 23584: a1 = s1 + 0x29e0\n 23588: u64 [a2 + 0x48] = a3\n 23591: a0 = 0\n 23593: ra = 954, jump @24\n      : @914 [@dyn 477] (gas: 3)\n 23599: t0 = 0x3bc\n 23603: a1 = s1 + 0x2998\n 23607: fallthrough\n      : @915 [@dyn 478] (gas: 8)\n 23608: u64 [a1 + 64] = 0\n 23611: u64 [a1 + 56] = 0\n 23614: u64 [a1 + 40] = 0x2\n 23618: a2 = a1\n 23620: a0 = 0x20\n 23623: a1 = s1 + 0x29c0\n 23627: u64 [a2 + 48] = 0\n 23630: ra = 958, jump @24\n      : @916 [@dyn 479] (gas: 3)\n 23636: a1 = u64 [s1 + 0xc8]\n 23640: a0 = i32 [a1]\n 23642: jump @918 if a0 >u 63\n      : @917 (gas: 2)\n 23646: u32 [a1 + 0] = 0x40\n 23649: fallthrough\n      : @918 (gas: 5)\n 23650: a1 = 0xffffffff00000000\n 23660: u64 [s1 + 0x98] = a1\n 23664: a0 = 0xffffffff\n 23674: u64 [s1 + 0x90] = a0\n 23678: t0 = 960, jump @2075\n      : @919 [@dyn 480] (gas: 4)\n 23684: ra = 0x3c2\n 23688: ecalli 9 // 'hash_keccak_256'\n 23690: t0 = 0x3c4\n 23694: jump @2029\n      : @920 [@dyn 481] (gas: 1)\n 23697: t0 = 964, jump @2029\n      : @921 [@dyn 482] (gas: 1)\n 23703: t0 = 966, jump @2049\n      : @922 [@dyn 483] (gas: 16)\n 23709: a0 = sp + 0xffffffffffffffe0\n 23712: a0 = a0 & 0xffffffffffffffe0\n 23715: u64 [s1 + 0x1b0] = a0\n 23719: sp = a0\n 23721: a2 = s1 + 0x2998\n 23725: a0 = u64 [s1 + 0x128]\n 23729: u64 [a2 + 0x20] = a0\n 23732: a0 = u64 [s1 + 0x120]\n 23736: u64 [a2 + 0x18] = a0\n 23739: a0 = u64 [s1 + 0x118]\n 23743: u64 [a2 + 0x10] = a0\n 23746: a1 = s1 + 0x29a0\n 23750: a0 = u64 [s1 + 0x110]\n 23754: u64 [a2 + 0x8] = a0\n 23757: a0 = 0\n 23759: ra = 968, jump @24\n      : @923 [@dyn 484] (gas: 3)\n 23765: t0 = 0x3ca\n 23769: a1 = s1 + 0x2998\n 23773: fallthrough\n      : @924 [@dyn 485] (gas: 13)\n 23774: a4 = s1 + 0x100\n 23778: a0 = u64 [a4 + 0x88]\n 23782: u64 [a1] = a0\n 23784: a0 = u64 [a4 + 0x90]\n 23788: u64 [a1 + 0xfffffffffffffff8] = a0\n 23791: a0 = u64 [a4 + 0x98]\n 23795: u64 [a1 + 0xfffffffffffffff0] = a0\n 23798: a3 = a1\n 23800: a0 = 0x20\n 23803: a1 = s1 + 0x2980\n 23807: a2 = u64 [a4 + 0xa0]\n 23811: u64 [a3 + 0xffffffffffffffe8] = a2\n 23814: ra = 972, jump @24\n      : @925 [@dyn 486] (gas: 3)\n 23820: a1 = u64 [s1 + 0xc8]\n 23824: a0 = i32 [a1]\n 23826: jump @927 if a0 >u 63\n      : @926 (gas: 2)\n 23830: u32 [a1 + 0] = 0x40\n 23833: fallthrough\n      : @927 (gas: 29)\n 23834: a0 = sp + 0xffffffffffffffe0\n 23837: a0 = a0 & 0xffffffffffffffe0\n 23840: u64 [s1 + 0x1a0] = a0\n 23844: sp = a0\n 23846: i32 a2 = a0 + 0\n 23848: a1 = 0x40\n 23851: a0 = u64 [s1 + 0xc0]\n 23855: ecalli 9 // 'hash_keccak_256'\n 23857: a3 = u64 [s1 + 0x1a0]\n 23861: a0 = u64 [a3 + 0x18]\n 23864: a1 = u64 [a3 + 0x10]\n 23867: a2 = u64 [a3 + 0x8]\n 23870: a3 = u64 [a3]\n 23872: a5 = reverse a0\n 23874: u64 [s1 + 0x68] = a5\n 23877: a4 = reverse a1\n 23879: u64 [s1 + 0x70] = a4\n 23882: a1 = reverse a2\n 23884: u64 [s1 + 0x80] = a1\n 23888: a0 = reverse a3\n 23890: u64 [s1 + 0x78] = a0\n 23893: a2 = u64 [s1 + 0x1b0]\n 23897: u64 [a2 + 0x18] = a0\n 23900: u64 [a2 + 0x10] = a1\n 23903: u64 [a2 + 0x8] = a4\n 23906: u64 [a2] = a5\n 23908: a0 = s1 + 0x2960\n 23912: a1 = u64 [s1 + 0x1b8]\n 23916: ra = 974, jump @22\n      : @928 [@dyn 487] (gas: 8)\n 23922: a0 = s1 + 0x2178\n 23926: a0 = u64 [a0 + 0x7e8]\n 23930: a1 = u64 [s1 + 0x90]\n 23934: a0 = a0 & a1\n 23937: u64 [s1 + 0x1b8] = a0\n 23941: a0 = s1 + 0x2940\n 23945: a1 = u64 [s1 + 0x1b0]\n 23949: ra = 976, jump @26\n      : @929 [@dyn 488] (gas: 22)\n 23955: a3 = s1 + 0x2178\n 23959: a4 = a3 + 0x700\n 23963: a0 = u64 [a4 + 0xd0]\n 23967: a1 = u64 [a4 + 0xd8]\n 23971: a2 = u64 [a4 + 0xe0]\n 23975: a3 = u64 [a4 + 0xc8]\n 23979: a0 = a0 & 0xffffffffffffffff\n 23982: a1 = a1 & 0xffffffffffffffff\n 23985: a2 = a2 & 0xffffffffffffffff\n 23988: a4 = u64 [s1 + 0x98]\n 23992: a3 = a3 & a4\n 23995: a4 = u64 [s1 + 0x1b8]\n 23999: a3 = a3 | a4\n 24002: a4 = s1 + 0x3998\n 24006: a5 = a4 + 0x500\n 24010: u64 [a5 + 0x40] = a2\n 24013: u64 [a5 + 0x38] = a1\n 24016: u64 [a5 + 0x30] = a0\n 24019: u64 [a5 + 0x28] = a3\n 24022: a1 = s1 + 0x3ec0\n 24026: a0 = u64 [s1 + 0x1b0]\n 24030: ra = 978, jump @28\n      : @930 [@dyn 489] (gas: 3)\n 24036: a0 = s1 + 0x2920\n 24040: a1 = u64 [s1 + 0x158]\n 24044: ra = 980, jump @22\n      : @931 [@dyn 490] (gas: 11)\n 24050: a0 = s1 + 0x2178\n 24054: a2 = a0 + 0x700\n 24058: a1 = u64 [a2 + 0xb8]\n 24062: u64 [s1 + 0x1b8] = a1\n 24066: a1 = u64 [a2 + 0xb0]\n 24070: u64 [s1 + 0x1a0] = a1\n 24074: a1 = u64 [a2 + 0xa8]\n 24078: u64 [s1 + 0x198] = a1\n 24082: a0 = s1 + 0x2900\n 24086: a1 = u64 [s1 + 0x1b0]\n 24090: ra = 982, jump @26\n      : @932 [@dyn 491] (gas: 23)\n 24096: a1 = s1 + 0x2178\n 24100: a0 = u64 [a1 + 0x7a0]\n 24104: a1 = u32 [a1 + 0x788]\n 24108: a5 = u64 [s1 + 0x198]\n 24112: a2 = a5 >> 0x20\n 24115: a4 = u64 [s1 + 0x1a0]\n 24119: a3 = a4 << 0x20\n 24122: a2 = a2 | a3\n 24125: a3 = a4 >> 0x20\n 24128: a4 = u64 [s1 + 0x1b8]\n 24132: a4 = a4 << 0x20\n 24135: a3 = a3 | a4\n 24138: a4 = a5 << 0x20\n 24141: a1 = a1 | a4\n 24144: a4 = s1 + 0x3998\n 24148: a5 = a4 + 0x500\n 24152: u64 [a5 + 0x58] = a3\n 24155: u64 [a5 + 0x50] = a2\n 24158: u64 [a5 + 0x60] = a0\n 24161: u64 [a5 + 0x48] = a1\n 24164: a1 = s1 + 0x3ee0\n 24168: a0 = u64 [s1 + 0x1b0]\n 24172: ra = 984, jump @28\n      : @933 [@dyn 492] (gas: 27)\n 24178: a0 = sp + 0xffffffffffffffe0\n 24181: a1 = a0 & 0xffffffffffffffe0\n 24184: sp = a1\n 24186: a2 = u64 [s1 + 0x68]\n 24189: a2 = a2 + 0x1\n 24192: a0 = a2 <u 0x1\n 24195: a3 = u64 [s1 + 0x70]\n 24198: a3 = a3 + a0\n 24201: a0 = a2 | a3\n 24204: a0 = a0 <u 0x1\n 24207: a5 = u64 [s1 + 0x80]\n 24211: a4 = a5 + a0\n 24214: a0 = a4 <u a5\n 24217: a5 = u64 [s1 + 0x78]\n 24220: a0 = a0 + a5\n 24223: u64 [s1 + 0x168] = a0\n 24227: u64 [a1 + 0x18] = a0\n 24230: u64 [s1 + 0x158] = a4\n 24234: u64 [a1 + 0x10] = a4\n 24237: u64 [s1 + 0x160] = a3\n 24241: u64 [a1 + 0x8] = a3\n 24244: u64 [s1 + 0x58] = a1\n 24247: u64 [s1 + 0x170] = a2\n 24251: u64 [a1] = a2\n 24253: a0 = s1 + 0x28e0\n 24257: a1 = u64 [s1 + 0x1a8]\n 24261: ra = 986, jump @22\n      : @934 [@dyn 493] (gas: 3)\n 24267: t0 = 0x3dc\n 24271: a1 = s1 + 0x2178\n 24275: fallthrough\n      : @935 [@dyn 494] (gas: 17)\n 24276: a4 = a1 + 0x700\n 24280: a2 = u64 [a4 + 0x80]\n 24284: a3 = u64 [a4 + 0x78]\n 24287: a0 = u64 [a4 + 0x70]\n 24290: a1 = u64 [a4 + 0x68]\n 24293: a4 = s1 + 0x100\n 24297: u64 [a4 + 0x50] = a0\n 24300: u64 [a4 + 0x48] = a2\n 24303: a0 = a0 | a2\n 24306: a2 = a1 | a3\n 24309: a2 = a2 | a0\n 24312: a2 = a2 >> 0x20\n 24315: u64 [a4 + 0x40] = a3\n 24318: a0 = a0 | a3\n 24321: a0 = a0 << 0x20\n 24324: a0 = a0 | a2\n 24327: jump @937 if a0 == 0\n      : @936 (gas: 1)\n 24330: jump @1050\n      : @937 (gas: 3)\n 24333: a0 = s1 + 0x28c0\n 24337: u64 [s1 + 0x138] = a1\n 24341: ra = 990, jump @22\n      : @938 [@dyn 495] (gas: 19)\n 24347: a5 = s1 + 0x2178\n 24351: a0 = a5 + 0x700\n 24355: a3 = u64 [a0 + 0x60]\n 24358: a2 = u64 [a0 + 0x58]\n 24361: a1 = u64 [a0 + 0x50]\n 24364: a0 = a3 >u 0\n 24366: a4 = a2 >u 0\n 24368: a4 = a0 if a3 != 0\n 24371: u64 [s1 + 0x60] = a1\n 24374: a0 = a1 >u 0\n 24376: u64 [s1 + 0x50] = a2\n 24379: u64 [s1 + 0x48] = a3\n 24382: a2 = a2 | a3\n 24385: u64 [s1 + 0x28] = a0\n 24388: u64 [s1 + 0x30] = a4\n 24391: u64 [s1 + 0x130] = a2\n 24395: a0 = a4 if a2 != 0\n 24398: a2 = a5\n 24400: jump @940 if a0 == 0\n      : @939 (gas: 1)\n 24403: jump @1249\n      : @940 (gas: 5)\n 24406: a0 = u64 [a2 + 0x748]\n 24410: u64 [s1 + 0xa0] = a0\n 24414: a0 = s1 + 0x28a0\n 24418: a1 = u64 [s1 + 0x58]\n 24421: ra = 992, jump @26\n      : @941 [@dyn 496] (gas: 14)\n 24427: a4 = s1 + 0x2178\n 24431: a5 = a4 + 0x700\n 24435: a2 = u64 [a5 + 0x28]\n 24438: a0 = u64 [a5 + 0x30]\n 24441: a1 = u64 [a5 + 0x38]\n 24444: a3 = u64 [a5 + 0x40]\n 24447: u64 [a5] = a3\n 24449: a3 = a4 + 0x600\n 24453: u64 [a3 + 0xf8] = a1\n 24457: u64 [a3 + 0xf0] = a0\n 24461: a0 = s1 + 0x2880\n 24465: a1 = s1 + 0x2860\n 24469: u64 [a3 + 0xe8] = a2\n 24473: ra = 994, jump @1679\n      : @942 [@dyn 497] (gas: 23)\n 24479: a0 = s1 + 0x2178\n 24483: a1 = a0 + 0x700\n 24487: a3 = u64 [a1 + 0x20]\n 24490: a4 = u64 [a1 + 0x18]\n 24493: a5 = u64 [a1 + 0x10]\n 24496: a2 = u64 [a1 + 0x8]\n 24499: a0 = a3 >u 0\n 24501: a1 = a4 >u 0\n 24503: a1 = a0 if a3 != 0\n 24506: a0 = a5 >u 0\n 24508: u64 [s1 + 0x198] = a2\n 24512: a2 = a2 <u 0x20\n 24515: a2 = a2 ^ 0x1\n 24518: u64 [s1 + 0x1a0] = a5\n 24522: a2 = a0 if a5 != 0\n 24525: u64 [s1 + 0x1a8] = a3\n 24529: u64 [s1 + 0x1b0] = a4\n 24533: a0 = a4 | a3\n 24536: a2 = a1 if a0 != 0\n 24539: a0 = u64 [s1 + 0xa0]\n 24543: a0 = a0 <u 0x20\n 24546: u64 [s1 + 0x38] = a0\n 24549: jump @1051 if a2 == 0\n      : @943 (gas: 14)\n 24553: a0 = s1 + 0x2178\n 24557: a3 = s1 + 0x100\n 24561: a1 = u64 [a3 + 0x70]\n 24564: a4 = a0 + 0x600\n 24568: u64 [a4 + 0xc8] = a1\n 24572: a1 = u64 [a3 + 0x60]\n 24575: u64 [a4 + 0xd0] = a1\n 24579: a1 = u64 [a3 + 0x58]\n 24582: u64 [a4 + 0xd8] = a1\n 24586: a1 = s1 + 0x2840\n 24590: a2 = u64 [a3 + 0x68]\n 24593: u64 [a4 + 0xe0] = a2\n 24597: a0 = 0\n 24599: ra = 996, jump @24\n      : @944 [@dyn 498] (gas: 3)\n 24605: a0 = u64 [s1 + 0xc8]\n 24609: a0 = i32 [a0]\n 24611: jump @946 if a0 >u 31\n      : @945 (gas: 3)\n 24615: a1 = u64 [s1 + 0xc8]\n 24619: u32 [a1 + 0] = 0x20\n 24622: fallthrough\n      : @946 (gas: 117)\n 24623: a0 = sp + 0xffffffffffffffe0\n 24626: a0 = a0 & 0xffffffffffffffe0\n 24629: u64 [s1 + 0x180] = a0\n 24633: sp = a0\n 24635: i32 a2 = a0 + 0\n 24637: a1 = 0x20\n 24640: a0 = u64 [s1 + 0xc0]\n 24644: ecalli 9 // 'hash_keccak_256'\n 24646: a0 = u64 [s1 + 0xa0]\n 24650: a1 = a0 + 0x1f\n 24653: a0 = a1 <u a0\n 24656: a5 = u64 [s1 + 0x60]\n 24659: a2 = a5 + a0\n 24662: a3 = a2 <u a5\n 24665: a3 = a0 if a0 == 0\n 24668: a4 = u64 [s1 + 0x50]\n 24671: a3 = a3 + a4\n 24674: u64 [s1 + 0x178] = a3\n 24678: a3 = a3 << 0x3b\n 24681: a4 = a2 >> 0x5\n 24684: a4 = a4 | a3\n 24687: a0 = u64 [s1 + 0x180]\n 24691: t1 = u64 [a0 + 0x18]\n 24694: a2 = a2 << 0x3b\n 24697: a3 = u64 [a0 + 0x10]\n 24700: a1 = a1 >> 0x5\n 24703: a0 = a1 | a2\n 24706: t2 = reverse t1\n 24708: a2 = reverse a3\n 24710: a1 = u64 [s1 + 0x38]\n 24713: a1 = 0 if a5 != 0\n 24715: a3 = u64 [s1 + 0x130]\n 24719: a1 = 0 if a3 != 0\n 24721: a4 = 0 if a1 != 0\n 24723: a0 = 0 if a1 != 0\n 24725: t0 = t2 + a0\n 24728: a0 = t0 <u t2\n 24731: a5 = a2 + a0\n 24734: a4 = a4 + a5\n 24737: u64 [s1 + 0x1b8] = a4\n 24741: a5 = a4 ^ a2\n 24744: a3 = a4 <u a2\n 24747: a3 = a0 if a5 == 0\n 24750: u64 [s1 + 0x20] = a3\n 24753: a0 = u64 [s1 + 0x198]\n 24757: ra = a0 + 0x1f\n 24760: a4 = ra <u a0\n 24763: a3 = u64 [s1 + 0x1a0]\n 24767: a0 = a3 + a4\n 24770: a5 = a0 <u a3\n 24773: a5 = a4 if a4 == 0\n 24776: t1 = u64 [s1 + 0x1b0]\n 24780: t1 = t1 + a5\n 24783: a4 = t1 << 0x3b\n 24786: a3 = a0 >> 0x5\n 24789: a3 = a3 | a4\n 24792: a0 = a0 << 0x3b\n 24795: a4 = ra >> 0x5\n 24798: a0 = a0 | a4\n 24801: a0 = a0 + t2\n 24804: u64 [s1 + 0x190] = a0\n 24808: a0 = a0 <u t2\n 24811: t2 = t0\n 24813: a4 = a2 + a0\n 24816: a4 = a4 + a3\n 24819: a3 = a4 ^ a2\n 24822: u64 [s1 + 0x188] = a4\n 24826: a2 = a4 <u a2\n 24829: a2 = a0 if a3 == 0\n 24832: a4 = u64 [s1 + 0x178]\n 24836: a0 = u64 [s1 + 0x50]\n 24839: a0 = a4 <u a0\n 24842: a3 = u64 [s1 + 0x48]\n 24845: a0 = a0 + a3\n 24848: a3 = a4 >> 0x5\n 24851: a4 = a0 << 0x3b\n 24854: a3 = a3 | a4\n 24857: a4 = u64 [s1 + 0x180]\n 24861: t0 = u64 [a4]\n 24863: a4 = u64 [a4 + 0x8]\n 24866: a0 = a0 >> 0x5\n 24869: a3 = 0 if a1 != 0\n 24871: a0 = 0 if a1 != 0\n 24873: a1 = reverse a4\n 24875: a4 = reverse t0\n 24877: a0 = a0 + a4\n 24880: a3 = a3 + a1\n 24883: a5 = a3 <u a1\n 24886: a0 = a0 + a5\n 24889: ra = u64 [s1 + 0x20]\n 24892: ra = ra + a3\n 24895: a3 = ra <u a3\n 24898: t0 = a0 + a3\n 24901: a0 = u64 [s1 + 0x1b0]\n 24905: a0 = t1 <u a0\n 24908: a3 = u64 [s1 + 0x1a8]\n 24912: a0 = a0 + a3\n 24915: a3 = t1 >> 0x5\n 24918: a5 = a0 << 0x3b\n 24921: a3 = a3 | a5\n 24924: a0 = a0 >> 0x5\n 24927: a0 = a0 + a4\n 24930: a5 = s1 + 0x100\n 24934: a4 = u64 [a5 + 0xb8]\n 24938: a3 = a3 + a1\n 24941: a1 = a3 <u a1\n 24944: a0 = a0 + a1\n 24947: a2 = a2 + a3\n 24950: u64 [a5 + 0x80] = a2\n 24954: a1 = a2 <u a3\n 24957: a0 = a0 + a1\n 24960: u64 [a5 + 0x78] = a0\n 24963: a0 = sp + 0xffffffffffffffe0\n 24966: a0 = a0 & 0xffffffffffffffe0\n 24969: u64 [a5 + 0xb0] = a0\n 24973: sp = a0\n 24975: fallthrough\n      : @947 (gas: 25)\n 24976: a0 = u64 [s1 + 0x190]\n 24980: a0 = t2 <u a0\n 24983: a2 = u64 [s1 + 0x188]\n 24987: a1 = a4 ^ a2\n 24990: a2 = a4 <u a2\n 24993: a2 = a0 if a1 == 0\n 24996: a5 = u64 [s1 + 0x180]\n 25000: a0 = ra <u a5\n 25003: a3 = u64 [s1 + 0x178]\n 25007: a1 = t0 ^ a3\n 25010: a3 = t0 <u a3\n 25013: a3 = a0 if a1 == 0\n 25016: a0 = ra ^ a5\n 25019: a0 = a0 | a1\n 25022: a3 = a2 if a0 == 0\n 25025: u64 [s1 + 0x1a8] = t2\n 25029: a0 = u64 [s1 + 0x1b0]\n 25033: u64 [a0] = t2\n 25035: u64 [s1 + 0x1b8] = a4\n 25039: u64 [a0 + 0x8] = a4\n 25042: u64 [s1 + 0x198] = ra\n 25046: u64 [a0 + 0x10] = ra\n 25049: u64 [s1 + 0x1a0] = t0\n 25053: u64 [a0 + 0x18] = t0\n 25056: jump @1051 if a3 == 0\n      : @948 (gas: 8)\n 25060: a0 = s1 + 0x3998\n 25064: u64 [a0 + 1408] = 0\n 25068: u64 [a0 + 1400] = 0\n 25072: u64 [a0 + 1392] = 0\n 25076: u64 [a0 + 1384] = 0\n 25080: a1 = s1 + 0x3f00\n 25084: a0 = u64 [s1 + 0x1b0]\n 25088: ra = 998, jump @28\n      : @949 [@dyn 499] (gas: 14)\n 25094: t2 = u64 [s1 + 0x1a8]\n 25098: t2 = t2 + 0x1\n 25101: a0 = t2 <u 0x1\n 25104: a4 = u64 [s1 + 0x1b8]\n 25108: a4 = a4 + a0\n 25111: a0 = t2 | a4\n 25114: a0 = a0 <u 0x1\n 25117: a1 = u64 [s1 + 0x198]\n 25121: a0 = a0 + a1\n 25124: a1 = a0 <u a1\n 25127: t0 = u64 [s1 + 0x1a0]\n 25131: t0 = t0 + a1\n 25134: ra = a0\n 25136: jump @947\n      : @950 (gas: 1)\n 25139: t0 = 1000, jump @2067\n      : @951 [@dyn 500] (gas: 12)\n 25145: t0 = u64 [s1 + 0x188]\n 25149: a3 = a0 if t0 != 0\n 25152: u64 [s1 + 0x1b8] = a3\n 25156: a0 = u64 [s1 + 0x180]\n 25160: a2 = u64 [s1 + 0x150]\n 25164: a0 = a0 | a2\n 25167: a2 = u64 [s1 + 0x138]\n 25171: a0 = a2 if a4 == 0\n 25174: a5 = u64 [s1 + 0x170]\n 25178: a3 = a5\n 25180: a3 = a0 if t0 != 0\n 25183: t0 = 1002, jump @2042\n      : @952 [@dyn 501] (gas: 1)\n 25189: ra = 1004, jump @2101\n      : @953 [@dyn 502] (gas: 6)\n 25195: u64 [s1 + 0x150] = a0\n 25199: u64 [s1 + 0x138] = a1\n 25203: a0 = u64 [s1 + 0x168]\n 25207: a1 = u64 [s1 + 0x178]\n 25211: a2 = u64 [s1 + 0x1b0]\n 25215: ra = 1006, jump @2101\n      : @954 [@dyn 503] (gas: 1)\n 25221: t0 = 1008, jump @2052\n      : @955 [@dyn 504] (gas: 1)\n 25227: ra = 1010, jump @2106\n      : @956 [@dyn 505] (gas: 1)\n 25233: t0 = 1012, jump @2060\n      : @957 [@dyn 506] (gas: 14)\n 25239: a2 = u64 [s1 + 0x178]\n 25243: a2 = a1 if a3 != 0\n 25246: u64 [s1 + 0x178] = a2\n 25250: a1 = u64 [s1 + 0x130]\n 25254: a0 = a0 | a1\n 25257: a1 = u64 [s1 + 0x150]\n 25261: a0 = a1 if a4 == 0\n 25264: a1 = u64 [s1 + 0x168]\n 25268: a1 = a0 if a3 != 0\n 25271: a2 = a3\n 25273: u64 [s1 + 0x168] = a1\n 25277: a0 = u64 [s1 + 0x170]\n 25281: a1 = u64 [s1 + 0x160]\n 25285: ra = 1014, jump @2101\n      : @958 [@dyn 507] (gas: 1)\n 25291: t0 = 1016, jump @2033\n      : @959 [@dyn 508] (gas: 3)\n 25297: t1 = u64 [s1 + 0x178]\n 25301: t2 = u64 [s1 + 0x168]\n 25305: fallthrough\n      : @960 (gas: 68)\n 25306: u64 [s1 + 0x178] = a4\n 25310: a2 = t2 >> 0x3f\n 25313: a3 = t1 << 0x1\n 25316: t0 = a3 | a2\n 25319: a3 = t2 << 0x1\n 25322: a4 = u64 [s1 + 0x1b8]\n 25326: a4 = a4 >> 0x3f\n 25329: a3 = a3 | a4\n 25332: u64 [s1 + 0x168] = a3\n 25336: a2 = u64 [s1 + 0x148]\n 25340: t2 = a1\n 25342: u64 [s1 + 0x170] = t0\n 25346: a1 = a2 ^ t0\n 25349: ra = t1\n 25351: t1 = a2 <u t0\n 25354: a4 = u64 [s1 + 0x150]\n 25358: t0 = a4 <u a3\n 25361: t0 = t1 if a1 != 0\n 25364: a1 = t2 << 0x1\n 25367: a3 = a0 >> 0x3f\n 25370: a1 = a1 | a3\n 25373: u64 [s1 + 0x160] = a1\n 25377: a3 = ra >> 0x3f\n 25380: a0 = a0 << 0x1\n 25383: a3 = a3 | a0\n 25386: a0 = u64 [s1 + 0x1b8]\n 25390: a0 = a0 << 0x1\n 25393: a4 = u64 [s1 + 0x180]\n 25397: a1 = a4 >> 0x3f\n 25400: ra = a0 | a1\n 25403: a1 = a4 << 0x1\n 25406: a4 = u64 [s1 + 0x188]\n 25410: t1 = a4 >> 0x3f\n 25413: t1 = a1 | t1\n 25416: a1 = a4 << 0x1\n 25419: a4 = u64 [s1 + 0x1a8]\n 25423: t2 = a4 >> 0x3f\n 25426: a1 = a1 | t2\n 25429: a4 = a4 << 0x1\n 25432: a0 = u64 [s1 + 0x178]\n 25436: a4 = a4 | a0\n 25439: u64 [s1 + 0x1a8] = a4\n 25443: a1 = a1 | a5\n 25446: u64 [s1 + 0x188] = a1\n 25450: a1 = a5 | t1\n 25453: u64 [s1 + 0x180] = a1\n 25457: a0 = a5 | ra\n 25460: u64 [s1 + 0x1b8] = a0\n 25464: a0 = a2 - a3\n 25467: a0 = a0 <u t0\n 25470: a1 = a2 <u a3\n 25473: t0 = u64 [s1 + 0x160]\n 25477: a4 = a2 - t0\n 25480: a4 = a4 - a1\n 25483: a4 = a4 - a0\n 25486: a5 = a4 >>a 0x3f\n 25489: a0 = u64 [s1 + 0x158]\n 25493: a0 = a0 & a5\n 25496: a1 = u64 [s1 + 0x168]\n 25500: t2 = a1 - a0\n 25503: a1 = a1 <u a0\n 25506: a0 = u64 [s1 + 0x170]\n 25510: t1 = a0 - a1\n 25513: a1 = 0 if a0 != 0\n 25515: a0 = a3 - a1\n 25518: a1 = a3 <u a1\n 25521: a1 = t0 - a1\n 25524: t0 = 1018, jump @2083\n      : @961 [@dyn 509] (gas: 17)\n 25530: t0 = a4 <u a2\n 25533: a2 = a4 - a2\n 25536: a4 = a3 <u 0x1\n 25539: ra = ra - a4\n 25542: a4 = u64 [s1 + 0x198]\n 25546: a4 = a4 - t0\n 25549: a3 = a3 + 0xffffffffffffffff\n 25552: u64 [s1 + 0x1a0] = ra\n 25556: u64 [s1 + 0x198] = a4\n 25560: t0 = ra | a4\n 25563: u64 [s1 + 0x1b0] = a3\n 25567: a4 = a3 | a2\n 25570: a3 = a4 | t0\n 25573: a4 = a5 & 0x1\n 25576: u64 [s1 + 0x190] = a2\n 25580: a5 = 0\n 25582: jump @960 if a3 != 0\n      : @962 (gas: 4)\n 25586: a0 = u64 [s1 + 0x1a8]\n 25590: a0 = a0 << 0x1\n 25593: a4 = a4 | a0\n 25596: fallthrough\n      : @963 (gas: 3)\n 25597: a0 = a4 & 0xffffffffffffffff\n 25600: a1 = u64 [s1 + 0x140]\n 25604: jump @965 if a1 == a0\n      : @964 (gas: 1)\n 25607: jump @1223\n      : @965 (gas: 8)\n 25610: a0 = 0x30190\n 25615: u64 [s1 + 0x170] = a0\n 25619: i32 a0 = a0 + 0\n 25621: u64 [s1 + 0x168] = a0\n 25625: ra = 0x3fc\n 25629: ecalli 5 // 'caller'\n 25631: t0 = 0x3fe\n 25635: jump @1995\n      : @966 [@dyn 510] (gas: 1)\n 25638: t0 = 1022, jump @1995\n      : @967 [@dyn 511] (gas: 8)\n 25644: u64 [a2 + 512] = 0\n 25648: a4 = a2 + 0x100\n 25652: u64 [a4 + 0xf8] = a1\n 25656: u64 [a4 + 0xf0] = a0\n 25660: a1 = s1 + 0x1340\n 25664: u64 [a4 + 0xe8] = a3\n 25668: a0 = 0\n 25670: ra = 1024, jump @24\n      : @968 [@dyn 512] (gas: 9)\n 25676: a1 = s1 + 0x1158\n 25680: u64 [a1 + 480] = 0\n 25684: u64 [a1 + 472] = 0\n 25688: u64 [a1 + 456] = 0x1\n 25693: a2 = a1\n 25695: a0 = 0x20\n 25698: a1 = s1 + 0x1320\n 25702: u64 [a2 + 464] = 0\n 25706: ra = 1026, jump @24\n      : @969 [@dyn 513] (gas: 7)\n 25712: a0 = sp + 0xffffffffffffffe0\n 25715: a0 = a0 & 0xffffffffffffffe0\n 25718: u64 [s1 + 0x148] = a0\n 25722: sp = a0\n 25724: a1 = 0x20180\n 25729: a0 = i32 [0x20180]\n 25734: jump @971 if a0 >u 63\n      : @970 (gas: 3)\n 25738: u32 [0x20180] = 0x40\n 25744: t0 = 0x404\n 25748: jump @2016\n      : @971 (gas: 1)\n 25751: t0 = 1028, jump @2016\n      : @972 [@dyn 514] (gas: 10)\n 25757: a0 = 0x20190\n 25762: i32 a0 = a0 + 0\n 25764: i32 a2 = a2 + 0\n 25766: u64 [s1 + 0x1a8] = a1\n 25770: a1 = 0x40\n 25773: u64 [s1 + 0x1b0] = a0\n 25777: ra = 0x406\n 25781: ecalli 9 // 'hash_keccak_256'\n 25783: t0 = 0x408\n 25787: jump @2085\n      : @973 [@dyn 515] (gas: 1)\n 25790: t0 = 1032, jump @2085\n      : @974 [@dyn 516] (gas: 16)\n 25796: a1 = reverse a2\n 25798: a2 = reverse a3\n 25800: a0 = u64 [s1 + 0x148]\n 25804: u64 [s1 + 0x1a0] = a2\n 25808: u64 [a0 + 0x18] = a2\n 25811: u64 [s1 + 0x1b8] = a1\n 25815: u64 [a0 + 0x10] = a1\n 25818: u64 [s1 + 0x198] = a4\n 25822: u64 [a0 + 0x8] = a4\n 25825: u64 [s1 + 0x190] = a5\n 25829: u64 [a0] = a5\n 25831: a0 = u64 [s1 + 0x168]\n 25835: ra = 0x40a\n 25839: ecalli 5 // 'caller'\n 25841: t0 = 0x40c\n 25845: jump @1995\n      : @975 [@dyn 517] (gas: 1)\n 25848: t0 = 1036, jump @1995\n      : @976 [@dyn 518] (gas: 8)\n 25854: u64 [a2 + 448] = 0\n 25858: a4 = a2 + 0x100\n 25862: u64 [a4 + 0xb8] = a1\n 25866: u64 [a4 + 0xb0] = a0\n 25870: a1 = s1 + 0x1300\n 25874: u64 [a4 + 0xa8] = a3\n 25878: a0 = 0\n 25880: ra = 1038, jump @24\n      : @977 [@dyn 519] (gas: 9)\n 25886: a1 = s1 + 0x1158\n 25890: u64 [a1 + 416] = 0\n 25894: u64 [a1 + 408] = 0\n 25898: u64 [a1 + 392] = 0x3\n 25903: a2 = a1\n 25905: a0 = 0x20\n 25908: a1 = s1 + 0x12e0\n 25912: u64 [a2 + 400] = 0\n 25916: ra = 1040, jump @24\n      : @978 [@dyn 520] (gas: 3)\n 25922: a1 = u64 [s1 + 0x1a8]\n 25926: a0 = i32 [a1]\n 25928: jump @980 if a0 >u 63\n      : @979 (gas: 2)\n 25932: u32 [a1 + 0] = 0x40\n 25935: fallthrough\n      : @980 (gas: 8)\n 25936: a1 = 0xffffffff00000000\n 25946: u64 [s1 + 0x150] = a1\n 25950: a0 = 0xffffffff\n 25960: u64 [s1 + 0x158] = a0\n 25964: a0 = sp + 0xffffffffffffffe0\n 25967: a0 = a0 & 0xffffffffffffffe0\n 25970: u64 [s1 + 0x188] = a0\n 25974: t0 = 1042, jump @2001\n      : @981 [@dyn 521] (gas: 5)\n 25980: ra = 0x414\n 25984: ecalli 9 // 'hash_keccak_256'\n 25986: a3 = u64 [s1 + 0x188]\n 25990: t0 = 0x416\n 25994: jump @2004\n      : @982 [@dyn 522] (gas: 2)\n 25997: a3 = u64 [s1 + 0x188]\n 26001: t0 = 1046, jump @2004\n      : @983 [@dyn 523] (gas: 8)\n 26007: a5 = a4 + 0x100\n 26011: u64 [a5 + 0x60] = a3\n 26014: u64 [a5 + 0x58] = a2\n 26017: u64 [a5 + 0x50] = a1\n 26020: u64 [a5 + 0x48] = a0\n 26023: a0 = s1 + 0x12c0\n 26027: a1 = s1 + 0x3ae0\n 26031: ra = 1048, jump @26\n      : @984 [@dyn 524] (gas: 25)\n 26037: u64 [s1 + 304] = 0\n 26041: u64 [s1 + 312] = 0\n 26045: a5 = 0\n 26047: a0 = s1 + 0x1158\n 26051: a0 = u32 [a0 + 0x168]\n 26055: a3 = s1 + 0x100\n 26059: u64 [a3 + 0x60] = a0\n 26062: a1 = u64 [a3 + 0x90]\n 26066: a1 = a1 + 0x1\n 26069: a0 = a1 <u 0x1\n 26072: a2 = u64 [a3 + 0x98]\n 26076: a0 = a0 + a2\n 26079: u64 [a3 + 0x28] = a1\n 26082: u64 [a3 + 0x20] = a0\n 26085: a0 = a0 | a1\n 26088: a0 = a0 <u 0x1\n 26091: a1 = u64 [a3 + 0xb8]\n 26095: a0 = a0 + a1\n 26098: u64 [a3 + 0x18] = a0\n 26101: a0 = a0 <u a1\n 26104: a1 = u64 [a3 + 0xa0]\n 26108: a0 = a0 + a1\n 26111: u64 [a3 + 0x10] = a0\n 26114: a4 = 0x1\n 26117: fallthrough\n      : @985 (gas: 9)\n 26118: a1 = 0\n 26120: a1 = 0 if a5 == 0\n 26122: a0 = u64 [s1 + 0x160]\n 26126: a0 = a0 <u a4\n 26129: a2 = 0\n 26131: a2 = a0 if a5 == 0\n 26134: a0 = 0\n 26136: a2 = a1 if a0 != 0\n 26139: jump @1045 if a2 != 0\n      : @986 (gas: 7)\n 26143: u64 [s1 + 408] = 0\n 26147: u64 [s1 + 0x1b8] = a4\n 26151: a0 = u64 [s1 + 0x168]\n 26155: ra = 0x41a\n 26159: ecalli 5 // 'caller'\n 26161: t0 = 0x41c\n 26165: jump @1995\n      : @987 [@dyn 525] (gas: 1)\n 26168: t0 = 1052, jump @1995\n      : @988 [@dyn 526] (gas: 8)\n 26174: u64 [a2 + 352] = 0\n 26178: a4 = a2 + 0x100\n 26182: u64 [a4 + 0x58] = a1\n 26185: u64 [a4 + 0x50] = a0\n 26188: a1 = s1 + 0x12a0\n 26192: u64 [a4 + 0x48] = a3\n 26195: a0 = 0\n 26197: ra = 1054, jump @24\n      : @989 [@dyn 527] (gas: 9)\n 26203: a0 = s1 + 0x1158\n 26207: u64 [a0 + 320] = 0\n 26211: u64 [a0 + 312] = 0\n 26215: u64 [a0 + 304] = 0\n 26219: a3 = a0\n 26221: a0 = 0x20\n 26224: a1 = s1 + 0x1280\n 26228: u64 [a3 + 296] = 0x2\n 26233: ra = 1056, jump @24\n      : @990 [@dyn 528] (gas: 3)\n 26239: a1 = u64 [s1 + 0x1a8]\n 26243: a0 = i32 [a1]\n 26245: jump @992 if a0 >u 63\n      : @991 (gas: 2)\n 26249: u32 [a1 + 0] = 0x40\n 26252: fallthrough\n      : @992 (gas: 4)\n 26253: a0 = sp + 0xffffffffffffffe0\n 26256: a0 = a0 & 0xffffffffffffffe0\n 26259: u64 [s1 + 0x1a0] = a0\n 26263: t0 = 1058, jump @2001\n      : @993 [@dyn 529] (gas: 4)\n 26269: ra = 0x424\n 26273: ecalli 9 // 'hash_keccak_256'\n 26275: t0 = 0x426\n 26279: jump @2006\n      : @994 [@dyn 530] (gas: 1)\n 26282: t0 = 1062, jump @2006\n      : @995 [@dyn 531] (gas: 9)\n 26288: a3 = a2 + 0x100\n 26292: u64 [a3 + 0x20] = a0\n 26295: u64 [a3 + 0x18] = a0\n 26298: u64 [a3 + 0x10] = a0\n 26301: a1 = s1 + 0x1260\n 26305: a0 = u64 [s1 + 0x1b8]\n 26309: u64 [a3 + 0x8] = a0\n 26312: a0 = 0\n 26314: ra = 1064, jump @24\n      : @996 [@dyn 532] (gas: 13)\n 26320: a0 = u64 [s1 + 0x178]\n 26324: a1 = s1 + 0x1158\n 26328: u64 [a1 + 0x100] = a0\n 26332: a0 = u64 [s1 + 0x180]\n 26336: u64 [a1 + 0xf8] = a0\n 26340: a0 = u64 [s1 + 0x188]\n 26344: u64 [a1 + 0xf0] = a0\n 26348: a3 = a1\n 26350: a0 = 0x20\n 26353: a1 = s1 + 0x1240\n 26357: a2 = u64 [s1 + 0x190]\n 26361: u64 [a3 + 0xe8] = a2\n 26365: ra = 1066, jump @24\n      : @997 [@dyn 533] (gas: 3)\n 26371: a1 = u64 [s1 + 0x1a8]\n 26375: a0 = i32 [a1]\n 26377: jump @999 if a0 >u 63\n      : @998 (gas: 2)\n 26381: u32 [a1 + 0] = 0x40\n 26384: fallthrough\n      : @999 (gas: 4)\n 26385: a0 = sp + 0xffffffffffffffe0\n 26388: a0 = a0 & 0xffffffffffffffe0\n 26391: u64 [s1 + 0x190] = a0\n 26395: t0 = 1068, jump @2001\n      : @1000 [@dyn 534] (gas: 5)\n 26401: ra = 0x42e\n 26405: ecalli 9 // 'hash_keccak_256'\n 26407: a3 = u64 [s1 + 0x190]\n 26411: t0 = 0x430\n 26415: jump @2012\n      : @1001 [@dyn 535] (gas: 2)\n 26418: a3 = u64 [s1 + 0x190]\n 26422: t0 = 1072, jump @2012\n      : @1002 [@dyn 536] (gas: 22)\n 26428: a4 = u64 [s1 + 0x1a0]\n 26432: u64 [a4 + 0x18] = a3\n 26435: u64 [a4 + 0x10] = a2\n 26438: u64 [a4 + 0x8] = a1\n 26441: u64 [a4] = a0\n 26443: a4 = a0 + 0x2\n 26446: a0 = a4 <u a0\n 26449: a5 = a1 + a0\n 26452: a1 = a5 <u a1\n 26455: a1 = a0 if a0 == 0\n 26458: a1 = a1 + a2\n 26461: a0 = a1 <u a2\n 26464: a0 = a0 + a3\n 26467: a2 = s1 + 0x3998\n 26471: a3 = a2 + 0x100\n 26475: u64 [a3 + 0x68] = a4\n 26478: u64 [a3 + 0x70] = a5\n 26481: u64 [a3 + 0x78] = a1\n 26484: u64 [a3 + 0x80] = a0\n 26488: a0 = s1 + 0x1220\n 26492: a1 = s1 + 0x3b00\n 26496: ra = 1074, jump @26\n      : @1003 [@dyn 537] (gas: 3)\n 26502: t0 = 0x434\n 26506: a3 = s1 + 0x1158\n 26510: fallthrough\n      : @1004 [@dyn 538] (gas: 3)\n 26511: a0 = u64 [a3 + 0xd0]\n 26515: a0 = a0 & 0xff\n 26519: jump @1007 if a0 == 0\n      : @1005 (gas: 2)\n 26522: a1 = u64 [s1 + 0x158]\n 26526: fallthrough\n      : @1006 (gas: 5)\n 26527: a5 = 0\n 26529: a0 = u64 [s1 + 0x1b8]\n 26533: a0 = a0 + 0x1\n 26536: a4 = a0 & a1\n 26539: jump @985\n      : @1007 (gas: 3)\n 26542: a0 = s1 + 0x1200\n 26546: a1 = u64 [s1 + 0x1a0]\n 26550: ra = 1078, jump @26\n      : @1008 [@dyn 539] (gas: 3)\n 26556: t0 = 0x438\n 26560: a3 = s1 + 0x1158\n 26564: fallthrough\n      : @1009 [@dyn 540] (gas: 10)\n 26565: a0 = u64 [a3 + 0xb0]\n 26569: a1 = u64 [a3 + 0xb8]\n 26573: a2 = u64 [a3 + 0xa8]\n 26577: a0 = a0 & 0xffffffffffffffff\n 26580: a1 = a1 & 0xffffffffffffffff\n 26583: a4 = u64 [s1 + 0x150]\n 26587: a2 = a2 & a4\n 26590: a1 = a1 | a2\n 26593: a0 = a0 | a1\n 26596: jump @1005 if a0 == 0\n      : @1010 (gas: 5)\n 26599: a0 = u64 [s1 + 0x168]\n 26603: ra = 0x43a\n 26607: ecalli 5 // 'caller'\n 26609: t0 = 0x43c\n 26613: jump @1995\n      : @1011 [@dyn 541] (gas: 1)\n 26616: t0 = 1084, jump @1995\n      : @1012 [@dyn 542] (gas: 7)\n 26622: u64 [a2 + 160] = 0\n 26626: u64 [a2 + 0x98] = a1\n 26630: u64 [a2 + 0x90] = a0\n 26634: a1 = s1 + 0x11e0\n 26638: u64 [a2 + 0x88] = a3\n 26642: a0 = 0\n 26644: ra = 1086, jump @24\n      : @1013 [@dyn 543] (gas: 9)\n 26650: a0 = s1 + 0x1158\n 26654: u64 [a0 + 128] = 0\n 26658: u64 [a0 + 120] = 0\n 26661: u64 [a0 + 112] = 0\n 26664: a3 = a0\n 26666: a0 = 0x20\n 26669: a1 = s1 + 0x11c0\n 26673: u64 [a3 + 104] = 0x4\n 26677: ra = 1088, jump @24\n      : @1014 [@dyn 544] (gas: 3)\n 26683: a1 = u64 [s1 + 0x1a8]\n 26687: a0 = i32 [a1]\n 26689: jump @1016 if a0 >u 63\n      : @1015 (gas: 2)\n 26693: u32 [a1 + 0] = 0x40\n 26696: fallthrough\n      : @1016 (gas: 4)\n 26697: a0 = sp + 0xffffffffffffffe0\n 26700: a0 = a0 & 0xffffffffffffffe0\n 26703: u64 [s1 + 0x1a0] = a0\n 26707: t0 = 1090, jump @2001\n      : @1017 [@dyn 545] (gas: 3)\n 26713: ra = 0x444\n 26717: ecalli 9 // 'hash_keccak_256'\n 26719: fallthrough\n      : @1018 [@dyn 546] (gas: 8)\n 26720: a3 = u64 [s1 + 0x1a0]\n 26724: a0 = u64 [a3 + 0x18]\n 26727: a1 = u64 [a3 + 0x10]\n 26730: a2 = u64 [a3 + 0x8]\n 26733: a3 = u64 [a3]\n 26735: a0 = reverse a0\n 26737: u64 [s1 + 0x1a0] = a0\n 26741: t0 = 1094, jump @2041\n      : @1019 [@dyn 547] (gas: 8)\n 26747: u64 [a2 + 96] = 0\n 26750: u64 [a2 + 88] = 0\n 26753: u64 [a2 + 80] = 0\n 26756: a1 = s1 + 0x11a0\n 26760: a0 = u64 [s1 + 0x140]\n 26764: u64 [a2 + 0x48] = a0\n 26767: a0 = 0\n 26769: ra = 1096, jump @24\n      : @1020 [@dyn 548] (gas: 13)\n 26775: a0 = u64 [s1 + 0x180]\n 26779: a1 = s1 + 0x1158\n 26783: u64 [a1 + 0x40] = a0\n 26786: a0 = u64 [s1 + 0x188]\n 26790: u64 [a1 + 0x38] = a0\n 26793: a0 = u64 [s1 + 0x190]\n 26797: u64 [a1 + 0x30] = a0\n 26800: a3 = a1\n 26802: a0 = 0x20\n 26805: a1 = s1 + 0x1180\n 26809: a2 = u64 [s1 + 0x1a0]\n 26813: u64 [a3 + 0x28] = a2\n 26816: ra = 1098, jump @24\n      : @1021 [@dyn 549] (gas: 3)\n 26822: a1 = u64 [s1 + 0x1a8]\n 26826: a0 = i32 [a1]\n 26828: jump @1023 if a0 >u 63\n      : @1022 (gas: 2)\n 26832: u32 [a1 + 0] = 0x40\n 26835: fallthrough\n      : @1023 (gas: 4)\n 26836: a0 = sp + 0xffffffffffffffe0\n 26839: a0 = a0 & 0xffffffffffffffe0\n 26842: u64 [s1 + 0x1a0] = a0\n 26846: t0 = 1100, jump @2001\n      : @1024 [@dyn 550] (gas: 4)\n 26852: ra = 0x44e\n 26856: ecalli 9 // 'hash_keccak_256'\n 26858: t0 = 0x450\n 26862: jump @2006\n      : @1025 [@dyn 551] (gas: 1)\n 26865: t0 = 1104, jump @2006\n      : @1026 [@dyn 552] (gas: 8)\n 26871: u64 [a2 + 0x20] = a0\n 26874: u64 [a2 + 0x18] = a0\n 26877: u64 [a2 + 0x10] = a0\n 26880: a1 = s1 + 0x1160\n 26884: a0 = u64 [s1 + 0x1b8]\n 26888: u64 [a2 + 0x8] = a0\n 26891: a0 = 0\n 26893: ra = 1106, jump @24\n      : @1027 [@dyn 553] (gas: 13)\n 26899: a0 = u64 [s1 + 0x178]\n 26903: a1 = s1 + 0x1158\n 26907: u64 [a1] = a0\n 26909: a0 = u64 [s1 + 0x180]\n 26913: u64 [a1 + 0xfffffffffffffff8] = a0\n 26916: a0 = u64 [s1 + 0x188]\n 26920: u64 [a1 + 0xfffffffffffffff0] = a0\n 26923: a3 = a1\n 26925: a0 = 0x20\n 26928: a1 = s1 + 0x1140\n 26932: a2 = u64 [s1 + 0x190]\n 26936: u64 [a3 + 0xffffffffffffffe8] = a2\n 26939: ra = 1108, jump @24\n      : @1028 [@dyn 554] (gas: 3)\n 26945: a1 = u64 [s1 + 0x1a8]\n 26949: a0 = i32 [a1]\n 26951: jump @1030 if a0 >u 63\n      : @1029 (gas: 2)\n 26955: u32 [a1 + 0] = 0x40\n 26958: fallthrough\n      : @1030 (gas: 4)\n 26959: a0 = sp + 0xffffffffffffffe0\n 26962: a0 = a0 & 0xffffffffffffffe0\n 26965: u64 [s1 + 0x198] = a0\n 26969: t0 = 1110, jump @2001\n      : @1031 [@dyn 555] (gas: 5)\n 26975: ra = 0x458\n 26979: ecalli 9 // 'hash_keccak_256'\n 26981: a3 = u64 [s1 + 0x198]\n 26985: t0 = 0x45a\n 26989: jump @2040\n      : @1032 [@dyn 556] (gas: 2)\n 26992: a3 = u64 [s1 + 0x198]\n 26996: t0 = 1114, jump @2040\n      : @1033 [@dyn 557] (gas: 2)\n 27002: a0 = s1 + 0x1120\n 27006: ra = 1116, jump @26\n      : @1034 [@dyn 558] (gas: 4)\n 27012: a0 = s1 + 0x7ff\n 27016: a0 = a0 + 0x139\n 27020: a0 = u8 [a0 + 0x7e8]\n 27024: jump @1005 if a0 != 0\n      : @1035 (gas: 3)\n 27028: a0 = s1 + 0x1100\n 27032: a1 = u64 [s1 + 0x148]\n 27036: ra = 1118, jump @26\n      : @1036 [@dyn 559] (gas: 16)\n 27042: a1 = s1 + 0x7ff\n 27046: a1 = a1 + 0x139\n 27050: a0 = u64 [a1 + 0x7e0]\n 27054: t1 = u64 [a1 + 0x7d8]\n 27058: a2 = u64 [a1 + 0x7d0]\n 27062: t0 = u64 [a1 + 0x7c8]\n 27066: a1 = u64 [0x200a8]\n 27071: a5 = a0 >u 0\n 27073: a4 = t1 >u 0\n 27075: a4 = a5 if a0 != 0\n 27078: a1 = a1 <u t0\n 27081: a5 = a2 >u 0\n 27083: a5 = a1 if a2 == 0\n 27086: a1 = t1 | a0\n 27089: a5 = a4 if a1 != 0\n 27092: jump @1038 if a5 != 0\n      : @1037 (gas: 7)\n 27095: a2 = s1 + 0x100\n 27099: a0 = u64 [a2 + 0x30]\n 27102: a0 = a0 + 0x1\n 27105: a1 = u64 [a2 + 0x58]\n 27108: a0 = a0 & a1\n 27111: u64 [a2 + 0x30] = a0\n 27114: jump @1006\n      : @1038 (gas: 23)\n 27117: a1 = sp + 0xffffffffffffffe0\n 27120: a1 = a1 & 0xffffffffffffffe0\n 27123: sp = a1\n 27125: a4 = u64 [0x200b0]\n 27130: a4 = a4 + t0\n 27133: a5 = a4 <u t0\n 27136: a3 = a2 + a5\n 27139: a3 = a3 + 0xffffffffffffffff\n 27142: t0 = a3 ^ a2\n 27145: a2 = a3 <u a2\n 27148: a2 = a5 if t0 == 0\n 27151: a5 = t1 + 0xffffffffffffffff\n 27154: a2 = a2 + a5\n 27157: t0 = a2 <u a5\n 27160: a5 = t1 <u 0x1\n 27163: a0 = a0 - a5\n 27166: a0 = a0 + t0\n 27169: u64 [a1 + 0x8] = a3\n 27172: u64 [a1] = a4\n 27174: u64 [a1 + 0x10] = a2\n 27177: u64 [a1 + 0x18] = a0\n 27180: a0 = u64 [s1 + 0x148]\n 27184: ra = 1120, jump @28\n      : @1039 [@dyn 560] (gas: 15)\n 27190: a0 = sp + 0xffffffffffffffe0\n 27193: a1 = a0 & 0xffffffffffffffe0\n 27196: sp = a1\n 27198: a2 = s1 + 0x100\n 27202: a0 = u64 [a2 + 0x10]\n 27205: u64 [a1 + 0x18] = a0\n 27208: a0 = u64 [a2 + 0x18]\n 27211: u64 [a1 + 0x10] = a0\n 27214: a0 = u64 [a2 + 0x20]\n 27217: u64 [a1 + 0x8] = a0\n 27220: a0 = u64 [a2 + 0x28]\n 27223: u64 [a1] = a0\n 27225: a0 = s1 + 0x10e0\n 27229: u64 [a2 + 0x98] = a1\n 27233: ra = 1122, jump @26\n      : @1040 [@dyn 561] (gas: 30)\n 27239: a0 = s1 + 0x7ff\n 27243: a0 = a0 + 0x139\n 27247: t0 = u64 [a0 + 0x7c0]\n 27251: t1 = u64 [a0 + 0x7b8]\n 27255: a2 = u64 [a0 + 0x7b0]\n 27259: a4 = u64 [a0 + 0x7a8]\n 27263: a1 = sp + 0xffffffffffffffe0\n 27266: a1 = a1 & 0xffffffffffffffe0\n 27269: sp = a1\n 27271: a5 = u64 [0x200a0]\n 27276: t2 = a4 + a5\n 27279: a0 = t2 <u a4\n 27282: a3 = a2 + a0\n 27285: a5 = a3 <u a2\n 27288: a5 = a0 if a0 == 0\n 27291: a5 = a5 + t1\n 27294: a0 = a5 <u t1\n 27297: u64 [a1 + 0x10] = a5\n 27300: a5 = u64 [0x200b8]\n 27305: a0 = a0 + t0\n 27308: u64 [a1 + 0x8] = a3\n 27311: u64 [a1] = t2\n 27313: a3 = a5 <u a4\n 27316: a2 = a2 + 0x1\n 27319: a3 = 0 if a2 != 0\n 27321: a2 = t1 & t0\n 27324: a2 = a2 + 0x1\n 27327: a3 = 0 if a2 != 0\n 27329: u64 [a1 + 0x18] = a0\n 27332: jump @1129 if a3 != 0\n      : @1041 (gas: 2)\n 27336: a0 = u64 [s1 + 0x198]\n 27340: ra = 1124, jump @28\n      : @1042 [@dyn 562] (gas: 3)\n 27346: a0 = s1 + 0x10c0\n 27350: a1 = u64 [s1 + 0x1a0]\n 27354: ra = 1126, jump @26\n      : @1043 [@dyn 563] (gas: 18)\n 27360: a3 = s1 + 0x7ff\n 27364: a3 = a3 + 0x139\n 27368: a4 = a3 + 0x700\n 27372: a0 = u64 [a4 + 0x88]\n 27376: a1 = u64 [a4 + 0x90]\n 27380: a2 = u64 [a4 + 0xa0]\n 27384: a3 = u64 [a4 + 0x98]\n 27388: a0 = a0 & 0xffffffffffffff00\n 27392: a0 = a0 | 0x1\n 27395: a4 = s1 + 0x3998\n 27399: a5 = a4 + 0x100\n 27403: u64 [a5 + 0xa0] = a2\n 27407: u64 [a5 + 0x98] = a3\n 27411: u64 [a5 + 0x90] = a1\n 27415: u64 [a5 + 0x88] = a0\n 27419: a1 = s1 + 0x3b20\n 27423: a0 = u64 [s1 + 0x1a0]\n 27427: ra = 1128, jump @28\n      : @1044 [@dyn 564] (gas: 7)\n 27433: a2 = s1 + 0x100\n 27437: a0 = u64 [a2 + 0x38]\n 27440: a0 = a0 + 0x1\n 27443: a1 = u64 [a2 + 0x58]\n 27446: a0 = a0 & a1\n 27449: u64 [a2 + 0x38] = a0\n 27452: jump @1006\n      : @1045 (gas: 3)\n 27455: a0 = s1 + 0x1060\n 27459: a1 = 0x40\n 27462: ra = 1130, jump @22\n      : @1046 [@dyn 565] (gas: 15)\n 27468: a2 = s1 + 0x7ff\n 27472: a2 = a2 + 0x139\n 27476: t0 = u64 [a2 + 0x740]\n 27480: a0 = a2 + 0x700\n 27484: a5 = u64 [a0 + 0x38]\n 27487: a4 = u64 [a0 + 0x30]\n 27490: a3 = u64 [a0 + 0x28]\n 27493: a0 = a4 | t0\n 27496: a1 = a3 | a5\n 27499: a1 = a1 | a0\n 27502: a1 = a1 >> 0x20\n 27505: a0 = a0 | a5\n 27508: a0 = a0 << 0x20\n 27511: a0 = a0 | a1\n 27514: jump @1050 if a0 != 0\n      : @1047 (gas: 14)\n 27517: a0 = u64 [s1 + 0x138]\n 27521: a1 = u64 [s1 + 0x158]\n 27525: a0 = a0 & a1\n 27528: u64 [a2 + 1824] = 0\n 27532: u64 [a2 + 1816] = 0\n 27536: u64 [a2 + 1808] = 0\n 27540: a1 = s1 + 0x1040\n 27544: u64 [a2 + 0x708] = a0\n 27548: a0 = a3\n 27550: u64 [s1 + 0x1b8] = a3\n 27554: u64 [s1 + 0x1a8] = a4\n 27558: u64 [s1 + 0x198] = t0\n 27562: u64 [s1 + 0x1a0] = a5\n 27566: ra = 1132, jump @24\n      : @1048 [@dyn 566] (gas: 11)\n 27572: a4 = s1 + 0x100\n 27576: a2 = u64 [a4 + 0xb8]\n 27580: a0 = u64 [a4 + 0xa0]\n 27584: a1 = u64 [a4 + 0x98]\n 27588: a0 = a0 | a1\n 27591: a1 = 0xffffffe0\n 27601: a1 = a2 <u a1\n 27604: a3 = u64 [a4 + 0xa8]\n 27608: a1 = 0 if a3 != 0\n 27610: a1 = 0 if a0 != 0\n 27612: jump @1050 if a1 == 0\n      : @1049 (gas: 1)\n 27615: jump @1228\n      : @1050 (gas: 1)\n 27618: trap\n      : @1051 (gas: 9)\n 27619: a0 = u64 [s1 + 0x38]\n 27622: a0 = a0 ^ 0x1\n 27625: a1 = u64 [s1 + 0x60]\n 27628: a2 = u64 [s1 + 0x28]\n 27631: a0 = a2 if a1 != 0\n 27634: a1 = u64 [s1 + 0x30]\n 27637: a2 = u64 [s1 + 0x130]\n 27641: a0 = a1 if a2 != 0\n 27644: jump @1060 if a0 == 0\n      : @1052 (gas: 16)\n 27648: a0 = u64 [s1 + 0xa0]\n 27652: a0 = a0 & 0xffffffffffffffe0\n 27655: u64 [s1 + 0x130] = a0\n 27659: a0 = s1 + 0x2178\n 27663: a1 = u64 [s1 + 0x170]\n 27667: a3 = a0 + 0x600\n 27671: u64 [a3 + 0x88] = a1\n 27675: a1 = u64 [s1 + 0x160]\n 27679: u64 [a3 + 0x90] = a1\n 27683: a1 = u64 [s1 + 0x158]\n 27687: u64 [a3 + 0x98] = a1\n 27691: a1 = s1 + 0x2800\n 27695: a2 = u64 [s1 + 0x168]\n 27699: u64 [a3 + 0xa0] = a2\n 27703: a0 = 0\n 27705: ra = 1134, jump @24\n      : @1053 [@dyn 567] (gas: 7)\n 27711: a0 = sp + 0xffffffffffffffe0\n 27714: a0 = a0 & 0xffffffffffffffe0\n 27717: u64 [s1 + 0x190] = a0\n 27721: sp = a0\n 27723: a1 = 0x20\n 27726: a0 = 0\n 27728: ra = 1136, jump @37\n      : @1054 [@dyn 568] (gas: 34)\n 27734: a1 = sp + 0xffffffffffffffe0\n 27737: a1 = a1 & 0xffffffffffffffe0\n 27740: u64 [s1 + 0x188] = a1\n 27744: sp = a1\n 27746: i32 a0 = a0 + 0\n 27748: i32 a2 = a1 + 0\n 27750: a1 = 0x20\n 27753: ecalli 9 // 'hash_keccak_256'\n 27755: u64 [s1 + 440] = 0x20\n 27760: a5 = 0\n 27762: u64 [s1 + 432] = 0\n 27766: u64 [s1 + 424] = 0\n 27770: u64 [s1 + 408] = 0\n 27774: u64 [s1 + 416] = 0\n 27778: a3 = u64 [s1 + 0x188]\n 27782: a0 = u64 [a3 + 0x18]\n 27785: a1 = u64 [a3 + 0x10]\n 27788: a2 = u64 [a3 + 0x8]\n 27791: a3 = u64 [a3]\n 27793: t1 = reverse a0\n 27795: t2 = reverse a1\n 27797: ra = reverse a2\n 27799: a2 = 0\n 27801: a4 = u64 [s1 + 0x198]\n 27805: a0 = reverse a3\n 27807: a3 = 0\n 27809: t0 = a0\n 27811: a1 = u64 [s1 + 0x190]\n 27815: u64 [a1 + 0x18] = a0\n 27818: u64 [s1 + 0x188] = ra\n 27822: u64 [a1 + 0x10] = ra\n 27825: u64 [a1 + 0x8] = t2\n 27828: u64 [a1] = t1\n 27830: fallthrough\n      : @1055 (gas: 24)\n 27831: u64 [s1 + 0x180] = t0\n 27835: a0 = u64 [s1 + 0x130]\n 27839: u64 [s1 + 0x198] = a4\n 27843: a0 = a4 <u a0\n 27846: a4 = a0 ^ 0x1\n 27849: u64 [s1 + 0x170] = a3\n 27853: a4 = 0x1 if a3 != 0\n 27856: u64 [s1 + 0x178] = a2\n 27860: a0 = u64 [s1 + 0x1a0]\n 27864: a0 = a0 | a2\n 27867: a4 = 0x1 if a0 != 0\n 27870: a1 = u64 [s1 + 0x138]\n 27874: a0 = u64 [s1 + 0x1b8]\n 27878: a1 = a1 + a0\n 27881: a3 = u64 [s1 + 0x150]\n 27885: a3 = a3 + a5\n 27888: a2 = u64 [s1 + 0x140]\n 27892: a0 = u64 [s1 + 0x1b0]\n 27896: a2 = a2 + a0\n 27899: a0 = u64 [s1 + 0x148]\n 27903: ra = a5\n 27905: a5 = u64 [s1 + 0x1a8]\n 27909: a0 = a0 + a5\n 27912: jump @1062 if a4 != 0\n      : @1056 (gas: 23)\n 27916: a4 = u64 [s1 + 0x1b8]\n 27920: a4 = a1 <u a4\n 27923: a3 = a3 + a4\n 27926: t0 = a3 ^ ra\n 27929: u64 [s1 + 0x158] = ra\n 27933: a5 = a3 <u ra\n 27936: a5 = a4 if t0 == 0\n 27939: a5 = a5 + a2\n 27942: t0 = a5 <u a2\n 27945: a4 = u64 [s1 + 0x1b0]\n 27949: a2 = a2 <u a4\n 27952: a0 = a0 + a2\n 27955: a0 = a0 + t0\n 27958: a2 = a1 | a5\n 27961: a0 = a0 | a3\n 27964: a2 = a2 | a0\n 27967: a2 = a2 >> 0x20\n 27970: a0 = a0 | a5\n 27973: a0 = a0 << 0x20\n 27976: a0 = a0 | a2\n 27979: u64 [s1 + 0x168] = t1\n 27983: u64 [s1 + 0x160] = t2\n 27987: jump @1050 if a0 != 0\n      : @1057 (gas: 2)\n 27991: a0 = s1 + 0x2560\n 27995: ra = 1138, jump @22\n      : @1058 [@dyn 569] (gas: 15)\n 28001: a3 = s1 + 0x2178\n 28005: a0 = u64 [a3 + 0x400]\n 28009: a4 = a3 + 0x300\n 28013: a1 = u64 [a4 + 0xf8]\n 28017: a2 = u64 [a4 + 0xf0]\n 28021: a3 = u64 [a4 + 0xe8]\n 28025: a4 = s1 + 0x3998\n 28029: a5 = a4 + 0x500\n 28033: u64 [a5 + 0xa0] = a0\n 28037: u64 [a5 + 0x98] = a1\n 28041: u64 [a5 + 0x90] = a2\n 28045: u64 [a5 + 0x88] = a3\n 28049: a1 = s1 + 0x3f20\n 28053: a0 = u64 [s1 + 0x190]\n 28057: ra = 1140, jump @28\n      : @1059 [@dyn 570] (gas: 53)\n 28063: t1 = u64 [s1 + 0x168]\n 28067: t1 = t1 + 0x1\n 28070: a0 = t1 <u 0x1\n 28073: t2 = u64 [s1 + 0x160]\n 28077: t2 = t2 + a0\n 28080: a0 = t1 | t2\n 28083: a0 = a0 <u 0x1\n 28086: a1 = u64 [s1 + 0x188]\n 28090: ra = a1 + a0\n 28093: a1 = ra <u a1\n 28096: a0 = u64 [s1 + 0x180]\n 28100: a0 = a0 + a1\n 28103: a1 = u64 [s1 + 0x1b8]\n 28107: a2 = a1 + 0x20\n 28110: u64 [s1 + 0x180] = a2\n 28114: a3 = a2 <u a1\n 28117: a1 = u64 [s1 + 0x158]\n 28121: a2 = a1 + a3\n 28124: u64 [s1 + 0x168] = a2\n 28128: a4 = a2 <u a1\n 28131: a4 = a3 if a3 == 0\n 28134: a1 = u64 [s1 + 0x1b0]\n 28138: a3 = a1 + a4\n 28141: a4 = a3 <u a1\n 28144: a1 = u64 [s1 + 0x1a8]\n 28148: a1 = a1 + a4\n 28151: u64 [s1 + 0x1a8] = a1\n 28155: a1 = u64 [s1 + 0x198]\n 28159: a4 = a1 + 0x20\n 28162: a5 = a4 <u a1\n 28165: a2 = u64 [s1 + 0x170]\n 28169: a1 = a2 + a5\n 28172: a2 = a1 <u a2\n 28175: a2 = a5 if a5 == 0\n 28178: a5 = u64 [s1 + 0x178]\n 28182: a2 = a2 + a5\n 28185: a5 = a2 <u a5\n 28188: t0 = u64 [s1 + 0x1a0]\n 28192: t0 = t0 + a5\n 28195: u64 [s1 + 0x1a0] = t0\n 28199: a5 = u64 [s1 + 0x190]\n 28203: u64 [a5 + 0x8] = t2\n 28206: u64 [a5] = t1\n 28208: u64 [a5 + 0x10] = ra\n 28211: t0 = a0\n 28213: u64 [a5 + 0x18] = a0\n 28216: u64 [s1 + 0x188] = ra\n 28220: a0 = u64 [s1 + 0x180]\n 28224: u64 [s1 + 0x1b8] = a0\n 28228: a5 = u64 [s1 + 0x168]\n 28232: u64 [s1 + 0x1b0] = a3\n 28236: a3 = a1\n 28238: jump @1055\n      : @1060 (gas: 8)\n 28241: a0 = u64 [s1 + 0xa0]\n 28245: a1 = u64 [s1 + 0x50]\n 28248: a0 = a0 | a1\n 28251: a1 = u64 [s1 + 0x60]\n 28254: a2 = u64 [s1 + 0x48]\n 28257: a1 = a1 | a2\n 28260: a0 = a0 | a1\n 28263: jump @1070 if a0 != 0\n      : @1061 (gas: 5)\n 28267: u64 [s1 + 416] = 0\n 28271: u64 [s1 + 408] = 0\n 28275: u64 [s1 + 424] = 0\n 28279: u64 [s1 + 432] = 0\n 28283: jump @1073\n      : @1062 (gas: 12)\n 28286: t2 = u64 [s1 + 0x1b0]\n 28290: t1 = u64 [s1 + 0x1b8]\n 28294: a4 = u64 [s1 + 0xa0]\n 28298: a5 = u64 [s1 + 0x130]\n 28302: a4 = a4 ^ a5\n 28305: a5 = u64 [s1 + 0x50]\n 28308: t0 = a4 | a5\n 28311: a5 = u64 [s1 + 0x60]\n 28314: a4 = u64 [s1 + 0x48]\n 28317: a5 = a5 | a4\n 28320: a4 = t0 | a5\n 28323: jump @1069 if a4 == 0\n      : @1063 (gas: 18)\n 28327: a4 = a1 <u t1\n 28330: a3 = a3 + a4\n 28333: t0 = a3 ^ ra\n 28336: a5 = a3 <u ra\n 28339: a5 = a4 if t0 == 0\n 28342: a5 = a5 + a2\n 28345: a4 = a5 <u a2\n 28348: a2 = a2 <u t2\n 28351: a0 = a0 + a2\n 28354: a0 = a0 + a4\n 28357: a2 = a1 | a5\n 28360: a0 = a0 | a3\n 28363: a2 = a2 | a0\n 28366: a2 = a2 >> 0x20\n 28369: a0 = a0 | a5\n 28372: a0 = a0 << 0x20\n 28375: a0 = a0 | a2\n 28378: jump @1050 if a0 != 0\n      : @1064 (gas: 2)\n 28382: a0 = s1 + 0x27e0\n 28386: ra = 1142, jump @22\n      : @1065 [@dyn 571] (gas: 18)\n 28392: a0 = s1 + 0x2178\n 28396: a2 = a0 + 0x600\n 28400: a1 = u64 [a2 + 0x80]\n 28404: u64 [s1 + 0x1b0] = a1\n 28408: a1 = u64 [a2 + 0x78]\n 28411: u64 [s1 + 0x1a8] = a1\n 28415: a1 = u64 [a2 + 0x70]\n 28418: u64 [s1 + 0x1a0] = a1\n 28422: a0 = u64 [a2 + 0x68]\n 28425: u64 [s1 + 0x198] = a0\n 28429: a0 = u64 [s1 + 0xa0]\n 28433: a0 = a0 << 0x3b\n 28436: a1 = a0 >> 0x38\n 28439: u64 [s1 + 0x1b8] = a1\n 28443: a2 = 0x80 - a1\n 28447: a0 = 0xffffffffffffffff\n 28450: a1 = 0xffffffffffffffff\n 28453: ra = 1144, jump @2106\n      : @1066 [@dyn 572] (gas: 6)\n 28459: u64 [s1 + 0x188] = a0\n 28463: u64 [s1 + 0x170] = a1\n 28467: a0 = 0xffffffffffffffff\n 28470: a1 = 0xffffffffffffffff\n 28473: a2 = u64 [s1 + 0x1b8]\n 28477: ra = 1146, jump @2101\n      : @1067 [@dyn 573] (gas: 10)\n 28483: u64 [s1 + 0x178] = a0\n 28487: u64 [s1 + 0x180] = a1\n 28491: a0 = u64 [s1 + 0x170]\n 28495: a0 = a0 | a1\n 28498: u64 [s1 + 0x170] = a0\n 28502: a0 = u64 [s1 + 0x1b8]\n 28506: a2 = a0 + 0xffffffffffffff80\n 28509: a0 = 0xffffffffffffffff\n 28512: a1 = 0xffffffffffffffff\n 28515: ra = 1148, jump @2101\n      : @1068 [@dyn 574] (gas: 30)\n 28521: a4 = u64 [s1 + 0x1b8]\n 28525: a2 = a4 <u 0x80\n 28529: a3 = u64 [s1 + 0x170]\n 28533: a1 = a3 if a2 != 0\n 28536: a5 = u64 [s1 + 0x178]\n 28540: a3 = u64 [s1 + 0x188]\n 28544: a3 = a3 | a5\n 28547: a3 = a0 if a2 == 0\n 28550: a1 = 0xffffffffffffffff if a4 == 0\n 28553: a3 = 0xffffffffffffffff if a4 == 0\n 28556: a4 = u64 [s1 + 0x180]\n 28560: a4 = 0 if a2 == 0\n 28562: a5 = 0 if a2 == 0\n 28564: a0 = u64 [s1 + 0x198]\n 28568: a0 = a0 & ~a3\n 28571: a2 = u64 [s1 + 0x1a0]\n 28575: a1 = a2 & ~a1\n 28578: a2 = u64 [s1 + 0x1a8]\n 28582: a2 = a2 & ~a5\n 28585: a3 = u64 [s1 + 0x1b0]\n 28589: a3 = a3 & ~a4\n 28592: a4 = s1 + 0x3998\n 28596: a5 = a4 + 0x500\n 28600: u64 [a5 + 0xc0] = a3\n 28604: u64 [a5 + 0xb8] = a2\n 28608: u64 [a5 + 0xb0] = a1\n 28612: u64 [a5 + 0xa8] = a0\n 28616: a1 = s1 + 0x3f40\n 28620: a0 = u64 [s1 + 0x190]\n 28624: ra = 1150, jump @28\n      : @1069 [@dyn 575] (gas: 23)\n 28630: a2 = u64 [s1 + 0x50]\n 28633: a0 = a2 >> 0x3f\n 28636: a1 = u64 [s1 + 0x48]\n 28639: a1 = a1 << 0x1\n 28642: a0 = a0 | a1\n 28645: a3 = u64 [s1 + 0x60]\n 28648: a1 = a3 >> 0x3f\n 28651: a2 = a2 << 0x1\n 28654: a1 = a1 | a2\n 28657: a4 = u64 [s1 + 0xa0]\n 28661: a2 = a4 >> 0x3f\n 28664: a3 = a3 << 0x1\n 28667: a2 = a2 | a3\n 28670: a3 = a4 << 0x1\n 28673: a3 = a3 + 0x1\n 28676: a4 = s1 + 0x3998\n 28680: a5 = a4 + 0x500\n 28684: u64 [a5 + 0xc8] = a3\n 28688: u64 [a5 + 0xd0] = a2\n 28692: u64 [a5 + 0xd8] = a1\n 28696: u64 [a5 + 0xe0] = a0\n 28700: a0 = 0x3f60\n 28704: jump @1077\n      : @1070 (gas: 11)\n 28707: a3 = s1 + 0x100\n 28711: a0 = u64 [a3 + 0x48]\n 28714: a1 = u64 [a3 + 0x40]\n 28717: a0 = a0 | a1\n 28720: a1 = 0xffffffe0\n 28730: a2 = u64 [a3 + 0x38]\n 28733: a1 = a2 <u a1\n 28736: a2 = u64 [a3 + 0x50]\n 28739: a1 = 0 if a2 != 0\n 28741: a1 = 0 if a0 != 0\n 28743: jump @1050 if a1 == 0\n      : @1071 (gas: 4)\n 28747: a0 = u64 [s1 + 0x138]\n 28751: i32 a1 = a0 + 0x20\n 28754: a0 = s1 + 0x2820\n 28758: ra = 1152, jump @22\n      : @1072 [@dyn 576] (gas: 12)\n 28764: a0 = s1 + 0x2178\n 28768: a2 = a0 + 0x600\n 28772: a1 = u64 [a2 + 0xc0]\n 28776: a3 = s1 + 0x100\n 28780: u64 [a3 + 0xb0] = a1\n 28784: a1 = u64 [a2 + 0xb8]\n 28788: u64 [a3 + 0xa8] = a1\n 28792: a1 = u64 [a2 + 0xb0]\n 28796: u64 [a3 + 0x98] = a1\n 28800: a0 = u64 [a2 + 0xa8]\n 28804: u64 [a3 + 0xa0] = a0\n 28808: fallthrough\n      : @1073 (gas: 24)\n 28809: a2 = u64 [s1 + 0x60]\n 28812: a0 = a2 >> 0x3f\n 28815: a3 = u64 [s1 + 0x50]\n 28818: a1 = a3 << 0x1\n 28821: a0 = a0 | a1\n 28824: u64 [s1 + 0x190] = a0\n 28828: a0 = a3 >> 0x3f\n 28831: a1 = u64 [s1 + 0x48]\n 28834: a1 = a1 << 0x1\n 28837: a0 = a0 | a1\n 28840: u64 [s1 + 0x188] = a0\n 28844: a3 = u64 [s1 + 0xa0]\n 28848: a0 = a3 >> 0x3f\n 28851: a1 = a2 << 0x1\n 28854: a0 = a0 | a1\n 28857: u64 [s1 + 0x180] = a0\n 28861: a0 = a3 << 0x1\n 28864: u64 [s1 + 0x178] = a0\n 28868: a1 = a3 << 0x3\n 28871: u64 [s1 + 0x1b8] = a1\n 28875: i32 a2 = 0x80 - a1\n 28879: a0 = 0xffffffffffffffff\n 28882: a1 = 0xffffffffffffffff\n 28885: ra = 1154, jump @2106\n      : @1074 [@dyn 577] (gas: 7)\n 28891: u64 [s1 + 0x158] = a0\n 28895: u64 [s1 + 0x170] = a1\n 28899: a0 = u64 [s1 + 0xa0]\n 28903: i32 a2 = a0 << 0x3\n 28906: a0 = 0xffffffffffffffff\n 28909: a1 = 0xffffffffffffffff\n 28912: ra = 1156, jump @2101\n      : @1075 [@dyn 578] (gas: 10)\n 28918: u64 [s1 + 0x168] = a0\n 28922: u64 [s1 + 0x160] = a1\n 28926: a1 = u64 [s1 + 0x158]\n 28930: a0 = a0 | a1\n 28933: u64 [s1 + 0x158] = a0\n 28937: a0 = u64 [s1 + 0x1b8]\n 28941: i32 a2 = a0 + 0xffffffffffffff80\n 28944: a0 = 0xffffffffffffffff\n 28947: a1 = 0xffffffffffffffff\n 28950: ra = 1158, jump @2101\n      : @1076 [@dyn 579] (gas: 38)\n 28956: a4 = u64 [s1 + 0x1b8]\n 28960: a2 = a4 <u 0x80\n 28964: a3 = u64 [s1 + 0x158]\n 28968: a0 = a3 if a2 != 0\n 28971: a5 = u64 [s1 + 0x160]\n 28975: a3 = u64 [s1 + 0x170]\n 28979: a3 = a3 | a5\n 28982: a3 = a1 if a2 == 0\n 28985: a0 = 0xffffffffffffffff if a4 == 0\n 28988: a3 = 0xffffffffffffffff if a4 == 0\n 28991: a5 = 0 if a2 == 0\n 28993: a4 = u64 [s1 + 0x168]\n 28997: a4 = 0 if a2 == 0\n 28999: a1 = u64 [s1 + 0x198]\n 29003: a1 = a1 & ~a3\n 29006: a2 = u64 [s1 + 0x1a0]\n 29010: a0 = a2 & ~a0\n 29013: a2 = u64 [s1 + 0x1a8]\n 29017: a2 = a2 & ~a4\n 29020: a3 = u64 [s1 + 0x1b0]\n 29024: a3 = a3 & ~a5\n 29027: a5 = s1 + 0x100\n 29031: a4 = u64 [a5 + 0x78]\n 29034: a0 = a0 | a4\n 29037: a4 = u64 [a5 + 0x80]\n 29041: a1 = a1 | a4\n 29044: a4 = u64 [a5 + 0x88]\n 29048: a3 = a3 | a4\n 29051: a4 = u64 [a5 + 0x90]\n 29055: a2 = a2 | a4\n 29058: a4 = s1 + 0x3998\n 29062: a5 = a4 + 0x500\n 29066: u64 [a5 + 0xf8] = a2\n 29070: u64 [a4 + 0x600] = a3\n 29074: u64 [a5 + 0xf0] = a1\n 29078: u64 [a5 + 0xe8] = a0\n 29082: a0 = 0x3f80\n 29086: fallthrough\n      : @1077 (gas: 3)\n 29087: a1 = s1 + a0\n 29090: a0 = u64 [s1 + 0x58]\n 29093: ra = 1160, jump @28\n      : @1078 [@dyn 580] (gas: 8)\n 29099: a0 = sp + 0xffffffffffffffe0\n 29102: a5 = a0 & 0xffffffffffffffe0\n 29105: sp = a5\n 29107: a1 = u64 [s1 + 0x68]\n 29110: a0 = a1 + 0x2\n 29113: a1 = a0 <u a1\n 29116: a3 = u64 [s1 + 0x70]\n 29119: t0 = 1162, jump @2023\n      : @1079 [@dyn 581] (gas: 13)\n 29125: a1 = u64 [s1 + 0x80]\n 29129: a3 = a3 + a1\n 29132: a1 = a3 <u a1\n 29135: a4 = u64 [s1 + 0x78]\n 29138: a1 = a1 + a4\n 29141: u64 [s1 + 0x1b8] = a5\n 29145: u64 [a5 + 0x10] = a3\n 29148: u64 [a5 + 0x8] = a2\n 29151: u64 [a5] = a0\n 29153: u64 [a5 + 0x18] = a1\n 29156: a0 = s1 + 0x27c0\n 29160: a1 = u64 [s1 + 0x88]\n 29164: ra = 1164, jump @22\n      : @1080 [@dyn 582] (gas: 7)\n 29170: a0 = s1 + 0x2178\n 29174: a0 = u64 [a0 + 0x648]\n 29178: a0 = a0 & 0xffffffffffffffff\n 29181: u64 [s1 + 0x1b0] = a0\n 29185: a0 = s1 + 0x27a0\n 29189: a1 = u64 [s1 + 0x1b8]\n 29193: ra = 1166, jump @26\n      : @1081 [@dyn 583] (gas: 15)\n 29199: a2 = s1 + 0x2178\n 29203: a3 = a2 + 0x600\n 29207: a0 = u64 [a3 + 0x40]\n 29210: a1 = u64 [a3 + 0x38]\n 29213: a2 = u64 [a3 + 0x30]\n 29216: a3 = s1 + 0x3998\n 29220: a4 = u64 [s1 + 0x1b0]\n 29224: a5 = a3 + 0x600\n 29228: u64 [a5 + 0x8] = a4\n 29231: u64 [a5 + 0x20] = a0\n 29234: u64 [a5 + 0x18] = a1\n 29237: u64 [a5 + 0x10] = a2\n 29240: a1 = s1 + 0x3fa0\n 29244: a0 = u64 [s1 + 0x1b8]\n 29248: ra = 1168, jump @28\n      : @1082 [@dyn 584] (gas: 3)\n 29254: a0 = s1 + 0x2780\n 29258: a1 = u64 [s1 + 0x40]\n 29261: ra = 1170, jump @22\n      : @1083 [@dyn 585] (gas: 14)\n 29267: a3 = s1 + 0x2178\n 29271: a4 = a3 + 0x600\n 29275: a0 = u64 [a4 + 0x20]\n 29278: a1 = u64 [a4 + 0x10]\n 29281: a2 = u64 [a4 + 0x18]\n 29284: a3 = u64 [a4 + 0x8]\n 29287: a0 = a0 | a1\n 29290: a2 = a2 | a3\n 29293: a0 = a0 | a2\n 29296: a0 = a0 >u 0\n 29298: u64 [s1 + 0x1b0] = a0\n 29302: a0 = s1 + 0x2760\n 29306: a1 = u64 [s1 + 0x1b8]\n 29310: ra = 1172, jump @26\n      : @1084 [@dyn 586] (gas: 18)\n 29316: a3 = s1 + 0x2178\n 29320: a4 = a3 + 0x500\n 29324: a0 = u64 [a4 + 0xf0]\n 29328: a1 = u64 [a4 + 0xe8]\n 29332: a2 = u64 [a3 + 0x600]\n 29336: a3 = u64 [a4 + 0xf8]\n 29340: a0 = a0 & 0xffffffffffffff00\n 29344: a4 = u64 [s1 + 0x1b0]\n 29348: a0 = a0 | a4\n 29351: a4 = s1 + 0x3998\n 29355: a5 = a4 + 0x600\n 29359: u64 [a5 + 0x40] = a2\n 29362: u64 [a5 + 0x38] = a3\n 29365: u64 [a5 + 0x28] = a1\n 29368: u64 [a5 + 0x30] = a0\n 29371: a1 = s1 + 0x3fc0\n 29375: a0 = u64 [s1 + 0x1b8]\n 29379: ra = 1174, jump @28\n      : @1085 [@dyn 587] (gas: 6)\n 29385: a0 = u64 [s1 + 0xe0]\n 29389: ra = 0x498\n 29393: ecalli 5 // 'caller'\n 29395: a2 = u64 [s1 + 0xf8]\n 29399: t0 = 0x49a\n 29403: jump @1994\n      : @1086 [@dyn 588] (gas: 2)\n 29406: a2 = u64 [s1 + 0xf8]\n 29410: t0 = 1178, jump @1994\n      : @1087 [@dyn 589] (gas: 8)\n 29416: u64 [a2 + 1504] = 0\n 29420: a4 = a2 + 0x500\n 29424: u64 [a4 + 0xd8] = a1\n 29428: u64 [a4 + 0xd0] = a0\n 29432: a1 = s1 + 0x2740\n 29436: u64 [a4 + 0xc8] = a3\n 29440: a0 = 0\n 29442: ra = 1180, jump @24\n      : @1088 [@dyn 590] (gas: 3)\n 29448: t0 = 0x49e\n 29452: a1 = s1 + 0x2178\n 29456: fallthrough\n      : @1089 [@dyn 591] (gas: 8)\n 29457: u64 [a1 + 1472] = 0\n 29461: u64 [a1 + 1464] = 0\n 29465: u64 [a1 + 1448] = 0x1\n 29470: a2 = a1\n 29472: a0 = 0x20\n 29475: a1 = s1 + 0x2720\n 29479: u64 [a2 + 1456] = 0\n 29483: ra = 1184, jump @24\n      : @1090 [@dyn 592] (gas: 7)\n 29489: a0 = sp + 0xffffffffffffffe0\n 29492: a0 = a0 & 0xffffffffffffffe0\n 29495: u64 [s1 + 0x1b8] = a0\n 29499: sp = a0\n 29501: a0 = u64 [s1 + 0xc8]\n 29505: a0 = i32 [a0]\n 29507: jump @1092 if a0 >u 63\n      : @1091 (gas: 4)\n 29511: a1 = u64 [s1 + 0xc8]\n 29515: u32 [a1 + 0] = 0x40\n 29518: t0 = 0x4a2\n 29522: jump @2075\n      : @1092 (gas: 1)\n 29525: t0 = 1186, jump @2075\n      : @1093 [@dyn 593] (gas: 5)\n 29531: ra = 0x4a4\n 29535: ecalli 9 // 'hash_keccak_256'\n 29537: a3 = u64 [s1 + 0x1b0]\n 29541: t0 = 0x4a6\n 29545: jump @1996\n      : @1094 [@dyn 594] (gas: 2)\n 29548: a3 = u64 [s1 + 0x1b0]\n 29552: t0 = 1190, jump @1996\n      : @1095 [@dyn 595] (gas: 7)\n 29558: a1 = u64 [s1 + 0x1b8]\n 29562: u64 [a1] = a4\n 29564: u64 [a1 + 0x8] = a5\n 29567: u64 [a1 + 0x10] = a2\n 29570: u64 [a1 + 0x18] = a0\n 29573: a0 = s1 + 0x2700\n 29577: ra = 1192, jump @26\n      : @1096 [@dyn 596] (gas: 3)\n 29583: t0 = 0x4aa\n 29587: a2 = s1 + 0x2178\n 29591: fallthrough\n      : @1097 [@dyn 597] (gas: 10)\n 29592: a0 = u64 [a2 + 0x588]\n 29596: a1 = u64 [s1 + 0x90]\n 29600: a0 = a0 & a1\n 29603: u64 [a2 + 1376] = 0\n 29607: u64 [a2 + 1368] = 0\n 29611: u64 [a2 + 0x548] = a0\n 29615: a0 = s1 + 0x26e0\n 29619: a1 = s1 + 0x26c0\n 29623: u64 [a2 + 1360] = 0\n 29627: ra = 1196, jump @1984\n      : @1098 [@dyn 598] (gas: 13)\n 29633: a0 = s1 + 0x2178\n 29637: a2 = a0 + 0x500\n 29641: a1 = u64 [a2 + 0x80]\n 29645: u64 [s1 + 0x1b0] = a1\n 29649: a1 = u64 [a2 + 0x78]\n 29652: u64 [s1 + 0x1a8] = a1\n 29656: a1 = u64 [a2 + 0x70]\n 29659: u64 [s1 + 0x1a0] = a1\n 29663: a1 = u64 [a2 + 0x68]\n 29666: u64 [s1 + 0x198] = a1\n 29670: a0 = s1 + 0x26a0\n 29674: a1 = u64 [s1 + 0x1b8]\n 29678: ra = 1198, jump @26\n      : @1099 [@dyn 599] (gas: 28)\n 29684: a3 = s1 + 0x2178\n 29688: a4 = a3 + 0x500\n 29692: a0 = u64 [a4 + 0x40]\n 29695: a1 = u64 [a4 + 0x38]\n 29698: a2 = u64 [a4 + 0x30]\n 29701: a3 = u64 [a4 + 0x28]\n 29704: a0 = a0 & 0xffffffffffffffff\n 29707: a1 = a1 & 0xffffffffffffffff\n 29710: a2 = a2 & 0xffffffffffffffff\n 29713: a4 = u64 [s1 + 0x98]\n 29717: a3 = a3 & a4\n 29720: a4 = u64 [s1 + 0x198]\n 29724: a3 = a3 | a4\n 29727: a4 = u64 [s1 + 0x1a0]\n 29731: a2 = a2 | a4\n 29734: a4 = u64 [s1 + 0x1a8]\n 29738: a1 = a1 | a4\n 29741: a4 = u64 [s1 + 0x1b0]\n 29745: a0 = a0 | a4\n 29748: a4 = s1 + 0x3998\n 29752: a5 = a4 + 0x600\n 29756: u64 [a5 + 0x60] = a0\n 29759: u64 [a5 + 0x58] = a1\n 29762: u64 [a5 + 0x50] = a2\n 29765: u64 [a5 + 0x48] = a3\n 29768: a1 = s1 + 0x3fe0\n 29772: a0 = u64 [s1 + 0x1b8]\n 29776: ra = 1200, jump @28\n      : @1100 [@dyn 600] (gas: 3)\n 29782: a0 = s1 + 0x2680\n 29786: a1 = 0x40\n 29789: ra = 1202, jump @22\n      : @1101 [@dyn 601] (gas: 2)\n 29795: a1 = s1 + 0x2178\n 29799: fallthrough\n      : @1102 (gas: 18)\n 29800: a4 = a1 + 0x500\n 29804: a0 = u64 [a4 + 0x20]\n 29807: a2 = u64 [a4 + 0x18]\n 29810: a3 = u64 [a4 + 0x10]\n 29813: a1 = u64 [a4 + 0x8]\n 29816: a4 = s1 + 0x100\n 29820: u64 [a4 + 0xa0] = a0\n 29824: u64 [a4 + 0xb0] = a3\n 29828: a0 = a0 | a3\n 29831: u64 [a4 + 0xb8] = a1\n 29835: a1 = a1 | a2\n 29838: a1 = a1 | a0\n 29841: a1 = a1 >> 0x20\n 29844: u64 [a4 + 0xa8] = a2\n 29848: a0 = a0 | a2\n 29851: a0 = a0 << 0x20\n 29854: a0 = a0 | a1\n 29857: jump @1050 if a0 != 0\n      : @1103 (gas: 3)\n 29861: t0 = 0x4b4\n 29865: a2 = s1 + 0x2178\n 29869: fallthrough\n      : @1104 [@dyn 602] (gas: 7)\n 29870: u64 [a2 + 1280] = 0\n 29874: u64 [a2 + 1272] = 0\n 29878: u64 [a2 + 1264] = 0\n 29882: a1 = s1 + 0x2660\n 29886: u64 [a2 + 1256] = 0x20\n 29891: a0 = u64 [s1 + 0x1b8]\n 29895: ra = 1206, jump @24\n      : @1105 [@dyn 603] (gas: 5)\n 29901: a3 = s1 + 0x100\n 29905: a0 = u64 [a3 + 0xa8]\n 29909: a1 = u64 [a3 + 0xa0]\n 29913: a2 = a0 | a1\n 29916: t0 = 1208, jump @2095\n      : @1106 [@dyn 604] (gas: 3)\n 29922: u64 [a3 + 0x90] = a2\n 29926: a0 = 0 if a2 != 0\n 29928: jump @1050 if a0 == 0\n      : @1107 (gas: 14)\n 29932: a0 = u64 [s1 + 0x1b8]\n 29936: i32 a0 = a0 + 0x20\n 29939: a2 = s1 + 0x2178\n 29943: a1 = u64 [s1 + 0xd8]\n 29947: a4 = a2 + 0x400\n 29951: u64 [a4 + 0xc8] = a1\n 29955: a1 = u64 [s1 + 0x100]\n 29959: u64 [a4 + 0xd0] = a1\n 29963: a1 = u64 [s1 + 0x108]\n 29967: u64 [a4 + 0xd8] = a1\n 29971: a1 = s1 + 0x2640\n 29975: a3 = u64 [s1 + 0xd0]\n 29979: u64 [a4 + 0xe0] = a3\n 29983: ra = 1210, jump @24\n      : @1108 [@dyn 605] (gas: 9)\n 29989: a0 = u64 [s1 + 0x198]\n 29993: a0 = a0 + 0xffffffffffffffdc\n 29996: a1 = u64 [s1 + 0xe8]\n 30000: a0 = a1 <u a0\n 30003: a1 = u64 [s1 + 0xf0]\n 30007: a0 = 0 if a1 != 0\n 30009: a1 = u64 [s1 + 0xb8]\n 30013: a0 = 0 if a1 != 0\n 30015: jump @1050 if a0 == 0\n      : @1109 (gas: 10)\n 30019: a1 = 0xffffffc0\n 30029: a2 = s1 + 0x100\n 30033: a0 = u64 [a2 + 0xb8]\n 30037: u64 [a2 + 0x98] = a1\n 30041: a0 = a0 <u a1\n 30044: a1 = u64 [a2 + 0xb0]\n 30048: a0 = 0 if a1 != 0\n 30050: a1 = u64 [a2 + 0x90]\n 30054: a0 = 0 if a1 != 0\n 30056: jump @1050 if a0 == 0\n      : @1110 (gas: 4)\n 30060: a0 = u64 [s1 + 0x1b8]\n 30064: i32 a0 = a0 + 0x40\n 30067: a1 = u64 [s1 + 0xb0]\n 30071: ra = 1212, jump @37\n      : @1111 [@dyn 606] (gas: 6)\n 30077: i32 a0 = a0 + 0\n 30079: a1 = u64 [s1 + 0xb0]\n 30083: a2 = u64 [s1 + 0xa8]\n 30087: ra = 0x4be\n 30091: ecalli 2 // 'call_data_copy'\n 30093: fallthrough\n      : @1112 [@dyn 607] (gas: 8)\n 30094: a1 = u64 [s1 + 0xd8]\n 30098: a0 = u64 [s1 + 0x1b8]\n 30102: a0 = a0 + a1\n 30105: a1 = a0 <u a1\n 30108: a4 = u64 [s1 + 0x100]\n 30112: a2 = u64 [s1 + 0x1b0]\n 30116: a2 = a2 + a4\n 30119: t0 = 1216, jump @2057\n      : @1113 [@dyn 608] (gas: 17)\n 30125: a1 = u64 [s1 + 0xd0]\n 30129: a3 = u64 [s1 + 0x1a0]\n 30133: a1 = a1 + a3\n 30136: a5 = u64 [s1 + 0x108]\n 30140: a3 = u64 [s1 + 0x1a8]\n 30144: a3 = a3 + a5\n 30147: a5 = a3 <u a5\n 30150: a1 = a1 + a5\n 30153: a4 = a4 + a3\n 30156: a3 = a4 <u a3\n 30159: a1 = a1 + a3\n 30162: a1 = a1 | a4\n 30165: a3 = u64 [s1 + 0x198]\n 30169: a3 = a0 <u a3\n 30172: a3 = 0 if a2 != 0\n 30174: a3 = 0 if a1 != 0\n 30176: jump @1050 if a3 == 0\n      : @1114 (gas: 8)\n 30180: i32 a0 = a0 + 0x40\n 30183: a2 = s1 + 0x2178\n 30187: u64 [a2 + 1216] = 0\n 30191: u64 [a2 + 1208] = 0\n 30195: u64 [a2 + 1200] = 0\n 30199: a1 = s1 + 0x2620\n 30203: u64 [a2 + 1192] = 0\n 30207: ra = 1218, jump @24\n      : @1115 [@dyn 609] (gas: 6)\n 30213: a0 = u64 [s1 + 0xe0]\n 30217: ra = 0x4c4\n 30221: ecalli 5 // 'caller'\n 30223: a2 = u64 [s1 + 0xf8]\n 30227: t0 = 0x4c6\n 30231: jump @1999\n      : @1116 [@dyn 610] (gas: 2)\n 30234: a2 = u64 [s1 + 0xf8]\n 30238: t0 = 1222, jump @1999\n      : @1117 [@dyn 611] (gas: 39)\n 30244: t0 = a1 | a0\n 30247: a3 = a3 >> 0x20\n 30250: a1 = reverse a2\n 30252: a2 = a1 << 0x20\n 30255: t1 = a2 | a3\n 30258: t2 = a1 >> 0x20\n 30261: a1 = u64 [s1 + 0xd8]\n 30265: a1 = a1 + 0x1f\n 30268: a1 = a1 & 0xe0\n 30272: a1 = a1 + 0x40\n 30275: a4 = u64 [0x20020]\n 30280: a5 = u64 [0x20028]\n 30285: a0 = u64 [0x20030]\n 30290: a2 = u64 [0x20038]\n 30295: a3 = s1 + 0x2178\n 30299: u64 [a3 + 0x4a0] = a4\n 30303: a4 = a3 + 0x400\n 30307: u64 [a4 + 0x98] = a5\n 30311: u64 [a4 + 0x90] = a0\n 30315: u64 [a4 + 0x88] = a2\n 30319: a5 = s1 + 0x100\n 30323: a0 = u64 [a5 + 0x28]\n 30326: u64 [a4 + 0x60] = a0\n 30329: a0 = u64 [a5 + 0x20]\n 30332: u64 [a4 + 0x58] = a0\n 30335: a0 = u64 [a5 + 0x18]\n 30338: u64 [a4 + 0x50] = a0\n 30341: a0 = u64 [a5 + 0x10]\n 30344: u64 [a4 + 0x48] = a0\n 30347: u64 [a3 + 0x478] = t2\n 30351: u64 [a3 + 0x470] = t1\n 30355: u64 [a3 + 0x468] = t0\n 30359: a0 = a3\n 30361: a2 = s1 + 0x2600\n 30365: a3 = s1 + 0x25e0\n 30369: a4 = s1 + 0x25c0\n 30373: u64 [a0 + 1152] = 0\n 30377: a0 = u64 [a5 + 0xb8]\n 30381: ra = 1224, jump @31\n      : @1118 [@dyn 612] (gas: 3)\n 30387: a0 = s1 + 0x25a0\n 30391: a1 = 0x40\n 30394: ra = 1226, jump @22\n      : @1119 [@dyn 613] (gas: 7)\n 30400: a3 = s1 + 0x2178\n 30404: a5 = a3 + 0x400\n 30408: a0 = u64 [a5 + 0x40]\n 30411: a1 = u64 [a5 + 0x38]\n 30414: a2 = u64 [a5 + 0x30]\n 30417: a4 = u64 [a5 + 0x28]\n 30420: t0 = 1228, jump @2044\n      : @1120 [@dyn 614] (gas: 1)\n 30426: jump @1050 if a0 != 0\n      : @1121 (gas: 17)\n 30430: a3 = a4\n 30432: a0 = s1 + 0x2178\n 30436: a4 = s1 + 0x100\n 30440: a1 = u64 [a4 + 0x10]\n 30443: a5 = a0 + 0x400\n 30447: u64 [a5 + 0x8] = a1\n 30450: a1 = u64 [a4 + 0x18]\n 30453: u64 [a5 + 0x10] = a1\n 30456: a1 = u64 [a4 + 0x20]\n 30459: u64 [a5 + 0x18] = a1\n 30462: a1 = s1 + 0x2580\n 30466: a2 = u64 [a4 + 0x28]\n 30469: u64 [a5 + 0x20] = a2\n 30472: a0 = a3\n 30474: u64 [s1 + 0x1b8] = a3\n 30478: ra = 0x342\n 30482: jump @24\n      : @1122 (gas: 8)\n 30485: a0 = s1 + 0x2998\n 30489: u64 [a0 + 1240] = 0\n 30493: u64 [a0 + 1232] = 0\n 30497: u64 [a0 + 1224] = 0\n 30501: a2 = a0\n 30503: t0 = 0x4ce\n 30507: a0 = 0x4e487b7100000000\n 30517: fallthrough\n      : @1123 [@dyn 615] (gas: 4)\n 30518: a1 = s1 + 0x2e60\n 30522: u64 [a2 + 0x4e0] = a0\n 30526: a0 = 0\n 30528: ra = 1232, jump @24\n      : @1124 [@dyn 616] (gas: 3)\n 30534: t0 = 0x4d2\n 30538: a1 = s1 + 0x2998\n 30542: fallthrough\n      : @1125 [@dyn 617] (gas: 8)\n 30543: u64 [a1 + 1216] = 0\n 30547: u64 [a1 + 1208] = 0\n 30551: u64 [a1 + 1192] = 0x11\n 30556: a2 = a1\n 30558: a0 = 0x4\n 30561: a1 = s1 + 0x2e40\n 30565: u64 [a2 + 1200] = 0\n 30569: ra = 1236, jump @24\n      : @1126 [@dyn 618] (gas: 3)\n 30575: a0 = u64 [s1 + 0x198]\n 30579: a0 = i32 [a0]\n 30581: jump @1128 if a0 >u 63\n      : @1127 (gas: 3)\n 30585: a1 = u64 [s1 + 0x198]\n 30589: u32 [a1 + 0] = 0x40\n 30592: fallthrough\n      : @1128 (gas: 5)\n 30593: a0 = 0x1\n 30596: a2 = 0x24\n 30599: a1 = u64 [s1 + 0x190]\n 30603: ecalli 14 // 'seal_return'\n 30605: fallthrough\n      : @1129 (gas: 9)\n 30606: a0 = s1 + 0x7ff\n 30610: a0 = a0 + 0x139\n 30614: u64 [a0 + 1912] = 0\n 30618: u64 [a0 + 1904] = 0\n 30622: u64 [a0 + 1896] = 0\n 30626: a2 = a0\n 30628: t0 = 0x4d6\n 30632: a0 = 0x4e487b7100000000\n 30642: fallthrough\n      : @1130 [@dyn 619] (gas: 4)\n 30643: a1 = s1 + 0x10a0\n 30647: u64 [a2 + 0x780] = a0\n 30651: a0 = 0\n 30653: ra = 1240, jump @24\n      : @1131 [@dyn 620] (gas: 10)\n 30659: a1 = s1 + 0x7ff\n 30663: a1 = a1 + 0x139\n 30667: u64 [a1 + 1888] = 0\n 30671: u64 [a1 + 1880] = 0\n 30675: u64 [a1 + 1864] = 0x11\n 30680: a2 = a1\n 30682: a0 = 0x4\n 30685: a1 = s1 + 0x1080\n 30689: u64 [a2 + 1872] = 0\n 30693: ra = 1242, jump @24\n      : @1132 [@dyn 621] (gas: 3)\n 30699: a0 = u64 [s1 + 0x1a8]\n 30703: a0 = i32 [a0]\n 30705: jump @1134 if a0 >u 63\n      : @1133 (gas: 3)\n 30709: a1 = u64 [s1 + 0x1a8]\n 30713: u32 [a1 + 0] = 0x40\n 30716: fallthrough\n      : @1134 (gas: 5)\n 30717: a0 = 0x1\n 30720: a2 = 0x24\n 30723: a1 = u64 [s1 + 0x1b0]\n 30727: ecalli 14 // 'seal_return'\n 30729: fallthrough\n      : @1135 (gas: 4)\n 30730: a1 = 0x20190\n 30735: i32 a1 = a1 + 0\n 30737: a0 = 0x1\n 30740: jump @1329\n      : @1136 (gas: 4)\n 30743: a1 = 0x20190\n 30748: i32 a1 = a1 + 0\n 30750: a0 = 0x1\n 30753: jump @1329\n      : @1137 (gas: 4)\n 30756: a1 = 0x20190\n 30761: i32 a1 = a1 + 0\n 30763: a0 = 0x1\n 30766: jump @1329\n      : @1138 (gas: 4)\n 30769: a1 = 0x20190\n 30774: i32 a1 = a1 + 0\n 30776: a0 = 0x1\n 30779: jump @1329\n      : @1139 (gas: 4)\n 30782: a1 = 0x20190\n 30787: i32 a1 = a1 + 0\n 30789: a0 = 0x1\n 30792: jump @1329\n      : @1140 (gas: 4)\n 30795: a1 = 0x20190\n 30800: i32 a1 = a1 + 0\n 30802: a0 = 0x1\n 30805: jump @1329\n      : @1141 (gas: 4)\n 30808: a1 = 0x20190\n 30813: i32 a1 = a1 + 0\n 30815: a0 = 0x1\n 30818: jump @1329\n      : @1142 (gas: 4)\n 30821: a1 = 0x20190\n 30826: i32 a1 = a1 + 0\n 30828: a0 = 0x1\n 30831: jump @1329\n      : @1143 (gas: 3)\n 30834: t0 = 0x4dc\n 30838: a2 = s1 + 0x2178\n 30842: fallthrough\n      : @1144 [@dyn 622] (gas: 8)\n 30843: u64 [a2 + 888] = 0\n 30847: u64 [a2 + 880] = 0\n 30851: a0 = 0xbe29e9600000000\n 30861: u64 [a2 + 0x380] = a0\n 30865: a1 = s1 + 0x24e0\n 30869: u64 [a2 + 872] = 0\n 30873: a0 = 0\n 30875: ra = 1246, jump @24\n      : @1145 [@dyn 623] (gas: 2)\n 30881: a1 = i32 [0x20180]\n 30886: jump @1147 if a1 >u 31\n      : @1146 (gas: 3)\n 30890: u32 [0x20180] = 0x20\n 30896: a1 = 0x20190\n 30901: jump @1227\n      : @1147 (gas: 2)\n 30904: a1 = 0x20190\n 30909: jump @1227\n      : @1148 (gas: 3)\n 30912: t0 = 0x4e0\n 30916: a2 = s1 + 0x2178\n 30920: fallthrough\n      : @1149 [@dyn 624] (gas: 8)\n 30921: u64 [a2 + 920] = 0\n 30925: u64 [a2 + 912] = 0\n 30929: a0 = 0xcc67c13b00000000\n 30939: u64 [a2 + 0x3a0] = a0\n 30943: a1 = s1 + 0x2500\n 30947: u64 [a2 + 904] = 0\n 30951: a0 = 0\n 30953: ra = 1250, jump @24\n      : @1150 [@dyn 625] (gas: 2)\n 30959: a1 = i32 [0x20180]\n 30964: jump @1152 if a1 >u 31\n      : @1151 (gas: 3)\n 30968: u32 [0x20180] = 0x20\n 30974: a1 = 0x20190\n 30979: jump @1227\n      : @1152 (gas: 2)\n 30982: a1 = 0x20190\n 30987: jump @1227\n      : @1153 (gas: 4)\n 30990: a1 = 0x20190\n 30995: i32 a1 = a1 + 0\n 30997: a0 = 0x1\n 31000: jump @1329\n      : @1154 (gas: 9)\n 31003: a2 = s1 + 0x2998\n 31007: u64 [a2 + 856] = 0\n 31011: u64 [a2 + 848] = 0\n 31015: a0 = 0x2c5211c600000000\n 31025: u64 [a2 + 0x360] = a0\n 31029: a1 = s1 + 0x2ce0\n 31033: u64 [a2 + 840] = 0\n 31037: a0 = 0\n 31039: ra = 1252, jump @24\n      : @1155 [@dyn 626] (gas: 2)\n 31045: a1 = i32 [0x20180]\n 31050: jump @1157 if a1 >u 31\n      : @1156 (gas: 3)\n 31054: u32 [0x20180] = 0x20\n 31060: a1 = 0x20190\n 31065: jump @1227\n      : @1157 (gas: 2)\n 31068: a1 = 0x20190\n 31073: jump @1227\n      : @1158 (gas: 4)\n 31076: a1 = 0x20190\n 31081: i32 a1 = a1 + 0\n 31083: a0 = 0x1\n 31086: jump @1329\n      : @1159 (gas: 4)\n 31089: a1 = 0x20190\n 31094: i32 a1 = a1 + 0\n 31096: a0 = 0x1\n 31099: jump @1329\n      : @1160 (gas: 4)\n 31102: a1 = 0x20190\n 31107: i32 a1 = a1 + 0\n 31109: a0 = 0x1\n 31112: jump @1329\n      : @1161 (gas: 4)\n 31115: a1 = 0x20190\n 31120: i32 a1 = a1 + 0\n 31122: a0 = 0x1\n 31125: jump @1329\n      : @1162 (gas: 4)\n 31128: a1 = 0x20190\n 31133: i32 a1 = a1 + 0\n 31135: a0 = 0x1\n 31138: jump @1329\n      : @1163 (gas: 4)\n 31141: a1 = 0x20190\n 31146: i32 a1 = a1 + 0\n 31148: a0 = 0x1\n 31151: jump @1329\n      : @1164 (gas: 4)\n 31154: a1 = 0x20190\n 31159: i32 a1 = a1 + 0\n 31161: a0 = 0x1\n 31164: jump @1329\n      : @1165 (gas: 4)\n 31167: a1 = 0x20190\n 31172: i32 a1 = a1 + 0\n 31174: a0 = 0x1\n 31177: jump @1329\n      : @1166 (gas: 4)\n 31180: a1 = 0x20190\n 31185: i32 a1 = a1 + 0\n 31187: a0 = 0x1\n 31190: jump @1329\n      : @1167 (gas: 4)\n 31193: a1 = 0x20190\n 31198: i32 a1 = a1 + 0\n 31200: a0 = 0x1\n 31203: jump @1329\n      : @1168 (gas: 4)\n 31206: a1 = 0x20190\n 31211: i32 a1 = a1 + 0\n 31213: a0 = 0x1\n 31216: jump @1329\n      : @1169 (gas: 4)\n 31219: a1 = 0x20190\n 31224: i32 a1 = a1 + 0\n 31226: a0 = 0x1\n 31229: jump @1329\n      : @1170 (gas: 4)\n 31232: a1 = 0x20190\n 31237: i32 a1 = a1 + 0\n 31239: a0 = 0x1\n 31242: jump @1329\n      : @1171 (gas: 4)\n 31245: a1 = 0x20190\n 31250: i32 a1 = a1 + 0\n 31252: a0 = 0x1\n 31255: jump @1329\n      : @1172 (gas: 4)\n 31258: a1 = 0x20190\n 31263: i32 a1 = a1 + 0\n 31265: a0 = 0x1\n 31268: jump @1329\n      : @1173 (gas: 4)\n 31271: a1 = 0x20190\n 31276: i32 a1 = a1 + 0\n 31278: a0 = 0x1\n 31281: jump @1329\n      : @1174 (gas: 4)\n 31284: a1 = 0x20190\n 31289: i32 a1 = a1 + 0\n 31291: a0 = 0x1\n 31294: jump @1329\n      : @1175 (gas: 8)\n 31297: u64 [s1 + 1520] = 0\n 31301: u64 [s1 + 1512] = 0\n 31305: u64 [s1 + 1504] = 0\n 31309: a0 = 0x2c5211c600000000\n 31319: a1 = s1 + 0x5e0\n 31323: u64 [s1 + 0x5f8] = a0\n 31327: a0 = 0\n 31329: ra = 1254, jump @24\n      : @1176 [@dyn 627] (gas: 2)\n 31335: a1 = i32 [0x20180]\n 31340: jump @1178 if a1 >u 31\n      : @1177 (gas: 3)\n 31344: u32 [0x20180] = 0x20\n 31350: a1 = 0x20190\n 31355: jump @1227\n      : @1178 (gas: 2)\n 31358: a1 = 0x20190\n 31363: jump @1227\n      : @1179 (gas: 9)\n 31366: u64 [s1 + 1552] = 0\n 31370: u64 [s1 + 1544] = 0\n 31374: u64 [s1 + 1536] = 0\n 31378: a0 = 0xf4d678b800000000\n 31388: a1 = s1 + 0x600\n 31392: u64 [s1 + 0x618] = a0\n 31396: a0 = 0\n 31398: ra = 0x4f0\n 31402: jump @24\n      : @1180 (gas: 9)\n 31405: u64 [s1 + 1712] = 0\n 31409: u64 [s1 + 1704] = 0\n 31413: u64 [s1 + 1696] = 0\n 31417: a0 = 0x90b8ec1800000000\n 31427: a1 = s1 + 0x6a0\n 31431: u64 [s1 + 0x6b8] = a0\n 31435: a0 = 0\n 31437: ra = 0x4f0\n 31441: jump @24\n      : @1181 (gas: 1)\n 31444: jump @1232 if a0 != 2618616686\n      : @1182 (gas: 11)\n 31452: a0 = s1 + 0x3998\n 31456: u64 [a0 + 928] = 0\n 31460: u64 [a0 + 920] = 0\n 31464: u64 [a0 + 912] = 0\n 31468: u64 [a0 + 904] = 0\n 31472: a0 = s1 + 0x4000\n 31476: i32 a0 = a0 + 0xfffffffffffffd20\n 31480: ra = 0x4e8\n 31484: ecalli 17 // 'value_transferred'\n 31486: t0 = 0x4ea\n 31490: jump @2093\n      : @1183 [@dyn 628] (gas: 1)\n 31493: t0 = 1258, jump @2093\n      : @1184 [@dyn 629] (gas: 1)\n 31499: t0 = 1260, jump @2086\n      : @1185 [@dyn 630] (gas: 1)\n 31505: jump @1255 if a0 == 0\n      : @1186 (gas: 4)\n 31509: a1 = 0x20190\n 31514: i32 a1 = a1 + 0\n 31516: a0 = 0x1\n 31519: jump @1329\n      : @1187 (gas: 4)\n 31522: a1 = 0x20190\n 31527: i32 a1 = a1 + 0\n 31529: a0 = 0x1\n 31532: jump @1329\n      : @1188 (gas: 4)\n 31535: a1 = 0x20190\n 31540: i32 a1 = a1 + 0\n 31542: a0 = 0x1\n 31545: jump @1329\n      : @1189 (gas: 4)\n 31548: a1 = 0x20190\n 31553: i32 a1 = a1 + 0\n 31555: a0 = 0x1\n 31558: jump @1329\n      : @1190 (gas: 4)\n 31561: a1 = 0x20190\n 31566: i32 a1 = a1 + 0\n 31568: a0 = 0x1\n 31571: jump @1329\n      : @1191 (gas: 4)\n 31574: a1 = 0x20190\n 31579: i32 a1 = a1 + 0\n 31581: a0 = 0x1\n 31584: jump @1329\n      : @1192 (gas: 4)\n 31587: a1 = 0x20190\n 31592: i32 a1 = a1 + 0\n 31594: a0 = 0x1\n 31597: jump @1329\n      : @1193 (gas: 4)\n 31600: a1 = 0x20190\n 31605: i32 a1 = a1 + 0\n 31607: a0 = 0x1\n 31610: jump @1329\n      : @1194 (gas: 4)\n 31613: a1 = 0x20190\n 31618: i32 a1 = a1 + 0\n 31620: a0 = 0x1\n 31623: jump @1329\n      : @1195 (gas: 4)\n 31626: a1 = 0x20190\n 31631: i32 a1 = a1 + 0\n 31633: a0 = 0x1\n 31636: jump @1329\n      : @1196 (gas: 4)\n 31639: a1 = 0x20190\n 31644: i32 a1 = a1 + 0\n 31646: a0 = 0x1\n 31649: jump @1329\n      : @1197 (gas: 8)\n 31652: u64 [s1 + 1968] = 0\n 31656: u64 [s1 + 1960] = 0\n 31660: u64 [s1 + 1952] = 0\n 31664: a0 = 0x2c5211c600000000\n 31674: a1 = s1 + 0x7a0\n 31678: u64 [s1 + 0x7b8] = a0\n 31682: a0 = 0\n 31684: ra = 1262, jump @24\n      : @1198 [@dyn 631] (gas: 2)\n 31690: a1 = i32 [0x20180]\n 31695: jump @1200 if a1 >u 31\n      : @1199 (gas: 3)\n 31699: u32 [0x20180] = 0x20\n 31705: a1 = 0x20190\n 31710: jump @1227\n      : @1200 (gas: 2)\n 31713: a1 = 0x20190\n 31718: jump @1227\n      : @1201 (gas: 9)\n 31721: u64 [s1 + 2000] = 0\n 31725: u64 [s1 + 1992] = 0\n 31729: u64 [s1 + 1984] = 0\n 31733: a0 = 0xf4d678b800000000\n 31743: a1 = s1 + 0x7c0\n 31747: u64 [s1 + 0x7d8] = a0\n 31751: a0 = 0\n 31753: ra = 0x4f0\n 31757: jump @24\n      : @1202 (gas: 13)\n 31760: a0 = s1 + 0x1000\n 31764: u64 [a0 + 4294965360] = 0\n 31768: a0 = s1 + 0x1000\n 31772: u64 [a0 + 4294965352] = 0\n 31776: a0 = s1 + 0x1000\n 31780: u64 [a0 + 4294965344] = 0\n 31784: a0 = 0x90b8ec1800000000\n 31794: a1 = s1 + 0x7ff\n 31798: a1 = a1 + 0x61\n 31801: a2 = s1 + 0x1000\n 31805: u64 [a2 + 0xfffffffffffff878] = a0\n 31809: a0 = 0\n 31811: ra = 1264, jump @24\n      : @1203 [@dyn 632] (gas: 3)\n 31817: a0 = u64 [s1 + 0x160]\n 31821: a0 = i32 [a0]\n 31823: jump @1205 if a0 >u 31\n      : @1204 (gas: 3)\n 31827: a1 = u64 [s1 + 0x160]\n 31831: u32 [a1 + 0] = 0x20\n 31834: fallthrough\n      : @1205 (gas: 5)\n 31835: a0 = 0x1\n 31838: a2 = 0x4\n 31841: a1 = u64 [s1 + 0x168]\n 31845: ecalli 14 // 'seal_return'\n 31847: fallthrough\n      : @1206 (gas: 4)\n 31848: a1 = 0x20190\n 31853: i32 a1 = a1 + 0\n 31855: a0 = 0x1\n 31858: jump @1329\n      : @1207 (gas: 4)\n 31861: a1 = 0x20190\n 31866: i32 a1 = a1 + 0\n 31868: a0 = 0x1\n 31871: jump @1329\n      : @1208 (gas: 3)\n 31874: t0 = 0x4f2\n 31878: a2 = s1 + 0x1958\n 31882: fallthrough\n      : @1209 [@dyn 633] (gas: 8)\n 31883: u64 [a2 + 56] = 0\n 31886: u64 [a2 + 48] = 0\n 31889: a0 = 0x2c5211c600000000\n 31899: u64 [a2 + 0x40] = a0\n 31902: a1 = s1 + 0x1980\n 31906: u64 [a2 + 40] = 0\n 31909: a0 = 0\n 31911: ra = 1268, jump @24\n      : @1210 [@dyn 634] (gas: 2)\n 31917: a1 = i32 [0x20180]\n 31922: jump @1212 if a1 >u 31\n      : @1211 (gas: 3)\n 31926: u32 [0x20180] = 0x20\n 31932: a1 = 0x20190\n 31937: jump @1227\n      : @1212 (gas: 2)\n 31940: a1 = 0x20190\n 31945: jump @1227\n      : @1213 (gas: 8)\n 31948: u64 [a4 + 88] = 0\n 31951: u64 [a4 + 80] = 0\n 31954: a0 = 0xf4d678b800000000\n 31964: u64 [a4 + 0x60] = a0\n 31967: a1 = s1 + 0x19a0\n 31971: u64 [a4 + 72] = 0\n 31974: a0 = 0\n 31976: ra = 1270, jump @24\n      : @1214 [@dyn 635] (gas: 3)\n 31982: a0 = u64 [s1 + 0x168]\n 31986: a0 = i32 [a0]\n 31988: jump @1216 if a0 >u 31\n      : @1215 (gas: 3)\n 31992: a1 = u64 [s1 + 0x168]\n 31996: u32 [a1 + 0] = 0x20\n 31999: fallthrough\n      : @1216 (gas: 5)\n 32000: a0 = 0x1\n 32003: a2 = 0x4\n 32006: a1 = u64 [s1 + 0x178]\n 32010: ecalli 14 // 'seal_return'\n 32012: fallthrough\n      : @1217 (gas: 4)\n 32013: a1 = 0x20190\n 32018: i32 a1 = a1 + 0\n 32020: a0 = 0x1\n 32023: jump @1329\n      : @1218 (gas: 4)\n 32026: a1 = 0x20190\n 32031: i32 a1 = a1 + 0\n 32033: a0 = 0x1\n 32036: jump @1329\n      : @1219 (gas: 4)\n 32039: a1 = 0x20190\n 32044: i32 a1 = a1 + 0\n 32046: a0 = 0x1\n 32049: jump @1329\n      : @1220 (gas: 4)\n 32052: a1 = 0x20190\n 32057: i32 a1 = a1 + 0\n 32059: a0 = 0x1\n 32062: jump @1329\n      : @1221 (gas: 4)\n 32065: a1 = 0x20190\n 32070: i32 a1 = a1 + 0\n 32072: a0 = 0x1\n 32075: jump @1329\n      : @1222 (gas: 4)\n 32078: a1 = 0x20190\n 32083: i32 a1 = a1 + 0\n 32085: a0 = 0x1\n 32088: jump @1329\n      : @1223 (gas: 9)\n 32091: a2 = s1 + 0x1158\n 32095: u64 [a2 + 536] = 0\n 32099: u64 [a2 + 528] = 0\n 32103: a0 = 0xd5b25b6300000000\n 32113: u64 [a2 + 0x220] = a0\n 32117: a1 = s1 + 0x1360\n 32121: u64 [a2 + 520] = 0\n 32125: a0 = 0\n 32127: ra = 1272, jump @24\n      : @1224 [@dyn 636] (gas: 2)\n 32133: a1 = i32 [0x20180]\n 32138: jump @1226 if a1 >u 31\n      : @1225 (gas: 3)\n 32142: u32 [0x20180] = 0x20\n 32148: a1 = 0x20190\n 32153: jump @1227\n      : @1226 (gas: 2)\n 32155: a1 = 0x20190\n 32160: fallthrough\n      : @1227 (gas: 5)\n 32161: i32 a1 = a1 + 0\n 32163: a0 = 0x1\n 32166: a2 = 0x4\n 32169: ecalli 14 // 'seal_return'\n 32171: fallthrough\n      : @1228 (gas: 12)\n 32172: a0 = u64 [s1 + 0x130]\n 32176: a1 = u64 [s1 + 0x158]\n 32180: a1 = a1 & a0\n 32183: i32 a0 = a2 + 0x20\n 32186: a3 = s1 + 0x7ff\n 32190: a3 = a3 + 0x139\n 32194: u64 [a3 + 1792] = 0\n 32198: u64 [a3 + 1784] = 0\n 32202: u64 [a3 + 0x6e8] = a1\n 32206: a1 = s1 + 0x1020\n 32210: u64 [a3 + 1776] = 0\n 32214: ra = 1274, jump @24\n      : @1229 [@dyn 637] (gas: 6)\n 32220: a0 = u64 [s1 + 0x168]\n 32224: ra = 0x4fc\n 32228: ecalli 5 // 'caller'\n 32230: a2 = u64 [s1 + 0x170]\n 32234: t0 = 0x4fe\n 32238: jump @1999\n      : @1230 [@dyn 638] (gas: 2)\n 32241: a2 = u64 [s1 + 0x170]\n 32245: t0 = 1278, jump @1999\n      : @1231 [@dyn 639] (gas: 36)\n 32251: t0 = a1 | a0\n 32254: a3 = a3 >> 0x20\n 32257: a2 = reverse a2\n 32259: a1 = a2 << 0x20\n 32262: t1 = a1 | a3\n 32265: a2 = a2 >> 0x20\n 32268: a3 = u64 [0x200c0]\n 32273: a4 = u64 [0x200c8]\n 32278: a5 = u64 [0x200d0]\n 32283: a0 = u64 [s1 + 0x140]\n 32287: a1 = s1 + 0x7ff\n 32291: a1 = a1 + 0x139\n 32295: u64 [a1 + 0x688] = a0\n 32299: a0 = a1 + 0x600\n 32303: u64 [a0 + 0xe0] = a3\n 32307: u64 [a0 + 0xd8] = a4\n 32311: u64 [a0 + 0xd0] = a5\n 32315: a3 = u64 [0x200d8]\n 32320: u64 [a1 + 1696] = 0\n 32324: u64 [a1 + 1688] = 0\n 32328: u64 [a1 + 1680] = 0\n 32332: u64 [a0 + 0xc8] = a3\n 32336: u64 [a0 + 0xb8] = a2\n 32340: u64 [a1 + 0x6b0] = t1\n 32344: u64 [a1 + 0x6a8] = t0\n 32348: a0 = a1\n 32350: a1 = 0x40\n 32353: a2 = s1 + 0x1000\n 32357: a3 = s1 + 0x7ff\n 32361: a3 = a3 + 0x7e1\n 32365: a4 = s1 + 0x7ff\n 32369: a4 = a4 + 0x7c1\n 32373: u64 [a0 + 1728] = 0\n 32377: a0 = u64 [s1 + 0x1b8]\n 32381: ra = 0x600\n 32385: jump @31\n      : @1232 (gas: 1)\n 32388: jump @1238 if a0 != 2685688103\n      : @1233 (gas: 11)\n 32395: a0 = s1 + 0x3998\n 32399: u64 [a0 + 960] = 0\n 32403: u64 [a0 + 952] = 0\n 32407: u64 [a0 + 944] = 0\n 32411: u64 [a0 + 936] = 0\n 32415: a0 = s1 + 0x4000\n 32419: i32 a0 = a0 + 0xfffffffffffffd40\n 32423: ra = 0x500\n 32427: ecalli 17 // 'value_transferred'\n 32429: t0 = 0x502\n 32433: jump @2093\n      : @1234 [@dyn 640] (gas: 1)\n 32436: t0 = 1282, jump @2093\n      : @1235 [@dyn 641] (gas: 1)\n 32442: t0 = 1284, jump @2056\n      : @1236 [@dyn 642] (gas: 1)\n 32448: jump @1257 if a0 == 0\n      : @1237 (gas: 4)\n 32452: a1 = 0x20190\n 32457: i32 a1 = a1 + 0\n 32459: a0 = 0x1\n 32462: jump @1329\n      : @1238 (gas: 1)\n 32465: jump @1259 if a0 != 3058722618\n      : @1239 (gas: 10)\n 32473: a0 = s1 + 0x3998\n 32477: u64 [a0 + 1088] = 0\n 32481: u64 [a0 + 1080] = 0\n 32485: u64 [a0 + 1072] = 0\n 32489: u64 [a0 + 1064] = 0\n 32493: a0 = s1 + 0x4000\n 32497: i32 a0 = a0 + 0xfffffffffffffdc0\n 32501: ra = 0x506\n 32505: ecalli 17 // 'value_transferred'\n 32507: fallthrough\n      : @1240 [@dyn 643] (gas: 3)\n 32508: a3 = s1 + 0x3998\n 32512: a4 = a3 + 0x400\n 32516: t0 = 1288, jump @2097\n      : @1241 [@dyn 644] (gas: 1)\n 32522: jump @1264 if a0 == 0\n      : @1242 (gas: 4)\n 32526: a1 = 0x20190\n 32531: i32 a1 = a1 + 0\n 32533: a0 = 0x1\n 32536: jump @1329\n      : @1243 (gas: 2)\n 32539: u64 [s1 + 376] = 0\n 32543: fallthrough\n      : @1244 (gas: 5)\n 32544: a0 = u64 [s1 + 0x188]\n 32548: a0 = a0 << 0x1\n 32551: a4 = u64 [s1 + 0x178]\n 32555: a4 = a4 | a0\n 32558: fallthrough\n      : @1245 (gas: 7)\n 32559: u64 [s1 + 1016] = 0\n 32563: u64 [s1 + 1008] = 0\n 32567: u64 [s1 + 1000] = 0\n 32571: a1 = s1 + 0x3e0\n 32575: u64 [s1 + 0x3e0] = a4\n 32579: a0 = u64 [s1 + 0x138]\n 32583: ra = 1290, jump @24\n      : @1246 [@dyn 645] (gas: 3)\n 32589: a1 = 0x20\n 32592: a0 = u64 [s1 + 0x138]\n 32596: ra = 1292, jump @37\n      : @1247 [@dyn 646] (gas: 5)\n 32602: i32 a1 = a0 + 0\n 32604: a2 = 0x20\n 32607: a0 = 0\n 32609: ecalli 14 // 'seal_return'\n 32611: jump @1249\n      : @1248 (gas: 4)\n 32613: a2 = 0x20\n 32616: a0 = 0\n 32618: ecalli 14 // 'seal_return'\n 32620: fallthrough\n      : @1249 (gas: 8)\n 32621: u64 [a2 + 984] = 0\n 32625: u64 [a2 + 976] = 0\n 32629: u64 [a2 + 968] = 0\n 32633: a0 = 0x4e487b7100000000\n 32643: a1 = s1 + 0x2540\n 32647: u64 [a2 + 0x3e0] = a0\n 32651: a0 = 0\n 32653: ra = 1294, jump @24\n      : @1250 [@dyn 647] (gas: 3)\n 32659: t0 = 0x510\n 32663: a1 = s1 + 0x2178\n 32667: fallthrough\n      : @1251 [@dyn 648] (gas: 8)\n 32668: u64 [a1 + 960] = 0\n 32672: u64 [a1 + 952] = 0\n 32676: u64 [a1 + 936] = 0x41\n 32681: a2 = a1\n 32683: a0 = 0x4\n 32686: a1 = s1 + 0x2520\n 32690: u64 [a2 + 944] = 0\n 32694: ra = 1298, jump @24\n      : @1252 [@dyn 649] (gas: 3)\n 32700: a0 = u64 [s1 + 0xc8]\n 32704: a0 = i32 [a0]\n 32706: jump @1254 if a0 >u 63\n      : @1253 (gas: 3)\n 32710: a1 = u64 [s1 + 0xc8]\n 32714: u32 [a1 + 0] = 0x40\n 32717: fallthrough\n      : @1254 (gas: 5)\n 32718: a0 = 0x1\n 32721: a2 = 0x24\n 32724: a1 = u64 [s1 + 0xc0]\n 32728: ecalli 14 // 'seal_return'\n 32730: fallthrough\n      : @1255 (gas: 3)\n 32731: a0 = u64 [s1 + 0x1b8]\n 32735: a0 = i32 [a0]\n 32737: jump @1267 if a0 >u 99\n      : @1256 (gas: 4)\n 32742: a1 = 0x20190\n 32747: i32 a1 = a1 + 0\n 32749: a0 = 0x1\n 32752: jump @1329\n      : @1257 (gas: 3)\n 32755: a0 = u64 [s1 + 0x1b8]\n 32759: a0 = i32 [a0]\n 32761: jump @1272 if a0 >u 67\n      : @1258 (gas: 4)\n 32766: a1 = 0x20190\n 32771: i32 a1 = a1 + 0\n 32773: a0 = 0x1\n 32776: jump @1329\n      : @1259 (gas: 1)\n 32779: jump @1323 if a0 != 235423050\n      : @1260 (gas: 11)\n 32787: a0 = s1 + 0x3198\n 32791: u64 [a0 + 1312] = 0\n 32795: u64 [a0 + 1304] = 0\n 32799: u64 [a0 + 1296] = 0\n 32803: u64 [a0 + 1288] = 0\n 32807: a0 = s1 + 0x3000\n 32811: i32 a0 = a0 + 0x6a0\n 32815: ra = 0x514\n 32819: ecalli 17 // 'value_transferred'\n 32821: t0 = 0x516\n 32825: jump @2090\n      : @1261 [@dyn 650] (gas: 1)\n 32828: t0 = 1302, jump @2090\n      : @1262 [@dyn 651] (gas: 8)\n 32834: a0 = u64 [a4 + 0x18]\n 32837: a1 = u64 [a4 + 0x20]\n 32840: a2 = u64 [a4 + 0x10]\n 32843: a3 = u64 [a4 + 0x8]\n 32846: a1 = a1 | a2\n 32849: a0 = a0 | a3\n 32852: a0 = a0 | a1\n 32855: jump @1330 if a0 == 0\n      : @1263 (gas: 4)\n 32859: a1 = 0x20190\n 32864: i32 a1 = a1 + 0\n 32866: a0 = 0x1\n 32869: jump @1329\n      : @1264 (gas: 1)\n 32872: t0 = 1304, jump @2045\n      : @1265 [@dyn 652] (gas: 1)\n 32878: jump @1333 if a1 <u a0\n      : @1266 (gas: 4)\n 32882: a1 = 0x20190\n 32887: i32 a1 = a1 + 0\n 32889: a0 = 0x1\n 32892: jump @1329\n      : @1267 (gas: 4)\n 32895: a0 = s1 + 0x1e80\n 32899: ra = 0x51a\n 32903: t0 = 0x6b8\n 32907: jump @2079\n      : @1268 [@dyn 653] (gas: 14)\n 32910: a1 = s1 + 0x1958\n 32914: a2 = a1 + 0x500\n 32918: a0 = u64 [a2 + 0x28]\n 32921: u64 [s1 + 0x1b8] = a0\n 32925: a0 = u64 [a2 + 0x30]\n 32928: u64 [s1 + 0x1b0] = a0\n 32932: a0 = u64 [a2 + 0x38]\n 32935: u64 [s1 + 0x1a8] = a0\n 32939: a0 = u64 [a2 + 0x40]\n 32942: u64 [s1 + 0x1a0] = a0\n 32946: a0 = s1 + 0x1e60\n 32950: ra = 0x51c\n 32954: t0 = 0x6bc\n 32958: jump @2074\n      : @1269 [@dyn 654] (gas: 12)\n 32961: a1 = s1 + 0x1958\n 32965: a2 = a1 + 0x500\n 32969: a0 = u64 [a2 + 0x8]\n 32972: u64 [s1 + 0x198] = a0\n 32976: a0 = u64 [a2 + 0x10]\n 32979: u64 [s1 + 0x190] = a0\n 32983: a0 = u64 [a2 + 0x18]\n 32986: u64 [s1 + 0x188] = a0\n 32990: a0 = u64 [a2 + 0x20]\n 32993: u64 [s1 + 0x180] = a0\n 32997: a0 = s1 + 0x1e40\n 33001: ra = 1310, jump @1596\n      : @1270 [@dyn 655] (gas: 31)\n 33007: a4 = s1 + 0x1958\n 33011: a5 = a4 + 0x400\n 33015: a0 = u64 [a5 + 0xe8]\n 33019: a1 = u64 [a5 + 0xf0]\n 33023: a2 = u64 [a5 + 0xf8]\n 33027: a3 = u64 [a4 + 0x500]\n 33031: u64 [a5 + 0xa0] = a3\n 33035: u64 [a5 + 0x98] = a2\n 33039: u64 [a5 + 0x90] = a1\n 33043: u64 [a5 + 0x88] = a0\n 33047: a4 = s1 + 0x100\n 33051: a0 = u64 [a4 + 0x80]\n 33055: u64 [a5 + 0xc0] = a0\n 33059: a0 = u64 [a4 + 0x88]\n 33063: u64 [a5 + 0xb8] = a0\n 33067: a0 = u64 [a4 + 0x90]\n 33071: u64 [a5 + 0xb0] = a0\n 33075: a0 = u64 [a4 + 0x98]\n 33079: u64 [a5 + 0xa8] = a0\n 33083: a0 = u64 [a4 + 0xa0]\n 33087: u64 [a5 + 0xe0] = a0\n 33091: a0 = u64 [a4 + 0xa8]\n 33095: u64 [a5 + 0xd8] = a0\n 33099: a0 = u64 [a4 + 0xb0]\n 33103: u64 [a5 + 0xd0] = a0\n 33107: a0 = s1 + 0x1e20\n 33111: a1 = s1 + 0x1e00\n 33115: a2 = s1 + 0x1de0\n 33119: a3 = u64 [a4 + 0xb8]\n 33123: u64 [a5 + 0xc8] = a3\n 33127: ra = 1312, jump @1869\n      : @1271 [@dyn 656] (gas: 8)\n 33133: a1 = 0x20190\n 33138: i32 a1 = a1 + 0\n 33140: a0 = 0\n 33142: a2 = 0\n 33144: ra = 0x570\n 33148: ecalli 14 // 'seal_return'\n 33150: t0 = 0x572\n 33154: jump @2045\n      : @1272 (gas: 4)\n 33157: a0 = s1 + 0x2200\n 33161: ra = 0x522\n 33165: t0 = 0x6d4\n 33169: jump @2079\n      : @1273 [@dyn 657] (gas: 7)\n 33172: a0 = s1 + 0x2178\n 33176: a0 = u64 [a0 + 0x88]\n 33180: u64 [s1 + 0x1b0] = a0\n 33184: a0 = s1 + 0x21e0\n 33188: ra = 0x524\n 33192: t0 = 0x6bc\n 33196: jump @2074\n      : @1274 [@dyn 658] (gas: 12)\n 33199: a0 = s1 + 0x2178\n 33203: a0 = u64 [a0 + 0x68]\n 33206: u64 [s1 + 0x110] = a0\n 33210: a0 = 0x30190\n 33215: u64 [s1 + 0x128] = a0\n 33219: i32 a0 = a0 + 0\n 33221: u64 [s1 + 0x120] = a0\n 33225: ra = 0x526\n 33229: ecalli 5 // 'caller'\n 33231: a2 = u64 [s1 + 0x128]\n 33235: t0 = 0x528\n 33239: jump @1994\n      : @1275 [@dyn 659] (gas: 2)\n 33242: a2 = u64 [s1 + 0x128]\n 33246: t0 = 1320, jump @1994\n      : @1276 [@dyn 660] (gas: 7)\n 33252: u64 [a2 + 96] = 0\n 33255: u64 [a2 + 0x58] = a1\n 33258: u64 [a2 + 0x50] = a0\n 33261: a1 = s1 + 0x21c0\n 33265: u64 [a2 + 0x48] = a3\n 33268: a0 = 0\n 33270: ra = 1322, jump @24\n      : @1277 [@dyn 661] (gas: 9)\n 33276: a1 = s1 + 0x2178\n 33280: u64 [a1 + 64] = 0\n 33283: u64 [a1 + 56] = 0\n 33286: u64 [a1 + 40] = 0x2\n 33290: a2 = a1\n 33292: a0 = 0x20\n 33295: a1 = s1 + 0x21a0\n 33299: u64 [a2 + 48] = 0\n 33302: ra = 1324, jump @24\n      : @1278 [@dyn 662] (gas: 5)\n 33309: a0 = 0x20180\n 33314: u64 [s1 + 0x138] = a0\n 33318: a0 = i32 [0x20180]\n 33323: a1 = 0x3f\n 33326: jump @1280 if a1 <u a0\n      : @1279 (gas: 4)\n 33329: a1 = u64 [s1 + 0x138]\n 33333: u32 [a1 + 0] = 0x40\n 33336: t0 = 0x52e\n 33340: jump @2016\n      : @1280 (gas: 1)\n 33343: t0 = 1326, jump @2016\n      : @1281 [@dyn 663] (gas: 10)\n 33349: a0 = 0x20190\n 33354: i32 a0 = a0 + 0\n 33356: i32 a2 = a2 + 0\n 33358: a1 = 0x40\n 33361: u64 [s1 + 0x130] = a0\n 33365: ra = 0x530\n 33369: ecalli 9 // 'hash_keccak_256'\n 33371: a3 = u64 [s1 + 0x1b8]\n 33375: t0 = 0x532\n 33379: jump @2021\n      : @1282 [@dyn 664] (gas: 2)\n 33382: a3 = u64 [s1 + 0x1b8]\n 33386: t0 = 1330, jump @2021\n      : @1283 [@dyn 665] (gas: 14)\n 33392: u64 [s1 + 0x1b8] = a0\n 33396: sp = a0\n 33398: a0 = u64 [s1 + 0x1b0]\n 33402: a0 = a0 << 0x20\n 33405: a2 = a0 >> 0x20\n 33408: a0 = s1 + 0x2178\n 33412: u64 [a0 + 32] = 0\n 33415: u64 [a0 + 24] = 0\n 33418: u64 [a0 + 16] = 0\n 33421: a1 = s1 + 0x2180\n 33425: u64 [s1 + 0x118] = a2\n 33429: u64 [a0 + 0x8] = a2\n 33432: a0 = 0\n 33434: ra = 1332, jump @24\n      : @1284 [@dyn 666] (gas: 13)\n 33441: a0 = u64 [s1 + 0x190]\n 33445: a1 = s1 + 0x2178\n 33449: u64 [a1] = a0\n 33451: a0 = u64 [s1 + 0x198]\n 33455: u64 [a1 + 0xfffffffffffffff8] = a0\n 33458: a0 = u64 [s1 + 0x1a0]\n 33462: u64 [a1 + 0xfffffffffffffff0] = a0\n 33465: a3 = a1\n 33467: a0 = 0x20\n 33470: a1 = s1 + 0x2160\n 33474: a2 = u64 [s1 + 0x1a8]\n 33478: u64 [a3 + 0xffffffffffffffe8] = a2\n 33481: ra = 1334, jump @24\n      : @1285 [@dyn 667] (gas: 3)\n 33488: a0 = u64 [s1 + 0x138]\n 33492: a0 = i32 [a0]\n 33494: jump @1287 if a0 >u 63\n      : @1286 (gas: 4)\n 33498: a0 = u64 [s1 + 0x138]\n 33502: u32 [a0 + 0] = 0x40\n 33505: t0 = 0x538\n 33509: jump @2005\n      : @1287 (gas: 1)\n 33512: t0 = 1336, jump @2005\n      : @1288 [@dyn 668] (gas: 4)\n 33518: ra = 0x53a\n 33522: ecalli 9 // 'hash_keccak_256'\n 33524: t0 = 0x53c\n 33528: jump @2029\n      : @1289 [@dyn 669] (gas: 1)\n 33531: t0 = 1340, jump @2029\n      : @1290 [@dyn 670] (gas: 1)\n 33537: t0 = 1342, jump @2065\n      : @1291 [@dyn 671] (gas: 6)\n 33543: a0 = u64 [s1 + 0x120]\n 33547: ra = 0x540\n 33551: ecalli 5 // 'caller'\n 33553: a2 = u64 [s1 + 0x128]\n 33557: t0 = 0x542\n 33561: jump @2078\n      : @1292 [@dyn 672] (gas: 2)\n 33564: a2 = u64 [s1 + 0x128]\n 33568: t0 = 1346, jump @2078\n      : @1293 [@dyn 673] (gas: 10)\n 33574: u64 [s1 + 0x1b0] = a1\n 33578: a0 = a0 >> 0x20\n 33581: a1 = reverse a2\n 33583: u64 [s1 + 0x1a8] = a1\n 33587: a1 = a1 << 0x20\n 33590: a0 = a0 | a1\n 33593: u64 [s1 + 0x1a0] = a0\n 33597: a0 = s1 + 0x2140\n 33601: a1 = u64 [s1 + 0x1b8]\n 33605: ra = 1348, jump @26\n      : @1294 [@dyn 674] (gas: 2)\n 33612: a2 = s1 + 0x1958\n 33616: fallthrough\n      : @1295 (gas: 19)\n 33617: a0 = u64 [a2 + 0x7f0]\n 33621: a1 = u32 [a2 + 0x7ec]\n 33625: a2 = u64 [a2 + 0x7f8]\n 33629: a3 = a0 << 0x20\n 33632: a1 = a1 | a3\n 33635: a3 = a2 << 0x20\n 33638: a0 = a0 >> 0x20\n 33641: a0 = a0 | a3\n 33644: a4 = s1 + 0x100\n 33648: a3 = u64 [a4 + 0xa0]\n 33652: a0 = a0 ^ a3\n 33655: a3 = u64 [a4 + 0xb0]\n 33659: a1 = a1 ^ a3\n 33662: a3 = u64 [a4 + 0xa8]\n 33666: a2 = a2 ^ a3\n 33669: a2 = a2 >> 0x20\n 33672: a1 = a1 | a2\n 33675: a0 = a0 | a1\n 33678: jump @1375 if a0 != 0\n      : @1296 (gas: 4)\n 33682: a0 = s1 + 0x4000\n 33686: i32 a0 = a0 + 0xfffffffffffffd60\n 33690: ecalli 10 // 'now'\n 33692: fallthrough\n      : @1297 (gas: 51)\n 33693: a0 = s1 + 0x3998\n 33697: t0 = u64 [a0 + 0x3e0]\n 33701: a4 = u64 [a0 + 0x3d8]\n 33705: u64 [s1 + 0x178] = a4\n 33709: t2 = u64 [a0 + 0x3d0]\n 33713: a3 = u64 [a0 + 0x3c8]\n 33717: u64 [s1 + 0x160] = a3\n 33721: a0 = clz t0\n 33723: a1 = clz a4\n 33725: a2 = a1 + 0x40\n 33728: a2 = a0 if t0 != 0\n 33731: a0 = clz t2\n 33733: a1 = clz a3\n 33735: a1 = a1 + 0x40\n 33738: a1 = a0 if t2 != 0\n 33741: a0 = a1 + 0x80\n 33745: a3 = a4 | t0\n 33748: a2 = a0 if a3 == 0\n 33751: a5 = a0 <u a1\n 33754: a5 = 0 if a3 != 0\n 33756: a4 = a5 >u 0\n 33758: a0 = a2 <u 0xf0\n 33762: a3 = a0 ^ 0x1\n 33765: a4 = a3 if a5 == 0\n 33768: a0 = a4 <u 0x1\n 33771: ra = a0 + 0xffffffffffffffff\n 33774: t1 = -a4\n 33776: a5 = -a5\n 33778: a3 = a5 - a3\n 33781: a2 = 0xef - a2\n 33785: a5 = t1 >u 0\n 33787: a0 = ra >u 0\n 33789: a0 = a5 if ra == 0\n 33792: a5 = a2 <u 0x100\n 33796: a5 = a5 ^ 0x1\n 33799: a1 = a3 >u 0\n 33801: a5 = a1 if a3 != 0\n 33804: a5 = a0 if a4 != 0\n 33807: u64 [s1 + 0x158] = t2\n 33811: u64 [s1 + 0x170] = t0\n 33815: a0 = t2 | t0\n 33818: a4 = u64 [s1 + 0x160]\n 33822: a1 = u64 [s1 + 0x178]\n 33826: a1 = a1 | a4\n 33829: a0 = a0 | a1\n 33832: a0 = a0 <u 0x1\n 33835: a0 = a0 | a5\n 33838: a1 = a4\n 33840: a1 = 0 if a0 != 0\n 33842: u64 [s1 + 0x1b8] = a1\n 33846: jump @1379 if a0 != 0\n      : @1298 (gas: 5)\n 33850: a0 = a2 ^ 0xff\n 33854: a0 = a0 | t1\n 33857: a1 = a3 | ra\n 33860: a0 = a0 | a1\n 33863: jump @1379 if a0 == 0\n      : @1299 (gas: 1)\n 33867: t0 = 1350, jump @2007\n      : @1300 [@dyn 675] (gas: 1)\n 33873: ra = 1352, jump @2101\n      : @1301 [@dyn 676] (gas: 1)\n 33879: t0 = 1354, jump @2091\n      : @1302 [@dyn 677] (gas: 1)\n 33885: ra = 1356, jump @2106\n      : @1303 [@dyn 678] (gas: 1)\n 33891: t0 = 1358, jump @2073\n      : @1304 [@dyn 679] (gas: 1)\n 33897: ra = 1360, jump @2106\n      : @1305 [@dyn 680] (gas: 8)\n 33903: u64 [s1 + 0x140] = a0\n 33907: u64 [s1 + 0x108] = a1\n 33911: a2 = u64 [s1 + 0x180]\n 33915: a0 = a2 <u 0x80\n 33919: u64 [s1 + 0x100] = a0\n 33923: a0 = u64 [s1 + 0x160]\n 33927: a1 = u64 [s1 + 0x158]\n 33931: ra = 1362, jump @2106\n      : @1306 [@dyn 681] (gas: 1)\n 33937: t0 = 1364, jump @2087\n      : @1307 [@dyn 682] (gas: 4)\n 33943: a3 = u64 [a4]\n 33945: a0 = 0 if a3 == 0\n 33947: u64 [a4 + 0x98] = a0\n 33951: jump @1377 if a1 == 0\n      : @1308 (gas: 7)\n 33955: a2 = a3\n 33957: a0 = u64 [s1 + 0x188]\n 33961: a1 = u64 [s1 + 0x148]\n 33965: a0 = a0 | a1\n 33968: a5 = a3\n 33970: a1 = u64 [s1 + 0x108]\n 33974: t0 = 1366, jump @2000\n      : @1309 [@dyn 683] (gas: 1)\n 33980: ra = 1368, jump @2101\n      : @1310 [@dyn 684] (gas: 1)\n 33986: t0 = 1370, jump @2092\n      : @1311 [@dyn 685] (gas: 1)\n 33992: ra = 1372, jump @2101\n      : @1312 [@dyn 686] (gas: 2)\n 33998: u64 [s1 + 0x108] = a0\n 34002: t0 = 1374, jump @2072\n      : @1313 [@dyn 687] (gas: 1)\n 34008: ra = 1376, jump @2106\n      : @1314 [@dyn 688] (gas: 1)\n 34014: t0 = 1378, jump @2036\n      : @1315 [@dyn 689] (gas: 2)\n 34020: a1 = u64 [s1 + 0x108]\n 34024: t0 = 1380, jump @2046\n      : @1316 [@dyn 690] (gas: 1)\n 34030: ra = 1382, jump @2101\n      : @1317 [@dyn 691] (gas: 1)\n 34036: t0 = 1384, jump @2017\n      : @1318 [@dyn 692] (gas: 1)\n 34042: t0 = 1386, jump @2034\n      : @1319 [@dyn 693] (gas: 5)\n 34048: t0 = ra <u a2\n 34051: a4 = u64 [s1 + 0x148]\n 34055: a5 = a4 <u a3\n 34058: a5 = t0 if t1 != 0\n 34061: t0 = 1388, jump @2035\n      : @1320 [@dyn 694] (gas: 20)\n 34067: t0 = a0 | a1\n 34070: a1 = a4 << 0x1\n 34073: a4 = u64 [s1 + 0x190]\n 34077: t1 = a4 >> 0x3f\n 34080: t1 = a1 | t1\n 34083: a1 = a4 << 0x1\n 34086: a4 = u64 [s1 + 0x198]\n 34090: t2 = a4 >> 0x3f\n 34093: a1 = a1 | t2\n 34096: a4 = a4 << 0x1\n 34099: a0 = u64 [s1 + 0x178]\n 34103: a4 = a4 | a0\n 34106: u64 [s1 + 0x198] = a4\n 34110: a0 = u64 [s1 + 0x170]\n 34114: a1 = a1 | a0\n 34117: u64 [s1 + 0x190] = a1\n 34121: a1 = a0 | t1\n 34124: u64 [s1 + 0x180] = a1\n 34128: a0 = a0 | t0\n 34131: t0 = 1390, jump @1997\n      : @1321 [@dyn 695] (gas: 18)\n 34137: t0 = a4 <u a2\n 34140: a2 = a4 - a2\n 34143: a4 = a3 <u 0x1\n 34146: a5 = a5 - a4\n 34149: a4 = u64 [a0 + 0xa8]\n 34153: a4 = a4 - t0\n 34156: a3 = a3 + 0xffffffffffffffff\n 34159: u64 [a0 + 0xb0] = a5\n 34163: u64 [a0 + 0xa8] = a4\n 34167: t0 = a5 | a4\n 34170: u64 [a0 + 0xb8] = a3\n 34174: a4 = a3 | a2\n 34177: a3 = a4 | t0\n 34180: a4 = ra & 0x1\n 34183: u64 [a0 + 0x78] = a4\n 34186: u64 [a0 + 0xa0] = a2\n 34190: u64 [s1 + 368] = 0\n 34194: jump @1318 if a3 != 0\n      : @1322 (gas: 1)\n 34198: jump @1378\n      : @1323 (gas: 1)\n 34201: jump @1327 if a0 != 1158823118\n      : @1324 (gas: 9)\n 34208: a0 = s1 + 0x3998\n 34212: u64 [a0 + 128] = 0\n 34216: u64 [a0 + 120] = 0\n 34219: u64 [a0 + 112] = 0\n 34222: u64 [a0 + 104] = 0\n 34225: a0 = s1 + 0x4000\n 34229: i32 a0 = a0 + 0xfffffffffffffa00\n 34233: ecalli 17 // 'value_transferred'\n 34235: fallthrough\n      : @1325 (gas: 9)\n 34236: a3 = s1 + 0x3998\n 34240: a0 = u64 [a3 + 0x78]\n 34243: a1 = u64 [a3 + 0x80]\n 34247: a2 = u64 [a3 + 0x70]\n 34250: a3 = u64 [a3 + 0x68]\n 34253: a1 = a1 | a2\n 34256: a0 = a0 | a3\n 34259: a0 = a0 | a1\n 34262: jump @1401 if a0 == 0\n      : @1326 (gas: 4)\n 34266: a1 = 0x20190\n 34271: i32 a1 = a1 + 0\n 34273: a0 = 0x1\n 34276: jump @1329\n      : @1327 (gas: 4)\n 34278: a1 = 0x20190\n 34283: i32 a1 = a1 + 0\n 34285: a0 = 0x1\n 34288: jump @1329\n      : @1328 (gas: 7)\n 34290: i32 a1 = a1 + 0\n 34292: a0 = 0x1\n 34295: a2 = 0\n 34297: ra = 0x570\n 34301: ecalli 14 // 'seal_return'\n 34303: t0 = 0x572\n 34307: jump @2045\n      : @1329 (gas: 5)\n 34310: a2 = 0\n 34312: ra = 0x570\n 34316: ecalli 14 // 'seal_return'\n 34318: t0 = 0x572\n 34322: jump @2045\n      : @1330 [@dyn 696] (gas: 1)\n 34325: t0 = 1394, jump @2045\n      : @1331 [@dyn 697] (gas: 1)\n 34331: jump @1403 if a1 <u a0\n      : @1332 (gas: 2)\n 34335: a1 = 0x20190\n 34340: jump @1328\n      : @1333 (gas: 4)\n 34342: a0 = s1 + 0x24c0\n 34346: ra = 0x574\n 34350: t0 = 0x6d4\n 34354: jump @2079\n      : @1334 [@dyn 698] (gas: 12)\n 34357: a0 = s1 + 0x2178\n 34361: a0 = u64 [a0 + 0x348]\n 34365: u64 [s1 + 0x190] = a0\n 34369: a0 = 0x30190\n 34374: u64 [s1 + 0x1a8] = a0\n 34378: i32 a0 = a0 + 0\n 34380: u64 [s1 + 0x1a0] = a0\n 34384: ra = 0x576\n 34388: ecalli 5 // 'caller'\n 34390: a2 = u64 [s1 + 0x1a8]\n 34394: t0 = 0x578\n 34398: jump @1994\n      : @1335 [@dyn 699] (gas: 2)\n 34401: a2 = u64 [s1 + 0x1a8]\n 34405: t0 = 1400, jump @1994\n      : @1336 [@dyn 700] (gas: 8)\n 34411: u64 [a2 + 832] = 0\n 34415: a4 = a2 + 0x300\n 34419: u64 [a4 + 0x38] = a1\n 34422: u64 [a4 + 0x30] = a0\n 34425: a1 = s1 + 0x24a0\n 34429: u64 [a4 + 0x28] = a3\n 34432: a0 = 0\n 34434: ra = 1402, jump @24\n      : @1337 [@dyn 701] (gas: 3)\n 34441: t0 = 0x57c\n 34445: a1 = s1 + 0x2178\n 34449: fallthrough\n      : @1338 [@dyn 702] (gas: 8)\n 34450: u64 [a1 + 800] = 0\n 34454: u64 [a1 + 792] = 0\n 34458: u64 [a1 + 776] = 0x2\n 34463: a2 = a1\n 34465: a0 = 0x20\n 34468: a1 = s1 + 0x2480\n 34472: u64 [a2 + 784] = 0\n 34476: ra = 1406, jump @24\n      : @1339 [@dyn 703] (gas: 4)\n 34483: a0 = 0x20180\n 34488: u64 [s1 + 0x1b8] = a0\n 34492: a0 = i32 [0x20180]\n 34497: jump @1341 if a0 >u 63\n      : @1340 (gas: 3)\n 34501: a1 = u64 [s1 + 0x1b8]\n 34505: u32 [a1 + 0] = 0x40\n 34508: fallthrough\n      : @1341 (gas: 14)\n 34509: a0 = sp + 0xffffffffffffffe0\n 34512: a2 = a0 & 0xffffffffffffffe0\n 34515: u64 [s1 + 0x198] = a2\n 34519: sp = a2\n 34521: a0 = 0x20190\n 34526: i32 a0 = a0 + 0\n 34528: i32 a2 = a2 + 0\n 34530: a1 = 0x40\n 34533: u64 [s1 + 0x1b0] = a0\n 34537: ra = 0x580\n 34541: ecalli 9 // 'hash_keccak_256'\n 34543: a3 = u64 [s1 + 0x198]\n 34547: t0 = 0x582\n 34551: jump @2020\n      : @1342 [@dyn 704] (gas: 2)\n 34554: a3 = u64 [s1 + 0x198]\n 34558: t0 = 1410, jump @2020\n      : @1343 [@dyn 705] (gas: 14)\n 34564: u64 [s1 + 0x198] = a0\n 34568: sp = a0\n 34570: a0 = u64 [s1 + 0x190]\n 34574: a0 = a0 << 0x20\n 34577: a2 = a0 >> 0x20\n 34580: a0 = s1 + 0x2178\n 34584: u64 [a0 + 768] = 0\n 34588: u64 [a0 + 760] = 0\n 34592: u64 [a0 + 752] = 0\n 34596: a1 = s1 + 0x2460\n 34600: u64 [s1 + 0x190] = a2\n 34604: u64 [a0 + 0x2e8] = a2\n 34608: a0 = 0\n 34610: ra = 1412, jump @24\n      : @1344 [@dyn 706] (gas: 14)\n 34617: a0 = u64 [s1 + 0x170]\n 34621: a1 = s1 + 0x2178\n 34625: a2 = a1 + 0x200\n 34629: u64 [a2 + 0xe0] = a0\n 34633: a0 = u64 [s1 + 0x178]\n 34637: u64 [a2 + 0xd8] = a0\n 34641: a0 = u64 [s1 + 0x180]\n 34645: u64 [a2 + 0xd0] = a0\n 34649: a3 = a1\n 34651: a0 = 0x20\n 34654: a1 = s1 + 0x2440\n 34658: a2 = u64 [s1 + 0x188]\n 34662: u64 [a3 + 0x2c8] = a2\n 34666: ra = 1414, jump @24\n      : @1345 [@dyn 707] (gas: 3)\n 34673: a0 = u64 [s1 + 0x1b8]\n 34677: a0 = i32 [a0]\n 34679: jump @1347 if a0 >u 63\n      : @1346 (gas: 3)\n 34683: a0 = u64 [s1 + 0x1b8]\n 34687: u32 [a0 + 0] = 0x40\n 34690: fallthrough\n      : @1347 (gas: 4)\n 34691: a0 = sp + 0xffffffffffffffe0\n 34694: a0 = a0 & 0xffffffffffffffe0\n 34697: u64 [s1 + 0x188] = a0\n 34701: t0 = 1416, jump @2001\n      : @1348 [@dyn 708] (gas: 5)\n 34707: ra = 0x58a\n 34711: ecalli 9 // 'hash_keccak_256'\n 34713: a3 = u64 [s1 + 0x188]\n 34717: t0 = 0x58c\n 34721: jump @2012\n      : @1349 [@dyn 709] (gas: 2)\n 34724: a3 = u64 [s1 + 0x188]\n 34728: t0 = 1420, jump @2012\n      : @1350 [@dyn 710] (gas: 11)\n 34734: a4 = u64 [s1 + 0x198]\n 34738: u64 [a4 + 0x18] = a3\n 34741: u64 [a4 + 0x10] = a2\n 34744: u64 [a4 + 0x8] = a1\n 34747: u64 [a4] = a0\n 34749: a0 = u64 [s1 + 0x1a0]\n 34753: ra = 0x58e\n 34757: ecalli 5 // 'caller'\n 34759: a2 = u64 [s1 + 0x1a8]\n 34763: t0 = 0x590\n 34767: jump @2078\n      : @1351 [@dyn 711] (gas: 2)\n 34770: a2 = u64 [s1 + 0x1a8]\n 34774: t0 = 1424, jump @2078\n      : @1352 [@dyn 712] (gas: 10)\n 34780: u64 [s1 + 0x188] = a1\n 34784: a0 = a0 >> 0x20\n 34787: a1 = reverse a2\n 34789: u64 [s1 + 0x180] = a1\n 34793: a1 = a1 << 0x20\n 34796: a0 = a0 | a1\n 34799: u64 [s1 + 0x178] = a0\n 34803: a0 = s1 + 0x2420\n 34807: a1 = u64 [s1 + 0x198]\n 34811: ra = 1426, jump @26\n      : @1353 [@dyn 713] (gas: 2)\n 34818: a2 = s1 + 0x2178\n 34822: fallthrough\n      : @1354 (gas: 19)\n 34823: a0 = u64 [a2 + 0x2b0]\n 34827: a1 = u32 [a2 + 0x2ac]\n 34831: a2 = u64 [a2 + 0x2b8]\n 34835: a3 = a0 << 0x20\n 34838: a1 = a1 | a3\n 34841: a3 = a2 << 0x20\n 34844: a0 = a0 >> 0x20\n 34847: a0 = a0 | a3\n 34850: a4 = s1 + 0x100\n 34854: a3 = u64 [a4 + 0x78]\n 34857: a0 = a0 ^ a3\n 34860: a3 = u64 [a4 + 0x88]\n 34864: a1 = a1 ^ a3\n 34867: a3 = u64 [a4 + 0x80]\n 34871: a2 = a2 ^ a3\n 34874: a2 = a2 >> 0x20\n 34877: a1 = a1 | a2\n 34880: a0 = a0 | a1\n 34883: jump @1416 if a0 != 0\n      : @1355 (gas: 6)\n 34887: a0 = u64 [s1 + 0x1a0]\n 34891: ra = 0x594\n 34895: ecalli 5 // 'caller'\n 34897: a2 = u64 [s1 + 0x1a8]\n 34901: t0 = 0x596\n 34905: jump @1994\n      : @1356 [@dyn 714] (gas: 2)\n 34908: a2 = u64 [s1 + 0x1a8]\n 34912: t0 = 1430, jump @1994\n      : @1357 [@dyn 715] (gas: 8)\n 34918: u64 [a2 + 640] = 0\n 34922: a4 = a2 + 0x200\n 34926: u64 [a4 + 0x78] = a1\n 34929: u64 [a4 + 0x70] = a0\n 34932: a1 = s1 + 0x23e0\n 34936: u64 [a4 + 0x68] = a3\n 34939: a0 = 0\n 34941: ra = 1432, jump @24\n      : @1358 [@dyn 716] (gas: 3)\n 34948: t0 = 0x59a\n 34952: a1 = s1 + 0x2178\n 34956: fallthrough\n      : @1359 [@dyn 717] (gas: 8)\n 34957: u64 [a1 + 608] = 0\n 34961: u64 [a1 + 600] = 0\n 34965: u64 [a1 + 584] = 0x2\n 34970: a2 = a1\n 34972: a0 = 0x20\n 34975: a1 = s1 + 0x23c0\n 34979: u64 [a2 + 592] = 0\n 34983: ra = 1436, jump @24\n      : @1360 [@dyn 718] (gas: 3)\n 34990: a0 = u64 [s1 + 0x1b8]\n 34994: a0 = i32 [a0]\n 34996: jump @1362 if a0 >u 63\n      : @1361 (gas: 3)\n 35000: a1 = u64 [s1 + 0x1b8]\n 35004: u32 [a1 + 0] = 0x40\n 35007: fallthrough\n      : @1362 (gas: 4)\n 35008: a0 = sp + 0xffffffffffffffe0\n 35011: a0 = a0 & 0xffffffffffffffe0\n 35014: u64 [s1 + 0x198] = a0\n 35018: t0 = 1438, jump @2001\n      : @1363 [@dyn 719] (gas: 3)\n 35024: ra = 0x5a0\n 35028: ecalli 9 // 'hash_keccak_256'\n 35030: fallthrough\n      : @1364 [@dyn 720] (gas: 8)\n 35031: a3 = u64 [s1 + 0x198]\n 35035: a0 = u64 [a3 + 0x18]\n 35038: a1 = u64 [a3 + 0x10]\n 35041: a2 = u64 [a3 + 0x8]\n 35044: a3 = u64 [a3]\n 35046: a0 = reverse a0\n 35048: u64 [s1 + 0x198] = a0\n 35052: t0 = 1442, jump @2068\n      : @1365 [@dyn 721] (gas: 3)\n 35058: t0 = 0x5a4\n 35062: a2 = s1 + 0x2178\n 35066: fallthrough\n      : @1366 [@dyn 722] (gas: 8)\n 35067: u64 [a2 + 576] = 0\n 35071: u64 [a2 + 568] = 0\n 35075: u64 [a2 + 560] = 0\n 35079: a1 = s1 + 0x23a0\n 35083: a0 = u64 [s1 + 0x190]\n 35087: u64 [a2 + 0x228] = a0\n 35091: a0 = 0\n 35093: ra = 1446, jump @24\n      : @1367 [@dyn 723] (gas: 14)\n 35100: a0 = u64 [s1 + 0x178]\n 35104: a1 = s1 + 0x2178\n 35108: a2 = a1 + 0x200\n 35112: u64 [a2 + 0x20] = a0\n 35115: a0 = u64 [s1 + 0x180]\n 35119: u64 [a2 + 0x18] = a0\n 35122: a0 = u64 [s1 + 0x188]\n 35126: u64 [a2 + 0x10] = a0\n 35129: a3 = a1\n 35131: a0 = 0x20\n 35134: a1 = s1 + 0x2380\n 35138: a2 = u64 [s1 + 0x198]\n 35142: u64 [a3 + 0x208] = a2\n 35146: ra = 1448, jump @24\n      : @1368 [@dyn 724] (gas: 3)\n 35153: a0 = u64 [s1 + 0x1b8]\n 35157: a0 = i32 [a0]\n 35159: jump @1370 if a0 >u 63\n      : @1369 (gas: 3)\n 35163: a0 = u64 [s1 + 0x1b8]\n 35167: u32 [a0 + 0] = 0x40\n 35170: fallthrough\n      : @1370 (gas: 4)\n 35171: a0 = sp + 0xffffffffffffffe0\n 35174: a0 = a0 & 0xffffffffffffffe0\n 35177: u64 [s1 + 0x198] = a0\n 35181: t0 = 1450, jump @2001\n      : @1371 [@dyn 725] (gas: 28)\n 35187: ecalli 9 // 'hash_keccak_256'\n 35189: a3 = u64 [s1 + 0x198]\n 35193: a0 = u64 [a3]\n 35195: a1 = u64 [a3 + 0x8]\n 35198: a2 = u64 [a3 + 0x10]\n 35201: a3 = u64 [a3 + 0x18]\n 35204: t0 = reverse a0\n 35206: a0 = reverse a1\n 35208: a2 = reverse a2\n 35210: a3 = reverse a3\n 35212: a4 = sp + 0xffffffffffffffe0\n 35215: a1 = a4 & 0xffffffffffffffe0\n 35218: sp = a1\n 35220: a4 = a3 + 0x2\n 35223: a3 = a4 <u a3\n 35226: a5 = a2 + a3\n 35229: a2 = a5 <u a2\n 35232: a2 = a3 if a3 == 0\n 35235: a2 = a2 + a0\n 35238: a0 = a2 <u a0\n 35241: a0 = a0 + t0\n 35244: u64 [a1 + 0x8] = a5\n 35247: u64 [a1] = a4\n 35249: u64 [a1 + 0x10] = a2\n 35252: u64 [a1 + 0x18] = a0\n 35255: a0 = s1 + 0x2360\n 35259: u64 [s1 + 0x198] = a1\n 35263: ra = 1452, jump @26\n      : @1372 [@dyn 726] (gas: 4)\n 35270: a0 = s1 + 0x2178\n 35274: a0 = u64 [a0 + 0x1f0]\n 35278: a1 = a0 & 0xff\n 35282: jump @1421 if a1 == 0\n      : @1373 (gas: 3)\n 35286: t0 = 0x5ae\n 35290: a2 = s1 + 0x2178\n 35294: fallthrough\n      : @1374 [@dyn 727] (gas: 9)\n 35295: u64 [a2 + 472] = 0\n 35299: u64 [a2 + 464] = 0\n 35303: a0 = 0xc1c184c800000000\n 35313: u64 [a2 + 0x1e0] = a0\n 35317: a1 = s1 + 0x2340\n 35321: u64 [a2 + 456] = 0\n 35325: a0 = 0\n 35327: ra = 0x5e2\n 35331: jump @24\n      : @1375 (gas: 3)\n 35335: t0 = 0x5b0\n 35339: a2 = s1 + 0x1958\n 35343: fallthrough\n      : @1376 [@dyn 728] (gas: 9)\n 35344: u64 [a2 + 2008] = 0\n 35348: u64 [a2 + 2000] = 0\n 35352: a0 = 0x6f1cf7db00000000\n 35362: u64 [a2 + 0x7e0] = a0\n 35366: a1 = s1 + 0x2120\n 35370: u64 [a2 + 1992] = 0\n 35374: a0 = 0\n 35376: ra = 0x662\n 35380: jump @24\n      : @1377 (gas: 2)\n 35384: u64 [s1 + 376] = 0\n 35388: fallthrough\n      : @1378 (gas: 7)\n 35389: a2 = s1 + 0x100\n 35393: a0 = u64 [a2 + 0x98]\n 35397: a0 = a0 << 0x1\n 35400: a1 = u64 [a2 + 0x78]\n 35403: a0 = a0 | a1\n 35406: u64 [a2 + 0xb8] = a0\n 35410: fallthrough\n      : @1379 (gas: 3)\n 35411: a0 = u64 [s1 + 0x110]\n 35415: a1 = u64 [s1 + 0x1b8]\n 35419: jump @1440 if a0 != a1\n      : @1380 (gas: 6)\n 35423: a0 = u64 [s1 + 0x120]\n 35427: ra = 0x5b2\n 35431: ecalli 5 // 'caller'\n 35433: a2 = u64 [s1 + 0x128]\n 35437: t0 = 0x5b4\n 35441: jump @2003\n      : @1381 [@dyn 729] (gas: 2)\n 35444: a2 = u64 [s1 + 0x128]\n 35448: t0 = 1460, jump @2003\n      : @1382 [@dyn 730] (gas: 8)\n 35454: u64 [a2 + 1952] = 0\n 35458: a4 = a2 + 0x700\n 35462: u64 [a4 + 0x98] = a1\n 35466: u64 [a4 + 0x90] = a0\n 35470: a1 = s1 + 0x20e0\n 35474: u64 [a4 + 0x88] = a3\n 35478: a0 = 0\n 35480: ra = 1462, jump @24\n      : @1383 [@dyn 731] (gas: 3)\n 35487: t0 = 0x5b8\n 35491: a1 = s1 + 0x1958\n 35495: fallthrough\n      : @1384 [@dyn 732] (gas: 8)\n 35496: u64 [a1 + 1920] = 0\n 35500: u64 [a1 + 1912] = 0\n 35504: u64 [a1 + 1896] = 0x2\n 35509: a2 = a1\n 35511: a0 = 0x20\n 35514: a1 = s1 + 0x20c0\n 35518: u64 [a2 + 1904] = 0\n 35522: ra = 1466, jump @24\n      : @1385 [@dyn 733] (gas: 3)\n 35529: a0 = u64 [s1 + 0x138]\n 35533: a0 = i32 [a0]\n 35535: jump @1387 if a0 >u 63\n      : @1386 (gas: 4)\n 35539: a1 = u64 [s1 + 0x138]\n 35543: u32 [a1 + 0] = 0x40\n 35546: t0 = 0x5bc\n 35550: jump @2005\n      : @1387 (gas: 1)\n 35553: t0 = 1468, jump @2005\n      : @1388 [@dyn 734] (gas: 4)\n 35559: ra = 0x5be\n 35563: ecalli 9 // 'hash_keccak_256'\n 35565: t0 = 0x5c0\n 35569: jump @2013\n      : @1389 [@dyn 735] (gas: 1)\n 35572: t0 = 1472, jump @2013\n      : @1390 [@dyn 736] (gas: 8)\n 35578: u64 [a2 + 1888] = 0\n 35582: u64 [a2 + 1880] = 0\n 35586: u64 [a2 + 1872] = 0\n 35590: a1 = s1 + 0x20a0\n 35594: a0 = u64 [s1 + 0x118]\n 35598: u64 [a2 + 0x748] = a0\n 35602: a0 = 0\n 35604: ra = 1474, jump @24\n      : @1391 [@dyn 737] (gas: 14)\n 35611: a0 = u64 [s1 + 0x198]\n 35615: a1 = s1 + 0x1958\n 35619: a2 = a1 + 0x700\n 35623: u64 [a2 + 0x40] = a0\n 35626: a0 = u64 [s1 + 0x1a0]\n 35630: u64 [a2 + 0x38] = a0\n 35633: a0 = u64 [s1 + 0x1a8]\n 35637: u64 [a2 + 0x30] = a0\n 35640: a3 = a1\n 35642: a0 = 0x20\n 35645: a1 = s1 + 0x2080\n 35649: a2 = u64 [s1 + 0x1b0]\n 35653: u64 [a3 + 0x728] = a2\n 35657: ra = 1476, jump @24\n      : @1392 [@dyn 738] (gas: 3)\n 35664: a0 = u64 [s1 + 0x138]\n 35668: a0 = i32 [a0]\n 35670: jump @1394 if a0 >u 63\n      : @1393 (gas: 4)\n 35674: a0 = u64 [s1 + 0x138]\n 35678: u32 [a0 + 0] = 0x40\n 35681: t0 = 0x5c6\n 35685: jump @2005\n      : @1394 (gas: 1)\n 35688: t0 = 1478, jump @2005\n      : @1395 [@dyn 739] (gas: 5)\n 35694: ra = 0x5c8\n 35698: ecalli 9 // 'hash_keccak_256'\n 35700: a3 = u64 [s1 + 0x1b0]\n 35704: t0 = 0x5ca\n 35708: jump @2015\n      : @1396 [@dyn 740] (gas: 2)\n 35711: a3 = u64 [s1 + 0x1b0]\n 35715: t0 = 1482, jump @2015\n      : @1397 [@dyn 741] (gas: 9)\n 35721: a1 = s1 + 0x3998\n 35725: a3 = a1 + 0x300\n 35729: u64 [a3 + 0xe8] = a4\n 35733: u64 [a3 + 0xf0] = a5\n 35737: u64 [a3 + 0xf8] = a2\n 35741: u64 [a1 + 0x400] = a0\n 35745: a0 = s1 + 0x2060\n 35749: a1 = s1 + 0x3d80\n 35753: ra = 1484, jump @26\n      : @1398 [@dyn 742] (gas: 3)\n 35760: a0 = s1 + 0x1958\n 35764: a0 = u8 [a0 + 0x710]\n 35768: jump @1442 if a0 == 0\n      : @1399 (gas: 3)\n 35772: t0 = 0x5ce\n 35776: a2 = s1 + 0x1958\n 35780: fallthrough\n      : @1400 [@dyn 743] (gas: 9)\n 35781: u64 [a2 + 1784] = 0\n 35785: u64 [a2 + 1776] = 0\n 35789: a0 = 0xa7a9536d00000000\n 35799: u64 [a2 + 0x700] = a0\n 35803: a1 = s1 + 0x2040\n 35807: u64 [a2 + 1768] = 0\n 35811: a0 = 0\n 35813: ra = 0x662\n 35817: jump @24\n      : @1401 (gas: 3)\n 35821: a0 = u64 [s1 + 0x1b8]\n 35825: a0 = i32 [a0]\n 35827: jump @1471 if a0 >u 99\n      : @1402 (gas: 2)\n 35832: a1 = 0x20190\n 35837: jump @1328\n      : @1403 (gas: 4)\n 35840: a0 = s1 + 0x240\n 35844: ra = 0x5d0\n 35848: t0 = 0x6b8\n 35852: jump @2079\n      : @1404 [@dyn 744] (gas: 10)\n 35855: a0 = u64 [s1 + 0x240]\n 35859: a1 = u64 [s1 + 0x248]\n 35863: a2 = u32 [s1 + 0x250]\n 35867: u64 [s1 + 568] = 0\n 35871: u64 [s1 + 0x230] = a2\n 35875: u64 [s1 + 0x228] = a1\n 35879: a1 = s1 + 0x220\n 35883: u64 [s1 + 0x220] = a0\n 35887: a0 = 0\n 35889: ra = 1490, jump @24\n      : @1405 [@dyn 745] (gas: 7)\n 35896: u64 [s1 + 536] = 0\n 35900: u64 [s1 + 528] = 0\n 35904: u64 [s1 + 512] = 0x3\n 35909: a0 = 0x20\n 35912: a1 = s1 + 0x200\n 35916: u64 [s1 + 520] = 0\n 35920: ra = 1492, jump @24\n      : @1406 [@dyn 746] (gas: 5)\n 35927: a0 = 0x20180\n 35932: u64 [s1 + 0x1b8] = a0\n 35936: a0 = i32 [0x20180]\n 35941: a1 = 0x3f\n 35944: jump @1408 if a1 <u a0\n      : @1407 (gas: 4)\n 35947: a1 = u64 [s1 + 0x1b8]\n 35951: u32 [a1 + 0] = 0x40\n 35954: t0 = 0x5d6\n 35958: jump @2082\n      : @1408 (gas: 1)\n 35961: t0 = 1494, jump @2082\n      : @1409 [@dyn 747] (gas: 10)\n 35967: a0 = 0x20190\n 35972: u64 [s1 + 0x1b0] = a0\n 35976: i32 a0 = a0 + 0\n 35978: i32 a2 = a2 + 0\n 35980: a1 = 0x40\n 35983: ra = 0x5d8\n 35987: ecalli 9 // 'hash_keccak_256'\n 35989: a3 = u64 [s1 + 0x1a8]\n 35993: t0 = 0x5da\n 35997: jump @2012\n      : @1410 [@dyn 748] (gas: 2)\n 36000: a3 = u64 [s1 + 0x1a8]\n 36004: t0 = 1498, jump @2012\n      : @1411 [@dyn 749] (gas: 9)\n 36010: a4 = s1 + 0x3198\n 36014: a5 = a4 + 0x500\n 36018: u64 [a5 + 0x40] = a3\n 36021: u64 [a5 + 0x38] = a2\n 36024: u64 [a5 + 0x30] = a1\n 36027: u64 [a5 + 0x28] = a0\n 36030: a0 = s1 + 0x1e0\n 36034: a1 = s1 + 0x36c0\n 36038: ra = 1500, jump @26\n      : @1412 [@dyn 750] (gas: 8)\n 36045: a0 = u32 [s1 + 0x1e0]\n 36049: u64 [s1 + 472] = 0\n 36053: u64 [s1 + 464] = 0\n 36057: u64 [s1 + 0x1c0] = a0\n 36061: a0 = 0x80\n 36065: a1 = s1 + 0x1c0\n 36069: u64 [s1 + 456] = 0\n 36073: ra = 1502, jump @24\n      : @1413 [@dyn 751] (gas: 3)\n 36080: a0 = u64 [s1 + 0x1b8]\n 36084: a0 = i32 [a0]\n 36086: jump @1415 if a0 >u 159\n      : @1414 (gas: 5)\n 36091: a1 = u64 [s1 + 0x1b8]\n 36095: u32 [a1 + 0] = 0xa0\n 36099: a0 = u64 [s1 + 0x1b0]\n 36103: i32 a1 = a0 + 0x80\n 36107: jump @1248\n      : @1415 (gas: 3)\n 36110: a0 = u64 [s1 + 0x1b0]\n 36114: i32 a1 = a0 + 0x80\n 36118: jump @1248\n      : @1416 (gas: 3)\n 36121: t0 = 0x5e0\n 36125: a2 = s1 + 0x2178\n 36129: fallthrough\n      : @1417 [@dyn 752] (gas: 8)\n 36130: u64 [a2 + 664] = 0\n 36134: u64 [a2 + 656] = 0\n 36138: a0 = 0x6f1cf7db00000000\n 36148: u64 [a2 + 0x2a0] = a0\n 36152: a1 = s1 + 0x2400\n 36156: u64 [a2 + 648] = 0\n 36160: a0 = 0\n 36162: ra = 1506, jump @24\n      : @1418 [@dyn 753] (gas: 3)\n 36169: a0 = u64 [s1 + 0x1b8]\n 36173: a0 = i32 [a0]\n 36175: jump @1420 if a0 >u 31\n      : @1419 (gas: 7)\n 36179: a1 = u64 [s1 + 0x1b8]\n 36183: u32 [a1 + 0] = 0x20\n 36186: a0 = 0x1\n 36189: a2 = 0x4\n 36192: a1 = u64 [s1 + 0x1b0]\n 36196: ecalli 14 // 'seal_return'\n 36198: jump @1135\n      : @1420 (gas: 5)\n 36201: a0 = 0x1\n 36204: a2 = 0x4\n 36207: a1 = u64 [s1 + 0x1b0]\n 36211: ecalli 14 // 'seal_return'\n 36213: jump @1135\n      : @1421 (gas: 16)\n 36216: a1 = 0xffffffff\n 36226: u64 [s1 + 0x188] = a1\n 36230: a3 = s1 + 0x2178\n 36234: a1 = u64 [a3 + 0x1e8]\n 36238: a2 = u64 [a3 + 0x1f8]\n 36242: a3 = u64 [a3 + 0x200]\n 36246: a0 = a0 | 0x1\n 36249: a4 = s1 + 0x3998\n 36253: a5 = a4 + 0x400\n 36257: u64 [a5 + 0x48] = a1\n 36260: u64 [a5 + 0x58] = a2\n 36263: u64 [a5 + 0x50] = a0\n 36266: u64 [a5 + 0x60] = a3\n 36269: a1 = s1 + 0x3de0\n 36273: a0 = u64 [s1 + 0x198]\n 36277: ra = 1508, jump @28\n      : @1422 [@dyn 754] (gas: 6)\n 36284: a0 = u64 [s1 + 0x1a0]\n 36288: ra = 0x5e6\n 36292: ecalli 5 // 'caller'\n 36294: a2 = u64 [s1 + 0x1a8]\n 36298: t0 = 0x5e8\n 36302: jump @1994\n      : @1423 [@dyn 755] (gas: 2)\n 36305: a2 = u64 [s1 + 0x1a8]\n 36309: t0 = 1512, jump @1994\n      : @1424 [@dyn 756] (gas: 8)\n 36315: u64 [a2 + 448] = 0\n 36319: a4 = a2 + 0x100\n 36323: u64 [a4 + 0xb8] = a1\n 36327: u64 [a4 + 0xb0] = a0\n 36331: a1 = s1 + 0x2320\n 36335: u64 [a4 + 0xa8] = a3\n 36339: a0 = 0\n 36341: ra = 1514, jump @24\n      : @1425 [@dyn 757] (gas: 3)\n 36348: t0 = 0x5ec\n 36352: a1 = s1 + 0x2178\n 36356: fallthrough\n      : @1426 [@dyn 758] (gas: 8)\n 36357: u64 [a1 + 416] = 0\n 36361: u64 [a1 + 408] = 0\n 36365: u64 [a1 + 392] = 0x1\n 36370: a2 = a1\n 36372: a0 = 0x20\n 36375: a1 = s1 + 0x2300\n 36379: u64 [a2 + 400] = 0\n 36383: ra = 1518, jump @24\n      : @1427 [@dyn 759] (gas: 7)\n 36390: a0 = sp + 0xffffffffffffffe0\n 36393: a0 = a0 & 0xffffffffffffffe0\n 36396: u64 [s1 + 0x198] = a0\n 36400: sp = a0\n 36402: a0 = u64 [s1 + 0x1b8]\n 36406: a0 = i32 [a0]\n 36408: jump @1429 if a0 >u 63\n      : @1428 (gas: 3)\n 36412: a1 = u64 [s1 + 0x1b8]\n 36416: u32 [a1 + 0] = 0x40\n 36419: fallthrough\n      : @1429 (gas: 4)\n 36420: a0 = sp + 0xffffffffffffffe0\n 36423: a0 = a0 & 0xffffffffffffffe0\n 36426: u64 [s1 + 0x180] = a0\n 36430: t0 = 1520, jump @2001\n      : @1430 [@dyn 760] (gas: 5)\n 36436: ra = 0x5f2\n 36440: ecalli 9 // 'hash_keccak_256'\n 36442: a3 = u64 [s1 + 0x180]\n 36446: t0 = 0x5f4\n 36450: jump @1996\n      : @1431 [@dyn 761] (gas: 2)\n 36453: a3 = u64 [s1 + 0x180]\n 36457: t0 = 1524, jump @1996\n      : @1432 [@dyn 762] (gas: 7)\n 36463: a1 = u64 [s1 + 0x198]\n 36467: u64 [a1] = a4\n 36469: u64 [a1 + 0x8] = a5\n 36472: u64 [a1 + 0x10] = a2\n 36475: u64 [a1 + 0x18] = a0\n 36478: a0 = s1 + 0x22e0\n 36482: ra = 1526, jump @26\n      : @1433 [@dyn 763] (gas: 5)\n 36489: a0 = s1 + 0x2178\n 36493: a0 = u64 [a0 + 0x168]\n 36497: a1 = u64 [s1 + 0x188]\n 36501: a1 = a1 & a0\n 36504: jump @1501 if a1 == 0\n      : @1434 (gas: 7)\n 36508: a1 = u64 [s1 + 0x188]\n 36512: a0 = a0 + a1\n 36515: a0 = a0 & a1\n 36518: u64 [s1 + 0x1b8] = a0\n 36522: a0 = s1 + 0x22c0\n 36526: a1 = u64 [s1 + 0x198]\n 36530: ra = 1528, jump @26\n      : @1435 [@dyn 764] (gas: 18)\n 36537: a3 = s1 + 0x2178\n 36541: a0 = u32 [a3 + 0x14c]\n 36545: a0 = a0 << 0x20\n 36548: a4 = a3 + 0x100\n 36552: a1 = u64 [a4 + 0x60]\n 36555: a2 = u64 [a4 + 0x58]\n 36558: a3 = u64 [a4 + 0x50]\n 36561: a4 = u64 [s1 + 0x1b8]\n 36565: a0 = a0 | a4\n 36568: a4 = s1 + 0x3998\n 36572: a5 = a4 + 0x400\n 36576: u64 [a5 + 0x80] = a1\n 36580: u64 [a5 + 0x78] = a2\n 36583: u64 [a5 + 0x70] = a3\n 36586: u64 [a5 + 0x68] = a0\n 36589: a1 = s1 + 0x3e00\n 36593: a0 = u64 [s1 + 0x198]\n 36597: ra = 1530, jump @28\n      : @1436 [@dyn 765] (gas: 6)\n 36604: a0 = u64 [s1 + 0x1a0]\n 36608: ra = 0x5fc\n 36612: ecalli 5 // 'caller'\n 36614: a2 = u64 [s1 + 0x1a8]\n 36618: t0 = 0x5fe\n 36622: jump @1999\n      : @1437 [@dyn 766] (gas: 2)\n 36625: a2 = u64 [s1 + 0x1a8]\n 36629: t0 = 1534, jump @1999\n      : @1438 [@dyn 767] (gas: 31)\n 36635: t0 = a1 | a0\n 36638: a3 = a3 >> 0x20\n 36641: a2 = reverse a2\n 36643: a1 = a2 << 0x20\n 36646: a1 = a1 | a3\n 36649: a2 = a2 >> 0x20\n 36652: a3 = u64 [s1 + 0x190]\n 36656: a0 = s1 + 0x2178\n 36660: u64 [a0 + 0xe8] = a3\n 36664: a3 = u64 [0x20040]\n 36669: a4 = u64 [0x20048]\n 36674: a5 = u64 [0x20050]\n 36679: u64 [a0 + 0x140] = a3\n 36683: u64 [a0 + 0x138] = a4\n 36687: u64 [a0 + 256] = 0\n 36691: a4 = a0 + 0x100\n 36695: u64 [a4 + 0x30] = a5\n 36698: a3 = u64 [0x20058]\n 36703: u64 [a0 + 248] = 0\n 36707: u64 [a0 + 240] = 0\n 36711: u64 [a0 + 288] = 0\n 36715: u64 [a4 + 0x28] = a3\n 36718: u64 [a4 + 0x18] = a2\n 36721: u64 [a4 + 0x10] = a1\n 36724: a2 = s1 + 0x22a0\n 36728: a3 = s1 + 0x2280\n 36732: a4 = s1 + 0x2260\n 36736: u64 [a0 + 0x108] = t0\n 36740: a0 = 0\n 36742: a1 = 0\n 36744: ra = 1536, jump @31\n      : @1439 [@dyn 768] (gas: 3)\n 36751: a0 = 0\n 36753: a1 = u64 [s1 + 0x1b0]\n 36757: jump @1329\n      : @1440 (gas: 3)\n 36760: t0 = 0x602\n 36764: a2 = s1 + 0x1958\n 36768: fallthrough\n      : @1441 [@dyn 769] (gas: 9)\n 36769: u64 [a2 + 1976] = 0\n 36773: u64 [a2 + 1968] = 0\n 36777: a0 = 0xd5b25b6300000000\n 36787: u64 [a2 + 0x7c0] = a0\n 36791: a1 = s1 + 0x2100\n 36795: u64 [a2 + 1960] = 0\n 36799: a0 = 0\n 36801: ra = 0x662\n 36805: jump @24\n      : @1442 (gas: 6)\n 36809: a0 = u64 [s1 + 0x120]\n 36813: ra = 0x604\n 36817: ecalli 5 // 'caller'\n 36819: a2 = u64 [s1 + 0x128]\n 36823: t0 = 0x606\n 36827: jump @2003\n      : @1443 [@dyn 770] (gas: 2)\n 36830: a2 = u64 [s1 + 0x128]\n 36834: t0 = 1542, jump @2003\n      : @1444 [@dyn 771] (gas: 8)\n 36840: u64 [a2 + 1760] = 0\n 36844: a4 = a2 + 0x600\n 36848: u64 [a4 + 0xd8] = a1\n 36852: u64 [a4 + 0xd0] = a0\n 36856: a1 = s1 + 0x2020\n 36860: u64 [a4 + 0xc8] = a3\n 36864: a0 = 0\n 36866: ra = 1544, jump @24\n      : @1445 [@dyn 772] (gas: 3)\n 36873: t0 = 0x60a\n 36877: a1 = s1 + 0x1958\n 36881: fallthrough\n      : @1446 [@dyn 773] (gas: 8)\n 36882: u64 [a1 + 1728] = 0\n 36886: u64 [a1 + 1720] = 0\n 36890: u64 [a1 + 1704] = 0x4\n 36895: a2 = a1\n 36897: a0 = 0x20\n 36900: a1 = s1 + 0x2000\n 36904: u64 [a2 + 1712] = 0\n 36908: ra = 1548, jump @24\n      : @1447 [@dyn 774] (gas: 3)\n 36915: a0 = u64 [s1 + 0x138]\n 36919: a0 = i32 [a0]\n 36921: jump @1449 if a0 >u 63\n      : @1448 (gas: 4)\n 36925: a1 = u64 [s1 + 0x138]\n 36929: u32 [a1 + 0] = 0x40\n 36932: t0 = 0x60e\n 36936: jump @2005\n      : @1449 (gas: 1)\n 36939: t0 = 1550, jump @2005\n      : @1450 [@dyn 775] (gas: 4)\n 36945: ra = 0x610\n 36949: ecalli 9 // 'hash_keccak_256'\n 36951: t0 = 0x612\n 36955: jump @2013\n      : @1451 [@dyn 776] (gas: 1)\n 36958: t0 = 1554, jump @2013\n      : @1452 [@dyn 777] (gas: 8)\n 36964: u64 [a2 + 1696] = 0\n 36968: u64 [a2 + 1688] = 0\n 36972: u64 [a2 + 1680] = 0\n 36976: a1 = s1 + 0x1fe0\n 36980: a0 = u64 [s1 + 0x1b8]\n 36984: u64 [a2 + 0x688] = a0\n 36988: a0 = 0\n 36990: ra = 1556, jump @24\n      : @1453 [@dyn 778] (gas: 14)\n 36997: a0 = u64 [s1 + 0x198]\n 37001: a1 = s1 + 0x1958\n 37005: a2 = a1 + 0x600\n 37009: u64 [a2 + 0x80] = a0\n 37013: a0 = u64 [s1 + 0x1a0]\n 37017: u64 [a2 + 0x78] = a0\n 37020: a0 = u64 [s1 + 0x1a8]\n 37024: u64 [a2 + 0x70] = a0\n 37027: a3 = a1\n 37029: a0 = 0x20\n 37032: a1 = s1 + 0x1fc0\n 37036: a2 = u64 [s1 + 0x1b0]\n 37040: u64 [a3 + 0x668] = a2\n 37044: ra = 1558, jump @24\n      : @1454 [@dyn 779] (gas: 3)\n 37051: a0 = u64 [s1 + 0x138]\n 37055: a0 = i32 [a0]\n 37057: jump @1456 if a0 >u 63\n      : @1455 (gas: 4)\n 37061: a0 = u64 [s1 + 0x138]\n 37065: u32 [a0 + 0] = 0x40\n 37068: t0 = 0x618\n 37072: jump @2005\n      : @1456 (gas: 1)\n 37075: t0 = 1560, jump @2005\n      : @1457 [@dyn 780] (gas: 5)\n 37081: ra = 0x61a\n 37085: ecalli 9 // 'hash_keccak_256'\n 37087: a3 = u64 [s1 + 0x1b0]\n 37091: t0 = 0x61c\n 37095: jump @2021\n      : @1458 [@dyn 781] (gas: 2)\n 37098: a3 = u64 [s1 + 0x1b0]\n 37102: t0 = 1564, jump @2021\n      : @1459 [@dyn 782] (gas: 5)\n 37108: u64 [s1 + 0x1b0] = a0\n 37112: sp = a0\n 37114: t0 = 0x61e\n 37118: a2 = s1 + 0x1958\n 37122: fallthrough\n      : @1460 [@dyn 783] (gas: 8)\n 37123: u64 [a2 + 1632] = 0\n 37127: u64 [a2 + 1624] = 0\n 37131: u64 [a2 + 1616] = 0\n 37135: a1 = s1 + 0x1fa0\n 37139: a0 = u64 [s1 + 0x118]\n 37143: u64 [a2 + 0x648] = a0\n 37147: a0 = 0\n 37149: ra = 1568, jump @24\n      : @1461 [@dyn 784] (gas: 14)\n 37156: a0 = u64 [s1 + 0x190]\n 37160: a1 = s1 + 0x1958\n 37164: a2 = a1 + 0x600\n 37168: u64 [a2 + 0x40] = a0\n 37171: a0 = u64 [s1 + 0x198]\n 37175: u64 [a2 + 0x38] = a0\n 37178: a0 = u64 [s1 + 0x1a0]\n 37182: u64 [a2 + 0x30] = a0\n 37185: a3 = a1\n 37187: a0 = 0x20\n 37190: a1 = s1 + 0x1f80\n 37194: a2 = u64 [s1 + 0x1a8]\n 37198: u64 [a3 + 0x628] = a2\n 37202: ra = 1570, jump @24\n      : @1462 [@dyn 785] (gas: 3)\n 37209: a0 = u64 [s1 + 0x138]\n 37213: a0 = i32 [a0]\n 37215: jump @1464 if a0 >=u 64\n      : @1463 (gas: 3)\n 37219: a0 = u64 [s1 + 0x138]\n 37223: u32 [a0 + 0] = 0x40\n 37226: fallthrough\n      : @1464 (gas: 11)\n 37227: a0 = sp + 0xffffffffffffffe0\n 37230: a0 = a0 & 0xffffffffffffffe0\n 37233: u64 [s1 + 0x1a8] = a0\n 37237: sp = a0\n 37239: i32 a2 = a0 + 0\n 37241: a1 = 0x40\n 37244: a0 = u64 [s1 + 0x130]\n 37248: ra = 0x624\n 37252: ecalli 9 // 'hash_keccak_256'\n 37254: t0 = 0x626\n 37258: jump @2070\n      : @1465 [@dyn 786] (gas: 1)\n 37261: t0 = 1574, jump @2070\n      : @1466 [@dyn 787] (gas: 10)\n 37267: a4 = reverse a1\n 37269: a2 = reverse a2\n 37271: a3 = reverse a3\n 37273: a1 = u64 [s1 + 0x1b0]\n 37277: u64 [a1 + 0x18] = a3\n 37280: u64 [a1 + 0x10] = a2\n 37283: u64 [a1 + 0x8] = a4\n 37286: u64 [a1] = a0\n 37288: a0 = s1 + 0x1f60\n 37292: ra = 1576, jump @26\n      : @1467 [@dyn 788] (gas: 4)\n 37299: a0 = s1 + 0x1958\n 37303: a0 = u64 [a0 + 0x608]\n 37307: a1 = a0 & 0xff\n 37311: jump @1506 if a1 == 0\n      : @1468 (gas: 2)\n 37315: a1 = a0 & 0xff00\n 37320: jump @1511 if a1 == 0\n      : @1469 (gas: 3)\n 37324: t0 = 0x62a\n 37328: a2 = s1 + 0x1958\n 37332: fallthrough\n      : @1470 [@dyn 789] (gas: 9)\n 37333: u64 [a2 + 1528] = 0\n 37337: u64 [a2 + 1520] = 0\n 37341: a0 = 0xc98289f000000000\n 37351: u64 [a2 + 0x600] = a0\n 37355: a1 = s1 + 0x1f40\n 37359: u64 [a2 + 1512] = 0\n 37363: a0 = 0\n 37365: ra = 0x662\n 37369: jump @24\n      : @1471 (gas: 5)\n 37373: a0 = s1 + 0x7ff\n 37377: a0 = a0 + 0x7a1\n 37381: ra = 0x62c\n 37385: t0 = 0x6b8\n 37389: jump @2079\n      : @1472 [@dyn 790] (gas: 16)\n 37392: a1 = s1 + 0x7ff\n 37396: a1 = a1 + 0x139\n 37400: a2 = a1 + 0x600\n 37404: a0 = u64 [a2 + 0x80]\n 37408: u64 [s1 + 0x118] = a0\n 37412: a0 = u64 [a2 + 0x78]\n 37415: u64 [s1 + 0x120] = a0\n 37419: a0 = u64 [a2 + 0x70]\n 37422: u64 [s1 + 0x138] = a0\n 37426: a0 = u64 [a2 + 0x68]\n 37429: u64 [s1 + 0x130] = a0\n 37433: a0 = s1 + 0x7ff\n 37437: a0 = a0 + 0x781\n 37441: ra = 0x62e\n 37445: t0 = 0x6bc\n 37449: jump @2074\n      : @1473 [@dyn 791] (gas: 14)\n 37452: a1 = s1 + 0x7ff\n 37456: a1 = a1 + 0x139\n 37460: a2 = a1 + 0x600\n 37464: a0 = u64 [a2 + 0x60]\n 37467: u64 [s1 + 0x110] = a0\n 37471: a0 = u64 [a2 + 0x58]\n 37474: u64 [s1 + 0x108] = a0\n 37478: a0 = u64 [a2 + 0x50]\n 37481: u64 [s1 + 0x100] = a0\n 37485: a0 = u64 [a2 + 0x48]\n 37488: u64 [s1 + 0x128] = a0\n 37492: a0 = s1 + 0x7ff\n 37496: a0 = a0 + 0x761\n 37500: ra = 1584, jump @1596\n      : @1474 [@dyn 792] (gas: 8)\n 37506: a0 = s1 + 0x7ff\n 37510: a0 = a0 + 0x139\n 37514: a0 = u64 [a0 + 0x628]\n 37518: u64 [s1 + 0xf8] = a0\n 37522: a0 = s1 + 0x4000\n 37526: i32 a0 = a0 + 0xfffffffffffffa20\n 37530: ecalli 10 // 'now'\n 37532: fallthrough\n      : @1475 (gas: 49)\n 37533: a0 = s1 + 0x3998\n 37537: t0 = u64 [a0 + 0xa0]\n 37541: a4 = u64 [a0 + 0x98]\n 37545: u64 [s1 + 0x178] = a4\n 37549: t2 = u64 [a0 + 0x90]\n 37553: a3 = u64 [a0 + 0x88]\n 37557: u64 [s1 + 0x160] = a3\n 37561: a0 = clz t0\n 37563: a1 = clz a4\n 37565: a2 = a1 + 0x40\n 37568: a2 = a0 if t0 != 0\n 37571: a0 = clz t2\n 37573: a1 = clz a3\n 37575: a1 = a1 + 0x40\n 37578: a1 = a0 if t2 != 0\n 37581: a0 = a1 + 0x80\n 37585: a3 = a4 | t0\n 37588: a2 = a0 if a3 == 0\n 37591: a5 = a0 <u a1\n 37594: a5 = 0 if a3 != 0\n 37596: a4 = a5 >u 0\n 37598: a0 = a2 <u 0xf0\n 37602: a3 = a0 ^ 0x1\n 37605: a4 = a3 if a5 == 0\n 37608: a0 = a4 <u 0x1\n 37611: ra = a0 + 0xffffffffffffffff\n 37614: t1 = -a4\n 37616: a5 = -a5\n 37618: a3 = a5 - a3\n 37621: a2 = 0xef - a2\n 37625: a5 = t1 >u 0\n 37627: a0 = ra >u 0\n 37629: a0 = a5 if ra == 0\n 37632: a5 = a2 <u 0x100\n 37636: a5 = a5 ^ 0x1\n 37639: a1 = a3 >u 0\n 37641: a5 = a1 if a3 != 0\n 37644: a5 = a0 if a4 != 0\n 37647: u64 [s1 + 0x158] = t2\n 37651: u64 [s1 + 0x170] = t0\n 37655: a0 = t2 | t0\n 37658: a4 = u64 [s1 + 0x160]\n 37662: a1 = u64 [s1 + 0x178]\n 37666: a1 = a1 | a4\n 37669: a0 = a0 | a1\n 37672: a0 = a0 <u 0x1\n 37675: a0 = a0 | a5\n 37678: a4 = 0 if a0 != 0\n 37680: jump @1518 if a0 != 0\n      : @1476 (gas: 5)\n 37684: a0 = a2 ^ 0xff\n 37688: a0 = a0 | t1\n 37691: a1 = a3 | ra\n 37694: a0 = a0 | a1\n 37697: jump @1518 if a0 == 0\n      : @1477 (gas: 1)\n 37701: t0 = 1586, jump @2007\n      : @1478 [@dyn 793] (gas: 1)\n 37707: ra = 1588, jump @2101\n      : @1479 [@dyn 794] (gas: 1)\n 37713: t0 = 1590, jump @2091\n      : @1480 [@dyn 795] (gas: 1)\n 37719: ra = 1592, jump @2106\n      : @1481 [@dyn 796] (gas: 1)\n 37725: t0 = 1594, jump @2073\n      : @1482 [@dyn 797] (gas: 1)\n 37731: ra = 1596, jump @2106\n      : @1483 [@dyn 798] (gas: 8)\n 37737: u64 [s1 + 0x140] = a0\n 37741: u64 [s1 + 0xf0] = a1\n 37745: a2 = u64 [s1 + 0x180]\n 37749: a0 = a2 <u 0x80\n 37753: u64 [s1 + 0xe8] = a0\n 37757: a0 = u64 [s1 + 0x160]\n 37761: a1 = u64 [s1 + 0x158]\n 37765: ra = 1598, jump @2106\n      : @1484 [@dyn 799] (gas: 1)\n 37771: t0 = 1600, jump @2087\n      : @1485 [@dyn 800] (gas: 4)\n 37777: a3 = u64 [s1 + 0xe8]\n 37781: a0 = 0 if a3 == 0\n 37783: u64 [a4 + 0x98] = a0\n 37787: jump @1516 if a1 == 0\n      : @1486 (gas: 7)\n 37791: a2 = a3\n 37793: a0 = u64 [s1 + 0x188]\n 37797: a1 = u64 [s1 + 0x148]\n 37801: a0 = a0 | a1\n 37804: a5 = a3\n 37806: a1 = u64 [s1 + 0xf0]\n 37810: t0 = 1602, jump @2000\n      : @1487 [@dyn 801] (gas: 1)\n 37816: ra = 1604, jump @2101\n      : @1488 [@dyn 802] (gas: 1)\n 37822: t0 = 1606, jump @2092\n      : @1489 [@dyn 803] (gas: 1)\n 37828: ra = 1608, jump @2101\n      : @1490 [@dyn 804] (gas: 2)\n 37834: u64 [s1 + 0xf0] = a0\n 37838: t0 = 1610, jump @2072\n      : @1491 [@dyn 805] (gas: 1)\n 37844: ra = 1612, jump @2106\n      : @1492 [@dyn 806] (gas: 1)\n 37850: t0 = 1614, jump @2036\n      : @1493 [@dyn 807] (gas: 2)\n 37856: a1 = u64 [s1 + 0xf0]\n 37860: t0 = 1616, jump @2046\n      : @1494 [@dyn 808] (gas: 1)\n 37866: ra = 1618, jump @2101\n      : @1495 [@dyn 809] (gas: 1)\n 37872: t0 = 1620, jump @2017\n      : @1496 [@dyn 810] (gas: 1)\n 37878: t0 = 1622, jump @2034\n      : @1497 [@dyn 811] (gas: 5)\n 37884: t0 = ra <u a2\n 37887: a4 = u64 [s1 + 0x148]\n 37891: a5 = a4 <u a3\n 37894: a5 = t0 if t1 != 0\n 37897: t0 = 1624, jump @2035\n      : @1498 [@dyn 812] (gas: 20)\n 37903: t0 = a0 | a1\n 37906: a1 = a4 << 0x1\n 37909: a4 = u64 [s1 + 0x190]\n 37913: t1 = a4 >> 0x3f\n 37916: t1 = a1 | t1\n 37919: a1 = a4 << 0x1\n 37922: a4 = u64 [s1 + 0x198]\n 37926: t2 = a4 >> 0x3f\n 37929: a1 = a1 | t2\n 37932: a4 = a4 << 0x1\n 37935: a0 = u64 [s1 + 0x178]\n 37939: a4 = a4 | a0\n 37942: u64 [s1 + 0x198] = a4\n 37946: a0 = u64 [s1 + 0x170]\n 37950: a1 = a1 | a0\n 37953: u64 [s1 + 0x190] = a1\n 37957: a1 = a0 | t1\n 37960: u64 [s1 + 0x180] = a1\n 37964: a0 = a0 | t0\n 37967: t0 = 1626, jump @1997\n      : @1499 [@dyn 813] (gas: 18)\n 37973: t0 = a4 <u a2\n 37976: a2 = a4 - a2\n 37979: a4 = a3 <u 0x1\n 37982: a5 = a5 - a4\n 37985: a4 = u64 [a0 + 0xa8]\n 37989: a4 = a4 - t0\n 37992: a3 = a3 + 0xffffffffffffffff\n 37995: u64 [a0 + 0xb0] = a5\n 37999: u64 [a0 + 0xa8] = a4\n 38003: t0 = a5 | a4\n 38006: u64 [a0 + 0xb8] = a3\n 38010: a4 = a3 | a2\n 38013: a3 = a4 | t0\n 38016: a4 = ra & 0x1\n 38019: u64 [a0 + 0x78] = a4\n 38022: u64 [a0 + 0xa0] = a2\n 38026: u64 [s1 + 368] = 0\n 38030: jump @1496 if a3 != 0\n      : @1500 (gas: 1)\n 38034: jump @1517\n      : @1501 (gas: 10)\n 38037: a0 = s1 + 0x2178\n 38041: u64 [a0 + 216] = 0\n 38045: u64 [a0 + 208] = 0\n 38049: u64 [a0 + 200] = 0\n 38053: a2 = a0\n 38055: a0 = 0x4e487b7100000000\n 38065: a1 = s1 + 0x2240\n 38069: u64 [a2 + 0xe0] = a0\n 38073: a0 = 0\n 38075: ra = 1628, jump @24\n      : @1502 [@dyn 814] (gas: 9)\n 38082: a1 = s1 + 0x2178\n 38086: u64 [a1 + 192] = 0\n 38090: u64 [a1 + 184] = 0\n 38094: u64 [a1 + 168] = 0x11\n 38099: a2 = a1\n 38101: a0 = 0x4\n 38104: a1 = s1 + 0x2220\n 38108: u64 [a2 + 176] = 0\n 38112: ra = 1630, jump @24\n      : @1503 [@dyn 815] (gas: 3)\n 38119: a0 = u64 [s1 + 0x1b8]\n 38123: a0 = i32 [a0]\n 38125: jump @1505 if a0 <=u 63\n      : @1504 (gas: 1)\n 38129: jump @1134\n      : @1505 (gas: 7)\n 38132: a1 = u64 [s1 + 0x1b8]\n 38136: u32 [a1 + 0] = 0x40\n 38139: a0 = 0x1\n 38142: a2 = 0x24\n 38145: a1 = u64 [s1 + 0x1b0]\n 38149: ecalli 14 // 'seal_return'\n 38151: jump @1135\n      : @1506 (gas: 3)\n 38154: t0 = 0x660\n 38158: a2 = s1 + 0x1958\n 38162: fallthrough\n      : @1507 [@dyn 816] (gas: 8)\n 38163: u64 [a2 + 1368] = 0\n 38167: u64 [a2 + 1360] = 0\n 38171: a0 = 0xafa4e2b600000000\n 38181: u64 [a2 + 0x560] = a0\n 38185: a1 = s1 + 0x1ea0\n 38189: u64 [a2 + 1352] = 0\n 38193: a0 = 0\n 38195: ra = 1634, jump @24\n      : @1508 [@dyn 817] (gas: 3)\n 38202: a0 = u64 [s1 + 0x138]\n 38206: a0 = i32 [a0]\n 38208: jump @1510 if a0 >u 31\n      : @1509 (gas: 3)\n 38212: a1 = u64 [s1 + 0x138]\n 38216: u32 [a1 + 0] = 0x20\n 38219: fallthrough\n      : @1510 (gas: 5)\n 38220: a0 = 0x1\n 38223: a2 = 0x4\n 38226: a1 = u64 [s1 + 0x130]\n 38230: ecalli 14 // 'seal_return'\n 38232: fallthrough\n      : @1511 (gas: 15)\n 38233: a3 = s1 + 0x1958\n 38237: a4 = a3 + 0x600\n 38241: a1 = u64 [a4 + 0x10]\n 38244: a2 = u64 [a4 + 0x20]\n 38247: a3 = u64 [a4 + 0x18]\n 38250: a0 = a0 | 0x100\n 38254: a4 = s1 + 0x3998\n 38258: a5 = a4 + 0x400\n 38262: u64 [a5 + 0x10] = a1\n 38265: u64 [a5 + 0x8] = a0\n 38268: u64 [a5 + 0x18] = a3\n 38271: u64 [a5 + 0x20] = a2\n 38274: a1 = s1 + 0x3da0\n 38278: a0 = u64 [s1 + 0x1b0]\n 38282: ra = 1636, jump @28\n      : @1512 [@dyn 818] (gas: 6)\n 38289: a0 = u64 [s1 + 0x120]\n 38293: ra = 0x666\n 38297: ecalli 5 // 'caller'\n 38299: a2 = u64 [s1 + 0x128]\n 38303: t0 = 0x668\n 38307: jump @1999\n      : @1513 [@dyn 819] (gas: 2)\n 38310: a2 = u64 [s1 + 0x128]\n 38314: t0 = 1640, jump @1999\n      : @1514 [@dyn 820] (gas: 38)\n 38320: a0 = a0 | a1\n 38323: a3 = a3 >> 0x20\n 38326: a2 = reverse a2\n 38328: a1 = a2 << 0x20\n 38331: a1 = a1 | a3\n 38334: a2 = a2 >> 0x20\n 38337: a5 = s1 + 0x1958\n 38341: u64 [a5 + 1408] = 0\n 38345: u64 [a5 + 1400] = 0\n 38349: u64 [a5 + 1392] = 0\n 38353: a3 = u64 [s1 + 0x1b8]\n 38357: u64 [a5 + 0x568] = a3\n 38361: a3 = u64 [s1 + 0x118]\n 38365: u64 [a5 + 0x588] = a3\n 38369: a3 = u64 [0x20060]\n 38374: a4 = u64 [0x20068]\n 38379: u64 [a5 + 1440] = 0\n 38383: u64 [a5 + 1432] = 0\n 38387: u64 [a5 + 0x5e0] = a3\n 38391: u64 [a5 + 0x5d8] = a4\n 38395: a3 = u64 [0x20070]\n 38400: a4 = u64 [0x20078]\n 38405: u64 [a5 + 1424] = 0\n 38409: u64 [a5 + 1472] = 0\n 38413: u64 [a5 + 0x5d0] = a3\n 38417: a3 = a5 + 0x500\n 38421: u64 [a3 + 0xc8] = a4\n 38425: u64 [a3 + 0xb8] = a2\n 38429: u64 [a3 + 0xb0] = a1\n 38433: a1 = a5\n 38435: a2 = s1 + 0x1f20\n 38439: a3 = s1 + 0x1f00\n 38443: a4 = s1 + 0x1ee0\n 38447: a5 = s1 + 0x1ec0\n 38451: u64 [a1 + 0x5a8] = a0\n 38455: a0 = 0\n 38457: a1 = 0\n 38459: ra = 1642, jump @34\n      : @1515 [@dyn 821] (gas: 3)\n 38466: a0 = 0\n 38468: a1 = u64 [s1 + 0x130]\n 38472: jump @1329\n      : @1516 (gas: 2)\n 38475: u64 [s1 + 376] = 0\n 38479: fallthrough\n      : @1517 (gas: 5)\n 38480: a0 = u64 [s1 + 0x198]\n 38484: a0 = a0 << 0x1\n 38487: a4 = u64 [s1 + 0x178]\n 38491: a4 = a4 | a0\n 38494: fallthrough\n      : @1518 (gas: 2)\n 38495: a0 = u64 [s1 + 0x128]\n 38499: jump @1577 if a0 >=u a4\n      : @1519 (gas: 9)\n 38503: a0 = u64 [s1 + 0xf8]\n 38507: a0 = a0 << 0x20\n 38510: a1 = a0 >> 0x20\n 38513: a0 = a1 + 0xffffffffffffffff\n 38516: a0 = a0 <u 0x32\n 38519: a0 = 0 if a1 == 0\n 38521: u64 [s1 + 0x158] = a1\n 38525: a0 = 0 if a1 == 0\n 38527: jump @1581 if a0 == 0\n      : @1520 (gas: 19)\n 38531: a0 = 0xffffffff\n 38541: u64 [s1 + 0x198] = a0\n 38545: a0 = u64 [s1 + 0x120]\n 38549: a0 = a0 << 0x20\n 38552: a2 = a0 >> 0x20\n 38555: a3 = s1 + 0x7ff\n 38559: a3 = a3 + 0x139\n 38563: u64 [a3 + 1504] = 0\n 38567: a0 = u64 [s1 + 0x130]\n 38571: a4 = a3 + 0x500\n 38575: u64 [a4 + 0xc8] = a0\n 38579: a0 = u64 [s1 + 0x138]\n 38583: u64 [a4 + 0xd0] = a0\n 38587: a1 = s1 + 0x7ff\n 38591: a1 = a1 + 0x701\n 38595: u64 [s1 + 0x168] = a2\n 38599: u64 [a4 + 0xd8] = a2\n 38603: a0 = 0\n 38605: ra = 1644, jump @24\n      : @1521 [@dyn 822] (gas: 11)\n 38612: a1 = s1 + 0x7ff\n 38616: a1 = a1 + 0x139\n 38620: u64 [a1 + 1472] = 0\n 38624: u64 [a1 + 1464] = 0\n 38628: u64 [a1 + 1448] = 0x3\n 38633: a2 = a1\n 38635: a0 = 0x20\n 38638: a1 = s1 + 0x7ff\n 38642: a1 = a1 + 0x6e1\n 38646: u64 [a2 + 1456] = 0\n 38650: ra = 1646, jump @24\n      : @1522 [@dyn 823] (gas: 5)\n 38657: a0 = 0x20180\n 38662: u64 [s1 + 0x1b0] = a0\n 38666: a0 = i32 [0x20180]\n 38671: a1 = 0x3f\n 38674: jump @1524 if a1 <u a0\n      : @1523 (gas: 3)\n 38677: a1 = u64 [s1 + 0x1b0]\n 38681: u32 [a1 + 0] = 0x40\n 38684: fallthrough\n      : @1524 (gas: 3)\n 38685: a0 = 0xffffffff00000000\n 38695: u64 [s1 + 0x150] = a0\n 38699: t0 = 1648, jump @2016\n      : @1525 [@dyn 824] (gas: 10)\n 38705: a0 = 0x20190\n 38710: i32 a0 = a0 + 0\n 38712: i32 a2 = a2 + 0\n 38714: a1 = 0x40\n 38717: u64 [s1 + 0x1a0] = a0\n 38721: ra = 0x672\n 38725: ecalli 9 // 'hash_keccak_256'\n 38727: a3 = u64 [s1 + 0x1b8]\n 38731: t0 = 0x674\n 38735: jump @2004\n      : @1526 [@dyn 825] (gas: 2)\n 38738: a3 = u64 [s1 + 0x1b8]\n 38742: t0 = 1652, jump @2004\n      : @1527 [@dyn 826] (gas: 8)\n 38748: u64 [a4 + 0xc0] = a3\n 38752: u64 [a4 + 0xb8] = a2\n 38756: u64 [a4 + 0xb0] = a1\n 38760: u64 [a4 + 0xa8] = a0\n 38764: a0 = s1 + 0x7ff\n 38768: a0 = a0 + 0x6c1\n 38772: a1 = s1 + 0x3a40\n 38776: ra = 1654, jump @26\n      : @1528 [@dyn 827] (gas: 10)\n 38783: a0 = s1 + 0x7ff\n 38787: a0 = a0 + 0x139\n 38791: a0 = u64 [a0 + 0x588]\n 38795: u64 [s1 + 352] = 0\n 38799: u64 [s1 + 424] = 0\n 38803: a1 = u64 [s1 + 0x198]\n 38807: a0 = a0 & a1\n 38810: u64 [s1 + 0x148] = a0\n 38814: a0 = 0x1\n 38817: fallthrough\n      : @1529 (gas: 14)\n 38818: a4 = s1 + 0x100\n 38822: u64 [a4 + 0xb8] = a0\n 38826: a3 = u64 [a4 + 0xa8]\n 38830: a0 = a3 >u 0\n 38832: a1 = a3 >u 0\n 38834: a1 = a0 if a3 == 0\n 38837: a0 = u64 [a4 + 0x48]\n 38840: a2 = u64 [a4 + 0xb8]\n 38844: a0 = a0 <u a2\n 38847: a2 = a3 >u 0\n 38849: a2 = a0 if a3 == 0\n 38852: a0 = a3 | a3\n 38855: a2 = a1 if a0 != 0\n 38858: jump @1585 if a2 != 0\n      : @1530 (gas: 6)\n 38862: a2 = s1 + 0x100\n 38866: a0 = u64 [a2 + 0x98]\n 38870: a1 = u64 [a2 + 0x60]\n 38873: a0 = a0 & a1\n 38876: a1 = u64 [a2 + 0x58]\n 38879: jump @1585 if a0 >=u a1\n      : @1531 (gas: 14)\n 38883: a2 = s1 + 0x7ff\n 38887: a2 = a2 + 0x139\n 38891: u64 [a2 + 1408] = 0\n 38895: a0 = u64 [s1 + 0x130]\n 38899: a3 = a2 + 0x500\n 38903: u64 [a3 + 0x68] = a0\n 38906: a0 = u64 [s1 + 0x138]\n 38910: u64 [a3 + 0x70] = a0\n 38913: a1 = s1 + 0x7ff\n 38917: a1 = a1 + 0x6a1\n 38921: a0 = u64 [s1 + 0x168]\n 38925: u64 [a3 + 0x78] = a0\n 38928: a0 = 0\n 38930: ra = 1656, jump @24\n      : @1532 [@dyn 828] (gas: 11)\n 38937: a0 = s1 + 0x7ff\n 38941: a0 = a0 + 0x139\n 38945: u64 [a0 + 1376] = 0\n 38949: u64 [a0 + 1368] = 0\n 38953: u64 [a0 + 1360] = 0\n 38957: a3 = a0\n 38959: a0 = 0x20\n 38962: a1 = s1 + 0x7ff\n 38966: a1 = a1 + 0x681\n 38970: u64 [a3 + 1352] = 0x2\n 38975: ra = 1658, jump @24\n      : @1533 [@dyn 829] (gas: 3)\n 38982: a0 = u64 [s1 + 0x1b0]\n 38986: a0 = i32 [a0]\n 38988: jump @1535 if a0 >u 63\n      : @1534 (gas: 4)\n 38992: a0 = u64 [s1 + 0x1b0]\n 38996: u32 [a0 + 0] = 0x40\n 38999: t0 = 0x67c\n 39003: jump @2028\n      : @1535 (gas: 1)\n 39006: t0 = 1660, jump @2028\n      : @1536 [@dyn 830] (gas: 4)\n 39012: ra = 0x67e\n 39016: ecalli 9 // 'hash_keccak_256'\n 39018: t0 = 0x680\n 39022: jump @2008\n      : @1537 [@dyn 831] (gas: 1)\n 39025: t0 = 1664, jump @2008\n      : @1538 [@dyn 832] (gas: 10)\n 39031: a3 = a2 + 0x500\n 39035: u64 [a3 + 0x40] = a0\n 39038: u64 [a3 + 0x38] = a0\n 39041: u64 [a3 + 0x30] = a0\n 39044: a1 = s1 + 0x7ff\n 39048: a1 = a1 + 0x661\n 39052: a0 = u64 [s1 + 0x1b8]\n 39056: u64 [a3 + 0x28] = a0\n 39059: a0 = 0\n 39061: ra = 1666, jump @24\n      : @1539 [@dyn 833] (gas: 5)\n 39068: a0 = u64 [s1 + 0x170]\n 39072: a1 = s1 + 0x7ff\n 39076: a1 = a1 + 0x139\n 39080: a2 = a1 + 0x500\n 39084: t0 = 1668, jump @2071\n      : @1540 [@dyn 834] (gas: 4)\n 39090: a1 = a1 + 0x641\n 39094: a2 = u64 [s1 + 0x188]\n 39098: u64 [a3 + 0x508] = a2\n 39102: ra = 1670, jump @24\n      : @1541 [@dyn 835] (gas: 3)\n 39109: a0 = u64 [s1 + 0x1b0]\n 39113: a0 = i32 [a0]\n 39115: jump @1543 if a0 >u 63\n      : @1542 (gas: 4)\n 39119: a0 = u64 [s1 + 0x1b0]\n 39123: u32 [a0 + 0] = 0x40\n 39126: t0 = 0x688\n 39130: jump @2064\n      : @1543 (gas: 1)\n 39133: t0 = 1672, jump @2064\n      : @1544 [@dyn 836] (gas: 22)\n 39139: ecalli 9 // 'hash_keccak_256'\n 39141: a3 = u64 [s1 + 0x188]\n 39145: a0 = u64 [a3 + 0x18]\n 39148: a1 = u64 [a3 + 0x10]\n 39151: a2 = u64 [a3 + 0x8]\n 39154: a3 = u64 [a3]\n 39156: a5 = reverse a0\n 39158: a4 = reverse a1\n 39160: a0 = reverse a2\n 39162: a2 = reverse a3\n 39164: a1 = u64 [s1 + 0x190]\n 39168: u64 [s1 + 0x180] = a2\n 39172: u64 [a1 + 0x18] = a2\n 39175: u64 [s1 + 0x188] = a0\n 39179: u64 [a1 + 0x10] = a0\n 39182: u64 [s1 + 0x178] = a4\n 39186: u64 [a1 + 0x8] = a4\n 39189: u64 [s1 + 0x170] = a5\n 39193: u64 [a1] = a5\n 39195: a0 = s1 + 0x7ff\n 39199: a0 = a0 + 0x621\n 39203: ra = 1674, jump @26\n      : @1545 [@dyn 837] (gas: 13)\n 39210: a2 = s1 + 0x7ff\n 39214: a2 = a2 + 0x139\n 39218: a3 = a2 + 0x400\n 39222: a0 = u64 [a3 + 0xf0]\n 39226: a1 = u64 [a3 + 0xf8]\n 39230: a2 = u64 [a3 + 0xe8]\n 39234: a0 = a0 & 0xffffffffffffffff\n 39237: a1 = a1 & 0xffffffffffffffff\n 39240: a3 = u64 [s1 + 0x150]\n 39244: a2 = a2 & a3\n 39247: a1 = a1 | a2\n 39250: a0 = a0 | a1\n 39253: jump @1576 if a0 == 0\n      : @1546 (gas: 6)\n 39257: a5 = s1 + 0x100\n 39261: a1 = u64 [a5 + 0x70]\n 39264: a0 = a1 + 0x2\n 39267: a1 = a0 <u a1\n 39270: a3 = u64 [a5 + 0x78]\n 39273: t0 = 1676, jump @2023\n      : @1547 [@dyn 838] (gas: 14)\n 39279: a1 = u64 [a5 + 0x88]\n 39283: a3 = a3 + a1\n 39286: a1 = a3 <u a1\n 39289: a4 = u64 [a5 + 0x80]\n 39293: a1 = a1 + a4\n 39296: a4 = s1 + 0x3998\n 39300: u64 [a4 + 0xc8] = a0\n 39304: u64 [a4 + 0xd0] = a2\n 39308: u64 [a4 + 0xd8] = a3\n 39312: u64 [a4 + 0xe0] = a1\n 39316: a0 = s1 + 0x7ff\n 39320: a0 = a0 + 0x601\n 39324: a1 = s1 + 0x3a60\n 39328: ra = 1678, jump @26\n      : @1548 [@dyn 839] (gas: 5)\n 39335: a0 = s1 + 0x7ff\n 39339: a0 = a0 + 0x139\n 39343: a0 = u64 [a0 + 0x4d0]\n 39347: a0 = a0 & 0xff\n 39351: jump @1576 if a0 != 0\n      : @1549 (gas: 14)\n 39355: a2 = s1 + 0x7ff\n 39359: a2 = a2 + 0x139\n 39363: u64 [a2 + 1216] = 0\n 39367: a0 = u64 [s1 + 0x130]\n 39371: a3 = a2 + 0x400\n 39375: u64 [a3 + 0xa8] = a0\n 39379: a0 = u64 [s1 + 0x138]\n 39383: u64 [a3 + 0xb0] = a0\n 39387: a1 = s1 + 0x7ff\n 39391: a1 = a1 + 0x5e1\n 39395: a0 = u64 [s1 + 0x168]\n 39399: u64 [a3 + 0xb8] = a0\n 39403: a0 = 0\n 39405: ra = 1680, jump @24\n      : @1550 [@dyn 840] (gas: 11)\n 39412: a0 = s1 + 0x7ff\n 39416: a0 = a0 + 0x139\n 39420: u64 [a0 + 1184] = 0\n 39424: u64 [a0 + 1176] = 0\n 39428: u64 [a0 + 1168] = 0\n 39432: a3 = a0\n 39434: a0 = 0x20\n 39437: a1 = s1 + 0x7ff\n 39441: a1 = a1 + 0x5c1\n 39445: u64 [a3 + 1160] = 0x4\n 39450: ra = 1682, jump @24\n      : @1551 [@dyn 841] (gas: 3)\n 39457: a0 = u64 [s1 + 0x1b0]\n 39461: a0 = i32 [a0]\n 39463: jump @1553 if a0 >u 63\n      : @1552 (gas: 4)\n 39467: a0 = u64 [s1 + 0x1b0]\n 39471: u32 [a0 + 0] = 0x40\n 39474: t0 = 0x694\n 39478: jump @2028\n      : @1553 (gas: 1)\n 39481: t0 = 1684, jump @2028\n      : @1554 [@dyn 842] (gas: 3)\n 39487: ra = 0x696\n 39491: ecalli 9 // 'hash_keccak_256'\n 39493: fallthrough\n      : @1555 [@dyn 843] (gas: 8)\n 39494: a3 = u64 [s1 + 0x190]\n 39498: a0 = u64 [a3 + 0x18]\n 39501: a1 = u64 [a3 + 0x10]\n 39504: a2 = u64 [a3 + 0x8]\n 39507: a3 = u64 [a3]\n 39509: a0 = reverse a0\n 39511: u64 [s1 + 0x190] = a0\n 39515: t0 = 1688, jump @2068\n      : @1556 [@dyn 844] (gas: 11)\n 39521: a2 = s1 + 0x7ff\n 39525: a2 = a2 + 0x139\n 39529: u64 [a2 + 1152] = 0\n 39533: u64 [a2 + 1144] = 0\n 39537: u64 [a2 + 1136] = 0\n 39541: a1 = s1 + 0x7ff\n 39545: a1 = a1 + 0x5a1\n 39549: a0 = u64 [s1 + 0x128]\n 39553: u64 [a2 + 0x468] = a0\n 39557: a0 = 0\n 39559: ra = 1690, jump @24\n      : @1557 [@dyn 845] (gas: 16)\n 39566: a0 = u64 [s1 + 0x178]\n 39570: a1 = s1 + 0x7ff\n 39574: a1 = a1 + 0x139\n 39578: a2 = a1 + 0x400\n 39582: u64 [a2 + 0x60] = a0\n 39585: a0 = u64 [s1 + 0x180]\n 39589: u64 [a2 + 0x58] = a0\n 39592: a0 = u64 [s1 + 0x188]\n 39596: u64 [a2 + 0x50] = a0\n 39599: a3 = a1\n 39601: a0 = 0x20\n 39604: a1 = s1 + 0x7ff\n 39608: a1 = a1 + 0x581\n 39612: a2 = u64 [s1 + 0x190]\n 39616: u64 [a3 + 0x448] = a2\n 39620: ra = 1692, jump @24\n      : @1558 [@dyn 846] (gas: 3)\n 39627: a0 = u64 [s1 + 0x1b0]\n 39631: a0 = i32 [a0]\n 39633: jump @1560 if a0 >u 63\n      : @1559 (gas: 4)\n 39637: a0 = u64 [s1 + 0x1b0]\n 39641: u32 [a0 + 0] = 0x40\n 39644: t0 = 0x69e\n 39648: jump @2028\n      : @1560 (gas: 1)\n 39651: t0 = 1694, jump @2028\n      : @1561 [@dyn 847] (gas: 4)\n 39657: ra = 0x6a0\n 39661: ecalli 9 // 'hash_keccak_256'\n 39663: t0 = 0x6a2\n 39667: jump @2008\n      : @1562 [@dyn 848] (gas: 1)\n 39670: t0 = 1698, jump @2008\n      : @1563 [@dyn 849] (gas: 10)\n 39676: a3 = a2 + 0x400\n 39680: u64 [a3 + 0x40] = a0\n 39683: u64 [a3 + 0x38] = a0\n 39686: u64 [a3 + 0x30] = a0\n 39689: a1 = s1 + 0x7ff\n 39693: a1 = a1 + 0x561\n 39697: a0 = u64 [s1 + 0x1b8]\n 39701: u64 [a3 + 0x28] = a0\n 39704: a0 = 0\n 39706: ra = 1700, jump @24\n      : @1564 [@dyn 850] (gas: 5)\n 39713: a0 = u64 [s1 + 0x170]\n 39717: a1 = s1 + 0x7ff\n 39721: a1 = a1 + 0x139\n 39725: a2 = a1 + 0x400\n 39729: t0 = 1702, jump @2071\n      : @1565 [@dyn 851] (gas: 4)\n 39735: a1 = a1 + 0x541\n 39739: a2 = u64 [s1 + 0x188]\n 39743: u64 [a3 + 0x408] = a2\n 39747: ra = 1704, jump @24\n      : @1566 [@dyn 852] (gas: 3)\n 39754: a0 = u64 [s1 + 0x1b0]\n 39758: a0 = i32 [a0]\n 39760: jump @1568 if a0 >u 63\n      : @1567 (gas: 4)\n 39764: a0 = u64 [s1 + 0x1b0]\n 39768: u32 [a0 + 0] = 0x40\n 39771: t0 = 0x6aa\n 39775: jump @2064\n      : @1568 (gas: 1)\n 39778: t0 = 1706, jump @2064\n      : @1569 [@dyn 853] (gas: 5)\n 39784: ra = 0x6ac\n 39788: ecalli 9 // 'hash_keccak_256'\n 39790: a3 = u64 [s1 + 0x188]\n 39794: t0 = 0x6ae\n 39798: jump @2039\n      : @1570 [@dyn 854] (gas: 2)\n 39801: a3 = u64 [s1 + 0x188]\n 39805: t0 = 1710, jump @2039\n      : @1571 [@dyn 855] (gas: 3)\n 39811: a0 = s1 + 0x7ff\n 39815: a0 = a0 + 0x521\n 39819: ra = 1712, jump @26\n      : @1572 [@dyn 856] (gas: 5)\n 39826: a0 = s1 + 0x7ff\n 39830: a0 = a0 + 0x139\n 39834: a0 = u64 [a0 + 0x3e8]\n 39838: a1 = a0 & 0xff\n 39842: jump @1576 if a1 == 0\n      : @1573 (gas: 2)\n 39846: a0 = a0 & 0xff0000\n 39852: jump @1576 if a0 != 0\n      : @1574 (gas: 32)\n 39856: a3 = s1 + 0x7ff\n 39860: a3 = a3 + 0x139\n 39864: a0 = u64 [s1 + 0x1b8]\n 39868: a5 = a3 + 0x300\n 39872: u64 [a5 + 0x88] = a0\n 39876: a0 = u64 [s1 + 0x128]\n 39880: u64 [a5 + 0xa8] = a0\n 39884: a0 = u64 [s1 + 0x130]\n 39888: u64 [a5 + 0xc8] = a0\n 39892: a1 = u64 [s1 + 0x1a8]\n 39896: u64 [a5 + 0x90] = a1\n 39900: a0 = u64 [s1 + 0x100]\n 39904: u64 [a5 + 0xb0] = a0\n 39908: a0 = u64 [s1 + 0x138]\n 39912: u64 [a5 + 0xd0] = a0\n 39916: u64 [a5 + 0x98] = a1\n 39920: a0 = u64 [s1 + 0x108]\n 39924: u64 [a5 + 0xb8] = a0\n 39928: a0 = u64 [s1 + 0x120]\n 39932: u64 [a5 + 0xd8] = a0\n 39936: u64 [a5 + 0xa0] = a1\n 39940: a0 = u64 [s1 + 0x110]\n 39944: u64 [a5 + 0xc0] = a0\n 39948: a0 = s1 + 0x7ff\n 39952: a0 = a0 + 0x501\n 39956: a1 = s1 + 0x7ff\n 39960: a1 = a1 + 0x4e1\n 39964: a2 = s1 + 0x7ff\n 39968: a2 = a2 + 0x4c1\n 39972: a4 = u64 [s1 + 0x118]\n 39976: u64 [a5 + 0xe0] = a4\n 39980: ra = 1714, jump @1869\n      : @1575 [@dyn 857] (gas: 7)\n 39986: a2 = s1 + 0x100\n 39990: a0 = u64 [a2 + 0x60]\n 39993: a0 = a0 + 0x1\n 39996: a1 = u64 [a2 + 0x98]\n 40000: a0 = a0 & a1\n 40003: u64 [a2 + 0x60] = a0\n 40006: fallthrough\n      : @1576 (gas: 6)\n 40007: u64 [s1 + 424] = 0\n 40011: a0 = u64 [s1 + 0x1b8]\n 40015: a0 = a0 + 0x1\n 40018: a1 = u64 [s1 + 0x198]\n 40022: a0 = a0 & a1\n 40025: jump @1529\n      : @1577 (gas: 11)\n 40028: a2 = s1 + 0x7ff\n 40032: a2 = a2 + 0x139\n 40036: u64 [a2 + 1560] = 0\n 40040: u64 [a2 + 1552] = 0\n 40044: a0 = 0xcf114bd900000000\n 40054: u64 [a2 + 0x620] = a0\n 40058: a1 = s1 + 0x7ff\n 40062: a1 = a1 + 0x741\n 40066: u64 [a2 + 1544] = 0\n 40070: a0 = 0\n 40072: ra = 1716, jump @24\n      : @1578 [@dyn 858] (gas: 2)\n 40079: a1 = i32 [0x20180]\n 40084: jump @1580 if a1 >u 31\n      : @1579 (gas: 3)\n 40088: u32 [0x20180] = 0x20\n 40094: a1 = 0x20190\n 40099: jump @1227\n      : @1580 (gas: 2)\n 40102: a1 = 0x20190\n 40107: jump @1227\n      : @1581 (gas: 11)\n 40110: a2 = s1 + 0x7ff\n 40114: a2 = a2 + 0x139\n 40118: u64 [a2 + 1528] = 0\n 40122: u64 [a2 + 1520] = 0\n 40126: a0 = 0x7862e95900000000\n 40136: u64 [a2 + 0x600] = a0\n 40140: a1 = s1 + 0x7ff\n 40144: a1 = a1 + 0x721\n 40148: u64 [a2 + 1512] = 0\n 40152: a0 = 0\n 40154: ra = 1718, jump @24\n      : @1582 [@dyn 859] (gas: 2)\n 40161: a1 = i32 [0x20180]\n 40166: jump @1584 if a1 >u 31\n      : @1583 (gas: 3)\n 40170: u32 [0x20180] = 0x20\n 40176: a1 = 0x20190\n 40181: jump @1227\n      : @1584 (gas: 2)\n 40184: a1 = 0x20190\n 40189: jump @1227\n      : @1585 (gas: 3)\n 40192: a0 = 0\n 40194: a1 = u64 [s1 + 0x1a0]\n 40198: jump @1329\n      : @1586 [@dyn 860] (gas: 2)\n 40201: ecalli 3 // 'call_data_load'\n 40203: fallthrough\n      : @1587 (gas: 10)\n 40204: a0 = u64 [sp + 0x10]\n 40207: a1 = u64 [sp + 0x18]\n 40210: a2 = 0x100000000\n 40220: a2 = a2 ^ a0\n 40223: a2 = a2 | a1\n 40226: a3 = a0 >> 0x20\n 40229: a3 = a3 <u 0x1\n 40232: a3 = 0 if a1 != 0\n 40234: a3 = 0 if a2 == 0\n 40236: jump @1589 if a3 == 0\n      : @1588 (gas: 12)\n 40239: a2 = u64 [sp]\n 40241: a3 = u64 [sp + 0x8]\n 40244: u64 [s1] = a2\n 40246: u64 [s1 + 0x8] = a3\n 40249: u64 [s1 + 0x10] = a0\n 40252: u64 [s1 + 0x18] = a1\n 40255: sp = s0 + 0xffffffffffffffc0\n 40258: ra = u64 [sp + 0x38]\n 40261: s0 = u64 [sp + 0x30]\n 40264: s1 = u64 [sp + 0x28]\n 40267: sp = sp + 0x40\n 40270: ret\n      : @1589 (gas: 8)\n 40272: a1 = 0x20190\n 40277: i32 a1 = a1 + 0\n 40279: a0 = 0x1\n 40282: a2 = 0\n 40284: ra = 0x6ba\n 40288: ecalli 14 // 'seal_return'\n 40290: t0 = 0x6bc\n 40294: jump @2074\n      : @1590 [@dyn 861] (gas: 1)\n 40297: t0 = 1724, jump @2074\n      : @1591 [@dyn 862] (gas: 2)\n 40303: ecalli 3 // 'call_data_load'\n 40305: fallthrough\n      : @1592 (gas: 7)\n 40306: a0 = u64 [sp + 0x18]\n 40309: a1 = u64 [sp + 0x10]\n 40312: a2 = u64 [sp + 0x8]\n 40315: a3 = a1 | a0\n 40318: a4 = a2 <u 0x1\n 40321: a4 = 0 if a3 != 0\n 40323: jump @1595 if a4 == 0\n      : @1593 (gas: 2)\n 40326: a3 = u64 [sp]\n 40328: t0 = 1726, jump @2022\n      : @1594 [@dyn 863] (gas: 1)\n 40334: ret\n      : @1595 (gas: 7)\n 40336: a1 = 0x20190\n 40341: i32 a1 = a1 + 0\n 40343: a0 = 0x1\n 40346: a2 = 0\n 40348: ra = 0x6c0\n 40352: ecalli 14 // 'seal_return'\n 40354: fallthrough\n      : @1596 [@dyn 864] (gas: 13)\n 40355: sp = sp + 0xffffffffffffffc0\n 40358: u64 [sp + 0x38] = ra\n 40361: u64 [sp + 0x30] = s0\n 40364: u64 [sp + 0x28] = s1\n 40367: s0 = sp + 0x40\n 40370: sp = sp & 0xffffffffffffffe0\n 40373: s1 = a0\n 40375: i32 a0 = sp + 0\n 40377: a1 = 0x44\n 40380: ra = 0x6c2\n 40384: ecalli 3 // 'call_data_load'\n 40386: t0 = 0x6c4\n 40390: jump @2027\n      : @1597 [@dyn 865] (gas: 1)\n 40393: t0 = 1732, jump @2027\n      : @1598 [@dyn 866] (gas: 1)\n 40399: jump @1601 if a4 != 0\n      : @1599 (gas: 1)\n 40402: t0 = 1734, jump @2022\n      : @1600 [@dyn 867] (gas: 1)\n 40408: ret\n      : @1601 (gas: 8)\n 40410: a1 = 0x20190\n 40415: i32 a1 = a1 + 0\n 40417: a0 = 0x1\n 40420: a2 = 0\n 40422: ra = 0x6c8\n 40426: ecalli 14 // 'seal_return'\n 40428: t0 = 0x6ca\n 40432: jump @2074\n      : @1602 [@dyn 868] (gas: 1)\n 40435: t0 = 1738, jump @2074\n      : @1603 [@dyn 869] (gas: 4)\n 40441: ra = 0x6cc\n 40445: ecalli 3 // 'call_data_load'\n 40447: t0 = 0x6ce\n 40451: jump @2027\n      : @1604 [@dyn 870] (gas: 1)\n 40454: t0 = 1742, jump @2027\n      : @1605 [@dyn 871] (gas: 1)\n 40460: jump @1608 if a4 != 0\n      : @1606 (gas: 1)\n 40463: t0 = 1744, jump @2022\n      : @1607 [@dyn 872] (gas: 1)\n 40469: ret\n      : @1608 (gas: 8)\n 40471: a1 = 0x20190\n 40476: i32 a1 = a1 + 0\n 40478: a0 = 0x1\n 40481: a2 = 0\n 40483: ra = 0x6d2\n 40487: ecalli 14 // 'seal_return'\n 40489: t0 = 0x6d4\n 40493: jump @2079\n      : @1609 [@dyn 873] (gas: 1)\n 40496: t0 = 1748, jump @2079\n      : @1610 [@dyn 874] (gas: 4)\n 40502: ra = 0x6d6\n 40506: ecalli 3 // 'call_data_load'\n 40508: t0 = 0x6d8\n 40512: jump @2027\n      : @1611 [@dyn 875] (gas: 1)\n 40515: t0 = 1752, jump @2027\n      : @1612 [@dyn 876] (gas: 1)\n 40521: jump @1615 if a4 != 0\n      : @1613 (gas: 1)\n 40524: t0 = 1754, jump @2022\n      : @1614 [@dyn 877] (gas: 1)\n 40530: ret\n      : @1615 (gas: 7)\n 40532: a1 = 0x20190\n 40537: i32 a1 = a1 + 0\n 40539: a0 = 0x1\n 40542: a2 = 0\n 40544: ra = 0x6dc\n 40548: ecalli 14 // 'seal_return'\n 40550: fallthrough\n      : @1616 [@dyn 878] (gas: 21)\n 40551: sp = sp + 0xffffffffffffff10\n 40555: u64 [sp + 0xe8] = ra\n 40559: u64 [sp + 0xe0] = s0\n 40563: u64 [sp + 0xd8] = s1\n 40567: s0 = sp + 0xf0\n 40571: sp = sp & 0xfffffffffffffff0\n 40574: a5 = u64 [a1 + 0x10]\n 40577: a4 = u64 [a1 + 0x18]\n 40580: a3 = u64 [a1 + 0x8]\n 40583: a1 = u64 [a1]\n 40585: u64 [sp + 0x28] = a3\n 40588: u64 [sp + 0x18] = a4\n 40591: a4 = a4 | a3\n 40594: a3 = a1 | a5\n 40597: a3 = a3 | a4\n 40600: a3 = a3 >> 0x20\n 40603: u64 [sp + 0x20] = a5\n 40606: a4 = a4 | a5\n 40609: a4 = a4 << 0x20\n 40612: a3 = a3 | a4\n 40615: jump @1631 if a3 != 0\n      : @1617 (gas: 11)\n 40619: u64 [sp + 0x8] = a0\n 40622: a0 = u64 [a2 + 0x18]\n 40625: u64 [sp + 0x68] = a0\n 40628: s1 = u64 [a2 + 0x10]\n 40631: a0 = u64 [a2 + 0x8]\n 40634: u64 [sp + 0x60] = a0\n 40637: a0 = u64 [a2]\n 40639: u64 [sp + 0x58] = a0\n 40642: a0 = sp + 0xb0\n 40646: u64 [sp + 0x10] = a1\n 40649: ra = 1758, jump @22\n      : @1618 [@dyn 879] (gas: 12)\n 40656: a0 = u64 [sp + 0x58]\n 40659: a2 = a0 | s1\n 40662: a1 = u64 [sp + 0x68]\n 40665: a3 = u64 [sp + 0x60]\n 40668: a1 = a1 | a3\n 40671: a2 = a2 | a1\n 40674: a2 = a2 >> 0x20\n 40677: u64 [sp + 0x50] = s1\n 40680: a1 = a1 | s1\n 40683: a1 = a1 << 0x20\n 40686: a1 = a1 | a2\n 40689: jump @1631 if a1 != 0\n      : @1619 (gas: 15)\n 40693: a2 = u64 [sp + 0xc8]\n 40697: a3 = u64 [sp + 0xc0]\n 40701: a4 = u64 [sp + 0xb8]\n 40705: a1 = u64 [sp + 0xb0]\n 40709: u64 [sp + 0x30] = a1\n 40712: u64 [sp + 0x90] = a1\n 40716: u64 [sp + 0x38] = a4\n 40719: u64 [sp + 0x98] = a4\n 40723: u64 [sp + 0x40] = a3\n 40726: u64 [sp + 0xa0] = a3\n 40730: a1 = sp + 0x90\n 40734: u64 [sp + 0x48] = a2\n 40737: u64 [sp + 0xa8] = a2\n 40741: s1 = a0\n 40743: ra = 1760, jump @24\n      : @1620 [@dyn 880] (gas: 9)\n 40750: a0 = u64 [sp + 0x68]\n 40753: a1 = u64 [sp + 0x50]\n 40756: a1 = a1 | a0\n 40759: a0 = 0xffffffe0\n 40769: a2 = s1 <u a0\n 40772: a3 = u64 [sp + 0x60]\n 40775: a2 = 0 if a3 != 0\n 40777: a2 = 0 if a1 != 0\n 40779: jump @1631 if a2 == 0\n      : @1621 (gas: 9)\n 40783: a1 = u64 [sp + 0x20]\n 40786: a2 = u64 [sp + 0x18]\n 40789: a1 = a1 | a2\n 40792: a2 = u64 [sp + 0x10]\n 40795: a0 = a2 <u a0\n 40798: a3 = u64 [sp + 0x28]\n 40801: a0 = 0 if a3 != 0\n 40803: a0 = 0 if a1 != 0\n 40805: jump @1631 if a0 == 0\n      : @1622 (gas: 13)\n 40809: a5 = s1\n 40811: s1 = u64 [sp + 0x30]\n 40814: a3 = u64 [sp + 0x40]\n 40817: a0 = s1 | a3\n 40820: a1 = u64 [sp + 0x48]\n 40823: a4 = u64 [sp + 0x38]\n 40826: a1 = a1 | a4\n 40829: a0 = a0 | a1\n 40832: a0 = a0 >> 0x20\n 40835: a1 = a1 | a3\n 40838: a1 = a1 << 0x20\n 40841: a0 = a0 | a1\n 40844: jump @1631 if a0 != 0\n      : @1623 (gas: 5)\n 40848: i32 a0 = a5 + 0x20\n 40851: i32 a1 = a2 + 0x20\n 40854: u64 [sp + 0x28] = a1\n 40857: a1 = s1\n 40859: ra = 1762, jump @37\n      : @1624 [@dyn 881] (gas: 4)\n 40866: u64 [sp + 0x20] = a0\n 40869: a0 = u64 [sp + 0x28]\n 40872: a1 = s1\n 40874: ra = 1764, jump @37\n      : @1625 [@dyn 882] (gas: 4)\n 40881: a1 = a0\n 40883: a0 = u64 [sp + 0x20]\n 40886: a2 = s1\n 40888: ra = 1766, jump @0\n      : @1626 [@dyn 883] (gas: 7)\n 40895: a0 = u64 [sp + 0x58]\n 40898: a0 = a0 + s1\n 40901: a1 = a0 <u s1\n 40904: a2 = u64 [sp + 0x60]\n 40907: a4 = u64 [sp + 0x38]\n 40910: a2 = a2 + a4\n 40913: t0 = 1768, jump @2057\n      : @1627 [@dyn 884] (gas: 17)\n 40919: a1 = u64 [sp + 0x50]\n 40922: a3 = u64 [sp + 0x40]\n 40925: a1 = a1 + a3\n 40928: a3 = a1 <u a3\n 40931: a5 = u64 [sp + 0x68]\n 40934: s1 = u64 [sp + 0x48]\n 40937: a5 = a5 + s1\n 40940: a3 = a3 + a5\n 40943: a4 = a4 + a1\n 40946: a1 = a4 <u a1\n 40949: a1 = a1 + a3\n 40952: a1 = a1 | a4\n 40955: a3 = 0xffffffe0\n 40965: a3 = a0 <u a3\n 40968: a3 = 0 if a2 != 0\n 40970: a3 = 0 if a1 != 0\n 40972: jump @1631 if a3 == 0\n      : @1628 (gas: 7)\n 40976: i32 a0 = a0 + 0x20\n 40979: u64 [sp + 136] = 0\n 40983: u64 [sp + 128] = 0\n 40987: u64 [sp + 120] = 0\n 40990: a1 = sp + 0x70\n 40993: u64 [sp + 112] = 0\n 40996: ra = 1770, jump @24\n      : @1629 [@dyn 885] (gas: 9)\n 41003: s1 = u64 [sp + 0x30]\n 41006: s1 = s1 + 0x1f\n 41009: a0 = 0x1ffffffe0\n 41019: a0 = a0 & s1\n 41022: a1 = u64 [sp + 0x58]\n 41025: a0 = a0 + a1\n 41028: a1 = a0 <u a1\n 41031: a3 = u64 [sp + 0x60]\n 41034: t0 = 1772, jump @2023\n      : @1630 [@dyn 886] (gas: 24)\n 41040: a1 = u64 [sp + 0x50]\n 41043: a3 = a3 + a1\n 41046: a1 = a3 <u a1\n 41049: a4 = u64 [sp + 0x68]\n 41052: a1 = a1 + a4\n 41055: a4 = a0 + 0x20\n 41058: a0 = a4 <u a0\n 41061: a5 = a2 + a0\n 41064: a2 = a5 <u a2\n 41067: a2 = a0 if a0 == 0\n 41070: a2 = a2 + a3\n 41073: a0 = a2 <u a3\n 41076: a0 = a0 + a1\n 41079: a1 = u64 [sp + 0x8]\n 41082: u64 [a1] = a4\n 41084: u64 [a1 + 0x8] = a5\n 41087: u64 [a1 + 0x10] = a2\n 41090: u64 [a1 + 0x18] = a0\n 41093: sp = s0 + 0xffffffffffffff10\n 41097: ra = u64 [sp + 0xe8]\n 41101: s0 = u64 [sp + 0xe0]\n 41105: s1 = u64 [sp + 0xd8]\n 41109: sp = sp + 0xf0\n 41113: ret\n      : @1631 (gas: 1)\n 41115: trap\n      : @1632 (gas: 23)\n 41116: sp = sp + 0xfffffffffffffdd0\n 41120: a3 = sp + 0x200\n 41124: u64 [a3 + 0x28] = ra\n 41127: u64 [a3 + 0x20] = s0\n 41130: u64 [a3 + 0x18] = s1\n 41133: s0 = sp + 0x230\n 41137: sp = sp & 0xfffffffffffffff0\n 41140: a5 = u64 [a1 + 0x10]\n 41143: a4 = u64 [a1 + 0x18]\n 41146: a3 = u64 [a1 + 0x8]\n 41149: a1 = u64 [a1]\n 41151: u64 [sp + 0x58] = a3\n 41154: u64 [sp + 0x38] = a4\n 41157: a4 = a4 | a3\n 41160: a3 = a1 | a5\n 41163: a3 = a3 | a4\n 41166: a3 = a3 >> 0x20\n 41169: u64 [sp + 0x40] = a5\n 41172: a4 = a4 | a5\n 41175: a4 = a4 << 0x20\n 41178: a3 = a3 | a4\n 41181: u64 [sp + 0x28] = a0\n 41184: jump @1661 if a3 != 0\n      : @1633 (gas: 10)\n 41188: a0 = u64 [a2 + 0x18]\n 41191: u64 [sp + 0x48] = a0\n 41194: s1 = u64 [a2 + 0x10]\n 41197: a0 = u64 [a2 + 0x8]\n 41200: u64 [sp + 0x60] = a0\n 41203: a0 = u64 [a2]\n 41205: u64 [sp + 0x68] = a0\n 41208: a0 = sp + 0x1f0\n 41212: u64 [sp + 0x50] = a1\n 41215: ra = 1774, jump @22\n      : @1634 [@dyn 887] (gas: 12)\n 41222: a0 = u64 [sp + 0x68]\n 41225: a0 = a0 | s1\n 41228: a1 = u64 [sp + 0x48]\n 41231: a2 = u64 [sp + 0x60]\n 41234: a1 = a1 | a2\n 41237: a0 = a0 | a1\n 41240: a0 = a0 >> 0x20\n 41243: u64 [sp + 0x30] = s1\n 41246: a1 = a1 | s1\n 41249: a1 = a1 << 0x20\n 41252: a0 = a0 | a1\n 41255: jump @1661 if a0 != 0\n      : @1635 (gas: 10)\n 41259: a0 = u64 [sp + 0x1f0]\n 41263: a0 = a0 << 0x20\n 41266: a0 = a0 >> 0x20\n 41269: u64 [sp + 488] = 0\n 41273: u64 [sp + 480] = 0\n 41277: u64 [sp + 472] = 0\n 41281: a1 = sp + 0x1d0\n 41285: u64 [sp + 0x1d0] = a0\n 41289: a0 = u64 [sp + 0x68]\n 41292: ra = 1776, jump @24\n      : @1636 [@dyn 888] (gas: 11)\n 41299: a0 = u64 [sp + 0x40]\n 41302: a3 = u64 [sp + 0x38]\n 41305: a3 = a3 | a0\n 41308: s1 = 0xffffffe0\n 41318: a1 = u64 [sp + 0x50]\n 41321: a0 = a1 <u s1\n 41324: a2 = u64 [sp + 0x58]\n 41327: a0 = 0 if a2 != 0\n 41329: u64 [sp + 0x40] = a3\n 41332: a0 = 0 if a3 != 0\n 41334: jump @1661 if a0 == 0\n      : @1637 (gas: 3)\n 41338: i32 a1 = a1 + 0x20\n 41341: a0 = sp + 0x1b0\n 41345: ra = 1778, jump @22\n      : @1638 [@dyn 889] (gas: 10)\n 41352: a0 = u64 [sp + 0x48]\n 41355: a2 = u64 [sp + 0x30]\n 41358: a2 = a2 | a0\n 41361: a0 = u64 [sp + 0x68]\n 41364: a0 = a0 <u s1\n 41367: a1 = u64 [sp + 0x60]\n 41370: a0 = 0 if a1 != 0\n 41372: u64 [sp + 0x38] = a2\n 41375: a0 = 0 if a2 != 0\n 41377: jump @1661 if a0 == 0\n      : @1639 (gas: 13)\n 41381: a0 = u64 [sp + 0x1c0]\n 41385: a1 = u64 [sp + 0x1b8]\n 41389: a2 = u64 [sp + 0x1b0]\n 41393: a0 = a0 << 0x20\n 41396: a3 = a0 >> 0x20\n 41399: a0 = u64 [sp + 0x68]\n 41402: i32 a0 = a0 + 0x20\n 41405: u64 [sp + 424] = 0\n 41409: u64 [sp + 0x190] = a2\n 41413: u64 [sp + 0x198] = a1\n 41417: a1 = sp + 0x190\n 41421: u64 [sp + 0x1a0] = a3\n 41425: ra = 1780, jump @24\n      : @1640 [@dyn 890] (gas: 2)\n 41432: s1 = 0xffffffc0\n 41442: t0 = 1782, jump @2054\n      : @1641 [@dyn 891] (gas: 1)\n 41448: jump @1661 if a0 == 0\n      : @1642 (gas: 3)\n 41452: i32 a1 = a1 + 0x40\n 41455: a0 = sp + 0x170\n 41459: ra = 1784, jump @22\n      : @1643 [@dyn 892] (gas: 1)\n 41466: t0 = 1786, jump @2051\n      : @1644 [@dyn 893] (gas: 1)\n 41472: jump @1661 if a0 == 0\n      : @1645 (gas: 16)\n 41476: a0 = u64 [sp + 0x188]\n 41480: u64 [sp + 0x8] = a0\n 41483: a0 = u64 [sp + 0x180]\n 41487: u64 [sp + 0x10] = a0\n 41490: a0 = u64 [sp + 0x178]\n 41494: u64 [sp + 0x18] = a0\n 41497: a0 = u64 [sp + 0x170]\n 41501: u64 [sp + 0x20] = a0\n 41504: s1 = u64 [sp + 0x68]\n 41507: i32 a0 = s1 + 0x40\n 41510: u64 [sp + 360] = 0\n 41514: u64 [sp + 352] = 0\n 41518: u64 [sp + 336] = 0xa0\n 41524: a1 = sp + 0x150\n 41528: u64 [sp + 344] = 0\n 41532: ra = 1788, jump @24\n      : @1646 [@dyn 894] (gas: 4)\n 41539: a0 = s1 + 0xa0\n 41543: a1 = a0 <u s1\n 41546: a3 = u64 [sp + 0x60]\n 41549: t0 = 1790, jump @2023\n      : @1647 [@dyn 895] (gas: 21)\n 41555: a1 = u64 [sp + 0x30]\n 41558: a3 = a3 + a1\n 41561: a1 = a3 <u a1\n 41564: a4 = u64 [sp + 0x48]\n 41567: a4 = a4 + a1\n 41570: u64 [sp + 0xf8] = a2\n 41574: u64 [sp + 0xf0] = a0\n 41578: a0 = u64 [sp + 0x8]\n 41581: u64 [sp + 0x128] = a0\n 41585: a0 = u64 [sp + 0x10]\n 41588: u64 [sp + 0x120] = a0\n 41592: a0 = u64 [sp + 0x18]\n 41595: u64 [sp + 0x118] = a0\n 41599: a0 = u64 [sp + 0x20]\n 41602: u64 [sp + 0x110] = a0\n 41606: u64 [sp + 0x100] = a3\n 41610: a0 = sp + 0x130\n 41614: a1 = sp + 0x110\n 41618: a2 = sp + 0xf0\n 41622: u64 [sp + 0x108] = a4\n 41626: ra = 1792, jump @1616\n      : @1648 [@dyn 896] (gas: 2)\n 41632: s1 = 0xffffffa0\n 41642: t0 = 1794, jump @2054\n      : @1649 [@dyn 897] (gas: 1)\n 41648: jump @1661 if a0 == 0\n      : @1650 (gas: 11)\n 41652: a0 = u64 [sp + 0x148]\n 41656: u64 [sp + 0x18] = a0\n 41659: a0 = u64 [sp + 0x140]\n 41663: u64 [sp + 0x20] = a0\n 41666: a0 = u64 [sp + 0x138]\n 41670: u64 [sp + 0x30] = a0\n 41673: a0 = u64 [sp + 0x130]\n 41677: u64 [sp + 0x48] = a0\n 41680: i32 a1 = a1 + 0x60\n 41683: a0 = sp + 0xd0\n 41687: ra = 1796, jump @22\n      : @1651 [@dyn 898] (gas: 1)\n 41694: t0 = 1798, jump @2051\n      : @1652 [@dyn 899] (gas: 1)\n 41700: jump @1661 if a0 == 0\n      : @1653 (gas: 9)\n 41704: a1 = u64 [sp + 0xd0]\n 41708: a0 = u64 [sp + 0x68]\n 41711: i32 a0 = a0 + 0x60\n 41714: u64 [sp + 200] = 0\n 41718: u64 [sp + 192] = 0\n 41722: u64 [sp + 0xb0] = a1\n 41726: a1 = sp + 0xb0\n 41730: u64 [sp + 184] = 0\n 41734: ra = 1800, jump @24\n      : @1654 [@dyn 900] (gas: 2)\n 41741: s1 = 0xffffff80\n 41751: t0 = 1802, jump @2054\n      : @1655 [@dyn 901] (gas: 1)\n 41757: jump @1661 if a0 == 0\n      : @1656 (gas: 3)\n 41761: i32 a1 = a1 + 0x80\n 41765: a0 = sp + 0x90\n 41769: ra = 1804, jump @22\n      : @1657 [@dyn 902] (gas: 1)\n 41776: t0 = 1806, jump @2051\n      : @1658 [@dyn 903] (gas: 1)\n 41782: jump @1661 if a0 == 0\n      : @1659 (gas: 16)\n 41785: a0 = u64 [sp + 0xa8]\n 41789: a1 = u64 [sp + 0xa0]\n 41793: a2 = u64 [sp + 0x90]\n 41797: a3 = u64 [sp + 0x98]\n 41801: a1 = a1 | a2\n 41804: a0 = a0 | a3\n 41807: a0 = a0 | a1\n 41810: a1 = a0 >u 0\n 41812: a0 = u64 [sp + 0x68]\n 41815: i32 a0 = a0 + 0x80\n 41819: u64 [sp + 136] = 0\n 41823: u64 [sp + 128] = 0\n 41827: u64 [sp + 0x70] = a1\n 41830: a1 = sp + 0x70\n 41833: u64 [sp + 120] = 0\n 41836: ra = 1808, jump @24\n      : @1660 [@dyn 904] (gas: 16)\n 41843: a0 = u64 [sp + 0x28]\n 41846: a1 = u64 [sp + 0x18]\n 41849: u64 [a0 + 0x18] = a1\n 41852: a1 = u64 [sp + 0x20]\n 41855: u64 [a0 + 0x10] = a1\n 41858: a1 = u64 [sp + 0x30]\n 41861: u64 [a0 + 0x8] = a1\n 41864: a1 = u64 [sp + 0x48]\n 41867: u64 [a0] = a1\n 41869: sp = s0 + 0xfffffffffffffdd0\n 41873: a0 = sp + 0x200\n 41877: ra = u64 [a0 + 0x28]\n 41880: s0 = u64 [a0 + 0x20]\n 41883: s1 = u64 [a0 + 0x18]\n 41886: sp = sp + 0x230\n 41890: ret\n      : @1661 (gas: 1)\n 41892: trap\n      : @1662 (gas: 22)\n 41893: sp = sp + 0xfffffffffffffdf0\n 41897: u64 [sp + 0x208] = ra\n 41901: u64 [sp + 0x200] = s0\n 41905: u64 [sp + 0x1f8] = s1\n 41909: s0 = sp + 0x210\n 41913: sp = sp & 0xfffffffffffffff0\n 41916: a3 = u64 [a1 + 0x18]\n 41919: a4 = u64 [a1 + 0x10]\n 41922: s1 = u64 [a1 + 0x8]\n 41925: a5 = u64 [a1]\n 41927: u64 [sp + 0x48] = a3\n 41930: u64 [sp + 0x50] = s1\n 41933: a1 = s1 | a3\n 41936: a3 = a5 | a4\n 41939: a3 = a3 | a1\n 41942: a3 = a3 >> 0x20\n 41945: u64 [sp + 0x40] = a4\n 41948: a1 = a1 | a4\n 41951: a1 = a1 << 0x20\n 41954: a1 = a1 | a3\n 41957: u64 [sp + 0x8] = a0\n 41960: jump @1678 if a1 != 0\n      : @1663 (gas: 15)\n 41964: a0 = u64 [a2 + 0x18]\n 41967: u64 [sp + 0xb0] = a0\n 41971: s1 = u64 [a2 + 0x10]\n 41974: a0 = u64 [a2 + 0x8]\n 41977: u64 [sp + 0xa8] = a0\n 41981: a0 = u64 [a2]\n 41983: u64 [sp + 0xa0] = a0\n 41987: u64 [sp + 488] = 0\n 41991: u64 [sp + 480] = 0\n 41995: u64 [sp + 472] = 0\n 41999: a1 = sp + 0x1d0\n 42003: u64 [sp + 464] = 0x20\n 42008: a0 = a5\n 42010: u64 [sp + 0x38] = a5\n 42013: ra = 1810, jump @24\n      : @1664 [@dyn 905] (gas: 12)\n 42020: a1 = u64 [sp + 0xa0]\n 42024: a0 = a1 | s1\n 42027: a2 = u64 [sp + 0xb0]\n 42031: a3 = u64 [sp + 0xa8]\n 42035: a2 = a2 | a3\n 42038: a0 = a0 | a2\n 42041: a0 = a0 >> 0x20\n 42044: u64 [sp + 0x90] = s1\n 42048: a2 = a2 | s1\n 42051: a2 = a2 << 0x20\n 42054: a0 = a0 | a2\n 42057: jump @1678 if a0 != 0\n      : @1665 (gas: 17)\n 42061: a0 = u64 [sp + 0x38]\n 42064: a2 = a0 + 0x20\n 42067: u64 [sp + 0xe0] = a2\n 42071: a0 = a2 <u a0\n 42074: a2 = u64 [sp + 0x50]\n 42077: a3 = a2 + a0\n 42080: u64 [sp + 0xe8] = a3\n 42084: s1 = a3 <u a2\n 42087: s1 = a0 if a0 == 0\n 42090: a0 = u64 [sp + 0x40]\n 42093: s1 = s1 + a0\n 42096: a0 = s1 <u a0\n 42099: a2 = u64 [sp + 0x48]\n 42102: a0 = a0 + a2\n 42105: u64 [sp + 0xd8] = a0\n 42109: a0 = sp + 0x1b0\n 42113: ra = 1812, jump @22\n      : @1666 [@dyn 906] (gas: 11)\n 42120: a0 = u64 [sp + 0xe0]\n 42124: a2 = a0 | s1\n 42127: a1 = u64 [sp + 0xe8]\n 42131: a3 = u64 [sp + 0xd8]\n 42135: a1 = a1 | a3\n 42138: a2 = a2 | a1\n 42141: a2 = a2 >> 0x20\n 42144: a1 = a1 | s1\n 42147: a1 = a1 << 0x20\n 42150: a1 = a1 | a2\n 42153: jump @1678 if a1 != 0\n      : @1667 (gas: 13)\n 42157: a3 = u64 [sp + 0x1c8]\n 42161: u64 [sp + 0x30] = a3\n 42164: a2 = u64 [sp + 0x1c0]\n 42168: u64 [sp + 0x28] = a2\n 42171: a1 = u64 [sp + 0x1b8]\n 42175: u64 [sp + 0x20] = a1\n 42178: s1 = u64 [sp + 0x1b0]\n 42182: u64 [sp + 0x190] = s1\n 42186: u64 [sp + 0x198] = a1\n 42190: u64 [sp + 0x1a0] = a2\n 42194: a1 = sp + 0x190\n 42198: u64 [sp + 0x1a8] = a3\n 42202: ra = 1814, jump @24\n      : @1668 [@dyn 907] (gas: 57)\n 42209: ra = 0\n 42211: a5 = 0\n 42213: u64 [sp + 184] = 0\n 42217: t0 = 0\n 42219: a0 = u64 [sp + 0x38]\n 42222: a3 = a0 + 0x40\n 42225: t1 = a3 <u a0\n 42228: a1 = u64 [sp + 0x50]\n 42231: a0 = a1 + t1\n 42234: a4 = a1\n 42236: a1 = s1 >> 0x3b\n 42239: t2 = u64 [sp + 0x20]\n 42242: a2 = t2 << 0x5\n 42245: a1 = a1 | a2\n 42248: u64 [sp + 0x18] = s1\n 42251: a2 = s1 << 0x5\n 42254: a1 = a1 + a0\n 42257: a2 = a2 + a3\n 42260: u64 [sp + 0xd8] = a3\n 42264: u64 [sp + 0xe0] = a2\n 42268: a2 = a2 <u a3\n 42271: a3 = a1 + a2\n 42274: a1 = a3 ^ a0\n 42277: u64 [sp + 0xe8] = a3\n 42281: a3 = a3 <u a0\n 42284: a3 = a2 if a1 == 0\n 42287: a1 = a0 <u a4\n 42290: a1 = t1 if t1 == 0\n 42293: a4 = u64 [sp + 0x28]\n 42296: t1 = a4 >> 0x3b\n 42299: a2 = u64 [sp + 0x30]\n 42302: a2 = a2 << 0x5\n 42305: t1 = a2 | t1\n 42308: a2 = t2 >> 0x3b\n 42311: a4 = a4 << 0x5\n 42314: s1 = a4 | a2\n 42317: a4 = a0\n 42319: a0 = u64 [sp + 0x40]\n 42322: a2 = a0 + a1\n 42325: a1 = a2 <u a0\n 42328: a0 = u64 [sp + 0x48]\n 42331: a0 = a0 + a1\n 42334: s1 = s1 + a2\n 42337: u64 [sp + 0xc8] = a0\n 42341: a0 = a0 + t1\n 42344: u64 [sp + 0xc0] = a2\n 42348: a1 = s1 <u a2\n 42351: a0 = a0 + a1\n 42354: a1 = s1 + a3\n 42357: a3 = u64 [sp + 0xb8]\n 42361: u64 [sp + 0x98] = a1\n 42365: a1 = a1 <u s1\n 42368: a0 = a0 + a1\n 42371: u64 [sp + 0xd0] = a0\n 42375: a0 = 0xffffffe0\n 42385: u64 [sp + 0x10] = a0\n 42388: fallthrough\n      : @1669 (gas: 20)\n 42389: t2 = u64 [sp + 0x50]\n 42392: a0 = u64 [sp + 0x18]\n 42395: a0 = ra <u a0\n 42398: a2 = u64 [sp + 0x20]\n 42401: a1 = a5 ^ a2\n 42404: a2 = a5 <u a2\n 42407: a2 = a0 if a1 == 0\n 42410: s1 = u64 [sp + 0x28]\n 42413: t1 = a3 <u s1\n 42416: a0 = a3\n 42418: a3 = u64 [sp + 0x30]\n 42421: a1 = t0 ^ a3\n 42424: u64 [sp + 0x88] = t0\n 42428: a3 = t0 <u a3\n 42431: a3 = t1 if a1 == 0\n 42434: u64 [sp + 0xb8] = a0\n 42438: a0 = a0 ^ s1\n 42441: a0 = a0 | a1\n 42444: a3 = a2 if a0 == 0\n 42447: jump @1677 if a3 == 0\n      : @1670 (gas: 17)\n 42451: u64 [sp + 0x78] = a5\n 42454: u64 [sp + 0x80] = ra\n 42458: a0 = u64 [sp + 0xd8]\n 42462: a3 = u64 [sp + 0xc0]\n 42466: a2 = a0 | a3\n 42469: u64 [sp + 0x70] = a4\n 42472: a1 = u64 [sp + 0xc8]\n 42476: a1 = a1 | a4\n 42479: a2 = a2 | a1\n 42482: a2 = a2 >> 0x20\n 42485: a1 = a1 | a3\n 42488: a1 = a1 << 0x20\n 42491: a1 = a1 | a2\n 42494: a5 = u64 [sp + 0xe8]\n 42498: s1 = u64 [sp + 0xe0]\n 42502: t1 = u64 [sp + 0x98]\n 42506: jump @1678 if a1 != 0\n      : @1671 (gas: 41)\n 42510: a2 = u64 [sp + 0x38]\n 42513: t0 = s1 <u a2\n 42516: a1 = a5 ^ t2\n 42519: a4 = a5 <u t2\n 42522: a4 = t0 if a1 == 0\n 42525: a1 = u64 [sp + 0x40]\n 42528: ra = t1 - a1\n 42531: a3 = a5 - t2\n 42534: a3 = a3 - t0\n 42537: a2 = s1 - a2\n 42540: u64 [sp + 0xe8] = a5\n 42544: u64 [sp + 0xe0] = s1\n 42548: t0 = a2 + 0xffffffffffffffc0\n 42551: a2 = t0 <u a2\n 42554: a5 = a3 + a2\n 42557: a5 = a5 + 0xffffffffffffffff\n 42560: s1 = a5 ^ a3\n 42563: a3 = a5 <u a3\n 42566: a3 = a2 if s1 == 0\n 42569: a2 = t1 <u a1\n 42572: s1 = u64 [sp + 0x48]\n 42575: a1 = u64 [sp + 0xd0]\n 42579: s1 = a1 - s1\n 42582: s1 = s1 - a2\n 42585: a2 = ra <u a4\n 42588: s1 = s1 - a2\n 42591: a1 = ra - a4\n 42594: a2 = a1 <u 0x1\n 42597: s1 = s1 - a2\n 42600: a1 = a1 + 0xffffffffffffffff\n 42603: a3 = a3 + a1\n 42606: a1 = a3 <u a1\n 42609: s1 = s1 + a1\n 42612: u64 [sp + 0x170] = t0\n 42616: u64 [sp + 0x178] = a5\n 42620: u64 [sp + 0x180] = a3\n 42624: a1 = sp + 0x170\n 42628: u64 [sp + 0x188] = s1\n 42632: u64 [sp + 0xd8] = a0\n 42636: s1 = t1\n 42638: ra = 1816, jump @24\n      : @1672 [@dyn 908] (gas: 10)\n 42645: a2 = u64 [sp + 0xb0]\n 42649: a3 = u64 [sp + 0x90]\n 42653: a0 = a3 | a2\n 42656: a5 = u64 [sp + 0xa0]\n 42660: a1 = u64 [sp + 0x10]\n 42663: a1 = a5 <u a1\n 42666: a4 = u64 [sp + 0xa8]\n 42670: a1 = 0 if a4 != 0\n 42672: a1 = 0 if a0 != 0\n 42674: jump @1678 if a1 == 0\n      : @1673 (gas: 14)\n 42678: a1 = a5 + 0x20\n 42681: a0 = a1 <u a5\n 42684: u64 [sp + 0x58] = a1\n 42687: a5 = a4 + a0\n 42690: u64 [sp + 0x68] = a5\n 42693: a4 = a5 <u a4\n 42696: a4 = a0 if a0 == 0\n 42699: a4 = a4 + a3\n 42702: u64 [sp + 0x60] = a4\n 42705: a0 = a4 <u a3\n 42708: a2 = a2 + a0\n 42711: u64 [sp + 0xb0] = a2\n 42715: a0 = sp + 0x150\n 42719: ra = 1818, jump @22\n      : @1674 [@dyn 909] (gas: 19)\n 42726: a3 = u64 [sp + 0x150]\n 42730: a0 = u64 [sp + 0x158]\n 42734: a1 = u64 [sp + 0x160]\n 42738: a2 = u64 [sp + 0x168]\n 42742: a4 = u64 [sp + 0xd0]\n 42746: u64 [sp + 0x108] = a4\n 42750: u64 [sp + 0x100] = s1\n 42754: a4 = u64 [sp + 0xe8]\n 42758: u64 [sp + 0xf8] = a4\n 42762: a4 = u64 [sp + 0xe0]\n 42766: u64 [sp + 0xf0] = a4\n 42770: u64 [sp + 0x128] = a2\n 42774: u64 [sp + 0x120] = a1\n 42778: u64 [sp + 0x118] = a0\n 42782: a0 = sp + 0x130\n 42786: a1 = sp + 0x110\n 42790: a2 = sp + 0xf0\n 42794: u64 [sp + 0x110] = a3\n 42798: ra = 1820, jump @1632\n      : @1675 [@dyn 910] (gas: 9)\n 42804: a0 = u64 [sp + 0x148]\n 42808: u64 [sp + 0xd0] = a0\n 42812: a0 = u64 [sp + 0x140]\n 42816: u64 [sp + 0x98] = a0\n 42820: a1 = u64 [sp + 0xd8]\n 42824: a0 = a1 + 0x20\n 42827: a1 = a0 <u a1\n 42830: a3 = u64 [sp + 0x70]\n 42833: t0 = 1822, jump @2023\n      : @1676 [@dyn 911] (gas: 33)\n 42839: a1 = u64 [sp + 0x138]\n 42843: u64 [sp + 0xe8] = a1\n 42847: a1 = u64 [sp + 0xc0]\n 42851: a3 = a3 + a1\n 42854: a1 = a3 <u a1\n 42857: a4 = u64 [sp + 0xc8]\n 42861: a4 = a4 + a1\n 42864: u64 [sp + 0xc8] = a4\n 42868: ra = u64 [sp + 0x80]\n 42872: ra = ra + 0x1\n 42875: a1 = ra <u 0x1\n 42878: a5 = u64 [sp + 0x78]\n 42881: a5 = a5 + a1\n 42884: a1 = ra | a5\n 42887: a1 = a1 <u 0x1\n 42890: a4 = u64 [sp + 0x130]\n 42894: u64 [sp + 0xe0] = a4\n 42898: a4 = u64 [sp + 0xb8]\n 42902: a1 = a1 + a4\n 42905: a4 = a1 <u a4\n 42908: t0 = u64 [sp + 0x88]\n 42912: t0 = t0 + a4\n 42915: u64 [sp + 0xd8] = a0\n 42919: a4 = a2\n 42921: u64 [sp + 0xc0] = a3\n 42925: a0 = u64 [sp + 0x58]\n 42928: u64 [sp + 0xa0] = a0\n 42932: a0 = u64 [sp + 0x68]\n 42935: u64 [sp + 0xa8] = a0\n 42939: a0 = u64 [sp + 0x60]\n 42942: u64 [sp + 0x90] = a0\n 42946: a3 = a1\n 42948: jump @1669\n      : @1677 (gas: 15)\n 42951: a0 = u64 [sp + 0x8]\n 42954: a1 = u64 [sp + 0xe0]\n 42958: u64 [a0] = a1\n 42960: a1 = u64 [sp + 0xe8]\n 42964: u64 [a0 + 0x8] = a1\n 42967: a1 = u64 [sp + 0x98]\n 42971: u64 [a0 + 0x10] = a1\n 42974: a1 = u64 [sp + 0xd0]\n 42978: u64 [a0 + 0x18] = a1\n 42981: sp = s0 + 0xfffffffffffffdf0\n 42985: ra = u64 [sp + 0x208]\n 42989: s0 = u64 [sp + 0x200]\n 42993: s1 = u64 [sp + 0x1f8]\n 42997: sp = sp + 0x210\n 43001: ret\n      : @1678 (gas: 1)\n 43003: trap\n      : @1679 (gas: 33)\n 43004: sp = sp + 0xffffffffffffffa0\n 43007: u64 [sp + 0x58] = ra\n 43010: u64 [sp + 0x50] = s0\n 43013: u64 [sp + 0x48] = s1\n 43016: s0 = sp + 0x60\n 43019: sp = sp & 0xfffffffffffffff0\n 43022: a2 = u64 [a1 + 0x10]\n 43025: a5 = u64 [a1 + 0x8]\n 43028: a4 = u64 [a1]\n 43030: a1 = u64 [a1 + 0x18]\n 43033: t0 = a2 << 0x3f\n 43036: a3 = a5 >> 0x1\n 43039: t0 = a3 | t0\n 43042: a3 = a1 << 0x3f\n 43045: a2 = a2 >> 0x1\n 43048: a3 = a3 | a2\n 43051: a5 = a5 << 0x3f\n 43054: a2 = a4 >> 0x1\n 43057: a5 = a5 | a2\n 43060: t1 = a1 >> 0x1\n 43063: a4 = a4 & 0x1\n 43066: a1 = -a4\n 43068: s1 = a4 <u 0x1\n 43071: a2 = a5 & 0x7f\n 43074: t2 = a1 & a3\n 43077: a3 = a1 & t0\n 43080: a2 = a5 if a4 != 0\n 43083: a4 = a1 & t1\n 43086: a1 = a2 <u 0x20\n 43089: a1 = 0 if a3 != 0\n 43091: a5 = t2 | a4\n 43094: a1 = 0 if a5 != 0\n 43096: jump @1682 if s1 != a1\n      : @1680 (gas: 5)\n 43099: u64 [a0] = a2\n 43101: u64 [a0 + 0x8] = a3\n 43104: u64 [a0 + 0x10] = t2\n 43107: u64 [a0 + 0x18] = a4\n 43110: t0 = 1824, jump @2084\n      : @1681 [@dyn 912] (gas: 1)\n 43116: ret\n      : @1682 (gas: 1)\n 43118: t0 = 1826, jump @1998\n      : @1683 [@dyn 913] (gas: 1)\n 43124: ra = 1828, jump @24\n      : @1684 [@dyn 914] (gas: 7)\n 43131: u64 [sp + 24] = 0\n 43134: u64 [sp + 16] = 0\n 43137: u64 [sp + 0] = 0x22\n 43140: a0 = 0x4\n 43143: a1 = sp\n 43145: u64 [sp + 8] = 0\n 43148: ra = 1830, jump @24\n      : @1685 [@dyn 915] (gas: 2)\n 43155: a1 = i32 [0x20180]\n 43160: jump @1687 if a1 >u 63\n      : @1686 (gas: 2)\n 43164: u32 [0x20180] = 0x40\n 43170: fallthrough\n      : @1687 (gas: 8)\n 43171: a1 = 0x20190\n 43176: i32 a1 = a1 + 0\n 43178: a0 = 0x1\n 43181: a2 = 0x24\n 43184: ra = 0x728\n 43188: ecalli 14 // 'seal_return'\n 43190: t0 = 0x72a\n 43194: jump @2010\n      : @1688 [@dyn 916] (gas: 1)\n 43197: t0 = 1834, jump @2010\n      : @1689 [@dyn 917] (gas: 7)\n 43203: t0 = a0 >u 0\n 43205: a4 = t1 <u 0xffffffffffffff80\n 43208: a4 = a4 ^ 0x1\n 43211: a4 = t0 if a0 != 0\n 43214: a1 = a2 | a3\n 43217: a4 = a5 if a1 != 0\n 43220: jump @1693 if a4 != 0\n      : @1690 (gas: 2)\n 43223: a1 = t1 + 0x80\n 43227: t0 = 1836, jump @2009\n      : @1691 [@dyn 918] (gas: 1)\n 43233: ra = 1838, jump @24\n      : @1692 [@dyn 919] (gas: 5)\n 43240: sp = s0 + 0xffffffffffffff90\n 43243: ra = u64 [sp + 0x68]\n 43246: s0 = u64 [sp + 0x60]\n 43249: sp = sp + 0x70\n 43252: ret\n      : @1693 (gas: 1)\n 43254: t0 = 1840, jump @1998\n      : @1694 [@dyn 920] (gas: 1)\n 43260: ra = 1842, jump @24\n      : @1695 [@dyn 921] (gas: 1)\n 43267: t0 = 1844, jump @2030\n      : @1696 [@dyn 922] (gas: 1)\n 43273: ra = 1846, jump @24\n      : @1697 [@dyn 923] (gas: 2)\n 43280: a1 = i32 [0x20180]\n 43285: jump @1699 if a1 >u 63\n      : @1698 (gas: 2)\n 43289: u32 [0x20180] = 0x40\n 43295: fallthrough\n      : @1699 (gas: 8)\n 43296: a1 = 0x20190\n 43301: i32 a1 = a1 + 0\n 43303: a0 = 0x1\n 43306: a2 = 0x24\n 43309: ra = 0x738\n 43313: ecalli 14 // 'seal_return'\n 43315: t0 = 0x73a\n 43319: jump @2010\n      : @1700 [@dyn 924] (gas: 1)\n 43322: t0 = 1850, jump @2010\n      : @1701 [@dyn 925] (gas: 7)\n 43328: t0 = a0 >u 0\n 43330: a4 = t1 <u 0xffffffffffffff60\n 43334: a4 = a4 ^ 0x1\n 43337: a4 = t0 if a0 != 0\n 43340: a1 = a2 | a3\n 43343: a4 = a5 if a1 != 0\n 43346: jump @1705 if a4 != 0\n      : @1702 (gas: 2)\n 43349: a1 = t1 + 0xa0\n 43353: t0 = 1852, jump @2009\n      : @1703 [@dyn 926] (gas: 1)\n 43359: ra = 1854, jump @24\n      : @1704 [@dyn 927] (gas: 5)\n 43366: sp = s0 + 0xffffffffffffff90\n 43369: ra = u64 [sp + 0x68]\n 43372: s0 = u64 [sp + 0x60]\n 43375: sp = sp + 0x70\n 43378: ret\n      : @1705 (gas: 1)\n 43380: t0 = 1856, jump @1998\n      : @1706 [@dyn 928] (gas: 1)\n 43386: ra = 1858, jump @24\n      : @1707 [@dyn 929] (gas: 1)\n 43393: t0 = 1860, jump @2030\n      : @1708 [@dyn 930] (gas: 1)\n 43399: ra = 1862, jump @24\n      : @1709 [@dyn 931] (gas: 2)\n 43406: a1 = i32 [0x20180]\n 43411: jump @1711 if a1 >u 63\n      : @1710 (gas: 2)\n 43415: u32 [0x20180] = 0x40\n 43421: fallthrough\n      : @1711 (gas: 8)\n 43422: a1 = 0x20190\n 43427: i32 a1 = a1 + 0\n 43429: a0 = 0x1\n 43432: a2 = 0x24\n 43435: ra = 0x748\n 43439: ecalli 14 // 'seal_return'\n 43441: t0 = 0x74a\n 43445: jump @2010\n      : @1712 [@dyn 932] (gas: 1)\n 43448: t0 = 1866, jump @2010\n      : @1713 [@dyn 933] (gas: 7)\n 43454: t0 = a0 >u 0\n 43456: a4 = t1 <u 0xffffffffffffffa0\n 43459: a4 = a4 ^ 0x1\n 43462: a4 = t0 if a0 != 0\n 43465: a1 = a2 | a3\n 43468: a4 = a5 if a1 != 0\n 43471: jump @1717 if a4 != 0\n      : @1714 (gas: 2)\n 43474: a1 = t1 + 0x60\n 43477: t0 = 1868, jump @2009\n      : @1715 [@dyn 934] (gas: 1)\n 43483: ra = 1870, jump @24\n      : @1716 [@dyn 935] (gas: 5)\n 43490: sp = s0 + 0xffffffffffffff90\n 43493: ra = u64 [sp + 0x68]\n 43496: s0 = u64 [sp + 0x60]\n 43499: sp = sp + 0x70\n 43502: ret\n      : @1717 (gas: 1)\n 43504: t0 = 1872, jump @1998\n      : @1718 [@dyn 936] (gas: 1)\n 43510: ra = 1874, jump @24\n      : @1719 [@dyn 937] (gas: 1)\n 43517: t0 = 1876, jump @2030\n      : @1720 [@dyn 938] (gas: 1)\n 43523: ra = 1878, jump @24\n      : @1721 [@dyn 939] (gas: 2)\n 43530: a1 = i32 [0x20180]\n 43535: jump @1723 if a1 >u 63\n      : @1722 (gas: 2)\n 43539: u32 [0x20180] = 0x40\n 43545: fallthrough\n      : @1723 (gas: 7)\n 43546: a1 = 0x20190\n 43551: i32 a1 = a1 + 0\n 43553: a0 = 0x1\n 43556: a2 = 0x24\n 43559: ra = 0x758\n 43563: ecalli 14 // 'seal_return'\n 43565: fallthrough\n      : @1724 [@dyn 940] (gas: 46)\n 43566: sp = sp + 0xffffffffffffff70\n 43570: u64 [sp + 0x88] = ra\n 43574: u64 [sp + 0x80] = s0\n 43578: u64 [sp + 0x78] = s1\n 43581: s0 = sp + 0x90\n 43585: sp = sp & 0xfffffffffffffff0\n 43588: t0 = a0\n 43590: a2 = u64 [a1]\n 43592: t2 = u64 [a0 + 0x8]\n 43595: a5 = u64 [a1 + 0x8]\n 43598: t1 = u64 [a0]\n 43600: a3 = a2 + 0x1f\n 43603: ra = a3 <u a2\n 43606: a2 = a5 + ra\n 43609: a3 = a3 & 0xffffffffffffffe0\n 43612: u64 [sp + 0x8] = t1\n 43615: t1 = t1 + a3\n 43618: a4 = t1 <u a3\n 43621: a3 = a2 + t2\n 43624: a3 = a3 + a4\n 43627: s1 = a3 ^ a2\n 43630: a0 = a3 <u a2\n 43633: a0 = a4 if s1 == 0\n 43636: a4 = u64 [t0 + 0x18]\n 43639: a5 = a2 <u a5\n 43642: s1 = u64 [a1 + 0x10]\n 43645: t0 = u64 [t0 + 0x10]\n 43648: a1 = u64 [a1 + 0x18]\n 43651: a5 = ra if ra == 0\n 43654: a5 = a5 + s1\n 43657: s1 = a5 <u s1\n 43660: a2 = a5 + t0\n 43663: a0 = a0 + a2\n 43666: a5 = a2 <u a5\n 43669: a2 = a0 <u a2\n 43672: a1 = a1 + a4\n 43675: a1 = a1 + s1\n 43678: a1 = a1 + a5\n 43681: a5 = a1 + a2\n 43684: a1 = a5 >u 0\n 43686: a2 = a0 >u 0\n 43688: a2 = a1 if a5 != 0\n 43691: a1 = a0 | a5\n 43694: s1 = a3 >u 0\n 43696: s1 = a2 if a1 != 0\n 43699: jump @1728 if s1 != 0\n      : @1725 (gas: 13)\n 43702: a1 = u64 [sp + 0x8]\n 43705: a1 = t1 <u a1\n 43708: a2 = a3 ^ t2\n 43711: s1 = a3 <u t2\n 43714: s1 = a1 if a2 == 0\n 43717: a1 = a0 <u t0\n 43720: a2 = a5 ^ a4\n 43723: a4 = a5 <u a4\n 43726: a4 = a1 if a2 == 0\n 43729: a1 = a0 ^ t0\n 43732: a1 = a1 | a2\n 43735: a4 = s1 if a1 == 0\n 43738: jump @1728 if a4 != 0\n      : @1726 (gas: 7)\n 43741: u64 [sp + 0x50] = t1\n 43744: u64 [sp + 0x58] = a3\n 43747: u64 [sp + 0x60] = a0\n 43750: a0 = 0x40\n 43753: a1 = sp + 0x50\n 43756: u64 [sp + 0x68] = a5\n 43759: ra = 1882, jump @24\n      : @1727 [@dyn 941] (gas: 6)\n 43766: sp = s0 + 0xffffffffffffff70\n 43770: ra = u64 [sp + 0x88]\n 43774: s0 = u64 [sp + 0x80]\n 43778: s1 = u64 [sp + 0x78]\n 43781: sp = sp + 0x90\n 43785: ret\n      : @1728 (gas: 1)\n 43787: t0 = 1884, jump @2076\n      : @1729 [@dyn 942] (gas: 1)\n 43793: ra = 1886, jump @24\n      : @1730 [@dyn 943] (gas: 7)\n 43800: u64 [sp + 40] = 0\n 43803: u64 [sp + 32] = 0\n 43806: u64 [sp + 16] = 0x41\n 43810: a0 = 0x4\n 43813: a1 = sp + 0x10\n 43816: u64 [sp + 24] = 0\n 43819: ra = 1888, jump @24\n      : @1731 [@dyn 944] (gas: 2)\n 43826: a1 = i32 [0x20180]\n 43831: jump @1733 if a1 >u 63\n      : @1732 (gas: 2)\n 43835: u32 [0x20180] = 0x40\n 43841: fallthrough\n      : @1733 (gas: 7)\n 43842: a1 = 0x20190\n 43847: i32 a1 = a1 + 0\n 43849: a0 = 0x1\n 43852: a2 = 0x24\n 43855: ra = 0x762\n 43859: ecalli 14 // 'seal_return'\n 43861: fallthrough\n      : @1734 [@dyn 945] (gas: 24)\n 43862: sp = sp + 0xfffffffffffffda0\n 43866: a2 = sp + 0x200\n 43870: u64 [a2 + 0x58] = ra\n 43873: u64 [a2 + 0x50] = s0\n 43876: u64 [a2 + 0x48] = s1\n 43879: s0 = sp + 0x260\n 43883: sp = sp & 0xffffffffffffffe0\n 43886: s1 = sp\n 43888: u64 [s1 + 0x10] = a0\n 43891: a0 = u64 [a1 + 0x18]\n 43894: a2 = u64 [a1 + 0x10]\n 43897: a3 = u64 [a1 + 0x8]\n 43900: a1 = u64 [a1]\n 43902: u64 [s1 + 0xb0] = a0\n 43906: u64 [s1 + 0x238] = a0\n 43910: u64 [s1 + 0xa8] = a2\n 43914: u64 [s1 + 0x230] = a2\n 43918: u64 [s1 + 0xa0] = a3\n 43922: u64 [s1 + 0x228] = a3\n 43926: u64 [s1 + 0x98] = a1\n 43930: u64 [s1 + 0x220] = a1\n 43934: a0 = s1 + 0x200\n 43938: a1 = 0x40\n 43941: ra = 1892, jump @22\n      : @1735 [@dyn 946] (gas: 12)\n 43948: a1 = s1 + 0x200\n 43952: a0 = u64 [a1 + 0x18]\n 43955: u64 [s1 + 0x18] = a0\n 43958: a0 = u64 [a1 + 0x10]\n 43961: u64 [s1 + 0x20] = a0\n 43964: a0 = u64 [a1 + 0x8]\n 43967: u64 [s1 + 0x28] = a0\n 43970: a0 = u64 [a1]\n 43972: u64 [s1 + 0x30] = a0\n 43975: a0 = s1 + 0x1e0\n 43979: a1 = s1 + 0x220\n 43983: ra = 1894, jump @26\n      : @1736 [@dyn 947] (gas: 16)\n 43990: a4 = s1 + 0x100\n 43994: a0 = u64 [a4 + 0xf8]\n 43998: a1 = u64 [a4 + 0xf0]\n 44002: a2 = u64 [a4 + 0xe8]\n 44006: a3 = u64 [a4 + 0xe0]\n 44010: u64 [s1 + 0x90] = a0\n 44014: u64 [a4 + 0xb8] = a0\n 44018: u64 [s1 + 0x88] = a1\n 44022: u64 [a4 + 0xb0] = a1\n 44026: u64 [s1 + 0x80] = a2\n 44030: u64 [a4 + 0xa8] = a2\n 44034: a0 = s1 + 0x1c0\n 44038: a1 = s1 + 0x1a0\n 44042: u64 [s1 + 0xb8] = a3\n 44046: u64 [a4 + 0xa0] = a3\n 44050: ra = 1896, jump @1679\n      : @1737 [@dyn 948] (gas: 12)\n 44056: a0 = u64 [s1 + 0x30]\n 44059: a1 = u64 [s1 + 0x18]\n 44062: a2 = u64 [s1 + 0x28]\n 44065: a2 = a2 | a1\n 44068: a3 = u64 [s1 + 0x20]\n 44071: a1 = a0 | a3\n 44074: a1 = a1 | a2\n 44077: a1 = a1 >> 0x20\n 44080: a2 = a2 | a3\n 44083: a2 = a2 << 0x20\n 44086: a1 = a1 | a2\n 44089: jump @1756 if a1 != 0\n      : @1738 (gas: 15)\n 44093: a5 = s1 + 0x100\n 44097: a2 = u64 [a5 + 0xd8]\n 44101: a3 = u64 [a5 + 0xd0]\n 44105: a1 = u64 [a5 + 0xc8]\n 44109: a4 = u64 [a5 + 0xc0]\n 44113: u64 [s1 + 0x60] = a4\n 44116: u64 [a5 + 0x80] = a4\n 44120: u64 [s1 + 0x70] = a1\n 44123: u64 [a5 + 0x88] = a1\n 44127: u64 [s1 + 0x68] = a3\n 44130: u64 [a5 + 0x90] = a3\n 44134: a1 = s1 + 0x180\n 44138: u64 [s1 + 0x78] = a2\n 44141: u64 [a5 + 0x98] = a2\n 44145: ra = 1898, jump @24\n      : @1739 [@dyn 949] (gas: 3)\n 44152: a3 = u64 [s1 + 0xb8]\n 44156: a0 = a3 & 0x1\n 44159: jump @1745 if a0 != 0\n      : @1740 (gas: 10)\n 44163: a0 = u64 [s1 + 0x20]\n 44166: a1 = u64 [s1 + 0x18]\n 44169: a0 = a0 | a1\n 44172: a1 = 0xffffffe0\n 44182: a4 = u64 [s1 + 0x30]\n 44185: a1 = a4 <u a1\n 44188: a2 = u64 [s1 + 0x28]\n 44191: a1 = 0 if a2 != 0\n 44193: a1 = 0 if a0 != 0\n 44195: jump @1756 if a1 == 0\n      : @1741 (gas: 12)\n 44199: a1 = a3 & 0xffffffffffffff00\n 44203: i32 a0 = a4 + 0x20\n 44206: a3 = u64 [s1 + 0x80]\n 44210: a2 = s1 + 0x100\n 44214: u64 [a2 + 0x8] = a3\n 44217: u64 [a2] = a1\n 44219: a1 = u64 [s1 + 0x88]\n 44223: u64 [a2 + 0x10] = a1\n 44226: a1 = s1 + 0x100\n 44230: a3 = u64 [s1 + 0x90]\n 44234: u64 [a2 + 0x18] = a3\n 44237: ra = 1900, jump @24\n      : @1742 [@dyn 950] (gas: 14)\n 44244: t2 = 0\n 44246: t1 = 0\n 44248: t0 = 0\n 44250: a0 = u64 [s1 + 0x68]\n 44253: a1 = u64 [s1 + 0x60]\n 44256: a0 = a0 | a1\n 44259: a1 = u64 [s1 + 0x78]\n 44262: a2 = u64 [s1 + 0x70]\n 44265: a1 = a1 | a2\n 44268: a0 = a0 | a1\n 44271: a0 = a0 >u 0\n 44273: a0 = a0 << 0x5\n 44276: u64 [s1 + 0xb8] = a0\n 44280: fallthrough\n      : @1743 (gas: 24)\n 44281: a1 = u64 [s1 + 0xb8]\n 44285: a0 = a1 + 0x20\n 44288: a1 = a0 <u a1\n 44291: a2 = t2 + a1\n 44294: a3 = a2 <u t2\n 44297: a3 = a1 if a1 == 0\n 44300: a3 = a3 + t1\n 44303: a1 = a3 <u t1\n 44306: a4 = t0 + a1\n 44309: a1 = u64 [s1 + 0x30]\n 44312: u64 [s1 + 0xe0] = a1\n 44316: u64 [s1 + 0xc0] = a0\n 44320: a0 = u64 [s1 + 0x28]\n 44323: u64 [s1 + 0xe8] = a0\n 44327: a0 = u64 [s1 + 0x20]\n 44330: u64 [s1 + 0xf0] = a0\n 44334: u64 [s1 + 0xc8] = a2\n 44338: a0 = u64 [s1 + 0x18]\n 44341: u64 [s1 + 0xf8] = a0\n 44345: u64 [s1 + 0xd0] = a3\n 44349: a0 = s1 + 0xe0\n 44353: a1 = s1 + 0xc0\n 44357: u64 [s1 + 0xd8] = a4\n 44361: ra = 1902, jump @1724\n      : @1744 [@dyn 951] (gas: 16)\n 44367: a0 = u64 [s1 + 0x10]\n 44370: a1 = u64 [s1 + 0x18]\n 44373: u64 [a0 + 0x18] = a1\n 44376: a1 = u64 [s1 + 0x20]\n 44379: u64 [a0 + 0x10] = a1\n 44382: a1 = u64 [s1 + 0x28]\n 44385: u64 [a0 + 0x8] = a1\n 44388: a1 = u64 [s1 + 0x30]\n 44391: u64 [a0] = a1\n 44393: sp = s0 + 0xfffffffffffffda0\n 44397: a0 = sp + 0x200\n 44401: ra = u64 [a0 + 0x58]\n 44404: s0 = u64 [a0 + 0x50]\n 44407: s1 = u64 [a0 + 0x48]\n 44410: sp = sp + 0x260\n 44414: ret\n      : @1745 (gas: 12)\n 44416: a0 = u64 [s1 + 0x98]\n 44420: a2 = s1 + 0x100\n 44424: u64 [a2 + 0x60] = a0\n 44427: a0 = u64 [s1 + 0xa0]\n 44431: u64 [a2 + 0x68] = a0\n 44434: a0 = u64 [s1 + 0xa8]\n 44438: u64 [a2 + 0x70] = a0\n 44441: a1 = s1 + 0x160\n 44445: a0 = u64 [s1 + 0xb0]\n 44449: u64 [a2 + 0x78] = a0\n 44452: a0 = 0\n 44454: ra = 1904, jump @24\n      : @1746 [@dyn 952] (gas: 6)\n 44461: a0 = sp + 0xffffffffffffffe0\n 44464: a0 = a0 & 0xffffffffffffffe0\n 44467: u64 [s1 + 0x58] = a0\n 44470: sp = a0\n 44472: a1 = i32 [0x20180]\n 44477: jump @1748 if a1 >u 31\n      : @1747 (gas: 2)\n 44481: u32 [0x20180] = 0x20\n 44487: fallthrough\n      : @1748 (gas: 49)\n 44488: a0 = sp + 0xffffffffffffffe0\n 44491: a2 = a0 & 0xffffffffffffffe0\n 44494: u64 [s1 + 0xb0] = a2\n 44498: sp = a2\n 44500: a0 = 0x20190\n 44505: i32 a0 = a0 + 0\n 44507: i32 a2 = a2 + 0\n 44509: a1 = 0x20\n 44512: ecalli 9 // 'hash_keccak_256'\n 44514: u64 [s1 + 184] = 0\n 44518: t2 = 0\n 44520: t1 = 0\n 44522: t0 = 0\n 44524: a5 = u64 [s1 + 0xb0]\n 44528: a0 = u64 [a5 + 0x18]\n 44531: a1 = u64 [s1 + 0x30]\n 44534: a2 = a1 + 0x20\n 44537: u64 [s1 + 0x50] = a2\n 44540: a1 = a2 <u a1\n 44543: a2 = u64 [s1 + 0x28]\n 44546: a3 = a2 + a1\n 44549: u64 [s1 + 0x48] = a3\n 44552: a4 = a3 <u a2\n 44555: a4 = a1 if a1 == 0\n 44558: a1 = u64 [a5 + 0x10]\n 44561: a2 = u64 [a5 + 0x8]\n 44564: a3 = u64 [a5]\n 44566: a0 = reverse a0\n 44568: a1 = reverse a1\n 44570: ra = reverse a2\n 44572: a2 = reverse a3\n 44574: a5 = u64 [s1 + 0x58]\n 44577: a3 = a2\n 44579: u64 [a5 + 0x18] = a2\n 44582: a2 = ra\n 44584: u64 [s1 + 0x80] = a2\n 44588: u64 [a5 + 0x10] = a2\n 44591: u64 [s1 + 0x90] = a1\n 44595: u64 [a5 + 0x8] = a1\n 44598: a2 = a0\n 44600: u64 [a5] = a0\n 44602: a0 = u64 [s1 + 0x20]\n 44605: a4 = a4 + a0\n 44608: u64 [s1 + 0x40] = a4\n 44611: a0 = a4 <u a0\n 44614: a1 = u64 [s1 + 0x18]\n 44617: a0 = a0 + a1\n 44620: u64 [s1 + 0x38] = a0\n 44623: fallthrough\n      : @1749 (gas: 19)\n 44624: u64 [s1 + 0x88] = a3\n 44628: u64 [s1 + 0x98] = a2\n 44632: a0 = u64 [s1 + 0x60]\n 44635: a1 = u64 [s1 + 0xb8]\n 44639: a0 = a1 <u a0\n 44642: a2 = u64 [s1 + 0x70]\n 44645: a1 = t2 ^ a2\n 44648: a2 = t2 <u a2\n 44651: a2 = a0 if a1 == 0\n 44654: a4 = u64 [s1 + 0x68]\n 44657: a0 = t1 <u a4\n 44660: a3 = u64 [s1 + 0x78]\n 44663: a1 = t0 ^ a3\n 44666: a3 = t0 <u a3\n 44669: a3 = a0 if a1 == 0\n 44672: a0 = t1 ^ a4\n 44675: a0 = a0 | a1\n 44678: a3 = a2 if a0 == 0\n 44681: jump @1743 if a3 == 0\n      : @1750 (gas: 6)\n 44685: a0 = s1 + 0x140\n 44689: a1 = a5\n 44691: u64 [s1 + 0xb0] = t0\n 44695: u64 [s1 + 0xa8] = t1\n 44699: u64 [s1 + 0xa0] = t2\n 44703: ra = 1906, jump @26\n      : @1751 [@dyn 953] (gas: 8)\n 44710: a1 = u64 [s1 + 0x50]\n 44713: a0 = u64 [s1 + 0xb8]\n 44717: a0 = a0 + a1\n 44720: a1 = a0 <u a1\n 44723: a4 = u64 [s1 + 0x48]\n 44726: a2 = u64 [s1 + 0xa0]\n 44730: a2 = a2 + a4\n 44733: t0 = 1908, jump @2057\n      : @1752 [@dyn 954] (gas: 9)\n 44739: a3 = u64 [s1 + 0x40]\n 44742: a1 = u64 [s1 + 0xa8]\n 44746: a1 = a1 + a3\n 44749: t0 = a1 <u a3\n 44752: a5 = u64 [s1 + 0x38]\n 44755: a3 = u64 [s1 + 0xb0]\n 44759: a5 = a5 + a3\n 44762: a3 = a5 + t0\n 44765: t0 = 1910, jump @2066\n      : @1753 [@dyn 955] (gas: 1)\n 44771: jump @1756 if a1 != 0\n      : @1754 (gas: 11)\n 44775: a5 = s1 + 0x100\n 44779: a2 = u64 [a5 + 0x58]\n 44782: a1 = u64 [a5 + 0x50]\n 44785: a3 = u64 [a5 + 0x48]\n 44788: a4 = u64 [a5 + 0x40]\n 44791: u64 [a5 + 0x20] = a4\n 44794: u64 [a5 + 0x28] = a3\n 44797: u64 [a5 + 0x30] = a1\n 44800: a1 = s1 + 0x120\n 44804: u64 [a5 + 0x38] = a2\n 44807: ra = 1912, jump @24\n      : @1755 [@dyn 956] (gas: 38)\n 44814: a3 = u64 [s1 + 0x98]\n 44818: a3 = a3 + 0x1\n 44821: a0 = a3 <u 0x1\n 44824: t2 = u64 [s1 + 0x90]\n 44828: t2 = t2 + a0\n 44831: a0 = a3 | t2\n 44834: a0 = a0 <u 0x1\n 44837: a1 = u64 [s1 + 0x80]\n 44841: t1 = a1 + a0\n 44844: a1 = t1 <u a1\n 44847: a0 = u64 [s1 + 0x88]\n 44851: a0 = a0 + a1\n 44854: a1 = u64 [s1 + 0xb8]\n 44858: ra = a1 + 0x20\n 44861: a2 = ra <u a1\n 44864: a4 = u64 [s1 + 0xa0]\n 44868: a1 = a4 + a2\n 44871: a4 = a1 <u a4\n 44874: a4 = a2 if a2 == 0\n 44877: a2 = u64 [s1 + 0xa8]\n 44881: a4 = a4 + a2\n 44884: a2 = a4 <u a2\n 44887: t0 = u64 [s1 + 0xb0]\n 44891: t0 = t0 + a2\n 44894: a2 = t2\n 44896: u64 [s1 + 0x90] = a2\n 44900: a5 = u64 [s1 + 0x58]\n 44903: u64 [a5 + 0x8] = a2\n 44906: a2 = a3\n 44908: u64 [a5] = a3\n 44910: u64 [a5 + 0x10] = t1\n 44913: a3 = a0\n 44915: u64 [a5 + 0x18] = a0\n 44918: u64 [s1 + 0x80] = t1\n 44922: u64 [s1 + 0xb8] = ra\n 44926: t2 = a1\n 44928: t1 = a4\n 44930: jump @1749\n      : @1756 (gas: 1)\n 44933: trap\n      : @1757 (gas: 45)\n 44934: sp = sp + 0xffffffffffffff90\n 44937: u64 [sp + 0x68] = ra\n 44940: u64 [sp + 0x60] = s0\n 44943: u64 [sp + 0x58] = s1\n 44946: s0 = sp + 0x70\n 44949: sp = sp & 0xfffffffffffffff0\n 44952: a3 = u64 [a1 + 0x18]\n 44955: u64 [sp + 0x8] = a3\n 44958: a4 = u64 [a2 + 0x18]\n 44961: t2 = u64 [a1]\n 44963: u64 [sp] = t2\n 44965: a3 = u64 [a1 + 0x8]\n 44968: s1 = u64 [a2 + 0x8]\n 44971: a5 = u64 [a2]\n 44973: t1 = u64 [a1 + 0x10]\n 44976: t0 = u64 [a2 + 0x10]\n 44979: a2 = s1 + a3\n 44982: t2 = t2 + a5\n 44985: a5 = t2 <u a5\n 44988: a2 = a2 + a5\n 44991: ra = a2 ^ s1\n 44994: s1 = a2 <u s1\n 44997: s1 = a5 if ra == 0\n 45000: a1 = t0 + t1\n 45003: a5 = u64 [sp + 0x8]\n 45006: a5 = a5 + a4\n 45009: a4 = a1 <u t0\n 45012: a4 = a4 + a5\n 45015: a5 = a1 + s1\n 45018: a1 = a5 <u a1\n 45021: ra = a4 + a1\n 45024: a4 = a2 ^ a3\n 45027: a3 = a2 <u a3\n 45030: a1 = u64 [sp]\n 45032: s1 = t2 <u a1\n 45035: s1 = a3 if a4 != 0\n 45038: t0 = a5 <u t1\n 45041: a1 = u64 [sp + 0x8]\n 45044: a4 = ra ^ a1\n 45047: a3 = ra <u a1\n 45050: a3 = t0 if a4 == 0\n 45053: a1 = a5 ^ t1\n 45056: a1 = a1 | a4\n 45059: s1 = a3 if a1 != 0\n 45062: jump @1759 if s1 != 0\n      : @1758 (gas: 10)\n 45065: u64 [a0] = t2\n 45067: u64 [a0 + 0x8] = a2\n 45070: u64 [a0 + 0x10] = a5\n 45073: u64 [a0 + 0x18] = ra\n 45076: sp = s0 + 0xffffffffffffff90\n 45079: ra = u64 [sp + 0x68]\n 45082: s0 = u64 [sp + 0x60]\n 45085: s1 = u64 [sp + 0x58]\n 45088: sp = sp + 0x70\n 45091: ret\n      : @1759 (gas: 1)\n 45093: t0 = 1914, jump @2076\n      : @1760 [@dyn 957] (gas: 1)\n 45099: ra = 1916, jump @24\n      : @1761 [@dyn 958] (gas: 7)\n 45106: u64 [sp + 40] = 0\n 45109: u64 [sp + 32] = 0\n 45112: u64 [sp + 16] = 0x11\n 45116: a0 = 0x4\n 45119: a1 = sp + 0x10\n 45122: u64 [sp + 24] = 0\n 45125: ra = 1918, jump @24\n      : @1762 [@dyn 959] (gas: 2)\n 45132: a1 = i32 [0x20180]\n 45137: jump @1764 if a1 >u 63\n      : @1763 (gas: 2)\n 45141: u32 [0x20180] = 0x40\n 45147: fallthrough\n      : @1764 (gas: 7)\n 45148: a1 = 0x20190\n 45153: i32 a1 = a1 + 0\n 45155: a0 = 0x1\n 45158: a2 = 0x24\n 45161: ra = 0x780\n 45165: ecalli 14 // 'seal_return'\n 45167: fallthrough\n      : @1765 [@dyn 960] (gas: 30)\n 45168: sp = sp + 0xffffffffffffff80\n 45171: u64 [sp + 0x78] = ra\n 45174: u64 [sp + 0x70] = s0\n 45177: u64 [sp + 0x68] = s1\n 45180: s0 = sp + 0x80\n 45184: sp = sp & 0xfffffffffffffff0\n 45187: a4 = u64 [a2]\n 45189: a3 = u64 [a1]\n 45191: s1 = u64 [a2 + 0x8]\n 45194: t1 = u64 [a1 + 0x8]\n 45197: t2 = u64 [a2 + 0x10]\n 45200: a5 = u64 [a1 + 0x10]\n 45203: a2 = u64 [a2 + 0x18]\n 45206: a1 = u64 [a1 + 0x18]\n 45209: t0 = t1 ^ s1\n 45212: u64 [sp + 0x8] = s1\n 45215: s1 = t1 <u s1\n 45218: u64 [sp + 0x18] = a4\n 45221: u64 [sp + 0x10] = a3\n 45224: a3 = a3 <u a4\n 45227: u64 [sp] = a3\n 45229: s1 = a3 if t0 == 0\n 45232: a3 = a1 ^ a2\n 45235: ra = a1 <u a2\n 45238: t0 = a5 <u t2\n 45241: ra = t0 if a3 == 0\n 45244: a4 = a5 ^ t2\n 45247: a3 = a3 | a4\n 45250: ra = s1 if a3 == 0\n 45253: jump @1767 if ra != 0\n      : @1766 (gas: 23)\n 45256: a3 = a5 - t2\n 45259: a1 = a1 - a2\n 45262: a1 = a1 - t0\n 45265: a2 = a3 <u s1\n 45268: a1 = a1 - a2\n 45271: a3 = a3 - s1\n 45274: a2 = u64 [sp + 0x8]\n 45277: a2 = t1 - a2\n 45280: a4 = u64 [sp]\n 45282: a2 = a2 - a4\n 45285: a4 = u64 [sp + 0x18]\n 45288: a5 = u64 [sp + 0x10]\n 45291: a4 = a5 - a4\n 45294: u64 [a0] = a4\n 45296: u64 [a0 + 0x8] = a2\n 45299: u64 [a0 + 0x10] = a3\n 45302: u64 [a0 + 0x18] = a1\n 45305: sp = s0 + 0xffffffffffffff80\n 45308: ra = u64 [sp + 0x78]\n 45311: s0 = u64 [sp + 0x70]\n 45314: s1 = u64 [sp + 0x68]\n 45317: sp = sp + 0x80\n 45321: ret\n      : @1767 (gas: 6)\n 45323: u64 [sp + 80] = 0\n 45326: u64 [sp + 72] = 0\n 45329: u64 [sp + 64] = 0\n 45332: t0 = 0x782\n 45336: a0 = 0x4e487b7100000000\n 45346: fallthrough\n      : @1768 [@dyn 961] (gas: 4)\n 45347: a1 = sp + 0x40\n 45350: u64 [sp + 0x58] = a0\n 45353: a0 = 0\n 45355: ra = 1924, jump @24\n      : @1769 [@dyn 962] (gas: 7)\n 45362: u64 [sp + 56] = 0\n 45365: u64 [sp + 48] = 0\n 45368: u64 [sp + 32] = 0x11\n 45372: a0 = 0x4\n 45375: a1 = sp + 0x20\n 45378: u64 [sp + 40] = 0\n 45381: ra = 1926, jump @24\n      : @1770 [@dyn 963] (gas: 2)\n 45388: a1 = i32 [0x20180]\n 45393: jump @1772 if a1 >u 63\n      : @1771 (gas: 2)\n 45397: u32 [0x20180] = 0x40\n 45403: fallthrough\n      : @1772 (gas: 7)\n 45404: a1 = 0x20190\n 45409: i32 a1 = a1 + 0\n 45411: a0 = 0x1\n 45414: a2 = 0x24\n 45417: ra = 0x788\n 45421: ecalli 14 // 'seal_return'\n 45423: fallthrough\n      : @1773 [@dyn 964] (gas: 10)\n 45424: a3 = u64 [a1 + 0x18]\n 45427: a4 = u64 [a1 + 0x10]\n 45430: t0 = u64 [a1 + 0x8]\n 45433: a5 = a3 >u 0\n 45435: a2 = a4 >u 0\n 45437: a2 = a5 if a3 != 0\n 45440: a3 = a3 | a4\n 45443: a4 = t0 >u 0\n 45445: a4 = a2 if a3 != 0\n 45448: jump @1775 if a4 != 0\n      : @1774 (gas: 16)\n 45451: a1 = u64 [a1]\n 45453: a2 = a1 + 0x1f\n 45456: a1 = a2 <u a1\n 45459: a1 = a1 + t0\n 45462: a1 = a1 & 0x1\n 45465: a2 = a2 & 0xffffffffffffffe0\n 45468: a3 = a2 + 0x20\n 45471: a2 = a3 <u a2\n 45474: a4 = a1 + a2\n 45477: a1 = a4 <u a1\n 45480: a1 = a2 if a2 == 0\n 45483: u64 [a0 + 24] = 0\n 45486: u64 [a0] = a3\n 45488: u64 [a0 + 0x8] = a4\n 45491: u64 [a0 + 0x10] = a1\n 45494: ret\n      : @1775 (gas: 6)\n 45496: sp = sp + 0xffffffffffffffb0\n 45499: u64 [sp + 0x48] = ra\n 45502: u64 [sp + 0x40] = s0\n 45505: s0 = sp + 0x50\n 45508: sp = sp & 0xfffffffffffffff0\n 45511: t0 = 1930, jump @1998\n      : @1776 [@dyn 965] (gas: 1)\n 45517: ra = 1932, jump @24\n      : @1777 [@dyn 966] (gas: 1)\n 45524: t0 = 1934, jump @2030\n      : @1778 [@dyn 967] (gas: 1)\n 45530: ra = 1936, jump @24\n      : @1779 [@dyn 968] (gas: 2)\n 45537: a1 = i32 [0x20180]\n 45542: jump @1781 if a1 >u 63\n      : @1780 (gas: 2)\n 45546: u32 [0x20180] = 0x40\n 45552: fallthrough\n      : @1781 (gas: 7)\n 45553: a1 = 0x20190\n 45558: i32 a1 = a1 + 0\n 45560: a0 = 0x1\n 45563: a2 = 0x24\n 45566: ra = 0x792\n 45570: ecalli 14 // 'seal_return'\n 45572: fallthrough\n      : @1782 [@dyn 969] (gas: 9)\n 45573: sp = sp + 0xfffffffffffffec0\n 45577: u64 [sp + 0x138] = ra\n 45581: u64 [sp + 0x130] = s0\n 45585: u64 [sp + 0x128] = s1\n 45589: s0 = sp + 0x140\n 45593: sp = sp & 0xffffffffffffffe0\n 45596: s1 = a0\n 45598: ecalli 13 // 'return_data_size'\n 45600: fallthrough\n      : @1783 (gas: 1)\n 45601: jump @1796 if a0 == 0\n      : @1784 (gas: 11)\n 45605: u64 [sp + 0x18] = s1\n 45608: ecalli 13 // 'return_data_size'\n 45610: a2 = a0\n 45612: u64 [sp + 248] = 0\n 45616: u64 [sp + 240] = 0\n 45620: u64 [sp + 232] = 0\n 45624: a0 = sp + 0x100\n 45628: a1 = sp + 0xe0\n 45632: u64 [sp + 0x20] = a2\n 45635: u64 [sp + 0xe0] = a2\n 45639: ra = 1940, jump @1773\n      : @1785 [@dyn 970] (gas: 11)\n 45645: a0 = u64 [sp + 0x100]\n 45649: u64 [sp + 0x40] = a0\n 45652: a0 = u64 [sp + 0x108]\n 45656: u64 [sp + 0x38] = a0\n 45659: a0 = u64 [sp + 0x110]\n 45663: u64 [sp + 0x30] = a0\n 45666: a0 = u64 [sp + 0x118]\n 45670: u64 [sp + 0x28] = a0\n 45673: a0 = sp + 0xc0\n 45677: a1 = 0x40\n 45680: ra = 1942, jump @22\n      : @1786 [@dyn 971] (gas: 22)\n 45687: a0 = u64 [sp + 0xd8]\n 45691: u64 [sp + 0x58] = a0\n 45694: s1 = u64 [sp + 0xd0]\n 45698: a2 = u64 [sp + 0xc8]\n 45702: u64 [sp + 0x50] = a2\n 45705: a3 = u64 [sp + 0xc0]\n 45709: u64 [sp + 0x48] = a3\n 45712: a1 = u64 [sp + 0x28]\n 45715: u64 [sp + 0x98] = a1\n 45719: a1 = u64 [sp + 0x30]\n 45722: u64 [sp + 0x90] = a1\n 45726: a1 = u64 [sp + 0x38]\n 45729: u64 [sp + 0x88] = a1\n 45733: a1 = u64 [sp + 0x40]\n 45736: u64 [sp + 0x80] = a1\n 45740: u64 [sp + 0xb8] = a0\n 45744: u64 [sp + 0xb0] = s1\n 45748: u64 [sp + 0xa8] = a2\n 45752: a0 = sp + 0xa0\n 45756: a1 = sp + 0x80\n 45760: u64 [sp + 0xa0] = a3\n 45764: ra = 1944, jump @1724\n      : @1787 [@dyn 972] (gas: 12)\n 45770: a0 = u64 [sp + 0x48]\n 45773: a1 = u64 [sp + 0x58]\n 45776: a2 = u64 [sp + 0x50]\n 45779: a2 = a2 | a1\n 45782: a1 = a0 | s1\n 45785: a1 = a1 | a2\n 45788: a1 = a1 >> 0x20\n 45791: u64 [sp + 0x40] = s1\n 45794: a2 = a2 | s1\n 45797: a2 = a2 << 0x20\n 45800: a1 = a1 | a2\n 45803: jump @1795 if a1 != 0\n      : @1788 (gas: 7)\n 45807: u64 [sp + 120] = 0\n 45810: u64 [sp + 112] = 0\n 45813: u64 [sp + 104] = 0\n 45816: a1 = sp + 0x60\n 45819: a2 = u64 [sp + 0x20]\n 45822: u64 [sp + 0x60] = a2\n 45825: ra = 1946, jump @24\n      : @1789 [@dyn 973] (gas: 2)\n 45832: ecalli 13 // 'return_data_size'\n 45834: fallthrough\n      : @1790 (gas: 10)\n 45835: a3 = u64 [sp + 0x48]\n 45838: a1 = u64 [sp + 0x40]\n 45841: a2 = u64 [sp + 0x58]\n 45844: a1 = a1 | a2\n 45847: a2 = 0xffffffe0\n 45857: a2 = a3 <u a2\n 45860: a4 = u64 [sp + 0x50]\n 45863: a2 = 0 if a4 != 0\n 45865: a2 = 0 if a1 != 0\n 45867: jump @1795 if a2 == 0\n      : @1791 (gas: 3)\n 45870: s1 = a0\n 45872: a0 = a0 >> 0x20\n 45875: jump @1795 if a0 != 0\n      : @1792 (gas: 5)\n 45878: i32 a0 = a3 + 0x20\n 45881: i32 a1 = s1 + 0\n 45883: u64 [sp + 0x38] = a1\n 45886: a1 = s1\n 45888: ra = 1948, jump @37\n      : @1793 [@dyn 974] (gas: 6)\n 45895: u32 [sp + 0x120] = s1\n 45899: i32 a0 = a0 + 0\n 45901: i32 a1 = sp + 0x120\n 45905: a2 = 0\n 45907: ecalli 12 // 'return_data_copy'\n 45909: fallthrough\n      : @1794 (gas: 8)\n 45910: a4 = u64 [sp + 0x48]\n 45913: a0 = i32 [sp + 0x120]\n 45917: s1 = u64 [sp + 0x18]\n 45920: a1 = u64 [sp + 0x58]\n 45923: a2 = u64 [sp + 0x40]\n 45926: a3 = u64 [sp + 0x50]\n 45929: a5 = u64 [sp + 0x38]\n 45932: jump @1797 if a0 >=u a5\n      : @1795 (gas: 1)\n 45935: trap\n      : @1796 (gas: 5)\n 45936: a3 = 0\n 45938: a2 = 0\n 45940: a1 = 0\n 45942: a4 = 0x60\n 45945: fallthrough\n      : @1797 (gas: 10)\n 45946: u64 [s1] = a4\n 45948: u64 [s1 + 0x8] = a3\n 45951: u64 [s1 + 0x10] = a2\n 45954: u64 [s1 + 0x18] = a1\n 45957: sp = s0 + 0xfffffffffffffec0\n 45961: ra = u64 [sp + 0x138]\n 45965: s0 = u64 [sp + 0x130]\n 45969: s1 = u64 [sp + 0x128]\n 45973: sp = sp + 0x140\n 45977: ret\n      : @1798 (gas: 10)\n 45979: a4 = u64 [a1 + 0x18]\n 45982: a3 = u64 [a1 + 0x10]\n 45985: t1 = u64 [a1 + 0x8]\n 45988: t0 = a4 >u 0\n 45990: a5 = a3 >u 0\n 45992: a5 = t0 if a4 != 0\n 45995: t0 = a3 | a4\n 45998: a2 = t1 >u 0\n 46000: a2 = a5 if t0 != 0\n 46003: jump @1800 if a2 != 0\n      : @1799 (gas: 24)\n 46006: a1 = u64 [a1]\n 46008: a2 = a3 >> 0x3b\n 46011: a4 = a4 << 0x5\n 46014: t0 = a4 | a2\n 46017: a4 = t1 >> 0x3b\n 46020: a3 = a3 << 0x5\n 46023: a3 = a3 | a4\n 46026: a4 = a1 >> 0x3b\n 46029: t1 = t1 << 0x5\n 46032: a4 = t1 | a4\n 46035: a1 = a1 << 0x5\n 46038: a5 = a1 + 0x20\n 46041: a1 = a5 <u a1\n 46044: a2 = a4 + a1\n 46047: a4 = a2 <u a4\n 46050: a4 = a1 if a1 == 0\n 46053: a4 = a4 + a3\n 46056: a1 = a4 <u a3\n 46059: a1 = a1 + t0\n 46062: u64 [a0] = a5\n 46064: u64 [a0 + 0x8] = a2\n 46067: u64 [a0 + 0x10] = a4\n 46070: u64 [a0 + 0x18] = a1\n 46073: ret\n      : @1800 (gas: 6)\n 46075: sp = sp + 0xffffffffffffffb0\n 46078: u64 [sp + 0x48] = ra\n 46081: u64 [sp + 0x40] = s0\n 46084: s0 = sp + 0x50\n 46087: sp = sp & 0xfffffffffffffff0\n 46090: t0 = 1950, jump @1998\n      : @1801 [@dyn 975] (gas: 1)\n 46096: ra = 1952, jump @24\n      : @1802 [@dyn 976] (gas: 1)\n 46103: t0 = 1954, jump @2030\n      : @1803 [@dyn 977] (gas: 1)\n 46109: ra = 1956, jump @24\n      : @1804 [@dyn 978] (gas: 2)\n 46116: a1 = i32 [0x20180]\n 46121: jump @1806 if a1 >u 63\n      : @1805 (gas: 2)\n 46125: u32 [0x20180] = 0x40\n 46131: fallthrough\n      : @1806 (gas: 7)\n 46132: a1 = 0x20190\n 46137: i32 a1 = a1 + 0\n 46139: a0 = 0x1\n 46142: a2 = 0x24\n 46145: ra = 0x7a6\n 46149: ecalli 14 // 'seal_return'\n 46151: fallthrough\n      : @1807 [@dyn 979] (gas: 10)\n 46152: sp = sp + 0xfffffffffffffec0\n 46156: u64 [sp + 0x138] = ra\n 46160: u64 [sp + 0x130] = s0\n 46164: u64 [sp + 0x128] = s1\n 46168: s0 = sp + 0x140\n 46172: sp = sp & 0xfffffffffffffff0\n 46175: u64 [sp + 0x8] = a0\n 46178: a0 = sp + 0x100\n 46182: a1 = 0x40\n 46185: ra = 1960, jump @22\n      : @1808 [@dyn 980] (gas: 15)\n 46192: a0 = u64 [sp + 0x118]\n 46196: u64 [sp + 0x28] = a0\n 46199: s1 = u64 [sp + 0x110]\n 46203: a2 = u64 [sp + 0x108]\n 46207: u64 [sp + 0x38] = a2\n 46210: a1 = u64 [sp + 0x100]\n 46214: u64 [sp + 0x30] = a1\n 46217: u64 [sp + 0xf8] = a0\n 46221: u64 [sp + 0xf0] = s1\n 46225: u64 [sp + 0xe8] = a2\n 46229: a0 = sp + 0xe0\n 46233: u64 [sp + 0xe0] = a1\n 46237: ra = 0x7aa\n 46241: t0 = 0x73a\n 46245: jump @2010\n      : @1809 [@dyn 981] (gas: 12)\n 46248: a0 = u64 [sp + 0x28]\n 46251: a1 = u64 [sp + 0x38]\n 46254: a0 = a0 | a1\n 46257: a1 = u64 [sp + 0x30]\n 46260: a1 = a1 | s1\n 46263: a1 = a1 | a0\n 46266: a1 = a1 >> 0x20\n 46269: u64 [sp + 0x18] = s1\n 46272: a0 = a0 | s1\n 46275: a0 = a0 << 0x20\n 46278: a0 = a0 | a1\n 46281: jump @1823 if a0 != 0\n      : @1810 (gas: 8)\n 46285: u64 [sp + 216] = 0\n 46289: u64 [sp + 208] = 0\n 46293: u64 [sp + 200] = 0\n 46297: a1 = sp + 0xc0\n 46301: u64 [sp + 192] = 0\n 46305: s1 = u64 [sp + 0x30]\n 46308: a0 = s1\n 46310: ra = 1964, jump @24\n      : @1811 [@dyn 982] (gas: 12)\n 46317: a0 = u64 [sp + 0x28]\n 46320: a2 = u64 [sp + 0x18]\n 46323: a2 = a2 | a0\n 46326: a0 = 0x100000000\n 46336: u64 [sp + 0x10] = a0\n 46339: a0 = 0xffffffe0\n 46349: a0 = s1 <u a0\n 46352: a1 = u64 [sp + 0x38]\n 46355: a0 = 0 if a1 != 0\n 46357: u64 [sp + 0x20] = a2\n 46360: a0 = 0 if a2 != 0\n 46362: jump @1823 if a0 == 0\n      : @1812 (gas: 8)\n 46366: s1 = u64 [sp + 0x30]\n 46369: i32 a0 = s1 + 0x20\n 46372: u64 [sp + 184] = 0\n 46376: u64 [sp + 176] = 0\n 46380: u64 [sp + 168] = 0\n 46384: a1 = sp + 0xa0\n 46388: u64 [sp + 160] = 0\n 46392: ra = 1966, jump @24\n      : @1813 [@dyn 983] (gas: 3)\n 46399: a0 = u64 [sp + 0x10]\n 46402: a0 = a0 + 0xffffffffffffffc0\n 46405: t0 = 1968, jump @2069\n      : @1814 [@dyn 984] (gas: 1)\n 46411: jump @1823 if a0 == 0\n      : @1815 (gas: 8)\n 46415: s1 = u64 [sp + 0x30]\n 46418: i32 a0 = s1 + 0x40\n 46421: u64 [sp + 152] = 0\n 46425: u64 [sp + 144] = 0\n 46429: u64 [sp + 128] = 0x60\n 46434: a1 = sp + 0x80\n 46438: u64 [sp + 136] = 0\n 46442: ra = 1970, jump @24\n      : @1816 [@dyn 985] (gas: 4)\n 46449: a0 = 0x100000000\n 46459: u64 [sp + 0x10] = a0\n 46462: a0 = 0xffffffa0\n 46472: t0 = 1972, jump @2069\n      : @1817 [@dyn 986] (gas: 1)\n 46478: jump @1823 if a0 == 0\n      : @1818 (gas: 8)\n 46481: s1 = u64 [sp + 0x30]\n 46484: i32 a0 = s1 + 0x60\n 46487: u64 [sp + 120] = 0\n 46490: u64 [sp + 112] = 0\n 46493: u64 [sp + 104] = 0\n 46496: a1 = sp + 0x60\n 46499: u64 [sp + 96] = 0\n 46502: ra = 1974, jump @24\n      : @1819 [@dyn 987] (gas: 3)\n 46509: a0 = u64 [sp + 0x10]\n 46512: a0 = a0 + 0xffffffffffffff80\n 46515: t0 = 1976, jump @2069\n      : @1820 [@dyn 988] (gas: 1)\n 46521: jump @1823 if a0 == 0\n      : @1821 (gas: 8)\n 46524: s1 = u64 [sp + 0x30]\n 46527: i32 a0 = s1 + 0x80\n 46531: u64 [sp + 88] = 0\n 46534: u64 [sp + 80] = 0\n 46537: u64 [sp + 72] = 0\n 46540: a1 = sp + 0x40\n 46543: u64 [sp + 64] = 0\n 46546: ra = 1978, jump @24\n      : @1822 [@dyn 989] (gas: 14)\n 46553: a0 = u64 [sp + 0x8]\n 46556: a1 = u64 [sp + 0x28]\n 46559: u64 [a0 + 0x18] = a1\n 46562: a1 = u64 [sp + 0x18]\n 46565: u64 [a0 + 0x10] = a1\n 46568: a1 = u64 [sp + 0x38]\n 46571: u64 [a0 + 0x8] = a1\n 46574: u64 [a0] = s1\n 46576: sp = s0 + 0xfffffffffffffec0\n 46580: ra = u64 [sp + 0x138]\n 46584: s0 = u64 [sp + 0x130]\n 46588: s1 = u64 [sp + 0x128]\n 46592: sp = sp + 0x140\n 46596: ret\n      : @1823 (gas: 1)\n 46598: trap\n      : @1824 (gas: 22)\n 46599: sp = sp + 0xfffffffffffffe10\n 46603: u64 [sp + 0x1e8] = ra\n 46607: u64 [sp + 0x1e0] = s0\n 46611: u64 [sp + 0x1d8] = s1\n 46615: s0 = sp + 0x1f0\n 46619: sp = sp & 0xfffffffffffffff0\n 46622: a2 = u64 [a1]\n 46624: a3 = u64 [a1 + 0x8]\n 46627: a4 = u64 [a1 + 0x10]\n 46630: a1 = u64 [a1 + 0x18]\n 46633: u64 [sp + 0x8] = a0\n 46636: u64 [sp + 0x38] = a1\n 46639: u64 [sp + 0x1a8] = a1\n 46643: u64 [sp + 0x78] = a4\n 46646: u64 [sp + 0x1a0] = a4\n 46650: u64 [sp + 0x80] = a3\n 46654: u64 [sp + 0x198] = a3\n 46658: a0 = sp + 0x1b0\n 46662: a1 = sp + 0x190\n 46666: u64 [sp + 0x88] = a2\n 46670: u64 [sp + 0x190] = a2\n 46674: ra = 1980, jump @1798\n      : @1825 [@dyn 990] (gas: 11)\n 46680: a0 = u64 [sp + 0x1b0]\n 46684: u64 [sp + 0x70] = a0\n 46687: a0 = u64 [sp + 0x1b8]\n 46691: u64 [sp + 0x50] = a0\n 46694: a0 = u64 [sp + 0x1c0]\n 46698: u64 [sp + 0x48] = a0\n 46701: a0 = u64 [sp + 0x1c8]\n 46705: u64 [sp + 0x40] = a0\n 46708: a0 = sp + 0x170\n 46712: a1 = 0x40\n 46715: ra = 1982, jump @22\n      : @1826 [@dyn 991] (gas: 22)\n 46722: a0 = u64 [sp + 0x188]\n 46726: u64 [sp + 0x68] = a0\n 46729: s1 = u64 [sp + 0x180]\n 46733: a2 = u64 [sp + 0x178]\n 46737: u64 [sp + 0x60] = a2\n 46740: a3 = u64 [sp + 0x170]\n 46744: u64 [sp + 0x10] = a3\n 46747: a1 = u64 [sp + 0x40]\n 46750: u64 [sp + 0x148] = a1\n 46754: a1 = u64 [sp + 0x48]\n 46757: u64 [sp + 0x140] = a1\n 46761: a1 = u64 [sp + 0x50]\n 46764: u64 [sp + 0x138] = a1\n 46768: a1 = u64 [sp + 0x70]\n 46771: u64 [sp + 0x130] = a1\n 46775: u64 [sp + 0x168] = a0\n 46779: u64 [sp + 0x160] = s1\n 46783: u64 [sp + 0x158] = a2\n 46787: a0 = sp + 0x150\n 46791: a1 = sp + 0x130\n 46795: u64 [sp + 0x150] = a3\n 46799: ra = 1984, jump @1724\n      : @1827 [@dyn 992] (gas: 12)\n 46805: a0 = u64 [sp + 0x10]\n 46808: a1 = u64 [sp + 0x68]\n 46811: a2 = u64 [sp + 0x60]\n 46814: a2 = a2 | a1\n 46817: a1 = a0 | s1\n 46820: a1 = a1 | a2\n 46823: a1 = a1 >> 0x20\n 46826: u64 [sp + 0x58] = s1\n 46829: a2 = a2 | s1\n 46832: a2 = a2 << 0x20\n 46835: a1 = a1 | a2\n 46838: jump @1839 if a1 != 0\n      : @1828 (gas: 10)\n 46842: a1 = u64 [sp + 0x88]\n 46846: u64 [sp + 0x110] = a1\n 46850: a1 = u64 [sp + 0x80]\n 46854: u64 [sp + 0x118] = a1\n 46858: a1 = u64 [sp + 0x78]\n 46861: u64 [sp + 0x120] = a1\n 46865: a1 = sp + 0x110\n 46869: s1 = u64 [sp + 0x38]\n 46872: u64 [sp + 0x128] = s1\n 46876: ra = 1986, jump @24\n      : @1829 [@dyn 993] (gas: 10)\n 46883: u64 [sp + 0xe8] = s1\n 46887: a0 = u64 [sp + 0x78]\n 46890: u64 [sp + 0xe0] = a0\n 46894: a0 = u64 [sp + 0x80]\n 46898: u64 [sp + 0xd8] = a0\n 46902: a0 = sp + 0xf0\n 46906: a1 = sp + 0xd0\n 46910: a2 = u64 [sp + 0x88]\n 46914: u64 [sp + 0xd0] = a2\n 46918: ra = 1988, jump @1798\n      : @1830 [@dyn 994] (gas: 42)\n 46924: u64 [sp + 136] = 0\n 46928: ra = 0\n 46930: t1 = 0\n 46932: s1 = 0\n 46934: a0 = u64 [sp + 0xf0]\n 46938: a1 = u64 [sp + 0x108]\n 46942: a2 = u64 [sp + 0xf8]\n 46946: a3 = u64 [sp + 0x100]\n 46950: a4 = a0 + 0xffffffffffffffe0\n 46953: u64 [sp + 0x50] = a4\n 46956: a0 = a4 <u a0\n 46959: a4 = a2 + a0\n 46962: a5 = a4 + 0xffffffffffffffff\n 46965: a4 = a5 ^ a2\n 46968: u64 [sp + 0x48] = a5\n 46971: a2 = a5 <u a2\n 46974: a2 = a0 if a4 == 0\n 46977: a0 = a3 + 0xffffffffffffffff\n 46980: a2 = a2 + a0\n 46983: u64 [sp + 0x40] = a2\n 46986: a0 = a2 <u a0\n 46989: a2 = a3 <u 0x1\n 46992: a1 = a1 - a2\n 46995: a0 = a0 + a1\n 46998: u64 [sp + 0x38] = a0\n 47001: a1 = u64 [sp + 0x10]\n 47004: a0 = a1 + 0x20\n 47007: u64 [sp + 0x30] = a0\n 47010: a0 = a0 <u a1\n 47013: a4 = u64 [sp + 0x60]\n 47016: a1 = a4 + a0\n 47019: u64 [sp + 0x28] = a1\n 47022: a1 = a1 <u a4\n 47025: a1 = a0 if a0 == 0\n 47028: a5 = u64 [sp + 0x58]\n 47031: a1 = a1 + a5\n 47034: u64 [sp + 0x20] = a1\n 47037: a0 = a1 <u a5\n 47040: t0 = u64 [sp + 0x68]\n 47043: a0 = a0 + t0\n 47046: u64 [sp + 0x18] = a0\n 47049: fallthrough\n      : @1831 (gas: 17)\n 47050: a0 = u64 [sp + 0x50]\n 47053: a1 = u64 [sp + 0x88]\n 47057: a0 = a1 <u a0\n 47060: a2 = u64 [sp + 0x48]\n 47063: a1 = ra ^ a2\n 47066: a2 = ra <u a2\n 47069: a2 = a0 if a1 == 0\n 47072: t2 = u64 [sp + 0x40]\n 47075: a0 = t1 <u t2\n 47078: a3 = u64 [sp + 0x38]\n 47081: a1 = s1 ^ a3\n 47084: a3 = s1 <u a3\n 47087: a3 = a0 if a1 == 0\n 47090: a0 = t1 ^ t2\n 47093: a0 = a0 | a1\n 47096: a3 = a2 if a0 == 0\n 47099: jump @1838 if a3 == 0\n      : @1832 (gas: 5)\n 47103: a0 = sp + 0xb0\n 47107: u64 [sp + 0x80] = s1\n 47111: u64 [sp + 0x78] = t1\n 47114: s1 = ra\n 47116: ra = 1990, jump @1807\n      : @1833 [@dyn 995] (gas: 8)\n 47122: a0 = u64 [sp + 0x88]\n 47126: a1 = u64 [sp + 0x30]\n 47129: a0 = a0 + a1\n 47132: a1 = a0 <u a1\n 47135: u64 [sp + 0x70] = s1\n 47138: a4 = u64 [sp + 0x28]\n 47141: a2 = a4 + s1\n 47144: t0 = 1992, jump @2057\n      : @1834 [@dyn 996] (gas: 9)\n 47150: a3 = u64 [sp + 0x20]\n 47153: a1 = u64 [sp + 0x78]\n 47156: a1 = a1 + a3\n 47159: a3 = a1 <u a3\n 47162: a5 = u64 [sp + 0x18]\n 47165: s1 = u64 [sp + 0x80]\n 47169: a5 = a5 + s1\n 47172: a3 = a3 + a5\n 47175: t0 = 1994, jump @2066\n      : @1835 [@dyn 997] (gas: 1)\n 47181: jump @1839 if a1 != 0\n      : @1836 (gas: 10)\n 47185: a2 = u64 [sp + 0xc8]\n 47189: a1 = u64 [sp + 0xc0]\n 47193: a3 = u64 [sp + 0xb8]\n 47197: a4 = u64 [sp + 0xb0]\n 47201: u64 [sp + 0x90] = a4\n 47205: u64 [sp + 0x98] = a3\n 47209: u64 [sp + 0xa0] = a1\n 47213: a1 = sp + 0x90\n 47217: u64 [sp + 0xa8] = a2\n 47221: ra = 1996, jump @24\n      : @1837 [@dyn 998] (gas: 19)\n 47228: a1 = u64 [sp + 0x88]\n 47232: a0 = a1 + 0x20\n 47235: a1 = a0 <u a1\n 47238: s1 = u64 [sp + 0x70]\n 47241: a2 = s1 + a1\n 47244: a3 = a2 <u s1\n 47247: a3 = a1 if a1 == 0\n 47250: a1 = u64 [sp + 0x78]\n 47253: a3 = a3 + a1\n 47256: a1 = a3 <u a1\n 47259: s1 = u64 [sp + 0x80]\n 47263: s1 = s1 + a1\n 47266: u64 [sp + 0x88] = a0\n 47270: ra = a2\n 47272: t1 = a3\n 47274: t0 = u64 [sp + 0x68]\n 47277: a5 = u64 [sp + 0x58]\n 47280: a4 = u64 [sp + 0x60]\n 47283: jump @1831\n      : @1838 (gas: 12)\n 47286: a0 = u64 [sp + 0x8]\n 47289: a1 = u64 [sp + 0x10]\n 47292: u64 [a0] = a1\n 47294: u64 [a0 + 0x8] = a4\n 47297: u64 [a0 + 0x10] = a5\n 47300: u64 [a0 + 0x18] = t0\n 47303: sp = s0 + 0xfffffffffffffe10\n 47307: ra = u64 [sp + 0x1e8]\n 47311: s0 = u64 [sp + 0x1e0]\n 47315: s1 = u64 [sp + 0x1d8]\n 47319: sp = sp + 0x1f0\n 47323: ret\n      : @1839 (gas: 1)\n 47325: trap\n      : @1840 (gas: 22)\n 47326: sp = sp + 0xffffffffffffff40\n 47330: u64 [sp + 0xb8] = ra\n 47334: u64 [sp + 0xb0] = s0\n 47338: u64 [sp + 0xa8] = s1\n 47342: s0 = sp + 0xc0\n 47346: sp = sp & 0xfffffffffffffff0\n 47349: a4 = u64 [a1 + 0x10]\n 47352: a3 = u64 [a1 + 0x18]\n 47355: a5 = u64 [a1 + 0x8]\n 47358: a1 = u64 [a1]\n 47360: u64 [sp + 0x28] = a3\n 47363: u64 [sp + 0x20] = a5\n 47366: a5 = a5 | a3\n 47369: a3 = a1 | a4\n 47372: a3 = a3 | a5\n 47375: a3 = a3 >> 0x20\n 47378: u64 [sp + 0x30] = a4\n 47381: a4 = a4 | a5\n 47384: a4 = a4 << 0x20\n 47387: a3 = a3 | a4\n 47390: u64 [sp + 0x38] = a0\n 47393: jump @1844 if a3 != 0\n      : @1841 (gas: 10)\n 47397: a0 = u64 [a2 + 0x18]\n 47400: u64 [sp + 0x10] = a0\n 47403: s1 = u64 [a2 + 0x10]\n 47406: a0 = u64 [a2 + 0x8]\n 47409: u64 [sp + 0x8] = a0\n 47412: a0 = u64 [a2]\n 47414: u64 [sp] = a0\n 47416: a0 = sp + 0x80\n 47420: u64 [sp + 0x18] = a1\n 47423: ra = 1998, jump @22\n      : @1842 [@dyn 999] (gas: 19)\n 47430: t0 = u64 [sp + 0x10]\n 47433: a5 = u64 [sp + 0x8]\n 47436: t1 = u64 [sp]\n 47438: a0 = u64 [sp + 0x88]\n 47442: a1 = u64 [sp + 0x98]\n 47446: a2 = u64 [sp + 0x80]\n 47450: a3 = u64 [sp + 0x90]\n 47454: a4 = a0 ^ a5\n 47457: a0 = a5 <u a0\n 47460: a2 = t1 <u a2\n 47463: a2 = a0 if a4 != 0\n 47466: a0 = s1 <u a3\n 47469: a4 = a1 ^ t0\n 47472: a1 = t0 <u a1\n 47475: a1 = a0 if a4 == 0\n 47478: a3 = a3 ^ s1\n 47481: a3 = a3 | a4\n 47484: a1 = a2 if a3 == 0\n 47487: jump @1845 if a1 == 0\n      : @1843 (gas: 47)\n 47491: a0 = s1 >> 0x3b\n 47494: a1 = t0 << 0x5\n 47497: t0 = a1 | a0\n 47500: a1 = a5 >> 0x3b\n 47503: s1 = s1 << 0x5\n 47506: a1 = a1 | s1\n 47509: a2 = t1 >> 0x3b\n 47512: a3 = a5 << 0x5\n 47515: a2 = a2 | a3\n 47518: a3 = t1 << 0x5\n 47521: a0 = u64 [sp + 0x18]\n 47524: a3 = a3 + a0\n 47527: a4 = a3 <u a0\n 47530: a5 = u64 [sp + 0x20]\n 47533: a2 = a2 + a5\n 47536: a2 = a2 + a4\n 47539: a0 = a2 ^ a5\n 47542: s1 = a2 <u a5\n 47545: s1 = a4 if a0 == 0\n 47548: a5 = u64 [sp + 0x30]\n 47551: a1 = a1 + a5\n 47554: s1 = s1 + a1\n 47557: a4 = s1 <u a1\n 47560: a1 = a1 <u a5\n 47563: a5 = u64 [sp + 0x28]\n 47566: a0 = a5 + t0\n 47569: a0 = a0 + a1\n 47572: a0 = a0 + a4\n 47575: a1 = a3 + 0x20\n 47578: a3 = a1 <u a3\n 47581: a4 = a2 + a3\n 47584: a2 = a4 <u a2\n 47587: a2 = a3 if a3 == 0\n 47590: a2 = a2 + s1\n 47593: a3 = a2 <u s1\n 47596: a0 = a0 + a3\n 47599: a3 = u64 [sp + 0x38]\n 47602: u64 [a3] = a1\n 47604: u64 [a3 + 0x8] = a4\n 47607: u64 [a3 + 0x10] = a2\n 47610: u64 [a3 + 0x18] = a0\n 47613: sp = s0 + 0xffffffffffffff40\n 47617: ra = u64 [sp + 0xb8]\n 47621: s0 = u64 [sp + 0xb0]\n 47625: s1 = u64 [sp + 0xa8]\n 47629: sp = sp + 0xc0\n 47633: ret\n      : @1844 (gas: 1)\n 47635: trap\n      : @1845 (gas: 6)\n 47636: u64 [sp + 112] = 0\n 47639: u64 [sp + 104] = 0\n 47642: u64 [sp + 96] = 0\n 47645: t0 = 0x7d0\n 47649: a0 = 0x4e487b7100000000\n 47659: fallthrough\n      : @1846 [@dyn 1000] (gas: 4)\n 47660: a1 = sp + 0x60\n 47663: u64 [sp + 0x78] = a0\n 47666: a0 = 0\n 47668: ra = 2002, jump @24\n      : @1847 [@dyn 1001] (gas: 7)\n 47675: u64 [sp + 88] = 0\n 47678: u64 [sp + 80] = 0\n 47681: u64 [sp + 64] = 0x32\n 47685: a0 = 0x4\n 47688: a1 = sp + 0x40\n 47691: u64 [sp + 72] = 0\n 47694: ra = 2004, jump @24\n      : @1848 [@dyn 1002] (gas: 2)\n 47701: a1 = i32 [0x20180]\n 47706: jump @1850 if a1 >u 63\n      : @1849 (gas: 2)\n 47710: u32 [0x20180] = 0x40\n 47716: fallthrough\n      : @1850 (gas: 7)\n 47717: a1 = 0x20190\n 47722: i32 a1 = a1 + 0\n 47724: a0 = 0x1\n 47727: a2 = 0x24\n 47730: ra = 0x7d6\n 47734: ecalli 14 // 'seal_return'\n 47736: fallthrough\n      : @1851 [@dyn 1003] (gas: 23)\n 47737: sp = sp + 0xfffffffffffffdc0\n 47741: a2 = sp + 0x200\n 47745: u64 [a2 + 0x38] = ra\n 47748: u64 [a2 + 0x30] = s0\n 47751: u64 [a2 + 0x28] = s1\n 47754: s0 = sp + 0x240\n 47758: sp = sp & 0xffffffffffffffe0\n 47761: u64 [sp + 0x10] = a0\n 47764: a0 = u64 [a1 + 0x18]\n 47767: a2 = u64 [a1 + 0x10]\n 47770: a3 = u64 [a1 + 0x8]\n 47773: a1 = u64 [a1]\n 47775: u64 [sp + 0x58] = a0\n 47778: u64 [sp + 0x1f8] = a0\n 47782: u64 [sp + 0x38] = a2\n 47785: u64 [sp + 0x1f0] = a2\n 47789: u64 [sp + 0x50] = a3\n 47792: u64 [sp + 0x1e8] = a3\n 47796: u64 [sp + 0x48] = a1\n 47799: u64 [sp + 0x1e0] = a1\n 47803: a0 = sp + 0x1c0\n 47807: a1 = 0x40\n 47810: ra = 2008, jump @22\n      : @1852 [@dyn 1004] (gas: 15)\n 47817: a0 = u64 [sp + 0x1d8]\n 47821: u64 [sp + 0x68] = a0\n 47824: s1 = u64 [sp + 0x1d0]\n 47828: a2 = u64 [sp + 0x1c8]\n 47832: u64 [sp + 0x70] = a2\n 47835: a1 = u64 [sp + 0x1c0]\n 47839: u64 [sp + 0x78] = a1\n 47842: u64 [sp + 0x1b8] = a0\n 47846: u64 [sp + 0x1b0] = s1\n 47850: u64 [sp + 0x1a8] = a2\n 47854: a0 = sp + 0x1a0\n 47858: u64 [sp + 0x1a0] = a1\n 47862: ra = 0x7da\n 47866: t0 = 0x73a\n 47870: jump @2010\n      : @1853 [@dyn 1005] (gas: 3)\n 47873: a0 = sp + 0x180\n 47877: a1 = sp + 0x1e0\n 47881: ra = 2012, jump @26\n      : @1854 [@dyn 1006] (gas: 12)\n 47888: a0 = u64 [sp + 0x68]\n 47891: a1 = u64 [sp + 0x70]\n 47894: a0 = a0 | a1\n 47897: a1 = u64 [sp + 0x78]\n 47900: a1 = a1 | s1\n 47903: a1 = a1 | a0\n 47906: a1 = a1 >> 0x20\n 47909: u64 [sp + 0x40] = s1\n 47912: a0 = a0 | s1\n 47915: a0 = a0 << 0x20\n 47918: a0 = a0 | a1\n 47921: jump @1868 if a0 != 0\n      : @1855 (gas: 16)\n 47925: a1 = u64 [sp + 0x180]\n 47929: a0 = u64 [sp + 0x190]\n 47933: u64 [sp + 0x28] = a0\n 47936: a0 = u64 [sp + 0x188]\n 47940: u64 [sp + 0x18] = a0\n 47943: u64 [sp + 0x20] = a1\n 47946: a0 = a1 << 0x20\n 47949: a0 = a0 >> 0x20\n 47952: u64 [sp + 376] = 0\n 47956: u64 [sp + 368] = 0\n 47960: u64 [sp + 360] = 0\n 47964: a1 = sp + 0x160\n 47968: u64 [sp + 0x160] = a0\n 47972: s1 = u64 [sp + 0x78]\n 47975: a0 = s1\n 47977: ra = 2014, jump @24\n      : @1856 [@dyn 1007] (gas: 12)\n 47984: a0 = u64 [sp + 0x68]\n 47987: a2 = u64 [sp + 0x40]\n 47990: a2 = a2 | a0\n 47993: a0 = 0x100000000\n 48003: u64 [sp + 0x30] = a0\n 48006: a0 = 0xffffffe0\n 48016: a0 = s1 <u a0\n 48019: a1 = u64 [sp + 0x70]\n 48022: a0 = 0 if a1 != 0\n 48024: u64 [sp + 0x60] = a2\n 48027: a0 = 0 if a2 != 0\n 48029: jump @1868 if a0 == 0\n      : @1857 (gas: 18)\n 48033: a4 = u64 [sp + 0x18]\n 48036: a0 = a4 >> 0x20\n 48039: a3 = u64 [sp + 0x28]\n 48042: a1 = a3 << 0x20\n 48045: a2 = a0 | a1\n 48048: a0 = u64 [sp + 0x20]\n 48051: a0 = a0 >> 0x20\n 48054: a1 = a4 << 0x20\n 48057: a1 = a1 | a0\n 48060: a3 = a3 >> 0x20\n 48063: a0 = u64 [sp + 0x78]\n 48066: i32 a0 = a0 + 0x20\n 48069: u64 [sp + 344] = 0\n 48073: u64 [sp + 0x150] = a3\n 48077: u64 [sp + 0x140] = a1\n 48081: a1 = sp + 0x140\n 48085: u64 [sp + 0x148] = a2\n 48089: ra = 2016, jump @24\n      : @1858 [@dyn 1008] (gas: 19)\n 48096: a0 = u64 [sp + 0x48]\n 48099: a0 = a0 + 0x1\n 48102: a1 = a0 <u 0x1\n 48105: a2 = u64 [sp + 0x50]\n 48108: a1 = a1 + a2\n 48111: a2 = a0 | a1\n 48114: a2 = a2 <u 0x1\n 48117: s1 = u64 [sp + 0x38]\n 48120: a2 = a2 + s1\n 48123: a3 = a2 <u s1\n 48126: a4 = u64 [sp + 0x58]\n 48129: a3 = a3 + a4\n 48132: u64 [sp + 0x110] = a2\n 48136: u64 [sp + 0x108] = a1\n 48140: u64 [sp + 0x100] = a0\n 48144: a0 = sp + 0x120\n 48148: a1 = sp + 0x100\n 48152: u64 [sp + 0x118] = a3\n 48156: ra = 2018, jump @1734\n      : @1859 [@dyn 1009] (gas: 9)\n 48162: a0 = u64 [sp + 0x30]\n 48165: a0 = a0 + 0xffffffffffffffc0\n 48168: a1 = u64 [sp + 0x78]\n 48171: a0 = a1 <u a0\n 48174: a1 = u64 [sp + 0x70]\n 48177: a0 = 0 if a1 != 0\n 48179: a1 = u64 [sp + 0x60]\n 48182: a0 = 0 if a1 != 0\n 48184: jump @1868 if a0 == 0\n      : @1860 (gas: 12)\n 48188: a2 = u64 [sp + 0x138]\n 48192: a1 = u64 [sp + 0x130]\n 48196: a3 = u64 [sp + 0x128]\n 48200: a4 = u64 [sp + 0x120]\n 48204: a0 = u64 [sp + 0x78]\n 48207: i32 a0 = a0 + 0x40\n 48210: u64 [sp + 0xe0] = a4\n 48214: u64 [sp + 0xe8] = a3\n 48218: u64 [sp + 0xf0] = a1\n 48222: a1 = sp + 0xe0\n 48226: u64 [sp + 0xf8] = a2\n 48230: ra = 2020, jump @24\n      : @1861 [@dyn 1010] (gas: 5)\n 48237: a1 = u64 [sp + 0x48]\n 48240: a0 = a1 + 0x2\n 48243: a1 = a0 <u a1\n 48246: a3 = u64 [sp + 0x50]\n 48249: t0 = 2022, jump @2023\n      : @1862 [@dyn 1011] (gas: 12)\n 48255: a3 = a3 + s1\n 48258: a1 = a3 <u s1\n 48261: a4 = u64 [sp + 0x58]\n 48264: a1 = a1 + a4\n 48267: a4 = sp + 0x200\n 48271: u64 [a4 + 0x8] = a2\n 48274: u64 [a4] = a0\n 48276: u64 [a4 + 0x10] = a3\n 48279: u64 [a4 + 0x18] = a1\n 48282: a0 = sp + 0xc0\n 48286: a1 = sp + 0x200\n 48290: ra = 2024, jump @26\n      : @1863 [@dyn 1012] (gas: 10)\n 48297: s1 = 0x100000000\n 48307: u64 [sp + 0x58] = s1\n 48310: a0 = 0xffffffa0\n 48320: a1 = u64 [sp + 0x78]\n 48323: a0 = a1 <u a0\n 48326: a1 = u64 [sp + 0x70]\n 48329: a0 = 0 if a1 != 0\n 48331: a1 = u64 [sp + 0x60]\n 48334: a0 = 0 if a1 != 0\n 48336: jump @1868 if a0 == 0\n      : @1864 (gas: 11)\n 48340: a0 = u64 [sp + 0xc8]\n 48344: u64 [sp + 0x50] = a0\n 48347: a1 = u64 [sp + 0xc0]\n 48351: s1 = u64 [sp + 0x78]\n 48354: i32 a0 = s1 + 0x60\n 48357: u64 [sp + 184] = 0\n 48361: u64 [sp + 176] = 0\n 48365: u64 [sp + 0xa0] = a1\n 48369: a1 = sp + 0xa0\n 48373: u64 [sp + 168] = 0\n 48377: ra = 2026, jump @24\n      : @1865 [@dyn 1013] (gas: 8)\n 48384: a0 = u64 [sp + 0x58]\n 48387: a0 = a0 + 0xffffffffffffff80\n 48390: a0 = s1 <u a0\n 48393: a1 = u64 [sp + 0x70]\n 48396: a0 = 0 if a1 != 0\n 48398: a1 = u64 [sp + 0x60]\n 48401: a0 = 0 if a1 != 0\n 48403: jump @1868 if a0 == 0\n      : @1866 (gas: 10)\n 48406: a0 = u8 [sp + 0x50]\n 48409: a1 = a0 >u 0\n 48411: s1 = u64 [sp + 0x78]\n 48414: i32 a0 = s1 + 0x80\n 48418: u64 [sp + 152] = 0\n 48422: u64 [sp + 144] = 0\n 48426: u64 [sp + 0x80] = a1\n 48430: a1 = sp + 0x80\n 48434: u64 [sp + 136] = 0\n 48438: ra = 2028, jump @24\n      : @1867 [@dyn 1014] (gas: 15)\n 48445: a0 = u64 [sp + 0x10]\n 48448: a1 = u64 [sp + 0x68]\n 48451: u64 [a0 + 0x18] = a1\n 48454: a1 = u64 [sp + 0x40]\n 48457: u64 [a0 + 0x10] = a1\n 48460: a1 = u64 [sp + 0x70]\n 48463: u64 [a0 + 0x8] = a1\n 48466: u64 [a0] = s1\n 48468: sp = s0 + 0xfffffffffffffdc0\n 48472: a0 = sp + 0x200\n 48476: ra = u64 [a0 + 0x38]\n 48479: s0 = u64 [a0 + 0x30]\n 48482: s1 = u64 [a0 + 0x28]\n 48485: sp = sp + 0x240\n 48489: ret\n      : @1868 (gas: 1)\n 48491: trap\n      : @1869 (gas: 21)\n 48492: sp = sp + 0xfffffffffffff900\n 48496: a3 = sp + 0x600\n 48500: u64 [a3 + 0xf8] = ra\n 48504: u64 [a3 + 0xf0] = s0\n 48508: u64 [a3 + 0xe8] = s1\n 48512: s0 = sp + 0x700\n 48516: sp = sp & 0xffffffffffffffe0\n 48519: s1 = sp\n 48521: a2 = u64 [a2]\n 48523: u64 [s1 + 0x28] = a2\n 48526: a1 = u64 [a1]\n 48528: u64 [s1 + 0x30] = a1\n 48531: a1 = u64 [a0 + 0x10]\n 48534: u64 [s1 + 0x20] = a1\n 48537: a1 = u64 [a0 + 0x8]\n 48540: u64 [s1 + 0x38] = a1\n 48543: a0 = u64 [a0]\n 48545: u64 [s1 + 0x40] = a0\n 48548: i32 a0 = s1 + 0x620\n 48552: ecalli 10 // 'now'\n 48554: fallthrough\n      : @1870 (gas: 48)\n 48555: t0 = u64 [s1 + 0x638]\n 48559: t1 = u64 [s1 + 0x630]\n 48563: a0 = u64 [s1 + 0x628]\n 48567: a4 = u64 [s1 + 0x620]\n 48571: u64 [s1 + 0x78] = a4\n 48574: a2 = clz t0\n 48576: a1 = clz t1\n 48578: a3 = a1 + 0x40\n 48581: a3 = a2 if t0 != 0\n 48584: a2 = clz a0\n 48586: a1 = clz a4\n 48588: a1 = a1 + 0x40\n 48591: a1 = a2 if a0 != 0\n 48594: a4 = a1 + 0x80\n 48598: a2 = t1 | t0\n 48601: a3 = a4 if a2 == 0\n 48604: a5 = a4 <u a1\n 48607: a5 = 0 if a2 != 0\n 48609: a4 = a5 >u 0\n 48611: a1 = a3 <u 0xf0\n 48615: a2 = a1 ^ 0x1\n 48618: a4 = a2 if a5 == 0\n 48621: t2 = a4 <u 0x1\n 48624: ra = t2 + 0xffffffffffffffff\n 48627: t2 = -a4\n 48629: a5 = -a5\n 48631: a2 = a5 - a2\n 48634: a1 = 0xef - a3\n 48638: u64 [s1 + 0xa8] = t2\n 48642: a3 = t2 >u 0\n 48644: a5 = ra >u 0\n 48646: a5 = a3 if ra == 0\n 48649: u64 [s1 + 0xb8] = a1\n 48653: a3 = a1 <u 0x100\n 48657: a3 = a3 ^ 0x1\n 48660: a1 = a2 >u 0\n 48662: a3 = a1 if a2 != 0\n 48665: a3 = a5 if a4 != 0\n 48668: t2 = a0\n 48670: a0 = u64 [s1 + 0x78]\n 48673: a1 = t2 | t0\n 48676: a4 = a0 | t1\n 48679: a1 = a1 | a4\n 48682: a1 = a1 <u 0x1\n 48685: a1 = a1 | a3\n 48688: a3 = a0\n 48690: a3 = 0 if a1 != 0\n 48692: jump @1886 if a1 != 0\n      : @1871 (gas: 7)\n 48696: a1 = u64 [s1 + 0xb8]\n 48700: a1 = a1 ^ 0xff\n 48704: a5 = u64 [s1 + 0xa8]\n 48708: a1 = a1 | a5\n 48711: a4 = a2 | ra\n 48714: a1 = a1 | a4\n 48717: jump @1886 if a1 == 0\n      : @1872 (gas: 21)\n 48721: a4 = u64 [s1 + 0xb8]\n 48725: a3 = a4 + 0x1\n 48728: u64 [s1 + 0xb0] = a3\n 48732: a1 = a3 <u 0x1\n 48735: a1 = a1 + a2\n 48738: u64 [s1 + 0xa0] = a1\n 48742: a1 = a1 | a3\n 48745: a1 = a1 <u 0x1\n 48748: a1 = a1 + a5\n 48751: u64 [s1 + 0x90] = a1\n 48755: a1 = a1 <u a5\n 48758: a1 = a1 + ra\n 48761: u64 [s1 + 0x98] = a1\n 48765: a2 = 0xff - a4\n 48769: u64 [s1 + 0x88] = a2\n 48773: a2 = 0x80 - a2\n 48777: a1 = t2\n 48779: u64 [s1 + 0x70] = t2\n 48782: u64 [s1 + 0x68] = t0\n 48785: u64 [s1 + 0x60] = t1\n 48788: ra = 2030, jump @2101\n      : @1873 [@dyn 1015] (gas: 6)\n 48794: u64 [s1 + 0x80] = a0\n 48798: u64 [s1 + 0x50] = a1\n 48801: a0 = u64 [s1 + 0x60]\n 48804: a1 = u64 [s1 + 0x68]\n 48807: a2 = u64 [s1 + 0x88]\n 48811: ra = 2032, jump @2106\n      : @1874 [@dyn 1016] (gas: 7)\n 48817: u64 [s1 + 0x48] = a0\n 48820: u64 [s1 + 0x18] = a1\n 48823: a1 = u64 [s1 + 0xb8]\n 48827: a2 = 0x7f - a1\n 48830: a0 = u64 [s1 + 0x78]\n 48833: a1 = u64 [s1 + 0x70]\n 48836: ra = 2034, jump @2106\n      : @1875 [@dyn 1017] (gas: 8)\n 48842: u64 [s1 + 0x10] = a0\n 48845: u64 [s1 + 0xb8] = a1\n 48849: a2 = u64 [s1 + 0x88]\n 48853: a0 = a2 <u 0x80\n 48857: u64 [s1 + 0x58] = a0\n 48860: a0 = u64 [s1 + 0x78]\n 48863: a1 = u64 [s1 + 0x70]\n 48866: ra = 2036, jump @2106\n      : @1876 [@dyn 1018] (gas: 11)\n 48872: a5 = u64 [s1 + 0x58]\n 48875: a4 = u64 [s1 + 0x90]\n 48879: a3 = u64 [s1 + 0x98]\n 48883: a2 = u64 [s1 + 0xa0]\n 48887: a2 = a2 | a3\n 48890: a3 = u64 [s1 + 0xb0]\n 48894: a3 = a3 | a4\n 48897: a3 = a3 | a2\n 48900: a0 = 0 if a5 == 0\n 48902: u64 [s1 + 0xa8] = a0\n 48906: jump @1884 if a3 == 0\n      : @1877 (gas: 27)\n 48910: a0 = u64 [s1 + 0x50]\n 48913: a2 = u64 [s1 + 0x18]\n 48916: a0 = a0 | a2\n 48919: a2 = u64 [s1 + 0xb8]\n 48923: a0 = a2 if a5 == 0\n 48926: t0 = u64 [s1 + 0x68]\n 48929: a3 = t0\n 48931: t1 = u64 [s1 + 0x88]\n 48935: a3 = a0 if t1 != 0\n 48938: u64 [s1 + 0xb8] = a3\n 48942: a0 = u64 [s1 + 0x80]\n 48946: a2 = u64 [s1 + 0x48]\n 48949: a0 = a0 | a2\n 48952: a2 = u64 [s1 + 0x10]\n 48955: a0 = a2 if a5 == 0\n 48958: a4 = u64 [s1 + 0x60]\n 48961: a3 = a4\n 48963: a3 = a0 if t1 != 0\n 48966: u64 [s1 + 0x80] = a3\n 48970: a1 = 0 if a5 == 0\n 48972: u64 [s1 + 0x88] = a1\n 48976: u64 [s1 + 88] = 0x15180\n 48982: a0 = u64 [s1 + 0xb0]\n 48986: a2 = a0 + 0xffffffffffffff80\n 48989: a0 = a4\n 48991: a1 = t0\n 48993: ra = 2038, jump @2101\n      : @1878 [@dyn 1019] (gas: 6)\n 48999: u64 [s1 + 0x50] = a0\n 49002: u64 [s1 + 0x18] = a1\n 49005: a0 = u64 [s1 + 0x78]\n 49008: a1 = u64 [s1 + 0x70]\n 49011: a2 = u64 [s1 + 0xb0]\n 49015: ra = 2040, jump @2101\n      : @1879 [@dyn 1020] (gas: 7)\n 49021: u64 [s1 + 0x10] = a0\n 49024: u64 [s1 + 0x48] = a1\n 49027: a1 = u64 [s1 + 0xb0]\n 49031: a2 = 0x80 - a1\n 49035: a0 = u64 [s1 + 0x60]\n 49038: a1 = u64 [s1 + 0x68]\n 49041: ra = 2042, jump @2106\n      : @1880 [@dyn 1021] (gas: 21)\n 49047: a2 = u64 [s1 + 0x48]\n 49050: a1 = a1 | a2\n 49053: a3 = u64 [s1 + 0xb0]\n 49057: a4 = a3 <u 0x80\n 49061: u64 [s1 + 0x48] = a4\n 49064: a2 = u64 [s1 + 0x18]\n 49067: a1 = a2 if a4 == 0\n 49070: a2 = u64 [s1 + 0x70]\n 49073: a2 = a1 if a3 != 0\n 49076: u64 [s1 + 0x70] = a2\n 49079: a1 = u64 [s1 + 0x10]\n 49082: a0 = a0 | a1\n 49085: a1 = u64 [s1 + 0x50]\n 49088: a0 = a1 if a4 == 0\n 49091: a1 = u64 [s1 + 0x78]\n 49094: a1 = a0 if a3 != 0\n 49097: a2 = a3\n 49099: u64 [s1 + 0x78] = a1\n 49102: a0 = u64 [s1 + 0x60]\n 49105: a1 = u64 [s1 + 0x68]\n 49108: ra = 2044, jump @2101\n      : @1881 [@dyn 1022] (gas: 13)\n 49114: a5 = 0\n 49116: a2 = u64 [s1 + 0x48]\n 49119: a1 = 0 if a2 == 0\n 49121: a0 = 0 if a2 == 0\n 49123: a3 = u64 [s1 + 0x58]\n 49126: a2 = a3 + 0xffffffffffffffff\n 49129: u64 [s1 + 0x50] = a2\n 49132: a2 = a3 >u 0\n 49134: a2 = a2 + 0xffffffffffffffff\n 49137: u64 [s1 + 0x48] = a2\n 49140: t1 = u64 [s1 + 0x70]\n 49143: t2 = u64 [s1 + 0x78]\n 49146: fallthrough\n      : @1882 (gas: 87)\n 49147: u64 [s1 + 0x78] = a5\n 49150: a2 = t2 >> 0x3f\n 49153: a3 = t1 << 0x1\n 49156: a5 = a3 | a2\n 49159: a3 = t2 << 0x1\n 49162: a4 = u64 [s1 + 0xb8]\n 49166: a4 = a4 >> 0x3f\n 49169: a3 = a3 | a4\n 49172: u64 [s1 + 0x68] = a3\n 49175: a2 = u64 [s1 + 0x48]\n 49178: u64 [s1 + 0x70] = a5\n 49181: t2 = t1\n 49183: t1 = a2 ^ a5\n 49186: t0 = a2 <u a5\n 49189: a4 = u64 [s1 + 0x50]\n 49192: a5 = a4 <u a3\n 49195: a5 = t0 if t1 != 0\n 49198: a1 = a1 << 0x1\n 49201: a3 = a0 >> 0x3f\n 49204: a1 = a1 | a3\n 49207: u64 [s1 + 0x60] = a1\n 49210: a3 = t2 >> 0x3f\n 49213: a0 = a0 << 0x1\n 49216: a3 = a3 | a0\n 49219: a0 = u64 [s1 + 0xb8]\n 49223: a0 = a0 << 0x1\n 49226: a4 = u64 [s1 + 0x80]\n 49230: a1 = a4 >> 0x3f\n 49233: t0 = a0 | a1\n 49236: a1 = a4 << 0x1\n 49239: a4 = u64 [s1 + 0x88]\n 49243: t1 = a4 >> 0x3f\n 49246: t1 = a1 | t1\n 49249: a1 = a4 << 0x1\n 49252: a4 = u64 [s1 + 0xa8]\n 49256: t2 = a4 >> 0x3f\n 49259: a1 = a1 | t2\n 49262: a4 = a4 << 0x1\n 49265: a0 = u64 [s1 + 0x78]\n 49268: a4 = a4 | a0\n 49271: u64 [s1 + 0xa8] = a4\n 49275: a1 = a1 | 0\n 49277: u64 [s1 + 0x88] = a1\n 49281: a1 = t1 | 0\n 49283: u64 [s1 + 0x80] = a1\n 49287: a0 = t0 | 0\n 49289: u64 [s1 + 0xb8] = a0\n 49293: a0 = a2 - a3\n 49296: a0 = a0 <u a5\n 49299: a1 = a2 <u a3\n 49302: t0 = u64 [s1 + 0x60]\n 49305: a4 = a2 - t0\n 49308: a4 = a4 - a1\n 49311: a4 = a4 - a0\n 49314: a5 = a4 >>a 0x3f\n 49317: a0 = u64 [s1 + 0x58]\n 49320: a0 = a0 & a5\n 49323: a1 = u64 [s1 + 0x68]\n 49326: t2 = a1 - a0\n 49329: a1 = a1 <u a0\n 49332: a0 = u64 [s1 + 0x70]\n 49335: t1 = a0 - a1\n 49338: a1 = 0 if a0 != 0\n 49340: a0 = a3 - a1\n 49343: a1 = a3 <u a1\n 49346: a1 = t0 - a1\n 49349: a3 = u64 [s1 + 0xb0]\n 49353: ra = u64 [s1 + 0xa0]\n 49357: a2 = a3 | ra\n 49360: a2 = a2 <u 0x1\n 49363: a4 = u64 [s1 + 0x90]\n 49367: t0 = a4 <u a2\n 49370: a2 = a4 - a2\n 49373: a4 = a3 <u 0x1\n 49376: ra = ra - a4\n 49379: a4 = u64 [s1 + 0x98]\n 49383: a4 = a4 - t0\n 49386: a3 = a3 + 0xffffffffffffffff\n 49389: u64 [s1 + 0xa0] = ra\n 49393: u64 [s1 + 0x98] = a4\n 49397: t0 = ra | a4\n 49400: u64 [s1 + 0xb0] = a3\n 49404: a4 = a3 | a2\n 49407: a3 = a4 | t0\n 49410: a5 = a5 & 0x1\n 49413: u64 [s1 + 0x90] = a2\n 49417: jump @1882 if a3 != 0\n      : @1883 (gas: 1)\n 49421: jump @1885\n      : @1884 (gas: 2)\n 49423: a5 = 0\n 49425: fallthrough\n      : @1885 (gas: 4)\n 49426: a0 = u64 [s1 + 0xa8]\n 49430: a0 = a0 << 0x1\n 49433: a3 = a5 | a0\n 49436: fallthrough\n      : @1886 (gas: 2)\n 49437: a0 = u64 [s1 + 0x30]\n 49440: jump @1957 if a0 >=u a3\n      : @1887 (gas: 13)\n 49444: a0 = u64 [s1 + 0x20]\n 49447: a0 = a0 << 0x20\n 49450: a2 = a0 >> 0x20\n 49453: u64 [s1 + 1528] = 0\n 49457: a0 = u64 [s1 + 0x40]\n 49460: u64 [s1 + 0x5e0] = a0\n 49464: a0 = u64 [s1 + 0x38]\n 49467: u64 [s1 + 0x5e8] = a0\n 49471: a1 = s1 + 0x5e0\n 49475: u64 [s1 + 0xa8] = a2\n 49479: u64 [s1 + 0x5f0] = a2\n 49483: a0 = 0\n 49485: ra = 2046, jump @24\n      : @1888 [@dyn 1023] (gas: 7)\n 49492: u64 [s1 + 1496] = 0\n 49496: u64 [s1 + 1488] = 0\n 49500: u64 [s1 + 1472] = 0x2\n 49505: a0 = 0x20\n 49508: a1 = s1 + 0x5c0\n 49512: u64 [s1 + 1480] = 0\n 49516: ra = 2048, jump @24\n      : @1889 [@dyn 1024] (gas: 3)\n 49523: a1 = 0x20180\n 49528: a0 = i32 [0x20180]\n 49533: jump @1891 if a0 >u 63\n      : @1890 (gas: 2)\n 49537: u32 [0x20180] = 0x40\n 49543: fallthrough\n      : @1891 (gas: 15)\n 49544: a0 = sp + 0xffffffffffffffe0\n 49547: a2 = a0 & 0xffffffffffffffe0\n 49550: u64 [s1 + 0xa0] = a2\n 49554: sp = a2\n 49556: a0 = 0x20190\n 49561: u64 [s1 + 0x50] = a0\n 49564: i32 a0 = a0 + 0\n 49566: u64 [s1 + 0xb0] = a1\n 49570: i32 a2 = a2 + 0\n 49572: a1 = 0x40\n 49575: u64 [s1 + 0xb8] = a0\n 49579: ra = 0x802\n 49583: ecalli 9 // 'hash_keccak_256'\n 49585: t0 = 0x804\n 49589: jump @2025\n      : @1892 [@dyn 1025] (gas: 1)\n 49592: t0 = 2052, jump @2025\n      : @1893 [@dyn 1026] (gas: 11)\n 49598: a0 = u64 [s1 + 0x28]\n 49601: a0 = a0 << 0x20\n 49604: a0 = a0 >> 0x20\n 49607: u64 [s1 + 1464] = 0\n 49611: u64 [s1 + 1456] = 0\n 49615: u64 [s1 + 1448] = 0\n 49619: a1 = s1 + 0x5a0\n 49623: u64 [s1 + 0x90] = a0\n 49627: u64 [s1 + 0x5a0] = a0\n 49631: a0 = 0\n 49633: ra = 2054, jump @24\n      : @1894 [@dyn 1027] (gas: 12)\n 49640: a0 = u64 [s1 + 0x78]\n 49643: a3 = s1 + 0x500\n 49647: u64 [a3 + 0x98] = a0\n 49651: a0 = u64 [s1 + 0x80]\n 49655: u64 [a3 + 0x90] = a0\n 49659: a0 = u64 [s1 + 0x88]\n 49663: u64 [a3 + 0x88] = a0\n 49667: a0 = 0x20\n 49670: a1 = s1 + 0x580\n 49674: a2 = u64 [s1 + 0x98]\n 49678: u64 [a3 + 0x80] = a2\n 49682: ra = 2056, jump @24\n      : @1895 [@dyn 1028] (gas: 3)\n 49689: a1 = u64 [s1 + 0xb0]\n 49693: a0 = i32 [a1]\n 49695: jump @1897 if a0 >u 63\n      : @1896 (gas: 2)\n 49699: u32 [a1 + 0] = 0x40\n 49702: fallthrough\n      : @1897 (gas: 4)\n 49703: a0 = sp + 0xffffffffffffffe0\n 49706: a0 = a0 & 0xffffffffffffffe0\n 49709: u64 [s1 + 0x98] = a0\n 49713: t0 = 2058, jump @2062\n      : @1898 [@dyn 1029] (gas: 4)\n 49719: ra = 0x80c\n 49723: ecalli 9 // 'hash_keccak_256'\n 49725: t0 = 0x80e\n 49729: jump @2038\n      : @1899 [@dyn 1030] (gas: 1)\n 49732: t0 = 2062, jump @2038\n      : @1900 [@dyn 1031] (gas: 2)\n 49738: a0 = s1 + 0x560\n 49742: ra = 2064, jump @26\n      : @1901 [@dyn 1032] (gas: 7)\n 49749: a0 = u32 [s1 + 0x564]\n 49753: a1 = u64 [s1 + 0x568]\n 49757: a2 = u64 [s1 + 0x570]\n 49761: a0 = a0 << 0x20\n 49764: a1 = a1 | a2\n 49767: a0 = a0 | a1\n 49770: jump @1961 if a0 == 0\n      : @1902 (gas: 10)\n 49774: u64 [s1 + 1368] = 0\n 49778: a0 = u64 [s1 + 0x40]\n 49781: u64 [s1 + 0x540] = a0\n 49785: a0 = u64 [s1 + 0x38]\n 49788: u64 [s1 + 0x548] = a0\n 49792: a1 = s1 + 0x540\n 49796: a0 = u64 [s1 + 0xa8]\n 49800: u64 [s1 + 0x550] = a0\n 49804: a0 = 0\n 49806: ra = 2066, jump @24\n      : @1903 [@dyn 1033] (gas: 7)\n 49813: u64 [s1 + 1336] = 0\n 49817: u64 [s1 + 1328] = 0\n 49821: u64 [s1 + 1312] = 0x4\n 49826: a0 = 0x20\n 49829: a1 = s1 + 0x520\n 49833: u64 [s1 + 1320] = 0\n 49837: ra = 2068, jump @24\n      : @1904 [@dyn 1034] (gas: 3)\n 49844: a1 = u64 [s1 + 0xb0]\n 49848: a0 = i32 [a1]\n 49850: jump @1906 if a0 >u 63\n      : @1905 (gas: 2)\n 49854: u32 [a1 + 0] = 0x40\n 49857: fallthrough\n      : @1906 (gas: 4)\n 49858: a0 = sp + 0xffffffffffffffe0\n 49861: a0 = a0 & 0xffffffffffffffe0\n 49864: u64 [s1 + 0xa0] = a0\n 49868: t0 = 2070, jump @2062\n      : @1907 [@dyn 1035] (gas: 22)\n 49874: ecalli 9 // 'hash_keccak_256'\n 49876: a3 = u64 [s1 + 0xa0]\n 49880: a0 = u64 [a3 + 0x18]\n 49883: a1 = u64 [a3 + 0x10]\n 49886: a2 = u64 [a3 + 0x8]\n 49889: a3 = u64 [a3]\n 49891: a0 = reverse a0\n 49893: u64 [s1 + 0xa0] = a0\n 49897: a0 = reverse a1\n 49899: u64 [s1 + 0x98] = a0\n 49903: a0 = reverse a2\n 49905: u64 [s1 + 0x88] = a0\n 49909: a0 = reverse a3\n 49911: u64 [s1 + 0x80] = a0\n 49915: u64 [s1 + 1304] = 0\n 49919: u64 [s1 + 1296] = 0\n 49923: u64 [s1 + 1288] = 0\n 49927: a1 = s1 + 0x500\n 49931: a0 = u64 [s1 + 0x30]\n 49934: u64 [s1 + 0x500] = a0\n 49938: a0 = 0\n 49940: ra = 2072, jump @24\n      : @1908 [@dyn 1036] (gas: 12)\n 49947: a0 = u64 [s1 + 0x80]\n 49951: a3 = s1 + 0x400\n 49955: u64 [a3 + 0xf8] = a0\n 49959: a0 = u64 [s1 + 0x88]\n 49963: u64 [a3 + 0xf0] = a0\n 49967: a0 = u64 [s1 + 0x98]\n 49971: u64 [a3 + 0xe8] = a0\n 49975: a0 = 0x20\n 49978: a1 = s1 + 0x4e0\n 49982: a2 = u64 [s1 + 0xa0]\n 49986: u64 [a3 + 0xe0] = a2\n 49990: ra = 2074, jump @24\n      : @1909 [@dyn 1037] (gas: 3)\n 49997: a1 = u64 [s1 + 0xb0]\n 50001: a0 = i32 [a1]\n 50003: jump @1911 if a0 >u 63\n      : @1910 (gas: 2)\n 50007: u32 [a1 + 0] = 0x40\n 50010: fallthrough\n      : @1911 (gas: 4)\n 50011: a0 = sp + 0xffffffffffffffe0\n 50014: a0 = a0 & 0xffffffffffffffe0\n 50017: u64 [s1 + 0xa0] = a0\n 50021: t0 = 2076, jump @2062\n      : @1912 [@dyn 1038] (gas: 4)\n 50027: ra = 0x81e\n 50031: ecalli 9 // 'hash_keccak_256'\n 50033: t0 = 0x820\n 50037: jump @2025\n      : @1913 [@dyn 1039] (gas: 1)\n 50040: t0 = 2080, jump @2025\n      : @1914 [@dyn 1040] (gas: 8)\n 50046: u64 [s1 + 1240] = 0\n 50050: u64 [s1 + 1232] = 0\n 50054: u64 [s1 + 1224] = 0\n 50058: a1 = s1 + 0x4c0\n 50062: a0 = u64 [s1 + 0x90]\n 50066: u64 [s1 + 0x4c0] = a0\n 50070: a0 = 0\n 50072: ra = 2082, jump @24\n      : @1915 [@dyn 1041] (gas: 12)\n 50079: a0 = u64 [s1 + 0x78]\n 50082: a3 = s1 + 0x400\n 50086: u64 [a3 + 0xb8] = a0\n 50090: a0 = u64 [s1 + 0x80]\n 50094: u64 [a3 + 0xb0] = a0\n 50098: a0 = u64 [s1 + 0x88]\n 50102: u64 [a3 + 0xa8] = a0\n 50106: a0 = 0x20\n 50109: a1 = s1 + 0x4a0\n 50113: a2 = u64 [s1 + 0x98]\n 50117: u64 [a3 + 0xa0] = a2\n 50121: ra = 2084, jump @24\n      : @1916 [@dyn 1042] (gas: 3)\n 50128: a1 = u64 [s1 + 0xb0]\n 50132: a0 = i32 [a1]\n 50134: jump @1918 if a0 >=u 64\n      : @1917 (gas: 2)\n 50138: u32 [a1 + 0] = 0x40\n 50141: fallthrough\n      : @1918 (gas: 4)\n 50142: a0 = sp + 0xffffffffffffffe0\n 50145: a0 = a0 & 0xffffffffffffffe0\n 50148: u64 [s1 + 0x98] = a0\n 50152: t0 = 2086, jump @2062\n      : @1919 [@dyn 1043] (gas: 4)\n 50158: ra = 0x828\n 50162: ecalli 9 // 'hash_keccak_256'\n 50164: t0 = 0x82a\n 50168: jump @2038\n      : @1920 [@dyn 1044] (gas: 1)\n 50171: t0 = 2090, jump @2038\n      : @1921 [@dyn 1045] (gas: 2)\n 50177: a0 = s1 + 0x480\n 50181: ra = 2092, jump @26\n      : @1922 [@dyn 1046] (gas: 3)\n 50188: a1 = u64 [s1 + 0x480]\n 50192: a0 = a1 & 0xff\n 50196: jump @1962 if a0 == 0\n      : @1923 (gas: 3)\n 50200: u64 [s1 + 0x98] = a1\n 50204: a0 = a1 & 0xff0000\n 50210: jump @1963 if a0 != 0\n      : @1924 (gas: 16)\n 50214: a0 = u64 [s1 + 0x498]\n 50218: u64 [s1 + 0x58] = a0\n 50221: a0 = u64 [s1 + 0x490]\n 50225: u64 [s1 + 0x60] = a0\n 50228: a0 = u64 [s1 + 0x488]\n 50232: u64 [s1 + 0x68] = a0\n 50235: u64 [s1 + 1112] = 0\n 50239: a0 = u64 [s1 + 0x40]\n 50242: u64 [s1 + 0x440] = a0\n 50246: a0 = u64 [s1 + 0x38]\n 50249: u64 [s1 + 0x448] = a0\n 50253: a1 = s1 + 0x440\n 50257: a0 = u64 [s1 + 0xa8]\n 50261: u64 [s1 + 0x450] = a0\n 50265: a0 = 0\n 50267: ra = 2094, jump @24\n      : @1925 [@dyn 1047] (gas: 7)\n 50274: u64 [s1 + 1080] = 0\n 50278: u64 [s1 + 1072] = 0\n 50282: u64 [s1 + 1056] = 0x1\n 50287: a0 = 0x20\n 50290: a1 = s1 + 0x420\n 50294: u64 [s1 + 1064] = 0\n 50298: ra = 2096, jump @24\n      : @1926 [@dyn 1048] (gas: 3)\n 50305: a2 = u64 [s1 + 0xb0]\n 50309: a0 = i32 [a2]\n 50311: jump @1928 if a0 >u 63\n      : @1927 (gas: 2)\n 50315: u32 [a2 + 0] = 0x40\n 50318: fallthrough\n      : @1928 (gas: 4)\n 50319: a0 = sp + 0xffffffffffffffe0\n 50322: a0 = a0 & 0xffffffffffffffe0\n 50325: u64 [s1 + 0x88] = a0\n 50329: t0 = 2098, jump @2062\n      : @1929 [@dyn 1049] (gas: 28)\n 50335: ecalli 9 // 'hash_keccak_256'\n 50337: a3 = u64 [s1 + 0x88]\n 50341: a0 = u64 [a3]\n 50343: a1 = u64 [a3 + 0x8]\n 50346: a2 = u64 [a3 + 0x10]\n 50349: a3 = u64 [a3 + 0x18]\n 50352: a0 = reverse a0\n 50354: u64 [s1 + 0x88] = a0\n 50358: a0 = reverse a1\n 50360: u64 [s1 + 0x80] = a0\n 50364: a0 = reverse a2\n 50366: u64 [s1 + 0x78] = a0\n 50369: a0 = reverse a3\n 50371: u64 [s1 + 0x70] = a0\n 50374: a1 = sp + 0xffffffffffffffe0\n 50377: a1 = a1 & 0xffffffffffffffe0\n 50380: sp = a1\n 50382: a2 = u64 [s1 + 0x98]\n 50386: a0 = a2 | 0x10000\n 50391: a2 = u64 [s1 + 0x58]\n 50394: u64 [a1 + 0x18] = a2\n 50397: a2 = u64 [s1 + 0x60]\n 50400: u64 [a1 + 0x10] = a2\n 50403: a2 = u64 [s1 + 0x68]\n 50406: u64 [a1 + 0x8] = a2\n 50409: u64 [a1] = a0\n 50411: a0 = u64 [s1 + 0xa0]\n 50415: ra = 2100, jump @28\n      : @1930 [@dyn 1050] (gas: 25)\n 50422: a1 = u64 [s1 + 0x98]\n 50426: a0 = a1 & 0xff00\n 50431: u64 [s1 + 0x98] = a0\n 50435: a0 = sp + 0xffffffffffffffe0\n 50438: a1 = a0 & 0xffffffffffffffe0\n 50441: sp = a1\n 50443: a0 = u64 [s1 + 0x70]\n 50446: a0 = a0 + 0x1\n 50449: a2 = a0 <u 0x1\n 50452: a4 = u64 [s1 + 0x78]\n 50455: a4 = a4 + a2\n 50458: a2 = a0 | a4\n 50461: a2 = a2 <u 0x1\n 50464: a3 = u64 [s1 + 0x80]\n 50468: a2 = a2 + a3\n 50471: a3 = a2 <u a3\n 50474: a5 = u64 [s1 + 0x88]\n 50478: a3 = a3 + a5\n 50481: u64 [a1 + 0x18] = a3\n 50484: u64 [a1 + 0x10] = a2\n 50487: u64 [a1 + 0x8] = a4\n 50490: u64 [a1] = a0\n 50492: a0 = s1 + 0x400\n 50496: u64 [s1 + 0xa0] = a1\n 50500: ra = 2102, jump @26\n      : @1931 [@dyn 1051] (gas: 27)\n 50507: t0 = u64 [s1 + 0x418]\n 50511: t1 = u64 [s1 + 0x410]\n 50515: a3 = u64 [s1 + 0x408]\n 50519: t2 = u64 [s1 + 0x400]\n 50523: a1 = sp + 0xffffffffffffffe0\n 50526: a1 = a1 & 0xffffffffffffffe0\n 50529: sp = a1\n 50531: a5 = u64 [0x20120]\n 50536: a5 = a5 + t2\n 50539: a2 = a5 <u t2\n 50542: a0 = a3 + a2\n 50545: a0 = a0 + 0xffffffffffffffff\n 50548: ra = a0 ^ a3\n 50551: a4 = a0 <u a3\n 50554: a4 = a2 if ra == 0\n 50557: a2 = t1 + 0xffffffffffffffff\n 50560: a4 = a4 + a2\n 50563: ra = a4 <u a2\n 50566: a2 = t1 <u 0x1\n 50569: a2 = t0 - a2\n 50572: a2 = a2 + ra\n 50575: u64 [a1 + 0x8] = a0\n 50578: u64 [a1] = a5\n 50580: u64 [a1 + 0x10] = a4\n 50583: u64 [a1 + 0x18] = a2\n 50586: a0 = u64 [s1 + 0x98]\n 50590: jump @1942 if a0 == 0\n      : @1932 (gas: 7)\n 50594: a0 = u64 [0x20128]\n 50599: u64 [s1 + 0x98] = a0\n 50603: a0 = t2 <u a0\n 50606: a0 = 0 if a3 != 0\n 50608: a2 = t1 | t0\n 50611: a0 = 0 if a2 != 0\n 50613: jump @1964 if a0 != 0\n      : @1933 (gas: 2)\n 50617: a0 = u64 [s1 + 0xa0]\n 50621: ra = 2104, jump @28\n      : @1934 [@dyn 1052] (gas: 22)\n 50628: a0 = sp + 0xffffffffffffffe0\n 50631: a1 = a0 & 0xffffffffffffffe0\n 50634: sp = a1\n 50636: a2 = u64 [s1 + 0x70]\n 50639: a0 = a2 + 0x2\n 50642: a4 = a0 <u a2\n 50645: a3 = u64 [s1 + 0x78]\n 50648: a2 = a3 + a4\n 50651: a3 = a2 <u a3\n 50654: a3 = a4 if a4 == 0\n 50657: a4 = u64 [s1 + 0x80]\n 50661: a3 = a3 + a4\n 50664: a5 = a3 <u a4\n 50667: a4 = u64 [s1 + 0x88]\n 50671: a4 = a4 + a5\n 50674: u64 [a1 + 0x10] = a3\n 50677: u64 [a1 + 0x8] = a2\n 50680: u64 [a1] = a0\n 50682: u64 [a1 + 0x18] = a4\n 50685: a0 = s1 + 0x3e0\n 50689: u64 [s1 + 0xa0] = a1\n 50693: ra = 2106, jump @26\n      : @1935 [@dyn 1053] (gas: 28)\n 50700: t0 = u64 [s1 + 0x3f8]\n 50704: t1 = u64 [s1 + 0x3f0]\n 50708: a3 = u64 [s1 + 0x3e8]\n 50712: a4 = u64 [s1 + 0x3e0]\n 50716: a1 = sp + 0xffffffffffffffe0\n 50719: a1 = a1 & 0xffffffffffffffe0\n 50722: sp = a1\n 50724: t2 = u64 [s1 + 0x98]\n 50728: t2 = t2 + a4\n 50731: a0 = t2 <u a4\n 50734: a2 = a3 + a0\n 50737: a5 = a2 <u a3\n 50740: a5 = a0 if a0 == 0\n 50743: a5 = a5 + t1\n 50746: a0 = a5 <u t1\n 50749: u64 [a1 + 0x10] = a5\n 50752: a5 = u64 [0x20130]\n 50757: a0 = a0 + t0\n 50760: u64 [a1 + 0x8] = a2\n 50763: u64 [a1] = t2\n 50765: a2 = a5 <u a4\n 50768: a3 = a3 + 0x1\n 50771: a2 = 0 if a3 != 0\n 50773: a3 = t1 & t0\n 50776: a3 = a3 + 0x1\n 50779: a2 = 0 if a3 != 0\n 50781: u64 [a1 + 0x18] = a0\n 50784: jump @1967 if a2 != 0\n      : @1936 (gas: 2)\n 50788: a0 = u64 [s1 + 0xa0]\n 50792: ra = 2108, jump @28\n      : @1937 [@dyn 1054] (gas: 3)\n 50799: a0 = s1 + 0x3c0\n 50803: a1 = 0x40\n 50806: ra = 2110, jump @22\n      : @1938 [@dyn 1055] (gas: 6)\n 50813: a4 = s1 + 0x300\n 50817: a0 = u64 [a4 + 0xd8]\n 50821: a1 = u64 [a4 + 0xd0]\n 50825: a2 = u64 [a4 + 0xc8]\n 50829: a3 = u64 [a4 + 0xc0]\n 50833: t0 = 2112, jump @2018\n      : @1939 [@dyn 1056] (gas: 1)\n 50839: jump @1956 if a0 != 0\n      : @1940 (gas: 9)\n 50843: u64 [s1 + 952] = 0\n 50847: u64 [s1 + 944] = 0\n 50851: u64 [s1 + 936] = 0\n 50855: a1 = s1 + 0x3a0\n 50859: a0 = u64 [s1 + 0x98]\n 50863: u64 [s1 + 0x3a0] = a0\n 50867: a0 = a3\n 50869: u64 [s1 + 0xb8] = a3\n 50873: ra = 2114, jump @24\n      : @1941 [@dyn 1057] (gas: 33)\n 50880: u64 [s1 + 824] = 0\n 50884: u64 [s1 + 816] = 0\n 50888: u64 [s1 + 808] = 0\n 50892: a0 = u64 [s1 + 0x30]\n 50895: u64 [s1 + 0x320] = a0\n 50899: u64 [s1 + 856] = 0\n 50903: u64 [s1 + 848] = 0\n 50907: u64 [s1 + 840] = 0\n 50911: a0 = u64 [s1 + 0x90]\n 50915: u64 [s1 + 0x340] = a0\n 50919: u64 [s1 + 888] = 0\n 50923: a0 = u64 [s1 + 0xa8]\n 50927: u64 [s1 + 0x370] = a0\n 50931: a0 = u64 [s1 + 0x38]\n 50934: u64 [s1 + 0x368] = a0\n 50938: a0 = u64 [0x20138]\n 50943: a1 = u64 [0x20140]\n 50948: a2 = u64 [0x20148]\n 50953: a3 = u64 [s1 + 0x40]\n 50956: u64 [s1 + 0x360] = a3\n 50960: u64 [s1 + 0x398] = a0\n 50964: u64 [s1 + 0x390] = a1\n 50968: u64 [s1 + 0x388] = a2\n 50972: a0 = u64 [0x20150]\n 50977: a1 = 0x20\n 50980: a2 = s1 + 0x380\n 50984: a3 = s1 + 0x360\n 50988: a4 = s1 + 0x340\n 50992: a5 = s1 + 0x320\n 50996: u64 [s1 + 0x380] = a0\n 51000: a0 = u64 [s1 + 0xb8]\n 51004: ra = 0x854\n 51008: jump @34\n      : @1942 (gas: 7)\n 51012: a0 = u64 [0x20128]\n 51017: u64 [s1 + 0x98] = a0\n 51021: a0 = t2 <u a0\n 51024: a0 = 0 if a3 != 0\n 51026: a2 = t1 | t0\n 51029: a0 = 0 if a2 != 0\n 51031: jump @1970 if a0 != 0\n      : @1943 (gas: 2)\n 51035: a0 = u64 [s1 + 0xa0]\n 51039: ra = 2116, jump @28\n      : @1944 [@dyn 1058] (gas: 7)\n 51046: u64 [s1 + 1624] = 0\n 51050: u64 [s1 + 1616] = 0\n 51054: u64 [s1 + 1608] = 0\n 51058: u64 [s1 + 1600] = 0\n 51062: a0 = s1 + 0x280\n 51066: a1 = s1 + 0x640\n 51070: ra = 2118, jump @26\n      : @1945 [@dyn 1059] (gas: 28)\n 51077: t0 = u64 [s1 + 0x298]\n 51081: t1 = u64 [s1 + 0x290]\n 51085: a3 = u64 [s1 + 0x288]\n 51089: a4 = u64 [s1 + 0x280]\n 51093: a1 = sp + 0xffffffffffffffe0\n 51096: a1 = a1 & 0xffffffffffffffe0\n 51099: sp = a1\n 51101: t2 = u64 [s1 + 0x98]\n 51105: t2 = t2 + a4\n 51108: a0 = t2 <u a4\n 51111: a2 = a3 + a0\n 51114: a5 = a2 <u a3\n 51117: a5 = a0 if a0 == 0\n 51120: a5 = a5 + t1\n 51123: a0 = a5 <u t1\n 51126: u64 [a1 + 0x10] = a5\n 51129: a5 = u64 [0x20130]\n 51134: a0 = a0 + t0\n 51137: u64 [a1 + 0x8] = a2\n 51140: u64 [a1] = t2\n 51142: a2 = a5 <u a4\n 51145: a3 = a3 + 0x1\n 51148: a2 = 0 if a3 != 0\n 51150: a3 = t1 & t0\n 51153: a3 = a3 + 0x1\n 51156: a2 = 0 if a3 != 0\n 51158: u64 [a1 + 0x18] = a0\n 51161: jump @1973 if a2 != 0\n      : @1946 (gas: 6)\n 51165: u64 [s1 + 1656] = 0\n 51169: u64 [s1 + 1648] = 0\n 51173: u64 [s1 + 1640] = 0\n 51177: u64 [s1 + 1632] = 0\n 51181: a0 = s1 + 0x660\n 51185: ra = 2120, jump @28\n      : @1947 [@dyn 1060] (gas: 1)\n 51192: ra = 2122, jump @15\n      : @1948 [@dyn 1061] (gas: 59)\n 51199: a1 = u64 [0x301b0]\n 51204: u64 [s1 + 0xa0] = a1\n 51208: a1 = u64 [0x301c0]\n 51213: u64 [s1 + 0x88] = a1\n 51217: a0 = u64 [0x301b8]\n 51222: u64 [s1 + 0x80] = a0\n 51226: ecalli 11 // 'ref_time_left'\n 51228: a1 = u64 [s1 + 0x80]\n 51232: a1 = reverse a1\n 51234: a2 = a1 << 0x20\n 51237: a3 = u64 [s1 + 0x88]\n 51241: a3 = reverse a3\n 51243: a3 = a3 >> 0x20\n 51246: a2 = a2 | a3\n 51249: a1 = a1 >> 0x20\n 51252: a3 = u64 [s1 + 0xa0]\n 51256: a3 = reverse a3\n 51258: a4 = 0x30190\n 51263: a5 = a3 << 0x20\n 51266: a1 = a1 | a5\n 51269: a3 = a3 >> 0x20\n 51272: u32 [0x301a0] = a3\n 51277: u64 [0x30198] = a1\n 51282: u64 [0x30190] = a2\n 51287: u64 [s1 + 1688] = 0\n 51291: u64 [s1 + 1680] = 0\n 51295: u64 [s1 + 1672] = 0\n 51299: a1 = u64 [s1 + 0x98]\n 51303: a2 = s1 + 0x600\n 51307: u64 [a2 + 0x80] = a1\n 51311: u32 [s1 + 1696] = 0\n 51315: a0 = a0 >u 0x8fc\n 51319: a1 = -a0\n 51321: u64 [a2 + 0xd8] = a1\n 51325: u64 [a2 + 0xd0] = a1\n 51329: u64 [a2 + 0xc8] = a1\n 51333: u64 [a2 + 0xc0] = a1\n 51337: a4 = a4 << 0x20\n 51340: a4 = a4 >> 0x20\n 51343: a0 = a0 << 0x23\n 51346: a0 = a0 | a4\n 51349: a1 = s1 + 0x680\n 51353: a1 = a1 << 0x20\n 51356: a1 = a1 >> 0x20\n 51359: a2 = s1 + 0x6c0\n 51363: a2 = a2 << 0x20\n 51366: a3 = a2 | a1\n 51369: a4 = u64 [s1 + 0x50]\n 51372: a4 = a4 << 0x20\n 51375: a4 = a4 >> 0x20\n 51378: a1 = s1 + 0x6a0\n 51382: a1 = a1 << 0x20\n 51385: a5 = a1 | a4\n 51388: a1 = 0xffffffffffffffff\n 51391: a2 = 0xffffffffffffffff\n 51394: ecalli 1 // 'call'\n 51396: u64 [s1 + 0xa0] = a0\n 51400: a0 = s1 + 0x260\n 51404: ra = 2124, jump @1782\n      : @1949 [@dyn 1062] (gas: 2)\n 51410: a0 = u64 [s1 + 0xa0]\n 51414: jump @1979 if a0 != 0\n      : @1950 (gas: 3)\n 51418: a0 = s1 + 0x220\n 51422: a1 = 0x40\n 51425: ra = 2126, jump @22\n      : @1951 [@dyn 1063] (gas: 6)\n 51432: a4 = s1 + 0x200\n 51436: a0 = u64 [a4 + 0x38]\n 51439: a1 = u64 [a4 + 0x30]\n 51442: a2 = u64 [a4 + 0x28]\n 51445: a3 = u64 [a4 + 0x20]\n 51448: t0 = 2128, jump @2018\n      : @1952 [@dyn 1064] (gas: 1)\n 51454: jump @1956 if a0 != 0\n      : @1953 (gas: 9)\n 51458: u64 [s1 + 536] = 0\n 51462: u64 [s1 + 528] = 0\n 51466: u64 [s1 + 520] = 0\n 51470: a1 = s1 + 0x200\n 51474: a0 = u64 [s1 + 0x98]\n 51478: u64 [s1 + 0x200] = a0\n 51482: a0 = a3\n 51484: u64 [s1 + 0xb8] = a3\n 51488: ra = 2130, jump @24\n      : @1954 [@dyn 1065] (gas: 32)\n 51495: u64 [s1 + 408] = 0\n 51499: u64 [s1 + 400] = 0\n 51503: u64 [s1 + 392] = 0\n 51507: a0 = u64 [s1 + 0x30]\n 51510: u64 [s1 + 0x180] = a0\n 51514: u64 [s1 + 440] = 0\n 51518: u64 [s1 + 432] = 0\n 51522: u64 [s1 + 424] = 0\n 51526: a0 = u64 [s1 + 0x90]\n 51530: u64 [s1 + 0x1a0] = a0\n 51534: u64 [s1 + 472] = 0\n 51538: a0 = u64 [s1 + 0xa8]\n 51542: u64 [s1 + 0x1d0] = a0\n 51546: a0 = u64 [s1 + 0x38]\n 51549: u64 [s1 + 0x1c8] = a0\n 51553: a0 = u64 [0x20158]\n 51558: a1 = u64 [0x20160]\n 51563: a2 = u64 [0x20168]\n 51568: a3 = u64 [s1 + 0x40]\n 51571: u64 [s1 + 0x1c0] = a3\n 51575: u64 [s1 + 0x1f8] = a0\n 51579: u64 [s1 + 0x1f0] = a1\n 51583: u64 [s1 + 0x1e8] = a2\n 51587: a0 = u64 [0x20170]\n 51592: a1 = 0x20\n 51595: a2 = s1 + 0x1e0\n 51599: a3 = s1 + 0x1c0\n 51603: a4 = s1 + 0x1a0\n 51607: a5 = s1 + 0x180\n 51611: u64 [s1 + 0x1e0] = a0\n 51615: a0 = u64 [s1 + 0xb8]\n 51619: ra = 2132, jump @34\n      : @1955 [@dyn 1066] (gas: 7)\n 51626: sp = s0 + 0xfffffffffffff900\n 51630: a0 = sp + 0x600\n 51634: ra = u64 [a0 + 0xf8]\n 51638: s0 = u64 [a0 + 0xf0]\n 51642: s1 = u64 [a0 + 0xe8]\n 51646: sp = sp + 0x700\n 51650: ret\n      : @1956 (gas: 1)\n 51652: trap\n      : @1957 (gas: 8)\n 51653: u64 [s1 + 1552] = 0\n 51657: u64 [s1 + 1544] = 0\n 51661: u64 [s1 + 1536] = 0\n 51665: a0 = 0xcf114bd900000000\n 51675: a1 = s1 + 0x600\n 51679: u64 [s1 + 0x618] = a0\n 51683: a0 = 0\n 51685: ra = 2134, jump @24\n      : @1958 [@dyn 1067] (gas: 2)\n 51692: a1 = i32 [0x20180]\n 51697: jump @1960 if a1 >u 31\n      : @1959 (gas: 2)\n 51701: u32 [0x20180] = 0x20\n 51707: fallthrough\n      : @1960 (gas: 6)\n 51708: a1 = 0x20190\n 51713: i32 a1 = a1 + 0\n 51715: a0 = 0x1\n 51718: a2 = 0x4\n 51721: ecalli 14 // 'seal_return'\n 51723: fallthrough\n      : @1961 (gas: 9)\n 51724: u64 [s1 + 208] = 0\n 51728: u64 [s1 + 200] = 0\n 51732: u64 [s1 + 192] = 0\n 51736: a0 = 0xa7a9536d00000000\n 51746: a1 = s1 + 0xc0\n 51750: u64 [s1 + 0xd8] = a0\n 51754: a0 = 0\n 51756: ra = 0x86a\n 51760: jump @24\n      : @1962 (gas: 9)\n 51764: u64 [s1 + 240] = 0\n 51768: u64 [s1 + 232] = 0\n 51772: u64 [s1 + 224] = 0\n 51776: a0 = 0xafa4e2b600000000\n 51786: a1 = s1 + 0xe0\n 51790: u64 [s1 + 0xf8] = a0\n 51794: a0 = 0\n 51796: ra = 0x86a\n 51800: jump @24\n      : @1963 (gas: 9)\n 51804: u64 [s1 + 1136] = 0\n 51808: u64 [s1 + 1128] = 0\n 51812: u64 [s1 + 1120] = 0\n 51816: a0 = 0x560ff90000000000\n 51826: a1 = s1 + 0x460\n 51830: u64 [s1 + 0x478] = a0\n 51834: a0 = 0\n 51836: ra = 0x86a\n 51840: jump @24\n      : @1964 (gas: 6)\n 51844: u64 [s1 + 720] = 0\n 51848: u64 [s1 + 712] = 0\n 51852: u64 [s1 + 704] = 0\n 51856: t0 = 0x858\n 51860: a0 = 0x4e487b7100000000\n 51870: fallthrough\n      : @1965 [@dyn 1068] (gas: 4)\n 51871: a1 = s1 + 0x2c0\n 51875: u64 [s1 + 0x2d8] = a0\n 51879: a0 = 0\n 51881: ra = 2138, jump @24\n      : @1966 [@dyn 1069] (gas: 8)\n 51888: u64 [s1 + 696] = 0\n 51892: u64 [s1 + 688] = 0\n 51896: u64 [s1 + 672] = 0x11\n 51901: a0 = 0x4\n 51904: a1 = s1 + 0x2a0\n 51908: u64 [s1 + 680] = 0\n 51912: ra = 0x868\n 51916: jump @24\n      : @1967 (gas: 6)\n 51920: u64 [s1 + 784] = 0\n 51924: u64 [s1 + 776] = 0\n 51928: u64 [s1 + 768] = 0\n 51932: t0 = 0x85c\n 51936: a0 = 0x4e487b7100000000\n 51946: fallthrough\n      : @1968 [@dyn 1070] (gas: 4)\n 51947: a1 = s1 + 0x300\n 51951: u64 [s1 + 0x318] = a0\n 51955: a0 = 0\n 51957: ra = 2142, jump @24\n      : @1969 [@dyn 1071] (gas: 8)\n 51964: u64 [s1 + 760] = 0\n 51968: u64 [s1 + 752] = 0\n 51972: u64 [s1 + 736] = 0x11\n 51977: a0 = 0x4\n 51980: a1 = s1 + 0x2e0\n 51984: u64 [s1 + 744] = 0\n 51988: ra = 0x868\n 51992: jump @24\n      : @1970 (gas: 6)\n 51996: u64 [s1 + 304] = 0\n 52000: u64 [s1 + 296] = 0\n 52004: u64 [s1 + 288] = 0\n 52008: t0 = 0x860\n 52012: a0 = 0x4e487b7100000000\n 52022: fallthrough\n      : @1971 [@dyn 1072] (gas: 4)\n 52023: a1 = s1 + 0x120\n 52027: u64 [s1 + 0x138] = a0\n 52031: a0 = 0\n 52033: ra = 2146, jump @24\n      : @1972 [@dyn 1073] (gas: 8)\n 52040: u64 [s1 + 280] = 0\n 52044: u64 [s1 + 272] = 0\n 52048: u64 [s1 + 256] = 0x11\n 52053: a0 = 0x4\n 52056: a1 = s1 + 0x100\n 52060: u64 [s1 + 264] = 0\n 52064: ra = 0x868\n 52068: jump @24\n      : @1973 (gas: 6)\n 52072: u64 [s1 + 368] = 0\n 52076: u64 [s1 + 360] = 0\n 52080: u64 [s1 + 352] = 0\n 52084: t0 = 0x864\n 52088: a0 = 0x4e487b7100000000\n 52098: fallthrough\n      : @1974 [@dyn 1074] (gas: 4)\n 52099: a1 = s1 + 0x160\n 52103: u64 [s1 + 0x178] = a0\n 52107: a0 = 0\n 52109: ra = 2150, jump @24\n      : @1975 [@dyn 1075] (gas: 7)\n 52116: u64 [s1 + 344] = 0\n 52120: u64 [s1 + 336] = 0\n 52124: u64 [s1 + 320] = 0x11\n 52129: a0 = 0x4\n 52132: a1 = s1 + 0x140\n 52136: u64 [s1 + 328] = 0\n 52140: ra = 2152, jump @24\n      : @1976 [@dyn 1076] (gas: 3)\n 52147: a0 = u64 [s1 + 0xb0]\n 52151: a0 = i32 [a0]\n 52153: jump @1978 if a0 >u 63\n      : @1977 (gas: 5)\n 52157: a1 = u64 [s1 + 0xb0]\n 52161: u32 [a1 + 0] = 0x40\n 52164: a0 = 0x1\n 52167: a2 = 0x24\n 52170: jump @1983\n      : @1978 (gas: 6)\n 52172: a0 = 0x1\n 52175: a2 = 0x24\n 52178: a1 = u64 [s1 + 0xb8]\n 52182: ra = 0x86c\n 52186: ecalli 14 // 'seal_return'\n 52188: jump @1984\n      : @1979 (gas: 8)\n 52190: u64 [s1 + 592] = 0\n 52194: u64 [s1 + 584] = 0\n 52198: u64 [s1 + 576] = 0\n 52202: a0 = 0x90b8ec1800000000\n 52212: a1 = s1 + 0x240\n 52216: u64 [s1 + 0x258] = a0\n 52220: a0 = 0\n 52222: ra = 2154, jump @24\n      : @1980 [@dyn 1077] (gas: 3)\n 52229: a0 = u64 [s1 + 0xb0]\n 52233: a0 = i32 [a0]\n 52235: jump @1982 if a0 >u 31\n      : @1981 (gas: 5)\n 52239: a1 = u64 [s1 + 0xb0]\n 52243: u32 [a1 + 0] = 0x20\n 52246: a0 = 0x1\n 52249: a2 = 0x4\n 52252: jump @1983\n      : @1982 (gas: 6)\n 52254: a0 = 0x1\n 52257: a2 = 0x4\n 52260: a1 = u64 [s1 + 0xb8]\n 52264: ra = 0x86c\n 52268: ecalli 14 // 'seal_return'\n 52270: jump @1984\n      : @1983 (gas: 4)\n 52272: a1 = u64 [s1 + 0xb8]\n 52276: ra = 0x86c\n 52280: ecalli 14 // 'seal_return'\n 52282: fallthrough\n      : @1984 [@dyn 1078] (gas: 3)\n 52283: a1 = u32 [a1]\n 52285: a2 = 0xffffffff\n 52295: jump @1986 if a1 == a2\n      : @1985 (gas: 9)\n 52298: a1 = a1 + 0x1\n 52301: a2 = a1 <u 0x1\n 52304: a3 = a1 | a2\n 52307: a3 = a3 <u 0x1\n 52310: u64 [a0 + 24] = 0\n 52313: u64 [a0] = a1\n 52315: u64 [a0 + 0x8] = a2\n 52318: u64 [a0 + 0x10] = a3\n 52321: ret\n      : @1986 (gas: 6)\n 52323: sp = sp + 0xffffffffffffffb0\n 52326: u64 [sp + 0x48] = ra\n 52329: u64 [sp + 0x40] = s0\n 52332: s0 = sp + 0x50\n 52335: sp = sp & 0xfffffffffffffff0\n 52338: t0 = 2158, jump @1998\n      : @1987 [@dyn 1079] (gas: 1)\n 52344: ra = 2160, jump @24\n      : @1988 [@dyn 1080] (gas: 7)\n 52351: u64 [sp + 24] = 0\n 52354: u64 [sp + 16] = 0\n 52357: u64 [sp + 0] = 0x11\n 52360: a0 = 0x4\n 52363: a1 = sp\n 52365: u64 [sp + 8] = 0\n 52368: ra = 2162, jump @24\n      : @1989 [@dyn 1081] (gas: 2)\n 52375: a1 = i32 [0x20180]\n 52380: jump @1991 if a1 >u 63\n      : @1990 (gas: 2)\n 52384: u32 [0x20180] = 0x40\n 52390: fallthrough\n      : @1991 (gas: 8)\n 52391: a1 = 0x20190\n 52396: i32 a1 = a1 + 0\n 52398: a0 = 0x1\n 52401: a2 = 0x24\n 52404: ecalli 14 // 'seal_return'\n 52406: a0 = 0\n 52408: ra = 0x874\n 52412: jump @43\n      : @1992 [export #0: 'call'] (gas: 2)\n 52416: a0 = 0\n 52418: ra = 2164, jump @43\n      : @1993 [@dyn 1082] [export #1: 'deploy'] (gas: 2)\n 52425: a0 = 0x1\n 52428: ra = 2166, jump @43\n      : @1994 [@dyn 1083] (gas: 15)\n 52435: a0 = u64 [a2 + 0x8]\n 52438: a1 = i32 [a2 + 0x10]\n 52441: a2 = u64 [a2]\n 52443: a0 = reverse a0\n 52445: a3 = a0 << 0x20\n 52448: a1 = reverse a1\n 52450: a1 = a1 >> 0x20\n 52453: a3 = a3 | a1\n 52456: a0 = a0 >> 0x20\n 52459: a1 = reverse a2\n 52461: a2 = a1 << 0x20\n 52464: a0 = a0 | a2\n 52467: a1 = a1 >> 0x20\n 52470: a2 = s1 + 0x2178\n 52474: jump [t0]\n      : @1995 (gas: 16)\n 52476: a2 = u64 [s1 + 0x170]\n 52480: a0 = u64 [a2 + 0x8]\n 52483: a1 = i32 [a2 + 0x10]\n 52486: a2 = u64 [a2]\n 52488: a0 = reverse a0\n 52490: a3 = a0 << 0x20\n 52493: a1 = reverse a1\n 52495: a1 = a1 >> 0x20\n 52498: a3 = a3 | a1\n 52501: a0 = a0 >> 0x20\n 52504: a1 = reverse a2\n 52506: a2 = a1 << 0x20\n 52509: a0 = a0 | a2\n 52512: a1 = a1 >> 0x20\n 52515: a2 = s1 + 0x1158\n 52519: jump [t0]\n      : @1996 (gas: 17)\n 52521: a0 = u64 [a3]\n 52523: a1 = u64 [a3 + 0x8]\n 52526: a2 = u64 [a3 + 0x10]\n 52529: a3 = u64 [a3 + 0x18]\n 52532: a0 = reverse a0\n 52534: a1 = reverse a1\n 52536: a2 = reverse a2\n 52538: a3 = reverse a3\n 52540: a4 = a3 + 0x3\n 52543: a3 = a4 <u a3\n 52546: a5 = a2 + a3\n 52549: a2 = a5 <u a2\n 52552: a2 = a3 if a3 == 0\n 52555: a2 = a2 + a1\n 52558: a1 = a2 <u a1\n 52561: a0 = a0 + a1\n 52564: jump [t0]\n      : @1997 (gas: 27)\n 52566: u64 [s1 + 0x188] = a0\n 52570: a0 = ra - a3\n 52573: a0 = a0 <u a5\n 52576: a1 = ra <u a3\n 52579: a5 = u64 [s1 + 0x158]\n 52583: a4 = ra - a5\n 52586: a4 = a4 - a1\n 52589: a4 = a4 - a0\n 52592: ra = a4 >>a 0x3f\n 52595: a0 = u64 [s1 + 0x150]\n 52599: a0 = ra & a0\n 52602: a1 = u64 [s1 + 0x160]\n 52606: t2 = a1 - a0\n 52609: a1 = a1 <u a0\n 52612: t1 = a2 - a1\n 52615: a1 = 0 if a2 != 0\n 52617: a0 = a3 - a1\n 52620: u64 [s1 + 0x168] = a0\n 52624: a1 = a3 <u a1\n 52627: a1 = a5 - a1\n 52630: a0 = s1 + 0x100\n 52634: a3 = u64 [a0 + 0xb8]\n 52638: a5 = u64 [a0 + 0xb0]\n 52642: a2 = a3 | a5\n 52645: a2 = a2 <u 0x1\n 52648: a4 = u64 [a0 + 0xa0]\n 52652: jump [t0]\n      : @1998 (gas: 8)\n 52654: u64 [sp + 48] = 0\n 52657: u64 [sp + 40] = 0\n 52660: u64 [sp + 32] = 0\n 52663: a0 = 0x4e487b7100000000\n 52673: a1 = sp + 0x20\n 52676: u64 [sp + 0x38] = a0\n 52679: a0 = 0\n 52681: jump [t0]\n      : @1999 (gas: 8)\n 52683: a0 = u64 [a2 + 0x8]\n 52686: a1 = i32 [a2 + 0x10]\n 52689: a2 = u64 [a2]\n 52691: a3 = reverse a0\n 52693: a0 = a3 << 0x20\n 52696: a1 = reverse a1\n 52698: a1 = a1 >> 0x20\n 52701: jump [t0]\n      : @2000 (gas: 24)\n 52703: a0 = a1 if a2 == 0\n 52706: a2 = u64 [s1 + 0x170]\n 52710: a3 = a2\n 52712: a1 = a2\n 52714: a2 = u64 [s1 + 0x180]\n 52718: a3 = a0 if a2 != 0\n 52721: u64 [s1 + 0x188] = a3\n 52725: a0 = u64 [s1 + 0x168]\n 52729: a3 = u64 [s1 + 0x150]\n 52733: a0 = a0 | a3\n 52736: a3 = u64 [s1 + 0x140]\n 52740: a0 = a3 if a5 == 0\n 52743: a4 = u64 [s1 + 0x178]\n 52747: a3 = a4\n 52749: a3 = a0 if a2 != 0\n 52752: u64 [s1 + 0x180] = a3\n 52756: a0 = u64 [s1 + 0x190]\n 52760: a0 = 0 if a5 == 0\n 52762: u64 [s1 + 0x190] = a0\n 52766: u64 [s1 + 336] = 0x15180\n 52773: a0 = u64 [s1 + 0x1b8]\n 52777: a2 = a0 + 0xffffffffffffff80\n 52780: a0 = a4\n 52782: jump [t0]\n      : @2001 (gas: 5)\n 52784: sp = a0\n 52786: i32 a2 = a0 + 0\n 52788: a1 = 0x40\n 52791: a0 = u64 [s1 + 0x1b0]\n 52795: jump [t0]\n      : @2002 (gas: 15)\n 52797: a0 = u64 [a2 + 0x8]\n 52800: a1 = i32 [a2 + 0x10]\n 52803: a2 = u64 [a2]\n 52805: a0 = reverse a0\n 52807: a3 = a0 << 0x20\n 52810: a1 = reverse a1\n 52812: a1 = a1 >> 0x20\n 52815: a3 = a3 | a1\n 52818: a0 = a0 >> 0x20\n 52821: a1 = reverse a2\n 52823: a2 = a1 << 0x20\n 52826: a0 = a0 | a2\n 52829: a1 = a1 >> 0x20\n 52832: a2 = s1 + 0x2998\n 52836: jump [t0]\n      : @2003 (gas: 15)\n 52838: a0 = u64 [a2 + 0x8]\n 52841: a1 = i32 [a2 + 0x10]\n 52844: a2 = u64 [a2]\n 52846: a0 = reverse a0\n 52848: a3 = a0 << 0x20\n 52851: a1 = reverse a1\n 52853: a1 = a1 >> 0x20\n 52856: a3 = a3 | a1\n 52859: a0 = a0 >> 0x20\n 52862: a1 = reverse a2\n 52864: a2 = a1 << 0x20\n 52867: a0 = a0 | a2\n 52870: a1 = a1 >> 0x20\n 52873: a2 = s1 + 0x1958\n 52877: jump [t0]\n      : @2004 (gas: 10)\n 52879: a0 = u64 [a3 + 0x18]\n 52882: a1 = u64 [a3 + 0x10]\n 52885: a2 = u64 [a3 + 0x8]\n 52888: a3 = u64 [a3]\n 52890: a0 = reverse a0\n 52892: a1 = reverse a1\n 52894: a2 = reverse a2\n 52896: a3 = reverse a3\n 52898: a4 = s1 + 0x3998\n 52902: jump [t0]\n      : @2005 (gas: 8)\n 52904: a0 = sp + 0xffffffffffffffe0\n 52907: a0 = a0 & 0xffffffffffffffe0\n 52910: u64 [s1 + 0x1b0] = a0\n 52914: sp = a0\n 52916: i32 a2 = a0 + 0\n 52918: a1 = 0x40\n 52921: a0 = u64 [s1 + 0x130]\n 52925: jump [t0]\n      : @2006 (gas: 20)\n 52927: a3 = u64 [s1 + 0x1a0]\n 52931: a0 = u64 [a3 + 0x18]\n 52934: a1 = u64 [a3 + 0x10]\n 52937: a2 = u64 [a3 + 0x8]\n 52940: a3 = u64 [a3]\n 52942: a0 = reverse a0\n 52944: u64 [s1 + 0x190] = a0\n 52948: a0 = reverse a1\n 52950: u64 [s1 + 0x188] = a0\n 52954: a0 = reverse a2\n 52956: u64 [s1 + 0x180] = a0\n 52960: a0 = reverse a3\n 52962: u64 [s1 + 0x178] = a0\n 52966: a0 = sp + 0xffffffffffffffe0\n 52969: a0 = a0 & 0xffffffffffffffe0\n 52972: u64 [s1 + 0x1a0] = a0\n 52976: sp = a0\n 52978: a2 = s1 + 0x1158\n 52982: a0 = u64 [s1 + 0x198]\n 52986: jump [t0]\n      : @2007 (gas: 18)\n 52988: a1 = a2 + 0x1\n 52991: u64 [s1 + 0x1b8] = a1\n 52995: a0 = a1 <u 0x1\n 52998: a0 = a0 + a3\n 53001: u64 [s1 + 0x1b0] = a0\n 53005: a0 = a0 | a1\n 53008: a0 = a0 <u 0x1\n 53011: a0 = a0 + t1\n 53014: u64 [s1 + 0x1a0] = a0\n 53018: a0 = a0 <u t1\n 53021: a0 = a0 + ra\n 53024: u64 [s1 + 0x1a8] = a0\n 53028: a1 = 0xff - a2\n 53032: u64 [s1 + 0x180] = a1\n 53036: a2 = 0x80 - a1\n 53040: a0 = u64 [s1 + 0x160]\n 53044: a1 = u64 [s1 + 0x158]\n 53048: jump [t0]\n      : @2008 (gas: 21)\n 53050: a3 = u64 [s1 + 0x190]\n 53054: a0 = u64 [a3 + 0x18]\n 53057: a1 = u64 [a3 + 0x10]\n 53060: a2 = u64 [a3 + 0x8]\n 53063: a3 = u64 [a3]\n 53065: a0 = reverse a0\n 53067: u64 [s1 + 0x188] = a0\n 53071: a0 = reverse a1\n 53073: u64 [s1 + 0x180] = a0\n 53077: a0 = reverse a2\n 53079: u64 [s1 + 0x178] = a0\n 53083: a0 = reverse a3\n 53085: u64 [s1 + 0x170] = a0\n 53089: a0 = sp + 0xffffffffffffffe0\n 53092: a0 = a0 & 0xffffffffffffffe0\n 53095: u64 [s1 + 0x190] = a0\n 53099: sp = a0\n 53101: a2 = s1 + 0x7ff\n 53105: a2 = a2 + 0x139\n 53109: a0 = u64 [s1 + 0x1a8]\n 53113: jump [t0]\n      : @2009 (gas: 14)\n 53115: a4 = a1 <u t1\n 53118: a5 = a0 + a4\n 53121: a0 = a5 <u a0\n 53124: a0 = a4 if a4 == 0\n 53127: a0 = a0 + a2\n 53130: a2 = a0 <u a2\n 53133: a2 = a2 + a3\n 53136: u64 [sp + 0x40] = a1\n 53139: u64 [sp + 0x48] = a5\n 53142: u64 [sp + 0x50] = a0\n 53145: a0 = 0x40\n 53148: a1 = sp + a0\n 53151: u64 [sp + 0x58] = a2\n 53154: jump [t0]\n      : @2010 (gas: 13)\n 53156: sp = sp + 0xffffffffffffff90\n 53159: u64 [sp + 0x68] = ra\n 53162: u64 [sp + 0x60] = s0\n 53165: s0 = sp + 0x70\n 53168: sp = sp & 0xfffffffffffffff0\n 53171: a3 = u64 [a0 + 0x18]\n 53174: a2 = u64 [a0 + 0x10]\n 53177: t1 = u64 [a0]\n 53179: a0 = u64 [a0 + 0x8]\n 53182: a4 = a3 >u 0\n 53184: a5 = a2 >u 0\n 53186: a5 = a4 if a3 != 0\n 53189: jump [t0]\n      : @2011 (gas: 19)\n 53191: a3 = u64 [s1 + 0x1b8]\n 53195: a0 = u64 [a3 + 0x18]\n 53198: a1 = u64 [a3 + 0x10]\n 53201: a2 = u64 [a3 + 0x8]\n 53204: a3 = u64 [a3]\n 53206: a5 = reverse a0\n 53208: u64 [s1 + 0x1a8] = a5\n 53212: a4 = reverse a1\n 53214: u64 [s1 + 0x1b0] = a4\n 53218: a2 = reverse a2\n 53220: u64 [s1 + 0x1a0] = a2\n 53224: a0 = reverse a3\n 53226: u64 [s1 + 0x1b8] = a0\n 53230: a1 = u64 [s1 + 0x198]\n 53234: u64 [a1 + 0x18] = a0\n 53237: u64 [a1 + 0x10] = a2\n 53240: u64 [a1 + 0x8] = a4\n 53243: u64 [a1] = a5\n 53245: jump [t0]\n      : @2012 (gas: 9)\n 53247: a0 = u64 [a3 + 0x18]\n 53250: a1 = u64 [a3 + 0x10]\n 53253: a2 = u64 [a3 + 0x8]\n 53256: a3 = u64 [a3]\n 53258: a0 = reverse a0\n 53260: a1 = reverse a1\n 53262: a2 = reverse a2\n 53264: a3 = reverse a3\n 53266: jump [t0]\n      : @2013 (gas: 16)\n 53268: a3 = u64 [s1 + 0x1b0]\n 53272: a0 = u64 [a3 + 0x18]\n 53275: a1 = u64 [a3 + 0x10]\n 53278: a2 = u64 [a3 + 0x8]\n 53281: a3 = u64 [a3]\n 53283: a0 = reverse a0\n 53285: u64 [s1 + 0x1b0] = a0\n 53289: a0 = reverse a1\n 53291: u64 [s1 + 0x1a8] = a0\n 53295: a0 = reverse a2\n 53297: u64 [s1 + 0x1a0] = a0\n 53301: a0 = reverse a3\n 53303: u64 [s1 + 0x198] = a0\n 53307: a0 = 0x1958\n 53311: a2 = s1 + a0\n 53314: jump [t0]\n      : @2014 (gas: 9)\n 53316: a0 = reverse a1\n 53318: u64 [s1 + 0x190] = a0\n 53322: a0 = reverse a2\n 53324: u64 [s1 + 0x188] = a0\n 53328: a0 = reverse a3\n 53330: u64 [s1 + 0x180] = a0\n 53334: a0 = sp + 0xffffffffffffffe0\n 53337: a0 = a0 & 0xffffffffffffffe0\n 53340: jump [t0]\n      : @2015 (gas: 17)\n 53342: a0 = u64 [a3]\n 53344: a1 = u64 [a3 + 0x8]\n 53347: a2 = u64 [a3 + 0x10]\n 53350: a3 = u64 [a3 + 0x18]\n 53353: a0 = reverse a0\n 53355: a1 = reverse a1\n 53357: a2 = reverse a2\n 53359: a3 = reverse a3\n 53361: a4 = a3 + 0x2\n 53364: a3 = a4 <u a3\n 53367: a5 = a2 + a3\n 53370: a2 = a5 <u a2\n 53373: a2 = a3 if a3 == 0\n 53376: a2 = a2 + a1\n 53379: a1 = a2 <u a1\n 53382: a0 = a0 + a1\n 53385: jump [t0]\n      : @2016 (gas: 5)\n 53387: a0 = sp + 0xffffffffffffffe0\n 53390: a2 = a0 & 0xffffffffffffffe0\n 53393: u64 [s1 + 0x1b8] = a2\n 53397: sp = a2\n 53399: jump [t0]\n      : @2017 (gas: 16)\n 53401: t2 = u64 [s1 + 0x160]\n 53405: t1 = u64 [s1 + 0x158]\n 53409: u64 [s1 + 376] = 0\n 53413: u64 [s1 + 368] = 0\n 53417: a4 = s1 + 0x100\n 53421: a2 = u64 [a4 + 0x48]\n 53424: a1 = 0 if a2 == 0\n 53426: a0 = 0 if a2 == 0\n 53428: u64 [a4 + 0x68] = a0\n 53431: a3 = u64 [a4 + 0x50]\n 53434: a2 = a3 + 0xffffffffffffffff\n 53437: u64 [a4 + 0x48] = a2\n 53440: a2 = a3 >u 0\n 53442: a2 = a2 + 0xffffffffffffffff\n 53445: u64 [a4 + 0x40] = a2\n 53448: jump [t0]\n      : @2018 (gas: 8)\n 53450: a0 = a0 | a2\n 53453: a2 = a3 | a1\n 53456: a2 = a2 | a0\n 53459: a2 = a2 >> 0x20\n 53462: a0 = a0 | a1\n 53465: a0 = a0 << 0x20\n 53468: a0 = a0 | a2\n 53471: jump [t0]\n      : @2019 (gas: 8)\n 53473: a1 = u64 [s1 + 0x1a8]\n 53477: a0 = a1 + 0x2\n 53480: a1 = a0 <u a1\n 53483: a3 = u64 [s1 + 0x1b0]\n 53487: a2 = a3 + a1\n 53490: a3 = a2 <u a3\n 53493: a3 = a1 if a1 == 0\n 53496: jump [t0]\n      : @2020 (gas: 15)\n 53498: a0 = u64 [a3 + 0x18]\n 53501: a1 = u64 [a3 + 0x10]\n 53504: a2 = u64 [a3 + 0x8]\n 53507: a3 = u64 [a3]\n 53509: a0 = reverse a0\n 53511: u64 [s1 + 0x188] = a0\n 53515: a0 = reverse a1\n 53517: u64 [s1 + 0x180] = a0\n 53521: a0 = reverse a2\n 53523: u64 [s1 + 0x178] = a0\n 53527: a0 = reverse a3\n 53529: u64 [s1 + 0x170] = a0\n 53533: a0 = sp + 0xffffffffffffffe0\n 53536: a0 = a0 & 0xffffffffffffffe0\n 53539: jump [t0]\n      : @2021 (gas: 15)\n 53541: a0 = u64 [a3 + 0x18]\n 53544: a1 = u64 [a3 + 0x10]\n 53547: a2 = u64 [a3 + 0x8]\n 53550: a3 = u64 [a3]\n 53552: a0 = reverse a0\n 53554: u64 [s1 + 0x1a8] = a0\n 53558: a0 = reverse a1\n 53560: u64 [s1 + 0x1a0] = a0\n 53564: a0 = reverse a2\n 53566: u64 [s1 + 0x198] = a0\n 53570: a0 = reverse a3\n 53572: u64 [s1 + 0x190] = a0\n 53576: a0 = sp + 0xffffffffffffffe0\n 53579: a0 = a0 & 0xffffffffffffffe0\n 53582: jump [t0]\n      : @2022 (gas: 10)\n 53584: u64 [s1] = a3\n 53586: u64 [s1 + 0x8] = a2\n 53589: u64 [s1 + 0x10] = a1\n 53592: u64 [s1 + 0x18] = a0\n 53595: sp = s0 + 0xffffffffffffffc0\n 53598: ra = u64 [sp + 0x38]\n 53601: s0 = u64 [sp + 0x30]\n 53604: s1 = u64 [sp + 0x28]\n 53607: sp = sp + 0x40\n 53610: jump [t0]\n      : @2023 (gas: 4)\n 53612: a2 = a3 + a1\n 53615: a3 = a2 <u a3\n 53618: a3 = a1 if a1 == 0\n 53621: jump [t0]\n      : @2024 (gas: 12)\n 53623: a1 = a0 <u a1\n 53626: a3 = u64 [s1 + 0x180]\n 53630: a2 = a3 + a1\n 53633: a3 = a2 <u a3\n 53636: a3 = a1 if a1 == 0\n 53639: a1 = u64 [s1 + 0x190]\n 53643: a3 = a3 + a1\n 53646: a1 = a3 <u a1\n 53649: a4 = u64 [s1 + 0x188]\n 53653: a1 = a1 + a4\n 53656: a4 = s1 + 0x3998\n 53660: jump [t0]\n      : @2025 (gas: 18)\n 53662: a3 = u64 [s1 + 0xa0]\n 53666: a0 = u64 [a3 + 0x18]\n 53669: a1 = u64 [a3 + 0x10]\n 53672: a2 = u64 [a3 + 0x8]\n 53675: a3 = u64 [a3]\n 53677: a0 = reverse a0\n 53679: u64 [s1 + 0x98] = a0\n 53683: a0 = reverse a1\n 53685: u64 [s1 + 0x88] = a0\n 53689: a0 = reverse a2\n 53691: u64 [s1 + 0x80] = a0\n 53695: a0 = reverse a3\n 53697: u64 [s1 + 0x78] = a0\n 53700: a0 = sp + 0xffffffffffffffe0\n 53703: a0 = a0 & 0xffffffffffffffe0\n 53706: u64 [s1 + 0xa0] = a0\n 53710: sp = a0\n 53712: jump [t0]\n      : @2026 (gas: 8)\n 53714: a3 = 0x100000000\n 53724: a0 = 0xffffffe0\n 53734: a1 = u64 [a4 + 0xb8]\n 53738: a0 = a1 <u a0\n 53741: a1 = u64 [a4 + 0xb0]\n 53745: a0 = 0 if a1 != 0\n 53747: a0 = 0 if a2 != 0\n 53749: jump [t0]\n      : @2027 (gas: 12)\n 53751: a0 = u64 [sp + 0x18]\n 53754: a1 = u64 [sp + 0x10]\n 53757: a2 = u64 [sp + 0x8]\n 53760: a3 = u64 [sp]\n 53762: a4 = a2 | a0\n 53765: a5 = a3 | a1\n 53768: a5 = a5 | a4\n 53771: a5 = a5 >> 0x20\n 53774: a4 = a4 | a1\n 53777: a4 = a4 << 0x20\n 53780: a4 = a4 | a5\n 53783: jump [t0]\n      : @2028 (gas: 8)\n 53785: a0 = sp + 0xffffffffffffffe0\n 53788: a0 = a0 & 0xffffffffffffffe0\n 53791: u64 [s1 + 0x190] = a0\n 53795: sp = a0\n 53797: i32 a2 = a0 + 0\n 53799: a1 = 0x40\n 53802: a0 = u64 [s1 + 0x1a0]\n 53806: jump [t0]\n      : @2029 (gas: 7)\n 53808: a3 = u64 [s1 + 0x1b0]\n 53812: a0 = u64 [a3 + 0x18]\n 53815: a1 = u64 [a3 + 0x10]\n 53818: a2 = u64 [a3 + 0x8]\n 53821: a3 = u64 [a3]\n 53823: a0 = reverse a0\n 53825: jump [t0]\n      : @2030 (gas: 7)\n 53827: u64 [sp + 24] = 0\n 53830: u64 [sp + 16] = 0\n 53833: u64 [sp + 0] = 0x41\n 53836: a0 = 0x4\n 53839: a1 = sp\n 53841: u64 [sp + 8] = 0\n 53844: jump [t0]\n      : @2031 (gas: 15)\n 53846: a2 = u64 [s1 + 0x1b8]\n 53850: a0 = u64 [a2 + 0x8]\n 53853: a1 = i32 [a2 + 0x10]\n 53856: a2 = u64 [a2]\n 53858: a0 = reverse a0\n 53860: a3 = a0 << 0x20\n 53863: a1 = reverse a1\n 53865: a1 = a1 >> 0x20\n 53868: a3 = a3 | a1\n 53871: a0 = a0 >> 0x20\n 53874: a1 = reverse a2\n 53876: a2 = a1 << 0x20\n 53879: a0 = a0 | a2\n 53882: a1 = a1 >> 0x20\n 53885: jump [t0]\n      : @2032 (gas: 7)\n 53887: a1 = u64 [a2 + 0xb8]\n 53891: a0 = a1 <u a0\n 53894: a1 = u64 [a2 + 0xb0]\n 53898: a0 = 0 if a1 != 0\n 53900: a1 = u64 [a2 + 0xa8]\n 53904: a0 = 0 if a1 != 0\n 53906: jump [t0]\n      : @2033 (gas: 12)\n 53908: a4 = 0\n 53910: a5 = 0\n 53912: a2 = u64 [s1 + 0x148]\n 53916: a1 = 0 if a2 == 0\n 53918: a0 = 0 if a2 == 0\n 53920: a3 = u64 [s1 + 0x158]\n 53924: a2 = a3 + 0xffffffffffffffff\n 53927: u64 [s1 + 0x150] = a2\n 53931: a2 = a3 >u 0\n 53933: a2 = a2 + 0xffffffffffffffff\n 53936: u64 [s1 + 0x148] = a2\n 53940: jump [t0]\n      : @2034 (gas: 12)\n 53942: a2 = t2 >> 0x3f\n 53945: a3 = t1 << 0x1\n 53948: a2 = a2 | a3\n 53951: a3 = t2 << 0x1\n 53954: t2 = u64 [s1 + 0x188]\n 53958: a4 = t2 >> 0x3f\n 53961: a3 = a3 | a4\n 53964: u64 [s1 + 0x160] = a3\n 53968: ra = u64 [s1 + 0x140]\n 53972: a0 = t1\n 53974: t1 = ra ^ a2\n 53977: jump [t0]\n      : @2035 (gas: 12)\n 53979: a1 = a1 << 0x1\n 53982: a4 = u64 [s1 + 0x168]\n 53986: a3 = a4 >> 0x3f\n 53989: a1 = a1 | a3\n 53992: u64 [s1 + 0x158] = a1\n 53996: a3 = a0 >> 0x3f\n 53999: a0 = a4 << 0x1\n 54002: a3 = a3 | a0\n 54005: a0 = t2 << 0x1\n 54008: a4 = u64 [s1 + 0x180]\n 54012: a1 = a4 >> 0x3f\n 54015: jump [t0]\n      : @2036 (gas: 11)\n 54017: a2 = u64 [s1 + 0x148]\n 54021: a1 = a1 | a2\n 54024: a2 = u64 [s1 + 0x1b8]\n 54028: a3 = a2 <u 0x80\n 54032: u64 [s1 + 0x148] = a3\n 54036: a4 = u64 [s1 + 0x140]\n 54040: a1 = a4 if a3 == 0\n 54043: a4 = u64 [s1 + 0x158]\n 54047: a4 = a1 if a2 != 0\n 54050: u64 [s1 + 0x158] = a4\n 54054: jump [t0]\n      : @2037 (gas: 11)\n 54056: a1 = u64 [s1 + 0x1b8]\n 54060: a2 = u64 [s1 + 0x170]\n 54064: u64 [a1 + 0x8] = a2\n 54067: a2 = u64 [s1 + 0x178]\n 54071: u64 [a1] = a2\n 54073: a2 = u64 [s1 + 0x190]\n 54077: u32 [a1 + 0x10] = a2\n 54080: a3 = a1\n 54082: a2 = s1 + 0x3198\n 54086: a1 = u64 [s1 + 0x1a0]\n 54090: jump [t0]\n      : @2038 (gas: 15)\n 54092: a3 = u64 [s1 + 0x98]\n 54096: a0 = u64 [a3 + 0x18]\n 54099: a1 = u64 [a3 + 0x10]\n 54102: a2 = u64 [a3 + 0x8]\n 54105: a3 = u64 [a3]\n 54107: a0 = reverse a0\n 54109: a4 = reverse a1\n 54111: a2 = reverse a2\n 54113: a3 = reverse a3\n 54115: a1 = u64 [s1 + 0xa0]\n 54119: u64 [a1 + 0x18] = a3\n 54122: u64 [a1 + 0x10] = a2\n 54125: u64 [a1 + 0x8] = a4\n 54128: u64 [a1] = a0\n 54130: jump [t0]\n      : @2039 (gas: 14)\n 54132: a0 = u64 [a3 + 0x18]\n 54135: a1 = u64 [a3 + 0x10]\n 54138: a2 = u64 [a3 + 0x8]\n 54141: a3 = u64 [a3]\n 54143: a0 = reverse a0\n 54145: a4 = reverse a1\n 54147: a2 = reverse a2\n 54149: a3 = reverse a3\n 54151: a1 = u64 [s1 + 0x190]\n 54155: u64 [a1 + 0x18] = a3\n 54158: u64 [a1 + 0x10] = a2\n 54161: u64 [a1 + 0x8] = a4\n 54164: u64 [a1] = a0\n 54166: jump [t0]\n      : @2040 (gas: 14)\n 54168: a0 = u64 [a3 + 0x18]\n 54171: a1 = u64 [a3 + 0x10]\n 54174: a2 = u64 [a3 + 0x8]\n 54177: a3 = u64 [a3]\n 54179: a0 = reverse a0\n 54181: a4 = reverse a1\n 54183: a2 = reverse a2\n 54185: a3 = reverse a3\n 54187: a1 = u64 [s1 + 0x1a0]\n 54191: u64 [a1 + 0x18] = a3\n 54194: u64 [a1 + 0x10] = a2\n 54197: u64 [a1 + 0x8] = a4\n 54200: u64 [a1] = a0\n 54202: jump [t0]\n      : @2041 (gas: 9)\n 54204: a0 = reverse a1\n 54206: u64 [s1 + 0x190] = a0\n 54210: a0 = reverse a2\n 54212: u64 [s1 + 0x188] = a0\n 54216: a0 = reverse a3\n 54218: u64 [s1 + 0x180] = a0\n 54222: a0 = 0x1158\n 54226: a2 = s1 + a0\n 54229: jump [t0]\n      : @2042 (gas: 9)\n 54231: u64 [s1 + 0x180] = a3\n 54235: a1 = 0 if a4 == 0\n 54237: u64 [s1 + 0x188] = a1\n 54241: u64 [s1 + 344] = 0x15180\n 54248: a0 = u64 [s1 + 0x1b0]\n 54252: a2 = a0 + 0xffffffffffffff80\n 54255: a0 = a5\n 54257: a1 = t1\n 54259: jump [t0]\n      : @2043 (gas: 6)\n 54261: a1 = u64 [s1 + 0x1a0]\n 54265: a3 = a3 + a1\n 54268: a1 = a3 <u a1\n 54271: a4 = u64 [s1 + 0x1b8]\n 54275: a1 = a1 + a4\n 54278: jump [t0]\n      : @2044 (gas: 8)\n 54280: a0 = a0 | a2\n 54283: a2 = a4 | a1\n 54286: a2 = a2 | a0\n 54289: a2 = a2 >> 0x20\n 54292: a0 = a0 | a1\n 54295: a0 = a0 << 0x20\n 54298: a0 = a0 | a2\n 54301: jump [t0]\n      : @2045 (gas: 4)\n 54303: a0 = u64 [s1 + 0x1b8]\n 54307: a0 = i32 [a0]\n 54309: a1 = 0x23\n 54312: jump [t0]\n      : @2046 (gas: 9)\n 54314: a0 = a0 | a1\n 54317: a1 = u64 [s1 + 0x168]\n 54321: a0 = a1 if a3 == 0\n 54324: a1 = u64 [s1 + 0x160]\n 54328: a1 = a0 if a2 != 0\n 54331: u64 [s1 + 0x160] = a1\n 54335: a0 = u64 [s1 + 0x178]\n 54339: a1 = u64 [s1 + 0x170]\n 54343: jump [t0]\n      : @2047 (gas: 16)\n 54345: a4 = u64 [a3]\n 54347: u64 [sp + 0x18] = a4\n 54350: a4 = u64 [a3 + 0x8]\n 54353: u64 [sp + 0x20] = a4\n 54356: a4 = u64 [a3 + 0x10]\n 54359: u64 [sp + 0x28] = a4\n 54362: a3 = u64 [a3 + 0x18]\n 54365: u64 [sp + 0x30] = a3\n 54368: s1 = u64 [a2]\n 54370: a3 = u64 [a2 + 0x8]\n 54373: u64 [sp] = a3\n 54375: a3 = u64 [a2 + 0x10]\n 54378: u64 [sp + 0x8] = a3\n 54381: a2 = u64 [a2 + 0x18]\n 54384: u64 [sp + 0x10] = a2\n 54387: jump [t0]\n      : @2048 (gas: 13)\n 54389: a1 = s1 + 0x100\n 54393: a4 = u64 [a1 + 0xa8]\n 54397: a2 = u64 [a1 + 0xa0]\n 54401: a0 = u64 [a1 + 0xb8]\n 54405: a0 = a0 | a4\n 54408: a3 = u64 [a1 + 0xb0]\n 54412: a1 = a2 | a3\n 54415: a1 = a1 | a0\n 54418: a1 = a1 >> 0x20\n 54421: a0 = a0 | a3\n 54424: a0 = a0 << 0x20\n 54427: a0 = a0 | a1\n 54430: jump [t0]\n      : @2049 (gas: 8)\n 54432: u64 [s1 + 0x1a0] = a0\n 54436: a0 = reverse a1\n 54438: u64 [s1 + 0x198] = a0\n 54442: a0 = reverse a2\n 54444: u64 [s1 + 0x190] = a0\n 54448: a0 = reverse a3\n 54450: u64 [s1 + 0x188] = a0\n 54454: jump [t0]\n      : @2050 (gas: 7)\n 54456: a1 = a1 | a2\n 54459: a1 = a1 | a0\n 54462: a1 = a1 >> 0x20\n 54465: a0 = a0 | a2\n 54468: a0 = a0 << 0x20\n 54471: a0 = a0 | a1\n 54474: jump [t0]\n      : @2051 (gas: 7)\n 54476: a0 = u64 [sp + 0x68]\n 54479: a0 = a0 <u s1\n 54482: a1 = u64 [sp + 0x60]\n 54485: a0 = 0 if a1 != 0\n 54487: a1 = u64 [sp + 0x38]\n 54490: a0 = 0 if a1 != 0\n 54492: jump [t0]\n      : @2052 (gas: 7)\n 54494: u64 [s1 + 0x130] = a0\n 54498: u64 [s1 + 0x148] = a1\n 54502: a1 = u64 [s1 + 0x1b0]\n 54506: a2 = 0x80 - a1\n 54510: a0 = u64 [s1 + 0x170]\n 54514: a1 = u64 [s1 + 0x160]\n 54518: jump [t0]\n      : @2053 (gas: 8)\n 54520: u64 [s1 + 0x180] = a0\n 54524: a0 = u64 [s1 + 0x1a8]\n 54528: a0 = a0 + 0x1\n 54531: a1 = a0 <u 0x1\n 54534: a2 = u64 [s1 + 0x1b0]\n 54538: a1 = a1 + a2\n 54541: a2 = s1 + 0x3198\n 54545: jump [t0]\n      : @2054 (gas: 7)\n 54547: a1 = u64 [sp + 0x50]\n 54550: a0 = a1 <u s1\n 54553: a2 = u64 [sp + 0x58]\n 54556: a0 = 0 if a2 != 0\n 54558: a2 = u64 [sp + 0x40]\n 54561: a0 = 0 if a2 != 0\n 54563: jump [t0]\n      : @2055 (gas: 8)\n 54565: a0 = u64 [a4 + 0x78]\n 54568: a1 = u64 [a4 + 0x80]\n 54572: a2 = u64 [a4 + 0x70]\n 54575: a3 = u64 [a4 + 0x68]\n 54578: a1 = a1 | a2\n 54581: a0 = a0 | a3\n 54584: a0 = a0 | a1\n 54587: jump [t0]\n      : @2056 (gas: 8)\n 54589: a0 = u64 [a4 + 0xb8]\n 54593: a1 = u64 [a4 + 0xc0]\n 54597: a2 = u64 [a4 + 0xb0]\n 54601: a3 = u64 [a4 + 0xa8]\n 54605: a1 = a1 | a2\n 54608: a0 = a0 | a3\n 54611: a0 = a0 | a1\n 54614: jump [t0]\n      : @2057 (gas: 5)\n 54616: a2 = a2 + a1\n 54619: a3 = a2 ^ a4\n 54622: a4 = a2 <u a4\n 54625: a4 = a1 if a3 == 0\n 54628: jump [t0]\n      : @2058 (gas: 4)\n 54630: a0 = 0x3998\n 54634: a3 = s1 + a0\n 54637: a4 = a3 + 0x700\n 54641: jump [t0]\n      : @2059 (gas: 4)\n 54643: a0 = 0x3998\n 54647: a3 = s1 + a0\n 54650: a4 = a3 + 0x200\n 54654: jump [t0]\n      : @2060 (gas: 8)\n 54656: a2 = u64 [s1 + 0x148]\n 54660: a1 = a1 | a2\n 54663: a3 = u64 [s1 + 0x1b0]\n 54667: a4 = a3 <u 0x80\n 54671: u64 [s1 + 0x148] = a4\n 54675: a2 = u64 [s1 + 0x138]\n 54679: a1 = a2 if a4 == 0\n 54682: jump [t0]\n      : @2061 (gas: 10)\n 54684: a0 = u64 [a3 + 0x18]\n 54687: a1 = u64 [a3 + 0x10]\n 54690: a2 = u64 [a3 + 0x8]\n 54693: a3 = u64 [a3]\n 54695: a4 = reverse a0\n 54697: a0 = reverse a1\n 54699: a1 = reverse a2\n 54701: a2 = reverse a3\n 54703: a3 = 0x3000\n 54707: jump [t0]\n      : @2062 (gas: 5)\n 54709: sp = a0\n 54711: i32 a2 = a0 + 0\n 54713: a1 = 0x40\n 54716: a0 = u64 [s1 + 0xb8]\n 54720: jump [t0]\n      : @2063 (gas: 8)\n 54722: a0 = sp + 0xffffffffffffffe0\n 54725: a0 = a0 & 0xffffffffffffffe0\n 54728: u64 [s1 + 0x1b8] = a0\n 54732: sp = a0\n 54734: i32 a2 = a0 + 0\n 54736: a1 = 0x40\n 54739: a0 = u64 [s1 + 0x1a8]\n 54743: jump [t0]\n      : @2064 (gas: 8)\n 54745: a0 = sp + 0xffffffffffffffe0\n 54748: a0 = a0 & 0xffffffffffffffe0\n 54751: u64 [s1 + 0x188] = a0\n 54755: sp = a0\n 54757: i32 a2 = a0 + 0\n 54759: a1 = 0x40\n 54762: a0 = u64 [s1 + 0x1a0]\n 54766: jump [t0]\n      : @2065 (gas: 9)\n 54768: a1 = reverse a1\n 54770: a2 = reverse a2\n 54772: a3 = reverse a3\n 54774: a4 = u64 [s1 + 0x1b8]\n 54778: u64 [a4 + 0x18] = a3\n 54781: u64 [a4 + 0x10] = a2\n 54784: u64 [a4 + 0x8] = a1\n 54787: u64 [a4] = a0\n 54789: jump [t0]\n      : @2066 (gas: 11)\n 54791: a4 = a4 + a1\n 54794: a1 = a4 <u a1\n 54797: a1 = a1 + a3\n 54800: a1 = a1 | a2\n 54803: a2 = a0 | a4\n 54806: a2 = a2 | a1\n 54809: a1 = a1 | a4\n 54812: a2 = a2 >> 0x20\n 54815: a1 = a1 << 0x20\n 54818: a1 = a1 | a2\n 54821: jump [t0]\n      : @2067 (gas: 8)\n 54823: a0 = u64 [s1 + 0x1b8]\n 54827: a2 = u64 [s1 + 0x148]\n 54831: a0 = a0 | a2\n 54834: a2 = u64 [s1 + 0x130]\n 54838: a0 = a2 if a4 == 0\n 54841: t1 = u64 [s1 + 0x160]\n 54845: a3 = t1\n 54847: jump [t0]\n      : @2068 (gas: 7)\n 54849: a0 = reverse a1\n 54851: u64 [s1 + 0x188] = a0\n 54855: a0 = reverse a2\n 54857: u64 [s1 + 0x180] = a0\n 54861: a0 = reverse a3\n 54863: u64 [s1 + 0x178] = a0\n 54867: jump [t0]\n      : @2069 (gas: 6)\n 54869: a0 = s1 <u a0\n 54872: a1 = u64 [sp + 0x38]\n 54875: a0 = 0 if a1 != 0\n 54877: a1 = u64 [sp + 0x20]\n 54880: a0 = 0 if a1 != 0\n 54882: jump [t0]\n      : @2070 (gas: 7)\n 54884: a3 = u64 [s1 + 0x1a8]\n 54888: a0 = u64 [a3 + 0x18]\n 54891: a1 = u64 [a3 + 0x10]\n 54894: a2 = u64 [a3 + 0x8]\n 54897: a3 = u64 [a3]\n 54899: a0 = reverse a0\n 54901: jump [t0]\n      : @2071 (gas: 9)\n 54903: u64 [a2 + 0x20] = a0\n 54906: a0 = u64 [s1 + 0x178]\n 54910: u64 [a2 + 0x18] = a0\n 54913: a0 = u64 [s1 + 0x180]\n 54917: u64 [a2 + 0x10] = a0\n 54920: a3 = a1\n 54922: a0 = 0x20\n 54925: a1 = s1 + 0x7ff\n 54929: jump [t0]\n      : @2072 (gas: 6)\n 54931: u64 [s1 + 0x148] = a1\n 54935: a1 = u64 [s1 + 0x1b8]\n 54939: a2 = 0x80 - a1\n 54943: a0 = u64 [s1 + 0x178]\n 54947: a1 = u64 [s1 + 0x170]\n 54951: jump [t0]\n      : @2073 (gas: 7)\n 54953: u64 [s1 + 0x150] = a0\n 54957: u64 [s1 + 0x148] = a1\n 54961: a0 = u64 [s1 + 0x180]\n 54965: a2 = a0 + 0xffffffffffffff80\n 54968: a0 = u64 [s1 + 0x160]\n 54972: a1 = u64 [s1 + 0x158]\n 54976: jump [t0]\n      : @2074 (gas: 10)\n 54978: sp = sp + 0xffffffffffffffc0\n 54981: u64 [sp + 0x38] = ra\n 54984: u64 [sp + 0x30] = s0\n 54987: u64 [sp + 0x28] = s1\n 54990: s0 = sp + 0x40\n 54993: sp = sp & 0xffffffffffffffe0\n 54996: s1 = a0\n 54998: i32 a0 = sp + 0\n 55000: a1 = 0x24\n 55003: jump [t0]\n      : @2075 (gas: 8)\n 55005: a0 = sp + 0xffffffffffffffe0\n 55008: a0 = a0 & 0xffffffffffffffe0\n 55011: u64 [s1 + 0x1b0] = a0\n 55015: sp = a0\n 55017: i32 a2 = a0 + 0\n 55019: a1 = 0x40\n 55022: a0 = u64 [s1 + 0xc0]\n 55026: jump [t0]\n      : @2076 (gas: 8)\n 55028: u64 [sp + 64] = 0\n 55031: u64 [sp + 56] = 0\n 55034: u64 [sp + 48] = 0\n 55037: a0 = 0x4e487b7100000000\n 55047: a1 = sp + 0x30\n 55050: u64 [sp + 0x48] = a0\n 55053: a0 = 0\n 55055: jump [t0]\n      : @2077 (gas: 9)\n 55057: a5 = s1 + 0x100\n 55061: u64 [a5 + 0xa0] = a1\n 55065: u64 [a5 + 0xb0] = a3\n 55069: a0 = a3 | a1\n 55072: u64 [a5 + 0x98] = a2\n 55076: u64 [a5 + 0xa8] = a4\n 55080: a1 = a4 | a2\n 55083: a0 = a0 | a1\n 55086: jump [t0]\n      : @2078 (gas: 9)\n 55088: a0 = u64 [a2 + 0x8]\n 55091: a1 = i32 [a2 + 0x10]\n 55094: a2 = u64 [a2]\n 55096: a0 = reverse a0\n 55098: a3 = a0 << 0x20\n 55101: a1 = reverse a1\n 55103: a1 = a1 >> 0x20\n 55106: a1 = a1 | a3\n 55109: jump [t0]\n      : @2079 (gas: 10)\n 55111: sp = sp + 0xffffffffffffffc0\n 55114: u64 [sp + 0x38] = ra\n 55117: u64 [sp + 0x30] = s0\n 55120: u64 [sp + 0x28] = s1\n 55123: s0 = sp + 0x40\n 55126: sp = sp & 0xffffffffffffffe0\n 55129: s1 = a0\n 55131: i32 a0 = sp + 0\n 55133: a1 = 0x4\n 55136: jump [t0]\n      : @2080 (gas: 8)\n 55138: a1 = u64 [s1 + 0x1b8]\n 55142: a0 = i32 [a1 + 0x10]\n 55145: u64 [s1 + 0x190] = a0\n 55149: a0 = u64 [a1]\n 55151: u64 [s1 + 0x178] = a0\n 55155: a0 = u64 [a1 + 0x8]\n 55158: u64 [s1 + 0x170] = a0\n 55162: jump [t0]\n      : @2081 (gas: 5)\n 55164: sp = a0\n 55166: i32 a2 = a0 + 0\n 55168: a1 = 0x40\n 55171: a0 = u64 [s1 + 0x198]\n 55175: jump [t0]\n      : @2082 (gas: 5)\n 55177: a0 = sp + 0xffffffffffffffe0\n 55180: a2 = a0 & 0xffffffffffffffe0\n 55183: u64 [s1 + 0x1a8] = a2\n 55187: sp = a2\n 55189: jump [t0]\n      : @2083 (gas: 6)\n 55191: a3 = u64 [s1 + 0x1b0]\n 55195: ra = u64 [s1 + 0x1a0]\n 55199: a2 = a3 | ra\n 55202: a2 = a2 <u 0x1\n 55205: a4 = u64 [s1 + 0x190]\n 55209: jump [t0]\n      : @2084 (gas: 6)\n 55211: sp = s0 + 0xffffffffffffffa0\n 55214: ra = u64 [sp + 0x58]\n 55217: s0 = u64 [sp + 0x50]\n 55220: s1 = u64 [sp + 0x48]\n 55223: sp = sp + 0x60\n 55226: jump [t0]\n      : @2085 (gas: 8)\n 55228: a3 = u64 [s1 + 0x1b8]\n 55232: a0 = u64 [a3 + 0x18]\n 55235: a1 = u64 [a3 + 0x10]\n 55238: a2 = u64 [a3 + 0x8]\n 55241: a3 = u64 [a3]\n 55243: a5 = reverse a0\n 55245: a4 = reverse a1\n 55247: jump [t0]\n      : @2086 (gas: 8)\n 55249: a0 = u64 [a4 + 0x98]\n 55253: a1 = u64 [a4 + 0xa0]\n 55257: a2 = u64 [a4 + 0x90]\n 55261: a3 = u64 [a4 + 0x88]\n 55265: a1 = a1 | a2\n 55268: a0 = a0 | a3\n 55271: a0 = a0 | a1\n 55274: jump [t0]\n      : @2087 (gas: 10)\n 55276: a4 = s1 + 0x100\n 55280: u64 [a4 + 0x90] = a1\n 55284: a1 = u64 [a4 + 0xb0]\n 55288: a2 = u64 [a4 + 0xa8]\n 55292: a2 = a2 | a1\n 55295: a1 = u64 [a4 + 0xb8]\n 55299: a3 = u64 [a4 + 0xa0]\n 55303: a1 = a1 | a3\n 55306: a1 = a1 | a2\n 55309: jump [t0]\n      : @2088 (gas: 8)\n 55311: a0 = u64 [a4 + 0x58]\n 55314: a1 = u64 [a4 + 0x60]\n 55317: a2 = u64 [a4 + 0x50]\n 55320: a3 = u64 [a4 + 0x48]\n 55323: a1 = a1 | a2\n 55326: a0 = a0 | a3\n 55329: a0 = a0 | a1\n 55332: jump [t0]\n      : @2089 (gas: 5)\n 55334: a0 = a0 << 0x20\n 55337: a0 = a0 >> 0x20\n 55340: a1 = 0x3198\n 55344: a2 = s1 + a1\n 55347: jump [t0]\n      : @2090 (gas: 4)\n 55349: a0 = 0x3198\n 55353: a3 = s1 + a0\n 55356: a4 = a3 + 0x500\n 55360: jump [t0]\n      : @2091 (gas: 6)\n 55362: u64 [s1 + 0x168] = a0\n 55366: u64 [s1 + 0x188] = a1\n 55370: a0 = u64 [s1 + 0x178]\n 55374: a1 = u64 [s1 + 0x170]\n 55378: a2 = u64 [s1 + 0x180]\n 55382: jump [t0]\n      : @2092 (gas: 6)\n 55384: u64 [s1 + 0x168] = a0\n 55388: u64 [s1 + 0x140] = a1\n 55392: a0 = u64 [s1 + 0x160]\n 55396: a1 = u64 [s1 + 0x158]\n 55400: a2 = u64 [s1 + 0x1b8]\n 55404: jump [t0]\n      : @2093 (gas: 4)\n 55406: a0 = 0x3998\n 55410: a3 = s1 + a0\n 55413: a4 = a3 + 0x300\n 55417: jump [t0]\n      : @2094 (gas: 4)\n 55419: a0 = 0x3998\n 55423: a3 = s1 + a0\n 55426: a4 = a3 + 0x100\n 55430: jump [t0]\n      : @2095 (gas: 8)\n 55432: a0 = 0x100000000\n 55442: u64 [a3 + 0x98] = a0\n 55446: a0 = 0xffffffe0\n 55456: a1 = u64 [a3 + 0xb8]\n 55460: a0 = a1 <u a0\n 55463: a1 = u64 [a3 + 0xb0]\n 55467: a0 = 0 if a1 != 0\n 55469: jump [t0]\n      : @2096 (gas: 8)\n 55471: a0 = u64 [a4 + 0xd8]\n 55475: a1 = u64 [a4 + 0xe0]\n 55479: a2 = u64 [a4 + 0xd0]\n 55483: a3 = u64 [a4 + 0xc8]\n 55487: a1 = a1 | a2\n 55490: a0 = a0 | a3\n 55493: a0 = a0 | a1\n 55496: jump [t0]\n      : @2097 (gas: 8)\n 55498: a0 = u64 [a4 + 0x38]\n 55501: a1 = u64 [a4 + 0x40]\n 55504: a2 = u64 [a4 + 0x30]\n 55507: a3 = u64 [a4 + 0x28]\n 55510: a1 = a1 | a2\n 55513: a0 = a0 | a3\n 55516: a0 = a0 | a1\n 55519: jump [t0]\n      : @2098 (gas: 6)\n 55521: u64 [s1 + 0x138] = a0\n 55525: u64 [s1 + 0x130] = a1\n 55529: a2 = u64 [s1 + 0x188]\n 55533: a0 = a2 <u 0x80\n 55537: u64 [s1 + 0x158] = a0\n 55541: jump [t0]\n      : @2099 (gas: 6)\n 55543: u64 [s1 + 0x180] = a0\n 55547: u64 [s1 + 0x1b8] = a1\n 55551: a0 = u64 [s1 + 0x170]\n 55555: a1 = u64 [s1 + 0x160]\n 55559: a2 = u64 [s1 + 0x188]\n 55563: jump [t0]\n      : @2100 (gas: 8)\n 55565: u64 [a2 + 0x60] = a0\n 55568: a0 = u64 [s1 + 0x188]\n 55572: u64 [a2 + 0x58] = a0\n 55575: a0 = u64 [s1 + 0x190]\n 55579: u64 [a2 + 0x50] = a0\n 55582: a3 = a1\n 55584: a0 = 0x20\n 55587: jump [t0]\n      : @2101 (gas: 2)\n 55589: a3 = a2 & 0x40\n 55592: jump @2105 if a3 != 0\n      : @2102 (gas: 1)\n 55595: jump @2104 if a2 == 0\n      : @2103 (gas: 6)\n 55598: i32 a3 = 0x40 - a2\n 55601: a3 = a1 << a3\n 55604: a1 = a1 >> a2\n 55607: a0 = a0 >> a2\n 55610: a0 = a0 | a3\n 55613: ret\n      : @2104 (gas: 1)\n 55615: ret\n      : @2105 (gas: 4)\n 55617: a0 = a2 + 0xffffffffffffffc0\n 55620: a0 = a1 >> a0\n 55623: a1 = 0\n 55625: ret\n      : @2106 (gas: 2)\n 55627: a3 = a2 & 0x40\n 55630: jump @2110 if a3 != 0\n      : @2107 (gas: 1)\n 55633: jump @2109 if a2 == 0\n      : @2108 (gas: 6)\n 55636: i32 a3 = 0x40 - a2\n 55639: a3 = a0 >> a3\n 55642: a0 = a0 << a2\n 55645: a1 = a1 << a2\n 55648: a1 = a1 | a3\n 55651: ret\n      : @2109 (gas: 1)\n 55653: ret\n      : @2110 (gas: 4)\n 55655: a1 = a2 + 0xffffffffffffffc0\n 55658: a1 = a0 << a1\n 55661: a0 = 0\n 55663: ret\n","bytecode":{"object":"50564d0000f4ff000000000000010700c1d001c0008003817cf40443b2a766a42db9815a1e2efa877e5c0519ec4fe51c83c442ba392fca77e2116ca4777b81d4ea98e10c16c565173f400507b7679bbdc6b249bd00a16076687a96c0a237ac310730ce86cab6918a9cee1f20395b3b80e1e34a4eb67d08a74e0dc354af37bd04b03f2522518a6d9314cf35a01b6f25119782e62a75888f78d1b417406592b5dbd6886d772784123ca0859bbddc544b79277c562e79691cb8290000e8890423c78affffe7890423c78a00001876fbdc3875ffff1776fbdc3875975752f4e33b24c3dceff4c6a46dc4173eb68630b623f1b6b5ef1d0584397d33527c373f8a8f13d8dec2e4708e54ca59a13610a1f529f1946a422bba3c51695be6d8186647f5847091063f7d0def110bff283e79b8ad5546d505d5764c8d017f00001876fbdc38750000e8890423c78affff1776fbdc3875f2a8b439f25bd8ebdf119a7090238fa225717e85c68e190f0982ba0d5cabfde394247a18b5e26bbe1d817609543b3c0451c960f58acf6b97ba06c2c9ba61c041200000000481261200000000070000000b0000001900000027000000350000003b000000480000005a0000006500000074000000770000008400000094000000a4000000af000000c1000000cc00000062616c616e636563616c6c63616c6c5f646174615f636f707963616c6c5f646174615f6c6f616463616c6c5f646174615f73697a6563616c6c65726465706f7369745f6576656e746765745f696d6d757461626c655f646174616765745f73746f72616765686173685f6b656363616b5f3235366e6f777265665f74696d655f6c65667472657475726e5f646174615f636f707972657475726e5f646174615f73697a657365616c5f72657475726e7365745f696d6d757461626c655f646174617365745f73746f7261676576616c75655f7472616e73666572726564051302c0c0cc0463616c6cc0c9cc066465706c6f7906c01cfd843b02c071d9da00220266031c04b104b9048b05930592069706180723073e078f079a0704082d0841086d088208c108e608cc09d209d809f709200a3f0a770aa70ab50ac10a530c5d0c7c0c840ca30cf00cf60c140d3a0d6c0dc50dc40eca0ed00eed0ef30e010f5d0f6b0f900f9a0fb90fc10fe00f0a10201037108910df10181124116f118f119c11cc11e211ed114d128d1294129b12be12ea120113321356139213aa13b513d1130414201432143d146714a014fe1417156e1502162c164b165216711778177f179d17a417b3170b18121819183c186c1883189c18e41802192a19401975198719b219c019e8190c1a2f1a511a581a921ac91ae81af61afd1a081b191b351b481b5a1b791b8b1b961bb21bf21b001c1e1c581c6e1cb41c111d1e1d761d841df81d061e6c1ea01ea71eae1e021f181f0f202a2048206b2004211f213e218b210f2316231d232a23402349238223a623d023f6230124232458247c24a924bb24c624e8241a259d25c125e025f225fd252c2660267f26f2261f2728277e271e287b28e2283129402975297e29af29ca29332a3a2a412a612a6a2ad82ae72af42a0c2b2b2b4e2b552b712b8f2be62bf12bfb2b812cb72cc92cd02cde2ce52c6a2d812d9c2dd22de82df32d812e882e8f2ee42eff2e642f6b2f722f952fc12fca2ffe2f0730273063307f30af30e630023110311731213184319f31ae31d931e231ff310832723205334b33c133fa3342348d34fb34273541357335be35dc350c3622365f36b036c536f836363762378e37a837af37e3372b383d385b38a938f33878398639a4390a3a183a363a983aa93a223b343b4a3b933ba53bb73bf73b093c1e3c883c8f3c963ca33cb93cf53cfe3c1e3d483d6a3d753d933dbd3d4d3e713e3b3f6f3fa83fb33fdc3f5040af400a413c414b41584170418b41ae41b541d94108425f426a428742444387439943a043ae43b5433d4457447e44c744dd44e844554595459c45a345b04520462b464846514671461347a547e747f5477748b948c648e14817492d4938499349cf49d649dd49ea49004a284a464a724a8c4a934a9d4ac04af64a1d4b244b4a4b6f4b7e4bac4bc14b2c4c9d4cf24c404d4e4d7a4da44dba4de24d004e2c4e7a4e9d4ed24e244f3d4f4b4f744fc64ff74f0e504850805087508e50b150da50ef502b514f518b51a751c751da51ec510a5211522c525c529052ae52c052cb52d552ee525153bd530e541b543454a054a654da5440554655d755eb5517561e5639563f5646564c56815687567157c5570a586d58f65829595e59c359245a6d5af95a645bb05bf85b0d5c175c2f5c385c545c845c915c975c9d5cd55cde5c0c5d725d935de45df25d205e725ecb5ed45e1b5f6b5f9f5f1d600662396265626b6285628b6291629762cb62d162ba6326642c644c6470649d64be64c464f864fe641e6542657c658d659765b56538663e665b667f669d66aa66b066d0660367216732673c6786678f67bc67c567f867fe671a683b68596860687b689768c668e468f168f768136941695f6970697a698469a269366a676ad26ae06a296b4c6bb46b3f6c566c616d9f6de86e2b6f436f696fd66f5c70db70f6701c71ab71c571f2710f72467253728472c972de72e8720873117331735b736c7376738f739873c173f47356746374ae74cd74e27425757d758e75ad7505761a762476b376c076da76367746774f776f77b377c377eb777b78a178c978ef784579677a057b0b7b117bca7b497c8b7cad7cee7c857ddc7df17dfb7db47eba7ec07efc7e0a7f4d7f5a7f937f9c7fbc7f3c8042806e808e80c180ef806d819481af81da81e481fc811d82458266827082a182d082ee82fb82018307831c8326834c83518457845d84638469846f8491849784bc84c284c884ce84d884de84e484ee84f484fa8400851385598515861b86358661866b8689869286b386fa860487398771879387a487ae87d287dc8702885c88668884888d88ae88d088d788f288fb881c8951897389c689df89108a748a7e8a9f8aa88ac98ae78af48afa8a1b8b508b6e8b7f8b898bb08bc58b0f8c388c578c7f8ca08caa8ccd8cf08c228d498dbc8dd18ddb8dfc8d058e268e548e658e6f8e898eb98efc8e118f1b8f8f8fa18fde8fe88f09901290339051905e9064908590bb90d990ea90f4900391249159918d919391b391d59110924c9282924b93519357935d93639369938b939193b893be93c493ca93d493da93e093ea93f093f693fc930f945594c294e79413953a959195a695b0954296d4960197319752975c977f97199846986498719877989c98b298c598e3982a996f99a799f499219a3f9a469a619a8e9acb9ae99af69afc9a219b379b4a9b689b799b839b929b329c8f9ce19c099d699d6f9d8e9da39dc99dcf9dd89df39df99d069e0c9e159e309e369e439e499e529e679ed09e2e9fa29fb19fbf9fd79f2ba050a006a153a188a1d8a1e8a1faa100a243a253a2a0a2b0a2dea2e4a20da31da330a336a373a324a488a4e1a495a6e6a634a757a76ca874a87ba893a8bda8c3a8e1a8e8a8fca803a909a910a93aa940a95fa966a97aa981a987a98ea9b8a9bea9dba9e2a9f6a9fda903aa0aaa2eaaf6aa11ab18ab32ab56abacabd6ab18ac78acd4ac4fadadada6aec3aee3ae0eaf2bb032b04cb070b023b132b14cb170b1cdb1d4b1dab1e1b105b24db277b2cab208b347b310b417b41db424b448b470b4a8b4edb43fb54bb571b58eb5adb5b9b5d9b558b682b6d5b623b74cb712b82eb84db87cb846b92cba3bba55ba79bac9ba01bb10bb70bbe0bb22bc6dbc7fbca9bc00bd3dbd9abeb1becabee8be67bf7dbf97bfdabf54c173c1b8c1bec1e8c119c237c244c24ac255c295c2b4c2d2c21bc34dc36bc378c37ec39fc3d0c3eec3fbc301c40cc462c481c49fc4f6c44bc5c4c50cc66fc67dc697c6c0c666c785c7f8c7ffc7d2c8e8c8fec827c9aac9ecc99fcab0caebcafcca37cb48cb83cb94cbb3cb05cc3bcc78cc7fcc97ccc9ccd3ccaa876e978a2098aa20977b2098bb20c89b0bc9ba0a979b019abbaeab20ae873751094ec87909647a017c8b95880195ac0178ab64caab9cf42836510934c87909647a017c8b95880195ac0178ab64caab9cf4281c51091a839aff01c8a80b7cbb9599ffc8a70c78cb83aaff5209f032009511e87b10107b15087b163306780102390578010251051c3307b00103837783680a070139077801022003780102ac5710821010821508821695111832000039087801025108b0073307b0010383770a0f28a3079511f07b10087b156489647533082064975010026e057c78017c797c7a027c7b03978808d4980897aa1097bb18d4ba0ad4a8087c79057c7a047c7b067c7c07979908d4a90997bb1097cc18d4cb0bd4b909979920d489027c79097c7a087c7b0a7c7c0b979908d4a90997bb1097cc18d4cb0bd4b9097c7a0d7c7b0c7c7c0e7c780f97aa08d4ba0a97cc10978818d4c808d4a808978820d498037c78117c7a107c7b127c7c13978808d4a80897bb1097cc18d4cb0bd4b8087c7a157c7b147c7c167c791797aa08d4ba0a97cc10979918d4c909d4a909979920d4890a7c78197c79187c7b1a7c7c1b978808d4980897bb1097cc18d4cb0bd4b8087c791d7c7b1c7c7c1e7c771f979908d4b90997cc10977718d4c707d49707977720d487076f776fa86f396f2a7b5a187b59107b58087b57821008821595111032009511d87b10207b15187b161082897b19088289087b1982851082861833082050100426046f686f59821a6faa821b086fbb787b18787a10787908787898bc38787c1f98bc30787c1e98bc28787c1d98bc20787c1c98bc18787c1b98bc10787c1a98bb08787b1998ab38787b1798ab30787b1698ab28787b1598ab20787b1498ab18787b1398ab10787b1298aa08787a11989a38787a0f989a30787a0e989a28787a0d989a20787a0c989a18787a0b989a10787a0a98990878790998893878790798893078790698892878790598892078790498891878790398891078790298880878780182102082151882161095112832009511a07b10587b15507b16489515608411e06476828718828910828a0882886f776f996faa6f887b18187b1a107b19087b17491138491130491128491120481140208318831a20831b403309ff33070a08821738821830821928821a206f776f886f996faa7b6a187b69107b68087b675012064bd40032009511a07b10587b15509515608411e08272827a08827b108277188283828908828c108288186f746fbb6faa6f276f826fcc6f996f387b17187b1a107b1b087b147b18387b19307b1c287b12208318831a203309ff330b2033070a109551a08210588215509511603200951160ff7b1098007b1590007b1688009515a0008411e082ab7b1b3882ab087b1b3082ab107b1b2882aa187b1a20829a7b1a18829a087b1a10829a107b1a088299187b1964865010082c0282186f888219086f99821a106faa821b186fbb7b1b587b1a507b19487b18408218206f888219286f99821a306faa821b386fbb7b1b787b1a707b19687b18608379836a8317403308020a06955160ff8210980082159000821688009511a0003200951120ff7b10d8007b15d0007b16c8009515e0008411e082bc7b1c4082bc087b1c4882bc107b1c5082bb187b1b5850120a9ecf007b183850100c8f016f687b187882186f887b18708218086f887b18688218106f887b18608218186f887b1898008218206f887b1890008218286f887b1888008218306f887b1880008218406f887b18b8008218486f887b18b0008218506f887b18a8008218586f887b18a0008379811a388317603308030a06955120ff8210d8008215d0008216c8009511e00032009511e0fe7b1018017b1510017b160801951520018411e082c67b166082c6087b166882c6107b167082cc187b1c7882bc7b1c3882bc087b1c4082bc107b1c4882bb187b1b5050120ec4ce007b1858501010b5006f687b18980082186f887b1890008218086f887b1888008218106f887b1880008218186f887b18b8008218206f887b18b0008218286f887b18a8008218306f887b18a0008218386f887b18d8008218406f887b18d0008218486f887b18c8008218506f887b18c0008218606f887b18f8008218686f887b18f0008218706f887b18e8008218786f887b18e0008379811a58831780003308040a069551e0fe8210180182151001821608019511200132008b7910520931c8780883881f8488e05638000001253309800102390a800102ae8a093d088001020133089001028377c887073200009511f07b10087b158475010a04013d077c010251050750101209501014f001951100ff7b10f8007b15f0007b16e800951500018411e04921d8004921d0004921c8004921c0008317c0000a11018217d0008218d8008219c800821ac000d49808d4a707d487075207e10039067c010297672098772095771f8477e09578a000d878077b18a0007b17a80094777b17b0003307409518a0004921b800501016ebfa3307a000646850101825ff8377646833090a020154161fa000951780003308a00050101a8bf9821790008219980014080000000001000000d37808d49808987a2088aa01949a938a510a7982188000821a8800d4780bd49a0cd4cb0b510b727b18607b1a687b1770330780009518607b197850101c74fa95174033084050101e2ff9821758821850821948821640d49707d48609d47909989920d48707977720d49707510769003308900102838833070128b1003308900102838833070128a400330890010283883307012897004911104911084901140700000000c8f5bc1464187b17183307501020fff9390880010256181f0b20038001022001330890010283883307013309040a0e01646733085010221bfe8377330833090a029517203308800050102488f8821738821930821a28821b203e07c801033e09c001033e0ab801033e0bb00103284ef864673308501026dbfd8378330733093300280a0e280a33093300280a0e01951110fe7b10e8017b15e0017b16d8019515f001951190c08411e06416956998314929e0044929d8044929c8048000330740956860364929d00450102a42f933077c01027b67b80139077c01025517040728137d9567003083778006330833002c0a030195699831819704055247871cb2880a28614752476cd3238f0a286c3c5247346662990a2831265147e1ac83b6790152472d16dfba0a28f51f5147b00de3d011065247b8e7d0de0a283133524750abe5ee0a28aa0e5147f8235cff290952475f53cc0e0a286040524786e72a220a2827155247bf2f262b0a28fe4352474d7d1a2e0a2852215247f50796370a28ac37524768e76a410a28622b5147b836cc48610c5247aef7914a0a287c2052477f7eba4b0a284e195147b327d0610a28ac249567983949276002492758024927500249274802956700408377e0fb33002e0a1133023028abcb00501230a7cb005012323dce00510706282f6e8267b801817756170307282f6e95676017330840501034d2f695675811957900068298207b68b8018298187b68b0018298107b68a0018297087b67a80150103655f6956b000182b7b80082b8a000d4870782b8a800648a82b9b0005012387fca0051070628a0613a09b001033a08b801033807c00103956b5811492b000695bc00057bc7f8007bc8f000956840177bc9e80064a750103a8cf73308208267a80133000c0528c1fb956798394927a00449279804492790044927880495670040837720fe33003c0a1101956a983995ab000450123e22cd00510706286c6d50124064c900ac7806286d6d95670040837740fe3308040a0301956a983995a700048278c0008279b800827bb000d4890c88b70194c7520706284a6d7b6cb80082aca8048267b801807295c723d8c70ac8ab037b6bf000d8b30bdaaa0bc89b0b7b69a001d89b097b68a801c88909d4b909d827079437949752070628156d83c80495670040837760fe7b6ce8000a0301956a983982a2e00482a7d80482a9d0047b670801d427078898017b67b001947852080628ea6c82a4c8048268e800958724d8870a8260f000c8a00bc847037b674001d8730cc89b08c8c808d3b8077b690001d8b809da7c09d80b07daaa07826aa001c8a707d8a70a826ba801c82b0bc8ba0a826c0801c8c70bd87b07c8a707826ab80180aac8b909d8b90bc8b707d83a0a888b0185aa01db8b0a887801889b01db780bd49707db7b0a520a06286e6c884703826900019497826ab00194a751070628666c64cb8e977b64d800884865858801db97088ec78e297b62d000da2709daa809510906288f6c33079001037b67f80083777b67e0003300420a058269f80033024428eec1008269f800501244e6c1004929e002959b00027bb8d8007bb7d0009568602c7bbac800330750104687f533024895689829014928c0024928b8024928a8020364893307209568402c4929b00250104a60f59517e08477e07b67b80164713309800102390780010256173f0b200380010240017b69c8009517e08479e07b69b00164913307900102837783993308407b67c00033004c0a0933024e2844c50050124e40c5006f8b6f996faa8268b8017b8a187b89107b8b087b879567202c501050e1f5956998298097880249296002492958027b9748029567002c9568e02b4929500250105207bf009567982995790002829880007b6828018298787b6820018298707b6818018298687b6810019567c02b8268b80150105489f5956a982980a72c0297772095ab000282b83082b93882ba40826b1001d4b707826b1801d4b808826b2001d4b909826b2801d4ba0a956b98397bba000595ba00047ba9f8007ba8f0007ba7e8009568803e8267b801501056a8f5956700408377a0fe0a0a019567983982742005827a18057b6a70018273100582700805684768a8958940db470968376808958840db370895878000d44a0adaa709d8870c94ac8ecb8897f000857a01daca0b88b7019577ff9ab89accc9ac0a9a92ef007b68b8018e8c8e78da7c08882c000185cc018ea9dba90cdbb80c7b646001d44308643482637001d43009d49808888801d4c8087b607801640b948b510806284e498528ff00826cb801d4c808d47a09d498085208062837499529017b69b001889801c8a8087b68a001d49808888801c8c8087b689001d8c808c887077b6798019a28ff007b6888019a8980008267780164487b64680150105867ca0050125a33ca0050105c81ca007b6750017b68480182678801957980826778018268680150105e64ca00501260f4c900826778018268680150106250ca00826b580182629001826c98018269a001d49c0c826ab001d42a0ad4ca0a93b77b67a801510a0628bd46330b287d488267b80181775617030728d569956798394927c0064927b8064927b0064927a806956700408377403300640a1101956a983995ab0006501266d8c50052070628ad6933079001037b67b00183777b6788013300680a058269b00133026a28b1be008269b00150126aa9be004929a004959b00047bb898007bb790009568202e7bba8800330750106c4af233026e95689829014928800449287804492868040164893307209568002e4929700450107023f29517e08477e07b67b8016471390880010256183f133308403d088001023302722889c70050127285c7003307900102837783993308407b6780013300740a0901826aa80182a71882a81082a90882aa6f77501276bfc500956798394927e0064927d8064927d0064927c806956700408377600a1195679839957900068298c8007b68a8018298d0007b68a0018298d8007b6898018297e0007b6790019567e02d8268b8015010786cf2956b982982ba480482b7500482b8580482b96004826c90017bbc0004826c98017bbcf803826ca0017bbcf003826ca8017bbce80395bc00047bc9207bc8187bc7109567c02d9568a02d9569802d7bca0850107aad9e00956a982995ab000482b74082b83882b93082ba28956b98397bb7000795b700067b78f8007b79f0007b7ae800956880408267b80150107c55f29567602d33084050107ea5ef95679829957900038298e0007b68a8018298d8007b68a0018298d0007b6898018297c8007b67b8019567983949272007492718074927100749270807956700408377a000330080000a1101956a000182a7a80082a89800d4870782a8b800648c82a9a0005022820030c30051070628505a50228400d1c30082b70882b81082b91882ba20956b98297bbac00395ba00037ba9b8007ba8b0009568402d7ba7a80064c75020860038f082678801330088000a058269b00133028a0028edbb008269b00150228a00e5bb00d4780298aa206f99979820d4a8089899203a0a000002956798297b7aa0033a0a0800023a0b1000023a0c1800027b7a9803957a00037bab9000492780037bac88007ba9787ba8703308209569202d956a002d7b7268038267b80150208c008af13307826880013309330070050a0e3302720528c0c100956798394927a007492798074927900749278807956700408377200133008e000a113302900028ddc20050229000d9c200502292003dc50051070628c6668267b80181775617430728c66695674036330094003302b806288dc400956898318287a8047b67b0018287b0047b67a8018087b8047b67a00195672036330096003302ca0628dcc30095679831827788047b67b80195670036502098004ea1009567983149276004956a000182a8a000957b00047bb85882a8a8007bb8509568e03582a9b0007bb948330750209a00d2ee956898314928400449283804492828040264893307209568c0354929300450209c00aeee3308800102390780010256173f0b200380010240019517e08479e07b69a00164913307900102837783997b68b0013308407b67a80133009e000a0901826aa00182a71882a81082a90882aa6f775022a000fdc0008267b8015022a20078c4004929200449291804492910049568a0357b97080433075020a40033ee82678801956898317b870004826790017b87f803826798017b87f003648a330720956880358269a0017ba9e8035020a60000ee8268b001818756173f0f4808403302a80028adc1005022a800a9c1003300aa000a09826ab8013302ac00286ec100826ab8015022ac0066c10083aa9801c86a0a95ac00037bc9c0007bc8b8007bc7b00095676035956840357bcba8005020ae0019a60095689831958900038297e000956800017b8798008297d8007b87a0008297d0007b87a8008297c8007b87b000956720353308405020b0002aec956998318292a00395980003828c9800828b900082878800d42b0ad4c708d4a808988820d4ca0a97aa20d4a8085108062812574929800349297803492970039568003549296803207b67b8017b6b80017b6290017b6c88015020b20006ed8267b8019577208268b801d88708826a80015022b4005cbc0082688801c88a0ad88a08826b9001c88b0b95689831958c00037bc9107bc708826798017bc7408267a0017bc7388267a8017bc7308267b0017bc7287bca18648a9567e0349568c0349569a0347bab20035020b600358b0095679831827850038272600382734803827a580382678001d3780bd8780c64708267b801d87304dab40c82678801c97a0bd87a0a82679001c97209c9a909d8cb0ac9a9098267b801c9cb0bc90808c9480ac97308d4a90901d4b80ad49a0ad4b90998aa20979920d4a9095109f53f28065695679839492700014927f8004927f0004927e80095670040837780fa3300b8000a1101956a983982a7f80082a8000182a9f00082aae800d49808d4a707d48707510706285c635022ba00fabd00ac7806285c63956700408377a0fa3308043300bc000a033302be002834c2005022be0030c20082b72082b81882b910d48707889801947852080628326382a708017b674001956700408377c0fa0a0a019567983982744001827a38017b6a70018272300182702801684768a8958940db470968276808958840db270895878000d44a0adaa709d8870c94ac8ecb8897f000857a01daca0b88b7019577ff9ab89accc9ac0a9a93ef007b68b8018e8c8e78da7c08883c000185cc018ea9dba90cdbb80c7b6460017b627801d4420882647001d44009d49808888801d4c808640b948b51080628ed4c8538ff00826cb801d4c808d47a09d4980852080628d64c64029539017b69b001889801c8a8087b68a001d49808888801c8c8087b689001d8c808c887077b6798019a38ff007b6888019a89800064077b626801826878015020c000bbc1005022c20086c1005020c400d3c1007b6750017b6848018267880195798082676801826878015020c600b5c1005022c80044c10082676801826878015020ca009fc100826b580182629001826c98018269a001d49c0c826ab001d42a0ad4ca0a93b77b67a801510a06285a4a330b28144c956798394927800749277807492770074927680795670040837700013300cc000a113302ce00285fbd005022ce005bbd005022d00013bd005107062889618267b801817756176307288961956780343300d2003302b806280fbf0095689831958900028297f8007b6778018297f0007b6780018297e8007b678801956760343300d4003302bc06285abe00956798318277c8027b679001956740345020d600278500956798318277a8027b679801956720343308405020d8002ee895679831957c000282c8a0007b68a80182c998007b69a00182cb90007b6bb00182ca88007b6ab8017bc880007bc9787bcb706478956700347b8a68023300da0033024a0728c4b600956a000182a7a80082a8b000d4870782a9a00082a8b8005022dc00bdbb0051070628dd52956798314927600249275802492750029568e033492748028267b8015020de00dae8956b000182b7a80082b8a000d478095022e00099b800520706289f528267b801837720956898317b69a80164894928400249283802492830029568c033492928027b6aa0015020e2008fe8956900018297a0009577c05022e400ffb8005207062858528267b801837740956998314929200249291802492910029568a033492908025020e60052e8956a000182a7785022e8006dbe004929000282a88000959b00017bb8f00082a888007bb8e800956880337bb7f80033075020ea001ce8956898314928e0014928d8014928c801046489330720956860334929d0015020ec00f8e73308800102390780010256173f122003800102403302ee002865bd005022ee0061bd003307900102837783997b68b8013308407b67b0013300f0000a093302f2002817bc005022f20013bc007b67a8016f877b67a0016f977b6788016fa77b678001956998314929c0014929b8014929b00195684033826790017b97a80133075020f40072e78267800195689831958900017b97a000826788017b9798008267a0017b979000648a330720956820338269a8017ba988015020f6003be78268b801818756173f08480840019517e08477e07b67a8015022f8004fb3003300fa000a093302fc002872bb005022fc006ebb007b67a0015022fe0043b5007b67a8016471826798015022000114bd00492980014929780149297001956800337b976801330750200201cfe682678001956898319589000150220401ccbd009568e0328269a0017ba9480150200601aae68268b801818755174008480840019517e08477e07b67b80150220801beb20033000a010a09826ab80133020c012878b400826ab80150220c0170b400826ba8017bba187bb9107bb8087bb79567c03233084050200e0118e595689831958c000182c7407b67a00182c9387b69980182cb307b6bb00182ca287b6ab8017bc7207bc9187bcb109567a0327bca083300100133024a0728b6b300956780328268a80150201201f6e6956a000182a7a00082a8b000d4870782a9980082a8b80050221401a1b80051070628c14f956998318297e8007b67a8018477ff008e774929e0004929d8004929d000956860327b6790017b97c8008267b80150201601ace5956b000182b7a00082b89800d47809502218016bb50052070628714f8268a801848700ff007b6a98018e7a8267b801837720956898317b69a0016489330b4928c0004928b8004928b000956840327b9aa8007b67880150201a0150e595690001829798009577c08298b800d878078298b00094878298a0009487520706280d4f956b000182b8a80084870000ff008e7982b7b800837740956a9831492aa000492a9800492a9000956820327ba988007bb7b00050201c01f3e49567003233084050201e01ace3956298316428828b8000828c78828a70828768d4ba09d4c708d49808988820d4c909979920d4980851080628994e4912604912584912509568e0317b6aa801826a90017b2a487b67b8017b6ba0017b6c9801502020018ee49567c031826888015020220146e395690001829aa800829bb8008297a00082989800d47808140900000000010000001407e0ffffff00000000d87b0794a7948752070628294e956c983182c7407b68a00182c8387b69980182c92882ca30d49808d4a707d487078e7883b720491c20491c187bc8089568a031491c10502024010ce4956780318268b00150202601c4e295690001829bb800829798009577c0d87b078298a80094878298a000948752070628bb4d956a983182a795ac00ff82c8f80082c9e80082caf000d49808d4a707d487078e7883b740956998294929e0074929d8077b98c807956860314929d0075020280198e33308608267b8013300780328cce74929e0054929d8054929d0054929c805956700308377600733002a010a1133022c012899b90050222c0195b90050222e0108ba00510706280e5b8267b801817756170307280e5b95670030837780070a0a9567983182780006956900017b9878957a000582a8f8007b987082a8f0007b98b80082a7e8007b97b0009567000433084050203001c8e1956b000482b71882b81082b90882ba50223201b9b10051070628c74c7b6a3801826370016837957740826078016809da07098264b00168479577408262b8016828da270895878000d4030adaa709d8870c94ac8ecb8897f000857a01daca0b88b7019577ff9ab89accc9ac0a9a99ef007b6898018e8c8e78da7c088eac7b69880188990001859901dbac09dbb809d43408d4020bd4b808888801d49808644b948b51080628895f826888018588ff0082699801d49808d47a09d49808520806286e5f826b880195b9017b69a801889801c8a8087b68a001d49808888801826a9801c8a8087b689001d8a808c887077b6798019ab8ff007b6860019a8980008267b0018268b801502034011db9007b6758017b6868018267700182687801826960015020360128b9007b6750017b684801826760019579808267b0018268b801502038010ab9007b6740017b68300182696001889780007b6728018267b0018268b80150203a01e7b800956b00017bb8800082b8a00082b99800d4890982b8a80082ba9000d4a808d4980882ba2893a77bb7880052080628835e64a98267680182684801d4870764ac82683001da980782697801649a649882696001db970a7b6a680182675801826a5001d4a707826a4001daca07826b700164badb970a7b6a60018267800193c77b678001492650018051018267a80195798064b750203c0128b8007b6758017b6840018267b0018268b8018269a80150203e010db8007b6730017b6848018268a8019a89800082677001826878015020400114b80082694801d498088269a801889a80007b6a4801826b4001daab08826bb801db980b7b6bb80182683001d4870782685801daa8078268b001db97087b68b001826770018268780150204201a1b7008264b0018263b8014926780149267001956b000182b948939893977bb75882ba5095a9ff7bb9488ea99599ff7bb9400198493f973a01d4a909974a0182646801984b3fd4ba0a7b6ab801826040016437d39003d89002826b4801d8ab0cdb320c978801826b580198ba3fd4a8087b68b001987a3f97b701d47a0a974701826b600198b83fd4870297b801826b800198b33fd4380397b801826b880198b43fd4480897bb0182677801d47b0b7b6b880182677001d478087b688001d437087b686001d427077b676801c9a007d8c707d8a008826cb001c9c00bc98b0bc97b0b99b03f82675001d270078268b801c97804d87808c989039498c98a077b675801d88a08c98c0895670001827aa800827ca000d4ca09889901827b9000d89b02c99b0988ab01c9bc0c827b9800c92b0b95aaff7b7ca0007b7b9800d4bc027b7aa800d49a0bd42b0a840b017b7b787b79900049267001520addfe283e5c956798394927e0014927d8014927d0014927c80195670040837760fb330044010a11330246012870b500502246016cb5005022480199b50051070628b95650224a01fcb000ac780628b9569567201733004c013302b806280bb40033024e01956a58110195ab000582b7c80082b8d00080a9d805492ac005956a00017ba9507bb9b8007ba8587bb8b000956800177ba7607bb7a80033075020500182de956858114928a00549289805492888050364893307209568e01649299005502052015ede3308800102390780010256173f0b200380010240011407ffffffff000000007b67680150225401c2ac003307900102837783997b68a0013308407b679801330056010a09826ab80133025801289daa00826ab8015022580195aa007bba000295ba00017ba9f8007ba8f0007ba7e8009567c0169568803b50205a01d3de95695811809768057b6748014929600582675001959a00057ba758826758017ba7509568a016826760017ba748330750205c01acdd95675811492740054927380549273005647a33072095688016492a28050150205e0188dd8268a001818756173f0848084001140700000000ffffffff7b6720019517e08477e07b67b80150226001dab200330062010a09826ab801330264012872a800826ab801502264016aa80095689839958a00027bab087bac107ba9187ba720956760169568a03b502066010ede956a581182a7080582686801d28709492ae004492ad804492ad00495674016956820167b6918017ba9c80450206801f49000956a581182a70005956800017b872895a900048297f8007b87308297f0007b87388297e8007b87403302330c330b0101330893c882674801d8b7073309dac7093307db780951090628c52e492690017b62a8017b6bb801492ac0048267600195a900047b97a800826758017b97b00095680016826750017b97b800330750206a0167dc956758114927a0044927980449279004647a3307209568e015492a88040250206c0143dc8268a001818756173f08480840019517e08477e07b67b00150226e01a3b100330070010a09826ab00133027201280cab00826ab0015022720104ab007b67b00164719569581182679001959a00047ba780007ba7787ba7709568c0158267b8017ba768330750207401d8db8267700195685811958900047b9760826778017b9758826780017b9750648a3307209568a015826988017ba9480450207601a4db8268a001818756173f08480840019517e08477e07b6790015022780104b1000a09826a900182a71882a81082a90882aa6f7b6f8c6f996fa38267b0017b73187b79107b7c087b7b95b2027b6b8801d8b208c88c077b6c8001d8c70ada880ac89a0a7b697801d89a087b639001c83808956b98397bb2280295b900027b97307b9a387b9840956780159568c03b50207a0104dc956a58110182a730048477ff00510712826868018267b8018262a80128f701956760158268b00150207c01d7db33027e01956a58110195ab000482b71082b81882b9088477ff8488ff826b2001d2b909d49808d487075107ba8267880195ab00037bb7c800826780017bb7d000826778017bb7d8009567401595682015826990017bb9e000502080010293009567581182770004956c00017bc79000956758118277f8037bc78800956758118277f0037bc78000956758118277e8037bc77882c76882c8a800d27808956758114927800395675811492778039567581149277003956758117bc8b0007b7868039567581182c8287b78a0039567581182c8307b7898039567581182c8387b789003956700159568e0149569c014956a581182cb407bab880350208201c79000956b581195bc000382c8c00082c9b80082cab00082c7a800d4a808d4970ad48a0a98aa20d49808978820d4a8085108062894438268780195ba00037ba848826880017ba850826888017ba8589568a014826990017ba9605020840189d99567581149270003956758114927f802956758114927f002956758118268b0017b78e80295675811826828017b78200395675811826830017b78180395675811826838017b781003956780149568601495694014956a5811826b40017bab080350208601039000956a581101956b000182b7a80095770182b868d2870282b7b80082b918ab920628252b330c957701d2870b283dfc9567983949278006492778064927700649276806956700408377330088010a1101956a983995ab000650228a01ecab0051070628b0508267b80181775617030728b050956798394927a0064927980649279006492788069567c02c9568204050208c0181d933028e01956898290195890003829740956800017b87b8008297387b87b0008297307b87a8008297287b87a0009567a02c330840502090011bd7956a982995ac000382c72082c81882c91082cb085022920145aa00510706281542956900018297a00095a800027b87e8008297a8007b87f0008297b0007b87f8009568802c8297b8007ba7000364b77b6bb8013300420328f8d7956798394927c0014927b8014927b0014927a80195670040837740fb330094010a1133029601284cae005022960148ae005022980103ab0051070628c94f8267b80181775617030728c94f9567a01333084050209a0169d633029c01956a58110195ac000282cb6082c85882c95082c748d49b0bd48709d4b909989920d4b808978820d498085108062850413a08a00002492a4002492a38027ba8280295688013492a30027b67b801330042032848d74929800649297806492970064929680695670040837700f833009e010a1101956a983195ab00065022a00145aa00510706283d4f5022a20132a900ac7806283d4f95670040837720f83308043300a4010a030195679831957c000682c8a00082c9980082ca900082cb88005022a601edab0052070628134f33079001037b67b80183777b6788013300a8010a053302aa01280ca7005022aa0108a700492698077b6890077b678807956880077b6a800733075020ac0193d64926780749267007492660070133072095686007492668075020ae0175d69517e08477e07b67900164713309800102390780010256173f0b200380010240017b6960019517e08479e07b697801649133079001027b678001837783993308407b6768013300b0010a09826a78013302b2012892a700826a78015022b2018aa700956740075020b401fbd6826258078268480782645007826340078260a001d302078269b001d3980cd8980a8269a801d89309dbca09d8020a826b9801d8b40cdb7a0cd3b40ad47a0adbac0951090628474e8267a801956900067b97e0007b6300078267b0017b97e8007b6808077b9bf0007b6410077b60f80695672007956800079569e0067b6218075020b601f68300956b000782b73882b83082b92882ba20956b983195bc00067bc7c0007bc8b8007bc9b0007bcaa80095684038826790015020b801b7d6826788013300ba010a053302bc01289daa005022bc0199aa003300be010a0b3302c001284ea6005022c0014aa600959b00067bb8e000826898017bb8d8008268b0017bb8d0008268a8017bb8c8004829e8068e77fc089a78959b00077bb8207bb8187bb8107bb80897a820988820977723d48707956860389788209888209569a038979920d4890a826b800197bb2098bb2095688038978820d4b80c3308ff3309ff0a017b6790019567c0065020c201a2840082679001510706283c4d956780063308405020c40149d3956b000682b7980082b8900082b9880082ba80005022c60135a30051070628433e8267a8017b6760068267b0017b676806826798017b677006956860068267a0017b67780664a77b6ab0015020c80132d4826788013300ca010a058269b8013302cc0128e79f008269b8015022cc01df9f00d4780298aa206f99979820d4a808989920492638063a0a0001023a0b0801023a0c1001023a071801027b6a5806956a00067bab507bac487ba7407ba9307ba82833082095694006956a20067b6220068267b0013300c4022887d551478ab99f6f0a28804c956798394927800249277802492770024927680295670040837700fc3300ce010a113302d00128f6a6005022d001f2a6005022d2019da60051070628904c8267b80181775617030728904c95670040837720fc0a95679839957900028298a000956a00017ba8b800829898007ba8b000829890007ba8a800829788007ba7a0009567a0173308405020d401e6d1956a581195ac000682c76082c85882c95082cb485022d60110a50051070628e03c956900018297a00095ac00067bc7288297a8007bc7308297b0007bc738956880178297b8007bc74064b77b6bb8013300420328c7d29567983949276003492758034927500349274803956700408377e0fc3300d8010a113302da01280ea9005022da010aa9005022dc01a4a80051070628c74b8267b80181775617430728c74b9567c01d3300de013302b80628b6a70095685819828768047b67b801828770047b67a801808778047b67a0019567a01d3300e0013302ca062805a7003302e2019569581901959a000482a748956b00017bb7b0004929400482b7a0007ba73882b7a8007ba7309568801d82b7b8007ba72833075020e40106d23302e60195685819014928200449281804492808040264893307209568601d492910045020e801ddd13308800102390780010256173f0b200380010240019517e08479e07b69a00164913307900102837783997b68b8013308407b67a8013300ea010a0901826aa00182a71882a81082a90882aa6f777b67a0015022ec01cc9f007b67980164718267b00197772098772095695819492900044929f8034929f0039568401d7b97e80333075020ee0155d18267800195685819958900037b97e000826788017b97d800826790017b97d000648a3307209568201d8269a0017ba9c8035020f0011ed18268b801818756173f0f4808403302f20128cba4005022f201c7a4003300f4010a093302f60128bb9e005022f601b79e009567001d5020f801d5d1956b581982b7b8037b67900182b7b0037b67880182b7a8037b6798018267a8019577018878018269b001c89808d48709889901826aa001c8a909d8a90a826cb801c8ca0a95bc00037bc8707bc7687bc9789567e01c9568c01c7bca80005020fa01d879956c581982c7a0037b67780182c798037b6780015022fc01499f0082c890037b6870015022fe014ea20082cb88037b6b6801956b983995bc00037bc880007bca787bc9707bc7689567a01c9568003d502000021dd1330202029568581901828750037b675801828748037b6760019567801c33084050200402cbce330206029569581901959a000382ab4082ac3882a83082a7287b68b801d4b80ad4c708d4a808988820d4ca0a97aa20d4a80851080628ae39140affffffff00000000826898017b6a5001d28a0a4929200349291803492910039568601c7b9a08037b67b0017b6ba8017b6ca0015020080292cf956c000182cbb00082c7a80082c8a000d47809140a00000000010000001407e0ffffff00000000d87b0782c8b80094879497520706283b39826798019877207b6a9801826a880197a820d4870798a8207b694801826a900197a920d4980898a920848aff8478ff82675001d2790983b720956b5819492b000395bc00027bc9f8007bc8e8009568401c7bcaf00050200a02ffce956a000182a8b00082a798009577c0d8780782a9b800949782a948949752070628bd38838740956958194929e0024929d8024929c802a0009568201c4929d00250200c02b9ce8267b0019577a0008268b001d88708826ab801c88a09d8a90ada880a8268a001c88a0ad88a08826ba801c88b0b95685819958c00027bc9707bc768826778017bc7a000826780017bc79800826770017bc79000826768017bc788007bca78648a9567001c9568e01b9569c01b7bab800250200e02ac6a956c000182c94882c8b000140b00000000010000001407a0ffffff00000000d8780782cab80094a7949752070628f437330210029569581901959a000282a7c0007b67800182a7b8007b67780182a7b0007b67880182a7a8007b6790018387604929600249295802826860017ba8489568a01b492950027b6b980150201202c2cd956a000182a9b00082a79800957780d8790782a8b800948782a84894875207062880377c6758018e78839780009569581949294002492938027b9828029568801b492930025020140277cd8267b00182639001d87302826cb80182688801d3c80ad8c809daa209826aa001826b7801c9ab04d8ab00826ba801826a8001c9ba0bc90b0bd8940ac9ab0ac9940bc9c809c92909c97308d4a90928ece09567983949074917f84917f04917e895670040837780f9330016020a1101956a983995ab00ff82b7f80082a882b9f00082bae800d49808d4a707d4870751070628394650221802ff9e00ac78062839469567ff079577a10433001a023302b806280aa2009568ff0795883901958900038297787b6788018297707b6790018297687b6798019567ff079577810433084050201c0257cb9567ff0795773901957c000382c8607b68a80182c9587b69a00182cb507b6bb00182ca487b6ab8017bc8407bc9387bcb3064789567ff07957761047b8a280333001e0233022a0728ea9900956a000182a7a80082a8b000d4870782a9a00082a8b80050222002e39e005107062803369567ff07957739014927200349271803492710039568ff0795884104492708038267b80150202202f8cb956b000182b7a80082b9a000d4790950222402b79b0052070628bd358267b8018377209568ff07958839017b69a8016489492800034928f8024928f0029568ff07958821044929e8027b6aa00150202602a5cb956a000182a9a80082a7a0009577c082a8b800d8780782a8b000948794975207062862358267b8018377409569ff07959939014929e0024929d8024929d0029568ff07958801044929c8025020280254cb1407a0ffffff000000009569000150222a02c19b00520706281a358267b8018377609569ff07959939014929c0024929b8024929b0029568ff079588e1034929a80250202c020ccb826788019777209877209569ff07959939014929a00282689001959a00027ba89000826898017ba888009568ff079588c1037ba79800330750202e02ceca9568ff07958839014928800249287802492868020164893307209568ff079588a1034929700250203002a2ca9517e08477e07b67b0016471390880010256183f143308403d08800102330232022808990050223202049900330790010283778399330840330034020a09330236022818a0005022360214a0006f976fa87b6888018269b0017b98187b6790017b97107b6b80017b9b087b6c78017b9c9567ff079577810333084050203802e7c89568ff0795883901958c000282c7607b67a00182c9587b69980182cb507b6ba80182ca487b6ab8017bc7407bc9387bcb309567ff07957761037bca2833003a0233022a07287d97009567ff07957741038268b00150203c02b9ca956a000182a7a00082a8a800d4870782a9980082a8b80050223e02649c005107062884339567ff0795773901957c000282c92082c81882ca1082cb087b6b58017b7be8017b6a60017b7af0017b6868017b78f8019568ff07958821037b6970017bc98267b801502040025bc98267780195770188780182698001c89808d48709889901826a9001c8a909d8a90a826b8801c8ba0a956b98397bb8107bb7087bb9187bba209567ff07957701039568a0395020420203ca956b000182b7a00082b99800d47909140a00000000010000001407e0ffffff0000000082b8b800d8780782b8a8009487949752070628ba32956bff0795bb390182b2e00195bc000182c8d8007b69b00182c9d0007b6aa00182cac8008267b8018377207bcaa8007bc9b0007bc8b8009568ff079588e1027bb2c0017b679801502044028cc88268780195870250224602f897007bb9307bb7287bba387bb8409567ff079577c1029568c0395020480252c9956a000182a9b00082a7a0009577c082a8b800d8780782a8a80094879497520706281d32956bff0795bb390182b2a00195bc000182c8980082c9900082ca88008267b8018377407bca687bc9707bc8789568ff079588a1027bb280017b67a00150204a02fac78268780195870350224c026697007bb9507bb7487bba587bb8609567ff07957781029568e03950204e02c0c81407a0ffffff00000000956900018298b800d878078298a80094878298b0009487520706288831956aff0795aa390182a748019777209879208268b801838760492a4001492a3801492a30019568ff07958861027ba928017b678801502050026cc79567ff07957741023308405020520221c69569ff0795993901959c000182ca2082cb1882c71082c808956c00017bc7b0007bcaa800d4a7077bc8b800d4b808d478089888207bcb9000d4b707977720d4870751070628f530826758017b97e800826760017b97f000826768017b97f8009568ff0795882102826770017b9700018267b80150205402e2c69567ff0795770102826898015020560296c5956a000182a7a80082a99000d4790950225802459d007ba9a8009497520706288f30956cff0795cc390182c2e00082c8d80082cad00082cbc8008267b8018377207bcba8007bcab0007bc8b8009568ff079588e1017bc2c00050205a0271c69567ff079577c1018268a00150205c0225c595690001829798009577c050225e02cf9600520706282830956cff0795cc390182c2a00082c8980082ca900082cb88008267b8018377407bcb687bca707bc8789568ff079588a1017bc28000502060020dc69567ff07957781018268880150206202c1c41407a0ffffff00000000956900015022640268960052070628c12f9569ff07959939018297481408ffffffff00000000d278088267b8018377604919404919387b98289568ff079588610149193033001e0328a3c59567983949274007492738074927300749272807956700408377c000330066020a113302680228e2980050226802de980050226a023b9c0051070628d73e50226c02839700ac780628d73e9567403133006e023302b80628929a00956a982995ab000782b7a80082b8b00080a9b807492aa0077b6910017bb998007b6818017bb89000956820317b6720017bb788003307502070020fc5330272029568982901492880074928780749286807036489330720956800314929700750207402e6c433078001027b679801390780010233083fac78128268980148084033027602284e9300502276024a93003307900102837783993308407b679001330078020a09826ab80133027a0228299100826ab80150227a0221910095bc00077bca607bc9587bc8507bc7489567e0309568e04050207c0263c5956a982980a94807492a2007492a1807492a10079567c0309568a0307b6928017ba9080750207e02507833083309330a330b956c982982c740077b67700182c738077b67780182c730077b67800182c728077b6788011407feffffff000000007b6708010182672801d878079497d4ba0c94c752070628c4167b6c68017b6ba0017b6aa8017b69b0017b68b801956998294929800682672001959a00067ba768826718017ba77095680030826710017ba778330750208002b7c395679829492760064927580649275006647a3307209568e02f492a4806025020820293c382679801817756173f0c82679801480740019517e08477e064717b6760018379330840826790010a0901826ca8018ec78268a0018e82da8702826ab80182670801d8a707826bb0018eb9dab70982676801db7209510906284d3895aa0188a701c87b0bd4ba07887701c87c09d8c907c87803826c600182c71882c81082c20882cc6f777b6768016f877b6760016f277b6758016fc77b675001956798297b693801957800067b89387b6b40017b8b307b6a48017b8a289568c02f7b6330017b734006330750208402c9c28267500195689829958900067b9720826758017b9718826760017b9710648a3307209568a02f826968017ba908065020860295c282679801817756173f0c82679801480740019517e08477e07b6768016471837933084082679001330088020a09826a680133028a0228f89500826a680150228a02f0950083aa98f9c86a0a95ac00057bc9e0007bc8d8007bc7d0009567802f9568602f7bcbc80050208c02a37a956b982982b70006956c00017bc76882b7f8057bc76082b7f0057bc75882b7e8057bc75082c7a0007bb7800582c7a8007bb7780582c7b0007bb7700582c7b8007bb7680582c7707bb7a00582c7787bb7980582c780007bb790059567402f9568202f9569002f82ca88007bba880550208e02947895679829957c000582c8c00082c9b80082cab000647b82c7a800d4a808d4970ad48a0a98aa20d49808978820d4a80851080628602b8268500195ba00057ba848826858017ba850826860017ba8589568e02e826968017ba9605020900255c18267a00195689829958900057b978267a801958a00047ba7f8008267b0017ba7f0008267b8017ba7e800826770017b9720826778017b9718826780017b9710648b9567c02e9568a02e9569802e826a88017bba080550209202da7795670001827848827940827a38827b3028defc49294007492938074929300749292807956700408377c0f8330094020a1101956a983195ab000750229602869700510706283c3a50229802ce9200ac7806283c3a956700408377e0f833080433009a020a030195679831957c000782c86082c95882ca5082cb4850229c028d950052070628163a33079001037b67b80183777b67880133009e020a053302a00228ac90005022a002a890009569ff07959939014919207b98187b97109568ff07958841017b9a0833075020a2022bc09567ff079577390149074917f895680010492820f9013307209568ff079588210195690010492928f95020a402fcbf9517e08477e07b67900164713309800102390780010256173f0b200380010240017b6960019517e08479e07b697801649133079001027b678001837783993308407b6768013300a6020a09826a78013302a80228038e00826a78015022a802fb8d00826890017b8b7b8c087b89107b87189567ff07957701015020aa026fc095670010827218f995670010827808f995670010827410f995670010827300f98260a001d302078269b001d3980cd8980a8269a801d89309dbca09d8020a826b9801d8b40cdb7a0cd3b40ad47a0adbac09510906280e398267a801956900107b97a0f8956700107b73c0f88267b001956900107b97a8f8956700107b78c8f8956700107b7bb0f8956700107b74d0f8956700107b70b8f89567ff079577e1009568ff079588c1009569ff079599a100956a00107ba2d8f85020ac02326d956700108277f8f8956800108288f0f8956900108299e8f8956a001082aae0f8956b983195bc00077bc780007bc8787bc9707bca6895680039826790015020ae02e7bf826788013300b0020a053302b20228cd93005022b202c993003300b4020a0b3302b602287e8f005022b6027a8f00959b00077bb8a000826898017bb898008268b0017bb890008268a8017bb888004829a8078e77fc089a787bb8e0007bb8d8007bb8d0007bb8c80097a820988820977723d487079568203997882098882095696039979920d4890a826b800197bb2098bb2095684039978820d4b80c3308ff3309ff0a017b6790019567ff07957781005020b802ce6d8267900151070628cc379567ff079577413308405020ba0273bc95670010827758f895680010828850f895690010829948f8956a001082aa40f85022bc02538c005107062861278267a801956800107b8720f88267b001956800107b8728f882679801956800107b8730f89568ff079588218267a001956900107b9738f864a77b6ab0015020be023dbd826788013300c0020a058269b8013302c20228f288008269b8015022c202ea8800d4780298aa206f99979820d4a8089899204926f8073a0ae000023a0be800023a0cf000023a07f80002956300107b3a18f8956a00107bab10f8956a00107bac08f8956a00107ba700f87b69f0077b68e8073308209569ff07959901956ae0077b62e0078267b0015020c40282be3307826868013309330070050a0e3302720528b88e00956798394927e0024927d8024927d0024927c80295670040837760fc3300c6020a113302c80228e28f005022c802de8f005022ca0213930051070628c2365022cc02768e00ac780628c23695670040837780fc3308040a03019567983982780003957c000282c9f80082caf00082cbe800956c00017bc898007bcab000d48a077bc9b8007bcba800d49b08d4870752070628863633079001037b67900183777b6770013300ce020a05826990013302d002284a8800826990015022d00242880049292002959b00027bb8187bb7109568601b7bba0833075020d202bcbb3302d4029568581901492800024928f8014928e8010164893307209568401b4929f0015020d60293bb9517e08477e07b67a00164713309800102390780010256173f0b200380010240017b6968019517e08479e07b69880164913307900102837783993308407b6778010a09826a880182a71882a81082a90882aa6f776f8c6f996fa2826ba0017bb2187bb9107bbc087bb7951be084b8e06481957b02d87b07c87c0ad8ca0cda770cc89c0cd89c07c827077b8c107b8a087b8b7b87189567201b7b6888015020d802e3bb956b581982bce00182b8d00182b4d80182b3c80182609801d30c078269b001d39802d8980a8269a801d89309db2a097b6c8001d80c0a8262b801d8240cdb7a0cd3240ad47a0adbac09510906286d358267a80195bc00017bc7687bb388018267b0017bc7707bc890008267b8017bc7787bb498017bb080019567001b9568e01a9569c01a826a80017bcaa0005020da02d168956758198277c001956858198288b801956958198299b001956a581982aaa801956b983995bc00037bc7207bc8187bc9107bca089568a03c826788015020dc0287bb9567a01a8268a0015020de0201bb95675819827a4801956758198277500195685819828858019569581982996001956b5819826c98017bbc0001956b5819826cb8017bbcf800956b5819826cb0017bbcf000956b5819826ca8017bbce800956b58197bb92001956958197b981801956858197b8710019567801a9568601a9569401a956b58197bba08015020e0021567956758198277400195685819828838019569581982993001956a581982aa2801956b983995bc00037bc7407bc8387bc9307bca289568c03c8267a0015020e202b5ba9567201a3308405020e40204b8956a581982a7e00082a8d80082a9d00082abc8005022e6022e8b0051070628fe228267a8017ba7a8008267b0017ba7b0008267b8017ba7b8009568001a826798017ba7c00064b77b6bb8015020e802edb8826770013300ea020a05826990013302ec0228a28400826990015022ec029a8400d4780298aa206f99979820d4a8089899203a0a800002956758197b7aa0003a0a8800023a0b9000023a0c9800027b7a98007b7b9000492780007b7c88007b79787b78703308209569e019956ac0197b72688267b8015020ee0244ba3307826878013309330070050a0e33027205287a8a0049296005492958054929500549294805956700308377e0063300f0020a113302f202286a8e005022f202668e005022f402398e00510706282d335022f6023c8a00ac7806282d339567c0033300f8023302b806284b8d008267c0038268c8038069d0034926b8037b69b0037b68a8039568a0037b67a00333075020fa02dcb74926980349269003492680030133072095688003492688035020fc02beb79517e08477e07b6798016471390880010256183f143308403d088001023302fe02282486005022fe02208600330790010283778399330840330000030a0933020203283f8500502202033b8500956760035020040359b8826778037b679801826770037b679001826768037b67880182676003502206033f8a00959a00057ba870d478087ba7688887018268a001c887077ba778d887078268b801c887077ba7800095674003956800375020080300b8826758037b677801826750037b677001826748037b676801826740037b67600150220a03cb850050220c03d88800956b983195bc00057bc8a0007bca98007bc990007bc78800956720039568203750200e03acb7826738037b675801826730037b6750018268a801958703d88708826ab00150221003048600826828037b68a801502212037e8800826b20037b6ba001956b983195bc00057bc8c0007bcab8007bc9b0007bc7a8009567000395684037502014034ab7826700037b6748019567e0023308405020160309b595670002827bf800827cf000827ae8008279e000d4ba07d4c908d47808988820d4c707977720d4870751070628f51f826780017b67c002826788017b67c802826790017b67d0029568c002826798017b67d80264977b69b8017b6ab0017b6b98017b6c900150201803d8b5956c000182c8b80082c7980082ca9000d47a0a140b00000000010000001407e0ffffff00000000d8780782c9b000949794a752070628811f83872082686001956c00027bc8a000826868017bc8a800826870017bc8b0009568a002826978017bc9b8007b6a98017b6b900150201a0367b595690001829b9800829ab0008298b800829790009577c0d8780794a794b752070628241f8387408268a001956a00027ba880008268a8017ba88800826850017ba8900095688002826958017ba9980050201c0312b5956a000182a9b8001407a0ffffff00000000d8790782a8b000948782a89800948752070628cc1e8267480197772098782083976049267802492670027b686002956860024926680250201e03c4b4330880008267b80150202003fbb883783309800033070a0e28153249292006492918064929100649290806956700308377a007330022030a1101956a983195ab000682b71882b82082b91082ba08d49808d4a707d48707510706288d2f50222403828600ac7806288d2f9567c005330026033302b806289189008267c0058268c8058069d0054926b8057b69b0057b68a8059568a0057b67a00533075020280322b449269805492690054926800501330720956880054926880550202a0304b49517e08477e07b6798016471390880010256183f143308403d0880010233022c03286a820050222c036682003307900102837783993308400a09826ab80182a71882a81082a90882aa6f7b7b6ba8016f8c7b6cb0016f997b69a0016fa77b67b801826898017b87187b89107b8c087b8b9567600550202e037cb4826760057b679801826768057b679001826770057b6788018267780550223003628600959a00067ba830d478087ba7288887018268a001c887077ba738d887078268b801c887077ba740956740059568c0375020320324b4826740058268480582695005826a58057b6af8047b69f0047b68e8047b67e004826780017b671805826788017b671005826790017b67080595672005956800059569e004826a98017b6a0005502034036860956c000582c7207b67980182c7287b67900150223603ab810082c8307b68b00150223803b1840082cb387b6bb801956b983195bc00067bc8607bca587bc9507bc7489567c0049568e03750203a0382b38267c0048268c8048269d004826ad8047b6a78047b6970047b6868047b6760048267b8017b6798048267b0017b679004826790017b6788049567a0049568800495696004826a98017b6a800450203c03c65f8267b804956800017b87b8008267b0047b87b0008267a8047b87a8008267a0047b87a0009567400433084050203e03d3b0956b000482b75882b85082b94882ba4050224003c3800051070628d11b956900018297a000956b00047bb7208297a8007bb7288297b0007bb730956820048297b8007bb73864a77b6ab80150204203bcb13308208267b80133000c0528f0b5956798394927c0024927b8024927b0024927a80295670040837740fc330044030a113302460328f7840050224603f3840050224803b6840051070628b02c8267b80181775617630728b02c9567601933004a033302b806289a8600956858198287087b67b8018287107b67b0018087187b6798019567401933004c033302bc0628ec8500956758198277e87b67a0019567201950204e03ba4c95695811959a000782a7c800956b00017bb7a8004929c00782b798007ba7b80082b7b0007ba7b0009568001982b7b8007ba7a800330750205003d9b0956858114928a00749289807492888070464893307209568e0184929900750205203b5b03308800102390780010256173f0b200380010240019517e08479e07b69980164913307900102837783997b68b8013308407b67b001330054030a0901826a980182a71882a81082a90882aa6f777b679801502256031c82004929800749297807492970079568c0188267a0017b9768073307502058033db082678001956858119589000750225a033a87009568a018826998017ba9480750205c0318b08268b801818756173f08480840019517e08477e07b67a00150225e032c7c330060030a0901826aa00182a71882a81082a90882aa6f777b679801502262031e7e7b67a00164718267a80197772098772095695811492940074929380749293007956880187b972807330750206403a8af8267800195685811958900077b9720826788017b9718826790017b9710648a33072095686018826998017ba908075020660374af8268b801818755174008480840019517e08477e07b67b80150226803887b33006a030a09826ab80133026c0328dc8000826ab80150226c03d480009567401850206e0321b0956758118277e8067b67b8019567201833084050207003dcad956958118292e00695980006828cd800828bd0008287c800d42b0ad4c708d4a808988820d4ca0a97aa20d4a80851080628c4187c68b8018e8a4929c0064929b8064929b006956800187b9aa8067b67b0017b6ba8017b6298017b6ca00150207203b3ae956b000182baa80082b9b00082b7a00082b89800d47808140b00000000010000001407e0ffffff00000000d8790794a79487520706285c187b68a0018268b801848700ff008e78839720956958114929a006492998067b9888069568e017492990067b6b98015020740347ae956a000182a9b00082a798009577c0d8790782a8a800948782a8a00094875207062804188268b80184870000ff008e78839740956a5811492a8006492a78067ba868069568c017492a700650207603f6ad3308608267b001502078032eb2837833096033070a0e28492b9567201433084050207a0396ac95685811828ae0027b6ab8018289d8027b69b001828bd0027b6ba801828cc8027b6ca001826728017b878002826730017b877802826738017b877002826740017b876802958700027b7aa0007b7998007b7b9000648a956700149568e0139569c0137bac880250207c030b4f50227e03d57f51070628391764a295685811958c000282c7b00082cac0007b6a98018283a80282cab80028a1009567803033084050208003f0ab956a982982a900077b69b80182a8f8067b68b00182abf0067b6ba80182ace8067b6ca001826770017ba7a006826778017ba79806826780017ba79006826788017ba788067ba9c0067ba8b8067babb0069567603095684030956920307baca806502082036b4e50228403357f51070628991664a295689829958c000682c7d00082cae0007b6a98018283c80682cad80001d3b704d8b70cd89300da400cc92a08c9c804d8c8087b689001d82a0a826cb80182689801c9c80cc9ac0c82689001c98c0cc9b707c90707c99308d4c707d4480ad47a0ad4470798aa20977720d4a70751070628251664977b68b801330086032879b07b68b8015020860372b083788169b80133070a0e288c295022880343800082628801db270a7b6ab8018267800182695001d4970782693801dab907826c700164cadb270a50228a03c67d50208c030e83007b6750017b68380182677801826868018269b00150208e03f3820050229003a57e502092030c8300502294033a7f82696801dba8097b69680182683001d4870782685001dab80782687801dba70864a97b687801826770018268600150209603ab820050229803137c8263680182647801017b6b780198493f973a01d49a02974a01826bb80198bb3fd4ba0a7b6a68018269480164847b627001d329086430d82903826b5001d8ab02db8302974801987a3fd4a8087b686001980a3f977701d47a0a8267b801977701826b800198b83fd4870097b801826b880198b33fd4380397b801826ba80198b43fd4480897bb0182677801d47b0b7b6ba801d4c8087b688801d43c087b688001d40c077b67b801c9a907d82707d8a90882626001c9290bc98b0bc97b0b99bc3f82675801d2c70782686801c97804d8780882677001c987039478c98a07d88a08c9820850229a032d8000d89b02c99b0988ab01c9b000826b9801c92b0b95aaff7b60a0017b6b9801d4b0027b6ab001d49a0bd42b0a84cb017b699001330c520aebfe8267a801977701d47b0b017b6b98019567a02b33084050209c0305a995689829958c000282c7207b67a80182c9187b69a00182ca107b6ab00182cb087b6bb8017bc7958c00017bc9f8007bcaf0009567802b7bcbe80033009e0333023a07289d77956b000182b9b80082b7a80082b8b000d4870782baa000d4a908d47808988820d4a707977720d4870751070628ac1382671001956a982995ab00017bb7c800826718017bb7d000826720017bb7d8009568602b826728017bb7e00064975020a00397a98267e0000a0501956a000182abb80082a7a80082a9a000d479091407e0ffffff00000000d87b0782a8b000948794975207062843137b6960018269f80082970881981082996f77977a206f88988820d48a0a9877206f98978920d4790998882083b720956b9829492bc00195bc00017bc8b8007bc9b0009568402b7bcaa8007b6758015020a2030ea98267d000956a982995ab00017bb78000826708017bb778826700017bb7709567202b9568002b8269d8007bb9685020a4034d589567982995790001829888007b688001829890007b687801829898007b6870018298a0007b6868019567e02a3308405020a6036ca795679829827a60017b6aa801827858017b68a001827c50017b6c9001827b48017b6b8801826968017b792001826970017b791801826978017b791001826980017b790801957900017b9a407b98387b9c3064799567c02a9568a02a7b9b28015020a803715095690001829890008297a800d4870782988800648c829ba000d4b808d47808988820d4b707977720d4870751070628f111956798298268d8007b78e800826800017b78f000826808017b78f8009568802a826bd0007b7b000164c75020aa03e0a78267a801826aa001d4a707140be0ffffff00000000826c8801d8bc0882699001949894785208062897118268d80083877b67b000816740017b67a80083c7207b6b80015020ac03dcab83778268b0008269a8000a0201826b90018262d80082678801c87202d8720882690001c8b909c88909d3b90ad8b90bdaa80b826808018267a001c87808d8780a826ca8018267d000c87c0cc8ca0ac88b0bd88b08c8a808d4b80882678001d8720a949a948a520a06280d11832720956998294929e0004929d8004929d0009568602a4929c8005020ae030ba7140a00000000010000001407c0ffffff00000000956b000182b8b800d8780782b9b000949782b960949752070628bc10838740956898297b6a8001648a826888017ba8a800826890017ba8b0008268a0017ba8b8009568402a8269a8017ba9c0007b67a8015020b003a0a6956b000182ba6082b9b00082b8b80082b780009577a0d87807949794a7520706285e10838760956b9829492ba000492b9800492b90009568202a826998017bb988007b6788005020b20354a6956a000182a8b800140780ffffff00000000d8780782a9b000949782a9609497520706280f108387800095699829492980004919784919709568002a4919687b67405020b4030ca68267e0003300b6030a058269f8003302b8032833728269f8005022b8032c724919607b98587b97509568e0297b9a4833075020ba03d5a53302bc0395689829014918404918384918280264893307209568c0294919305020be03b0a58268c800818756173f0848084001140800000000ffffffff7b6898001407ffffffff000000007b6790005022c0035f7a3300c2030a093302c40328a2755022c4039f755022c60309789517e08477e07b67b001647195699829826728017b9720826720017b9718826718017b97109568a029826710017b970833075020c8032fa53302ca039568982901956b000182b788007b8782b790007b87f882b798007b87f0648a3307209568802982b9a0007ba9e85020cc03f8a48268c800818756173f08480840019517e08477e07b67a001647183793308408267c0000a09826aa00182a71882a81082a90882aa6f7c7b6c686f8b7b6b706f987b6880006fa77b67788269b0017b97187b98107b9b087b9c956760298268b8015020ce0358a3956778218277e80782689000d287077b67b801956740298268b0015020d00363a5956a782195ab000782b7d00082b8d80082b9e00082bac8008477ff8488ff8499ff826b9800d2ba0a826bb801d4ba0a956b983995bc00057bc9407bc8387bc7307bca289568c03e8267b0015020d2038aa595672029826858015020d403d8a295677821957900078298b8007b68b8018298b0007b68a0018298a8007b689801956700298268b0015020d603d6a4956878218287a00780888807826c980198c920826ba00197ba20d4a90998ba20826bb80197bb20d4ba0a97cb20d4b808956b983995bc00057bca587bc9507bc7607bc8489568e03e8267b0015020d803fca49517e08478e06481826968959901889701826a70c87a0ad4a907887701826c8000c87c0bd8cb07826c78c8c7077b6768017b87187b6b58017b8b107b6a60017b8a087b68587b6970017b899567e0288268a8015020da03ffa13302dc039568782101958b000782b9800082ba7882b77082b868956b00017bb7507bb948d49707d4a809d479099899207bba40d4a707977720d4970751070628d80c9567c0287b6838015020de03afa1956c782195c70007827a608279588278508ea78e9bdba70b7b68608e877b69507b6a48d4a9097b67287b6b307b693001db9b0764c9510706281a20829748077b67a0009567a0288268585020e0038ba3956b782195bc000782c92882c73082c83882ca407bca95ba00067ba8f8007ba7f00095678028956860287ba9e8005020e20363489567782195780007828a20828b18828c108289088ea78eb8dba7088ec77b6998018899208599017b6ca001dbc7097b6aa8017b6bb001d4ab07db78098267a0008877207b67385109fe0b95677821956a000182a870957b00067bb8c80082a8607bb8d00082a8587bb8d8009568402882a9687bb9e00033075020e403e7a18267c800817756171f0c8268c800480820019517e08477e07b678001647183793308208267c0000a098267a00095781fd87807826c60c87c09d8c90ada770a826b50c8ba0a7b6a780197aa3b989b05d4ab0b8267800182731897993b827a10988805d498076f346fa982683894c8826a300194a8948b9487c87402d84207c8790cc8cb0b7b6bb801d39b0cd89b0adac70a7b6a208267980195701fd8700b826aa001c8ba07d8a70cdabb0c8263b001c8c303973b3b987a05d4ba0a97773b980b05d4b707c847077b679001d847076424c8790bc8ab0bd39b0a7b6b8801d89b09daa709826b7801826750d87b07826a48c8a70798ba05977b3bd4ba0a826b800182b282bb08987705948a94876fb86f2bc8b707c88a0ad88a0cc8c707826020c8a000d8a00ac8a7028267b001d87307826aa801c8a707983a05977c3bd4ca0a987705c8b707956c000182cbb800c88a0ad88a08c88707c8a9097bc98000d8a908c887077bc7789517e08477e07bc7b00064710182679001d8740782698801d39b08d89b09da8709826c8001d8c007826a7801d3a208d8a20ada870ad3c007d48707da790a7b64a8018267b0017b747b6bb8017b7b087b6098017b70107b62a0017b7218510a030a95679839492780054927780549277005492768059568003f8267b0015020e60368a18264a801954401884701826bb801c87b0bd4b40788770182689801c88707d887088262a001c8820264702860ff5022e803f47382628801db270a7b6ab8018267800182695001d4970782693801dab907826c700164cadb270a5022ea0378715020ec03c0767b6750017b68380182676801826878018269b0015020ee03a6765022f00359725020f203c0765022f403ef7282697801dba8097b69780182683001d4870782685001dab80782686801dba70864a97b68680182677001826860015020f60360765022f803c96f8263780182646801017b6b780198493f973a01d49a02974a01826bb80198bb3fd4ba0a7b6a68018269480164847b627001d329086430d82903826b5001d8ab02db8302974801987a3fd4a8087b686001980a3f977701d47a0a8267b801977701826b800198b83fd4870097b801826b880198b33fd4380397b801826ba80198b43fd4480897bb0182677801d47b0b7b6ba801d4c8087b688801d43c087b688001d40c077b67b801c9a907d82707d8a90882626001c9290bc98b0bc97b0b99bc3f82675801d2c70782686801c97804d8780882677001c987039478c98a07d88a08c982085022fa03e373d89b02c99b0988ab01c9b000826b9801c92b0b95aaff7b60a0017b6b9801d4b0027b6ab001d49a0bd42b0a84cb017b699001330c520aecfe8267a801977701d47b0b0184b7ff82684001aa780628541933079001037b67700183777b6768013300fc030a053302fe0328d9685022fe03d66849290002959b00017bb8f8007bb7f000956840137bbae800330750200004b89d956858114928e0014928d8014928c801016489330720956820134929d00150200204949d9517e08477e07b67480164713308800102390780010256173f112003800102403302040428f76b50220404f46b3307900102837783997b68a8013308407b67b001330006040a093302080428017350220804fe726f986fa9826748017b69a0017b79187b68b8017b78107b6b98017b7b087b6c90017b7c8267680133000a040a0533020c0428076850220c0404684929c001959b00017bb8b8007bb7b000956800137bbaa800330750200e04e69c956858114928a00149289801492888010364893307209568e0124929900150201004c29c8268a801818756173f0848084001140800000000ffffffff7b6850011407ffffffff000000007b6758019517e08477e07b67880150221204ba68330014040a09826a880133021604280569826a880150221604fe6895bc00017bca607bc9587bc8507bc7489567c0129568e03a50201804419d4926300149263801330c9567581180776801956a00017ba76082a8900095880188870182a99800c897077ba8287ba720d4870788770182a8b800c887077ba718d8870782a8a000c887077ba710330b0101330893c882676001d8b7073309dac7093307db780952092405492698017b6bb8018267680133001a040a0533021c0428c76650221c04c46649296001959b00017bb8587bb7509568a0127bba48330750201e04a99b95675811492740014927380149273001647a33072095688012492a28010250202004859b8268a801818756173f08480840019517e08477e07b67a001502222049967330024040a0933022604281868502226041568959a00017ba7207ba7187ba710956860128267b8017ba708330750202804349b82677801956858117b870001826780017b87f800826788017b87f000648a33072095684012826990017ba9e80050202a04019b8268a801818756173f08480840019517e08477e07b67900150222c04156733002e040a09826a90013302300428d068826a900150223004c968826ba0017bba187bb9107bb8087bb7957b02d87b07c8780cd88c08da7708c89808d89807c8a70795699839959a00017bab687bac707ba8787ba78000956720129568003b50203204709b33023404956a58110182a7d0008477ff005107178268580101330c8267b801957701d2870b285bfe956700128268a001502036043a9b33023804956a58110182a7b00082a8b80082a9a8008477ff8488ff826b5001d2b909d49808d487075107b68267680133003a040a0533023c0428076550223c0404654929a0007b9898007b9790009568e0117b9a8800330750203e04ea999567581149278000491778491770647a3307209568c011491a680450204004c9998268a801818756173f08480840019517e08477e07b67a00150224204dd65330044040a0901826aa00182a71882a81082a90882aa6f777b67a00150224604476b4919604919584919509568a011826740017b97483307502048046d9982678001956858117b8740826788017b8738826790017b8730648a330720956880118269a0017ba92850204a043e998268a801818756173f08480840019517e08477e07b67a00150224c04526533004e040a093302500428d16550225004ce657b97207b97187b9710956860118267b8017b9708330750205204f19882677801956858117b87826780017b87f8826788017b87f0648a33072095684011826990017ba9e850205404c3988268a801818756173f08480840019517e08477e07b67980150225604d764330058040a09826a980133025a04282b6a826a980150225a04246a9567201150205c0472999567ff07957739017c77e80752070afe956700118268480150205e0454999568ff07958839018287e0078283d8078289d0078282c8073a08a800028e7c8e3bdb7c0bd828088e9cda980cd47308db8b0c520c1995690001829730957701829858d287077b973028b5fd9518e08488e064813a0bb00002c82b0bd82b0cc8c90a95aaffd39a02d89a09da2c09953cffc8c909d8c902883c01c9c707c827077b8a087b8b7b89107b8718826748015020600438999517e08478e06481956900018297107b87188297187b87108297207b87088297287b879567e0107b989800502062048f989567ff07957739018272c0078273b8078279b007827ba8079518e08488e064813a0ca00002c8cb04d8b407c8790ad89a0cda770cc83c0cd83c077b8c103a0cb80002c827077b8a087b84d8bc0a959901949ad22309959901949a7b8718520aca0c82679801502064049c989567c0108268a001502066041698956aff0795aa390195ab000782b7880082b8900082b9a00082ba9800847700ff867701956b983995bc00017bc9a0007bca98007bc890007bc788009568203b8267a00150206804459895690001829738957701829858d287077b97382863fc9567601033084050206a047e959569ff07959939018292400795970007827c38827b30827a28d42b07d4ca08d47808988820d4c707977720d487075207688267380182685801d28707492920074929180749291007956840107b97080764a77b6ab8017b6ba8017b6298017b6ca00150206c045096956b000182b9b80082b7a00082b89800d487071408e0ffffff00000000d8890882baa80094a8947851080628cd1100826738857701826860826928db890782683082693001db9807510755028267a0008477e07b6730019567782182687001957a00067ba88800826860017ba89000826858017ba8980095680028826968017ba9a000330750206e04c5959517e08477e07b6790016471330820330750207004f3999518e08488e07b6888016481837783893308200a094926b80120330c4926b0014926a801492698014926a001826a880182a71882a81082a90882aa6f736f846f903309826b98016fa7330a6472826890017b87187b6088017b80107b84087b83017b628001826730017b6b9801d87b07857b017b6a700194ab017b6978018267a001d49707947b01826838018267b801c87808826a5001c8ca0a826940018267b001c879098267480164c0826ca801c8c707520b7601826bb801d8b80bc8ba0ad30a027b605801d80a0cda2b0cc89c0cd89c02826bb001d8b909c89707c82707d4c809d4a707d47909989920d4c707977720d497077b6368017b64600152078ffe95676025502072046993956a782182a7000495ab000382b8f80082b9f00082bae800956b983995bc00057bc7a0007bc898007bc990007bca88009568203f8267900150207404cf958263680195330188370182646001c87404d4430788770182688801c87800d8800882678001c887078268b8019589207b698001d8890a82685801c8a8097b696801d8890bdaaa0b8268b001c8b80ad88a0b8268a801c8b8087b68a80182689801958b20d88b0c82697001c8c908d89809dacc09826c7801c8c909d8c90c8262a001c8c2027b62a001826c90017bc4087bc37bc01064727bc7187b608801826780017b67b801826c68017b6ab001648a2869fe8267a000826850d48707826860826948d49808d487075207bc014926a001492698014926a8014926b001280e028264b0018263b801826ba000826c3001d3cb0b826c50d4cb02826c60826b48d4bc0cd4c20b510b3301d8380bc8ba0ad30a02d80a0cda2b0cc89c0cd89c0bd84909c89707c8b707d4c809d4a707d47909989920d4c707977720d49707520708fd9567e02750207604e2919567782195790006829880007b68b0018298787b68a8018298707b68a0018297687b6798018267a00097773b9878387b68b8019a8980003307ff3308ff50207804266a7b6788017b6870013307ff3308ff8269b80150207a04e8697b6778017b68800182677001d487077b6770018267b8019579803307ff3308ff50207c04c269826bb80188b98000826a7001db9a08826c7801826a8801d4ca0ada970a93b8ff93baff826b8001939b939c82679801e0a7078269a001e089088269a801e0c909826ab001e0ba0a956b983995bc00057bcac0007bc9b8007bc8b0007bc7a8009568403f8267900150207e04989382695098973f826848978801d48707826a6098a83f979901d49808826ba00098b93f97aa01d4a90997ba0195aa01956b983995bc00057bcac8007bc9d0007bc8d8007bc7e0003307603f287f01956a000182a74882a840d487071408e0ffffff0000000082a938d8890882a9509498947851089bfb8267380183782095672028502080046e9095677821957900068298c000956a00017ba8b0008298b8007ba8a8008298b0007ba898008297a8007ba7a0000182696098973f826a5097a801d487077b67900198a73f826848978801d487077b678801826aa00098a73f979801d487077b67800197a7017b67780197a8037b68b8018d8980003307ff3308ff5020820476687b6758017b6870018267a0008a79033307ff3308ff5020840435687b6768017b68600182685801d487077b6758018267b8018379803307ff3308ff502086040f68826bb80188b98000826a5801db9a07826c6001826a7001d4ca0ada980a93b7ff93baff939c826b6801939b82689801e0a8088269a001e079078269a801e0b909826ab001e0ca0a956c000182cb78d4b70782cb8000d4b80882cb8800d4ba0a82cb9000d4b909956b983995bc00057bc9f8007bba00067bc8f0007bc7e8003307803f01c8760882675850208804c3919517e0847ce064c1826868958702d88708826a7050228a04ad5f82688000c88a0ad88a08826b78c8b8087b6cb8017bca107bc9087bc77bc8189567c0278268880050208c04d88e95677821827748068477ff7b67b0019567a0278268b80150208e04e79095697821959a000682a74082a83882a930956a9839826bb00195ac00067bcb087bc7207bc8187bc9109568a03f8267b8015020900428919567802782684050209204778e956a782195ab000682b72082b81082b91882ba08d48707d4a909d497078e777b67b001956760278268b801502094047290956a782195ab000582b7f00082b8e80082a9000682baf800847700ff826bb001d4b707956b983995bc00067bc9407bca387bc8287bc7309568c03f8267b80150209604a5908267e000330098040a058269f80033029a0428f8598269f80050229a04f1594929e005959b00057bb8d8007bb7d000956840277bbac800330750209c04fc8e33029e0495687821014928c0054928b8054928a805016489330720956820274929b0055020a004d38e9517e08477e07b67b80164718267c800817756173f128268c8004808403302a204288b635022a20488633300a4040a09826ab0013302a60428c059826ab0015022a604b9598268b8017b8b7b8c087b89107b8718956700275020a804678f3302aa0495697821018297880582689000d2870749296005492958057b9748059567e0269568c026492950055020ac0480589567782195790005829880007b68b0018298787b68a8018298707b68a0018298687b6898019567a0268268b8015020ae04028f956a782195ab000582b74082b83882b93082ba288477ff8488ff8499ff826b9800d2ba0a826b9801d4ba0a826ba001d4b909826ba801d4b808826bb001d4b707956b983995bc00067bc7607bc8587bc9507bca489568e03f8267b8015020b004188f956780263308405020b204678c9568782101958b000582b72082b91882ba1082b808956b00017bb7a0007bbab000d4a7077bb8b800d49808d478089888207bb9a800d49707977720d48707520741f73302b4049569782101492900054929f8044929f004956860264929e804208267b8015020b604378d956a000182a7a80082a8a000d487095022b804ac637ba9900094975107faf68267b801837720956978218268d800959b00047bb8c800826800017bb8d000826808017bb8d80095684026826ad0007bbae0005020ba04df8c826798019577dc8268e800d878078268f00094878268b80094875107a3f61408c0ffffff00000000956900018297b8007b989800d887078298b000948782989000948751077af68267b8018377408268b0005020bc04cc9083778268b0008269a8003300be040a02018268d8008267b801c88707d88708826b00018269b001c8b9095022c004b15f8268d000826aa001c8a808826c0801826aa801c8ca0ad8ca0cc8c808c8ab0bd8ab0ac8a808d4b808826a9801d8a70a949a948a510a02f6837740956978214929c0044929b8044929b004956820264929a8045020c204ff8b8267e0003300c4040a058269f8003302c60428b4578269f8005022c604ad57d4780298aa206f98978920d4a9039884208268d80095881f8488e0009588403a0b2000023a0c2800023a073000023a09380002956a78217baba00495ab00047bbc98007bb790007bb98800956c000182c7287bb76082c7207bb75882c7187bb75082c7107bb7487ba478047ba370047ba2680464a795690026956ae025956bc0254927800482c7b8005020c804d08d9567a0253308405020ca040a8a956a782195ac000482c74082c83882c93082cb285022cc04345d520708f564ba95677821956b000182b810957c00047bc80882b8187bc81082b8207bc8189568802582b9287bc92064a77b6ab8013300420328ec8a956798294927d8044927d0044927c80464793302ce04140700000000717b484e019568602e7b97e00433075020d004be8a3302d20495689829014928c0044928b8044928a8041164893307049568402e4929b0045020d404958a82679801817756173f0c8268980148084001330701330924826890010a0e019567ff079577390149277807492770074927680764793302d604140700000000717b484e019568a0107b97800733075020d804418a9568ff079588390149286007492858074928480711648933070495688010492950075020da04198a8267a801817756173f0c8268a801480840013307013309248268b0010a0e013308900102838833070128f20d3308900102838833070128e50d3308900102838833070128d80d3308900102838833070128cb0d3308900102838833070128be0d3308900102838833070128b10d3308900102838833070128a40d3308900102838833070128970d3302dc0495697821014929780349297003140700000000969ee20b7b9780039568e0244929680333075020de046389390880010256181f12200380010220330890010228ec04330890010228e4043302e004956978210149299803492990031407000000003bc167cc7b97a003956800254929880333075020e2041589390880010256181f122003800102203308900102289e0433089001022896043308900102838833070128ee0c956998294929580349295003140700000000c611522c7b9760039568e02c4929480333075020e404bf88390880010256181f12200380010220330890010228480433089001022840043308900102838833070128980c33089001028388330701288b0c33089001028388330701287e0c3308900102838833070128710c3308900102838833070128640c3308900102838833070128570c33089001028388330701284a0c33089001028388330701283d0c3308900102838833070128300c3308900102838833070128230c3308900102838833070128160c3308900102838833070128090c3308900102838833070128fc0b3308900102838833070128ef0b3308900102838833070128e20b3308900102838833070128d50b3308900102838833070128c80b4926f0054926e8054926e005140700000000c611522c9568e0057b67f80533075020e6049d87390880010256181f1220038001022033089001022826033308900102281e03492610064926080649260006140700000000b878d6f4956800067b67180633073300f0042854874926b0064926a8064926a00614070000000018ecb8909568a0067b67b80633073300f004282d8752476eeb149cb003956798394927a00349279803492790034927880395670040837720fd3300e8040a113302ea04286c5d5022ea04695d5022ec04c65c5107ca043308900102838833070128e70a3308900102838833070128da0a3308900102838833070128cd0a3308900102838833070128c00a3308900102838833070128b30a3308900102838833070128a60a3308900102838833070128990a33089001028388330701288c0a33089001028388330701287f0a3308900102838833070128720a3308900102838833070128650a4926b0074926a8074926a007140700000000c611522c9568a0077b67b80733075020ee043a86390880010256181f12200380010220330890010228c301330890010228bb014926d0074926c8074926c007140700000000b878d6f49568c0077b67d80733073300f00428f18595670010492770f895670010492768f895670010492760f814070000000018ecb8909568ff07958861956900107b9778f833075020f004bb8582676001817756171f0c8268600148082001330701330904826868010a0e0133089001028388330701289409330890010283883307012887093302f2049569581901491938491930140700000000c611522c7b97409568801949192833075020f4045785390880010256181f12200380010220330890010228e000330890010228d800491b58491b50140700000000b878d6f47bb7609568a019491b4833075020f604168582676801817756171f0c8268680148082001330701330904826878010a0e013308900102838833070128ef083308900102838833070128e2083308900102838833070128d5083308900102838833070128c8083308900102838833070128bb083308900102838833070128ae08956958114929180249291002140700000000635bb2d57b972002956860134929080233075020f8047f84390880010256181f112003800102203308900102280833089001020183883307013309040a0e018267300182685801d27808839720956aff0795aa3901492a0007492af8067ba8e80695682010492af0065020fa042884826768013300fc040a05826970013302fe0428dd4f826970015022fe04d64fd4780298aa206f99979820d4a8039899203a0ac000023a0bc800023a0cd00002826740019568ff07958839017b878806958700067b7ae0007b7bd8007b7cd0003a0ad800024928a00649289806492890067b7ac8007b79b8007b83b0067b82a806648733084095690010956aff0795aae107956bff0795bbc1074927c0068267b8013300000628fc855247275914a04d956798394927c0034927b8034927b0034927a80395670040837740fd330000050a113302020528bd5950220205ba59502204058356510733013308900102838833070128380752473a6750b63a019567983949274004492738044927300449272804956700408377c0fd330006050a1101956a983995ab000450220805c65951075e013308900102838833070128ee06492678010182678801977701826b7801d47b0b014926f8034926f0034926e8039568e0037b6be0038267380150200a05b7823308208267380150200c05ef86837833092033070a0e280a33092033070a0e014929d8034929d0034929c803140700000000717b484e956840257b97e003330750200e0571823302100595687821014928c0034928b8034928a803416489330704956820254929b0035020120548828267c800817756173f0c8268c800480840013307013309248268c0000a0e018267b80181775617639e00330890010283883307012816068267b80181775617438c013308900102838833070128fe0552474a45080e8e059567983149272005492718054927100549270805956700308377a006330014050a113302160528fc5750221605f95782b71882b82082b91082ba08d49808d4a707d487075107be053308900102838833070128a10550221805b753ac78b80533089001028388330701288a059567801e33001a053302b80628bc5695685819958900058297287b67b8018297307b67b0018297387b67a8018297407b67a0019567601e33001c053302bc0628045695685819958900058297087b6798018297107b6790018297187b6788018297207b6780019567401e50201e05ba1c956b581995bc000482c7e80082c8f00082c9f80082ba00057bcaa0007bc998007bc890007bc78800956b000182b780007bc7c00082b788007bc7b80082b790007bc7b00082b798007bc7a80082b7a0007bc7e00082b7a8007bc7d80082b7b0007bc7d0009567201e9568001e9569e01d82bab8007bcac80050202005053c3308900102838833073309330070050a0e33027205289d5295670022330022053302d40628b65595677821827788007b67b0019567e021330024053302bc06281655956778218277687b67100133079001037b67280183777b672001330026050a05826928013302280528fc4a8269280150222805f54a4919607b98587b97509568c0217b9a48330750202a050880956878214918404918384918280264893307209568a02149193050202c05e87fff33078001027b673801390780010233083fac78118268380148084033022e05284f4e50222e054c4e3307900102837783993308407b673001330030050a09826ab8013302320528c24e826ab80150223205bb4e7b67b80164718267b00197772098792095677821491720491718491710956880217b6918017b7908330750203405647fff82679001956878217b87826798017b87f88267a0017b87f0648a330720956860218269a8017ba9e850203605357fff82673801817756173f12826738014807403302380528c34b50223805c04b33003a050a0933023c0528384f50223c05354f50223e05ef5282672001330040050a058269280133024205281754826928015022420510547b68b0019877206f987b68a801978820d487077b67a001956740218268b80150204405ab7fff95695819018297f0078098ec078299f807977a20d4a808979a20987720d4a707956b000182baa000d3a70782bab000d3a80882baa800d3a909989920d49808d487075207790695670040837760fd0a0a01956798398272e003827bd8037b6b78018274d003827ac8037b6a6001682768b8958940db2709684768a8958840db470895878000d42b0adaa709d8870c94ac8ecb8897f000857a01daca0b88b7019570ff9ab39accc9ac0a9a99ef008e3c8e07da0c07889c000185cc018ea8dba80cdbb70c7b6458017b627001d42407826b600182687801d4b808d48707887701d4c70764b894787b68b80152071d068597ff00d43707d40a08d4870751070c0650224605b14a50204805d45450224a05eb5350204c05ee5450224e05465250205005e2547b6740017b68080182698001889780007b670001826760018268580150205205c054502254055b5382ba93a77bb798005108990564a98267880182684801d4870764ac8268080150225605294950205805695450225a05965350205c055d547b67080150225e05c15150206005735450226205234e8268080150226405424f50206605375450226805a54b50226a05bc4dd89002826b4801d8ab0cdb320c50226c05ce4dd4870297b801826b900198b33fd4380397b801826b980198b43fd4480897bb0182677801d47b0b7b6b980182677001d478087b689001d437087b688001d4270750226e050348d89b02c99b0988ab01c9bc0c827ba800c92b0b95aaff7b7cb0007b7ba800d4bc027b7ab800d49a0bd42b0a840b017b7b787b79a00049267001520a68ff28a7045247ce3c12454d956798394927800049177849177049176895670040837700fa0a1101956a983982a77882a8800082a97082aa68d49808d4a707d487075107170633089001028388330701282233089001028388330701281683883307013309330070050a0e33027205281c4e3309330070050a0e33027205280d4e502272050a4eac78e505330890010228ce9567c024330074053302d40628155195677821827748037b67900133079001037b67a80183777b67a001330076050a058269a801330278052875468269a801502278056e4649294003959b00037bb8387bb7309568a0247bba28330750207a057c7bff33027c059568782101492820034928180349280803026489330720956880244929100350207e05527bff33078001027b67b801390780010256173f0c8268b801480840019517e08479e07b69980164913307900102837783993308407b67b001330080050a09826a98013302820528034a826a980150228205fc497b67980164718267900197772098792095677821492700034927f8024927f002956860247b6990017b79e802330750208405cc7aff8267700195687821958900027b97e000826778017b97d800826780017b97d000648a33072095684024826988017ba9c80250208605947aff8267b801817756173f0c8267b801480740019517e08477e07b67880150228805a34633008a050a09826a880133028c05285e48826a880150228c055748826b98017bba187bb9107bb8087bb78267a00133008e050a058269a8013302900528614f8269a801502290055a4f7b6888019877206f987b688001978820d487077b677801956720248268980150209205f57aff95697821018297b0028098ac028299b802977a20d4a808979a20987720d4a707956b000182ba78d3a70782ba8800d3a80882ba8000d3a909989920d49808d487075207d6048267a001330094050a058269a80133029605287a448269a80150229605734449298002959b00027bb8787bb7709568e0237bba683307502098058179ff33029a0595687821014928600249285802492848020264893307209568c0234929500250209c055779ff8267b801817756173f0c8268b801480840019517e08477e07b67980150229e0566453300a0050a0901826a980182a71882a81082a90882aa6f777b6798015022a205554d3302a40595697821014929400249293802492930029568a023826790017b97280233075020a605e978ff8267780195687821958900027b9720826780017b9718826788017b9710648a33072095688023826998017ba908025020a805b478ff8267b801817756173f0c8267b801480740019517e08477e07b6798015022aa05c3440a09826a980182a782a80882a91082aa186f726f876f996faa951be084b8e0648195ab02d8ab0ac8a90cd89c09daaa09c87909d87907c827077b8c087b8b7b89107b8718956760237b6898015020ac053179ff956778218277f0018478ff005108a6033302ae0595697821014929d8014929d001140700000000c884c1c17b97e001956840234929c80133073300e20528fb77ff3302b00595695819014929d8074929d007140700000000dbf71c6f7b97e007956820214929c80733073300620628ca77ff49267801019569000182979800977701829878d487077b97b80001826710018268b801ab873d05826720013300b2050a05826928013302b40528f543826928015022b405ee434929a007959b00077bb898007bb790009568e0207bba880033075020b6056677ff3302b80595685819014928800749287807492868070264893307209568c020492970075020ba053c77ff82673801817756173f12826838014808403302bc0528ca435022bc05c7433300be050a093302c0052823455022c00520454929600749295807492950079568a020826718017b97480733075020c205ea76ff8267980195685819958900077b97408267a0017b97388267a8017b9730648a330720956880208269b0017ba928075020c405b576ff82673801817756173f12826738014807403302c6052843435022c60540433300c8050a09826ab0013302ca0528e244826ab0015022ca05db4495689839958a00037babe8007bacf0007ba9f8007b870004956760209568803d5020cc054777ff956758197c771007510711043302ce0595695819014929f8064929f0061407000000006d53a9a77b970007956840204929e806330733006206281576ff8267b80181775617630a06330890010228f5f9956740023300d0053302b806283b4b826740028268480280695002492638027b6930027b682802956820027b67200233075020d205cd75ff4926180249261002492600020333072095680002492608025020d405ae75ff33078001027b67b801390780010233083fac78118268b8014808403302d60528134b5022d605104b33079001027b67b001837783993308403300d8050a09826aa8013302da05286243826aa8015022da055b43956b983195bc00057bca407bc9387bc8307bc7289567e0019568c0365020dc052a76ff8067e0014926d8014926d0017b67c001330780009568c0014926c8015020de051575ff8267b801817756279f00188268b8014808a0008267b00183788000285af28267b00183788000284ff23302e00595697821014929980249299002140700000000dbf71c6f7b97a002956800244929880233075020e205bc74ff8267b801817756171f1a8268b8014808203307013309048268b0010a0e28a4ea3307013309048268b0010a0e2895ea1408ffffffff000000007b688801956a782182a8e80182a9f80182aa0002867701956b983995bc00047bc8487bc9587bc7507bca609568e03d826798015020e405b375ff8267a0013300e6050a058269a8013302e80528053f8269a8015022e805fe3e4929c001959b00017bb8b8007bb7b000956820237bbaa80033075020ea050974ff3302ec0595687821014928a001492898014928880101648933072095680023492990015020ee05df73ff9517e08477e07b67980164718267b801817756173f0c8268b801480840019517e08477e07b6780015022f005e23f3300f2050a09826a80013302f40528c73e826a80015022f405c03e826898017b8b7b8c087b89107b87189567e0225020f6056e74ff956778218277680182688801d278085108fd0582688801c88707d287077b67b8019567c022826898015020f8053e74ff956a782180a74c0197772095ab000182b86082b95882ba50826bb801d4b707956b983995bc00047bc880007bc9787bca707bc7689568003e826798015020fa057374ff8267a0013300fc050a058269a8013302fe0528bd3e8269a8015022fe05b63ed4780298aa206f99979820d4a808989920826a9001956778217b7ae8003a0a4000023a0b4800023a0c5000027b7a40017b7b380149270001957b00017bbc303a0a5800024927f8004927f000492720017bba287bb9187bb8109569a022956a8022956b60227b7208013307330850200006f574ff33078268b0012871f63302020695695819014929b8074929b007140700000000635bb2d57b97c007956800214929a807330733006206283972ff82672001330004060a058269280133020606288b3e8269280150220606843e4929e006959b00067bb8d8007bb7d000956820207bbac800330750200806fc71ff33020a0695685819014928c0064928b8064928a806046489330720956800204929b00650200c06d271ff82673801817756173f128268380148084033020e0628603e50220e065d3e330010060a093302120628b93f50221206b63f4929a00649299806492990069568e01f8267b8017b9788063307502014068071ff8267980195685819958900067b9780008267a0017b97788267a8017b9770648a3307209568c01f8269b0017ba96806502016064a71ff82673801817756173f12826738014807403302180628d83d50221806d53d33001a060a09826ab00133021c06283e40826ab00150221c0637407b67b001647133021e0695695819014929600649295806492950069568a01f826718017b974806330750202006e170ff8267900195685819958900067b9740826798017b97388267a0017b9730648a3307209568801f8269a8017ba9280650202206ac70ff8267380181775517400c82673801480740019517e08477e07b67a8016471837933084082673001330024060a093302260628da4450222606d7446f8b6f996faa8268b0017b8a187b89107b8b087b879567601f502028064471ff95675819827708068478ff0051084b03847800ff005108910333022a0695695819014929f8054929f005140700000000f08982c97b9700069568401f4929e805330733006206280570ff9567ff079577a10733002c063302b806283a459568ff079588390195890006829780007b6718018297787b6720018297707b6738018297687b6730019567ff079577810733002e063302bc062879449568ff0795883901958900068297607b6710018297587b6708018297507b6700018297487b6728019567ff079577610750203006270b9567ff0795773901827728067b67f80095670040837720fa0a0a01956798398272a000827b98007b6b780182749000827a88007b6a6001682768b8958940db2709684768a8958840db470895878000d42b0adaa709d8870c94ac8ecb8897f000857a01daca0b88b7019570ff9ab39accc9ac0a9a99ef008e3c8e07da0c07889c000185cc018ea8dba80cdbb70c7b6458017b627001d42407826b600182687801d4b808d48707887701d4c707947b52072f038597ff00d43707d40a08d4870751071e0350223206b73b50203406da4550223606f14450203806f44550223a064c4350203c06e8457b6740017b68f00082698001889780007b67e800826760018268580150203e06c645502240066144826ae80093a77bb798005108b00264a98267880182684801d4870764ac8268f000502242062d3a502044066d45502246069a445020480661457b67f00050224a06c54250204c06774550224e06273f8268f000502250064640502052063b4550225406a93c50225606c03ed89002826b4801d8ab0cdb320c50225806d23ed4870297b801826b900198b33fd4380397b801826b980198b43fd4480897bb0182677801d47b0b7b6b980182677001d478087b689001d437087b688001d4270750225a060739d89b02c99b0988ab01c9bc0c827ba800c92b0b95aaff7b7cb0007b7ba800d4bc027b7ab800d49a0bd42b0a840b017b7b787b79a00049267001520a68ff28be01956778214927d8004927d0004927c8006479140700000000717b484e956840227b97e000330750205c06436dff956878214928c0004928b8004928a800116489330704956820224929b00050205e061e6dff8267b801817754173f07280ce38268b8014808403307013309248268b0010a0e2803e33302600695695819014929580549295005140700000000b6e2a4af7b9760059568a01e49294805330750206206cb6cff82673801817756171f0c8268380148082001330701330904826830010a0e01956a581995ab000682b81082b92082ba1886770001956b983995bc00047bc8107bc7087bca187bc9209568a03d8267b00150206406de6dff82672001330066060a05826928013302680628283882692801502268062138d4870798aa206f99979820d4a808989920956c5819492c8005492c7805492c7005826ab8017bca6805826a18017bca88053a0a6000023a0b680002492ca005492c98057bcae0057bcbd8053a0a7000023a0b780002492c9005492cc0057bcad00595ca00057babc8007ba9b8007ba8b00064c89569201f956a001f956be01e956cc01e7b87a8053307330850206a06056fff33078268300128beef492678010182679801977701826b7801d47b0b0182672801aeb7f9058267f8009777209878209587ff88773293877b685801938751072f061407ffffffff000000007b67980182672001977720987920956aff0795aa3901492ae0058267300195ab00057bb7c800826738017bb7d0009568ff07958801077b6968017bb9d800330750206c06316bff9568ff07958839014928c0054928b8054928a8050364893307209568ff079588e1064929b00550206e06046bff33078001027b67b001390780010233083fac780b8268b00148084001140700000000ffffffff7b6750015022700660393307900102837783993308407b67a001330072060a09826ab80133027406284037826ab8015022740639377bbac0007bb9b8007bb8b0007bb7a8009567ff079577c1069568403a50207606786bff9567ff079577390182778805492660014926a80182689801d287077b67480133070101956b00017bb7b80082baa8008ea78ea8daa70882b74882b9b800d897078ea9daa709d4aa07db7809520936059569000182979800829860d28707829858ae8721059569ff07959939014929800582673001959a00057ba768826738017ba7709568ff079588a106826768017ba778330750207806ec69ff9567ff0795773901492760054927580549275005647a3307209568ff0795888106492a48050250207a06bf69ff8267b001817756173f128267b00148074033027c0628be3950227c06bb3933007e060a093302800628cc3650228006c936959a00057ba7407ba7387ba7309568ff07958861068267b8017ba7283307502082066969ff826770019568ff07958839019589000550228406cb3d95884106826988017ba90805502086064069ff8267b001817756173f128267b0014807403302880628ff3c50228806fc3c0a09826a880182a71882a81082a90882aa6f7c6f8b6f976fa9826890017b6980017b89187b6788017b87107b6b78017b8b087b6c70017b8c9567ff079577210650208a06cd69ff9569ff0795993901959a000482a7f00082a8f80082a9e8008477ff8488ff826a5001d2a909d49808d487075107f202956c000182c870958702d8870882ca7850228c06033882c88800c88a0ad88a0882cb8000c8b808956b98397bb7c8007bb9d0007bbad8007bb8e0009567ff07957701069568603a50208e065069ff9567ff07957739018277d0048477ff00520790029569ff07959939014929c00482673001959a00047ba7a800826738017ba7b0009568ff079588e105826768017ba7b8003307502090061168ff9567ff07957739014927a0044927980449279004647a3307209568ff079588c105492a88040450209206e467ff8267b001817756173f128267b0014807403302940628e33750229406e037330096060a0901826a900182a71882a81082a90882aa6f777b67900150229806e63b9569ff07959939014929800449297804492970049568ff079588a105826728017b976804330750209a067767ff826778019568ff0795883901958900047b9760826780017b9758826788017b9750648a3307209568ff0795888105826990017ba9480450209c063a67ff8267b001817756173f128267b00148074033029e0628393750229e0636373300a0060a093302a2062847345022a2064434959a00047ba7407ba7387ba7309568ff07958861058267b8017ba72833075020a406e466ff826770019568ff0795883901958900045022a606463b95884105826988017ba908045020a806bb66ff8267b001817756173f128267b0014807403302aa06287a3a5022aa06773a3300ac060a09826a88013302ae0628fe37826a88015022ae06f7379567ff07957721055020b0066567ff9567ff07957739018277e8038478ff005108a50084770000ff0052079b00956aff0795aa39018267b80195ac00037bc78800826728017bc7a800826730017bc7c8008268a8017bc89000826700017bc7b000826738017bc7d0007bc89800826708017bc7b800826720017bc7d8007bc8a000826710017bc7c0009567ff07957701059568ff079588e1049569ff079599c104826b18017bcbe0005020b20640219569000182976095770182989800d287077b9760014926a8018267b80195770182689801d287072849fb9569ff07959939014929180649291006140700000000d94b11cf7b9720069568ff07958841074929080633075020b4067665ff390880010256181f12200380010220330890010228fee0330890010228f6e09569ff07959939014929f8054929f00514070000000059e962787b9700069568ff07958821074929e80533075020b6062465ff390880010256181f12200380010220330890010228ace0330890010228a4e033078268a0012800e90a030182171082181814090000000001000000d37909d48909987a2088aa01948a939a510a248219821a087b697b6a087b67107b68189551c082103882153082162895114032003308900102838833070133093300ba060a0e3302bc06285c395022bc0659390a0301821718821810821908d4780a889b0194ab510b0d821a5022be06c83332003308900102838833070133093300c0060a0e019511c07b10387b15307b16289515408411e0647683173308443300c2060a033302c4062831345022c4062e34520b0b5022c6067e3332003308900102838833070133093300c8060a0e3302ca0628d2385022ca06cf383300cc060a033302ce0628f4335022ce06f133520b0b5022d006413332003308900102838833070133093300d2060a0e3302d406281a395022d40617393300d6060a033302d80628b7335022d806b433520b0b5022da06043332003308900102838833070133093300dc060a0e01951110ff7b10e8007b15e0007b16d8009515f0008411f0828c10828b18828a0882887b1a287b1b18d4ab0bd4c80ad4ba0a98aa207b1c20d4cb0b97bb20d4ba0a520af4017b17088297187b17688296108297087b176082977b17589517b0007b18105020de06fb61ff821758d46709821868821a60d4a808d489099899207b1650d46808978820d498085208aa018219c800821ac000821bb8008218b0007b18307b1890007b1b387b1b98007b1a407b1aa000951890007b19487b19a80064765020e006d762ff821768821850d478081407e0ffffff00000000d87609821a6094a9948951095001821820821918d49808821910d87907821a2894a7948751073601646c821630821a40d4a607821848821b38d4b808d48707987720d4a808978820d4870752070f0183c7208398207b182864685020e206a866ff7b172082172864685020e4069966ff647882172064695020e6064860ff821758c86707d86708821960821b38c8b9095022e8068735821850821a40c8a808d8a80a821c68821648c86c0cc8ca0ac88b0bd88b08c8a808d4b808140ae0ffffff00000000d8a70a949a948a510a8f0083772049218800492180004911789518704911705020ea06da61ff82163095661f1407e0ffffff01000000d26707821858c88707d88708821a605022ec062231821850c88a0ad88a08821b68c8b808957b20d87b07c8790cd89c09da7709c8a909d8a907c887078218087b8b7b8c087b89107b8718955110ff8210e8008215e0008216d8009511f0003200009511d0fd951a00027ba0287ba5207ba618951530028411f0828c10828b18828a0882887b1a587b1b38d4ab0bd4c80ad4ba0a98aa207b1c40d4cb0b97bb20d4ba0a7b1728520ac4028297187b17488296108297087b176082977b17689517f0017b18505020ee06c55fff821768d46707821848821960d49808d487079877207b1630d46808978820d4870752077d028217f0019777209877204921e8014921e0014921d8019518d0017b17d0018217685020f006b260ff821740821a38d47a0a1406e0ffffff00000000821850d8680782195894977b1a4094a751072e028388209517b0015020f206435fff821748821930d47909821768d8670782186094877b19389497510703028217c0018218b8018219b001977720987a208217688377204921a8017b1990017b189801951890017b1aa0015020f4062d60ff1406c0ffffff000000005022f60631335107bc01838840951770015020f806d15eff5022fa06d2325107a401821788017b1708821780017b1710821778017b1718821770017b1720821668836740492168014921600149215001a00095185001492158015020fc06c25fff9567a000d86708821a605022fe061f2f821830c88a0ad88a08821b48c88b0b7b19f8007b17f0008217087b1728018217107b1720018217187b1718018217207b1710017b1a000195173001951810019519f0007b1b080150200007cdfb1406a0ffffff000000005022020769325107f400821748017b1718821740017b1720821738017b1730821730017b17488388609517d00050200407ed5dff50220607ee315107c0008218d0008217688377604921c8004921c0007b18b0009518b0004921b80050200807f85eff140680ffffff0000000050220a07fc3151078700838880009517900050200c079b5dff50220e079c3151076e8217a8008218a00082199000821a9800d49808d4a707d487078e788217688377800049218800492180007b187095187049117850201007925eff8217288218187b78188218207b78108218307b78088218487b789551d0fd95170002827028827520827618951130023200009511f0fd7b1008027b1500027b16f801951510028411f0828a18828b10828608828c7b1a487b1650d4a608d4bc0ad48a0a98aa207b1b40d4b808978820d4a8087b1708520813048297187b17b0008296108297087b17a80082977b17a0004921e8014921e0014921d8019518d0014921d0012064c77b1c3850201207e15dff8218a000d468078219b000821aa800d4a909d497079877207b169000d46909979920d497075207b2038217389579207b19e000d87907821950c8790a7b1ae800d89a06da7706821740c87606d87607821948c897077b17d8009517b00150201407435cff8217e000d467098218e800821ad800d4a808d48909989920d46808978820d4980852085203821ac8017b1a308219c0017b19288218b8017b18208216b0017b1690017b1898017b19a001951890017b1aa80150201607245dff3300330c4921b8003302821738957a40d87a03821850c83807648b98683b821420974905d498087b1618976905c87808c8a9097b1ad8007b19e000d8a909c8980ad37a087b1ae800d87a0ada890ad8b708da3308821b2898b33b821930979905d4390398493b97bb05d49b06647b821740c88709d87908821748c88707c896067b17c800c837077b19c000d89608c88707c8a608821ab8007b189800d86808c887077b17d0001407e0ffffff000000007b171001821450821718d87007821920d39c08d89c09da8709821628d86a0364a7821a30d3a2087b128800d8a20ada830a7b17b800d36707d48707da790a510af8017b1c787b1080008217d800821ac000d4a7097b1b708218c800d4b808d48909989920d4a808978820d49808821ce8008216e000821398005208f101821938d89602d34c08d84c0bda820b821840c98300c94c0ac92a0ac996097b1ce8007b16e0009592c0d89209c89a0c95ccffd3ac06d8ac0ada690ad883098216488218d000c96806c99606d8b009c99606c9b008888901c996069588ffc88a0ad88a08c886067b1270017b1c78017b1a8001951870017b1688017b17d800643650201807705bff8219b000821a9000d49a07821ca000821810d88c08821ba80094b894785108490195c820d8c8077b1858c87b0c7b1c68d8bc0bda770bc8ab0b7b1b60d8ab07c879097b19b0009517500150201a07e559ff821a5001821758018218600182196801821bd0007b1b08017b160001821be8007b1bf800821be0007b1bf0007b1928017b1820017b17180195173001951810019519f0007b1a100150201c076ef9821748017b17d000821740017b1798008218d800958720d88708821a7050221e071b2a821838017b18e8008218c000c88a0ad88a08821bc800c88b0b7b1bc80082108000950001880801821c78c88c0cd4c008888801821b30017b1be000821bb800c8b808d8b80b82128800c8b2027b17d800649b7b1ac0008217587b17a0008217687b17a8008217607b179000648a28d1fd8217088218e0007b788218e8007b7808821898007b78108218d0007b78189551f0fd82100802821500028216f801951110023200009511a07b10587b15507b16489515608411f0828910828c08828b82881897923f98ca01d42a02978a3f989901d49a0a97cc3f98b901d49c0c98830184bb019ab888b60184c97fd2a804d2280adbbc09d2380b88982094a8d4b40c94c8ab86167b797b7a087b74107b7b1850222007452f3200502222074025502024078a59ff4911184911104901223307046418491108502026077259ff390880010256183f0b2003800102400133089001028388330701330924330028070a0e33022a0728ea2650222a07e7268e72883b8085bb01db720bd4a908db8c0b520b229538800050222c07a02650202e071d59ff955190821068821560951170320050223007b824502032070259ff50223407402950203607f558ff390880010256183f0b2003800102400133089001028388330701330924330038070a0e33023a07286d2650223a076a268e72883b60ff85bb01db720bd4a908db8c0b520b229538a00050223c07222650203e079f58ff9551908210688215609511703200502240073a24502042078458ff50224407c228502046077758ff390880010256183f0b2003800102400133089001028388330701330924330048070a0e33024a0728ef2550224a07ec258e72883ba085bb01db720bd4a908db8c0b520b2195386050224c07a62550204e072358ff955190821068821560951170320050225007be23502052070858ff50225407462850205607fb57ff390880010256183f0b2003800102400133089001028388330701330924330058070a0e01951170ff7b1088007b1580007b1678951590008411f064728289827408828c088273959a1fd89a00c80c0984aae07b1308c8a303d8a30bc8490ac8ba0ad39a06d89a07da6b07822b18d8c90c828610822210828818da000cc86c0cd86c06c82c09c89707d8c90cd89709c8b808c86808c8c808c8980c8ec88e79dbc809d4c7088ea6db8906520658821808d88308d34a09d84a06da9806d82708d3bc09d8bc0bda980bd32708d49808da860b520b317b13507b1a587b17603307409518507b1c6850205a070f57ff955170ff821088008215800082167895119000320050225c07e92b50205e07ed56ff4911284911204911104133070495181049111850206007d356ff390880010256183f0b2003800102400133089001028388330701330924330062070a0e019511a0fd951900027b90587b95507b9648951560028411e064167b6710828718828910828a0882887b67b0007b6738027b69a8007b6930027b6aa0007b6a28027b6898007b68200295670002330840502064071f55ff956800028287187b67188287107b67208287087b672882877b67309567e00195682002502066072157ff956b000182b7f80082b8f00082b9e80082bae0007b6790007bb7b8007b6888007bb8b0007b6980007bb9a8009567c0019568a0017b6ab8007bbaa00050206807eafb826730826818826928d48909826a20d4a708d49808988820d4a909979920d4980852084c03956c000182c9d80082cad00082c8c80082cbc0007b6b607bcb80007b68707bc888007b6a687bca9000956880017b69787bc9980050206a078d55ff826ab80084a70152070101826720826818d487071408e0ffffff00000000826b30d88b08826928949894785108e20284a800ff83b720826a8000956900017b9a087b98826888007b981095680001826a90007b9a1850206c073155ff330433033302826768826860d48707826878826970d49808d487078e779777057b67b800018268b800958720d88708c88409d8490ada880ac83a0ad83a08c8820b8268307b68e0007b67c0008267287b67e8008267207b67f0007b69c8008267187b67f8007b6ad0009567e0009568c0007b6bd80050206e07e5fc8267108268187b78188268207b78108268287b78088268307b789551a0fd9517000282705882755082764895116002320082679800956900017b97608267a0007b97688267a8007b9770956860018267b0007b97783307502070075854ff9517e08477e07b67586471390880010256181f0b200380010220019517e08479e07b69b00064913307900102837783993308200a094926b800330433033302826cb00082c7188268309589207b6950d88908826928c8890a7b6a48d89a0bda880b82c81082c90882ca6f776f886f906fa9826c58649a7bc91864097b6980007bc9107b6890007bc80864797bc7826720c87b0b7b6b40d87b07826818c887077b6738017b6a88007b6998008267608268b800d87807826970d39408d89409da8709826b68d8b307826a78d3a208d8a20ada870ad3b307d48707da790a510a70fe9567400164c87b62b0007b63a8007b64a000502072075154ff8268508267b800c88707d88708826b488269a000c8b909502274079b26826a408268a800c8a808d8a802826c38826ab000c8ac0cc82c0a502276072a275208a200956c000182c95882c85082ca4882cb407bcb207bca287bc830956820017bc93850207807f752ff826a980095aa0188a70182649000c87404d44a0788770182688000c87803d8830882678800c887078268b800958020d88009826ba000c89b08d8b80bda990b8269a800c89b0bd89b098262b000c8920264497b699000826c587bc90864a97bca7bc310647a7bc7187b6380007b60b800648464b328cefe009511907b10687b15607b16589515708411f0828a187b1a08829b1882847b14828a08829608829c828310829210c8a609c8c404d8c40cc8c909d36900d86906da0c06c83208821c08c8bc0cd8280bc8cb0bc8680cd88c08c88b00d3a90bd8a90a8218d88406dbba06d83c02821808d3800bd8800adab20ad33c08d4b808db8a0652061f7b747b79087b7c107b7018955190821068821560821658951170320050227a07cf2650207c07d351ff4911284911204911101133070495181049111850207e07b951ff390880010256183f0b2003800102400133089001028388330701330924330080070a0e019511807b10787b15707b1668951580008411f0829b828a829608828308829410828c10829918828818d363027b1608d863067b1b187b1a10d8ba0a7b1ada2a06d3980ad89800d84c02daa200d34c0bd4ba0adaa600520046c94c0ac99808c92808d86a09c99808c96a0a821908c99309821bc9b909821b18821c10c9bc0b7b7b7b79087b7a107b781895518082107882157082166895118000320049115049114849114033028207140700000000717b484e019518407b1758330750208407d350ff4911384911304911201133070495182049112850208607b950ff390880010256183f0b2003800102400133089001028388330701330924330088070a0e01828a18828b108282088eac8eb9dbac09d4ba0a8e2bdba90b520b30828895891fd88908c828088488018499e0959a20d89a09c8980bd88b08da99084917187b7a7b7b087b781032009511b07b10487b15409515508411f050228a07e71b50208c073150ff50228e076f20502090072450ff390880010256183f0b2003800102400133089001028388330701330924330092070a0e019511c0fe7b1038017b1530017b162801951540018411e064760a0d0151074f017b16180a0d64794921f8004921f0004921e800951700019518e0007b19207b19e0005020940729ff821700017b1740821708017b1738821710017b1730821718017b17289517c00033084050209607544eff8217d8007b17588216d0008219c8007b1950821ac0007b1a488218287b1898008218307b1890008218387b1888008218407b1880007b17b8007b16b0007b19a8009517a000951880007b1aa000502098076af7821748821858821950d48909d46708d498089888207b1640d46909979920d49808520884004911784911704911689518608219207b196050209a07fd4eff0a0d01821a48821840821958d498081409e0ffffff00000000d89a09821b5094b99489510944647698772052073c83a72083687b1838646850209c070353ff7a16200183778318200133090a0c01821b4881172001821618821858821940821a50821c38aec70e00330a33093308330b60017b6b7b6a087b69107b68189551c0fe821038018215300182162801951140013200828b18828a108283088eb28eacdbb20cd4ba028e39db2c09520948828898a93b97bb05d49b02983b3b97aa05d4ba0a988b3b973305d4b30b978805958c20d88c08c88b09d8b90bda880bc8ab0bd8ab08c828087b7c7b79087b7b107b781832009511b07b10487b15409515508411f050229e07a4195020a007ee4dff5022a2072c1e5020a407e14dff390880010256183f0b20038001024001330890010283883307013309243300a6070a0e019511c0fe7b1038017b1530017b162801951540018411f07b1708951700013308405020a8075b4cff821718017b172882161001821908017b1938821800017b18307b17f8007b16f0007b19e8009517e0007b18e0003300aa0733023a0728ff1a821728821838d48707821830d46808d478089888207b1618d46707977720d4870752073d014921d8004921d0004921c8009518c0004921c00082163064675020ac07184dff821728821918d47909140700000000010000007b17101407e0ffffff00000000d8760782183894877b192094975107ec008216308367204921b8004921b0004921a8009518a0004921a0005020ae07c64cff8217109577c05022b00710215107bb008216308367404921980049219000492180006095188000492188005020b207944cff140700000000010000007b17101407a0ffffff000000005022b407cd205107788216308367604911784911704911689518604911605020b607584cff8217109577805022b807a22051074d821630836780004911584911504911489518404911405020ba072c4cff8217088218287b78188218187b78108218387b78087b769551c0fe82103801821530018216280195114001320000951110fe7b10e8017b15e0017b16d8019515f0018411f08289828a08828b108288187b17087b18387b18a8017b1b787b1ba0017b1a80007b1a98019517b001951890017b1988007b1990015020bc0749fd8217b0017b17708217b8017b17508217c0017b17488217c8017b1740951770013308405020be07494aff821788017b176882168001821978017b1960821a70017b1a108218407b1848018218487b1840018218507b1838018218707b1830017b1768017b1660017b19580195175001951830017b1a50015020c0075ff3821710821868821960d48909d46708d498089888207b1658d46909979920d498085208e701821888007b181001821880007b1818018218787b182001951810018216387b1628015020c207e24aff7b16e8008217787b17e000821780007b17d8009517f0009518d000821988007b19d0005020c40755fc492188003300330333068217f000821808018219f800821a0001957be07b1b50d87b07c8790b95bcffd39c0b7b1c48d89c09dab70995a7ffc879097b1940d8790788a901c99808c887077b17388218109587207b1730d88707821b60c87b087b1828d8b808da7708821c58c8c8087b1820d8c807821268c827077b17180182175082188800d87807821948d39008d89009da8709821440d84307821a38d3a608d8a60ada870ad34307d48707da790a510abb009517b0007b1680007b137864065020c6073cfc82178800821830c88707d887087b1670821b28c86b095022c807301d821a20821878c8a808d8a80a821c1882168000c86c0cc8ca0a5022ca07c01d520890008219c8008218c000821ab800821bb0007b1b90007b1a98007b18a000951890007b19a8005020cc078949ff82188800958720d88708821670c88609d8690ada880a821878c88a0ad88a0882168000c886067b178800649064a3821268821c58821b602817ff8217088218107b787b7b087b7c107b7218955110fe8210e8018215e0018216d8019511f001320000951140ff7b10b8007b15b0007b16a8009515c0008411f0828b10828a18828c0882887b1a287b1c20d4ac0cd4b80ad4ca0a98aa207b1b30d4cb0b97bb20d4ba0a7b1738520af2008297187b17108296108297087b170882977b17951780007b18185020ce078547ff821210821c088213821788008218980082198000821a9000d3c70bd87c07d89309dbb709d8a607d3280bd88208dab708d36a0ad4ba0adaa9085108950098673b972805d4780298c83b976605d4680898393b97ca05d4a909973a05821718c87a0ad87a0b821c20c8c909c8b909d3c907d8c906da7b06821c30c8c808c88606d8860bd8c808821c28c82c07c88707c8b70795a820d8a80ac8a90bd89b09daaa09c86909d8690ac8a707821a387ba87bab087ba9107ba718955140ff8210b8008215b0008216a8009511c0003200004911704911684911603302d007140700000000717b484e019518607b177833075020d207ca47ff491158491150491140323307049518404911485020d407b047ff390880010256183f0b20038001024001330890010283883307013309243300d6070a0e019511c0fd951900027b90387b95307b9628951540028411e07b1710828718828910828a0882887b17587b17f8017b19387b19f0017b1a507b1ae8017b18487b18e0019517c0013308405020d8070246ff8217d8017b17688216d0018219c8017b19708218c0017b18787b17b8017b16b0017b19a8019517a0017b18a0013300da0733023a0728a614951780019518e0015020dc07e747ff821768821870d48707821878d46808d478089888207b1640d46707977720d4870752073a0282188001821790017b1728821788017b17187b1820978720987720492178014921700149216801951860017b17600182167864675020de079546ff821768821940d47909140700000000010000007b17301407e0ffffff00000000d8760782187094877b196094975107ce01821b1898b720821a2897a820d4870982172098772097b820d4780898aa20821778837720492158017b1a50017b184001951840017b1948015020e0072546ff821748957701887801821950c89808d48709889901821638c86909d8690a821b58c8ba0a7b1910017b1808017b17000195172001951800017b1a18015020e2073aef8217309577c0821878d8780782187094878218609487510733018219380182183001821a2801821b20018217788377407b1be0007b1ae8007b18f0009518e0007b19f8005020e4079845ff821848958702d88708821a505022e607f314c86a0ad86a08821b58c8b808951b00027bb9087bb77bba107bb8189517c000951800025020e8074e46ff140600000000010000007b16581407a0ffffff00000000821878d878078218709487821860948751079b008217c8007b17508218c0008216788367604921b8004921b0007b18a0009518a0004921a8005020ea070545ff821758957780d87607821870948782186094875107587c17508e788216788367800049219800492190007b18800095188000492188005020ec07c844ff8217108218687b78188218407b78108218707b78087b769551c0fd9517000282703882753082762895114002320000951100f9951a00067ba0f8007ba5f0007ba6e800951500078411e0641682997b692882887b68308278107b68208278087b683882777b6740836720060a0a01826238068263300682672806826b20067b6b7868296838958a40db290a687968b8958840db7908958b8000d42309da9b0ad88b0c949c8ecb88a8f000858901dac90b88b4019540ff9ab49accc99c099aa8ef007b64a8008e4a8e0cda0a0c7b68b800888a000185aa018e98db980adbbc0a6474826778d42408d4370bd4b808888801d4a808647a948a5208e9028268b8008588ff00826ca800d4c808d4090bd4b8085108d002826bb80095ba017b6ab00088a801c898087b68a000d4a808888801c8c8087b689000d8c808c808087b6898009ab9ff007b6988009a99800064487b64707b62687b63605020ee07911a7b6780007b6850826760826868826988005020f007a01a7b67487b68188268b8009a897f8267788268705020f207871a7b67107b68b80082698800889780007b67588267788268705020f407691a826c58826b9000826a98008269a000d4a909826ab000d4ba0ad49a0a93c77b67a800510a0502826750826918d497078269b800dac907826268642a82638800db370a7b6ab80082678000826948d49707826910dac907826b6064badb370a7b6a800093c87b6888004916588051018267b00095798064b764285020f607c4197b67507b68188267788268708269b0005020f807ae197b67107b68488268b0009a8980008267608268685020fa07ba19826948d49808826ab00088ab80007b6b48826918dab908826970dba8097b6970826810d48707826850dab807826878dba70864a97b68788267608268685020fc075119330c82694893989397826a5895a9ff7b69508ea99599ff7b6948826370826478017b6c7898493f973a01d49a0c974a01826bb80098bb3fd4ba0a7b6a688269487b6c706434d3c903d8c902826b50d8ab0cdb320c978801987a3fd4a8087b6860984a3f977701d47a0a8267b800977701826b800098b83fd4870297b801826b880098b33fd4380397b801826ba80098b43fd4480897bb01826778d47b0b7b6ba80086887b68880086387b68800086277b67b800c9a907d8c707d8a908826260c9290bc98b0bc97b0b99bc3f826758d2c707826868c97804d87808826770c987039478c98a07d88a08c98208826ab0008260a000d40a09889901826b9000d89b02c99b0988ab01c9b000826b9800c92b0b95aaff7b60a0007b6b9800d4b0027b6ab000d49a0bd42b0a84cc017b699000520af2fe2805330c018267a800977701d47c0a01826730aea7a5088267209777209879204926f8058267407b67e0058267387b67e8059568e0057b69a8007b69f00533075020fe07b140ff4926d8054926d0054926c005023307209568c0054926c805502000089240ff3308800102390780010256173f0b200380010240019517e08479e07b69a000649133079001027b675083777b68b00083993308407b67b800330002080a093302040828e90f50220408e60f8267289777209877204926b8054926b0054926a8059568a0057b6790007b67a0053307502006081d40ff826778956a00057ba79800826780007ba79000826788007ba7880033072095688005826998007ba9800050200808ec3fff8268b000818756173f08480840019517e08477e07b67980050220a08841333000c080a0933020e08280b1150220e0808119567600550201008a240ff806764058268680582697005977720d49808d487075107a207492658058267407b6740058267387b674805956840058267a8007b675005330750201208703fff49263805492630054926200504330720956820054926280550201408513fff8268b000818756173f08480840019517e08477e07b67a00050221608e9120a09826aa00082a71882a81082a90882aa6f777b67a0006f877b6798006f977b6788006fa77b678000492618054926100549260805956800058267307b670005330750201808ea3eff82678000956a00047ba7f800826788007ba7f000826798007ba7e8003307209568e0048269a0007ba9e00050201a08b83eff8268b000818756173f08480840019517e08477e07b67a00050221c08501233001e080a093302200828290e50222008260e4926d8044926d0044926c8049568c004826790007b67c004330750202208663eff826778956a00047ba7b800826780007ba7b000826788007ba7a8003307209568a004826998007ba9a00050202408353eff8268b000818755174008480840019517e08477e07b67980050222608cd11330028080a0933022a0828540f50222a08510f9567800450202c08eb3eff826880048487ff00510720067b68980084870000ff0052073a06826798047b6758826790047b6760826788047b6768492658048267407b6740048267387b674804956840048267a8007b675004330750202e08a33dff49263804492630044926200401330720956820044926280450203008843dff8269b000819756173f08480940019517e08477e07b678800502232081c110a09826a880082a782a80882a91082aa186f777b6788006f877b6780006f977b67786fa77b67709518e08488e064818269980086970000018269587b89188269607b89108269687b89087b878267a00050203408793eff82689800848700ff007b6798009517e08478e06481826770957701887901826b78c89b0bd4b709889901826a8000c8a909d8a90a826c8800c8ca0a7b8a187b89107b8b087b87956700047b68a00050203608ac3dff8262180482631004826a0804826400049518e08488e064813a0c200102c84c0cd84c09c89a079577ffd3a700d8a70bda090b9539ffc89b0bd89b00883901c99209c809097b87087b8c7b8b107b8918826798005107a6013a072801027b679800d8740794a7d4230994975207cf048267a00050203808ab3dff9517e08478e06481826970959702d8970b826a78c8ba09d8a90adabb0a826b8000c8ba0ad8ba0c826b8800c8cb0b7b8a107b89087b877b8b189567e0037b68a00050203a08eb3cff8262f8038263f003826ae803826be0039518e08488e0648182649800c8b404d8b407c87a09d8a90cda770cc83c0cd83c077b8c103a0c300102c827077b89087b84d8bc0995aa0194a9d2230a95aa0194a97b8718520970048267a00050203c08003dff9567c00333084050203e084e3aff956b000382b7d80082b8d00082b9c80082bac00050224008390a52072d034926b8034926b0034926a8039568a003826798007b67a00364a77b6ab80050204208453bff4926380349263003492628038267307b672003492658034926500349264803826790007b674003492678038267a8007b6770038267387b6768033a073801023a084001023a09480102826a407b6a60037b6798037b6890037b6988033a0750010233082095698003956a6003956b4003956c20037b6780038267b8003300540828003eff3a072801027b679800d8740794a7d4230994975207c5038267a00050204408093cff49265806492650064926480649264006956780029568400650204608723bff8262980282639002826a8802826b80029518e08488e0648182649800c8b404d8b407c87a09d8a90cda770cc83c0cd83c077b8c103a0c300102c827077b89087b84d8bc0995aa0194a9d2230a95aa0194a97b871852098f03492678064926700649266806492660069567600650204808773bff50204a087838ff3a08b001037b68a0003a08c001037b6888003a07b801037b6780000a0b826880006f88978920826a88006faa98aa20d4a909988820826aa0006faa330b90010397ac20d4c80898aa203d0aa001033e089801033e0990010349269806492690064926880682689800956900067b9880004826a0068e77fc089a787b98d8007b98d0007b98c8007b98c00097bb2098bb20977723d4b707956880069788209888209569c006979920d4890a826b5097bb2098bb209568a006978820d4b80c3308ff3309ff0a017b67a0009567600250204c0839e98267a000520708039567200233084050204e08e337ff956b000282b73882b83082b92882ba2050225008d2075207c60049261802492610024926080295680002826798007b67000264a77b6ab80050205208de38ff4926980149269001492688018267307b6780014926b8014926b0014926a801826790007b67a0014926d8018267a8007b67d0018267387b67c8013a075801023a086001023a09680102826a407b6ac0017b67f8017b68f0017b69e8013a077001023308209569e001956ac001956ba001956c80017b67e0018267b800502054089d3bff955100f9951700068270f8008275f0008276e80095110007320000492610064926080649260006140700000000d94b11cf956800067b6718063307502056081938ff390880010256181f0b20038001022001330890010283883307013309040a0e014926d0004926c8004926c0001407000000006d53a9a79568c0007b67d800330733006a0828ce37ff4926f0004926e8004926e000140700000000b6e2a4af9568e0007b67f800330733006a0828a637ff49267004492668044926600414070000000000f90f56956860047b677804330733006a08287e37ff4926d0024926c8024926c00233025808140700000000717b484e019568c0027b67d802330750205a085537ff4926b8024926b0024926a002113307049568a0024926a80233006808283237ff49261003492608034926000333025c08140700000000717b484e01956800037b671803330750205e080937ff4926f8024926f0024926e002113307049568e0024926e8023300680828e636ff49263001492628014926200133026008140700000000717b484e01956820017b673801330750206208bd36ff49261801492610014926000111330704956800014926080133006808289a36ff49267001492668014926600133026408140700000000717b484e01956860017b6778013307502066087136ff492658014926500149264001113307049568400149264801502068085236ff8267b000817756173f138268b00048084033070133092428663307013309248268b80033006c080a0e285f49265002492648024926400214070000000018ecb890956840027b675802330750206a080036ff8267b000817756171f138268b00048082033070133090428143307013309048268b80033006c080a0e280d8268b80033006c080a0e0180881409ffffffff00000000aa981c958801888901d4980a88aa014917187b787b79087b7a1032009511b07b10487b15409515508411f050226e083c01502070088635ff4911184911104901113307046418491108502072086e35ff390880010256183f0b20038001024001330890010283883307013309240a0e33073300740828bc39ff330750207408b639ff33070150207608ac39ff82970881981082996f77977a206f88988820d48a0a9877206f98978920d497079888209569782132028269700182970881981082996f77977a206f88988820d48a0a9877206f98978920d4970798882095695811320282a782a80882a91082aa186f776f886f996faa95ab03d8ab0ac8a90cd89c09daaa09c88909d88908c8870732027b678801c9a007d8c707d8a008826c5801c9c00bc98b0bc97b0b99b03f82675001d2700782686001c97804d87808c989039498c98a077b676801d88a08c98c0895670001827ab800827cb000d4ca09889901827ba0003202491130491128491120140700000000717b484e9518207b17383307320282970881981082996f7a97a7206f889888203202da980782697001649a649882698001db970a7b6a880182676801826a5001d4a707826a4001daca07826b780164badb970a7b6a80018267900193c77b679001492650018051018267b80195798064b73202647183793308408267b001320282970881981082996f77977a206f88988820d48a0a9877206f98978920d4970798882095699829320282970881981082996f77977a206f88988820d48a0a9877206f98978920d4970798882095695819320282a71882a81082a90882aa6f776f886f996faa956b983932029517e08477e07b67b00164718379330840826730013202826aa00182a71882a81082a90882aa6f777b6790016f877b6788016f977b6780016fa77b6778019517e08477e07b67a0016471956958118267980132029598017b68b801888701c8a7077b67b001d48707887701c837077b67a001d83707c807077b67a8019a98ff007b6880019a89800082676001826858013202826a900182a71882a81082a90882aa6f777b6788016f877b6780016f977b6778016fa77b6770019517e08477e07b67900164719569ff07959939018267a8013202d8380bc8b70cd87c07dabb07c89707d89709c8a9097b18407b1c487b1750330740c871087b195832029511907b10687b15609515708411f0827a1882791082738277088eab8e9cdbab0c3202826ab80182a71882a81082a90882aa6f7c7b6ca8016f8b7b6bb0016f997b69a0016fa77b67b801826898017b87187b89107b8b087b8c320282a71882a81082a90882aa6f776f886f996faa3202826ab00182a71882a81082a90882aa6f777b67b0016f877b67a8016f977b67a0016fa77b67980133075819c8760932026f877b6790016f977b6788016fa77b6780019517e08477e0320282a782a80882a91082aa186f776f886f996faa95ab02d8ab0ac8a90cd89c09daaa09c88909d88908c8870732029517e08479e07b69b8016491320282646001826358014926780149267001956b000182b948939893977bb76882ba5095a9ff7bb9488ea99599ff7bb9403202d49707d48a09d47909989920d48707977720d4970732028268a801958702d88708826ab001c88a09d8a90ada880a320282a71882a81082a90882aa6f777b6788016f877b6780016f977b6778016fa77b6770019517e08477e0320282a71882a81082a90882aa6f777b67a8016f877b67a0016f977b6798016fa77b6790019517e08477e032027b6a7b69087b68107b67189551c08210388215308216289511403202c88a09d8a90ada880a3202d88708826a8001c88a09d8a90ada880a82689001c88a0ad88a08826b8801c8b808956b98393202826aa00082a71882a81082a90882aa6f777b6798006f877b6788006f977b6780006fa77b67789517e08477e07b67a00064713202140a00000000010000001407e0ffffff0000000082b8b800d8780782b8b000948794973202821718821810821908821ad4790bd48a0cd4bc0c98cc20d48b0b97bb20d4cb0b32029517e08477e07b679001647183793308408267a0013202826ab00182a71882a81082a90882aa6f773202491118491110490141330704641849110832028269b80182970881981082996f77977a206f88988820d48a0a9877206f98978920d4970798882032028298b800d878078298b00094878298a80094873202330b330c8269480193989397826a580195a9ff7b6950018ea99599ff7b694801320298493f973a01d4a909974a0182648801984b3fd4ba0a7b6a6001826040016437d390033202978801826b680198ba3fd4a8087b685801987a3f97b701d47a0a974701826b800198b83f320282694801d498088269b801889a80007b6a4801826b4001daab08826b5801db980b7b6b580132028268b801826970017b8908826978017b89826990017a8910648a956998318268a0013202826a980082a71882a81082a90882aa6f776f8b6f996faa8268a0007b8a187b89107b8b087b87320282a71882a81082a90882aa6f776f8b6f996faa826890017b8a187b89107b8b087b87320282a71882a81082a90882aa6f776f8b6f996faa8268a0017b8a187b89107b8b087b8732026f877b6790016f977b6788016fa77b67800133075811c8760932027b6a800193b87b688801492658018051018267b00195798064c7643832028268a001c88a0ad88a08826bb801c8b8083202d49707d48b09d47909989920d48707977720d4970732028267b80181773308233202d4870782686801daa80782686001db97087b6860018267780182687001320282ab7b1b1882ab087b1b2082ab107b1b2882aa187b1a308296829a087b1a829a107b1a088299187b1910320295680001828ba8008289a0008287b800d4b707828ab000d4a908d47808988820d4a707977720d4870732027b67a0016f877b6798016f977b6790016fa77b6788013202d49808d47808988820d49707977720d487073202821768d867078218609487821838948732027b6730017b6848018268b0019a898000826770018268600132027b6780018267a8019577018878018269b001c89808956998313202821850d8680782195894978219409497320282b77882b8800082b97082ba68d49808d4a707d48707320282b7b80082b8c00082b9b00082baa800d49808d4a707d487073202c88909d3b90ad8b90bdaa80b320233079839c8760a95ab0007320233079839c8760a95ab0002320282694801d49808826ab00188ab80007b6b480182693801dab908320282a71882a81082a90882aa6f7b6f876f986fa9330a00303202647183793308408267b80032029517e08477e07b67b801647183793308408267a80132029517e08477e07b678801647183793308408267a00132026f886f996faa826bb8017bba187bb9107bb8087bb73202c88b0bd88b08c8a808d49808d4b709d48909d4b808989920978820d4980832028267b80182694801d4970782693001dab90782636001643a32026f877b6788016f977b6780016fa77b6778013202d87607821838948782182094873202826aa80182a71882a81082a90882aa6f7732027b9720826778017b9718826780017b9710648a3307209568ff0732027b6848018268b8019a898000826778018268700132027b6750017b68480182678001957980826760018268580132029511c07b10387b15307b16289515408411e06476831733082432029517e08477e07b67b001647183793308408267c0003202491140491138491130140700000000717b484e9518307b174833073202956c00017bc8a0007bcab000d48a077bc998007bcba800d49b08d48707320282970881981082996f77977a206f88988820d4a80832029511c07b10387b15307b16289515408411e06476831733080432028268b8018187107b67900182877b6778018287087b6770013202647183793308408267980132029517e08479e07b69a80164913202826ab0018260a001d40a09889901826b900132029551a08210588215508216489511603202826ab80182a71882a81082a90882aa6f7c6f8b320282b7980082b8a00082b9900082ba8800d49808d4a707d487073202956b00017bb8900082b8b00082b9a800d4890982b8b80082baa000d4a808d49808320282b75882b86082b95082ba48d49808d4a707d48707320297772098772033089831c88609320233079831c8760a95ab000532027b6768017b68880182677801826870018269800132027b6768017b68400182676001826858018269b801320233079839c8760a95ab0003320233079839c8760a95ab00013202140700000000010000007ba798001407e0ffffff0000000082a8b800d8780782a8b0009487320282b7d80082b8e00082b9d00082bac800d49808d4a707d48707320282b73882b84082b93082ba28d49808d4a707d4870732027b6738017b68300182698801889780007b67580132027b6780017b68b80182677001826860018269880132027b9760826788017b9758826790017b9750648a3307203202849a40520a195109148d9a40cfa80ad09808d09707d4a707320032009597c0d0780733083200849a40520a195109148d9a40d0a70acf9707cf9808d4a808320032009598c0cf87083307320049922425494b2a252da9944c4949490a21a11a4292d210a1925429a42449922449922449922449922449922449922449922449922449922449922449aa9294529294942454a5242549922449922449922449922449922449922449922449499294a4aa24254994a492a42a494149929294a4aa2a494952924a922222222549929224a95029a5244929a524a9a4888828222252922409124a252525458a142952a44891a22445444411119192244949922448282a52a4489122458a142952a4489122458a122922224a920421240ca5496948848888484444342222498424894414890851a81a2242440049528948922491842424499224c950124a42495200a51022184a5aa12a119224841052a14a95464444a488081211428448446944208104121048402081040412482081041248402081041211111129110449148984884422910811912882248410111111854424222222d288200992883422229292882849248944924a12118d8888244a2292482249224922892492444992244992248a928a24154912a2489188202222a29018114a4448a210221849142a91124115498a1011111111444424128988109148128944221111111121a2111111955412492a92a412518994448a24894a22922489249244121111451004119188208808222212499194281211119134224842142912114444441412234289084914222111844aa491a4828888881411111111111122222222222222924444828824898888880891101111111111111111d1884814812490241111115110514444202949880821444444928888a0288a8888888828221048a24844444444444444444404222222918814444428114108114ca250918846920a442022220a222222a24444104522025144442012111111818888888888880411111149922489880811114124128148221149241289a488884044444452249144924492649224918888888846444492249044248a0824494a22221a111151492591a422492a119548494422492a8948929448224924111145040281884844201011888848244552222222228a0804922812111111111111111111118888481011111111114911111111890824111111114444024924a288888820228124121111114402111111110511114a44104204118150918822025114454444441444444444948808a2c824025144200251042222a2202202111144914904a288884024291244241289449248444404119188401211514444440411914012218a445444444410914814251141918888880822411449922449922422121141441011110920805412894492a4248904114144245194441111494a4444449088444444441181401245228a88442422221244920249448912254a24a948924a44a5882449924a222249128924924824111111818888084444220211111111888848449222292245a222119148948822102910111181888888402422229188442211118888885492944c9248224a224924912491249244924844229148124912892425928848224922894824494424222222a2884020092411111123222212894814444428114108110c2002a12211454404222222228888884824220511112542104506104904a28888404492440411918888880844442212895456a494242222222222a22022a24408a2c82402514444208a88482252101189444a44045164128122495591a4441249229188481211c488444422828891248924898888888888404444444444441289888888884844221211118940444444922449221289442488888888888888888888888808c4882491a42411111145230249148988888820622422914844828824092411111111115144222222228a0804922812092246922449922444444444222222a21181249044241a11111148421451442022220a22422282240a21829144212a114544042288888844124922499244444444444444042249222222228288220251442022222222a24892248924924822498a084412092222229044444444441144141111484a122184109124494444249088888888220281248a448c888888888848109124812422128944a48844444444141108245124222222222222222246222212894841c48850228210229844a122118d24158128928888888288888888121141148908441181082222222292481249249244441011118188404444248908224644448288912491244992002212111111114444248000129544229244244922898888882022922825898820228888449248221149444444448a880822114000894a22464444444422221111444412a5248a88888820221149229288244992244a12118d88229224812422222222914844248888442291485244444444242290444444444410110924918828222222828848242a89444444440401442089444444440491444444444444414444281111245188848840a84411818a48241245248888442291481291888888202212114822224922222222a2082289249144224922228888041040242a89888888884844444404914092444410118944251111111149121111440249121141001189a224229248444444041109222249222291249224111111111111444410110944494444442422222288882022812422222292242282880802884012910012491291484444444411814012482222222222222222a22062442811418890442202a112514444209224228888888888a02a222222220288915212111111118944a42022a24408a2884c8a128da244244a24499224892415455144442291882888884422252282282293a844141111884444444410118944221111111189444444440411115124499224229148448288282222222291481111114492242222221a1148024944a21149124842145144202249440a224a844444044914420423894254228a880844492282888888884824912492244944444444444444444444444410111111111149228288220251442022222222a28888248924924822498a882092488288888888401211111111918828828822220249492284102222222222128988a0288a88888888282210480249441a111111118948921045141111884822051123428908922884084612854a1449aa8a24252549922425228888884824914422499244242211898888882022222222224922828820222222222222222222222222222222828888888888248908224144440492888888882882882222024949424408212222494422288a22222222a2884020092411111111111105112111411285488808844a14118820222222029124912412114144444444201011111111444444128188404444444444101109222222499224111111115144441011910002485492888888888888202222924a121111111111440490284a22494444041141518988888846244992249044444444444414448444044914222122102a45928aa2282249114444444420922492441211444444444444444444441089442011484424494410111111111111111111414444444444824892401211894422520489484444444411814012452222229148444444228288888888888828888850228210229844a122118d24158188888882880844441045261144234945104512111151101189444a4404516412411411118820222241444444922449a288888888082222220104904a224289888888202292284a222811111141222895481011111111111111111111454404415244444424124444444444444444444444440441524444444c92249188249224499224452482a212884444225182404444048240108948245244048288912491441429912489249148124922492412894492489248249192049224928844922822199120229148248a8888884444249224492222222222a2201a1191001295442495929424111111114144442412110922222222222241444444444444444444922222888844912449121111111151109100225149141189a0884644124992882422499248258988880802082022514a12514444444444108988a49244444444041101244a49442491041145248224918288499448104506100144104582208922128944a42062449148894810452651892249a51425921411444422228888884812894424494410114444444444041111892491241149121124254992489248249228228818912492244992242288485249499248494424884892222222828824a91449242289242212914844a2208ac8242a5124499244924892548a2a49224922892491244912294924912449a2a42a4992241249924424492449a2914812892449228a4422111111114124912492480922119148942088888820088248442291222208224692441251a444922492442249248924914824124922492291444a12244924118924514432918428a248101111511011a144044914420491205424a24850118944a28822414444444144841211449101440091441045248248928820a2884824912489249164454a89888822414412298888281182283289208a049124220511111151222288229308a2884410494a92248948121141c488c42249441031229248928822414444144424252288229308a291a42248129182884422252241149944104582241129882812291109a2c824822822114410111111444444844a4a92489224292449922449521241522449922282888888a4902449129292921211440411111111898888880822499248101191244992242211115144441011910012954c9224129188888888888882244a4112550a45444492aaa28a44d28848221149442211892211492249224992248988082222222222222282482249249148241249249188249244128948291111512249928888484444922489244992244992440411118944229288248848228888442409222211491215894422111111114192244922491211111189240124a988441011111111119324912411492291882488882441442422491011894892a248241289241289444444c424484a92209224921211442422828824119124114124884892244544101111119188248908228a480411111105112342890892288a4824882212419424828811898888082222128944441091244922914824129124114124889124119148124922624444882022124411898888888888201289a208202212451189a08868441291202211499224529188888820a288449094241209218488888848922489882222228804114912441189244924452422a208604441c48850228228229368444414018c28888808252288223289869250124a4249280925a12494448c0820220a42042121112302888882104148482889880022a220441012124a4249280925a12494849250124a4249280925a12494849250124a22228088821041484844041051242202882812101111115124082294849250124a4249280925a1249484925012110144148408424222228088221111110144220aa2884ca2a12494444c0248a42044101292049048411491493494849250124a42492889880022a22044100a4b1a914444444410514422484a1242888888880811111151222222221288888888281204114a02222222221a1144288991c88888882011942a35220288288818114a44104564128d42288942280988888888281224499208254184928848442291484444221289442282888888888888888888888888888888205451242212111191488428a288449024521049944820444822912054228a4804512491242205228a444a44025144224114098288221241a448222210232249129148244944342222222aa92492542449252a919288442449454492088220088288888808828a28224510044104411041100489244822492489442412099224928844924444021149221a89244984522895a24851248850442422421451442288482205224684121108112232894225a2884410451211111105222222224a4404a2884c22882212412429a288441029928808c488489244128924898822124144122910312294884014914904d1485211448c888828101189444a4404a2884c22284a5295942449929288404444c4880022a2888811014444113122498c8888221241444444818811a14404a28844822812444444148888442225220251442241149108222222220211113122808828220a211191888888880211211181102189448210952822114424494420222222025188884844224604101105a2882451922801444444229224221051442288888828103122948840124511994410452482284904222211494404221249221191242210514422484a1211218488888488481211518122112302888822228a480411111105224684121188221209a248101111512022221229111188221209a2884410458c888828101189444a4404a2884ca2125124a82249118888081131228088282222221111914824222212118944221111444444342222222aa92492542449252a919288442449114922088220082222222208a2882252044110441004110441904882249244924844229120492289482449442422a200220a4444281181281249a2448c0820220a4411994423924444924404228a480449492222222242888808212222228a88880a148991c8884892a2082022898888888888281011114a44044284243280084225a288441011111181888888444644259192444492888888442222052222a2448440149148104582481211291011114444208a4824289254159148248a0844444424912422498248221111111181888888888888888828101111252204a28844826824a90822222222a2404444229112111188221209a2481049222205222282880844118904514422880844444410111111111111111111111111111111114412c98844121111404444811041484844440011110542042121459a0490249552922449a114458226494a41a1144d92a41245820485521409a24890a0508a2241140912144ad188884892922449924892a4440249922449222222914844a2409200928a24492a4a92244912490a24054a812449822449922409201589481248024892044992244992942422221a912492a4244992249124299140922449928824222212481240925224024992942222922422220201049108041189442249441011882448924424128944444404010411894422894010914444442080202202412222929488481248922429224934222292a4244992249148a2888808251089481249228924912449220291882449221289444444042a4a9294244912912492244992a4244922912422890032499224259144924844249124494444922449129124499248922449121111512022914445922449928840444444444444444444101111498288482211499244441289229148944491482422229a244952922449929424494a2949501048921208110c255124284992080249521008022182a1248a044592248240921404824088602889224149922408244941200884088692684424524949922449922449922449524949922449922449924044240a02492409840886926844924849524444444424104992948840444444444444440449922449222222128944240291481240928a48448a44245025499212234992241189442422228224499222924411894422522049218249142a45154992244952554a914825499211892449922449228a8840224924482489248848922491402491249248249124924891544a44659224492a2949922449922449499224494a922429082491241022184aa24912a9244992242949922449922425494992244a12014c0a2491241022184aa2492a292949922449494992201004420443493422225223151111892012894422814844228944221111111124499224892449024d9200924a494a81286a22499255962422224a52494949922449922449494a920481201022184aa211119144029188442222222249922449222222522049000920294512111181248824224404024800419224492009924892049224491111d18888484992484444440491482412094422124924128988888820499224494444242211884444444410554444922449922449922449922449269224499224898814449224419224922022222222221049922489442549529288886844442449499224492249529140524444922449924892244992244992244992244992942422229a24029814482249204430944423924492a444229188042211894444444422024992244922229124111191024902480049299224499224222202499224491211111124494a1111914444442049822489944404024800494a11892422220249524a4a4444442049921491241a1111914a4992128d8848259544928a24a94454225252922415119124229144924822224a1244920892481224229204898844524492488a4424494a1441a4822489208948822422499224494a12944a52924c924492a42449922489449248124992288a22499224499294242289248924229124a2463291241289882810111211082182491452948822419288888802898888484404a2c824822812442022924424121151202224221045261114492a8aa288884814888888884444208a4c228822414444448144444424220251641241140922101111442412894422220a44844404a2c82482a22445514a528424498a4084484a922491449214118888480a49922449929444844829229094244922892425221011911449922421292929118148202222828888882802119188888888488410121111121111111122a588404444442022222992244942525252222222028110214214254a128524218488888888222292249248924492141144440291244144444414818848444444442442088988088988880844444434220288281022184a1a1101441411110144141111014414111111c08802112111111111018c2810111211111111c08802112111111111018c281011121188229294445444041051208a48521251112d8024494a4a92048124298110c15052110512482a2529491449a52425894a529524495224892489449212494424519200924a2aa5444522229128114520529528a994a4245152294949a22455454954a248525114451245944822492411111145928aa2289228224a922449929424494aa5485251144524a9245515492a8aa2885414455249aa9224494aa222222295242525499222892425a9288a2229494551144925499294a4449248225124a9288a924405104024aa2425499292a84491a44a925224959294a448145551912851924412514a249124912211118944118922451449aa8a2495a4aa485249aa8a24551445a42802912a92484992a428251289884a9224a524292222912449511445499294a4544444441149244a522a9124292222494952248a4491888894a4aaa81225518992a8445524a9244992a48844a28aa228291549aa4422258a888822221125495229894a942480a42222114949a5a424492a45a248548992a888244a921449aa22229214119188a4244952122912454444111151248a4401440091a88888242549922222a28888289148294992a4924a9224a9a40000"},"methodIdentifiers":{"STAKE_PER_DAY()":"4a91f7ae","archiveHabit(uint32)":"b650673a","checkIn(uint32,uint64)":"a0145927","claim(uint256)":"379607f5","createHabit(string)":"b683ace1","dailyStatuses(address,uint64,uint32)":"88b21c87","deposit()":"d0e30db0","epochNow()":"222ae786","getActiveHabits(address)":"4bba7e7f","getAllHabits(address)":"ded0e7b8","getContractBalance()":"6f9fb98a","getDailyStatus(address,uint64,uint32)":"eee5ab50","getHabit(address,uint32)":"ff5c23f8","getTotalUserFunds(address)":"2b262fbf","getUserState(address)":"416ae768","habits(address,uint32)":"99626634","prepareDay(uint64)":"48cc36b8","redepositFromClaimable(uint256)":"8f23d36c","settle(address,uint64,uint32)":"9c14eb6e","settleAll(address,uint64,uint32)":"45123cce","totalTreasuryReceived()":"badf162d","treasury()":"61d027b3","userHabitCounters(address)":"0e08454a","userStates(address)":"0ecc535f","withdraw(uint256)":"2e1a7d4d"}},"hash":"b964aec69ae57d3e3046e78af0415c3f68371dd755e1b20a9f3a0892160a51b4","factoryDependencies":{}}}}