{"contracts/HabitTracker.sol":{"HabitTracker":{"abi":[{"inputs":[{"internalType":"address","name":"_treasury","type":"address"}],"stateMutability":"nonpayable","type":"constructor"},{"inputs":[],"name":"AlreadyCheckedIn","type":"error"},{"inputs":[],"name":"AlreadySettled","type":"error"},{"inputs":[],"name":"CannotSettleCurrentDay","type":"error"},{"inputs":[],"name":"DayNotFunded","type":"error"},{"inputs":[],"name":"HabitAlreadyArchived","type":"error"},{"inputs":[],"name":"HabitNotFound","type":"error"},{"inputs":[],"name":"HabitTextTooLong","type":"error"},{"inputs":[],"name":"InsufficientBalance","type":"error"},{"inputs":[],"name":"InvalidAmount","type":"error"},{"inputs":[],"name":"InvalidBatchSize","type":"error"},{"inputs":[],"name":"InvalidEpoch","type":"error"},{"inputs":[],"name":"InvalidTreasury","type":"error"},{"inputs":[],"name":"NotHabitOwner","type":"error"},{"inputs":[],"name":"TransferFailed","type":"error"},{"anonymous":false,"inputs":[{"indexed":true,"internalType":"address","name":"user","type":"address"},{"indexed":true,"internalType":"uint32","name":"habitId","type":"uint32"},{"indexed":true,"internalType":"uint64","name":"epoch","type":"uint64"}],"name":"CheckedIn","type":"event"},{"anonymous":false,"inputs":[{"indexed":true,"internalType":"address","name":"user","type":"address"},{"indexed":false,"internalType":"uint256","name":"amount","type":"uint256"}],"name":"Claimed","type":"event"},{"anonymous":false,"inputs":[{"indexed":true,"internalType":"address","name":"user","type":"address"},{"indexed":true,"internalType":"uint64","name":"epoch","type":"uint64"},{"indexed":false,"internalType":"uint32","name":"fundedCount","type":"uint32"},{"indexed":false,"internalType":"uint32","name":"insufficientCount","type":"uint32"}],"name":"DayPrepared","type":"event"},{"anonymous":false,"inputs":[{"indexed":true,"internalType":"address","name":"user","type":"address"},{"indexed":false,"internalType":"uint256","name":"amount","type":"uint256"}],"name":"Deposited","type":"event"},{"anonymous":false,"inputs":[{"indexed":true,"internalType":"address","name":"user","type":"address"},{"indexed":true,"internalType":"uint32","name":"habitId","type":"uint32"}],"name":"HabitArchived","type":"event"},{"anonymous":false,"inputs":[{"indexed":true,"internalType":"address","name":"user","type":"address"},{"indexed":true,"internalType":"uint32","name":"habitId","type":"uint32"},{"indexed":false,"internalType":"string","name":"text","type":"string"}],"name":"HabitCreated","type":"event"},{"anonymous":false,"inputs":[{"indexed":true,"internalType":"address","name":"user","type":"address"},{"indexed":false,"internalType":"uint256","name":"amount","type":"uint256"}],"name":"RedepositedFromClaimable","type":"event"},{"anonymous":false,"inputs":[{"indexed":true,"internalType":"address","name":"user","type":"address"},{"indexed":true,"internalType":"uint32","name":"habitId","type":"uint32"},{"indexed":true,"internalType":"uint64","name":"epoch","type":"uint64"},{"indexed":false,"internalType":"uint256","name":"slashed","type":"uint256"}],"name":"SettledFail","type":"event"},{"anonymous":false,"inputs":[{"indexed":true,"internalType":"address","name":"user","type":"address"},{"indexed":true,"internalType":"uint32","name":"habitId","type":"uint32"},{"indexed":true,"internalType":"uint64","name":"epoch","type":"uint64"},{"indexed":false,"internalType":"uint256","name":"reward","type":"uint256"}],"name":"SettledSuccess","type":"event"},{"anonymous":false,"inputs":[{"indexed":true,"internalType":"address","name":"user","type":"address"},{"indexed":false,"internalType":"uint256","name":"amount","type":"uint256"}],"name":"Withdrawn","type":"event"},{"inputs":[],"name":"STAKE_PER_DAY","outputs":[{"internalType":"uint256","name":"","type":"uint256"}],"stateMutability":"view","type":"function"},{"inputs":[{"internalType":"uint32","name":"habitId","type":"uint32"}],"name":"archiveHabit","outputs":[],"stateMutability":"nonpayable","type":"function"},{"inputs":[{"internalType":"uint32","name":"habitId","type":"uint32"},{"internalType":"uint64","name":"epoch","type":"uint64"}],"name":"checkIn","outputs":[],"stateMutability":"nonpayable","type":"function"},{"inputs":[{"internalType":"uint256","name":"amount","type":"uint256"}],"name":"claim","outputs":[],"stateMutability":"nonpayable","type":"function"},{"inputs":[{"internalType":"string","name":"text","type":"string"}],"name":"createHabit","outputs":[{"internalType":"uint32","name":"","type":"uint32"}],"stateMutability":"nonpayable","type":"function"},{"inputs":[{"internalType":"address","name":"","type":"address"},{"internalType":"uint64","name":"","type":"uint64"},{"internalType":"uint32","name":"","type":"uint32"}],"name":"dailyStatuses","outputs":[{"internalType":"bool","name":"funded","type":"bool"},{"internalType":"bool","name":"checked","type":"bool"},{"internalType":"bool","name":"settled","type":"bool"}],"stateMutability":"view","type":"function"},{"inputs":[],"name":"deposit","outputs":[],"stateMutability":"payable","type":"function"},{"inputs":[],"name":"epochNow","outputs":[{"internalType":"uint64","name":"","type":"uint64"}],"stateMutability":"view","type":"function"},{"inputs":[{"internalType":"address","name":"user","type":"address"},{"internalType":"uint64","name":"startEpoch","type":"uint64"},{"internalType":"uint32","name":"maxSettlements","type":"uint32"}],"name":"forceSettleAllEpochs","outputs":[],"stateMutability":"nonpayable","type":"function"},{"inputs":[{"internalType":"address","name":"","type":"address"},{"internalType":"uint32","name":"","type":"uint32"}],"name":"habits","outputs":[{"internalType":"uint32","name":"id","type":"uint32"},{"internalType":"address","name":"owner","type":"address"},{"internalType":"string","name":"text","type":"string"},{"internalType":"uint64","name":"createdAtEpoch","type":"uint64"},{"internalType":"bool","name":"archived","type":"bool"}],"stateMutability":"view","type":"function"},{"inputs":[{"internalType":"uint64","name":"epoch","type":"uint64"}],"name":"prepareDay","outputs":[],"stateMutability":"nonpayable","type":"function"},{"inputs":[{"internalType":"uint256","name":"amount","type":"uint256"}],"name":"redepositFromClaimable","outputs":[],"stateMutability":"nonpayable","type":"function"},{"inputs":[{"internalType":"address","name":"user","type":"address"},{"internalType":"uint64","name":"epoch","type":"uint64"},{"internalType":"uint32","name":"habitId","type":"uint32"}],"name":"settle","outputs":[],"stateMutability":"nonpayable","type":"function"},{"inputs":[{"internalType":"address","name":"user","type":"address"},{"internalType":"uint64","name":"epoch","type":"uint64"},{"internalType":"uint32","name":"maxCount","type":"uint32"}],"name":"settleAll","outputs":[],"stateMutability":"nonpayable","type":"function"},{"inputs":[],"name":"totalTreasuryReceived","outputs":[{"internalType":"uint256","name":"","type":"uint256"}],"stateMutability":"view","type":"function"},{"inputs":[],"name":"treasury","outputs":[{"internalType":"address","name":"","type":"address"}],"stateMutability":"view","type":"function"},{"inputs":[{"internalType":"address","name":"","type":"address"}],"name":"userHabitCounters","outputs":[{"internalType":"uint32","name":"","type":"uint32"}],"stateMutability":"view","type":"function"},{"inputs":[{"internalType":"address","name":"","type":"address"}],"name":"userStates","outputs":[{"internalType":"uint256","name":"depositBalance","type":"uint256"},{"internalType":"uint256","name":"blockedBalance","type":"uint256"},{"internalType":"uint256","name":"claimableBalance","type":"uint256"},{"internalType":"uint32","name":"activeHabitCount","type":"uint32"}],"stateMutability":"view","type":"function"},{"inputs":[{"internalType":"uint256","name":"amount","type":"uint256"}],"name":"withdraw","outputs":[],"stateMutability":"nonpayable","type":"function"}],"evm":{"assembly":"// RO data = 0/0 bytes\n// RW data = 364/65984 bytes\n// Stack size = 32768 bytes\n\n// Instructions = 12183\n// Code size = 42898 bytes\n\n      : @0 (gas: 1)\n     0: jump @14 if a0 == a1\n      : @1 (gas: 9)\n     3: a3 = a1 << 0x20\n     6: a3 = a3 >> 0x20\n     9: a4 = a0 << 0x20\n    12: a4 = a4 >> 0x20\n    15: a4 = a4 + a2\n    18: a3 = a3 - a4\n    21: a4 = a2 << 0x1\n    24: a4 = -a4\n    26: jump @7 if a4 >=u a3\n      : @2 (gas: 1)\n    29: jump @11 if a0 >=u a1\n      : @3 (gas: 1)\n    32: jump @14 if a2 == 0\n      : @4 (gas: 3)\n    35: a2 = a2 + a0\n    38: a3 = a0\n    40: fallthrough\n      : @5 (gas: 6)\n    41: a4 = u8 [a1]\n    43: a1 = a1 + 0x1\n    46: a5 = a3 + 0x1\n    49: u8 [a3] = a4\n    51: a3 = a5\n    53: jump @5 if a5 != a2\n      : @6 (gas: 1)\n    56: jump @14\n      : @7 (gas: 1)\n    58: jump @14 if a2 == 0\n      : @8 (gas: 3)\n    61: a2 = a2 + a0\n    64: a3 = a0\n    66: fallthrough\n      : @9 (gas: 6)\n    67: a4 = u8 [a1]\n    69: a1 = a1 + 0x1\n    72: a5 = a3 + 0x1\n    75: u8 [a3] = a4\n    77: a3 = a5\n    79: jump @9 if a5 != a2\n      : @10 (gas: 1)\n    82: jump @14\n      : @11 (gas: 1)\n    84: jump @14 if a2 == 0\n      : @12 (gas: 2)\n    87: i32 a3 = a2 + 0xffffffffffffffff\n    90: fallthrough\n      : @13 (gas: 7)\n    91: a4 = a1 + a3\n    94: a4 = u8 [a4]\n    96: a2 = a2 + 0xffffffffffffffff\n    99: a5 = a0 + a3\n   102: u8 [a5] = a4\n   104: i32 a3 = a3 + 0xffffffffffffffff\n   107: jump @13 if a2 != 0\n      : @14 (gas: 1)\n   110: ret\n      : @15 (gas: 7)\n   112: sp = sp + 0xffffffffffffffe8\n   115: u64 [sp + 0x10] = ra\n   118: u64 [sp + 0x8] = s0\n   121: u64 [sp] = s1\n   123: s1 = 0x20168\n   128: s0 = i32 [0x20168]\n   133: jump @18 if s0 == 0\n      : @16 (gas: 5)\n   136: a0 = 0x301a0\n   141: i32 a0 = a0 + 0\n   143: i32 a1 = s1 + 0\n   145: ecalli 6 // 'get_immutable_data'\n   147: fallthrough\n      : @17 (gas: 3)\n   148: a0 = i32 [0x20168]\n   153: u32 [0x20168] = 0\n   158: jump @19 if a0 <u s0\n      : @18 (gas: 5)\n   161: ra = u64 [sp + 0x10]\n   164: s0 = u64 [sp + 0x8]\n   167: s1 = u64 [sp]\n   169: sp = sp + 0x18\n   172: ret\n      : @19 (gas: 1)\n   174: trap\n      : @20 (gas: 2)\n   175: a1 = i32 [0x20168]\n   180: jump @70 if a1 == 0\n      : @21 (gas: 4)\n   184: a0 = 0x301a0\n   189: i32 a0 = a0 + 0\n   191: ecalli 14 // 'set_immutable_data'\n   193: jump @70\n      : @22 (gas: 8)\n   196: sp = sp + 0xfffffffffffffff0\n   199: u64 [sp + 0x8] = ra\n   202: u64 [sp] = s0\n   204: a2 = a1\n   206: s0 = a0\n   208: a1 = 0x20\n   211: a0 = a2\n   213: ra = 2, jump @37\n      : @23 [@dyn 1] (gas: 100)\n   218: a1 = u8 [a0 + 0x1]\n   221: a2 = u8 [a0]\n   223: a3 = u8 [a0 + 0x2]\n   226: a4 = u8 [a0 + 0x3]\n   229: a1 = a1 << 0x8\n   232: a1 = a1 | a2\n   235: a3 = a3 << 0x10\n   238: a4 = a4 << 0x18\n   241: a3 = a3 | a4\n   244: a1 = a1 | a3\n   247: a2 = u8 [a0 + 0x5]\n   250: a3 = u8 [a0 + 0x4]\n   253: a4 = u8 [a0 + 0x6]\n   256: a5 = u8 [a0 + 0x7]\n   259: a2 = a2 << 0x8\n   262: a2 = a2 | a3\n   265: a4 = a4 << 0x10\n   268: a5 = a5 << 0x18\n   271: a4 = a4 | a5\n   274: a2 = a2 | a4\n   277: a2 = a2 << 0x20\n   280: t0 = a2 | a1\n   283: a2 = u8 [a0 + 0x9]\n   286: a3 = u8 [a0 + 0x8]\n   289: a4 = u8 [a0 + 0xa]\n   292: a5 = u8 [a0 + 0xb]\n   295: a2 = a2 << 0x8\n   298: a2 = a2 | a3\n   301: a4 = a4 << 0x10\n   304: a5 = a5 << 0x18\n   307: a4 = a4 | a5\n   310: a2 = a2 | a4\n   313: a3 = u8 [a0 + 0xd]\n   316: a4 = u8 [a0 + 0xc]\n   319: a5 = u8 [a0 + 0xe]\n   322: a1 = u8 [a0 + 0xf]\n   325: a3 = a3 << 0x8\n   328: a3 = a3 | a4\n   331: a5 = a5 << 0x10\n   334: a1 = a1 << 0x18\n   337: a1 = a1 | a5\n   340: a1 = a1 | a3\n   343: a1 = a1 << 0x20\n   346: t1 = a1 | a2\n   349: a1 = u8 [a0 + 0x11]\n   352: a3 = u8 [a0 + 0x10]\n   355: a4 = u8 [a0 + 0x12]\n   358: a5 = u8 [a0 + 0x13]\n   361: a1 = a1 << 0x8\n   364: a1 = a1 | a3\n   367: a4 = a4 << 0x10\n   370: a5 = a5 << 0x18\n   373: a4 = a4 | a5\n   376: a1 = a1 | a4\n   379: a3 = u8 [a0 + 0x15]\n   382: a4 = u8 [a0 + 0x14]\n   385: a5 = u8 [a0 + 0x16]\n   388: a2 = u8 [a0 + 0x17]\n   391: a3 = a3 << 0x8\n   394: a3 = a3 | a4\n   397: a5 = a5 << 0x10\n   400: a2 = a2 << 0x18\n   403: a2 = a2 | a5\n   406: a2 = a2 | a3\n   409: a2 = a2 << 0x20\n   412: a3 = a2 | a1\n   415: a1 = u8 [a0 + 0x19]\n   418: a2 = u8 [a0 + 0x18]\n   421: a4 = u8 [a0 + 0x1a]\n   424: a5 = u8 [a0 + 0x1b]\n   427: a1 = a1 << 0x8\n   430: a1 = a1 | a2\n   433: a4 = a4 << 0x10\n   436: a5 = a5 << 0x18\n   439: a4 = a4 | a5\n   442: a1 = a1 | a4\n   445: a2 = u8 [a0 + 0x1d]\n   448: a4 = u8 [a0 + 0x1c]\n   451: a5 = u8 [a0 + 0x1e]\n   454: a0 = u8 [a0 + 0x1f]\n   457: a2 = a2 << 0x8\n   460: a2 = a2 | a4\n   463: a5 = a5 << 0x10\n   466: a0 = a0 << 0x18\n   469: a0 = a0 | a5\n   472: a0 = a0 | a2\n   475: a0 = a0 << 0x20\n   478: a0 = a0 | a1\n   481: a0 = reverse a0\n   483: a1 = reverse a3\n   485: a2 = reverse t1\n   487: a3 = reverse t0\n   489: u64 [s0 + 0x18] = a3\n   492: u64 [s0 + 0x10] = a2\n   495: u64 [s0 + 0x8] = a1\n   498: u64 [s0] = a0\n   500: ra = u64 [sp + 0x8]\n   503: s0 = u64 [sp]\n   505: sp = sp + 0x10\n   508: ret\n      : @24 (gas: 12)\n   510: sp = sp + 0xffffffffffffffd8\n   513: u64 [sp + 0x20] = ra\n   516: u64 [sp + 0x18] = s0\n   519: u64 [sp + 0x10] = s1\n   522: a2 = u64 [a1]\n   524: u64 [sp + 0x8] = a2\n   527: a2 = u64 [a1 + 0x8]\n   530: u64 [sp] = a2\n   532: s0 = u64 [a1 + 0x10]\n   535: s1 = u64 [a1 + 0x18]\n   538: a1 = 0x20\n   541: ra = 4, jump @37\n      : @25 [@dyn 2] (gas: 71)\n   546: a1 = reverse s1\n   548: a2 = reverse s0\n   550: a3 = u64 [sp]\n   552: a3 = reverse a3\n   554: a4 = u64 [sp + 0x8]\n   557: a4 = reverse a4\n   559: u8 [a0 + 0x18] = a4\n   562: u8 [a0 + 0x10] = a3\n   565: u8 [a0 + 0x8] = a2\n   568: u8 [a0] = a1\n   570: a5 = a4 >> 0x38\n   573: u8 [a0 + 0x1f] = a5\n   576: a5 = a4 >> 0x30\n   579: u8 [a0 + 0x1e] = a5\n   582: a5 = a4 >> 0x28\n   585: u8 [a0 + 0x1d] = a5\n   588: a5 = a4 >> 0x20\n   591: u8 [a0 + 0x1c] = a5\n   594: a5 = a4 >> 0x18\n   597: u8 [a0 + 0x1b] = a5\n   600: a5 = a4 >> 0x10\n   603: u8 [a0 + 0x1a] = a5\n   606: a4 = a4 >> 0x8\n   609: u8 [a0 + 0x19] = a4\n   612: a4 = a3 >> 0x38\n   615: u8 [a0 + 0x17] = a4\n   618: a4 = a3 >> 0x30\n   621: u8 [a0 + 0x16] = a4\n   624: a4 = a3 >> 0x28\n   627: u8 [a0 + 0x15] = a4\n   630: a4 = a3 >> 0x20\n   633: u8 [a0 + 0x14] = a4\n   636: a4 = a3 >> 0x18\n   639: u8 [a0 + 0x13] = a4\n   642: a4 = a3 >> 0x10\n   645: u8 [a0 + 0x12] = a4\n   648: a3 = a3 >> 0x8\n   651: u8 [a0 + 0x11] = a3\n   654: a3 = a2 >> 0x38\n   657: u8 [a0 + 0xf] = a3\n   660: a3 = a2 >> 0x30\n   663: u8 [a0 + 0xe] = a3\n   666: a3 = a2 >> 0x28\n   669: u8 [a0 + 0xd] = a3\n   672: a3 = a2 >> 0x20\n   675: u8 [a0 + 0xc] = a3\n   678: a3 = a2 >> 0x18\n   681: u8 [a0 + 0xb] = a3\n   684: a3 = a2 >> 0x10\n   687: u8 [a0 + 0xa] = a3\n   690: a2 = a2 >> 0x8\n   693: u8 [a0 + 0x9] = a2\n   696: a2 = a1 >> 0x38\n   699: u8 [a0 + 0x7] = a2\n   702: a2 = a1 >> 0x30\n   705: u8 [a0 + 0x6] = a2\n   708: a2 = a1 >> 0x28\n   711: u8 [a0 + 0x5] = a2\n   714: a2 = a1 >> 0x20\n   717: u8 [a0 + 0x4] = a2\n   720: a2 = a1 >> 0x18\n   723: u8 [a0 + 0x3] = a2\n   726: a2 = a1 >> 0x10\n   729: u8 [a0 + 0x2] = a2\n   732: a1 = a1 >> 0x8\n   735: u8 [a0 + 0x1] = a1\n   738: ra = u64 [sp + 0x20]\n   741: s0 = u64 [sp + 0x18]\n   744: s1 = u64 [sp + 0x10]\n   747: sp = sp + 0x28\n   750: ret\n      : @26 (gas: 43)\n   752: sp = sp + 0xffffffffffffffa0\n   755: u64 [sp + 0x58] = ra\n   758: u64 [sp + 0x50] = s0\n   761: u64 [sp + 0x48] = s1\n   764: s0 = sp + 0x60\n   767: sp = sp & 0xffffffffffffffe0\n   770: s1 = a0\n   772: a0 = u64 [a1 + 0x18]\n   775: a2 = u64 [a1 + 0x10]\n   778: a3 = u64 [a1 + 0x8]\n   781: a1 = u64 [a1]\n   783: a0 = reverse a0\n   785: a2 = reverse a2\n   787: a3 = reverse a3\n   789: a1 = reverse a1\n   791: u64 [sp + 0x18] = a1\n   794: u64 [sp + 0x10] = a3\n   797: u64 [sp + 0x8] = a2\n   800: u64 [sp] = a0\n   802: u64 [sp + 56] = 0\n   805: u64 [sp + 48] = 0\n   808: u64 [sp + 40] = 0\n   811: u64 [sp + 32] = 0\n   814: u32 [sp + 64] = 0x20\n   818: i32 a1 = sp + 0\n   820: i32 a3 = sp + 0x20\n   823: i32 a4 = sp + 0x40\n   826: a2 = 0xffffffffffffffff\n   829: a0 = 0\n   831: ecalli 7 // 'get_storage'\n   833: a0 = u64 [sp + 0x38]\n   836: a1 = u64 [sp + 0x30]\n   839: a2 = u64 [sp + 0x28]\n   842: a3 = u64 [sp + 0x20]\n   845: a0 = reverse a0\n   847: a1 = reverse a1\n   849: a2 = reverse a2\n   851: a3 = reverse a3\n   853: u64 [s1 + 0x18] = a3\n   856: u64 [s1 + 0x10] = a2\n   859: u64 [s1 + 0x8] = a1\n   862: u64 [s1] = a0\n   864: t0 = 6, jump @1565\n      : @27 [@dyn 3] (gas: 1)\n   870: ret\n      : @28 (gas: 40)\n   872: sp = sp + 0xffffffffffffffa0\n   875: u64 [sp + 0x58] = ra\n   878: u64 [sp + 0x50] = s0\n   881: s0 = sp + 0x60\n   884: sp = sp & 0xffffffffffffffe0\n   887: t0 = u64 [a0]\n   889: a3 = u64 [a0 + 0x8]\n   892: a4 = u64 [a0 + 0x10]\n   895: a0 = u64 [a0 + 0x18]\n   898: t1 = u64 [a1]\n   900: a2 = u64 [a1 + 0x8]\n   903: a5 = u64 [a1 + 0x10]\n   906: a1 = u64 [a1 + 0x18]\n   909: t2 = reverse a0\n   911: a4 = reverse a4\n   913: a3 = reverse a3\n   915: a0 = reverse t0\n   917: t0 = reverse a1\n   919: a5 = reverse a5\n   921: a2 = reverse a2\n   923: a1 = reverse t1\n   925: u64 [sp + 0x18] = a0\n   928: u64 [sp + 0x10] = a3\n   931: u64 [sp + 0x8] = a4\n   934: u64 [sp] = t2\n   936: u64 [sp + 0x38] = a1\n   939: u64 [sp + 0x30] = a2\n   942: u64 [sp + 0x28] = a5\n   945: u64 [sp + 0x20] = t0\n   948: i32 a1 = sp + 0\n   950: i32 a3 = sp + 0x20\n   953: a2 = 0xffffffffffffffff\n   956: a4 = 0x20\n   959: a0 = 0\n   961: ecalli 15 // 'set_storage'\n   963: sp = s0 + 0xffffffffffffffa0\n   966: ra = u64 [sp + 0x58]\n   969: s0 = u64 [sp + 0x50]\n   972: sp = sp + 0x60\n   975: ret\n      : @29 (gas: 24)\n   977: sp = sp + 0xffffffffffffff60\n   981: u64 [sp + 0x98] = ra\n   985: u64 [sp + 0x90] = s0\n   989: u64 [sp + 0x88] = s1\n   993: s0 = sp + 0xa0\n   997: sp = sp & 0xffffffffffffffe0\n  1000: a4 = u64 [a3]\n  1002: u64 [sp + 0x38] = a4\n  1005: a4 = u64 [a3 + 0x8]\n  1008: u64 [sp + 0x30] = a4\n  1011: a4 = u64 [a3 + 0x10]\n  1014: u64 [sp + 0x28] = a4\n  1017: a3 = u64 [a3 + 0x18]\n  1020: u64 [sp + 0x20] = a3\n  1023: a3 = u64 [a2]\n  1025: u64 [sp + 0x18] = a3\n  1028: a3 = u64 [a2 + 0x8]\n  1031: u64 [sp + 0x10] = a3\n  1034: a3 = u64 [a2 + 0x10]\n  1037: u64 [sp + 0x8] = a3\n  1040: a2 = u64 [a2 + 0x18]\n  1043: u64 [sp] = a2\n  1045: s1 = a1\n  1047: ra = 8, jump @37\n      : @30 [@dyn 4] (gas: 35)\n  1052: a1 = u64 [sp]\n  1054: a1 = reverse a1\n  1056: a2 = u64 [sp + 0x8]\n  1059: a2 = reverse a2\n  1061: a3 = u64 [sp + 0x10]\n  1064: a3 = reverse a3\n  1066: a4 = u64 [sp + 0x18]\n  1069: a4 = reverse a4\n  1071: u64 [sp + 0x58] = a4\n  1074: u64 [sp + 0x50] = a3\n  1077: u64 [sp + 0x48] = a2\n  1080: u64 [sp + 0x40] = a1\n  1083: a1 = u64 [sp + 0x20]\n  1086: a1 = reverse a1\n  1088: a2 = u64 [sp + 0x28]\n  1091: a2 = reverse a2\n  1093: a3 = u64 [sp + 0x30]\n  1096: a3 = reverse a3\n  1098: a4 = u64 [sp + 0x38]\n  1101: a4 = reverse a4\n  1103: u64 [sp + 0x78] = a4\n  1106: u64 [sp + 0x70] = a3\n  1109: u64 [sp + 0x68] = a2\n  1112: u64 [sp + 0x60] = a1\n  1115: i32 a2 = a0 + 0\n  1117: i32 a3 = s1 + 0\n  1119: i32 a0 = sp + 0x40\n  1122: a1 = 0x2\n  1125: ecalli 5 // 'deposit_event'\n  1127: sp = s0 + 0xffffffffffffff60\n  1131: ra = u64 [sp + 0x98]\n  1135: s0 = u64 [sp + 0x90]\n  1139: s1 = u64 [sp + 0x88]\n  1143: sp = sp + 0xa0\n  1147: ret\n      : @31 (gas: 15)\n  1149: sp = sp + 0xffffffffffffff20\n  1153: u64 [sp + 0xd8] = ra\n  1157: u64 [sp + 0xd0] = s0\n  1161: u64 [sp + 0xc8] = s1\n  1165: s0 = sp + 0xe0\n  1169: sp = sp & 0xffffffffffffffe0\n  1172: a5 = u64 [a4]\n  1174: u64 [sp + 0x40] = a5\n  1177: a5 = u64 [a4 + 0x8]\n  1180: u64 [sp + 0x48] = a5\n  1183: a5 = u64 [a4 + 0x10]\n  1186: u64 [sp + 0x50] = a5\n  1189: a4 = u64 [a4 + 0x18]\n  1192: u64 [sp + 0x58] = a4\n  1195: t0 = 10, jump @1536\n      : @32 [@dyn 5] (gas: 2)\n  1201: u64 [sp + 0x38] = a1\n  1204: ra = 12, jump @37\n      : @33 [@dyn 6] (gas: 46)\n  1209: a1 = reverse s1\n  1211: u64 [sp + 0x78] = a1\n  1214: a1 = u64 [sp]\n  1216: a1 = reverse a1\n  1218: u64 [sp + 0x70] = a1\n  1221: a1 = u64 [sp + 0x8]\n  1224: a1 = reverse a1\n  1226: u64 [sp + 0x68] = a1\n  1229: a1 = u64 [sp + 0x10]\n  1232: a1 = reverse a1\n  1234: u64 [sp + 0x60] = a1\n  1237: a1 = u64 [sp + 0x18]\n  1240: a1 = reverse a1\n  1242: u64 [sp + 0x98] = a1\n  1246: a1 = u64 [sp + 0x20]\n  1249: a1 = reverse a1\n  1251: u64 [sp + 0x90] = a1\n  1255: a1 = u64 [sp + 0x28]\n  1258: a1 = reverse a1\n  1260: u64 [sp + 0x88] = a1\n  1264: a1 = u64 [sp + 0x30]\n  1267: a1 = reverse a1\n  1269: u64 [sp + 0x80] = a1\n  1273: a1 = u64 [sp + 0x40]\n  1276: a1 = reverse a1\n  1278: u64 [sp + 0xb8] = a1\n  1282: a1 = u64 [sp + 0x48]\n  1285: a1 = reverse a1\n  1287: u64 [sp + 0xb0] = a1\n  1291: a1 = u64 [sp + 0x50]\n  1294: a1 = reverse a1\n  1296: u64 [sp + 0xa8] = a1\n  1300: a1 = u64 [sp + 0x58]\n  1303: a1 = reverse a1\n  1305: u64 [sp + 0xa0] = a1\n  1309: i32 a2 = a0 + 0\n  1311: a3 = i32 [sp + 0x38]\n  1314: i32 a0 = sp + 0x60\n  1317: a1 = 0x3\n  1320: ecalli 5 // 'deposit_event'\n  1322: sp = s0 + 0xffffffffffffff20\n  1326: ra = u64 [sp + 0xd8]\n  1330: s0 = u64 [sp + 0xd0]\n  1334: s1 = u64 [sp + 0xc8]\n  1338: sp = sp + 0xe0\n  1342: ret\n      : @34 (gas: 23)\n  1344: sp = sp + 0xfffffffffffffee0\n  1348: u64 [sp + 0x118] = ra\n  1352: u64 [sp + 0x110] = s0\n  1356: u64 [sp + 0x108] = s1\n  1360: s0 = sp + 0x120\n  1364: sp = sp & 0xffffffffffffffe0\n  1367: s1 = u64 [a5]\n  1369: u64 [sp + 0x60] = s1\n  1372: s1 = u64 [a5 + 0x8]\n  1375: u64 [sp + 0x68] = s1\n  1378: s1 = u64 [a5 + 0x10]\n  1381: u64 [sp + 0x70] = s1\n  1384: a5 = u64 [a5 + 0x18]\n  1387: u64 [sp + 0x78] = a5\n  1390: a5 = u64 [a4]\n  1392: u64 [sp + 0x38] = a5\n  1395: a5 = u64 [a4 + 0x8]\n  1398: u64 [sp + 0x40] = a5\n  1401: a5 = u64 [a4 + 0x10]\n  1404: u64 [sp + 0x48] = a5\n  1407: a4 = u64 [a4 + 0x18]\n  1410: u64 [sp + 0x50] = a4\n  1413: t0 = 14, jump @1536\n      : @35 [@dyn 7] (gas: 2)\n  1419: u64 [sp + 0x58] = a1\n  1422: ra = 16, jump @37\n      : @36 [@dyn 8] (gas: 58)\n  1427: a1 = reverse s1\n  1429: u64 [sp + 0x98] = a1\n  1433: a1 = u64 [sp]\n  1435: a1 = reverse a1\n  1437: u64 [sp + 0x90] = a1\n  1441: a1 = u64 [sp + 0x8]\n  1444: a1 = reverse a1\n  1446: u64 [sp + 0x88] = a1\n  1450: a1 = u64 [sp + 0x10]\n  1453: a1 = reverse a1\n  1455: u64 [sp + 0x80] = a1\n  1459: a1 = u64 [sp + 0x18]\n  1462: a1 = reverse a1\n  1464: u64 [sp + 0xb8] = a1\n  1468: a1 = u64 [sp + 0x20]\n  1471: a1 = reverse a1\n  1473: u64 [sp + 0xb0] = a1\n  1477: a1 = u64 [sp + 0x28]\n  1480: a1 = reverse a1\n  1482: u64 [sp + 0xa8] = a1\n  1486: a1 = u64 [sp + 0x30]\n  1489: a1 = reverse a1\n  1491: u64 [sp + 0xa0] = a1\n  1495: a1 = u64 [sp + 0x38]\n  1498: a1 = reverse a1\n  1500: u64 [sp + 0xd8] = a1\n  1504: a1 = u64 [sp + 0x40]\n  1507: a1 = reverse a1\n  1509: u64 [sp + 0xd0] = a1\n  1513: a1 = u64 [sp + 0x48]\n  1516: a1 = reverse a1\n  1518: u64 [sp + 0xc8] = a1\n  1522: a1 = u64 [sp + 0x50]\n  1525: a1 = reverse a1\n  1527: u64 [sp + 0xc0] = a1\n  1531: a1 = u64 [sp + 0x60]\n  1534: a1 = reverse a1\n  1536: u64 [sp + 0xf8] = a1\n  1540: a1 = u64 [sp + 0x68]\n  1543: a1 = reverse a1\n  1545: u64 [sp + 0xf0] = a1\n  1549: a1 = u64 [sp + 0x70]\n  1552: a1 = reverse a1\n  1554: u64 [sp + 0xe8] = a1\n  1558: a1 = u64 [sp + 0x78]\n  1561: a1 = reverse a1\n  1563: u64 [sp + 0xe0] = a1\n  1567: i32 a2 = a0 + 0\n  1569: a3 = i32 [sp + 0x58]\n  1572: i32 a0 = sp + 0x80\n  1576: a1 = 0x4\n  1579: ecalli 5 // 'deposit_event'\n  1581: sp = s0 + 0xfffffffffffffee0\n  1585: ra = u64 [sp + 0x118]\n  1589: s0 = u64 [sp + 0x110]\n  1593: s1 = u64 [sp + 0x108]\n  1597: sp = sp + 0x120\n  1601: ret\n      : @37 (gas: 2)\n  1603: i32 a2 = a0 >> 0x10\n  1606: jump @42 if a2 != 0\n      : @38 (gas: 4)\n  1609: a1 = a1 + a0\n  1612: i32 a1 = a1 + 0x1f\n  1615: a1 = a1 & 0xffffffffffffffe0\n  1618: jump @42 if a1 >u 65536\n      : @39 (gas: 3)\n  1624: a2 = 0x20170\n  1629: a3 = i32 [0x20170]\n  1634: jump @41 if a3 >=u a1\n      : @40 (gas: 2)\n  1637: u32 [0x20170] = a1\n  1642: fallthrough\n      : @41 (gas: 4)\n  1643: a1 = 0x20180\n  1648: i32 a0 = a0 + 0\n  1650: a0 = a0 + a1\n  1653: ret\n      : @42 (gas: 1)\n  1655: trap\n      : @43 (gas: 6)\n  1656: sp = sp + 0xfffffffffffffff0\n  1659: u64 [sp + 0x8] = ra\n  1662: u64 [sp] = s0\n  1664: s0 = a0 & 0x1\n  1667: ecalli 3 // 'call_data_size'\n  1669: fallthrough\n      : @44 (gas: 2)\n  1670: u32 [0x2016c] = a0\n  1675: jump @46 if s0 == 0\n      : @45 (gas: 1)\n  1678: ra = 18, jump @47\n      : @46 [@dyn 9] (gas: 1)\n  1682: ra = 20, jump @73\n      : @47 [@dyn 10] (gas: 13)\n  1687: sp = sp + 0xffffffffffffff00\n  1691: u64 [sp + 0xf8] = ra\n  1695: u64 [sp + 0xf0] = s0\n  1699: u64 [sp + 0xe8] = s1\n  1703: s0 = sp + 0x100\n  1707: sp = sp & 0xffffffffffffffe0\n  1710: u64 [sp + 216] = 0\n  1714: u64 [sp + 208] = 0\n  1718: u64 [sp + 200] = 0\n  1722: u64 [sp + 192] = 0\n  1726: i32 a0 = sp + 0xc0\n  1730: ecalli 16 // 'value_transferred'\n  1732: fallthrough\n      : @48 (gas: 8)\n  1733: a0 = u64 [sp + 0xd0]\n  1737: a1 = u64 [sp + 0xd8]\n  1741: a2 = u64 [sp + 0xc8]\n  1745: a3 = u64 [sp + 0xc0]\n  1749: a1 = a1 | a2\n  1752: a0 = a0 | a3\n  1755: a0 = a0 | a1\n  1758: jump @60 if a0 != 0\n      : @49 (gas: 15)\n  1762: s1 = i32 [0x2016c]\n  1767: a0 = s1 << 0x20\n  1770: a0 = a0 >> 0x20\n  1773: a0 = a0 + 0x1f\n  1776: a0 = a0 & 0xffffffffffffffe0\n  1779: a1 = a0 + 0xa0\n  1783: a0 = a1 <u a0\n  1786: u64 [sp + 0xa0] = a1\n  1790: u64 [sp + 0xa8] = a0\n  1794: a0 = 0 if a0 != 0\n  1796: u64 [sp + 0xb0] = a0\n  1800: a0 = 0x40\n  1803: a1 = sp + 0xa0\n  1807: u64 [sp + 184] = 0\n  1811: ra = 22, jump @24\n      : @50 [@dyn 11] (gas: 3)\n  1816: a0 = 0xa0\n  1820: a1 = s1\n  1822: ra = 24, jump @37\n      : @51 [@dyn 12] (gas: 5)\n  1827: i32 a0 = a0 + 0\n  1829: a1 = s1\n  1831: a2 = 0\n  1833: ecalli 1 // 'call_data_copy'\n  1835: fallthrough\n      : @52 (gas: 1)\n  1836: jump @61 if s1 <=u 31\n      : @53 (gas: 3)\n  1841: a0 = sp + 0x80\n  1845: a1 = 0xa0\n  1849: ra = 26, jump @22\n      : @54 [@dyn 13] (gas: 10)\n  1854: a0 = u64 [sp + 0x90]\n  1858: a2 = u64 [sp + 0x98]\n  1862: a1 = 0x100000000\n  1872: a1 = a1 ^ a0\n  1875: a1 = a1 | a2\n  1878: a3 = a0 >> 0x20\n  1881: a3 = a3 <u 0x1\n  1884: a3 = 0 if a2 != 0\n  1886: a3 = 0 if a1 == 0\n  1888: jump @62 if a3 == 0\n      : @55 (gas: 6)\n  1891: a1 = u64 [sp + 0x80]\n  1895: a3 = u64 [sp + 0x88]\n  1899: a4 = a1 | a0\n  1902: a5 = a3 | a2\n  1905: a4 = a4 | a5\n  1908: jump @63 if a4 == 0\n      : @56 (gas: 7)\n  1911: u64 [sp + 0x60] = a1\n  1914: u64 [sp + 0x68] = a3\n  1917: u64 [sp + 0x70] = a0\n  1920: a0 = 0x80\n  1924: a1 = sp + 0x60\n  1927: u64 [sp + 0x78] = a2\n  1930: ra = 28, jump @24\n      : @57 [@dyn 14] (gas: 3)\n  1935: a0 = sp + 0x40\n  1938: a1 = 0x40\n  1941: ra = 30, jump @22\n      : @58 [@dyn 15] (gas: 12)\n  1946: a0 = u64 [sp + 0x58]\n  1949: a1 = u64 [sp + 0x50]\n  1952: a2 = u64 [sp + 0x48]\n  1955: s1 = u64 [sp + 0x40]\n  1958: a0 = a0 | a2\n  1961: a2 = s1 | a1\n  1964: a2 = a2 | a0\n  1967: a2 = a2 >> 0x20\n  1970: a0 = a0 | a1\n  1973: a0 = a0 << 0x20\n  1976: a0 = a0 | a2\n  1979: jump @67 if a0 == 0\n      : @59 (gas: 1)\n  1982: trap\n      : @60 (gas: 4)\n  1983: a1 = 0x20180\n  1988: i32 a1 = a1 + 0\n  1990: a0 = 0x1\n  1993: jump @72\n      : @61 (gas: 4)\n  1996: a1 = 0x20180\n  2001: i32 a1 = a1 + 0\n  2003: a0 = 0x1\n  2006: jump @72\n      : @62 (gas: 4)\n  2009: a1 = 0x20180\n  2014: i32 a1 = a1 + 0\n  2016: a0 = 0x1\n  2019: jump @72\n      : @63 (gas: 8)\n  2022: u64 [sp + 16] = 0\n  2025: u64 [sp + 8] = 0\n  2028: u64 [sp + 0] = 0\n  2030: a0 = 0x14bcf5c800000000\n  2040: a1 = sp\n  2042: u64 [sp + 0x18] = a0\n  2045: a0 = 0\n  2047: ra = 32, jump @24\n      : @64 [@dyn 16] (gas: 2)\n  2052: a1 = i32 [0x20170]\n  2057: jump @66 if a1 >u 31\n      : @65 (gas: 2)\n  2061: u32 [0x20170] = 0x20\n  2067: fallthrough\n      : @66 (gas: 6)\n  2068: a1 = 0x20180\n  2073: i32 a1 = a1 + 0\n  2075: a0 = 0x1\n  2078: a2 = 0x4\n  2081: ecalli 13 // 'seal_return'\n  2083: fallthrough\n      : @67 (gas: 3)\n  2084: a0 = s1\n  2086: a1 = 0\n  2088: ra = 34, jump @37\n      : @68 [@dyn 17] (gas: 7)\n  2093: i32 a0 = a0 + 0\n  2095: a1 = 0\n  2097: a2 = 0\n  2099: ecalli 1 // 'call_data_copy'\n  2101: a0 = sp + 0x20\n  2104: a1 = 0x80\n  2108: ra = 36, jump @22\n      : @69 [@dyn 18] (gas: 9)\n  2113: a0 = u64 [sp + 0x38]\n  2116: a2 = u64 [sp + 0x30]\n  2119: a3 = u64 [sp + 0x28]\n  2122: a4 = u64 [sp + 0x20]\n  2125: u64 [0x301b8] = a0\n  2130: u64 [0x301b0] = a2\n  2135: u64 [0x301a8] = a3\n  2140: u64 [0x301a0] = a4\n  2145: jump @20\n      : @70 (gas: 3)\n  2148: a0 = s1\n  2150: a1 = 0\n  2152: ra = 38, jump @37\n      : @71 [@dyn 19] (gas: 6)\n  2157: i32 a1 = a0 + 0\n  2159: a0 = 0\n  2161: a2 = 0\n  2163: ra = 0x28\n  2166: ecalli 13 // 'seal_return'\n  2168: jump @73\n      : @72 (gas: 4)\n  2170: a2 = 0\n  2172: ra = 0x28\n  2175: ecalli 13 // 'seal_return'\n  2177: fallthrough\n      : @73 [@dyn 20] (gas: 16)\n  2178: sp = sp + 0xfffffffffffffe10\n  2182: u64 [sp + 0x1e8] = ra\n  2186: u64 [sp + 0x1e0] = s0\n  2190: u64 [sp + 0x1d8] = s1\n  2194: s0 = sp + 0x1f0\n  2198: sp = sp + 0xffffffffffffd1f0\n  2202: sp = sp & 0xffffffffffffffe0\n  2205: s1 = sp\n  2207: a2 = s1 + 0x2118\n  2211: u64 [a2 + 1536] = 0\n  2215: u64 [a2 + 1528] = 0\n  2219: u64 [a2 + 1512] = 0x80\n  2225: a0 = 0x40\n  2228: a1 = s1 + 0x2700\n  2232: u64 [a2 + 1520] = 0\n  2236: ra = 42, jump @24\n      : @74 [@dyn 21] (gas: 4)\n  2241: a0 = 0x2016c\n  2246: u64 [s1 + 0x198] = a0\n  2250: a0 = i32 [0x2016c]\n  2255: jump @76 if a0 >=u 4\n      : @75 (gas: 1)\n  2259: jump @1043\n      : @76 (gas: 6)\n  2262: a0 = s1 + 0x2000\n  2266: i32 a0 = a0 + 0x720\n  2270: a1 = 0\n  2272: ra = 0x2c\n  2275: ecalli 2 // 'call_data_load'\n  2277: fallthrough\n      : @77 [@dyn 22] (gas: 3)\n  2278: a2 = s1 + 0x2118\n  2282: a0 = i32 [a2 + 0x624]\n  2286: jump @79 if a0 != 2293374087\n      : @78 (gas: 1)\n  2293: jump @284\n      : @79 (gas: 1)\n  2296: jump @155 if a0 == 2401489772\n      : @80 (gas: 1)\n  2304: jump @82 if a0 != 2573362740\n      : @81 (gas: 1)\n  2311: jump @437\n      : @82 (gas: 1)\n  2314: jump @84 if a0 != 3062082785\n      : @83 (gas: 1)\n  2321: jump @331\n      : @84 (gas: 1)\n  2324: jump @106 if a0 == 3135182381\n      : @85 (gas: 1)\n  2332: jump @87 if a0 != 3504541104\n      : @86 (gas: 1)\n  2339: jump @405\n      : @87 (gas: 1)\n  2342: jump @188 if a0 == 248271711\n      : @88 (gas: 1)\n  2350: jump @90 if a0 != 573237126\n      : @89 (gas: 1)\n  2357: jump @378\n      : @90 (gas: 1)\n  2360: jump @119 if a0 == 773487949\n      : @91 (gas: 1)\n  2368: jump @225 if a0 == 932579317\n      : @92 (gas: 1)\n  2376: jump @94 if a0 != 1221342904\n      : @93 (gas: 1)\n  2383: jump @261\n      : @94 (gas: 1)\n  2386: jump @96 if a0 == 1251080110\n      : @95 (gas: 1)\n  2393: jump @474\n      : @96 (gas: 11)\n  2396: a0 = s1 + 0x2918\n  2400: u64 [a0 + 544] = 0\n  2404: u64 [a0 + 536] = 0\n  2408: u64 [a0 + 528] = 0\n  2412: u64 [a0 + 520] = 0\n  2416: a0 = s1 + 0x3000\n  2420: i32 a0 = a0 + 0xfffffffffffffb20\n  2424: ra = 0x2e\n  2427: ecalli 16 // 'value_transferred'\n  2429: t0 = 0x30\n  2432: jump @1532\n      : @97 [@dyn 23] (gas: 1)\n  2436: t0 = 48, jump @1532\n      : @98 [@dyn 24] (gas: 8)\n  2442: a0 = u64 [a4 + 0x18]\n  2445: a1 = u64 [a4 + 0x20]\n  2448: a2 = u64 [a4 + 0x10]\n  2451: a3 = u64 [a4 + 0x8]\n  2454: a1 = a1 | a2\n  2457: a0 = a0 | a3\n  2460: a0 = a0 | a1\n  2463: jump @100 if a0 == 0\n      : @99 (gas: 1)\n  2466: jump @782\n      : @100 (gas: 3)\n  2469: a0 = u64 [s1 + 0x198]\n  2473: a0 = i32 [a0]\n  2475: jump @102 if a0 >u 3\n      : @101 (gas: 1)\n  2479: jump @783\n      : @102 (gas: 3)\n  2482: a0 = s1 + 0x1060\n  2486: a1 = 0x40\n  2489: ra = 50, jump @22\n      : @103 [@dyn 25] (gas: 15)\n  2494: a3 = s1 + 0x7ff\n  2498: a3 = a3 + 0x119\n  2502: a5 = a3 + 0x700\n  2506: a4 = u64 [a5 + 0x60]\n  2509: a1 = u64 [a5 + 0x58]\n  2512: a2 = u64 [a5 + 0x50]\n  2515: a0 = u64 [a5 + 0x48]\n  2518: a4 = a4 | a2\n  2521: a2 = a0 | a1\n  2524: a2 = a2 | a4\n  2527: a2 = a2 >> 0x20\n  2530: a1 = a1 | a4\n  2533: a1 = a1 << 0x20\n  2536: a1 = a1 | a2\n  2539: jump @105 if a1 == 0\n      : @104 (gas: 1)\n  2542: jump @781\n      : @105 (gas: 9)\n  2545: a1 = u64 [0x200a0]\n  2550: u64 [a3 + 1856] = 0\n  2554: u64 [a3 + 1848] = 0\n  2558: u64 [a3 + 0x728] = a1\n  2562: a1 = s1 + 0x1040\n  2566: u64 [a3 + 1840] = 0\n  2570: u64 [s1 + 0x198] = a0\n  2574: ra = 0x3e\n  2577: jump @24\n      : @106 (gas: 12)\n  2580: a0 = s1 + 0x2918\n  2584: u64 [a0 + 1600] = 0\n  2588: u64 [a0 + 1592] = 0\n  2592: u64 [a0 + 1584] = 0\n  2596: u64 [a0 + 1576] = 0\n  2600: a0 = s1 + 0x3000\n  2604: i32 a0 = a0 + 0xffffffffffffff40\n  2608: ra = 0x34\n  2611: ecalli 16 // 'value_transferred'\n  2613: a0 = 0x3000\n  2617: t0 = 0x36\n  2620: jump @1569\n      : @107 [@dyn 26] (gas: 2)\n  2624: a0 = 0x3000\n  2628: t0 = 54, jump @1569\n      : @108 [@dyn 27] (gas: 1)\n  2634: t0 = 56, jump @1544\n      : @109 [@dyn 28] (gas: 1)\n  2640: jump @111 if a0 == 0\n      : @110 (gas: 1)\n  2643: jump @784\n      : @111 (gas: 3)\n  2646: a0 = u64 [s1 + 0x198]\n  2650: a0 = i32 [a0]\n  2652: jump @113 if a0 >u 3\n      : @112 (gas: 1)\n  2656: jump @785\n      : @113 (gas: 8)\n  2659: a0 = s1 + 0x2918\n  2663: u64 [a0 + 1632] = 0\n  2667: u64 [a0 + 1624] = 0\n  2671: u64 [a0 + 1616] = 0\n  2675: u64 [a0 + 1608] = 0\n  2679: a0 = s1 + 0x25a0\n  2683: a1 = s1 + 0x2f60\n  2687: ra = 58, jump @26\n      : @114 [@dyn 29] (gas: 14)\n  2692: a1 = s1 + 0x2118\n  2696: a2 = a1 + 0x400\n  2700: a0 = u64 [a2 + 0xa0]\n  2704: a1 = s1 + 0x100\n  2708: u64 [a1 + 0x98] = a0\n  2712: a0 = u64 [a2 + 0x98]\n  2716: u64 [a1 + 0x90] = a0\n  2720: a0 = u64 [a2 + 0x90]\n  2724: u64 [a1 + 0x88] = a0\n  2728: a0 = u64 [a2 + 0x88]\n  2732: u64 [a1 + 0x80] = a0\n  2736: a0 = s1 + 0x2580\n  2740: a1 = 0x40\n  2743: ra = 60, jump @22\n      : @115 [@dyn 30] (gas: 14)\n  2748: a3 = s1 + 0x2118\n  2752: a5 = a3 + 0x400\n  2756: a0 = u64 [a5 + 0x80]\n  2760: a1 = u64 [a5 + 0x78]\n  2763: a2 = u64 [a5 + 0x70]\n  2766: a4 = u64 [a5 + 0x68]\n  2769: a0 = a0 | a2\n  2772: a2 = a4 | a1\n  2775: a2 = a2 | a0\n  2778: a2 = a2 >> 0x20\n  2781: a0 = a0 | a1\n  2784: a0 = a0 << 0x20\n  2787: a0 = a0 | a2\n  2790: jump @117 if a0 == 0\n      : @116 (gas: 1)\n  2793: jump @781\n      : @117 (gas: 14)\n  2796: a2 = s1 + 0x100\n  2800: a0 = u64 [a2 + 0x80]\n  2804: a5 = a3 + 0x400\n  2808: u64 [a5 + 0x48] = a0\n  2811: a0 = u64 [a2 + 0x88]\n  2815: u64 [a5 + 0x50] = a0\n  2818: a0 = u64 [a2 + 0x90]\n  2822: u64 [a5 + 0x58] = a0\n  2825: a1 = s1 + 0x2560\n  2829: a0 = u64 [a2 + 0x98]\n  2833: u64 [a5 + 0x60] = a0\n  2836: a0 = a4\n  2838: u64 [a2 + 0x98] = a4\n  2842: ra = 62, jump @24\n      : @118 [@dyn 31] (gas: 4)\n  2847: a1 = 0x20\n  2850: a0 = u64 [s1 + 0x198]\n  2854: ra = 0x374\n  2858: jump @37\n      : @119 (gas: 9)\n  2861: u64 [a2 + 1856] = 0\n  2865: u64 [a2 + 1848] = 0\n  2869: u64 [a2 + 1840] = 0\n  2873: u64 [a2 + 1832] = 0\n  2877: a0 = s1 + 0x3000\n  2881: i32 a0 = a0 + 0xfffffffffffff840\n  2885: ra = 0x40\n  2888: ecalli 16 // 'value_transferred'\n  2890: fallthrough\n      : @120 [@dyn 32] (gas: 3)\n  2891: a3 = s1 + 0x2118\n  2895: a4 = a3 + 0x700\n  2899: t0 = 66, jump @1544\n      : @121 [@dyn 33] (gas: 1)\n  2905: jump @123 if a0 == 0\n      : @122 (gas: 1)\n  2908: jump @786\n      : @123 (gas: 1)\n  2911: t0 = 68, jump @1559\n      : @124 [@dyn 34] (gas: 1)\n  2917: jump @126 if a1 <u a0\n      : @125 (gas: 1)\n  2920: jump @787\n      : @126 (gas: 6)\n  2923: a0 = s1 + 0x3000\n  2927: i32 a0 = a0 + 0xfffffffffffff860\n  2931: a1 = 0x4\n  2934: ra = 0x46\n  2937: ecalli 2 // 'call_data_load'\n  2939: fallthrough\n      : @127 [@dyn 35] (gas: 7)\n  2940: a0 = s1 + 0x2118\n  2944: a5 = a0 + 0x700\n  2948: a1 = u64 [a5 + 0x60]\n  2951: a2 = u64 [a5 + 0x58]\n  2954: a3 = u64 [a5 + 0x50]\n  2957: a4 = u64 [a5 + 0x48]\n  2960: t0 = 72, jump @1528\n      : @128 [@dyn 36] (gas: 1)\n  2966: jump @130 if a0 != 0\n      : @129 (gas: 1)\n  2969: jump @788\n      : @130 (gas: 8)\n  2972: a0 = 0x30180\n  2977: u64 [s1 + 0x180] = a0\n  2981: i32 a0 = a0 + 0\n  2983: u64 [s1 + 0x168] = a0\n  2987: ra = 0x4a\n  2990: ecalli 4 // 'caller'\n  2992: t0 = 0x4c\n  2995: jump @1506\n      : @131 [@dyn 37] (gas: 1)\n  2999: t0 = 76, jump @1506\n      : @132 [@dyn 38] (gas: 7)\n  3005: u64 [s1 + 1368] = 0\n  3009: u64 [s1 + 0x550] = a1\n  3013: u64 [s1 + 0x548] = a0\n  3017: a1 = s1 + 0x540\n  3021: u64 [s1 + 0x540] = a3\n  3025: a0 = 0\n  3027: ra = 78, jump @24\n      : @133 [@dyn 39] (gas: 7)\n  3032: u64 [s1 + 1336] = 0\n  3036: u64 [s1 + 1328] = 0\n  3040: u64 [s1 + 1312] = 0x1\n  3045: a0 = 0x20\n  3048: a1 = s1 + 0x520\n  3052: u64 [s1 + 1320] = 0\n  3056: ra = 80, jump @24\n      : @134 [@dyn 40] (gas: 1)\n  3061: t0 = 82, jump @1567\n      : @135 [@dyn 41] (gas: 3)\n  3067: a2 = 0x20170\n  3072: a0 = i32 [0x20170]\n  3077: jump @137 if a0 >u 63\n      : @136 (gas: 2)\n  3081: u32 [0x20170] = 0x40\n  3087: fallthrough\n      : @137 (gas: 15)\n  3088: u64 [s1 + 0x140] = a2\n  3092: a0 = sp + 0xffffffffffffffe0\n  3095: a2 = a0 & 0xffffffffffffffe0\n  3098: u64 [s1 + 0x160] = a2\n  3102: sp = a2\n  3104: a0 = 0x20180\n  3109: i32 a0 = a0 + 0\n  3111: i32 a2 = a2 + 0\n  3113: a1 = 0x40\n  3116: u64 [s1 + 0x148] = a0\n  3120: ra = 0x54\n  3123: ecalli 8 // 'hash_keccak_256'\n  3125: a3 = u64 [s1 + 0x160]\n  3129: t0 = 0x56\n  3132: jump @1509\n      : @138 [@dyn 42] (gas: 2)\n  3136: a3 = u64 [s1 + 0x160]\n  3140: t0 = 86, jump @1509\n      : @139 [@dyn 43] (gas: 2)\n  3146: a0 = s1 + 0x500\n  3150: ra = 88, jump @26\n      : @140 [@dyn 44] (gas: 24)\n  3155: t1 = u64 [s1 + 0x518]\n  3159: t2 = u64 [s1 + 0x510]\n  3163: t0 = u64 [s1 + 0x508]\n  3167: a3 = u64 [s1 + 0x500]\n  3171: a0 = u64 [s1 + 0x198]\n  3175: a4 = t1 ^ a0\n  3178: a5 = t1 <u a0\n  3181: a1 = u64 [s1 + 0x178]\n  3185: a0 = t2 <u a1\n  3188: u64 [s1 + 0x158] = a0\n  3192: a5 = a0 if a4 == 0\n  3195: a0 = u64 [s1 + 0x190]\n  3199: ra = t0 ^ a0\n  3202: a0 = t0 <u a0\n  3205: a2 = u64 [s1 + 0x188]\n  3209: u64 [s1 + 0x160] = a3\n  3213: a2 = a3 <u a2\n  3216: u64 [s1 + 0x150] = a2\n  3220: a0 = a2 if ra == 0\n  3223: ra = a1\n  3225: a1 = t2 ^ a1\n  3228: a1 = a1 | a4\n  3231: a5 = a0 if a1 == 0\n  3234: jump @142 if a5 == 0\n      : @141 (gas: 1)\n  3237: jump @792\n      : @142 (gas: 11)\n  3240: a1 = t2 - ra\n  3243: a2 = u64 [s1 + 0x198]\n  3247: a2 = t1 - a2\n  3250: a3 = u64 [s1 + 0x158]\n  3254: a2 = a2 - a3\n  3257: a3 = a1 <u a0\n  3260: a2 = a2 - a3\n  3263: a1 = a1 - a0\n  3266: a0 = u64 [s1 + 0x190]\n  3270: a0 = t0 - a0\n  3273: t0 = 90, jump @1534\n      : @143 [@dyn 45] (gas: 7)\n  3279: u64 [a5 + 0x68] = a3\n  3282: u64 [a5 + 0x70] = a0\n  3285: u64 [a5 + 0x78] = a1\n  3288: u64 [a5 + 0x80] = a2\n  3292: a1 = s1 + 0x2880\n  3296: a0 = u64 [s1 + 0x170]\n  3300: ra = 92, jump @28\n      : @144 [@dyn 46] (gas: 5)\n  3305: a0 = u64 [s1 + 0x168]\n  3309: ra = 0x5e\n  3312: ecalli 4 // 'caller'\n  3314: t0 = 0x60\n  3317: jump @1519\n      : @145 [@dyn 47] (gas: 1)\n  3321: t0 = 96, jump @1519\n      : @146 [@dyn 48] (gas: 14)\n  3327: u64 [s1 + 0x4d8] = a2\n  3331: a2 = u64 [a4 + 0x78]\n  3334: u64 [s1 + 0x4d0] = a2\n  3338: a2 = u64 [a4 + 0x90]\n  3342: u64 [s1 + 0x4c8] = a2\n  3346: a2 = u64 [a4 + 0x88]\n  3350: u64 [s1 + 0x4c0] = a2\n  3354: u64 [s1 + 1272] = 0\n  3358: u64 [s1 + 0x4f0] = a1\n  3362: u64 [s1 + 0x4e8] = a0\n  3366: a0 = s1 + 0x4e0\n  3370: a1 = s1 + 0x4c0\n  3374: u64 [s1 + 0x4e0] = a3\n  3378: ra = 98, jump @1476\n      : @147 [@dyn 49] (gas: 3)\n  3384: a0 = s1 + 0x4a0\n  3388: a1 = 0x40\n  3391: ra = 100, jump @22\n      : @148 [@dyn 50] (gas: 6)\n  3396: a4 = s1 + 0x400\n  3400: a0 = u64 [a4 + 0xb8]\n  3404: a1 = u64 [a4 + 0xb0]\n  3408: a2 = u64 [a4 + 0xa8]\n  3412: a3 = u64 [a4 + 0xa0]\n  3416: t0 = 102, jump @1515\n      : @149 [@dyn 51] (gas: 1)\n  3422: jump @151 if a0 == 0\n      : @150 (gas: 1)\n  3425: jump @781\n      : @151 (gas: 12)\n  3428: a0 = u64 [s1 + 0x188]\n  3432: u64 [s1 + 0x480] = a0\n  3436: a0 = u64 [s1 + 0x190]\n  3440: u64 [s1 + 0x488] = a0\n  3444: a0 = u64 [s1 + 0x178]\n  3448: u64 [s1 + 0x490] = a0\n  3452: a1 = s1 + 0x480\n  3456: a0 = u64 [s1 + 0x198]\n  3460: u64 [s1 + 0x498] = a0\n  3464: a0 = a3\n  3466: u64 [s1 + 0x198] = a3\n  3470: ra = 104, jump @24\n      : @152 [@dyn 52] (gas: 6)\n  3475: a0 = u64 [s1 + 0x168]\n  3479: ra = 0x6a\n  3482: ecalli 4 // 'caller'\n  3484: a2 = u64 [s1 + 0x180]\n  3488: t0 = 0x6c\n  3491: jump @1502\n      : @153 [@dyn 53] (gas: 2)\n  3495: a2 = u64 [s1 + 0x180]\n  3499: t0 = 108, jump @1502\n      : @154 [@dyn 54] (gas: 25)\n  3505: t0 = a1 | a0\n  3508: a3 = a3 >> 0x20\n  3511: a2 = reverse a2\n  3513: a1 = a2 << 0x20\n  3516: a1 = a1 | a3\n  3519: a2 = a2 >> 0x20\n  3522: u64 [s1 + 1112] = 0\n  3526: a3 = u64 [0x200f8]\n  3531: a4 = u64 [0x20100]\n  3536: a5 = u64 [0x20108]\n  3541: a0 = u64 [0x20110]\n  3546: u64 [s1 + 0x478] = a3\n  3550: a3 = s1 + 0x400\n  3554: u64 [a3 + 0x70] = a4\n  3557: u64 [a3 + 0x68] = a5\n  3560: u64 [a3 + 0x60] = a0\n  3563: u64 [a3 + 0x50] = a2\n  3566: u64 [a3 + 0x48] = a1\n  3569: a1 = 0x20\n  3572: a2 = s1 + 0x460\n  3576: a3 = s1 + 0x440\n  3580: u64 [s1 + 0x440] = t0\n  3584: a0 = u64 [s1 + 0x198]\n  3588: ra = 0xee\n  3592: jump @29\n      : @155 (gas: 11)\n  3595: a0 = s1 + 0x2918\n  3599: u64 [a0 + 640] = 0\n  3603: u64 [a0 + 632] = 0\n  3607: u64 [a0 + 624] = 0\n  3611: u64 [a0 + 616] = 0\n  3615: a0 = s1 + 0x3000\n  3619: i32 a0 = a0 + 0xfffffffffffffb80\n  3623: ra = 0x6e\n  3626: ecalli 16 // 'value_transferred'\n  3628: t0 = 0x70\n  3631: jump @1532\n      : @156 [@dyn 55] (gas: 1)\n  3635: t0 = 112, jump @1532\n      : @157 [@dyn 56] (gas: 1)\n  3641: t0 = 114, jump @1533\n      : @158 [@dyn 57] (gas: 1)\n  3647: jump @160 if a0 == 0\n      : @159 (gas: 1)\n  3650: jump @793\n      : @160 (gas: 1)\n  3653: t0 = 116, jump @1559\n      : @161 [@dyn 58] (gas: 1)\n  3659: jump @163 if a1 <u a0\n      : @162 (gas: 1)\n  3662: jump @794\n      : @163 (gas: 6)\n  3665: a0 = s1 + 0x3000\n  3669: i32 a0 = a0 + 0xfffffffffffffba0\n  3673: a1 = 0x4\n  3676: ra = 0x76\n  3679: ecalli 2 // 'call_data_load'\n  3681: fallthrough\n      : @164 [@dyn 59] (gas: 7)\n  3682: a0 = s1 + 0x2918\n  3686: a5 = a0 + 0x200\n  3690: a1 = u64 [a5 + 0xa0]\n  3694: a2 = u64 [a5 + 0x98]\n  3698: a3 = u64 [a5 + 0x90]\n  3702: a4 = u64 [a5 + 0x88]\n  3706: t0 = 120, jump @1528\n      : @165 [@dyn 60] (gas: 1)\n  3712: jump @167 if a0 != 0\n      : @166 (gas: 1)\n  3715: jump @795\n      : @167 (gas: 28)\n  3718: a0 = 0x30180\n  3723: u64 [s1 + 0x170] = a0\n  3727: i32 a0 = a0 + 0\n  3729: u64 [s1 + 0x140] = a0\n  3733: ecalli 4 // 'caller'\n  3735: a2 = u64 [s1 + 0x170]\n  3739: a0 = u64 [a2 + 0x8]\n  3742: a1 = i32 [a2 + 0x10]\n  3745: a2 = u64 [a2]\n  3747: a0 = reverse a0\n  3749: a3 = a0 << 0x20\n  3752: a1 = reverse a1\n  3754: a1 = a1 >> 0x20\n  3757: a3 = a3 | a1\n  3760: a0 = a0 >> 0x20\n  3763: a1 = reverse a2\n  3765: a2 = a1 << 0x20\n  3768: a0 = a0 | a2\n  3771: a1 = a1 >> 0x20\n  3774: a2 = s1 + 0x1118\n  3778: u64 [a2 + 672] = 0\n  3782: a4 = a2 + 0x200\n  3786: u64 [a4 + 0x98] = a1\n  3790: u64 [a4 + 0x90] = a0\n  3794: a1 = s1 + 0x13a0\n  3798: u64 [a4 + 0x88] = a3\n  3802: a0 = 0\n  3804: ra = 122, jump @24\n      : @168 [@dyn 61] (gas: 3)\n  3809: t0 = 0x7c\n  3812: a1 = s1 + 0x1118\n  3816: fallthrough\n      : @169 [@dyn 62] (gas: 8)\n  3817: u64 [a1 + 640] = 0\n  3821: u64 [a1 + 632] = 0\n  3825: u64 [a1 + 616] = 0x1\n  3830: a2 = a1\n  3832: a0 = 0x20\n  3835: a1 = s1 + 0x1380\n  3839: u64 [a2 + 624] = 0\n  3843: ra = 126, jump @24\n      : @170 [@dyn 63] (gas: 7)\n  3848: a0 = sp + 0xffffffffffffffe0\n  3851: a0 = a0 & 0xffffffffffffffe0\n  3854: u64 [s1 + 0x180] = a0\n  3858: sp = a0\n  3860: a2 = 0x20170\n  3865: a0 = i32 [0x20170]\n  3870: jump @172 if a0 >u 63\n      : @171 (gas: 2)\n  3874: u32 [0x20170] = 0x40\n  3880: fallthrough\n      : @172 (gas: 14)\n  3881: u64 [s1 + 0x138] = a2\n  3885: a0 = sp + 0xffffffffffffffe0\n  3888: a2 = a0 & 0xffffffffffffffe0\n  3891: u64 [s1 + 0x168] = a2\n  3895: sp = a2\n  3897: a0 = 0x20180\n  3902: i32 a0 = a0 + 0\n  3904: i32 a2 = a2 + 0\n  3906: a1 = 0x40\n  3909: u64 [s1 + 0x148] = a0\n  3913: ra = 0x80\n  3917: ecalli 8 // 'hash_keccak_256'\n  3919: t0 = 0x82\n  3923: jump @1554\n      : @173 [@dyn 64] (gas: 1)\n  3927: t0 = 130, jump @1554\n      : @174 [@dyn 65] (gas: 26)\n  3934: a5 = reverse a1\n  3936: a2 = reverse a2\n  3938: t0 = reverse a3\n  3940: a4 = u64 [s1 + 0x180]\n  3944: u64 [a4 + 0x18] = t0\n  3947: u64 [a4 + 0x10] = a2\n  3950: u64 [a4 + 0x8] = a5\n  3953: u64 [a4] = a0\n  3955: a4 = sp + 0xffffffffffffffe0\n  3958: a1 = a4 & 0xffffffffffffffe0\n  3961: sp = a1\n  3963: a4 = a0 + 0x2\n  3966: a0 = a4 <u a0\n  3969: a3 = a5 + a0\n  3972: a5 = a3 <u a5\n  3975: a5 = a0 if a0 == 0\n  3978: a5 = a5 + a2\n  3981: a0 = a5 <u a2\n  3984: a0 = a0 + t0\n  3987: u64 [a1 + 0x10] = a5\n  3990: u64 [a1 + 0x8] = a3\n  3993: u64 [a1] = a4\n  3995: u64 [a1 + 0x18] = a0\n  3998: a0 = s1 + 0x1360\n  4002: u64 [s1 + 0x168] = a1\n  4006: ra = 132, jump @26\n      : @175 [@dyn 66] (gas: 25)\n  4012: a0 = s1 + 0x1118\n  4016: t1 = u64 [a0 + 0x260]\n  4020: t2 = u64 [a0 + 0x258]\n  4024: t0 = u64 [a0 + 0x250]\n  4028: a3 = u64 [a0 + 0x248]\n  4032: a0 = u64 [s1 + 0x198]\n  4036: a4 = t1 ^ a0\n  4039: a5 = t1 <u a0\n  4042: a1 = u64 [s1 + 0x178]\n  4046: a0 = t2 <u a1\n  4049: u64 [s1 + 0x158] = a0\n  4053: a5 = a0 if a4 == 0\n  4056: a0 = u64 [s1 + 0x190]\n  4060: ra = t0 ^ a0\n  4063: a0 = t0 <u a0\n  4066: a2 = u64 [s1 + 0x188]\n  4070: u64 [s1 + 0x160] = a3\n  4074: a2 = a3 <u a2\n  4077: u64 [s1 + 0x150] = a2\n  4081: a0 = a2 if ra == 0\n  4084: ra = a1\n  4086: a1 = t2 ^ a1\n  4089: a1 = a1 | a4\n  4092: a5 = a0 if a1 == 0\n  4095: jump @177 if a5 == 0\n      : @176 (gas: 1)\n  4098: jump @800\n      : @177 (gas: 24)\n  4101: a1 = t2 - ra\n  4104: a2 = u64 [s1 + 0x198]\n  4108: a2 = t1 - a2\n  4111: a3 = u64 [s1 + 0x158]\n  4115: a2 = a2 - a3\n  4118: a3 = a1 <u a0\n  4121: a2 = a2 - a3\n  4124: a1 = a1 - a0\n  4127: a0 = u64 [s1 + 0x190]\n  4131: a0 = t0 - a0\n  4134: a3 = u64 [s1 + 0x150]\n  4138: a0 = a0 - a3\n  4141: a3 = u64 [s1 + 0x160]\n  4145: a4 = u64 [s1 + 0x188]\n  4149: a3 = a3 - a4\n  4152: a4 = s1 + 0x2918\n  4156: a5 = a4 + 0x200\n  4160: u64 [a5 + 0xa8] = a3\n  4164: u64 [a5 + 0xb0] = a0\n  4168: u64 [a5 + 0xb8] = a1\n  4172: u64 [a5 + 0xc0] = a2\n  4176: a1 = s1 + 0x2bc0\n  4180: a0 = u64 [s1 + 0x168]\n  4184: ra = 134, jump @28\n      : @178 [@dyn 67] (gas: 3)\n  4190: a0 = s1 + 0x1340\n  4194: a1 = u64 [s1 + 0x180]\n  4198: ra = 136, jump @26\n      : @179 [@dyn 68] (gas: 33)\n  4204: a2 = s1 + 0x1118\n  4208: a4 = a2 + 0x200\n  4212: a0 = u64 [a4 + 0x30]\n  4215: a1 = u64 [a4 + 0x28]\n  4218: t0 = u64 [a2 + 0x240]\n  4222: a3 = u64 [a4 + 0x38]\n  4225: a4 = u64 [s1 + 0x190]\n  4229: a4 = a4 + a0\n  4232: a5 = u64 [s1 + 0x188]\n  4236: a5 = a5 + a1\n  4239: a1 = a5 <u a1\n  4242: a4 = a4 + a1\n  4245: a2 = a4 ^ a0\n  4248: a0 = a4 <u a0\n  4251: a0 = a1 if a2 == 0\n  4254: a1 = u64 [s1 + 0x178]\n  4258: a1 = a1 + a3\n  4261: a2 = u64 [s1 + 0x198]\n  4265: t0 = t0 + a2\n  4268: a2 = a1 <u a3\n  4271: a2 = a2 + t0\n  4274: a0 = a0 + a1\n  4277: a1 = a0 <u a1\n  4280: a1 = a1 + a2\n  4283: a2 = s1 + 0x2918\n  4287: a3 = a2 + 0x200\n  4291: u64 [a3 + 0xc8] = a5\n  4295: u64 [a3 + 0xd0] = a4\n  4299: u64 [a3 + 0xd8] = a0\n  4303: u64 [a3 + 0xe0] = a1\n  4307: a1 = s1 + 0x2be0\n  4311: a0 = u64 [s1 + 0x180]\n  4315: ra = 138, jump @28\n      : @180 [@dyn 69] (gas: 3)\n  4321: a0 = s1 + 0x1320\n  4325: a1 = 0x40\n  4328: ra = 140, jump @22\n      : @181 [@dyn 70] (gas: 7)\n  4334: a4 = s1 + 0x1118\n  4338: a5 = a4 + 0x200\n  4342: a0 = u64 [a5 + 0x20]\n  4345: a1 = u64 [a5 + 0x18]\n  4348: a2 = u64 [a5 + 0x10]\n  4351: a3 = u64 [a5 + 0x8]\n  4354: t0 = 142, jump @1515\n      : @182 [@dyn 71] (gas: 1)\n  4361: jump @184 if a0 == 0\n      : @183 (gas: 1)\n  4364: jump @781\n      : @184 (gas: 13)\n  4367: a0 = u64 [s1 + 0x188]\n  4371: a1 = a4 + 0x100\n  4375: u64 [a1 + 0xe8] = a0\n  4379: a0 = u64 [s1 + 0x190]\n  4383: u64 [a1 + 0xf0] = a0\n  4387: a0 = u64 [s1 + 0x178]\n  4391: u64 [a1 + 0xf8] = a0\n  4395: a1 = s1 + 0x1300\n  4399: a0 = u64 [s1 + 0x198]\n  4403: u64 [a4 + 0x200] = a0\n  4407: a0 = a3\n  4409: u64 [s1 + 0x198] = a3\n  4413: ra = 144, jump @24\n      : @185 [@dyn 72] (gas: 6)\n  4419: a0 = u64 [s1 + 0x140]\n  4423: ra = 0x92\n  4427: ecalli 4 // 'caller'\n  4429: a2 = u64 [s1 + 0x170]\n  4433: t0 = 0x94\n  4437: jump @1502\n      : @186 [@dyn 73] (gas: 2)\n  4441: a2 = u64 [s1 + 0x170]\n  4445: t0 = 148, jump @1502\n      : @187 [@dyn 74] (gas: 26)\n  4452: t0 = a1 | a0\n  4455: a3 = a3 >> 0x20\n  4458: a2 = reverse a2\n  4460: a1 = a2 << 0x20\n  4463: a1 = a1 | a3\n  4466: a2 = a2 >> 0x20\n  4469: a3 = u64 [0x20080]\n  4474: a0 = s1 + 0x1118\n  4478: u64 [a0 + 0x1e0] = a3\n  4482: a3 = u64 [0x20088]\n  4487: a4 = u64 [0x20090]\n  4492: a5 = u64 [0x20098]\n  4497: u64 [a0 + 0x1d8] = a3\n  4501: a3 = a0 + 0x100\n  4505: u64 [a3 + 0xd0] = a4\n  4509: u64 [a0 + 448] = 0\n  4513: u64 [a3 + 0xc8] = a5\n  4517: u64 [a3 + 0xb8] = a2\n  4521: u64 [a3 + 0xb0] = a1\n  4525: a1 = 0x20\n  4528: a2 = s1 + 0x12e0\n  4532: a3 = s1 + 0x12c0\n  4536: u64 [a0 + 0x1a8] = t0\n  4540: a0 = u64 [s1 + 0x198]\n  4544: ra = 0xee\n  4548: jump @29\n      : @188 (gas: 10)\n  4551: u64 [a2 + 1664] = 0\n  4555: u64 [a2 + 1656] = 0\n  4559: u64 [a2 + 1648] = 0\n  4563: u64 [a2 + 1640] = 0\n  4567: a0 = s1 + 0x2000\n  4571: i32 a0 = a0 + 0x780\n  4575: ra = 0x96\n  4579: ecalli 16 // 'value_transferred'\n  4581: t0 = 0x98\n  4585: jump @1572\n      : @189 [@dyn 75] (gas: 1)\n  4589: t0 = 152, jump @1572\n      : @190 [@dyn 76] (gas: 1)\n  4596: t0 = 154, jump @1533\n      : @191 [@dyn 77] (gas: 1)\n  4603: jump @193 if a0 == 0\n      : @192 (gas: 1)\n  4606: jump @804\n      : @193 (gas: 1)\n  4609: t0 = 156, jump @1559\n      : @194 [@dyn 78] (gas: 1)\n  4616: jump @196 if a1 <u a0\n      : @195 (gas: 1)\n  4619: jump @805\n      : @196 (gas: 4)\n  4622: a0 = s1 + 0x3a0\n  4626: ra = 0x9e\n  4630: t0 = 0x588\n  4634: jump @1560\n      : @197 [@dyn 79] (gas: 10)\n  4638: a0 = u64 [s1 + 0x3a0]\n  4642: a1 = u64 [s1 + 0x3a8]\n  4646: a2 = u32 [s1 + 0x3b0]\n  4650: u64 [s1 + 920] = 0\n  4654: u64 [s1 + 0x390] = a2\n  4658: u64 [s1 + 0x388] = a1\n  4662: a1 = s1 + 0x380\n  4666: u64 [s1 + 0x380] = a0\n  4670: a0 = 0\n  4672: ra = 160, jump @24\n      : @198 [@dyn 80] (gas: 7)\n  4678: u64 [s1 + 888] = 0\n  4682: u64 [s1 + 880] = 0\n  4686: u64 [s1 + 864] = 0x1\n  4691: a0 = 0x20\n  4694: a1 = s1 + 0x360\n  4698: u64 [s1 + 872] = 0\n  4702: ra = 162, jump @24\n      : @199 [@dyn 81] (gas: 1)\n  4708: t0 = 164, jump @1566\n      : @200 [@dyn 82] (gas: 2)\n  4715: a1 = i32 [0x20170]\n  4720: jump @202 if a1 >u 63\n      : @201 (gas: 4)\n  4724: a1 = 0x40\n  4727: u32 [0x20170] = a1\n  4732: t0 = 0xa6\n  4736: jump @1542\n      : @202 (gas: 1)\n  4740: t0 = 166, jump @1542\n      : @203 [@dyn 83] (gas: 25)\n  4747: a0 = 0x20180\n  4752: i32 a0 = a0 + 0\n  4754: i32 a2 = a2 + 0\n  4756: a1 = 0x40\n  4759: ecalli 8 // 'hash_keccak_256'\n  4761: a3 = u64 [s1 + 0x198]\n  4765: a0 = u64 [a3 + 0x18]\n  4768: a1 = u64 [a3 + 0x10]\n  4771: a2 = u64 [a3 + 0x8]\n  4774: a3 = u64 [a3]\n  4776: a5 = reverse a0\n  4778: u64 [s1 + 0x188] = a5\n  4782: a4 = reverse a1\n  4784: u64 [s1 + 0x190] = a4\n  4788: a2 = reverse a2\n  4790: u64 [s1 + 0x180] = a2\n  4794: a0 = reverse a3\n  4796: u64 [s1 + 0x198] = a0\n  4800: a1 = u64 [s1 + 0x178]\n  4804: u64 [a1 + 0x18] = a0\n  4807: u64 [a1 + 0x10] = a2\n  4810: u64 [a1 + 0x8] = a4\n  4813: u64 [a1] = a5\n  4815: a0 = s1 + 0x340\n  4819: ra = 168, jump @26\n      : @204 [@dyn 84] (gas: 29)\n  4825: a0 = u64 [s1 + 0x358]\n  4829: u64 [s1 + 0x178] = a0\n  4833: a0 = u64 [s1 + 0x350]\n  4837: u64 [s1 + 0x170] = a0\n  4841: a0 = u64 [s1 + 0x348]\n  4845: u64 [s1 + 0x168] = a0\n  4849: a0 = u64 [s1 + 0x340]\n  4853: u64 [s1 + 0x160] = a0\n  4857: a0 = u64 [s1 + 0x188]\n  4861: a0 = a0 + 0x1\n  4864: a1 = a0 <u 0x1\n  4867: a2 = u64 [s1 + 0x190]\n  4871: a1 = a1 + a2\n  4874: a2 = s1 + 0x2118\n  4878: a3 = a2 + 0x600\n  4882: u64 [a3 + 0x90] = a1\n  4886: a1 = a1 | a0\n  4889: u64 [a3 + 0x88] = a0\n  4893: a0 = a1 <u 0x1\n  4896: a1 = u64 [s1 + 0x180]\n  4900: a0 = a0 + a1\n  4903: u64 [a3 + 0x98] = a0\n  4907: a0 = a0 <u a1\n  4910: a1 = u64 [s1 + 0x198]\n  4914: a0 = a0 + a1\n  4917: u64 [a3 + 0xa0] = a0\n  4921: a0 = s1 + 0x320\n  4925: a1 = s1 + 0x27a0\n  4929: ra = 170, jump @26\n      : @205 [@dyn 85] (gas: 13)\n  4935: a0 = u64 [s1 + 0x338]\n  4939: u64 [s1 + 0x158] = a0\n  4943: a0 = u64 [s1 + 0x330]\n  4947: u64 [s1 + 0x150] = a0\n  4951: a0 = u64 [s1 + 0x328]\n  4955: u64 [s1 + 0x148] = a0\n  4959: a0 = u64 [s1 + 0x320]\n  4963: u64 [s1 + 0x140] = a0\n  4967: a1 = u64 [s1 + 0x188]\n  4971: a0 = a1 + 0x2\n  4974: a1 = a0 <u a1\n  4977: a3 = u64 [s1 + 0x190]\n  4981: t0 = 172, jump @1540\n      : @206 [@dyn 86] (gas: 14)\n  4988: a1 = u64 [s1 + 0x180]\n  4992: a3 = a3 + a1\n  4995: a1 = a3 <u a1\n  4998: a4 = u64 [s1 + 0x198]\n  5002: a1 = a1 + a4\n  5005: a4 = s1 + 0x2118\n  5009: a5 = a4 + 0x600\n  5013: u64 [a5 + 0xc0] = a1\n  5017: u64 [a5 + 0xb8] = a3\n  5021: u64 [a5 + 0xb0] = a2\n  5025: u64 [a5 + 0xa8] = a0\n  5029: a0 = s1 + 0x300\n  5033: a1 = s1 + 0x27c0\n  5037: ra = 174, jump @26\n      : @207 [@dyn 87] (gas: 10)\n  5043: a5 = s1 + 0x300\n  5047: a0 = u64 [a5 + 0x18]\n  5050: u64 [s1 + 0x138] = a0\n  5054: a0 = u64 [a5 + 0x10]\n  5057: u64 [s1 + 0x130] = a0\n  5061: a1 = u64 [s1 + 0x188]\n  5065: a0 = a1 + 0x3\n  5068: a1 = a0 <u a1\n  5071: a3 = u64 [s1 + 0x190]\n  5075: t0 = 176, jump @1540\n      : @208 [@dyn 88] (gas: 18)\n  5082: a1 = u64 [a5 + 0x8]\n  5085: u64 [s1 + 0x188] = a1\n  5089: a1 = u64 [s1 + 0x180]\n  5093: a3 = a3 + a1\n  5096: a1 = a3 <u a1\n  5099: a4 = u64 [s1 + 0x198]\n  5103: a1 = a1 + a4\n  5106: a4 = u64 [a5]\n  5108: u64 [s1 + 0x180] = a4\n  5112: a4 = s1 + 0x2118\n  5116: a5 = a4 + 0x600\n  5120: u64 [a5 + 0xe0] = a1\n  5124: u64 [a5 + 0xd8] = a3\n  5128: u64 [a5 + 0xd0] = a2\n  5132: u64 [a5 + 0xc8] = a0\n  5136: a0 = s1 + 0x2e0\n  5140: a1 = s1 + 0x27e0\n  5144: ra = 178, jump @26\n      : @209 [@dyn 89] (gas: 5)\n  5150: a0 = u64 [s1 + 0x2e0]\n  5154: u64 [s1 + 0x128] = a0\n  5158: a0 = s1 + 0x2c0\n  5162: a1 = 0x40\n  5165: ra = 180, jump @22\n      : @210 [@dyn 90] (gas: 13)\n  5171: a0 = s1 + 0x200\n  5175: a4 = u64 [a0 + 0xd8]\n  5179: a5 = u64 [a0 + 0xd0]\n  5183: a3 = u64 [a0 + 0xc8]\n  5187: a2 = u64 [a0 + 0xc0]\n  5191: a0 = a3 | a4\n  5194: a1 = a2 | a5\n  5197: a1 = a1 | a0\n  5200: a1 = a1 >> 0x20\n  5203: a0 = a0 | a5\n  5206: a0 = a0 << 0x20\n  5209: a0 = a0 | a1\n  5212: jump @212 if a0 == 0\n      : @211 (gas: 1)\n  5215: jump @781\n      : @212 (gas: 15)\n  5218: a0 = u64 [s1 + 0x160]\n  5222: u64 [s1 + 0x2a0] = a0\n  5226: a0 = u64 [s1 + 0x168]\n  5230: u64 [s1 + 0x2a8] = a0\n  5234: a0 = u64 [s1 + 0x170]\n  5238: u64 [s1 + 0x2b0] = a0\n  5242: a1 = s1 + 0x2a0\n  5246: a0 = u64 [s1 + 0x178]\n  5250: u64 [s1 + 0x2b8] = a0\n  5254: a0 = a2\n  5256: u64 [s1 + 0x198] = a2\n  5260: u64 [s1 + 0x190] = a3\n  5264: u64 [s1 + 0x178] = a4\n  5268: u64 [s1 + 0x170] = a5\n  5272: ra = 182, jump @24\n      : @213 [@dyn 91] (gas: 6)\n  5278: a5 = s1 + 0x100\n  5282: a1 = u64 [a5 + 0x98]\n  5286: a0 = u64 [a5 + 0x78]\n  5289: a3 = u64 [a5 + 0x70]\n  5292: a3 = a3 | a0\n  5295: t0 = 184, jump @1553\n      : @214 [@dyn 92] (gas: 1)\n  5302: jump @216 if a0 != 0\n      : @215 (gas: 1)\n  5305: jump @781\n      : @216 (gas: 14)\n  5308: i32 a0 = a1 + 0x20\n  5311: a1 = u64 [s1 + 0x140]\n  5315: a5 = s1 + 0x200\n  5319: u64 [a5 + 0x80] = a1\n  5323: a1 = u64 [s1 + 0x148]\n  5327: u64 [a5 + 0x88] = a1\n  5331: a1 = u64 [s1 + 0x150]\n  5335: u64 [a5 + 0x90] = a1\n  5339: a1 = s1 + 0x280\n  5343: a2 = u64 [s1 + 0x158]\n  5347: u64 [a5 + 0x98] = a2\n  5351: u64 [s1 + 0x178] = a3\n  5355: u64 [s1 + 0x170] = a4\n  5359: ra = 186, jump @24\n      : @217 [@dyn 93] (gas: 10)\n  5365: a2 = s1 + 0x100\n  5369: a4 = u64 [a2 + 0x78]\n  5372: a3 = u64 [a2 + 0x90]\n  5376: a1 = u64 [a2 + 0x98]\n  5380: a0 = u64 [a2 + 0x70]\n  5383: a0 = a0 + 0xffffffffffffffc0\n  5386: a0 = a1 <u a0\n  5389: a0 = 0 if a3 != 0\n  5391: a0 = 0 if a4 != 0\n  5393: jump @219 if a0 != 0\n      : @218 (gas: 1)\n  5396: jump @781\n      : @219 (gas: 12)\n  5399: i32 a0 = a1 + 0x40\n  5402: a1 = u64 [s1 + 0x180]\n  5406: a3 = s1 + 0x200\n  5410: u64 [a3 + 0x60] = a1\n  5413: a1 = u64 [s1 + 0x188]\n  5417: u64 [a3 + 0x68] = a1\n  5420: a1 = u64 [s1 + 0x130]\n  5424: u64 [a3 + 0x70] = a1\n  5427: a1 = s1 + 0x260\n  5431: a2 = u64 [s1 + 0x138]\n  5435: u64 [a3 + 0x78] = a2\n  5438: ra = 188, jump @24\n      : @220 [@dyn 94] (gas: 9)\n  5444: a3 = s1 + 0x100\n  5448: a2 = u64 [a3 + 0x98]\n  5452: a0 = 0xffffffa0\n  5462: a0 = a2 <u a0\n  5465: a1 = u64 [a3 + 0x90]\n  5469: a0 = 0 if a1 != 0\n  5471: a1 = u64 [a3 + 0x78]\n  5474: a0 = 0 if a1 != 0\n  5476: jump @222 if a0 != 0\n      : @221 (gas: 1)\n  5479: jump @781\n      : @222 (gas: 10)\n  5482: a0 = u64 [s1 + 0x128]\n  5486: a0 = a0 << 0x20\n  5489: a1 = a0 >> 0x20\n  5492: i32 a0 = a2 + 0x60\n  5495: u64 [s1 + 600] = 0\n  5499: u64 [s1 + 592] = 0\n  5503: u64 [s1 + 0x240] = a1\n  5507: a1 = s1 + 0x240\n  5511: u64 [s1 + 584] = 0\n  5515: ra = 190, jump @24\n      : @223 [@dyn 95] (gas: 3)\n  5521: a1 = 0x80\n  5525: a0 = u64 [s1 + 0x198]\n  5529: ra = 192, jump @37\n      : @224 [@dyn 96] (gas: 5)\n  5535: i32 a1 = a0 + 0\n  5537: a2 = 0x80\n  5541: a0 = 0\n  5543: ecalli 13 // 'seal_return'\n  5545: jump @883\n      : @225 (gas: 9)\n  5548: u64 [a2 + 1952] = 0\n  5552: u64 [a2 + 1944] = 0\n  5556: u64 [a2 + 1936] = 0\n  5560: u64 [a2 + 1928] = 0\n  5564: a0 = s1 + 0x3000\n  5568: i32 a0 = a0 + 0xfffffffffffff8a0\n  5572: ra = 0xc2\n  5576: ecalli 16 // 'value_transferred'\n  5578: fallthrough\n      : @226 [@dyn 97] (gas: 10)\n  5579: a3 = s1 + 0x2118\n  5583: a4 = a3 + 0x700\n  5587: a0 = u64 [a4 + 0x98]\n  5591: a1 = u64 [a4 + 0xa0]\n  5595: a2 = u64 [a4 + 0x90]\n  5599: a3 = u64 [a4 + 0x88]\n  5603: a1 = a1 | a2\n  5606: a0 = a0 | a3\n  5609: a0 = a0 | a1\n  5612: jump @228 if a0 == 0\n      : @227 (gas: 1)\n  5615: jump @806\n      : @228 (gas: 1)\n  5618: t0 = 196, jump @1559\n      : @229 [@dyn 98] (gas: 1)\n  5625: jump @231 if a1 <u a0\n      : @230 (gas: 1)\n  5628: jump @807\n      : @231 (gas: 6)\n  5631: a0 = s1 + 0x3000\n  5635: i32 a0 = a0 + 0xfffffffffffff8c0\n  5639: a1 = 0x4\n  5642: ra = 0xc6\n  5646: ecalli 2 // 'call_data_load'\n  5648: fallthrough\n      : @232 [@dyn 99] (gas: 7)\n  5649: a0 = s1 + 0x2118\n  5653: a5 = a0 + 0x700\n  5657: a1 = u64 [a5 + 0xc0]\n  5661: a2 = u64 [a5 + 0xb8]\n  5665: a3 = u64 [a5 + 0xb0]\n  5669: a4 = u64 [a5 + 0xa8]\n  5673: t0 = 200, jump @1528\n      : @233 [@dyn 100] (gas: 1)\n  5680: jump @235 if a0 != 0\n      : @234 (gas: 1)\n  5683: jump @808\n      : @235 (gas: 8)\n  5686: a0 = 0x30180\n  5691: u64 [s1 + 0x180] = a0\n  5695: i32 a0 = a0 + 0\n  5697: u64 [s1 + 0x168] = a0\n  5701: ra = 0xca\n  5705: ecalli 4 // 'caller'\n  5707: t0 = 0xcc\n  5711: jump @1506\n      : @236 [@dyn 101] (gas: 1)\n  5715: t0 = 204, jump @1506\n      : @237 [@dyn 102] (gas: 7)\n  5722: u64 [s1 + 1720] = 0\n  5726: u64 [s1 + 0x6b0] = a1\n  5730: u64 [s1 + 0x6a8] = a0\n  5734: a1 = s1 + 0x6a0\n  5738: u64 [s1 + 0x6a0] = a3\n  5742: a0 = 0\n  5744: ra = 206, jump @24\n      : @238 [@dyn 103] (gas: 7)\n  5750: u64 [s1 + 1688] = 0\n  5754: u64 [s1 + 1680] = 0\n  5758: u64 [s1 + 1664] = 0x1\n  5763: a0 = 0x20\n  5766: a1 = s1 + 0x680\n  5770: u64 [s1 + 1672] = 0\n  5774: ra = 208, jump @24\n      : @239 [@dyn 104] (gas: 1)\n  5780: t0 = 210, jump @1567\n      : @240 [@dyn 105] (gas: 3)\n  5787: a2 = 0x20170\n  5792: a0 = i32 [0x20170]\n  5797: jump @242 if a0 >u 63\n      : @241 (gas: 2)\n  5801: u32 [0x20170] = 0x40\n  5807: fallthrough\n      : @242 (gas: 13)\n  5808: u64 [s1 + 0x140] = a2\n  5812: a0 = sp + 0xffffffffffffffe0\n  5815: a2 = a0 & 0xffffffffffffffe0\n  5818: u64 [s1 + 0x160] = a2\n  5822: sp = a2\n  5824: a0 = 0x20180\n  5829: i32 a0 = a0 + 0\n  5831: i32 a2 = a2 + 0\n  5833: a1 = 0x40\n  5836: u64 [s1 + 0x148] = a0\n  5840: ra = 0xd4\n  5844: ecalli 8 // 'hash_keccak_256'\n  5846: fallthrough\n      : @243 [@dyn 106] (gas: 11)\n  5847: a3 = u64 [s1 + 0x160]\n  5851: a0 = u64 [a3]\n  5853: a1 = u64 [a3 + 0x8]\n  5856: a2 = u64 [a3 + 0x10]\n  5859: a3 = u64 [a3 + 0x18]\n  5862: a0 = reverse a0\n  5864: a1 = reverse a1\n  5866: a2 = reverse a2\n  5868: a3 = reverse a3\n  5870: a4 = a3 + 0x2\n  5873: t0 = 214, jump @1514\n      : @244 [@dyn 107] (gas: 7)\n  5880: a1 = u64 [s1 + 0x170]\n  5884: u64 [a1] = a4\n  5886: u64 [a1 + 0x8] = a5\n  5889: u64 [a1 + 0x10] = a2\n  5892: u64 [a1 + 0x18] = a0\n  5895: a0 = s1 + 0x660\n  5899: ra = 216, jump @26\n      : @245 [@dyn 108] (gas: 24)\n  5905: t1 = u64 [s1 + 0x678]\n  5909: t2 = u64 [s1 + 0x670]\n  5913: t0 = u64 [s1 + 0x668]\n  5917: a3 = u64 [s1 + 0x660]\n  5921: a0 = u64 [s1 + 0x198]\n  5925: a4 = t1 ^ a0\n  5928: a5 = t1 <u a0\n  5931: a1 = u64 [s1 + 0x178]\n  5935: a0 = t2 <u a1\n  5938: u64 [s1 + 0x158] = a0\n  5942: a5 = a0 if a4 == 0\n  5945: a0 = u64 [s1 + 0x190]\n  5949: ra = t0 ^ a0\n  5952: a0 = t0 <u a0\n  5955: a2 = u64 [s1 + 0x188]\n  5959: u64 [s1 + 0x160] = a3\n  5963: a2 = a3 <u a2\n  5966: u64 [s1 + 0x150] = a2\n  5970: a0 = a2 if ra == 0\n  5973: ra = a1\n  5975: a1 = t2 ^ a1\n  5978: a1 = a1 | a4\n  5981: a5 = a0 if a1 == 0\n  5984: jump @247 if a5 == 0\n      : @246 (gas: 1)\n  5987: jump @812\n      : @247 (gas: 11)\n  5990: a1 = t2 - ra\n  5993: a2 = u64 [s1 + 0x198]\n  5997: a2 = t1 - a2\n  6000: a3 = u64 [s1 + 0x158]\n  6004: a2 = a2 - a3\n  6007: a3 = a1 <u a0\n  6010: a2 = a2 - a3\n  6013: a1 = a1 - a0\n  6016: a0 = u64 [s1 + 0x190]\n  6020: a0 = t0 - a0\n  6023: t0 = 218, jump @1534\n      : @248 [@dyn 109] (gas: 7)\n  6030: u64 [a5 + 0xc8] = a3\n  6034: u64 [a5 + 0xd0] = a0\n  6038: u64 [a5 + 0xd8] = a1\n  6042: u64 [a5 + 0xe0] = a2\n  6046: a1 = s1 + 0x28e0\n  6050: a0 = u64 [s1 + 0x170]\n  6054: ra = 220, jump @28\n      : @249 [@dyn 110] (gas: 5)\n  6060: a0 = u64 [s1 + 0x168]\n  6064: ra = 0xde\n  6068: ecalli 4 // 'caller'\n  6070: t0 = 0xe0\n  6074: jump @1519\n      : @250 [@dyn 111] (gas: 1)\n  6078: t0 = 224, jump @1519\n      : @251 [@dyn 112] (gas: 14)\n  6085: u64 [s1 + 0x638] = a2\n  6089: a2 = u64 [a4 + 0x78]\n  6092: u64 [s1 + 0x630] = a2\n  6096: a2 = u64 [a4 + 0x90]\n  6100: u64 [s1 + 0x628] = a2\n  6104: a2 = u64 [a4 + 0x88]\n  6108: u64 [s1 + 0x620] = a2\n  6112: u64 [s1 + 1624] = 0\n  6116: u64 [s1 + 0x650] = a1\n  6120: u64 [s1 + 0x648] = a0\n  6124: a0 = s1 + 0x640\n  6128: a1 = s1 + 0x620\n  6132: u64 [s1 + 0x640] = a3\n  6136: ra = 226, jump @1476\n      : @252 [@dyn 113] (gas: 3)\n  6143: a0 = s1 + 0x600\n  6147: a1 = 0x40\n  6150: ra = 228, jump @22\n      : @253 [@dyn 114] (gas: 6)\n  6156: a4 = s1 + 0x600\n  6160: a0 = u64 [a4 + 0x18]\n  6163: a1 = u64 [a4 + 0x10]\n  6166: a2 = u64 [a4 + 0x8]\n  6169: a3 = u64 [a4]\n  6171: t0 = 230, jump @1515\n      : @254 [@dyn 115] (gas: 1)\n  6178: jump @256 if a0 == 0\n      : @255 (gas: 1)\n  6181: jump @781\n      : @256 (gas: 12)\n  6184: a0 = u64 [s1 + 0x188]\n  6188: u64 [s1 + 0x5e0] = a0\n  6192: a0 = u64 [s1 + 0x190]\n  6196: u64 [s1 + 0x5e8] = a0\n  6200: a0 = u64 [s1 + 0x178]\n  6204: u64 [s1 + 0x5f0] = a0\n  6208: a1 = s1 + 0x5e0\n  6212: a0 = u64 [s1 + 0x198]\n  6216: u64 [s1 + 0x5f8] = a0\n  6220: a0 = a3\n  6222: u64 [s1 + 0x198] = a3\n  6226: ra = 232, jump @24\n      : @257 [@dyn 116] (gas: 6)\n  6232: a0 = u64 [s1 + 0x168]\n  6236: ra = 0xea\n  6240: ecalli 4 // 'caller'\n  6242: a2 = u64 [s1 + 0x180]\n  6246: t0 = 0xec\n  6250: jump @1502\n      : @258 [@dyn 117] (gas: 2)\n  6254: a2 = u64 [s1 + 0x180]\n  6258: t0 = 236, jump @1502\n      : @259 [@dyn 118] (gas: 24)\n  6265: t0 = a1 | a0\n  6268: a3 = a3 >> 0x20\n  6271: a2 = reverse a2\n  6273: a1 = a2 << 0x20\n  6276: a1 = a1 | a3\n  6279: a2 = a2 >> 0x20\n  6282: u64 [s1 + 1464] = 0\n  6286: a3 = u64 [0x200d8]\n  6291: a4 = u64 [0x200e0]\n  6296: a5 = u64 [0x200e8]\n  6301: a0 = u64 [0x200f0]\n  6306: u64 [s1 + 0x5d8] = a3\n  6310: a3 = s1 + 0x500\n  6314: u64 [a3 + 0xd0] = a4\n  6318: u64 [a3 + 0xc8] = a5\n  6322: u64 [a3 + 0xc0] = a0\n  6326: u64 [a3 + 0xb0] = a2\n  6330: u64 [a3 + 0xa8] = a1\n  6334: a1 = 0x20\n  6337: a2 = s1 + 0x5c0\n  6341: a3 = s1 + 0x5a0\n  6345: u64 [s1 + 0x5a0] = t0\n  6349: a0 = u64 [s1 + 0x198]\n  6353: ra = 238, jump @29\n      : @260 [@dyn 119] (gas: 5)\n  6359: a0 = 0\n  6361: a1 = u64 [s1 + 0x148]\n  6365: a2 = 0\n  6367: ecalli 13 // 'seal_return'\n  6369: jump @1045\n      : @261 (gas: 10)\n  6372: a0 = s1 + 0x2918\n  6376: u64 [a0 + 128] = 0\n  6380: u64 [a0 + 120] = 0\n  6383: u64 [a0 + 112] = 0\n  6386: u64 [a0 + 104] = 0\n  6389: a0 = s1 + 0x3000\n  6393: i32 a0 = a0 + 0xfffffffffffff980\n  6397: ra = 0xf0\n  6401: ecalli 16 // 'value_transferred'\n  6403: fallthrough\n      : @262 [@dyn 120] (gas: 9)\n  6404: a3 = s1 + 0x2918\n  6408: a0 = u64 [a3 + 0x78]\n  6411: a1 = u64 [a3 + 0x80]\n  6415: a2 = u64 [a3 + 0x70]\n  6418: a3 = u64 [a3 + 0x68]\n  6421: a1 = a1 | a2\n  6424: a0 = a0 | a3\n  6427: a0 = a0 | a1\n  6430: jump @264 if a0 == 0\n      : @263 (gas: 1)\n  6433: jump @816\n      : @264 (gas: 1)\n  6436: t0 = 242, jump @1559\n      : @265 [@dyn 121] (gas: 1)\n  6443: jump @267 if a1 <u a0\n      : @266 (gas: 1)\n  6446: jump @817\n      : @267 (gas: 5)\n  6449: a0 = s1 + 0x3000\n  6453: i32 a0 = a0 + 0xfffffffffffff9a0\n  6457: a1 = 0x4\n  6460: ecalli 2 // 'call_data_load'\n  6462: fallthrough\n      : @268 (gas: 8)\n  6463: a3 = s1 + 0x2918\n  6467: a0 = u64 [a3 + 0xa0]\n  6471: a1 = u64 [a3 + 0x98]\n  6475: a2 = u64 [a3 + 0x90]\n  6479: a0 = a0 | a1\n  6482: a1 = a2 <u 0x1\n  6485: a1 = 0 if a0 != 0\n  6487: jump @270 if a1 != 0\n      : @269 (gas: 1)\n  6490: jump @818\n      : @270 (gas: 6)\n  6493: a0 = u64 [a3 + 0x88]\n  6497: u64 [s1 + 0x120] = a0\n  6501: a0 = s1 + 0x3000\n  6505: i32 a0 = a0 + 0xfffffffffffff9c0\n  6509: ecalli 9 // 'now'\n  6511: fallthrough\n      : @271 (gas: 49)\n  6512: a0 = s1 + 0x2918\n  6516: t2 = u64 [a0 + 0xc0]\n  6520: a3 = u64 [a0 + 0xb8]\n  6524: u64 [s1 + 0x150] = a3\n  6528: t0 = u64 [a0 + 0xb0]\n  6532: ra = u64 [a0 + 0xa8]\n  6536: a0 = clz t2\n  6538: a1 = clz a3\n  6540: a2 = a1 + 0x40\n  6543: a2 = a0 if t2 != 0\n  6546: a0 = clz t0\n  6548: a1 = clz ra\n  6550: a1 = a1 + 0x40\n  6553: a1 = a0 if t0 != 0\n  6556: a0 = a1 + 0x80\n  6560: a3 = a3 | t2\n  6563: a2 = a0 if a3 == 0\n  6566: a5 = a0 <u a1\n  6569: a5 = 0 if a3 != 0\n  6571: a4 = a5 >u 0\n  6573: a0 = a2 <u 0xf0\n  6577: a3 = a0 ^ 0x1\n  6580: a4 = a3 if a5 == 0\n  6583: a0 = a4 <u 0x1\n  6586: a0 = a0 + 0xffffffffffffffff\n  6589: a1 = -a4\n  6591: a5 = -a5\n  6593: a3 = a5 - a3\n  6596: t1 = 0xef - a2\n  6600: u64 [s1 + 0x198] = a1\n  6604: a5 = a1 >u 0\n  6606: a1 = a0 >u 0\n  6608: a1 = a5 if a0 == 0\n  6611: a5 = t1 <u 0x100\n  6615: a5 = a5 ^ 0x1\n  6618: a2 = a3 >u 0\n  6620: a5 = a2 if a3 != 0\n  6623: a5 = a1 if a4 != 0\n  6626: u64 [s1 + 0x140] = t2\n  6630: u64 [s1 + 0x158] = t0\n  6634: a1 = t0 | t2\n  6637: t2 = u64 [s1 + 0x150]\n  6641: a2 = ra | t2\n  6644: a1 = a1 | a2\n  6647: a1 = a1 <u 0x1\n  6650: a1 = a1 | a5\n  6653: a4 = ra\n  6655: a4 = 0 if a1 != 0\n  6657: jump @273 if a1 == 0\n      : @272 (gas: 1)\n  6660: jump @502\n      : @273 (gas: 6)\n  6663: a1 = t1 ^ 0xff\n  6667: a5 = u64 [s1 + 0x198]\n  6671: a1 = a1 | a5\n  6674: a2 = a3 | a0\n  6677: a1 = a1 | a2\n  6680: jump @275 if a1 != 0\n      : @274 (gas: 1)\n  6683: jump @502\n      : @275 (gas: 20)\n  6686: t0 = ra\n  6688: a2 = t1 + 0x1\n  6691: u64 [s1 + 0x190] = a2\n  6695: a1 = a2 <u 0x1\n  6698: a1 = a1 + a3\n  6701: u64 [s1 + 0x180] = a1\n  6705: a1 = a1 | a2\n  6708: a1 = a1 <u 0x1\n  6711: a1 = a1 + a5\n  6714: u64 [s1 + 0x170] = a1\n  6718: a1 = a1 <u a5\n  6721: a0 = a0 + a1\n  6724: u64 [s1 + 0x178] = a0\n  6728: a1 = 0xff - t1\n  6732: u64 [s1 + 0x168] = a1\n  6736: a2 = 0x80 - a1\n  6740: a0 = ra\n  6742: u64 [s1 + 0x148] = t0\n  6746: a1 = u64 [s1 + 0x158]\n  6750: ra = 244, jump @1580\n      : @276 [@dyn 122] (gas: 1)\n  6757: t0 = 246, jump @1574\n      : @277 [@dyn 123] (gas: 1)\n  6764: ra = 248, jump @1585\n      : @278 [@dyn 124] (gas: 7)\n  6771: u64 [s1 + 0x130] = a0\n  6775: u64 [s1 + 0x128] = a1\n  6779: a0 = u64 [s1 + 0x168]\n  6783: a2 = a0 + 0xffffffffffffff80\n  6786: a0 = u64 [s1 + 0x148]\n  6790: a1 = u64 [s1 + 0x158]\n  6794: ra = 250, jump @1585\n      : @279 [@dyn 125] (gas: 1)\n  6801: t0 = 252, jump @1578\n      : @280 [@dyn 126] (gas: 3)\n  6808: a0 = u64 [s1 + 0x148]\n  6812: a1 = u64 [s1 + 0x158]\n  6816: ra = 254, jump @1585\n      : @281 [@dyn 127] (gas: 11)\n  6823: a4 = u64 [s1 + 0x138]\n  6827: t0 = u64 [s1 + 0x170]\n  6831: a5 = u64 [s1 + 0x178]\n  6835: a2 = u64 [s1 + 0x180]\n  6839: a5 = a5 | a2\n  6842: a3 = u64 [s1 + 0x190]\n  6846: a3 = a3 | t0\n  6849: a3 = a3 | a5\n  6852: a0 = 0 if a4 == 0\n  6854: u64 [s1 + 0x188] = a0\n  6858: jump @283 if a3 == 0\n      : @282 (gas: 1)\n  6861: jump @489\n      : @283 (gas: 2)\n  6864: a4 = 0\n  6866: jump @501\n      : @284 (gas: 11)\n  6869: a0 = s1 + 0x2918\n  6873: u64 [a0 + 608] = 0\n  6877: u64 [a0 + 600] = 0\n  6881: u64 [a0 + 592] = 0\n  6885: u64 [a0 + 584] = 0\n  6889: a0 = s1 + 0x3000\n  6893: i32 a0 = a0 + 0xfffffffffffffb60\n  6897: ra = 0x100\n  6901: ecalli 16 // 'value_transferred'\n  6903: t0 = 0x102\n  6907: jump @1532\n      : @285 [@dyn 128] (gas: 1)\n  6911: t0 = 258, jump @1532\n      : @286 [@dyn 129] (gas: 1)\n  6918: t0 = 260, jump @1577\n      : @287 [@dyn 130] (gas: 1)\n  6925: jump @289 if a0 == 0\n      : @288 (gas: 1)\n  6928: jump @819\n      : @289 (gas: 3)\n  6931: a0 = u64 [s1 + 0x198]\n  6935: a0 = i32 [a0]\n  6937: jump @291 if a0 >u 99\n      : @290 (gas: 1)\n  6941: jump @820\n      : @291 (gas: 4)\n  6944: a0 = s1 + 0x1260\n  6948: ra = 0x106\n  6952: t0 = 0x588\n  6956: jump @1560\n      : @292 [@dyn 131] (gas: 11)\n  6960: a1 = s1 + 0x1118\n  6964: a0 = u64 [a1 + 0x148]\n  6968: u64 [s1 + 0x198] = a0\n  6972: a0 = u64 [a1 + 0x150]\n  6976: u64 [s1 + 0x190] = a0\n  6980: a0 = u32 [a1 + 0x158]\n  6984: u64 [s1 + 0x178] = a0\n  6988: a0 = s1 + 0x1240\n  6992: ra = 0x108\n  6996: t0 = 0x58c\n  7000: jump @1575\n      : @293 [@dyn 132] (gas: 7)\n  7004: a0 = s1 + 0x1118\n  7008: a0 = u64 [a0 + 0x128]\n  7012: u64 [s1 + 0x180] = a0\n  7016: a0 = s1 + 0x1220\n  7020: ra = 0x10a\n  7024: t0 = 0x592\n  7028: jump @1575\n      : @294 [@dyn 133] (gas: 3)\n  7032: t0 = 0x10c\n  7036: a2 = s1 + 0x1118\n  7040: fallthrough\n      : @295 [@dyn 134] (gas: 13)\n  7041: a0 = u64 [a2 + 0x108]\n  7045: a3 = s1 + 0x100\n  7049: u64 [a3 + 0x88] = a0\n  7053: u64 [a2 + 256] = 0\n  7057: a0 = u64 [a3 + 0x78]\n  7060: u64 [a2 + 0xf8] = a0\n  7064: a0 = u64 [a3 + 0x90]\n  7068: u64 [a2 + 0xf0] = a0\n  7072: a1 = s1 + 0x1200\n  7076: a0 = u64 [a3 + 0x98]\n  7080: u64 [a2 + 0xe8] = a0\n  7084: a0 = 0\n  7086: ra = 270, jump @24\n      : @296 [@dyn 135] (gas: 3)\n  7092: t0 = 0x110\n  7096: a1 = s1 + 0x1118\n  7100: fallthrough\n      : @297 [@dyn 136] (gas: 8)\n  7101: u64 [a1 + 224] = 0\n  7105: u64 [a1 + 216] = 0\n  7109: u64 [a1 + 200] = 0x4\n  7114: a2 = a1\n  7116: a0 = 0x20\n  7119: a1 = s1 + 0x11e0\n  7123: u64 [a2 + 208] = 0\n  7127: ra = 274, jump @24\n      : @298 [@dyn 137] (gas: 3)\n  7133: a1 = 0x20170\n  7138: a0 = i32 [0x20170]\n  7143: jump @300 if a0 >u 63\n      : @299 (gas: 2)\n  7147: u32 [0x20170] = 0x40\n  7153: fallthrough\n      : @300 (gas: 15)\n  7154: a0 = sp + 0xffffffffffffffe0\n  7157: a2 = a0 & 0xffffffffffffffe0\n  7160: u64 [s1 + 0x178] = a2\n  7164: sp = a2\n  7166: a0 = 0x20180\n  7171: i32 a0 = a0 + 0\n  7173: i32 a2 = a2 + 0\n  7175: u64 [s1 + 0x198] = a1\n  7179: a1 = 0x40\n  7182: u64 [s1 + 0x190] = a0\n  7186: ra = 0x114\n  7190: ecalli 8 // 'hash_keccak_256'\n  7192: a3 = u64 [s1 + 0x178]\n  7196: t0 = 0x116\n  7200: jump @1521\n      : @301 [@dyn 138] (gas: 2)\n  7204: a3 = u64 [s1 + 0x178]\n  7208: t0 = 278, jump @1521\n      : @302 [@dyn 139] (gas: 3)\n  7215: t0 = 0x118\n  7219: a2 = s1 + 0x1118\n  7223: fallthrough\n      : @303 [@dyn 140] (gas: 8)\n  7224: u64 [a2 + 192] = 0\n  7228: u64 [a2 + 184] = 0\n  7232: u64 [a2 + 176] = 0\n  7236: a1 = s1 + 0x11c0\n  7240: a0 = u64 [s1 + 0x180]\n  7244: u64 [a2 + 0xa8] = a0\n  7248: a0 = 0\n  7250: ra = 282, jump @24\n      : @304 [@dyn 141] (gas: 13)\n  7256: a0 = u64 [s1 + 0x160]\n  7260: a1 = s1 + 0x1118\n  7264: u64 [a1 + 0xa0] = a0\n  7268: a0 = u64 [s1 + 0x168]\n  7272: u64 [a1 + 0x98] = a0\n  7276: a0 = u64 [s1 + 0x170]\n  7280: u64 [a1 + 0x90] = a0\n  7284: a3 = a1\n  7286: a0 = 0x20\n  7289: a1 = s1 + 0x11a0\n  7293: a2 = u64 [s1 + 0x178]\n  7297: u64 [a3 + 0x88] = a2\n  7301: ra = 284, jump @24\n      : @305 [@dyn 142] (gas: 3)\n  7307: a1 = u64 [s1 + 0x198]\n  7311: a0 = i32 [a1]\n  7313: jump @307 if a0 >u 63\n      : @306 (gas: 2)\n  7317: u32 [a1 + 0] = 0x40\n  7320: fallthrough\n      : @307 (gas: 4)\n  7321: a0 = sp + 0xffffffffffffffe0\n  7324: a0 = a0 & 0xffffffffffffffe0\n  7327: u64 [s1 + 0x180] = a0\n  7331: t0 = 286, jump @1500\n      : @308 [@dyn 143] (gas: 5)\n  7338: ra = 0x120\n  7342: ecalli 8 // 'hash_keccak_256'\n  7344: a3 = u64 [s1 + 0x180]\n  7348: t0 = 0x122\n  7352: jump @1521\n      : @309 [@dyn 144] (gas: 2)\n  7356: a3 = u64 [s1 + 0x180]\n  7360: t0 = 290, jump @1521\n      : @310 [@dyn 145] (gas: 15)\n  7367: a0 = sp + 0xffffffffffffffe0\n  7370: a0 = a0 & 0xffffffffffffffe0\n  7373: u64 [s1 + 0x180] = a0\n  7377: sp = a0\n  7379: a0 = u64 [s1 + 0x188]\n  7383: a0 = a0 << 0x20\n  7386: a0 = a0 >> 0x20\n  7389: a2 = s1 + 0x1118\n  7393: u64 [a2 + 128] = 0\n  7397: u64 [a2 + 120] = 0\n  7400: u64 [a2 + 112] = 0\n  7403: a1 = s1 + 0x1180\n  7407: u64 [a2 + 0x68] = a0\n  7410: a0 = 0\n  7412: ra = 292, jump @24\n      : @311 [@dyn 146] (gas: 13)\n  7418: a0 = u64 [s1 + 0x160]\n  7422: a1 = s1 + 0x1118\n  7426: u64 [a1 + 0x60] = a0\n  7429: a0 = u64 [s1 + 0x168]\n  7433: u64 [a1 + 0x58] = a0\n  7436: a0 = u64 [s1 + 0x170]\n  7440: u64 [a1 + 0x50] = a0\n  7443: a3 = a1\n  7445: a0 = 0x20\n  7448: a1 = s1 + 0x1160\n  7452: a2 = u64 [s1 + 0x178]\n  7456: u64 [a3 + 0x48] = a2\n  7459: ra = 294, jump @24\n      : @312 [@dyn 147] (gas: 3)\n  7465: a1 = u64 [s1 + 0x198]\n  7469: a0 = i32 [a1]\n  7471: jump @314 if a0 >=u 64\n      : @313 (gas: 2)\n  7475: u32 [a1 + 0] = 0x40\n  7478: fallthrough\n      : @314 (gas: 4)\n  7479: a0 = sp + 0xffffffffffffffe0\n  7482: a0 = a0 & 0xffffffffffffffe0\n  7485: u64 [s1 + 0x198] = a0\n  7489: t0 = 296, jump @1500\n      : @315 [@dyn 148] (gas: 5)\n  7496: ra = 0x12a\n  7500: ecalli 8 // 'hash_keccak_256'\n  7502: a3 = u64 [s1 + 0x198]\n  7506: t0 = 0x12c\n  7510: jump @1527\n      : @316 [@dyn 149] (gas: 2)\n  7514: a3 = u64 [s1 + 0x198]\n  7518: t0 = 300, jump @1527\n      : @317 [@dyn 150] (gas: 2)\n  7525: a0 = s1 + 0x1140\n  7529: ra = 302, jump @26\n      : @318 [@dyn 151] (gas: 6)\n  7535: a0 = s1 + 0x1118\n  7539: a0 = u64 [a0 + 0x28]\n  7542: u64 [s1 + 0x198] = a0\n  7546: a0 = s1 + 0x1120\n  7550: a1 = 0x40\n  7553: ra = 304, jump @22\n      : @319 [@dyn 152] (gas: 2)\n  7559: a2 = s1 + 0x1118\n  7563: fallthrough\n      : @320 (gas: 12)\n  7564: t0 = u64 [a2 + 0x20]\n  7567: a5 = u64 [a2 + 0x18]\n  7570: a4 = u64 [a2 + 0x10]\n  7573: a0 = u64 [a2 + 0x8]\n  7576: a3 = a4 | t0\n  7579: a1 = a0 | a5\n  7582: a1 = a1 | a3\n  7585: a1 = a1 >> 0x20\n  7588: a3 = a3 | a5\n  7591: a3 = a3 << 0x20\n  7594: a1 = a1 | a3\n  7597: jump @322 if a1 == 0\n      : @321 (gas: 1)\n  7600: jump @781\n      : @322 (gas: 12)\n  7603: a1 = u8 [s1 + 0x198]\n  7607: a1 = a1 >u 0\n  7609: u64 [a2 + 0] = 0\n  7611: u64 [a2 + 4294967288] = 0\n  7614: u64 [a2 + 0xffffffffffffffe8] = a1\n  7617: a1 = s1 + 0x1100\n  7621: u64 [a2 + 4294967280] = 0\n  7624: u64 [s1 + 0x190] = a0\n  7628: u64 [s1 + 0x188] = a4\n  7632: u64 [s1 + 0x180] = t0\n  7636: u64 [s1 + 0x178] = a5\n  7640: ra = 306, jump @24\n      : @323 [@dyn 153] (gas: 12)\n  7646: a4 = s1 + 0x100\n  7650: a3 = u64 [a4 + 0x88]\n  7654: a2 = u64 [a4 + 0x90]\n  7658: a0 = u64 [a4 + 0x80]\n  7662: a1 = u64 [a4 + 0x78]\n  7665: a1 = a1 | a0\n  7668: a4 = 0x100000000\n  7678: a0 = 0xffffffe0\n  7688: a0 = a2 <u a0\n  7691: a0 = 0 if a3 != 0\n  7693: a0 = 0 if a1 != 0\n  7695: jump @325 if a0 != 0\n      : @324 (gas: 1)\n  7698: jump @781\n      : @325 (gas: 14)\n  7701: u64 [s1 + 0x180] = a1\n  7705: a1 = u64 [s1 + 0x198]\n  7709: a0 = a1 & 0xff00\n  7714: a1 = a0 >u 0\n  7716: i32 a0 = a2 + 0x20\n  7719: a2 = s1 + 0x7ff\n  7723: a2 = a2 + 0x119\n  7727: u64 [a2 + 2016] = 0\n  7731: u64 [a2 + 2008] = 0\n  7735: u64 [a2 + 0x7c8] = a1\n  7739: a1 = s1 + 0x10e0\n  7743: u64 [a2 + 2000] = 0\n  7747: u64 [s1 + 0x178] = a4\n  7751: ra = 308, jump @24\n      : @326 [@dyn 154] (gas: 10)\n  7757: a3 = s1 + 0x100\n  7761: a2 = u64 [a3 + 0x90]\n  7765: a0 = u64 [a3 + 0x78]\n  7768: a0 = a0 + 0xffffffffffffffc0\n  7771: a0 = a2 <u a0\n  7774: a1 = u64 [a3 + 0x88]\n  7778: a0 = 0 if a1 != 0\n  7780: a1 = u64 [a3 + 0x80]\n  7784: a0 = 0 if a1 != 0\n  7786: jump @328 if a0 != 0\n      : @327 (gas: 1)\n  7789: jump @781\n      : @328 (gas: 12)\n  7792: a1 = u64 [s1 + 0x198]\n  7796: a0 = a1 & 0xff0000\n  7802: a1 = a0 >u 0\n  7804: i32 a0 = a2 + 0x40\n  7807: a3 = s1 + 0x7ff\n  7811: a3 = a3 + 0x119\n  7815: u64 [a3 + 1984] = 0\n  7819: u64 [a3 + 1976] = 0\n  7823: u64 [a3 + 0x7a8] = a1\n  7827: a1 = s1 + 0x10c0\n  7831: u64 [a3 + 1968] = 0\n  7835: ra = 310, jump @24\n      : @329 [@dyn 155] (gas: 3)\n  7841: a1 = 0x60\n  7844: a0 = u64 [s1 + 0x190]\n  7848: ra = 312, jump @37\n      : @330 [@dyn 156] (gas: 5)\n  7854: i32 a1 = a0 + 0\n  7856: a2 = 0x60\n  7859: a0 = 0\n  7861: ecalli 13 // 'seal_return'\n  7863: jump @883\n      : @331 (gas: 10)\n  7866: a0 = s1 + 0x2918\n  7870: u64 [a0 + 1120] = 0\n  7874: u64 [a0 + 1112] = 0\n  7878: u64 [a0 + 1104] = 0\n  7882: u64 [a0 + 1096] = 0\n  7886: a0 = s1 + 0x3000\n  7890: i32 a0 = a0 + 0xfffffffffffffd60\n  7894: ra = 0x13a\n  7898: ecalli 16 // 'value_transferred'\n  7900: fallthrough\n      : @332 [@dyn 157] (gas: 3)\n  7901: a3 = s1 + 0x2918\n  7905: a4 = a3 + 0x400\n  7909: t0 = 316, jump @1577\n      : @333 [@dyn 158] (gas: 1)\n  7916: jump @335 if a0 == 0\n      : @334 (gas: 1)\n  7919: jump @821\n      : @335 (gas: 1)\n  7922: t0 = 318, jump @1559\n      : @336 [@dyn 159] (gas: 1)\n  7929: jump @338 if a1 <u a0\n      : @337 (gas: 1)\n  7932: jump @822\n      : @338 (gas: 5)\n  7935: a0 = s1 + 0x3000\n  7939: i32 a0 = a0 + 0xfffffffffffffd80\n  7943: a1 = 0x4\n  7946: ecalli 2 // 'call_data_load'\n  7948: fallthrough\n      : @339 (gas: 9)\n  7949: a3 = s1 + 0x2918\n  7953: a0 = a3 + 0x400\n  7957: a1 = u64 [a0 + 0x80]\n  7961: a2 = u64 [a0 + 0x78]\n  7964: a4 = u64 [a0 + 0x70]\n  7967: a5 = a2 | a1\n  7970: a0 = a4 <u 0x1\n  7973: a0 = 0 if a5 != 0\n  7975: jump @341 if a0 != 0\n      : @340 (gas: 1)\n  7978: jump @823\n      : @341 (gas: 20)\n  7981: u64 [s1 + 0x98] = a5\n  7985: a5 = u64 [a3 + 0x468]\n  7989: a0 = u64 [s1 + 0x198]\n  7993: t0 = u32 [a0]\n  7995: a0 = a5 + 0x23\n  7998: a3 = a0 <u a5\n  8001: t1 = a4 + a3\n  8004: u64 [s1 + 0xd8] = a4\n  8008: a4 = t1 <u a4\n  8011: a4 = a3 if a3 == 0\n  8014: a4 = a4 + a2\n  8017: u64 [s1 + 0x188] = a2\n  8021: a2 = a4 <u a2\n  8024: u64 [s1 + 0x190] = a1\n  8028: a2 = a2 + a1\n  8031: a2 = a2 | a4\n  8034: a0 = a0 <u t0\n  8037: a0 = 0 if t1 != 0\n  8039: a0 = 0 if a2 != 0\n  8041: jump @343 if a0 != 0\n      : @342 (gas: 1)\n  8044: jump @824\n      : @343 (gas: 6)\n  8047: i32 a1 = a5 + 0x4\n  8050: a0 = s1 + 0x3000\n  8054: i32 a0 = a0 + 0xfffffffffffffda0\n  8058: u64 [s1 + 0xd0] = a5\n  8062: ecalli 2 // 'call_data_load'\n  8064: fallthrough\n      : @344 (gas: 9)\n  8065: a2 = s1 + 0x2918\n  8069: a0 = u64 [a2 + 0x4a0]\n  8073: t0 = u64 [a2 + 0x498]\n  8077: ra = u64 [a2 + 0x490]\n  8081: u64 [s1 + 0xf0] = a0\n  8085: a0 = t0 | a0\n  8088: a1 = ra <u 0x1\n  8091: a1 = 0 if a0 != 0\n  8093: jump @346 if a1 != 0\n      : @345 (gas: 1)\n  8096: jump @825\n      : @346 (gas: 43)\n  8099: t1 = u64 [a2 + 0x488]\n  8103: a1 = u64 [s1 + 0xd0]\n  8107: a0 = a1 + 0x24\n  8110: a2 = a0 <u a1\n  8113: t2 = u64 [s1 + 0xd8]\n  8117: a3 = t2 + a2\n  8120: a1 = a0 + t1\n  8123: u64 [s1 + 0x180] = a1\n  8127: u64 [s1 + 0x120] = a0\n  8131: a4 = a1 <u a0\n  8134: a0 = a3 + ra\n  8137: a0 = a0 + a4\n  8140: a5 = a0 ^ a3\n  8143: a1 = a0 <u a3\n  8146: a1 = a4 if a5 == 0\n  8149: a3 = a3 <u t2\n  8152: a3 = a2 if a2 == 0\n  8155: a2 = u64 [s1 + 0x188]\n  8159: a3 = a3 + a2\n  8162: a2 = a3 <u a2\n  8165: a5 = u64 [s1 + 0xf0]\n  8169: a4 = u64 [s1 + 0x190]\n  8173: a4 = a4 + a5\n  8176: a2 = a2 + a4\n  8179: a4 = a3 + t0\n  8182: a3 = a4 <u a3\n  8185: a2 = a2 + a3\n  8188: a3 = u64 [s1 + 0x198]\n  8192: a3 = u32 [a3]\n  8194: a1 = a1 + a4\n  8197: a4 = a1 <u a4\n  8200: a2 = a2 + a4\n  8203: a4 = u64 [s1 + 0x180]\n  8207: a3 = a3 <u a4\n  8210: a4 = a0 <u 0x1\n  8213: a3 = a3 ^ 0x1\n  8216: a3 = a4 if a0 != 0\n  8219: a0 = a2 <u 0x1\n  8222: a4 = a1 <u 0x1\n  8225: a4 = a0 if a2 != 0\n  8228: a1 = a1 | a2\n  8231: a3 = a4 if a1 != 0\n  8234: jump @348 if a3 != 0\n      : @347 (gas: 1)\n  8237: jump @826\n      : @348 (gas: 26)\n  8240: a0 = t1 + 0xfffffffffffffffd\n  8243: u64 [s1 + 0xc0] = t1\n  8247: a1 = a0 <u t1\n  8250: a2 = ra + a1\n  8253: a2 = a2 + 0xffffffffffffffff\n  8256: a3 = a2 ^ ra\n  8259: u64 [s1 + 0xb0] = ra\n  8263: a4 = a2 <u ra\n  8266: a4 = a1 if a3 == 0\n  8269: a1 = t0 + 0xffffffffffffffff\n  8272: a4 = a4 + a1\n  8275: a1 = a4 <u a1\n  8278: u64 [s1 + 0xb8] = t0\n  8282: a3 = t0 <u 0x1\n  8285: a3 = a5 - a3\n  8288: a1 = a1 + a3\n  8291: a3 = a4 >u 0\n  8293: a5 = a1 >u 0\n  8295: a5 = a3 if a1 == 0\n  8298: a1 = a1 | a4\n  8301: a3 = a2 >u 0\n  8303: a0 = a0 <u 0x62\n  8306: a0 = a0 ^ 0x1\n  8309: a0 = a3 if a2 != 0\n  8312: a0 = a5 if a1 != 0\n  8315: jump @350 if a0 == 0\n      : @349 (gas: 1)\n  8318: jump @858\n      : @350 (gas: 9)\n  8321: a0 = 0x30180\n  8326: u64 [s1 + 0xe8] = a0\n  8330: i32 a0 = a0 + 0\n  8332: u64 [s1 + 0xc8] = a0\n  8336: ra = 0x140\n  8340: ecalli 4 // 'caller'\n  8342: a2 = u64 [s1 + 0xe8]\n  8346: t0 = 0x142\n  8350: jump @1504\n      : @351 [@dyn 160] (gas: 2)\n  8353: a2 = u64 [s1 + 0xe8]\n  8357: t0 = 322, jump @1504\n      : @352 [@dyn 161] (gas: 8)\n  8363: u64 [a2 + 1056] = 0\n  8367: a4 = a2 + 0x400\n  8371: u64 [a4 + 0x18] = a1\n  8374: u64 [a4 + 0x10] = a0\n  8377: a1 = s1 + 0x2520\n  8381: u64 [a4 + 0x8] = a3\n  8384: a0 = 0\n  8386: ra = 324, jump @24\n      : @353 [@dyn 162] (gas: 9)\n  8392: a1 = s1 + 0x2118\n  8396: u64 [a1 + 1024] = 0\n  8400: u64 [a1 + 1016] = 0\n  8404: u64 [a1 + 1000] = 0x3\n  8409: a2 = a1\n  8411: a0 = 0x20\n  8414: a1 = s1 + 0x2500\n  8418: u64 [a2 + 1008] = 0\n  8422: ra = 326, jump @24\n      : @354 [@dyn 163] (gas: 1)\n  8428: t0 = 328, jump @1549\n      : @355 [@dyn 164] (gas: 3)\n  8435: a2 = 0x20170\n  8440: a0 = i32 [0x20170]\n  8445: jump @357 if a0 >u 63\n      : @356 (gas: 2)\n  8449: u32 [0x20170] = 0x40\n  8455: fallthrough\n      : @357 (gas: 16)\n  8456: u64 [s1 + 0xa8] = a2\n  8460: a0 = 0xffffffff\n  8470: u64 [s1 + 0xe0] = a0\n  8474: a0 = sp + 0xffffffffffffffe0\n  8477: a2 = a0 & 0xffffffffffffffe0\n  8480: u64 [s1 + 0x190] = a2\n  8484: sp = a2\n  8486: a0 = 0x20180\n  8491: i32 a0 = a0 + 0\n  8493: i32 a2 = a2 + 0\n  8495: a1 = 0x40\n  8498: u64 [s1 + 0xa0] = a0\n  8502: ra = 0x14a\n  8506: ecalli 8 // 'hash_keccak_256'\n  8508: t0 = 0x14c\n  8512: jump @1520\n      : @358 [@dyn 165] (gas: 1)\n  8516: t0 = 332, jump @1520\n      : @359 [@dyn 166] (gas: 3)\n  8523: i32 a0 = a0 + 0x4e0\n  8527: a0 = a0 + s1\n  8530: ra = 334, jump @26\n      : @360 [@dyn 167] (gas: 4)\n  8536: a0 = s1 + 0x2118\n  8540: a0 = u32 [a0 + 0x3c8]\n  8544: a1 = u64 [s1 + 0xe0]\n  8548: jump @362 if a0 != a1\n      : @361 (gas: 1)\n  8551: jump @827\n      : @362 (gas: 10)\n  8554: a1 = a0 + 0x1\n  8557: u64 [s1 + 0x100] = a1\n  8561: a0 = a1 <u 0x1\n  8564: u64 [s1 + 0xf8] = a0\n  8568: a0 = a0 | a1\n  8571: a0 = a0 <u 0x1\n  8574: u64 [s1 + 0x108] = a0\n  8578: a0 = s1 + 0x24c0\n  8582: a1 = u64 [s1 + 0x198]\n  8586: ra = 336, jump @26\n      : @363 [@dyn 168] (gas: 22)\n  8592: a3 = s1 + 0x2118\n  8596: a0 = u32 [a3 + 0x3ac]\n  8600: a4 = a3 + 0x300\n  8604: a1 = u64 [a4 + 0xb8]\n  8608: a0 = a0 << 0x20\n  8611: a2 = u64 [a4 + 0xb0]\n  8615: a3 = u64 [a4 + 0xc0]\n  8619: a4 = u64 [s1 + 0x108]\n  8623: a1 = a1 | a4\n  8626: a4 = u64 [s1 + 0x100]\n  8630: a0 = a0 | a4\n  8633: a4 = u64 [s1 + 0xf8]\n  8637: a2 = a2 | a4\n  8640: a4 = s1 + 0x2918\n  8644: a5 = a4 + 0x400\n  8648: u64 [a5 + 0xc0] = a3\n  8652: u64 [a5 + 0xb0] = a2\n  8656: u64 [a5 + 0xa8] = a0\n  8660: u64 [a5 + 0xb8] = a1\n  8664: a1 = s1 + 0x2dc0\n  8668: a0 = u64 [s1 + 0x198]\n  8672: ra = 338, jump @28\n      : @364 [@dyn 169] (gas: 4)\n  8678: a0 = s1 + 0x3000\n  8682: i32 a0 = a0 + 0xfffffffffffffde0\n  8686: ecalli 9 // 'now'\n  8688: fallthrough\n      : @365 (gas: 50)\n  8689: a0 = s1 + 0x2918\n  8693: t2 = u64 [a0 + 0x4e0]\n  8697: a3 = u64 [a0 + 0x4d8]\n  8701: u64 [s1 + 0x150] = a3\n  8705: t1 = u64 [a0 + 0x4d0]\n  8709: ra = u64 [a0 + 0x4c8]\n  8713: a0 = clz t2\n  8715: a1 = clz a3\n  8717: a2 = a1 + 0x40\n  8720: a2 = a0 if t2 != 0\n  8723: a0 = clz t1\n  8725: a1 = clz ra\n  8727: a1 = a1 + 0x40\n  8730: a1 = a0 if t1 != 0\n  8733: a0 = a1 + 0x80\n  8737: a3 = a3 | t2\n  8740: a2 = a0 if a3 == 0\n  8743: a5 = a0 <u a1\n  8746: a5 = 0 if a3 != 0\n  8748: a4 = a5 >u 0\n  8750: a0 = a2 <u 0xf0\n  8754: a3 = a0 ^ 0x1\n  8757: a4 = a3 if a5 == 0\n  8760: a0 = a4 <u 0x1\n  8763: a0 = a0 + 0xffffffffffffffff\n  8766: a1 = -a4\n  8768: a5 = -a5\n  8770: a3 = a5 - a3\n  8773: t0 = 0xef - a2\n  8777: u64 [s1 + 0x198] = a1\n  8781: a5 = a1 >u 0\n  8783: a1 = a0 >u 0\n  8785: a1 = a5 if a0 == 0\n  8788: a5 = t0 <u 0x100\n  8792: a5 = a5 ^ 0x1\n  8795: a2 = a3 >u 0\n  8797: a5 = a2 if a3 != 0\n  8800: a5 = a1 if a4 != 0\n  8803: u64 [s1 + 0x140] = t2\n  8807: a1 = t1 | t2\n  8810: t2 = t1\n  8812: t1 = u64 [s1 + 0x150]\n  8816: a2 = ra | t1\n  8819: a1 = a1 | a2\n  8822: a1 = a1 <u 0x1\n  8825: a1 = a1 | a5\n  8828: u64 [s1 + 0x158] = ra\n  8832: a4 = ra\n  8834: a4 = 0 if a1 != 0\n  8836: jump @367 if a1 == 0\n      : @366 (gas: 1)\n  8839: jump @614\n      : @367 (gas: 6)\n  8842: a1 = t0 ^ 0xff\n  8846: a5 = u64 [s1 + 0x198]\n  8850: a1 = a1 | a5\n  8853: a2 = a3 | a0\n  8856: a1 = a1 | a2\n  8859: jump @369 if a1 != 0\n      : @368 (gas: 1)\n  8862: jump @614\n      : @369 (gas: 19)\n  8865: a2 = t0 + 0x1\n  8868: u64 [s1 + 0x190] = a2\n  8872: a1 = a2 <u 0x1\n  8875: a1 = a1 + a3\n  8878: u64 [s1 + 0x180] = a1\n  8882: a1 = a1 | a2\n  8885: a1 = a1 <u 0x1\n  8888: a1 = a1 + a5\n  8891: u64 [s1 + 0x170] = a1\n  8895: a1 = a1 <u a5\n  8898: a0 = a0 + a1\n  8901: u64 [s1 + 0x178] = a0\n  8905: a1 = 0xff - t0\n  8909: u64 [s1 + 0x168] = a1\n  8913: a2 = 0x80 - a1\n  8917: a0 = u64 [s1 + 0x158]\n  8921: a1 = t2\n  8923: u64 [s1 + 0x148] = t2\n  8927: ra = 340, jump @1580\n      : @370 [@dyn 170] (gas: 1)\n  8934: t0 = 342, jump @1574\n      : @371 [@dyn 171] (gas: 1)\n  8941: ra = 344, jump @1585\n      : @372 [@dyn 172] (gas: 7)\n  8948: u64 [s1 + 0x130] = a0\n  8952: u64 [s1 + 0x128] = a1\n  8956: a0 = u64 [s1 + 0x168]\n  8960: a2 = a0 + 0xffffffffffffff80\n  8963: a0 = u64 [s1 + 0x158]\n  8967: a1 = u64 [s1 + 0x148]\n  8971: ra = 346, jump @1585\n      : @373 [@dyn 173] (gas: 1)\n  8978: t0 = 348, jump @1578\n      : @374 [@dyn 174] (gas: 3)\n  8985: a0 = u64 [s1 + 0x158]\n  8989: a1 = u64 [s1 + 0x148]\n  8993: ra = 350, jump @1585\n      : @375 [@dyn 175] (gas: 11)\n  9000: a4 = u64 [s1 + 0x138]\n  9004: t0 = u64 [s1 + 0x170]\n  9008: a5 = u64 [s1 + 0x178]\n  9012: a2 = u64 [s1 + 0x180]\n  9016: a5 = a5 | a2\n  9019: a3 = u64 [s1 + 0x190]\n  9023: a3 = a3 | t0\n  9026: a3 = a3 | a5\n  9029: a0 = 0 if a4 == 0\n  9031: u64 [s1 + 0x188] = a0\n  9035: jump @377 if a3 == 0\n      : @376 (gas: 1)\n  9038: jump @601\n      : @377 (gas: 2)\n  9041: a4 = 0\n  9043: jump @613\n      : @378 (gas: 10)\n  9046: u64 [a2 + 1792] = 0\n  9050: u64 [a2 + 1784] = 0\n  9054: u64 [a2 + 1776] = 0\n  9058: u64 [a2 + 1768] = 0\n  9062: a0 = s1 + 0x3000\n  9066: i32 a0 = a0 + 0xfffffffffffff800\n  9070: ra = 0x160\n  9074: ecalli 16 // 'value_transferred'\n  9076: t0 = 0x162\n  9080: jump @1572\n      : @379 [@dyn 176] (gas: 1)\n  9084: t0 = 354, jump @1572\n      : @380 [@dyn 177] (gas: 8)\n  9091: a0 = u64 [a4 + 0xf8]\n  9095: a1 = u64 [a3 + 0x700]\n  9099: a2 = u64 [a4 + 0xf0]\n  9103: a3 = u64 [a4 + 0xe8]\n  9107: a1 = a1 | a2\n  9110: a0 = a0 | a3\n  9113: a0 = a0 | a1\n  9116: jump @382 if a0 == 0\n      : @381 (gas: 1)\n  9119: jump @831\n      : @382 (gas: 3)\n  9122: a0 = u64 [s1 + 0x198]\n  9126: a0 = i32 [a0]\n  9128: jump @384 if a0 >u 3\n      : @383 (gas: 1)\n  9132: jump @832\n      : @384 (gas: 17)\n  9135: a0 = s1 + 0x3000\n  9139: i32 a0 = a0 + 0xfffffffffffff820\n  9143: ecalli 9 // 'now'\n  9145: a0 = s1 + 0x2118\n  9149: a2 = a0 + 0x700\n  9153: a1 = u64 [a2 + 0x20]\n  9156: a3 = s1 + 0x100\n  9160: u64 [a3 + 0x58] = a1\n  9163: a1 = u64 [a2 + 0x18]\n  9166: u64 [a3 + 0x50] = a1\n  9169: a1 = u64 [a2 + 0x10]\n  9172: u64 [a3 + 0x98] = a1\n  9176: a0 = u64 [a2 + 0x8]\n  9179: u64 [a3 + 0x90] = a0\n  9183: a0 = s1 + 0x3e0\n  9187: a1 = 0x40\n  9190: ra = 356, jump @22\n      : @385 [@dyn 178] (gas: 6)\n  9196: a4 = s1 + 0x300\n  9200: a0 = u64 [a4 + 0xf8]\n  9204: a1 = u64 [a4 + 0xf0]\n  9208: a2 = u64 [a4 + 0xe8]\n  9212: a3 = u64 [a4 + 0xe0]\n  9216: t0 = 358, jump @1515\n      : @386 [@dyn 179] (gas: 1)\n  9222: jump @388 if a0 == 0\n      : @387 (gas: 1)\n  9225: jump @781\n      : @388 (gas: 46)\n  9228: u64 [s1 + 0x118] = a3\n  9232: t1 = u64 [s1 + 0x150]\n  9236: a0 = clz t1\n  9238: a0 = a0 + 0x40\n  9241: ra = u64 [s1 + 0x158]\n  9245: a2 = clz ra\n  9247: a2 = a0 if ra == 0\n  9250: t2 = u64 [s1 + 0x190]\n  9254: a0 = clz t2\n  9256: a0 = a0 + 0x40\n  9259: t0 = u64 [s1 + 0x198]\n  9263: a1 = clz t0\n  9265: a1 = a0 if t0 == 0\n  9268: a0 = a1 + 0x80\n  9272: a3 = t1 | ra\n  9275: a2 = a0 if a3 == 0\n  9278: a5 = a0 <u a1\n  9281: a5 = 0 if a3 != 0\n  9283: a4 = a5 >u 0\n  9285: a0 = a2 <u 0xf0\n  9289: a3 = a0 ^ 0x1\n  9292: a4 = a3 if a5 == 0\n  9295: a0 = a4 <u 0x1\n  9298: a0 = a0 + 0xffffffffffffffff\n  9301: a1 = -a4\n  9303: a5 = -a5\n  9305: a3 = a5 - a3\n  9308: a2 = 0xef - a2\n  9312: u64 [s1 + 0x178] = a1\n  9316: a5 = a1 >u 0\n  9318: a1 = a0 >u 0\n  9320: a1 = a5 if a0 == 0\n  9323: a5 = a3 >u 0\n  9325: u64 [s1 + 0x168] = a2\n  9329: a2 = a2 <u 0x100\n  9333: a2 = a2 ^ 0x1\n  9336: a2 = a5 if a3 != 0\n  9339: a2 = a1 if a4 != 0\n  9342: a1 = t2 | t1\n  9345: a4 = t0 | ra\n  9348: a1 = a1 | a4\n  9351: a1 = a1 <u 0x1\n  9354: a1 = a1 | a2\n  9357: a4 = t2\n  9359: a4 = 0 if a1 != 0\n  9361: jump @390 if a1 == 0\n      : @389 (gas: 1)\n  9364: jump @879\n      : @390 (gas: 7)\n  9367: a1 = u64 [s1 + 0x168]\n  9371: a1 = a1 ^ 0xff\n  9375: a2 = u64 [s1 + 0x178]\n  9379: a1 = a1 | a2\n  9382: a2 = a3 | a0\n  9385: a1 = a1 | a2\n  9388: jump @392 if a1 != 0\n      : @391 (gas: 1)\n  9391: jump @879\n      : @392 (gas: 20)\n  9394: a4 = u64 [s1 + 0x168]\n  9398: a2 = a4 + 0x1\n  9401: u64 [s1 + 0x188] = a2\n  9405: a1 = a2 <u 0x1\n  9408: a1 = a1 + a3\n  9411: u64 [s1 + 0x180] = a1\n  9415: a1 = a1 | a2\n  9418: a1 = a1 <u 0x1\n  9421: a3 = u64 [s1 + 0x178]\n  9425: a1 = a1 + a3\n  9428: u64 [s1 + 0x170] = a1\n  9432: a1 = a1 <u a3\n  9435: a0 = a0 + a1\n  9438: u64 [s1 + 0x178] = a0\n  9442: a1 = 0xff - a4\n  9446: u64 [s1 + 0x140] = a1\n  9450: a2 = 0x80 - a1\n  9454: a0 = u64 [s1 + 0x190]\n  9458: a1 = u64 [s1 + 0x198]\n  9462: ra = 360, jump @1580\n      : @393 [@dyn 180] (gas: 6)\n  9469: u64 [s1 + 0x130] = a0\n  9473: u64 [s1 + 0x148] = a1\n  9477: a0 = u64 [s1 + 0x150]\n  9481: a1 = u64 [s1 + 0x158]\n  9485: a2 = u64 [s1 + 0x140]\n  9489: ra = 362, jump @1585\n      : @394 [@dyn 181] (gas: 7)\n  9496: u64 [s1 + 0x128] = a0\n  9500: u64 [s1 + 0x120] = a1\n  9504: a0 = u64 [s1 + 0x140]\n  9508: a2 = a0 + 0xffffffffffffff80\n  9511: a0 = u64 [s1 + 0x190]\n  9515: a1 = u64 [s1 + 0x198]\n  9519: ra = 364, jump @1585\n      : @395 [@dyn 182] (gas: 8)\n  9526: u64 [s1 + 0x110] = a0\n  9530: u64 [s1 + 0x108] = a1\n  9534: a2 = u64 [s1 + 0x140]\n  9538: a0 = a2 <u 0x80\n  9542: u64 [s1 + 0x138] = a0\n  9546: a0 = u64 [s1 + 0x190]\n  9550: a1 = u64 [s1 + 0x198]\n  9554: ra = 366, jump @1585\n      : @396 [@dyn 183] (gas: 13)\n  9561: a4 = s1 + 0x100\n  9565: u64 [a4 + 0x60] = a1\n  9568: a1 = u64 [a4 + 0x80]\n  9572: a2 = u64 [a4 + 0x78]\n  9575: a2 = a2 | a1\n  9578: a1 = u64 [a4 + 0x88]\n  9582: a3 = u64 [a4 + 0x70]\n  9585: a1 = a1 | a3\n  9588: a1 = a1 | a2\n  9591: a3 = u64 [a4 + 0x38]\n  9594: a0 = 0 if a3 == 0\n  9596: u64 [a4 + 0x68] = a0\n  9599: jump @398 if a1 != 0\n      : @397 (gas: 1)\n  9602: jump @877\n      : @398 (gas: 30)\n  9605: a2 = a3\n  9607: a0 = u64 [s1 + 0x148]\n  9611: a1 = u64 [s1 + 0x120]\n  9615: a0 = a0 | a1\n  9618: a5 = a3\n  9620: a1 = u64 [s1 + 0x108]\n  9624: a0 = a1 if a2 == 0\n  9627: a2 = u64 [s1 + 0x158]\n  9631: a3 = a2\n  9633: a1 = a2\n  9635: a2 = u64 [s1 + 0x140]\n  9639: a3 = a0 if a2 != 0\n  9642: u64 [s1 + 0x148] = a3\n  9646: a0 = u64 [s1 + 0x130]\n  9650: a3 = u64 [s1 + 0x128]\n  9654: a0 = a0 | a3\n  9657: a3 = u64 [s1 + 0x110]\n  9661: a0 = a3 if a5 == 0\n  9664: a4 = u64 [s1 + 0x150]\n  9668: a3 = a4\n  9670: a3 = a0 if a2 != 0\n  9673: u64 [s1 + 0x140] = a3\n  9677: a0 = u64 [s1 + 0x160]\n  9681: a0 = 0 if a5 == 0\n  9683: u64 [s1 + 0x160] = a0\n  9687: u64 [s1 + 304] = 0x15180\n  9694: a0 = u64 [s1 + 0x188]\n  9698: a2 = a0 + 0xffffffffffffff80\n  9701: a0 = a4\n  9703: ra = 368, jump @1580\n      : @399 [@dyn 184] (gas: 6)\n  9710: u64 [s1 + 0x138] = a0\n  9714: u64 [s1 + 0x120] = a1\n  9718: a0 = u64 [s1 + 0x190]\n  9722: a1 = u64 [s1 + 0x198]\n  9726: a2 = u64 [s1 + 0x188]\n  9730: ra = 370, jump @1580\n      : @400 [@dyn 185] (gas: 7)\n  9737: u64 [s1 + 0x110] = a0\n  9741: u64 [s1 + 0x128] = a1\n  9745: a1 = u64 [s1 + 0x188]\n  9749: a2 = 0x80 - a1\n  9753: a0 = u64 [s1 + 0x150]\n  9757: a1 = u64 [s1 + 0x158]\n  9761: ra = 372, jump @1585\n      : @401 [@dyn 186] (gas: 20)\n  9768: a2 = u64 [s1 + 0x128]\n  9772: a1 = a1 | a2\n  9775: a2 = u64 [s1 + 0x188]\n  9779: a3 = a2 <u 0x80\n  9783: u64 [s1 + 0x128] = a3\n  9787: a4 = u64 [s1 + 0x120]\n  9791: a1 = a4 if a3 == 0\n  9794: a4 = u64 [s1 + 0x198]\n  9798: a4 = a1 if a2 != 0\n  9801: u64 [s1 + 0x198] = a4\n  9805: a1 = u64 [s1 + 0x110]\n  9809: a0 = a0 | a1\n  9812: a1 = u64 [s1 + 0x138]\n  9816: a0 = a1 if a3 == 0\n  9819: a1 = u64 [s1 + 0x190]\n  9823: a1 = a0 if a2 != 0\n  9826: u64 [s1 + 0x190] = a1\n  9830: a0 = u64 [s1 + 0x150]\n  9834: a1 = u64 [s1 + 0x158]\n  9838: ra = 374, jump @1580\n      : @402 [@dyn 187] (gas: 16)\n  9845: t2 = u64 [s1 + 0x190]\n  9849: t1 = u64 [s1 + 0x198]\n  9853: u64 [s1 + 344] = 0\n  9857: u64 [s1 + 336] = 0\n  9861: a4 = s1 + 0x100\n  9865: a2 = u64 [a4 + 0x28]\n  9868: a1 = 0 if a2 == 0\n  9870: a0 = 0 if a2 == 0\n  9872: u64 [a4 + 0x38] = a0\n  9875: a3 = u64 [a4 + 0x30]\n  9878: a2 = a3 + 0xffffffffffffffff\n  9881: u64 [a4 + 0x28] = a2\n  9884: a2 = a3 >u 0\n  9886: a2 = a2 + 0xffffffffffffffff\n  9889: u64 [a4 + 0x20] = a2\n  9892: fallthrough\n      : @403 (gas: 89)\n  9893: a2 = t2 >> 0x3f\n  9896: a3 = t1 << 0x1\n  9899: a2 = a2 | a3\n  9902: a3 = t2 << 0x1\n  9905: t2 = u64 [s1 + 0x148]\n  9909: a4 = t2 >> 0x3f\n  9912: a3 = a3 | a4\n  9915: u64 [s1 + 0x198] = a3\n  9919: ra = u64 [s1 + 0x120]\n  9923: a0 = t1\n  9925: t1 = ra ^ a2\n  9928: t0 = ra <u a2\n  9931: a4 = u64 [s1 + 0x128]\n  9935: a5 = a4 <u a3\n  9938: a5 = t0 if t1 != 0\n  9941: a1 = a1 << 0x1\n  9944: a4 = u64 [s1 + 0x138]\n  9948: a3 = a4 >> 0x3f\n  9951: a1 = a1 | a3\n  9954: u64 [s1 + 0x190] = a1\n  9958: a3 = a0 >> 0x3f\n  9961: a0 = a4 << 0x1\n  9964: a3 = a3 | a0\n  9967: a0 = t2 << 0x1\n  9970: a4 = u64 [s1 + 0x140]\n  9974: a1 = a4 >> 0x3f\n  9977: t0 = a0 | a1\n  9980: a1 = a4 << 0x1\n  9983: a4 = u64 [s1 + 0x160]\n  9987: t1 = a4 >> 0x3f\n  9990: t1 = a1 | t1\n  9993: a1 = a4 << 0x1\n  9996: a4 = u64 [s1 + 0x168]\n 10000: t2 = a4 >> 0x3f\n 10003: a1 = a1 | t2\n 10006: a4 = a4 << 0x1\n 10009: a0 = u64 [s1 + 0x158]\n 10013: a4 = a4 | a0\n 10016: u64 [s1 + 0x168] = a4\n 10020: a0 = u64 [s1 + 0x150]\n 10024: a1 = a1 | a0\n 10027: u64 [s1 + 0x160] = a1\n 10031: a1 = a0 | t1\n 10034: u64 [s1 + 0x140] = a1\n 10038: a0 = a0 | t0\n 10041: u64 [s1 + 0x148] = a0\n 10045: a0 = ra - a3\n 10048: a0 = a0 <u a5\n 10051: a1 = ra <u a3\n 10054: a5 = u64 [s1 + 0x190]\n 10058: a4 = ra - a5\n 10061: a4 = a4 - a1\n 10064: a4 = a4 - a0\n 10067: ra = a4 >>a 0x3f\n 10070: a0 = u64 [s1 + 0x130]\n 10074: a0 = ra & a0\n 10077: a1 = u64 [s1 + 0x198]\n 10081: t2 = a1 - a0\n 10084: a1 = a1 <u a0\n 10087: t1 = a2 - a1\n 10090: a1 = 0 if a2 != 0\n 10092: a0 = a3 - a1\n 10095: u64 [s1 + 0x138] = a0\n 10099: a1 = a3 <u a1\n 10102: a1 = a5 - a1\n 10105: a0 = s1 + 0x100\n 10109: a3 = u64 [a0 + 0x88]\n 10113: a5 = u64 [a0 + 0x80]\n 10117: a2 = a3 | a5\n 10120: a2 = a2 <u 0x1\n 10123: a4 = u64 [a0 + 0x70]\n 10126: t0 = a4 <u a2\n 10129: a2 = a4 - a2\n 10132: a4 = a3 <u 0x1\n 10135: a5 = a5 - a4\n 10138: a4 = u64 [a0 + 0x78]\n 10141: a4 = a4 - t0\n 10144: a3 = a3 + 0xffffffffffffffff\n 10147: u64 [a0 + 0x80] = a5\n 10151: u64 [a0 + 0x78] = a4\n 10154: t0 = a5 | a4\n 10157: u64 [a0 + 0x88] = a3\n 10161: a4 = a3 | a2\n 10164: a3 = a4 | t0\n 10167: a4 = ra & 0x1\n 10170: u64 [a0 + 0x58] = a4\n 10173: u64 [a0 + 0x70] = a2\n 10176: u64 [s1 + 336] = 0\n 10180: jump @403 if a3 != 0\n      : @404 (gas: 1)\n 10184: jump @878\n      : @405 (gas: 3)\n 10187: a0 = u64 [s1 + 0x198]\n 10191: a0 = i32 [a0]\n 10193: jump @407 if a0 >u 3\n      : @406 (gas: 1)\n 10197: jump @833\n      : @407 (gas: 12)\n 10200: a0 = s1 + 0x2918\n 10204: u64 [a0 + 1664] = 0\n 10208: u64 [a0 + 1656] = 0\n 10212: u64 [a0 + 1648] = 0\n 10216: u64 [a0 + 1640] = 0\n 10220: a0 = s1 + 0x3000\n 10224: i32 a0 = a0 + 0xffffffffffffff80\n 10227: ra = 0x178\n 10231: ecalli 16 // 'value_transferred'\n 10233: a0 = 0x3000\n 10237: t0 = 0x17a\n 10241: jump @1569\n      : @408 [@dyn 188] (gas: 2)\n 10244: a0 = 0x3000\n 10248: t0 = 378, jump @1569\n      : @409 [@dyn 189] (gas: 1)\n 10254: t0 = 380, jump @1533\n      : @410 [@dyn 190] (gas: 1)\n 10260: jump @412 if a0 != 0\n      : @411 (gas: 1)\n 10263: jump @834\n      : @412 (gas: 9)\n 10266: a0 = 0x30180\n 10271: u64 [s1 + 0x180] = a0\n 10275: i32 a0 = a0 + 0\n 10277: u64 [s1 + 0x158] = a0\n 10281: ra = 0x17e\n 10285: ecalli 4 // 'caller'\n 10287: a2 = u64 [s1 + 0x180]\n 10291: t0 = 0x180\n 10295: jump @1504\n      : @413 [@dyn 191] (gas: 2)\n 10298: a2 = u64 [s1 + 0x180]\n 10302: t0 = 384, jump @1504\n      : @414 [@dyn 192] (gas: 8)\n 10308: u64 [a2 + 1504] = 0\n 10312: a4 = a2 + 0x500\n 10316: u64 [a4 + 0xd8] = a1\n 10320: u64 [a4 + 0xd0] = a0\n 10324: a1 = s1 + 0x26e0\n 10328: u64 [a4 + 0xc8] = a3\n 10332: a0 = 0\n 10334: ra = 386, jump @24\n      : @415 [@dyn 193] (gas: 9)\n 10340: a1 = s1 + 0x2118\n 10344: u64 [a1 + 1472] = 0\n 10348: u64 [a1 + 1464] = 0\n 10352: u64 [a1 + 1448] = 0x1\n 10357: a2 = a1\n 10359: a0 = 0x20\n 10362: a1 = s1 + 0x26c0\n 10366: u64 [a2 + 1456] = 0\n 10370: ra = 388, jump @24\n      : @416 [@dyn 194] (gas: 1)\n 10376: t0 = 390, jump @1549\n      : @417 [@dyn 195] (gas: 3)\n 10382: a2 = 0x20170\n 10387: a0 = i32 [0x20170]\n 10392: jump @419 if a0 >u 63\n      : @418 (gas: 2)\n 10396: u32 [0x20170] = 0x40\n 10402: fallthrough\n      : @419 (gas: 14)\n 10403: u64 [s1 + 0x150] = a2\n 10407: a0 = sp + 0xffffffffffffffe0\n 10410: a2 = a0 & 0xffffffffffffffe0\n 10413: u64 [s1 + 0x190] = a2\n 10417: sp = a2\n 10419: a0 = 0x20180\n 10424: i32 a0 = a0 + 0\n 10426: i32 a2 = a2 + 0\n 10428: a1 = 0x40\n 10431: u64 [s1 + 0x160] = a0\n 10435: ra = 0x188\n 10439: ecalli 8 // 'hash_keccak_256'\n 10441: t0 = 0x18a\n 10445: jump @1520\n      : @420 [@dyn 196] (gas: 1)\n 10448: t0 = 394, jump @1520\n      : @421 [@dyn 197] (gas: 3)\n 10454: i32 a0 = a0 + 0x6a0\n 10458: a0 = a0 + s1\n 10461: ra = 396, jump @26\n      : @422 [@dyn 198] (gas: 11)\n 10467: a0 = s1 + 0x2118\n 10471: a2 = a0 + 0x500\n 10475: a1 = u64 [a2 + 0xa0]\n 10479: u64 [s1 + 0x170] = a1\n 10483: a1 = u64 [a2 + 0x98]\n 10487: u64 [s1 + 0x190] = a1\n 10491: a1 = u64 [a2 + 0x88]\n 10495: u64 [s1 + 0x168] = a1\n 10499: a0 = u64 [a2 + 0x90]\n 10503: u64 [s1 + 0x188] = a0\n 10507: t0 = 398, jump @1566\n      : @423 [@dyn 199] (gas: 9)\n 10513: a0 = s1 + 0x2918\n 10517: u64 [a0 + 1696] = 0\n 10521: u64 [a0 + 1688] = 0\n 10525: u64 [a0 + 1680] = 0\n 10529: u64 [a0 + 1672] = 0\n 10533: a0 = s1 + 0x3000\n 10537: i32 a0 = a0 + 0xffffffffffffffa0\n 10540: ecalli 16 // 'value_transferred'\n 10542: fallthrough\n      : @424 (gas: 43)\n 10543: a0 = s1 + 0x2918\n 10547: a3 = a0 + 0x600\n 10551: a2 = u64 [a3 + 0x90]\n 10555: a1 = u64 [a3 + 0x88]\n 10559: t0 = u64 [a0 + 0x6a0]\n 10563: a4 = u64 [a3 + 0x98]\n 10567: a5 = u64 [s1 + 0x188]\n 10571: a5 = a5 + a2\n 10574: a0 = u64 [s1 + 0x168]\n 10578: t1 = a1 + a0\n 10581: a1 = t1 <u a1\n 10584: a5 = a5 + a1\n 10587: a3 = a5 ^ a2\n 10590: a2 = a5 <u a2\n 10593: a2 = a1 if a3 == 0\n 10596: a1 = u64 [s1 + 0x190]\n 10600: a1 = a1 + a4\n 10603: ra = u64 [s1 + 0x170]\n 10607: t0 = t0 + ra\n 10610: a3 = a1 <u a4\n 10613: a3 = a3 + t0\n 10616: a2 = a2 + a1\n 10619: a1 = a2 <u a1\n 10622: t2 = a3 + a1\n 10625: a3 = u64 [s1 + 0x188]\n 10629: a1 = a3 ^ a5\n 10632: a4 = a5 <u a3\n 10635: a0 = t1 <u a0\n 10638: a0 = a4 if a1 != 0\n 10641: a3 = u64 [s1 + 0x190]\n 10645: t0 = a2 <u a3\n 10648: a4 = ra ^ t2\n 10651: a1 = t2 <u ra\n 10654: a1 = t0 if a4 == 0\n 10657: a3 = a3 ^ a2\n 10660: a3 = a3 | a4\n 10663: a0 = a1 if a3 != 0\n 10666: a1 = u64 [s1 + 0x178]\n 10670: u64 [a1] = t1\n 10672: u64 [a1 + 0x8] = a5\n 10675: u64 [a1 + 0x10] = a2\n 10678: u64 [a1 + 0x18] = t2\n 10681: jump @426 if a0 == 0\n      : @425 (gas: 1)\n 10684: jump @838\n      : @426 (gas: 2)\n 10687: a0 = u64 [s1 + 0x198]\n 10691: ra = 400, jump @28\n      : @427 [@dyn 200] (gas: 3)\n 10697: a0 = s1 + 0x2680\n 10701: a1 = 0x40\n 10704: ra = 402, jump @22\n      : @428 [@dyn 201] (gas: 20)\n 10710: a0 = s1 + 0x2118\n 10714: a2 = a0 + 0x500\n 10718: a1 = u64 [a2 + 0x80]\n 10722: u64 [s1 + 0x190] = a1\n 10726: a1 = u64 [a2 + 0x78]\n 10729: u64 [s1 + 0x188] = a1\n 10733: a1 = u64 [a2 + 0x70]\n 10736: u64 [s1 + 0x178] = a1\n 10740: a0 = u64 [a2 + 0x68]\n 10743: u64 [s1 + 0x198] = a0\n 10747: a0 = s1 + 0x2918\n 10751: u64 [a0 + 1728] = 0\n 10755: u64 [a0 + 1720] = 0\n 10759: u64 [a0 + 1712] = 0\n 10763: u64 [a0 + 1704] = 0\n 10767: a0 = s1 + 0x3000\n 10771: i32 a0 = a0 + 0xffffffffffffffc0\n 10774: ra = 0x194\n 10778: ecalli 16 // 'value_transferred'\n 10780: fallthrough\n      : @429 [@dyn 202] (gas: 14)\n 10781: a3 = s1 + 0x100\n 10785: a0 = u64 [a3 + 0x90]\n 10789: a1 = u64 [a3 + 0x78]\n 10792: a0 = a0 | a1\n 10795: a1 = u64 [a3 + 0x98]\n 10799: a5 = a1\n 10801: a2 = u64 [a3 + 0x88]\n 10805: a1 = a1 | a2\n 10808: a1 = a1 | a0\n 10811: a1 = a1 >> 0x20\n 10814: a0 = a0 | a2\n 10817: a0 = a0 << 0x20\n 10820: a0 = a0 | a1\n 10823: jump @431 if a0 == 0\n      : @430 (gas: 1)\n 10826: jump @781\n      : @431 (gas: 2)\n 10829: a0 = 0x3000\n 10833: t0 = 406, jump @1569\n      : @432 [@dyn 203] (gas: 13)\n 10839: a0 = u64 [a4 + 0xa8]\n 10843: a1 = u64 [a4 + 0xb0]\n 10847: a2 = u64 [a4 + 0xb8]\n 10851: a3 = u64 [a4 + 0xc0]\n 10855: a4 = s1 + 0x2118\n 10859: u64 [a4 + 0x560] = a3\n 10863: a3 = a4 + 0x500\n 10867: u64 [a3 + 0x58] = a2\n 10870: u64 [a3 + 0x50] = a1\n 10873: a1 = s1 + 0x2660\n 10877: u64 [a3 + 0x48] = a0\n 10880: a0 = a5\n 10882: ra = 408, jump @24\n      : @433 [@dyn 204] (gas: 6)\n 10888: a0 = u64 [s1 + 0x158]\n 10892: ra = 0x19a\n 10896: ecalli 4 // 'caller'\n 10898: a2 = u64 [s1 + 0x180]\n 10902: t0 = 0x19c\n 10906: jump @1502\n      : @434 [@dyn 205] (gas: 2)\n 10909: a2 = u64 [s1 + 0x180]\n 10913: t0 = 412, jump @1502\n      : @435 [@dyn 206] (gas: 25)\n 10919: t0 = a1 | a0\n 10922: a3 = a3 >> 0x20\n 10925: a2 = reverse a2\n 10927: a1 = a2 << 0x20\n 10930: a1 = a1 | a3\n 10933: a2 = a2 >> 0x20\n 10936: a3 = u64 [0x20000]\n 10941: a0 = s1 + 0x2118\n 10945: u64 [a0 + 0x540] = a3\n 10949: a3 = u64 [0x20008]\n 10954: a4 = u64 [0x20010]\n 10959: a5 = u64 [0x20018]\n 10964: u64 [a0 + 0x538] = a3\n 10968: a3 = a0 + 0x500\n 10972: u64 [a3 + 0x30] = a4\n 10975: u64 [a0 + 1312] = 0\n 10979: u64 [a3 + 0x28] = a5\n 10982: u64 [a3 + 0x18] = a2\n 10985: u64 [a3 + 0x10] = a1\n 10988: a1 = 0x20\n 10991: a2 = s1 + 0x2640\n 10995: a3 = s1 + 0x2620\n 10999: u64 [a0 + 0x508] = t0\n 11003: a0 = u64 [s1 + 0x198]\n 11007: ra = 414, jump @29\n      : @436 [@dyn 207] (gas: 5)\n 11013: a0 = 0\n 11015: a1 = u64 [s1 + 0x160]\n 11019: a2 = 0\n 11021: ecalli 13 // 'seal_return'\n 11023: jump @1045\n      : @437 (gas: 11)\n 11026: a0 = s1 + 0x2918\n 11030: u64 [a0 + 768] = 0\n 11034: u64 [a0 + 760] = 0\n 11038: u64 [a0 + 752] = 0\n 11042: u64 [a0 + 744] = 0\n 11046: a0 = s1 + 0x3000\n 11050: i32 a0 = a0 + 0xfffffffffffffc00\n 11054: ra = 0x1a0\n 11058: ecalli 16 // 'value_transferred'\n 11060: t0 = 0x1a2\n 11064: jump @1532\n      : @438 [@dyn 208] (gas: 1)\n 11067: t0 = 418, jump @1532\n      : @439 [@dyn 209] (gas: 8)\n 11073: a0 = u64 [a4 + 0xf8]\n 11077: a1 = u64 [a3 + 0x300]\n 11081: a2 = u64 [a4 + 0xf0]\n 11085: a3 = u64 [a4 + 0xe8]\n 11089: a1 = a1 | a2\n 11092: a0 = a0 | a3\n 11095: a0 = a0 | a1\n 11098: jump @441 if a0 == 0\n      : @440 (gas: 1)\n 11101: jump @845\n      : @441 (gas: 3)\n 11104: a0 = u64 [s1 + 0x198]\n 11108: a0 = i32 [a0]\n 11110: jump @443 if a0 >u 67\n      : @442 (gas: 1)\n 11114: jump @846\n      : @443 (gas: 4)\n 11117: a0 = s1 + 0x1700\n 11121: ra = 0x1a4\n 11125: t0 = 0x588\n 11129: jump @1560\n      : @444 [@dyn 210] (gas: 13)\n 11132: a0 = s1 + 0x1118\n 11136: a2 = a0 + 0x500\n 11140: a1 = u64 [a2 + 0xf8]\n 11144: u64 [s1 + 0x168] = a1\n 11148: a1 = u64 [a2 + 0xf0]\n 11152: u64 [s1 + 0x198] = a1\n 11156: a0 = u64 [a2 + 0xe8]\n 11160: u64 [s1 + 0x190] = a0\n 11164: a0 = s1 + 0x3000\n 11168: i32 a0 = a0 + 0xfffffffffffffc20\n 11172: a1 = 0x24\n 11175: ecalli 2 // 'call_data_load'\n 11177: fallthrough\n      : @445 (gas: 19)\n 11178: a0 = s1 + 0x2918\n 11182: a5 = a0 + 0x300\n 11186: a4 = u64 [a5 + 0x20]\n 11189: a3 = u64 [a5 + 0x18]\n 11192: a2 = u64 [a5 + 0x10]\n 11195: a1 = u64 [a5 + 0x8]\n 11198: a5 = s1 + 0x100\n 11202: u64 [a5 + 0x80] = a2\n 11206: u64 [a5 + 0x70] = a4\n 11209: a0 = a2 | a4\n 11212: u64 [a5 + 0x88] = a1\n 11216: a1 = a1 | a3\n 11219: a1 = a1 | a0\n 11222: a1 = a1 >> 0x20\n 11225: u64 [a5 + 0x78] = a3\n 11228: a0 = a0 | a3\n 11231: a0 = a0 << 0x20\n 11234: a0 = a0 | a1\n 11237: jump @447 if a0 == 0\n      : @446 (gas: 1)\n 11240: jump @847\n      : @447 (gas: 15)\n 11243: a3 = s1 + 0x100\n 11247: a0 = u64 [a3 + 0x68]\n 11250: a0 = a0 << 0x20\n 11253: a0 = a0 >> 0x20\n 11256: a2 = s1 + 0x1118\n 11260: u64 [a2 + 1504] = 0\n 11264: a1 = u64 [a3 + 0x90]\n 11268: a4 = a2 + 0x500\n 11272: u64 [a4 + 0xc8] = a1\n 11276: a1 = u64 [a3 + 0x98]\n 11280: u64 [a4 + 0xd0] = a1\n 11284: a1 = s1 + 0x16e0\n 11288: u64 [a4 + 0xd8] = a0\n 11292: a0 = 0\n 11294: ra = 422, jump @24\n      : @448 [@dyn 211] (gas: 3)\n 11300: t0 = 0x1a8\n 11304: a1 = s1 + 0x1118\n 11308: fallthrough\n      : @449 [@dyn 212] (gas: 8)\n 11309: u64 [a1 + 1472] = 0\n 11313: u64 [a1 + 1464] = 0\n 11317: u64 [a1 + 1448] = 0x2\n 11322: a2 = a1\n 11324: a0 = 0x20\n 11327: a1 = s1 + 0x16c0\n 11331: u64 [a2 + 1456] = 0\n 11335: ra = 426, jump @24\n      : @450 [@dyn 213] (gas: 3)\n 11341: a1 = 0x20170\n 11346: a0 = i32 [0x20170]\n 11351: jump @452 if a0 >u 63\n      : @451 (gas: 2)\n 11355: u32 [0x20170] = 0x40\n 11361: fallthrough\n      : @452 (gas: 14)\n 11362: a0 = sp + 0xffffffffffffffe0\n 11365: a2 = a0 & 0xffffffffffffffe0\n 11368: u64 [s1 + 0x168] = a2\n 11372: sp = a2\n 11374: a0 = 0x20180\n 11379: i32 a0 = a0 + 0\n 11381: u64 [s1 + 0x198] = a1\n 11385: i32 a2 = a2 + 0\n 11387: a1 = 0x40\n 11390: u64 [s1 + 0x190] = a0\n 11394: ra = 0x1ac\n 11398: ecalli 8 // 'hash_keccak_256'\n 11400: t0 = 0x1ae\n 11404: jump @1554\n      : @453 [@dyn 214] (gas: 1)\n 11407: t0 = 430, jump @1554\n      : @454 [@dyn 215] (gas: 14)\n 11413: u64 [s1 + 0x160] = a0\n 11417: a0 = reverse a1\n 11419: u64 [s1 + 0x158] = a0\n 11423: a0 = reverse a2\n 11425: u64 [s1 + 0x150] = a0\n 11429: a0 = reverse a3\n 11431: u64 [s1 + 0x148] = a0\n 11435: a0 = sp + 0xffffffffffffffe0\n 11438: a0 = a0 & 0xffffffffffffffe0\n 11441: u64 [s1 + 0x168] = a0\n 11445: sp = a0\n 11447: t0 = 0x1b0\n 11451: a2 = s1 + 0x1118\n 11455: fallthrough\n      : @455 [@dyn 216] (gas: 12)\n 11456: a0 = u64 [s1 + 0x170]\n 11460: a3 = a2 + 0x500\n 11464: u64 [a3 + 0xa0] = a0\n 11468: a0 = u64 [s1 + 0x178]\n 11472: u64 [a3 + 0x98] = a0\n 11476: a0 = u64 [s1 + 0x180]\n 11480: u64 [a3 + 0x90] = a0\n 11484: a1 = s1 + 0x16a0\n 11488: a0 = u64 [s1 + 0x188]\n 11492: u64 [a3 + 0x88] = a0\n 11496: a0 = 0\n 11498: ra = 434, jump @24\n      : @456 [@dyn 217] (gas: 3)\n 11504: t0 = 0x1b4\n 11508: a1 = s1 + 0x1118\n 11512: fallthrough\n      : @457 [@dyn 218] (gas: 13)\n 11513: a0 = u64 [s1 + 0x148]\n 11517: a2 = a1 + 0x500\n 11521: u64 [a2 + 0x80] = a0\n 11525: a0 = u64 [s1 + 0x150]\n 11529: u64 [a2 + 0x78] = a0\n 11532: a0 = u64 [s1 + 0x158]\n 11536: u64 [a2 + 0x70] = a0\n 11539: a3 = a1\n 11541: a0 = 0x20\n 11544: a1 = s1 + 0x1680\n 11548: a2 = u64 [s1 + 0x160]\n 11552: u64 [a3 + 0x568] = a2\n 11556: ra = 438, jump @24\n      : @458 [@dyn 219] (gas: 3)\n 11562: a1 = u64 [s1 + 0x198]\n 11566: a0 = i32 [a1]\n 11568: jump @460 if a0 >u 63\n      : @459 (gas: 2)\n 11572: u32 [a1 + 0] = 0x40\n 11575: fallthrough\n      : @460 (gas: 4)\n 11576: a0 = sp + 0xffffffffffffffe0\n 11579: a0 = a0 & 0xffffffffffffffe0\n 11582: u64 [s1 + 0x188] = a0\n 11586: t0 = 440, jump @1500\n      : @461 [@dyn 220] (gas: 21)\n 11592: ecalli 8 // 'hash_keccak_256'\n 11594: a3 = u64 [s1 + 0x188]\n 11598: a0 = u64 [a3 + 0x18]\n 11601: a1 = u64 [a3 + 0x10]\n 11604: a2 = u64 [a3 + 0x8]\n 11607: a3 = u64 [a3]\n 11609: a5 = reverse a0\n 11611: u64 [s1 + 0xd8] = a5\n 11615: a4 = reverse a1\n 11617: u64 [s1 + 0xe0] = a4\n 11621: a2 = reverse a2\n 11623: u64 [s1 + 0xf0] = a2\n 11627: a0 = reverse a3\n 11629: u64 [s1 + 0xe8] = a0\n 11633: a1 = u64 [s1 + 0x168]\n 11637: u64 [a1 + 0x18] = a0\n 11640: u64 [a1 + 0x10] = a2\n 11643: u64 [a1 + 0x8] = a4\n 11646: u64 [a1] = a5\n 11648: a0 = s1 + 0x1660\n 11652: ra = 442, jump @26\n      : @462 [@dyn 221] (gas: 3)\n 11658: t0 = 0x1bc\n 11662: a1 = s1 + 0x1118\n 11666: fallthrough\n      : @463 [@dyn 222] (gas: 34)\n 11667: a2 = a1 + 0x500\n 11671: a0 = u64 [a2 + 0x58]\n 11674: u64 [s1 + 0xc8] = a0\n 11678: a0 = u64 [a2 + 0x50]\n 11681: u64 [s1 + 0xc0] = a0\n 11685: a0 = u64 [a2 + 0x48]\n 11688: u64 [s1 + 0xd0] = a0\n 11692: a0 = sp + 0xffffffffffffffe0\n 11695: a4 = a0 & 0xffffffffffffffe0\n 11698: u64 [s1 + 0x188] = a4\n 11702: sp = a4\n 11704: a1 = u64 [s1 + 0xd8]\n 11708: a1 = a1 + 0x1\n 11711: a0 = a1 <u 0x1\n 11714: a2 = u64 [s1 + 0xe0]\n 11718: a2 = a2 + a0\n 11721: a0 = a1 | a2\n 11724: a0 = a0 <u 0x1\n 11727: a5 = u64 [s1 + 0xf0]\n 11731: a3 = a5 + a0\n 11734: a0 = a3 <u a5\n 11737: a5 = u64 [s1 + 0xe8]\n 11741: a0 = a0 + a5\n 11744: u64 [s1 + 0x180] = a0\n 11748: u64 [a4 + 0x18] = a0\n 11751: u64 [s1 + 0x168] = a3\n 11755: u64 [a4 + 0x10] = a3\n 11758: u64 [s1 + 0x170] = a2\n 11762: u64 [a4 + 0x8] = a2\n 11765: u64 [s1 + 0x178] = a1\n 11769: u64 [a4] = a1\n 11771: a0 = s1 + 0x1640\n 11775: a1 = 0x40\n 11778: ra = 446, jump @22\n      : @464 [@dyn 223] (gas: 13)\n 11784: a0 = s1 + 0x1118\n 11788: a2 = a0 + 0x500\n 11792: a1 = u64 [a2 + 0x40]\n 11795: u64 [s1 + 0x110] = a1\n 11799: a1 = u64 [a2 + 0x38]\n 11802: u64 [s1 + 0xf8] = a1\n 11806: a1 = u64 [a2 + 0x30]\n 11809: u64 [s1 + 0x100] = a1\n 11813: a1 = u64 [a2 + 0x28]\n 11816: u64 [s1 + 0x108] = a1\n 11820: a0 = s1 + 0x1620\n 11824: a1 = u64 [s1 + 0x188]\n 11828: ra = 448, jump @26\n      : @465 [@dyn 224] (gas: 18)\n 11834: a3 = s1 + 0x1118\n 11838: a5 = a3 + 0x500\n 11842: a0 = u64 [a5 + 0x20]\n 11845: a1 = u64 [a5 + 0x18]\n 11848: a2 = u64 [a5 + 0x10]\n 11851: a4 = u64 [a5 + 0x8]\n 11854: u64 [s1 + 0x160] = a0\n 11858: a5 = a3 + 0x400\n 11862: u64 [a5 + 0xe0] = a0\n 11866: u64 [s1 + 0x130] = a1\n 11870: u64 [a5 + 0xd8] = a1\n 11874: u64 [s1 + 0x128] = a2\n 11878: u64 [a5 + 0xd0] = a2\n 11882: a0 = s1 + 0x1600\n 11886: a1 = s1 + 0x15e0\n 11890: u64 [s1 + 0x188] = a4\n 11894: u64 [a5 + 0xc8] = a4\n 11898: ra = 450, jump @1340\n      : @466 [@dyn 225] (gas: 13)\n 11904: a3 = u64 [s1 + 0xf8]\n 11908: a4 = s1 + 0x100\n 11912: a1 = u64 [a4 + 0x10]\n 11915: a0 = u64 [a4 + 0x8]\n 11918: a2 = u64 [a4]\n 11920: a2 = a2 | a1\n 11923: a1 = a0 | a3\n 11926: a1 = a1 | a2\n 11929: a1 = a1 >> 0x20\n 11932: a2 = a2 | a3\n 11935: a2 = a2 << 0x20\n 11938: a1 = a1 | a2\n 11941: jump @468 if a1 == 0\n      : @467 (gas: 1)\n 11944: jump @781\n      : @468 (gas: 16)\n 11947: a5 = s1 + 0x1118\n 11951: t0 = u64 [a5 + 0x500]\n 11955: t1 = u64 [a5 + 0x4f8]\n 11959: a3 = a5 + 0x400\n 11963: a1 = u64 [a3 + 0xf0]\n 11967: a2 = u64 [a3 + 0xe8]\n 11971: u64 [s1 + 0x140] = a2\n 11975: u64 [a3 + 0xa8] = a2\n 11979: u64 [s1 + 0x150] = a1\n 11983: u64 [a3 + 0xb0] = a1\n 11987: u64 [s1 + 0x148] = t1\n 11991: u64 [a5 + 0x4b8] = t1\n 11995: a1 = s1 + 0x15c0\n 11999: u64 [s1 + 0x158] = t0\n 12003: u64 [a5 + 0x4c0] = t0\n 12007: ra = 452, jump @24\n      : @469 [@dyn 226] (gas: 9)\n 12013: a4 = u64 [s1 + 0xf8]\n 12017: a1 = u64 [s1 + 0x108]\n 12021: a0 = a1 + 0x20\n 12024: a5 = u64 [s1 + 0x188]\n 12028: a2 = a5 & 0x1\n 12031: a3 = u64 [s1 + 0x110]\n 12035: a3 = a3 | a4\n 12038: u64 [s1 + 0x138] = a0\n 12042: jump @589 if a2 != 0\n      : @470 (gas: 6)\n 12046: a2 = 0xffffffe0\n 12056: a2 = a1 <u a2\n 12059: a1 = u64 [s1 + 0x100]\n 12063: a2 = 0 if a1 != 0\n 12065: a2 = 0 if a3 != 0\n 12067: jump @472 if a2 != 0\n      : @471 (gas: 1)\n 12070: jump @781\n      : @472 (gas: 13)\n 12073: u64 [s1 + 0xb8] = a3\n 12077: a2 = a5 & 0xffffffffffffff00\n 12081: a3 = s1 + 0x1118\n 12085: a1 = u64 [s1 + 0x128]\n 12089: a4 = a3 + 0x400\n 12093: u64 [a4 + 0x30] = a1\n 12096: u64 [a4 + 0x28] = a2\n 12099: a1 = u64 [s1 + 0x130]\n 12103: u64 [a4 + 0x38] = a1\n 12106: a1 = s1 + 0x1540\n 12110: a2 = u64 [s1 + 0x160]\n 12114: u64 [a4 + 0x40] = a2\n 12117: ra = 454, jump @24\n      : @473 [@dyn 227] (gas: 16)\n 12123: a5 = s1 + 0x1118\n 12127: t2 = 0\n 12129: t1 = 0\n 12131: u64 [s1 + 400] = 0\n 12135: a3 = s1 + 0x100\n 12139: a0 = u64 [a3 + 0x48]\n 12142: a1 = u64 [a3 + 0x40]\n 12145: a0 = a0 | a1\n 12148: a1 = u64 [a3 + 0x58]\n 12151: a2 = u64 [a3 + 0x50]\n 12154: a1 = a1 | a2\n 12157: a0 = a0 | a1\n 12160: a0 = a0 >u 0\n 12162: a0 = a0 << 0x5\n 12165: u64 [a3 + 0x98] = a0\n 12169: jump @684\n      : @474 (gas: 1)\n 12172: jump @476 if a0 == 1641031603\n      : @475 (gas: 1)\n 12179: jump @863\n      : @476 (gas: 11)\n 12182: a0 = s1 + 0x2918\n 12186: u64 [a0 + 576] = 0\n 12190: u64 [a0 + 568] = 0\n 12194: u64 [a0 + 560] = 0\n 12198: u64 [a0 + 552] = 0\n 12202: a0 = s1 + 0x3000\n 12206: i32 a0 = a0 + 0xfffffffffffffb40\n 12210: ra = 0x1c8\n 12214: ecalli 16 // 'value_transferred'\n 12216: t0 = 0x1ca\n 12220: jump @1532\n      : @477 [@dyn 228] (gas: 1)\n 12223: t0 = 458, jump @1532\n      : @478 [@dyn 229] (gas: 1)\n 12229: t0 = 460, jump @1544\n      : @479 [@dyn 230] (gas: 1)\n 12235: jump @481 if a0 == 0\n      : @480 (gas: 1)\n 12238: jump @869\n      : @481 (gas: 3)\n 12241: a0 = u64 [s1 + 0x198]\n 12245: a0 = i32 [a0]\n 12247: jump @483 if a0 >u 3\n      : @482 (gas: 1)\n 12251: jump @870\n      : @483 (gas: 3)\n 12254: a0 = s1 + 0x10a0\n 12258: a1 = 0x40\n 12261: ra = 462, jump @22\n      : @484 [@dyn 231] (gas: 12)\n 12267: a0 = s1 + 0x7ff\n 12271: a0 = a0 + 0x119\n 12275: a2 = a0 + 0x700\n 12279: a1 = u64 [a2 + 0xa0]\n 12283: u64 [s1 + 0x198] = a1\n 12287: a1 = u64 [a2 + 0x98]\n 12291: u64 [s1 + 0x190] = a1\n 12295: a1 = u64 [a2 + 0x90]\n 12299: u64 [s1 + 0x180] = a1\n 12303: a0 = u64 [a2 + 0x88]\n 12307: u64 [s1 + 0x188] = a0\n 12311: ra = 464, jump @15\n      : @485 [@dyn 232] (gas: 14)\n 12317: a4 = s1 + 0x100\n 12321: a0 = u64 [a4 + 0x98]\n 12325: a1 = u64 [a4 + 0x80]\n 12329: a0 = a0 | a1\n 12332: a1 = u64 [a4 + 0x88]\n 12336: a3 = a1\n 12338: a2 = u64 [a4 + 0x90]\n 12342: a1 = a1 | a2\n 12345: a1 = a1 | a0\n 12348: a1 = a1 >> 0x20\n 12351: a0 = a0 | a2\n 12354: a0 = a0 << 0x20\n 12357: a0 = a0 | a1\n 12360: jump @487 if a0 == 0\n      : @486 (gas: 1)\n 12363: jump @781\n      : @487 (gas: 13)\n 12366: a2 = u64 [0x301a0]\n 12371: a1 = u64 [0x301a8]\n 12376: a0 = u32 [0x301b0]\n 12381: a4 = s1 + 0x7ff\n 12385: a4 = a4 + 0x119\n 12389: u64 [a4 + 1920] = 0\n 12393: a5 = a4 + 0x700\n 12397: u64 [a5 + 0x78] = a0\n 12400: u64 [a5 + 0x70] = a1\n 12403: a1 = s1 + 0x1080\n 12407: u64 [a5 + 0x68] = a2\n 12410: a0 = a3\n 12412: ra = 466, jump @24\n      : @488 [@dyn 233] (gas: 4)\n 12418: a1 = 0x20\n 12421: a0 = u64 [s1 + 0x188]\n 12425: ra = 0x374\n 12429: jump @37\n      : @489 (gas: 1)\n 12432: t0 = 468, jump @1551\n      : @490 [@dyn 234] (gas: 12)\n 12438: t0 = u64 [s1 + 0x168]\n 12442: a3 = a0 if t0 != 0\n 12445: u64 [s1 + 0x198] = a3\n 12449: a0 = u64 [s1 + 0x160]\n 12453: a2 = u64 [s1 + 0x130]\n 12457: a0 = a0 | a2\n 12460: a2 = u64 [s1 + 0x118]\n 12464: a0 = a2 if a4 == 0\n 12467: a5 = u64 [s1 + 0x150]\n 12471: a3 = a5\n 12473: a3 = a0 if t0 != 0\n 12476: t0 = 470, jump @1530\n      : @491 [@dyn 235] (gas: 1)\n 12482: ra = 472, jump @1580\n      : @492 [@dyn 236] (gas: 6)\n 12488: u64 [s1 + 0x130] = a0\n 12492: u64 [s1 + 0x118] = a1\n 12496: a0 = u64 [s1 + 0x148]\n 12500: a1 = u64 [s1 + 0x158]\n 12504: a2 = u64 [s1 + 0x190]\n 12508: ra = 474, jump @1580\n      : @493 [@dyn 237] (gas: 1)\n 12514: t0 = 476, jump @1539\n      : @494 [@dyn 238] (gas: 1)\n 12520: ra = 478, jump @1585\n      : @495 [@dyn 239] (gas: 1)\n 12526: t0 = 480, jump @1543\n      : @496 [@dyn 240] (gas: 14)\n 12532: a2 = u64 [s1 + 0x158]\n 12536: a2 = a1 if a3 != 0\n 12539: u64 [s1 + 0x158] = a2\n 12543: a1 = u64 [s1 + 0x110]\n 12547: a0 = a0 | a1\n 12550: a1 = u64 [s1 + 0x130]\n 12554: a0 = a1 if a4 == 0\n 12557: a1 = u64 [s1 + 0x148]\n 12561: a1 = a0 if a3 != 0\n 12564: a2 = a3\n 12566: u64 [s1 + 0x148] = a1\n 12570: a0 = u64 [s1 + 0x150]\n 12574: a1 = u64 [s1 + 0x140]\n 12578: ra = 482, jump @1580\n      : @497 [@dyn 241] (gas: 1)\n 12584: t0 = 484, jump @1523\n      : @498 [@dyn 242] (gas: 3)\n 12590: t1 = u64 [s1 + 0x158]\n 12594: t2 = u64 [s1 + 0x148]\n 12598: fallthrough\n      : @499 (gas: 68)\n 12599: u64 [s1 + 0x158] = a4\n 12603: a2 = t2 >> 0x3f\n 12606: a3 = t1 << 0x1\n 12609: t0 = a3 | a2\n 12612: a3 = t2 << 0x1\n 12615: a4 = u64 [s1 + 0x198]\n 12619: a4 = a4 >> 0x3f\n 12622: a3 = a3 | a4\n 12625: u64 [s1 + 0x148] = a3\n 12629: a2 = u64 [s1 + 0x128]\n 12633: t2 = a1\n 12635: u64 [s1 + 0x150] = t0\n 12639: a1 = a2 ^ t0\n 12642: ra = t1\n 12644: t1 = a2 <u t0\n 12647: a4 = u64 [s1 + 0x130]\n 12651: t0 = a4 <u a3\n 12654: t0 = t1 if a1 != 0\n 12657: a1 = t2 << 0x1\n 12660: a3 = a0 >> 0x3f\n 12663: a1 = a1 | a3\n 12666: u64 [s1 + 0x140] = a1\n 12670: a3 = ra >> 0x3f\n 12673: a0 = a0 << 0x1\n 12676: a3 = a3 | a0\n 12679: a0 = u64 [s1 + 0x198]\n 12683: a0 = a0 << 0x1\n 12686: a4 = u64 [s1 + 0x160]\n 12690: a1 = a4 >> 0x3f\n 12693: ra = a0 | a1\n 12696: a1 = a4 << 0x1\n 12699: a4 = u64 [s1 + 0x168]\n 12703: t1 = a4 >> 0x3f\n 12706: t1 = a1 | t1\n 12709: a1 = a4 << 0x1\n 12712: a4 = u64 [s1 + 0x188]\n 12716: t2 = a4 >> 0x3f\n 12719: a1 = a1 | t2\n 12722: a4 = a4 << 0x1\n 12725: a0 = u64 [s1 + 0x158]\n 12729: a4 = a4 | a0\n 12732: u64 [s1 + 0x188] = a4\n 12736: a1 = a1 | a5\n 12739: u64 [s1 + 0x168] = a1\n 12743: a1 = a5 | t1\n 12746: u64 [s1 + 0x160] = a1\n 12750: a0 = a5 | ra\n 12753: u64 [s1 + 0x198] = a0\n 12757: a0 = a2 - a3\n 12760: a0 = a0 <u t0\n 12763: a1 = a2 <u a3\n 12766: t0 = u64 [s1 + 0x140]\n 12770: a4 = a2 - t0\n 12773: a4 = a4 - a1\n 12776: a4 = a4 - a0\n 12779: a5 = a4 >>a 0x3f\n 12782: a0 = u64 [s1 + 0x138]\n 12786: a0 = a0 & a5\n 12789: a1 = u64 [s1 + 0x148]\n 12793: t2 = a1 - a0\n 12796: a1 = a1 <u a0\n 12799: a0 = u64 [s1 + 0x150]\n 12803: t1 = a0 - a1\n 12806: a1 = 0 if a0 != 0\n 12808: a0 = a3 - a1\n 12811: a1 = a3 <u a1\n 12814: a1 = t0 - a1\n 12817: t0 = 486, jump @1571\n      : @500 [@dyn 243] (gas: 17)\n 12823: t0 = a4 <u a2\n 12826: a2 = a4 - a2\n 12829: a4 = a3 <u 0x1\n 12832: ra = ra - a4\n 12835: a4 = u64 [s1 + 0x178]\n 12839: a4 = a4 - t0\n 12842: a3 = a3 + 0xffffffffffffffff\n 12845: u64 [s1 + 0x180] = ra\n 12849: u64 [s1 + 0x178] = a4\n 12853: t0 = ra | a4\n 12856: u64 [s1 + 0x190] = a3\n 12860: a4 = a3 | a2\n 12863: a3 = a4 | t0\n 12866: a4 = a5 & 0x1\n 12869: u64 [s1 + 0x170] = a2\n 12873: a5 = 0\n 12875: jump @499 if a3 != 0\n      : @501 (gas: 4)\n 12879: a0 = u64 [s1 + 0x188]\n 12883: a0 = a0 << 0x1\n 12886: a4 = a4 | a0\n 12889: fallthrough\n      : @502 (gas: 3)\n 12890: a0 = a4 & 0xffffffffffffffff\n 12893: a1 = u64 [s1 + 0x120]\n 12897: jump @504 if a1 == a0\n      : @503 (gas: 1)\n 12900: jump @848\n      : @504 (gas: 8)\n 12903: a0 = 0x30180\n 12908: u64 [s1 + 0x150] = a0\n 12912: i32 a0 = a0 + 0\n 12914: u64 [s1 + 0x148] = a0\n 12918: ra = 0x1e8\n 12922: ecalli 4 // 'caller'\n 12924: t0 = 0x1ea\n 12928: jump @1499\n      : @505 [@dyn 244] (gas: 1)\n 12931: t0 = 490, jump @1499\n      : @506 [@dyn 245] (gas: 9)\n 12937: u64 [a2 + 1024] = 0\n 12941: a4 = a2 + 0x300\n 12945: u64 [a4 + 0xf8] = a1\n 12949: u64 [a4 + 0xf0] = a0\n 12953: a1 = s1 + 0x7ff\n 12957: a1 = a1 + 0x501\n 12961: u64 [a4 + 0xe8] = a3\n 12965: a0 = 0\n 12967: ra = 492, jump @24\n      : @507 [@dyn 246] (gas: 11)\n 12973: a1 = s1 + 0x7ff\n 12977: a1 = a1 + 0x119\n 12981: u64 [a1 + 992] = 0\n 12985: u64 [a1 + 984] = 0\n 12989: u64 [a1 + 968] = 0x1\n 12994: a2 = a1\n 12996: a0 = 0x20\n 12999: a1 = s1 + 0x7ff\n 13003: a1 = a1 + 0x4e1\n 13007: u64 [a2 + 976] = 0\n 13011: ra = 494, jump @24\n      : @508 [@dyn 247] (gas: 7)\n 13017: a0 = sp + 0xffffffffffffffe0\n 13020: a0 = a0 & 0xffffffffffffffe0\n 13023: u64 [s1 + 0x128] = a0\n 13027: sp = a0\n 13029: a1 = 0x20170\n 13034: a0 = i32 [0x20170]\n 13039: jump @510 if a0 >u 63\n      : @509 (gas: 3)\n 13043: u32 [0x20170] = 0x40\n 13049: t0 = 0x1f0\n 13053: jump @1542\n      : @510 (gas: 1)\n 13056: t0 = 496, jump @1542\n      : @511 [@dyn 248] (gas: 30)\n 13062: a0 = 0x20180\n 13067: i32 a0 = a0 + 0\n 13069: i32 a2 = a2 + 0\n 13071: u64 [s1 + 0x188] = a1\n 13075: a1 = 0x40\n 13078: u64 [s1 + 0x190] = a0\n 13082: ecalli 8 // 'hash_keccak_256'\n 13084: a3 = u64 [s1 + 0x198]\n 13088: a0 = u64 [a3 + 0x18]\n 13091: a1 = u64 [a3 + 0x10]\n 13094: a2 = u64 [a3 + 0x8]\n 13097: a3 = u64 [a3]\n 13099: a5 = reverse a0\n 13101: a4 = reverse a1\n 13103: a1 = reverse a2\n 13105: a2 = reverse a3\n 13107: a0 = u64 [s1 + 0x128]\n 13111: u64 [s1 + 0x180] = a2\n 13115: u64 [a0 + 0x18] = a2\n 13118: u64 [s1 + 0x198] = a1\n 13122: u64 [a0 + 0x10] = a1\n 13125: u64 [s1 + 0x178] = a4\n 13129: u64 [a0 + 0x8] = a4\n 13132: u64 [s1 + 0x170] = a5\n 13136: u64 [a0] = a5\n 13138: a0 = u64 [s1 + 0x148]\n 13142: ra = 0x1f2\n 13146: ecalli 4 // 'caller'\n 13148: t0 = 0x1f4\n 13152: jump @1499\n      : @512 [@dyn 249] (gas: 1)\n 13155: t0 = 500, jump @1499\n      : @513 [@dyn 250] (gas: 9)\n 13161: u64 [a2 + 960] = 0\n 13165: a4 = a2 + 0x300\n 13169: u64 [a4 + 0xb8] = a1\n 13173: u64 [a4 + 0xb0] = a0\n 13177: a1 = s1 + 0x7ff\n 13181: a1 = a1 + 0x4c1\n 13185: u64 [a4 + 0xa8] = a3\n 13189: a0 = 0\n 13191: ra = 502, jump @24\n      : @514 [@dyn 251] (gas: 11)\n 13197: a1 = s1 + 0x7ff\n 13201: a1 = a1 + 0x119\n 13205: u64 [a1 + 928] = 0\n 13209: u64 [a1 + 920] = 0\n 13213: u64 [a1 + 904] = 0x3\n 13218: a2 = a1\n 13220: a0 = 0x20\n 13223: a1 = s1 + 0x7ff\n 13227: a1 = a1 + 0x4a1\n 13231: u64 [a2 + 912] = 0\n 13235: ra = 504, jump @24\n      : @515 [@dyn 252] (gas: 3)\n 13241: a1 = u64 [s1 + 0x188]\n 13245: a0 = i32 [a1]\n 13247: jump @517 if a0 >u 63\n      : @516 (gas: 2)\n 13251: u32 [a1 + 0] = 0x40\n 13254: fallthrough\n      : @517 (gas: 8)\n 13255: a1 = 0xffffffff00000000\n 13265: u64 [s1 + 0x130] = a1\n 13269: a0 = 0xffffffff\n 13279: u64 [s1 + 0x140] = a0\n 13283: a0 = sp + 0xffffffffffffffe0\n 13286: a0 = a0 & 0xffffffffffffffe0\n 13289: u64 [s1 + 0x168] = a0\n 13293: t0 = 506, jump @1500\n      : @518 [@dyn 253] (gas: 5)\n 13299: ra = 0x1fc\n 13303: ecalli 8 // 'hash_keccak_256'\n 13305: a3 = u64 [s1 + 0x168]\n 13309: t0 = 0x1fe\n 13313: jump @1512\n      : @519 [@dyn 254] (gas: 2)\n 13316: a3 = u64 [s1 + 0x168]\n 13320: t0 = 510, jump @1512\n      : @520 [@dyn 255] (gas: 8)\n 13326: u64 [a4 + 0xe0] = a3\n 13330: u64 [a4 + 0xd8] = a2\n 13334: u64 [a4 + 0xd0] = a1\n 13338: u64 [a4 + 0xc8] = a0\n 13342: a0 = s1 + 0x7ff\n 13346: a0 = a0 + 0x481\n 13350: a1 = s1 + 0x29e0\n 13354: ra = 512, jump @26\n      : @521 [@dyn 256] (gas: 26)\n 13360: u64 [s1 + 272] = 0\n 13364: u64 [s1 + 280] = 0\n 13368: a4 = 0\n 13370: a0 = s1 + 0x7ff\n 13374: a0 = a0 + 0x119\n 13378: a0 = u32 [a0 + 0x368]\n 13382: a3 = s1 + 0x100\n 13386: u64 [a3 + 0x38] = a0\n 13389: a1 = u64 [a3 + 0x70]\n 13392: a1 = a1 + 0x1\n 13395: a0 = a1 <u 0x1\n 13398: a2 = u64 [a3 + 0x78]\n 13401: a0 = a0 + a2\n 13404: u64 [a3 + 0x8] = a1\n 13407: u64 [a3] = a0\n 13409: a0 = a0 | a1\n 13412: a0 = a0 <u 0x1\n 13415: a1 = u64 [a3 + 0x98]\n 13419: a0 = a0 + a1\n 13422: u64 [s1 + 0xf8] = a0\n 13426: a0 = a0 <u a1\n 13429: a1 = u64 [a3 + 0x80]\n 13433: a0 = a0 + a1\n 13436: u64 [s1 + 0xf0] = a0\n 13440: a3 = 0x1\n 13443: fallthrough\n      : @522 (gas: 9)\n 13444: a1 = 0\n 13446: a1 = 0 if a4 == 0\n 13448: a0 = u64 [s1 + 0x138]\n 13452: a0 = a0 <u a3\n 13455: a2 = 0\n 13457: a2 = a0 if a4 == 0\n 13460: a0 = 0\n 13462: a2 = a1 if a0 != 0\n 13465: jump @579 if a2 != 0\n      : @523 (gas: 7)\n 13469: u64 [s1 + 376] = 0\n 13473: u64 [s1 + 0x198] = a3\n 13477: a0 = u64 [s1 + 0x148]\n 13481: ra = 0x202\n 13485: ecalli 4 // 'caller'\n 13487: t0 = 0x204\n 13491: jump @1499\n      : @524 [@dyn 257] (gas: 1)\n 13494: t0 = 516, jump @1499\n      : @525 [@dyn 258] (gas: 9)\n 13500: u64 [a2 + 864] = 0\n 13504: a4 = a2 + 0x300\n 13508: u64 [a4 + 0x58] = a1\n 13511: u64 [a4 + 0x50] = a0\n 13514: a1 = s1 + 0x7ff\n 13518: a1 = a1 + 0x461\n 13522: u64 [a4 + 0x48] = a3\n 13525: a0 = 0\n 13527: ra = 518, jump @24\n      : @526 [@dyn 259] (gas: 11)\n 13533: a0 = s1 + 0x7ff\n 13537: a0 = a0 + 0x119\n 13541: u64 [a0 + 832] = 0\n 13545: u64 [a0 + 824] = 0\n 13549: u64 [a0 + 816] = 0\n 13553: a3 = a0\n 13555: a0 = 0x20\n 13558: a1 = s1 + 0x7ff\n 13562: a1 = a1 + 0x441\n 13566: u64 [a3 + 808] = 0x2\n 13571: ra = 520, jump @24\n      : @527 [@dyn 260] (gas: 3)\n 13577: a1 = u64 [s1 + 0x188]\n 13581: a0 = i32 [a1]\n 13583: jump @529 if a0 >u 63\n      : @528 (gas: 2)\n 13587: u32 [a1 + 0] = 0x40\n 13590: fallthrough\n      : @529 (gas: 4)\n 13591: a0 = sp + 0xffffffffffffffe0\n 13594: a0 = a0 & 0xffffffffffffffe0\n 13597: u64 [s1 + 0x180] = a0\n 13601: t0 = 522, jump @1500\n      : @530 [@dyn 261] (gas: 4)\n 13607: ra = 0x20c\n 13611: ecalli 8 // 'hash_keccak_256'\n 13613: t0 = 0x20e\n 13617: jump @1508\n      : @531 [@dyn 262] (gas: 1)\n 13620: t0 = 526, jump @1508\n      : @532 [@dyn 263] (gas: 10)\n 13626: a3 = a2 + 0x300\n 13630: u64 [a3 + 0x20] = a0\n 13633: u64 [a3 + 0x18] = a0\n 13636: u64 [a3 + 0x10] = a0\n 13639: a1 = s1 + 0x7ff\n 13643: a1 = a1 + 0x421\n 13647: a0 = u64 [s1 + 0x198]\n 13651: u64 [a3 + 0x8] = a0\n 13654: a0 = 0\n 13656: ra = 528, jump @24\n      : @533 [@dyn 264] (gas: 15)\n 13662: a0 = u64 [s1 + 0x158]\n 13666: a1 = s1 + 0x7ff\n 13670: a1 = a1 + 0x119\n 13674: u64 [a1 + 0x300] = a0\n 13678: a0 = u64 [s1 + 0x160]\n 13682: u64 [a1 + 0x2f8] = a0\n 13686: a0 = u64 [s1 + 0x168]\n 13690: u64 [a1 + 0x2f0] = a0\n 13694: a3 = a1\n 13696: a0 = 0x20\n 13699: a1 = s1 + 0x7ff\n 13703: a1 = a1 + 0x401\n 13707: a2 = u64 [s1 + 0x170]\n 13711: u64 [a3 + 0x2e8] = a2\n 13715: ra = 530, jump @24\n      : @534 [@dyn 265] (gas: 3)\n 13721: a1 = u64 [s1 + 0x188]\n 13725: a0 = i32 [a1]\n 13727: jump @536 if a0 >u 63\n      : @535 (gas: 2)\n 13731: u32 [a1 + 0] = 0x40\n 13734: fallthrough\n      : @536 (gas: 4)\n 13735: a0 = sp + 0xffffffffffffffe0\n 13738: a0 = a0 & 0xffffffffffffffe0\n 13741: u64 [s1 + 0x170] = a0\n 13745: t0 = 532, jump @1500\n      : @537 [@dyn 266] (gas: 5)\n 13751: ra = 0x216\n 13755: ecalli 8 // 'hash_keccak_256'\n 13757: a3 = u64 [s1 + 0x170]\n 13761: t0 = 0x218\n 13765: jump @1511\n      : @538 [@dyn 267] (gas: 2)\n 13768: a3 = u64 [s1 + 0x170]\n 13772: t0 = 536, jump @1511\n      : @539 [@dyn 268] (gas: 22)\n 13778: a4 = u64 [s1 + 0x180]\n 13782: u64 [a4 + 0x18] = a3\n 13785: u64 [a4 + 0x10] = a2\n 13788: u64 [a4 + 0x8] = a1\n 13791: u64 [a4] = a0\n 13793: a4 = a0 + 0x2\n 13796: a0 = a4 <u a0\n 13799: a5 = a1 + a0\n 13802: a1 = a5 <u a1\n 13805: a1 = a0 if a0 == 0\n 13808: a1 = a1 + a2\n 13811: a0 = a1 <u a2\n 13814: a0 = a0 + a3\n 13817: a2 = s1 + 0x2918\n 13821: u64 [a2 + 0xe8] = a4\n 13825: u64 [a2 + 0xf0] = a5\n 13829: u64 [a2 + 0xf8] = a1\n 13833: u64 [a2 + 0x100] = a0\n 13837: a0 = s1 + 0x7ff\n 13841: a0 = a0 + 0x3e1\n 13845: a1 = s1 + 0x2a00\n 13849: ra = 538, jump @26\n      : @540 [@dyn 269] (gas: 5)\n 13855: a0 = s1 + 0x7ff\n 13859: a0 = a0 + 0x119\n 13863: a0 = u64 [a0 + 0x2d0]\n 13867: a0 = a0 & 0xff\n 13871: jump @543 if a0 == 0\n      : @541 (gas: 2)\n 13874: a1 = u64 [s1 + 0x140]\n 13878: fallthrough\n      : @542 (gas: 5)\n 13879: a4 = 0\n 13881: a0 = u64 [s1 + 0x198]\n 13885: a0 = a0 + 0x1\n 13888: a3 = a0 & a1\n 13891: jump @522\n      : @543 (gas: 4)\n 13894: a0 = s1 + 0x7ff\n 13898: a0 = a0 + 0x3c1\n 13902: a1 = u64 [s1 + 0x180]\n 13906: ra = 540, jump @26\n      : @544 [@dyn 270] (gas: 13)\n 13912: a2 = s1 + 0x7ff\n 13916: a2 = a2 + 0x119\n 13920: a3 = a2 + 0x200\n 13924: a0 = u64 [a3 + 0xb0]\n 13928: a1 = u64 [a3 + 0xb8]\n 13932: a2 = u64 [a3 + 0xa8]\n 13936: a0 = a0 & 0xffffffffffffffff\n 13939: a1 = a1 & 0xffffffffffffffff\n 13942: a4 = u64 [s1 + 0x130]\n 13946: a2 = a2 & a4\n 13949: a1 = a1 | a2\n 13952: a0 = a0 | a1\n 13955: jump @541 if a0 == 0\n      : @545 (gas: 5)\n 13958: a0 = u64 [s1 + 0x148]\n 13962: ra = 0x21e\n 13966: ecalli 4 // 'caller'\n 13968: t0 = 0x220\n 13972: jump @1499\n      : @546 [@dyn 271] (gas: 1)\n 13975: t0 = 544, jump @1499\n      : @547 [@dyn 272] (gas: 9)\n 13981: u64 [a2 + 672] = 0\n 13985: a4 = a2 + 0x200\n 13989: u64 [a4 + 0x98] = a1\n 13993: u64 [a4 + 0x90] = a0\n 13997: a1 = s1 + 0x7ff\n 14001: a1 = a1 + 0x3a1\n 14005: u64 [a4 + 0x88] = a3\n 14009: a0 = 0\n 14011: ra = 546, jump @24\n      : @548 [@dyn 273] (gas: 11)\n 14017: a0 = s1 + 0x7ff\n 14021: a0 = a0 + 0x119\n 14025: u64 [a0 + 640] = 0\n 14029: u64 [a0 + 632] = 0\n 14033: u64 [a0 + 624] = 0\n 14037: a3 = a0\n 14039: a0 = 0x20\n 14042: a1 = s1 + 0x7ff\n 14046: a1 = a1 + 0x381\n 14050: u64 [a3 + 616] = 0x4\n 14055: ra = 548, jump @24\n      : @549 [@dyn 274] (gas: 3)\n 14061: a1 = u64 [s1 + 0x188]\n 14065: a0 = i32 [a1]\n 14067: jump @551 if a0 >u 63\n      : @550 (gas: 2)\n 14071: u32 [a1 + 0] = 0x40\n 14074: fallthrough\n      : @551 (gas: 4)\n 14075: a0 = sp + 0xffffffffffffffe0\n 14078: a0 = a0 & 0xffffffffffffffe0\n 14081: u64 [s1 + 0x180] = a0\n 14085: t0 = 550, jump @1500\n      : @552 [@dyn 275] (gas: 5)\n 14091: ra = 0x228\n 14095: ecalli 8 // 'hash_keccak_256'\n 14097: a3 = u64 [s1 + 0x180]\n 14101: t0 = 0x22a\n 14105: jump @1562\n      : @553 [@dyn 276] (gas: 2)\n 14108: a3 = u64 [s1 + 0x180]\n 14112: t0 = 554, jump @1562\n      : @554 [@dyn 277] (gas: 16)\n 14118: u64 [s1 + 0x170] = a0\n 14122: a0 = reverse a2\n 14124: u64 [s1 + 0x168] = a0\n 14128: a0 = reverse a3\n 14130: u64 [s1 + 0x160] = a0\n 14134: a2 = s1 + 0x7ff\n 14138: a2 = a2 + 0x119\n 14142: u64 [a2 + 608] = 0\n 14146: u64 [a2 + 600] = 0\n 14150: u64 [a2 + 592] = 0\n 14154: a1 = s1 + 0x7ff\n 14158: a1 = a1 + 0x361\n 14162: a0 = u64 [s1 + 0x120]\n 14166: u64 [a2 + 0x248] = a0\n 14170: a0 = 0\n 14172: ra = 556, jump @24\n      : @555 [@dyn 278] (gas: 16)\n 14178: a0 = u64 [s1 + 0x160]\n 14182: a1 = s1 + 0x7ff\n 14186: a1 = a1 + 0x119\n 14190: a2 = a1 + 0x200\n 14194: u64 [a2 + 0x40] = a0\n 14197: a0 = u64 [s1 + 0x168]\n 14201: u64 [a2 + 0x38] = a0\n 14204: a0 = u64 [s1 + 0x170]\n 14208: u64 [a2 + 0x30] = a0\n 14211: a3 = a1\n 14213: a0 = 0x20\n 14216: a1 = s1 + 0x7ff\n 14220: a1 = a1 + 0x341\n 14224: a2 = u64 [s1 + 0x180]\n 14228: u64 [a3 + 0x228] = a2\n 14232: ra = 558, jump @24\n      : @556 [@dyn 279] (gas: 3)\n 14238: a1 = u64 [s1 + 0x188]\n 14242: a0 = i32 [a1]\n 14244: jump @558 if a0 >u 63\n      : @557 (gas: 2)\n 14248: u32 [a1 + 0] = 0x40\n 14251: fallthrough\n      : @558 (gas: 4)\n 14252: a0 = sp + 0xffffffffffffffe0\n 14255: a0 = a0 & 0xffffffffffffffe0\n 14258: u64 [s1 + 0x180] = a0\n 14262: t0 = 560, jump @1500\n      : @559 [@dyn 280] (gas: 4)\n 14268: ra = 0x232\n 14272: ecalli 8 // 'hash_keccak_256'\n 14274: t0 = 0x234\n 14278: jump @1508\n      : @560 [@dyn 281] (gas: 1)\n 14281: t0 = 564, jump @1508\n      : @561 [@dyn 282] (gas: 10)\n 14287: a3 = a2 + 0x200\n 14291: u64 [a3 + 0x20] = a0\n 14294: u64 [a3 + 0x18] = a0\n 14297: u64 [a3 + 0x10] = a0\n 14300: a1 = s1 + 0x7ff\n 14304: a1 = a1 + 0x321\n 14308: a0 = u64 [s1 + 0x198]\n 14312: u64 [a3 + 0x8] = a0\n 14315: a0 = 0\n 14317: ra = 566, jump @24\n      : @562 [@dyn 283] (gas: 15)\n 14323: a0 = u64 [s1 + 0x158]\n 14327: a1 = s1 + 0x7ff\n 14331: a1 = a1 + 0x119\n 14335: u64 [a1 + 0x200] = a0\n 14339: a0 = u64 [s1 + 0x160]\n 14343: u64 [a1 + 0x1f8] = a0\n 14347: a0 = u64 [s1 + 0x168]\n 14351: u64 [a1 + 0x1f0] = a0\n 14355: a3 = a1\n 14357: a0 = 0x20\n 14360: a1 = s1 + 0x7ff\n 14364: a1 = a1 + 0x301\n 14368: a2 = u64 [s1 + 0x170]\n 14372: u64 [a3 + 0x1e8] = a2\n 14376: ra = 568, jump @24\n      : @563 [@dyn 284] (gas: 3)\n 14382: a1 = u64 [s1 + 0x188]\n 14386: a0 = i32 [a1]\n 14388: jump @565 if a0 >u 63\n      : @564 (gas: 2)\n 14392: u32 [a1 + 0] = 0x40\n 14395: fallthrough\n      : @565 (gas: 4)\n 14396: a0 = sp + 0xffffffffffffffe0\n 14399: a0 = a0 & 0xffffffffffffffe0\n 14402: u64 [s1 + 0x178] = a0\n 14406: t0 = 570, jump @1500\n      : @566 [@dyn 285] (gas: 5)\n 14412: ra = 0x23c\n 14416: ecalli 8 // 'hash_keccak_256'\n 14418: a3 = u64 [s1 + 0x178]\n 14422: t0 = 0x23e\n 14426: jump @1527\n      : @567 [@dyn 286] (gas: 2)\n 14429: a3 = u64 [s1 + 0x178]\n 14433: t0 = 574, jump @1527\n      : @568 [@dyn 287] (gas: 3)\n 14439: a0 = s1 + 0x7ff\n 14443: a0 = a0 + 0x2e1\n 14447: ra = 576, jump @26\n      : @569 [@dyn 288] (gas: 4)\n 14453: a0 = s1 + 0x7ff\n 14457: a0 = a0 + 0x119\n 14461: a0 = u8 [a0 + 0x1c8]\n 14465: jump @541 if a0 != 0\n      : @570 (gas: 4)\n 14469: a0 = s1 + 0x7ff\n 14473: a0 = a0 + 0x2c1\n 14477: a1 = u64 [s1 + 0x128]\n 14481: ra = 578, jump @26\n      : @571 [@dyn 289] (gas: 17)\n 14487: a3 = s1 + 0x7ff\n 14491: a3 = a3 + 0x119\n 14495: a4 = a3 + 0x100\n 14499: a0 = u64 [a4 + 0xc0]\n 14503: a1 = u64 [a4 + 0xb8]\n 14507: a2 = u64 [a4 + 0xb0]\n 14511: t0 = u64 [a3 + 0x1a8]\n 14515: a4 = u64 [0x200a8]\n 14520: a5 = a0 >u 0\n 14522: a3 = a1 >u 0\n 14524: a3 = a5 if a0 != 0\n 14527: a4 = a4 <u t0\n 14530: a5 = a2 >u 0\n 14532: a5 = a4 if a2 == 0\n 14535: a4 = a1 | a0\n 14538: a5 = a3 if a4 != 0\n 14541: jump @573 if a5 != 0\n      : @572 (gas: 7)\n 14544: a2 = s1 + 0x100\n 14548: a0 = u64 [a2 + 0x10]\n 14551: a0 = a0 + 0x1\n 14554: a1 = u64 [a2 + 0x40]\n 14557: a0 = a0 & a1\n 14560: u64 [a2 + 0x10] = a0\n 14563: jump @542\n      : @573 (gas: 23)\n 14566: a3 = u64 [0x200b0]\n 14571: a3 = a3 + t0\n 14574: a4 = a3 <u t0\n 14577: a5 = a2 + a4\n 14580: a5 = a5 + 0xffffffffffffffff\n 14583: t0 = a5 ^ a2\n 14586: a2 = a5 <u a2\n 14589: a2 = a4 if t0 == 0\n 14592: a4 = a1 + 0xffffffffffffffff\n 14595: a2 = a2 + a4\n 14598: a4 = a2 <u a4\n 14601: a1 = a1 <u 0x1\n 14604: a0 = a0 - a1\n 14607: a0 = a0 + a4\n 14610: a1 = s1 + 0x2918\n 14614: a4 = a1 + 0x100\n 14618: u64 [a4 + 0x8] = a3\n 14621: u64 [a4 + 0x10] = a5\n 14624: u64 [a4 + 0x18] = a2\n 14627: u64 [a4 + 0x20] = a0\n 14630: a1 = s1 + 0x2a20\n 14634: a0 = u64 [s1 + 0x128]\n 14638: ra = 580, jump @28\n      : @574 [@dyn 290] (gas: 15)\n 14644: a0 = sp + 0xffffffffffffffe0\n 14647: a1 = a0 & 0xffffffffffffffe0\n 14650: u64 [s1 + 0x178] = a1\n 14654: sp = a1\n 14656: a0 = u64 [s1 + 0xf0]\n 14660: u64 [a1 + 0x18] = a0\n 14663: a0 = u64 [s1 + 0xf8]\n 14667: u64 [a1 + 0x10] = a0\n 14670: a0 = u64 [s1 + 0x100]\n 14674: u64 [a1 + 0x8] = a0\n 14677: a0 = u64 [s1 + 0x108]\n 14681: u64 [a1] = a0\n 14683: a0 = s1 + 0x7ff\n 14687: a0 = a0 + 0x2a1\n 14691: ra = 582, jump @26\n      : @575 [@dyn 291] (gas: 30)\n 14697: a0 = s1 + 0x7ff\n 14701: a0 = a0 + 0x119\n 14705: a0 = u64 [a0 + 0x188]\n 14709: a1 = u64 [0x200a0]\n 14714: a2 = s1 + 0x7ff\n 14718: a2 = a2 + 0x119\n 14722: a2 = u64 [a2 + 0x1a0]\n 14726: a3 = s1 + 0x7ff\n 14730: a3 = a3 + 0x119\n 14734: a3 = u64 [a3 + 0x190]\n 14738: a4 = s1 + 0x7ff\n 14742: a4 = a4 + 0x119\n 14746: a4 = u64 [a4 + 0x198]\n 14750: a1 = a1 + a0\n 14753: a0 = a1 <u a0\n 14756: a5 = a3 + a0\n 14759: a3 = a5 <u a3\n 14762: a3 = a0 if a0 == 0\n 14765: a3 = a3 + a4\n 14768: a0 = a3 <u a4\n 14771: a0 = a0 + a2\n 14774: a2 = s1 + 0x2918\n 14778: a4 = a2 + 0x100\n 14782: u64 [a4 + 0x28] = a1\n 14785: u64 [a4 + 0x30] = a5\n 14788: u64 [a4 + 0x38] = a3\n 14791: u64 [a4 + 0x40] = a0\n 14794: a1 = s1 + 0x2a40\n 14798: a0 = u64 [s1 + 0x178]\n 14802: ra = 584, jump @28\n      : @576 [@dyn 292] (gas: 9)\n 14808: a0 = u64 [s1 + 0x118]\n 14812: a0 = a0 + 0x1\n 14815: a1 = u64 [s1 + 0x140]\n 14819: a0 = a0 & a1\n 14822: u64 [s1 + 0x118] = a0\n 14826: a0 = s1 + 0x7ff\n 14830: a0 = a0 + 0x281\n 14834: a1 = u64 [s1 + 0x180]\n 14838: ra = 586, jump @26\n      : @577 [@dyn 293] (gas: 23)\n 14844: a0 = s1 + 0x7ff\n 14848: a0 = a0 + 0x119\n 14852: a0 = u64 [a0 + 0x168]\n 14856: a1 = s1 + 0x7ff\n 14860: a1 = a1 + 0x119\n 14864: a1 = u64 [a1 + 0x170]\n 14868: a2 = s1 + 0x7ff\n 14872: a2 = a2 + 0x119\n 14876: a2 = u64 [a2 + 0x180]\n 14880: a3 = s1 + 0x7ff\n 14884: a3 = a3 + 0x119\n 14888: a3 = u64 [a3 + 0x178]\n 14892: a0 = a0 & 0xffffffffffffff00\n 14896: a0 = a0 | 0x1\n 14899: a4 = s1 + 0x2918\n 14903: a5 = a4 + 0x100\n 14907: u64 [a5 + 0x60] = a2\n 14910: u64 [a5 + 0x58] = a3\n 14913: u64 [a5 + 0x50] = a1\n 14916: u64 [a5 + 0x48] = a0\n 14919: a1 = s1 + 0x2a60\n 14923: a0 = u64 [s1 + 0x180]\n 14927: ra = 588, jump @28\n      : @578 [@dyn 294] (gas: 1)\n 14933: jump @541\n      : @579 (gas: 4)\n 14936: a0 = s1 + 0x7ff\n 14940: a0 = a0 + 0x261\n 14944: a1 = 0x40\n 14947: ra = 590, jump @22\n      : @580 [@dyn 295] (gas: 15)\n 14953: a2 = s1 + 0x7ff\n 14957: a2 = a2 + 0x119\n 14961: t0 = u64 [a2 + 0x160]\n 14965: a0 = a2 + 0x100\n 14969: a5 = u64 [a0 + 0x58]\n 14972: a4 = u64 [a0 + 0x50]\n 14975: a3 = u64 [a0 + 0x48]\n 14978: a0 = a4 | t0\n 14981: a1 = a3 | a5\n 14984: a1 = a1 | a0\n 14987: a1 = a1 >> 0x20\n 14990: a0 = a0 | a5\n 14993: a0 = a0 << 0x20\n 14996: a0 = a0 | a1\n 14999: jump @582 if a0 == 0\n      : @581 (gas: 1)\n 15002: jump @781\n      : @582 (gas: 15)\n 15005: a0 = u64 [s1 + 0x118]\n 15009: a1 = u64 [s1 + 0x140]\n 15013: a0 = a0 & a1\n 15016: u64 [a2 + 320] = 0\n 15020: u64 [a2 + 312] = 0\n 15024: u64 [a2 + 304] = 0\n 15028: a1 = s1 + 0x7ff\n 15032: a1 = a1 + 0x241\n 15036: u64 [a2 + 0x128] = a0\n 15040: a0 = a3\n 15042: u64 [s1 + 0x198] = a3\n 15046: u64 [s1 + 0x188] = a4\n 15050: u64 [s1 + 0x178] = t0\n 15054: u64 [s1 + 0x180] = a5\n 15058: ra = 592, jump @24\n      : @583 [@dyn 296] (gas: 11)\n 15064: a4 = s1 + 0x100\n 15068: a2 = u64 [a4 + 0x98]\n 15072: a0 = u64 [a4 + 0x80]\n 15076: a1 = u64 [a4 + 0x78]\n 15079: a0 = a0 | a1\n 15082: a1 = 0xffffffe0\n 15092: a1 = a2 <u a1\n 15095: a3 = u64 [a4 + 0x88]\n 15099: a1 = 0 if a3 != 0\n 15101: a1 = 0 if a0 != 0\n 15103: jump @585 if a1 != 0\n      : @584 (gas: 1)\n 15106: jump @781\n      : @585 (gas: 13)\n 15109: a0 = u64 [s1 + 0x110]\n 15113: a1 = u64 [s1 + 0x140]\n 15117: a1 = a1 & a0\n 15120: i32 a0 = a2 + 0x20\n 15123: a3 = s1 + 0x7ff\n 15127: a3 = a3 + 0x119\n 15131: u64 [a3 + 288] = 0\n 15135: u64 [a3 + 280] = 0\n 15139: u64 [a3 + 0x108] = a1\n 15143: a1 = s1 + 0x7ff\n 15147: a1 = a1 + 0x221\n 15151: u64 [a3 + 272] = 0\n 15155: ra = 594, jump @24\n      : @586 [@dyn 297] (gas: 6)\n 15161: a0 = u64 [s1 + 0x148]\n 15165: ra = 0x254\n 15169: ecalli 4 // 'caller'\n 15171: a2 = u64 [s1 + 0x150]\n 15175: t0 = 0x256\n 15179: jump @1502\n      : @587 [@dyn 298] (gas: 2)\n 15182: a2 = u64 [s1 + 0x150]\n 15186: t0 = 598, jump @1502\n      : @588 [@dyn 299] (gas: 36)\n 15192: t0 = a1 | a0\n 15195: a3 = a3 >> 0x20\n 15198: a2 = reverse a2\n 15200: a1 = a2 << 0x20\n 15203: t1 = a1 | a3\n 15206: a2 = a2 >> 0x20\n 15209: a3 = u64 [0x200b8]\n 15214: a4 = u64 [0x200c0]\n 15219: a5 = u64 [0x200c8]\n 15224: a0 = u64 [s1 + 0x120]\n 15228: a1 = s1 + 0x7ff\n 15232: a1 = a1 + 0x119\n 15236: u64 [a1 + 0xa8] = a0\n 15240: u64 [a1 + 0x100] = a3\n 15244: u64 [a1 + 0xf8] = a4\n 15248: u64 [a1 + 0xf0] = a5\n 15252: a3 = u64 [0x200d0]\n 15257: u64 [a1 + 192] = 0\n 15261: u64 [a1 + 184] = 0\n 15265: u64 [a1 + 176] = 0\n 15269: u64 [a1 + 0xe8] = a3\n 15273: u64 [a1 + 0xd8] = a2\n 15277: u64 [a1 + 0xd0] = t1\n 15281: u64 [a1 + 0xc8] = t0\n 15285: a0 = a1\n 15287: a1 = 0x40\n 15290: a2 = s1 + 0x7ff\n 15294: a2 = a2 + 0x201\n 15298: a3 = s1 + 0x7ff\n 15302: a3 = a3 + 0x1e1\n 15306: a4 = s1 + 0x7ff\n 15310: a4 = a4 + 0x1c1\n 15314: u64 [a0 + 224] = 0\n 15318: a0 = u64 [s1 + 0x198]\n 15322: ra = 0x472\n 15326: jump @31\n      : @589 (gas: 24)\n 15329: u64 [s1 + 0xb8] = a3\n 15333: a0 = a0 <u a1\n 15336: a1 = u64 [s1 + 0x100]\n 15340: a2 = a1 + a0\n 15343: u64 [s1 + 0x128] = a2\n 15347: a1 = a2 <u a1\n 15350: a1 = a0 if a0 == 0\n 15353: a1 = a1 + a4\n 15356: u64 [s1 + 0x120] = a1\n 15360: a0 = a1 <u a4\n 15363: u64 [s1 + 0x188] = a0\n 15367: a0 = s1 + 0x1118\n 15371: a1 = u64 [s1 + 0x178]\n 15375: a3 = a0 + 0x400\n 15379: u64 [a3 + 0x88] = a1\n 15383: a1 = u64 [s1 + 0x170]\n 15387: u64 [a3 + 0x90] = a1\n 15391: a1 = u64 [s1 + 0x168]\n 15395: u64 [a3 + 0x98] = a1\n 15399: a1 = s1 + 0x15a0\n 15403: a2 = u64 [s1 + 0x180]\n 15407: u64 [a3 + 0xa0] = a2\n 15411: a0 = 0\n 15413: ra = 600, jump @24\n      : @590 [@dyn 300] (gas: 7)\n 15419: a0 = sp + 0xffffffffffffffe0\n 15422: a0 = a0 & 0xffffffffffffffe0\n 15425: u64 [s1 + 0x130] = a0\n 15429: sp = a0\n 15431: a2 = u64 [s1 + 0x198]\n 15435: a0 = i32 [a2]\n 15437: jump @592 if a0 >u 31\n      : @591 (gas: 2)\n 15441: u32 [a2 + 0] = 0x20\n 15444: fallthrough\n      : @592 (gas: 14)\n 15445: a0 = u64 [s1 + 0x110]\n 15449: a1 = u64 [s1 + 0x188]\n 15453: a0 = a0 + a1\n 15456: u64 [s1 + 0x118] = a0\n 15460: a0 = sp + 0xffffffffffffffe0\n 15463: a0 = a0 & 0xffffffffffffffe0\n 15466: u64 [s1 + 0x188] = a0\n 15470: sp = a0\n 15472: i32 a2 = a0 + 0\n 15474: a1 = 0x20\n 15477: a0 = u64 [s1 + 0x190]\n 15481: ra = 0x25a\n 15485: ecalli 8 // 'hash_keccak_256'\n 15487: fallthrough\n      : @593 [@dyn 301] (gas: 5)\n 15488: u64 [s1 + 408] = 0\n 15492: t2 = 0\n 15494: t1 = 0\n 15496: u64 [s1 + 400] = 0\n 15500: t0 = 604, jump @1561\n      : @594 [@dyn 302] (gas: 12)\n 15506: a5 = reverse a2\n 15508: a2 = reverse a3\n 15510: a1 = u64 [s1 + 0x130]\n 15514: a3 = a2\n 15516: u64 [a1 + 0x18] = a2\n 15519: u64 [s1 + 0x160] = a5\n 15523: u64 [a1 + 0x10] = a5\n 15526: ra = a4\n 15528: u64 [a1 + 0x8] = a4\n 15531: a2 = a0\n 15533: u64 [a1] = a0\n 15535: fallthrough\n      : @595 (gas: 22)\n 15536: a4 = s1 + 0x100\n 15540: u64 [a4 + 0x68] = a3\n 15543: u64 [s1 + 0x170] = ra\n 15547: u64 [a4 + 0x78] = a2\n 15550: a0 = u64 [a4 + 0x40]\n 15553: a2 = u64 [a4 + 0x98]\n 15557: a0 = a2 <u a0\n 15560: a2 = u64 [a4 + 0x50]\n 15563: a3 = t2 ^ a2\n 15566: a2 = t2 <u a2\n 15569: a2 = a0 if a3 == 0\n 15572: a0 = u64 [a4 + 0x48]\n 15575: t0 = t1 <u a0\n 15578: a3 = u64 [a4 + 0x58]\n 15581: a5 = u64 [a4 + 0x90]\n 15585: a4 = a5 ^ a3\n 15588: a3 = a5 <u a3\n 15591: a3 = t0 if a4 == 0\n 15594: a0 = t1 ^ a0\n 15597: a0 = a0 | a4\n 15600: a3 = a2 if a0 == 0\n 15603: jump @683 if a3 == 0\n      : @596 (gas: 4)\n 15607: a0 = s1 + 0x1580\n 15611: u64 [s1 + 0x188] = t1\n 15615: u64 [s1 + 0x180] = t2\n 15619: ra = 606, jump @26\n      : @597 [@dyn 303] (gas: 30)\n 15625: ra = u64 [s1 + 0x198]\n 15629: t2 = u64 [s1 + 0x180]\n 15633: t1 = u64 [s1 + 0x188]\n 15637: a1 = u64 [s1 + 0x138]\n 15641: a0 = a1 + ra\n 15644: a1 = a0 <u a1\n 15647: a4 = u64 [s1 + 0x128]\n 15651: a2 = a4 + t2\n 15654: a2 = a2 + a1\n 15657: a3 = a2 ^ a4\n 15660: a4 = a2 <u a4\n 15663: a4 = a1 if a3 == 0\n 15666: a3 = u64 [s1 + 0x120]\n 15670: a1 = a3 + t1\n 15673: t0 = a1 <u a3\n 15676: a5 = u64 [s1 + 0x118]\n 15680: a3 = u64 [s1 + 0x190]\n 15684: a5 = a5 + a3\n 15687: a3 = a5 + t0\n 15690: a4 = a4 + a1\n 15693: a1 = a4 <u a1\n 15696: a1 = a1 + a3\n 15699: a1 = a1 | a2\n 15702: a2 = a0 | a4\n 15705: a2 = a2 | a1\n 15708: a1 = a1 | a4\n 15711: a2 = a2 >> 0x20\n 15714: a1 = a1 << 0x20\n 15717: a1 = a1 | a2\n 15720: jump @599 if a1 == 0\n      : @598 (gas: 1)\n 15723: jump @781\n      : @599 (gas: 13)\n 15726: a5 = s1 + 0x1118\n 15730: a2 = u64 [a5 + 0x480]\n 15734: a1 = u64 [a5 + 0x478]\n 15738: a3 = u64 [a5 + 0x470]\n 15742: a4 = u64 [a5 + 0x468]\n 15746: u64 [a5 + 0x448] = a4\n 15750: a4 = a5 + 0x400\n 15754: u64 [a4 + 0x50] = a3\n 15757: u64 [a4 + 0x58] = a1\n 15760: a1 = s1 + 0x1560\n 15764: u64 [a4 + 0x60] = a2\n 15767: u64 [s1 + 0x198] = ra\n 15771: ra = 608, jump @24\n      : @600 [@dyn 304] (gas: 38)\n 15777: a5 = u64 [s1 + 0x178]\n 15781: a5 = a5 + 0x1\n 15784: a0 = a5 <u 0x1\n 15787: a3 = u64 [s1 + 0x170]\n 15791: a3 = a3 + a0\n 15794: a0 = a5 | a3\n 15797: a0 = a0 <u 0x1\n 15800: a1 = u64 [s1 + 0x160]\n 15804: t2 = a1 + a0\n 15807: a1 = t2 <u a1\n 15810: a0 = u64 [s1 + 0x168]\n 15814: a0 = a0 + a1\n 15817: a1 = u64 [s1 + 0x198]\n 15821: t1 = a1 + 0x20\n 15824: a2 = t1 <u a1\n 15827: a1 = u64 [s1 + 0x180]\n 15831: t0 = a1 + a2\n 15834: a4 = t0 <u a1\n 15837: a4 = a2 if a2 == 0\n 15840: a1 = u64 [s1 + 0x188]\n 15844: a4 = a4 + a1\n 15847: a2 = a4 <u a1\n 15850: a1 = u64 [s1 + 0x190]\n 15854: a1 = a1 + a2\n 15857: u64 [s1 + 0x190] = a1\n 15861: ra = a3\n 15863: a1 = u64 [s1 + 0x130]\n 15867: u64 [a1 + 0x8] = a3\n 15870: a2 = a5\n 15872: u64 [a1] = a5\n 15874: u64 [a1 + 0x10] = t2\n 15877: a3 = a0\n 15879: u64 [a1 + 0x18] = a0\n 15882: u64 [s1 + 0x160] = t2\n 15886: u64 [s1 + 0x198] = t1\n 15890: t2 = t0\n 15892: t1 = a4\n 15894: jump @595\n      : @601 (gas: 1)\n 15897: t0 = 610, jump @1551\n      : @602 [@dyn 305] (gas: 12)\n 15903: t0 = u64 [s1 + 0x168]\n 15907: a3 = a0 if t0 != 0\n 15910: u64 [s1 + 0x198] = a3\n 15914: a0 = u64 [s1 + 0x160]\n 15918: a2 = u64 [s1 + 0x130]\n 15922: a0 = a0 | a2\n 15925: a2 = u64 [s1 + 0x118]\n 15929: a0 = a2 if a4 == 0\n 15932: a5 = u64 [s1 + 0x150]\n 15936: a3 = a5\n 15938: a3 = a0 if t0 != 0\n 15941: t0 = 612, jump @1530\n      : @603 [@dyn 306] (gas: 1)\n 15947: ra = 614, jump @1580\n      : @604 [@dyn 307] (gas: 6)\n 15953: u64 [s1 + 0x130] = a0\n 15957: u64 [s1 + 0x118] = a1\n 15961: a0 = u64 [s1 + 0x158]\n 15965: a1 = u64 [s1 + 0x148]\n 15969: a2 = u64 [s1 + 0x190]\n 15973: ra = 616, jump @1580\n      : @605 [@dyn 308] (gas: 1)\n 15979: t0 = 618, jump @1539\n      : @606 [@dyn 309] (gas: 1)\n 15985: ra = 620, jump @1585\n      : @607 [@dyn 310] (gas: 1)\n 15991: t0 = 622, jump @1543\n      : @608 [@dyn 311] (gas: 14)\n 15997: a2 = u64 [s1 + 0x148]\n 16001: a2 = a1 if a3 != 0\n 16004: u64 [s1 + 0x148] = a2\n 16008: a1 = u64 [s1 + 0x110]\n 16012: a0 = a0 | a1\n 16015: a1 = u64 [s1 + 0x130]\n 16019: a0 = a1 if a4 == 0\n 16022: a1 = u64 [s1 + 0x158]\n 16026: a1 = a0 if a3 != 0\n 16029: a2 = a3\n 16031: u64 [s1 + 0x158] = a1\n 16035: a0 = u64 [s1 + 0x150]\n 16039: a1 = u64 [s1 + 0x140]\n 16043: ra = 624, jump @1580\n      : @609 [@dyn 312] (gas: 1)\n 16049: t0 = 626, jump @1523\n      : @610 [@dyn 313] (gas: 3)\n 16055: t1 = u64 [s1 + 0x148]\n 16059: t2 = u64 [s1 + 0x158]\n 16063: fallthrough\n      : @611 (gas: 68)\n 16064: u64 [s1 + 0x158] = a4\n 16068: a2 = t2 >> 0x3f\n 16071: a3 = t1 << 0x1\n 16074: t0 = a3 | a2\n 16077: a3 = t2 << 0x1\n 16080: a4 = u64 [s1 + 0x198]\n 16084: a4 = a4 >> 0x3f\n 16087: a3 = a3 | a4\n 16090: u64 [s1 + 0x148] = a3\n 16094: a2 = u64 [s1 + 0x128]\n 16098: t2 = a1\n 16100: u64 [s1 + 0x150] = t0\n 16104: a1 = a2 ^ t0\n 16107: ra = t1\n 16109: t1 = a2 <u t0\n 16112: a4 = u64 [s1 + 0x130]\n 16116: t0 = a4 <u a3\n 16119: t0 = t1 if a1 != 0\n 16122: a1 = t2 << 0x1\n 16125: a3 = a0 >> 0x3f\n 16128: a1 = a1 | a3\n 16131: u64 [s1 + 0x140] = a1\n 16135: a3 = ra >> 0x3f\n 16138: a0 = a0 << 0x1\n 16141: a3 = a3 | a0\n 16144: a0 = u64 [s1 + 0x198]\n 16148: a0 = a0 << 0x1\n 16151: a4 = u64 [s1 + 0x160]\n 16155: a1 = a4 >> 0x3f\n 16158: ra = a0 | a1\n 16161: a1 = a4 << 0x1\n 16164: a4 = u64 [s1 + 0x168]\n 16168: t1 = a4 >> 0x3f\n 16171: t1 = a1 | t1\n 16174: a1 = a4 << 0x1\n 16177: a4 = u64 [s1 + 0x188]\n 16181: t2 = a4 >> 0x3f\n 16184: a1 = a1 | t2\n 16187: a4 = a4 << 0x1\n 16190: a0 = u64 [s1 + 0x158]\n 16194: a4 = a4 | a0\n 16197: u64 [s1 + 0x188] = a4\n 16201: a1 = a1 | a5\n 16204: u64 [s1 + 0x168] = a1\n 16208: a1 = a5 | t1\n 16211: u64 [s1 + 0x160] = a1\n 16215: a0 = a5 | ra\n 16218: u64 [s1 + 0x198] = a0\n 16222: a0 = a2 - a3\n 16225: a0 = a0 <u t0\n 16228: a1 = a2 <u a3\n 16231: t0 = u64 [s1 + 0x140]\n 16235: a4 = a2 - t0\n 16238: a4 = a4 - a1\n 16241: a4 = a4 - a0\n 16244: a5 = a4 >>a 0x3f\n 16247: a0 = u64 [s1 + 0x138]\n 16251: a0 = a0 & a5\n 16254: a1 = u64 [s1 + 0x148]\n 16258: t2 = a1 - a0\n 16261: a1 = a1 <u a0\n 16264: a0 = u64 [s1 + 0x150]\n 16268: t1 = a0 - a1\n 16271: a1 = 0 if a0 != 0\n 16273: a0 = a3 - a1\n 16276: a1 = a3 <u a1\n 16279: a1 = t0 - a1\n 16282: t0 = 628, jump @1571\n      : @612 [@dyn 314] (gas: 17)\n 16288: t0 = a4 <u a2\n 16291: a2 = a4 - a2\n 16294: a4 = a3 <u 0x1\n 16297: ra = ra - a4\n 16300: a4 = u64 [s1 + 0x178]\n 16304: a4 = a4 - t0\n 16307: a3 = a3 + 0xffffffffffffffff\n 16310: u64 [s1 + 0x180] = ra\n 16314: u64 [s1 + 0x178] = a4\n 16318: t0 = ra | a4\n 16321: u64 [s1 + 0x190] = a3\n 16325: a4 = a3 | a2\n 16328: a3 = a4 | t0\n 16331: a4 = a5 & 0x1\n 16334: u64 [s1 + 0x170] = a2\n 16338: a5 = 0\n 16340: jump @611 if a3 != 0\n      : @613 (gas: 4)\n 16344: a0 = u64 [s1 + 0x188]\n 16348: a0 = a0 << 0x1\n 16351: a4 = a4 | a0\n 16354: fallthrough\n      : @614 (gas: 4)\n 16355: u64 [s1 + 0x170] = a4\n 16359: a0 = s1 + 0x24a0\n 16363: a1 = 0x40\n 16366: ra = 630, jump @22\n      : @615 [@dyn 315] (gas: 17)\n 16372: t0 = s1 + 0x2118\n 16376: t1 = u64 [t0 + 0x3a0]\n 16380: a0 = t0 + 0x300\n 16384: a5 = u64 [a0 + 0x98]\n 16388: a3 = u64 [a0 + 0x90]\n 16392: a4 = u64 [a0 + 0x88]\n 16396: a0 = t1 >u 0\n 16398: a1 = a5 >u 0\n 16400: a1 = a0 if t1 != 0\n 16403: a0 = a3 >u 0\n 16405: a2 = a4 <u 0xffffffffffffff60\n 16409: a2 = a2 ^ 0x1\n 16412: a2 = a0 if a3 != 0\n 16415: a0 = a5 | t1\n 16418: u64 [s1 + 0x178] = a0\n 16422: a2 = a1 if a0 != 0\n 16425: jump @617 if a2 == 0\n      : @616 (gas: 1)\n 16428: jump @852\n      : @617 (gas: 20)\n 16431: a0 = a4 + 0xa0\n 16435: a1 = a0 <u a4\n 16438: a2 = a3 + a1\n 16441: u64 [s1 + 0x198] = a3\n 16445: a3 = u64 [s1 + 0x198]\n 16449: a3 = a2 <u a3\n 16452: a3 = a1 if a1 == 0\n 16455: a3 = a3 + a5\n 16458: a1 = a3 <u a5\n 16461: u64 [s1 + 0x190] = a4\n 16465: a4 = t1 + a1\n 16468: u64 [t0 + 0x368] = a0\n 16472: u64 [t0 + 0x370] = a2\n 16476: u64 [t0 + 0x378] = a3\n 16480: a0 = 0x40\n 16483: a1 = s1 + 0x2480\n 16487: u64 [t0 + 0x380] = a4\n 16491: u64 [s1 + 0x180] = a5\n 16495: u64 [s1 + 0x188] = t1\n 16499: ra = 632, jump @24\n      : @618 [@dyn 316] (gas: 13)\n 16505: a5 = s1 + 0x100\n 16509: a2 = u64 [a5 + 0x90]\n 16513: a3 = u64 [a5 + 0x80]\n 16517: a0 = a2 | a3\n 16520: a1 = u64 [a5 + 0x98]\n 16524: a4 = u64 [a5 + 0x88]\n 16528: a1 = a1 | a4\n 16531: a0 = a0 | a1\n 16534: a0 = a0 >> 0x20\n 16537: a1 = a1 | a3\n 16540: a1 = a1 << 0x20\n 16543: a0 = a0 | a1\n 16546: jump @620 if a0 == 0\n      : @619 (gas: 1)\n 16549: jump @781\n      : @620 (gas: 12)\n 16552: a3 = s1 + 0x2118\n 16556: u64 [a3 + 864] = 0\n 16560: a0 = u64 [s1 + 0x100]\n 16564: a4 = a3 + 0x300\n 16568: u64 [a4 + 0x48] = a0\n 16571: a0 = u64 [s1 + 0xf8]\n 16575: u64 [a4 + 0x50] = a0\n 16578: a1 = s1 + 0x2460\n 16582: a0 = u64 [s1 + 0x108]\n 16586: u64 [a4 + 0x58] = a0\n 16589: a0 = a2\n 16591: ra = 634, jump @24\n      : @621 [@dyn 317] (gas: 3)\n 16597: a0 = u64 [s1 + 0xc8]\n 16601: ecalli 4 // 'caller'\n 16603: fallthrough\n      : @622 (gas: 9)\n 16604: a2 = s1 + 0x100\n 16608: a4 = u64 [a2 + 0x90]\n 16612: a0 = 0xffffffe0\n 16622: a0 = a4 <u a0\n 16625: a1 = u64 [a2 + 0x98]\n 16629: a0 = 0 if a1 != 0\n 16631: a1 = u64 [a2 + 0x78]\n 16634: a0 = 0 if a1 != 0\n 16636: jump @624 if a0 != 0\n      : @623 (gas: 1)\n 16639: jump @781\n      : @624 (gas: 24)\n 16642: a2 = u64 [s1 + 0xe8]\n 16646: a0 = u64 [a2 + 0x8]\n 16649: a1 = i32 [a2 + 0x10]\n 16652: a2 = u64 [a2]\n 16654: a0 = reverse a0\n 16656: a3 = a0 << 0x20\n 16659: a1 = reverse a1\n 16661: a1 = a1 >> 0x20\n 16664: a3 = a3 | a1\n 16667: a0 = a0 >> 0x20\n 16670: a1 = reverse a2\n 16672: a2 = a1 << 0x20\n 16675: a2 = a2 | a0\n 16678: a1 = a1 >> 0x20\n 16681: i32 a0 = a4 + 0x20\n 16684: a4 = s1 + 0x2118\n 16688: u64 [a4 + 832] = 0\n 16692: a5 = a4 + 0x300\n 16696: u64 [a5 + 0x38] = a1\n 16699: u64 [a5 + 0x30] = a2\n 16702: a1 = s1 + 0x2440\n 16706: u64 [a5 + 0x28] = a3\n 16709: u64 [s1 + 0x138] = a0\n 16713: ra = 636, jump @24\n      : @625 [@dyn 318] (gas: 13)\n 16719: a0 = u64 [s1 + 0xf0]\n 16723: a3 = s1 + 0x2118\n 16727: u64 [a3 + 0x300] = a0\n 16731: a0 = u64 [s1 + 0xb8]\n 16735: a4 = a3 + 0x200\n 16739: u64 [a4 + 0xf8] = a0\n 16743: a0 = u64 [s1 + 0xb0]\n 16747: u64 [a4 + 0xf0] = a0\n 16751: a0 = s1 + 0x2420\n 16755: a1 = s1 + 0x2400\n 16759: a2 = u64 [s1 + 0xc0]\n 16763: u64 [a4 + 0xe8] = a2\n 16767: ra = 638, jump @1468\n      : @626 [@dyn 319] (gas: 13)\n 16773: a0 = s1 + 0x2118\n 16777: a2 = a0 + 0x300\n 16781: a1 = u64 [a2 + 0x8]\n 16784: u64 [s1 + 0x158] = a1\n 16788: a1 = u64 [a2 + 0x10]\n 16791: u64 [s1 + 0x150] = a1\n 16795: a1 = u64 [a2 + 0x18]\n 16798: u64 [s1 + 0x148] = a1\n 16802: a1 = u64 [a2 + 0x20]\n 16805: u64 [s1 + 0x140] = a1\n 16809: a0 = s1 + 0x23e0\n 16813: a1 = 0x40\n 16816: ra = 640, jump @22\n      : @627 [@dyn 320] (gas: 26)\n 16822: a0 = s1 + 0x2118\n 16826: a3 = u64 [a0 + 0x2e0]\n 16830: u64 [s1 + 0x188] = a3\n 16834: a1 = u64 [a0 + 0x2d8]\n 16838: u64 [s1 + 0x180] = a1\n 16842: a5 = u64 [a0 + 0x2d0]\n 16846: u64 [s1 + 0x168] = a5\n 16850: a4 = u64 [a0 + 0x2c8]\n 16854: u64 [s1 + 0x160] = a4\n 16858: a2 = u64 [s1 + 0x140]\n 16862: u64 [a0 + 0x2a0] = a2\n 16866: a2 = u64 [s1 + 0x148]\n 16870: u64 [a0 + 0x298] = a2\n 16874: a2 = u64 [s1 + 0x150]\n 16878: u64 [a0 + 0x290] = a2\n 16882: a2 = u64 [s1 + 0x158]\n 16886: u64 [a0 + 0x288] = a2\n 16890: a2 = a0 + 0x200\n 16894: u64 [a2 + 0xc0] = a3\n 16898: u64 [a2 + 0xb8] = a1\n 16902: u64 [a2 + 0xb0] = a5\n 16906: a2 = a0\n 16908: a0 = s1 + 0x23c0\n 16912: a1 = s1 + 0x23a0\n 16916: u64 [a2 + 0x2a8] = a4\n 16920: ra = 642, jump @1349\n      : @628 [@dyn 321] (gas: 14)\n 16926: a2 = s1 + 0x100\n 16930: a1 = u64 [a2 + 0x68]\n 16933: a0 = u64 [a2 + 0x88]\n 16937: a0 = a0 | a1\n 16940: a1 = u64 [a2 + 0x60]\n 16943: a5 = a1\n 16945: a4 = u64 [a2 + 0x80]\n 16949: a1 = a1 | a4\n 16952: a1 = a1 | a0\n 16955: a1 = a1 >> 0x20\n 16958: a0 = a0 | a4\n 16961: a0 = a0 << 0x20\n 16964: a0 = a0 | a1\n 16967: jump @630 if a0 == 0\n      : @629 (gas: 1)\n 16970: jump @781\n      : @630 (gas: 13)\n 16973: a0 = s1 + 0x2118\n 16977: a1 = u64 [s1 + 0xc0]\n 16981: a2 = a0 + 0x200\n 16985: u64 [a2 + 0x68] = a1\n 16988: a1 = u64 [s1 + 0xb0]\n 16992: u64 [a2 + 0x70] = a1\n 16995: a1 = u64 [s1 + 0xb8]\n 16999: u64 [a2 + 0x78] = a1\n 17002: a1 = s1 + 0x2380\n 17006: a4 = u64 [s1 + 0xf0]\n 17010: u64 [a2 + 0x80] = a4\n 17014: a0 = a5\n 17016: ra = 644, jump @24\n      : @631 [@dyn 322] (gas: 10)\n 17022: a0 = u64 [s1 + 0x188]\n 17026: a3 = u64 [s1 + 0x180]\n 17030: a0 = a0 | a3\n 17033: a4 = 0xffffffe0\n 17043: a5 = u64 [s1 + 0x160]\n 17047: a1 = a5 <u a4\n 17050: a2 = u64 [s1 + 0x168]\n 17054: a1 = 0 if a2 != 0\n 17056: a1 = 0 if a0 != 0\n 17058: jump @633 if a1 != 0\n      : @632 (gas: 1)\n 17061: jump @781\n      : @633 (gas: 8)\n 17064: a0 = i32 [s1 + 0x120]\n 17068: u64 [s1 + 0x88] = a0\n 17072: a1 = u64 [s1 + 0xc0]\n 17076: i32 a0 = a1 + 0\n 17078: u64 [s1 + 0x90] = a0\n 17082: i32 a0 = a5 + 0x20\n 17085: u64 [s1 + 0x158] = a4\n 17089: ra = 646, jump @37\n      : @634 [@dyn 323] (gas: 5)\n 17095: i32 a0 = a0 + 0\n 17097: a1 = u64 [s1 + 0x90]\n 17101: a2 = u64 [s1 + 0x88]\n 17105: ecalli 1 // 'call_data_copy'\n 17107: fallthrough\n      : @635 (gas: 28)\n 17108: a4 = u64 [s1 + 0x168]\n 17112: t0 = u64 [s1 + 0xc0]\n 17116: a0 = u64 [s1 + 0x160]\n 17120: t0 = t0 + a0\n 17123: a1 = t0 <u a0\n 17126: a2 = u64 [s1 + 0xb0]\n 17130: a2 = a2 + a4\n 17133: a2 = a2 + a1\n 17136: a3 = a2 ^ a4\n 17139: a4 = a2 <u a4\n 17142: a4 = a1 if a3 == 0\n 17145: a1 = u64 [s1 + 0xb8]\n 17149: a0 = u64 [s1 + 0x180]\n 17153: a1 = a1 + a0\n 17156: a3 = a1 <u a0\n 17159: a5 = u64 [s1 + 0x188]\n 17163: a0 = u64 [s1 + 0xf0]\n 17167: a5 = a5 + a0\n 17170: a3 = a3 + a5\n 17173: a4 = a4 + a1\n 17176: a1 = a4 <u a1\n 17179: a1 = a1 + a3\n 17182: a1 = a1 | a4\n 17185: a0 = u64 [s1 + 0x158]\n 17189: a3 = t0 <u a0\n 17192: a3 = 0 if a2 != 0\n 17194: a3 = 0 if a1 != 0\n 17196: jump @637 if a3 != 0\n      : @636 (gas: 1)\n 17199: jump @781\n      : @637 (gas: 8)\n 17202: i32 a0 = t0 + 0x20\n 17205: a2 = s1 + 0x2118\n 17209: u64 [a2 + 608] = 0\n 17213: u64 [a2 + 600] = 0\n 17217: u64 [a2 + 592] = 0\n 17221: a1 = s1 + 0x2360\n 17225: u64 [a2 + 584] = 0\n 17229: ra = 648, jump @24\n      : @638 [@dyn 324] (gas: 10)\n 17235: a3 = 0x100000000\n 17245: a0 = 0xffffffc0\n 17255: a4 = s1 + 0x100\n 17259: a1 = u64 [a4 + 0x90]\n 17263: a0 = a1 <u a0\n 17266: a2 = u64 [a4 + 0x98]\n 17270: a0 = 0 if a2 != 0\n 17272: a2 = u64 [a4 + 0x78]\n 17275: a0 = 0 if a2 != 0\n 17277: jump @640 if a0 != 0\n      : @639 (gas: 1)\n 17280: jump @781\n      : @640 (gas: 16)\n 17283: i32 a0 = a1 + 0x40\n 17286: a1 = s1 + 0x2118\n 17290: u64 [s1 + 0x158] = a3\n 17294: a3 = a1\n 17296: a1 = u64 [s1 + 0x160]\n 17300: a4 = a3 + 0x200\n 17304: u64 [a4 + 0x28] = a1\n 17307: a1 = u64 [s1 + 0x168]\n 17311: u64 [a4 + 0x30] = a1\n 17314: a1 = u64 [s1 + 0x180]\n 17318: u64 [a4 + 0x38] = a1\n 17321: a1 = s1 + 0x2340\n 17325: a2 = u64 [s1 + 0x188]\n 17329: u64 [a4 + 0x40] = a2\n 17332: u64 [s1 + 0x188] = a0\n 17336: ra = 650, jump @24\n      : @641 [@dyn 325] (gas: 10)\n 17342: a4 = s1 + 0x100\n 17346: a2 = u64 [a4 + 0x78]\n 17349: a3 = u64 [a4 + 0x98]\n 17353: a1 = u64 [a4 + 0x90]\n 17357: a0 = u64 [a4 + 0x58]\n 17360: a0 = a0 + 0xffffffffffffffa0\n 17363: a0 = a1 <u a0\n 17366: a0 = 0 if a3 != 0\n 17368: a0 = 0 if a2 != 0\n 17370: jump @643 if a0 != 0\n      : @642 (gas: 1)\n 17373: jump @781\n      : @643 (gas: 10)\n 17376: i32 a0 = a1 + 0x60\n 17379: a4 = s1 + 0x2118\n 17383: u64 [a4 + 544] = 0\n 17387: u64 [a4 + 536] = 0\n 17391: u64 [a4 + 528] = 0\n 17395: a1 = s1 + 0x2320\n 17399: a2 = u64 [s1 + 0x170]\n 17403: u64 [a4 + 0x208] = a2\n 17407: u64 [s1 + 0x78] = a0\n 17410: ra = 652, jump @24\n      : @644 [@dyn 326] (gas: 9)\n 17416: a3 = s1 + 0x100\n 17420: a1 = u64 [a3 + 0x90]\n 17424: a0 = 0xffffff80\n 17434: a0 = a1 <u a0\n 17437: a2 = u64 [a3 + 0x98]\n 17441: a0 = 0 if a2 != 0\n 17443: a2 = u64 [a3 + 0x78]\n 17446: a0 = 0 if a2 != 0\n 17448: jump @646 if a0 != 0\n      : @645 (gas: 1)\n 17451: jump @781\n      : @646 (gas: 9)\n 17454: i32 a0 = a1 + 0x80\n 17458: a2 = s1 + 0x2118\n 17462: u64 [a2 + 512] = 0\n 17466: u64 [a2 + 504] = 0\n 17470: u64 [a2 + 496] = 0\n 17474: a1 = s1 + 0x2300\n 17478: u64 [a2 + 488] = 0\n 17482: u64 [s1 + 0x28] = a0\n 17485: ra = 654, jump @24\n      : @647 [@dyn 327] (gas: 6)\n 17491: a0 = u64 [s1 + 0xc8]\n 17495: ra = 0x290\n 17499: ecalli 4 // 'caller'\n 17501: a2 = u64 [s1 + 0xe8]\n 17505: t0 = 0x292\n 17509: jump @1504\n      : @648 [@dyn 328] (gas: 2)\n 17512: a2 = u64 [s1 + 0xe8]\n 17516: t0 = 658, jump @1504\n      : @649 [@dyn 329] (gas: 8)\n 17522: u64 [a2 + 480] = 0\n 17526: a4 = a2 + 0x100\n 17530: u64 [a4 + 0xd8] = a1\n 17534: u64 [a4 + 0xd0] = a0\n 17538: a1 = s1 + 0x22e0\n 17542: u64 [a4 + 0xc8] = a3\n 17546: a0 = 0\n 17548: ra = 660, jump @24\n      : @650 [@dyn 330] (gas: 9)\n 17554: a1 = s1 + 0x2118\n 17558: u64 [a1 + 448] = 0\n 17562: u64 [a1 + 440] = 0\n 17566: u64 [a1 + 424] = 0x2\n 17571: a2 = a1\n 17573: a0 = 0x20\n 17576: a1 = s1 + 0x22c0\n 17580: u64 [a2 + 432] = 0\n 17584: ra = 662, jump @24\n      : @651 [@dyn 331] (gas: 3)\n 17590: a1 = u64 [s1 + 0xa8]\n 17594: a0 = i32 [a1]\n 17596: jump @653 if a0 >u 63\n      : @652 (gas: 2)\n 17600: u32 [a1 + 0] = 0x40\n 17603: fallthrough\n      : @653 (gas: 14)\n 17604: a0 = 0xffffffff00000000\n 17614: u64 [s1 + 0x70] = a0\n 17617: a0 = sp + 0xffffffffffffffe0\n 17620: a0 = a0 & 0xffffffffffffffe0\n 17623: u64 [s1 + 0x198] = a0\n 17627: sp = a0\n 17629: i32 a2 = a0 + 0\n 17631: a1 = 0x40\n 17634: a0 = u64 [s1 + 0xa0]\n 17638: ra = 0x298\n 17642: ecalli 8 // 'hash_keccak_256'\n 17644: a3 = u64 [s1 + 0x198]\n 17648: t0 = 0x29a\n 17652: jump @1562\n      : @654 [@dyn 332] (gas: 2)\n 17655: a3 = u64 [s1 + 0x198]\n 17659: t0 = 666, jump @1562\n      : @655 [@dyn 333] (gas: 6)\n 17665: u64 [s1 + 0x178] = a0\n 17669: a0 = reverse a2\n 17671: u64 [s1 + 0x170] = a0\n 17675: a0 = reverse a3\n 17677: u64 [s1 + 0x168] = a0\n 17681: t0 = 668, jump @1549\n      : @656 [@dyn 334] (gas: 12)\n 17687: a2 = s1 + 0x2118\n 17691: u64 [a2 + 416] = 0\n 17695: a0 = u64 [s1 + 0x108]\n 17699: a3 = a2 + 0x100\n 17703: u64 [a3 + 0x98] = a0\n 17707: a0 = u64 [s1 + 0xf8]\n 17711: u64 [a3 + 0x90] = a0\n 17715: a1 = s1 + 0x22a0\n 17719: a0 = u64 [s1 + 0x100]\n 17723: u64 [a3 + 0x88] = a0\n 17727: a0 = 0\n 17729: ra = 670, jump @24\n      : @657 [@dyn 335] (gas: 15)\n 17735: a4 = s1 + 0x100\n 17739: a0 = u64 [a4 + 0x68]\n 17742: a1 = s1 + 0x2118\n 17746: a2 = a1 + 0x100\n 17750: u64 [a2 + 0x80] = a0\n 17754: a0 = u64 [a4 + 0x70]\n 17757: u64 [a2 + 0x78] = a0\n 17760: a0 = u64 [a4 + 0x78]\n 17763: u64 [a2 + 0x70] = a0\n 17766: a3 = a1\n 17768: a0 = 0x20\n 17771: a1 = s1 + 0x2280\n 17775: a2 = u64 [a4 + 0x80]\n 17779: u64 [a3 + 0x168] = a2\n 17783: ra = 672, jump @24\n      : @658 [@dyn 336] (gas: 3)\n 17789: a1 = u64 [s1 + 0xa8]\n 17793: a0 = i32 [a1]\n 17795: jump @660 if a0 >u 63\n      : @659 (gas: 2)\n 17799: u32 [a1 + 0] = 0x40\n 17802: fallthrough\n      : @660 (gas: 29)\n 17803: a0 = sp + 0xffffffffffffffe0\n 17806: a0 = a0 & 0xffffffffffffffe0\n 17809: u64 [s1 + 0x180] = a0\n 17813: sp = a0\n 17815: i32 a2 = a0 + 0\n 17817: a1 = 0x40\n 17820: a0 = u64 [s1 + 0xa0]\n 17824: ecalli 8 // 'hash_keccak_256'\n 17826: a3 = u64 [s1 + 0x180]\n 17830: a0 = u64 [a3 + 0x18]\n 17833: a1 = u64 [a3 + 0x10]\n 17836: a2 = u64 [a3 + 0x8]\n 17839: a3 = u64 [a3]\n 17841: a5 = reverse a0\n 17843: u64 [s1 + 0x50] = a5\n 17846: a4 = reverse a1\n 17848: u64 [s1 + 0x58] = a4\n 17851: a1 = reverse a2\n 17853: u64 [s1 + 0x68] = a1\n 17856: a0 = reverse a3\n 17858: u64 [s1 + 0x60] = a0\n 17861: a2 = u64 [s1 + 0x198]\n 17865: u64 [a2 + 0x18] = a0\n 17868: u64 [a2 + 0x10] = a1\n 17871: u64 [a2 + 0x8] = a4\n 17874: u64 [a2] = a5\n 17876: a0 = s1 + 0x2260\n 17880: a1 = u64 [s1 + 0x190]\n 17884: ra = 674, jump @22\n      : @661 [@dyn 337] (gas: 8)\n 17890: a0 = s1 + 0x2118\n 17894: a0 = u64 [a0 + 0x148]\n 17898: a1 = u64 [s1 + 0xe0]\n 17902: a0 = a0 & a1\n 17905: u64 [s1 + 0x190] = a0\n 17909: a0 = s1 + 0x2240\n 17913: a1 = u64 [s1 + 0x198]\n 17917: ra = 676, jump @26\n      : @662 [@dyn 338] (gas: 7)\n 17923: a3 = s1 + 0x2118\n 17927: a4 = a3 + 0x100\n 17931: a0 = u64 [a4 + 0x30]\n 17934: a1 = u64 [a4 + 0x38]\n 17937: a2 = u64 [a4 + 0x40]\n 17940: a3 = u64 [a4 + 0x28]\n 17943: t0 = 678, jump @1545\n      : @663 [@dyn 339] (gas: 8)\n 17949: u64 [a4 + 0x500] = a2\n 17953: a2 = a4 + 0x400\n 17957: u64 [a2 + 0xf8] = a1\n 17961: u64 [a2 + 0xf0] = a0\n 17965: u64 [a2 + 0xe8] = a3\n 17969: a1 = s1 + 0x2e00\n 17973: a0 = u64 [s1 + 0x198]\n 17977: ra = 680, jump @28\n      : @664 [@dyn 340] (gas: 3)\n 17983: a0 = s1 + 0x2220\n 17987: a1 = u64 [s1 + 0x138]\n 17991: ra = 682, jump @22\n      : @665 [@dyn 341] (gas: 11)\n 17997: a0 = s1 + 0x2118\n 18001: a2 = a0 + 0x100\n 18005: a1 = u64 [a2 + 0x18]\n 18008: u64 [s1 + 0x190] = a1\n 18012: a1 = u64 [a2 + 0x10]\n 18015: u64 [s1 + 0x180] = a1\n 18019: a1 = u64 [a2 + 0x8]\n 18022: u64 [s1 + 0x178] = a1\n 18026: a0 = s1 + 0x2200\n 18030: a1 = u64 [s1 + 0x198]\n 18034: ra = 684, jump @26\n      : @666 [@dyn 342] (gas: 23)\n 18040: a1 = s1 + 0x2118\n 18044: a0 = u64 [a1 + 0x100]\n 18048: a1 = u32 [a1 + 0xe8]\n 18052: a5 = u64 [s1 + 0x178]\n 18056: a2 = a5 >> 0x20\n 18059: a4 = u64 [s1 + 0x180]\n 18063: a3 = a4 << 0x20\n 18066: a2 = a2 | a3\n 18069: a3 = a4 >> 0x20\n 18072: a4 = u64 [s1 + 0x190]\n 18076: a4 = a4 << 0x20\n 18079: a3 = a3 | a4\n 18082: a4 = a5 << 0x20\n 18085: a1 = a1 | a4\n 18088: a4 = s1 + 0x2918\n 18092: a5 = a4 + 0x500\n 18096: u64 [a5 + 0x18] = a3\n 18099: u64 [a5 + 0x10] = a2\n 18102: u64 [a5 + 0x20] = a0\n 18105: u64 [a5 + 0x8] = a1\n 18108: a1 = s1 + 0x2e20\n 18112: a0 = u64 [s1 + 0x198]\n 18116: ra = 686, jump @28\n      : @667 [@dyn 343] (gas: 27)\n 18122: a0 = sp + 0xffffffffffffffe0\n 18125: a1 = a0 & 0xffffffffffffffe0\n 18128: sp = a1\n 18130: a2 = u64 [s1 + 0x50]\n 18133: a2 = a2 + 0x1\n 18136: a0 = a2 <u 0x1\n 18139: a3 = u64 [s1 + 0x58]\n 18142: a3 = a3 + a0\n 18145: a0 = a2 | a3\n 18148: a0 = a0 <u 0x1\n 18151: a5 = u64 [s1 + 0x68]\n 18154: a4 = a5 + a0\n 18157: a0 = a4 <u a5\n 18160: a5 = u64 [s1 + 0x60]\n 18163: a0 = a0 + a5\n 18166: u64 [s1 + 0x148] = a0\n 18170: u64 [a1 + 0x18] = a0\n 18173: u64 [s1 + 0x138] = a4\n 18177: u64 [a1 + 0x10] = a4\n 18180: u64 [s1 + 0x140] = a3\n 18184: u64 [a1 + 0x8] = a3\n 18187: u64 [s1 + 0x40] = a1\n 18190: u64 [s1 + 0x150] = a2\n 18194: u64 [a1] = a2\n 18196: a0 = s1 + 0x21e0\n 18200: a1 = u64 [s1 + 0x188]\n 18204: ra = 688, jump @22\n      : @668 [@dyn 344] (gas: 17)\n 18210: a0 = s1 + 0x2118\n 18214: a3 = u64 [a0 + 0xe0]\n 18218: a4 = u64 [a0 + 0xd8]\n 18222: a2 = u64 [a0 + 0xd0]\n 18226: a1 = u64 [a0 + 0xc8]\n 18230: a5 = s1 + 0x100\n 18234: u64 [a5 + 0x30] = a2\n 18237: u64 [a5 + 0x28] = a3\n 18240: a0 = a2 | a3\n 18243: a2 = a1 | a4\n 18246: a2 = a2 | a0\n 18249: a2 = a2 >> 0x20\n 18252: u64 [a5 + 0x20] = a4\n 18255: a0 = a0 | a4\n 18258: a0 = a0 << 0x20\n 18261: a0 = a0 | a2\n 18264: jump @670 if a0 == 0\n      : @669 (gas: 1)\n 18267: jump @781\n      : @670 (gas: 3)\n 18270: a0 = s1 + 0x21c0\n 18274: u64 [s1 + 0x118] = a1\n 18278: ra = 690, jump @22\n      : @671 [@dyn 345] (gas: 17)\n 18284: a2 = s1 + 0x2118\n 18288: a4 = u64 [a2 + 0xc0]\n 18292: a3 = u64 [a2 + 0xb8]\n 18296: a1 = u64 [a2 + 0xb0]\n 18300: a0 = a4 >u 0\n 18302: a5 = a3 >u 0\n 18304: a5 = a0 if a4 != 0\n 18307: u64 [s1 + 0x48] = a1\n 18310: a0 = a1 >u 0\n 18312: u64 [s1 + 0x38] = a3\n 18315: u64 [s1 + 0x30] = a4\n 18318: a3 = a3 | a4\n 18321: u64 [s1 + 0x10] = a0\n 18324: u64 [s1 + 0x18] = a5\n 18327: u64 [s1 + 0x110] = a3\n 18331: a0 = a5 if a3 != 0\n 18334: jump @673 if a0 == 0\n      : @672 (gas: 1)\n 18337: jump @883\n      : @673 (gas: 5)\n 18340: a0 = u64 [a2 + 0xa8]\n 18344: u64 [s1 + 0x80] = a0\n 18348: a0 = s1 + 0x21a0\n 18352: a1 = u64 [s1 + 0x40]\n 18355: ra = 692, jump @26\n      : @674 [@dyn 346] (gas: 12)\n 18361: a4 = s1 + 0x2118\n 18365: a2 = u64 [a4 + 0x88]\n 18369: a0 = u64 [a4 + 0x90]\n 18373: a1 = u64 [a4 + 0x98]\n 18377: a3 = u64 [a4 + 0xa0]\n 18381: u64 [a4 + 0x60] = a3\n 18384: u64 [a4 + 0x58] = a1\n 18387: u64 [a4 + 0x50] = a0\n 18390: a0 = s1 + 0x2180\n 18394: a1 = s1 + 0x2160\n 18398: u64 [a4 + 0x48] = a2\n 18401: ra = 694, jump @1340\n      : @675 [@dyn 347] (gas: 22)\n 18407: a0 = s1 + 0x2118\n 18411: a3 = u64 [a0 + 0x80]\n 18415: a4 = u64 [a0 + 0x78]\n 18418: a5 = u64 [a0 + 0x70]\n 18421: a2 = u64 [a0 + 0x68]\n 18424: a0 = a3 >u 0\n 18426: a1 = a4 >u 0\n 18428: a1 = a0 if a3 != 0\n 18431: a0 = a5 >u 0\n 18433: u64 [s1 + 0x178] = a2\n 18437: a2 = a2 <u 0x20\n 18440: a2 = a2 ^ 0x1\n 18443: u64 [s1 + 0x180] = a5\n 18447: a2 = a0 if a5 != 0\n 18450: u64 [s1 + 0x188] = a3\n 18454: u64 [s1 + 0x190] = a4\n 18458: a0 = a4 | a3\n 18461: a2 = a1 if a0 != 0\n 18464: a0 = u64 [s1 + 0x80]\n 18468: a0 = a0 <u 0x20\n 18471: u64 [s1 + 0x20] = a0\n 18474: jump @712 if a2 == 0\n      : @676 (gas: 13)\n 18478: a0 = s1 + 0x2118\n 18482: a3 = s1 + 0x100\n 18486: a1 = u64 [a3 + 0x50]\n 18489: u64 [a0 + 0x28] = a1\n 18492: a1 = u64 [a3 + 0x40]\n 18495: u64 [a0 + 0x30] = a1\n 18498: a1 = u64 [a3 + 0x38]\n 18501: u64 [a0 + 0x38] = a1\n 18504: a1 = s1 + 0x2140\n 18508: a2 = u64 [a3 + 0x48]\n 18511: u64 [a0 + 0x40] = a2\n 18514: a0 = 0\n 18516: ra = 696, jump @24\n      : @677 [@dyn 348] (gas: 3)\n 18522: a0 = u64 [s1 + 0xa8]\n 18526: a0 = i32 [a0]\n 18528: jump @679 if a0 >u 31\n      : @678 (gas: 3)\n 18532: a1 = u64 [s1 + 0xa8]\n 18536: u32 [a1 + 0] = 0x20\n 18539: fallthrough\n      : @679 (gas: 117)\n 18540: a0 = sp + 0xffffffffffffffe0\n 18543: a0 = a0 & 0xffffffffffffffe0\n 18546: u64 [s1 + 0x168] = a0\n 18550: sp = a0\n 18552: i32 a2 = a0 + 0\n 18554: a1 = 0x20\n 18557: a0 = u64 [s1 + 0xa0]\n 18561: ecalli 8 // 'hash_keccak_256'\n 18563: a0 = u64 [s1 + 0x80]\n 18567: a1 = a0 + 0x1f\n 18570: a0 = a1 <u a0\n 18573: a5 = u64 [s1 + 0x48]\n 18576: a2 = a5 + a0\n 18579: a3 = a2 <u a5\n 18582: a3 = a0 if a0 == 0\n 18585: a4 = u64 [s1 + 0x38]\n 18588: a3 = a3 + a4\n 18591: u64 [s1 + 0x160] = a3\n 18595: a3 = a3 << 0x3b\n 18598: a4 = a2 >> 0x5\n 18601: a4 = a4 | a3\n 18604: a0 = u64 [s1 + 0x168]\n 18608: t1 = u64 [a0 + 0x18]\n 18611: a2 = a2 << 0x3b\n 18614: a3 = u64 [a0 + 0x10]\n 18617: a1 = a1 >> 0x5\n 18620: a0 = a1 | a2\n 18623: t2 = reverse t1\n 18625: a2 = reverse a3\n 18627: a1 = u64 [s1 + 0x20]\n 18630: a1 = 0 if a5 != 0\n 18632: a3 = u64 [s1 + 0x110]\n 18636: a1 = 0 if a3 != 0\n 18638: a4 = 0 if a1 != 0\n 18640: a0 = 0 if a1 != 0\n 18642: t0 = t2 + a0\n 18645: a0 = t0 <u t2\n 18648: a5 = a2 + a0\n 18651: a4 = a4 + a5\n 18654: u64 [s1 + 0x198] = a4\n 18658: a5 = a4 ^ a2\n 18661: a3 = a4 <u a2\n 18664: a3 = a0 if a5 == 0\n 18667: u64 [s1 + 0x158] = a3\n 18671: a0 = u64 [s1 + 0x178]\n 18675: ra = a0 + 0x1f\n 18678: a4 = ra <u a0\n 18681: a3 = u64 [s1 + 0x180]\n 18685: a0 = a3 + a4\n 18688: a5 = a0 <u a3\n 18691: a5 = a4 if a4 == 0\n 18694: t1 = u64 [s1 + 0x190]\n 18698: t1 = t1 + a5\n 18701: a4 = t1 << 0x3b\n 18704: a3 = a0 >> 0x5\n 18707: a3 = a3 | a4\n 18710: a0 = a0 << 0x3b\n 18713: a4 = ra >> 0x5\n 18716: a0 = a0 | a4\n 18719: a0 = a0 + t2\n 18722: u64 [s1 + 0x178] = a0\n 18726: a0 = a0 <u t2\n 18729: t2 = t0\n 18731: a4 = a2 + a0\n 18734: a4 = a4 + a3\n 18737: a3 = a4 ^ a2\n 18740: u64 [s1 + 0x170] = a4\n 18744: a2 = a4 <u a2\n 18747: a2 = a0 if a3 == 0\n 18750: a4 = u64 [s1 + 0x160]\n 18754: a0 = u64 [s1 + 0x38]\n 18757: a0 = a4 <u a0\n 18760: a3 = u64 [s1 + 0x30]\n 18763: a0 = a0 + a3\n 18766: a3 = a4 >> 0x5\n 18769: a4 = a0 << 0x3b\n 18772: a3 = a3 | a4\n 18775: a4 = u64 [s1 + 0x168]\n 18779: t0 = u64 [a4]\n 18781: a4 = u64 [a4 + 0x8]\n 18784: a0 = a0 >> 0x5\n 18787: a3 = 0 if a1 != 0\n 18789: a0 = 0 if a1 != 0\n 18791: a1 = reverse a4\n 18793: a4 = reverse t0\n 18795: a0 = a0 + a4\n 18798: a3 = a3 + a1\n 18801: a5 = a3 <u a1\n 18804: a0 = a0 + a5\n 18807: ra = u64 [s1 + 0x158]\n 18811: ra = ra + a3\n 18814: a3 = ra <u a3\n 18817: t0 = a0 + a3\n 18820: a0 = u64 [s1 + 0x190]\n 18824: a0 = t1 <u a0\n 18827: a3 = u64 [s1 + 0x188]\n 18831: a0 = a0 + a3\n 18834: a3 = t1 >> 0x5\n 18837: a5 = a0 << 0x3b\n 18840: a3 = a3 | a5\n 18843: a0 = a0 >> 0x5\n 18846: a0 = a0 + a4\n 18849: a5 = s1 + 0x100\n 18853: a4 = u64 [a5 + 0x98]\n 18857: a3 = a3 + a1\n 18860: a1 = a3 <u a1\n 18863: a0 = a0 + a1\n 18866: a2 = a2 + a3\n 18869: u64 [a5 + 0x68] = a2\n 18872: a1 = a2 <u a3\n 18875: a0 = a0 + a1\n 18878: u64 [a5 + 0x60] = a0\n 18881: a0 = sp + 0xffffffffffffffe0\n 18884: t1 = a0 & 0xffffffffffffffe0\n 18887: sp = t1\n 18889: u64 [s1 + 0x158] = t1\n 18893: fallthrough\n      : @680 (gas: 24)\n 18894: a0 = u64 [s1 + 0x178]\n 18898: a0 = t2 <u a0\n 18901: a2 = u64 [s1 + 0x170]\n 18905: a1 = a4 ^ a2\n 18908: a2 = a4 <u a2\n 18911: a2 = a0 if a1 == 0\n 18914: a5 = u64 [s1 + 0x168]\n 18918: a0 = ra <u a5\n 18921: a3 = u64 [s1 + 0x160]\n 18925: a1 = t0 ^ a3\n 18928: a3 = t0 <u a3\n 18931: a3 = a0 if a1 == 0\n 18934: a0 = ra ^ a5\n 18937: a0 = a0 | a1\n 18940: a3 = a2 if a0 == 0\n 18943: u64 [s1 + 0x190] = t2\n 18947: u64 [t1] = t2\n 18949: u64 [s1 + 0x198] = a4\n 18953: u64 [t1 + 0x8] = a4\n 18956: u64 [s1 + 0x180] = ra\n 18960: u64 [t1 + 0x10] = ra\n 18963: u64 [s1 + 0x188] = t0\n 18967: u64 [t1 + 0x18] = t0\n 18970: jump @712 if a3 == 0\n      : @681 (gas: 8)\n 18974: a0 = s1 + 0x2918\n 18978: u64 [a0 + 1344] = 0\n 18982: u64 [a0 + 1336] = 0\n 18986: u64 [a0 + 1328] = 0\n 18990: u64 [a0 + 1320] = 0\n 18994: a1 = s1 + 0x2e40\n 18998: a0 = t1\n 19000: ra = 698, jump @28\n      : @682 [@dyn 349] (gas: 15)\n 19006: t1 = u64 [s1 + 0x158]\n 19010: t2 = u64 [s1 + 0x190]\n 19014: t2 = t2 + 0x1\n 19017: a0 = t2 <u 0x1\n 19020: a4 = u64 [s1 + 0x198]\n 19024: a4 = a4 + a0\n 19027: a0 = t2 | a4\n 19030: a0 = a0 <u 0x1\n 19033: a1 = u64 [s1 + 0x180]\n 19037: a0 = a0 + a1\n 19040: a1 = a0 <u a1\n 19043: t0 = u64 [s1 + 0x188]\n 19047: t0 = t0 + a1\n 19050: ra = a0\n 19052: jump @680\n      : @683 (gas: 2)\n 19055: a5 = s1 + 0x1118\n 19059: fallthrough\n      : @684 (gas: 26)\n 19060: a1 = u64 [s1 + 0x198]\n 19064: a0 = a1 + 0x20\n 19067: a1 = a0 <u a1\n 19070: a2 = t2 + a1\n 19073: a3 = a2 <u t2\n 19076: a3 = a1 if a1 == 0\n 19079: a3 = a3 + t1\n 19082: a1 = a3 <u t1\n 19085: a4 = u64 [s1 + 0x190]\n 19089: a4 = a4 + a1\n 19092: a1 = u64 [s1 + 0x108]\n 19096: u64 [a5 + 0x408] = a1\n 19100: a1 = a5 + 0x300\n 19104: u64 [a1 + 0xe8] = a0\n 19108: a0 = u64 [s1 + 0x100]\n 19112: u64 [a5 + 0x410] = a0\n 19116: a0 = u64 [s1 + 0xf8]\n 19120: u64 [a5 + 0x418] = a0\n 19124: u64 [a1 + 0xf0] = a2\n 19128: a0 = u64 [s1 + 0x110]\n 19132: u64 [a5 + 0x420] = a0\n 19136: u64 [a1 + 0xf8] = a3\n 19140: a0 = s1 + 0x1520\n 19144: a1 = s1 + 0x1500\n 19148: u64 [a5 + 0x400] = a4\n 19152: ra = 700, jump @1349\n      : @685 [@dyn 350] (gas: 5)\n 19158: a1 = u64 [s1 + 0xd8]\n 19162: a0 = a1 + 0x2\n 19165: a1 = a0 <u a1\n 19168: a3 = u64 [s1 + 0xe0]\n 19172: t0 = 702, jump @1540\n      : @686 [@dyn 351] (gas: 14)\n 19178: a1 = u64 [s1 + 0xf0]\n 19182: a3 = a3 + a1\n 19185: a1 = a3 <u a1\n 19188: a4 = u64 [s1 + 0xe8]\n 19192: a1 = a1 + a4\n 19195: a4 = s1 + 0x2918\n 19199: a5 = a4 + 0x300\n 19203: u64 [a5 + 0x40] = a1\n 19206: u64 [a5 + 0x38] = a3\n 19209: u64 [a5 + 0x30] = a2\n 19212: u64 [a5 + 0x28] = a0\n 19215: a0 = s1 + 0x14e0\n 19219: a1 = s1 + 0x2c40\n 19223: ra = 704, jump @26\n      : @687 [@dyn 352] (gas: 3)\n 19229: t0 = 0x2c2\n 19233: a1 = s1 + 0x1118\n 19237: fallthrough\n      : @688 [@dyn 353] (gas: 7)\n 19238: a0 = u64 [a1 + 0x3d0]\n 19242: u64 [s1 + 0x178] = a0\n 19246: a0 = u64 [a1 + 0x3c8]\n 19250: u64 [s1 + 0x170] = a0\n 19254: a0 = s1 + 0x14c0\n 19258: a1 = 0x40\n 19261: ra = 708, jump @22\n      : @689 [@dyn 354] (gas: 14)\n 19267: a4 = s1 + 0x1118\n 19271: t0 = u64 [a4 + 0x3c0]\n 19275: a1 = a4 + 0x300\n 19279: a3 = u64 [a1 + 0xb8]\n 19283: a5 = u64 [a1 + 0xb0]\n 19287: a0 = u64 [a1 + 0xa8]\n 19291: a2 = a5 | t0\n 19294: a1 = a0 | a3\n 19297: a1 = a1 | a2\n 19300: a1 = a1 >> 0x20\n 19303: a2 = a2 | a3\n 19306: a2 = a2 << 0x20\n 19309: a1 = a1 | a2\n 19312: jump @781 if a1 != 0\n      : @690 (gas: 13)\n 19316: a1 = u64 [s1 + 0xd0]\n 19320: a1 = a1 << 0x20\n 19323: u64 [s1 + 0x188] = a3\n 19327: a3 = a1 >> 0x20\n 19330: u64 [a4 + 928] = 0\n 19334: u64 [a4 + 920] = 0\n 19338: u64 [a4 + 912] = 0\n 19342: a1 = s1 + 0x14a0\n 19346: u64 [a4 + 0x388] = a3\n 19350: u64 [s1 + 0x198] = a0\n 19354: u64 [s1 + 0x180] = t0\n 19358: u64 [s1 + 0x190] = a5\n 19362: ra = 710, jump @24\n      : @691 [@dyn 355] (gas: 6)\n 19368: a5 = s1 + 0x100\n 19372: a1 = u64 [a5 + 0x98]\n 19376: a0 = u64 [a5 + 0x88]\n 19380: a2 = u64 [a5 + 0x80]\n 19384: a3 = a0 | a2\n 19387: t0 = 712, jump @1553\n      : @692 [@dyn 356] (gas: 1)\n 19393: jump @781 if a0 == 0\n      : @693 (gas: 24)\n 19397: t0 = 0xffffffff\n 19407: a2 = u64 [s1 + 0xd0]\n 19411: a2 = a2 >> 0x20\n 19414: u64 [s1 + 0x160] = a4\n 19418: a4 = u64 [s1 + 0xc0]\n 19422: u64 [s1 + 0x168] = a3\n 19426: a3 = a4 << 0x20\n 19429: a2 = a2 | a3\n 19432: a3 = a4 >> 0x20\n 19435: a5 = u64 [s1 + 0xc8]\n 19439: a4 = a5 << 0x20\n 19442: a3 = a3 | a4\n 19445: a4 = a5 >> 0x20\n 19448: a3 = a3 & 0xffffffffffffffff\n 19451: a2 = a2 & 0xffffffffffffffff\n 19454: a4 = a4 & t0\n 19457: i32 a0 = a1 + 0x20\n 19460: a5 = s1 + 0x1118\n 19464: u64 [a5 + 896] = 0\n 19468: u64 [a5 + 0x378] = a4\n 19472: u64 [a5 + 0x368] = a2\n 19476: a1 = s1 + 0x1480\n 19480: u64 [a5 + 0x370] = a3\n 19484: ra = 714, jump @24\n      : @694 [@dyn 357] (gas: 10)\n 19490: a3 = s1 + 0x100\n 19494: a1 = u64 [a3 + 0x98]\n 19498: a0 = u64 [a3 + 0x60]\n 19501: a0 = a0 + 0xffffffffffffffc0\n 19504: a0 = a1 <u a0\n 19507: a2 = u64 [a3 + 0x90]\n 19511: a0 = 0 if a2 != 0\n 19513: a2 = u64 [a3 + 0x68]\n 19516: a0 = 0 if a2 != 0\n 19518: jump @781 if a0 == 0\n      : @695 (gas: 8)\n 19522: i32 a0 = a1 + 0x40\n 19525: a2 = s1 + 0x1118\n 19529: u64 [a2 + 864] = 0\n 19533: u64 [a2 + 856] = 0\n 19537: u64 [a2 + 840] = 0xa0\n 19543: a1 = s1 + 0x1460\n 19547: u64 [a2 + 848] = 0\n 19551: ra = 716, jump @24\n      : @696 [@dyn 358] (gas: 3)\n 19557: a0 = s1 + 0x1440\n 19561: a1 = u64 [s1 + 0x108]\n 19565: ra = 718, jump @22\n      : @697 [@dyn 359] (gas: 10)\n 19571: a5 = s1 + 0x100\n 19575: a3 = u64 [a5 + 0x68]\n 19578: a1 = u64 [a5 + 0x98]\n 19582: a4 = 0x100000000\n 19592: a0 = 0xffffff60\n 19602: a0 = a1 <u a0\n 19605: a2 = u64 [a5 + 0x90]\n 19609: a0 = 0 if a2 != 0\n 19611: a0 = 0 if a3 != 0\n 19613: jump @781 if a0 == 0\n      : @698 (gas: 18)\n 19617: a0 = s1 + 0x1118\n 19621: u64 [s1 + 0x160] = a4\n 19625: a4 = a0\n 19627: t0 = u64 [a0 + 0x340]\n 19631: t1 = u64 [a0 + 0x338]\n 19635: a5 = u64 [a0 + 0x330]\n 19639: a2 = u64 [a0 + 0x328]\n 19643: i32 a0 = a1 + 0xa0\n 19647: u64 [s1 + 0x158] = a2\n 19651: u64 [a4 + 0x308] = a2\n 19655: u64 [s1 + 0x140] = a5\n 19659: u64 [a4 + 0x310] = a5\n 19663: u64 [s1 + 0x150] = t1\n 19667: u64 [a4 + 0x318] = t1\n 19671: a1 = s1 + 0x1420\n 19675: u64 [s1 + 0x148] = t0\n 19679: u64 [a4 + 0x320] = t0\n 19683: ra = 720, jump @24\n      : @699 [@dyn 360] (gas: 10)\n 19689: a4 = s1 + 0x100\n 19693: a3 = u64 [a4 + 0x90]\n 19697: a2 = u64 [a4 + 0x98]\n 19701: a0 = u64 [a4 + 0x60]\n 19704: a0 = a0 + 0xffffffffffffff40\n 19708: a0 = a2 <u a0\n 19711: a0 = 0 if a3 != 0\n 19713: a1 = u64 [a4 + 0x68]\n 19716: a0 = 0 if a1 != 0\n 19718: jump @781 if a0 == 0\n      : @700 (gas: 8)\n 19722: a0 = 0xffffffe0\n 19732: a1 = u64 [s1 + 0x108]\n 19736: a0 = a1 <u a0\n 19739: a1 = u64 [s1 + 0x100]\n 19743: a0 = 0 if a1 != 0\n 19745: a1 = u64 [s1 + 0xb8]\n 19749: a0 = 0 if a1 != 0\n 19751: jump @781 if a0 == 0\n      : @701 (gas: 12)\n 19755: a1 = u64 [s1 + 0x158]\n 19759: a5 = u64 [s1 + 0x150]\n 19763: a0 = a1 | a5\n 19766: t0 = u64 [s1 + 0x148]\n 19770: t1 = u64 [s1 + 0x140]\n 19774: a4 = t1 | t0\n 19777: a0 = a0 | a4\n 19780: a0 = a0 >> 0x20\n 19783: a4 = a4 | a5\n 19786: a4 = a4 << 0x20\n 19789: a0 = a0 | a4\n 19792: jump @781 if a0 != 0\n      : @702 (gas: 2)\n 19796: i32 a0 = a2 + 0xc0\n 19800: ra = 722, jump @37\n      : @703 [@dyn 361] (gas: 4)\n 19806: u64 [s1 + 0x168] = a0\n 19810: a0 = u64 [s1 + 0x138]\n 19814: a1 = u64 [s1 + 0x158]\n 19818: ra = 724, jump @37\n      : @704 [@dyn 362] (gas: 4)\n 19824: a1 = a0\n 19826: a0 = u64 [s1 + 0x168]\n 19830: a2 = u64 [s1 + 0x158]\n 19834: ra = 726, jump @0\n      : @705 [@dyn 363] (gas: 29)\n 19840: a1 = u64 [s1 + 0x158]\n 19844: a0 = u64 [s1 + 0x198]\n 19848: a0 = a0 + a1\n 19851: a2 = a0 <u a1\n 19854: a4 = u64 [s1 + 0x140]\n 19858: a1 = u64 [s1 + 0x190]\n 19862: a1 = a1 + a4\n 19865: a1 = a1 + a2\n 19868: a3 = a1 ^ a4\n 19871: a4 = a1 <u a4\n 19874: a4 = a2 if a3 == 0\n 19877: a2 = u64 [s1 + 0x180]\n 19881: a3 = u64 [s1 + 0x148]\n 19885: a2 = a2 + a3\n 19888: a3 = u64 [s1 + 0x188]\n 19892: a5 = u64 [s1 + 0x150]\n 19896: a3 = a3 + a5\n 19899: a4 = a4 + a3\n 19902: a5 = a3 <u a5\n 19905: a3 = a4 <u a3\n 19908: a2 = a2 + a5\n 19911: a2 = a2 + a3\n 19914: a2 = a2 | a4\n 19917: a3 = 0xffffff40\n 19927: u64 [s1 + 0x190] = a3\n 19931: a3 = a0 <u a3\n 19934: a3 = 0 if a1 != 0\n 19936: a3 = 0 if a2 != 0\n 19938: jump @781 if a3 == 0\n      : @706 (gas: 8)\n 19942: i32 a0 = a0 + 0xc0\n 19946: a2 = s1 + 0x1118\n 19950: u64 [a2 + 768] = 0\n 19954: u64 [a2 + 760] = 0\n 19958: u64 [a2 + 752] = 0\n 19962: a1 = s1 + 0x1400\n 19966: u64 [a2 + 744] = 0\n 19970: ra = 728, jump @24\n      : @707 [@dyn 364] (gas: 10)\n 19976: a0 = u64 [s1 + 0x198]\n 19980: i32 a0 = a0 + 0x60\n 19983: a2 = s1 + 0x1118\n 19987: u64 [a2 + 736] = 0\n 19991: u64 [a2 + 728] = 0\n 19995: a1 = u64 [s1 + 0x170]\n 19999: u64 [a2 + 0x2c8] = a1\n 20003: a1 = s1 + 0x13e0\n 20007: u64 [a2 + 720] = 0\n 20011: ra = 730, jump @24\n      : @708 [@dyn 365] (gas: 11)\n 20017: a0 = u8 [s1 + 0x178]\n 20021: a1 = a0 >u 0\n 20023: a0 = u64 [s1 + 0x198]\n 20027: i32 a0 = a0 + 0x80\n 20031: a2 = s1 + 0x1118\n 20035: u64 [a2 + 704] = 0\n 20039: u64 [a2 + 696] = 0\n 20043: u64 [a2 + 0x2a8] = a1\n 20047: a1 = s1 + 0x13c0\n 20051: u64 [a2 + 688] = 0\n 20055: ra = 732, jump @24\n      : @709 [@dyn 366] (gas: 6)\n 20061: a0 = u64 [s1 + 0x158]\n 20065: a0 = a0 + 0x1f\n 20068: a1 = 0x1ffffffe0\n 20078: a0 = a0 & a1\n 20081: a1 = u64 [s1 + 0x190]\n 20085: jump @781 if a0 >=u a1\n      : @710 (gas: 4)\n 20089: i32 a1 = a0 + 0xc0\n 20093: u64 [s1 + 0x190] = a1\n 20097: a0 = u64 [s1 + 0x198]\n 20101: ra = 734, jump @37\n      : @711 [@dyn 367] (gas: 5)\n 20107: i32 a1 = a0 + 0\n 20109: a0 = 0\n 20111: a2 = u64 [s1 + 0x190]\n 20115: ecalli 13 // 'seal_return'\n 20117: fallthrough\n      : @712 (gas: 9)\n 20118: a0 = u64 [s1 + 0x20]\n 20121: a0 = a0 ^ 0x1\n 20124: a1 = u64 [s1 + 0x48]\n 20127: a2 = u64 [s1 + 0x10]\n 20130: a0 = a2 if a1 != 0\n 20133: a1 = u64 [s1 + 0x18]\n 20136: a2 = u64 [s1 + 0x110]\n 20140: a0 = a1 if a2 != 0\n 20143: jump @722 if a0 == 0\n      : @713 (gas: 17)\n 20147: a0 = u64 [s1 + 0x80]\n 20151: a0 = a0 & 0xffffffffffffffe0\n 20154: u64 [s1 + 0x110] = a0\n 20158: a0 = s1 + 0x1918\n 20162: a1 = u64 [s1 + 0x150]\n 20166: a2 = a0 + 0x700\n 20170: u64 [a2 + 0xe8] = a1\n 20174: a1 = u64 [s1 + 0x140]\n 20178: u64 [a2 + 0xf0] = a1\n 20182: a1 = u64 [s1 + 0x138]\n 20186: u64 [a2 + 0xf8] = a1\n 20190: a1 = s1 + 0x2100\n 20194: a0 = s1 + 0x2118\n 20198: a2 = u64 [s1 + 0x148]\n 20202: u64 [a0] = a2\n 20204: a0 = 0\n 20206: ra = 736, jump @24\n      : @714 [@dyn 368] (gas: 1)\n 20212: t0 = 738, jump @1567\n      : @715 [@dyn 369] (gas: 3)\n 20218: a1 = 0x20\n 20221: a0 = 0\n 20223: ra = 740, jump @37\n      : @716 [@dyn 370] (gas: 34)\n 20229: a1 = sp + 0xffffffffffffffe0\n 20232: a1 = a1 & 0xffffffffffffffe0\n 20235: u64 [s1 + 0x168] = a1\n 20239: sp = a1\n 20241: i32 a0 = a0 + 0\n 20243: i32 a2 = a1 + 0\n 20245: a1 = 0x20\n 20248: ecalli 8 // 'hash_keccak_256'\n 20250: u64 [s1 + 408] = 0x20\n 20255: a5 = 0\n 20257: u64 [s1 + 400] = 0\n 20261: u64 [s1 + 392] = 0\n 20265: u64 [s1 + 376] = 0\n 20269: u64 [s1 + 384] = 0\n 20273: a3 = u64 [s1 + 0x168]\n 20277: a0 = u64 [a3 + 0x18]\n 20280: a1 = u64 [a3 + 0x10]\n 20283: a2 = u64 [a3 + 0x8]\n 20286: a3 = u64 [a3]\n 20288: t1 = reverse a0\n 20290: t2 = reverse a1\n 20292: ra = reverse a2\n 20294: a2 = 0\n 20296: a4 = u64 [s1 + 0x178]\n 20300: a0 = reverse a3\n 20302: a3 = 0\n 20304: t0 = a0\n 20306: a1 = u64 [s1 + 0x170]\n 20310: u64 [a1 + 0x18] = a0\n 20313: u64 [s1 + 0x150] = ra\n 20317: u64 [a1 + 0x10] = ra\n 20320: u64 [a1 + 0x8] = t2\n 20323: u64 [a1] = t1\n 20325: fallthrough\n      : @717 (gas: 24)\n 20326: u64 [s1 + 0x168] = t0\n 20330: a0 = u64 [s1 + 0x110]\n 20334: u64 [s1 + 0x178] = a4\n 20338: a0 = a4 <u a0\n 20341: a4 = a0 ^ 0x1\n 20344: u64 [s1 + 0x158] = a3\n 20348: a4 = 0x1 if a3 != 0\n 20351: u64 [s1 + 0x160] = a2\n 20355: a0 = u64 [s1 + 0x180]\n 20359: a0 = a0 | a2\n 20362: a4 = 0x1 if a0 != 0\n 20365: a1 = u64 [s1 + 0x118]\n 20369: a0 = u64 [s1 + 0x198]\n 20373: a1 = a1 + a0\n 20376: a3 = u64 [s1 + 0x130]\n 20380: a3 = a3 + a5\n 20383: a2 = u64 [s1 + 0x120]\n 20387: a0 = u64 [s1 + 0x190]\n 20391: a2 = a2 + a0\n 20394: a0 = u64 [s1 + 0x128]\n 20398: ra = a5\n 20400: a5 = u64 [s1 + 0x188]\n 20404: a0 = a0 + a5\n 20407: jump @724 if a4 != 0\n      : @718 (gas: 23)\n 20411: a4 = u64 [s1 + 0x198]\n 20415: a4 = a1 <u a4\n 20418: a3 = a3 + a4\n 20421: t0 = a3 ^ ra\n 20424: u64 [s1 + 0x138] = ra\n 20428: a5 = a3 <u ra\n 20431: a5 = a4 if t0 == 0\n 20434: a5 = a5 + a2\n 20437: t0 = a5 <u a2\n 20440: a4 = u64 [s1 + 0x190]\n 20444: a2 = a2 <u a4\n 20447: a0 = a0 + a2\n 20450: a0 = a0 + t0\n 20453: a2 = a1 | a5\n 20456: a0 = a0 | a3\n 20459: a2 = a2 | a0\n 20462: a2 = a2 >> 0x20\n 20465: a0 = a0 | a5\n 20468: a0 = a0 << 0x20\n 20471: a0 = a0 | a2\n 20474: u64 [s1 + 0x148] = t1\n 20478: u64 [s1 + 0x140] = t2\n 20482: jump @781 if a0 != 0\n      : @719 (gas: 2)\n 20486: a0 = s1 + 0x1ea0\n 20490: ra = 742, jump @22\n      : @720 [@dyn 371] (gas: 15)\n 20496: a3 = s1 + 0x1918\n 20500: a4 = a3 + 0x500\n 20504: a0 = u64 [a4 + 0xa0]\n 20508: a1 = u64 [a4 + 0x98]\n 20512: a2 = u64 [a4 + 0x90]\n 20516: a3 = u64 [a4 + 0x88]\n 20520: a4 = s1 + 0x2918\n 20524: a5 = a4 + 0x500\n 20528: u64 [a5 + 0x60] = a0\n 20531: u64 [a5 + 0x58] = a1\n 20534: u64 [a5 + 0x50] = a2\n 20537: u64 [a5 + 0x48] = a3\n 20540: a1 = s1 + 0x2e60\n 20544: a0 = u64 [s1 + 0x170]\n 20548: ra = 744, jump @28\n      : @721 [@dyn 372] (gas: 53)\n 20554: t1 = u64 [s1 + 0x148]\n 20558: t1 = t1 + 0x1\n 20561: a0 = t1 <u 0x1\n 20564: t2 = u64 [s1 + 0x140]\n 20568: t2 = t2 + a0\n 20571: a0 = t1 | t2\n 20574: a0 = a0 <u 0x1\n 20577: a1 = u64 [s1 + 0x150]\n 20581: ra = a1 + a0\n 20584: a1 = ra <u a1\n 20587: a0 = u64 [s1 + 0x168]\n 20591: a0 = a0 + a1\n 20594: a1 = u64 [s1 + 0x198]\n 20598: a2 = a1 + 0x20\n 20601: u64 [s1 + 0x168] = a2\n 20605: a3 = a2 <u a1\n 20608: a1 = u64 [s1 + 0x138]\n 20612: a2 = a1 + a3\n 20615: u64 [s1 + 0x148] = a2\n 20619: a4 = a2 <u a1\n 20622: a4 = a3 if a3 == 0\n 20625: a1 = u64 [s1 + 0x190]\n 20629: a3 = a1 + a4\n 20632: a4 = a3 <u a1\n 20635: a1 = u64 [s1 + 0x188]\n 20639: a1 = a1 + a4\n 20642: u64 [s1 + 0x188] = a1\n 20646: a1 = u64 [s1 + 0x178]\n 20650: a4 = a1 + 0x20\n 20653: a5 = a4 <u a1\n 20656: a2 = u64 [s1 + 0x158]\n 20660: a1 = a2 + a5\n 20663: a2 = a1 <u a2\n 20666: a2 = a5 if a5 == 0\n 20669: a5 = u64 [s1 + 0x160]\n 20673: a2 = a2 + a5\n 20676: a5 = a2 <u a5\n 20679: t0 = u64 [s1 + 0x180]\n 20683: t0 = t0 + a5\n 20686: u64 [s1 + 0x180] = t0\n 20690: a5 = u64 [s1 + 0x170]\n 20694: u64 [a5 + 0x8] = t2\n 20697: u64 [a5] = t1\n 20699: u64 [a5 + 0x10] = ra\n 20702: t0 = a0\n 20704: u64 [a5 + 0x18] = a0\n 20707: u64 [s1 + 0x150] = ra\n 20711: a0 = u64 [s1 + 0x168]\n 20715: u64 [s1 + 0x198] = a0\n 20719: a5 = u64 [s1 + 0x148]\n 20723: u64 [s1 + 0x190] = a3\n 20727: a3 = a1\n 20729: jump @717\n      : @722 (gas: 8)\n 20732: a0 = u64 [s1 + 0x80]\n 20736: a1 = u64 [s1 + 0x38]\n 20739: a0 = a0 | a1\n 20742: a1 = u64 [s1 + 0x48]\n 20745: a2 = u64 [s1 + 0x30]\n 20748: a1 = a1 | a2\n 20751: a0 = a0 | a1\n 20754: jump @732 if a0 != 0\n      : @723 (gas: 5)\n 20758: u64 [s1 + 320] = 0\n 20762: u64 [s1 + 312] = 0\n 20766: u64 [s1 + 328] = 0\n 20770: u64 [s1 + 336] = 0\n 20774: jump @735\n      : @724 (gas: 12)\n 20777: t2 = u64 [s1 + 0x190]\n 20781: t1 = u64 [s1 + 0x198]\n 20785: a4 = u64 [s1 + 0x80]\n 20789: a5 = u64 [s1 + 0x110]\n 20793: a4 = a4 ^ a5\n 20796: a5 = u64 [s1 + 0x38]\n 20799: t0 = a4 | a5\n 20802: a5 = u64 [s1 + 0x48]\n 20805: a4 = u64 [s1 + 0x30]\n 20808: a5 = a5 | a4\n 20811: a4 = t0 | a5\n 20814: jump @731 if a4 == 0\n      : @725 (gas: 18)\n 20818: a4 = a1 <u t1\n 20821: a3 = a3 + a4\n 20824: t0 = a3 ^ ra\n 20827: a5 = a3 <u ra\n 20830: a5 = a4 if t0 == 0\n 20833: a5 = a5 + a2\n 20836: a4 = a5 <u a2\n 20839: a2 = a2 <u t2\n 20842: a0 = a0 + a2\n 20845: a0 = a0 + a4\n 20848: a2 = a1 | a5\n 20851: a0 = a0 | a3\n 20854: a2 = a2 | a0\n 20857: a2 = a2 >> 0x20\n 20860: a0 = a0 | a5\n 20863: a0 = a0 << 0x20\n 20866: a0 = a0 | a2\n 20869: jump @781 if a0 != 0\n      : @726 (gas: 2)\n 20873: a0 = s1 + 0x20e0\n 20877: ra = 746, jump @22\n      : @727 [@dyn 373] (gas: 18)\n 20883: a0 = s1 + 0x1918\n 20887: a2 = a0 + 0x700\n 20891: a1 = u64 [a2 + 0xe0]\n 20895: u64 [s1 + 0x190] = a1\n 20899: a1 = u64 [a2 + 0xd8]\n 20903: u64 [s1 + 0x188] = a1\n 20907: a1 = u64 [a2 + 0xd0]\n 20911: u64 [s1 + 0x180] = a1\n 20915: a0 = u64 [a2 + 0xc8]\n 20919: u64 [s1 + 0x178] = a0\n 20923: a0 = u64 [s1 + 0x80]\n 20927: a0 = a0 << 0x3b\n 20930: a1 = a0 >> 0x38\n 20933: u64 [s1 + 0x198] = a1\n 20937: a2 = 0x80 - a1\n 20941: a0 = 0xffffffffffffffff\n 20944: a1 = 0xffffffffffffffff\n 20947: ra = 748, jump @1585\n      : @728 [@dyn 374] (gas: 6)\n 20953: u64 [s1 + 0x168] = a0\n 20957: u64 [s1 + 0x150] = a1\n 20961: a0 = 0xffffffffffffffff\n 20964: a1 = 0xffffffffffffffff\n 20967: a2 = u64 [s1 + 0x198]\n 20971: ra = 750, jump @1580\n      : @729 [@dyn 375] (gas: 10)\n 20977: u64 [s1 + 0x158] = a0\n 20981: u64 [s1 + 0x160] = a1\n 20985: a0 = u64 [s1 + 0x150]\n 20989: a0 = a0 | a1\n 20992: u64 [s1 + 0x150] = a0\n 20996: a0 = u64 [s1 + 0x198]\n 21000: a2 = a0 + 0xffffffffffffff80\n 21003: a0 = 0xffffffffffffffff\n 21006: a1 = 0xffffffffffffffff\n 21009: ra = 752, jump @1580\n      : @730 [@dyn 376] (gas: 30)\n 21015: a4 = u64 [s1 + 0x198]\n 21019: a2 = a4 <u 0x80\n 21023: a3 = u64 [s1 + 0x150]\n 21027: a1 = a3 if a2 != 0\n 21030: a5 = u64 [s1 + 0x158]\n 21034: a3 = u64 [s1 + 0x168]\n 21038: a3 = a3 | a5\n 21041: a3 = a0 if a2 == 0\n 21044: a1 = 0xffffffffffffffff if a4 == 0\n 21047: a3 = 0xffffffffffffffff if a4 == 0\n 21050: a4 = u64 [s1 + 0x160]\n 21054: a4 = 0 if a2 == 0\n 21056: a5 = 0 if a2 == 0\n 21058: a0 = u64 [s1 + 0x178]\n 21062: a0 = a0 & ~a3\n 21065: a2 = u64 [s1 + 0x180]\n 21069: a1 = a2 & ~a1\n 21072: a2 = u64 [s1 + 0x188]\n 21076: a2 = a2 & ~a5\n 21079: a3 = u64 [s1 + 0x190]\n 21083: a3 = a3 & ~a4\n 21086: a4 = s1 + 0x2918\n 21090: a5 = a4 + 0x500\n 21094: u64 [a5 + 0x80] = a3\n 21098: u64 [a5 + 0x78] = a2\n 21101: u64 [a5 + 0x70] = a1\n 21104: u64 [a5 + 0x68] = a0\n 21107: a1 = s1 + 0x2e80\n 21111: a0 = u64 [s1 + 0x170]\n 21115: ra = 754, jump @28\n      : @731 [@dyn 377] (gas: 23)\n 21121: a2 = u64 [s1 + 0x38]\n 21124: a0 = a2 >> 0x3f\n 21127: a1 = u64 [s1 + 0x30]\n 21130: a1 = a1 << 0x1\n 21133: a0 = a0 | a1\n 21136: a3 = u64 [s1 + 0x48]\n 21139: a1 = a3 >> 0x3f\n 21142: a2 = a2 << 0x1\n 21145: a1 = a1 | a2\n 21148: a4 = u64 [s1 + 0x80]\n 21152: a2 = a4 >> 0x3f\n 21155: a3 = a3 << 0x1\n 21158: a2 = a2 | a3\n 21161: a3 = a4 << 0x1\n 21164: a3 = a3 + 0x1\n 21167: a4 = s1 + 0x2918\n 21171: a5 = a4 + 0x500\n 21175: u64 [a5 + 0x88] = a3\n 21179: u64 [a5 + 0x90] = a2\n 21183: u64 [a5 + 0x98] = a1\n 21187: u64 [a5 + 0xa0] = a0\n 21191: a0 = 0x2ea0\n 21195: jump @739\n      : @732 (gas: 11)\n 21198: a3 = s1 + 0x100\n 21202: a0 = u64 [a3 + 0x28]\n 21205: a1 = u64 [a3 + 0x20]\n 21208: a0 = a0 | a1\n 21211: a1 = 0xffffffe0\n 21221: a2 = u64 [a3 + 0x18]\n 21224: a1 = a2 <u a1\n 21227: a2 = u64 [a3 + 0x30]\n 21230: a1 = 0 if a2 != 0\n 21232: a1 = 0 if a0 != 0\n 21234: jump @781 if a1 == 0\n      : @733 (gas: 4)\n 21238: a0 = u64 [s1 + 0x118]\n 21242: i32 a1 = a0 + 0x20\n 21245: a0 = s1 + 0x2120\n 21249: ra = 756, jump @22\n      : @734 [@dyn 378] (gas: 11)\n 21255: a0 = s1 + 0x2118\n 21259: a1 = u64 [a0 + 0x20]\n 21262: a2 = s1 + 0x100\n 21266: u64 [a2 + 0x50] = a1\n 21269: a1 = u64 [a0 + 0x18]\n 21272: u64 [a2 + 0x48] = a1\n 21275: a1 = u64 [a0 + 0x10]\n 21278: u64 [a2 + 0x38] = a1\n 21281: a0 = u64 [a0 + 0x8]\n 21284: u64 [a2 + 0x40] = a0\n 21287: fallthrough\n      : @735 (gas: 24)\n 21288: a2 = u64 [s1 + 0x48]\n 21291: a0 = a2 >> 0x3f\n 21294: a3 = u64 [s1 + 0x38]\n 21297: a1 = a3 << 0x1\n 21300: a0 = a0 | a1\n 21303: u64 [s1 + 0x190] = a0\n 21307: a0 = a3 >> 0x3f\n 21310: a1 = u64 [s1 + 0x30]\n 21313: a1 = a1 << 0x1\n 21316: a0 = a0 | a1\n 21319: u64 [s1 + 0x188] = a0\n 21323: a3 = u64 [s1 + 0x80]\n 21327: a0 = a3 >> 0x3f\n 21330: a1 = a2 << 0x1\n 21333: a0 = a0 | a1\n 21336: u64 [s1 + 0x180] = a0\n 21340: a0 = a3 << 0x1\n 21343: u64 [s1 + 0x178] = a0\n 21347: a1 = a3 << 0x3\n 21350: u64 [s1 + 0x198] = a1\n 21354: i32 a2 = 0x80 - a1\n 21358: a0 = 0xffffffffffffffff\n 21361: a1 = 0xffffffffffffffff\n 21364: ra = 758, jump @1585\n      : @736 [@dyn 379] (gas: 7)\n 21370: u64 [s1 + 0x158] = a0\n 21374: u64 [s1 + 0x170] = a1\n 21378: a0 = u64 [s1 + 0x80]\n 21382: i32 a2 = a0 << 0x3\n 21385: a0 = 0xffffffffffffffff\n 21388: a1 = 0xffffffffffffffff\n 21391: ra = 760, jump @1580\n      : @737 [@dyn 380] (gas: 10)\n 21397: u64 [s1 + 0x168] = a0\n 21401: u64 [s1 + 0x160] = a1\n 21405: a1 = u64 [s1 + 0x158]\n 21409: a0 = a0 | a1\n 21412: u64 [s1 + 0x158] = a0\n 21416: a0 = u64 [s1 + 0x198]\n 21420: i32 a2 = a0 + 0xffffffffffffff80\n 21423: a0 = 0xffffffffffffffff\n 21426: a1 = 0xffffffffffffffff\n 21429: ra = 762, jump @1580\n      : @738 [@dyn 381] (gas: 38)\n 21435: a4 = u64 [s1 + 0x198]\n 21439: a2 = a4 <u 0x80\n 21443: a3 = u64 [s1 + 0x158]\n 21447: a0 = a3 if a2 != 0\n 21450: a5 = u64 [s1 + 0x160]\n 21454: a3 = u64 [s1 + 0x170]\n 21458: a3 = a3 | a5\n 21461: a3 = a1 if a2 == 0\n 21464: a0 = 0xffffffffffffffff if a4 == 0\n 21467: a3 = 0xffffffffffffffff if a4 == 0\n 21470: a5 = 0 if a2 == 0\n 21472: a4 = u64 [s1 + 0x168]\n 21476: a4 = 0 if a2 == 0\n 21478: a1 = u64 [s1 + 0x138]\n 21482: a1 = a1 & ~a3\n 21485: a2 = u64 [s1 + 0x140]\n 21489: a0 = a2 & ~a0\n 21492: a2 = u64 [s1 + 0x148]\n 21496: a2 = a2 & ~a4\n 21499: a3 = u64 [s1 + 0x150]\n 21503: a3 = a3 & ~a5\n 21506: a5 = s1 + 0x100\n 21510: a4 = u64 [a5 + 0x78]\n 21513: a0 = a0 | a4\n 21516: a4 = u64 [a5 + 0x80]\n 21520: a1 = a1 | a4\n 21523: a4 = u64 [a5 + 0x88]\n 21527: a3 = a3 | a4\n 21530: a4 = u64 [a5 + 0x90]\n 21534: a2 = a2 | a4\n 21537: a4 = s1 + 0x2918\n 21541: a5 = a4 + 0x500\n 21545: u64 [a5 + 0xb8] = a2\n 21549: u64 [a5 + 0xc0] = a3\n 21553: u64 [a5 + 0xb0] = a1\n 21557: u64 [a5 + 0xa8] = a0\n 21561: a0 = 0x2ec0\n 21565: fallthrough\n      : @739 (gas: 3)\n 21566: a1 = s1 + a0\n 21569: a0 = u64 [s1 + 0x40]\n 21572: ra = 764, jump @28\n      : @740 [@dyn 382] (gas: 8)\n 21578: a0 = sp + 0xffffffffffffffe0\n 21581: a5 = a0 & 0xffffffffffffffe0\n 21584: sp = a5\n 21586: a1 = u64 [s1 + 0x50]\n 21589: a0 = a1 + 0x2\n 21592: a1 = a0 <u a1\n 21595: a3 = u64 [s1 + 0x58]\n 21598: t0 = 766, jump @1540\n      : @741 [@dyn 383] (gas: 13)\n 21604: a1 = u64 [s1 + 0x68]\n 21607: a3 = a3 + a1\n 21610: a1 = a3 <u a1\n 21613: a4 = u64 [s1 + 0x60]\n 21616: a1 = a1 + a4\n 21619: u64 [s1 + 0x198] = a5\n 21623: u64 [a5 + 0x10] = a3\n 21626: u64 [a5 + 0x8] = a2\n 21629: u64 [a5] = a0\n 21631: u64 [a5 + 0x18] = a1\n 21634: a0 = s1 + 0x20c0\n 21638: a1 = u64 [s1 + 0x78]\n 21641: ra = 768, jump @22\n      : @742 [@dyn 384] (gas: 7)\n 21647: a0 = s1 + 0x1918\n 21651: a0 = u64 [a0 + 0x7a8]\n 21655: a0 = a0 & 0xffffffffffffffff\n 21658: u64 [s1 + 0x190] = a0\n 21662: a0 = s1 + 0x20a0\n 21666: a1 = u64 [s1 + 0x198]\n 21670: ra = 770, jump @26\n      : @743 [@dyn 385] (gas: 15)\n 21676: a2 = s1 + 0x1918\n 21680: a3 = a2 + 0x700\n 21684: a0 = u64 [a3 + 0xa0]\n 21688: a1 = u64 [a3 + 0x98]\n 21692: a2 = u64 [a3 + 0x90]\n 21696: a3 = s1 + 0x2918\n 21700: a4 = u64 [s1 + 0x190]\n 21704: a5 = a3 + 0x500\n 21708: u64 [a5 + 0xc8] = a4\n 21712: u64 [a5 + 0xe0] = a0\n 21716: u64 [a5 + 0xd8] = a1\n 21720: u64 [a5 + 0xd0] = a2\n 21724: a1 = s1 + 0x2ee0\n 21728: a0 = u64 [s1 + 0x198]\n 21732: ra = 772, jump @28\n      : @744 [@dyn 386] (gas: 3)\n 21738: a0 = s1 + 0x2080\n 21742: a1 = u64 [s1 + 0x28]\n 21745: ra = 774, jump @22\n      : @745 [@dyn 387] (gas: 14)\n 21751: a3 = s1 + 0x1918\n 21755: a4 = a3 + 0x700\n 21759: a0 = u64 [a4 + 0x80]\n 21763: a1 = u64 [a4 + 0x70]\n 21766: a2 = u64 [a4 + 0x78]\n 21769: a3 = u64 [a4 + 0x68]\n 21772: a0 = a0 | a1\n 21775: a2 = a2 | a3\n 21778: a0 = a0 | a2\n 21781: a0 = a0 >u 0\n 21783: u64 [s1 + 0x190] = a0\n 21787: a0 = s1 + 0x2060\n 21791: a1 = u64 [s1 + 0x198]\n 21795: ra = 776, jump @26\n      : @746 [@dyn 388] (gas: 18)\n 21801: a3 = s1 + 0x1918\n 21805: a4 = a3 + 0x700\n 21809: a0 = u64 [a4 + 0x50]\n 21812: a1 = u64 [a4 + 0x48]\n 21815: a2 = u64 [a4 + 0x60]\n 21818: a3 = u64 [a4 + 0x58]\n 21821: a0 = a0 & 0xffffffffffffff00\n 21825: a4 = u64 [s1 + 0x190]\n 21829: a0 = a0 | a4\n 21832: a4 = s1 + 0x2918\n 21836: u64 [a4 + 0x600] = a2\n 21840: a2 = a4 + 0x500\n 21844: u64 [a2 + 0xf8] = a3\n 21848: u64 [a2 + 0xe8] = a1\n 21852: u64 [a2 + 0xf0] = a0\n 21856: a1 = s1 + 0x2f00\n 21860: a0 = u64 [s1 + 0x198]\n 21864: ra = 778, jump @28\n      : @747 [@dyn 389] (gas: 6)\n 21870: a0 = u64 [s1 + 0xc8]\n 21874: ra = 0x30c\n 21878: ecalli 4 // 'caller'\n 21880: a2 = u64 [s1 + 0xe8]\n 21884: t0 = 0x30e\n 21888: jump @1498\n      : @748 [@dyn 390] (gas: 2)\n 21891: a2 = u64 [s1 + 0xe8]\n 21895: t0 = 782, jump @1498\n      : @749 [@dyn 391] (gas: 8)\n 21901: u64 [a2 + 1856] = 0\n 21905: a4 = a2 + 0x700\n 21909: u64 [a4 + 0x38] = a1\n 21912: u64 [a4 + 0x30] = a0\n 21915: a1 = s1 + 0x2040\n 21919: u64 [a4 + 0x28] = a3\n 21922: a0 = 0\n 21924: ra = 784, jump @24\n      : @750 [@dyn 392] (gas: 3)\n 21930: t0 = 0x312\n 21934: a1 = s1 + 0x1918\n 21938: fallthrough\n      : @751 [@dyn 393] (gas: 8)\n 21939: u64 [a1 + 1824] = 0\n 21943: u64 [a1 + 1816] = 0\n 21947: u64 [a1 + 1800] = 0x1\n 21952: a2 = a1\n 21954: a0 = 0x20\n 21957: a1 = s1 + 0x2020\n 21961: u64 [a2 + 1808] = 0\n 21965: ra = 788, jump @24\n      : @752 [@dyn 394] (gas: 1)\n 21971: t0 = 790, jump @1549\n      : @753 [@dyn 395] (gas: 3)\n 21977: a2 = u64 [s1 + 0xa8]\n 21981: a0 = i32 [a2]\n 21983: jump @755 if a0 >u 63\n      : @754 (gas: 2)\n 21987: u32 [a2 + 0] = 0x40\n 21990: fallthrough\n      : @755 (gas: 11)\n 21991: a0 = sp + 0xffffffffffffffe0\n 21994: a0 = a0 & 0xffffffffffffffe0\n 21997: u64 [s1 + 0x190] = a0\n 22001: sp = a0\n 22003: i32 a2 = a0 + 0\n 22005: a1 = 0x40\n 22008: a0 = u64 [s1 + 0xa0]\n 22012: ra = 0x318\n 22016: ecalli 8 // 'hash_keccak_256'\n 22018: t0 = 0x31a\n 22022: jump @1541\n      : @756 [@dyn 396] (gas: 1)\n 22025: t0 = 794, jump @1541\n      : @757 [@dyn 397] (gas: 2)\n 22031: a4 = a3 + 0x3\n 22034: t0 = 796, jump @1514\n      : @758 [@dyn 398] (gas: 7)\n 22040: a1 = u64 [s1 + 0x198]\n 22044: u64 [a1] = a4\n 22046: u64 [a1 + 0x8] = a5\n 22049: u64 [a1 + 0x10] = a2\n 22052: u64 [a1 + 0x18] = a0\n 22055: a0 = s1 + 0x2000\n 22059: ra = 798, jump @26\n      : @759 [@dyn 399] (gas: 9)\n 22065: a0 = s1 + 0x1918\n 22069: a0 = u64 [a0 + 0x6e8]\n 22073: a0 = a0 + 0x1\n 22076: a1 = u64 [s1 + 0xe0]\n 22080: a0 = a0 & a1\n 22083: u64 [s1 + 0x190] = a0\n 22087: a0 = s1 + 0x1fe0\n 22091: a1 = u64 [s1 + 0x198]\n 22095: ra = 800, jump @26\n      : @760 [@dyn 400] (gas: 2)\n 22101: a0 = 0x2000\n 22105: t0 = 802, jump @1569\n      : @761 [@dyn 401] (gas: 5)\n 22111: a0 = u64 [a4 + 0xd0]\n 22115: a1 = u64 [a4 + 0xd8]\n 22119: a2 = u64 [a4 + 0xe0]\n 22123: a3 = u64 [a4 + 0xc8]\n 22127: t0 = 804, jump @1545\n      : @762 [@dyn 402] (gas: 8)\n 22133: a5 = a4 + 0x600\n 22137: u64 [a5 + 0x20] = a2\n 22140: u64 [a5 + 0x18] = a1\n 22143: u64 [a5 + 0x10] = a0\n 22146: u64 [a5 + 0x8] = a3\n 22149: a1 = s1 + 0x2f20\n 22153: a0 = u64 [s1 + 0x198]\n 22157: ra = 806, jump @28\n      : @763 [@dyn 403] (gas: 3)\n 22163: a0 = s1 + 0x1fc0\n 22167: a1 = 0x40\n 22170: ra = 808, jump @22\n      : @764 [@dyn 404] (gas: 3)\n 22176: t0 = 0x32a\n 22180: a2 = s1 + 0x1918\n 22184: fallthrough\n      : @765 [@dyn 405] (gas: 17)\n 22185: a5 = a2 + 0x600\n 22189: a3 = u64 [a5 + 0xc0]\n 22193: a4 = u64 [a5 + 0xb8]\n 22197: a1 = u64 [a5 + 0xb0]\n 22201: a0 = u64 [a5 + 0xa8]\n 22205: a5 = s1 + 0x100\n 22209: u64 [a5 + 0x98] = a1\n 22213: u64 [a5 + 0x88] = a3\n 22217: a3 = a3 | a1\n 22220: a1 = a0 | a4\n 22223: a1 = a1 | a3\n 22226: a1 = a1 >> 0x20\n 22229: u64 [a5 + 0x90] = a4\n 22233: a3 = a3 | a4\n 22236: a3 = a3 << 0x20\n 22239: a1 = a1 | a3\n 22242: jump @781 if a1 != 0\n      : @766 (gas: 7)\n 22246: u64 [a2 + 1696] = 0\n 22250: u64 [a2 + 1688] = 0\n 22254: u64 [a2 + 1680] = 0\n 22258: a1 = s1 + 0x1fa0\n 22262: u64 [a2 + 1672] = 0x20\n 22267: u64 [s1 + 0x180] = a0\n 22271: ra = 812, jump @24\n      : @767 [@dyn 406] (gas: 14)\n 22277: a3 = s1 + 0x100\n 22281: a0 = u64 [a3 + 0x88]\n 22285: a1 = u64 [a3 + 0x90]\n 22289: a1 = a1 | a0\n 22292: a0 = 0x100000000\n 22302: u64 [a3 + 0x78] = a0\n 22305: a0 = 0xffffffe0\n 22315: a2 = u64 [a3 + 0x80]\n 22319: a0 = a2 <u a0\n 22322: a2 = u64 [a3 + 0x98]\n 22326: a0 = 0 if a2 != 0\n 22328: u64 [a3 + 0x70] = a1\n 22331: a0 = 0 if a1 != 0\n 22333: jump @781 if a0 == 0\n      : @768 (gas: 14)\n 22337: a0 = u64 [s1 + 0x180]\n 22341: i32 a0 = a0 + 0x20\n 22344: a2 = s1 + 0x1918\n 22348: a1 = u64 [s1 + 0xc0]\n 22352: a4 = a2 + 0x600\n 22356: u64 [a4 + 0x68] = a1\n 22359: a1 = u64 [s1 + 0xb0]\n 22363: u64 [a4 + 0x70] = a1\n 22366: a1 = u64 [s1 + 0xb8]\n 22370: u64 [a4 + 0x78] = a1\n 22373: a1 = s1 + 0x1f80\n 22377: a3 = u64 [s1 + 0xf0]\n 22381: u64 [a4 + 0x80] = a3\n 22385: ra = 814, jump @24\n      : @769 [@dyn 407] (gas: 9)\n 22391: a0 = u64 [s1 + 0x178]\n 22395: a0 = a0 + 0xffffffffffffffdc\n 22398: a1 = u64 [s1 + 0xd0]\n 22402: a0 = a1 <u a0\n 22405: a1 = u64 [s1 + 0xd8]\n 22409: a0 = 0 if a1 != 0\n 22411: a1 = u64 [s1 + 0x98]\n 22415: a0 = 0 if a1 != 0\n 22417: jump @781 if a0 == 0\n      : @770 (gas: 12)\n 22421: a0 = u64 [s1 + 0xc0]\n 22425: a2 = u64 [s1 + 0xb8]\n 22429: a0 = a0 | a2\n 22432: a1 = u64 [s1 + 0xf0]\n 22436: a3 = u64 [s1 + 0xb0]\n 22440: a1 = a1 | a3\n 22443: a0 = a0 | a1\n 22446: a0 = a0 >> 0x20\n 22449: a1 = a1 | a2\n 22452: a1 = a1 << 0x20\n 22455: a0 = a0 | a1\n 22458: jump @781 if a0 != 0\n      : @771 (gas: 10)\n 22462: a1 = 0xffffffc0\n 22472: a2 = s1 + 0x100\n 22476: a0 = u64 [a2 + 0x80]\n 22480: u64 [a2 + 0x78] = a1\n 22483: a0 = a0 <u a1\n 22486: a1 = u64 [a2 + 0x98]\n 22490: a0 = 0 if a1 != 0\n 22492: a1 = u64 [a2 + 0x70]\n 22495: a0 = 0 if a1 != 0\n 22497: jump @781 if a0 == 0\n      : @772 (gas: 4)\n 22501: a0 = u64 [s1 + 0x180]\n 22505: i32 a0 = a0 + 0x40\n 22508: a1 = u64 [s1 + 0x90]\n 22512: ra = 816, jump @37\n      : @773 [@dyn 408] (gas: 5)\n 22518: i32 a0 = a0 + 0\n 22520: a1 = u64 [s1 + 0x90]\n 22524: a2 = u64 [s1 + 0x88]\n 22528: ecalli 1 // 'call_data_copy'\n 22530: fallthrough\n      : @774 (gas: 28)\n 22531: a1 = u64 [s1 + 0xc0]\n 22535: a0 = u64 [s1 + 0x180]\n 22539: a0 = a0 + a1\n 22542: a1 = a0 <u a1\n 22545: a4 = u64 [s1 + 0xb0]\n 22549: a2 = u64 [s1 + 0x198]\n 22553: a2 = a2 + a4\n 22556: a2 = a2 + a1\n 22559: a3 = a2 ^ a4\n 22562: a4 = a2 <u a4\n 22565: a4 = a1 if a3 == 0\n 22568: a1 = u64 [s1 + 0xf0]\n 22572: a3 = u64 [s1 + 0x188]\n 22576: a1 = a1 + a3\n 22579: a5 = u64 [s1 + 0xb8]\n 22583: a3 = u64 [s1 + 0x190]\n 22587: a3 = a3 + a5\n 22590: a5 = a3 <u a5\n 22593: a1 = a1 + a5\n 22596: a4 = a4 + a3\n 22599: a3 = a4 <u a3\n 22602: a1 = a1 + a3\n 22605: a1 = a1 | a4\n 22608: a3 = u64 [s1 + 0x178]\n 22612: a3 = a0 <u a3\n 22615: a3 = 0 if a2 != 0\n 22617: a3 = 0 if a1 != 0\n 22619: jump @781 if a3 == 0\n      : @775 (gas: 8)\n 22623: i32 a0 = a0 + 0x40\n 22626: a2 = s1 + 0x1918\n 22630: u64 [a2 + 1632] = 0\n 22634: u64 [a2 + 1624] = 0\n 22638: u64 [a2 + 1616] = 0\n 22642: a1 = s1 + 0x1f60\n 22646: u64 [a2 + 1608] = 0\n 22650: ra = 818, jump @24\n      : @776 [@dyn 409] (gas: 6)\n 22656: a0 = u64 [s1 + 0xc8]\n 22660: ra = 0x334\n 22664: ecalli 4 // 'caller'\n 22666: a2 = u64 [s1 + 0xe8]\n 22670: t0 = 0x336\n 22674: jump @1502\n      : @777 [@dyn 410] (gas: 2)\n 22677: a2 = u64 [s1 + 0xe8]\n 22681: t0 = 822, jump @1502\n      : @778 [@dyn 411] (gas: 36)\n 22687: t0 = a1 | a0\n 22690: a3 = a3 >> 0x20\n 22693: a1 = reverse a2\n 22695: a2 = a1 << 0x20\n 22698: a2 = a2 | a3\n 22701: a3 = a1 >> 0x20\n 22704: a1 = u64 [s1 + 0xc0]\n 22708: a1 = a1 + 0x1f\n 22711: a1 = a1 & 0xe0\n 22715: a1 = a1 + 0x40\n 22718: a4 = u64 [0x20020]\n 22723: a5 = u64 [0x20028]\n 22728: a0 = s1 + 0x1918\n 22732: u64 [a0 + 0x640] = a4\n 22736: a4 = u64 [0x20030]\n 22741: u64 [a0 + 0x638] = a5\n 22745: u64 [a0 + 1536] = 0\n 22749: a5 = u64 [s1 + 0x108]\n 22753: u64 [a0 + 0x5f8] = a5\n 22757: u64 [a0 + 0x630] = a4\n 22761: a4 = u64 [0x20038]\n 22766: a5 = u64 [s1 + 0xf8]\n 22770: u64 [a0 + 0x5f0] = a5\n 22774: a5 = u64 [s1 + 0x100]\n 22778: u64 [a0 + 0x5e8] = a5\n 22782: u64 [a0 + 1568] = 0\n 22786: a5 = a0 + 0x600\n 22790: u64 [a5 + 0x28] = a4\n 22793: u64 [a5 + 0x18] = a3\n 22796: u64 [a5 + 0x10] = a2\n 22799: a2 = s1 + 0x1f40\n 22803: a3 = s1 + 0x1f20\n 22807: a4 = s1 + 0x1f00\n 22811: u64 [a0 + 0x608] = t0\n 22815: a0 = u64 [s1 + 0x180]\n 22819: ra = 824, jump @31\n      : @779 [@dyn 412] (gas: 3)\n 22825: a0 = s1 + 0x1ee0\n 22829: a1 = 0x40\n 22832: ra = 826, jump @22\n      : @780 [@dyn 413] (gas: 14)\n 22838: a3 = s1 + 0x1918\n 22842: a5 = a3 + 0x500\n 22846: a0 = u64 [a5 + 0xe0]\n 22850: a1 = u64 [a5 + 0xd8]\n 22854: a2 = u64 [a5 + 0xd0]\n 22858: a4 = u64 [a5 + 0xc8]\n 22862: a0 = a0 | a2\n 22865: a2 = a4 | a1\n 22868: a2 = a2 | a0\n 22871: a2 = a2 >> 0x20\n 22874: a0 = a0 | a1\n 22877: a0 = a0 << 0x20\n 22880: a0 = a0 | a2\n 22883: jump @886 if a0 == 0\n      : @781 (gas: 1)\n 22887: trap\n      : @782 (gas: 6)\n 22888: a1 = 0x20180\n 22893: i32 a1 = a1 + 0\n 22895: a0 = 0x1\n 22898: a2 = 0\n 22900: ecalli 13 // 'seal_return'\n 22902: jump @1045\n      : @783 (gas: 6)\n 22905: a1 = 0x20180\n 22910: i32 a1 = a1 + 0\n 22912: a0 = 0x1\n 22915: a2 = 0\n 22917: ecalli 13 // 'seal_return'\n 22919: jump @1045\n      : @784 (gas: 6)\n 22922: a1 = 0x20180\n 22927: i32 a1 = a1 + 0\n 22929: a0 = 0x1\n 22932: a2 = 0\n 22934: ecalli 13 // 'seal_return'\n 22936: jump @1045\n      : @785 (gas: 6)\n 22939: a1 = 0x20180\n 22944: i32 a1 = a1 + 0\n 22946: a0 = 0x1\n 22949: a2 = 0\n 22951: ecalli 13 // 'seal_return'\n 22953: jump @1045\n      : @786 (gas: 6)\n 22956: a1 = 0x20180\n 22961: i32 a1 = a1 + 0\n 22963: a0 = 0x1\n 22966: a2 = 0\n 22968: ecalli 13 // 'seal_return'\n 22970: jump @1045\n      : @787 (gas: 6)\n 22973: a1 = 0x20180\n 22978: i32 a1 = a1 + 0\n 22980: a0 = 0x1\n 22983: a2 = 0\n 22985: ecalli 13 // 'seal_return'\n 22987: jump @1045\n      : @788 (gas: 8)\n 22990: u64 [s1 + 1040] = 0\n 22994: u64 [s1 + 1032] = 0\n 22998: u64 [s1 + 1024] = 0\n 23002: a0 = 0x2c5211c600000000\n 23012: a1 = s1 + 0x400\n 23016: u64 [s1 + 0x418] = a0\n 23020: a0 = 0\n 23022: ra = 828, jump @24\n      : @789 [@dyn 414] (gas: 2)\n 23028: a1 = i32 [0x20170]\n 23033: jump @791 if a1 >u 31\n      : @790 (gas: 3)\n 23037: u32 [0x20170] = 0x20\n 23043: a1 = 0x20180\n 23048: jump @862\n      : @791 (gas: 2)\n 23051: a1 = 0x20180\n 23056: jump @862\n      : @792 (gas: 9)\n 23059: u64 [s1 + 1072] = 0\n 23063: u64 [s1 + 1064] = 0\n 23067: u64 [s1 + 1056] = 0\n 23071: a0 = 0xf4d678b800000000\n 23081: a1 = s1 + 0x420\n 23085: u64 [s1 + 0x438] = a0\n 23089: a0 = 0\n 23091: ra = 0x348\n 23095: jump @24\n      : @793 (gas: 6)\n 23098: a1 = 0x20180\n 23103: i32 a1 = a1 + 0\n 23105: a0 = 0x1\n 23108: a2 = 0\n 23110: ecalli 13 // 'seal_return'\n 23112: jump @1045\n      : @794 (gas: 6)\n 23115: a1 = 0x20180\n 23120: i32 a1 = a1 + 0\n 23122: a0 = 0x1\n 23125: a2 = 0\n 23127: ecalli 13 // 'seal_return'\n 23129: jump @1045\n      : @795 (gas: 3)\n 23132: t0 = 0x33e\n 23136: a2 = s1 + 0x1118\n 23140: fallthrough\n      : @796 [@dyn 415] (gas: 8)\n 23141: u64 [a2 + 376] = 0\n 23145: u64 [a2 + 368] = 0\n 23149: a0 = 0x2c5211c600000000\n 23159: u64 [a2 + 0x180] = a0\n 23163: a1 = s1 + 0x1280\n 23167: u64 [a2 + 360] = 0\n 23171: a0 = 0\n 23173: ra = 832, jump @24\n      : @797 [@dyn 416] (gas: 2)\n 23179: a1 = i32 [0x20170]\n 23184: jump @799 if a1 >u 31\n      : @798 (gas: 3)\n 23188: u32 [0x20170] = 0x20\n 23194: a1 = 0x20180\n 23199: jump @862\n      : @799 (gas: 2)\n 23202: a1 = 0x20180\n 23207: jump @862\n      : @800 (gas: 3)\n 23210: t0 = 0x342\n 23214: a2 = s1 + 0x1118\n 23218: fallthrough\n      : @801 [@dyn 417] (gas: 8)\n 23219: u64 [a2 + 408] = 0\n 23223: u64 [a2 + 400] = 0\n 23227: a0 = 0xf4d678b800000000\n 23237: u64 [a2 + 0x1a0] = a0\n 23241: a1 = s1 + 0x12a0\n 23245: u64 [a2 + 392] = 0\n 23249: a0 = 0\n 23251: ra = 836, jump @24\n      : @802 [@dyn 418] (gas: 3)\n 23257: a0 = u64 [s1 + 0x138]\n 23261: a0 = i32 [a0]\n 23263: jump @815 if a0 >u 31\n      : @803 (gas: 3)\n 23268: a1 = u64 [s1 + 0x138]\n 23272: u32 [a1 + 0] = 0x20\n 23275: jump @815\n      : @804 (gas: 6)\n 23278: a1 = 0x20180\n 23283: i32 a1 = a1 + 0\n 23285: a0 = 0x1\n 23288: a2 = 0\n 23290: ecalli 13 // 'seal_return'\n 23292: jump @1045\n      : @805 (gas: 6)\n 23295: a1 = 0x20180\n 23300: i32 a1 = a1 + 0\n 23302: a0 = 0x1\n 23305: a2 = 0\n 23307: ecalli 13 // 'seal_return'\n 23309: jump @1045\n      : @806 (gas: 6)\n 23312: a1 = 0x20180\n 23317: i32 a1 = a1 + 0\n 23319: a0 = 0x1\n 23322: a2 = 0\n 23324: ecalli 13 // 'seal_return'\n 23326: jump @1045\n      : @807 (gas: 6)\n 23329: a1 = 0x20180\n 23334: i32 a1 = a1 + 0\n 23336: a0 = 0x1\n 23339: a2 = 0\n 23341: ecalli 13 // 'seal_return'\n 23343: jump @1045\n      : @808 (gas: 8)\n 23346: u64 [s1 + 1392] = 0\n 23350: u64 [s1 + 1384] = 0\n 23354: u64 [s1 + 1376] = 0\n 23358: a0 = 0x2c5211c600000000\n 23368: a1 = s1 + 0x560\n 23372: u64 [s1 + 0x578] = a0\n 23376: a0 = 0\n 23378: ra = 838, jump @24\n      : @809 [@dyn 419] (gas: 2)\n 23384: a1 = i32 [0x20170]\n 23389: jump @811 if a1 >u 31\n      : @810 (gas: 3)\n 23393: u32 [0x20170] = 0x20\n 23399: a1 = 0x20180\n 23404: jump @862\n      : @811 (gas: 2)\n 23407: a1 = 0x20180\n 23412: jump @862\n      : @812 (gas: 8)\n 23415: u64 [s1 + 1424] = 0\n 23419: u64 [s1 + 1416] = 0\n 23423: u64 [s1 + 1408] = 0\n 23427: a0 = 0xf4d678b800000000\n 23437: a1 = s1 + 0x580\n 23441: u64 [s1 + 0x598] = a0\n 23445: a0 = 0\n 23447: ra = 840, jump @24\n      : @813 [@dyn 420] (gas: 3)\n 23453: a0 = u64 [s1 + 0x140]\n 23457: a0 = i32 [a0]\n 23459: jump @815 if a0 >u 31\n      : @814 (gas: 3)\n 23463: a1 = u64 [s1 + 0x140]\n 23467: u32 [a1 + 0] = 0x20\n 23470: fallthrough\n      : @815 (gas: 5)\n 23471: a0 = 0x1\n 23474: a2 = 0x4\n 23477: a1 = u64 [s1 + 0x148]\n 23481: ecalli 13 // 'seal_return'\n 23483: fallthrough\n      : @816 (gas: 6)\n 23484: a1 = 0x20180\n 23489: i32 a1 = a1 + 0\n 23491: a0 = 0x1\n 23494: a2 = 0\n 23496: ecalli 13 // 'seal_return'\n 23498: jump @1045\n      : @817 (gas: 6)\n 23501: a1 = 0x20180\n 23506: i32 a1 = a1 + 0\n 23508: a0 = 0x1\n 23511: a2 = 0\n 23513: ecalli 13 // 'seal_return'\n 23515: jump @1045\n      : @818 (gas: 6)\n 23518: a1 = 0x20180\n 23523: i32 a1 = a1 + 0\n 23525: a0 = 0x1\n 23528: a2 = 0\n 23530: ecalli 13 // 'seal_return'\n 23532: jump @1045\n      : @819 (gas: 6)\n 23535: a1 = 0x20180\n 23540: i32 a1 = a1 + 0\n 23542: a0 = 0x1\n 23545: a2 = 0\n 23547: ecalli 13 // 'seal_return'\n 23549: jump @1045\n      : @820 (gas: 6)\n 23552: a1 = 0x20180\n 23557: i32 a1 = a1 + 0\n 23559: a0 = 0x1\n 23562: a2 = 0\n 23564: ecalli 13 // 'seal_return'\n 23566: jump @1045\n      : @821 (gas: 6)\n 23569: a1 = 0x20180\n 23574: i32 a1 = a1 + 0\n 23576: a0 = 0x1\n 23579: a2 = 0\n 23581: ecalli 13 // 'seal_return'\n 23583: jump @1045\n      : @822 (gas: 6)\n 23586: a1 = 0x20180\n 23591: i32 a1 = a1 + 0\n 23593: a0 = 0x1\n 23596: a2 = 0\n 23598: ecalli 13 // 'seal_return'\n 23600: jump @1045\n      : @823 (gas: 6)\n 23603: a1 = 0x20180\n 23608: i32 a1 = a1 + 0\n 23610: a0 = 0x1\n 23613: a2 = 0\n 23615: ecalli 13 // 'seal_return'\n 23617: jump @1045\n      : @824 (gas: 6)\n 23620: a1 = 0x20180\n 23625: i32 a1 = a1 + 0\n 23627: a0 = 0x1\n 23630: a2 = 0\n 23632: ecalli 13 // 'seal_return'\n 23634: jump @1045\n      : @825 (gas: 6)\n 23637: a1 = 0x20180\n 23642: i32 a1 = a1 + 0\n 23644: a0 = 0x1\n 23647: a2 = 0\n 23649: ecalli 13 // 'seal_return'\n 23651: jump @1045\n      : @826 (gas: 6)\n 23654: a1 = 0x20180\n 23659: i32 a1 = a1 + 0\n 23661: a0 = 0x1\n 23664: a2 = 0\n 23666: ecalli 13 // 'seal_return'\n 23668: jump @1045\n      : @827 (gas: 2)\n 23671: a0 = 0x1918\n 23675: t0 = 842, jump @1538\n      : @828 [@dyn 421] (gas: 5)\n 23681: i32 a1 = a1 + 0xfffffffffffffe00\n 23685: a1 = a1 + s1\n 23688: u64 [a2 + 0x500] = a0\n 23692: a0 = 0\n 23694: ra = 844, jump @24\n      : @829 [@dyn 422] (gas: 2)\n 23700: a1 = s1 + 0x1918\n 23704: t0 = 846, jump @1568\n      : @830 [@dyn 423] (gas: 5)\n 23710: i32 a1 = a1 + 0xfffffffffffffde0\n 23714: a1 = a1 + s1\n 23717: u64 [a2 + 1232] = 0\n 23721: ra = 0x360\n 23725: jump @24\n      : @831 (gas: 6)\n 23728: a1 = 0x20180\n 23733: i32 a1 = a1 + 0\n 23735: a0 = 0x1\n 23738: a2 = 0\n 23740: ecalli 13 // 'seal_return'\n 23742: jump @1045\n      : @832 (gas: 6)\n 23745: a1 = 0x20180\n 23750: i32 a1 = a1 + 0\n 23752: a0 = 0x1\n 23755: a2 = 0\n 23757: ecalli 13 // 'seal_return'\n 23759: jump @1045\n      : @833 (gas: 6)\n 23762: a1 = 0x20180\n 23767: i32 a1 = a1 + 0\n 23769: a0 = 0x1\n 23772: a2 = 0\n 23774: ecalli 13 // 'seal_return'\n 23776: jump @1045\n      : @834 (gas: 9)\n 23779: a2 = s1 + 0x2118\n 23783: u64 [a2 + 1208] = 0\n 23787: u64 [a2 + 1200] = 0\n 23791: a0 = 0x2c5211c600000000\n 23801: u64 [a2 + 0x4c0] = a0\n 23805: a1 = s1 + 0x25c0\n 23809: u64 [a2 + 1192] = 0\n 23813: a0 = 0\n 23815: ra = 848, jump @24\n      : @835 [@dyn 424] (gas: 2)\n 23821: a1 = i32 [0x20170]\n 23826: jump @837 if a1 >u 31\n      : @836 (gas: 3)\n 23830: u32 [0x20170] = 0x20\n 23836: a1 = 0x20180\n 23841: jump @862\n      : @837 (gas: 2)\n 23844: a1 = 0x20180\n 23849: jump @862\n      : @838 (gas: 2)\n 23852: a0 = 0x2118\n 23856: t0 = 850, jump @1538\n      : @839 [@dyn 425] (gas: 5)\n 23862: i32 a1 = a1 + 0x600\n 23866: a1 = a1 + s1\n 23869: u64 [a2 + 0x500] = a0\n 23873: a0 = 0\n 23875: ra = 852, jump @24\n      : @840 [@dyn 426] (gas: 2)\n 23881: a1 = s1 + 0x2118\n 23885: t0 = 854, jump @1568\n      : @841 [@dyn 427] (gas: 4)\n 23891: i32 a1 = a1 + 0x5e0\n 23895: a1 = a1 + s1\n 23898: u64 [a2 + 1232] = 0\n 23902: ra = 856, jump @24\n      : @842 [@dyn 428] (gas: 3)\n 23908: a0 = u64 [s1 + 0x150]\n 23912: a0 = i32 [a0]\n 23914: jump @844 if a0 >u 63\n      : @843 (gas: 3)\n 23918: a1 = u64 [s1 + 0x150]\n 23922: u32 [a1 + 0] = 0x40\n 23925: fallthrough\n      : @844 (gas: 5)\n 23926: a0 = 0x1\n 23929: a2 = 0x24\n 23932: a1 = u64 [s1 + 0x160]\n 23936: ecalli 13 // 'seal_return'\n 23938: fallthrough\n      : @845 (gas: 6)\n 23939: a1 = 0x20180\n 23944: i32 a1 = a1 + 0\n 23946: a0 = 0x1\n 23949: a2 = 0\n 23951: ecalli 13 // 'seal_return'\n 23953: jump @1045\n      : @846 (gas: 6)\n 23956: a1 = 0x20180\n 23961: i32 a1 = a1 + 0\n 23963: a0 = 0x1\n 23966: a2 = 0\n 23968: ecalli 13 // 'seal_return'\n 23970: jump @1045\n      : @847 (gas: 6)\n 23973: a1 = 0x20180\n 23978: i32 a1 = a1 + 0\n 23980: a0 = 0x1\n 23983: a2 = 0\n 23985: ecalli 13 // 'seal_return'\n 23987: jump @1045\n      : @848 (gas: 11)\n 23990: a2 = s1 + 0x7ff\n 23994: a2 = a2 + 0x119\n 23998: u64 [a2 + 1048] = 0\n 24002: u64 [a2 + 1040] = 0\n 24006: a0 = 0xd5b25b6300000000\n 24016: u64 [a2 + 0x420] = a0\n 24020: a1 = s1 + 0x7ff\n 24024: a1 = a1 + 0x521\n 24028: u64 [a2 + 1032] = 0\n 24032: a0 = 0\n 24034: ra = 858, jump @24\n      : @849 [@dyn 429] (gas: 2)\n 24040: a1 = i32 [0x20170]\n 24045: jump @851 if a1 >u 31\n      : @850 (gas: 3)\n 24049: u32 [0x20170] = 0x20\n 24055: a1 = 0x20180\n 24060: jump @862\n      : @851 (gas: 2)\n 24063: a1 = 0x20180\n 24068: jump @862\n      : @852 (gas: 10)\n 24071: a0 = s1 + 0x1918\n 24075: u64 [a0 + 1336] = 0\n 24079: u64 [a0 + 1328] = 0\n 24083: u64 [a0 + 1320] = 0\n 24087: a2 = a0\n 24089: a0 = 0x4e487b7100000000\n 24099: a1 = s1 + 0x1e40\n 24103: u64 [a2 + 0x540] = a0\n 24107: a0 = 0\n 24109: ra = 860, jump @24\n      : @853 [@dyn 430] (gas: 3)\n 24115: t0 = 0x35e\n 24119: a1 = s1 + 0x1918\n 24123: fallthrough\n      : @854 [@dyn 431] (gas: 8)\n 24124: u64 [a1 + 1312] = 0\n 24128: u64 [a1 + 1304] = 0\n 24132: u64 [a1 + 1288] = 0x41\n 24137: a2 = a1\n 24139: a0 = 0x4\n 24142: a1 = s1 + 0x1e20\n 24146: u64 [a2 + 1296] = 0\n 24150: ra = 864, jump @24\n      : @855 [@dyn 432] (gas: 3)\n 24156: a0 = u64 [s1 + 0xa8]\n 24160: a0 = i32 [a0]\n 24162: jump @857 if a0 >u 63\n      : @856 (gas: 3)\n 24166: a1 = u64 [s1 + 0xa8]\n 24170: u32 [a1 + 0] = 0x40\n 24173: fallthrough\n      : @857 (gas: 5)\n 24174: a0 = 0x1\n 24177: a2 = 0x24\n 24180: a1 = u64 [s1 + 0xa0]\n 24184: ecalli 13 // 'seal_return'\n 24186: fallthrough\n      : @858 (gas: 9)\n 24187: a2 = s1 + 0x2118\n 24191: u64 [a2 + 1080] = 0\n 24195: u64 [a2 + 1072] = 0\n 24199: a0 = 0xcc67c13b00000000\n 24209: u64 [a2 + 0x440] = a0\n 24213: a1 = s1 + 0x2540\n 24217: u64 [a2 + 1064] = 0\n 24221: a0 = 0\n 24223: ra = 866, jump @24\n      : @859 [@dyn 433] (gas: 2)\n 24229: a1 = i32 [0x20170]\n 24234: jump @861 if a1 >u 31\n      : @860 (gas: 3)\n 24238: u32 [0x20170] = 0x20\n 24244: a1 = 0x20180\n 24249: jump @862\n      : @861 (gas: 2)\n 24251: a1 = 0x20180\n 24256: fallthrough\n      : @862 (gas: 6)\n 24257: i32 a1 = a1 + 0\n 24259: a0 = 0x1\n 24262: a2 = 0x4\n 24265: ra = 0x364\n 24269: ecalli 13 // 'seal_return'\n 24271: fallthrough\n      : @863 [@dyn 434] (gas: 1)\n 24272: jump @871 if a0 != 2618616686\n      : @864 (gas: 11)\n 24279: a0 = s1 + 0x2918\n 24283: u64 [a0 + 864] = 0\n 24287: u64 [a0 + 856] = 0\n 24291: u64 [a0 + 848] = 0\n 24295: u64 [a0 + 840] = 0\n 24299: a0 = s1 + 0x3000\n 24303: i32 a0 = a0 + 0xfffffffffffffc60\n 24307: ra = 0x366\n 24311: ecalli 16 // 'value_transferred'\n 24313: t0 = 0x368\n 24317: jump @1573\n      : @865 [@dyn 435] (gas: 1)\n 24320: t0 = 872, jump @1573\n      : @866 [@dyn 436] (gas: 1)\n 24326: t0 = 874, jump @1577\n      : @867 [@dyn 437] (gas: 1)\n 24332: jump @887 if a0 == 0\n      : @868 (gas: 6)\n 24336: a1 = 0x20180\n 24341: i32 a1 = a1 + 0\n 24343: a0 = 0x1\n 24346: a2 = 0\n 24348: ecalli 13 // 'seal_return'\n 24350: jump @1045\n      : @869 (gas: 6)\n 24353: a1 = 0x20180\n 24358: i32 a1 = a1 + 0\n 24360: a0 = 0x1\n 24363: a2 = 0\n 24365: ecalli 13 // 'seal_return'\n 24367: jump @1045\n      : @870 (gas: 6)\n 24370: a1 = 0x20180\n 24375: i32 a1 = a1 + 0\n 24377: a0 = 0x1\n 24380: a2 = 0\n 24382: ecalli 13 // 'seal_return'\n 24384: jump @1045\n      : @871 (gas: 1)\n 24387: jump @889 if a0 != 2685688103\n      : @872 (gas: 11)\n 24395: a0 = s1 + 0x2918\n 24399: u64 [a0 + 896] = 0\n 24403: u64 [a0 + 888] = 0\n 24407: u64 [a0 + 880] = 0\n 24411: u64 [a0 + 872] = 0\n 24415: a0 = s1 + 0x3000\n 24419: i32 a0 = a0 + 0xfffffffffffffc80\n 24423: ra = 0x36c\n 24427: ecalli 16 // 'value_transferred'\n 24429: t0 = 0x36e\n 24433: jump @1573\n      : @873 [@dyn 438] (gas: 1)\n 24436: t0 = 878, jump @1573\n      : @874 [@dyn 439] (gas: 1)\n 24442: t0 = 880, jump @1533\n      : @875 [@dyn 440] (gas: 1)\n 24448: jump @894 if a0 == 0\n      : @876 (gas: 6)\n 24452: a1 = 0x20180\n 24457: i32 a1 = a1 + 0\n 24459: a0 = 0x1\n 24462: a2 = 0\n 24464: ecalli 13 // 'seal_return'\n 24466: jump @1045\n      : @877 (gas: 2)\n 24469: u64 [s1 + 344] = 0\n 24473: fallthrough\n      : @878 (gas: 5)\n 24474: a0 = u64 [s1 + 0x168]\n 24478: a0 = a0 << 0x1\n 24481: a4 = u64 [s1 + 0x158]\n 24485: a4 = a4 | a0\n 24488: fallthrough\n      : @879 (gas: 7)\n 24489: u64 [s1 + 984] = 0\n 24493: u64 [s1 + 976] = 0\n 24497: u64 [s1 + 968] = 0\n 24501: a1 = s1 + 0x3c0\n 24505: u64 [s1 + 0x3c0] = a4\n 24509: a0 = u64 [s1 + 0x118]\n 24513: ra = 882, jump @24\n      : @880 [@dyn 441] (gas: 3)\n 24519: a1 = 0x20\n 24522: a0 = u64 [s1 + 0x118]\n 24526: ra = 884, jump @37\n      : @881 [@dyn 442] (gas: 5)\n 24532: i32 a1 = a0 + 0\n 24534: a2 = 0x20\n 24537: a0 = 0\n 24539: ecalli 13 // 'seal_return'\n 24541: jump @883\n      : @882 (gas: 4)\n 24543: a2 = 0x20\n 24546: a0 = 0\n 24548: ecalli 13 // 'seal_return'\n 24550: fallthrough\n      : @883 (gas: 10)\n 24551: a0 = s1 + 0x1918\n 24555: u64 [a0 + 1400] = 0\n 24559: u64 [a0 + 1392] = 0\n 24563: u64 [a0 + 1384] = 0\n 24567: a2 = a0\n 24569: a0 = 0x4e487b7100000000\n 24579: a1 = s1 + 0x1e80\n 24583: u64 [a2 + 0x580] = a0\n 24587: a0 = 0\n 24589: ra = 886, jump @24\n      : @884 [@dyn 443] (gas: 3)\n 24595: t0 = 0x378\n 24599: a1 = s1 + 0x1918\n 24603: fallthrough\n      : @885 [@dyn 444] (gas: 9)\n 24604: u64 [a1 + 1376] = 0\n 24608: u64 [a1 + 1368] = 0\n 24612: u64 [a1 + 1352] = 0x41\n 24617: a2 = a1\n 24619: a0 = 0x4\n 24622: a1 = s1 + 0x1e60\n 24626: u64 [a2 + 1360] = 0\n 24630: ra = 0x360\n 24634: jump @24\n      : @886 (gas: 15)\n 24637: a3 = a4\n 24639: a0 = s1 + 0x1918\n 24643: u64 [a0 + 1472] = 0\n 24647: a5 = s1 + 0x100\n 24651: a1 = u64 [a5]\n 24653: u64 [a0 + 0x5a8] = a1\n 24657: a1 = u64 [s1 + 0xf8]\n 24661: u64 [a0 + 0x5b0] = a1\n 24665: a1 = s1 + 0x1ec0\n 24669: a2 = u64 [a5 + 0x8]\n 24672: u64 [a0 + 0x5b8] = a2\n 24676: a0 = a4\n 24678: u64 [a5 + 0x98] = a3\n 24682: ra = 0x3e\n 24685: jump @24\n      : @887 (gas: 3)\n 24688: a0 = u64 [s1 + 0x198]\n 24692: a0 = i32 [a0]\n 24694: jump @896 if a0 >u 99\n      : @888 (gas: 6)\n 24699: a1 = 0x20180\n 24704: i32 a1 = a1 + 0\n 24706: a0 = 0x1\n 24709: a2 = 0\n 24711: ecalli 13 // 'seal_return'\n 24713: jump @1045\n      : @889 (gas: 1)\n 24716: jump @901 if a0 != 3058722618\n      : @890 (gas: 11)\n 24724: a0 = s1 + 0x2918\n 24728: u64 [a0 + 1024] = 0\n 24732: u64 [a0 + 1016] = 0\n 24736: u64 [a0 + 1008] = 0\n 24740: u64 [a0 + 1000] = 0\n 24744: a0 = s1 + 0x3000\n 24748: i32 a0 = a0 + 0xfffffffffffffd00\n 24752: ra = 0x37a\n 24756: ecalli 16 // 'value_transferred'\n 24758: t0 = 0x37c\n 24762: jump @1573\n      : @891 [@dyn 445] (gas: 1)\n 24765: t0 = 892, jump @1573\n      : @892 [@dyn 446] (gas: 8)\n 24771: a0 = u64 [a4 + 0xf8]\n 24775: a1 = u64 [a3 + 0x400]\n 24779: a2 = u64 [a4 + 0xf0]\n 24783: a3 = u64 [a4 + 0xe8]\n 24787: a1 = a1 | a2\n 24790: a0 = a0 | a3\n 24793: a0 = a0 | a1\n 24796: jump @907 if a0 == 0\n      : @893 (gas: 6)\n 24800: a1 = 0x20180\n 24805: i32 a1 = a1 + 0\n 24807: a0 = 0x1\n 24810: a2 = 0\n 24812: ecalli 13 // 'seal_return'\n 24814: jump @1045\n      : @894 (gas: 3)\n 24817: a0 = u64 [s1 + 0x198]\n 24821: a0 = i32 [a0]\n 24823: jump @910 if a0 >u 67\n      : @895 (gas: 6)\n 24828: a1 = 0x20180\n 24833: i32 a1 = a1 + 0\n 24835: a0 = 0x1\n 24838: a2 = 0\n 24840: ecalli 13 // 'seal_return'\n 24842: jump @1045\n      : @896 (gas: 4)\n 24845: a0 = s1 + 0x17c0\n 24849: ra = 0x37e\n 24853: t0 = 0x588\n 24857: jump @1560\n      : @897 [@dyn 447] (gas: 14)\n 24860: a1 = s1 + 0x1118\n 24864: a2 = a1 + 0x600\n 24868: a0 = u64 [a2 + 0xa8]\n 24872: u64 [s1 + 0x198] = a0\n 24876: a0 = u64 [a2 + 0xb0]\n 24880: u64 [s1 + 0x190] = a0\n 24884: a0 = u64 [a2 + 0xb8]\n 24888: u64 [s1 + 0x188] = a0\n 24892: a0 = u64 [a2 + 0xc0]\n 24896: u64 [s1 + 0x180] = a0\n 24900: a0 = s1 + 0x17a0\n 24904: ra = 0x380\n 24908: t0 = 0x58c\n 24912: jump @1575\n      : @898 [@dyn 448] (gas: 14)\n 24915: a1 = s1 + 0x1118\n 24919: a2 = a1 + 0x600\n 24923: a0 = u64 [a2 + 0x88]\n 24927: u64 [s1 + 0x178] = a0\n 24931: a0 = u64 [a2 + 0x90]\n 24935: u64 [s1 + 0x170] = a0\n 24939: a0 = u64 [a2 + 0x98]\n 24943: u64 [s1 + 0x168] = a0\n 24947: a0 = u64 [a2 + 0xa0]\n 24951: u64 [s1 + 0x160] = a0\n 24955: a0 = s1 + 0x1780\n 24959: ra = 0x382\n 24963: t0 = 0x592\n 24967: jump @1575\n      : @899 [@dyn 449] (gas: 31)\n 24970: a4 = s1 + 0x1118\n 24974: a5 = a4 + 0x600\n 24978: a0 = u64 [a5 + 0x68]\n 24981: a1 = u64 [a5 + 0x70]\n 24984: a2 = u64 [a5 + 0x78]\n 24987: a3 = u64 [a5 + 0x80]\n 24991: u64 [a5 + 0x20] = a3\n 24994: u64 [a5 + 0x18] = a2\n 24997: u64 [a5 + 0x10] = a1\n 25000: u64 [a5 + 0x8] = a0\n 25003: a4 = s1 + 0x100\n 25007: a0 = u64 [a4 + 0x60]\n 25010: u64 [a5 + 0x40] = a0\n 25013: a0 = u64 [a4 + 0x68]\n 25016: u64 [a5 + 0x38] = a0\n 25019: a0 = u64 [a4 + 0x70]\n 25022: u64 [a5 + 0x30] = a0\n 25025: a0 = u64 [a4 + 0x78]\n 25028: u64 [a5 + 0x28] = a0\n 25031: a0 = u64 [a4 + 0x80]\n 25035: u64 [a5 + 0x60] = a0\n 25038: a0 = u64 [a4 + 0x88]\n 25042: u64 [a5 + 0x58] = a0\n 25045: a0 = u64 [a4 + 0x90]\n 25049: u64 [a5 + 0x50] = a0\n 25052: a0 = s1 + 0x1760\n 25056: a1 = s1 + 0x1740\n 25060: a2 = s1 + 0x1720\n 25064: a3 = u64 [a4 + 0x98]\n 25068: u64 [a5 + 0x48] = a3\n 25071: ra = 900, jump @1358\n      : @900 [@dyn 450] (gas: 6)\n 25077: a1 = 0x20180\n 25082: i32 a1 = a1 + 0\n 25084: a0 = 0\n 25086: a2 = 0\n 25088: ecalli 13 // 'seal_return'\n 25090: jump @1045\n      : @901 (gas: 1)\n 25093: jump @962 if a0 != 235423050\n      : @902 (gas: 11)\n 25101: a0 = s1 + 0x2118\n 25105: u64 [a0 + 1600] = 0\n 25109: u64 [a0 + 1592] = 0\n 25113: u64 [a0 + 1584] = 0\n 25117: u64 [a0 + 1576] = 0\n 25121: a0 = s1 + 0x2000\n 25125: i32 a0 = a0 + 0x740\n 25129: ra = 0x386\n 25133: ecalli 16 // 'value_transferred'\n 25135: t0 = 0x388\n 25139: jump @1572\n      : @903 [@dyn 451] (gas: 1)\n 25142: t0 = 904, jump @1572\n      : @904 [@dyn 452] (gas: 1)\n 25148: t0 = 906, jump @1544\n      : @905 [@dyn 453] (gas: 1)\n 25154: jump @966 if a0 == 0\n      : @906 (gas: 6)\n 25158: a1 = 0x20180\n 25163: i32 a1 = a1 + 0\n 25165: a0 = 0x1\n 25168: a2 = 0\n 25170: ecalli 13 // 'seal_return'\n 25172: jump @1045\n      : @907 (gas: 1)\n 25175: t0 = 908, jump @1559\n      : @908 [@dyn 454] (gas: 1)\n 25181: jump @969 if a1 <u a0\n      : @909 (gas: 6)\n 25185: a1 = 0x20180\n 25190: i32 a1 = a1 + 0\n 25192: a0 = 0x1\n 25195: a2 = 0\n 25197: ecalli 13 // 'seal_return'\n 25199: jump @1045\n      : @910 (gas: 4)\n 25202: a0 = s1 + 0x1b40\n 25206: ra = 0x38e\n 25210: t0 = 0x59c\n 25214: jump @1560\n      : @911 [@dyn 455] (gas: 7)\n 25217: a0 = s1 + 0x1918\n 25221: a0 = u64 [a0 + 0x228]\n 25225: u64 [s1 + 0x190] = a0\n 25229: a0 = s1 + 0x1b20\n 25233: ra = 0x390\n 25237: t0 = 0x58c\n 25241: jump @1575\n      : @912 [@dyn 456] (gas: 12)\n 25244: a0 = s1 + 0x1918\n 25248: a0 = u64 [a0 + 0x208]\n 25252: u64 [s1 + 0xf0] = a0\n 25256: a0 = 0x30180\n 25261: u64 [s1 + 0x108] = a0\n 25265: i32 a0 = a0 + 0\n 25267: u64 [s1 + 0x100] = a0\n 25271: ra = 0x392\n 25275: ecalli 4 // 'caller'\n 25277: a2 = u64 [s1 + 0x108]\n 25281: t0 = 0x394\n 25285: jump @1498\n      : @913 [@dyn 457] (gas: 2)\n 25288: a2 = u64 [s1 + 0x108]\n 25292: t0 = 916, jump @1498\n      : @914 [@dyn 458] (gas: 8)\n 25298: u64 [a2 + 512] = 0\n 25302: a4 = a2 + 0x100\n 25306: u64 [a4 + 0xf8] = a1\n 25310: u64 [a4 + 0xf0] = a0\n 25314: a1 = s1 + 0x1b00\n 25318: u64 [a4 + 0xe8] = a3\n 25322: a0 = 0\n 25324: ra = 918, jump @24\n      : @915 [@dyn 459] (gas: 3)\n 25330: t0 = 0x398\n 25334: a1 = s1 + 0x1918\n 25338: fallthrough\n      : @916 [@dyn 460] (gas: 8)\n 25339: u64 [a1 + 480] = 0\n 25343: u64 [a1 + 472] = 0\n 25347: u64 [a1 + 456] = 0x2\n 25352: a2 = a1\n 25354: a0 = 0x20\n 25357: a1 = s1 + 0x1ae0\n 25361: u64 [a2 + 464] = 0\n 25365: ra = 922, jump @24\n      : @917 [@dyn 461] (gas: 5)\n 25371: a0 = 0x20170\n 25376: u64 [s1 + 0x118] = a0\n 25380: a0 = i32 [0x20170]\n 25385: a1 = 0x3f\n 25388: jump @919 if a1 <u a0\n      : @918 (gas: 4)\n 25391: a1 = u64 [s1 + 0x118]\n 25395: u32 [a1 + 0] = 0x40\n 25398: t0 = 0x39c\n 25402: jump @1542\n      : @919 (gas: 1)\n 25405: t0 = 924, jump @1542\n      : @920 [@dyn 462] (gas: 10)\n 25411: a0 = 0x20180\n 25416: i32 a0 = a0 + 0\n 25418: i32 a2 = a2 + 0\n 25420: a1 = 0x40\n 25423: u64 [s1 + 0x110] = a0\n 25427: ra = 0x39e\n 25431: ecalli 8 // 'hash_keccak_256'\n 25433: a3 = u64 [s1 + 0x198]\n 25437: t0 = 0x3a0\n 25441: jump @1517\n      : @921 [@dyn 463] (gas: 2)\n 25444: a3 = u64 [s1 + 0x198]\n 25448: t0 = 928, jump @1517\n      : @922 [@dyn 464] (gas: 14)\n 25454: u64 [s1 + 0x198] = a0\n 25458: sp = a0\n 25460: a0 = u64 [s1 + 0x190]\n 25464: a0 = a0 << 0x20\n 25467: a2 = a0 >> 0x20\n 25470: a0 = s1 + 0x1918\n 25474: u64 [a0 + 448] = 0\n 25478: u64 [a0 + 440] = 0\n 25482: u64 [a0 + 432] = 0\n 25486: a1 = s1 + 0x1ac0\n 25490: u64 [s1 + 0xf8] = a2\n 25494: u64 [a0 + 0x1a8] = a2\n 25498: a0 = 0\n 25500: ra = 930, jump @24\n      : @923 [@dyn 465] (gas: 14)\n 25506: a0 = u64 [s1 + 0x170]\n 25510: a1 = s1 + 0x1918\n 25514: a2 = a1 + 0x100\n 25518: u64 [a2 + 0xa0] = a0\n 25522: a0 = u64 [s1 + 0x178]\n 25526: u64 [a2 + 0x98] = a0\n 25530: a0 = u64 [s1 + 0x180]\n 25534: u64 [a2 + 0x90] = a0\n 25538: a3 = a1\n 25540: a0 = 0x20\n 25543: a1 = s1 + 0x1aa0\n 25547: a2 = u64 [s1 + 0x188]\n 25551: u64 [a3 + 0x188] = a2\n 25555: ra = 932, jump @24\n      : @924 [@dyn 466] (gas: 3)\n 25561: a0 = u64 [s1 + 0x118]\n 25565: a0 = i32 [a0]\n 25567: jump @926 if a0 >u 63\n      : @925 (gas: 4)\n 25571: a0 = u64 [s1 + 0x118]\n 25575: u32 [a0 + 0] = 0x40\n 25578: t0 = 0x3a6\n 25582: jump @1505\n      : @926 (gas: 1)\n 25585: t0 = 934, jump @1505\n      : @927 [@dyn 467] (gas: 5)\n 25591: ra = 0x3a8\n 25595: ecalli 8 // 'hash_keccak_256'\n 25597: a3 = u64 [s1 + 0x190]\n 25601: t0 = 0x3aa\n 25605: jump @1511\n      : @928 [@dyn 468] (gas: 2)\n 25608: a3 = u64 [s1 + 0x190]\n 25612: t0 = 938, jump @1511\n      : @929 [@dyn 469] (gas: 11)\n 25618: a4 = u64 [s1 + 0x198]\n 25622: u64 [a4 + 0x18] = a3\n 25625: u64 [a4 + 0x10] = a2\n 25628: u64 [a4 + 0x8] = a1\n 25631: u64 [a4] = a0\n 25633: a0 = u64 [s1 + 0x100]\n 25637: ra = 0x3ac\n 25641: ecalli 4 // 'caller'\n 25643: a2 = u64 [s1 + 0x108]\n 25647: t0 = 0x3ae\n 25651: jump @1558\n      : @930 [@dyn 470] (gas: 2)\n 25654: a2 = u64 [s1 + 0x108]\n 25658: t0 = 942, jump @1558\n      : @931 [@dyn 471] (gas: 10)\n 25664: u64 [s1 + 0x190] = a1\n 25668: a0 = a0 >> 0x20\n 25671: a1 = reverse a2\n 25673: u64 [s1 + 0x188] = a1\n 25677: a1 = a1 << 0x20\n 25680: a0 = a0 | a1\n 25683: u64 [s1 + 0x180] = a0\n 25687: a0 = s1 + 0x1a80\n 25691: a1 = u64 [s1 + 0x198]\n 25695: ra = 944, jump @26\n      : @932 [@dyn 472] (gas: 2)\n 25701: a2 = s1 + 0x1918\n 25705: fallthrough\n      : @933 (gas: 19)\n 25706: a0 = u64 [a2 + 0x170]\n 25710: a1 = u32 [a2 + 0x16c]\n 25714: a2 = u64 [a2 + 0x178]\n 25718: a3 = a0 << 0x20\n 25721: a1 = a1 | a3\n 25724: a3 = a2 << 0x20\n 25727: a0 = a0 >> 0x20\n 25730: a0 = a0 | a3\n 25733: a4 = s1 + 0x100\n 25737: a3 = u64 [a4 + 0x80]\n 25741: a0 = a0 ^ a3\n 25744: a3 = u64 [a4 + 0x90]\n 25748: a1 = a1 ^ a3\n 25751: a3 = u64 [a4 + 0x88]\n 25755: a2 = a2 ^ a3\n 25758: a2 = a2 >> 0x20\n 25761: a1 = a1 | a2\n 25764: a0 = a0 | a1\n 25767: jump @1011 if a0 != 0\n      : @934 (gas: 4)\n 25771: a0 = s1 + 0x3000\n 25775: i32 a0 = a0 + 0xfffffffffffffca0\n 25779: ecalli 9 // 'now'\n 25781: fallthrough\n      : @935 (gas: 51)\n 25782: a0 = s1 + 0x2918\n 25786: t0 = u64 [a0 + 0x3a0]\n 25790: a4 = u64 [a0 + 0x398]\n 25794: u64 [s1 + 0x158] = a4\n 25798: t2 = u64 [a0 + 0x390]\n 25802: a3 = u64 [a0 + 0x388]\n 25806: u64 [s1 + 0x140] = a3\n 25810: a0 = clz t0\n 25812: a1 = clz a4\n 25814: a2 = a1 + 0x40\n 25817: a2 = a0 if t0 != 0\n 25820: a0 = clz t2\n 25822: a1 = clz a3\n 25824: a1 = a1 + 0x40\n 25827: a1 = a0 if t2 != 0\n 25830: a0 = a1 + 0x80\n 25834: a3 = a4 | t0\n 25837: a2 = a0 if a3 == 0\n 25840: a5 = a0 <u a1\n 25843: a5 = 0 if a3 != 0\n 25845: a4 = a5 >u 0\n 25847: a0 = a2 <u 0xf0\n 25851: a3 = a0 ^ 0x1\n 25854: a4 = a3 if a5 == 0\n 25857: a0 = a4 <u 0x1\n 25860: ra = a0 + 0xffffffffffffffff\n 25863: t1 = -a4\n 25865: a5 = -a5\n 25867: a3 = a5 - a3\n 25870: a2 = 0xef - a2\n 25874: a5 = t1 >u 0\n 25876: a0 = ra >u 0\n 25878: a0 = a5 if ra == 0\n 25881: a5 = a2 <u 0x100\n 25885: a5 = a5 ^ 0x1\n 25888: a1 = a3 >u 0\n 25890: a5 = a1 if a3 != 0\n 25893: a5 = a0 if a4 != 0\n 25896: u64 [s1 + 0x138] = t2\n 25900: u64 [s1 + 0x150] = t0\n 25904: a0 = t2 | t0\n 25907: a4 = u64 [s1 + 0x140]\n 25911: a1 = u64 [s1 + 0x158]\n 25915: a1 = a1 | a4\n 25918: a0 = a0 | a1\n 25921: a0 = a0 <u 0x1\n 25924: a0 = a0 | a5\n 25927: a1 = a4\n 25929: a1 = 0 if a0 != 0\n 25931: u64 [s1 + 0x198] = a1\n 25935: jump @1015 if a0 != 0\n      : @936 (gas: 1)\n 25939: t0 = 946, jump @1576\n      : @937 [@dyn 473] (gas: 1)\n 25945: jump @1015 if a0 == 0\n      : @938 (gas: 1)\n 25949: t0 = 948, jump @1507\n      : @939 [@dyn 474] (gas: 1)\n 25955: ra = 950, jump @1580\n      : @940 [@dyn 475] (gas: 1)\n 25961: t0 = 952, jump @1564\n      : @941 [@dyn 476] (gas: 1)\n 25967: ra = 954, jump @1585\n      : @942 [@dyn 477] (gas: 1)\n 25973: t0 = 956, jump @1552\n      : @943 [@dyn 478] (gas: 1)\n 25979: ra = 958, jump @1585\n      : @944 [@dyn 479] (gas: 8)\n 25985: u64 [s1 + 0x120] = a0\n 25989: u64 [s1 + 0xe8] = a1\n 25993: a2 = u64 [s1 + 0x160]\n 25997: a0 = a2 <u 0x80\n 26001: u64 [s1 + 0xe0] = a0\n 26005: a0 = u64 [s1 + 0x140]\n 26009: a1 = u64 [s1 + 0x138]\n 26013: ra = 960, jump @1585\n      : @945 [@dyn 480] (gas: 1)\n 26019: t0 = 962, jump @1579\n      : @946 [@dyn 481] (gas: 4)\n 26025: a3 = u64 [s1 + 0xe0]\n 26029: a0 = 0 if a3 == 0\n 26031: u64 [a4 + 0x78] = a0\n 26034: jump @1013 if a1 == 0\n      : @947 (gas: 7)\n 26038: a2 = a3\n 26040: a0 = u64 [s1 + 0x168]\n 26044: a1 = u64 [s1 + 0x128]\n 26048: a0 = a0 | a1\n 26051: a5 = a3\n 26053: a1 = u64 [s1 + 0xe8]\n 26057: t0 = 964, jump @1503\n      : @948 [@dyn 482] (gas: 1)\n 26063: ra = 966, jump @1580\n      : @949 [@dyn 483] (gas: 1)\n 26069: t0 = 968, jump @1563\n      : @950 [@dyn 484] (gas: 1)\n 26075: ra = 970, jump @1580\n      : @951 [@dyn 485] (gas: 2)\n 26081: u64 [s1 + 0xe8] = a0\n 26085: t0 = 972, jump @1556\n      : @952 [@dyn 486] (gas: 1)\n 26091: ra = 974, jump @1585\n      : @953 [@dyn 487] (gas: 1)\n 26097: t0 = 976, jump @1524\n      : @954 [@dyn 488] (gas: 2)\n 26103: a1 = u64 [s1 + 0xe8]\n 26107: t0 = 978, jump @1535\n      : @955 [@dyn 489] (gas: 1)\n 26113: ra = 980, jump @1580\n      : @956 [@dyn 490] (gas: 1)\n 26119: t0 = 982, jump @1516\n      : @957 [@dyn 491] (gas: 1)\n 26125: t0 = 984, jump @1525\n      : @958 [@dyn 492] (gas: 5)\n 26131: t0 = ra <u a2\n 26134: a4 = u64 [s1 + 0x128]\n 26138: a5 = a4 <u a3\n 26141: a5 = t0 if t1 != 0\n 26144: t0 = 986, jump @1526\n      : @959 [@dyn 493] (gas: 20)\n 26150: t0 = a0 | a1\n 26153: a1 = a4 << 0x1\n 26156: a4 = u64 [s1 + 0x170]\n 26160: t1 = a4 >> 0x3f\n 26163: t1 = a1 | t1\n 26166: a1 = a4 << 0x1\n 26169: a4 = u64 [s1 + 0x178]\n 26173: t2 = a4 >> 0x3f\n 26176: a1 = a1 | t2\n 26179: a4 = a4 << 0x1\n 26182: a0 = u64 [s1 + 0x158]\n 26186: a4 = a4 | a0\n 26189: u64 [s1 + 0x178] = a4\n 26193: a0 = u64 [s1 + 0x150]\n 26197: a1 = a1 | a0\n 26200: u64 [s1 + 0x170] = a1\n 26204: a1 = a0 | t1\n 26207: u64 [s1 + 0x160] = a1\n 26211: a0 = a0 | t0\n 26214: t0 = 988, jump @1501\n      : @960 [@dyn 494] (gas: 18)\n 26220: t0 = a4 <u a2\n 26223: a2 = a4 - a2\n 26226: a4 = a3 <u 0x1\n 26229: a5 = a5 - a4\n 26232: a4 = u64 [a0 + 0x88]\n 26236: a4 = a4 - t0\n 26239: a3 = a3 + 0xffffffffffffffff\n 26242: u64 [a0 + 0x90] = a5\n 26246: u64 [a0 + 0x88] = a4\n 26250: t0 = a5 | a4\n 26253: u64 [a0 + 0x98] = a3\n 26257: a4 = a3 | a2\n 26260: a3 = a4 | t0\n 26263: a4 = ra & 0x1\n 26266: u64 [a0 + 0x58] = a4\n 26269: u64 [a0 + 0x80] = a2\n 26273: u64 [s1 + 336] = 0\n 26277: jump @957 if a3 != 0\n      : @961 (gas: 1)\n 26281: jump @1014\n      : @962 (gas: 1)\n 26284: jump @1038 if a0 != 1158823118\n      : @963 (gas: 9)\n 26292: a0 = s1 + 0x2918\n 26296: u64 [a0 + 0] = 0\n 26298: u64 [a0 + 4294967288] = 0\n 26301: u64 [a0 + 4294967280] = 0\n 26304: u64 [a0 + 4294967272] = 0\n 26307: a0 = s1 + 0x3000\n 26311: i32 a0 = a0 + 0xfffffffffffff900\n 26315: ecalli 16 // 'value_transferred'\n 26317: fallthrough\n      : @964 (gas: 10)\n 26318: a3 = s1 + 0x2918\n 26322: a4 = a3 + 0xffffffffffffff00\n 26326: a0 = u64 [a4 + 0xf8]\n 26330: a1 = u64 [a3]\n 26332: a2 = u64 [a4 + 0xf0]\n 26336: a3 = u64 [a4 + 0xe8]\n 26340: a1 = a1 | a2\n 26343: a0 = a0 | a3\n 26346: a0 = a0 | a1\n 26349: jump @1045 if a0 == 0\n      : @965 (gas: 6)\n 26353: a1 = 0x20180\n 26358: i32 a1 = a1 + 0\n 26360: a0 = 0x1\n 26363: a2 = 0\n 26365: ecalli 13 // 'seal_return'\n 26367: jump @1045\n      : @966 (gas: 1)\n 26370: t0 = 990, jump @1559\n      : @967 [@dyn 495] (gas: 1)\n 26376: jump @1047 if a1 <u a0\n      : @968 (gas: 6)\n 26380: a1 = 0x20180\n 26385: i32 a1 = a1 + 0\n 26387: a0 = 0x1\n 26390: a2 = 0\n 26392: ecalli 13 // 'seal_return'\n 26394: jump @1045\n      : @969 (gas: 4)\n 26397: a0 = s1 + 0x1dc0\n 26401: ra = 0x3e0\n 26405: t0 = 0x59c\n 26409: jump @1560\n      : @970 [@dyn 496] (gas: 12)\n 26412: a0 = s1 + 0x1918\n 26416: a0 = u64 [a0 + 0x4a8]\n 26420: u64 [s1 + 0x170] = a0\n 26424: a0 = 0x30180\n 26429: u64 [s1 + 0x188] = a0\n 26433: i32 a0 = a0 + 0\n 26435: u64 [s1 + 0x180] = a0\n 26439: ra = 0x3e2\n 26443: ecalli 4 // 'caller'\n 26445: a2 = u64 [s1 + 0x188]\n 26449: t0 = 0x3e4\n 26453: jump @1498\n      : @971 [@dyn 497] (gas: 2)\n 26456: a2 = u64 [s1 + 0x188]\n 26460: t0 = 996, jump @1498\n      : @972 [@dyn 498] (gas: 8)\n 26466: u64 [a2 + 1184] = 0\n 26470: a4 = a2 + 0x400\n 26474: u64 [a4 + 0x98] = a1\n 26478: u64 [a4 + 0x90] = a0\n 26482: a1 = s1 + 0x1da0\n 26486: u64 [a4 + 0x88] = a3\n 26490: a0 = 0\n 26492: ra = 998, jump @24\n      : @973 [@dyn 499] (gas: 3)\n 26498: t0 = 0x3e8\n 26502: a1 = s1 + 0x1918\n 26506: fallthrough\n      : @974 [@dyn 500] (gas: 8)\n 26507: u64 [a1 + 1152] = 0\n 26511: u64 [a1 + 1144] = 0\n 26515: u64 [a1 + 1128] = 0x2\n 26520: a2 = a1\n 26522: a0 = 0x20\n 26525: a1 = s1 + 0x1d80\n 26529: u64 [a2 + 1136] = 0\n 26533: ra = 1002, jump @24\n      : @975 [@dyn 501] (gas: 4)\n 26539: a0 = 0x20170\n 26544: u64 [s1 + 0x198] = a0\n 26548: a0 = i32 [0x20170]\n 26553: jump @977 if a0 >u 63\n      : @976 (gas: 3)\n 26557: a1 = u64 [s1 + 0x198]\n 26561: u32 [a1 + 0] = 0x40\n 26564: fallthrough\n      : @977 (gas: 12)\n 26565: a0 = sp + 0xffffffffffffffe0\n 26568: a2 = a0 & 0xffffffffffffffe0\n 26571: u64 [s1 + 0x178] = a2\n 26575: sp = a2\n 26577: a0 = 0x20180\n 26582: i32 a0 = a0 + 0\n 26584: i32 a2 = a2 + 0\n 26586: a1 = 0x40\n 26589: u64 [s1 + 0x190] = a0\n 26593: ra = 0x3ec\n 26597: ecalli 8 // 'hash_keccak_256'\n 26599: fallthrough\n      : @978 [@dyn 502] (gas: 14)\n 26600: a3 = u64 [s1 + 0x178]\n 26604: a0 = u64 [a3 + 0x18]\n 26607: a1 = u64 [a3 + 0x10]\n 26610: a2 = u64 [a3 + 0x8]\n 26613: a3 = u64 [a3]\n 26615: a0 = reverse a0\n 26617: u64 [s1 + 0x168] = a0\n 26621: a0 = reverse a1\n 26623: u64 [s1 + 0x160] = a0\n 26627: a0 = reverse a2\n 26629: u64 [s1 + 0x158] = a0\n 26633: a0 = reverse a3\n 26635: u64 [s1 + 0x150] = a0\n 26639: t0 = 1006, jump @1566\n      : @979 [@dyn 503] (gas: 12)\n 26645: a0 = u64 [s1 + 0x170]\n 26649: a0 = a0 << 0x20\n 26652: a2 = a0 >> 0x20\n 26655: a0 = s1 + 0x1918\n 26659: u64 [a0 + 1120] = 0\n 26663: u64 [a0 + 1112] = 0\n 26667: u64 [a0 + 1104] = 0\n 26671: a1 = s1 + 0x1d60\n 26675: u64 [s1 + 0x170] = a2\n 26679: u64 [a0 + 0x448] = a2\n 26683: a0 = 0\n 26685: ra = 1008, jump @24\n      : @980 [@dyn 504] (gas: 14)\n 26691: a0 = u64 [s1 + 0x150]\n 26695: a1 = s1 + 0x1918\n 26699: a2 = a1 + 0x400\n 26703: u64 [a2 + 0x40] = a0\n 26706: a0 = u64 [s1 + 0x158]\n 26710: u64 [a2 + 0x38] = a0\n 26713: a0 = u64 [s1 + 0x160]\n 26717: u64 [a2 + 0x30] = a0\n 26720: a3 = a1\n 26722: a0 = 0x20\n 26725: a1 = s1 + 0x1d40\n 26729: a2 = u64 [s1 + 0x168]\n 26733: u64 [a3 + 0x428] = a2\n 26737: ra = 1010, jump @24\n      : @981 [@dyn 505] (gas: 3)\n 26743: a0 = u64 [s1 + 0x198]\n 26747: a0 = i32 [a0]\n 26749: jump @983 if a0 >u 63\n      : @982 (gas: 3)\n 26753: a0 = u64 [s1 + 0x198]\n 26757: u32 [a0 + 0] = 0x40\n 26760: fallthrough\n      : @983 (gas: 4)\n 26761: a0 = sp + 0xffffffffffffffe0\n 26764: a0 = a0 & 0xffffffffffffffe0\n 26767: u64 [s1 + 0x168] = a0\n 26771: t0 = 1012, jump @1500\n      : @984 [@dyn 506] (gas: 5)\n 26777: ra = 0x3f6\n 26781: ecalli 8 // 'hash_keccak_256'\n 26783: a3 = u64 [s1 + 0x168]\n 26787: t0 = 0x3f8\n 26791: jump @1511\n      : @985 [@dyn 507] (gas: 2)\n 26794: a3 = u64 [s1 + 0x168]\n 26798: t0 = 1016, jump @1511\n      : @986 [@dyn 508] (gas: 11)\n 26804: a4 = u64 [s1 + 0x178]\n 26808: u64 [a4 + 0x18] = a3\n 26811: u64 [a4 + 0x10] = a2\n 26814: u64 [a4 + 0x8] = a1\n 26817: u64 [a4] = a0\n 26819: a0 = u64 [s1 + 0x180]\n 26823: ra = 0x3fa\n 26827: ecalli 4 // 'caller'\n 26829: a2 = u64 [s1 + 0x188]\n 26833: t0 = 0x3fc\n 26837: jump @1558\n      : @987 [@dyn 509] (gas: 2)\n 26840: a2 = u64 [s1 + 0x188]\n 26844: t0 = 1020, jump @1558\n      : @988 [@dyn 510] (gas: 10)\n 26850: u64 [s1 + 0x168] = a1\n 26854: a0 = a0 >> 0x20\n 26857: a1 = reverse a2\n 26859: u64 [s1 + 0x160] = a1\n 26863: a1 = a1 << 0x20\n 26866: a0 = a0 | a1\n 26869: u64 [s1 + 0x158] = a0\n 26873: a0 = s1 + 0x1d20\n 26877: a1 = u64 [s1 + 0x178]\n 26881: ra = 1022, jump @26\n      : @989 [@dyn 511] (gas: 2)\n 26887: a2 = s1 + 0x1918\n 26891: fallthrough\n      : @990 (gas: 19)\n 26892: a0 = u64 [a2 + 0x410]\n 26896: a1 = u32 [a2 + 0x40c]\n 26900: a2 = u64 [a2 + 0x418]\n 26904: a3 = a0 << 0x20\n 26907: a1 = a1 | a3\n 26910: a3 = a2 << 0x20\n 26913: a0 = a0 >> 0x20\n 26916: a0 = a0 | a3\n 26919: a4 = s1 + 0x100\n 26923: a3 = u64 [a4 + 0x58]\n 26926: a0 = a0 ^ a3\n 26929: a3 = u64 [a4 + 0x68]\n 26932: a1 = a1 ^ a3\n 26935: a3 = u64 [a4 + 0x60]\n 26938: a2 = a2 ^ a3\n 26941: a2 = a2 >> 0x20\n 26944: a1 = a1 | a2\n 26947: a0 = a0 | a1\n 26950: jump @1059 if a0 != 0\n      : @991 (gas: 6)\n 26954: a0 = u64 [s1 + 0x180]\n 26958: ra = 0x400\n 26962: ecalli 4 // 'caller'\n 26964: a2 = u64 [s1 + 0x188]\n 26968: t0 = 0x402\n 26972: jump @1498\n      : @992 [@dyn 512] (gas: 2)\n 26975: a2 = u64 [s1 + 0x188]\n 26979: t0 = 1026, jump @1498\n      : @993 [@dyn 513] (gas: 8)\n 26985: u64 [a2 + 992] = 0\n 26989: a4 = a2 + 0x300\n 26993: u64 [a4 + 0xd8] = a1\n 26997: u64 [a4 + 0xd0] = a0\n 27001: a1 = s1 + 0x1ce0\n 27005: u64 [a4 + 0xc8] = a3\n 27009: a0 = 0\n 27011: ra = 1028, jump @24\n      : @994 [@dyn 514] (gas: 3)\n 27017: t0 = 0x406\n 27021: a1 = s1 + 0x1918\n 27025: fallthrough\n      : @995 [@dyn 515] (gas: 8)\n 27026: u64 [a1 + 960] = 0\n 27030: u64 [a1 + 952] = 0\n 27034: u64 [a1 + 936] = 0x2\n 27039: a2 = a1\n 27041: a0 = 0x20\n 27044: a1 = s1 + 0x1cc0\n 27048: u64 [a2 + 944] = 0\n 27052: ra = 1032, jump @24\n      : @996 [@dyn 516] (gas: 3)\n 27058: a0 = u64 [s1 + 0x198]\n 27062: a0 = i32 [a0]\n 27064: jump @998 if a0 >u 63\n      : @997 (gas: 3)\n 27068: a1 = u64 [s1 + 0x198]\n 27072: u32 [a1 + 0] = 0x40\n 27075: fallthrough\n      : @998 (gas: 4)\n 27076: a0 = sp + 0xffffffffffffffe0\n 27079: a0 = a0 & 0xffffffffffffffe0\n 27082: u64 [s1 + 0x178] = a0\n 27086: t0 = 1034, jump @1500\n      : @999 [@dyn 517] (gas: 3)\n 27092: ra = 0x40c\n 27096: ecalli 8 // 'hash_keccak_256'\n 27098: fallthrough\n      : @1000 [@dyn 518] (gas: 8)\n 27099: a3 = u64 [s1 + 0x178]\n 27103: a0 = u64 [a3 + 0x18]\n 27106: a1 = u64 [a3 + 0x10]\n 27109: a2 = u64 [a3 + 0x8]\n 27112: a3 = u64 [a3]\n 27114: a0 = reverse a0\n 27116: u64 [s1 + 0x178] = a0\n 27120: t0 = 1038, jump @1555\n      : @1001 [@dyn 519] (gas: 3)\n 27126: t0 = 0x410\n 27130: a2 = s1 + 0x1918\n 27134: fallthrough\n      : @1002 [@dyn 520] (gas: 8)\n 27135: u64 [a2 + 928] = 0\n 27139: u64 [a2 + 920] = 0\n 27143: u64 [a2 + 912] = 0\n 27147: a1 = s1 + 0x1ca0\n 27151: a0 = u64 [s1 + 0x170]\n 27155: u64 [a2 + 0x388] = a0\n 27159: a0 = 0\n 27161: ra = 1042, jump @24\n      : @1003 [@dyn 521] (gas: 14)\n 27167: a0 = u64 [s1 + 0x158]\n 27171: a1 = s1 + 0x1918\n 27175: a2 = a1 + 0x300\n 27179: u64 [a2 + 0x80] = a0\n 27183: a0 = u64 [s1 + 0x160]\n 27187: u64 [a2 + 0x78] = a0\n 27190: a0 = u64 [s1 + 0x168]\n 27194: u64 [a2 + 0x70] = a0\n 27197: a3 = a1\n 27199: a0 = 0x20\n 27202: a1 = s1 + 0x1c80\n 27206: a2 = u64 [s1 + 0x178]\n 27210: u64 [a3 + 0x368] = a2\n 27214: ra = 1044, jump @24\n      : @1004 [@dyn 522] (gas: 3)\n 27220: a0 = u64 [s1 + 0x198]\n 27224: a0 = i32 [a0]\n 27226: jump @1006 if a0 >u 63\n      : @1005 (gas: 3)\n 27230: a0 = u64 [s1 + 0x198]\n 27234: u32 [a0 + 0] = 0x40\n 27237: fallthrough\n      : @1006 (gas: 4)\n 27238: a0 = sp + 0xffffffffffffffe0\n 27241: a0 = a0 & 0xffffffffffffffe0\n 27244: u64 [s1 + 0x178] = a0\n 27248: t0 = 1046, jump @1500\n      : @1007 [@dyn 523] (gas: 28)\n 27254: ecalli 8 // 'hash_keccak_256'\n 27256: a3 = u64 [s1 + 0x178]\n 27260: a0 = u64 [a3]\n 27262: a1 = u64 [a3 + 0x8]\n 27265: a2 = u64 [a3 + 0x10]\n 27268: a3 = u64 [a3 + 0x18]\n 27271: t0 = reverse a0\n 27273: a0 = reverse a1\n 27275: a2 = reverse a2\n 27277: a3 = reverse a3\n 27279: a4 = sp + 0xffffffffffffffe0\n 27282: a1 = a4 & 0xffffffffffffffe0\n 27285: sp = a1\n 27287: a4 = a3 + 0x2\n 27290: a3 = a4 <u a3\n 27293: a5 = a2 + a3\n 27296: a2 = a5 <u a2\n 27299: a2 = a3 if a3 == 0\n 27302: a2 = a2 + a0\n 27305: a0 = a2 <u a0\n 27308: a0 = a0 + t0\n 27311: u64 [a1 + 0x8] = a5\n 27314: u64 [a1] = a4\n 27316: u64 [a1 + 0x10] = a2\n 27319: u64 [a1 + 0x18] = a0\n 27322: a0 = s1 + 0x1c60\n 27326: u64 [s1 + 0x178] = a1\n 27330: ra = 1048, jump @26\n      : @1008 [@dyn 524] (gas: 4)\n 27336: a0 = s1 + 0x1918\n 27340: a0 = u64 [a0 + 0x350]\n 27344: a1 = a0 & 0xff\n 27348: jump @1064 if a1 == 0\n      : @1009 (gas: 3)\n 27352: t0 = 0x41a\n 27356: a2 = s1 + 0x1918\n 27360: fallthrough\n      : @1010 [@dyn 525] (gas: 9)\n 27361: u64 [a2 + 824] = 0\n 27365: u64 [a2 + 816] = 0\n 27369: a0 = 0xc1c184c800000000\n 27379: u64 [a2 + 0x340] = a0\n 27383: a1 = s1 + 0x1c40\n 27387: u64 [a2 + 808] = 0\n 27391: a0 = 0\n 27393: ra = 0x452\n 27397: jump @24\n      : @1011 (gas: 3)\n 27400: t0 = 0x41c\n 27404: a2 = s1 + 0x1918\n 27408: fallthrough\n      : @1012 [@dyn 526] (gas: 9)\n 27409: u64 [a2 + 344] = 0\n 27413: u64 [a2 + 336] = 0\n 27417: a0 = 0x6f1cf7db00000000\n 27427: u64 [a2 + 0x160] = a0\n 27431: a1 = s1 + 0x1a60\n 27435: u64 [a2 + 328] = 0\n 27439: a0 = 0\n 27441: ra = 0x4d2\n 27445: jump @24\n      : @1013 (gas: 2)\n 27448: u64 [s1 + 344] = 0\n 27452: fallthrough\n      : @1014 (gas: 7)\n 27453: a2 = s1 + 0x100\n 27457: a0 = u64 [a2 + 0x78]\n 27460: a0 = a0 << 0x1\n 27463: a1 = u64 [a2 + 0x58]\n 27466: a0 = a0 | a1\n 27469: u64 [a2 + 0x98] = a0\n 27473: fallthrough\n      : @1015 (gas: 3)\n 27474: a0 = u64 [s1 + 0xf0]\n 27478: a1 = u64 [s1 + 0x198]\n 27482: jump @1083 if a0 != a1\n      : @1016 (gas: 6)\n 27486: a0 = u64 [s1 + 0x100]\n 27490: ra = 0x41e\n 27494: ecalli 4 // 'caller'\n 27496: a2 = u64 [s1 + 0x108]\n 27500: t0 = 0x420\n 27504: jump @1498\n      : @1017 [@dyn 527] (gas: 2)\n 27507: a2 = u64 [s1 + 0x108]\n 27511: t0 = 1056, jump @1498\n      : @1018 [@dyn 528] (gas: 8)\n 27517: u64 [a2 + 288] = 0\n 27521: a4 = a2 + 0x100\n 27525: u64 [a4 + 0x18] = a1\n 27528: u64 [a4 + 0x10] = a0\n 27531: a1 = s1 + 0x1a20\n 27535: u64 [a4 + 0x8] = a3\n 27538: a0 = 0\n 27540: ra = 1058, jump @24\n      : @1019 [@dyn 529] (gas: 3)\n 27546: t0 = 0x424\n 27550: a1 = s1 + 0x1918\n 27554: fallthrough\n      : @1020 [@dyn 530] (gas: 8)\n 27555: u64 [a1 + 256] = 0\n 27559: u64 [a1 + 248] = 0\n 27563: u64 [a1 + 232] = 0x2\n 27568: a2 = a1\n 27570: a0 = 0x20\n 27573: a1 = s1 + 0x1a00\n 27577: u64 [a2 + 240] = 0\n 27581: ra = 1062, jump @24\n      : @1021 [@dyn 531] (gas: 3)\n 27587: a0 = u64 [s1 + 0x118]\n 27591: a0 = i32 [a0]\n 27593: jump @1023 if a0 >u 63\n      : @1022 (gas: 4)\n 27597: a1 = u64 [s1 + 0x118]\n 27601: u32 [a1 + 0] = 0x40\n 27604: t0 = 0x428\n 27608: jump @1505\n      : @1023 (gas: 1)\n 27611: t0 = 1064, jump @1505\n      : @1024 [@dyn 532] (gas: 4)\n 27617: ra = 0x42a\n 27621: ecalli 8 // 'hash_keccak_256'\n 27623: t0 = 0x42c\n 27627: jump @1513\n      : @1025 [@dyn 533] (gas: 1)\n 27630: t0 = 1068, jump @1513\n      : @1026 [@dyn 534] (gas: 8)\n 27636: u64 [a2 + 0xe0] = a0\n 27640: u64 [a2 + 0xd8] = a0\n 27644: u64 [a2 + 0xd0] = a0\n 27648: a1 = s1 + 0x19e0\n 27652: a0 = u64 [s1 + 0xf8]\n 27656: u64 [a2 + 0xc8] = a0\n 27660: a0 = 0\n 27662: ra = 1070, jump @24\n      : @1027 [@dyn 535] (gas: 13)\n 27668: a0 = u64 [s1 + 0x178]\n 27672: a1 = s1 + 0x1918\n 27676: u64 [a1 + 0xc0] = a0\n 27680: a0 = u64 [s1 + 0x180]\n 27684: u64 [a1 + 0xb8] = a0\n 27688: a0 = u64 [s1 + 0x188]\n 27692: u64 [a1 + 0xb0] = a0\n 27696: a3 = a1\n 27698: a0 = 0x20\n 27701: a1 = s1 + 0x19c0\n 27705: a2 = u64 [s1 + 0x190]\n 27709: u64 [a3 + 0xa8] = a2\n 27713: ra = 1072, jump @24\n      : @1028 [@dyn 536] (gas: 3)\n 27719: a0 = u64 [s1 + 0x118]\n 27723: a0 = i32 [a0]\n 27725: jump @1030 if a0 >u 63\n      : @1029 (gas: 4)\n 27729: a0 = u64 [s1 + 0x118]\n 27733: u32 [a0 + 0] = 0x40\n 27736: t0 = 0x432\n 27740: jump @1505\n      : @1030 (gas: 1)\n 27743: t0 = 1074, jump @1505\n      : @1031 [@dyn 537] (gas: 4)\n 27749: ra = 0x434\n 27753: ecalli 8 // 'hash_keccak_256'\n 27755: t0 = 0x436\n 27759: jump @1541\n      : @1032 [@dyn 538] (gas: 1)\n 27762: t0 = 1078, jump @1541\n      : @1033 [@dyn 539] (gas: 2)\n 27768: a4 = a3 + 0x2\n 27771: t0 = 1080, jump @1514\n      : @1034 [@dyn 540] (gas: 9)\n 27777: a1 = s1 + 0x2918\n 27781: a3 = a1 + 0x300\n 27785: u64 [a3 + 0xa8] = a4\n 27789: u64 [a3 + 0xb0] = a5\n 27793: u64 [a3 + 0xb8] = a2\n 27797: u64 [a3 + 0xc0] = a0\n 27801: a0 = s1 + 0x19a0\n 27805: a1 = s1 + 0x2cc0\n 27809: ra = 1082, jump @26\n      : @1035 [@dyn 541] (gas: 3)\n 27815: a0 = s1 + 0x1918\n 27819: a0 = u8 [a0 + 0x90]\n 27823: jump @1085 if a0 == 0\n      : @1036 (gas: 3)\n 27827: t0 = 0x43c\n 27831: a2 = s1 + 0x1918\n 27835: fallthrough\n      : @1037 [@dyn 542] (gas: 9)\n 27836: u64 [a2 + 120] = 0\n 27839: u64 [a2 + 112] = 0\n 27842: a0 = 0xa7a9536d00000000\n 27852: u64 [a2 + 0x80] = a0\n 27856: a1 = s1 + 0x1980\n 27860: u64 [a2 + 104] = 0\n 27863: a0 = 0\n 27865: ra = 0x4d2\n 27869: jump @24\n      : @1038 (gas: 1)\n 27872: jump @1043 if a0 != 1229702701\n      : @1039 (gas: 10)\n 27879: a0 = s1 + 0x2918\n 27883: u64 [a0 + 384] = 0\n 27887: u64 [a0 + 376] = 0\n 27891: u64 [a0 + 368] = 0\n 27895: u64 [a0 + 360] = 0\n 27899: a0 = s1 + 0x3000\n 27903: i32 a0 = a0 + 0xfffffffffffffa80\n 27907: ra = 0x43e\n 27911: ecalli 16 // 'value_transferred'\n 27913: fallthrough\n      : @1040 [@dyn 543] (gas: 3)\n 27914: a3 = s1 + 0x2918\n 27918: a4 = a3 + 0x100\n 27922: t0 = 1088, jump @1533\n      : @1041 [@dyn 544] (gas: 1)\n 27928: jump @1114 if a0 == 0\n      : @1042 (gas: 6)\n 27932: a1 = 0x20180\n 27937: i32 a1 = a1 + 0\n 27939: a0 = 0x1\n 27942: a2 = 0\n 27944: ecalli 13 // 'seal_return'\n 27946: jump @1045\n      : @1043 (gas: 6)\n 27948: a1 = 0x20180\n 27953: i32 a1 = a1 + 0\n 27955: a0 = 0x1\n 27958: a2 = 0\n 27960: ecalli 13 // 'seal_return'\n 27962: jump @1045\n      : @1044 (gas: 5)\n 27964: i32 a1 = a1 + 0\n 27966: a0 = 0x1\n 27969: a2 = 0\n 27971: ecalli 13 // 'seal_return'\n 27973: fallthrough\n      : @1045 (gas: 3)\n 27974: a0 = u64 [s1 + 0x198]\n 27978: a0 = i32 [a0]\n 27980: jump @1116 if a0 >u 99\n      : @1046 (gas: 2)\n 27985: a1 = 0x20180\n 27990: jump @1044\n      : @1047 (gas: 4)\n 27992: a0 = s1 + 0x220\n 27996: ra = 0x442\n 28000: t0 = 0x588\n 28004: jump @1560\n      : @1048 [@dyn 545] (gas: 11)\n 28007: a3 = s1 + 0x200\n 28011: a0 = u64 [a3 + 0x20]\n 28014: a1 = u64 [a3 + 0x28]\n 28017: a2 = u32 [s1 + 0x230]\n 28021: u64 [s1 + 536] = 0\n 28025: u64 [a3 + 0x10] = a2\n 28028: u64 [a3 + 0x8] = a1\n 28031: a1 = s1 + 0x200\n 28035: u64 [a3] = a0\n 28037: a0 = 0\n 28039: ra = 1092, jump @24\n      : @1049 [@dyn 546] (gas: 7)\n 28045: u64 [s1 + 504] = 0\n 28049: u64 [s1 + 496] = 0\n 28053: u64 [s1 + 480] = 0x3\n 28058: a0 = 0x20\n 28061: a1 = s1 + 0x1e0\n 28065: u64 [s1 + 488] = 0\n 28069: ra = 1094, jump @24\n      : @1050 [@dyn 547] (gas: 4)\n 28075: a0 = 0x20170\n 28080: u64 [s1 + 0x198] = a0\n 28084: a0 = i32 [0x20170]\n 28089: jump @1052 if a0 >u 63\n      : @1051 (gas: 3)\n 28093: a1 = u64 [s1 + 0x198]\n 28097: u32 [a1 + 0] = 0x40\n 28100: fallthrough\n      : @1052 (gas: 14)\n 28101: a0 = sp + 0xffffffffffffffe0\n 28104: a2 = a0 & 0xffffffffffffffe0\n 28107: u64 [s1 + 0x188] = a2\n 28111: sp = a2\n 28113: a0 = 0x20180\n 28118: u64 [s1 + 0x190] = a0\n 28122: i32 a0 = a0 + 0\n 28124: i32 a2 = a2 + 0\n 28126: a1 = 0x40\n 28129: ra = 0x448\n 28133: ecalli 8 // 'hash_keccak_256'\n 28135: a3 = u64 [s1 + 0x188]\n 28139: t0 = 0x44a\n 28143: jump @1511\n      : @1053 [@dyn 548] (gas: 2)\n 28146: a3 = u64 [s1 + 0x188]\n 28150: t0 = 1098, jump @1511\n      : @1054 [@dyn 549] (gas: 9)\n 28156: a4 = s1 + 0x2118\n 28160: a5 = a4 + 0x600\n 28164: u64 [a5 + 0x60] = a3\n 28167: u64 [a5 + 0x58] = a2\n 28170: u64 [a5 + 0x50] = a1\n 28173: u64 [a5 + 0x48] = a0\n 28176: a0 = s1 + 0x1c0\n 28180: a1 = s1 + 0x2760\n 28184: ra = 1100, jump @26\n      : @1055 [@dyn 550] (gas: 8)\n 28190: a0 = u32 [s1 + 0x1c0]\n 28194: u64 [s1 + 440] = 0\n 28198: u64 [s1 + 432] = 0\n 28202: u64 [s1 + 0x1a0] = a0\n 28206: a0 = 0x80\n 28210: a1 = s1 + 0x1a0\n 28214: u64 [s1 + 424] = 0\n 28218: ra = 1102, jump @24\n      : @1056 [@dyn 551] (gas: 3)\n 28224: a0 = u64 [s1 + 0x198]\n 28228: a0 = i32 [a0]\n 28230: jump @1058 if a0 >u 159\n      : @1057 (gas: 5)\n 28235: a1 = u64 [s1 + 0x198]\n 28239: u32 [a1 + 0] = 0xa0\n 28243: a0 = u64 [s1 + 0x190]\n 28247: i32 a1 = a0 + 0x80\n 28251: jump @882\n      : @1058 (gas: 3)\n 28254: a0 = u64 [s1 + 0x190]\n 28258: i32 a1 = a0 + 0x80\n 28262: jump @882\n      : @1059 (gas: 3)\n 28265: t0 = 0x450\n 28269: a2 = s1 + 0x1918\n 28273: fallthrough\n      : @1060 [@dyn 552] (gas: 8)\n 28274: u64 [a2 + 1016] = 0\n 28278: u64 [a2 + 1008] = 0\n 28282: a0 = 0x6f1cf7db00000000\n 28292: u64 [a2 + 0x400] = a0\n 28296: a1 = s1 + 0x1d00\n 28300: u64 [a2 + 1000] = 0\n 28304: a0 = 0\n 28306: ra = 1106, jump @24\n      : @1061 [@dyn 553] (gas: 3)\n 28312: a0 = u64 [s1 + 0x198]\n 28316: a0 = i32 [a0]\n 28318: jump @1063 if a0 >u 31\n      : @1062 (gas: 3)\n 28322: a1 = u64 [s1 + 0x198]\n 28326: u32 [a1 + 0] = 0x20\n 28329: fallthrough\n      : @1063 (gas: 5)\n 28330: a0 = 0x1\n 28333: a2 = 0x4\n 28336: a1 = u64 [s1 + 0x190]\n 28340: ecalli 13 // 'seal_return'\n 28342: fallthrough\n      : @1064 (gas: 17)\n 28343: a1 = 0xffffffff\n 28353: u64 [s1 + 0x168] = a1\n 28357: a3 = s1 + 0x1918\n 28361: a4 = a3 + 0x300\n 28365: a1 = u64 [a4 + 0x48]\n 28368: a2 = u64 [a4 + 0x58]\n 28371: a3 = u64 [a4 + 0x60]\n 28374: a0 = a0 | 0x1\n 28377: a4 = s1 + 0x2918\n 28381: a5 = a4 + 0x400\n 28385: u64 [a5 + 0x8] = a1\n 28388: u64 [a5 + 0x18] = a2\n 28391: u64 [a5 + 0x10] = a0\n 28394: u64 [a5 + 0x20] = a3\n 28397: a1 = s1 + 0x2d20\n 28401: a0 = u64 [s1 + 0x178]\n 28405: ra = 1108, jump @28\n      : @1065 [@dyn 554] (gas: 6)\n 28411: a0 = u64 [s1 + 0x180]\n 28415: ra = 0x456\n 28419: ecalli 4 // 'caller'\n 28421: a2 = u64 [s1 + 0x188]\n 28425: t0 = 0x458\n 28429: jump @1498\n      : @1066 [@dyn 555] (gas: 2)\n 28432: a2 = u64 [s1 + 0x188]\n 28436: t0 = 1112, jump @1498\n      : @1067 [@dyn 556] (gas: 8)\n 28442: u64 [a2 + 800] = 0\n 28446: a4 = a2 + 0x300\n 28450: u64 [a4 + 0x18] = a1\n 28453: u64 [a4 + 0x10] = a0\n 28456: a1 = s1 + 0x1c20\n 28460: u64 [a4 + 0x8] = a3\n 28463: a0 = 0\n 28465: ra = 1114, jump @24\n      : @1068 [@dyn 557] (gas: 3)\n 28471: t0 = 0x45c\n 28475: a1 = s1 + 0x1918\n 28479: fallthrough\n      : @1069 [@dyn 558] (gas: 8)\n 28480: u64 [a1 + 768] = 0\n 28484: u64 [a1 + 760] = 0\n 28488: u64 [a1 + 744] = 0x1\n 28493: a2 = a1\n 28495: a0 = 0x20\n 28498: a1 = s1 + 0x1c00\n 28502: u64 [a2 + 752] = 0\n 28506: ra = 1118, jump @24\n      : @1070 [@dyn 559] (gas: 1)\n 28512: t0 = 1120, jump @1566\n      : @1071 [@dyn 560] (gas: 3)\n 28518: a0 = u64 [s1 + 0x198]\n 28522: a0 = i32 [a0]\n 28524: jump @1073 if a0 >u 63\n      : @1072 (gas: 3)\n 28528: a1 = u64 [s1 + 0x198]\n 28532: u32 [a1 + 0] = 0x40\n 28535: fallthrough\n      : @1073 (gas: 4)\n 28536: a0 = sp + 0xffffffffffffffe0\n 28539: a0 = a0 & 0xffffffffffffffe0\n 28542: u64 [s1 + 0x198] = a0\n 28546: t0 = 1122, jump @1500\n      : @1074 [@dyn 561] (gas: 3)\n 28552: ra = 0x464\n 28556: ecalli 8 // 'hash_keccak_256'\n 28558: fallthrough\n      : @1075 [@dyn 562] (gas: 11)\n 28559: a3 = u64 [s1 + 0x198]\n 28563: a0 = u64 [a3]\n 28565: a1 = u64 [a3 + 0x8]\n 28568: a2 = u64 [a3 + 0x10]\n 28571: a3 = u64 [a3 + 0x18]\n 28574: a0 = reverse a0\n 28576: a1 = reverse a1\n 28578: a2 = reverse a2\n 28580: a3 = reverse a3\n 28582: a4 = a3 + 0x3\n 28585: t0 = 1126, jump @1514\n      : @1076 [@dyn 563] (gas: 7)\n 28591: a1 = u64 [s1 + 0x178]\n 28595: u64 [a1] = a4\n 28597: u64 [a1 + 0x8] = a5\n 28600: u64 [a1 + 0x10] = a2\n 28603: u64 [a1 + 0x18] = a0\n 28606: a0 = s1 + 0x1be0\n 28610: ra = 1128, jump @26\n      : @1077 [@dyn 564] (gas: 9)\n 28616: a0 = s1 + 0x1918\n 28620: a0 = u64 [a0 + 0x2c8]\n 28624: a1 = u64 [s1 + 0x168]\n 28628: a0 = a0 + a1\n 28631: a0 = a0 & a1\n 28634: u64 [s1 + 0x198] = a0\n 28638: a0 = s1 + 0x1bc0\n 28642: a1 = u64 [s1 + 0x178]\n 28646: ra = 1130, jump @26\n      : @1078 [@dyn 565] (gas: 18)\n 28652: a3 = s1 + 0x1918\n 28656: a0 = u32 [a3 + 0x2ac]\n 28660: a0 = a0 << 0x20\n 28663: a4 = a3 + 0x200\n 28667: a1 = u64 [a4 + 0xc0]\n 28671: a2 = u64 [a4 + 0xb8]\n 28675: a3 = u64 [a4 + 0xb0]\n 28679: a4 = u64 [s1 + 0x198]\n 28683: a0 = a0 | a4\n 28686: a4 = s1 + 0x2918\n 28690: a5 = a4 + 0x400\n 28694: u64 [a5 + 0x40] = a1\n 28697: u64 [a5 + 0x38] = a2\n 28700: u64 [a5 + 0x30] = a3\n 28703: u64 [a5 + 0x28] = a0\n 28706: a1 = s1 + 0x2d40\n 28710: a0 = u64 [s1 + 0x178]\n 28714: ra = 1132, jump @28\n      : @1079 [@dyn 566] (gas: 6)\n 28720: a0 = u64 [s1 + 0x180]\n 28724: ra = 0x46e\n 28728: ecalli 4 // 'caller'\n 28730: a2 = u64 [s1 + 0x188]\n 28734: t0 = 0x470\n 28738: jump @1502\n      : @1080 [@dyn 567] (gas: 2)\n 28741: a2 = u64 [s1 + 0x188]\n 28745: t0 = 1136, jump @1502\n      : @1081 [@dyn 568] (gas: 31)\n 28751: t0 = a1 | a0\n 28754: a3 = a3 >> 0x20\n 28757: a2 = reverse a2\n 28759: a1 = a2 << 0x20\n 28762: a1 = a1 | a3\n 28765: a2 = a2 >> 0x20\n 28768: a3 = u64 [s1 + 0x170]\n 28772: a0 = s1 + 0x1918\n 28776: u64 [a0 + 0x248] = a3\n 28780: a3 = u64 [0x20040]\n 28785: a4 = u64 [0x20048]\n 28790: a5 = u64 [0x20050]\n 28795: u64 [a0 + 0x2a0] = a3\n 28799: u64 [a0 + 0x298] = a4\n 28803: u64 [a0 + 608] = 0\n 28807: a4 = a0 + 0x200\n 28811: u64 [a4 + 0x90] = a5\n 28815: a3 = u64 [0x20058]\n 28820: u64 [a0 + 600] = 0\n 28824: u64 [a0 + 592] = 0\n 28828: u64 [a0 + 640] = 0\n 28832: u64 [a4 + 0x88] = a3\n 28836: u64 [a4 + 0x78] = a2\n 28839: u64 [a4 + 0x70] = a1\n 28842: a2 = s1 + 0x1ba0\n 28846: a3 = s1 + 0x1b80\n 28850: a4 = s1 + 0x1b60\n 28854: u64 [a0 + 0x268] = t0\n 28858: a0 = 0\n 28860: a1 = 0\n 28862: ra = 1138, jump @31\n      : @1082 [@dyn 569] (gas: 5)\n 28868: a0 = 0\n 28870: a1 = u64 [s1 + 0x190]\n 28874: a2 = 0\n 28876: ecalli 13 // 'seal_return'\n 28878: jump @1045\n      : @1083 (gas: 3)\n 28881: t0 = 0x474\n 28885: a2 = s1 + 0x1918\n 28889: fallthrough\n      : @1084 [@dyn 570] (gas: 9)\n 28890: u64 [a2 + 312] = 0\n 28894: u64 [a2 + 304] = 0\n 28898: a0 = 0xd5b25b6300000000\n 28908: u64 [a2 + 0x140] = a0\n 28912: a1 = s1 + 0x1a40\n 28916: u64 [a2 + 296] = 0\n 28920: a0 = 0\n 28922: ra = 0x4d2\n 28926: jump @24\n      : @1085 (gas: 6)\n 28929: a0 = u64 [s1 + 0x100]\n 28933: ra = 0x476\n 28937: ecalli 4 // 'caller'\n 28939: a2 = u64 [s1 + 0x108]\n 28943: t0 = 0x478\n 28947: jump @1498\n      : @1086 [@dyn 571] (gas: 2)\n 28950: a2 = u64 [s1 + 0x108]\n 28954: t0 = 1144, jump @1498\n      : @1087 [@dyn 572] (gas: 7)\n 28960: u64 [a2 + 96] = 0\n 28963: u64 [a2 + 0x58] = a1\n 28966: u64 [a2 + 0x50] = a0\n 28969: a1 = s1 + 0x1960\n 28973: u64 [a2 + 0x48] = a3\n 28976: a0 = 0\n 28978: ra = 1146, jump @24\n      : @1088 [@dyn 573] (gas: 3)\n 28984: t0 = 0x47c\n 28988: a1 = s1 + 0x1918\n 28992: fallthrough\n      : @1089 [@dyn 574] (gas: 8)\n 28993: u64 [a1 + 64] = 0\n 28996: u64 [a1 + 56] = 0\n 28999: u64 [a1 + 40] = 0x4\n 29003: a2 = a1\n 29005: a0 = 0x20\n 29008: a1 = s1 + 0x1940\n 29012: u64 [a2 + 48] = 0\n 29015: ra = 1150, jump @24\n      : @1090 [@dyn 575] (gas: 3)\n 29021: a0 = u64 [s1 + 0x118]\n 29025: a0 = i32 [a0]\n 29027: jump @1092 if a0 >u 63\n      : @1091 (gas: 4)\n 29031: a1 = u64 [s1 + 0x118]\n 29035: u32 [a1 + 0] = 0x40\n 29038: t0 = 0x480\n 29042: jump @1505\n      : @1092 (gas: 1)\n 29045: t0 = 1152, jump @1505\n      : @1093 [@dyn 576] (gas: 4)\n 29051: ra = 0x482\n 29055: ecalli 8 // 'hash_keccak_256'\n 29057: t0 = 0x484\n 29061: jump @1513\n      : @1094 [@dyn 577] (gas: 1)\n 29064: t0 = 1156, jump @1513\n      : @1095 [@dyn 578] (gas: 8)\n 29070: u64 [a2 + 0x20] = a0\n 29073: u64 [a2 + 0x18] = a0\n 29076: u64 [a2 + 0x10] = a0\n 29079: a1 = s1 + 0x1920\n 29083: a0 = u64 [s1 + 0x198]\n 29087: u64 [a2 + 0x8] = a0\n 29090: a0 = 0\n 29092: ra = 1158, jump @24\n      : @1096 [@dyn 579] (gas: 13)\n 29098: a0 = u64 [s1 + 0x178]\n 29102: a1 = s1 + 0x1918\n 29106: u64 [a1] = a0\n 29108: a0 = u64 [s1 + 0x180]\n 29112: u64 [a1 + 0xfffffffffffffff8] = a0\n 29115: a0 = u64 [s1 + 0x188]\n 29119: u64 [a1 + 0xfffffffffffffff0] = a0\n 29122: a3 = a1\n 29124: a0 = 0x20\n 29127: a1 = s1 + 0x1900\n 29131: a2 = u64 [s1 + 0x190]\n 29135: u64 [a3 + 0xffffffffffffffe8] = a2\n 29138: ra = 1160, jump @24\n      : @1097 [@dyn 580] (gas: 3)\n 29144: a0 = u64 [s1 + 0x118]\n 29148: a0 = i32 [a0]\n 29150: jump @1099 if a0 >u 63\n      : @1098 (gas: 4)\n 29154: a0 = u64 [s1 + 0x118]\n 29158: u32 [a0 + 0] = 0x40\n 29161: t0 = 0x48a\n 29165: jump @1505\n      : @1099 (gas: 1)\n 29168: t0 = 1162, jump @1505\n      : @1100 [@dyn 581] (gas: 5)\n 29174: ra = 0x48c\n 29178: ecalli 8 // 'hash_keccak_256'\n 29180: a3 = u64 [s1 + 0x190]\n 29184: t0 = 0x48e\n 29188: jump @1517\n      : @1101 [@dyn 582] (gas: 2)\n 29191: a3 = u64 [s1 + 0x190]\n 29195: t0 = 1166, jump @1517\n      : @1102 [@dyn 583] (gas: 5)\n 29201: u64 [s1 + 0x190] = a0\n 29205: sp = a0\n 29207: t0 = 0x490\n 29211: a2 = s1 + 0x1118\n 29215: fallthrough\n      : @1103 [@dyn 584] (gas: 8)\n 29216: u64 [a2 + 2016] = 0\n 29220: u64 [a2 + 2008] = 0\n 29224: u64 [a2 + 2000] = 0\n 29228: a1 = s1 + 0x18e0\n 29232: a0 = u64 [s1 + 0xf8]\n 29236: u64 [a2 + 0x7c8] = a0\n 29240: a0 = 0\n 29242: ra = 1170, jump @24\n      : @1104 [@dyn 585] (gas: 14)\n 29248: a0 = u64 [s1 + 0x170]\n 29252: a1 = s1 + 0x1118\n 29256: a2 = a1 + 0x700\n 29260: u64 [a2 + 0xc0] = a0\n 29264: a0 = u64 [s1 + 0x178]\n 29268: u64 [a2 + 0xb8] = a0\n 29272: a0 = u64 [s1 + 0x180]\n 29276: u64 [a2 + 0xb0] = a0\n 29280: a3 = a1\n 29282: a0 = 0x20\n 29285: a1 = s1 + 0x18c0\n 29289: a2 = u64 [s1 + 0x188]\n 29293: u64 [a3 + 0x7a8] = a2\n 29297: ra = 1172, jump @24\n      : @1105 [@dyn 586] (gas: 3)\n 29303: a0 = u64 [s1 + 0x118]\n 29307: a0 = i32 [a0]\n 29309: jump @1107 if a0 >=u 64\n      : @1106 (gas: 3)\n 29313: a0 = u64 [s1 + 0x118]\n 29317: u32 [a0 + 0] = 0x40\n 29320: fallthrough\n      : @1107 (gas: 11)\n 29321: a0 = sp + 0xffffffffffffffe0\n 29324: a0 = a0 & 0xffffffffffffffe0\n 29327: u64 [s1 + 0x188] = a0\n 29331: sp = a0\n 29333: i32 a2 = a0 + 0\n 29335: a1 = 0x40\n 29338: a0 = u64 [s1 + 0x110]\n 29342: ra = 0x496\n 29346: ecalli 8 // 'hash_keccak_256'\n 29348: t0 = 0x498\n 29352: jump @1561\n      : @1108 [@dyn 587] (gas: 1)\n 29355: t0 = 1176, jump @1561\n      : @1109 [@dyn 588] (gas: 9)\n 29361: a2 = reverse a2\n 29363: a3 = reverse a3\n 29365: a1 = u64 [s1 + 0x190]\n 29369: u64 [a1 + 0x18] = a3\n 29372: u64 [a1 + 0x10] = a2\n 29375: u64 [a1 + 0x8] = a4\n 29378: u64 [a1] = a0\n 29380: a0 = s1 + 0x18a0\n 29384: ra = 1178, jump @26\n      : @1110 [@dyn 589] (gas: 4)\n 29390: a0 = s1 + 0x1118\n 29394: a0 = u64 [a0 + 0x788]\n 29398: a1 = a0 & 0xff\n 29402: jump @1147 if a1 == 0\n      : @1111 (gas: 2)\n 29406: a1 = a0 & 0xff00\n 29411: jump @1152 if a1 == 0\n      : @1112 (gas: 3)\n 29415: t0 = 0x49c\n 29419: a2 = s1 + 0x1118\n 29423: fallthrough\n      : @1113 [@dyn 590] (gas: 9)\n 29424: u64 [a2 + 1912] = 0\n 29428: u64 [a2 + 1904] = 0\n 29432: a0 = 0xc98289f000000000\n 29442: u64 [a2 + 0x780] = a0\n 29446: a1 = s1 + 0x1880\n 29450: u64 [a2 + 1896] = 0\n 29454: a0 = 0\n 29456: ra = 0x4d2\n 29460: jump @24\n      : @1114 (gas: 3)\n 29463: a0 = u64 [s1 + 0x198]\n 29467: a0 = i32 [a0]\n 29469: jump @1157 if a0 >u 99\n      : @1115 (gas: 2)\n 29474: a1 = 0x20180\n 29479: jump @1044\n      : @1116 (gas: 5)\n 29482: a0 = s1 + 0x7ff\n 29486: a0 = a0 + 0x1a1\n 29490: ra = 0x49e\n 29494: t0 = 0x588\n 29498: jump @1560\n      : @1117 [@dyn 591] (gas: 15)\n 29501: a1 = s1 + 0x7ff\n 29505: a1 = a1 + 0x119\n 29509: a0 = u64 [a1 + 0xa0]\n 29513: u64 [s1 + 0xf8] = a0\n 29517: a0 = u64 [a1 + 0x98]\n 29521: u64 [s1 + 0x100] = a0\n 29525: a0 = u64 [a1 + 0x90]\n 29529: u64 [s1 + 0x118] = a0\n 29533: a0 = u64 [a1 + 0x88]\n 29537: u64 [s1 + 0x110] = a0\n 29541: a0 = s1 + 0x7ff\n 29545: a0 = a0 + 0x181\n 29549: ra = 0x4a0\n 29553: t0 = 0x58c\n 29557: jump @1575\n      : @1118 [@dyn 592] (gas: 15)\n 29560: a1 = s1 + 0x7ff\n 29564: a1 = a1 + 0x119\n 29568: a0 = u64 [a1 + 0x80]\n 29572: u64 [s1 + 0xf0] = a0\n 29576: a0 = u64 [a1 + 0x78]\n 29579: u64 [s1 + 0xe8] = a0\n 29583: a0 = u64 [a1 + 0x70]\n 29586: u64 [s1 + 0xe0] = a0\n 29590: a0 = u64 [a1 + 0x68]\n 29593: u64 [s1 + 0x108] = a0\n 29597: a0 = s1 + 0x7ff\n 29601: a0 = a0 + 0x161\n 29605: ra = 0x4a2\n 29609: t0 = 0x592\n 29613: jump @1575\n      : @1119 [@dyn 593] (gas: 8)\n 29616: a0 = s1 + 0x7ff\n 29620: a0 = a0 + 0x119\n 29624: a0 = u64 [a0 + 0x48]\n 29627: u64 [s1 + 0xd8] = a0\n 29631: a0 = s1 + 0x3000\n 29635: i32 a0 = a0 + 0xfffffffffffff920\n 29639: ecalli 9 // 'now'\n 29641: fallthrough\n      : @1120 (gas: 49)\n 29642: a0 = s1 + 0x2918\n 29646: t0 = u64 [a0 + 0x20]\n 29649: a4 = u64 [a0 + 0x18]\n 29652: u64 [s1 + 0x158] = a4\n 29656: t2 = u64 [a0 + 0x10]\n 29659: a3 = u64 [a0 + 0x8]\n 29662: u64 [s1 + 0x140] = a3\n 29666: a0 = clz t0\n 29668: a1 = clz a4\n 29670: a2 = a1 + 0x40\n 29673: a2 = a0 if t0 != 0\n 29676: a0 = clz t2\n 29678: a1 = clz a3\n 29680: a1 = a1 + 0x40\n 29683: a1 = a0 if t2 != 0\n 29686: a0 = a1 + 0x80\n 29690: a3 = a4 | t0\n 29693: a2 = a0 if a3 == 0\n 29696: a5 = a0 <u a1\n 29699: a5 = 0 if a3 != 0\n 29701: a4 = a5 >u 0\n 29703: a0 = a2 <u 0xf0\n 29707: a3 = a0 ^ 0x1\n 29710: a4 = a3 if a5 == 0\n 29713: a0 = a4 <u 0x1\n 29716: ra = a0 + 0xffffffffffffffff\n 29719: t1 = -a4\n 29721: a5 = -a5\n 29723: a3 = a5 - a3\n 29726: a2 = 0xef - a2\n 29730: a5 = t1 >u 0\n 29732: a0 = ra >u 0\n 29734: a0 = a5 if ra == 0\n 29737: a5 = a2 <u 0x100\n 29741: a5 = a5 ^ 0x1\n 29744: a1 = a3 >u 0\n 29746: a5 = a1 if a3 != 0\n 29749: a5 = a0 if a4 != 0\n 29752: u64 [s1 + 0x138] = t2\n 29756: u64 [s1 + 0x150] = t0\n 29760: a0 = t2 | t0\n 29763: a4 = u64 [s1 + 0x140]\n 29767: a1 = u64 [s1 + 0x158]\n 29771: a1 = a1 | a4\n 29774: a0 = a0 | a1\n 29777: a0 = a0 <u 0x1\n 29780: a0 = a0 | a5\n 29783: a4 = 0 if a0 != 0\n 29785: jump @1186 if a0 != 0\n      : @1121 (gas: 1)\n 29789: t0 = 1188, jump @1576\n      : @1122 [@dyn 594] (gas: 1)\n 29795: jump @1186 if a0 == 0\n      : @1123 (gas: 1)\n 29799: t0 = 1190, jump @1507\n      : @1124 [@dyn 595] (gas: 1)\n 29805: ra = 1192, jump @1580\n      : @1125 [@dyn 596] (gas: 1)\n 29811: t0 = 1194, jump @1564\n      : @1126 [@dyn 597] (gas: 1)\n 29817: ra = 1196, jump @1585\n      : @1127 [@dyn 598] (gas: 1)\n 29823: t0 = 1198, jump @1552\n      : @1128 [@dyn 599] (gas: 1)\n 29829: ra = 1200, jump @1585\n      : @1129 [@dyn 600] (gas: 8)\n 29835: u64 [s1 + 0x120] = a0\n 29839: u64 [s1 + 0xd0] = a1\n 29843: a2 = u64 [s1 + 0x160]\n 29847: a0 = a2 <u 0x80\n 29851: u64 [s1 + 0xc8] = a0\n 29855: a0 = u64 [s1 + 0x140]\n 29859: a1 = u64 [s1 + 0x138]\n 29863: ra = 1202, jump @1585\n      : @1130 [@dyn 601] (gas: 1)\n 29869: t0 = 1204, jump @1579\n      : @1131 [@dyn 602] (gas: 4)\n 29875: a3 = u64 [s1 + 0xc8]\n 29879: a0 = 0 if a3 == 0\n 29881: u64 [a4 + 0x78] = a0\n 29884: jump @1184 if a1 == 0\n      : @1132 (gas: 7)\n 29888: a2 = a3\n 29890: a0 = u64 [s1 + 0x168]\n 29894: a1 = u64 [s1 + 0x128]\n 29898: a0 = a0 | a1\n 29901: a5 = a3\n 29903: a1 = u64 [s1 + 0xd0]\n 29907: t0 = 1206, jump @1503\n      : @1133 [@dyn 603] (gas: 1)\n 29913: ra = 1208, jump @1580\n      : @1134 [@dyn 604] (gas: 1)\n 29919: t0 = 1210, jump @1563\n      : @1135 [@dyn 605] (gas: 1)\n 29925: ra = 1212, jump @1580\n      : @1136 [@dyn 606] (gas: 2)\n 29931: u64 [s1 + 0xd0] = a0\n 29935: t0 = 1214, jump @1556\n      : @1137 [@dyn 607] (gas: 1)\n 29941: ra = 1216, jump @1585\n      : @1138 [@dyn 608] (gas: 1)\n 29947: t0 = 1218, jump @1524\n      : @1139 [@dyn 609] (gas: 2)\n 29953: a1 = u64 [s1 + 0xd0]\n 29957: t0 = 1220, jump @1535\n      : @1140 [@dyn 610] (gas: 1)\n 29963: ra = 1222, jump @1580\n      : @1141 [@dyn 611] (gas: 1)\n 29969: t0 = 1224, jump @1516\n      : @1142 [@dyn 612] (gas: 1)\n 29975: t0 = 1226, jump @1525\n      : @1143 [@dyn 613] (gas: 5)\n 29981: t0 = ra <u a2\n 29984: a4 = u64 [s1 + 0x128]\n 29988: a5 = a4 <u a3\n 29991: a5 = t0 if t1 != 0\n 29994: t0 = 1228, jump @1526\n      : @1144 [@dyn 614] (gas: 20)\n 30000: t0 = a0 | a1\n 30003: a1 = a4 << 0x1\n 30006: a4 = u64 [s1 + 0x170]\n 30010: t1 = a4 >> 0x3f\n 30013: t1 = a1 | t1\n 30016: a1 = a4 << 0x1\n 30019: a4 = u64 [s1 + 0x178]\n 30023: t2 = a4 >> 0x3f\n 30026: a1 = a1 | t2\n 30029: a4 = a4 << 0x1\n 30032: a0 = u64 [s1 + 0x158]\n 30036: a4 = a4 | a0\n 30039: u64 [s1 + 0x178] = a4\n 30043: a0 = u64 [s1 + 0x150]\n 30047: a1 = a1 | a0\n 30050: u64 [s1 + 0x170] = a1\n 30054: a1 = a0 | t1\n 30057: u64 [s1 + 0x160] = a1\n 30061: a0 = a0 | t0\n 30064: t0 = 1230, jump @1501\n      : @1145 [@dyn 615] (gas: 18)\n 30070: t0 = a4 <u a2\n 30073: a2 = a4 - a2\n 30076: a4 = a3 <u 0x1\n 30079: a5 = a5 - a4\n 30082: a4 = u64 [a0 + 0x88]\n 30086: a4 = a4 - t0\n 30089: a3 = a3 + 0xffffffffffffffff\n 30092: u64 [a0 + 0x90] = a5\n 30096: u64 [a0 + 0x88] = a4\n 30100: t0 = a5 | a4\n 30103: u64 [a0 + 0x98] = a3\n 30107: a4 = a3 | a2\n 30110: a3 = a4 | t0\n 30113: a4 = ra & 0x1\n 30116: u64 [a0 + 0x58] = a4\n 30119: u64 [a0 + 0x80] = a2\n 30123: u64 [s1 + 336] = 0\n 30127: jump @1142 if a3 != 0\n      : @1146 (gas: 1)\n 30131: jump @1185\n      : @1147 (gas: 3)\n 30134: t0 = 0x4d0\n 30138: a2 = s1 + 0x1118\n 30142: fallthrough\n      : @1148 [@dyn 616] (gas: 8)\n 30143: u64 [a2 + 1752] = 0\n 30147: u64 [a2 + 1744] = 0\n 30151: a0 = 0xafa4e2b600000000\n 30161: u64 [a2 + 0x6e0] = a0\n 30165: a1 = s1 + 0x17e0\n 30169: u64 [a2 + 1736] = 0\n 30173: a0 = 0\n 30175: ra = 1234, jump @24\n      : @1149 [@dyn 617] (gas: 3)\n 30181: a0 = u64 [s1 + 0x118]\n 30185: a0 = i32 [a0]\n 30187: jump @1151 if a0 >u 31\n      : @1150 (gas: 3)\n 30191: a1 = u64 [s1 + 0x118]\n 30195: u32 [a1 + 0] = 0x20\n 30198: fallthrough\n      : @1151 (gas: 5)\n 30199: a0 = 0x1\n 30202: a2 = 0x4\n 30205: a1 = u64 [s1 + 0x110]\n 30209: ecalli 13 // 'seal_return'\n 30211: fallthrough\n      : @1152 (gas: 15)\n 30212: a3 = s1 + 0x1118\n 30216: a4 = a3 + 0x700\n 30220: a1 = u64 [a4 + 0x90]\n 30224: a2 = u64 [a4 + 0xa0]\n 30228: a3 = u64 [a4 + 0x98]\n 30232: a0 = a0 | 0x100\n 30236: a4 = s1 + 0x2918\n 30240: a5 = a4 + 0x300\n 30244: u64 [a5 + 0xd0] = a1\n 30248: u64 [a5 + 0xc8] = a0\n 30252: u64 [a5 + 0xd8] = a3\n 30256: u64 [a5 + 0xe0] = a2\n 30260: a1 = s1 + 0x2ce0\n 30264: a0 = u64 [s1 + 0x190]\n 30268: ra = 1236, jump @28\n      : @1153 [@dyn 618] (gas: 6)\n 30274: a0 = u64 [s1 + 0x100]\n 30278: ra = 0x4d6\n 30282: ecalli 4 // 'caller'\n 30284: a2 = u64 [s1 + 0x108]\n 30288: t0 = 0x4d8\n 30292: jump @1502\n      : @1154 [@dyn 619] (gas: 2)\n 30295: a2 = u64 [s1 + 0x108]\n 30299: t0 = 1240, jump @1502\n      : @1155 [@dyn 620] (gas: 38)\n 30305: a0 = a0 | a1\n 30308: a3 = a3 >> 0x20\n 30311: a2 = reverse a2\n 30313: a1 = a2 << 0x20\n 30316: a1 = a1 | a3\n 30319: a2 = a2 >> 0x20\n 30322: a5 = s1 + 0x1118\n 30326: u64 [a5 + 1792] = 0\n 30330: u64 [a5 + 1784] = 0\n 30334: u64 [a5 + 1776] = 0\n 30338: a3 = u64 [s1 + 0x198]\n 30342: u64 [a5 + 0x6e8] = a3\n 30346: a3 = u64 [s1 + 0xf8]\n 30350: u64 [a5 + 0x708] = a3\n 30354: a3 = u64 [0x20060]\n 30359: a4 = u64 [0x20068]\n 30364: u64 [a5 + 1824] = 0\n 30368: u64 [a5 + 1816] = 0\n 30372: u64 [a5 + 0x760] = a3\n 30376: u64 [a5 + 0x758] = a4\n 30380: a3 = u64 [0x20070]\n 30385: a4 = u64 [0x20078]\n 30390: u64 [a5 + 1808] = 0\n 30394: u64 [a5 + 1856] = 0\n 30398: u64 [a5 + 0x750] = a3\n 30402: a3 = a5 + 0x700\n 30406: u64 [a3 + 0x48] = a4\n 30409: u64 [a3 + 0x38] = a2\n 30412: u64 [a3 + 0x30] = a1\n 30415: a1 = a5\n 30417: a2 = s1 + 0x1860\n 30421: a3 = s1 + 0x1840\n 30425: a4 = s1 + 0x1820\n 30429: a5 = s1 + 0x1800\n 30433: u64 [a1 + 0x728] = a0\n 30437: a0 = 0\n 30439: a1 = 0\n 30441: ra = 1242, jump @34\n      : @1156 [@dyn 621] (gas: 5)\n 30447: a0 = 0\n 30449: a1 = u64 [s1 + 0x110]\n 30453: a2 = 0\n 30455: ecalli 13 // 'seal_return'\n 30457: jump @1045\n      : @1157 (gas: 4)\n 30460: a0 = s1 + 0x1020\n 30464: ra = 0x4dc\n 30468: t0 = 0x588\n 30472: jump @1560\n      : @1158 [@dyn 622] (gas: 15)\n 30475: a1 = s1 + 0x7ff\n 30479: a1 = a1 + 0x119\n 30483: a2 = a1 + 0x700\n 30487: a0 = u64 [a2 + 0x20]\n 30490: u64 [s1 + 0xf0] = a0\n 30494: a0 = u64 [a2 + 0x18]\n 30497: u64 [s1 + 0xf8] = a0\n 30501: a0 = u64 [a2 + 0x10]\n 30504: u64 [s1 + 0x138] = a0\n 30508: a0 = u64 [a2 + 0x8]\n 30511: u64 [s1 + 0x130] = a0\n 30515: a0 = s1 + 0x1000\n 30519: ra = 0x4de\n 30523: t0 = 0x58c\n 30527: jump @1575\n      : @1159 [@dyn 623] (gas: 16)\n 30530: a1 = s1 + 0x7ff\n 30534: a1 = a1 + 0x119\n 30538: a0 = u64 [a1 + 0x700]\n 30542: u64 [s1 + 0xc8] = a0\n 30546: a2 = a1 + 0x600\n 30550: a0 = u64 [a2 + 0xf8]\n 30554: u64 [s1 + 0xc0] = a0\n 30558: a0 = u64 [a2 + 0xf0]\n 30562: u64 [s1 + 0xb8] = a0\n 30566: a0 = u64 [a2 + 0xe8]\n 30570: u64 [s1 + 0xb0] = a0\n 30574: a0 = s1 + 0x7ff\n 30578: a0 = a0 + 0x7e1\n 30582: ra = 0x4e0\n 30586: t0 = 0x592\n 30590: jump @1575\n      : @1160 [@dyn 624] (gas: 11)\n 30593: a0 = s1 + 0x7ff\n 30597: a0 = a0 + 0x119\n 30601: a2 = u32 [a0 + 0x6c8]\n 30605: a0 = a2 <u 0x1\n 30608: a1 = a2 + 0xffffffffffffffff\n 30611: a1 = a1 <u 0x32\n 30614: a1 = a1 ^ 0x1\n 30617: a1 = a0 if a2 == 0\n 30620: u64 [s1 + 0x110] = a2\n 30624: a1 = a0 if a2 == 0\n 30627: jump @1246 if a1 != 0\n      : @1161 (gas: 17)\n 30631: a0 = u64 [s1 + 0xf8]\n 30635: a0 = a0 << 0x20\n 30638: a2 = a0 >> 0x20\n 30641: a3 = s1 + 0x7ff\n 30645: a3 = a3 + 0x119\n 30649: u64 [a3 + 1696] = 0\n 30653: a0 = u64 [s1 + 0x130]\n 30657: a4 = a3 + 0x600\n 30661: u64 [a4 + 0x88] = a0\n 30665: a0 = u64 [s1 + 0x138]\n 30669: u64 [a4 + 0x90] = a0\n 30673: a1 = s1 + 0x7ff\n 30677: a1 = a1 + 0x7a1\n 30681: u64 [s1 + 0x108] = a2\n 30685: u64 [a4 + 0x98] = a2\n 30689: a0 = 0\n 30691: ra = 1250, jump @24\n      : @1162 [@dyn 625] (gas: 11)\n 30697: a1 = s1 + 0x7ff\n 30701: a1 = a1 + 0x119\n 30705: u64 [a1 + 1664] = 0\n 30709: u64 [a1 + 1656] = 0\n 30713: u64 [a1 + 1640] = 0x3\n 30718: a2 = a1\n 30720: a0 = 0x20\n 30723: a1 = s1 + 0x7ff\n 30727: a1 = a1 + 0x781\n 30731: u64 [a2 + 1648] = 0\n 30735: ra = 1252, jump @24\n      : @1163 [@dyn 626] (gas: 4)\n 30741: a0 = 0x20170\n 30746: u64 [s1 + 0x198] = a0\n 30750: a0 = i32 [0x20170]\n 30755: jump @1165 if a0 >u 63\n      : @1164 (gas: 3)\n 30759: a1 = u64 [s1 + 0x198]\n 30763: u32 [a1 + 0] = 0x40\n 30766: fallthrough\n      : @1165 (gas: 16)\n 30767: a0 = 0xffffffff\n 30777: u64 [s1 + 0x140] = a0\n 30781: a0 = sp + 0xffffffffffffffe0\n 30784: a2 = a0 & 0xffffffffffffffe0\n 30787: u64 [s1 + 0x188] = a2\n 30791: sp = a2\n 30793: a0 = 0x20180\n 30798: i32 a0 = a0 + 0\n 30800: i32 a2 = a2 + 0\n 30802: a1 = 0x40\n 30805: u64 [s1 + 0x190] = a0\n 30809: ra = 0x4e6\n 30813: ecalli 8 // 'hash_keccak_256'\n 30815: a3 = u64 [s1 + 0x188]\n 30819: t0 = 0x4e8\n 30823: jump @1512\n      : @1166 [@dyn 627] (gas: 2)\n 30826: a3 = u64 [s1 + 0x188]\n 30830: t0 = 1256, jump @1512\n      : @1167 [@dyn 628] (gas: 9)\n 30836: a5 = a4 + 0x100\n 30840: u64 [a5 + 0xa0] = a3\n 30844: u64 [a5 + 0x98] = a2\n 30848: u64 [a5 + 0x90] = a1\n 30852: u64 [a5 + 0x88] = a0\n 30856: a0 = s1 + 0x7ff\n 30860: a0 = a0 + 0x761\n 30864: a1 = s1 + 0x2aa0\n 30868: ra = 1258, jump @26\n      : @1168 [@dyn 629] (gas: 8)\n 30874: a0 = s1 + 0x7ff\n 30878: a0 = a0 + 0x119\n 30882: a0 = u64 [a0 + 0x648]\n 30886: u64 [s1 + 0xa8] = a0\n 30890: a0 = s1 + 0x3000\n 30894: i32 a0 = a0 + 0xfffffffffffffac0\n 30898: ecalli 9 // 'now'\n 30900: fallthrough\n      : @1169 (gas: 51)\n 30901: a0 = s1 + 0x2918\n 30905: t0 = u64 [a0 + 0x1c0]\n 30909: a4 = u64 [a0 + 0x1b8]\n 30913: u64 [s1 + 0x150] = a4\n 30917: t2 = u64 [a0 + 0x1b0]\n 30921: a3 = u64 [a0 + 0x1a8]\n 30925: u64 [s1 + 0x188] = a3\n 30929: a0 = clz t0\n 30931: a1 = clz a4\n 30933: a2 = a1 + 0x40\n 30936: a2 = a0 if t0 != 0\n 30939: a0 = clz t2\n 30941: a1 = clz a3\n 30943: a1 = a1 + 0x40\n 30946: a1 = a0 if t2 != 0\n 30949: a0 = a1 + 0x80\n 30953: a3 = a4 | t0\n 30956: a2 = a0 if a3 == 0\n 30959: a5 = a0 <u a1\n 30962: a5 = 0 if a3 != 0\n 30964: a4 = a5 >u 0\n 30966: a0 = a2 <u 0xf0\n 30970: a3 = a0 ^ 0x1\n 30973: a4 = a3 if a5 == 0\n 30976: a0 = a4 <u 0x1\n 30979: ra = a0 + 0xffffffffffffffff\n 30982: t1 = -a4\n 30984: a5 = -a5\n 30986: a3 = a5 - a3\n 30989: a2 = 0xef - a2\n 30993: a5 = t1 >u 0\n 30995: a0 = ra >u 0\n 30997: a0 = a5 if ra == 0\n 31000: a5 = a2 <u 0x100\n 31004: a5 = a5 ^ 0x1\n 31007: a1 = a3 >u 0\n 31009: a5 = a1 if a3 != 0\n 31012: a5 = a0 if a4 != 0\n 31015: u64 [s1 + 0x180] = t2\n 31019: u64 [s1 + 0x118] = t0\n 31023: a0 = t2 | t0\n 31026: a4 = u64 [s1 + 0x188]\n 31030: a1 = u64 [s1 + 0x150]\n 31034: a1 = a1 | a4\n 31037: a0 = a0 | a1\n 31040: a0 = a0 <u 0x1\n 31043: a0 = a0 | a5\n 31046: a1 = a4\n 31048: a1 = 0 if a0 != 0\n 31050: u64 [s1 + 0x100] = a1\n 31054: jump @1252 if a0 != 0\n      : @1170 (gas: 1)\n 31058: t0 = 1260, jump @1576\n      : @1171 [@dyn 630] (gas: 1)\n 31064: jump @1252 if a0 == 0\n      : @1172 (gas: 18)\n 31068: a1 = a2 + 0x1\n 31071: u64 [s1 + 0x178] = a1\n 31075: a0 = a1 <u 0x1\n 31078: a0 = a0 + a3\n 31081: u64 [s1 + 0x168] = a0\n 31085: a0 = a0 | a1\n 31088: a0 = a0 <u 0x1\n 31091: a0 = a0 + t1\n 31094: u64 [s1 + 0x158] = a0\n 31098: a0 = a0 <u t1\n 31101: a0 = a0 + ra\n 31104: u64 [s1 + 0x160] = a0\n 31108: a1 = 0xff - a2\n 31112: u64 [s1 + 0x120] = a1\n 31116: a2 = 0x80 - a1\n 31120: a0 = u64 [s1 + 0x188]\n 31124: a1 = u64 [s1 + 0x180]\n 31128: ra = 1262, jump @1580\n      : @1173 [@dyn 631] (gas: 6)\n 31134: u64 [s1 + 0x100] = a0\n 31138: u64 [s1 + 0x128] = a1\n 31142: a0 = u64 [s1 + 0x150]\n 31146: a1 = u64 [s1 + 0x118]\n 31150: a2 = u64 [s1 + 0x120]\n 31154: ra = 1264, jump @1585\n      : @1174 [@dyn 632] (gas: 7)\n 31160: u64 [s1 + 0xe8] = a0\n 31164: u64 [s1 + 0xe0] = a1\n 31168: a0 = u64 [s1 + 0x120]\n 31172: a2 = a0 + 0xffffffffffffff80\n 31175: a0 = u64 [s1 + 0x188]\n 31179: a1 = u64 [s1 + 0x180]\n 31183: ra = 1266, jump @1585\n      : @1175 [@dyn 633] (gas: 8)\n 31189: u64 [s1 + 0xd8] = a0\n 31193: u64 [s1 + 0xd0] = a1\n 31197: a2 = u64 [s1 + 0x120]\n 31201: a0 = a2 <u 0x80\n 31205: u64 [s1 + 0xa0] = a0\n 31209: a0 = u64 [s1 + 0x188]\n 31213: a1 = u64 [s1 + 0x180]\n 31217: ra = 1268, jump @1585\n      : @1176 [@dyn 634] (gas: 13)\n 31223: a4 = s1 + 0x100\n 31227: u64 [a4 + 0x70] = a1\n 31230: a1 = u64 [a4 + 0x68]\n 31233: a2 = u64 [a4 + 0x60]\n 31236: a2 = a2 | a1\n 31239: a1 = u64 [a4 + 0x78]\n 31242: a3 = u64 [a4 + 0x58]\n 31245: a1 = a1 | a3\n 31248: a1 = a1 | a2\n 31251: a3 = u64 [s1 + 0xa0]\n 31255: a0 = 0 if a3 == 0\n 31257: u64 [a4 + 0x48] = a0\n 31260: jump @1250 if a1 == 0\n      : @1177 (gas: 30)\n 31264: a2 = a3\n 31266: a0 = u64 [s1 + 0x128]\n 31270: a1 = u64 [s1 + 0xe0]\n 31274: a0 = a0 | a1\n 31277: a5 = a3\n 31279: a1 = u64 [s1 + 0xd0]\n 31283: a0 = a1 if a2 == 0\n 31286: a2 = u64 [s1 + 0x118]\n 31290: a3 = a2\n 31292: a1 = a2\n 31294: a2 = u64 [s1 + 0x120]\n 31298: a3 = a0 if a2 != 0\n 31301: u64 [s1 + 0x128] = a3\n 31305: a0 = u64 [s1 + 0x100]\n 31309: a3 = u64 [s1 + 0xe8]\n 31313: a0 = a0 | a3\n 31316: a3 = u64 [s1 + 0xd8]\n 31320: a0 = a3 if a5 == 0\n 31323: a4 = u64 [s1 + 0x150]\n 31327: a3 = a4\n 31329: a3 = a0 if a2 != 0\n 31332: u64 [s1 + 0x120] = a3\n 31336: a0 = u64 [s1 + 0x170]\n 31340: a0 = 0 if a5 == 0\n 31342: u64 [s1 + 0x170] = a0\n 31346: u64 [s1 + 224] = 0x15180\n 31353: a0 = u64 [s1 + 0x178]\n 31357: a2 = a0 + 0xffffffffffffff80\n 31360: a0 = a4\n 31362: ra = 1270, jump @1580\n      : @1178 [@dyn 635] (gas: 6)\n 31368: u64 [s1 + 0x100] = a0\n 31372: u64 [s1 + 0xe8] = a1\n 31376: a0 = u64 [s1 + 0x188]\n 31380: a1 = u64 [s1 + 0x180]\n 31384: a2 = u64 [s1 + 0x178]\n 31388: ra = 1272, jump @1580\n      : @1179 [@dyn 636] (gas: 7)\n 31394: u64 [s1 + 0xd0] = a0\n 31398: u64 [s1 + 0xd8] = a1\n 31402: a1 = u64 [s1 + 0x178]\n 31406: a2 = 0x80 - a1\n 31410: a0 = u64 [s1 + 0x150]\n 31414: a1 = u64 [s1 + 0x118]\n 31418: ra = 1274, jump @1585\n      : @1180 [@dyn 637] (gas: 20)\n 31424: a2 = u64 [s1 + 0xd8]\n 31428: a1 = a1 | a2\n 31431: a2 = u64 [s1 + 0x178]\n 31435: a3 = a2 <u 0x80\n 31439: u64 [s1 + 0xd8] = a3\n 31443: a4 = u64 [s1 + 0xe8]\n 31447: a1 = a4 if a3 == 0\n 31450: a4 = u64 [s1 + 0x180]\n 31454: a4 = a1 if a2 != 0\n 31457: u64 [s1 + 0x180] = a4\n 31461: a1 = u64 [s1 + 0xd0]\n 31465: a0 = a0 | a1\n 31468: a1 = u64 [s1 + 0x100]\n 31472: a0 = a1 if a3 == 0\n 31475: a1 = u64 [s1 + 0x188]\n 31479: a1 = a0 if a2 != 0\n 31482: u64 [s1 + 0x188] = a1\n 31486: a0 = u64 [s1 + 0x150]\n 31490: a1 = u64 [s1 + 0x118]\n 31494: ra = 1276, jump @1580\n      : @1181 [@dyn 638] (gas: 13)\n 31500: u64 [s1 + 336] = 0\n 31504: u64 [s1 + 280] = 0\n 31508: a2 = u64 [s1 + 0xd8]\n 31512: a1 = 0 if a2 == 0\n 31514: u64 [s1 + 0x100] = a1\n 31518: a0 = 0 if a2 == 0\n 31520: a3 = u64 [s1 + 0xe0]\n 31524: a2 = a3 + 0xffffffffffffffff\n 31527: u64 [s1 + 0xd8] = a2\n 31531: a2 = a3 >u 0\n 31533: a2 = a2 + 0xffffffffffffffff\n 31536: u64 [s1 + 0xd0] = a2\n 31540: fallthrough\n      : @1182 (gas: 92)\n 31541: a4 = u64 [s1 + 0x188]\n 31545: a2 = a4 >> 0x3f\n 31548: t1 = u64 [s1 + 0x180]\n 31552: a3 = t1 << 0x1\n 31555: ra = a3 | a2\n 31558: a3 = a4 << 0x1\n 31561: t2 = u64 [s1 + 0x128]\n 31565: a4 = t2 >> 0x3f\n 31568: a3 = a3 | a4\n 31571: u64 [s1 + 0xe8] = a3\n 31575: a2 = u64 [s1 + 0xd0]\n 31579: a1 = a2 ^ ra\n 31582: t0 = a2 <u ra\n 31585: a4 = u64 [s1 + 0xd8]\n 31589: a5 = a4 <u a3\n 31592: a5 = t0 if a1 != 0\n 31595: a1 = u64 [s1 + 0x100]\n 31599: a1 = a1 << 0x1\n 31602: a3 = a0 >> 0x3f\n 31605: a1 = a1 | a3\n 31608: u64 [s1 + 0x100] = a1\n 31612: a3 = t1 >> 0x3f\n 31615: a0 = a0 << 0x1\n 31618: a3 = a3 | a0\n 31621: a0 = t2 << 0x1\n 31624: a4 = u64 [s1 + 0x120]\n 31628: a1 = a4 >> 0x3f\n 31631: t0 = a0 | a1\n 31634: a1 = a4 << 0x1\n 31637: a4 = u64 [s1 + 0x170]\n 31641: t1 = a4 >> 0x3f\n 31644: t1 = a1 | t1\n 31647: a1 = a4 << 0x1\n 31650: a4 = u64 [s1 + 0x148]\n 31654: t2 = a4 >> 0x3f\n 31657: a1 = a1 | t2\n 31660: a4 = a4 << 0x1\n 31663: a0 = u64 [s1 + 0x150]\n 31667: a4 = a4 | a0\n 31670: u64 [s1 + 0x148] = a4\n 31674: a0 = u64 [s1 + 0x118]\n 31678: a1 = a1 | a0\n 31681: u64 [s1 + 0x170] = a1\n 31685: a1 = a0 | t1\n 31688: u64 [s1 + 0x120] = a1\n 31692: a0 = a0 | t0\n 31695: u64 [s1 + 0x128] = a0\n 31699: a0 = a2 - a3\n 31702: a0 = a0 <u a5\n 31705: a1 = a2 <u a3\n 31708: a5 = u64 [s1 + 0x100]\n 31712: a4 = a2 - a5\n 31715: a4 = a4 - a1\n 31718: a4 = a4 - a0\n 31721: t1 = a4 >>a 0x3f\n 31724: a0 = u64 [s1 + 0xe0]\n 31728: a0 = t1 & a0\n 31731: a2 = u64 [s1 + 0xe8]\n 31735: a1 = a2 - a0\n 31738: u64 [s1 + 0x188] = a1\n 31742: a1 = a2 <u a0\n 31745: a0 = ra - a1\n 31748: u64 [s1 + 0x180] = a0\n 31752: a1 = 0 if ra != 0\n 31754: a0 = a3 - a1\n 31757: a1 = a3 <u a1\n 31760: a1 = a5 - a1\n 31763: u64 [s1 + 0x100] = a1\n 31767: a1 = s1 + 0x100\n 31771: a5 = u64 [a1 + 0x78]\n 31774: a3 = u64 [a1 + 0x68]\n 31777: a2 = a5 | a3\n 31780: a2 = a2 <u 0x1\n 31783: a4 = u64 [a1 + 0x58]\n 31786: t0 = a4 <u a2\n 31789: a2 = a4 - a2\n 31792: a4 = a5 <u 0x1\n 31795: a3 = a3 - a4\n 31798: a4 = u64 [a1 + 0x60]\n 31801: a4 = a4 - t0\n 31804: a5 = a5 + 0xffffffffffffffff\n 31807: u64 [a1 + 0x68] = a3\n 31810: u64 [a1 + 0x60] = a4\n 31813: a3 = a3 | a4\n 31816: u64 [a1 + 0x78] = a5\n 31819: a4 = a5 | a2\n 31822: a3 = a3 | a4\n 31825: a4 = t1 & 0x1\n 31828: u64 [a1 + 0x50] = a4\n 31831: u64 [a1 + 0x58] = a2\n 31834: u64 [s1 + 280] = 0\n 31838: jump @1182 if a3 != 0\n      : @1183 (gas: 1)\n 31842: jump @1251\n      : @1184 (gas: 2)\n 31845: u64 [s1 + 344] = 0\n 31849: fallthrough\n      : @1185 (gas: 5)\n 31850: a0 = u64 [s1 + 0x178]\n 31854: a0 = a0 << 0x1\n 31857: a4 = u64 [s1 + 0x158]\n 31861: a4 = a4 | a0\n 31864: fallthrough\n      : @1186 (gas: 2)\n 31865: a0 = u64 [s1 + 0x108]\n 31869: jump @1307 if a0 >=u a4\n      : @1187 (gas: 9)\n 31873: a0 = u64 [s1 + 0xd8]\n 31877: a0 = a0 << 0x20\n 31880: a1 = a0 >> 0x20\n 31883: a0 = a1 + 0xffffffffffffffff\n 31886: a0 = a0 <u 0x32\n 31889: a0 = 0 if a1 == 0\n 31891: u64 [s1 + 0x138] = a1\n 31895: a0 = 0 if a1 == 0\n 31897: jump @1311 if a0 == 0\n      : @1188 (gas: 20)\n 31901: a0 = 0xffffffff\n 31911: u64 [s1 + 0x178] = a0\n 31915: a0 = u64 [s1 + 0x100]\n 31919: a0 = a0 << 0x20\n 31922: a2 = a0 >> 0x20\n 31925: a0 = s1 + 0x7ff\n 31929: a0 = a0 + 0x119\n 31933: u64 [a0 + 0] = 0\n 31935: a1 = u64 [s1 + 0x110]\n 31939: a3 = s1 + 0x1000\n 31943: u64 [a3 + 0xfffffffffffff900] = a1\n 31947: a1 = u64 [s1 + 0x118]\n 31951: a3 = s1 + 0x1000\n 31955: u64 [a3 + 0xfffffffffffff908] = a1\n 31959: a1 = s1 + 0x7ff\n 31963: a1 = a1 + 0x101\n 31967: u64 [s1 + 0x148] = a2\n 31971: u64 [a0 + 0xfffffffffffffff8] = a2\n 31974: a0 = 0\n 31976: ra = 1278, jump @24\n      : @1189 [@dyn 639] (gas: 12)\n 31982: a0 = s1 + 0x1000\n 31986: u64 [a0 + 4294965496] = 0\n 31990: a0 = s1 + 0x1000\n 31994: u64 [a0 + 4294965488] = 0\n 31998: a1 = s1 + 0x1000\n 32002: u64 [a1 + 4294965472] = 0x3\n 32007: a0 = 0x20\n 32010: a1 = s1 + 0x7ff\n 32014: a1 = a1 + 0xe1\n 32018: a2 = s1 + 0x1000\n 32022: u64 [a2 + 4294965480] = 0\n 32026: ra = 1280, jump @24\n      : @1190 [@dyn 640] (gas: 5)\n 32032: a0 = 0x20170\n 32037: u64 [s1 + 0x190] = a0\n 32041: a0 = i32 [0x20170]\n 32046: a1 = 0x3f\n 32049: jump @1192 if a1 <u a0\n      : @1191 (gas: 3)\n 32052: a1 = u64 [s1 + 0x190]\n 32056: u32 [a1 + 0] = 0x40\n 32059: fallthrough\n      : @1192 (gas: 3)\n 32060: a0 = 0xffffffff00000000\n 32070: u64 [s1 + 0x130] = a0\n 32074: t0 = 1282, jump @1542\n      : @1193 [@dyn 641] (gas: 10)\n 32080: a0 = 0x20180\n 32085: i32 a0 = a0 + 0\n 32087: i32 a2 = a2 + 0\n 32089: a1 = 0x40\n 32092: u64 [s1 + 0x180] = a0\n 32096: ra = 0x504\n 32100: ecalli 8 // 'hash_keccak_256'\n 32102: a3 = u64 [s1 + 0x198]\n 32106: t0 = 0x506\n 32110: jump @1512\n      : @1194 [@dyn 642] (gas: 2)\n 32113: a3 = u64 [s1 + 0x198]\n 32117: t0 = 1286, jump @1512\n      : @1195 [@dyn 643] (gas: 8)\n 32123: u64 [a4 + 0x40] = a3\n 32126: u64 [a4 + 0x38] = a2\n 32129: u64 [a4 + 0x30] = a1\n 32132: u64 [a4 + 0x28] = a0\n 32135: a0 = s1 + 0x7ff\n 32139: a0 = a0 + 0xc1\n 32143: a1 = s1 + 0x2940\n 32147: ra = 1288, jump @26\n      : @1196 [@dyn 644] (gas: 9)\n 32153: a0 = s1 + 0x1000\n 32157: a0 = u64 [a0 + 0xfffffffffffff8c0]\n 32161: u64 [s1 + 320] = 0\n 32165: u64 [s1 + 392] = 0\n 32169: a1 = u64 [s1 + 0x178]\n 32173: a0 = a0 & a1\n 32176: u64 [s1 + 0x128] = a0\n 32180: a0 = 0x1\n 32183: fallthrough\n      : @1197 (gas: 9)\n 32184: a4 = s1 + 0x100\n 32188: u64 [a4 + 0x98] = a0\n 32192: a3 = u64 [a4 + 0x88]\n 32196: a0 = a3 >u 0\n 32198: a1 = a3 >u 0\n 32200: a1 = a0 if a3 == 0\n 32203: a0 = u64 [a4 + 0x28]\n 32206: a2 = u64 [a4 + 0x98]\n 32210: t0 = 1290, jump @1570\n      : @1198 [@dyn 645] (gas: 1)\n 32216: jump @1315 if a2 != 0\n      : @1199 (gas: 6)\n 32220: a2 = s1 + 0x100\n 32224: a0 = u64 [a2 + 0x78]\n 32227: a1 = u64 [a2 + 0x40]\n 32230: a0 = a0 & a1\n 32233: a1 = u64 [a2 + 0x38]\n 32236: jump @1315 if a0 >=u a1\n      : @1200 (gas: 15)\n 32240: a0 = s1 + 0x1000\n 32244: u64 [a0 + 4294965432] = 0\n 32248: a0 = u64 [s1 + 0x110]\n 32252: a1 = s1 + 0x1000\n 32256: u64 [a1 + 0xfffffffffffff8a0] = a0\n 32260: a0 = u64 [s1 + 0x118]\n 32264: a1 = s1 + 0x1000\n 32268: u64 [a1 + 0xfffffffffffff8a8] = a0\n 32272: a1 = s1 + 0x7ff\n 32276: a1 = a1 + 0xa1\n 32280: a0 = u64 [s1 + 0x148]\n 32284: a2 = s1 + 0x1000\n 32288: u64 [a2 + 0xfffffffffffff8b0] = a0\n 32292: a0 = 0\n 32294: ra = 1292, jump @24\n      : @1201 [@dyn 646] (gas: 12)\n 32300: a0 = s1 + 0x1000\n 32304: u64 [a0 + 4294965400] = 0\n 32308: a0 = s1 + 0x1000\n 32312: u64 [a0 + 4294965392] = 0\n 32316: a0 = s1 + 0x1000\n 32320: u64 [a0 + 4294965384] = 0\n 32324: a0 = 0x20\n 32327: a1 = s1 + 0x7ff\n 32331: a1 = a1 + 0x81\n 32335: a3 = s1 + 0x1000\n 32339: u64 [a3 + 4294965376] = 0x2\n 32344: ra = 1294, jump @24\n      : @1202 [@dyn 647] (gas: 3)\n 32350: a0 = u64 [s1 + 0x190]\n 32354: a0 = i32 [a0]\n 32356: jump @1204 if a0 >u 63\n      : @1203 (gas: 4)\n 32360: a1 = u64 [s1 + 0x190]\n 32364: u32 [a1 + 0] = 0x40\n 32367: t0 = 0x510\n 32371: jump @1522\n      : @1204 (gas: 1)\n 32374: t0 = 1296, jump @1522\n      : @1205 [@dyn 648] (gas: 4)\n 32380: ra = 0x512\n 32384: ecalli 8 // 'hash_keccak_256'\n 32386: t0 = 0x514\n 32390: jump @1510\n      : @1206 [@dyn 649] (gas: 1)\n 32393: t0 = 1300, jump @1510\n      : @1207 [@dyn 650] (gas: 13)\n 32399: a1 = s1 + 0x1000\n 32403: u64 [a1 + 0xfffffffffffff878] = a0\n 32407: a1 = s1 + 0x1000\n 32411: u64 [a1 + 0xfffffffffffff870] = a0\n 32415: a1 = s1 + 0x1000\n 32419: u64 [a1 + 0xfffffffffffff868] = a0\n 32423: a1 = s1 + 0x7ff\n 32427: a1 = a1 + 0x61\n 32430: a0 = u64 [s1 + 0x198]\n 32434: a2 = s1 + 0x1000\n 32438: u64 [a2 + 0xfffffffffffff860] = a0\n 32442: a0 = 0\n 32444: ra = 1302, jump @24\n      : @1208 [@dyn 651] (gas: 16)\n 32450: a0 = u64 [s1 + 0x150]\n 32454: a1 = s1 + 0x1000\n 32458: u64 [a1 + 0xfffffffffffff858] = a0\n 32462: a0 = u64 [s1 + 0x158]\n 32466: a1 = s1 + 0x1000\n 32470: u64 [a1 + 0xfffffffffffff850] = a0\n 32474: a0 = u64 [s1 + 0x160]\n 32478: a1 = s1 + 0x1000\n 32482: u64 [a1 + 0xfffffffffffff848] = a0\n 32486: a0 = 0x20\n 32489: a1 = s1 + 0x7ff\n 32493: a1 = a1 + 0x41\n 32496: a2 = u64 [s1 + 0x168]\n 32500: a3 = s1 + 0x1000\n 32504: u64 [a3 + 0xfffffffffffff840] = a2\n 32508: ra = 1304, jump @24\n      : @1209 [@dyn 652] (gas: 3)\n 32514: a0 = u64 [s1 + 0x190]\n 32518: a0 = i32 [a0]\n 32520: jump @1211 if a0 >u 63\n      : @1210 (gas: 4)\n 32524: a0 = u64 [s1 + 0x190]\n 32528: u32 [a0 + 0] = 0x40\n 32531: t0 = 0x51a\n 32535: jump @1550\n      : @1211 (gas: 1)\n 32538: t0 = 1306, jump @1550\n      : @1212 [@dyn 653] (gas: 5)\n 32544: ra = 0x51c\n 32548: ecalli 8 // 'hash_keccak_256'\n 32550: a3 = u64 [s1 + 0x168]\n 32554: t0 = 0x51e\n 32558: jump @1547\n      : @1213 [@dyn 654] (gas: 2)\n 32561: a3 = u64 [s1 + 0x168]\n 32565: t0 = 1310, jump @1547\n      : @1214 [@dyn 655] (gas: 12)\n 32571: a1 = u64 [s1 + 0x170]\n 32575: u64 [s1 + 0x160] = a2\n 32579: u64 [a1 + 0x18] = a2\n 32582: u64 [s1 + 0x168] = a0\n 32586: u64 [a1 + 0x10] = a0\n 32589: u64 [s1 + 0x158] = a4\n 32593: u64 [a1 + 0x8] = a4\n 32596: u64 [s1 + 0x150] = a5\n 32600: u64 [a1] = a5\n 32602: a0 = s1 + 0x7ff\n 32606: a0 = a0 + 0x21\n 32609: ra = 1312, jump @26\n      : @1215 [@dyn 656] (gas: 13)\n 32615: a0 = s1 + 0x1000\n 32619: a0 = u64 [a0 + 0xfffffffffffff828]\n 32623: a1 = s1 + 0x1000\n 32627: a1 = u64 [a1 + 0xfffffffffffff830]\n 32631: a2 = s1 + 0x1000\n 32635: a2 = u64 [a2 + 0xfffffffffffff820]\n 32639: a0 = a0 & 0xffffffffffffffff\n 32642: a1 = a1 & 0xffffffffffffffff\n 32645: a3 = u64 [s1 + 0x130]\n 32649: a2 = a2 & a3\n 32652: a1 = a1 | a2\n 32655: a0 = a0 | a1\n 32658: jump @1245 if a0 == 0\n      : @1216 (gas: 6)\n 32662: a5 = s1 + 0x100\n 32666: a1 = u64 [a5 + 0x50]\n 32669: a0 = a1 + 0x2\n 32672: a1 = a0 <u a1\n 32675: a3 = u64 [a5 + 0x58]\n 32678: t0 = 1314, jump @1540\n      : @1217 [@dyn 657] (gas: 14)\n 32684: a1 = u64 [a5 + 0x68]\n 32687: a3 = a3 + a1\n 32690: a1 = a3 <u a1\n 32693: a4 = u64 [a5 + 0x60]\n 32696: a1 = a1 + a4\n 32699: a4 = s1 + 0x2918\n 32703: u64 [a4 + 0x48] = a0\n 32706: u64 [a4 + 0x50] = a2\n 32709: u64 [a4 + 0x58] = a3\n 32712: u64 [a4 + 0x60] = a1\n 32715: a0 = s1 + 0x7ff\n 32719: a0 = a0 + 0x1\n 32722: a1 = s1 + 0x2960\n 32726: ra = 1316, jump @26\n      : @1218 [@dyn 658] (gas: 4)\n 32732: a0 = s1 + 0x1000\n 32736: a0 = u64 [a0 + 0xfffffffffffff808]\n 32740: a0 = a0 & 0xff\n 32744: jump @1245 if a0 != 0\n      : @1219 (gas: 10)\n 32748: u64 [s1 + 2040] = 0\n 32752: a0 = u64 [s1 + 0x110]\n 32756: u64 [s1 + 0x7e0] = a0\n 32760: a0 = u64 [s1 + 0x118]\n 32764: u64 [s1 + 0x7e8] = a0\n 32768: a1 = s1 + 0x7e0\n 32772: a0 = u64 [s1 + 0x148]\n 32776: u64 [s1 + 0x7f0] = a0\n 32780: a0 = 0\n 32782: ra = 1318, jump @24\n      : @1220 [@dyn 659] (gas: 7)\n 32788: u64 [s1 + 2008] = 0\n 32792: u64 [s1 + 2000] = 0\n 32796: u64 [s1 + 1992] = 0\n 32800: a0 = 0x20\n 32803: a1 = s1 + 0x7c0\n 32807: u64 [s1 + 1984] = 0x4\n 32812: ra = 1320, jump @24\n      : @1221 [@dyn 660] (gas: 3)\n 32818: a0 = u64 [s1 + 0x190]\n 32822: a0 = i32 [a0]\n 32824: jump @1223 if a0 >u 63\n      : @1222 (gas: 4)\n 32828: a0 = u64 [s1 + 0x190]\n 32832: u32 [a0 + 0] = 0x40\n 32835: t0 = 0x52a\n 32839: jump @1522\n      : @1223 (gas: 1)\n 32842: t0 = 1322, jump @1522\n      : @1224 [@dyn 661] (gas: 3)\n 32848: ra = 0x52c\n 32852: ecalli 8 // 'hash_keccak_256'\n 32854: fallthrough\n      : @1225 [@dyn 662] (gas: 8)\n 32855: a3 = u64 [s1 + 0x170]\n 32859: a0 = u64 [a3 + 0x18]\n 32862: a1 = u64 [a3 + 0x10]\n 32865: a2 = u64 [a3 + 0x8]\n 32868: a3 = u64 [a3]\n 32870: a0 = reverse a0\n 32872: u64 [s1 + 0x170] = a0\n 32876: t0 = 1326, jump @1555\n      : @1226 [@dyn 663] (gas: 8)\n 32882: u64 [s1 + 1976] = 0\n 32886: u64 [s1 + 1968] = 0\n 32890: u64 [s1 + 1960] = 0\n 32894: a1 = s1 + 0x7a0\n 32898: a0 = u64 [s1 + 0x108]\n 32902: u64 [s1 + 0x7a0] = a0\n 32906: a0 = 0\n 32908: ra = 1328, jump @24\n      : @1227 [@dyn 664] (gas: 12)\n 32914: a0 = u64 [s1 + 0x158]\n 32918: a3 = s1 + 0x700\n 32922: u64 [a3 + 0x98] = a0\n 32926: a0 = u64 [s1 + 0x160]\n 32930: u64 [a3 + 0x90] = a0\n 32934: a0 = u64 [s1 + 0x168]\n 32938: u64 [a3 + 0x88] = a0\n 32942: a0 = 0x20\n 32945: a1 = s1 + 0x780\n 32949: a2 = u64 [s1 + 0x170]\n 32953: u64 [a3 + 0x80] = a2\n 32957: ra = 1330, jump @24\n      : @1228 [@dyn 665] (gas: 3)\n 32963: a0 = u64 [s1 + 0x190]\n 32967: a0 = i32 [a0]\n 32969: jump @1230 if a0 >u 63\n      : @1229 (gas: 4)\n 32973: a0 = u64 [s1 + 0x190]\n 32977: u32 [a0 + 0] = 0x40\n 32980: t0 = 0x534\n 32984: jump @1522\n      : @1230 (gas: 1)\n 32987: t0 = 1332, jump @1522\n      : @1231 [@dyn 666] (gas: 4)\n 32993: ra = 0x536\n 32997: ecalli 8 // 'hash_keccak_256'\n 32999: t0 = 0x538\n 33003: jump @1510\n      : @1232 [@dyn 667] (gas: 1)\n 33006: t0 = 1336, jump @1510\n      : @1233 [@dyn 668] (gas: 8)\n 33012: u64 [s1 + 0x778] = a0\n 33016: u64 [s1 + 0x770] = a0\n 33020: u64 [s1 + 0x768] = a0\n 33024: a1 = s1 + 0x760\n 33028: a0 = u64 [s1 + 0x198]\n 33032: u64 [s1 + 0x760] = a0\n 33036: a0 = 0\n 33038: ra = 1338, jump @24\n      : @1234 [@dyn 669] (gas: 12)\n 33044: a0 = u64 [s1 + 0x150]\n 33048: a3 = s1 + 0x700\n 33052: u64 [a3 + 0x58] = a0\n 33055: a0 = u64 [s1 + 0x158]\n 33059: u64 [a3 + 0x50] = a0\n 33062: a0 = u64 [s1 + 0x160]\n 33066: u64 [a3 + 0x48] = a0\n 33069: a0 = 0x20\n 33072: a1 = s1 + 0x740\n 33076: a2 = u64 [s1 + 0x168]\n 33080: u64 [a3 + 0x40] = a2\n 33083: ra = 1340, jump @24\n      : @1235 [@dyn 670] (gas: 3)\n 33089: a0 = u64 [s1 + 0x190]\n 33093: a0 = i32 [a0]\n 33095: jump @1237 if a0 >u 63\n      : @1236 (gas: 4)\n 33099: a0 = u64 [s1 + 0x190]\n 33103: u32 [a0 + 0] = 0x40\n 33106: t0 = 0x53e\n 33110: jump @1550\n      : @1237 (gas: 1)\n 33113: t0 = 1342, jump @1550\n      : @1238 [@dyn 671] (gas: 5)\n 33119: ra = 0x540\n 33123: ecalli 8 // 'hash_keccak_256'\n 33125: a3 = u64 [s1 + 0x168]\n 33129: t0 = 0x542\n 33133: jump @1509\n      : @1239 [@dyn 672] (gas: 2)\n 33136: a3 = u64 [s1 + 0x168]\n 33140: t0 = 1346, jump @1509\n      : @1240 [@dyn 673] (gas: 2)\n 33146: a0 = s1 + 0x720\n 33150: ra = 1348, jump @26\n      : @1241 [@dyn 674] (gas: 3)\n 33156: a0 = u64 [s1 + 0x720]\n 33160: a1 = a0 & 0xff\n 33164: jump @1245 if a1 == 0\n      : @1242 (gas: 2)\n 33168: a0 = a0 & 0xff0000\n 33174: jump @1245 if a0 != 0\n      : @1243 (gas: 28)\n 33178: a0 = u64 [s1 + 0x198]\n 33182: a2 = s1 + 0x600\n 33186: u64 [a2 + 0xc0] = a0\n 33190: a0 = u64 [s1 + 0x108]\n 33194: u64 [a2 + 0xe0] = a0\n 33198: a0 = u64 [s1 + 0x110]\n 33202: a4 = s1 + 0x700\n 33206: u64 [a4] = a0\n 33208: a1 = u64 [s1 + 0x188]\n 33212: u64 [a2 + 0xc8] = a1\n 33216: a0 = u64 [s1 + 0xe0]\n 33220: u64 [a2 + 0xe8] = a0\n 33224: a0 = u64 [s1 + 0x118]\n 33228: u64 [a4 + 0x8] = a0\n 33231: u64 [a2 + 0xd0] = a1\n 33235: a0 = u64 [s1 + 0xe8]\n 33239: u64 [a2 + 0xf0] = a0\n 33243: a0 = u64 [s1 + 0x100]\n 33247: u64 [a4 + 0x10] = a0\n 33250: u64 [a2 + 0xd8] = a1\n 33254: a0 = u64 [s1 + 0xf0]\n 33258: u64 [a2 + 0xf8] = a0\n 33262: a0 = s1 + 0x700\n 33266: a1 = s1 + 0x6e0\n 33270: a2 = s1 + 0x6c0\n 33274: a3 = u64 [s1 + 0xf8]\n 33278: u64 [a4 + 0x18] = a3\n 33281: ra = 1350, jump @1358\n      : @1244 [@dyn 675] (gas: 7)\n 33287: a2 = s1 + 0x100\n 33291: a0 = u64 [a2 + 0x40]\n 33294: a0 = a0 + 0x1\n 33297: a1 = u64 [a2 + 0x78]\n 33300: a0 = a0 & a1\n 33303: u64 [a2 + 0x40] = a0\n 33306: fallthrough\n      : @1245 (gas: 6)\n 33307: u64 [s1 + 392] = 0\n 33311: a0 = u64 [s1 + 0x198]\n 33315: a0 = a0 + 0x1\n 33318: a1 = u64 [s1 + 0x178]\n 33322: a0 = a0 & a1\n 33325: jump @1197\n      : @1246 (gas: 11)\n 33328: a2 = s1 + 0x7ff\n 33332: a2 = a2 + 0x119\n 33336: u64 [a2 + 1720] = 0\n 33340: u64 [a2 + 1712] = 0\n 33344: a0 = 0x7862e95900000000\n 33354: u64 [a2 + 0x6c0] = a0\n 33358: a1 = s1 + 0x7ff\n 33362: a1 = a1 + 0x7c1\n 33366: u64 [a2 + 1704] = 0\n 33370: a0 = 0\n 33372: ra = 1352, jump @24\n      : @1247 [@dyn 676] (gas: 2)\n 33379: a1 = i32 [0x20170]\n 33384: jump @1249 if a1 >u 31\n      : @1248 (gas: 3)\n 33388: u32 [0x20170] = 0x20\n 33394: a1 = 0x20180\n 33399: jump @862\n      : @1249 (gas: 2)\n 33402: a1 = 0x20180\n 33407: jump @862\n      : @1250 (gas: 2)\n 33410: u64 [s1 + 336] = 0\n 33414: fallthrough\n      : @1251 (gas: 7)\n 33415: a2 = s1 + 0x100\n 33419: a0 = u64 [a2 + 0x48]\n 33422: a0 = a0 << 0x1\n 33425: a1 = u64 [a2 + 0x50]\n 33428: a0 = a0 | a1\n 33431: u64 [a2] = a0\n 33433: fallthrough\n      : @1252 (gas: 10)\n 33434: u64 [s1 + 384] = 0\n 33438: u64 [s1 + 328] = 0\n 33442: a0 = u64 [s1 + 0x140]\n 33446: a1 = u64 [s1 + 0xa8]\n 33450: a0 = a0 & a1\n 33453: u64 [s1 + 0xe8] = a0\n 33457: a0 = 0xffffffff00000000\n 33467: u64 [s1 + 0xe0] = a0\n 33471: a0 = 0x1\n 33474: fallthrough\n      : @1253 (gas: 9)\n 33475: a4 = s1 + 0x100\n 33479: u64 [a4 + 0x78] = a0\n 33482: a3 = u64 [a4 + 0x48]\n 33485: a0 = a3 >u 0\n 33487: a1 = a3 >u 0\n 33489: a1 = a0 if a3 == 0\n 33492: a0 = u64 [s1 + 0xe8]\n 33496: a2 = u64 [a4 + 0x78]\n 33499: t0 = 1354, jump @1570\n      : @1254 [@dyn 677] (gas: 1)\n 33505: jump @1256 if a2 == 0\n      : @1255 (gas: 1)\n 33508: jump @1082\n      : @1256 (gas: 6)\n 33511: a2 = s1 + 0x100\n 33515: a0 = u64 [a2 + 0x40]\n 33518: a1 = u64 [a2 + 0x80]\n 33522: a0 = a0 & a1\n 33525: a1 = u64 [a2 + 0x10]\n 33528: jump @1258 if a0 <u a1\n      : @1257 (gas: 1)\n 33531: jump @1082\n      : @1258 (gas: 14)\n 33534: a2 = s1 + 0x7ff\n 33538: a2 = a2 + 0x119\n 33542: u64 [a2 + 1600] = 0\n 33546: a0 = u64 [s1 + 0x130]\n 33550: a3 = a2 + 0x600\n 33554: u64 [a3 + 0x28] = a0\n 33557: a0 = u64 [s1 + 0x138]\n 33561: u64 [a3 + 0x30] = a0\n 33564: a1 = s1 + 0x7ff\n 33568: a1 = a1 + 0x741\n 33572: a0 = u64 [s1 + 0x108]\n 33576: u64 [a3 + 0x38] = a0\n 33579: a0 = 0\n 33581: ra = 1356, jump @24\n      : @1259 [@dyn 678] (gas: 11)\n 33588: a0 = s1 + 0x7ff\n 33592: a0 = a0 + 0x119\n 33596: u64 [a0 + 1568] = 0\n 33600: u64 [a0 + 1560] = 0\n 33604: u64 [a0 + 1552] = 0\n 33608: a3 = a0\n 33610: a0 = 0x20\n 33613: a1 = s1 + 0x7ff\n 33617: a1 = a1 + 0x721\n 33621: u64 [a3 + 1544] = 0x2\n 33626: ra = 1358, jump @24\n      : @1260 [@dyn 679] (gas: 3)\n 33633: a0 = u64 [s1 + 0x198]\n 33637: a0 = i32 [a0]\n 33639: jump @1262 if a0 >u 63\n      : @1261 (gas: 3)\n 33643: a1 = u64 [s1 + 0x198]\n 33647: u32 [a1 + 0] = 0x40\n 33650: fallthrough\n      : @1262 (gas: 4)\n 33651: a0 = sp + 0xffffffffffffffe0\n 33654: a0 = a0 & 0xffffffffffffffe0\n 33657: u64 [s1 + 0x188] = a0\n 33661: t0 = 1360, jump @1500\n      : @1263 [@dyn 680] (gas: 31)\n 33667: ecalli 8 // 'hash_keccak_256'\n 33669: a3 = u64 [s1 + 0x188]\n 33673: a0 = u64 [a3 + 0x18]\n 33676: a1 = u64 [a3 + 0x10]\n 33679: a2 = u64 [a3 + 0x8]\n 33682: a3 = u64 [a3]\n 33684: a0 = reverse a0\n 33686: u64 [s1 + 0x170] = a0\n 33690: a0 = reverse a1\n 33692: u64 [s1 + 0x168] = a0\n 33696: a0 = reverse a2\n 33698: u64 [s1 + 0x160] = a0\n 33702: a0 = reverse a3\n 33704: u64 [s1 + 0x158] = a0\n 33708: a0 = sp + 0xffffffffffffffe0\n 33711: a0 = a0 & 0xffffffffffffffe0\n 33714: u64 [s1 + 0x188] = a0\n 33718: sp = a0\n 33720: a2 = s1 + 0x7ff\n 33724: a2 = a2 + 0x119\n 33728: a0 = u64 [s1 + 0x148]\n 33732: u64 [a2 + 0x600] = a0\n 33736: a3 = a2 + 0x500\n 33740: u64 [a3 + 0xf8] = a0\n 33744: u64 [a3 + 0xf0] = a0\n 33748: a1 = s1 + 0x7ff\n 33752: a1 = a1 + 0x701\n 33756: a0 = u64 [s1 + 0x178]\n 33760: u64 [a3 + 0xe8] = a0\n 33764: a0 = 0\n 33766: ra = 1362, jump @24\n      : @1264 [@dyn 681] (gas: 16)\n 33773: a0 = u64 [s1 + 0x158]\n 33777: a1 = s1 + 0x7ff\n 33781: a1 = a1 + 0x119\n 33785: a2 = a1 + 0x500\n 33789: u64 [a2 + 0xe0] = a0\n 33793: a0 = u64 [s1 + 0x160]\n 33797: u64 [a2 + 0xd8] = a0\n 33801: a0 = u64 [s1 + 0x168]\n 33805: u64 [a2 + 0xd0] = a0\n 33809: a3 = a1\n 33811: a0 = 0x20\n 33814: a1 = s1 + 0x7ff\n 33818: a1 = a1 + 0x6e1\n 33822: a2 = u64 [s1 + 0x170]\n 33826: u64 [a3 + 0x5c8] = a2\n 33830: ra = 1364, jump @24\n      : @1265 [@dyn 682] (gas: 3)\n 33837: a0 = u64 [s1 + 0x198]\n 33841: a0 = i32 [a0]\n 33843: jump @1267 if a0 >u 63\n      : @1266 (gas: 3)\n 33847: a0 = u64 [s1 + 0x198]\n 33851: u32 [a0 + 0] = 0x40\n 33854: fallthrough\n      : @1267 (gas: 4)\n 33855: a0 = sp + 0xffffffffffffffe0\n 33858: a0 = a0 & 0xffffffffffffffe0\n 33861: u64 [s1 + 0x170] = a0\n 33865: t0 = 1366, jump @1500\n      : @1268 [@dyn 683] (gas: 5)\n 33871: ra = 0x558\n 33875: ecalli 8 // 'hash_keccak_256'\n 33877: a3 = u64 [s1 + 0x170]\n 33881: t0 = 0x55a\n 33885: jump @1547\n      : @1269 [@dyn 684] (gas: 2)\n 33888: a3 = u64 [s1 + 0x170]\n 33892: t0 = 1370, jump @1547\n      : @1270 [@dyn 685] (gas: 13)\n 33898: a3 = s1 + 0x100\n 33902: a1 = u64 [a3 + 0x88]\n 33906: u64 [a3 + 0x68] = a2\n 33909: u64 [a1 + 0x18] = a2\n 33912: u64 [a3 + 0x70] = a0\n 33915: u64 [a1 + 0x10] = a0\n 33918: u64 [a3 + 0x60] = a4\n 33921: u64 [a1 + 0x8] = a4\n 33924: u64 [a3 + 0x58] = a5\n 33927: u64 [a1] = a5\n 33929: a0 = s1 + 0x7ff\n 33933: a0 = a0 + 0x6c1\n 33937: ra = 1372, jump @26\n      : @1271 [@dyn 686] (gas: 13)\n 33944: a2 = s1 + 0x7ff\n 33948: a2 = a2 + 0x119\n 33952: a3 = a2 + 0x500\n 33956: a0 = u64 [a3 + 0xb0]\n 33960: a1 = u64 [a3 + 0xb8]\n 33964: a2 = u64 [a3 + 0xa8]\n 33968: a0 = a0 & 0xffffffffffffffff\n 33971: a1 = a1 & 0xffffffffffffffff\n 33974: a3 = u64 [s1 + 0xe0]\n 33978: a2 = a2 & a3\n 33981: a1 = a1 | a2\n 33984: a0 = a0 | a1\n 33987: jump @1274 if a0 == 0\n      : @1272 (gas: 27)\n 33990: a5 = s1 + 0x100\n 33994: a0 = u64 [a5 + 0x58]\n 33997: a2 = a0 + 0x2\n 34000: a0 = a2 <u a0\n 34003: a1 = u64 [a5 + 0x60]\n 34006: a3 = a1 + a0\n 34009: a1 = a3 <u a1\n 34012: a1 = a0 if a0 == 0\n 34015: a0 = u64 [a5 + 0x70]\n 34018: a4 = a0 + a1\n 34021: a0 = a4 <u a0\n 34024: a1 = u64 [a5 + 0x68]\n 34027: a1 = a1 + a0\n 34030: a0 = s1 + 0x2918\n 34034: u64 [a5 + 0x88] = a2\n 34038: u64 [a0 + 0x1c8] = a2\n 34042: u64 [a5 + 0x70] = a3\n 34045: a2 = a0 + 0x100\n 34049: u64 [a2 + 0xd0] = a3\n 34053: u64 [a5 + 0x68] = a4\n 34056: u64 [a2 + 0xd8] = a4\n 34060: u64 [a5 + 0x60] = a1\n 34063: u64 [a2 + 0xe0] = a1\n 34067: a0 = s1 + 0x7ff\n 34071: a0 = a0 + 0x6a1\n 34075: a1 = s1 + 0x2ae0\n 34079: ra = 1374, jump @26\n      : @1273 [@dyn 687] (gas: 5)\n 34086: a0 = s1 + 0x7ff\n 34090: a0 = a0 + 0x119\n 34094: a0 = u64 [a0 + 0x590]\n 34098: a0 = a0 & 0xff\n 34102: jump @1275 if a0 == 0\n      : @1274 (gas: 6)\n 34105: u64 [s1 + 328] = 0\n 34109: a0 = u64 [s1 + 0x178]\n 34113: a0 = a0 + 0x1\n 34116: a1 = u64 [s1 + 0x140]\n 34120: a0 = a0 & a1\n 34123: jump @1253\n      : @1275 (gas: 14)\n 34126: a0 = s1 + 0x2918\n 34130: a1 = u64 [s1 + 0x188]\n 34134: a2 = a0 + 0x100\n 34138: u64 [a2 + 0xe8] = a1\n 34142: a1 = u64 [s1 + 0x170]\n 34146: u64 [a2 + 0xf0] = a1\n 34150: a1 = u64 [s1 + 0x168]\n 34154: u64 [a2 + 0xf8] = a1\n 34158: a1 = u64 [s1 + 0x160]\n 34162: u64 [a0 + 0x200] = a1\n 34166: a0 = s1 + 0x7ff\n 34170: a0 = a0 + 0x681\n 34174: a1 = s1 + 0x2b00\n 34178: ra = 1376, jump @26\n      : @1276 [@dyn 688] (gas: 18)\n 34185: a3 = s1 + 0x7ff\n 34189: a3 = a3 + 0x119\n 34193: a0 = u64 [a3 + 0x568]\n 34197: a4 = a0 & 0xffffffffffffffff\n 34200: a1 = u64 [s1 + 0xb0]\n 34204: a0 = a4 <u a1\n 34207: a4 = a1 if a0 != 0\n 34210: a1 = u64 [s1 + 0xc8]\n 34214: a1 = 0 if a0 == 0\n 34216: a5 = s1 + 0x100\n 34220: u64 [a5 + 0x28] = a1\n 34223: a1 = u64 [s1 + 0xc0]\n 34227: a1 = 0 if a0 == 0\n 34229: u64 [a5 + 0x20] = a1\n 34232: a1 = u64 [s1 + 0xb8]\n 34236: a1 = 0 if a0 == 0\n 34238: u64 [a5 + 0x18] = a1\n 34241: fallthrough\n      : @1277 (gas: 3)\n 34242: a2 = a4 & 0xffffffffffffffff\n 34245: a0 = u64 [s1 + 0x100]\n 34249: jump @1274 if a2 >=u a0\n      : @1278 (gas: 8)\n 34253: a5 = s1 + 0x100\n 34257: u64 [a5 + 0x70] = a2\n 34260: u64 [a5 + 0x88] = a4\n 34264: a0 = u64 [a5 + 0x40]\n 34267: a1 = u64 [a5 + 0x80]\n 34271: a0 = a0 & a1\n 34274: a1 = u64 [a5 + 0x10]\n 34277: jump @1274 if a0 >=u a1\n      : @1279 (gas: 12)\n 34281: u64 [a3 + 1376] = 0\n 34285: a0 = u64 [s1 + 0x130]\n 34289: a2 = a3 + 0x500\n 34293: u64 [a2 + 0x48] = a0\n 34296: a0 = u64 [s1 + 0x138]\n 34300: u64 [a2 + 0x50] = a0\n 34303: a1 = s1 + 0x7ff\n 34307: a1 = a1 + 0x661\n 34311: a0 = u64 [s1 + 0x108]\n 34315: u64 [a2 + 0x58] = a0\n 34318: a0 = 0\n 34320: ra = 1378, jump @24\n      : @1280 [@dyn 689] (gas: 11)\n 34327: a0 = s1 + 0x7ff\n 34331: a0 = a0 + 0x119\n 34335: u64 [a0 + 1344] = 0\n 34339: u64 [a0 + 1336] = 0\n 34343: u64 [a0 + 1328] = 0\n 34347: a3 = a0\n 34349: a0 = 0x20\n 34352: a1 = s1 + 0x7ff\n 34356: a1 = a1 + 0x641\n 34360: u64 [a3 + 1320] = 0x4\n 34365: ra = 1380, jump @24\n      : @1281 [@dyn 690] (gas: 3)\n 34372: a1 = u64 [s1 + 0x198]\n 34376: a0 = i32 [a1]\n 34378: jump @1283 if a0 >u 63\n      : @1282 (gas: 2)\n 34382: u32 [a1 + 0] = 0x40\n 34385: fallthrough\n      : @1283 (gas: 4)\n 34386: a0 = sp + 0xffffffffffffffe0\n 34389: a0 = a0 & 0xffffffffffffffe0\n 34392: u64 [s1 + 0x168] = a0\n 34396: t0 = 1382, jump @1500\n      : @1284 [@dyn 691] (gas: 4)\n 34402: ra = 0x568\n 34406: ecalli 8 // 'hash_keccak_256'\n 34408: t0 = 0x56a\n 34412: jump @1554\n      : @1285 [@dyn 692] (gas: 1)\n 34415: t0 = 1386, jump @1554\n      : @1286 [@dyn 693] (gas: 18)\n 34421: u64 [s1 + 0x168] = a0\n 34425: a0 = reverse a1\n 34427: u64 [s1 + 0x160] = a0\n 34431: a0 = reverse a2\n 34433: u64 [s1 + 0x158] = a0\n 34437: a0 = reverse a3\n 34439: u64 [s1 + 0x150] = a0\n 34443: a2 = s1 + 0x7ff\n 34447: a2 = a2 + 0x119\n 34451: u64 [a2 + 1312] = 0\n 34455: u64 [a2 + 1304] = 0\n 34459: u64 [a2 + 1296] = 0\n 34463: a1 = s1 + 0x7ff\n 34467: a1 = a1 + 0x621\n 34471: a0 = u64 [s1 + 0x170]\n 34475: u64 [a2 + 0x508] = a0\n 34479: a0 = 0\n 34481: ra = 1388, jump @24\n      : @1287 [@dyn 694] (gas: 15)\n 34488: a0 = u64 [s1 + 0x150]\n 34492: a1 = s1 + 0x7ff\n 34496: a1 = a1 + 0x119\n 34500: u64 [a1 + 0x500] = a0\n 34504: a0 = u64 [s1 + 0x158]\n 34508: u64 [a1 + 0x4f8] = a0\n 34512: a0 = u64 [s1 + 0x160]\n 34516: u64 [a1 + 0x4f0] = a0\n 34520: a3 = a1\n 34522: a0 = 0x20\n 34525: a1 = s1 + 0x7ff\n 34529: a1 = a1 + 0x601\n 34533: a2 = u64 [s1 + 0x168]\n 34537: u64 [a3 + 0x4e8] = a2\n 34541: ra = 1390, jump @24\n      : @1288 [@dyn 695] (gas: 3)\n 34548: a1 = u64 [s1 + 0x198]\n 34552: a0 = i32 [a1]\n 34554: jump @1290 if a0 >u 63\n      : @1289 (gas: 2)\n 34558: u32 [a1 + 0] = 0x40\n 34561: fallthrough\n      : @1290 (gas: 4)\n 34562: a0 = sp + 0xffffffffffffffe0\n 34565: a0 = a0 & 0xffffffffffffffe0\n 34568: u64 [s1 + 0x170] = a0\n 34572: t0 = 1392, jump @1500\n      : @1291 [@dyn 696] (gas: 3)\n 34578: ra = 0x572\n 34582: ecalli 8 // 'hash_keccak_256'\n 34584: fallthrough\n      : @1292 [@dyn 697] (gas: 14)\n 34585: a3 = u64 [s1 + 0x170]\n 34589: a0 = u64 [a3 + 0x18]\n 34592: a1 = u64 [a3 + 0x10]\n 34595: a2 = u64 [a3 + 0x8]\n 34598: a3 = u64 [a3]\n 34600: a0 = reverse a0\n 34602: u64 [s1 + 0x168] = a0\n 34606: a0 = reverse a1\n 34608: u64 [s1 + 0x160] = a0\n 34612: a0 = reverse a2\n 34614: u64 [s1 + 0x158] = a0\n 34618: a0 = reverse a3\n 34620: u64 [s1 + 0x150] = a0\n 34624: t0 = 1396, jump @1567\n      : @1293 [@dyn 698] (gas: 13)\n 34630: a2 = s1 + 0x7ff\n 34634: a2 = a2 + 0x119\n 34638: a0 = u64 [s1 + 0x148]\n 34642: a3 = a2 + 0x400\n 34646: u64 [a3 + 0xe0] = a0\n 34650: u64 [a3 + 0xd8] = a0\n 34654: u64 [a3 + 0xd0] = a0\n 34658: a1 = s1 + 0x7ff\n 34662: a1 = a1 + 0x5e1\n 34666: a0 = u64 [s1 + 0x178]\n 34670: u64 [a3 + 0xc8] = a0\n 34674: a0 = 0\n 34676: ra = 1398, jump @24\n      : @1294 [@dyn 699] (gas: 16)\n 34683: a0 = u64 [s1 + 0x150]\n 34687: a1 = s1 + 0x7ff\n 34691: a1 = a1 + 0x119\n 34695: a2 = a1 + 0x400\n 34699: u64 [a2 + 0xc0] = a0\n 34703: a0 = u64 [s1 + 0x158]\n 34707: u64 [a2 + 0xb8] = a0\n 34711: a0 = u64 [s1 + 0x160]\n 34715: u64 [a2 + 0xb0] = a0\n 34719: a3 = a1\n 34721: a0 = 0x20\n 34724: a1 = s1 + 0x7ff\n 34728: a1 = a1 + 0x5c1\n 34732: a2 = u64 [s1 + 0x168]\n 34736: u64 [a3 + 0x4a8] = a2\n 34740: ra = 1400, jump @24\n      : @1295 [@dyn 700] (gas: 3)\n 34747: a1 = u64 [s1 + 0x198]\n 34751: a0 = i32 [a1]\n 34753: jump @1297 if a0 >u 63\n      : @1296 (gas: 2)\n 34757: u32 [a1 + 0] = 0x40\n 34760: fallthrough\n      : @1297 (gas: 4)\n 34761: a0 = sp + 0xffffffffffffffe0\n 34764: a0 = a0 & 0xffffffffffffffe0\n 34767: u64 [s1 + 0x168] = a0\n 34771: t0 = 1402, jump @1500\n      : @1298 [@dyn 701] (gas: 5)\n 34777: ra = 0x57c\n 34781: ecalli 8 // 'hash_keccak_256'\n 34783: a3 = u64 [s1 + 0x168]\n 34787: t0 = 0x57e\n 34791: jump @1509\n      : @1299 [@dyn 702] (gas: 2)\n 34794: a3 = u64 [s1 + 0x168]\n 34798: t0 = 1406, jump @1509\n      : @1300 [@dyn 703] (gas: 3)\n 34804: a0 = s1 + 0x7ff\n 34808: a0 = a0 + 0x5a1\n 34812: ra = 1408, jump @26\n      : @1301 [@dyn 704] (gas: 5)\n 34819: a3 = s1 + 0x7ff\n 34823: a3 = a3 + 0x119\n 34827: a0 = u64 [a3 + 0x488]\n 34831: a1 = a0 & 0xff\n 34835: jump @1305 if a1 == 0\n      : @1302 (gas: 3)\n 34839: a0 = a0 & 0xff0000\n 34845: a4 = u64 [s1 + 0x188]\n 34849: jump @1306 if a0 != 0\n      : @1303 (gas: 29)\n 34853: a0 = u64 [s1 + 0x178]\n 34857: a5 = a3 + 0x400\n 34861: u64 [a5 + 0x28] = a0\n 34864: u64 [a5 + 0x48] = a4\n 34867: a0 = u64 [s1 + 0x130]\n 34871: u64 [a5 + 0x68] = a0\n 34874: a1 = u64 [s1 + 0x148]\n 34878: u64 [a5 + 0x30] = a1\n 34881: a0 = u64 [s1 + 0x118]\n 34885: u64 [a5 + 0x50] = a0\n 34888: a0 = u64 [s1 + 0x138]\n 34892: u64 [a5 + 0x70] = a0\n 34895: u64 [a5 + 0x38] = a1\n 34898: a0 = u64 [s1 + 0x120]\n 34902: u64 [a5 + 0x58] = a0\n 34905: a0 = u64 [s1 + 0xf8]\n 34909: u64 [a5 + 0x78] = a0\n 34912: u64 [a5 + 0x40] = a1\n 34915: a0 = u64 [s1 + 0x128]\n 34919: u64 [a5 + 0x60] = a0\n 34922: a0 = s1 + 0x7ff\n 34926: a0 = a0 + 0x581\n 34930: a1 = s1 + 0x7ff\n 34934: a1 = a1 + 0x561\n 34938: a2 = s1 + 0x7ff\n 34942: a2 = a2 + 0x541\n 34946: a4 = u64 [s1 + 0xf0]\n 34950: u64 [a5 + 0x80] = a4\n 34954: ra = 1410, jump @1358\n      : @1304 [@dyn 705] (gas: 10)\n 34960: a2 = s1 + 0x100\n 34964: a4 = u64 [a2 + 0x88]\n 34968: a3 = s1 + 0x7ff\n 34972: a3 = a3 + 0x119\n 34976: a0 = u64 [a2 + 0x80]\n 34980: a0 = a0 + 0x1\n 34983: a1 = u64 [a2 + 0x40]\n 34986: a0 = a0 & a1\n 34989: u64 [a2 + 0x80] = a0\n 34993: jump @1306\n      : @1305 (gas: 2)\n 34995: a4 = u64 [s1 + 0x188]\n 34999: fallthrough\n      : @1306 (gas: 6)\n 35000: u64 [s1 + 280] = 0\n 35004: u64 [s1 + 288] = 0\n 35008: u64 [s1 + 296] = 0\n 35012: a0 = a4 + 0x1\n 35015: a4 = a0 & 0xffffffffffffffff\n 35018: jump @1277\n      : @1307 (gas: 11)\n 35021: a2 = s1 + 0x7ff\n 35025: a2 = a2 + 0x119\n 35029: u64 [a2 + 56] = 0\n 35032: u64 [a2 + 48] = 0\n 35035: a0 = 0xcf114bd900000000\n 35045: u64 [a2 + 0x40] = a0\n 35048: a1 = s1 + 0x7ff\n 35052: a1 = a1 + 0x141\n 35056: u64 [a2 + 40] = 0\n 35059: a0 = 0\n 35061: ra = 1412, jump @24\n      : @1308 [@dyn 706] (gas: 2)\n 35068: a1 = i32 [0x20170]\n 35073: jump @1310 if a1 >u 31\n      : @1309 (gas: 3)\n 35077: u32 [0x20170] = 0x20\n 35083: a1 = 0x20180\n 35088: jump @862\n      : @1310 (gas: 2)\n 35091: a1 = 0x20180\n 35096: jump @862\n      : @1311 (gas: 11)\n 35099: a2 = s1 + 0x7ff\n 35103: a2 = a2 + 0x119\n 35107: u64 [a2 + 24] = 0\n 35110: u64 [a2 + 16] = 0\n 35113: a0 = 0x7862e95900000000\n 35123: u64 [a2 + 0x20] = a0\n 35126: a1 = s1 + 0x7ff\n 35130: a1 = a1 + 0x121\n 35134: u64 [a2 + 8] = 0\n 35137: a0 = 0\n 35139: ra = 1414, jump @24\n      : @1312 [@dyn 707] (gas: 2)\n 35146: a1 = i32 [0x20170]\n 35151: jump @1314 if a1 >u 31\n      : @1313 (gas: 3)\n 35155: u32 [0x20170] = 0x20\n 35161: a1 = 0x20180\n 35166: jump @862\n      : @1314 (gas: 2)\n 35169: a1 = 0x20180\n 35174: jump @862\n      : @1315 (gas: 5)\n 35177: a0 = 0\n 35179: a1 = u64 [s1 + 0x180]\n 35183: a2 = 0\n 35185: ecalli 13 // 'seal_return'\n 35187: jump @1045\n      : @1316 [@dyn 708] (gas: 2)\n 35190: ecalli 2 // 'call_data_load'\n 35192: fallthrough\n      : @1317 (gas: 10)\n 35193: a0 = u64 [sp + 0x10]\n 35196: a1 = u64 [sp + 0x18]\n 35199: a2 = 0x100000000\n 35209: a2 = a2 ^ a0\n 35212: a2 = a2 | a1\n 35215: a3 = a0 >> 0x20\n 35218: a3 = a3 <u 0x1\n 35221: a3 = 0 if a1 != 0\n 35223: a3 = 0 if a2 == 0\n 35225: jump @1319 if a3 == 0\n      : @1318 (gas: 12)\n 35228: a2 = u64 [sp]\n 35230: a3 = u64 [sp + 0x8]\n 35233: u64 [s1] = a2\n 35235: u64 [s1 + 0x8] = a3\n 35238: u64 [s1 + 0x10] = a0\n 35241: u64 [s1 + 0x18] = a1\n 35244: sp = s0 + 0xffffffffffffffc0\n 35247: ra = u64 [sp + 0x38]\n 35250: s0 = u64 [sp + 0x30]\n 35253: s1 = u64 [sp + 0x28]\n 35256: sp = sp + 0x40\n 35259: ret\n      : @1319 (gas: 8)\n 35261: a1 = 0x20180\n 35266: i32 a1 = a1 + 0\n 35268: a0 = 0x1\n 35271: a2 = 0\n 35273: ra = 0x58a\n 35277: ecalli 13 // 'seal_return'\n 35279: t0 = 0x58c\n 35283: jump @1575\n      : @1320 [@dyn 709] (gas: 1)\n 35286: t0 = 1420, jump @1575\n      : @1321 [@dyn 710] (gas: 3)\n 35292: a1 = 0x24\n 35295: ecalli 2 // 'call_data_load'\n 35297: fallthrough\n      : @1322 (gas: 7)\n 35298: a0 = u64 [sp + 0x18]\n 35301: a1 = u64 [sp + 0x10]\n 35304: a2 = u64 [sp + 0x8]\n 35307: a3 = a1 | a0\n 35310: a4 = a2 <u 0x1\n 35313: a4 = 0 if a3 != 0\n 35315: jump @1325 if a4 == 0\n      : @1323 (gas: 2)\n 35318: a3 = u64 [sp]\n 35320: t0 = 1422, jump @1531\n      : @1324 [@dyn 711] (gas: 1)\n 35326: ret\n      : @1325 (gas: 8)\n 35328: a1 = 0x20180\n 35333: i32 a1 = a1 + 0\n 35335: a0 = 0x1\n 35338: a2 = 0\n 35340: ra = 0x590\n 35344: ecalli 13 // 'seal_return'\n 35346: t0 = 0x592\n 35350: jump @1575\n      : @1326 [@dyn 712] (gas: 1)\n 35353: t0 = 1426, jump @1575\n      : @1327 [@dyn 713] (gas: 5)\n 35359: a1 = 0x44\n 35362: ra = 0x594\n 35366: ecalli 2 // 'call_data_load'\n 35368: t0 = 0x596\n 35372: jump @1546\n      : @1328 [@dyn 714] (gas: 1)\n 35375: t0 = 1430, jump @1546\n      : @1329 [@dyn 715] (gas: 1)\n 35381: jump @1332 if a4 != 0\n      : @1330 (gas: 1)\n 35384: t0 = 1432, jump @1531\n      : @1331 [@dyn 716] (gas: 1)\n 35390: ret\n      : @1332 (gas: 8)\n 35392: a1 = 0x20180\n 35397: i32 a1 = a1 + 0\n 35399: a0 = 0x1\n 35402: a2 = 0\n 35404: ra = 0x59a\n 35408: ecalli 13 // 'seal_return'\n 35410: t0 = 0x59c\n 35414: jump @1560\n      : @1333 [@dyn 717] (gas: 1)\n 35417: t0 = 1436, jump @1560\n      : @1334 [@dyn 718] (gas: 4)\n 35423: ra = 0x59e\n 35427: ecalli 2 // 'call_data_load'\n 35429: t0 = 0x5a0\n 35433: jump @1546\n      : @1335 [@dyn 719] (gas: 1)\n 35436: t0 = 1440, jump @1546\n      : @1336 [@dyn 720] (gas: 1)\n 35442: jump @1339 if a4 != 0\n      : @1337 (gas: 1)\n 35445: t0 = 1442, jump @1531\n      : @1338 [@dyn 721] (gas: 1)\n 35451: ret\n      : @1339 (gas: 7)\n 35453: a1 = 0x20180\n 35458: i32 a1 = a1 + 0\n 35460: a0 = 0x1\n 35463: a2 = 0\n 35465: ra = 0x5a4\n 35469: ecalli 13 // 'seal_return'\n 35471: fallthrough\n      : @1340 [@dyn 722] (gas: 33)\n 35472: sp = sp + 0xffffffffffffffa0\n 35475: u64 [sp + 0x58] = ra\n 35478: u64 [sp + 0x50] = s0\n 35481: u64 [sp + 0x48] = s1\n 35484: s0 = sp + 0x60\n 35487: sp = sp & 0xfffffffffffffff0\n 35490: a2 = u64 [a1 + 0x10]\n 35493: a5 = u64 [a1 + 0x8]\n 35496: a4 = u64 [a1]\n 35498: a1 = u64 [a1 + 0x18]\n 35501: t0 = a2 << 0x3f\n 35504: a3 = a5 >> 0x1\n 35507: t0 = a3 | t0\n 35510: a3 = a1 << 0x3f\n 35513: a2 = a2 >> 0x1\n 35516: a3 = a3 | a2\n 35519: a5 = a5 << 0x3f\n 35522: a2 = a4 >> 0x1\n 35525: a5 = a5 | a2\n 35528: t1 = a1 >> 0x1\n 35531: a4 = a4 & 0x1\n 35534: a1 = -a4\n 35536: s1 = a4 <u 0x1\n 35539: a2 = a5 & 0x7f\n 35542: t2 = a1 & a3\n 35545: a3 = a1 & t0\n 35548: a2 = a5 if a4 != 0\n 35551: a4 = a1 & t1\n 35554: a1 = a2 <u 0x20\n 35557: a1 = 0 if a3 != 0\n 35559: a5 = t2 | a4\n 35562: a1 = 0 if a5 != 0\n 35564: jump @1343 if s1 != a1\n      : @1341 (gas: 5)\n 35567: u64 [a0] = a2\n 35569: u64 [a0 + 0x8] = a3\n 35572: u64 [a0 + 0x10] = t2\n 35575: u64 [a0 + 0x18] = a4\n 35578: t0 = 1446, jump @1565\n      : @1342 [@dyn 723] (gas: 1)\n 35584: ret\n      : @1343 (gas: 1)\n 35586: t0 = 1448, jump @1557\n      : @1344 [@dyn 724] (gas: 1)\n 35592: ra = 1450, jump @24\n      : @1345 [@dyn 725] (gas: 7)\n 35599: u64 [sp + 24] = 0\n 35602: u64 [sp + 16] = 0\n 35605: u64 [sp + 0] = 0x22\n 35608: a0 = 0x4\n 35611: a1 = sp\n 35613: u64 [sp + 8] = 0\n 35616: ra = 1452, jump @24\n      : @1346 [@dyn 726] (gas: 2)\n 35623: a1 = i32 [0x20170]\n 35628: jump @1348 if a1 >u 63\n      : @1347 (gas: 2)\n 35632: u32 [0x20170] = 0x40\n 35638: fallthrough\n      : @1348 (gas: 7)\n 35639: a1 = 0x20180\n 35644: i32 a1 = a1 + 0\n 35646: a0 = 0x1\n 35649: a2 = 0x24\n 35652: ra = 0x5ae\n 35656: ecalli 13 // 'seal_return'\n 35658: fallthrough\n      : @1349 [@dyn 727] (gas: 46)\n 35659: sp = sp + 0xffffffffffffff70\n 35663: u64 [sp + 0x88] = ra\n 35667: u64 [sp + 0x80] = s0\n 35671: u64 [sp + 0x78] = s1\n 35674: s0 = sp + 0x90\n 35678: sp = sp & 0xfffffffffffffff0\n 35681: t0 = a0\n 35683: a2 = u64 [a1]\n 35685: t2 = u64 [a0 + 0x8]\n 35688: a5 = u64 [a1 + 0x8]\n 35691: t1 = u64 [a0]\n 35693: a3 = a2 + 0x1f\n 35696: ra = a3 <u a2\n 35699: a2 = a5 + ra\n 35702: a3 = a3 & 0xffffffffffffffe0\n 35705: u64 [sp + 0x8] = t1\n 35708: t1 = t1 + a3\n 35711: a4 = t1 <u a3\n 35714: a3 = a2 + t2\n 35717: a3 = a3 + a4\n 35720: s1 = a3 ^ a2\n 35723: a0 = a3 <u a2\n 35726: a0 = a4 if s1 == 0\n 35729: a4 = u64 [t0 + 0x18]\n 35732: a5 = a2 <u a5\n 35735: s1 = u64 [a1 + 0x10]\n 35738: t0 = u64 [t0 + 0x10]\n 35741: a1 = u64 [a1 + 0x18]\n 35744: a5 = ra if ra == 0\n 35747: a5 = a5 + s1\n 35750: s1 = a5 <u s1\n 35753: a2 = a5 + t0\n 35756: a0 = a0 + a2\n 35759: a5 = a2 <u a5\n 35762: a2 = a0 <u a2\n 35765: a1 = a1 + a4\n 35768: a1 = a1 + s1\n 35771: a1 = a1 + a5\n 35774: a5 = a1 + a2\n 35777: a1 = a5 >u 0\n 35779: a2 = a0 >u 0\n 35781: a2 = a1 if a5 != 0\n 35784: a1 = a0 | a5\n 35787: s1 = a3 >u 0\n 35789: s1 = a2 if a1 != 0\n 35792: jump @1353 if s1 != 0\n      : @1350 (gas: 13)\n 35795: a1 = u64 [sp + 0x8]\n 35798: a1 = t1 <u a1\n 35801: a2 = a3 ^ t2\n 35804: s1 = a3 <u t2\n 35807: s1 = a1 if a2 == 0\n 35810: a1 = a0 <u t0\n 35813: a2 = a5 ^ a4\n 35816: a4 = a5 <u a4\n 35819: a4 = a1 if a2 == 0\n 35822: a1 = a0 ^ t0\n 35825: a1 = a1 | a2\n 35828: a4 = s1 if a1 == 0\n 35831: jump @1353 if a4 != 0\n      : @1351 (gas: 7)\n 35834: u64 [sp + 0x50] = t1\n 35837: u64 [sp + 0x58] = a3\n 35840: u64 [sp + 0x60] = a0\n 35843: a0 = 0x40\n 35846: a1 = sp + 0x50\n 35849: u64 [sp + 0x68] = a5\n 35852: ra = 1456, jump @24\n      : @1352 [@dyn 728] (gas: 6)\n 35859: sp = s0 + 0xffffffffffffff70\n 35863: ra = u64 [sp + 0x88]\n 35867: s0 = u64 [sp + 0x80]\n 35871: s1 = u64 [sp + 0x78]\n 35874: sp = sp + 0x90\n 35878: ret\n      : @1353 (gas: 8)\n 35880: u64 [sp + 64] = 0\n 35883: u64 [sp + 56] = 0\n 35886: u64 [sp + 48] = 0\n 35889: a0 = 0x4e487b7100000000\n 35899: a1 = sp + 0x30\n 35902: u64 [sp + 0x48] = a0\n 35905: a0 = 0\n 35907: ra = 1458, jump @24\n      : @1354 [@dyn 729] (gas: 7)\n 35914: u64 [sp + 40] = 0\n 35917: u64 [sp + 32] = 0\n 35920: u64 [sp + 16] = 0x41\n 35924: a0 = 0x4\n 35927: a1 = sp + 0x10\n 35930: u64 [sp + 24] = 0\n 35933: ra = 1460, jump @24\n      : @1355 [@dyn 730] (gas: 2)\n 35940: a1 = i32 [0x20170]\n 35945: jump @1357 if a1 >u 63\n      : @1356 (gas: 2)\n 35949: u32 [0x20170] = 0x40\n 35955: fallthrough\n      : @1357 (gas: 7)\n 35956: a1 = 0x20180\n 35961: i32 a1 = a1 + 0\n 35963: a0 = 0x1\n 35966: a2 = 0x24\n 35969: ra = 0x5b6\n 35973: ecalli 13 // 'seal_return'\n 35975: fallthrough\n      : @1358 [@dyn 731] (gas: 21)\n 35976: sp = sp + 0xfffffffffffff8a0\n 35980: a3 = sp + 0x700\n 35984: u64 [a3 + 0x58] = ra\n 35987: u64 [a3 + 0x50] = s0\n 35990: u64 [a3 + 0x48] = s1\n 35993: s0 = sp + 0x760\n 35997: sp = sp & 0xffffffffffffffe0\n 36000: s1 = sp\n 36002: a2 = u64 [a2]\n 36004: u64 [s1 + 0x28] = a2\n 36007: a1 = u64 [a1]\n 36009: u64 [s1 + 0x30] = a1\n 36012: a1 = u64 [a0 + 0x10]\n 36015: u64 [s1 + 0x20] = a1\n 36018: a1 = u64 [a0 + 0x8]\n 36021: u64 [s1 + 0x38] = a1\n 36024: a0 = u64 [a0]\n 36026: u64 [s1 + 0x40] = a0\n 36029: i32 a0 = s1 + 0x5e0\n 36033: ecalli 9 // 'now'\n 36035: fallthrough\n      : @1359 (gas: 48)\n 36036: t0 = u64 [s1 + 0x5f8]\n 36040: t1 = u64 [s1 + 0x5f0]\n 36044: a0 = u64 [s1 + 0x5e8]\n 36048: a4 = u64 [s1 + 0x5e0]\n 36052: u64 [s1 + 0x78] = a4\n 36055: a2 = clz t0\n 36057: a1 = clz t1\n 36059: a3 = a1 + 0x40\n 36062: a3 = a2 if t0 != 0\n 36065: a2 = clz a0\n 36067: a1 = clz a4\n 36069: a1 = a1 + 0x40\n 36072: a1 = a2 if a0 != 0\n 36075: a4 = a1 + 0x80\n 36079: a2 = t1 | t0\n 36082: a3 = a4 if a2 == 0\n 36085: a5 = a4 <u a1\n 36088: a5 = 0 if a2 != 0\n 36090: a4 = a5 >u 0\n 36092: a1 = a3 <u 0xf0\n 36096: a2 = a1 ^ 0x1\n 36099: a4 = a2 if a5 == 0\n 36102: t2 = a4 <u 0x1\n 36105: ra = t2 + 0xffffffffffffffff\n 36108: t2 = -a4\n 36110: a5 = -a5\n 36112: a2 = a5 - a2\n 36115: a1 = 0xef - a3\n 36119: u64 [s1 + 0xa8] = t2\n 36123: a3 = t2 >u 0\n 36125: a5 = ra >u 0\n 36127: a5 = a3 if ra == 0\n 36130: u64 [s1 + 0xb8] = a1\n 36134: a3 = a1 <u 0x100\n 36138: a3 = a3 ^ 0x1\n 36141: a1 = a2 >u 0\n 36143: a3 = a1 if a2 != 0\n 36146: a3 = a5 if a4 != 0\n 36149: t2 = a0\n 36151: a0 = u64 [s1 + 0x78]\n 36154: a1 = t2 | t0\n 36157: a4 = a0 | t1\n 36160: a1 = a1 | a4\n 36163: a1 = a1 <u 0x1\n 36166: a1 = a1 | a3\n 36169: a3 = a0\n 36171: a3 = 0 if a1 != 0\n 36173: jump @1375 if a1 != 0\n      : @1360 (gas: 7)\n 36177: a1 = u64 [s1 + 0xb8]\n 36181: a1 = a1 ^ 0xff\n 36185: a5 = u64 [s1 + 0xa8]\n 36189: a1 = a1 | a5\n 36192: a4 = a2 | ra\n 36195: a1 = a1 | a4\n 36198: jump @1375 if a1 == 0\n      : @1361 (gas: 21)\n 36202: a4 = u64 [s1 + 0xb8]\n 36206: a3 = a4 + 0x1\n 36209: u64 [s1 + 0xb0] = a3\n 36213: a1 = a3 <u 0x1\n 36216: a1 = a1 + a2\n 36219: u64 [s1 + 0xa0] = a1\n 36223: a1 = a1 | a3\n 36226: a1 = a1 <u 0x1\n 36229: a1 = a1 + a5\n 36232: u64 [s1 + 0x90] = a1\n 36236: a1 = a1 <u a5\n 36239: a1 = a1 + ra\n 36242: u64 [s1 + 0x98] = a1\n 36246: a2 = 0xff - a4\n 36250: u64 [s1 + 0x88] = a2\n 36254: a2 = 0x80 - a2\n 36258: a1 = t2\n 36260: u64 [s1 + 0x70] = t2\n 36263: u64 [s1 + 0x68] = t0\n 36266: u64 [s1 + 0x60] = t1\n 36269: ra = 1464, jump @1580\n      : @1362 [@dyn 732] (gas: 6)\n 36275: u64 [s1 + 0x80] = a0\n 36279: u64 [s1 + 0x50] = a1\n 36282: a0 = u64 [s1 + 0x60]\n 36285: a1 = u64 [s1 + 0x68]\n 36288: a2 = u64 [s1 + 0x88]\n 36292: ra = 1466, jump @1585\n      : @1363 [@dyn 733] (gas: 7)\n 36298: u64 [s1 + 0x48] = a0\n 36301: u64 [s1 + 0x18] = a1\n 36304: a1 = u64 [s1 + 0xb8]\n 36308: a2 = 0x7f - a1\n 36311: a0 = u64 [s1 + 0x78]\n 36314: a1 = u64 [s1 + 0x70]\n 36317: ra = 1468, jump @1585\n      : @1364 [@dyn 734] (gas: 8)\n 36323: u64 [s1 + 0x10] = a0\n 36326: u64 [s1 + 0xb8] = a1\n 36330: a2 = u64 [s1 + 0x88]\n 36334: a0 = a2 <u 0x80\n 36338: u64 [s1 + 0x58] = a0\n 36341: a0 = u64 [s1 + 0x78]\n 36344: a1 = u64 [s1 + 0x70]\n 36347: ra = 1470, jump @1585\n      : @1365 [@dyn 735] (gas: 11)\n 36353: a5 = u64 [s1 + 0x58]\n 36356: a4 = u64 [s1 + 0x90]\n 36360: a3 = u64 [s1 + 0x98]\n 36364: a2 = u64 [s1 + 0xa0]\n 36368: a2 = a2 | a3\n 36371: a3 = u64 [s1 + 0xb0]\n 36375: a3 = a3 | a4\n 36378: a3 = a3 | a2\n 36381: a0 = 0 if a5 == 0\n 36383: u64 [s1 + 0xa8] = a0\n 36387: jump @1373 if a3 == 0\n      : @1366 (gas: 27)\n 36391: a0 = u64 [s1 + 0x50]\n 36394: a2 = u64 [s1 + 0x18]\n 36397: a0 = a0 | a2\n 36400: a2 = u64 [s1 + 0xb8]\n 36404: a0 = a2 if a5 == 0\n 36407: t0 = u64 [s1 + 0x68]\n 36410: a3 = t0\n 36412: t1 = u64 [s1 + 0x88]\n 36416: a3 = a0 if t1 != 0\n 36419: u64 [s1 + 0xb8] = a3\n 36423: a0 = u64 [s1 + 0x80]\n 36427: a2 = u64 [s1 + 0x48]\n 36430: a0 = a0 | a2\n 36433: a2 = u64 [s1 + 0x10]\n 36436: a0 = a2 if a5 == 0\n 36439: a4 = u64 [s1 + 0x60]\n 36442: a3 = a4\n 36444: a3 = a0 if t1 != 0\n 36447: u64 [s1 + 0x80] = a3\n 36451: a1 = 0 if a5 == 0\n 36453: u64 [s1 + 0x88] = a1\n 36457: u64 [s1 + 88] = 0x15180\n 36463: a0 = u64 [s1 + 0xb0]\n 36467: a2 = a0 + 0xffffffffffffff80\n 36470: a0 = a4\n 36472: a1 = t0\n 36474: ra = 1472, jump @1580\n      : @1367 [@dyn 736] (gas: 6)\n 36480: u64 [s1 + 0x50] = a0\n 36483: u64 [s1 + 0x18] = a1\n 36486: a0 = u64 [s1 + 0x78]\n 36489: a1 = u64 [s1 + 0x70]\n 36492: a2 = u64 [s1 + 0xb0]\n 36496: ra = 1474, jump @1580\n      : @1368 [@dyn 737] (gas: 7)\n 36502: u64 [s1 + 0x10] = a0\n 36505: u64 [s1 + 0x48] = a1\n 36508: a1 = u64 [s1 + 0xb0]\n 36512: a2 = 0x80 - a1\n 36516: a0 = u64 [s1 + 0x60]\n 36519: a1 = u64 [s1 + 0x68]\n 36522: ra = 1476, jump @1585\n      : @1369 [@dyn 738] (gas: 21)\n 36528: a2 = u64 [s1 + 0x48]\n 36531: a1 = a1 | a2\n 36534: a3 = u64 [s1 + 0xb0]\n 36538: a4 = a3 <u 0x80\n 36542: u64 [s1 + 0x48] = a4\n 36545: a2 = u64 [s1 + 0x18]\n 36548: a1 = a2 if a4 == 0\n 36551: a2 = u64 [s1 + 0x70]\n 36554: a2 = a1 if a3 != 0\n 36557: u64 [s1 + 0x70] = a2\n 36560: a1 = u64 [s1 + 0x10]\n 36563: a0 = a0 | a1\n 36566: a1 = u64 [s1 + 0x50]\n 36569: a0 = a1 if a4 == 0\n 36572: a1 = u64 [s1 + 0x78]\n 36575: a1 = a0 if a3 != 0\n 36578: a2 = a3\n 36580: u64 [s1 + 0x78] = a1\n 36583: a0 = u64 [s1 + 0x60]\n 36586: a1 = u64 [s1 + 0x68]\n 36589: ra = 1478, jump @1580\n      : @1370 [@dyn 739] (gas: 13)\n 36595: a5 = 0\n 36597: a2 = u64 [s1 + 0x48]\n 36600: a1 = 0 if a2 == 0\n 36602: a0 = 0 if a2 == 0\n 36604: a3 = u64 [s1 + 0x58]\n 36607: a2 = a3 + 0xffffffffffffffff\n 36610: u64 [s1 + 0x50] = a2\n 36613: a2 = a3 >u 0\n 36615: a2 = a2 + 0xffffffffffffffff\n 36618: u64 [s1 + 0x48] = a2\n 36621: t1 = u64 [s1 + 0x70]\n 36624: t2 = u64 [s1 + 0x78]\n 36627: fallthrough\n      : @1371 (gas: 87)\n 36628: u64 [s1 + 0x78] = a5\n 36631: a2 = t2 >> 0x3f\n 36634: a3 = t1 << 0x1\n 36637: a5 = a3 | a2\n 36640: a3 = t2 << 0x1\n 36643: a4 = u64 [s1 + 0xb8]\n 36647: a4 = a4 >> 0x3f\n 36650: a3 = a3 | a4\n 36653: u64 [s1 + 0x68] = a3\n 36656: a2 = u64 [s1 + 0x48]\n 36659: u64 [s1 + 0x70] = a5\n 36662: t2 = t1\n 36664: t1 = a2 ^ a5\n 36667: t0 = a2 <u a5\n 36670: a4 = u64 [s1 + 0x50]\n 36673: a5 = a4 <u a3\n 36676: a5 = t0 if t1 != 0\n 36679: a1 = a1 << 0x1\n 36682: a3 = a0 >> 0x3f\n 36685: a1 = a1 | a3\n 36688: u64 [s1 + 0x60] = a1\n 36691: a3 = t2 >> 0x3f\n 36694: a0 = a0 << 0x1\n 36697: a3 = a3 | a0\n 36700: a0 = u64 [s1 + 0xb8]\n 36704: a0 = a0 << 0x1\n 36707: a4 = u64 [s1 + 0x80]\n 36711: a1 = a4 >> 0x3f\n 36714: t0 = a0 | a1\n 36717: a1 = a4 << 0x1\n 36720: a4 = u64 [s1 + 0x88]\n 36724: t1 = a4 >> 0x3f\n 36727: t1 = a1 | t1\n 36730: a1 = a4 << 0x1\n 36733: a4 = u64 [s1 + 0xa8]\n 36737: t2 = a4 >> 0x3f\n 36740: a1 = a1 | t2\n 36743: a4 = a4 << 0x1\n 36746: a0 = u64 [s1 + 0x78]\n 36749: a4 = a4 | a0\n 36752: u64 [s1 + 0xa8] = a4\n 36756: a1 = a1 | 0\n 36758: u64 [s1 + 0x88] = a1\n 36762: a1 = t1 | 0\n 36764: u64 [s1 + 0x80] = a1\n 36768: a0 = t0 | 0\n 36770: u64 [s1 + 0xb8] = a0\n 36774: a0 = a2 - a3\n 36777: a0 = a0 <u a5\n 36780: a1 = a2 <u a3\n 36783: t0 = u64 [s1 + 0x60]\n 36786: a4 = a2 - t0\n 36789: a4 = a4 - a1\n 36792: a4 = a4 - a0\n 36795: a5 = a4 >>a 0x3f\n 36798: a0 = u64 [s1 + 0x58]\n 36801: a0 = a0 & a5\n 36804: a1 = u64 [s1 + 0x68]\n 36807: t2 = a1 - a0\n 36810: a1 = a1 <u a0\n 36813: a0 = u64 [s1 + 0x70]\n 36816: t1 = a0 - a1\n 36819: a1 = 0 if a0 != 0\n 36821: a0 = a3 - a1\n 36824: a1 = a3 <u a1\n 36827: a1 = t0 - a1\n 36830: a3 = u64 [s1 + 0xb0]\n 36834: ra = u64 [s1 + 0xa0]\n 36838: a2 = a3 | ra\n 36841: a2 = a2 <u 0x1\n 36844: a4 = u64 [s1 + 0x90]\n 36848: t0 = a4 <u a2\n 36851: a2 = a4 - a2\n 36854: a4 = a3 <u 0x1\n 36857: ra = ra - a4\n 36860: a4 = u64 [s1 + 0x98]\n 36864: a4 = a4 - t0\n 36867: a3 = a3 + 0xffffffffffffffff\n 36870: u64 [s1 + 0xa0] = ra\n 36874: u64 [s1 + 0x98] = a4\n 36878: t0 = ra | a4\n 36881: u64 [s1 + 0xb0] = a3\n 36885: a4 = a3 | a2\n 36888: a3 = a4 | t0\n 36891: a5 = a5 & 0x1\n 36894: u64 [s1 + 0x90] = a2\n 36898: jump @1371 if a3 != 0\n      : @1372 (gas: 1)\n 36902: jump @1374\n      : @1373 (gas: 2)\n 36904: a5 = 0\n 36906: fallthrough\n      : @1374 (gas: 4)\n 36907: a0 = u64 [s1 + 0xa8]\n 36911: a0 = a0 << 0x1\n 36914: a3 = a5 | a0\n 36917: fallthrough\n      : @1375 (gas: 2)\n 36918: a0 = u64 [s1 + 0x30]\n 36921: jump @1457 if a0 >=u a3\n      : @1376 (gas: 13)\n 36925: a0 = u64 [s1 + 0x20]\n 36928: a0 = a0 << 0x20\n 36931: a2 = a0 >> 0x20\n 36934: u64 [s1 + 1464] = 0\n 36938: a0 = u64 [s1 + 0x40]\n 36941: u64 [s1 + 0x5a0] = a0\n 36945: a0 = u64 [s1 + 0x38]\n 36948: u64 [s1 + 0x5a8] = a0\n 36952: a1 = s1 + 0x5a0\n 36956: u64 [s1 + 0xa0] = a2\n 36960: u64 [s1 + 0x5b0] = a2\n 36964: a0 = 0\n 36966: ra = 1480, jump @24\n      : @1377 [@dyn 740] (gas: 7)\n 36973: u64 [s1 + 1432] = 0\n 36977: u64 [s1 + 1424] = 0\n 36981: u64 [s1 + 1408] = 0x2\n 36986: a0 = 0x20\n 36989: a1 = s1 + 0x580\n 36993: u64 [s1 + 1416] = 0\n 36997: ra = 1482, jump @24\n      : @1378 [@dyn 741] (gas: 3)\n 37004: a1 = 0x20170\n 37009: a0 = i32 [0x20170]\n 37014: jump @1380 if a0 >u 63\n      : @1379 (gas: 2)\n 37018: u32 [0x20170] = 0x40\n 37024: fallthrough\n      : @1380 (gas: 15)\n 37025: a0 = sp + 0xffffffffffffffe0\n 37028: a2 = a0 & 0xffffffffffffffe0\n 37031: u64 [s1 + 0xa8] = a2\n 37035: sp = a2\n 37037: a0 = 0x20180\n 37042: u64 [s1 + 0x60] = a0\n 37045: i32 a0 = a0 + 0\n 37047: u64 [s1 + 0xb0] = a1\n 37051: i32 a2 = a2 + 0\n 37053: a1 = 0x40\n 37056: u64 [s1 + 0xb8] = a0\n 37060: ra = 0x5cc\n 37064: ecalli 8 // 'hash_keccak_256'\n 37066: t0 = 0x5ce\n 37070: jump @1518\n      : @1381 [@dyn 742] (gas: 1)\n 37073: t0 = 1486, jump @1518\n      : @1382 [@dyn 743] (gas: 11)\n 37079: a0 = u64 [s1 + 0x28]\n 37082: a0 = a0 << 0x20\n 37085: a0 = a0 >> 0x20\n 37088: u64 [s1 + 1400] = 0\n 37092: u64 [s1 + 1392] = 0\n 37096: u64 [s1 + 1384] = 0\n 37100: a1 = s1 + 0x560\n 37104: u64 [s1 + 0x90] = a0\n 37108: u64 [s1 + 0x560] = a0\n 37112: a0 = 0\n 37114: ra = 1488, jump @24\n      : @1383 [@dyn 744] (gas: 12)\n 37121: a0 = u64 [s1 + 0x78]\n 37124: a3 = s1 + 0x500\n 37128: u64 [a3 + 0x58] = a0\n 37131: a0 = u64 [s1 + 0x80]\n 37135: u64 [a3 + 0x50] = a0\n 37138: a0 = u64 [s1 + 0x88]\n 37142: u64 [a3 + 0x48] = a0\n 37145: a0 = 0x20\n 37148: a1 = s1 + 0x540\n 37152: a2 = u64 [s1 + 0x98]\n 37156: u64 [a3 + 0x40] = a2\n 37159: ra = 1490, jump @24\n      : @1384 [@dyn 745] (gas: 3)\n 37166: a1 = u64 [s1 + 0xb0]\n 37170: a0 = i32 [a1]\n 37172: jump @1386 if a0 >u 63\n      : @1385 (gas: 2)\n 37176: u32 [a1 + 0] = 0x40\n 37179: fallthrough\n      : @1386 (gas: 4)\n 37180: a0 = sp + 0xffffffffffffffe0\n 37183: a0 = a0 & 0xffffffffffffffe0\n 37186: u64 [s1 + 0x98] = a0\n 37190: t0 = 1492, jump @1548\n      : @1387 [@dyn 746] (gas: 4)\n 37196: ra = 0x5d6\n 37200: ecalli 8 // 'hash_keccak_256'\n 37202: t0 = 0x5d8\n 37206: jump @1529\n      : @1388 [@dyn 747] (gas: 1)\n 37209: t0 = 1496, jump @1529\n      : @1389 [@dyn 748] (gas: 2)\n 37215: a0 = s1 + 0x520\n 37219: ra = 1498, jump @26\n      : @1390 [@dyn 749] (gas: 7)\n 37226: a0 = u32 [s1 + 0x524]\n 37230: a1 = u64 [s1 + 0x528]\n 37234: a2 = u64 [s1 + 0x530]\n 37238: a0 = a0 << 0x20\n 37241: a1 = a1 | a2\n 37244: a0 = a0 | a1\n 37247: jump @1461 if a0 == 0\n      : @1391 (gas: 11)\n 37251: u64 [s1 + 1304] = 0\n 37255: a0 = u64 [s1 + 0x40]\n 37258: a2 = s1 + 0x500\n 37262: u64 [a2] = a0\n 37264: a0 = u64 [s1 + 0x38]\n 37267: u64 [a2 + 0x8] = a0\n 37270: a1 = s1 + 0x500\n 37274: a0 = u64 [s1 + 0xa0]\n 37278: u64 [a2 + 0x10] = a0\n 37281: a0 = 0\n 37283: ra = 1500, jump @24\n      : @1392 [@dyn 750] (gas: 7)\n 37290: u64 [s1 + 1272] = 0\n 37294: u64 [s1 + 1264] = 0\n 37298: u64 [s1 + 1248] = 0x4\n 37303: a0 = 0x20\n 37306: a1 = s1 + 0x4e0\n 37310: u64 [s1 + 1256] = 0\n 37314: ra = 1502, jump @24\n      : @1393 [@dyn 751] (gas: 3)\n 37321: a1 = u64 [s1 + 0xb0]\n 37325: a0 = i32 [a1]\n 37327: jump @1395 if a0 >u 63\n      : @1394 (gas: 2)\n 37331: u32 [a1 + 0] = 0x40\n 37334: fallthrough\n      : @1395 (gas: 4)\n 37335: a0 = sp + 0xffffffffffffffe0\n 37338: a0 = a0 & 0xffffffffffffffe0\n 37341: u64 [s1 + 0xa8] = a0\n 37345: t0 = 1504, jump @1548\n      : @1396 [@dyn 752] (gas: 22)\n 37351: ecalli 8 // 'hash_keccak_256'\n 37353: a3 = u64 [s1 + 0xa8]\n 37357: a0 = u64 [a3 + 0x18]\n 37360: a1 = u64 [a3 + 0x10]\n 37363: a2 = u64 [a3 + 0x8]\n 37366: a3 = u64 [a3]\n 37368: a0 = reverse a0\n 37370: u64 [s1 + 0xa8] = a0\n 37374: a0 = reverse a1\n 37376: u64 [s1 + 0x98] = a0\n 37380: a0 = reverse a2\n 37382: u64 [s1 + 0x88] = a0\n 37386: a0 = reverse a3\n 37388: u64 [s1 + 0x80] = a0\n 37392: u64 [s1 + 1240] = 0\n 37396: u64 [s1 + 1232] = 0\n 37400: u64 [s1 + 1224] = 0\n 37404: a1 = s1 + 0x4c0\n 37408: a0 = u64 [s1 + 0x30]\n 37411: u64 [s1 + 0x4c0] = a0\n 37415: a0 = 0\n 37417: ra = 1506, jump @24\n      : @1397 [@dyn 753] (gas: 12)\n 37424: a0 = u64 [s1 + 0x80]\n 37428: a3 = s1 + 0x400\n 37432: u64 [a3 + 0xb8] = a0\n 37436: a0 = u64 [s1 + 0x88]\n 37440: u64 [a3 + 0xb0] = a0\n 37444: a0 = u64 [s1 + 0x98]\n 37448: u64 [a3 + 0xa8] = a0\n 37452: a0 = 0x20\n 37455: a1 = s1 + 0x4a0\n 37459: a2 = u64 [s1 + 0xa8]\n 37463: u64 [a3 + 0xa0] = a2\n 37467: ra = 1508, jump @24\n      : @1398 [@dyn 754] (gas: 3)\n 37474: a1 = u64 [s1 + 0xb0]\n 37478: a0 = i32 [a1]\n 37480: jump @1400 if a0 >u 63\n      : @1399 (gas: 2)\n 37484: u32 [a1 + 0] = 0x40\n 37487: fallthrough\n      : @1400 (gas: 4)\n 37488: a0 = sp + 0xffffffffffffffe0\n 37491: a0 = a0 & 0xffffffffffffffe0\n 37494: u64 [s1 + 0xa8] = a0\n 37498: t0 = 1510, jump @1548\n      : @1401 [@dyn 755] (gas: 4)\n 37504: ra = 0x5e8\n 37508: ecalli 8 // 'hash_keccak_256'\n 37510: t0 = 0x5ea\n 37514: jump @1518\n      : @1402 [@dyn 756] (gas: 1)\n 37517: t0 = 1514, jump @1518\n      : @1403 [@dyn 757] (gas: 8)\n 37523: u64 [s1 + 1176] = 0\n 37527: u64 [s1 + 1168] = 0\n 37531: u64 [s1 + 1160] = 0\n 37535: a1 = s1 + 0x480\n 37539: a0 = u64 [s1 + 0x90]\n 37543: u64 [s1 + 0x480] = a0\n 37547: a0 = 0\n 37549: ra = 1516, jump @24\n      : @1404 [@dyn 758] (gas: 12)\n 37556: a0 = u64 [s1 + 0x78]\n 37559: a3 = s1 + 0x400\n 37563: u64 [a3 + 0x78] = a0\n 37566: a0 = u64 [s1 + 0x80]\n 37570: u64 [a3 + 0x70] = a0\n 37573: a0 = u64 [s1 + 0x88]\n 37577: u64 [a3 + 0x68] = a0\n 37580: a0 = 0x20\n 37583: a1 = s1 + 0x460\n 37587: a2 = u64 [s1 + 0x98]\n 37591: u64 [a3 + 0x60] = a2\n 37594: ra = 1518, jump @24\n      : @1405 [@dyn 759] (gas: 3)\n 37601: a1 = u64 [s1 + 0xb0]\n 37605: a0 = i32 [a1]\n 37607: jump @1407 if a0 >=u 64\n      : @1406 (gas: 2)\n 37611: u32 [a1 + 0] = 0x40\n 37614: fallthrough\n      : @1407 (gas: 4)\n 37615: a0 = sp + 0xffffffffffffffe0\n 37618: a0 = a0 & 0xffffffffffffffe0\n 37621: u64 [s1 + 0x98] = a0\n 37625: t0 = 1520, jump @1548\n      : @1408 [@dyn 760] (gas: 4)\n 37631: ra = 0x5f2\n 37635: ecalli 8 // 'hash_keccak_256'\n 37637: t0 = 0x5f4\n 37641: jump @1529\n      : @1409 [@dyn 761] (gas: 1)\n 37644: t0 = 1524, jump @1529\n      : @1410 [@dyn 762] (gas: 2)\n 37650: a0 = s1 + 0x440\n 37654: ra = 1526, jump @26\n      : @1411 [@dyn 763] (gas: 3)\n 37661: a0 = u64 [s1 + 0x440]\n 37665: a1 = a0 & 0xff\n 37669: jump @1462 if a1 == 0\n      : @1412 (gas: 2)\n 37673: a1 = a0 & 0xff0000\n 37679: jump @1463 if a1 != 0\n      : @1413 (gas: 12)\n 37683: a1 = u64 [s1 + 0x458]\n 37687: a2 = u64 [s1 + 0x448]\n 37691: a3 = u64 [s1 + 0x450]\n 37695: a0 = a0 | 0x10000\n 37700: a4 = s1 + 0x600\n 37704: u64 [a4 + 0x8] = a2\n 37707: u64 [a4] = a0\n 37709: u64 [a4 + 0x10] = a3\n 37712: u64 [a4 + 0x18] = a1\n 37715: a1 = s1 + 0x600\n 37719: a0 = u64 [s1 + 0xa8]\n 37723: ra = 1528, jump @28\n      : @1414 [@dyn 764] (gas: 11)\n 37730: u64 [s1 + 1048] = 0\n 37734: a0 = u64 [s1 + 0xa0]\n 37738: a2 = s1 + 0x400\n 37742: u64 [a2 + 0x10] = a0\n 37745: a0 = u64 [s1 + 0x38]\n 37748: u64 [a2 + 0x8] = a0\n 37751: a1 = s1 + 0x400\n 37755: a0 = u64 [s1 + 0x40]\n 37758: u64 [a2] = a0\n 37760: a0 = 0\n 37762: ra = 1530, jump @24\n      : @1415 [@dyn 765] (gas: 7)\n 37769: u64 [s1 + 1016] = 0\n 37773: u64 [s1 + 1008] = 0\n 37777: u64 [s1 + 992] = 0x1\n 37782: a0 = 0x20\n 37785: a1 = s1 + 0x3e0\n 37789: u64 [s1 + 1000] = 0\n 37793: ra = 1532, jump @24\n      : @1416 [@dyn 766] (gas: 3)\n 37800: a2 = u64 [s1 + 0xb0]\n 37804: a0 = i32 [a2]\n 37806: jump @1418 if a0 >u 63\n      : @1417 (gas: 2)\n 37810: u32 [a2 + 0] = 0x40\n 37813: fallthrough\n      : @1418 (gas: 6)\n 37814: a0 = u64 [0x20118]\n 37819: u64 [s1 + 0x98] = a0\n 37823: a0 = sp + 0xffffffffffffffe0\n 37826: a0 = a0 & 0xffffffffffffffe0\n 37829: u64 [s1 + 0x88] = a0\n 37833: t0 = 1534, jump @1548\n      : @1419 [@dyn 767] (gas: 32)\n 37839: ecalli 8 // 'hash_keccak_256'\n 37841: a3 = u64 [s1 + 0x88]\n 37845: a0 = u64 [a3]\n 37847: a1 = u64 [a3 + 0x8]\n 37850: a2 = u64 [a3 + 0x10]\n 37853: a3 = u64 [a3 + 0x18]\n 37856: t0 = reverse a0\n 37858: a5 = reverse a1\n 37860: a2 = reverse a2\n 37862: a3 = reverse a3\n 37864: a0 = sp + 0xffffffffffffffe0\n 37867: a1 = a0 & 0xffffffffffffffe0\n 37870: u64 [s1 + 0x88] = a1\n 37874: sp = a1\n 37876: u64 [s1 + 0x68] = a3\n 37879: a0 = a3 + 0x1\n 37882: a3 = a0 <u 0x1\n 37885: u64 [s1 + 0x70] = a2\n 37888: a4 = a2 + a3\n 37891: a2 = a0 | a4\n 37894: a2 = a2 <u 0x1\n 37897: a2 = a2 + a5\n 37900: u64 [s1 + 0x78] = a5\n 37903: a3 = a2 <u a5\n 37906: u64 [s1 + 0x80] = t0\n 37910: a3 = a3 + t0\n 37913: u64 [a1 + 0x8] = a4\n 37916: u64 [a1] = a0\n 37918: u64 [a1 + 0x10] = a2\n 37921: u64 [a1 + 0x18] = a3\n 37924: a0 = s1 + 0x3c0\n 37928: ra = 1536, jump @26\n      : @1420 [@dyn 768] (gas: 27)\n 37935: a2 = s1 + 0x300\n 37939: a0 = u64 [a2 + 0xc0]\n 37943: a1 = u64 [0x20120]\n 37948: t0 = u64 [s1 + 0x3d8]\n 37952: a3 = u64 [a2 + 0xc8]\n 37956: a4 = u64 [a2 + 0xd0]\n 37960: a1 = a1 + a0\n 37963: a0 = a1 <u a0\n 37966: a5 = a3 + a0\n 37969: a5 = a5 + 0xffffffffffffffff\n 37972: a2 = a5 ^ a3\n 37975: a3 = a5 <u a3\n 37978: a3 = a0 if a2 == 0\n 37981: a0 = a4 + 0xffffffffffffffff\n 37984: a3 = a3 + a0\n 37987: a0 = a3 <u a0\n 37990: a2 = a4 <u 0x1\n 37993: a2 = t0 - a2\n 37996: a0 = a0 + a2\n 37999: a2 = s1 + 0x600\n 38003: u64 [a2 + 0x20] = a1\n 38006: u64 [a2 + 0x28] = a5\n 38009: u64 [a2 + 0x30] = a3\n 38012: u64 [a2 + 0x38] = a0\n 38015: a1 = s1 + 0x620\n 38019: a0 = u64 [s1 + 0x88]\n 38023: ra = 1538, jump @28\n      : @1421 [@dyn 769] (gas: 3)\n 38030: a0 = s1 + 0x3a0\n 38034: a1 = u64 [s1 + 0xa8]\n 38038: ra = 1540, jump @26\n      : @1422 [@dyn 770] (gas: 2)\n 38045: a0 = u8 [s1 + 0x3a1]\n 38049: jump @1432 if a0 == 0\n      : @1423 (gas: 8)\n 38053: a0 = sp + 0xffffffffffffffe0\n 38056: a5 = a0 & 0xffffffffffffffe0\n 38059: sp = a5\n 38061: a1 = u64 [s1 + 0x68]\n 38064: a0 = a1 + 0x2\n 38067: a1 = a0 <u a1\n 38070: a3 = u64 [s1 + 0x70]\n 38073: t0 = 1542, jump @1540\n      : @1424 [@dyn 771] (gas: 13)\n 38079: a1 = u64 [s1 + 0x78]\n 38082: a3 = a3 + a1\n 38085: a1 = a3 <u a1\n 38088: a4 = u64 [s1 + 0x80]\n 38092: a4 = a4 + a1\n 38095: a1 = a5\n 38097: u64 [s1 + 0xb8] = a5\n 38101: u64 [a5 + 0x8] = a2\n 38104: u64 [a5] = a0\n 38106: u64 [a5 + 0x10] = a3\n 38109: u64 [a5 + 0x18] = a4\n 38112: a0 = s1 + 0x380\n 38116: ra = 1544, jump @26\n      : @1425 [@dyn 772] (gas: 5)\n 38123: a0 = u64 [s1 + 0x380]\n 38127: a1 = u64 [s1 + 0x398]\n 38131: a2 = u64 [s1 + 0x388]\n 38135: a3 = u64 [s1 + 0x390]\n 38139: t0 = 1546, jump @1537\n      : @1426 [@dyn 773] (gas: 8)\n 38145: a1 = s1 + 0x700\n 38149: u64 [a1 + 0x20] = a4\n 38152: u64 [a1 + 0x28] = a5\n 38155: u64 [a1 + 0x30] = a2\n 38158: u64 [a1 + 0x38] = a0\n 38161: a1 = s1 + 0x720\n 38165: a0 = u64 [s1 + 0xb8]\n 38169: ra = 1548, jump @28\n      : @1427 [@dyn 774] (gas: 3)\n 38176: a0 = s1 + 0x360\n 38180: a1 = 0x40\n 38183: ra = 1550, jump @22\n      : @1428 [@dyn 775] (gas: 6)\n 38190: a4 = s1 + 0x300\n 38194: a0 = u64 [a4 + 0x78]\n 38197: a1 = u64 [a4 + 0x70]\n 38200: a2 = u64 [a4 + 0x68]\n 38203: a3 = u64 [a4 + 0x60]\n 38206: t0 = 1552, jump @1515\n      : @1429 [@dyn 776] (gas: 1)\n 38212: jump @1456 if a0 != 0\n      : @1430 (gas: 9)\n 38216: u64 [s1 + 856] = 0\n 38220: u64 [s1 + 848] = 0\n 38224: u64 [s1 + 840] = 0\n 38228: a1 = s1 + 0x340\n 38232: a0 = u64 [s1 + 0x98]\n 38236: u64 [s1 + 0x340] = a0\n 38240: a0 = a3\n 38242: u64 [s1 + 0xb8] = a3\n 38246: ra = 1554, jump @24\n      : @1431 [@dyn 777] (gas: 33)\n 38253: u64 [s1 + 728] = 0\n 38257: u64 [s1 + 720] = 0\n 38261: u64 [s1 + 712] = 0\n 38265: a0 = u64 [s1 + 0x30]\n 38268: u64 [s1 + 0x2c0] = a0\n 38272: u64 [s1 + 760] = 0\n 38276: u64 [s1 + 752] = 0\n 38280: u64 [s1 + 744] = 0\n 38284: a0 = u64 [s1 + 0x90]\n 38288: u64 [s1 + 0x2e0] = a0\n 38292: u64 [s1 + 792] = 0\n 38296: a0 = u64 [s1 + 0xa0]\n 38300: u64 [s1 + 0x310] = a0\n 38304: a0 = u64 [s1 + 0x38]\n 38307: u64 [s1 + 0x308] = a0\n 38311: a0 = u64 [0x20128]\n 38316: a1 = u64 [0x20130]\n 38321: a2 = u64 [0x20138]\n 38326: a3 = u64 [s1 + 0x40]\n 38329: u64 [s1 + 0x300] = a3\n 38333: u64 [s1 + 0x338] = a0\n 38337: u64 [s1 + 0x330] = a1\n 38341: u64 [s1 + 0x328] = a2\n 38345: a0 = u64 [0x20140]\n 38350: a1 = 0x20\n 38353: a2 = s1 + 0x320\n 38357: a3 = s1 + 0x300\n 38361: a4 = s1 + 0x2e0\n 38365: a5 = s1 + 0x2c0\n 38369: u64 [s1 + 0x320] = a0\n 38373: a0 = u64 [s1 + 0xb8]\n 38377: ra = 0x62c\n 38381: jump @34\n      : @1432 (gas: 7)\n 38385: u64 [s1 + 1624] = 0\n 38389: u64 [s1 + 1616] = 0\n 38393: u64 [s1 + 1608] = 0\n 38397: u64 [s1 + 1600] = 0\n 38401: a0 = s1 + 0x2a0\n 38405: a1 = s1 + 0x640\n 38409: ra = 1556, jump @26\n      : @1433 [@dyn 778] (gas: 6)\n 38416: a4 = s1 + 0x200\n 38420: a0 = u64 [a4 + 0xa0]\n 38424: a1 = u64 [a4 + 0xb8]\n 38428: a2 = u64 [a4 + 0xa8]\n 38432: a3 = u64 [a4 + 0xb0]\n 38436: t0 = 1558, jump @1537\n      : @1434 [@dyn 779] (gas: 11)\n 38442: u64 [s1 + 1656] = 0\n 38446: u64 [s1 + 1648] = 0\n 38450: u64 [s1 + 1640] = 0\n 38454: u64 [s1 + 1632] = 0\n 38458: u64 [s1 + 0x680] = a4\n 38462: u64 [s1 + 0x688] = a5\n 38466: u64 [s1 + 0x690] = a2\n 38470: u64 [s1 + 0x698] = a0\n 38474: a0 = s1 + 0x660\n 38478: a1 = s1 + 0x680\n 38482: ra = 1560, jump @28\n      : @1435 [@dyn 780] (gas: 1)\n 38489: ra = 1562, jump @15\n      : @1436 [@dyn 781] (gas: 59)\n 38496: a1 = u64 [0x301a0]\n 38501: u64 [s1 + 0xa8] = a1\n 38505: a1 = u64 [0x301b0]\n 38510: u64 [s1 + 0x88] = a1\n 38514: a0 = u64 [0x301a8]\n 38519: u64 [s1 + 0x80] = a0\n 38523: ecalli 10 // 'ref_time_left'\n 38525: a1 = u64 [s1 + 0x80]\n 38529: a1 = reverse a1\n 38531: a2 = a1 << 0x20\n 38534: a3 = u64 [s1 + 0x88]\n 38538: a3 = reverse a3\n 38540: a3 = a3 >> 0x20\n 38543: a2 = a2 | a3\n 38546: a1 = a1 >> 0x20\n 38549: a3 = u64 [s1 + 0xa8]\n 38553: a3 = reverse a3\n 38555: a4 = 0x30180\n 38560: a5 = a3 << 0x20\n 38563: a1 = a1 | a5\n 38566: a3 = a3 >> 0x20\n 38569: u32 [0x30190] = a3\n 38574: u64 [0x30188] = a1\n 38579: u64 [0x30180] = a2\n 38584: u64 [s1 + 1720] = 0\n 38588: u64 [s1 + 1712] = 0\n 38592: u64 [s1 + 1704] = 0\n 38596: a1 = u64 [s1 + 0x98]\n 38600: a2 = s1 + 0x600\n 38604: u64 [a2 + 0xa0] = a1\n 38608: u32 [s1 + 1728] = 0\n 38612: a0 = a0 >u 0x8fc\n 38616: a1 = -a0\n 38618: u64 [a2 + 0xf8] = a1\n 38622: u64 [a2 + 0xf0] = a1\n 38626: u64 [a2 + 0xe8] = a1\n 38630: u64 [a2 + 0xe0] = a1\n 38634: a4 = a4 << 0x20\n 38637: a4 = a4 >> 0x20\n 38640: a0 = a0 << 0x23\n 38643: a0 = a0 | a4\n 38646: a1 = s1 + 0x6a0\n 38650: a1 = a1 << 0x20\n 38653: a1 = a1 >> 0x20\n 38656: a2 = s1 + 0x6e0\n 38660: a2 = a2 << 0x20\n 38663: a3 = a2 | a1\n 38666: a4 = u64 [s1 + 0x60]\n 38669: a4 = a4 << 0x20\n 38672: a4 = a4 >> 0x20\n 38675: a1 = s1 + 0x6c0\n 38679: a1 = a1 << 0x20\n 38682: a5 = a1 | a4\n 38685: a1 = 0xffffffffffffffff\n 38688: a2 = 0xffffffffffffffff\n 38691: ecalli 0 // 'call'\n 38692: u64 [s1 + 0xa8] = a0\n 38696: ecalli 12 // 'return_data_size'\n 38698: fallthrough\n      : @1437 (gas: 1)\n 38699: jump @1449 if a0 == 0\n      : @1438 (gas: 10)\n 38703: ecalli 12 // 'return_data_size'\n 38705: a2 = a0\n 38707: u64 [s1 + 632] = 0\n 38711: u64 [s1 + 624] = 0\n 38715: u64 [s1 + 616] = 0\n 38719: a0 = s1 + 0x280\n 38723: a1 = s1 + 0x260\n 38727: u64 [s1 + 0x48] = a2\n 38730: u64 [s1 + 0x260] = a2\n 38734: ra = 1564, jump @1468\n      : @1439 [@dyn 782] (gas: 11)\n 38740: a0 = u64 [s1 + 0x280]\n 38744: u64 [s1 + 0x68] = a0\n 38747: a0 = u64 [s1 + 0x288]\n 38751: u64 [s1 + 0x60] = a0\n 38754: a0 = u64 [s1 + 0x290]\n 38758: u64 [s1 + 0x58] = a0\n 38761: a0 = u64 [s1 + 0x298]\n 38765: u64 [s1 + 0x50] = a0\n 38768: a0 = s1 + 0x240\n 38772: a1 = 0x40\n 38775: ra = 1566, jump @22\n      : @1440 [@dyn 783] (gas: 24)\n 38782: a5 = s1 + 0x200\n 38786: a0 = u64 [a5 + 0x58]\n 38789: u64 [s1 + 0x78] = a0\n 38792: a1 = u64 [a5 + 0x50]\n 38795: u64 [s1 + 0x70] = a1\n 38798: a3 = u64 [a5 + 0x48]\n 38801: u64 [s1 + 0x80] = a3\n 38805: a4 = u64 [a5 + 0x40]\n 38808: u64 [s1 + 0x88] = a4\n 38812: a2 = u64 [s1 + 0x50]\n 38815: u64 [a5 + 0x18] = a2\n 38818: a2 = u64 [s1 + 0x58]\n 38821: u64 [a5 + 0x10] = a2\n 38824: a2 = u64 [s1 + 0x60]\n 38827: u64 [a5 + 0x8] = a2\n 38830: a2 = u64 [s1 + 0x68]\n 38833: u64 [a5] = a2\n 38835: u64 [a5 + 0x38] = a0\n 38838: u64 [a5 + 0x30] = a1\n 38841: u64 [a5 + 0x28] = a3\n 38844: a0 = s1 + 0x220\n 38848: a1 = s1 + 0x200\n 38852: u64 [a5 + 0x20] = a4\n 38855: ra = 1568, jump @1349\n      : @1441 [@dyn 784] (gas: 12)\n 38861: a2 = u64 [s1 + 0x88]\n 38865: a0 = u64 [s1 + 0x78]\n 38868: a1 = u64 [s1 + 0x80]\n 38872: a0 = a0 | a1\n 38875: a3 = u64 [s1 + 0x70]\n 38878: a1 = a2 | a3\n 38881: a1 = a1 | a0\n 38884: a1 = a1 >> 0x20\n 38887: a0 = a0 | a3\n 38890: a0 = a0 << 0x20\n 38893: a0 = a0 | a1\n 38896: jump @1456 if a0 != 0\n      : @1442 (gas: 8)\n 38900: u64 [s1 + 504] = 0\n 38904: u64 [s1 + 496] = 0\n 38908: u64 [s1 + 488] = 0\n 38912: a1 = s1 + 0x1e0\n 38916: a0 = u64 [s1 + 0x48]\n 38919: u64 [s1 + 0x1e0] = a0\n 38923: a0 = a2\n 38925: ra = 1570, jump @24\n      : @1443 [@dyn 785] (gas: 2)\n 38932: ecalli 12 // 'return_data_size'\n 38934: fallthrough\n      : @1444 (gas: 10)\n 38935: a3 = u64 [s1 + 0x88]\n 38939: a1 = u64 [s1 + 0x78]\n 38942: a2 = u64 [s1 + 0x70]\n 38945: a1 = a1 | a2\n 38948: a2 = 0xffffffe0\n 38958: a2 = a3 <u a2\n 38961: a4 = u64 [s1 + 0x80]\n 38965: a2 = 0 if a4 != 0\n 38967: a2 = 0 if a1 != 0\n 38969: jump @1456 if a2 == 0\n      : @1445 (gas: 3)\n 38973: a1 = a0\n 38975: a0 = a0 >> 0x20\n 38978: jump @1456 if a0 != 0\n      : @1446 (gas: 7)\n 38982: i32 a0 = a3 + 0x20\n 38985: a2 = a1\n 38987: u64 [s1 + 0x80] = a1\n 38991: i32 a1 = a1 + 0\n 38993: u64 [s1 + 0x88] = a1\n 38997: a1 = a2\n 38999: ra = 1572, jump @37\n      : @1447 [@dyn 786] (gas: 7)\n 39006: a1 = u64 [s1 + 0x80]\n 39010: u32 [s1 + 0x700] = a1\n 39014: i32 a0 = a0 + 0\n 39016: i32 a1 = s1 + 0x700\n 39020: a2 = 0\n 39022: ecalli 11 // 'return_data_copy'\n 39024: fallthrough\n      : @1448 (gas: 3)\n 39025: a0 = i32 [s1 + 0x700]\n 39029: a1 = u64 [s1 + 0x88]\n 39033: jump @1456 if a0 <u a1\n      : @1449 (gas: 2)\n 39037: a0 = u64 [s1 + 0xa8]\n 39041: jump @1464 if a0 != 0\n      : @1450 (gas: 3)\n 39045: a0 = s1 + 0x1a0\n 39049: a1 = 0x40\n 39052: ra = 1574, jump @22\n      : @1451 [@dyn 787] (gas: 6)\n 39059: a4 = s1 + 0x100\n 39063: a0 = u64 [a4 + 0xb8]\n 39067: a1 = u64 [a4 + 0xb0]\n 39071: a2 = u64 [a4 + 0xa8]\n 39075: a3 = u64 [a4 + 0xa0]\n 39079: t0 = 1576, jump @1515\n      : @1452 [@dyn 788] (gas: 1)\n 39085: jump @1456 if a0 != 0\n      : @1453 (gas: 9)\n 39089: u64 [s1 + 408] = 0\n 39093: u64 [s1 + 400] = 0\n 39097: u64 [s1 + 392] = 0\n 39101: a1 = s1 + 0x180\n 39105: a0 = u64 [s1 + 0x98]\n 39109: u64 [s1 + 0x180] = a0\n 39113: a0 = a3\n 39115: u64 [s1 + 0xb8] = a3\n 39119: ra = 1578, jump @24\n      : @1454 [@dyn 789] (gas: 32)\n 39126: u64 [s1 + 280] = 0\n 39130: u64 [s1 + 272] = 0\n 39134: u64 [s1 + 264] = 0\n 39138: a0 = u64 [s1 + 0x30]\n 39141: u64 [s1 + 0x100] = a0\n 39145: u64 [s1 + 312] = 0\n 39149: u64 [s1 + 304] = 0\n 39153: u64 [s1 + 296] = 0\n 39157: a0 = u64 [s1 + 0x90]\n 39161: u64 [s1 + 0x120] = a0\n 39165: u64 [s1 + 344] = 0\n 39169: a0 = u64 [s1 + 0xa0]\n 39173: u64 [s1 + 0x150] = a0\n 39177: a0 = u64 [s1 + 0x38]\n 39180: u64 [s1 + 0x148] = a0\n 39184: a0 = u64 [0x20148]\n 39189: a1 = u64 [0x20150]\n 39194: a2 = u64 [0x20158]\n 39199: a3 = u64 [s1 + 0x40]\n 39202: u64 [s1 + 0x140] = a3\n 39206: u64 [s1 + 0x178] = a0\n 39210: u64 [s1 + 0x170] = a1\n 39214: u64 [s1 + 0x168] = a2\n 39218: a0 = u64 [0x20160]\n 39223: a1 = 0x20\n 39226: a2 = s1 + 0x160\n 39230: a3 = s1 + 0x140\n 39234: a4 = s1 + 0x120\n 39238: a5 = s1 + 0x100\n 39242: u64 [s1 + 0x160] = a0\n 39246: a0 = u64 [s1 + 0xb8]\n 39250: ra = 1580, jump @34\n      : @1455 [@dyn 790] (gas: 7)\n 39257: sp = s0 + 0xfffffffffffff8a0\n 39261: a0 = sp + 0x700\n 39265: ra = u64 [a0 + 0x58]\n 39268: s0 = u64 [a0 + 0x50]\n 39271: s1 = u64 [a0 + 0x48]\n 39274: sp = sp + 0x760\n 39278: ret\n      : @1456 (gas: 1)\n 39280: trap\n      : @1457 (gas: 8)\n 39281: u64 [s1 + 1488] = 0\n 39285: u64 [s1 + 1480] = 0\n 39289: u64 [s1 + 1472] = 0\n 39293: a0 = 0xcf114bd900000000\n 39303: a1 = s1 + 0x5c0\n 39307: u64 [s1 + 0x5d8] = a0\n 39311: a0 = 0\n 39313: ra = 1582, jump @24\n      : @1458 [@dyn 791] (gas: 2)\n 39320: a1 = i32 [0x20170]\n 39325: jump @1460 if a1 >u 31\n      : @1459 (gas: 2)\n 39329: u32 [0x20170] = 0x20\n 39335: fallthrough\n      : @1460 (gas: 6)\n 39336: a1 = 0x20180\n 39341: i32 a1 = a1 + 0\n 39343: a0 = 0x1\n 39346: a2 = 0x4\n 39349: ecalli 13 // 'seal_return'\n 39351: fallthrough\n      : @1461 (gas: 9)\n 39352: u64 [s1 + 208] = 0\n 39356: u64 [s1 + 200] = 0\n 39360: u64 [s1 + 192] = 0\n 39364: a0 = 0xa7a9536d00000000\n 39374: a1 = s1 + 0xc0\n 39378: u64 [s1 + 0xd8] = a0\n 39382: a0 = 0\n 39384: ra = 0x630\n 39388: jump @24\n      : @1462 (gas: 9)\n 39392: u64 [s1 + 240] = 0\n 39396: u64 [s1 + 232] = 0\n 39400: u64 [s1 + 224] = 0\n 39404: a0 = 0xafa4e2b600000000\n 39414: a1 = s1 + 0xe0\n 39418: u64 [s1 + 0xf8] = a0\n 39422: a0 = 0\n 39424: ra = 0x630\n 39428: jump @24\n      : @1463 (gas: 9)\n 39432: u64 [s1 + 1072] = 0\n 39436: u64 [s1 + 1064] = 0\n 39440: u64 [s1 + 1056] = 0\n 39444: a0 = 0x560ff90000000000\n 39454: a1 = s1 + 0x420\n 39458: u64 [s1 + 0x438] = a0\n 39462: a0 = 0\n 39464: ra = 0x630\n 39468: jump @24\n      : @1464 (gas: 8)\n 39472: u64 [s1 + 464] = 0\n 39476: u64 [s1 + 456] = 0\n 39480: u64 [s1 + 448] = 0\n 39484: a0 = 0x90b8ec1800000000\n 39494: a1 = s1 + 0x1c0\n 39498: u64 [s1 + 0x1d8] = a0\n 39502: a0 = 0\n 39504: ra = 1584, jump @24\n      : @1465 [@dyn 792] (gas: 3)\n 39511: a0 = u64 [s1 + 0xb0]\n 39515: a0 = i32 [a0]\n 39517: jump @1467 if a0 >u 31\n      : @1466 (gas: 3)\n 39521: a1 = u64 [s1 + 0xb0]\n 39525: u32 [a1 + 0] = 0x20\n 39528: fallthrough\n      : @1467 (gas: 6)\n 39529: a0 = 0x1\n 39532: a2 = 0x4\n 39535: a1 = u64 [s1 + 0xb8]\n 39539: ra = 0x632\n 39543: ecalli 13 // 'seal_return'\n 39545: fallthrough\n      : @1468 [@dyn 793] (gas: 10)\n 39546: a3 = u64 [a1 + 0x18]\n 39549: a4 = u64 [a1 + 0x10]\n 39552: t0 = u64 [a1 + 0x8]\n 39555: a5 = a3 >u 0\n 39557: a2 = a4 >u 0\n 39559: a2 = a5 if a3 != 0\n 39562: a3 = a3 | a4\n 39565: a4 = t0 >u 0\n 39567: a4 = a2 if a3 != 0\n 39570: jump @1470 if a4 != 0\n      : @1469 (gas: 16)\n 39573: a1 = u64 [a1]\n 39575: a2 = a1 + 0x1f\n 39578: a1 = a2 <u a1\n 39581: a1 = a1 + t0\n 39584: a1 = a1 & 0x1\n 39587: a2 = a2 & 0xffffffffffffffe0\n 39590: a3 = a2 + 0x20\n 39593: a2 = a3 <u a2\n 39596: a4 = a1 + a2\n 39599: a1 = a4 <u a1\n 39602: a1 = a2 if a2 == 0\n 39605: u64 [a0 + 24] = 0\n 39608: u64 [a0] = a3\n 39610: u64 [a0 + 0x8] = a4\n 39613: u64 [a0 + 0x10] = a1\n 39616: ret\n      : @1470 (gas: 6)\n 39618: sp = sp + 0xffffffffffffffb0\n 39621: u64 [sp + 0x48] = ra\n 39624: u64 [sp + 0x40] = s0\n 39627: s0 = sp + 0x50\n 39630: sp = sp & 0xfffffffffffffff0\n 39633: t0 = 1588, jump @1557\n      : @1471 [@dyn 794] (gas: 1)\n 39639: ra = 1590, jump @24\n      : @1472 [@dyn 795] (gas: 7)\n 39646: u64 [sp + 24] = 0\n 39649: u64 [sp + 16] = 0\n 39652: u64 [sp + 0] = 0x41\n 39655: a0 = 0x4\n 39658: a1 = sp\n 39660: u64 [sp + 8] = 0\n 39663: ra = 1592, jump @24\n      : @1473 [@dyn 796] (gas: 2)\n 39670: a1 = i32 [0x20170]\n 39675: jump @1475 if a1 >u 63\n      : @1474 (gas: 2)\n 39679: u32 [0x20170] = 0x40\n 39685: fallthrough\n      : @1475 (gas: 7)\n 39686: a1 = 0x20180\n 39691: i32 a1 = a1 + 0\n 39693: a0 = 0x1\n 39696: a2 = 0x24\n 39699: ra = 0x63a\n 39703: ecalli 13 // 'seal_return'\n 39705: fallthrough\n      : @1476 [@dyn 797] (gas: 74)\n 39706: sp = sp + 0xfffffffffffffe40\n 39710: u64 [sp + 0x1b8] = ra\n 39714: u64 [sp + 0x1b0] = s0\n 39718: u64 [sp + 0x1a8] = s1\n 39722: s0 = sp + 0x1c0\n 39726: sp = sp & 0xffffffffffffffe0\n 39729: a2 = u64 [a1]\n 39731: u64 [sp + 0x58] = a2\n 39734: a2 = u64 [a1 + 0x8]\n 39737: u64 [sp + 0x50] = a2\n 39740: a2 = u64 [a1 + 0x10]\n 39743: u64 [sp + 0x48] = a2\n 39746: a1 = u64 [a1 + 0x18]\n 39749: u64 [sp + 0x40] = a1\n 39752: a1 = u64 [a0]\n 39754: u64 [sp + 0x38] = a1\n 39757: a1 = u64 [a0 + 0x10]\n 39760: u64 [sp + 0x30] = a1\n 39763: s1 = u64 [a0 + 0x8]\n 39766: ecalli 10 // 'ref_time_left'\n 39768: a1 = reverse s1\n 39770: a2 = a1 << 0x20\n 39773: a3 = u64 [sp + 0x30]\n 39776: a3 = reverse a3\n 39778: a3 = a3 >> 0x20\n 39781: a2 = a2 | a3\n 39784: a1 = a1 >> 0x20\n 39787: a3 = u64 [sp + 0x38]\n 39790: a3 = reverse a3\n 39792: a4 = 0x30180\n 39797: a5 = a3 << 0x20\n 39800: a1 = a1 | a5\n 39803: a3 = a3 >> 0x20\n 39806: u32 [0x30190] = a3\n 39811: u64 [0x30188] = a1\n 39816: u64 [0x30180] = a2\n 39821: a1 = u64 [sp + 0x40]\n 39824: u64 [sp + 0x158] = a1\n 39828: a1 = u64 [sp + 0x48]\n 39831: u64 [sp + 0x150] = a1\n 39835: a1 = u64 [sp + 0x50]\n 39838: u64 [sp + 0x148] = a1\n 39842: a1 = u64 [sp + 0x58]\n 39845: u64 [sp + 0x140] = a1\n 39849: u32 [sp + 352] = 0\n 39853: a0 = a0 >u 0x8fc\n 39857: a1 = -a0\n 39859: u64 [sp + 0x198] = a1\n 39863: u64 [sp + 0x190] = a1\n 39867: u64 [sp + 0x188] = a1\n 39871: u64 [sp + 0x180] = a1\n 39875: a4 = a4 << 0x20\n 39878: a4 = a4 >> 0x20\n 39881: a0 = a0 << 0x23\n 39884: a0 = a0 | a4\n 39887: a1 = sp + 0x140\n 39891: a1 = a1 << 0x20\n 39894: a1 = a1 >> 0x20\n 39897: a4 = 0x20180\n 39902: a2 = sp + 0x180\n 39906: a2 = a2 << 0x20\n 39909: a3 = a2 | a1\n 39912: u64 [sp + 0x10] = a4\n 39915: a4 = a4 << 0x20\n 39918: a4 = a4 >> 0x20\n 39921: a1 = sp + 0x160\n 39925: a1 = a1 << 0x20\n 39928: a5 = a1 | a4\n 39931: a1 = 0xffffffffffffffff\n 39934: a2 = 0xffffffffffffffff\n 39937: ecalli 0 // 'call'\n 39938: s1 = a0\n 39940: ecalli 12 // 'return_data_size'\n 39942: fallthrough\n      : @1477 (gas: 1)\n 39943: jump @1489 if a0 == 0\n      : @1478 (gas: 11)\n 39947: u64 [sp + 0x18] = s1\n 39950: ecalli 12 // 'return_data_size'\n 39952: a2 = a0\n 39954: u64 [sp + 280] = 0\n 39958: u64 [sp + 272] = 0\n 39962: u64 [sp + 264] = 0\n 39966: a0 = sp + 0x120\n 39970: a1 = sp + 0x100\n 39974: u64 [sp + 0x20] = a2\n 39977: u64 [sp + 0x100] = a2\n 39981: ra = 1596, jump @1468\n      : @1479 [@dyn 798] (gas: 11)\n 39987: a0 = u64 [sp + 0x120]\n 39991: u64 [sp + 0x48] = a0\n 39994: a0 = u64 [sp + 0x128]\n 39998: u64 [sp + 0x40] = a0\n 40001: a0 = u64 [sp + 0x130]\n 40005: u64 [sp + 0x38] = a0\n 40008: a0 = u64 [sp + 0x138]\n 40012: u64 [sp + 0x30] = a0\n 40015: a0 = sp + 0xe0\n 40019: a1 = 0x40\n 40022: ra = 1598, jump @22\n      : @1480 [@dyn 799] (gas: 22)\n 40029: a0 = u64 [sp + 0xf8]\n 40033: u64 [sp + 0x50] = a0\n 40036: s1 = u64 [sp + 0xf0]\n 40040: a2 = u64 [sp + 0xe8]\n 40044: u64 [sp + 0x58] = a2\n 40047: a3 = u64 [sp + 0xe0]\n 40051: u64 [sp + 0x28] = a3\n 40054: a1 = u64 [sp + 0x30]\n 40057: u64 [sp + 0xb8] = a1\n 40061: a1 = u64 [sp + 0x38]\n 40064: u64 [sp + 0xb0] = a1\n 40068: a1 = u64 [sp + 0x40]\n 40071: u64 [sp + 0xa8] = a1\n 40075: a1 = u64 [sp + 0x48]\n 40078: u64 [sp + 0xa0] = a1\n 40082: u64 [sp + 0xd8] = a0\n 40086: u64 [sp + 0xd0] = s1\n 40090: u64 [sp + 0xc8] = a2\n 40094: a0 = sp + 0xc0\n 40098: a1 = sp + 0xa0\n 40102: u64 [sp + 0xc0] = a3\n 40106: ra = 1600, jump @1349\n      : @1481 [@dyn 800] (gas: 12)\n 40112: a2 = u64 [sp + 0x28]\n 40115: a0 = u64 [sp + 0x50]\n 40118: a1 = u64 [sp + 0x58]\n 40121: a0 = a0 | a1\n 40124: a1 = a2 | s1\n 40127: a1 = a1 | a0\n 40130: a1 = a1 >> 0x20\n 40133: u64 [sp + 0x48] = s1\n 40136: a0 = a0 | s1\n 40139: a0 = a0 << 0x20\n 40142: a0 = a0 | a1\n 40145: jump @1491 if a0 != 0\n      : @1482 (gas: 9)\n 40149: u64 [sp + 152] = 0\n 40153: u64 [sp + 144] = 0\n 40157: u64 [sp + 136] = 0\n 40161: a1 = sp + 0x80\n 40165: a0 = u64 [sp + 0x20]\n 40168: u64 [sp + 0x80] = a0\n 40172: a0 = a2\n 40174: s1 = a2\n 40176: ra = 1602, jump @24\n      : @1483 [@dyn 801] (gas: 2)\n 40183: ecalli 12 // 'return_data_size'\n 40185: fallthrough\n      : @1484 (gas: 9)\n 40186: a1 = u64 [sp + 0x50]\n 40189: a2 = u64 [sp + 0x48]\n 40192: a1 = a1 | a2\n 40195: a2 = 0xffffffe0\n 40205: a2 = s1 <u a2\n 40208: a4 = u64 [sp + 0x58]\n 40211: a2 = 0 if a4 != 0\n 40213: a2 = 0 if a1 != 0\n 40215: jump @1491 if a2 == 0\n      : @1485 (gas: 4)\n 40218: a3 = s1\n 40220: s1 = a0\n 40222: a0 = a0 >> 0x20\n 40225: jump @1491 if a0 != 0\n      : @1486 (gas: 5)\n 40228: i32 a0 = a3 + 0x20\n 40231: i32 a1 = s1 + 0\n 40233: u64 [sp + 0x58] = a1\n 40236: a1 = s1\n 40238: ra = 1604, jump @37\n      : @1487 [@dyn 802] (gas: 6)\n 40245: u32 [sp + 0x1a0] = s1\n 40249: i32 a0 = a0 + 0\n 40251: i32 a1 = sp + 0x1a0\n 40255: a2 = 0\n 40257: ecalli 11 // 'return_data_copy'\n 40259: fallthrough\n      : @1488 (gas: 4)\n 40260: a0 = i32 [sp + 0x1a0]\n 40264: s1 = u64 [sp + 0x18]\n 40267: a1 = u64 [sp + 0x58]\n 40270: jump @1491 if a0 <u a1\n      : @1489 (gas: 1)\n 40273: jump @1492 if s1 != 0\n      : @1490 (gas: 6)\n 40276: sp = s0 + 0xfffffffffffffe40\n 40280: ra = u64 [sp + 0x1b8]\n 40284: s0 = u64 [sp + 0x1b0]\n 40288: s1 = u64 [sp + 0x1a8]\n 40292: sp = sp + 0x1c0\n 40296: ret\n      : @1491 (gas: 1)\n 40298: trap\n      : @1492 (gas: 8)\n 40299: u64 [sp + 112] = 0\n 40302: u64 [sp + 104] = 0\n 40305: u64 [sp + 96] = 0\n 40308: a0 = 0x90b8ec1800000000\n 40318: a1 = sp + 0x60\n 40321: u64 [sp + 0x78] = a0\n 40324: a0 = 0\n 40326: ra = 1606, jump @24\n      : @1493 [@dyn 803] (gas: 2)\n 40333: a1 = i32 [0x20170]\n 40338: jump @1495 if a1 >u 31\n      : @1494 (gas: 2)\n 40342: u32 [0x20170] = 0x20\n 40348: fallthrough\n      : @1495 (gas: 7)\n 40349: a1 = i32 [sp + 0x10]\n 40352: a0 = 0x1\n 40355: a2 = 0x4\n 40358: ecalli 13 // 'seal_return'\n 40360: a0 = 0\n 40362: ra = 0x648\n 40366: jump @43\n      : @1496 [export #0: 'call'] (gas: 2)\n 40370: a0 = 0\n 40372: ra = 1608, jump @43\n      : @1497 [@dyn 804] [export #1: 'deploy'] (gas: 2)\n 40379: a0 = 0x1\n 40382: ra = 1610, jump @43\n      : @1498 [@dyn 805] (gas: 15)\n 40389: a0 = u64 [a2 + 0x8]\n 40392: a1 = i32 [a2 + 0x10]\n 40395: a2 = u64 [a2]\n 40397: a0 = reverse a0\n 40399: a3 = a0 << 0x20\n 40402: a1 = reverse a1\n 40404: a1 = a1 >> 0x20\n 40407: a3 = a3 | a1\n 40410: a0 = a0 >> 0x20\n 40413: a1 = reverse a2\n 40415: a2 = a1 << 0x20\n 40418: a0 = a0 | a2\n 40421: a1 = a1 >> 0x20\n 40424: a2 = s1 + 0x1918\n 40428: jump [t0]\n      : @1499 (gas: 17)\n 40430: a2 = u64 [s1 + 0x150]\n 40434: a0 = u64 [a2 + 0x8]\n 40437: a1 = i32 [a2 + 0x10]\n 40440: a2 = u64 [a2]\n 40442: a0 = reverse a0\n 40444: a3 = a0 << 0x20\n 40447: a1 = reverse a1\n 40449: a1 = a1 >> 0x20\n 40452: a3 = a3 | a1\n 40455: a0 = a0 >> 0x20\n 40458: a1 = reverse a2\n 40460: a2 = a1 << 0x20\n 40463: a0 = a0 | a2\n 40466: a1 = a1 >> 0x20\n 40469: a2 = s1 + 0x7ff\n 40473: a2 = a2 + 0x119\n 40477: jump [t0]\n      : @1500 (gas: 5)\n 40479: sp = a0\n 40481: i32 a2 = a0 + 0\n 40483: a1 = 0x40\n 40486: a0 = u64 [s1 + 0x190]\n 40490: jump [t0]\n      : @1501 (gas: 27)\n 40492: u64 [s1 + 0x168] = a0\n 40496: a0 = ra - a3\n 40499: a0 = a0 <u a5\n 40502: a1 = ra <u a3\n 40505: a5 = u64 [s1 + 0x138]\n 40509: a4 = ra - a5\n 40512: a4 = a4 - a1\n 40515: a4 = a4 - a0\n 40518: ra = a4 >>a 0x3f\n 40521: a0 = u64 [s1 + 0x130]\n 40525: a0 = ra & a0\n 40528: a1 = u64 [s1 + 0x140]\n 40532: t2 = a1 - a0\n 40535: a1 = a1 <u a0\n 40538: t1 = a2 - a1\n 40541: a1 = 0 if a2 != 0\n 40543: a0 = a3 - a1\n 40546: u64 [s1 + 0x148] = a0\n 40550: a1 = a3 <u a1\n 40553: a1 = a5 - a1\n 40556: a0 = s1 + 0x100\n 40560: a3 = u64 [a0 + 0x98]\n 40564: a5 = u64 [a0 + 0x90]\n 40568: a2 = a3 | a5\n 40571: a2 = a2 <u 0x1\n 40574: a4 = u64 [a0 + 0x80]\n 40578: jump [t0]\n      : @1502 (gas: 8)\n 40580: a0 = u64 [a2 + 0x8]\n 40583: a1 = i32 [a2 + 0x10]\n 40586: a2 = u64 [a2]\n 40588: a3 = reverse a0\n 40590: a0 = a3 << 0x20\n 40593: a1 = reverse a1\n 40595: a1 = a1 >> 0x20\n 40598: jump [t0]\n      : @1503 (gas: 24)\n 40600: a0 = a1 if a2 == 0\n 40603: a2 = u64 [s1 + 0x150]\n 40607: a3 = a2\n 40609: a1 = a2\n 40611: a2 = u64 [s1 + 0x160]\n 40615: a3 = a0 if a2 != 0\n 40618: u64 [s1 + 0x168] = a3\n 40622: a0 = u64 [s1 + 0x148]\n 40626: a3 = u64 [s1 + 0x130]\n 40630: a0 = a0 | a3\n 40633: a3 = u64 [s1 + 0x120]\n 40637: a0 = a3 if a5 == 0\n 40640: a4 = u64 [s1 + 0x158]\n 40644: a3 = a4\n 40646: a3 = a0 if a2 != 0\n 40649: u64 [s1 + 0x160] = a3\n 40653: a0 = u64 [s1 + 0x170]\n 40657: a0 = 0 if a5 == 0\n 40659: u64 [s1 + 0x170] = a0\n 40663: u64 [s1 + 304] = 0x15180\n 40670: a0 = u64 [s1 + 0x198]\n 40674: a2 = a0 + 0xffffffffffffff80\n 40677: a0 = a4\n 40679: jump [t0]\n      : @1504 (gas: 15)\n 40681: a0 = u64 [a2 + 0x8]\n 40684: a1 = i32 [a2 + 0x10]\n 40687: a2 = u64 [a2]\n 40689: a0 = reverse a0\n 40691: a3 = a0 << 0x20\n 40694: a1 = reverse a1\n 40696: a1 = a1 >> 0x20\n 40699: a3 = a3 | a1\n 40702: a0 = a0 >> 0x20\n 40705: a1 = reverse a2\n 40707: a2 = a1 << 0x20\n 40710: a0 = a0 | a2\n 40713: a1 = a1 >> 0x20\n 40716: a2 = s1 + 0x2118\n 40720: jump [t0]\n      : @1505 (gas: 8)\n 40722: a0 = sp + 0xffffffffffffffe0\n 40725: a0 = a0 & 0xffffffffffffffe0\n 40728: u64 [s1 + 0x190] = a0\n 40732: sp = a0\n 40734: i32 a2 = a0 + 0\n 40736: a1 = 0x40\n 40739: a0 = u64 [s1 + 0x110]\n 40743: jump [t0]\n      : @1506 (gas: 15)\n 40745: a2 = u64 [s1 + 0x180]\n 40749: a0 = u64 [a2 + 0x8]\n 40752: a1 = i32 [a2 + 0x10]\n 40755: a2 = u64 [a2]\n 40757: a0 = reverse a0\n 40759: a3 = a0 << 0x20\n 40762: a1 = reverse a1\n 40764: a1 = a1 >> 0x20\n 40767: a3 = a3 | a1\n 40770: a0 = a0 >> 0x20\n 40773: a1 = reverse a2\n 40775: a2 = a1 << 0x20\n 40778: a0 = a0 | a2\n 40781: a1 = a1 >> 0x20\n 40784: jump [t0]\n      : @1507 (gas: 18)\n 40786: a1 = a2 + 0x1\n 40789: u64 [s1 + 0x198] = a1\n 40793: a0 = a1 <u 0x1\n 40796: a0 = a0 + a3\n 40799: u64 [s1 + 0x190] = a0\n 40803: a0 = a0 | a1\n 40806: a0 = a0 <u 0x1\n 40809: a0 = a0 + t1\n 40812: u64 [s1 + 0x180] = a0\n 40816: a0 = a0 <u t1\n 40819: a0 = a0 + ra\n 40822: u64 [s1 + 0x188] = a0\n 40826: a1 = 0xff - a2\n 40830: u64 [s1 + 0x160] = a1\n 40834: a2 = 0x80 - a1\n 40838: a0 = u64 [s1 + 0x140]\n 40842: a1 = u64 [s1 + 0x138]\n 40846: jump [t0]\n      : @1508 (gas: 21)\n 40848: a3 = u64 [s1 + 0x180]\n 40852: a0 = u64 [a3 + 0x18]\n 40855: a1 = u64 [a3 + 0x10]\n 40858: a2 = u64 [a3 + 0x8]\n 40861: a3 = u64 [a3]\n 40863: a0 = reverse a0\n 40865: u64 [s1 + 0x170] = a0\n 40869: a0 = reverse a1\n 40871: u64 [s1 + 0x168] = a0\n 40875: a0 = reverse a2\n 40877: u64 [s1 + 0x160] = a0\n 40881: a0 = reverse a3\n 40883: u64 [s1 + 0x158] = a0\n 40887: a0 = sp + 0xffffffffffffffe0\n 40890: a0 = a0 & 0xffffffffffffffe0\n 40893: u64 [s1 + 0x180] = a0\n 40897: sp = a0\n 40899: a2 = s1 + 0x7ff\n 40903: a2 = a2 + 0x119\n 40907: a0 = u64 [s1 + 0x178]\n 40911: jump [t0]\n      : @1509 (gas: 14)\n 40913: a0 = u64 [a3 + 0x18]\n 40916: a1 = u64 [a3 + 0x10]\n 40919: a2 = u64 [a3 + 0x8]\n 40922: a3 = u64 [a3]\n 40924: a0 = reverse a0\n 40926: a4 = reverse a1\n 40928: a2 = reverse a2\n 40930: a3 = reverse a3\n 40932: a1 = u64 [s1 + 0x170]\n 40936: u64 [a1 + 0x18] = a3\n 40939: u64 [a1 + 0x10] = a2\n 40942: u64 [a1 + 0x8] = a4\n 40945: u64 [a1] = a0\n 40947: jump [t0]\n      : @1510 (gas: 19)\n 40949: a3 = u64 [s1 + 0x170]\n 40953: a0 = u64 [a3 + 0x18]\n 40956: a1 = u64 [a3 + 0x10]\n 40959: a2 = u64 [a3 + 0x8]\n 40962: a3 = u64 [a3]\n 40964: a0 = reverse a0\n 40966: u64 [s1 + 0x168] = a0\n 40970: a0 = reverse a1\n 40972: u64 [s1 + 0x160] = a0\n 40976: a0 = reverse a2\n 40978: u64 [s1 + 0x158] = a0\n 40982: a0 = reverse a3\n 40984: u64 [s1 + 0x150] = a0\n 40988: a0 = sp + 0xffffffffffffffe0\n 40991: a0 = a0 & 0xffffffffffffffe0\n 40994: u64 [s1 + 0x170] = a0\n 40998: sp = a0\n 41000: a0 = u64 [s1 + 0x188]\n 41004: jump [t0]\n      : @1511 (gas: 9)\n 41006: a0 = u64 [a3 + 0x18]\n 41009: a1 = u64 [a3 + 0x10]\n 41012: a2 = u64 [a3 + 0x8]\n 41015: a3 = u64 [a3]\n 41017: a0 = reverse a0\n 41019: a1 = reverse a1\n 41021: a2 = reverse a2\n 41023: a3 = reverse a3\n 41025: jump [t0]\n      : @1512 (gas: 10)\n 41027: a0 = u64 [a3 + 0x18]\n 41030: a1 = u64 [a3 + 0x10]\n 41033: a2 = u64 [a3 + 0x8]\n 41036: a3 = u64 [a3]\n 41038: a0 = reverse a0\n 41040: a1 = reverse a1\n 41042: a2 = reverse a2\n 41044: a3 = reverse a3\n 41046: a4 = s1 + 0x2918\n 41050: jump [t0]\n      : @1513 (gas: 16)\n 41052: a3 = u64 [s1 + 0x190]\n 41056: a0 = u64 [a3 + 0x18]\n 41059: a1 = u64 [a3 + 0x10]\n 41062: a2 = u64 [a3 + 0x8]\n 41065: a3 = u64 [a3]\n 41067: a0 = reverse a0\n 41069: u64 [s1 + 0x190] = a0\n 41073: a0 = reverse a1\n 41075: u64 [s1 + 0x188] = a0\n 41079: a0 = reverse a2\n 41081: u64 [s1 + 0x180] = a0\n 41085: a0 = reverse a3\n 41087: u64 [s1 + 0x178] = a0\n 41091: a2 = s1 + 0x1918\n 41095: a0 = 0\n 41097: jump [t0]\n      : @1514 (gas: 8)\n 41099: a3 = a4 <u a3\n 41102: a5 = a2 + a3\n 41105: a2 = a5 <u a2\n 41108: a2 = a3 if a3 == 0\n 41111: a2 = a2 + a1\n 41114: a1 = a2 <u a1\n 41117: a0 = a0 + a1\n 41120: jump [t0]\n      : @1515 (gas: 8)\n 41122: a0 = a0 | a2\n 41125: a2 = a3 | a1\n 41128: a2 = a2 | a0\n 41131: a2 = a2 >> 0x20\n 41134: a0 = a0 | a1\n 41137: a0 = a0 << 0x20\n 41140: a0 = a0 | a2\n 41143: jump [t0]\n      : @1516 (gas: 16)\n 41145: t2 = u64 [s1 + 0x140]\n 41149: t1 = u64 [s1 + 0x138]\n 41153: u64 [s1 + 344] = 0\n 41157: u64 [s1 + 336] = 0\n 41161: a4 = s1 + 0x100\n 41165: a2 = u64 [a4 + 0x28]\n 41168: a1 = 0 if a2 == 0\n 41170: a0 = 0 if a2 == 0\n 41172: u64 [a4 + 0x48] = a0\n 41175: a3 = u64 [a4 + 0x30]\n 41178: a2 = a3 + 0xffffffffffffffff\n 41181: u64 [a4 + 0x28] = a2\n 41184: a2 = a3 >u 0\n 41186: a2 = a2 + 0xffffffffffffffff\n 41189: u64 [a4 + 0x20] = a2\n 41192: jump [t0]\n      : @1517 (gas: 15)\n 41194: a0 = u64 [a3 + 0x18]\n 41197: a1 = u64 [a3 + 0x10]\n 41200: a2 = u64 [a3 + 0x8]\n 41203: a3 = u64 [a3]\n 41205: a0 = reverse a0\n 41207: u64 [s1 + 0x188] = a0\n 41211: a0 = reverse a1\n 41213: u64 [s1 + 0x180] = a0\n 41217: a0 = reverse a2\n 41219: u64 [s1 + 0x178] = a0\n 41223: a0 = reverse a3\n 41225: u64 [s1 + 0x170] = a0\n 41229: a0 = sp + 0xffffffffffffffe0\n 41232: a0 = a0 & 0xffffffffffffffe0\n 41235: jump [t0]\n      : @1518 (gas: 18)\n 41237: a3 = u64 [s1 + 0xa8]\n 41241: a0 = u64 [a3 + 0x18]\n 41244: a1 = u64 [a3 + 0x10]\n 41247: a2 = u64 [a3 + 0x8]\n 41250: a3 = u64 [a3]\n 41252: a0 = reverse a0\n 41254: u64 [s1 + 0x98] = a0\n 41258: a0 = reverse a1\n 41260: u64 [s1 + 0x88] = a0\n 41264: a0 = reverse a2\n 41266: u64 [s1 + 0x80] = a0\n 41270: a0 = reverse a3\n 41272: u64 [s1 + 0x78] = a0\n 41275: a0 = sp + 0xffffffffffffffe0\n 41278: a0 = a0 & 0xffffffffffffffe0\n 41281: u64 [s1 + 0xa8] = a0\n 41285: sp = a0\n 41287: jump [t0]\n      : @1519 (gas: 17)\n 41289: a4 = s1 + 0x100\n 41293: a2 = u64 [a4 + 0x80]\n 41297: a0 = u64 [a2 + 0x8]\n 41300: a1 = i32 [a2 + 0x10]\n 41303: a2 = u64 [a2]\n 41305: a0 = reverse a0\n 41307: a3 = a0 << 0x20\n 41310: a1 = reverse a1\n 41312: a1 = a1 >> 0x20\n 41315: a3 = a3 | a1\n 41318: a0 = a0 >> 0x20\n 41321: a1 = reverse a2\n 41323: a2 = a1 << 0x20\n 41326: a0 = a0 | a2\n 41329: a1 = a1 >> 0x20\n 41332: a2 = u64 [a4 + 0x98]\n 41336: jump [t0]\n      : @1520 (gas: 16)\n 41338: a3 = u64 [s1 + 0x190]\n 41342: a0 = u64 [a3 + 0x18]\n 41345: a1 = u64 [a3 + 0x10]\n 41348: a2 = u64 [a3 + 0x8]\n 41351: a3 = u64 [a3]\n 41353: a0 = reverse a0\n 41355: a4 = reverse a1\n 41357: a2 = reverse a2\n 41359: a3 = reverse a3\n 41361: a1 = u64 [s1 + 0x198]\n 41365: u64 [a1 + 0x18] = a3\n 41368: u64 [a1 + 0x10] = a2\n 41371: u64 [a1 + 0x8] = a4\n 41374: u64 [a1] = a0\n 41376: a0 = 0x2000\n 41380: jump [t0]\n      : @1521 (gas: 13)\n 41382: a0 = u64 [a3 + 0x18]\n 41385: a1 = u64 [a3 + 0x10]\n 41388: a2 = u64 [a3 + 0x8]\n 41391: a3 = u64 [a3]\n 41393: a0 = reverse a0\n 41395: u64 [s1 + 0x178] = a0\n 41399: a0 = reverse a1\n 41401: u64 [s1 + 0x170] = a0\n 41405: a0 = reverse a2\n 41407: u64 [s1 + 0x168] = a0\n 41411: a0 = reverse a3\n 41413: u64 [s1 + 0x160] = a0\n 41417: jump [t0]\n      : @1522 (gas: 8)\n 41419: a0 = sp + 0xffffffffffffffe0\n 41422: a0 = a0 & 0xffffffffffffffe0\n 41425: u64 [s1 + 0x170] = a0\n 41429: sp = a0\n 41431: i32 a2 = a0 + 0\n 41433: a1 = 0x40\n 41436: a0 = u64 [s1 + 0x180]\n 41440: jump [t0]\n      : @1523 (gas: 12)\n 41442: a4 = 0\n 41444: a5 = 0\n 41446: a2 = u64 [s1 + 0x128]\n 41450: a1 = 0 if a2 == 0\n 41452: a0 = 0 if a2 == 0\n 41454: a3 = u64 [s1 + 0x138]\n 41458: a2 = a3 + 0xffffffffffffffff\n 41461: u64 [s1 + 0x130] = a2\n 41465: a2 = a3 >u 0\n 41467: a2 = a2 + 0xffffffffffffffff\n 41470: u64 [s1 + 0x128] = a2\n 41474: jump [t0]\n      : @1524 (gas: 11)\n 41476: a2 = u64 [s1 + 0x128]\n 41480: a1 = a1 | a2\n 41483: a2 = u64 [s1 + 0x198]\n 41487: a3 = a2 <u 0x80\n 41491: u64 [s1 + 0x128] = a3\n 41495: a4 = u64 [s1 + 0x120]\n 41499: a1 = a4 if a3 == 0\n 41502: a4 = u64 [s1 + 0x138]\n 41506: a4 = a1 if a2 != 0\n 41509: u64 [s1 + 0x138] = a4\n 41513: jump [t0]\n      : @1525 (gas: 12)\n 41515: a2 = t2 >> 0x3f\n 41518: a3 = t1 << 0x1\n 41521: a2 = a2 | a3\n 41524: a3 = t2 << 0x1\n 41527: t2 = u64 [s1 + 0x168]\n 41531: a4 = t2 >> 0x3f\n 41534: a3 = a3 | a4\n 41537: u64 [s1 + 0x140] = a3\n 41541: ra = u64 [s1 + 0x120]\n 41545: a0 = t1\n 41547: t1 = ra ^ a2\n 41550: jump [t0]\n      : @1526 (gas: 12)\n 41552: a1 = a1 << 0x1\n 41555: a4 = u64 [s1 + 0x148]\n 41559: a3 = a4 >> 0x3f\n 41562: a1 = a1 | a3\n 41565: u64 [s1 + 0x138] = a1\n 41569: a3 = a0 >> 0x3f\n 41572: a0 = a4 << 0x1\n 41575: a3 = a3 | a0\n 41578: a0 = t2 << 0x1\n 41581: a4 = u64 [s1 + 0x160]\n 41585: a1 = a4 >> 0x3f\n 41588: jump [t0]\n      : @1527 (gas: 14)\n 41590: a0 = u64 [a3 + 0x18]\n 41593: a1 = u64 [a3 + 0x10]\n 41596: a2 = u64 [a3 + 0x8]\n 41599: a3 = u64 [a3]\n 41601: a0 = reverse a0\n 41603: a4 = reverse a1\n 41605: a2 = reverse a2\n 41607: a3 = reverse a3\n 41609: a1 = u64 [s1 + 0x180]\n 41613: u64 [a1 + 0x18] = a3\n 41616: u64 [a1 + 0x10] = a2\n 41619: u64 [a1 + 0x8] = a4\n 41622: u64 [a1] = a0\n 41624: jump [t0]\n      : @1528 (gas: 9)\n 41626: a5 = s1 + 0x100\n 41630: u64 [a5 + 0x98] = a1\n 41634: u64 [a5 + 0x90] = a3\n 41638: a0 = a3 | a1\n 41641: u64 [a5 + 0x78] = a2\n 41644: u64 [a5 + 0x88] = a4\n 41648: a1 = a4 | a2\n 41651: a0 = a0 | a1\n 41654: jump [t0]\n      : @1529 (gas: 15)\n 41656: a3 = u64 [s1 + 0x98]\n 41660: a0 = u64 [a3 + 0x18]\n 41663: a1 = u64 [a3 + 0x10]\n 41666: a2 = u64 [a3 + 0x8]\n 41669: a3 = u64 [a3]\n 41671: a0 = reverse a0\n 41673: a4 = reverse a1\n 41675: a2 = reverse a2\n 41677: a3 = reverse a3\n 41679: a1 = u64 [s1 + 0xa8]\n 41683: u64 [a1 + 0x18] = a3\n 41686: u64 [a1 + 0x10] = a2\n 41689: u64 [a1 + 0x8] = a4\n 41692: u64 [a1] = a0\n 41694: jump [t0]\n      : @1530 (gas: 9)\n 41696: u64 [s1 + 0x160] = a3\n 41700: a1 = 0 if a4 == 0\n 41702: u64 [s1 + 0x168] = a1\n 41706: u64 [s1 + 312] = 0x15180\n 41713: a0 = u64 [s1 + 0x190]\n 41717: a2 = a0 + 0xffffffffffffff80\n 41720: a0 = a5\n 41722: a1 = t1\n 41724: jump [t0]\n      : @1531 (gas: 10)\n 41726: u64 [s1] = a3\n 41728: u64 [s1 + 0x8] = a2\n 41731: u64 [s1 + 0x10] = a1\n 41734: u64 [s1 + 0x18] = a0\n 41737: sp = s0 + 0xffffffffffffffc0\n 41740: ra = u64 [sp + 0x38]\n 41743: s0 = u64 [sp + 0x30]\n 41746: s1 = u64 [sp + 0x28]\n 41749: sp = sp + 0x40\n 41752: jump [t0]\n      : @1532 (gas: 4)\n 41754: a0 = 0x2918\n 41758: a3 = s1 + a0\n 41761: a4 = a3 + 0x200\n 41765: jump [t0]\n      : @1533 (gas: 8)\n 41767: a0 = u64 [a4 + 0x78]\n 41770: a1 = u64 [a4 + 0x80]\n 41774: a2 = u64 [a4 + 0x70]\n 41777: a3 = u64 [a4 + 0x68]\n 41780: a1 = a1 | a2\n 41783: a0 = a0 | a3\n 41786: a0 = a0 | a1\n 41789: jump [t0]\n      : @1534 (gas: 8)\n 41791: a3 = u64 [s1 + 0x150]\n 41795: a0 = a0 - a3\n 41798: a3 = u64 [s1 + 0x188]\n 41802: a4 = u64 [s1 + 0x160]\n 41806: a3 = a4 - a3\n 41809: a4 = s1 + 0x2118\n 41813: a5 = a4 + 0x700\n 41817: jump [t0]\n      : @1535 (gas: 9)\n 41819: a0 = a0 | a1\n 41822: a1 = u64 [s1 + 0x148]\n 41826: a0 = a1 if a3 == 0\n 41829: a1 = u64 [s1 + 0x140]\n 41833: a1 = a0 if a2 != 0\n 41836: u64 [s1 + 0x140] = a1\n 41840: a0 = u64 [s1 + 0x158]\n 41844: a1 = u64 [s1 + 0x150]\n 41848: jump [t0]\n      : @1536 (gas: 16)\n 41850: a4 = u64 [a3]\n 41852: u64 [sp + 0x18] = a4\n 41855: a4 = u64 [a3 + 0x8]\n 41858: u64 [sp + 0x20] = a4\n 41861: a4 = u64 [a3 + 0x10]\n 41864: u64 [sp + 0x28] = a4\n 41867: a3 = u64 [a3 + 0x18]\n 41870: u64 [sp + 0x30] = a3\n 41873: s1 = u64 [a2]\n 41875: a3 = u64 [a2 + 0x8]\n 41878: u64 [sp] = a3\n 41880: a3 = u64 [a2 + 0x10]\n 41883: u64 [sp + 0x8] = a3\n 41886: a2 = u64 [a2 + 0x18]\n 41889: u64 [sp + 0x10] = a2\n 41892: jump [t0]\n      : @1537 (gas: 10)\n 41894: a4 = u64 [s1 + 0x98]\n 41898: a4 = a4 + a0\n 41901: a0 = a4 <u a0\n 41904: a5 = a2 + a0\n 41907: a2 = a5 <u a2\n 41910: a2 = a0 if a0 == 0\n 41913: a2 = a2 + a3\n 41916: a0 = a2 <u a3\n 41919: a0 = a0 + a1\n 41922: jump [t0]\n      : @1538 (gas: 8)\n 41924: a0 = a0 + s1\n 41927: u64 [a0 + 1272] = 0\n 41931: u64 [a0 + 1264] = 0\n 41935: u64 [a0 + 1256] = 0\n 41939: a2 = a0\n 41941: a0 = 0x4e487b7100000000\n 41951: a1 = 0x2000\n 41955: jump [t0]\n      : @1539 (gas: 7)\n 41957: u64 [s1 + 0x110] = a0\n 41961: u64 [s1 + 0x128] = a1\n 41965: a1 = u64 [s1 + 0x190]\n 41969: a2 = 0x80 - a1\n 41973: a0 = u64 [s1 + 0x150]\n 41977: a1 = u64 [s1 + 0x140]\n 41981: jump [t0]\n      : @1540 (gas: 4)\n 41983: a2 = a3 + a1\n 41986: a3 = a2 <u a3\n 41989: a3 = a1 if a1 == 0\n 41992: jump [t0]\n      : @1541 (gas: 10)\n 41994: a3 = u64 [s1 + 0x190]\n 41998: a0 = u64 [a3]\n 42000: a1 = u64 [a3 + 0x8]\n 42003: a2 = u64 [a3 + 0x10]\n 42006: a3 = u64 [a3 + 0x18]\n 42009: a0 = reverse a0\n 42011: a1 = reverse a1\n 42013: a2 = reverse a2\n 42015: a3 = reverse a3\n 42017: jump [t0]\n      : @1542 (gas: 5)\n 42019: a0 = sp + 0xffffffffffffffe0\n 42022: a2 = a0 & 0xffffffffffffffe0\n 42025: u64 [s1 + 0x198] = a2\n 42029: sp = a2\n 42031: jump [t0]\n      : @1543 (gas: 8)\n 42033: a2 = u64 [s1 + 0x128]\n 42037: a1 = a1 | a2\n 42040: a3 = u64 [s1 + 0x190]\n 42044: a4 = a3 <u 0x80\n 42048: u64 [s1 + 0x128] = a4\n 42052: a2 = u64 [s1 + 0x118]\n 42056: a1 = a2 if a4 == 0\n 42059: jump [t0]\n      : @1544 (gas: 8)\n 42061: a0 = u64 [a4 + 0x38]\n 42064: a1 = u64 [a4 + 0x40]\n 42067: a2 = u64 [a4 + 0x30]\n 42070: a3 = u64 [a4 + 0x28]\n 42073: a1 = a1 | a2\n 42076: a0 = a0 | a3\n 42079: a0 = a0 | a1\n 42082: jump [t0]\n      : @1545 (gas: 9)\n 42084: a0 = a0 & 0xffffffffffffffff\n 42087: a1 = a1 & 0xffffffffffffffff\n 42090: a2 = a2 & 0xffffffffffffffff\n 42093: a4 = u64 [s1 + 0x70]\n 42096: a3 = a3 & a4\n 42099: a4 = u64 [s1 + 0x190]\n 42103: a3 = a3 | a4\n 42106: a4 = s1 + 0x2918\n 42110: jump [t0]\n      : @1546 (gas: 12)\n 42112: a0 = u64 [sp + 0x18]\n 42115: a1 = u64 [sp + 0x10]\n 42118: a2 = u64 [sp + 0x8]\n 42121: a3 = u64 [sp]\n 42123: a4 = a2 | a0\n 42126: a5 = a3 | a1\n 42129: a5 = a5 | a4\n 42132: a5 = a5 >> 0x20\n 42135: a4 = a4 | a1\n 42138: a4 = a4 << 0x20\n 42141: a4 = a4 | a5\n 42144: jump [t0]\n      : @1547 (gas: 9)\n 42146: a0 = u64 [a3 + 0x18]\n 42149: a1 = u64 [a3 + 0x10]\n 42152: a2 = u64 [a3 + 0x8]\n 42155: a3 = u64 [a3]\n 42157: a5 = reverse a0\n 42159: a4 = reverse a1\n 42161: a0 = reverse a2\n 42163: a2 = reverse a3\n 42165: jump [t0]\n      : @1548 (gas: 5)\n 42167: sp = a0\n 42169: i32 a2 = a0 + 0\n 42171: a1 = 0x40\n 42174: a0 = u64 [s1 + 0xb8]\n 42178: jump [t0]\n      : @1549 (gas: 5)\n 42180: a0 = sp + 0xffffffffffffffe0\n 42183: a0 = a0 & 0xffffffffffffffe0\n 42186: u64 [s1 + 0x198] = a0\n 42190: sp = a0\n 42192: jump [t0]\n      : @1550 (gas: 8)\n 42194: a0 = sp + 0xffffffffffffffe0\n 42197: a0 = a0 & 0xffffffffffffffe0\n 42200: u64 [s1 + 0x168] = a0\n 42204: sp = a0\n 42206: i32 a2 = a0 + 0\n 42208: a1 = 0x40\n 42211: a0 = u64 [s1 + 0x180]\n 42215: jump [t0]\n      : @1551 (gas: 8)\n 42217: a0 = u64 [s1 + 0x198]\n 42221: a2 = u64 [s1 + 0x128]\n 42225: a0 = a0 | a2\n 42228: a2 = u64 [s1 + 0x110]\n 42232: a0 = a2 if a4 == 0\n 42235: t1 = u64 [s1 + 0x140]\n 42239: a3 = t1\n 42241: jump [t0]\n      : @1552 (gas: 7)\n 42243: u64 [s1 + 0x130] = a0\n 42247: u64 [s1 + 0x128] = a1\n 42251: a0 = u64 [s1 + 0x160]\n 42255: a2 = a0 + 0xffffffffffffff80\n 42258: a0 = u64 [s1 + 0x140]\n 42262: a1 = u64 [s1 + 0x138]\n 42266: jump [t0]\n      : @1553 (gas: 7)\n 42268: a4 = 0x100000000\n 42278: a0 = 0xffffffe0\n 42288: a0 = a1 <u a0\n 42291: a2 = u64 [a5 + 0x90]\n 42295: a0 = 0 if a2 != 0\n 42297: a0 = 0 if a3 != 0\n 42299: jump [t0]\n      : @1554 (gas: 7)\n 42301: a3 = u64 [s1 + 0x168]\n 42305: a0 = u64 [a3 + 0x18]\n 42308: a1 = u64 [a3 + 0x10]\n 42311: a2 = u64 [a3 + 0x8]\n 42314: a3 = u64 [a3]\n 42316: a0 = reverse a0\n 42318: jump [t0]\n      : @1555 (gas: 7)\n 42320: a0 = reverse a1\n 42322: u64 [s1 + 0x168] = a0\n 42326: a0 = reverse a2\n 42328: u64 [s1 + 0x160] = a0\n 42332: a0 = reverse a3\n 42334: u64 [s1 + 0x158] = a0\n 42338: jump [t0]\n      : @1556 (gas: 6)\n 42340: u64 [s1 + 0x128] = a1\n 42344: a1 = u64 [s1 + 0x198]\n 42348: a2 = 0x80 - a1\n 42352: a0 = u64 [s1 + 0x158]\n 42356: a1 = u64 [s1 + 0x150]\n 42360: jump [t0]\n      : @1557 (gas: 8)\n 42362: u64 [sp + 48] = 0\n 42365: u64 [sp + 40] = 0\n 42368: u64 [sp + 32] = 0\n 42371: a0 = 0x4e487b7100000000\n 42381: a1 = sp + 0x20\n 42384: u64 [sp + 0x38] = a0\n 42387: a0 = 0\n 42389: jump [t0]\n      : @1558 (gas: 9)\n 42391: a0 = u64 [a2 + 0x8]\n 42394: a1 = i32 [a2 + 0x10]\n 42397: a2 = u64 [a2]\n 42399: a0 = reverse a0\n 42401: a3 = a0 << 0x20\n 42404: a1 = reverse a1\n 42406: a1 = a1 >> 0x20\n 42409: a1 = a1 | a3\n 42412: jump [t0]\n      : @1559 (gas: 4)\n 42414: a0 = u64 [s1 + 0x198]\n 42418: a0 = i32 [a0]\n 42420: a1 = 0x23\n 42423: jump [t0]\n      : @1560 (gas: 10)\n 42425: sp = sp + 0xffffffffffffffc0\n 42428: u64 [sp + 0x38] = ra\n 42431: u64 [sp + 0x30] = s0\n 42434: u64 [sp + 0x28] = s1\n 42437: s0 = sp + 0x40\n 42440: sp = sp & 0xffffffffffffffe0\n 42443: s1 = a0\n 42445: i32 a0 = sp + 0\n 42447: a1 = 0x4\n 42450: jump [t0]\n      : @1561 (gas: 8)\n 42452: a3 = u64 [s1 + 0x188]\n 42456: a0 = u64 [a3 + 0x18]\n 42459: a1 = u64 [a3 + 0x10]\n 42462: a2 = u64 [a3 + 0x8]\n 42465: a3 = u64 [a3]\n 42467: a0 = reverse a0\n 42469: a4 = reverse a1\n 42471: jump [t0]\n      : @1562 (gas: 8)\n 42473: a0 = u64 [a3 + 0x18]\n 42476: a1 = u64 [a3 + 0x10]\n 42479: a2 = u64 [a3 + 0x8]\n 42482: a3 = u64 [a3]\n 42484: a0 = reverse a0\n 42486: u64 [s1 + 0x180] = a0\n 42490: a0 = reverse a1\n 42492: jump [t0]\n      : @1563 (gas: 6)\n 42494: u64 [s1 + 0x148] = a0\n 42498: u64 [s1 + 0x120] = a1\n 42502: a0 = u64 [s1 + 0x140]\n 42506: a1 = u64 [s1 + 0x138]\n 42510: a2 = u64 [s1 + 0x198]\n 42514: jump [t0]\n      : @1564 (gas: 6)\n 42516: u64 [s1 + 0x148] = a0\n 42520: u64 [s1 + 0x168] = a1\n 42524: a0 = u64 [s1 + 0x158]\n 42528: a1 = u64 [s1 + 0x150]\n 42532: a2 = u64 [s1 + 0x160]\n 42536: jump [t0]\n      : @1565 (gas: 6)\n 42538: sp = s0 + 0xffffffffffffffa0\n 42541: ra = u64 [sp + 0x58]\n 42544: s0 = u64 [sp + 0x50]\n 42547: s1 = u64 [sp + 0x48]\n 42550: sp = sp + 0x60\n 42553: jump [t0]\n      : @1566 (gas: 5)\n 42555: a0 = sp + 0xffffffffffffffe0\n 42558: a0 = a0 & 0xffffffffffffffe0\n 42561: u64 [s1 + 0x178] = a0\n 42565: sp = a0\n 42567: jump [t0]\n      : @1567 (gas: 5)\n 42569: a0 = sp + 0xffffffffffffffe0\n 42572: a0 = a0 & 0xffffffffffffffe0\n 42575: u64 [s1 + 0x170] = a0\n 42579: sp = a0\n 42581: jump [t0]\n      : @1568 (gas: 7)\n 42583: u64 [a1 + 1248] = 0\n 42587: u64 [a1 + 1240] = 0\n 42591: u64 [a1 + 1224] = 0x11\n 42596: a2 = a1\n 42598: a0 = 0x4\n 42601: a1 = 0x2000\n 42605: jump [t0]\n      : @1569 (gas: 4)\n 42607: i32 a0 = a0 + 0xfffffffffffff918\n 42611: a3 = s1 + a0\n 42614: a4 = a3 + 0x600\n 42618: jump [t0]\n      : @1570 (gas: 6)\n 42620: a0 = a0 <u a2\n 42623: a2 = a3 >u 0\n 42625: a2 = a0 if a3 == 0\n 42628: a0 = a3 | a3\n 42631: a2 = a1 if a0 != 0\n 42634: jump [t0]\n      : @1571 (gas: 6)\n 42636: a3 = u64 [s1 + 0x190]\n 42640: ra = u64 [s1 + 0x180]\n 42644: a2 = a3 | ra\n 42647: a2 = a2 <u 0x1\n 42650: a4 = u64 [s1 + 0x170]\n 42654: jump [t0]\n      : @1572 (gas: 4)\n 42656: a0 = 0x2118\n 42660: a3 = s1 + a0\n 42663: a4 = a3 + 0x600\n 42667: jump [t0]\n      : @1573 (gas: 4)\n 42669: a0 = 0x2918\n 42673: a3 = s1 + a0\n 42676: a4 = a3 + 0x300\n 42680: jump [t0]\n      : @1574 (gas: 6)\n 42682: u64 [s1 + 0x160] = a0\n 42686: u64 [s1 + 0x198] = a1\n 42690: a0 = u64 [s1 + 0x150]\n 42694: a1 = u64 [s1 + 0x140]\n 42698: a2 = u64 [s1 + 0x168]\n 42702: jump [t0]\n      : @1575 (gas: 9)\n 42704: sp = sp + 0xffffffffffffffc0\n 42707: u64 [sp + 0x38] = ra\n 42710: u64 [sp + 0x30] = s0\n 42713: u64 [sp + 0x28] = s1\n 42716: s0 = sp + 0x40\n 42719: sp = sp & 0xffffffffffffffe0\n 42722: s1 = a0\n 42724: i32 a0 = sp + 0\n 42726: jump [t0]\n      : @1576 (gas: 5)\n 42728: a0 = a2 ^ 0xff\n 42732: a0 = a0 | t1\n 42735: a1 = a3 | ra\n 42738: a0 = a0 | a1\n 42741: jump [t0]\n      : @1577 (gas: 8)\n 42743: a0 = u64 [a4 + 0x58]\n 42746: a1 = u64 [a4 + 0x60]\n 42749: a2 = u64 [a4 + 0x50]\n 42752: a3 = u64 [a4 + 0x48]\n 42755: a1 = a1 | a2\n 42758: a0 = a0 | a3\n 42761: a0 = a0 | a1\n 42764: jump [t0]\n      : @1578 (gas: 6)\n 42766: u64 [s1 + 0x118] = a0\n 42770: u64 [s1 + 0x110] = a1\n 42774: a2 = u64 [s1 + 0x168]\n 42778: a0 = a2 <u 0x80\n 42782: u64 [s1 + 0x138] = a0\n 42786: jump [t0]\n      : @1579 (gas: 10)\n 42788: a4 = s1 + 0x100\n 42792: u64 [a4 + 0x70] = a1\n 42795: a1 = u64 [a4 + 0x90]\n 42799: a2 = u64 [a4 + 0x88]\n 42803: a2 = a2 | a1\n 42806: a1 = u64 [a4 + 0x98]\n 42810: a3 = u64 [a4 + 0x80]\n 42814: a1 = a1 | a3\n 42817: a1 = a1 | a2\n 42820: jump [t0]\n      : @1580 (gas: 2)\n 42822: a3 = a2 & 0x40\n 42825: jump @1584 if a3 != 0\n      : @1581 (gas: 1)\n 42828: jump @1583 if a2 == 0\n      : @1582 (gas: 6)\n 42831: i32 a3 = 0x40 - a2\n 42834: a3 = a1 << a3\n 42837: a1 = a1 >> a2\n 42840: a0 = a0 >> a2\n 42843: a0 = a0 | a3\n 42846: ret\n      : @1583 (gas: 1)\n 42848: ret\n      : @1584 (gas: 4)\n 42850: a0 = a2 + 0xffffffffffffffc0\n 42853: a0 = a1 >> a0\n 42856: a1 = 0\n 42858: ret\n      : @1585 (gas: 2)\n 42860: a3 = a2 & 0x40\n 42863: jump @1589 if a3 != 0\n      : @1586 (gas: 1)\n 42866: jump @1588 if a2 == 0\n      : @1587 (gas: 6)\n 42869: i32 a3 = 0x40 - a2\n 42872: a3 = a0 >> a3\n 42875: a0 = a0 << a2\n 42878: a1 = a1 << a2\n 42881: a1 = a1 | a3\n 42884: ret\n      : @1588 (gas: 1)\n 42886: ret\n      : @1589 (gas: 4)\n 42888: a1 = a2 + 0xffffffffffffffc0\n 42891: a1 = a0 << a1\n 42894: a0 = 0\n 42896: ret\n","bytecode":{"object":"50564d000092c5000000000000010700c1c001c0008003816cf40443b2a766a42db9815a1e2efa877e5c0519ec4fe51c83c442ba392fca77e2116ca4777b81d4ea98e10c16c565173f400507b7679bbdc6b249bd00a16076687a96c0a237ac310730ce86cab6918a9cee1f20395b3b80e1e34a4eb67d08a74e0dc354af37bd04b03f2522518a6d9314cf35a01b6f25119782e62a75888f78d1b417406592b5dbd6886d772784123ca0859bbddc544b79277c562e79691cb8290000e8890423c78affffe7890423c78a00001876fbdc3875975752f4e33b24c3dceff4c6a46dc4173eb68630b623f1b6b5ef1d0584397d33527c373f8a8f13d8dec2e4708e54ca59a13610a1f529f1946a422bba3c51695be6d8186647f5847091063f7d0def110bff283e79b8ad5546d505d5764c8d017f0000e8890423c78a00001876fbdc3875f2a8b439f25bd8ebdf119a7090238fa225717e85c68e190f0982ba0d5cabfde394247a18b5e26bbe1d817609543b3c0451c960f58acf6b97ba06c2c9ba61c0412000000004811b11000000000400000012000000200000002e0000003400000041000000530000005e0000006d000000700000007d0000008d0000009d000000a8000000ba000000c500000063616c6c63616c6c5f646174615f636f707963616c6c5f646174615f6c6f616463616c6c5f646174615f73697a6563616c6c65726465706f7369745f6576656e746765745f696d6d757461626c655f646174616765745f73746f72616765686173685f6b656363616b5f3235366e6f777265665f74696d655f6c65667472657475726e5f646174615f636f707972657475726e5f646174615f73697a657365616c5f72657475726e7365745f696d6d757461626c655f646174617365745f73746f7261676576616c75655f7472616e73666572726564051302c0b29d0463616c6cc0bb9d066465706c6f7906c0d5c2832502c092a7da00220266031c04b104b9048b05930592069706180723073e078f079a0704082d0841086d088208c108e60884098a09be09400a4a0a500a840abc0a1f0b4b0b590b650b7c0b960bb70bbd0bd80bf50bfb0b400c4a0c530ccf0ce90cf90cff0c380d440d5e0d930da70db10d330e390e3f0e4b0e620e800ee10ee90e080f570f5e0fac0f5e106c10e110ee100911431159116411ed11f411fb1108121e12461264126b128b12d91247137c13b313da131e1433149e14b614f514441591159f15cb15f9151116301653165a16761694169b16d716f81611178e17ac17be17c517ff170c18221858186e187918d71804192b19651a6c1a731a911a981aa71aff1a061b0d1b301b5c1b781b811bb41bbd1bdd1b241c2f1c381c581c8b1caa1cbc1cc71cfa1c291d481d5a1d651d6f1d871dde1d4d1ea11eae1edd1eec1ef91ea120ab20c820ec20f32044214b2158219021e621e622ed22f4221223192328237c238323ec230624fd24182536255925ee2509262826752604280e2814283a284428642888288e28d028d628e3281129c929d6291d2a572a882a9d2aa72a052b3b2b412b7c2b242c2d2c4d2c8f2c952cc02cf02cf92c2a2d482d8a2d932d082e3a2e802eed2e5b2fbf2fc52fcb2feb2f1d3082309630c230c830e230e830ee30f43028312e31173283328932ad32d9320633633369338d33b933f33304340e343034b634bc34dd340935273534353a355e359935b735c835d2351f36583697369d36c136ed360b371c37263762379e37bc37c937cf37f3372e384c385d3867387538973834396939d839fc39553a693ad83a393b4e3b583b3b3c803c923c093da13d1f3e4b3e513e6b3e713e773e7d3eb13eb73ea03ff43f7940d5404f418541b6411e427e42c7425343be4308445344684472449244b644f7440145174547457d45e24503461d463f464d467846ca4622476c47b947e7475a483e4ad64aea4a1d4b264b434ba84bc14b224c654c734ce94c5e4d704d804d084e314e5d4e8b4ef44efa4e054f10504a509351d951f1511752815207537a539553bb534a5464548f54ac54ea54f75429556e5583558d55aa55b355d355d95509560f561856315655565f5675569356a056a95605577757f657805895589f5829593659f459655a8b5ab35ad95a585b9d5b815c945c9e5c0d5d365d495d535d645de85d335e3c5e5c5ea55ed05e005f065f0c5f745f7a5f805fc75fd45f13601c60bd60c3601c6153618a61f56136623c6242625d6281629c62c862d262f262fb621b63436364636e63a263d963f763086412643664406465645965636569656f6575657b658165a365a965cf65d565db65e165eb65f165f765016607660d66136626666c6608672c675867626782678b67ab67e8671568436877689968aa68b468d868e26807695f69696989699269b269d469db69f669ff691f6a546a766ac86ae16a116b736b7d6b9a6ba36bc36be16bee6bf46b146c476c656c726c786c816ca76cbc6c0a6d186d676d8d6dab6df26dfc6d1e6e406e726e986efb6e106f1a6f376f406f606f666f886f8f6faf6fc86fec6f307045704f70c470da7016712071387141715d717b7188718e71aa71d871f67107721172207240727772ab72b172ce72f0723d737873b07363746d74737479747f7485748b74ad74b374d974df74e574eb74f574fb7401750b75117517751d7530757675bf75e575427657766176ef760b7742778177e97715786a7874789a7858799e79b879d579f779887aa27ac07a0c7bee7c207d507d717d7b7d997dd87d2c7e5e7e7c7e897e8f7ec27e027f207f317f3b7f677fac7fdc7f148032805080578072809280c380e180ee80f480148141815f8170817a81848107826382e182348361838383ed832d844f8460846a849884268589851786448662866f867586b886f4861287198746877b87bb87d987ea87f48703889088fc884a897689d689dc89fe89198a1f8a2f8a358a3e8a598a5f8a6c8a728a7b8a908a008b088b0f8b278b4b8b138c4a8c648c888cb38dca8de38d018e808e968eb08ef38e6d908c90d190d79001912e914c9159915f916a91aa91c991e7913092629280928d929392b492e192ff920c9312931d9362938993a893cf932f948e949d94bf94eb94019520952e9544956d9510962a965996609654977e97cd9714985e989398ad98d69859999899579a7a9ad79ade9af69a1a9b339c5d9cb09cf79c359d8d9dbb9dc59daa876e978a2098aa20977b2098bb20c89b0bc9ba0a979b019abbaeab20ae873751094ec87909647a017c8b95880195ac0178ab64caab9cf42836510934c87909647a017c8b95880195ac0178ab64caab9cf4281c51091a839aff01c8a80b7cbb9599ffc8a70c78cb83aaff5209f032009511e87b10107b15087b163306680102390568010251051c3307a00103837783680a060139076801022003680102ac5710821010821508821695111832000039086801025108b0073307a0010383770a0e28a3079511f07b10087b156489647533082064975010026e057c78017c797c7a027c7b03978808d4980897aa1097bb18d4ba0ad4a8087c79057c7a047c7b067c7c07979908d4a90997bb1097cc18d4cb0bd4b909979920d489027c79097c7a087c7b0a7c7c0b979908d4a90997bb1097cc18d4cb0bd4b9097c7a0d7c7b0c7c7c0e7c780f97aa08d4ba0a97cc10978818d4c808d4a808978820d498037c78117c7a107c7b127c7c13978808d4a80897bb1097cc18d4cb0bd4b8087c7a157c7b147c7c167c791797aa08d4ba0a97cc10979918d4c909d4a909979920d4890a7c78197c79187c7b1a7c7c1b978808d4980897bb1097cc18d4cb0bd4b8087c791d7c7b1c7c7c1e7c771f979908d4b90997cc10977718d4c707d49707977720d487076f776fa86f396f2a7b5a187b59107b58087b57821008821595111032009511d87b10207b15187b161082897b19088289087b1982851082861833082050100426046f686f59821a6faa821b086fbb787b18787a10787908787898bc38787c1f98bc30787c1e98bc28787c1d98bc20787c1c98bc18787c1b98bc10787c1a98bb08787b1998ab38787b1798ab30787b1698ab28787b1598ab20787b1498ab18787b1398ab10787b1298aa08787a11989a38787a0f989a30787a0e989a28787a0d989a20787a0c989a18787a0b989a10787a0a98990878790998893878790798893078790698892878790598892078790498891878790398891078790298880878780182102082151882161095112832009511a07b10587b15507b16489515608411e06476828718828910828a0882886f776f996faa6f887b18187b1a107b19087b17491138491130491128491120481140208318831a20831b403309ff33070a07821738821830821928821a206f776f886f996faa7b6a187b69107b68087b67501206caa20032009511a07b10587b15509515608411e08272827a08827b108277188283828908828c108288186f746fbb6faa6f276f826fcc6f996f387b17187b1a107b1b087b147b18387b19307b1c287b12208318831a203309ff330b2033070a0f9551a08210588215509511603200951160ff7b1098007b1590007b1688009515a0008411e082ab7b1b3882ab087b1b3082ab107b1b2882aa187b1a20829a7b1a18829a087b1a10829a107b1a088299187b1964865010082c0282186f888219086f99821a106faa821b186fbb7b1b587b1a507b19487b18408218206f888219286f99821a306faa821b386fbb7b1b787b1a707b19687b18608379836a8317403308020a05955160ff8210980082159000821688009511a0003200951120ff7b10d8007b15d0007b16c8009515e0008411e082bc7b1c4082bc087b1c4882bc107b1c5082bb187b1b5850120acf9e007b183850100c8f016f687b187882186f887b18708218086f887b18688218106f887b18608218186f887b1898008218206f887b1890008218286f887b1888008218306f887b1880008218406f887b18b8008218486f887b18b0008218506f887b18a8008218586f887b18a0008379811a388317603308030a05955120ff8210d8008215d0008216c8009511e00032009511e0fe7b1018017b1510017b160801951520018411e082c67b166082c6087b166882c6107b167082cc187b1c7882bc7b1c3882bc087b1c4082bc107b1c4882bb187b1b5050120ef59d007b1858501010b5006f687b18980082186f887b1890008218086f887b1888008218106f887b1880008218186f887b18b8008218206f887b18b0008218286f887b18a8008218306f887b18a0008218386f887b18d8008218406f887b18d0008218486f887b18c8008218506f887b18c0008218606f887b18f8008218686f887b18f0008218706f887b18e8008218786f887b18e0008379811a58831780003308040a059551e0fe8210180182151001821608019511200132008b7910520931c8780883881f8488e05638000001253309700102390a700102ae8a093d087001020133088001028377c887073200009511f07b10087b158475010a03013d076c010251050750101209501014f001951100ff7b10f8007b15f0007b16e800951500018411e04921d8004921d0004921c8004921c0008317c0000a10018217d0008218d8008219c800821ac000d49808d4a707d487075207e10039066c010297672098772095771f8477e09578a000d878077b18a0007b17a80094777b17b0003307409518a0004921b800501016ebfa3307a000646850101825ff8377646833090a010154161fa000951780003308a00050101a8bf9821790008219980014080000000001000000d37808d49808987a2088aa01949a938a510a7982188000821a8800d4780bd49a0cd4cb0b510b727b18607b1a687b1770330780009518607b197850101c74fa95174033084050101e2ff9821758821850821948821640d49707d48609d47909989920d48707977720d49707510769003308800102838833070128b1003308800102838833070128a400330880010283883307012897004911104911084901140700000000c8f5bc1464187b17183307501020fff9390870010256181f0b20037001022001330880010283883307013309040a0d01646733085010221bfe8377330833090a019517203308800050102488f8821738821930821a28821b203e07b801033e09b001033e0aa801033e0ba00103284ef864673308501026dbfd8378330733093300280a0d280a33093300280a0d01951110fe7b10e8017b15e0017b16d8019515f0019511f0d18411e0641695691821492900064929f8054929e8058000330740956800274929f00550102a42f933076c01027b67980139076c0102551704072859649567002083772007330833002c0a020195691821819724065247871cb2880a28e01151476cd3238f13055247346662990a280b225247e1ac83b60a28a91551472d16dfba00015247b00de3d00a28a81e51475f53cc0ea108524786e72a220a28211a51474d7d1a2ef5015147f50796376c0c5247b836cc480a28950f5147aef7914a0a283326956718294927200249271802492710024927080295670030837720fb33002e0a10330230289a990050123096990082b71882b82082b91082ba08d49808d4a707d4870751070628c64f8267980181775617030728ca4f956760103308405010320bf7956aff0795aa190195ac000782cb6082c85882c95082c748d49b0bd48709d4b909989920d4b808978820d4980851080628794f3a08a00002492a4007492a38077ba8280795684010492a30077b67980133003e28edf7956718294927400649273806492730064927280695670030837740ff3300340a103307003033023628339c00330700305012362b9c00501238039a0051070628374f82679801817756170307283b4f95671829492760064927580649275006492748069567a0259568602f50103a71f895681821958900048297a000956800017b879800829798007b879000829790007b878800829788007b8780009567802533084050103c0df6956a182195ac000482c7800082c87882c97082cb68d49707d48b09d47909989920d48707977720d49707510706287e4e956900018297800095ac00047bc748829788007bc750829790007bc75895686025829798007bc76064b77b9b980050103ee4f633082082679801330074032819fb4929400749293807492930074929280795670030837740f83300400a1001956a182195ab0007501242fa980051070628504e5012444f9a00ac780628554e95670030837760f83308043300460a020195671821957c000782c86082c95882ca5082cb485012480a970052070628354e33078001037b67800183777b67680133004a0a0433024c2876930050124c729300492658057b6850057b674805956840057b6a4005330750104e2bf64926380549263005492620050133072095682005492628055010500ef6501252549a003309700102390770010256173f0b200370010240017b6940019517e08479e07b69600164913307800102837783993308407b6748013300540a08826a600133025628959300826a60015012568d930095670005501058a2f6826318058264100582620805826a000582679801d3730bd8730c82687801d884077b675801dab70c82679001d37200d87207826988017b6a6001d89a097b695001da09076480d38408d4b808da870c510c06286e4dc9040882699801c99309826a5801c9a909d8780ac9a909c9780882679001c9720750125a7696007bca687bc7707bc8787bc98000956880288267700150105c84f68267680133005e0a04330260285494005012605094007b69d80482b9787b69d00482b990007b69c80482b988007b69c0044926f8047b68f0047b67e8049567e0049568c0047b6ae004501062e88d009567a00433084050106485f3956b000482b7b80082b8b00082b9a80082baa0005012664a930051070628064c826788017b678004826790017b678804826778017b67900495688004826798017b67980464a77b6a980150106870f48267680133006a0a048269800133026c28e190008269800150126cd99000d4780298aa206f99979820d4a808989920492658043a0af800023a0b0001023a0c0801023a071001027b6a7804956a00047bab707bac687ba7607ba9507ba84833082095696004956a40047b624004826798013300ee0028c9f5956718294927800249277802492770024927680295670030837780fb33006e0a1033027028eb9400501270e79400501272ee940051070628f84b501274699700ac780628fd4b956700308377a0fb3308043300760a020195671829957c000282c8a00082c9980082ca900082cb880050127820940052070628d94b33078001037b67700183777b6740010a048269700182970881981082996f77977a206f88988820d48a0a9877206f98978920d49707988820956918114929a002959b00027bb898007bb790009568a0137bba8800330750107a22f333027c9568181101492880024928780249286802016489330720956880134929700250107efbf29517e08477e07b67800164713309700102390770010256173f0b200370010240017b6938019517e08479e07b69680164913307800102837783993308407b674801330080000a083302820028ea950050228200e695006f8c6f996fa2826b80017bb2187bb9107bbc087bb7951be084b8e06481957b02d87b07c87c0ad8ca0cda770cc89c0cd89c07c827077b8c107b8a087b8b7b8718956760137b686801502084004af395671811827360028274580282725002827a480282679801d3730bd8730c82687801d884077b675801dab70c82679001d37200d87207826988017b6a6001d89a097b695001da09076480d38408d4b808da870c510c0628a84ac9040882699801c99309826a5801c9a909d8780ac9a909c9780882679001c97207826a5001c9a707826a6001826b8801c9ba0a956b182995bc00027bcaa8007bc7b0007bc8b8007bc9c0009568c02b826768015020860010f39567401382688001502088008af295691811959b000282b73082b8288292400282ba38826b9001c87b0b826c8801c88c0cd88c08c88b0bd37b09d87b07da980782687801c8a80882699801c89202d8a809c82909c88707d88708c8980895691829959a00027bacc8007babd0007ba7d8007ba8e0009568e02b8267800150208a008df29567201333084050208c00dcef956b181195bc000282c72082c81882c91082ca0850228e00a08f00510706285b488267880195b800017b87e800826790017b87f000826778017b87f80095680013826798017bb7000264a77b6a980150209000c1f082674001330092000a048269700133029400282f8d008269700150229400278d00d4780298aa206f99979820d4a8089899203a0a800002956718117b7ae0013a0a8800023a0b9000023a0c9800027b7ad801957a00017babd0004927c0017bacc8007ba9b8007ba8b0003308209569e012956ac0127b72a801826798013300ee00280df2492980064929780649297006492968069567002083778007330096000a103302980028b7940050229800b3940050229a0033910051070628f04850229c00ad9300ac780628f4489567a00333009e0033028805289f93008267a0038268a8038069b003492698037b6990037b688803956880037b67800333075020a000beef4926780349267003492660030133072095686003492668035020a200a0ef5022a400d79300390870010256183f143308403d087001023302a60028a391005022a6009f91003307800102837783993308400a08826a980182a71882a81082a90882aa6f7c7b6c88016f8b7b6b90016f997b6980016fa77b679801826878017b87187b89107b8b087b8c956740035020a8001df0826758037b677801826750037b677001826748037b676801826740037b6760018267880195770188780182699001c8980895691821959a00067ba89000d478087ba7880088870182688001c887077ba79800d8870782689801c887077ba7a000956720039568a0275020aa00afef826738037b675801826730037b675001826728037b674801826720037b67400182688801958702d88708826a90015022ac008a900082688001c88a0ad88a08826b9801c8b808956b182195bc00067bc8c0007bcab8007bc9b0007bc7a800956700039568c0275020ae0043ef956c000382c7187b67380182c7107b67300182688801958703d88708826a90015022b0002c900082c8087b68880182688001c88a0ad88a08826b9801c8b80882cb7b6b8001956b182195bc00067bc8e0007bcad8007bc9d0007bc7c8009567e0029568e0275020b200d8ee8267e0027b6728019567c0023308405020b40097ec95670002827bd800827cd000827ac8008279c000d4ba07d4c908d47808988820d4c707977720d48707510706280845826760017b67a002826768017b67a802826770017b67b0029568a002826778017b67b80264977b6998017b6a90017b6b78017b6c70015020b60066ed956c000182c8980082c77882ca70d47a0a5022b8006d900052070628ae4483872082684001956c00027bc88000826848017bc88800826850017bc8900095688002826958017bc998007b6a78017b6b70015020ba000fed95690001829b78829a9000829898008297709577c0d8780794a794b752070628534483874082688001956a00027ba860826888017ba868826830017ba87095686002826938017ba9785020bc00c0ec956a000182a998001407a0ffffff00000000d8790782a89000948782a87894875207062800448267280197772098782083976049265802492650027b68400295684002492648025020be0073ec33088000826798015020c000aaf083783309800033070a0d283e4a4929a007492998074929900749298807956700308377a0f83300c2000a1001956a182195ab000782b7980082b8a00082b9900082ba8800d49808d4a707d487075107062821455022c400bc8f00ac7806282545956700308377c0f83308043300c6000a020195671821957c000782c8c00082c9b80082cab00082cba8005022c800718c0052070628ff4433078001037b67800183777b6768013300ca000a043302cc0028da88005022cc00d688004926b8067b68b0067b67a8069568a0067b6aa00633075020ce008eeb4926980649269006492680060133072095688006492688065020d00070eb5022d200b58f003309700102390770010256173f0b200370010240017b6940019517e08479e07b69600164913307800102837783993308407b6748013300d4000a0801826a600182a782a80882a91082aa186f776f886f996faa95ab025022d6009a8900826870017b8b7b8c087b89107b8718956760065020d800e5eb826378068264700682626806826a600682679801d3730bd8730c82687801d884077b675801dab70c82679001d37200d87207826988017b6a6001d89a097b695001da09076480d38408d4b808da870c510c06281444c9040882699801c99309826a5801c9a909d8780ac9a909c9780882679001c972075022da00b88b007bcac8007bc7d0007bc8d8007bc9e0009568e028826770015020dc00c2eb826768013300de000a043302e000288f89005022e0008b89007b69380682b9787b69300682b990007b69280682b988007b692006492658067b6850067b67480695674006956820067b6a40065020e200228300956700063308405020e400bee8956b000682b71882b81082b90882ba5022e600878800510706284241826788017b67e005826790017b67e805826778017b67f0059568e005826798017b67f80564a77b6a98015020e800ace9826768013300ea000a04826980013302ec00281a8600826980015022ec00128600d4780298aa206f99979820d4a8089899204926b8053a0ad800023a0be000023a0ce800023a07f000027b6ad805956a00057babd0007bacc8007ba7c0007ba9b0007ba8a8003308209569c005956aa0057b62a005826798015020ee0000eb33078268480133090a0d286554956718294927800049177849177049176895670030837780f93300f0000a1001956a182982a77882a8800082a97082aa68d49808d4a707d48707510706289b425022f2008a8c00ac7806289f42956700308377a0f93308040a0201956a182982a7a00082a8980082a99000d48707889801947852080628844282a788007b672001956700308377c0f90a0901956718298274c000827ab8007b6a50018272b0008270a800684768a8958940db470968276808958840db270895878000d44a0adaa709d8870c94ac8ecb8897f000857a01daca0b88b7019577ff9ab89accc9ac0a9a93ef007b6898018e8c8e78da7c08883c000185cc018ea9dba90cdbb80c7b6440017b625801d4420882645001d44009d49808888801d4c808640b948b5108062856188538ff00826c9801d4c808d47a09d49808520806283f1864029539017b699001889801c8a8087b688001d49808888801c8c8087b687001d8c808c887077b6778019a38ff007b6868019a89800064077b624801826858015020f400e88c005022f600558c005020f800008d007b6730017b6828018267680195798082674801826858015020fa00e28c005022fc007d8c0082674801826858015020fe00cc8c00826b380182627001826c780182698001d49c0c826a9001d42a0ad4ca0a93b77b678801510a0628c315330b287d17956718294927600249275802492750024927480295670030837760fb330000010a1033020201281f8800502202011b880050220401f18b0051070628df408267980181775617630728e340956760123300060133028805288d8a0095681811828748017b679801828750017b679001808758017b677801956740123300080133028c0528788b0095671811827728017b6780019567201233000a0133029205285c8b0033020c01956918110182970801956a00017ba788004929000182a7787b97f80082a790007b97f0009568001282a798007b97e800330750200e0150e63302100195681811014928e0004928d8004928c8000464893307209568e0114929d0005020120127e63308700102390770010256173f0b200370010240019517e08479e07b69780164913307800102837783997b6898013308407b679001330014010a08826a78013302160128868500826a7801502216017e85003302180195691811014929c0004929b8004929b0009568c011826780017b97a800330750201a01ace582676001956818117b87a000826768017b879800826770017b879000648a3307209568a011826978017ba9880050201c0179e582689801818756173f08480840019517e08477e07b67800150221e017c8100330020010a08826a80013302220128ee8400826a800150222201e684009517e08477e07b6780016471826788019777209877209569181149298000491978491970956880117b97683307502024010ae582676001956818117b8760826768017b8758826770017b8750648a33072095686011826978017ba94850202601dbe482689801818755174008480840019517e08477e07b67980150222801de800033002a010a08826a980133022c0128208500826a980150222c011885009567401150202e0187e5956718118277287b679801956720113308405020300143e39569181101829220829c18829b10829708d42b0ad4c708d4a808988820d4ca0a97aa20d4a80851080628b73b7c6898018e8849094919f87b98e8956800114919f07b6790017b6b88017b6280017b6c78015020320126e4956b000182ba880082b9900082b7800082b878d47808140b00000000010000001407e0ffffff00000000d8790794a7948752070628553b7b68800182689801848700ff008e788397209569ff07959919014929e0074929d8077b98c8079568e0104929d0077b6b780150203401b7e3956a000182a9900082a7789577c0d8790782a88800948782a88000948752070628fa3a8268980184870000ff008e78839740956aff0795aa1901492ac007492ab8077ba8a8079568c010492ab0075020360163e333086082679001502038019be7837833096033070a0d283041956718294927600449275804492750044927480495670030837760fd33003a010a1001956a182995ab000450223c0112880051070628223d50223e01bc8600ac780628263d95670030837780fd3308040a0201956a182995a7000482788000827978827b70d4890c88b70194c752070628093d7b6c980082ac680482679801807295c723d8c70ac8ab037b6bd800d8b30bdaaa0bc89b0b7b698801d89b097b689001c88909d4b909d827079437949752070628d83c83c804956700308377a0fd7b6cd0000a0201956918298297a00482929804829090047b67f000d47207880801947852080628b53c829388048268d000958724d887098264d800c8940ac837087b6880017b672001d8780bc80a07c8b707d3a70cd8a708dacb08d84a0ada990a82698801c89a0ad89a09826cf000826b9001c8cb0bc8b909c82a0bd8ab0ac8a909826a980180aac8b808d8b80bc8b909826b8001d8ba0a887b0185aa01db7b0a889701888b01db970bd49808db8b0a520a0628393c9537fd7b63c000d83708c880099599ffd3090a7b60b000d8090bdaa80b9528ffc88b0bd88b087b62b800882a01c9ac0ac8a8088eba8e8cda8a0cd4b8088e9a887762857701db9a07db8c0751070628fd3d33078001037b67e80083777b67c800330040010a048269e80033024201284b7e8269e80050224201447e49292004959b00047bb8187bb710956820257bba083307502044013ce195681821492800044928f8034928e803036489330720956800254929f0035020460118e150224801d883003309700102390770010256173f0b200370010240017b69a8001407ffffffff000000007b67e0009517e08479e07b69900164913307800102837783993308407b67a00033004a010a0833024c01283a800050224c013680008377e004c8670750204e019ee1956718218077c8038268e000ab870628103b9578017b6800018887017b67f800d487078877017b6708019567c024826898015020500166e1956a182180a7ac0395ab000382b8b80097772082b9b00082bac000826b0801d4b808826b0001d4b707826bf800d4b909956b182995bc00047bcac0007bc9b0007bc7a8007bc8b8009568c02d826798015020520188e1956700308377e0fd0a0901956718298274e004827ad8047b6a50018273d0048270c804684768a8958940db470968376808958840db370895878000d44a0adaa709d8870c94ac8ecb8897f000857a01daca0b88b7019577ff9ab89accc9ac0a9a92ef007b6898018e8c8e78da7c08882c000185cc018ea9dba90cdbb80c7b644001d44308643482635001d43009d49808888801d4c8087b605801640b948b510806285c1d8528ff00826c9801d4c808d47a09d4980852080628451d9529017b699001889801c8a8087b688001d49808888801c8c8087b687001d8c808c887077b6778019a28ff007b6868019a8980008267580164487b6448015020540167840050225601d48300502058017f84007b6730017b68280182676801957980826758018268480150205a0161840050225c01fc8300826758018268480150205e014b8400826b380182627001826c780182698001d49c0c826a9001d42a0ad4ca0a93b77b678801510a0628cb1a330b28851c492900074929f8064929f0064929e80695670030837700f8330060010a1033026201282883005022620124830082b7f80082a8000782b9f00082bae800d49808d4a707d487075107062811398267980181775617030728153995670030837720f80a099567182195790007829820956a00017ba8588298187ba8508298107ba898008297087ba790009567e00333084050206401dedc956b000382b7f80082b8f00082b9e80082bae00050226601a27c510706285e357b6a1801826350016837957740826058016809da0709826490016847957740826298016828da270895878000d4030adaa709d8870c94ac8ecb8897f000857a01daca0b88b7019577ff9ab89accc9ac0a9a99ef007b6878018e8c8e78da7c088eac7b69680188990001859901dbac09dbb809d43408d4020bd4b808888801d49808644b948b51080628153b826868018588ff0082697801d49808d47a09d4980852080628fa3a826b680195b9017b698801889801c8a8087b688001d49808888801826a7801c8a8087b687001d8a808c887077b6778019ab8ff007b6840019a8980008267900182689801502068015082007b6730017b68480182675001826858018269400150206a015b82007b6728017b68200182674001957980826790018268980150206c013d82007b6710017b68080182694001889780007b673801826790018268980150206e011a8200956b00017bb86082b8800082b978d4890982b8880082ba70d4a808d4980882ba3893a77bb76852080628133a64a98267480182682001d4870764ac82680801da980782695801649a649882694001db970a7b6a480182673001826a2801d4a707826a1001daca07826b500164badb970a7b6a40018267600193c77b676001492630018051018267880195798064b7502070015f81007b6738017b682001826790018268980182698801502072014481007b6710017b682801826888019a8980008267500182685801502074014b810082692801d4980882698801889a80007b6a2801826b2001daab08826b9801db980b7b6b980182681001d4870782683801daa80782689001db97087b689001826750018268580150207601d8800082649001826398014926580149265001956b000182b928939893977bb73882ba3095a9ff7bb9288ea99599ff7bb9200198493f973a01d4a909974a0182644801984b3fd4ba0a7b6a9801826020016437d39003d89002826b2801d8ab0cdb320c978801826b380198ba3fd4a8087b689001987a3f97b701d47a0a974701826b400198b83fd4870297b801826b600198b33fd4380397b801826b680198b43fd4480897bb0182675801d47b0b7b6b680182675001d478087b686001d437087b684001d427077b674801c9a007d8c707d8a008826c9001c9c00bc98b0bc97b0b99b03f82673001d2700782689801c97804d87808c989039498c98a077b673801d88a08c98c0895670001827a8800827c8000d4ca09889901827b70d89b02c99b0988ab01c9bc0c827b78c92b0b95aaff7b7c80007b7b78d4bc027b7a8800d49a0bd42b0a840b017b7b587b797049265001520ae1fe28d2378267980181775617030728fd34956718294927800649277806492770064927680695670030837780330078010a103307003033027a01286e7e3307003050227a01677e50227c01197b52070628cc3433078001037b67800183777b67580133007e010a04826980013302800128b2768269800150228001ab764929e005959b00057bb8d8007bb7d0009568e0267bbac800330750208201a0d9956818214928c0054928b8054928a8050164893307209568c0264929b005502084017cd9502286013c7c3309700102390770010256173f0b200370010240017b6950019517e08479e07b69900164913307800102837783993308407b676001330088010a0833028a0128ad7850228a01aa788377a006c8670750208c0113da95671821957900058298a0007b687001829898007b689001829888007b686801829790007b67880150228e01307d956718294927a006492798064927900649278806956700308377a00a100195671829957a000682a9900082a888008272a00682ab9800826c8801c89c0c82676801c87803d88308c88c0cd39c0ad89c09daa80982689001c8b80882607001c80202d8b80ac82a0ac88909d88908c88a04826a8801d3ca08d8ac0bd87307db8b07826a9001d8a902d3400bd80408dab208d39a0ad4ba0adba807826878017b837b8c087b89107b84185107062870338267980150209001a5d99567802633084050209201f4d69567182195790005829880007b6890018298787b6888018298707b6878018297687b679801956718294927c0064927b8064927b0064927a806956700308377c0330094010a1001956a000182a7900082a878d4870782a89800648c82a98800d49808d47808988820d49707977720d48707510706281d2f33070030502296011e7c82b7a80082b8b00082b9b80082bac000956b18217bba600595ba00057ba9587ba850956860267ba74864c7502098017cd78267580133009a010a048269800133029c0128ea738269800150229c01e373d4780298aa206f99979820d4a8089899203a0a000002956718217b7a40053a0a0800023a0b1000023a0c1800027b7a3805957a00057bab30492720057bac287ba9187ba81033082095694026956a20267b7208058267980150209e01d2d833078268600133090a0d28374295671829492700034927f8024927f0024927e80295670030837700fc3300a0010a103302a20128e2775022a201df7782b7f80082a8000382b9f00082bae800d49808d4a707d4870751070628263282679801817756174307282a32956700173300a4013302880528407a95671811957900058298f8007b6868018298f0007b6898018297e8007b67900195670030837720fc3308240a020195671829957c000382cb2082ca1882c91082c808956c00017bc980007bcb70d4b9077bc88800d4a808d478089888207bca78d4a707977720d4870751070628bd31956a000182a768977720987720956918114929e00582a89000959b00057bb8c80082a898007bb8d0009568e0167bb7d80033075020a601e0d53302a80195681811014928c0054928b8054928a8050264893307209568c0164929b0055020aa01b7d53308700102390770010256173f0b200370010240019517e08479e07b6968016491330780010283777b68980183993308407b6790013300ac010a083302ae0128b1785022ae01ae787b6760016f877b6758016f977b6750016fa77b6748019517e08477e07b67680164713302b001956918110182677001959a00057ba7a000826778017ba79800826780017ba790009568a016826788017ba7880033075020b20114d53302b401956818110182674801958900057b978000826750017b9778826758017b9770648a33072095688016826960017ba968055020b601dad482689801818756173f08480840019517e08477e07b6788015022b801dd700a08826a880182a71882a81082a90882aa6f7c7b6cd8006f8b7b6be0006f997b69f0006fa77b67e800826868017b87187b89107b8b087b8c956760165020ba016cd53302bc019568181101958900058297587b67c8008297507b67c0008297487b67d0009517e0847be07b6b880164b18268d8009588018887018269e000c87909d49807887701826cf000c87c0ad8ca07826ce800c8c7077b6780017bb7187b6a68017bba107b6970017bb9087b6878017bb8956740163308405020be01c2d295671811957900058298407b6810018298387b68f8008298307b6800018298287b68080195672016826888015020c001bcd4956a181195ac000582c72082c81882c91082cb087b67600195ac00047bc7e0007b6830017bc8d8007b6928017bc9d000956700169568e0157b6b88017bcbc8005020c201165c826af800956b000182b81082b70882b9d48909d4a708d49808988820d4a909979920d4980851080628bf2a956c181182c2000582c3f80495ca000482a8f00082a9e8007b6940017ba9a8007b6850017ba8b0007b6348017bc3b8049568c0157b6258017bc2c0045020c40117d3826bf80082680801958720826c880184c901826a1001d4ba0a7b6738015209d70c1409e0ffffff00000000d8980982680001948994a952090628412a7b6ab80084c900ff956a18118268280195ab00047bb8307bb928826830017bb83895684015826960017bb9405020c601a9d2956c18113304330349269001956a000182a74882a840d4870782a85882a950d49808d487078e779777057ba7980028eb1a5147b327d0610a283d2f956718294927400249273802492730024927280295670030837740fb3300c8010a103302ca01285e735022ca015b735022cc01887451070628532f8267980181775617030728572f9567a0103308405020ce01dfd09567ff0795771901957900078298a0007b689801829898007b689001829890007b688001829788007b6788015020d00159d0956b000182b7980082b88000d4870782b88800648a82b99000d49808d47808988820d49707977720d48707510706281c293a09a001033a08a801033807b00103956bff0795bb1901492b800795bc00077bc7787bc870956880107bc96864a75020d20182d1330820826788013300740328b6d55022d401597482626801db270a7b6a98018267600182693001d4970782691801dab907826c500164cadb270a5022d60124725020d80184767b6730017b6818018267480182685801826990015020da016a765022dc0103735020de0184765022e001437382695801dba8097b69580182681001d4870782683001dab80782684801dba70864a97b68480182675001826840015020e20124765022e401ba708263580182644801017b6b580198493f973a01d49a02974a01826b980198bb3fd4ba0a7b6a48018269280164847b625001d329086430d82903826b3001d8ab02db8302974801987a3fd4a8087b684001980a3f977701d47a0a82679801977701826b600198b83fd4870097b801826b680198b33fd4380397b801826b880198b43fd4480897bb0182675801d47b0b7b6b8801d4c8087b686801d43c087b686001d40c077b679801c9a907d82707d8a90882624001c9290bc98b0bc97b0b99bc3f82673801d2c70782684801c97804d8780882675001c987039478c98a07d88a08c982085022e6017b74d89b02c99b0988ab01c9b000826b7801c92b0b95aaff7b6080017b6b7801d4b0027b6a9001d49a0bd42b0a84cb017b697001330c520aecfe82678801977701d47b0b0184b7ff82682001aa780628522b33078001037b67500183777b6748013300e8010a043302ea01286e6b5022ea016b6b49290004959b00037bb8f8007bb7f0009568ff07958801057bbae80033075020ec0157cf9568ff07958819014928e0034928d8034928c8030164893307209568ff079588e1044929d0035020ee012bcf9517e08477e07b67280164713308700102390770010256173f112003700102403302f0012826715022f00123713307800102837783997b6888013308407b6790010a08826a980182a71882a81082a90882aa6f7c6f8b6f986fa9826728017b6980017b79187b6898017b78107b6b78017b7b087b6c70017b7c826748013300f2010a043302f401288e6a5022f4018b6a4929c003959b00037bb8b8007bb7b0009568ff079588c1047bbaa80033075020f60177ce9568ff07958819014928a00349289803492888030364893307209568ff079588a104492990035020f8014bce82688801818756173f0848084001140800000000ffffffff7b6830011407ffffffff000000007b6740019517e08477e07b6768015022fa01326a3300fc010a08826a68013302fe0128426c826a68015022fe013b6c7bbae0007bb9d8007bb8d0007bb7c8009567ff07957781049568e02950200002c6ce4926100149261801330b9567ff079577190180776803956a00017ba73882a87095880188870182a978c897077ba8087ba7d4870788770182a89800c887077b67f800d8870782a88000c887077b67f000330a0101330893b882673801d8a7073309dab7093307db78095209bf05492678017b6a980182674801330002020a0433020402283b6950220402386949296003959b00037bb8587bb7509568ff07958861047bba4833075020060227cd9567ff0795771901492740034927380349273003647a3307209568ff0795884104492a28030250200802fbcc82688801818756173f08480840019517e08477e07b67800150220a02fe6833000c020a0833020e02285f6a50220e025c6a959a00037ba7207ba7187ba7109568ff0795882104826798017ba708330750201002a6cc826758019568ff07958819017b870003826760017b87f802826768017b87f002648a3307209568ff0795880104826970017ba9e802502012026bcc82688801818756173f08480840019517e08477e07b677001502214026e68330016020a08826a70013302180228696a826a700150221802626a826b80017bba187bb9107bb8087bb7957b02d87b07c8780cd88c08da7708c89808d89807c8a707956918297b9be8007b9cf0007b98f8007b9700019567ff079577e1039568002a50201a02d7cc9567ff07957719018277d0028477ff005107178268400101330b82679801957701d2870a2841fe9567ff079577c1038268800150201c029ecc9569ff0795991901959a000282a7b00082a8b80082a9a8008477ff8488ff826b3001d2b909d49808d487075107af8267480133001e020a0433022002285a675022200257674929a002959b00027bb898007bb790009568ff079588a1037bba880033075020220243cb9567ff0795771901492780024927780249277002647a3307209568ff0795888103492a6802045020240217cb82688801818756173f08480840019517e08477e07b678001502226021a67330028020a08826a800133022a0228d06e826a800150222a02c96e7b6770016f977b6768016fa77b6760019569ff07959919014929600249295802492950029568ff0795886103826720017b974802330750202c02a2ca826760019568ff0795881901958900027b9740826768017b9738826770017b9730648a3307209568ff0795884103826980017ba9280250202e0266ca82688801818756173f08480840019517e08477e07b678001502230026966330032020a083302340228ca6750223402c767959a00027ba7207ba7187ba7109568ff0795882103826798017ba70833075020360211ca826758019568ff07958819017b870002826760017b87f801826768017b87f001648a3307209568ff0795880103826970017ba9e80150203802d6c982688801818756173f08480840019517e08477e07b67780150223a02d96533003c020a08826a780133023e02281c6a826a780150223e02156a9567ff079577e1025020400281ca9567ff07957719017c77c8015207b1fd9567ff079577c10282682801502042025fca956aff0795aa190195ab000182b7c00082b8b80082b9b00082a2a8013a0ba800028e7c8e8adb7c0ad82b0b8e9cda9b0cd4780bdbba0c520c1995690001829710957701829840d287077b97102854fd3a0ab00002c82a0ad82a0bc8b90c95ccffd39c02d89c09da2b09958bffc8b909d8b90b888801c98707c8b70795681829958b00017bba087bbc107bb9187bb7209568202a82672801502044023aca9517e08478e07b68780164818267f0007b87188267f8007b8710826700017b8708826708017b879567ff079577a102502046028dc99567ff0795771901827788013a08a000029569ff07959919018299a001956aff0795aa190182aa9001956bff0795bb190182bb9801c87808d87807c87a0cd8ac0ada770ac8ba0ad8ba07c8970795691829959b00017bb8287bbc307bba387bb7409568402a826778015020480296c98267180195770182684001d287077b6718019567ff07957781028268800150204a02fac89567ff0795771901827768019568ff0795881901828870019569ff079599190182998001956aff0795aa190182aa7801847700ff867701956b182995bc00017bc9607bca587bc8507bc7489568602a8267800150204c0219c928ddfb9567ff079577610233084050204e0261c69569ff07959919018292600195970001827c58827b50827a48d42b07d4ca08d47808988820d4c707977720d4870751070628cd1e8267180182684001d287074929400149293801492930019568ff07958841027b97280164a77b6a98017b6b88017b6278017b6c8001502050022cc7956b000182b9980082b7800082b878d487071408e0ffffff00000000d8890882ba880094a8947852080628651e8267100182684001d27808839720956aff0795aa1901492a2001492a18017ba808019568ff0795882102492a100150205202cbc682674801330054020a04826950013302560228396382695001502256023263d4780298aa206f99979820d4a8039899203a0ab800023a0bc000023a0cc80002826720019568ff07958819017b87a8007b8a00017b8bf8007b8cf0003a0ad000024928c0004928b8004928b0007b8ae8007b89d8007b83d0007b82c80064873308409569ff0795990102956aff0795aae101956bff0795bbc1014927e0008267980133007204289fc87b6ab800d8870782680001c878097b692801d88908da7708c8b8087b682001d8b8077b6788019567181182687801957a00047ba88800826870017ba89000826868017ba898009568a015826980017ba9a000330750205802c9c59517e08477e07b673001647182699801819756171f08480920018267100182688801c887077b6718019517e08477e07b678801647183793308208267900133005a020a080149269801330433034926900150225c0248696f9c6fa982683001649a7b89187b6c60017b8c1064b07b8b0864797b8701956b00017bba687b6070017bb97882b74082b99800d8790782b950d3940ad89409daa70982b748d8730282ba5882bc9000d3ac0bd8ac0adab20ad37307d4b707da790a510a7c0d956780157b6388017b64800150205e02edc582609801826480018263880182683801c80807d88708826b2801c84b09c88909d3b90ad8b90bdaa80b826a2001c83a08d8a802826c1801826a9001c8ac0cc82c0ac88b0bd88b08c8a808d49808d4b709d48909d4b808989920978820d4980851080628fc1b956c181182c9800482c8780482ca700482cb68047bcb480495cb00047bba507bb858956860157bb9607b6098015020600263c4826c780195cc0188c701826a7001c87a0ad4ac0788770182686001c87804d8840882676801c8870782689801958320d8830982688001c89802d8820bda990b82688801c88b0bd88b0982689001c898087b68900164a0826830017b8a0864c97b8c7b8410647a7b87187b6460017b639801642464b3289afe50226202d06682626801db270a7b6a98018267600182693001d4970782691801dab907826c500164cadb270a502264029b6450206602fb687b6730017b68180182675801826848018269900150206802e16850226a027a6550206c02fb6850226e02ba6582694801dba8097b69480182681001d4870782683001dab80782685801dba70864a97b6858018267500182684001502070029b685022720231638263480182645801017b6b580198493f973a01d49a02974a01826b980198bb3fd4ba0a7b6a48018269280164847b625001d329086430d82903826b3001d8ab02db8302974801987a3fd4a8087b684001980a3f977701d47a0a82679801977701826b600198b83fd4870097b801826b680198b33fd4380397b801826b880198b43fd4480897bb0182675801d47b0b7b6b8801d4c8087b686801d43c087b686001d40c077b679801c9a907d82707d8a90882624001c9290bc98b0bc97b0b99bc3f82673801d2c70782684801c97804d8780882675001c987039478c98a07d88a08c9820850227402f266d89b02c99b0988ab01c9b000826b7801c92b0b95aaff7b6080017b6b7801d4b0027b6a9001d49a0bd42b0a84cb017b697001330c520aecfe82678801977701d47b0b017b6b70019567a02433084050207602d6c0956218218223a00395270003827c9800827a9000827b88008e378ec8db37088ea788b960ff859901dba709d43c077b677801db780951090628db1d95b7a000d8b708c88a097b6a9801826a9801d8a90ada880ac8ca0ad8ca087b6b9001c8830b7b2768037b2970037b2a7803330740956880247b2b80037b6c80017b638801502078028bc1956c000182c9900082ca8000d4a90782c8980082cb8800d4b808d48707987720d4a808978820d4870751070628c218956a1821492a60038267000195ab00037bb7488267f8007bb75095686024826708017bb758649750207a022fc18267c8000a040195690001829b90001407e0ffffff00000000d87b0782989800948782987894875207062868188269e80082970881981082996f77977a206f88988820d48a0a9877206f98978920d4790998882083b720956b1821492b400395bc00037bc8387bc930956840247bca287b67380150207c02b5c08267f000956a18217ba700038267b80095ab00027bb7f8008267b0007bb7f00095672024956800248269c0007bb9e80050207e02fb5895671821957900038298087b6858018298107b6850018298187b6848018298207b6840019567e0233308405020800214bf95671821827ae0027b6a88018278d8027b688001827cd0027b6c6801827bc8027b6b6001826940017b79a002826948017b799802826950017b799002826958017b798802957900027b9ac0007b98b8007b9cb00064799567c0239568a0237b9ba8025020820233499569000182986882978800d48707829860648c829b8000d4b808d47808988820d4b707977720d48707510706281d17956718218268c000957900027b98688268b0007b98708268b8007b987895688023826bf0007b9b800064c75020840286bf82678801826a8001d4a707140be0ffffff00000000826c6001d8bc08826968019498947852080628c216816720017b6788008268c00083877b67900083c7207b6b58015020860282c3837782689000826988000a0101826b68018262c00082676001c87202d872088269b000c8b909c88909d3b90ad8b90bdaa80b8268b80082678001c87808d8780a826c88018267f000c87c0cc8ca0ac88b0bd88b08c8a808d4b80882675801d8720a949a948a520a0628381683272095691821492960024929580249295002956860234929480250208802b1be140a00000000010000001407c0ffffff00000000956b000182b89000d8780782b99800949782b978949752070628e715838740956818217b6a5801648a8268600195ab00027bb828826868017bb830826880017bb83895684023826988017bb9407b67880150208a0246be956b000182b97882ba980082b8900082b7589577a0d8780794a79497520706288a15838760956b1821492b2002492b1802492b100295682023826970017bb908027b677850208c02fcbd956a000182a89000140780ffffff00000000d8780782a99800949782a9789497520706283c158387800095691821492900024929f8014929f001956800234929e8017b672850208e02b1bd8267c800330090020a048269e8003302920228845a8269e800502292027d5a4929e001959b00017bb8d8007bb7d0009568e0227bbac80033075020940272bd956818214928c0014928b8014928a8010264893307209568c0224929b001502096024ebd8268a800818756173f0848084001140700000000ffffffff7b67709517e08477e07b679801647183793308408267a000330098020a08826a980133029a0228f560826a980150229a02ee607b6778016f977b6770016fa77b67680150229c02b35f956918214929a00182670801959a00017ba798008267f8007ba790009568a022826700017ba78800330750209e02bdbc956b000182b76895681821958900017b97800082b7707b977882b7787b9770648a3307209568802282b980007ba968015020a00287bc8268a800818756173f08480840019517e08477e07b678001647183793308408267a0000a08826a800182a71882a81082a90882aa6f7c7b6c506f8b7b6b586f987b68686fa77b6760826998017b97187b98107b9b087b9c95676022826890015020a202e8ba95671821827748018268e000d287077b67900195674022826898015020a402f3bc956a182195ab000182b73082b83882b94082ba285022a6024d5e7bb9000595b900047b98f8007b97f0007b9ae8009568002e826798015020a8022fbd95672022826838015020aa027dba95671821957900018298187b6890018298107b6880018298087b68780195670022826898015020ac027ebc95681821828700018088e800826c780198c920826b800197ba20d4a90998ba20826b900197bb20d4ba0a97cb20d4b808956b182995bc00057bca187bc9107bc7207bc8089568202e826798015020ae02a4bc9517e08478e06481826950959901889701826a58c87a0ad4a907887701826c68c87c0bd8cb07826c60c8c7077b6748017b87187b6b38017b8b107b6a40017b8a087b68407b6950017b899567e021826888015020b002a8b995671821827ae000827bd8008279d0008278c800956c00017bc9307bca28d4a907d4b809d479099899207bcb20d4b707977720d49707510706280c129567c0217b6818015020b2025eb995691821829bc000829ab8008298b0008eb78eacdbb70c7b68488e877b6a387b6b30d4ba0a7b67107b6c187b6a1001dbac075107062846188297a8007b6780009567a0218268405020b4023dbb956b182182b9880082b7900082b8980082baa0007bba607bb8587bb75095678021956860217bb9485020b602af4295671821827a8000827b78827c708279688ea78eb8dba7088ec77b6978018899208599017b6c8001dbc7097b6a88017b6b9001d4ab07db7809826780008877207b672051096c0695671821956a000182a8507b782882a8407b783082a8387b78389568402182a9487b794033075020b802aab98267a800817756171f0c8268a800480820019517e08477e07b676801647183793308208267a0000a088267800095781fd87807826c48c87c09d8c90ada770a826b38c8ba0a7b6a600197aa3b989b05d4ab0b8267680182731897993b827a10988805d498076f346fa982682094c8826a100194a8948b9487c87402d84207c8790cc8cb0b7b6b9801d39b0cd89b0adac70a7b6a58018267780195701fd8700b826a8001c8ba07d8a70cdabb0c82639001c8c303973b3b987a05d4ba0a97773b980b05d4b707c847077b677801d847076424c8790bc8ab0bd39b0a7b6b7001d89b09daa709826b6001826738d87b07826a30c8a70798ba05977b3bd4ba0a826b680182b282bb08987705948a94876fb86f2bc8b707c88a0ad88a0cc8c70782605801c8a000d8a00ac8a70282679001d87307826a8801c8a707983a05977c3bd4ca0a987705c8b707956c000182cb9800c88a0ad88a08c88707c8a9097bc968d8a908c887077bc7609517e08473e064317b6358010182677801d8740782697001d39b08d89b09da8709826c6801d8c007826a6001d3a208d8a20ada870ad3c007d48707da790a7b6490017b347b6b98017b3b087b6080017b30107b6288017b3218510a7c0495671829492740054927380549273005492728059568402e64375020ba0230b98263580182649001954401884701826b9801c87b0bd4b40788770182688001c88707d8870882628801c8820264702862ff956c18110182689801958720d88708c88409d8490ada880ac83a0ad83a08826b9001c88b0b826808017bc8080495c800037b87e800826700017bc710048267f8007bc718047b89f000826710017bc720047b8af80095672015956800157bcb00045020bc027b408268d800958702d88708826ae0005022be021b598268f000c88a0ad88a08826be800c8b808956b182995bc00037bc8407bca387bc9307bc7289567e0149568402c5020c002d9b73302c20295681811018287d0037b6778018287c8037b6770019567c0143308405020c40287b5956b181182b2c00395b80003828ab800828cb0008287a800d42c09d4a708d49808988820d4a909979920d498085208f70d8268d0009788207b6a8801988a20492ba003492b9803492b90039568a0147bba88037b6798017b6280017b6c90015020c6025cb6956c000182c8980082c7880082c98000d4970a5022c80261595107a60d1402ffffffff000000008269d0009899207b6b6001826bc0007b6a680197ba20d4a90998ba20826cc80097cb20d4ba0a98cb2084aaff8499ffd22b0b838720956c1811492c80037bcb78037bc96803956880147bca70035020ca02e2b5956a000182a8980082a7609577c0d8780782a99000949782a96894975107290d83874095691811492960034929580349294803a00095686014492950035020cc029fb595674014826808015020ce0257b4956c000182ca6882c89800140b0000000001000000140760ffffff00000000d8780782c99000949794a75107ca0c956718117b6b6001647b8272400382733803827c3003827928038387a0007b6958017bb908037b6c40017bbc10037b6350017bb31803956820147b6248017bb220035020d0021bb5956b000182ba900082b9980082b760957740ffd8790794a782b86894875107610c1407e0ffffff0000000082680801d878078268000194878268b80094875107400c82685801826c5001d4c8078262480182634001d4230bd4b707987720d4cb0b97bb20d4b7075207170c8397c0005020d202ebb87b67680182673801826858015020d402d9b8647882676801826958015020d60286b28268580182679801c88707d88709826b400182689001c8b808c89808d3b80ad8b80bdaa90b82698001826a4801c8a909826a8801826c5001c8ca0ac8ab0bd8ca0cd8ab0ac8c909c8a909d4b909140a40ffffff000000007b6a9001d8a70a948a949a510a850b8377c00095691811492900034929f8024929f002956800144929e8025020d802fcb382679801837760956918114929e0024929d802826870017b98c8029568e0134929d0025020da02d3b37c6778018e788267980183778000956918114929c0024929b8027b98a8029568c0134929b0025020dc02a7b38267580195771f1408e0ffffff01000000d2870782689001ae87f20a8378c0007b689001826798015020de02beb783783307826990010a0d01826720857701826848826910db890782681882691001db980751074d02826780008477e07b6710019567181982685001957900077b98e800826840017b98f000826838017b98f8009568002195671821826948017b7933075020e00210b35022e202555733082033075020e40244b79518e08488e07b6868016481837783893308200a084926980120330c49269001492688014926780149268001826a680182a71882a81082a90882aa6f736f846f903309826b78016fa7330a6472826870017b87187b6050017b80107b84087b83017b626801826710017b6b7801d87b07857b017b6a580194ab017b69600182678001d49707947b018268180182679801c87808826a3001c8ca0a8269200182679001c879098267280164c0826c8801c8c707520b7201826b9801d8b80bc8ba0ad30a027b603801d80a0cda2b0cc89c0cd89c02826b9001d8b909c89707c82707d4c809d4a707d47909989920d4c707977720d497077b6348017b644001520765099567a01e5020e602bab0956a181995ab000582b7a00082b8980082b9900082ba8800956b182995bc00057bc7607bc8587bc9507bca489568602e826770015020e80224b38263480195330188370182644001c87404d4430788770182685001c87800d8800882676801c88707826898019589207b696801d8890a82683801c8a8097b694801d8890bdaaa0b82689001c8b80ad88a0b82688801c8b8087b68880182687801958b20d88b0c82695801c8c908d89809dacc09826c6001c8c909d8c90c82628001c8c2027b628001826c70017bc4087bc37bc01064727bc7187b605001826768017b679801826c48017b6a9001648a286dfe82678000826838d48707826848826930d49808d487075207bc01492640014926380149264801492650012802028264900182639801826b8000826c1001d3cb0b826c38d4cb02826c48826b30d4bc0cd4c20b510b3301d8380bc8ba0ad30a02d80a0cda2b0cc89c0cd89c0bd84909c89707c8b707d4c809d4a707d47909989920d4c707977720d497075207e2079567e0205020ea0237af95671819957900078298e0007b6890018298d8007b6888018298d0007b6880018297c8007b6778018267800097773b9878387b6898019a8980003307ff3308ff5020ec0299557b6768017b6850013307ff3308ff826998015020ee025b557b6758017b68600182675001d487077b675001826798019579803307ff3308ff5020f0023555826b980188b98000826a5001db9a08826c5801826a6801d4ca0ada970a93b8ff93baff826b6001939b939c82677801e0a70782698001e0890882698801e0c909826a9001e0ba0a956b182995bc00057bca80007bc9787bc8707bc7689568802e826770015020f202edb082693898973f826830978801d48707826a4898a83f979901d49808826b800098b93f97aa01d4a90997ba0195aa01956b182995bc00057bca88007bc990007bc898007bc7a0003307a02e287301956a000182a72882a820d487071408e0ffffff0000000082a918d8890882a930949894785108750682671801837820956720215020f402c3ad95671821827820956900017b98508278187b98488278107b98388277087b97400182694898973f826a3897a801d487077b67900198a73f826830978801d487077b678801826a800098a73f979801d487077b67800197a7017b67780197a8037b6898018d8980003307ff3308ff5020f602f8537b6758017b687001826780008a79033307ff3308ff5020f802b7537b6768017b68600182685801d487077b675801826798018379803307ff3308ff5020fa029153826b980188b98000826a5801db9a07826c6001826a7001d4ca0ada980a93b7ff93baff939c826b6801939b82683801e0a80882694001e0790782694801e0b909826a5001e0ca0a956c000182cb78d4b70782cb8000d4b80882cb8800d4ba0a82cb9000d4b909956b182995bc00057bc9b8007bcac0007bc8b0007bc7a8003307c02e01c876088267405020fc0224af9517e0847ce064c1826850958702d88708826a585022fe02a14f826868c88a0ad88a08826b60c8b8087b6c98017bca107bc9087bc77bc8189567c020826878502000033bac956718198277a8078477ff7b6790019567a02082689801502002034aae95691819959a000782a7a00082a8980082a99000956a1829826b900195ac00057bcbc8007bc7e0007bc8d8007bc9d0009568e02e826798015020040384ae9567802082682850200603d3ab956a181995ab000782b7800082b87082b97882ba68d48707d4a909d497078e777b679001956760208268980150200803cdad956a181995ab000782b75082b84882b96082ba58847700ff826b9001d4b707956b18297bb9000695b900057b9af8007b98e8007b97f0009568002f8267980150200a0300ae8267c80033000c030a048269e80033020e032845488269e80050220e033e4849294007959b00077bb8387bb730956840207bba283307502010035aac33021203956818190149282007492818074928080701648933072095682020492910075020140331ac50221603f14e8269a800819756173f08480940019517e08477e07b679001647183793308408267a000330018030a0833021a0328044e50221a03014e95ab0350221c03794a826898017b8b7b8c087b89107b87189567002050201e03c5ac956718198277e8069577018268e000d287077b6790019567e01f8268980150202003a1ac3307002050222203165082b7d00082b8d80082b9e00082bac80050222403f54d95bc00067bc9207bc8187bc7107bca089568202f8267980150202603dbac9567c01f330840502028032aaa33022a039569181901959c000682cac00082cbb80082c8b00082c7a800956c00017bc898007bca8800d48a0ad4b708d4a8089888207bcb9000d4ba0a97aa20d4a808520885024929a00649299806492990069568a01f49298806207b67800150202c03ffaa956a000182a7880082a89000d47808140700000000010000007ba7781407e0ffffff0000000082a98000d8790782a9980094977ba870948751072a0282678001837720956918198268c000959b00067bb8688268b0007bb8708268b8007bb8789568801f826af0007bba800050202e038daa826778019577dc8268d000d878078268d80094878268980094875107d6018267c0008269b800d497078268f000826ab000d4a808d48707987720d49808978820d487075207ad011408c0ffffff0000000095690001829780007b9878d8870782989800948782987094875107860182678001837740826890005020300353ae837782689000826988000a01018268c00082678001c88707d88708826bb00082699801c8b909c88909d3b90ad8b90bdaa80b8268f000826a8801c8a808826cb800826a9001c8ca0ad8ca0cc8c808c8ab0bd8ab0ac8a808d4b808826a7801d8a70a949a948a510a0c01837740956918194929600649295806492950069568601f492948065020320384a98267c800330034030a048269e8003302360328f2458269e80050223603eb45d4780298aa206f98978920d4a909988a208268c00095881f8488e0009588403a0b2000023a0c280002956718197b7b40063a0b3000027b7c380649270006826c08017b7cf8057b7b30063a0b380002826cf8007b7cf005826c00017b7ce80549272006957c00067bcb287bca187bc9109569401f956a201f956b001f7b72080682678001502038035aab9567e01e33084050203a0394a7956a181995ac000582c7e00082c8d80082c9d00082cbc800d49707d48b09d47909989920d48707977720d497075107da06003308800102838833070133090a0d28d0133308800102838833070133090a0d28bf133308800102838833070133090a0d28ae133308800102838833070133090a0d289d133308800102838833070133090a0d288c133308800102838833070133090a0d287b13492610044926080449260004140700000000c611522c956800047b671804330750203c0310a8390870010256181f12200370010220330880010228b904330880010228b104492630044926280449262004140700000000b878d6f4956820047b67380433073300480328c7a73308800102838833070133090a0d28fe123308800102838833070133090a0d28ed1233023e0395691811014929780149297001140700000000c611522c7b978001956880124929680133075020400379a7390870010256181f1220037001022033088001022822043308800102281a043302420395691811014929980149299001140700000000b878d6f47b97a0019568a012492988013307502044032ba782673801817756171fd0008268380148082028c4003308800102838833070133090a0d284a123308800102838833070133090a0d2839123308800102838833070133090a0d2828123308800102838833070133090a0d281712492670054926680549266005140700000000c611522c956860057b677805330750204603aca6390870010256181f1220037001022033088001022855033308800102284d03492690054926880549268005140700000000b878d6f4956880057b67980533075020480367a682674001817756171f0c8268400148082001330701330904826848010a0d013308800102838833070133090a0d287c113308800102838833070133090a0d286b113308800102838833070133090a0d285a113308800102838833070133090a0d2849113308800102838833070133090a0d2838113308800102838833070133090a0d2827113308800102838833070133090a0d2816113308800102838833070133090a0d2805113308800102838833070133090a0d28f4103308800102838833070133090a0d28e3103308800102838833070133090a0d28d2103307181950224a034947838800fec868087b970005330750204c0370a59568181950224e03bf498388e0fdc868084929d004330060032851a53308800102838833070133090a0d2888103308800102838833070133090a0d2877103308800102838833070133090a0d286610956918214929b8044929b004140700000000c611522c7b97c0049568c0254929a804330750205003f7a4390870010256181f12200370010220330880010228a00133088001022898013307182150225203944683880006c868087b970005330750205403bba495681821502256030a498388e005c868084929d00450205803a0a482675001817756173f0c8268500148084001330701330924826860010a0d013308800102838833070133090a0d28b50f3308800102838833070133090a0d28a40f3308800102838833070133090a0d28930f9569ff07959919014929180449291004140700000000635bb2d57b9720049568ff079588210549290804330750205a031ca4390870010256181f12200370010220330880010228c500330880010228bd00956718194927380549273005492728056479140700000000717b484e9568401e7b974005330750205c03d1a333025e0395681819014928200549281805492808054164893307049568201e4929100550206003a8a38267a800817756173f0c8268a800480840013307013309248268a0000a0d019569182149293804492930041407000000003bc167cc7b97400495684025492928043307502062035fa3390870010256181f11200370010220330880010228083308800102018388330701330904330064030a0d0152476eeb149c73956718294927600349275803492750034927480395670030837760fc330066030a103302680328b04750226803ad4750226a03f147510764013308800102838833070133090a0d28280e3308800102838833070133090a0d28170e3308800102838833070133090a0d28060e5247275914a04901956718294927800349277803492770034927680395670030837780fc33006c030a1033026e03283c4750226e03394750227003ad43510771013308800102838833070133090a0d28b40d492658010182676801977701826b5801d47b0b014926d8034926d0034926c8039568c0037b6bc00382671801502072033da2330820826718015020740375a6837833092033070a0d280a33092033070a0d01956718194927780549277005492768056479140700000000717b484e9568801e7b978005330750207603f1a13302780395681819014928600549285805492848054164893307049568601e492950053300600328c4a164ba956718194927c005956c000182c87b78a8058268f8007b78b0059568c01e82c9087b79b80564b77bca980033003e2891a182679801817756176397003308800102838833070133090a0d28bd0c52473a6750b6790195671829492700044927f8034927f0034927e80395670030837700fd33007a030a1033027c0328f34550227c03f04582b7f80082a8000482b9f00082bae800d49808d4a707d4870751077b013308800102838833070133090a0d28580c8267980181775617437b013308800102838833070133090a0d283c0c9567c01733007e033302880528a04495681811958900068297a8007b6798018297b0007b6790018297b8007b6788018297c0007b6780019567a0173300800333028c052880459568181195890006829788007b677801829790007b677001829798007b6768018297a0007b676001956780173300820333029205284945956b181195bc000682c76882c87082c97882ca80007bca207bc9187bc8107bc708956b000182b7607bc74082b7687bc73882b7707bc73082b7787bc72882b780007bc76082b788007bc75882b790007bc75095676017956840179569201782ba98007bca4850208403992a33088001028388330733090a0d28440b52474a45080ea70495671821492740064927380649273006492728069567002083774007330086030a1033028803286d44502288036a4450228a0311425107c0043308800102838833070133090a0d28f20a50228c035743ac78c0043308800102838833070133090a0d28d70a9567401b33008e0333029c05283b4395671819827728027b6790019567201b3300900333028c0528374495671819827708027b67f00033078001037b67080183777b670001330092030a04826908013302940328003b8269080150229403f93a49290002959b00017bb8f8007bb7f0009568001b7bbae800330750209603129f3302980395681819014928e0014928d8014928c8010264893307209568e01a4929d00150209a03e99e33077001027b671801390770010233083fac78118268180148084033029c0328e94050229c03e6403307800102837783993308407b67100133009e030a08826a98013302a00328893d826a98015022a003823d7b679801647182679001977720987920956718194927c0014927b8014927b0019568c01a7b69f8007b79a80133075020a203629e8267700195681819958900017b97a000826778017b979800826780017b979000648a3307209568a01a826988017ba988015020a4032b9e82671801817756173f12826718014807403302a60328243b5022a603213b3300a8030a08826a90013302aa0328293c826a90015022aa03223c826b98017bba187bb9107bb8087bb7826700013300ac030a04826908013302ae03286441826908015022ae035d417b6890019877206f987b688801978820d487077b6780019567801a826898015020b003919e95691819018297700180986c0182997801977a20d4a808979a20987720d4a707956b000182ba8000d3a70782ba9000d3a80882ba8800d3a909989920d49808d4870752076106956700308377a0fc0a0901956718298272a003827b98037b6b580182749003827a88037b6a4001682768b8958940db2709684768a8958840db470895878000d42b0adaa709d8870c94ac8ecb8897f000857a01daca0b88b7019570ff9ab39accc9ac0a9a99ef008e3c8e07da0c07889c000185cc018ea8dba80cdbb70c7b6438017b625001d42407826b400182685801d4b808d48707887701d4c70764b894787b689801520703065022b20395415107f9055022b403f5395020b603e3415022b803ab405020ba03fd415022bc038e3f5020be03f1417b6720017b68e80082696001889780007b67e00082674001826838015020c003cf415022c2038141826ae00093a77bb7785108860564a98267680182682801d4870764ac8268e8005022c403cf385020c60377415022c80329405020ca036b417b67e8005022cc037f3f5020ce0381415022d003133c8268e8005022d203603d5020d40345415022d603b23a5022d8031e3cd89002826b2801d8ab0cdb320c5022da03303cd4870297b801826b700198b33fd4380397b801826b780198b43fd4480897bb0182675801d47b0b7b6b780182675001d478087b687001d437087b686001d427075022dc03c637d89b02c99b0988ab01c9bc0c827b8800c92b0b95aaff7b7c90007b7b8800d4bc027b7a9800d49a0bd42b0a840b017b7b587b79800049265001520a68ff2894045247ce3c124534069567182949074917f84917f04917e895670030837700f90a1001956a182995ab00ff82b7f80082a882b9f00082bae800d49808d4a707d48707510759063308800102838833070133090a0d2847065022de03ac3eac7850063308800102838833070133090a0d282c069567c01d3300e00333029c0528903e956718198277a8047b67700133078001037b67880183777b6780013300e2030a04826988013302e403287036826988015022e40369364929a004959b00047bb898007bb790009568a01d7bba880033075020e603829a3302e80395681819014928800449287804492868040264893307209568801d492970045020ea03599a33077001027b679801390770010256173f0c82689801480840019517e08479e07b69780164913307800102837783993308407b6790013300ec030a0801826a780182a71882a81082a90882aa6f777b6768016f877b6760016f977b6758016fa77b6750015022ee032c3e82677001977720987920956718194927600449275804492750049568601d7b6970017b79480433075020f003c1998267500195681819958900047b9740826758017b9738826760017b9730648a3307209568401d826968017ba928045020f2038d9982679801817756173f0c82679801480740019517e08477e07b6768015022f4038c353300f6030a08826a68013302f803288737826a68015022f8038037826b78017bba187bb9107bb8087bb7826780013300fa030a04826988013302fc0328c23c826988015022fc03bb3c7b6868019877206f987b686001978820d487077b6758019567201d826878015020fe03ef9995691819018297100480980c0482991804977a20d4a808979a20987720d4a707956b000182ba58d3a70782ba68d3a80882ba60d3a909989920d49808d487075207230582678001330000040a048269880133020204286934826988015022020462344929e003959b00037bb8d8007bb7d0009568e01c7bbac8003307502004047b983302060495681819014928c0034928b8034928a8030264893307209568c01c4929b00350200804529882679801817756173f0c82689801480840019517e08477e07b67780150220a04513433000c040a0801826a780182a71882a81082a90882aa6f777b67780150220e04603b3302100495691819014929a00349299803492990039568a01c826770017b978803330750201204e5978267580195681819958900037b978000826760017b9778826768017b9770648a3307209568801c826978017ba9680350201404b09782679801817756173f0c82679801480740019517e08477e07b67780150221604af330a08826a780182a782a80882a91082aa186f726f876f996faa951be084b8e0648195ab02d8ab0ac8a90cd89c09daaa09c87909d87907c827077b8c087b8b7b89107b87189567601c7b687801502018042e9895671819827750038478ff005108e30333021a0495691819014929380349293003140700000000c884c1c17b9740039568401c4929280333073300520428f99633021c0495691819014929580149295001140700000000dbf71c6f7b9760019568601a4929480133073300d20428c996492658010195690001829778977701829858d487077b979800018267f00082689801ab8777058267000133001e040a04826908013302200428553282690801502220044e3249292001959b00017bb8187bb7109568201a7bba083307502022046a96330224049568181901492800014928f8004928e8000264893307209568001a4929f00050202604419682671801817756173f128268180148084033022804283a3350222804373333002a040a0833022c0428713450222c046e347b97e0007b97d8007b97d0009568e0198267f8007b97c800330750202e04f09582677801956818197b87c000826780017b87b800826788017b87b000648a3307209568c019826990017ba9a80050203004bd9582671801817756173f12826718014807403302320428b63250223204b332330034040a0833023604289b3750223604983795ab0250223804103495681829958a00037baba8007bacb0007ba9b8007ba7c0009567a0199568c02c50203a044f96956718197c7790005107520433023c0495691819014919784919701407000000006d53a9a77b9780009568801949196833073300d20428219552472dc64b494c956718294927800149277801492770014927680195670030837780fa33003e040a1001956a182995ab00015022400415365107ff053308800102838833070133090a0d281c3308800102838833070133090a0d280c838833070133090a0d01826798018177561763de05330880010228e6956720023300420433028805285538956a000282a72082a82880693002492618027ba9107ba808956800027ba733075020440477944926f8014926f0014926e001033307209568e0014926e80150204604599433077001027b679801390770010256173f0c82689801480840019517e08479e07b698801649133078001027b67900183778399330840330048040a08826a880133024a04283f32826a880150224a043832956b182195bc00067bca607bc9587bc8507bc7489567c0019568602750204c04d8948067c0014926b8014926b0017b67a001330780009568a0014926a80150204e04c49382679801817756279f0018826898014808a00082679001837880002884f182679001837880002879f13302500495691819014929f8034929f003140700000000dbf71c6f7b9700049568001d4929e8033307502052046c9382679801817756171f0c8268980148082001330701330904826890010a0d011408ffffffff000000007b686801956a181995ab000382b84882b95882ba60867701956b182995bc00047bc8087bc9187bc7107bca209568202d8267780150205404739482678001330056040a04826988013302580428b82e8269880150225804b12e49292003959b00037bb8187bb7109568201c7bba08330750205a04cd9233025c049568181901492800034928f8024928e8020164893307209568001c4929f00250205e04a49250226004db3682679801817756173f0c82689801480840019517e08477e07b679801502262049d2e330064040a0801826a980182a782a80882a91082aa186f776f886f996faa95ab0350226604e230826878017b8b7b8c087b89107b87189567e01b502068042e93956718198277c80282686801c88707d287077b6798019567c01b8268780150206a040a93956a181980a7ac0297772095ab000282b8c00082b9b80082bab000826b9801d4b707956b182995bc00047bc8407bc9387bca307bc7289568402d8267780150206c043e938267800133006e040a04826988013302700428422e82698801502270043b2ed4780298aa206f99979820d4a808989920826a7001956718197b7a48023a0a4000023a0b4800023a0c5000027b7aa0027b7b980249276002957b00027bbc90003a0a5800024927580249275002492780027bba88007bb9787bb8709569a01b956a801b956b601b7b7268023307330850207204bf9333078268900133090a0d2878fc3302740495691819014929380149293001140700000000635bb2d57b9740019568401a4929280133073300d20428009182670001330076040a04826908013302780428b22c8269080150227804ab2c4919607b98587b9750956860197b9a48330750207a04cc9033027c0495681819014918404918384918280464893307209568401949193050207e04a79082671801817756173f12826818014808403302800428a02d502280049d2d330082040a083302840428d72e50228404d42e7b97207b97187b971095682019826798017b97083307502086045a9082677801956818197b87826780017b87f8826788017b87f0648a33072095680019826990017ba9e8502088042c9082671801817756173f128267180148074033028a0428252d50228a04222d33008c040a08826a900133028e0428e62e826a900150228e04df2e7b67900164713302900495691811014929e0074929d8074929d0079568e0188267f8007b97c807330750209204c48f8267700195681811958900077b97c000826778017b97b800826780017b97b000648a3307209568c018826988017ba9a807502094048d8f8267180181775517400c82671801480740019517e08477e07b6788016471837933084082671001330096040a0833029804282c335022980429336f996faa826890017b8a187b89107b8b087b879567a01850209a04289095671811827788078478ff005108dc02847800ff005108210333029c0495691811014929780749297007140700000000f08982c97b978007956880184929680733073300d20428ea8e826798018177561763df0333088001022815fa9567ff079577a10133009e0433028805287f329568ff07958819018287a0007b67f800828798007b670001828790007b671801828788007b6710019567ff07957781013300a00433028c05285b339568ff0795881901828780007b67f0008287787b67e8008287707b67e0008287687b6708019567ff07957761013300a204330292052823339567ff07957719018277487b67d80095670030837720f90a090195671829827220827b187b6b5801827410827a087b6a4001682768b8958940db2709684768a8958840db470895878000d42b0adaa709d8870c94ac8ecb8897f000857a01daca0b88b7019570ff9ab39accc9ac0a9a99ef008e3c8e07da0c07889c000185cc018ea8dba80cdbb70c7b6438017b625001d42407826b400182685801d4b808d48707887701d4c707947b520720085022a4048b32510716085022a604eb2a5020a804d9325022aa04a1315020ac04f3325022ae0484305020b004e7327b6720017b68d00082696001889780007b67c80082674001826838015020b204c5325022b4047732826ac80093a77bb7785108a90764a98267680182682801d4870764ac8268d0005022b604c5295020b8046d325022ba041f315020bc0461327b67d0005022be0475305020c00477325022c204092d8268d0005022c404562e5020c6043b325022c804a82b5022ca04142dd89002826b2801d8ab0cdb320c5022cc04262dd4870297b801826b700198b33fd4380397b801826b780198b43fd4480897bb0182675801d47b0b7b6b780182675001d478087b687001d437087b686001d427075022ce04bc28d89b02c99b0988ab01c9bc0c827b8800c92b0b95aaff7b7c90007b7b8800d4bc027b7a9800d49a0bd42b0a840b017b7b587b79800049265001520a68ff28b7063302d00495691811014929d8064929d006140700000000b6e2a4af7b97e0069568e0174929c80633075020d2041f8c82671801817756171f0c8268180148082001330701330904826810010a0d01956a181195ab000782b8900082b9a00082ba980086770001956b182995bc00037bc8d0007bc7c8007bcad8007bc9e0009568e02c826790015020d4042c8d826700013300d6040a04826908013302d804283028826908015022d8042928d4870798aa206f99979820d4a808989920956c1811492c0007492cf806492cf006826a98017bcae806826af8007bca08073a0a6000023a0b680002492c2007492c18077bca60077bcb58073a0a7000023a0b780002492c1007492c40077bca500795ca00077bab487ba9387ba83064c895696018956a4018956b2018956c00187b872807330733085020da04578e33078268100133090a0d284df6956720103300dc043302880528b12e9568ff0795881901958900078297207b67f0008297187b67f8008297107b6738018297087b673001956700103300de0433028c0528912f9568ff0795881901828700077b67c800958900068297f8007b67c0008297f0007b67b8008297e8007b67b0009567ff079577e1073300e0043302920528522f9567ff07957719018079c8068897019598ff888832858801da97087b691001da970852088d0a8267f800977720987920956aff0795aa1901492aa0068267300195ab00067bb78800826738017bb790009568ff079588a1077b6908017bb9980033075020e2041b8a9568ff07958819014928800649287806492868060364893307209568ff0795888107492970065020e404ef8933077001027b679801390770010256173f0c82689801480840011407ffffffff000000007b6740019517e08479e07b69880164913307800102837783993308407b6790013300e6040a08826a88013302e80428dc27826a88015022e804d52795bc00017bcaa0007bc998007bc890007bc788009567ff07957761079568a02a5020ea045c8a9567ff0795771901827748067b67a800956700308377c0fa0a0901956718298272c001827bb8017b6b50018274b001827aa8017b6a8801682768b8958940db2709684768a8958840db470895878000d42b0adaa709d8870c94ac8ecb8897f000857a01daca0b88b7019570ff9ab39accc9ac0a9a99ef008e3c8e07da0c07889c000185cc018ea8dba80cdbb70c7b6480017b621801d42407826b880182685001d4b808d48707887701d4c70764b894787b68000152074c095022ec04962d510742099598017b687801888701c8a7077b676801d48707887701c837077b675801d83707c807077b6760019a98ff007b6820019a89800082678801826880015020ee04ae2d7b6700017b6828018267500182681801826920015020f004ba2d7b67e8007b68e0008267200195798082678801826880015020f2049d2d7b67d8007b68d00082692001889780007b67a00082678801826880015020f4047b2d956b00017bb87082b86882b960d4890982b87882ba58d4a808d49808826aa00093a77bb7485108660864a9826728018268e000d4870764ac8268d000da980782691801649a649882692001db970a7b6a280182670001826ae800d4a707826ad800daca07826b500164badb970a7b6a20018267700193c77b6770014926e0008051018267780195798064b75020f604c42c7b6700017b68e8008267880182688001826978015020f804aa2c7b67d0007b68d800826878019a89800082675001826818015020fa04b22c8269d800d4980882697801889a80007b6ad800826be800daab08826b8001db980b7b6b80018268d000d4870782680001daa80782688801db97087b68880182675001826818015020fc04402c49265001492618018269d80093987b6800019397826ae00095a9ff7b69d8008ea99599ff7b69d00001826b880198b93f82638001973a01d49a0097ba0182642801984b3fd4ba0a7b6ae8008269d000d30908d80902826bd800d8ab0cdb820c82680001978801987a3fd4a8087b680001983a3f977701d47a0a974701826b200198b83fd4870297b801826b700198b33fd4380397b801826b480198b43fd4480897bb0182675001d47b0b7b6b480182671801d478087b687001d437087b682001d427077b672801c9a907d8c707d8a908826c0001c9c90bc98b0bc97b0b99b33f8267e000d273078269e800c979087b688801d87908c980077b6780019408c98a07d88a08c98c087b68000195680001828c78828a68d4ac09889901828b58d89b02c99b0988cb01c9ba0a828b60c92b0b95ccff7b8a687b8b60d4ba0a7b8c78d49c0bd4ba0a843b017b8b507b895849261801520ad7fe282506492658010182677801977701826b5801d47b0b0182670801aeb7500c8267d8009777209878209587ff88773293877b68380193875107820c1407ffffffff000000007b677801826700019777209879209567ff0795771901490782681001956a00107ba800f982681801956a00107ba808f99568ff07958801017b6948017b79f833075020fe041685956700104927f8f8956700104927f0f8956800104928e0f8033307209568ff079588e100956900104929e8f850200005e48433077001027b679001390770010233083fac780b8268900148084001140700000000ffffffff7b67300150220205d9263307800102837783993308407b678001330004050a08826a98013302060528d522826a980150220605ce227bba407bb9387bb8307bb7289567ff079577c10095684029502008055d85956700108277c0f8492640014926880182687801d287077b67280133070101956b00017bb7980082ba88008ea78ea8daa70882b72882b9980050220a05aa285209910b95690001829778829840d28707829838ae877d0b956700104927b8f882671001956800107b87a0f882671801956800107b87a8f89568ff079588a10082674801956900107b97b0f8330750200c05d88395670010492798f895670010492790f895670010492788f83307209568ff0795888100956a0010492a80f80250200e05a68382679001817756173f128268900148084033021005285823502210055523330012050a0833021405286f21502214056c21956800107b8778f8956800107b8770f8956800107b8768f89568ff0795886182679801956900107b9760f8330750201605428382675001956800107b8758f882675801956800107b8750f882676001956800107b8748f83307209568ff0795884182696801956a00107ba940f850201805028382679001817756173f128267900148074033021a0528bb2550221a05b82533001c050a08826a680133021e05287425826a680150221e056d25826870017b6960017b89187b6768017b87107b6b58017b8b087b6c50017b8c9567ff07957721502020058f8395670010827728f895680010828830f895690010829920f88477ff8488ff826a3001d2a909d49808d4870751078902956c000182c850958702d8870882ca5850222205592482c868c88a0ad88a0882cb60c8b808956b18297bb7487bb9507bba587bb8609567ff0795770195686029502024051a8395670010827708f88477ff00520733024926f807826710017b67e007826718017b67e8079568e007826748017b67f007330750202605f0814926d8074926d0074926c8073307209568c0074926c0070450202805d28182679001817756173f128267900148074033022a0528842150222a05812133002c050a0801826a700182a71882a81082a90882aa6f777b67700150222e05e4244926b8074926b0074926a8079568a007826708017b67a007330750203005728182675801956a00077ba79800826760017ba79000826768017ba7880033072095688007826970017ba9800050203205418182679001817756173f12826790014807403302340528f32050223405f020330036050a0833023805280a1f50223805071f7b6778077b6770077b67680795686007826798017b676007330750203a05f08082675001956a00077ba758826758017ba750826760017ba74833072095684007826968017ba94050203c05c38082679001817756173f128267900148074033023e05287c2350223e057923330040050a08826a68013302420528641e826a6801502242055d1e95672007502044057281826720078478ff0051088f0084770000ff005207850082679801956900067b97c000826708017b97e00082671001956b00077bb7826888017b98c8008267e0007b97e800826718017bb7087b98d0008267e8007b97f000826700017bb7107b98d8008267f0007b97f800956700079568e0069569c006826af8007bba1850204605870a95690001829740957701829878d287077b974001492688018267980195770182687801d28707288bfb9569ff07959919014929b8064929b00614070000000059e962787b97c0069568ff079588c1074929a806330750204805a27fff390870010256181f122003700102203308800102284adc33088001022842dc492650010195690001829748977701829850d487077b97014926800149264801826740018268a800d287077b67e800140700000000ffffffff7b67e00033070101956b00017bb77882ba488ea78ea8daa7088267e80082b97850224a05a12351090628e0ed9569000182974082988000d28707829810ac870628c9ed9569ff07959919014929400682673001959a00067ba728826738017ba7309568ff0795884107826708017ba738330750204c05d17eff9567ff0795771901492720064927180649271006647a3307209568ff0795882107492a08060250204e05a47eff82679801817756173f0c82689801480840019517e08477e07b67880150225005a21a0a08826a880182a71882a81082a90882aa6f777b6770016f877b6768016f977b6760016fa77b6758019517e08477e07b67880164719569ff0795991901826748017b970006959a00057ba7f8007ba7f0009568ff0795880107826778017ba7e800330750205205187eff826758019568ff0795881901958900057b97e000826760017b97d800826768017b97d000648a3307209568ff079588e106826970017ba9c80550205405d87dff82679801817756173f0c82679801480740019517e08477e07b67700150225605d619330058050a08826a700133025a05284520826a700150225a053e20956a000182a888007ba9687b89187ba7707b87107bab607b8b087bac587b8c9567ff079577c10650205c055f7eff9569ff0795991901959a000582a7b00082a8b80082a9a8008477ff8488ff826ae000d2a909d49808d48707510776956c000182c758957902d8790782c860c8780ad88a08da770882c770c8870bd87b0782c868c87808956718297bc988007b79c8017bca70957900017b9ad0007bcb687b9bd8007bc8607b98e0009567ff079577a1069568e02a50205e05d17dff9567ff0795771901827790058477ff00510718492648018267780195770182684001d287072878fd9567182982688801957900017b98e800826870017b98f000826868017b98f800826860017b7800029567ff07957781069568002b502060056e7dff956aff0795aa190182a76805847bff8268b000d88b07db780b8268c8009378956c00017bc8288268c00093787bc8208268b80093787bc8180184b9ff82670001ae7970ff956c00017bc9707bcb880082c74082c88000d2870782c810ae8754ff492a60058267300195a900057b9748826738017b97509568ff0795886106826708017b9758330750206205ee7bff9567ff0795771901492740054927380549273005647a3307209568ff0795884106492a28050450206405c17bff82689801818756173f08480840019517e08477e07b67680150226605c317330068050a0833026a0528d11e50226a05ce1e7b6768016f877b6760016f977b6758016fa77b6750019569ff07959919014929200549291805492910059568ff0795882106826770017b970805330750206c054d7bff826750019568ff07958819017b870005826758017b87f804826760017b87f004648a3307209568ff0795880106826968017ba9e80450206e05117bff82689801818756173f08480840019517e08477e07b677001502270051317330072050a0801826a700182a71882a81082a90882aa6f777b6768016f877b6760016f977b6758016fa77b67500150227405091f9569ff079599190182674801959a00047ba7e0007ba7d8007ba7d0009568ff079588e105826778017ba7c8003307502076058a7aff826750019568ff0795881901958900047b97c000826758017b97b800826760017b97b000648a3307209568ff079588c105826968017ba9a804502078054a7aff82689801818756173f08480840019517e08477e07b67680150227a054c1633007c050a08826a680133027e0528ea17826a680150227e05e3179567ff079577a10550208005f47aff956aff0795aa190182a788048478ff005108a00084770000ff00826b8801520797008267780195ac00047bc7287bcb48826730017bc768826848017bc830826718017bc750826738017bc7707bc838826720017bc7588267f8007bc7787bc840826728017bc7609567ff07957781059568ff07958861059569ff0795994105826bf0007bcb800050208205fe0395690001829b8800956aff0795aa190182978000957701829840d287077b9780002807826b88010149261801492620014926280195b701847bff28f8fc9569ff0795991901491938491930140700000000d94b11cf7b97409568ff07958841014919283307502084050979ff390870010256181f12200370010220330880010228b1d5330880010228a9d59569ff079599190149191849191014070000000059e962787b97209568ff0795882101491908330750208605bb78ff390870010256181f1220037001022033088001022863d53308800102285bd533078268800133090a0d28d3e30a020182171082181814090000000001000000d37909d48909987a2088aa01948a939a510a248219821a087b697b6a087b67107b68189551c0821038821530821628951140320033088001028388330701330933008a050a0d33028c0528fd1c50228c05fa1c3308240a0201821718821810821908d4780a889b0194ab510b0d821a50228e0506193200330880010283883307013309330090050a0d3302920528ba1c50229205b71c330844330094050a023302960528541a50229605511a520b0b50229805c618320033088001028388330701330933009a050a0d33029c0528631b50229c05601b33009e050a023302a00528171a5022a005141a520b0b5022a205891832003308800102838833070133093300a4050a0d019511a07b10587b15507b16489515608411f0828910828c08828b82881897923f98ca01d42a02978a3f989901d49a0a97cc3f98b901d49c0c98830184bb019ab888b60184c97fd2a804d2280adbbc09d2380b88982094a8d4b40c94c8ab86167b797b7a087b74107b7b185022a605301b32005022a805781a5020aa05f676ff49111849111049012233070464184911085020ac05de76ff390870010256183f0b20037001024001330880010283883307013309243300ae050a0d01951170ff7b1088007b1580007b1678951590008411f064728289827408828c088273959a1fd89a00c80c0984aae07b1308c8a303d8a30bc8490ac8ba0ad39a06d89a07da6b07822b18d8c90c828610822210828818da000cc86c0cd86c06c82c09c89707d8c90cd89709c8b808c86808c8c808c8980c8ec88e79dbc809d4c7088ea6db8906520658821808d88308d34a09d84a06da9806d82708d3bc09d8bc0bda980bd32708d49808da860b520b317b13507b1a587b17603307409518507b1c685020b005f275ff955170ff8210880082158000821678951190003200491140491138491130140700000000717b484e9518307b174833075020b205bb75ff491128491120491110413307049518104911185020b405a175ff390870010256183f0b20037001024001330880010283883307013309243300b6050a0d019511a0f8951a00077ba0587ba5507ba648951560078411e0641682997b692882887b68308278107b68208278087b683882777b67408367e0050a09018262f8058263f0058267e805826be0057b6b7868296838958a40db290a687968b8958840db7908958b8000d42309da9b0ad88b0c949c8ecb88a8f000858901dac90b88b4019540ff9ab49accc99c099aa8ef007b64a8008e4a8e0cda0a0c7b68b800888a000185aa018e98db980adbbc0a6474826778d42408d4370bd4b808888801d4a808647a948a5208e9028268b8008588ff00826ca800d4c808d4090bd4b8085108d002826bb80095ba017b6ab00088a801c898087b68a000d4a808888801c8c8087b689000d8c808c808087b6898009ab9ff007b6988009a99800064487b64707b62687b63605020b80599197b6780007b6850826760826868826988005020ba05a8197b67487b68188268b8009a897f8267788268705020bc058f197b67107b68b80082698800889780007b67588267788268705020be057119826c58826b9000826a98008269a000d4a909826ab000d4ba0ad49a0a93c77b67a800510a0502826750826918d497078269b800dac907826268642a82638800db370a7b6ab80082678000826948d49707826910dac907826b6064badb370a7b6a800093c87b6888004916588051018267b00095798064b764285020c005cc187b67507b68188267788268708269b0005020c205b6187b67107b68488268b0009a8980008267608268685020c405c218826948d49808826ab00088ab80007b6b48826918dab908826970dba8097b6970826810d48707826850dab807826878dba70864a97b68788267608268685020c6055918330c82694893989397826a5895a9ff7b69508ea99599ff7b6948826370826478017b6c7898493f973a01d49a0c974a01826bb80098bb3fd4ba0a7b6a688269487b6c706434d3c903d8c902826b50d8ab0cdb320c978801987a3fd4a8087b6860984a3f977701d47a0a8267b800977701826b800098b83fd4870297b801826b880098b33fd4380397b801826ba80098b43fd4480897bb01826778d47b0b7b6ba80086887b68880086387b68800086277b67b800c9a907d8c707d8a908826260c9290bc98b0bc97b0b99bc3f826758d2c707826868c97804d87808826770c987039478c98a07d88a08c98208826ab0008260a000d40a09889901826b9000d89b02c99b0988ab01c9b000826b9800c92b0b95aaff7b60a0007b6b9800d4b0027b6ab000d49a0bd42b0a84cc017b699000520af2fe2805330c018267a800977701d47c0a01826730aea738098267209777209879204926b8058267407b67a0058267387b67a8059568a0057b69a0007b69b00533075020c8059871ff4926980549269005492680050233072095688005492688055020ca057971ff3308700102390770010256173f0b200370010240019517e08479e07b69a800649133078001027b676083777b68b00083993308407b67b8003300cc050a083302ce052847105022ce054410826728977720987720492678054926700549266805956860057b6790007b67600533075020d0050471ff826778956a00057ba758826780007ba750826788007ba74833072095684005826998007ba9405020d205d770ff8268b000818756173f08480840019517e08477e07b6798005022d40571133300d6050a083302d8052862115022d8055f11956720055020da058d71ff806724058268280582693005977720d49808d487075107390849261805826740956900057b978267387b9708956800058267a0007b971033075020dc055b70ff4926f8044926f0044926e004043307209568e0044926e8045020de053c70ff8268b000818756173f08480840019517e08477e07b67a8005022e005d6120a08826aa80082a71882a81082a90882aa6f777b67a8006f877b6798006f977b6788006fa77b6780004926d8044926d0044926c8049568c0048267307b67c00433075020e205d56fff82678000956a00047ba7b800826788007ba7b000826798007ba7a8003307209568a0048269a8007ba9a0005020e405a36fff8268b000818756173f08480840019517e08477e07b67a8005022e6053d123300e8050a083302ea05288b0e5022ea05880e49269804492690044926880495688004826790007b67800433075020ec05516fff826778956a00047ba778826780007ba770826788007ba76833072095686004826998007ba9605020ee05246fff8268b000818755174008480840019517e08477e07b6798005022f005be113300f2050a083302f40528af0f5022f405ac0f956740045020f605da6fff826740048478ff005108bb0684780000ff005208d9068268580482694804826a50048677000001956b00067bb9087bb77bba107bb818956800068267a8005020f8050d70ff492618048267a000956900047b97108267387b9708956800048267407b9733075020fa057c6eff4926f8034926f0034926e003013307209568e0034926e8035020fc055d6eff8269b000819756173f08480940013a071801027b6798009517e08477e07b6788005022fe05ee100a08826a880082a782a80882a91082aa186f726f8c6f996faa9517e08478e07b68880064817b6a6895a701887a017b6970c8a90bd4b709889901c8c9097b6c78d8c90a7b628000c82a0a7b8b087b877b89107b8a189567c00350200006c86eff956900038297c0003a082001028262d803829ac800829bd000c87808d87807c87a0c95ccffd3ac09d8ac0ada970a95b7ffc87a0ad87a0788b901c99209c89707956900067b98207b9c287b9a307b9738956820068267880050200206e16eff9567a0038268a800502004065a6eff7c67a103510750019517e0847ce064c1826868958702d88708826a7050220606460f826878c88a0ad88a08826b8000c88b0b64c87b6cb8007bc9087bc77bca107bcb1895678003502008060c6eff826780038268980382698803826a900350220a06ab0e956800077b8b207b8c287b89307b8738956820078267b80050200c064f6eff9567600333084050200e069d6bff956b000382b77882b87082b96882ba6050221006640b52072c0449265803492650034926480395684003826798007b67400364a77b6ab80050201206986cff4926d8024926d0024926c8028267307b67c0024926f8024926f0024926e802826790007b67e002492618038267a0007b6710038267387b6708033a072801023a083001023a09380102826a407b6a00037b6738037b6830037b6928033a0740010233082095692003956a0003956be002956cc0027b6720038267b80033002c0628536fff492658064926500649264806492640069567a0029568400650201406e76cff956b000282b7a00082b8b80082b9a80082bab00050221606820d492678064926700649266806492660067b6b80067b6c88067b6990067b679806956760069568800650201806166dff50201a06176aff3a08a001037b68a8003a08b001037b6888003a07a801037b6780000a0a826880006f88978920826a88006faa98aa20d4a909988820826aa8006faa330b80010397ac20d4c80898aa203d0a9001033e088801033e098001034926b8064926b0064926a80682689800956900067b98a0004826c0068e77fc089a787b98f8007b98f0007b98e8007b98e00097bb2098bb20977723d4b7079568a0069788209888209569e006979920d4890a826b6097bb2098bb209568c006978820d4b80c3308ff3309ff0a7b67a8000a0c01510752010a0c647949267802492670024926680295678002956860027b69487b69600250201c062c03826780027b6768826788027b6760826790027b6758826798027b67509567400233084050201e064d69ff956c000282c7587b677882c8507b687082ca487b6a800082cb407b6b88008269507bc9188269587bc9108269607bc9088269687bc97bc7387bc8307bca2895672002956800027bcb205020200684f38269880082677882688000d48707826a70d4a908d47808988820d4a707977720d48707520780014926f8014926f0014926e8019568e0018267487b67e001649750202206f169ff0a0c01826a8800826878826970d498081409e0ffffff00000000d89a09826b800094b9948951093701647898772052072e0183a72064897b68800083887b688800649850202406ec6dff826880007a68000783778368000733090a0b018167000782688800ac87f7008267a8005207af019567a001330840502026063868ff956b000182b7b80082b8b00082b9a80082baa00050222806fb075207c30049269801492690014926880195688001826798007b67800164a77b6ab80050202a062f69ff4926180149261001492608018267307b670001492638014926300149262801826790007b672001492658018267a0007b6750018267387b6748013a074801023a085001023a09580102826a407b6a40017b6778017b6870017b6968013a0760010233082095696001956a4001956b2001956c00017b6760018267b80050202c06ee6bff9551a0f895170007827058827550827648951160073200004926d0054926c8054926c005140700000000d94b11cf9568c0057b67d805330750202e066d68ff390870010256181f0b20037001022001330880010283883307013309040a0d014926d0004926c8004926c0001407000000006d53a9a79568c0007b67d800330733003006282268ff4926f0004926e8004926e000140700000000b6e2a4af9568e0007b67f80033073300300628fa67ff49263004492628044926200414070000000000f90f56956820047b67380433073300300628d267ff4926d0014926c8014926c00114070000000018ecb8909568c0017b67d801330750203006ae67ff8267b000817756171f0c8268b000480820013307013309048268b800330032060a0d01828a18828b108282088eac8eb9dbac09d4ba0a8e2bdba90b520b30828895891fd88908c828088488018499e0959a20d89a09c8980bd88b08da99084917187b7a7b7b087b781032009511b07b10487b15409515508411f050223406a90a502036062767ff4911184911104901413307046418491108502038060f67ff390870010256183f0b200370010240013308800102838833070133092433003a060a0d01951140fe7b10b8017b15b0017b16a8019515c0018411e082897b19588289087b19508289107b19488288187b184082787b18388278107b18308276080a0a6f68978920821a306faa98aa20d4a909988820821a386faa330b80010397ac20d4c80898aa203d0a9001033e088801033e098001038218407b1858018218487b1850018218507b1848018218587b184001482160018e77fc089a787b1898017b1890017b1888017b18800197bb2098bb20977723d4b70795184001978820988820330b80010295198001979920d4890a7b1b1097bb2098bb2095186001978820d4b80c3308ff3309ff0a64760a0c0151074a017b16180a0c647949211801492110014921080195172001951800017b19207b19000150203c064dfe821720017b1748821728017b1740821730017b1738821738017b17309517e00033084050203e066e64ff8217f8007b17508216f0008219e8007b1958821ae0007b1a288218307b18b8008218387b18b0008218407b18a8008218487b18a0007b17d8007b16d0007b19c8009517c0009518a0007b1ac00050204006a1ee821928821750821858d48707d46908d478089888207b1648d46707977720d4870752079900492198004921900049218800951880008217207b17800064976496502042060e65ff0a0c01821850821948d498081409e0ffffff00000000d89609821b5894b99489510953646a647698772052074983a72083687b18586468502044061569ff7a16a00183778318a00133090a0b018117a001821618821858ac871c52061a955140fe8210b8018215b0018216a8019511c00132000049117049116849116014070000000018ecb8909518607b17783307502046067864ff390870010256181f0b200370010220018118103307013309040a0d33073300480628ca68ff330750204806c468ff33070150204a06ba68ff82970881981082996f77977a206f88988820d48a0a9877206f98978920d497079888209569181932028269500182970881981082996f77977a206f88988820d48a0a9877206f98978920d497079888209569ff07959919013202647183793308408267900132027b676801c9a007d8c707d8a008826c3801c9c00bc98b0bc97b0b99b03f82673001d2700782684001c97804d87808c989039498c98a077b674801d88a08c98c0895670001827a9800827c9000d4ca09889901827b8000320282970881981082996f7a97a7206f889888203202da980782695001649a649882696001db970a7b6a680182674801826a3001d4a707826a2001daca07826b580164badb970a7b6a60018267700193c77b677001492630018051018267980195798064b7320282970881981082996f77977a206f88988820d48a0a9877206f98978920d497079888209569182132029517e08477e07b679001647183793308408267100132028269800182970881981082996f77977a206f88988820d48a0a9877206f98978920d4970798882032029598017b689801888701c8a7077b679001d48707887701c837077b678001d83707c807077b6788019a98ff007b6860019a89800082674001826838013202826a800182a71882a81082a90882aa6f777b6770016f877b6768016f977b6760016fa77b6758019517e08477e07b67800164719569ff079599190182677801320282a71882a81082a90882aa6f776f8b6f996faa826870017b8a187b89107b8b087b873202826a700182a71882a81082a90882aa6f777b6768016f877b6760016f977b6758016fa77b6750019517e08477e07b677001647182678801320282a71882a81082a90882aa6f776f886f996faa320282a71882a81082a90882aa6f776f886f996faa956b18293202826a900182a71882a81082a90882aa6f777b6790016f877b6788016f977b6780016fa77b6778019569181933073202d8ab0ac8a90cd89c09daaa09c88909d88908c887073202d49707d48a09d47909989920d48707977720d49707320282644001826338014926580149265001956b000182b928939893977bb74882ba3095a9ff7bb9288ea99599ff7bb920320282a71882a81082a90882aa6f777b6788016f877b6780016f977b6778016fa77b6770019517e08477e03202826aa80082a71882a81082a90882aa6f777b6798006f877b6788006f977b6780006fa77b67789517e08477e07b67a80064713202956b000182b9800082970881981082996f77977a206f88988820d48a0a9877206f98978920d4970798882082b998003202826a900182a71882a81082a90882aa6f776f8b6f996faa826898017b8a187b89107b8b087b8733070020320282a71882a81082a90882aa6f777b6778016f877b6770016f977b6768016fa77b67600132029517e08477e07b67700164718379330840826780013202330b330c8269280193989397826a380195a9ff7b6930018ea99599ff7b692801320282692801d4980882699801889a80007b6a2801826b2001daab08826b3801db980b7b6b3801320298493f973a01d4a909974a0182646801984b3fd4ba0a7b6a4001826020016437d390033202978801826b480198ba3fd4a8087b683801987a3f97b701d47a0a974701826b600198b83f320282a71882a81082a90882aa6f776f8b6f996faa826880017b8a187b89107b8b087b873202956c00017bc898007bca9000d48a077bc9787bcb8800d49b08d487073202826a980082a71882a81082a90882aa6f776f8b6f996faa8268a8007b8a187b89107b8b087b8732027b6a600193b87b686801492638018051018267900195798064c7643832027b6a7b69087b68107b67189551c0821038821530821628951140320233071829c8760a95ab0002320282b77882b8800082b97082ba68d49808d4a707d487073202826a5001c9a707826a8801826b6001c9ab0a956b182195bc00073202d4870782684801daa80782684001db97087b6840018267580182685001320282ab7b1b1882ab087b1b2082ab107b1b2882aa187b1a308296829a087b1a829a107b1a088299187b19103202826b9800c87b0bd87b07c8790cd89c09da7709c8a909d8a907c887073202c867074927f8044927f0044927e8046479140700000000717b484e3308002032027b6710017b682801826890019a89800082675001826840013202c88a09d8a90ada880a3202826a900182a782a80882a91082aa186f776f886f996faa32029517e08479e07b6998016491320282692801d49808826a900188ab80007b6b280182691801dab908320282b73882b84082b93082ba28d49808d4a707d4870732028477ff8488ff8499ff826b70d2ba0a826b9001d4ba0a956b18293202821718821810821908821ad4790bd48a0cd4bc0c98cc20d48b0b97bb20d4cb0b320282a71882a81082a90882aa6f7c6f8b6f976fa93202647183793308408267b80032029517e08477e07b679801647132029517e08477e07b676801647183793308408267800132028267980182692801d4970782691001dab90782634001643a32027b6730017b6828018267600195798082674001826838013202140b00000000010000001407e0ffffff00000000d8780782c99000949794a73202826a680182a71882a81082a90882aa6f7732026f877b6768016f977b6760016fa77b67580132027b682801826898019a89800082675801826850013202491130491128491120140700000000717b484e9518207b17383307320282970881981082996f77977a206f88988820d4a808320282679801817733082332029511c07b10387b15307b16289515408411e0647683173308043202826a880182a71882a81082a90882aa6f776f8b320282a71882a81082a90882aa6f777b6780016f8732027b6748017b68200182674001826838018269980132027b6748017b68680182675801826850018269600132029551a082105882155082164895116032029517e08477e07b677801647132029517e08477e07b677001647132024928e0044928d8044928c804116489330704330800203202837718f9c8760a95ab00063202d897078ea9daa709d4aa07db78093202826a900182608001d40a09889901826b7001320233071821c8760a95ab0006320233071829c8760a95ab000332027b6760017b68980182675001826840018269680132029511c07b10387b15307b16289515408411e06476831732028597ff00d43707d40a08d48707320282b75882b86082b95082ba48d49808d4a707d4870732027b6718017b68100182696801889780007b6738013202956b00017bb87082b8900082b98800d4890982b8980082ba8000d4a808d498083202849a40520a195109148d9a40cfa80ad09808d09707d4a707320032009597c0d0780733083200849a40520a195109148d9a40d0a70acf9707cf9808d4a808320032009598c0cf87083307320049922425494b2a252da9944c4949490a21a11a4292d210a1925429a42449922449922449922449922449922449922449922449922449922449922449aa9294529294942454a5242549922449922449922449922449922449922449922449499294a4aa24254994a492a42a494149929294a4aa2a494952924a922222222549929224a95029a5244929a524a9a4888828222252922409124a252525458a142952a44891a22445444411119192244949922448282a52a4489122458a142952a4489122458a122922224a920421240ca5496948848888484444342222498424894414890851a81a2242440049528948922491842424499224c950124a42495200a51022184a5aa12a119224841052a14a95464444a48808121142844844694420018104121048402001018104121111112911244992248a4442442449922449424444441211111129121104491489888888101111111111911011499224491211894422528444242222228d08922089481a91244112a248892022220a112111210821829144a11229121144888888241289242291922489449244822411112225824844444444440491101111411211111111458814890892924408214424491211118988888894088224482292464444044988a2482a2529494444441412234289084914420423894225a2884015494a4a9224494a4410111191442291442452922491489248242211111111414410914422912449249224898888880822414492049288888888882288282222909424448410222222221111918888882822104802494444444444444144484410089110110895224945511491a40822222222228944442291482422828888888848221049242222222288442292082422891411111111414424888888244992444444444411114144924092888888888888201291a4924424128948101140a29444928888082282a2121111118d8888489204928844232222024988228a0844444441444844100821829144a112d1284955025192082222228944228948a42449229124914044444410514420121111111111814810490a2411111111510411454404929244082144444444222282a2129124221a892449124822d28888a42422a2111111955412492a92a412518994442492a4928824498924924412115144201088884404021181888844522425222222a2884020892211111111111111111111111123221211115110312294882084082651a8484411118188111111051111115122228822930844111181248a24228914442412291109a2c8240251444420824844829824499224894a221111414444124000a92422948888888820224914251194888888081241a944444444342290049288342292a424224a12492291a492444423222229894822894892248924224912258924499224892489244924a9a4244942145144228848220511114a441008218211402451a84414118804119124124944041111898844221111111141442322222aa9249254244925a212298914491295442449124924892422228a402010118908042202111189a4484a444444141188884892449188221249128948101111411251a2448912492a92a4125129224992a4928848924422892412494444442022220211918840444444042291449294a48814898a44442251228a40a4404444042222220291888844221289444420222252495232492289288924914492449248124922118944224924492492944822224992248924922411892211111189221241908428a28844101111511011a144044108118c240a9588224124888888888808222222d28888884824491289244922492249924449920822414444229188888848342289224992248288888848220511452482a424212284109148928888a0a84444444414092222922451242212111111119146244944124992248924111111115110312294882084082651284a4491208aa248a288111111111105112322122911114491490445928aa228224911448c4422914491449248229148248a0411894422111144244944444444440411494992248988888888888888202291484400894a222222894424888a48922425124844444444912048a248248888888888882022124592244908212222891424224124221289120411111104411089482452440441c4489248228a94489244924824892491241289442249244924924849822489242291248a48269210451409222222a2202222948808922884082241a8481449aa8a482412451409222222a2202222948808a2c800228048228822124144444404114544244992924824125991522222a248109144a42022224a4408a2c824822812449288484144444444898808a2c82482282211449292244922222222828888c4224944041111114924494491202222220a2222a24484208a4c2288221241144544444444144444241229111141149944104582481211298888888828111141149944104524828820222222828888880895942491244948922449924424494490449148248a082222444444444492244944924404914844441011111111111189489288201109222292244992242211111145440411910490a824228988888808228a48044949420811111111222222a24444444444229148128988888888882848a2283222914425a25111549448a991482249922492248988082222924892441291244992244944444424910822892491442289249144a248a5445482484424122508222222088220129148a4880882889124914414299124892491481249224924128944924892482491920449124944224914918c48101111512992449248229224121189880822221149922411118944a4201a1140a294445229494912114924828888888888882022914824224144444444444444444444141141249222499224221289444441440288442511512482221a11492449229288244922952422222208208088442949441189442212412422492589888888041101244a49444444248828221144444414444428114114194092a844149108a22882888888888882484424498988208a4ca21245924a29259214114444222288489220222222828820229148440411118924912411491211242549922449241249141144444424499224494410115149499248121109222222494482882495228944249144449224911444119944258a244992481249924a5125492489482249244992444a124924499228a94a92481289244922922449926224924422499228128944444444414412492289941849922412111111111111114124114412894892882062444424888888489224118944444444041111092280484424892449121111114424895224228288202288440001242a228a8888888888880822229152041089a2884844922411414404450411494492242211499224804845444444049188888808a288888888201240222222a868922491884444444444445410a420892a85222222495551452269442491882422918844918824912491244992444404111111114912114412492289442291482289442491249248444a89888812499244444422229224492449922449922422888888888888242209229208222211498288484492444522914844248908922449124992888888482409204945248248244992499248928824914844124444922022129124888844244951241289441289442222226212242549902489a4448288444410111111111111114482884892a4880822922422111111114144118920228914448c08252208a2c8242a11458204519208221289882082888820922422880411232222229224924444448820221240028844292211914824228248248a22221149924400114994221241118d482292241189489224918a4444440411452482a4249148081121222242444444928888082241444444922489a15442a9845209a5124a25944a4404105110220809898800228a845209a512312280882808118484448c0820220aa210492895502aa15442a9444400110521829090880820a2208ac8241a4a25944a2895502aa15442a9845209a5124a25944a289508225110412422a15442a9845289880022a2204410121241240a228844104564120da5124a25944a4444001111052182909088880288288818114a44104564128d880022a22044100a4ba28188888888224110a15442a984520988888888281204114a254622232222824450aad488880288288818114a44a48828222251245108a51210111111512488884812a154a2104a252212111111111111898888888888884424892489244992482412119120542520222222a248104428952042a944442222221211218a28221144444414448c082522081192482408958822124114494444441444444444948808a28844822822114492228a480491228988204644922422914892886844444454524924a948924a542225118948928a0822088220082222222208a24411298220082208820882204824411249224924229148902491442492242212102589684414912442a904114a25221211218a28221144444414448c08252208112232894225a291a4a2288a2092888888288888442225228228229308a2884410498a282211448a2422821811499248922449441491082222220a224684121144119944108d241541c488888882888848a4444410456412415192aaa42449929444041111112302888822112302888822319224464444118920228914448c08252288221209a2481011115110111111252282282291208a040922222222828888980410912281888888884604114a154a556a14421191482292a82022242208112232894254a288441091241141444444045188884844224604101105514426d1002222492292242288282211442491828811a144044114914904d1284955822849041191444410918888484492440411452482a4241111428888881011914444545054224604101145228a480449220511932891208a482488224192881444148994880451442241149108a2881111110511111111252282282293a84414092a9214414444888811014444912884444424222222222222221111894422222211898846124954524924a948924a542225118948922288200882208888888820881245a40882208820082208822091044924892491884422419244129148928848c4880022a2208ac8241a111111111111114414910892924444444484101111424444922222a282a212118988442291888844444444444444442222491289482222222222220a2222428988204488c80022894225a288441011111111444444342222222aa92492542449252a91928844244945049148224924111111414444041191882022222282489224891245a4485424221289125104220511111144444404918888442212894444101145912831124922894822892491249124924492484422914812491289441225894892244992244992442446222322498a22808824a2888888884841444484444404214212194004a11251442248928808222222911151490411491211111111111151101111918808411491481045828888884844144444444444221111441189045144228848241245828888882492442449902489248944101111111111511011891044118904d14852114444441444444444222288221209a24810111151109148241109a288448228221144101141444444441111918888444444448248928c482411110144441408118484c4489246442402888ca4120992482449444424121129101111252204a2884c222892541445914411111111115120222222224a4444208ac824822822114424499222021111114924492449922449442422918888404444221249444444444444042222914491285126221289242222918848818888281121104526114491208aa2888888888802111111112522221045261144234945511441444444444414888888888812111188229308a288441011888888202222894422914422894444444404111191248a11912422092011291022080989480248440a840842428a4a930092a4524a92242994a2489026494a41a114458244912041a11445822812242894a249922425499224494992a4949204058124298110c150128d88442a29499224499224499224492a2949922449922449128888444902480a2491241022184aa2114922959224251a11914a2a892415495289a844a4a424492a22224944228924914444942488241124912448442409121189a488249114894892942882480549124112910449449224499294242895a42499248924494992244912892491249224511445922449922429494412491249442249448d64224924121151202224221042049328a428114582241111110512894412914014994410458208444492884449440a44844404a2c8248222494551141111890211111191880844914904512488888828904824928804a2c824822812442022828888102989084444924805224222025164882482a2245549942449924452128188101149922449924892884044202229498224912225118888082249220291402449101111114520221211111111891042222242222222222222220211111144444444440402214284284a94240a49420811111111454424492491248924198d8a8888441089442291402449229124494a1291201249922411119128d0481240a2a2448aa240445123222212888888202222228a404424222222221221844444844444440422924423228088022182a1a411114044111111404411111140441111114044812822938826a9a4a4244992242525498240929440886028894644444a9224254925254921490821914824228a884892484224492249d6484544442288442291482012914822914844444404499224492222225181260920a9549252208a1a491211114d1240522044304945144820a994a424512495929424a24a144922492291a44412114994544a898a44442251228a40a4924a494a1225518922a994a424259248124944444491a4a2288a248a88925415492a9254144591445192aa4a525514492a8aa2884a922425499222222295242525a9288a22299254144549a222924a494a124592aa224951928aa2284aa2125554244a14898848244a9248224a892492245292aa22494544124991a4aa48525104225549922445a24492a44844224a2412119524494a495224499294882880282222a2244549aa4aa222111129499294248944494a922425a9aa4a94442551892212898a8844144000892a92544551141111250920a9a45252949224a91449aa925454444414111125494aa292a88850a248949214914491281245444449925491a4244952444414894844529224492595244952490100"},"methodIdentifiers":{"STAKE_PER_DAY()":"4a91f7ae","archiveHabit(uint32)":"b650673a","checkIn(uint32,uint64)":"a0145927","claim(uint256)":"379607f5","createHabit(string)":"b683ace1","dailyStatuses(address,uint64,uint32)":"88b21c87","deposit()":"d0e30db0","epochNow()":"222ae786","forceSettleAllEpochs(address,uint64,uint32)":"494bc62d","habits(address,uint32)":"99626634","prepareDay(uint64)":"48cc36b8","redepositFromClaimable(uint256)":"8f23d36c","settle(address,uint64,uint32)":"9c14eb6e","settleAll(address,uint64,uint32)":"45123cce","totalTreasuryReceived()":"badf162d","treasury()":"61d027b3","userHabitCounters(address)":"0e08454a","userStates(address)":"0ecc535f","withdraw(uint256)":"2e1a7d4d"}},"hash":"8fb2493ffbc0543ced897956955eaac88ce303c42f66fac1cfc956ce8b4619ac","factoryDependencies":{}}}}