{"contracts/HabitTracker.sol":{"HabitTracker":{"abi":[{"inputs":[{"internalType":"address","name":"_treasury","type":"address"}],"stateMutability":"nonpayable","type":"constructor"},{"inputs":[],"name":"AlreadyCheckedIn","type":"error"},{"inputs":[],"name":"AlreadySettled","type":"error"},{"inputs":[],"name":"CannotSettleCurrentDay","type":"error"},{"inputs":[],"name":"DayNotFunded","type":"error"},{"inputs":[],"name":"HabitAlreadyArchived","type":"error"},{"inputs":[],"name":"HabitNotFound","type":"error"},{"inputs":[],"name":"HabitTextTooLong","type":"error"},{"inputs":[],"name":"HabitTextTooShort","type":"error"},{"inputs":[],"name":"InsufficientBalance","type":"error"},{"inputs":[],"name":"InvalidAmount","type":"error"},{"inputs":[],"name":"InvalidBatchSize","type":"error"},{"inputs":[],"name":"InvalidEpoch","type":"error"},{"inputs":[],"name":"InvalidTreasury","type":"error"},{"inputs":[],"name":"NotHabitOwner","type":"error"},{"inputs":[],"name":"TransferFailed","type":"error"},{"anonymous":false,"inputs":[{"indexed":true,"internalType":"address","name":"user","type":"address"},{"indexed":true,"internalType":"uint32","name":"habitId","type":"uint32"},{"indexed":true,"internalType":"uint64","name":"epoch","type":"uint64"}],"name":"CheckedIn","type":"event"},{"anonymous":false,"inputs":[{"indexed":true,"internalType":"address","name":"user","type":"address"},{"indexed":false,"internalType":"uint256","name":"amount","type":"uint256"}],"name":"Claimed","type":"event"},{"anonymous":false,"inputs":[{"indexed":true,"internalType":"address","name":"user","type":"address"},{"indexed":true,"internalType":"uint64","name":"epoch","type":"uint64"},{"indexed":false,"internalType":"uint32","name":"fundedCount","type":"uint32"},{"indexed":false,"internalType":"uint32","name":"insufficientCount","type":"uint32"}],"name":"DayPrepared","type":"event"},{"anonymous":false,"inputs":[{"indexed":true,"internalType":"address","name":"user","type":"address"},{"indexed":false,"internalType":"uint256","name":"amount","type":"uint256"}],"name":"Deposited","type":"event"},{"anonymous":false,"inputs":[{"indexed":true,"internalType":"address","name":"user","type":"address"},{"indexed":true,"internalType":"uint32","name":"habitId","type":"uint32"}],"name":"HabitArchived","type":"event"},{"anonymous":false,"inputs":[{"indexed":true,"internalType":"address","name":"user","type":"address"},{"indexed":true,"internalType":"uint32","name":"habitId","type":"uint32"},{"indexed":false,"internalType":"string","name":"text","type":"string"}],"name":"HabitCreated","type":"event"},{"anonymous":false,"inputs":[{"indexed":true,"internalType":"address","name":"user","type":"address"},{"indexed":false,"internalType":"uint256","name":"amount","type":"uint256"}],"name":"RedepositedFromClaimable","type":"event"},{"anonymous":false,"inputs":[{"indexed":true,"internalType":"address","name":"user","type":"address"},{"indexed":true,"internalType":"uint32","name":"habitId","type":"uint32"},{"indexed":true,"internalType":"uint64","name":"epoch","type":"uint64"},{"indexed":false,"internalType":"uint256","name":"slashed","type":"uint256"}],"name":"SettledFail","type":"event"},{"anonymous":false,"inputs":[{"indexed":true,"internalType":"address","name":"user","type":"address"},{"indexed":true,"internalType":"uint32","name":"habitId","type":"uint32"},{"indexed":true,"internalType":"uint64","name":"epoch","type":"uint64"},{"indexed":false,"internalType":"uint256","name":"reward","type":"uint256"}],"name":"SettledSuccess","type":"event"},{"anonymous":false,"inputs":[{"indexed":true,"internalType":"address","name":"user","type":"address"},{"indexed":false,"internalType":"uint256","name":"amount","type":"uint256"}],"name":"Withdrawn","type":"event"},{"inputs":[],"name":"STAKE_PER_DAY","outputs":[{"internalType":"uint256","name":"","type":"uint256"}],"stateMutability":"view","type":"function"},{"inputs":[{"internalType":"uint32","name":"habitId","type":"uint32"}],"name":"archiveHabit","outputs":[],"stateMutability":"nonpayable","type":"function"},{"inputs":[{"internalType":"uint32","name":"habitId","type":"uint32"},{"internalType":"uint64","name":"epoch","type":"uint64"}],"name":"checkIn","outputs":[],"stateMutability":"nonpayable","type":"function"},{"inputs":[{"internalType":"uint256","name":"amount","type":"uint256"}],"name":"claim","outputs":[],"stateMutability":"nonpayable","type":"function"},{"inputs":[{"internalType":"string","name":"text","type":"string"}],"name":"createHabit","outputs":[{"internalType":"uint32","name":"","type":"uint32"}],"stateMutability":"nonpayable","type":"function"},{"inputs":[{"internalType":"address","name":"","type":"address"},{"internalType":"uint64","name":"","type":"uint64"},{"internalType":"uint32","name":"","type":"uint32"}],"name":"dailyStatuses","outputs":[{"internalType":"bool","name":"funded","type":"bool"},{"internalType":"bool","name":"checked","type":"bool"},{"internalType":"bool","name":"settled","type":"bool"}],"stateMutability":"view","type":"function"},{"inputs":[],"name":"deposit","outputs":[],"stateMutability":"payable","type":"function"},{"inputs":[],"name":"epochNow","outputs":[{"internalType":"uint64","name":"","type":"uint64"}],"stateMutability":"view","type":"function"},{"inputs":[],"name":"getContractBalance","outputs":[{"internalType":"uint256","name":"","type":"uint256"}],"stateMutability":"view","type":"function"},{"inputs":[{"internalType":"address","name":"user","type":"address"}],"name":"getTotalUserFunds","outputs":[{"internalType":"uint256","name":"","type":"uint256"}],"stateMutability":"view","type":"function"},{"inputs":[{"internalType":"address","name":"","type":"address"},{"internalType":"uint32","name":"","type":"uint32"}],"name":"habits","outputs":[{"internalType":"uint32","name":"id","type":"uint32"},{"internalType":"address","name":"owner","type":"address"},{"internalType":"string","name":"text","type":"string"},{"internalType":"uint64","name":"createdAtEpoch","type":"uint64"},{"internalType":"bool","name":"archived","type":"bool"}],"stateMutability":"view","type":"function"},{"inputs":[{"internalType":"uint64","name":"epoch","type":"uint64"}],"name":"prepareDay","outputs":[],"stateMutability":"nonpayable","type":"function"},{"inputs":[{"internalType":"uint256","name":"amount","type":"uint256"}],"name":"redepositFromClaimable","outputs":[],"stateMutability":"nonpayable","type":"function"},{"inputs":[{"internalType":"address","name":"user","type":"address"},{"internalType":"uint64","name":"epoch","type":"uint64"},{"internalType":"uint32","name":"habitId","type":"uint32"}],"name":"settle","outputs":[],"stateMutability":"nonpayable","type":"function"},{"inputs":[{"internalType":"address","name":"user","type":"address"},{"internalType":"uint64","name":"epoch","type":"uint64"},{"internalType":"uint32","name":"maxCount","type":"uint32"}],"name":"settleAll","outputs":[],"stateMutability":"nonpayable","type":"function"},{"inputs":[],"name":"totalTreasuryReceived","outputs":[{"internalType":"uint256","name":"","type":"uint256"}],"stateMutability":"view","type":"function"},{"inputs":[],"name":"treasury","outputs":[{"internalType":"address","name":"","type":"address"}],"stateMutability":"view","type":"function"},{"inputs":[{"internalType":"address","name":"","type":"address"}],"name":"userHabitCounters","outputs":[{"internalType":"uint32","name":"","type":"uint32"}],"stateMutability":"view","type":"function"},{"inputs":[{"internalType":"address","name":"","type":"address"}],"name":"userStates","outputs":[{"internalType":"uint256","name":"depositBalance","type":"uint256"},{"internalType":"uint256","name":"blockedBalance","type":"uint256"},{"internalType":"uint256","name":"claimableBalance","type":"uint256"},{"internalType":"uint32","name":"activeHabitCount","type":"uint32"}],"stateMutability":"view","type":"function"},{"inputs":[{"internalType":"uint256","name":"amount","type":"uint256"}],"name":"withdraw","outputs":[],"stateMutability":"nonpayable","type":"function"}],"evm":{"assembly":"// RO data = 0/0 bytes\n// RW data = 380/66000 bytes\n// Stack size = 32768 bytes\n\n// Instructions = 11995\n// Code size = 42474 bytes\n\n      : @0 (gas: 1)\n     0: jump @14 if a0 == a1\n      : @1 (gas: 9)\n     3: a3 = a1 << 0x20\n     6: a3 = a3 >> 0x20\n     9: a4 = a0 << 0x20\n    12: a4 = a4 >> 0x20\n    15: a4 = a4 + a2\n    18: a3 = a3 - a4\n    21: a4 = a2 << 0x1\n    24: a4 = -a4\n    26: jump @7 if a4 >=u a3\n      : @2 (gas: 1)\n    29: jump @11 if a0 >=u a1\n      : @3 (gas: 1)\n    32: jump @14 if a2 == 0\n      : @4 (gas: 3)\n    35: a2 = a2 + a0\n    38: a3 = a0\n    40: fallthrough\n      : @5 (gas: 6)\n    41: a4 = u8 [a1]\n    43: a1 = a1 + 0x1\n    46: a5 = a3 + 0x1\n    49: u8 [a3] = a4\n    51: a3 = a5\n    53: jump @5 if a5 != a2\n      : @6 (gas: 1)\n    56: jump @14\n      : @7 (gas: 1)\n    58: jump @14 if a2 == 0\n      : @8 (gas: 3)\n    61: a2 = a2 + a0\n    64: a3 = a0\n    66: fallthrough\n      : @9 (gas: 6)\n    67: a4 = u8 [a1]\n    69: a1 = a1 + 0x1\n    72: a5 = a3 + 0x1\n    75: u8 [a3] = a4\n    77: a3 = a5\n    79: jump @9 if a5 != a2\n      : @10 (gas: 1)\n    82: jump @14\n      : @11 (gas: 1)\n    84: jump @14 if a2 == 0\n      : @12 (gas: 2)\n    87: i32 a3 = a2 + 0xffffffffffffffff\n    90: fallthrough\n      : @13 (gas: 7)\n    91: a4 = a1 + a3\n    94: a4 = u8 [a4]\n    96: a2 = a2 + 0xffffffffffffffff\n    99: a5 = a0 + a3\n   102: u8 [a5] = a4\n   104: i32 a3 = a3 + 0xffffffffffffffff\n   107: jump @13 if a2 != 0\n      : @14 (gas: 1)\n   110: ret\n      : @15 (gas: 7)\n   112: sp = sp + 0xffffffffffffffe8\n   115: u64 [sp + 0x10] = ra\n   118: u64 [sp + 0x8] = s0\n   121: u64 [sp] = s1\n   123: s1 = 0x20178\n   128: s0 = i32 [0x20178]\n   133: jump @18 if s0 == 0\n      : @16 (gas: 5)\n   136: a0 = 0x301b0\n   141: i32 a0 = a0 + 0\n   143: i32 a1 = s1 + 0\n   145: ecalli 7 // 'get_immutable_data'\n   147: fallthrough\n      : @17 (gas: 3)\n   148: a0 = i32 [0x20178]\n   153: u32 [0x20178] = 0\n   158: jump @19 if a0 <u s0\n      : @18 (gas: 5)\n   161: ra = u64 [sp + 0x10]\n   164: s0 = u64 [sp + 0x8]\n   167: s1 = u64 [sp]\n   169: sp = sp + 0x18\n   172: ret\n      : @19 (gas: 1)\n   174: trap\n      : @20 (gas: 2)\n   175: a1 = i32 [0x20178]\n   180: jump @70 if a1 == 0\n      : @21 (gas: 4)\n   184: a0 = 0x301b0\n   189: i32 a0 = a0 + 0\n   191: ecalli 15 // 'set_immutable_data'\n   193: jump @70\n      : @22 (gas: 8)\n   196: sp = sp + 0xfffffffffffffff0\n   199: u64 [sp + 0x8] = ra\n   202: u64 [sp] = s0\n   204: a2 = a1\n   206: s0 = a0\n   208: a1 = 0x20\n   211: a0 = a2\n   213: ra = 2, jump @37\n      : @23 [@dyn 1] (gas: 100)\n   218: a1 = u8 [a0 + 0x1]\n   221: a2 = u8 [a0]\n   223: a3 = u8 [a0 + 0x2]\n   226: a4 = u8 [a0 + 0x3]\n   229: a1 = a1 << 0x8\n   232: a1 = a1 | a2\n   235: a3 = a3 << 0x10\n   238: a4 = a4 << 0x18\n   241: a3 = a3 | a4\n   244: a1 = a1 | a3\n   247: a2 = u8 [a0 + 0x5]\n   250: a3 = u8 [a0 + 0x4]\n   253: a4 = u8 [a0 + 0x6]\n   256: a5 = u8 [a0 + 0x7]\n   259: a2 = a2 << 0x8\n   262: a2 = a2 | a3\n   265: a4 = a4 << 0x10\n   268: a5 = a5 << 0x18\n   271: a4 = a4 | a5\n   274: a2 = a2 | a4\n   277: a2 = a2 << 0x20\n   280: t0 = a2 | a1\n   283: a2 = u8 [a0 + 0x9]\n   286: a3 = u8 [a0 + 0x8]\n   289: a4 = u8 [a0 + 0xa]\n   292: a5 = u8 [a0 + 0xb]\n   295: a2 = a2 << 0x8\n   298: a2 = a2 | a3\n   301: a4 = a4 << 0x10\n   304: a5 = a5 << 0x18\n   307: a4 = a4 | a5\n   310: a2 = a2 | a4\n   313: a3 = u8 [a0 + 0xd]\n   316: a4 = u8 [a0 + 0xc]\n   319: a5 = u8 [a0 + 0xe]\n   322: a1 = u8 [a0 + 0xf]\n   325: a3 = a3 << 0x8\n   328: a3 = a3 | a4\n   331: a5 = a5 << 0x10\n   334: a1 = a1 << 0x18\n   337: a1 = a1 | a5\n   340: a1 = a1 | a3\n   343: a1 = a1 << 0x20\n   346: t1 = a1 | a2\n   349: a1 = u8 [a0 + 0x11]\n   352: a3 = u8 [a0 + 0x10]\n   355: a4 = u8 [a0 + 0x12]\n   358: a5 = u8 [a0 + 0x13]\n   361: a1 = a1 << 0x8\n   364: a1 = a1 | a3\n   367: a4 = a4 << 0x10\n   370: a5 = a5 << 0x18\n   373: a4 = a4 | a5\n   376: a1 = a1 | a4\n   379: a3 = u8 [a0 + 0x15]\n   382: a4 = u8 [a0 + 0x14]\n   385: a5 = u8 [a0 + 0x16]\n   388: a2 = u8 [a0 + 0x17]\n   391: a3 = a3 << 0x8\n   394: a3 = a3 | a4\n   397: a5 = a5 << 0x10\n   400: a2 = a2 << 0x18\n   403: a2 = a2 | a5\n   406: a2 = a2 | a3\n   409: a2 = a2 << 0x20\n   412: a3 = a2 | a1\n   415: a1 = u8 [a0 + 0x19]\n   418: a2 = u8 [a0 + 0x18]\n   421: a4 = u8 [a0 + 0x1a]\n   424: a5 = u8 [a0 + 0x1b]\n   427: a1 = a1 << 0x8\n   430: a1 = a1 | a2\n   433: a4 = a4 << 0x10\n   436: a5 = a5 << 0x18\n   439: a4 = a4 | a5\n   442: a1 = a1 | a4\n   445: a2 = u8 [a0 + 0x1d]\n   448: a4 = u8 [a0 + 0x1c]\n   451: a5 = u8 [a0 + 0x1e]\n   454: a0 = u8 [a0 + 0x1f]\n   457: a2 = a2 << 0x8\n   460: a2 = a2 | a4\n   463: a5 = a5 << 0x10\n   466: a0 = a0 << 0x18\n   469: a0 = a0 | a5\n   472: a0 = a0 | a2\n   475: a0 = a0 << 0x20\n   478: a0 = a0 | a1\n   481: a0 = reverse a0\n   483: a1 = reverse a3\n   485: a2 = reverse t1\n   487: a3 = reverse t0\n   489: u64 [s0 + 0x18] = a3\n   492: u64 [s0 + 0x10] = a2\n   495: u64 [s0 + 0x8] = a1\n   498: u64 [s0] = a0\n   500: ra = u64 [sp + 0x8]\n   503: s0 = u64 [sp]\n   505: sp = sp + 0x10\n   508: ret\n      : @24 (gas: 12)\n   510: sp = sp + 0xffffffffffffffd8\n   513: u64 [sp + 0x20] = ra\n   516: u64 [sp + 0x18] = s0\n   519: u64 [sp + 0x10] = s1\n   522: a2 = u64 [a1]\n   524: u64 [sp + 0x8] = a2\n   527: a2 = u64 [a1 + 0x8]\n   530: u64 [sp] = a2\n   532: s0 = u64 [a1 + 0x10]\n   535: s1 = u64 [a1 + 0x18]\n   538: a1 = 0x20\n   541: ra = 4, jump @37\n      : @25 [@dyn 2] (gas: 71)\n   546: a1 = reverse s1\n   548: a2 = reverse s0\n   550: a3 = u64 [sp]\n   552: a3 = reverse a3\n   554: a4 = u64 [sp + 0x8]\n   557: a4 = reverse a4\n   559: u8 [a0 + 0x18] = a4\n   562: u8 [a0 + 0x10] = a3\n   565: u8 [a0 + 0x8] = a2\n   568: u8 [a0] = a1\n   570: a5 = a4 >> 0x38\n   573: u8 [a0 + 0x1f] = a5\n   576: a5 = a4 >> 0x30\n   579: u8 [a0 + 0x1e] = a5\n   582: a5 = a4 >> 0x28\n   585: u8 [a0 + 0x1d] = a5\n   588: a5 = a4 >> 0x20\n   591: u8 [a0 + 0x1c] = a5\n   594: a5 = a4 >> 0x18\n   597: u8 [a0 + 0x1b] = a5\n   600: a5 = a4 >> 0x10\n   603: u8 [a0 + 0x1a] = a5\n   606: a4 = a4 >> 0x8\n   609: u8 [a0 + 0x19] = a4\n   612: a4 = a3 >> 0x38\n   615: u8 [a0 + 0x17] = a4\n   618: a4 = a3 >> 0x30\n   621: u8 [a0 + 0x16] = a4\n   624: a4 = a3 >> 0x28\n   627: u8 [a0 + 0x15] = a4\n   630: a4 = a3 >> 0x20\n   633: u8 [a0 + 0x14] = a4\n   636: a4 = a3 >> 0x18\n   639: u8 [a0 + 0x13] = a4\n   642: a4 = a3 >> 0x10\n   645: u8 [a0 + 0x12] = a4\n   648: a3 = a3 >> 0x8\n   651: u8 [a0 + 0x11] = a3\n   654: a3 = a2 >> 0x38\n   657: u8 [a0 + 0xf] = a3\n   660: a3 = a2 >> 0x30\n   663: u8 [a0 + 0xe] = a3\n   666: a3 = a2 >> 0x28\n   669: u8 [a0 + 0xd] = a3\n   672: a3 = a2 >> 0x20\n   675: u8 [a0 + 0xc] = a3\n   678: a3 = a2 >> 0x18\n   681: u8 [a0 + 0xb] = a3\n   684: a3 = a2 >> 0x10\n   687: u8 [a0 + 0xa] = a3\n   690: a2 = a2 >> 0x8\n   693: u8 [a0 + 0x9] = a2\n   696: a2 = a1 >> 0x38\n   699: u8 [a0 + 0x7] = a2\n   702: a2 = a1 >> 0x30\n   705: u8 [a0 + 0x6] = a2\n   708: a2 = a1 >> 0x28\n   711: u8 [a0 + 0x5] = a2\n   714: a2 = a1 >> 0x20\n   717: u8 [a0 + 0x4] = a2\n   720: a2 = a1 >> 0x18\n   723: u8 [a0 + 0x3] = a2\n   726: a2 = a1 >> 0x10\n   729: u8 [a0 + 0x2] = a2\n   732: a1 = a1 >> 0x8\n   735: u8 [a0 + 0x1] = a1\n   738: ra = u64 [sp + 0x20]\n   741: s0 = u64 [sp + 0x18]\n   744: s1 = u64 [sp + 0x10]\n   747: sp = sp + 0x28\n   750: ret\n      : @26 (gas: 43)\n   752: sp = sp + 0xffffffffffffffa0\n   755: u64 [sp + 0x58] = ra\n   758: u64 [sp + 0x50] = s0\n   761: u64 [sp + 0x48] = s1\n   764: s0 = sp + 0x60\n   767: sp = sp & 0xffffffffffffffe0\n   770: s1 = a0\n   772: a0 = u64 [a1 + 0x18]\n   775: a2 = u64 [a1 + 0x10]\n   778: a3 = u64 [a1 + 0x8]\n   781: a1 = u64 [a1]\n   783: a0 = reverse a0\n   785: a2 = reverse a2\n   787: a3 = reverse a3\n   789: a1 = reverse a1\n   791: u64 [sp + 0x18] = a1\n   794: u64 [sp + 0x10] = a3\n   797: u64 [sp + 0x8] = a2\n   800: u64 [sp] = a0\n   802: u64 [sp + 56] = 0\n   805: u64 [sp + 48] = 0\n   808: u64 [sp + 40] = 0\n   811: u64 [sp + 32] = 0\n   814: u32 [sp + 64] = 0x20\n   818: i32 a1 = sp + 0\n   820: i32 a3 = sp + 0x20\n   823: i32 a4 = sp + 0x40\n   826: a2 = 0xffffffffffffffff\n   829: a0 = 0\n   831: ecalli 8 // 'get_storage'\n   833: a0 = u64 [sp + 0x38]\n   836: a1 = u64 [sp + 0x30]\n   839: a2 = u64 [sp + 0x28]\n   842: a3 = u64 [sp + 0x20]\n   845: a0 = reverse a0\n   847: a1 = reverse a1\n   849: a2 = reverse a2\n   851: a3 = reverse a3\n   853: u64 [s1 + 0x18] = a3\n   856: u64 [s1 + 0x10] = a2\n   859: u64 [s1 + 0x8] = a1\n   862: u64 [s1] = a0\n   864: t0 = 6, jump @1574\n      : @27 [@dyn 3] (gas: 1)\n   870: ret\n      : @28 (gas: 40)\n   872: sp = sp + 0xffffffffffffffa0\n   875: u64 [sp + 0x58] = ra\n   878: u64 [sp + 0x50] = s0\n   881: s0 = sp + 0x60\n   884: sp = sp & 0xffffffffffffffe0\n   887: t0 = u64 [a0]\n   889: a3 = u64 [a0 + 0x8]\n   892: a4 = u64 [a0 + 0x10]\n   895: a0 = u64 [a0 + 0x18]\n   898: t1 = u64 [a1]\n   900: a2 = u64 [a1 + 0x8]\n   903: a5 = u64 [a1 + 0x10]\n   906: a1 = u64 [a1 + 0x18]\n   909: t2 = reverse a0\n   911: a4 = reverse a4\n   913: a3 = reverse a3\n   915: a0 = reverse t0\n   917: t0 = reverse a1\n   919: a5 = reverse a5\n   921: a2 = reverse a2\n   923: a1 = reverse t1\n   925: u64 [sp + 0x18] = a0\n   928: u64 [sp + 0x10] = a3\n   931: u64 [sp + 0x8] = a4\n   934: u64 [sp] = t2\n   936: u64 [sp + 0x38] = a1\n   939: u64 [sp + 0x30] = a2\n   942: u64 [sp + 0x28] = a5\n   945: u64 [sp + 0x20] = t0\n   948: i32 a1 = sp + 0\n   950: i32 a3 = sp + 0x20\n   953: a2 = 0xffffffffffffffff\n   956: a4 = 0x20\n   959: a0 = 0\n   961: ecalli 16 // 'set_storage'\n   963: sp = s0 + 0xffffffffffffffa0\n   966: ra = u64 [sp + 0x58]\n   969: s0 = u64 [sp + 0x50]\n   972: sp = sp + 0x60\n   975: ret\n      : @29 (gas: 24)\n   977: sp = sp + 0xffffffffffffff60\n   981: u64 [sp + 0x98] = ra\n   985: u64 [sp + 0x90] = s0\n   989: u64 [sp + 0x88] = s1\n   993: s0 = sp + 0xa0\n   997: sp = sp & 0xffffffffffffffe0\n  1000: a4 = u64 [a3]\n  1002: u64 [sp + 0x38] = a4\n  1005: a4 = u64 [a3 + 0x8]\n  1008: u64 [sp + 0x30] = a4\n  1011: a4 = u64 [a3 + 0x10]\n  1014: u64 [sp + 0x28] = a4\n  1017: a3 = u64 [a3 + 0x18]\n  1020: u64 [sp + 0x20] = a3\n  1023: a3 = u64 [a2]\n  1025: u64 [sp + 0x18] = a3\n  1028: a3 = u64 [a2 + 0x8]\n  1031: u64 [sp + 0x10] = a3\n  1034: a3 = u64 [a2 + 0x10]\n  1037: u64 [sp + 0x8] = a3\n  1040: a2 = u64 [a2 + 0x18]\n  1043: u64 [sp] = a2\n  1045: s1 = a1\n  1047: ra = 8, jump @37\n      : @30 [@dyn 4] (gas: 35)\n  1052: a1 = u64 [sp]\n  1054: a1 = reverse a1\n  1056: a2 = u64 [sp + 0x8]\n  1059: a2 = reverse a2\n  1061: a3 = u64 [sp + 0x10]\n  1064: a3 = reverse a3\n  1066: a4 = u64 [sp + 0x18]\n  1069: a4 = reverse a4\n  1071: u64 [sp + 0x58] = a4\n  1074: u64 [sp + 0x50] = a3\n  1077: u64 [sp + 0x48] = a2\n  1080: u64 [sp + 0x40] = a1\n  1083: a1 = u64 [sp + 0x20]\n  1086: a1 = reverse a1\n  1088: a2 = u64 [sp + 0x28]\n  1091: a2 = reverse a2\n  1093: a3 = u64 [sp + 0x30]\n  1096: a3 = reverse a3\n  1098: a4 = u64 [sp + 0x38]\n  1101: a4 = reverse a4\n  1103: u64 [sp + 0x78] = a4\n  1106: u64 [sp + 0x70] = a3\n  1109: u64 [sp + 0x68] = a2\n  1112: u64 [sp + 0x60] = a1\n  1115: i32 a2 = a0 + 0\n  1117: i32 a3 = s1 + 0\n  1119: i32 a0 = sp + 0x40\n  1122: a1 = 0x2\n  1125: ecalli 6 // 'deposit_event'\n  1127: sp = s0 + 0xffffffffffffff60\n  1131: ra = u64 [sp + 0x98]\n  1135: s0 = u64 [sp + 0x90]\n  1139: s1 = u64 [sp + 0x88]\n  1143: sp = sp + 0xa0\n  1147: ret\n      : @31 (gas: 15)\n  1149: sp = sp + 0xffffffffffffff20\n  1153: u64 [sp + 0xd8] = ra\n  1157: u64 [sp + 0xd0] = s0\n  1161: u64 [sp + 0xc8] = s1\n  1165: s0 = sp + 0xe0\n  1169: sp = sp & 0xffffffffffffffe0\n  1172: a5 = u64 [a4]\n  1174: u64 [sp + 0x40] = a5\n  1177: a5 = u64 [a4 + 0x8]\n  1180: u64 [sp + 0x48] = a5\n  1183: a5 = u64 [a4 + 0x10]\n  1186: u64 [sp + 0x50] = a5\n  1189: a4 = u64 [a4 + 0x18]\n  1192: u64 [sp + 0x58] = a4\n  1195: t0 = 10, jump @1545\n      : @32 [@dyn 5] (gas: 2)\n  1201: u64 [sp + 0x38] = a1\n  1204: ra = 12, jump @37\n      : @33 [@dyn 6] (gas: 46)\n  1209: a1 = reverse s1\n  1211: u64 [sp + 0x78] = a1\n  1214: a1 = u64 [sp]\n  1216: a1 = reverse a1\n  1218: u64 [sp + 0x70] = a1\n  1221: a1 = u64 [sp + 0x8]\n  1224: a1 = reverse a1\n  1226: u64 [sp + 0x68] = a1\n  1229: a1 = u64 [sp + 0x10]\n  1232: a1 = reverse a1\n  1234: u64 [sp + 0x60] = a1\n  1237: a1 = u64 [sp + 0x18]\n  1240: a1 = reverse a1\n  1242: u64 [sp + 0x98] = a1\n  1246: a1 = u64 [sp + 0x20]\n  1249: a1 = reverse a1\n  1251: u64 [sp + 0x90] = a1\n  1255: a1 = u64 [sp + 0x28]\n  1258: a1 = reverse a1\n  1260: u64 [sp + 0x88] = a1\n  1264: a1 = u64 [sp + 0x30]\n  1267: a1 = reverse a1\n  1269: u64 [sp + 0x80] = a1\n  1273: a1 = u64 [sp + 0x40]\n  1276: a1 = reverse a1\n  1278: u64 [sp + 0xb8] = a1\n  1282: a1 = u64 [sp + 0x48]\n  1285: a1 = reverse a1\n  1287: u64 [sp + 0xb0] = a1\n  1291: a1 = u64 [sp + 0x50]\n  1294: a1 = reverse a1\n  1296: u64 [sp + 0xa8] = a1\n  1300: a1 = u64 [sp + 0x58]\n  1303: a1 = reverse a1\n  1305: u64 [sp + 0xa0] = a1\n  1309: i32 a2 = a0 + 0\n  1311: a3 = i32 [sp + 0x38]\n  1314: i32 a0 = sp + 0x60\n  1317: a1 = 0x3\n  1320: ecalli 6 // 'deposit_event'\n  1322: sp = s0 + 0xffffffffffffff20\n  1326: ra = u64 [sp + 0xd8]\n  1330: s0 = u64 [sp + 0xd0]\n  1334: s1 = u64 [sp + 0xc8]\n  1338: sp = sp + 0xe0\n  1342: ret\n      : @34 (gas: 23)\n  1344: sp = sp + 0xfffffffffffffee0\n  1348: u64 [sp + 0x118] = ra\n  1352: u64 [sp + 0x110] = s0\n  1356: u64 [sp + 0x108] = s1\n  1360: s0 = sp + 0x120\n  1364: sp = sp & 0xffffffffffffffe0\n  1367: s1 = u64 [a5]\n  1369: u64 [sp + 0x60] = s1\n  1372: s1 = u64 [a5 + 0x8]\n  1375: u64 [sp + 0x68] = s1\n  1378: s1 = u64 [a5 + 0x10]\n  1381: u64 [sp + 0x70] = s1\n  1384: a5 = u64 [a5 + 0x18]\n  1387: u64 [sp + 0x78] = a5\n  1390: a5 = u64 [a4]\n  1392: u64 [sp + 0x38] = a5\n  1395: a5 = u64 [a4 + 0x8]\n  1398: u64 [sp + 0x40] = a5\n  1401: a5 = u64 [a4 + 0x10]\n  1404: u64 [sp + 0x48] = a5\n  1407: a4 = u64 [a4 + 0x18]\n  1410: u64 [sp + 0x50] = a4\n  1413: t0 = 14, jump @1545\n      : @35 [@dyn 7] (gas: 2)\n  1419: u64 [sp + 0x58] = a1\n  1422: ra = 16, jump @37\n      : @36 [@dyn 8] (gas: 58)\n  1427: a1 = reverse s1\n  1429: u64 [sp + 0x98] = a1\n  1433: a1 = u64 [sp]\n  1435: a1 = reverse a1\n  1437: u64 [sp + 0x90] = a1\n  1441: a1 = u64 [sp + 0x8]\n  1444: a1 = reverse a1\n  1446: u64 [sp + 0x88] = a1\n  1450: a1 = u64 [sp + 0x10]\n  1453: a1 = reverse a1\n  1455: u64 [sp + 0x80] = a1\n  1459: a1 = u64 [sp + 0x18]\n  1462: a1 = reverse a1\n  1464: u64 [sp + 0xb8] = a1\n  1468: a1 = u64 [sp + 0x20]\n  1471: a1 = reverse a1\n  1473: u64 [sp + 0xb0] = a1\n  1477: a1 = u64 [sp + 0x28]\n  1480: a1 = reverse a1\n  1482: u64 [sp + 0xa8] = a1\n  1486: a1 = u64 [sp + 0x30]\n  1489: a1 = reverse a1\n  1491: u64 [sp + 0xa0] = a1\n  1495: a1 = u64 [sp + 0x38]\n  1498: a1 = reverse a1\n  1500: u64 [sp + 0xd8] = a1\n  1504: a1 = u64 [sp + 0x40]\n  1507: a1 = reverse a1\n  1509: u64 [sp + 0xd0] = a1\n  1513: a1 = u64 [sp + 0x48]\n  1516: a1 = reverse a1\n  1518: u64 [sp + 0xc8] = a1\n  1522: a1 = u64 [sp + 0x50]\n  1525: a1 = reverse a1\n  1527: u64 [sp + 0xc0] = a1\n  1531: a1 = u64 [sp + 0x60]\n  1534: a1 = reverse a1\n  1536: u64 [sp + 0xf8] = a1\n  1540: a1 = u64 [sp + 0x68]\n  1543: a1 = reverse a1\n  1545: u64 [sp + 0xf0] = a1\n  1549: a1 = u64 [sp + 0x70]\n  1552: a1 = reverse a1\n  1554: u64 [sp + 0xe8] = a1\n  1558: a1 = u64 [sp + 0x78]\n  1561: a1 = reverse a1\n  1563: u64 [sp + 0xe0] = a1\n  1567: i32 a2 = a0 + 0\n  1569: a3 = i32 [sp + 0x58]\n  1572: i32 a0 = sp + 0x80\n  1576: a1 = 0x4\n  1579: ecalli 6 // 'deposit_event'\n  1581: sp = s0 + 0xfffffffffffffee0\n  1585: ra = u64 [sp + 0x118]\n  1589: s0 = u64 [sp + 0x110]\n  1593: s1 = u64 [sp + 0x108]\n  1597: sp = sp + 0x120\n  1601: ret\n      : @37 (gas: 2)\n  1603: i32 a2 = a0 >> 0x10\n  1606: jump @42 if a2 != 0\n      : @38 (gas: 4)\n  1609: a1 = a1 + a0\n  1612: i32 a1 = a1 + 0x1f\n  1615: a1 = a1 & 0xffffffffffffffe0\n  1618: jump @42 if a1 >u 65536\n      : @39 (gas: 3)\n  1624: a2 = 0x20180\n  1629: a3 = i32 [0x20180]\n  1634: jump @41 if a3 >=u a1\n      : @40 (gas: 2)\n  1637: u32 [0x20180] = a1\n  1642: fallthrough\n      : @41 (gas: 4)\n  1643: a1 = 0x20190\n  1648: i32 a0 = a0 + 0\n  1650: a0 = a0 + a1\n  1653: ret\n      : @42 (gas: 1)\n  1655: trap\n      : @43 (gas: 6)\n  1656: sp = sp + 0xfffffffffffffff0\n  1659: u64 [sp + 0x8] = ra\n  1662: u64 [sp] = s0\n  1664: s0 = a0 & 0x1\n  1667: ecalli 4 // 'call_data_size'\n  1669: fallthrough\n      : @44 (gas: 2)\n  1670: u32 [0x2017c] = a0\n  1675: jump @46 if s0 == 0\n      : @45 (gas: 1)\n  1678: ra = 18, jump @47\n      : @46 [@dyn 9] (gas: 1)\n  1682: ra = 20, jump @73\n      : @47 [@dyn 10] (gas: 13)\n  1687: sp = sp + 0xffffffffffffff00\n  1691: u64 [sp + 0xf8] = ra\n  1695: u64 [sp + 0xf0] = s0\n  1699: u64 [sp + 0xe8] = s1\n  1703: s0 = sp + 0x100\n  1707: sp = sp & 0xffffffffffffffe0\n  1710: u64 [sp + 216] = 0\n  1714: u64 [sp + 208] = 0\n  1718: u64 [sp + 200] = 0\n  1722: u64 [sp + 192] = 0\n  1726: i32 a0 = sp + 0xc0\n  1730: ecalli 17 // 'value_transferred'\n  1732: fallthrough\n      : @48 (gas: 8)\n  1733: a0 = u64 [sp + 0xd0]\n  1737: a1 = u64 [sp + 0xd8]\n  1741: a2 = u64 [sp + 0xc8]\n  1745: a3 = u64 [sp + 0xc0]\n  1749: a1 = a1 | a2\n  1752: a0 = a0 | a3\n  1755: a0 = a0 | a1\n  1758: jump @60 if a0 != 0\n      : @49 (gas: 15)\n  1762: s1 = i32 [0x2017c]\n  1767: a0 = s1 << 0x20\n  1770: a0 = a0 >> 0x20\n  1773: a0 = a0 + 0x1f\n  1776: a0 = a0 & 0xffffffffffffffe0\n  1779: a1 = a0 + 0xa0\n  1783: a0 = a1 <u a0\n  1786: u64 [sp + 0xa0] = a1\n  1790: u64 [sp + 0xa8] = a0\n  1794: a0 = 0 if a0 != 0\n  1796: u64 [sp + 0xb0] = a0\n  1800: a0 = 0x40\n  1803: a1 = sp + 0xa0\n  1807: u64 [sp + 184] = 0\n  1811: ra = 22, jump @24\n      : @50 [@dyn 11] (gas: 3)\n  1816: a0 = 0xa0\n  1820: a1 = s1\n  1822: ra = 24, jump @37\n      : @51 [@dyn 12] (gas: 5)\n  1827: i32 a0 = a0 + 0\n  1829: a1 = s1\n  1831: a2 = 0\n  1833: ecalli 2 // 'call_data_copy'\n  1835: fallthrough\n      : @52 (gas: 1)\n  1836: jump @61 if s1 <=u 31\n      : @53 (gas: 3)\n  1841: a0 = sp + 0x80\n  1845: a1 = 0xa0\n  1849: ra = 26, jump @22\n      : @54 [@dyn 13] (gas: 10)\n  1854: a0 = u64 [sp + 0x90]\n  1858: a2 = u64 [sp + 0x98]\n  1862: a1 = 0x100000000\n  1872: a1 = a1 ^ a0\n  1875: a1 = a1 | a2\n  1878: a3 = a0 >> 0x20\n  1881: a3 = a3 <u 0x1\n  1884: a3 = 0 if a2 != 0\n  1886: a3 = 0 if a1 == 0\n  1888: jump @62 if a3 == 0\n      : @55 (gas: 6)\n  1891: a1 = u64 [sp + 0x80]\n  1895: a3 = u64 [sp + 0x88]\n  1899: a4 = a1 | a0\n  1902: a5 = a3 | a2\n  1905: a4 = a4 | a5\n  1908: jump @63 if a4 == 0\n      : @56 (gas: 7)\n  1911: u64 [sp + 0x60] = a1\n  1914: u64 [sp + 0x68] = a3\n  1917: u64 [sp + 0x70] = a0\n  1920: a0 = 0x80\n  1924: a1 = sp + 0x60\n  1927: u64 [sp + 0x78] = a2\n  1930: ra = 28, jump @24\n      : @57 [@dyn 14] (gas: 3)\n  1935: a0 = sp + 0x40\n  1938: a1 = 0x40\n  1941: ra = 30, jump @22\n      : @58 [@dyn 15] (gas: 12)\n  1946: a0 = u64 [sp + 0x58]\n  1949: a1 = u64 [sp + 0x50]\n  1952: a2 = u64 [sp + 0x48]\n  1955: s1 = u64 [sp + 0x40]\n  1958: a0 = a0 | a2\n  1961: a2 = s1 | a1\n  1964: a2 = a2 | a0\n  1967: a2 = a2 >> 0x20\n  1970: a0 = a0 | a1\n  1973: a0 = a0 << 0x20\n  1976: a0 = a0 | a2\n  1979: jump @67 if a0 == 0\n      : @59 (gas: 1)\n  1982: trap\n      : @60 (gas: 4)\n  1983: a1 = 0x20190\n  1988: i32 a1 = a1 + 0\n  1990: a0 = 0x1\n  1993: jump @72\n      : @61 (gas: 4)\n  1996: a1 = 0x20190\n  2001: i32 a1 = a1 + 0\n  2003: a0 = 0x1\n  2006: jump @72\n      : @62 (gas: 4)\n  2009: a1 = 0x20190\n  2014: i32 a1 = a1 + 0\n  2016: a0 = 0x1\n  2019: jump @72\n      : @63 (gas: 8)\n  2022: u64 [sp + 16] = 0\n  2025: u64 [sp + 8] = 0\n  2028: u64 [sp + 0] = 0\n  2030: a0 = 0x14bcf5c800000000\n  2040: a1 = sp\n  2042: u64 [sp + 0x18] = a0\n  2045: a0 = 0\n  2047: ra = 32, jump @24\n      : @64 [@dyn 16] (gas: 2)\n  2052: a1 = i32 [0x20180]\n  2057: jump @66 if a1 >u 31\n      : @65 (gas: 2)\n  2061: u32 [0x20180] = 0x20\n  2067: fallthrough\n      : @66 (gas: 6)\n  2068: a1 = 0x20190\n  2073: i32 a1 = a1 + 0\n  2075: a0 = 0x1\n  2078: a2 = 0x4\n  2081: ecalli 14 // 'seal_return'\n  2083: fallthrough\n      : @67 (gas: 3)\n  2084: a0 = s1\n  2086: a1 = 0\n  2088: ra = 34, jump @37\n      : @68 [@dyn 17] (gas: 7)\n  2093: i32 a0 = a0 + 0\n  2095: a1 = 0\n  2097: a2 = 0\n  2099: ecalli 2 // 'call_data_copy'\n  2101: a0 = sp + 0x20\n  2104: a1 = 0x80\n  2108: ra = 36, jump @22\n      : @69 [@dyn 18] (gas: 9)\n  2113: a0 = u64 [sp + 0x38]\n  2116: a2 = u64 [sp + 0x30]\n  2119: a3 = u64 [sp + 0x28]\n  2122: a4 = u64 [sp + 0x20]\n  2125: u64 [0x301c8] = a0\n  2130: u64 [0x301c0] = a2\n  2135: u64 [0x301b8] = a3\n  2140: u64 [0x301b0] = a4\n  2145: jump @20\n      : @70 (gas: 3)\n  2148: a0 = s1\n  2150: a1 = 0\n  2152: ra = 38, jump @37\n      : @71 [@dyn 19] (gas: 6)\n  2157: i32 a1 = a0 + 0\n  2159: a0 = 0\n  2161: a2 = 0\n  2163: ra = 0x28\n  2166: ecalli 14 // 'seal_return'\n  2168: jump @73\n      : @72 (gas: 4)\n  2170: a2 = 0\n  2172: ra = 0x28\n  2175: ecalli 14 // 'seal_return'\n  2177: fallthrough\n      : @73 [@dyn 20] (gas: 16)\n  2178: sp = sp + 0xfffffffffffffe10\n  2182: u64 [sp + 0x1e8] = ra\n  2186: u64 [sp + 0x1e0] = s0\n  2190: u64 [sp + 0x1d8] = s1\n  2194: s0 = sp + 0x1f0\n  2198: sp = sp + 0xffffffffffffce90\n  2202: sp = sp & 0xffffffffffffffe0\n  2205: s1 = sp\n  2207: a2 = s1 + 0x2918\n  2211: u64 [a2 + 192] = 0\n  2215: u64 [a2 + 184] = 0\n  2219: u64 [a2 + 168] = 0x80\n  2225: a0 = 0x40\n  2228: a1 = s1 + 0x29c0\n  2232: u64 [a2 + 176] = 0\n  2236: ra = 42, jump @24\n      : @74 [@dyn 21] (gas: 4)\n  2241: a0 = 0x2017c\n  2246: u64 [s1 + 0x198] = a0\n  2250: a0 = i32 [0x2017c]\n  2255: jump @76 if a0 >=u 4\n      : @75 (gas: 1)\n  2259: jump @1038\n      : @76 (gas: 6)\n  2262: a0 = s1 + 0x3000\n  2266: i32 a0 = a0 + 0xfffffffffffff9e0\n  2270: a1 = 0\n  2272: ra = 0x2c\n  2275: ecalli 3 // 'call_data_load'\n  2277: fallthrough\n      : @77 [@dyn 22] (gas: 3)\n  2278: a2 = s1 + 0x2918\n  2282: a0 = i32 [a2 + 0xe4]\n  2286: jump @79 if a0 != 2293374087\n      : @78 (gas: 1)\n  2293: jump @310\n      : @79 (gas: 1)\n  2296: jump @157 if a0 == 2401489772\n      : @80 (gas: 1)\n  2304: jump @82 if a0 != 2573362740\n      : @81 (gas: 1)\n  2311: jump @497\n      : @82 (gas: 2)\n  2314: a3 = s1 + 0x3118\n  2318: jump @84 if a0 != 3062082785\n      : @83 (gas: 1)\n  2325: jump @447\n      : @84 (gas: 1)\n  2328: jump @86 if a0 != 3135182381\n      : @85 (gas: 1)\n  2335: jump @354\n      : @86 (gas: 1)\n  2338: jump @88 if a0 != 3504541104\n      : @87 (gas: 1)\n  2345: jump @220\n      : @88 (gas: 1)\n  2348: jump @115 if a0 == 248271711\n      : @89 (gas: 1)\n  2356: jump @192 if a0 == 573237126\n      : @90 (gas: 1)\n  2364: jump @92 if a0 != 723922879\n      : @91 (gas: 1)\n  2371: jump @418\n      : @92 (gas: 1)\n  2374: jump @94 if a0 != 773487949\n      : @93 (gas: 1)\n  2381: jump @368\n      : @94 (gas: 1)\n  2384: jump @96 if a0 != 932579317\n      : @95 (gas: 1)\n  2391: jump @272\n      : @96 (gas: 1)\n  2394: jump @98 if a0 != 1221342904\n      : @97 (gas: 1)\n  2401: jump @248\n      : @98 (gas: 1)\n  2404: jump @100 if a0 != 1251080110\n      : @99 (gas: 1)\n  2411: jump @408\n      : @100 (gas: 1)\n  2414: jump @102 if a0 == 1641031603\n      : @101 (gas: 1)\n  2421: jump @534\n      : @102 (gas: 10)\n  2424: u64 [a2 + 1344] = 0\n  2428: u64 [a2 + 1336] = 0\n  2432: u64 [a2 + 1328] = 0\n  2436: u64 [a2 + 1320] = 0\n  2440: a0 = s1 + 0x3000\n  2444: i32 a0 = a0 + 0xfffffffffffffe40\n  2448: ra = 0x2e\n  2451: ecalli 17 // 'value_transferred'\n  2453: t0 = 0x30\n  2456: jump @1542\n      : @103 [@dyn 23] (gas: 1)\n  2460: t0 = 48, jump @1542\n      : @104 [@dyn 24] (gas: 1)\n  2466: t0 = 50, jump @1550\n      : @105 [@dyn 25] (gas: 1)\n  2472: jump @107 if a0 == 0\n      : @106 (gas: 1)\n  2475: jump @854\n      : @107 (gas: 3)\n  2478: a0 = u64 [s1 + 0x198]\n  2482: a0 = i32 [a0]\n  2484: jump @109 if a0 >u 3\n      : @108 (gas: 1)\n  2488: jump @855\n      : @109 (gas: 3)\n  2491: a0 = s1 + 0x11a0\n  2495: a1 = 0x40\n  2498: ra = 52, jump @22\n      : @110 [@dyn 26] (gas: 10)\n  2503: a0 = s1 + 0x1118\n  2507: a1 = u64 [a0 + 0xa0]\n  2511: u64 [s1 + 0x198] = a1\n  2515: a1 = u64 [a0 + 0x98]\n  2519: u64 [s1 + 0x190] = a1\n  2523: a1 = u64 [a0 + 0x90]\n  2527: u64 [s1 + 0x180] = a1\n  2531: a0 = u64 [a0 + 0x88]\n  2535: u64 [s1 + 0x188] = a0\n  2539: ra = 54, jump @15\n      : @111 [@dyn 27] (gas: 14)\n  2544: a4 = s1 + 0x100\n  2548: a0 = u64 [a4 + 0x98]\n  2552: a1 = u64 [a4 + 0x80]\n  2556: a0 = a0 | a1\n  2559: a1 = u64 [a4 + 0x88]\n  2563: a3 = a1\n  2565: a2 = u64 [a4 + 0x90]\n  2569: a1 = a1 | a2\n  2572: a1 = a1 | a0\n  2575: a1 = a1 >> 0x20\n  2578: a0 = a0 | a2\n  2581: a0 = a0 << 0x20\n  2584: a0 = a0 | a1\n  2587: jump @113 if a0 == 0\n      : @112 (gas: 1)\n  2590: jump @848\n      : @113 (gas: 11)\n  2593: a2 = u64 [0x301b0]\n  2598: a1 = u64 [0x301b8]\n  2603: a0 = u32 [0x301c0]\n  2608: a4 = s1 + 0x1118\n  2612: u64 [a4 + 128] = 0\n  2616: u64 [a4 + 0x78] = a0\n  2619: u64 [a4 + 0x70] = a1\n  2622: a1 = s1 + 0x1180\n  2626: u64 [a4 + 0x68] = a2\n  2629: a0 = a3\n  2631: ra = 56, jump @24\n      : @114 [@dyn 28] (gas: 4)\n  2636: a1 = 0x20\n  2639: a0 = u64 [s1 + 0x188]\n  2643: ra = 0x3c4\n  2647: jump @37\n      : @115 (gas: 10)\n  2650: u64 [a2 + 320] = 0\n  2654: u64 [a2 + 312] = 0\n  2658: u64 [a2 + 304] = 0\n  2662: u64 [a2 + 296] = 0\n  2666: a0 = s1 + 0x3000\n  2670: i32 a0 = a0 + 0xfffffffffffffa40\n  2674: ra = 0x3a\n  2677: ecalli 17 // 'value_transferred'\n  2679: t0 = 0x3c\n  2682: jump @1584\n      : @116 [@dyn 29] (gas: 1)\n  2686: t0 = 60, jump @1584\n      : @117 [@dyn 30] (gas: 1)\n  2692: t0 = 62, jump @1550\n      : @118 [@dyn 31] (gas: 1)\n  2698: jump @120 if a0 == 0\n      : @119 (gas: 1)\n  2701: jump @856\n      : @120 (gas: 1)\n  2704: t0 = 64, jump @1562\n      : @121 [@dyn 32] (gas: 1)\n  2710: jump @123 if a1 <u a0\n      : @122 (gas: 1)\n  2713: jump @857\n      : @123 (gas: 4)\n  2716: a0 = s1 + 0x3a0\n  2720: ra = 0x42\n  2723: t0 = 0x578\n  2727: jump @1568\n      : @124 [@dyn 33] (gas: 10)\n  2731: a0 = u64 [s1 + 0x3a0]\n  2735: a1 = u64 [s1 + 0x3a8]\n  2739: a2 = u32 [s1 + 0x3b0]\n  2743: u64 [s1 + 920] = 0\n  2747: u64 [s1 + 0x390] = a2\n  2751: u64 [s1 + 0x388] = a1\n  2755: a1 = s1 + 0x380\n  2759: u64 [s1 + 0x380] = a0\n  2763: a0 = 0\n  2765: ra = 68, jump @24\n      : @125 [@dyn 34] (gas: 7)\n  2770: u64 [s1 + 888] = 0\n  2774: u64 [s1 + 880] = 0\n  2778: u64 [s1 + 864] = 0x1\n  2783: a0 = 0x20\n  2786: a1 = s1 + 0x360\n  2790: u64 [s1 + 872] = 0\n  2794: ra = 70, jump @24\n      : @126 [@dyn 35] (gas: 1)\n  2799: t0 = 72, jump @1576\n      : @127 [@dyn 36] (gas: 2)\n  2805: a1 = i32 [0x20180]\n  2810: jump @129 if a1 >u 63\n      : @128 (gas: 4)\n  2814: a1 = 0x40\n  2817: u32 [0x20180] = a1\n  2822: t0 = 0x4a\n  2825: jump @1541\n      : @129 (gas: 1)\n  2829: t0 = 74, jump @1541\n      : @130 [@dyn 37] (gas: 7)\n  2835: a0 = 0x20190\n  2840: i32 a0 = a0 + 0\n  2842: i32 a2 = a2 + 0\n  2844: a1 = 0x40\n  2847: ra = 0x4c\n  2850: ecalli 9 // 'hash_keccak_256'\n  2852: fallthrough\n      : @131 [@dyn 38] (gas: 10)\n  2853: a3 = u64 [s1 + 0x198]\n  2857: a0 = u64 [a3 + 0x18]\n  2860: a1 = u64 [a3 + 0x10]\n  2863: a2 = u64 [a3 + 0x8]\n  2866: a3 = u64 [a3]\n  2868: a5 = reverse a0\n  2870: u64 [s1 + 0x188] = a5\n  2874: a4 = reverse a1\n  2876: u64 [s1 + 0x190] = a4\n  2880: t0 = 78, jump @1555\n      : @132 [@dyn 39] (gas: 4)\n  2886: u64 [a1 + 0x8] = a4\n  2889: u64 [a1] = a5\n  2891: a0 = s1 + 0x340\n  2895: ra = 80, jump @26\n      : @133 [@dyn 40] (gas: 8)\n  2900: a0 = u64 [s1 + 0x358]\n  2904: u64 [s1 + 0x178] = a0\n  2908: a0 = u64 [s1 + 0x350]\n  2912: u64 [s1 + 0x170] = a0\n  2916: a0 = u64 [s1 + 0x348]\n  2920: u64 [s1 + 0x168] = a0\n  2924: a0 = u64 [s1 + 0x340]\n  2928: t0 = 82, jump @1547\n      : @134 [@dyn 41] (gas: 15)\n  2934: a3 = a2 + 0x100\n  2938: u64 [a3 + 0x50] = a1\n  2941: a1 = a1 | a0\n  2944: u64 [a3 + 0x48] = a0\n  2947: a0 = a1 <u 0x1\n  2950: a1 = u64 [s1 + 0x180]\n  2954: a0 = a0 + a1\n  2957: u64 [a3 + 0x58] = a0\n  2960: a0 = a0 <u a1\n  2963: a1 = u64 [s1 + 0x198]\n  2967: a0 = a0 + a1\n  2970: u64 [a3 + 0x60] = a0\n  2973: a0 = s1 + 0x320\n  2977: a1 = s1 + 0x2a60\n  2981: ra = 84, jump @26\n      : @135 [@dyn 42] (gas: 11)\n  2986: a0 = u64 [s1 + 0x338]\n  2990: u64 [s1 + 0x158] = a0\n  2994: a0 = u64 [s1 + 0x330]\n  2998: u64 [s1 + 0x150] = a0\n  3002: a0 = u64 [s1 + 0x328]\n  3006: u64 [s1 + 0x148] = a0\n  3010: a0 = u64 [s1 + 0x320]\n  3014: u64 [s1 + 0x140] = a0\n  3018: a1 = u64 [s1 + 0x188]\n  3022: a0 = a1 + 0x2\n  3025: t0 = 86, jump @1540\n      : @136 [@dyn 43] (gas: 1)\n  3031: t0 = 88, jump @1554\n      : @137 [@dyn 44] (gas: 9)\n  3037: a4 = s1 + 0x2918\n  3041: a5 = a4 + 0x100\n  3045: u64 [a5 + 0x80] = a1\n  3049: u64 [a5 + 0x78] = a3\n  3052: u64 [a5 + 0x70] = a2\n  3055: u64 [a5 + 0x68] = a0\n  3058: a0 = s1 + 0x300\n  3062: a1 = s1 + 0x2a80\n  3066: ra = 90, jump @26\n      : @138 [@dyn 45] (gas: 8)\n  3071: a5 = s1 + 0x300\n  3075: a0 = u64 [a5 + 0x18]\n  3078: u64 [s1 + 0x138] = a0\n  3082: a0 = u64 [a5 + 0x10]\n  3085: u64 [s1 + 0x130] = a0\n  3089: a1 = u64 [s1 + 0x188]\n  3093: a0 = a1 + 0x3\n  3096: t0 = 92, jump @1540\n      : @139 [@dyn 46] (gas: 3)\n  3102: a1 = u64 [a5 + 0x8]\n  3105: u64 [s1 + 0x188] = a1\n  3109: t0 = 94, jump @1554\n      : @140 [@dyn 47] (gas: 11)\n  3115: a4 = u64 [a5]\n  3117: u64 [s1 + 0x180] = a4\n  3121: a4 = s1 + 0x2918\n  3125: a5 = a4 + 0x100\n  3129: u64 [a5 + 0xa0] = a1\n  3133: u64 [a5 + 0x98] = a3\n  3137: u64 [a5 + 0x90] = a2\n  3141: u64 [a5 + 0x88] = a0\n  3145: a0 = s1 + 0x2e0\n  3149: a1 = s1 + 0x2aa0\n  3153: ra = 96, jump @26\n      : @141 [@dyn 48] (gas: 5)\n  3158: a0 = u64 [s1 + 0x2e0]\n  3162: u64 [s1 + 0x128] = a0\n  3166: a0 = s1 + 0x2c0\n  3170: a1 = 0x40\n  3173: ra = 98, jump @22\n      : @142 [@dyn 49] (gas: 13)\n  3178: a0 = s1 + 0x200\n  3182: a4 = u64 [a0 + 0xd8]\n  3186: a5 = u64 [a0 + 0xd0]\n  3190: a3 = u64 [a0 + 0xc8]\n  3194: a2 = u64 [a0 + 0xc0]\n  3198: a0 = a3 | a4\n  3201: a1 = a2 | a5\n  3204: a1 = a1 | a0\n  3207: a1 = a1 >> 0x20\n  3210: a0 = a0 | a5\n  3213: a0 = a0 << 0x20\n  3216: a0 = a0 | a1\n  3219: jump @144 if a0 == 0\n      : @143 (gas: 1)\n  3222: jump @848\n      : @144 (gas: 15)\n  3225: a0 = u64 [s1 + 0x160]\n  3229: u64 [s1 + 0x2a0] = a0\n  3233: a0 = u64 [s1 + 0x168]\n  3237: u64 [s1 + 0x2a8] = a0\n  3241: a0 = u64 [s1 + 0x170]\n  3245: u64 [s1 + 0x2b0] = a0\n  3249: a1 = s1 + 0x2a0\n  3253: a0 = u64 [s1 + 0x178]\n  3257: u64 [s1 + 0x2b8] = a0\n  3261: a0 = a2\n  3263: u64 [s1 + 0x198] = a2\n  3267: u64 [s1 + 0x190] = a3\n  3271: u64 [s1 + 0x178] = a4\n  3275: u64 [s1 + 0x170] = a5\n  3279: ra = 100, jump @24\n      : @145 [@dyn 50] (gas: 6)\n  3284: a5 = s1 + 0x100\n  3288: a1 = u64 [a5 + 0x98]\n  3292: a0 = u64 [a5 + 0x78]\n  3295: a3 = u64 [a5 + 0x70]\n  3298: a3 = a3 | a0\n  3301: t0 = 102, jump @1565\n      : @146 [@dyn 51] (gas: 1)\n  3307: jump @148 if a0 != 0\n      : @147 (gas: 1)\n  3310: jump @848\n      : @148 (gas: 14)\n  3313: i32 a0 = a1 + 0x20\n  3316: a1 = u64 [s1 + 0x140]\n  3320: a5 = s1 + 0x200\n  3324: u64 [a5 + 0x80] = a1\n  3328: a1 = u64 [s1 + 0x148]\n  3332: u64 [a5 + 0x88] = a1\n  3336: a1 = u64 [s1 + 0x150]\n  3340: u64 [a5 + 0x90] = a1\n  3344: a1 = s1 + 0x280\n  3348: a2 = u64 [s1 + 0x158]\n  3352: u64 [a5 + 0x98] = a2\n  3356: u64 [s1 + 0x178] = a3\n  3360: u64 [s1 + 0x170] = a4\n  3364: ra = 104, jump @24\n      : @149 [@dyn 52] (gas: 10)\n  3369: a2 = s1 + 0x100\n  3373: a4 = u64 [a2 + 0x78]\n  3376: a3 = u64 [a2 + 0x90]\n  3380: a1 = u64 [a2 + 0x98]\n  3384: a0 = u64 [a2 + 0x70]\n  3387: a0 = a0 + 0xffffffffffffffc0\n  3390: a0 = a1 <u a0\n  3393: a0 = 0 if a3 != 0\n  3395: a0 = 0 if a4 != 0\n  3397: jump @151 if a0 != 0\n      : @150 (gas: 1)\n  3400: jump @848\n      : @151 (gas: 12)\n  3403: i32 a0 = a1 + 0x40\n  3406: a1 = u64 [s1 + 0x180]\n  3410: a3 = s1 + 0x200\n  3414: u64 [a3 + 0x60] = a1\n  3417: a1 = u64 [s1 + 0x188]\n  3421: u64 [a3 + 0x68] = a1\n  3424: a1 = u64 [s1 + 0x130]\n  3428: u64 [a3 + 0x70] = a1\n  3431: a1 = s1 + 0x260\n  3435: a2 = u64 [s1 + 0x138]\n  3439: u64 [a3 + 0x78] = a2\n  3442: ra = 106, jump @24\n      : @152 [@dyn 53] (gas: 9)\n  3447: a3 = s1 + 0x100\n  3451: a2 = u64 [a3 + 0x98]\n  3455: a0 = 0xffffffa0\n  3465: a0 = a2 <u a0\n  3468: a1 = u64 [a3 + 0x90]\n  3472: a0 = 0 if a1 != 0\n  3474: a1 = u64 [a3 + 0x78]\n  3477: a0 = 0 if a1 != 0\n  3479: jump @154 if a0 != 0\n      : @153 (gas: 1)\n  3482: jump @848\n      : @154 (gas: 10)\n  3485: a0 = u64 [s1 + 0x128]\n  3489: a0 = a0 << 0x20\n  3492: a1 = a0 >> 0x20\n  3495: i32 a0 = a2 + 0x60\n  3498: u64 [s1 + 600] = 0\n  3502: u64 [s1 + 592] = 0\n  3506: u64 [s1 + 0x240] = a1\n  3510: a1 = s1 + 0x240\n  3514: u64 [s1 + 584] = 0\n  3518: ra = 108, jump @24\n      : @155 [@dyn 54] (gas: 3)\n  3523: a1 = 0x80\n  3527: a0 = u64 [s1 + 0x198]\n  3531: ra = 110, jump @37\n      : @156 [@dyn 55] (gas: 6)\n  3536: i32 a1 = a0 + 0\n  3538: a2 = 0x80\n  3542: a0 = 0\n  3544: ra = 0x3c6\n  3548: ecalli 14 // 'seal_return'\n  3550: jump @962\n      : @157 (gas: 10)\n  3553: u64 [a2 + 1472] = 0\n  3557: u64 [a2 + 1464] = 0\n  3561: u64 [a2 + 1456] = 0\n  3565: u64 [a2 + 1448] = 0\n  3569: a0 = s1 + 0x3000\n  3573: i32 a0 = a0 + 0xfffffffffffffec0\n  3577: ra = 0x70\n  3580: ecalli 17 // 'value_transferred'\n  3582: t0 = 0x72\n  3585: jump @1542\n      : @158 [@dyn 56] (gas: 1)\n  3589: t0 = 114, jump @1542\n      : @159 [@dyn 57] (gas: 1)\n  3595: t0 = 116, jump @1551\n      : @160 [@dyn 58] (gas: 1)\n  3601: jump @162 if a0 == 0\n      : @161 (gas: 1)\n  3604: jump @858\n      : @162 (gas: 1)\n  3607: t0 = 118, jump @1562\n      : @163 [@dyn 59] (gas: 1)\n  3613: jump @165 if a1 <u a0\n      : @164 (gas: 1)\n  3616: jump @859\n      : @165 (gas: 5)\n  3619: a0 = s1 + 0x3000\n  3623: i32 a0 = a0 + 0xfffffffffffffee0\n  3627: a1 = 0x4\n  3630: ecalli 3 // 'call_data_load'\n  3632: fallthrough\n      : @166 (gas: 15)\n  3633: a0 = s1 + 0x2918\n  3637: a5 = a0 + 0x500\n  3641: a1 = u64 [a5 + 0xe0]\n  3645: a2 = u64 [a5 + 0xd8]\n  3649: a3 = u64 [a5 + 0xd0]\n  3653: a4 = u64 [a5 + 0xc8]\n  3657: a5 = s1 + 0x100\n  3661: u64 [a5 + 0x78] = a1\n  3664: u64 [a5 + 0x90] = a3\n  3668: a0 = a3 | a1\n  3671: u64 [a5 + 0x98] = a2\n  3675: u64 [a5 + 0x88] = a4\n  3679: a1 = a4 | a2\n  3682: a0 = a0 | a1\n  3685: jump @168 if a0 != 0\n      : @167 (gas: 1)\n  3688: jump @860\n      : @168 (gas: 9)\n  3691: a0 = 0x30190\n  3696: u64 [s1 + 0x170] = a0\n  3700: i32 a0 = a0 + 0\n  3702: u64 [s1 + 0x150] = a0\n  3706: ra = 0x78\n  3709: ecalli 5 // 'caller'\n  3711: a2 = u64 [s1 + 0x170]\n  3715: t0 = 0x7a\n  3718: jump @1524\n      : @169 [@dyn 60] (gas: 2)\n  3722: a2 = u64 [s1 + 0x170]\n  3726: t0 = 122, jump @1524\n      : @170 [@dyn 61] (gas: 8)\n  3732: u64 [a2 + 1184] = 0\n  3736: a4 = a2 + 0x400\n  3740: u64 [a4 + 0x98] = a1\n  3744: u64 [a4 + 0x90] = a0\n  3748: a1 = s1 + 0x15a0\n  3752: u64 [a4 + 0x88] = a3\n  3756: a0 = 0\n  3758: ra = 124, jump @24\n      : @171 [@dyn 62] (gas: 3)\n  3763: t0 = 0x7e\n  3766: a1 = s1 + 0x1118\n  3770: fallthrough\n      : @172 [@dyn 63] (gas: 8)\n  3771: u64 [a1 + 1152] = 0\n  3775: u64 [a1 + 1144] = 0\n  3779: u64 [a1 + 1128] = 0x1\n  3784: a2 = a1\n  3786: a0 = 0x20\n  3789: a1 = s1 + 0x1580\n  3793: u64 [a2 + 1136] = 0\n  3797: ra = 128, jump @24\n      : @173 [@dyn 64] (gas: 7)\n  3803: a0 = sp + 0xffffffffffffffe0\n  3806: a0 = a0 & 0xffffffffffffffe0\n  3809: u64 [s1 + 0x180] = a0\n  3813: sp = a0\n  3815: a2 = 0x20180\n  3820: a0 = i32 [0x20180]\n  3825: jump @175 if a0 >u 63\n      : @174 (gas: 2)\n  3829: u32 [0x20180] = 0x40\n  3835: fallthrough\n      : @175 (gas: 43)\n  3836: u64 [s1 + 0x148] = a2\n  3840: a0 = sp + 0xffffffffffffffe0\n  3843: a2 = a0 & 0xffffffffffffffe0\n  3846: u64 [s1 + 0x168] = a2\n  3850: sp = a2\n  3852: a0 = 0x20190\n  3857: i32 a0 = a0 + 0\n  3859: i32 a2 = a2 + 0\n  3861: a1 = 0x40\n  3864: u64 [s1 + 0x158] = a0\n  3868: ecalli 9 // 'hash_keccak_256'\n  3870: a3 = u64 [s1 + 0x168]\n  3874: a0 = u64 [a3 + 0x18]\n  3877: a1 = u64 [a3 + 0x10]\n  3880: a2 = u64 [a3 + 0x8]\n  3883: a3 = u64 [a3]\n  3885: a0 = reverse a0\n  3887: a5 = reverse a1\n  3889: a2 = reverse a2\n  3891: t0 = reverse a3\n  3893: a4 = u64 [s1 + 0x180]\n  3897: u64 [a4 + 0x18] = t0\n  3900: u64 [a4 + 0x10] = a2\n  3903: u64 [a4 + 0x8] = a5\n  3906: u64 [a4] = a0\n  3908: a4 = sp + 0xffffffffffffffe0\n  3911: a1 = a4 & 0xffffffffffffffe0\n  3914: sp = a1\n  3916: a4 = a0 + 0x2\n  3919: a0 = a4 <u a0\n  3922: a3 = a5 + a0\n  3925: a5 = a3 <u a5\n  3928: a5 = a0 if a0 == 0\n  3931: a5 = a5 + a2\n  3934: a0 = a5 <u a2\n  3937: a0 = a0 + t0\n  3940: u64 [a1 + 0x10] = a5\n  3943: u64 [a1 + 0x8] = a3\n  3946: u64 [a1] = a4\n  3948: u64 [a1 + 0x18] = a0\n  3951: a0 = s1 + 0x1560\n  3955: u64 [s1 + 0x168] = a1\n  3959: ra = 130, jump @26\n      : @176 [@dyn 65] (gas: 22)\n  3965: a4 = s1 + 0x1118\n  3969: a5 = u64 [a4 + 0x460]\n  3973: a1 = u64 [a4 + 0x450]\n  3977: t2 = u64 [a4 + 0x458]\n  3981: t1 = u64 [a4 + 0x448]\n  3985: ra = u64 [s1 + 0x178]\n  3989: a0 = a5 ^ ra\n  3992: a2 = u64 [s1 + 0x190]\n  3996: t0 = a1 ^ a2\n  3999: a3 = a1 <u a2\n  4002: a2 = u64 [s1 + 0x188]\n  4006: a2 = t1 <u a2\n  4009: a2 = a3 if t0 != 0\n  4012: u64 [s1 + 0x160] = a5\n  4016: a3 = a5 <u ra\n  4019: t0 = u64 [s1 + 0x198]\n  4023: a5 = t2 <u t0\n  4026: a5 = a3 if a0 != 0\n  4029: a3 = t2 ^ t0\n  4032: a3 = a3 | a0\n  4035: a2 = a5 if a3 != 0\n  4038: jump @178 if a2 == 0\n      : @177 (gas: 1)\n  4041: jump @864\n      : @178 (gas: 17)\n  4044: a0 = u64 [s1 + 0x188]\n  4048: a2 = a4 + 0x300\n  4052: u64 [a2 + 0xe8] = a0\n  4056: u64 [a4 + 0x408] = t1\n  4060: a0 = u64 [s1 + 0x190]\n  4064: u64 [a2 + 0xf0] = a0\n  4068: u64 [a4 + 0x410] = a1\n  4072: a0 = u64 [s1 + 0x198]\n  4076: u64 [a2 + 0xf8] = a0\n  4080: u64 [a4 + 0x418] = t2\n  4084: u64 [a4 + 0x400] = ra\n  4088: a0 = s1 + 0x1540\n  4092: a1 = s1 + 0x1520\n  4096: a2 = s1 + 0x1500\n  4100: a3 = u64 [s1 + 0x160]\n  4104: u64 [a4 + 0x420] = a3\n  4108: ra = 132, jump @1353\n      : @179 [@dyn 66] (gas: 17)\n  4114: a0 = s1 + 0x1118\n  4118: a0 = u64 [a0 + 0x440]\n  4122: a1 = s1 + 0x1118\n  4126: a1 = u64 [a1 + 0x438]\n  4130: a2 = s1 + 0x1118\n  4134: a2 = u64 [a2 + 0x430]\n  4138: a3 = s1 + 0x1118\n  4142: a3 = u64 [a3 + 0x428]\n  4146: a4 = s1 + 0x2918\n  4150: u64 [a4 + 0x600] = a0\n  4154: a0 = a4 + 0x500\n  4158: u64 [a0 + 0xf8] = a1\n  4162: u64 [a0 + 0xf0] = a2\n  4166: u64 [a0 + 0xe8] = a3\n  4170: a1 = s1 + 0x2f00\n  4174: a0 = u64 [s1 + 0x168]\n  4178: ra = 134, jump @28\n      : @180 [@dyn 67] (gas: 3)\n  4184: a0 = s1 + 0x14e0\n  4188: a1 = u64 [s1 + 0x180]\n  4192: ra = 136, jump @26\n      : @181 [@dyn 68] (gas: 32)\n  4198: a0 = s1 + 0x1118\n  4202: a3 = u64 [a0 + 0x3c8]\n  4206: a0 = s1 + 0x1118\n  4210: a0 = u64 [a0 + 0x3d0]\n  4214: a1 = s1 + 0x1118\n  4218: a1 = u64 [a1 + 0x3d8]\n  4222: a2 = s1 + 0x1118\n  4226: a2 = u64 [a2 + 0x3e0]\n  4230: a4 = s1 + 0x1118\n  4234: a5 = u64 [s1 + 0x178]\n  4238: u64 [a4 + 0x380] = a5\n  4242: a4 = s1 + 0x1118\n  4246: a5 = u64 [s1 + 0x198]\n  4250: u64 [a4 + 0x378] = a5\n  4254: a4 = s1 + 0x1118\n  4258: a5 = u64 [s1 + 0x190]\n  4262: u64 [a4 + 0x370] = a5\n  4266: a4 = s1 + 0x1118\n  4270: a5 = u64 [s1 + 0x188]\n  4274: u64 [a4 + 0x368] = a5\n  4278: a4 = s1 + 0x1118\n  4282: u64 [a4 + 0x3a0] = a2\n  4286: a2 = s1 + 0x1118\n  4290: u64 [a2 + 0x398] = a1\n  4294: a1 = s1 + 0x1118\n  4298: u64 [a1 + 0x390] = a0\n  4302: a0 = s1 + 0x14c0\n  4306: a1 = s1 + 0x14a0\n  4310: a2 = s1 + 0x1480\n  4314: a4 = s1 + 0x1118\n  4318: u64 [a4 + 0x388] = a3\n  4322: ra = 138, jump @1345\n      : @182 [@dyn 69] (gas: 17)\n  4328: a0 = s1 + 0x1118\n  4332: a0 = u64 [a0 + 0x3c0]\n  4336: a1 = s1 + 0x1118\n  4340: a1 = u64 [a1 + 0x3b8]\n  4344: a2 = s1 + 0x1118\n  4348: a2 = u64 [a2 + 0x3b0]\n  4352: a3 = s1 + 0x1118\n  4356: a3 = u64 [a3 + 0x3a8]\n  4360: a4 = s1 + 0x2918\n  4364: a5 = a4 + 0x600\n  4368: u64 [a5 + 0x20] = a0\n  4371: u64 [a5 + 0x18] = a1\n  4374: u64 [a5 + 0x10] = a2\n  4377: u64 [a5 + 0x8] = a3\n  4380: a1 = s1 + 0x2f20\n  4384: a0 = u64 [s1 + 0x180]\n  4388: ra = 140, jump @28\n      : @183 [@dyn 70] (gas: 3)\n  4394: a0 = s1 + 0x1460\n  4398: a1 = 0x40\n  4401: ra = 142, jump @22\n      : @184 [@dyn 71] (gas: 7)\n  4407: a3 = s1 + 0x1118\n  4411: a5 = a3 + 0x300\n  4415: a0 = u64 [a5 + 0x60]\n  4418: a1 = u64 [a5 + 0x58]\n  4421: a2 = u64 [a5 + 0x50]\n  4424: a4 = u64 [a5 + 0x48]\n  4427: t0 = 144, jump @1543\n      : @185 [@dyn 72] (gas: 1)\n  4434: jump @187 if a0 == 0\n      : @186 (gas: 1)\n  4437: jump @848\n      : @187 (gas: 13)\n  4440: a0 = u64 [s1 + 0x188]\n  4444: a2 = a3 + 0x300\n  4448: u64 [a2 + 0x28] = a0\n  4451: a0 = u64 [s1 + 0x190]\n  4455: u64 [a2 + 0x30] = a0\n  4458: a0 = u64 [s1 + 0x198]\n  4462: u64 [a2 + 0x38] = a0\n  4465: a1 = s1 + 0x1440\n  4469: a0 = u64 [s1 + 0x178]\n  4473: u64 [a2 + 0x40] = a0\n  4476: a0 = a4\n  4478: u64 [s1 + 0x198] = a4\n  4482: ra = 146, jump @24\n      : @188 [@dyn 73] (gas: 6)\n  4488: a0 = u64 [s1 + 0x150]\n  4492: ra = 0x94\n  4496: ecalli 5 // 'caller'\n  4498: a2 = u64 [s1 + 0x170]\n  4502: t0 = 0x96\n  4506: jump @1509\n      : @189 [@dyn 74] (gas: 2)\n  4510: a2 = u64 [s1 + 0x170]\n  4514: t0 = 150, jump @1509\n      : @190 [@dyn 75] (gas: 24)\n  4521: t0 = a1 | a0\n  4524: a3 = a3 >> 0x20\n  4527: a2 = reverse a2\n  4529: a1 = a2 << 0x20\n  4532: a1 = a1 | a3\n  4535: a2 = a2 >> 0x20\n  4538: a3 = u64 [0x20080]\n  4543: a0 = s1 + 0x1118\n  4547: u64 [a0 + 0x320] = a3\n  4551: a3 = u64 [0x20088]\n  4556: a4 = u64 [0x20090]\n  4561: a5 = u64 [0x20098]\n  4566: u64 [a0 + 0x318] = a3\n  4570: u64 [a0 + 0x310] = a4\n  4574: u64 [a0 + 768] = 0\n  4578: u64 [a0 + 0x308] = a5\n  4582: u64 [a0 + 0x2f8] = a2\n  4586: u64 [a0 + 0x2f0] = a1\n  4590: a1 = 0x20\n  4593: a2 = s1 + 0x1420\n  4597: a3 = s1 + 0x1400\n  4601: u64 [a0 + 0x2e8] = t0\n  4605: a0 = u64 [s1 + 0x198]\n  4609: ra = 152, jump @29\n      : @191 [@dyn 76] (gas: 7)\n  4615: a0 = 0\n  4617: a1 = u64 [s1 + 0x158]\n  4621: a2 = 0\n  4623: ra = 0x428\n  4627: ecalli 14 // 'seal_return'\n  4629: t0 = 0x42a\n  4633: jump @1562\n      : @192 (gas: 10)\n  4637: u64 [a2 + 448] = 0\n  4641: u64 [a2 + 440] = 0\n  4645: u64 [a2 + 432] = 0\n  4649: u64 [a2 + 424] = 0\n  4653: a0 = s1 + 0x3000\n  4657: i32 a0 = a0 + 0xfffffffffffffac0\n  4661: ra = 0x9a\n  4665: ecalli 17 // 'value_transferred'\n  4667: t0 = 0x9c\n  4671: jump @1584\n      : @193 [@dyn 77] (gas: 1)\n  4675: t0 = 156, jump @1584\n      : @194 [@dyn 78] (gas: 1)\n  4682: t0 = 158, jump @1551\n      : @195 [@dyn 79] (gas: 1)\n  4689: jump @197 if a0 == 0\n      : @196 (gas: 1)\n  4692: jump @868\n      : @197 (gas: 3)\n  4695: a0 = u64 [s1 + 0x198]\n  4699: a0 = i32 [a0]\n  4701: jump @199 if a0 >u 3\n      : @198 (gas: 1)\n  4705: jump @869\n      : @199 (gas: 17)\n  4708: a0 = s1 + 0x3000\n  4712: i32 a0 = a0 + 0xfffffffffffffae0\n  4716: ecalli 10 // 'now'\n  4718: a0 = s1 + 0x2918\n  4722: a2 = a0 + 0x100\n  4726: a1 = u64 [a2 + 0xe0]\n  4730: a3 = s1 + 0x100\n  4734: u64 [a3 + 0x58] = a1\n  4737: a1 = u64 [a2 + 0xd8]\n  4741: u64 [a3 + 0x50] = a1\n  4744: a1 = u64 [a2 + 0xd0]\n  4748: u64 [a3 + 0x98] = a1\n  4752: a0 = u64 [a2 + 0xc8]\n  4756: u64 [a3 + 0x90] = a0\n  4760: a0 = s1 + 0x3e0\n  4764: a1 = 0x40\n  4767: ra = 160, jump @22\n      : @200 [@dyn 80] (gas: 6)\n  4773: a4 = s1 + 0x300\n  4777: a0 = u64 [a4 + 0xf8]\n  4781: a1 = u64 [a4 + 0xf0]\n  4785: a2 = u64 [a4 + 0xe8]\n  4789: a3 = u64 [a4 + 0xe0]\n  4793: t0 = 162, jump @1520\n      : @201 [@dyn 81] (gas: 1)\n  4800: jump @203 if a0 == 0\n      : @202 (gas: 1)\n  4803: jump @848\n      : @203 (gas: 46)\n  4806: u64 [s1 + 0x118] = a3\n  4810: t1 = u64 [s1 + 0x150]\n  4814: a0 = clz t1\n  4816: a0 = a0 + 0x40\n  4819: ra = u64 [s1 + 0x158]\n  4823: a2 = clz ra\n  4825: a2 = a0 if ra == 0\n  4828: t2 = u64 [s1 + 0x190]\n  4832: a0 = clz t2\n  4834: a0 = a0 + 0x40\n  4837: t0 = u64 [s1 + 0x198]\n  4841: a1 = clz t0\n  4843: a1 = a0 if t0 == 0\n  4846: a0 = a1 + 0x80\n  4850: a3 = t1 | ra\n  4853: a2 = a0 if a3 == 0\n  4856: a5 = a0 <u a1\n  4859: a5 = 0 if a3 != 0\n  4861: a4 = a5 >u 0\n  4863: a0 = a2 <u 0xf0\n  4867: a3 = a0 ^ 0x1\n  4870: a4 = a3 if a5 == 0\n  4873: a0 = a4 <u 0x1\n  4876: a0 = a0 + 0xffffffffffffffff\n  4879: a1 = -a4\n  4881: a5 = -a5\n  4883: a3 = a5 - a3\n  4886: a2 = 0xef - a2\n  4890: u64 [s1 + 0x178] = a1\n  4894: a5 = a1 >u 0\n  4896: a1 = a0 >u 0\n  4898: a1 = a5 if a0 == 0\n  4901: a5 = a3 >u 0\n  4903: u64 [s1 + 0x168] = a2\n  4907: a2 = a2 <u 0x100\n  4911: a2 = a2 ^ 0x1\n  4914: a2 = a5 if a3 != 0\n  4917: a2 = a1 if a4 != 0\n  4920: a1 = t2 | t1\n  4923: a4 = t0 | ra\n  4926: a1 = a1 | a4\n  4929: a1 = a1 <u 0x1\n  4932: a1 = a1 | a2\n  4935: a4 = t2\n  4937: a4 = 0 if a1 != 0\n  4939: jump @205 if a1 == 0\n      : @204 (gas: 1)\n  4942: jump @958\n      : @205 (gas: 7)\n  4945: a1 = u64 [s1 + 0x168]\n  4949: a1 = a1 ^ 0xff\n  4953: a2 = u64 [s1 + 0x178]\n  4957: a1 = a1 | a2\n  4960: a2 = a3 | a0\n  4963: a1 = a1 | a2\n  4966: jump @207 if a1 != 0\n      : @206 (gas: 1)\n  4969: jump @958\n      : @207 (gas: 20)\n  4972: a4 = u64 [s1 + 0x168]\n  4976: a2 = a4 + 0x1\n  4979: u64 [s1 + 0x188] = a2\n  4983: a1 = a2 <u 0x1\n  4986: a1 = a1 + a3\n  4989: u64 [s1 + 0x180] = a1\n  4993: a1 = a1 | a2\n  4996: a1 = a1 <u 0x1\n  4999: a3 = u64 [s1 + 0x178]\n  5003: a1 = a1 + a3\n  5006: u64 [s1 + 0x170] = a1\n  5010: a1 = a1 <u a3\n  5013: a0 = a0 + a1\n  5016: u64 [s1 + 0x178] = a0\n  5020: a1 = 0xff - a4\n  5024: u64 [s1 + 0x140] = a1\n  5028: a2 = 0x80 - a1\n  5032: a0 = u64 [s1 + 0x190]\n  5036: a1 = u64 [s1 + 0x198]\n  5040: ra = 164, jump @1589\n      : @208 [@dyn 82] (gas: 6)\n  5047: u64 [s1 + 0x138] = a0\n  5051: u64 [s1 + 0x148] = a1\n  5055: a0 = u64 [s1 + 0x150]\n  5059: a1 = u64 [s1 + 0x158]\n  5063: a2 = u64 [s1 + 0x140]\n  5067: ra = 166, jump @1594\n      : @209 [@dyn 83] (gas: 7)\n  5074: u64 [s1 + 0x130] = a0\n  5078: u64 [s1 + 0x128] = a1\n  5082: a0 = u64 [s1 + 0x140]\n  5086: a2 = a0 + 0xffffffffffffff80\n  5089: a0 = u64 [s1 + 0x190]\n  5093: a1 = u64 [s1 + 0x198]\n  5097: ra = 168, jump @1594\n      : @210 [@dyn 84] (gas: 8)\n  5104: u64 [s1 + 0x120] = a0\n  5108: u64 [s1 + 0x110] = a1\n  5112: a2 = u64 [s1 + 0x140]\n  5116: a0 = a2 <u 0x80\n  5120: u64 [s1 + 0x108] = a0\n  5124: a0 = u64 [s1 + 0x190]\n  5128: a1 = u64 [s1 + 0x198]\n  5132: ra = 170, jump @1594\n      : @211 [@dyn 85] (gas: 13)\n  5139: a4 = s1 + 0x100\n  5143: u64 [a4 + 0x60] = a1\n  5146: a1 = u64 [a4 + 0x80]\n  5150: a2 = u64 [a4 + 0x78]\n  5153: a2 = a2 | a1\n  5156: a1 = u64 [a4 + 0x88]\n  5160: a3 = u64 [a4 + 0x70]\n  5163: a1 = a1 | a3\n  5166: a1 = a1 | a2\n  5169: a3 = u64 [a4 + 0x8]\n  5172: a0 = 0 if a3 == 0\n  5174: u64 [a4 + 0x68] = a0\n  5177: jump @213 if a1 != 0\n      : @212 (gas: 1)\n  5180: jump @956\n      : @213 (gas: 30)\n  5183: a2 = a3\n  5185: a0 = u64 [s1 + 0x148]\n  5189: a1 = u64 [s1 + 0x128]\n  5193: a0 = a0 | a1\n  5196: a5 = a3\n  5198: a1 = u64 [s1 + 0x110]\n  5202: a0 = a1 if a2 == 0\n  5205: a2 = u64 [s1 + 0x158]\n  5209: a3 = a2\n  5211: a1 = a2\n  5213: a2 = u64 [s1 + 0x140]\n  5217: a3 = a0 if a2 != 0\n  5220: u64 [s1 + 0x148] = a3\n  5224: a0 = u64 [s1 + 0x138]\n  5228: a3 = u64 [s1 + 0x130]\n  5232: a0 = a0 | a3\n  5235: a3 = u64 [s1 + 0x120]\n  5239: a0 = a3 if a5 == 0\n  5242: a4 = u64 [s1 + 0x150]\n  5246: a3 = a4\n  5248: a3 = a0 if a2 != 0\n  5251: u64 [s1 + 0x140] = a3\n  5255: a0 = u64 [s1 + 0x160]\n  5259: a0 = 0 if a5 == 0\n  5261: u64 [s1 + 0x160] = a0\n  5265: u64 [s1 + 304] = 0x15180\n  5272: a0 = u64 [s1 + 0x188]\n  5276: a2 = a0 + 0xffffffffffffff80\n  5279: a0 = a4\n  5281: ra = 172, jump @1589\n      : @214 [@dyn 86] (gas: 6)\n  5288: u64 [s1 + 0x138] = a0\n  5292: u64 [s1 + 0x120] = a1\n  5296: a0 = u64 [s1 + 0x190]\n  5300: a1 = u64 [s1 + 0x198]\n  5304: a2 = u64 [s1 + 0x188]\n  5308: ra = 174, jump @1589\n      : @215 [@dyn 87] (gas: 7)\n  5315: u64 [s1 + 0x110] = a0\n  5319: u64 [s1 + 0x128] = a1\n  5323: a1 = u64 [s1 + 0x188]\n  5327: a2 = 0x80 - a1\n  5331: a0 = u64 [s1 + 0x150]\n  5335: a1 = u64 [s1 + 0x158]\n  5339: ra = 176, jump @1594\n      : @216 [@dyn 88] (gas: 20)\n  5346: a2 = u64 [s1 + 0x128]\n  5350: a1 = a1 | a2\n  5353: a2 = u64 [s1 + 0x188]\n  5357: a3 = a2 <u 0x80\n  5361: u64 [s1 + 0x128] = a3\n  5365: a4 = u64 [s1 + 0x120]\n  5369: a1 = a4 if a3 == 0\n  5372: a4 = u64 [s1 + 0x198]\n  5376: a4 = a1 if a2 != 0\n  5379: u64 [s1 + 0x198] = a4\n  5383: a1 = u64 [s1 + 0x110]\n  5387: a0 = a0 | a1\n  5390: a1 = u64 [s1 + 0x138]\n  5394: a0 = a1 if a3 == 0\n  5397: a1 = u64 [s1 + 0x190]\n  5401: a1 = a0 if a2 != 0\n  5404: u64 [s1 + 0x190] = a1\n  5408: a0 = u64 [s1 + 0x150]\n  5412: a1 = u64 [s1 + 0x158]\n  5416: ra = 178, jump @1589\n      : @217 [@dyn 89] (gas: 16)\n  5423: t2 = u64 [s1 + 0x190]\n  5427: t1 = u64 [s1 + 0x198]\n  5431: u64 [s1 + 344] = 0\n  5435: u64 [s1 + 336] = 0\n  5439: a4 = s1 + 0x100\n  5443: a2 = u64 [a4 + 0x28]\n  5446: a1 = 0 if a2 == 0\n  5448: a0 = 0 if a2 == 0\n  5450: u64 [a4 + 0x38] = a0\n  5453: a3 = u64 [a4 + 0x30]\n  5456: a2 = a3 + 0xffffffffffffffff\n  5459: u64 [a4 + 0x28] = a2\n  5462: a2 = a3 >u 0\n  5464: a2 = a2 + 0xffffffffffffffff\n  5467: u64 [a4 + 0x20] = a2\n  5470: fallthrough\n      : @218 (gas: 89)\n  5471: a2 = t2 >> 0x3f\n  5474: a3 = t1 << 0x1\n  5477: a2 = a2 | a3\n  5480: a3 = t2 << 0x1\n  5483: t2 = u64 [s1 + 0x148]\n  5487: a4 = t2 >> 0x3f\n  5490: a3 = a3 | a4\n  5493: u64 [s1 + 0x198] = a3\n  5497: ra = u64 [s1 + 0x120]\n  5501: a0 = t1\n  5503: t1 = ra ^ a2\n  5506: t0 = ra <u a2\n  5509: a4 = u64 [s1 + 0x128]\n  5513: a5 = a4 <u a3\n  5516: a5 = t0 if t1 != 0\n  5519: a1 = a1 << 0x1\n  5522: a4 = u64 [s1 + 0x138]\n  5526: a3 = a4 >> 0x3f\n  5529: a1 = a1 | a3\n  5532: u64 [s1 + 0x190] = a1\n  5536: a3 = a0 >> 0x3f\n  5539: a0 = a4 << 0x1\n  5542: a3 = a3 | a0\n  5545: a0 = t2 << 0x1\n  5548: a4 = u64 [s1 + 0x140]\n  5552: a1 = a4 >> 0x3f\n  5555: t0 = a0 | a1\n  5558: a1 = a4 << 0x1\n  5561: a4 = u64 [s1 + 0x160]\n  5565: t1 = a4 >> 0x3f\n  5568: t1 = a1 | t1\n  5571: a1 = a4 << 0x1\n  5574: a4 = u64 [s1 + 0x168]\n  5578: t2 = a4 >> 0x3f\n  5581: a1 = a1 | t2\n  5584: a4 = a4 << 0x1\n  5587: a0 = u64 [s1 + 0x158]\n  5591: a4 = a4 | a0\n  5594: u64 [s1 + 0x168] = a4\n  5598: a0 = u64 [s1 + 0x150]\n  5602: a1 = a1 | a0\n  5605: u64 [s1 + 0x160] = a1\n  5609: a1 = a0 | t1\n  5612: u64 [s1 + 0x140] = a1\n  5616: a0 = a0 | t0\n  5619: u64 [s1 + 0x148] = a0\n  5623: a0 = ra - a3\n  5626: a0 = a0 <u a5\n  5629: a1 = ra <u a3\n  5632: a5 = u64 [s1 + 0x190]\n  5636: a4 = ra - a5\n  5639: a4 = a4 - a1\n  5642: a4 = a4 - a0\n  5645: ra = a4 >>a 0x3f\n  5648: a0 = u64 [s1 + 0x130]\n  5652: a0 = ra & a0\n  5655: a1 = u64 [s1 + 0x198]\n  5659: t2 = a1 - a0\n  5662: a1 = a1 <u a0\n  5665: t1 = a2 - a1\n  5668: a1 = 0 if a2 != 0\n  5670: a0 = a3 - a1\n  5673: u64 [s1 + 0x138] = a0\n  5677: a1 = a3 <u a1\n  5680: a1 = a5 - a1\n  5683: a0 = s1 + 0x100\n  5687: a3 = u64 [a0 + 0x88]\n  5691: a5 = u64 [a0 + 0x80]\n  5695: a2 = a3 | a5\n  5698: a2 = a2 <u 0x1\n  5701: a4 = u64 [a0 + 0x70]\n  5704: t0 = a4 <u a2\n  5707: a2 = a4 - a2\n  5710: a4 = a3 <u 0x1\n  5713: a5 = a5 - a4\n  5716: a4 = u64 [a0 + 0x78]\n  5719: a4 = a4 - t0\n  5722: a3 = a3 + 0xffffffffffffffff\n  5725: u64 [a0 + 0x80] = a5\n  5729: u64 [a0 + 0x78] = a4\n  5732: t0 = a5 | a4\n  5735: u64 [a0 + 0x88] = a3\n  5739: a4 = a3 | a2\n  5742: a3 = a4 | t0\n  5745: a4 = ra & 0x1\n  5748: u64 [a0 + 0x58] = a4\n  5751: u64 [a0 + 0x70] = a2\n  5754: u64 [s1 + 336] = 0\n  5758: jump @218 if a3 != 0\n      : @219 (gas: 1)\n  5762: jump @957\n      : @220 (gas: 3)\n  5765: a0 = u64 [s1 + 0x198]\n  5769: a0 = i32 [a0]\n  5771: jump @222 if a0 >u 3\n      : @221 (gas: 1)\n  5775: jump @870\n      : @222 (gas: 11)\n  5778: u64 [a3 + 448] = 0\n  5782: u64 [a3 + 440] = 0\n  5786: u64 [a3 + 432] = 0\n  5790: u64 [a3 + 424] = 0\n  5794: a0 = s1 + 0x3000\n  5798: i32 a0 = a0 + 0x2c0\n  5802: ra = 0xb4\n  5806: ecalli 17 // 'value_transferred'\n  5808: a0 = 0x3000\n  5812: t0 = 0xb6\n  5816: jump @1581\n      : @223 [@dyn 90] (gas: 2)\n  5820: a0 = 0x3000\n  5824: t0 = 182, jump @1581\n      : @224 [@dyn 91] (gas: 1)\n  5831: t0 = 184, jump @1551\n      : @225 [@dyn 92] (gas: 1)\n  5838: jump @227 if a0 != 0\n      : @226 (gas: 1)\n  5841: jump @871\n      : @227 (gas: 9)\n  5844: a0 = 0x30190\n  5849: u64 [s1 + 0x190] = a0\n  5853: i32 a0 = a0 + 0\n  5855: u64 [s1 + 0x168] = a0\n  5859: ra = 0xba\n  5863: ecalli 5 // 'caller'\n  5865: a2 = u64 [s1 + 0x190]\n  5869: t0 = 0xbc\n  5873: jump @1537\n      : @228 [@dyn 93] (gas: 2)\n  5877: a2 = u64 [s1 + 0x190]\n  5881: t0 = 188, jump @1537\n      : @229 [@dyn 94] (gas: 8)\n  5888: a2 = s1 + 0x2918\n  5892: u64 [a2 + 160] = 0\n  5896: u64 [a2 + 0x98] = a1\n  5900: u64 [a2 + 0x90] = a0\n  5904: a1 = s1 + 0x29a0\n  5908: u64 [a2 + 0x88] = a3\n  5912: a0 = 0\n  5914: ra = 190, jump @24\n      : @230 [@dyn 95] (gas: 9)\n  5920: a1 = s1 + 0x2918\n  5924: u64 [a1 + 128] = 0\n  5928: u64 [a1 + 120] = 0\n  5931: u64 [a1 + 104] = 0x1\n  5935: a2 = a1\n  5937: a0 = 0x20\n  5940: a1 = s1 + 0x2980\n  5944: u64 [a2 + 112] = 0\n  5947: ra = 192, jump @24\n      : @231 [@dyn 96] (gas: 1)\n  5953: t0 = 194, jump @1558\n      : @232 [@dyn 97] (gas: 2)\n  5960: a1 = i32 [0x20180]\n  5965: jump @234 if a1 >u 63\n      : @233 (gas: 2)\n  5969: u32 [0x20180] = 0x40\n  5975: fallthrough\n      : @234 (gas: 14)\n  5976: a0 = sp + 0xffffffffffffffe0\n  5979: a2 = a0 & 0xffffffffffffffe0\n  5982: u64 [s1 + 0x188] = a2\n  5986: sp = a2\n  5988: a0 = 0x20190\n  5993: i32 a0 = a0 + 0\n  5995: i32 a2 = a2 + 0\n  5997: a1 = 0x40\n  6000: u64 [s1 + 0x160] = a0\n  6004: ra = 0xc4\n  6008: ecalli 9 // 'hash_keccak_256'\n  6010: a3 = u64 [s1 + 0x188]\n  6014: t0 = 0xc6\n  6018: jump @1536\n      : @235 [@dyn 98] (gas: 2)\n  6022: a3 = u64 [s1 + 0x188]\n  6026: t0 = 198, jump @1536\n      : @236 [@dyn 99] (gas: 21)\n  6033: a0 = s1 + 0x3118\n  6037: u64 [a0 + 480] = 0\n  6041: u64 [a0 + 472] = 0\n  6045: u64 [a0 + 464] = 0\n  6049: u64 [a0 + 456] = 0\n  6053: a0 = s1 + 0x3000\n  6057: i32 a0 = a0 + 0x2e0\n  6061: ecalli 17 // 'value_transferred'\n  6063: a0 = s1 + 0x3118\n  6067: a2 = a0 + 0x100\n  6071: a1 = u64 [a2 + 0xc8]\n  6075: u64 [s1 + 0x188] = a1\n  6079: a1 = u64 [a2 + 0xd0]\n  6083: u64 [s1 + 0x180] = a1\n  6087: a1 = u64 [a2 + 0xd8]\n  6091: u64 [s1 + 0x178] = a1\n  6095: a0 = u64 [a2 + 0xe0]\n  6099: u64 [s1 + 0x170] = a0\n  6103: a0 = s1 + 0x2960\n  6107: a1 = u64 [s1 + 0x198]\n  6111: ra = 200, jump @26\n      : @237 [@dyn 100] (gas: 21)\n  6117: a4 = s1 + 0x2918\n  6121: a3 = u64 [a4 + 0x48]\n  6124: a0 = u64 [a4 + 0x50]\n  6127: a1 = u64 [a4 + 0x58]\n  6130: a2 = u64 [a4 + 0x60]\n  6133: a5 = u64 [s1 + 0x170]\n  6137: u64 [a4] = a5\n  6139: a5 = u64 [s1 + 0x178]\n  6143: u64 [a4 + 0xfffffffffffffff8] = a5\n  6146: a5 = u64 [s1 + 0x180]\n  6150: u64 [a4 + 0xfffffffffffffff0] = a5\n  6153: a5 = u64 [s1 + 0x188]\n  6157: u64 [a4 + 0xffffffffffffffe8] = a5\n  6160: u64 [a4 + 0x20] = a2\n  6163: u64 [a4 + 0x18] = a1\n  6166: u64 [a4 + 0x10] = a0\n  6169: a0 = s1 + 0x2940\n  6173: a1 = s1 + 0x2920\n  6177: a2 = s1 + 0x2900\n  6181: u64 [a4 + 0x8] = a3\n  6184: ra = 202, jump @1345\n      : @238 [@dyn 101] (gas: 14)\n  6190: a3 = s1 + 0x2918\n  6194: a0 = u64 [a3 + 0x40]\n  6197: a1 = u64 [a3 + 0x38]\n  6200: a2 = u64 [a3 + 0x30]\n  6203: a3 = u64 [a3 + 0x28]\n  6206: a4 = s1 + 0x3118\n  6210: u64 [a4 + 0x200] = a0\n  6214: a0 = a4 + 0x100\n  6218: u64 [a0 + 0xf8] = a1\n  6222: u64 [a0 + 0xf0] = a2\n  6226: u64 [a0 + 0xe8] = a3\n  6230: a1 = s1 + 0x3300\n  6234: a0 = u64 [s1 + 0x198]\n  6238: ra = 204, jump @28\n      : @239 [@dyn 102] (gas: 3)\n  6244: a0 = s1 + 0x28e0\n  6248: a1 = 0x40\n  6251: ra = 206, jump @22\n      : @240 [@dyn 103] (gas: 19)\n  6257: a0 = s1 + 0x2118\n  6261: a2 = a0 + 0x700\n  6265: a1 = u64 [a2 + 0xe0]\n  6269: u64 [s1 + 0x188] = a1\n  6273: a1 = u64 [a2 + 0xd8]\n  6277: u64 [s1 + 0x180] = a1\n  6281: a1 = u64 [a2 + 0xd0]\n  6285: u64 [s1 + 0x178] = a1\n  6289: a0 = u64 [a2 + 0xc8]\n  6293: u64 [s1 + 0x198] = a0\n  6297: a0 = s1 + 0x3118\n  6301: u64 [a0 + 544] = 0\n  6305: u64 [a0 + 536] = 0\n  6309: u64 [a0 + 528] = 0\n  6313: u64 [a0 + 520] = 0\n  6317: a0 = s1 + 0x3000\n  6321: i32 a0 = a0 + 0x320\n  6325: ecalli 17 // 'value_transferred'\n  6327: fallthrough\n      : @241 (gas: 14)\n  6328: a3 = s1 + 0x100\n  6332: a0 = u64 [a3 + 0x88]\n  6336: a1 = u64 [a3 + 0x78]\n  6339: a0 = a0 | a1\n  6342: a1 = u64 [a3 + 0x98]\n  6346: a5 = a1\n  6348: a2 = u64 [a3 + 0x80]\n  6352: a1 = a1 | a2\n  6355: a1 = a1 | a0\n  6358: a1 = a1 >> 0x20\n  6361: a0 = a0 | a2\n  6364: a0 = a0 << 0x20\n  6367: a0 = a0 | a1\n  6370: jump @243 if a0 == 0\n      : @242 (gas: 1)\n  6373: jump @848\n      : @243 (gas: 15)\n  6376: a3 = s1 + 0x3118\n  6380: a4 = a3 + 0x200\n  6384: a0 = u64 [a4 + 0x8]\n  6387: a1 = u64 [a4 + 0x10]\n  6390: a2 = u64 [a4 + 0x18]\n  6393: a3 = u64 [a4 + 0x20]\n  6396: a4 = s1 + 0x2118\n  6400: u64 [a4 + 0x7c0] = a3\n  6404: a3 = a4 + 0x700\n  6408: u64 [a3 + 0xb8] = a2\n  6412: u64 [a3 + 0xb0] = a1\n  6416: a1 = s1 + 0x28c0\n  6420: u64 [a3 + 0xa8] = a0\n  6424: a0 = a5\n  6426: ra = 208, jump @24\n      : @244 [@dyn 104] (gas: 6)\n  6432: a0 = u64 [s1 + 0x168]\n  6436: ra = 0xd2\n  6440: ecalli 5 // 'caller'\n  6442: a2 = u64 [s1 + 0x190]\n  6446: t0 = 0xd4\n  6450: jump @1509\n      : @245 [@dyn 105] (gas: 2)\n  6454: a2 = u64 [s1 + 0x190]\n  6458: t0 = 212, jump @1509\n      : @246 [@dyn 106] (gas: 25)\n  6465: t0 = a1 | a0\n  6468: a3 = a3 >> 0x20\n  6471: a2 = reverse a2\n  6473: a1 = a2 << 0x20\n  6476: a1 = a1 | a3\n  6479: a2 = a2 >> 0x20\n  6482: a3 = u64 [0x20000]\n  6487: a0 = s1 + 0x2118\n  6491: u64 [a0 + 0x7a0] = a3\n  6495: a3 = u64 [0x20008]\n  6500: a4 = u64 [0x20010]\n  6505: a5 = u64 [0x20018]\n  6510: u64 [a0 + 0x798] = a3\n  6514: a3 = a0 + 0x700\n  6518: u64 [a3 + 0x90] = a4\n  6522: u64 [a0 + 1920] = 0\n  6526: u64 [a3 + 0x88] = a5\n  6530: u64 [a3 + 0x78] = a2\n  6533: u64 [a3 + 0x70] = a1\n  6536: a1 = 0x20\n  6539: a2 = s1 + 0x28a0\n  6543: a3 = s1 + 0x2880\n  6547: u64 [a0 + 0x768] = t0\n  6551: a0 = u64 [s1 + 0x198]\n  6555: ra = 214, jump @29\n      : @247 [@dyn 107] (gas: 7)\n  6561: a0 = 0\n  6563: a1 = u64 [s1 + 0x160]\n  6567: a2 = 0\n  6569: ra = 0x428\n  6573: ecalli 14 // 'seal_return'\n  6575: t0 = 0x42a\n  6579: jump @1562\n      : @248 (gas: 9)\n  6583: u64 [a2 + 1120] = 0\n  6587: u64 [a2 + 1112] = 0\n  6591: u64 [a2 + 1104] = 0\n  6595: u64 [a2 + 1096] = 0\n  6599: a0 = s1 + 0x3000\n  6603: i32 a0 = a0 + 0xfffffffffffffd60\n  6607: ra = 0xd8\n  6611: ecalli 17 // 'value_transferred'\n  6613: fallthrough\n      : @249 [@dyn 108] (gas: 3)\n  6614: a3 = s1 + 0x2918\n  6618: a4 = a3 + 0x400\n  6622: t0 = 218, jump @1588\n      : @250 [@dyn 109] (gas: 1)\n  6629: jump @252 if a0 == 0\n      : @251 (gas: 1)\n  6632: jump @876\n      : @252 (gas: 1)\n  6635: t0 = 220, jump @1562\n      : @253 [@dyn 110] (gas: 1)\n  6642: jump @255 if a1 <u a0\n      : @254 (gas: 1)\n  6645: jump @877\n      : @255 (gas: 5)\n  6648: a0 = s1 + 0x3000\n  6652: i32 a0 = a0 + 0xfffffffffffffd80\n  6656: a1 = 0x4\n  6659: ecalli 3 // 'call_data_load'\n  6661: fallthrough\n      : @256 (gas: 9)\n  6662: a3 = s1 + 0x2918\n  6666: a4 = a3 + 0x400\n  6670: a0 = u64 [a4 + 0x80]\n  6674: a1 = u64 [a4 + 0x78]\n  6677: a2 = u64 [a4 + 0x70]\n  6680: a0 = a0 | a1\n  6683: a1 = a2 <u 0x1\n  6686: a1 = 0 if a0 != 0\n  6688: jump @258 if a1 != 0\n      : @257 (gas: 1)\n  6691: jump @878\n      : @258 (gas: 6)\n  6694: a0 = u64 [a3 + 0x468]\n  6698: u64 [s1 + 0x120] = a0\n  6702: a0 = s1 + 0x3000\n  6706: i32 a0 = a0 + 0xfffffffffffffda0\n  6710: ecalli 10 // 'now'\n  6712: fallthrough\n      : @259 (gas: 49)\n  6713: a0 = s1 + 0x2918\n  6717: t2 = u64 [a0 + 0x4a0]\n  6721: a3 = u64 [a0 + 0x498]\n  6725: u64 [s1 + 0x150] = a3\n  6729: t0 = u64 [a0 + 0x490]\n  6733: ra = u64 [a0 + 0x488]\n  6737: a0 = clz t2\n  6739: a1 = clz a3\n  6741: a2 = a1 + 0x40\n  6744: a2 = a0 if t2 != 0\n  6747: a0 = clz t0\n  6749: a1 = clz ra\n  6751: a1 = a1 + 0x40\n  6754: a1 = a0 if t0 != 0\n  6757: a0 = a1 + 0x80\n  6761: a3 = a3 | t2\n  6764: a2 = a0 if a3 == 0\n  6767: a5 = a0 <u a1\n  6770: a5 = 0 if a3 != 0\n  6772: a4 = a5 >u 0\n  6774: a0 = a2 <u 0xf0\n  6778: a3 = a0 ^ 0x1\n  6781: a4 = a3 if a5 == 0\n  6784: a0 = a4 <u 0x1\n  6787: a0 = a0 + 0xffffffffffffffff\n  6790: a1 = -a4\n  6792: a5 = -a5\n  6794: a3 = a5 - a3\n  6797: t1 = 0xef - a2\n  6801: u64 [s1 + 0x198] = a1\n  6805: a5 = a1 >u 0\n  6807: a1 = a0 >u 0\n  6809: a1 = a5 if a0 == 0\n  6812: a5 = t1 <u 0x100\n  6816: a5 = a5 ^ 0x1\n  6819: a2 = a3 >u 0\n  6821: a5 = a2 if a3 != 0\n  6824: a5 = a1 if a4 != 0\n  6827: u64 [s1 + 0x140] = t2\n  6831: u64 [s1 + 0x158] = t0\n  6835: a1 = t0 | t2\n  6838: t2 = u64 [s1 + 0x150]\n  6842: a2 = ra | t2\n  6845: a1 = a1 | a2\n  6848: a1 = a1 <u 0x1\n  6851: a1 = a1 | a5\n  6854: a4 = ra\n  6856: a4 = 0 if a1 != 0\n  6858: jump @261 if a1 == 0\n      : @260 (gas: 1)\n  6861: jump @562\n      : @261 (gas: 6)\n  6864: a1 = t1 ^ 0xff\n  6868: a5 = u64 [s1 + 0x198]\n  6872: a1 = a1 | a5\n  6875: a2 = a3 | a0\n  6878: a1 = a1 | a2\n  6881: jump @263 if a1 != 0\n      : @262 (gas: 1)\n  6884: jump @562\n      : @263 (gas: 20)\n  6887: t0 = ra\n  6889: a2 = t1 + 0x1\n  6892: u64 [s1 + 0x190] = a2\n  6896: a1 = a2 <u 0x1\n  6899: a1 = a1 + a3\n  6902: u64 [s1 + 0x180] = a1\n  6906: a1 = a1 | a2\n  6909: a1 = a1 <u 0x1\n  6912: a1 = a1 + a5\n  6915: u64 [s1 + 0x170] = a1\n  6919: a1 = a1 <u a5\n  6922: a0 = a0 + a1\n  6925: u64 [s1 + 0x178] = a0\n  6929: a1 = 0xff - t1\n  6933: u64 [s1 + 0x168] = a1\n  6937: a2 = 0x80 - a1\n  6941: a0 = ra\n  6943: u64 [s1 + 0x148] = t0\n  6947: a1 = u64 [s1 + 0x158]\n  6951: ra = 222, jump @1589\n      : @264 [@dyn 111] (gas: 1)\n  6958: t0 = 224, jump @1575\n      : @265 [@dyn 112] (gas: 1)\n  6965: ra = 226, jump @1594\n      : @266 [@dyn 113] (gas: 7)\n  6972: u64 [s1 + 0x130] = a0\n  6976: u64 [s1 + 0x128] = a1\n  6980: a0 = u64 [s1 + 0x168]\n  6984: a2 = a0 + 0xffffffffffffff80\n  6987: a0 = u64 [s1 + 0x148]\n  6991: a1 = u64 [s1 + 0x158]\n  6995: ra = 228, jump @1594\n      : @267 [@dyn 114] (gas: 1)\n  7002: t0 = 230, jump @1587\n      : @268 [@dyn 115] (gas: 3)\n  7009: a0 = u64 [s1 + 0x148]\n  7013: a1 = u64 [s1 + 0x158]\n  7017: ra = 232, jump @1594\n      : @269 [@dyn 116] (gas: 11)\n  7024: a4 = u64 [s1 + 0x138]\n  7028: t0 = u64 [s1 + 0x170]\n  7032: a5 = u64 [s1 + 0x178]\n  7036: a2 = u64 [s1 + 0x180]\n  7040: a5 = a5 | a2\n  7043: a3 = u64 [s1 + 0x190]\n  7047: a3 = a3 | t0\n  7050: a3 = a3 | a5\n  7053: a0 = 0 if a4 == 0\n  7055: u64 [s1 + 0x188] = a0\n  7059: jump @271 if a3 == 0\n      : @270 (gas: 1)\n  7062: jump @549\n      : @271 (gas: 2)\n  7065: a4 = 0\n  7067: jump @561\n      : @272 (gas: 9)\n  7070: u64 [a2 + 800] = 0\n  7074: u64 [a2 + 792] = 0\n  7078: u64 [a2 + 784] = 0\n  7082: u64 [a2 + 776] = 0\n  7086: a0 = s1 + 0x3000\n  7090: i32 a0 = a0 + 0xfffffffffffffc20\n  7094: ra = 0xea\n  7098: ecalli 17 // 'value_transferred'\n  7100: fallthrough\n      : @273 [@dyn 117] (gas: 10)\n  7101: a3 = s1 + 0x2918\n  7105: a4 = a3 + 0x300\n  7109: a0 = u64 [a4 + 0x18]\n  7112: a1 = u64 [a4 + 0x20]\n  7115: a2 = u64 [a4 + 0x10]\n  7118: a3 = u64 [a4 + 0x8]\n  7121: a1 = a1 | a2\n  7124: a0 = a0 | a3\n  7127: a0 = a0 | a1\n  7130: jump @275 if a0 == 0\n      : @274 (gas: 1)\n  7133: jump @879\n      : @275 (gas: 1)\n  7136: t0 = 236, jump @1562\n      : @276 [@dyn 118] (gas: 1)\n  7143: jump @278 if a1 <u a0\n      : @277 (gas: 1)\n  7146: jump @880\n      : @278 (gas: 6)\n  7149: a0 = s1 + 0x3000\n  7153: i32 a0 = a0 + 0xfffffffffffffc40\n  7157: a1 = 0x4\n  7160: ra = 0xee\n  7164: ecalli 3 // 'call_data_load'\n  7166: fallthrough\n      : @279 [@dyn 119] (gas: 7)\n  7167: a0 = s1 + 0x2918\n  7171: a5 = a0 + 0x300\n  7175: a1 = u64 [a5 + 0x40]\n  7178: a2 = u64 [a5 + 0x38]\n  7181: a3 = u64 [a5 + 0x30]\n  7184: a4 = u64 [a5 + 0x28]\n  7187: t0 = 240, jump @1570\n      : @280 [@dyn 120] (gas: 1)\n  7194: jump @282 if a0 != 0\n      : @281 (gas: 1)\n  7197: jump @881\n      : @282 (gas: 9)\n  7200: a0 = 0x30190\n  7205: u64 [s1 + 0x198] = a0\n  7209: i32 a0 = a0 + 0\n  7211: u64 [s1 + 0x168] = a0\n  7215: ra = 0xf2\n  7219: ecalli 5 // 'caller'\n  7221: a2 = u64 [s1 + 0x198]\n  7225: t0 = 0xf4\n  7229: jump @1507\n      : @283 [@dyn 121] (gas: 2)\n  7233: a2 = u64 [s1 + 0x198]\n  7237: t0 = 244, jump @1507\n      : @284 [@dyn 122] (gas: 8)\n  7244: u64 [a2 + 32] = 0\n  7247: u64 [a2 + 0x18] = a1\n  7250: u64 [a2 + 0x10] = a0\n  7253: a1 = s1 + 0x7ff\n  7257: a1 = a1 + 0x121\n  7261: u64 [a2 + 0x8] = a3\n  7264: a0 = 0\n  7266: ra = 246, jump @24\n      : @285 [@dyn 123] (gas: 12)\n  7272: a0 = s1 + 0x7ff\n  7276: a0 = a0 + 0x119\n  7280: u64 [a0 + 0] = 0\n  7282: u64 [a0 + 4294967288] = 0\n  7285: a1 = s1 + 0x1000\n  7289: u64 [a1 + 4294965504] = 0x1\n  7294: a0 = 0x20\n  7297: a1 = s1 + 0x7ff\n  7301: a1 = a1 + 0x101\n  7305: a2 = s1 + 0x1000\n  7309: u64 [a2 + 4294965512] = 0\n  7313: ra = 248, jump @24\n      : @286 [@dyn 124] (gas: 7)\n  7319: a0 = sp + 0xffffffffffffffe0\n  7322: a0 = a0 & 0xffffffffffffffe0\n  7325: u64 [s1 + 0x170] = a0\n  7329: sp = a0\n  7331: a2 = 0x20180\n  7336: a0 = i32 [0x20180]\n  7341: jump @288 if a0 >u 63\n      : @287 (gas: 2)\n  7345: u32 [0x20180] = 0x40\n  7351: fallthrough\n      : @288 (gas: 14)\n  7352: u64 [s1 + 0x140] = a2\n  7356: a0 = sp + 0xffffffffffffffe0\n  7359: a2 = a0 & 0xffffffffffffffe0\n  7362: u64 [s1 + 0x158] = a2\n  7366: sp = a2\n  7368: a0 = 0x20190\n  7373: u64 [s1 + 0x160] = a0\n  7377: i32 a0 = a0 + 0\n  7379: i32 a2 = a2 + 0\n  7381: a1 = 0x40\n  7384: u64 [s1 + 0x148] = a0\n  7388: ra = 0xfa\n  7392: ecalli 9 // 'hash_keccak_256'\n  7394: fallthrough\n      : @289 [@dyn 125] (gas: 11)\n  7395: a3 = u64 [s1 + 0x158]\n  7399: a0 = u64 [a3]\n  7401: a1 = u64 [a3 + 0x8]\n  7404: a2 = u64 [a3 + 0x10]\n  7407: a3 = u64 [a3 + 0x18]\n  7410: a0 = reverse a0\n  7412: a1 = reverse a1\n  7414: a2 = reverse a2\n  7416: a3 = reverse a3\n  7418: a4 = a3 + 0x2\n  7421: t0 = 252, jump @1516\n      : @290 [@dyn 126] (gas: 8)\n  7428: a1 = u64 [s1 + 0x170]\n  7432: u64 [a1] = a4\n  7434: u64 [a1 + 0x8] = a5\n  7437: u64 [a1 + 0x10] = a2\n  7440: u64 [a1 + 0x18] = a0\n  7443: a0 = s1 + 0x7ff\n  7447: a0 = a0 + 0xe1\n  7451: ra = 254, jump @26\n      : @291 [@dyn 127] (gas: 24)\n  7457: a0 = s1 + 0x1000\n  7461: t0 = u64 [a0 + 0xfffffffffffff8f8]\n  7465: a0 = s1 + 0x1000\n  7469: a1 = u64 [a0 + 0xfffffffffffff8e8]\n  7473: a0 = s1 + 0x1000\n  7477: t2 = u64 [a0 + 0xfffffffffffff8f0]\n  7481: a0 = s1 + 0x1000\n  7485: t1 = u64 [a0 + 0xfffffffffffff8e0]\n  7489: ra = u64 [s1 + 0x180]\n  7493: a0 = t0 ^ ra\n  7496: a2 = u64 [s1 + 0x190]\n  7500: a5 = a1 ^ a2\n  7503: a3 = a1 <u a2\n  7506: a2 = u64 [s1 + 0x188]\n  7510: a2 = t1 <u a2\n  7513: a2 = a3 if a5 != 0\n  7516: a3 = t0 <u ra\n  7519: a4 = u64 [s1 + 0x178]\n  7523: a5 = t2 <u a4\n  7526: a5 = a3 if a0 != 0\n  7529: a3 = t2 ^ a4\n  7532: a3 = a3 | a0\n  7535: a2 = a5 if a3 != 0\n  7538: jump @293 if a2 == 0\n      : @292 (gas: 1)\n  7541: jump @885\n      : @293 (gas: 25)\n  7544: a0 = u64 [s1 + 0x188]\n  7548: a2 = s1 + 0x1000\n  7552: u64 [a2 + 0xfffffffffffff880] = a0\n  7556: a0 = s1 + 0x1000\n  7560: u64 [a0 + 0xfffffffffffff8a0] = t1\n  7564: a0 = u64 [s1 + 0x190]\n  7568: a2 = s1 + 0x1000\n  7572: u64 [a2 + 0xfffffffffffff888] = a0\n  7576: a0 = s1 + 0x1000\n  7580: u64 [a0 + 0xfffffffffffff8a8] = a1\n  7584: a0 = s1 + 0x1000\n  7588: u64 [a0 + 0xfffffffffffff890] = a4\n  7592: a0 = s1 + 0x1000\n  7596: u64 [a0 + 0xfffffffffffff8b0] = t2\n  7600: a0 = s1 + 0x1000\n  7604: u64 [a0 + 0xfffffffffffff898] = ra\n  7608: a0 = s1 + 0x7ff\n  7612: a0 = a0 + 0xc1\n  7616: a1 = s1 + 0x7ff\n  7620: a1 = a1 + 0xa1\n  7624: a2 = s1 + 0x7ff\n  7628: a2 = a2 + 0x81\n  7632: a3 = s1 + 0x1000\n  7636: u64 [a3 + 0xfffffffffffff8b8] = t0\n  7640: ra = 256, jump @1353\n      : @294 [@dyn 128] (gas: 17)\n  7646: a0 = s1 + 0x1000\n  7650: a0 = u64 [a0 + 0xfffffffffffff8d8]\n  7654: a1 = s1 + 0x1000\n  7658: a1 = u64 [a1 + 0xfffffffffffff8d0]\n  7662: a2 = s1 + 0x1000\n  7666: a2 = u64 [a2 + 0xfffffffffffff8c8]\n  7670: a3 = s1 + 0x1000\n  7674: a3 = u64 [a3 + 0xfffffffffffff8c0]\n  7678: a4 = s1 + 0x2918\n  7682: a5 = a4 + 0x300\n  7686: u64 [a5 + 0x60] = a0\n  7689: u64 [a5 + 0x58] = a1\n  7692: u64 [a5 + 0x50] = a2\n  7695: u64 [a5 + 0x48] = a3\n  7698: a1 = s1 + 0x2c60\n  7702: a0 = u64 [s1 + 0x170]\n  7706: ra = 258, jump @28\n      : @295 [@dyn 129] (gas: 5)\n  7712: a0 = u64 [s1 + 0x168]\n  7716: ra = 0x104\n  7720: ecalli 5 // 'caller'\n  7722: t0 = 0x106\n  7726: jump @1566\n      : @296 [@dyn 130] (gas: 1)\n  7730: t0 = 262, jump @1566\n      : @297 [@dyn 131] (gas: 4)\n  7737: ra = 0x108\n  7741: ecalli 11 // 'ref_time_left'\n  7743: t0 = 0x10a\n  7747: jump @1529\n      : @298 [@dyn 132] (gas: 1)\n  7751: t0 = 266, jump @1529\n      : @299 [@dyn 133] (gas: 38)\n  7758: a4 = a2 + 0x300\n  7762: u64 [a4 + 0x80] = a1\n  7766: a1 = u64 [s1 + 0x178]\n  7770: u64 [a4 + 0x78] = a1\n  7773: a1 = u64 [s1 + 0x190]\n  7777: u64 [a4 + 0x70] = a1\n  7780: a1 = u64 [s1 + 0x188]\n  7784: u64 [a4 + 0x68] = a1\n  7787: u32 [a2 + 904] = 0\n  7791: a0 = a0 >u 0x8fc\n  7795: a1 = -a0\n  7797: u64 [a4 + 0xc0] = a1\n  7801: u64 [a4 + 0xb8] = a1\n  7805: u64 [a4 + 0xb0] = a1\n  7809: u64 [a4 + 0xa8] = a1\n  7813: a1 = a3 << 0x20\n  7816: a1 = a1 >> 0x20\n  7819: a0 = a0 << 0x23\n  7822: a0 = a0 | a1\n  7825: a1 = s1 + 0x2c80\n  7829: a1 = a1 << 0x20\n  7832: a1 = a1 >> 0x20\n  7835: a2 = s1 + 0x2cc0\n  7839: a2 = a2 << 0x20\n  7842: a3 = a2 | a1\n  7845: a4 = u64 [s1 + 0x160]\n  7849: a4 = a4 << 0x20\n  7852: a4 = a4 >> 0x20\n  7855: a1 = s1 + 0x2ca0\n  7859: a1 = a1 << 0x20\n  7862: a5 = a1 | a4\n  7865: a1 = 0xffffffffffffffff\n  7868: a2 = 0xffffffffffffffff\n  7871: ecalli 1 // 'call'\n  7873: u64 [s1 + 0x170] = a0\n  7877: a0 = s1 + 0x7ff\n  7881: a0 = a0 + 0x61\n  7884: ra = 268, jump @1368\n      : @300 [@dyn 134] (gas: 2)\n  7890: a0 = u64 [s1 + 0x170]\n  7894: jump @302 if a0 == 0\n      : @301 (gas: 1)\n  7897: jump @886\n      : @302 (gas: 4)\n  7900: a0 = s1 + 0x7ff\n  7904: a0 = a0 + 0x21\n  7907: a1 = 0x40\n  7910: ra = 270, jump @22\n      : @303 [@dyn 135] (gas: 9)\n  7916: a0 = s1 + 0x1000\n  7920: a0 = u64 [a0 + 0xfffffffffffff838]\n  7924: a1 = s1 + 0x1000\n  7928: a1 = u64 [a1 + 0xfffffffffffff830]\n  7932: a2 = s1 + 0x1000\n  7936: a2 = u64 [a2 + 0xfffffffffffff828]\n  7940: a3 = s1 + 0x1000\n  7944: a3 = u64 [a3 + 0xfffffffffffff820]\n  7948: t0 = 272, jump @1520\n      : @304 [@dyn 136] (gas: 1)\n  7954: jump @306 if a0 == 0\n      : @305 (gas: 1)\n  7957: jump @848\n      : @306 (gas: 17)\n  7960: a0 = u64 [s1 + 0x188]\n  7964: a1 = s1 + 0x1000\n  7968: u64 [a1 + 0xfffffffffffff800] = a0\n  7972: a0 = u64 [s1 + 0x190]\n  7976: a1 = s1 + 0x1000\n  7980: u64 [a1 + 0xfffffffffffff808] = a0\n  7984: a0 = u64 [s1 + 0x178]\n  7988: a1 = s1 + 0x1000\n  7992: u64 [a1 + 0xfffffffffffff810] = a0\n  7996: a1 = s1 + 0x7ff\n  8000: a1 = a1 + 0x1\n  8003: a0 = u64 [s1 + 0x180]\n  8007: a2 = s1 + 0x1000\n  8011: u64 [a2 + 0xfffffffffffff818] = a0\n  8015: a0 = a3\n  8017: u64 [s1 + 0x190] = a3\n  8021: ra = 274, jump @24\n      : @307 [@dyn 137] (gas: 6)\n  8027: a0 = u64 [s1 + 0x168]\n  8031: ra = 0x114\n  8035: ecalli 5 // 'caller'\n  8037: a2 = u64 [s1 + 0x198]\n  8041: t0 = 0x116\n  8045: jump @1509\n      : @308 [@dyn 138] (gas: 2)\n  8048: a2 = u64 [s1 + 0x198]\n  8052: t0 = 278, jump @1509\n      : @309 [@dyn 139] (gas: 25)\n  8058: t0 = a1 | a0\n  8061: a3 = a3 >> 0x20\n  8064: a2 = reverse a2\n  8066: a1 = a2 << 0x20\n  8069: a1 = a1 | a3\n  8072: a2 = a2 >> 0x20\n  8075: u64 [s1 + 2008] = 0\n  8079: a3 = u64 [0x200e0]\n  8084: a4 = u64 [0x200e8]\n  8089: a5 = u64 [0x200f0]\n  8094: a0 = u64 [0x200f8]\n  8099: u64 [s1 + 0x7f8] = a3\n  8103: a3 = s1 + 0x700\n  8107: u64 [a3 + 0xf0] = a4\n  8111: u64 [a3 + 0xe8] = a5\n  8115: u64 [a3 + 0xe0] = a0\n  8119: u64 [a3 + 0xd0] = a2\n  8123: u64 [a3 + 0xc8] = a1\n  8127: a1 = 0x20\n  8130: a2 = s1 + 0x7e0\n  8134: a3 = s1 + 0x7c0\n  8138: u64 [s1 + 0x7c0] = t0\n  8142: a0 = u64 [s1 + 0x190]\n  8146: ra = 0x18c\n  8150: jump @29\n      : @310 (gas: 10)\n  8153: u64 [a2 + 1440] = 0\n  8157: u64 [a2 + 1432] = 0\n  8161: u64 [a2 + 1424] = 0\n  8165: u64 [a2 + 1416] = 0\n  8169: a0 = s1 + 0x3000\n  8173: i32 a0 = a0 + 0xfffffffffffffea0\n  8177: ra = 0x118\n  8181: ecalli 17 // 'value_transferred'\n  8183: t0 = 0x11a\n  8187: jump @1542\n      : @311 [@dyn 140] (gas: 1)\n  8191: t0 = 282, jump @1542\n      : @312 [@dyn 141] (gas: 1)\n  8198: t0 = 284, jump @1578\n      : @313 [@dyn 142] (gas: 1)\n  8205: jump @315 if a0 == 0\n      : @314 (gas: 1)\n  8208: jump @887\n      : @315 (gas: 3)\n  8211: a0 = u64 [s1 + 0x198]\n  8215: a0 = i32 [a0]\n  8217: jump @317 if a0 >u 99\n      : @316 (gas: 1)\n  8221: jump @888\n      : @317 (gas: 4)\n  8224: a0 = s1 + 0x13a0\n  8228: ra = 0x11e\n  8232: t0 = 0x578\n  8236: jump @1568\n      : @318 [@dyn 143] (gas: 11)\n  8240: a1 = s1 + 0x1118\n  8244: a0 = u64 [a1 + 0x288]\n  8248: u64 [s1 + 0x198] = a0\n  8252: a0 = u64 [a1 + 0x290]\n  8256: u64 [s1 + 0x190] = a0\n  8260: a0 = u32 [a1 + 0x298]\n  8264: u64 [s1 + 0x178] = a0\n  8268: a0 = s1 + 0x1380\n  8272: ra = 0x120\n  8276: t0 = 0x57c\n  8280: jump @1585\n      : @319 [@dyn 144] (gas: 7)\n  8284: a0 = s1 + 0x1118\n  8288: a0 = u64 [a0 + 0x268]\n  8292: u64 [s1 + 0x180] = a0\n  8296: a0 = s1 + 0x1360\n  8300: ra = 0x122\n  8304: t0 = 0x582\n  8308: jump @1585\n      : @320 [@dyn 145] (gas: 15)\n  8312: a2 = s1 + 0x1118\n  8316: a3 = a2 + 0x200\n  8320: a0 = u64 [a3 + 0x48]\n  8323: a4 = s1 + 0x100\n  8327: u64 [a4 + 0x88] = a0\n  8331: u64 [a2 + 576] = 0\n  8335: a0 = u64 [a4 + 0x78]\n  8338: u64 [a3 + 0x38] = a0\n  8341: a0 = u64 [a4 + 0x90]\n  8345: u64 [a3 + 0x30] = a0\n  8348: a1 = s1 + 0x1340\n  8352: a0 = u64 [a4 + 0x98]\n  8356: u64 [a3 + 0x28] = a0\n  8359: a0 = 0\n  8361: ra = 292, jump @24\n      : @321 [@dyn 146] (gas: 3)\n  8367: t0 = 0x126\n  8371: a1 = s1 + 0x1118\n  8375: fallthrough\n      : @322 [@dyn 147] (gas: 8)\n  8376: u64 [a1 + 544] = 0\n  8380: u64 [a1 + 536] = 0\n  8384: u64 [a1 + 520] = 0x4\n  8389: a2 = a1\n  8391: a0 = 0x20\n  8394: a1 = s1 + 0x1320\n  8398: u64 [a2 + 528] = 0\n  8402: ra = 296, jump @24\n      : @323 [@dyn 148] (gas: 3)\n  8408: a1 = 0x20180\n  8413: a0 = i32 [0x20180]\n  8418: jump @325 if a0 >u 63\n      : @324 (gas: 2)\n  8422: u32 [0x20180] = 0x40\n  8428: fallthrough\n      : @325 (gas: 15)\n  8429: a0 = sp + 0xffffffffffffffe0\n  8432: a2 = a0 & 0xffffffffffffffe0\n  8435: u64 [s1 + 0x178] = a2\n  8439: sp = a2\n  8441: a0 = 0x20190\n  8446: i32 a0 = a0 + 0\n  8448: i32 a2 = a2 + 0\n  8450: u64 [s1 + 0x198] = a1\n  8454: a1 = 0x40\n  8457: u64 [s1 + 0x190] = a0\n  8461: ra = 0x12a\n  8465: ecalli 9 // 'hash_keccak_256'\n  8467: a3 = u64 [s1 + 0x178]\n  8471: t0 = 0x12c\n  8475: jump @1526\n      : @326 [@dyn 149] (gas: 2)\n  8478: a3 = u64 [s1 + 0x178]\n  8482: t0 = 300, jump @1526\n      : @327 [@dyn 150] (gas: 9)\n  8488: a2 = s1 + 0x1118\n  8492: u64 [a2 + 512] = 0\n  8496: u64 [a2 + 504] = 0\n  8500: u64 [a2 + 496] = 0\n  8504: a1 = s1 + 0x1300\n  8508: a0 = u64 [s1 + 0x180]\n  8512: u64 [a2 + 0x1e8] = a0\n  8516: a0 = 0\n  8518: ra = 302, jump @24\n      : @328 [@dyn 151] (gas: 14)\n  8524: a0 = u64 [s1 + 0x160]\n  8528: a1 = s1 + 0x1118\n  8532: a2 = a1 + 0x100\n  8536: u64 [a2 + 0xe0] = a0\n  8540: a0 = u64 [s1 + 0x168]\n  8544: u64 [a2 + 0xd8] = a0\n  8548: a0 = u64 [s1 + 0x170]\n  8552: u64 [a2 + 0xd0] = a0\n  8556: a3 = a1\n  8558: a0 = 0x20\n  8561: a1 = s1 + 0x12e0\n  8565: a2 = u64 [s1 + 0x178]\n  8569: u64 [a3 + 0x1c8] = a2\n  8573: ra = 304, jump @24\n      : @329 [@dyn 152] (gas: 3)\n  8579: a1 = u64 [s1 + 0x198]\n  8583: a0 = i32 [a1]\n  8585: jump @331 if a0 >u 63\n      : @330 (gas: 2)\n  8589: u32 [a1 + 0] = 0x40\n  8592: fallthrough\n      : @331 (gas: 4)\n  8593: a0 = sp + 0xffffffffffffffe0\n  8596: a0 = a0 & 0xffffffffffffffe0\n  8599: u64 [s1 + 0x180] = a0\n  8603: t0 = 306, jump @1522\n      : @332 [@dyn 153] (gas: 5)\n  8609: ra = 0x134\n  8613: ecalli 9 // 'hash_keccak_256'\n  8615: a3 = u64 [s1 + 0x180]\n  8619: t0 = 0x136\n  8623: jump @1526\n      : @333 [@dyn 154] (gas: 2)\n  8626: a3 = u64 [s1 + 0x180]\n  8630: t0 = 310, jump @1526\n      : @334 [@dyn 155] (gas: 15)\n  8636: a0 = sp + 0xffffffffffffffe0\n  8639: a0 = a0 & 0xffffffffffffffe0\n  8642: u64 [s1 + 0x180] = a0\n  8646: sp = a0\n  8648: a0 = u64 [s1 + 0x188]\n  8652: a0 = a0 << 0x20\n  8655: a0 = a0 >> 0x20\n  8658: a2 = s1 + 0x1118\n  8662: u64 [a2 + 448] = 0\n  8666: u64 [a2 + 440] = 0\n  8670: u64 [a2 + 432] = 0\n  8674: a1 = s1 + 0x12c0\n  8678: u64 [a2 + 0x1a8] = a0\n  8682: a0 = 0\n  8684: ra = 312, jump @24\n      : @335 [@dyn 156] (gas: 14)\n  8690: a0 = u64 [s1 + 0x160]\n  8694: a1 = s1 + 0x1118\n  8698: a2 = a1 + 0x100\n  8702: u64 [a2 + 0xa0] = a0\n  8706: a0 = u64 [s1 + 0x168]\n  8710: u64 [a2 + 0x98] = a0\n  8714: a0 = u64 [s1 + 0x170]\n  8718: u64 [a2 + 0x90] = a0\n  8722: a3 = a1\n  8724: a0 = 0x20\n  8727: a1 = s1 + 0x12a0\n  8731: a2 = u64 [s1 + 0x178]\n  8735: u64 [a3 + 0x188] = a2\n  8739: ra = 314, jump @24\n      : @336 [@dyn 157] (gas: 3)\n  8745: a1 = u64 [s1 + 0x198]\n  8749: a0 = i32 [a1]\n  8751: jump @338 if a0 >=u 64\n      : @337 (gas: 2)\n  8755: u32 [a1 + 0] = 0x40\n  8758: fallthrough\n      : @338 (gas: 4)\n  8759: a0 = sp + 0xffffffffffffffe0\n  8762: a0 = a0 & 0xffffffffffffffe0\n  8765: u64 [s1 + 0x198] = a0\n  8769: t0 = 316, jump @1522\n      : @339 [@dyn 158] (gas: 5)\n  8775: ra = 0x13e\n  8779: ecalli 9 // 'hash_keccak_256'\n  8781: a3 = u64 [s1 + 0x198]\n  8785: t0 = 0x140\n  8789: jump @1514\n      : @340 [@dyn 159] (gas: 2)\n  8792: a3 = u64 [s1 + 0x198]\n  8796: t0 = 320, jump @1514\n      : @341 [@dyn 160] (gas: 7)\n  8802: a1 = u64 [s1 + 0x180]\n  8806: u64 [a1 + 0x18] = a3\n  8809: u64 [a1 + 0x10] = a2\n  8812: u64 [a1 + 0x8] = a4\n  8815: u64 [a1] = a0\n  8817: a0 = s1 + 0x1280\n  8821: ra = 322, jump @26\n      : @342 [@dyn 161] (gas: 6)\n  8827: a0 = s1 + 0x1118\n  8831: a0 = u64 [a0 + 0x168]\n  8835: u64 [s1 + 0x198] = a0\n  8839: a0 = s1 + 0x1260\n  8843: a1 = 0x40\n  8846: ra = 324, jump @22\n      : @343 [@dyn 162] (gas: 14)\n  8852: a2 = s1 + 0x1118\n  8856: t0 = u64 [a2 + 0x160]\n  8860: a1 = a2 + 0x100\n  8864: a5 = u64 [a1 + 0x58]\n  8867: a4 = u64 [a1 + 0x50]\n  8870: a0 = u64 [a1 + 0x48]\n  8873: a3 = a4 | t0\n  8876: a1 = a0 | a5\n  8879: a1 = a1 | a3\n  8882: a1 = a1 >> 0x20\n  8885: a3 = a3 | a5\n  8888: a3 = a3 << 0x20\n  8891: a1 = a1 | a3\n  8894: jump @345 if a1 == 0\n      : @344 (gas: 1)\n  8897: jump @848\n      : @345 (gas: 12)\n  8900: a1 = u8 [s1 + 0x198]\n  8904: a3 = a1 >u 0\n  8906: u64 [a2 + 320] = 0\n  8910: u64 [a2 + 312] = 0\n  8914: u64 [a2 + 304] = 0\n  8918: a1 = s1 + 0x1240\n  8922: u64 [a2 + 0x128] = a3\n  8926: u64 [s1 + 0x190] = a0\n  8930: u64 [s1 + 0x188] = a4\n  8934: u64 [s1 + 0x178] = t0\n  8938: u64 [s1 + 0x180] = a5\n  8942: ra = 326, jump @24\n      : @346 [@dyn 163] (gas: 12)\n  8948: a4 = s1 + 0x100\n  8952: a3 = u64 [a4 + 0x88]\n  8956: a2 = u64 [a4 + 0x90]\n  8960: a0 = u64 [a4 + 0x80]\n  8964: a1 = u64 [a4 + 0x78]\n  8967: a1 = a1 | a0\n  8970: a4 = 0x100000000\n  8980: a0 = 0xffffffe0\n  8990: a0 = a2 <u a0\n  8993: a0 = 0 if a3 != 0\n  8995: a0 = 0 if a1 != 0\n  8997: jump @348 if a0 != 0\n      : @347 (gas: 1)\n  9000: jump @848\n      : @348 (gas: 13)\n  9003: u64 [s1 + 0x180] = a1\n  9007: a1 = u64 [s1 + 0x198]\n  9011: a0 = a1 & 0xff00\n  9016: a1 = a0 >u 0\n  9018: i32 a0 = a2 + 0x20\n  9021: a2 = s1 + 0x1118\n  9025: u64 [a2 + 288] = 0\n  9029: u64 [a2 + 280] = 0\n  9033: u64 [a2 + 0x108] = a1\n  9037: a1 = s1 + 0x1220\n  9041: u64 [a2 + 272] = 0\n  9045: u64 [s1 + 0x178] = a4\n  9049: ra = 328, jump @24\n      : @349 [@dyn 164] (gas: 10)\n  9055: a3 = s1 + 0x100\n  9059: a2 = u64 [a3 + 0x90]\n  9063: a0 = u64 [a3 + 0x78]\n  9066: a0 = a0 + 0xffffffffffffffc0\n  9069: a0 = a2 <u a0\n  9072: a1 = u64 [a3 + 0x88]\n  9076: a0 = 0 if a1 != 0\n  9078: a1 = u64 [a3 + 0x80]\n  9082: a0 = 0 if a1 != 0\n  9084: jump @351 if a0 != 0\n      : @350 (gas: 1)\n  9087: jump @848\n      : @351 (gas: 11)\n  9090: a1 = u64 [s1 + 0x198]\n  9094: a0 = a1 & 0xff0000\n  9100: a1 = a0 >u 0\n  9102: i32 a0 = a2 + 0x40\n  9105: a3 = s1 + 0x1118\n  9109: u64 [a3 + 256] = 0\n  9113: u64 [a3 + 248] = 0\n  9117: u64 [a3 + 0xe8] = a1\n  9121: a1 = s1 + 0x1200\n  9125: u64 [a3 + 240] = 0\n  9129: ra = 330, jump @24\n      : @352 [@dyn 165] (gas: 3)\n  9135: a1 = 0x60\n  9138: a0 = u64 [s1 + 0x190]\n  9142: ra = 332, jump @37\n      : @353 [@dyn 166] (gas: 6)\n  9148: i32 a1 = a0 + 0\n  9150: a2 = 0x60\n  9153: a0 = 0\n  9155: ra = 0x3c6\n  9159: ecalli 14 // 'seal_return'\n  9161: jump @962\n      : @354 (gas: 11)\n  9164: u64 [a3 + 384] = 0\n  9168: u64 [a3 + 376] = 0\n  9172: u64 [a3 + 368] = 0\n  9176: u64 [a3 + 360] = 0\n  9180: a0 = s1 + 0x3000\n  9184: i32 a0 = a0 + 0x280\n  9188: ra = 0x14e\n  9192: ecalli 17 // 'value_transferred'\n  9194: a0 = 0x3000\n  9198: t0 = 0x150\n  9202: jump @1581\n      : @355 [@dyn 167] (gas: 2)\n  9206: a0 = 0x3000\n  9210: t0 = 336, jump @1581\n      : @356 [@dyn 168] (gas: 8)\n  9217: a0 = u64 [a4 + 0x78]\n  9220: a1 = u64 [a4 + 0x80]\n  9224: a2 = u64 [a4 + 0x70]\n  9227: a3 = u64 [a4 + 0x68]\n  9230: a1 = a1 | a2\n  9233: a0 = a0 | a3\n  9236: a0 = a0 | a1\n  9239: jump @358 if a0 == 0\n      : @357 (gas: 1)\n  9242: jump @889\n      : @358 (gas: 3)\n  9245: a0 = u64 [s1 + 0x198]\n  9249: a0 = i32 [a0]\n  9251: jump @360 if a0 >u 3\n      : @359 (gas: 1)\n  9255: jump @890\n      : @360 (gas: 8)\n  9258: a0 = s1 + 0x3118\n  9262: u64 [a0 + 416] = 0\n  9266: u64 [a0 + 408] = 0\n  9270: u64 [a0 + 400] = 0\n  9274: u64 [a0 + 392] = 0\n  9278: a0 = s1 + 0x2840\n  9282: a1 = s1 + 0x32a0\n  9286: ra = 338, jump @26\n      : @361 [@dyn 169] (gas: 3)\n  9292: t0 = 0x154\n  9296: a1 = s1 + 0x2118\n  9300: fallthrough\n      : @362 [@dyn 170] (gas: 13)\n  9301: a2 = a1 + 0x700\n  9305: a0 = u64 [a2 + 0x40]\n  9308: a1 = s1 + 0x100\n  9312: u64 [a1 + 0x98] = a0\n  9316: a0 = u64 [a2 + 0x38]\n  9319: u64 [a1 + 0x90] = a0\n  9323: a0 = u64 [a2 + 0x30]\n  9326: u64 [a1 + 0x88] = a0\n  9330: a0 = u64 [a2 + 0x28]\n  9333: u64 [a1 + 0x80] = a0\n  9337: a0 = s1 + 0x2820\n  9341: a1 = 0x40\n  9344: ra = 342, jump @22\n      : @363 [@dyn 171] (gas: 2)\n  9350: a0 = 0x2000\n  9354: t0 = 344, jump @1580\n      : @364 [@dyn 172] (gas: 1)\n  9361: t0 = 346, jump @1543\n      : @365 [@dyn 173] (gas: 1)\n  9367: jump @367 if a0 == 0\n      : @366 (gas: 1)\n  9370: jump @848\n      : @367 (gas: 15)\n  9373: a2 = s1 + 0x100\n  9377: a0 = u64 [a2 + 0x80]\n  9381: a1 = a3 + 0x600\n  9385: u64 [a1 + 0xe8] = a0\n  9389: a0 = u64 [a2 + 0x88]\n  9393: u64 [a1 + 0xf0] = a0\n  9397: a0 = u64 [a2 + 0x90]\n  9401: u64 [a1 + 0xf8] = a0\n  9405: a1 = s1 + 0x2800\n  9409: a0 = u64 [a2 + 0x98]\n  9413: u64 [a3 + 0x700] = a0\n  9417: a0 = a4\n  9419: u64 [s1 + 0x198] = a4\n  9423: ra = 0x218\n  9427: jump @24\n      : @368 (gas: 9)\n  9430: u64 [a2 + 608] = 0\n  9434: u64 [a2 + 600] = 0\n  9438: u64 [a2 + 592] = 0\n  9442: u64 [a2 + 584] = 0\n  9446: a0 = s1 + 0x3000\n  9450: i32 a0 = a0 + 0xfffffffffffffb60\n  9454: ra = 0x15c\n  9458: ecalli 17 // 'value_transferred'\n  9460: fallthrough\n      : @369 [@dyn 174] (gas: 3)\n  9461: a3 = s1 + 0x2918\n  9465: a4 = a3 + 0x200\n  9469: t0 = 350, jump @1588\n      : @370 [@dyn 175] (gas: 1)\n  9476: jump @372 if a0 == 0\n      : @371 (gas: 1)\n  9479: jump @891\n      : @372 (gas: 1)\n  9482: t0 = 352, jump @1562\n      : @373 [@dyn 176] (gas: 1)\n  9488: jump @375 if a1 <u a0\n      : @374 (gas: 1)\n  9491: jump @892\n      : @375 (gas: 6)\n  9494: a0 = s1 + 0x3000\n  9498: i32 a0 = a0 + 0xfffffffffffffb80\n  9502: a1 = 0x4\n  9505: ra = 0x162\n  9509: ecalli 3 // 'call_data_load'\n  9511: fallthrough\n      : @376 [@dyn 177] (gas: 7)\n  9512: a0 = s1 + 0x2918\n  9516: a5 = a0 + 0x200\n  9520: a1 = u64 [a5 + 0x80]\n  9524: a2 = u64 [a5 + 0x78]\n  9527: a3 = u64 [a5 + 0x70]\n  9530: a4 = u64 [a5 + 0x68]\n  9533: t0 = 356, jump @1570\n      : @377 [@dyn 178] (gas: 1)\n  9539: jump @379 if a0 != 0\n      : @378 (gas: 1)\n  9542: jump @893\n      : @379 (gas: 9)\n  9545: a0 = 0x30190\n  9550: u64 [s1 + 0x198] = a0\n  9554: i32 a0 = a0 + 0\n  9556: u64 [s1 + 0x168] = a0\n  9560: ra = 0x166\n  9564: ecalli 5 // 'caller'\n  9566: a2 = u64 [s1 + 0x198]\n  9570: t0 = 0x168\n  9574: jump @1537\n      : @380 [@dyn 179] (gas: 2)\n  9577: a2 = u64 [s1 + 0x198]\n  9581: t0 = 360, jump @1537\n      : @381 [@dyn 180] (gas: 7)\n  9587: u64 [s1 + 1912] = 0\n  9591: u64 [s1 + 0x770] = a1\n  9595: u64 [s1 + 0x768] = a0\n  9599: a1 = s1 + 0x760\n  9603: u64 [s1 + 0x760] = a3\n  9607: a0 = 0\n  9609: ra = 362, jump @24\n      : @382 [@dyn 181] (gas: 7)\n  9615: u64 [s1 + 1880] = 0\n  9619: u64 [s1 + 1872] = 0\n  9623: u64 [s1 + 1856] = 0x1\n  9628: a0 = 0x20\n  9631: a1 = s1 + 0x740\n  9635: u64 [s1 + 1864] = 0\n  9639: ra = 364, jump @24\n      : @383 [@dyn 182] (gas: 7)\n  9645: a0 = sp + 0xffffffffffffffe0\n  9648: a0 = a0 & 0xffffffffffffffe0\n  9651: u64 [s1 + 0x170] = a0\n  9655: sp = a0\n  9657: a2 = 0x20180\n  9662: a0 = i32 [0x20180]\n  9667: jump @385 if a0 >u 63\n      : @384 (gas: 2)\n  9671: u32 [0x20180] = 0x40\n  9677: fallthrough\n      : @385 (gas: 16)\n  9678: u64 [s1 + 0x140] = a2\n  9682: a0 = sp + 0xffffffffffffffe0\n  9685: a2 = a0 & 0xffffffffffffffe0\n  9688: u64 [s1 + 0x158] = a2\n  9692: sp = a2\n  9694: a0 = 0x20190\n  9699: u64 [s1 + 0x160] = a0\n  9703: i32 a0 = a0 + 0\n  9705: i32 a2 = a2 + 0\n  9707: a1 = 0x40\n  9710: u64 [s1 + 0x148] = a0\n  9714: ra = 0x16e\n  9718: ecalli 9 // 'hash_keccak_256'\n  9720: a3 = u64 [s1 + 0x158]\n  9724: t0 = 0x170\n  9728: jump @1514\n      : @386 [@dyn 183] (gas: 2)\n  9731: a3 = u64 [s1 + 0x158]\n  9735: t0 = 368, jump @1514\n      : @387 [@dyn 184] (gas: 7)\n  9741: a1 = u64 [s1 + 0x170]\n  9745: u64 [a1 + 0x18] = a3\n  9748: u64 [a1 + 0x10] = a2\n  9751: u64 [a1 + 0x8] = a4\n  9754: u64 [a1] = a0\n  9756: a0 = s1 + 0x720\n  9760: ra = 370, jump @26\n      : @388 [@dyn 185] (gas: 20)\n  9766: t0 = u64 [s1 + 0x738]\n  9770: a1 = u64 [s1 + 0x728]\n  9774: t2 = u64 [s1 + 0x730]\n  9778: t1 = u64 [s1 + 0x720]\n  9782: ra = u64 [s1 + 0x180]\n  9786: a0 = t0 ^ ra\n  9789: a2 = u64 [s1 + 0x190]\n  9793: a5 = a1 ^ a2\n  9796: a3 = a1 <u a2\n  9799: a2 = u64 [s1 + 0x188]\n  9803: a2 = t1 <u a2\n  9806: a2 = a3 if a5 != 0\n  9809: a3 = t0 <u ra\n  9812: a4 = u64 [s1 + 0x178]\n  9816: a5 = t2 <u a4\n  9819: a5 = a3 if a0 != 0\n  9822: a3 = t2 ^ a4\n  9825: a3 = a3 | a0\n  9828: a2 = a5 if a3 != 0\n  9831: jump @390 if a2 == 0\n      : @389 (gas: 1)\n  9834: jump @897\n      : @390 (gas: 15)\n  9837: a0 = u64 [s1 + 0x188]\n  9841: a2 = s1 + 0x600\n  9845: u64 [a2 + 0xc0] = a0\n  9849: u64 [s1 + 0x6e0] = t1\n  9853: a0 = u64 [s1 + 0x190]\n  9857: u64 [a2 + 0xc8] = a0\n  9861: u64 [a2 + 0xe8] = a1\n  9865: u64 [a2 + 0xd0] = a4\n  9869: u64 [s1 + 0x6f0] = t2\n  9873: u64 [s1 + 0x6d8] = ra\n  9877: a0 = s1 + 0x700\n  9881: a1 = s1 + 0x6e0\n  9885: a2 = s1 + 0x6c0\n  9889: u64 [s1 + 0x6f8] = t0\n  9893: ra = 372, jump @1353\n      : @391 [@dyn 186] (gas: 14)\n  9899: a4 = s1 + 0x700\n  9903: a0 = u64 [a4 + 0x18]\n  9906: a1 = u64 [a4 + 0x10]\n  9909: a2 = u64 [a4 + 0x8]\n  9912: a3 = u64 [a4]\n  9914: a4 = s1 + 0x2918\n  9918: a5 = a4 + 0x200\n  9922: u64 [a5 + 0xa0] = a0\n  9926: u64 [a5 + 0x98] = a1\n  9930: u64 [a5 + 0x90] = a2\n  9934: u64 [a5 + 0x88] = a3\n  9938: a1 = s1 + 0x2ba0\n  9942: a0 = u64 [s1 + 0x170]\n  9946: ra = 374, jump @28\n      : @392 [@dyn 187] (gas: 5)\n  9952: a0 = u64 [s1 + 0x168]\n  9956: ra = 0x178\n  9960: ecalli 5 // 'caller'\n  9962: t0 = 0x17a\n  9966: jump @1566\n      : @393 [@dyn 188] (gas: 1)\n  9969: t0 = 378, jump @1566\n      : @394 [@dyn 189] (gas: 4)\n  9975: ra = 0x17c\n  9979: ecalli 11 // 'ref_time_left'\n  9981: t0 = 0x17e\n  9985: jump @1529\n      : @395 [@dyn 190] (gas: 1)\n  9988: t0 = 382, jump @1529\n      : @396 [@dyn 191] (gas: 37)\n  9994: a4 = a2 + 0x200\n  9998: u64 [a4 + 0xc0] = a1\n 10002: a1 = u64 [s1 + 0x178]\n 10006: u64 [a4 + 0xb8] = a1\n 10010: a1 = u64 [s1 + 0x190]\n 10014: u64 [a4 + 0xb0] = a1\n 10018: a1 = u64 [s1 + 0x188]\n 10022: u64 [a4 + 0xa8] = a1\n 10026: u32 [a2 + 712] = 0\n 10030: a0 = a0 >u 0x8fc\n 10034: a1 = -a0\n 10036: u64 [a2 + 0x300] = a1\n 10040: u64 [a4 + 0xf8] = a1\n 10044: u64 [a4 + 0xf0] = a1\n 10048: u64 [a4 + 0xe8] = a1\n 10052: a1 = a3 << 0x20\n 10055: a1 = a1 >> 0x20\n 10058: a0 = a0 << 0x23\n 10061: a0 = a0 | a1\n 10064: a1 = s1 + 0x2bc0\n 10068: a1 = a1 << 0x20\n 10071: a1 = a1 >> 0x20\n 10074: a2 = s1 + 0x2c00\n 10078: a2 = a2 << 0x20\n 10081: a3 = a2 | a1\n 10084: a4 = u64 [s1 + 0x160]\n 10088: a4 = a4 << 0x20\n 10091: a4 = a4 >> 0x20\n 10094: a1 = s1 + 0x2be0\n 10098: a1 = a1 << 0x20\n 10101: a5 = a1 | a4\n 10104: a1 = 0xffffffffffffffff\n 10107: a2 = 0xffffffffffffffff\n 10110: ecalli 1 // 'call'\n 10112: u64 [s1 + 0x170] = a0\n 10116: a0 = s1 + 0x6a0\n 10120: ra = 384, jump @1368\n      : @397 [@dyn 192] (gas: 2)\n 10126: a0 = u64 [s1 + 0x170]\n 10130: jump @399 if a0 == 0\n      : @398 (gas: 1)\n 10133: jump @898\n      : @399 (gas: 3)\n 10136: a0 = s1 + 0x660\n 10140: a1 = 0x40\n 10143: ra = 386, jump @22\n      : @400 [@dyn 193] (gas: 6)\n 10149: a4 = s1 + 0x600\n 10153: a0 = u64 [a4 + 0x78]\n 10156: a1 = u64 [a4 + 0x70]\n 10159: a2 = u64 [a4 + 0x68]\n 10162: a3 = u64 [a4 + 0x60]\n 10165: t0 = 388, jump @1520\n      : @401 [@dyn 194] (gas: 1)\n 10171: jump @403 if a0 == 0\n      : @402 (gas: 1)\n 10174: jump @848\n      : @403 (gas: 12)\n 10177: a0 = u64 [s1 + 0x188]\n 10181: u64 [s1 + 0x640] = a0\n 10185: a0 = u64 [s1 + 0x190]\n 10189: u64 [s1 + 0x648] = a0\n 10193: a0 = u64 [s1 + 0x178]\n 10197: u64 [s1 + 0x650] = a0\n 10201: a1 = s1 + 0x640\n 10205: a0 = u64 [s1 + 0x180]\n 10209: u64 [s1 + 0x658] = a0\n 10213: a0 = a3\n 10215: u64 [s1 + 0x190] = a3\n 10219: ra = 390, jump @24\n      : @404 [@dyn 195] (gas: 6)\n 10225: a0 = u64 [s1 + 0x168]\n 10229: ra = 0x188\n 10233: ecalli 5 // 'caller'\n 10235: a2 = u64 [s1 + 0x198]\n 10239: t0 = 0x18a\n 10243: jump @1509\n      : @405 [@dyn 196] (gas: 2)\n 10246: a2 = u64 [s1 + 0x198]\n 10250: t0 = 394, jump @1509\n      : @406 [@dyn 197] (gas: 24)\n 10256: t0 = a1 | a0\n 10259: a3 = a3 >> 0x20\n 10262: a2 = reverse a2\n 10264: a1 = a2 << 0x20\n 10267: a1 = a1 | a3\n 10270: a2 = a2 >> 0x20\n 10273: u64 [s1 + 1560] = 0\n 10277: a3 = u64 [0x20100]\n 10282: a4 = u64 [0x20108]\n 10287: a5 = u64 [0x20110]\n 10292: a0 = u64 [0x20118]\n 10297: u64 [s1 + 0x638] = a3\n 10301: a3 = s1 + 0x600\n 10305: u64 [a3 + 0x30] = a4\n 10308: u64 [a3 + 0x28] = a5\n 10311: u64 [a3 + 0x20] = a0\n 10314: u64 [a3 + 0x10] = a2\n 10317: u64 [a3 + 0x8] = a1\n 10320: a1 = 0x20\n 10323: a2 = s1 + 0x620\n 10327: a3 = s1 + 0x600\n 10331: u64 [s1 + 0x600] = t0\n 10335: a0 = u64 [s1 + 0x190]\n 10339: ra = 396, jump @29\n      : @407 [@dyn 198] (gas: 7)\n 10345: a0 = 0\n 10347: a1 = u64 [s1 + 0x148]\n 10351: a2 = 0\n 10353: ra = 0x428\n 10357: ecalli 14 // 'seal_return'\n 10359: t0 = 0x42a\n 10363: jump @1562\n      : @408 (gas: 10)\n 10366: u64 [a2 + 1312] = 0\n 10370: u64 [a2 + 1304] = 0\n 10374: u64 [a2 + 1296] = 0\n 10378: u64 [a2 + 1288] = 0\n 10382: a0 = s1 + 0x3000\n 10386: i32 a0 = a0 + 0xfffffffffffffe20\n 10390: ra = 0x18e\n 10394: ecalli 17 // 'value_transferred'\n 10396: t0 = 0x190\n 10400: jump @1542\n      : @409 [@dyn 199] (gas: 1)\n 10403: t0 = 400, jump @1542\n      : @410 [@dyn 200] (gas: 8)\n 10409: a0 = u64 [a4 + 0x18]\n 10412: a1 = u64 [a4 + 0x20]\n 10415: a2 = u64 [a4 + 0x10]\n 10418: a3 = u64 [a4 + 0x8]\n 10421: a1 = a1 | a2\n 10424: a0 = a0 | a3\n 10427: a0 = a0 | a1\n 10430: jump @412 if a0 == 0\n      : @411 (gas: 1)\n 10433: jump @902\n      : @412 (gas: 3)\n 10436: a0 = u64 [s1 + 0x198]\n 10440: a0 = i32 [a0]\n 10442: jump @414 if a0 >u 3\n      : @413 (gas: 1)\n 10446: jump @903\n      : @414 (gas: 3)\n 10449: a0 = s1 + 0x1160\n 10453: a1 = 0x40\n 10456: ra = 402, jump @22\n      : @415 [@dyn 201] (gas: 13)\n 10462: a3 = s1 + 0x1118\n 10466: a4 = u64 [a3 + 0x60]\n 10469: a1 = u64 [a3 + 0x58]\n 10472: a2 = u64 [a3 + 0x50]\n 10475: a0 = u64 [a3 + 0x48]\n 10478: a4 = a4 | a2\n 10481: a2 = a0 | a1\n 10484: a2 = a2 | a4\n 10487: a2 = a2 >> 0x20\n 10490: a1 = a1 | a4\n 10493: a1 = a1 << 0x20\n 10496: a1 = a1 | a2\n 10499: jump @417 if a1 == 0\n      : @416 (gas: 1)\n 10502: jump @848\n      : @417 (gas: 9)\n 10505: a1 = u64 [0x200a0]\n 10510: u64 [a3 + 64] = 0\n 10513: u64 [a3 + 56] = 0\n 10516: u64 [a3 + 0x28] = a1\n 10519: a1 = s1 + 0x1140\n 10523: u64 [a3 + 48] = 0\n 10526: u64 [s1 + 0x198] = a0\n 10530: ra = 0x218\n 10534: jump @24\n      : @418 (gas: 10)\n 10537: u64 [a2 + 512] = 0\n 10541: u64 [a2 + 504] = 0\n 10545: u64 [a2 + 496] = 0\n 10549: u64 [a2 + 488] = 0\n 10553: a0 = s1 + 0x3000\n 10557: i32 a0 = a0 + 0xfffffffffffffb00\n 10561: ra = 0x194\n 10565: ecalli 17 // 'value_transferred'\n 10567: t0 = 0x196\n 10571: jump @1584\n      : @419 [@dyn 202] (gas: 1)\n 10574: t0 = 406, jump @1584\n      : @420 [@dyn 203] (gas: 8)\n 10580: a0 = u64 [a4 + 0xf8]\n 10584: a1 = u64 [a3 + 0x200]\n 10588: a2 = u64 [a4 + 0xf0]\n 10592: a3 = u64 [a4 + 0xe8]\n 10596: a1 = a1 | a2\n 10599: a0 = a0 | a3\n 10602: a0 = a0 | a1\n 10605: jump @422 if a0 == 0\n      : @421 (gas: 1)\n 10608: jump @904\n      : @422 (gas: 1)\n 10611: t0 = 408, jump @1562\n      : @423 [@dyn 204] (gas: 1)\n 10617: jump @425 if a1 <u a0\n      : @424 (gas: 1)\n 10620: jump @905\n      : @425 (gas: 4)\n 10623: a0 = s1 + 0x5a0\n 10627: ra = 0x19a\n 10631: t0 = 0x578\n 10635: jump @1568\n      : @426 [@dyn 205] (gas: 10)\n 10638: a0 = u64 [s1 + 0x5a0]\n 10642: a1 = u64 [s1 + 0x5a8]\n 10646: a2 = u32 [s1 + 0x5b0]\n 10650: u64 [s1 + 1432] = 0\n 10654: u64 [s1 + 0x590] = a2\n 10658: u64 [s1 + 0x588] = a1\n 10662: a1 = s1 + 0x580\n 10666: u64 [s1 + 0x580] = a0\n 10670: a0 = 0\n 10672: ra = 412, jump @24\n      : @427 [@dyn 206] (gas: 7)\n 10678: u64 [s1 + 1400] = 0\n 10682: u64 [s1 + 1392] = 0\n 10686: u64 [s1 + 1376] = 0x1\n 10691: a0 = 0x20\n 10694: a1 = s1 + 0x560\n 10698: u64 [s1 + 1384] = 0\n 10702: ra = 414, jump @24\n      : @428 [@dyn 207] (gas: 1)\n 10708: t0 = 416, jump @1576\n      : @429 [@dyn 208] (gas: 2)\n 10714: a1 = i32 [0x20180]\n 10719: jump @431 if a1 >u 63\n      : @430 (gas: 4)\n 10723: a1 = 0x40\n 10726: u32 [0x20180] = a1\n 10731: t0 = 0x1a2\n 10735: jump @1541\n      : @431 (gas: 1)\n 10738: t0 = 418, jump @1541\n      : @432 [@dyn 209] (gas: 7)\n 10744: a0 = 0x20190\n 10749: i32 a0 = a0 + 0\n 10751: i32 a2 = a2 + 0\n 10753: a1 = 0x40\n 10756: ra = 0x1a4\n 10760: ecalli 9 // 'hash_keccak_256'\n 10762: fallthrough\n      : @433 [@dyn 210] (gas: 10)\n 10763: a3 = u64 [s1 + 0x198]\n 10767: a0 = u64 [a3 + 0x18]\n 10770: a1 = u64 [a3 + 0x10]\n 10773: a2 = u64 [a3 + 0x8]\n 10776: a3 = u64 [a3]\n 10778: a4 = reverse a0\n 10780: u64 [s1 + 0x188] = a4\n 10784: a5 = reverse a1\n 10786: u64 [s1 + 0x190] = a5\n 10790: t0 = 422, jump @1555\n      : @434 [@dyn 211] (gas: 4)\n 10796: u64 [a1 + 0x8] = a5\n 10799: u64 [a1] = a4\n 10801: a0 = s1 + 0x540\n 10805: ra = 424, jump @26\n      : @435 [@dyn 212] (gas: 8)\n 10811: a0 = u64 [s1 + 0x540]\n 10815: u64 [s1 + 0x178] = a0\n 10819: a0 = u64 [s1 + 0x548]\n 10823: u64 [s1 + 0x170] = a0\n 10827: a0 = u64 [s1 + 0x550]\n 10831: u64 [s1 + 0x168] = a0\n 10835: a0 = u64 [s1 + 0x558]\n 10839: t0 = 426, jump @1547\n      : @436 [@dyn 213] (gas: 15)\n 10845: a3 = a2 + 0x200\n 10849: u64 [a3 + 0x10] = a1\n 10852: a1 = a1 | a0\n 10855: u64 [a3 + 0x8] = a0\n 10858: a0 = a1 <u 0x1\n 10861: a1 = u64 [s1 + 0x180]\n 10865: a0 = a0 + a1\n 10868: u64 [a3 + 0x18] = a0\n 10871: a0 = a0 <u a1\n 10874: a1 = u64 [s1 + 0x198]\n 10878: a0 = a0 + a1\n 10881: u64 [a3 + 0x20] = a0\n 10884: a0 = s1 + 0x520\n 10888: a1 = s1 + 0x2b20\n 10892: ra = 428, jump @26\n      : @437 [@dyn 214] (gas: 20)\n 10898: a0 = u64 [s1 + 0x520]\n 10902: a1 = u64 [s1 + 0x528]\n 10906: a2 = u64 [s1 + 0x530]\n 10910: a3 = u64 [s1 + 0x538]\n 10914: u64 [s1 + 0x4d8] = a3\n 10918: u64 [s1 + 0x4d0] = a2\n 10922: u64 [s1 + 0x4c8] = a1\n 10926: u64 [s1 + 0x4c0] = a0\n 10930: a0 = u64 [s1 + 0x160]\n 10934: u64 [s1 + 0x4f8] = a0\n 10938: a0 = u64 [s1 + 0x168]\n 10942: u64 [s1 + 0x4f0] = a0\n 10946: a0 = u64 [s1 + 0x170]\n 10950: u64 [s1 + 0x4e8] = a0\n 10954: a0 = s1 + 0x500\n 10958: a1 = s1 + 0x4e0\n 10962: a2 = s1 + 0x4c0\n 10966: a3 = u64 [s1 + 0x178]\n 10970: u64 [s1 + 0x4e0] = a3\n 10974: ra = 430, jump @1345\n      : @438 [@dyn 215] (gas: 8)\n 10980: a5 = s1 + 0x500\n 10984: a0 = u64 [a5]\n 10986: u64 [s1 + 0x178] = a0\n 10990: a0 = u64 [a5 + 0x8]\n 10993: u64 [s1 + 0x170] = a0\n 10997: a1 = u64 [s1 + 0x188]\n 11001: a0 = a1 + 0x2\n 11004: t0 = 432, jump @1540\n      : @439 [@dyn 216] (gas: 3)\n 11010: a1 = u64 [a5 + 0x10]\n 11013: u64 [s1 + 0x190] = a1\n 11017: t0 = 434, jump @1554\n      : @440 [@dyn 217] (gas: 11)\n 11023: a4 = u64 [a5 + 0x18]\n 11026: u64 [s1 + 0x198] = a4\n 11030: a4 = s1 + 0x2918\n 11034: a5 = a4 + 0x200\n 11038: u64 [a5 + 0x40] = a1\n 11041: u64 [a5 + 0x38] = a3\n 11044: u64 [a5 + 0x30] = a2\n 11047: u64 [a5 + 0x28] = a0\n 11050: a0 = s1 + 0x4a0\n 11054: a1 = s1 + 0x2b40\n 11058: ra = 436, jump @26\n      : @441 [@dyn 218] (gas: 20)\n 11064: a0 = u64 [s1 + 0x4a0]\n 11068: a1 = u64 [s1 + 0x4a8]\n 11072: a2 = u64 [s1 + 0x4b0]\n 11076: a3 = u64 [s1 + 0x4b8]\n 11080: u64 [s1 + 0x458] = a3\n 11084: u64 [s1 + 0x450] = a2\n 11088: u64 [s1 + 0x448] = a1\n 11092: u64 [s1 + 0x440] = a0\n 11096: a0 = u64 [s1 + 0x198]\n 11100: u64 [s1 + 0x478] = a0\n 11104: a0 = u64 [s1 + 0x190]\n 11108: u64 [s1 + 0x470] = a0\n 11112: a0 = u64 [s1 + 0x170]\n 11116: u64 [s1 + 0x468] = a0\n 11120: a0 = s1 + 0x480\n 11124: a1 = s1 + 0x460\n 11128: a2 = s1 + 0x440\n 11132: a3 = u64 [s1 + 0x178]\n 11136: u64 [s1 + 0x460] = a3\n 11140: ra = 438, jump @1345\n      : @442 [@dyn 219] (gas: 12)\n 11146: a0 = u64 [s1 + 0x498]\n 11150: a1 = s1 + 0x100\n 11154: u64 [a1 + 0x98] = a0\n 11158: a0 = u64 [s1 + 0x490]\n 11162: u64 [a1 + 0x90] = a0\n 11166: a0 = u64 [s1 + 0x488]\n 11170: u64 [a1 + 0x88] = a0\n 11174: a0 = u64 [s1 + 0x480]\n 11178: u64 [a1 + 0x80] = a0\n 11182: a0 = s1 + 0x420\n 11186: a1 = 0x40\n 11189: ra = 440, jump @22\n      : @443 [@dyn 220] (gas: 6)\n 11195: a4 = s1 + 0x400\n 11199: a0 = u64 [a4 + 0x38]\n 11202: a1 = u64 [a4 + 0x30]\n 11205: a2 = u64 [a4 + 0x28]\n 11208: a3 = u64 [a4 + 0x20]\n 11211: t0 = 442, jump @1520\n      : @444 [@dyn 221] (gas: 1)\n 11217: jump @446 if a0 == 0\n      : @445 (gas: 1)\n 11220: jump @848\n      : @446 (gas: 15)\n 11223: a2 = s1 + 0x100\n 11227: a0 = u64 [a2 + 0x80]\n 11231: a4 = s1 + 0x400\n 11235: u64 [a4] = a0\n 11237: a0 = u64 [a2 + 0x88]\n 11241: u64 [a4 + 0x8] = a0\n 11244: a0 = u64 [a2 + 0x90]\n 11248: u64 [a4 + 0x10] = a0\n 11251: a1 = s1 + 0x400\n 11255: a0 = u64 [a2 + 0x98]\n 11259: u64 [a4 + 0x18] = a0\n 11262: a0 = a3\n 11264: u64 [s1 + 0x198] = a3\n 11268: ra = 0x218\n 11272: jump @24\n      : @447 (gas: 9)\n 11275: u64 [a2 + 1952] = 0\n 11279: u64 [a2 + 1944] = 0\n 11283: u64 [a2 + 1936] = 0\n 11287: u64 [a2 + 1928] = 0\n 11291: a0 = s1 + 0x3000\n 11295: i32 a0 = a0 + 0xa0\n 11299: ra = 0x1bc\n 11303: ecalli 17 // 'value_transferred'\n 11305: fallthrough\n      : @448 [@dyn 222] (gas: 3)\n 11306: a3 = s1 + 0x2918\n 11310: a4 = a3 + 0x700\n 11314: t0 = 446, jump @1578\n      : @449 [@dyn 223] (gas: 1)\n 11320: jump @451 if a0 == 0\n      : @450 (gas: 1)\n 11323: jump @906\n      : @451 (gas: 1)\n 11326: t0 = 448, jump @1562\n      : @452 [@dyn 224] (gas: 1)\n 11332: jump @454 if a1 <u a0\n      : @453 (gas: 1)\n 11335: jump @907\n      : @454 (gas: 5)\n 11338: a0 = s1 + 0x3000\n 11342: i32 a0 = a0 + 0xc0\n 11346: a1 = 0x4\n 11349: ecalli 3 // 'call_data_load'\n 11351: fallthrough\n      : @455 (gas: 9)\n 11352: a5 = s1 + 0x2918\n 11356: a0 = a5 + 0x700\n 11360: a3 = u64 [a0 + 0xc0]\n 11364: a1 = u64 [a0 + 0xb8]\n 11368: a4 = u64 [a0 + 0xb0]\n 11372: a2 = a1 | a3\n 11375: a0 = a4 <u 0x1\n 11378: a0 = 0 if a2 != 0\n 11380: jump @457 if a0 != 0\n      : @456 (gas: 1)\n 11383: jump @908\n      : @457 (gas: 20)\n 11386: u64 [s1 + 0x98] = a2\n 11390: a5 = u64 [a5 + 0x7a8]\n 11394: a0 = u64 [s1 + 0x198]\n 11398: t1 = u32 [a0]\n 11400: a0 = a5 + 0x23\n 11403: a2 = a0 <u a5\n 11406: t0 = a4 + a2\n 11409: u64 [s1 + 0xd0] = a4\n 11413: a4 = t0 <u a4\n 11416: a4 = a2 if a2 == 0\n 11419: a4 = a4 + a1\n 11422: u64 [s1 + 0x180] = a1\n 11426: a2 = a4 <u a1\n 11429: u64 [s1 + 0x188] = a3\n 11433: a2 = a2 + a3\n 11436: a2 = a2 | a4\n 11439: a0 = a0 <u t1\n 11442: a0 = 0 if t0 != 0\n 11444: a0 = 0 if a2 != 0\n 11446: jump @459 if a0 != 0\n      : @458 (gas: 1)\n 11449: jump @909\n      : @459 (gas: 6)\n 11452: i32 a1 = a5 + 0x4\n 11455: a0 = s1 + 0x3000\n 11459: i32 a0 = a0 + 0xe0\n 11463: u64 [s1 + 0xc8] = a5\n 11467: ecalli 3 // 'call_data_load'\n 11469: fallthrough\n      : @460 (gas: 10)\n 11470: a3 = s1 + 0x2918\n 11474: t0 = u64 [a3 + 0x7e0]\n 11478: a0 = u64 [a3 + 0x7d8]\n 11482: a2 = u64 [a3 + 0x7d0]\n 11486: u64 [s1 + 0xe8] = a0\n 11490: a0 = a0 | t0\n 11493: a1 = a2 <u 0x1\n 11496: u64 [s1 + 0x190] = a0\n 11500: a1 = 0 if a0 != 0\n 11502: jump @462 if a1 != 0\n      : @461 (gas: 1)\n 11505: jump @910\n      : @462 (gas: 42)\n 11508: t2 = u64 [a3 + 0x7c8]\n 11512: a1 = u64 [s1 + 0xc8]\n 11516: a0 = a1 + 0x24\n 11519: a3 = a0 <u a1\n 11522: ra = u64 [s1 + 0xd0]\n 11526: a4 = ra + a3\n 11529: t1 = a0 + t2\n 11532: u64 [s1 + 0x120] = a0\n 11536: a5 = t1 <u a0\n 11539: a1 = a4 + a2\n 11542: a1 = a1 + a5\n 11545: a0 = a1 ^ a4\n 11548: u64 [s1 + 0xe0] = a2\n 11552: a2 = a1 <u a4\n 11555: a2 = a5 if a0 == 0\n 11558: a0 = a4 <u ra\n 11561: a0 = a3 if a3 == 0\n 11564: a3 = u64 [s1 + 0x180]\n 11568: a0 = a0 + a3\n 11571: a3 = a0 <u a3\n 11574: a4 = u64 [s1 + 0x188]\n 11578: a4 = a4 + t0\n 11581: a3 = a3 + a4\n 11584: a5 = u64 [s1 + 0xe8]\n 11588: a4 = a0 + a5\n 11591: a0 = a4 <u a0\n 11594: a0 = a0 + a3\n 11597: a3 = u64 [s1 + 0x198]\n 11601: a3 = u32 [a3]\n 11603: a2 = a2 + a4\n 11606: a4 = a2 <u a4\n 11609: a0 = a0 + a4\n 11612: a3 = a3 <u t1\n 11615: a4 = a1 <u 0x1\n 11618: a3 = a3 ^ 0x1\n 11621: a3 = a4 if a1 != 0\n 11624: a1 = a0 <u 0x1\n 11627: a4 = a2 <u 0x1\n 11630: a4 = a1 if a0 != 0\n 11633: a0 = a0 | a2\n 11636: a3 = a4 if a0 != 0\n 11639: jump @464 if a3 != 0\n      : @463 (gas: 1)\n 11642: jump @911\n      : @464 (gas: 6)\n 11645: a0 = t2 <u 0x3\n 11648: a2 = u64 [s1 + 0xe0]\n 11652: a0 = 0 if a2 != 0\n 11654: a3 = u64 [s1 + 0x190]\n 11658: a0 = 0 if a3 != 0\n 11660: jump @466 if a0 == 0\n      : @465 (gas: 1)\n 11663: jump @912\n      : @466 (gas: 12)\n 11666: a4 = a5\n 11668: a0 = a2 >u 0\n 11670: u64 [s1 + 0xb8] = t2\n 11674: a1 = t2 <u 0x65\n 11677: a1 = a1 ^ 0x1\n 11680: a1 = a0 if a2 != 0\n 11683: a0 = a5 >u 0\n 11685: a2 = t0 >u 0\n 11687: u64 [s1 + 0xb0] = t0\n 11691: a2 = a0 if t0 == 0\n 11694: a2 = a1 if a3 == 0\n 11697: jump @468 if a2 == 0\n      : @467 (gas: 1)\n 11700: jump @917\n      : @468 (gas: 8)\n 11703: a0 = 0x30190\n 11708: u64 [s1 + 0xd8] = a0\n 11712: i32 a0 = a0 + 0\n 11714: u64 [s1 + 0xc0] = a0\n 11718: ra = 0x1c2\n 11722: ecalli 5 // 'caller'\n 11724: t0 = 0x1c4\n 11728: jump @1511\n      : @469 [@dyn 225] (gas: 1)\n 11731: t0 = 452, jump @1511\n      : @470 [@dyn 226] (gas: 8)\n 11737: u64 [a2 + 1760] = 0\n 11741: a4 = a2 + 0x600\n 11745: u64 [a4 + 0xd8] = a1\n 11749: u64 [a4 + 0xd0] = a0\n 11753: a1 = s1 + 0x27e0\n 11757: u64 [a4 + 0xc8] = a3\n 11761: a0 = 0\n 11763: ra = 454, jump @24\n      : @471 [@dyn 227] (gas: 3)\n 11769: t0 = 0x1c8\n 11773: a1 = s1 + 0x2118\n 11777: fallthrough\n      : @472 [@dyn 228] (gas: 8)\n 11778: u64 [a1 + 1728] = 0\n 11782: u64 [a1 + 1720] = 0\n 11786: u64 [a1 + 1704] = 0x3\n 11791: a2 = a1\n 11793: a0 = 0x20\n 11796: a1 = s1 + 0x27c0\n 11800: u64 [a2 + 1712] = 0\n 11804: ra = 458, jump @24\n      : @473 [@dyn 229] (gas: 1)\n 11810: t0 = 460, jump @1558\n      : @474 [@dyn 230] (gas: 3)\n 11816: a2 = 0x20180\n 11821: a0 = i32 [0x20180]\n 11826: jump @476 if a0 >u 63\n      : @475 (gas: 2)\n 11830: u32 [0x20180] = 0x40\n 11836: fallthrough\n      : @476 (gas: 15)\n 11837: u64 [s1 + 0xa8] = a2\n 11841: a0 = sp + 0xffffffffffffffe0\n 11844: a2 = a0 & 0xffffffffffffffe0\n 11847: u64 [s1 + 0x190] = a2\n 11851: sp = a2\n 11853: a0 = 0x20190\n 11858: i32 a0 = a0 + 0\n 11860: i32 a2 = a2 + 0\n 11862: a1 = 0x40\n 11865: u64 [s1 + 0xa0] = a0\n 11869: ra = 0x1ce\n 11873: ecalli 9 // 'hash_keccak_256'\n 11875: a3 = u64 [s1 + 0x190]\n 11879: t0 = 0x1d0\n 11883: jump @1514\n      : @477 [@dyn 231] (gas: 2)\n 11886: a3 = u64 [s1 + 0x190]\n 11890: t0 = 464, jump @1514\n      : @478 [@dyn 232] (gas: 7)\n 11896: a1 = u64 [s1 + 0x198]\n 11900: u64 [a1 + 0x18] = a3\n 11903: u64 [a1 + 0x10] = a2\n 11906: u64 [a1 + 0x8] = a4\n 11909: u64 [a1] = a0\n 11911: a0 = s1 + 0x27a0\n 11915: ra = 466, jump @26\n      : @479 [@dyn 233] (gas: 3)\n 11921: t0 = 0x1d4\n 11925: a2 = s1 + 0x2118\n 11929: fallthrough\n      : @480 [@dyn 234] (gas: 8)\n 11930: a0 = u32 [a2 + 0x688]\n 11934: u64 [a2 + 1632] = 0\n 11938: u64 [a2 + 1624] = 0\n 11942: u64 [a2 + 0x648] = a0\n 11946: a0 = s1 + 0x2780\n 11950: a1 = s1 + 0x2760\n 11954: u64 [a2 + 1616] = 0\n 11958: ra = 470, jump @1384\n      : @481 [@dyn 235] (gas: 13)\n 11964: a0 = s1 + 0x2118\n 11968: a2 = a0 + 0x600\n 11972: a1 = u64 [a2 + 0x80]\n 11976: u64 [s1 + 0x108] = a1\n 11980: a1 = u64 [a2 + 0x78]\n 11983: u64 [s1 + 0x100] = a1\n 11987: a1 = u64 [a2 + 0x70]\n 11990: u64 [s1 + 0xf8] = a1\n 11994: a1 = u64 [a2 + 0x68]\n 11997: u64 [s1 + 0xf0] = a1\n 12001: a0 = s1 + 0x2740\n 12005: a1 = u64 [s1 + 0x198]\n 12009: ra = 472, jump @26\n      : @482 [@dyn 236] (gas: 24)\n 12015: a3 = s1 + 0x2118\n 12019: a0 = u32 [a3 + 0x62c]\n 12023: a0 = a0 << 0x20\n 12026: a4 = a3 + 0x600\n 12030: a1 = u64 [a4 + 0x30]\n 12033: a2 = u64 [a4 + 0x38]\n 12036: a3 = u64 [a4 + 0x40]\n 12039: a4 = u64 [s1 + 0xf0]\n 12043: a0 = a0 | a4\n 12046: a4 = u64 [s1 + 0xf8]\n 12050: a1 = a1 | a4\n 12053: a4 = u64 [s1 + 0x100]\n 12057: a2 = a2 | a4\n 12060: a4 = u64 [s1 + 0x108]\n 12064: a3 = a3 | a4\n 12067: a4 = s1 + 0x3118\n 12071: u64 [a4] = a3\n 12073: a3 = a4 + 0xffffffffffffff00\n 12077: u64 [a3 + 0xf8] = a2\n 12081: u64 [a3 + 0xf0] = a1\n 12085: u64 [a3 + 0xe8] = a0\n 12089: a1 = s1 + 0x3100\n 12093: a0 = u64 [s1 + 0x198]\n 12097: ra = 474, jump @28\n      : @483 [@dyn 237] (gas: 4)\n 12103: a0 = s1 + 0x3000\n 12107: i32 a0 = a0 + 0x120\n 12111: ecalli 10 // 'now'\n 12113: fallthrough\n      : @484 (gas: 50)\n 12114: a0 = s1 + 0x3118\n 12118: t2 = u64 [a0 + 0x20]\n 12121: a3 = u64 [a0 + 0x18]\n 12124: u64 [s1 + 0x150] = a3\n 12128: t1 = u64 [a0 + 0x10]\n 12131: ra = u64 [a0 + 0x8]\n 12134: a0 = clz t2\n 12136: a1 = clz a3\n 12138: a2 = a1 + 0x40\n 12141: a2 = a0 if t2 != 0\n 12144: a0 = clz t1\n 12146: a1 = clz ra\n 12148: a1 = a1 + 0x40\n 12151: a1 = a0 if t1 != 0\n 12154: a0 = a1 + 0x80\n 12158: a3 = a3 | t2\n 12161: a2 = a0 if a3 == 0\n 12164: a5 = a0 <u a1\n 12167: a5 = 0 if a3 != 0\n 12169: a4 = a5 >u 0\n 12171: a0 = a2 <u 0xf0\n 12175: a3 = a0 ^ 0x1\n 12178: a4 = a3 if a5 == 0\n 12181: a0 = a4 <u 0x1\n 12184: a0 = a0 + 0xffffffffffffffff\n 12187: a1 = -a4\n 12189: a5 = -a5\n 12191: a3 = a5 - a3\n 12194: t0 = 0xef - a2\n 12198: u64 [s1 + 0x198] = a1\n 12202: a5 = a1 >u 0\n 12204: a1 = a0 >u 0\n 12206: a1 = a5 if a0 == 0\n 12209: a5 = t0 <u 0x100\n 12213: a5 = a5 ^ 0x1\n 12216: a2 = a3 >u 0\n 12218: a5 = a2 if a3 != 0\n 12221: a5 = a1 if a4 != 0\n 12224: u64 [s1 + 0x140] = t2\n 12228: a1 = t1 | t2\n 12231: t2 = t1\n 12233: t1 = u64 [s1 + 0x150]\n 12237: a2 = ra | t1\n 12240: a1 = a1 | a2\n 12243: a1 = a1 <u 0x1\n 12246: a1 = a1 | a5\n 12249: u64 [s1 + 0x158] = ra\n 12253: a4 = ra\n 12255: a4 = 0 if a1 != 0\n 12257: jump @486 if a1 == 0\n      : @485 (gas: 1)\n 12260: jump @679\n      : @486 (gas: 6)\n 12263: a1 = t0 ^ 0xff\n 12267: a5 = u64 [s1 + 0x198]\n 12271: a1 = a1 | a5\n 12274: a2 = a3 | a0\n 12277: a1 = a1 | a2\n 12280: jump @488 if a1 != 0\n      : @487 (gas: 1)\n 12283: jump @679\n      : @488 (gas: 19)\n 12286: a2 = t0 + 0x1\n 12289: u64 [s1 + 0x190] = a2\n 12293: a1 = a2 <u 0x1\n 12296: a1 = a1 + a3\n 12299: u64 [s1 + 0x180] = a1\n 12303: a1 = a1 | a2\n 12306: a1 = a1 <u 0x1\n 12309: a1 = a1 + a5\n 12312: u64 [s1 + 0x170] = a1\n 12316: a1 = a1 <u a5\n 12319: a0 = a0 + a1\n 12322: u64 [s1 + 0x178] = a0\n 12326: a1 = 0xff - t0\n 12330: u64 [s1 + 0x168] = a1\n 12334: a2 = 0x80 - a1\n 12338: a0 = u64 [s1 + 0x158]\n 12342: a1 = t2\n 12344: u64 [s1 + 0x148] = t2\n 12348: ra = 476, jump @1589\n      : @489 [@dyn 238] (gas: 1)\n 12354: t0 = 478, jump @1575\n      : @490 [@dyn 239] (gas: 1)\n 12360: ra = 480, jump @1594\n      : @491 [@dyn 240] (gas: 7)\n 12366: u64 [s1 + 0x130] = a0\n 12370: u64 [s1 + 0x128] = a1\n 12374: a0 = u64 [s1 + 0x168]\n 12378: a2 = a0 + 0xffffffffffffff80\n 12381: a0 = u64 [s1 + 0x158]\n 12385: a1 = u64 [s1 + 0x148]\n 12389: ra = 482, jump @1594\n      : @492 [@dyn 241] (gas: 1)\n 12395: t0 = 484, jump @1587\n      : @493 [@dyn 242] (gas: 3)\n 12401: a0 = u64 [s1 + 0x158]\n 12405: a1 = u64 [s1 + 0x148]\n 12409: ra = 486, jump @1594\n      : @494 [@dyn 243] (gas: 11)\n 12415: a4 = u64 [s1 + 0x138]\n 12419: t0 = u64 [s1 + 0x170]\n 12423: a5 = u64 [s1 + 0x178]\n 12427: a2 = u64 [s1 + 0x180]\n 12431: a5 = a5 | a2\n 12434: a3 = u64 [s1 + 0x190]\n 12438: a3 = a3 | t0\n 12441: a3 = a3 | a5\n 12444: a0 = 0 if a4 == 0\n 12446: u64 [s1 + 0x188] = a0\n 12450: jump @496 if a3 == 0\n      : @495 (gas: 1)\n 12453: jump @666\n      : @496 (gas: 2)\n 12456: a4 = 0\n 12458: jump @678\n      : @497 (gas: 10)\n 12461: u64 [a2 + 1600] = 0\n 12465: u64 [a2 + 1592] = 0\n 12469: u64 [a2 + 1584] = 0\n 12473: u64 [a2 + 1576] = 0\n 12477: a0 = s1 + 0x3000\n 12481: i32 a0 = a0 + 0xffffffffffffff40\n 12485: ra = 0x1e8\n 12489: ecalli 17 // 'value_transferred'\n 12491: t0 = 0x1ea\n 12495: jump @1583\n      : @498 [@dyn 244] (gas: 1)\n 12498: t0 = 490, jump @1583\n      : @499 [@dyn 245] (gas: 1)\n 12504: t0 = 492, jump @1550\n      : @500 [@dyn 246] (gas: 1)\n 12510: jump @502 if a0 == 0\n      : @501 (gas: 1)\n 12513: jump @922\n      : @502 (gas: 3)\n 12516: a0 = u64 [s1 + 0x198]\n 12520: a0 = i32 [a0]\n 12522: jump @504 if a0 >u 67\n      : @503 (gas: 1)\n 12526: jump @923\n      : @504 (gas: 4)\n 12529: a0 = s1 + 0x1900\n 12533: ra = 0x1ee\n 12537: t0 = 0x578\n 12541: jump @1568\n      : @505 [@dyn 247] (gas: 13)\n 12544: a0 = s1 + 0x1918\n 12548: a2 = a0 + 0xffffffffffffff00\n 12552: a1 = u64 [a2 + 0xf8]\n 12556: u64 [s1 + 0x168] = a1\n 12560: a1 = u64 [a2 + 0xf0]\n 12564: u64 [s1 + 0x198] = a1\n 12568: a0 = u64 [a2 + 0xe8]\n 12572: u64 [s1 + 0x190] = a0\n 12576: a0 = s1 + 0x3000\n 12580: i32 a0 = a0 + 0xffffffffffffff60\n 12584: a1 = 0x24\n 12587: ecalli 3 // 'call_data_load'\n 12589: fallthrough\n      : @506 (gas: 19)\n 12590: a0 = s1 + 0x2918\n 12594: a5 = a0 + 0x600\n 12598: a4 = u64 [a5 + 0x60]\n 12601: a3 = u64 [a5 + 0x58]\n 12604: a2 = u64 [a5 + 0x50]\n 12607: a1 = u64 [a5 + 0x48]\n 12610: a5 = s1 + 0x100\n 12614: u64 [a5 + 0x80] = a2\n 12618: u64 [a5 + 0x70] = a4\n 12621: a0 = a2 | a4\n 12624: u64 [a5 + 0x88] = a1\n 12628: a1 = a1 | a3\n 12631: a1 = a1 | a0\n 12634: a1 = a1 >> 0x20\n 12637: u64 [a5 + 0x78] = a3\n 12640: a0 = a0 | a3\n 12643: a0 = a0 << 0x20\n 12646: a0 = a0 | a1\n 12649: jump @508 if a0 == 0\n      : @507 (gas: 1)\n 12652: jump @924\n      : @508 (gas: 15)\n 12655: a3 = s1 + 0x100\n 12659: a0 = u64 [a3 + 0x68]\n 12662: a0 = a0 << 0x20\n 12665: a0 = a0 >> 0x20\n 12668: a2 = s1 + 0x1118\n 12672: u64 [a2 + 2016] = 0\n 12676: a1 = u64 [a3 + 0x90]\n 12680: a4 = a2 + 0x700\n 12684: u64 [a4 + 0xc8] = a1\n 12688: a1 = u64 [a3 + 0x98]\n 12692: u64 [a4 + 0xd0] = a1\n 12696: a1 = s1 + 0x18e0\n 12700: u64 [a4 + 0xd8] = a0\n 12704: a0 = 0\n 12706: ra = 496, jump @24\n      : @509 [@dyn 248] (gas: 3)\n 12712: t0 = 0x1f2\n 12716: a1 = s1 + 0x1118\n 12720: fallthrough\n      : @510 [@dyn 249] (gas: 8)\n 12721: u64 [a1 + 1984] = 0\n 12725: u64 [a1 + 1976] = 0\n 12729: u64 [a1 + 1960] = 0x2\n 12734: a2 = a1\n 12736: a0 = 0x20\n 12739: a1 = s1 + 0x18c0\n 12743: u64 [a2 + 1968] = 0\n 12747: ra = 500, jump @24\n      : @511 [@dyn 250] (gas: 3)\n 12753: a1 = 0x20180\n 12758: a0 = i32 [0x20180]\n 12763: jump @513 if a0 >u 63\n      : @512 (gas: 2)\n 12767: u32 [0x20180] = 0x40\n 12773: fallthrough\n      : @513 (gas: 41)\n 12774: a0 = sp + 0xffffffffffffffe0\n 12777: a2 = a0 & 0xffffffffffffffe0\n 12780: u64 [s1 + 0x168] = a2\n 12784: sp = a2\n 12786: a0 = 0x20190\n 12791: i32 a0 = a0 + 0\n 12793: u64 [s1 + 0x198] = a1\n 12797: i32 a2 = a2 + 0\n 12799: a1 = 0x40\n 12802: u64 [s1 + 0x190] = a0\n 12806: ecalli 9 // 'hash_keccak_256'\n 12808: a3 = u64 [s1 + 0x168]\n 12812: a0 = u64 [a3 + 0x18]\n 12815: a1 = u64 [a3 + 0x10]\n 12818: a2 = u64 [a3 + 0x8]\n 12821: a3 = u64 [a3]\n 12823: a0 = reverse a0\n 12825: u64 [s1 + 0x160] = a0\n 12829: a0 = reverse a1\n 12831: u64 [s1 + 0x158] = a0\n 12835: a0 = reverse a2\n 12837: u64 [s1 + 0x150] = a0\n 12841: a0 = reverse a3\n 12843: u64 [s1 + 0x148] = a0\n 12847: a0 = sp + 0xffffffffffffffe0\n 12850: a0 = a0 & 0xffffffffffffffe0\n 12853: u64 [s1 + 0x168] = a0\n 12857: sp = a0\n 12859: a2 = s1 + 0x1118\n 12863: a0 = u64 [s1 + 0x170]\n 12867: a3 = a2 + 0x700\n 12871: u64 [a3 + 0xa0] = a0\n 12875: a0 = u64 [s1 + 0x178]\n 12879: u64 [a3 + 0x98] = a0\n 12883: a0 = u64 [s1 + 0x180]\n 12887: u64 [a3 + 0x90] = a0\n 12891: a1 = s1 + 0x18a0\n 12895: a0 = u64 [s1 + 0x188]\n 12899: u64 [a3 + 0x88] = a0\n 12903: a0 = 0\n 12905: ra = 502, jump @24\n      : @514 [@dyn 251] (gas: 3)\n 12911: t0 = 0x1f8\n 12915: a1 = s1 + 0x1118\n 12919: fallthrough\n      : @515 [@dyn 252] (gas: 13)\n 12920: a0 = u64 [s1 + 0x148]\n 12924: a2 = a1 + 0x700\n 12928: u64 [a2 + 0x80] = a0\n 12932: a0 = u64 [s1 + 0x150]\n 12936: u64 [a2 + 0x78] = a0\n 12939: a0 = u64 [s1 + 0x158]\n 12943: u64 [a2 + 0x70] = a0\n 12946: a3 = a1\n 12948: a0 = 0x20\n 12951: a1 = s1 + 0x1880\n 12955: a2 = u64 [s1 + 0x160]\n 12959: u64 [a3 + 0x768] = a2\n 12963: ra = 506, jump @24\n      : @516 [@dyn 253] (gas: 3)\n 12969: a1 = u64 [s1 + 0x198]\n 12973: a0 = i32 [a1]\n 12975: jump @518 if a0 >u 63\n      : @517 (gas: 2)\n 12979: u32 [a1 + 0] = 0x40\n 12982: fallthrough\n      : @518 (gas: 4)\n 12983: a0 = sp + 0xffffffffffffffe0\n 12986: a0 = a0 & 0xffffffffffffffe0\n 12989: u64 [s1 + 0x188] = a0\n 12993: t0 = 508, jump @1522\n      : @519 [@dyn 254] (gas: 21)\n 12999: ecalli 9 // 'hash_keccak_256'\n 13001: a3 = u64 [s1 + 0x188]\n 13005: a0 = u64 [a3 + 0x18]\n 13008: a1 = u64 [a3 + 0x10]\n 13011: a2 = u64 [a3 + 0x8]\n 13014: a3 = u64 [a3]\n 13016: a5 = reverse a0\n 13018: u64 [s1 + 0xd8] = a5\n 13022: a4 = reverse a1\n 13024: u64 [s1 + 0xe0] = a4\n 13028: a2 = reverse a2\n 13030: u64 [s1 + 0xf0] = a2\n 13034: a0 = reverse a3\n 13036: u64 [s1 + 0xe8] = a0\n 13040: a1 = u64 [s1 + 0x168]\n 13044: u64 [a1 + 0x18] = a0\n 13047: u64 [a1 + 0x10] = a2\n 13050: u64 [a1 + 0x8] = a4\n 13053: u64 [a1] = a5\n 13055: a0 = s1 + 0x1860\n 13059: ra = 510, jump @26\n      : @520 [@dyn 255] (gas: 3)\n 13065: t0 = 0x200\n 13069: a1 = s1 + 0x1118\n 13073: fallthrough\n      : @521 [@dyn 256] (gas: 34)\n 13074: a2 = a1 + 0x700\n 13078: a0 = u64 [a2 + 0x58]\n 13081: u64 [s1 + 0xc8] = a0\n 13085: a0 = u64 [a2 + 0x50]\n 13088: u64 [s1 + 0xc0] = a0\n 13092: a0 = u64 [a2 + 0x48]\n 13095: u64 [s1 + 0xd0] = a0\n 13099: a0 = sp + 0xffffffffffffffe0\n 13102: a4 = a0 & 0xffffffffffffffe0\n 13105: u64 [s1 + 0x188] = a4\n 13109: sp = a4\n 13111: a1 = u64 [s1 + 0xd8]\n 13115: a1 = a1 + 0x1\n 13118: a0 = a1 <u 0x1\n 13121: a2 = u64 [s1 + 0xe0]\n 13125: a2 = a2 + a0\n 13128: a0 = a1 | a2\n 13131: a0 = a0 <u 0x1\n 13134: a5 = u64 [s1 + 0xf0]\n 13138: a3 = a5 + a0\n 13141: a0 = a3 <u a5\n 13144: a5 = u64 [s1 + 0xe8]\n 13148: a0 = a0 + a5\n 13151: u64 [s1 + 0x180] = a0\n 13155: u64 [a4 + 0x18] = a0\n 13158: u64 [s1 + 0x168] = a3\n 13162: u64 [a4 + 0x10] = a3\n 13165: u64 [s1 + 0x170] = a2\n 13169: u64 [a4 + 0x8] = a2\n 13172: u64 [s1 + 0x178] = a1\n 13176: u64 [a4] = a1\n 13178: a0 = s1 + 0x1840\n 13182: a1 = 0x40\n 13185: ra = 514, jump @22\n      : @522 [@dyn 257] (gas: 13)\n 13191: a0 = s1 + 0x1118\n 13195: a2 = a0 + 0x700\n 13199: a1 = u64 [a2 + 0x40]\n 13202: u64 [s1 + 0x110] = a1\n 13206: a1 = u64 [a2 + 0x38]\n 13209: u64 [s1 + 0xf8] = a1\n 13213: a1 = u64 [a2 + 0x30]\n 13216: u64 [s1 + 0x100] = a1\n 13220: a1 = u64 [a2 + 0x28]\n 13223: u64 [s1 + 0x108] = a1\n 13227: a0 = s1 + 0x1820\n 13231: a1 = u64 [s1 + 0x188]\n 13235: ra = 516, jump @26\n      : @523 [@dyn 258] (gas: 2)\n 13241: a0 = 0x1000\n 13245: t0 = 518, jump @1580\n      : @524 [@dyn 259] (gas: 12)\n 13251: u64 [s1 + 0x160] = a0\n 13255: a5 = a3 + 0x600\n 13259: u64 [a5 + 0xe0] = a0\n 13263: u64 [s1 + 0x130] = a1\n 13267: u64 [a5 + 0xd8] = a1\n 13271: u64 [s1 + 0x128] = a2\n 13275: u64 [a5 + 0xd0] = a2\n 13279: a0 = s1 + 0x1800\n 13283: a1 = s1 + 0x17e0\n 13287: u64 [s1 + 0x188] = a4\n 13291: u64 [a5 + 0xc8] = a4\n 13295: ra = 520, jump @1326\n      : @525 [@dyn 260] (gas: 13)\n 13301: a3 = u64 [s1 + 0xf8]\n 13305: a4 = s1 + 0x100\n 13309: a1 = u64 [a4 + 0x10]\n 13312: a0 = u64 [a4 + 0x8]\n 13315: a2 = u64 [a4]\n 13317: a2 = a2 | a1\n 13320: a1 = a0 | a3\n 13323: a1 = a1 | a2\n 13326: a1 = a1 >> 0x20\n 13329: a2 = a2 | a3\n 13332: a2 = a2 << 0x20\n 13335: a1 = a1 | a2\n 13338: jump @527 if a1 == 0\n      : @526 (gas: 1)\n 13341: jump @848\n      : @527 (gas: 16)\n 13344: a5 = s1 + 0x1118\n 13348: t0 = u64 [a5 + 0x700]\n 13352: t1 = u64 [a5 + 0x6f8]\n 13356: a3 = a5 + 0x600\n 13360: a1 = u64 [a3 + 0xf0]\n 13364: a2 = u64 [a3 + 0xe8]\n 13368: u64 [s1 + 0x140] = a2\n 13372: u64 [a3 + 0xa8] = a2\n 13376: u64 [s1 + 0x150] = a1\n 13380: u64 [a3 + 0xb0] = a1\n 13384: u64 [s1 + 0x148] = t1\n 13388: u64 [a5 + 0x6b8] = t1\n 13392: a1 = s1 + 0x17c0\n 13396: u64 [s1 + 0x158] = t0\n 13400: u64 [a5 + 0x6c0] = t0\n 13404: ra = 522, jump @24\n      : @528 [@dyn 261] (gas: 9)\n 13410: a4 = u64 [s1 + 0xf8]\n 13414: a1 = u64 [s1 + 0x108]\n 13418: a0 = a1 + 0x20\n 13421: a5 = u64 [s1 + 0x188]\n 13425: a2 = a5 & 0x1\n 13428: a3 = u64 [s1 + 0x110]\n 13432: a3 = a3 | a4\n 13435: u64 [s1 + 0x138] = a0\n 13439: jump @530 if a2 == 0\n      : @529 (gas: 1)\n 13442: jump @656\n      : @530 (gas: 6)\n 13445: a2 = 0xffffffe0\n 13455: a2 = a1 <u a2\n 13458: a1 = u64 [s1 + 0x100]\n 13462: a2 = 0 if a1 != 0\n 13464: a2 = 0 if a3 != 0\n 13466: jump @532 if a2 != 0\n      : @531 (gas: 1)\n 13469: jump @848\n      : @532 (gas: 13)\n 13472: u64 [s1 + 0xb8] = a3\n 13476: a2 = a5 & 0xffffffffffffff00\n 13480: a3 = s1 + 0x1118\n 13484: a1 = u64 [s1 + 0x128]\n 13488: a4 = a3 + 0x600\n 13492: u64 [a4 + 0x30] = a1\n 13495: u64 [a4 + 0x28] = a2\n 13498: a1 = u64 [s1 + 0x130]\n 13502: u64 [a4 + 0x38] = a1\n 13505: a1 = s1 + 0x1740\n 13509: a2 = u64 [s1 + 0x160]\n 13513: u64 [a4 + 0x40] = a2\n 13516: ra = 524, jump @24\n      : @533 [@dyn 262] (gas: 16)\n 13522: a5 = s1 + 0x1118\n 13526: t2 = 0\n 13528: t1 = 0\n 13530: u64 [s1 + 400] = 0\n 13534: a3 = s1 + 0x100\n 13538: a0 = u64 [a3 + 0x48]\n 13541: a1 = u64 [a3 + 0x40]\n 13544: a0 = a0 | a1\n 13547: a1 = u64 [a3 + 0x58]\n 13550: a2 = u64 [a3 + 0x50]\n 13553: a1 = a1 | a2\n 13556: a0 = a0 | a1\n 13559: a0 = a0 >u 0\n 13561: a0 = a0 << 0x5\n 13564: u64 [a3 + 0x98] = a0\n 13568: jump @751\n      : @534 (gas: 1)\n 13571: jump @536 if a0 == 1872738698\n      : @535 (gas: 1)\n 13578: jump @925\n      : @536 (gas: 10)\n 13581: u64 [a2 + 1376] = 0\n 13585: u64 [a2 + 1368] = 0\n 13589: u64 [a2 + 1360] = 0\n 13593: u64 [a2 + 1352] = 0\n 13597: a0 = s1 + 0x3000\n 13601: i32 a0 = a0 + 0xfffffffffffffe60\n 13605: ra = 0x20e\n 13609: ecalli 17 // 'value_transferred'\n 13611: t0 = 0x210\n 13615: jump @1542\n      : @537 [@dyn 263] (gas: 1)\n 13618: t0 = 528, jump @1542\n      : @538 [@dyn 264] (gas: 1)\n 13624: t0 = 530, jump @1588\n      : @539 [@dyn 265] (gas: 1)\n 13630: jump @541 if a0 == 0\n      : @540 (gas: 1)\n 13633: jump @931\n      : @541 (gas: 3)\n 13636: a0 = u64 [s1 + 0x198]\n 13640: a0 = i32 [a0]\n 13642: jump @543 if a0 >u 3\n      : @542 (gas: 1)\n 13646: jump @932\n      : @543 (gas: 17)\n 13649: a0 = s1 + 0x3000\n 13653: i32 a0 = a0 + 0xfffffffffffffe80\n 13657: ecalli 0 // 'balance'\n 13658: a0 = s1 + 0x2918\n 13662: a2 = a0 + 0x500\n 13666: a1 = u64 [a2 + 0x80]\n 13670: a3 = s1 + 0x100\n 13674: u64 [a3 + 0x98] = a1\n 13678: a1 = u64 [a2 + 0x78]\n 13681: u64 [a3 + 0x90] = a1\n 13685: a1 = u64 [a2 + 0x70]\n 13688: u64 [a3 + 0x88] = a1\n 13692: a0 = u64 [a2 + 0x68]\n 13695: u64 [a3 + 0x80] = a0\n 13699: a0 = s1 + 0x11e0\n 13703: a1 = 0x40\n 13706: ra = 532, jump @22\n      : @544 [@dyn 266] (gas: 6)\n 13712: a3 = s1 + 0x1118\n 13716: a0 = u64 [a3 + 0xe0]\n 13720: a1 = u64 [a3 + 0xd8]\n 13724: a2 = u64 [a3 + 0xd0]\n 13728: a4 = u64 [a3 + 0xc8]\n 13732: t0 = 534, jump @1543\n      : @545 [@dyn 267] (gas: 1)\n 13738: jump @547 if a0 == 0\n      : @546 (gas: 1)\n 13741: jump @848\n      : @547 (gas: 13)\n 13744: a2 = s1 + 0x100\n 13748: a0 = u64 [a2 + 0x80]\n 13752: u64 [a3 + 0xa8] = a0\n 13756: a0 = u64 [a2 + 0x88]\n 13760: u64 [a3 + 0xb0] = a0\n 13764: a0 = u64 [a2 + 0x90]\n 13768: u64 [a3 + 0xb8] = a0\n 13772: a1 = s1 + 0x11c0\n 13776: a0 = u64 [a2 + 0x98]\n 13780: u64 [a3 + 0xc0] = a0\n 13784: a0 = a4\n 13786: u64 [s1 + 0x198] = a4\n 13790: ra = 536, jump @24\n      : @548 [@dyn 268] (gas: 4)\n 13796: a1 = 0x20\n 13799: a0 = u64 [s1 + 0x198]\n 13803: ra = 0x3c4\n 13807: jump @37\n      : @549 (gas: 1)\n 13810: t0 = 538, jump @1563\n      : @550 [@dyn 269] (gas: 12)\n 13816: t0 = u64 [s1 + 0x168]\n 13820: a3 = a0 if t0 != 0\n 13823: u64 [s1 + 0x198] = a3\n 13827: a0 = u64 [s1 + 0x160]\n 13831: a2 = u64 [s1 + 0x130]\n 13835: a0 = a0 | a2\n 13838: a2 = u64 [s1 + 0x118]\n 13842: a0 = a2 if a4 == 0\n 13845: a5 = u64 [s1 + 0x150]\n 13849: a3 = a5\n 13851: a3 = a0 if t0 != 0\n 13854: t0 = 540, jump @1538\n      : @551 [@dyn 270] (gas: 1)\n 13860: ra = 542, jump @1589\n      : @552 [@dyn 271] (gas: 6)\n 13866: u64 [s1 + 0x130] = a0\n 13870: u64 [s1 + 0x118] = a1\n 13874: a0 = u64 [s1 + 0x148]\n 13878: a1 = u64 [s1 + 0x158]\n 13882: a2 = u64 [s1 + 0x190]\n 13886: ra = 544, jump @1589\n      : @553 [@dyn 272] (gas: 1)\n 13892: t0 = 546, jump @1548\n      : @554 [@dyn 273] (gas: 1)\n 13898: ra = 548, jump @1594\n      : @555 [@dyn 274] (gas: 1)\n 13904: t0 = 550, jump @1549\n      : @556 [@dyn 275] (gas: 14)\n 13910: a2 = u64 [s1 + 0x158]\n 13914: a2 = a1 if a3 != 0\n 13917: u64 [s1 + 0x158] = a2\n 13921: a1 = u64 [s1 + 0x110]\n 13925: a0 = a0 | a1\n 13928: a1 = u64 [s1 + 0x130]\n 13932: a0 = a1 if a4 == 0\n 13935: a1 = u64 [s1 + 0x148]\n 13939: a1 = a0 if a3 != 0\n 13942: a2 = a3\n 13944: u64 [s1 + 0x148] = a1\n 13948: a0 = u64 [s1 + 0x150]\n 13952: a1 = u64 [s1 + 0x140]\n 13956: ra = 552, jump @1589\n      : @557 [@dyn 276] (gas: 1)\n 13962: t0 = 554, jump @1528\n      : @558 [@dyn 277] (gas: 3)\n 13968: t1 = u64 [s1 + 0x158]\n 13972: t2 = u64 [s1 + 0x148]\n 13976: fallthrough\n      : @559 (gas: 68)\n 13977: u64 [s1 + 0x158] = a4\n 13981: a2 = t2 >> 0x3f\n 13984: a3 = t1 << 0x1\n 13987: t0 = a3 | a2\n 13990: a3 = t2 << 0x1\n 13993: a4 = u64 [s1 + 0x198]\n 13997: a4 = a4 >> 0x3f\n 14000: a3 = a3 | a4\n 14003: u64 [s1 + 0x148] = a3\n 14007: a2 = u64 [s1 + 0x128]\n 14011: t2 = a1\n 14013: u64 [s1 + 0x150] = t0\n 14017: a1 = a2 ^ t0\n 14020: ra = t1\n 14022: t1 = a2 <u t0\n 14025: a4 = u64 [s1 + 0x130]\n 14029: t0 = a4 <u a3\n 14032: t0 = t1 if a1 != 0\n 14035: a1 = t2 << 0x1\n 14038: a3 = a0 >> 0x3f\n 14041: a1 = a1 | a3\n 14044: u64 [s1 + 0x140] = a1\n 14048: a3 = ra >> 0x3f\n 14051: a0 = a0 << 0x1\n 14054: a3 = a3 | a0\n 14057: a0 = u64 [s1 + 0x198]\n 14061: a0 = a0 << 0x1\n 14064: a4 = u64 [s1 + 0x160]\n 14068: a1 = a4 >> 0x3f\n 14071: ra = a0 | a1\n 14074: a1 = a4 << 0x1\n 14077: a4 = u64 [s1 + 0x168]\n 14081: t1 = a4 >> 0x3f\n 14084: t1 = a1 | t1\n 14087: a1 = a4 << 0x1\n 14090: a4 = u64 [s1 + 0x188]\n 14094: t2 = a4 >> 0x3f\n 14097: a1 = a1 | t2\n 14100: a4 = a4 << 0x1\n 14103: a0 = u64 [s1 + 0x158]\n 14107: a4 = a4 | a0\n 14110: u64 [s1 + 0x188] = a4\n 14114: a1 = a1 | a5\n 14117: u64 [s1 + 0x168] = a1\n 14121: a1 = a5 | t1\n 14124: u64 [s1 + 0x160] = a1\n 14128: a0 = a5 | ra\n 14131: u64 [s1 + 0x198] = a0\n 14135: a0 = a2 - a3\n 14138: a0 = a0 <u t0\n 14141: a1 = a2 <u a3\n 14144: t0 = u64 [s1 + 0x140]\n 14148: a4 = a2 - t0\n 14151: a4 = a4 - a1\n 14154: a4 = a4 - a0\n 14157: a5 = a4 >>a 0x3f\n 14160: a0 = u64 [s1 + 0x138]\n 14164: a0 = a0 & a5\n 14167: a1 = u64 [s1 + 0x148]\n 14171: t2 = a1 - a0\n 14174: a1 = a1 <u a0\n 14177: a0 = u64 [s1 + 0x150]\n 14181: t1 = a0 - a1\n 14184: a1 = 0 if a0 != 0\n 14186: a0 = a3 - a1\n 14189: a1 = a3 <u a1\n 14192: a1 = t0 - a1\n 14195: t0 = 556, jump @1571\n      : @560 [@dyn 278] (gas: 17)\n 14201: t0 = a4 <u a2\n 14204: a2 = a4 - a2\n 14207: a4 = a3 <u 0x1\n 14210: ra = ra - a4\n 14213: a4 = u64 [s1 + 0x178]\n 14217: a4 = a4 - t0\n 14220: a3 = a3 + 0xffffffffffffffff\n 14223: u64 [s1 + 0x180] = ra\n 14227: u64 [s1 + 0x178] = a4\n 14231: t0 = ra | a4\n 14234: u64 [s1 + 0x190] = a3\n 14238: a4 = a3 | a2\n 14241: a3 = a4 | t0\n 14244: a4 = a5 & 0x1\n 14247: u64 [s1 + 0x170] = a2\n 14251: a5 = 0\n 14253: jump @559 if a3 != 0\n      : @561 (gas: 4)\n 14257: a0 = u64 [s1 + 0x188]\n 14261: a0 = a0 << 0x1\n 14264: a4 = a4 | a0\n 14267: fallthrough\n      : @562 (gas: 3)\n 14268: a0 = a4 & 0xffffffffffffffff\n 14271: a1 = u64 [s1 + 0x120]\n 14275: jump @564 if a1 == a0\n      : @563 (gas: 1)\n 14278: jump @933\n      : @564 (gas: 9)\n 14281: a0 = 0x30190\n 14286: u64 [s1 + 0x140] = a0\n 14290: i32 a0 = a0 + 0\n 14292: u64 [s1 + 0x138] = a0\n 14296: ra = 0x22e\n 14300: ecalli 5 // 'caller'\n 14302: a2 = u64 [s1 + 0x140]\n 14306: t0 = 0x230\n 14310: jump @1524\n      : @565 [@dyn 279] (gas: 2)\n 14313: a2 = u64 [s1 + 0x140]\n 14317: t0 = 560, jump @1524\n      : @566 [@dyn 280] (gas: 8)\n 14323: u64 [a2 + 0] = 0\n 14325: a4 = a2 + 0xffffffffffffff00\n 14329: u64 [a4 + 0xf8] = a1\n 14333: u64 [a4 + 0xf0] = a0\n 14337: a1 = s1 + 0x1100\n 14341: u64 [a4 + 0xe8] = a3\n 14345: a0 = 0\n 14347: ra = 562, jump @24\n      : @567 [@dyn 281] (gas: 9)\n 14353: a2 = s1 + 0x7ff\n 14357: a2 = a2 + 0x119\n 14361: u64 [a2 + 2016] = 0\n 14365: u64 [a2 + 2008] = 0\n 14369: u64 [a2 + 1992] = 0x1\n 14374: a0 = 0x20\n 14377: a1 = s1 + 0x10e0\n 14381: u64 [a2 + 2000] = 0\n 14385: ra = 564, jump @24\n      : @568 [@dyn 282] (gas: 7)\n 14391: a0 = sp + 0xffffffffffffffe0\n 14394: a0 = a0 & 0xffffffffffffffe0\n 14397: u64 [s1 + 0x118] = a0\n 14401: sp = a0\n 14403: a1 = 0x20180\n 14408: a0 = i32 [0x20180]\n 14413: jump @570 if a0 >u 63\n      : @569 (gas: 3)\n 14417: u32 [0x20180] = 0x40\n 14423: t0 = 0x236\n 14427: jump @1541\n      : @570 (gas: 1)\n 14430: t0 = 566, jump @1541\n      : @571 [@dyn 283] (gas: 31)\n 14436: a0 = 0x20190\n 14441: i32 a0 = a0 + 0\n 14443: i32 a2 = a2 + 0\n 14445: u64 [s1 + 0x170] = a1\n 14449: a1 = 0x40\n 14452: u64 [s1 + 0x178] = a0\n 14456: ecalli 9 // 'hash_keccak_256'\n 14458: a3 = u64 [s1 + 0x198]\n 14462: a0 = u64 [a3 + 0x18]\n 14465: a1 = u64 [a3 + 0x10]\n 14468: a2 = u64 [a3 + 0x8]\n 14471: a3 = u64 [a3]\n 14473: a5 = reverse a0\n 14475: a4 = reverse a1\n 14477: a1 = reverse a2\n 14479: a2 = reverse a3\n 14481: a0 = u64 [s1 + 0x118]\n 14485: u64 [s1 + 0x190] = a2\n 14489: u64 [a0 + 0x18] = a2\n 14492: u64 [s1 + 0x198] = a1\n 14496: u64 [a0 + 0x10] = a1\n 14499: u64 [s1 + 0x188] = a4\n 14503: u64 [a0 + 0x8] = a4\n 14506: u64 [s1 + 0x180] = a5\n 14510: u64 [a0] = a5\n 14512: a0 = u64 [s1 + 0x138]\n 14516: ra = 0x238\n 14520: ecalli 5 // 'caller'\n 14522: a2 = u64 [s1 + 0x140]\n 14526: t0 = 0x23a\n 14530: jump @1507\n      : @572 [@dyn 284] (gas: 2)\n 14533: a2 = u64 [s1 + 0x140]\n 14537: t0 = 570, jump @1507\n      : @573 [@dyn 285] (gas: 8)\n 14543: u64 [a2 + 1984] = 0\n 14547: a4 = a2 + 0x700\n 14551: u64 [a4 + 0xb8] = a1\n 14555: u64 [a4 + 0xb0] = a0\n 14559: a1 = s1 + 0x10c0\n 14563: u64 [a4 + 0xa8] = a3\n 14567: a0 = 0\n 14569: ra = 572, jump @24\n      : @574 [@dyn 286] (gas: 10)\n 14575: a1 = s1 + 0x7ff\n 14579: a1 = a1 + 0x119\n 14583: u64 [a1 + 1952] = 0\n 14587: u64 [a1 + 1944] = 0\n 14591: u64 [a1 + 1928] = 0x3\n 14596: a2 = a1\n 14598: a0 = 0x20\n 14601: a1 = s1 + 0x10a0\n 14605: u64 [a2 + 1936] = 0\n 14609: ra = 574, jump @24\n      : @575 [@dyn 287] (gas: 3)\n 14615: a1 = u64 [s1 + 0x170]\n 14619: a0 = i32 [a1]\n 14621: jump @577 if a0 >u 63\n      : @576 (gas: 2)\n 14625: u32 [a1 + 0] = 0x40\n 14628: fallthrough\n      : @577 (gas: 5)\n 14629: a1 = 0xffffffff00000000\n 14639: u64 [s1 + 0x128] = a1\n 14643: a0 = 0xffffffff\n 14653: u64 [s1 + 0xb0] = a0\n 14657: t0 = 576, jump @1515\n      : @578 [@dyn 288] (gas: 5)\n 14663: ra = 0x242\n 14667: ecalli 9 // 'hash_keccak_256'\n 14669: a3 = u64 [s1 + 0x168]\n 14673: t0 = 0x244\n 14677: jump @1535\n      : @579 [@dyn 289] (gas: 2)\n 14680: a3 = u64 [s1 + 0x168]\n 14684: t0 = 580, jump @1535\n      : @580 [@dyn 290] (gas: 7)\n 14690: u64 [a5 + 0xc0] = a3\n 14694: u64 [a5 + 0xb8] = a2\n 14698: u64 [a5 + 0xb0] = a1\n 14702: u64 [a5 + 0xa8] = a0\n 14706: a0 = s1 + 0x1080\n 14710: a1 = s1 + 0x2dc0\n 14714: ra = 582, jump @26\n      : @581 [@dyn 291] (gas: 34)\n 14720: u64 [s1 + 264] = 0\n 14724: u64 [s1 + 240] = 0\n 14728: u64 [s1 + 248] = 0\n 14732: u64 [s1 + 256] = 0\n 14736: u64 [s1 + 272] = 0\n 14740: u64 [s1 + 232] = 0\n 14744: u64 [s1 + 224] = 0\n 14748: u64 [s1 + 216] = 0\n 14752: a5 = 0\n 14754: a4 = 0\n 14756: a3 = 0\n 14758: a1 = u64 [s1 + 0x180]\n 14762: a1 = a1 + 0x1\n 14765: a0 = a1 <u 0x1\n 14768: a2 = u64 [s1 + 0x188]\n 14772: a0 = a0 + a2\n 14775: u64 [s1 + 0xd0] = a1\n 14779: u64 [s1 + 0xc8] = a0\n 14783: a0 = a0 | a1\n 14786: a0 = a0 <u 0x1\n 14789: a2 = s1 + 0x100\n 14793: a1 = u64 [a2 + 0x98]\n 14797: a0 = a0 + a1\n 14800: u64 [s1 + 0xc0] = a0\n 14804: a0 = a0 <u a1\n 14807: a1 = u64 [a2 + 0x90]\n 14811: a0 = a0 + a1\n 14814: u64 [s1 + 0xb8] = a0\n 14818: a0 = s1 + 0x7ff\n 14822: a0 = a0 + 0x119\n 14826: a0 = u32 [a0 + 0x768]\n 14830: u64 [a2 + 0x30] = a0\n 14833: t0 = 0x1\n 14836: fallthrough\n      : @582 (gas: 10)\n 14837: a0 = a4 >u 0\n 14839: a1 = a3 >u 0\n 14841: a1 = a0 if a3 == 0\n 14844: a0 = u64 [s1 + 0x130]\n 14848: a0 = a0 <u t0\n 14851: a2 = a5 >u 0\n 14853: a2 = a0 if a5 == 0\n 14856: a0 = a4 | a3\n 14859: a2 = a1 if a0 != 0\n 14862: jump @645 if a2 != 0\n      : @583 (gas: 10)\n 14866: u64 [s1 + 0x180] = t0\n 14870: u64 [s1 + 0x188] = a5\n 14874: u64 [s1 + 0x190] = a4\n 14878: u64 [s1 + 0x198] = a3\n 14882: a0 = u64 [s1 + 0x138]\n 14886: ra = 0x248\n 14890: ecalli 5 // 'caller'\n 14892: a2 = u64 [s1 + 0x140]\n 14896: t0 = 0x24a\n 14900: jump @1507\n      : @584 [@dyn 292] (gas: 2)\n 14903: a2 = u64 [s1 + 0x140]\n 14907: t0 = 586, jump @1507\n      : @585 [@dyn 293] (gas: 8)\n 14913: u64 [a2 + 1888] = 0\n 14917: a4 = a2 + 0x700\n 14921: u64 [a4 + 0x58] = a1\n 14924: u64 [a4 + 0x50] = a0\n 14927: a1 = s1 + 0x1060\n 14931: u64 [a4 + 0x48] = a3\n 14934: a0 = 0\n 14936: ra = 588, jump @24\n      : @586 [@dyn 294] (gas: 10)\n 14942: a0 = s1 + 0x7ff\n 14946: a0 = a0 + 0x119\n 14950: u64 [a0 + 1856] = 0\n 14954: u64 [a0 + 1848] = 0\n 14958: u64 [a0 + 1840] = 0\n 14962: a3 = a0\n 14964: a0 = 0x20\n 14967: a1 = s1 + 0x1040\n 14971: u64 [a3 + 1832] = 0x2\n 14976: ra = 590, jump @24\n      : @587 [@dyn 295] (gas: 3)\n 14982: a1 = u64 [s1 + 0x170]\n 14986: a0 = i32 [a1]\n 14988: jump @589 if a0 >u 63\n      : @588 (gas: 3)\n 14992: u32 [a1 + 0] = 0x40\n 14995: t0 = 0x250\n 14999: jump @1515\n      : @589 (gas: 1)\n 15002: t0 = 592, jump @1515\n      : @590 [@dyn 296] (gas: 4)\n 15008: ra = 0x252\n 15012: ecalli 9 // 'hash_keccak_256'\n 15014: t0 = 0x254\n 15018: jump @1505\n      : @591 [@dyn 297] (gas: 1)\n 15021: t0 = 596, jump @1505\n      : @592 [@dyn 298] (gas: 11)\n 15027: a3 = a2 + 0x700\n 15031: u64 [a3 + 0x20] = a0\n 15034: a0 = u64 [s1 + 0x190]\n 15038: u64 [a3 + 0x18] = a0\n 15041: a0 = u64 [s1 + 0x188]\n 15045: u64 [a3 + 0x10] = a0\n 15048: a1 = s1 + 0x1020\n 15052: a0 = u64 [s1 + 0x180]\n 15056: u64 [a3 + 0x8] = a0\n 15059: a0 = 0\n 15061: ra = 598, jump @24\n      : @593 [@dyn 299] (gas: 1)\n 15067: t0 = 600, jump @1577\n      : @594 [@dyn 300] (gas: 11)\n 15073: u64 [a1 + 0x700] = a0\n 15077: a0 = u64 [s1 + 0x150]\n 15081: u64 [a1 + 0x6f8] = a0\n 15085: a0 = u64 [s1 + 0x158]\n 15089: u64 [a1 + 0x6f0] = a0\n 15093: a3 = a1\n 15095: a0 = 0x20\n 15098: a1 = s1 + 0x1000\n 15102: a2 = u64 [s1 + 0x160]\n 15106: u64 [a3 + 0x6e8] = a2\n 15110: ra = 602, jump @24\n      : @595 [@dyn 301] (gas: 3)\n 15116: a1 = u64 [s1 + 0x170]\n 15120: a0 = i32 [a1]\n 15122: jump @597 if a0 >u 63\n      : @596 (gas: 3)\n 15126: u32 [a1 + 0] = 0x40\n 15129: t0 = 0x25c\n 15133: jump @1560\n      : @597 (gas: 1)\n 15136: t0 = 604, jump @1560\n      : @598 [@dyn 302] (gas: 5)\n 15142: ra = 0x25e\n 15146: ecalli 9 // 'hash_keccak_256'\n 15148: a3 = u64 [s1 + 0x160]\n 15152: t0 = 0x260\n 15156: jump @1556\n      : @599 [@dyn 303] (gas: 2)\n 15159: a3 = u64 [s1 + 0x160]\n 15163: t0 = 608, jump @1556\n      : @600 [@dyn 304] (gas: 23)\n 15169: a4 = u64 [s1 + 0x168]\n 15173: u64 [a4 + 0x18] = a3\n 15176: u64 [a4 + 0x10] = a2\n 15179: u64 [a4 + 0x8] = a1\n 15182: u64 [a4] = a0\n 15184: a4 = a0 + 0x2\n 15187: a0 = a4 <u a0\n 15190: a5 = a1 + a0\n 15193: a1 = a5 <u a1\n 15196: a1 = a0 if a0 == 0\n 15199: a1 = a1 + a2\n 15202: a0 = a1 <u a2\n 15205: a0 = a0 + a3\n 15208: a2 = s1 + 0x2918\n 15212: a3 = a2 + 0x400\n 15216: u64 [a3 + 0xc8] = a4\n 15220: u64 [a3 + 0xd0] = a5\n 15224: u64 [a3 + 0xd8] = a1\n 15228: u64 [a3 + 0xe0] = a0\n 15232: a0 = s1 + 0x7ff\n 15236: a0 = a0 + 0x7e1\n 15240: a1 = s1 + 0x2de0\n 15244: ra = 610, jump @26\n      : @601 [@dyn 305] (gas: 5)\n 15250: a3 = s1 + 0x7ff\n 15254: a3 = a3 + 0x119\n 15258: a0 = u64 [a3 + 0x6d0]\n 15262: a0 = a0 & 0xff\n 15266: jump @604 if a0 == 0\n      : @602 (gas: 15)\n 15269: a4 = s1 + 0x100\n 15273: a0 = u64 [a4 + 0x80]\n 15277: a5 = a3 + 0x400\n 15281: u64 [a5 + 0x68] = a0\n 15284: a0 = u64 [a4 + 0x88]\n 15288: u64 [a5 + 0x70] = a0\n 15291: a0 = u64 [a4 + 0x90]\n 15295: u64 [a5 + 0x78] = a0\n 15298: a0 = s1 + 0x7ff\n 15302: a0 = a0 + 0x5a1\n 15306: a1 = s1 + 0x7ff\n 15310: a1 = a1 + 0x581\n 15314: a2 = u64 [a4 + 0x98]\n 15318: u64 [a5 + 0x80] = a2\n 15322: ra = 612, jump @1384\n      : @603 [@dyn 306] (gas: 8)\n 15328: a0 = s1 + 0x7ff\n 15332: a0 = a0 + 0x119\n 15336: a1 = a0 + 0x400\n 15340: a3 = u64 [a1 + 0xa0]\n 15344: a4 = u64 [a1 + 0x98]\n 15348: a5 = u64 [a1 + 0x90]\n 15352: t0 = u64 [a0 + 0x488]\n 15356: jump @582\n      : @604 (gas: 4)\n 15359: a0 = s1 + 0x7ff\n 15363: a0 = a0 + 0x7c1\n 15367: a1 = u64 [s1 + 0x168]\n 15371: ra = 614, jump @26\n      : @605 [@dyn 307] (gas: 13)\n 15377: a3 = s1 + 0x7ff\n 15381: a3 = a3 + 0x119\n 15385: a4 = a3 + 0x600\n 15389: a0 = u64 [a4 + 0xb0]\n 15393: a1 = u64 [a4 + 0xb8]\n 15397: a2 = u64 [a4 + 0xa8]\n 15401: a0 = a0 & 0xffffffffffffffff\n 15404: a1 = a1 & 0xffffffffffffffff\n 15407: a4 = u64 [s1 + 0x128]\n 15411: a2 = a2 & a4\n 15414: a1 = a1 | a2\n 15417: a0 = a0 | a1\n 15420: jump @602 if a0 == 0\n      : @606 (gas: 6)\n 15424: a0 = u64 [s1 + 0x138]\n 15428: ra = 0x268\n 15432: ecalli 5 // 'caller'\n 15434: a2 = u64 [s1 + 0x140]\n 15438: t0 = 0x26a\n 15442: jump @1507\n      : @607 [@dyn 308] (gas: 2)\n 15445: a2 = u64 [s1 + 0x140]\n 15449: t0 = 618, jump @1507\n      : @608 [@dyn 309] (gas: 9)\n 15455: u64 [a2 + 1696] = 0\n 15459: a4 = a2 + 0x600\n 15463: u64 [a4 + 0x98] = a1\n 15467: u64 [a4 + 0x90] = a0\n 15471: a1 = s1 + 0x7ff\n 15475: a1 = a1 + 0x7a1\n 15479: u64 [a4 + 0x88] = a3\n 15483: a0 = 0\n 15485: ra = 620, jump @24\n      : @609 [@dyn 310] (gas: 11)\n 15491: a0 = s1 + 0x7ff\n 15495: a0 = a0 + 0x119\n 15499: u64 [a0 + 1664] = 0\n 15503: u64 [a0 + 1656] = 0\n 15507: u64 [a0 + 1648] = 0\n 15511: a3 = a0\n 15513: a0 = 0x20\n 15516: a1 = s1 + 0x7ff\n 15520: a1 = a1 + 0x781\n 15524: u64 [a3 + 1640] = 0x4\n 15529: ra = 622, jump @24\n      : @610 [@dyn 311] (gas: 3)\n 15535: a1 = u64 [s1 + 0x170]\n 15539: a0 = i32 [a1]\n 15541: jump @612 if a0 >u 63\n      : @611 (gas: 3)\n 15545: u32 [a1 + 0] = 0x40\n 15548: t0 = 0x270\n 15552: jump @1515\n      : @612 (gas: 1)\n 15555: t0 = 624, jump @1515\n      : @613 [@dyn 312] (gas: 4)\n 15561: ra = 0x272\n 15565: ecalli 9 // 'hash_keccak_256'\n 15567: t0 = 0x274\n 15571: jump @1518\n      : @614 [@dyn 313] (gas: 1)\n 15574: t0 = 628, jump @1518\n      : @615 [@dyn 314] (gas: 9)\n 15580: u64 [a2 + 1632] = 0\n 15584: u64 [a2 + 1624] = 0\n 15588: u64 [a2 + 1616] = 0\n 15592: a1 = s1 + 0x7ff\n 15596: a1 = a1 + 0x761\n 15600: a0 = u64 [s1 + 0x120]\n 15604: u64 [a2 + 0x648] = a0\n 15608: a0 = 0\n 15610: ra = 630, jump @24\n      : @616 [@dyn 315] (gas: 16)\n 15616: a0 = u64 [s1 + 0x150]\n 15620: a1 = s1 + 0x7ff\n 15624: a1 = a1 + 0x119\n 15628: a2 = a1 + 0x600\n 15632: u64 [a2 + 0x40] = a0\n 15635: a0 = u64 [s1 + 0x158]\n 15639: u64 [a2 + 0x38] = a0\n 15642: a0 = u64 [s1 + 0x160]\n 15646: u64 [a2 + 0x30] = a0\n 15649: a3 = a1\n 15651: a0 = 0x20\n 15654: a1 = s1 + 0x7ff\n 15658: a1 = a1 + 0x741\n 15662: a2 = u64 [s1 + 0x168]\n 15666: u64 [a3 + 0x628] = a2\n 15670: ra = 632, jump @24\n      : @617 [@dyn 316] (gas: 3)\n 15676: a1 = u64 [s1 + 0x170]\n 15680: a0 = i32 [a1]\n 15682: jump @619 if a0 >u 63\n      : @618 (gas: 3)\n 15686: u32 [a1 + 0] = 0x40\n 15689: t0 = 0x27a\n 15693: jump @1515\n      : @619 (gas: 1)\n 15696: t0 = 634, jump @1515\n      : @620 [@dyn 317] (gas: 4)\n 15702: ra = 0x27c\n 15706: ecalli 9 // 'hash_keccak_256'\n 15708: t0 = 0x27e\n 15712: jump @1505\n      : @621 [@dyn 318] (gas: 1)\n 15715: t0 = 638, jump @1505\n      : @622 [@dyn 319] (gas: 12)\n 15721: a3 = a2 + 0x600\n 15725: u64 [a3 + 0x20] = a0\n 15728: a0 = u64 [s1 + 0x190]\n 15732: u64 [a3 + 0x18] = a0\n 15735: a0 = u64 [s1 + 0x188]\n 15739: u64 [a3 + 0x10] = a0\n 15742: a1 = s1 + 0x7ff\n 15746: a1 = a1 + 0x721\n 15750: a0 = u64 [s1 + 0x180]\n 15754: u64 [a3 + 0x8] = a0\n 15757: a0 = 0\n 15759: ra = 640, jump @24\n      : @623 [@dyn 320] (gas: 1)\n 15765: t0 = 642, jump @1577\n      : @624 [@dyn 321] (gas: 12)\n 15771: u64 [a1 + 0x600] = a0\n 15775: a0 = u64 [s1 + 0x150]\n 15779: u64 [a1 + 0x5f8] = a0\n 15783: a0 = u64 [s1 + 0x158]\n 15787: u64 [a1 + 0x5f0] = a0\n 15791: a3 = a1\n 15793: a0 = 0x20\n 15796: a1 = s1 + 0x7ff\n 15800: a1 = a1 + 0x701\n 15804: a2 = u64 [s1 + 0x160]\n 15808: u64 [a3 + 0x5e8] = a2\n 15812: ra = 644, jump @24\n      : @625 [@dyn 322] (gas: 3)\n 15818: a1 = u64 [s1 + 0x170]\n 15822: a0 = i32 [a1]\n 15824: jump @627 if a0 >u 63\n      : @626 (gas: 3)\n 15828: u32 [a1 + 0] = 0x40\n 15831: t0 = 0x286\n 15835: jump @1560\n      : @627 (gas: 1)\n 15838: t0 = 646, jump @1560\n      : @628 [@dyn 323] (gas: 4)\n 15844: ra = 0x288\n 15848: ecalli 9 // 'hash_keccak_256'\n 15850: t0 = 0x28a\n 15854: jump @1523\n      : @629 [@dyn 324] (gas: 1)\n 15857: t0 = 650, jump @1523\n      : @630 [@dyn 325] (gas: 2)\n 15863: a0 = a0 + 0x6e1\n 15867: ra = 652, jump @26\n      : @631 [@dyn 326] (gas: 4)\n 15873: a3 = s1 + 0x7ff\n 15877: a3 = a3 + 0x119\n 15881: a0 = u8 [a3 + 0x5c8]\n 15885: jump @602 if a0 != 0\n      : @632 (gas: 4)\n 15889: a0 = s1 + 0x7ff\n 15893: a0 = a0 + 0x6c1\n 15897: a1 = u64 [s1 + 0x118]\n 15901: ra = 654, jump @26\n      : @633 [@dyn 327] (gas: 16)\n 15907: a3 = s1 + 0x7ff\n 15911: a3 = a3 + 0x119\n 15915: a0 = u64 [a3 + 0x5c0]\n 15919: t1 = u64 [a3 + 0x5b8]\n 15923: a2 = u64 [a3 + 0x5b0]\n 15927: t0 = u64 [a3 + 0x5a8]\n 15931: a1 = u64 [0x200a8]\n 15936: a5 = a0 >u 0\n 15938: a4 = t1 >u 0\n 15940: a4 = a5 if a0 != 0\n 15943: a1 = a1 <u t0\n 15946: a5 = a2 >u 0\n 15948: a5 = a1 if a2 == 0\n 15951: a1 = t1 | a0\n 15954: a5 = a4 if a1 != 0\n 15957: jump @636 if a5 != 0\n      : @634 (gas: 14)\n 15960: a0 = u64 [s1 + 0x108]\n 15964: a4 = a3 + 0x400\n 15968: u64 [a4 + 0xa8] = a0\n 15972: a0 = u64 [s1 + 0xf0]\n 15976: u64 [a4 + 0xb0] = a0\n 15980: a0 = u64 [s1 + 0xf8]\n 15984: u64 [a4 + 0xb8] = a0\n 15988: a0 = s1 + 0x7ff\n 15992: a0 = a0 + 0x5e1\n 15996: a1 = s1 + 0x7ff\n 16000: a1 = a1 + 0x5c1\n 16004: a2 = u64 [s1 + 0x100]\n 16008: u64 [a4 + 0xc0] = a2\n 16012: ra = 656, jump @1384\n      : @635 [@dyn 328] (gas: 12)\n 16018: a3 = s1 + 0x7ff\n 16022: a3 = a3 + 0x119\n 16026: a1 = a3 + 0x400\n 16030: a0 = u64 [a1 + 0xe0]\n 16034: u64 [s1 + 0x100] = a0\n 16038: a0 = u64 [a1 + 0xd8]\n 16042: u64 [s1 + 0xf8] = a0\n 16046: a0 = u64 [a1 + 0xd0]\n 16050: u64 [s1 + 0xf0] = a0\n 16054: a0 = u64 [a1 + 0xc8]\n 16058: u64 [s1 + 0x108] = a0\n 16062: jump @602\n      : @636 (gas: 23)\n 16065: a1 = sp + 0xffffffffffffffe0\n 16068: a1 = a1 & 0xffffffffffffffe0\n 16071: sp = a1\n 16073: a4 = u64 [0x200b0]\n 16078: a4 = a4 + t0\n 16081: a5 = a4 <u t0\n 16084: a3 = a2 + a5\n 16087: a3 = a3 + 0xffffffffffffffff\n 16090: t0 = a3 ^ a2\n 16093: a2 = a3 <u a2\n 16096: a2 = a5 if t0 == 0\n 16099: a5 = t1 + 0xffffffffffffffff\n 16102: a2 = a2 + a5\n 16105: t0 = a2 <u a5\n 16108: a5 = t1 <u 0x1\n 16111: a0 = a0 - a5\n 16114: a0 = a0 + t0\n 16117: u64 [a1 + 0x8] = a3\n 16120: u64 [a1] = a4\n 16122: u64 [a1 + 0x10] = a2\n 16125: u64 [a1 + 0x18] = a0\n 16128: a0 = u64 [s1 + 0x118]\n 16132: ra = 658, jump @28\n      : @637 [@dyn 329] (gas: 15)\n 16138: a0 = sp + 0xffffffffffffffe0\n 16141: a1 = a0 & 0xffffffffffffffe0\n 16144: sp = a1\n 16146: a0 = u64 [s1 + 0xb8]\n 16150: u64 [a1 + 0x18] = a0\n 16153: a0 = u64 [s1 + 0xc0]\n 16157: u64 [a1 + 0x10] = a0\n 16160: a0 = u64 [s1 + 0xc8]\n 16164: u64 [a1 + 0x8] = a0\n 16167: a0 = u64 [s1 + 0xd0]\n 16171: u64 [a1] = a0\n 16173: a0 = s1 + 0x7ff\n 16177: a0 = a0 + 0x6a1\n 16181: u64 [s1 + 0x160] = a1\n 16185: ra = 660, jump @26\n      : @638 [@dyn 330] (gas: 30)\n 16191: a0 = s1 + 0x7ff\n 16195: a0 = a0 + 0x119\n 16199: t0 = u64 [a0 + 0x5a0]\n 16203: t1 = u64 [a0 + 0x598]\n 16207: a2 = u64 [a0 + 0x590]\n 16211: a4 = u64 [a0 + 0x588]\n 16215: a1 = sp + 0xffffffffffffffe0\n 16218: a1 = a1 & 0xffffffffffffffe0\n 16221: sp = a1\n 16223: a5 = u64 [0x200a0]\n 16228: t2 = a4 + a5\n 16231: a0 = t2 <u a4\n 16234: a3 = a2 + a0\n 16237: a5 = a3 <u a2\n 16240: a5 = a0 if a0 == 0\n 16243: a5 = a5 + t1\n 16246: a0 = a5 <u t1\n 16249: u64 [a1 + 0x10] = a5\n 16252: a5 = u64 [0x200b8]\n 16257: a0 = a0 + t0\n 16260: u64 [a1 + 0x8] = a3\n 16263: u64 [a1] = t2\n 16265: a3 = a5 <u a4\n 16268: a2 = a2 + 0x1\n 16271: a3 = 0 if a2 != 0\n 16273: a2 = t1 & t0\n 16276: a2 = a2 + 0x1\n 16279: a3 = 0 if a2 != 0\n 16281: u64 [a1 + 0x18] = a0\n 16284: jump @640 if a3 == 0\n      : @639 (gas: 1)\n 16287: jump @849\n      : @640 (gas: 2)\n 16290: a0 = u64 [s1 + 0x160]\n 16294: ra = 662, jump @28\n      : @641 [@dyn 331] (gas: 4)\n 16300: a0 = s1 + 0x7ff\n 16304: a0 = a0 + 0x681\n 16308: a1 = u64 [s1 + 0x168]\n 16312: ra = 664, jump @26\n      : @642 [@dyn 332] (gas: 18)\n 16318: a3 = s1 + 0x7ff\n 16322: a3 = a3 + 0x119\n 16326: a4 = a3 + 0x500\n 16330: a0 = u64 [a4 + 0x68]\n 16333: a1 = u64 [a4 + 0x70]\n 16336: a2 = u64 [a4 + 0x80]\n 16340: a3 = u64 [a4 + 0x78]\n 16343: a0 = a0 & 0xffffffffffffff00\n 16347: a0 = a0 | 0x1\n 16350: a4 = s1 + 0x2918\n 16354: u64 [a4 + 0x500] = a2\n 16358: a2 = a4 + 0x400\n 16362: u64 [a2 + 0xf8] = a3\n 16366: u64 [a2 + 0xf0] = a1\n 16370: u64 [a2 + 0xe8] = a0\n 16374: a1 = s1 + 0x2e00\n 16378: a0 = u64 [s1 + 0x168]\n 16382: ra = 666, jump @28\n      : @643 [@dyn 333] (gas: 16)\n 16388: a0 = u64 [s1 + 0xd8]\n 16392: a3 = s1 + 0x7ff\n 16396: a3 = a3 + 0x119\n 16400: a4 = a3 + 0x500\n 16404: u64 [a4 + 0x40] = a0\n 16407: a0 = u64 [s1 + 0xe0]\n 16411: u64 [a4 + 0x38] = a0\n 16414: a0 = u64 [s1 + 0xe8]\n 16418: u64 [a4 + 0x30] = a0\n 16421: a0 = s1 + 0x7ff\n 16425: a0 = a0 + 0x661\n 16429: a1 = s1 + 0x7ff\n 16433: a1 = a1 + 0x641\n 16437: a2 = u64 [s1 + 0x110]\n 16441: u64 [a4 + 0x28] = a2\n 16444: ra = 668, jump @1384\n      : @644 [@dyn 334] (gas: 12)\n 16450: a3 = s1 + 0x7ff\n 16454: a3 = a3 + 0x119\n 16458: a1 = a3 + 0x500\n 16462: a0 = u64 [a1 + 0x60]\n 16465: u64 [s1 + 0xd8] = a0\n 16469: a0 = u64 [a1 + 0x58]\n 16472: u64 [s1 + 0xe0] = a0\n 16476: a0 = u64 [a1 + 0x50]\n 16479: u64 [s1 + 0xe8] = a0\n 16483: a0 = u64 [a1 + 0x48]\n 16486: u64 [s1 + 0x110] = a0\n 16490: jump @602\n      : @645 (gas: 4)\n 16493: a0 = s1 + 0x7ff\n 16497: a0 = a0 + 0x561\n 16501: a1 = 0x40\n 16504: ra = 670, jump @22\n      : @646 [@dyn 335] (gas: 15)\n 16510: a2 = s1 + 0x7ff\n 16514: a2 = a2 + 0x119\n 16518: t0 = u64 [a2 + 0x460]\n 16522: a0 = a2 + 0x400\n 16526: a5 = u64 [a0 + 0x58]\n 16529: a4 = u64 [a0 + 0x50]\n 16532: a3 = u64 [a0 + 0x48]\n 16535: a0 = a4 | t0\n 16538: a1 = a3 | a5\n 16541: a1 = a1 | a0\n 16544: a1 = a1 >> 0x20\n 16547: a0 = a0 | a5\n 16550: a0 = a0 << 0x20\n 16553: a0 = a0 | a1\n 16556: jump @648 if a0 == 0\n      : @647 (gas: 1)\n 16559: jump @848\n      : @648 (gas: 15)\n 16562: a0 = u64 [s1 + 0x110]\n 16566: a1 = u64 [s1 + 0xb0]\n 16570: a0 = a0 & a1\n 16573: u64 [a2 + 1088] = 0\n 16577: u64 [a2 + 1080] = 0\n 16581: u64 [a2 + 1072] = 0\n 16585: a1 = s1 + 0x7ff\n 16589: a1 = a1 + 0x541\n 16593: u64 [a2 + 0x428] = a0\n 16597: a0 = a3\n 16599: u64 [s1 + 0x198] = a3\n 16603: u64 [s1 + 0x190] = a4\n 16607: u64 [s1 + 0x180] = t0\n 16611: u64 [s1 + 0x188] = a5\n 16615: ra = 672, jump @24\n      : @649 [@dyn 336] (gas: 11)\n 16621: a4 = s1 + 0x100\n 16625: a2 = u64 [a4 + 0x98]\n 16629: a0 = u64 [a4 + 0x88]\n 16633: a1 = u64 [a4 + 0x80]\n 16637: a0 = a0 | a1\n 16640: a1 = 0xffffffe0\n 16650: a1 = a2 <u a1\n 16653: a3 = u64 [a4 + 0x90]\n 16657: a1 = 0 if a3 != 0\n 16659: a1 = 0 if a0 != 0\n 16661: jump @651 if a1 != 0\n      : @650 (gas: 1)\n 16664: jump @848\n      : @651 (gas: 13)\n 16667: a0 = u64 [s1 + 0x108]\n 16671: a1 = u64 [s1 + 0xb0]\n 16675: a1 = a1 & a0\n 16678: i32 a0 = a2 + 0x20\n 16681: a3 = s1 + 0x7ff\n 16685: a3 = a3 + 0x119\n 16689: u64 [a3 + 1056] = 0\n 16693: u64 [a3 + 1048] = 0\n 16697: u64 [a3 + 0x408] = a1\n 16701: a1 = s1 + 0x7ff\n 16705: a1 = a1 + 0x521\n 16709: u64 [a3 + 1040] = 0\n 16713: ra = 674, jump @24\n      : @652 [@dyn 337] (gas: 6)\n 16719: a0 = u64 [s1 + 0x138]\n 16723: ra = 0x2a4\n 16727: ecalli 5 // 'caller'\n 16729: a2 = u64 [s1 + 0x140]\n 16733: t0 = 0x2a6\n 16737: jump @1509\n      : @653 [@dyn 338] (gas: 2)\n 16740: a2 = u64 [s1 + 0x140]\n 16744: t0 = 678, jump @1509\n      : @654 [@dyn 339] (gas: 36)\n 16750: t0 = a1 | a0\n 16753: a3 = a3 >> 0x20\n 16756: a2 = reverse a2\n 16758: a1 = a2 << 0x20\n 16761: t1 = a1 | a3\n 16764: a2 = a2 >> 0x20\n 16767: a3 = u64 [0x200c0]\n 16772: a4 = u64 [0x200c8]\n 16777: a5 = u64 [0x200d0]\n 16782: a0 = u64 [s1 + 0x120]\n 16786: a1 = s1 + 0x7ff\n 16790: a1 = a1 + 0x119\n 16794: u64 [a1 + 0x3a8] = a0\n 16798: u64 [a1 + 0x400] = a3\n 16802: a0 = a1 + 0x300\n 16806: u64 [a0 + 0xf8] = a4\n 16810: u64 [a0 + 0xf0] = a5\n 16814: a3 = u64 [0x200d8]\n 16819: u64 [a1 + 960] = 0\n 16823: u64 [a1 + 952] = 0\n 16827: u64 [a1 + 944] = 0\n 16831: u64 [a0 + 0xe8] = a3\n 16835: u64 [a0 + 0xd8] = a2\n 16839: u64 [a1 + 0x3d0] = t1\n 16843: u64 [a1 + 0x3c8] = t0\n 16847: a0 = a1\n 16849: a1 = 0x40\n 16852: a2 = s1 + 0x7ff\n 16856: a2 = a2 + 0x501\n 16860: a3 = s1 + 0x7ff\n 16864: a3 = a3 + 0x4e1\n 16868: a4 = s1 + 0x7ff\n 16872: a4 = a4 + 0x4c1\n 16876: u64 [a0 + 992] = 0\n 16880: a0 = u64 [s1 + 0x198]\n 16884: ra = 680, jump @31\n      : @655 [@dyn 340] (gas: 7)\n 16890: a0 = 0\n 16892: a1 = u64 [s1 + 0x178]\n 16896: a2 = 0\n 16898: ra = 0x428\n 16902: ecalli 14 // 'seal_return'\n 16904: t0 = 0x42a\n 16908: jump @1562\n      : @656 (gas: 24)\n 16911: u64 [s1 + 0xb8] = a3\n 16915: a0 = a0 <u a1\n 16918: a1 = u64 [s1 + 0x100]\n 16922: a2 = a1 + a0\n 16925: u64 [s1 + 0x128] = a2\n 16929: a1 = a2 <u a1\n 16932: a1 = a0 if a0 == 0\n 16935: a1 = a1 + a4\n 16938: u64 [s1 + 0x120] = a1\n 16942: a0 = a1 <u a4\n 16945: u64 [s1 + 0x188] = a0\n 16949: a0 = s1 + 0x1118\n 16953: a1 = u64 [s1 + 0x178]\n 16957: a3 = a0 + 0x600\n 16961: u64 [a3 + 0x88] = a1\n 16965: a1 = u64 [s1 + 0x170]\n 16969: u64 [a3 + 0x90] = a1\n 16973: a1 = u64 [s1 + 0x168]\n 16977: u64 [a3 + 0x98] = a1\n 16981: a1 = s1 + 0x17a0\n 16985: a2 = u64 [s1 + 0x180]\n 16989: u64 [a3 + 0xa0] = a2\n 16993: a0 = 0\n 16995: ra = 682, jump @24\n      : @657 [@dyn 341] (gas: 7)\n 17001: a0 = sp + 0xffffffffffffffe0\n 17004: a0 = a0 & 0xffffffffffffffe0\n 17007: u64 [s1 + 0x130] = a0\n 17011: sp = a0\n 17013: a2 = u64 [s1 + 0x198]\n 17017: a0 = i32 [a2]\n 17019: jump @659 if a0 >u 31\n      : @658 (gas: 2)\n 17023: u32 [a2 + 0] = 0x20\n 17026: fallthrough\n      : @659 (gas: 35)\n 17027: a0 = u64 [s1 + 0x110]\n 17031: a1 = u64 [s1 + 0x188]\n 17035: a0 = a0 + a1\n 17038: u64 [s1 + 0x118] = a0\n 17042: a0 = sp + 0xffffffffffffffe0\n 17045: a0 = a0 & 0xffffffffffffffe0\n 17048: u64 [s1 + 0x188] = a0\n 17052: sp = a0\n 17054: i32 a2 = a0 + 0\n 17056: a1 = 0x20\n 17059: a0 = u64 [s1 + 0x190]\n 17063: ecalli 9 // 'hash_keccak_256'\n 17065: u64 [s1 + 408] = 0\n 17069: t2 = 0\n 17071: t1 = 0\n 17073: u64 [s1 + 400] = 0\n 17077: a3 = u64 [s1 + 0x188]\n 17081: a0 = u64 [a3 + 0x18]\n 17084: a1 = u64 [a3 + 0x10]\n 17087: a2 = u64 [a3 + 0x8]\n 17090: a3 = u64 [a3]\n 17092: a0 = reverse a0\n 17094: a4 = reverse a1\n 17096: a5 = reverse a2\n 17098: a2 = reverse a3\n 17100: a1 = u64 [s1 + 0x130]\n 17104: a3 = a2\n 17106: u64 [a1 + 0x18] = a2\n 17109: u64 [s1 + 0x160] = a5\n 17113: u64 [a1 + 0x10] = a5\n 17116: ra = a4\n 17118: u64 [a1 + 0x8] = a4\n 17121: a2 = a0\n 17123: u64 [a1] = a0\n 17125: fallthrough\n      : @660 (gas: 22)\n 17126: a4 = s1 + 0x100\n 17130: u64 [a4 + 0x68] = a3\n 17133: u64 [s1 + 0x170] = ra\n 17137: u64 [a4 + 0x78] = a2\n 17140: a0 = u64 [a4 + 0x40]\n 17143: a2 = u64 [a4 + 0x98]\n 17147: a0 = a2 <u a0\n 17150: a2 = u64 [a4 + 0x50]\n 17153: a3 = t2 ^ a2\n 17156: a2 = t2 <u a2\n 17159: a2 = a0 if a3 == 0\n 17162: a0 = u64 [a4 + 0x48]\n 17165: t0 = t1 <u a0\n 17168: a3 = u64 [a4 + 0x58]\n 17171: a5 = u64 [a4 + 0x90]\n 17175: a4 = a5 ^ a3\n 17178: a3 = a5 <u a3\n 17181: a3 = t0 if a4 == 0\n 17184: a0 = t1 ^ a0\n 17187: a0 = a0 | a4\n 17190: a3 = a2 if a0 == 0\n 17193: jump @750 if a3 == 0\n      : @661 (gas: 4)\n 17197: a0 = s1 + 0x1780\n 17201: u64 [s1 + 0x188] = t1\n 17205: u64 [s1 + 0x180] = t2\n 17209: ra = 684, jump @26\n      : @662 [@dyn 342] (gas: 30)\n 17215: ra = u64 [s1 + 0x198]\n 17219: t2 = u64 [s1 + 0x180]\n 17223: t1 = u64 [s1 + 0x188]\n 17227: a1 = u64 [s1 + 0x138]\n 17231: a0 = a1 + ra\n 17234: a1 = a0 <u a1\n 17237: a4 = u64 [s1 + 0x128]\n 17241: a2 = a4 + t2\n 17244: a2 = a2 + a1\n 17247: a3 = a2 ^ a4\n 17250: a4 = a2 <u a4\n 17253: a4 = a1 if a3 == 0\n 17256: a3 = u64 [s1 + 0x120]\n 17260: a1 = a3 + t1\n 17263: t0 = a1 <u a3\n 17266: a5 = u64 [s1 + 0x118]\n 17270: a3 = u64 [s1 + 0x190]\n 17274: a5 = a5 + a3\n 17277: a3 = a5 + t0\n 17280: a4 = a4 + a1\n 17283: a1 = a4 <u a1\n 17286: a1 = a1 + a3\n 17289: a1 = a1 | a2\n 17292: a2 = a0 | a4\n 17295: a2 = a2 | a1\n 17298: a1 = a1 | a4\n 17301: a2 = a2 >> 0x20\n 17304: a1 = a1 << 0x20\n 17307: a1 = a1 | a2\n 17310: jump @664 if a1 == 0\n      : @663 (gas: 1)\n 17313: jump @848\n      : @664 (gas: 13)\n 17316: a5 = s1 + 0x1118\n 17320: a2 = u64 [a5 + 0x680]\n 17324: a1 = u64 [a5 + 0x678]\n 17328: a3 = u64 [a5 + 0x670]\n 17332: a4 = u64 [a5 + 0x668]\n 17336: u64 [a5 + 0x648] = a4\n 17340: a4 = a5 + 0x600\n 17344: u64 [a4 + 0x50] = a3\n 17347: u64 [a4 + 0x58] = a1\n 17350: a1 = s1 + 0x1760\n 17354: u64 [a4 + 0x60] = a2\n 17357: u64 [s1 + 0x198] = ra\n 17361: ra = 686, jump @24\n      : @665 [@dyn 343] (gas: 38)\n 17367: a5 = u64 [s1 + 0x178]\n 17371: a5 = a5 + 0x1\n 17374: a0 = a5 <u 0x1\n 17377: a3 = u64 [s1 + 0x170]\n 17381: a3 = a3 + a0\n 17384: a0 = a5 | a3\n 17387: a0 = a0 <u 0x1\n 17390: a1 = u64 [s1 + 0x160]\n 17394: t2 = a1 + a0\n 17397: a1 = t2 <u a1\n 17400: a0 = u64 [s1 + 0x168]\n 17404: a0 = a0 + a1\n 17407: a1 = u64 [s1 + 0x198]\n 17411: t1 = a1 + 0x20\n 17414: a2 = t1 <u a1\n 17417: a1 = u64 [s1 + 0x180]\n 17421: t0 = a1 + a2\n 17424: a4 = t0 <u a1\n 17427: a4 = a2 if a2 == 0\n 17430: a1 = u64 [s1 + 0x188]\n 17434: a4 = a4 + a1\n 17437: a2 = a4 <u a1\n 17440: a1 = u64 [s1 + 0x190]\n 17444: a1 = a1 + a2\n 17447: u64 [s1 + 0x190] = a1\n 17451: ra = a3\n 17453: a1 = u64 [s1 + 0x130]\n 17457: u64 [a1 + 0x8] = a3\n 17460: a2 = a5\n 17462: u64 [a1] = a5\n 17464: u64 [a1 + 0x10] = t2\n 17467: a3 = a0\n 17469: u64 [a1 + 0x18] = a0\n 17472: u64 [s1 + 0x160] = t2\n 17476: u64 [s1 + 0x198] = t1\n 17480: t2 = t0\n 17482: t1 = a4\n 17484: jump @660\n      : @666 (gas: 1)\n 17487: t0 = 688, jump @1563\n      : @667 [@dyn 344] (gas: 12)\n 17493: t0 = u64 [s1 + 0x168]\n 17497: a3 = a0 if t0 != 0\n 17500: u64 [s1 + 0x198] = a3\n 17504: a0 = u64 [s1 + 0x160]\n 17508: a2 = u64 [s1 + 0x130]\n 17512: a0 = a0 | a2\n 17515: a2 = u64 [s1 + 0x118]\n 17519: a0 = a2 if a4 == 0\n 17522: a5 = u64 [s1 + 0x150]\n 17526: a3 = a5\n 17528: a3 = a0 if t0 != 0\n 17531: t0 = 690, jump @1538\n      : @668 [@dyn 345] (gas: 1)\n 17537: ra = 692, jump @1589\n      : @669 [@dyn 346] (gas: 6)\n 17543: u64 [s1 + 0x130] = a0\n 17547: u64 [s1 + 0x118] = a1\n 17551: a0 = u64 [s1 + 0x158]\n 17555: a1 = u64 [s1 + 0x148]\n 17559: a2 = u64 [s1 + 0x190]\n 17563: ra = 694, jump @1589\n      : @670 [@dyn 347] (gas: 1)\n 17569: t0 = 696, jump @1548\n      : @671 [@dyn 348] (gas: 1)\n 17575: ra = 698, jump @1594\n      : @672 [@dyn 349] (gas: 1)\n 17581: t0 = 700, jump @1549\n      : @673 [@dyn 350] (gas: 14)\n 17587: a2 = u64 [s1 + 0x148]\n 17591: a2 = a1 if a3 != 0\n 17594: u64 [s1 + 0x148] = a2\n 17598: a1 = u64 [s1 + 0x110]\n 17602: a0 = a0 | a1\n 17605: a1 = u64 [s1 + 0x130]\n 17609: a0 = a1 if a4 == 0\n 17612: a1 = u64 [s1 + 0x158]\n 17616: a1 = a0 if a3 != 0\n 17619: a2 = a3\n 17621: u64 [s1 + 0x158] = a1\n 17625: a0 = u64 [s1 + 0x150]\n 17629: a1 = u64 [s1 + 0x140]\n 17633: ra = 702, jump @1589\n      : @674 [@dyn 351] (gas: 1)\n 17639: t0 = 704, jump @1528\n      : @675 [@dyn 352] (gas: 3)\n 17645: t1 = u64 [s1 + 0x148]\n 17649: t2 = u64 [s1 + 0x158]\n 17653: fallthrough\n      : @676 (gas: 68)\n 17654: u64 [s1 + 0x158] = a4\n 17658: a2 = t2 >> 0x3f\n 17661: a3 = t1 << 0x1\n 17664: t0 = a3 | a2\n 17667: a3 = t2 << 0x1\n 17670: a4 = u64 [s1 + 0x198]\n 17674: a4 = a4 >> 0x3f\n 17677: a3 = a3 | a4\n 17680: u64 [s1 + 0x148] = a3\n 17684: a2 = u64 [s1 + 0x128]\n 17688: t2 = a1\n 17690: u64 [s1 + 0x150] = t0\n 17694: a1 = a2 ^ t0\n 17697: ra = t1\n 17699: t1 = a2 <u t0\n 17702: a4 = u64 [s1 + 0x130]\n 17706: t0 = a4 <u a3\n 17709: t0 = t1 if a1 != 0\n 17712: a1 = t2 << 0x1\n 17715: a3 = a0 >> 0x3f\n 17718: a1 = a1 | a3\n 17721: u64 [s1 + 0x140] = a1\n 17725: a3 = ra >> 0x3f\n 17728: a0 = a0 << 0x1\n 17731: a3 = a3 | a0\n 17734: a0 = u64 [s1 + 0x198]\n 17738: a0 = a0 << 0x1\n 17741: a4 = u64 [s1 + 0x160]\n 17745: a1 = a4 >> 0x3f\n 17748: ra = a0 | a1\n 17751: a1 = a4 << 0x1\n 17754: a4 = u64 [s1 + 0x168]\n 17758: t1 = a4 >> 0x3f\n 17761: t1 = a1 | t1\n 17764: a1 = a4 << 0x1\n 17767: a4 = u64 [s1 + 0x188]\n 17771: t2 = a4 >> 0x3f\n 17774: a1 = a1 | t2\n 17777: a4 = a4 << 0x1\n 17780: a0 = u64 [s1 + 0x158]\n 17784: a4 = a4 | a0\n 17787: u64 [s1 + 0x188] = a4\n 17791: a1 = a1 | a5\n 17794: u64 [s1 + 0x168] = a1\n 17798: a1 = a5 | t1\n 17801: u64 [s1 + 0x160] = a1\n 17805: a0 = a5 | ra\n 17808: u64 [s1 + 0x198] = a0\n 17812: a0 = a2 - a3\n 17815: a0 = a0 <u t0\n 17818: a1 = a2 <u a3\n 17821: t0 = u64 [s1 + 0x140]\n 17825: a4 = a2 - t0\n 17828: a4 = a4 - a1\n 17831: a4 = a4 - a0\n 17834: a5 = a4 >>a 0x3f\n 17837: a0 = u64 [s1 + 0x138]\n 17841: a0 = a0 & a5\n 17844: a1 = u64 [s1 + 0x148]\n 17848: t2 = a1 - a0\n 17851: a1 = a1 <u a0\n 17854: a0 = u64 [s1 + 0x150]\n 17858: t1 = a0 - a1\n 17861: a1 = 0 if a0 != 0\n 17863: a0 = a3 - a1\n 17866: a1 = a3 <u a1\n 17869: a1 = t0 - a1\n 17872: t0 = 706, jump @1571\n      : @677 [@dyn 353] (gas: 17)\n 17878: t0 = a4 <u a2\n 17881: a2 = a4 - a2\n 17884: a4 = a3 <u 0x1\n 17887: ra = ra - a4\n 17890: a4 = u64 [s1 + 0x178]\n 17894: a4 = a4 - t0\n 17897: a3 = a3 + 0xffffffffffffffff\n 17900: u64 [s1 + 0x180] = ra\n 17904: u64 [s1 + 0x178] = a4\n 17908: t0 = ra | a4\n 17911: u64 [s1 + 0x190] = a3\n 17915: a4 = a3 | a2\n 17918: a3 = a4 | t0\n 17921: a4 = a5 & 0x1\n 17924: u64 [s1 + 0x170] = a2\n 17928: a5 = 0\n 17930: jump @676 if a3 != 0\n      : @678 (gas: 4)\n 17934: a0 = u64 [s1 + 0x188]\n 17938: a0 = a0 << 0x1\n 17941: a4 = a4 | a0\n 17944: fallthrough\n      : @679 (gas: 4)\n 17945: u64 [s1 + 0x170] = a4\n 17949: a0 = s1 + 0x2720\n 17953: a1 = 0x40\n 17956: ra = 708, jump @22\n      : @680 [@dyn 354] (gas: 17)\n 17962: t0 = s1 + 0x2118\n 17966: t1 = u64 [t0 + 0x620]\n 17970: a0 = t0 + 0x600\n 17974: a5 = u64 [a0 + 0x18]\n 17977: a3 = u64 [a0 + 0x10]\n 17980: a4 = u64 [a0 + 0x8]\n 17983: a0 = t1 >u 0\n 17985: a1 = a5 >u 0\n 17987: a1 = a0 if t1 != 0\n 17990: a0 = a3 >u 0\n 17992: a2 = a4 <u 0xffffffffffffff60\n 17996: a2 = a2 ^ 0x1\n 17999: a2 = a0 if a3 != 0\n 18002: a0 = a5 | t1\n 18005: u64 [s1 + 0x178] = a0\n 18009: a2 = a1 if a0 != 0\n 18012: jump @682 if a2 == 0\n      : @681 (gas: 1)\n 18015: jump @938\n      : @682 (gas: 21)\n 18018: a0 = a4 + 0xa0\n 18022: a1 = a0 <u a4\n 18025: a2 = a3 + a1\n 18028: u64 [s1 + 0x198] = a3\n 18032: a3 = u64 [s1 + 0x198]\n 18036: a3 = a2 <u a3\n 18039: a3 = a1 if a1 == 0\n 18042: a3 = a3 + a5\n 18045: a1 = a3 <u a5\n 18048: u64 [s1 + 0x190] = a4\n 18052: a4 = t1 + a1\n 18055: a1 = t0 + 0x500\n 18059: u64 [a1 + 0xe8] = a0\n 18063: u64 [a1 + 0xf0] = a2\n 18067: u64 [a1 + 0xf8] = a3\n 18071: a0 = 0x40\n 18074: a1 = s1 + 0x2700\n 18078: u64 [t0 + 0x600] = a4\n 18082: u64 [s1 + 0x180] = a5\n 18086: u64 [s1 + 0x188] = t1\n 18090: ra = 710, jump @24\n      : @683 [@dyn 355] (gas: 13)\n 18096: a5 = s1 + 0x100\n 18100: a2 = u64 [a5 + 0x90]\n 18104: a3 = u64 [a5 + 0x80]\n 18108: a0 = a2 | a3\n 18111: a1 = u64 [a5 + 0x98]\n 18115: a4 = u64 [a5 + 0x88]\n 18119: a1 = a1 | a4\n 18122: a0 = a0 | a1\n 18125: a0 = a0 >> 0x20\n 18128: a1 = a1 | a3\n 18131: a1 = a1 << 0x20\n 18134: a0 = a0 | a1\n 18137: jump @685 if a0 == 0\n      : @684 (gas: 1)\n 18140: jump @848\n      : @685 (gas: 13)\n 18143: a0 = u64 [s1 + 0xf0]\n 18147: a3 = s1 + 0x2118\n 18151: a4 = a3 + 0x500\n 18155: u64 [a4 + 0xc8] = a0\n 18159: a0 = u64 [s1 + 0xf8]\n 18163: u64 [a4 + 0xd0] = a0\n 18167: a0 = u64 [s1 + 0x100]\n 18171: u64 [a4 + 0xd8] = a0\n 18175: a1 = s1 + 0x26e0\n 18179: a0 = u64 [s1 + 0x108]\n 18183: u64 [a4 + 0xe0] = a0\n 18187: a0 = a2\n 18189: ra = 712, jump @24\n      : @686 [@dyn 356] (gas: 3)\n 18195: a0 = u64 [s1 + 0xc0]\n 18199: ecalli 5 // 'caller'\n 18201: fallthrough\n      : @687 (gas: 9)\n 18202: a2 = s1 + 0x100\n 18206: a4 = u64 [a2 + 0x90]\n 18210: a0 = 0xffffffe0\n 18220: a0 = a4 <u a0\n 18223: a1 = u64 [a2 + 0x98]\n 18227: a0 = 0 if a1 != 0\n 18229: a1 = u64 [a2 + 0x78]\n 18232: a0 = 0 if a1 != 0\n 18234: jump @689 if a0 != 0\n      : @688 (gas: 1)\n 18237: jump @848\n      : @689 (gas: 24)\n 18240: a2 = u64 [s1 + 0xd8]\n 18244: a0 = u64 [a2 + 0x8]\n 18247: a1 = i32 [a2 + 0x10]\n 18250: a2 = u64 [a2]\n 18252: a0 = reverse a0\n 18254: a3 = a0 << 0x20\n 18257: a1 = reverse a1\n 18259: a1 = a1 >> 0x20\n 18262: a3 = a3 | a1\n 18265: a0 = a0 >> 0x20\n 18268: a1 = reverse a2\n 18270: a2 = a1 << 0x20\n 18273: a2 = a2 | a0\n 18276: a1 = a1 >> 0x20\n 18279: i32 a0 = a4 + 0x20\n 18282: a4 = s1 + 0x2118\n 18286: u64 [a4 + 1472] = 0\n 18290: a5 = a4 + 0x500\n 18294: u64 [a5 + 0xb8] = a1\n 18298: u64 [a5 + 0xb0] = a2\n 18302: a1 = s1 + 0x26c0\n 18306: u64 [a5 + 0xa8] = a3\n 18310: u64 [s1 + 0x138] = a0\n 18314: ra = 714, jump @24\n      : @690 [@dyn 357] (gas: 13)\n 18320: a0 = u64 [s1 + 0xb0]\n 18324: a3 = s1 + 0x2118\n 18328: a4 = a3 + 0x500\n 18332: u64 [a4 + 0x80] = a0\n 18336: a0 = u64 [s1 + 0xe8]\n 18340: u64 [a4 + 0x78] = a0\n 18343: a0 = u64 [s1 + 0xe0]\n 18347: u64 [a4 + 0x70] = a0\n 18350: a0 = s1 + 0x26a0\n 18354: a1 = s1 + 0x2680\n 18358: a2 = u64 [s1 + 0xb8]\n 18362: u64 [a4 + 0x68] = a2\n 18365: ra = 716, jump @1360\n      : @691 [@dyn 358] (gas: 13)\n 18371: a0 = s1 + 0x2118\n 18375: a2 = a0 + 0x500\n 18379: a1 = u64 [a2 + 0x88]\n 18383: u64 [s1 + 0x158] = a1\n 18387: a1 = u64 [a2 + 0x90]\n 18391: u64 [s1 + 0x150] = a1\n 18395: a1 = u64 [a2 + 0x98]\n 18399: u64 [s1 + 0x148] = a1\n 18403: a1 = u64 [a2 + 0xa0]\n 18407: u64 [s1 + 0x140] = a1\n 18411: a0 = s1 + 0x2660\n 18415: a1 = 0x40\n 18418: ra = 718, jump @22\n      : @692 [@dyn 359] (gas: 26)\n 18424: a0 = s1 + 0x2118\n 18428: a3 = u64 [a0 + 0x560]\n 18432: u64 [s1 + 0x188] = a3\n 18436: a1 = u64 [a0 + 0x558]\n 18440: u64 [s1 + 0x180] = a1\n 18444: a5 = u64 [a0 + 0x550]\n 18448: u64 [s1 + 0x168] = a5\n 18452: a4 = u64 [a0 + 0x548]\n 18456: u64 [s1 + 0x160] = a4\n 18460: a2 = u64 [s1 + 0x140]\n 18464: u64 [a0 + 0x520] = a2\n 18468: a2 = u64 [s1 + 0x148]\n 18472: u64 [a0 + 0x518] = a2\n 18476: a2 = u64 [s1 + 0x150]\n 18480: u64 [a0 + 0x510] = a2\n 18484: a2 = u64 [s1 + 0x158]\n 18488: u64 [a0 + 0x508] = a2\n 18492: a2 = a0 + 0x500\n 18496: u64 [a2 + 0x40] = a3\n 18499: u64 [a2 + 0x38] = a1\n 18502: u64 [a2 + 0x30] = a5\n 18505: a2 = a0\n 18507: a0 = s1 + 0x2640\n 18511: a1 = s1 + 0x2620\n 18515: u64 [a2 + 0x528] = a4\n 18519: ra = 720, jump @1335\n      : @693 [@dyn 360] (gas: 14)\n 18525: a2 = s1 + 0x100\n 18529: a1 = u64 [a2 + 0x68]\n 18532: a0 = u64 [a2 + 0x88]\n 18536: a0 = a0 | a1\n 18539: a1 = u64 [a2 + 0x60]\n 18542: a5 = a1\n 18544: a4 = u64 [a2 + 0x80]\n 18548: a1 = a1 | a4\n 18551: a1 = a1 | a0\n 18554: a1 = a1 >> 0x20\n 18557: a0 = a0 | a4\n 18560: a0 = a0 << 0x20\n 18563: a0 = a0 | a1\n 18566: jump @695 if a0 == 0\n      : @694 (gas: 1)\n 18569: jump @848\n      : @695 (gas: 13)\n 18572: a0 = s1 + 0x2118\n 18576: a1 = u64 [s1 + 0xb8]\n 18580: a2 = a0 + 0x400\n 18584: u64 [a2 + 0xe8] = a1\n 18588: a1 = u64 [s1 + 0xe0]\n 18592: u64 [a2 + 0xf0] = a1\n 18596: a1 = u64 [s1 + 0xe8]\n 18600: u64 [a2 + 0xf8] = a1\n 18604: a1 = s1 + 0x2600\n 18608: a4 = u64 [s1 + 0xb0]\n 18612: u64 [a0 + 0x500] = a4\n 18616: a0 = a5\n 18618: ra = 722, jump @24\n      : @696 [@dyn 361] (gas: 10)\n 18624: a0 = u64 [s1 + 0x188]\n 18628: a3 = u64 [s1 + 0x180]\n 18632: a0 = a0 | a3\n 18635: a4 = 0xffffffe0\n 18645: a5 = u64 [s1 + 0x160]\n 18649: a1 = a5 <u a4\n 18652: a2 = u64 [s1 + 0x168]\n 18656: a1 = 0 if a2 != 0\n 18658: a1 = 0 if a0 != 0\n 18660: jump @698 if a1 != 0\n      : @697 (gas: 1)\n 18663: jump @848\n      : @698 (gas: 8)\n 18666: a1 = u64 [s1 + 0xb8]\n 18670: i32 a0 = a1 + 0\n 18672: u64 [s1 + 0x90] = a0\n 18676: a0 = i32 [s1 + 0x120]\n 18680: u64 [s1 + 0x88] = a0\n 18684: i32 a0 = a5 + 0x20\n 18687: u64 [s1 + 0x158] = a4\n 18691: ra = 724, jump @37\n      : @699 [@dyn 362] (gas: 5)\n 18697: i32 a0 = a0 + 0\n 18699: a1 = u64 [s1 + 0x90]\n 18703: a2 = u64 [s1 + 0x88]\n 18707: ecalli 2 // 'call_data_copy'\n 18709: fallthrough\n      : @700 (gas: 28)\n 18710: a4 = u64 [s1 + 0x168]\n 18714: t0 = u64 [s1 + 0xb8]\n 18718: a0 = u64 [s1 + 0x160]\n 18722: t0 = t0 + a0\n 18725: a1 = t0 <u a0\n 18728: a2 = u64 [s1 + 0xe0]\n 18732: a2 = a2 + a4\n 18735: a2 = a2 + a1\n 18738: a3 = a2 ^ a4\n 18741: a4 = a2 <u a4\n 18744: a4 = a1 if a3 == 0\n 18747: a1 = u64 [s1 + 0xe8]\n 18751: a0 = u64 [s1 + 0x180]\n 18755: a1 = a1 + a0\n 18758: a3 = a1 <u a0\n 18761: a5 = u64 [s1 + 0x188]\n 18765: a0 = u64 [s1 + 0xb0]\n 18769: a5 = a5 + a0\n 18772: a3 = a3 + a5\n 18775: a4 = a4 + a1\n 18778: a1 = a4 <u a1\n 18781: a1 = a1 + a3\n 18784: a1 = a1 | a4\n 18787: a0 = u64 [s1 + 0x158]\n 18791: a3 = t0 <u a0\n 18794: a3 = 0 if a2 != 0\n 18796: a3 = 0 if a1 != 0\n 18798: jump @702 if a3 != 0\n      : @701 (gas: 1)\n 18801: jump @848\n      : @702 (gas: 8)\n 18804: i32 a0 = t0 + 0x20\n 18807: a2 = s1 + 0x2118\n 18811: u64 [a2 + 1248] = 0\n 18815: u64 [a2 + 1240] = 0\n 18819: u64 [a2 + 1232] = 0\n 18823: a1 = s1 + 0x25e0\n 18827: u64 [a2 + 1224] = 0\n 18831: ra = 726, jump @24\n      : @703 [@dyn 363] (gas: 10)\n 18837: a3 = 0x100000000\n 18847: a0 = 0xffffffc0\n 18857: a4 = s1 + 0x100\n 18861: a1 = u64 [a4 + 0x90]\n 18865: a0 = a1 <u a0\n 18868: a2 = u64 [a4 + 0x98]\n 18872: a0 = 0 if a2 != 0\n 18874: a2 = u64 [a4 + 0x78]\n 18877: a0 = 0 if a2 != 0\n 18879: jump @705 if a0 != 0\n      : @704 (gas: 1)\n 18882: jump @848\n      : @705 (gas: 16)\n 18885: i32 a0 = a1 + 0x40\n 18888: a1 = s1 + 0x2118\n 18892: u64 [s1 + 0x158] = a3\n 18896: a3 = a1\n 18898: a1 = u64 [s1 + 0x160]\n 18902: a4 = a3 + 0x400\n 18906: u64 [a4 + 0xa8] = a1\n 18910: a1 = u64 [s1 + 0x168]\n 18914: u64 [a4 + 0xb0] = a1\n 18918: a1 = u64 [s1 + 0x180]\n 18922: u64 [a4 + 0xb8] = a1\n 18926: a1 = s1 + 0x25c0\n 18930: a2 = u64 [s1 + 0x188]\n 18934: u64 [a4 + 0xc0] = a2\n 18938: u64 [s1 + 0x188] = a0\n 18942: ra = 728, jump @24\n      : @706 [@dyn 364] (gas: 10)\n 18948: a4 = s1 + 0x100\n 18952: a2 = u64 [a4 + 0x78]\n 18955: a3 = u64 [a4 + 0x98]\n 18959: a1 = u64 [a4 + 0x90]\n 18963: a0 = u64 [a4 + 0x58]\n 18966: a0 = a0 + 0xffffffffffffffa0\n 18969: a0 = a1 <u a0\n 18972: a0 = 0 if a3 != 0\n 18974: a0 = 0 if a2 != 0\n 18976: jump @708 if a0 != 0\n      : @707 (gas: 1)\n 18979: jump @848\n      : @708 (gas: 10)\n 18982: i32 a0 = a1 + 0x60\n 18985: a4 = s1 + 0x2118\n 18989: u64 [a4 + 1184] = 0\n 18993: u64 [a4 + 1176] = 0\n 18997: u64 [a4 + 1168] = 0\n 19001: a1 = s1 + 0x25a0\n 19005: a2 = u64 [s1 + 0x170]\n 19009: u64 [a4 + 0x488] = a2\n 19013: u64 [s1 + 0x68] = a0\n 19016: ra = 730, jump @24\n      : @709 [@dyn 365] (gas: 9)\n 19022: a3 = s1 + 0x100\n 19026: a1 = u64 [a3 + 0x90]\n 19030: a0 = 0xffffff80\n 19040: a0 = a1 <u a0\n 19043: a2 = u64 [a3 + 0x98]\n 19047: a0 = 0 if a2 != 0\n 19049: a2 = u64 [a3 + 0x78]\n 19052: a0 = 0 if a2 != 0\n 19054: jump @711 if a0 != 0\n      : @710 (gas: 1)\n 19057: jump @848\n      : @711 (gas: 9)\n 19060: i32 a0 = a1 + 0x80\n 19064: a2 = s1 + 0x2118\n 19068: u64 [a2 + 1152] = 0\n 19072: u64 [a2 + 1144] = 0\n 19076: u64 [a2 + 1136] = 0\n 19080: a1 = s1 + 0x2580\n 19084: u64 [a2 + 1128] = 0\n 19088: u64 [s1 + 0x20] = a0\n 19091: ra = 732, jump @24\n      : @712 [@dyn 366] (gas: 5)\n 19097: a0 = u64 [s1 + 0xc0]\n 19101: ra = 0x2de\n 19105: ecalli 5 // 'caller'\n 19107: t0 = 0x2e0\n 19111: jump @1511\n      : @713 [@dyn 367] (gas: 1)\n 19114: t0 = 736, jump @1511\n      : @714 [@dyn 368] (gas: 8)\n 19120: u64 [a2 + 1120] = 0\n 19124: a4 = a2 + 0x400\n 19128: u64 [a4 + 0x58] = a1\n 19131: u64 [a4 + 0x50] = a0\n 19134: a1 = s1 + 0x2560\n 19138: u64 [a4 + 0x48] = a3\n 19141: a0 = 0\n 19143: ra = 738, jump @24\n      : @715 [@dyn 369] (gas: 3)\n 19149: t0 = 0x2e4\n 19153: a1 = s1 + 0x2118\n 19157: fallthrough\n      : @716 [@dyn 370] (gas: 8)\n 19158: u64 [a1 + 1088] = 0\n 19162: u64 [a1 + 1080] = 0\n 19166: u64 [a1 + 1064] = 0x2\n 19171: a2 = a1\n 19173: a0 = 0x20\n 19176: a1 = s1 + 0x2540\n 19180: u64 [a2 + 1072] = 0\n 19184: ra = 742, jump @24\n      : @717 [@dyn 371] (gas: 3)\n 19190: a1 = u64 [s1 + 0xa8]\n 19194: a0 = i32 [a1]\n 19196: jump @719 if a0 >u 63\n      : @718 (gas: 2)\n 19200: u32 [a1 + 0] = 0x40\n 19203: fallthrough\n      : @719 (gas: 14)\n 19204: a1 = 0xffffffff00000000\n 19214: u64 [s1 + 0x78] = a1\n 19217: a0 = 0xffffffff\n 19227: u64 [s1 + 0x70] = a0\n 19230: a0 = sp + 0xffffffffffffffe0\n 19233: a0 = a0 & 0xffffffffffffffe0\n 19236: u64 [s1 + 0x198] = a0\n 19240: sp = a0\n 19242: i32 a2 = a0 + 0\n 19244: a1 = 0x40\n 19247: a0 = u64 [s1 + 0xa0]\n 19251: ra = 0x2e8\n 19255: ecalli 9 // 'hash_keccak_256'\n 19257: fallthrough\n      : @720 [@dyn 372] (gas: 14)\n 19258: a3 = u64 [s1 + 0x198]\n 19262: a0 = u64 [a3 + 0x18]\n 19265: a1 = u64 [a3 + 0x10]\n 19268: a2 = u64 [a3 + 0x8]\n 19271: a3 = u64 [a3]\n 19273: a0 = reverse a0\n 19275: u64 [s1 + 0x180] = a0\n 19279: a0 = reverse a1\n 19281: u64 [s1 + 0x178] = a0\n 19285: a0 = reverse a2\n 19287: u64 [s1 + 0x170] = a0\n 19291: a0 = reverse a3\n 19293: u64 [s1 + 0x168] = a0\n 19297: t0 = 746, jump @1558\n      : @721 [@dyn 373] (gas: 3)\n 19303: t0 = 0x2ec\n 19307: a2 = s1 + 0x2118\n 19311: fallthrough\n      : @722 [@dyn 374] (gas: 12)\n 19312: a0 = u64 [s1 + 0x108]\n 19316: a3 = a2 + 0x400\n 19320: u64 [a3 + 0x20] = a0\n 19323: a0 = u64 [s1 + 0x100]\n 19327: u64 [a3 + 0x18] = a0\n 19330: a0 = u64 [s1 + 0xf8]\n 19334: u64 [a3 + 0x10] = a0\n 19337: a1 = s1 + 0x2520\n 19341: a0 = u64 [s1 + 0xf0]\n 19345: u64 [a3 + 0x8] = a0\n 19348: a0 = 0\n 19350: ra = 750, jump @24\n      : @723 [@dyn 375] (gas: 3)\n 19356: t0 = 0x2f0\n 19360: a1 = s1 + 0x2118\n 19364: fallthrough\n      : @724 [@dyn 376] (gas: 13)\n 19365: a4 = s1 + 0x100\n 19369: a0 = u64 [a4 + 0x68]\n 19372: u64 [a1 + 0x400] = a0\n 19376: a0 = u64 [a4 + 0x70]\n 19379: u64 [a1 + 0x3f8] = a0\n 19383: a0 = u64 [a4 + 0x78]\n 19386: u64 [a1 + 0x3f0] = a0\n 19390: a3 = a1\n 19392: a0 = 0x20\n 19395: a1 = s1 + 0x2500\n 19399: a2 = u64 [a4 + 0x80]\n 19403: u64 [a3 + 0x3e8] = a2\n 19407: ra = 754, jump @24\n      : @725 [@dyn 377] (gas: 3)\n 19413: a1 = u64 [s1 + 0xa8]\n 19417: a0 = i32 [a1]\n 19419: jump @727 if a0 >u 63\n      : @726 (gas: 2)\n 19423: u32 [a1 + 0] = 0x40\n 19426: fallthrough\n      : @727 (gas: 29)\n 19427: a0 = sp + 0xffffffffffffffe0\n 19430: a0 = a0 & 0xffffffffffffffe0\n 19433: u64 [s1 + 0x180] = a0\n 19437: sp = a0\n 19439: i32 a2 = a0 + 0\n 19441: a1 = 0x40\n 19444: a0 = u64 [s1 + 0xa0]\n 19448: ecalli 9 // 'hash_keccak_256'\n 19450: a3 = u64 [s1 + 0x180]\n 19454: a0 = u64 [a3 + 0x18]\n 19457: a1 = u64 [a3 + 0x10]\n 19460: a2 = u64 [a3 + 0x8]\n 19463: a3 = u64 [a3]\n 19465: a5 = reverse a0\n 19467: u64 [s1 + 0x48] = a5\n 19470: a4 = reverse a1\n 19472: u64 [s1 + 0x50] = a4\n 19475: a1 = reverse a2\n 19477: u64 [s1 + 0x60] = a1\n 19480: a0 = reverse a3\n 19482: u64 [s1 + 0x58] = a0\n 19485: a2 = u64 [s1 + 0x198]\n 19489: u64 [a2 + 0x18] = a0\n 19492: u64 [a2 + 0x10] = a1\n 19495: u64 [a2 + 0x8] = a4\n 19498: u64 [a2] = a5\n 19500: a0 = s1 + 0x24e0\n 19504: a1 = u64 [s1 + 0x190]\n 19508: ra = 756, jump @22\n      : @728 [@dyn 378] (gas: 8)\n 19514: a0 = s1 + 0x2118\n 19518: a0 = u64 [a0 + 0x3c8]\n 19522: a1 = u64 [s1 + 0x70]\n 19525: a0 = a0 & a1\n 19528: u64 [s1 + 0x190] = a0\n 19532: a0 = s1 + 0x24c0\n 19536: a1 = u64 [s1 + 0x198]\n 19540: ra = 758, jump @26\n      : @729 [@dyn 379] (gas: 21)\n 19546: a3 = s1 + 0x2118\n 19550: a4 = a3 + 0x300\n 19554: a0 = u64 [a4 + 0xb0]\n 19558: a1 = u64 [a4 + 0xb8]\n 19562: a2 = u64 [a4 + 0xc0]\n 19566: a3 = u64 [a4 + 0xa8]\n 19570: a0 = a0 & 0xffffffffffffffff\n 19573: a1 = a1 & 0xffffffffffffffff\n 19576: a2 = a2 & 0xffffffffffffffff\n 19579: a4 = u64 [s1 + 0x78]\n 19582: a3 = a3 & a4\n 19585: a4 = u64 [s1 + 0x190]\n 19589: a3 = a3 | a4\n 19592: a4 = s1 + 0x3118\n 19596: u64 [a4 + 0x40] = a2\n 19599: u64 [a4 + 0x38] = a1\n 19602: u64 [a4 + 0x30] = a0\n 19605: u64 [a4 + 0x28] = a3\n 19608: a1 = s1 + 0x3140\n 19612: a0 = u64 [s1 + 0x198]\n 19616: ra = 760, jump @28\n      : @730 [@dyn 380] (gas: 3)\n 19622: a0 = s1 + 0x24a0\n 19626: a1 = u64 [s1 + 0x138]\n 19630: ra = 762, jump @22\n      : @731 [@dyn 381] (gas: 11)\n 19636: a0 = s1 + 0x2118\n 19640: a2 = a0 + 0x300\n 19644: a1 = u64 [a2 + 0x98]\n 19648: u64 [s1 + 0x190] = a1\n 19652: a1 = u64 [a2 + 0x90]\n 19656: u64 [s1 + 0x180] = a1\n 19660: a1 = u64 [a2 + 0x88]\n 19664: u64 [s1 + 0x178] = a1\n 19668: a0 = s1 + 0x2480\n 19672: a1 = u64 [s1 + 0x198]\n 19676: ra = 764, jump @26\n      : @732 [@dyn 382] (gas: 22)\n 19682: a1 = s1 + 0x2118\n 19686: a0 = u64 [a1 + 0x380]\n 19690: a1 = u32 [a1 + 0x368]\n 19694: a5 = u64 [s1 + 0x178]\n 19698: a2 = a5 >> 0x20\n 19701: a4 = u64 [s1 + 0x180]\n 19705: a3 = a4 << 0x20\n 19708: a2 = a2 | a3\n 19711: a3 = a4 >> 0x20\n 19714: a4 = u64 [s1 + 0x190]\n 19718: a4 = a4 << 0x20\n 19721: a3 = a3 | a4\n 19724: a4 = a5 << 0x20\n 19727: a1 = a1 | a4\n 19730: a4 = s1 + 0x3118\n 19734: u64 [a4 + 0x58] = a3\n 19737: u64 [a4 + 0x50] = a2\n 19740: u64 [a4 + 0x60] = a0\n 19743: u64 [a4 + 0x48] = a1\n 19746: a1 = s1 + 0x3160\n 19750: a0 = u64 [s1 + 0x198]\n 19754: ra = 766, jump @28\n      : @733 [@dyn 383] (gas: 27)\n 19760: a0 = sp + 0xffffffffffffffe0\n 19763: a1 = a0 & 0xffffffffffffffe0\n 19766: sp = a1\n 19768: a2 = u64 [s1 + 0x48]\n 19771: a2 = a2 + 0x1\n 19774: a0 = a2 <u 0x1\n 19777: a3 = u64 [s1 + 0x50]\n 19780: a3 = a3 + a0\n 19783: a0 = a2 | a3\n 19786: a0 = a0 <u 0x1\n 19789: a5 = u64 [s1 + 0x60]\n 19792: a4 = a5 + a0\n 19795: a0 = a4 <u a5\n 19798: a5 = u64 [s1 + 0x58]\n 19801: a0 = a0 + a5\n 19804: u64 [s1 + 0x148] = a0\n 19808: u64 [a1 + 0x18] = a0\n 19811: u64 [s1 + 0x138] = a4\n 19815: u64 [a1 + 0x10] = a4\n 19818: u64 [s1 + 0x140] = a3\n 19822: u64 [a1 + 0x8] = a3\n 19825: u64 [s1 + 0x38] = a1\n 19828: u64 [s1 + 0x150] = a2\n 19832: u64 [a1] = a2\n 19834: a0 = s1 + 0x2460\n 19838: a1 = u64 [s1 + 0x188]\n 19842: ra = 768, jump @22\n      : @734 [@dyn 384] (gas: 18)\n 19848: a0 = s1 + 0x2118\n 19852: a5 = a0 + 0x300\n 19856: a3 = u64 [a5 + 0x60]\n 19859: a4 = u64 [a5 + 0x58]\n 19862: a2 = u64 [a5 + 0x50]\n 19865: a1 = u64 [a5 + 0x48]\n 19868: a5 = s1 + 0x100\n 19872: u64 [a5 + 0x30] = a2\n 19875: u64 [a5 + 0x28] = a3\n 19878: a0 = a2 | a3\n 19881: a2 = a1 | a4\n 19884: a2 = a2 | a0\n 19887: a2 = a2 >> 0x20\n 19890: u64 [a5 + 0x20] = a4\n 19893: a0 = a0 | a4\n 19896: a0 = a0 << 0x20\n 19899: a0 = a0 | a2\n 19902: jump @736 if a0 == 0\n      : @735 (gas: 1)\n 19905: jump @848\n      : @736 (gas: 3)\n 19908: a0 = s1 + 0x2440\n 19912: u64 [s1 + 0x118] = a1\n 19916: ra = 770, jump @22\n      : @737 [@dyn 385] (gas: 2)\n 19922: a2 = s1 + 0x2118\n 19926: fallthrough\n      : @738 (gas: 17)\n 19927: a0 = a2 + 0x300\n 19931: a4 = u64 [a0 + 0x40]\n 19934: a3 = u64 [a0 + 0x38]\n 19937: a1 = u64 [a0 + 0x30]\n 19940: a0 = a4 >u 0\n 19942: a5 = a3 >u 0\n 19944: a5 = a0 if a4 != 0\n 19947: u64 [s1 + 0x40] = a1\n 19950: a0 = a1 >u 0\n 19952: u64 [s1 + 0x30] = a3\n 19955: u64 [s1 + 0x28] = a4\n 19958: a3 = a3 | a4\n 19961: u64 [s1 + 0x8] = a0\n 19964: u64 [s1 + 0x10] = a5\n 19967: u64 [s1 + 0x110] = a3\n 19971: a0 = a5 if a3 != 0\n 19974: jump @740 if a0 == 0\n      : @739 (gas: 1)\n 19977: jump @962\n      : @740 (gas: 5)\n 19980: a0 = u64 [a2 + 0x328]\n 19984: u64 [s1 + 0x80] = a0\n 19988: a0 = s1 + 0x2420\n 19992: a1 = u64 [s1 + 0x38]\n 19995: ra = 772, jump @26\n      : @741 [@dyn 386] (gas: 14)\n 20001: a4 = s1 + 0x2118\n 20005: a5 = a4 + 0x300\n 20009: a2 = u64 [a5 + 0x8]\n 20012: a0 = u64 [a5 + 0x10]\n 20015: a1 = u64 [a5 + 0x18]\n 20018: a3 = u64 [a5 + 0x20]\n 20021: a5 = a4 + 0x200\n 20025: u64 [a5 + 0xe0] = a3\n 20029: u64 [a5 + 0xd8] = a1\n 20033: u64 [a5 + 0xd0] = a0\n 20037: a0 = s1 + 0x2400\n 20041: a1 = s1 + 0x23e0\n 20045: u64 [a5 + 0xc8] = a2\n 20049: ra = 774, jump @1326\n      : @742 [@dyn 387] (gas: 23)\n 20055: a0 = s1 + 0x2118\n 20059: a3 = u64 [a0 + 0x300]\n 20063: a1 = a0 + 0x200\n 20067: a4 = u64 [a1 + 0xf8]\n 20071: a5 = u64 [a1 + 0xf0]\n 20075: a2 = u64 [a1 + 0xe8]\n 20079: a0 = a3 >u 0\n 20081: a1 = a4 >u 0\n 20083: a1 = a0 if a3 != 0\n 20086: a0 = a5 >u 0\n 20088: u64 [s1 + 0x178] = a2\n 20092: a2 = a2 <u 0x20\n 20095: a2 = a2 ^ 0x1\n 20098: u64 [s1 + 0x180] = a5\n 20102: a2 = a0 if a5 != 0\n 20105: u64 [s1 + 0x188] = a3\n 20109: u64 [s1 + 0x190] = a4\n 20113: a0 = a4 | a3\n 20116: a2 = a1 if a0 != 0\n 20119: a0 = u64 [s1 + 0x80]\n 20123: a0 = a0 <u 0x20\n 20126: u64 [s1 + 0x18] = a0\n 20129: jump @778 if a2 == 0\n      : @743 (gas: 14)\n 20133: a0 = s1 + 0x2118\n 20137: a3 = s1 + 0x100\n 20141: a1 = u64 [a3 + 0x50]\n 20144: a4 = a0 + 0x200\n 20148: u64 [a4 + 0xa8] = a1\n 20152: a1 = u64 [a3 + 0x40]\n 20155: u64 [a4 + 0xb0] = a1\n 20159: a1 = u64 [a3 + 0x38]\n 20162: u64 [a4 + 0xb8] = a1\n 20166: a1 = s1 + 0x23c0\n 20170: a2 = u64 [a3 + 0x48]\n 20173: u64 [a4 + 0xc0] = a2\n 20177: a0 = 0\n 20179: ra = 776, jump @24\n      : @744 [@dyn 388] (gas: 3)\n 20185: a0 = u64 [s1 + 0xa8]\n 20189: a0 = i32 [a0]\n 20191: jump @746 if a0 >u 31\n      : @745 (gas: 3)\n 20195: a1 = u64 [s1 + 0xa8]\n 20199: u32 [a1 + 0] = 0x20\n 20202: fallthrough\n      : @746 (gas: 117)\n 20203: a0 = sp + 0xffffffffffffffe0\n 20206: a0 = a0 & 0xffffffffffffffe0\n 20209: u64 [s1 + 0x168] = a0\n 20213: sp = a0\n 20215: i32 a2 = a0 + 0\n 20217: a1 = 0x20\n 20220: a0 = u64 [s1 + 0xa0]\n 20224: ecalli 9 // 'hash_keccak_256'\n 20226: a0 = u64 [s1 + 0x80]\n 20230: a1 = a0 + 0x1f\n 20233: a0 = a1 <u a0\n 20236: a5 = u64 [s1 + 0x40]\n 20239: a2 = a5 + a0\n 20242: a3 = a2 <u a5\n 20245: a3 = a0 if a0 == 0\n 20248: a4 = u64 [s1 + 0x30]\n 20251: a3 = a3 + a4\n 20254: u64 [s1 + 0x160] = a3\n 20258: a3 = a3 << 0x3b\n 20261: a4 = a2 >> 0x5\n 20264: a4 = a4 | a3\n 20267: a0 = u64 [s1 + 0x168]\n 20271: t1 = u64 [a0 + 0x18]\n 20274: a2 = a2 << 0x3b\n 20277: a3 = u64 [a0 + 0x10]\n 20280: a1 = a1 >> 0x5\n 20283: a0 = a1 | a2\n 20286: t2 = reverse t1\n 20288: a2 = reverse a3\n 20290: a1 = u64 [s1 + 0x18]\n 20293: a1 = 0 if a5 != 0\n 20295: a3 = u64 [s1 + 0x110]\n 20299: a1 = 0 if a3 != 0\n 20301: a4 = 0 if a1 != 0\n 20303: a0 = 0 if a1 != 0\n 20305: t0 = t2 + a0\n 20308: a0 = t0 <u t2\n 20311: a5 = a2 + a0\n 20314: a4 = a4 + a5\n 20317: u64 [s1 + 0x198] = a4\n 20321: a5 = a4 ^ a2\n 20324: a3 = a4 <u a2\n 20327: a3 = a0 if a5 == 0\n 20330: u64 [s1 + 0x158] = a3\n 20334: a0 = u64 [s1 + 0x178]\n 20338: ra = a0 + 0x1f\n 20341: a4 = ra <u a0\n 20344: a3 = u64 [s1 + 0x180]\n 20348: a0 = a3 + a4\n 20351: a5 = a0 <u a3\n 20354: a5 = a4 if a4 == 0\n 20357: t1 = u64 [s1 + 0x190]\n 20361: t1 = t1 + a5\n 20364: a4 = t1 << 0x3b\n 20367: a3 = a0 >> 0x5\n 20370: a3 = a3 | a4\n 20373: a0 = a0 << 0x3b\n 20376: a4 = ra >> 0x5\n 20379: a0 = a0 | a4\n 20382: a0 = a0 + t2\n 20385: u64 [s1 + 0x178] = a0\n 20389: a0 = a0 <u t2\n 20392: t2 = t0\n 20394: a4 = a2 + a0\n 20397: a4 = a4 + a3\n 20400: a3 = a4 ^ a2\n 20403: u64 [s1 + 0x170] = a4\n 20407: a2 = a4 <u a2\n 20410: a2 = a0 if a3 == 0\n 20413: a4 = u64 [s1 + 0x160]\n 20417: a0 = u64 [s1 + 0x30]\n 20420: a0 = a4 <u a0\n 20423: a3 = u64 [s1 + 0x28]\n 20426: a0 = a0 + a3\n 20429: a3 = a4 >> 0x5\n 20432: a4 = a0 << 0x3b\n 20435: a3 = a3 | a4\n 20438: a4 = u64 [s1 + 0x168]\n 20442: t0 = u64 [a4]\n 20444: a4 = u64 [a4 + 0x8]\n 20447: a0 = a0 >> 0x5\n 20450: a3 = 0 if a1 != 0\n 20452: a0 = 0 if a1 != 0\n 20454: a1 = reverse a4\n 20456: a4 = reverse t0\n 20458: a0 = a0 + a4\n 20461: a3 = a3 + a1\n 20464: a5 = a3 <u a1\n 20467: a0 = a0 + a5\n 20470: ra = u64 [s1 + 0x158]\n 20474: ra = ra + a3\n 20477: a3 = ra <u a3\n 20480: t0 = a0 + a3\n 20483: a0 = u64 [s1 + 0x190]\n 20487: a0 = t1 <u a0\n 20490: a3 = u64 [s1 + 0x188]\n 20494: a0 = a0 + a3\n 20497: a3 = t1 >> 0x5\n 20500: a5 = a0 << 0x3b\n 20503: a3 = a3 | a5\n 20506: a0 = a0 >> 0x5\n 20509: a0 = a0 + a4\n 20512: a5 = s1 + 0x100\n 20516: a4 = u64 [a5 + 0x98]\n 20520: a3 = a3 + a1\n 20523: a1 = a3 <u a1\n 20526: a0 = a0 + a1\n 20529: a2 = a2 + a3\n 20532: u64 [a5 + 0x68] = a2\n 20535: a1 = a2 <u a3\n 20538: a0 = a0 + a1\n 20541: u64 [a5 + 0x60] = a0\n 20544: a0 = sp + 0xffffffffffffffe0\n 20547: t1 = a0 & 0xffffffffffffffe0\n 20550: sp = t1\n 20552: u64 [s1 + 0x158] = t1\n 20556: fallthrough\n      : @747 (gas: 24)\n 20557: a0 = u64 [s1 + 0x178]\n 20561: a0 = t2 <u a0\n 20564: a2 = u64 [s1 + 0x170]\n 20568: a1 = a4 ^ a2\n 20571: a2 = a4 <u a2\n 20574: a2 = a0 if a1 == 0\n 20577: a5 = u64 [s1 + 0x168]\n 20581: a0 = ra <u a5\n 20584: a3 = u64 [s1 + 0x160]\n 20588: a1 = t0 ^ a3\n 20591: a3 = t0 <u a3\n 20594: a3 = a0 if a1 == 0\n 20597: a0 = ra ^ a5\n 20600: a0 = a0 | a1\n 20603: a3 = a2 if a0 == 0\n 20606: u64 [s1 + 0x190] = t2\n 20610: u64 [t1] = t2\n 20612: u64 [s1 + 0x198] = a4\n 20616: u64 [t1 + 0x8] = a4\n 20619: u64 [s1 + 0x180] = ra\n 20623: u64 [t1 + 0x10] = ra\n 20626: u64 [s1 + 0x188] = t0\n 20630: u64 [t1 + 0x18] = t0\n 20633: jump @778 if a3 == 0\n      : @748 (gas: 8)\n 20637: a0 = s1 + 0x3118\n 20641: u64 [a0 + 128] = 0\n 20645: u64 [a0 + 120] = 0\n 20648: u64 [a0 + 112] = 0\n 20651: u64 [a0 + 104] = 0\n 20654: a1 = s1 + 0x3180\n 20658: a0 = t1\n 20660: ra = 778, jump @28\n      : @749 [@dyn 389] (gas: 15)\n 20666: t1 = u64 [s1 + 0x158]\n 20670: t2 = u64 [s1 + 0x190]\n 20674: t2 = t2 + 0x1\n 20677: a0 = t2 <u 0x1\n 20680: a4 = u64 [s1 + 0x198]\n 20684: a4 = a4 + a0\n 20687: a0 = t2 | a4\n 20690: a0 = a0 <u 0x1\n 20693: a1 = u64 [s1 + 0x180]\n 20697: a0 = a0 + a1\n 20700: a1 = a0 <u a1\n 20703: t0 = u64 [s1 + 0x188]\n 20707: t0 = t0 + a1\n 20710: ra = a0\n 20712: jump @747\n      : @750 (gas: 2)\n 20715: a5 = s1 + 0x1118\n 20719: fallthrough\n      : @751 (gas: 26)\n 20720: a1 = u64 [s1 + 0x198]\n 20724: a0 = a1 + 0x20\n 20727: a1 = a0 <u a1\n 20730: a2 = t2 + a1\n 20733: a3 = a2 <u t2\n 20736: a3 = a1 if a1 == 0\n 20739: a3 = a3 + t1\n 20742: a1 = a3 <u t1\n 20745: a4 = u64 [s1 + 0x190]\n 20749: a4 = a4 + a1\n 20752: a1 = u64 [s1 + 0x108]\n 20756: u64 [a5 + 0x608] = a1\n 20760: a1 = a5 + 0x500\n 20764: u64 [a1 + 0xe8] = a0\n 20768: a0 = u64 [s1 + 0x100]\n 20772: u64 [a5 + 0x610] = a0\n 20776: a0 = u64 [s1 + 0xf8]\n 20780: u64 [a5 + 0x618] = a0\n 20784: u64 [a1 + 0xf0] = a2\n 20788: a0 = u64 [s1 + 0x110]\n 20792: u64 [a5 + 0x620] = a0\n 20796: u64 [a1 + 0xf8] = a3\n 20800: a0 = s1 + 0x1720\n 20804: a1 = s1 + 0x1700\n 20808: u64 [a5 + 0x600] = a4\n 20812: ra = 780, jump @1335\n      : @752 [@dyn 390] (gas: 21)\n 20818: a1 = u64 [s1 + 0xd8]\n 20822: a0 = a1 + 0x2\n 20825: a1 = a0 <u a1\n 20828: a3 = u64 [s1 + 0xe0]\n 20832: a2 = a3 + a1\n 20835: a3 = a2 <u a3\n 20838: a3 = a1 if a1 == 0\n 20841: a1 = u64 [s1 + 0xf0]\n 20845: a3 = a3 + a1\n 20848: a1 = a3 <u a1\n 20851: a4 = u64 [s1 + 0xe8]\n 20855: a1 = a1 + a4\n 20858: a4 = s1 + 0x2918\n 20862: a5 = a4 + 0x600\n 20866: u64 [a5 + 0x80] = a1\n 20870: u64 [a5 + 0x78] = a3\n 20873: u64 [a5 + 0x70] = a2\n 20876: u64 [a5 + 0x68] = a0\n 20879: a0 = s1 + 0x16e0\n 20883: a1 = s1 + 0x2f80\n 20887: ra = 782, jump @26\n      : @753 [@dyn 391] (gas: 3)\n 20893: t0 = 0x310\n 20897: a1 = s1 + 0x1118\n 20901: fallthrough\n      : @754 [@dyn 392] (gas: 7)\n 20902: a0 = u64 [a1 + 0x5d0]\n 20906: u64 [s1 + 0x178] = a0\n 20910: a0 = u64 [a1 + 0x5c8]\n 20914: u64 [s1 + 0x170] = a0\n 20918: a0 = s1 + 0x16c0\n 20922: a1 = 0x40\n 20925: ra = 786, jump @22\n      : @755 [@dyn 393] (gas: 14)\n 20931: a4 = s1 + 0x1118\n 20935: t0 = u64 [a4 + 0x5c0]\n 20939: a1 = a4 + 0x500\n 20943: a3 = u64 [a1 + 0xb8]\n 20947: a5 = u64 [a1 + 0xb0]\n 20951: a0 = u64 [a1 + 0xa8]\n 20955: a2 = a5 | t0\n 20958: a1 = a0 | a3\n 20961: a1 = a1 | a2\n 20964: a1 = a1 >> 0x20\n 20967: a2 = a2 | a3\n 20970: a2 = a2 << 0x20\n 20973: a1 = a1 | a2\n 20976: jump @848 if a1 != 0\n      : @756 (gas: 13)\n 20980: a1 = u64 [s1 + 0xd0]\n 20984: a1 = a1 << 0x20\n 20987: u64 [s1 + 0x188] = a3\n 20991: a3 = a1 >> 0x20\n 20994: u64 [a4 + 1440] = 0\n 20998: u64 [a4 + 1432] = 0\n 21002: u64 [a4 + 1424] = 0\n 21006: a1 = s1 + 0x16a0\n 21010: u64 [a4 + 0x588] = a3\n 21014: u64 [s1 + 0x198] = a0\n 21018: u64 [s1 + 0x180] = t0\n 21022: u64 [s1 + 0x190] = a5\n 21026: ra = 788, jump @24\n      : @757 [@dyn 394] (gas: 6)\n 21032: a5 = s1 + 0x100\n 21036: a1 = u64 [a5 + 0x98]\n 21040: a0 = u64 [a5 + 0x88]\n 21044: a2 = u64 [a5 + 0x80]\n 21048: a3 = a0 | a2\n 21051: t0 = 790, jump @1565\n      : @758 [@dyn 395] (gas: 1)\n 21057: jump @848 if a0 == 0\n      : @759 (gas: 24)\n 21061: t0 = 0xffffffff\n 21071: a2 = u64 [s1 + 0xd0]\n 21075: a2 = a2 >> 0x20\n 21078: u64 [s1 + 0x160] = a4\n 21082: a4 = u64 [s1 + 0xc0]\n 21086: u64 [s1 + 0x168] = a3\n 21090: a3 = a4 << 0x20\n 21093: a2 = a2 | a3\n 21096: a3 = a4 >> 0x20\n 21099: a5 = u64 [s1 + 0xc8]\n 21103: a4 = a5 << 0x20\n 21106: a3 = a3 | a4\n 21109: a4 = a5 >> 0x20\n 21112: a3 = a3 & 0xffffffffffffffff\n 21115: a2 = a2 & 0xffffffffffffffff\n 21118: a4 = a4 & t0\n 21121: i32 a0 = a1 + 0x20\n 21124: a5 = s1 + 0x1118\n 21128: u64 [a5 + 1408] = 0\n 21132: u64 [a5 + 0x578] = a4\n 21136: u64 [a5 + 0x568] = a2\n 21140: a1 = s1 + 0x1680\n 21144: u64 [a5 + 0x570] = a3\n 21148: ra = 792, jump @24\n      : @760 [@dyn 396] (gas: 10)\n 21154: a3 = s1 + 0x100\n 21158: a1 = u64 [a3 + 0x98]\n 21162: a0 = u64 [a3 + 0x60]\n 21165: a0 = a0 + 0xffffffffffffffc0\n 21168: a0 = a1 <u a0\n 21171: a2 = u64 [a3 + 0x90]\n 21175: a0 = 0 if a2 != 0\n 21177: a2 = u64 [a3 + 0x68]\n 21180: a0 = 0 if a2 != 0\n 21182: jump @848 if a0 == 0\n      : @761 (gas: 8)\n 21186: i32 a0 = a1 + 0x40\n 21189: a2 = s1 + 0x1118\n 21193: u64 [a2 + 1376] = 0\n 21197: u64 [a2 + 1368] = 0\n 21201: u64 [a2 + 1352] = 0xa0\n 21207: a1 = s1 + 0x1660\n 21211: u64 [a2 + 1360] = 0\n 21215: ra = 794, jump @24\n      : @762 [@dyn 397] (gas: 3)\n 21221: a0 = s1 + 0x1640\n 21225: a1 = u64 [s1 + 0x108]\n 21229: ra = 796, jump @22\n      : @763 [@dyn 398] (gas: 10)\n 21235: a5 = s1 + 0x100\n 21239: a3 = u64 [a5 + 0x68]\n 21242: a1 = u64 [a5 + 0x98]\n 21246: a4 = 0x100000000\n 21256: a0 = 0xffffff60\n 21266: a0 = a1 <u a0\n 21269: a2 = u64 [a5 + 0x90]\n 21273: a0 = 0 if a2 != 0\n 21275: a0 = 0 if a3 != 0\n 21277: jump @848 if a0 == 0\n      : @764 (gas: 18)\n 21281: a0 = s1 + 0x1118\n 21285: u64 [s1 + 0x160] = a4\n 21289: a4 = a0\n 21291: t0 = u64 [a0 + 0x540]\n 21295: t1 = u64 [a0 + 0x538]\n 21299: a5 = u64 [a0 + 0x530]\n 21303: a2 = u64 [a0 + 0x528]\n 21307: i32 a0 = a1 + 0xa0\n 21311: u64 [s1 + 0x158] = a2\n 21315: u64 [a4 + 0x508] = a2\n 21319: u64 [s1 + 0x140] = a5\n 21323: u64 [a4 + 0x510] = a5\n 21327: u64 [s1 + 0x150] = t1\n 21331: u64 [a4 + 0x518] = t1\n 21335: a1 = s1 + 0x1620\n 21339: u64 [s1 + 0x148] = t0\n 21343: u64 [a4 + 0x520] = t0\n 21347: ra = 798, jump @24\n      : @765 [@dyn 399] (gas: 10)\n 21353: a4 = s1 + 0x100\n 21357: a3 = u64 [a4 + 0x90]\n 21361: a2 = u64 [a4 + 0x98]\n 21365: a0 = u64 [a4 + 0x60]\n 21368: a0 = a0 + 0xffffffffffffff40\n 21372: a0 = a2 <u a0\n 21375: a0 = 0 if a3 != 0\n 21377: a1 = u64 [a4 + 0x68]\n 21380: a0 = 0 if a1 != 0\n 21382: jump @848 if a0 == 0\n      : @766 (gas: 8)\n 21386: a0 = 0xffffffe0\n 21396: a1 = u64 [s1 + 0x108]\n 21400: a0 = a1 <u a0\n 21403: a1 = u64 [s1 + 0x100]\n 21407: a0 = 0 if a1 != 0\n 21409: a1 = u64 [s1 + 0xb8]\n 21413: a0 = 0 if a1 != 0\n 21415: jump @848 if a0 == 0\n      : @767 (gas: 12)\n 21419: a1 = u64 [s1 + 0x158]\n 21423: a5 = u64 [s1 + 0x150]\n 21427: a0 = a1 | a5\n 21430: t0 = u64 [s1 + 0x148]\n 21434: t1 = u64 [s1 + 0x140]\n 21438: a4 = t1 | t0\n 21441: a0 = a0 | a4\n 21444: a0 = a0 >> 0x20\n 21447: a4 = a4 | a5\n 21450: a4 = a4 << 0x20\n 21453: a0 = a0 | a4\n 21456: jump @848 if a0 != 0\n      : @768 (gas: 2)\n 21460: i32 a0 = a2 + 0xc0\n 21464: ra = 800, jump @37\n      : @769 [@dyn 400] (gas: 4)\n 21470: u64 [s1 + 0x168] = a0\n 21474: a0 = u64 [s1 + 0x138]\n 21478: a1 = u64 [s1 + 0x158]\n 21482: ra = 802, jump @37\n      : @770 [@dyn 401] (gas: 4)\n 21488: a1 = a0\n 21490: a0 = u64 [s1 + 0x168]\n 21494: a2 = u64 [s1 + 0x158]\n 21498: ra = 804, jump @0\n      : @771 [@dyn 402] (gas: 29)\n 21504: a1 = u64 [s1 + 0x158]\n 21508: a0 = u64 [s1 + 0x198]\n 21512: a0 = a0 + a1\n 21515: a2 = a0 <u a1\n 21518: a4 = u64 [s1 + 0x140]\n 21522: a1 = u64 [s1 + 0x190]\n 21526: a1 = a1 + a4\n 21529: a1 = a1 + a2\n 21532: a3 = a1 ^ a4\n 21535: a4 = a1 <u a4\n 21538: a4 = a2 if a3 == 0\n 21541: a2 = u64 [s1 + 0x180]\n 21545: a3 = u64 [s1 + 0x148]\n 21549: a2 = a2 + a3\n 21552: a3 = u64 [s1 + 0x188]\n 21556: a5 = u64 [s1 + 0x150]\n 21560: a3 = a3 + a5\n 21563: a4 = a4 + a3\n 21566: a5 = a3 <u a5\n 21569: a3 = a4 <u a3\n 21572: a2 = a2 + a5\n 21575: a2 = a2 + a3\n 21578: a2 = a2 | a4\n 21581: a3 = 0xffffff40\n 21591: u64 [s1 + 0x190] = a3\n 21595: a3 = a0 <u a3\n 21598: a3 = 0 if a1 != 0\n 21600: a3 = 0 if a2 != 0\n 21602: jump @848 if a3 == 0\n      : @772 (gas: 8)\n 21606: i32 a0 = a0 + 0xc0\n 21610: a2 = s1 + 0x1118\n 21614: u64 [a2 + 1280] = 0\n 21618: u64 [a2 + 1272] = 0\n 21622: u64 [a2 + 1264] = 0\n 21626: a1 = s1 + 0x1600\n 21630: u64 [a2 + 1256] = 0\n 21634: ra = 806, jump @24\n      : @773 [@dyn 403] (gas: 10)\n 21640: a0 = u64 [s1 + 0x198]\n 21644: i32 a0 = a0 + 0x60\n 21647: a2 = s1 + 0x1118\n 21651: u64 [a2 + 1248] = 0\n 21655: u64 [a2 + 1240] = 0\n 21659: a1 = u64 [s1 + 0x170]\n 21663: u64 [a2 + 0x4c8] = a1\n 21667: a1 = s1 + 0x15e0\n 21671: u64 [a2 + 1232] = 0\n 21675: ra = 808, jump @24\n      : @774 [@dyn 404] (gas: 11)\n 21681: a0 = u8 [s1 + 0x178]\n 21685: a1 = a0 >u 0\n 21687: a0 = u64 [s1 + 0x198]\n 21691: i32 a0 = a0 + 0x80\n 21695: a2 = s1 + 0x1118\n 21699: u64 [a2 + 1216] = 0\n 21703: u64 [a2 + 1208] = 0\n 21707: u64 [a2 + 0x4a8] = a1\n 21711: a1 = s1 + 0x15c0\n 21715: u64 [a2 + 1200] = 0\n 21719: ra = 810, jump @24\n      : @775 [@dyn 405] (gas: 6)\n 21725: a0 = u64 [s1 + 0x158]\n 21729: a0 = a0 + 0x1f\n 21732: a1 = 0x1ffffffe0\n 21742: a0 = a0 & a1\n 21745: a1 = u64 [s1 + 0x190]\n 21749: jump @848 if a0 >=u a1\n      : @776 (gas: 4)\n 21753: i32 a1 = a0 + 0xc0\n 21757: u64 [s1 + 0x190] = a1\n 21761: a0 = u64 [s1 + 0x198]\n 21765: ra = 812, jump @37\n      : @777 [@dyn 406] (gas: 5)\n 21771: i32 a1 = a0 + 0\n 21773: a0 = 0\n 21775: a2 = u64 [s1 + 0x190]\n 21779: ecalli 14 // 'seal_return'\n 21781: fallthrough\n      : @778 (gas: 9)\n 21782: a0 = u64 [s1 + 0x18]\n 21785: a0 = a0 ^ 0x1\n 21788: a1 = u64 [s1 + 0x40]\n 21791: a2 = u64 [s1 + 0x8]\n 21794: a0 = a2 if a1 != 0\n 21797: a1 = u64 [s1 + 0x10]\n 21800: a2 = u64 [s1 + 0x110]\n 21804: a0 = a1 if a2 != 0\n 21807: jump @787 if a0 == 0\n      : @779 (gas: 16)\n 21811: a0 = u64 [s1 + 0x80]\n 21815: a0 = a0 & 0xffffffffffffffe0\n 21818: u64 [s1 + 0x110] = a0\n 21822: a0 = s1 + 0x2118\n 21826: a1 = u64 [s1 + 0x150]\n 21830: a3 = a0 + 0x200\n 21834: u64 [a3 + 0x68] = a1\n 21837: a1 = u64 [s1 + 0x140]\n 21841: u64 [a3 + 0x70] = a1\n 21844: a1 = u64 [s1 + 0x138]\n 21848: u64 [a3 + 0x78] = a1\n 21851: a1 = s1 + 0x2380\n 21855: a2 = u64 [s1 + 0x148]\n 21859: u64 [a3 + 0x80] = a2\n 21863: a0 = 0\n 21865: ra = 814, jump @24\n      : @780 [@dyn 407] (gas: 7)\n 21871: a0 = sp + 0xffffffffffffffe0\n 21874: a0 = a0 & 0xffffffffffffffe0\n 21877: u64 [s1 + 0x170] = a0\n 21881: sp = a0\n 21883: a1 = 0x20\n 21886: a0 = 0\n 21888: ra = 816, jump @37\n      : @781 [@dyn 408] (gas: 34)\n 21894: a1 = sp + 0xffffffffffffffe0\n 21897: a1 = a1 & 0xffffffffffffffe0\n 21900: u64 [s1 + 0x168] = a1\n 21904: sp = a1\n 21906: i32 a0 = a0 + 0\n 21908: i32 a2 = a1 + 0\n 21910: a1 = 0x20\n 21913: ecalli 9 // 'hash_keccak_256'\n 21915: u64 [s1 + 408] = 0x20\n 21920: a5 = 0\n 21922: u64 [s1 + 400] = 0\n 21926: u64 [s1 + 392] = 0\n 21930: u64 [s1 + 376] = 0\n 21934: u64 [s1 + 384] = 0\n 21938: a3 = u64 [s1 + 0x168]\n 21942: a0 = u64 [a3 + 0x18]\n 21945: a1 = u64 [a3 + 0x10]\n 21948: a2 = u64 [a3 + 0x8]\n 21951: a3 = u64 [a3]\n 21953: t1 = reverse a0\n 21955: t2 = reverse a1\n 21957: ra = reverse a2\n 21959: a2 = 0\n 21961: a4 = u64 [s1 + 0x178]\n 21965: a0 = reverse a3\n 21967: a3 = 0\n 21969: t0 = a0\n 21971: a1 = u64 [s1 + 0x170]\n 21975: u64 [a1 + 0x18] = a0\n 21978: u64 [s1 + 0x150] = ra\n 21982: u64 [a1 + 0x10] = ra\n 21985: u64 [a1 + 0x8] = t2\n 21988: u64 [a1] = t1\n 21990: fallthrough\n      : @782 (gas: 24)\n 21991: u64 [s1 + 0x168] = t0\n 21995: a0 = u64 [s1 + 0x110]\n 21999: u64 [s1 + 0x178] = a4\n 22003: a0 = a4 <u a0\n 22006: a4 = a0 ^ 0x1\n 22009: u64 [s1 + 0x158] = a3\n 22013: a4 = 0x1 if a3 != 0\n 22016: u64 [s1 + 0x160] = a2\n 22020: a0 = u64 [s1 + 0x180]\n 22024: a0 = a0 | a2\n 22027: a4 = 0x1 if a0 != 0\n 22030: a1 = u64 [s1 + 0x118]\n 22034: a0 = u64 [s1 + 0x198]\n 22038: a1 = a1 + a0\n 22041: a3 = u64 [s1 + 0x130]\n 22045: a3 = a3 + a5\n 22048: a2 = u64 [s1 + 0x120]\n 22052: a0 = u64 [s1 + 0x190]\n 22056: a2 = a2 + a0\n 22059: a0 = u64 [s1 + 0x128]\n 22063: ra = a5\n 22065: a5 = u64 [s1 + 0x188]\n 22069: a0 = a0 + a5\n 22072: jump @789 if a4 != 0\n      : @783 (gas: 23)\n 22076: a4 = u64 [s1 + 0x198]\n 22080: a4 = a1 <u a4\n 22083: a3 = a3 + a4\n 22086: t0 = a3 ^ ra\n 22089: u64 [s1 + 0x138] = ra\n 22093: a5 = a3 <u ra\n 22096: a5 = a4 if t0 == 0\n 22099: a5 = a5 + a2\n 22102: t0 = a5 <u a2\n 22105: a4 = u64 [s1 + 0x190]\n 22109: a2 = a2 <u a4\n 22112: a0 = a0 + a2\n 22115: a0 = a0 + t0\n 22118: a2 = a1 | a5\n 22121: a0 = a0 | a3\n 22124: a2 = a2 | a0\n 22127: a2 = a2 >> 0x20\n 22130: a0 = a0 | a5\n 22133: a0 = a0 << 0x20\n 22136: a0 = a0 | a2\n 22139: u64 [s1 + 0x148] = t1\n 22143: u64 [s1 + 0x140] = t2\n 22147: jump @848 if a0 != 0\n      : @784 (gas: 2)\n 22151: a0 = s1 + 0x20e0\n 22155: ra = 818, jump @22\n      : @785 [@dyn 409] (gas: 14)\n 22161: a3 = s1 + 0x1918\n 22165: a4 = a3 + 0x700\n 22169: a0 = u64 [a4 + 0xe0]\n 22173: a1 = u64 [a4 + 0xd8]\n 22177: a2 = u64 [a4 + 0xd0]\n 22181: a3 = u64 [a4 + 0xc8]\n 22185: a4 = s1 + 0x3118\n 22189: u64 [a4 + 0xa0] = a0\n 22193: u64 [a4 + 0x98] = a1\n 22197: u64 [a4 + 0x90] = a2\n 22201: u64 [a4 + 0x88] = a3\n 22205: a1 = s1 + 0x31a0\n 22209: a0 = u64 [s1 + 0x170]\n 22213: ra = 820, jump @28\n      : @786 [@dyn 410] (gas: 53)\n 22219: t1 = u64 [s1 + 0x148]\n 22223: t1 = t1 + 0x1\n 22226: a0 = t1 <u 0x1\n 22229: t2 = u64 [s1 + 0x140]\n 22233: t2 = t2 + a0\n 22236: a0 = t1 | t2\n 22239: a0 = a0 <u 0x1\n 22242: a1 = u64 [s1 + 0x150]\n 22246: ra = a1 + a0\n 22249: a1 = ra <u a1\n 22252: a0 = u64 [s1 + 0x168]\n 22256: a0 = a0 + a1\n 22259: a1 = u64 [s1 + 0x198]\n 22263: a2 = a1 + 0x20\n 22266: u64 [s1 + 0x168] = a2\n 22270: a3 = a2 <u a1\n 22273: a1 = u64 [s1 + 0x138]\n 22277: a2 = a1 + a3\n 22280: u64 [s1 + 0x148] = a2\n 22284: a4 = a2 <u a1\n 22287: a4 = a3 if a3 == 0\n 22290: a1 = u64 [s1 + 0x190]\n 22294: a3 = a1 + a4\n 22297: a4 = a3 <u a1\n 22300: a1 = u64 [s1 + 0x188]\n 22304: a1 = a1 + a4\n 22307: u64 [s1 + 0x188] = a1\n 22311: a1 = u64 [s1 + 0x178]\n 22315: a4 = a1 + 0x20\n 22318: a5 = a4 <u a1\n 22321: a2 = u64 [s1 + 0x158]\n 22325: a1 = a2 + a5\n 22328: a2 = a1 <u a2\n 22331: a2 = a5 if a5 == 0\n 22334: a5 = u64 [s1 + 0x160]\n 22338: a2 = a2 + a5\n 22341: a5 = a2 <u a5\n 22344: t0 = u64 [s1 + 0x180]\n 22348: t0 = t0 + a5\n 22351: u64 [s1 + 0x180] = t0\n 22355: a5 = u64 [s1 + 0x170]\n 22359: u64 [a5 + 0x8] = t2\n 22362: u64 [a5] = t1\n 22364: u64 [a5 + 0x10] = ra\n 22367: t0 = a0\n 22369: u64 [a5 + 0x18] = a0\n 22372: u64 [s1 + 0x150] = ra\n 22376: a0 = u64 [s1 + 0x168]\n 22380: u64 [s1 + 0x198] = a0\n 22384: a5 = u64 [s1 + 0x148]\n 22388: u64 [s1 + 0x190] = a3\n 22392: a3 = a1\n 22394: jump @782\n      : @787 (gas: 8)\n 22397: a0 = u64 [s1 + 0x80]\n 22401: a1 = u64 [s1 + 0x30]\n 22404: a0 = a0 | a1\n 22407: a1 = u64 [s1 + 0x40]\n 22410: a2 = u64 [s1 + 0x28]\n 22413: a1 = a1 | a2\n 22416: a0 = a0 | a1\n 22419: jump @797 if a0 != 0\n      : @788 (gas: 5)\n 22423: u64 [s1 + 320] = 0\n 22427: u64 [s1 + 312] = 0\n 22431: u64 [s1 + 328] = 0\n 22435: u64 [s1 + 336] = 0\n 22439: jump @800\n      : @789 (gas: 12)\n 22442: t2 = u64 [s1 + 0x190]\n 22446: t1 = u64 [s1 + 0x198]\n 22450: a4 = u64 [s1 + 0x80]\n 22454: a5 = u64 [s1 + 0x110]\n 22458: a4 = a4 ^ a5\n 22461: a5 = u64 [s1 + 0x30]\n 22464: t0 = a4 | a5\n 22467: a5 = u64 [s1 + 0x40]\n 22470: a4 = u64 [s1 + 0x28]\n 22473: a5 = a5 | a4\n 22476: a4 = t0 | a5\n 22479: jump @796 if a4 == 0\n      : @790 (gas: 18)\n 22483: a4 = a1 <u t1\n 22486: a3 = a3 + a4\n 22489: t0 = a3 ^ ra\n 22492: a5 = a3 <u ra\n 22495: a5 = a4 if t0 == 0\n 22498: a5 = a5 + a2\n 22501: a4 = a5 <u a2\n 22504: a2 = a2 <u t2\n 22507: a0 = a0 + a2\n 22510: a0 = a0 + a4\n 22513: a2 = a1 | a5\n 22516: a0 = a0 | a3\n 22519: a2 = a2 | a0\n 22522: a2 = a2 >> 0x20\n 22525: a0 = a0 | a5\n 22528: a0 = a0 << 0x20\n 22531: a0 = a0 | a2\n 22534: jump @848 if a0 != 0\n      : @791 (gas: 2)\n 22538: a0 = s1 + 0x2360\n 22542: ra = 822, jump @22\n      : @792 [@dyn 411] (gas: 18)\n 22548: a0 = s1 + 0x2118\n 22552: a2 = a0 + 0x200\n 22556: a1 = u64 [a2 + 0x60]\n 22559: u64 [s1 + 0x190] = a1\n 22563: a1 = u64 [a2 + 0x58]\n 22566: u64 [s1 + 0x188] = a1\n 22570: a1 = u64 [a2 + 0x50]\n 22573: u64 [s1 + 0x180] = a1\n 22577: a0 = u64 [a2 + 0x48]\n 22580: u64 [s1 + 0x178] = a0\n 22584: a0 = u64 [s1 + 0x80]\n 22588: a0 = a0 << 0x3b\n 22591: a1 = a0 >> 0x38\n 22594: u64 [s1 + 0x198] = a1\n 22598: a2 = 0x80 - a1\n 22602: a0 = 0xffffffffffffffff\n 22605: a1 = 0xffffffffffffffff\n 22608: ra = 824, jump @1594\n      : @793 [@dyn 412] (gas: 6)\n 22614: u64 [s1 + 0x168] = a0\n 22618: u64 [s1 + 0x150] = a1\n 22622: a0 = 0xffffffffffffffff\n 22625: a1 = 0xffffffffffffffff\n 22628: a2 = u64 [s1 + 0x198]\n 22632: ra = 826, jump @1589\n      : @794 [@dyn 413] (gas: 10)\n 22638: u64 [s1 + 0x158] = a0\n 22642: u64 [s1 + 0x160] = a1\n 22646: a0 = u64 [s1 + 0x150]\n 22650: a0 = a0 | a1\n 22653: u64 [s1 + 0x150] = a0\n 22657: a0 = u64 [s1 + 0x198]\n 22661: a2 = a0 + 0xffffffffffffff80\n 22664: a0 = 0xffffffffffffffff\n 22667: a1 = 0xffffffffffffffff\n 22670: ra = 828, jump @1589\n      : @795 [@dyn 414] (gas: 29)\n 22676: a4 = u64 [s1 + 0x198]\n 22680: a2 = a4 <u 0x80\n 22684: a3 = u64 [s1 + 0x150]\n 22688: a1 = a3 if a2 != 0\n 22691: a5 = u64 [s1 + 0x158]\n 22695: a3 = u64 [s1 + 0x168]\n 22699: a3 = a3 | a5\n 22702: a3 = a0 if a2 == 0\n 22705: a1 = 0xffffffffffffffff if a4 == 0\n 22708: a3 = 0xffffffffffffffff if a4 == 0\n 22711: a4 = u64 [s1 + 0x160]\n 22715: a4 = 0 if a2 == 0\n 22717: a5 = 0 if a2 == 0\n 22719: a0 = u64 [s1 + 0x178]\n 22723: a0 = a0 & ~a3\n 22726: a2 = u64 [s1 + 0x180]\n 22730: a1 = a2 & ~a1\n 22733: a2 = u64 [s1 + 0x188]\n 22737: a2 = a2 & ~a5\n 22740: a3 = u64 [s1 + 0x190]\n 22744: a3 = a3 & ~a4\n 22747: a4 = s1 + 0x3118\n 22751: u64 [a4 + 0xc0] = a3\n 22755: u64 [a4 + 0xb8] = a2\n 22759: u64 [a4 + 0xb0] = a1\n 22763: u64 [a4 + 0xa8] = a0\n 22767: a1 = s1 + 0x31c0\n 22771: a0 = u64 [s1 + 0x170]\n 22775: ra = 830, jump @28\n      : @796 [@dyn 415] (gas: 22)\n 22781: a2 = u64 [s1 + 0x30]\n 22784: a0 = a2 >> 0x3f\n 22787: a1 = u64 [s1 + 0x28]\n 22790: a1 = a1 << 0x1\n 22793: a0 = a0 | a1\n 22796: a3 = u64 [s1 + 0x40]\n 22799: a1 = a3 >> 0x3f\n 22802: a2 = a2 << 0x1\n 22805: a1 = a1 | a2\n 22808: a4 = u64 [s1 + 0x80]\n 22812: a2 = a4 >> 0x3f\n 22815: a3 = a3 << 0x1\n 22818: a2 = a2 | a3\n 22821: a3 = a4 << 0x1\n 22824: a3 = a3 + 0x1\n 22827: a4 = s1 + 0x3118\n 22831: u64 [a4 + 0xc8] = a3\n 22835: u64 [a4 + 0xd0] = a2\n 22839: u64 [a4 + 0xd8] = a1\n 22843: u64 [a4 + 0xe0] = a0\n 22847: a0 = 0x31e0\n 22851: jump @804\n      : @797 (gas: 11)\n 22854: a3 = s1 + 0x100\n 22858: a0 = u64 [a3 + 0x28]\n 22861: a1 = u64 [a3 + 0x20]\n 22864: a0 = a0 | a1\n 22867: a1 = 0xffffffe0\n 22877: a2 = u64 [a3 + 0x18]\n 22880: a1 = a2 <u a1\n 22883: a2 = u64 [a3 + 0x30]\n 22886: a1 = 0 if a2 != 0\n 22888: a1 = 0 if a0 != 0\n 22890: jump @848 if a1 == 0\n      : @798 (gas: 4)\n 22894: a0 = u64 [s1 + 0x118]\n 22898: i32 a1 = a0 + 0x20\n 22901: a0 = s1 + 0x23a0\n 22905: ra = 832, jump @22\n      : @799 [@dyn 416] (gas: 12)\n 22911: a0 = s1 + 0x2118\n 22915: a2 = a0 + 0x200\n 22919: a1 = u64 [a2 + 0xa0]\n 22923: a3 = s1 + 0x100\n 22927: u64 [a3 + 0x50] = a1\n 22930: a1 = u64 [a2 + 0x98]\n 22934: u64 [a3 + 0x48] = a1\n 22937: a1 = u64 [a2 + 0x90]\n 22941: u64 [a3 + 0x38] = a1\n 22944: a0 = u64 [a2 + 0x88]\n 22948: u64 [a3 + 0x40] = a0\n 22951: fallthrough\n      : @800 (gas: 24)\n 22952: a2 = u64 [s1 + 0x40]\n 22955: a0 = a2 >> 0x3f\n 22958: a3 = u64 [s1 + 0x30]\n 22961: a1 = a3 << 0x1\n 22964: a0 = a0 | a1\n 22967: u64 [s1 + 0x190] = a0\n 22971: a0 = a3 >> 0x3f\n 22974: a1 = u64 [s1 + 0x28]\n 22977: a1 = a1 << 0x1\n 22980: a0 = a0 | a1\n 22983: u64 [s1 + 0x188] = a0\n 22987: a3 = u64 [s1 + 0x80]\n 22991: a0 = a3 >> 0x3f\n 22994: a1 = a2 << 0x1\n 22997: a0 = a0 | a1\n 23000: u64 [s1 + 0x180] = a0\n 23004: a0 = a3 << 0x1\n 23007: u64 [s1 + 0x178] = a0\n 23011: a1 = a3 << 0x3\n 23014: u64 [s1 + 0x198] = a1\n 23018: i32 a2 = 0x80 - a1\n 23022: a0 = 0xffffffffffffffff\n 23025: a1 = 0xffffffffffffffff\n 23028: ra = 834, jump @1594\n      : @801 [@dyn 417] (gas: 7)\n 23034: u64 [s1 + 0x158] = a0\n 23038: u64 [s1 + 0x170] = a1\n 23042: a0 = u64 [s1 + 0x80]\n 23046: i32 a2 = a0 << 0x3\n 23049: a0 = 0xffffffffffffffff\n 23052: a1 = 0xffffffffffffffff\n 23055: ra = 836, jump @1589\n      : @802 [@dyn 418] (gas: 10)\n 23061: u64 [s1 + 0x168] = a0\n 23065: u64 [s1 + 0x160] = a1\n 23069: a1 = u64 [s1 + 0x158]\n 23073: a0 = a0 | a1\n 23076: u64 [s1 + 0x158] = a0\n 23080: a0 = u64 [s1 + 0x198]\n 23084: i32 a2 = a0 + 0xffffffffffffff80\n 23087: a0 = 0xffffffffffffffff\n 23090: a1 = 0xffffffffffffffff\n 23093: ra = 838, jump @1589\n      : @803 [@dyn 419] (gas: 37)\n 23099: a4 = u64 [s1 + 0x198]\n 23103: a2 = a4 <u 0x80\n 23107: a3 = u64 [s1 + 0x158]\n 23111: a0 = a3 if a2 != 0\n 23114: a5 = u64 [s1 + 0x160]\n 23118: a3 = u64 [s1 + 0x170]\n 23122: a3 = a3 | a5\n 23125: a3 = a1 if a2 == 0\n 23128: a0 = 0xffffffffffffffff if a4 == 0\n 23131: a3 = 0xffffffffffffffff if a4 == 0\n 23134: a5 = 0 if a2 == 0\n 23136: a4 = u64 [s1 + 0x168]\n 23140: a4 = 0 if a2 == 0\n 23142: a1 = u64 [s1 + 0x138]\n 23146: a1 = a1 & ~a3\n 23149: a2 = u64 [s1 + 0x140]\n 23153: a0 = a2 & ~a0\n 23156: a2 = u64 [s1 + 0x148]\n 23160: a2 = a2 & ~a4\n 23163: a3 = u64 [s1 + 0x150]\n 23167: a3 = a3 & ~a5\n 23170: a5 = s1 + 0x100\n 23174: a4 = u64 [a5 + 0x78]\n 23177: a0 = a0 | a4\n 23180: a4 = u64 [a5 + 0x80]\n 23184: a1 = a1 | a4\n 23187: a4 = u64 [a5 + 0x88]\n 23191: a3 = a3 | a4\n 23194: a4 = u64 [a5 + 0x90]\n 23198: a2 = a2 | a4\n 23201: a4 = s1 + 0x3118\n 23205: u64 [a4 + 0xf8] = a2\n 23209: u64 [a4 + 0x100] = a3\n 23213: u64 [a4 + 0xf0] = a1\n 23217: u64 [a4 + 0xe8] = a0\n 23221: a0 = 0x3200\n 23225: fallthrough\n      : @804 (gas: 3)\n 23226: a1 = s1 + a0\n 23229: a0 = u64 [s1 + 0x38]\n 23232: ra = 840, jump @28\n      : @805 [@dyn 420] (gas: 23)\n 23238: a0 = sp + 0xffffffffffffffe0\n 23241: a5 = a0 & 0xffffffffffffffe0\n 23244: sp = a5\n 23246: a1 = u64 [s1 + 0x48]\n 23249: a0 = a1 + 0x2\n 23252: a1 = a0 <u a1\n 23255: a3 = u64 [s1 + 0x50]\n 23258: a2 = a3 + a1\n 23261: a3 = a2 <u a3\n 23264: a3 = a1 if a1 == 0\n 23267: a1 = u64 [s1 + 0x60]\n 23270: a3 = a3 + a1\n 23273: a1 = a3 <u a1\n 23276: a4 = u64 [s1 + 0x58]\n 23279: a1 = a1 + a4\n 23282: u64 [s1 + 0x198] = a5\n 23286: u64 [a5 + 0x10] = a3\n 23289: u64 [a5 + 0x8] = a2\n 23292: u64 [a5] = a0\n 23294: u64 [a5 + 0x18] = a1\n 23297: a0 = s1 + 0x2340\n 23301: a1 = u64 [s1 + 0x68]\n 23304: ra = 842, jump @22\n      : @806 [@dyn 421] (gas: 7)\n 23310: a0 = s1 + 0x2118\n 23314: a0 = u64 [a0 + 0x228]\n 23318: a0 = a0 & 0xffffffffffffffff\n 23321: u64 [s1 + 0x190] = a0\n 23325: a0 = s1 + 0x2320\n 23329: a1 = u64 [s1 + 0x198]\n 23333: ra = 844, jump @26\n      : @807 [@dyn 422] (gas: 15)\n 23339: a2 = s1 + 0x2118\n 23343: a3 = a2 + 0x200\n 23347: a0 = u64 [a3 + 0x20]\n 23350: a1 = u64 [a3 + 0x18]\n 23353: a2 = u64 [a3 + 0x10]\n 23356: a3 = s1 + 0x3118\n 23360: a4 = u64 [s1 + 0x190]\n 23364: a5 = a3 + 0x100\n 23368: u64 [a5 + 0x8] = a4\n 23371: u64 [a5 + 0x20] = a0\n 23374: u64 [a5 + 0x18] = a1\n 23377: u64 [a5 + 0x10] = a2\n 23380: a1 = s1 + 0x3220\n 23384: a0 = u64 [s1 + 0x198]\n 23388: ra = 846, jump @28\n      : @808 [@dyn 423] (gas: 3)\n 23394: a0 = s1 + 0x2300\n 23398: a1 = u64 [s1 + 0x20]\n 23401: ra = 848, jump @22\n      : @809 [@dyn 424] (gas: 14)\n 23407: a3 = s1 + 0x2118\n 23411: a0 = u64 [a3 + 0x200]\n 23415: a4 = a3 + 0x100\n 23419: a1 = u64 [a4 + 0xf0]\n 23423: a2 = u64 [a4 + 0xf8]\n 23427: a3 = u64 [a4 + 0xe8]\n 23431: a0 = a0 | a1\n 23434: a2 = a2 | a3\n 23437: a0 = a0 | a2\n 23440: a0 = a0 >u 0\n 23442: u64 [s1 + 0x190] = a0\n 23446: a0 = s1 + 0x22e0\n 23450: a1 = u64 [s1 + 0x198]\n 23454: ra = 850, jump @26\n      : @810 [@dyn 425] (gas: 2)\n 23460: a0 = 0x2000\n 23464: t0 = 852, jump @1581\n      : @811 [@dyn 426] (gas: 16)\n 23470: a0 = u64 [a4 + 0xd0]\n 23474: a1 = u64 [a4 + 0xc8]\n 23478: a2 = u64 [a4 + 0xe0]\n 23482: a3 = u64 [a4 + 0xd8]\n 23486: a0 = a0 & 0xffffffffffffff00\n 23490: a4 = u64 [s1 + 0x190]\n 23494: a0 = a0 | a4\n 23497: a4 = s1 + 0x3118\n 23501: a5 = a4 + 0x100\n 23505: u64 [a5 + 0x40] = a2\n 23508: u64 [a5 + 0x38] = a3\n 23511: u64 [a5 + 0x28] = a1\n 23514: u64 [a5 + 0x30] = a0\n 23517: a1 = s1 + 0x3240\n 23521: a0 = u64 [s1 + 0x198]\n 23525: ra = 854, jump @28\n      : @812 [@dyn 427] (gas: 5)\n 23531: a0 = u64 [s1 + 0xc0]\n 23535: ra = 0x358\n 23539: ecalli 5 // 'caller'\n 23541: t0 = 0x35a\n 23545: jump @1511\n      : @813 [@dyn 428] (gas: 1)\n 23548: t0 = 858, jump @1511\n      : @814 [@dyn 429] (gas: 8)\n 23554: u64 [a2 + 448] = 0\n 23558: a4 = a2 + 0x100\n 23562: u64 [a4 + 0xb8] = a1\n 23566: u64 [a4 + 0xb0] = a0\n 23570: a1 = s1 + 0x22c0\n 23574: u64 [a4 + 0xa8] = a3\n 23578: a0 = 0\n 23580: ra = 860, jump @24\n      : @815 [@dyn 430] (gas: 3)\n 23586: t0 = 0x35e\n 23590: a1 = s1 + 0x2118\n 23594: fallthrough\n      : @816 [@dyn 431] (gas: 8)\n 23595: u64 [a1 + 416] = 0\n 23599: u64 [a1 + 408] = 0\n 23603: u64 [a1 + 392] = 0x1\n 23608: a2 = a1\n 23610: a0 = 0x20\n 23613: a1 = s1 + 0x22a0\n 23617: u64 [a2 + 400] = 0\n 23621: ra = 864, jump @24\n      : @817 [@dyn 432] (gas: 1)\n 23627: t0 = 866, jump @1558\n      : @818 [@dyn 433] (gas: 3)\n 23633: a0 = u64 [s1 + 0xa8]\n 23637: a0 = i32 [a0]\n 23639: jump @820 if a0 >u 63\n      : @819 (gas: 3)\n 23643: a1 = u64 [s1 + 0xa8]\n 23647: u32 [a1 + 0] = 0x40\n 23650: fallthrough\n      : @820 (gas: 11)\n 23651: a0 = sp + 0xffffffffffffffe0\n 23654: a0 = a0 & 0xffffffffffffffe0\n 23657: u64 [s1 + 0x190] = a0\n 23661: sp = a0\n 23663: i32 a2 = a0 + 0\n 23665: a1 = 0x40\n 23668: a0 = u64 [s1 + 0xa0]\n 23672: ra = 0x364\n 23676: ecalli 9 // 'hash_keccak_256'\n 23678: t0 = 0x366\n 23682: jump @1546\n      : @821 [@dyn 434] (gas: 1)\n 23685: t0 = 870, jump @1546\n      : @822 [@dyn 435] (gas: 2)\n 23691: a4 = a3 + 0x3\n 23694: t0 = 872, jump @1516\n      : @823 [@dyn 436] (gas: 7)\n 23700: a1 = u64 [s1 + 0x198]\n 23704: u64 [a1] = a4\n 23706: u64 [a1 + 0x8] = a5\n 23709: u64 [a1 + 0x10] = a2\n 23712: u64 [a1 + 0x18] = a0\n 23715: a0 = s1 + 0x2280\n 23719: ra = 874, jump @26\n      : @824 [@dyn 437] (gas: 3)\n 23725: t0 = 0x36c\n 23729: a2 = s1 + 0x2118\n 23733: fallthrough\n      : @825 [@dyn 438] (gas: 10)\n 23734: a0 = u64 [a2 + 0x168]\n 23738: a1 = u64 [s1 + 0x70]\n 23741: a0 = a0 & a1\n 23744: u64 [a2 + 320] = 0\n 23748: u64 [a2 + 312] = 0\n 23752: u64 [a2 + 0x128] = a0\n 23756: a0 = s1 + 0x2260\n 23760: a1 = s1 + 0x2240\n 23764: u64 [a2 + 304] = 0\n 23768: ra = 878, jump @1384\n      : @826 [@dyn 439] (gas: 13)\n 23774: a0 = s1 + 0x2118\n 23778: a2 = a0 + 0x100\n 23782: a1 = u64 [a2 + 0x60]\n 23785: u64 [s1 + 0x190] = a1\n 23789: a1 = u64 [a2 + 0x58]\n 23792: u64 [s1 + 0x188] = a1\n 23796: a1 = u64 [a2 + 0x50]\n 23799: u64 [s1 + 0x180] = a1\n 23803: a1 = u64 [a2 + 0x48]\n 23806: u64 [s1 + 0x178] = a1\n 23810: a0 = s1 + 0x2220\n 23814: a1 = u64 [s1 + 0x198]\n 23818: ra = 880, jump @26\n      : @827 [@dyn 440] (gas: 2)\n 23824: a0 = 0x2000\n 23828: t0 = 882, jump @1581\n      : @828 [@dyn 441] (gas: 26)\n 23834: a0 = u64 [a4 + 0x20]\n 23837: a1 = u64 [a4 + 0x18]\n 23840: a2 = u64 [a4 + 0x10]\n 23843: a3 = u64 [a4 + 0x8]\n 23846: a0 = a0 & 0xffffffffffffffff\n 23849: a1 = a1 & 0xffffffffffffffff\n 23852: a2 = a2 & 0xffffffffffffffff\n 23855: a4 = u64 [s1 + 0x78]\n 23858: a3 = a3 & a4\n 23861: a4 = u64 [s1 + 0x178]\n 23865: a3 = a3 | a4\n 23868: a4 = u64 [s1 + 0x180]\n 23872: a2 = a2 | a4\n 23875: a4 = u64 [s1 + 0x188]\n 23879: a1 = a1 | a4\n 23882: a4 = u64 [s1 + 0x190]\n 23886: a0 = a0 | a4\n 23889: a4 = s1 + 0x3118\n 23893: a5 = a4 + 0x100\n 23897: u64 [a5 + 0x60] = a0\n 23900: u64 [a5 + 0x58] = a1\n 23903: u64 [a5 + 0x50] = a2\n 23906: u64 [a5 + 0x48] = a3\n 23909: a1 = s1 + 0x3260\n 23913: a0 = u64 [s1 + 0x198]\n 23917: ra = 884, jump @28\n      : @829 [@dyn 442] (gas: 3)\n 23923: a0 = s1 + 0x2200\n 23927: a1 = 0x40\n 23930: ra = 886, jump @22\n      : @830 [@dyn 443] (gas: 2)\n 23936: a1 = s1 + 0x2118\n 23940: fallthrough\n      : @831 (gas: 17)\n 23941: a0 = u64 [a1 + 0x100]\n 23945: a2 = u64 [a1 + 0xf8]\n 23949: a3 = u64 [a1 + 0xf0]\n 23953: a1 = u64 [a1 + 0xe8]\n 23957: a4 = s1 + 0x100\n 23961: u64 [a4 + 0x80] = a0\n 23965: u64 [a4 + 0x90] = a3\n 23969: a0 = a0 | a3\n 23972: u64 [a4 + 0x98] = a1\n 23976: a1 = a1 | a2\n 23979: a1 = a1 | a0\n 23982: a1 = a1 >> 0x20\n 23985: u64 [a4 + 0x88] = a2\n 23989: a0 = a0 | a2\n 23992: a0 = a0 << 0x20\n 23995: a0 = a0 | a1\n 23998: jump @848 if a0 != 0\n      : @832 (gas: 3)\n 24002: t0 = 0x378\n 24006: a2 = s1 + 0x2118\n 24010: fallthrough\n      : @833 [@dyn 444] (gas: 7)\n 24011: u64 [a2 + 224] = 0\n 24015: u64 [a2 + 216] = 0\n 24019: u64 [a2 + 208] = 0\n 24023: a1 = s1 + 0x21e0\n 24027: u64 [a2 + 200] = 0x20\n 24032: a0 = u64 [s1 + 0x198]\n 24036: ra = 890, jump @24\n      : @834 [@dyn 445] (gas: 14)\n 24042: a3 = s1 + 0x100\n 24046: a0 = u64 [a3 + 0x88]\n 24050: a1 = u64 [a3 + 0x80]\n 24054: a2 = a0 | a1\n 24057: a0 = 0x100000000\n 24067: u64 [a3 + 0x78] = a0\n 24070: a0 = 0xffffffe0\n 24080: a1 = u64 [a3 + 0x98]\n 24084: a0 = a1 <u a0\n 24087: a1 = u64 [a3 + 0x90]\n 24091: a0 = 0 if a1 != 0\n 24093: u64 [a3 + 0x70] = a2\n 24096: a0 = 0 if a2 != 0\n 24098: jump @848 if a0 == 0\n      : @835 (gas: 13)\n 24102: a0 = u64 [s1 + 0x198]\n 24106: i32 a0 = a0 + 0x20\n 24109: a2 = s1 + 0x2118\n 24113: a1 = u64 [s1 + 0xb8]\n 24117: u64 [a2 + 0xa8] = a1\n 24121: a1 = u64 [s1 + 0xe0]\n 24125: u64 [a2 + 0xb0] = a1\n 24129: a1 = u64 [s1 + 0xe8]\n 24133: u64 [a2 + 0xb8] = a1\n 24137: a1 = s1 + 0x21c0\n 24141: a3 = u64 [s1 + 0xb0]\n 24145: u64 [a2 + 0xc0] = a3\n 24149: ra = 892, jump @24\n      : @836 [@dyn 446] (gas: 9)\n 24155: a0 = u64 [s1 + 0x178]\n 24159: a0 = a0 + 0xffffffffffffffdc\n 24162: a1 = u64 [s1 + 0xc8]\n 24166: a0 = a1 <u a0\n 24169: a1 = u64 [s1 + 0xd0]\n 24173: a0 = 0 if a1 != 0\n 24175: a1 = u64 [s1 + 0x98]\n 24179: a0 = 0 if a1 != 0\n 24181: jump @848 if a0 == 0\n      : @837 (gas: 10)\n 24185: a1 = 0xffffffc0\n 24195: a2 = s1 + 0x100\n 24199: a0 = u64 [a2 + 0x98]\n 24203: u64 [a2 + 0x78] = a1\n 24206: a0 = a0 <u a1\n 24209: a1 = u64 [a2 + 0x90]\n 24213: a0 = 0 if a1 != 0\n 24215: a1 = u64 [a2 + 0x70]\n 24218: a0 = 0 if a1 != 0\n 24220: jump @848 if a0 == 0\n      : @838 (gas: 4)\n 24224: a0 = u64 [s1 + 0x198]\n 24228: i32 a0 = a0 + 0x40\n 24231: a1 = u64 [s1 + 0x90]\n 24235: ra = 894, jump @37\n      : @839 [@dyn 447] (gas: 5)\n 24241: i32 a0 = a0 + 0\n 24243: a1 = u64 [s1 + 0x90]\n 24247: a2 = u64 [s1 + 0x88]\n 24251: ecalli 2 // 'call_data_copy'\n 24253: fallthrough\n      : @840 (gas: 28)\n 24254: a1 = u64 [s1 + 0xb8]\n 24258: a0 = u64 [s1 + 0x198]\n 24262: a0 = a0 + a1\n 24265: a1 = a0 <u a1\n 24268: a4 = u64 [s1 + 0xe0]\n 24272: a2 = u64 [s1 + 0x190]\n 24276: a2 = a2 + a4\n 24279: a2 = a2 + a1\n 24282: a3 = a2 ^ a4\n 24285: a4 = a2 <u a4\n 24288: a4 = a1 if a3 == 0\n 24291: a1 = u64 [s1 + 0xb0]\n 24295: a3 = u64 [s1 + 0x180]\n 24299: a1 = a1 + a3\n 24302: a5 = u64 [s1 + 0xe8]\n 24306: a3 = u64 [s1 + 0x188]\n 24310: a3 = a3 + a5\n 24313: a5 = a3 <u a5\n 24316: a1 = a1 + a5\n 24319: a4 = a4 + a3\n 24322: a3 = a4 <u a3\n 24325: a1 = a1 + a3\n 24328: a1 = a1 | a4\n 24331: a3 = u64 [s1 + 0x178]\n 24335: a3 = a0 <u a3\n 24338: a3 = 0 if a2 != 0\n 24340: a3 = 0 if a1 != 0\n 24342: jump @848 if a3 == 0\n      : @841 (gas: 8)\n 24346: i32 a0 = a0 + 0x40\n 24349: a2 = s1 + 0x2118\n 24353: u64 [a2 + 160] = 0\n 24357: u64 [a2 + 152] = 0\n 24361: u64 [a2 + 144] = 0\n 24365: a1 = s1 + 0x21a0\n 24369: u64 [a2 + 136] = 0\n 24373: ra = 896, jump @24\n      : @842 [@dyn 448] (gas: 6)\n 24379: a0 = u64 [s1 + 0xc0]\n 24383: ra = 0x382\n 24387: ecalli 5 // 'caller'\n 24389: a2 = u64 [s1 + 0xd8]\n 24393: t0 = 0x384\n 24397: jump @1509\n      : @843 [@dyn 449] (gas: 2)\n 24400: a2 = u64 [s1 + 0xd8]\n 24404: t0 = 900, jump @1509\n      : @844 [@dyn 450] (gas: 38)\n 24410: t0 = a1 | a0\n 24413: a3 = a3 >> 0x20\n 24416: a1 = reverse a2\n 24418: a2 = a1 << 0x20\n 24421: t1 = a2 | a3\n 24424: t2 = a1 >> 0x20\n 24427: a1 = u64 [s1 + 0xb8]\n 24431: a1 = a1 + 0x1f\n 24434: a1 = a1 & 0xe0\n 24438: a1 = a1 + 0x40\n 24441: a4 = u64 [0x20020]\n 24446: a5 = u64 [0x20028]\n 24451: a0 = u64 [0x20030]\n 24456: a2 = u64 [0x20038]\n 24461: a3 = s1 + 0x2118\n 24465: u64 [a3 + 0x80] = a4\n 24469: u64 [a3 + 0x78] = a5\n 24472: u64 [a3 + 0x70] = a0\n 24475: u64 [a3 + 0x68] = a2\n 24478: a5 = s1 + 0x100\n 24482: a0 = u64 [a5 + 0x8]\n 24485: u64 [a3 + 0x40] = a0\n 24488: a0 = u64 [a5]\n 24490: u64 [a3 + 0x38] = a0\n 24493: a0 = u64 [s1 + 0xf8]\n 24497: u64 [a3 + 0x30] = a0\n 24500: a0 = u64 [s1 + 0xf0]\n 24504: u64 [a3 + 0x28] = a0\n 24507: u64 [a3 + 0x58] = t2\n 24510: u64 [a3 + 0x50] = t1\n 24513: u64 [a3 + 0x48] = t0\n 24516: a0 = a3\n 24518: a2 = s1 + 0x2180\n 24522: a3 = s1 + 0x2160\n 24526: a4 = s1 + 0x2140\n 24530: u64 [a0 + 96] = 0\n 24533: a0 = u64 [a5 + 0x98]\n 24537: ra = 902, jump @31\n      : @845 [@dyn 451] (gas: 3)\n 24543: a0 = s1 + 0x2120\n 24547: a1 = 0x40\n 24550: ra = 904, jump @22\n      : @846 [@dyn 452] (gas: 6)\n 24556: a3 = s1 + 0x2118\n 24560: a0 = u64 [a3 + 0x20]\n 24563: a1 = u64 [a3 + 0x18]\n 24566: a2 = u64 [a3 + 0x10]\n 24569: a4 = u64 [a3 + 0x8]\n 24572: t0 = 906, jump @1543\n      : @847 [@dyn 453] (gas: 1)\n 24578: jump @966 if a0 == 0\n      : @848 (gas: 1)\n 24582: trap\n      : @849 (gas: 12)\n 24583: a0 = s1 + 0x7ff\n 24587: a0 = a0 + 0x119\n 24591: u64 [a0 + 1304] = 0\n 24595: u64 [a0 + 1296] = 0\n 24599: u64 [a0 + 1288] = 0\n 24603: a2 = a0\n 24605: a0 = 0x4e487b7100000000\n 24615: a1 = s1 + 0x7ff\n 24619: a1 = a1 + 0x621\n 24623: u64 [a2 + 0x520] = a0\n 24627: a0 = 0\n 24629: ra = 908, jump @24\n      : @850 [@dyn 454] (gas: 11)\n 24635: a1 = s1 + 0x7ff\n 24639: a1 = a1 + 0x119\n 24643: u64 [a1 + 1280] = 0\n 24647: u64 [a1 + 1272] = 0\n 24651: u64 [a1 + 1256] = 0x11\n 24656: a2 = a1\n 24658: a0 = 0x4\n 24661: a1 = s1 + 0x7ff\n 24665: a1 = a1 + 0x601\n 24669: u64 [a2 + 1264] = 0\n 24673: ra = 910, jump @24\n      : @851 [@dyn 455] (gas: 3)\n 24679: a0 = u64 [s1 + 0x170]\n 24683: a0 = i32 [a0]\n 24685: jump @853 if a0 >u 63\n      : @852 (gas: 3)\n 24689: a1 = u64 [s1 + 0x170]\n 24693: u32 [a1 + 0] = 0x40\n 24696: fallthrough\n      : @853 (gas: 5)\n 24697: a0 = 0x1\n 24700: a2 = 0x24\n 24703: a1 = u64 [s1 + 0x178]\n 24707: ecalli 14 // 'seal_return'\n 24709: fallthrough\n      : @854 (gas: 4)\n 24710: a1 = 0x20190\n 24715: i32 a1 = a1 + 0\n 24717: a0 = 0x1\n 24720: jump @1040\n      : @855 (gas: 4)\n 24723: a1 = 0x20190\n 24728: i32 a1 = a1 + 0\n 24730: a0 = 0x1\n 24733: jump @1040\n      : @856 (gas: 4)\n 24736: a1 = 0x20190\n 24741: i32 a1 = a1 + 0\n 24743: a0 = 0x1\n 24746: jump @1040\n      : @857 (gas: 4)\n 24749: a1 = 0x20190\n 24754: i32 a1 = a1 + 0\n 24756: a0 = 0x1\n 24759: jump @1040\n      : @858 (gas: 4)\n 24762: a1 = 0x20190\n 24767: i32 a1 = a1 + 0\n 24769: a0 = 0x1\n 24772: jump @1040\n      : @859 (gas: 4)\n 24775: a1 = 0x20190\n 24780: i32 a1 = a1 + 0\n 24782: a0 = 0x1\n 24785: jump @1040\n      : @860 (gas: 9)\n 24788: a2 = s1 + 0x1118\n 24792: u64 [a2 + 696] = 0\n 24796: u64 [a2 + 688] = 0\n 24800: a0 = 0x2c5211c600000000\n 24810: u64 [a2 + 0x2c0] = a0\n 24814: a1 = s1 + 0x13c0\n 24818: u64 [a2 + 680] = 0\n 24822: a0 = 0\n 24824: ra = 912, jump @24\n      : @861 [@dyn 456] (gas: 2)\n 24830: a1 = i32 [0x20180]\n 24835: jump @863 if a1 >u 31\n      : @862 (gas: 3)\n 24839: u32 [0x20180] = 0x20\n 24845: a1 = 0x20190\n 24850: jump @937\n      : @863 (gas: 2)\n 24853: a1 = 0x20190\n 24858: jump @937\n      : @864 (gas: 8)\n 24861: u64 [a4 + 728] = 0\n 24865: u64 [a4 + 720] = 0\n 24869: a0 = 0xf4d678b800000000\n 24879: u64 [a4 + 0x2e0] = a0\n 24883: a1 = s1 + 0x13e0\n 24887: u64 [a4 + 712] = 0\n 24891: a0 = 0\n 24893: ra = 914, jump @24\n      : @865 [@dyn 457] (gas: 3)\n 24899: a0 = u64 [s1 + 0x148]\n 24903: a0 = i32 [a0]\n 24905: jump @867 if a0 >u 31\n      : @866 (gas: 3)\n 24909: a1 = u64 [s1 + 0x148]\n 24913: u32 [a1 + 0] = 0x20\n 24916: fallthrough\n      : @867 (gas: 5)\n 24917: a0 = 0x1\n 24920: a2 = 0x4\n 24923: a1 = u64 [s1 + 0x158]\n 24927: ecalli 14 // 'seal_return'\n 24929: fallthrough\n      : @868 (gas: 4)\n 24930: a1 = 0x20190\n 24935: i32 a1 = a1 + 0\n 24937: a0 = 0x1\n 24940: jump @1040\n      : @869 (gas: 4)\n 24943: a1 = 0x20190\n 24948: i32 a1 = a1 + 0\n 24950: a0 = 0x1\n 24953: jump @1040\n      : @870 (gas: 4)\n 24956: a1 = 0x20190\n 24961: i32 a1 = a1 + 0\n 24963: a0 = 0x1\n 24966: jump @1040\n      : @871 (gas: 3)\n 24969: t0 = 0x394\n 24973: a2 = s1 + 0x2118\n 24977: fallthrough\n      : @872 [@dyn 458] (gas: 8)\n 24978: u64 [a2 + 1880] = 0\n 24982: u64 [a2 + 1872] = 0\n 24986: a0 = 0x2c5211c600000000\n 24996: u64 [a2 + 0x760] = a0\n 25000: a1 = s1 + 0x2860\n 25004: u64 [a2 + 1864] = 0\n 25008: a0 = 0\n 25010: ra = 918, jump @24\n      : @873 [@dyn 459] (gas: 2)\n 25016: a1 = i32 [0x20180]\n 25021: jump @875 if a1 >u 31\n      : @874 (gas: 3)\n 25025: u32 [0x20180] = 0x20\n 25031: a1 = 0x20190\n 25036: jump @937\n      : @875 (gas: 2)\n 25039: a1 = 0x20190\n 25044: jump @937\n      : @876 (gas: 4)\n 25047: a1 = 0x20190\n 25052: i32 a1 = a1 + 0\n 25054: a0 = 0x1\n 25057: jump @1040\n      : @877 (gas: 4)\n 25060: a1 = 0x20190\n 25065: i32 a1 = a1 + 0\n 25067: a0 = 0x1\n 25070: jump @1040\n      : @878 (gas: 4)\n 25073: a1 = 0x20190\n 25078: i32 a1 = a1 + 0\n 25080: a0 = 0x1\n 25083: jump @1040\n      : @879 (gas: 4)\n 25086: a1 = 0x20190\n 25091: i32 a1 = a1 + 0\n 25093: a0 = 0x1\n 25096: jump @1040\n      : @880 (gas: 4)\n 25099: a1 = 0x20190\n 25104: i32 a1 = a1 + 0\n 25106: a0 = 0x1\n 25109: jump @1040\n      : @881 (gas: 8)\n 25112: u64 [s1 + 1936] = 0\n 25116: u64 [s1 + 1928] = 0\n 25120: u64 [s1 + 1920] = 0\n 25124: a0 = 0x2c5211c600000000\n 25134: a1 = s1 + 0x780\n 25138: u64 [s1 + 0x798] = a0\n 25142: a0 = 0\n 25144: ra = 920, jump @24\n      : @882 [@dyn 460] (gas: 2)\n 25150: a1 = i32 [0x20180]\n 25155: jump @884 if a1 >u 31\n      : @883 (gas: 3)\n 25159: u32 [0x20180] = 0x20\n 25165: a1 = 0x20190\n 25170: jump @937\n      : @884 (gas: 2)\n 25173: a1 = 0x20190\n 25178: jump @937\n      : @885 (gas: 9)\n 25181: u64 [s1 + 1968] = 0\n 25185: u64 [s1 + 1960] = 0\n 25189: u64 [s1 + 1952] = 0\n 25193: a0 = 0xf4d678b800000000\n 25203: a1 = s1 + 0x7a0\n 25207: u64 [s1 + 0x7b8] = a0\n 25211: a0 = 0\n 25213: ra = 0x39c\n 25217: jump @24\n      : @886 (gas: 14)\n 25220: a0 = s1 + 0x1000\n 25224: u64 [a0 + 4294965328] = 0\n 25228: a0 = s1 + 0x1000\n 25232: u64 [a0 + 4294965320] = 0\n 25236: a0 = s1 + 0x1000\n 25240: u64 [a0 + 4294965312] = 0\n 25244: a0 = 0x90b8ec1800000000\n 25254: a1 = s1 + 0x7ff\n 25258: a1 = a1 + 0x41\n 25261: a2 = s1 + 0x1000\n 25265: u64 [a2 + 0xfffffffffffff858] = a0\n 25269: a0 = 0\n 25271: ra = 0x39c\n 25275: jump @24\n      : @887 (gas: 4)\n 25278: a1 = 0x20190\n 25283: i32 a1 = a1 + 0\n 25285: a0 = 0x1\n 25288: jump @1040\n      : @888 (gas: 4)\n 25291: a1 = 0x20190\n 25296: i32 a1 = a1 + 0\n 25298: a0 = 0x1\n 25301: jump @1040\n      : @889 (gas: 4)\n 25304: a1 = 0x20190\n 25309: i32 a1 = a1 + 0\n 25311: a0 = 0x1\n 25314: jump @1040\n      : @890 (gas: 4)\n 25317: a1 = 0x20190\n 25322: i32 a1 = a1 + 0\n 25324: a0 = 0x1\n 25327: jump @1040\n      : @891 (gas: 4)\n 25330: a1 = 0x20190\n 25335: i32 a1 = a1 + 0\n 25337: a0 = 0x1\n 25340: jump @1040\n      : @892 (gas: 4)\n 25343: a1 = 0x20190\n 25348: i32 a1 = a1 + 0\n 25350: a0 = 0x1\n 25353: jump @1040\n      : @893 (gas: 8)\n 25356: u64 [s1 + 1488] = 0\n 25360: u64 [s1 + 1480] = 0\n 25364: u64 [s1 + 1472] = 0\n 25368: a0 = 0x2c5211c600000000\n 25378: a1 = s1 + 0x5c0\n 25382: u64 [s1 + 0x5d8] = a0\n 25386: a0 = 0\n 25388: ra = 922, jump @24\n      : @894 [@dyn 461] (gas: 2)\n 25394: a1 = i32 [0x20180]\n 25399: jump @896 if a1 >u 31\n      : @895 (gas: 3)\n 25403: u32 [0x20180] = 0x20\n 25409: a1 = 0x20190\n 25414: jump @937\n      : @896 (gas: 2)\n 25417: a1 = 0x20190\n 25422: jump @937\n      : @897 (gas: 9)\n 25425: u64 [s1 + 1520] = 0\n 25429: u64 [s1 + 1512] = 0\n 25433: u64 [s1 + 1504] = 0\n 25437: a0 = 0xf4d678b800000000\n 25447: a1 = s1 + 0x5e0\n 25451: u64 [s1 + 0x5f8] = a0\n 25455: a0 = 0\n 25457: ra = 0x39c\n 25461: jump @24\n      : @898 (gas: 8)\n 25464: u64 [s1 + 1680] = 0\n 25468: u64 [s1 + 1672] = 0\n 25472: u64 [s1 + 1664] = 0\n 25476: a0 = 0x90b8ec1800000000\n 25486: a1 = s1 + 0x680\n 25490: u64 [s1 + 0x698] = a0\n 25494: a0 = 0\n 25496: ra = 924, jump @24\n      : @899 [@dyn 462] (gas: 3)\n 25502: a0 = u64 [s1 + 0x140]\n 25506: a0 = i32 [a0]\n 25508: jump @901 if a0 >u 31\n      : @900 (gas: 3)\n 25512: a1 = u64 [s1 + 0x140]\n 25516: u32 [a1 + 0] = 0x20\n 25519: fallthrough\n      : @901 (gas: 5)\n 25520: a0 = 0x1\n 25523: a2 = 0x4\n 25526: a1 = u64 [s1 + 0x148]\n 25530: ecalli 14 // 'seal_return'\n 25532: fallthrough\n      : @902 (gas: 4)\n 25533: a1 = 0x20190\n 25538: i32 a1 = a1 + 0\n 25540: a0 = 0x1\n 25543: jump @1040\n      : @903 (gas: 4)\n 25546: a1 = 0x20190\n 25551: i32 a1 = a1 + 0\n 25553: a0 = 0x1\n 25556: jump @1040\n      : @904 (gas: 4)\n 25559: a1 = 0x20190\n 25564: i32 a1 = a1 + 0\n 25566: a0 = 0x1\n 25569: jump @1040\n      : @905 (gas: 4)\n 25572: a1 = 0x20190\n 25577: i32 a1 = a1 + 0\n 25579: a0 = 0x1\n 25582: jump @1040\n      : @906 (gas: 4)\n 25585: a1 = 0x20190\n 25590: i32 a1 = a1 + 0\n 25592: a0 = 0x1\n 25595: jump @1040\n      : @907 (gas: 4)\n 25598: a1 = 0x20190\n 25603: i32 a1 = a1 + 0\n 25605: a0 = 0x1\n 25608: jump @1040\n      : @908 (gas: 4)\n 25611: a1 = 0x20190\n 25616: i32 a1 = a1 + 0\n 25618: a0 = 0x1\n 25621: jump @1040\n      : @909 (gas: 4)\n 25624: a1 = 0x20190\n 25629: i32 a1 = a1 + 0\n 25631: a0 = 0x1\n 25634: jump @1040\n      : @910 (gas: 4)\n 25637: a1 = 0x20190\n 25642: i32 a1 = a1 + 0\n 25644: a0 = 0x1\n 25647: jump @1040\n      : @911 (gas: 4)\n 25650: a1 = 0x20190\n 25655: i32 a1 = a1 + 0\n 25657: a0 = 0x1\n 25660: jump @1040\n      : @912 (gas: 3)\n 25663: t0 = 0x39e\n 25667: a2 = s1 + 0x1918\n 25671: fallthrough\n      : @913 [@dyn 463] (gas: 8)\n 25672: u64 [a2 + 1816] = 0\n 25676: u64 [a2 + 1808] = 0\n 25680: a0 = 0xbe29e9600000000\n 25690: u64 [a2 + 0x720] = a0\n 25694: a1 = s1 + 0x2020\n 25698: u64 [a2 + 1800] = 0\n 25702: a0 = 0\n 25704: ra = 928, jump @24\n      : @914 [@dyn 464] (gas: 2)\n 25710: a1 = i32 [0x20180]\n 25715: jump @916 if a1 >u 31\n      : @915 (gas: 3)\n 25719: u32 [0x20180] = 0x20\n 25725: a1 = 0x20190\n 25730: jump @937\n      : @916 (gas: 2)\n 25733: a1 = 0x20190\n 25738: jump @937\n      : @917 (gas: 3)\n 25741: t0 = 0x3a2\n 25745: a2 = s1 + 0x1918\n 25749: fallthrough\n      : @918 [@dyn 465] (gas: 8)\n 25750: u64 [a2 + 1848] = 0\n 25754: u64 [a2 + 1840] = 0\n 25758: a0 = 0xcc67c13b00000000\n 25768: u64 [a2 + 0x740] = a0\n 25772: a1 = s1 + 0x2040\n 25776: u64 [a2 + 1832] = 0\n 25780: a0 = 0\n 25782: ra = 932, jump @24\n      : @919 [@dyn 466] (gas: 2)\n 25788: a1 = i32 [0x20180]\n 25793: jump @921 if a1 >u 31\n      : @920 (gas: 3)\n 25797: u32 [0x20180] = 0x20\n 25803: a1 = 0x20190\n 25808: jump @937\n      : @921 (gas: 2)\n 25811: a1 = 0x20190\n 25816: jump @937\n      : @922 (gas: 4)\n 25819: a1 = 0x20190\n 25824: i32 a1 = a1 + 0\n 25826: a0 = 0x1\n 25829: jump @1040\n      : @923 (gas: 4)\n 25832: a1 = 0x20190\n 25837: i32 a1 = a1 + 0\n 25839: a0 = 0x1\n 25842: jump @1040\n      : @924 (gas: 4)\n 25845: a1 = 0x20190\n 25850: i32 a1 = a1 + 0\n 25852: a0 = 0x1\n 25855: jump @1040\n      : @925 (gas: 1)\n 25858: jump @945 if a0 != 2618616686\n      : @926 (gas: 11)\n 25866: a0 = s1 + 0x2918\n 25870: u64 [a0 + 1696] = 0\n 25874: u64 [a0 + 1688] = 0\n 25878: u64 [a0 + 1680] = 0\n 25882: u64 [a0 + 1672] = 0\n 25886: a0 = s1 + 0x3000\n 25890: i32 a0 = a0 + 0xffffffffffffffa0\n 25893: ra = 0x3a6\n 25897: ecalli 17 // 'value_transferred'\n 25899: t0 = 0x3a8\n 25903: jump @1583\n      : @927 [@dyn 467] (gas: 1)\n 25906: t0 = 936, jump @1583\n      : @928 [@dyn 468] (gas: 1)\n 25912: t0 = 938, jump @1578\n      : @929 [@dyn 469] (gas: 1)\n 25918: jump @967 if a0 == 0\n      : @930 (gas: 4)\n 25922: a1 = 0x20190\n 25927: i32 a1 = a1 + 0\n 25929: a0 = 0x1\n 25932: jump @1040\n      : @931 (gas: 4)\n 25935: a1 = 0x20190\n 25940: i32 a1 = a1 + 0\n 25942: a0 = 0x1\n 25945: jump @1040\n      : @932 (gas: 4)\n 25948: a1 = 0x20190\n 25953: i32 a1 = a1 + 0\n 25955: a0 = 0x1\n 25958: jump @1040\n      : @933 (gas: 9)\n 25961: a2 = s1 + 0x1118\n 25965: u64 [a2 + 24] = 0\n 25968: u64 [a2 + 16] = 0\n 25971: a0 = 0xd5b25b6300000000\n 25981: u64 [a2 + 0x20] = a0\n 25984: a1 = s1 + 0x1120\n 25988: u64 [a2 + 8] = 0\n 25991: a0 = 0\n 25993: ra = 940, jump @24\n      : @934 [@dyn 470] (gas: 2)\n 25999: a1 = i32 [0x20180]\n 26004: jump @936 if a1 >u 31\n      : @935 (gas: 3)\n 26008: u32 [0x20180] = 0x20\n 26014: a1 = 0x20190\n 26019: jump @937\n      : @936 (gas: 2)\n 26021: a1 = 0x20190\n 26026: fallthrough\n      : @937 (gas: 6)\n 26027: i32 a1 = a1 + 0\n 26029: a0 = 0x1\n 26032: a2 = 0x4\n 26035: ra = 0x3ae\n 26039: ecalli 14 // 'seal_return'\n 26041: fallthrough\n      : @938 [@dyn 471] (gas: 5)\n 26042: a0 = s1 + 0x1918\n 26046: u64 [a0 + 1912] = 0\n 26050: u64 [a0 + 1904] = 0\n 26054: u64 [a0 + 1896] = 0\n 26058: t0 = 944, jump @1586\n      : @939 [@dyn 472] (gas: 5)\n 26064: i32 a1 = a1 + 0x80\n 26068: a1 = a1 + s1\n 26071: u64 [a2 + 0x780] = a0\n 26075: a0 = 0\n 26077: ra = 946, jump @24\n      : @940 [@dyn 473] (gas: 3)\n 26083: t0 = 0x3b4\n 26087: a1 = s1 + 0x1918\n 26091: fallthrough\n      : @941 [@dyn 474] (gas: 8)\n 26092: u64 [a1 + 1888] = 0\n 26096: u64 [a1 + 1880] = 0\n 26100: u64 [a1 + 1864] = 0x41\n 26105: a2 = a1\n 26107: a0 = 0x4\n 26110: a1 = s1 + 0x2060\n 26114: u64 [a2 + 1872] = 0\n 26118: ra = 950, jump @24\n      : @942 [@dyn 475] (gas: 3)\n 26124: a0 = u64 [s1 + 0xa8]\n 26128: a0 = i32 [a0]\n 26130: jump @944 if a0 >u 63\n      : @943 (gas: 3)\n 26134: a1 = u64 [s1 + 0xa8]\n 26138: u32 [a1 + 0] = 0x40\n 26141: fallthrough\n      : @944 (gas: 5)\n 26142: a0 = 0x1\n 26145: a2 = 0x24\n 26148: a1 = u64 [s1 + 0xa0]\n 26152: ecalli 14 // 'seal_return'\n 26154: fallthrough\n      : @945 (gas: 1)\n 26155: jump @951 if a0 != 2685688103\n      : @946 (gas: 11)\n 26162: a0 = s1 + 0x2918\n 26166: u64 [a0 + 1728] = 0\n 26170: u64 [a0 + 1720] = 0\n 26174: u64 [a0 + 1712] = 0\n 26178: u64 [a0 + 1704] = 0\n 26182: a0 = s1 + 0x3000\n 26186: i32 a0 = a0 + 0xffffffffffffffc0\n 26189: ra = 0x3b8\n 26193: ecalli 17 // 'value_transferred'\n 26195: t0 = 0x3ba\n 26199: jump @1583\n      : @947 [@dyn 476] (gas: 1)\n 26202: t0 = 954, jump @1583\n      : @948 [@dyn 477] (gas: 1)\n 26208: t0 = 956, jump @1551\n      : @949 [@dyn 478] (gas: 1)\n 26214: jump @969 if a0 == 0\n      : @950 (gas: 4)\n 26218: a1 = 0x20190\n 26223: i32 a1 = a1 + 0\n 26225: a0 = 0x1\n 26228: jump @1040\n      : @951 (gas: 1)\n 26231: jump @971 if a0 != 3058722618\n      : @952 (gas: 10)\n 26239: a0 = s1 + 0x2918\n 26243: u64 [a0 + 1856] = 0\n 26247: u64 [a0 + 1848] = 0\n 26251: u64 [a0 + 1840] = 0\n 26255: u64 [a0 + 1832] = 0\n 26259: a0 = s1 + 0x3000\n 26263: i32 a0 = a0 + 0x40\n 26266: ra = 0x3be\n 26270: ecalli 17 // 'value_transferred'\n 26272: fallthrough\n      : @953 [@dyn 479] (gas: 3)\n 26273: a3 = s1 + 0x2918\n 26277: a4 = a3 + 0x700\n 26281: t0 = 960, jump @1550\n      : @954 [@dyn 480] (gas: 1)\n 26287: jump @975 if a0 == 0\n      : @955 (gas: 4)\n 26291: a1 = 0x20190\n 26296: i32 a1 = a1 + 0\n 26298: a0 = 0x1\n 26301: jump @1040\n      : @956 (gas: 2)\n 26304: u64 [s1 + 344] = 0\n 26308: fallthrough\n      : @957 (gas: 5)\n 26309: a0 = u64 [s1 + 0x168]\n 26313: a0 = a0 << 0x1\n 26316: a4 = u64 [s1 + 0x158]\n 26320: a4 = a4 | a0\n 26323: fallthrough\n      : @958 (gas: 7)\n 26324: u64 [s1 + 984] = 0\n 26328: u64 [s1 + 976] = 0\n 26332: u64 [s1 + 968] = 0\n 26336: a1 = s1 + 0x3c0\n 26340: u64 [s1 + 0x3c0] = a4\n 26344: a0 = u64 [s1 + 0x118]\n 26348: ra = 962, jump @24\n      : @959 [@dyn 481] (gas: 3)\n 26354: a1 = 0x20\n 26357: a0 = u64 [s1 + 0x118]\n 26361: ra = 964, jump @37\n      : @960 [@dyn 482] (gas: 6)\n 26367: i32 a1 = a0 + 0\n 26369: a2 = 0x20\n 26372: a0 = 0\n 26374: ra = 0x3c6\n 26378: ecalli 14 // 'seal_return'\n 26380: jump @962\n      : @961 (gas: 5)\n 26382: a2 = 0x20\n 26385: a0 = 0\n 26387: ra = 0x3c6\n 26391: ecalli 14 // 'seal_return'\n 26393: fallthrough\n      : @962 [@dyn 483] (gas: 5)\n 26394: a0 = s1 + 0x1918\n 26398: u64 [a0 + 1976] = 0\n 26402: u64 [a0 + 1968] = 0\n 26406: u64 [a0 + 1960] = 0\n 26410: t0 = 968, jump @1586\n      : @963 [@dyn 484] (gas: 5)\n 26416: i32 a1 = a1 + 0xc0\n 26420: a1 = a1 + s1\n 26423: u64 [a2 + 0x7c0] = a0\n 26427: a0 = 0\n 26429: ra = 970, jump @24\n      : @964 [@dyn 485] (gas: 3)\n 26435: t0 = 0x3cc\n 26439: a1 = s1 + 0x1918\n 26443: fallthrough\n      : @965 [@dyn 486] (gas: 9)\n 26444: u64 [a1 + 1952] = 0\n 26448: u64 [a1 + 1944] = 0\n 26452: u64 [a1 + 1928] = 0x41\n 26457: a2 = a1\n 26459: a0 = 0x4\n 26462: a1 = s1 + 0x20a0\n 26466: u64 [a2 + 1936] = 0\n 26470: ra = 0x3b6\n 26474: jump @24\n      : @966 (gas: 17)\n 26477: a3 = a4\n 26479: a0 = s1 + 0x1918\n 26483: a1 = u64 [s1 + 0xf0]\n 26487: a2 = a0 + 0x700\n 26491: u64 [a2 + 0xe8] = a1\n 26495: a1 = u64 [s1 + 0xf8]\n 26499: u64 [a2 + 0xf0] = a1\n 26503: a1 = u64 [s1 + 0x100]\n 26507: u64 [a2 + 0xf8] = a1\n 26511: a1 = s1 + 0x2100\n 26515: a0 = s1 + 0x2118\n 26519: a2 = u64 [s1 + 0x108]\n 26523: u64 [a0] = a2\n 26525: a0 = a3\n 26527: u64 [s1 + 0x198] = a3\n 26531: ra = 0x218\n 26535: jump @24\n      : @967 (gas: 3)\n 26538: a0 = u64 [s1 + 0x198]\n 26542: a0 = i32 [a0]\n 26544: jump @978 if a0 >u 99\n      : @968 (gas: 4)\n 26549: a1 = 0x20190\n 26554: i32 a1 = a1 + 0\n 26556: a0 = 0x1\n 26559: jump @1040\n      : @969 (gas: 3)\n 26562: a0 = u64 [s1 + 0x198]\n 26566: a0 = i32 [a0]\n 26568: jump @983 if a0 >u 67\n      : @970 (gas: 4)\n 26573: a1 = 0x20190\n 26578: i32 a1 = a1 + 0\n 26580: a0 = 0x1\n 26583: jump @1040\n      : @971 (gas: 1)\n 26586: jump @1034 if a0 != 235423050\n      : @972 (gas: 10)\n 26594: a0 = s1 + 0x2918\n 26598: u64 [a0 + 256] = 0\n 26602: u64 [a0 + 248] = 0\n 26606: u64 [a0 + 240] = 0\n 26610: u64 [a0 + 232] = 0\n 26614: a0 = s1 + 0x3000\n 26618: i32 a0 = a0 + 0xfffffffffffffa00\n 26622: ra = 0x3ce\n 26626: ecalli 17 // 'value_transferred'\n 26628: fallthrough\n      : @973 [@dyn 487] (gas: 9)\n 26629: a3 = s1 + 0x2918\n 26633: a0 = u64 [a3 + 0xf8]\n 26637: a1 = u64 [a3 + 0x100]\n 26641: a2 = u64 [a3 + 0xf0]\n 26645: a3 = u64 [a3 + 0xe8]\n 26649: a1 = a1 | a2\n 26652: a0 = a0 | a3\n 26655: a0 = a0 | a1\n 26658: jump @1041 if a0 == 0\n      : @974 (gas: 4)\n 26662: a1 = 0x20190\n 26667: i32 a1 = a1 + 0\n 26669: a0 = 0x1\n 26672: jump @1040\n      : @975 (gas: 1)\n 26675: t0 = 976, jump @1562\n      : @976 [@dyn 488] (gas: 1)\n 26681: jump @1044 if a1 <u a0\n      : @977 (gas: 4)\n 26685: a1 = 0x20190\n 26690: i32 a1 = a1 + 0\n 26692: a0 = 0x1\n 26695: jump @1040\n      : @978 (gas: 4)\n 26698: a0 = s1 + 0x19c0\n 26702: ra = 0x3d2\n 26706: t0 = 0x578\n 26710: jump @1568\n      : @979 [@dyn 489] (gas: 13)\n 26713: a1 = s1 + 0x1918\n 26717: a0 = u64 [a1 + 0xa8]\n 26721: u64 [s1 + 0x198] = a0\n 26725: a0 = u64 [a1 + 0xb0]\n 26729: u64 [s1 + 0x190] = a0\n 26733: a0 = u64 [a1 + 0xb8]\n 26737: u64 [s1 + 0x188] = a0\n 26741: a0 = u64 [a1 + 0xc0]\n 26745: u64 [s1 + 0x180] = a0\n 26749: a0 = s1 + 0x19a0\n 26753: ra = 0x3d4\n 26757: t0 = 0x57c\n 26761: jump @1585\n      : @980 [@dyn 490] (gas: 13)\n 26764: a1 = s1 + 0x1918\n 26768: a0 = u64 [a1 + 0x88]\n 26772: u64 [s1 + 0x178] = a0\n 26776: a0 = u64 [a1 + 0x90]\n 26780: u64 [s1 + 0x170] = a0\n 26784: a0 = u64 [a1 + 0x98]\n 26788: u64 [s1 + 0x168] = a0\n 26792: a0 = u64 [a1 + 0xa0]\n 26796: u64 [s1 + 0x160] = a0\n 26800: a0 = s1 + 0x1980\n 26804: ra = 0x3d6\n 26808: t0 = 0x582\n 26812: jump @1585\n      : @981 [@dyn 491] (gas: 30)\n 26815: a4 = s1 + 0x1918\n 26819: a0 = u64 [a4 + 0x68]\n 26822: a1 = u64 [a4 + 0x70]\n 26825: a2 = u64 [a4 + 0x78]\n 26828: a3 = u64 [a4 + 0x80]\n 26832: u64 [a4 + 0x20] = a3\n 26835: u64 [a4 + 0x18] = a2\n 26838: u64 [a4 + 0x10] = a1\n 26841: u64 [a4 + 0x8] = a0\n 26844: a5 = s1 + 0x100\n 26848: a0 = u64 [a5 + 0x60]\n 26851: u64 [a4 + 0x40] = a0\n 26854: a0 = u64 [a5 + 0x68]\n 26857: u64 [a4 + 0x38] = a0\n 26860: a0 = u64 [a5 + 0x70]\n 26863: u64 [a4 + 0x30] = a0\n 26866: a0 = u64 [a5 + 0x78]\n 26869: u64 [a4 + 0x28] = a0\n 26872: a0 = u64 [a5 + 0x80]\n 26876: u64 [a4 + 0x60] = a0\n 26879: a0 = u64 [a5 + 0x88]\n 26883: u64 [a4 + 0x58] = a0\n 26886: a0 = u64 [a5 + 0x90]\n 26890: u64 [a4 + 0x50] = a0\n 26893: a0 = s1 + 0x1960\n 26897: a1 = s1 + 0x1940\n 26901: a2 = s1 + 0x1920\n 26905: a3 = u64 [a5 + 0x98]\n 26909: u64 [a4 + 0x48] = a3\n 26912: ra = 984, jump @1392\n      : @982 [@dyn 492] (gas: 8)\n 26918: a1 = 0x20190\n 26923: i32 a1 = a1 + 0\n 26925: a0 = 0\n 26927: a2 = 0\n 26929: ra = 0x428\n 26933: ecalli 14 // 'seal_return'\n 26935: t0 = 0x42a\n 26939: jump @1562\n      : @983 (gas: 4)\n 26942: a0 = s1 + 0x1d40\n 26946: ra = 0x3da\n 26950: t0 = 0x58c\n 26954: jump @1568\n      : @984 [@dyn 493] (gas: 7)\n 26957: a0 = s1 + 0x1918\n 26961: a0 = u64 [a0 + 0x428]\n 26965: u64 [s1 + 0x190] = a0\n 26969: a0 = s1 + 0x1d20\n 26973: ra = 0x3dc\n 26977: t0 = 0x57c\n 26981: jump @1585\n      : @985 [@dyn 494] (gas: 12)\n 26984: a0 = s1 + 0x1918\n 26988: a0 = u64 [a0 + 0x408]\n 26992: u64 [s1 + 0xf0] = a0\n 26996: a0 = 0x30190\n 27001: u64 [s1 + 0x108] = a0\n 27005: i32 a0 = a0 + 0\n 27007: u64 [s1 + 0x100] = a0\n 27011: ra = 0x3de\n 27015: ecalli 5 // 'caller'\n 27017: a2 = u64 [s1 + 0x108]\n 27021: t0 = 0x3e0\n 27025: jump @1506\n      : @986 [@dyn 495] (gas: 2)\n 27028: a2 = u64 [s1 + 0x108]\n 27032: t0 = 992, jump @1506\n      : @987 [@dyn 496] (gas: 8)\n 27038: u64 [a2 + 1024] = 0\n 27042: a4 = a2 + 0x300\n 27046: u64 [a4 + 0xf8] = a1\n 27050: u64 [a4 + 0xf0] = a0\n 27054: a1 = s1 + 0x1d00\n 27058: u64 [a4 + 0xe8] = a3\n 27062: a0 = 0\n 27064: ra = 994, jump @24\n      : @988 [@dyn 497] (gas: 3)\n 27070: t0 = 0x3e4\n 27074: a1 = s1 + 0x1918\n 27078: fallthrough\n      : @989 [@dyn 498] (gas: 8)\n 27079: u64 [a1 + 992] = 0\n 27083: u64 [a1 + 984] = 0\n 27087: u64 [a1 + 968] = 0x2\n 27092: a2 = a1\n 27094: a0 = 0x20\n 27097: a1 = s1 + 0x1ce0\n 27101: u64 [a2 + 976] = 0\n 27105: ra = 998, jump @24\n      : @990 [@dyn 499] (gas: 5)\n 27111: a0 = 0x20180\n 27116: u64 [s1 + 0x118] = a0\n 27120: a0 = i32 [0x20180]\n 27125: a1 = 0x3f\n 27128: jump @992 if a1 <u a0\n      : @991 (gas: 4)\n 27131: a1 = u64 [s1 + 0x118]\n 27135: u32 [a1 + 0] = 0x40\n 27138: t0 = 0x3e8\n 27142: jump @1541\n      : @992 (gas: 1)\n 27145: t0 = 1000, jump @1541\n      : @993 [@dyn 500] (gas: 10)\n 27151: a0 = 0x20190\n 27156: i32 a0 = a0 + 0\n 27158: i32 a2 = a2 + 0\n 27160: a1 = 0x40\n 27163: u64 [s1 + 0x110] = a0\n 27167: ra = 0x3ea\n 27171: ecalli 9 // 'hash_keccak_256'\n 27173: a3 = u64 [s1 + 0x198]\n 27177: t0 = 0x3ec\n 27181: jump @1521\n      : @994 [@dyn 501] (gas: 2)\n 27184: a3 = u64 [s1 + 0x198]\n 27188: t0 = 1004, jump @1521\n      : @995 [@dyn 502] (gas: 14)\n 27194: u64 [s1 + 0x198] = a0\n 27198: sp = a0\n 27200: a0 = u64 [s1 + 0x190]\n 27204: a0 = a0 << 0x20\n 27207: a2 = a0 >> 0x20\n 27210: a0 = s1 + 0x1918\n 27214: u64 [a0 + 960] = 0\n 27218: u64 [a0 + 952] = 0\n 27222: u64 [a0 + 944] = 0\n 27226: a1 = s1 + 0x1cc0\n 27230: u64 [s1 + 0xf8] = a2\n 27234: u64 [a0 + 0x3a8] = a2\n 27238: a0 = 0\n 27240: ra = 1006, jump @24\n      : @996 [@dyn 503] (gas: 14)\n 27246: a0 = u64 [s1 + 0x170]\n 27250: a1 = s1 + 0x1918\n 27254: a2 = a1 + 0x300\n 27258: u64 [a2 + 0xa0] = a0\n 27262: a0 = u64 [s1 + 0x178]\n 27266: u64 [a2 + 0x98] = a0\n 27270: a0 = u64 [s1 + 0x180]\n 27274: u64 [a2 + 0x90] = a0\n 27278: a3 = a1\n 27280: a0 = 0x20\n 27283: a1 = s1 + 0x1ca0\n 27287: a2 = u64 [s1 + 0x188]\n 27291: u64 [a3 + 0x388] = a2\n 27295: ra = 1008, jump @24\n      : @997 [@dyn 504] (gas: 3)\n 27301: a0 = u64 [s1 + 0x118]\n 27305: a0 = i32 [a0]\n 27307: jump @999 if a0 >u 63\n      : @998 (gas: 4)\n 27311: a0 = u64 [s1 + 0x118]\n 27315: u32 [a0 + 0] = 0x40\n 27318: t0 = 0x3f2\n 27322: jump @1512\n      : @999 (gas: 1)\n 27325: t0 = 1010, jump @1512\n      : @1000 [@dyn 505] (gas: 5)\n 27331: ra = 0x3f4\n 27335: ecalli 9 // 'hash_keccak_256'\n 27337: a3 = u64 [s1 + 0x190]\n 27341: t0 = 0x3f6\n 27345: jump @1536\n      : @1001 [@dyn 506] (gas: 2)\n 27348: a3 = u64 [s1 + 0x190]\n 27352: t0 = 1014, jump @1536\n      : @1002 [@dyn 507] (gas: 6)\n 27358: a0 = u64 [s1 + 0x100]\n 27362: ra = 0x3f8\n 27366: ecalli 5 // 'caller'\n 27368: a2 = u64 [s1 + 0x108]\n 27372: t0 = 0x3fa\n 27376: jump @1569\n      : @1003 [@dyn 508] (gas: 2)\n 27379: a2 = u64 [s1 + 0x108]\n 27383: t0 = 1018, jump @1569\n      : @1004 [@dyn 509] (gas: 10)\n 27389: u64 [s1 + 0x190] = a1\n 27393: a0 = a0 >> 0x20\n 27396: a1 = reverse a2\n 27398: u64 [s1 + 0x188] = a1\n 27402: a1 = a1 << 0x20\n 27405: a0 = a0 | a1\n 27408: u64 [s1 + 0x180] = a0\n 27412: a0 = s1 + 0x1c80\n 27416: a1 = u64 [s1 + 0x198]\n 27420: ra = 1020, jump @26\n      : @1005 [@dyn 510] (gas: 2)\n 27426: a2 = s1 + 0x1918\n 27430: fallthrough\n      : @1006 (gas: 19)\n 27431: a0 = u64 [a2 + 0x370]\n 27435: a1 = u32 [a2 + 0x36c]\n 27439: a2 = u64 [a2 + 0x378]\n 27443: a3 = a0 << 0x20\n 27446: a1 = a1 | a3\n 27449: a3 = a2 << 0x20\n 27452: a0 = a0 >> 0x20\n 27455: a0 = a0 | a3\n 27458: a4 = s1 + 0x100\n 27462: a3 = u64 [a4 + 0x80]\n 27466: a0 = a0 ^ a3\n 27469: a3 = u64 [a4 + 0x90]\n 27473: a1 = a1 ^ a3\n 27476: a3 = u64 [a4 + 0x88]\n 27480: a2 = a2 ^ a3\n 27483: a2 = a2 >> 0x20\n 27486: a1 = a1 | a2\n 27489: a0 = a0 | a1\n 27492: jump @1085 if a0 != 0\n      : @1007 (gas: 4)\n 27496: a0 = s1 + 0x3000\n 27500: i32 a0 = a0 + 0xffffffffffffffe0\n 27503: ecalli 10 // 'now'\n 27505: fallthrough\n      : @1008 (gas: 51)\n 27506: a0 = s1 + 0x2918\n 27510: t0 = u64 [a0 + 0x6e0]\n 27514: a4 = u64 [a0 + 0x6d8]\n 27518: u64 [s1 + 0x158] = a4\n 27522: t2 = u64 [a0 + 0x6d0]\n 27526: a3 = u64 [a0 + 0x6c8]\n 27530: u64 [s1 + 0x140] = a3\n 27534: a0 = clz t0\n 27536: a1 = clz a4\n 27538: a2 = a1 + 0x40\n 27541: a2 = a0 if t0 != 0\n 27544: a0 = clz t2\n 27546: a1 = clz a3\n 27548: a1 = a1 + 0x40\n 27551: a1 = a0 if t2 != 0\n 27554: a0 = a1 + 0x80\n 27558: a3 = a4 | t0\n 27561: a2 = a0 if a3 == 0\n 27564: a5 = a0 <u a1\n 27567: a5 = 0 if a3 != 0\n 27569: a4 = a5 >u 0\n 27571: a0 = a2 <u 0xf0\n 27575: a3 = a0 ^ 0x1\n 27578: a4 = a3 if a5 == 0\n 27581: a0 = a4 <u 0x1\n 27584: ra = a0 + 0xffffffffffffffff\n 27587: t1 = -a4\n 27589: a5 = -a5\n 27591: a3 = a5 - a3\n 27594: a2 = 0xef - a2\n 27598: a5 = t1 >u 0\n 27600: a0 = ra >u 0\n 27602: a0 = a5 if ra == 0\n 27605: a5 = a2 <u 0x100\n 27609: a5 = a5 ^ 0x1\n 27612: a1 = a3 >u 0\n 27614: a5 = a1 if a3 != 0\n 27617: a5 = a0 if a4 != 0\n 27620: u64 [s1 + 0x138] = t2\n 27624: u64 [s1 + 0x150] = t0\n 27628: a0 = t2 | t0\n 27631: a4 = u64 [s1 + 0x140]\n 27635: a1 = u64 [s1 + 0x158]\n 27639: a1 = a1 | a4\n 27642: a0 = a0 | a1\n 27645: a0 = a0 <u 0x1\n 27648: a0 = a0 | a5\n 27651: a1 = a4\n 27653: a1 = 0 if a0 != 0\n 27655: u64 [s1 + 0x198] = a1\n 27659: jump @1089 if a0 != 0\n      : @1009 (gas: 5)\n 27663: a0 = a2 ^ 0xff\n 27667: a0 = a0 | t1\n 27670: a1 = a3 | ra\n 27673: a0 = a0 | a1\n 27676: jump @1089 if a0 == 0\n      : @1010 (gas: 1)\n 27680: t0 = 1022, jump @1513\n      : @1011 [@dyn 511] (gas: 1)\n 27686: ra = 1024, jump @1589\n      : @1012 [@dyn 512] (gas: 1)\n 27692: t0 = 1026, jump @1573\n      : @1013 [@dyn 513] (gas: 1)\n 27698: ra = 1028, jump @1594\n      : @1014 [@dyn 514] (gas: 1)\n 27704: t0 = 1030, jump @1553\n      : @1015 [@dyn 515] (gas: 1)\n 27710: ra = 1032, jump @1594\n      : @1016 [@dyn 516] (gas: 8)\n 27716: u64 [s1 + 0x120] = a0\n 27720: u64 [s1 + 0xe8] = a1\n 27724: a2 = u64 [s1 + 0x160]\n 27728: a0 = a2 <u 0x80\n 27732: u64 [s1 + 0xe0] = a0\n 27736: a0 = u64 [s1 + 0x140]\n 27740: a1 = u64 [s1 + 0x138]\n 27744: ra = 1034, jump @1594\n      : @1017 [@dyn 517] (gas: 1)\n 27750: t0 = 1036, jump @1579\n      : @1018 [@dyn 518] (gas: 4)\n 27756: a3 = u64 [s1 + 0xe0]\n 27760: a0 = 0 if a3 == 0\n 27762: u64 [a4 + 0x78] = a0\n 27765: jump @1087 if a1 == 0\n      : @1019 (gas: 7)\n 27769: a2 = a3\n 27771: a0 = u64 [s1 + 0x168]\n 27775: a1 = u64 [s1 + 0x128]\n 27779: a0 = a0 | a1\n 27782: a5 = a3\n 27784: a1 = u64 [s1 + 0xe8]\n 27788: t0 = 1038, jump @1510\n      : @1020 [@dyn 519] (gas: 1)\n 27794: ra = 1040, jump @1589\n      : @1021 [@dyn 520] (gas: 1)\n 27800: t0 = 1042, jump @1572\n      : @1022 [@dyn 521] (gas: 1)\n 27806: ra = 1044, jump @1589\n      : @1023 [@dyn 522] (gas: 2)\n 27812: u64 [s1 + 0xe8] = a0\n 27816: t0 = 1046, jump @1561\n      : @1024 [@dyn 523] (gas: 1)\n 27822: ra = 1048, jump @1594\n      : @1025 [@dyn 524] (gas: 1)\n 27828: t0 = 1050, jump @1530\n      : @1026 [@dyn 525] (gas: 2)\n 27834: a1 = u64 [s1 + 0xe8]\n 27838: t0 = 1052, jump @1544\n      : @1027 [@dyn 526] (gas: 1)\n 27844: ra = 1054, jump @1589\n      : @1028 [@dyn 527] (gas: 1)\n 27850: t0 = 1056, jump @1519\n      : @1029 [@dyn 528] (gas: 1)\n 27856: t0 = 1058, jump @1531\n      : @1030 [@dyn 529] (gas: 5)\n 27862: t0 = ra <u a2\n 27865: a4 = u64 [s1 + 0x128]\n 27869: a5 = a4 <u a3\n 27872: a5 = t0 if t1 != 0\n 27875: t0 = 1060, jump @1532\n      : @1031 [@dyn 530] (gas: 20)\n 27881: t0 = a0 | a1\n 27884: a1 = a4 << 0x1\n 27887: a4 = u64 [s1 + 0x170]\n 27891: t1 = a4 >> 0x3f\n 27894: t1 = a1 | t1\n 27897: a1 = a4 << 0x1\n 27900: a4 = u64 [s1 + 0x178]\n 27904: t2 = a4 >> 0x3f\n 27907: a1 = a1 | t2\n 27910: a4 = a4 << 0x1\n 27913: a0 = u64 [s1 + 0x158]\n 27917: a4 = a4 | a0\n 27920: u64 [s1 + 0x178] = a4\n 27924: a0 = u64 [s1 + 0x150]\n 27928: a1 = a1 | a0\n 27931: u64 [s1 + 0x170] = a1\n 27935: a1 = a0 | t1\n 27938: u64 [s1 + 0x160] = a1\n 27942: a0 = a0 | t0\n 27945: t0 = 1062, jump @1508\n      : @1032 [@dyn 531] (gas: 18)\n 27951: t0 = a4 <u a2\n 27954: a2 = a4 - a2\n 27957: a4 = a3 <u 0x1\n 27960: a5 = a5 - a4\n 27963: a4 = u64 [a0 + 0x88]\n 27967: a4 = a4 - t0\n 27970: a3 = a3 + 0xffffffffffffffff\n 27973: u64 [a0 + 0x90] = a5\n 27977: u64 [a0 + 0x88] = a4\n 27981: t0 = a5 | a4\n 27984: u64 [a0 + 0x98] = a3\n 27988: a4 = a3 | a2\n 27991: a3 = a4 | t0\n 27994: a4 = ra & 0x1\n 27997: u64 [a0 + 0x58] = a4\n 28000: u64 [a0 + 0x80] = a2\n 28004: u64 [s1 + 336] = 0\n 28008: jump @1029 if a3 != 0\n      : @1033 (gas: 1)\n 28012: jump @1088\n      : @1034 (gas: 2)\n 28015: a2 = s1 + 0x2918\n 28019: jump @1038 if a0 != 1158823118\n      : @1035 (gas: 8)\n 28026: u64 [a2 + 992] = 0\n 28030: u64 [a2 + 984] = 0\n 28034: u64 [a2 + 976] = 0\n 28038: u64 [a2 + 968] = 0\n 28042: a0 = s1 + 0x3000\n 28046: i32 a0 = a0 + 0xfffffffffffffce0\n 28050: ecalli 17 // 'value_transferred'\n 28052: fallthrough\n      : @1036 (gas: 10)\n 28053: a3 = s1 + 0x2918\n 28057: a4 = a3 + 0x300\n 28061: a0 = u64 [a4 + 0xd8]\n 28065: a1 = u64 [a4 + 0xe0]\n 28069: a2 = u64 [a4 + 0xd0]\n 28073: a3 = u64 [a4 + 0xc8]\n 28077: a1 = a1 | a2\n 28080: a0 = a0 | a3\n 28083: a0 = a0 | a1\n 28086: jump @1112 if a0 == 0\n      : @1037 (gas: 4)\n 28090: a1 = 0x20190\n 28095: i32 a1 = a1 + 0\n 28097: a0 = 0x1\n 28100: jump @1040\n      : @1038 (gas: 4)\n 28102: a1 = 0x20190\n 28107: i32 a1 = a1 + 0\n 28109: a0 = 0x1\n 28112: jump @1040\n      : @1039 (gas: 7)\n 28114: i32 a1 = a1 + 0\n 28116: a0 = 0x1\n 28119: a2 = 0\n 28121: ra = 0x428\n 28125: ecalli 14 // 'seal_return'\n 28127: t0 = 0x42a\n 28131: jump @1562\n      : @1040 (gas: 5)\n 28134: a2 = 0\n 28136: ra = 0x428\n 28140: ecalli 14 // 'seal_return'\n 28142: t0 = 0x42a\n 28146: jump @1562\n      : @1041 [@dyn 532] (gas: 1)\n 28149: t0 = 1066, jump @1562\n      : @1042 [@dyn 533] (gas: 1)\n 28155: jump @1114 if a1 <u a0\n      : @1043 (gas: 2)\n 28159: a1 = 0x20190\n 28164: jump @1039\n      : @1044 (gas: 4)\n 28166: a0 = s1 + 0x2000\n 28170: ra = 0x42c\n 28174: t0 = 0x58c\n 28178: jump @1568\n      : @1045 [@dyn 534] (gas: 12)\n 28181: a0 = s1 + 0x1918\n 28185: a0 = u64 [a0 + 0x6e8]\n 28189: u64 [s1 + 0x170] = a0\n 28193: a0 = 0x30190\n 28198: u64 [s1 + 0x188] = a0\n 28202: i32 a0 = a0 + 0\n 28204: u64 [s1 + 0x180] = a0\n 28208: ra = 0x42e\n 28212: ecalli 5 // 'caller'\n 28214: a2 = u64 [s1 + 0x188]\n 28218: t0 = 0x430\n 28222: jump @1506\n      : @1046 [@dyn 535] (gas: 2)\n 28225: a2 = u64 [s1 + 0x188]\n 28229: t0 = 1072, jump @1506\n      : @1047 [@dyn 536] (gas: 8)\n 28235: u64 [a2 + 1760] = 0\n 28239: a4 = a2 + 0x600\n 28243: u64 [a4 + 0xd8] = a1\n 28247: u64 [a4 + 0xd0] = a0\n 28251: a1 = s1 + 0x1fe0\n 28255: u64 [a4 + 0xc8] = a3\n 28259: a0 = 0\n 28261: ra = 1074, jump @24\n      : @1048 [@dyn 537] (gas: 3)\n 28267: t0 = 0x434\n 28271: a1 = s1 + 0x1918\n 28275: fallthrough\n      : @1049 [@dyn 538] (gas: 8)\n 28276: u64 [a1 + 1728] = 0\n 28280: u64 [a1 + 1720] = 0\n 28284: u64 [a1 + 1704] = 0x2\n 28289: a2 = a1\n 28291: a0 = 0x20\n 28294: a1 = s1 + 0x1fc0\n 28298: u64 [a2 + 1712] = 0\n 28302: ra = 1078, jump @24\n      : @1050 [@dyn 539] (gas: 4)\n 28308: a0 = 0x20180\n 28313: u64 [s1 + 0x198] = a0\n 28317: a0 = i32 [0x20180]\n 28322: jump @1052 if a0 >u 63\n      : @1051 (gas: 3)\n 28326: a1 = u64 [s1 + 0x198]\n 28330: u32 [a1 + 0] = 0x40\n 28333: fallthrough\n      : @1052 (gas: 12)\n 28334: a0 = sp + 0xffffffffffffffe0\n 28337: a2 = a0 & 0xffffffffffffffe0\n 28340: u64 [s1 + 0x178] = a2\n 28344: sp = a2\n 28346: a0 = 0x20190\n 28351: i32 a0 = a0 + 0\n 28353: i32 a2 = a2 + 0\n 28355: a1 = 0x40\n 28358: u64 [s1 + 0x190] = a0\n 28362: ra = 0x438\n 28366: ecalli 9 // 'hash_keccak_256'\n 28368: fallthrough\n      : @1053 [@dyn 540] (gas: 14)\n 28369: a3 = u64 [s1 + 0x178]\n 28373: a0 = u64 [a3 + 0x18]\n 28376: a1 = u64 [a3 + 0x10]\n 28379: a2 = u64 [a3 + 0x8]\n 28382: a3 = u64 [a3]\n 28384: a0 = reverse a0\n 28386: u64 [s1 + 0x168] = a0\n 28390: a0 = reverse a1\n 28392: u64 [s1 + 0x160] = a0\n 28396: a0 = reverse a2\n 28398: u64 [s1 + 0x158] = a0\n 28402: a0 = reverse a3\n 28404: u64 [s1 + 0x150] = a0\n 28408: t0 = 1082, jump @1576\n      : @1054 [@dyn 541] (gas: 12)\n 28414: a0 = u64 [s1 + 0x170]\n 28418: a0 = a0 << 0x20\n 28421: a2 = a0 >> 0x20\n 28424: a0 = s1 + 0x1918\n 28428: u64 [a0 + 1696] = 0\n 28432: u64 [a0 + 1688] = 0\n 28436: u64 [a0 + 1680] = 0\n 28440: a1 = s1 + 0x1fa0\n 28444: u64 [s1 + 0x170] = a2\n 28448: u64 [a0 + 0x688] = a2\n 28452: a0 = 0\n 28454: ra = 1084, jump @24\n      : @1055 [@dyn 542] (gas: 4)\n 28460: a0 = u64 [s1 + 0x150]\n 28464: a1 = s1 + 0x1918\n 28468: a2 = a1 + 0x600\n 28472: t0 = 1086, jump @1582\n      : @1056 [@dyn 543] (gas: 4)\n 28478: a1 = s1 + 0x1f80\n 28482: a2 = u64 [s1 + 0x168]\n 28486: u64 [a3 + 0x668] = a2\n 28490: ra = 1088, jump @24\n      : @1057 [@dyn 544] (gas: 3)\n 28496: a0 = u64 [s1 + 0x198]\n 28500: a0 = i32 [a0]\n 28502: jump @1059 if a0 >u 63\n      : @1058 (gas: 3)\n 28506: a0 = u64 [s1 + 0x198]\n 28510: u32 [a0 + 0] = 0x40\n 28513: fallthrough\n      : @1059 (gas: 4)\n 28514: a0 = sp + 0xffffffffffffffe0\n 28517: a0 = a0 & 0xffffffffffffffe0\n 28520: u64 [s1 + 0x168] = a0\n 28524: t0 = 1090, jump @1522\n      : @1060 [@dyn 545] (gas: 5)\n 28530: ra = 0x444\n 28534: ecalli 9 // 'hash_keccak_256'\n 28536: a3 = u64 [s1 + 0x168]\n 28540: t0 = 0x446\n 28544: jump @1556\n      : @1061 [@dyn 546] (gas: 2)\n 28547: a3 = u64 [s1 + 0x168]\n 28551: t0 = 1094, jump @1556\n      : @1062 [@dyn 547] (gas: 11)\n 28557: a4 = u64 [s1 + 0x178]\n 28561: u64 [a4 + 0x18] = a3\n 28564: u64 [a4 + 0x10] = a2\n 28567: u64 [a4 + 0x8] = a1\n 28570: u64 [a4] = a0\n 28572: a0 = u64 [s1 + 0x180]\n 28576: ra = 0x448\n 28580: ecalli 5 // 'caller'\n 28582: a2 = u64 [s1 + 0x188]\n 28586: t0 = 0x44a\n 28590: jump @1569\n      : @1063 [@dyn 548] (gas: 2)\n 28593: a2 = u64 [s1 + 0x188]\n 28597: t0 = 1098, jump @1569\n      : @1064 [@dyn 549] (gas: 10)\n 28603: u64 [s1 + 0x168] = a1\n 28607: a0 = a0 >> 0x20\n 28610: a1 = reverse a2\n 28612: u64 [s1 + 0x160] = a1\n 28616: a1 = a1 << 0x20\n 28619: a0 = a0 | a1\n 28622: u64 [s1 + 0x158] = a0\n 28626: a0 = s1 + 0x1f60\n 28630: a1 = u64 [s1 + 0x178]\n 28634: ra = 1100, jump @26\n      : @1065 [@dyn 550] (gas: 2)\n 28640: a2 = s1 + 0x1918\n 28644: fallthrough\n      : @1066 (gas: 19)\n 28645: a0 = u64 [a2 + 0x650]\n 28649: a1 = u32 [a2 + 0x64c]\n 28653: a2 = u64 [a2 + 0x658]\n 28657: a3 = a0 << 0x20\n 28660: a1 = a1 | a3\n 28663: a3 = a2 << 0x20\n 28666: a0 = a0 >> 0x20\n 28669: a0 = a0 | a3\n 28672: a4 = s1 + 0x100\n 28676: a3 = u64 [a4 + 0x58]\n 28679: a0 = a0 ^ a3\n 28682: a3 = u64 [a4 + 0x68]\n 28685: a1 = a1 ^ a3\n 28688: a3 = u64 [a4 + 0x60]\n 28691: a2 = a2 ^ a3\n 28694: a2 = a2 >> 0x20\n 28697: a1 = a1 | a2\n 28700: a0 = a0 | a1\n 28703: jump @1124 if a0 != 0\n      : @1067 (gas: 6)\n 28707: a0 = u64 [s1 + 0x180]\n 28711: ra = 0x44e\n 28715: ecalli 5 // 'caller'\n 28717: a2 = u64 [s1 + 0x188]\n 28721: t0 = 0x450\n 28725: jump @1506\n      : @1068 [@dyn 551] (gas: 2)\n 28728: a2 = u64 [s1 + 0x188]\n 28732: t0 = 1104, jump @1506\n      : @1069 [@dyn 552] (gas: 8)\n 28738: u64 [a2 + 1568] = 0\n 28742: a4 = a2 + 0x600\n 28746: u64 [a4 + 0x18] = a1\n 28749: u64 [a4 + 0x10] = a0\n 28752: a1 = s1 + 0x1f20\n 28756: u64 [a4 + 0x8] = a3\n 28759: a0 = 0\n 28761: ra = 1106, jump @24\n      : @1070 [@dyn 553] (gas: 3)\n 28767: t0 = 0x454\n 28771: a1 = s1 + 0x1918\n 28775: fallthrough\n      : @1071 [@dyn 554] (gas: 8)\n 28776: u64 [a1 + 1536] = 0\n 28780: u64 [a1 + 1528] = 0\n 28784: u64 [a1 + 1512] = 0x2\n 28789: a2 = a1\n 28791: a0 = 0x20\n 28794: a1 = s1 + 0x1f00\n 28798: u64 [a2 + 1520] = 0\n 28802: ra = 1110, jump @24\n      : @1072 [@dyn 555] (gas: 3)\n 28808: a0 = u64 [s1 + 0x198]\n 28812: a0 = i32 [a0]\n 28814: jump @1074 if a0 >u 63\n      : @1073 (gas: 3)\n 28818: a1 = u64 [s1 + 0x198]\n 28822: u32 [a1 + 0] = 0x40\n 28825: fallthrough\n      : @1074 (gas: 4)\n 28826: a0 = sp + 0xffffffffffffffe0\n 28829: a0 = a0 & 0xffffffffffffffe0\n 28832: u64 [s1 + 0x178] = a0\n 28836: t0 = 1112, jump @1522\n      : @1075 [@dyn 556] (gas: 17)\n 28842: ecalli 9 // 'hash_keccak_256'\n 28844: a3 = u64 [s1 + 0x178]\n 28848: a0 = u64 [a3 + 0x18]\n 28851: a1 = u64 [a3 + 0x10]\n 28854: a2 = u64 [a3 + 0x8]\n 28857: a3 = u64 [a3]\n 28859: a0 = reverse a0\n 28861: u64 [s1 + 0x178] = a0\n 28865: a0 = reverse a1\n 28867: u64 [s1 + 0x168] = a0\n 28871: a0 = reverse a2\n 28873: u64 [s1 + 0x160] = a0\n 28877: a0 = reverse a3\n 28879: u64 [s1 + 0x158] = a0\n 28883: t0 = 0x45a\n 28887: a2 = s1 + 0x1918\n 28891: fallthrough\n      : @1076 [@dyn 557] (gas: 8)\n 28892: u64 [a2 + 1504] = 0\n 28896: u64 [a2 + 1496] = 0\n 28900: u64 [a2 + 1488] = 0\n 28904: a1 = s1 + 0x1ee0\n 28908: a0 = u64 [s1 + 0x170]\n 28912: u64 [a2 + 0x5c8] = a0\n 28916: a0 = 0\n 28918: ra = 1116, jump @24\n      : @1077 [@dyn 558] (gas: 14)\n 28924: a0 = u64 [s1 + 0x158]\n 28928: a1 = s1 + 0x1918\n 28932: a2 = a1 + 0x500\n 28936: u64 [a2 + 0xc0] = a0\n 28940: a0 = u64 [s1 + 0x160]\n 28944: u64 [a2 + 0xb8] = a0\n 28948: a0 = u64 [s1 + 0x168]\n 28952: u64 [a2 + 0xb0] = a0\n 28956: a3 = a1\n 28958: a0 = 0x20\n 28961: a1 = s1 + 0x1ec0\n 28965: a2 = u64 [s1 + 0x178]\n 28969: u64 [a3 + 0x5a8] = a2\n 28973: ra = 1118, jump @24\n      : @1078 [@dyn 559] (gas: 3)\n 28979: a0 = u64 [s1 + 0x198]\n 28983: a0 = i32 [a0]\n 28985: jump @1080 if a0 >u 63\n      : @1079 (gas: 3)\n 28989: a0 = u64 [s1 + 0x198]\n 28993: u32 [a0 + 0] = 0x40\n 28996: fallthrough\n      : @1080 (gas: 4)\n 28997: a0 = sp + 0xffffffffffffffe0\n 29000: a0 = a0 & 0xffffffffffffffe0\n 29003: u64 [s1 + 0x178] = a0\n 29007: t0 = 1120, jump @1522\n      : @1081 [@dyn 560] (gas: 28)\n 29013: ecalli 9 // 'hash_keccak_256'\n 29015: a3 = u64 [s1 + 0x178]\n 29019: a0 = u64 [a3]\n 29021: a1 = u64 [a3 + 0x8]\n 29024: a2 = u64 [a3 + 0x10]\n 29027: a3 = u64 [a3 + 0x18]\n 29030: t0 = reverse a0\n 29032: a0 = reverse a1\n 29034: a2 = reverse a2\n 29036: a3 = reverse a3\n 29038: a4 = sp + 0xffffffffffffffe0\n 29041: a1 = a4 & 0xffffffffffffffe0\n 29044: sp = a1\n 29046: a4 = a3 + 0x2\n 29049: a3 = a4 <u a3\n 29052: a5 = a2 + a3\n 29055: a2 = a5 <u a2\n 29058: a2 = a3 if a3 == 0\n 29061: a2 = a2 + a0\n 29064: a0 = a2 <u a0\n 29067: a0 = a0 + t0\n 29070: u64 [a1 + 0x8] = a5\n 29073: u64 [a1] = a4\n 29075: u64 [a1 + 0x10] = a2\n 29078: u64 [a1 + 0x18] = a0\n 29081: a0 = s1 + 0x1ea0\n 29085: u64 [s1 + 0x178] = a1\n 29089: ra = 1122, jump @26\n      : @1082 [@dyn 561] (gas: 4)\n 29095: a0 = s1 + 0x1918\n 29099: a0 = u64 [a0 + 0x590]\n 29103: a1 = a0 & 0xff\n 29107: jump @1129 if a1 == 0\n      : @1083 (gas: 3)\n 29111: t0 = 0x464\n 29115: a2 = s1 + 0x1918\n 29119: fallthrough\n      : @1084 [@dyn 562] (gas: 9)\n 29120: u64 [a2 + 1400] = 0\n 29124: u64 [a2 + 1392] = 0\n 29128: a0 = 0xc1c184c800000000\n 29138: u64 [a2 + 0x580] = a0\n 29142: a1 = s1 + 0x1e80\n 29146: u64 [a2 + 1384] = 0\n 29150: a0 = 0\n 29152: ra = 0x494\n 29156: jump @24\n      : @1085 (gas: 3)\n 29159: t0 = 0x466\n 29163: a2 = s1 + 0x1918\n 29167: fallthrough\n      : @1086 [@dyn 563] (gas: 9)\n 29168: u64 [a2 + 856] = 0\n 29172: u64 [a2 + 848] = 0\n 29176: a0 = 0x6f1cf7db00000000\n 29186: u64 [a2 + 0x360] = a0\n 29190: a1 = s1 + 0x1c60\n 29194: u64 [a2 + 840] = 0\n 29198: a0 = 0\n 29200: ra = 0x51a\n 29204: jump @24\n      : @1087 (gas: 2)\n 29207: u64 [s1 + 344] = 0\n 29211: fallthrough\n      : @1088 (gas: 7)\n 29212: a2 = s1 + 0x100\n 29216: a0 = u64 [a2 + 0x78]\n 29219: a0 = a0 << 0x1\n 29222: a1 = u64 [a2 + 0x58]\n 29225: a0 = a0 | a1\n 29228: u64 [a2 + 0x98] = a0\n 29232: fallthrough\n      : @1089 (gas: 3)\n 29233: a0 = u64 [s1 + 0xf0]\n 29237: a1 = u64 [s1 + 0x198]\n 29241: jump @1149 if a0 != a1\n      : @1090 (gas: 6)\n 29245: a0 = u64 [s1 + 0x100]\n 29249: ra = 0x468\n 29253: ecalli 5 // 'caller'\n 29255: a2 = u64 [s1 + 0x108]\n 29259: t0 = 0x46a\n 29263: jump @1506\n      : @1091 [@dyn 564] (gas: 2)\n 29266: a2 = u64 [s1 + 0x108]\n 29270: t0 = 1130, jump @1506\n      : @1092 [@dyn 565] (gas: 8)\n 29276: u64 [a2 + 800] = 0\n 29280: a4 = a2 + 0x300\n 29284: u64 [a4 + 0x18] = a1\n 29287: u64 [a4 + 0x10] = a0\n 29290: a1 = s1 + 0x1c20\n 29294: u64 [a4 + 0x8] = a3\n 29297: a0 = 0\n 29299: ra = 1132, jump @24\n      : @1093 [@dyn 566] (gas: 3)\n 29305: t0 = 0x46e\n 29309: a1 = s1 + 0x1918\n 29313: fallthrough\n      : @1094 [@dyn 567] (gas: 8)\n 29314: u64 [a1 + 768] = 0\n 29318: u64 [a1 + 760] = 0\n 29322: u64 [a1 + 744] = 0x2\n 29327: a2 = a1\n 29329: a0 = 0x20\n 29332: a1 = s1 + 0x1c00\n 29336: u64 [a2 + 752] = 0\n 29340: ra = 1136, jump @24\n      : @1095 [@dyn 568] (gas: 3)\n 29346: a0 = u64 [s1 + 0x118]\n 29350: a0 = i32 [a0]\n 29352: jump @1097 if a0 >u 63\n      : @1096 (gas: 4)\n 29356: a1 = u64 [s1 + 0x118]\n 29360: u32 [a1 + 0] = 0x40\n 29363: t0 = 0x472\n 29367: jump @1512\n      : @1097 (gas: 1)\n 29370: t0 = 1138, jump @1512\n      : @1098 [@dyn 569] (gas: 4)\n 29376: ra = 0x474\n 29380: ecalli 9 // 'hash_keccak_256'\n 29382: t0 = 0x476\n 29386: jump @1517\n      : @1099 [@dyn 570] (gas: 1)\n 29389: t0 = 1142, jump @1517\n      : @1100 [@dyn 571] (gas: 8)\n 29395: u64 [a2 + 736] = 0\n 29399: u64 [a2 + 728] = 0\n 29403: u64 [a2 + 720] = 0\n 29407: a1 = s1 + 0x1be0\n 29411: a0 = u64 [s1 + 0xf8]\n 29415: u64 [a2 + 0x2c8] = a0\n 29419: a0 = 0\n 29421: ra = 1144, jump @24\n      : @1101 [@dyn 572] (gas: 14)\n 29427: a0 = u64 [s1 + 0x178]\n 29431: a1 = s1 + 0x1918\n 29435: a2 = a1 + 0x200\n 29439: u64 [a2 + 0xc0] = a0\n 29443: a0 = u64 [s1 + 0x180]\n 29447: u64 [a2 + 0xb8] = a0\n 29451: a0 = u64 [s1 + 0x188]\n 29455: u64 [a2 + 0xb0] = a0\n 29459: a3 = a1\n 29461: a0 = 0x20\n 29464: a1 = s1 + 0x1bc0\n 29468: a2 = u64 [s1 + 0x190]\n 29472: u64 [a3 + 0x2a8] = a2\n 29476: ra = 1146, jump @24\n      : @1102 [@dyn 573] (gas: 3)\n 29482: a0 = u64 [s1 + 0x118]\n 29486: a0 = i32 [a0]\n 29488: jump @1104 if a0 >u 63\n      : @1103 (gas: 4)\n 29492: a0 = u64 [s1 + 0x118]\n 29496: u32 [a0 + 0] = 0x40\n 29499: t0 = 0x47c\n 29503: jump @1512\n      : @1104 (gas: 1)\n 29506: t0 = 1148, jump @1512\n      : @1105 [@dyn 574] (gas: 4)\n 29512: ra = 0x47e\n 29516: ecalli 9 // 'hash_keccak_256'\n 29518: t0 = 0x480\n 29522: jump @1546\n      : @1106 [@dyn 575] (gas: 1)\n 29525: t0 = 1152, jump @1546\n      : @1107 [@dyn 576] (gas: 2)\n 29531: a4 = a3 + 0x2\n 29534: t0 = 1154, jump @1516\n      : @1108 [@dyn 577] (gas: 9)\n 29540: a1 = s1 + 0x2918\n 29544: a3 = a1 + 0x600\n 29548: u64 [a3 + 0xe8] = a4\n 29552: u64 [a3 + 0xf0] = a5\n 29556: u64 [a3 + 0xf8] = a2\n 29560: u64 [a1 + 0x700] = a0\n 29564: a0 = s1 + 0x1ba0\n 29568: a1 = s1 + 0x3000\n 29572: ra = 1156, jump @26\n      : @1109 [@dyn 578] (gas: 3)\n 29578: a0 = s1 + 0x1918\n 29582: a0 = u8 [a0 + 0x290]\n 29586: jump @1151 if a0 == 0\n      : @1110 (gas: 3)\n 29590: t0 = 0x486\n 29594: a2 = s1 + 0x1918\n 29598: fallthrough\n      : @1111 [@dyn 579] (gas: 9)\n 29599: u64 [a2 + 632] = 0\n 29603: u64 [a2 + 624] = 0\n 29607: a0 = 0xa7a9536d00000000\n 29617: u64 [a2 + 0x280] = a0\n 29621: a1 = s1 + 0x1b80\n 29625: u64 [a2 + 616] = 0\n 29629: a0 = 0\n 29631: ra = 0x51a\n 29635: jump @24\n      : @1112 (gas: 3)\n 29638: a0 = u64 [s1 + 0x198]\n 29642: a0 = i32 [a0]\n 29644: jump @1180 if a0 >u 99\n      : @1113 (gas: 2)\n 29649: a1 = 0x20190\n 29654: jump @1039\n      : @1114 (gas: 4)\n 29657: a0 = s1 + 0x220\n 29661: ra = 0x488\n 29665: t0 = 0x578\n 29669: jump @1568\n      : @1115 [@dyn 580] (gas: 11)\n 29672: a3 = s1 + 0x200\n 29676: a0 = u64 [a3 + 0x20]\n 29679: a1 = u64 [a3 + 0x28]\n 29682: a2 = u32 [s1 + 0x230]\n 29686: u64 [s1 + 536] = 0\n 29690: u64 [a3 + 0x10] = a2\n 29693: u64 [a3 + 0x8] = a1\n 29696: a1 = s1 + 0x200\n 29700: u64 [a3] = a0\n 29702: a0 = 0\n 29704: ra = 1162, jump @24\n      : @1116 [@dyn 581] (gas: 7)\n 29710: u64 [s1 + 504] = 0\n 29714: u64 [s1 + 496] = 0\n 29718: u64 [s1 + 480] = 0x3\n 29723: a0 = 0x20\n 29726: a1 = s1 + 0x1e0\n 29730: u64 [s1 + 488] = 0\n 29734: ra = 1164, jump @24\n      : @1117 [@dyn 582] (gas: 4)\n 29740: a0 = 0x20180\n 29745: u64 [s1 + 0x198] = a0\n 29749: a0 = i32 [0x20180]\n 29754: jump @1119 if a0 >u 63\n      : @1118 (gas: 3)\n 29758: a1 = u64 [s1 + 0x198]\n 29762: u32 [a1 + 0] = 0x40\n 29765: fallthrough\n      : @1119 (gas: 28)\n 29766: a0 = sp + 0xffffffffffffffe0\n 29769: a2 = a0 & 0xffffffffffffffe0\n 29772: u64 [s1 + 0x188] = a2\n 29776: sp = a2\n 29778: a0 = 0x20190\n 29783: u64 [s1 + 0x190] = a0\n 29787: i32 a0 = a0 + 0\n 29789: i32 a2 = a2 + 0\n 29791: a1 = 0x40\n 29794: ecalli 9 // 'hash_keccak_256'\n 29796: a3 = u64 [s1 + 0x188]\n 29800: a0 = u64 [a3 + 0x18]\n 29803: a1 = u64 [a3 + 0x10]\n 29806: a2 = u64 [a3 + 0x8]\n 29809: a3 = u64 [a3]\n 29811: a0 = reverse a0\n 29813: a1 = reverse a1\n 29815: a2 = reverse a2\n 29817: a3 = reverse a3\n 29819: a4 = s1 + 0x2918\n 29823: a5 = a4 + 0x100\n 29827: u64 [a5 + 0x20] = a3\n 29830: u64 [a5 + 0x18] = a2\n 29833: u64 [a5 + 0x10] = a1\n 29836: u64 [a5 + 0x8] = a0\n 29839: a0 = s1 + 0x1c0\n 29843: a1 = s1 + 0x2a20\n 29847: ra = 1166, jump @26\n      : @1120 [@dyn 583] (gas: 8)\n 29853: a0 = u32 [s1 + 0x1c0]\n 29857: u64 [s1 + 440] = 0\n 29861: u64 [s1 + 432] = 0\n 29865: u64 [s1 + 0x1a0] = a0\n 29869: a0 = 0x80\n 29873: a1 = s1 + 0x1a0\n 29877: u64 [s1 + 424] = 0\n 29881: ra = 1168, jump @24\n      : @1121 [@dyn 584] (gas: 3)\n 29887: a0 = u64 [s1 + 0x198]\n 29891: a0 = i32 [a0]\n 29893: jump @1123 if a0 >u 159\n      : @1122 (gas: 5)\n 29898: a1 = u64 [s1 + 0x198]\n 29902: u32 [a1 + 0] = 0xa0\n 29906: a0 = u64 [s1 + 0x190]\n 29910: i32 a1 = a0 + 0x80\n 29914: jump @961\n      : @1123 (gas: 3)\n 29917: a0 = u64 [s1 + 0x190]\n 29921: i32 a1 = a0 + 0x80\n 29925: jump @961\n      : @1124 (gas: 3)\n 29928: t0 = 0x492\n 29932: a2 = s1 + 0x1918\n 29936: fallthrough\n      : @1125 [@dyn 585] (gas: 8)\n 29937: u64 [a2 + 1592] = 0\n 29941: u64 [a2 + 1584] = 0\n 29945: a0 = 0x6f1cf7db00000000\n 29955: u64 [a2 + 0x640] = a0\n 29959: a1 = s1 + 0x1f40\n 29963: u64 [a2 + 1576] = 0\n 29967: a0 = 0\n 29969: ra = 1172, jump @24\n      : @1126 [@dyn 586] (gas: 3)\n 29975: a0 = u64 [s1 + 0x198]\n 29979: a0 = i32 [a0]\n 29981: jump @1128 if a0 >u 31\n      : @1127 (gas: 5)\n 29985: a1 = u64 [s1 + 0x198]\n 29989: u32 [a1 + 0] = 0x20\n 29992: a0 = 0x1\n 29995: a2 = 0x4\n 29998: jump @1217\n      : @1128 (gas: 7)\n 30001: a0 = 0x1\n 30004: a2 = 0x4\n 30007: a1 = u64 [s1 + 0x190]\n 30011: ecalli 14 // 'seal_return'\n 30013: t0 = 0x518\n 30017: a2 = s1 + 0x1918\n 30021: jump @1219\n      : @1129 (gas: 17)\n 30024: a1 = 0xffffffff\n 30034: u64 [s1 + 0x168] = a1\n 30038: a3 = s1 + 0x1918\n 30042: a4 = a3 + 0x500\n 30046: a1 = u64 [a4 + 0x88]\n 30050: a2 = u64 [a4 + 0x98]\n 30054: a3 = u64 [a4 + 0xa0]\n 30058: a0 = a0 | 0x1\n 30061: a4 = s1 + 0x2918\n 30065: a5 = a4 + 0x700\n 30069: u64 [a5 + 0x48] = a1\n 30072: u64 [a5 + 0x58] = a2\n 30075: u64 [a5 + 0x50] = a0\n 30078: u64 [a5 + 0x60] = a3\n 30081: a1 = s1 + 0x3060\n 30085: a0 = u64 [s1 + 0x178]\n 30089: ra = 1174, jump @28\n      : @1130 [@dyn 587] (gas: 6)\n 30095: a0 = u64 [s1 + 0x180]\n 30099: ra = 0x498\n 30103: ecalli 5 // 'caller'\n 30105: a2 = u64 [s1 + 0x188]\n 30109: t0 = 0x49a\n 30113: jump @1506\n      : @1131 [@dyn 588] (gas: 2)\n 30116: a2 = u64 [s1 + 0x188]\n 30120: t0 = 1178, jump @1506\n      : @1132 [@dyn 589] (gas: 8)\n 30126: u64 [a2 + 1376] = 0\n 30130: a4 = a2 + 0x500\n 30134: u64 [a4 + 0x58] = a1\n 30137: u64 [a4 + 0x50] = a0\n 30140: a1 = s1 + 0x1e60\n 30144: u64 [a4 + 0x48] = a3\n 30147: a0 = 0\n 30149: ra = 1180, jump @24\n      : @1133 [@dyn 590] (gas: 3)\n 30155: t0 = 0x49e\n 30159: a1 = s1 + 0x1918\n 30163: fallthrough\n      : @1134 [@dyn 591] (gas: 8)\n 30164: u64 [a1 + 1344] = 0\n 30168: u64 [a1 + 1336] = 0\n 30172: u64 [a1 + 1320] = 0x1\n 30177: a2 = a1\n 30179: a0 = 0x20\n 30182: a1 = s1 + 0x1e40\n 30186: u64 [a2 + 1328] = 0\n 30190: ra = 1184, jump @24\n      : @1135 [@dyn 592] (gas: 1)\n 30196: t0 = 1186, jump @1576\n      : @1136 [@dyn 593] (gas: 3)\n 30202: a0 = u64 [s1 + 0x198]\n 30206: a0 = i32 [a0]\n 30208: jump @1138 if a0 >u 63\n      : @1137 (gas: 3)\n 30212: a1 = u64 [s1 + 0x198]\n 30216: u32 [a1 + 0] = 0x40\n 30219: fallthrough\n      : @1138 (gas: 4)\n 30220: a0 = sp + 0xffffffffffffffe0\n 30223: a0 = a0 & 0xffffffffffffffe0\n 30226: u64 [s1 + 0x160] = a0\n 30230: t0 = 1188, jump @1522\n      : @1139 [@dyn 594] (gas: 3)\n 30236: ra = 0x4a6\n 30240: ecalli 9 // 'hash_keccak_256'\n 30242: fallthrough\n      : @1140 [@dyn 595] (gas: 11)\n 30243: a3 = u64 [s1 + 0x160]\n 30247: a0 = u64 [a3]\n 30249: a1 = u64 [a3 + 0x8]\n 30252: a2 = u64 [a3 + 0x10]\n 30255: a3 = u64 [a3 + 0x18]\n 30258: a0 = reverse a0\n 30260: a1 = reverse a1\n 30262: a2 = reverse a2\n 30264: a3 = reverse a3\n 30266: a4 = a3 + 0x3\n 30269: t0 = 1192, jump @1516\n      : @1141 [@dyn 596] (gas: 7)\n 30275: a1 = u64 [s1 + 0x178]\n 30279: u64 [a1] = a4\n 30281: u64 [a1 + 0x8] = a5\n 30284: u64 [a1 + 0x10] = a2\n 30287: u64 [a1 + 0x18] = a0\n 30290: a0 = s1 + 0x1e20\n 30294: ra = 1194, jump @26\n      : @1142 [@dyn 597] (gas: 5)\n 30300: a0 = s1 + 0x1918\n 30304: a0 = u64 [a0 + 0x508]\n 30308: a1 = u64 [s1 + 0x168]\n 30312: a1 = a1 & a0\n 30315: jump @1210 if a1 == 0\n      : @1143 (gas: 7)\n 30319: a1 = u64 [s1 + 0x168]\n 30323: a0 = a0 + a1\n 30326: a0 = a0 & a1\n 30329: u64 [s1 + 0x198] = a0\n 30333: a0 = s1 + 0x1e00\n 30337: a1 = u64 [s1 + 0x178]\n 30341: ra = 1196, jump @26\n      : @1144 [@dyn 598] (gas: 17)\n 30347: a3 = s1 + 0x1918\n 30351: a0 = u32 [a3 + 0x4ec]\n 30355: a0 = a0 << 0x20\n 30358: a1 = u64 [a3 + 0x500]\n 30362: a2 = u64 [a3 + 0x4f8]\n 30366: a3 = u64 [a3 + 0x4f0]\n 30370: a4 = u64 [s1 + 0x198]\n 30374: a0 = a0 | a4\n 30377: a4 = s1 + 0x2918\n 30381: a5 = a4 + 0x700\n 30385: u64 [a5 + 0x80] = a1\n 30389: u64 [a5 + 0x78] = a2\n 30392: u64 [a5 + 0x70] = a3\n 30395: u64 [a5 + 0x68] = a0\n 30398: a1 = s1 + 0x3080\n 30402: a0 = u64 [s1 + 0x178]\n 30406: ra = 1198, jump @28\n      : @1145 [@dyn 599] (gas: 6)\n 30412: a0 = u64 [s1 + 0x180]\n 30416: ra = 0x4b0\n 30420: ecalli 5 // 'caller'\n 30422: a2 = u64 [s1 + 0x188]\n 30426: t0 = 0x4b2\n 30430: jump @1509\n      : @1146 [@dyn 600] (gas: 2)\n 30433: a2 = u64 [s1 + 0x188]\n 30437: t0 = 1202, jump @1509\n      : @1147 [@dyn 601] (gas: 31)\n 30443: t0 = a1 | a0\n 30446: a3 = a3 >> 0x20\n 30449: a2 = reverse a2\n 30451: a1 = a2 << 0x20\n 30454: a1 = a1 | a3\n 30457: a2 = a2 >> 0x20\n 30460: a3 = u64 [s1 + 0x170]\n 30464: a0 = s1 + 0x1918\n 30468: u64 [a0 + 0x488] = a3\n 30472: a3 = u64 [0x20040]\n 30477: a4 = u64 [0x20048]\n 30482: a5 = u64 [0x20050]\n 30487: u64 [a0 + 0x4e0] = a3\n 30491: u64 [a0 + 0x4d8] = a4\n 30495: u64 [a0 + 1184] = 0\n 30499: a4 = a0 + 0x400\n 30503: u64 [a4 + 0xd0] = a5\n 30507: a3 = u64 [0x20058]\n 30512: u64 [a0 + 1176] = 0\n 30516: u64 [a0 + 1168] = 0\n 30520: u64 [a0 + 1216] = 0\n 30524: u64 [a4 + 0xc8] = a3\n 30528: u64 [a4 + 0xb8] = a2\n 30532: u64 [a4 + 0xb0] = a1\n 30536: a2 = s1 + 0x1de0\n 30540: a3 = s1 + 0x1dc0\n 30544: a4 = s1 + 0x1da0\n 30548: u64 [a0 + 0x4a8] = t0\n 30552: a0 = 0\n 30554: a1 = 0\n 30556: ra = 1204, jump @31\n      : @1148 [@dyn 602] (gas: 3)\n 30562: a0 = 0\n 30564: a1 = u64 [s1 + 0x190]\n 30568: jump @1040\n      : @1149 (gas: 3)\n 30571: t0 = 0x4b6\n 30575: a2 = s1 + 0x1918\n 30579: fallthrough\n      : @1150 [@dyn 603] (gas: 9)\n 30580: u64 [a2 + 824] = 0\n 30584: u64 [a2 + 816] = 0\n 30588: a0 = 0xd5b25b6300000000\n 30598: u64 [a2 + 0x340] = a0\n 30602: a1 = s1 + 0x1c40\n 30606: u64 [a2 + 808] = 0\n 30610: a0 = 0\n 30612: ra = 0x51a\n 30616: jump @24\n      : @1151 (gas: 6)\n 30619: a0 = u64 [s1 + 0x100]\n 30623: ra = 0x4b8\n 30627: ecalli 5 // 'caller'\n 30629: a2 = u64 [s1 + 0x108]\n 30633: t0 = 0x4ba\n 30637: jump @1506\n      : @1152 [@dyn 604] (gas: 2)\n 30640: a2 = u64 [s1 + 0x108]\n 30644: t0 = 1210, jump @1506\n      : @1153 [@dyn 605] (gas: 8)\n 30650: u64 [a2 + 608] = 0\n 30654: a4 = a2 + 0x200\n 30658: u64 [a4 + 0x58] = a1\n 30661: u64 [a4 + 0x50] = a0\n 30664: a1 = s1 + 0x1b60\n 30668: u64 [a4 + 0x48] = a3\n 30671: a0 = 0\n 30673: ra = 1212, jump @24\n      : @1154 [@dyn 606] (gas: 3)\n 30679: t0 = 0x4be\n 30683: a1 = s1 + 0x1918\n 30687: fallthrough\n      : @1155 [@dyn 607] (gas: 8)\n 30688: u64 [a1 + 576] = 0\n 30692: u64 [a1 + 568] = 0\n 30696: u64 [a1 + 552] = 0x4\n 30701: a2 = a1\n 30703: a0 = 0x20\n 30706: a1 = s1 + 0x1b40\n 30710: u64 [a2 + 560] = 0\n 30714: ra = 1216, jump @24\n      : @1156 [@dyn 608] (gas: 3)\n 30720: a0 = u64 [s1 + 0x118]\n 30724: a0 = i32 [a0]\n 30726: jump @1158 if a0 >u 63\n      : @1157 (gas: 4)\n 30730: a1 = u64 [s1 + 0x118]\n 30734: u32 [a1 + 0] = 0x40\n 30737: t0 = 0x4c2\n 30741: jump @1512\n      : @1158 (gas: 1)\n 30744: t0 = 1218, jump @1512\n      : @1159 [@dyn 609] (gas: 4)\n 30750: ra = 0x4c4\n 30754: ecalli 9 // 'hash_keccak_256'\n 30756: t0 = 0x4c6\n 30760: jump @1517\n      : @1160 [@dyn 610] (gas: 1)\n 30763: t0 = 1222, jump @1517\n      : @1161 [@dyn 611] (gas: 8)\n 30769: u64 [a2 + 544] = 0\n 30773: u64 [a2 + 536] = 0\n 30777: u64 [a2 + 528] = 0\n 30781: a1 = s1 + 0x1b20\n 30785: a0 = u64 [s1 + 0x198]\n 30789: u64 [a2 + 0x208] = a0\n 30793: a0 = 0\n 30795: ra = 1224, jump @24\n      : @1162 [@dyn 612] (gas: 13)\n 30801: a0 = u64 [s1 + 0x178]\n 30805: a1 = s1 + 0x1918\n 30809: u64 [a1 + 0x200] = a0\n 30813: a0 = u64 [s1 + 0x180]\n 30817: u64 [a1 + 0x1f8] = a0\n 30821: a0 = u64 [s1 + 0x188]\n 30825: u64 [a1 + 0x1f0] = a0\n 30829: a3 = a1\n 30831: a0 = 0x20\n 30834: a1 = s1 + 0x1b00\n 30838: a2 = u64 [s1 + 0x190]\n 30842: u64 [a3 + 0x1e8] = a2\n 30846: ra = 1226, jump @24\n      : @1163 [@dyn 613] (gas: 3)\n 30852: a0 = u64 [s1 + 0x118]\n 30856: a0 = i32 [a0]\n 30858: jump @1165 if a0 >u 63\n      : @1164 (gas: 4)\n 30862: a0 = u64 [s1 + 0x118]\n 30866: u32 [a0 + 0] = 0x40\n 30869: t0 = 0x4cc\n 30873: jump @1512\n      : @1165 (gas: 1)\n 30876: t0 = 1228, jump @1512\n      : @1166 [@dyn 614] (gas: 5)\n 30882: ra = 0x4ce\n 30886: ecalli 9 // 'hash_keccak_256'\n 30888: a3 = u64 [s1 + 0x190]\n 30892: t0 = 0x4d0\n 30896: jump @1521\n      : @1167 [@dyn 615] (gas: 2)\n 30899: a3 = u64 [s1 + 0x190]\n 30903: t0 = 1232, jump @1521\n      : @1168 [@dyn 616] (gas: 5)\n 30909: u64 [s1 + 0x190] = a0\n 30913: sp = a0\n 30915: t0 = 0x4d2\n 30919: a2 = s1 + 0x1918\n 30923: fallthrough\n      : @1169 [@dyn 617] (gas: 8)\n 30924: u64 [a2 + 480] = 0\n 30928: u64 [a2 + 472] = 0\n 30932: u64 [a2 + 464] = 0\n 30936: a1 = s1 + 0x1ae0\n 30940: a0 = u64 [s1 + 0xf8]\n 30944: u64 [a2 + 0x1c8] = a0\n 30948: a0 = 0\n 30950: ra = 1236, jump @24\n      : @1170 [@dyn 618] (gas: 14)\n 30956: a0 = u64 [s1 + 0x170]\n 30960: a1 = s1 + 0x1918\n 30964: a2 = a1 + 0x100\n 30968: u64 [a2 + 0xc0] = a0\n 30972: a0 = u64 [s1 + 0x178]\n 30976: u64 [a2 + 0xb8] = a0\n 30980: a0 = u64 [s1 + 0x180]\n 30984: u64 [a2 + 0xb0] = a0\n 30988: a3 = a1\n 30990: a0 = 0x20\n 30993: a1 = s1 + 0x1ac0\n 30997: a2 = u64 [s1 + 0x188]\n 31001: u64 [a3 + 0x1a8] = a2\n 31005: ra = 1238, jump @24\n      : @1171 [@dyn 619] (gas: 3)\n 31011: a0 = u64 [s1 + 0x118]\n 31015: a0 = i32 [a0]\n 31017: jump @1173 if a0 >=u 64\n      : @1172 (gas: 3)\n 31021: a0 = u64 [s1 + 0x118]\n 31025: u32 [a0 + 0] = 0x40\n 31028: fallthrough\n      : @1173 (gas: 12)\n 31029: a0 = sp + 0xffffffffffffffe0\n 31032: a0 = a0 & 0xffffffffffffffe0\n 31035: u64 [s1 + 0x188] = a0\n 31039: sp = a0\n 31041: i32 a2 = a0 + 0\n 31043: a1 = 0x40\n 31046: a0 = u64 [s1 + 0x110]\n 31050: ra = 0x4d8\n 31054: ecalli 9 // 'hash_keccak_256'\n 31056: a3 = u64 [s1 + 0x188]\n 31060: t0 = 0x4da\n 31064: jump @1514\n      : @1174 [@dyn 620] (gas: 2)\n 31067: a3 = u64 [s1 + 0x188]\n 31071: t0 = 1242, jump @1514\n      : @1175 [@dyn 621] (gas: 7)\n 31077: a1 = u64 [s1 + 0x190]\n 31081: u64 [a1 + 0x18] = a3\n 31084: u64 [a1 + 0x10] = a2\n 31087: u64 [a1 + 0x8] = a4\n 31090: u64 [a1] = a0\n 31092: a0 = s1 + 0x1aa0\n 31096: ra = 1244, jump @26\n      : @1176 [@dyn 622] (gas: 4)\n 31102: a0 = s1 + 0x1918\n 31106: a0 = u64 [a0 + 0x188]\n 31110: a1 = a0 & 0xff\n 31114: jump @1218 if a1 == 0\n      : @1177 (gas: 2)\n 31118: a1 = a0 & 0xff00\n 31123: jump @1223 if a1 == 0\n      : @1178 (gas: 3)\n 31127: t0 = 0x4de\n 31131: a2 = s1 + 0x1918\n 31135: fallthrough\n      : @1179 [@dyn 623] (gas: 9)\n 31136: u64 [a2 + 376] = 0\n 31140: u64 [a2 + 368] = 0\n 31144: a0 = 0xc98289f000000000\n 31154: u64 [a2 + 0x180] = a0\n 31158: a1 = s1 + 0x1a80\n 31162: u64 [a2 + 360] = 0\n 31166: a0 = 0\n 31168: ra = 0x51a\n 31172: jump @24\n      : @1180 (gas: 5)\n 31175: a0 = s1 + 0x7ff\n 31179: a0 = a0 + 0x4a1\n 31183: ra = 0x4e0\n 31187: t0 = 0x578\n 31191: jump @1568\n      : @1181 [@dyn 624] (gas: 16)\n 31194: a1 = s1 + 0x7ff\n 31198: a1 = a1 + 0x119\n 31202: a2 = a1 + 0x300\n 31206: a0 = u64 [a2 + 0xa0]\n 31210: u64 [s1 + 0xd8] = a0\n 31214: a0 = u64 [a2 + 0x98]\n 31218: u64 [s1 + 0xe0] = a0\n 31222: a0 = u64 [a2 + 0x90]\n 31226: u64 [s1 + 0x118] = a0\n 31230: a0 = u64 [a2 + 0x88]\n 31234: u64 [s1 + 0x110] = a0\n 31238: a0 = s1 + 0x7ff\n 31242: a0 = a0 + 0x481\n 31246: ra = 0x4e2\n 31250: t0 = 0x57c\n 31254: jump @1585\n      : @1182 [@dyn 625] (gas: 16)\n 31257: a1 = s1 + 0x7ff\n 31261: a1 = a1 + 0x119\n 31265: a2 = a1 + 0x300\n 31269: a0 = u64 [a2 + 0x80]\n 31273: u64 [s1 + 0xd0] = a0\n 31277: a0 = u64 [a2 + 0x78]\n 31280: u64 [s1 + 0xc8] = a0\n 31284: a0 = u64 [a2 + 0x70]\n 31287: u64 [s1 + 0xc0] = a0\n 31291: a0 = u64 [a2 + 0x68]\n 31294: u64 [s1 + 0x100] = a0\n 31298: a0 = s1 + 0x7ff\n 31302: a0 = a0 + 0x461\n 31306: ra = 0x4e4\n 31310: t0 = 0x582\n 31314: jump @1585\n      : @1183 [@dyn 626] (gas: 8)\n 31317: a0 = s1 + 0x7ff\n 31321: a0 = a0 + 0x119\n 31325: a0 = u64 [a0 + 0x348]\n 31329: u64 [s1 + 0x108] = a0\n 31333: a0 = s1 + 0x3000\n 31337: i32 a0 = a0 + 0xfffffffffffffd00\n 31341: ecalli 10 // 'now'\n 31343: fallthrough\n      : @1184 (gas: 49)\n 31344: a0 = s1 + 0x2918\n 31348: t0 = u64 [a0 + 0x400]\n 31352: a4 = u64 [a0 + 0x3f8]\n 31356: u64 [s1 + 0x158] = a4\n 31360: t2 = u64 [a0 + 0x3f0]\n 31364: a3 = u64 [a0 + 0x3e8]\n 31368: u64 [s1 + 0x140] = a3\n 31372: a0 = clz t0\n 31374: a1 = clz a4\n 31376: a2 = a1 + 0x40\n 31379: a2 = a0 if t0 != 0\n 31382: a0 = clz t2\n 31384: a1 = clz a3\n 31386: a1 = a1 + 0x40\n 31389: a1 = a0 if t2 != 0\n 31392: a0 = a1 + 0x80\n 31396: a3 = a4 | t0\n 31399: a2 = a0 if a3 == 0\n 31402: a5 = a0 <u a1\n 31405: a5 = 0 if a3 != 0\n 31407: a4 = a5 >u 0\n 31409: a0 = a2 <u 0xf0\n 31413: a3 = a0 ^ 0x1\n 31416: a4 = a3 if a5 == 0\n 31419: a0 = a4 <u 0x1\n 31422: ra = a0 + 0xffffffffffffffff\n 31425: t1 = -a4\n 31427: a5 = -a5\n 31429: a3 = a5 - a3\n 31432: a2 = 0xef - a2\n 31436: a5 = t1 >u 0\n 31438: a0 = ra >u 0\n 31440: a0 = a5 if ra == 0\n 31443: a5 = a2 <u 0x100\n 31447: a5 = a5 ^ 0x1\n 31450: a1 = a3 >u 0\n 31452: a5 = a1 if a3 != 0\n 31455: a5 = a0 if a4 != 0\n 31458: u64 [s1 + 0x138] = t2\n 31462: u64 [s1 + 0x150] = t0\n 31466: a0 = t2 | t0\n 31469: a4 = u64 [s1 + 0x140]\n 31473: a1 = u64 [s1 + 0x158]\n 31477: a1 = a1 | a4\n 31480: a0 = a0 | a1\n 31483: a0 = a0 <u 0x1\n 31486: a0 = a0 | a5\n 31489: a4 = 0 if a0 != 0\n 31491: jump @1230 if a0 != 0\n      : @1185 (gas: 5)\n 31495: a0 = a2 ^ 0xff\n 31499: a0 = a0 | t1\n 31502: a1 = a3 | ra\n 31505: a0 = a0 | a1\n 31508: jump @1230 if a0 == 0\n      : @1186 (gas: 1)\n 31512: t0 = 1254, jump @1513\n      : @1187 [@dyn 627] (gas: 1)\n 31518: ra = 1256, jump @1589\n      : @1188 [@dyn 628] (gas: 1)\n 31524: t0 = 1258, jump @1573\n      : @1189 [@dyn 629] (gas: 1)\n 31530: ra = 1260, jump @1594\n      : @1190 [@dyn 630] (gas: 1)\n 31536: t0 = 1262, jump @1553\n      : @1191 [@dyn 631] (gas: 1)\n 31542: ra = 1264, jump @1594\n      : @1192 [@dyn 632] (gas: 8)\n 31548: u64 [s1 + 0x120] = a0\n 31552: u64 [s1 + 0xf8] = a1\n 31556: a2 = u64 [s1 + 0x160]\n 31560: a0 = a2 <u 0x80\n 31564: u64 [s1 + 0xf0] = a0\n 31568: a0 = u64 [s1 + 0x140]\n 31572: a1 = u64 [s1 + 0x138]\n 31576: ra = 1266, jump @1594\n      : @1193 [@dyn 633] (gas: 1)\n 31582: t0 = 1268, jump @1579\n      : @1194 [@dyn 634] (gas: 4)\n 31588: a3 = u64 [s1 + 0xf0]\n 31592: a0 = 0 if a3 == 0\n 31594: u64 [a4 + 0x78] = a0\n 31597: jump @1228 if a1 == 0\n      : @1195 (gas: 7)\n 31601: a2 = a3\n 31603: a0 = u64 [s1 + 0x168]\n 31607: a1 = u64 [s1 + 0x128]\n 31611: a0 = a0 | a1\n 31614: a5 = a3\n 31616: a1 = u64 [s1 + 0xf8]\n 31620: t0 = 1270, jump @1510\n      : @1196 [@dyn 635] (gas: 1)\n 31626: ra = 1272, jump @1589\n      : @1197 [@dyn 636] (gas: 1)\n 31632: t0 = 1274, jump @1572\n      : @1198 [@dyn 637] (gas: 1)\n 31638: ra = 1276, jump @1589\n      : @1199 [@dyn 638] (gas: 2)\n 31644: u64 [s1 + 0xf8] = a0\n 31648: t0 = 1278, jump @1561\n      : @1200 [@dyn 639] (gas: 1)\n 31654: ra = 1280, jump @1594\n      : @1201 [@dyn 640] (gas: 1)\n 31660: t0 = 1282, jump @1530\n      : @1202 [@dyn 641] (gas: 2)\n 31666: a1 = u64 [s1 + 0xf8]\n 31670: t0 = 1284, jump @1544\n      : @1203 [@dyn 642] (gas: 1)\n 31676: ra = 1286, jump @1589\n      : @1204 [@dyn 643] (gas: 1)\n 31682: t0 = 1288, jump @1519\n      : @1205 [@dyn 644] (gas: 1)\n 31688: t0 = 1290, jump @1531\n      : @1206 [@dyn 645] (gas: 5)\n 31694: t0 = ra <u a2\n 31697: a4 = u64 [s1 + 0x128]\n 31701: a5 = a4 <u a3\n 31704: a5 = t0 if t1 != 0\n 31707: t0 = 1292, jump @1532\n      : @1207 [@dyn 646] (gas: 20)\n 31713: t0 = a0 | a1\n 31716: a1 = a4 << 0x1\n 31719: a4 = u64 [s1 + 0x170]\n 31723: t1 = a4 >> 0x3f\n 31726: t1 = a1 | t1\n 31729: a1 = a4 << 0x1\n 31732: a4 = u64 [s1 + 0x178]\n 31736: t2 = a4 >> 0x3f\n 31739: a1 = a1 | t2\n 31742: a4 = a4 << 0x1\n 31745: a0 = u64 [s1 + 0x158]\n 31749: a4 = a4 | a0\n 31752: u64 [s1 + 0x178] = a4\n 31756: a0 = u64 [s1 + 0x150]\n 31760: a1 = a1 | a0\n 31763: u64 [s1 + 0x170] = a1\n 31767: a1 = a0 | t1\n 31770: u64 [s1 + 0x160] = a1\n 31774: a0 = a0 | t0\n 31777: t0 = 1294, jump @1508\n      : @1208 [@dyn 647] (gas: 18)\n 31783: t0 = a4 <u a2\n 31786: a2 = a4 - a2\n 31789: a4 = a3 <u 0x1\n 31792: a5 = a5 - a4\n 31795: a4 = u64 [a0 + 0x88]\n 31799: a4 = a4 - t0\n 31802: a3 = a3 + 0xffffffffffffffff\n 31805: u64 [a0 + 0x90] = a5\n 31809: u64 [a0 + 0x88] = a4\n 31813: t0 = a5 | a4\n 31816: u64 [a0 + 0x98] = a3\n 31820: a4 = a3 | a2\n 31823: a3 = a4 | t0\n 31826: a4 = ra & 0x1\n 31829: u64 [a0 + 0x58] = a4\n 31832: u64 [a0 + 0x80] = a2\n 31836: u64 [s1 + 336] = 0\n 31840: jump @1205 if a3 != 0\n      : @1209 (gas: 1)\n 31844: jump @1229\n      : @1210 (gas: 5)\n 31847: a0 = s1 + 0x1918\n 31851: u64 [a0 + 1144] = 0\n 31855: u64 [a0 + 1136] = 0\n 31859: u64 [a0 + 1128] = 0\n 31863: t0 = 1296, jump @1586\n      : @1211 [@dyn 648] (gas: 5)\n 31869: i32 a1 = a1 + 0xfffffffffffffd80\n 31873: a1 = a1 + s1\n 31876: u64 [a2 + 0x480] = a0\n 31880: a0 = 0\n 31882: ra = 1298, jump @24\n      : @1212 [@dyn 649] (gas: 3)\n 31888: t0 = 0x514\n 31892: a1 = s1 + 0x1918\n 31896: fallthrough\n      : @1213 [@dyn 650] (gas: 8)\n 31897: u64 [a1 + 1120] = 0\n 31901: u64 [a1 + 1112] = 0\n 31905: u64 [a1 + 1096] = 0x11\n 31910: a2 = a1\n 31912: a0 = 0x4\n 31915: a1 = s1 + 0x1d60\n 31919: u64 [a2 + 1104] = 0\n 31923: ra = 1302, jump @24\n      : @1214 [@dyn 651] (gas: 3)\n 31929: a0 = u64 [s1 + 0x198]\n 31933: a0 = i32 [a0]\n 31935: jump @1216 if a0 >u 63\n      : @1215 (gas: 5)\n 31939: a1 = u64 [s1 + 0x198]\n 31943: u32 [a1 + 0] = 0x40\n 31946: a0 = 0x1\n 31949: a2 = 0x24\n 31952: jump @1217\n      : @1216 (gas: 7)\n 31954: a0 = 0x1\n 31957: a2 = 0x24\n 31960: a1 = u64 [s1 + 0x190]\n 31964: ecalli 14 // 'seal_return'\n 31966: t0 = 0x518\n 31970: a2 = s1 + 0x1918\n 31974: jump @1219\n      : @1217 (gas: 5)\n 31976: a1 = u64 [s1 + 0x190]\n 31980: ecalli 14 // 'seal_return'\n 31982: t0 = 0x518\n 31986: a2 = s1 + 0x1918\n 31990: jump @1219\n      : @1218 (gas: 3)\n 31992: t0 = 0x518\n 31996: a2 = s1 + 0x1918\n 32000: fallthrough\n      : @1219 [@dyn 652] (gas: 8)\n 32001: u64 [a2 + 216] = 0\n 32005: u64 [a2 + 208] = 0\n 32009: a0 = 0xafa4e2b600000000\n 32019: u64 [a2 + 0xe0] = a0\n 32023: a1 = s1 + 0x19e0\n 32027: u64 [a2 + 200] = 0\n 32031: a0 = 0\n 32033: ra = 1306, jump @24\n      : @1220 [@dyn 653] (gas: 3)\n 32039: a0 = u64 [s1 + 0x118]\n 32043: a0 = i32 [a0]\n 32045: jump @1222 if a0 >u 31\n      : @1221 (gas: 3)\n 32049: a1 = u64 [s1 + 0x118]\n 32053: u32 [a1 + 0] = 0x20\n 32056: fallthrough\n      : @1222 (gas: 5)\n 32057: a0 = 0x1\n 32060: a2 = 0x4\n 32063: a1 = u64 [s1 + 0x110]\n 32067: ecalli 14 // 'seal_return'\n 32069: fallthrough\n      : @1223 (gas: 15)\n 32070: a3 = s1 + 0x1918\n 32074: a4 = a3 + 0x100\n 32078: a1 = u64 [a4 + 0x90]\n 32082: a2 = u64 [a4 + 0xa0]\n 32086: a3 = u64 [a4 + 0x98]\n 32090: a0 = a0 | 0x100\n 32094: a4 = s1 + 0x2918\n 32098: a5 = a4 + 0x700\n 32102: u64 [a5 + 0x10] = a1\n 32105: u64 [a5 + 0x8] = a0\n 32108: u64 [a5 + 0x18] = a3\n 32111: u64 [a5 + 0x20] = a2\n 32114: a1 = s1 + 0x3020\n 32118: a0 = u64 [s1 + 0x190]\n 32122: ra = 1308, jump @28\n      : @1224 [@dyn 654] (gas: 6)\n 32128: a0 = u64 [s1 + 0x100]\n 32132: ra = 0x51e\n 32136: ecalli 5 // 'caller'\n 32138: a2 = u64 [s1 + 0x108]\n 32142: t0 = 0x520\n 32146: jump @1509\n      : @1225 [@dyn 655] (gas: 2)\n 32149: a2 = u64 [s1 + 0x108]\n 32153: t0 = 1312, jump @1509\n      : @1226 [@dyn 656] (gas: 38)\n 32159: a0 = a0 | a1\n 32162: a3 = a3 >> 0x20\n 32165: a2 = reverse a2\n 32167: a1 = a2 << 0x20\n 32170: a1 = a1 | a3\n 32173: a2 = a2 >> 0x20\n 32176: a5 = s1 + 0x1918\n 32180: u64 [a5 + 256] = 0\n 32184: u64 [a5 + 248] = 0\n 32188: u64 [a5 + 240] = 0\n 32192: a3 = u64 [s1 + 0x198]\n 32196: u64 [a5 + 0xe8] = a3\n 32200: a3 = u64 [s1 + 0xf8]\n 32204: u64 [a5 + 0x108] = a3\n 32208: a3 = u64 [0x20060]\n 32213: a4 = u64 [0x20068]\n 32218: u64 [a5 + 288] = 0\n 32222: u64 [a5 + 280] = 0\n 32226: u64 [a5 + 0x160] = a3\n 32230: u64 [a5 + 0x158] = a4\n 32234: a3 = u64 [0x20070]\n 32239: a4 = u64 [0x20078]\n 32244: u64 [a5 + 272] = 0\n 32248: u64 [a5 + 320] = 0\n 32252: u64 [a5 + 0x150] = a3\n 32256: a3 = a5 + 0x100\n 32260: u64 [a3 + 0x48] = a4\n 32263: u64 [a3 + 0x38] = a2\n 32266: u64 [a3 + 0x30] = a1\n 32269: a1 = a5\n 32271: a2 = s1 + 0x1a60\n 32275: a3 = s1 + 0x1a40\n 32279: a4 = s1 + 0x1a20\n 32283: a5 = s1 + 0x1a00\n 32287: u64 [a1 + 0x128] = a0\n 32291: a0 = 0\n 32293: a1 = 0\n 32295: ra = 1314, jump @34\n      : @1227 [@dyn 657] (gas: 3)\n 32301: a0 = 0\n 32303: a1 = u64 [s1 + 0x110]\n 32307: jump @1040\n      : @1228 (gas: 2)\n 32310: u64 [s1 + 344] = 0\n 32314: fallthrough\n      : @1229 (gas: 5)\n 32315: a0 = u64 [s1 + 0x178]\n 32319: a0 = a0 << 0x1\n 32322: a4 = u64 [s1 + 0x158]\n 32326: a4 = a4 | a0\n 32329: fallthrough\n      : @1230 (gas: 2)\n 32330: a0 = u64 [s1 + 0x100]\n 32334: jump @1293 if a0 >=u a4\n      : @1231 (gas: 9)\n 32338: a0 = u64 [s1 + 0x108]\n 32342: a0 = a0 << 0x20\n 32345: a1 = a0 >> 0x20\n 32348: a0 = a1 + 0xffffffffffffffff\n 32351: a0 = a0 <u 0x32\n 32354: a0 = 0 if a1 == 0\n 32356: u64 [s1 + 0x128] = a1\n 32360: a0 = 0 if a1 == 0\n 32362: jump @1297 if a0 == 0\n      : @1232 (gas: 19)\n 32366: a0 = 0xffffffff\n 32376: u64 [s1 + 0x130] = a0\n 32380: a0 = u64 [s1 + 0xe0]\n 32384: a0 = a0 << 0x20\n 32387: a2 = a0 >> 0x20\n 32390: a3 = s1 + 0x7ff\n 32394: a3 = a3 + 0x119\n 32398: u64 [a3 + 768] = 0\n 32402: a0 = u64 [s1 + 0x110]\n 32406: a4 = a3 + 0x200\n 32410: u64 [a4 + 0xe8] = a0\n 32414: a0 = u64 [s1 + 0x118]\n 32418: u64 [a4 + 0xf0] = a0\n 32422: a1 = s1 + 0x7ff\n 32426: a1 = a1 + 0x401\n 32430: u64 [s1 + 0x140] = a2\n 32434: u64 [a4 + 0xf8] = a2\n 32438: a0 = 0\n 32440: ra = 1316, jump @24\n      : @1233 [@dyn 658] (gas: 11)\n 32446: a1 = s1 + 0x7ff\n 32450: a1 = a1 + 0x119\n 32454: u64 [a1 + 736] = 0\n 32458: u64 [a1 + 728] = 0\n 32462: u64 [a1 + 712] = 0x3\n 32467: a2 = a1\n 32469: a0 = 0x20\n 32472: a1 = s1 + 0x7ff\n 32476: a1 = a1 + 0x3e1\n 32480: u64 [a2 + 720] = 0\n 32484: ra = 1318, jump @24\n      : @1234 [@dyn 659] (gas: 5)\n 32490: a0 = 0x20180\n 32495: u64 [s1 + 0x178] = a0\n 32499: a0 = i32 [0x20180]\n 32504: a1 = 0x3f\n 32507: jump @1236 if a1 <u a0\n      : @1235 (gas: 3)\n 32510: a1 = u64 [s1 + 0x178]\n 32514: u32 [a1 + 0] = 0x40\n 32517: fallthrough\n      : @1236 (gas: 3)\n 32518: a0 = 0xffffffff00000000\n 32528: u64 [s1 + 0x120] = a0\n 32532: t0 = 1320, jump @1541\n      : @1237 [@dyn 660] (gas: 10)\n 32538: a0 = 0x20190\n 32543: i32 a0 = a0 + 0\n 32545: i32 a2 = a2 + 0\n 32547: a1 = 0x40\n 32550: u64 [s1 + 0x170] = a0\n 32554: ra = 0x52a\n 32558: ecalli 9 // 'hash_keccak_256'\n 32560: a3 = u64 [s1 + 0x198]\n 32564: t0 = 0x52c\n 32568: jump @1535\n      : @1238 [@dyn 661] (gas: 2)\n 32571: a3 = u64 [s1 + 0x198]\n 32575: t0 = 1324, jump @1535\n      : @1239 [@dyn 662] (gas: 8)\n 32581: u64 [a5 + 0x20] = a3\n 32584: u64 [a5 + 0x18] = a2\n 32587: u64 [a5 + 0x10] = a1\n 32590: u64 [a5 + 0x8] = a0\n 32593: a0 = s1 + 0x7ff\n 32597: a0 = a0 + 0x3c1\n 32601: a1 = s1 + 0x2d20\n 32605: ra = 1326, jump @26\n      : @1240 [@dyn 663] (gas: 15)\n 32611: a0 = s1 + 0x7ff\n 32615: a0 = a0 + 0x119\n 32619: a0 = u64 [a0 + 0x2a8]\n 32623: u64 [s1 + 312] = 0\n 32627: u64 [s1 + 248] = 0\n 32631: u64 [s1 + 240] = 0\n 32635: u64 [s1 + 232] = 0\n 32639: u64 [s1 + 392] = 0\n 32643: u64 [s1 + 400] = 0\n 32647: u64 [s1 + 408] = 0\n 32651: a1 = u64 [s1 + 0x130]\n 32655: a0 = a0 & a1\n 32658: u64 [s1 + 0x108] = a0\n 32662: a0 = 0x1\n 32665: fallthrough\n      : @1241 (gas: 15)\n 32666: u64 [s1 + 0x180] = a0\n 32670: a4 = u64 [s1 + 0x190]\n 32674: a0 = a4 >u 0\n 32676: a3 = u64 [s1 + 0x198]\n 32680: a1 = a3 >u 0\n 32682: a1 = a0 if a3 == 0\n 32685: a0 = u64 [s1 + 0x108]\n 32689: a2 = u64 [s1 + 0x180]\n 32693: a0 = a0 <u a2\n 32696: a5 = u64 [s1 + 0x188]\n 32700: a2 = a5 >u 0\n 32702: a2 = a0 if a5 == 0\n 32705: a0 = a4 | a3\n 32708: a2 = a1 if a0 != 0\n 32711: jump @1301 if a2 != 0\n      : @1242 (gas: 6)\n 32715: a2 = s1 + 0x100\n 32719: a0 = u64 [a2 + 0x30]\n 32722: a1 = u64 [a2 + 0x38]\n 32725: a0 = a0 & a1\n 32728: a1 = u64 [a2 + 0x28]\n 32731: jump @1301 if a0 >=u a1\n      : @1243 (gas: 14)\n 32735: a2 = s1 + 0x7ff\n 32739: a2 = a2 + 0x119\n 32743: u64 [a2 + 672] = 0\n 32747: a0 = u64 [s1 + 0x110]\n 32751: a3 = a2 + 0x200\n 32755: u64 [a3 + 0x88] = a0\n 32759: a0 = u64 [s1 + 0x118]\n 32763: u64 [a3 + 0x90] = a0\n 32767: a1 = s1 + 0x7ff\n 32771: a1 = a1 + 0x3a1\n 32775: a0 = u64 [s1 + 0x140]\n 32779: u64 [a3 + 0x98] = a0\n 32783: a0 = 0\n 32785: ra = 1328, jump @24\n      : @1244 [@dyn 664] (gas: 11)\n 32791: a0 = s1 + 0x7ff\n 32795: a0 = a0 + 0x119\n 32799: u64 [a0 + 640] = 0\n 32803: u64 [a0 + 632] = 0\n 32807: u64 [a0 + 624] = 0\n 32811: a3 = a0\n 32813: a0 = 0x20\n 32816: a1 = s1 + 0x7ff\n 32820: a1 = a1 + 0x381\n 32824: u64 [a3 + 616] = 0x2\n 32829: ra = 1330, jump @24\n      : @1245 [@dyn 665] (gas: 3)\n 32835: a0 = u64 [s1 + 0x178]\n 32839: a0 = i32 [a0]\n 32841: jump @1247 if a0 >u 63\n      : @1246 (gas: 4)\n 32845: a1 = u64 [s1 + 0x178]\n 32849: u32 [a1 + 0] = 0x40\n 32852: t0 = 0x534\n 32856: jump @1527\n      : @1247 (gas: 1)\n 32859: t0 = 1332, jump @1527\n      : @1248 [@dyn 666] (gas: 4)\n 32865: ra = 0x536\n 32869: ecalli 9 // 'hash_keccak_256'\n 32871: t0 = 0x538\n 32875: jump @1505\n      : @1249 [@dyn 667] (gas: 1)\n 32878: t0 = 1336, jump @1505\n      : @1250 [@dyn 668] (gas: 12)\n 32884: a3 = a2 + 0x200\n 32888: u64 [a3 + 0x60] = a0\n 32891: a0 = u64 [s1 + 0x190]\n 32895: u64 [a3 + 0x58] = a0\n 32898: a0 = u64 [s1 + 0x188]\n 32902: u64 [a3 + 0x50] = a0\n 32905: a1 = s1 + 0x7ff\n 32909: a1 = a1 + 0x361\n 32913: a0 = u64 [s1 + 0x180]\n 32917: u64 [a3 + 0x48] = a0\n 32920: a0 = 0\n 32922: ra = 1338, jump @24\n      : @1251 [@dyn 669] (gas: 1)\n 32928: t0 = 1340, jump @1577\n      : @1252 [@dyn 670] (gas: 2)\n 32934: a2 = a1 + 0x200\n 32938: t0 = 1342, jump @1564\n      : @1253 [@dyn 671] (gas: 4)\n 32944: a1 = a1 + 0x341\n 32948: a2 = u64 [s1 + 0x160]\n 32952: u64 [a3 + 0x228] = a2\n 32956: ra = 1344, jump @24\n      : @1254 [@dyn 672] (gas: 3)\n 32962: a0 = u64 [s1 + 0x178]\n 32966: a0 = i32 [a0]\n 32968: jump @1256 if a0 >u 63\n      : @1255 (gas: 4)\n 32972: a0 = u64 [s1 + 0x178]\n 32976: u32 [a0 + 0] = 0x40\n 32979: t0 = 0x542\n 32983: jump @1559\n      : @1256 (gas: 1)\n 32986: t0 = 1346, jump @1559\n      : @1257 [@dyn 673] (gas: 22)\n 32992: ecalli 9 // 'hash_keccak_256'\n 32994: a3 = u64 [s1 + 0x160]\n 32998: a0 = u64 [a3 + 0x18]\n 33001: a1 = u64 [a3 + 0x10]\n 33004: a2 = u64 [a3 + 0x8]\n 33007: a3 = u64 [a3]\n 33009: a5 = reverse a0\n 33011: a4 = reverse a1\n 33013: a0 = reverse a2\n 33015: a2 = reverse a3\n 33017: a1 = u64 [s1 + 0x168]\n 33021: u64 [s1 + 0x158] = a2\n 33025: u64 [a1 + 0x18] = a2\n 33028: u64 [s1 + 0x160] = a0\n 33032: u64 [a1 + 0x10] = a0\n 33035: u64 [s1 + 0x150] = a4\n 33039: u64 [a1 + 0x8] = a4\n 33042: u64 [s1 + 0x148] = a5\n 33046: u64 [a1] = a5\n 33048: a0 = s1 + 0x7ff\n 33052: a0 = a0 + 0x321\n 33056: ra = 1348, jump @26\n      : @1258 [@dyn 674] (gas: 13)\n 33062: a2 = s1 + 0x7ff\n 33066: a2 = a2 + 0x119\n 33070: a3 = a2 + 0x200\n 33074: a0 = u64 [a3 + 0x10]\n 33077: a1 = u64 [a3 + 0x18]\n 33080: a2 = u64 [a3 + 0x8]\n 33083: a0 = a0 & 0xffffffffffffffff\n 33086: a1 = a1 & 0xffffffffffffffff\n 33089: a3 = u64 [s1 + 0x120]\n 33093: a2 = a2 & a3\n 33096: a1 = a1 | a2\n 33099: a0 = a0 | a1\n 33102: jump @1291 if a0 == 0\n      : @1259 (gas: 23)\n 33106: a5 = s1 + 0x100\n 33110: a1 = u64 [a5 + 0x48]\n 33113: a0 = a1 + 0x2\n 33116: a1 = a0 <u a1\n 33119: a3 = u64 [a5 + 0x50]\n 33122: a2 = a3 + a1\n 33125: a3 = a2 <u a3\n 33128: a3 = a1 if a1 == 0\n 33131: a1 = u64 [a5 + 0x60]\n 33134: a3 = a3 + a1\n 33137: a1 = a3 <u a1\n 33140: a4 = u64 [a5 + 0x58]\n 33143: a1 = a1 + a4\n 33146: a4 = s1 + 0x2918\n 33150: a5 = a4 + 0x400\n 33154: u64 [a5 + 0x28] = a0\n 33157: u64 [a5 + 0x30] = a2\n 33160: u64 [a5 + 0x38] = a3\n 33163: u64 [a5 + 0x40] = a1\n 33166: a0 = s1 + 0x7ff\n 33170: a0 = a0 + 0x301\n 33174: a1 = s1 + 0x2d40\n 33178: ra = 1350, jump @26\n      : @1260 [@dyn 675] (gas: 5)\n 33184: a0 = s1 + 0x7ff\n 33188: a0 = a0 + 0x119\n 33192: a0 = u64 [a0 + 0x1f0]\n 33196: a0 = a0 & 0xff\n 33200: jump @1291 if a0 != 0\n      : @1261 (gas: 14)\n 33204: a2 = s1 + 0x7ff\n 33208: a2 = a2 + 0x119\n 33212: u64 [a2 + 480] = 0\n 33216: a0 = u64 [s1 + 0x110]\n 33220: a3 = a2 + 0x100\n 33224: u64 [a3 + 0xc8] = a0\n 33228: a0 = u64 [s1 + 0x118]\n 33232: u64 [a3 + 0xd0] = a0\n 33236: a1 = s1 + 0x7ff\n 33240: a1 = a1 + 0x2e1\n 33244: a0 = u64 [s1 + 0x140]\n 33248: u64 [a3 + 0xd8] = a0\n 33252: a0 = 0\n 33254: ra = 1352, jump @24\n      : @1262 [@dyn 676] (gas: 11)\n 33260: a0 = s1 + 0x7ff\n 33264: a0 = a0 + 0x119\n 33268: u64 [a0 + 448] = 0\n 33272: u64 [a0 + 440] = 0\n 33276: u64 [a0 + 432] = 0\n 33280: a3 = a0\n 33282: a0 = 0x20\n 33285: a1 = s1 + 0x7ff\n 33289: a1 = a1 + 0x2c1\n 33293: u64 [a3 + 424] = 0x4\n 33298: ra = 1354, jump @24\n      : @1263 [@dyn 677] (gas: 3)\n 33305: a0 = u64 [s1 + 0x178]\n 33309: a0 = i32 [a0]\n 33311: jump @1265 if a0 >u 63\n      : @1264 (gas: 4)\n 33315: a0 = u64 [s1 + 0x178]\n 33319: u32 [a0 + 0] = 0x40\n 33322: t0 = 0x54c\n 33326: jump @1527\n      : @1265 (gas: 1)\n 33329: t0 = 1356, jump @1527\n      : @1266 [@dyn 678] (gas: 4)\n 33335: ra = 0x54e\n 33339: ecalli 9 // 'hash_keccak_256'\n 33341: t0 = 0x550\n 33345: jump @1518\n      : @1267 [@dyn 679] (gas: 1)\n 33348: t0 = 1360, jump @1518\n      : @1268 [@dyn 680] (gas: 9)\n 33354: u64 [a2 + 416] = 0\n 33358: u64 [a2 + 408] = 0\n 33362: u64 [a2 + 400] = 0\n 33366: a1 = s1 + 0x7ff\n 33370: a1 = a1 + 0x2a1\n 33374: a0 = u64 [s1 + 0x100]\n 33378: u64 [a2 + 0x188] = a0\n 33382: a0 = 0\n 33384: ra = 1362, jump @24\n      : @1269 [@dyn 681] (gas: 5)\n 33391: a0 = u64 [s1 + 0x150]\n 33395: a1 = s1 + 0x7ff\n 33399: a1 = a1 + 0x119\n 33403: a2 = a1 + 0x100\n 33407: t0 = 1364, jump @1582\n      : @1270 [@dyn 682] (gas: 5)\n 33413: a1 = s1 + 0x7ff\n 33417: a1 = a1 + 0x281\n 33421: a2 = u64 [s1 + 0x168]\n 33425: u64 [a3 + 0x168] = a2\n 33429: ra = 1366, jump @24\n      : @1271 [@dyn 683] (gas: 3)\n 33436: a0 = u64 [s1 + 0x178]\n 33440: a0 = i32 [a0]\n 33442: jump @1273 if a0 >u 63\n      : @1272 (gas: 4)\n 33446: a0 = u64 [s1 + 0x178]\n 33450: u32 [a0 + 0] = 0x40\n 33453: t0 = 0x558\n 33457: jump @1527\n      : @1273 (gas: 1)\n 33460: t0 = 1368, jump @1527\n      : @1274 [@dyn 684] (gas: 4)\n 33466: ra = 0x55a\n 33470: ecalli 9 // 'hash_keccak_256'\n 33472: t0 = 0x55c\n 33476: jump @1505\n      : @1275 [@dyn 685] (gas: 1)\n 33479: t0 = 1372, jump @1505\n      : @1276 [@dyn 686] (gas: 12)\n 33485: a3 = a2 + 0x100\n 33489: u64 [a3 + 0x60] = a0\n 33492: a0 = u64 [s1 + 0x190]\n 33496: u64 [a3 + 0x58] = a0\n 33499: a0 = u64 [s1 + 0x188]\n 33503: u64 [a3 + 0x50] = a0\n 33506: a1 = s1 + 0x7ff\n 33510: a1 = a1 + 0x261\n 33514: a0 = u64 [s1 + 0x180]\n 33518: u64 [a3 + 0x48] = a0\n 33521: a0 = 0\n 33523: ra = 1374, jump @24\n      : @1277 [@dyn 687] (gas: 1)\n 33530: t0 = 1376, jump @1577\n      : @1278 [@dyn 688] (gas: 2)\n 33536: a2 = a1 + 0x100\n 33540: t0 = 1378, jump @1564\n      : @1279 [@dyn 689] (gas: 4)\n 33546: a1 = a1 + 0x241\n 33550: a2 = u64 [s1 + 0x160]\n 33554: u64 [a3 + 0x128] = a2\n 33558: ra = 1380, jump @24\n      : @1280 [@dyn 690] (gas: 3)\n 33565: a0 = u64 [s1 + 0x178]\n 33569: a0 = i32 [a0]\n 33571: jump @1282 if a0 >u 63\n      : @1281 (gas: 4)\n 33575: a0 = u64 [s1 + 0x178]\n 33579: u32 [a0 + 0] = 0x40\n 33582: t0 = 0x566\n 33586: jump @1559\n      : @1282 (gas: 1)\n 33589: t0 = 1382, jump @1559\n      : @1283 [@dyn 691] (gas: 4)\n 33595: ra = 0x568\n 33599: ecalli 9 // 'hash_keccak_256'\n 33601: t0 = 0x56a\n 33605: jump @1523\n      : @1284 [@dyn 692] (gas: 1)\n 33608: t0 = 1386, jump @1523\n      : @1285 [@dyn 693] (gas: 2)\n 33614: a0 = a0 + 0x221\n 33618: ra = 1388, jump @26\n      : @1286 [@dyn 694] (gas: 5)\n 33625: a0 = s1 + 0x7ff\n 33629: a0 = a0 + 0x119\n 33633: a0 = u64 [a0 + 0x108]\n 33637: a1 = a0 & 0xff\n 33641: jump @1291 if a1 == 0\n      : @1287 (gas: 2)\n 33645: a0 = a0 & 0xff0000\n 33651: jump @1291 if a0 != 0\n      : @1288 (gas: 34)\n 33655: a1 = s1 + 0x7ff\n 33659: a1 = a1 + 0x119\n 33663: a0 = u64 [s1 + 0x180]\n 33667: u64 [a1 + 0xa8] = a0\n 33671: a0 = u64 [s1 + 0x100]\n 33675: u64 [a1 + 0xc8] = a0\n 33679: a0 = u64 [s1 + 0x110]\n 33683: u64 [a1 + 0xe8] = a0\n 33687: a0 = u64 [s1 + 0x188]\n 33691: u64 [a1 + 0xb0] = a0\n 33695: a0 = u64 [s1 + 0xc0]\n 33699: u64 [a1 + 0xd0] = a0\n 33703: a0 = u64 [s1 + 0x118]\n 33707: u64 [a1 + 0xf0] = a0\n 33711: a0 = u64 [s1 + 0x190]\n 33715: u64 [a1 + 0xb8] = a0\n 33719: a0 = u64 [s1 + 0xc8]\n 33723: u64 [a1 + 0xd8] = a0\n 33727: a0 = u64 [s1 + 0xe0]\n 33731: u64 [a1 + 0xf8] = a0\n 33735: a0 = u64 [s1 + 0x198]\n 33739: u64 [a1 + 0xc0] = a0\n 33743: a0 = u64 [s1 + 0xd0]\n 33747: u64 [a1 + 0xe0] = a0\n 33751: a4 = a1\n 33753: a0 = s1 + 0x7ff\n 33757: a0 = a0 + 0x201\n 33761: a1 = s1 + 0x7ff\n 33765: a1 = a1 + 0x1e1\n 33769: a2 = s1 + 0x7ff\n 33773: a2 = a2 + 0x1c1\n 33777: a3 = u64 [s1 + 0xd8]\n 33781: u64 [a4 + 0x100] = a3\n 33785: ra = 1390, jump @1392\n      : @1289 [@dyn 695] (gas: 15)\n 33791: a0 = u64 [s1 + 0xe8]\n 33795: a3 = s1 + 0x7ff\n 33799: a3 = a3 + 0x119\n 33803: u64 [a3 + 0x80] = a0\n 33807: a0 = u64 [s1 + 0xf0]\n 33811: u64 [a3 + 0x78] = a0\n 33814: a0 = u64 [s1 + 0xf8]\n 33818: u64 [a3 + 0x70] = a0\n 33821: a0 = s1 + 0x7ff\n 33825: a0 = a0 + 0x1a1\n 33829: a1 = s1 + 0x7ff\n 33833: a1 = a1 + 0x181\n 33837: a2 = u64 [s1 + 0x138]\n 33841: u64 [a3 + 0x68] = a2\n 33844: ra = 1392, jump @1384\n      : @1290 [@dyn 696] (gas: 11)\n 33850: a1 = s1 + 0x7ff\n 33854: a1 = a1 + 0x119\n 33858: a0 = u64 [a1 + 0xa0]\n 33862: u64 [s1 + 0xe8] = a0\n 33866: a0 = u64 [a1 + 0x98]\n 33870: u64 [s1 + 0xf0] = a0\n 33874: a0 = u64 [a1 + 0x90]\n 33878: u64 [s1 + 0xf8] = a0\n 33882: a0 = u64 [a1 + 0x88]\n 33886: u64 [s1 + 0x138] = a0\n 33890: fallthrough\n      : @1291 (gas: 15)\n 33891: a3 = s1 + 0x7ff\n 33895: a3 = a3 + 0x119\n 33899: a0 = u64 [s1 + 0x180]\n 33903: u64 [a3 + 0x28] = a0\n 33906: a0 = u64 [s1 + 0x188]\n 33910: u64 [a3 + 0x30] = a0\n 33913: a0 = u64 [s1 + 0x190]\n 33917: u64 [a3 + 0x38] = a0\n 33920: a0 = s1 + 0x7ff\n 33924: a0 = a0 + 0x161\n 33928: a1 = s1 + 0x7ff\n 33932: a1 = a1 + 0x141\n 33936: a2 = u64 [s1 + 0x198]\n 33940: u64 [a3 + 0x40] = a2\n 33943: ra = 1394, jump @1384\n      : @1292 [@dyn 697] (gas: 11)\n 33949: a1 = s1 + 0x7ff\n 33953: a1 = a1 + 0x119\n 33957: a0 = u64 [a1 + 0x60]\n 33960: a2 = s1 + 0x100\n 33964: u64 [a2 + 0x98] = a0\n 33968: a0 = u64 [a1 + 0x58]\n 33971: u64 [a2 + 0x90] = a0\n 33975: a0 = u64 [a1 + 0x50]\n 33978: u64 [a2 + 0x88] = a0\n 33982: a0 = u64 [a1 + 0x48]\n 33985: jump @1241\n      : @1293 (gas: 11)\n 33988: a2 = s1 + 0x7ff\n 33992: a2 = a2 + 0x119\n 33996: u64 [a2 + 824] = 0\n 34000: u64 [a2 + 816] = 0\n 34004: a0 = 0xcf114bd900000000\n 34014: u64 [a2 + 0x340] = a0\n 34018: a1 = s1 + 0x7ff\n 34022: a1 = a1 + 0x441\n 34026: u64 [a2 + 808] = 0\n 34030: a0 = 0\n 34032: ra = 1396, jump @24\n      : @1294 [@dyn 698] (gas: 2)\n 34039: a1 = i32 [0x20180]\n 34044: jump @1296 if a1 >u 31\n      : @1295 (gas: 3)\n 34048: u32 [0x20180] = 0x20\n 34054: a1 = 0x20190\n 34059: jump @937\n      : @1296 (gas: 2)\n 34062: a1 = 0x20190\n 34067: jump @937\n      : @1297 (gas: 11)\n 34070: a2 = s1 + 0x7ff\n 34074: a2 = a2 + 0x119\n 34078: u64 [a2 + 792] = 0\n 34082: u64 [a2 + 784] = 0\n 34086: a0 = 0x7862e95900000000\n 34096: u64 [a2 + 0x320] = a0\n 34100: a1 = s1 + 0x7ff\n 34104: a1 = a1 + 0x421\n 34108: u64 [a2 + 776] = 0\n 34112: a0 = 0\n 34114: ra = 1398, jump @24\n      : @1298 [@dyn 699] (gas: 2)\n 34121: a1 = i32 [0x20180]\n 34126: jump @1300 if a1 >u 31\n      : @1299 (gas: 3)\n 34130: u32 [0x20180] = 0x20\n 34136: a1 = 0x20190\n 34141: jump @937\n      : @1300 (gas: 2)\n 34144: a1 = 0x20190\n 34149: jump @937\n      : @1301 (gas: 3)\n 34152: a0 = 0\n 34154: a1 = u64 [s1 + 0x170]\n 34158: jump @1040\n      : @1302 [@dyn 700] (gas: 2)\n 34161: ecalli 3 // 'call_data_load'\n 34163: fallthrough\n      : @1303 (gas: 10)\n 34164: a0 = u64 [sp + 0x10]\n 34167: a1 = u64 [sp + 0x18]\n 34170: a2 = 0x100000000\n 34180: a2 = a2 ^ a0\n 34183: a2 = a2 | a1\n 34186: a3 = a0 >> 0x20\n 34189: a3 = a3 <u 0x1\n 34192: a3 = 0 if a1 != 0\n 34194: a3 = 0 if a2 == 0\n 34196: jump @1305 if a3 == 0\n      : @1304 (gas: 12)\n 34199: a2 = u64 [sp]\n 34201: a3 = u64 [sp + 0x8]\n 34204: u64 [s1] = a2\n 34206: u64 [s1 + 0x8] = a3\n 34209: u64 [s1 + 0x10] = a0\n 34212: u64 [s1 + 0x18] = a1\n 34215: sp = s0 + 0xffffffffffffffc0\n 34218: ra = u64 [sp + 0x38]\n 34221: s0 = u64 [sp + 0x30]\n 34224: s1 = u64 [sp + 0x28]\n 34227: sp = sp + 0x40\n 34230: ret\n      : @1305 (gas: 8)\n 34232: a1 = 0x20190\n 34237: i32 a1 = a1 + 0\n 34239: a0 = 0x1\n 34242: a2 = 0\n 34244: ra = 0x57a\n 34248: ecalli 14 // 'seal_return'\n 34250: t0 = 0x57c\n 34254: jump @1585\n      : @1306 [@dyn 701] (gas: 1)\n 34257: t0 = 1404, jump @1585\n      : @1307 [@dyn 702] (gas: 3)\n 34263: a1 = 0x24\n 34266: ecalli 3 // 'call_data_load'\n 34268: fallthrough\n      : @1308 (gas: 7)\n 34269: a0 = u64 [sp + 0x18]\n 34272: a1 = u64 [sp + 0x10]\n 34275: a2 = u64 [sp + 0x8]\n 34278: a3 = a1 | a0\n 34281: a4 = a2 <u 0x1\n 34284: a4 = 0 if a3 != 0\n 34286: jump @1311 if a4 == 0\n      : @1309 (gas: 2)\n 34289: a3 = u64 [sp]\n 34291: t0 = 1406, jump @1539\n      : @1310 [@dyn 703] (gas: 1)\n 34297: ret\n      : @1311 (gas: 8)\n 34299: a1 = 0x20190\n 34304: i32 a1 = a1 + 0\n 34306: a0 = 0x1\n 34309: a2 = 0\n 34311: ra = 0x580\n 34315: ecalli 14 // 'seal_return'\n 34317: t0 = 0x582\n 34321: jump @1585\n      : @1312 [@dyn 704] (gas: 1)\n 34324: t0 = 1410, jump @1585\n      : @1313 [@dyn 705] (gas: 5)\n 34330: a1 = 0x44\n 34333: ra = 0x584\n 34337: ecalli 3 // 'call_data_load'\n 34339: t0 = 0x586\n 34343: jump @1552\n      : @1314 [@dyn 706] (gas: 1)\n 34346: t0 = 1414, jump @1552\n      : @1315 [@dyn 707] (gas: 1)\n 34352: jump @1318 if a4 != 0\n      : @1316 (gas: 1)\n 34355: t0 = 1416, jump @1539\n      : @1317 [@dyn 708] (gas: 1)\n 34361: ret\n      : @1318 (gas: 8)\n 34363: a1 = 0x20190\n 34368: i32 a1 = a1 + 0\n 34370: a0 = 0x1\n 34373: a2 = 0\n 34375: ra = 0x58a\n 34379: ecalli 14 // 'seal_return'\n 34381: t0 = 0x58c\n 34385: jump @1568\n      : @1319 [@dyn 709] (gas: 1)\n 34388: t0 = 1420, jump @1568\n      : @1320 [@dyn 710] (gas: 4)\n 34394: ra = 0x58e\n 34398: ecalli 3 // 'call_data_load'\n 34400: t0 = 0x590\n 34404: jump @1552\n      : @1321 [@dyn 711] (gas: 1)\n 34407: t0 = 1424, jump @1552\n      : @1322 [@dyn 712] (gas: 1)\n 34413: jump @1325 if a4 != 0\n      : @1323 (gas: 1)\n 34416: t0 = 1426, jump @1539\n      : @1324 [@dyn 713] (gas: 1)\n 34422: ret\n      : @1325 (gas: 7)\n 34424: a1 = 0x20190\n 34429: i32 a1 = a1 + 0\n 34431: a0 = 0x1\n 34434: a2 = 0\n 34436: ra = 0x594\n 34440: ecalli 14 // 'seal_return'\n 34442: fallthrough\n      : @1326 [@dyn 714] (gas: 33)\n 34443: sp = sp + 0xffffffffffffffa0\n 34446: u64 [sp + 0x58] = ra\n 34449: u64 [sp + 0x50] = s0\n 34452: u64 [sp + 0x48] = s1\n 34455: s0 = sp + 0x60\n 34458: sp = sp & 0xfffffffffffffff0\n 34461: a2 = u64 [a1 + 0x10]\n 34464: a5 = u64 [a1 + 0x8]\n 34467: a4 = u64 [a1]\n 34469: a1 = u64 [a1 + 0x18]\n 34472: t0 = a2 << 0x3f\n 34475: a3 = a5 >> 0x1\n 34478: t0 = a3 | t0\n 34481: a3 = a1 << 0x3f\n 34484: a2 = a2 >> 0x1\n 34487: a3 = a3 | a2\n 34490: a5 = a5 << 0x3f\n 34493: a2 = a4 >> 0x1\n 34496: a5 = a5 | a2\n 34499: t1 = a1 >> 0x1\n 34502: a4 = a4 & 0x1\n 34505: a1 = -a4\n 34507: s1 = a4 <u 0x1\n 34510: a2 = a5 & 0x7f\n 34513: t2 = a1 & a3\n 34516: a3 = a1 & t0\n 34519: a2 = a5 if a4 != 0\n 34522: a4 = a1 & t1\n 34525: a1 = a2 <u 0x20\n 34528: a1 = 0 if a3 != 0\n 34530: a5 = t2 | a4\n 34533: a1 = 0 if a5 != 0\n 34535: jump @1329 if s1 != a1\n      : @1327 (gas: 5)\n 34538: u64 [a0] = a2\n 34540: u64 [a0 + 0x8] = a3\n 34543: u64 [a0 + 0x10] = t2\n 34546: u64 [a0 + 0x18] = a4\n 34549: t0 = 1430, jump @1574\n      : @1328 [@dyn 715] (gas: 1)\n 34555: ret\n      : @1329 (gas: 1)\n 34557: t0 = 1432, jump @1534\n      : @1330 [@dyn 716] (gas: 1)\n 34563: ra = 1434, jump @24\n      : @1331 [@dyn 717] (gas: 7)\n 34570: u64 [sp + 24] = 0\n 34573: u64 [sp + 16] = 0\n 34576: u64 [sp + 0] = 0x22\n 34579: a0 = 0x4\n 34582: a1 = sp\n 34584: u64 [sp + 8] = 0\n 34587: ra = 1436, jump @24\n      : @1332 [@dyn 718] (gas: 2)\n 34594: a1 = i32 [0x20180]\n 34599: jump @1334 if a1 >u 63\n      : @1333 (gas: 2)\n 34603: u32 [0x20180] = 0x40\n 34609: fallthrough\n      : @1334 (gas: 7)\n 34610: a1 = 0x20190\n 34615: i32 a1 = a1 + 0\n 34617: a0 = 0x1\n 34620: a2 = 0x24\n 34623: ra = 0x59e\n 34627: ecalli 14 // 'seal_return'\n 34629: fallthrough\n      : @1335 [@dyn 719] (gas: 46)\n 34630: sp = sp + 0xffffffffffffff70\n 34634: u64 [sp + 0x88] = ra\n 34638: u64 [sp + 0x80] = s0\n 34642: u64 [sp + 0x78] = s1\n 34645: s0 = sp + 0x90\n 34649: sp = sp & 0xfffffffffffffff0\n 34652: t0 = a0\n 34654: a2 = u64 [a1]\n 34656: t2 = u64 [a0 + 0x8]\n 34659: a5 = u64 [a1 + 0x8]\n 34662: t1 = u64 [a0]\n 34664: a3 = a2 + 0x1f\n 34667: ra = a3 <u a2\n 34670: a2 = a5 + ra\n 34673: a3 = a3 & 0xffffffffffffffe0\n 34676: u64 [sp + 0x8] = t1\n 34679: t1 = t1 + a3\n 34682: a4 = t1 <u a3\n 34685: a3 = a2 + t2\n 34688: a3 = a3 + a4\n 34691: s1 = a3 ^ a2\n 34694: a0 = a3 <u a2\n 34697: a0 = a4 if s1 == 0\n 34700: a4 = u64 [t0 + 0x18]\n 34703: a5 = a2 <u a5\n 34706: s1 = u64 [a1 + 0x10]\n 34709: t0 = u64 [t0 + 0x10]\n 34712: a1 = u64 [a1 + 0x18]\n 34715: a5 = ra if ra == 0\n 34718: a5 = a5 + s1\n 34721: s1 = a5 <u s1\n 34724: a2 = a5 + t0\n 34727: a0 = a0 + a2\n 34730: a5 = a2 <u a5\n 34733: a2 = a0 <u a2\n 34736: a1 = a1 + a4\n 34739: a1 = a1 + s1\n 34742: a1 = a1 + a5\n 34745: a5 = a1 + a2\n 34748: a1 = a5 >u 0\n 34750: a2 = a0 >u 0\n 34752: a2 = a1 if a5 != 0\n 34755: a1 = a0 | a5\n 34758: s1 = a3 >u 0\n 34760: s1 = a2 if a1 != 0\n 34763: jump @1339 if s1 != 0\n      : @1336 (gas: 13)\n 34766: a1 = u64 [sp + 0x8]\n 34769: a1 = t1 <u a1\n 34772: a2 = a3 ^ t2\n 34775: s1 = a3 <u t2\n 34778: s1 = a1 if a2 == 0\n 34781: a1 = a0 <u t0\n 34784: a2 = a5 ^ a4\n 34787: a4 = a5 <u a4\n 34790: a4 = a1 if a2 == 0\n 34793: a1 = a0 ^ t0\n 34796: a1 = a1 | a2\n 34799: a4 = s1 if a1 == 0\n 34802: jump @1339 if a4 != 0\n      : @1337 (gas: 7)\n 34805: u64 [sp + 0x50] = t1\n 34808: u64 [sp + 0x58] = a3\n 34811: u64 [sp + 0x60] = a0\n 34814: a0 = 0x40\n 34817: a1 = sp + 0x50\n 34820: u64 [sp + 0x68] = a5\n 34823: ra = 1440, jump @24\n      : @1338 [@dyn 720] (gas: 6)\n 34830: sp = s0 + 0xffffffffffffff70\n 34834: ra = u64 [sp + 0x88]\n 34838: s0 = u64 [sp + 0x80]\n 34842: s1 = u64 [sp + 0x78]\n 34845: sp = sp + 0x90\n 34849: ret\n      : @1339 (gas: 1)\n 34851: t0 = 1442, jump @1567\n      : @1340 [@dyn 721] (gas: 1)\n 34857: ra = 1444, jump @24\n      : @1341 [@dyn 722] (gas: 7)\n 34864: u64 [sp + 40] = 0\n 34867: u64 [sp + 32] = 0\n 34870: u64 [sp + 16] = 0x41\n 34874: a0 = 0x4\n 34877: a1 = sp + 0x10\n 34880: u64 [sp + 24] = 0\n 34883: ra = 1446, jump @24\n      : @1342 [@dyn 723] (gas: 2)\n 34890: a1 = i32 [0x20180]\n 34895: jump @1344 if a1 >u 63\n      : @1343 (gas: 2)\n 34899: u32 [0x20180] = 0x40\n 34905: fallthrough\n      : @1344 (gas: 7)\n 34906: a1 = 0x20190\n 34911: i32 a1 = a1 + 0\n 34913: a0 = 0x1\n 34916: a2 = 0x24\n 34919: ra = 0x5a8\n 34923: ecalli 14 // 'seal_return'\n 34925: fallthrough\n      : @1345 [@dyn 724] (gas: 45)\n 34926: sp = sp + 0xffffffffffffff90\n 34929: u64 [sp + 0x68] = ra\n 34932: u64 [sp + 0x60] = s0\n 34935: u64 [sp + 0x58] = s1\n 34938: s0 = sp + 0x70\n 34941: sp = sp & 0xfffffffffffffff0\n 34944: a3 = u64 [a1 + 0x18]\n 34947: u64 [sp + 0x8] = a3\n 34950: a4 = u64 [a2 + 0x18]\n 34953: t2 = u64 [a1]\n 34955: u64 [sp] = t2\n 34957: a3 = u64 [a1 + 0x8]\n 34960: s1 = u64 [a2 + 0x8]\n 34963: a5 = u64 [a2]\n 34965: t1 = u64 [a1 + 0x10]\n 34968: t0 = u64 [a2 + 0x10]\n 34971: a2 = s1 + a3\n 34974: t2 = t2 + a5\n 34977: a5 = t2 <u a5\n 34980: a2 = a2 + a5\n 34983: ra = a2 ^ s1\n 34986: s1 = a2 <u s1\n 34989: s1 = a5 if ra == 0\n 34992: a1 = t0 + t1\n 34995: a5 = u64 [sp + 0x8]\n 34998: a5 = a5 + a4\n 35001: a4 = a1 <u t0\n 35004: a4 = a4 + a5\n 35007: a5 = a1 + s1\n 35010: a1 = a5 <u a1\n 35013: ra = a4 + a1\n 35016: a4 = a2 ^ a3\n 35019: a3 = a2 <u a3\n 35022: a1 = u64 [sp]\n 35024: s1 = t2 <u a1\n 35027: s1 = a3 if a4 != 0\n 35030: t0 = a5 <u t1\n 35033: a1 = u64 [sp + 0x8]\n 35036: a4 = ra ^ a1\n 35039: a3 = ra <u a1\n 35042: a3 = t0 if a4 == 0\n 35045: a1 = a5 ^ t1\n 35048: a1 = a1 | a4\n 35051: s1 = a3 if a1 != 0\n 35054: jump @1347 if s1 != 0\n      : @1346 (gas: 10)\n 35057: u64 [a0] = t2\n 35059: u64 [a0 + 0x8] = a2\n 35062: u64 [a0 + 0x10] = a5\n 35065: u64 [a0 + 0x18] = ra\n 35068: sp = s0 + 0xffffffffffffff90\n 35071: ra = u64 [sp + 0x68]\n 35074: s0 = u64 [sp + 0x60]\n 35077: s1 = u64 [sp + 0x58]\n 35080: sp = sp + 0x70\n 35083: ret\n      : @1347 (gas: 1)\n 35085: t0 = 1450, jump @1567\n      : @1348 [@dyn 725] (gas: 1)\n 35091: ra = 1452, jump @24\n      : @1349 [@dyn 726] (gas: 7)\n 35098: u64 [sp + 40] = 0\n 35101: u64 [sp + 32] = 0\n 35104: u64 [sp + 16] = 0x11\n 35108: a0 = 0x4\n 35111: a1 = sp + 0x10\n 35114: u64 [sp + 24] = 0\n 35117: ra = 1454, jump @24\n      : @1350 [@dyn 727] (gas: 2)\n 35124: a1 = i32 [0x20180]\n 35129: jump @1352 if a1 >u 63\n      : @1351 (gas: 2)\n 35133: u32 [0x20180] = 0x40\n 35139: fallthrough\n      : @1352 (gas: 7)\n 35140: a1 = 0x20190\n 35145: i32 a1 = a1 + 0\n 35147: a0 = 0x1\n 35150: a2 = 0x24\n 35153: ra = 0x5b0\n 35157: ecalli 14 // 'seal_return'\n 35159: fallthrough\n      : @1353 [@dyn 728] (gas: 30)\n 35160: sp = sp + 0xffffffffffffff80\n 35163: u64 [sp + 0x78] = ra\n 35166: u64 [sp + 0x70] = s0\n 35169: u64 [sp + 0x68] = s1\n 35172: s0 = sp + 0x80\n 35176: sp = sp & 0xfffffffffffffff0\n 35179: a4 = u64 [a2]\n 35181: a3 = u64 [a1]\n 35183: s1 = u64 [a2 + 0x8]\n 35186: t1 = u64 [a1 + 0x8]\n 35189: t2 = u64 [a2 + 0x10]\n 35192: a5 = u64 [a1 + 0x10]\n 35195: a2 = u64 [a2 + 0x18]\n 35198: a1 = u64 [a1 + 0x18]\n 35201: t0 = t1 ^ s1\n 35204: u64 [sp + 0x8] = s1\n 35207: s1 = t1 <u s1\n 35210: u64 [sp + 0x18] = a4\n 35213: u64 [sp + 0x10] = a3\n 35216: a3 = a3 <u a4\n 35219: u64 [sp] = a3\n 35221: s1 = a3 if t0 == 0\n 35224: a3 = a1 ^ a2\n 35227: ra = a1 <u a2\n 35230: t0 = a5 <u t2\n 35233: ra = t0 if a3 == 0\n 35236: a4 = a5 ^ t2\n 35239: a3 = a3 | a4\n 35242: ra = s1 if a3 == 0\n 35245: jump @1355 if ra != 0\n      : @1354 (gas: 23)\n 35248: a3 = a5 - t2\n 35251: a1 = a1 - a2\n 35254: a1 = a1 - t0\n 35257: a2 = a3 <u s1\n 35260: a1 = a1 - a2\n 35263: a3 = a3 - s1\n 35266: a2 = u64 [sp + 0x8]\n 35269: a2 = t1 - a2\n 35272: a4 = u64 [sp]\n 35274: a2 = a2 - a4\n 35277: a4 = u64 [sp + 0x18]\n 35280: a5 = u64 [sp + 0x10]\n 35283: a4 = a5 - a4\n 35286: u64 [a0] = a4\n 35288: u64 [a0 + 0x8] = a2\n 35291: u64 [a0 + 0x10] = a3\n 35294: u64 [a0 + 0x18] = a1\n 35297: sp = s0 + 0xffffffffffffff80\n 35300: ra = u64 [sp + 0x78]\n 35303: s0 = u64 [sp + 0x70]\n 35306: s1 = u64 [sp + 0x68]\n 35309: sp = sp + 0x80\n 35313: ret\n      : @1355 (gas: 8)\n 35315: u64 [sp + 80] = 0\n 35318: u64 [sp + 72] = 0\n 35321: u64 [sp + 64] = 0\n 35324: a0 = 0x4e487b7100000000\n 35334: a1 = sp + 0x40\n 35337: u64 [sp + 0x58] = a0\n 35340: a0 = 0\n 35342: ra = 1458, jump @24\n      : @1356 [@dyn 729] (gas: 7)\n 35349: u64 [sp + 56] = 0\n 35352: u64 [sp + 48] = 0\n 35355: u64 [sp + 32] = 0x11\n 35359: a0 = 0x4\n 35362: a1 = sp + 0x20\n 35365: u64 [sp + 40] = 0\n 35368: ra = 1460, jump @24\n      : @1357 [@dyn 730] (gas: 2)\n 35375: a1 = i32 [0x20180]\n 35380: jump @1359 if a1 >u 63\n      : @1358 (gas: 2)\n 35384: u32 [0x20180] = 0x40\n 35390: fallthrough\n      : @1359 (gas: 7)\n 35391: a1 = 0x20190\n 35396: i32 a1 = a1 + 0\n 35398: a0 = 0x1\n 35401: a2 = 0x24\n 35404: ra = 0x5b6\n 35408: ecalli 14 // 'seal_return'\n 35410: fallthrough\n      : @1360 [@dyn 731] (gas: 10)\n 35411: a3 = u64 [a1 + 0x18]\n 35414: a4 = u64 [a1 + 0x10]\n 35417: t0 = u64 [a1 + 0x8]\n 35420: a5 = a3 >u 0\n 35422: a2 = a4 >u 0\n 35424: a2 = a5 if a3 != 0\n 35427: a3 = a3 | a4\n 35430: a4 = t0 >u 0\n 35432: a4 = a2 if a3 != 0\n 35435: jump @1362 if a4 != 0\n      : @1361 (gas: 16)\n 35438: a1 = u64 [a1]\n 35440: a2 = a1 + 0x1f\n 35443: a1 = a2 <u a1\n 35446: a1 = a1 + t0\n 35449: a1 = a1 & 0x1\n 35452: a2 = a2 & 0xffffffffffffffe0\n 35455: a3 = a2 + 0x20\n 35458: a2 = a3 <u a2\n 35461: a4 = a1 + a2\n 35464: a1 = a4 <u a1\n 35467: a1 = a2 if a2 == 0\n 35470: u64 [a0 + 24] = 0\n 35473: u64 [a0] = a3\n 35475: u64 [a0 + 0x8] = a4\n 35478: u64 [a0 + 0x10] = a1\n 35481: ret\n      : @1362 (gas: 6)\n 35483: sp = sp + 0xffffffffffffffb0\n 35486: u64 [sp + 0x48] = ra\n 35489: u64 [sp + 0x40] = s0\n 35492: s0 = sp + 0x50\n 35495: sp = sp & 0xfffffffffffffff0\n 35498: t0 = 1464, jump @1534\n      : @1363 [@dyn 732] (gas: 1)\n 35504: ra = 1466, jump @24\n      : @1364 [@dyn 733] (gas: 7)\n 35511: u64 [sp + 24] = 0\n 35514: u64 [sp + 16] = 0\n 35517: u64 [sp + 0] = 0x41\n 35520: a0 = 0x4\n 35523: a1 = sp\n 35525: u64 [sp + 8] = 0\n 35528: ra = 1468, jump @24\n      : @1365 [@dyn 734] (gas: 2)\n 35535: a1 = i32 [0x20180]\n 35540: jump @1367 if a1 >u 63\n      : @1366 (gas: 2)\n 35544: u32 [0x20180] = 0x40\n 35550: fallthrough\n      : @1367 (gas: 7)\n 35551: a1 = 0x20190\n 35556: i32 a1 = a1 + 0\n 35558: a0 = 0x1\n 35561: a2 = 0x24\n 35564: ra = 0x5be\n 35568: ecalli 14 // 'seal_return'\n 35570: fallthrough\n      : @1368 [@dyn 735] (gas: 9)\n 35571: sp = sp + 0xfffffffffffffec0\n 35575: u64 [sp + 0x138] = ra\n 35579: u64 [sp + 0x130] = s0\n 35583: u64 [sp + 0x128] = s1\n 35587: s0 = sp + 0x140\n 35591: sp = sp & 0xffffffffffffffe0\n 35594: s1 = a0\n 35596: ecalli 13 // 'return_data_size'\n 35598: fallthrough\n      : @1369 (gas: 1)\n 35599: jump @1382 if a0 == 0\n      : @1370 (gas: 11)\n 35603: u64 [sp + 0x18] = s1\n 35606: ecalli 13 // 'return_data_size'\n 35608: a2 = a0\n 35610: u64 [sp + 248] = 0\n 35614: u64 [sp + 240] = 0\n 35618: u64 [sp + 232] = 0\n 35622: a0 = sp + 0x100\n 35626: a1 = sp + 0xe0\n 35630: u64 [sp + 0x20] = a2\n 35633: u64 [sp + 0xe0] = a2\n 35637: ra = 1472, jump @1360\n      : @1371 [@dyn 736] (gas: 11)\n 35643: a0 = u64 [sp + 0x100]\n 35647: u64 [sp + 0x40] = a0\n 35650: a0 = u64 [sp + 0x108]\n 35654: u64 [sp + 0x38] = a0\n 35657: a0 = u64 [sp + 0x110]\n 35661: u64 [sp + 0x30] = a0\n 35664: a0 = u64 [sp + 0x118]\n 35668: u64 [sp + 0x28] = a0\n 35671: a0 = sp + 0xc0\n 35675: a1 = 0x40\n 35678: ra = 1474, jump @22\n      : @1372 [@dyn 737] (gas: 22)\n 35685: a0 = u64 [sp + 0xd8]\n 35689: u64 [sp + 0x58] = a0\n 35692: s1 = u64 [sp + 0xd0]\n 35696: a2 = u64 [sp + 0xc8]\n 35700: u64 [sp + 0x50] = a2\n 35703: a3 = u64 [sp + 0xc0]\n 35707: u64 [sp + 0x48] = a3\n 35710: a1 = u64 [sp + 0x28]\n 35713: u64 [sp + 0x98] = a1\n 35717: a1 = u64 [sp + 0x30]\n 35720: u64 [sp + 0x90] = a1\n 35724: a1 = u64 [sp + 0x38]\n 35727: u64 [sp + 0x88] = a1\n 35731: a1 = u64 [sp + 0x40]\n 35734: u64 [sp + 0x80] = a1\n 35738: u64 [sp + 0xb8] = a0\n 35742: u64 [sp + 0xb0] = s1\n 35746: u64 [sp + 0xa8] = a2\n 35750: a0 = sp + 0xa0\n 35754: a1 = sp + 0x80\n 35758: u64 [sp + 0xa0] = a3\n 35762: ra = 1476, jump @1335\n      : @1373 [@dyn 738] (gas: 12)\n 35768: a0 = u64 [sp + 0x48]\n 35771: a1 = u64 [sp + 0x58]\n 35774: a2 = u64 [sp + 0x50]\n 35777: a2 = a2 | a1\n 35780: a1 = a0 | s1\n 35783: a1 = a1 | a2\n 35786: a1 = a1 >> 0x20\n 35789: u64 [sp + 0x40] = s1\n 35792: a2 = a2 | s1\n 35795: a2 = a2 << 0x20\n 35798: a1 = a1 | a2\n 35801: jump @1381 if a1 != 0\n      : @1374 (gas: 7)\n 35805: u64 [sp + 120] = 0\n 35808: u64 [sp + 112] = 0\n 35811: u64 [sp + 104] = 0\n 35814: a1 = sp + 0x60\n 35817: a2 = u64 [sp + 0x20]\n 35820: u64 [sp + 0x60] = a2\n 35823: ra = 1478, jump @24\n      : @1375 [@dyn 739] (gas: 2)\n 35830: ecalli 13 // 'return_data_size'\n 35832: fallthrough\n      : @1376 (gas: 10)\n 35833: a3 = u64 [sp + 0x48]\n 35836: a1 = u64 [sp + 0x40]\n 35839: a2 = u64 [sp + 0x58]\n 35842: a1 = a1 | a2\n 35845: a2 = 0xffffffe0\n 35855: a2 = a3 <u a2\n 35858: a4 = u64 [sp + 0x50]\n 35861: a2 = 0 if a4 != 0\n 35863: a2 = 0 if a1 != 0\n 35865: jump @1381 if a2 == 0\n      : @1377 (gas: 3)\n 35868: s1 = a0\n 35870: a0 = a0 >> 0x20\n 35873: jump @1381 if a0 != 0\n      : @1378 (gas: 5)\n 35876: i32 a0 = a3 + 0x20\n 35879: i32 a1 = s1 + 0\n 35881: u64 [sp + 0x38] = a1\n 35884: a1 = s1\n 35886: ra = 1480, jump @37\n      : @1379 [@dyn 740] (gas: 6)\n 35893: u32 [sp + 0x120] = s1\n 35897: i32 a0 = a0 + 0\n 35899: i32 a1 = sp + 0x120\n 35903: a2 = 0\n 35905: ecalli 12 // 'return_data_copy'\n 35907: fallthrough\n      : @1380 (gas: 8)\n 35908: a4 = u64 [sp + 0x48]\n 35911: a0 = i32 [sp + 0x120]\n 35915: s1 = u64 [sp + 0x18]\n 35918: a1 = u64 [sp + 0x58]\n 35921: a2 = u64 [sp + 0x40]\n 35924: a3 = u64 [sp + 0x50]\n 35927: a5 = u64 [sp + 0x38]\n 35930: jump @1383 if a0 >=u a5\n      : @1381 (gas: 1)\n 35933: trap\n      : @1382 (gas: 5)\n 35934: a3 = 0\n 35936: a2 = 0\n 35938: a1 = 0\n 35940: a4 = 0x60\n 35943: fallthrough\n      : @1383 (gas: 10)\n 35944: u64 [s1] = a4\n 35946: u64 [s1 + 0x8] = a3\n 35949: u64 [s1 + 0x10] = a2\n 35952: u64 [s1 + 0x18] = a1\n 35955: sp = s0 + 0xfffffffffffffec0\n 35959: ra = u64 [sp + 0x138]\n 35963: s0 = u64 [sp + 0x130]\n 35967: s1 = u64 [sp + 0x128]\n 35971: sp = sp + 0x140\n 35975: ret\n      : @1384 (gas: 3)\n 35977: a1 = u32 [a1]\n 35979: a2 = 0xffffffff\n 35989: jump @1386 if a1 == a2\n      : @1385 (gas: 9)\n 35992: a1 = a1 + 0x1\n 35995: a2 = a1 <u 0x1\n 35998: a3 = a1 | a2\n 36001: a3 = a3 <u 0x1\n 36004: u64 [a0 + 24] = 0\n 36007: u64 [a0] = a1\n 36009: u64 [a0 + 0x8] = a2\n 36012: u64 [a0 + 0x10] = a3\n 36015: ret\n      : @1386 (gas: 6)\n 36017: sp = sp + 0xffffffffffffffb0\n 36020: u64 [sp + 0x48] = ra\n 36023: u64 [sp + 0x40] = s0\n 36026: s0 = sp + 0x50\n 36029: sp = sp & 0xfffffffffffffff0\n 36032: t0 = 1482, jump @1534\n      : @1387 [@dyn 741] (gas: 1)\n 36038: ra = 1484, jump @24\n      : @1388 [@dyn 742] (gas: 7)\n 36045: u64 [sp + 24] = 0\n 36048: u64 [sp + 16] = 0\n 36051: u64 [sp + 0] = 0x11\n 36054: a0 = 0x4\n 36057: a1 = sp\n 36059: u64 [sp + 8] = 0\n 36062: ra = 1486, jump @24\n      : @1389 [@dyn 743] (gas: 2)\n 36069: a1 = i32 [0x20180]\n 36074: jump @1391 if a1 >u 63\n      : @1390 (gas: 2)\n 36078: u32 [0x20180] = 0x40\n 36084: fallthrough\n      : @1391 (gas: 7)\n 36085: a1 = 0x20190\n 36090: i32 a1 = a1 + 0\n 36092: a0 = 0x1\n 36095: a2 = 0x24\n 36098: ra = 0x5d0\n 36102: ecalli 14 // 'seal_return'\n 36104: fallthrough\n      : @1392 [@dyn 744] (gas: 21)\n 36105: sp = sp + 0xfffffffffffff900\n 36109: a3 = sp + 0x600\n 36113: u64 [a3 + 0xf8] = ra\n 36117: u64 [a3 + 0xf0] = s0\n 36121: u64 [a3 + 0xe8] = s1\n 36125: s0 = sp + 0x700\n 36129: sp = sp & 0xffffffffffffffe0\n 36132: s1 = sp\n 36134: a2 = u64 [a2]\n 36136: u64 [s1 + 0x28] = a2\n 36139: a1 = u64 [a1]\n 36141: u64 [s1 + 0x30] = a1\n 36144: a1 = u64 [a0 + 0x10]\n 36147: u64 [s1 + 0x20] = a1\n 36150: a1 = u64 [a0 + 0x8]\n 36153: u64 [s1 + 0x38] = a1\n 36156: a0 = u64 [a0]\n 36158: u64 [s1 + 0x40] = a0\n 36161: i32 a0 = s1 + 0x620\n 36165: ecalli 10 // 'now'\n 36167: fallthrough\n      : @1393 (gas: 48)\n 36168: t0 = u64 [s1 + 0x638]\n 36172: t1 = u64 [s1 + 0x630]\n 36176: a0 = u64 [s1 + 0x628]\n 36180: a4 = u64 [s1 + 0x620]\n 36184: u64 [s1 + 0x78] = a4\n 36187: a2 = clz t0\n 36189: a1 = clz t1\n 36191: a3 = a1 + 0x40\n 36194: a3 = a2 if t0 != 0\n 36197: a2 = clz a0\n 36199: a1 = clz a4\n 36201: a1 = a1 + 0x40\n 36204: a1 = a2 if a0 != 0\n 36207: a4 = a1 + 0x80\n 36211: a2 = t1 | t0\n 36214: a3 = a4 if a2 == 0\n 36217: a5 = a4 <u a1\n 36220: a5 = 0 if a2 != 0\n 36222: a4 = a5 >u 0\n 36224: a1 = a3 <u 0xf0\n 36228: a2 = a1 ^ 0x1\n 36231: a4 = a2 if a5 == 0\n 36234: t2 = a4 <u 0x1\n 36237: ra = t2 + 0xffffffffffffffff\n 36240: t2 = -a4\n 36242: a5 = -a5\n 36244: a2 = a5 - a2\n 36247: a1 = 0xef - a3\n 36251: u64 [s1 + 0xa8] = t2\n 36255: a3 = t2 >u 0\n 36257: a5 = ra >u 0\n 36259: a5 = a3 if ra == 0\n 36262: u64 [s1 + 0xb8] = a1\n 36266: a3 = a1 <u 0x100\n 36270: a3 = a3 ^ 0x1\n 36273: a1 = a2 >u 0\n 36275: a3 = a1 if a2 != 0\n 36278: a3 = a5 if a4 != 0\n 36281: t2 = a0\n 36283: a0 = u64 [s1 + 0x78]\n 36286: a1 = t2 | t0\n 36289: a4 = a0 | t1\n 36292: a1 = a1 | a4\n 36295: a1 = a1 <u 0x1\n 36298: a1 = a1 | a3\n 36301: a3 = a0\n 36303: a3 = 0 if a1 != 0\n 36305: jump @1409 if a1 != 0\n      : @1394 (gas: 7)\n 36309: a1 = u64 [s1 + 0xb8]\n 36313: a1 = a1 ^ 0xff\n 36317: a5 = u64 [s1 + 0xa8]\n 36321: a1 = a1 | a5\n 36324: a4 = a2 | ra\n 36327: a1 = a1 | a4\n 36330: jump @1409 if a1 == 0\n      : @1395 (gas: 21)\n 36334: a4 = u64 [s1 + 0xb8]\n 36338: a3 = a4 + 0x1\n 36341: u64 [s1 + 0xb0] = a3\n 36345: a1 = a3 <u 0x1\n 36348: a1 = a1 + a2\n 36351: u64 [s1 + 0xa0] = a1\n 36355: a1 = a1 | a3\n 36358: a1 = a1 <u 0x1\n 36361: a1 = a1 + a5\n 36364: u64 [s1 + 0x90] = a1\n 36368: a1 = a1 <u a5\n 36371: a1 = a1 + ra\n 36374: u64 [s1 + 0x98] = a1\n 36378: a2 = 0xff - a4\n 36382: u64 [s1 + 0x88] = a2\n 36386: a2 = 0x80 - a2\n 36390: a1 = t2\n 36392: u64 [s1 + 0x70] = t2\n 36395: u64 [s1 + 0x68] = t0\n 36398: u64 [s1 + 0x60] = t1\n 36401: ra = 1490, jump @1589\n      : @1396 [@dyn 745] (gas: 6)\n 36407: u64 [s1 + 0x80] = a0\n 36411: u64 [s1 + 0x50] = a1\n 36414: a0 = u64 [s1 + 0x60]\n 36417: a1 = u64 [s1 + 0x68]\n 36420: a2 = u64 [s1 + 0x88]\n 36424: ra = 1492, jump @1594\n      : @1397 [@dyn 746] (gas: 7)\n 36430: u64 [s1 + 0x48] = a0\n 36433: u64 [s1 + 0x18] = a1\n 36436: a1 = u64 [s1 + 0xb8]\n 36440: a2 = 0x7f - a1\n 36443: a0 = u64 [s1 + 0x78]\n 36446: a1 = u64 [s1 + 0x70]\n 36449: ra = 1494, jump @1594\n      : @1398 [@dyn 747] (gas: 8)\n 36455: u64 [s1 + 0x10] = a0\n 36458: u64 [s1 + 0xb8] = a1\n 36462: a2 = u64 [s1 + 0x88]\n 36466: a0 = a2 <u 0x80\n 36470: u64 [s1 + 0x58] = a0\n 36473: a0 = u64 [s1 + 0x78]\n 36476: a1 = u64 [s1 + 0x70]\n 36479: ra = 1496, jump @1594\n      : @1399 [@dyn 748] (gas: 11)\n 36485: a5 = u64 [s1 + 0x58]\n 36488: a4 = u64 [s1 + 0x90]\n 36492: a3 = u64 [s1 + 0x98]\n 36496: a2 = u64 [s1 + 0xa0]\n 36500: a2 = a2 | a3\n 36503: a3 = u64 [s1 + 0xb0]\n 36507: a3 = a3 | a4\n 36510: a3 = a3 | a2\n 36513: a0 = 0 if a5 == 0\n 36515: u64 [s1 + 0xa8] = a0\n 36519: jump @1407 if a3 == 0\n      : @1400 (gas: 27)\n 36523: a0 = u64 [s1 + 0x50]\n 36526: a2 = u64 [s1 + 0x18]\n 36529: a0 = a0 | a2\n 36532: a2 = u64 [s1 + 0xb8]\n 36536: a0 = a2 if a5 == 0\n 36539: t0 = u64 [s1 + 0x68]\n 36542: a3 = t0\n 36544: t1 = u64 [s1 + 0x88]\n 36548: a3 = a0 if t1 != 0\n 36551: u64 [s1 + 0xb8] = a3\n 36555: a0 = u64 [s1 + 0x80]\n 36559: a2 = u64 [s1 + 0x48]\n 36562: a0 = a0 | a2\n 36565: a2 = u64 [s1 + 0x10]\n 36568: a0 = a2 if a5 == 0\n 36571: a4 = u64 [s1 + 0x60]\n 36574: a3 = a4\n 36576: a3 = a0 if t1 != 0\n 36579: u64 [s1 + 0x80] = a3\n 36583: a1 = 0 if a5 == 0\n 36585: u64 [s1 + 0x88] = a1\n 36589: u64 [s1 + 88] = 0x15180\n 36595: a0 = u64 [s1 + 0xb0]\n 36599: a2 = a0 + 0xffffffffffffff80\n 36602: a0 = a4\n 36604: a1 = t0\n 36606: ra = 1498, jump @1589\n      : @1401 [@dyn 749] (gas: 6)\n 36612: u64 [s1 + 0x50] = a0\n 36615: u64 [s1 + 0x18] = a1\n 36618: a0 = u64 [s1 + 0x78]\n 36621: a1 = u64 [s1 + 0x70]\n 36624: a2 = u64 [s1 + 0xb0]\n 36628: ra = 1500, jump @1589\n      : @1402 [@dyn 750] (gas: 7)\n 36634: u64 [s1 + 0x10] = a0\n 36637: u64 [s1 + 0x48] = a1\n 36640: a1 = u64 [s1 + 0xb0]\n 36644: a2 = 0x80 - a1\n 36648: a0 = u64 [s1 + 0x60]\n 36651: a1 = u64 [s1 + 0x68]\n 36654: ra = 1502, jump @1594\n      : @1403 [@dyn 751] (gas: 21)\n 36660: a2 = u64 [s1 + 0x48]\n 36663: a1 = a1 | a2\n 36666: a3 = u64 [s1 + 0xb0]\n 36670: a4 = a3 <u 0x80\n 36674: u64 [s1 + 0x48] = a4\n 36677: a2 = u64 [s1 + 0x18]\n 36680: a1 = a2 if a4 == 0\n 36683: a2 = u64 [s1 + 0x70]\n 36686: a2 = a1 if a3 != 0\n 36689: u64 [s1 + 0x70] = a2\n 36692: a1 = u64 [s1 + 0x10]\n 36695: a0 = a0 | a1\n 36698: a1 = u64 [s1 + 0x50]\n 36701: a0 = a1 if a4 == 0\n 36704: a1 = u64 [s1 + 0x78]\n 36707: a1 = a0 if a3 != 0\n 36710: a2 = a3\n 36712: u64 [s1 + 0x78] = a1\n 36715: a0 = u64 [s1 + 0x60]\n 36718: a1 = u64 [s1 + 0x68]\n 36721: ra = 1504, jump @1589\n      : @1404 [@dyn 752] (gas: 13)\n 36727: a5 = 0\n 36729: a2 = u64 [s1 + 0x48]\n 36732: a1 = 0 if a2 == 0\n 36734: a0 = 0 if a2 == 0\n 36736: a3 = u64 [s1 + 0x58]\n 36739: a2 = a3 + 0xffffffffffffffff\n 36742: u64 [s1 + 0x50] = a2\n 36745: a2 = a3 >u 0\n 36747: a2 = a2 + 0xffffffffffffffff\n 36750: u64 [s1 + 0x48] = a2\n 36753: t1 = u64 [s1 + 0x70]\n 36756: t2 = u64 [s1 + 0x78]\n 36759: fallthrough\n      : @1405 (gas: 87)\n 36760: u64 [s1 + 0x78] = a5\n 36763: a2 = t2 >> 0x3f\n 36766: a3 = t1 << 0x1\n 36769: a5 = a3 | a2\n 36772: a3 = t2 << 0x1\n 36775: a4 = u64 [s1 + 0xb8]\n 36779: a4 = a4 >> 0x3f\n 36782: a3 = a3 | a4\n 36785: u64 [s1 + 0x68] = a3\n 36788: a2 = u64 [s1 + 0x48]\n 36791: u64 [s1 + 0x70] = a5\n 36794: t2 = t1\n 36796: t1 = a2 ^ a5\n 36799: t0 = a2 <u a5\n 36802: a4 = u64 [s1 + 0x50]\n 36805: a5 = a4 <u a3\n 36808: a5 = t0 if t1 != 0\n 36811: a1 = a1 << 0x1\n 36814: a3 = a0 >> 0x3f\n 36817: a1 = a1 | a3\n 36820: u64 [s1 + 0x60] = a1\n 36823: a3 = t2 >> 0x3f\n 36826: a0 = a0 << 0x1\n 36829: a3 = a3 | a0\n 36832: a0 = u64 [s1 + 0xb8]\n 36836: a0 = a0 << 0x1\n 36839: a4 = u64 [s1 + 0x80]\n 36843: a1 = a4 >> 0x3f\n 36846: t0 = a0 | a1\n 36849: a1 = a4 << 0x1\n 36852: a4 = u64 [s1 + 0x88]\n 36856: t1 = a4 >> 0x3f\n 36859: t1 = a1 | t1\n 36862: a1 = a4 << 0x1\n 36865: a4 = u64 [s1 + 0xa8]\n 36869: t2 = a4 >> 0x3f\n 36872: a1 = a1 | t2\n 36875: a4 = a4 << 0x1\n 36878: a0 = u64 [s1 + 0x78]\n 36881: a4 = a4 | a0\n 36884: u64 [s1 + 0xa8] = a4\n 36888: a1 = a1 | 0\n 36890: u64 [s1 + 0x88] = a1\n 36894: a1 = t1 | 0\n 36896: u64 [s1 + 0x80] = a1\n 36900: a0 = t0 | 0\n 36902: u64 [s1 + 0xb8] = a0\n 36906: a0 = a2 - a3\n 36909: a0 = a0 <u a5\n 36912: a1 = a2 <u a3\n 36915: t0 = u64 [s1 + 0x60]\n 36918: a4 = a2 - t0\n 36921: a4 = a4 - a1\n 36924: a4 = a4 - a0\n 36927: a5 = a4 >>a 0x3f\n 36930: a0 = u64 [s1 + 0x58]\n 36933: a0 = a0 & a5\n 36936: a1 = u64 [s1 + 0x68]\n 36939: t2 = a1 - a0\n 36942: a1 = a1 <u a0\n 36945: a0 = u64 [s1 + 0x70]\n 36948: t1 = a0 - a1\n 36951: a1 = 0 if a0 != 0\n 36953: a0 = a3 - a1\n 36956: a1 = a3 <u a1\n 36959: a1 = t0 - a1\n 36962: a3 = u64 [s1 + 0xb0]\n 36966: ra = u64 [s1 + 0xa0]\n 36970: a2 = a3 | ra\n 36973: a2 = a2 <u 0x1\n 36976: a4 = u64 [s1 + 0x90]\n 36980: t0 = a4 <u a2\n 36983: a2 = a4 - a2\n 36986: a4 = a3 <u 0x1\n 36989: ra = ra - a4\n 36992: a4 = u64 [s1 + 0x98]\n 36996: a4 = a4 - t0\n 36999: a3 = a3 + 0xffffffffffffffff\n 37002: u64 [s1 + 0xa0] = ra\n 37006: u64 [s1 + 0x98] = a4\n 37010: t0 = ra | a4\n 37013: u64 [s1 + 0xb0] = a3\n 37017: a4 = a3 | a2\n 37020: a3 = a4 | t0\n 37023: a5 = a5 & 0x1\n 37026: u64 [s1 + 0x90] = a2\n 37030: jump @1405 if a3 != 0\n      : @1406 (gas: 1)\n 37034: jump @1408\n      : @1407 (gas: 2)\n 37036: a5 = 0\n 37038: fallthrough\n      : @1408 (gas: 4)\n 37039: a0 = u64 [s1 + 0xa8]\n 37043: a0 = a0 << 0x1\n 37046: a3 = a5 | a0\n 37049: fallthrough\n      : @1409 (gas: 2)\n 37050: a0 = u64 [s1 + 0x30]\n 37053: jump @1480 if a0 >=u a3\n      : @1410 (gas: 13)\n 37057: a0 = u64 [s1 + 0x20]\n 37060: a0 = a0 << 0x20\n 37063: a2 = a0 >> 0x20\n 37066: u64 [s1 + 1528] = 0\n 37070: a0 = u64 [s1 + 0x40]\n 37073: u64 [s1 + 0x5e0] = a0\n 37077: a0 = u64 [s1 + 0x38]\n 37080: u64 [s1 + 0x5e8] = a0\n 37084: a1 = s1 + 0x5e0\n 37088: u64 [s1 + 0xa8] = a2\n 37092: u64 [s1 + 0x5f0] = a2\n 37096: a0 = 0\n 37098: ra = 1506, jump @24\n      : @1411 [@dyn 753] (gas: 7)\n 37105: u64 [s1 + 1496] = 0\n 37109: u64 [s1 + 1488] = 0\n 37113: u64 [s1 + 1472] = 0x2\n 37118: a0 = 0x20\n 37121: a1 = s1 + 0x5c0\n 37125: u64 [s1 + 1480] = 0\n 37129: ra = 1508, jump @24\n      : @1412 [@dyn 754] (gas: 3)\n 37136: a1 = 0x20180\n 37141: a0 = i32 [0x20180]\n 37146: jump @1414 if a0 >u 63\n      : @1413 (gas: 2)\n 37150: u32 [0x20180] = 0x40\n 37156: fallthrough\n      : @1414 (gas: 15)\n 37157: a0 = sp + 0xffffffffffffffe0\n 37160: a2 = a0 & 0xffffffffffffffe0\n 37163: u64 [s1 + 0xa0] = a2\n 37167: sp = a2\n 37169: a0 = 0x20190\n 37174: u64 [s1 + 0x50] = a0\n 37177: i32 a0 = a0 + 0\n 37179: u64 [s1 + 0xb0] = a1\n 37183: i32 a2 = a2 + 0\n 37185: a1 = 0x40\n 37188: u64 [s1 + 0xb8] = a0\n 37192: ra = 0x5e6\n 37196: ecalli 9 // 'hash_keccak_256'\n 37198: t0 = 0x5e8\n 37202: jump @1525\n      : @1415 [@dyn 755] (gas: 1)\n 37205: t0 = 1512, jump @1525\n      : @1416 [@dyn 756] (gas: 11)\n 37211: a0 = u64 [s1 + 0x28]\n 37214: a0 = a0 << 0x20\n 37217: a0 = a0 >> 0x20\n 37220: u64 [s1 + 1464] = 0\n 37224: u64 [s1 + 1456] = 0\n 37228: u64 [s1 + 1448] = 0\n 37232: a1 = s1 + 0x5a0\n 37236: u64 [s1 + 0x90] = a0\n 37240: u64 [s1 + 0x5a0] = a0\n 37244: a0 = 0\n 37246: ra = 1514, jump @24\n      : @1417 [@dyn 757] (gas: 12)\n 37253: a0 = u64 [s1 + 0x78]\n 37256: a3 = s1 + 0x500\n 37260: u64 [a3 + 0x98] = a0\n 37264: a0 = u64 [s1 + 0x80]\n 37268: u64 [a3 + 0x90] = a0\n 37272: a0 = u64 [s1 + 0x88]\n 37276: u64 [a3 + 0x88] = a0\n 37280: a0 = 0x20\n 37283: a1 = s1 + 0x580\n 37287: a2 = u64 [s1 + 0x98]\n 37291: u64 [a3 + 0x80] = a2\n 37295: ra = 1516, jump @24\n      : @1418 [@dyn 758] (gas: 3)\n 37302: a1 = u64 [s1 + 0xb0]\n 37306: a0 = i32 [a1]\n 37308: jump @1420 if a0 >u 63\n      : @1419 (gas: 2)\n 37312: u32 [a1 + 0] = 0x40\n 37315: fallthrough\n      : @1420 (gas: 4)\n 37316: a0 = sp + 0xffffffffffffffe0\n 37319: a0 = a0 & 0xffffffffffffffe0\n 37322: u64 [s1 + 0x98] = a0\n 37326: t0 = 1518, jump @1557\n      : @1421 [@dyn 759] (gas: 4)\n 37332: ra = 0x5f0\n 37336: ecalli 9 // 'hash_keccak_256'\n 37338: t0 = 0x5f2\n 37342: jump @1533\n      : @1422 [@dyn 760] (gas: 1)\n 37345: t0 = 1522, jump @1533\n      : @1423 [@dyn 761] (gas: 2)\n 37351: a0 = s1 + 0x560\n 37355: ra = 1524, jump @26\n      : @1424 [@dyn 762] (gas: 7)\n 37362: a0 = u32 [s1 + 0x564]\n 37366: a1 = u64 [s1 + 0x568]\n 37370: a2 = u64 [s1 + 0x570]\n 37374: a0 = a0 << 0x20\n 37377: a1 = a1 | a2\n 37380: a0 = a0 | a1\n 37383: jump @1484 if a0 == 0\n      : @1425 (gas: 10)\n 37387: u64 [s1 + 1368] = 0\n 37391: a0 = u64 [s1 + 0x40]\n 37394: u64 [s1 + 0x540] = a0\n 37398: a0 = u64 [s1 + 0x38]\n 37401: u64 [s1 + 0x548] = a0\n 37405: a1 = s1 + 0x540\n 37409: a0 = u64 [s1 + 0xa8]\n 37413: u64 [s1 + 0x550] = a0\n 37417: a0 = 0\n 37419: ra = 1526, jump @24\n      : @1426 [@dyn 763] (gas: 7)\n 37426: u64 [s1 + 1336] = 0\n 37430: u64 [s1 + 1328] = 0\n 37434: u64 [s1 + 1312] = 0x4\n 37439: a0 = 0x20\n 37442: a1 = s1 + 0x520\n 37446: u64 [s1 + 1320] = 0\n 37450: ra = 1528, jump @24\n      : @1427 [@dyn 764] (gas: 3)\n 37457: a1 = u64 [s1 + 0xb0]\n 37461: a0 = i32 [a1]\n 37463: jump @1429 if a0 >u 63\n      : @1428 (gas: 2)\n 37467: u32 [a1 + 0] = 0x40\n 37470: fallthrough\n      : @1429 (gas: 4)\n 37471: a0 = sp + 0xffffffffffffffe0\n 37474: a0 = a0 & 0xffffffffffffffe0\n 37477: u64 [s1 + 0xa0] = a0\n 37481: t0 = 1530, jump @1557\n      : @1430 [@dyn 765] (gas: 22)\n 37487: ecalli 9 // 'hash_keccak_256'\n 37489: a3 = u64 [s1 + 0xa0]\n 37493: a0 = u64 [a3 + 0x18]\n 37496: a1 = u64 [a3 + 0x10]\n 37499: a2 = u64 [a3 + 0x8]\n 37502: a3 = u64 [a3]\n 37504: a0 = reverse a0\n 37506: u64 [s1 + 0xa0] = a0\n 37510: a0 = reverse a1\n 37512: u64 [s1 + 0x98] = a0\n 37516: a0 = reverse a2\n 37518: u64 [s1 + 0x88] = a0\n 37522: a0 = reverse a3\n 37524: u64 [s1 + 0x80] = a0\n 37528: u64 [s1 + 1304] = 0\n 37532: u64 [s1 + 1296] = 0\n 37536: u64 [s1 + 1288] = 0\n 37540: a1 = s1 + 0x500\n 37544: a0 = u64 [s1 + 0x30]\n 37547: u64 [s1 + 0x500] = a0\n 37551: a0 = 0\n 37553: ra = 1532, jump @24\n      : @1431 [@dyn 766] (gas: 12)\n 37560: a0 = u64 [s1 + 0x80]\n 37564: a3 = s1 + 0x400\n 37568: u64 [a3 + 0xf8] = a0\n 37572: a0 = u64 [s1 + 0x88]\n 37576: u64 [a3 + 0xf0] = a0\n 37580: a0 = u64 [s1 + 0x98]\n 37584: u64 [a3 + 0xe8] = a0\n 37588: a0 = 0x20\n 37591: a1 = s1 + 0x4e0\n 37595: a2 = u64 [s1 + 0xa0]\n 37599: u64 [a3 + 0xe0] = a2\n 37603: ra = 1534, jump @24\n      : @1432 [@dyn 767] (gas: 3)\n 37610: a1 = u64 [s1 + 0xb0]\n 37614: a0 = i32 [a1]\n 37616: jump @1434 if a0 >u 63\n      : @1433 (gas: 2)\n 37620: u32 [a1 + 0] = 0x40\n 37623: fallthrough\n      : @1434 (gas: 4)\n 37624: a0 = sp + 0xffffffffffffffe0\n 37627: a0 = a0 & 0xffffffffffffffe0\n 37630: u64 [s1 + 0xa0] = a0\n 37634: t0 = 1536, jump @1557\n      : @1435 [@dyn 768] (gas: 4)\n 37640: ra = 0x602\n 37644: ecalli 9 // 'hash_keccak_256'\n 37646: t0 = 0x604\n 37650: jump @1525\n      : @1436 [@dyn 769] (gas: 1)\n 37653: t0 = 1540, jump @1525\n      : @1437 [@dyn 770] (gas: 8)\n 37659: u64 [s1 + 1240] = 0\n 37663: u64 [s1 + 1232] = 0\n 37667: u64 [s1 + 1224] = 0\n 37671: a1 = s1 + 0x4c0\n 37675: a0 = u64 [s1 + 0x90]\n 37679: u64 [s1 + 0x4c0] = a0\n 37683: a0 = 0\n 37685: ra = 1542, jump @24\n      : @1438 [@dyn 771] (gas: 12)\n 37692: a0 = u64 [s1 + 0x78]\n 37695: a3 = s1 + 0x400\n 37699: u64 [a3 + 0xb8] = a0\n 37703: a0 = u64 [s1 + 0x80]\n 37707: u64 [a3 + 0xb0] = a0\n 37711: a0 = u64 [s1 + 0x88]\n 37715: u64 [a3 + 0xa8] = a0\n 37719: a0 = 0x20\n 37722: a1 = s1 + 0x4a0\n 37726: a2 = u64 [s1 + 0x98]\n 37730: u64 [a3 + 0xa0] = a2\n 37734: ra = 1544, jump @24\n      : @1439 [@dyn 772] (gas: 3)\n 37741: a1 = u64 [s1 + 0xb0]\n 37745: a0 = i32 [a1]\n 37747: jump @1441 if a0 >=u 64\n      : @1440 (gas: 2)\n 37751: u32 [a1 + 0] = 0x40\n 37754: fallthrough\n      : @1441 (gas: 4)\n 37755: a0 = sp + 0xffffffffffffffe0\n 37758: a0 = a0 & 0xffffffffffffffe0\n 37761: u64 [s1 + 0x98] = a0\n 37765: t0 = 1546, jump @1557\n      : @1442 [@dyn 773] (gas: 4)\n 37771: ra = 0x60c\n 37775: ecalli 9 // 'hash_keccak_256'\n 37777: t0 = 0x60e\n 37781: jump @1533\n      : @1443 [@dyn 774] (gas: 1)\n 37784: t0 = 1550, jump @1533\n      : @1444 [@dyn 775] (gas: 2)\n 37790: a0 = s1 + 0x480\n 37794: ra = 1552, jump @26\n      : @1445 [@dyn 776] (gas: 3)\n 37801: a1 = u64 [s1 + 0x480]\n 37805: a0 = a1 & 0xff\n 37809: jump @1485 if a0 == 0\n      : @1446 (gas: 3)\n 37813: u64 [s1 + 0x98] = a1\n 37817: a0 = a1 & 0xff0000\n 37823: jump @1486 if a0 != 0\n      : @1447 (gas: 16)\n 37827: a0 = u64 [s1 + 0x498]\n 37831: u64 [s1 + 0x58] = a0\n 37834: a0 = u64 [s1 + 0x490]\n 37838: u64 [s1 + 0x60] = a0\n 37841: a0 = u64 [s1 + 0x488]\n 37845: u64 [s1 + 0x68] = a0\n 37848: u64 [s1 + 1112] = 0\n 37852: a0 = u64 [s1 + 0x40]\n 37855: u64 [s1 + 0x440] = a0\n 37859: a0 = u64 [s1 + 0x38]\n 37862: u64 [s1 + 0x448] = a0\n 37866: a1 = s1 + 0x440\n 37870: a0 = u64 [s1 + 0xa8]\n 37874: u64 [s1 + 0x450] = a0\n 37878: a0 = 0\n 37880: ra = 1554, jump @24\n      : @1448 [@dyn 777] (gas: 7)\n 37887: u64 [s1 + 1080] = 0\n 37891: u64 [s1 + 1072] = 0\n 37895: u64 [s1 + 1056] = 0x1\n 37900: a0 = 0x20\n 37903: a1 = s1 + 0x420\n 37907: u64 [s1 + 1064] = 0\n 37911: ra = 1556, jump @24\n      : @1449 [@dyn 778] (gas: 3)\n 37918: a2 = u64 [s1 + 0xb0]\n 37922: a0 = i32 [a2]\n 37924: jump @1451 if a0 >u 63\n      : @1450 (gas: 2)\n 37928: u32 [a2 + 0] = 0x40\n 37931: fallthrough\n      : @1451 (gas: 4)\n 37932: a0 = sp + 0xffffffffffffffe0\n 37935: a0 = a0 & 0xffffffffffffffe0\n 37938: u64 [s1 + 0x88] = a0\n 37942: t0 = 1558, jump @1557\n      : @1452 [@dyn 779] (gas: 28)\n 37948: ecalli 9 // 'hash_keccak_256'\n 37950: a3 = u64 [s1 + 0x88]\n 37954: a0 = u64 [a3]\n 37956: a1 = u64 [a3 + 0x8]\n 37959: a2 = u64 [a3 + 0x10]\n 37962: a3 = u64 [a3 + 0x18]\n 37965: a0 = reverse a0\n 37967: u64 [s1 + 0x88] = a0\n 37971: a0 = reverse a1\n 37973: u64 [s1 + 0x80] = a0\n 37977: a0 = reverse a2\n 37979: u64 [s1 + 0x78] = a0\n 37982: a0 = reverse a3\n 37984: u64 [s1 + 0x70] = a0\n 37987: a1 = sp + 0xffffffffffffffe0\n 37990: a1 = a1 & 0xffffffffffffffe0\n 37993: sp = a1\n 37995: a2 = u64 [s1 + 0x98]\n 37999: a0 = a2 | 0x10000\n 38004: a2 = u64 [s1 + 0x58]\n 38007: u64 [a1 + 0x18] = a2\n 38010: a2 = u64 [s1 + 0x60]\n 38013: u64 [a1 + 0x10] = a2\n 38016: a2 = u64 [s1 + 0x68]\n 38019: u64 [a1 + 0x8] = a2\n 38022: u64 [a1] = a0\n 38024: a0 = u64 [s1 + 0xa0]\n 38028: ra = 1560, jump @28\n      : @1453 [@dyn 780] (gas: 25)\n 38035: a1 = u64 [s1 + 0x98]\n 38039: a0 = a1 & 0xff00\n 38044: u64 [s1 + 0x98] = a0\n 38048: a0 = sp + 0xffffffffffffffe0\n 38051: a1 = a0 & 0xffffffffffffffe0\n 38054: sp = a1\n 38056: a0 = u64 [s1 + 0x70]\n 38059: a0 = a0 + 0x1\n 38062: a2 = a0 <u 0x1\n 38065: a4 = u64 [s1 + 0x78]\n 38068: a4 = a4 + a2\n 38071: a2 = a0 | a4\n 38074: a2 = a2 <u 0x1\n 38077: a3 = u64 [s1 + 0x80]\n 38081: a2 = a2 + a3\n 38084: a3 = a2 <u a3\n 38087: a5 = u64 [s1 + 0x88]\n 38091: a3 = a3 + a5\n 38094: u64 [a1 + 0x18] = a3\n 38097: u64 [a1 + 0x10] = a2\n 38100: u64 [a1 + 0x8] = a4\n 38103: u64 [a1] = a0\n 38105: a0 = s1 + 0x400\n 38109: u64 [s1 + 0xa0] = a1\n 38113: ra = 1562, jump @26\n      : @1454 [@dyn 781] (gas: 27)\n 38120: t0 = u64 [s1 + 0x418]\n 38124: t1 = u64 [s1 + 0x410]\n 38128: a3 = u64 [s1 + 0x408]\n 38132: t2 = u64 [s1 + 0x400]\n 38136: a1 = sp + 0xffffffffffffffe0\n 38139: a1 = a1 & 0xffffffffffffffe0\n 38142: sp = a1\n 38144: a5 = u64 [0x20120]\n 38149: a5 = a5 + t2\n 38152: a2 = a5 <u t2\n 38155: a0 = a3 + a2\n 38158: a0 = a0 + 0xffffffffffffffff\n 38161: ra = a0 ^ a3\n 38164: a4 = a0 <u a3\n 38167: a4 = a2 if ra == 0\n 38170: a2 = t1 + 0xffffffffffffffff\n 38173: a4 = a4 + a2\n 38176: ra = a4 <u a2\n 38179: a2 = t1 <u 0x1\n 38182: a2 = t0 - a2\n 38185: a2 = a2 + ra\n 38188: u64 [a1 + 0x8] = a0\n 38191: u64 [a1] = a5\n 38193: u64 [a1 + 0x10] = a4\n 38196: u64 [a1 + 0x18] = a2\n 38199: a0 = u64 [s1 + 0x98]\n 38203: jump @1465 if a0 == 0\n      : @1455 (gas: 7)\n 38207: a0 = u64 [0x20128]\n 38212: u64 [s1 + 0x98] = a0\n 38216: a0 = t2 <u a0\n 38219: a0 = 0 if a3 != 0\n 38221: a2 = t1 | t0\n 38224: a0 = 0 if a2 != 0\n 38226: jump @1487 if a0 != 0\n      : @1456 (gas: 2)\n 38230: a0 = u64 [s1 + 0xa0]\n 38234: ra = 1564, jump @28\n      : @1457 [@dyn 782] (gas: 22)\n 38241: a0 = sp + 0xffffffffffffffe0\n 38244: a1 = a0 & 0xffffffffffffffe0\n 38247: sp = a1\n 38249: a2 = u64 [s1 + 0x70]\n 38252: a0 = a2 + 0x2\n 38255: a4 = a0 <u a2\n 38258: a3 = u64 [s1 + 0x78]\n 38261: a2 = a3 + a4\n 38264: a3 = a2 <u a3\n 38267: a3 = a4 if a4 == 0\n 38270: a4 = u64 [s1 + 0x80]\n 38274: a3 = a3 + a4\n 38277: a5 = a3 <u a4\n 38280: a4 = u64 [s1 + 0x88]\n 38284: a4 = a4 + a5\n 38287: u64 [a1 + 0x10] = a3\n 38290: u64 [a1 + 0x8] = a2\n 38293: u64 [a1] = a0\n 38295: u64 [a1 + 0x18] = a4\n 38298: a0 = s1 + 0x3e0\n 38302: u64 [s1 + 0xa0] = a1\n 38306: ra = 1566, jump @26\n      : @1458 [@dyn 783] (gas: 28)\n 38313: t0 = u64 [s1 + 0x3f8]\n 38317: t1 = u64 [s1 + 0x3f0]\n 38321: a3 = u64 [s1 + 0x3e8]\n 38325: a4 = u64 [s1 + 0x3e0]\n 38329: a1 = sp + 0xffffffffffffffe0\n 38332: a1 = a1 & 0xffffffffffffffe0\n 38335: sp = a1\n 38337: t2 = u64 [s1 + 0x98]\n 38341: t2 = t2 + a4\n 38344: a0 = t2 <u a4\n 38347: a2 = a3 + a0\n 38350: a5 = a2 <u a3\n 38353: a5 = a0 if a0 == 0\n 38356: a5 = a5 + t1\n 38359: a0 = a5 <u t1\n 38362: u64 [a1 + 0x10] = a5\n 38365: a5 = u64 [0x20130]\n 38370: a0 = a0 + t0\n 38373: u64 [a1 + 0x8] = a2\n 38376: u64 [a1] = t2\n 38378: a2 = a5 <u a4\n 38381: a3 = a3 + 0x1\n 38384: a2 = 0 if a3 != 0\n 38386: a3 = t1 & t0\n 38389: a3 = a3 + 0x1\n 38392: a2 = 0 if a3 != 0\n 38394: u64 [a1 + 0x18] = a0\n 38397: jump @1489 if a2 != 0\n      : @1459 (gas: 2)\n 38401: a0 = u64 [s1 + 0xa0]\n 38405: ra = 1568, jump @28\n      : @1460 [@dyn 784] (gas: 3)\n 38412: a0 = s1 + 0x3c0\n 38416: a1 = 0x40\n 38419: ra = 1570, jump @22\n      : @1461 [@dyn 785] (gas: 6)\n 38426: a4 = s1 + 0x300\n 38430: a0 = u64 [a4 + 0xd8]\n 38434: a1 = u64 [a4 + 0xd0]\n 38438: a2 = u64 [a4 + 0xc8]\n 38442: a3 = u64 [a4 + 0xc0]\n 38446: t0 = 1572, jump @1520\n      : @1462 [@dyn 786] (gas: 1)\n 38452: jump @1479 if a0 != 0\n      : @1463 (gas: 9)\n 38456: u64 [s1 + 952] = 0\n 38460: u64 [s1 + 944] = 0\n 38464: u64 [s1 + 936] = 0\n 38468: a1 = s1 + 0x3a0\n 38472: a0 = u64 [s1 + 0x98]\n 38476: u64 [s1 + 0x3a0] = a0\n 38480: a0 = a3\n 38482: u64 [s1 + 0xb8] = a3\n 38486: ra = 1574, jump @24\n      : @1464 [@dyn 787] (gas: 33)\n 38493: u64 [s1 + 824] = 0\n 38497: u64 [s1 + 816] = 0\n 38501: u64 [s1 + 808] = 0\n 38505: a0 = u64 [s1 + 0x30]\n 38508: u64 [s1 + 0x320] = a0\n 38512: u64 [s1 + 856] = 0\n 38516: u64 [s1 + 848] = 0\n 38520: u64 [s1 + 840] = 0\n 38524: a0 = u64 [s1 + 0x90]\n 38528: u64 [s1 + 0x340] = a0\n 38532: u64 [s1 + 888] = 0\n 38536: a0 = u64 [s1 + 0xa8]\n 38540: u64 [s1 + 0x370] = a0\n 38544: a0 = u64 [s1 + 0x38]\n 38547: u64 [s1 + 0x368] = a0\n 38551: a0 = u64 [0x20138]\n 38556: a1 = u64 [0x20140]\n 38561: a2 = u64 [0x20148]\n 38566: a3 = u64 [s1 + 0x40]\n 38569: u64 [s1 + 0x360] = a3\n 38573: u64 [s1 + 0x398] = a0\n 38577: u64 [s1 + 0x390] = a1\n 38581: u64 [s1 + 0x388] = a2\n 38585: a0 = u64 [0x20150]\n 38590: a1 = 0x20\n 38593: a2 = s1 + 0x380\n 38597: a3 = s1 + 0x360\n 38601: a4 = s1 + 0x340\n 38605: a5 = s1 + 0x320\n 38609: u64 [s1 + 0x380] = a0\n 38613: a0 = u64 [s1 + 0xb8]\n 38617: ra = 0x638\n 38621: jump @34\n      : @1465 (gas: 7)\n 38625: a0 = u64 [0x20128]\n 38630: u64 [s1 + 0x98] = a0\n 38634: a0 = t2 <u a0\n 38637: a0 = 0 if a3 != 0\n 38639: a2 = t1 | t0\n 38642: a0 = 0 if a2 != 0\n 38644: jump @1491 if a0 != 0\n      : @1466 (gas: 2)\n 38648: a0 = u64 [s1 + 0xa0]\n 38652: ra = 1576, jump @28\n      : @1467 [@dyn 788] (gas: 7)\n 38659: u64 [s1 + 1624] = 0\n 38663: u64 [s1 + 1616] = 0\n 38667: u64 [s1 + 1608] = 0\n 38671: u64 [s1 + 1600] = 0\n 38675: a0 = s1 + 0x280\n 38679: a1 = s1 + 0x640\n 38683: ra = 1578, jump @26\n      : @1468 [@dyn 789] (gas: 28)\n 38690: t0 = u64 [s1 + 0x298]\n 38694: t1 = u64 [s1 + 0x290]\n 38698: a3 = u64 [s1 + 0x288]\n 38702: a4 = u64 [s1 + 0x280]\n 38706: a1 = sp + 0xffffffffffffffe0\n 38709: a1 = a1 & 0xffffffffffffffe0\n 38712: sp = a1\n 38714: t2 = u64 [s1 + 0x98]\n 38718: t2 = t2 + a4\n 38721: a0 = t2 <u a4\n 38724: a2 = a3 + a0\n 38727: a5 = a2 <u a3\n 38730: a5 = a0 if a0 == 0\n 38733: a5 = a5 + t1\n 38736: a0 = a5 <u t1\n 38739: u64 [a1 + 0x10] = a5\n 38742: a5 = u64 [0x20130]\n 38747: a0 = a0 + t0\n 38750: u64 [a1 + 0x8] = a2\n 38753: u64 [a1] = t2\n 38755: a2 = a5 <u a4\n 38758: a3 = a3 + 0x1\n 38761: a2 = 0 if a3 != 0\n 38763: a3 = t1 & t0\n 38766: a3 = a3 + 0x1\n 38769: a2 = 0 if a3 != 0\n 38771: u64 [a1 + 0x18] = a0\n 38774: jump @1493 if a2 != 0\n      : @1469 (gas: 6)\n 38778: u64 [s1 + 1656] = 0\n 38782: u64 [s1 + 1648] = 0\n 38786: u64 [s1 + 1640] = 0\n 38790: u64 [s1 + 1632] = 0\n 38794: a0 = s1 + 0x660\n 38798: ra = 1580, jump @28\n      : @1470 [@dyn 790] (gas: 1)\n 38805: ra = 1582, jump @15\n      : @1471 [@dyn 791] (gas: 59)\n 38812: a1 = u64 [0x301b0]\n 38817: u64 [s1 + 0xa0] = a1\n 38821: a1 = u64 [0x301c0]\n 38826: u64 [s1 + 0x88] = a1\n 38830: a0 = u64 [0x301b8]\n 38835: u64 [s1 + 0x80] = a0\n 38839: ecalli 11 // 'ref_time_left'\n 38841: a1 = u64 [s1 + 0x80]\n 38845: a1 = reverse a1\n 38847: a2 = a1 << 0x20\n 38850: a3 = u64 [s1 + 0x88]\n 38854: a3 = reverse a3\n 38856: a3 = a3 >> 0x20\n 38859: a2 = a2 | a3\n 38862: a1 = a1 >> 0x20\n 38865: a3 = u64 [s1 + 0xa0]\n 38869: a3 = reverse a3\n 38871: a4 = 0x30190\n 38876: a5 = a3 << 0x20\n 38879: a1 = a1 | a5\n 38882: a3 = a3 >> 0x20\n 38885: u32 [0x301a0] = a3\n 38890: u64 [0x30198] = a1\n 38895: u64 [0x30190] = a2\n 38900: u64 [s1 + 1688] = 0\n 38904: u64 [s1 + 1680] = 0\n 38908: u64 [s1 + 1672] = 0\n 38912: a1 = u64 [s1 + 0x98]\n 38916: a2 = s1 + 0x600\n 38920: u64 [a2 + 0x80] = a1\n 38924: u32 [s1 + 1696] = 0\n 38928: a0 = a0 >u 0x8fc\n 38932: a1 = -a0\n 38934: u64 [a2 + 0xd8] = a1\n 38938: u64 [a2 + 0xd0] = a1\n 38942: u64 [a2 + 0xc8] = a1\n 38946: u64 [a2 + 0xc0] = a1\n 38950: a4 = a4 << 0x20\n 38953: a4 = a4 >> 0x20\n 38956: a0 = a0 << 0x23\n 38959: a0 = a0 | a4\n 38962: a1 = s1 + 0x680\n 38966: a1 = a1 << 0x20\n 38969: a1 = a1 >> 0x20\n 38972: a2 = s1 + 0x6c0\n 38976: a2 = a2 << 0x20\n 38979: a3 = a2 | a1\n 38982: a4 = u64 [s1 + 0x50]\n 38985: a4 = a4 << 0x20\n 38988: a4 = a4 >> 0x20\n 38991: a1 = s1 + 0x6a0\n 38995: a1 = a1 << 0x20\n 38998: a5 = a1 | a4\n 39001: a1 = 0xffffffffffffffff\n 39004: a2 = 0xffffffffffffffff\n 39007: ecalli 1 // 'call'\n 39009: u64 [s1 + 0xa0] = a0\n 39013: a0 = s1 + 0x260\n 39017: ra = 1584, jump @1368\n      : @1472 [@dyn 792] (gas: 2)\n 39023: a0 = u64 [s1 + 0xa0]\n 39027: jump @1498 if a0 != 0\n      : @1473 (gas: 3)\n 39031: a0 = s1 + 0x220\n 39035: a1 = 0x40\n 39038: ra = 1586, jump @22\n      : @1474 [@dyn 793] (gas: 6)\n 39045: a4 = s1 + 0x200\n 39049: a0 = u64 [a4 + 0x38]\n 39052: a1 = u64 [a4 + 0x30]\n 39055: a2 = u64 [a4 + 0x28]\n 39058: a3 = u64 [a4 + 0x20]\n 39061: t0 = 1588, jump @1520\n      : @1475 [@dyn 794] (gas: 1)\n 39067: jump @1479 if a0 != 0\n      : @1476 (gas: 9)\n 39071: u64 [s1 + 536] = 0\n 39075: u64 [s1 + 528] = 0\n 39079: u64 [s1 + 520] = 0\n 39083: a1 = s1 + 0x200\n 39087: a0 = u64 [s1 + 0x98]\n 39091: u64 [s1 + 0x200] = a0\n 39095: a0 = a3\n 39097: u64 [s1 + 0xb8] = a3\n 39101: ra = 1590, jump @24\n      : @1477 [@dyn 795] (gas: 32)\n 39108: u64 [s1 + 408] = 0\n 39112: u64 [s1 + 400] = 0\n 39116: u64 [s1 + 392] = 0\n 39120: a0 = u64 [s1 + 0x30]\n 39123: u64 [s1 + 0x180] = a0\n 39127: u64 [s1 + 440] = 0\n 39131: u64 [s1 + 432] = 0\n 39135: u64 [s1 + 424] = 0\n 39139: a0 = u64 [s1 + 0x90]\n 39143: u64 [s1 + 0x1a0] = a0\n 39147: u64 [s1 + 472] = 0\n 39151: a0 = u64 [s1 + 0xa8]\n 39155: u64 [s1 + 0x1d0] = a0\n 39159: a0 = u64 [s1 + 0x38]\n 39162: u64 [s1 + 0x1c8] = a0\n 39166: a0 = u64 [0x20158]\n 39171: a1 = u64 [0x20160]\n 39176: a2 = u64 [0x20168]\n 39181: a3 = u64 [s1 + 0x40]\n 39184: u64 [s1 + 0x1c0] = a3\n 39188: u64 [s1 + 0x1f8] = a0\n 39192: u64 [s1 + 0x1f0] = a1\n 39196: u64 [s1 + 0x1e8] = a2\n 39200: a0 = u64 [0x20170]\n 39205: a1 = 0x20\n 39208: a2 = s1 + 0x1e0\n 39212: a3 = s1 + 0x1c0\n 39216: a4 = s1 + 0x1a0\n 39220: a5 = s1 + 0x180\n 39224: u64 [s1 + 0x1e0] = a0\n 39228: a0 = u64 [s1 + 0xb8]\n 39232: ra = 1592, jump @34\n      : @1478 [@dyn 796] (gas: 7)\n 39239: sp = s0 + 0xfffffffffffff900\n 39243: a0 = sp + 0x600\n 39247: ra = u64 [a0 + 0xf8]\n 39251: s0 = u64 [a0 + 0xf0]\n 39255: s1 = u64 [a0 + 0xe8]\n 39259: sp = sp + 0x700\n 39263: ret\n      : @1479 (gas: 1)\n 39265: trap\n      : @1480 (gas: 8)\n 39266: u64 [s1 + 1552] = 0\n 39270: u64 [s1 + 1544] = 0\n 39274: u64 [s1 + 1536] = 0\n 39278: a0 = 0xcf114bd900000000\n 39288: a1 = s1 + 0x600\n 39292: u64 [s1 + 0x618] = a0\n 39296: a0 = 0\n 39298: ra = 1594, jump @24\n      : @1481 [@dyn 797] (gas: 2)\n 39305: a1 = i32 [0x20180]\n 39310: jump @1483 if a1 >u 31\n      : @1482 (gas: 2)\n 39314: u32 [0x20180] = 0x20\n 39320: fallthrough\n      : @1483 (gas: 6)\n 39321: a1 = 0x20190\n 39326: i32 a1 = a1 + 0\n 39328: a0 = 0x1\n 39331: a2 = 0x4\n 39334: ecalli 14 // 'seal_return'\n 39336: fallthrough\n      : @1484 (gas: 9)\n 39337: u64 [s1 + 208] = 0\n 39341: u64 [s1 + 200] = 0\n 39345: u64 [s1 + 192] = 0\n 39349: a0 = 0xa7a9536d00000000\n 39359: a1 = s1 + 0xc0\n 39363: u64 [s1 + 0xd8] = a0\n 39367: a0 = 0\n 39369: ra = 0x646\n 39373: jump @24\n      : @1485 (gas: 9)\n 39377: u64 [s1 + 240] = 0\n 39381: u64 [s1 + 232] = 0\n 39385: u64 [s1 + 224] = 0\n 39389: a0 = 0xafa4e2b600000000\n 39399: a1 = s1 + 0xe0\n 39403: u64 [s1 + 0xf8] = a0\n 39407: a0 = 0\n 39409: ra = 0x646\n 39413: jump @24\n      : @1486 (gas: 9)\n 39417: u64 [s1 + 1136] = 0\n 39421: u64 [s1 + 1128] = 0\n 39425: u64 [s1 + 1120] = 0\n 39429: a0 = 0x560ff90000000000\n 39439: a1 = s1 + 0x460\n 39443: u64 [s1 + 0x478] = a0\n 39447: a0 = 0\n 39449: ra = 0x646\n 39453: jump @24\n      : @1487 (gas: 8)\n 39457: u64 [s1 + 720] = 0\n 39461: u64 [s1 + 712] = 0\n 39465: u64 [s1 + 704] = 0\n 39469: a0 = 0x4e487b7100000000\n 39479: a1 = s1 + 0x2c0\n 39483: u64 [s1 + 0x2d8] = a0\n 39487: a0 = 0\n 39489: ra = 1596, jump @24\n      : @1488 [@dyn 798] (gas: 8)\n 39496: u64 [s1 + 696] = 0\n 39500: u64 [s1 + 688] = 0\n 39504: u64 [s1 + 672] = 0x11\n 39509: a0 = 0x4\n 39512: a1 = s1 + 0x2a0\n 39516: u64 [s1 + 680] = 0\n 39520: ra = 0x644\n 39524: jump @24\n      : @1489 (gas: 8)\n 39528: u64 [s1 + 784] = 0\n 39532: u64 [s1 + 776] = 0\n 39536: u64 [s1 + 768] = 0\n 39540: a0 = 0x4e487b7100000000\n 39550: a1 = s1 + 0x300\n 39554: u64 [s1 + 0x318] = a0\n 39558: a0 = 0\n 39560: ra = 1598, jump @24\n      : @1490 [@dyn 799] (gas: 8)\n 39567: u64 [s1 + 760] = 0\n 39571: u64 [s1 + 752] = 0\n 39575: u64 [s1 + 736] = 0x11\n 39580: a0 = 0x4\n 39583: a1 = s1 + 0x2e0\n 39587: u64 [s1 + 744] = 0\n 39591: ra = 0x644\n 39595: jump @24\n      : @1491 (gas: 8)\n 39599: u64 [s1 + 304] = 0\n 39603: u64 [s1 + 296] = 0\n 39607: u64 [s1 + 288] = 0\n 39611: a0 = 0x4e487b7100000000\n 39621: a1 = s1 + 0x120\n 39625: u64 [s1 + 0x138] = a0\n 39629: a0 = 0\n 39631: ra = 1600, jump @24\n      : @1492 [@dyn 800] (gas: 8)\n 39638: u64 [s1 + 280] = 0\n 39642: u64 [s1 + 272] = 0\n 39646: u64 [s1 + 256] = 0x11\n 39651: a0 = 0x4\n 39654: a1 = s1 + 0x100\n 39658: u64 [s1 + 264] = 0\n 39662: ra = 0x644\n 39666: jump @24\n      : @1493 (gas: 8)\n 39670: u64 [s1 + 368] = 0\n 39674: u64 [s1 + 360] = 0\n 39678: u64 [s1 + 352] = 0\n 39682: a0 = 0x4e487b7100000000\n 39692: a1 = s1 + 0x160\n 39696: u64 [s1 + 0x178] = a0\n 39700: a0 = 0\n 39702: ra = 1602, jump @24\n      : @1494 [@dyn 801] (gas: 7)\n 39709: u64 [s1 + 344] = 0\n 39713: u64 [s1 + 336] = 0\n 39717: u64 [s1 + 320] = 0x11\n 39722: a0 = 0x4\n 39725: a1 = s1 + 0x140\n 39729: u64 [s1 + 328] = 0\n 39733: ra = 1604, jump @24\n      : @1495 [@dyn 802] (gas: 3)\n 39740: a0 = u64 [s1 + 0xb0]\n 39744: a0 = i32 [a0]\n 39746: jump @1497 if a0 >u 63\n      : @1496 (gas: 5)\n 39750: a1 = u64 [s1 + 0xb0]\n 39754: u32 [a1 + 0] = 0x40\n 39757: a0 = 0x1\n 39760: a2 = 0x24\n 39763: jump @1502\n      : @1497 (gas: 7)\n 39765: a0 = 0x1\n 39768: a2 = 0x24\n 39771: a1 = u64 [s1 + 0xb8]\n 39775: ecalli 14 // 'seal_return'\n 39777: a0 = 0\n 39779: ra = 0x648\n 39783: jump @43\n      : @1498 (gas: 8)\n 39787: u64 [s1 + 592] = 0\n 39791: u64 [s1 + 584] = 0\n 39795: u64 [s1 + 576] = 0\n 39799: a0 = 0x90b8ec1800000000\n 39809: a1 = s1 + 0x240\n 39813: u64 [s1 + 0x258] = a0\n 39817: a0 = 0\n 39819: ra = 1606, jump @24\n      : @1499 [@dyn 803] (gas: 3)\n 39826: a0 = u64 [s1 + 0xb0]\n 39830: a0 = i32 [a0]\n 39832: jump @1501 if a0 >u 31\n      : @1500 (gas: 5)\n 39836: a1 = u64 [s1 + 0xb0]\n 39840: u32 [a1 + 0] = 0x20\n 39843: a0 = 0x1\n 39846: a2 = 0x4\n 39849: jump @1502\n      : @1501 (gas: 7)\n 39851: a0 = 0x1\n 39854: a2 = 0x4\n 39857: a1 = u64 [s1 + 0xb8]\n 39861: ecalli 14 // 'seal_return'\n 39863: a0 = 0\n 39865: ra = 0x648\n 39869: jump @43\n      : @1502 (gas: 5)\n 39873: a1 = u64 [s1 + 0xb8]\n 39877: ecalli 14 // 'seal_return'\n 39879: a0 = 0\n 39881: ra = 0x648\n 39885: jump @43\n      : @1503 [export #0: 'call'] (gas: 2)\n 39889: a0 = 0\n 39891: ra = 1608, jump @43\n      : @1504 [@dyn 804] [export #1: 'deploy'] (gas: 2)\n 39898: a0 = 0x1\n 39901: ra = 1610, jump @43\n      : @1505 [@dyn 805] (gas: 21)\n 39908: a3 = u64 [s1 + 0x168]\n 39912: a0 = u64 [a3 + 0x18]\n 39915: a1 = u64 [a3 + 0x10]\n 39918: a2 = u64 [a3 + 0x8]\n 39921: a3 = u64 [a3]\n 39923: a0 = reverse a0\n 39925: u64 [s1 + 0x160] = a0\n 39929: a0 = reverse a1\n 39931: u64 [s1 + 0x158] = a0\n 39935: a0 = reverse a2\n 39937: u64 [s1 + 0x150] = a0\n 39941: a0 = reverse a3\n 39943: u64 [s1 + 0x148] = a0\n 39947: a0 = sp + 0xffffffffffffffe0\n 39950: a0 = a0 & 0xffffffffffffffe0\n 39953: u64 [s1 + 0x168] = a0\n 39957: sp = a0\n 39959: a2 = s1 + 0x7ff\n 39963: a2 = a2 + 0x119\n 39967: a0 = u64 [s1 + 0x198]\n 39971: jump [t0]\n      : @1506 (gas: 15)\n 39973: a0 = u64 [a2 + 0x8]\n 39976: a1 = i32 [a2 + 0x10]\n 39979: a2 = u64 [a2]\n 39981: a0 = reverse a0\n 39983: a3 = a0 << 0x20\n 39986: a1 = reverse a1\n 39988: a1 = a1 >> 0x20\n 39991: a3 = a3 | a1\n 39994: a0 = a0 >> 0x20\n 39997: a1 = reverse a2\n 39999: a2 = a1 << 0x20\n 40002: a0 = a0 | a2\n 40005: a1 = a1 >> 0x20\n 40008: a2 = s1 + 0x1918\n 40012: jump [t0]\n      : @1507 (gas: 16)\n 40014: a0 = u64 [a2 + 0x8]\n 40017: a1 = i32 [a2 + 0x10]\n 40020: a2 = u64 [a2]\n 40022: a0 = reverse a0\n 40024: a3 = a0 << 0x20\n 40027: a1 = reverse a1\n 40029: a1 = a1 >> 0x20\n 40032: a3 = a3 | a1\n 40035: a0 = a0 >> 0x20\n 40038: a1 = reverse a2\n 40040: a2 = a1 << 0x20\n 40043: a0 = a0 | a2\n 40046: a1 = a1 >> 0x20\n 40049: a2 = s1 + 0x7ff\n 40053: a2 = a2 + 0x119\n 40057: jump [t0]\n      : @1508 (gas: 27)\n 40059: u64 [s1 + 0x168] = a0\n 40063: a0 = ra - a3\n 40066: a0 = a0 <u a5\n 40069: a1 = ra <u a3\n 40072: a5 = u64 [s1 + 0x138]\n 40076: a4 = ra - a5\n 40079: a4 = a4 - a1\n 40082: a4 = a4 - a0\n 40085: ra = a4 >>a 0x3f\n 40088: a0 = u64 [s1 + 0x130]\n 40092: a0 = ra & a0\n 40095: a1 = u64 [s1 + 0x140]\n 40099: t2 = a1 - a0\n 40102: a1 = a1 <u a0\n 40105: t1 = a2 - a1\n 40108: a1 = 0 if a2 != 0\n 40110: a0 = a3 - a1\n 40113: u64 [s1 + 0x148] = a0\n 40117: a1 = a3 <u a1\n 40120: a1 = a5 - a1\n 40123: a0 = s1 + 0x100\n 40127: a3 = u64 [a0 + 0x98]\n 40131: a5 = u64 [a0 + 0x90]\n 40135: a2 = a3 | a5\n 40138: a2 = a2 <u 0x1\n 40141: a4 = u64 [a0 + 0x80]\n 40145: jump [t0]\n      : @1509 (gas: 8)\n 40147: a0 = u64 [a2 + 0x8]\n 40150: a1 = i32 [a2 + 0x10]\n 40153: a2 = u64 [a2]\n 40155: a3 = reverse a0\n 40157: a0 = a3 << 0x20\n 40160: a1 = reverse a1\n 40162: a1 = a1 >> 0x20\n 40165: jump [t0]\n      : @1510 (gas: 24)\n 40167: a0 = a1 if a2 == 0\n 40170: a2 = u64 [s1 + 0x150]\n 40174: a3 = a2\n 40176: a1 = a2\n 40178: a2 = u64 [s1 + 0x160]\n 40182: a3 = a0 if a2 != 0\n 40185: u64 [s1 + 0x168] = a3\n 40189: a0 = u64 [s1 + 0x148]\n 40193: a3 = u64 [s1 + 0x130]\n 40197: a0 = a0 | a3\n 40200: a3 = u64 [s1 + 0x120]\n 40204: a0 = a3 if a5 == 0\n 40207: a4 = u64 [s1 + 0x158]\n 40211: a3 = a4\n 40213: a3 = a0 if a2 != 0\n 40216: u64 [s1 + 0x160] = a3\n 40220: a0 = u64 [s1 + 0x170]\n 40224: a0 = 0 if a5 == 0\n 40226: u64 [s1 + 0x170] = a0\n 40230: u64 [s1 + 304] = 0x15180\n 40237: a0 = u64 [s1 + 0x198]\n 40241: a2 = a0 + 0xffffffffffffff80\n 40244: a0 = a4\n 40246: jump [t0]\n      : @1511 (gas: 16)\n 40248: a2 = u64 [s1 + 0xd8]\n 40252: a0 = u64 [a2 + 0x8]\n 40255: a1 = i32 [a2 + 0x10]\n 40258: a2 = u64 [a2]\n 40260: a0 = reverse a0\n 40262: a3 = a0 << 0x20\n 40265: a1 = reverse a1\n 40267: a1 = a1 >> 0x20\n 40270: a3 = a3 | a1\n 40273: a0 = a0 >> 0x20\n 40276: a1 = reverse a2\n 40278: a2 = a1 << 0x20\n 40281: a0 = a0 | a2\n 40284: a1 = a1 >> 0x20\n 40287: a2 = s1 + 0x2118\n 40291: jump [t0]\n      : @1512 (gas: 8)\n 40293: a0 = sp + 0xffffffffffffffe0\n 40296: a0 = a0 & 0xffffffffffffffe0\n 40299: u64 [s1 + 0x190] = a0\n 40303: sp = a0\n 40305: i32 a2 = a0 + 0\n 40307: a1 = 0x40\n 40310: a0 = u64 [s1 + 0x110]\n 40314: jump [t0]\n      : @1513 (gas: 18)\n 40316: a1 = a2 + 0x1\n 40319: u64 [s1 + 0x198] = a1\n 40323: a0 = a1 <u 0x1\n 40326: a0 = a0 + a3\n 40329: u64 [s1 + 0x190] = a0\n 40333: a0 = a0 | a1\n 40336: a0 = a0 <u 0x1\n 40339: a0 = a0 + t1\n 40342: u64 [s1 + 0x180] = a0\n 40346: a0 = a0 <u t1\n 40349: a0 = a0 + ra\n 40352: u64 [s1 + 0x188] = a0\n 40356: a1 = 0xff - a2\n 40360: u64 [s1 + 0x160] = a1\n 40364: a2 = 0x80 - a1\n 40368: a0 = u64 [s1 + 0x140]\n 40372: a1 = u64 [s1 + 0x138]\n 40376: jump [t0]\n      : @1514 (gas: 9)\n 40378: a0 = u64 [a3 + 0x18]\n 40381: a1 = u64 [a3 + 0x10]\n 40384: a2 = u64 [a3 + 0x8]\n 40387: a3 = u64 [a3]\n 40389: a0 = reverse a0\n 40391: a4 = reverse a1\n 40393: a2 = reverse a2\n 40395: a3 = reverse a3\n 40397: jump [t0]\n      : @1515 (gas: 8)\n 40399: a0 = sp + 0xffffffffffffffe0\n 40402: a0 = a0 & 0xffffffffffffffe0\n 40405: u64 [s1 + 0x168] = a0\n 40409: sp = a0\n 40411: i32 a2 = a0 + 0\n 40413: a1 = 0x40\n 40416: a0 = u64 [s1 + 0x178]\n 40420: jump [t0]\n      : @1516 (gas: 8)\n 40422: a3 = a4 <u a3\n 40425: a5 = a2 + a3\n 40428: a2 = a5 <u a2\n 40431: a2 = a3 if a3 == 0\n 40434: a2 = a2 + a1\n 40437: a1 = a2 <u a1\n 40440: a0 = a0 + a1\n 40443: jump [t0]\n      : @1517 (gas: 16)\n 40445: a3 = u64 [s1 + 0x190]\n 40449: a0 = u64 [a3 + 0x18]\n 40452: a1 = u64 [a3 + 0x10]\n 40455: a2 = u64 [a3 + 0x8]\n 40458: a3 = u64 [a3]\n 40460: a0 = reverse a0\n 40462: u64 [s1 + 0x190] = a0\n 40466: a0 = reverse a1\n 40468: u64 [s1 + 0x188] = a0\n 40472: a0 = reverse a2\n 40474: u64 [s1 + 0x180] = a0\n 40478: a0 = reverse a3\n 40480: u64 [s1 + 0x178] = a0\n 40484: a0 = 0x1918\n 40488: a2 = s1 + a0\n 40491: jump [t0]\n      : @1518 (gas: 16)\n 40493: a3 = u64 [s1 + 0x168]\n 40497: a0 = u64 [a3 + 0x18]\n 40500: a1 = u64 [a3 + 0x10]\n 40503: a2 = u64 [a3 + 0x8]\n 40506: a3 = u64 [a3]\n 40508: a0 = reverse a0\n 40510: u64 [s1 + 0x168] = a0\n 40514: a0 = reverse a1\n 40516: u64 [s1 + 0x160] = a0\n 40520: a0 = reverse a2\n 40522: u64 [s1 + 0x158] = a0\n 40526: a0 = reverse a3\n 40528: u64 [s1 + 0x150] = a0\n 40532: a2 = s1 + 0x7ff\n 40536: a2 = a2 + 0x119\n 40540: jump [t0]\n      : @1519 (gas: 16)\n 40542: t2 = u64 [s1 + 0x140]\n 40546: t1 = u64 [s1 + 0x138]\n 40550: u64 [s1 + 344] = 0\n 40554: u64 [s1 + 336] = 0\n 40558: a4 = s1 + 0x100\n 40562: a2 = u64 [a4 + 0x28]\n 40565: a1 = 0 if a2 == 0\n 40567: a0 = 0 if a2 == 0\n 40569: u64 [a4 + 0x48] = a0\n 40572: a3 = u64 [a4 + 0x30]\n 40575: a2 = a3 + 0xffffffffffffffff\n 40578: u64 [a4 + 0x28] = a2\n 40581: a2 = a3 >u 0\n 40583: a2 = a2 + 0xffffffffffffffff\n 40586: u64 [a4 + 0x20] = a2\n 40589: jump [t0]\n      : @1520 (gas: 8)\n 40591: a0 = a0 | a2\n 40594: a2 = a3 | a1\n 40597: a2 = a2 | a0\n 40600: a2 = a2 >> 0x20\n 40603: a0 = a0 | a1\n 40606: a0 = a0 << 0x20\n 40609: a0 = a0 | a2\n 40612: jump [t0]\n      : @1521 (gas: 15)\n 40614: a0 = u64 [a3 + 0x18]\n 40617: a1 = u64 [a3 + 0x10]\n 40620: a2 = u64 [a3 + 0x8]\n 40623: a3 = u64 [a3]\n 40625: a0 = reverse a0\n 40627: u64 [s1 + 0x188] = a0\n 40631: a0 = reverse a1\n 40633: u64 [s1 + 0x180] = a0\n 40637: a0 = reverse a2\n 40639: u64 [s1 + 0x178] = a0\n 40643: a0 = reverse a3\n 40645: u64 [s1 + 0x170] = a0\n 40649: a0 = sp + 0xffffffffffffffe0\n 40652: a0 = a0 & 0xffffffffffffffe0\n 40655: jump [t0]\n      : @1522 (gas: 5)\n 40657: sp = a0\n 40659: i32 a2 = a0 + 0\n 40661: a1 = 0x40\n 40664: a0 = u64 [s1 + 0x190]\n 40668: jump [t0]\n      : @1523 (gas: 16)\n 40670: a3 = u64 [s1 + 0x160]\n 40674: a0 = u64 [a3 + 0x18]\n 40677: a1 = u64 [a3 + 0x10]\n 40680: a2 = u64 [a3 + 0x8]\n 40683: a3 = u64 [a3]\n 40685: a0 = reverse a0\n 40687: a4 = reverse a1\n 40689: a2 = reverse a2\n 40691: a3 = reverse a3\n 40693: a1 = u64 [s1 + 0x168]\n 40697: u64 [a1 + 0x18] = a3\n 40700: u64 [a1 + 0x10] = a2\n 40703: u64 [a1 + 0x8] = a4\n 40706: u64 [a1] = a0\n 40708: a0 = s1 + 0x7ff\n 40712: jump [t0]\n      : @1524 (gas: 15)\n 40714: a0 = u64 [a2 + 0x8]\n 40717: a1 = i32 [a2 + 0x10]\n 40720: a2 = u64 [a2]\n 40722: a0 = reverse a0\n 40724: a3 = a0 << 0x20\n 40727: a1 = reverse a1\n 40729: a1 = a1 >> 0x20\n 40732: a3 = a3 | a1\n 40735: a0 = a0 >> 0x20\n 40738: a1 = reverse a2\n 40740: a2 = a1 << 0x20\n 40743: a0 = a0 | a2\n 40746: a1 = a1 >> 0x20\n 40749: a2 = s1 + 0x1118\n 40753: jump [t0]\n      : @1525 (gas: 18)\n 40755: a3 = u64 [s1 + 0xa0]\n 40759: a0 = u64 [a3 + 0x18]\n 40762: a1 = u64 [a3 + 0x10]\n 40765: a2 = u64 [a3 + 0x8]\n 40768: a3 = u64 [a3]\n 40770: a0 = reverse a0\n 40772: u64 [s1 + 0x98] = a0\n 40776: a0 = reverse a1\n 40778: u64 [s1 + 0x88] = a0\n 40782: a0 = reverse a2\n 40784: u64 [s1 + 0x80] = a0\n 40788: a0 = reverse a3\n 40790: u64 [s1 + 0x78] = a0\n 40793: a0 = sp + 0xffffffffffffffe0\n 40796: a0 = a0 & 0xffffffffffffffe0\n 40799: u64 [s1 + 0xa0] = a0\n 40803: sp = a0\n 40805: jump [t0]\n      : @1526 (gas: 13)\n 40807: a0 = u64 [a3 + 0x18]\n 40810: a1 = u64 [a3 + 0x10]\n 40813: a2 = u64 [a3 + 0x8]\n 40816: a3 = u64 [a3]\n 40818: a0 = reverse a0\n 40820: u64 [s1 + 0x178] = a0\n 40824: a0 = reverse a1\n 40826: u64 [s1 + 0x170] = a0\n 40830: a0 = reverse a2\n 40832: u64 [s1 + 0x168] = a0\n 40836: a0 = reverse a3\n 40838: u64 [s1 + 0x160] = a0\n 40842: jump [t0]\n      : @1527 (gas: 8)\n 40844: a0 = sp + 0xffffffffffffffe0\n 40847: a0 = a0 & 0xffffffffffffffe0\n 40850: u64 [s1 + 0x168] = a0\n 40854: sp = a0\n 40856: i32 a2 = a0 + 0\n 40858: a1 = 0x40\n 40861: a0 = u64 [s1 + 0x170]\n 40865: jump [t0]\n      : @1528 (gas: 12)\n 40867: a4 = 0\n 40869: a5 = 0\n 40871: a2 = u64 [s1 + 0x128]\n 40875: a1 = 0 if a2 == 0\n 40877: a0 = 0 if a2 == 0\n 40879: a3 = u64 [s1 + 0x138]\n 40883: a2 = a3 + 0xffffffffffffffff\n 40886: u64 [s1 + 0x130] = a2\n 40890: a2 = a3 >u 0\n 40892: a2 = a2 + 0xffffffffffffffff\n 40895: u64 [s1 + 0x128] = a2\n 40899: jump [t0]\n      : @1529 (gas: 11)\n 40901: a1 = u64 [s1 + 0x198]\n 40905: a2 = u64 [s1 + 0x150]\n 40909: u64 [a1 + 0x8] = a2\n 40912: a2 = u64 [s1 + 0x158]\n 40916: u64 [a1] = a2\n 40918: a2 = u64 [s1 + 0x170]\n 40922: u32 [a1 + 0x10] = a2\n 40925: a3 = a1\n 40927: a2 = s1 + 0x2918\n 40931: a1 = u64 [s1 + 0x180]\n 40935: jump [t0]\n      : @1530 (gas: 11)\n 40937: a2 = u64 [s1 + 0x128]\n 40941: a1 = a1 | a2\n 40944: a2 = u64 [s1 + 0x198]\n 40948: a3 = a2 <u 0x80\n 40952: u64 [s1 + 0x128] = a3\n 40956: a4 = u64 [s1 + 0x120]\n 40960: a1 = a4 if a3 == 0\n 40963: a4 = u64 [s1 + 0x138]\n 40967: a4 = a1 if a2 != 0\n 40970: u64 [s1 + 0x138] = a4\n 40974: jump [t0]\n      : @1531 (gas: 12)\n 40976: a2 = t2 >> 0x3f\n 40979: a3 = t1 << 0x1\n 40982: a2 = a2 | a3\n 40985: a3 = t2 << 0x1\n 40988: t2 = u64 [s1 + 0x168]\n 40992: a4 = t2 >> 0x3f\n 40995: a3 = a3 | a4\n 40998: u64 [s1 + 0x140] = a3\n 41002: ra = u64 [s1 + 0x120]\n 41006: a0 = t1\n 41008: t1 = ra ^ a2\n 41011: jump [t0]\n      : @1532 (gas: 12)\n 41013: a1 = a1 << 0x1\n 41016: a4 = u64 [s1 + 0x148]\n 41020: a3 = a4 >> 0x3f\n 41023: a1 = a1 | a3\n 41026: u64 [s1 + 0x138] = a1\n 41030: a3 = a0 >> 0x3f\n 41033: a0 = a4 << 0x1\n 41036: a3 = a3 | a0\n 41039: a0 = t2 << 0x1\n 41042: a4 = u64 [s1 + 0x160]\n 41046: a1 = a4 >> 0x3f\n 41049: jump [t0]\n      : @1533 (gas: 15)\n 41051: a3 = u64 [s1 + 0x98]\n 41055: a0 = u64 [a3 + 0x18]\n 41058: a1 = u64 [a3 + 0x10]\n 41061: a2 = u64 [a3 + 0x8]\n 41064: a3 = u64 [a3]\n 41066: a0 = reverse a0\n 41068: a4 = reverse a1\n 41070: a2 = reverse a2\n 41072: a3 = reverse a3\n 41074: a1 = u64 [s1 + 0xa0]\n 41078: u64 [a1 + 0x18] = a3\n 41081: u64 [a1 + 0x10] = a2\n 41084: u64 [a1 + 0x8] = a4\n 41087: u64 [a1] = a0\n 41089: jump [t0]\n      : @1534 (gas: 8)\n 41091: u64 [sp + 48] = 0\n 41094: u64 [sp + 40] = 0\n 41097: u64 [sp + 32] = 0\n 41100: a0 = 0x4e487b7100000000\n 41110: a1 = sp + 0x20\n 41113: u64 [sp + 0x38] = a0\n 41116: a0 = 0\n 41118: jump [t0]\n      : @1535 (gas: 11)\n 41120: a0 = u64 [a3 + 0x18]\n 41123: a1 = u64 [a3 + 0x10]\n 41126: a2 = u64 [a3 + 0x8]\n 41129: a3 = u64 [a3]\n 41131: a0 = reverse a0\n 41133: a1 = reverse a1\n 41135: a2 = reverse a2\n 41137: a3 = reverse a3\n 41139: a4 = s1 + 0x2918\n 41143: a5 = a4 + 0x400\n 41147: jump [t0]\n      : @1536 (gas: 14)\n 41149: a0 = u64 [a3 + 0x18]\n 41152: a1 = u64 [a3 + 0x10]\n 41155: a2 = u64 [a3 + 0x8]\n 41158: a3 = u64 [a3]\n 41160: a0 = reverse a0\n 41162: a1 = reverse a1\n 41164: a2 = reverse a2\n 41166: a3 = reverse a3\n 41168: a4 = u64 [s1 + 0x198]\n 41172: u64 [a4 + 0x18] = a3\n 41175: u64 [a4 + 0x10] = a2\n 41178: u64 [a4 + 0x8] = a1\n 41181: u64 [a4] = a0\n 41183: jump [t0]\n      : @1537 (gas: 14)\n 41185: a0 = u64 [a2 + 0x8]\n 41188: a1 = i32 [a2 + 0x10]\n 41191: a2 = u64 [a2]\n 41193: a0 = reverse a0\n 41195: a3 = a0 << 0x20\n 41198: a1 = reverse a1\n 41200: a1 = a1 >> 0x20\n 41203: a3 = a3 | a1\n 41206: a0 = a0 >> 0x20\n 41209: a1 = reverse a2\n 41211: a2 = a1 << 0x20\n 41214: a0 = a0 | a2\n 41217: a1 = a1 >> 0x20\n 41220: jump [t0]\n      : @1538 (gas: 9)\n 41222: u64 [s1 + 0x160] = a3\n 41226: a1 = 0 if a4 == 0\n 41228: u64 [s1 + 0x168] = a1\n 41232: u64 [s1 + 312] = 0x15180\n 41239: a0 = u64 [s1 + 0x190]\n 41243: a2 = a0 + 0xffffffffffffff80\n 41246: a0 = a5\n 41248: a1 = t1\n 41250: jump [t0]\n      : @1539 (gas: 10)\n 41252: u64 [s1] = a3\n 41254: u64 [s1 + 0x8] = a2\n 41257: u64 [s1 + 0x10] = a1\n 41260: u64 [s1 + 0x18] = a0\n 41263: sp = s0 + 0xffffffffffffffc0\n 41266: ra = u64 [sp + 0x38]\n 41269: s0 = u64 [sp + 0x30]\n 41272: s1 = u64 [sp + 0x28]\n 41275: sp = sp + 0x40\n 41278: jump [t0]\n      : @1540 (gas: 6)\n 41280: a1 = a0 <u a1\n 41283: a3 = u64 [s1 + 0x190]\n 41287: a2 = a3 + a1\n 41290: a3 = a2 <u a3\n 41293: a3 = a1 if a1 == 0\n 41296: jump [t0]\n      : @1541 (gas: 5)\n 41298: a0 = sp + 0xffffffffffffffe0\n 41301: a2 = a0 & 0xffffffffffffffe0\n 41304: u64 [s1 + 0x198] = a2\n 41308: sp = a2\n 41310: jump [t0]\n      : @1542 (gas: 4)\n 41312: a0 = 0x2918\n 41316: a3 = s1 + a0\n 41319: a4 = a3 + 0x500\n 41323: jump [t0]\n      : @1543 (gas: 8)\n 41325: a0 = a0 | a2\n 41328: a2 = a4 | a1\n 41331: a2 = a2 | a0\n 41334: a2 = a2 >> 0x20\n 41337: a0 = a0 | a1\n 41340: a0 = a0 << 0x20\n 41343: a0 = a0 | a2\n 41346: jump [t0]\n      : @1544 (gas: 9)\n 41348: a0 = a0 | a1\n 41351: a1 = u64 [s1 + 0x148]\n 41355: a0 = a1 if a3 == 0\n 41358: a1 = u64 [s1 + 0x140]\n 41362: a1 = a0 if a2 != 0\n 41365: u64 [s1 + 0x140] = a1\n 41369: a0 = u64 [s1 + 0x158]\n 41373: a1 = u64 [s1 + 0x150]\n 41377: jump [t0]\n      : @1545 (gas: 16)\n 41379: a4 = u64 [a3]\n 41381: u64 [sp + 0x18] = a4\n 41384: a4 = u64 [a3 + 0x8]\n 41387: u64 [sp + 0x20] = a4\n 41390: a4 = u64 [a3 + 0x10]\n 41393: u64 [sp + 0x28] = a4\n 41396: a3 = u64 [a3 + 0x18]\n 41399: u64 [sp + 0x30] = a3\n 41402: s1 = u64 [a2]\n 41404: a3 = u64 [a2 + 0x8]\n 41407: u64 [sp] = a3\n 41409: a3 = u64 [a2 + 0x10]\n 41412: u64 [sp + 0x8] = a3\n 41415: a2 = u64 [a2 + 0x18]\n 41418: u64 [sp + 0x10] = a2\n 41421: jump [t0]\n      : @1546 (gas: 10)\n 41423: a3 = u64 [s1 + 0x190]\n 41427: a0 = u64 [a3]\n 41429: a1 = u64 [a3 + 0x8]\n 41432: a2 = u64 [a3 + 0x10]\n 41435: a3 = u64 [a3 + 0x18]\n 41438: a0 = reverse a0\n 41440: a1 = reverse a1\n 41442: a2 = reverse a2\n 41444: a3 = reverse a3\n 41446: jump [t0]\n      : @1547 (gas: 8)\n 41448: u64 [s1 + 0x160] = a0\n 41452: a0 = u64 [s1 + 0x188]\n 41456: a0 = a0 + 0x1\n 41459: a1 = a0 <u 0x1\n 41462: a2 = u64 [s1 + 0x190]\n 41466: a1 = a1 + a2\n 41469: a2 = s1 + 0x2918\n 41473: jump [t0]\n      : @1548 (gas: 7)\n 41475: u64 [s1 + 0x110] = a0\n 41479: u64 [s1 + 0x128] = a1\n 41483: a1 = u64 [s1 + 0x190]\n 41487: a2 = 0x80 - a1\n 41491: a0 = u64 [s1 + 0x150]\n 41495: a1 = u64 [s1 + 0x140]\n 41499: jump [t0]\n      : @1549 (gas: 8)\n 41501: a2 = u64 [s1 + 0x128]\n 41505: a1 = a1 | a2\n 41508: a3 = u64 [s1 + 0x190]\n 41512: a4 = a3 <u 0x80\n 41516: u64 [s1 + 0x128] = a4\n 41520: a2 = u64 [s1 + 0x118]\n 41524: a1 = a2 if a4 == 0\n 41527: jump [t0]\n      : @1550 (gas: 8)\n 41529: a0 = u64 [a4 + 0x38]\n 41532: a1 = u64 [a4 + 0x40]\n 41535: a2 = u64 [a4 + 0x30]\n 41538: a3 = u64 [a4 + 0x28]\n 41541: a1 = a1 | a2\n 41544: a0 = a0 | a3\n 41547: a0 = a0 | a1\n 41550: jump [t0]\n      : @1551 (gas: 8)\n 41552: a0 = u64 [a4 + 0xb8]\n 41556: a1 = u64 [a4 + 0xc0]\n 41560: a2 = u64 [a4 + 0xb0]\n 41564: a3 = u64 [a4 + 0xa8]\n 41568: a1 = a1 | a2\n 41571: a0 = a0 | a3\n 41574: a0 = a0 | a1\n 41577: jump [t0]\n      : @1552 (gas: 12)\n 41579: a0 = u64 [sp + 0x18]\n 41582: a1 = u64 [sp + 0x10]\n 41585: a2 = u64 [sp + 0x8]\n 41588: a3 = u64 [sp]\n 41590: a4 = a2 | a0\n 41593: a5 = a3 | a1\n 41596: a5 = a5 | a4\n 41599: a5 = a5 >> 0x20\n 41602: a4 = a4 | a1\n 41605: a4 = a4 << 0x20\n 41608: a4 = a4 | a5\n 41611: jump [t0]\n      : @1553 (gas: 7)\n 41613: u64 [s1 + 0x130] = a0\n 41617: u64 [s1 + 0x128] = a1\n 41621: a0 = u64 [s1 + 0x160]\n 41625: a2 = a0 + 0xffffffffffffff80\n 41628: a0 = u64 [s1 + 0x140]\n 41632: a1 = u64 [s1 + 0x138]\n 41636: jump [t0]\n      : @1554 (gas: 6)\n 41638: a1 = u64 [s1 + 0x180]\n 41642: a3 = a3 + a1\n 41645: a1 = a3 <u a1\n 41648: a4 = u64 [s1 + 0x198]\n 41652: a1 = a1 + a4\n 41655: jump [t0]\n      : @1555 (gas: 8)\n 41657: a2 = reverse a2\n 41659: u64 [s1 + 0x180] = a2\n 41663: a0 = reverse a3\n 41665: u64 [s1 + 0x198] = a0\n 41669: a1 = u64 [s1 + 0x178]\n 41673: u64 [a1 + 0x18] = a0\n 41676: u64 [a1 + 0x10] = a2\n 41679: jump [t0]\n      : @1556 (gas: 9)\n 41681: a0 = u64 [a3 + 0x18]\n 41684: a1 = u64 [a3 + 0x10]\n 41687: a2 = u64 [a3 + 0x8]\n 41690: a3 = u64 [a3]\n 41692: a0 = reverse a0\n 41694: a1 = reverse a1\n 41696: a2 = reverse a2\n 41698: a3 = reverse a3\n 41700: jump [t0]\n      : @1557 (gas: 5)\n 41702: sp = a0\n 41704: i32 a2 = a0 + 0\n 41706: a1 = 0x40\n 41709: a0 = u64 [s1 + 0xb8]\n 41713: jump [t0]\n      : @1558 (gas: 5)\n 41715: a0 = sp + 0xffffffffffffffe0\n 41718: a0 = a0 & 0xffffffffffffffe0\n 41721: u64 [s1 + 0x198] = a0\n 41725: sp = a0\n 41727: jump [t0]\n      : @1559 (gas: 8)\n 41729: a0 = sp + 0xffffffffffffffe0\n 41732: a0 = a0 & 0xffffffffffffffe0\n 41735: u64 [s1 + 0x160] = a0\n 41739: sp = a0\n 41741: i32 a2 = a0 + 0\n 41743: a1 = 0x40\n 41746: a0 = u64 [s1 + 0x170]\n 41750: jump [t0]\n      : @1560 (gas: 8)\n 41752: a0 = sp + 0xffffffffffffffe0\n 41755: a0 = a0 & 0xffffffffffffffe0\n 41758: u64 [s1 + 0x160] = a0\n 41762: sp = a0\n 41764: i32 a2 = a0 + 0\n 41766: a1 = 0x40\n 41769: a0 = u64 [s1 + 0x178]\n 41773: jump [t0]\n      : @1561 (gas: 6)\n 41775: u64 [s1 + 0x128] = a1\n 41779: a1 = u64 [s1 + 0x198]\n 41783: a2 = 0x80 - a1\n 41787: a0 = u64 [s1 + 0x158]\n 41791: a1 = u64 [s1 + 0x150]\n 41795: jump [t0]\n      : @1562 (gas: 4)\n 41797: a0 = u64 [s1 + 0x198]\n 41801: a0 = i32 [a0]\n 41803: a1 = 0x23\n 41806: jump [t0]\n      : @1563 (gas: 8)\n 41808: a0 = u64 [s1 + 0x198]\n 41812: a2 = u64 [s1 + 0x128]\n 41816: a0 = a0 | a2\n 41819: a2 = u64 [s1 + 0x110]\n 41823: a0 = a2 if a4 == 0\n 41826: t1 = u64 [s1 + 0x140]\n 41830: a3 = t1\n 41832: jump [t0]\n      : @1564 (gas: 9)\n 41834: u64 [a2 + 0x40] = a0\n 41837: a0 = u64 [s1 + 0x150]\n 41841: u64 [a2 + 0x38] = a0\n 41844: a0 = u64 [s1 + 0x158]\n 41848: u64 [a2 + 0x30] = a0\n 41851: a3 = a1\n 41853: a0 = 0x20\n 41856: a1 = s1 + 0x7ff\n 41860: jump [t0]\n      : @1565 (gas: 7)\n 41862: a4 = 0x100000000\n 41872: a0 = 0xffffffe0\n 41882: a0 = a1 <u a0\n 41885: a2 = u64 [a5 + 0x90]\n 41889: a0 = 0 if a2 != 0\n 41891: a0 = 0 if a3 != 0\n 41893: jump [t0]\n      : @1566 (gas: 8)\n 41895: a1 = u64 [s1 + 0x198]\n 41899: a0 = i32 [a1 + 0x10]\n 41902: u64 [s1 + 0x170] = a0\n 41906: a0 = u64 [a1]\n 41908: u64 [s1 + 0x158] = a0\n 41912: a0 = u64 [a1 + 0x8]\n 41915: u64 [s1 + 0x150] = a0\n 41919: jump [t0]\n      : @1567 (gas: 8)\n 41921: u64 [sp + 64] = 0\n 41924: u64 [sp + 56] = 0\n 41927: u64 [sp + 48] = 0\n 41930: a0 = 0x4e487b7100000000\n 41940: a1 = sp + 0x30\n 41943: u64 [sp + 0x48] = a0\n 41946: a0 = 0\n 41948: jump [t0]\n      : @1568 (gas: 10)\n 41950: sp = sp + 0xffffffffffffffc0\n 41953: u64 [sp + 0x38] = ra\n 41956: u64 [sp + 0x30] = s0\n 41959: u64 [sp + 0x28] = s1\n 41962: s0 = sp + 0x40\n 41965: sp = sp & 0xffffffffffffffe0\n 41968: s1 = a0\n 41970: i32 a0 = sp + 0\n 41972: a1 = 0x4\n 41975: jump [t0]\n      : @1569 (gas: 9)\n 41977: a0 = u64 [a2 + 0x8]\n 41980: a1 = i32 [a2 + 0x10]\n 41983: a2 = u64 [a2]\n 41985: a0 = reverse a0\n 41987: a3 = a0 << 0x20\n 41990: a1 = reverse a1\n 41992: a1 = a1 >> 0x20\n 41995: a1 = a1 | a3\n 41998: jump [t0]\n      : @1570 (gas: 9)\n 42000: a5 = s1 + 0x100\n 42004: u64 [a5 + 0x80] = a1\n 42008: u64 [a5 + 0x90] = a3\n 42012: a0 = a3 | a1\n 42015: u64 [a5 + 0x78] = a2\n 42018: u64 [a5 + 0x88] = a4\n 42022: a1 = a4 | a2\n 42025: a0 = a0 | a1\n 42028: jump [t0]\n      : @1571 (gas: 6)\n 42030: a3 = u64 [s1 + 0x190]\n 42034: ra = u64 [s1 + 0x180]\n 42038: a2 = a3 | ra\n 42041: a2 = a2 <u 0x1\n 42044: a4 = u64 [s1 + 0x170]\n 42048: jump [t0]\n      : @1572 (gas: 6)\n 42050: u64 [s1 + 0x148] = a0\n 42054: u64 [s1 + 0x120] = a1\n 42058: a0 = u64 [s1 + 0x140]\n 42062: a1 = u64 [s1 + 0x138]\n 42066: a2 = u64 [s1 + 0x198]\n 42070: jump [t0]\n      : @1573 (gas: 6)\n 42072: u64 [s1 + 0x148] = a0\n 42076: u64 [s1 + 0x168] = a1\n 42080: a0 = u64 [s1 + 0x158]\n 42084: a1 = u64 [s1 + 0x150]\n 42088: a2 = u64 [s1 + 0x160]\n 42092: jump [t0]\n      : @1574 (gas: 6)\n 42094: sp = s0 + 0xffffffffffffffa0\n 42097: ra = u64 [sp + 0x58]\n 42100: s0 = u64 [sp + 0x50]\n 42103: s1 = u64 [sp + 0x48]\n 42106: sp = sp + 0x60\n 42109: jump [t0]\n      : @1575 (gas: 6)\n 42111: u64 [s1 + 0x160] = a0\n 42115: u64 [s1 + 0x198] = a1\n 42119: a0 = u64 [s1 + 0x150]\n 42123: a1 = u64 [s1 + 0x140]\n 42127: a2 = u64 [s1 + 0x168]\n 42131: jump [t0]\n      : @1576 (gas: 5)\n 42133: a0 = sp + 0xffffffffffffffe0\n 42136: a0 = a0 & 0xffffffffffffffe0\n 42139: u64 [s1 + 0x178] = a0\n 42143: sp = a0\n 42145: jump [t0]\n      : @1577 (gas: 4)\n 42147: a0 = u64 [s1 + 0x148]\n 42151: a1 = s1 + 0x7ff\n 42155: a1 = a1 + 0x119\n 42159: jump [t0]\n      : @1578 (gas: 8)\n 42161: a0 = u64 [a4 + 0x98]\n 42165: a1 = u64 [a4 + 0xa0]\n 42169: a2 = u64 [a4 + 0x90]\n 42173: a3 = u64 [a4 + 0x88]\n 42177: a1 = a1 | a2\n 42180: a0 = a0 | a3\n 42183: a0 = a0 | a1\n 42186: jump [t0]\n      : @1579 (gas: 10)\n 42188: a4 = s1 + 0x100\n 42192: u64 [a4 + 0x70] = a1\n 42195: a1 = u64 [a4 + 0x90]\n 42199: a2 = u64 [a4 + 0x88]\n 42203: a2 = a2 | a1\n 42206: a1 = u64 [a4 + 0x98]\n 42210: a3 = u64 [a4 + 0x80]\n 42214: a1 = a1 | a3\n 42217: a1 = a1 | a2\n 42220: jump [t0]\n      : @1580 (gas: 8)\n 42222: i32 a0 = a0 + 0x118\n 42226: a3 = s1 + a0\n 42229: a5 = a3 + 0x700\n 42233: a0 = u64 [a5 + 0x20]\n 42236: a1 = u64 [a5 + 0x18]\n 42239: a2 = u64 [a5 + 0x10]\n 42242: a4 = u64 [a5 + 0x8]\n 42245: jump [t0]\n      : @1581 (gas: 4)\n 42247: i32 a0 = a0 + 0x118\n 42251: a3 = s1 + a0\n 42254: a4 = a3 + 0x100\n 42258: jump [t0]\n      : @1582 (gas: 8)\n 42260: u64 [a2 + 0x80] = a0\n 42264: a0 = u64 [s1 + 0x158]\n 42268: u64 [a2 + 0x78] = a0\n 42271: a0 = u64 [s1 + 0x160]\n 42275: u64 [a2 + 0x70] = a0\n 42278: a3 = a1\n 42280: a0 = 0x20\n 42283: jump [t0]\n      : @1583 (gas: 4)\n 42285: a0 = 0x2918\n 42289: a3 = s1 + a0\n 42292: a4 = a3 + 0x600\n 42296: jump [t0]\n      : @1584 (gas: 4)\n 42298: a0 = 0x2918\n 42302: a3 = s1 + a0\n 42305: a4 = a3 + 0x100\n 42309: jump [t0]\n      : @1585 (gas: 9)\n 42311: sp = sp + 0xffffffffffffffc0\n 42314: u64 [sp + 0x38] = ra\n 42317: u64 [sp + 0x30] = s0\n 42320: u64 [sp + 0x28] = s1\n 42323: s0 = sp + 0x40\n 42326: sp = sp & 0xffffffffffffffe0\n 42329: s1 = a0\n 42331: i32 a0 = sp + 0\n 42333: jump [t0]\n      : @1586 (gas: 4)\n 42335: a2 = a0\n 42337: a0 = 0x4e487b7100000000\n 42347: a1 = 0x2000\n 42351: jump [t0]\n      : @1587 (gas: 6)\n 42353: u64 [s1 + 0x118] = a0\n 42357: u64 [s1 + 0x110] = a1\n 42361: a2 = u64 [s1 + 0x168]\n 42365: a0 = a2 <u 0x80\n 42369: u64 [s1 + 0x138] = a0\n 42373: jump [t0]\n      : @1588 (gas: 8)\n 42375: a0 = u64 [a4 + 0x58]\n 42378: a1 = u64 [a4 + 0x60]\n 42381: a2 = u64 [a4 + 0x50]\n 42384: a3 = u64 [a4 + 0x48]\n 42387: a1 = a1 | a2\n 42390: a0 = a0 | a3\n 42393: a0 = a0 | a1\n 42396: jump [t0]\n      : @1589 (gas: 2)\n 42398: a3 = a2 & 0x40\n 42401: jump @1593 if a3 != 0\n      : @1590 (gas: 1)\n 42404: jump @1592 if a2 == 0\n      : @1591 (gas: 6)\n 42407: i32 a3 = 0x40 - a2\n 42410: a3 = a1 << a3\n 42413: a1 = a1 >> a2\n 42416: a0 = a0 >> a2\n 42419: a0 = a0 | a3\n 42422: ret\n      : @1592 (gas: 1)\n 42424: ret\n      : @1593 (gas: 4)\n 42426: a0 = a2 + 0xffffffffffffffc0\n 42429: a0 = a1 >> a0\n 42432: a1 = 0\n 42434: ret\n      : @1594 (gas: 2)\n 42436: a3 = a2 & 0x40\n 42439: jump @1598 if a3 != 0\n      : @1595 (gas: 1)\n 42442: jump @1597 if a2 == 0\n      : @1596 (gas: 6)\n 42445: i32 a3 = 0x40 - a2\n 42448: a3 = a0 >> a3\n 42451: a0 = a0 << a2\n 42454: a1 = a1 << a2\n 42457: a1 = a1 | a3\n 42460: ret\n      : @1597 (gas: 1)\n 42462: ret\n      : @1598 (gas: 4)\n 42464: a1 = a2 + 0xffffffffffffffc0\n 42467: a1 = a0 << a1\n 42470: a0 = 0\n 42472: ret\n","bytecode":{"object":"50564d0000d0c3000000000000010700c1d001c0008003817cf40443b2a766a42db9815a1e2efa877e5c0519ec4fe51c83c442ba392fca77e2116ca4777b81d4ea98e10c16c565173f400507b7679bbdc6b249bd00a16076687a96c0a237ac310730ce86cab6918a9cee1f20395b3b80e1e34a4eb67d08a74e0dc354af37bd04b03f2522518a6d9314cf35a01b6f25119782e62a75888f78d1b417406592b5dbd6886d772784123ca0859bbddc544b79277c562e79691cb8290000e8890423c78affffe7890423c78a00001876fbdc3875ffff1776fbdc3875975752f4e33b24c3dceff4c6a46dc4173eb68630b623f1b6b5ef1d0584397d33527c373f8a8f13d8dec2e4708e54ca59a13610a1f529f1946a422bba3c51695be6d8186647f5847091063f7d0def110bff283e79b8ad5546d505d5764c8d017f00001876fbdc38750000e8890423c78affff1776fbdc3875f2a8b439f25bd8ebdf119a7090238fa225717e85c68e190f0982ba0d5cabfde394247a18b5e26bbe1d817609543b3c0451c960f58acf6b97ba06c2c9ba61c041200000000481261200000000070000000b0000001900000027000000350000003b000000480000005a0000006500000074000000770000008400000094000000a4000000af000000c1000000cc00000062616c616e636563616c6c63616c6c5f646174615f636f707963616c6c5f646174615f6c6f616463616c6c5f646174615f73697a6563616c6c65726465706f7369745f6576656e746765745f696d6d757461626c655f646174616765745f73746f72616765686173685f6b656363616b5f3235366e6f777265665f74696d655f6c65667472657475726e5f646174615f636f707972657475726e5f646174615f73697a657365616c5f72657475726e7365745f696d6d757461626c655f646174617365745f73746f7261676576616c75655f7472616e73666572726564051302c0d19b0463616c6cc0da9b066465706c6f7906c0f8c0832502c0eaa5da00220266031c04b104b9048b05930592069706180723073e078f079a0704082d0841086d088208c108e6089c09a209a809c709f0094c0a7e0a840a8a0a960aab0ad20aef0af50a130b250b460b540b760baa0bd70bdd0bff0b1e0c2b0c560c6a0cd40ceb0c290d770dc30dd00d050e0b0e110e1d0e8a0e940eb30ebb0edb0e7d0f121058106610e8102a113711521188119e11a911071243124a125112a512c012b713d213f0131314a814c314e2142f15bc16c716ce16f516001720174117481786179117e5172e1864187118201936194119a119d619e519f2192e1b351b3c1b5a1b611b701bbd1be71bff1b1a1c411c4c1c681c971ce31c041d211dde1d201e321e391e471e4e1ed21eec1e121f5b1f701f7a1fff1f06200d2030205c207820af20b820d8201e2128214c218321a121b221bc21f22129224722582262227b229422f4225f23af23bc23f62301244c245524862491249724f5240425102528254325692573258f25ad2503260d262626ab26e026f126f72604270a278e27a527bb27f127062810286928a328a928de284e29542979298e29b629d429da29f8290b2a2c2a3b2a5d2a922ae42a022b0f2b382b8a2bbb2bd12b2a2c382c442cd32dd92df92d022e222e282e6e2e782e912e9a2ebc2eef2e472f423048304e306b3071307f30d230d830de300031a831b131d1316f327832a932c732093312338733b933c333f5336234d234323538353e359035aa35e435f83524362a3644364a36503656368a3690367937e937f337113837386438c538cf38ef3817394739583962398039373a413a5e3a863aa03aad3ab33adb3ae13a0c3b263b373b413b923be03b113c553c5f3c833caf3cc93cd63cdc3c003d3c3d563d633d693d953d9b3dca3de43df13df73d013e233e923e0a3f3f3fac3fbe3f044042407e40ed404f4164416e41fa4169423f43d743554481448744a144a744ad44b344e744ed44d6452a46b04613479047c347f8475d48c04809499549044a4e4a994aaa4ab04acd4ad64af64a3a4b674b704b9c4ba54bd54b3a4c5a4ca64cb44ce24c304d884dd24d214e574ed94eba5052519d51a651c35128524152a252e552f3526953de53f05300548854b154dd540b556f5586559156cb56145856586e589458fd587f59fa59155a3b5ac65a0e5b2b5b625b6f5ba45bae5beb5bfc5b025c225c2b5c4b5c515c855c8b5c945cad5cb65cde5c105d1a5d735d805dcb5dea5d5b5eb15e3b5f505f5a5fdf5fec5f02603b606760fe6043619261b8613e6232639e6348646e649664bc64326538653e658f65ba65d065e365ec650c665a6660666666a166af66f266ff661a67306743674c670568396859688c68bf6826694d69686994699e69be69c769e7690f6a306a3a6a6e6aa56ac36ad46ade6af36afd6a226b266c2c6c326c386c3e6c446c666c6c6c926c986c9e6ca46cae6cb46cba6cc46cca6cd06cd66ce96c2f6df56dfb6d156e416e4b6e6b6e746e946ed16efe6e2c6f3e6f506f726f836f8d6fb16fbb6fe06f387042705f7068708870aa70dc70fc7033715571a771c071f07152725c7279728272a272c072cd72d372f3722a73487355735b7364738a739f73e8730e742c749d74bf74f17417758f75a475ae75cb75d475f475fa751c76237643765c768b76cc76e176eb7662777477b077ba77d777e07700781e782b78317851788478a278b378bd78cc78ec7823795b7965797e79a079da79197a557a1e7b247b2a7b307b367b3c7b5e7b647b8a7b907b967b9c7ba67bac7bb27bbc7bc27bc87bce7be17b277c7d7c907c997cb97c017d277d807d957d9f7d2d7ebe7eea7e1a7f3b7f457f637f1780438061806e807480a080a680b080c280e0802681a081ec811982378244824a826f8285829c82ba82c782cd82fa8200830a831d833b8348834e835983ff833a849d84f78449857185d185d785f98514861a862a863086398654865a8667866d8676868b86fb8603870a87228746870e88298830884a886e8813891a8934895889158a2f8a538ab08ab78acf8af38a3b8b658bb88bf68b358cc68ccd8ce58c098d378e4e8e678e858e048f1a8f348f778ff190109155915b918591b691d491e191e791f291329251926f92b892ea92089315931b933c936d938b9398939e93a993ff931e943c949394e8946195a9950c961a9634965d960397229795979c976f9885989b98c49847998999489a8f9ad69a1d9b3c9b929bda9be49baa876e978a2098aa20977b2098bb20c89b0bc9ba0a979b019abbaeab20ae873751094ec87909647a017c8b95880195ac0178ab64caab9cf42836510934c87909647a017c8b95880195ac0178ab64caab9cf4281c51091a839aff01c8a80b7cbb9599ffc8a70c78cb83aaff5209f032009511e87b10107b15087b163306780102390578010251051c3307b00103837783680a070139077801022003780102ac5710821010821508821695111832000039087801025108b0073307b0010383770a0f28a3079511f07b10087b156489647533082064975010026e057c78017c797c7a027c7b03978808d4980897aa1097bb18d4ba0ad4a8087c79057c7a047c7b067c7c07979908d4a90997bb1097cc18d4cb0bd4b909979920d489027c79097c7a087c7b0a7c7c0b979908d4a90997bb1097cc18d4cb0bd4b9097c7a0d7c7b0c7c7c0e7c780f97aa08d4ba0a97cc10978818d4c808d4a808978820d498037c78117c7a107c7b127c7c13978808d4a80897bb1097cc18d4cb0bd4b8087c7a157c7b147c7c167c791797aa08d4ba0a97cc10979918d4c909d4a909979920d4890a7c78197c79187c7b1a7c7c1b978808d4980897bb1097cc18d4cb0bd4b8087c791d7c7b1c7c7c1e7c771f979908d4b90997cc10977718d4c707d49707977720d487076f776fa86f396f2a7b5a187b59107b58087b57821008821595111032009511d87b10207b15187b161082897b19088289087b1982851082861833082050100426046f686f59821a6faa821b086fbb787b18787a10787908787898bc38787c1f98bc30787c1e98bc28787c1d98bc20787c1c98bc18787c1b98bc10787c1a98bb08787b1998ab38787b1798ab30787b1698ab28787b1598ab20787b1498ab18787b1398ab10787b1298aa08787a11989a38787a0f989a30787a0e989a28787a0d989a20787a0c989a18787a0b989a10787a0a98990878790998893878790798893078790698892878790598892078790498891878790398891078790298880878780182102082151882161095112832009511a07b10587b15507b16489515608411e06476828718828910828a0882886f776f996faa6f887b18187b1a107b19087b17491138491130491128491120481140208318831a20831b403309ff33070a08821738821830821928821a206f776f886f996faa7b6a187b69107b68087b675012060ea10032009511a07b10587b15509515608411e08272827a08827b108277188283828908828c108288186f746fbb6faa6f276f826fcc6f996f387b17187b1a107b1b087b147b18387b19307b1c287b12208318831a203309ff330b2033070a109551a08210588215509511603200951160ff7b1098007b1590007b1688009515a0008411e082ab7b1b3882ab087b1b3082ab107b1b2882aa187b1a20829a7b1a18829a087b1a10829a107b1a088299187b1964865010082c0282186f888219086f99821a106faa821b186fbb7b1b587b1a507b19487b18408218206f888219286f99821a306faa821b386fbb7b1b787b1a707b19687b18608379836a8317403308020a06955160ff8210980082159000821688009511a0003200951120ff7b10d8007b15d0007b16c8009515e0008411e082bc7b1c4082bc087b1c4882bc107b1c5082bb187b1b5850120af89c007b183850100c8f016f687b187882186f887b18708218086f887b18688218106f887b18608218186f887b1898008218206f887b1890008218286f887b1888008218306f887b1880008218406f887b18b8008218486f887b18b0008218506f887b18a8008218586f887b18a0008379811a388317603308030a06955120ff8210d8008215d0008216c8009511e00032009511e0fe7b1018017b1510017b160801951520018411e082c67b166082c6087b166882c6107b167082cc187b1c7882bc7b1c3882bc087b1c4082bc107b1c4882bb187b1b5050120e1e9c007b1858501010b5006f687b18980082186f887b1890008218086f887b1888008218106f887b1880008218186f887b18b8008218206f887b18b0008218286f887b18a8008218306f887b18a0008218386f887b18d8008218406f887b18d0008218486f887b18c8008218506f887b18c0008218606f887b18f8008218686f887b18f0008218706f887b18e8008218786f887b18e0008379811a58831780003308040a069551e0fe8210180182151001821608019511200132008b7910520931c8780883881f8488e05638000001253309800102390a800102ae8a093d088001020133089001028377c887073200009511f07b10087b158475010a04013d077c010251050750101209501014f001951100ff7b10f8007b15f0007b16e800951500018411e04921d8004921d0004921c8004921c0008317c0000a11018217d0008218d8008219c800821ac000d49808d4a707d487075207e10039067c010297672098772095771f8477e09578a000d878077b18a0007b17a80094777b17b0003307409518a0004921b800501016ebfa3307a000646850101825ff8377646833090a020154161fa000951780003308a00050101a8bf9821790008219980014080000000001000000d37808d49808987a2088aa01949a938a510a7982188000821a8800d4780bd49a0cd4cb0b510b727b18607b1a687b1770330780009518607b197850101c74fa95174033084050101e2ff9821758821850821948821640d49707d48609d47909989920d48707977720d49707510769003308900102838833070128b1003308900102838833070128a400330890010283883307012897004911104911084901140700000000c8f5bc1464187b17183307501020fff9390880010256181f0b20038001022001330890010283883307013309040a0e01646733085010221bfe8377330833090a029517203308800050102488f8821738821930821a28821b203e07c801033e09c001033e0ab801033e0bb00103284ef864673308501026dbfd8378330733093300280a0e280a33093300280a0e01951110fe7b10e8017b15e0017b16d8019515f001951190ce8411e06416956918294929c0004929b8004929a80080003307409568c0294929b00050102a42f933077c01027b67980139077c01025517040728f364956700308377e0f9330833002c0a0301956918298197e4005247871cb2880a28e41651476cd3238fe9045247346662990a28a627956a18315247e1ac83b60a28f62252472d16dfba0a28ad1a5247b00de3d00a285c0d51475f53cc0e2e01514786e72a22e9085247bf2f262b0a28e61f52474d7d1a2e0a28891b5247f50796370a2847125247b836cc480a2856105247aef7914a0a28131f5147b327d0610a288e2b4929400549293805492930054929280595670030837740fe33002e0a1133023028c89700501230c4970050123297980051070628db568267980181775617030728db569567a01133084050103402f7956718118278a0007b689801827898007b689001827890007b688001827788007b67880150103685f6956b000182b7980082b88000d4870782b88800648a82b99000d49808d47808988820d49707977720d4870751070628e8553a09b001033a08b801033807c00103956b1811492b80007bb7787bb870956880117bb96864a7501038b7f7330820826788013300c40328ecfb4929400149293801492930014929280195670030837740fa33003a0a1133023c28c09a0050123cbc9a0050123eb59700510706281356501240b59800ac78062814569567a00333004233027805283799008267a0038268a8038069b003492698037b6990037b688803956880037b678003330750104431f749267803492670034926600301330720956860034926680350104614f7501248a69900390880010256183f133308403d0880010233024a2849960050124a45960033079001028377839933084033004c0a0901826a980182a71882a81082a90882aa6f7c7b6c88016f8b7b6b900150124e7997007b8b087b8c95674003501050a1f7826758037b677801826750037b677001826748037b67680182674003501252789600959a00017ba850d478087ba74888870182688001c887077ba758d8870782689801c887077ba760956720039568602a5010544bf7826738037b675801826730037b675001826728037b674801826720037b674001826888019587025012566f9500501258cf9600956b182995bc00017bc880007bca787bc9707bc768956700039568802a50105af6f6956c000382c7187b67380182c7107b6730018268880195870350125c28950082c8087b68880150125e81960082cb7b6b8001956b182995bc00017bc8a0007bca98007bc990007bc788009567e0029568a02a5010609ff68267e0027b6728019567c0023308405010625ff495670002827bd800827cd000827ac8008279c000d4ba07d4c908d47808988820d4c707977720d48707510706287053826760017b67a002826768017b67a802826770017b67b0029568a002826778017b67b80264977b6998017b6a90017b6b78017b6c70015010642ff5956c000182c8980082c77882ca70d47a0a501266a1960052070628185383872082684001956c00027bc88000826848017bc88800826850017bc8900095688002826958017bc998007b6a78017b6b7001501068daf495690001829b78829a9000829898008297709577c0d8780794a794b752070628be5283874082688001956a00027ba860826888017ba868826830017ba87095686002826938017ba97850106a8cf4956a000182a998001407a0ffffff00000000d8790782a89000948782a8789487520706286c528267280197772098782083976049265802492650027b684002956840024926480250106c40f4330880008267980150106e78f883783309800033073300c6030a0e283c594929c0054929b8054929b0054929a805956700308377c0fe3300700a11330272285f93005012725b930050127445940051070628a6525012762e9500ac780628a752956700308377e0fe3308040a030195671829957c000582c8e00082c9d80082cad00082cbc800956c00017bc8787bca9000d48a077bc998007bcb8800d49b08d48707520706286c5233079001037b67700183777b6750013300780a058269700133027a288490008269700150127a7c90004929a004959b00047bb898007bb790009568a0157bba8800330750107c50f333027e956818110149288004492878044928680401648933072095688015492970045020800029f39517e08477e07b67800164713309800102390780010256173f0b200380010240017b6948019517e08479e07b69680164913307900102837783993308407b6758010a09826a680182a71882a81082a90882aa6f776f8c6f996fa2826b80017bb2187bb9107bbc087bb7951be084b8e06481957b02d87b07c87c0ad8ca0cda770cc89c0cd89c07c827077b8c107b8a087b8b7b8718956760157b6868015020820079f3956b181182bc600482b8500482b4580482b3480482607801d30c0782699001d39802d8980a82698801d89309db2a097b6c6001d80c0a82629801d8240cdb7a0cd3240ad47a0adbac095109062854518267880195b900037b97e8007bb30804826790017b97f0007bb81004826798017b97f8007bb418047bb00004956740159568201595690015826a60017bba2004502084004c79956718118277400495681811828838049569181182993004956a181182aa2804956b18297bb7000695b700057b78f8007b79f0007b7ae8009568002f826768015020860016f39567e014826880015020880090f295671811827ac803956718118277d003956818118288d803956918118299e003956b1811826c78017bbc8003956b1811826c98017bbc7803956b1811826c90017bbc7003956b1811826c88017bbc6803956b18117bb9a003956918117b989803956818117b8790039567c0149568a01495698014956b18117bba880350208a008c77956718118277c003956818118288b803956918118299b003956a181182aaa803956b182995bc00067bc7207bc8187bc9107bca089568202f8267800150208c0044f29567601433084050208e0093ef956a181195ac000382c76082c85882c95082cb485022900022900051070628b14e8267880195a900037b9728826790017b9730826798017b973895684014826778017b974064b77b6b9801502092007cf082675001330094000a05826970013302960028398b008269700150229600318b00d4780298aa206f99979820d4a8089899203a0a800002956718117b7a20033a0a8800023a0b9000023a0c9800027b7a18037b7b1003492700037b7c08037b79f8027b78f00233082095692014956a00147b72e8028267980150209800d0f13307826858013309330028040a0e33022a04282c91004929c0014929b8014929b0014929a801956700308377c0fa33009a000a1133029c0028fb920050229c00f7920050229e00069000510706280e4f82679801817756170307280e4f956700308377e0fa0a0a95671829957900018298e000956a00017ba8588298d8007ba8508298d0007ba898008297c8007ba790009567e0033308405020a00025ee956b000382b7f80082b8f00082b9e80082bae0005022a200d68b0051070628434d7b6a1801826350016837957740826058016809da0709826490016847957740826298016828da270895878000d4030adaa709d8870c94ac8ecb8897f000857a01daca0b88b7019577ff9ab89accc9ac0a9a99ef007b6878018e8c8e78da7c088eac7b69680188990001859901dbac09dbb809d43408d4020bd4b808888801d49808644b948b510806288653826868018588ff0082697801d49808d47a09d49808520806286b53826b680195b9017b698801889801c8a8087b688001d49808888801826a7801c8a8087b687001d8a808c887077b6778019ab8ff007b6840019a89800082679001826898015020a400ee91007b6738017b6848018267500182685801826940015020a600f991007b6730017b6828018267400195798082679001826898015020a800db91007b6720017b68100182694001889780007b67080182679001826898015020aa00b89100956b00017bb86082b8800082b978d4890982b8880082ba70d4a808d4980882ba0893a77bb76852080628845264a98267480182682801d4870764ac82681001da980782695801649a649882694001db970a7b6a480182673801826a3001d4a707826a2001daca07826b500164badb970a7b6a40018267600193c77b676001492630018051018267880195798064b75020ac00fd90007b6738017b6820018267900182689801826988015020ae00e290007b6710017b682801826888019a89800082675001826858015020b000e9900082692801d4980882698801889a80007b6a2801826b2001daab08826b9801db980b7b6b980182681001d4870782683801daa80782689001db97087b68900182675001826858015020b20076900082649001826398014926580149265001956b000182b928939893977bb73882ba3095a9ff7bb9288ea99599ff7bb9200198493f973a01d4a909974a0182644801984b3fd4ba0a7b6a9801826020016437d39003d89002826b2801d8ab0cdb320c978801826b380198ba3fd4a8087b689001987a3f97b701d47a0a974701826b400198b83fd4870297b801826b600198b33fd4380397b801826b680198b43fd4480897bb0182675801d47b0b7b6b680182675001d478087b686001d437087b684001d427077b674801c9a007d8c707d8a008826c9001c9c00bc98b0bc97b0b99b03f82673001d2700782689801c97804d87808c989039498c98a077b673801d88a08c98c0895670001827a8800827c8000d4ca09889901827b70d89b02c99b0988ab01c9bc0c827b78c92b0b95aaff7b7c80007b7b78d4bc027b7a8800d49a0bd42b0a840b017b7b587b797049265001520ae1fe2843508267980181775617030728ed4a492ac001492ab801492ab001492aa801956700308377c0023300b4000a11330700303302b600284f8e00330700305022b600478e005022b800898b0052070628b84a33079001037b67900183777b6768013300ba000a05826990013302bc0028f08900826990015022bc00e88900956918294929a0007b9898007b9790009568a0297b9a880033075020be00e4ea9568182949288000491878491868016489330720956880294919705020c000c3ea5022c200b28b00390880010256183f0b200380010240019517e08479e07b69880164913307900102837783993308407b6760013300c4000a09826a88013302c600283b8900826a88015022c600338900956718314927e0014927d8014927d0014927c801956700308377e0020a1195671831957900018298c8007b6888018298d0007b6880018298d8007b6878018297e0007b67700195676029826898015020c80011eb956b182982ba4882b75082b85882b960826c70017bbc826c78017bbcf8826c80017bbcf0826c88017bbce87bb9207bb8187bb7109567402995682029956900297bba085020ca004670956a182982a74082a83882a93082aa28956b18317bb7000295b700017b78f8007b79f0007b7ae80095680033826798015020cc000aeb9567e0283308405020ce0059e895671821957900078298e0007b6888018298d8007b6880018298d0007b6878018297c8007b679801956718314927200249271802492710024927080295670030837720030a1101956a000182a7880082a878d4870782a89800648c82a98000d49808d47808988820d49707977720d48707510706282147956a183195ab000282b70882b81082b91882ba20956b18217bbac00795ba00077ba9b8007ba8b0009568c0287ba7a80064c75020d000e4e8826768013300d2000a05826990013302d40028a18300826990015022d400998300d4780298aa206f99979820d4a8089899203a0a000002956718217b7aa0073a0a0800023a0b1000023a0c1800027b7a9807957a00077bab9000492780077bac88007ba9787ba8703308209569a028956a80287b726807826798015020d60036ea3307826860013309330028040a0e33022a04289289004929600449295804492950044929480495670030837760fd3300d8000a1101956a182995ab00045022da00a98b0051070628ef475022dc005a8900ac780628ef4795670030837780fd3308040a0301956a182995ab000482b7800082b87882b970d48707889801947852080628ce4782a768047b672001956700308377a0fd0a0a01956718298274a004827a98047b6a50018272900482708804684768a8958940db470968276808958840db270895878000d44a0adaa709d8870c94ac8ecb8897f000857a01daca0b88b7019577ff9ab89accc9ac0a9a93ef007b6898018e8c8e78da7c08883c000185cc018ea9dba90cdbb80c7b6440017b625801d4420882645001d44009d49808888801d4c808640b948b51080628ef1c8538ff00826c9801d4c808d47a09d4980852080628d81c64029539017b699001889801c8a8087b688001d49808888801c8c8087b687001d8c808c887077b6778019a38ff007b6868019a89800064077b624801826858015020de00778a005022e0005189005020e2008f8a007b6730017b6828018267680195798082674801826858015020e400718a005022e600178a0082674801826858015020e8005b8a00826b380182627001826c780182698001d49c0c826a9001d42a0ad4ca0a93b77b678801510a06285c1a330b28161c4929200349291803492910034929080395670030837720fc3300ea000a1101956a182995ab000382b71882b82082b91082ba08d49808d4a707d487075107062821465022ec00658700ac780628214695670030837740fc3308043300ee000a030195671829957c000382c84082c93882ca3082cb285022f000fd870052070628fb4533079001037b67980183777b6768013300f2000a05826998013302f40028118000826998015022f4000980004919207b98187b97109568ff07958821017b9a0833075020f6009ce59567ff079577190149074917f895680010492800f9013307209568ff079588010195690010492908f95020f8006de59517e08477e07b67700164713309800102390780010256173f0b200380010240017b6940019517e08479e07b695801649133079001027b676001837783993308407b6748013300fa000a0901826a580182a782a80882a91082aa186f776f886f996faa95ab025022fc00e98000826870017b8b7b8c087b89107b87189567ff079577e1005020fe00d5e5956700108272f8f8956700108278e8f8956700108274f0f8956700108273e0f882608001d3020782699001d3980cd8980a82698801d89309dbca09d8020a826b7801d8b40cdb7a0cd3b40ad47a0adbac0951090628e84482678801956900107b9780f8956700107b73a0f882679001956900107b9788f8956700107b78a8f8956700107b7b90f8956700107b74b0f8956700107b7098f89567ff079577c1009568ff079588a1009569ff0795998100956a00107ba2b8f850200001806b956700108277d8f8956800108288d0f8956900108299c8f8956a001082aac0f8956b182995bc00037bc7607bc8587bc9507bca489568602c82677001502002014ee582676801330004010a05330206012879850050220601758500330008010a0b33020a012882810050220a017e8100959b00037bb88000826878017bb878826890017bb870826888017bb868482988038e77fc089a787bb8c0007bb8b8007bb8b0007bb8a80097a820988820977723d487079568802c9788209888209569c02c979920d4890a826b600197bb2098bb209568a02c978820d4b80c3308ff3309ff0a017b6770019567ff0795776150200c01276c8267700151070628ab439567ff0795772133084050200e01dee195670010827738f895680010828830f895690010829928f8956a001082aa20f850221001837f51070628f14082678801956800107b8700f882679001956800107b8708f882677801956800107b8710f89568ff0795880182678001956900107b9718f864a77b6a900150201201a9e282676801330014010a05826998013302160128667d82699801502216015f7dd4780298aa206f99979820d4a8089899204926d8073a0ae000023a0be800023a0cf000023a07f800027b6af807956a00077babf0007bace8007ba7e0007ba9d0007ba8c8003308209569e007956ac0077b62c0078267900133008c0128fbe34929a005492998054929900549298805956700308377a0fe330018010a1133021a012865810050221a0161810050221c01ab840051070628ae428267980181775617630728ae429567a01333001e013302780528b2830095681811828788027b679801828790027b679001808798027b677801956780133300200133027c0528ef840095671811827768027b67800195676013330022013302820528d3840095691811959a000282a748956b00017bb788004929400282b7787ba73882b790007ba7309568401382b798007ba72833075020240155e13302260195681811014928200249281802492808020464893307209568201349291002502028012ce13308800102390780010256173f0b200380010240019517e08479e07b69780164913307900102837783997b6898013308407b67900133002a010a09826a780133022c01284c7e826a780150222c01457e95691811492900024929f8014929f00195680013826780017b97e801330750202e01b8e08267600195681811958900017b97e000826768017b97d800826770017b97d000648a3307209568e012826978017ba9c8015020300181e082689801818756173f08480840019517e08477e07b67800150223201367d330034010a09826a80013302360128b87d826a800150223601b17d9517e08477e07b678001647182678801977720987720956918114929c0014929b8014929b0019568c0127b97a80133075020380112e08267600195681811958900017b97a000826768017b979800826770017b979000648a3307209568a012826978017ba9880150203a01dbdf82689801818755174008480840019517e08477e07b67980150223c01907c33003e010a09826a98013302400128657b826a9801502240015e7b826880017b8a187b89107b8b087b8795678012502042017be095671811827768017b679801956760123308405020440136de956918118292600195980001828c58828b50828748d42b0ad4c708d4a808988820d4ca0a97aa20d4a80851080628453d7c6898018e8a492940014929380149293001956840127b9a28017b6790017b6b88017b6278017b6c80015020460110df956b000182ba880082b9900082b7800082b878d47808140b00000000010000001407e0ffffff00000000d8790794a7948752070628de3c7b68800182689801848700ff008e788397209569181149292001492918017b98080195682012492910017b6b780150204801a5de956a000182a9900082a7789577c0d8790782a88800948782a88000948752070628873c8268980184870000ff008e78839740956a1811492a0001492af8007ba8e80095680012492af00050204a0155de3308608267900150204c018de2837833096033073300c6030a0e285143492a8001492a7801492a7001492a6801956700308377800233004e010a1133070030330250012815810033070030502250010d810082b77882b8800082b97082ba68d49808d4a707d4870751070628be3e8267980181775617030728be3e956718314927a001492798014927900149278801956740289568a03250205201aade33025401956818210195890007829740956800017b8798008297387b8790008297307b8788008297287b878000956720283308405020560144dc330700205022580164800050225a01dc7c510706286c3b956900018297800095a800067b87e800829788007b87f000829790007b87f80095680028829798007ba7000764b77b6b980133001802282bdd4929600249295802492950024929480295670030837760fb33005c010a1101956a182995ab000250225e018a800051070628eb3d502260013b7eac780628ec3d95670030837780fb330804330062010a030195671829957c000282c8800082c97882ca7082cb6850226401d37e52070628c63d33079001037b67980183777b676801330066010a058269980133026801287b7b8269980150226801747b492678077b6870077b676807956860077b6a6007330750206a0175dc49265807492650074926400701330720956840074926480750206c0157dc9517e08477e07b67700164713309800102390780010256173f0b200380010240017b6940019517e08479e07b695801649133079001027b676001837783993308407b67480133006e010a09826a58013302700128ba77826a580150227001b377826870017b8a187b89107b8b087b879567200750207201d0dc8262380782682807826430078263200782608001d3020782699001d3980cd8980a82698801d89309dbca09d8020a826b7801d8b40cdb7a0cd3b40ad47a0adbac0951090628e73c82678801956900067b97c0007b63e006826790017b97c8007b98e8007b9bd0007b64f0067b60d806956700079568e0069569c0067b62f80650207401b362956b000782b71882b81082b90882ba956b182995bc00027bc7a0007bc898007bc990007bca88009568a02b82677001502076018edc82676801330078010a0533027a0128b97c50227a01b67c33007c010a0b33027e0128c47850227e01c178959b00027bb8c000826878017bb8b800826890017bb8b000826888017bb8a8004829c8028e77fc089a787b9800037bb8f8007bb8f0007bb8e80097a820988820977723d487079568c02b9788209888209569002c979920d4890a826b600197bb2098bb209568e02b978820d4b80c3308ff3309ff0a017b6770019567a006502080016b638267700151070628e33b956760063308405020820125d9956b000682b77882b87082b96882ba6050228401da76510706284838826788017b674006826790017b674806826778017b67500695684006826780017b67580664a77b6a90015020860113da82676801330088010a058269980133028a0128d0748269980150228a01c974d4780298aa206f99979820d4a808989920492618063a0a0001023a0b0801023a0c1001023a071801027b6a3806956a00067bab307bac287ba7207ba9107ba80833082095692006956a00067b6200068267900150208c016edb3307826848013309330028040a0e33022a0428ca7a4929200549291805492910054929080595670030837720fe33008e010a113302900128c07850229001bd7882b71882b82082b91082ba08d49808d4a707d4870751070628fc3a8267980181775617030728fc3a9567601133084050209201ecd7956a181182ab6082a85882a95082a748d49b0bd48709d4b909989920d4b808978820d498085108062800373a08a00002491a40491a387ba82895684011491a307b6798013300180228d8d8492900024929f8014929f0014929e80195670030837700fb330094010a113302960128ef7b50229601ec7b82b7f80082a8000282b9f00082bae800d49808d4a707d4870751070628673a50229801d279ac780628683a9567a00533009a013302780528537a8267a0058268a8058069b005492698057b6990057b688805956880057b678005330750209c014ed849267805492670054926600501330720956860054926680550209e0130d85022a001c17a390880010256183f133308403d088001023302a2012863775022a20160773307900102837783993308403300a4010a0901826a980182a71882a81082a90882aa6f7b7b6b88016f8c7b6c90015022a60193787b8c087b8b956740055020a801bbd8826740057b677801826748057b677001826750057b676801826758055022aa019177959a00027ba810d478087ba70888870182688001c887077ba718d8870782689801c887077ba720956720059568202b5020ac0164d8826720058268280582693005826a38057b6ad8047b69d0047b68c8047b67c004826760017b67f804826768017b67f004826770017b67e804956700059568e0049569c004826a78017b6ae0045020ae01905d956c000582c77b67780182c7087b677001826888019587025022b001447682c8107b6890015022b2019d7782cb187b6b9801956b182995bc00027bc8407bca387bc9307bc7289567a0049568402b5020b401bed78267a0048268a8048269b004826ab8047b6a58047b6950047b6848047b674004826798017b677804826790017b677004826770017b676804956780049568600495694004826a78017b6a60045020b601ea5c82679804956800017b879800826790047b879000826788047b878800826780047b878000956720043308405020b8010fd5956b000482b73882b83082b92882ba205022ba01c4725107062832349569000182978000956b00047bb7829788007bb708829790007bb71095680004829798007bb71864a77b6a98013300180228f6d54929a007492998074929900749298807956700308377a0003300bc010a1101956a182995ab00075022be017f7851070628b6375022c0010777ac780628b737956700308377c0003308040a0301956c182995c70007827ac0008278b800827bb000d4a80988b70194975207062894377b69980082cca80782679801807395c723d8c709c89b027b6bd000d8b20bda990bc88b0b7b688001d88b097b6a8801c8a909d4b909d8370794279497520706285f3783c804956700308377e0007b6cc8000a0301956a182982a2e00782a7d80782a9d0077b67e800d427078898017b679001947852080628343782a4c8078268c800958724d8870a8260d000c8a00bc847037b672001d8730cc89b08c8c808d3b8077b69e000d8b809da7c09d80b07daaa07826a8001c8a707d8a70a826b8801c82b0bc8ba0a826ce800c8c70bd87b07c8a707826a980180aac8b909d8b90bc8b707d83a0a888b0185aa01db8b0a887801889b01db780bd49707db7b0a520a0628b8368847038269e0009497826a900194a751070628b03664cb8e977b64b800884865858801db97088ec78e297b62b000da2709daa80951090628d93633079001037b67d80083777b67c0003300c2010a053302c40128686f5022c401656f4929e006959b00067bb8d8007bb7d0009568e0277bbac80033075020c6010bd43302c80195681821014928c0064928b8064928a8060364893307209568c0274929b0065020ca01e2d35022cc01d1743309800102390780010256173f0b200380010240017b69a8009517e08479e07b69900164913307900102837783993308407b67a0003300ce010a09826a90013302d001284f6f826a90015022d001486f826898017b8a187b89107b8b087b879567a0275020d20165d43302d40195691821018097880649296006492958067b9748069567802795686027492950065020d601d35d9567182195790006829880007b6808018298787b6800018298707b68f8008298687b68f00095674027826898015020d80107d4956a182180a72c0697772095ab000682b83082b93882ba40826bf000d4b707826bf800d4b808826b0001d4b909826b0801d4ba0a956b18317bba95ba00ff7ba9f8007ba8f0007ba7e80095680031826798015020da0127d495670030837720010a0a0195671831827420827a187b6a5001827310827008684768a8958940db470968376808958840db370895878000d44a0adaa709d8870c94ac8ecb8897f000857a01daca0b88b7019577ff9ab89accc9ac0a9a92ef007b6898018e8c8e78da7c08882c000185cc018ea9dba90cdbb80c7b644001d44308643482635001d43009d49808888801d4c8087b605801640b948b5108062835168528ff00826c9801d4c808d47a09d49808520806281e169529017b699001889801c8a8087b688001d49808888801c8c8087b687001d8c808c887077b6778019a28ff007b6868019a8980008267580164487b6448015020dc0162755022de013d745020e0017c757b6730017b6828018267680195798082675801826848015020e2015f755022e401067582675801826848015020e6014b75826b380182627001826c780182698001d49c0c826a9001d42a0ad4ca0a93b77b678801510a0628aa13330b2864154929400649293806492930064929280695670030837740ff3300e8010a113302ea01285e745022ea015b745022ec01617151070628fa338267980181775617430728fa33956700193300ee013302780528e17295671819957900ff8298f8007b6868018298f0007b6898018297e8007b67900195670030837760ff3308240a030195671829957c000682cb6082ca5882c95082c848956c00017bc980007bcb70d4b9077bc88800d4a808d478089888207bca78d4a707977720d48707510706288933956a000182a768977720987720956918114929e00782a89000959b00077bb8c80082a898007bb8d0009568e0187bb7d80033075020f0015cd03302f20195681811014928c0074928b8074928a8070264893307209568c0184929b0075020f40133d03308800102390780010256173f0b200380010240019517e08479e07b6968016491330790010283777b68980183993308407b6790010a09826a680182a71882a81082a90882aa6f777b6760016f877b6758016f977b6750016fa77b6748019517e08477e07b67680164719569181182677001959a00077ba7a000826778017ba79800826780017ba790009568a018826788017ba7880033075020f60195cf3302f801956818110182674801958900077b978000826750017b9778826758017b9770648a33072095688018826960017ba968075020fa015bcf82689801818756173f08480840019517e08477e07b6788015022fc01106c0a09826a880182a71882a81082a90882aa6f7c7b6cd8006f8b7b6be0006f997b69f0006fa77b67e800826868017b87187b89107b8b087b8c956760185020fe01edcf330200029568181101958900078297587b67c8008297507b67c0008297487b67d0009517e0847be07b6b880164b18268d8009588018887018269e000c87909d49807887701826cf000c87c0ad8ca07826ce800c8c7077b6780017bb7187b6a68017bba107b6970017bb9087b6878017bb8956740183308405020020243cd95671811957900078298407b6810018298387b68f8008298307b6800018298287b6808019567201882688801502004023dcf330700105022060231717b67600195ac00067bc7e0007b6830017bc8d8007b6928017bc9d000956700189568e0177b6b88017bcbc800502008029c52826af800956b000182b81082b70882b9d48909d4a708d49808988820d4a909979920d4980851080628e92b956c181182c2000782c3f80695ca000682a8f00082a9e8007b6940017ba9a8007b6850017ba8b0007b6348017bc3b8069568c0177b6258017bc2c00650200a02a2cd826bf80082680801958720826c880184c901826a1001d4ba0a7b673801510906288d0d1409e0ffffff00000000d8980982680001948994a952090628692b7b6ab80084c900ff956a18118268280195ab00067bb8307bb928826830017bb83895684017826960017bb94050200c0232cd956c18113304330349269001956a000182a74882a840d4870782a85882a950d49808d487078e779777057ba7980028f01b51478ab99f6f0a28f82f4929600549295805492950054929480595670030837760fe33000e020a113302100228316c502210022e6c502212024f70510706280e3082679801817756170307280e3095670030837780fe0a956718299579000582988000956a00017ba898008298787ba890008298707ba888008297687ba780009567e011330840502014023acb956a181182a7e00082a8d80082a9d00082abc80050221602c96b51070628592a95690001829780007ba7a800829788007ba7b000829790007ba7b8009568c011829798007ba7c00064b77b6b98015020180220cc330820826798013300c4032854d050221a025e6d82626801db270a7b6a98018267600182693001d4970782691801dab907826c500164cadb270a50221c02e86a50201e027a6f7b6730017b68180182674801826858018269900150202002606f50222202bf6b502024027a6f50222602cd6b82695801dba8097b69580182681001d4870782683001dab80782684801dba70864a97b6848018267500182684001502028021a6f50222a0219698263580182644801017b6b580198493f973a01d49a02974a01826b980198bb3fd4ba0a7b6a48018269280164847b625001d329086430d82903826b3001d8ab02db8302974801987a3fd4a8087b684001980a3f977701d47a0a82679801977701826b600198b83fd4870097b801826b680198b33fd4380397b801826b880198b43fd4480897bb0182675801d47b0b7b6b8801d4c8087b686801d43c087b686001d40c077b679801c9a907d82707d8a90882624001c9290bc98b0bc97b0b99bc3f82673801d2c70782684801c97804d8780882675001c987039478c98a07d88a08c9820850222c02bb6cd89b02c99b0988ab01c9b000826b7801c92b0b95aaff7b6080017b6b7801d4b0027b6a9001d49a0bd42b0a84cb017b697001330c520aecfe82678801977701d47b0b0184b7ff82682001aa780628a32d33079001037b67400183777b67380133002e020a05826940013302300228246782694001502230021d674909959b00ff7bb8f8007bb7f000956800117bbae800330750203202f3c99569ff07959919014929e0074929d8074929c807013307209568e0104929d00750203402cdc99517e08477e07b67180164713308800102390780010256173f112003800102403302360228f76850223602f4683307900102837783997b6870013308407b6778010a09826a980182a71882a81082a90882aa6f7c6f8b6f986fa9826718017b6990017b79187b6898017b78107b6b88017b7b087b6c80017b7c82673801330038020a058269400133023a02288c638269400150223a0285634929c007959b00077bb8b8007bb7b0009568c0107bbaa800330750203c0215c99568ff07958819014928a00749289807492888070364893307209568a0104929900750203e02edc882687001818756173f0848084001140800000000ffffffff7b6828011407ffffffff000000007b67b000502240028e64330042020a09826a680133024402284b67826a68015022440244677bcac0007bc9b8007bc8b0007bc7a800956780109568c02d5020460276c9492608014926f0004926f80049260001492610014926e8004926e0004926d800330c330b330a8268800195880188870182698801c897077b68d0007b67c800d487078877019569000182989800c887077b67c000d8870782989000c887077b67b8009567ff0795771901807768077b9730330201018eb78ea8daa70882673001d827078ec9dac709d4ab07db780952095f067b6280017b6c88017b6b90017b6a980182673801330048020a058269400133024a02281a628269400150224a02136249296007959b00077bb8587bb750956860107bba48330750204c02a6c79567ff0795771901492740074927380749273007647a33072095684010492a28070250204e027ec782687001818756173f0e48084033025002283863502250023563330052020a0933025402283a61502254023761959a00077ba720826790017ba718826788017ba71095682010826780017ba70833075020560229c750225802c8697b870007826750017b87f806826758017b87f006648a33072095680010826960017ba9e80650205a02f8c682687001818756173f0e48084033025c0228fb6750225c02f86733005e020a09826a600133026002289d67826a6001502260029667826b68017bba187bb9107bb8087bb7957b02d87b07c8780cd88c08da7708c89808d89807c8a70795691829959a00047babc8007bacd0007ba8d8007ba7e0009567ff079577e1079568e02d5020620264c7956aff0795aa190182a7d0068477ff0051075d956b000182b7800095ac00047bc76882b788007bc77082b790007bc7789567ff079577a1059568ff079588810582b998007bc9800050206402af509567ff079577190195780004828aa000828b9800828c90008272880428f9fd9567ff079577c1078268680150206602e5c6956aff0795aa190195ab000682b7b00082b8b80082b9a8008477ff8488ff826b2801d2b909d49808d48707510769ff82673801330068020a058269400133026a0228fc5f8269400150226a02f55f4929a006959b00067bb898007bb790009568ff079588a1077bba8800330750206c0281c59567ff0795771901492780064927780649277006647a3307209568ff0795888107492a68060450206e0255c582687001818756173f0e48084033027002280f61502270020c61330072020a0933027402285a615022740257614929600649295806492950069568ff0795886107826720017b97480633075020760204c5826750019568ff0795881901958900067b9740826758017b9738826760017b9730648a3307209568ff0795884107826968017ba9280650207802c8c482687001818756173f0e48084033027a0228826050227a027f6033007c020a0933027e0228845e50227e02815e959a00067ba720826790017ba718826788017ba7109568ff0795882107826780017ba7083307502080026fc4502282020e677b870006826750017b87f805826758017b87f005648a3307209568ff0795880107826960017ba9e805502084023ac482687001818756173f0e48084033028602283d65502286023a65330088020a0933028a0228f06050228a02ed609577e10650208c02f5c4956aff0795aa19017ca7c805520798fd9567ff079577c1068268180150208e02d3c4956aff0795aa190182a7c00582a3b80582a9b00582a2a8053a08a800028e7c8e3bdb7c0bd828088e9cda980cd47308db8b0c520c6c8267080195ab00047bb7a8008267f0007bb7b0008267f8007bb7b8009567ff079577e1059568ff079588c105826900017bb9c00050209002fd4d956aff0795aa190195a800048287e0007b6700018287d8007b67f8008287d0007b67f0008287c8007b67080128e7fc9518e08488e064813a0bb00002c82b0bd82b0cc8c90a95aaffd39a02d89a09da2c09953cffc8c909d8c902883c01c9c707c827077b8a087b8b7b89107b8718826718015020920264c49517e08478e064818267b8007b87188267c0007b87108267c8007b87088267d0007b879567ff079577a1067b68600150209402b7c39567ff07957719018272a0058273980582799005827b88059518e08488e064813a0ca00002c8cb04d8b407c8790ad89a0cda770cc83c0cd83c077b8c103a0cb80002c827077b8a087b84d8bc0a959901949ad22309959901949a7b8718510a062868208267600150209602c2c39567ff0795778106826868015020980238c3956aff0795aa190195ab000582b76882b87082b9800082ba78847700ff867701956b18297bb9000595b900047b9af8007b98f0007b97e8009568002e8267680150209a026ac38267d800956aff0795aa190195ab00057bb7408267e0007bb7388267e8007bb7309567ff07957761069568ff0795884106826910017bb92850209c024d4c956aff0795aa190195a800058287607b67d8008287587b67e0008287507b67e8008287487b671001283bfb9567ff079577610533084050209e024cc09569ff07959919018292600495970004827c58827b50827a48d42b07d4ca08d47808988820d4c707977720d4870751070628571f826710018268b000d287074929400449293804492930049568ff07958841057b97280464a77b6a98017b6b90017b6280017b6c88015020a00217c1956b000182b9980082b7880082b88000d487071408e0ffffff00000000d8890882ba900094a8947852080628ee1e826708018268b000d27808839720956aff0795aa1901492a2004492a18047ba808049568ff0795882105492a10045020a202b5c0826738013300a4020a05826940013302a60228725b826940015022a6026b5bd4780298aa206f99979820d4a8039899203a0ac000023a0bc800023a0cd00002826720019568ff07958819017b87a8037b8a0004958700037b7bf8007b7cf0003a0ad800024928c0034928b8034928b0037b7ae8007b79d8007b83d0037b82c80364873308409569ff0795990105956aff0795aae104956bff0795bbc1044927e003826798015020a80289c23307826878013309330028040a0e33022a042839617b6ab800d8870782680001c878097b692801d88908da7708c8b8087b682001d8b8077b6788019567181182687801957a00067ba88800826870017ba89000826868017ba898009568a017826980017ba9a00033075020aa029bbf9517e08477e07b673001647182699801819756171f08480920018267100182688801c887077b6718019517e08477e07b67880164718379330820826790010a09492698013304330349269001826a880182a71882a81082a90882aa6f776f8b6f9c6fa982683001649a7b89187b6c60017b8c1064b07b8b0864797b8701956b00017bba687b6070017bb97882b74082b99800d8790782b950d3940ad89409daa70982b748d8730282ba5882bc9000d3ac0bd8ac0adab20ad37307d4b707da790a510ac20d956780177b6388017b6480015020ac02b7bf82609801826480018263880182683801c80807d88708826b2801c84b09c88909d3b90ad8b90bdaa80b826a2001c83a08d8a802826c1801826a9001c8ac0cc82c0ac88b0bd88b08c8a808d49808d4b709d48909d4b808989920978820d4980851080628651c956c181182c9800682c8780682ca700682cb68067bcb480695cb00067bba507bb858956860177bb9607b6098015020ae022dbe826c780195cc0188c701826a7001c87a0ad4ac0788770182686001c87804d8840882676801c8870782689801958320d8830982688001c89802d8820bda990b82688801c88b0bd88b0982689001c898087b68900164a0826830017b8a0864c97b8c7b8410647a7b87187b6460017b639801642464b3289afe5022b002015f82626801db270a7b6a98018267600182693001d4970782691801dab907826c500164cadb270a5022b2028b5c5020b4021d617b6730017b6818018267580182684801826990015020b60203615022b802625d5020ba021d615022bc02705d82694801dba8097b69480182681001d4870782683001dab80782685801dba70864a97b68580182675001826840015020be02bd605022c002bc5a8263480182645801017b6b580198493f973a01d49a02974a01826b980198bb3fd4ba0a7b6a48018269280164847b625001d329086430d82903826b3001d8ab02db8302974801987a3fd4a8087b684001980a3f977701d47a0a82679801977701826b600198b83fd4870097b801826b680198b33fd4380397b801826b880198b43fd4480897bb0182675801d47b0b7b6b8801d4c8087b686801d43c087b686001d40c077b679801c9a907d82707d8a90882624001c9290bc98b0bc97b0b99bc3f82673801d2c70782684801c97804d8780882675001c987039478c98a07d88a08c982085022c2025e5ed89b02c99b0988ab01c9b000826b7801c92b0b95aaff7b6080017b6b7801d4b0027b6a9001d49a0bd42b0a84cb017b697001330c520aecfe82678801977701d47b0b017b6b7001956720273308405020c402a0ba956218218223200695270006827c18827a10827b088e378ec8db37088ea788b960ff859901dba709d43c077b677801db7809510906285b1f95b7a000d8b708c88a097b6a9801826a9801d8a90ada880ac8ca0ad8ca087b6b9001c8830b952800057b87e8007b89f0007b8af800330740956800277b2b00067b6c80017b6388015020c60254bb956c000182c9900082ca8000d4a90782c8980082cb8800d4b808d48707987720d4a808978820d48707510706282a198267f000956a182195ab00057bb7c8008267f8007bb7d000826700017bb7d8009568e026826708017bb7e00064975020c802f1ba8267c0000a050195690001829b90001407e0ffffff00000000d87b07829898009487829878948752070628c9188269d80082970881981082996f77977a206f88988820d48a0a9877206f98978920d4790998882083b720956b1821492bc00595bc00057bc8b8007bc9b0009568c0267bcaa8007b6738015020ca0274ba8267b000956a182195ab00057bb780008267e8007bb7788267e0007bb7709567a026956880268269b8007bb9685020cc0296429567182195790005829888007b685801829890007b685001829898007b6848018298a0007b684001956760263308405020ce02d2b895671821827a60057b6a8801827858057b688001827c50057b6c6801827b48057b6b6001826940017b792005826948017b791805826950017b791005826958017b790805957900057b9a407b98387b9c30647995674026956820267b9b28055020d002ef3e9569000182986882978800d48707829860648c829b8000d4b808d47808988820d4b707977720d48707510706287d17956718218268b800957900047b98e8008268e0007b98f0008268e8007b98f80095680026826bb0007b7b000564c75020d20244b982678801826a8001d4a707140be0ffffff00000000826c6001d8bc088269680194989478520806281f178268b80083877b679000816720017b67880083c7207b6b58015020d40240bd837782689000826988000a0201826b68018262b80082676001c87202d872088269e000c8b909c88909d3b90ad8b90bdaa80b8268e80082678001c87808d8780a826c88018267b000c87c0cc8ca0ac88b0bd88b08c8a808d4b80882675801d8720a949a948a520a06289516832720956918214929e0044929d8044929d0049568e0254929c8045020d6026fb8140a00000000010000001407c0ffffff00000000956b000182b89000d8780782b99800949782b9789497520706284416838740956818217b6a5801648a8268600195ab00047bb8a800826868017bb8b000826880017bb8b8009568c025826988017bb9c0007b6788015020d80200b8956b000182b97882ba980082b8900082b7589577a0d8780794a7949752070628e315838760956b1821492ba004492b9804492b90049568a025826970017bb988047b67685020da02b6b7956a000182a89000140780ffffff00000000d8780782a99800949782a9789497520706289515838780009569182149298004492978044929700495688025492968047b67205020dc026bb78267c0003300de020a053302e0022891525022e0028e5249296004959b00047bb8587bb750956860257bba4833075020e20237b73302e402956818210149284004492838044928280402648933072095684025492930045020e6020eb78268a800818756173f0848084001140800000000ffffffff7b68781407ffffffff000000007b67709517e08477e07b679801647183793308408267a0003300e8020a0901826a980182a71882a81082a90882aa6f777b6780016f877b6778016f977b6770016fa77b6768015022ea0292573302ec02956918210182670801959a00047ba720826700017ba7188267f8007ba710956820258267f0007ba70833075020ee0268b63302f0029568182101956b000182b7687b87000482b7707b87f80382b7787b87f003648a3307209568002582b980007ba9e8035020f2022fb68268a800818756173f08480840019517e08477e07b678001647183793308408267a0000a09826a800182a71882a81082a90882aa6f7c7b6c486f8b7b6b506f987b68606fa77b6758826998017b97187b98107b9b087b9c9567e024826890015020f40290b4956718218277c803826870d287077b6790019567c024826898015020f6029cb6956a182195ab000382b7b00082b8b80082b9c00082baa8008477ff8488ff8499ff826b78d2ba0a826b9001d4ba0a956b18317bb9407bb8387bb7307bba2895684031826798015020f802c8b69567a024826838015020fa0216b49567182195790003829898007b689001829890007b688001829888007b68780195678024826898015020fc0214b6956818218287800380886803826c780198c920826b800197ba20d4a90998ba20826b900197bb20d4ba0a97cb20d4b808956b18317bba587bb9507bb7607bb84895686031826798015020fe023eb69517e08478e06481826948959901889701826a50c87a0ad4a907887701826c60c87c0bd8cb07826c58c8c7077b6748017b87187b6b38017b8b107b6a40017b8a087b68387b6950017b8995676024826888015020000342b395671821957c000382ca6082cb5882c95082c848956c00017bc9307bca28d4a907d4b809d479099899207bcb20d4b707977720d49707510706284512956740247b68180150200203f8b2956918210195970003827b40827a388278308eb78eacdbb70c7b68408e877b6a307b6b28d4ba0a7b67087b6c107b6a1001dbac07510706281119829728037b6780009567202482683850200403d5b4956b182195bc000382c90882c71082c81882ca2095bc00027bcae0007bc8d8007bc7d000956700249568e0237bc9c800502006033a3895671821827a000395780002828bf800828cf0008289e8008ea78eb8dba7088ec77b6978018899208599017b6c8001dbc7097b6a88017b6b9001d4ab07db7809826780008877207b67185109750695671821956a000182a850957b00027bb8a80082a8407bb8b00082a8387bb8b8009568c02382a9487bb9c0003307502008032bb38267a800817756171f0c8268a800480820019517e08477e07b676801647183793308208267a0000a098267800095781fd87807826c40c87c09d8c90ada770a826b30c8ba0a7b6a600197aa3b989b05d4ab0b8267680182731897993b827a10988805d498076f346fa982681894c8826a100194a8948b9487c87402d84207c8790cc8cb0b7b6b9801d39b0cd89b0adac70a7b6a58018267780195701fd8700b826a8001c8ba07d8a70cdabb0c82639001c8c303973b3b987a05d4ba0a97773b980b05d4b707c847077b677801d847076424c8790bc8ab0bd39b0a7b6b7001d89b09daa709826b6001826730d87b07826a28c8a70798ba05977b3bd4ba0a826b680182b282bb08987705948a94876fb86f2bc8b707c88a0ad88a0cc8c70782605801c8a000d8a00ac8a70282679001d87307826a8801c8a707983a05977c3bd4ca0a987705c8b707956c000182cb9800c88a0ad88a08c88707c8a9097bc968d8a908c887077bc7609517e08473e064317b6358010182677801d8740782697001d39b08d89b09da8709826c6801d8c007826a6001d3a208d8a20ada870ad3c007d48707da790a7b6490017b347b6b98017b3b087b6080017b30107b6288017b3218510a7d04956718314927800049177849177049176895688031643750200a03b4b28263580182649001954401884701826b9801c87b0bd4b40788770182688001c88707d8870882628801c8820264702865ff956c18110182689801958720d88708c88409d8490ada880ac83a0ad83a08826b9001c88b0b826808017bc8080695c800057b87e800826700017bc710068267f8007bc718067b89f000826710017bc720067b8af80095672017956800177bcb000650200c03fa358268d800958702d88708826ae000c88a09d8a90ada880a8268f000c88a0ad88a08826be800c8b808956b182995bc00067bc880007bca787bc9707bc7689567e0169568802f50200e0359b13302100395681811018287d0057b6778018287c8057b6770019567c0163308405020120307af956b181182b2c00595b80005828ab800828cb0008287a800d42c09d4a708d49808988820d4a909979920d498085208160e8268d0009788207b6a8801988a20492ba005492b9805492b90059568a0167bba88057b6798017b6280017b6c900150201403dcaf956c000182c8980082c7880082c98000d4970a502216034b515107c50d1402ffffffff000000008269d0009899207b6b6001826bc0007b6a680197ba20d4a90998ba20826cc80097cb20d4ba0a98cb2084aaff8499ffd22b0b838720956c1811492c80057bcb78057bc96805956880167bca70055020180362af956a000182a8980082a7609577c0d8780782a99000949782a96894975107480d83874095691811492960054929580549294805a000956860164929500550201a031faf956740168268080150201c03d7ad956c000182ca6882c89800140b0000000001000000140760ffffff00000000d8780782c99000949794a75107e90c956718117b6b6001647b8272400582733805827c3005827928058387a0007b6958017bb908057b6c40017bbc10057b6350017bb31805956820167b6248017bb2200550201e039bae956b000182ba900082b9980082b760957740ffd8790794a782b86894875107800c1407e0ffffff0000000082680801d878078268000194878268b800948751075f0c82685801826c5001d4c8078262480182634001d4230bd4b707987720d4cb0b97bb20d4b7075207360c8397c000502020036bb27b67680182673801826858015020220359b2647882676801826958015020240306ac8268580182679801c88707d88709826b400182689001c8b808c89808d3b80ad8b80bdaa90b82698001826a4801c8a909826a8801826c5001c8ca0ac8ab0bd8ca0cd8ab0ac8c909c8a909d4b909140a40ffffff000000007b6a9001d8a70a948a949a510aa40b8377c00095691811492900054929f8044929f004956800164929e804502026037cad82679801837760956918114929e0044929d804826870017b98c8049568e0154929d0045020280353ad7c6778018e788267980183778000956918114929c0044929b8047b98a8049568c0154929b00450202a0327ad8267580195771f1408e0ffffff01000000d2870782689001ae87110b8378c0007b6890018267980150202c033eb183783307826990010a0e01826718857701826840826908db890782681082691001db980751074e02826780008477e07b6710019567182182685001957a00027ba868826840017ba870826838017ba87895688023826948017ba98000330750202e0395ac9517e08477e07b6770016471330820330750203003c3b09518e08488e07b6868016481837783893308200a094926980120330c49269001492688014926780149268001826a680182a71882a81082a90882aa6f736f846f903309826b78016fa7330a6472826870017b87187b6050017b80107b84087b83017b626801826710017b6b7801d87b07857b017b6a580194ab017b69600182678001d49707947b018268180182679801c87808826a3001c8ca0a8269200182679001c879098267280164c0826c8801c8c707520b7201826b9801d8b80bc8ba0ad30a027b603801d80a0cda2b0cc89c0cd89c02826b9001d8b909c89707c82707d4c809d4a707d47909989920d4c707977720d497077b6348017b644001520783099567e0205020320339aa956a181995ab000782b7e00082b8d80082b9d00082bac800956b18317bb7a0007bb898007bb990007bba88009568a0318267700150203403a3ac8263480195330188370182644001c87404d4430788770182685001c87800d8800882676801c88707826898019589207b696801d8890a82683801c8a8097b694801d8890bdaaa0b82689001c8b80ad88a0b82688801c8b8087b68880182687801958b20d88b0c82695801c8c908d89809dacc09826c6001c8c909d8c90c82628001c8c2027b628001826c70017bc4087bc37bc01064727bc7187b605001826768017b679801826c48017b6a9001648a286dfe82678000826830d48707826840826928d49808d487075207b301492640014926380149264801492650012801028264900182639801826b8000826c1001d3cb0b826c30d4cb02826c40826b28d4bc0cd4c20b510b2e01d8380bc8ba0ad30a02d80a0cda2b0cc89c0cd89c0bd84909c89707c8b707d4c809d4a707d47909989920d4c707977720d49707520700089567602350203603b6a895671821957900028298607b6890018298587b6888018298507b6880018297487b6778018267800097773b9878387b6898019a8980003307ff3308ff50203803744d7b6768017b6850013307ff3308ff8269980150203a03364d7b6758017b68600182675001d487077b675001826798019579803307ff3308ff50203c03104d826b980188b98000826a5001db9a08826c5801826a6801d4ca0ada970a93b8ff93baff826b6001939b939c82677801e0a70782698001e0890882698801e0c909826a9001e0ba0a956b18317bbac0007bb9b8007bb8b0007bb7a8009568c0318267700150203e0371aa82693098973f826828978801d48707826a4098a83f979901d49808826b800098b93f97aa01d4a90997ba0195aa01956b18317bbac8007bb9d0007bb8d8007bb7e0003307e031287701956a000182a72882a820d487071408e0ffffff0000000082a918d8890882a9309498947851089c06826718018378209567a023502040034ba795671821957900028298a000956a00017ba850829898007ba848829890007ba838829788007ba7400182694098973f826a3097a801d487077b67900198a73f826828978801d487077b678801826a800098a73f979801d487077b67800197a7017b67780197a8037b6898018d8980003307ff3308ff50204203d04b7b6758017b687001826780008a79033307ff3308ff502044038f4b7b6768017b68600182685801d487077b675801826798018379803307ff3308ff50204603694b826b980188b98000826a5801db9a07826c6001826a7001d4ca0ada980a93b7ff93baff939c826b6801939b82683801e0a80882694001e0790782694801e0b909826a5001e0ca0a956c000182cb78d4b70782cb8000d4b80882cb8800d4ba0a82cb9000d4b909956b18317bb9f8007bba00017bb8f0007bb7e8003307003201c8760882673850204803a8a89517e0847ce064c1826848958702d88708826a50c88a09d8a90ada880a826860c88a0ad88a08826b58c8b8087b6c98017bca107bc9087bc77bc8189567402382686850204a03bca595671821827728028477ff7b679001956720238268980150204c03cba795691821959a000282a72082a81882a910956a1831826b900195ac00017bcb087bc7207bc8187bc910956820328267980150204e030ca895670023826820502050035ba5956a182182a7000295ab000182b8f00082b9f80082bae800d48707d4a909d497078e777b6790019567e022826898015020520352a733070020502254035f4982b7d00082b8c80082b9e00082bad800847700ff826b9001d4b707956b183195bc00017bc9407bca387bc8287bc73095684032826798015020560383a78267c000330058030a0533025a03283f4150225a033c414929c001959b00017bb8b8007bb7b0009568c0227bbaa800330750205c03e2a533025e0395681821014928a00149289801492888010164893307209568a0224929900150206003b9a550226203a8468267a800817756173f0c8268a800480840019517e08477e07b679001647183793308408267a000330064030a0933026603284d45502266034a4595ab03502268035841826898017b8b7b8c087b89107b87189567802250206a0349a633026c03956918210182976801826870d2870749294001492938017b97280195676022956840224929300150206e03b12f95671821957900018298607b6890018298587b6888018298507b6880018298487b687801956720228268980150207003e6a53307002050227203f34782b72082b81882b91082ba088477ff8488ff8499ff826b78d2ba0a826b7801d4ba0a826b8001d4b909826b8801d4b808826b9001d4b707956b183195bc00017bc7607bc8587bc9507bca48956860328267980150207403fba595670022330840502076034aa39568182101828700018289f800828af0008288e800956b00017bb780007bba9000d4a7077bb89800d49808d478089888207bb98800d49707977720d48707520748023302780395691821014929e0004929d8004929d0009568e0214929c800208267980150207a031aa4956a000182a7880082a88000d48709140700000000010000007ba7781407e0ffffff0000000082a89800d8780782a8900094877ba97094975107e40182679801837720956918218268b8007b98a8008268e0007b98b0008268e8007b98b8009568c021826ab0007b9ac00050207c03a9a3826778019577dc8268c800d878078268d0009487826898009487510791011408c0ffffff0000000095690001829798007b9878d88707829890009487829870948751076a01826798018377408268900050207e0398a7837782689000826988000a02018268b80082679801c88707d88708826be00082699001c8b909c88909d3b90ad8b90bdaa80b8268b000826a8001c8a808826ce800826a8801c8ca0ad8ca0cc8c808c8ab0bd8ab0ac8a808d4b808826a7801d8a70a949a948a510af000837740956918214929a00049299800492990009568a0214929880050208003c9a28267c000330082030a058269d8003302840328863d8269d800502284037f3dd4780298aa206f98978920d4a9039884208268b80095881f8488e0009588403a0b2000023a0c2800023a073000023a09380002956a18217bab80007bac787ba7707ba968956c000182c7087ba74082c77ba7388267f8007ba7308267f0007ba7287ba4587ba3507ba24864a795698021956a6021956b402149176082c7980050208603a4a49567202133084050208803dea0956a182182a72082a81882a91082ab0850228a03714151076b07009567ff07957719014927180549271005492708056479140700000000717b484e9568ff07958821067b972005330750208c03c9a19568ff0795881901492800054928f8044928e8041164893307049568ff07958801064929f00450208e039da182677001817756173f0c8268700148084001330701330924826878010a0e013308900102838833070128560d3308900102838833070128490d33089001028388330701283c0d33089001028388330701282f0d3308900102838833070128220d3308900102838833070128150d956918114929b8024929b002140700000000c611522c7b97c0029568c0134929a80233075020900306a1390880010256181f1220038001022033089001022899043308900102289104492bd802492bd002140700000000b878d6f47bb7e0029568e013492bc802330750209203c1a082674801817756171f0c8268480148082001330701330904826858010a0e0133089001028388330701287a0c33089001028388330701286d0c3308900102838833070128600c3302940395691821014929580749295007140700000000c611522c7b97600795686028492948073307502096034ca0390880010256181f12200380010220330890010228df03330890010228d7033308900102838833070128050c3308900102838833070128f80b3308900102838833070128eb0b3308900102838833070128de0b3308900102838833070128d10b492690074926880749268007140700000000c611522c956880077b679807330750209803c69f390880010256181f12200380010220330890010228590333089001022851034926b0074926a8074926a007140700000000b878d6f49568a0077b67b807330733009c03287d9f95670010492750f895670010492748f895670010492740f814070000000018ecb8909568ff07958841956900107b9758f8330733009c0328439f33089001028388330701281e0b3308900102838833070128110b3308900102838833070128040b3308900102838833070128f70a3308900102838833070128ea0a3308900102838833070128dd0a4926d0054926c8054926c005140700000000c611522c9568c0057b67d805330750209a03d29e390880010256181f1220038001022033089001022865023308900102285d024926f0054926e8054926e005140700000000b878d6f49568e0057b67f805330733009c0328899e49269006492688064926800614070000000018ecb890956880067b679806330750209c03669e82674001817756171f0c8268400148082001330701330904826848010a0e0133089001028388330701281f0a3308900102838833070128120a3308900102838833070128050a3308900102838833070128f8093308900102838833070128eb093308900102838833070128de093308900102838833070128d1093308900102838833070128c4093308900102838833070128b7093308900102838833070128aa0933029e0395691819014929180749291007140700000000969ee20b7b972007956820204929080733075020a003969d390880010256181f12200380010220330890010228290133089001022821013302a203956918190149293807492930071407000000003bc167cc7b974007956840204929280733075020a403489d390880010256181f12200380010220330890010228db00330890010228d300330890010283883307012801093308900102838833070128f4083308900102838833070128e70852476eeb149c2901956718294927a006492798064927900649278806956700308377a03300a6030a113302a80328fe3f5022a803fb3f5022aa03793f51076c0233089001028388330701289a0833089001028388330701288d083308900102838833070128800895691811491918491910140700000000635bb2d57b97209568201149190833075020ac03759c390880010256181f112003800102203308900102280833089001020183883307013309043300ae030a0e01956718194927780749277007492768075022b003953f83888000c868087b97800733075020b203219c3302b403956818190149286007492858074928480741648933070495686020492950075020b603f89b8267a800817756173f0c8268a800480840013307013309248268a0000a0e015247275914a04c956718294927c0064927b8064927b0064927a806956700308377c03300b8030a113302ba0328d63e5022ba03d33e5022bc03f03b51075c013308900102838833070128720752473a6750b663019567182949274007492738074927300749272807956700308377403300be030a1101956a182995ab00075022c003903b5107840133089001028388330701282907492658010182676801977701826b5801d47b0b014926d8034926d0034926c8039568c0037b6bc003826718015020c203129b330820826718015020c4034a9f837833092033073300c6030a0e280e33092033073300c6030a0e01956718194927b8074927b0074927a8075022c803353e8388c000c868087b97c00733075020ca03c19a3302cc0395681819014928a00749289807492888074164893307049568a020492990073300b60328949a64ba956718198268f000957900077b98e8008268f8007b98f000826800017b98f8009568002195671821826908017b7964a77b6a98013300180228579a8267980181775617639a0033089001028388330701282706826798018177561743760133089001028388330701280f0652474a45080e950595671829492700014927f8004927f0004927e80095670030837700fa3300ce030a1101956a182982a7f80082a8000182a9f00082aae800d49808d4a707d487075107d3053308900102838833070128b6055022d003123bac78cd0533089001028388330701289f059567c0193300d2033302780528883b956818198287a8007b6798018287b0007b6790018287b8007b6788018287c0007b6780019567a0193300d40333027c0528be3c95681819828788007b677801828790007b677001828798007b6768018287a0007b676001956780193300d60333028205288b3c956b181982b76882b87082b97882ba80007bba207bb9187bb8107bb708956c000182c7607bb74082c7687bb73882c7707bb73082c7787bb72882c780007bb76082c788007bb75882c790007bb75095676019956840199569201982ca98007bba485020d803e9233308900102838833073309330028040a0e33022a04280a3a9567401d3300da0333028c0528943a95671819827728047b6790019567201d3300dc0333027c0528e23b95671819827708047b67f00033079001037b67080183777b6700013300de030a05826908013302e003289432826908015022e0038d3249290004959b00037bb8f8007bb7f0009568001d7bbae80033075020e20346983302e40395681819014928e0034928d8034928c8030264893307209568e01c4929d0035020e6031d9833078001027b671801390780010233083fac7811826818014808403302e803284c375022e80349373307900102837783993308407b6710013300ea030a09826a98013302ec03287934826a98015022ec0372347b679801647182679001977720987920956718194927c0034927b8034927b0039568c01c7b69f8007b79a80333075020ee0396978267700195681819958900037b97a000826778017b979800826780017b979000648a3307209568a01c826988017ba988035020f0035f9782671801817756173f12826718014807403302f20328ab325022f203a8323300f4030a09826a90013302f60328ec35826a90015022f603e535826700013300f8030a05826908013302fa03280939826908015022fa0302397b6890019877206f987b688801978820d487077b6780019567801c826898015020fc03d49795691819018297700380986c0382997803977a20d4a808979a20987720d4a707956b000182ba8000d3a70782ba9000d3a80882ba8800d3a909989920d49808d4870752078306956700308377e00a0a01956718298272e006827bd8067b6b58018274d006827ac8067b6a4001682768b8958940db2709684768a8958840db470895878000d42b0adaa709d8870c94ac8ecb8897f000857a01daca0b88b7019570ff9ab39accc9ac0a9a99ef008e3c8e07da0c07889c000185cc018ea8dba80cdbb70c7b6438017b625001d42407826b400182685801d4b808d48707887701d4c70764b894787b689801520726068597ff00d43707d40a08d48707510715065022fe035c31502000047839502202042c385020040492395022060455365020080486397b6720017b68e80082696001889780007b67e000826740018268380150200a04643950220c046638826ae00093a77bb7785108a20564a98267680182682801d4870764ac8268e80050220e045b30502010040c3950221204aa375020140400397b67e80050221604873650201804163950221a0435338268e80050221c04c63450201e04da38502220049431502222044033d89002826b2801d8ab0cdb320c502224045233d4870297b801826b700198b33fd4380397b801826b780198b43fd4480897bb0182675801d47b0b7b6b780182675001d478087b687001d437087b686001d4270750222604522fd89b02c99b0988ab01c9bc0c827b8800c92b0b95aaff7b7c90007b7b8800d4bc027b7a9800d49a0bd42b0a840b017b7b587b79800049265001520a68ff28b004956918295247ce3c1245534929e0034929d8034929d0034929c803956700308377e0fc0a1101956a182995ab000382b7d80082b8e00082b9d00082bac800d49808d4a707d487075107100633089001028388330701282233089001028388330701281683883307013309330028040a0e33022a042862353309330028040a0e33022a0428533550222a045035ac78de05330890010228ce9567002033002c0433028c0528cc35956718198277e8067b67700133079001037b67880183777b67800133002e040a05826988013302300428e72d8269880150223004e02d4929e006959b00067bb8d8007bb7d0009568e01f7bbac80033075020320499933302340495681819014928c0064928b8064928a8060264893307209568c01f4929b00650203604709333078001027b679801390780010256173f0c82689801480840019517e08479e07b69780164913307900102837783993308407b679001330038040a0901826a780182a71882a81082a90882aa6f777b6768016f877b6760016f977b6758016fa77b67500150223a049d3582677001977720987920956718194927a00649279806492790069568a01f7b6970017b798806330750203c04d89282675001956818199589000650223e04dc359568801f826968017ba9680650204004b49282679801817756173f0c82679801480740019517e08477e07b67680150224204652f330044040a09826a680133024604285133826a6801502246044a33826b78017bba187bb9107bb8087bb782678001330048040a058269880133024a04284b348269880150224a0444347b6868019877206f987b686001978820d487077b6758019567601f8268780150204c04169395691819018297500680984c0682995806977a20d4a808979a20987720d4a707956b000182ba58d3a70782ba68d3a80882ba60d3a909989920d49808d487075207c9048267800133004e040a05826988013302500428f02b8269880150225004e92b49292006959b00067bb8187bb7109568201f7bba08330750205204a591330254049568181901492800064928f8054928e8050264893307209568001f4929f005502056047c9182679801817756173f0c82689801480840019517e08477e07b677801502258042d2e0a09826a780182a71882a81082a90882aa6f777b6778016f877b6768016f977b6760016fa77b67580133025a0495691819014929e0054929d8054929d0059568e01e826770017b97c805330750205c0408918267580195681819958900057b97c000826760017b97b800826768017b97b000648a3307209568c01e826978017ba9a80550205e04d19082679801817756173f0c82679801480740019517e08477e07b67780150226004822d0a09826a780182a782a80882a91082aa186f726f876f996faa951be084b8e0648195ab02d8ab0ac8a90cd89c09daaa09c87909d87907c827077b8c087b8b7b89107b87189567a01e7b687801502062044f9195671819827790058478ff00510895033302640495691819014929780549297005140700000000c884c1c17b9780059568801e49296805330733009404281a903302660495691819014929580349295003140700000000dbf71c6f7b9760039568601c49294803330733001a0528ea8f492658010195690001829778977701829858d487077b979800018267f00082689801ab87320582670001330068040a058269080133026a0428d6298269080150226a04cf2949292003959b00037bb8187bb7109568201c7bba08330750206c048b8f33026e049568181901492800034928f8024928e8020264893307209568001c4929f00250207004628f82671801817756173f12826818014808403302720428ae2a50227204ab2a330074040a093302760428332b50227604302b4929e0024929d8024929d0029568e01b8267f8007b97c802330750207804118f8267780195681819958900027b97c000826780017b97b800826788017b97b000648a3307209568c01b826990017ba9a80250207a04da8e82671801817756173f128267180148074033027c0428262a50227c04232a33007e040a0933028004287d2e502280047a2e95ab0250228204882a95681829958a00067babe8007bacf0007ba9f8007b8700079567a01b95680030502084046c8f956718197c7790025107090433028604956918190149297802492970021407000000006d53a9a77b9780029568801b49296802330733001a05283b8e826798018177561763fb05330890010228fcf995672002330088043302780528f92f956a000282a72082a82880693002492618027ba9107ba808956800027ba7330750208a04f68d4926f8014926f0014926e001033307209568e0014926e80150208c04d88d33078001027b679801390780010256173f0c82689801480840019517e08479e07b698801649133079001027b679001837783993308400a09826a880182a71882a81082a90882aa6f776f886f996faa956b182995bc00017bca207bc9187bc8107bc7089567c0019568202a50208e04598e8067c0014926b8014926b0017b67a001330780009568a0014926a80150209004458d82679801817756279f0018826898014808a00082679001837880002834f282679001837880002829f23302920495691819014929380649293006140700000000dbf71c6f7b9740069568401f49292806330750209404ed8c82679801817756171f148268980148082033070133090428ba07330701330904826890010a0e330218059569181928bc071408ffffffff000000007b686801956a181995ab000582b8880082b9980082baa000867701956b182995bc00077bc8487bc9587bc7507bca60956860308267780150209604df8d82678001330098040a058269880133029a042884268269880150229a047d2649296005959b00057bb8587bb7509568601e7bba48330750209c04398c33029e0495681819014928400549283805492828050164893307209568401e492930055020a004108c5022a204a12e82679801817756173f0c82689801480840019517e08477e07b6760015022a404bb283300a6040a0901826a600182a782a80882a91082aa186f776f886f996faa95ab035022a804a927826878017b8b7b8c087b89107b87189567201e5020aa049a8c956718198277080582686801d278085108fc0582686801c88707d287077b6798019567001e826878015020ac046b8c956a181980a7ec0497772082a8000582a9f80482aaf004826b9801d4b707956b182995bc00077bc880007bc9787bca707bc76895688030826778015020ae04a28c826780013300b0040a05826988013302b20428f525826988015022b204ee25d4780298aa206f99979820d4a808989920826a7001956718197b7a88043a0a4000023a0b4800023a0c5000027b7ae0047b7bd8044927a004957b00047bbcd0003a0a58000249279804492790044927c0047bbac8007bb9b8007bb8b0009569e01d956ac01d956ba01d7b72a804330733085020b404218d330782689001287ef63302b60495691819014929380349293003140700000000635bb2d57b9740039568401c49292803330733001a0528668a826700013300b8040a05826908013302ba04287824826908015022ba04712449296002959b00027bb8587bb7509568601b7bba4833075020bc042d8a3302be0495681819014928400249283802492828020464893307209568401b492930025020c004048a82671801817756173f12826818014808403302c2042850255022c2044d253300c4040a093302c60428d5255022c604d2254929200249291802492910029568201b826798017b97080233075020c804b38982677801956818197b870002826780017b87f801826788017b87f001648a3307209568001b826990017ba9e8015020ca04808982671801817756173f12826718014807403302cc0428cc245022cc04c9243300ce040a09826a90013302d00428f625826a90015022d004ef257b67900164713302d20495691819014929e0014929d8014929d0019568e01a8267f8007b97c80133075020d40418898267700195681819958900017b97c000826778017b97b800826780017b97b000648a3307209568c01a826988017ba9a8015020d604e1888267180181775517400c82671801480740019517e08477e07b67880164718379330840826710013300d8040a09826a88013302da04286224826a88015022da045b24826890017b8a187b89107b8b087b879567a01a5020dc04788995671819827788018478ff0051086e03847800ff005108b3033302de0495691819014929780149297001140700000000f08982c97b9780019568801a49296801330733001a05283a889567ff079577a1043300e0043302780528072a9568ff0795881901958900038297a0007b67d800829798007b67e000829790007b671801829788007b6710019567ff07957781043300e20433027c0528312b9568ff079588190195890003829780007b67d0008297787b67c8008297707b67c0008297687b6700019567ff07957761043300e4043302820528f52a9567ff0795771901827748037b67080195670030837700fd0a0a019567182982720004827bf8037b6b58018274f003827ae8037b6a4001682768b8958940db2709684768a8958840db470895878000d42b0adaa709d8870c94ac8ecb8897f000857a01daca0b88b7019570ff9ab39accc9ac0a9a99ef008e3c8e07da0c07889c000185cc018ea8dba80cdbb70c7b6438017b625001d42407826b400182685801d4b808d48707887701d4c707947b520747038597ff00d43707d40a08d48707510736035022e60464225020e804802a5022ea0434295020ec049a2a5022ee045d275020f0048e2a7b6720017b68f80082696001889780007b67f00082674001826838015020f2046c2a5022f4046e29826af00093a77bb7785108c90264a98267680182682801d4870764ac8268f8005022f60463215020f804142a5022fa04b2285020fc04082a7b67f8005022fe048f27502000051e2a502202053d248268f80050220405ce2550200605e229502208059c2250220a054824d89002826b2801d8ab0cdb320c50220c055a24d4870297b801826b700198b33fd4380397b801826b780198b43fd4480897bb0182675801d47b0b7b6b780182675001d478087b687001d437087b686001d4270750220e055a20d89b02c99b0988ab01c9bc0c827b8800c92b0b95aaff7b7c90007b7b8800d4bc027b7a9800d49a0bd42b0a840b017b7b587b79800049265001520a68ff28d7019567181949277804492770044927680450221005e828838880fdc868087b97800433075020120574853302140595681819014928600449285804492848041164893307049568601d49295004502016054b8582679801817756173f13826898014808403307013309242818330701330924826890010a0e3302180595691819281b826890010a0e3302180595691819280b3302180595691819014929d8004929d000140700000000b6e2a4af7b97e0009568e0194929c800330750201a05dd8482671801817756171f0c8268180148082001330701330904826810010a0e01956a181995ab000182b8900082b9a00082ba980086770001956b182995bc00077bc8107bc7087bca187bc920956820308267900150201c05ee858267000133001e050a05826908013302200528411f82690801502220053a1fd4870798aa206f99979820d4a808989920956c1819492c0001492cf800492cf000826a98017bcae800826af8007bca08013a0a6000023a0b680002492c2001492c18017bca60017bcb58013a0a7000023a0b780002492c1001492c40017bca500195ca00017bab487ba9387ba83064c89569601a956a401a956b201a956c001a7b8728013307330850202205198733078268100128b3ef492658010182677801977701826b5801d47b0b0182670001aeb77606826708019777209878209587ff88773293877b68280193875107ac061407ffffffff000000007b6730018267e000977720987920956aff0795aa1901492a00038267100195ab00027bb7e800826718017bb7f0009568ff07958801047b6940017bb9f80033075020240546839568ff07958819014928e0024928d8024928c8020364893307209568ff079588e1034929d002502026051a8333078001027b677801390780010233083fac780b8268780148084001140700000000ffffffff7b672001502228053e223307900102837783993308407b67700133002a050a09826a980133022c05286821826a980150222c0561217bca207bc9187bc8107bc7089567ff079577c1039568202d50202e0593839567ff07957719018277a802492638014926f8004926f0004926e80049268801492690014926980182683001d287077b670801330701017b678001826b90018eb7826a98018ea8daa7088267080182698001d89707826c88018ec9dac709d4ab07db78095209a10595690001829730829838d28707829828ae878d059569ff07959919014929a00282671001959a00027ba78800826718017ba790009568ff079588a103826740017ba79800330750203005ed819567ff0795771901492780024927780249277002647a3307209568ff0795888103492a68020250203205c18182677801817756173f12826878014808403302340528341f50223405311f330036050a093302380528791b50223805761b959a00027ba760826790017ba758826788017ba7509568ff0795886103826780017ba748330750203a05648150223c0503249589000250223e05c02295884103826960017ba9280250204005428182677801817756173f128267780148074033024205282a225022420527220a09826a600182a71882a81082a90882aa6f7c6f8b6f976fa9826868017b6958017b89187b6760017b87107b6b50017b8b087b6c48017b8c9567ff079577210350204405d0819569ff0795991901959a000282a71082a81882a9088477ff8488ff826a2001d2a909d49808d4870751071503956c000182c848958702d8870882ca50c88a09d8a90ada880a82c860c88a0ad88a0882cb58c8b808956b182995bc00047bc7287bc9307bca387bc8409567ff07957701039568402d5020460556819567ff07957719018277f0018477ff005207b3029569ff07959919014929e00182671001959a00017ba7c800826718017ba7d0009568ff079588e102826740017ba7d80033075020480518809567ff07957719014927c0014927b8014927b001647a3307209568ff079588c102492aa8010450204a05ec7fff82677801817756173f128267780148074033024c05285e1d50224c055b1d33004e050a093302500528ec1b50225005e91b4929a00149299801492990019568ff079588a102826700017b978801330750205205967fff826750019568ff0795881901958900015022540595229568ff0795888102826968017ba9680150205605697fff82677801817756173f12826778014807403302580528db1c50225805d81c33005a050a0933025c0528201950225c051d19959a00017ba760826790017ba758826788017ba7509568ff0795886102826780017ba748330750205e050b7fff50226005a9219589000150226205662095884102826960017ba9280150206405e87eff82677801817756173f12826778014807403302660528cf1f50226605cc1f330068050a0933026a0528991b50226a05961b9577210250206c059e7fff9567ff0795771901827708018478ff005108fa0084770000ff005207f0009568ff0795881901826780017b87a800826700017b87c800826710017b87e800826788017b87b0008267c0007b87d000826718017b87f000826790017b87b8008267c8007b87d8008267e0007b87f800826798017b87c0008267d0007b87e000648b9567ff07957701029568ff079588e1019569ff079599c101826ad8007bba000150206e0510098267e800956aff0795aa19017ba780008267f0007ba7788267f8007ba7709567ff079577a1019568ff0795888101826938017ba9685020700555089568ff07958819018287a0007b67e800828798007b67f000828790007b67f800828788007b67380101956aff0795aa1901826780017ba728826788017ba730826790017ba7389567ff07957761019568ff0795884101826998017ba94050207205f2079568ff0795881901828760956900017b9798008287587b9790008287507b97880082874828d9fa9569ff07959919014929380349293003140700000000d94b11cf7b9740039568ff0795884104492928033307502074050e7dff390880010256181f12200380010220330890010228a0e033089001022898e09569ff0795991901492918034929100314070000000059e962787b9720039568ff079588210449290803330750207605bc7cff390880010256181f122003800102203308900102284ee033089001022846e03307826870012878e80a030182171082181814090000000001000000d37909d48909987a2088aa01948a939a510a248219821a087b697b6a087b67107b68189551c0821038821530821628951140320033089001028388330701330933007a050a0e33027c0528791f50227c05761f3308240a0301821718821810821908d4780a889b0194ab510b0d821a50227e05311b3200330890010283883307013309330080050a0e3302820528361f50228205331f330844330084050a033302860528441c50228605411c520b0b50228805f11a320033089001028388330701330933008a050a0e33028c05288d1d50228c058a1d33008e050a033302900528071c50229005041c520b0b50229205b41a3200330890010283883307013309330094050a0e019511a07b10587b15507b16489515608411f0828910828c08828b82881897923f98ca01d42a02978a3f989901d49a0a97cc3f98b901d49c0c98830184bb019ab888b60184c97fd2a804d2280adbbc09d2380b88982094a8d4b40c94c8ab86167b797b7a087b74107b7b1850229605791d320050229805861950209a05fb7aff491118491110490122330704641849110850209c05e37aff390880010256183f0b200380010240013308900102838833070133092433009e050a0e01951170ff7b1088007b1580007b1678951590008411f064728289827408828c088273959a1fd89a00c80c0984aae07b1308c8a303d8a30bc8490ac8ba0ad39a06d89a07da6b07822b18d8c90c828610822210828818da000cc86c0cd86c06c82c09c89707d8c90cd89709c8b808c86808c8c808c8980c8ec88e79dbc809d4c7088ea6db8906520658821808d88308d34a09d84a06da9806d82708d3bc09d8bc0bda980bd32708d49808da860b520b317b13507b1a587b17603307409518507b1c685020a005f779ff955170ff82108800821580008216789511900032005022a2059e1b5020a405d579ff491128491120491110413307049518104911185020a605bb79ff390880010256183f0b20038001024001330890010283883307013309243300a8050a0e019511907b10687b15607b16589515708411f0828a187b1a08829b1882847b14828a08829608829c828310829210c8a609c8c404d8c40cc8c909d36900d86906da0c06c83208821c08c8bc0cd8280bc8cb0bc8680cd88c08c88b00d3a90bd8a90a8218d88406dbba06d83c02821808d3800bd8800adab20ad33c08d4b808db8a0652061f7b747b79087b7c107b701895519082106882156082165895117032005022aa05b41a5020ac05eb78ff491128491120491110113307049518104911185020ae05d178ff390880010256183f0b20038001024001330890010283883307013309243300b0050a0e019511807b10787b15707b1668951580008411f0829b828a829608828308829410828c10829918828818d363027b1608d863067b1b187b1a10d8ba0a7b1ada2a06d3980ad89800d84c02daa200d34c0bd4ba0adaa600520046c94c0ac99808c92808d86a09c99808c96a0a821908c99309821bc9b909821b18821c10c9bc0b7b7b7b79087b7a107b7818955180821078821570821668951180003200491150491148491140140700000000717b484e9518407b175833075020b205f077ff491138491130491120113307049518204911285020b405d677ff390880010256183f0b20038001024001330890010283883307013309243300b6050a0e01828a18828b108282088eac8eb9dbac09d4ba0a8e2bdba90b520b30828895891fd88908c828088488018499e0959a20d89a09c8980bd88b08da99084917187b7a7b7b087b781032009511b07b10487b15409515508411f05022b805d9155020ba054e77ff49111849111049014133070464184911085020bc053677ff390880010256183f0b20038001024001330890010283883307013309243300be050a0e019511c0fe7b1038017b1530017b162801951540018411e064760a0d0151074f017b16180a0d64794921f8004921f0004921e800951700019518e0007b19207b19e0005020c0051eff821700017b1740821708017b1738821710017b1730821718017b17289517c0003308405020c2056675ff8217d8007b17588216d0008219c8007b1950821ac0007b1a488218287b1898008218307b1890008218387b1888008218407b1880007b17b8007b16b0007b19a8009517a000951880007b1aa0005020c40594fb821748821858821950d48909d46708d498089888207b1640d46909979920d49808520884004911784911704911689518608219207b19605020c6050f76ff0a0d01821a48821840821958d498081409e0ffffff00000000d89a09821b5094b99489510944647698772052073c83a72083687b183864685020c805157aff7a16200183778318200133090a0c01821b4881172001821618821858821940821a50821c38aec70e00330a33093308330b60017b6b7b6a087b69107b68189551c0fe82103801821530018216280195114001320080881409ffffffff00000000aa981c958801888901d4980a88aa014917187b787b79087b7a1032009511b07b10487b15409515508411f05022ca05c3135020cc053875ff49111849111049011133070464184911085020ce052075ff390880010256183f0b20038001024001330890010283883307013309243300d0050a0e01951100f9951a00067ba0f8007ba5f0007ba6e800951500078411e0641682997b692882887b68308278107b68208278087b683882777b6740836720060a0a01826238068263300682672806826b20067b6b7868296838958a40db290a687968b8958840db7908958b8000d42309da9b0ad88b0c949c8ecb88a8f000858901dac90b88b4019540ff9ab49accc99c099aa8ef007b64a8008e4a8e0cda0a0c7b68b800888a000185aa018e98db980adbbc0a6474826778d42408d4370bd4b808888801d4a808647a948a5208e9028268b8008588ff00826ca800d4c808d4090bd4b8085108d002826bb80095ba017b6ab00088a801c898087b68a000d4a808888801c8c8087b689000d8c808c808087b6898009ab9ff007b6988009a99800064487b64707b62687b63605020d2056d177b6780007b6850826760826868826988005020d4057c177b67487b68188268b8009a897f8267788268705020d60563177b67107b68b80082698800889780007b67588267788268705020d8054517826c58826b9000826a98008269a000d4a909826ab000d4ba0ad49a0a93c77b67a800510a0502826750826918d497078269b800dac907826268642a82638800db370a7b6ab80082678000826948d49707826910dac907826b6064badb370a7b6a800093c87b6888004916588051018267b00095798064b764285020da05a0167b67507b68188267788268708269b0005020dc058a167b67107b68488268b0009a8980008267608268685020de059616826948d49808826ab00088ab80007b6b48826918dab908826970dba8097b6970826810d48707826850dab807826878dba70864a97b68788267608268685020e0052d16330c82694893989397826a5895a9ff7b69508ea99599ff7b6948826370826478017b6c7898493f973a01d49a0c974a01826bb80098bb3fd4ba0a7b6a688269487b6c706434d3c903d8c902826b50d8ab0cdb320c978801987a3fd4a8087b6860984a3f977701d47a0a8267b800977701826b800098b83fd4870297b801826b880098b33fd4380397b801826ba80098b43fd4480897bb01826778d47b0b7b6ba80086887b68880086387b68800086277b67b800c9a907d8c707d8a908826260c9290bc98b0bc97b0b99bc3f826758d2c707826868c97804d87808826770c987039478c98a07d88a08c98208826ab0008260a000d40a09889901826b9000d89b02c99b0988ab01c9b000826b9800c92b0b95aaff7b60a0007b6b9800d4b0027b6ab000d49a0bd42b0a84cc017b699000520af2fe2805330c018267a800977701d47c0a01826730aea7a5088267209777209879204926f8058267407b67e0058267387b67e8059568e0057b69a8007b69f00533075020e2051471ff4926d8054926d0054926c005023307209568c0054926c8055020e405f570ff3308800102390780010256173f0b200380010240019517e08479e07b69a000649133079001027b675083777b68b00083993308407b67b8003300e6050a093302e80528e10d5022e805de0d8267289777209877204926b8054926b0054926a8059568a0057b6790007b67a00533075020ea058070ff826778956a00057ba79800826780007ba79000826788007ba7880033072095688005826998007ba980005020ec054f70ff8268b000818756173f08480840019517e08477e07b6798005022ee0518113300f0050a093302f205287d0e5022f2057a0e956760055020f4050571ff806764058268680582697005977720d49808d487075107a207492658058267407b6740058267387b674805956840058267a8007b67500533075020f605d36fff4926380549263005492620050433072095682005492628055020f805b46fff8268b000818756173f08480840019517e08477e07b67a0005022fa057d100a09826aa00082a71882a81082a90882aa6f777b67a0006f877b6798006f977b6788006fa77b678000492618054926100549260805956800058267307b67000533075020fc054d6fff82678000956a00047ba7f800826788007ba7f000826798007ba7e8003307209568e0048269a0007ba9e0005020fe051b6fff8268b000818756173f08480840019517e08477e07b67a00050220006e40f330002060a093302040628210c502204061e0c4926d8044926d0044926c8049568c004826790007b67c004330750200606c96eff826778956a00047ba7b800826780007ba7b000826788007ba7a8003307209568a004826998007ba9a00050200806986eff8268b000818755174008480840019517e08477e07b67980050220a06610f33000c060a0933020e0628c60c50220e06c30c95678004502010064e6fff826880048487ff00510720067b68980084870000ff0052073a06826798047b6758826790047b6760826788047b6768492658048267407b6740048267387b674804956840048267a8007b675004330750201206066eff49263804492630044926200401330720956820044926280450201406e76dff8269b000819756173f08480940019517e08477e07b67880050221606b00e0a09826a880082a782a80882a91082aa186f777b6788006f877b6780006f977b67786fa77b67709518e08488e064818269980086970000018269587b89188269607b89108269687b89087b878267a00050201806dc6eff82689800848700ff007b6798009517e08478e06481826770957701887901826b78c89b0bd4b709889901826a8000c8a909d8a90a826c8800c8ca0a7b8a187b89107b8b087b87956700047b68a00050201a060f6eff8262180482631004826a0804826400049518e08488e064813a0c200102c84c0cd84c09c89a079577ffd3a700d8a70bda090b9539ffc89b0bd89b00883901c99209c809097b87087b8c7b8b107b8918826798005107a6013a072801027b679800d8740794a7d4230994975207cf048267a00050201c060e6eff9517e08478e06481826970959702d8970b826a78c8ba09d8a90adabb0a826b8000c8ba0ad8ba0c826b8800c8cb0b7b8a107b89087b877b8b189567e0037b68a00050201e064e6dff8262f8038263f003826ae803826be0039518e08488e0648182649800c8b404d8b407c87a09d8a90cda770cc83c0cd83c077b8c103a0c300102c827077b89087b84d8bc0995aa0194a9d2230a95aa0194a97b871852096b048267a00050202006636dff9567c00333084050202206b16aff956b000382b7d80082b8d00082b9c80082bac00050222406610852072d034926b8034926b0034926a8039568a003826798007b67a00364a77b6ab80050202606a86bff4926380349263003492628038267307b672003492658034926500349264803826790007b674003492678038267a8007b6770038267387b6768033a073801023a084001023a09480102826a407b6a60037b6798037b6890037b6988033a0750010233082095698003956a6003956b4003956c20037b6780038267b8003300380628636eff3a072801027b679800d8740794a7d4230994975207bb038267a000502028066c6cff49265806492650064926480649264006956780029568400650202a06d56bff8262980282639002826a8802826b80029518e08488e0648182649800c8b404d8b407c87a09d8a90cda770cc83c0cd83c077b8c103a0c300102c827077b89087b84d8bc0995aa0194a9d2230a95aa0194a97b871852098003492678064926700649266806492660069567600650202c06da6bff50202e06db68ff3a08b001037b68a0003a08c001037b6888003a07b801037b6780000a0b826880006f88978920826a88006faa98aa20d4a909988820826aa0006faa330b90010397ac20d4c80898aa203d0aa001033e089801033e0990010349269806492690064926880682689800956900067b9880004826a0068e77fc089a787b98d8007b98d0007b98c8007b98c00097bb2098bb20977723d4b707956880069788209888209569c006979920d4890a826b5097bb2098bb209568a006978820d4b80c3308ff3309ff0a017b67a00095676002502030068af28267a0005207f80295672002330840502032064668ff956b000282b73882b83082b92882ba2050223406fa055207c60049261802492610024926080295680002826798007b67000264a77b6ab800502036064169ff4926980149269001492688018267307b6780014926b8014926b0014926a801826790007b67a0014926d8018267a8007b67d0018267387b67c8013a075801023a086001023a09680102826a407b6ac0017b67f8017b68f0017b69e8013a077001023308209569e001956ac001956ba001956c80017b67e0018267b80050203806006cff955100f9951700068270f8008275f0008276e80095110007320000492610064926080649260006140700000000d94b11cf956800067b671806330750203a067c68ff390880010256181f0b20038001022001330890010283883307013309040a0e014926d0004926c8004926c0001407000000006d53a9a79568c0007b67d800330733004606283168ff4926f0004926e8004926e000140700000000b6e2a4af9568e0007b67f800330733004606280968ff49267004492668044926600414070000000000f90f56956860047b67780433073300460628e167ff4926d0024926c8024926c002140700000000717b484e9568c0027b67d802330750203c06bd67ff4926b8024926b0024926a002113307049568a0024926a80233004406289a67ff492610034926080349260003140700000000717b484e956800037b671803330750203e067667ff4926f8024926f0024926e002113307049568e0024926e80233004406285367ff492630014926280149262001140700000000717b484e956820017b6738013307502040062f67ff49261801492610014926000111330704956800014926080133004406280c67ff492670014926680149266001140700000000717b484e956860017b677801330750204206e866ff49265801492650014926400111330704956840014926480150204406c966ff8267b000817756173f138268b000480840330701330924286e3307013309248268b8000a0e33073300480628116bff49265002492648024926400214070000000018ecb890956840027b6758023307502046067366ff8267b000817756171f138268b00048082033070133090428183307013309048268b8000a0e33073300480628bb6aff8268b8000a0e33073300480628ab6aff330750204806a56aff33070150204a069b6aff826a680182a71882a81082a90882aa6f777b6760016f877b6758016f977b6750016fa77b6748019517e08477e07b67680164719569ff079599190182679801320282970881981082996f77977a206f88988820d48a0a9877206f98978920d4970798882095691819320282970881981082996f77977a206f88988820d48a0a9877206f98978920d497079888209569ff079599190132027b676801c9a007d8c707d8a008826c3801c9c00bc98b0bc97b0b99b03f82673001d2700782684001c97804d87808c989039498c98a077b674801d88a08c98c0895670001827a9800827c9000d4ca09889901827b8000320282970881981082996f7a97a7206f889888203202da980782695001649a649882696001db970a7b6a680182674801826a3001d4a707826a2001daca07826b580164badb970a7b6a60018267700193c77b677001492630018051018267980195798064b732028269d80082970881981082996f77977a206f88988820d48a0a9877206f98978920d497079888209569182132029517e08477e07b679001647183793308408267100132029598017b689801888701c8a7077b679001d48707887701c837077b678001d83707c807077b6788019a98ff007b6860019a8980008267400182683801320282a71882a81082a90882aa6f776f8b6f996faa32029517e08477e07b67680164718379330840826778013202d8ab0ac8a90cd89c09daaa09c88909d88908c887073202826a900182a71882a81082a90882aa6f777b6790016f877b6788016f977b6780016fa77b67780133071819c876093202826a680182a71882a81082a90882aa6f777b6768016f877b6760016f977b6758016fa77b6750019569ff0795991901320282644001826338014926580149265001956b000182b928939893977bb74882ba3095a9ff7bb9288ea99599ff7bb9203202d49707d48a09d47909989920d48707977720d49707320282a71882a81082a90882aa6f777b6788016f877b6780016f977b6778016fa77b6770019517e08477e0320264718379330840826790013202826a600182a71882a81082a90882aa6f776f8b6f996faa826868017b8a187b89107b8b087b879567ff07320282970881981082996f77977a206f88988820d48a0a9877206f98978920d49707988820956918113202826aa00082a71882a81082a90882aa6f777b6798006f877b6788006f977b6780006fa77b67789517e08477e07b67a0006471320282a71882a81082a90882aa6f777b6778016f877b6770016f977b6768016fa77b67600132029517e08477e07b67680164718379330840826770013202330b330c8269280193989397826a380195a9ff7b6930018ea99599ff7b692801320282689801826950017b8908826958017b89826970017a8910648a9569182982688001320282692801d4980882699801889a80007b6a2801826b2001daab08826b3801db980b7b6b3801320298493f973a01d4a909974a0182646801984b3fd4ba0a7b6a4001826020016437d390033202978801826b480198ba3fd4a8087b683801987a3f97b701d47a0a974701826b600198b83f3202826a980082a71882a81082a90882aa6f776f8b6f996faa8268a0007b8a187b89107b8b087b873202491130491128491120140700000000717b484e9518207b17383307320282a71882a81082a90882aa6f776f886f996faa956b182995bc0004320282a71882a81082a90882aa6f776f886f996faa826b98017bba187bb9107bb8087bb7320282970881981082996f77977a206f88988820d48a0a9877206f98978920d4970798882032027b6a600193b87b686801492638018051018267900195798064c7643832027b6a7b69087b68107b67189551c08210388215308216289511403202d88708826a9001c88a09d8a90ada880a32029517e08479e07b6998016491320233071829c8760a95ab00053202d49707d48b09d47909989920d48707977720d497073202d4870782684801daa80782684001db97087b6840018267580182685001320282ab7b1b1882ab087b1b2082ab107b1b2882aa187b1a308296829a087b1a829a107b1a088299187b19103202826a900182a782a80882a91082aa186f776f886f996faa32027b6760018267880195770188780182699001c898089569182932027b6710017b682801826890019a8980008267500182684001320282692801d49808826a900188ab80007b6b280182691801dab908320282b73882b84082b93082ba28d49808d4a707d48707320282b7b80082b8c00082b9b00082baa800d49808d4a707d487073202821718821810821908821ad4790bd48a0cd4bc0c98cc20d48b0b97bb20d4cb0b32027b6730017b682801826760019579808267400182683801320282688001c88a0ad88a08826b9801c8b80832026f997b6980016fa77b679801826878017b87187b8910320282a71882a81082a90882aa6f776f886f996faa3202647183793308408267b80032029517e08477e07b679801647132029517e08477e07b676001647183793308408267700132029517e08477e07b676001647183793308408267780132027b682801826898019a8980008267580182685001320282679801817733082332028267980182692801d4970782691001dab90782634001643a32027b9740826750017b9738826758017b9730648a3307209568ff073202140b00000000010000001407e0ffffff00000000d8780782c99000949794a73202826898018187107b67700182877b6758018287087b6750013202491140491138491130140700000000717b484e9518307b1748330732029511c07b10387b15307b16289515408411e064768317330804320282970881981082996f77977a206f88988820d4a8083202956c00017bc880007bca9000d48a077bc9787bcb8800d49b08d487073202826a900182608001d40a09889901826b700132027b6748017b68200182674001826838018269980132027b6748017b68680182675801826850018269600132029551a082105882155082164895116032027b6760017b68980182675001826840018269680132029517e08477e07b67780164713202826748019568ff0795881901320282b7980082b8a00082b9900082ba8800d49808d4a707d487073202956b00017bb87082b8900082b98800d4890982b8980082ba8000d4a808d49808320283771801c8760a95ac000782c72082c81882c91082cb08320283771801c8760a95ab000132027b978000826758017b9778826760017b9770648a330720320233071829c8760a95ab0006320233071829c8760a95ab000132029511c07b10387b15307b16289515408411e06476831732026479140700000000717b484e3308002032027b6718017b68100182696801889780007b673801320282b75882b86082b95082ba48d49808d4a707d487073202849a40520a195109148d9a40cfa80ad09808d09707d4a707320032009597c0d0780733083200849a40520a195109148d9a40d0a70acf9707cf9808d4a808320032009598c0cf87083307320049922425494b2a252da9944c4949490a21a11a4292d210a1925429a42449922449922449922449922449922449922449922449922449922449922449aa9294529294942454a5242549922449922449922449922449922449922449922449499294a4aa24254994a492a42a494149929294a4aa2a494952924a922222222549929224a95029a5244929a524a9a4888828222252922409124a252525458a142952a44891a22445444411119192244949922448282a52a4489122458a142952a4489122458a122922224a920421240ca5496948848888484444342222498424894414890851a81a2242440049528948922491842424499224c950124a42495200a51022184a5aa12a119224841052a14a95464444a488081211428448446944200181442081041210104820810412482011111129110449148984888888880811912892244942081149a49088444444a444102441128988888888284484448420444222089534925414418a101111114124492489242244444444448220229244844824224122282222222242442444444492244922222222a2888810912448121111111111112211492a494422918884880012a524924444448808455122222252220892208948232222229188240951a4484410111151488c08252248a210221849142a5124a92a929494244992948820222222914412892449121111111111111111444444444444444404114144444444444444444444444444444404111111111149121144828824092411894422520411454404929284881042444444222282a228222222228a0804922812514444221111912022220249448912254a24a948924a44a5882449924a2222491289249248241111118188880844442202111111118844124952922252242a12118944892802910211111188888808442222128948241211818888482549c9248924a22492441249124922492489442412892491249148522289882449922492489244248a444444441111814012a288222202111111051189120902218249142a11454404222222a28888888888882092248a44224922224124494444444410092222222222222222a211491449922411491211111105114544049292848810424444248988088aa288888888684420092411694424494944442322222aa9249254244925a212298948244925114992124924892422a288402010118908042202111189a4484a4444443422499224812422d188240924218a28222290242205112542222282240a21829144212a118d925425102589082222222222914492489224111111111111111111111111414444444444924404114504a2884044241289282222492289249248922212441249101111111124111111111189882288282211242589104288888888444444222222a288402089221111111111111111111111118988241291828811a14404214430894245228a4804111111511011111151222288229308a288449044914444441444444444948808a2c824822822114492228888481011499224491245444444441011910410402a890825222222828824519444502222228244508a12111111454404124992248a44444444103112914824224104822422222222228a48444444342290044944a21191244842145144228888888288908820894288602451884a4411892092144144442492481249922422222222222222882445444444041145822812444444444414119124914412492449114124912092244822222222a208228a480449492284102292248988088aa248444444140992244912452241244992244942924844222222a248101191240992884844444444414448441084488804a1128d241545902288888888209224924412114444444444444444444410452212248244449244041111111111111111111144444444442488240992882812894811898888884604499044a4111191944444492249249254928868444424511291441249124912492491244a922449922451945424a94892104514092222220a224684121104214430922854228a480491a408224644444410119148242282884492482412892222228288461249259544928a24a944542225912249a292882449228924914444441104414424220822828888445224252222228a04411245222211111111116944924424912449924812111111110511234289084288601285a24491a4a2288a248a88888888888288111189948808a2c82482224945511491a4082246229148a248224924914824124582884422918808228888888888882022294992241111111111111111442412892480442511119144221244452449921209242222228a04411245224644442291880411111124111111111145908804918848244a104444441004412422914811110411234922892852224912492291249244924824128924912491482225099224928844922822994842145144222822220a2222422282240a218248102a124592aa2212894411452482888888828888502282283280082082282211444444041111111155249188242291484444b212294944444414910822924841444494084114890451248844221129082222a244441045224114910822494992241111111111444424221289444444041111119188082222229248121145248288888828888888121182281209a2481011111105111189444a444410452241140922914844a4208888881211114491481045820822222222888888089594241111111111111144444444444492429224499224251124452291282282888888a490244912929292924410114144249148444444441011914824222212444422914824224144449224499244242222a2888820222201242a89482222222282882212415292104244444444888888881211111111144591482492442222222222220a92288a8c48245189a22292541525526a24924892248924492222828888249224914424499224491211111149248248224924914822492491285229119520121189440982888808822088442412292282206224492411454a24492249249244924812894422912492241249a42441924412914812452423124444924a9124924412912491888844440411918824499288888888882888460490282591544a5292444444440411119148442488888888888804111111111111111111498a88201249912449121111111111051109201295441191088a684424912489482292248954928888882080002212a5241145444444444410894852492222222241440089521211111109228a041149a4206244281141141940024812958846928aa2288288118944225210311289448988208a4ca21245924a2925921411442411114444442449229124114144101111111111444424924492449244044949922449128944124504114912499224491211c4485249499248121109229224222222828888884a91442292482222118944240aa2884ca2124592244924892449a5a8922492442491249224492225892492244994542549248944922411499224493112492291244914894422224914442491249248899124492211111111111111114412492289444492882062444424888888489224118944444444041111092280484424892449121111114424895224228288202288440001242a228a8888888888880822229152041089a2884844922411414404450411494492242211499224804845444444049188888808a288888888201240222222a8689224918844442412898882244a4112550a45444492aaa28a44d2884822114944221189221149224922499224898808222222222222228824924412894422914412894822492491889412111125922489888844442449924892244992244944109148241291442441441241442422491011894892a8482412898888882049922491248988884824092049452482888844229149924892882491484412444492202212912488884424495124128944128944222222264152922449924452224144222288481211491211448288888824454410414444442292242288281244444414448c08252208a2884ca2125124481025892062241111114144229148440411244992241289442292242288043122222212492249448c88081144440248009128452422222222228844a228028848a21491088a6844129124894844922489542422222288282211242589444208212249242512495244248248104912c488882880882888880825228228229368280925a12494849250121101444441882024242280882888223289869250124a2246041011052182909050124a424928092511114044418820242422028828121111114024a248280925a12494849250121101441484084242222280882211114044411491493494849250124a4249280925a124948492881101444441882024246244001151102208090925a1249404444444248a0441849250124a22092091821041282c8946440491288818114a44104564120d444444248a04418492808888884423820825311219111111248252548a46440491288818114a44a48888888888a888442194442194044444444434222292442809229444442222222222221211111111119148124912499224914824222241a8a24844242222221111a28822124144444441c4885022821021894482508928221144914444444441444444448988208a4824882212414411892052241111c488489244241249129146444444259544928a24a944255212918824a988481241100441101111114110258a48110441104110441004412209924812492211894482248924229124119108444444342222224984522895a248512488504424224214514422888888288818114a441022446412854a4423494551144124111111511011414404514426114411892092145144228814494404312292249124499288282211442491828811a144045144261114492a8aa288181111511011111151222288223289a0284955529224494a228288888811014444918811014444911849122322a288441091440a224684121144118904512488888828888888882811114411890451244810111111114444c4880022a248144222229144245141444844102244641285a81449aa8a48928820222222822844442422112302888882282249922822014444442422492282882212414412298818114a441044119944108d925425889244101189482222884844442222494410514422484a121121848888081111111111151489181140441489282211442491828811a144045144224114092222220a222222a2444410452412441189208a1811115110111111512222882232894a441189209214414444888811014444918888444444444444444422222291484444242222a211111151492591a422492a518994442422498a481241100441101111114110258a48110441104110441004412209924812492211894482248924229124119188882012051123428908a288242551445144112302888882282293684444444492440411452482a4241111111121444484101191a48888a8a0488c444644921445001149444444444444414444281111840849640011844a441189204922228888888888884446142522519288248988888888888882888828112188221209a24810894422220541041111441189044592aa221289441141442449224944922449924424494404111111111111111151101111252204a288448228124444444481888820222210452412449120128944440a04114444208a4824882241042222228888888888888888888888888822222222828888482422221244444444448c8844221111912022118944121111404444811041484844440011110542042121459a0490249552922449a11445823449520a0aa52812248a04090aa5281244912041a1144d922429499224494a9224a59424280824490984088692684424524949922449922449922449524949922449922449924044240a0249240984088692689224492a2949922449922449499224494a922429082491241022184aa24912a9244992242949922449922425494992244a1240522089248110c150124d524949499224494a4a92048124298110c150128d8888d44845444422884422914820129148229148444444044992244922499240932480a4529252208a9a48926495258988880a2049929292244120494a204430944423222252294952a21111a9a4924852912495884a444a4a92a422229244249248124944444982481241124982444492201191488a481249918824498922885490241124114990442449922449498252494a9249924892942449922491481249224912455124499224499292442491249144249244d448269244221111052242220221443089428a12512448121111512011111189884014994410458208444492884422220a44844404a2c8248222494551141111890211111191880844914904512488888828908888884444208a4c22882241042222828844229148444481889088401499445094a4284a498a902449118810494992249248922202111149214992244992928810294504929224492491a4440422229222499224242525252210094444441011111145202212111111118910422222422222222242a414118888880844442445922449484a4a4a4444442010224488a24449a290248410111111514444924412499248922282884820922488888888221011898888888844082111112111111181888888464400110542044349232280882222228088222222808822222280880211211111111140448188908888880820a24044484444440410512022242210452429898a888800220a4411494aa222a2220a2410492a8aa248a28828a994a4245152294949228a249124914852228988244a2aa54445222291281145205291544a529228894a944822492411111125a9aa242a519224299254144511299254144511514444a492a4a4244952928aa228922a5124a92a921425959294248a2415455192a824154551944425aaa84894282251a48822111189444912494429914492448a245545924a12405249aa8a28495591a4924a494a52148148559224498924255191284992944824222a49929492a42849551149248a8888281211919224491111494a5292242922125124918a2292925455254aa292a8444954a28888284a11894425122951000124aa48148992049054922495924a4911914452441245444411115192a4888828898a8822229214894844522492a448149148291245a22449aa02882222a22449529224492595244952490100"},"methodIdentifiers":{"STAKE_PER_DAY()":"4a91f7ae","archiveHabit(uint32)":"b650673a","checkIn(uint32,uint64)":"a0145927","claim(uint256)":"379607f5","createHabit(string)":"b683ace1","dailyStatuses(address,uint64,uint32)":"88b21c87","deposit()":"d0e30db0","epochNow()":"222ae786","getContractBalance()":"6f9fb98a","getTotalUserFunds(address)":"2b262fbf","habits(address,uint32)":"99626634","prepareDay(uint64)":"48cc36b8","redepositFromClaimable(uint256)":"8f23d36c","settle(address,uint64,uint32)":"9c14eb6e","settleAll(address,uint64,uint32)":"45123cce","totalTreasuryReceived()":"badf162d","treasury()":"61d027b3","userHabitCounters(address)":"0e08454a","userStates(address)":"0ecc535f","withdraw(uint256)":"2e1a7d4d"}},"hash":"38dd28d31d728f6151a59229a0d41ef9d88b564dd2787545cb7d33c599fd545a","factoryDependencies":{}}}}