{"contracts/HabitTracker.sol":{"HabitTracker":{"abi":[{"inputs":[{"internalType":"address","name":"_treasury","type":"address"}],"stateMutability":"nonpayable","type":"constructor"},{"inputs":[],"name":"AlreadyCheckedIn","type":"error"},{"inputs":[],"name":"AlreadySettled","type":"error"},{"inputs":[],"name":"CannotSettleCurrentDay","type":"error"},{"inputs":[],"name":"DayNotFunded","type":"error"},{"inputs":[],"name":"HabitAlreadyArchived","type":"error"},{"inputs":[],"name":"HabitNotFound","type":"error"},{"inputs":[],"name":"HabitTextTooLong","type":"error"},{"inputs":[],"name":"HabitTextTooShort","type":"error"},{"inputs":[],"name":"InsufficientBalance","type":"error"},{"inputs":[],"name":"InvalidAmount","type":"error"},{"inputs":[],"name":"InvalidBatchSize","type":"error"},{"inputs":[],"name":"InvalidEpoch","type":"error"},{"inputs":[],"name":"InvalidTreasury","type":"error"},{"inputs":[],"name":"NotHabitOwner","type":"error"},{"inputs":[],"name":"TransferFailed","type":"error"},{"anonymous":false,"inputs":[{"indexed":true,"internalType":"address","name":"user","type":"address"},{"indexed":true,"internalType":"uint32","name":"habitId","type":"uint32"},{"indexed":true,"internalType":"uint64","name":"epoch","type":"uint64"}],"name":"CheckedIn","type":"event"},{"anonymous":false,"inputs":[{"indexed":true,"internalType":"address","name":"user","type":"address"},{"indexed":false,"internalType":"uint256","name":"amount","type":"uint256"}],"name":"Claimed","type":"event"},{"anonymous":false,"inputs":[{"indexed":true,"internalType":"address","name":"user","type":"address"},{"indexed":true,"internalType":"uint64","name":"epoch","type":"uint64"},{"indexed":false,"internalType":"uint32","name":"fundedCount","type":"uint32"},{"indexed":false,"internalType":"uint32","name":"insufficientCount","type":"uint32"}],"name":"DayPrepared","type":"event"},{"anonymous":false,"inputs":[{"indexed":true,"internalType":"address","name":"user","type":"address"},{"indexed":false,"internalType":"uint256","name":"amount","type":"uint256"}],"name":"Deposited","type":"event"},{"anonymous":false,"inputs":[{"indexed":true,"internalType":"address","name":"user","type":"address"},{"indexed":true,"internalType":"uint32","name":"habitId","type":"uint32"}],"name":"HabitArchived","type":"event"},{"anonymous":false,"inputs":[{"indexed":true,"internalType":"address","name":"user","type":"address"},{"indexed":true,"internalType":"uint32","name":"habitId","type":"uint32"},{"indexed":false,"internalType":"string","name":"text","type":"string"}],"name":"HabitCreated","type":"event"},{"anonymous":false,"inputs":[{"indexed":true,"internalType":"address","name":"user","type":"address"},{"indexed":false,"internalType":"uint256","name":"amount","type":"uint256"}],"name":"RedepositedFromClaimable","type":"event"},{"anonymous":false,"inputs":[{"indexed":true,"internalType":"address","name":"user","type":"address"},{"indexed":true,"internalType":"uint32","name":"habitId","type":"uint32"},{"indexed":true,"internalType":"uint64","name":"epoch","type":"uint64"},{"indexed":false,"internalType":"uint256","name":"slashed","type":"uint256"}],"name":"SettledFail","type":"event"},{"anonymous":false,"inputs":[{"indexed":true,"internalType":"address","name":"user","type":"address"},{"indexed":true,"internalType":"uint32","name":"habitId","type":"uint32"},{"indexed":true,"internalType":"uint64","name":"epoch","type":"uint64"},{"indexed":false,"internalType":"uint256","name":"reward","type":"uint256"}],"name":"SettledSuccess","type":"event"},{"anonymous":false,"inputs":[{"indexed":true,"internalType":"address","name":"user","type":"address"},{"indexed":false,"internalType":"uint256","name":"amount","type":"uint256"}],"name":"Withdrawn","type":"event"},{"inputs":[],"name":"STAKE_PER_DAY","outputs":[{"internalType":"uint256","name":"","type":"uint256"}],"stateMutability":"view","type":"function"},{"inputs":[{"internalType":"uint32","name":"habitId","type":"uint32"}],"name":"archiveHabit","outputs":[],"stateMutability":"nonpayable","type":"function"},{"inputs":[{"internalType":"uint32","name":"habitId","type":"uint32"},{"internalType":"uint64","name":"epoch","type":"uint64"}],"name":"checkIn","outputs":[],"stateMutability":"nonpayable","type":"function"},{"inputs":[{"internalType":"uint256","name":"amount","type":"uint256"}],"name":"claim","outputs":[],"stateMutability":"nonpayable","type":"function"},{"inputs":[{"internalType":"string","name":"text","type":"string"}],"name":"createHabit","outputs":[{"internalType":"uint32","name":"","type":"uint32"}],"stateMutability":"nonpayable","type":"function"},{"inputs":[{"internalType":"address","name":"","type":"address"},{"internalType":"uint64","name":"","type":"uint64"},{"internalType":"uint32","name":"","type":"uint32"}],"name":"dailyStatuses","outputs":[{"internalType":"bool","name":"funded","type":"bool"},{"internalType":"bool","name":"checked","type":"bool"},{"internalType":"bool","name":"settled","type":"bool"}],"stateMutability":"view","type":"function"},{"inputs":[],"name":"deposit","outputs":[],"stateMutability":"payable","type":"function"},{"inputs":[],"name":"epochNow","outputs":[{"internalType":"uint64","name":"","type":"uint64"}],"stateMutability":"view","type":"function"},{"inputs":[{"internalType":"address","name":"user","type":"address"}],"name":"getActiveHabits","outputs":[{"components":[{"internalType":"uint32","name":"id","type":"uint32"},{"internalType":"address","name":"owner","type":"address"},{"internalType":"string","name":"text","type":"string"},{"internalType":"uint64","name":"createdAtEpoch","type":"uint64"},{"internalType":"bool","name":"archived","type":"bool"}],"internalType":"struct HabitTracker.Habit[]","name":"","type":"tuple[]"}],"stateMutability":"view","type":"function"},{"inputs":[{"internalType":"address","name":"user","type":"address"}],"name":"getUserState","outputs":[{"components":[{"internalType":"uint256","name":"depositBalance","type":"uint256"},{"internalType":"uint256","name":"blockedBalance","type":"uint256"},{"internalType":"uint256","name":"claimableBalance","type":"uint256"},{"internalType":"uint32","name":"activeHabitCount","type":"uint32"}],"internalType":"struct HabitTracker.UserState","name":"","type":"tuple"}],"stateMutability":"view","type":"function"},{"inputs":[{"internalType":"address","name":"","type":"address"},{"internalType":"uint32","name":"","type":"uint32"}],"name":"habits","outputs":[{"internalType":"uint32","name":"id","type":"uint32"},{"internalType":"address","name":"owner","type":"address"},{"internalType":"string","name":"text","type":"string"},{"internalType":"uint64","name":"createdAtEpoch","type":"uint64"},{"internalType":"bool","name":"archived","type":"bool"}],"stateMutability":"view","type":"function"},{"inputs":[{"internalType":"uint64","name":"epoch","type":"uint64"}],"name":"prepareDay","outputs":[],"stateMutability":"nonpayable","type":"function"},{"inputs":[{"internalType":"uint256","name":"amount","type":"uint256"}],"name":"redepositFromClaimable","outputs":[],"stateMutability":"nonpayable","type":"function"},{"inputs":[{"internalType":"address","name":"user","type":"address"},{"internalType":"uint64","name":"epoch","type":"uint64"},{"internalType":"uint32","name":"habitId","type":"uint32"}],"name":"settle","outputs":[],"stateMutability":"nonpayable","type":"function"},{"inputs":[{"internalType":"address","name":"user","type":"address"},{"internalType":"uint64","name":"epoch","type":"uint64"},{"internalType":"uint32","name":"maxCount","type":"uint32"}],"name":"settleAll","outputs":[],"stateMutability":"nonpayable","type":"function"},{"inputs":[],"name":"totalTreasuryReceived","outputs":[{"internalType":"uint256","name":"","type":"uint256"}],"stateMutability":"view","type":"function"},{"inputs":[],"name":"treasury","outputs":[{"internalType":"address","name":"","type":"address"}],"stateMutability":"view","type":"function"},{"inputs":[{"internalType":"address","name":"","type":"address"}],"name":"userHabitCounters","outputs":[{"internalType":"uint32","name":"","type":"uint32"}],"stateMutability":"view","type":"function"},{"inputs":[{"internalType":"address","name":"","type":"address"}],"name":"userStates","outputs":[{"internalType":"uint256","name":"depositBalance","type":"uint256"},{"internalType":"uint256","name":"blockedBalance","type":"uint256"},{"internalType":"uint256","name":"claimableBalance","type":"uint256"},{"internalType":"uint32","name":"activeHabitCount","type":"uint32"}],"stateMutability":"view","type":"function"},{"inputs":[{"internalType":"uint256","name":"amount","type":"uint256"}],"name":"withdraw","outputs":[],"stateMutability":"nonpayable","type":"function"}],"evm":{"assembly":"// RO data = 0/0 bytes\n// RW data = 380/66000 bytes\n// Stack size = 32768 bytes\n\n// Instructions = 14310\n// Code size = 50885 bytes\n\n      : @0 (gas: 1)\n     0: jump @14 if a0 == a1\n      : @1 (gas: 9)\n     3: a3 = a1 << 0x20\n     6: a3 = a3 >> 0x20\n     9: a4 = a0 << 0x20\n    12: a4 = a4 >> 0x20\n    15: a4 = a4 + a2\n    18: a3 = a3 - a4\n    21: a4 = a2 << 0x1\n    24: a4 = -a4\n    26: jump @7 if a4 >=u a3\n      : @2 (gas: 1)\n    29: jump @11 if a0 >=u a1\n      : @3 (gas: 1)\n    32: jump @14 if a2 == 0\n      : @4 (gas: 3)\n    35: a2 = a2 + a0\n    38: a3 = a0\n    40: fallthrough\n      : @5 (gas: 6)\n    41: a4 = u8 [a1]\n    43: a1 = a1 + 0x1\n    46: a5 = a3 + 0x1\n    49: u8 [a3] = a4\n    51: a3 = a5\n    53: jump @5 if a5 != a2\n      : @6 (gas: 1)\n    56: jump @14\n      : @7 (gas: 1)\n    58: jump @14 if a2 == 0\n      : @8 (gas: 3)\n    61: a2 = a2 + a0\n    64: a3 = a0\n    66: fallthrough\n      : @9 (gas: 6)\n    67: a4 = u8 [a1]\n    69: a1 = a1 + 0x1\n    72: a5 = a3 + 0x1\n    75: u8 [a3] = a4\n    77: a3 = a5\n    79: jump @9 if a5 != a2\n      : @10 (gas: 1)\n    82: jump @14\n      : @11 (gas: 1)\n    84: jump @14 if a2 == 0\n      : @12 (gas: 2)\n    87: i32 a3 = a2 + 0xffffffffffffffff\n    90: fallthrough\n      : @13 (gas: 7)\n    91: a4 = a1 + a3\n    94: a4 = u8 [a4]\n    96: a2 = a2 + 0xffffffffffffffff\n    99: a5 = a0 + a3\n   102: u8 [a5] = a4\n   104: i32 a3 = a3 + 0xffffffffffffffff\n   107: jump @13 if a2 != 0\n      : @14 (gas: 1)\n   110: ret\n      : @15 (gas: 7)\n   112: sp = sp + 0xffffffffffffffe8\n   115: u64 [sp + 0x10] = ra\n   118: u64 [sp + 0x8] = s0\n   121: u64 [sp] = s1\n   123: s1 = 0x20178\n   128: s0 = i32 [0x20178]\n   133: jump @18 if s0 == 0\n      : @16 (gas: 5)\n   136: a0 = 0x301b0\n   141: i32 a0 = a0 + 0\n   143: i32 a1 = s1 + 0\n   145: ecalli 6 // 'get_immutable_data'\n   147: fallthrough\n      : @17 (gas: 3)\n   148: a0 = i32 [0x20178]\n   153: u32 [0x20178] = 0\n   158: jump @19 if a0 <u s0\n      : @18 (gas: 5)\n   161: ra = u64 [sp + 0x10]\n   164: s0 = u64 [sp + 0x8]\n   167: s1 = u64 [sp]\n   169: sp = sp + 0x18\n   172: ret\n      : @19 (gas: 1)\n   174: trap\n      : @20 (gas: 2)\n   175: a1 = i32 [0x20178]\n   180: jump @70 if a1 == 0\n      : @21 (gas: 4)\n   184: a0 = 0x301b0\n   189: i32 a0 = a0 + 0\n   191: ecalli 14 // 'set_immutable_data'\n   193: jump @70\n      : @22 (gas: 8)\n   196: sp = sp + 0xfffffffffffffff0\n   199: u64 [sp + 0x8] = ra\n   202: u64 [sp] = s0\n   204: a2 = a1\n   206: s0 = a0\n   208: a1 = 0x20\n   211: a0 = a2\n   213: ra = 2, jump @37\n      : @23 [@dyn 1] (gas: 100)\n   218: a1 = u8 [a0 + 0x1]\n   221: a2 = u8 [a0]\n   223: a3 = u8 [a0 + 0x2]\n   226: a4 = u8 [a0 + 0x3]\n   229: a1 = a1 << 0x8\n   232: a1 = a1 | a2\n   235: a3 = a3 << 0x10\n   238: a4 = a4 << 0x18\n   241: a3 = a3 | a4\n   244: a1 = a1 | a3\n   247: a2 = u8 [a0 + 0x5]\n   250: a3 = u8 [a0 + 0x4]\n   253: a4 = u8 [a0 + 0x6]\n   256: a5 = u8 [a0 + 0x7]\n   259: a2 = a2 << 0x8\n   262: a2 = a2 | a3\n   265: a4 = a4 << 0x10\n   268: a5 = a5 << 0x18\n   271: a4 = a4 | a5\n   274: a2 = a2 | a4\n   277: a2 = a2 << 0x20\n   280: t0 = a2 | a1\n   283: a2 = u8 [a0 + 0x9]\n   286: a3 = u8 [a0 + 0x8]\n   289: a4 = u8 [a0 + 0xa]\n   292: a5 = u8 [a0 + 0xb]\n   295: a2 = a2 << 0x8\n   298: a2 = a2 | a3\n   301: a4 = a4 << 0x10\n   304: a5 = a5 << 0x18\n   307: a4 = a4 | a5\n   310: a2 = a2 | a4\n   313: a3 = u8 [a0 + 0xd]\n   316: a4 = u8 [a0 + 0xc]\n   319: a5 = u8 [a0 + 0xe]\n   322: a1 = u8 [a0 + 0xf]\n   325: a3 = a3 << 0x8\n   328: a3 = a3 | a4\n   331: a5 = a5 << 0x10\n   334: a1 = a1 << 0x18\n   337: a1 = a1 | a5\n   340: a1 = a1 | a3\n   343: a1 = a1 << 0x20\n   346: t1 = a1 | a2\n   349: a1 = u8 [a0 + 0x11]\n   352: a3 = u8 [a0 + 0x10]\n   355: a4 = u8 [a0 + 0x12]\n   358: a5 = u8 [a0 + 0x13]\n   361: a1 = a1 << 0x8\n   364: a1 = a1 | a3\n   367: a4 = a4 << 0x10\n   370: a5 = a5 << 0x18\n   373: a4 = a4 | a5\n   376: a1 = a1 | a4\n   379: a3 = u8 [a0 + 0x15]\n   382: a4 = u8 [a0 + 0x14]\n   385: a5 = u8 [a0 + 0x16]\n   388: a2 = u8 [a0 + 0x17]\n   391: a3 = a3 << 0x8\n   394: a3 = a3 | a4\n   397: a5 = a5 << 0x10\n   400: a2 = a2 << 0x18\n   403: a2 = a2 | a5\n   406: a2 = a2 | a3\n   409: a2 = a2 << 0x20\n   412: a3 = a2 | a1\n   415: a1 = u8 [a0 + 0x19]\n   418: a2 = u8 [a0 + 0x18]\n   421: a4 = u8 [a0 + 0x1a]\n   424: a5 = u8 [a0 + 0x1b]\n   427: a1 = a1 << 0x8\n   430: a1 = a1 | a2\n   433: a4 = a4 << 0x10\n   436: a5 = a5 << 0x18\n   439: a4 = a4 | a5\n   442: a1 = a1 | a4\n   445: a2 = u8 [a0 + 0x1d]\n   448: a4 = u8 [a0 + 0x1c]\n   451: a5 = u8 [a0 + 0x1e]\n   454: a0 = u8 [a0 + 0x1f]\n   457: a2 = a2 << 0x8\n   460: a2 = a2 | a4\n   463: a5 = a5 << 0x10\n   466: a0 = a0 << 0x18\n   469: a0 = a0 | a5\n   472: a0 = a0 | a2\n   475: a0 = a0 << 0x20\n   478: a0 = a0 | a1\n   481: a0 = reverse a0\n   483: a1 = reverse a3\n   485: a2 = reverse t1\n   487: a3 = reverse t0\n   489: u64 [s0 + 0x18] = a3\n   492: u64 [s0 + 0x10] = a2\n   495: u64 [s0 + 0x8] = a1\n   498: u64 [s0] = a0\n   500: ra = u64 [sp + 0x8]\n   503: s0 = u64 [sp]\n   505: sp = sp + 0x10\n   508: ret\n      : @24 (gas: 12)\n   510: sp = sp + 0xffffffffffffffd8\n   513: u64 [sp + 0x20] = ra\n   516: u64 [sp + 0x18] = s0\n   519: u64 [sp + 0x10] = s1\n   522: a2 = u64 [a1]\n   524: u64 [sp + 0x8] = a2\n   527: a2 = u64 [a1 + 0x8]\n   530: u64 [sp] = a2\n   532: s0 = u64 [a1 + 0x10]\n   535: s1 = u64 [a1 + 0x18]\n   538: a1 = 0x20\n   541: ra = 4, jump @37\n      : @25 [@dyn 2] (gas: 71)\n   546: a1 = reverse s1\n   548: a2 = reverse s0\n   550: a3 = u64 [sp]\n   552: a3 = reverse a3\n   554: a4 = u64 [sp + 0x8]\n   557: a4 = reverse a4\n   559: u8 [a0 + 0x18] = a4\n   562: u8 [a0 + 0x10] = a3\n   565: u8 [a0 + 0x8] = a2\n   568: u8 [a0] = a1\n   570: a5 = a4 >> 0x38\n   573: u8 [a0 + 0x1f] = a5\n   576: a5 = a4 >> 0x30\n   579: u8 [a0 + 0x1e] = a5\n   582: a5 = a4 >> 0x28\n   585: u8 [a0 + 0x1d] = a5\n   588: a5 = a4 >> 0x20\n   591: u8 [a0 + 0x1c] = a5\n   594: a5 = a4 >> 0x18\n   597: u8 [a0 + 0x1b] = a5\n   600: a5 = a4 >> 0x10\n   603: u8 [a0 + 0x1a] = a5\n   606: a4 = a4 >> 0x8\n   609: u8 [a0 + 0x19] = a4\n   612: a4 = a3 >> 0x38\n   615: u8 [a0 + 0x17] = a4\n   618: a4 = a3 >> 0x30\n   621: u8 [a0 + 0x16] = a4\n   624: a4 = a3 >> 0x28\n   627: u8 [a0 + 0x15] = a4\n   630: a4 = a3 >> 0x20\n   633: u8 [a0 + 0x14] = a4\n   636: a4 = a3 >> 0x18\n   639: u8 [a0 + 0x13] = a4\n   642: a4 = a3 >> 0x10\n   645: u8 [a0 + 0x12] = a4\n   648: a3 = a3 >> 0x8\n   651: u8 [a0 + 0x11] = a3\n   654: a3 = a2 >> 0x38\n   657: u8 [a0 + 0xf] = a3\n   660: a3 = a2 >> 0x30\n   663: u8 [a0 + 0xe] = a3\n   666: a3 = a2 >> 0x28\n   669: u8 [a0 + 0xd] = a3\n   672: a3 = a2 >> 0x20\n   675: u8 [a0 + 0xc] = a3\n   678: a3 = a2 >> 0x18\n   681: u8 [a0 + 0xb] = a3\n   684: a3 = a2 >> 0x10\n   687: u8 [a0 + 0xa] = a3\n   690: a2 = a2 >> 0x8\n   693: u8 [a0 + 0x9] = a2\n   696: a2 = a1 >> 0x38\n   699: u8 [a0 + 0x7] = a2\n   702: a2 = a1 >> 0x30\n   705: u8 [a0 + 0x6] = a2\n   708: a2 = a1 >> 0x28\n   711: u8 [a0 + 0x5] = a2\n   714: a2 = a1 >> 0x20\n   717: u8 [a0 + 0x4] = a2\n   720: a2 = a1 >> 0x18\n   723: u8 [a0 + 0x3] = a2\n   726: a2 = a1 >> 0x10\n   729: u8 [a0 + 0x2] = a2\n   732: a1 = a1 >> 0x8\n   735: u8 [a0 + 0x1] = a1\n   738: ra = u64 [sp + 0x20]\n   741: s0 = u64 [sp + 0x18]\n   744: s1 = u64 [sp + 0x10]\n   747: sp = sp + 0x28\n   750: ret\n      : @26 (gas: 43)\n   752: sp = sp + 0xffffffffffffffa0\n   755: u64 [sp + 0x58] = ra\n   758: u64 [sp + 0x50] = s0\n   761: u64 [sp + 0x48] = s1\n   764: s0 = sp + 0x60\n   767: sp = sp & 0xffffffffffffffe0\n   770: s1 = a0\n   772: a0 = u64 [a1 + 0x18]\n   775: a2 = u64 [a1 + 0x10]\n   778: a3 = u64 [a1 + 0x8]\n   781: a1 = u64 [a1]\n   783: a0 = reverse a0\n   785: a2 = reverse a2\n   787: a3 = reverse a3\n   789: a1 = reverse a1\n   791: u64 [sp + 0x18] = a1\n   794: u64 [sp + 0x10] = a3\n   797: u64 [sp + 0x8] = a2\n   800: u64 [sp] = a0\n   802: u64 [sp + 56] = 0\n   805: u64 [sp + 48] = 0\n   808: u64 [sp + 40] = 0\n   811: u64 [sp + 32] = 0\n   814: u32 [sp + 64] = 0x20\n   818: i32 a1 = sp + 0\n   820: i32 a3 = sp + 0x20\n   823: i32 a4 = sp + 0x40\n   826: a2 = 0xffffffffffffffff\n   829: a0 = 0\n   831: ecalli 7 // 'get_storage'\n   833: a0 = u64 [sp + 0x38]\n   836: a1 = u64 [sp + 0x30]\n   839: a2 = u64 [sp + 0x28]\n   842: a3 = u64 [sp + 0x20]\n   845: a0 = reverse a0\n   847: a1 = reverse a1\n   849: a2 = reverse a2\n   851: a3 = reverse a3\n   853: u64 [s1 + 0x18] = a3\n   856: u64 [s1 + 0x10] = a2\n   859: u64 [s1 + 0x8] = a1\n   862: u64 [s1] = a0\n   864: t0 = 6, jump @1864\n      : @27 [@dyn 3] (gas: 1)\n   870: ret\n      : @28 (gas: 40)\n   872: sp = sp + 0xffffffffffffffa0\n   875: u64 [sp + 0x58] = ra\n   878: u64 [sp + 0x50] = s0\n   881: s0 = sp + 0x60\n   884: sp = sp & 0xffffffffffffffe0\n   887: t0 = u64 [a0]\n   889: a3 = u64 [a0 + 0x8]\n   892: a4 = u64 [a0 + 0x10]\n   895: a0 = u64 [a0 + 0x18]\n   898: t1 = u64 [a1]\n   900: a2 = u64 [a1 + 0x8]\n   903: a5 = u64 [a1 + 0x10]\n   906: a1 = u64 [a1 + 0x18]\n   909: t2 = reverse a0\n   911: a4 = reverse a4\n   913: a3 = reverse a3\n   915: a0 = reverse t0\n   917: t0 = reverse a1\n   919: a5 = reverse a5\n   921: a2 = reverse a2\n   923: a1 = reverse t1\n   925: u64 [sp + 0x18] = a0\n   928: u64 [sp + 0x10] = a3\n   931: u64 [sp + 0x8] = a4\n   934: u64 [sp] = t2\n   936: u64 [sp + 0x38] = a1\n   939: u64 [sp + 0x30] = a2\n   942: u64 [sp + 0x28] = a5\n   945: u64 [sp + 0x20] = t0\n   948: i32 a1 = sp + 0\n   950: i32 a3 = sp + 0x20\n   953: a2 = 0xffffffffffffffff\n   956: a4 = 0x20\n   959: a0 = 0\n   961: ecalli 15 // 'set_storage'\n   963: sp = s0 + 0xffffffffffffffa0\n   966: ra = u64 [sp + 0x58]\n   969: s0 = u64 [sp + 0x50]\n   972: sp = sp + 0x60\n   975: ret\n      : @29 (gas: 24)\n   977: sp = sp + 0xffffffffffffff60\n   981: u64 [sp + 0x98] = ra\n   985: u64 [sp + 0x90] = s0\n   989: u64 [sp + 0x88] = s1\n   993: s0 = sp + 0xa0\n   997: sp = sp & 0xffffffffffffffe0\n  1000: a4 = u64 [a3]\n  1002: u64 [sp + 0x38] = a4\n  1005: a4 = u64 [a3 + 0x8]\n  1008: u64 [sp + 0x30] = a4\n  1011: a4 = u64 [a3 + 0x10]\n  1014: u64 [sp + 0x28] = a4\n  1017: a3 = u64 [a3 + 0x18]\n  1020: u64 [sp + 0x20] = a3\n  1023: a3 = u64 [a2]\n  1025: u64 [sp + 0x18] = a3\n  1028: a3 = u64 [a2 + 0x8]\n  1031: u64 [sp + 0x10] = a3\n  1034: a3 = u64 [a2 + 0x10]\n  1037: u64 [sp + 0x8] = a3\n  1040: a2 = u64 [a2 + 0x18]\n  1043: u64 [sp] = a2\n  1045: s1 = a1\n  1047: ra = 8, jump @37\n      : @30 [@dyn 4] (gas: 35)\n  1052: a1 = u64 [sp]\n  1054: a1 = reverse a1\n  1056: a2 = u64 [sp + 0x8]\n  1059: a2 = reverse a2\n  1061: a3 = u64 [sp + 0x10]\n  1064: a3 = reverse a3\n  1066: a4 = u64 [sp + 0x18]\n  1069: a4 = reverse a4\n  1071: u64 [sp + 0x58] = a4\n  1074: u64 [sp + 0x50] = a3\n  1077: u64 [sp + 0x48] = a2\n  1080: u64 [sp + 0x40] = a1\n  1083: a1 = u64 [sp + 0x20]\n  1086: a1 = reverse a1\n  1088: a2 = u64 [sp + 0x28]\n  1091: a2 = reverse a2\n  1093: a3 = u64 [sp + 0x30]\n  1096: a3 = reverse a3\n  1098: a4 = u64 [sp + 0x38]\n  1101: a4 = reverse a4\n  1103: u64 [sp + 0x78] = a4\n  1106: u64 [sp + 0x70] = a3\n  1109: u64 [sp + 0x68] = a2\n  1112: u64 [sp + 0x60] = a1\n  1115: i32 a2 = a0 + 0\n  1117: i32 a3 = s1 + 0\n  1119: i32 a0 = sp + 0x40\n  1122: a1 = 0x2\n  1125: ecalli 5 // 'deposit_event'\n  1127: sp = s0 + 0xffffffffffffff60\n  1131: ra = u64 [sp + 0x98]\n  1135: s0 = u64 [sp + 0x90]\n  1139: s1 = u64 [sp + 0x88]\n  1143: sp = sp + 0xa0\n  1147: ret\n      : @31 (gas: 15)\n  1149: sp = sp + 0xffffffffffffff20\n  1153: u64 [sp + 0xd8] = ra\n  1157: u64 [sp + 0xd0] = s0\n  1161: u64 [sp + 0xc8] = s1\n  1165: s0 = sp + 0xe0\n  1169: sp = sp & 0xffffffffffffffe0\n  1172: a5 = u64 [a4]\n  1174: u64 [sp + 0x40] = a5\n  1177: a5 = u64 [a4 + 0x8]\n  1180: u64 [sp + 0x48] = a5\n  1183: a5 = u64 [a4 + 0x10]\n  1186: u64 [sp + 0x50] = a5\n  1189: a4 = u64 [a4 + 0x18]\n  1192: u64 [sp + 0x58] = a4\n  1195: t0 = 10, jump @1838\n      : @32 [@dyn 5] (gas: 2)\n  1201: u64 [sp + 0x38] = a1\n  1204: ra = 12, jump @37\n      : @33 [@dyn 6] (gas: 46)\n  1209: a1 = reverse s1\n  1211: u64 [sp + 0x78] = a1\n  1214: a1 = u64 [sp]\n  1216: a1 = reverse a1\n  1218: u64 [sp + 0x70] = a1\n  1221: a1 = u64 [sp + 0x8]\n  1224: a1 = reverse a1\n  1226: u64 [sp + 0x68] = a1\n  1229: a1 = u64 [sp + 0x10]\n  1232: a1 = reverse a1\n  1234: u64 [sp + 0x60] = a1\n  1237: a1 = u64 [sp + 0x18]\n  1240: a1 = reverse a1\n  1242: u64 [sp + 0x98] = a1\n  1246: a1 = u64 [sp + 0x20]\n  1249: a1 = reverse a1\n  1251: u64 [sp + 0x90] = a1\n  1255: a1 = u64 [sp + 0x28]\n  1258: a1 = reverse a1\n  1260: u64 [sp + 0x88] = a1\n  1264: a1 = u64 [sp + 0x30]\n  1267: a1 = reverse a1\n  1269: u64 [sp + 0x80] = a1\n  1273: a1 = u64 [sp + 0x40]\n  1276: a1 = reverse a1\n  1278: u64 [sp + 0xb8] = a1\n  1282: a1 = u64 [sp + 0x48]\n  1285: a1 = reverse a1\n  1287: u64 [sp + 0xb0] = a1\n  1291: a1 = u64 [sp + 0x50]\n  1294: a1 = reverse a1\n  1296: u64 [sp + 0xa8] = a1\n  1300: a1 = u64 [sp + 0x58]\n  1303: a1 = reverse a1\n  1305: u64 [sp + 0xa0] = a1\n  1309: i32 a2 = a0 + 0\n  1311: a3 = i32 [sp + 0x38]\n  1314: i32 a0 = sp + 0x60\n  1317: a1 = 0x3\n  1320: ecalli 5 // 'deposit_event'\n  1322: sp = s0 + 0xffffffffffffff20\n  1326: ra = u64 [sp + 0xd8]\n  1330: s0 = u64 [sp + 0xd0]\n  1334: s1 = u64 [sp + 0xc8]\n  1338: sp = sp + 0xe0\n  1342: ret\n      : @34 (gas: 23)\n  1344: sp = sp + 0xfffffffffffffee0\n  1348: u64 [sp + 0x118] = ra\n  1352: u64 [sp + 0x110] = s0\n  1356: u64 [sp + 0x108] = s1\n  1360: s0 = sp + 0x120\n  1364: sp = sp & 0xffffffffffffffe0\n  1367: s1 = u64 [a5]\n  1369: u64 [sp + 0x60] = s1\n  1372: s1 = u64 [a5 + 0x8]\n  1375: u64 [sp + 0x68] = s1\n  1378: s1 = u64 [a5 + 0x10]\n  1381: u64 [sp + 0x70] = s1\n  1384: a5 = u64 [a5 + 0x18]\n  1387: u64 [sp + 0x78] = a5\n  1390: a5 = u64 [a4]\n  1392: u64 [sp + 0x38] = a5\n  1395: a5 = u64 [a4 + 0x8]\n  1398: u64 [sp + 0x40] = a5\n  1401: a5 = u64 [a4 + 0x10]\n  1404: u64 [sp + 0x48] = a5\n  1407: a4 = u64 [a4 + 0x18]\n  1410: u64 [sp + 0x50] = a4\n  1413: t0 = 14, jump @1838\n      : @35 [@dyn 7] (gas: 2)\n  1419: u64 [sp + 0x58] = a1\n  1422: ra = 16, jump @37\n      : @36 [@dyn 8] (gas: 58)\n  1427: a1 = reverse s1\n  1429: u64 [sp + 0x98] = a1\n  1433: a1 = u64 [sp]\n  1435: a1 = reverse a1\n  1437: u64 [sp + 0x90] = a1\n  1441: a1 = u64 [sp + 0x8]\n  1444: a1 = reverse a1\n  1446: u64 [sp + 0x88] = a1\n  1450: a1 = u64 [sp + 0x10]\n  1453: a1 = reverse a1\n  1455: u64 [sp + 0x80] = a1\n  1459: a1 = u64 [sp + 0x18]\n  1462: a1 = reverse a1\n  1464: u64 [sp + 0xb8] = a1\n  1468: a1 = u64 [sp + 0x20]\n  1471: a1 = reverse a1\n  1473: u64 [sp + 0xb0] = a1\n  1477: a1 = u64 [sp + 0x28]\n  1480: a1 = reverse a1\n  1482: u64 [sp + 0xa8] = a1\n  1486: a1 = u64 [sp + 0x30]\n  1489: a1 = reverse a1\n  1491: u64 [sp + 0xa0] = a1\n  1495: a1 = u64 [sp + 0x38]\n  1498: a1 = reverse a1\n  1500: u64 [sp + 0xd8] = a1\n  1504: a1 = u64 [sp + 0x40]\n  1507: a1 = reverse a1\n  1509: u64 [sp + 0xd0] = a1\n  1513: a1 = u64 [sp + 0x48]\n  1516: a1 = reverse a1\n  1518: u64 [sp + 0xc8] = a1\n  1522: a1 = u64 [sp + 0x50]\n  1525: a1 = reverse a1\n  1527: u64 [sp + 0xc0] = a1\n  1531: a1 = u64 [sp + 0x60]\n  1534: a1 = reverse a1\n  1536: u64 [sp + 0xf8] = a1\n  1540: a1 = u64 [sp + 0x68]\n  1543: a1 = reverse a1\n  1545: u64 [sp + 0xf0] = a1\n  1549: a1 = u64 [sp + 0x70]\n  1552: a1 = reverse a1\n  1554: u64 [sp + 0xe8] = a1\n  1558: a1 = u64 [sp + 0x78]\n  1561: a1 = reverse a1\n  1563: u64 [sp + 0xe0] = a1\n  1567: i32 a2 = a0 + 0\n  1569: a3 = i32 [sp + 0x58]\n  1572: i32 a0 = sp + 0x80\n  1576: a1 = 0x4\n  1579: ecalli 5 // 'deposit_event'\n  1581: sp = s0 + 0xfffffffffffffee0\n  1585: ra = u64 [sp + 0x118]\n  1589: s0 = u64 [sp + 0x110]\n  1593: s1 = u64 [sp + 0x108]\n  1597: sp = sp + 0x120\n  1601: ret\n      : @37 (gas: 2)\n  1603: i32 a2 = a0 >> 0x10\n  1606: jump @42 if a2 != 0\n      : @38 (gas: 4)\n  1609: a1 = a1 + a0\n  1612: i32 a1 = a1 + 0x1f\n  1615: a1 = a1 & 0xffffffffffffffe0\n  1618: jump @42 if a1 >u 65536\n      : @39 (gas: 3)\n  1624: a2 = 0x20180\n  1629: a3 = i32 [0x20180]\n  1634: jump @41 if a3 >=u a1\n      : @40 (gas: 2)\n  1637: u32 [0x20180] = a1\n  1642: fallthrough\n      : @41 (gas: 4)\n  1643: a1 = 0x20190\n  1648: i32 a0 = a0 + 0\n  1650: a0 = a0 + a1\n  1653: ret\n      : @42 (gas: 1)\n  1655: trap\n      : @43 (gas: 6)\n  1656: sp = sp + 0xfffffffffffffff0\n  1659: u64 [sp + 0x8] = ra\n  1662: u64 [sp] = s0\n  1664: s0 = a0 & 0x1\n  1667: ecalli 3 // 'call_data_size'\n  1669: fallthrough\n      : @44 (gas: 2)\n  1670: u32 [0x2017c] = a0\n  1675: jump @46 if s0 == 0\n      : @45 (gas: 1)\n  1678: ra = 18, jump @47\n      : @46 [@dyn 9] (gas: 1)\n  1682: ra = 20, jump @73\n      : @47 [@dyn 10] (gas: 13)\n  1687: sp = sp + 0xffffffffffffff00\n  1691: u64 [sp + 0xf8] = ra\n  1695: u64 [sp + 0xf0] = s0\n  1699: u64 [sp + 0xe8] = s1\n  1703: s0 = sp + 0x100\n  1707: sp = sp & 0xffffffffffffffe0\n  1710: u64 [sp + 216] = 0\n  1714: u64 [sp + 208] = 0\n  1718: u64 [sp + 200] = 0\n  1722: u64 [sp + 192] = 0\n  1726: i32 a0 = sp + 0xc0\n  1730: ecalli 16 // 'value_transferred'\n  1732: fallthrough\n      : @48 (gas: 8)\n  1733: a0 = u64 [sp + 0xd0]\n  1737: a1 = u64 [sp + 0xd8]\n  1741: a2 = u64 [sp + 0xc8]\n  1745: a3 = u64 [sp + 0xc0]\n  1749: a1 = a1 | a2\n  1752: a0 = a0 | a3\n  1755: a0 = a0 | a1\n  1758: jump @60 if a0 != 0\n      : @49 (gas: 15)\n  1762: s1 = i32 [0x2017c]\n  1767: a0 = s1 << 0x20\n  1770: a0 = a0 >> 0x20\n  1773: a0 = a0 + 0x1f\n  1776: a0 = a0 & 0xffffffffffffffe0\n  1779: a1 = a0 + 0xa0\n  1783: a0 = a1 <u a0\n  1786: u64 [sp + 0xa0] = a1\n  1790: u64 [sp + 0xa8] = a0\n  1794: a0 = 0 if a0 != 0\n  1796: u64 [sp + 0xb0] = a0\n  1800: a0 = 0x40\n  1803: a1 = sp + 0xa0\n  1807: u64 [sp + 184] = 0\n  1811: ra = 22, jump @24\n      : @50 [@dyn 11] (gas: 3)\n  1816: a0 = 0xa0\n  1820: a1 = s1\n  1822: ra = 24, jump @37\n      : @51 [@dyn 12] (gas: 5)\n  1827: i32 a0 = a0 + 0\n  1829: a1 = s1\n  1831: a2 = 0\n  1833: ecalli 1 // 'call_data_copy'\n  1835: fallthrough\n      : @52 (gas: 1)\n  1836: jump @61 if s1 <=u 31\n      : @53 (gas: 3)\n  1841: a0 = sp + 0x80\n  1845: a1 = 0xa0\n  1849: ra = 26, jump @22\n      : @54 [@dyn 13] (gas: 10)\n  1854: a0 = u64 [sp + 0x90]\n  1858: a2 = u64 [sp + 0x98]\n  1862: a1 = 0x100000000\n  1872: a1 = a1 ^ a0\n  1875: a1 = a1 | a2\n  1878: a3 = a0 >> 0x20\n  1881: a3 = a3 <u 0x1\n  1884: a3 = 0 if a2 != 0\n  1886: a3 = 0 if a1 == 0\n  1888: jump @62 if a3 == 0\n      : @55 (gas: 6)\n  1891: a1 = u64 [sp + 0x80]\n  1895: a3 = u64 [sp + 0x88]\n  1899: a4 = a1 | a0\n  1902: a5 = a3 | a2\n  1905: a4 = a4 | a5\n  1908: jump @63 if a4 == 0\n      : @56 (gas: 7)\n  1911: u64 [sp + 0x60] = a1\n  1914: u64 [sp + 0x68] = a3\n  1917: u64 [sp + 0x70] = a0\n  1920: a0 = 0x80\n  1924: a1 = sp + 0x60\n  1927: u64 [sp + 0x78] = a2\n  1930: ra = 28, jump @24\n      : @57 [@dyn 14] (gas: 3)\n  1935: a0 = sp + 0x40\n  1938: a1 = 0x40\n  1941: ra = 30, jump @22\n      : @58 [@dyn 15] (gas: 12)\n  1946: a0 = u64 [sp + 0x58]\n  1949: a1 = u64 [sp + 0x50]\n  1952: a2 = u64 [sp + 0x48]\n  1955: s1 = u64 [sp + 0x40]\n  1958: a0 = a0 | a2\n  1961: a2 = s1 | a1\n  1964: a2 = a2 | a0\n  1967: a2 = a2 >> 0x20\n  1970: a0 = a0 | a1\n  1973: a0 = a0 << 0x20\n  1976: a0 = a0 | a2\n  1979: jump @67 if a0 == 0\n      : @59 (gas: 1)\n  1982: trap\n      : @60 (gas: 4)\n  1983: a1 = 0x20190\n  1988: i32 a1 = a1 + 0\n  1990: a0 = 0x1\n  1993: jump @72\n      : @61 (gas: 4)\n  1996: a1 = 0x20190\n  2001: i32 a1 = a1 + 0\n  2003: a0 = 0x1\n  2006: jump @72\n      : @62 (gas: 4)\n  2009: a1 = 0x20190\n  2014: i32 a1 = a1 + 0\n  2016: a0 = 0x1\n  2019: jump @72\n      : @63 (gas: 8)\n  2022: u64 [sp + 16] = 0\n  2025: u64 [sp + 8] = 0\n  2028: u64 [sp + 0] = 0\n  2030: a0 = 0x14bcf5c800000000\n  2040: a1 = sp\n  2042: u64 [sp + 0x18] = a0\n  2045: a0 = 0\n  2047: ra = 32, jump @24\n      : @64 [@dyn 16] (gas: 2)\n  2052: a1 = i32 [0x20180]\n  2057: jump @66 if a1 >u 31\n      : @65 (gas: 2)\n  2061: u32 [0x20180] = 0x20\n  2067: fallthrough\n      : @66 (gas: 6)\n  2068: a1 = 0x20190\n  2073: i32 a1 = a1 + 0\n  2075: a0 = 0x1\n  2078: a2 = 0x4\n  2081: ecalli 13 // 'seal_return'\n  2083: fallthrough\n      : @67 (gas: 3)\n  2084: a0 = s1\n  2086: a1 = 0\n  2088: ra = 34, jump @37\n      : @68 [@dyn 17] (gas: 7)\n  2093: i32 a0 = a0 + 0\n  2095: a1 = 0\n  2097: a2 = 0\n  2099: ecalli 1 // 'call_data_copy'\n  2101: a0 = sp + 0x20\n  2104: a1 = 0x80\n  2108: ra = 36, jump @22\n      : @69 [@dyn 18] (gas: 9)\n  2113: a0 = u64 [sp + 0x38]\n  2116: a2 = u64 [sp + 0x30]\n  2119: a3 = u64 [sp + 0x28]\n  2122: a4 = u64 [sp + 0x20]\n  2125: u64 [0x301c8] = a0\n  2130: u64 [0x301c0] = a2\n  2135: u64 [0x301b8] = a3\n  2140: u64 [0x301b0] = a4\n  2145: jump @20\n      : @70 (gas: 3)\n  2148: a0 = s1\n  2150: a1 = 0\n  2152: ra = 38, jump @37\n      : @71 [@dyn 19] (gas: 6)\n  2157: i32 a1 = a0 + 0\n  2159: a0 = 0\n  2161: a2 = 0\n  2163: ra = 0x28\n  2166: ecalli 13 // 'seal_return'\n  2168: jump @73\n      : @72 (gas: 4)\n  2170: a2 = 0\n  2172: ra = 0x28\n  2175: ecalli 13 // 'seal_return'\n  2177: fallthrough\n      : @73 [@dyn 20] (gas: 16)\n  2178: sp = sp + 0xfffffffffffffe10\n  2182: u64 [sp + 0x1e8] = ra\n  2186: u64 [sp + 0x1e0] = s0\n  2190: u64 [sp + 0x1d8] = s1\n  2194: s0 = sp + 0x1f0\n  2198: sp = sp + 0xffffffffffffc410\n  2202: sp = sp & 0xffffffffffffffe0\n  2205: s1 = sp\n  2207: a2 = s1 + 0x3118\n  2211: u64 [a2 + 704] = 0\n  2215: u64 [a2 + 696] = 0\n  2219: u64 [a2 + 680] = 0x80\n  2225: a0 = 0x40\n  2228: a1 = s1 + 0x33c0\n  2232: u64 [a2 + 688] = 0\n  2236: ra = 42, jump @24\n      : @74 [@dyn 21] (gas: 4)\n  2241: a0 = 0x2017c\n  2246: u64 [s1 + 0x198] = a0\n  2250: a0 = i32 [0x2017c]\n  2255: jump @76 if a0 >=u 4\n      : @75 (gas: 1)\n  2259: jump @1231\n      : @76 (gas: 6)\n  2262: a0 = s1 + 0x3000\n  2266: i32 a0 = a0 + 0x3e0\n  2270: a1 = 0\n  2272: ra = 0x2c\n  2275: ecalli 2 // 'call_data_load'\n  2277: fallthrough\n      : @77 [@dyn 22] (gas: 3)\n  2278: a2 = s1 + 0x3118\n  2282: a0 = i32 [a2 + 0x2e4]\n  2286: jump @79 if a0 != 2293374087\n      : @78 (gas: 1)\n  2293: jump @380\n      : @79 (gas: 1)\n  2296: jump @200 if a0 == 2401489772\n      : @80 (gas: 1)\n  2304: jump @82 if a0 != 2573362740\n      : @81 (gas: 1)\n  2311: jump @607\n      : @82 (gas: 1)\n  2314: jump @84 if a0 != 3062082785\n      : @83 (gas: 1)\n  2321: jump @561\n      : @84 (gas: 1)\n  2324: jump @86 if a0 != 3135182381\n      : @85 (gas: 1)\n  2331: jump @421\n      : @86 (gas: 1)\n  2334: jump @88 if a0 != 3504541104\n      : @87 (gas: 1)\n  2341: jump @260\n      : @88 (gas: 1)\n  2344: jump @164 if a0 == 248271711\n      : @89 (gas: 1)\n  2352: jump @233 if a0 == 573237126\n      : @90 (gas: 1)\n  2360: jump @92 if a0 != 773487949\n      : @91 (gas: 1)\n  2367: jump @521\n      : @92 (gas: 1)\n  2370: jump @94 if a0 != 932579317\n      : @93 (gas: 1)\n  2377: jump @433\n      : @94 (gas: 1)\n  2380: jump @96 if a0 != 1097525096\n      : @95 (gas: 1)\n  2387: jump @310\n      : @96 (gas: 1)\n  2390: jump @98 if a0 != 1221342904\n      : @97 (gas: 1)\n  2397: jump @287\n      : @98 (gas: 1)\n  2400: jump @100 if a0 != 1251080110\n      : @99 (gas: 1)\n  2407: jump @472\n      : @100 (gas: 1)\n  2410: jump @102 if a0 == 1270513279\n      : @101 (gas: 1)\n  2417: jump @661\n      : @102 (gas: 9)\n  2420: u64 [a2 + 1888] = 0\n  2424: u64 [a2 + 1880] = 0\n  2428: u64 [a2 + 1872] = 0\n  2432: u64 [a2 + 1864] = 0\n  2436: a0 = s1 + 0x4000\n  2440: i32 a0 = a0 + 0xfffffffffffff860\n  2444: ra = 0x2e\n  2447: ecalli 16 // 'value_transferred'\n  2449: fallthrough\n      : @103 [@dyn 23] (gas: 10)\n  2450: a3 = s1 + 0x3118\n  2454: a4 = a3 + 0x700\n  2458: a0 = u64 [a4 + 0x58]\n  2461: a1 = u64 [a4 + 0x60]\n  2464: a2 = u64 [a4 + 0x50]\n  2467: a3 = u64 [a4 + 0x48]\n  2470: a1 = a1 | a2\n  2473: a0 = a0 | a3\n  2476: a0 = a0 | a1\n  2479: jump @105 if a0 == 0\n      : @104 (gas: 1)\n  2482: jump @1052\n      : @105 (gas: 1)\n  2485: t0 = 48, jump @1842\n      : @106 [@dyn 24] (gas: 1)\n  2491: jump @108 if a1 <u a0\n      : @107 (gas: 1)\n  2494: jump @1053\n      : @108 (gas: 4)\n  2497: a0 = s1 + 0x1d00\n  2501: ra = 0x32\n  2504: t0 = 0x63c\n  2508: jump @1863\n      : @109 [@dyn 25] (gas: 3)\n  2512: t0 = 0x34\n  2515: a3 = s1 + 0x1918\n  2519: fallthrough\n      : @110 [@dyn 26] (gas: 15)\n  2520: a4 = a3 + 0x300\n  2524: a0 = u64 [a4 + 0xe8]\n  2528: a1 = u64 [a4 + 0xf0]\n  2532: a2 = u32 [a3 + 0x3f8]\n  2536: u64 [a3 + 992] = 0\n  2540: a3 = s1 + 0x100\n  2544: u64 [a3 + 0x30] = a2\n  2547: u64 [a4 + 0xd8] = a2\n  2551: u64 [a3 + 0x38] = a1\n  2554: u64 [a4 + 0xd0] = a1\n  2558: a1 = s1 + 0x1ce0\n  2562: u64 [a3 + 0x40] = a0\n  2565: u64 [a4 + 0xc8] = a0\n  2569: a0 = 0\n  2571: ra = 54, jump @24\n      : @111 [@dyn 27] (gas: 9)\n  2576: a1 = s1 + 0x1918\n  2580: u64 [a1 + 960] = 0\n  2584: u64 [a1 + 952] = 0\n  2588: u64 [a1 + 936] = 0x3\n  2593: a2 = a1\n  2595: a0 = 0x20\n  2598: a1 = s1 + 0x1cc0\n  2602: u64 [a2 + 944] = 0\n  2606: ra = 56, jump @24\n      : @112 [@dyn 28] (gas: 3)\n  2611: a1 = 0x20180\n  2616: a0 = i32 [0x20180]\n  2621: jump @114 if a0 >u 63\n      : @113 (gas: 2)\n  2625: u32 [0x20180] = 0x40\n  2631: fallthrough\n      : @114 (gas: 6)\n  2632: u64 [s1 + 0x178] = a1\n  2636: a1 = 0xffffffff\n  2646: u64 [s1 + 0xd0] = a1\n  2650: a0 = 0xffffffff00000000\n  2660: u64 [s1 + 0x120] = a0\n  2664: t0 = 58, jump @1819\n      : @115 [@dyn 29] (gas: 10)\n  2670: a0 = 0x20190\n  2675: i32 a0 = a0 + 0\n  2677: i32 a2 = a2 + 0\n  2679: a1 = 0x40\n  2682: u64 [s1 + 0x170] = a0\n  2686: ra = 0x3c\n  2689: ecalli 8 // 'hash_keccak_256'\n  2691: a3 = u64 [s1 + 0x198]\n  2695: t0 = 0x3e\n  2698: jump @1833\n      : @116 [@dyn 30] (gas: 2)\n  2702: a3 = u64 [s1 + 0x198]\n  2706: t0 = 62, jump @1833\n      : @117 [@dyn 31] (gas: 8)\n  2712: a5 = a4 + 0x700\n  2716: u64 [a5 + 0x80] = a3\n  2720: u64 [a5 + 0x78] = a2\n  2723: u64 [a5 + 0x70] = a1\n  2726: u64 [a5 + 0x68] = a0\n  2729: a0 = s1 + 0x1ca0\n  2733: a1 = s1 + 0x3880\n  2737: ra = 64, jump @26\n      : @118 [@dyn 32] (gas: 12)\n  2742: a3 = s1 + 0x1918\n  2746: a0 = u32 [a3 + 0x388]\n  2750: u64 [s1 + 0x128] = a0\n  2754: u64 [s1 + 280] = 0\n  2758: u64 [s1 + 256] = 0\n  2762: u64 [s1 + 264] = 0\n  2766: u64 [s1 + 272] = 0\n  2770: t0 = 0\n  2772: a5 = 0\n  2774: a4 = 0\n  2776: t1 = 0x1\n  2779: fallthrough\n      : @119 (gas: 10)\n  2780: a0 = a5 >u 0\n  2782: a1 = a4 >u 0\n  2784: a1 = a0 if a4 == 0\n  2787: a0 = u64 [s1 + 0x128]\n  2791: a0 = a0 <u t1\n  2794: a2 = t0 >u 0\n  2796: a2 = a0 if t0 == 0\n  2799: a0 = a5 | a4\n  2802: a2 = a1 if a0 != 0\n  2805: jump @121 if a2 == 0\n      : @120 (gas: 1)\n  2808: jump @483\n      : @121 (gas: 15)\n  2811: u64 [s1 + 0x180] = t1\n  2815: u64 [s1 + 0x188] = t0\n  2819: u64 [s1 + 0x190] = a5\n  2823: u64 [s1 + 0x198] = a4\n  2827: u64 [a3 + 896] = 0\n  2831: a0 = u64 [s1 + 0x140]\n  2835: a2 = a3 + 0x300\n  2839: u64 [a2 + 0x68] = a0\n  2842: a0 = u64 [s1 + 0x138]\n  2846: u64 [a2 + 0x70] = a0\n  2849: a1 = s1 + 0x1c80\n  2853: a0 = u64 [s1 + 0x130]\n  2857: u64 [a2 + 0x78] = a0\n  2860: a0 = 0\n  2862: ra = 66, jump @24\n      : @122 [@dyn 33] (gas: 9)\n  2867: a0 = s1 + 0x1918\n  2871: u64 [a0 + 864] = 0\n  2875: u64 [a0 + 856] = 0\n  2879: u64 [a0 + 848] = 0\n  2883: a3 = a0\n  2885: a0 = 0x20\n  2888: a1 = s1 + 0x1c60\n  2892: u64 [a3 + 840] = 0x2\n  2897: ra = 68, jump @24\n      : @123 [@dyn 34] (gas: 1)\n  2902: t0 = 70, jump @1868\n      : @124 [@dyn 35] (gas: 1)\n  2908: jump @126 if a2 <u a0\n      : @125 (gas: 3)\n  2911: u32 [a1 + 0] = 0x40\n  2914: t0 = 0x48\n  2917: jump @1792\n      : @126 (gas: 1)\n  2921: t0 = 72, jump @1792\n      : @127 [@dyn 36] (gas: 4)\n  2927: ra = 0x4a\n  2930: ecalli 8 // 'hash_keccak_256'\n  2932: t0 = 0x4c\n  2935: jump @1804\n      : @128 [@dyn 37] (gas: 1)\n  2939: t0 = 76, jump @1804\n      : @129 [@dyn 38] (gas: 14)\n  2945: i32 a0 = a0 + 0xfffffffffffff918\n  2949: a2 = s1 + a0\n  2952: a0 = u64 [s1 + 0x198]\n  2956: a3 = a2 + 0x300\n  2960: u64 [a3 + 0x40] = a0\n  2963: a0 = u64 [s1 + 0x190]\n  2967: u64 [a3 + 0x38] = a0\n  2970: a0 = u64 [s1 + 0x188]\n  2974: u64 [a3 + 0x30] = a0\n  2977: a1 = s1 + 0x1c40\n  2981: a0 = u64 [s1 + 0x180]\n  2985: u64 [a3 + 0x28] = a0\n  2988: a0 = 0\n  2990: ra = 78, jump @24\n      : @130 [@dyn 39] (gas: 14)\n  2995: a0 = u64 [s1 + 0x148]\n  2999: a1 = s1 + 0x1918\n  3003: a2 = a1 + 0x300\n  3007: u64 [a2 + 0x20] = a0\n  3010: a0 = u64 [s1 + 0x150]\n  3014: u64 [a2 + 0x18] = a0\n  3017: a0 = u64 [s1 + 0x158]\n  3021: u64 [a2 + 0x10] = a0\n  3024: a3 = a1\n  3026: a0 = 0x20\n  3029: a1 = s1 + 0x1c20\n  3033: a2 = u64 [s1 + 0x160]\n  3037: u64 [a3 + 0x308] = a2\n  3041: ra = 80, jump @24\n      : @131 [@dyn 40] (gas: 1)\n  3046: t0 = 82, jump @1868\n      : @132 [@dyn 41] (gas: 1)\n  3052: jump @134 if a2 <u a0\n      : @133 (gas: 2)\n  3055: u32 [a1 + 0] = 0x40\n  3058: fallthrough\n      : @134 (gas: 4)\n  3059: a0 = sp + 0xffffffffffffffe0\n  3062: a0 = a0 & 0xffffffffffffffe0\n  3065: u64 [s1 + 0x160] = a0\n  3069: t0 = 84, jump @1798\n      : @135 [@dyn 42] (gas: 4)\n  3075: ra = 0x56\n  3078: ecalli 8 // 'hash_keccak_256'\n  3080: t0 = 0x58\n  3083: jump @1799\n      : @136 [@dyn 43] (gas: 1)\n  3087: t0 = 88, jump @1799\n      : @137 [@dyn 44] (gas: 2)\n  3093: a0 = s1 + 0x1c00\n  3097: ra = 90, jump @26\n      : @138 [@dyn 45] (gas: 3)\n  3102: t0 = 0x5c\n  3105: a3 = s1 + 0x1918\n  3109: fallthrough\n      : @139 [@dyn 46] (gas: 11)\n  3110: a4 = a3 + 0x200\n  3114: a0 = u64 [a4 + 0xf0]\n  3118: a1 = u64 [a4 + 0xf8]\n  3122: a2 = u64 [a4 + 0xe8]\n  3126: a0 = a0 & 0xffffffffffffffff\n  3129: a1 = a1 & 0xffffffffffffffff\n  3132: a4 = u64 [s1 + 0x120]\n  3136: a2 = a2 & a4\n  3139: a1 = a1 | a2\n  3142: a0 = a0 | a1\n  3145: jump @162 if a0 == 0\n      : @140 (gas: 11)\n  3149: u64 [a3 + 736] = 0\n  3153: a0 = u64 [s1 + 0x140]\n  3157: a2 = a3 + 0x200\n  3161: u64 [a2 + 0xc8] = a0\n  3165: a0 = u64 [s1 + 0x138]\n  3169: u64 [a2 + 0xd0] = a0\n  3173: a1 = s1 + 0x1be0\n  3177: a0 = u64 [s1 + 0x130]\n  3181: u64 [a2 + 0xd8] = a0\n  3185: a0 = 0\n  3187: ra = 94, jump @24\n      : @141 [@dyn 47] (gas: 9)\n  3192: a0 = s1 + 0x1918\n  3196: u64 [a0 + 704] = 0\n  3200: u64 [a0 + 696] = 0\n  3204: u64 [a0 + 688] = 0\n  3208: a3 = a0\n  3210: a0 = 0x20\n  3213: a1 = s1 + 0x1bc0\n  3217: u64 [a3 + 680] = 0x2\n  3222: ra = 96, jump @24\n      : @142 [@dyn 48] (gas: 1)\n  3227: t0 = 98, jump @1868\n      : @143 [@dyn 49] (gas: 1)\n  3233: jump @145 if a2 <u a0\n      : @144 (gas: 3)\n  3236: u32 [a1 + 0] = 0x40\n  3239: t0 = 0x64\n  3242: jump @1792\n      : @145 (gas: 1)\n  3246: t0 = 100, jump @1792\n      : @146 [@dyn 50] (gas: 5)\n  3252: ra = 0x66\n  3255: ecalli 8 // 'hash_keccak_256'\n  3257: a3 = u64 [s1 + 0x168]\n  3261: t0 = 0x68\n  3264: jump @1791\n      : @147 [@dyn 51] (gas: 2)\n  3268: a3 = u64 [s1 + 0x168]\n  3272: t0 = 104, jump @1791\n      : @148 [@dyn 52] (gas: 13)\n  3278: a2 = s1 + 0x1918\n  3282: a0 = u64 [s1 + 0x198]\n  3286: a3 = a2 + 0x200\n  3290: u64 [a3 + 0xa0] = a0\n  3294: a0 = u64 [s1 + 0x190]\n  3298: u64 [a3 + 0x98] = a0\n  3302: a0 = u64 [s1 + 0x188]\n  3306: u64 [a3 + 0x90] = a0\n  3310: a1 = s1 + 0x1ba0\n  3314: a0 = u64 [s1 + 0x180]\n  3318: u64 [a3 + 0x88] = a0\n  3322: a0 = 0\n  3324: ra = 106, jump @24\n      : @149 [@dyn 53] (gas: 14)\n  3329: a0 = u64 [s1 + 0x150]\n  3333: a1 = s1 + 0x1918\n  3337: a2 = a1 + 0x200\n  3341: u64 [a2 + 0x80] = a0\n  3345: a0 = u64 [s1 + 0x158]\n  3349: u64 [a2 + 0x78] = a0\n  3352: a0 = u64 [s1 + 0x160]\n  3356: u64 [a2 + 0x70] = a0\n  3359: a3 = a1\n  3361: a0 = 0x20\n  3364: a1 = s1 + 0x1b80\n  3368: a2 = u64 [s1 + 0x168]\n  3372: u64 [a3 + 0x268] = a2\n  3376: ra = 108, jump @24\n      : @150 [@dyn 54] (gas: 1)\n  3381: t0 = 110, jump @1868\n      : @151 [@dyn 55] (gas: 1)\n  3387: jump @153 if a2 <u a0\n      : @152 (gas: 3)\n  3390: u32 [a1 + 0] = 0x40\n  3393: t0 = 0x70\n  3396: jump @1792\n      : @153 (gas: 1)\n  3400: t0 = 112, jump @1792\n      : @154 [@dyn 56] (gas: 5)\n  3406: ra = 0x72\n  3409: ecalli 8 // 'hash_keccak_256'\n  3411: a3 = u64 [s1 + 0x168]\n  3415: t0 = 0x74\n  3418: jump @1793\n      : @155 [@dyn 57] (gas: 2)\n  3422: a3 = u64 [s1 + 0x168]\n  3426: t0 = 116, jump @1793\n      : @156 [@dyn 58] (gas: 9)\n  3432: a1 = s1 + 0x3118\n  3436: a3 = a1 + 0x700\n  3440: u64 [a3 + 0x88] = a4\n  3444: u64 [a3 + 0x90] = a5\n  3448: u64 [a3 + 0x98] = a2\n  3452: u64 [a3 + 0xa0] = a0\n  3456: a0 = s1 + 0x1b60\n  3460: a1 = s1 + 0x38a0\n  3464: ra = 118, jump @26\n      : @157 [@dyn 59] (gas: 3)\n  3469: t0 = 0x78\n  3472: a3 = s1 + 0x1918\n  3476: fallthrough\n      : @158 [@dyn 60] (gas: 3)\n  3477: a0 = u64 [a3 + 0x250]\n  3481: a0 = a0 & 0xff\n  3485: jump @162 if a0 != 0\n      : @159 (gas: 12)\n  3488: a0 = u64 [s1 + 0x118]\n  3492: a4 = a3 + 0x200\n  3496: u64 [a4 + 0x8] = a0\n  3499: a0 = u64 [s1 + 0x100]\n  3503: u64 [a4 + 0x10] = a0\n  3506: a0 = u64 [s1 + 0x108]\n  3510: u64 [a4 + 0x18] = a0\n  3513: a0 = s1 + 0x1b40\n  3517: a1 = s1 + 0x1b20\n  3521: a2 = u64 [s1 + 0x110]\n  3525: u64 [a4 + 0x20] = a2\n  3528: ra = 122, jump @1632\n      : @160 [@dyn 61] (gas: 3)\n  3534: t0 = 0x7c\n  3537: a3 = s1 + 0x1918\n  3541: fallthrough\n      : @161 [@dyn 62] (gas: 11)\n  3542: a1 = a3 + 0x200\n  3546: a0 = u64 [a1 + 0x40]\n  3549: a2 = s1 + 0x100\n  3553: u64 [a2 + 0x10] = a0\n  3556: a0 = u64 [a1 + 0x38]\n  3559: u64 [a2 + 0x8] = a0\n  3562: a0 = u64 [a1 + 0x30]\n  3565: u64 [a2] = a0\n  3567: a0 = u64 [a1 + 0x28]\n  3570: u64 [a2 + 0x18] = a0\n  3573: fallthrough\n      : @162 (gas: 13)\n  3574: a4 = s1 + 0x100\n  3578: a0 = u64 [a4 + 0x80]\n  3582: a5 = a3 + 0x100\n  3586: u64 [a5 + 0xc8] = a0\n  3590: a0 = u64 [a4 + 0x88]\n  3594: u64 [a5 + 0xd0] = a0\n  3598: a0 = u64 [a4 + 0x90]\n  3602: u64 [a5 + 0xd8] = a0\n  3606: a0 = s1 + 0x1b00\n  3610: a1 = s1 + 0x1ae0\n  3614: a2 = u64 [a4 + 0x98]\n  3618: u64 [a5 + 0xe0] = a2\n  3622: ra = 126, jump @1632\n      : @163 [@dyn 63] (gas: 6)\n  3628: a3 = s1 + 0x1918\n  3632: a4 = u64 [a3 + 0x200]\n  3636: a5 = u64 [a3 + 0x1f8]\n  3640: t0 = u64 [a3 + 0x1f0]\n  3644: t1 = u64 [a3 + 0x1e8]\n  3648: jump @119\n      : @164 (gas: 9)\n  3651: u64 [a2 + 832] = 0\n  3655: u64 [a2 + 824] = 0\n  3659: u64 [a2 + 816] = 0\n  3663: u64 [a2 + 808] = 0\n  3667: a0 = s1 + 0x3000\n  3671: i32 a0 = a0 + 0x440\n  3675: ra = 0x80\n  3679: ecalli 16 // 'value_transferred'\n  3681: fallthrough\n      : @165 [@dyn 64] (gas: 3)\n  3682: a3 = s1 + 0x3118\n  3686: a4 = a3 + 0x300\n  3690: t0 = 130, jump @1843\n      : @166 [@dyn 65] (gas: 1)\n  3697: jump @168 if a0 == 0\n      : @167 (gas: 1)\n  3700: jump @1054\n      : @168 (gas: 1)\n  3703: t0 = 132, jump @1842\n      : @169 [@dyn 66] (gas: 1)\n  3710: jump @171 if a1 <u a0\n      : @170 (gas: 1)\n  3713: jump @1055\n      : @171 (gas: 4)\n  3716: a0 = s1 + 0x3a0\n  3720: ra = 0x86\n  3724: t0 = 0x63c\n  3728: jump @1863\n      : @172 [@dyn 67] (gas: 10)\n  3732: a0 = u64 [s1 + 0x3a0]\n  3736: a1 = u64 [s1 + 0x3a8]\n  3740: a2 = u32 [s1 + 0x3b0]\n  3744: u64 [s1 + 920] = 0\n  3748: u64 [s1 + 0x390] = a2\n  3752: u64 [s1 + 0x388] = a1\n  3756: a1 = s1 + 0x380\n  3760: u64 [s1 + 0x380] = a0\n  3764: a0 = 0\n  3766: ra = 136, jump @24\n      : @173 [@dyn 68] (gas: 7)\n  3772: u64 [s1 + 888] = 0\n  3776: u64 [s1 + 880] = 0\n  3780: u64 [s1 + 864] = 0x1\n  3785: a0 = 0x20\n  3788: a1 = s1 + 0x360\n  3792: u64 [s1 + 872] = 0\n  3796: ra = 138, jump @24\n      : @174 [@dyn 69] (gas: 6)\n  3802: a0 = sp + 0xffffffffffffffe0\n  3805: a0 = a0 & 0xffffffffffffffe0\n  3808: u64 [s1 + 0x178] = a0\n  3812: sp = a0\n  3814: a1 = i32 [0x20180]\n  3819: jump @176 if a1 >u 63\n      : @175 (gas: 4)\n  3823: a1 = 0x40\n  3826: u32 [0x20180] = a1\n  3831: t0 = 0x8c\n  3835: jump @1819\n      : @176 (gas: 1)\n  3839: t0 = 140, jump @1819\n      : @177 [@dyn 70] (gas: 8)\n  3846: a0 = 0x20190\n  3851: i32 a0 = a0 + 0\n  3853: i32 a2 = a2 + 0\n  3855: a1 = 0x40\n  3858: ra = 0x8e\n  3862: ecalli 8 // 'hash_keccak_256'\n  3864: t0 = 0x90\n  3868: jump @1811\n      : @178 [@dyn 71] (gas: 1)\n  3872: t0 = 144, jump @1811\n      : @179 [@dyn 72] (gas: 7)\n  3879: a1 = u64 [s1 + 0x178]\n  3883: u64 [a1 + 0x18] = a0\n  3886: u64 [a1 + 0x10] = a2\n  3889: u64 [a1 + 0x8] = a4\n  3892: u64 [a1] = a5\n  3894: a0 = s1 + 0x340\n  3898: ra = 146, jump @26\n      : @180 [@dyn 73] (gas: 29)\n  3904: a0 = u64 [s1 + 0x358]\n  3908: u64 [s1 + 0x178] = a0\n  3912: a0 = u64 [s1 + 0x350]\n  3916: u64 [s1 + 0x170] = a0\n  3920: a0 = u64 [s1 + 0x348]\n  3924: u64 [s1 + 0x168] = a0\n  3928: a0 = u64 [s1 + 0x340]\n  3932: u64 [s1 + 0x160] = a0\n  3936: a0 = u64 [s1 + 0x188]\n  3940: a0 = a0 + 0x1\n  3943: a1 = a0 <u 0x1\n  3946: a2 = u64 [s1 + 0x190]\n  3950: a1 = a1 + a2\n  3953: a2 = s1 + 0x3118\n  3957: a3 = a2 + 0x300\n  3961: u64 [a3 + 0x50] = a1\n  3964: a1 = a1 | a0\n  3967: u64 [a3 + 0x48] = a0\n  3970: a0 = a1 <u 0x1\n  3973: a1 = u64 [s1 + 0x180]\n  3977: a0 = a0 + a1\n  3980: u64 [a3 + 0x58] = a0\n  3983: a0 = a0 <u a1\n  3986: a1 = u64 [s1 + 0x198]\n  3990: a0 = a0 + a1\n  3993: u64 [a3 + 0x60] = a0\n  3996: a0 = s1 + 0x320\n  4000: a1 = s1 + 0x3460\n  4004: ra = 148, jump @26\n      : @181 [@dyn 74] (gas: 11)\n  4010: a0 = u64 [s1 + 0x338]\n  4014: u64 [s1 + 0x158] = a0\n  4018: a0 = u64 [s1 + 0x330]\n  4022: u64 [s1 + 0x150] = a0\n  4026: a0 = u64 [s1 + 0x328]\n  4030: u64 [s1 + 0x148] = a0\n  4034: a0 = u64 [s1 + 0x320]\n  4038: u64 [s1 + 0x140] = a0\n  4042: a1 = u64 [s1 + 0x188]\n  4046: a0 = a1 + 0x2\n  4049: t0 = 150, jump @1814\n      : @182 [@dyn 75] (gas: 1)\n  4056: t0 = 152, jump @1854\n      : @183 [@dyn 76] (gas: 9)\n  4063: a4 = s1 + 0x3118\n  4067: a5 = a4 + 0x300\n  4071: u64 [a5 + 0x80] = a1\n  4075: u64 [a5 + 0x78] = a3\n  4078: u64 [a5 + 0x70] = a2\n  4081: u64 [a5 + 0x68] = a0\n  4084: a0 = s1 + 0x300\n  4088: a1 = s1 + 0x3480\n  4092: ra = 154, jump @26\n      : @184 [@dyn 77] (gas: 8)\n  4098: a5 = s1 + 0x300\n  4102: a0 = u64 [a5 + 0x18]\n  4105: u64 [s1 + 0x138] = a0\n  4109: a0 = u64 [a5 + 0x10]\n  4112: u64 [s1 + 0x130] = a0\n  4116: a1 = u64 [s1 + 0x188]\n  4120: a0 = a1 + 0x3\n  4123: t0 = 156, jump @1814\n      : @185 [@dyn 78] (gas: 3)\n  4130: a1 = u64 [a5 + 0x8]\n  4133: u64 [s1 + 0x188] = a1\n  4137: t0 = 158, jump @1854\n      : @186 [@dyn 79] (gas: 11)\n  4144: a4 = u64 [a5]\n  4146: u64 [s1 + 0x180] = a4\n  4150: a4 = s1 + 0x3118\n  4154: a5 = a4 + 0x300\n  4158: u64 [a5 + 0xa0] = a1\n  4162: u64 [a5 + 0x98] = a3\n  4166: u64 [a5 + 0x90] = a2\n  4170: u64 [a5 + 0x88] = a0\n  4174: a0 = s1 + 0x2e0\n  4178: a1 = s1 + 0x34a0\n  4182: ra = 160, jump @26\n      : @187 [@dyn 80] (gas: 5)\n  4188: a0 = u64 [s1 + 0x2e0]\n  4192: u64 [s1 + 0x128] = a0\n  4196: a0 = s1 + 0x2c0\n  4200: a1 = 0x40\n  4203: ra = 162, jump @22\n      : @188 [@dyn 81] (gas: 13)\n  4209: a0 = s1 + 0x200\n  4213: a4 = u64 [a0 + 0xd8]\n  4217: a5 = u64 [a0 + 0xd0]\n  4221: a3 = u64 [a0 + 0xc8]\n  4225: a2 = u64 [a0 + 0xc0]\n  4229: a0 = a3 | a4\n  4232: a1 = a2 | a5\n  4235: a1 = a1 | a0\n  4238: a1 = a1 >> 0x20\n  4241: a0 = a0 | a5\n  4244: a0 = a0 << 0x20\n  4247: a0 = a0 | a1\n  4250: jump @190 if a0 == 0\n      : @189 (gas: 1)\n  4253: jump @1045\n      : @190 (gas: 15)\n  4256: a0 = u64 [s1 + 0x160]\n  4260: u64 [s1 + 0x2a0] = a0\n  4264: a0 = u64 [s1 + 0x168]\n  4268: u64 [s1 + 0x2a8] = a0\n  4272: a0 = u64 [s1 + 0x170]\n  4276: u64 [s1 + 0x2b0] = a0\n  4280: a1 = s1 + 0x2a0\n  4284: a0 = u64 [s1 + 0x178]\n  4288: u64 [s1 + 0x2b8] = a0\n  4292: a0 = a2\n  4294: u64 [s1 + 0x198] = a2\n  4298: u64 [s1 + 0x190] = a3\n  4302: u64 [s1 + 0x178] = a4\n  4306: u64 [s1 + 0x170] = a5\n  4310: ra = 164, jump @24\n      : @191 [@dyn 82] (gas: 12)\n  4316: a5 = s1 + 0x100\n  4320: a1 = u64 [a5 + 0x98]\n  4324: a0 = u64 [a5 + 0x78]\n  4327: a3 = u64 [a5 + 0x70]\n  4330: a3 = a3 | a0\n  4333: a4 = 0x100000000\n  4343: a0 = 0xffffffe0\n  4353: a0 = a1 <u a0\n  4356: a2 = u64 [a5 + 0x90]\n  4360: a0 = 0 if a2 != 0\n  4362: a0 = 0 if a3 != 0\n  4364: jump @193 if a0 != 0\n      : @192 (gas: 1)\n  4367: jump @1045\n      : @193 (gas: 14)\n  4370: i32 a0 = a1 + 0x20\n  4373: a1 = u64 [s1 + 0x140]\n  4377: a5 = s1 + 0x200\n  4381: u64 [a5 + 0x80] = a1\n  4385: a1 = u64 [s1 + 0x148]\n  4389: u64 [a5 + 0x88] = a1\n  4393: a1 = u64 [s1 + 0x150]\n  4397: u64 [a5 + 0x90] = a1\n  4401: a1 = s1 + 0x280\n  4405: a2 = u64 [s1 + 0x158]\n  4409: u64 [a5 + 0x98] = a2\n  4413: u64 [s1 + 0x178] = a3\n  4417: u64 [s1 + 0x170] = a4\n  4421: ra = 166, jump @24\n      : @194 [@dyn 83] (gas: 10)\n  4427: a2 = s1 + 0x100\n  4431: a4 = u64 [a2 + 0x78]\n  4434: a3 = u64 [a2 + 0x90]\n  4438: a1 = u64 [a2 + 0x98]\n  4442: a0 = u64 [a2 + 0x70]\n  4445: a0 = a0 + 0xffffffffffffffc0\n  4448: a0 = a1 <u a0\n  4451: a0 = 0 if a3 != 0\n  4453: a0 = 0 if a4 != 0\n  4455: jump @196 if a0 != 0\n      : @195 (gas: 1)\n  4458: jump @1045\n      : @196 (gas: 12)\n  4461: i32 a0 = a1 + 0x40\n  4464: a1 = u64 [s1 + 0x180]\n  4468: a3 = s1 + 0x200\n  4472: u64 [a3 + 0x60] = a1\n  4475: a1 = u64 [s1 + 0x188]\n  4479: u64 [a3 + 0x68] = a1\n  4482: a1 = u64 [s1 + 0x130]\n  4486: u64 [a3 + 0x70] = a1\n  4489: a1 = s1 + 0x260\n  4493: a2 = u64 [s1 + 0x138]\n  4497: u64 [a3 + 0x78] = a2\n  4500: ra = 168, jump @24\n      : @197 [@dyn 84] (gas: 9)\n  4506: a3 = s1 + 0x100\n  4510: a2 = u64 [a3 + 0x98]\n  4514: a0 = 0xffffffa0\n  4524: a0 = a2 <u a0\n  4527: a1 = u64 [a3 + 0x90]\n  4531: a0 = 0 if a1 != 0\n  4533: a1 = u64 [a3 + 0x78]\n  4536: a0 = 0 if a1 != 0\n  4538: jump @199 if a0 != 0\n      : @198 (gas: 1)\n  4541: jump @1045\n      : @199 (gas: 11)\n  4544: a0 = u64 [s1 + 0x128]\n  4548: a0 = a0 << 0x20\n  4551: a1 = a0 >> 0x20\n  4554: i32 a0 = a2 + 0x60\n  4557: u64 [s1 + 600] = 0\n  4561: u64 [s1 + 592] = 0\n  4565: u64 [s1 + 0x240] = a1\n  4569: a1 = s1 + 0x240\n  4573: u64 [s1 + 584] = 0\n  4577: ra = 0x166\n  4581: jump @24\n      : @200 (gas: 10)\n  4584: a0 = s1 + 0x3918\n  4588: u64 [a0 + 64] = 0\n  4591: u64 [a0 + 56] = 0\n  4594: u64 [a0 + 48] = 0\n  4597: u64 [a0 + 40] = 0\n  4600: a0 = s1 + 0x4000\n  4604: i32 a0 = a0 + 0xfffffffffffff940\n  4608: ra = 0xaa\n  4612: ecalli 16 // 'value_transferred'\n  4614: fallthrough\n      : @201 [@dyn 85] (gas: 9)\n  4615: a3 = s1 + 0x3918\n  4619: a0 = u64 [a3 + 0x38]\n  4622: a1 = u64 [a3 + 0x40]\n  4625: a2 = u64 [a3 + 0x30]\n  4628: a3 = u64 [a3 + 0x28]\n  4631: a1 = a1 | a2\n  4634: a0 = a0 | a3\n  4637: a0 = a0 | a1\n  4640: jump @203 if a0 == 0\n      : @202 (gas: 1)\n  4643: jump @1056\n      : @203 (gas: 1)\n  4646: t0 = 172, jump @1842\n      : @204 [@dyn 86] (gas: 1)\n  4653: jump @206 if a1 <u a0\n      : @205 (gas: 1)\n  4656: jump @1057\n      : @206 (gas: 5)\n  4659: a0 = s1 + 0x4000\n  4663: i32 a0 = a0 + 0xfffffffffffff960\n  4667: a1 = 0x4\n  4670: ecalli 2 // 'call_data_load'\n  4672: fallthrough\n      : @207 (gas: 14)\n  4673: a0 = s1 + 0x3918\n  4677: a1 = u64 [a0 + 0x60]\n  4680: a2 = u64 [a0 + 0x58]\n  4683: a3 = u64 [a0 + 0x50]\n  4686: a4 = u64 [a0 + 0x48]\n  4689: a5 = s1 + 0x100\n  4693: u64 [a5 + 0x80] = a1\n  4697: u64 [a5 + 0x98] = a3\n  4701: a0 = a3 | a1\n  4704: u64 [a5 + 0x78] = a2\n  4707: u64 [a5 + 0x90] = a4\n  4711: a1 = a4 | a2\n  4714: a0 = a0 | a1\n  4717: jump @209 if a0 != 0\n      : @208 (gas: 1)\n  4720: jump @1058\n      : @209 (gas: 9)\n  4723: a0 = 0x30190\n  4728: u64 [s1 + 0x170] = a0\n  4732: i32 a0 = a0 + 0\n  4734: u64 [s1 + 0x158] = a0\n  4738: ra = 0xae\n  4742: ecalli 4 // 'caller'\n  4744: a2 = u64 [s1 + 0x170]\n  4748: t0 = 0xb0\n  4752: jump @1787\n      : @210 [@dyn 87] (gas: 2)\n  4756: a2 = u64 [s1 + 0x170]\n  4760: t0 = 176, jump @1787\n      : @211 [@dyn 88] (gas: 8)\n  4767: u64 [a2 + 0] = 0\n  4769: a4 = a2 + 0xffffffffffffff00\n  4773: u64 [a4 + 0xf8] = a1\n  4777: u64 [a4 + 0xf0] = a0\n  4781: a1 = s1 + 0x2100\n  4785: u64 [a4 + 0xe8] = a3\n  4789: a0 = 0\n  4791: ra = 178, jump @24\n      : @212 [@dyn 89] (gas: 8)\n  4797: a2 = s1 + 0x1918\n  4801: u64 [a2 + 2016] = 0\n  4805: u64 [a2 + 2008] = 0\n  4809: u64 [a2 + 1992] = 0x1\n  4814: a0 = 0x20\n  4817: a1 = s1 + 0x20e0\n  4821: u64 [a2 + 2000] = 0\n  4825: ra = 180, jump @24\n      : @213 [@dyn 90] (gas: 7)\n  4831: a0 = sp + 0xffffffffffffffe0\n  4834: a0 = a0 & 0xffffffffffffffe0\n  4837: u64 [s1 + 0x188] = a0\n  4841: sp = a0\n  4843: a2 = 0x20180\n  4848: a0 = i32 [0x20180]\n  4853: jump @215 if a0 >u 63\n      : @214 (gas: 2)\n  4857: u32 [0x20180] = 0x40\n  4863: fallthrough\n      : @215 (gas: 15)\n  4864: u64 [s1 + 0x150] = a2\n  4868: a0 = sp + 0xffffffffffffffe0\n  4871: a2 = a0 & 0xffffffffffffffe0\n  4874: u64 [s1 + 0x168] = a2\n  4878: sp = a2\n  4880: a0 = 0x20190\n  4885: i32 a0 = a0 + 0\n  4887: i32 a2 = a2 + 0\n  4889: a1 = 0x40\n  4892: u64 [s1 + 0x160] = a0\n  4896: ra = 0xb6\n  4900: ecalli 8 // 'hash_keccak_256'\n  4902: a3 = u64 [s1 + 0x168]\n  4906: t0 = 0xb8\n  4910: jump @1870\n      : @216 [@dyn 91] (gas: 2)\n  4914: a3 = u64 [s1 + 0x168]\n  4918: t0 = 184, jump @1870\n      : @217 [@dyn 92] (gas: 26)\n  4925: a5 = reverse a1\n  4927: a2 = reverse a2\n  4929: t0 = reverse a3\n  4931: a4 = u64 [s1 + 0x188]\n  4935: u64 [a4 + 0x18] = t0\n  4938: u64 [a4 + 0x10] = a2\n  4941: u64 [a4 + 0x8] = a5\n  4944: u64 [a4] = a0\n  4946: a4 = sp + 0xffffffffffffffe0\n  4949: a1 = a4 & 0xffffffffffffffe0\n  4952: sp = a1\n  4954: a4 = a0 + 0x2\n  4957: a0 = a4 <u a0\n  4960: a3 = a5 + a0\n  4963: a5 = a3 <u a5\n  4966: a5 = a0 if a0 == 0\n  4969: a5 = a5 + a2\n  4972: a0 = a5 <u a2\n  4975: a0 = a0 + t0\n  4978: u64 [a1 + 0x10] = a5\n  4981: u64 [a1 + 0x8] = a3\n  4984: u64 [a1] = a4\n  4986: u64 [a1 + 0x18] = a0\n  4989: a0 = s1 + 0x20c0\n  4993: u64 [s1 + 0x168] = a1\n  4997: ra = 186, jump @26\n      : @218 [@dyn 93] (gas: 21)\n  5003: a0 = s1 + 0x1918\n  5007: t0 = u64 [a0 + 0x7c0]\n  5011: a1 = u64 [a0 + 0x7b0]\n  5015: t2 = u64 [a0 + 0x7b8]\n  5019: t1 = u64 [a0 + 0x7a8]\n  5023: ra = u64 [s1 + 0x180]\n  5027: a0 = t0 ^ ra\n  5030: a2 = u64 [s1 + 0x198]\n  5034: a5 = a1 ^ a2\n  5037: a3 = a1 <u a2\n  5040: a2 = u64 [s1 + 0x190]\n  5044: a2 = t1 <u a2\n  5047: a2 = a3 if a5 != 0\n  5050: a3 = t0 <u ra\n  5053: a4 = u64 [s1 + 0x178]\n  5057: a5 = t2 <u a4\n  5060: a5 = a3 if a0 != 0\n  5063: a3 = t2 ^ a4\n  5066: a3 = a3 | a0\n  5069: a2 = a5 if a3 != 0\n  5072: jump @220 if a2 == 0\n      : @219 (gas: 1)\n  5075: jump @1062\n      : @220 (gas: 17)\n  5078: a2 = s1 + 0x1918\n  5082: a0 = u64 [s1 + 0x190]\n  5086: a3 = a2 + 0x700\n  5090: u64 [a3 + 0x48] = a0\n  5093: u64 [a2 + 0x768] = t1\n  5097: a0 = u64 [s1 + 0x198]\n  5101: u64 [a3 + 0x50] = a0\n  5104: u64 [a3 + 0x70] = a1\n  5107: u64 [a3 + 0x58] = a4\n  5110: u64 [a2 + 0x778] = t2\n  5114: u64 [a2 + 0x760] = ra\n  5118: a3 = a2\n  5120: a0 = s1 + 0x20a0\n  5124: a1 = s1 + 0x2080\n  5128: a2 = s1 + 0x2060\n  5132: u64 [a3 + 0x780] = t0\n  5136: ra = 188, jump @1599\n      : @221 [@dyn 94] (gas: 14)\n  5143: a3 = s1 + 0x1918\n  5147: a4 = a3 + 0x700\n  5151: a0 = u64 [a4 + 0xa0]\n  5155: a1 = u64 [a4 + 0x98]\n  5159: a2 = u64 [a4 + 0x90]\n  5163: a3 = u64 [a4 + 0x88]\n  5167: a4 = s1 + 0x3918\n  5171: u64 [a4 + 0x80] = a0\n  5175: u64 [a4 + 0x78] = a1\n  5178: u64 [a4 + 0x70] = a2\n  5181: u64 [a4 + 0x68] = a3\n  5184: a1 = s1 + 0x3980\n  5188: a0 = u64 [s1 + 0x168]\n  5192: ra = 190, jump @28\n      : @222 [@dyn 95] (gas: 3)\n  5198: a0 = s1 + 0x2040\n  5202: a1 = u64 [s1 + 0x188]\n  5206: ra = 192, jump @26\n      : @223 [@dyn 96] (gas: 22)\n  5212: a4 = s1 + 0x1918\n  5216: a3 = u64 [a4 + 0x728]\n  5220: a0 = u64 [a4 + 0x730]\n  5224: a1 = u64 [a4 + 0x738]\n  5228: a2 = u64 [a4 + 0x740]\n  5232: a5 = u64 [s1 + 0x180]\n  5236: u64 [a4 + 0x6e0] = a5\n  5240: a5 = u64 [s1 + 0x178]\n  5244: u64 [a4 + 0x6d8] = a5\n  5248: a5 = u64 [s1 + 0x198]\n  5252: u64 [a4 + 0x6d0] = a5\n  5256: a5 = u64 [s1 + 0x190]\n  5260: u64 [a4 + 0x6c8] = a5\n  5264: u64 [a4 + 0x700] = a2\n  5268: a5 = a4 + 0x600\n  5272: u64 [a5 + 0xf8] = a1\n  5276: u64 [a5 + 0xf0] = a0\n  5280: a0 = s1 + 0x2020\n  5284: a1 = s1 + 0x2000\n  5288: a2 = s1 + 0x1fe0\n  5292: u64 [a5 + 0xe8] = a3\n  5296: ra = 194, jump @1640\n      : @224 [@dyn 97] (gas: 14)\n  5303: a3 = s1 + 0x1918\n  5307: a4 = a3 + 0x700\n  5311: a0 = u64 [a4 + 0x20]\n  5314: a1 = u64 [a4 + 0x18]\n  5317: a2 = u64 [a4 + 0x10]\n  5320: a3 = u64 [a4 + 0x8]\n  5323: a4 = s1 + 0x3918\n  5327: u64 [a4 + 0xa0] = a0\n  5331: u64 [a4 + 0x98] = a1\n  5335: u64 [a4 + 0x90] = a2\n  5339: u64 [a4 + 0x88] = a3\n  5343: a1 = s1 + 0x39a0\n  5347: a0 = u64 [s1 + 0x188]\n  5351: ra = 196, jump @28\n      : @225 [@dyn 98] (gas: 3)\n  5357: a0 = s1 + 0x1fc0\n  5361: a1 = 0x40\n  5364: ra = 198, jump @22\n      : @226 [@dyn 99] (gas: 7)\n  5370: a4 = s1 + 0x1918\n  5374: a5 = a4 + 0x600\n  5378: a0 = u64 [a5 + 0xc0]\n  5382: a1 = u64 [a5 + 0xb8]\n  5386: a2 = u64 [a5 + 0xb0]\n  5390: a3 = u64 [a5 + 0xa8]\n  5394: t0 = 200, jump @1809\n      : @227 [@dyn 100] (gas: 1)\n  5401: jump @229 if a0 == 0\n      : @228 (gas: 1)\n  5404: jump @1045\n      : @229 (gas: 13)\n  5407: a0 = u64 [s1 + 0x190]\n  5411: a2 = a4 + 0x600\n  5415: u64 [a2 + 0x88] = a0\n  5419: a0 = u64 [s1 + 0x198]\n  5423: u64 [a2 + 0x90] = a0\n  5427: a0 = u64 [s1 + 0x178]\n  5431: u64 [a2 + 0x98] = a0\n  5435: a1 = s1 + 0x1fa0\n  5439: a0 = u64 [s1 + 0x180]\n  5443: u64 [a2 + 0xa0] = a0\n  5447: a0 = a3\n  5449: u64 [s1 + 0x198] = a3\n  5453: ra = 202, jump @24\n      : @230 [@dyn 101] (gas: 6)\n  5459: a0 = u64 [s1 + 0x158]\n  5463: ra = 0xcc\n  5467: ecalli 4 // 'caller'\n  5469: a2 = u64 [s1 + 0x170]\n  5473: t0 = 0xce\n  5477: jump @1795\n      : @231 [@dyn 102] (gas: 2)\n  5481: a2 = u64 [s1 + 0x170]\n  5485: t0 = 206, jump @1795\n      : @232 [@dyn 103] (gas: 26)\n  5492: t0 = a1 | a0\n  5495: a3 = a3 >> 0x20\n  5498: a2 = reverse a2\n  5500: a1 = a2 << 0x20\n  5503: a1 = a1 | a3\n  5506: a2 = a2 >> 0x20\n  5509: a3 = u64 [0x20080]\n  5514: a0 = s1 + 0x1918\n  5518: u64 [a0 + 0x680] = a3\n  5522: a3 = u64 [0x20088]\n  5527: a4 = u64 [0x20090]\n  5532: a5 = u64 [0x20098]\n  5537: u64 [a0 + 0x678] = a3\n  5541: a3 = a0 + 0x600\n  5545: u64 [a3 + 0x70] = a4\n  5548: u64 [a0 + 1632] = 0\n  5552: u64 [a3 + 0x68] = a5\n  5555: u64 [a3 + 0x58] = a2\n  5558: u64 [a3 + 0x50] = a1\n  5561: a1 = 0x20\n  5564: a2 = s1 + 0x1f80\n  5568: a3 = s1 + 0x1f60\n  5572: u64 [a0 + 0x648] = t0\n  5576: a0 = u64 [s1 + 0x198]\n  5580: ra = 0x10a\n  5584: jump @29\n      : @233 (gas: 9)\n  5587: u64 [a2 + 960] = 0\n  5591: u64 [a2 + 952] = 0\n  5595: u64 [a2 + 944] = 0\n  5599: u64 [a2 + 936] = 0\n  5603: a0 = s1 + 0x3000\n  5607: i32 a0 = a0 + 0x4c0\n  5611: ra = 0xd0\n  5615: ecalli 16 // 'value_transferred'\n  5617: fallthrough\n      : @234 [@dyn 104] (gas: 3)\n  5618: a3 = s1 + 0x3118\n  5622: a4 = a3 + 0x300\n  5626: t0 = 210, jump @1869\n      : @235 [@dyn 105] (gas: 1)\n  5633: jump @237 if a0 == 0\n      : @236 (gas: 1)\n  5636: jump @1066\n      : @237 (gas: 3)\n  5639: a0 = u64 [s1 + 0x198]\n  5643: a0 = i32 [a0]\n  5645: jump @239 if a0 >u 3\n      : @238 (gas: 1)\n  5649: jump @1067\n      : @239 (gas: 17)\n  5652: a0 = s1 + 0x3000\n  5656: i32 a0 = a0 + 0x4e0\n  5660: ecalli 9 // 'now'\n  5662: a0 = s1 + 0x3118\n  5666: a2 = a0 + 0x300\n  5670: a1 = u64 [a2 + 0xe0]\n  5674: a3 = s1 + 0x100\n  5678: u64 [a3 + 0x58] = a1\n  5681: a1 = u64 [a2 + 0xd8]\n  5685: u64 [a3 + 0x50] = a1\n  5688: a1 = u64 [a2 + 0xd0]\n  5692: u64 [a3 + 0x98] = a1\n  5696: a0 = u64 [a2 + 0xc8]\n  5700: u64 [a3 + 0x90] = a0\n  5704: a0 = s1 + 0x3e0\n  5708: a1 = 0x40\n  5711: ra = 212, jump @22\n      : @240 [@dyn 106] (gas: 6)\n  5717: a4 = s1 + 0x300\n  5721: a0 = u64 [a4 + 0xf8]\n  5725: a1 = u64 [a4 + 0xf0]\n  5729: a2 = u64 [a4 + 0xe8]\n  5733: a3 = u64 [a4 + 0xe0]\n  5737: t0 = 214, jump @1809\n      : @241 [@dyn 107] (gas: 1)\n  5744: jump @243 if a0 == 0\n      : @242 (gas: 1)\n  5747: jump @1045\n      : @243 (gas: 46)\n  5750: u64 [s1 + 0x118] = a3\n  5754: t1 = u64 [s1 + 0x150]\n  5758: a0 = clz t1\n  5760: a0 = a0 + 0x40\n  5763: ra = u64 [s1 + 0x158]\n  5767: a2 = clz ra\n  5769: a2 = a0 if ra == 0\n  5772: t2 = u64 [s1 + 0x190]\n  5776: a0 = clz t2\n  5778: a0 = a0 + 0x40\n  5781: t0 = u64 [s1 + 0x198]\n  5785: a1 = clz t0\n  5787: a1 = a0 if t0 == 0\n  5790: a0 = a1 + 0x80\n  5794: a3 = t1 | ra\n  5797: a2 = a0 if a3 == 0\n  5800: a5 = a0 <u a1\n  5803: a5 = 0 if a3 != 0\n  5805: a4 = a5 >u 0\n  5807: a0 = a2 <u 0xf0\n  5811: a3 = a0 ^ 0x1\n  5814: a4 = a3 if a5 == 0\n  5817: a0 = a4 <u 0x1\n  5820: a0 = a0 + 0xffffffffffffffff\n  5823: a1 = -a4\n  5825: a5 = -a5\n  5827: a3 = a5 - a3\n  5830: a2 = 0xef - a2\n  5834: u64 [s1 + 0x178] = a1\n  5838: a5 = a1 >u 0\n  5840: a1 = a0 >u 0\n  5842: a1 = a5 if a0 == 0\n  5845: a5 = a3 >u 0\n  5847: u64 [s1 + 0x168] = a2\n  5851: a2 = a2 <u 0x100\n  5855: a2 = a2 ^ 0x1\n  5858: a2 = a5 if a3 != 0\n  5861: a2 = a1 if a4 != 0\n  5864: a1 = t2 | t1\n  5867: a4 = t0 | ra\n  5870: a1 = a1 | a4\n  5873: a1 = a1 <u 0x1\n  5876: a1 = a1 | a2\n  5879: a4 = t2\n  5881: a4 = 0 if a1 != 0\n  5883: jump @245 if a1 == 0\n      : @244 (gas: 1)\n  5886: jump @1142\n      : @245 (gas: 7)\n  5889: a1 = u64 [s1 + 0x168]\n  5893: a1 = a1 ^ 0xff\n  5897: a2 = u64 [s1 + 0x178]\n  5901: a1 = a1 | a2\n  5904: a2 = a3 | a0\n  5907: a1 = a1 | a2\n  5910: jump @247 if a1 != 0\n      : @246 (gas: 1)\n  5913: jump @1142\n      : @247 (gas: 20)\n  5916: a4 = u64 [s1 + 0x168]\n  5920: a2 = a4 + 0x1\n  5923: u64 [s1 + 0x188] = a2\n  5927: a1 = a2 <u 0x1\n  5930: a1 = a1 + a3\n  5933: u64 [s1 + 0x180] = a1\n  5937: a1 = a1 | a2\n  5940: a1 = a1 <u 0x1\n  5943: a3 = u64 [s1 + 0x178]\n  5947: a1 = a1 + a3\n  5950: u64 [s1 + 0x170] = a1\n  5954: a1 = a1 <u a3\n  5957: a0 = a0 + a1\n  5960: u64 [s1 + 0x178] = a0\n  5964: a1 = 0xff - a4\n  5968: u64 [s1 + 0x140] = a1\n  5972: a2 = 0x80 - a1\n  5976: a0 = u64 [s1 + 0x190]\n  5980: a1 = u64 [s1 + 0x198]\n  5984: ra = 216, jump @1877\n      : @248 [@dyn 108] (gas: 6)\n  5991: u64 [s1 + 0x130] = a0\n  5995: u64 [s1 + 0x148] = a1\n  5999: a0 = u64 [s1 + 0x150]\n  6003: a1 = u64 [s1 + 0x158]\n  6007: a2 = u64 [s1 + 0x140]\n  6011: ra = 218, jump @1882\n      : @249 [@dyn 109] (gas: 7)\n  6018: u64 [s1 + 0x128] = a0\n  6022: u64 [s1 + 0x120] = a1\n  6026: a0 = u64 [s1 + 0x140]\n  6030: a2 = a0 + 0xffffffffffffff80\n  6033: a0 = u64 [s1 + 0x190]\n  6037: a1 = u64 [s1 + 0x198]\n  6041: ra = 220, jump @1882\n      : @250 [@dyn 110] (gas: 8)\n  6048: u64 [s1 + 0x110] = a0\n  6052: u64 [s1 + 0x108] = a1\n  6056: a2 = u64 [s1 + 0x140]\n  6060: a0 = a2 <u 0x80\n  6064: u64 [s1 + 0x138] = a0\n  6068: a0 = u64 [s1 + 0x190]\n  6072: a1 = u64 [s1 + 0x198]\n  6076: ra = 222, jump @1882\n      : @251 [@dyn 111] (gas: 13)\n  6083: a4 = s1 + 0x100\n  6087: u64 [a4 + 0x60] = a1\n  6090: a1 = u64 [a4 + 0x80]\n  6094: a2 = u64 [a4 + 0x78]\n  6097: a2 = a2 | a1\n  6100: a1 = u64 [a4 + 0x88]\n  6104: a3 = u64 [a4 + 0x70]\n  6107: a1 = a1 | a3\n  6110: a1 = a1 | a2\n  6113: a3 = u64 [a4 + 0x38]\n  6116: a0 = 0 if a3 == 0\n  6118: u64 [a4 + 0x68] = a0\n  6121: jump @253 if a1 != 0\n      : @252 (gas: 1)\n  6124: jump @1140\n      : @253 (gas: 30)\n  6127: a2 = a3\n  6129: a0 = u64 [s1 + 0x148]\n  6133: a1 = u64 [s1 + 0x120]\n  6137: a0 = a0 | a1\n  6140: a5 = a3\n  6142: a1 = u64 [s1 + 0x108]\n  6146: a0 = a1 if a2 == 0\n  6149: a2 = u64 [s1 + 0x158]\n  6153: a3 = a2\n  6155: a1 = a2\n  6157: a2 = u64 [s1 + 0x140]\n  6161: a3 = a0 if a2 != 0\n  6164: u64 [s1 + 0x148] = a3\n  6168: a0 = u64 [s1 + 0x130]\n  6172: a3 = u64 [s1 + 0x128]\n  6176: a0 = a0 | a3\n  6179: a3 = u64 [s1 + 0x110]\n  6183: a0 = a3 if a5 == 0\n  6186: a4 = u64 [s1 + 0x150]\n  6190: a3 = a4\n  6192: a3 = a0 if a2 != 0\n  6195: u64 [s1 + 0x140] = a3\n  6199: a0 = u64 [s1 + 0x160]\n  6203: a0 = 0 if a5 == 0\n  6205: u64 [s1 + 0x160] = a0\n  6209: u64 [s1 + 304] = 0x15180\n  6216: a0 = u64 [s1 + 0x188]\n  6220: a2 = a0 + 0xffffffffffffff80\n  6223: a0 = a4\n  6225: ra = 224, jump @1877\n      : @254 [@dyn 112] (gas: 6)\n  6232: u64 [s1 + 0x138] = a0\n  6236: u64 [s1 + 0x120] = a1\n  6240: a0 = u64 [s1 + 0x190]\n  6244: a1 = u64 [s1 + 0x198]\n  6248: a2 = u64 [s1 + 0x188]\n  6252: ra = 226, jump @1877\n      : @255 [@dyn 113] (gas: 7)\n  6259: u64 [s1 + 0x110] = a0\n  6263: u64 [s1 + 0x128] = a1\n  6267: a1 = u64 [s1 + 0x188]\n  6271: a2 = 0x80 - a1\n  6275: a0 = u64 [s1 + 0x150]\n  6279: a1 = u64 [s1 + 0x158]\n  6283: ra = 228, jump @1882\n      : @256 [@dyn 114] (gas: 20)\n  6290: a2 = u64 [s1 + 0x128]\n  6294: a1 = a1 | a2\n  6297: a2 = u64 [s1 + 0x188]\n  6301: a3 = a2 <u 0x80\n  6305: u64 [s1 + 0x128] = a3\n  6309: a4 = u64 [s1 + 0x120]\n  6313: a1 = a4 if a3 == 0\n  6316: a4 = u64 [s1 + 0x198]\n  6320: a4 = a1 if a2 != 0\n  6323: u64 [s1 + 0x198] = a4\n  6327: a1 = u64 [s1 + 0x110]\n  6331: a0 = a0 | a1\n  6334: a1 = u64 [s1 + 0x138]\n  6338: a0 = a1 if a3 == 0\n  6341: a1 = u64 [s1 + 0x190]\n  6345: a1 = a0 if a2 != 0\n  6348: u64 [s1 + 0x190] = a1\n  6352: a0 = u64 [s1 + 0x150]\n  6356: a1 = u64 [s1 + 0x158]\n  6360: ra = 230, jump @1877\n      : @257 [@dyn 115] (gas: 16)\n  6367: t2 = u64 [s1 + 0x190]\n  6371: t1 = u64 [s1 + 0x198]\n  6375: u64 [s1 + 344] = 0\n  6379: u64 [s1 + 336] = 0\n  6383: a4 = s1 + 0x100\n  6387: a2 = u64 [a4 + 0x28]\n  6390: a1 = 0 if a2 == 0\n  6392: a0 = 0 if a2 == 0\n  6394: u64 [a4 + 0x38] = a0\n  6397: a3 = u64 [a4 + 0x30]\n  6400: a2 = a3 + 0xffffffffffffffff\n  6403: u64 [a4 + 0x28] = a2\n  6406: a2 = a3 >u 0\n  6408: a2 = a2 + 0xffffffffffffffff\n  6411: u64 [a4 + 0x20] = a2\n  6414: fallthrough\n      : @258 (gas: 89)\n  6415: a2 = t2 >> 0x3f\n  6418: a3 = t1 << 0x1\n  6421: a2 = a2 | a3\n  6424: a3 = t2 << 0x1\n  6427: t2 = u64 [s1 + 0x148]\n  6431: a4 = t2 >> 0x3f\n  6434: a3 = a3 | a4\n  6437: u64 [s1 + 0x198] = a3\n  6441: ra = u64 [s1 + 0x120]\n  6445: a0 = t1\n  6447: t1 = ra ^ a2\n  6450: t0 = ra <u a2\n  6453: a4 = u64 [s1 + 0x128]\n  6457: a5 = a4 <u a3\n  6460: a5 = t0 if t1 != 0\n  6463: a1 = a1 << 0x1\n  6466: a4 = u64 [s1 + 0x138]\n  6470: a3 = a4 >> 0x3f\n  6473: a1 = a1 | a3\n  6476: u64 [s1 + 0x190] = a1\n  6480: a3 = a0 >> 0x3f\n  6483: a0 = a4 << 0x1\n  6486: a3 = a3 | a0\n  6489: a0 = t2 << 0x1\n  6492: a4 = u64 [s1 + 0x140]\n  6496: a1 = a4 >> 0x3f\n  6499: t0 = a0 | a1\n  6502: a1 = a4 << 0x1\n  6505: a4 = u64 [s1 + 0x160]\n  6509: t1 = a4 >> 0x3f\n  6512: t1 = a1 | t1\n  6515: a1 = a4 << 0x1\n  6518: a4 = u64 [s1 + 0x168]\n  6522: t2 = a4 >> 0x3f\n  6525: a1 = a1 | t2\n  6528: a4 = a4 << 0x1\n  6531: a0 = u64 [s1 + 0x158]\n  6535: a4 = a4 | a0\n  6538: u64 [s1 + 0x168] = a4\n  6542: a0 = u64 [s1 + 0x150]\n  6546: a1 = a1 | a0\n  6549: u64 [s1 + 0x160] = a1\n  6553: a1 = a0 | t1\n  6556: u64 [s1 + 0x140] = a1\n  6560: a0 = a0 | t0\n  6563: u64 [s1 + 0x148] = a0\n  6567: a0 = ra - a3\n  6570: a0 = a0 <u a5\n  6573: a1 = ra <u a3\n  6576: a5 = u64 [s1 + 0x190]\n  6580: a4 = ra - a5\n  6583: a4 = a4 - a1\n  6586: a4 = a4 - a0\n  6589: ra = a4 >>a 0x3f\n  6592: a0 = u64 [s1 + 0x130]\n  6596: a0 = ra & a0\n  6599: a1 = u64 [s1 + 0x198]\n  6603: t2 = a1 - a0\n  6606: a1 = a1 <u a0\n  6609: t1 = a2 - a1\n  6612: a1 = 0 if a2 != 0\n  6614: a0 = a3 - a1\n  6617: u64 [s1 + 0x138] = a0\n  6621: a1 = a3 <u a1\n  6624: a1 = a5 - a1\n  6627: a0 = s1 + 0x100\n  6631: a3 = u64 [a0 + 0x88]\n  6635: a5 = u64 [a0 + 0x80]\n  6639: a2 = a3 | a5\n  6642: a2 = a2 <u 0x1\n  6645: a4 = u64 [a0 + 0x70]\n  6648: t0 = a4 <u a2\n  6651: a2 = a4 - a2\n  6654: a4 = a3 <u 0x1\n  6657: a5 = a5 - a4\n  6660: a4 = u64 [a0 + 0x78]\n  6663: a4 = a4 - t0\n  6666: a3 = a3 + 0xffffffffffffffff\n  6669: u64 [a0 + 0x80] = a5\n  6673: u64 [a0 + 0x78] = a4\n  6676: t0 = a5 | a4\n  6679: u64 [a0 + 0x88] = a3\n  6683: a4 = a3 | a2\n  6686: a3 = a4 | t0\n  6689: a4 = ra & 0x1\n  6692: u64 [a0 + 0x58] = a4\n  6695: u64 [a0 + 0x70] = a2\n  6698: u64 [s1 + 336] = 0\n  6702: jump @258 if a3 != 0\n      : @259 (gas: 1)\n  6706: jump @1141\n      : @260 (gas: 3)\n  6709: a0 = u64 [s1 + 0x198]\n  6713: a0 = i32 [a0]\n  6715: jump @262 if a0 >u 3\n      : @261 (gas: 1)\n  6719: jump @1068\n      : @262 (gas: 10)\n  6722: a0 = s1 + 0x3918\n  6726: u64 [a0 + 1088] = 0\n  6730: u64 [a0 + 1080] = 0\n  6734: u64 [a0 + 1072] = 0\n  6738: u64 [a0 + 1064] = 0\n  6742: a0 = s1 + 0x4000\n  6746: i32 a0 = a0 + 0xfffffffffffffd40\n  6750: ra = 0xe8\n  6754: ecalli 16 // 'value_transferred'\n  6756: fallthrough\n      : @263 [@dyn 116] (gas: 3)\n  6757: a3 = s1 + 0x3918\n  6761: a4 = a3 + 0x400\n  6765: t0 = 234, jump @1843\n      : @264 [@dyn 117] (gas: 1)\n  6772: jump @266 if a0 != 0\n      : @265 (gas: 1)\n  6775: jump @1069\n      : @266 (gas: 9)\n  6778: a0 = 0x30190\n  6783: u64 [s1 + 0x190] = a0\n  6787: i32 a0 = a0 + 0\n  6789: u64 [s1 + 0x168] = a0\n  6793: ra = 0xec\n  6797: ecalli 4 // 'caller'\n  6799: a2 = u64 [s1 + 0x190]\n  6803: t0 = 0xee\n  6807: jump @1812\n      : @267 [@dyn 118] (gas: 2)\n  6811: a2 = u64 [s1 + 0x190]\n  6815: t0 = 238, jump @1812\n      : @268 [@dyn 119] (gas: 8)\n  6822: u64 [a2 + 672] = 0\n  6826: a4 = a2 + 0x200\n  6830: u64 [a4 + 0x98] = a1\n  6834: u64 [a4 + 0x90] = a0\n  6838: a1 = s1 + 0x33a0\n  6842: u64 [a4 + 0x88] = a3\n  6846: a0 = 0\n  6848: ra = 240, jump @24\n      : @269 [@dyn 120] (gas: 9)\n  6854: a1 = s1 + 0x3118\n  6858: u64 [a1 + 640] = 0\n  6862: u64 [a1 + 632] = 0\n  6866: u64 [a1 + 616] = 0x1\n  6871: a2 = a1\n  6873: a0 = 0x20\n  6876: a1 = s1 + 0x3380\n  6880: u64 [a2 + 624] = 0\n  6884: ra = 242, jump @24\n      : @270 [@dyn 121] (gas: 6)\n  6890: a0 = sp + 0xffffffffffffffe0\n  6893: a0 = a0 & 0xffffffffffffffe0\n  6896: u64 [s1 + 0x198] = a0\n  6900: sp = a0\n  6902: a1 = i32 [0x20180]\n  6907: jump @272 if a1 >u 63\n      : @271 (gas: 2)\n  6911: u32 [0x20180] = 0x40\n  6917: fallthrough\n      : @272 (gas: 14)\n  6918: a0 = sp + 0xffffffffffffffe0\n  6921: a2 = a0 & 0xffffffffffffffe0\n  6924: u64 [s1 + 0x188] = a2\n  6928: sp = a2\n  6930: a0 = 0x20190\n  6935: i32 a0 = a0 + 0\n  6937: i32 a2 = a2 + 0\n  6939: a1 = 0x40\n  6942: u64 [s1 + 0x160] = a0\n  6946: ra = 0xf4\n  6950: ecalli 8 // 'hash_keccak_256'\n  6952: a3 = u64 [s1 + 0x188]\n  6956: t0 = 0xf6\n  6960: jump @1825\n      : @273 [@dyn 122] (gas: 2)\n  6964: a3 = u64 [s1 + 0x188]\n  6968: t0 = 246, jump @1825\n      : @274 [@dyn 123] (gas: 21)\n  6975: a0 = s1 + 0x3918\n  6979: u64 [a0 + 1120] = 0\n  6983: u64 [a0 + 1112] = 0\n  6987: u64 [a0 + 1104] = 0\n  6991: u64 [a0 + 1096] = 0\n  6995: a0 = s1 + 0x4000\n  6999: i32 a0 = a0 + 0xfffffffffffffd60\n  7003: ecalli 16 // 'value_transferred'\n  7005: a0 = s1 + 0x3918\n  7009: a2 = a0 + 0x400\n  7013: a1 = u64 [a2 + 0x48]\n  7016: u64 [s1 + 0x188] = a1\n  7020: a1 = u64 [a2 + 0x50]\n  7023: u64 [s1 + 0x180] = a1\n  7027: a1 = u64 [a2 + 0x58]\n  7030: u64 [s1 + 0x178] = a1\n  7034: a0 = u64 [a2 + 0x60]\n  7037: u64 [s1 + 0x170] = a0\n  7041: a0 = s1 + 0x3360\n  7045: a1 = u64 [s1 + 0x198]\n  7049: ra = 248, jump @26\n      : @275 [@dyn 124] (gas: 22)\n  7055: a4 = s1 + 0x3118\n  7059: a3 = u64 [a4 + 0x248]\n  7063: a0 = u64 [a4 + 0x250]\n  7067: a1 = u64 [a4 + 0x258]\n  7071: a2 = u64 [a4 + 0x260]\n  7075: a5 = u64 [s1 + 0x170]\n  7079: u64 [a4 + 0x200] = a5\n  7083: a5 = u64 [s1 + 0x178]\n  7087: u64 [a4 + 0x1f8] = a5\n  7091: a5 = u64 [s1 + 0x180]\n  7095: u64 [a4 + 0x1f0] = a5\n  7099: a5 = u64 [s1 + 0x188]\n  7103: u64 [a4 + 0x1e8] = a5\n  7107: a5 = a4 + 0x200\n  7111: u64 [a5 + 0x20] = a2\n  7114: u64 [a5 + 0x18] = a1\n  7117: u64 [a5 + 0x10] = a0\n  7120: a0 = s1 + 0x3340\n  7124: a1 = s1 + 0x3320\n  7128: a2 = s1 + 0x3300\n  7132: u64 [a5 + 0x8] = a3\n  7135: ra = 250, jump @1640\n      : @276 [@dyn 125] (gas: 15)\n  7142: a3 = s1 + 0x3118\n  7146: a4 = a3 + 0x200\n  7150: a0 = u64 [a4 + 0x40]\n  7153: a1 = u64 [a4 + 0x38]\n  7156: a2 = u64 [a4 + 0x30]\n  7159: a3 = u64 [a4 + 0x28]\n  7162: a4 = s1 + 0x3918\n  7166: a5 = a4 + 0x400\n  7170: u64 [a5 + 0x80] = a0\n  7174: u64 [a5 + 0x78] = a1\n  7177: u64 [a5 + 0x70] = a2\n  7180: u64 [a5 + 0x68] = a3\n  7183: a1 = s1 + 0x3d80\n  7187: a0 = u64 [s1 + 0x198]\n  7191: ra = 252, jump @28\n      : @277 [@dyn 126] (gas: 3)\n  7197: a0 = s1 + 0x32e0\n  7201: a1 = 0x40\n  7204: ra = 254, jump @22\n      : @278 [@dyn 127] (gas: 20)\n  7210: a0 = s1 + 0x3118\n  7214: a2 = a0 + 0x100\n  7218: a1 = u64 [a2 + 0xe0]\n  7222: u64 [s1 + 0x188] = a1\n  7226: a1 = u64 [a2 + 0xd8]\n  7230: u64 [s1 + 0x180] = a1\n  7234: a1 = u64 [a2 + 0xd0]\n  7238: u64 [s1 + 0x178] = a1\n  7242: a0 = u64 [a2 + 0xc8]\n  7246: u64 [s1 + 0x198] = a0\n  7250: a0 = s1 + 0x3918\n  7254: u64 [a0 + 1184] = 0\n  7258: u64 [a0 + 1176] = 0\n  7262: u64 [a0 + 1168] = 0\n  7266: u64 [a0 + 1160] = 0\n  7270: a0 = s1 + 0x4000\n  7274: i32 a0 = a0 + 0xfffffffffffffda0\n  7278: ra = 0x100\n  7282: ecalli 16 // 'value_transferred'\n  7284: fallthrough\n      : @279 [@dyn 128] (gas: 8)\n  7285: a3 = s1 + 0x100\n  7289: a0 = u64 [a3 + 0x88]\n  7293: a1 = u64 [a3 + 0x78]\n  7296: a0 = a0 | a1\n  7299: a1 = u64 [a3 + 0x98]\n  7303: a5 = a1\n  7305: a2 = u64 [a3 + 0x80]\n  7309: t0 = 258, jump @1834\n      : @280 [@dyn 129] (gas: 1)\n  7316: jump @282 if a0 == 0\n      : @281 (gas: 1)\n  7319: jump @1045\n      : @282 (gas: 15)\n  7322: a3 = s1 + 0x3918\n  7326: a4 = a3 + 0x400\n  7330: a0 = u64 [a4 + 0x88]\n  7334: a1 = u64 [a4 + 0x90]\n  7338: a2 = u64 [a4 + 0x98]\n  7342: a3 = u64 [a4 + 0xa0]\n  7346: a4 = s1 + 0x3118\n  7350: u64 [a4 + 0x1c0] = a3\n  7354: a3 = a4 + 0x100\n  7358: u64 [a3 + 0xb8] = a2\n  7362: u64 [a3 + 0xb0] = a1\n  7366: a1 = s1 + 0x32c0\n  7370: u64 [a3 + 0xa8] = a0\n  7374: a0 = a5\n  7376: ra = 260, jump @24\n      : @283 [@dyn 130] (gas: 6)\n  7382: a0 = u64 [s1 + 0x168]\n  7386: ra = 0x106\n  7390: ecalli 4 // 'caller'\n  7392: a2 = u64 [s1 + 0x190]\n  7396: t0 = 0x108\n  7400: jump @1795\n      : @284 [@dyn 131] (gas: 2)\n  7404: a2 = u64 [s1 + 0x190]\n  7408: t0 = 264, jump @1795\n      : @285 [@dyn 132] (gas: 25)\n  7415: t0 = a1 | a0\n  7418: a3 = a3 >> 0x20\n  7421: a2 = reverse a2\n  7423: a1 = a2 << 0x20\n  7426: a1 = a1 | a3\n  7429: a2 = a2 >> 0x20\n  7432: a3 = u64 [0x20000]\n  7437: a0 = s1 + 0x3118\n  7441: u64 [a0 + 0x1a0] = a3\n  7445: a3 = u64 [0x20008]\n  7450: a4 = u64 [0x20010]\n  7455: a5 = u64 [0x20018]\n  7460: u64 [a0 + 0x198] = a3\n  7464: a3 = a0 + 0x100\n  7468: u64 [a3 + 0x90] = a4\n  7472: u64 [a0 + 384] = 0\n  7476: u64 [a3 + 0x88] = a5\n  7480: u64 [a3 + 0x78] = a2\n  7483: u64 [a3 + 0x70] = a1\n  7486: a1 = 0x20\n  7489: a2 = s1 + 0x32a0\n  7493: a3 = s1 + 0x3280\n  7497: u64 [a0 + 0x168] = t0\n  7501: a0 = u64 [s1 + 0x198]\n  7505: ra = 266, jump @29\n      : @286 [@dyn 133] (gas: 7)\n  7511: a0 = 0\n  7513: a1 = u64 [s1 + 0x160]\n  7517: a2 = 0\n  7519: ra = 0x4ee\n  7523: ecalli 13 // 'seal_return'\n  7525: t0 = 0x4f0\n  7529: jump @1842\n      : @287 (gas: 9)\n  7533: u64 [a2 + 1664] = 0\n  7537: u64 [a2 + 1656] = 0\n  7541: u64 [a2 + 1648] = 0\n  7545: u64 [a2 + 1640] = 0\n  7549: a0 = s1 + 0x3000\n  7553: i32 a0 = a0 + 0x780\n  7557: ra = 0x10c\n  7561: ecalli 16 // 'value_transferred'\n  7563: fallthrough\n      : @288 [@dyn 134] (gas: 10)\n  7564: a3 = s1 + 0x3118\n  7568: a4 = a3 + 0x600\n  7572: a0 = u64 [a4 + 0x78]\n  7575: a1 = u64 [a4 + 0x80]\n  7579: a2 = u64 [a4 + 0x70]\n  7582: a3 = u64 [a4 + 0x68]\n  7585: a1 = a1 | a2\n  7588: a0 = a0 | a3\n  7591: a0 = a0 | a1\n  7594: jump @290 if a0 == 0\n      : @289 (gas: 1)\n  7597: jump @1073\n      : @290 (gas: 1)\n  7600: t0 = 270, jump @1842\n      : @291 [@dyn 135] (gas: 1)\n  7607: jump @293 if a1 <u a0\n      : @292 (gas: 1)\n  7610: jump @1074\n      : @293 (gas: 5)\n  7613: a0 = s1 + 0x3000\n  7617: i32 a0 = a0 + 0x7a0\n  7621: a1 = 0x4\n  7624: ecalli 2 // 'call_data_load'\n  7626: fallthrough\n      : @294 (gas: 9)\n  7627: a3 = s1 + 0x3118\n  7631: a4 = a3 + 0x600\n  7635: a0 = u64 [a4 + 0xa0]\n  7639: a1 = u64 [a4 + 0x98]\n  7643: a2 = u64 [a4 + 0x90]\n  7647: a0 = a0 | a1\n  7650: a1 = a2 <u 0x1\n  7653: a1 = 0 if a0 != 0\n  7655: jump @296 if a1 != 0\n      : @295 (gas: 1)\n  7658: jump @1075\n      : @296 (gas: 6)\n  7661: a0 = u64 [a3 + 0x688]\n  7665: u64 [s1 + 0x120] = a0\n  7669: a0 = s1 + 0x3000\n  7673: i32 a0 = a0 + 0x7c0\n  7677: ecalli 9 // 'now'\n  7679: fallthrough\n      : @297 (gas: 49)\n  7680: a0 = s1 + 0x3118\n  7684: t2 = u64 [a0 + 0x6c0]\n  7688: a3 = u64 [a0 + 0x6b8]\n  7692: u64 [s1 + 0x150] = a3\n  7696: t0 = u64 [a0 + 0x6b0]\n  7700: ra = u64 [a0 + 0x6a8]\n  7704: a0 = clz t2\n  7706: a1 = clz a3\n  7708: a2 = a1 + 0x40\n  7711: a2 = a0 if t2 != 0\n  7714: a0 = clz t0\n  7716: a1 = clz ra\n  7718: a1 = a1 + 0x40\n  7721: a1 = a0 if t0 != 0\n  7724: a0 = a1 + 0x80\n  7728: a3 = a3 | t2\n  7731: a2 = a0 if a3 == 0\n  7734: a5 = a0 <u a1\n  7737: a5 = 0 if a3 != 0\n  7739: a4 = a5 >u 0\n  7741: a0 = a2 <u 0xf0\n  7745: a3 = a0 ^ 0x1\n  7748: a4 = a3 if a5 == 0\n  7751: a0 = a4 <u 0x1\n  7754: a0 = a0 + 0xffffffffffffffff\n  7757: a1 = -a4\n  7759: a5 = -a5\n  7761: a3 = a5 - a3\n  7764: t1 = 0xef - a2\n  7768: u64 [s1 + 0x198] = a1\n  7772: a5 = a1 >u 0\n  7774: a1 = a0 >u 0\n  7776: a1 = a5 if a0 == 0\n  7779: a5 = t1 <u 0x100\n  7783: a5 = a5 ^ 0x1\n  7786: a2 = a3 >u 0\n  7788: a5 = a2 if a3 != 0\n  7791: a5 = a1 if a4 != 0\n  7794: u64 [s1 + 0x140] = t2\n  7798: u64 [s1 + 0x158] = t0\n  7802: a1 = t0 | t2\n  7805: t2 = u64 [s1 + 0x150]\n  7809: a2 = ra | t2\n  7812: a1 = a1 | a2\n  7815: a1 = a1 <u 0x1\n  7818: a1 = a1 | a5\n  7821: a4 = ra\n  7823: a4 = 0 if a1 != 0\n  7825: jump @299 if a1 == 0\n      : @298 (gas: 1)\n  7828: jump @688\n      : @299 (gas: 6)\n  7831: a1 = t1 ^ 0xff\n  7835: a5 = u64 [s1 + 0x198]\n  7839: a1 = a1 | a5\n  7842: a2 = a3 | a0\n  7845: a1 = a1 | a2\n  7848: jump @301 if a1 != 0\n      : @300 (gas: 1)\n  7851: jump @688\n      : @301 (gas: 20)\n  7854: t0 = ra\n  7856: a2 = t1 + 0x1\n  7859: u64 [s1 + 0x190] = a2\n  7863: a1 = a2 <u 0x1\n  7866: a1 = a1 + a3\n  7869: u64 [s1 + 0x180] = a1\n  7873: a1 = a1 | a2\n  7876: a1 = a1 <u 0x1\n  7879: a1 = a1 + a5\n  7882: u64 [s1 + 0x170] = a1\n  7886: a1 = a1 <u a5\n  7889: a0 = a0 + a1\n  7892: u64 [s1 + 0x178] = a0\n  7896: a1 = 0xff - t1\n  7900: u64 [s1 + 0x168] = a1\n  7904: a2 = 0x80 - a1\n  7908: a0 = ra\n  7910: u64 [s1 + 0x148] = t0\n  7914: a1 = u64 [s1 + 0x158]\n  7918: ra = 272, jump @1877\n      : @302 [@dyn 136] (gas: 1)\n  7925: t0 = 274, jump @1867\n      : @303 [@dyn 137] (gas: 1)\n  7932: ra = 276, jump @1882\n      : @304 [@dyn 138] (gas: 7)\n  7939: u64 [s1 + 0x130] = a0\n  7943: u64 [s1 + 0x128] = a1\n  7947: a0 = u64 [s1 + 0x168]\n  7951: a2 = a0 + 0xffffffffffffff80\n  7954: a0 = u64 [s1 + 0x148]\n  7958: a1 = u64 [s1 + 0x158]\n  7962: ra = 278, jump @1882\n      : @305 [@dyn 139] (gas: 1)\n  7969: t0 = 280, jump @1873\n      : @306 [@dyn 140] (gas: 3)\n  7976: a0 = u64 [s1 + 0x148]\n  7980: a1 = u64 [s1 + 0x158]\n  7984: ra = 282, jump @1882\n      : @307 [@dyn 141] (gas: 11)\n  7991: a4 = u64 [s1 + 0x138]\n  7995: t0 = u64 [s1 + 0x170]\n  7999: a5 = u64 [s1 + 0x178]\n  8003: a2 = u64 [s1 + 0x180]\n  8007: a5 = a5 | a2\n  8010: a3 = u64 [s1 + 0x190]\n  8014: a3 = a3 | t0\n  8017: a3 = a3 | a5\n  8020: a0 = 0 if a4 == 0\n  8022: u64 [s1 + 0x188] = a0\n  8026: jump @309 if a3 == 0\n      : @308 (gas: 1)\n  8029: jump @675\n      : @309 (gas: 2)\n  8032: a4 = 0\n  8034: jump @687\n      : @310 (gas: 9)\n  8037: u64 [a2 + 1408] = 0\n  8041: u64 [a2 + 1400] = 0\n  8045: u64 [a2 + 1392] = 0\n  8049: u64 [a2 + 1384] = 0\n  8053: a0 = s1 + 0x3000\n  8057: i32 a0 = a0 + 0x680\n  8061: ra = 0x11c\n  8065: ecalli 16 // 'value_transferred'\n  8067: fallthrough\n      : @311 [@dyn 142] (gas: 10)\n  8068: a3 = s1 + 0x3118\n  8072: a4 = a3 + 0x500\n  8076: a0 = u64 [a4 + 0x78]\n  8079: a1 = u64 [a4 + 0x80]\n  8083: a2 = u64 [a4 + 0x70]\n  8086: a3 = u64 [a4 + 0x68]\n  8089: a1 = a1 | a2\n  8092: a0 = a0 | a3\n  8095: a0 = a0 | a1\n  8098: jump @313 if a0 == 0\n      : @312 (gas: 1)\n  8101: jump @1076\n      : @313 (gas: 1)\n  8104: t0 = 286, jump @1842\n      : @314 [@dyn 143] (gas: 1)\n  8111: jump @316 if a1 <u a0\n      : @315 (gas: 1)\n  8114: jump @1077\n      : @316 (gas: 5)\n  8117: a0 = s1 + 0x7ff\n  8121: a0 = a0 + 0x2c1\n  8125: ra = 0x120\n  8129: t0 = 0x63c\n  8133: jump @1863\n      : @317 [@dyn 144] (gas: 13)\n  8137: a1 = s1 + 0x7ff\n  8141: a1 = a1 + 0x111\n  8145: a2 = a1 + 0x100\n  8149: a0 = u64 [a2 + 0xc0]\n  8153: u64 [s1 + 0x168] = a0\n  8157: a0 = u64 [a2 + 0xb8]\n  8161: u64 [s1 + 0x170] = a0\n  8165: a0 = u64 [a2 + 0xb0]\n  8169: u64 [s1 + 0x178] = a0\n  8173: a0 = s1 + 0x7ff\n  8177: a0 = a0 + 0x2a1\n  8181: a1 = 0x40\n  8184: ra = 290, jump @22\n      : @318 [@dyn 145] (gas: 21)\n  8190: a0 = s1 + 0x7ff\n  8194: a0 = a0 + 0x111\n  8198: a5 = a0 + 0x100\n  8202: a1 = u64 [a5 + 0xa8]\n  8206: u64 [s1 + 0x188] = a1\n  8210: a2 = u64 [a5 + 0xa0]\n  8214: u64 [s1 + 0x180] = a2\n  8218: a4 = u64 [a5 + 0x98]\n  8222: u64 [s1 + 0x190] = a4\n  8226: a3 = u64 [a5 + 0x90]\n  8230: u64 [s1 + 0x198] = a3\n  8234: u64 [a5 + 0x88] = a1\n  8238: u64 [a5 + 0x80] = a2\n  8242: u64 [a5 + 0x78] = a4\n  8245: a1 = a0\n  8247: a0 = s1 + 0x7ff\n  8251: a0 = a0 + 0x281\n  8255: u64 [a1 + 0x170] = a3\n  8259: ra = 0x124\n  8263: t0 = 0x674\n  8267: jump @1831\n      : @319 [@dyn 146] (gas: 7)\n  8271: a3 = s1 + 0x100\n  8275: a0 = u64 [a3 + 0x88]\n  8279: a1 = u64 [a3 + 0x90]\n  8283: a0 = a0 | a1\n  8286: a2 = u64 [a3 + 0x80]\n  8290: a1 = u64 [a3 + 0x98]\n  8294: t0 = 294, jump @1834\n      : @320 [@dyn 147] (gas: 1)\n  8301: jump @322 if a0 == 0\n      : @321 (gas: 1)\n  8304: jump @1045\n      : @322 (gas: 10)\n  8307: a0 = s1 + 0x7ff\n  8311: a0 = a0 + 0x111\n  8315: u64 [a0 + 360] = 0\n  8319: u64 [a0 + 352] = 0\n  8323: u64 [a0 + 344] = 0\n  8327: a1 = s1 + 0x7ff\n  8331: a1 = a1 + 0x261\n  8335: u64 [a0 + 336] = 0\n  8339: a0 = u64 [s1 + 0x198]\n  8343: ra = 296, jump @24\n      : @323 [@dyn 148] (gas: 12)\n  8349: a4 = s1 + 0x100\n  8353: a0 = u64 [a4 + 0x88]\n  8357: a2 = u64 [a4 + 0x80]\n  8361: a2 = a2 | a0\n  8364: a3 = 0x100000000\n  8374: a0 = 0xffffffe0\n  8384: a1 = u64 [a4 + 0x98]\n  8388: a0 = a1 <u a0\n  8391: a1 = u64 [a4 + 0x90]\n  8395: a0 = 0 if a1 != 0\n  8397: a0 = 0 if a2 != 0\n  8399: jump @325 if a0 != 0\n      : @324 (gas: 1)\n  8402: jump @1045\n      : @325 (gas: 14)\n  8405: a0 = u64 [s1 + 0x198]\n  8409: i32 a0 = a0 + 0x20\n  8412: a1 = s1 + 0x7ff\n  8416: a1 = a1 + 0x111\n  8420: u64 [s1 + 0x188] = a2\n  8424: a2 = a1\n  8426: u64 [a1 + 328] = 0\n  8430: u64 [a1 + 320] = 0\n  8434: u64 [a1 + 312] = 0\n  8438: a1 = s1 + 0x7ff\n  8442: a1 = a1 + 0x241\n  8446: u64 [a2 + 304] = 0\n  8450: u64 [s1 + 0x180] = a3\n  8454: ra = 298, jump @24\n      : @326 [@dyn 149] (gas: 10)\n  8460: a3 = s1 + 0x100\n  8464: a2 = u64 [a3 + 0x88]\n  8468: a0 = u64 [a3 + 0x80]\n  8472: a0 = a0 + 0xffffffffffffffc0\n  8475: a1 = u64 [a3 + 0x98]\n  8479: a0 = a1 <u a0\n  8482: a1 = u64 [a3 + 0x90]\n  8486: a0 = 0 if a1 != 0\n  8488: a0 = 0 if a2 != 0\n  8490: jump @328 if a0 != 0\n      : @327 (gas: 1)\n  8493: jump @1045\n      : @328 (gas: 11)\n  8496: a0 = u64 [s1 + 0x198]\n  8500: i32 a0 = a0 + 0x40\n  8503: a2 = s1 + 0x7ff\n  8507: a2 = a2 + 0x111\n  8511: u64 [a2 + 296] = 0\n  8515: u64 [a2 + 288] = 0\n  8519: u64 [a2 + 280] = 0\n  8523: a1 = s1 + 0x7ff\n  8527: a1 = a1 + 0x221\n  8531: u64 [a2 + 272] = 0\n  8535: ra = 300, jump @24\n      : @329 [@dyn 150] (gas: 1)\n  8541: t0 = 302, jump @1852\n      : @330 [@dyn 151] (gas: 3)\n  8548: a1 = u64 [a2 + 0x88]\n  8552: a0 = 0 if a1 != 0\n  8554: jump @332 if a0 != 0\n      : @331 (gas: 1)\n  8557: jump @1045\n      : @332 (gas: 11)\n  8560: a0 = u64 [s1 + 0x198]\n  8564: i32 a0 = a0 + 0x60\n  8567: a2 = s1 + 0x7ff\n  8571: a2 = a2 + 0x111\n  8575: u64 [a2 + 264] = 0\n  8579: u64 [a2 + 256] = 0\n  8583: u64 [a2 + 248] = 0\n  8587: a1 = s1 + 0x7ff\n  8591: a1 = a1 + 0x201\n  8595: u64 [a2 + 240] = 0\n  8599: ra = 304, jump @24\n      : @333 [@dyn 152] (gas: 15)\n  8605: a0 = u64 [s1 + 0x168]\n  8609: a0 = a0 << 0x20\n  8612: a0 = a0 >> 0x20\n  8615: a2 = s1 + 0x7ff\n  8619: a2 = a2 + 0x111\n  8623: u64 [a2 + 232] = 0\n  8627: a1 = u64 [s1 + 0x170]\n  8631: u64 [a2 + 0xd8] = a1\n  8635: a1 = u64 [s1 + 0x178]\n  8639: u64 [a2 + 0xd0] = a1\n  8643: a1 = s1 + 0x7ff\n  8647: a1 = a1 + 0x1e1\n  8651: u64 [a2 + 0xe0] = a0\n  8655: a0 = 0\n  8657: ra = 306, jump @24\n      : @334 [@dyn 153] (gas: 11)\n  8663: a1 = s1 + 0x7ff\n  8667: a1 = a1 + 0x111\n  8671: u64 [a1 + 200] = 0\n  8675: u64 [a1 + 192] = 0\n  8679: u64 [a1 + 176] = 0x1\n  8684: a2 = a1\n  8686: a0 = 0x20\n  8689: a1 = s1 + 0x7ff\n  8693: a1 = a1 + 0x1c1\n  8697: u64 [a2 + 184] = 0\n  8701: ra = 308, jump @24\n      : @335 [@dyn 154] (gas: 6)\n  8707: a0 = sp + 0xffffffffffffffe0\n  8710: a0 = a0 & 0xffffffffffffffe0\n  8713: u64 [s1 + 0x190] = a0\n  8717: sp = a0\n  8719: a1 = i32 [0x20180]\n  8724: jump @337 if a1 >u 63\n      : @336 (gas: 4)\n  8728: a1 = 0x40\n  8731: u32 [0x20180] = a1\n  8736: t0 = 0x136\n  8740: jump @1819\n      : @337 (gas: 1)\n  8744: t0 = 310, jump @1819\n      : @338 [@dyn 155] (gas: 9)\n  8751: a0 = 0x20190\n  8756: i32 a0 = a0 + 0\n  8758: i32 a2 = a2 + 0\n  8760: a1 = 0x40\n  8763: ra = 0x138\n  8767: ecalli 8 // 'hash_keccak_256'\n  8769: a3 = u64 [s1 + 0x198]\n  8773: t0 = 0x13a\n  8777: jump @1871\n      : @339 [@dyn 156] (gas: 2)\n  8781: a3 = u64 [s1 + 0x198]\n  8785: t0 = 314, jump @1871\n      : @340 [@dyn 157] (gas: 14)\n  8792: a1 = reverse a3\n  8794: u64 [s1 + 0x168] = a1\n  8798: a2 = u64 [s1 + 0x190]\n  8802: u64 [a2 + 0x18] = a1\n  8805: u64 [s1 + 0x170] = a0\n  8809: u64 [a2 + 0x10] = a0\n  8812: u64 [s1 + 0x160] = a4\n  8816: u64 [a2 + 0x8] = a4\n  8819: u64 [s1 + 0x158] = a5\n  8823: u64 [a2] = a5\n  8825: a0 = s1 + 0x7ff\n  8829: a0 = a0 + 0x1a1\n  8833: a1 = 0x40\n  8836: ra = 316, jump @22\n      : @341 [@dyn 158] (gas: 19)\n  8842: a1 = s1 + 0x7ff\n  8846: a1 = a1 + 0x111\n  8850: a0 = u64 [a1 + 0xa8]\n  8854: u64 [s1 + 0x180] = a0\n  8858: a2 = u64 [a1 + 0xa0]\n  8862: u64 [s1 + 0x178] = a2\n  8866: a4 = u64 [a1 + 0x98]\n  8870: u64 [s1 + 0x188] = a4\n  8874: a3 = u64 [a1 + 0x90]\n  8878: u64 [s1 + 0x198] = a3\n  8882: u64 [a1 + 0x88] = a0\n  8886: u64 [a1 + 0x80] = a2\n  8890: u64 [a1 + 0x78] = a4\n  8893: a0 = s1 + 0x7ff\n  8897: a0 = a0 + 0x181\n  8901: u64 [a1 + 0x70] = a3\n  8904: ra = 0x13e\n  8908: t0 = 0x674\n  8912: jump @1831\n      : @342 [@dyn 159] (gas: 4)\n  8916: a0 = s1 + 0x7ff\n  8920: a0 = a0 + 0x161\n  8924: a1 = u64 [s1 + 0x190]\n  8928: ra = 320, jump @26\n      : @343 [@dyn 160] (gas: 7)\n  8934: a3 = s1 + 0x100\n  8938: a0 = u64 [a3 + 0x80]\n  8942: a1 = u64 [a3 + 0x88]\n  8946: a0 = a0 | a1\n  8949: a2 = u64 [a3 + 0x78]\n  8952: a1 = u64 [a3 + 0x98]\n  8956: t0 = 322, jump @1834\n      : @344 [@dyn 161] (gas: 1)\n  8963: jump @346 if a0 == 0\n      : @345 (gas: 1)\n  8966: jump @1045\n      : @346 (gas: 18)\n  8969: a4 = s1 + 0x7ff\n  8973: a4 = a4 + 0x111\n  8977: a0 = u64 [a4 + 0x68]\n  8980: a1 = u64 [a4 + 0x60]\n  8983: a2 = u64 [a4 + 0x58]\n  8986: a3 = u64 [a4 + 0x50]\n  8989: u64 [s1 + 0x138] = a3\n  8993: u64 [a4 + 0x30] = a3\n  8996: u64 [s1 + 0x140] = a2\n  9000: u64 [a4 + 0x38] = a2\n  9003: u64 [s1 + 0x148] = a1\n  9007: u64 [a4 + 0x40] = a1\n  9010: a1 = s1 + 0x7ff\n  9014: a1 = a1 + 0x141\n  9018: u64 [s1 + 0x150] = a0\n  9022: u64 [a4 + 0x48] = a0\n  9025: a0 = u64 [s1 + 0x198]\n  9029: ra = 324, jump @24\n      : @347 [@dyn 162] (gas: 22)\n  9035: a0 = u64 [s1 + 0x158]\n  9039: a0 = a0 + 0x1\n  9042: a1 = a0 <u 0x1\n  9045: a2 = u64 [s1 + 0x160]\n  9049: a1 = a1 + a2\n  9052: a2 = a0 | a1\n  9055: a2 = a2 <u 0x1\n  9058: a3 = u64 [s1 + 0x170]\n  9062: a2 = a2 + a3\n  9065: a3 = a2 <u a3\n  9068: a4 = u64 [s1 + 0x168]\n  9072: a3 = a3 + a4\n  9075: a4 = s1 + 0x3118\n  9079: a5 = a4 + 0x500\n  9083: u64 [a5 + 0x90] = a1\n  9087: u64 [a5 + 0x88] = a0\n  9091: u64 [a5 + 0x98] = a2\n  9095: u64 [a5 + 0xa0] = a3\n  9099: a0 = s1 + 0x7ff\n  9103: a0 = a0 + 0x121\n  9107: a1 = s1 + 0x36a0\n  9111: ra = 326, jump @26\n      : @348 [@dyn 163] (gas: 12)\n  9117: a4 = s1 + 0x100\n  9121: a0 = u64 [a4 + 0x80]\n  9125: a2 = u64 [a4 + 0x78]\n  9128: a2 = a2 | a0\n  9131: a3 = 0x100000000\n  9141: a0 = 0xffffffe0\n  9151: a1 = u64 [a4 + 0x98]\n  9155: a0 = a1 <u a0\n  9158: a1 = u64 [a4 + 0x88]\n  9162: a0 = 0 if a1 != 0\n  9164: a0 = 0 if a2 != 0\n  9166: jump @350 if a0 != 0\n      : @349 (gas: 1)\n  9169: jump @1045\n      : @350 (gas: 20)\n  9172: a5 = s1 + 0x7ff\n  9176: a5 = a5 + 0x111\n  9180: t0 = u64 [a5 + 0x28]\n  9183: a1 = u64 [a5 + 0x20]\n  9186: u64 [s1 + 0x190] = a2\n  9190: a2 = u64 [a5 + 0x18]\n  9193: u64 [s1 + 0x180] = a3\n  9197: a3 = u64 [a5 + 0x10]\n  9200: a0 = u64 [s1 + 0x198]\n  9204: i32 a0 = a0 + 0x20\n  9207: a4 = s1 + 0x1000\n  9211: u64 [a4 + 0xfffffffffffff900] = a3\n  9215: a3 = s1 + 0x1000\n  9219: u64 [a3 + 0xfffffffffffff908] = a2\n  9223: u64 [a5] = a1\n  9225: a1 = s1 + 0x7ff\n  9229: a1 = a1 + 0x101\n  9233: u64 [a5 + 0x8] = t0\n  9236: u64 [s1 + 0x178] = a0\n  9240: ra = 328, jump @24\n      : @351 [@dyn 164] (gas: 3)\n  9246: a1 = u64 [s1 + 0x158]\n  9250: a0 = a1 + 0x2\n  9253: t0 = 330, jump @1808\n      : @352 [@dyn 165] (gas: 8)\n  9260: u64 [a5 + 0xb0] = a2\n  9264: u64 [a5 + 0xa8] = a0\n  9268: u64 [a5 + 0xb8] = a3\n  9272: u64 [a5 + 0xc0] = a1\n  9276: a0 = s1 + 0x7ff\n  9280: a0 = a0 + 0xe1\n  9284: a1 = s1 + 0x36c0\n  9288: ra = 332, jump @26\n      : @353 [@dyn 166] (gas: 10)\n  9294: a3 = s1 + 0x100\n  9298: a2 = u64 [a3 + 0x90]\n  9302: a0 = u64 [a3 + 0x80]\n  9306: a0 = a0 + 0xffffffffffffffc0\n  9309: a1 = u64 [a3 + 0x98]\n  9313: a0 = a1 <u a0\n  9316: a1 = u64 [a3 + 0x88]\n  9320: a0 = 0 if a1 != 0\n  9322: a0 = 0 if a2 != 0\n  9324: jump @355 if a0 != 0\n      : @354 (gas: 1)\n  9327: jump @1045\n      : @355 (gas: 22)\n  9330: a0 = s1 + 0x1000\n  9334: a4 = u64 [a0 + 0xfffffffffffff8f8]\n  9338: a0 = s1 + 0x1000\n  9342: a1 = u64 [a0 + 0xfffffffffffff8f0]\n  9346: a0 = s1 + 0x1000\n  9350: a2 = u64 [a0 + 0xfffffffffffff8e8]\n  9354: a0 = s1 + 0x1000\n  9358: a3 = u64 [a0 + 0xfffffffffffff8e0]\n  9362: a0 = u64 [s1 + 0x198]\n  9366: i32 a0 = a0 + 0x40\n  9369: a5 = s1 + 0x1000\n  9373: u64 [a5 + 0xfffffffffffff8c0] = a3\n  9377: a3 = s1 + 0x1000\n  9381: u64 [a3 + 0xfffffffffffff8c8] = a2\n  9385: a2 = s1 + 0x1000\n  9389: u64 [a2 + 0xfffffffffffff8d0] = a1\n  9393: a1 = s1 + 0x7ff\n  9397: a1 = a1 + 0xc1\n  9401: a2 = s1 + 0x1000\n  9405: u64 [a2 + 0xfffffffffffff8d8] = a4\n  9409: u64 [s1 + 0x180] = a0\n  9413: ra = 334, jump @24\n      : @356 [@dyn 167] (gas: 3)\n  9419: a1 = u64 [s1 + 0x158]\n  9423: a0 = a1 + 0x3\n  9426: t0 = 336, jump @1808\n      : @357 [@dyn 168] (gas: 8)\n  9433: u64 [a5 + 0xd0] = a2\n  9437: u64 [a5 + 0xc8] = a0\n  9441: u64 [a5 + 0xd8] = a3\n  9445: u64 [a5 + 0xe0] = a1\n  9449: a0 = s1 + 0x7ff\n  9453: a0 = a0 + 0xa1\n  9457: a1 = s1 + 0x36e0\n  9461: ra = 338, jump @26\n      : @358 [@dyn 169] (gas: 9)\n  9467: a0 = 0xffffffa0\n  9477: a2 = s1 + 0x100\n  9481: a1 = u64 [a2 + 0x98]\n  9485: a0 = a1 <u a0\n  9488: a1 = u64 [a2 + 0x88]\n  9492: a0 = 0 if a1 != 0\n  9494: a1 = u64 [a2 + 0x90]\n  9498: a0 = 0 if a1 != 0\n  9500: jump @360 if a0 != 0\n      : @359 (gas: 1)\n  9503: jump @1045\n      : @360 (gas: 18)\n  9506: a0 = s1 + 0x1000\n  9510: a0 = u64 [a0 + 0xfffffffffffff8a0]\n  9514: a0 = a0 << 0x20\n  9517: a2 = a0 >> 0x20\n  9520: a1 = u64 [s1 + 0x198]\n  9524: i32 a0 = a1 + 0x60\n  9527: a1 = s1 + 0x1000\n  9531: u64 [a1 + 4294965400] = 0\n  9535: a1 = s1 + 0x1000\n  9539: u64 [a1 + 4294965392] = 0\n  9543: a1 = s1 + 0x1000\n  9547: u64 [a1 + 4294965384] = 0\n  9551: a1 = s1 + 0x7ff\n  9555: a1 = a1 + 0x81\n  9559: a3 = s1 + 0x1000\n  9563: u64 [a3 + 0xfffffffffffff880] = a2\n  9567: u64 [s1 + 0x188] = a0\n  9571: ra = 340, jump @24\n      : @361 [@dyn 170] (gas: 4)\n  9577: a0 = s1 + 0x7ff\n  9581: a0 = a0 + 0x61\n  9584: a1 = 0x40\n  9587: ra = 342, jump @22\n      : @362 [@dyn 171] (gas: 18)\n  9593: a0 = s1 + 0x1000\n  9597: a2 = u64 [a0 + 0xfffffffffffff878]\n  9601: a0 = s1 + 0x1000\n  9605: a3 = u64 [a0 + 0xfffffffffffff870]\n  9609: a0 = s1 + 0x1000\n  9613: a0 = u64 [a0 + 0xfffffffffffff868]\n  9617: a1 = s1 + 0x1000\n  9621: a1 = u64 [a1 + 0xfffffffffffff860]\n  9625: u64 [s1 + 0x190] = a0\n  9629: a0 = a0 | a2\n  9632: u64 [s1 + 0x198] = a1\n  9636: a1 = a1 | a3\n  9639: a1 = a1 | a0\n  9642: a1 = a1 >> 0x20\n  9645: a0 = a0 | a3\n  9648: a0 = a0 << 0x20\n  9651: a0 = a0 | a1\n  9654: jump @364 if a0 == 0\n      : @363 (gas: 1)\n  9657: jump @1045\n      : @364 (gas: 18)\n  9660: a0 = u64 [s1 + 0x138]\n  9664: a1 = s1 + 0x1000\n  9668: u64 [a1 + 0xfffffffffffff840] = a0\n  9672: a0 = u64 [s1 + 0x140]\n  9676: a1 = s1 + 0x1000\n  9680: u64 [a1 + 0xfffffffffffff848] = a0\n  9684: a0 = u64 [s1 + 0x148]\n  9688: a1 = s1 + 0x1000\n  9692: u64 [a1 + 0xfffffffffffff850] = a0\n  9696: a1 = s1 + 0x7ff\n  9700: a1 = a1 + 0x41\n  9703: a0 = u64 [s1 + 0x150]\n  9707: a4 = s1 + 0x1000\n  9711: u64 [a4 + 0xfffffffffffff858] = a0\n  9715: a0 = u64 [s1 + 0x198]\n  9719: u64 [s1 + 0x170] = a2\n  9723: u64 [s1 + 0x168] = a3\n  9727: ra = 344, jump @24\n      : @365 [@dyn 172] (gas: 4)\n  9733: a0 = s1 + 0x7ff\n  9737: a0 = a0 + 0x21\n  9740: a1 = u64 [s1 + 0x178]\n  9744: ra = 346, jump @22\n      : @366 [@dyn 173] (gas: 14)\n  9750: a3 = s1 + 0x100\n  9754: a0 = u64 [a3 + 0x70]\n  9757: a2 = u64 [a3 + 0x68]\n  9760: a2 = a2 | a0\n  9763: a0 = 0x100000000\n  9773: u64 [a3 + 0x70] = a0\n  9776: a0 = 0xffffffe0\n  9786: a1 = u64 [a3 + 0x98]\n  9790: a0 = a1 <u a0\n  9793: a1 = u64 [a3 + 0x90]\n  9797: a0 = 0 if a1 != 0\n  9799: u64 [a3 + 0x78] = a2\n  9802: a0 = 0 if a2 != 0\n  9804: jump @368 if a0 != 0\n      : @367 (gas: 1)\n  9807: jump @1045\n      : @368 (gas: 21)\n  9810: a0 = s1 + 0x1000\n  9814: a2 = u64 [a0 + 0xfffffffffffff838]\n  9818: a0 = s1 + 0x1000\n  9822: a1 = u64 [a0 + 0xfffffffffffff830]\n  9826: a0 = s1 + 0x1000\n  9830: a3 = u64 [a0 + 0xfffffffffffff828]\n  9834: a0 = s1 + 0x1000\n  9838: a4 = u64 [a0 + 0xfffffffffffff820]\n  9842: a0 = u64 [s1 + 0x198]\n  9846: i32 a0 = a0 + 0x20\n  9849: a5 = s1 + 0x1000\n  9853: u64 [a5 + 0xfffffffffffff800] = a4\n  9857: a4 = s1 + 0x1000\n  9861: u64 [a4 + 0xfffffffffffff808] = a3\n  9865: a3 = s1 + 0x1000\n  9869: u64 [a3 + 0xfffffffffffff810] = a1\n  9873: a1 = s1 + 0x7ff\n  9877: a1 = a1 + 0x1\n  9880: a3 = s1 + 0x1000\n  9884: u64 [a3 + 0xfffffffffffff818] = a2\n  9888: ra = 348, jump @24\n      : @369 [@dyn 174] (gas: 3)\n  9894: a0 = s1 + 0x7e0\n  9898: a1 = u64 [s1 + 0x180]\n  9902: ra = 350, jump @22\n      : @370 [@dyn 175] (gas: 10)\n  9908: a2 = s1 + 0x100\n  9912: a0 = u64 [a2 + 0x70]\n  9915: a0 = a0 + 0xffffffffffffffc0\n  9918: a1 = u64 [a2 + 0x98]\n  9922: a0 = a1 <u a0\n  9925: a1 = u64 [a2 + 0x90]\n  9929: a0 = 0 if a1 != 0\n  9931: a1 = u64 [a2 + 0x78]\n  9934: a0 = 0 if a1 != 0\n  9936: jump @372 if a0 != 0\n      : @371 (gas: 1)\n  9939: jump @1045\n      : @372 (gas: 13)\n  9942: a5 = s1 + 0x700\n  9946: a2 = u64 [a5 + 0xf8]\n  9950: a1 = u64 [a5 + 0xf0]\n  9954: a3 = u64 [a5 + 0xe8]\n  9958: a4 = u64 [a5 + 0xe0]\n  9962: a0 = u64 [s1 + 0x198]\n  9966: i32 a0 = a0 + 0x40\n  9969: u64 [a5 + 0xc0] = a4\n  9973: u64 [a5 + 0xc8] = a3\n  9977: u64 [a5 + 0xd0] = a1\n  9981: a1 = s1 + 0x7c0\n  9985: u64 [a5 + 0xd8] = a2\n  9989: ra = 352, jump @24\n      : @373 [@dyn 176] (gas: 3)\n  9995: a0 = s1 + 0x7a0\n  9999: a1 = u64 [s1 + 0x188]\n 10003: ra = 354, jump @22\n      : @374 [@dyn 177] (gas: 1)\n 10009: t0 = 356, jump @1852\n      : @375 [@dyn 178] (gas: 3)\n 10016: a1 = u64 [a2 + 0x78]\n 10019: a0 = 0 if a1 != 0\n 10021: jump @377 if a0 != 0\n      : @376 (gas: 1)\n 10024: jump @1045\n      : @377 (gas: 11)\n 10027: a0 = u64 [s1 + 0x7a0]\n 10031: a1 = 0xffffffff\n 10041: a1 = a1 & a0\n 10044: a0 = u64 [s1 + 0x198]\n 10048: i32 a0 = a0 + 0x60\n 10051: u64 [s1 + 1944] = 0\n 10055: u64 [s1 + 1936] = 0\n 10059: u64 [s1 + 0x780] = a1\n 10063: a1 = s1 + 0x780\n 10067: u64 [s1 + 1928] = 0\n 10071: ra = 358, jump @24\n      : @378 [@dyn 179] (gas: 3)\n 10077: a1 = 0x80\n 10081: a0 = u64 [s1 + 0x198]\n 10085: ra = 360, jump @37\n      : @379 [@dyn 180] (gas: 5)\n 10091: i32 a1 = a0 + 0\n 10093: a2 = 0x80\n 10097: a0 = 0\n 10099: ecalli 13 // 'seal_return'\n 10101: jump @1146\n      : @380 (gas: 9)\n 10104: a0 = s1 + 0x3918\n 10108: u64 [a0 + 32] = 0\n 10111: u64 [a0 + 24] = 0\n 10114: u64 [a0 + 16] = 0\n 10117: u64 [a0 + 8] = 0\n 10120: a0 = s1 + 0x4000\n 10124: i32 a0 = a0 + 0xfffffffffffff920\n 10128: ecalli 16 // 'value_transferred'\n 10130: fallthrough\n      : @381 (gas: 9)\n 10131: a3 = s1 + 0x3918\n 10135: a0 = u64 [a3 + 0x18]\n 10138: a1 = u64 [a3 + 0x20]\n 10141: a2 = u64 [a3 + 0x10]\n 10144: a3 = u64 [a3 + 0x8]\n 10147: a1 = a1 | a2\n 10150: a0 = a0 | a3\n 10153: a0 = a0 | a1\n 10156: jump @383 if a0 == 0\n      : @382 (gas: 1)\n 10159: jump @1078\n      : @383 (gas: 3)\n 10162: a0 = u64 [s1 + 0x198]\n 10166: a0 = i32 [a0]\n 10168: jump @385 if a0 >u 99\n      : @384 (gas: 1)\n 10172: jump @1079\n      : @385 (gas: 4)\n 10175: a0 = s1 + 0x1f00\n 10179: ra = 0x16a\n 10183: t0 = 0x63c\n 10187: jump @1863\n      : @386 [@dyn 181] (gas: 11)\n 10191: a1 = s1 + 0x1918\n 10195: a0 = u64 [a1 + 0x5e8]\n 10199: u64 [s1 + 0x198] = a0\n 10203: a0 = u64 [a1 + 0x5f0]\n 10207: u64 [s1 + 0x190] = a0\n 10211: a0 = u32 [a1 + 0x5f8]\n 10215: u64 [s1 + 0x178] = a0\n 10219: a0 = s1 + 0x1ee0\n 10223: ra = 0x16c\n 10227: t0 = 0x640\n 10231: jump @1875\n      : @387 [@dyn 182] (gas: 7)\n 10235: a0 = s1 + 0x1918\n 10239: a0 = u64 [a0 + 0x5c8]\n 10243: u64 [s1 + 0x180] = a0\n 10247: a0 = s1 + 0x1ec0\n 10251: ra = 0x16e\n 10255: t0 = 0x646\n 10259: jump @1875\n      : @388 [@dyn 183] (gas: 15)\n 10263: a2 = s1 + 0x1918\n 10267: a3 = a2 + 0x500\n 10271: a0 = u64 [a3 + 0xa8]\n 10275: a4 = s1 + 0x100\n 10279: u64 [a4 + 0x88] = a0\n 10283: u64 [a2 + 1440] = 0\n 10287: a0 = u64 [a4 + 0x78]\n 10290: u64 [a3 + 0x98] = a0\n 10294: a0 = u64 [a4 + 0x90]\n 10298: u64 [a3 + 0x90] = a0\n 10302: a1 = s1 + 0x1ea0\n 10306: a0 = u64 [a4 + 0x98]\n 10310: u64 [a3 + 0x88] = a0\n 10314: a0 = 0\n 10316: ra = 368, jump @24\n      : @389 [@dyn 184] (gas: 9)\n 10322: a1 = s1 + 0x1918\n 10326: u64 [a1 + 1408] = 0\n 10330: u64 [a1 + 1400] = 0\n 10334: u64 [a1 + 1384] = 0x4\n 10339: a2 = a1\n 10341: a0 = 0x20\n 10344: a1 = s1 + 0x1e80\n 10348: u64 [a2 + 1392] = 0\n 10352: ra = 370, jump @24\n      : @390 [@dyn 185] (gas: 3)\n 10358: a1 = 0x20180\n 10363: a0 = i32 [0x20180]\n 10368: jump @392 if a0 >u 63\n      : @391 (gas: 2)\n 10372: u32 [0x20180] = 0x40\n 10378: fallthrough\n      : @392 (gas: 15)\n 10379: a0 = sp + 0xffffffffffffffe0\n 10382: a2 = a0 & 0xffffffffffffffe0\n 10385: u64 [s1 + 0x178] = a2\n 10389: sp = a2\n 10391: a0 = 0x20190\n 10396: i32 a0 = a0 + 0\n 10398: i32 a2 = a2 + 0\n 10400: u64 [s1 + 0x198] = a1\n 10404: a1 = 0x40\n 10407: u64 [s1 + 0x190] = a0\n 10411: ra = 0x174\n 10415: ecalli 8 // 'hash_keccak_256'\n 10417: a3 = u64 [s1 + 0x178]\n 10421: t0 = 0x176\n 10425: jump @1815\n      : @393 [@dyn 186] (gas: 2)\n 10429: a3 = u64 [s1 + 0x178]\n 10433: t0 = 374, jump @1815\n      : @394 [@dyn 187] (gas: 9)\n 10440: a2 = s1 + 0x1918\n 10444: u64 [a2 + 1376] = 0\n 10448: u64 [a2 + 1368] = 0\n 10452: u64 [a2 + 1360] = 0\n 10456: a1 = s1 + 0x1e60\n 10460: a0 = u64 [s1 + 0x180]\n 10464: u64 [a2 + 0x548] = a0\n 10468: a0 = 0\n 10470: ra = 376, jump @24\n      : @395 [@dyn 188] (gas: 14)\n 10476: a0 = u64 [s1 + 0x160]\n 10480: a1 = s1 + 0x1918\n 10484: a2 = a1 + 0x500\n 10488: u64 [a2 + 0x40] = a0\n 10491: a0 = u64 [s1 + 0x168]\n 10495: u64 [a2 + 0x38] = a0\n 10498: a0 = u64 [s1 + 0x170]\n 10502: u64 [a2 + 0x30] = a0\n 10505: a3 = a1\n 10507: a0 = 0x20\n 10510: a1 = s1 + 0x1e40\n 10514: a2 = u64 [s1 + 0x178]\n 10518: u64 [a3 + 0x528] = a2\n 10522: ra = 378, jump @24\n      : @396 [@dyn 189] (gas: 3)\n 10528: a1 = u64 [s1 + 0x198]\n 10532: a0 = i32 [a1]\n 10534: jump @398 if a0 >u 63\n      : @397 (gas: 2)\n 10538: u32 [a1 + 0] = 0x40\n 10541: fallthrough\n      : @398 (gas: 4)\n 10542: a0 = sp + 0xffffffffffffffe0\n 10545: a0 = a0 & 0xffffffffffffffe0\n 10548: u64 [s1 + 0x180] = a0\n 10552: t0 = 380, jump @1818\n      : @399 [@dyn 190] (gas: 5)\n 10559: ra = 0x17e\n 10563: ecalli 8 // 'hash_keccak_256'\n 10565: a3 = u64 [s1 + 0x180]\n 10569: t0 = 0x180\n 10573: jump @1815\n      : @400 [@dyn 191] (gas: 2)\n 10577: a3 = u64 [s1 + 0x180]\n 10581: t0 = 384, jump @1815\n      : @401 [@dyn 192] (gas: 15)\n 10588: a0 = sp + 0xffffffffffffffe0\n 10591: a0 = a0 & 0xffffffffffffffe0\n 10594: u64 [s1 + 0x180] = a0\n 10598: sp = a0\n 10600: a0 = u64 [s1 + 0x188]\n 10604: a0 = a0 << 0x20\n 10607: a0 = a0 >> 0x20\n 10610: a2 = s1 + 0x1918\n 10614: u64 [a2 + 1312] = 0\n 10618: u64 [a2 + 1304] = 0\n 10622: u64 [a2 + 1296] = 0\n 10626: a1 = s1 + 0x1e20\n 10630: u64 [a2 + 0x508] = a0\n 10634: a0 = 0\n 10636: ra = 386, jump @24\n      : @402 [@dyn 193] (gas: 13)\n 10642: a0 = u64 [s1 + 0x160]\n 10646: a1 = s1 + 0x1918\n 10650: u64 [a1 + 0x500] = a0\n 10654: a0 = u64 [s1 + 0x168]\n 10658: u64 [a1 + 0x4f8] = a0\n 10662: a0 = u64 [s1 + 0x170]\n 10666: u64 [a1 + 0x4f0] = a0\n 10670: a3 = a1\n 10672: a0 = 0x20\n 10675: a1 = s1 + 0x1e00\n 10679: a2 = u64 [s1 + 0x178]\n 10683: u64 [a3 + 0x4e8] = a2\n 10687: ra = 388, jump @24\n      : @403 [@dyn 194] (gas: 3)\n 10693: a1 = u64 [s1 + 0x198]\n 10697: a0 = i32 [a1]\n 10699: jump @405 if a0 >=u 64\n      : @404 (gas: 2)\n 10703: u32 [a1 + 0] = 0x40\n 10706: fallthrough\n      : @405 (gas: 4)\n 10707: a0 = sp + 0xffffffffffffffe0\n 10710: a0 = a0 & 0xffffffffffffffe0\n 10713: u64 [s1 + 0x198] = a0\n 10717: t0 = 390, jump @1818\n      : @406 [@dyn 195] (gas: 5)\n 10724: ra = 0x188\n 10728: ecalli 8 // 'hash_keccak_256'\n 10730: a3 = u64 [s1 + 0x198]\n 10734: t0 = 0x18a\n 10738: jump @1800\n      : @407 [@dyn 196] (gas: 2)\n 10742: a3 = u64 [s1 + 0x198]\n 10746: t0 = 394, jump @1800\n      : @408 [@dyn 197] (gas: 7)\n 10753: a1 = u64 [s1 + 0x180]\n 10757: u64 [a1 + 0x18] = a3\n 10760: u64 [a1 + 0x10] = a2\n 10763: u64 [a1 + 0x8] = a4\n 10766: u64 [a1] = a0\n 10768: a0 = s1 + 0x1de0\n 10772: ra = 396, jump @26\n      : @409 [@dyn 198] (gas: 6)\n 10778: a0 = s1 + 0x1918\n 10782: a0 = u64 [a0 + 0x4c8]\n 10786: u64 [s1 + 0x198] = a0\n 10790: a0 = s1 + 0x1dc0\n 10794: a1 = 0x40\n 10797: ra = 398, jump @22\n      : @410 [@dyn 199] (gas: 14)\n 10803: a2 = s1 + 0x1918\n 10807: t0 = u64 [a2 + 0x4c0]\n 10811: a1 = a2 + 0x400\n 10815: a5 = u64 [a1 + 0xb8]\n 10819: a4 = u64 [a1 + 0xb0]\n 10823: a0 = u64 [a1 + 0xa8]\n 10827: a3 = a4 | t0\n 10830: a1 = a0 | a5\n 10833: a1 = a1 | a3\n 10836: a1 = a1 >> 0x20\n 10839: a3 = a3 | a5\n 10842: a3 = a3 << 0x20\n 10845: a1 = a1 | a3\n 10848: jump @412 if a1 == 0\n      : @411 (gas: 1)\n 10851: jump @1045\n      : @412 (gas: 12)\n 10854: a1 = u8 [s1 + 0x198]\n 10858: a3 = a1 >u 0\n 10860: u64 [a2 + 1184] = 0\n 10864: u64 [a2 + 1176] = 0\n 10868: u64 [a2 + 1168] = 0\n 10872: a1 = s1 + 0x1da0\n 10876: u64 [a2 + 0x488] = a3\n 10880: u64 [s1 + 0x190] = a0\n 10884: u64 [s1 + 0x188] = a4\n 10888: u64 [s1 + 0x178] = t0\n 10892: u64 [s1 + 0x180] = a5\n 10896: ra = 400, jump @24\n      : @413 [@dyn 200] (gas: 12)\n 10902: a4 = s1 + 0x100\n 10906: a3 = u64 [a4 + 0x88]\n 10910: a2 = u64 [a4 + 0x90]\n 10914: a0 = u64 [a4 + 0x80]\n 10918: a1 = u64 [a4 + 0x78]\n 10921: a1 = a1 | a0\n 10924: a4 = 0x100000000\n 10934: a0 = 0xffffffe0\n 10944: a0 = a2 <u a0\n 10947: a0 = 0 if a3 != 0\n 10949: a0 = 0 if a1 != 0\n 10951: jump @415 if a0 != 0\n      : @414 (gas: 1)\n 10954: jump @1045\n      : @415 (gas: 13)\n 10957: u64 [s1 + 0x180] = a1\n 10961: a1 = u64 [s1 + 0x198]\n 10965: a0 = a1 & 0xff00\n 10970: a1 = a0 >u 0\n 10972: i32 a0 = a2 + 0x20\n 10975: a2 = s1 + 0x1918\n 10979: u64 [a2 + 1152] = 0\n 10983: u64 [a2 + 1144] = 0\n 10987: u64 [a2 + 0x468] = a1\n 10991: a1 = s1 + 0x1d80\n 10995: u64 [a2 + 1136] = 0\n 10999: u64 [s1 + 0x178] = a4\n 11003: ra = 402, jump @24\n      : @416 [@dyn 201] (gas: 10)\n 11009: a3 = s1 + 0x100\n 11013: a2 = u64 [a3 + 0x90]\n 11017: a0 = u64 [a3 + 0x78]\n 11020: a0 = a0 + 0xffffffffffffffc0\n 11023: a0 = a2 <u a0\n 11026: a1 = u64 [a3 + 0x88]\n 11030: a0 = 0 if a1 != 0\n 11032: a1 = u64 [a3 + 0x80]\n 11036: a0 = 0 if a1 != 0\n 11038: jump @418 if a0 != 0\n      : @417 (gas: 1)\n 11041: jump @1045\n      : @418 (gas: 11)\n 11044: a1 = u64 [s1 + 0x198]\n 11048: a0 = a1 & 0xff0000\n 11054: a1 = a0 >u 0\n 11056: i32 a0 = a2 + 0x40\n 11059: a3 = s1 + 0x1918\n 11063: u64 [a3 + 1120] = 0\n 11067: u64 [a3 + 1112] = 0\n 11071: u64 [a3 + 0x448] = a1\n 11075: a1 = s1 + 0x1d60\n 11079: u64 [a3 + 1104] = 0\n 11083: ra = 404, jump @24\n      : @419 [@dyn 202] (gas: 3)\n 11089: a1 = 0x60\n 11092: a0 = u64 [s1 + 0x190]\n 11096: ra = 406, jump @37\n      : @420 [@dyn 203] (gas: 5)\n 11102: i32 a1 = a0 + 0\n 11104: a2 = 0x60\n 11107: a0 = 0\n 11109: ecalli 13 // 'seal_return'\n 11111: jump @1146\n      : @421 (gas: 12)\n 11114: a0 = s1 + 0x3918\n 11118: u64 [a0 + 1024] = 0\n 11122: u64 [a0 + 1016] = 0\n 11126: u64 [a0 + 1008] = 0\n 11130: u64 [a0 + 1000] = 0\n 11134: a0 = s1 + 0x4000\n 11138: i32 a0 = a0 + 0xfffffffffffffd00\n 11142: ra = 0x198\n 11146: ecalli 16 // 'value_transferred'\n 11148: a0 = 0x3918\n 11152: t0 = 0x19a\n 11156: jump @1851\n      : @422 [@dyn 204] (gas: 2)\n 11160: a0 = 0x3918\n 11164: t0 = 410, jump @1851\n      : @423 [@dyn 205] (gas: 1)\n 11171: jump @425 if a0 == 0\n      : @424 (gas: 1)\n 11174: jump @1080\n      : @425 (gas: 3)\n 11177: a0 = u64 [s1 + 0x198]\n 11181: a0 = i32 [a0]\n 11183: jump @427 if a0 >u 3\n      : @426 (gas: 1)\n 11187: jump @1081\n      : @427 (gas: 8)\n 11190: a0 = s1 + 0x3918\n 11194: u64 [a0 + 1056] = 0\n 11198: u64 [a0 + 1048] = 0\n 11202: u64 [a0 + 1040] = 0\n 11206: u64 [a0 + 1032] = 0\n 11210: a0 = s1 + 0x3240\n 11214: a1 = s1 + 0x3d20\n 11218: ra = 412, jump @26\n      : @428 [@dyn 206] (gas: 14)\n 11224: a1 = s1 + 0x3118\n 11228: a2 = a1 + 0x100\n 11232: a0 = u64 [a2 + 0x40]\n 11235: a1 = s1 + 0x100\n 11239: u64 [a1 + 0x98] = a0\n 11243: a0 = u64 [a2 + 0x38]\n 11246: u64 [a1 + 0x90] = a0\n 11250: a0 = u64 [a2 + 0x30]\n 11253: u64 [a1 + 0x88] = a0\n 11257: a0 = u64 [a2 + 0x28]\n 11260: u64 [a1 + 0x80] = a0\n 11264: a0 = s1 + 0x3220\n 11268: a1 = 0x40\n 11271: ra = 414, jump @22\n      : @429 [@dyn 207] (gas: 3)\n 11277: a3 = s1 + 0x3118\n 11281: a5 = a3 + 0x100\n 11285: t0 = 416, jump @1855\n      : @430 [@dyn 208] (gas: 1)\n 11292: jump @432 if a0 == 0\n      : @431 (gas: 1)\n 11295: jump @1045\n      : @432 (gas: 14)\n 11298: a2 = s1 + 0x100\n 11302: a0 = u64 [a2 + 0x80]\n 11306: u64 [a3 + 0xe8] = a0\n 11310: a0 = u64 [a2 + 0x88]\n 11314: u64 [a3 + 0xf0] = a0\n 11318: a0 = u64 [a2 + 0x90]\n 11322: u64 [a3 + 0xf8] = a0\n 11326: a1 = s1 + 0x3200\n 11330: a0 = u64 [a2 + 0x98]\n 11334: u64 [a3 + 0x100] = a0\n 11338: a0 = a4\n 11340: u64 [a2 + 0x98] = a4\n 11344: ra = 0x1d8\n 11348: jump @24\n      : @433 (gas: 9)\n 11351: u64 [a2 + 1216] = 0\n 11355: u64 [a2 + 1208] = 0\n 11359: u64 [a2 + 1200] = 0\n 11363: u64 [a2 + 1192] = 0\n 11367: a0 = s1 + 0x3000\n 11371: i32 a0 = a0 + 0x5c0\n 11375: ra = 0x1a2\n 11379: ecalli 16 // 'value_transferred'\n 11381: fallthrough\n      : @434 [@dyn 209] (gas: 3)\n 11382: a3 = s1 + 0x3118\n 11386: a4 = a3 + 0x400\n 11390: t0 = 420, jump @1869\n      : @435 [@dyn 210] (gas: 1)\n 11397: jump @437 if a0 == 0\n      : @436 (gas: 1)\n 11400: jump @1082\n      : @437 (gas: 1)\n 11403: t0 = 422, jump @1842\n      : @438 [@dyn 211] (gas: 1)\n 11410: jump @440 if a1 <u a0\n      : @439 (gas: 1)\n 11413: jump @1083\n      : @440 (gas: 6)\n 11416: a0 = s1 + 0x3000\n 11420: i32 a0 = a0 + 0x5e0\n 11424: a1 = 0x4\n 11427: ra = 0x1a8\n 11431: ecalli 2 // 'call_data_load'\n 11433: fallthrough\n      : @441 [@dyn 212] (gas: 7)\n 11434: a0 = s1 + 0x3118\n 11438: a5 = a0 + 0x400\n 11442: a1 = u64 [a5 + 0xe0]\n 11446: a2 = u64 [a5 + 0xd8]\n 11450: a3 = u64 [a5 + 0xd0]\n 11454: a4 = u64 [a5 + 0xc8]\n 11458: t0 = 426, jump @1861\n      : @442 [@dyn 213] (gas: 1)\n 11465: jump @444 if a0 != 0\n      : @443 (gas: 1)\n 11468: jump @1084\n      : @444 (gas: 8)\n 11471: a0 = 0x30190\n 11476: u64 [s1 + 0x198] = a0\n 11480: i32 a0 = a0 + 0\n 11482: u64 [s1 + 0x168] = a0\n 11486: ra = 0x1ac\n 11490: ecalli 4 // 'caller'\n 11492: t0 = 0x1ae\n 11496: jump @1816\n      : @445 [@dyn 214] (gas: 1)\n 11500: t0 = 430, jump @1816\n      : @446 [@dyn 215] (gas: 7)\n 11507: u64 [s1 + 1912] = 0\n 11511: u64 [s1 + 0x770] = a1\n 11515: u64 [s1 + 0x768] = a0\n 11519: a1 = s1 + 0x760\n 11523: u64 [s1 + 0x760] = a3\n 11527: a0 = 0\n 11529: ra = 432, jump @24\n      : @447 [@dyn 216] (gas: 7)\n 11535: u64 [s1 + 1880] = 0\n 11539: u64 [s1 + 1872] = 0\n 11543: u64 [s1 + 1856] = 0x1\n 11548: a0 = 0x20\n 11551: a1 = s1 + 0x740\n 11555: u64 [s1 + 1864] = 0\n 11559: ra = 434, jump @24\n      : @448 [@dyn 217] (gas: 7)\n 11565: a0 = sp + 0xffffffffffffffe0\n 11568: a0 = a0 & 0xffffffffffffffe0\n 11571: u64 [s1 + 0x170] = a0\n 11575: sp = a0\n 11577: a2 = 0x20180\n 11582: a0 = i32 [0x20180]\n 11587: jump @450 if a0 >u 63\n      : @449 (gas: 2)\n 11591: u32 [0x20180] = 0x40\n 11597: fallthrough\n      : @450 (gas: 16)\n 11598: u64 [s1 + 0x140] = a2\n 11602: a0 = sp + 0xffffffffffffffe0\n 11605: a2 = a0 & 0xffffffffffffffe0\n 11608: u64 [s1 + 0x158] = a2\n 11612: sp = a2\n 11614: a0 = 0x20190\n 11619: u64 [s1 + 0x160] = a0\n 11623: i32 a0 = a0 + 0\n 11625: i32 a2 = a2 + 0\n 11627: a1 = 0x40\n 11630: u64 [s1 + 0x148] = a0\n 11634: ra = 0x1b4\n 11638: ecalli 8 // 'hash_keccak_256'\n 11640: a3 = u64 [s1 + 0x158]\n 11644: t0 = 0x1b6\n 11648: jump @1793\n      : @451 [@dyn 218] (gas: 2)\n 11652: a3 = u64 [s1 + 0x158]\n 11656: t0 = 438, jump @1793\n      : @452 [@dyn 219] (gas: 7)\n 11663: a1 = u64 [s1 + 0x170]\n 11667: u64 [a1] = a4\n 11669: u64 [a1 + 0x8] = a5\n 11672: u64 [a1 + 0x10] = a2\n 11675: u64 [a1 + 0x18] = a0\n 11678: a0 = s1 + 0x720\n 11682: ra = 440, jump @26\n      : @453 [@dyn 220] (gas: 20)\n 11688: t0 = u64 [s1 + 0x738]\n 11692: a1 = u64 [s1 + 0x728]\n 11696: t2 = u64 [s1 + 0x730]\n 11700: t1 = u64 [s1 + 0x720]\n 11704: ra = u64 [s1 + 0x180]\n 11708: a0 = t0 ^ ra\n 11711: a2 = u64 [s1 + 0x190]\n 11715: a5 = a1 ^ a2\n 11718: a3 = a1 <u a2\n 11721: a2 = u64 [s1 + 0x188]\n 11725: a2 = t1 <u a2\n 11728: a2 = a3 if a5 != 0\n 11731: a3 = t0 <u ra\n 11734: a4 = u64 [s1 + 0x178]\n 11738: a5 = t2 <u a4\n 11741: a5 = a3 if a0 != 0\n 11744: a3 = t2 ^ a4\n 11747: a3 = a3 | a0\n 11750: a2 = a5 if a3 != 0\n 11753: jump @455 if a2 == 0\n      : @454 (gas: 1)\n 11756: jump @1088\n      : @455 (gas: 15)\n 11759: a0 = u64 [s1 + 0x188]\n 11763: a2 = s1 + 0x600\n 11767: u64 [a2 + 0xc0] = a0\n 11771: u64 [s1 + 0x6e0] = t1\n 11775: a0 = u64 [s1 + 0x190]\n 11779: u64 [a2 + 0xc8] = a0\n 11783: u64 [a2 + 0xe8] = a1\n 11787: u64 [a2 + 0xd0] = a4\n 11791: u64 [s1 + 0x6f0] = t2\n 11795: u64 [s1 + 0x6d8] = ra\n 11799: a0 = s1 + 0x700\n 11803: a1 = s1 + 0x6e0\n 11807: a2 = s1 + 0x6c0\n 11811: u64 [s1 + 0x6f8] = t0\n 11815: ra = 442, jump @1599\n      : @456 [@dyn 221] (gas: 14)\n 11821: a4 = s1 + 0x700\n 11825: a0 = u64 [a4 + 0x18]\n 11828: a1 = u64 [a4 + 0x10]\n 11831: a2 = u64 [a4 + 0x8]\n 11834: a3 = u64 [a4]\n 11836: a4 = s1 + 0x3118\n 11840: u64 [a4 + 0x500] = a0\n 11844: a0 = a4 + 0x400\n 11848: u64 [a0 + 0xf8] = a1\n 11852: u64 [a0 + 0xf0] = a2\n 11856: u64 [a0 + 0xe8] = a3\n 11860: a1 = s1 + 0x3600\n 11864: a0 = u64 [s1 + 0x170]\n 11868: ra = 444, jump @28\n      : @457 [@dyn 222] (gas: 5)\n 11874: a0 = u64 [s1 + 0x168]\n 11878: ra = 0x1be\n 11882: ecalli 4 // 'caller'\n 11884: t0 = 0x1c0\n 11888: jump @1862\n      : @458 [@dyn 223] (gas: 1)\n 11892: t0 = 448, jump @1862\n      : @459 [@dyn 224] (gas: 4)\n 11899: ra = 0x1c2\n 11903: ecalli 10 // 'ref_time_left'\n 11905: t0 = 0x1c4\n 11909: jump @1822\n      : @460 [@dyn 225] (gas: 1)\n 11913: t0 = 452, jump @1822\n      : @461 [@dyn 226] (gas: 37)\n 11920: a4 = a2 + 0x500\n 11924: u64 [a4 + 0x20] = a1\n 11927: a1 = u64 [s1 + 0x178]\n 11931: u64 [a4 + 0x18] = a1\n 11934: a1 = u64 [s1 + 0x190]\n 11938: u64 [a4 + 0x10] = a1\n 11941: a1 = u64 [s1 + 0x188]\n 11945: u64 [a4 + 0x8] = a1\n 11948: u32 [a2 + 1320] = 0\n 11952: a0 = a0 >u 0x8fc\n 11956: a1 = -a0\n 11958: u64 [a4 + 0x60] = a1\n 11961: u64 [a4 + 0x58] = a1\n 11964: u64 [a4 + 0x50] = a1\n 11967: u64 [a4 + 0x48] = a1\n 11970: a1 = a3 << 0x20\n 11973: a1 = a1 >> 0x20\n 11976: a0 = a0 << 0x23\n 11979: a0 = a0 | a1\n 11982: a1 = s1 + 0x3620\n 11986: a1 = a1 << 0x20\n 11989: a1 = a1 >> 0x20\n 11992: a2 = s1 + 0x3660\n 11996: a2 = a2 << 0x20\n 11999: a3 = a2 | a1\n 12002: a4 = u64 [s1 + 0x160]\n 12006: a4 = a4 << 0x20\n 12009: a4 = a4 >> 0x20\n 12012: a1 = s1 + 0x3640\n 12016: a1 = a1 << 0x20\n 12019: a5 = a1 | a4\n 12022: a1 = 0xffffffffffffffff\n 12025: a2 = 0xffffffffffffffff\n 12028: ecalli 0 // 'call'\n 12029: u64 [s1 + 0x170] = a0\n 12033: a0 = s1 + 0x6a0\n 12037: ra = 454, jump @1616\n      : @462 [@dyn 227] (gas: 2)\n 12043: a0 = u64 [s1 + 0x170]\n 12047: jump @464 if a0 == 0\n      : @463 (gas: 1)\n 12050: jump @1102\n      : @464 (gas: 3)\n 12053: a0 = s1 + 0x660\n 12057: a1 = 0x40\n 12060: ra = 456, jump @22\n      : @465 [@dyn 228] (gas: 6)\n 12066: a4 = s1 + 0x600\n 12070: a0 = u64 [a4 + 0x78]\n 12073: a1 = u64 [a4 + 0x70]\n 12076: a2 = u64 [a4 + 0x68]\n 12079: a3 = u64 [a4 + 0x60]\n 12082: t0 = 458, jump @1809\n      : @466 [@dyn 229] (gas: 1)\n 12089: jump @468 if a0 == 0\n      : @467 (gas: 1)\n 12092: jump @1045\n      : @468 (gas: 12)\n 12095: a0 = u64 [s1 + 0x188]\n 12099: u64 [s1 + 0x640] = a0\n 12103: a0 = u64 [s1 + 0x190]\n 12107: u64 [s1 + 0x648] = a0\n 12111: a0 = u64 [s1 + 0x178]\n 12115: u64 [s1 + 0x650] = a0\n 12119: a1 = s1 + 0x640\n 12123: a0 = u64 [s1 + 0x180]\n 12127: u64 [s1 + 0x658] = a0\n 12131: a0 = a3\n 12133: u64 [s1 + 0x190] = a3\n 12137: ra = 460, jump @24\n      : @469 [@dyn 230] (gas: 6)\n 12143: a0 = u64 [s1 + 0x168]\n 12147: ra = 0x1ce\n 12151: ecalli 4 // 'caller'\n 12153: a2 = u64 [s1 + 0x198]\n 12157: t0 = 0x1d0\n 12161: jump @1795\n      : @470 [@dyn 231] (gas: 2)\n 12165: a2 = u64 [s1 + 0x198]\n 12169: t0 = 464, jump @1795\n      : @471 [@dyn 232] (gas: 25)\n 12176: t0 = a1 | a0\n 12179: a3 = a3 >> 0x20\n 12182: a2 = reverse a2\n 12184: a1 = a2 << 0x20\n 12187: a1 = a1 | a3\n 12190: a2 = a2 >> 0x20\n 12193: u64 [s1 + 1560] = 0\n 12197: a3 = u64 [0x200e0]\n 12202: a4 = u64 [0x200e8]\n 12207: a5 = u64 [0x200f0]\n 12212: a0 = u64 [0x200f8]\n 12217: u64 [s1 + 0x638] = a3\n 12221: a3 = s1 + 0x600\n 12225: u64 [a3 + 0x30] = a4\n 12228: u64 [a3 + 0x28] = a5\n 12231: u64 [a3 + 0x20] = a0\n 12234: u64 [a3 + 0x10] = a2\n 12237: u64 [a3 + 0x8] = a1\n 12240: a1 = 0x20\n 12243: a2 = s1 + 0x620\n 12247: a3 = s1 + 0x600\n 12251: u64 [s1 + 0x600] = t0\n 12255: a0 = u64 [s1 + 0x190]\n 12259: ra = 0x232\n 12263: jump @29\n      : @472 (gas: 9)\n 12266: u64 [a2 + 1856] = 0\n 12270: u64 [a2 + 1848] = 0\n 12274: u64 [a2 + 1840] = 0\n 12278: u64 [a2 + 1832] = 0\n 12282: a0 = s1 + 0x4000\n 12286: i32 a0 = a0 + 0xfffffffffffff840\n 12290: ra = 0x1d2\n 12294: ecalli 16 // 'value_transferred'\n 12296: fallthrough\n      : @473 [@dyn 233] (gas: 3)\n 12297: a3 = s1 + 0x3118\n 12301: a4 = a3 + 0x700\n 12305: t0 = 468, jump @1843\n      : @474 [@dyn 234] (gas: 1)\n 12312: jump @476 if a0 == 0\n      : @475 (gas: 1)\n 12315: jump @1089\n      : @476 (gas: 3)\n 12318: a0 = u64 [s1 + 0x198]\n 12322: a0 = i32 [a0]\n 12324: jump @478 if a0 >u 3\n      : @477 (gas: 1)\n 12328: jump @1090\n      : @478 (gas: 3)\n 12331: a0 = s1 + 0x1300\n 12335: a1 = 0x40\n 12338: ra = 470, jump @22\n      : @479 [@dyn 235] (gas: 14)\n 12344: a3 = s1 + 0x1118\n 12348: a4 = u64 [a3 + 0x200]\n 12352: a5 = a3 + 0x100\n 12356: a1 = u64 [a5 + 0xf8]\n 12360: a2 = u64 [a5 + 0xf0]\n 12364: a0 = u64 [a5 + 0xe8]\n 12368: a4 = a4 | a2\n 12371: a2 = a0 | a1\n 12374: a2 = a2 | a4\n 12377: a2 = a2 >> 0x20\n 12380: a1 = a1 | a4\n 12383: a1 = a1 << 0x20\n 12386: a1 = a1 | a2\n 12389: jump @481 if a1 == 0\n      : @480 (gas: 1)\n 12392: jump @1045\n      : @481 (gas: 8)\n 12395: a1 = u64 [0x200a0]\n 12400: u64 [a3 + 480] = 0\n 12404: u64 [a3 + 472] = 0\n 12408: u64 [a3 + 0x1c8] = a1\n 12412: a1 = s1 + 0x12e0\n 12416: u64 [a3 + 464] = 0\n 12420: u64 [s1 + 0x198] = a0\n 12424: ra = 472, jump @24\n      : @482 [@dyn 236] (gas: 4)\n 12430: a1 = 0x20\n 12433: a0 = u64 [s1 + 0x198]\n 12437: ra = 0x484\n 12441: jump @37\n      : @483 (gas: 11)\n 12444: a0 = u64 [s1 + 0xd0]\n 12448: a1 = u64 [s1 + 0x118]\n 12452: a2 = a1 & a0\n 12455: u64 [a3 + 416] = 0\n 12459: u64 [a3 + 408] = 0\n 12463: u64 [a3 + 400] = 0\n 12467: a0 = s1 + 0x1ac0\n 12471: a1 = s1 + 0x1aa0\n 12475: u64 [s1 + 0x198] = a2\n 12479: u64 [a3 + 0x188] = a2\n 12483: ra = 474, jump @1648\n      : @484 [@dyn 237] (gas: 13)\n 12489: a1 = s1 + 0x1918\n 12493: a2 = a1 + 0x100\n 12497: a0 = u64 [a2 + 0xa8]\n 12501: u64 [s1 + 0x190] = a0\n 12505: a0 = u64 [a2 + 0xb0]\n 12509: u64 [s1 + 0x188] = a0\n 12513: a0 = u64 [a2 + 0xb8]\n 12517: u64 [s1 + 0x180] = a0\n 12521: a0 = u64 [a2 + 0xc0]\n 12525: u64 [s1 + 0x168] = a0\n 12529: a0 = s1 + 0x1a80\n 12533: a1 = 0x40\n 12536: ra = 476, jump @22\n      : @485 [@dyn 238] (gas: 26)\n 12542: a0 = s1 + 0x1918\n 12546: a2 = u64 [a0 + 0x180]\n 12550: u64 [s1 + 0xa8] = a2\n 12554: a4 = u64 [a0 + 0x178]\n 12558: u64 [s1 + 0xa0] = a4\n 12562: a5 = u64 [a0 + 0x170]\n 12566: u64 [s1 + 0x98] = a5\n 12570: a3 = u64 [a0 + 0x168]\n 12574: u64 [s1 + 0xb0] = a3\n 12578: a1 = u64 [s1 + 0x168]\n 12582: u64 [a0 + 0x140] = a1\n 12586: a1 = u64 [s1 + 0x180]\n 12590: u64 [a0 + 0x138] = a1\n 12594: a1 = u64 [s1 + 0x188]\n 12598: u64 [a0 + 0x130] = a1\n 12602: a1 = u64 [s1 + 0x190]\n 12606: u64 [a0 + 0x128] = a1\n 12610: a1 = a0 + 0x100\n 12614: u64 [a1 + 0x60] = a2\n 12617: u64 [a1 + 0x58] = a4\n 12620: u64 [a1 + 0x50] = a5\n 12623: a2 = a0\n 12625: a0 = s1 + 0x1a60\n 12629: a1 = s1 + 0x1a40\n 12633: u64 [a2 + 0x148] = a3\n 12637: ra = 478, jump @1567\n      : @486 [@dyn 239] (gas: 7)\n 12643: a1 = u64 [s1 + 0x98]\n 12647: a2 = u64 [s1 + 0xa0]\n 12651: a0 = u64 [s1 + 0xa8]\n 12655: a0 = a0 | a1\n 12658: a1 = u64 [s1 + 0xb0]\n 12662: a5 = a1\n 12664: t0 = 480, jump @1834\n      : @487 [@dyn 240] (gas: 1)\n 12671: jump @489 if a0 == 0\n      : @488 (gas: 1)\n 12674: jump @1045\n      : @489 (gas: 9)\n 12677: a0 = s1 + 0x1918\n 12681: u64 [a0 + 288] = 0\n 12685: u64 [a0 + 280] = 0\n 12689: u64 [a0 + 272] = 0\n 12693: a1 = s1 + 0x1a20\n 12697: a2 = u64 [s1 + 0x198]\n 12701: u64 [a0 + 0x108] = a2\n 12705: a0 = a5\n 12707: ra = 482, jump @24\n      : @490 [@dyn 241] (gas: 9)\n 12713: a2 = s1 + 0x1918\n 12717: u64 [a2 + 224] = 0\n 12721: u64 [a2 + 216] = 0\n 12725: a0 = u64 [s1 + 0x198]\n 12729: u64 [a2 + 0xc8] = a0\n 12733: a0 = s1 + 0x1a00\n 12737: a1 = s1 + 0x19e0\n 12741: u64 [a2 + 208] = 0\n 12745: ra = 484, jump @1648\n      : @491 [@dyn 242] (gas: 49)\n 12751: a3 = s1 + 0x1918\n 12755: a0 = u64 [a3 + 0xe8]\n 12759: t0 = 0\n 12761: t1 = 0\n 12763: ra = 0\n 12765: a4 = 0\n 12767: a1 = u64 [a3 + 0xf0]\n 12771: a2 = u64 [a3 + 0xf8]\n 12775: a5 = a3\n 12777: a3 = a0 + 0xffffffffffffffe0\n 12780: u64 [s1 + 0x118] = a3\n 12784: a0 = a3 <u a0\n 12787: a3 = a1 + a0\n 12790: a3 = a3 + 0xffffffffffffffff\n 12793: t2 = a3 ^ a1\n 12796: u64 [s1 + 0x110] = a3\n 12800: a1 = a3 <u a1\n 12803: a1 = a0 if t2 == 0\n 12806: a0 = u64 [a5 + 0x100]\n 12810: a3 = a2 + 0xffffffffffffffff\n 12813: a1 = a1 + a3\n 12816: a5 = s1 + 0x100\n 12820: u64 [a5 + 0x8] = a1\n 12823: a1 = a1 <u a3\n 12826: a2 = a2 <u 0x1\n 12829: a0 = a0 - a2\n 12832: a0 = a0 + a1\n 12835: u64 [a5] = a0\n 12837: a1 = u64 [s1 + 0xb0]\n 12841: a0 = a1 + 0x20\n 12844: u64 [s1 + 0xf0] = a0\n 12848: a0 = a0 <u a1\n 12851: a2 = u64 [s1 + 0x98]\n 12855: a1 = a2 + a0\n 12858: u64 [s1 + 0xe8] = a1\n 12862: a1 = a1 <u a2\n 12865: a1 = a0 if a0 == 0\n 12868: a0 = u64 [s1 + 0xa0]\n 12872: a1 = a1 + a0\n 12875: u64 [s1 + 0xe0] = a1\n 12879: a0 = a1 <u a0\n 12882: a1 = u64 [s1 + 0xa8]\n 12886: a0 = a0 + a1\n 12889: u64 [s1 + 0xd8] = a0\n 12893: a0 = 0x100000000\n 12903: u64 [a5 + 0x60] = a0\n 12906: a0 = 0xffffffe0\n 12916: u64 [s1 + 0xf8] = a0\n 12920: fallthrough\n      : @492 (gas: 16)\n 12921: a0 = u64 [s1 + 0x118]\n 12925: a0 = t0 <u a0\n 12928: a2 = u64 [s1 + 0x110]\n 12932: a1 = t1 ^ a2\n 12935: a2 = t1 <u a2\n 12938: a2 = a0 if a1 == 0\n 12941: a0 = u64 [s1 + 0x108]\n 12945: a5 = ra <u a0\n 12948: a3 = u64 [s1 + 0x100]\n 12952: a1 = a4 ^ a3\n 12955: a3 = a4 <u a3\n 12958: a3 = a5 if a1 == 0\n 12961: a0 = ra ^ a0\n 12964: a0 = a0 | a1\n 12967: a3 = a2 if a0 == 0\n 12970: jump @494 if a3 != 0\n      : @493 (gas: 1)\n 12973: jump @865\n      : @494 (gas: 7)\n 12976: u64 [s1 + 0x120] = t1\n 12980: u64 [s1 + 0x148] = t0\n 12984: u64 [s1 + 0x150] = ra\n 12988: u64 [s1 + 0x158] = a4\n 12992: a0 = s1 + 0x1400\n 12996: a1 = 0x40\n 12999: ra = 486, jump @22\n      : @495 [@dyn 243] (gas: 18)\n 13005: a1 = s1 + 0x1118\n 13009: a0 = u64 [a1 + 0x300]\n 13013: u64 [s1 + 0x188] = a0\n 13017: a5 = a1 + 0x200\n 13021: a3 = u64 [a5 + 0xf8]\n 13025: u64 [s1 + 0x180] = a3\n 13029: a2 = u64 [a5 + 0xf0]\n 13033: u64 [s1 + 0x190] = a2\n 13037: a4 = u64 [a5 + 0xe8]\n 13041: u64 [s1 + 0x198] = a4\n 13045: u64 [a5 + 0xe0] = a0\n 13049: u64 [a5 + 0xd8] = a3\n 13053: u64 [a5 + 0xd0] = a2\n 13057: a0 = s1 + 0x13e0\n 13061: u64 [a5 + 0xc8] = a4\n 13065: ra = 0x1e8\n 13069: t0 = 0x684\n 13073: jump @1831\n      : @496 [@dyn 244] (gas: 7)\n 13077: a3 = s1 + 0x100\n 13081: a2 = u64 [a3 + 0x80]\n 13085: a0 = u64 [a3 + 0x88]\n 13089: a1 = u64 [a3 + 0x90]\n 13093: a0 = a0 | a1\n 13096: a1 = u64 [a3 + 0x98]\n 13100: t0 = 490, jump @1834\n      : @497 [@dyn 245] (gas: 1)\n 13107: jump @499 if a0 == 0\n      : @498 (gas: 1)\n 13110: jump @1045\n      : @499 (gas: 8)\n 13113: a0 = s1 + 0x1118\n 13117: u64 [a0 + 704] = 0\n 13121: u64 [a0 + 696] = 0\n 13125: u64 [a0 + 688] = 0\n 13129: a1 = s1 + 0x13c0\n 13133: u64 [a0 + 680] = 0\n 13137: a0 = u64 [s1 + 0x198]\n 13141: ra = 492, jump @24\n      : @500 [@dyn 246] (gas: 12)\n 13147: a3 = s1 + 0x100\n 13151: a0 = u64 [a3 + 0x80]\n 13155: a1 = u64 [a3 + 0x88]\n 13159: a1 = a1 | a0\n 13162: a0 = u64 [s1 + 0xf8]\n 13166: a2 = u64 [a3 + 0x98]\n 13170: a0 = a2 <u a0\n 13173: a2 = u64 [a3 + 0x90]\n 13177: a0 = 0 if a2 != 0\n 13179: u64 [a3 + 0x68] = a1\n 13182: a0 = 0 if a1 != 0\n 13184: jump @502 if a0 != 0\n      : @501 (gas: 1)\n 13187: jump @1045\n      : @502 (gas: 9)\n 13190: a0 = u64 [s1 + 0x198]\n 13194: i32 a0 = a0 + 0x20\n 13197: a2 = s1 + 0x1118\n 13201: u64 [a2 + 672] = 0\n 13205: u64 [a2 + 664] = 0\n 13209: u64 [a2 + 656] = 0\n 13213: a1 = s1 + 0x13a0\n 13217: u64 [a2 + 648] = 0\n 13221: ra = 494, jump @24\n      : @503 [@dyn 247] (gas: 4)\n 13227: a2 = s1 + 0x100\n 13231: a0 = u64 [a2 + 0x60]\n 13234: a0 = a0 + 0xffffffffffffffc0\n 13237: t0 = 496, jump @1840\n      : @504 [@dyn 248] (gas: 1)\n 13244: jump @506 if a0 != 0\n      : @505 (gas: 1)\n 13247: jump @1045\n      : @506 (gas: 9)\n 13250: a0 = u64 [s1 + 0x198]\n 13254: i32 a0 = a0 + 0x40\n 13257: a3 = s1 + 0x1118\n 13261: u64 [a3 + 640] = 0\n 13265: u64 [a3 + 632] = 0\n 13269: u64 [a3 + 624] = 0\n 13273: a1 = s1 + 0x1380\n 13277: u64 [a3 + 616] = 0x60\n 13282: ra = 498, jump @24\n      : @507 [@dyn 249] (gas: 4)\n 13288: a2 = s1 + 0x100\n 13292: a0 = u64 [a2 + 0x60]\n 13295: a0 = a0 + 0xffffffffffffffa0\n 13298: t0 = 500, jump @1840\n      : @508 [@dyn 250] (gas: 1)\n 13305: jump @510 if a0 != 0\n      : @509 (gas: 1)\n 13308: jump @1045\n      : @510 (gas: 9)\n 13311: a0 = u64 [s1 + 0x198]\n 13315: i32 a0 = a0 + 0x60\n 13318: a2 = s1 + 0x1118\n 13322: u64 [a2 + 608] = 0\n 13326: u64 [a2 + 600] = 0\n 13330: u64 [a2 + 592] = 0\n 13334: a1 = s1 + 0x1360\n 13338: u64 [a2 + 584] = 0\n 13342: ra = 502, jump @24\n      : @511 [@dyn 251] (gas: 4)\n 13348: a2 = s1 + 0x100\n 13352: a0 = u64 [a2 + 0x60]\n 13355: a0 = a0 + 0xffffffffffffff80\n 13358: t0 = 504, jump @1840\n      : @512 [@dyn 252] (gas: 1)\n 13365: jump @514 if a0 != 0\n      : @513 (gas: 1)\n 13368: jump @1045\n      : @514 (gas: 9)\n 13371: a0 = u64 [s1 + 0x198]\n 13375: i32 a0 = a0 + 0x80\n 13379: a2 = s1 + 0x1118\n 13383: u64 [a2 + 576] = 0\n 13387: u64 [a2 + 568] = 0\n 13391: u64 [a2 + 560] = 0\n 13395: a1 = s1 + 0x1340\n 13399: u64 [a2 + 552] = 0\n 13403: ra = 506, jump @24\n      : @515 [@dyn 253] (gas: 8)\n 13409: t1 = u64 [s1 + 0x148]\n 13413: a1 = u64 [s1 + 0xf0]\n 13417: a0 = a1 + t1\n 13420: a1 = a0 <u a1\n 13423: t2 = u64 [s1 + 0x120]\n 13427: a4 = u64 [s1 + 0xe8]\n 13431: a2 = a4 + t2\n 13434: t0 = 508, jump @1841\n      : @516 [@dyn 254] (gas: 19)\n 13441: ra = u64 [s1 + 0x150]\n 13445: a5 = u64 [s1 + 0xe0]\n 13449: a1 = a5 + ra\n 13452: t0 = a1 <u a5\n 13455: a5 = u64 [s1 + 0x158]\n 13459: a3 = u64 [s1 + 0xd8]\n 13463: a5 = a5 + a3\n 13466: a5 = a5 + t0\n 13469: a4 = a4 + a1\n 13472: a1 = a4 <u a1\n 13475: a1 = a1 + a5\n 13478: a1 = a1 | a2\n 13481: a2 = a0 | a4\n 13484: a2 = a2 | a1\n 13487: a1 = a1 | a4\n 13490: a2 = a2 >> 0x20\n 13493: a1 = a1 << 0x20\n 13496: a1 = a1 | a2\n 13499: jump @518 if a1 == 0\n      : @517 (gas: 1)\n 13502: jump @1045\n      : @518 (gas: 12)\n 13505: a2 = s1 + 0x1118\n 13509: a1 = u64 [s1 + 0x198]\n 13513: a4 = a2 + 0x200\n 13517: u64 [a4 + 0x8] = a1\n 13520: a1 = u64 [s1 + 0x190]\n 13524: u64 [a4 + 0x10] = a1\n 13527: a1 = u64 [s1 + 0x180]\n 13531: u64 [a4 + 0x18] = a1\n 13534: a1 = s1 + 0x1320\n 13538: a3 = u64 [s1 + 0x188]\n 13542: u64 [a4 + 0x20] = a3\n 13545: ra = 510, jump @24\n      : @519 [@dyn 255] (gas: 7)\n 13551: a5 = s1 + 0x100\n 13555: a4 = u64 [a5 + 0x58]\n 13558: a1 = u64 [a5 + 0x48]\n 13561: a0 = a1 + 0x20\n 13564: a1 = a0 <u a1\n 13567: a3 = u64 [a5 + 0x20]\n 13570: t0 = 512, jump @1828\n      : @520 [@dyn 256] (gas: 8)\n 13577: a1 = u64 [a5 + 0x50]\n 13580: a3 = a3 + a1\n 13583: a1 = a3 <u a1\n 13586: a4 = a4 + a1\n 13589: t0 = a0\n 13591: t1 = a2\n 13593: ra = a3\n 13595: jump @492\n      : @521 (gas: 11)\n 13598: u64 [a2 + 1024] = 0\n 13602: u64 [a2 + 1016] = 0\n 13606: u64 [a2 + 1008] = 0\n 13610: u64 [a2 + 1000] = 0\n 13614: a0 = s1 + 0x3000\n 13618: i32 a0 = a0 + 0x500\n 13622: ra = 0x202\n 13626: ecalli 16 // 'value_transferred'\n 13628: a0 = 0x3118\n 13632: t0 = 0x204\n 13636: jump @1851\n      : @522 [@dyn 257] (gas: 2)\n 13640: a0 = 0x3118\n 13644: t0 = 516, jump @1851\n      : @523 [@dyn 258] (gas: 1)\n 13651: jump @525 if a0 == 0\n      : @524 (gas: 1)\n 13654: jump @1103\n      : @525 (gas: 1)\n 13657: t0 = 518, jump @1842\n      : @526 [@dyn 259] (gas: 1)\n 13664: jump @528 if a1 <u a0\n      : @527 (gas: 1)\n 13667: jump @1091\n      : @528 (gas: 6)\n 13670: a0 = s1 + 0x3000\n 13674: i32 a0 = a0 + 0x520\n 13678: a1 = 0x4\n 13681: ra = 0x208\n 13685: ecalli 2 // 'call_data_load'\n 13687: fallthrough\n      : @529 [@dyn 260] (gas: 7)\n 13688: a0 = s1 + 0x3118\n 13692: a5 = a0 + 0x400\n 13696: a1 = u64 [a5 + 0x20]\n 13699: a2 = u64 [a5 + 0x18]\n 13702: a3 = u64 [a5 + 0x10]\n 13705: a4 = u64 [a5 + 0x8]\n 13708: t0 = 522, jump @1861\n      : @530 [@dyn 261] (gas: 1)\n 13715: jump @532 if a0 != 0\n      : @531 (gas: 1)\n 13718: jump @1092\n      : @532 (gas: 8)\n 13721: a0 = 0x30190\n 13726: u64 [s1 + 0x198] = a0\n 13730: i32 a0 = a0 + 0\n 13732: u64 [s1 + 0x168] = a0\n 13736: ra = 0x20c\n 13740: ecalli 4 // 'caller'\n 13742: t0 = 0x20e\n 13746: jump @1816\n      : @533 [@dyn 262] (gas: 1)\n 13750: t0 = 526, jump @1816\n      : @534 [@dyn 263] (gas: 7)\n 13757: u64 [s1 + 1464] = 0\n 13761: u64 [s1 + 0x5b0] = a1\n 13765: u64 [s1 + 0x5a8] = a0\n 13769: a1 = s1 + 0x5a0\n 13773: u64 [s1 + 0x5a0] = a3\n 13777: a0 = 0\n 13779: ra = 528, jump @24\n      : @535 [@dyn 264] (gas: 7)\n 13785: u64 [s1 + 1432] = 0\n 13789: u64 [s1 + 1424] = 0\n 13793: u64 [s1 + 1408] = 0x1\n 13798: a0 = 0x20\n 13801: a1 = s1 + 0x580\n 13805: u64 [s1 + 1416] = 0\n 13809: ra = 530, jump @24\n      : @536 [@dyn 265] (gas: 7)\n 13815: a0 = sp + 0xffffffffffffffe0\n 13818: a0 = a0 & 0xffffffffffffffe0\n 13821: u64 [s1 + 0x170] = a0\n 13825: sp = a0\n 13827: a2 = 0x20180\n 13832: a0 = i32 [0x20180]\n 13837: jump @538 if a0 >u 63\n      : @537 (gas: 2)\n 13841: u32 [0x20180] = 0x40\n 13847: fallthrough\n      : @538 (gas: 16)\n 13848: u64 [s1 + 0x140] = a2\n 13852: a0 = sp + 0xffffffffffffffe0\n 13855: a2 = a0 & 0xffffffffffffffe0\n 13858: u64 [s1 + 0x158] = a2\n 13862: sp = a2\n 13864: a0 = 0x20190\n 13869: u64 [s1 + 0x160] = a0\n 13873: i32 a0 = a0 + 0\n 13875: i32 a2 = a2 + 0\n 13877: a1 = 0x40\n 13880: u64 [s1 + 0x148] = a0\n 13884: ra = 0x214\n 13888: ecalli 8 // 'hash_keccak_256'\n 13890: a3 = u64 [s1 + 0x158]\n 13894: t0 = 0x216\n 13898: jump @1800\n      : @539 [@dyn 266] (gas: 2)\n 13902: a3 = u64 [s1 + 0x158]\n 13906: t0 = 534, jump @1800\n      : @540 [@dyn 267] (gas: 7)\n 13913: a1 = u64 [s1 + 0x170]\n 13917: u64 [a1 + 0x18] = a3\n 13920: u64 [a1 + 0x10] = a2\n 13923: u64 [a1 + 0x8] = a4\n 13926: u64 [a1] = a0\n 13928: a0 = s1 + 0x560\n 13932: ra = 536, jump @26\n      : @541 [@dyn 268] (gas: 20)\n 13938: t0 = u64 [s1 + 0x578]\n 13942: a1 = u64 [s1 + 0x568]\n 13946: t2 = u64 [s1 + 0x570]\n 13950: t1 = u64 [s1 + 0x560]\n 13954: ra = u64 [s1 + 0x180]\n 13958: a0 = t0 ^ ra\n 13961: a2 = u64 [s1 + 0x190]\n 13965: a5 = a1 ^ a2\n 13968: a3 = a1 <u a2\n 13971: a2 = u64 [s1 + 0x188]\n 13975: a2 = t1 <u a2\n 13978: a2 = a3 if a5 != 0\n 13981: a3 = t0 <u ra\n 13984: a4 = u64 [s1 + 0x178]\n 13988: a5 = t2 <u a4\n 13991: a5 = a3 if a0 != 0\n 13994: a3 = t2 ^ a4\n 13997: a3 = a3 | a0\n 14000: a2 = a5 if a3 != 0\n 14003: jump @543 if a2 == 0\n      : @542 (gas: 1)\n 14006: jump @1096\n      : @543 (gas: 14)\n 14009: a0 = u64 [s1 + 0x188]\n 14013: u64 [s1 + 0x500] = a0\n 14017: u64 [s1 + 0x520] = t1\n 14021: a0 = u64 [s1 + 0x190]\n 14025: u64 [s1 + 0x508] = a0\n 14029: u64 [s1 + 0x528] = a1\n 14033: u64 [s1 + 0x510] = a4\n 14037: u64 [s1 + 0x530] = t2\n 14041: u64 [s1 + 0x518] = ra\n 14045: a0 = s1 + 0x540\n 14049: a1 = s1 + 0x520\n 14053: a2 = s1 + 0x500\n 14057: u64 [s1 + 0x538] = t0\n 14061: ra = 538, jump @1599\n      : @544 [@dyn 269] (gas: 14)\n 14067: a4 = s1 + 0x500\n 14071: a0 = u64 [a4 + 0x58]\n 14074: a1 = u64 [a4 + 0x50]\n 14077: a2 = u64 [a4 + 0x48]\n 14080: a3 = u64 [a4 + 0x40]\n 14083: a4 = s1 + 0x3118\n 14087: a5 = a4 + 0x400\n 14091: u64 [a5 + 0x40] = a0\n 14094: u64 [a5 + 0x38] = a1\n 14097: u64 [a5 + 0x30] = a2\n 14100: u64 [a5 + 0x28] = a3\n 14103: a1 = s1 + 0x3540\n 14107: a0 = u64 [s1 + 0x170]\n 14111: ra = 540, jump @28\n      : @545 [@dyn 270] (gas: 5)\n 14117: a0 = u64 [s1 + 0x168]\n 14121: ra = 0x21e\n 14125: ecalli 4 // 'caller'\n 14127: t0 = 0x220\n 14131: jump @1862\n      : @546 [@dyn 271] (gas: 1)\n 14135: t0 = 544, jump @1862\n      : @547 [@dyn 272] (gas: 4)\n 14142: ra = 0x222\n 14146: ecalli 10 // 'ref_time_left'\n 14148: t0 = 0x224\n 14152: jump @1822\n      : @548 [@dyn 273] (gas: 1)\n 14156: t0 = 548, jump @1822\n      : @549 [@dyn 274] (gas: 37)\n 14163: a4 = a2 + 0x400\n 14167: u64 [a4 + 0x60] = a1\n 14170: a1 = u64 [s1 + 0x178]\n 14174: u64 [a4 + 0x58] = a1\n 14177: a1 = u64 [s1 + 0x190]\n 14181: u64 [a4 + 0x50] = a1\n 14184: a1 = u64 [s1 + 0x188]\n 14188: u64 [a4 + 0x48] = a1\n 14191: u32 [a2 + 1128] = 0\n 14195: a0 = a0 >u 0x8fc\n 14199: a1 = -a0\n 14201: u64 [a4 + 0xa0] = a1\n 14205: u64 [a4 + 0x98] = a1\n 14209: u64 [a4 + 0x90] = a1\n 14213: u64 [a4 + 0x88] = a1\n 14217: a1 = a3 << 0x20\n 14220: a1 = a1 >> 0x20\n 14223: a0 = a0 << 0x23\n 14226: a0 = a0 | a1\n 14229: a1 = s1 + 0x3560\n 14233: a1 = a1 << 0x20\n 14236: a1 = a1 >> 0x20\n 14239: a2 = s1 + 0x35a0\n 14243: a2 = a2 << 0x20\n 14246: a3 = a2 | a1\n 14249: a4 = u64 [s1 + 0x160]\n 14253: a4 = a4 << 0x20\n 14256: a4 = a4 >> 0x20\n 14259: a1 = s1 + 0x3580\n 14263: a1 = a1 << 0x20\n 14266: a5 = a1 | a4\n 14269: a1 = 0xffffffffffffffff\n 14272: a2 = 0xffffffffffffffff\n 14275: ecalli 0 // 'call'\n 14276: u64 [s1 + 0x170] = a0\n 14280: a0 = s1 + 0x4e0\n 14284: ra = 550, jump @1616\n      : @550 [@dyn 275] (gas: 2)\n 14290: a0 = u64 [s1 + 0x170]\n 14294: jump @552 if a0 == 0\n      : @551 (gas: 1)\n 14297: jump @1104\n      : @552 (gas: 3)\n 14300: a0 = s1 + 0x4a0\n 14304: a1 = 0x40\n 14307: ra = 552, jump @22\n      : @553 [@dyn 276] (gas: 6)\n 14313: a4 = s1 + 0x400\n 14317: a0 = u64 [a4 + 0xb8]\n 14321: a1 = u64 [a4 + 0xb0]\n 14325: a2 = u64 [a4 + 0xa8]\n 14329: a3 = u64 [a4 + 0xa0]\n 14333: t0 = 554, jump @1809\n      : @554 [@dyn 277] (gas: 1)\n 14340: jump @556 if a0 == 0\n      : @555 (gas: 1)\n 14343: jump @1045\n      : @556 (gas: 12)\n 14346: a0 = u64 [s1 + 0x188]\n 14350: u64 [s1 + 0x480] = a0\n 14354: a0 = u64 [s1 + 0x190]\n 14358: u64 [s1 + 0x488] = a0\n 14362: a0 = u64 [s1 + 0x178]\n 14366: u64 [s1 + 0x490] = a0\n 14370: a1 = s1 + 0x480\n 14374: a0 = u64 [s1 + 0x180]\n 14378: u64 [s1 + 0x498] = a0\n 14382: a0 = a3\n 14384: u64 [s1 + 0x190] = a3\n 14388: ra = 556, jump @24\n      : @557 [@dyn 278] (gas: 6)\n 14394: a0 = u64 [s1 + 0x168]\n 14398: ra = 0x22e\n 14402: ecalli 4 // 'caller'\n 14404: a2 = u64 [s1 + 0x198]\n 14408: t0 = 0x230\n 14412: jump @1795\n      : @558 [@dyn 279] (gas: 2)\n 14416: a2 = u64 [s1 + 0x198]\n 14420: t0 = 560, jump @1795\n      : @559 [@dyn 280] (gas: 24)\n 14427: t0 = a1 | a0\n 14430: a3 = a3 >> 0x20\n 14433: a2 = reverse a2\n 14435: a1 = a2 << 0x20\n 14438: a1 = a1 | a3\n 14441: a2 = a2 >> 0x20\n 14444: u64 [s1 + 1112] = 0\n 14448: a3 = u64 [0x20100]\n 14453: a4 = u64 [0x20108]\n 14458: a5 = u64 [0x20110]\n 14463: a0 = u64 [0x20118]\n 14468: u64 [s1 + 0x478] = a3\n 14472: a3 = s1 + 0x400\n 14476: u64 [a3 + 0x70] = a4\n 14479: u64 [a3 + 0x68] = a5\n 14482: u64 [a3 + 0x60] = a0\n 14485: u64 [a3 + 0x50] = a2\n 14488: u64 [a3 + 0x48] = a1\n 14491: a1 = 0x20\n 14494: a2 = s1 + 0x460\n 14498: a3 = s1 + 0x440\n 14502: u64 [s1 + 0x440] = t0\n 14506: a0 = u64 [s1 + 0x190]\n 14510: ra = 562, jump @29\n      : @560 [@dyn 281] (gas: 7)\n 14516: a0 = 0\n 14518: a1 = u64 [s1 + 0x148]\n 14522: a2 = 0\n 14524: ra = 0x4ee\n 14528: ecalli 13 // 'seal_return'\n 14530: t0 = 0x4f0\n 14534: jump @1842\n      : @561 (gas: 10)\n 14538: a0 = s1 + 0x3918\n 14542: u64 [a0 + 544] = 0\n 14546: u64 [a0 + 536] = 0\n 14550: u64 [a0 + 528] = 0\n 14554: u64 [a0 + 520] = 0\n 14558: a0 = s1 + 0x4000\n 14562: i32 a0 = a0 + 0xfffffffffffffb20\n 14566: ra = 0x234\n 14570: ecalli 16 // 'value_transferred'\n 14572: fallthrough\n      : @562 [@dyn 282] (gas: 10)\n 14573: a3 = s1 + 0x3918\n 14577: a4 = a3 + 0x200\n 14581: a0 = u64 [a4 + 0x18]\n 14584: a1 = u64 [a4 + 0x20]\n 14587: a2 = u64 [a4 + 0x10]\n 14590: a3 = u64 [a4 + 0x8]\n 14593: a1 = a1 | a2\n 14596: a0 = a0 | a3\n 14599: a0 = a0 | a1\n 14602: jump @564 if a0 == 0\n      : @563 (gas: 1)\n 14605: jump @1108\n      : @564 (gas: 1)\n 14608: t0 = 566, jump @1842\n      : @565 [@dyn 283] (gas: 1)\n 14615: jump @567 if a1 <u a0\n      : @566 (gas: 1)\n 14618: jump @1097\n      : @567 (gas: 5)\n 14621: a0 = s1 + 0x4000\n 14625: i32 a0 = a0 + 0xfffffffffffffb40\n 14629: a1 = 0x4\n 14632: ecalli 2 // 'call_data_load'\n 14634: fallthrough\n      : @568 (gas: 9)\n 14635: a2 = s1 + 0x3918\n 14639: a0 = a2 + 0x200\n 14643: a3 = u64 [a0 + 0x40]\n 14646: a1 = u64 [a0 + 0x38]\n 14649: a4 = u64 [a0 + 0x30]\n 14652: a5 = a1 | a3\n 14655: a0 = a4 <u 0x1\n 14658: a0 = 0 if a5 != 0\n 14660: jump @570 if a0 != 0\n      : @569 (gas: 1)\n 14663: jump @1109\n      : @570 (gas: 20)\n 14666: u64 [s1 + 0x98] = a5\n 14670: a5 = u64 [a2 + 0x228]\n 14674: a0 = u64 [s1 + 0x198]\n 14678: t1 = u32 [a0]\n 14680: a0 = a5 + 0x23\n 14683: a2 = a0 <u a5\n 14686: t0 = a4 + a2\n 14689: u64 [s1 + 0xd0] = a4\n 14693: a4 = t0 <u a4\n 14696: a4 = a2 if a2 == 0\n 14699: a4 = a4 + a1\n 14702: u64 [s1 + 0x180] = a1\n 14706: a2 = a4 <u a1\n 14709: u64 [s1 + 0x188] = a3\n 14713: a2 = a2 + a3\n 14716: a2 = a2 | a4\n 14719: a0 = a0 <u t1\n 14722: a0 = 0 if t0 != 0\n 14724: a0 = 0 if a2 != 0\n 14726: jump @572 if a0 != 0\n      : @571 (gas: 1)\n 14729: jump @1110\n      : @572 (gas: 6)\n 14732: i32 a1 = a5 + 0x4\n 14735: a0 = s1 + 0x4000\n 14739: i32 a0 = a0 + 0xfffffffffffffb60\n 14743: u64 [s1 + 0xc8] = a5\n 14747: ecalli 2 // 'call_data_load'\n 14749: fallthrough\n      : @573 (gas: 10)\n 14750: a3 = s1 + 0x3918\n 14754: t0 = u64 [a3 + 0x260]\n 14758: a0 = u64 [a3 + 0x258]\n 14762: a2 = u64 [a3 + 0x250]\n 14766: u64 [s1 + 0xe8] = a0\n 14770: a0 = a0 | t0\n 14773: a1 = a2 <u 0x1\n 14776: u64 [s1 + 0x190] = a0\n 14780: a1 = 0 if a0 != 0\n 14782: jump @575 if a1 != 0\n      : @574 (gas: 1)\n 14785: jump @1111\n      : @575 (gas: 42)\n 14788: t2 = u64 [a3 + 0x248]\n 14792: a1 = u64 [s1 + 0xc8]\n 14796: a0 = a1 + 0x24\n 14799: a3 = a0 <u a1\n 14802: ra = u64 [s1 + 0xd0]\n 14806: a4 = ra + a3\n 14809: t1 = a0 + t2\n 14812: u64 [s1 + 0x120] = a0\n 14816: a5 = t1 <u a0\n 14819: a1 = a4 + a2\n 14822: a1 = a1 + a5\n 14825: a0 = a1 ^ a4\n 14828: u64 [s1 + 0xe0] = a2\n 14832: a2 = a1 <u a4\n 14835: a2 = a5 if a0 == 0\n 14838: a0 = a4 <u ra\n 14841: a0 = a3 if a3 == 0\n 14844: a3 = u64 [s1 + 0x180]\n 14848: a0 = a0 + a3\n 14851: a3 = a0 <u a3\n 14854: a4 = u64 [s1 + 0x188]\n 14858: a4 = a4 + t0\n 14861: a3 = a3 + a4\n 14864: a5 = u64 [s1 + 0xe8]\n 14868: a4 = a0 + a5\n 14871: a0 = a4 <u a0\n 14874: a0 = a0 + a3\n 14877: a3 = u64 [s1 + 0x198]\n 14881: a3 = u32 [a3]\n 14883: a2 = a2 + a4\n 14886: a4 = a2 <u a4\n 14889: a0 = a0 + a4\n 14892: a3 = a3 <u t1\n 14895: a4 = a1 <u 0x1\n 14898: a3 = a3 ^ 0x1\n 14901: a3 = a4 if a1 != 0\n 14904: a1 = a0 <u 0x1\n 14907: a4 = a2 <u 0x1\n 14910: a4 = a1 if a0 != 0\n 14913: a0 = a0 | a2\n 14916: a3 = a4 if a0 != 0\n 14919: jump @577 if a3 != 0\n      : @576 (gas: 1)\n 14922: jump @1112\n      : @577 (gas: 6)\n 14925: a0 = t2 <u 0x3\n 14928: a2 = u64 [s1 + 0xe0]\n 14932: a0 = 0 if a2 != 0\n 14934: a3 = u64 [s1 + 0x190]\n 14938: a0 = 0 if a3 != 0\n 14940: jump @579 if a0 == 0\n      : @578 (gas: 1)\n 14943: jump @1113\n      : @579 (gas: 12)\n 14946: a4 = a5\n 14948: a0 = a2 >u 0\n 14950: u64 [s1 + 0xb8] = t2\n 14954: a1 = t2 <u 0x65\n 14957: a1 = a1 ^ 0x1\n 14960: a1 = a0 if a2 != 0\n 14963: a0 = a5 >u 0\n 14965: a2 = t0 >u 0\n 14967: u64 [s1 + 0xb0] = t0\n 14971: a2 = a0 if t0 == 0\n 14974: a2 = a1 if a3 == 0\n 14977: jump @581 if a2 == 0\n      : @580 (gas: 1)\n 14980: jump @1118\n      : @581 (gas: 9)\n 14983: a0 = 0x30190\n 14988: u64 [s1 + 0xd8] = a0\n 14992: i32 a0 = a0 + 0\n 14994: u64 [s1 + 0xc0] = a0\n 14998: ra = 0x238\n 15002: ecalli 4 // 'caller'\n 15004: a2 = u64 [s1 + 0xd8]\n 15008: t0 = 0x23a\n 15012: jump @1812\n      : @582 [@dyn 284] (gas: 2)\n 15016: a2 = u64 [s1 + 0xd8]\n 15020: t0 = 570, jump @1812\n      : @583 [@dyn 285] (gas: 7)\n 15027: u64 [a2 + 224] = 0\n 15031: u64 [a2 + 0xd8] = a1\n 15035: u64 [a2 + 0xd0] = a0\n 15039: a1 = s1 + 0x31e0\n 15043: u64 [a2 + 0xc8] = a3\n 15047: a0 = 0\n 15049: ra = 572, jump @24\n      : @584 [@dyn 286] (gas: 9)\n 15055: a1 = s1 + 0x3118\n 15059: u64 [a1 + 192] = 0\n 15063: u64 [a1 + 184] = 0\n 15067: u64 [a1 + 168] = 0x3\n 15072: a2 = a1\n 15074: a0 = 0x20\n 15077: a1 = s1 + 0x31c0\n 15081: u64 [a2 + 176] = 0\n 15085: ra = 574, jump @24\n      : @585 [@dyn 287] (gas: 7)\n 15091: a0 = sp + 0xffffffffffffffe0\n 15094: a0 = a0 & 0xffffffffffffffe0\n 15097: u64 [s1 + 0x198] = a0\n 15101: sp = a0\n 15103: a2 = 0x20180\n 15108: a0 = i32 [0x20180]\n 15113: jump @587 if a0 >u 63\n      : @586 (gas: 2)\n 15117: u32 [0x20180] = 0x40\n 15123: fallthrough\n      : @587 (gas: 15)\n 15124: u64 [s1 + 0xa8] = a2\n 15128: a0 = sp + 0xffffffffffffffe0\n 15131: a2 = a0 & 0xffffffffffffffe0\n 15134: u64 [s1 + 0x190] = a2\n 15138: sp = a2\n 15140: a0 = 0x20190\n 15145: i32 a0 = a0 + 0\n 15147: i32 a2 = a2 + 0\n 15149: a1 = 0x40\n 15152: u64 [s1 + 0xa0] = a0\n 15156: ra = 0x240\n 15160: ecalli 8 // 'hash_keccak_256'\n 15162: a3 = u64 [s1 + 0x190]\n 15166: t0 = 0x242\n 15170: jump @1800\n      : @588 [@dyn 288] (gas: 2)\n 15174: a3 = u64 [s1 + 0x190]\n 15178: t0 = 578, jump @1800\n      : @589 [@dyn 289] (gas: 7)\n 15185: a1 = u64 [s1 + 0x198]\n 15189: u64 [a1 + 0x18] = a3\n 15192: u64 [a1 + 0x10] = a2\n 15195: u64 [a1 + 0x8] = a4\n 15198: u64 [a1] = a0\n 15200: a0 = s1 + 0x31a0\n 15204: ra = 580, jump @26\n      : @590 [@dyn 290] (gas: 10)\n 15210: a2 = s1 + 0x3118\n 15214: a0 = u32 [a2 + 0x88]\n 15218: a3 = 0\n 15220: u64 [a2 + 96] = 0\n 15223: u64 [a2 + 88] = 0\n 15226: u64 [a2 + 0x48] = a0\n 15229: a0 = s1 + 0x3180\n 15233: a1 = s1 + 0x3160\n 15237: u64 [a2 + 80] = 0\n 15240: ra = 582, jump @1632\n      : @591 [@dyn 291] (gas: 12)\n 15246: a0 = s1 + 0x3118\n 15250: a1 = u64 [a0 + 0x80]\n 15254: u64 [s1 + 0x108] = a1\n 15258: a1 = u64 [a0 + 0x78]\n 15261: u64 [s1 + 0x100] = a1\n 15265: a1 = u64 [a0 + 0x70]\n 15268: u64 [s1 + 0xf8] = a1\n 15272: a1 = u64 [a0 + 0x68]\n 15275: u64 [s1 + 0xf0] = a1\n 15279: a0 = s1 + 0x3140\n 15283: a1 = u64 [s1 + 0x198]\n 15287: ra = 584, jump @26\n      : @592 [@dyn 292] (gas: 23)\n 15293: a3 = s1 + 0x3118\n 15297: a0 = u32 [a3 + 0x2c]\n 15300: a0 = a0 << 0x20\n 15303: a1 = u64 [a3 + 0x30]\n 15306: a2 = u64 [a3 + 0x38]\n 15309: a3 = u64 [a3 + 0x40]\n 15312: a4 = u64 [s1 + 0xf0]\n 15316: a0 = a0 | a4\n 15319: a4 = u64 [s1 + 0xf8]\n 15323: a1 = a1 | a4\n 15326: a4 = u64 [s1 + 0x100]\n 15330: a2 = a2 | a4\n 15333: a4 = u64 [s1 + 0x108]\n 15337: a3 = a3 | a4\n 15340: a4 = s1 + 0x3918\n 15344: a5 = a4 + 0x200\n 15348: u64 [a5 + 0x80] = a3\n 15352: u64 [a5 + 0x78] = a2\n 15355: u64 [a5 + 0x70] = a1\n 15358: u64 [a5 + 0x68] = a0\n 15361: a1 = s1 + 0x3b80\n 15365: a0 = u64 [s1 + 0x198]\n 15369: ra = 586, jump @28\n      : @593 [@dyn 293] (gas: 4)\n 15375: a0 = s1 + 0x4000\n 15379: i32 a0 = a0 + 0xfffffffffffffba0\n 15383: ecalli 9 // 'now'\n 15385: fallthrough\n      : @594 (gas: 50)\n 15386: a0 = s1 + 0x3918\n 15390: t2 = u64 [a0 + 0x2a0]\n 15394: a3 = u64 [a0 + 0x298]\n 15398: u64 [s1 + 0x150] = a3\n 15402: t1 = u64 [a0 + 0x290]\n 15406: ra = u64 [a0 + 0x288]\n 15410: a0 = clz t2\n 15412: a1 = clz a3\n 15414: a2 = a1 + 0x40\n 15417: a2 = a0 if t2 != 0\n 15420: a0 = clz t1\n 15422: a1 = clz ra\n 15424: a1 = a1 + 0x40\n 15427: a1 = a0 if t1 != 0\n 15430: a0 = a1 + 0x80\n 15434: a3 = a3 | t2\n 15437: a2 = a0 if a3 == 0\n 15440: a5 = a0 <u a1\n 15443: a5 = 0 if a3 != 0\n 15445: a4 = a5 >u 0\n 15447: a0 = a2 <u 0xf0\n 15451: a3 = a0 ^ 0x1\n 15454: a4 = a3 if a5 == 0\n 15457: a0 = a4 <u 0x1\n 15460: a0 = a0 + 0xffffffffffffffff\n 15463: a1 = -a4\n 15465: a5 = -a5\n 15467: a3 = a5 - a3\n 15470: t0 = 0xef - a2\n 15474: u64 [s1 + 0x198] = a1\n 15478: a5 = a1 >u 0\n 15480: a1 = a0 >u 0\n 15482: a1 = a5 if a0 == 0\n 15485: a5 = t0 <u 0x100\n 15489: a5 = a5 ^ 0x1\n 15492: a2 = a3 >u 0\n 15494: a5 = a2 if a3 != 0\n 15497: a5 = a1 if a4 != 0\n 15500: u64 [s1 + 0x140] = t2\n 15504: a1 = t1 | t2\n 15507: t2 = t1\n 15509: t1 = u64 [s1 + 0x150]\n 15513: a2 = ra | t1\n 15516: a1 = a1 | a2\n 15519: a1 = a1 <u 0x1\n 15522: a1 = a1 | a5\n 15525: u64 [s1 + 0x158] = ra\n 15529: a4 = ra\n 15531: a4 = 0 if a1 != 0\n 15533: jump @596 if a1 == 0\n      : @595 (gas: 1)\n 15536: jump @794\n      : @596 (gas: 6)\n 15539: a1 = t0 ^ 0xff\n 15543: a5 = u64 [s1 + 0x198]\n 15547: a1 = a1 | a5\n 15550: a2 = a3 | a0\n 15553: a1 = a1 | a2\n 15556: jump @598 if a1 != 0\n      : @597 (gas: 1)\n 15559: jump @794\n      : @598 (gas: 19)\n 15562: a2 = t0 + 0x1\n 15565: u64 [s1 + 0x190] = a2\n 15569: a1 = a2 <u 0x1\n 15572: a1 = a1 + a3\n 15575: u64 [s1 + 0x180] = a1\n 15579: a1 = a1 | a2\n 15582: a1 = a1 <u 0x1\n 15585: a1 = a1 + a5\n 15588: u64 [s1 + 0x170] = a1\n 15592: a1 = a1 <u a5\n 15595: a0 = a0 + a1\n 15598: u64 [s1 + 0x178] = a0\n 15602: a1 = 0xff - t0\n 15606: u64 [s1 + 0x168] = a1\n 15610: a2 = 0x80 - a1\n 15614: a0 = u64 [s1 + 0x158]\n 15618: a1 = t2\n 15620: u64 [s1 + 0x148] = t2\n 15624: ra = 588, jump @1877\n      : @599 [@dyn 294] (gas: 1)\n 15631: t0 = 590, jump @1867\n      : @600 [@dyn 295] (gas: 1)\n 15638: ra = 592, jump @1882\n      : @601 [@dyn 296] (gas: 7)\n 15645: u64 [s1 + 0x130] = a0\n 15649: u64 [s1 + 0x128] = a1\n 15653: a0 = u64 [s1 + 0x168]\n 15657: a2 = a0 + 0xffffffffffffff80\n 15660: a0 = u64 [s1 + 0x158]\n 15664: a1 = u64 [s1 + 0x148]\n 15668: ra = 594, jump @1882\n      : @602 [@dyn 297] (gas: 1)\n 15675: t0 = 596, jump @1873\n      : @603 [@dyn 298] (gas: 3)\n 15682: a0 = u64 [s1 + 0x158]\n 15686: a1 = u64 [s1 + 0x148]\n 15690: ra = 598, jump @1882\n      : @604 [@dyn 299] (gas: 11)\n 15697: a4 = u64 [s1 + 0x138]\n 15701: t0 = u64 [s1 + 0x170]\n 15705: a5 = u64 [s1 + 0x178]\n 15709: a2 = u64 [s1 + 0x180]\n 15713: a5 = a5 | a2\n 15716: a3 = u64 [s1 + 0x190]\n 15720: a3 = a3 | t0\n 15723: a3 = a3 | a5\n 15726: a0 = 0 if a4 == 0\n 15728: u64 [s1 + 0x188] = a0\n 15732: jump @606 if a3 == 0\n      : @605 (gas: 1)\n 15735: jump @781\n      : @606 (gas: 2)\n 15738: a4 = 0\n 15740: jump @793\n      : @607 (gas: 9)\n 15743: a0 = s1 + 0x3918\n 15747: u64 [a0 + 192] = 0\n 15751: u64 [a0 + 184] = 0\n 15755: u64 [a0 + 176] = 0\n 15759: u64 [a0 + 168] = 0\n 15763: a0 = s1 + 0x4000\n 15767: i32 a0 = a0 + 0xfffffffffffff9c0\n 15771: ecalli 16 // 'value_transferred'\n 15773: fallthrough\n      : @608 (gas: 9)\n 15774: a3 = s1 + 0x3918\n 15778: a0 = u64 [a3 + 0xb8]\n 15782: a1 = u64 [a3 + 0xc0]\n 15786: a2 = u64 [a3 + 0xb0]\n 15790: a3 = u64 [a3 + 0xa8]\n 15794: a1 = a1 | a2\n 15797: a0 = a0 | a3\n 15800: a0 = a0 | a1\n 15803: jump @610 if a0 == 0\n      : @609 (gas: 1)\n 15806: jump @1124\n      : @610 (gas: 3)\n 15809: a0 = u64 [s1 + 0x198]\n 15813: a0 = i32 [a0]\n 15815: jump @612 if a0 >u 67\n      : @611 (gas: 1)\n 15819: jump @1125\n      : @612 (gas: 4)\n 15822: a0 = s1 + 0x2340\n 15826: ra = 0x258\n 15830: t0 = 0x63c\n 15834: jump @1863\n      : @613 [@dyn 300] (gas: 13)\n 15838: a0 = s1 + 0x2118\n 15842: a2 = a0 + 0x200\n 15846: a1 = u64 [a2 + 0x38]\n 15849: u64 [s1 + 0x168] = a1\n 15853: a1 = u64 [a2 + 0x30]\n 15856: u64 [s1 + 0x178] = a1\n 15860: a0 = u64 [a2 + 0x28]\n 15863: u64 [s1 + 0x170] = a0\n 15867: a0 = s1 + 0x4000\n 15871: i32 a0 = a0 + 0xfffffffffffff9e0\n 15875: a1 = 0x24\n 15878: ecalli 2 // 'call_data_load'\n 15880: fallthrough\n      : @614 (gas: 18)\n 15881: a0 = s1 + 0x3918\n 15885: a4 = u64 [a0 + 0xe0]\n 15889: a3 = u64 [a0 + 0xd8]\n 15893: a2 = u64 [a0 + 0xd0]\n 15897: a1 = u64 [a0 + 0xc8]\n 15901: a5 = s1 + 0x100\n 15905: u64 [a5 + 0x90] = a2\n 15909: u64 [a5 + 0x80] = a4\n 15913: a0 = a2 | a4\n 15916: u64 [a5 + 0x98] = a1\n 15920: a1 = a1 | a3\n 15923: a1 = a1 | a0\n 15926: a1 = a1 >> 0x20\n 15929: u64 [a5 + 0x88] = a3\n 15933: a0 = a0 | a3\n 15936: a0 = a0 << 0x20\n 15939: a0 = a0 | a1\n 15942: jump @616 if a0 == 0\n      : @615 (gas: 1)\n 15945: jump @1126\n      : @616 (gas: 15)\n 15948: a3 = s1 + 0x100\n 15952: a0 = u64 [a3 + 0x68]\n 15955: a0 = a0 << 0x20\n 15958: a0 = a0 >> 0x20\n 15961: a2 = s1 + 0x2118\n 15965: u64 [a2 + 544] = 0\n 15969: a1 = u64 [a3 + 0x70]\n 15972: a4 = a2 + 0x200\n 15976: u64 [a4 + 0x8] = a1\n 15979: a1 = u64 [a3 + 0x78]\n 15982: u64 [a4 + 0x10] = a1\n 15985: a1 = s1 + 0x2320\n 15989: u64 [a4 + 0x18] = a0\n 15992: a0 = 0\n 15994: ra = 602, jump @24\n      : @617 [@dyn 301] (gas: 3)\n 16000: t0 = 0x25c\n 16004: a1 = s1 + 0x2118\n 16008: fallthrough\n      : @618 [@dyn 302] (gas: 8)\n 16009: u64 [a1 + 512] = 0\n 16013: u64 [a1 + 504] = 0\n 16017: u64 [a1 + 488] = 0x2\n 16022: a2 = a1\n 16024: a0 = 0x20\n 16027: a1 = s1 + 0x2300\n 16031: u64 [a2 + 496] = 0\n 16035: ra = 606, jump @24\n      : @619 [@dyn 303] (gas: 3)\n 16041: a1 = 0x20180\n 16046: a0 = i32 [0x20180]\n 16051: jump @621 if a0 >u 63\n      : @620 (gas: 2)\n 16055: u32 [0x20180] = 0x40\n 16061: fallthrough\n      : @621 (gas: 14)\n 16062: a0 = sp + 0xffffffffffffffe0\n 16065: a2 = a0 & 0xffffffffffffffe0\n 16068: u64 [s1 + 0x168] = a2\n 16072: sp = a2\n 16074: a0 = 0x20190\n 16079: i32 a0 = a0 + 0\n 16081: i32 a2 = a2 + 0\n 16083: u64 [s1 + 0x178] = a1\n 16087: a1 = 0x40\n 16090: u64 [s1 + 0x170] = a0\n 16094: ra = 0x260\n 16098: ecalli 8 // 'hash_keccak_256'\n 16100: t0 = 0x262\n 16104: jump @1804\n      : @622 [@dyn 304] (gas: 1)\n 16107: t0 = 610, jump @1804\n      : @623 [@dyn 305] (gas: 14)\n 16113: i32 a0 = a0 + 0x118\n 16117: a2 = s1 + a0\n 16120: a0 = u64 [s1 + 0x180]\n 16124: a3 = a2 + 0x100\n 16128: u64 [a3 + 0xe0] = a0\n 16132: a0 = u64 [s1 + 0x188]\n 16136: u64 [a3 + 0xd8] = a0\n 16140: a0 = u64 [s1 + 0x190]\n 16144: u64 [a3 + 0xd0] = a0\n 16148: a1 = s1 + 0x22e0\n 16152: a0 = u64 [s1 + 0x198]\n 16156: u64 [a3 + 0xc8] = a0\n 16160: a0 = 0\n 16162: ra = 612, jump @24\n      : @624 [@dyn 306] (gas: 3)\n 16168: t0 = 0x266\n 16172: a1 = s1 + 0x2118\n 16176: fallthrough\n      : @625 [@dyn 307] (gas: 13)\n 16177: a0 = u64 [s1 + 0x148]\n 16181: a2 = a1 + 0x100\n 16185: u64 [a2 + 0xc0] = a0\n 16189: a0 = u64 [s1 + 0x150]\n 16193: u64 [a2 + 0xb8] = a0\n 16197: a0 = u64 [s1 + 0x158]\n 16201: u64 [a2 + 0xb0] = a0\n 16205: a3 = a1\n 16207: a0 = 0x20\n 16210: a1 = s1 + 0x22c0\n 16214: a2 = u64 [s1 + 0x160]\n 16218: u64 [a3 + 0x1a8] = a2\n 16222: ra = 616, jump @24\n      : @626 [@dyn 308] (gas: 1)\n 16228: t0 = 618, jump @1868\n      : @627 [@dyn 309] (gas: 1)\n 16235: jump @629 if a2 <u a0\n      : @628 (gas: 2)\n 16238: u32 [a1 + 0] = 0x40\n 16241: fallthrough\n      : @629 (gas: 4)\n 16242: a0 = sp + 0xffffffffffffffe0\n 16245: a0 = a0 & 0xffffffffffffffe0\n 16248: u64 [s1 + 0x198] = a0\n 16252: t0 = 620, jump @1798\n      : @630 [@dyn 310] (gas: 4)\n 16258: ra = 0x26e\n 16262: ecalli 8 // 'hash_keccak_256'\n 16264: t0 = 0x270\n 16268: jump @1811\n      : @631 [@dyn 311] (gas: 1)\n 16272: t0 = 624, jump @1811\n      : @632 [@dyn 312] (gas: 7)\n 16279: a1 = u64 [s1 + 0x168]\n 16283: u64 [a1 + 0x18] = a0\n 16286: u64 [a1 + 0x10] = a2\n 16289: u64 [a1 + 0x8] = a4\n 16292: u64 [a1] = a5\n 16294: a0 = s1 + 0x22a0\n 16298: ra = 626, jump @26\n      : @633 [@dyn 313] (gas: 27)\n 16304: a4 = s1 + 0x2118\n 16308: a0 = u64 [a4 + 0x198]\n 16312: u64 [s1 + 0x170] = a0\n 16316: a0 = u64 [a4 + 0x190]\n 16320: u64 [s1 + 0x168] = a0\n 16324: a0 = u64 [a4 + 0x188]\n 16328: u64 [s1 + 0x178] = a0\n 16332: a0 = u64 [s1 + 0x188]\n 16336: a0 = a0 + 0x1\n 16339: a1 = a0 <u 0x1\n 16342: a2 = u64 [s1 + 0x190]\n 16346: a1 = a1 + a2\n 16349: a2 = a0 | a1\n 16352: a2 = a2 <u 0x1\n 16355: a3 = u64 [s1 + 0x180]\n 16359: a2 = a2 + a3\n 16362: a3 = a2 <u a3\n 16365: a5 = u64 [s1 + 0x198]\n 16369: a3 = a3 + a5\n 16372: a5 = a4 + 0x100\n 16376: u64 [a5 + 0x50] = a1\n 16379: u64 [a5 + 0x48] = a0\n 16382: u64 [a5 + 0x58] = a2\n 16385: a0 = s1 + 0x2280\n 16389: a1 = s1 + 0x2260\n 16393: u64 [a5 + 0x60] = a3\n 16396: ra = 628, jump @1577\n      : @634 [@dyn 314] (gas: 8)\n 16402: a5 = s1 + 0x2118\n 16406: a0 = u64 [a5 + 0x180]\n 16410: u64 [s1 + 0x158] = a0\n 16414: a0 = u64 [a5 + 0x178]\n 16418: u64 [s1 + 0x160] = a0\n 16422: a1 = u64 [s1 + 0x188]\n 16426: a0 = a1 + 0x2\n 16429: t0 = 630, jump @1814\n      : @635 [@dyn 315] (gas: 3)\n 16435: a1 = u64 [a5 + 0x170]\n 16439: u64 [s1 + 0x150] = a1\n 16443: t0 = 632, jump @1854\n      : @636 [@dyn 316] (gas: 10)\n 16450: a4 = u64 [a5 + 0x168]\n 16454: u64 [s1 + 0x148] = a4\n 16458: a4 = s1 + 0x3918\n 16462: u64 [a4 + 0x100] = a1\n 16466: u64 [a4 + 0xf8] = a3\n 16470: u64 [a4 + 0xf0] = a2\n 16474: u64 [a4 + 0xe8] = a0\n 16478: a0 = s1 + 0x2240\n 16482: a1 = s1 + 0x3a00\n 16486: ra = 634, jump @26\n      : @637 [@dyn 317] (gas: 3)\n 16492: t0 = 0x27c\n 16496: a1 = s1 + 0x2118\n 16500: fallthrough\n      : @638 [@dyn 318] (gas: 7)\n 16501: a0 = u64 [a1 + 0x130]\n 16505: u64 [s1 + 0x138] = a0\n 16509: a0 = u64 [a1 + 0x128]\n 16513: u64 [s1 + 0x140] = a0\n 16517: a0 = s1 + 0x2220\n 16521: a1 = 0x40\n 16524: ra = 638, jump @22\n      : @639 [@dyn 319] (gas: 3)\n 16530: t0 = 0x280\n 16534: a2 = s1 + 0x2118\n 16538: fallthrough\n      : @640 [@dyn 320] (gas: 14)\n 16539: a3 = a2 + 0x100\n 16543: a4 = u64 [a3 + 0x20]\n 16546: a5 = u64 [a3 + 0x18]\n 16549: a1 = u64 [a3 + 0x10]\n 16552: a0 = u64 [a3 + 0x8]\n 16555: u64 [s1 + 0x198] = a1\n 16559: a3 = a1 | a4\n 16562: a1 = a0 | a5\n 16565: a1 = a1 | a3\n 16568: a1 = a1 >> 0x20\n 16571: a3 = a3 | a5\n 16574: a3 = a3 << 0x20\n 16577: a1 = a1 | a3\n 16580: jump @642 if a1 == 0\n      : @641 (gas: 1)\n 16583: jump @1045\n      : @642 (gas: 12)\n 16586: a1 = u64 [s1 + 0x178]\n 16590: a1 = a1 << 0x20\n 16593: a3 = a1 >> 0x20\n 16596: u64 [a2 + 256] = 0\n 16600: u64 [a2 + 248] = 0\n 16604: u64 [a2 + 240] = 0\n 16608: a1 = s1 + 0x2200\n 16612: u64 [a2 + 0xe8] = a3\n 16616: u64 [s1 + 0x190] = a0\n 16620: u64 [s1 + 0x188] = a4\n 16624: u64 [s1 + 0x180] = a5\n 16628: ra = 642, jump @24\n      : @643 [@dyn 321] (gas: 12)\n 16634: a4 = s1 + 0x100\n 16638: a5 = u64 [a4 + 0x90]\n 16642: a0 = u64 [a4 + 0x88]\n 16646: a1 = u64 [a4 + 0x80]\n 16650: a2 = a1 | a0\n 16653: a3 = 0x100000000\n 16663: a0 = 0xffffffe0\n 16673: a0 = a5 <u a0\n 16676: a1 = u64 [a4 + 0x98]\n 16680: a0 = 0 if a1 != 0\n 16682: a0 = 0 if a2 != 0\n 16684: jump @645 if a0 != 0\n      : @644 (gas: 1)\n 16687: jump @1045\n      : @645 (gas: 25)\n 16690: t0 = 0xffffffffffffffff\n 16693: a1 = 0xffffffff\n 16703: u64 [s1 + 0x130] = a2\n 16707: a2 = u64 [s1 + 0x178]\n 16711: a2 = a2 >> 0x20\n 16714: a0 = u64 [s1 + 0x168]\n 16718: u64 [s1 + 0x178] = a3\n 16722: a3 = a0 << 0x20\n 16725: a2 = a2 | a3\n 16728: a3 = a0 >> 0x20\n 16731: a0 = u64 [s1 + 0x170]\n 16735: a4 = a0 << 0x20\n 16738: a3 = a3 | a4\n 16741: a4 = a0 >> 0x20\n 16744: a3 = a3 & t0\n 16747: a2 = a2 & t0\n 16750: a1 = a1 & a4\n 16753: i32 a0 = a5 + 0x20\n 16756: a4 = s1 + 0x2118\n 16760: u64 [a4 + 224] = 0\n 16764: u64 [a4 + 0xd8] = a1\n 16768: u64 [a4 + 0xc8] = a2\n 16772: a1 = s1 + 0x21e0\n 16776: u64 [a4 + 0xd0] = a3\n 16780: ra = 644, jump @24\n      : @646 [@dyn 322] (gas: 10)\n 16786: a3 = s1 + 0x100\n 16790: a1 = u64 [a3 + 0x90]\n 16794: a0 = u64 [a3 + 0x78]\n 16797: a0 = a0 + 0xffffffffffffffc0\n 16800: a0 = a1 <u a0\n 16803: a2 = u64 [a3 + 0x98]\n 16807: a0 = 0 if a2 != 0\n 16809: a2 = u64 [a3 + 0x30]\n 16812: a0 = 0 if a2 != 0\n 16814: jump @648 if a0 != 0\n      : @647 (gas: 1)\n 16817: jump @1045\n      : @648 (gas: 8)\n 16820: i32 a0 = a1 + 0x40\n 16823: a2 = s1 + 0x2118\n 16827: u64 [a2 + 192] = 0\n 16831: u64 [a2 + 184] = 0\n 16835: u64 [a2 + 168] = 0xa0\n 16841: a1 = s1 + 0x21c0\n 16845: u64 [a2 + 176] = 0\n 16849: ra = 646, jump @24\n      : @649 [@dyn 323] (gas: 31)\n 16855: a0 = u64 [s1 + 0x190]\n 16859: a0 = a0 + 0xa0\n 16863: a1 = u64 [s1 + 0x190]\n 16867: a1 = a0 <u a1\n 16870: a3 = u64 [s1 + 0x198]\n 16874: a2 = a3 + a1\n 16877: a3 = a2 <u a3\n 16880: a3 = a1 if a1 == 0\n 16883: a1 = u64 [s1 + 0x180]\n 16887: a3 = a3 + a1\n 16890: a1 = a3 <u a1\n 16893: a4 = u64 [s1 + 0x188]\n 16897: a4 = a4 + a1\n 16900: a1 = s1 + 0x2118\n 16904: u64 [a1 + 0x50] = a2\n 16907: u64 [a1 + 0x48] = a0\n 16910: a0 = u64 [s1 + 0x158]\n 16914: u64 [a1 + 0x80] = a0\n 16918: a0 = u64 [s1 + 0x160]\n 16922: u64 [a1 + 0x78] = a0\n 16925: a0 = u64 [s1 + 0x150]\n 16929: u64 [a1 + 0x70] = a0\n 16932: a0 = u64 [s1 + 0x148]\n 16936: u64 [a1 + 0x68] = a0\n 16939: u64 [a1 + 0x58] = a3\n 16942: a3 = a1\n 16944: a0 = s1 + 0x21a0\n 16948: a1 = s1 + 0x2180\n 16952: a2 = s1 + 0x2160\n 16956: u64 [a3 + 0x60] = a4\n 16959: ra = 648, jump @1518\n      : @650 [@dyn 324] (gas: 10)\n 16965: a5 = s1 + 0x100\n 16969: a2 = u64 [a5 + 0x30]\n 16972: a1 = u64 [a5 + 0x90]\n 16976: a4 = 0x100000000\n 16986: a0 = 0xffffffa0\n 16996: a0 = a1 <u a0\n 16999: a3 = u64 [a5 + 0x98]\n 17003: a0 = 0 if a3 != 0\n 17005: a0 = 0 if a2 != 0\n 17007: jump @652 if a0 != 0\n      : @651 (gas: 1)\n 17010: jump @1045\n      : @652 (gas: 3)\n 17013: t0 = 0x28a\n 17017: a2 = s1 + 0x2118\n 17021: fallthrough\n      : @653 [@dyn 325] (gas: 17)\n 17022: a0 = u64 [a2 + 0xa0]\n 17026: u64 [s1 + 0x160] = a0\n 17030: a0 = u64 [a2 + 0x98]\n 17034: u64 [s1 + 0x158] = a0\n 17038: a0 = u64 [a2 + 0x90]\n 17042: u64 [s1 + 0x168] = a0\n 17046: a0 = u64 [a2 + 0x88]\n 17050: u64 [s1 + 0x170] = a0\n 17054: i32 a0 = a1 + 0x60\n 17057: u64 [a2 + 64] = 0\n 17060: u64 [a2 + 56] = 0\n 17063: a1 = u64 [s1 + 0x140]\n 17067: u64 [a2 + 0x28] = a1\n 17070: a1 = s1 + 0x2140\n 17074: u64 [a2 + 48] = 0\n 17077: u64 [s1 + 0x178] = a4\n 17081: ra = 652, jump @24\n      : @654 [@dyn 326] (gas: 10)\n 17087: a3 = s1 + 0x100\n 17091: a2 = u64 [a3 + 0x90]\n 17095: a0 = u64 [a3 + 0x78]\n 17098: a0 = a0 + 0xffffffffffffff80\n 17101: a0 = a2 <u a0\n 17104: a1 = u64 [a3 + 0x98]\n 17108: a0 = 0 if a1 != 0\n 17110: a1 = u64 [a3 + 0x30]\n 17113: a0 = 0 if a1 != 0\n 17115: jump @656 if a0 != 0\n      : @655 (gas: 1)\n 17118: jump @1045\n      : @656 (gas: 10)\n 17121: a0 = u8 [s1 + 0x138]\n 17125: a1 = a0 >u 0\n 17127: i32 a0 = a2 + 0x80\n 17131: a2 = s1 + 0x2118\n 17135: u64 [a2 + 32] = 0\n 17138: u64 [a2 + 24] = 0\n 17141: u64 [a2 + 0x8] = a1\n 17144: a1 = s1 + 0x2120\n 17148: u64 [a2 + 16] = 0\n 17151: ra = 654, jump @24\n      : @657 [@dyn 327] (gas: 30)\n 17157: a0 = u64 [s1 + 0x190]\n 17161: t1 = u64 [s1 + 0x170]\n 17165: t0 = t1 <u a0\n 17168: a5 = u64 [s1 + 0x198]\n 17172: a1 = u64 [s1 + 0x168]\n 17176: a3 = a1 ^ a5\n 17179: a2 = a1 <u a5\n 17182: a2 = t0 if a3 == 0\n 17185: a3 = u64 [s1 + 0x180]\n 17189: a4 = u64 [s1 + 0x158]\n 17193: t2 = a4 - a3\n 17196: ra = a4 <u a3\n 17199: a4 = u64 [s1 + 0x188]\n 17203: a3 = u64 [s1 + 0x160]\n 17207: a4 = a3 - a4\n 17210: a4 = a4 - ra\n 17213: a3 = t2 <u a2\n 17216: a3 = a4 - a3\n 17219: a4 = t2 - a2\n 17222: a2 = a1 - a5\n 17225: a2 = a2 - t0\n 17228: a1 = t1 - a0\n 17231: a2 = a2 | a3\n 17234: a3 = a1 | a4\n 17237: a3 = a3 | a2\n 17240: a2 = a2 | a4\n 17243: a3 = a3 >> 0x20\n 17246: a2 = a2 << 0x20\n 17249: a2 = a2 | a3\n 17252: jump @659 if a2 == 0\n      : @658 (gas: 1)\n 17255: jump @1045\n      : @659 (gas: 2)\n 17258: u64 [s1 + 0x198] = a1\n 17262: ra = 656, jump @37\n      : @660 [@dyn 328] (gas: 5)\n 17268: i32 a1 = a0 + 0\n 17270: a2 = i32 [s1 + 0x198]\n 17274: a0 = 0\n 17276: ecalli 13 // 'seal_return'\n 17278: jump @1146\n      : @661 (gas: 1)\n 17281: jump @663 if a0 == 1641031603\n      : @662 (gas: 1)\n 17288: jump @1127\n      : @663 (gas: 9)\n 17291: a0 = s1 + 0x3918\n 17295: u64 [a0 + 0] = 0\n 17297: u64 [a0 + 4294967288] = 0\n 17300: u64 [a0 + 4294967280] = 0\n 17303: u64 [a0 + 4294967272] = 0\n 17306: a0 = s1 + 0x4000\n 17310: i32 a0 = a0 + 0xfffffffffffff900\n 17314: ecalli 16 // 'value_transferred'\n 17316: fallthrough\n      : @664 (gas: 10)\n 17317: a3 = s1 + 0x3918\n 17321: a4 = a3 + 0xffffffffffffff00\n 17325: a0 = u64 [a4 + 0xf8]\n 17329: a1 = u64 [a3]\n 17331: a2 = u64 [a4 + 0xf0]\n 17335: a3 = u64 [a4 + 0xe8]\n 17339: a1 = a1 | a2\n 17342: a0 = a0 | a3\n 17345: a0 = a0 | a1\n 17348: jump @666 if a0 == 0\n      : @665 (gas: 1)\n 17351: jump @1132\n      : @666 (gas: 3)\n 17354: a0 = u64 [s1 + 0x198]\n 17358: a0 = i32 [a0]\n 17360: jump @668 if a0 >u 3\n      : @667 (gas: 1)\n 17364: jump @1133\n      : @668 (gas: 3)\n 17367: a0 = s1 + 0x1d40\n 17371: a1 = 0x40\n 17374: ra = 658, jump @22\n      : @669 [@dyn 329] (gas: 11)\n 17380: a0 = s1 + 0x1918\n 17384: a2 = a0 + 0x400\n 17388: a1 = u64 [a2 + 0x40]\n 17391: u64 [s1 + 0x198] = a1\n 17395: a1 = u64 [a2 + 0x38]\n 17398: u64 [s1 + 0x190] = a1\n 17402: a1 = u64 [a2 + 0x30]\n 17405: u64 [s1 + 0x180] = a1\n 17409: a0 = u64 [a2 + 0x28]\n 17412: u64 [s1 + 0x188] = a0\n 17416: ra = 660, jump @15\n      : @670 [@dyn 330] (gas: 8)\n 17422: a4 = s1 + 0x100\n 17426: a0 = u64 [a4 + 0x98]\n 17430: a1 = u64 [a4 + 0x80]\n 17434: a0 = a0 | a1\n 17437: a1 = u64 [a4 + 0x88]\n 17441: a3 = a1\n 17443: a2 = u64 [a4 + 0x90]\n 17447: t0 = 662, jump @1834\n      : @671 [@dyn 331] (gas: 1)\n 17453: jump @673 if a0 == 0\n      : @672 (gas: 1)\n 17456: jump @1045\n      : @673 (gas: 12)\n 17459: a2 = u64 [0x301b0]\n 17464: a1 = u64 [0x301b8]\n 17469: a0 = u32 [0x301c0]\n 17474: a4 = s1 + 0x1918\n 17478: u64 [a4 + 1056] = 0\n 17482: a5 = a4 + 0x400\n 17486: u64 [a5 + 0x18] = a0\n 17489: u64 [a5 + 0x10] = a1\n 17492: a1 = s1 + 0x1d20\n 17496: u64 [a5 + 0x8] = a2\n 17499: a0 = a3\n 17501: ra = 664, jump @24\n      : @674 [@dyn 332] (gas: 4)\n 17507: a1 = 0x20\n 17510: a0 = u64 [s1 + 0x188]\n 17514: ra = 0x484\n 17518: jump @37\n      : @675 (gas: 1)\n 17521: t0 = 666, jump @1850\n      : @676 [@dyn 333] (gas: 12)\n 17527: t0 = u64 [s1 + 0x168]\n 17531: a3 = a0 if t0 != 0\n 17534: u64 [s1 + 0x198] = a3\n 17538: a0 = u64 [s1 + 0x160]\n 17542: a2 = u64 [s1 + 0x130]\n 17546: a0 = a0 | a2\n 17549: a2 = u64 [s1 + 0x118]\n 17553: a0 = a2 if a4 == 0\n 17556: a5 = u64 [s1 + 0x150]\n 17560: a3 = a5\n 17562: a3 = a0 if t0 != 0\n 17565: t0 = 668, jump @1830\n      : @677 [@dyn 334] (gas: 1)\n 17571: ra = 670, jump @1877\n      : @678 [@dyn 335] (gas: 6)\n 17578: u64 [s1 + 0x130] = a0\n 17582: u64 [s1 + 0x118] = a1\n 17586: a0 = u64 [s1 + 0x148]\n 17590: a1 = u64 [s1 + 0x158]\n 17594: a2 = u64 [s1 + 0x190]\n 17598: ra = 672, jump @1877\n      : @679 [@dyn 336] (gas: 1)\n 17605: t0 = 674, jump @1839\n      : @680 [@dyn 337] (gas: 1)\n 17611: ra = 676, jump @1882\n      : @681 [@dyn 338] (gas: 1)\n 17618: t0 = 678, jump @1845\n      : @682 [@dyn 339] (gas: 14)\n 17624: a2 = u64 [s1 + 0x158]\n 17628: a2 = a1 if a3 != 0\n 17631: u64 [s1 + 0x158] = a2\n 17635: a1 = u64 [s1 + 0x110]\n 17639: a0 = a0 | a1\n 17642: a1 = u64 [s1 + 0x130]\n 17646: a0 = a1 if a4 == 0\n 17649: a1 = u64 [s1 + 0x148]\n 17653: a1 = a0 if a3 != 0\n 17656: a2 = a3\n 17658: u64 [s1 + 0x148] = a1\n 17662: a0 = u64 [s1 + 0x150]\n 17666: a1 = u64 [s1 + 0x140]\n 17670: ra = 680, jump @1877\n      : @683 [@dyn 340] (gas: 1)\n 17677: t0 = 682, jump @1817\n      : @684 [@dyn 341] (gas: 3)\n 17683: t1 = u64 [s1 + 0x158]\n 17687: t2 = u64 [s1 + 0x148]\n 17691: fallthrough\n      : @685 (gas: 68)\n 17692: u64 [s1 + 0x158] = a4\n 17696: a2 = t2 >> 0x3f\n 17699: a3 = t1 << 0x1\n 17702: t0 = a3 | a2\n 17705: a3 = t2 << 0x1\n 17708: a4 = u64 [s1 + 0x198]\n 17712: a4 = a4 >> 0x3f\n 17715: a3 = a3 | a4\n 17718: u64 [s1 + 0x148] = a3\n 17722: a2 = u64 [s1 + 0x128]\n 17726: t2 = a1\n 17728: u64 [s1 + 0x150] = t0\n 17732: a1 = a2 ^ t0\n 17735: ra = t1\n 17737: t1 = a2 <u t0\n 17740: a4 = u64 [s1 + 0x130]\n 17744: t0 = a4 <u a3\n 17747: t0 = t1 if a1 != 0\n 17750: a1 = t2 << 0x1\n 17753: a3 = a0 >> 0x3f\n 17756: a1 = a1 | a3\n 17759: u64 [s1 + 0x140] = a1\n 17763: a3 = ra >> 0x3f\n 17766: a0 = a0 << 0x1\n 17769: a3 = a3 | a0\n 17772: a0 = u64 [s1 + 0x198]\n 17776: a0 = a0 << 0x1\n 17779: a4 = u64 [s1 + 0x160]\n 17783: a1 = a4 >> 0x3f\n 17786: ra = a0 | a1\n 17789: a1 = a4 << 0x1\n 17792: a4 = u64 [s1 + 0x168]\n 17796: t1 = a4 >> 0x3f\n 17799: t1 = a1 | t1\n 17802: a1 = a4 << 0x1\n 17805: a4 = u64 [s1 + 0x188]\n 17809: t2 = a4 >> 0x3f\n 17812: a1 = a1 | t2\n 17815: a4 = a4 << 0x1\n 17818: a0 = u64 [s1 + 0x158]\n 17822: a4 = a4 | a0\n 17825: u64 [s1 + 0x188] = a4\n 17829: a1 = a1 | a5\n 17832: u64 [s1 + 0x168] = a1\n 17836: a1 = a5 | t1\n 17839: u64 [s1 + 0x160] = a1\n 17843: a0 = a5 | ra\n 17846: u64 [s1 + 0x198] = a0\n 17850: a0 = a2 - a3\n 17853: a0 = a0 <u t0\n 17856: a1 = a2 <u a3\n 17859: t0 = u64 [s1 + 0x140]\n 17863: a4 = a2 - t0\n 17866: a4 = a4 - a1\n 17869: a4 = a4 - a0\n 17872: a5 = a4 >>a 0x3f\n 17875: a0 = u64 [s1 + 0x138]\n 17879: a0 = a0 & a5\n 17882: a1 = u64 [s1 + 0x148]\n 17886: t2 = a1 - a0\n 17889: a1 = a1 <u a0\n 17892: a0 = u64 [s1 + 0x150]\n 17896: t1 = a0 - a1\n 17899: a1 = 0 if a0 != 0\n 17901: a0 = a3 - a1\n 17904: a1 = a3 <u a1\n 17907: a1 = t0 - a1\n 17910: t0 = 684, jump @1874\n      : @686 [@dyn 342] (gas: 17)\n 17917: t0 = a4 <u a2\n 17920: a2 = a4 - a2\n 17923: a4 = a3 <u 0x1\n 17926: ra = ra - a4\n 17929: a4 = u64 [s1 + 0x178]\n 17933: a4 = a4 - t0\n 17936: a3 = a3 + 0xffffffffffffffff\n 17939: u64 [s1 + 0x180] = ra\n 17943: u64 [s1 + 0x178] = a4\n 17947: t0 = ra | a4\n 17950: u64 [s1 + 0x190] = a3\n 17954: a4 = a3 | a2\n 17957: a3 = a4 | t0\n 17960: a4 = a5 & 0x1\n 17963: u64 [s1 + 0x170] = a2\n 17967: a5 = 0\n 17969: jump @685 if a3 != 0\n      : @687 (gas: 4)\n 17973: a0 = u64 [s1 + 0x188]\n 17977: a0 = a0 << 0x1\n 17980: a4 = a4 | a0\n 17983: fallthrough\n      : @688 (gas: 3)\n 17984: a0 = a4 & 0xffffffffffffffff\n 17987: a1 = u64 [s1 + 0x120]\n 17991: jump @690 if a1 == a0\n      : @689 (gas: 1)\n 17994: jump @1098\n      : @690 (gas: 8)\n 17997: a0 = 0x30190\n 18002: u64 [s1 + 0x140] = a0\n 18006: i32 a0 = a0 + 0\n 18008: u64 [s1 + 0x138] = a0\n 18012: ra = 0x2ae\n 18016: ecalli 4 // 'caller'\n 18018: t0 = 0x2b0\n 18022: jump @1788\n      : @691 [@dyn 343] (gas: 1)\n 18025: t0 = 688, jump @1788\n      : @692 [@dyn 344] (gas: 8)\n 18031: u64 [a2 + 416] = 0\n 18035: a4 = a2 + 0x100\n 18039: u64 [a4 + 0x98] = a1\n 18043: u64 [a4 + 0x90] = a0\n 18047: a1 = s1 + 0x12a0\n 18051: u64 [a4 + 0x88] = a3\n 18055: a0 = 0\n 18057: ra = 690, jump @24\n      : @693 [@dyn 345] (gas: 3)\n 18063: t0 = 0x2b4\n 18067: a1 = s1 + 0x1118\n 18071: fallthrough\n      : @694 [@dyn 346] (gas: 8)\n 18072: u64 [a1 + 384] = 0\n 18076: u64 [a1 + 376] = 0\n 18080: u64 [a1 + 360] = 0x1\n 18085: a2 = a1\n 18087: a0 = 0x20\n 18090: a1 = s1 + 0x1280\n 18094: u64 [a2 + 368] = 0\n 18098: ra = 694, jump @24\n      : @695 [@dyn 347] (gas: 7)\n 18104: a0 = sp + 0xffffffffffffffe0\n 18107: a0 = a0 & 0xffffffffffffffe0\n 18110: u64 [s1 + 0x118] = a0\n 18114: sp = a0\n 18116: a1 = 0x20180\n 18121: a0 = i32 [0x20180]\n 18126: jump @697 if a0 >u 63\n      : @696 (gas: 3)\n 18130: u32 [0x20180] = 0x40\n 18136: t0 = 0x2b8\n 18140: jump @1819\n      : @697 (gas: 1)\n 18143: t0 = 696, jump @1819\n      : @698 [@dyn 348] (gas: 30)\n 18149: a0 = 0x20190\n 18154: i32 a0 = a0 + 0\n 18156: i32 a2 = a2 + 0\n 18158: u64 [s1 + 0x170] = a1\n 18162: a1 = 0x40\n 18165: u64 [s1 + 0x178] = a0\n 18169: ecalli 8 // 'hash_keccak_256'\n 18171: a3 = u64 [s1 + 0x198]\n 18175: a0 = u64 [a3 + 0x18]\n 18178: a1 = u64 [a3 + 0x10]\n 18181: a2 = u64 [a3 + 0x8]\n 18184: a3 = u64 [a3]\n 18186: a5 = reverse a0\n 18188: a4 = reverse a1\n 18190: a1 = reverse a2\n 18192: a2 = reverse a3\n 18194: a0 = u64 [s1 + 0x118]\n 18198: u64 [s1 + 0x190] = a2\n 18202: u64 [a0 + 0x18] = a2\n 18205: u64 [s1 + 0x198] = a1\n 18209: u64 [a0 + 0x10] = a1\n 18212: u64 [s1 + 0x188] = a4\n 18216: u64 [a0 + 0x8] = a4\n 18219: u64 [s1 + 0x180] = a5\n 18223: u64 [a0] = a5\n 18225: a0 = u64 [s1 + 0x138]\n 18229: ra = 0x2ba\n 18233: ecalli 4 // 'caller'\n 18235: t0 = 0x2bc\n 18239: jump @1788\n      : @699 [@dyn 349] (gas: 1)\n 18242: t0 = 700, jump @1788\n      : @700 [@dyn 350] (gas: 8)\n 18248: u64 [a2 + 352] = 0\n 18252: a4 = a2 + 0x100\n 18256: u64 [a4 + 0x58] = a1\n 18259: u64 [a4 + 0x50] = a0\n 18262: a1 = s1 + 0x1260\n 18266: u64 [a4 + 0x48] = a3\n 18269: a0 = 0\n 18271: ra = 702, jump @24\n      : @701 [@dyn 351] (gas: 3)\n 18277: t0 = 0x2c0\n 18281: a1 = s1 + 0x1118\n 18285: fallthrough\n      : @702 [@dyn 352] (gas: 8)\n 18286: u64 [a1 + 320] = 0\n 18290: u64 [a1 + 312] = 0\n 18294: u64 [a1 + 296] = 0x3\n 18299: a2 = a1\n 18301: a0 = 0x20\n 18304: a1 = s1 + 0x1240\n 18308: u64 [a2 + 304] = 0\n 18312: ra = 706, jump @24\n      : @703 [@dyn 353] (gas: 3)\n 18318: a1 = u64 [s1 + 0x170]\n 18322: a0 = i32 [a1]\n 18324: jump @705 if a0 >u 63\n      : @704 (gas: 2)\n 18328: u32 [a1 + 0] = 0x40\n 18331: fallthrough\n      : @705 (gas: 5)\n 18332: a1 = 0xffffffff00000000\n 18342: u64 [s1 + 0x128] = a1\n 18346: a0 = 0xffffffff\n 18356: u64 [s1 + 0xb0] = a0\n 18360: t0 = 708, jump @1805\n      : @706 [@dyn 354] (gas: 5)\n 18366: ra = 0x2c6\n 18370: ecalli 8 // 'hash_keccak_256'\n 18372: a3 = u64 [s1 + 0x168]\n 18376: t0 = 0x2c8\n 18380: jump @1826\n      : @707 [@dyn 355] (gas: 2)\n 18383: a3 = u64 [s1 + 0x168]\n 18387: t0 = 712, jump @1826\n      : @708 [@dyn 356] (gas: 7)\n 18393: u64 [a5 + 0xe0] = a3\n 18397: u64 [a5 + 0xd8] = a2\n 18401: u64 [a5 + 0xd0] = a1\n 18405: u64 [a5 + 0xc8] = a0\n 18409: a0 = s1 + 0x1220\n 18413: a1 = s1 + 0x37e0\n 18417: ra = 714, jump @26\n      : @709 [@dyn 357] (gas: 33)\n 18423: u64 [s1 + 264] = 0\n 18427: u64 [s1 + 240] = 0\n 18431: u64 [s1 + 248] = 0\n 18435: u64 [s1 + 256] = 0\n 18439: u64 [s1 + 272] = 0\n 18443: u64 [s1 + 232] = 0\n 18447: u64 [s1 + 224] = 0\n 18451: u64 [s1 + 216] = 0\n 18455: a5 = 0\n 18457: a4 = 0\n 18459: a3 = 0\n 18461: a1 = u64 [s1 + 0x180]\n 18465: a1 = a1 + 0x1\n 18468: a0 = a1 <u 0x1\n 18471: a2 = u64 [s1 + 0x188]\n 18475: a0 = a0 + a2\n 18478: u64 [s1 + 0xd0] = a1\n 18482: u64 [s1 + 0xc8] = a0\n 18486: a0 = a0 | a1\n 18489: a0 = a0 <u 0x1\n 18492: a2 = s1 + 0x100\n 18496: a1 = u64 [a2 + 0x98]\n 18500: a0 = a0 + a1\n 18503: u64 [s1 + 0xc0] = a0\n 18507: a0 = a0 <u a1\n 18510: a1 = u64 [a2 + 0x90]\n 18514: a0 = a0 + a1\n 18517: u64 [s1 + 0xb8] = a0\n 18521: a0 = s1 + 0x1118\n 18525: a0 = u32 [a0 + 0x108]\n 18529: u64 [a2 + 0x30] = a0\n 18532: t0 = 0x1\n 18535: fallthrough\n      : @710 (gas: 10)\n 18536: a0 = a4 >u 0\n 18538: a1 = a3 >u 0\n 18540: a1 = a0 if a3 == 0\n 18543: a0 = u64 [s1 + 0x130]\n 18547: a0 = a0 <u t0\n 18550: a2 = a5 >u 0\n 18552: a2 = a0 if a5 == 0\n 18555: a0 = a4 | a3\n 18558: a2 = a1 if a0 != 0\n 18561: jump @770 if a2 != 0\n      : @711 (gas: 9)\n 18565: u64 [s1 + 0x180] = t0\n 18569: u64 [s1 + 0x188] = a5\n 18573: u64 [s1 + 0x190] = a4\n 18577: u64 [s1 + 0x198] = a3\n 18581: a0 = u64 [s1 + 0x138]\n 18585: ra = 0x2cc\n 18589: ecalli 4 // 'caller'\n 18591: t0 = 0x2ce\n 18595: jump @1788\n      : @712 [@dyn 358] (gas: 1)\n 18598: t0 = 718, jump @1788\n      : @713 [@dyn 359] (gas: 7)\n 18604: u64 [a2 + 256] = 0\n 18608: u64 [a2 + 0xf8] = a1\n 18612: u64 [a2 + 0xf0] = a0\n 18616: a1 = s1 + 0x1200\n 18620: u64 [a2 + 0xe8] = a3\n 18624: a0 = 0\n 18626: ra = 720, jump @24\n      : @714 [@dyn 360] (gas: 9)\n 18632: a0 = s1 + 0x1118\n 18636: u64 [a0 + 224] = 0\n 18640: u64 [a0 + 216] = 0\n 18644: u64 [a0 + 208] = 0\n 18648: a3 = a0\n 18650: a0 = 0x20\n 18653: a1 = s1 + 0x11e0\n 18657: u64 [a3 + 200] = 0x2\n 18662: ra = 722, jump @24\n      : @715 [@dyn 361] (gas: 3)\n 18668: a1 = u64 [s1 + 0x170]\n 18672: a0 = i32 [a1]\n 18674: jump @717 if a0 >u 63\n      : @716 (gas: 3)\n 18678: u32 [a1 + 0] = 0x40\n 18681: t0 = 0x2d4\n 18685: jump @1805\n      : @717 (gas: 1)\n 18688: t0 = 724, jump @1805\n      : @718 [@dyn 362] (gas: 30)\n 18694: ecalli 8 // 'hash_keccak_256'\n 18696: a3 = u64 [s1 + 0x168]\n 18700: a0 = u64 [a3 + 0x18]\n 18703: a1 = u64 [a3 + 0x10]\n 18706: a2 = u64 [a3 + 0x8]\n 18709: a3 = u64 [a3]\n 18711: a0 = reverse a0\n 18713: u64 [s1 + 0x160] = a0\n 18717: a0 = reverse a1\n 18719: u64 [s1 + 0x158] = a0\n 18723: a0 = reverse a2\n 18725: u64 [s1 + 0x150] = a0\n 18729: a0 = reverse a3\n 18731: u64 [s1 + 0x148] = a0\n 18735: a0 = sp + 0xffffffffffffffe0\n 18738: a0 = a0 & 0xffffffffffffffe0\n 18741: u64 [s1 + 0x168] = a0\n 18745: sp = a0\n 18747: a2 = s1 + 0x1118\n 18751: a0 = u64 [s1 + 0x198]\n 18755: u64 [a2 + 0xc0] = a0\n 18759: a0 = u64 [s1 + 0x190]\n 18763: u64 [a2 + 0xb8] = a0\n 18767: a0 = u64 [s1 + 0x188]\n 18771: u64 [a2 + 0xb0] = a0\n 18775: a1 = s1 + 0x11c0\n 18779: a0 = u64 [s1 + 0x180]\n 18783: u64 [a2 + 0xa8] = a0\n 18787: a0 = 0\n 18789: ra = 726, jump @24\n      : @719 [@dyn 363] (gas: 13)\n 18795: a0 = u64 [s1 + 0x148]\n 18799: a1 = s1 + 0x1118\n 18803: u64 [a1 + 0xa0] = a0\n 18807: a0 = u64 [s1 + 0x150]\n 18811: u64 [a1 + 0x98] = a0\n 18815: a0 = u64 [s1 + 0x158]\n 18819: u64 [a1 + 0x90] = a0\n 18823: a3 = a1\n 18825: a0 = 0x20\n 18828: a1 = s1 + 0x11a0\n 18832: a2 = u64 [s1 + 0x160]\n 18836: u64 [a3 + 0x88] = a2\n 18840: ra = 728, jump @24\n      : @720 [@dyn 364] (gas: 3)\n 18846: a1 = u64 [s1 + 0x170]\n 18850: a0 = i32 [a1]\n 18852: jump @722 if a0 >u 63\n      : @721 (gas: 3)\n 18856: u32 [a1 + 0] = 0x40\n 18859: t0 = 0x2da\n 18863: jump @1848\n      : @722 (gas: 1)\n 18866: t0 = 730, jump @1848\n      : @723 [@dyn 365] (gas: 5)\n 18872: ra = 0x2dc\n 18876: ecalli 8 // 'hash_keccak_256'\n 18878: a3 = u64 [s1 + 0x160]\n 18882: t0 = 0x2de\n 18886: jump @1847\n      : @724 [@dyn 366] (gas: 2)\n 18889: a3 = u64 [s1 + 0x160]\n 18893: t0 = 734, jump @1847\n      : @725 [@dyn 367] (gas: 22)\n 18899: a4 = u64 [s1 + 0x168]\n 18903: u64 [a4 + 0x18] = a3\n 18906: u64 [a4 + 0x10] = a2\n 18909: u64 [a4 + 0x8] = a1\n 18912: u64 [a4] = a0\n 18914: a4 = a0 + 0x2\n 18917: a0 = a4 <u a0\n 18920: a5 = a1 + a0\n 18923: a1 = a5 <u a1\n 18926: a1 = a0 if a0 == 0\n 18929: a1 = a1 + a2\n 18932: a0 = a1 <u a2\n 18935: a0 = a0 + a3\n 18938: a2 = s1 + 0x3118\n 18942: a3 = a2 + 0x600\n 18946: u64 [a3 + 0xe8] = a4\n 18950: u64 [a3 + 0xf0] = a5\n 18954: u64 [a3 + 0xf8] = a1\n 18958: u64 [a2 + 0x700] = a0\n 18962: a0 = s1 + 0x1180\n 18966: a1 = s1 + 0x3800\n 18970: ra = 736, jump @26\n      : @726 [@dyn 368] (gas: 4)\n 18976: a0 = s1 + 0x1118\n 18980: a0 = u64 [a0 + 0x70]\n 18983: a0 = a0 & 0xff\n 18987: jump @730 if a0 == 0\n      : @727 (gas: 3)\n 18990: a2 = s1 + 0x7ff\n 18994: a2 = a2 + 0x111\n 18998: fallthrough\n      : @728 (gas: 15)\n 18999: a4 = s1 + 0x100\n 19003: a0 = u64 [a4 + 0x80]\n 19007: a5 = a2 + 0x600\n 19011: u64 [a5 + 0x10] = a0\n 19014: a0 = u64 [a4 + 0x88]\n 19018: u64 [a5 + 0x18] = a0\n 19021: a0 = u64 [a4 + 0x90]\n 19025: u64 [a5 + 0x20] = a0\n 19028: a0 = s1 + 0x7ff\n 19032: a0 = a0 + 0x741\n 19036: a1 = s1 + 0x7ff\n 19040: a1 = a1 + 0x721\n 19044: a3 = u64 [a4 + 0x98]\n 19048: u64 [a5 + 0x28] = a3\n 19051: ra = 738, jump @1632\n      : @729 [@dyn 369] (gas: 8)\n 19057: a0 = s1 + 0x7ff\n 19061: a0 = a0 + 0x111\n 19065: a1 = a0 + 0x600\n 19069: a3 = u64 [a1 + 0x48]\n 19072: a4 = u64 [a1 + 0x40]\n 19075: a5 = u64 [a1 + 0x38]\n 19078: t0 = u64 [a0 + 0x630]\n 19082: jump @710\n      : @730 (gas: 3)\n 19085: a0 = s1 + 0x1160\n 19089: a1 = u64 [s1 + 0x168]\n 19093: ra = 740, jump @26\n      : @731 [@dyn 370] (gas: 11)\n 19099: a2 = s1 + 0x1118\n 19103: a0 = u64 [a2 + 0x50]\n 19106: a1 = u64 [a2 + 0x58]\n 19109: a2 = u64 [a2 + 0x48]\n 19112: a0 = a0 & 0xffffffffffffffff\n 19115: a1 = a1 & 0xffffffffffffffff\n 19118: a3 = u64 [s1 + 0x128]\n 19122: a2 = a2 & a3\n 19125: a1 = a1 | a2\n 19128: a0 = a0 | a1\n 19131: jump @727 if a0 == 0\n      : @732 (gas: 5)\n 19135: a0 = u64 [s1 + 0x138]\n 19139: ra = 0x2e6\n 19143: ecalli 4 // 'caller'\n 19145: t0 = 0x2e8\n 19149: jump @1788\n      : @733 [@dyn 371] (gas: 1)\n 19152: t0 = 744, jump @1788\n      : @734 [@dyn 372] (gas: 7)\n 19158: u64 [a2 + 64] = 0\n 19161: u64 [a2 + 0x38] = a1\n 19164: u64 [a2 + 0x30] = a0\n 19167: a1 = s1 + 0x1140\n 19171: u64 [a2 + 0x28] = a3\n 19174: a0 = 0\n 19176: ra = 746, jump @24\n      : @735 [@dyn 373] (gas: 9)\n 19182: a0 = s1 + 0x1118\n 19186: u64 [a0 + 32] = 0\n 19189: u64 [a0 + 24] = 0\n 19192: u64 [a0 + 16] = 0\n 19195: a3 = a0\n 19197: a0 = 0x20\n 19200: a1 = s1 + 0x1120\n 19204: u64 [a3 + 8] = 0x4\n 19208: ra = 748, jump @24\n      : @736 [@dyn 374] (gas: 3)\n 19214: a1 = u64 [s1 + 0x170]\n 19218: a0 = i32 [a1]\n 19220: jump @738 if a0 >u 63\n      : @737 (gas: 3)\n 19224: u32 [a1 + 0] = 0x40\n 19227: t0 = 0x2ee\n 19231: jump @1805\n      : @738 (gas: 1)\n 19234: t0 = 750, jump @1805\n      : @739 [@dyn 375] (gas: 5)\n 19240: ra = 0x2f0\n 19244: ecalli 8 // 'hash_keccak_256'\n 19246: a3 = u64 [s1 + 0x168]\n 19250: t0 = 0x2f2\n 19254: jump @1791\n      : @740 [@dyn 376] (gas: 2)\n 19257: a3 = u64 [s1 + 0x168]\n 19261: t0 = 754, jump @1791\n      : @741 [@dyn 377] (gas: 9)\n 19267: a0 = s1 + 0x1118\n 19271: u64 [a0 + 0] = 0\n 19273: u64 [a0 + 4294967288] = 0\n 19276: u64 [a0 + 4294967280] = 0\n 19279: a1 = s1 + 0x1100\n 19283: a2 = u64 [s1 + 0x120]\n 19287: u64 [a0 + 0xffffffffffffffe8] = a2\n 19290: a0 = 0\n 19292: ra = 756, jump @24\n      : @742 [@dyn 378] (gas: 14)\n 19298: a2 = s1 + 0x7ff\n 19302: a2 = a2 + 0x111\n 19306: a0 = u64 [s1 + 0x150]\n 19310: a4 = a2 + 0x700\n 19314: u64 [a4 + 0xe8] = a0\n 19318: a0 = u64 [s1 + 0x158]\n 19322: u64 [a4 + 0xe0] = a0\n 19326: a0 = u64 [s1 + 0x160]\n 19330: u64 [a4 + 0xd8] = a0\n 19334: a0 = 0x20\n 19337: a1 = s1 + 0x10e0\n 19341: a3 = u64 [s1 + 0x168]\n 19345: u64 [a4 + 0xd0] = a3\n 19349: ra = 758, jump @24\n      : @743 [@dyn 379] (gas: 3)\n 19355: a1 = u64 [s1 + 0x170]\n 19359: a0 = i32 [a1]\n 19361: jump @745 if a0 >u 63\n      : @744 (gas: 3)\n 19365: u32 [a1 + 0] = 0x40\n 19368: t0 = 0x2f8\n 19372: jump @1805\n      : @745 (gas: 1)\n 19375: t0 = 760, jump @1805\n      : @746 [@dyn 380] (gas: 4)\n 19381: ra = 0x2fa\n 19385: ecalli 8 // 'hash_keccak_256'\n 19387: t0 = 0x2fc\n 19391: jump @1789\n      : @747 [@dyn 381] (gas: 1)\n 19394: t0 = 764, jump @1789\n      : @748 [@dyn 382] (gas: 11)\n 19400: a3 = a2 + 0x700\n 19404: u64 [a3 + 0xc8] = a0\n 19408: a0 = u64 [s1 + 0x190]\n 19412: u64 [a3 + 0xc0] = a0\n 19416: a0 = u64 [s1 + 0x188]\n 19420: u64 [a3 + 0xb8] = a0\n 19424: a1 = s1 + 0x10c0\n 19428: a0 = u64 [s1 + 0x180]\n 19432: u64 [a3 + 0xb0] = a0\n 19436: a0 = 0\n 19438: ra = 766, jump @24\n      : @749 [@dyn 383] (gas: 15)\n 19444: a0 = u64 [s1 + 0x148]\n 19448: a1 = s1 + 0x7ff\n 19452: a1 = a1 + 0x111\n 19456: a2 = a1 + 0x700\n 19460: u64 [a2 + 0xa8] = a0\n 19464: a0 = u64 [s1 + 0x150]\n 19468: u64 [a2 + 0xa0] = a0\n 19472: a0 = u64 [s1 + 0x158]\n 19476: u64 [a2 + 0x98] = a0\n 19480: a3 = a1\n 19482: a0 = 0x20\n 19485: a1 = s1 + 0x10a0\n 19489: a2 = u64 [s1 + 0x160]\n 19493: u64 [a3 + 0x790] = a2\n 19497: ra = 768, jump @24\n      : @750 [@dyn 384] (gas: 3)\n 19503: a1 = u64 [s1 + 0x170]\n 19507: a0 = i32 [a1]\n 19509: jump @752 if a0 >u 63\n      : @751 (gas: 3)\n 19513: u32 [a1 + 0] = 0x40\n 19516: t0 = 0x302\n 19520: jump @1848\n      : @752 (gas: 1)\n 19523: t0 = 770, jump @1848\n      : @753 [@dyn 385] (gas: 4)\n 19529: ra = 0x304\n 19533: ecalli 8 // 'hash_keccak_256'\n 19535: t0 = 0x306\n 19539: jump @1799\n      : @754 [@dyn 386] (gas: 1)\n 19542: t0 = 774, jump @1799\n      : @755 [@dyn 387] (gas: 2)\n 19548: a0 = s1 + 0x1080\n 19552: ra = 776, jump @26\n      : @756 [@dyn 388] (gas: 4)\n 19558: a2 = s1 + 0x7ff\n 19562: a2 = a2 + 0x111\n 19566: a0 = u8 [a2 + 0x770]\n 19570: jump @728 if a0 != 0\n      : @757 (gas: 3)\n 19574: a0 = s1 + 0x1060\n 19578: a1 = u64 [s1 + 0x118]\n 19582: ra = 778, jump @26\n      : @758 [@dyn 389] (gas: 16)\n 19588: a3 = s1 + 0x7ff\n 19592: a3 = a3 + 0x111\n 19596: a0 = u64 [a3 + 0x768]\n 19600: t1 = u64 [a3 + 0x760]\n 19604: a2 = u64 [a3 + 0x758]\n 19608: t0 = u64 [a3 + 0x750]\n 19612: a1 = u64 [0x200a8]\n 19617: a5 = a0 >u 0\n 19619: a4 = t1 >u 0\n 19621: a4 = a5 if a0 != 0\n 19624: a1 = a1 <u t0\n 19627: a5 = a2 >u 0\n 19629: a5 = a1 if a2 == 0\n 19632: a1 = t1 | a0\n 19635: a5 = a4 if a1 != 0\n 19638: jump @761 if a5 != 0\n      : @759 (gas: 14)\n 19641: a0 = u64 [s1 + 0x108]\n 19645: a4 = a3 + 0x600\n 19649: u64 [a4 + 0x50] = a0\n 19652: a0 = u64 [s1 + 0xf0]\n 19656: u64 [a4 + 0x58] = a0\n 19659: a0 = u64 [s1 + 0xf8]\n 19663: u64 [a4 + 0x60] = a0\n 19666: a0 = s1 + 0x7ff\n 19670: a0 = a0 + 0x781\n 19674: a1 = s1 + 0x7ff\n 19678: a1 = a1 + 0x761\n 19682: a2 = u64 [s1 + 0x100]\n 19686: u64 [a4 + 0x68] = a2\n 19689: ra = 780, jump @1632\n      : @760 [@dyn 390] (gas: 12)\n 19695: a2 = s1 + 0x7ff\n 19699: a2 = a2 + 0x111\n 19703: a1 = a2 + 0x600\n 19707: a0 = u64 [a1 + 0x88]\n 19711: u64 [s1 + 0x100] = a0\n 19715: a0 = u64 [a1 + 0x80]\n 19719: u64 [s1 + 0xf8] = a0\n 19723: a0 = u64 [a1 + 0x78]\n 19726: u64 [s1 + 0xf0] = a0\n 19730: a0 = u64 [a1 + 0x70]\n 19733: u64 [s1 + 0x108] = a0\n 19737: jump @728\n      : @761 (gas: 23)\n 19740: a1 = sp + 0xffffffffffffffe0\n 19743: a1 = a1 & 0xffffffffffffffe0\n 19746: sp = a1\n 19748: a4 = u64 [0x200b0]\n 19753: a4 = a4 + t0\n 19756: a5 = a4 <u t0\n 19759: a3 = a2 + a5\n 19762: a3 = a3 + 0xffffffffffffffff\n 19765: t0 = a3 ^ a2\n 19768: a2 = a3 <u a2\n 19771: a2 = a5 if t0 == 0\n 19774: a5 = t1 + 0xffffffffffffffff\n 19777: a2 = a2 + a5\n 19780: t0 = a2 <u a5\n 19783: a5 = t1 <u 0x1\n 19786: a0 = a0 - a5\n 19789: a0 = a0 + t0\n 19792: u64 [a1 + 0x8] = a3\n 19795: u64 [a1] = a4\n 19797: u64 [a1 + 0x10] = a2\n 19800: u64 [a1 + 0x18] = a0\n 19803: a0 = u64 [s1 + 0x118]\n 19807: ra = 782, jump @28\n      : @762 [@dyn 391] (gas: 14)\n 19813: a0 = sp + 0xffffffffffffffe0\n 19816: a1 = a0 & 0xffffffffffffffe0\n 19819: sp = a1\n 19821: a0 = u64 [s1 + 0xb8]\n 19825: u64 [a1 + 0x18] = a0\n 19828: a0 = u64 [s1 + 0xc0]\n 19832: u64 [a1 + 0x10] = a0\n 19835: a0 = u64 [s1 + 0xc8]\n 19839: u64 [a1 + 0x8] = a0\n 19842: a0 = u64 [s1 + 0xd0]\n 19846: u64 [a1] = a0\n 19848: a0 = s1 + 0x1040\n 19852: u64 [s1 + 0x160] = a1\n 19856: ra = 784, jump @26\n      : @763 [@dyn 392] (gas: 30)\n 19862: a0 = s1 + 0x7ff\n 19866: a0 = a0 + 0x111\n 19870: t0 = u64 [a0 + 0x748]\n 19874: t1 = u64 [a0 + 0x740]\n 19878: a2 = u64 [a0 + 0x738]\n 19882: a4 = u64 [a0 + 0x730]\n 19886: a1 = sp + 0xffffffffffffffe0\n 19889: a1 = a1 & 0xffffffffffffffe0\n 19892: sp = a1\n 19894: a5 = u64 [0x200a0]\n 19899: t2 = a4 + a5\n 19902: a0 = t2 <u a4\n 19905: a3 = a2 + a0\n 19908: a5 = a3 <u a2\n 19911: a5 = a0 if a0 == 0\n 19914: a5 = a5 + t1\n 19917: a0 = a5 <u t1\n 19920: u64 [a1 + 0x10] = a5\n 19923: a5 = u64 [0x200b8]\n 19928: a0 = a0 + t0\n 19931: u64 [a1 + 0x8] = a3\n 19934: u64 [a1] = t2\n 19936: a3 = a5 <u a4\n 19939: a2 = a2 + 0x1\n 19942: a3 = 0 if a2 != 0\n 19944: a2 = t1 & t0\n 19947: a2 = a2 + 0x1\n 19950: a3 = 0 if a2 != 0\n 19952: u64 [a1 + 0x18] = a0\n 19955: jump @765 if a3 == 0\n      : @764 (gas: 1)\n 19958: jump @1046\n      : @765 (gas: 2)\n 19961: a0 = u64 [s1 + 0x160]\n 19965: ra = 786, jump @28\n      : @766 [@dyn 393] (gas: 3)\n 19971: a0 = s1 + 0x1020\n 19975: a1 = u64 [s1 + 0x168]\n 19979: ra = 788, jump @26\n      : @767 [@dyn 394] (gas: 18)\n 19985: a3 = s1 + 0x7ff\n 19989: a3 = a3 + 0x111\n 19993: a4 = a3 + 0x700\n 19997: a0 = u64 [a4 + 0x10]\n 20000: a1 = u64 [a4 + 0x18]\n 20003: a2 = u64 [a4 + 0x28]\n 20006: a3 = u64 [a4 + 0x20]\n 20009: a0 = a0 & 0xffffffffffffff00\n 20013: a0 = a0 | 0x1\n 20016: a4 = s1 + 0x3118\n 20020: a5 = a4 + 0x700\n 20024: u64 [a5 + 0x20] = a2\n 20027: u64 [a5 + 0x18] = a3\n 20030: u64 [a5 + 0x10] = a1\n 20033: u64 [a5 + 0x8] = a0\n 20036: a1 = s1 + 0x3820\n 20040: a0 = u64 [s1 + 0x168]\n 20044: ra = 790, jump @28\n      : @768 [@dyn 395] (gas: 15)\n 20050: a0 = u64 [s1 + 0xd8]\n 20054: a3 = s1 + 0x7ff\n 20058: a3 = a3 + 0x111\n 20062: a4 = a3 + 0x600\n 20066: u64 [a4 + 0xe8] = a0\n 20070: a0 = u64 [s1 + 0xe0]\n 20074: u64 [a4 + 0xe0] = a0\n 20078: a0 = u64 [s1 + 0xe8]\n 20082: u64 [a4 + 0xd8] = a0\n 20086: a0 = s1 + 0x1000\n 20090: a1 = s1 + 0x7ff\n 20094: a1 = a1 + 0x7e1\n 20098: a2 = u64 [s1 + 0x110]\n 20102: u64 [a4 + 0xd0] = a2\n 20106: ra = 792, jump @1632\n      : @769 [@dyn 396] (gas: 11)\n 20112: a2 = s1 + 0x7ff\n 20116: a2 = a2 + 0x111\n 20120: a0 = u64 [a2 + 0x708]\n 20124: u64 [s1 + 0xd8] = a0\n 20128: a0 = u64 [a2 + 0x700]\n 20132: u64 [s1 + 0xe0] = a0\n 20136: a0 = u64 [a2 + 0x6f8]\n 20140: u64 [s1 + 0xe8] = a0\n 20144: a0 = u64 [a2 + 0x6f0]\n 20148: u64 [s1 + 0x110] = a0\n 20152: jump @728\n      : @770 (gas: 4)\n 20155: a0 = s1 + 0x7ff\n 20159: a0 = a0 + 0x701\n 20163: a1 = 0x40\n 20166: ra = 794, jump @22\n      : @771 [@dyn 397] (gas: 14)\n 20172: a2 = s1 + 0x7ff\n 20176: a2 = a2 + 0x111\n 20180: t0 = u64 [a2 + 0x608]\n 20184: a5 = u64 [a2 + 0x600]\n 20188: a4 = u64 [a2 + 0x5f8]\n 20192: a3 = u64 [a2 + 0x5f0]\n 20196: a0 = a4 | t0\n 20199: a1 = a3 | a5\n 20202: a1 = a1 | a0\n 20205: a1 = a1 >> 0x20\n 20208: a0 = a0 | a5\n 20211: a0 = a0 << 0x20\n 20214: a0 = a0 | a1\n 20217: jump @773 if a0 == 0\n      : @772 (gas: 1)\n 20220: jump @1045\n      : @773 (gas: 15)\n 20223: a0 = u64 [s1 + 0x110]\n 20227: a1 = u64 [s1 + 0xb0]\n 20231: a0 = a0 & a1\n 20234: u64 [a2 + 1512] = 0\n 20238: u64 [a2 + 1504] = 0\n 20242: u64 [a2 + 1496] = 0\n 20246: a1 = s1 + 0x7ff\n 20250: a1 = a1 + 0x6e1\n 20254: u64 [a2 + 0x5d0] = a0\n 20258: a0 = a3\n 20260: u64 [s1 + 0x198] = a3\n 20264: u64 [s1 + 0x190] = a4\n 20268: u64 [s1 + 0x180] = t0\n 20272: u64 [s1 + 0x188] = a5\n 20276: ra = 796, jump @24\n      : @774 [@dyn 398] (gas: 11)\n 20282: a4 = s1 + 0x100\n 20286: a2 = u64 [a4 + 0x98]\n 20290: a0 = u64 [a4 + 0x88]\n 20294: a1 = u64 [a4 + 0x80]\n 20298: a0 = a0 | a1\n 20301: a1 = 0xffffffe0\n 20311: a1 = a2 <u a1\n 20314: a3 = u64 [a4 + 0x90]\n 20318: a1 = 0 if a3 != 0\n 20320: a1 = 0 if a0 != 0\n 20322: jump @776 if a1 != 0\n      : @775 (gas: 1)\n 20325: jump @1045\n      : @776 (gas: 13)\n 20328: a0 = u64 [s1 + 0x108]\n 20332: a1 = u64 [s1 + 0xb0]\n 20336: a1 = a1 & a0\n 20339: i32 a0 = a2 + 0x20\n 20342: a3 = s1 + 0x7ff\n 20346: a3 = a3 + 0x111\n 20350: u64 [a3 + 1480] = 0\n 20354: u64 [a3 + 1472] = 0\n 20358: u64 [a3 + 0x5b0] = a1\n 20362: a1 = s1 + 0x7ff\n 20366: a1 = a1 + 0x6c1\n 20370: u64 [a3 + 1464] = 0\n 20374: ra = 798, jump @24\n      : @777 [@dyn 399] (gas: 6)\n 20380: a0 = u64 [s1 + 0x138]\n 20384: ra = 0x320\n 20388: ecalli 4 // 'caller'\n 20390: a2 = u64 [s1 + 0x140]\n 20394: t0 = 0x322\n 20398: jump @1795\n      : @778 [@dyn 400] (gas: 2)\n 20401: a2 = u64 [s1 + 0x140]\n 20405: t0 = 802, jump @1795\n      : @779 [@dyn 401] (gas: 36)\n 20411: t0 = a1 | a0\n 20414: a3 = a3 >> 0x20\n 20417: a2 = reverse a2\n 20419: a1 = a2 << 0x20\n 20422: t1 = a1 | a3\n 20425: a2 = a2 >> 0x20\n 20428: a3 = u64 [0x200c0]\n 20433: a4 = u64 [0x200c8]\n 20438: a5 = u64 [0x200d0]\n 20443: a0 = u64 [s1 + 0x120]\n 20447: a1 = s1 + 0x7ff\n 20451: a1 = a1 + 0x111\n 20455: u64 [a1 + 0x550] = a0\n 20459: a0 = a1 + 0x500\n 20463: u64 [a0 + 0xa8] = a3\n 20467: u64 [a0 + 0xa0] = a4\n 20471: u64 [a0 + 0x98] = a5\n 20475: a3 = u64 [0x200d8]\n 20480: u64 [a1 + 1384] = 0\n 20484: u64 [a1 + 1376] = 0\n 20488: u64 [a1 + 1368] = 0\n 20492: u64 [a0 + 0x90] = a3\n 20496: u64 [a0 + 0x80] = a2\n 20500: u64 [a1 + 0x578] = t1\n 20504: u64 [a1 + 0x570] = t0\n 20508: a0 = a1\n 20510: a1 = 0x40\n 20513: a2 = s1 + 0x7ff\n 20517: a2 = a2 + 0x6a1\n 20521: a3 = s1 + 0x7ff\n 20525: a3 = a3 + 0x681\n 20529: a4 = s1 + 0x7ff\n 20533: a4 = a4 + 0x661\n 20537: u64 [a0 + 1416] = 0\n 20541: a0 = u64 [s1 + 0x198]\n 20545: ra = 804, jump @31\n      : @780 [@dyn 402] (gas: 7)\n 20551: a0 = 0\n 20553: a1 = u64 [s1 + 0x178]\n 20557: a2 = 0\n 20559: ra = 0x4ee\n 20563: ecalli 13 // 'seal_return'\n 20565: t0 = 0x4f0\n 20569: jump @1842\n      : @781 (gas: 1)\n 20572: t0 = 806, jump @1850\n      : @782 [@dyn 403] (gas: 12)\n 20578: t0 = u64 [s1 + 0x168]\n 20582: a3 = a0 if t0 != 0\n 20585: u64 [s1 + 0x198] = a3\n 20589: a0 = u64 [s1 + 0x160]\n 20593: a2 = u64 [s1 + 0x130]\n 20597: a0 = a0 | a2\n 20600: a2 = u64 [s1 + 0x118]\n 20604: a0 = a2 if a4 == 0\n 20607: a5 = u64 [s1 + 0x150]\n 20611: a3 = a5\n 20613: a3 = a0 if t0 != 0\n 20616: t0 = 808, jump @1830\n      : @783 [@dyn 404] (gas: 1)\n 20622: ra = 810, jump @1877\n      : @784 [@dyn 405] (gas: 6)\n 20628: u64 [s1 + 0x130] = a0\n 20632: u64 [s1 + 0x118] = a1\n 20636: a0 = u64 [s1 + 0x158]\n 20640: a1 = u64 [s1 + 0x148]\n 20644: a2 = u64 [s1 + 0x190]\n 20648: ra = 812, jump @1877\n      : @785 [@dyn 406] (gas: 1)\n 20654: t0 = 814, jump @1839\n      : @786 [@dyn 407] (gas: 1)\n 20660: ra = 816, jump @1882\n      : @787 [@dyn 408] (gas: 1)\n 20666: t0 = 818, jump @1845\n      : @788 [@dyn 409] (gas: 14)\n 20672: a2 = u64 [s1 + 0x148]\n 20676: a2 = a1 if a3 != 0\n 20679: u64 [s1 + 0x148] = a2\n 20683: a1 = u64 [s1 + 0x110]\n 20687: a0 = a0 | a1\n 20690: a1 = u64 [s1 + 0x130]\n 20694: a0 = a1 if a4 == 0\n 20697: a1 = u64 [s1 + 0x158]\n 20701: a1 = a0 if a3 != 0\n 20704: a2 = a3\n 20706: u64 [s1 + 0x158] = a1\n 20710: a0 = u64 [s1 + 0x150]\n 20714: a1 = u64 [s1 + 0x140]\n 20718: ra = 820, jump @1877\n      : @789 [@dyn 410] (gas: 1)\n 20724: t0 = 822, jump @1817\n      : @790 [@dyn 411] (gas: 3)\n 20730: t1 = u64 [s1 + 0x148]\n 20734: t2 = u64 [s1 + 0x158]\n 20738: fallthrough\n      : @791 (gas: 68)\n 20739: u64 [s1 + 0x158] = a4\n 20743: a2 = t2 >> 0x3f\n 20746: a3 = t1 << 0x1\n 20749: t0 = a3 | a2\n 20752: a3 = t2 << 0x1\n 20755: a4 = u64 [s1 + 0x198]\n 20759: a4 = a4 >> 0x3f\n 20762: a3 = a3 | a4\n 20765: u64 [s1 + 0x148] = a3\n 20769: a2 = u64 [s1 + 0x128]\n 20773: t2 = a1\n 20775: u64 [s1 + 0x150] = t0\n 20779: a1 = a2 ^ t0\n 20782: ra = t1\n 20784: t1 = a2 <u t0\n 20787: a4 = u64 [s1 + 0x130]\n 20791: t0 = a4 <u a3\n 20794: t0 = t1 if a1 != 0\n 20797: a1 = t2 << 0x1\n 20800: a3 = a0 >> 0x3f\n 20803: a1 = a1 | a3\n 20806: u64 [s1 + 0x140] = a1\n 20810: a3 = ra >> 0x3f\n 20813: a0 = a0 << 0x1\n 20816: a3 = a3 | a0\n 20819: a0 = u64 [s1 + 0x198]\n 20823: a0 = a0 << 0x1\n 20826: a4 = u64 [s1 + 0x160]\n 20830: a1 = a4 >> 0x3f\n 20833: ra = a0 | a1\n 20836: a1 = a4 << 0x1\n 20839: a4 = u64 [s1 + 0x168]\n 20843: t1 = a4 >> 0x3f\n 20846: t1 = a1 | t1\n 20849: a1 = a4 << 0x1\n 20852: a4 = u64 [s1 + 0x188]\n 20856: t2 = a4 >> 0x3f\n 20859: a1 = a1 | t2\n 20862: a4 = a4 << 0x1\n 20865: a0 = u64 [s1 + 0x158]\n 20869: a4 = a4 | a0\n 20872: u64 [s1 + 0x188] = a4\n 20876: a1 = a1 | a5\n 20879: u64 [s1 + 0x168] = a1\n 20883: a1 = a5 | t1\n 20886: u64 [s1 + 0x160] = a1\n 20890: a0 = a5 | ra\n 20893: u64 [s1 + 0x198] = a0\n 20897: a0 = a2 - a3\n 20900: a0 = a0 <u t0\n 20903: a1 = a2 <u a3\n 20906: t0 = u64 [s1 + 0x140]\n 20910: a4 = a2 - t0\n 20913: a4 = a4 - a1\n 20916: a4 = a4 - a0\n 20919: a5 = a4 >>a 0x3f\n 20922: a0 = u64 [s1 + 0x138]\n 20926: a0 = a0 & a5\n 20929: a1 = u64 [s1 + 0x148]\n 20933: t2 = a1 - a0\n 20936: a1 = a1 <u a0\n 20939: a0 = u64 [s1 + 0x150]\n 20943: t1 = a0 - a1\n 20946: a1 = 0 if a0 != 0\n 20948: a0 = a3 - a1\n 20951: a1 = a3 <u a1\n 20954: a1 = t0 - a1\n 20957: t0 = 824, jump @1874\n      : @792 [@dyn 412] (gas: 17)\n 20963: t0 = a4 <u a2\n 20966: a2 = a4 - a2\n 20969: a4 = a3 <u 0x1\n 20972: ra = ra - a4\n 20975: a4 = u64 [s1 + 0x178]\n 20979: a4 = a4 - t0\n 20982: a3 = a3 + 0xffffffffffffffff\n 20985: u64 [s1 + 0x180] = ra\n 20989: u64 [s1 + 0x178] = a4\n 20993: t0 = ra | a4\n 20996: u64 [s1 + 0x190] = a3\n 21000: a4 = a3 | a2\n 21003: a3 = a4 | t0\n 21006: a4 = a5 & 0x1\n 21009: u64 [s1 + 0x170] = a2\n 21013: a5 = 0\n 21015: jump @791 if a3 != 0\n      : @793 (gas: 4)\n 21019: a0 = u64 [s1 + 0x188]\n 21023: a0 = a0 << 0x1\n 21026: a4 = a4 | a0\n 21029: fallthrough\n      : @794 (gas: 4)\n 21030: u64 [s1 + 0x178] = a4\n 21034: a0 = s1 + 0x3120\n 21038: a1 = 0x40\n 21041: ra = 826, jump @22\n      : @795 [@dyn 413] (gas: 18)\n 21047: a1 = s1 + 0x3118\n 21051: a0 = u64 [a1 + 0x20]\n 21054: u64 [s1 + 0x188] = a0\n 21058: a2 = u64 [a1 + 0x18]\n 21061: u64 [s1 + 0x180] = a2\n 21065: a3 = u64 [a1 + 0x10]\n 21068: u64 [s1 + 0x190] = a3\n 21072: a4 = u64 [a1 + 0x8]\n 21075: u64 [s1 + 0x198] = a4\n 21079: u64 [a1] = a0\n 21081: a5 = a1 + 0xffffffffffffff00\n 21085: u64 [a5 + 0xf8] = a2\n 21089: u64 [a5 + 0xf0] = a3\n 21093: a0 = s1 + 0x3100\n 21097: u64 [a5 + 0xe8] = a4\n 21101: ra = 0x33c\n 21105: t0 = 0x684\n 21109: jump @1831\n      : @796 [@dyn 414] (gas: 13)\n 21112: a4 = s1 + 0x100\n 21116: a2 = u64 [a4 + 0x98]\n 21120: a0 = u64 [a4 + 0x88]\n 21124: a1 = u64 [a4 + 0x90]\n 21128: a0 = a0 | a1\n 21131: a3 = u64 [a4 + 0x80]\n 21135: a1 = a2 | a3\n 21138: a1 = a1 | a0\n 21141: a1 = a1 >> 0x20\n 21144: a0 = a0 | a3\n 21147: a0 = a0 << 0x20\n 21150: a0 = a0 | a1\n 21153: jump @798 if a0 == 0\n      : @797 (gas: 1)\n 21156: jump @1045\n      : @798 (gas: 13)\n 21159: a3 = s1 + 0x2918\n 21163: a0 = u64 [s1 + 0xf0]\n 21167: a4 = a3 + 0x700\n 21171: u64 [a4 + 0xc8] = a0\n 21175: a0 = u64 [s1 + 0xf8]\n 21179: u64 [a4 + 0xd0] = a0\n 21183: a0 = u64 [s1 + 0x100]\n 21187: u64 [a4 + 0xd8] = a0\n 21191: a1 = s1 + 0x30e0\n 21195: a0 = u64 [s1 + 0x108]\n 21199: u64 [a4 + 0xe0] = a0\n 21203: a0 = a2\n 21205: ra = 830, jump @24\n      : @799 [@dyn 415] (gas: 3)\n 21211: a0 = u64 [s1 + 0xc0]\n 21215: ecalli 4 // 'caller'\n 21217: fallthrough\n      : @800 (gas: 11)\n 21218: a3 = s1 + 0x100\n 21222: a4 = u64 [a3 + 0x98]\n 21226: a0 = u64 [a3 + 0x88]\n 21230: a2 = u64 [a3 + 0x80]\n 21234: a2 = a2 | a0\n 21237: a0 = 0xffffffe0\n 21247: a0 = a4 <u a0\n 21250: a1 = u64 [a3 + 0x90]\n 21254: a0 = 0 if a1 != 0\n 21256: a0 = 0 if a2 != 0\n 21258: jump @802 if a0 != 0\n      : @801 (gas: 1)\n 21261: jump @1045\n      : @802 (gas: 25)\n 21264: u64 [s1 + 0x140] = a2\n 21268: a2 = u64 [s1 + 0xd8]\n 21272: a0 = u64 [a2 + 0x8]\n 21275: a1 = i32 [a2 + 0x10]\n 21278: a2 = u64 [a2]\n 21280: a0 = reverse a0\n 21282: a3 = a0 << 0x20\n 21285: a1 = reverse a1\n 21287: a1 = a1 >> 0x20\n 21290: a3 = a3 | a1\n 21293: a0 = a0 >> 0x20\n 21296: a1 = reverse a2\n 21298: a2 = a1 << 0x20\n 21301: a2 = a2 | a0\n 21304: a1 = a1 >> 0x20\n 21307: i32 a0 = a4 + 0x20\n 21310: a4 = s1 + 0x2918\n 21314: u64 [a4 + 1984] = 0\n 21318: a5 = a4 + 0x700\n 21322: u64 [a5 + 0xb8] = a1\n 21326: u64 [a5 + 0xb0] = a2\n 21330: a1 = s1 + 0x30c0\n 21334: u64 [a5 + 0xa8] = a3\n 21338: u64 [s1 + 0x138] = a0\n 21342: ra = 832, jump @24\n      : @803 [@dyn 416] (gas: 13)\n 21348: a0 = u64 [s1 + 0xb0]\n 21352: a3 = s1 + 0x2918\n 21356: a4 = a3 + 0x700\n 21360: u64 [a4 + 0x80] = a0\n 21364: a0 = u64 [s1 + 0xe8]\n 21368: u64 [a4 + 0x78] = a0\n 21371: a0 = u64 [s1 + 0xe0]\n 21375: u64 [a4 + 0x70] = a0\n 21378: a0 = s1 + 0x30a0\n 21382: a1 = s1 + 0x3080\n 21386: a2 = u64 [s1 + 0xb8]\n 21390: u64 [a4 + 0x68] = a2\n 21393: ra = 834, jump @1607\n      : @804 [@dyn 417] (gas: 13)\n 21399: a0 = s1 + 0x2918\n 21403: a2 = a0 + 0x700\n 21407: a1 = u64 [a2 + 0x88]\n 21411: u64 [s1 + 0x160] = a1\n 21415: a1 = u64 [a2 + 0x90]\n 21419: u64 [s1 + 0x158] = a1\n 21423: a1 = u64 [a2 + 0x98]\n 21427: u64 [s1 + 0x150] = a1\n 21431: a1 = u64 [a2 + 0xa0]\n 21435: u64 [s1 + 0x148] = a1\n 21439: a0 = s1 + 0x3060\n 21443: a1 = 0x40\n 21446: ra = 836, jump @22\n      : @805 [@dyn 418] (gas: 26)\n 21452: a0 = s1 + 0x2918\n 21456: a3 = u64 [a0 + 0x760]\n 21460: u64 [s1 + 0x188] = a3\n 21464: a1 = u64 [a0 + 0x758]\n 21468: u64 [s1 + 0x180] = a1\n 21472: a5 = u64 [a0 + 0x750]\n 21476: u64 [s1 + 0x170] = a5\n 21480: a4 = u64 [a0 + 0x748]\n 21484: u64 [s1 + 0x168] = a4\n 21488: a2 = u64 [s1 + 0x148]\n 21492: u64 [a0 + 0x720] = a2\n 21496: a2 = u64 [s1 + 0x150]\n 21500: u64 [a0 + 0x718] = a2\n 21504: a2 = u64 [s1 + 0x158]\n 21508: u64 [a0 + 0x710] = a2\n 21512: a2 = u64 [s1 + 0x160]\n 21516: u64 [a0 + 0x708] = a2\n 21520: a2 = a0 + 0x700\n 21524: u64 [a2 + 0x40] = a3\n 21527: u64 [a2 + 0x38] = a1\n 21530: u64 [a2 + 0x30] = a5\n 21533: a2 = a0\n 21535: a0 = s1 + 0x3040\n 21539: a1 = s1 + 0x3020\n 21543: u64 [a2 + 0x728] = a4\n 21547: ra = 838, jump @1567\n      : @806 [@dyn 419] (gas: 14)\n 21553: a2 = s1 + 0x100\n 21557: a1 = u64 [a2 + 0x70]\n 21560: a0 = u64 [a2 + 0x88]\n 21564: a0 = a0 | a1\n 21567: a1 = u64 [a2 + 0x68]\n 21570: a5 = a1\n 21572: a4 = u64 [a2 + 0x80]\n 21576: a1 = a1 | a4\n 21579: a1 = a1 | a0\n 21582: a1 = a1 >> 0x20\n 21585: a0 = a0 | a4\n 21588: a0 = a0 << 0x20\n 21591: a0 = a0 | a1\n 21594: jump @808 if a0 == 0\n      : @807 (gas: 1)\n 21597: jump @1045\n      : @808 (gas: 13)\n 21600: a0 = s1 + 0x2918\n 21604: a1 = u64 [s1 + 0xb8]\n 21608: a2 = a0 + 0x600\n 21612: u64 [a2 + 0xe8] = a1\n 21616: a1 = u64 [s1 + 0xe0]\n 21620: u64 [a2 + 0xf0] = a1\n 21624: a1 = u64 [s1 + 0xe8]\n 21628: u64 [a2 + 0xf8] = a1\n 21632: a1 = s1 + 0x3000\n 21636: a4 = u64 [s1 + 0xb0]\n 21640: u64 [a0 + 0x700] = a4\n 21644: a0 = a5\n 21646: ra = 840, jump @24\n      : @809 [@dyn 420] (gas: 10)\n 21652: a0 = u64 [s1 + 0x188]\n 21656: a3 = u64 [s1 + 0x180]\n 21660: a0 = a0 | a3\n 21663: a4 = 0xffffffe0\n 21673: a5 = u64 [s1 + 0x168]\n 21677: a1 = a5 <u a4\n 21680: a2 = u64 [s1 + 0x170]\n 21684: a1 = 0 if a2 != 0\n 21686: a1 = 0 if a0 != 0\n 21688: jump @811 if a1 != 0\n      : @810 (gas: 1)\n 21691: jump @1045\n      : @811 (gas: 8)\n 21694: a1 = u64 [s1 + 0xb8]\n 21698: i32 a0 = a1 + 0\n 21700: u64 [s1 + 0x90] = a0\n 21704: a0 = i32 [s1 + 0x120]\n 21708: u64 [s1 + 0x88] = a0\n 21712: i32 a0 = a5 + 0x20\n 21715: u64 [s1 + 0x160] = a4\n 21719: ra = 842, jump @37\n      : @812 [@dyn 421] (gas: 5)\n 21725: i32 a0 = a0 + 0\n 21727: a1 = u64 [s1 + 0x90]\n 21731: a2 = u64 [s1 + 0x88]\n 21735: ecalli 1 // 'call_data_copy'\n 21737: fallthrough\n      : @813 (gas: 28)\n 21738: a4 = u64 [s1 + 0x170]\n 21742: t0 = u64 [s1 + 0xb8]\n 21746: a0 = u64 [s1 + 0x168]\n 21750: t0 = t0 + a0\n 21753: a1 = t0 <u a0\n 21756: a2 = u64 [s1 + 0xe0]\n 21760: a2 = a2 + a4\n 21763: a2 = a2 + a1\n 21766: a3 = a2 ^ a4\n 21769: a4 = a2 <u a4\n 21772: a4 = a1 if a3 == 0\n 21775: a1 = u64 [s1 + 0xe8]\n 21779: a0 = u64 [s1 + 0x180]\n 21783: a1 = a1 + a0\n 21786: a3 = a1 <u a0\n 21789: a5 = u64 [s1 + 0x188]\n 21793: a0 = u64 [s1 + 0xb0]\n 21797: a5 = a5 + a0\n 21800: a3 = a3 + a5\n 21803: a4 = a4 + a1\n 21806: a1 = a4 <u a1\n 21809: a1 = a1 + a3\n 21812: a1 = a1 | a4\n 21815: a0 = u64 [s1 + 0x160]\n 21819: a3 = t0 <u a0\n 21822: a3 = 0 if a2 != 0\n 21824: a3 = 0 if a1 != 0\n 21826: jump @815 if a3 != 0\n      : @814 (gas: 1)\n 21829: jump @1045\n      : @815 (gas: 8)\n 21832: i32 a0 = t0 + 0x20\n 21835: a2 = s1 + 0x2918\n 21839: u64 [a2 + 1760] = 0\n 21843: u64 [a2 + 1752] = 0\n 21847: u64 [a2 + 1744] = 0\n 21851: a1 = s1 + 0x2fe0\n 21855: u64 [a2 + 1736] = 0\n 21859: ra = 844, jump @24\n      : @816 [@dyn 422] (gas: 10)\n 21865: a3 = 0x100000000\n 21875: a0 = 0xffffffc0\n 21885: a4 = s1 + 0x100\n 21889: a1 = u64 [a4 + 0x98]\n 21893: a0 = a1 <u a0\n 21896: a2 = u64 [a4 + 0x90]\n 21900: a0 = 0 if a2 != 0\n 21902: a2 = u64 [a4 + 0x40]\n 21905: a0 = 0 if a2 != 0\n 21907: jump @818 if a0 != 0\n      : @817 (gas: 1)\n 21910: jump @1045\n      : @818 (gas: 16)\n 21913: i32 a0 = a1 + 0x40\n 21916: a1 = s1 + 0x2918\n 21920: u64 [s1 + 0x160] = a3\n 21924: a3 = a1\n 21926: a1 = u64 [s1 + 0x168]\n 21930: a4 = a3 + 0x600\n 21934: u64 [a4 + 0xa8] = a1\n 21938: a1 = u64 [s1 + 0x170]\n 21942: u64 [a4 + 0xb0] = a1\n 21946: a1 = u64 [s1 + 0x180]\n 21950: u64 [a4 + 0xb8] = a1\n 21954: a1 = s1 + 0x2fc0\n 21958: a2 = u64 [s1 + 0x188]\n 21962: u64 [a4 + 0xc0] = a2\n 21966: u64 [s1 + 0x188] = a0\n 21970: ra = 846, jump @24\n      : @819 [@dyn 423] (gas: 10)\n 21976: a4 = s1 + 0x100\n 21980: a3 = u64 [a4 + 0x40]\n 21983: a2 = u64 [a4 + 0x90]\n 21987: a1 = u64 [a4 + 0x98]\n 21991: a0 = u64 [a4 + 0x60]\n 21994: a0 = a0 + 0xffffffffffffffa0\n 21997: a0 = a1 <u a0\n 22000: a0 = 0 if a2 != 0\n 22002: a0 = 0 if a3 != 0\n 22004: jump @821 if a0 != 0\n      : @820 (gas: 1)\n 22007: jump @1045\n      : @821 (gas: 10)\n 22010: i32 a0 = a1 + 0x60\n 22013: a4 = s1 + 0x2918\n 22017: u64 [a4 + 1696] = 0\n 22021: u64 [a4 + 1688] = 0\n 22025: u64 [a4 + 1680] = 0\n 22029: a1 = s1 + 0x2fa0\n 22033: a2 = u64 [s1 + 0x178]\n 22037: u64 [a4 + 0x688] = a2\n 22041: u64 [s1 + 0x68] = a0\n 22044: ra = 848, jump @24\n      : @822 [@dyn 424] (gas: 9)\n 22050: a3 = s1 + 0x100\n 22054: a1 = u64 [a3 + 0x98]\n 22058: a0 = 0xffffff80\n 22068: a0 = a1 <u a0\n 22071: a2 = u64 [a3 + 0x90]\n 22075: a0 = 0 if a2 != 0\n 22077: a2 = u64 [a3 + 0x40]\n 22080: a0 = 0 if a2 != 0\n 22082: jump @824 if a0 != 0\n      : @823 (gas: 1)\n 22085: jump @1045\n      : @824 (gas: 9)\n 22088: i32 a0 = a1 + 0x80\n 22092: a2 = s1 + 0x2918\n 22096: u64 [a2 + 1664] = 0\n 22100: u64 [a2 + 1656] = 0\n 22104: u64 [a2 + 1648] = 0\n 22108: a1 = s1 + 0x2f80\n 22112: u64 [a2 + 1640] = 0\n 22116: u64 [s1 + 0x20] = a0\n 22119: ra = 850, jump @24\n      : @825 [@dyn 425] (gas: 6)\n 22125: a0 = u64 [s1 + 0xc0]\n 22129: ra = 0x354\n 22133: ecalli 4 // 'caller'\n 22135: a2 = u64 [s1 + 0xd8]\n 22139: t0 = 0x356\n 22143: jump @1790\n      : @826 [@dyn 426] (gas: 2)\n 22146: a2 = u64 [s1 + 0xd8]\n 22150: t0 = 854, jump @1790\n      : @827 [@dyn 427] (gas: 8)\n 22156: u64 [a2 + 1632] = 0\n 22160: a4 = a2 + 0x600\n 22164: u64 [a4 + 0x58] = a1\n 22167: u64 [a4 + 0x50] = a0\n 22170: a1 = s1 + 0x2f60\n 22174: u64 [a4 + 0x48] = a3\n 22177: a0 = 0\n 22179: ra = 856, jump @24\n      : @828 [@dyn 428] (gas: 3)\n 22185: t0 = 0x35a\n 22189: a1 = s1 + 0x2918\n 22193: fallthrough\n      : @829 [@dyn 429] (gas: 8)\n 22194: u64 [a1 + 1600] = 0\n 22198: u64 [a1 + 1592] = 0\n 22202: u64 [a1 + 1576] = 0x2\n 22207: a2 = a1\n 22209: a0 = 0x20\n 22212: a1 = s1 + 0x2f40\n 22216: u64 [a2 + 1584] = 0\n 22220: ra = 860, jump @24\n      : @830 [@dyn 430] (gas: 3)\n 22226: a1 = u64 [s1 + 0xa8]\n 22230: a0 = i32 [a1]\n 22232: jump @832 if a0 >u 63\n      : @831 (gas: 2)\n 22236: u32 [a1 + 0] = 0x40\n 22239: fallthrough\n      : @832 (gas: 5)\n 22240: a1 = 0xffffffff00000000\n 22250: u64 [s1 + 0x78] = a1\n 22253: a0 = 0xffffffff\n 22263: u64 [s1 + 0x70] = a0\n 22266: t0 = 862, jump @1858\n      : @833 [@dyn 431] (gas: 5)\n 22272: ra = 0x360\n 22276: ecalli 8 // 'hash_keccak_256'\n 22278: a3 = u64 [s1 + 0x190]\n 22282: t0 = 0x362\n 22286: jump @1870\n      : @834 [@dyn 432] (gas: 2)\n 22289: a3 = u64 [s1 + 0x190]\n 22293: t0 = 866, jump @1870\n      : @835 [@dyn 433] (gas: 14)\n 22299: u64 [s1 + 0x180] = a0\n 22303: a0 = reverse a1\n 22305: u64 [s1 + 0x178] = a0\n 22309: a0 = reverse a2\n 22311: u64 [s1 + 0x170] = a0\n 22315: a0 = reverse a3\n 22317: u64 [s1 + 0x168] = a0\n 22321: a0 = sp + 0xffffffffffffffe0\n 22324: a0 = a0 & 0xffffffffffffffe0\n 22327: u64 [s1 + 0x190] = a0\n 22331: sp = a0\n 22333: t0 = 0x364\n 22337: a2 = s1 + 0x2918\n 22341: fallthrough\n      : @836 [@dyn 434] (gas: 12)\n 22342: a0 = u64 [s1 + 0x108]\n 22346: a3 = a2 + 0x600\n 22350: u64 [a3 + 0x20] = a0\n 22353: a0 = u64 [s1 + 0x100]\n 22357: u64 [a3 + 0x18] = a0\n 22360: a0 = u64 [s1 + 0xf8]\n 22364: u64 [a3 + 0x10] = a0\n 22367: a1 = s1 + 0x2f20\n 22371: a0 = u64 [s1 + 0xf0]\n 22375: u64 [a3 + 0x8] = a0\n 22378: a0 = 0\n 22380: ra = 870, jump @24\n      : @837 [@dyn 435] (gas: 3)\n 22386: t0 = 0x368\n 22390: a1 = s1 + 0x2918\n 22394: fallthrough\n      : @838 [@dyn 436] (gas: 13)\n 22395: a4 = s1 + 0x100\n 22399: a0 = u64 [a4 + 0x68]\n 22402: u64 [a1 + 0x600] = a0\n 22406: a0 = u64 [a4 + 0x70]\n 22409: u64 [a1 + 0x5f8] = a0\n 22413: a0 = u64 [a4 + 0x78]\n 22416: u64 [a1 + 0x5f0] = a0\n 22420: a3 = a1\n 22422: a0 = 0x20\n 22425: a1 = s1 + 0x2f00\n 22429: a2 = u64 [a4 + 0x80]\n 22433: u64 [a3 + 0x5e8] = a2\n 22437: ra = 874, jump @24\n      : @839 [@dyn 437] (gas: 3)\n 22443: a1 = u64 [s1 + 0xa8]\n 22447: a0 = i32 [a1]\n 22449: jump @841 if a0 >u 63\n      : @840 (gas: 2)\n 22453: u32 [a1 + 0] = 0x40\n 22456: fallthrough\n      : @841 (gas: 29)\n 22457: a0 = sp + 0xffffffffffffffe0\n 22460: a0 = a0 & 0xffffffffffffffe0\n 22463: u64 [s1 + 0x180] = a0\n 22467: sp = a0\n 22469: i32 a2 = a0 + 0\n 22471: a1 = 0x40\n 22474: a0 = u64 [s1 + 0xa0]\n 22478: ecalli 8 // 'hash_keccak_256'\n 22480: a3 = u64 [s1 + 0x180]\n 22484: a0 = u64 [a3 + 0x18]\n 22487: a1 = u64 [a3 + 0x10]\n 22490: a2 = u64 [a3 + 0x8]\n 22493: a3 = u64 [a3]\n 22495: a5 = reverse a0\n 22497: u64 [s1 + 0x48] = a5\n 22500: a4 = reverse a1\n 22502: u64 [s1 + 0x50] = a4\n 22505: a1 = reverse a2\n 22507: u64 [s1 + 0x60] = a1\n 22510: a0 = reverse a3\n 22512: u64 [s1 + 0x58] = a0\n 22515: a2 = u64 [s1 + 0x190]\n 22519: u64 [a2 + 0x18] = a0\n 22522: u64 [a2 + 0x10] = a1\n 22525: u64 [a2 + 0x8] = a4\n 22528: u64 [a2] = a5\n 22530: a0 = s1 + 0x2ee0\n 22534: a1 = u64 [s1 + 0x198]\n 22538: ra = 876, jump @22\n      : @842 [@dyn 438] (gas: 8)\n 22544: a0 = s1 + 0x2918\n 22548: a0 = u64 [a0 + 0x5c8]\n 22552: a1 = u64 [s1 + 0x70]\n 22555: a0 = a0 & a1\n 22558: u64 [s1 + 0x198] = a0\n 22562: a0 = s1 + 0x2ec0\n 22566: a1 = u64 [s1 + 0x190]\n 22570: ra = 878, jump @26\n      : @843 [@dyn 439] (gas: 22)\n 22576: a3 = s1 + 0x2918\n 22580: a4 = a3 + 0x500\n 22584: a0 = u64 [a4 + 0xb0]\n 22588: a1 = u64 [a4 + 0xb8]\n 22592: a2 = u64 [a4 + 0xc0]\n 22596: a3 = u64 [a4 + 0xa8]\n 22600: a0 = a0 & 0xffffffffffffffff\n 22603: a1 = a1 & 0xffffffffffffffff\n 22606: a2 = a2 & 0xffffffffffffffff\n 22609: a4 = u64 [s1 + 0x78]\n 22612: a3 = a3 & a4\n 22615: a4 = u64 [s1 + 0x198]\n 22619: a3 = a3 | a4\n 22622: a4 = s1 + 0x3918\n 22626: a5 = a4 + 0x200\n 22630: u64 [a5 + 0xc0] = a2\n 22634: u64 [a5 + 0xb8] = a1\n 22638: u64 [a5 + 0xb0] = a0\n 22642: u64 [a5 + 0xa8] = a3\n 22646: a1 = s1 + 0x3bc0\n 22650: a0 = u64 [s1 + 0x190]\n 22654: ra = 880, jump @28\n      : @844 [@dyn 440] (gas: 3)\n 22660: a0 = s1 + 0x2ea0\n 22664: a1 = u64 [s1 + 0x138]\n 22668: ra = 882, jump @22\n      : @845 [@dyn 441] (gas: 11)\n 22674: a0 = s1 + 0x2918\n 22678: a2 = a0 + 0x500\n 22682: a1 = u64 [a2 + 0x98]\n 22686: u64 [s1 + 0x198] = a1\n 22690: a1 = u64 [a2 + 0x90]\n 22694: u64 [s1 + 0x180] = a1\n 22698: a1 = u64 [a2 + 0x88]\n 22702: u64 [s1 + 0x178] = a1\n 22706: a0 = s1 + 0x2e80\n 22710: a1 = u64 [s1 + 0x190]\n 22714: ra = 884, jump @26\n      : @846 [@dyn 442] (gas: 23)\n 22720: a1 = s1 + 0x2918\n 22724: a0 = u64 [a1 + 0x580]\n 22728: a1 = u32 [a1 + 0x568]\n 22732: a5 = u64 [s1 + 0x178]\n 22736: a2 = a5 >> 0x20\n 22739: a4 = u64 [s1 + 0x180]\n 22743: a3 = a4 << 0x20\n 22746: a2 = a2 | a3\n 22749: a3 = a4 >> 0x20\n 22752: a4 = u64 [s1 + 0x198]\n 22756: a4 = a4 << 0x20\n 22759: a3 = a3 | a4\n 22762: a4 = a5 << 0x20\n 22765: a1 = a1 | a4\n 22768: a4 = s1 + 0x3918\n 22772: a5 = a4 + 0x200\n 22776: u64 [a5 + 0xd8] = a3\n 22780: u64 [a5 + 0xd0] = a2\n 22784: u64 [a5 + 0xe0] = a0\n 22788: u64 [a5 + 0xc8] = a1\n 22792: a1 = s1 + 0x3be0\n 22796: a0 = u64 [s1 + 0x190]\n 22800: ra = 886, jump @28\n      : @847 [@dyn 443] (gas: 27)\n 22806: a0 = sp + 0xffffffffffffffe0\n 22809: a1 = a0 & 0xffffffffffffffe0\n 22812: sp = a1\n 22814: a2 = u64 [s1 + 0x48]\n 22817: a2 = a2 + 0x1\n 22820: a0 = a2 <u 0x1\n 22823: a3 = u64 [s1 + 0x50]\n 22826: a3 = a3 + a0\n 22829: a0 = a2 | a3\n 22832: a0 = a0 <u 0x1\n 22835: a5 = u64 [s1 + 0x60]\n 22838: a4 = a5 + a0\n 22841: a0 = a4 <u a5\n 22844: a5 = u64 [s1 + 0x58]\n 22847: a0 = a0 + a5\n 22850: u64 [s1 + 0x148] = a0\n 22854: u64 [a1 + 0x18] = a0\n 22857: u64 [s1 + 0x138] = a4\n 22861: u64 [a1 + 0x10] = a4\n 22864: u64 [s1 + 0x140] = a3\n 22868: u64 [a1 + 0x8] = a3\n 22871: u64 [s1 + 0x38] = a1\n 22874: u64 [s1 + 0x150] = a2\n 22878: u64 [a1] = a2\n 22880: a0 = s1 + 0x2e60\n 22884: a1 = u64 [s1 + 0x188]\n 22888: ra = 888, jump @22\n      : @848 [@dyn 444] (gas: 18)\n 22894: a0 = s1 + 0x2918\n 22898: a5 = a0 + 0x500\n 22902: a3 = u64 [a5 + 0x60]\n 22905: a4 = u64 [a5 + 0x58]\n 22908: a2 = u64 [a5 + 0x50]\n 22911: a1 = u64 [a5 + 0x48]\n 22914: a5 = s1 + 0x100\n 22918: u64 [a5 + 0x30] = a2\n 22921: u64 [a5 + 0x28] = a3\n 22924: a0 = a2 | a3\n 22927: a2 = a1 | a4\n 22930: a2 = a2 | a0\n 22933: a2 = a2 >> 0x20\n 22936: u64 [a5 + 0x20] = a4\n 22939: a0 = a0 | a4\n 22942: a0 = a0 << 0x20\n 22945: a0 = a0 | a2\n 22948: jump @850 if a0 == 0\n      : @849 (gas: 1)\n 22951: jump @1045\n      : @850 (gas: 3)\n 22954: a0 = s1 + 0x2e40\n 22958: u64 [s1 + 0x118] = a1\n 22962: ra = 890, jump @22\n      : @851 [@dyn 445] (gas: 2)\n 22968: a2 = s1 + 0x2918\n 22972: fallthrough\n      : @852 (gas: 17)\n 22973: a0 = a2 + 0x500\n 22977: a4 = u64 [a0 + 0x40]\n 22980: a3 = u64 [a0 + 0x38]\n 22983: a1 = u64 [a0 + 0x30]\n 22986: a0 = a4 >u 0\n 22988: a5 = a3 >u 0\n 22990: a5 = a0 if a4 != 0\n 22993: u64 [s1 + 0x40] = a1\n 22996: a0 = a1 >u 0\n 22998: u64 [s1 + 0x30] = a3\n 23001: u64 [s1 + 0x28] = a4\n 23004: a3 = a3 | a4\n 23007: u64 [s1 + 0x8] = a0\n 23010: u64 [s1 + 0x10] = a5\n 23013: u64 [s1 + 0x110] = a3\n 23017: a0 = a5 if a3 != 0\n 23020: jump @854 if a0 == 0\n      : @853 (gas: 1)\n 23023: jump @1146\n      : @854 (gas: 5)\n 23026: a0 = u64 [a2 + 0x528]\n 23030: u64 [s1 + 0x80] = a0\n 23034: a0 = s1 + 0x2e20\n 23038: a1 = u64 [s1 + 0x38]\n 23041: ra = 892, jump @26\n      : @855 [@dyn 446] (gas: 14)\n 23047: a4 = s1 + 0x2918\n 23051: a5 = a4 + 0x500\n 23055: a2 = u64 [a5 + 0x8]\n 23058: a0 = u64 [a5 + 0x10]\n 23061: a1 = u64 [a5 + 0x18]\n 23064: a3 = u64 [a5 + 0x20]\n 23067: a5 = a4 + 0x400\n 23071: u64 [a5 + 0xe0] = a3\n 23075: u64 [a5 + 0xd8] = a1\n 23079: u64 [a5 + 0xd0] = a0\n 23083: a0 = s1 + 0x2e00\n 23087: a1 = s1 + 0x2de0\n 23091: u64 [a5 + 0xc8] = a2\n 23095: ra = 894, jump @1534\n      : @856 [@dyn 447] (gas: 23)\n 23101: a0 = s1 + 0x2918\n 23105: a3 = u64 [a0 + 0x500]\n 23109: a1 = a0 + 0x400\n 23113: a4 = u64 [a1 + 0xf8]\n 23117: a5 = u64 [a1 + 0xf0]\n 23121: a2 = u64 [a1 + 0xe8]\n 23125: a0 = a3 >u 0\n 23127: a1 = a4 >u 0\n 23129: a1 = a0 if a3 != 0\n 23132: a0 = a5 >u 0\n 23134: u64 [s1 + 0x178] = a2\n 23138: a2 = a2 <u 0x20\n 23141: a2 = a2 ^ 0x1\n 23144: u64 [s1 + 0x180] = a5\n 23148: a2 = a0 if a5 != 0\n 23151: u64 [s1 + 0x188] = a3\n 23155: u64 [s1 + 0x190] = a4\n 23159: a0 = a4 | a3\n 23162: a2 = a1 if a0 != 0\n 23165: a0 = u64 [s1 + 0x80]\n 23169: a0 = a0 <u 0x20\n 23172: u64 [s1 + 0x18] = a0\n 23175: jump @858 if a2 != 0\n      : @857 (gas: 1)\n 23178: jump @972\n      : @858 (gas: 14)\n 23181: a0 = s1 + 0x2918\n 23185: a3 = s1 + 0x100\n 23189: a1 = u64 [a3 + 0x50]\n 23192: a4 = a0 + 0x400\n 23196: u64 [a4 + 0xa8] = a1\n 23200: a1 = u64 [a3 + 0x40]\n 23203: u64 [a4 + 0xb0] = a1\n 23207: a1 = u64 [a3 + 0x38]\n 23210: u64 [a4 + 0xb8] = a1\n 23214: a1 = s1 + 0x2dc0\n 23218: a2 = u64 [a3 + 0x48]\n 23221: u64 [a4 + 0xc0] = a2\n 23225: a0 = 0\n 23227: ra = 896, jump @24\n      : @859 [@dyn 448] (gas: 3)\n 23233: a0 = u64 [s1 + 0xa8]\n 23237: a0 = i32 [a0]\n 23239: jump @861 if a0 >u 31\n      : @860 (gas: 3)\n 23243: a1 = u64 [s1 + 0xa8]\n 23247: u32 [a1 + 0] = 0x20\n 23250: fallthrough\n      : @861 (gas: 117)\n 23251: a0 = sp + 0xffffffffffffffe0\n 23254: a0 = a0 & 0xffffffffffffffe0\n 23257: u64 [s1 + 0x168] = a0\n 23261: sp = a0\n 23263: i32 a2 = a0 + 0\n 23265: a1 = 0x20\n 23268: a0 = u64 [s1 + 0xa0]\n 23272: ecalli 8 // 'hash_keccak_256'\n 23274: a0 = u64 [s1 + 0x80]\n 23278: a1 = a0 + 0x1f\n 23281: a0 = a1 <u a0\n 23284: a5 = u64 [s1 + 0x40]\n 23287: a2 = a5 + a0\n 23290: a3 = a2 <u a5\n 23293: a3 = a0 if a0 == 0\n 23296: a4 = u64 [s1 + 0x30]\n 23299: a3 = a3 + a4\n 23302: u64 [s1 + 0x160] = a3\n 23306: a3 = a3 << 0x3b\n 23309: a4 = a2 >> 0x5\n 23312: a4 = a4 | a3\n 23315: a0 = u64 [s1 + 0x168]\n 23319: t1 = u64 [a0 + 0x18]\n 23322: a2 = a2 << 0x3b\n 23325: a3 = u64 [a0 + 0x10]\n 23328: a1 = a1 >> 0x5\n 23331: a0 = a1 | a2\n 23334: t2 = reverse t1\n 23336: a2 = reverse a3\n 23338: a1 = u64 [s1 + 0x18]\n 23341: a1 = 0 if a5 != 0\n 23343: a3 = u64 [s1 + 0x110]\n 23347: a1 = 0 if a3 != 0\n 23349: a4 = 0 if a1 != 0\n 23351: a0 = 0 if a1 != 0\n 23353: t0 = t2 + a0\n 23356: a0 = t0 <u t2\n 23359: a5 = a2 + a0\n 23362: a4 = a4 + a5\n 23365: u64 [s1 + 0x198] = a4\n 23369: a5 = a4 ^ a2\n 23372: a3 = a4 <u a2\n 23375: a3 = a0 if a5 == 0\n 23378: u64 [s1 + 0x158] = a3\n 23382: a0 = u64 [s1 + 0x178]\n 23386: ra = a0 + 0x1f\n 23389: a4 = ra <u a0\n 23392: a3 = u64 [s1 + 0x180]\n 23396: a0 = a3 + a4\n 23399: a5 = a0 <u a3\n 23402: a5 = a4 if a4 == 0\n 23405: t1 = u64 [s1 + 0x190]\n 23409: t1 = t1 + a5\n 23412: a4 = t1 << 0x3b\n 23415: a3 = a0 >> 0x5\n 23418: a3 = a3 | a4\n 23421: a0 = a0 << 0x3b\n 23424: a4 = ra >> 0x5\n 23427: a0 = a0 | a4\n 23430: a0 = a0 + t2\n 23433: u64 [s1 + 0x178] = a0\n 23437: a0 = a0 <u t2\n 23440: t2 = t0\n 23442: a4 = a2 + a0\n 23445: a4 = a4 + a3\n 23448: a3 = a4 ^ a2\n 23451: u64 [s1 + 0x170] = a4\n 23455: a2 = a4 <u a2\n 23458: a2 = a0 if a3 == 0\n 23461: a4 = u64 [s1 + 0x160]\n 23465: a0 = u64 [s1 + 0x30]\n 23468: a0 = a4 <u a0\n 23471: a3 = u64 [s1 + 0x28]\n 23474: a0 = a0 + a3\n 23477: a3 = a4 >> 0x5\n 23480: a4 = a0 << 0x3b\n 23483: a3 = a3 | a4\n 23486: a4 = u64 [s1 + 0x168]\n 23490: t0 = u64 [a4]\n 23492: a4 = u64 [a4 + 0x8]\n 23495: a0 = a0 >> 0x5\n 23498: a3 = 0 if a1 != 0\n 23500: a0 = 0 if a1 != 0\n 23502: a1 = reverse a4\n 23504: a4 = reverse t0\n 23506: a0 = a0 + a4\n 23509: a3 = a3 + a1\n 23512: a5 = a3 <u a1\n 23515: a0 = a0 + a5\n 23518: ra = u64 [s1 + 0x158]\n 23522: ra = ra + a3\n 23525: a3 = ra <u a3\n 23528: t0 = a0 + a3\n 23531: a0 = u64 [s1 + 0x190]\n 23535: a0 = t1 <u a0\n 23538: a3 = u64 [s1 + 0x188]\n 23542: a0 = a0 + a3\n 23545: a3 = t1 >> 0x5\n 23548: a5 = a0 << 0x3b\n 23551: a3 = a3 | a5\n 23554: a0 = a0 >> 0x5\n 23557: a0 = a0 + a4\n 23560: a5 = s1 + 0x100\n 23564: a4 = u64 [a5 + 0x98]\n 23568: a3 = a3 + a1\n 23571: a1 = a3 <u a1\n 23574: a0 = a0 + a1\n 23577: a2 = a2 + a3\n 23580: u64 [a5 + 0x68] = a2\n 23583: a1 = a2 <u a3\n 23586: a0 = a0 + a1\n 23589: u64 [a5 + 0x60] = a0\n 23592: a0 = sp + 0xffffffffffffffe0\n 23595: t1 = a0 & 0xffffffffffffffe0\n 23598: sp = t1\n 23600: u64 [s1 + 0x158] = t1\n 23604: fallthrough\n      : @862 (gas: 24)\n 23605: a0 = u64 [s1 + 0x178]\n 23609: a0 = t2 <u a0\n 23612: a2 = u64 [s1 + 0x170]\n 23616: a1 = a4 ^ a2\n 23619: a2 = a4 <u a2\n 23622: a2 = a0 if a1 == 0\n 23625: a5 = u64 [s1 + 0x168]\n 23629: a0 = ra <u a5\n 23632: a3 = u64 [s1 + 0x160]\n 23636: a1 = t0 ^ a3\n 23639: a3 = t0 <u a3\n 23642: a3 = a0 if a1 == 0\n 23645: a0 = ra ^ a5\n 23648: a0 = a0 | a1\n 23651: a3 = a2 if a0 == 0\n 23654: u64 [s1 + 0x190] = t2\n 23658: u64 [t1] = t2\n 23660: u64 [s1 + 0x198] = a4\n 23664: u64 [t1 + 0x8] = a4\n 23667: u64 [s1 + 0x180] = ra\n 23671: u64 [t1 + 0x10] = ra\n 23674: u64 [s1 + 0x188] = t0\n 23678: u64 [t1 + 0x18] = t0\n 23681: jump @972 if a3 == 0\n      : @863 (gas: 8)\n 23685: a0 = s1 + 0x3918\n 23689: u64 [a0 + 768] = 0\n 23693: u64 [a0 + 760] = 0\n 23697: u64 [a0 + 752] = 0\n 23701: u64 [a0 + 744] = 0\n 23705: a1 = s1 + 0x3c00\n 23709: a0 = t1\n 23711: ra = 898, jump @28\n      : @864 [@dyn 449] (gas: 15)\n 23717: t1 = u64 [s1 + 0x158]\n 23721: t2 = u64 [s1 + 0x190]\n 23725: t2 = t2 + 0x1\n 23728: a0 = t2 <u 0x1\n 23731: a4 = u64 [s1 + 0x198]\n 23735: a4 = a4 + a0\n 23738: a0 = t2 | a4\n 23741: a0 = a0 <u 0x1\n 23744: a1 = u64 [s1 + 0x180]\n 23748: a0 = a0 + a1\n 23751: a1 = a0 <u a1\n 23754: t0 = u64 [s1 + 0x188]\n 23758: t0 = t0 + a1\n 23761: ra = a0\n 23763: jump @862\n      : @865 (gas: 9)\n 23766: t0 = 0\n 23768: u64 [s1 + 144] = 0\n 23772: u64 [s1 + 136] = 0\n 23776: u64 [s1 + 128] = 0\n 23780: a4 = 0\n 23782: t1 = 0\n 23784: a5 = 0\n 23786: t2 = 0x1\n 23789: fallthrough\n      : @866 (gas: 11)\n 23790: a0 = t1 >u 0\n 23792: a1 = a5 >u 0\n 23794: a1 = a0 if a5 == 0\n 23797: a0 = u64 [s1 + 0x128]\n 23801: a0 = a0 <u t2\n 23804: a2 = a4 >u 0\n 23806: a2 = a0 if a4 == 0\n 23809: a0 = t1 | a5\n 23812: a2 = a1 if a0 != 0\n 23815: a3 = s1 + 0x1918\n 23819: jump @922 if a2 != 0\n      : @867 (gas: 15)\n 23823: u64 [s1 + 0x180] = t2\n 23827: u64 [s1 + 0x188] = a4\n 23831: u64 [s1 + 0x190] = t1\n 23835: u64 [s1 + 0x198] = a5\n 23839: u64 [s1 + 0x160] = t0\n 23843: u64 [a3 + 192] = 0\n 23847: a0 = u64 [s1 + 0x140]\n 23851: u64 [a3 + 0xa8] = a0\n 23855: a0 = u64 [s1 + 0x138]\n 23859: u64 [a3 + 0xb0] = a0\n 23863: a1 = s1 + 0x19c0\n 23867: a0 = u64 [s1 + 0x130]\n 23871: u64 [a3 + 0xb8] = a0\n 23875: a0 = 0\n 23877: ra = 900, jump @24\n      : @868 [@dyn 450] (gas: 9)\n 23883: a0 = s1 + 0x1918\n 23887: u64 [a0 + 160] = 0\n 23891: u64 [a0 + 152] = 0\n 23895: u64 [a0 + 144] = 0\n 23899: a3 = a0\n 23901: a0 = 0x20\n 23904: a1 = s1 + 0x19a0\n 23908: u64 [a3 + 136] = 0x2\n 23913: ra = 902, jump @24\n      : @869 [@dyn 451] (gas: 1)\n 23919: t0 = 904, jump @1868\n      : @870 [@dyn 452] (gas: 1)\n 23925: jump @872 if a2 <u a0\n      : @871 (gas: 3)\n 23928: u32 [a1 + 0] = 0x40\n 23931: t0 = 0x38a\n 23935: jump @1792\n      : @872 (gas: 1)\n 23938: t0 = 906, jump @1792\n      : @873 [@dyn 453] (gas: 5)\n 23944: ra = 0x38c\n 23948: ecalli 8 // 'hash_keccak_256'\n 23950: a3 = u64 [s1 + 0x168]\n 23954: t0 = 0x38e\n 23958: jump @1870\n      : @874 [@dyn 454] (gas: 2)\n 23961: a3 = u64 [s1 + 0x168]\n 23965: t0 = 910, jump @1870\n      : @875 [@dyn 455] (gas: 23)\n 23971: u64 [s1 + 0x158] = a0\n 23975: a0 = reverse a1\n 23977: u64 [s1 + 0x150] = a0\n 23981: a0 = reverse a2\n 23983: u64 [s1 + 0x148] = a0\n 23987: a0 = reverse a3\n 23989: u64 [s1 + 0x120] = a0\n 23993: a0 = sp + 0xffffffffffffffe0\n 23996: a0 = a0 & 0xffffffffffffffe0\n 23999: u64 [s1 + 0x168] = a0\n 24003: sp = a0\n 24005: a2 = s1 + 0x1918\n 24009: a0 = u64 [s1 + 0x198]\n 24013: u64 [a2 + 0x80] = a0\n 24017: a0 = u64 [s1 + 0x190]\n 24021: u64 [a2 + 0x78] = a0\n 24024: a0 = u64 [s1 + 0x188]\n 24028: u64 [a2 + 0x70] = a0\n 24031: a1 = s1 + 0x1980\n 24035: a0 = u64 [s1 + 0x180]\n 24039: u64 [a2 + 0x68] = a0\n 24042: a0 = 0\n 24044: ra = 912, jump @24\n      : @876 [@dyn 456] (gas: 13)\n 24050: a0 = u64 [s1 + 0x120]\n 24054: a1 = s1 + 0x1918\n 24058: u64 [a1 + 0x60] = a0\n 24061: a0 = u64 [s1 + 0x148]\n 24065: u64 [a1 + 0x58] = a0\n 24068: a0 = u64 [s1 + 0x150]\n 24072: u64 [a1 + 0x50] = a0\n 24075: a3 = a1\n 24077: a0 = 0x20\n 24080: a1 = s1 + 0x1960\n 24084: a2 = u64 [s1 + 0x158]\n 24088: u64 [a3 + 0x48] = a2\n 24091: ra = 914, jump @24\n      : @877 [@dyn 457] (gas: 1)\n 24097: t0 = 916, jump @1868\n      : @878 [@dyn 458] (gas: 1)\n 24103: jump @880 if a2 <u a0\n      : @879 (gas: 2)\n 24106: u32 [a1 + 0] = 0x40\n 24109: fallthrough\n      : @880 (gas: 4)\n 24110: a0 = sp + 0xffffffffffffffe0\n 24113: a0 = a0 & 0xffffffffffffffe0\n 24116: u64 [s1 + 0x158] = a0\n 24120: t0 = 918, jump @1798\n      : @881 [@dyn 459] (gas: 3)\n 24126: ra = 0x398\n 24130: ecalli 8 // 'hash_keccak_256'\n 24132: fallthrough\n      : @882 [@dyn 460] (gas: 3)\n 24133: a5 = s1 + 0x100\n 24137: a3 = u64 [a5 + 0x58]\n 24140: t0 = 922, jump @1800\n      : @883 [@dyn 461] (gas: 11)\n 24146: a1 = u64 [a5 + 0x68]\n 24149: u64 [a5 + 0x50] = a3\n 24152: u64 [a1 + 0x18] = a3\n 24155: u64 [a5 + 0x58] = a2\n 24158: u64 [a1 + 0x10] = a2\n 24161: u64 [a5 + 0x48] = a4\n 24164: u64 [a1 + 0x8] = a4\n 24167: u64 [a5 + 0x20] = a0\n 24170: u64 [a1] = a0\n 24172: a0 = s1 + 0x1940\n 24176: ra = 924, jump @26\n      : @884 [@dyn 462] (gas: 18)\n 24182: a1 = s1 + 0x1918\n 24186: a0 = u64 [a1 + 0x30]\n 24189: a5 = u64 [a1 + 0x28]\n 24192: a1 = u64 [a1 + 0x38]\n 24195: a2 = a0 << 0x20\n 24198: a3 = a5 >> 0x20\n 24201: a2 = a2 | a3\n 24204: a3 = a1 << 0x20\n 24207: a0 = a0 >> 0x20\n 24210: a0 = a0 | a3\n 24213: a1 = a1 >> 0x20\n 24216: a4 = a0 & 0xffffffffffffffff\n 24219: a0 = u64 [s1 + 0xd0]\n 24223: a1 = a1 & a0\n 24226: a2 = a2 & 0xffffffffffffffff\n 24229: a0 = a2 | a1\n 24232: a0 = a0 | a4\n 24235: jump @887 if a0 == 0\n      : @885 (gas: 30)\n 24239: u64 [s1 + 0x100] = a5\n 24243: u64 [s1 + 0xe0] = a2\n 24247: u64 [s1 + 0xe8] = a4\n 24251: u64 [s1 + 0xf0] = a1\n 24255: a5 = s1 + 0x100\n 24259: a0 = u64 [a5 + 0x20]\n 24262: a2 = a0 + 0x2\n 24265: a0 = a2 <u a0\n 24268: a1 = u64 [a5 + 0x48]\n 24271: a3 = a1 + a0\n 24274: a1 = a3 <u a1\n 24277: a1 = a0 if a0 == 0\n 24280: a0 = u64 [a5 + 0x58]\n 24283: a4 = a0 + a1\n 24286: a0 = a4 <u a0\n 24289: a1 = u64 [a5 + 0x50]\n 24292: a1 = a1 + a0\n 24295: a0 = s1 + 0x3118\n 24299: u64 [s1 + 0xd8] = a2\n 24303: a5 = a0 + 0x700\n 24307: u64 [a5 + 0xa8] = a2\n 24311: u64 [s1 + 0xc8] = a3\n 24315: u64 [a5 + 0xb0] = a3\n 24319: u64 [s1 + 0xc0] = a4\n 24323: u64 [a5 + 0xb8] = a4\n 24327: u64 [s1 + 0xb8] = a1\n 24331: u64 [a5 + 0xc0] = a1\n 24335: a0 = s1 + 0x1920\n 24339: a1 = s1 + 0x38c0\n 24343: ra = 926, jump @26\n      : @886 [@dyn 463] (gas: 4)\n 24349: a0 = s1 + 0x1918\n 24353: a0 = u64 [a0 + 0x10]\n 24356: a0 = a0 & 0xff\n 24360: jump @888 if a0 == 0\n      : @887 (gas: 2)\n 24363: a0 = s1 + 0x1118\n 24367: jump @920\n      : @888 (gas: 3)\n 24370: a0 = s1 + 0x1900\n 24374: a1 = 0x40\n 24377: ra = 928, jump @22\n      : @889 [@dyn 464] (gas: 20)\n 24383: a0 = s1 + 0x1918\n 24387: a2 = u64 [a0]\n 24389: u64 [s1 + 0x110] = a2\n 24393: a1 = a0 + 0xffffffffffffff00\n 24397: a4 = u64 [a1 + 0xf8]\n 24401: u64 [s1 + 0x108] = a4\n 24405: a3 = u64 [a1 + 0xf0]\n 24409: u64 [s1 + 0x118] = a3\n 24413: a5 = u64 [a1 + 0xe8]\n 24417: u64 [s1 + 0x168] = a5\n 24421: a1 = s1 + 0x1118\n 24425: u64 [a1 + 0x7e0] = a2\n 24429: a2 = a1 + 0x700\n 24433: u64 [a2 + 0xd8] = a4\n 24437: u64 [a2 + 0xd0] = a3\n 24441: a0 = s1 + 0x18e0\n 24445: u64 [a2 + 0xc8] = a5\n 24449: ra = 0x3a2\n 24453: t0 = 0x684\n 24457: jump @1831\n      : @890 [@dyn 465] (gas: 7)\n 24460: a3 = s1 + 0x100\n 24464: a2 = u64 [a3 + 0x8]\n 24467: a0 = u64 [a3 + 0x10]\n 24470: a1 = u64 [a3 + 0x18]\n 24473: a0 = a0 | a1\n 24476: a1 = u64 [a3 + 0x68]\n 24479: t0 = 932, jump @1834\n      : @891 [@dyn 466] (gas: 1)\n 24485: jump @893 if a0 == 0\n      : @892 (gas: 1)\n 24488: jump @1045\n      : @893 (gas: 11)\n 24491: a0 = u64 [s1 + 0xd0]\n 24495: a1 = u64 [s1 + 0x100]\n 24499: a0 = a0 & a1\n 24502: a2 = s1 + 0x1118\n 24506: u64 [a2 + 1984] = 0\n 24510: u64 [a2 + 1976] = 0\n 24514: u64 [a2 + 1968] = 0\n 24518: a1 = s1 + 0x18c0\n 24522: u64 [a2 + 0x7a8] = a0\n 24526: a0 = u64 [s1 + 0x168]\n 24530: ra = 934, jump @24\n      : @894 [@dyn 467] (gas: 14)\n 24536: a3 = s1 + 0x100\n 24540: a0 = u64 [a3 + 0x8]\n 24543: a1 = u64 [a3 + 0x10]\n 24546: a1 = a1 | a0\n 24549: a0 = 0x100000000\n 24559: u64 [s1 + 0xf8] = a0\n 24563: a0 = 0xffffffe0\n 24573: a2 = u64 [a3 + 0x68]\n 24576: a0 = a2 <u a0\n 24579: a2 = u64 [a3 + 0x18]\n 24582: a0 = 0 if a2 != 0\n 24584: u64 [a3] = a1\n 24586: a0 = 0 if a1 != 0\n 24588: jump @896 if a0 != 0\n      : @895 (gas: 1)\n 24591: jump @1045\n      : @896 (gas: 13)\n 24594: a0 = u64 [s1 + 0x168]\n 24598: i32 a0 = a0 + 0x20\n 24601: a2 = s1 + 0x1118\n 24605: u64 [a2 + 1952] = 0\n 24609: a1 = u64 [s1 + 0xe0]\n 24613: a4 = a2 + 0x700\n 24617: u64 [a4 + 0x88] = a1\n 24621: a1 = u64 [s1 + 0xe8]\n 24625: u64 [a4 + 0x90] = a1\n 24629: a1 = s1 + 0x18a0\n 24633: a3 = u64 [s1 + 0xf0]\n 24637: u64 [a4 + 0x98] = a3\n 24641: ra = 936, jump @24\n      : @897 [@dyn 468] (gas: 21)\n 24647: a0 = u64 [s1 + 0x120]\n 24651: a0 = a0 + 0x1\n 24654: a1 = a0 <u 0x1\n 24657: a2 = u64 [s1 + 0x148]\n 24661: a1 = a1 + a2\n 24664: a2 = a0 | a1\n 24667: a2 = a2 <u 0x1\n 24670: a3 = u64 [s1 + 0x158]\n 24674: a2 = a2 + a3\n 24677: a3 = a2 <u a3\n 24680: a4 = u64 [s1 + 0x150]\n 24684: a3 = a3 + a4\n 24687: a4 = s1 + 0x1118\n 24691: a5 = a4 + 0x700\n 24695: u64 [a5 + 0x50] = a1\n 24698: u64 [a5 + 0x48] = a0\n 24701: u64 [a5 + 0x58] = a2\n 24704: a0 = s1 + 0x1880\n 24708: a1 = s1 + 0x1860\n 24712: u64 [a5 + 0x60] = a3\n 24715: ra = 938, jump @1577\n      : @898 [@dyn 469] (gas: 3)\n 24721: a0 = u64 [s1 + 0xf8]\n 24725: a0 = a0 + 0xffffffffffffffc0\n 24728: t0 = 940, jump @1829\n      : @899 [@dyn 470] (gas: 1)\n 24734: jump @901 if a0 != 0\n      : @900 (gas: 1)\n 24737: jump @1045\n      : @901 (gas: 14)\n 24740: a5 = s1 + 0x1118\n 24744: t0 = u64 [a5 + 0x780]\n 24748: a2 = a5 + 0x700\n 24752: a1 = u64 [a2 + 0x78]\n 24755: a3 = u64 [a2 + 0x70]\n 24758: a4 = u64 [a2 + 0x68]\n 24761: a0 = u64 [s1 + 0x168]\n 24765: i32 a0 = a0 + 0x40\n 24768: u64 [a2 + 0x28] = a4\n 24771: u64 [a2 + 0x30] = a3\n 24774: u64 [a2 + 0x38] = a1\n 24777: a1 = s1 + 0x1840\n 24781: u64 [a5 + 0x740] = t0\n 24785: ra = 942, jump @24\n      : @902 [@dyn 471] (gas: 13)\n 24791: a0 = s1 + 0x3118\n 24795: a1 = u64 [s1 + 0xb8]\n 24799: a2 = a0 + 0x700\n 24803: u64 [a2 + 0xe0] = a1\n 24807: a1 = u64 [s1 + 0xc0]\n 24811: u64 [a2 + 0xd8] = a1\n 24815: a1 = u64 [s1 + 0xc8]\n 24819: u64 [a2 + 0xd0] = a1\n 24823: a1 = u64 [s1 + 0xd8]\n 24827: u64 [a2 + 0xc8] = a1\n 24831: a0 = s1 + 0x1820\n 24835: a1 = s1 + 0x38e0\n 24839: ra = 944, jump @26\n      : @903 [@dyn 472] (gas: 3)\n 24845: a0 = u64 [s1 + 0xf8]\n 24849: a0 = a0 + 0xffffffffffffffa0\n 24852: t0 = 946, jump @1829\n      : @904 [@dyn 473] (gas: 1)\n 24858: jump @906 if a0 != 0\n      : @905 (gas: 1)\n 24861: jump @1045\n      : @906 (gas: 13)\n 24864: a2 = s1 + 0x1118\n 24868: a0 = u64 [a2 + 0x708]\n 24872: a1 = u64 [a2 + 0x710]\n 24876: u64 [s1 + 0x158] = a1\n 24880: a1 = a0 & 0xffffffffffffffff\n 24883: a0 = u64 [s1 + 0x168]\n 24887: i32 a0 = a0 + 0x60\n 24890: u64 [a2 + 1792] = 0\n 24894: u64 [a2 + 1784] = 0\n 24898: u64 [a2 + 0x6e8] = a1\n 24902: a1 = s1 + 0x1800\n 24906: u64 [a2 + 1776] = 0\n 24910: ra = 948, jump @24\n      : @907 [@dyn 474] (gas: 3)\n 24916: a0 = u64 [s1 + 0xf8]\n 24920: a0 = a0 + 0xffffffffffffff80\n 24923: t0 = 950, jump @1829\n      : @908 [@dyn 475] (gas: 1)\n 24929: jump @910 if a0 != 0\n      : @909 (gas: 1)\n 24932: jump @1045\n      : @910 (gas: 12)\n 24935: a1 = u64 [s1 + 0x158]\n 24939: a0 = a1 & 0xff\n 24943: a1 = a0 >u 0\n 24945: a0 = u64 [s1 + 0x168]\n 24949: i32 a0 = a0 + 0x80\n 24953: a2 = s1 + 0x1118\n 24957: u64 [a2 + 1760] = 0\n 24961: u64 [a2 + 1752] = 0\n 24965: u64 [a2 + 0x6c8] = a1\n 24969: a1 = s1 + 0x17e0\n 24973: u64 [a2 + 1744] = 0\n 24977: ra = 952, jump @24\n      : @911 [@dyn 476] (gas: 22)\n 24983: a0 = u64 [s1 + 0xd0]\n 24987: a1 = u64 [s1 + 0x160]\n 24991: a0 = a0 & a1\n 24994: a4 = s1 + 0x1118\n 24998: u64 [a4 + 1664] = 0\n 25002: u64 [a4 + 1656] = 0\n 25006: u64 [a4 + 1648] = 0\n 25010: u64 [s1 + 0x158] = a0\n 25014: a5 = a4 + 0x600\n 25018: u64 [a5 + 0x68] = a0\n 25021: a0 = u64 [s1 + 0xa8]\n 25025: u64 [a5 + 0xa0] = a0\n 25029: a0 = u64 [s1 + 0xa0]\n 25033: u64 [a5 + 0x98] = a0\n 25037: a0 = u64 [s1 + 0x98]\n 25041: u64 [a5 + 0x90] = a0\n 25045: a0 = s1 + 0x17c0\n 25049: a1 = s1 + 0x17a0\n 25053: a2 = s1 + 0x1780\n 25057: a3 = u64 [s1 + 0xb0]\n 25061: u64 [a5 + 0x88] = a3\n 25065: ra = 954, jump @1657\n      : @912 [@dyn 477] (gas: 14)\n 25071: a0 = s1 + 0x1118\n 25075: a4 = a0 + 0x600\n 25079: a1 = u64 [a4 + 0xc0]\n 25083: a2 = u64 [a4 + 0xb8]\n 25087: a3 = u64 [a4 + 0xb0]\n 25091: a0 = u64 [a4 + 0xa8]\n 25095: a1 = a1 | a3\n 25098: a3 = a0 | a2\n 25101: a3 = a3 | a1\n 25104: a3 = a3 >> 0x20\n 25107: a1 = a1 | a2\n 25110: a1 = a1 << 0x20\n 25113: a1 = a1 | a3\n 25116: jump @914 if a1 == 0\n      : @913 (gas: 1)\n 25119: jump @1045\n      : @914 (gas: 12)\n 25122: a3 = s1 + 0x1118\n 25126: a1 = u64 [s1 + 0x168]\n 25130: a4 = a3 + 0x600\n 25134: u64 [a4 + 0x48] = a1\n 25137: a1 = u64 [s1 + 0x118]\n 25141: u64 [a4 + 0x50] = a1\n 25144: a1 = u64 [s1 + 0x108]\n 25148: u64 [a4 + 0x58] = a1\n 25151: a1 = s1 + 0x1760\n 25155: a2 = u64 [s1 + 0x110]\n 25159: u64 [a4 + 0x60] = a2\n 25162: ra = 956, jump @24\n      : @915 [@dyn 478] (gas: 3)\n 25168: t0 = 0x3be\n 25172: a1 = s1 + 0x1118\n 25176: fallthrough\n      : @916 [@dyn 479] (gas: 19)\n 25177: u64 [a1 + 1536] = 0\n 25181: u64 [a1 + 1528] = 0\n 25185: u64 [a1 + 1520] = 0\n 25189: a0 = u64 [s1 + 0x158]\n 25193: u64 [a1 + 0x5e8] = a0\n 25197: a0 = u64 [s1 + 0xa8]\n 25201: a2 = a1 + 0x600\n 25205: u64 [a2 + 0x20] = a0\n 25208: a0 = u64 [s1 + 0xa0]\n 25212: u64 [a2 + 0x18] = a0\n 25215: a0 = u64 [s1 + 0x98]\n 25219: u64 [a2 + 0x10] = a0\n 25222: a4 = a1\n 25224: a0 = s1 + 0x1740\n 25228: a1 = s1 + 0x1720\n 25232: a2 = s1 + 0x1700\n 25236: a3 = u64 [s1 + 0xb0]\n 25240: u64 [a4 + 0x608] = a3\n 25244: ra = 960, jump @1657\n      : @917 [@dyn 480] (gas: 13)\n 25250: a0 = u64 [s1 + 0x80]\n 25254: a3 = s1 + 0x1118\n 25258: a4 = a3 + 0x500\n 25262: u64 [a4 + 0xc0] = a0\n 25266: a0 = u64 [s1 + 0x88]\n 25270: u64 [a4 + 0xb8] = a0\n 25274: a0 = u64 [s1 + 0x90]\n 25278: u64 [a4 + 0xb0] = a0\n 25282: a0 = s1 + 0x16e0\n 25286: a1 = s1 + 0x16c0\n 25290: a2 = u64 [s1 + 0x160]\n 25294: u64 [a4 + 0xa8] = a2\n 25298: ra = 962, jump @1632\n      : @918 [@dyn 481] (gas: 3)\n 25304: t0 = 0x3c4\n 25308: a1 = s1 + 0x1118\n 25312: fallthrough\n      : @919 [@dyn 482] (gas: 11)\n 25313: a2 = a1 + 0x500\n 25317: a0 = u64 [a2 + 0xe0]\n 25321: u64 [s1 + 0x80] = a0\n 25325: a0 = u64 [a2 + 0xd8]\n 25329: u64 [s1 + 0x88] = a0\n 25333: a0 = u64 [a2 + 0xd0]\n 25337: u64 [s1 + 0x90] = a0\n 25341: a0 = u64 [a2 + 0xc8]\n 25345: u64 [s1 + 0x160] = a0\n 25349: a0 = a1\n 25351: fallthrough\n      : @920 (gas: 14)\n 25352: a4 = s1 + 0x100\n 25356: a1 = u64 [a4 + 0x80]\n 25360: a2 = a0 + 0x500\n 25364: u64 [a2 + 0x68] = a1\n 25367: a1 = u64 [a4 + 0x88]\n 25371: u64 [a2 + 0x70] = a1\n 25374: a1 = u64 [a4 + 0x90]\n 25378: u64 [a2 + 0x78] = a1\n 25381: a3 = a0\n 25383: a0 = s1 + 0x16a0\n 25387: a1 = s1 + 0x1680\n 25391: a2 = u64 [a4 + 0x98]\n 25395: u64 [a3 + 0x580] = a2\n 25399: ra = 966, jump @1632\n      : @921 [@dyn 483] (gas: 7)\n 25405: a0 = s1 + 0x1118\n 25409: a5 = u64 [a0 + 0x5a0]\n 25413: t1 = u64 [a0 + 0x598]\n 25417: a4 = u64 [a0 + 0x590]\n 25421: t2 = u64 [a0 + 0x588]\n 25425: t0 = u64 [s1 + 0x160]\n 25429: jump @866\n      : @922 (gas: 3)\n 25432: a0 = s1 + 0x1660\n 25436: a1 = 0x40\n 25439: ra = 968, jump @22\n      : @923 [@dyn 484] (gas: 14)\n 25445: a3 = s1 + 0x1118\n 25449: t0 = u64 [a3 + 0x560]\n 25453: a1 = a3 + 0x500\n 25457: a4 = u64 [a1 + 0x58]\n 25460: a5 = u64 [a1 + 0x50]\n 25463: a0 = u64 [a1 + 0x48]\n 25466: a2 = a5 | t0\n 25469: a1 = a0 | a4\n 25472: a1 = a1 | a2\n 25475: a1 = a1 >> 0x20\n 25478: a2 = a2 | a4\n 25481: a2 = a2 << 0x20\n 25484: a1 = a1 | a2\n 25487: jump @925 if a1 == 0\n      : @924 (gas: 1)\n 25490: jump @1045\n      : @925 (gas: 22)\n 25493: a1 = a0 + 0x20\n 25496: u64 [s1 + 0x190] = a1\n 25500: t1 = a1 <u a0\n 25503: a1 = a5 + t1\n 25506: u64 [s1 + 0x198] = a1\n 25510: a1 = a1 <u a5\n 25513: a1 = t1 if t1 == 0\n 25516: a1 = a1 + a4\n 25519: u64 [s1 + 0x180] = a1\n 25523: a1 = a1 <u a4\n 25526: a1 = a1 + t0\n 25529: u64 [s1 + 0x188] = a1\n 25533: u64 [a3 + 1344] = 0\n 25537: u64 [a3 + 1336] = 0\n 25541: u64 [a3 + 1328] = 0\n 25545: a1 = s1 + 0x1640\n 25549: u64 [a3 + 1320] = 0x20\n 25554: u64 [s1 + 0xe0] = a0\n 25558: u64 [s1 + 0xd8] = t0\n 25562: u64 [s1 + 0xc8] = a4\n 25566: u64 [s1 + 0xc0] = a5\n 25570: ra = 970, jump @24\n      : @926 [@dyn 485] (gas: 3)\n 25576: a0 = s1 + 0x1620\n 25580: a1 = u64 [s1 + 0xb0]\n 25584: ra = 972, jump @22\n      : @927 [@dyn 486] (gas: 13)\n 25590: a4 = s1 + 0x100\n 25594: a5 = u64 [a4 + 0x90]\n 25598: a2 = u64 [a4 + 0x80]\n 25602: a0 = a5 | a2\n 25605: a1 = u64 [a4 + 0x98]\n 25609: a3 = u64 [a4 + 0x88]\n 25613: a1 = a1 | a3\n 25616: a0 = a0 | a1\n 25619: a0 = a0 >> 0x20\n 25622: a1 = a1 | a2\n 25625: a1 = a1 << 0x20\n 25628: a0 = a0 | a1\n 25631: jump @929 if a0 == 0\n      : @928 (gas: 1)\n 25634: jump @1045\n      : @929 (gas: 16)\n 25637: a4 = s1 + 0x1118\n 25641: a0 = u64 [a4 + 0x520]\n 25645: u64 [s1 + 0x90] = a0\n 25649: a2 = u64 [a4 + 0x518]\n 25653: u64 [s1 + 0x88] = a2\n 25657: a1 = u64 [a4 + 0x510]\n 25661: u64 [s1 + 0xb8] = a1\n 25665: a3 = u64 [a4 + 0x508]\n 25669: u64 [s1 + 0x80] = a3\n 25673: u64 [a4 + 0x4e8] = a3\n 25677: u64 [a4 + 0x4f0] = a1\n 25681: u64 [a4 + 0x4f8] = a2\n 25685: a1 = s1 + 0x1600\n 25689: u64 [a4 + 0x500] = a0\n 25693: a0 = a5\n 25695: ra = 974, jump @24\n      : @930 [@dyn 487] (gas: 60)\n 25701: t0 = 0\n 25703: a5 = 0\n 25705: u64 [s1 + 288] = 0\n 25709: t1 = 0\n 25711: a0 = u64 [s1 + 0xe0]\n 25715: a3 = a0 + 0x40\n 25718: a0 = a3 <u a0\n 25721: a1 = u64 [s1 + 0xc0]\n 25725: a4 = a1 + a0\n 25728: ra = u64 [s1 + 0x80]\n 25732: t2 = ra >> 0x3b\n 25735: a2 = u64 [s1 + 0xb8]\n 25739: a2 = a2 << 0x5\n 25742: t2 = a2 | t2\n 25745: a2 = ra << 0x5\n 25748: t2 = t2 + a4\n 25751: a2 = a2 + a3\n 25754: u64 [s1 + 0x150] = a3\n 25758: u64 [s1 + 0x198] = a2\n 25762: a2 = a2 <u a3\n 25765: t2 = t2 + a2\n 25768: u64 [s1 + 0x190] = t2\n 25772: ra = t2 ^ a4\n 25775: a3 = t2 <u a4\n 25778: a3 = a2 if ra == 0\n 25781: u64 [s1 + 0x148] = a4\n 25785: a1 = a4 <u a1\n 25788: a1 = a0 if a0 == 0\n 25791: a4 = u64 [s1 + 0x88]\n 25795: a0 = a4 >> 0x3b\n 25798: a2 = u64 [s1 + 0x90]\n 25802: a2 = a2 << 0x5\n 25805: ra = a2 | a0\n 25808: a2 = u64 [s1 + 0xb8]\n 25812: a2 = a2 >> 0x3b\n 25815: a4 = a4 << 0x5\n 25818: t2 = a4 | a2\n 25821: a4 = u64 [s1 + 0x120]\n 25825: a0 = u64 [s1 + 0xc8]\n 25829: a2 = a0 + a1\n 25832: a1 = a2 <u a0\n 25835: a0 = u64 [s1 + 0xd8]\n 25839: a1 = a1 + a0\n 25842: a0 = a2 + t2\n 25845: u64 [s1 + 0x140] = a1\n 25849: ra = ra + a1\n 25852: u64 [s1 + 0x130] = a2\n 25856: a1 = a0 <u a2\n 25859: a2 = ra + a1\n 25862: a3 = a3 + a0\n 25865: u64 [s1 + 0x188] = a3\n 25869: a1 = a3 <u a0\n 25872: a1 = a1 + a2\n 25875: a2 = s1 + 0x100\n 25879: u64 [a2 + 0x80] = a1\n 25883: a0 = 0x100000000\n 25893: u64 [a2 + 0x38] = a0\n 25896: a0 = 0xffffffe0\n 25906: u64 [a2 + 0x58] = a0\n 25909: fallthrough\n      : @931 (gas: 42)\n 25910: ra = u64 [s1 + 0xe0]\n 25914: a0 = u64 [s1 + 0x80]\n 25918: u64 [s1 + 0x118] = t0\n 25922: a0 = t0 <u a0\n 25925: a2 = u64 [s1 + 0xb8]\n 25929: a1 = a5 ^ a2\n 25932: u64 [s1 + 0x110] = a5\n 25936: a2 = a5 <u a2\n 25939: a2 = a0 if a1 == 0\n 25942: a5 = u64 [s1 + 0x88]\n 25946: a3 = a4 <u a5\n 25949: a0 = a4\n 25951: a4 = u64 [s1 + 0x90]\n 25955: a1 = t1 ^ a4\n 25958: u64 [s1 + 0x108] = t1\n 25962: a4 = t1 <u a4\n 25965: a4 = a3 if a1 == 0\n 25968: u64 [s1 + 0x120] = a0\n 25972: a0 = a0 ^ a5\n 25975: a0 = a0 | a1\n 25978: a4 = a2 if a0 == 0\n 25981: t1 = u64 [s1 + 0x198]\n 25985: a0 = t1 <u ra\n 25988: u64 [s1 + 0x178] = a0\n 25992: t0 = u64 [s1 + 0xc0]\n 25996: t2 = u64 [s1 + 0x190]\n 26000: a0 = t2 ^ t0\n 26003: u64 [s1 + 0x168] = a0\n 26007: a1 = t2 <u t0\n 26010: a5 = u64 [s1 + 0x188]\n 26014: a3 = u64 [s1 + 0xc8]\n 26018: a2 = a5 - a3\n 26021: a0 = a5 <u a3\n 26024: a5 = s1 + 0x100\n 26028: u64 [a5 + 0x70] = a0\n 26031: a3 = u64 [a5 + 0x80]\n 26035: a0 = u64 [s1 + 0xd8]\n 26039: a3 = a3 - a0\n 26042: u64 [a5 + 0x60] = a3\n 26045: t2 = t2 - t0\n 26048: t1 = t1 - ra\n 26051: jump @984 if a4 == 0\n      : @932 (gas: 12)\n 26055: a0 = u64 [s1 + 0x150]\n 26059: t0 = u64 [s1 + 0x130]\n 26063: a5 = a0 | t0\n 26066: a4 = u64 [s1 + 0x148]\n 26070: a3 = u64 [s1 + 0x140]\n 26074: a4 = a4 | a3\n 26077: a3 = a5 | a4\n 26080: a3 = a3 >> 0x20\n 26083: a4 = a4 | t0\n 26086: a4 = a4 << 0x20\n 26089: a3 = a3 | a4\n 26092: jump @934 if a3 == 0\n      : @933 (gas: 1)\n 26095: jump @1045\n      : @934 (gas: 30)\n 26098: a3 = u64 [s1 + 0x178]\n 26102: a4 = u64 [s1 + 0x168]\n 26106: a1 = a3 if a4 == 0\n 26109: t0 = a2 <u a1\n 26112: a4 = u64 [s1 + 0x170]\n 26116: a5 = u64 [s1 + 0x160]\n 26120: a4 = a5 - a4\n 26123: t0 = a4 - t0\n 26126: a2 = a2 - a1\n 26129: a4 = t2 - a3\n 26132: a1 = a2 <u 0x1\n 26135: t0 = t0 - a1\n 26138: a1 = t1 + 0xffffffffffffffc0\n 26141: a3 = a1 <u t1\n 26144: a5 = a4 + a3\n 26147: a5 = a5 + 0xffffffffffffffff\n 26150: t1 = a5 ^ a4\n 26153: a4 = a5 <u a4\n 26156: a4 = a3 if t1 == 0\n 26159: a2 = a2 + 0xffffffffffffffff\n 26162: a4 = a4 + a2\n 26165: a2 = a4 <u a2\n 26168: a2 = a2 + t0\n 26171: a3 = s1 + 0x1118\n 26175: u64 [a3 + 0x4c8] = a1\n 26179: u64 [a3 + 0x4d0] = a5\n 26183: u64 [a3 + 0x4d8] = a4\n 26187: a1 = s1 + 0x15e0\n 26191: u64 [a3 + 0x4e0] = a2\n 26195: ra = 976, jump @24\n      : @935 [@dyn 488] (gas: 10)\n 26201: a0 = u64 [s1 + 0xa8]\n 26205: a1 = u64 [s1 + 0xa0]\n 26209: a0 = a0 | a1\n 26212: a3 = u64 [s1 + 0xb0]\n 26216: a1 = u64 [s1 + 0x158]\n 26220: a1 = a3 <u a1\n 26223: a2 = u64 [s1 + 0x98]\n 26227: a1 = 0 if a2 != 0\n 26229: a1 = 0 if a0 != 0\n 26231: jump @937 if a1 != 0\n      : @936 (gas: 1)\n 26234: jump @1045\n      : @937 (gas: 4)\n 26237: a1 = a3 + 0x20\n 26240: a0 = s1 + 0x15c0\n 26244: u64 [s1 + 0x128] = a1\n 26248: ra = 978, jump @22\n      : @938 [@dyn 489] (gas: 3)\n 26254: t0 = 0x3d4\n 26258: a1 = s1 + 0x1118\n 26262: fallthrough\n      : @939 [@dyn 490] (gas: 17)\n 26263: a4 = a1 + 0x400\n 26267: a2 = u64 [a4 + 0xc0]\n 26271: a3 = u64 [a4 + 0xb8]\n 26275: a0 = u64 [a4 + 0xb0]\n 26279: a1 = u64 [a4 + 0xa8]\n 26283: a4 = s1 + 0x100\n 26287: u64 [a4 + 0x78] = a0\n 26290: u64 [a4 + 0x68] = a2\n 26293: a0 = a0 | a2\n 26296: a2 = a1 | a3\n 26299: a2 = a2 | a0\n 26302: a2 = a2 >> 0x20\n 26305: u64 [a4 + 0x60] = a3\n 26308: a0 = a0 | a3\n 26311: a0 = a0 << 0x20\n 26314: a0 = a0 | a2\n 26317: jump @941 if a0 == 0\n      : @940 (gas: 1)\n 26320: jump @1045\n      : @941 (gas: 3)\n 26323: a0 = s1 + 0x15a0\n 26327: u64 [s1 + 0x170] = a1\n 26331: ra = 982, jump @22\n      : @942 [@dyn 491] (gas: 13)\n 26337: a5 = s1 + 0x100\n 26341: a3 = u64 [a5 + 0x98]\n 26345: a2 = u64 [a5 + 0x88]\n 26349: a0 = a3 | a2\n 26352: a1 = u64 [a5 + 0x80]\n 26356: a4 = u64 [a5 + 0x90]\n 26360: a1 = a1 | a4\n 26363: a0 = a0 | a1\n 26366: a0 = a0 >> 0x20\n 26369: a1 = a1 | a2\n 26372: a1 = a1 << 0x20\n 26375: a0 = a0 | a1\n 26378: jump @944 if a0 == 0\n      : @943 (gas: 1)\n 26381: jump @1045\n      : @944 (gas: 12)\n 26384: a2 = s1 + 0x1118\n 26388: a0 = u64 [a2 + 0x488]\n 26392: a1 = u64 [s1 + 0xd0]\n 26396: a0 = a0 & a1\n 26399: u64 [a2 + 1152] = 0\n 26403: u64 [a2 + 1144] = 0\n 26407: u64 [a2 + 1136] = 0\n 26411: a1 = s1 + 0x1580\n 26415: u64 [a2 + 0x468] = a0\n 26419: a0 = a3\n 26421: u64 [s1 + 0x198] = a3\n 26425: ra = 984, jump @24\n      : @945 [@dyn 492] (gas: 12)\n 26431: a4 = s1 + 0x100\n 26435: a0 = u64 [a4 + 0x68]\n 26438: a3 = u64 [a4 + 0x60]\n 26441: a3 = a3 | a0\n 26444: a1 = u64 [a4 + 0x70]\n 26447: a0 = u64 [a4 + 0x58]\n 26450: a0 = a1 <u a0\n 26453: a2 = u64 [a4 + 0x78]\n 26456: a0 = 0 if a2 != 0\n 26458: u64 [a4 + 0x68] = a3\n 26461: a0 = 0 if a3 != 0\n 26463: jump @947 if a0 != 0\n      : @946 (gas: 1)\n 26466: jump @1045\n      : @947 (gas: 3)\n 26469: i32 a1 = a1 + 0x20\n 26472: a0 = s1 + 0x1560\n 26476: ra = 986, jump @22\n      : @948 [@dyn 493] (gas: 12)\n 26482: a3 = s1 + 0x100\n 26486: a0 = u64 [a3 + 0x88]\n 26490: a1 = u64 [a3 + 0x80]\n 26494: a2 = a0 | a1\n 26497: a5 = u64 [a3 + 0x98]\n 26501: a0 = u64 [a3 + 0x58]\n 26504: a0 = a5 <u a0\n 26507: a1 = u64 [a3 + 0x90]\n 26511: a0 = 0 if a1 != 0\n 26513: u64 [a3 + 0x60] = a2\n 26516: a0 = 0 if a2 != 0\n 26518: jump @950 if a0 != 0\n      : @949 (gas: 1)\n 26521: jump @1045\n      : @950 (gas: 16)\n 26524: a4 = s1 + 0x1118\n 26528: a0 = u64 [a4 + 0x458]\n 26532: a1 = u64 [a4 + 0x450]\n 26536: a2 = u64 [a4 + 0x448]\n 26540: a3 = u64 [s1 + 0xd0]\n 26544: a3 = a3 & a0\n 26547: a1 = a1 & 0xffffffffffffffff\n 26550: a2 = a2 & 0xffffffffffffffff\n 26553: i32 a0 = a5 + 0x20\n 26556: u64 [a4 + 1088] = 0\n 26560: a5 = a4 + 0x400\n 26564: u64 [a5 + 0x28] = a2\n 26567: u64 [a5 + 0x30] = a1\n 26570: a1 = s1 + 0x1540\n 26574: u64 [a5 + 0x38] = a3\n 26577: ra = 988, jump @24\n      : @951 [@dyn 494] (gas: 4)\n 26583: a3 = s1 + 0x100\n 26587: a0 = u64 [a3 + 0x38]\n 26590: a0 = a0 + 0xffffffffffffffc0\n 26593: t0 = 990, jump @1836\n      : @952 [@dyn 495] (gas: 1)\n 26599: jump @1045 if a0 == 0\n      : @953 (gas: 3)\n 26603: i32 a1 = a1 + 0x40\n 26606: a0 = s1 + 0x1520\n 26610: ra = 992, jump @22\n      : @954 [@dyn 496] (gas: 9)\n 26616: a2 = s1 + 0x100\n 26620: a3 = u64 [a2 + 0x98]\n 26624: a0 = u64 [a2]\n 26626: a0 = a3 <u a0\n 26629: a1 = u64 [a2 + 0x90]\n 26633: a0 = 0 if a1 != 0\n 26635: a1 = u64 [a2 + 0x60]\n 26638: a0 = 0 if a1 != 0\n 26640: jump @1045 if a0 == 0\n      : @955 (gas: 17)\n 26644: a4 = s1 + 0x1118\n 26648: a1 = a4 + 0x400\n 26652: a0 = u64 [a1 + 0x20]\n 26655: u64 [s1 + 0xe8] = a0\n 26659: a0 = u64 [a1 + 0x18]\n 26662: u64 [s1 + 0xf0] = a0\n 26666: a0 = u64 [a1 + 0x10]\n 26669: u64 [s1 + 0xf8] = a0\n 26673: a0 = u64 [a1 + 0x8]\n 26676: u64 [s1 + 0x100] = a0\n 26680: i32 a0 = a3 + 0x40\n 26683: u64 [a4 + 1024] = 0\n 26687: u64 [a4 + 1016] = 0\n 26691: u64 [a4 + 1008] = 0\n 26695: a1 = s1 + 0x1500\n 26699: u64 [a4 + 1000] = 0xa0\n 26705: ra = 994, jump @24\n      : @956 [@dyn 497] (gas: 3)\n 26711: a1 = u64 [s1 + 0x198]\n 26715: a0 = a1 + 0xa0\n 26719: t0 = 996, jump @1814\n      : @957 [@dyn 498] (gas: 24)\n 26725: a1 = u64 [s1 + 0x188]\n 26729: a3 = a3 + a1\n 26732: a1 = a3 <u a1\n 26735: a4 = u64 [s1 + 0x180]\n 26739: a4 = a4 + a1\n 26742: a1 = s1 + 0x1118\n 26746: a5 = a1 + 0x300\n 26750: u64 [a5 + 0x90] = a2\n 26754: u64 [a5 + 0x88] = a0\n 26758: a0 = u64 [s1 + 0xe8]\n 26762: u64 [a5 + 0xc0] = a0\n 26766: a0 = u64 [s1 + 0xf0]\n 26770: u64 [a5 + 0xb8] = a0\n 26774: a0 = u64 [s1 + 0xf8]\n 26778: u64 [a5 + 0xb0] = a0\n 26782: a0 = u64 [s1 + 0x100]\n 26786: u64 [a5 + 0xa8] = a0\n 26790: u64 [a5 + 0x98] = a3\n 26794: a3 = a1\n 26796: a0 = s1 + 0x14e0\n 26800: a1 = s1 + 0x14c0\n 26804: a2 = s1 + 0x14a0\n 26808: u64 [a3 + 0x3a0] = a4\n 26812: ra = 998, jump @1518\n      : @958 [@dyn 499] (gas: 4)\n 26818: a3 = s1 + 0x100\n 26822: a0 = u64 [a3 + 0x38]\n 26825: a0 = a0 + 0xffffffffffffffa0\n 26828: t0 = 1000, jump @1836\n      : @959 [@dyn 500] (gas: 1)\n 26834: jump @1045 if a0 == 0\n      : @960 (gas: 13)\n 26838: a2 = s1 + 0x1118\n 26842: a3 = a2 + 0x300\n 26846: a0 = u64 [a3 + 0xe0]\n 26850: u64 [s1 + 0x180] = a0\n 26854: a0 = u64 [a3 + 0xd8]\n 26858: u64 [s1 + 0x188] = a0\n 26862: a0 = u64 [a3 + 0xd0]\n 26866: u64 [s1 + 0xf8] = a0\n 26870: a0 = u64 [a3 + 0xc8]\n 26874: u64 [s1 + 0xf0] = a0\n 26878: i32 a1 = a1 + 0x60\n 26881: a0 = s1 + 0x1480\n 26885: ra = 1002, jump @22\n      : @961 [@dyn 501] (gas: 1)\n 26891: t0 = 1004, jump @1849\n      : @962 [@dyn 502] (gas: 1)\n 26897: jump @1045 if a0 == 0\n      : @963 (gas: 10)\n 26901: a3 = s1 + 0x1118\n 26905: a0 = u64 [a3 + 0x368]\n 26909: a1 = a0 & 0xffffffffffffffff\n 26912: i32 a0 = a2 + 0x60\n 26915: u64 [a3 + 864] = 0\n 26919: u64 [a3 + 856] = 0\n 26923: u64 [a3 + 0x348] = a1\n 26927: a1 = s1 + 0x1460\n 26931: u64 [a3 + 848] = 0\n 26935: ra = 1006, jump @24\n      : @964 [@dyn 503] (gas: 4)\n 26941: a3 = s1 + 0x100\n 26945: a0 = u64 [a3 + 0x38]\n 26948: a0 = a0 + 0xffffffffffffff80\n 26951: t0 = 1008, jump @1836\n      : @965 [@dyn 504] (gas: 1)\n 26957: jump @1045 if a0 == 0\n      : @966 (gas: 3)\n 26961: i32 a1 = a1 + 0x80\n 26965: a0 = s1 + 0x1440\n 26969: ra = 1010, jump @22\n      : @967 [@dyn 505] (gas: 1)\n 26975: t0 = 1012, jump @1849\n      : @968 [@dyn 506] (gas: 1)\n 26981: jump @1045 if a0 == 0\n      : @969 (gas: 31)\n 26985: a0 = u64 [s1 + 0xb0]\n 26989: a1 = u64 [s1 + 0x128]\n 26993: a0 = a1 <u a0\n 26996: a1 = u64 [s1 + 0x98]\n 27000: a3 = a1 + a0\n 27003: u64 [s1 + 0x190] = a3\n 27007: a1 = a3 <u a1\n 27010: a1 = a0 if a0 == 0\n 27013: a4 = u64 [s1 + 0xa0]\n 27017: a1 = a1 + a4\n 27020: u64 [s1 + 0x178] = a1\n 27024: a5 = s1 + 0x1118\n 27028: t0 = u64 [a5 + 0x340]\n 27032: t1 = u64 [a5 + 0x338]\n 27036: t2 = u64 [a5 + 0x328]\n 27040: a3 = u64 [a5 + 0x330]\n 27044: a4 = a1 <u a4\n 27047: a0 = u64 [s1 + 0xa8]\n 27051: a0 = a0 + a4\n 27054: u64 [s1 + 0xa8] = a0\n 27058: a1 = t2 | t1\n 27061: a0 = a3 | t0\n 27064: a0 = a0 | a1\n 27067: a1 = a0 >u 0\n 27069: i32 a0 = a2 + 0x80\n 27073: u64 [a5 + 800] = 0\n 27077: u64 [a5 + 792] = 0\n 27081: u64 [a5 + 0x308] = a1\n 27085: a1 = s1 + 0x1420\n 27089: u64 [a5 + 784] = 0\n 27093: ra = 1014, jump @24\n      : @970 [@dyn 507] (gas: 5)\n 27099: a1 = u64 [s1 + 0x150]\n 27103: a0 = a1 + 0x20\n 27106: a1 = a0 <u a1\n 27109: a3 = u64 [s1 + 0x148]\n 27113: t0 = 1016, jump @1828\n      : @971 [@dyn 508] (gas: 34)\n 27119: a1 = u64 [s1 + 0x130]\n 27123: a3 = a3 + a1\n 27126: a1 = a3 <u a1\n 27129: a4 = u64 [s1 + 0x140]\n 27133: a4 = a4 + a1\n 27136: u64 [s1 + 0x140] = a4\n 27140: t0 = u64 [s1 + 0x118]\n 27144: t0 = t0 + 0x1\n 27147: a1 = t0 <u 0x1\n 27150: a5 = u64 [s1 + 0x110]\n 27154: a5 = a5 + a1\n 27157: a1 = t0 | a5\n 27160: a1 = a1 <u 0x1\n 27163: a4 = u64 [s1 + 0x120]\n 27167: a1 = a1 + a4\n 27170: a4 = a1 <u a4\n 27173: t1 = u64 [s1 + 0x108]\n 27177: t1 = t1 + a4\n 27180: a4 = u64 [s1 + 0x128]\n 27184: u64 [s1 + 0xb0] = a4\n 27188: a4 = u64 [s1 + 0x190]\n 27192: u64 [s1 + 0x98] = a4\n 27196: a4 = u64 [s1 + 0x178]\n 27200: u64 [s1 + 0xa0] = a4\n 27204: a4 = s1 + 0x100\n 27208: u64 [a4 + 0x50] = a0\n 27211: u64 [a4 + 0x48] = a2\n 27214: u64 [a4 + 0x30] = a3\n 27217: a0 = u64 [s1 + 0xf0]\n 27221: u64 [a4 + 0x98] = a0\n 27225: a0 = u64 [s1 + 0xf8]\n 27229: u64 [a4 + 0x90] = a0\n 27233: a4 = a1\n 27235: jump @931\n      : @972 (gas: 9)\n 27238: a0 = u64 [s1 + 0x18]\n 27241: a0 = a0 ^ 0x1\n 27244: a1 = u64 [s1 + 0x40]\n 27247: a2 = u64 [s1 + 0x8]\n 27250: a0 = a2 if a1 != 0\n 27253: a1 = u64 [s1 + 0x10]\n 27256: a2 = u64 [s1 + 0x110]\n 27260: a0 = a1 if a2 != 0\n 27263: jump @982 if a0 == 0\n      : @973 (gas: 16)\n 27267: a0 = u64 [s1 + 0x80]\n 27271: a0 = a0 & 0xffffffffffffffe0\n 27274: u64 [s1 + 0x110] = a0\n 27278: a0 = s1 + 0x2918\n 27282: a1 = u64 [s1 + 0x150]\n 27286: a3 = a0 + 0x400\n 27290: u64 [a3 + 0x68] = a1\n 27293: a1 = u64 [s1 + 0x140]\n 27297: u64 [a3 + 0x70] = a1\n 27300: a1 = u64 [s1 + 0x138]\n 27304: u64 [a3 + 0x78] = a1\n 27307: a1 = s1 + 0x2d80\n 27311: a2 = u64 [s1 + 0x148]\n 27315: u64 [a3 + 0x80] = a2\n 27319: a0 = 0\n 27321: ra = 1018, jump @24\n      : @974 [@dyn 509] (gas: 7)\n 27327: a0 = sp + 0xffffffffffffffe0\n 27330: a0 = a0 & 0xffffffffffffffe0\n 27333: u64 [s1 + 0x170] = a0\n 27337: sp = a0\n 27339: a1 = 0x20\n 27342: a0 = 0\n 27344: ra = 1020, jump @37\n      : @975 [@dyn 510] (gas: 34)\n 27350: a1 = sp + 0xffffffffffffffe0\n 27353: a1 = a1 & 0xffffffffffffffe0\n 27356: u64 [s1 + 0x168] = a1\n 27360: sp = a1\n 27362: i32 a0 = a0 + 0\n 27364: i32 a2 = a1 + 0\n 27366: a1 = 0x20\n 27369: ecalli 8 // 'hash_keccak_256'\n 27371: u64 [s1 + 408] = 0x20\n 27376: a5 = 0\n 27378: u64 [s1 + 400] = 0\n 27382: u64 [s1 + 392] = 0\n 27386: u64 [s1 + 376] = 0\n 27390: u64 [s1 + 384] = 0\n 27394: a3 = u64 [s1 + 0x168]\n 27398: a0 = u64 [a3 + 0x18]\n 27401: a1 = u64 [a3 + 0x10]\n 27404: a2 = u64 [a3 + 0x8]\n 27407: a3 = u64 [a3]\n 27409: t1 = reverse a0\n 27411: t2 = reverse a1\n 27413: ra = reverse a2\n 27415: a2 = 0\n 27417: a4 = u64 [s1 + 0x178]\n 27421: a0 = reverse a3\n 27423: a3 = 0\n 27425: t0 = a0\n 27427: a1 = u64 [s1 + 0x170]\n 27431: u64 [a1 + 0x18] = a0\n 27434: u64 [s1 + 0x150] = ra\n 27438: u64 [a1 + 0x10] = ra\n 27441: u64 [a1 + 0x8] = t2\n 27444: u64 [a1] = t1\n 27446: fallthrough\n      : @976 (gas: 24)\n 27447: u64 [s1 + 0x168] = t0\n 27451: a0 = u64 [s1 + 0x110]\n 27455: u64 [s1 + 0x178] = a4\n 27459: a0 = a4 <u a0\n 27462: a4 = a0 ^ 0x1\n 27465: u64 [s1 + 0x158] = a3\n 27469: a4 = 0x1 if a3 != 0\n 27472: u64 [s1 + 0x160] = a2\n 27476: a0 = u64 [s1 + 0x180]\n 27480: a0 = a0 | a2\n 27483: a4 = 0x1 if a0 != 0\n 27486: a1 = u64 [s1 + 0x118]\n 27490: a0 = u64 [s1 + 0x198]\n 27494: a1 = a1 + a0\n 27497: a3 = u64 [s1 + 0x130]\n 27501: a3 = a3 + a5\n 27504: a2 = u64 [s1 + 0x120]\n 27508: a0 = u64 [s1 + 0x190]\n 27512: a2 = a2 + a0\n 27515: a0 = u64 [s1 + 0x128]\n 27519: ra = a5\n 27521: a5 = u64 [s1 + 0x188]\n 27525: a0 = a0 + a5\n 27528: jump @987 if a4 != 0\n      : @977 (gas: 23)\n 27532: a4 = u64 [s1 + 0x198]\n 27536: a4 = a1 <u a4\n 27539: a3 = a3 + a4\n 27542: t0 = a3 ^ ra\n 27545: u64 [s1 + 0x138] = ra\n 27549: a5 = a3 <u ra\n 27552: a5 = a4 if t0 == 0\n 27555: a5 = a5 + a2\n 27558: t0 = a5 <u a2\n 27561: a4 = u64 [s1 + 0x190]\n 27565: a2 = a2 <u a4\n 27568: a0 = a0 + a2\n 27571: a0 = a0 + t0\n 27574: a2 = a1 | a5\n 27577: a0 = a0 | a3\n 27580: a2 = a2 | a0\n 27583: a2 = a2 >> 0x20\n 27586: a0 = a0 | a5\n 27589: a0 = a0 << 0x20\n 27592: a0 = a0 | a2\n 27595: u64 [s1 + 0x148] = t1\n 27599: u64 [s1 + 0x140] = t2\n 27603: jump @1045 if a0 != 0\n      : @978 (gas: 2)\n 27607: a0 = s1 + 0x2ae0\n 27611: ra = 1022, jump @22\n      : @979 [@dyn 511] (gas: 2)\n 27617: a0 = 0x3000\n 27621: t0 = 1024, jump @1872\n      : @980 [@dyn 512] (gas: 13)\n 27627: a0 = u64 [a4 + 0xe0]\n 27631: a1 = u64 [a4 + 0xd8]\n 27635: a2 = u64 [a4 + 0xd0]\n 27639: a3 = u64 [a4 + 0xc8]\n 27643: a4 = s1 + 0x3918\n 27647: a5 = a4 + 0x300\n 27651: u64 [a5 + 0x20] = a0\n 27654: u64 [a5 + 0x18] = a1\n 27657: u64 [a5 + 0x10] = a2\n 27660: u64 [a5 + 0x8] = a3\n 27663: a1 = s1 + 0x3c20\n 27667: a0 = u64 [s1 + 0x170]\n 27671: ra = 1026, jump @28\n      : @981 [@dyn 513] (gas: 53)\n 27677: t1 = u64 [s1 + 0x148]\n 27681: t1 = t1 + 0x1\n 27684: a0 = t1 <u 0x1\n 27687: t2 = u64 [s1 + 0x140]\n 27691: t2 = t2 + a0\n 27694: a0 = t1 | t2\n 27697: a0 = a0 <u 0x1\n 27700: a1 = u64 [s1 + 0x150]\n 27704: ra = a1 + a0\n 27707: a1 = ra <u a1\n 27710: a0 = u64 [s1 + 0x168]\n 27714: a0 = a0 + a1\n 27717: a1 = u64 [s1 + 0x198]\n 27721: a2 = a1 + 0x20\n 27724: u64 [s1 + 0x168] = a2\n 27728: a3 = a2 <u a1\n 27731: a1 = u64 [s1 + 0x138]\n 27735: a2 = a1 + a3\n 27738: u64 [s1 + 0x148] = a2\n 27742: a4 = a2 <u a1\n 27745: a4 = a3 if a3 == 0\n 27748: a1 = u64 [s1 + 0x190]\n 27752: a3 = a1 + a4\n 27755: a4 = a3 <u a1\n 27758: a1 = u64 [s1 + 0x188]\n 27762: a1 = a1 + a4\n 27765: u64 [s1 + 0x188] = a1\n 27769: a1 = u64 [s1 + 0x178]\n 27773: a4 = a1 + 0x20\n 27776: a5 = a4 <u a1\n 27779: a2 = u64 [s1 + 0x158]\n 27783: a1 = a2 + a5\n 27786: a2 = a1 <u a2\n 27789: a2 = a5 if a5 == 0\n 27792: a5 = u64 [s1 + 0x160]\n 27796: a2 = a2 + a5\n 27799: a5 = a2 <u a5\n 27802: t0 = u64 [s1 + 0x180]\n 27806: t0 = t0 + a5\n 27809: u64 [s1 + 0x180] = t0\n 27813: a5 = u64 [s1 + 0x170]\n 27817: u64 [a5 + 0x8] = t2\n 27820: u64 [a5] = t1\n 27822: u64 [a5 + 0x10] = ra\n 27825: t0 = a0\n 27827: u64 [a5 + 0x18] = a0\n 27830: u64 [s1 + 0x150] = ra\n 27834: a0 = u64 [s1 + 0x168]\n 27838: u64 [s1 + 0x198] = a0\n 27842: a5 = u64 [s1 + 0x148]\n 27846: u64 [s1 + 0x190] = a3\n 27850: a3 = a1\n 27852: jump @976\n      : @982 (gas: 8)\n 27855: a0 = u64 [s1 + 0x80]\n 27859: a1 = u64 [s1 + 0x30]\n 27862: a0 = a0 | a1\n 27865: a1 = u64 [s1 + 0x40]\n 27868: a2 = u64 [s1 + 0x28]\n 27871: a1 = a1 | a2\n 27874: a0 = a0 | a1\n 27877: jump @995 if a0 != 0\n      : @983 (gas: 5)\n 27881: u64 [s1 + 320] = 0\n 27885: u64 [s1 + 312] = 0\n 27889: u64 [s1 + 328] = 0\n 27893: u64 [s1 + 336] = 0\n 27897: jump @998\n      : @984 (gas: 18)\n 27900: a0 = u64 [s1 + 0x178]\n 27904: a3 = u64 [s1 + 0x168]\n 27908: a1 = a0 if a3 == 0\n 27911: a5 = a2 <u a1\n 27914: a4 = u64 [s1 + 0x170]\n 27918: a3 = u64 [s1 + 0x160]\n 27922: a4 = a3 - a4\n 27925: a4 = a4 - a5\n 27928: a2 = a2 - a1\n 27931: a0 = t2 - a0\n 27934: a1 = t1 | a2\n 27937: a0 = a0 | a4\n 27940: a1 = a1 | a0\n 27943: a1 = a1 >> 0x20\n 27946: a0 = a0 | a2\n 27949: a0 = a0 << 0x20\n 27952: a0 = a0 | a1\n 27955: jump @1045 if a0 != 0\n      : @985 (gas: 5)\n 27959: a3 = t1\n 27961: a0 = u64 [s1 + 0xe0]\n 27965: a1 = t1\n 27967: u64 [s1 + 0x128] = a3\n 27971: ra = 1028, jump @37\n      : @986 [@dyn 514] (gas: 5)\n 27977: i32 a1 = a0 + 0\n 27979: a2 = i32 [s1 + 0x128]\n 27983: a0 = 0\n 27985: ecalli 13 // 'seal_return'\n 27987: jump @1146\n      : @987 (gas: 12)\n 27990: t2 = u64 [s1 + 0x190]\n 27994: t1 = u64 [s1 + 0x198]\n 27998: a4 = u64 [s1 + 0x80]\n 28002: a5 = u64 [s1 + 0x110]\n 28006: a4 = a4 ^ a5\n 28009: a5 = u64 [s1 + 0x30]\n 28012: t0 = a4 | a5\n 28015: a5 = u64 [s1 + 0x40]\n 28018: a4 = u64 [s1 + 0x28]\n 28021: a5 = a5 | a4\n 28024: a4 = t0 | a5\n 28027: jump @994 if a4 == 0\n      : @988 (gas: 18)\n 28031: a4 = a1 <u t1\n 28034: a3 = a3 + a4\n 28037: t0 = a3 ^ ra\n 28040: a5 = a3 <u ra\n 28043: a5 = a4 if t0 == 0\n 28046: a5 = a5 + a2\n 28049: a4 = a5 <u a2\n 28052: a2 = a2 <u t2\n 28055: a0 = a0 + a2\n 28058: a0 = a0 + a4\n 28061: a2 = a1 | a5\n 28064: a0 = a0 | a3\n 28067: a2 = a2 | a0\n 28070: a2 = a2 >> 0x20\n 28073: a0 = a0 | a5\n 28076: a0 = a0 << 0x20\n 28079: a0 = a0 | a2\n 28082: jump @1045 if a0 != 0\n      : @989 (gas: 2)\n 28086: a0 = s1 + 0x2d60\n 28090: ra = 1030, jump @22\n      : @990 [@dyn 515] (gas: 18)\n 28096: a0 = s1 + 0x2918\n 28100: a2 = a0 + 0x400\n 28104: a1 = u64 [a2 + 0x60]\n 28107: u64 [s1 + 0x190] = a1\n 28111: a1 = u64 [a2 + 0x58]\n 28114: u64 [s1 + 0x188] = a1\n 28118: a1 = u64 [a2 + 0x50]\n 28121: u64 [s1 + 0x180] = a1\n 28125: a0 = u64 [a2 + 0x48]\n 28128: u64 [s1 + 0x178] = a0\n 28132: a0 = u64 [s1 + 0x80]\n 28136: a0 = a0 << 0x3b\n 28139: a1 = a0 >> 0x38\n 28142: u64 [s1 + 0x198] = a1\n 28146: a2 = 0x80 - a1\n 28150: a0 = 0xffffffffffffffff\n 28153: a1 = 0xffffffffffffffff\n 28156: ra = 1032, jump @1882\n      : @991 [@dyn 516] (gas: 6)\n 28162: u64 [s1 + 0x168] = a0\n 28166: u64 [s1 + 0x150] = a1\n 28170: a0 = 0xffffffffffffffff\n 28173: a1 = 0xffffffffffffffff\n 28176: a2 = u64 [s1 + 0x198]\n 28180: ra = 1034, jump @1877\n      : @992 [@dyn 517] (gas: 10)\n 28186: u64 [s1 + 0x158] = a0\n 28190: u64 [s1 + 0x160] = a1\n 28194: a0 = u64 [s1 + 0x150]\n 28198: a0 = a0 | a1\n 28201: u64 [s1 + 0x150] = a0\n 28205: a0 = u64 [s1 + 0x198]\n 28209: a2 = a0 + 0xffffffffffffff80\n 28212: a0 = 0xffffffffffffffff\n 28215: a1 = 0xffffffffffffffff\n 28218: ra = 1036, jump @1877\n      : @993 [@dyn 518] (gas: 30)\n 28224: a4 = u64 [s1 + 0x198]\n 28228: a2 = a4 <u 0x80\n 28232: a3 = u64 [s1 + 0x150]\n 28236: a1 = a3 if a2 != 0\n 28239: a5 = u64 [s1 + 0x158]\n 28243: a3 = u64 [s1 + 0x168]\n 28247: a3 = a3 | a5\n 28250: a3 = a0 if a2 == 0\n 28253: a1 = 0xffffffffffffffff if a4 == 0\n 28256: a3 = 0xffffffffffffffff if a4 == 0\n 28259: a4 = u64 [s1 + 0x160]\n 28263: a4 = 0 if a2 == 0\n 28265: a5 = 0 if a2 == 0\n 28267: a0 = u64 [s1 + 0x178]\n 28271: a0 = a0 & ~a3\n 28274: a2 = u64 [s1 + 0x180]\n 28278: a1 = a2 & ~a1\n 28281: a2 = u64 [s1 + 0x188]\n 28285: a2 = a2 & ~a5\n 28288: a3 = u64 [s1 + 0x190]\n 28292: a3 = a3 & ~a4\n 28295: a4 = s1 + 0x3918\n 28299: a5 = a4 + 0x300\n 28303: u64 [a5 + 0x40] = a3\n 28306: u64 [a5 + 0x38] = a2\n 28309: u64 [a5 + 0x30] = a1\n 28312: u64 [a5 + 0x28] = a0\n 28315: a1 = s1 + 0x3c40\n 28319: a0 = u64 [s1 + 0x170]\n 28323: ra = 1038, jump @28\n      : @994 [@dyn 519] (gas: 23)\n 28329: a2 = u64 [s1 + 0x30]\n 28332: a0 = a2 >> 0x3f\n 28335: a1 = u64 [s1 + 0x28]\n 28338: a1 = a1 << 0x1\n 28341: a0 = a0 | a1\n 28344: a3 = u64 [s1 + 0x40]\n 28347: a1 = a3 >> 0x3f\n 28350: a2 = a2 << 0x1\n 28353: a1 = a1 | a2\n 28356: a4 = u64 [s1 + 0x80]\n 28360: a2 = a4 >> 0x3f\n 28363: a3 = a3 << 0x1\n 28366: a2 = a2 | a3\n 28369: a3 = a4 << 0x1\n 28372: a3 = a3 + 0x1\n 28375: a4 = s1 + 0x3918\n 28379: a5 = a4 + 0x300\n 28383: u64 [a5 + 0x48] = a3\n 28386: u64 [a5 + 0x50] = a2\n 28389: u64 [a5 + 0x58] = a1\n 28392: u64 [a5 + 0x60] = a0\n 28395: a0 = 0x3c60\n 28399: jump @1002\n      : @995 (gas: 11)\n 28402: a3 = s1 + 0x100\n 28406: a0 = u64 [a3 + 0x28]\n 28409: a1 = u64 [a3 + 0x20]\n 28412: a0 = a0 | a1\n 28415: a1 = 0xffffffe0\n 28425: a2 = u64 [a3 + 0x18]\n 28428: a1 = a2 <u a1\n 28431: a2 = u64 [a3 + 0x30]\n 28434: a1 = 0 if a2 != 0\n 28436: a1 = 0 if a0 != 0\n 28438: jump @1045 if a1 == 0\n      : @996 (gas: 4)\n 28442: a0 = u64 [s1 + 0x118]\n 28446: i32 a1 = a0 + 0x20\n 28449: a0 = s1 + 0x2da0\n 28453: ra = 1040, jump @22\n      : @997 [@dyn 520] (gas: 12)\n 28459: a0 = s1 + 0x2918\n 28463: a2 = a0 + 0x400\n 28467: a1 = u64 [a2 + 0xa0]\n 28471: a3 = s1 + 0x100\n 28475: u64 [a3 + 0x50] = a1\n 28478: a1 = u64 [a2 + 0x98]\n 28482: u64 [a3 + 0x48] = a1\n 28485: a1 = u64 [a2 + 0x90]\n 28489: u64 [a3 + 0x38] = a1\n 28492: a0 = u64 [a2 + 0x88]\n 28496: u64 [a3 + 0x40] = a0\n 28499: fallthrough\n      : @998 (gas: 24)\n 28500: a2 = u64 [s1 + 0x40]\n 28503: a0 = a2 >> 0x3f\n 28506: a3 = u64 [s1 + 0x30]\n 28509: a1 = a3 << 0x1\n 28512: a0 = a0 | a1\n 28515: u64 [s1 + 0x190] = a0\n 28519: a0 = a3 >> 0x3f\n 28522: a1 = u64 [s1 + 0x28]\n 28525: a1 = a1 << 0x1\n 28528: a0 = a0 | a1\n 28531: u64 [s1 + 0x188] = a0\n 28535: a3 = u64 [s1 + 0x80]\n 28539: a0 = a3 >> 0x3f\n 28542: a1 = a2 << 0x1\n 28545: a0 = a0 | a1\n 28548: u64 [s1 + 0x180] = a0\n 28552: a0 = a3 << 0x1\n 28555: u64 [s1 + 0x178] = a0\n 28559: a1 = a3 << 0x3\n 28562: u64 [s1 + 0x198] = a1\n 28566: i32 a2 = 0x80 - a1\n 28570: a0 = 0xffffffffffffffff\n 28573: a1 = 0xffffffffffffffff\n 28576: ra = 1042, jump @1882\n      : @999 [@dyn 521] (gas: 7)\n 28582: u64 [s1 + 0x158] = a0\n 28586: u64 [s1 + 0x170] = a1\n 28590: a0 = u64 [s1 + 0x80]\n 28594: i32 a2 = a0 << 0x3\n 28597: a0 = 0xffffffffffffffff\n 28600: a1 = 0xffffffffffffffff\n 28603: ra = 1044, jump @1877\n      : @1000 [@dyn 522] (gas: 10)\n 28609: u64 [s1 + 0x168] = a0\n 28613: u64 [s1 + 0x160] = a1\n 28617: a1 = u64 [s1 + 0x158]\n 28621: a0 = a0 | a1\n 28624: u64 [s1 + 0x158] = a0\n 28628: a0 = u64 [s1 + 0x198]\n 28632: i32 a2 = a0 + 0xffffffffffffff80\n 28635: a0 = 0xffffffffffffffff\n 28638: a1 = 0xffffffffffffffff\n 28641: ra = 1046, jump @1877\n      : @1001 [@dyn 523] (gas: 38)\n 28647: a4 = u64 [s1 + 0x198]\n 28651: a2 = a4 <u 0x80\n 28655: a3 = u64 [s1 + 0x158]\n 28659: a0 = a3 if a2 != 0\n 28662: a5 = u64 [s1 + 0x160]\n 28666: a3 = u64 [s1 + 0x170]\n 28670: a3 = a3 | a5\n 28673: a3 = a1 if a2 == 0\n 28676: a0 = 0xffffffffffffffff if a4 == 0\n 28679: a3 = 0xffffffffffffffff if a4 == 0\n 28682: a5 = 0 if a2 == 0\n 28684: a4 = u64 [s1 + 0x168]\n 28688: a4 = 0 if a2 == 0\n 28690: a1 = u64 [s1 + 0x138]\n 28694: a1 = a1 & ~a3\n 28697: a2 = u64 [s1 + 0x140]\n 28701: a0 = a2 & ~a0\n 28704: a2 = u64 [s1 + 0x148]\n 28708: a2 = a2 & ~a4\n 28711: a3 = u64 [s1 + 0x150]\n 28715: a3 = a3 & ~a5\n 28718: a5 = s1 + 0x100\n 28722: a4 = u64 [a5 + 0x78]\n 28725: a0 = a0 | a4\n 28728: a4 = u64 [a5 + 0x80]\n 28732: a1 = a1 | a4\n 28735: a4 = u64 [a5 + 0x88]\n 28739: a3 = a3 | a4\n 28742: a4 = u64 [a5 + 0x90]\n 28746: a2 = a2 | a4\n 28749: a4 = s1 + 0x3918\n 28753: a5 = a4 + 0x300\n 28757: u64 [a5 + 0x78] = a2\n 28760: u64 [a5 + 0x80] = a3\n 28764: u64 [a5 + 0x70] = a1\n 28767: u64 [a5 + 0x68] = a0\n 28770: a0 = 0x3c80\n 28774: fallthrough\n      : @1002 (gas: 3)\n 28775: a1 = s1 + a0\n 28778: a0 = u64 [s1 + 0x38]\n 28781: ra = 1048, jump @28\n      : @1003 [@dyn 524] (gas: 8)\n 28787: a0 = sp + 0xffffffffffffffe0\n 28790: a5 = a0 & 0xffffffffffffffe0\n 28793: sp = a5\n 28795: a1 = u64 [s1 + 0x48]\n 28798: a0 = a1 + 0x2\n 28801: a1 = a0 <u a1\n 28804: a3 = u64 [s1 + 0x50]\n 28807: t0 = 1050, jump @1828\n      : @1004 [@dyn 525] (gas: 13)\n 28813: a1 = u64 [s1 + 0x60]\n 28816: a3 = a3 + a1\n 28819: a1 = a3 <u a1\n 28822: a4 = u64 [s1 + 0x58]\n 28825: a1 = a1 + a4\n 28828: u64 [s1 + 0x198] = a5\n 28832: u64 [a5 + 0x10] = a3\n 28835: u64 [a5 + 0x8] = a2\n 28838: u64 [a5] = a0\n 28840: u64 [a5 + 0x18] = a1\n 28843: a0 = s1 + 0x2d40\n 28847: a1 = u64 [s1 + 0x68]\n 28850: ra = 1052, jump @22\n      : @1005 [@dyn 526] (gas: 7)\n 28856: a0 = s1 + 0x2918\n 28860: a0 = u64 [a0 + 0x428]\n 28864: a0 = a0 & 0xffffffffffffffff\n 28867: u64 [s1 + 0x190] = a0\n 28871: a0 = s1 + 0x2d20\n 28875: a1 = u64 [s1 + 0x198]\n 28879: ra = 1054, jump @26\n      : @1006 [@dyn 527] (gas: 15)\n 28885: a2 = s1 + 0x2918\n 28889: a3 = a2 + 0x400\n 28893: a0 = u64 [a3 + 0x20]\n 28896: a1 = u64 [a3 + 0x18]\n 28899: a2 = u64 [a3 + 0x10]\n 28902: a3 = s1 + 0x3918\n 28906: a4 = u64 [s1 + 0x190]\n 28910: a5 = a3 + 0x300\n 28914: u64 [a5 + 0x88] = a4\n 28918: u64 [a5 + 0xa0] = a0\n 28922: u64 [a5 + 0x98] = a1\n 28926: u64 [a5 + 0x90] = a2\n 28930: a1 = s1 + 0x3ca0\n 28934: a0 = u64 [s1 + 0x198]\n 28938: ra = 1056, jump @28\n      : @1007 [@dyn 528] (gas: 3)\n 28944: a0 = s1 + 0x2d00\n 28948: a1 = u64 [s1 + 0x20]\n 28951: ra = 1058, jump @22\n      : @1008 [@dyn 529] (gas: 14)\n 28957: a3 = s1 + 0x2918\n 28961: a0 = u64 [a3 + 0x400]\n 28965: a4 = a3 + 0x300\n 28969: a1 = u64 [a4 + 0xf0]\n 28973: a2 = u64 [a4 + 0xf8]\n 28977: a3 = u64 [a4 + 0xe8]\n 28981: a0 = a0 | a1\n 28984: a2 = a2 | a3\n 28987: a0 = a0 | a2\n 28990: a0 = a0 >u 0\n 28992: u64 [s1 + 0x190] = a0\n 28996: a0 = s1 + 0x2ce0\n 29000: a1 = u64 [s1 + 0x198]\n 29004: ra = 1060, jump @26\n      : @1009 [@dyn 530] (gas: 18)\n 29010: a3 = s1 + 0x2918\n 29014: a4 = a3 + 0x300\n 29018: a0 = u64 [a4 + 0xd0]\n 29022: a1 = u64 [a4 + 0xc8]\n 29026: a2 = u64 [a4 + 0xe0]\n 29030: a3 = u64 [a4 + 0xd8]\n 29034: a0 = a0 & 0xffffffffffffff00\n 29038: a4 = u64 [s1 + 0x190]\n 29042: a0 = a0 | a4\n 29045: a4 = s1 + 0x3918\n 29049: a5 = a4 + 0x300\n 29053: u64 [a5 + 0xc0] = a2\n 29057: u64 [a5 + 0xb8] = a3\n 29061: u64 [a5 + 0xa8] = a1\n 29065: u64 [a5 + 0xb0] = a0\n 29069: a1 = s1 + 0x3cc0\n 29073: a0 = u64 [s1 + 0x198]\n 29077: ra = 1062, jump @28\n      : @1010 [@dyn 531] (gas: 6)\n 29083: a0 = u64 [s1 + 0xc0]\n 29087: ra = 0x428\n 29091: ecalli 4 // 'caller'\n 29093: a2 = u64 [s1 + 0xd8]\n 29097: t0 = 0x42a\n 29101: jump @1790\n      : @1011 [@dyn 532] (gas: 2)\n 29104: a2 = u64 [s1 + 0xd8]\n 29108: t0 = 1066, jump @1790\n      : @1012 [@dyn 533] (gas: 8)\n 29114: u64 [a2 + 960] = 0\n 29118: a4 = a2 + 0x300\n 29122: u64 [a4 + 0xb8] = a1\n 29126: u64 [a4 + 0xb0] = a0\n 29130: a1 = s1 + 0x2cc0\n 29134: u64 [a4 + 0xa8] = a3\n 29138: a0 = 0\n 29140: ra = 1068, jump @24\n      : @1013 [@dyn 534] (gas: 3)\n 29146: t0 = 0x42e\n 29150: a1 = s1 + 0x2918\n 29154: fallthrough\n      : @1014 [@dyn 535] (gas: 8)\n 29155: u64 [a1 + 928] = 0\n 29159: u64 [a1 + 920] = 0\n 29163: u64 [a1 + 904] = 0x1\n 29168: a2 = a1\n 29170: a0 = 0x20\n 29173: a1 = s1 + 0x2ca0\n 29177: u64 [a2 + 912] = 0\n 29181: ra = 1072, jump @24\n      : @1015 [@dyn 536] (gas: 7)\n 29187: a0 = sp + 0xffffffffffffffe0\n 29190: a0 = a0 & 0xffffffffffffffe0\n 29193: u64 [s1 + 0x198] = a0\n 29197: sp = a0\n 29199: a0 = u64 [s1 + 0xa8]\n 29203: a0 = i32 [a0]\n 29205: jump @1017 if a0 >u 63\n      : @1016 (gas: 4)\n 29209: a1 = u64 [s1 + 0xa8]\n 29213: u32 [a1 + 0] = 0x40\n 29216: t0 = 0x432\n 29220: jump @1858\n      : @1017 (gas: 1)\n 29223: t0 = 1074, jump @1858\n      : @1018 [@dyn 537] (gas: 3)\n 29229: ra = 0x434\n 29233: ecalli 8 // 'hash_keccak_256'\n 29235: fallthrough\n      : @1019 [@dyn 538] (gas: 11)\n 29236: a3 = u64 [s1 + 0x190]\n 29240: a0 = u64 [a3]\n 29242: a1 = u64 [a3 + 0x8]\n 29245: a2 = u64 [a3 + 0x10]\n 29248: a3 = u64 [a3 + 0x18]\n 29251: a0 = reverse a0\n 29253: a1 = reverse a1\n 29255: a2 = reverse a2\n 29257: a3 = reverse a3\n 29259: a4 = a3 + 0x3\n 29262: t0 = 1078, jump @1802\n      : @1020 [@dyn 539] (gas: 7)\n 29268: a1 = u64 [s1 + 0x198]\n 29272: u64 [a1] = a4\n 29274: u64 [a1 + 0x8] = a5\n 29277: u64 [a1 + 0x10] = a2\n 29280: u64 [a1 + 0x18] = a0\n 29283: a0 = s1 + 0x2c80\n 29287: ra = 1080, jump @26\n      : @1021 [@dyn 540] (gas: 3)\n 29293: t0 = 0x43a\n 29297: a2 = s1 + 0x2918\n 29301: fallthrough\n      : @1022 [@dyn 541] (gas: 10)\n 29302: a0 = u64 [a2 + 0x368]\n 29306: a1 = u64 [s1 + 0x70]\n 29309: a0 = a0 & a1\n 29312: u64 [a2 + 832] = 0\n 29316: u64 [a2 + 824] = 0\n 29320: u64 [a2 + 0x328] = a0\n 29324: a0 = s1 + 0x2c60\n 29328: a1 = s1 + 0x2c40\n 29332: u64 [a2 + 816] = 0\n 29336: ra = 1084, jump @1632\n      : @1023 [@dyn 542] (gas: 13)\n 29342: a0 = s1 + 0x2918\n 29346: a2 = a0 + 0x300\n 29350: a1 = u64 [a2 + 0x60]\n 29353: u64 [s1 + 0x190] = a1\n 29357: a1 = u64 [a2 + 0x58]\n 29360: u64 [s1 + 0x188] = a1\n 29364: a1 = u64 [a2 + 0x50]\n 29367: u64 [s1 + 0x180] = a1\n 29371: a1 = u64 [a2 + 0x48]\n 29374: u64 [s1 + 0x178] = a1\n 29378: a0 = s1 + 0x2c20\n 29382: a1 = u64 [s1 + 0x198]\n 29386: ra = 1086, jump @26\n      : @1024 [@dyn 543] (gas: 28)\n 29392: a3 = s1 + 0x2918\n 29396: a4 = a3 + 0x300\n 29400: a0 = u64 [a4 + 0x20]\n 29403: a1 = u64 [a4 + 0x18]\n 29406: a2 = u64 [a4 + 0x10]\n 29409: a3 = u64 [a4 + 0x8]\n 29412: a0 = a0 & 0xffffffffffffffff\n 29415: a1 = a1 & 0xffffffffffffffff\n 29418: a2 = a2 & 0xffffffffffffffff\n 29421: a4 = u64 [s1 + 0x78]\n 29424: a3 = a3 & a4\n 29427: a4 = u64 [s1 + 0x178]\n 29431: a3 = a3 | a4\n 29434: a4 = u64 [s1 + 0x180]\n 29438: a2 = a2 | a4\n 29441: a4 = u64 [s1 + 0x188]\n 29445: a1 = a1 | a4\n 29448: a4 = u64 [s1 + 0x190]\n 29452: a0 = a0 | a4\n 29455: a4 = s1 + 0x3918\n 29459: a5 = a4 + 0x300\n 29463: u64 [a5 + 0xe0] = a0\n 29467: u64 [a5 + 0xd8] = a1\n 29471: u64 [a5 + 0xd0] = a2\n 29475: u64 [a5 + 0xc8] = a3\n 29479: a1 = s1 + 0x3ce0\n 29483: a0 = u64 [s1 + 0x198]\n 29487: ra = 1088, jump @28\n      : @1025 [@dyn 544] (gas: 3)\n 29493: a0 = s1 + 0x2c00\n 29497: a1 = 0x40\n 29500: ra = 1090, jump @22\n      : @1026 [@dyn 545] (gas: 2)\n 29506: a1 = s1 + 0x2918\n 29510: fallthrough\n      : @1027 (gas: 18)\n 29511: a0 = u64 [a1 + 0x300]\n 29515: a4 = a1 + 0x200\n 29519: a2 = u64 [a4 + 0xf8]\n 29523: a3 = u64 [a4 + 0xf0]\n 29527: a1 = u64 [a4 + 0xe8]\n 29531: a4 = s1 + 0x100\n 29535: u64 [a4 + 0x80] = a0\n 29539: u64 [a4 + 0x90] = a3\n 29543: a0 = a0 | a3\n 29546: u64 [a4 + 0x98] = a1\n 29550: a1 = a1 | a2\n 29553: a1 = a1 | a0\n 29556: a1 = a1 >> 0x20\n 29559: u64 [a4 + 0x88] = a2\n 29563: a0 = a0 | a2\n 29566: a0 = a0 << 0x20\n 29569: a0 = a0 | a1\n 29572: jump @1045 if a0 != 0\n      : @1028 (gas: 3)\n 29576: t0 = 0x444\n 29580: a2 = s1 + 0x2918\n 29584: fallthrough\n      : @1029 [@dyn 546] (gas: 7)\n 29585: u64 [a2 + 736] = 0\n 29589: u64 [a2 + 728] = 0\n 29593: u64 [a2 + 720] = 0\n 29597: a1 = s1 + 0x2be0\n 29601: u64 [a2 + 712] = 0x20\n 29606: a0 = u64 [s1 + 0x198]\n 29610: ra = 1094, jump @24\n      : @1030 [@dyn 547] (gas: 14)\n 29616: a3 = s1 + 0x100\n 29620: a0 = u64 [a3 + 0x88]\n 29624: a1 = u64 [a3 + 0x80]\n 29628: a2 = a0 | a1\n 29631: a0 = 0x100000000\n 29641: u64 [a3 + 0x78] = a0\n 29644: a0 = 0xffffffe0\n 29654: a1 = u64 [a3 + 0x98]\n 29658: a0 = a1 <u a0\n 29661: a1 = u64 [a3 + 0x90]\n 29665: a0 = 0 if a1 != 0\n 29667: u64 [a3 + 0x70] = a2\n 29670: a0 = 0 if a2 != 0\n 29672: jump @1045 if a0 == 0\n      : @1031 (gas: 14)\n 29676: a0 = u64 [s1 + 0x198]\n 29680: i32 a0 = a0 + 0x20\n 29683: a2 = s1 + 0x2918\n 29687: a1 = u64 [s1 + 0xb8]\n 29691: a4 = a2 + 0x200\n 29695: u64 [a4 + 0xa8] = a1\n 29699: a1 = u64 [s1 + 0xe0]\n 29703: u64 [a4 + 0xb0] = a1\n 29707: a1 = u64 [s1 + 0xe8]\n 29711: u64 [a4 + 0xb8] = a1\n 29715: a1 = s1 + 0x2bc0\n 29719: a3 = u64 [s1 + 0xb0]\n 29723: u64 [a4 + 0xc0] = a3\n 29727: ra = 1096, jump @24\n      : @1032 [@dyn 548] (gas: 9)\n 29733: a0 = u64 [s1 + 0x178]\n 29737: a0 = a0 + 0xffffffffffffffdc\n 29740: a1 = u64 [s1 + 0xc8]\n 29744: a0 = a1 <u a0\n 29747: a1 = u64 [s1 + 0xd0]\n 29751: a0 = 0 if a1 != 0\n 29753: a1 = u64 [s1 + 0x98]\n 29757: a0 = 0 if a1 != 0\n 29759: jump @1045 if a0 == 0\n      : @1033 (gas: 10)\n 29763: a1 = 0xffffffc0\n 29773: a2 = s1 + 0x100\n 29777: a0 = u64 [a2 + 0x98]\n 29781: u64 [a2 + 0x78] = a1\n 29784: a0 = a0 <u a1\n 29787: a1 = u64 [a2 + 0x90]\n 29791: a0 = 0 if a1 != 0\n 29793: a1 = u64 [a2 + 0x70]\n 29796: a0 = 0 if a1 != 0\n 29798: jump @1045 if a0 == 0\n      : @1034 (gas: 4)\n 29802: a0 = u64 [s1 + 0x198]\n 29806: i32 a0 = a0 + 0x40\n 29809: a1 = u64 [s1 + 0x90]\n 29813: ra = 1098, jump @37\n      : @1035 [@dyn 549] (gas: 6)\n 29819: i32 a0 = a0 + 0\n 29821: a1 = u64 [s1 + 0x90]\n 29825: a2 = u64 [s1 + 0x88]\n 29829: ra = 0x44c\n 29833: ecalli 1 // 'call_data_copy'\n 29835: fallthrough\n      : @1036 [@dyn 550] (gas: 8)\n 29836: a1 = u64 [s1 + 0xb8]\n 29840: a0 = u64 [s1 + 0x198]\n 29844: a0 = a0 + a1\n 29847: a1 = a0 <u a1\n 29850: a4 = u64 [s1 + 0xe0]\n 29854: a2 = u64 [s1 + 0x190]\n 29858: a2 = a2 + a4\n 29861: t0 = 1102, jump @1841\n      : @1037 [@dyn 551] (gas: 17)\n 29867: a1 = u64 [s1 + 0xb0]\n 29871: a3 = u64 [s1 + 0x180]\n 29875: a1 = a1 + a3\n 29878: a5 = u64 [s1 + 0xe8]\n 29882: a3 = u64 [s1 + 0x188]\n 29886: a3 = a3 + a5\n 29889: a5 = a3 <u a5\n 29892: a1 = a1 + a5\n 29895: a4 = a4 + a3\n 29898: a3 = a4 <u a3\n 29901: a1 = a1 + a3\n 29904: a1 = a1 | a4\n 29907: a3 = u64 [s1 + 0x178]\n 29911: a3 = a0 <u a3\n 29914: a3 = 0 if a2 != 0\n 29916: a3 = 0 if a1 != 0\n 29918: jump @1045 if a3 == 0\n      : @1038 (gas: 8)\n 29922: i32 a0 = a0 + 0x40\n 29925: a2 = s1 + 0x2918\n 29929: u64 [a2 + 672] = 0\n 29933: u64 [a2 + 664] = 0\n 29937: u64 [a2 + 656] = 0\n 29941: a1 = s1 + 0x2ba0\n 29945: u64 [a2 + 648] = 0\n 29949: ra = 1104, jump @24\n      : @1039 [@dyn 552] (gas: 6)\n 29955: a0 = u64 [s1 + 0xc0]\n 29959: ra = 0x452\n 29963: ecalli 4 // 'caller'\n 29965: a2 = u64 [s1 + 0xd8]\n 29969: t0 = 0x454\n 29973: jump @1795\n      : @1040 [@dyn 553] (gas: 2)\n 29976: a2 = u64 [s1 + 0xd8]\n 29980: t0 = 1108, jump @1795\n      : @1041 [@dyn 554] (gas: 39)\n 29986: t0 = a1 | a0\n 29989: a3 = a3 >> 0x20\n 29992: a1 = reverse a2\n 29994: a2 = a1 << 0x20\n 29997: t1 = a2 | a3\n 30000: t2 = a1 >> 0x20\n 30003: a1 = u64 [s1 + 0xb8]\n 30007: a1 = a1 + 0x1f\n 30010: a1 = a1 & 0xe0\n 30014: a1 = a1 + 0x40\n 30017: a4 = u64 [0x20020]\n 30022: a5 = u64 [0x20028]\n 30027: a0 = u64 [0x20030]\n 30032: a2 = u64 [0x20038]\n 30037: a3 = s1 + 0x2918\n 30041: u64 [a3 + 0x280] = a4\n 30045: a4 = a3 + 0x200\n 30049: u64 [a4 + 0x78] = a5\n 30052: u64 [a4 + 0x70] = a0\n 30055: u64 [a4 + 0x68] = a2\n 30058: a5 = s1 + 0x100\n 30062: a0 = u64 [a5 + 0x8]\n 30065: u64 [a4 + 0x40] = a0\n 30068: a0 = u64 [a5]\n 30070: u64 [a4 + 0x38] = a0\n 30073: a0 = u64 [s1 + 0xf8]\n 30077: u64 [a4 + 0x30] = a0\n 30080: a0 = u64 [s1 + 0xf0]\n 30084: u64 [a4 + 0x28] = a0\n 30087: u64 [a3 + 0x258] = t2\n 30091: u64 [a3 + 0x250] = t1\n 30095: u64 [a3 + 0x248] = t0\n 30099: a0 = a3\n 30101: a2 = s1 + 0x2b80\n 30105: a3 = s1 + 0x2b60\n 30109: a4 = s1 + 0x2b40\n 30113: u64 [a0 + 608] = 0\n 30117: a0 = u64 [a5 + 0x98]\n 30121: ra = 1110, jump @31\n      : @1042 [@dyn 555] (gas: 3)\n 30127: a0 = s1 + 0x2b20\n 30131: a1 = 0x40\n 30134: ra = 1112, jump @22\n      : @1043 [@dyn 556] (gas: 3)\n 30140: a3 = s1 + 0x2918\n 30144: a5 = a3 + 0x200\n 30148: t0 = 1114, jump @1855\n      : @1044 [@dyn 557] (gas: 1)\n 30154: jump @1153 if a0 == 0\n      : @1045 (gas: 1)\n 30158: trap\n      : @1046 (gas: 9)\n 30159: a0 = s1 + 0x7ff\n 30163: a0 = a0 + 0x111\n 30167: u64 [a0 + 1728] = 0\n 30171: u64 [a0 + 1720] = 0\n 30175: u64 [a0 + 1712] = 0\n 30179: a2 = a0\n 30181: t0 = 0x45c\n 30185: a0 = 0x4e487b7100000000\n 30195: fallthrough\n      : @1047 [@dyn 558] (gas: 5)\n 30196: a1 = s1 + 0x7ff\n 30200: a1 = a1 + 0x7c1\n 30204: u64 [a2 + 0x6c8] = a0\n 30208: a0 = 0\n 30210: ra = 1118, jump @24\n      : @1048 [@dyn 559] (gas: 11)\n 30216: a1 = s1 + 0x7ff\n 30220: a1 = a1 + 0x111\n 30224: u64 [a1 + 1704] = 0\n 30228: u64 [a1 + 1696] = 0\n 30232: u64 [a1 + 1680] = 0x11\n 30237: a2 = a1\n 30239: a0 = 0x4\n 30242: a1 = s1 + 0x7ff\n 30246: a1 = a1 + 0x7a1\n 30250: u64 [a2 + 1688] = 0\n 30254: ra = 1120, jump @24\n      : @1049 [@dyn 560] (gas: 3)\n 30260: a0 = u64 [s1 + 0x170]\n 30264: a0 = i32 [a0]\n 30266: jump @1051 if a0 >u 63\n      : @1050 (gas: 3)\n 30270: a1 = u64 [s1 + 0x170]\n 30274: u32 [a1 + 0] = 0x40\n 30277: fallthrough\n      : @1051 (gas: 5)\n 30278: a0 = 0x1\n 30281: a2 = 0x24\n 30284: a1 = u64 [s1 + 0x178]\n 30288: ecalli 13 // 'seal_return'\n 30290: fallthrough\n      : @1052 (gas: 4)\n 30291: a1 = 0x20190\n 30296: i32 a1 = a1 + 0\n 30298: a0 = 0x1\n 30301: jump @1233\n      : @1053 (gas: 4)\n 30304: a1 = 0x20190\n 30309: i32 a1 = a1 + 0\n 30311: a0 = 0x1\n 30314: jump @1233\n      : @1054 (gas: 4)\n 30317: a1 = 0x20190\n 30322: i32 a1 = a1 + 0\n 30324: a0 = 0x1\n 30327: jump @1233\n      : @1055 (gas: 4)\n 30330: a1 = 0x20190\n 30335: i32 a1 = a1 + 0\n 30337: a0 = 0x1\n 30340: jump @1233\n      : @1056 (gas: 4)\n 30343: a1 = 0x20190\n 30348: i32 a1 = a1 + 0\n 30350: a0 = 0x1\n 30353: jump @1233\n      : @1057 (gas: 4)\n 30356: a1 = 0x20190\n 30361: i32 a1 = a1 + 0\n 30363: a0 = 0x1\n 30366: jump @1233\n      : @1058 (gas: 9)\n 30369: a2 = s1 + 0x1918\n 30373: u64 [a2 + 1560] = 0\n 30377: u64 [a2 + 1552] = 0\n 30381: a0 = 0x2c5211c600000000\n 30391: u64 [a2 + 0x620] = a0\n 30395: a1 = s1 + 0x1f20\n 30399: u64 [a2 + 1544] = 0\n 30403: a0 = 0\n 30405: ra = 1122, jump @24\n      : @1059 [@dyn 561] (gas: 2)\n 30411: a1 = i32 [0x20180]\n 30416: jump @1061 if a1 >u 31\n      : @1060 (gas: 3)\n 30420: u32 [0x20180] = 0x20\n 30426: a1 = 0x20190\n 30431: jump @1123\n      : @1061 (gas: 2)\n 30434: a1 = 0x20190\n 30439: jump @1123\n      : @1062 (gas: 9)\n 30442: a2 = s1 + 0x1918\n 30446: u64 [a2 + 1592] = 0\n 30450: u64 [a2 + 1584] = 0\n 30454: a0 = 0xf4d678b800000000\n 30464: u64 [a2 + 0x640] = a0\n 30468: a1 = s1 + 0x1f40\n 30472: u64 [a2 + 1576] = 0\n 30476: a0 = 0\n 30478: ra = 1124, jump @24\n      : @1063 [@dyn 562] (gas: 3)\n 30484: a0 = u64 [s1 + 0x150]\n 30488: a0 = i32 [a0]\n 30490: jump @1065 if a0 >u 31\n      : @1064 (gas: 3)\n 30494: a1 = u64 [s1 + 0x150]\n 30498: u32 [a1 + 0] = 0x20\n 30501: fallthrough\n      : @1065 (gas: 5)\n 30502: a0 = 0x1\n 30505: a2 = 0x4\n 30508: a1 = u64 [s1 + 0x160]\n 30512: ecalli 13 // 'seal_return'\n 30514: fallthrough\n      : @1066 (gas: 4)\n 30515: a1 = 0x20190\n 30520: i32 a1 = a1 + 0\n 30522: a0 = 0x1\n 30525: jump @1233\n      : @1067 (gas: 4)\n 30528: a1 = 0x20190\n 30533: i32 a1 = a1 + 0\n 30535: a0 = 0x1\n 30538: jump @1233\n      : @1068 (gas: 4)\n 30541: a1 = 0x20190\n 30546: i32 a1 = a1 + 0\n 30548: a0 = 0x1\n 30551: jump @1233\n      : @1069 (gas: 9)\n 30554: a2 = s1 + 0x3118\n 30558: u64 [a2 + 344] = 0\n 30562: u64 [a2 + 336] = 0\n 30566: a0 = 0x2c5211c600000000\n 30576: u64 [a2 + 0x160] = a0\n 30580: a1 = s1 + 0x3260\n 30584: u64 [a2 + 328] = 0\n 30588: a0 = 0\n 30590: ra = 1126, jump @24\n      : @1070 [@dyn 563] (gas: 2)\n 30596: a1 = i32 [0x20180]\n 30601: jump @1072 if a1 >u 31\n      : @1071 (gas: 3)\n 30605: u32 [0x20180] = 0x20\n 30611: a1 = 0x20190\n 30616: jump @1123\n      : @1072 (gas: 2)\n 30619: a1 = 0x20190\n 30624: jump @1123\n      : @1073 (gas: 4)\n 30627: a1 = 0x20190\n 30632: i32 a1 = a1 + 0\n 30634: a0 = 0x1\n 30637: jump @1233\n      : @1074 (gas: 4)\n 30640: a1 = 0x20190\n 30645: i32 a1 = a1 + 0\n 30647: a0 = 0x1\n 30650: jump @1233\n      : @1075 (gas: 4)\n 30653: a1 = 0x20190\n 30658: i32 a1 = a1 + 0\n 30660: a0 = 0x1\n 30663: jump @1233\n      : @1076 (gas: 4)\n 30666: a1 = 0x20190\n 30671: i32 a1 = a1 + 0\n 30673: a0 = 0x1\n 30676: jump @1233\n      : @1077 (gas: 4)\n 30679: a1 = 0x20190\n 30684: i32 a1 = a1 + 0\n 30686: a0 = 0x1\n 30689: jump @1233\n      : @1078 (gas: 4)\n 30692: a1 = 0x20190\n 30697: i32 a1 = a1 + 0\n 30699: a0 = 0x1\n 30702: jump @1233\n      : @1079 (gas: 4)\n 30705: a1 = 0x20190\n 30710: i32 a1 = a1 + 0\n 30712: a0 = 0x1\n 30715: jump @1233\n      : @1080 (gas: 4)\n 30718: a1 = 0x20190\n 30723: i32 a1 = a1 + 0\n 30725: a0 = 0x1\n 30728: jump @1233\n      : @1081 (gas: 4)\n 30731: a1 = 0x20190\n 30736: i32 a1 = a1 + 0\n 30738: a0 = 0x1\n 30741: jump @1233\n      : @1082 (gas: 4)\n 30744: a1 = 0x20190\n 30749: i32 a1 = a1 + 0\n 30751: a0 = 0x1\n 30754: jump @1233\n      : @1083 (gas: 4)\n 30757: a1 = 0x20190\n 30762: i32 a1 = a1 + 0\n 30764: a0 = 0x1\n 30767: jump @1233\n      : @1084 (gas: 8)\n 30770: u64 [s1 + 1488] = 0\n 30774: u64 [s1 + 1480] = 0\n 30778: u64 [s1 + 1472] = 0\n 30782: a0 = 0x2c5211c600000000\n 30792: a1 = s1 + 0x5c0\n 30796: u64 [s1 + 0x5d8] = a0\n 30800: a0 = 0\n 30802: ra = 1128, jump @24\n      : @1085 [@dyn 564] (gas: 2)\n 30808: a1 = i32 [0x20180]\n 30813: jump @1087 if a1 >u 31\n      : @1086 (gas: 3)\n 30817: u32 [0x20180] = 0x20\n 30823: a1 = 0x20190\n 30828: jump @1123\n      : @1087 (gas: 2)\n 30831: a1 = 0x20190\n 30836: jump @1123\n      : @1088 (gas: 9)\n 30839: u64 [s1 + 1520] = 0\n 30843: u64 [s1 + 1512] = 0\n 30847: u64 [s1 + 1504] = 0\n 30851: a0 = 0xf4d678b800000000\n 30861: a1 = s1 + 0x5e0\n 30865: u64 [s1 + 0x5f8] = a0\n 30869: a0 = 0\n 30871: ra = 0x46e\n 30875: jump @24\n      : @1089 (gas: 4)\n 30878: a1 = 0x20190\n 30883: i32 a1 = a1 + 0\n 30885: a0 = 0x1\n 30888: jump @1233\n      : @1090 (gas: 4)\n 30891: a1 = 0x20190\n 30896: i32 a1 = a1 + 0\n 30898: a0 = 0x1\n 30901: jump @1233\n      : @1091 (gas: 4)\n 30904: a1 = 0x20190\n 30909: i32 a1 = a1 + 0\n 30911: a0 = 0x1\n 30914: jump @1233\n      : @1092 (gas: 8)\n 30917: u64 [s1 + 1040] = 0\n 30921: u64 [s1 + 1032] = 0\n 30925: u64 [s1 + 1024] = 0\n 30929: a0 = 0x2c5211c600000000\n 30939: a1 = s1 + 0x400\n 30943: u64 [s1 + 0x418] = a0\n 30947: a0 = 0\n 30949: ra = 1130, jump @24\n      : @1093 [@dyn 565] (gas: 2)\n 30955: a1 = i32 [0x20180]\n 30960: jump @1095 if a1 >u 31\n      : @1094 (gas: 3)\n 30964: u32 [0x20180] = 0x20\n 30970: a1 = 0x20190\n 30975: jump @1123\n      : @1095 (gas: 2)\n 30978: a1 = 0x20190\n 30983: jump @1123\n      : @1096 (gas: 9)\n 30986: u64 [s1 + 1072] = 0\n 30990: u64 [s1 + 1064] = 0\n 30994: u64 [s1 + 1056] = 0\n 30998: a0 = 0xf4d678b800000000\n 31008: a1 = s1 + 0x420\n 31012: u64 [s1 + 0x438] = a0\n 31016: a0 = 0\n 31018: ra = 0x46e\n 31022: jump @24\n      : @1097 (gas: 4)\n 31025: a1 = 0x20190\n 31030: i32 a1 = a1 + 0\n 31032: a0 = 0x1\n 31035: jump @1233\n      : @1098 (gas: 9)\n 31038: a2 = s1 + 0x1118\n 31042: u64 [a2 + 440] = 0\n 31046: u64 [a2 + 432] = 0\n 31050: a0 = 0xd5b25b6300000000\n 31060: u64 [a2 + 0x1c0] = a0\n 31064: a1 = s1 + 0x12c0\n 31068: u64 [a2 + 424] = 0\n 31072: a0 = 0\n 31074: ra = 1132, jump @24\n      : @1099 [@dyn 566] (gas: 2)\n 31080: a1 = i32 [0x20180]\n 31085: jump @1101 if a1 >u 31\n      : @1100 (gas: 3)\n 31089: u32 [0x20180] = 0x20\n 31095: a1 = 0x20190\n 31100: jump @1123\n      : @1101 (gas: 2)\n 31103: a1 = 0x20190\n 31108: jump @1123\n      : @1102 (gas: 9)\n 31111: u64 [s1 + 1680] = 0\n 31115: u64 [s1 + 1672] = 0\n 31119: u64 [s1 + 1664] = 0\n 31123: a0 = 0x90b8ec1800000000\n 31133: a1 = s1 + 0x680\n 31137: u64 [s1 + 0x698] = a0\n 31141: a0 = 0\n 31143: ra = 0x46e\n 31147: jump @24\n      : @1103 (gas: 4)\n 31150: a1 = 0x20190\n 31155: i32 a1 = a1 + 0\n 31157: a0 = 0x1\n 31160: jump @1233\n      : @1104 (gas: 8)\n 31163: u64 [s1 + 1232] = 0\n 31167: u64 [s1 + 1224] = 0\n 31171: u64 [s1 + 1216] = 0\n 31175: a0 = 0x90b8ec1800000000\n 31185: a1 = s1 + 0x4c0\n 31189: u64 [s1 + 0x4d8] = a0\n 31193: a0 = 0\n 31195: ra = 1134, jump @24\n      : @1105 [@dyn 567] (gas: 3)\n 31201: a0 = u64 [s1 + 0x140]\n 31205: a0 = i32 [a0]\n 31207: jump @1107 if a0 >u 31\n      : @1106 (gas: 3)\n 31211: a1 = u64 [s1 + 0x140]\n 31215: u32 [a1 + 0] = 0x20\n 31218: fallthrough\n      : @1107 (gas: 5)\n 31219: a0 = 0x1\n 31222: a2 = 0x4\n 31225: a1 = u64 [s1 + 0x148]\n 31229: ecalli 13 // 'seal_return'\n 31231: fallthrough\n      : @1108 (gas: 4)\n 31232: a1 = 0x20190\n 31237: i32 a1 = a1 + 0\n 31239: a0 = 0x1\n 31242: jump @1233\n      : @1109 (gas: 4)\n 31245: a1 = 0x20190\n 31250: i32 a1 = a1 + 0\n 31252: a0 = 0x1\n 31255: jump @1233\n      : @1110 (gas: 4)\n 31258: a1 = 0x20190\n 31263: i32 a1 = a1 + 0\n 31265: a0 = 0x1\n 31268: jump @1233\n      : @1111 (gas: 4)\n 31271: a1 = 0x20190\n 31276: i32 a1 = a1 + 0\n 31278: a0 = 0x1\n 31281: jump @1233\n      : @1112 (gas: 4)\n 31284: a1 = 0x20190\n 31289: i32 a1 = a1 + 0\n 31291: a0 = 0x1\n 31294: jump @1233\n      : @1113 (gas: 3)\n 31297: t0 = 0x470\n 31301: a2 = s1 + 0x2918\n 31305: fallthrough\n      : @1114 [@dyn 568] (gas: 8)\n 31306: u64 [a2 + 344] = 0\n 31310: u64 [a2 + 336] = 0\n 31314: a0 = 0xbe29e9600000000\n 31324: u64 [a2 + 0x160] = a0\n 31328: a1 = s1 + 0x2a60\n 31332: u64 [a2 + 328] = 0\n 31336: a0 = 0\n 31338: ra = 1138, jump @24\n      : @1115 [@dyn 569] (gas: 2)\n 31344: a1 = i32 [0x20180]\n 31349: jump @1117 if a1 >u 31\n      : @1116 (gas: 3)\n 31353: u32 [0x20180] = 0x20\n 31359: a1 = 0x20190\n 31364: jump @1123\n      : @1117 (gas: 2)\n 31366: a1 = 0x20190\n 31371: jump @1123\n      : @1118 (gas: 3)\n 31373: t0 = 0x474\n 31377: a2 = s1 + 0x2918\n 31381: fallthrough\n      : @1119 [@dyn 570] (gas: 8)\n 31382: u64 [a2 + 376] = 0\n 31386: u64 [a2 + 368] = 0\n 31390: a0 = 0xcc67c13b00000000\n 31400: u64 [a2 + 0x180] = a0\n 31404: a1 = s1 + 0x2a80\n 31408: u64 [a2 + 360] = 0\n 31412: a0 = 0\n 31414: ra = 1142, jump @24\n      : @1120 [@dyn 571] (gas: 2)\n 31420: a1 = i32 [0x20180]\n 31425: jump @1122 if a1 >u 31\n      : @1121 (gas: 3)\n 31429: u32 [0x20180] = 0x20\n 31435: a1 = 0x20190\n 31440: jump @1123\n      : @1122 (gas: 2)\n 31442: a1 = 0x20190\n 31447: fallthrough\n      : @1123 (gas: 5)\n 31448: i32 a1 = a1 + 0\n 31450: a0 = 0x1\n 31453: a2 = 0x4\n 31456: ecalli 13 // 'seal_return'\n 31458: fallthrough\n      : @1124 (gas: 4)\n 31459: a1 = 0x20190\n 31464: i32 a1 = a1 + 0\n 31466: a0 = 0x1\n 31469: jump @1233\n      : @1125 (gas: 4)\n 31472: a1 = 0x20190\n 31477: i32 a1 = a1 + 0\n 31479: a0 = 0x1\n 31482: jump @1233\n      : @1126 (gas: 4)\n 31485: a1 = 0x20190\n 31490: i32 a1 = a1 + 0\n 31492: a0 = 0x1\n 31495: jump @1233\n      : @1127 (gas: 1)\n 31498: jump @1134 if a0 != 2618616686\n      : @1128 (gas: 12)\n 31505: a0 = s1 + 0x3918\n 31509: u64 [a0 + 288] = 0\n 31513: u64 [a0 + 280] = 0\n 31517: u64 [a0 + 272] = 0\n 31521: u64 [a0 + 264] = 0\n 31525: a0 = s1 + 0x4000\n 31529: i32 a0 = a0 + 0xfffffffffffffa20\n 31533: ra = 0x478\n 31537: ecalli 16 // 'value_transferred'\n 31539: a0 = 0x4000\n 31543: t0 = 0x47a\n 31547: jump @1872\n      : @1129 [@dyn 572] (gas: 2)\n 31550: a0 = 0x4000\n 31554: t0 = 1146, jump @1872\n      : @1130 [@dyn 573] (gas: 8)\n 31560: a0 = u64 [a4 + 0x18]\n 31563: a1 = u64 [a4 + 0x20]\n 31566: a2 = u64 [a4 + 0x10]\n 31569: a3 = u64 [a4 + 0x8]\n 31572: a1 = a1 | a2\n 31575: a0 = a0 | a3\n 31578: a0 = a0 | a1\n 31581: jump @1154 if a0 == 0\n      : @1131 (gas: 4)\n 31585: a1 = 0x20190\n 31590: i32 a1 = a1 + 0\n 31592: a0 = 0x1\n 31595: jump @1233\n      : @1132 (gas: 4)\n 31598: a1 = 0x20190\n 31603: i32 a1 = a1 + 0\n 31605: a0 = 0x1\n 31608: jump @1233\n      : @1133 (gas: 4)\n 31611: a1 = 0x20190\n 31616: i32 a1 = a1 + 0\n 31618: a0 = 0x1\n 31621: jump @1233\n      : @1134 (gas: 1)\n 31624: jump @1156 if a0 != 2685688103\n      : @1135 (gas: 12)\n 31632: a0 = s1 + 0x3918\n 31636: u64 [a0 + 320] = 0\n 31640: u64 [a0 + 312] = 0\n 31644: u64 [a0 + 304] = 0\n 31648: u64 [a0 + 296] = 0\n 31652: a0 = s1 + 0x4000\n 31656: i32 a0 = a0 + 0xfffffffffffffa40\n 31660: ra = 0x47c\n 31664: ecalli 16 // 'value_transferred'\n 31666: a0 = 0x4000\n 31670: t0 = 0x47e\n 31674: jump @1872\n      : @1136 [@dyn 574] (gas: 2)\n 31677: a0 = 0x4000\n 31681: t0 = 1150, jump @1872\n      : @1137 [@dyn 575] (gas: 1)\n 31687: t0 = 1152, jump @1843\n      : @1138 [@dyn 576] (gas: 1)\n 31693: jump @1162 if a0 == 0\n      : @1139 (gas: 4)\n 31697: a1 = 0x20190\n 31702: i32 a1 = a1 + 0\n 31704: a0 = 0x1\n 31707: jump @1233\n      : @1140 (gas: 2)\n 31710: u64 [s1 + 344] = 0\n 31714: fallthrough\n      : @1141 (gas: 5)\n 31715: a0 = u64 [s1 + 0x168]\n 31719: a0 = a0 << 0x1\n 31722: a4 = u64 [s1 + 0x158]\n 31726: a4 = a4 | a0\n 31729: fallthrough\n      : @1142 (gas: 7)\n 31730: u64 [s1 + 984] = 0\n 31734: u64 [s1 + 976] = 0\n 31738: u64 [s1 + 968] = 0\n 31742: a1 = s1 + 0x3c0\n 31746: u64 [s1 + 0x3c0] = a4\n 31750: a0 = u64 [s1 + 0x118]\n 31754: ra = 1154, jump @24\n      : @1143 [@dyn 577] (gas: 3)\n 31760: a1 = 0x20\n 31763: a0 = u64 [s1 + 0x118]\n 31767: ra = 1156, jump @37\n      : @1144 [@dyn 578] (gas: 5)\n 31773: i32 a1 = a0 + 0\n 31775: a2 = 0x20\n 31778: a0 = 0\n 31780: ecalli 13 // 'seal_return'\n 31782: jump @1146\n      : @1145 (gas: 4)\n 31784: a2 = 0x20\n 31787: a0 = 0\n 31789: ecalli 13 // 'seal_return'\n 31791: fallthrough\n      : @1146 (gas: 6)\n 31792: u64 [a2 + 440] = 0\n 31796: u64 [a2 + 432] = 0\n 31800: u64 [a2 + 424] = 0\n 31804: t0 = 0x486\n 31808: a0 = 0x4e487b7100000000\n 31818: fallthrough\n      : @1147 [@dyn 579] (gas: 4)\n 31819: a1 = s1 + 0x2ac0\n 31823: u64 [a2 + 0x1c0] = a0\n 31827: a0 = 0\n 31829: ra = 1160, jump @24\n      : @1148 [@dyn 580] (gas: 3)\n 31835: t0 = 0x48a\n 31839: a1 = s1 + 0x2918\n 31843: fallthrough\n      : @1149 [@dyn 581] (gas: 8)\n 31844: u64 [a1 + 416] = 0\n 31848: u64 [a1 + 408] = 0\n 31852: u64 [a1 + 392] = 0x41\n 31857: a2 = a1\n 31859: a0 = 0x4\n 31862: a1 = s1 + 0x2aa0\n 31866: u64 [a2 + 400] = 0\n 31870: ra = 1164, jump @24\n      : @1150 [@dyn 582] (gas: 3)\n 31876: a0 = u64 [s1 + 0xa8]\n 31880: a0 = i32 [a0]\n 31882: jump @1152 if a0 >u 63\n      : @1151 (gas: 3)\n 31886: a1 = u64 [s1 + 0xa8]\n 31890: u32 [a1 + 0] = 0x40\n 31893: fallthrough\n      : @1152 (gas: 5)\n 31894: a0 = 0x1\n 31897: a2 = 0x24\n 31900: a1 = u64 [s1 + 0xa0]\n 31904: ecalli 13 // 'seal_return'\n 31906: fallthrough\n      : @1153 (gas: 17)\n 31907: a3 = a4\n 31909: a0 = s1 + 0x2918\n 31913: a1 = u64 [s1 + 0xf0]\n 31917: a2 = a0 + 0x100\n 31921: u64 [a2 + 0xe8] = a1\n 31925: a1 = u64 [s1 + 0xf8]\n 31929: u64 [a2 + 0xf0] = a1\n 31933: a5 = s1 + 0x100\n 31937: a1 = u64 [a5]\n 31939: u64 [a2 + 0xf8] = a1\n 31943: a1 = s1 + 0x2b00\n 31947: a2 = u64 [a5 + 0x8]\n 31950: u64 [a0 + 0x200] = a2\n 31954: a0 = a4\n 31956: u64 [a5 + 0x98] = a3\n 31960: ra = 0x1d8\n 31964: jump @24\n      : @1154 (gas: 3)\n 31967: a0 = u64 [s1 + 0x198]\n 31971: a0 = i32 [a0]\n 31973: jump @1164 if a0 >u 99\n      : @1155 (gas: 4)\n 31978: a1 = 0x20190\n 31983: i32 a1 = a1 + 0\n 31985: a0 = 0x1\n 31988: jump @1233\n      : @1156 (gas: 1)\n 31991: jump @1169 if a0 != 3058722618\n      : @1157 (gas: 12)\n 31999: a0 = s1 + 0x3918\n 32003: u64 [a0 + 448] = 0\n 32007: u64 [a0 + 440] = 0\n 32011: u64 [a0 + 432] = 0\n 32015: u64 [a0 + 424] = 0\n 32019: a0 = s1 + 0x4000\n 32023: i32 a0 = a0 + 0xfffffffffffffac0\n 32027: ra = 0x48e\n 32031: ecalli 16 // 'value_transferred'\n 32033: a0 = 0x4000\n 32037: t0 = 0x490\n 32041: jump @1872\n      : @1158 [@dyn 583] (gas: 2)\n 32044: a0 = 0x4000\n 32048: t0 = 1168, jump @1872\n      : @1159 [@dyn 584] (gas: 1)\n 32054: t0 = 1170, jump @1869\n      : @1160 [@dyn 585] (gas: 1)\n 32060: jump @1173 if a0 == 0\n      : @1161 (gas: 4)\n 32064: a1 = 0x20190\n 32069: i32 a1 = a1 + 0\n 32071: a0 = 0x1\n 32074: jump @1233\n      : @1162 (gas: 3)\n 32077: a0 = u64 [s1 + 0x198]\n 32081: a0 = i32 [a0]\n 32083: jump @1176 if a0 >u 67\n      : @1163 (gas: 4)\n 32088: a1 = 0x20190\n 32093: i32 a1 = a1 + 0\n 32095: a0 = 0x1\n 32098: jump @1233\n      : @1164 (gas: 4)\n 32101: a0 = s1 + 0x2400\n 32105: ra = 0x494\n 32109: t0 = 0x63c\n 32113: jump @1863\n      : @1165 [@dyn 586] (gas: 14)\n 32116: a1 = s1 + 0x2118\n 32120: a2 = a1 + 0x200\n 32124: a0 = u64 [a2 + 0xe8]\n 32128: u64 [s1 + 0x198] = a0\n 32132: a0 = u64 [a2 + 0xf0]\n 32136: u64 [s1 + 0x190] = a0\n 32140: a0 = u64 [a2 + 0xf8]\n 32144: u64 [s1 + 0x188] = a0\n 32148: a0 = u64 [a1 + 0x300]\n 32152: u64 [s1 + 0x180] = a0\n 32156: a0 = s1 + 0x23e0\n 32160: ra = 0x496\n 32164: t0 = 0x640\n 32168: jump @1875\n      : @1166 [@dyn 587] (gas: 14)\n 32171: a1 = s1 + 0x2118\n 32175: a2 = a1 + 0x200\n 32179: a0 = u64 [a2 + 0xc8]\n 32183: u64 [s1 + 0x178] = a0\n 32187: a0 = u64 [a2 + 0xd0]\n 32191: u64 [s1 + 0x170] = a0\n 32195: a0 = u64 [a2 + 0xd8]\n 32199: u64 [s1 + 0x168] = a0\n 32203: a0 = u64 [a2 + 0xe0]\n 32207: u64 [s1 + 0x160] = a0\n 32211: a0 = s1 + 0x23c0\n 32215: ra = 0x498\n 32219: t0 = 0x646\n 32223: jump @1875\n      : @1167 [@dyn 588] (gas: 31)\n 32226: a4 = s1 + 0x2118\n 32230: a5 = a4 + 0x200\n 32234: a0 = u64 [a5 + 0xa8]\n 32238: a1 = u64 [a5 + 0xb0]\n 32242: a2 = u64 [a5 + 0xb8]\n 32246: a3 = u64 [a5 + 0xc0]\n 32250: u64 [a5 + 0x60] = a3\n 32253: u64 [a5 + 0x58] = a2\n 32256: u64 [a5 + 0x50] = a1\n 32259: u64 [a5 + 0x48] = a0\n 32262: a4 = s1 + 0x100\n 32266: a0 = u64 [a4 + 0x60]\n 32269: u64 [a5 + 0x80] = a0\n 32273: a0 = u64 [a4 + 0x68]\n 32276: u64 [a5 + 0x78] = a0\n 32279: a0 = u64 [a4 + 0x70]\n 32282: u64 [a5 + 0x70] = a0\n 32285: a0 = u64 [a4 + 0x78]\n 32288: u64 [a5 + 0x68] = a0\n 32291: a0 = u64 [a4 + 0x80]\n 32295: u64 [a5 + 0xa0] = a0\n 32299: a0 = u64 [a4 + 0x88]\n 32303: u64 [a5 + 0x98] = a0\n 32307: a0 = u64 [a4 + 0x90]\n 32311: u64 [a5 + 0x90] = a0\n 32315: a0 = s1 + 0x23a0\n 32319: a1 = s1 + 0x2380\n 32323: a2 = s1 + 0x2360\n 32327: a3 = u64 [a4 + 0x98]\n 32331: u64 [a5 + 0x88] = a3\n 32335: ra = 1178, jump @1668\n      : @1168 [@dyn 589] (gas: 8)\n 32341: a1 = 0x20190\n 32346: i32 a1 = a1 + 0\n 32348: a0 = 0\n 32350: a2 = 0\n 32352: ra = 0x4ee\n 32356: ecalli 13 // 'seal_return'\n 32358: t0 = 0x4f0\n 32362: jump @1842\n      : @1169 (gas: 1)\n 32365: jump @1227 if a0 != 235423050\n      : @1170 (gas: 10)\n 32373: a0 = s1 + 0x3118\n 32377: u64 [a0 + 768] = 0\n 32381: u64 [a0 + 760] = 0\n 32385: u64 [a0 + 752] = 0\n 32389: u64 [a0 + 744] = 0\n 32393: a0 = s1 + 0x3000\n 32397: i32 a0 = a0 + 0x400\n 32401: ra = 0x49c\n 32405: ecalli 16 // 'value_transferred'\n 32407: fallthrough\n      : @1171 [@dyn 590] (gas: 10)\n 32408: a3 = s1 + 0x3118\n 32412: a4 = a3 + 0x200\n 32416: a0 = u64 [a4 + 0xf8]\n 32420: a1 = u64 [a3 + 0x300]\n 32424: a2 = u64 [a4 + 0xf0]\n 32428: a3 = u64 [a4 + 0xe8]\n 32432: a1 = a1 | a2\n 32435: a0 = a0 | a3\n 32438: a0 = a0 | a1\n 32441: jump @1234 if a0 == 0\n      : @1172 (gas: 4)\n 32445: a1 = 0x20190\n 32450: i32 a1 = a1 + 0\n 32452: a0 = 0x1\n 32455: jump @1233\n      : @1173 (gas: 1)\n 32458: t0 = 1182, jump @1842\n      : @1174 [@dyn 591] (gas: 1)\n 32464: jump @1237 if a1 <u a0\n      : @1175 (gas: 4)\n 32468: a1 = 0x20190\n 32473: i32 a1 = a1 + 0\n 32475: a0 = 0x1\n 32478: jump @1233\n      : @1176 (gas: 4)\n 32481: a0 = s1 + 0x2780\n 32485: ra = 0x4a0\n 32489: t0 = 0x650\n 32493: jump @1863\n      : @1177 [@dyn 592] (gas: 7)\n 32496: a0 = s1 + 0x2118\n 32500: a0 = u64 [a0 + 0x668]\n 32504: u64 [s1 + 0x190] = a0\n 32508: a0 = s1 + 0x2760\n 32512: ra = 0x4a2\n 32516: t0 = 0x640\n 32520: jump @1875\n      : @1178 [@dyn 593] (gas: 12)\n 32523: a0 = s1 + 0x2118\n 32527: a0 = u64 [a0 + 0x648]\n 32531: u64 [s1 + 0xf0] = a0\n 32535: a0 = 0x30190\n 32540: u64 [s1 + 0x108] = a0\n 32544: i32 a0 = a0 + 0\n 32546: u64 [s1 + 0x100] = a0\n 32550: ra = 0x4a4\n 32554: ecalli 4 // 'caller'\n 32556: a2 = u64 [s1 + 0x108]\n 32560: t0 = 0x4a6\n 32564: jump @1787\n      : @1179 [@dyn 594] (gas: 2)\n 32567: a2 = u64 [s1 + 0x108]\n 32571: t0 = 1190, jump @1787\n      : @1180 [@dyn 595] (gas: 8)\n 32577: u64 [a2 + 1600] = 0\n 32581: a4 = a2 + 0x600\n 32585: u64 [a4 + 0x38] = a1\n 32588: u64 [a4 + 0x30] = a0\n 32591: a1 = s1 + 0x2740\n 32595: u64 [a4 + 0x28] = a3\n 32598: a0 = 0\n 32600: ra = 1192, jump @24\n      : @1181 [@dyn 596] (gas: 3)\n 32606: t0 = 0x4aa\n 32610: a1 = s1 + 0x2118\n 32614: fallthrough\n      : @1182 [@dyn 597] (gas: 8)\n 32615: u64 [a1 + 1568] = 0\n 32619: u64 [a1 + 1560] = 0\n 32623: u64 [a1 + 1544] = 0x2\n 32628: a2 = a1\n 32630: a0 = 0x20\n 32633: a1 = s1 + 0x2720\n 32637: u64 [a2 + 1552] = 0\n 32641: ra = 1196, jump @24\n      : @1183 [@dyn 598] (gas: 5)\n 32647: a0 = 0x20180\n 32652: u64 [s1 + 0x118] = a0\n 32656: a0 = i32 [0x20180]\n 32661: a1 = 0x3f\n 32664: jump @1185 if a1 <u a0\n      : @1184 (gas: 4)\n 32667: a1 = u64 [s1 + 0x118]\n 32671: u32 [a1 + 0] = 0x40\n 32674: t0 = 0x4ae\n 32678: jump @1819\n      : @1185 (gas: 1)\n 32681: t0 = 1198, jump @1819\n      : @1186 [@dyn 599] (gas: 10)\n 32687: a0 = 0x20190\n 32692: i32 a0 = a0 + 0\n 32694: i32 a2 = a2 + 0\n 32696: a1 = 0x40\n 32699: u64 [s1 + 0x110] = a0\n 32703: ra = 0x4b0\n 32707: ecalli 8 // 'hash_keccak_256'\n 32709: a3 = u64 [s1 + 0x198]\n 32713: t0 = 0x4b2\n 32717: jump @1810\n      : @1187 [@dyn 600] (gas: 2)\n 32720: a3 = u64 [s1 + 0x198]\n 32724: t0 = 1202, jump @1810\n      : @1188 [@dyn 601] (gas: 14)\n 32730: u64 [s1 + 0x198] = a0\n 32734: sp = a0\n 32736: a0 = u64 [s1 + 0x190]\n 32740: a0 = a0 << 0x20\n 32743: a2 = a0 >> 0x20\n 32746: a0 = s1 + 0x2118\n 32750: u64 [a0 + 1536] = 0\n 32754: u64 [a0 + 1528] = 0\n 32758: u64 [a0 + 1520] = 0\n 32762: a1 = s1 + 0x2700\n 32766: u64 [s1 + 0xf8] = a2\n 32770: u64 [a0 + 0x5e8] = a2\n 32774: a0 = 0\n 32776: ra = 1204, jump @24\n      : @1189 [@dyn 602] (gas: 14)\n 32782: a0 = u64 [s1 + 0x170]\n 32786: a1 = s1 + 0x2118\n 32790: a2 = a1 + 0x500\n 32794: u64 [a2 + 0xe0] = a0\n 32798: a0 = u64 [s1 + 0x178]\n 32802: u64 [a2 + 0xd8] = a0\n 32806: a0 = u64 [s1 + 0x180]\n 32810: u64 [a2 + 0xd0] = a0\n 32814: a3 = a1\n 32816: a0 = 0x20\n 32819: a1 = s1 + 0x26e0\n 32823: a2 = u64 [s1 + 0x188]\n 32827: u64 [a3 + 0x5c8] = a2\n 32831: ra = 1206, jump @24\n      : @1190 [@dyn 603] (gas: 3)\n 32837: a0 = u64 [s1 + 0x118]\n 32841: a0 = i32 [a0]\n 32843: jump @1192 if a0 >u 63\n      : @1191 (gas: 4)\n 32847: a0 = u64 [s1 + 0x118]\n 32851: u32 [a0 + 0] = 0x40\n 32854: t0 = 0x4b8\n 32858: jump @1801\n      : @1192 (gas: 1)\n 32861: t0 = 1208, jump @1801\n      : @1193 [@dyn 604] (gas: 5)\n 32867: ra = 0x4ba\n 32871: ecalli 8 // 'hash_keccak_256'\n 32873: a3 = u64 [s1 + 0x190]\n 32877: t0 = 0x4bc\n 32881: jump @1825\n      : @1194 [@dyn 605] (gas: 2)\n 32884: a3 = u64 [s1 + 0x190]\n 32888: t0 = 1212, jump @1825\n      : @1195 [@dyn 606] (gas: 6)\n 32894: a0 = u64 [s1 + 0x100]\n 32898: ra = 0x4be\n 32902: ecalli 4 // 'caller'\n 32904: a2 = u64 [s1 + 0x108]\n 32908: t0 = 0x4c0\n 32912: jump @1859\n      : @1196 [@dyn 607] (gas: 2)\n 32915: a2 = u64 [s1 + 0x108]\n 32919: t0 = 1216, jump @1859\n      : @1197 [@dyn 608] (gas: 10)\n 32925: u64 [s1 + 0x190] = a1\n 32929: a0 = a0 >> 0x20\n 32932: a1 = reverse a2\n 32934: u64 [s1 + 0x188] = a1\n 32938: a1 = a1 << 0x20\n 32941: a0 = a0 | a1\n 32944: u64 [s1 + 0x180] = a0\n 32948: a0 = s1 + 0x26c0\n 32952: a1 = u64 [s1 + 0x198]\n 32956: ra = 1218, jump @26\n      : @1198 [@dyn 609] (gas: 2)\n 32962: a2 = s1 + 0x2118\n 32966: fallthrough\n      : @1199 (gas: 19)\n 32967: a0 = u64 [a2 + 0x5b0]\n 32971: a1 = u32 [a2 + 0x5ac]\n 32975: a2 = u64 [a2 + 0x5b8]\n 32979: a3 = a0 << 0x20\n 32982: a1 = a1 | a3\n 32985: a3 = a2 << 0x20\n 32988: a0 = a0 >> 0x20\n 32991: a0 = a0 | a3\n 32994: a4 = s1 + 0x100\n 32998: a3 = u64 [a4 + 0x80]\n 33002: a0 = a0 ^ a3\n 33005: a3 = u64 [a4 + 0x90]\n 33009: a1 = a1 ^ a3\n 33012: a3 = u64 [a4 + 0x88]\n 33016: a2 = a2 ^ a3\n 33019: a2 = a2 >> 0x20\n 33022: a1 = a1 | a2\n 33025: a0 = a0 | a1\n 33028: jump @1277 if a0 != 0\n      : @1200 (gas: 4)\n 33032: a0 = s1 + 0x4000\n 33036: i32 a0 = a0 + 0xfffffffffffffa60\n 33040: ecalli 9 // 'now'\n 33042: fallthrough\n      : @1201 (gas: 51)\n 33043: a0 = s1 + 0x3918\n 33047: t0 = u64 [a0 + 0x160]\n 33051: a4 = u64 [a0 + 0x158]\n 33055: u64 [s1 + 0x158] = a4\n 33059: t2 = u64 [a0 + 0x150]\n 33063: a3 = u64 [a0 + 0x148]\n 33067: u64 [s1 + 0x140] = a3\n 33071: a0 = clz t0\n 33073: a1 = clz a4\n 33075: a2 = a1 + 0x40\n 33078: a2 = a0 if t0 != 0\n 33081: a0 = clz t2\n 33083: a1 = clz a3\n 33085: a1 = a1 + 0x40\n 33088: a1 = a0 if t2 != 0\n 33091: a0 = a1 + 0x80\n 33095: a3 = a4 | t0\n 33098: a2 = a0 if a3 == 0\n 33101: a5 = a0 <u a1\n 33104: a5 = 0 if a3 != 0\n 33106: a4 = a5 >u 0\n 33108: a0 = a2 <u 0xf0\n 33112: a3 = a0 ^ 0x1\n 33115: a4 = a3 if a5 == 0\n 33118: a0 = a4 <u 0x1\n 33121: ra = a0 + 0xffffffffffffffff\n 33124: t1 = -a4\n 33126: a5 = -a5\n 33128: a3 = a5 - a3\n 33131: a2 = 0xef - a2\n 33135: a5 = t1 >u 0\n 33137: a0 = ra >u 0\n 33139: a0 = a5 if ra == 0\n 33142: a5 = a2 <u 0x100\n 33146: a5 = a5 ^ 0x1\n 33149: a1 = a3 >u 0\n 33151: a5 = a1 if a3 != 0\n 33154: a5 = a0 if a4 != 0\n 33157: u64 [s1 + 0x138] = t2\n 33161: u64 [s1 + 0x150] = t0\n 33165: a0 = t2 | t0\n 33168: a4 = u64 [s1 + 0x140]\n 33172: a1 = u64 [s1 + 0x158]\n 33176: a1 = a1 | a4\n 33179: a0 = a0 | a1\n 33182: a0 = a0 <u 0x1\n 33185: a0 = a0 | a5\n 33188: a1 = a4\n 33190: a1 = 0 if a0 != 0\n 33192: u64 [s1 + 0x198] = a1\n 33196: jump @1281 if a0 != 0\n      : @1202 (gas: 5)\n 33200: a0 = a2 ^ 0xff\n 33204: a0 = a0 | t1\n 33207: a1 = a3 | ra\n 33210: a0 = a0 | a1\n 33213: jump @1281 if a0 == 0\n      : @1203 (gas: 1)\n 33217: t0 = 1220, jump @1803\n      : @1204 [@dyn 610] (gas: 1)\n 33223: ra = 1222, jump @1877\n      : @1205 [@dyn 611] (gas: 1)\n 33229: t0 = 1224, jump @1866\n      : @1206 [@dyn 612] (gas: 1)\n 33235: ra = 1226, jump @1882\n      : @1207 [@dyn 613] (gas: 1)\n 33241: t0 = 1228, jump @1853\n      : @1208 [@dyn 614] (gas: 1)\n 33247: ra = 1230, jump @1882\n      : @1209 [@dyn 615] (gas: 8)\n 33253: u64 [s1 + 0x120] = a0\n 33257: u64 [s1 + 0xe8] = a1\n 33261: a2 = u64 [s1 + 0x160]\n 33265: a0 = a2 <u 0x80\n 33269: u64 [s1 + 0xe0] = a0\n 33273: a0 = u64 [s1 + 0x140]\n 33277: a1 = u64 [s1 + 0x138]\n 33281: ra = 1232, jump @1882\n      : @1210 [@dyn 616] (gas: 1)\n 33287: t0 = 1234, jump @1876\n      : @1211 [@dyn 617] (gas: 4)\n 33293: a3 = u64 [s1 + 0xe0]\n 33297: a0 = 0 if a3 == 0\n 33299: u64 [a4 + 0x78] = a0\n 33302: jump @1279 if a1 == 0\n      : @1212 (gas: 7)\n 33306: a2 = a3\n 33308: a0 = u64 [s1 + 0x168]\n 33312: a1 = u64 [s1 + 0x128]\n 33316: a0 = a0 | a1\n 33319: a5 = a3\n 33321: a1 = u64 [s1 + 0xe8]\n 33325: t0 = 1236, jump @1796\n      : @1213 [@dyn 618] (gas: 1)\n 33331: ra = 1238, jump @1877\n      : @1214 [@dyn 619] (gas: 1)\n 33337: t0 = 1240, jump @1865\n      : @1215 [@dyn 620] (gas: 1)\n 33343: ra = 1242, jump @1877\n      : @1216 [@dyn 621] (gas: 2)\n 33349: u64 [s1 + 0xe8] = a0\n 33353: t0 = 1244, jump @1857\n      : @1217 [@dyn 622] (gas: 1)\n 33359: ra = 1246, jump @1882\n      : @1218 [@dyn 623] (gas: 1)\n 33365: t0 = 1248, jump @1824\n      : @1219 [@dyn 624] (gas: 2)\n 33371: a1 = u64 [s1 + 0xe8]\n 33375: t0 = 1250, jump @1837\n      : @1220 [@dyn 625] (gas: 1)\n 33381: ra = 1252, jump @1877\n      : @1221 [@dyn 626] (gas: 1)\n 33387: t0 = 1254, jump @1807\n      : @1222 [@dyn 627] (gas: 1)\n 33393: t0 = 1256, jump @1820\n      : @1223 [@dyn 628] (gas: 5)\n 33399: t0 = ra <u a2\n 33402: a4 = u64 [s1 + 0x128]\n 33406: a5 = a4 <u a3\n 33409: a5 = t0 if t1 != 0\n 33412: t0 = 1258, jump @1821\n      : @1224 [@dyn 629] (gas: 20)\n 33418: t0 = a0 | a1\n 33421: a1 = a4 << 0x1\n 33424: a4 = u64 [s1 + 0x170]\n 33428: t1 = a4 >> 0x3f\n 33431: t1 = a1 | t1\n 33434: a1 = a4 << 0x1\n 33437: a4 = u64 [s1 + 0x178]\n 33441: t2 = a4 >> 0x3f\n 33444: a1 = a1 | t2\n 33447: a4 = a4 << 0x1\n 33450: a0 = u64 [s1 + 0x158]\n 33454: a4 = a4 | a0\n 33457: u64 [s1 + 0x178] = a4\n 33461: a0 = u64 [s1 + 0x150]\n 33465: a1 = a1 | a0\n 33468: u64 [s1 + 0x170] = a1\n 33472: a1 = a0 | t1\n 33475: u64 [s1 + 0x160] = a1\n 33479: a0 = a0 | t0\n 33482: t0 = 1260, jump @1794\n      : @1225 [@dyn 630] (gas: 18)\n 33488: t0 = a4 <u a2\n 33491: a2 = a4 - a2\n 33494: a4 = a3 <u 0x1\n 33497: a5 = a5 - a4\n 33500: a4 = u64 [a0 + 0x88]\n 33504: a4 = a4 - t0\n 33507: a3 = a3 + 0xffffffffffffffff\n 33510: u64 [a0 + 0x90] = a5\n 33514: u64 [a0 + 0x88] = a4\n 33518: t0 = a5 | a4\n 33521: u64 [a0 + 0x98] = a3\n 33525: a4 = a3 | a2\n 33528: a3 = a4 | t0\n 33531: a4 = ra & 0x1\n 33534: u64 [a0 + 0x58] = a4\n 33537: u64 [a0 + 0x80] = a2\n 33541: u64 [s1 + 336] = 0\n 33545: jump @1222 if a3 != 0\n      : @1226 (gas: 1)\n 33549: jump @1280\n      : @1227 (gas: 2)\n 33552: a2 = s1 + 0x3118\n 33556: jump @1231 if a0 != 1158823118\n      : @1228 (gas: 8)\n 33563: u64 [a2 + 1536] = 0\n 33567: u64 [a2 + 1528] = 0\n 33571: u64 [a2 + 1520] = 0\n 33575: u64 [a2 + 1512] = 0\n 33579: a0 = s1 + 0x3000\n 33583: i32 a0 = a0 + 0x700\n 33587: ecalli 16 // 'value_transferred'\n 33589: fallthrough\n      : @1229 (gas: 10)\n 33590: a3 = s1 + 0x3118\n 33594: a4 = a3 + 0x500\n 33598: a0 = u64 [a4 + 0xf8]\n 33602: a1 = u64 [a3 + 0x600]\n 33606: a2 = u64 [a4 + 0xf0]\n 33610: a3 = u64 [a4 + 0xe8]\n 33614: a1 = a1 | a2\n 33617: a0 = a0 | a3\n 33620: a0 = a0 | a1\n 33623: jump @1303 if a0 == 0\n      : @1230 (gas: 4)\n 33627: a1 = 0x20190\n 33632: i32 a1 = a1 + 0\n 33634: a0 = 0x1\n 33637: jump @1233\n      : @1231 (gas: 4)\n 33639: a1 = 0x20190\n 33644: i32 a1 = a1 + 0\n 33646: a0 = 0x1\n 33649: jump @1233\n      : @1232 (gas: 7)\n 33651: i32 a1 = a1 + 0\n 33653: a0 = 0x1\n 33656: a2 = 0\n 33658: ra = 0x4ee\n 33662: ecalli 13 // 'seal_return'\n 33664: t0 = 0x4f0\n 33668: jump @1842\n      : @1233 (gas: 5)\n 33671: a2 = 0\n 33673: ra = 0x4ee\n 33677: ecalli 13 // 'seal_return'\n 33679: t0 = 0x4f0\n 33683: jump @1842\n      : @1234 [@dyn 631] (gas: 1)\n 33686: t0 = 1264, jump @1842\n      : @1235 [@dyn 632] (gas: 1)\n 33692: jump @1305 if a1 <u a0\n      : @1236 (gas: 2)\n 33696: a1 = 0x20190\n 33701: jump @1232\n      : @1237 (gas: 4)\n 33703: a0 = s1 + 0x2a40\n 33707: ra = 0x4f2\n 33711: t0 = 0x650\n 33715: jump @1863\n      : @1238 [@dyn 633] (gas: 12)\n 33718: a0 = s1 + 0x2918\n 33722: a0 = u64 [a0 + 0x128]\n 33726: u64 [s1 + 0x170] = a0\n 33730: a0 = 0x30190\n 33735: u64 [s1 + 0x188] = a0\n 33739: i32 a0 = a0 + 0\n 33741: u64 [s1 + 0x180] = a0\n 33745: ra = 0x4f4\n 33749: ecalli 4 // 'caller'\n 33751: a2 = u64 [s1 + 0x188]\n 33755: t0 = 0x4f6\n 33759: jump @1790\n      : @1239 [@dyn 634] (gas: 2)\n 33762: a2 = u64 [s1 + 0x188]\n 33766: t0 = 1270, jump @1790\n      : @1240 [@dyn 635] (gas: 8)\n 33772: u64 [a2 + 288] = 0\n 33776: a4 = a2 + 0x100\n 33780: u64 [a4 + 0x18] = a1\n 33783: u64 [a4 + 0x10] = a0\n 33786: a1 = s1 + 0x2a20\n 33790: u64 [a4 + 0x8] = a3\n 33793: a0 = 0\n 33795: ra = 1272, jump @24\n      : @1241 [@dyn 636] (gas: 3)\n 33802: t0 = 0x4fa\n 33806: a1 = s1 + 0x2918\n 33810: fallthrough\n      : @1242 [@dyn 637] (gas: 8)\n 33811: u64 [a1 + 256] = 0\n 33815: u64 [a1 + 248] = 0\n 33819: u64 [a1 + 232] = 0x2\n 33824: a2 = a1\n 33826: a0 = 0x20\n 33829: a1 = s1 + 0x2a00\n 33833: u64 [a2 + 240] = 0\n 33837: ra = 1276, jump @24\n      : @1243 [@dyn 638] (gas: 4)\n 33844: a0 = 0x20180\n 33849: u64 [s1 + 0x198] = a0\n 33853: a0 = i32 [0x20180]\n 33858: jump @1245 if a0 >u 63\n      : @1244 (gas: 3)\n 33862: a1 = u64 [s1 + 0x198]\n 33866: u32 [a1 + 0] = 0x40\n 33869: fallthrough\n      : @1245 (gas: 14)\n 33870: a0 = sp + 0xffffffffffffffe0\n 33873: a2 = a0 & 0xffffffffffffffe0\n 33876: u64 [s1 + 0x178] = a2\n 33880: sp = a2\n 33882: a0 = 0x20190\n 33887: i32 a0 = a0 + 0\n 33889: i32 a2 = a2 + 0\n 33891: a1 = 0x40\n 33894: u64 [s1 + 0x190] = a0\n 33898: ra = 0x4fe\n 33902: ecalli 8 // 'hash_keccak_256'\n 33904: a3 = u64 [s1 + 0x178]\n 33908: t0 = 0x500\n 33912: jump @1791\n      : @1246 [@dyn 639] (gas: 2)\n 33915: a3 = u64 [s1 + 0x178]\n 33919: t0 = 1280, jump @1791\n      : @1247 [@dyn 640] (gas: 16)\n 33925: a0 = sp + 0xffffffffffffffe0\n 33928: a0 = a0 & 0xffffffffffffffe0\n 33931: u64 [s1 + 0x178] = a0\n 33935: sp = a0\n 33937: a0 = u64 [s1 + 0x170]\n 33941: a0 = a0 << 0x20\n 33944: a2 = a0 >> 0x20\n 33947: a0 = s1 + 0x2918\n 33951: u64 [a0 + 224] = 0\n 33955: u64 [a0 + 216] = 0\n 33959: u64 [a0 + 208] = 0\n 33963: a1 = s1 + 0x29e0\n 33967: u64 [s1 + 0x170] = a2\n 33971: u64 [a0 + 0xc8] = a2\n 33975: a0 = 0\n 33977: ra = 1282, jump @24\n      : @1248 [@dyn 641] (gas: 13)\n 33984: a0 = u64 [s1 + 0x150]\n 33988: a1 = s1 + 0x2918\n 33992: u64 [a1 + 0xc0] = a0\n 33996: a0 = u64 [s1 + 0x158]\n 34000: u64 [a1 + 0xb8] = a0\n 34004: a0 = u64 [s1 + 0x160]\n 34008: u64 [a1 + 0xb0] = a0\n 34012: a3 = a1\n 34014: a0 = 0x20\n 34017: a1 = s1 + 0x29c0\n 34021: a2 = u64 [s1 + 0x168]\n 34025: u64 [a3 + 0xa8] = a2\n 34029: ra = 1284, jump @24\n      : @1249 [@dyn 642] (gas: 3)\n 34036: a0 = u64 [s1 + 0x198]\n 34040: a0 = i32 [a0]\n 34042: jump @1251 if a0 >u 63\n      : @1250 (gas: 3)\n 34046: a0 = u64 [s1 + 0x198]\n 34050: u32 [a0 + 0] = 0x40\n 34053: fallthrough\n      : @1251 (gas: 4)\n 34054: a0 = sp + 0xffffffffffffffe0\n 34057: a0 = a0 & 0xffffffffffffffe0\n 34060: u64 [s1 + 0x168] = a0\n 34064: t0 = 1286, jump @1818\n      : @1252 [@dyn 643] (gas: 5)\n 34070: ra = 0x508\n 34074: ecalli 8 // 'hash_keccak_256'\n 34076: a3 = u64 [s1 + 0x168]\n 34080: t0 = 0x50a\n 34084: jump @1847\n      : @1253 [@dyn 644] (gas: 2)\n 34087: a3 = u64 [s1 + 0x168]\n 34091: t0 = 1290, jump @1847\n      : @1254 [@dyn 645] (gas: 11)\n 34097: a4 = u64 [s1 + 0x178]\n 34101: u64 [a4 + 0x18] = a3\n 34104: u64 [a4 + 0x10] = a2\n 34107: u64 [a4 + 0x8] = a1\n 34110: u64 [a4] = a0\n 34112: a0 = u64 [s1 + 0x180]\n 34116: ra = 0x50c\n 34120: ecalli 4 // 'caller'\n 34122: a2 = u64 [s1 + 0x188]\n 34126: t0 = 0x50e\n 34130: jump @1859\n      : @1255 [@dyn 646] (gas: 2)\n 34133: a2 = u64 [s1 + 0x188]\n 34137: t0 = 1294, jump @1859\n      : @1256 [@dyn 647] (gas: 10)\n 34143: u64 [s1 + 0x168] = a1\n 34147: a0 = a0 >> 0x20\n 34150: a1 = reverse a2\n 34152: u64 [s1 + 0x160] = a1\n 34156: a1 = a1 << 0x20\n 34159: a0 = a0 | a1\n 34162: u64 [s1 + 0x158] = a0\n 34166: a0 = s1 + 0x29a0\n 34170: a1 = u64 [s1 + 0x178]\n 34174: ra = 1296, jump @26\n      : @1257 [@dyn 648] (gas: 2)\n 34181: a2 = s1 + 0x2918\n 34185: fallthrough\n      : @1258 (gas: 19)\n 34186: a0 = u64 [a2 + 0x90]\n 34190: a1 = u32 [a2 + 0x8c]\n 34194: a2 = u64 [a2 + 0x98]\n 34198: a3 = a0 << 0x20\n 34201: a1 = a1 | a3\n 34204: a3 = a2 << 0x20\n 34207: a0 = a0 >> 0x20\n 34210: a0 = a0 | a3\n 34213: a4 = s1 + 0x100\n 34217: a3 = u64 [a4 + 0x58]\n 34220: a0 = a0 ^ a3\n 34223: a3 = u64 [a4 + 0x68]\n 34226: a1 = a1 ^ a3\n 34229: a3 = u64 [a4 + 0x60]\n 34232: a2 = a2 ^ a3\n 34235: a2 = a2 >> 0x20\n 34238: a1 = a1 | a2\n 34241: a0 = a0 | a1\n 34244: jump @1317 if a0 != 0\n      : @1259 (gas: 6)\n 34248: a0 = u64 [s1 + 0x180]\n 34252: ra = 0x512\n 34256: ecalli 4 // 'caller'\n 34258: a2 = u64 [s1 + 0x188]\n 34262: t0 = 0x514\n 34266: jump @1790\n      : @1260 [@dyn 649] (gas: 2)\n 34269: a2 = u64 [s1 + 0x188]\n 34273: t0 = 1300, jump @1790\n      : @1261 [@dyn 650] (gas: 7)\n 34279: u64 [a2 + 96] = 0\n 34282: u64 [a2 + 0x58] = a1\n 34285: u64 [a2 + 0x50] = a0\n 34288: a1 = s1 + 0x2960\n 34292: u64 [a2 + 0x48] = a3\n 34295: a0 = 0\n 34297: ra = 1302, jump @24\n      : @1262 [@dyn 651] (gas: 3)\n 34304: t0 = 0x518\n 34308: a1 = s1 + 0x2918\n 34312: fallthrough\n      : @1263 [@dyn 652] (gas: 8)\n 34313: u64 [a1 + 64] = 0\n 34316: u64 [a1 + 56] = 0\n 34319: u64 [a1 + 40] = 0x2\n 34323: a2 = a1\n 34325: a0 = 0x20\n 34328: a1 = s1 + 0x2940\n 34332: u64 [a2 + 48] = 0\n 34335: ra = 1306, jump @24\n      : @1264 [@dyn 653] (gas: 3)\n 34342: a0 = u64 [s1 + 0x198]\n 34346: a0 = i32 [a0]\n 34348: jump @1266 if a0 >u 63\n      : @1265 (gas: 3)\n 34352: a1 = u64 [s1 + 0x198]\n 34356: u32 [a1 + 0] = 0x40\n 34359: fallthrough\n      : @1266 (gas: 4)\n 34360: a0 = sp + 0xffffffffffffffe0\n 34363: a0 = a0 & 0xffffffffffffffe0\n 34366: u64 [s1 + 0x178] = a0\n 34370: t0 = 1308, jump @1818\n      : @1267 [@dyn 654] (gas: 17)\n 34376: ecalli 8 // 'hash_keccak_256'\n 34378: a3 = u64 [s1 + 0x178]\n 34382: a0 = u64 [a3 + 0x18]\n 34385: a1 = u64 [a3 + 0x10]\n 34388: a2 = u64 [a3 + 0x8]\n 34391: a3 = u64 [a3]\n 34393: a0 = reverse a0\n 34395: u64 [s1 + 0x178] = a0\n 34399: a0 = reverse a1\n 34401: u64 [s1 + 0x168] = a0\n 34405: a0 = reverse a2\n 34407: u64 [s1 + 0x160] = a0\n 34411: a0 = reverse a3\n 34413: u64 [s1 + 0x158] = a0\n 34417: t0 = 0x51e\n 34421: a2 = s1 + 0x2918\n 34425: fallthrough\n      : @1268 [@dyn 655] (gas: 8)\n 34426: u64 [a2 + 32] = 0\n 34429: u64 [a2 + 24] = 0\n 34432: u64 [a2 + 16] = 0\n 34435: a1 = s1 + 0x2920\n 34439: a0 = u64 [s1 + 0x170]\n 34443: u64 [a2 + 0x8] = a0\n 34446: a0 = 0\n 34448: ra = 1312, jump @24\n      : @1269 [@dyn 656] (gas: 13)\n 34455: a0 = u64 [s1 + 0x158]\n 34459: a1 = s1 + 0x2918\n 34463: u64 [a1] = a0\n 34465: a0 = u64 [s1 + 0x160]\n 34469: u64 [a1 + 0xfffffffffffffff8] = a0\n 34472: a0 = u64 [s1 + 0x168]\n 34476: u64 [a1 + 0xfffffffffffffff0] = a0\n 34479: a3 = a1\n 34481: a0 = 0x20\n 34484: a1 = s1 + 0x2900\n 34488: a2 = u64 [s1 + 0x178]\n 34492: u64 [a3 + 0xffffffffffffffe8] = a2\n 34495: ra = 1314, jump @24\n      : @1270 [@dyn 657] (gas: 3)\n 34502: a0 = u64 [s1 + 0x198]\n 34506: a0 = i32 [a0]\n 34508: jump @1272 if a0 >u 63\n      : @1271 (gas: 3)\n 34512: a0 = u64 [s1 + 0x198]\n 34516: u32 [a0 + 0] = 0x40\n 34519: fallthrough\n      : @1272 (gas: 4)\n 34520: a0 = sp + 0xffffffffffffffe0\n 34523: a0 = a0 & 0xffffffffffffffe0\n 34526: u64 [s1 + 0x178] = a0\n 34530: t0 = 1316, jump @1818\n      : @1273 [@dyn 658] (gas: 28)\n 34536: ecalli 8 // 'hash_keccak_256'\n 34538: a3 = u64 [s1 + 0x178]\n 34542: a0 = u64 [a3]\n 34544: a1 = u64 [a3 + 0x8]\n 34547: a2 = u64 [a3 + 0x10]\n 34550: a3 = u64 [a3 + 0x18]\n 34553: t0 = reverse a0\n 34555: a0 = reverse a1\n 34557: a2 = reverse a2\n 34559: a3 = reverse a3\n 34561: a4 = sp + 0xffffffffffffffe0\n 34564: a1 = a4 & 0xffffffffffffffe0\n 34567: sp = a1\n 34569: a4 = a3 + 0x2\n 34572: a3 = a4 <u a3\n 34575: a5 = a2 + a3\n 34578: a2 = a5 <u a2\n 34581: a2 = a3 if a3 == 0\n 34584: a2 = a2 + a0\n 34587: a0 = a2 <u a0\n 34590: a0 = a0 + t0\n 34593: u64 [a1 + 0x8] = a5\n 34596: u64 [a1] = a4\n 34598: u64 [a1 + 0x10] = a2\n 34601: u64 [a1 + 0x18] = a0\n 34604: a0 = s1 + 0x28e0\n 34608: u64 [s1 + 0x178] = a1\n 34612: ra = 1318, jump @26\n      : @1274 [@dyn 659] (gas: 4)\n 34619: a0 = s1 + 0x2118\n 34623: a0 = u64 [a0 + 0x7d0]\n 34627: a1 = a0 & 0xff\n 34631: jump @1322 if a1 == 0\n      : @1275 (gas: 3)\n 34635: t0 = 0x528\n 34639: a2 = s1 + 0x2118\n 34643: fallthrough\n      : @1276 [@dyn 660] (gas: 9)\n 34644: u64 [a2 + 1976] = 0\n 34648: u64 [a2 + 1968] = 0\n 34652: a0 = 0xc1c184c800000000\n 34662: u64 [a2 + 0x7c0] = a0\n 34666: a1 = s1 + 0x28c0\n 34670: u64 [a2 + 1960] = 0\n 34674: a0 = 0\n 34676: ra = 0x55a\n 34680: jump @24\n      : @1277 (gas: 3)\n 34684: t0 = 0x52a\n 34688: a2 = s1 + 0x2118\n 34692: fallthrough\n      : @1278 [@dyn 661] (gas: 9)\n 34693: u64 [a2 + 1432] = 0\n 34697: u64 [a2 + 1424] = 0\n 34701: a0 = 0x6f1cf7db00000000\n 34711: u64 [a2 + 0x5a0] = a0\n 34715: a1 = s1 + 0x26a0\n 34719: u64 [a2 + 1416] = 0\n 34723: a0 = 0\n 34725: ra = 0x5de\n 34729: jump @24\n      : @1279 (gas: 2)\n 34733: u64 [s1 + 344] = 0\n 34737: fallthrough\n      : @1280 (gas: 7)\n 34738: a2 = s1 + 0x100\n 34742: a0 = u64 [a2 + 0x78]\n 34745: a0 = a0 << 0x1\n 34748: a1 = u64 [a2 + 0x58]\n 34751: a0 = a0 | a1\n 34754: u64 [a2 + 0x98] = a0\n 34758: fallthrough\n      : @1281 (gas: 3)\n 34759: a0 = u64 [s1 + 0xf0]\n 34763: a1 = u64 [s1 + 0x198]\n 34767: jump @1341 if a0 != a1\n      : @1282 (gas: 6)\n 34771: a0 = u64 [s1 + 0x100]\n 34775: ra = 0x52c\n 34779: ecalli 4 // 'caller'\n 34781: a2 = u64 [s1 + 0x108]\n 34785: t0 = 0x52e\n 34789: jump @1787\n      : @1283 [@dyn 662] (gas: 2)\n 34792: a2 = u64 [s1 + 0x108]\n 34796: t0 = 1326, jump @1787\n      : @1284 [@dyn 663] (gas: 8)\n 34802: u64 [a2 + 1376] = 0\n 34806: a4 = a2 + 0x500\n 34810: u64 [a4 + 0x58] = a1\n 34813: u64 [a4 + 0x50] = a0\n 34816: a1 = s1 + 0x2660\n 34820: u64 [a4 + 0x48] = a3\n 34823: a0 = 0\n 34825: ra = 1328, jump @24\n      : @1285 [@dyn 664] (gas: 3)\n 34832: t0 = 0x532\n 34836: a1 = s1 + 0x2118\n 34840: fallthrough\n      : @1286 [@dyn 665] (gas: 8)\n 34841: u64 [a1 + 1344] = 0\n 34845: u64 [a1 + 1336] = 0\n 34849: u64 [a1 + 1320] = 0x2\n 34854: a2 = a1\n 34856: a0 = 0x20\n 34859: a1 = s1 + 0x2640\n 34863: u64 [a2 + 1328] = 0\n 34867: ra = 1332, jump @24\n      : @1287 [@dyn 666] (gas: 3)\n 34874: a0 = u64 [s1 + 0x118]\n 34878: a0 = i32 [a0]\n 34880: jump @1289 if a0 >u 63\n      : @1288 (gas: 4)\n 34884: a1 = u64 [s1 + 0x118]\n 34888: u32 [a1 + 0] = 0x40\n 34891: t0 = 0x536\n 34895: jump @1801\n      : @1289 (gas: 1)\n 34898: t0 = 1334, jump @1801\n      : @1290 [@dyn 667] (gas: 4)\n 34904: ra = 0x538\n 34908: ecalli 8 // 'hash_keccak_256'\n 34910: t0 = 0x53a\n 34914: jump @1806\n      : @1291 [@dyn 668] (gas: 1)\n 34917: t0 = 1338, jump @1806\n      : @1292 [@dyn 669] (gas: 8)\n 34923: u64 [a2 + 1312] = 0\n 34927: u64 [a2 + 1304] = 0\n 34931: u64 [a2 + 1296] = 0\n 34935: a1 = s1 + 0x2620\n 34939: a0 = u64 [s1 + 0xf8]\n 34943: u64 [a2 + 0x508] = a0\n 34947: a0 = 0\n 34949: ra = 1340, jump @24\n      : @1293 [@dyn 670] (gas: 13)\n 34956: a0 = u64 [s1 + 0x178]\n 34960: a1 = s1 + 0x2118\n 34964: u64 [a1 + 0x500] = a0\n 34968: a0 = u64 [s1 + 0x180]\n 34972: u64 [a1 + 0x4f8] = a0\n 34976: a0 = u64 [s1 + 0x188]\n 34980: u64 [a1 + 0x4f0] = a0\n 34984: a3 = a1\n 34986: a0 = 0x20\n 34989: a1 = s1 + 0x2600\n 34993: a2 = u64 [s1 + 0x190]\n 34997: u64 [a3 + 0x4e8] = a2\n 35001: ra = 1342, jump @24\n      : @1294 [@dyn 671] (gas: 3)\n 35008: a0 = u64 [s1 + 0x118]\n 35012: a0 = i32 [a0]\n 35014: jump @1296 if a0 >u 63\n      : @1295 (gas: 4)\n 35018: a0 = u64 [s1 + 0x118]\n 35022: u32 [a0 + 0] = 0x40\n 35025: t0 = 0x540\n 35029: jump @1801\n      : @1296 (gas: 1)\n 35032: t0 = 1344, jump @1801\n      : @1297 [@dyn 672] (gas: 5)\n 35038: ra = 0x542\n 35042: ecalli 8 // 'hash_keccak_256'\n 35044: a3 = u64 [s1 + 0x190]\n 35048: t0 = 0x544\n 35052: jump @1793\n      : @1298 [@dyn 673] (gas: 2)\n 35055: a3 = u64 [s1 + 0x190]\n 35059: t0 = 1348, jump @1793\n      : @1299 [@dyn 674] (gas: 9)\n 35065: a1 = s1 + 0x3918\n 35069: a3 = a1 + 0x100\n 35073: u64 [a3 + 0x68] = a4\n 35076: u64 [a3 + 0x70] = a5\n 35079: u64 [a3 + 0x78] = a2\n 35082: u64 [a3 + 0x80] = a0\n 35086: a0 = s1 + 0x25e0\n 35090: a1 = s1 + 0x3a80\n 35094: ra = 1350, jump @26\n      : @1300 [@dyn 675] (gas: 3)\n 35101: a0 = s1 + 0x2118\n 35105: a0 = u8 [a0 + 0x4d0]\n 35109: jump @1343 if a0 == 0\n      : @1301 (gas: 3)\n 35113: t0 = 0x548\n 35117: a2 = s1 + 0x2118\n 35121: fallthrough\n      : @1302 [@dyn 676] (gas: 9)\n 35122: u64 [a2 + 1208] = 0\n 35126: u64 [a2 + 1200] = 0\n 35130: a0 = 0xa7a9536d00000000\n 35140: u64 [a2 + 0x4c0] = a0\n 35144: a1 = s1 + 0x25c0\n 35148: u64 [a2 + 1192] = 0\n 35152: a0 = 0\n 35154: ra = 0x5de\n 35158: jump @24\n      : @1303 (gas: 3)\n 35162: a0 = u64 [s1 + 0x198]\n 35166: a0 = i32 [a0]\n 35168: jump @1372 if a0 >u 99\n      : @1304 (gas: 2)\n 35173: a1 = 0x20190\n 35178: jump @1232\n      : @1305 (gas: 4)\n 35181: a0 = s1 + 0x220\n 35185: ra = 0x54a\n 35189: t0 = 0x63c\n 35193: jump @1863\n      : @1306 [@dyn 677] (gas: 11)\n 35196: a3 = s1 + 0x200\n 35200: a0 = u64 [a3 + 0x20]\n 35203: a1 = u64 [a3 + 0x28]\n 35206: a2 = u32 [s1 + 0x230]\n 35210: u64 [s1 + 536] = 0\n 35214: u64 [a3 + 0x10] = a2\n 35217: u64 [a3 + 0x8] = a1\n 35220: a1 = s1 + 0x200\n 35224: u64 [a3] = a0\n 35226: a0 = 0\n 35228: ra = 1356, jump @24\n      : @1307 [@dyn 678] (gas: 7)\n 35235: u64 [s1 + 504] = 0\n 35239: u64 [s1 + 496] = 0\n 35243: u64 [s1 + 480] = 0x3\n 35248: a0 = 0x20\n 35251: a1 = s1 + 0x1e0\n 35255: u64 [s1 + 488] = 0\n 35259: ra = 1358, jump @24\n      : @1308 [@dyn 679] (gas: 4)\n 35266: a0 = 0x20180\n 35271: u64 [s1 + 0x198] = a0\n 35275: a0 = i32 [0x20180]\n 35280: jump @1310 if a0 >u 63\n      : @1309 (gas: 3)\n 35284: a1 = u64 [s1 + 0x198]\n 35288: u32 [a1 + 0] = 0x40\n 35291: fallthrough\n      : @1310 (gas: 14)\n 35292: a0 = sp + 0xffffffffffffffe0\n 35295: a2 = a0 & 0xffffffffffffffe0\n 35298: u64 [s1 + 0x188] = a2\n 35302: sp = a2\n 35304: a0 = 0x20190\n 35309: u64 [s1 + 0x190] = a0\n 35313: i32 a0 = a0 + 0\n 35315: i32 a2 = a2 + 0\n 35317: a1 = 0x40\n 35320: ra = 0x550\n 35324: ecalli 8 // 'hash_keccak_256'\n 35326: a3 = u64 [s1 + 0x188]\n 35330: t0 = 0x552\n 35334: jump @1833\n      : @1311 [@dyn 680] (gas: 2)\n 35337: a3 = u64 [s1 + 0x188]\n 35341: t0 = 1362, jump @1833\n      : @1312 [@dyn 681] (gas: 8)\n 35347: a5 = a4 + 0x300\n 35351: u64 [a5 + 0x20] = a3\n 35354: u64 [a5 + 0x18] = a2\n 35357: u64 [a5 + 0x10] = a1\n 35360: u64 [a5 + 0x8] = a0\n 35363: a0 = s1 + 0x1c0\n 35367: a1 = s1 + 0x3420\n 35371: ra = 1364, jump @26\n      : @1313 [@dyn 682] (gas: 8)\n 35378: a0 = u32 [s1 + 0x1c0]\n 35382: u64 [s1 + 440] = 0\n 35386: u64 [s1 + 432] = 0\n 35390: u64 [s1 + 0x1a0] = a0\n 35394: a0 = 0x80\n 35398: a1 = s1 + 0x1a0\n 35402: u64 [s1 + 424] = 0\n 35406: ra = 1366, jump @24\n      : @1314 [@dyn 683] (gas: 3)\n 35413: a0 = u64 [s1 + 0x198]\n 35417: a0 = i32 [a0]\n 35419: jump @1316 if a0 >u 159\n      : @1315 (gas: 5)\n 35424: a1 = u64 [s1 + 0x198]\n 35428: u32 [a1 + 0] = 0xa0\n 35432: a0 = u64 [s1 + 0x190]\n 35436: i32 a1 = a0 + 0x80\n 35440: jump @1145\n      : @1316 (gas: 3)\n 35443: a0 = u64 [s1 + 0x190]\n 35447: i32 a1 = a0 + 0x80\n 35451: jump @1145\n      : @1317 (gas: 3)\n 35454: t0 = 0x558\n 35458: a2 = s1 + 0x2918\n 35462: fallthrough\n      : @1318 [@dyn 684] (gas: 8)\n 35463: u64 [a2 + 120] = 0\n 35466: u64 [a2 + 112] = 0\n 35469: a0 = 0x6f1cf7db00000000\n 35479: u64 [a2 + 0x80] = a0\n 35483: a1 = s1 + 0x2980\n 35487: u64 [a2 + 104] = 0\n 35490: a0 = 0\n 35492: ra = 1370, jump @24\n      : @1319 [@dyn 685] (gas: 3)\n 35499: a0 = u64 [s1 + 0x198]\n 35503: a0 = i32 [a0]\n 35505: jump @1321 if a0 >u 31\n      : @1320 (gas: 5)\n 35509: a1 = u64 [s1 + 0x198]\n 35513: u32 [a1 + 0] = 0x20\n 35516: a0 = 0x1\n 35519: a2 = 0x4\n 35522: jump @1409\n      : @1321 (gas: 7)\n 35525: a0 = 0x1\n 35528: a2 = 0x4\n 35531: a1 = u64 [s1 + 0x190]\n 35535: ecalli 13 // 'seal_return'\n 35537: t0 = 0x5dc\n 35541: a2 = s1 + 0x2118\n 35545: jump @1411\n      : @1322 (gas: 17)\n 35548: a1 = 0xffffffff\n 35558: u64 [s1 + 0x168] = a1\n 35562: a3 = s1 + 0x2118\n 35566: a4 = a3 + 0x700\n 35570: a1 = u64 [a4 + 0xc8]\n 35574: a2 = u64 [a4 + 0xd8]\n 35578: a3 = u64 [a4 + 0xe0]\n 35582: a0 = a0 | 0x1\n 35585: a4 = s1 + 0x3918\n 35589: a5 = a4 + 0x100\n 35593: u64 [a5 + 0xc8] = a1\n 35597: u64 [a5 + 0xd8] = a2\n 35601: u64 [a5 + 0xd0] = a0\n 35605: u64 [a5 + 0xe0] = a3\n 35609: a1 = s1 + 0x3ae0\n 35613: a0 = u64 [s1 + 0x178]\n 35617: ra = 1372, jump @28\n      : @1323 [@dyn 686] (gas: 6)\n 35624: a0 = u64 [s1 + 0x180]\n 35628: ra = 0x55e\n 35632: ecalli 4 // 'caller'\n 35634: a2 = u64 [s1 + 0x188]\n 35638: t0 = 0x560\n 35642: jump @1787\n      : @1324 [@dyn 687] (gas: 2)\n 35645: a2 = u64 [s1 + 0x188]\n 35649: t0 = 1376, jump @1787\n      : @1325 [@dyn 688] (gas: 8)\n 35655: u64 [a2 + 1952] = 0\n 35659: a4 = a2 + 0x700\n 35663: u64 [a4 + 0x98] = a1\n 35667: u64 [a4 + 0x90] = a0\n 35671: a1 = s1 + 0x28a0\n 35675: u64 [a4 + 0x88] = a3\n 35679: a0 = 0\n 35681: ra = 1378, jump @24\n      : @1326 [@dyn 689] (gas: 3)\n 35688: t0 = 0x564\n 35692: a1 = s1 + 0x2118\n 35696: fallthrough\n      : @1327 [@dyn 690] (gas: 8)\n 35697: u64 [a1 + 1920] = 0\n 35701: u64 [a1 + 1912] = 0\n 35705: u64 [a1 + 1896] = 0x1\n 35710: a2 = a1\n 35712: a0 = 0x20\n 35715: a1 = s1 + 0x2880\n 35719: u64 [a2 + 1904] = 0\n 35723: ra = 1382, jump @24\n      : @1328 [@dyn 691] (gas: 7)\n 35730: a0 = sp + 0xffffffffffffffe0\n 35733: a0 = a0 & 0xffffffffffffffe0\n 35736: u64 [s1 + 0x178] = a0\n 35740: sp = a0\n 35742: a0 = u64 [s1 + 0x198]\n 35746: a0 = i32 [a0]\n 35748: jump @1330 if a0 >u 63\n      : @1329 (gas: 3)\n 35752: a1 = u64 [s1 + 0x198]\n 35756: u32 [a1 + 0] = 0x40\n 35759: fallthrough\n      : @1330 (gas: 4)\n 35760: a0 = sp + 0xffffffffffffffe0\n 35763: a0 = a0 & 0xffffffffffffffe0\n 35766: u64 [s1 + 0x160] = a0\n 35770: t0 = 1384, jump @1818\n      : @1331 [@dyn 692] (gas: 3)\n 35776: ra = 0x56a\n 35780: ecalli 8 // 'hash_keccak_256'\n 35782: fallthrough\n      : @1332 [@dyn 693] (gas: 11)\n 35783: a3 = u64 [s1 + 0x160]\n 35787: a0 = u64 [a3]\n 35789: a1 = u64 [a3 + 0x8]\n 35792: a2 = u64 [a3 + 0x10]\n 35795: a3 = u64 [a3 + 0x18]\n 35798: a0 = reverse a0\n 35800: a1 = reverse a1\n 35802: a2 = reverse a2\n 35804: a3 = reverse a3\n 35806: a4 = a3 + 0x3\n 35809: t0 = 1388, jump @1802\n      : @1333 [@dyn 694] (gas: 7)\n 35815: a1 = u64 [s1 + 0x178]\n 35819: u64 [a1] = a4\n 35821: u64 [a1 + 0x8] = a5\n 35824: u64 [a1 + 0x10] = a2\n 35827: u64 [a1 + 0x18] = a0\n 35830: a0 = s1 + 0x2860\n 35834: ra = 1390, jump @26\n      : @1334 [@dyn 695] (gas: 5)\n 35841: a0 = s1 + 0x2118\n 35845: a0 = u64 [a0 + 0x748]\n 35849: a1 = u64 [s1 + 0x168]\n 35853: a1 = a1 & a0\n 35856: jump @1402 if a1 == 0\n      : @1335 (gas: 7)\n 35860: a1 = u64 [s1 + 0x168]\n 35864: a0 = a0 + a1\n 35867: a0 = a0 & a1\n 35870: u64 [s1 + 0x198] = a0\n 35874: a0 = s1 + 0x2840\n 35878: a1 = u64 [s1 + 0x178]\n 35882: ra = 1392, jump @26\n      : @1336 [@dyn 696] (gas: 18)\n 35889: a3 = s1 + 0x2118\n 35893: a0 = u32 [a3 + 0x72c]\n 35897: a0 = a0 << 0x20\n 35900: a4 = a3 + 0x700\n 35904: a1 = u64 [a4 + 0x40]\n 35907: a2 = u64 [a4 + 0x38]\n 35910: a3 = u64 [a4 + 0x30]\n 35913: a4 = u64 [s1 + 0x198]\n 35917: a0 = a0 | a4\n 35920: a4 = s1 + 0x3918\n 35924: u64 [a4 + 0x200] = a1\n 35928: a1 = a4 + 0x100\n 35932: u64 [a1 + 0xf8] = a2\n 35936: u64 [a1 + 0xf0] = a3\n 35940: u64 [a1 + 0xe8] = a0\n 35944: a1 = s1 + 0x3b00\n 35948: a0 = u64 [s1 + 0x178]\n 35952: ra = 1394, jump @28\n      : @1337 [@dyn 697] (gas: 6)\n 35959: a0 = u64 [s1 + 0x180]\n 35963: ra = 0x574\n 35967: ecalli 4 // 'caller'\n 35969: a2 = u64 [s1 + 0x188]\n 35973: t0 = 0x576\n 35977: jump @1795\n      : @1338 [@dyn 698] (gas: 2)\n 35980: a2 = u64 [s1 + 0x188]\n 35984: t0 = 1398, jump @1795\n      : @1339 [@dyn 699] (gas: 30)\n 35990: t0 = a1 | a0\n 35993: a3 = a3 >> 0x20\n 35996: a2 = reverse a2\n 35998: a1 = a2 << 0x20\n 36001: a1 = a1 | a3\n 36004: a2 = a2 >> 0x20\n 36007: a3 = u64 [s1 + 0x170]\n 36011: a0 = s1 + 0x2118\n 36015: u64 [a0 + 0x6c8] = a3\n 36019: a3 = u64 [0x20040]\n 36024: a4 = u64 [0x20048]\n 36029: a5 = u64 [0x20050]\n 36034: u64 [a0 + 0x720] = a3\n 36038: u64 [a0 + 0x718] = a4\n 36042: u64 [a0 + 1760] = 0\n 36046: u64 [a0 + 0x710] = a5\n 36050: a3 = u64 [0x20058]\n 36055: u64 [a0 + 1752] = 0\n 36059: u64 [a0 + 1744] = 0\n 36063: u64 [a0 + 1792] = 0\n 36067: u64 [a0 + 0x708] = a3\n 36071: u64 [a0 + 0x6f8] = a2\n 36075: u64 [a0 + 0x6f0] = a1\n 36079: a2 = s1 + 0x2820\n 36083: a3 = s1 + 0x2800\n 36087: a4 = s1 + 0x27e0\n 36091: u64 [a0 + 0x6e8] = t0\n 36095: a0 = 0\n 36097: a1 = 0\n 36099: ra = 1400, jump @31\n      : @1340 [@dyn 700] (gas: 3)\n 36106: a0 = 0\n 36108: a1 = u64 [s1 + 0x190]\n 36112: jump @1233\n      : @1341 (gas: 3)\n 36115: t0 = 0x57a\n 36119: a2 = s1 + 0x2118\n 36123: fallthrough\n      : @1342 [@dyn 701] (gas: 9)\n 36124: u64 [a2 + 1400] = 0\n 36128: u64 [a2 + 1392] = 0\n 36132: a0 = 0xd5b25b6300000000\n 36142: u64 [a2 + 0x580] = a0\n 36146: a1 = s1 + 0x2680\n 36150: u64 [a2 + 1384] = 0\n 36154: a0 = 0\n 36156: ra = 0x5de\n 36160: jump @24\n      : @1343 (gas: 6)\n 36164: a0 = u64 [s1 + 0x100]\n 36168: ra = 0x57c\n 36172: ecalli 4 // 'caller'\n 36174: a2 = u64 [s1 + 0x108]\n 36178: t0 = 0x57e\n 36182: jump @1787\n      : @1344 [@dyn 702] (gas: 2)\n 36185: a2 = u64 [s1 + 0x108]\n 36189: t0 = 1406, jump @1787\n      : @1345 [@dyn 703] (gas: 8)\n 36195: u64 [a2 + 1184] = 0\n 36199: a4 = a2 + 0x400\n 36203: u64 [a4 + 0x98] = a1\n 36207: u64 [a4 + 0x90] = a0\n 36211: a1 = s1 + 0x25a0\n 36215: u64 [a4 + 0x88] = a3\n 36219: a0 = 0\n 36221: ra = 1408, jump @24\n      : @1346 [@dyn 704] (gas: 3)\n 36228: t0 = 0x582\n 36232: a1 = s1 + 0x2118\n 36236: fallthrough\n      : @1347 [@dyn 705] (gas: 8)\n 36237: u64 [a1 + 1152] = 0\n 36241: u64 [a1 + 1144] = 0\n 36245: u64 [a1 + 1128] = 0x4\n 36250: a2 = a1\n 36252: a0 = 0x20\n 36255: a1 = s1 + 0x2580\n 36259: u64 [a2 + 1136] = 0\n 36263: ra = 1412, jump @24\n      : @1348 [@dyn 706] (gas: 3)\n 36270: a0 = u64 [s1 + 0x118]\n 36274: a0 = i32 [a0]\n 36276: jump @1350 if a0 >u 63\n      : @1349 (gas: 4)\n 36280: a1 = u64 [s1 + 0x118]\n 36284: u32 [a1 + 0] = 0x40\n 36287: t0 = 0x586\n 36291: jump @1801\n      : @1350 (gas: 1)\n 36294: t0 = 1414, jump @1801\n      : @1351 [@dyn 707] (gas: 4)\n 36300: ra = 0x588\n 36304: ecalli 8 // 'hash_keccak_256'\n 36306: t0 = 0x58a\n 36310: jump @1806\n      : @1352 [@dyn 708] (gas: 1)\n 36313: t0 = 1418, jump @1806\n      : @1353 [@dyn 709] (gas: 8)\n 36319: u64 [a2 + 1120] = 0\n 36323: u64 [a2 + 1112] = 0\n 36327: u64 [a2 + 1104] = 0\n 36331: a1 = s1 + 0x2560\n 36335: a0 = u64 [s1 + 0x198]\n 36339: u64 [a2 + 0x448] = a0\n 36343: a0 = 0\n 36345: ra = 1420, jump @24\n      : @1354 [@dyn 710] (gas: 14)\n 36352: a0 = u64 [s1 + 0x178]\n 36356: a1 = s1 + 0x2118\n 36360: a2 = a1 + 0x400\n 36364: u64 [a2 + 0x40] = a0\n 36367: a0 = u64 [s1 + 0x180]\n 36371: u64 [a2 + 0x38] = a0\n 36374: a0 = u64 [s1 + 0x188]\n 36378: u64 [a2 + 0x30] = a0\n 36381: a3 = a1\n 36383: a0 = 0x20\n 36386: a1 = s1 + 0x2540\n 36390: a2 = u64 [s1 + 0x190]\n 36394: u64 [a3 + 0x428] = a2\n 36398: ra = 1422, jump @24\n      : @1355 [@dyn 711] (gas: 3)\n 36405: a0 = u64 [s1 + 0x118]\n 36409: a0 = i32 [a0]\n 36411: jump @1357 if a0 >u 63\n      : @1356 (gas: 4)\n 36415: a0 = u64 [s1 + 0x118]\n 36419: u32 [a0 + 0] = 0x40\n 36422: t0 = 0x590\n 36426: jump @1801\n      : @1357 (gas: 1)\n 36429: t0 = 1424, jump @1801\n      : @1358 [@dyn 712] (gas: 5)\n 36435: ra = 0x592\n 36439: ecalli 8 // 'hash_keccak_256'\n 36441: a3 = u64 [s1 + 0x190]\n 36445: t0 = 0x594\n 36449: jump @1810\n      : @1359 [@dyn 713] (gas: 2)\n 36452: a3 = u64 [s1 + 0x190]\n 36456: t0 = 1428, jump @1810\n      : @1360 [@dyn 714] (gas: 5)\n 36462: u64 [s1 + 0x190] = a0\n 36466: sp = a0\n 36468: t0 = 0x596\n 36472: a2 = s1 + 0x2118\n 36476: fallthrough\n      : @1361 [@dyn 715] (gas: 8)\n 36477: u64 [a2 + 1056] = 0\n 36481: u64 [a2 + 1048] = 0\n 36485: u64 [a2 + 1040] = 0\n 36489: a1 = s1 + 0x2520\n 36493: a0 = u64 [s1 + 0xf8]\n 36497: u64 [a2 + 0x408] = a0\n 36501: a0 = 0\n 36503: ra = 1432, jump @24\n      : @1362 [@dyn 716] (gas: 13)\n 36510: a0 = u64 [s1 + 0x170]\n 36514: a1 = s1 + 0x2118\n 36518: u64 [a1 + 0x400] = a0\n 36522: a0 = u64 [s1 + 0x178]\n 36526: u64 [a1 + 0x3f8] = a0\n 36530: a0 = u64 [s1 + 0x180]\n 36534: u64 [a1 + 0x3f0] = a0\n 36538: a3 = a1\n 36540: a0 = 0x20\n 36543: a1 = s1 + 0x2500\n 36547: a2 = u64 [s1 + 0x188]\n 36551: u64 [a3 + 0x3e8] = a2\n 36555: ra = 1434, jump @24\n      : @1363 [@dyn 717] (gas: 3)\n 36562: a0 = u64 [s1 + 0x118]\n 36566: a0 = i32 [a0]\n 36568: jump @1365 if a0 >=u 64\n      : @1364 (gas: 3)\n 36572: a0 = u64 [s1 + 0x118]\n 36576: u32 [a0 + 0] = 0x40\n 36579: fallthrough\n      : @1365 (gas: 12)\n 36580: a0 = sp + 0xffffffffffffffe0\n 36583: a0 = a0 & 0xffffffffffffffe0\n 36586: u64 [s1 + 0x188] = a0\n 36590: sp = a0\n 36592: i32 a2 = a0 + 0\n 36594: a1 = 0x40\n 36597: a0 = u64 [s1 + 0x110]\n 36601: ra = 0x59c\n 36605: ecalli 8 // 'hash_keccak_256'\n 36607: a3 = u64 [s1 + 0x188]\n 36611: t0 = 0x59e\n 36615: jump @1800\n      : @1366 [@dyn 718] (gas: 2)\n 36618: a3 = u64 [s1 + 0x188]\n 36622: t0 = 1438, jump @1800\n      : @1367 [@dyn 719] (gas: 7)\n 36628: a1 = u64 [s1 + 0x190]\n 36632: u64 [a1 + 0x18] = a3\n 36635: u64 [a1 + 0x10] = a2\n 36638: u64 [a1 + 0x8] = a4\n 36641: u64 [a1] = a0\n 36643: a0 = s1 + 0x24e0\n 36647: ra = 1440, jump @26\n      : @1368 [@dyn 720] (gas: 4)\n 36654: a0 = s1 + 0x2118\n 36658: a0 = u64 [a0 + 0x3c8]\n 36662: a1 = a0 & 0xff\n 36666: jump @1410 if a1 == 0\n      : @1369 (gas: 2)\n 36670: a1 = a0 & 0xff00\n 36675: jump @1415 if a1 == 0\n      : @1370 (gas: 3)\n 36679: t0 = 0x5a2\n 36683: a2 = s1 + 0x2118\n 36687: fallthrough\n      : @1371 [@dyn 721] (gas: 9)\n 36688: u64 [a2 + 952] = 0\n 36692: u64 [a2 + 944] = 0\n 36696: a0 = 0xc98289f000000000\n 36706: u64 [a2 + 0x3c0] = a0\n 36710: a1 = s1 + 0x24c0\n 36714: u64 [a2 + 936] = 0\n 36718: a0 = 0\n 36720: ra = 0x5de\n 36724: jump @24\n      : @1372 (gas: 5)\n 36728: a0 = s1 + 0x7ff\n 36732: a0 = a0 + 0x641\n 36736: ra = 0x5a4\n 36740: t0 = 0x63c\n 36744: jump @1863\n      : @1373 [@dyn 722] (gas: 16)\n 36747: a1 = s1 + 0x7ff\n 36751: a1 = a1 + 0x111\n 36755: a2 = a1 + 0x500\n 36759: a0 = u64 [a2 + 0x48]\n 36762: u64 [s1 + 0xd8] = a0\n 36766: a0 = u64 [a2 + 0x40]\n 36769: u64 [s1 + 0xe0] = a0\n 36773: a0 = u64 [a2 + 0x38]\n 36776: u64 [s1 + 0x118] = a0\n 36780: a0 = u64 [a2 + 0x30]\n 36783: u64 [s1 + 0x110] = a0\n 36787: a0 = s1 + 0x7ff\n 36791: a0 = a0 + 0x621\n 36795: ra = 0x5a6\n 36799: t0 = 0x640\n 36803: jump @1875\n      : @1374 [@dyn 723] (gas: 16)\n 36806: a1 = s1 + 0x7ff\n 36810: a1 = a1 + 0x111\n 36814: a2 = a1 + 0x500\n 36818: a0 = u64 [a2 + 0x28]\n 36821: u64 [s1 + 0xd0] = a0\n 36825: a0 = u64 [a2 + 0x20]\n 36828: u64 [s1 + 0xc8] = a0\n 36832: a0 = u64 [a2 + 0x18]\n 36835: u64 [s1 + 0xc0] = a0\n 36839: a0 = u64 [a2 + 0x10]\n 36842: u64 [s1 + 0x100] = a0\n 36846: a0 = s1 + 0x7ff\n 36850: a0 = a0 + 0x601\n 36854: ra = 0x5a8\n 36858: t0 = 0x646\n 36862: jump @1875\n      : @1375 [@dyn 724] (gas: 8)\n 36865: a0 = s1 + 0x7ff\n 36869: a0 = a0 + 0x111\n 36873: a0 = u64 [a0 + 0x4f0]\n 36877: u64 [s1 + 0x108] = a0\n 36881: a0 = s1 + 0x3000\n 36885: i32 a0 = a0 + 0x720\n 36889: ecalli 9 // 'now'\n 36891: fallthrough\n      : @1376 (gas: 49)\n 36892: a0 = s1 + 0x3118\n 36896: t0 = u64 [a0 + 0x620]\n 36900: a4 = u64 [a0 + 0x618]\n 36904: u64 [s1 + 0x158] = a4\n 36908: t2 = u64 [a0 + 0x610]\n 36912: a3 = u64 [a0 + 0x608]\n 36916: u64 [s1 + 0x140] = a3\n 36920: a0 = clz t0\n 36922: a1 = clz a4\n 36924: a2 = a1 + 0x40\n 36927: a2 = a0 if t0 != 0\n 36930: a0 = clz t2\n 36932: a1 = clz a3\n 36934: a1 = a1 + 0x40\n 36937: a1 = a0 if t2 != 0\n 36940: a0 = a1 + 0x80\n 36944: a3 = a4 | t0\n 36947: a2 = a0 if a3 == 0\n 36950: a5 = a0 <u a1\n 36953: a5 = 0 if a3 != 0\n 36955: a4 = a5 >u 0\n 36957: a0 = a2 <u 0xf0\n 36961: a3 = a0 ^ 0x1\n 36964: a4 = a3 if a5 == 0\n 36967: a0 = a4 <u 0x1\n 36970: ra = a0 + 0xffffffffffffffff\n 36973: t1 = -a4\n 36975: a5 = -a5\n 36977: a3 = a5 - a3\n 36980: a2 = 0xef - a2\n 36984: a5 = t1 >u 0\n 36986: a0 = ra >u 0\n 36988: a0 = a5 if ra == 0\n 36991: a5 = a2 <u 0x100\n 36995: a5 = a5 ^ 0x1\n 36998: a1 = a3 >u 0\n 37000: a5 = a1 if a3 != 0\n 37003: a5 = a0 if a4 != 0\n 37006: u64 [s1 + 0x138] = t2\n 37010: u64 [s1 + 0x150] = t0\n 37014: a0 = t2 | t0\n 37017: a4 = u64 [s1 + 0x140]\n 37021: a1 = u64 [s1 + 0x158]\n 37025: a1 = a1 | a4\n 37028: a0 = a0 | a1\n 37031: a0 = a0 <u 0x1\n 37034: a0 = a0 | a5\n 37037: a4 = 0 if a0 != 0\n 37039: jump @1422 if a0 != 0\n      : @1377 (gas: 5)\n 37043: a0 = a2 ^ 0xff\n 37047: a0 = a0 | t1\n 37050: a1 = a3 | ra\n 37053: a0 = a0 | a1\n 37056: jump @1422 if a0 == 0\n      : @1378 (gas: 1)\n 37060: t0 = 1450, jump @1803\n      : @1379 [@dyn 725] (gas: 1)\n 37066: ra = 1452, jump @1877\n      : @1380 [@dyn 726] (gas: 1)\n 37072: t0 = 1454, jump @1866\n      : @1381 [@dyn 727] (gas: 1)\n 37078: ra = 1456, jump @1882\n      : @1382 [@dyn 728] (gas: 1)\n 37084: t0 = 1458, jump @1853\n      : @1383 [@dyn 729] (gas: 1)\n 37090: ra = 1460, jump @1882\n      : @1384 [@dyn 730] (gas: 8)\n 37096: u64 [s1 + 0x120] = a0\n 37100: u64 [s1 + 0xf8] = a1\n 37104: a2 = u64 [s1 + 0x160]\n 37108: a0 = a2 <u 0x80\n 37112: u64 [s1 + 0xf0] = a0\n 37116: a0 = u64 [s1 + 0x140]\n 37120: a1 = u64 [s1 + 0x138]\n 37124: ra = 1462, jump @1882\n      : @1385 [@dyn 731] (gas: 1)\n 37130: t0 = 1464, jump @1876\n      : @1386 [@dyn 732] (gas: 4)\n 37136: a3 = u64 [s1 + 0xf0]\n 37140: a0 = 0 if a3 == 0\n 37142: u64 [a4 + 0x78] = a0\n 37145: jump @1420 if a1 == 0\n      : @1387 (gas: 7)\n 37149: a2 = a3\n 37151: a0 = u64 [s1 + 0x168]\n 37155: a1 = u64 [s1 + 0x128]\n 37159: a0 = a0 | a1\n 37162: a5 = a3\n 37164: a1 = u64 [s1 + 0xf8]\n 37168: t0 = 1466, jump @1796\n      : @1388 [@dyn 733] (gas: 1)\n 37174: ra = 1468, jump @1877\n      : @1389 [@dyn 734] (gas: 1)\n 37180: t0 = 1470, jump @1865\n      : @1390 [@dyn 735] (gas: 1)\n 37186: ra = 1472, jump @1877\n      : @1391 [@dyn 736] (gas: 2)\n 37192: u64 [s1 + 0xf8] = a0\n 37196: t0 = 1474, jump @1857\n      : @1392 [@dyn 737] (gas: 1)\n 37202: ra = 1476, jump @1882\n      : @1393 [@dyn 738] (gas: 1)\n 37208: t0 = 1478, jump @1824\n      : @1394 [@dyn 739] (gas: 2)\n 37214: a1 = u64 [s1 + 0xf8]\n 37218: t0 = 1480, jump @1837\n      : @1395 [@dyn 740] (gas: 1)\n 37224: ra = 1482, jump @1877\n      : @1396 [@dyn 741] (gas: 1)\n 37230: t0 = 1484, jump @1807\n      : @1397 [@dyn 742] (gas: 1)\n 37236: t0 = 1486, jump @1820\n      : @1398 [@dyn 743] (gas: 5)\n 37242: t0 = ra <u a2\n 37245: a4 = u64 [s1 + 0x128]\n 37249: a5 = a4 <u a3\n 37252: a5 = t0 if t1 != 0\n 37255: t0 = 1488, jump @1821\n      : @1399 [@dyn 744] (gas: 20)\n 37261: t0 = a0 | a1\n 37264: a1 = a4 << 0x1\n 37267: a4 = u64 [s1 + 0x170]\n 37271: t1 = a4 >> 0x3f\n 37274: t1 = a1 | t1\n 37277: a1 = a4 << 0x1\n 37280: a4 = u64 [s1 + 0x178]\n 37284: t2 = a4 >> 0x3f\n 37287: a1 = a1 | t2\n 37290: a4 = a4 << 0x1\n 37293: a0 = u64 [s1 + 0x158]\n 37297: a4 = a4 | a0\n 37300: u64 [s1 + 0x178] = a4\n 37304: a0 = u64 [s1 + 0x150]\n 37308: a1 = a1 | a0\n 37311: u64 [s1 + 0x170] = a1\n 37315: a1 = a0 | t1\n 37318: u64 [s1 + 0x160] = a1\n 37322: a0 = a0 | t0\n 37325: t0 = 1490, jump @1794\n      : @1400 [@dyn 745] (gas: 18)\n 37331: t0 = a4 <u a2\n 37334: a2 = a4 - a2\n 37337: a4 = a3 <u 0x1\n 37340: a5 = a5 - a4\n 37343: a4 = u64 [a0 + 0x88]\n 37347: a4 = a4 - t0\n 37350: a3 = a3 + 0xffffffffffffffff\n 37353: u64 [a0 + 0x90] = a5\n 37357: u64 [a0 + 0x88] = a4\n 37361: t0 = a5 | a4\n 37364: u64 [a0 + 0x98] = a3\n 37368: a4 = a3 | a2\n 37371: a3 = a4 | t0\n 37374: a4 = ra & 0x1\n 37377: u64 [a0 + 0x58] = a4\n 37380: u64 [a0 + 0x80] = a2\n 37384: u64 [s1 + 336] = 0\n 37388: jump @1397 if a3 != 0\n      : @1401 (gas: 1)\n 37392: jump @1421\n      : @1402 (gas: 8)\n 37395: a0 = s1 + 0x2118\n 37399: u64 [a0 + 1720] = 0\n 37403: u64 [a0 + 1712] = 0\n 37407: u64 [a0 + 1704] = 0\n 37411: a2 = a0\n 37413: t0 = 0x5d4\n 37417: a0 = 0x4e487b7100000000\n 37427: fallthrough\n      : @1403 [@dyn 746] (gas: 4)\n 37428: a1 = s1 + 0x27c0\n 37432: u64 [a2 + 0x6c0] = a0\n 37436: a0 = 0\n 37438: ra = 1494, jump @24\n      : @1404 [@dyn 747] (gas: 3)\n 37445: t0 = 0x5d8\n 37449: a1 = s1 + 0x2118\n 37453: fallthrough\n      : @1405 [@dyn 748] (gas: 8)\n 37454: u64 [a1 + 1696] = 0\n 37458: u64 [a1 + 1688] = 0\n 37462: u64 [a1 + 1672] = 0x11\n 37467: a2 = a1\n 37469: a0 = 0x4\n 37472: a1 = s1 + 0x27a0\n 37476: u64 [a2 + 1680] = 0\n 37480: ra = 1498, jump @24\n      : @1406 [@dyn 749] (gas: 3)\n 37487: a0 = u64 [s1 + 0x198]\n 37491: a0 = i32 [a0]\n 37493: jump @1408 if a0 >u 63\n      : @1407 (gas: 5)\n 37497: a1 = u64 [s1 + 0x198]\n 37501: u32 [a1 + 0] = 0x40\n 37504: a0 = 0x1\n 37507: a2 = 0x24\n 37510: jump @1409\n      : @1408 (gas: 7)\n 37512: a0 = 0x1\n 37515: a2 = 0x24\n 37518: a1 = u64 [s1 + 0x190]\n 37522: ecalli 13 // 'seal_return'\n 37524: t0 = 0x5dc\n 37528: a2 = s1 + 0x2118\n 37532: jump @1411\n      : @1409 (gas: 5)\n 37534: a1 = u64 [s1 + 0x190]\n 37538: ecalli 13 // 'seal_return'\n 37540: t0 = 0x5dc\n 37544: a2 = s1 + 0x2118\n 37548: jump @1411\n      : @1410 (gas: 3)\n 37550: t0 = 0x5dc\n 37554: a2 = s1 + 0x2118\n 37558: fallthrough\n      : @1411 [@dyn 750] (gas: 8)\n 37559: u64 [a2 + 792] = 0\n 37563: u64 [a2 + 784] = 0\n 37567: a0 = 0xafa4e2b600000000\n 37577: u64 [a2 + 0x320] = a0\n 37581: a1 = s1 + 0x2420\n 37585: u64 [a2 + 776] = 0\n 37589: a0 = 0\n 37591: ra = 1502, jump @24\n      : @1412 [@dyn 751] (gas: 3)\n 37598: a0 = u64 [s1 + 0x118]\n 37602: a0 = i32 [a0]\n 37604: jump @1414 if a0 >u 31\n      : @1413 (gas: 3)\n 37608: a1 = u64 [s1 + 0x118]\n 37612: u32 [a1 + 0] = 0x20\n 37615: fallthrough\n      : @1414 (gas: 5)\n 37616: a0 = 0x1\n 37619: a2 = 0x4\n 37622: a1 = u64 [s1 + 0x110]\n 37626: ecalli 13 // 'seal_return'\n 37628: fallthrough\n      : @1415 (gas: 15)\n 37629: a3 = s1 + 0x2118\n 37633: a4 = a3 + 0x300\n 37637: a1 = u64 [a4 + 0xd0]\n 37641: a2 = u64 [a4 + 0xe0]\n 37645: a3 = u64 [a4 + 0xd8]\n 37649: a0 = a0 | 0x100\n 37653: a4 = s1 + 0x3918\n 37657: a5 = a4 + 0x100\n 37661: u64 [a5 + 0x90] = a1\n 37665: u64 [a5 + 0x88] = a0\n 37669: u64 [a5 + 0x98] = a3\n 37673: u64 [a5 + 0xa0] = a2\n 37677: a1 = s1 + 0x3aa0\n 37681: a0 = u64 [s1 + 0x190]\n 37685: ra = 1504, jump @28\n      : @1416 [@dyn 752] (gas: 6)\n 37692: a0 = u64 [s1 + 0x100]\n 37696: ra = 0x5e2\n 37700: ecalli 4 // 'caller'\n 37702: a2 = u64 [s1 + 0x108]\n 37706: t0 = 0x5e4\n 37710: jump @1795\n      : @1417 [@dyn 753] (gas: 2)\n 37713: a2 = u64 [s1 + 0x108]\n 37717: t0 = 1508, jump @1795\n      : @1418 [@dyn 754] (gas: 38)\n 37723: a0 = a0 | a1\n 37726: a3 = a3 >> 0x20\n 37729: a2 = reverse a2\n 37731: a1 = a2 << 0x20\n 37734: a1 = a1 | a3\n 37737: a2 = a2 >> 0x20\n 37740: a5 = s1 + 0x2118\n 37744: u64 [a5 + 832] = 0\n 37748: u64 [a5 + 824] = 0\n 37752: u64 [a5 + 816] = 0\n 37756: a3 = u64 [s1 + 0x198]\n 37760: u64 [a5 + 0x328] = a3\n 37764: a3 = u64 [s1 + 0xf8]\n 37768: u64 [a5 + 0x348] = a3\n 37772: a3 = u64 [0x20060]\n 37777: a4 = u64 [0x20068]\n 37782: u64 [a5 + 864] = 0\n 37786: u64 [a5 + 856] = 0\n 37790: u64 [a5 + 0x3a0] = a3\n 37794: u64 [a5 + 0x398] = a4\n 37798: a3 = u64 [0x20070]\n 37803: a4 = u64 [0x20078]\n 37808: u64 [a5 + 848] = 0\n 37812: u64 [a5 + 896] = 0\n 37816: u64 [a5 + 0x390] = a3\n 37820: a3 = a5 + 0x300\n 37824: u64 [a3 + 0x88] = a4\n 37828: u64 [a3 + 0x78] = a2\n 37831: u64 [a3 + 0x70] = a1\n 37834: a1 = a5\n 37836: a2 = s1 + 0x24a0\n 37840: a3 = s1 + 0x2480\n 37844: a4 = s1 + 0x2460\n 37848: a5 = s1 + 0x2440\n 37852: u64 [a1 + 0x368] = a0\n 37856: a0 = 0\n 37858: a1 = 0\n 37860: ra = 1510, jump @34\n      : @1419 [@dyn 755] (gas: 3)\n 37867: a0 = 0\n 37869: a1 = u64 [s1 + 0x110]\n 37873: jump @1233\n      : @1420 (gas: 2)\n 37876: u64 [s1 + 344] = 0\n 37880: fallthrough\n      : @1421 (gas: 5)\n 37881: a0 = u64 [s1 + 0x178]\n 37885: a0 = a0 << 0x1\n 37888: a4 = u64 [s1 + 0x158]\n 37892: a4 = a4 | a0\n 37895: fallthrough\n      : @1422 (gas: 2)\n 37896: a0 = u64 [s1 + 0x100]\n 37900: jump @1485 if a0 >=u a4\n      : @1423 (gas: 9)\n 37904: a0 = u64 [s1 + 0x108]\n 37908: a0 = a0 << 0x20\n 37911: a1 = a0 >> 0x20\n 37914: a0 = a1 + 0xffffffffffffffff\n 37917: a0 = a0 <u 0x32\n 37920: a0 = 0 if a1 == 0\n 37922: u64 [s1 + 0x128] = a1\n 37926: a0 = 0 if a1 == 0\n 37928: jump @1489 if a0 == 0\n      : @1424 (gas: 19)\n 37932: a0 = 0xffffffff\n 37942: u64 [s1 + 0x130] = a0\n 37946: a0 = u64 [s1 + 0xe0]\n 37950: a0 = a0 << 0x20\n 37953: a2 = a0 >> 0x20\n 37956: a3 = s1 + 0x7ff\n 37960: a3 = a3 + 0x111\n 37964: u64 [a3 + 1192] = 0\n 37968: a0 = u64 [s1 + 0x110]\n 37972: a4 = a3 + 0x400\n 37976: u64 [a4 + 0x90] = a0\n 37980: a0 = u64 [s1 + 0x118]\n 37984: u64 [a4 + 0x98] = a0\n 37988: a1 = s1 + 0x7ff\n 37992: a1 = a1 + 0x5a1\n 37996: u64 [s1 + 0x140] = a2\n 38000: u64 [a4 + 0xa0] = a2\n 38004: a0 = 0\n 38006: ra = 1512, jump @24\n      : @1425 [@dyn 756] (gas: 11)\n 38013: a1 = s1 + 0x7ff\n 38017: a1 = a1 + 0x111\n 38021: u64 [a1 + 1160] = 0\n 38025: u64 [a1 + 1152] = 0\n 38029: u64 [a1 + 1136] = 0x3\n 38034: a2 = a1\n 38036: a0 = 0x20\n 38039: a1 = s1 + 0x7ff\n 38043: a1 = a1 + 0x581\n 38047: u64 [a2 + 1144] = 0\n 38051: ra = 1514, jump @24\n      : @1426 [@dyn 757] (gas: 5)\n 38058: a0 = 0x20180\n 38063: u64 [s1 + 0x178] = a0\n 38067: a0 = i32 [0x20180]\n 38072: a1 = 0x3f\n 38075: jump @1428 if a1 <u a0\n      : @1427 (gas: 3)\n 38078: a1 = u64 [s1 + 0x178]\n 38082: u32 [a1 + 0] = 0x40\n 38085: fallthrough\n      : @1428 (gas: 3)\n 38086: a0 = 0xffffffff00000000\n 38096: u64 [s1 + 0x120] = a0\n 38100: t0 = 1516, jump @1819\n      : @1429 [@dyn 758] (gas: 10)\n 38106: a0 = 0x20190\n 38111: i32 a0 = a0 + 0\n 38113: i32 a2 = a2 + 0\n 38115: a1 = 0x40\n 38118: u64 [s1 + 0x170] = a0\n 38122: ra = 0x5ee\n 38126: ecalli 8 // 'hash_keccak_256'\n 38128: a3 = u64 [s1 + 0x198]\n 38132: t0 = 0x5f0\n 38136: jump @1826\n      : @1430 [@dyn 759] (gas: 2)\n 38139: a3 = u64 [s1 + 0x198]\n 38143: t0 = 1520, jump @1826\n      : @1431 [@dyn 760] (gas: 8)\n 38149: u64 [a5 + 0x40] = a3\n 38152: u64 [a5 + 0x38] = a2\n 38155: u64 [a5 + 0x30] = a1\n 38158: u64 [a5 + 0x28] = a0\n 38161: a0 = s1 + 0x7ff\n 38165: a0 = a0 + 0x561\n 38169: a1 = s1 + 0x3740\n 38173: ra = 1522, jump @26\n      : @1432 [@dyn 761] (gas: 15)\n 38180: a0 = s1 + 0x7ff\n 38184: a0 = a0 + 0x111\n 38188: a0 = u64 [a0 + 0x450]\n 38192: u64 [s1 + 312] = 0\n 38196: u64 [s1 + 248] = 0\n 38200: u64 [s1 + 240] = 0\n 38204: u64 [s1 + 232] = 0\n 38208: u64 [s1 + 392] = 0\n 38212: u64 [s1 + 400] = 0\n 38216: u64 [s1 + 408] = 0\n 38220: a1 = u64 [s1 + 0x130]\n 38224: a0 = a0 & a1\n 38227: u64 [s1 + 0x108] = a0\n 38231: a0 = 0x1\n 38234: fallthrough\n      : @1433 (gas: 15)\n 38235: u64 [s1 + 0x180] = a0\n 38239: a4 = u64 [s1 + 0x190]\n 38243: a0 = a4 >u 0\n 38245: a3 = u64 [s1 + 0x198]\n 38249: a1 = a3 >u 0\n 38251: a1 = a0 if a3 == 0\n 38254: a0 = u64 [s1 + 0x108]\n 38258: a2 = u64 [s1 + 0x180]\n 38262: a0 = a0 <u a2\n 38265: a5 = u64 [s1 + 0x188]\n 38269: a2 = a5 >u 0\n 38271: a2 = a0 if a5 == 0\n 38274: a0 = a4 | a3\n 38277: a2 = a1 if a0 != 0\n 38280: jump @1493 if a2 != 0\n      : @1434 (gas: 6)\n 38284: a2 = s1 + 0x100\n 38288: a0 = u64 [a2 + 0x30]\n 38291: a1 = u64 [a2 + 0x38]\n 38294: a0 = a0 & a1\n 38297: a1 = u64 [a2 + 0x28]\n 38300: jump @1493 if a0 >=u a1\n      : @1435 (gas: 14)\n 38304: a2 = s1 + 0x7ff\n 38308: a2 = a2 + 0x111\n 38312: u64 [a2 + 1096] = 0\n 38316: a0 = u64 [s1 + 0x110]\n 38320: a3 = a2 + 0x400\n 38324: u64 [a3 + 0x30] = a0\n 38327: a0 = u64 [s1 + 0x118]\n 38331: u64 [a3 + 0x38] = a0\n 38334: a1 = s1 + 0x7ff\n 38338: a1 = a1 + 0x541\n 38342: a0 = u64 [s1 + 0x140]\n 38346: u64 [a3 + 0x40] = a0\n 38349: a0 = 0\n 38351: ra = 1524, jump @24\n      : @1436 [@dyn 762] (gas: 11)\n 38358: a0 = s1 + 0x7ff\n 38362: a0 = a0 + 0x111\n 38366: u64 [a0 + 1064] = 0\n 38370: u64 [a0 + 1056] = 0\n 38374: u64 [a0 + 1048] = 0\n 38378: a3 = a0\n 38380: a0 = 0x20\n 38383: a1 = s1 + 0x7ff\n 38387: a1 = a1 + 0x521\n 38391: u64 [a3 + 1040] = 0x2\n 38396: ra = 1526, jump @24\n      : @1437 [@dyn 763] (gas: 3)\n 38403: a0 = u64 [s1 + 0x178]\n 38407: a0 = i32 [a0]\n 38409: jump @1439 if a0 >u 63\n      : @1438 (gas: 4)\n 38413: a1 = u64 [s1 + 0x178]\n 38417: u32 [a1 + 0] = 0x40\n 38420: t0 = 0x5f8\n 38424: jump @1792\n      : @1439 (gas: 1)\n 38427: t0 = 1528, jump @1792\n      : @1440 [@dyn 764] (gas: 4)\n 38433: ra = 0x5fa\n 38437: ecalli 8 // 'hash_keccak_256'\n 38439: t0 = 0x5fc\n 38443: jump @1789\n      : @1441 [@dyn 765] (gas: 1)\n 38446: t0 = 1532, jump @1789\n      : @1442 [@dyn 766] (gas: 11)\n 38452: u64 [a2 + 0x408] = a0\n 38456: a0 = u64 [s1 + 0x190]\n 38460: u64 [a2 + 0x400] = a0\n 38464: a0 = u64 [s1 + 0x188]\n 38468: u64 [a2 + 0x3f8] = a0\n 38472: a1 = s1 + 0x7ff\n 38476: a1 = a1 + 0x501\n 38480: a0 = u64 [s1 + 0x180]\n 38484: u64 [a2 + 0x3f0] = a0\n 38488: a0 = 0\n 38490: ra = 1534, jump @24\n      : @1443 [@dyn 767] (gas: 5)\n 38497: a0 = u64 [s1 + 0x148]\n 38501: a1 = s1 + 0x7ff\n 38505: a1 = a1 + 0x111\n 38509: a2 = a1 + 0x300\n 38513: t0 = 1536, jump @1856\n      : @1444 [@dyn 768] (gas: 4)\n 38519: a1 = a1 + 0x4e1\n 38523: a2 = u64 [s1 + 0x160]\n 38527: u64 [a3 + 0x3d0] = a2\n 38531: ra = 1538, jump @24\n      : @1445 [@dyn 769] (gas: 3)\n 38538: a0 = u64 [s1 + 0x178]\n 38542: a0 = i32 [a0]\n 38544: jump @1447 if a0 >u 63\n      : @1446 (gas: 3)\n 38548: a0 = u64 [s1 + 0x178]\n 38552: u32 [a0 + 0] = 0x40\n 38555: fallthrough\n      : @1447 (gas: 4)\n 38556: a0 = sp + 0xffffffffffffffe0\n 38559: a0 = a0 & 0xffffffffffffffe0\n 38562: u64 [s1 + 0x160] = a0\n 38566: t0 = 1540, jump @1798\n      : @1448 [@dyn 770] (gas: 5)\n 38572: ra = 0x606\n 38576: ecalli 8 // 'hash_keccak_256'\n 38578: a3 = u64 [s1 + 0x160]\n 38582: t0 = 0x608\n 38586: jump @1871\n      : @1449 [@dyn 771] (gas: 2)\n 38589: a3 = u64 [s1 + 0x160]\n 38593: t0 = 1544, jump @1871\n      : @1450 [@dyn 772] (gas: 13)\n 38599: a2 = reverse a3\n 38601: a1 = u64 [s1 + 0x168]\n 38605: u64 [s1 + 0x158] = a2\n 38609: u64 [a1 + 0x18] = a2\n 38612: u64 [s1 + 0x160] = a0\n 38616: u64 [a1 + 0x10] = a0\n 38619: u64 [s1 + 0x150] = a4\n 38623: u64 [a1 + 0x8] = a4\n 38626: u64 [s1 + 0x148] = a5\n 38630: u64 [a1] = a5\n 38632: a0 = s1 + 0x7ff\n 38636: a0 = a0 + 0x4c1\n 38640: ra = 1546, jump @26\n      : @1451 [@dyn 773] (gas: 13)\n 38647: a2 = s1 + 0x7ff\n 38651: a2 = a2 + 0x111\n 38655: a3 = a2 + 0x300\n 38659: a0 = u64 [a3 + 0xb8]\n 38663: a1 = u64 [a3 + 0xc0]\n 38667: a2 = u64 [a3 + 0xb0]\n 38671: a0 = a0 & 0xffffffffffffffff\n 38674: a1 = a1 & 0xffffffffffffffff\n 38677: a3 = u64 [s1 + 0x120]\n 38681: a2 = a2 & a3\n 38684: a1 = a1 | a2\n 38687: a0 = a0 | a1\n 38690: jump @1483 if a0 == 0\n      : @1452 (gas: 6)\n 38694: a5 = s1 + 0x100\n 38698: a1 = u64 [a5 + 0x48]\n 38701: a0 = a1 + 0x2\n 38704: a1 = a0 <u a1\n 38707: a3 = u64 [a5 + 0x50]\n 38710: t0 = 1548, jump @1828\n      : @1453 [@dyn 774] (gas: 15)\n 38716: a1 = u64 [a5 + 0x60]\n 38719: a3 = a3 + a1\n 38722: a1 = a3 <u a1\n 38725: a4 = u64 [a5 + 0x58]\n 38728: a1 = a1 + a4\n 38731: a4 = s1 + 0x3118\n 38735: a5 = a4 + 0x600\n 38739: u64 [a5 + 0x48] = a0\n 38742: u64 [a5 + 0x50] = a2\n 38745: u64 [a5 + 0x58] = a3\n 38748: u64 [a5 + 0x60] = a1\n 38751: a0 = s1 + 0x7ff\n 38755: a0 = a0 + 0x4a1\n 38759: a1 = s1 + 0x3760\n 38763: ra = 1550, jump @26\n      : @1454 [@dyn 775] (gas: 5)\n 38770: a0 = s1 + 0x7ff\n 38774: a0 = a0 + 0x111\n 38778: a0 = u64 [a0 + 0x398]\n 38782: a0 = a0 & 0xff\n 38786: jump @1483 if a0 != 0\n      : @1455 (gas: 14)\n 38790: a2 = s1 + 0x7ff\n 38794: a2 = a2 + 0x111\n 38798: u64 [a2 + 904] = 0\n 38802: a0 = u64 [s1 + 0x110]\n 38806: a3 = a2 + 0x300\n 38810: u64 [a3 + 0x70] = a0\n 38813: a0 = u64 [s1 + 0x118]\n 38817: u64 [a3 + 0x78] = a0\n 38820: a1 = s1 + 0x7ff\n 38824: a1 = a1 + 0x481\n 38828: a0 = u64 [s1 + 0x140]\n 38832: u64 [a3 + 0x80] = a0\n 38836: a0 = 0\n 38838: ra = 1552, jump @24\n      : @1456 [@dyn 776] (gas: 11)\n 38845: a0 = s1 + 0x7ff\n 38849: a0 = a0 + 0x111\n 38853: u64 [a0 + 872] = 0\n 38857: u64 [a0 + 864] = 0\n 38861: u64 [a0 + 856] = 0\n 38865: a3 = a0\n 38867: a0 = 0x20\n 38870: a1 = s1 + 0x7ff\n 38874: a1 = a1 + 0x461\n 38878: u64 [a3 + 848] = 0x4\n 38883: ra = 1554, jump @24\n      : @1457 [@dyn 777] (gas: 3)\n 38890: a0 = u64 [s1 + 0x178]\n 38894: a0 = i32 [a0]\n 38896: jump @1459 if a0 >u 63\n      : @1458 (gas: 4)\n 38900: a0 = u64 [s1 + 0x178]\n 38904: u32 [a0 + 0] = 0x40\n 38907: t0 = 0x614\n 38911: jump @1792\n      : @1459 (gas: 1)\n 38914: t0 = 1556, jump @1792\n      : @1460 [@dyn 778] (gas: 5)\n 38920: ra = 0x616\n 38924: ecalli 8 // 'hash_keccak_256'\n 38926: a3 = u64 [s1 + 0x168]\n 38930: t0 = 0x618\n 38934: jump @1791\n      : @1461 [@dyn 779] (gas: 2)\n 38937: a3 = u64 [s1 + 0x168]\n 38941: t0 = 1560, jump @1791\n      : @1462 [@dyn 780] (gas: 11)\n 38947: a2 = s1 + 0x7ff\n 38951: a2 = a2 + 0x111\n 38955: u64 [a2 + 840] = 0\n 38959: u64 [a2 + 832] = 0\n 38963: u64 [a2 + 824] = 0\n 38967: a1 = s1 + 0x7ff\n 38971: a1 = a1 + 0x441\n 38975: a0 = u64 [s1 + 0x100]\n 38979: u64 [a2 + 0x330] = a0\n 38983: a0 = 0\n 38985: ra = 1562, jump @24\n      : @1463 [@dyn 781] (gas: 16)\n 38992: a0 = u64 [s1 + 0x150]\n 38996: a1 = s1 + 0x7ff\n 39000: a1 = a1 + 0x111\n 39004: a2 = a1 + 0x300\n 39008: u64 [a2 + 0x28] = a0\n 39011: a0 = u64 [s1 + 0x158]\n 39015: u64 [a2 + 0x20] = a0\n 39018: a0 = u64 [s1 + 0x160]\n 39022: u64 [a2 + 0x18] = a0\n 39025: a3 = a1\n 39027: a0 = 0x20\n 39030: a1 = s1 + 0x7ff\n 39034: a1 = a1 + 0x421\n 39038: a2 = u64 [s1 + 0x168]\n 39042: u64 [a3 + 0x310] = a2\n 39046: ra = 1564, jump @24\n      : @1464 [@dyn 782] (gas: 3)\n 39053: a0 = u64 [s1 + 0x178]\n 39057: a0 = i32 [a0]\n 39059: jump @1466 if a0 >u 63\n      : @1465 (gas: 4)\n 39063: a0 = u64 [s1 + 0x178]\n 39067: u32 [a0 + 0] = 0x40\n 39070: t0 = 0x61e\n 39074: jump @1792\n      : @1466 (gas: 1)\n 39077: t0 = 1566, jump @1792\n      : @1467 [@dyn 783] (gas: 4)\n 39083: ra = 0x620\n 39087: ecalli 8 // 'hash_keccak_256'\n 39089: t0 = 0x622\n 39093: jump @1789\n      : @1468 [@dyn 784] (gas: 1)\n 39096: t0 = 1570, jump @1789\n      : @1469 [@dyn 785] (gas: 11)\n 39102: u64 [a2 + 0x308] = a0\n 39106: a0 = u64 [s1 + 0x190]\n 39110: u64 [a2 + 0x300] = a0\n 39114: a0 = u64 [s1 + 0x188]\n 39118: u64 [a2 + 0x2f8] = a0\n 39122: a1 = s1 + 0x7ff\n 39126: a1 = a1 + 0x401\n 39130: a0 = u64 [s1 + 0x180]\n 39134: u64 [a2 + 0x2f0] = a0\n 39138: a0 = 0\n 39140: ra = 1572, jump @24\n      : @1470 [@dyn 786] (gas: 5)\n 39147: a0 = u64 [s1 + 0x148]\n 39151: a1 = s1 + 0x7ff\n 39155: a1 = a1 + 0x111\n 39159: a2 = a1 + 0x200\n 39163: t0 = 1574, jump @1856\n      : @1471 [@dyn 787] (gas: 4)\n 39169: a1 = a1 + 0x3e1\n 39173: a2 = u64 [s1 + 0x160]\n 39177: u64 [a3 + 0x2d0] = a2\n 39181: ra = 1576, jump @24\n      : @1472 [@dyn 788] (gas: 3)\n 39188: a0 = u64 [s1 + 0x178]\n 39192: a0 = i32 [a0]\n 39194: jump @1474 if a0 >u 63\n      : @1473 (gas: 3)\n 39198: a0 = u64 [s1 + 0x178]\n 39202: u32 [a0 + 0] = 0x40\n 39205: fallthrough\n      : @1474 (gas: 4)\n 39206: a0 = sp + 0xffffffffffffffe0\n 39209: a0 = a0 & 0xffffffffffffffe0\n 39212: u64 [s1 + 0x160] = a0\n 39216: t0 = 1578, jump @1798\n      : @1475 [@dyn 789] (gas: 4)\n 39222: ra = 0x62c\n 39226: ecalli 8 // 'hash_keccak_256'\n 39228: t0 = 0x62e\n 39232: jump @1799\n      : @1476 [@dyn 790] (gas: 1)\n 39235: t0 = 1582, jump @1799\n      : @1477 [@dyn 791] (gas: 3)\n 39241: a0 = s1 + 0x7ff\n 39245: a0 = a0 + 0x3c1\n 39249: ra = 1584, jump @26\n      : @1478 [@dyn 792] (gas: 5)\n 39256: a0 = s1 + 0x7ff\n 39260: a0 = a0 + 0x111\n 39264: a0 = u64 [a0 + 0x2b0]\n 39268: a1 = a0 & 0xff\n 39272: jump @1483 if a1 == 0\n      : @1479 (gas: 2)\n 39276: a0 = a0 & 0xff0000\n 39282: jump @1483 if a0 != 0\n      : @1480 (gas: 35)\n 39286: a1 = s1 + 0x7ff\n 39290: a1 = a1 + 0x111\n 39294: a0 = u64 [s1 + 0x180]\n 39298: a2 = a1 + 0x200\n 39302: u64 [a2 + 0x50] = a0\n 39305: a0 = u64 [s1 + 0x100]\n 39309: u64 [a2 + 0x70] = a0\n 39312: a0 = u64 [s1 + 0x110]\n 39316: u64 [a2 + 0x90] = a0\n 39320: a0 = u64 [s1 + 0x188]\n 39324: u64 [a2 + 0x58] = a0\n 39327: a0 = u64 [s1 + 0xc0]\n 39331: u64 [a2 + 0x78] = a0\n 39334: a0 = u64 [s1 + 0x118]\n 39338: u64 [a2 + 0x98] = a0\n 39342: a0 = u64 [s1 + 0x190]\n 39346: u64 [a2 + 0x60] = a0\n 39349: a0 = u64 [s1 + 0xc8]\n 39353: u64 [a2 + 0x80] = a0\n 39357: a0 = u64 [s1 + 0xe0]\n 39361: u64 [a2 + 0xa0] = a0\n 39365: a0 = u64 [s1 + 0x198]\n 39369: u64 [a2 + 0x68] = a0\n 39372: a0 = u64 [s1 + 0xd0]\n 39376: u64 [a2 + 0x88] = a0\n 39380: a4 = a1\n 39382: a0 = s1 + 0x7ff\n 39386: a0 = a0 + 0x3a1\n 39390: a1 = s1 + 0x7ff\n 39394: a1 = a1 + 0x381\n 39398: a2 = s1 + 0x7ff\n 39402: a2 = a2 + 0x361\n 39406: a3 = u64 [s1 + 0xd8]\n 39410: u64 [a4 + 0x2a8] = a3\n 39414: ra = 1586, jump @1668\n      : @1481 [@dyn 793] (gas: 16)\n 39420: a0 = u64 [s1 + 0xe8]\n 39424: a3 = s1 + 0x7ff\n 39428: a3 = a3 + 0x111\n 39432: a4 = a3 + 0x200\n 39436: u64 [a4 + 0x28] = a0\n 39439: a0 = u64 [s1 + 0xf0]\n 39443: u64 [a4 + 0x20] = a0\n 39446: a0 = u64 [s1 + 0xf8]\n 39450: u64 [a4 + 0x18] = a0\n 39453: a0 = s1 + 0x7ff\n 39457: a0 = a0 + 0x341\n 39461: a1 = s1 + 0x7ff\n 39465: a1 = a1 + 0x321\n 39469: a2 = u64 [s1 + 0x138]\n 39473: u64 [a4 + 0x10] = a2\n 39476: ra = 1588, jump @1632\n      : @1482 [@dyn 794] (gas: 12)\n 39482: a1 = s1 + 0x7ff\n 39486: a1 = a1 + 0x111\n 39490: a2 = a1 + 0x200\n 39494: a0 = u64 [a2 + 0x48]\n 39497: u64 [s1 + 0xe8] = a0\n 39501: a0 = u64 [a2 + 0x40]\n 39504: u64 [s1 + 0xf0] = a0\n 39508: a0 = u64 [a2 + 0x38]\n 39511: u64 [s1 + 0xf8] = a0\n 39515: a0 = u64 [a2 + 0x30]\n 39518: u64 [s1 + 0x138] = a0\n 39522: fallthrough\n      : @1483 (gas: 16)\n 39523: a3 = s1 + 0x7ff\n 39527: a3 = a3 + 0x111\n 39531: a0 = u64 [s1 + 0x180]\n 39535: a4 = a3 + 0x100\n 39539: u64 [a4 + 0xd0] = a0\n 39543: a0 = u64 [s1 + 0x188]\n 39547: u64 [a4 + 0xd8] = a0\n 39551: a0 = u64 [s1 + 0x190]\n 39555: u64 [a4 + 0xe0] = a0\n 39559: a0 = s1 + 0x7ff\n 39563: a0 = a0 + 0x301\n 39567: a1 = s1 + 0x7ff\n 39571: a1 = a1 + 0x2e1\n 39575: a2 = u64 [s1 + 0x198]\n 39579: u64 [a4 + 0xe8] = a2\n 39583: ra = 1590, jump @1632\n      : @1484 [@dyn 795] (gas: 11)\n 39589: a1 = s1 + 0x7ff\n 39593: a1 = a1 + 0x111\n 39597: a0 = u64 [a1 + 0x208]\n 39601: a2 = s1 + 0x100\n 39605: u64 [a2 + 0x98] = a0\n 39609: a0 = u64 [a1 + 0x200]\n 39613: u64 [a2 + 0x90] = a0\n 39617: a0 = u64 [a1 + 0x1f8]\n 39621: u64 [a2 + 0x88] = a0\n 39625: a0 = u64 [a1 + 0x1f0]\n 39629: jump @1433\n      : @1485 (gas: 11)\n 39632: a2 = s1 + 0x7ff\n 39636: a2 = a2 + 0x111\n 39640: u64 [a2 + 1248] = 0\n 39644: u64 [a2 + 1240] = 0\n 39648: a0 = 0xcf114bd900000000\n 39658: u64 [a2 + 0x4e8] = a0\n 39662: a1 = s1 + 0x7ff\n 39666: a1 = a1 + 0x5e1\n 39670: u64 [a2 + 1232] = 0\n 39674: a0 = 0\n 39676: ra = 1592, jump @24\n      : @1486 [@dyn 796] (gas: 2)\n 39683: a1 = i32 [0x20180]\n 39688: jump @1488 if a1 >u 31\n      : @1487 (gas: 3)\n 39692: u32 [0x20180] = 0x20\n 39698: a1 = 0x20190\n 39703: jump @1123\n      : @1488 (gas: 2)\n 39706: a1 = 0x20190\n 39711: jump @1123\n      : @1489 (gas: 11)\n 39714: a2 = s1 + 0x7ff\n 39718: a2 = a2 + 0x111\n 39722: u64 [a2 + 1216] = 0\n 39726: u64 [a2 + 1208] = 0\n 39730: a0 = 0x7862e95900000000\n 39740: u64 [a2 + 0x4c8] = a0\n 39744: a1 = s1 + 0x7ff\n 39748: a1 = a1 + 0x5c1\n 39752: u64 [a2 + 1200] = 0\n 39756: a0 = 0\n 39758: ra = 1594, jump @24\n      : @1490 [@dyn 797] (gas: 2)\n 39765: a1 = i32 [0x20180]\n 39770: jump @1492 if a1 >u 31\n      : @1491 (gas: 3)\n 39774: u32 [0x20180] = 0x20\n 39780: a1 = 0x20190\n 39785: jump @1123\n      : @1492 (gas: 2)\n 39788: a1 = 0x20190\n 39793: jump @1123\n      : @1493 (gas: 3)\n 39796: a0 = 0\n 39798: a1 = u64 [s1 + 0x170]\n 39802: jump @1233\n      : @1494 [@dyn 798] (gas: 2)\n 39805: ecalli 2 // 'call_data_load'\n 39807: fallthrough\n      : @1495 (gas: 10)\n 39808: a0 = u64 [sp + 0x10]\n 39811: a1 = u64 [sp + 0x18]\n 39814: a2 = 0x100000000\n 39824: a2 = a2 ^ a0\n 39827: a2 = a2 | a1\n 39830: a3 = a0 >> 0x20\n 39833: a3 = a3 <u 0x1\n 39836: a3 = 0 if a1 != 0\n 39838: a3 = 0 if a2 == 0\n 39840: jump @1497 if a3 == 0\n      : @1496 (gas: 12)\n 39843: a2 = u64 [sp]\n 39845: a3 = u64 [sp + 0x8]\n 39848: u64 [s1] = a2\n 39850: u64 [s1 + 0x8] = a3\n 39853: u64 [s1 + 0x10] = a0\n 39856: u64 [s1 + 0x18] = a1\n 39859: sp = s0 + 0xffffffffffffffc0\n 39862: ra = u64 [sp + 0x38]\n 39865: s0 = u64 [sp + 0x30]\n 39868: s1 = u64 [sp + 0x28]\n 39871: sp = sp + 0x40\n 39874: ret\n      : @1497 (gas: 8)\n 39876: a1 = 0x20190\n 39881: i32 a1 = a1 + 0\n 39883: a0 = 0x1\n 39886: a2 = 0\n 39888: ra = 0x63e\n 39892: ecalli 13 // 'seal_return'\n 39894: t0 = 0x640\n 39898: jump @1875\n      : @1498 [@dyn 799] (gas: 1)\n 39901: t0 = 1600, jump @1875\n      : @1499 [@dyn 800] (gas: 3)\n 39907: a1 = 0x24\n 39910: ecalli 2 // 'call_data_load'\n 39912: fallthrough\n      : @1500 (gas: 7)\n 39913: a0 = u64 [sp + 0x18]\n 39916: a1 = u64 [sp + 0x10]\n 39919: a2 = u64 [sp + 0x8]\n 39922: a3 = a1 | a0\n 39925: a4 = a2 <u 0x1\n 39928: a4 = 0 if a3 != 0\n 39930: jump @1503 if a4 == 0\n      : @1501 (gas: 2)\n 39933: a3 = u64 [sp]\n 39935: t0 = 1602, jump @1832\n      : @1502 [@dyn 801] (gas: 1)\n 39941: ret\n      : @1503 (gas: 8)\n 39943: a1 = 0x20190\n 39948: i32 a1 = a1 + 0\n 39950: a0 = 0x1\n 39953: a2 = 0\n 39955: ra = 0x644\n 39959: ecalli 13 // 'seal_return'\n 39961: t0 = 0x646\n 39965: jump @1875\n      : @1504 [@dyn 802] (gas: 1)\n 39968: t0 = 1606, jump @1875\n      : @1505 [@dyn 803] (gas: 5)\n 39974: a1 = 0x44\n 39977: ra = 0x648\n 39981: ecalli 2 // 'call_data_load'\n 39983: t0 = 0x64a\n 39987: jump @1844\n      : @1506 [@dyn 804] (gas: 1)\n 39990: t0 = 1610, jump @1844\n      : @1507 [@dyn 805] (gas: 1)\n 39996: jump @1510 if a4 != 0\n      : @1508 (gas: 1)\n 39999: t0 = 1612, jump @1832\n      : @1509 [@dyn 806] (gas: 1)\n 40005: ret\n      : @1510 (gas: 8)\n 40007: a1 = 0x20190\n 40012: i32 a1 = a1 + 0\n 40014: a0 = 0x1\n 40017: a2 = 0\n 40019: ra = 0x64e\n 40023: ecalli 13 // 'seal_return'\n 40025: t0 = 0x650\n 40029: jump @1863\n      : @1511 [@dyn 807] (gas: 1)\n 40032: t0 = 1616, jump @1863\n      : @1512 [@dyn 808] (gas: 4)\n 40038: ra = 0x652\n 40042: ecalli 2 // 'call_data_load'\n 40044: t0 = 0x654\n 40048: jump @1844\n      : @1513 [@dyn 809] (gas: 1)\n 40051: t0 = 1620, jump @1844\n      : @1514 [@dyn 810] (gas: 1)\n 40057: jump @1517 if a4 != 0\n      : @1515 (gas: 1)\n 40060: t0 = 1622, jump @1832\n      : @1516 [@dyn 811] (gas: 1)\n 40066: ret\n      : @1517 (gas: 7)\n 40068: a1 = 0x20190\n 40073: i32 a1 = a1 + 0\n 40075: a0 = 0x1\n 40078: a2 = 0\n 40080: ra = 0x658\n 40084: ecalli 13 // 'seal_return'\n 40086: fallthrough\n      : @1518 [@dyn 812] (gas: 21)\n 40087: sp = sp + 0xffffffffffffff10\n 40091: u64 [sp + 0xe8] = ra\n 40095: u64 [sp + 0xe0] = s0\n 40099: u64 [sp + 0xd8] = s1\n 40103: s0 = sp + 0xf0\n 40107: sp = sp & 0xfffffffffffffff0\n 40110: a5 = u64 [a1 + 0x10]\n 40113: a4 = u64 [a1 + 0x18]\n 40116: a3 = u64 [a1 + 0x8]\n 40119: a1 = u64 [a1]\n 40121: u64 [sp + 0x28] = a3\n 40124: u64 [sp + 0x18] = a4\n 40127: a4 = a4 | a3\n 40130: a3 = a1 | a5\n 40133: a3 = a3 | a4\n 40136: a3 = a3 >> 0x20\n 40139: u64 [sp + 0x20] = a5\n 40142: a4 = a4 | a5\n 40145: a4 = a4 << 0x20\n 40148: a3 = a3 | a4\n 40151: jump @1533 if a3 != 0\n      : @1519 (gas: 11)\n 40155: u64 [sp + 0x8] = a0\n 40158: a0 = u64 [a2 + 0x18]\n 40161: u64 [sp + 0x68] = a0\n 40164: s1 = u64 [a2 + 0x10]\n 40167: a0 = u64 [a2 + 0x8]\n 40170: u64 [sp + 0x60] = a0\n 40173: a0 = u64 [a2]\n 40175: u64 [sp + 0x58] = a0\n 40178: a0 = sp + 0xb0\n 40182: u64 [sp + 0x10] = a1\n 40185: ra = 1626, jump @22\n      : @1520 [@dyn 813] (gas: 12)\n 40192: a0 = u64 [sp + 0x58]\n 40195: a2 = a0 | s1\n 40198: a1 = u64 [sp + 0x68]\n 40201: a3 = u64 [sp + 0x60]\n 40204: a1 = a1 | a3\n 40207: a2 = a2 | a1\n 40210: a2 = a2 >> 0x20\n 40213: u64 [sp + 0x50] = s1\n 40216: a1 = a1 | s1\n 40219: a1 = a1 << 0x20\n 40222: a1 = a1 | a2\n 40225: jump @1533 if a1 != 0\n      : @1521 (gas: 15)\n 40229: a2 = u64 [sp + 0xc8]\n 40233: a3 = u64 [sp + 0xc0]\n 40237: a4 = u64 [sp + 0xb8]\n 40241: a1 = u64 [sp + 0xb0]\n 40245: u64 [sp + 0x30] = a1\n 40248: u64 [sp + 0x90] = a1\n 40252: u64 [sp + 0x38] = a4\n 40255: u64 [sp + 0x98] = a4\n 40259: u64 [sp + 0x40] = a3\n 40262: u64 [sp + 0xa0] = a3\n 40266: a1 = sp + 0x90\n 40270: u64 [sp + 0x48] = a2\n 40273: u64 [sp + 0xa8] = a2\n 40277: s1 = a0\n 40279: ra = 1628, jump @24\n      : @1522 [@dyn 814] (gas: 9)\n 40286: a0 = u64 [sp + 0x68]\n 40289: a1 = u64 [sp + 0x50]\n 40292: a1 = a1 | a0\n 40295: a0 = 0xffffffe0\n 40305: a2 = s1 <u a0\n 40308: a3 = u64 [sp + 0x60]\n 40311: a2 = 0 if a3 != 0\n 40313: a2 = 0 if a1 != 0\n 40315: jump @1533 if a2 == 0\n      : @1523 (gas: 9)\n 40319: a1 = u64 [sp + 0x20]\n 40322: a2 = u64 [sp + 0x18]\n 40325: a1 = a1 | a2\n 40328: a2 = u64 [sp + 0x10]\n 40331: a0 = a2 <u a0\n 40334: a3 = u64 [sp + 0x28]\n 40337: a0 = 0 if a3 != 0\n 40339: a0 = 0 if a1 != 0\n 40341: jump @1533 if a0 == 0\n      : @1524 (gas: 13)\n 40345: a5 = s1\n 40347: s1 = u64 [sp + 0x30]\n 40350: a3 = u64 [sp + 0x40]\n 40353: a0 = s1 | a3\n 40356: a1 = u64 [sp + 0x48]\n 40359: a4 = u64 [sp + 0x38]\n 40362: a1 = a1 | a4\n 40365: a0 = a0 | a1\n 40368: a0 = a0 >> 0x20\n 40371: a1 = a1 | a3\n 40374: a1 = a1 << 0x20\n 40377: a0 = a0 | a1\n 40380: jump @1533 if a0 != 0\n      : @1525 (gas: 5)\n 40384: i32 a0 = a5 + 0x20\n 40387: i32 a1 = a2 + 0x20\n 40390: u64 [sp + 0x28] = a1\n 40393: a1 = s1\n 40395: ra = 1630, jump @37\n      : @1526 [@dyn 815] (gas: 4)\n 40402: u64 [sp + 0x20] = a0\n 40405: a0 = u64 [sp + 0x28]\n 40408: a1 = s1\n 40410: ra = 1632, jump @37\n      : @1527 [@dyn 816] (gas: 4)\n 40417: a1 = a0\n 40419: a0 = u64 [sp + 0x20]\n 40422: a2 = s1\n 40424: ra = 1634, jump @0\n      : @1528 [@dyn 817] (gas: 7)\n 40431: a0 = u64 [sp + 0x58]\n 40434: a0 = a0 + s1\n 40437: a1 = a0 <u s1\n 40440: a2 = u64 [sp + 0x60]\n 40443: a4 = u64 [sp + 0x38]\n 40446: a2 = a2 + a4\n 40449: t0 = 1636, jump @1841\n      : @1529 [@dyn 818] (gas: 17)\n 40455: a1 = u64 [sp + 0x50]\n 40458: a3 = u64 [sp + 0x40]\n 40461: a1 = a1 + a3\n 40464: a3 = a1 <u a3\n 40467: a5 = u64 [sp + 0x68]\n 40470: s1 = u64 [sp + 0x48]\n 40473: a5 = a5 + s1\n 40476: a3 = a3 + a5\n 40479: a4 = a4 + a1\n 40482: a1 = a4 <u a1\n 40485: a1 = a1 + a3\n 40488: a1 = a1 | a4\n 40491: a3 = 0xffffffe0\n 40501: a3 = a0 <u a3\n 40504: a3 = 0 if a2 != 0\n 40506: a3 = 0 if a1 != 0\n 40508: jump @1533 if a3 == 0\n      : @1530 (gas: 7)\n 40512: i32 a0 = a0 + 0x20\n 40515: u64 [sp + 136] = 0\n 40519: u64 [sp + 128] = 0\n 40523: u64 [sp + 120] = 0\n 40526: a1 = sp + 0x70\n 40529: u64 [sp + 112] = 0\n 40532: ra = 1638, jump @24\n      : @1531 [@dyn 819] (gas: 9)\n 40539: s1 = u64 [sp + 0x30]\n 40542: s1 = s1 + 0x1f\n 40545: a0 = 0x1ffffffe0\n 40555: a0 = a0 & s1\n 40558: a1 = u64 [sp + 0x58]\n 40561: a0 = a0 + a1\n 40564: a1 = a0 <u a1\n 40567: a3 = u64 [sp + 0x60]\n 40570: t0 = 1640, jump @1828\n      : @1532 [@dyn 820] (gas: 24)\n 40576: a1 = u64 [sp + 0x50]\n 40579: a3 = a3 + a1\n 40582: a1 = a3 <u a1\n 40585: a4 = u64 [sp + 0x68]\n 40588: a1 = a1 + a4\n 40591: a4 = a0 + 0x20\n 40594: a0 = a4 <u a0\n 40597: a5 = a2 + a0\n 40600: a2 = a5 <u a2\n 40603: a2 = a0 if a0 == 0\n 40606: a2 = a2 + a3\n 40609: a0 = a2 <u a3\n 40612: a0 = a0 + a1\n 40615: a1 = u64 [sp + 0x8]\n 40618: u64 [a1] = a4\n 40620: u64 [a1 + 0x8] = a5\n 40623: u64 [a1 + 0x10] = a2\n 40626: u64 [a1 + 0x18] = a0\n 40629: sp = s0 + 0xffffffffffffff10\n 40633: ra = u64 [sp + 0xe8]\n 40637: s0 = u64 [sp + 0xe0]\n 40641: s1 = u64 [sp + 0xd8]\n 40645: sp = sp + 0xf0\n 40649: ret\n      : @1533 (gas: 1)\n 40651: trap\n      : @1534 (gas: 33)\n 40652: sp = sp + 0xffffffffffffffa0\n 40655: u64 [sp + 0x58] = ra\n 40658: u64 [sp + 0x50] = s0\n 40661: u64 [sp + 0x48] = s1\n 40664: s0 = sp + 0x60\n 40667: sp = sp & 0xfffffffffffffff0\n 40670: a2 = u64 [a1 + 0x10]\n 40673: a5 = u64 [a1 + 0x8]\n 40676: a4 = u64 [a1]\n 40678: a1 = u64 [a1 + 0x18]\n 40681: t0 = a2 << 0x3f\n 40684: a3 = a5 >> 0x1\n 40687: t0 = a3 | t0\n 40690: a3 = a1 << 0x3f\n 40693: a2 = a2 >> 0x1\n 40696: a3 = a3 | a2\n 40699: a5 = a5 << 0x3f\n 40702: a2 = a4 >> 0x1\n 40705: a5 = a5 | a2\n 40708: t1 = a1 >> 0x1\n 40711: a4 = a4 & 0x1\n 40714: a1 = -a4\n 40716: s1 = a4 <u 0x1\n 40719: a2 = a5 & 0x7f\n 40722: t2 = a1 & a3\n 40725: a3 = a1 & t0\n 40728: a2 = a5 if a4 != 0\n 40731: a4 = a1 & t1\n 40734: a1 = a2 <u 0x20\n 40737: a1 = 0 if a3 != 0\n 40739: a5 = t2 | a4\n 40742: a1 = 0 if a5 != 0\n 40744: jump @1537 if s1 != a1\n      : @1535 (gas: 5)\n 40747: u64 [a0] = a2\n 40749: u64 [a0 + 0x8] = a3\n 40752: u64 [a0 + 0x10] = t2\n 40755: u64 [a0 + 0x18] = a4\n 40758: t0 = 1642, jump @1864\n      : @1536 [@dyn 821] (gas: 1)\n 40764: ret\n      : @1537 (gas: 1)\n 40766: t0 = 1644, jump @1797\n      : @1538 [@dyn 822] (gas: 1)\n 40772: ra = 1646, jump @24\n      : @1539 [@dyn 823] (gas: 7)\n 40779: u64 [sp + 24] = 0\n 40782: u64 [sp + 16] = 0\n 40785: u64 [sp + 0] = 0x22\n 40788: a0 = 0x4\n 40791: a1 = sp\n 40793: u64 [sp + 8] = 0\n 40796: ra = 1648, jump @24\n      : @1540 [@dyn 824] (gas: 2)\n 40803: a1 = i32 [0x20180]\n 40808: jump @1542 if a1 >u 63\n      : @1541 (gas: 2)\n 40812: u32 [0x20180] = 0x40\n 40818: fallthrough\n      : @1542 (gas: 8)\n 40819: a1 = 0x20190\n 40824: i32 a1 = a1 + 0\n 40826: a0 = 0x1\n 40829: a2 = 0x24\n 40832: ra = 0x672\n 40836: ecalli 13 // 'seal_return'\n 40838: t0 = 0x674\n 40842: jump @1831\n      : @1543 [@dyn 825] (gas: 1)\n 40845: t0 = 1652, jump @1831\n      : @1544 [@dyn 826] (gas: 7)\n 40851: t0 = a0 >u 0\n 40853: a4 = t1 <u 0xffffffffffffff80\n 40856: a4 = a4 ^ 0x1\n 40859: a4 = t0 if a0 != 0\n 40862: a1 = a2 | a3\n 40865: a4 = a5 if a1 != 0\n 40868: jump @1548 if a4 != 0\n      : @1545 (gas: 2)\n 40871: a1 = t1 + 0x80\n 40875: t0 = 1654, jump @1823\n      : @1546 [@dyn 827] (gas: 1)\n 40881: ra = 1656, jump @24\n      : @1547 [@dyn 828] (gas: 5)\n 40888: sp = s0 + 0xffffffffffffff90\n 40891: ra = u64 [sp + 0x68]\n 40894: s0 = u64 [sp + 0x60]\n 40897: sp = sp + 0x70\n 40900: ret\n      : @1548 (gas: 1)\n 40902: t0 = 1658, jump @1797\n      : @1549 [@dyn 829] (gas: 1)\n 40908: ra = 1660, jump @24\n      : @1550 [@dyn 830] (gas: 1)\n 40915: t0 = 1662, jump @1835\n      : @1551 [@dyn 831] (gas: 1)\n 40921: ra = 1664, jump @24\n      : @1552 [@dyn 832] (gas: 2)\n 40928: a1 = i32 [0x20180]\n 40933: jump @1554 if a1 >u 63\n      : @1553 (gas: 2)\n 40937: u32 [0x20180] = 0x40\n 40943: fallthrough\n      : @1554 (gas: 8)\n 40944: a1 = 0x20190\n 40949: i32 a1 = a1 + 0\n 40951: a0 = 0x1\n 40954: a2 = 0x24\n 40957: ra = 0x682\n 40961: ecalli 13 // 'seal_return'\n 40963: t0 = 0x684\n 40967: jump @1831\n      : @1555 [@dyn 833] (gas: 1)\n 40970: t0 = 1668, jump @1831\n      : @1556 [@dyn 834] (gas: 7)\n 40976: t0 = a0 >u 0\n 40978: a4 = t1 <u 0xffffffffffffff60\n 40982: a4 = a4 ^ 0x1\n 40985: a4 = t0 if a0 != 0\n 40988: a1 = a2 | a3\n 40991: a4 = a5 if a1 != 0\n 40994: jump @1560 if a4 != 0\n      : @1557 (gas: 2)\n 40997: a1 = t1 + 0xa0\n 41001: t0 = 1670, jump @1823\n      : @1558 [@dyn 835] (gas: 1)\n 41007: ra = 1672, jump @24\n      : @1559 [@dyn 836] (gas: 5)\n 41014: sp = s0 + 0xffffffffffffff90\n 41017: ra = u64 [sp + 0x68]\n 41020: s0 = u64 [sp + 0x60]\n 41023: sp = sp + 0x70\n 41026: ret\n      : @1560 (gas: 1)\n 41028: t0 = 1674, jump @1797\n      : @1561 [@dyn 837] (gas: 1)\n 41034: ra = 1676, jump @24\n      : @1562 [@dyn 838] (gas: 1)\n 41041: t0 = 1678, jump @1835\n      : @1563 [@dyn 839] (gas: 1)\n 41047: ra = 1680, jump @24\n      : @1564 [@dyn 840] (gas: 2)\n 41054: a1 = i32 [0x20180]\n 41059: jump @1566 if a1 >u 63\n      : @1565 (gas: 2)\n 41063: u32 [0x20180] = 0x40\n 41069: fallthrough\n      : @1566 (gas: 7)\n 41070: a1 = 0x20190\n 41075: i32 a1 = a1 + 0\n 41077: a0 = 0x1\n 41080: a2 = 0x24\n 41083: ra = 0x692\n 41087: ecalli 13 // 'seal_return'\n 41089: fallthrough\n      : @1567 [@dyn 841] (gas: 46)\n 41090: sp = sp + 0xffffffffffffff70\n 41094: u64 [sp + 0x88] = ra\n 41098: u64 [sp + 0x80] = s0\n 41102: u64 [sp + 0x78] = s1\n 41105: s0 = sp + 0x90\n 41109: sp = sp & 0xfffffffffffffff0\n 41112: t0 = a0\n 41114: a2 = u64 [a1]\n 41116: t2 = u64 [a0 + 0x8]\n 41119: a5 = u64 [a1 + 0x8]\n 41122: t1 = u64 [a0]\n 41124: a3 = a2 + 0x1f\n 41127: ra = a3 <u a2\n 41130: a2 = a5 + ra\n 41133: a3 = a3 & 0xffffffffffffffe0\n 41136: u64 [sp + 0x8] = t1\n 41139: t1 = t1 + a3\n 41142: a4 = t1 <u a3\n 41145: a3 = a2 + t2\n 41148: a3 = a3 + a4\n 41151: s1 = a3 ^ a2\n 41154: a0 = a3 <u a2\n 41157: a0 = a4 if s1 == 0\n 41160: a4 = u64 [t0 + 0x18]\n 41163: a5 = a2 <u a5\n 41166: s1 = u64 [a1 + 0x10]\n 41169: t0 = u64 [t0 + 0x10]\n 41172: a1 = u64 [a1 + 0x18]\n 41175: a5 = ra if ra == 0\n 41178: a5 = a5 + s1\n 41181: s1 = a5 <u s1\n 41184: a2 = a5 + t0\n 41187: a0 = a0 + a2\n 41190: a5 = a2 <u a5\n 41193: a2 = a0 <u a2\n 41196: a1 = a1 + a4\n 41199: a1 = a1 + s1\n 41202: a1 = a1 + a5\n 41205: a5 = a1 + a2\n 41208: a1 = a5 >u 0\n 41210: a2 = a0 >u 0\n 41212: a2 = a1 if a5 != 0\n 41215: a1 = a0 | a5\n 41218: s1 = a3 >u 0\n 41220: s1 = a2 if a1 != 0\n 41223: jump @1571 if s1 != 0\n      : @1568 (gas: 13)\n 41226: a1 = u64 [sp + 0x8]\n 41229: a1 = t1 <u a1\n 41232: a2 = a3 ^ t2\n 41235: s1 = a3 <u t2\n 41238: s1 = a1 if a2 == 0\n 41241: a1 = a0 <u t0\n 41244: a2 = a5 ^ a4\n 41247: a4 = a5 <u a4\n 41250: a4 = a1 if a2 == 0\n 41253: a1 = a0 ^ t0\n 41256: a1 = a1 | a2\n 41259: a4 = s1 if a1 == 0\n 41262: jump @1571 if a4 != 0\n      : @1569 (gas: 7)\n 41265: u64 [sp + 0x50] = t1\n 41268: u64 [sp + 0x58] = a3\n 41271: u64 [sp + 0x60] = a0\n 41274: a0 = 0x40\n 41277: a1 = sp + 0x50\n 41280: u64 [sp + 0x68] = a5\n 41283: ra = 1684, jump @24\n      : @1570 [@dyn 842] (gas: 6)\n 41290: sp = s0 + 0xffffffffffffff70\n 41294: ra = u64 [sp + 0x88]\n 41298: s0 = u64 [sp + 0x80]\n 41302: s1 = u64 [sp + 0x78]\n 41305: sp = sp + 0x90\n 41309: ret\n      : @1571 (gas: 1)\n 41311: t0 = 1686, jump @1860\n      : @1572 [@dyn 843] (gas: 1)\n 41317: ra = 1688, jump @24\n      : @1573 [@dyn 844] (gas: 7)\n 41324: u64 [sp + 40] = 0\n 41327: u64 [sp + 32] = 0\n 41330: u64 [sp + 16] = 0x41\n 41334: a0 = 0x4\n 41337: a1 = sp + 0x10\n 41340: u64 [sp + 24] = 0\n 41343: ra = 1690, jump @24\n      : @1574 [@dyn 845] (gas: 2)\n 41350: a1 = i32 [0x20180]\n 41355: jump @1576 if a1 >u 63\n      : @1575 (gas: 2)\n 41359: u32 [0x20180] = 0x40\n 41365: fallthrough\n      : @1576 (gas: 7)\n 41366: a1 = 0x20190\n 41371: i32 a1 = a1 + 0\n 41373: a0 = 0x1\n 41376: a2 = 0x24\n 41379: ra = 0x69c\n 41383: ecalli 13 // 'seal_return'\n 41385: fallthrough\n      : @1577 [@dyn 846] (gas: 24)\n 41386: sp = sp + 0xfffffffffffffda0\n 41390: a2 = sp + 0x200\n 41394: u64 [a2 + 0x58] = ra\n 41397: u64 [a2 + 0x50] = s0\n 41400: u64 [a2 + 0x48] = s1\n 41403: s0 = sp + 0x260\n 41407: sp = sp & 0xffffffffffffffe0\n 41410: s1 = sp\n 41412: u64 [s1 + 0x10] = a0\n 41415: a0 = u64 [a1 + 0x18]\n 41418: a2 = u64 [a1 + 0x10]\n 41421: a3 = u64 [a1 + 0x8]\n 41424: a1 = u64 [a1]\n 41426: u64 [s1 + 0xb0] = a0\n 41430: u64 [s1 + 0x238] = a0\n 41434: u64 [s1 + 0xa8] = a2\n 41438: u64 [s1 + 0x230] = a2\n 41442: u64 [s1 + 0xa0] = a3\n 41446: u64 [s1 + 0x228] = a3\n 41450: u64 [s1 + 0x98] = a1\n 41454: u64 [s1 + 0x220] = a1\n 41458: a0 = s1 + 0x200\n 41462: a1 = 0x40\n 41465: ra = 1694, jump @22\n      : @1578 [@dyn 847] (gas: 12)\n 41472: a1 = s1 + 0x200\n 41476: a0 = u64 [a1 + 0x18]\n 41479: u64 [s1 + 0x18] = a0\n 41482: a0 = u64 [a1 + 0x10]\n 41485: u64 [s1 + 0x20] = a0\n 41488: a0 = u64 [a1 + 0x8]\n 41491: u64 [s1 + 0x28] = a0\n 41494: a0 = u64 [a1]\n 41496: u64 [s1 + 0x30] = a0\n 41499: a0 = s1 + 0x1e0\n 41503: a1 = s1 + 0x220\n 41507: ra = 1696, jump @26\n      : @1579 [@dyn 848] (gas: 16)\n 41514: a4 = s1 + 0x100\n 41518: a0 = u64 [a4 + 0xf8]\n 41522: a1 = u64 [a4 + 0xf0]\n 41526: a2 = u64 [a4 + 0xe8]\n 41530: a3 = u64 [a4 + 0xe0]\n 41534: u64 [s1 + 0x90] = a0\n 41538: u64 [a4 + 0xb8] = a0\n 41542: u64 [s1 + 0x88] = a1\n 41546: u64 [a4 + 0xb0] = a1\n 41550: u64 [s1 + 0x80] = a2\n 41554: u64 [a4 + 0xa8] = a2\n 41558: a0 = s1 + 0x1c0\n 41562: a1 = s1 + 0x1a0\n 41566: u64 [s1 + 0xb8] = a3\n 41570: u64 [a4 + 0xa0] = a3\n 41574: ra = 1698, jump @1534\n      : @1580 [@dyn 849] (gas: 12)\n 41580: a0 = u64 [s1 + 0x30]\n 41583: a1 = u64 [s1 + 0x18]\n 41586: a2 = u64 [s1 + 0x28]\n 41589: a2 = a2 | a1\n 41592: a3 = u64 [s1 + 0x20]\n 41595: a1 = a0 | a3\n 41598: a1 = a1 | a2\n 41601: a1 = a1 >> 0x20\n 41604: a2 = a2 | a3\n 41607: a2 = a2 << 0x20\n 41610: a1 = a1 | a2\n 41613: jump @1598 if a1 != 0\n      : @1581 (gas: 15)\n 41617: a5 = s1 + 0x100\n 41621: a2 = u64 [a5 + 0xd8]\n 41625: a3 = u64 [a5 + 0xd0]\n 41629: a1 = u64 [a5 + 0xc8]\n 41633: a4 = u64 [a5 + 0xc0]\n 41637: u64 [s1 + 0x60] = a4\n 41640: u64 [a5 + 0x80] = a4\n 41644: u64 [s1 + 0x70] = a1\n 41647: u64 [a5 + 0x88] = a1\n 41651: u64 [s1 + 0x68] = a3\n 41654: u64 [a5 + 0x90] = a3\n 41658: a1 = s1 + 0x180\n 41662: u64 [s1 + 0x78] = a2\n 41665: u64 [a5 + 0x98] = a2\n 41669: ra = 1700, jump @24\n      : @1582 [@dyn 850] (gas: 3)\n 41676: a3 = u64 [s1 + 0xb8]\n 41680: a0 = a3 & 0x1\n 41683: jump @1588 if a0 != 0\n      : @1583 (gas: 10)\n 41687: a0 = u64 [s1 + 0x20]\n 41690: a1 = u64 [s1 + 0x18]\n 41693: a0 = a0 | a1\n 41696: a1 = 0xffffffe0\n 41706: a4 = u64 [s1 + 0x30]\n 41709: a1 = a4 <u a1\n 41712: a2 = u64 [s1 + 0x28]\n 41715: a1 = 0 if a2 != 0\n 41717: a1 = 0 if a0 != 0\n 41719: jump @1598 if a1 == 0\n      : @1584 (gas: 12)\n 41723: a1 = a3 & 0xffffffffffffff00\n 41727: i32 a0 = a4 + 0x20\n 41730: a3 = u64 [s1 + 0x80]\n 41734: a2 = s1 + 0x100\n 41738: u64 [a2 + 0x8] = a3\n 41741: u64 [a2] = a1\n 41743: a1 = u64 [s1 + 0x88]\n 41747: u64 [a2 + 0x10] = a1\n 41750: a1 = s1 + 0x100\n 41754: a3 = u64 [s1 + 0x90]\n 41758: u64 [a2 + 0x18] = a3\n 41761: ra = 1702, jump @24\n      : @1585 [@dyn 851] (gas: 14)\n 41768: t2 = 0\n 41770: t1 = 0\n 41772: t0 = 0\n 41774: a0 = u64 [s1 + 0x68]\n 41777: a1 = u64 [s1 + 0x60]\n 41780: a0 = a0 | a1\n 41783: a1 = u64 [s1 + 0x78]\n 41786: a2 = u64 [s1 + 0x70]\n 41789: a1 = a1 | a2\n 41792: a0 = a0 | a1\n 41795: a0 = a0 >u 0\n 41797: a0 = a0 << 0x5\n 41800: u64 [s1 + 0xb8] = a0\n 41804: fallthrough\n      : @1586 (gas: 24)\n 41805: a1 = u64 [s1 + 0xb8]\n 41809: a0 = a1 + 0x20\n 41812: a1 = a0 <u a1\n 41815: a2 = t2 + a1\n 41818: a3 = a2 <u t2\n 41821: a3 = a1 if a1 == 0\n 41824: a3 = a3 + t1\n 41827: a1 = a3 <u t1\n 41830: a4 = t0 + a1\n 41833: a1 = u64 [s1 + 0x30]\n 41836: u64 [s1 + 0xe0] = a1\n 41840: u64 [s1 + 0xc0] = a0\n 41844: a0 = u64 [s1 + 0x28]\n 41847: u64 [s1 + 0xe8] = a0\n 41851: a0 = u64 [s1 + 0x20]\n 41854: u64 [s1 + 0xf0] = a0\n 41858: u64 [s1 + 0xc8] = a2\n 41862: a0 = u64 [s1 + 0x18]\n 41865: u64 [s1 + 0xf8] = a0\n 41869: u64 [s1 + 0xd0] = a3\n 41873: a0 = s1 + 0xe0\n 41877: a1 = s1 + 0xc0\n 41881: u64 [s1 + 0xd8] = a4\n 41885: ra = 1704, jump @1567\n      : @1587 [@dyn 852] (gas: 16)\n 41891: a0 = u64 [s1 + 0x10]\n 41894: a1 = u64 [s1 + 0x18]\n 41897: u64 [a0 + 0x18] = a1\n 41900: a1 = u64 [s1 + 0x20]\n 41903: u64 [a0 + 0x10] = a1\n 41906: a1 = u64 [s1 + 0x28]\n 41909: u64 [a0 + 0x8] = a1\n 41912: a1 = u64 [s1 + 0x30]\n 41915: u64 [a0] = a1\n 41917: sp = s0 + 0xfffffffffffffda0\n 41921: a0 = sp + 0x200\n 41925: ra = u64 [a0 + 0x58]\n 41928: s0 = u64 [a0 + 0x50]\n 41931: s1 = u64 [a0 + 0x48]\n 41934: sp = sp + 0x260\n 41938: ret\n      : @1588 (gas: 12)\n 41940: a0 = u64 [s1 + 0x98]\n 41944: a2 = s1 + 0x100\n 41948: u64 [a2 + 0x60] = a0\n 41951: a0 = u64 [s1 + 0xa0]\n 41955: u64 [a2 + 0x68] = a0\n 41958: a0 = u64 [s1 + 0xa8]\n 41962: u64 [a2 + 0x70] = a0\n 41965: a1 = s1 + 0x160\n 41969: a0 = u64 [s1 + 0xb0]\n 41973: u64 [a2 + 0x78] = a0\n 41976: a0 = 0\n 41978: ra = 1706, jump @24\n      : @1589 [@dyn 853] (gas: 6)\n 41985: a0 = sp + 0xffffffffffffffe0\n 41988: a0 = a0 & 0xffffffffffffffe0\n 41991: u64 [s1 + 0x58] = a0\n 41994: sp = a0\n 41996: a1 = i32 [0x20180]\n 42001: jump @1591 if a1 >u 31\n      : @1590 (gas: 2)\n 42005: u32 [0x20180] = 0x20\n 42011: fallthrough\n      : @1591 (gas: 49)\n 42012: a0 = sp + 0xffffffffffffffe0\n 42015: a2 = a0 & 0xffffffffffffffe0\n 42018: u64 [s1 + 0xb0] = a2\n 42022: sp = a2\n 42024: a0 = 0x20190\n 42029: i32 a0 = a0 + 0\n 42031: i32 a2 = a2 + 0\n 42033: a1 = 0x20\n 42036: ecalli 8 // 'hash_keccak_256'\n 42038: u64 [s1 + 184] = 0\n 42042: t2 = 0\n 42044: t1 = 0\n 42046: t0 = 0\n 42048: a5 = u64 [s1 + 0xb0]\n 42052: a0 = u64 [a5 + 0x18]\n 42055: a1 = u64 [s1 + 0x30]\n 42058: a2 = a1 + 0x20\n 42061: u64 [s1 + 0x50] = a2\n 42064: a1 = a2 <u a1\n 42067: a2 = u64 [s1 + 0x28]\n 42070: a3 = a2 + a1\n 42073: u64 [s1 + 0x48] = a3\n 42076: a4 = a3 <u a2\n 42079: a4 = a1 if a1 == 0\n 42082: a1 = u64 [a5 + 0x10]\n 42085: a2 = u64 [a5 + 0x8]\n 42088: a3 = u64 [a5]\n 42090: a0 = reverse a0\n 42092: a1 = reverse a1\n 42094: ra = reverse a2\n 42096: a2 = reverse a3\n 42098: a5 = u64 [s1 + 0x58]\n 42101: a3 = a2\n 42103: u64 [a5 + 0x18] = a2\n 42106: a2 = ra\n 42108: u64 [s1 + 0x80] = a2\n 42112: u64 [a5 + 0x10] = a2\n 42115: u64 [s1 + 0x90] = a1\n 42119: u64 [a5 + 0x8] = a1\n 42122: a2 = a0\n 42124: u64 [a5] = a0\n 42126: a0 = u64 [s1 + 0x20]\n 42129: a4 = a4 + a0\n 42132: u64 [s1 + 0x40] = a4\n 42135: a0 = a4 <u a0\n 42138: a1 = u64 [s1 + 0x18]\n 42141: a0 = a0 + a1\n 42144: u64 [s1 + 0x38] = a0\n 42147: fallthrough\n      : @1592 (gas: 19)\n 42148: u64 [s1 + 0x88] = a3\n 42152: u64 [s1 + 0x98] = a2\n 42156: a0 = u64 [s1 + 0x60]\n 42159: a1 = u64 [s1 + 0xb8]\n 42163: a0 = a1 <u a0\n 42166: a2 = u64 [s1 + 0x70]\n 42169: a1 = t2 ^ a2\n 42172: a2 = t2 <u a2\n 42175: a2 = a0 if a1 == 0\n 42178: a4 = u64 [s1 + 0x68]\n 42181: a0 = t1 <u a4\n 42184: a3 = u64 [s1 + 0x78]\n 42187: a1 = t0 ^ a3\n 42190: a3 = t0 <u a3\n 42193: a3 = a0 if a1 == 0\n 42196: a0 = t1 ^ a4\n 42199: a0 = a0 | a1\n 42202: a3 = a2 if a0 == 0\n 42205: jump @1586 if a3 == 0\n      : @1593 (gas: 6)\n 42209: a0 = s1 + 0x140\n 42213: a1 = a5\n 42215: u64 [s1 + 0xb0] = t0\n 42219: u64 [s1 + 0xa8] = t1\n 42223: u64 [s1 + 0xa0] = t2\n 42227: ra = 1708, jump @26\n      : @1594 [@dyn 854] (gas: 8)\n 42234: a1 = u64 [s1 + 0x50]\n 42237: a0 = u64 [s1 + 0xb8]\n 42241: a0 = a0 + a1\n 42244: a1 = a0 <u a1\n 42247: a4 = u64 [s1 + 0x48]\n 42250: a2 = u64 [s1 + 0xa0]\n 42254: a2 = a2 + a4\n 42257: t0 = 1710, jump @1841\n      : @1595 [@dyn 855] (gas: 19)\n 42263: a3 = u64 [s1 + 0x40]\n 42266: a1 = u64 [s1 + 0xa8]\n 42270: a1 = a1 + a3\n 42273: t0 = a1 <u a3\n 42276: a5 = u64 [s1 + 0x38]\n 42279: a3 = u64 [s1 + 0xb0]\n 42283: a5 = a5 + a3\n 42286: a3 = a5 + t0\n 42289: a4 = a4 + a1\n 42292: a1 = a4 <u a1\n 42295: a1 = a1 + a3\n 42298: a1 = a1 | a2\n 42301: a2 = a0 | a4\n 42304: a2 = a2 | a1\n 42307: a1 = a1 | a4\n 42310: a2 = a2 >> 0x20\n 42313: a1 = a1 << 0x20\n 42316: a1 = a1 | a2\n 42319: jump @1598 if a1 != 0\n      : @1596 (gas: 11)\n 42323: a5 = s1 + 0x100\n 42327: a2 = u64 [a5 + 0x58]\n 42330: a1 = u64 [a5 + 0x50]\n 42333: a3 = u64 [a5 + 0x48]\n 42336: a4 = u64 [a5 + 0x40]\n 42339: u64 [a5 + 0x20] = a4\n 42342: u64 [a5 + 0x28] = a3\n 42345: u64 [a5 + 0x30] = a1\n 42348: a1 = s1 + 0x120\n 42352: u64 [a5 + 0x38] = a2\n 42355: ra = 1712, jump @24\n      : @1597 [@dyn 856] (gas: 38)\n 42362: a3 = u64 [s1 + 0x98]\n 42366: a3 = a3 + 0x1\n 42369: a0 = a3 <u 0x1\n 42372: t2 = u64 [s1 + 0x90]\n 42376: t2 = t2 + a0\n 42379: a0 = a3 | t2\n 42382: a0 = a0 <u 0x1\n 42385: a1 = u64 [s1 + 0x80]\n 42389: t1 = a1 + a0\n 42392: a1 = t1 <u a1\n 42395: a0 = u64 [s1 + 0x88]\n 42399: a0 = a0 + a1\n 42402: a1 = u64 [s1 + 0xb8]\n 42406: ra = a1 + 0x20\n 42409: a2 = ra <u a1\n 42412: a4 = u64 [s1 + 0xa0]\n 42416: a1 = a4 + a2\n 42419: a4 = a1 <u a4\n 42422: a4 = a2 if a2 == 0\n 42425: a2 = u64 [s1 + 0xa8]\n 42429: a4 = a4 + a2\n 42432: a2 = a4 <u a2\n 42435: t0 = u64 [s1 + 0xb0]\n 42439: t0 = t0 + a2\n 42442: a2 = t2\n 42444: u64 [s1 + 0x90] = a2\n 42448: a5 = u64 [s1 + 0x58]\n 42451: u64 [a5 + 0x8] = a2\n 42454: a2 = a3\n 42456: u64 [a5] = a3\n 42458: u64 [a5 + 0x10] = t1\n 42461: a3 = a0\n 42463: u64 [a5 + 0x18] = a0\n 42466: u64 [s1 + 0x80] = t1\n 42470: u64 [s1 + 0xb8] = ra\n 42474: t2 = a1\n 42476: t1 = a4\n 42478: jump @1592\n      : @1598 (gas: 1)\n 42481: trap\n      : @1599 (gas: 30)\n 42482: sp = sp + 0xffffffffffffff80\n 42485: u64 [sp + 0x78] = ra\n 42488: u64 [sp + 0x70] = s0\n 42491: u64 [sp + 0x68] = s1\n 42494: s0 = sp + 0x80\n 42498: sp = sp & 0xfffffffffffffff0\n 42501: a4 = u64 [a2]\n 42503: a3 = u64 [a1]\n 42505: s1 = u64 [a2 + 0x8]\n 42508: t1 = u64 [a1 + 0x8]\n 42511: t2 = u64 [a2 + 0x10]\n 42514: a5 = u64 [a1 + 0x10]\n 42517: a2 = u64 [a2 + 0x18]\n 42520: a1 = u64 [a1 + 0x18]\n 42523: t0 = t1 ^ s1\n 42526: u64 [sp + 0x8] = s1\n 42529: s1 = t1 <u s1\n 42532: u64 [sp + 0x18] = a4\n 42535: u64 [sp + 0x10] = a3\n 42538: a3 = a3 <u a4\n 42541: u64 [sp] = a3\n 42543: s1 = a3 if t0 == 0\n 42546: a3 = a1 ^ a2\n 42549: ra = a1 <u a2\n 42552: t0 = a5 <u t2\n 42555: ra = t0 if a3 == 0\n 42558: a4 = a5 ^ t2\n 42561: a3 = a3 | a4\n 42564: ra = s1 if a3 == 0\n 42567: jump @1601 if ra != 0\n      : @1600 (gas: 23)\n 42570: a3 = a5 - t2\n 42573: a1 = a1 - a2\n 42576: a1 = a1 - t0\n 42579: a2 = a3 <u s1\n 42582: a1 = a1 - a2\n 42585: a3 = a3 - s1\n 42588: a2 = u64 [sp + 0x8]\n 42591: a2 = t1 - a2\n 42594: a4 = u64 [sp]\n 42596: a2 = a2 - a4\n 42599: a4 = u64 [sp + 0x18]\n 42602: a5 = u64 [sp + 0x10]\n 42605: a4 = a5 - a4\n 42608: u64 [a0] = a4\n 42610: u64 [a0 + 0x8] = a2\n 42613: u64 [a0 + 0x10] = a3\n 42616: u64 [a0 + 0x18] = a1\n 42619: sp = s0 + 0xffffffffffffff80\n 42622: ra = u64 [sp + 0x78]\n 42625: s0 = u64 [sp + 0x70]\n 42628: s1 = u64 [sp + 0x68]\n 42631: sp = sp + 0x80\n 42635: ret\n      : @1601 (gas: 6)\n 42637: u64 [sp + 80] = 0\n 42640: u64 [sp + 72] = 0\n 42643: u64 [sp + 64] = 0\n 42646: t0 = 0x6b2\n 42650: a0 = 0x4e487b7100000000\n 42660: fallthrough\n      : @1602 [@dyn 857] (gas: 4)\n 42661: a1 = sp + 0x40\n 42664: u64 [sp + 0x58] = a0\n 42667: a0 = 0\n 42669: ra = 1716, jump @24\n      : @1603 [@dyn 858] (gas: 7)\n 42676: u64 [sp + 56] = 0\n 42679: u64 [sp + 48] = 0\n 42682: u64 [sp + 32] = 0x11\n 42686: a0 = 0x4\n 42689: a1 = sp + 0x20\n 42692: u64 [sp + 40] = 0\n 42695: ra = 1718, jump @24\n      : @1604 [@dyn 859] (gas: 2)\n 42702: a1 = i32 [0x20180]\n 42707: jump @1606 if a1 >u 63\n      : @1605 (gas: 2)\n 42711: u32 [0x20180] = 0x40\n 42717: fallthrough\n      : @1606 (gas: 7)\n 42718: a1 = 0x20190\n 42723: i32 a1 = a1 + 0\n 42725: a0 = 0x1\n 42728: a2 = 0x24\n 42731: ra = 0x6b8\n 42735: ecalli 13 // 'seal_return'\n 42737: fallthrough\n      : @1607 [@dyn 860] (gas: 10)\n 42738: a3 = u64 [a1 + 0x18]\n 42741: a4 = u64 [a1 + 0x10]\n 42744: t0 = u64 [a1 + 0x8]\n 42747: a5 = a3 >u 0\n 42749: a2 = a4 >u 0\n 42751: a2 = a5 if a3 != 0\n 42754: a3 = a3 | a4\n 42757: a4 = t0 >u 0\n 42759: a4 = a2 if a3 != 0\n 42762: jump @1609 if a4 != 0\n      : @1608 (gas: 16)\n 42765: a1 = u64 [a1]\n 42767: a2 = a1 + 0x1f\n 42770: a1 = a2 <u a1\n 42773: a1 = a1 + t0\n 42776: a1 = a1 & 0x1\n 42779: a2 = a2 & 0xffffffffffffffe0\n 42782: a3 = a2 + 0x20\n 42785: a2 = a3 <u a2\n 42788: a4 = a1 + a2\n 42791: a1 = a4 <u a1\n 42794: a1 = a2 if a2 == 0\n 42797: u64 [a0 + 24] = 0\n 42800: u64 [a0] = a3\n 42802: u64 [a0 + 0x8] = a4\n 42805: u64 [a0 + 0x10] = a1\n 42808: ret\n      : @1609 (gas: 6)\n 42810: sp = sp + 0xffffffffffffffb0\n 42813: u64 [sp + 0x48] = ra\n 42816: u64 [sp + 0x40] = s0\n 42819: s0 = sp + 0x50\n 42822: sp = sp & 0xfffffffffffffff0\n 42825: t0 = 1722, jump @1797\n      : @1610 [@dyn 861] (gas: 1)\n 42831: ra = 1724, jump @24\n      : @1611 [@dyn 862] (gas: 1)\n 42838: t0 = 1726, jump @1835\n      : @1612 [@dyn 863] (gas: 1)\n 42844: ra = 1728, jump @24\n      : @1613 [@dyn 864] (gas: 2)\n 42851: a1 = i32 [0x20180]\n 42856: jump @1615 if a1 >u 63\n      : @1614 (gas: 2)\n 42860: u32 [0x20180] = 0x40\n 42866: fallthrough\n      : @1615 (gas: 7)\n 42867: a1 = 0x20190\n 42872: i32 a1 = a1 + 0\n 42874: a0 = 0x1\n 42877: a2 = 0x24\n 42880: ra = 0x6c2\n 42884: ecalli 13 // 'seal_return'\n 42886: fallthrough\n      : @1616 [@dyn 865] (gas: 9)\n 42887: sp = sp + 0xfffffffffffffec0\n 42891: u64 [sp + 0x138] = ra\n 42895: u64 [sp + 0x130] = s0\n 42899: u64 [sp + 0x128] = s1\n 42903: s0 = sp + 0x140\n 42907: sp = sp & 0xffffffffffffffe0\n 42910: s1 = a0\n 42912: ecalli 12 // 'return_data_size'\n 42914: fallthrough\n      : @1617 (gas: 1)\n 42915: jump @1630 if a0 == 0\n      : @1618 (gas: 11)\n 42919: u64 [sp + 0x18] = s1\n 42922: ecalli 12 // 'return_data_size'\n 42924: a2 = a0\n 42926: u64 [sp + 248] = 0\n 42930: u64 [sp + 240] = 0\n 42934: u64 [sp + 232] = 0\n 42938: a0 = sp + 0x100\n 42942: a1 = sp + 0xe0\n 42946: u64 [sp + 0x20] = a2\n 42949: u64 [sp + 0xe0] = a2\n 42953: ra = 1732, jump @1607\n      : @1619 [@dyn 866] (gas: 11)\n 42959: a0 = u64 [sp + 0x100]\n 42963: u64 [sp + 0x40] = a0\n 42966: a0 = u64 [sp + 0x108]\n 42970: u64 [sp + 0x38] = a0\n 42973: a0 = u64 [sp + 0x110]\n 42977: u64 [sp + 0x30] = a0\n 42980: a0 = u64 [sp + 0x118]\n 42984: u64 [sp + 0x28] = a0\n 42987: a0 = sp + 0xc0\n 42991: a1 = 0x40\n 42994: ra = 1734, jump @22\n      : @1620 [@dyn 867] (gas: 22)\n 43001: a0 = u64 [sp + 0xd8]\n 43005: u64 [sp + 0x58] = a0\n 43008: s1 = u64 [sp + 0xd0]\n 43012: a2 = u64 [sp + 0xc8]\n 43016: u64 [sp + 0x50] = a2\n 43019: a3 = u64 [sp + 0xc0]\n 43023: u64 [sp + 0x48] = a3\n 43026: a1 = u64 [sp + 0x28]\n 43029: u64 [sp + 0x98] = a1\n 43033: a1 = u64 [sp + 0x30]\n 43036: u64 [sp + 0x90] = a1\n 43040: a1 = u64 [sp + 0x38]\n 43043: u64 [sp + 0x88] = a1\n 43047: a1 = u64 [sp + 0x40]\n 43050: u64 [sp + 0x80] = a1\n 43054: u64 [sp + 0xb8] = a0\n 43058: u64 [sp + 0xb0] = s1\n 43062: u64 [sp + 0xa8] = a2\n 43066: a0 = sp + 0xa0\n 43070: a1 = sp + 0x80\n 43074: u64 [sp + 0xa0] = a3\n 43078: ra = 1736, jump @1567\n      : @1621 [@dyn 868] (gas: 12)\n 43084: a0 = u64 [sp + 0x48]\n 43087: a1 = u64 [sp + 0x58]\n 43090: a2 = u64 [sp + 0x50]\n 43093: a2 = a2 | a1\n 43096: a1 = a0 | s1\n 43099: a1 = a1 | a2\n 43102: a1 = a1 >> 0x20\n 43105: u64 [sp + 0x40] = s1\n 43108: a2 = a2 | s1\n 43111: a2 = a2 << 0x20\n 43114: a1 = a1 | a2\n 43117: jump @1629 if a1 != 0\n      : @1622 (gas: 7)\n 43121: u64 [sp + 120] = 0\n 43124: u64 [sp + 112] = 0\n 43127: u64 [sp + 104] = 0\n 43130: a1 = sp + 0x60\n 43133: a2 = u64 [sp + 0x20]\n 43136: u64 [sp + 0x60] = a2\n 43139: ra = 1738, jump @24\n      : @1623 [@dyn 869] (gas: 2)\n 43146: ecalli 12 // 'return_data_size'\n 43148: fallthrough\n      : @1624 (gas: 10)\n 43149: a3 = u64 [sp + 0x48]\n 43152: a1 = u64 [sp + 0x40]\n 43155: a2 = u64 [sp + 0x58]\n 43158: a1 = a1 | a2\n 43161: a2 = 0xffffffe0\n 43171: a2 = a3 <u a2\n 43174: a4 = u64 [sp + 0x50]\n 43177: a2 = 0 if a4 != 0\n 43179: a2 = 0 if a1 != 0\n 43181: jump @1629 if a2 == 0\n      : @1625 (gas: 3)\n 43184: s1 = a0\n 43186: a0 = a0 >> 0x20\n 43189: jump @1629 if a0 != 0\n      : @1626 (gas: 5)\n 43192: i32 a0 = a3 + 0x20\n 43195: i32 a1 = s1 + 0\n 43197: u64 [sp + 0x38] = a1\n 43200: a1 = s1\n 43202: ra = 1740, jump @37\n      : @1627 [@dyn 870] (gas: 6)\n 43209: u32 [sp + 0x120] = s1\n 43213: i32 a0 = a0 + 0\n 43215: i32 a1 = sp + 0x120\n 43219: a2 = 0\n 43221: ecalli 11 // 'return_data_copy'\n 43223: fallthrough\n      : @1628 (gas: 8)\n 43224: a4 = u64 [sp + 0x48]\n 43227: a0 = i32 [sp + 0x120]\n 43231: s1 = u64 [sp + 0x18]\n 43234: a1 = u64 [sp + 0x58]\n 43237: a2 = u64 [sp + 0x40]\n 43240: a3 = u64 [sp + 0x50]\n 43243: a5 = u64 [sp + 0x38]\n 43246: jump @1631 if a0 >=u a5\n      : @1629 (gas: 1)\n 43249: trap\n      : @1630 (gas: 5)\n 43250: a3 = 0\n 43252: a2 = 0\n 43254: a1 = 0\n 43256: a4 = 0x60\n 43259: fallthrough\n      : @1631 (gas: 10)\n 43260: u64 [s1] = a4\n 43262: u64 [s1 + 0x8] = a3\n 43265: u64 [s1 + 0x10] = a2\n 43268: u64 [s1 + 0x18] = a1\n 43271: sp = s0 + 0xfffffffffffffec0\n 43275: ra = u64 [sp + 0x138]\n 43279: s0 = u64 [sp + 0x130]\n 43283: s1 = u64 [sp + 0x128]\n 43287: sp = sp + 0x140\n 43291: ret\n      : @1632 (gas: 3)\n 43293: a1 = u32 [a1]\n 43295: a2 = 0xffffffff\n 43305: jump @1634 if a1 == a2\n      : @1633 (gas: 9)\n 43308: a1 = a1 + 0x1\n 43311: a2 = a1 <u 0x1\n 43314: a3 = a1 | a2\n 43317: a3 = a3 <u 0x1\n 43320: u64 [a0 + 24] = 0\n 43323: u64 [a0] = a1\n 43325: u64 [a0 + 0x8] = a2\n 43328: u64 [a0 + 0x10] = a3\n 43331: ret\n      : @1634 (gas: 6)\n 43333: sp = sp + 0xffffffffffffffb0\n 43336: u64 [sp + 0x48] = ra\n 43339: u64 [sp + 0x40] = s0\n 43342: s0 = sp + 0x50\n 43345: sp = sp & 0xfffffffffffffff0\n 43348: t0 = 1742, jump @1797\n      : @1635 [@dyn 871] (gas: 1)\n 43354: ra = 1744, jump @24\n      : @1636 [@dyn 872] (gas: 7)\n 43361: u64 [sp + 24] = 0\n 43364: u64 [sp + 16] = 0\n 43367: u64 [sp + 0] = 0x11\n 43370: a0 = 0x4\n 43373: a1 = sp\n 43375: u64 [sp + 8] = 0\n 43378: ra = 1746, jump @24\n      : @1637 [@dyn 873] (gas: 2)\n 43385: a1 = i32 [0x20180]\n 43390: jump @1639 if a1 >u 63\n      : @1638 (gas: 2)\n 43394: u32 [0x20180] = 0x40\n 43400: fallthrough\n      : @1639 (gas: 7)\n 43401: a1 = 0x20190\n 43406: i32 a1 = a1 + 0\n 43408: a0 = 0x1\n 43411: a2 = 0x24\n 43414: ra = 0x6d4\n 43418: ecalli 13 // 'seal_return'\n 43420: fallthrough\n      : @1640 [@dyn 874] (gas: 45)\n 43421: sp = sp + 0xffffffffffffff90\n 43424: u64 [sp + 0x68] = ra\n 43427: u64 [sp + 0x60] = s0\n 43430: u64 [sp + 0x58] = s1\n 43433: s0 = sp + 0x70\n 43436: sp = sp & 0xfffffffffffffff0\n 43439: a3 = u64 [a1 + 0x18]\n 43442: u64 [sp + 0x8] = a3\n 43445: a4 = u64 [a2 + 0x18]\n 43448: t2 = u64 [a1]\n 43450: u64 [sp] = t2\n 43452: a3 = u64 [a1 + 0x8]\n 43455: s1 = u64 [a2 + 0x8]\n 43458: a5 = u64 [a2]\n 43460: t1 = u64 [a1 + 0x10]\n 43463: t0 = u64 [a2 + 0x10]\n 43466: a2 = s1 + a3\n 43469: t2 = t2 + a5\n 43472: a5 = t2 <u a5\n 43475: a2 = a2 + a5\n 43478: ra = a2 ^ s1\n 43481: s1 = a2 <u s1\n 43484: s1 = a5 if ra == 0\n 43487: a1 = t0 + t1\n 43490: a5 = u64 [sp + 0x8]\n 43493: a5 = a5 + a4\n 43496: a4 = a1 <u t0\n 43499: a4 = a4 + a5\n 43502: a5 = a1 + s1\n 43505: a1 = a5 <u a1\n 43508: ra = a4 + a1\n 43511: a4 = a2 ^ a3\n 43514: a3 = a2 <u a3\n 43517: a1 = u64 [sp]\n 43519: s1 = t2 <u a1\n 43522: s1 = a3 if a4 != 0\n 43525: t0 = a5 <u t1\n 43528: a1 = u64 [sp + 0x8]\n 43531: a4 = ra ^ a1\n 43534: a3 = ra <u a1\n 43537: a3 = t0 if a4 == 0\n 43540: a1 = a5 ^ t1\n 43543: a1 = a1 | a4\n 43546: s1 = a3 if a1 != 0\n 43549: jump @1642 if s1 != 0\n      : @1641 (gas: 10)\n 43552: u64 [a0] = t2\n 43554: u64 [a0 + 0x8] = a2\n 43557: u64 [a0 + 0x10] = a5\n 43560: u64 [a0 + 0x18] = ra\n 43563: sp = s0 + 0xffffffffffffff90\n 43566: ra = u64 [sp + 0x68]\n 43569: s0 = u64 [sp + 0x60]\n 43572: s1 = u64 [sp + 0x58]\n 43575: sp = sp + 0x70\n 43578: ret\n      : @1642 (gas: 1)\n 43580: t0 = 1750, jump @1860\n      : @1643 [@dyn 875] (gas: 1)\n 43586: ra = 1752, jump @24\n      : @1644 [@dyn 876] (gas: 7)\n 43593: u64 [sp + 40] = 0\n 43596: u64 [sp + 32] = 0\n 43599: u64 [sp + 16] = 0x11\n 43603: a0 = 0x4\n 43606: a1 = sp + 0x10\n 43609: u64 [sp + 24] = 0\n 43612: ra = 1754, jump @24\n      : @1645 [@dyn 877] (gas: 2)\n 43619: a1 = i32 [0x20180]\n 43624: jump @1647 if a1 >u 63\n      : @1646 (gas: 2)\n 43628: u32 [0x20180] = 0x40\n 43634: fallthrough\n      : @1647 (gas: 7)\n 43635: a1 = 0x20190\n 43640: i32 a1 = a1 + 0\n 43642: a0 = 0x1\n 43645: a2 = 0x24\n 43648: ra = 0x6dc\n 43652: ecalli 13 // 'seal_return'\n 43654: fallthrough\n      : @1648 [@dyn 878] (gas: 10)\n 43655: a4 = u64 [a1 + 0x18]\n 43658: a3 = u64 [a1 + 0x10]\n 43661: t1 = u64 [a1 + 0x8]\n 43664: t0 = a4 >u 0\n 43666: a5 = a3 >u 0\n 43668: a5 = t0 if a4 != 0\n 43671: t0 = a3 | a4\n 43674: a2 = t1 >u 0\n 43676: a2 = a5 if t0 != 0\n 43679: jump @1650 if a2 != 0\n      : @1649 (gas: 24)\n 43682: a1 = u64 [a1]\n 43684: a2 = a3 >> 0x3b\n 43687: a4 = a4 << 0x5\n 43690: t0 = a4 | a2\n 43693: a4 = t1 >> 0x3b\n 43696: a3 = a3 << 0x5\n 43699: a3 = a3 | a4\n 43702: a4 = a1 >> 0x3b\n 43705: t1 = t1 << 0x5\n 43708: a4 = t1 | a4\n 43711: a1 = a1 << 0x5\n 43714: a5 = a1 + 0x20\n 43717: a1 = a5 <u a1\n 43720: a2 = a4 + a1\n 43723: a4 = a2 <u a4\n 43726: a4 = a1 if a1 == 0\n 43729: a4 = a4 + a3\n 43732: a1 = a4 <u a3\n 43735: a1 = a1 + t0\n 43738: u64 [a0] = a5\n 43740: u64 [a0 + 0x8] = a2\n 43743: u64 [a0 + 0x10] = a4\n 43746: u64 [a0 + 0x18] = a1\n 43749: ret\n      : @1650 (gas: 6)\n 43751: sp = sp + 0xffffffffffffffb0\n 43754: u64 [sp + 0x48] = ra\n 43757: u64 [sp + 0x40] = s0\n 43760: s0 = sp + 0x50\n 43763: sp = sp & 0xfffffffffffffff0\n 43766: t0 = 1758, jump @1797\n      : @1651 [@dyn 879] (gas: 1)\n 43772: ra = 1760, jump @24\n      : @1652 [@dyn 880] (gas: 1)\n 43779: t0 = 1762, jump @1835\n      : @1653 [@dyn 881] (gas: 1)\n 43785: ra = 1764, jump @24\n      : @1654 [@dyn 882] (gas: 2)\n 43792: a1 = i32 [0x20180]\n 43797: jump @1656 if a1 >u 63\n      : @1655 (gas: 2)\n 43801: u32 [0x20180] = 0x40\n 43807: fallthrough\n      : @1656 (gas: 7)\n 43808: a1 = 0x20190\n 43813: i32 a1 = a1 + 0\n 43815: a0 = 0x1\n 43818: a2 = 0x24\n 43821: ra = 0x6e6\n 43825: ecalli 13 // 'seal_return'\n 43827: fallthrough\n      : @1657 [@dyn 883] (gas: 22)\n 43828: sp = sp + 0xffffffffffffff40\n 43832: u64 [sp + 0xb8] = ra\n 43836: u64 [sp + 0xb0] = s0\n 43840: u64 [sp + 0xa8] = s1\n 43844: s0 = sp + 0xc0\n 43848: sp = sp & 0xfffffffffffffff0\n 43851: a4 = u64 [a1 + 0x10]\n 43854: a3 = u64 [a1 + 0x18]\n 43857: a5 = u64 [a1 + 0x8]\n 43860: a1 = u64 [a1]\n 43862: u64 [sp + 0x28] = a3\n 43865: u64 [sp + 0x20] = a5\n 43868: a5 = a5 | a3\n 43871: a3 = a1 | a4\n 43874: a3 = a3 | a5\n 43877: a3 = a3 >> 0x20\n 43880: u64 [sp + 0x30] = a4\n 43883: a4 = a4 | a5\n 43886: a4 = a4 << 0x20\n 43889: a3 = a3 | a4\n 43892: u64 [sp + 0x38] = a0\n 43895: jump @1661 if a3 != 0\n      : @1658 (gas: 10)\n 43899: a0 = u64 [a2 + 0x18]\n 43902: u64 [sp + 0x10] = a0\n 43905: s1 = u64 [a2 + 0x10]\n 43908: a0 = u64 [a2 + 0x8]\n 43911: u64 [sp + 0x8] = a0\n 43914: a0 = u64 [a2]\n 43916: u64 [sp] = a0\n 43918: a0 = sp + 0x80\n 43922: u64 [sp + 0x18] = a1\n 43925: ra = 1768, jump @22\n      : @1659 [@dyn 884] (gas: 19)\n 43932: t0 = u64 [sp + 0x10]\n 43935: a5 = u64 [sp + 0x8]\n 43938: t1 = u64 [sp]\n 43940: a0 = u64 [sp + 0x88]\n 43944: a1 = u64 [sp + 0x98]\n 43948: a2 = u64 [sp + 0x80]\n 43952: a3 = u64 [sp + 0x90]\n 43956: a4 = a0 ^ a5\n 43959: a0 = a5 <u a0\n 43962: a2 = t1 <u a2\n 43965: a2 = a0 if a4 != 0\n 43968: a0 = s1 <u a3\n 43971: a4 = a1 ^ t0\n 43974: a1 = t0 <u a1\n 43977: a1 = a0 if a4 == 0\n 43980: a3 = a3 ^ s1\n 43983: a3 = a3 | a4\n 43986: a1 = a2 if a3 == 0\n 43989: jump @1662 if a1 == 0\n      : @1660 (gas: 47)\n 43993: a0 = s1 >> 0x3b\n 43996: a1 = t0 << 0x5\n 43999: t0 = a1 | a0\n 44002: a1 = a5 >> 0x3b\n 44005: s1 = s1 << 0x5\n 44008: a1 = a1 | s1\n 44011: a2 = t1 >> 0x3b\n 44014: a3 = a5 << 0x5\n 44017: a2 = a2 | a3\n 44020: a3 = t1 << 0x5\n 44023: a0 = u64 [sp + 0x18]\n 44026: a3 = a3 + a0\n 44029: a4 = a3 <u a0\n 44032: a5 = u64 [sp + 0x20]\n 44035: a2 = a2 + a5\n 44038: a2 = a2 + a4\n 44041: a0 = a2 ^ a5\n 44044: s1 = a2 <u a5\n 44047: s1 = a4 if a0 == 0\n 44050: a5 = u64 [sp + 0x30]\n 44053: a1 = a1 + a5\n 44056: s1 = s1 + a1\n 44059: a4 = s1 <u a1\n 44062: a1 = a1 <u a5\n 44065: a5 = u64 [sp + 0x28]\n 44068: a0 = a5 + t0\n 44071: a0 = a0 + a1\n 44074: a0 = a0 + a4\n 44077: a1 = a3 + 0x20\n 44080: a3 = a1 <u a3\n 44083: a4 = a2 + a3\n 44086: a2 = a4 <u a2\n 44089: a2 = a3 if a3 == 0\n 44092: a2 = a2 + s1\n 44095: a3 = a2 <u s1\n 44098: a0 = a0 + a3\n 44101: a3 = u64 [sp + 0x38]\n 44104: u64 [a3] = a1\n 44106: u64 [a3 + 0x8] = a4\n 44109: u64 [a3 + 0x10] = a2\n 44112: u64 [a3 + 0x18] = a0\n 44115: sp = s0 + 0xffffffffffffff40\n 44119: ra = u64 [sp + 0xb8]\n 44123: s0 = u64 [sp + 0xb0]\n 44127: s1 = u64 [sp + 0xa8]\n 44131: sp = sp + 0xc0\n 44135: ret\n      : @1661 (gas: 1)\n 44137: trap\n      : @1662 (gas: 6)\n 44138: u64 [sp + 112] = 0\n 44141: u64 [sp + 104] = 0\n 44144: u64 [sp + 96] = 0\n 44147: t0 = 0x6ea\n 44151: a0 = 0x4e487b7100000000\n 44161: fallthrough\n      : @1663 [@dyn 885] (gas: 4)\n 44162: a1 = sp + 0x60\n 44165: u64 [sp + 0x78] = a0\n 44168: a0 = 0\n 44170: ra = 1772, jump @24\n      : @1664 [@dyn 886] (gas: 7)\n 44177: u64 [sp + 88] = 0\n 44180: u64 [sp + 80] = 0\n 44183: u64 [sp + 64] = 0x32\n 44187: a0 = 0x4\n 44190: a1 = sp + 0x40\n 44193: u64 [sp + 72] = 0\n 44196: ra = 1774, jump @24\n      : @1665 [@dyn 887] (gas: 2)\n 44203: a1 = i32 [0x20180]\n 44208: jump @1667 if a1 >u 63\n      : @1666 (gas: 2)\n 44212: u32 [0x20180] = 0x40\n 44218: fallthrough\n      : @1667 (gas: 7)\n 44219: a1 = 0x20190\n 44224: i32 a1 = a1 + 0\n 44226: a0 = 0x1\n 44229: a2 = 0x24\n 44232: ra = 0x6f0\n 44236: ecalli 13 // 'seal_return'\n 44238: fallthrough\n      : @1668 [@dyn 888] (gas: 21)\n 44239: sp = sp + 0xfffffffffffff900\n 44243: a3 = sp + 0x600\n 44247: u64 [a3 + 0xf8] = ra\n 44251: u64 [a3 + 0xf0] = s0\n 44255: u64 [a3 + 0xe8] = s1\n 44259: s0 = sp + 0x700\n 44263: sp = sp & 0xffffffffffffffe0\n 44266: s1 = sp\n 44268: a2 = u64 [a2]\n 44270: u64 [s1 + 0x28] = a2\n 44273: a1 = u64 [a1]\n 44275: u64 [s1 + 0x30] = a1\n 44278: a1 = u64 [a0 + 0x10]\n 44281: u64 [s1 + 0x20] = a1\n 44284: a1 = u64 [a0 + 0x8]\n 44287: u64 [s1 + 0x38] = a1\n 44290: a0 = u64 [a0]\n 44292: u64 [s1 + 0x40] = a0\n 44295: i32 a0 = s1 + 0x620\n 44299: ecalli 9 // 'now'\n 44301: fallthrough\n      : @1669 (gas: 48)\n 44302: t0 = u64 [s1 + 0x638]\n 44306: t1 = u64 [s1 + 0x630]\n 44310: a0 = u64 [s1 + 0x628]\n 44314: a4 = u64 [s1 + 0x620]\n 44318: u64 [s1 + 0x78] = a4\n 44321: a2 = clz t0\n 44323: a1 = clz t1\n 44325: a3 = a1 + 0x40\n 44328: a3 = a2 if t0 != 0\n 44331: a2 = clz a0\n 44333: a1 = clz a4\n 44335: a1 = a1 + 0x40\n 44338: a1 = a2 if a0 != 0\n 44341: a4 = a1 + 0x80\n 44345: a2 = t1 | t0\n 44348: a3 = a4 if a2 == 0\n 44351: a5 = a4 <u a1\n 44354: a5 = 0 if a2 != 0\n 44356: a4 = a5 >u 0\n 44358: a1 = a3 <u 0xf0\n 44362: a2 = a1 ^ 0x1\n 44365: a4 = a2 if a5 == 0\n 44368: t2 = a4 <u 0x1\n 44371: ra = t2 + 0xffffffffffffffff\n 44374: t2 = -a4\n 44376: a5 = -a5\n 44378: a2 = a5 - a2\n 44381: a1 = 0xef - a3\n 44385: u64 [s1 + 0xa8] = t2\n 44389: a3 = t2 >u 0\n 44391: a5 = ra >u 0\n 44393: a5 = a3 if ra == 0\n 44396: u64 [s1 + 0xb8] = a1\n 44400: a3 = a1 <u 0x100\n 44404: a3 = a3 ^ 0x1\n 44407: a1 = a2 >u 0\n 44409: a3 = a1 if a2 != 0\n 44412: a3 = a5 if a4 != 0\n 44415: t2 = a0\n 44417: a0 = u64 [s1 + 0x78]\n 44420: a1 = t2 | t0\n 44423: a4 = a0 | t1\n 44426: a1 = a1 | a4\n 44429: a1 = a1 <u 0x1\n 44432: a1 = a1 | a3\n 44435: a3 = a0\n 44437: a3 = 0 if a1 != 0\n 44439: jump @1685 if a1 != 0\n      : @1670 (gas: 7)\n 44443: a1 = u64 [s1 + 0xb8]\n 44447: a1 = a1 ^ 0xff\n 44451: a5 = u64 [s1 + 0xa8]\n 44455: a1 = a1 | a5\n 44458: a4 = a2 | ra\n 44461: a1 = a1 | a4\n 44464: jump @1685 if a1 == 0\n      : @1671 (gas: 21)\n 44468: a4 = u64 [s1 + 0xb8]\n 44472: a3 = a4 + 0x1\n 44475: u64 [s1 + 0xb0] = a3\n 44479: a1 = a3 <u 0x1\n 44482: a1 = a1 + a2\n 44485: u64 [s1 + 0xa0] = a1\n 44489: a1 = a1 | a3\n 44492: a1 = a1 <u 0x1\n 44495: a1 = a1 + a5\n 44498: u64 [s1 + 0x90] = a1\n 44502: a1 = a1 <u a5\n 44505: a1 = a1 + ra\n 44508: u64 [s1 + 0x98] = a1\n 44512: a2 = 0xff - a4\n 44516: u64 [s1 + 0x88] = a2\n 44520: a2 = 0x80 - a2\n 44524: a1 = t2\n 44526: u64 [s1 + 0x70] = t2\n 44529: u64 [s1 + 0x68] = t0\n 44532: u64 [s1 + 0x60] = t1\n 44535: ra = 1778, jump @1877\n      : @1672 [@dyn 889] (gas: 6)\n 44541: u64 [s1 + 0x80] = a0\n 44545: u64 [s1 + 0x50] = a1\n 44548: a0 = u64 [s1 + 0x60]\n 44551: a1 = u64 [s1 + 0x68]\n 44554: a2 = u64 [s1 + 0x88]\n 44558: ra = 1780, jump @1882\n      : @1673 [@dyn 890] (gas: 7)\n 44564: u64 [s1 + 0x48] = a0\n 44567: u64 [s1 + 0x18] = a1\n 44570: a1 = u64 [s1 + 0xb8]\n 44574: a2 = 0x7f - a1\n 44577: a0 = u64 [s1 + 0x78]\n 44580: a1 = u64 [s1 + 0x70]\n 44583: ra = 1782, jump @1882\n      : @1674 [@dyn 891] (gas: 8)\n 44589: u64 [s1 + 0x10] = a0\n 44592: u64 [s1 + 0xb8] = a1\n 44596: a2 = u64 [s1 + 0x88]\n 44600: a0 = a2 <u 0x80\n 44604: u64 [s1 + 0x58] = a0\n 44607: a0 = u64 [s1 + 0x78]\n 44610: a1 = u64 [s1 + 0x70]\n 44613: ra = 1784, jump @1882\n      : @1675 [@dyn 892] (gas: 11)\n 44619: a5 = u64 [s1 + 0x58]\n 44622: a4 = u64 [s1 + 0x90]\n 44626: a3 = u64 [s1 + 0x98]\n 44630: a2 = u64 [s1 + 0xa0]\n 44634: a2 = a2 | a3\n 44637: a3 = u64 [s1 + 0xb0]\n 44641: a3 = a3 | a4\n 44644: a3 = a3 | a2\n 44647: a0 = 0 if a5 == 0\n 44649: u64 [s1 + 0xa8] = a0\n 44653: jump @1683 if a3 == 0\n      : @1676 (gas: 27)\n 44657: a0 = u64 [s1 + 0x50]\n 44660: a2 = u64 [s1 + 0x18]\n 44663: a0 = a0 | a2\n 44666: a2 = u64 [s1 + 0xb8]\n 44670: a0 = a2 if a5 == 0\n 44673: t0 = u64 [s1 + 0x68]\n 44676: a3 = t0\n 44678: t1 = u64 [s1 + 0x88]\n 44682: a3 = a0 if t1 != 0\n 44685: u64 [s1 + 0xb8] = a3\n 44689: a0 = u64 [s1 + 0x80]\n 44693: a2 = u64 [s1 + 0x48]\n 44696: a0 = a0 | a2\n 44699: a2 = u64 [s1 + 0x10]\n 44702: a0 = a2 if a5 == 0\n 44705: a4 = u64 [s1 + 0x60]\n 44708: a3 = a4\n 44710: a3 = a0 if t1 != 0\n 44713: u64 [s1 + 0x80] = a3\n 44717: a1 = 0 if a5 == 0\n 44719: u64 [s1 + 0x88] = a1\n 44723: u64 [s1 + 88] = 0x15180\n 44729: a0 = u64 [s1 + 0xb0]\n 44733: a2 = a0 + 0xffffffffffffff80\n 44736: a0 = a4\n 44738: a1 = t0\n 44740: ra = 1786, jump @1877\n      : @1677 [@dyn 893] (gas: 6)\n 44746: u64 [s1 + 0x50] = a0\n 44749: u64 [s1 + 0x18] = a1\n 44752: a0 = u64 [s1 + 0x78]\n 44755: a1 = u64 [s1 + 0x70]\n 44758: a2 = u64 [s1 + 0xb0]\n 44762: ra = 1788, jump @1877\n      : @1678 [@dyn 894] (gas: 7)\n 44768: u64 [s1 + 0x10] = a0\n 44771: u64 [s1 + 0x48] = a1\n 44774: a1 = u64 [s1 + 0xb0]\n 44778: a2 = 0x80 - a1\n 44782: a0 = u64 [s1 + 0x60]\n 44785: a1 = u64 [s1 + 0x68]\n 44788: ra = 1790, jump @1882\n      : @1679 [@dyn 895] (gas: 21)\n 44794: a2 = u64 [s1 + 0x48]\n 44797: a1 = a1 | a2\n 44800: a3 = u64 [s1 + 0xb0]\n 44804: a4 = a3 <u 0x80\n 44808: u64 [s1 + 0x48] = a4\n 44811: a2 = u64 [s1 + 0x18]\n 44814: a1 = a2 if a4 == 0\n 44817: a2 = u64 [s1 + 0x70]\n 44820: a2 = a1 if a3 != 0\n 44823: u64 [s1 + 0x70] = a2\n 44826: a1 = u64 [s1 + 0x10]\n 44829: a0 = a0 | a1\n 44832: a1 = u64 [s1 + 0x50]\n 44835: a0 = a1 if a4 == 0\n 44838: a1 = u64 [s1 + 0x78]\n 44841: a1 = a0 if a3 != 0\n 44844: a2 = a3\n 44846: u64 [s1 + 0x78] = a1\n 44849: a0 = u64 [s1 + 0x60]\n 44852: a1 = u64 [s1 + 0x68]\n 44855: ra = 1792, jump @1877\n      : @1680 [@dyn 896] (gas: 13)\n 44861: a5 = 0\n 44863: a2 = u64 [s1 + 0x48]\n 44866: a1 = 0 if a2 == 0\n 44868: a0 = 0 if a2 == 0\n 44870: a3 = u64 [s1 + 0x58]\n 44873: a2 = a3 + 0xffffffffffffffff\n 44876: u64 [s1 + 0x50] = a2\n 44879: a2 = a3 >u 0\n 44881: a2 = a2 + 0xffffffffffffffff\n 44884: u64 [s1 + 0x48] = a2\n 44887: t1 = u64 [s1 + 0x70]\n 44890: t2 = u64 [s1 + 0x78]\n 44893: fallthrough\n      : @1681 (gas: 87)\n 44894: u64 [s1 + 0x78] = a5\n 44897: a2 = t2 >> 0x3f\n 44900: a3 = t1 << 0x1\n 44903: a5 = a3 | a2\n 44906: a3 = t2 << 0x1\n 44909: a4 = u64 [s1 + 0xb8]\n 44913: a4 = a4 >> 0x3f\n 44916: a3 = a3 | a4\n 44919: u64 [s1 + 0x68] = a3\n 44922: a2 = u64 [s1 + 0x48]\n 44925: u64 [s1 + 0x70] = a5\n 44928: t2 = t1\n 44930: t1 = a2 ^ a5\n 44933: t0 = a2 <u a5\n 44936: a4 = u64 [s1 + 0x50]\n 44939: a5 = a4 <u a3\n 44942: a5 = t0 if t1 != 0\n 44945: a1 = a1 << 0x1\n 44948: a3 = a0 >> 0x3f\n 44951: a1 = a1 | a3\n 44954: u64 [s1 + 0x60] = a1\n 44957: a3 = t2 >> 0x3f\n 44960: a0 = a0 << 0x1\n 44963: a3 = a3 | a0\n 44966: a0 = u64 [s1 + 0xb8]\n 44970: a0 = a0 << 0x1\n 44973: a4 = u64 [s1 + 0x80]\n 44977: a1 = a4 >> 0x3f\n 44980: t0 = a0 | a1\n 44983: a1 = a4 << 0x1\n 44986: a4 = u64 [s1 + 0x88]\n 44990: t1 = a4 >> 0x3f\n 44993: t1 = a1 | t1\n 44996: a1 = a4 << 0x1\n 44999: a4 = u64 [s1 + 0xa8]\n 45003: t2 = a4 >> 0x3f\n 45006: a1 = a1 | t2\n 45009: a4 = a4 << 0x1\n 45012: a0 = u64 [s1 + 0x78]\n 45015: a4 = a4 | a0\n 45018: u64 [s1 + 0xa8] = a4\n 45022: a1 = a1 | 0\n 45024: u64 [s1 + 0x88] = a1\n 45028: a1 = t1 | 0\n 45030: u64 [s1 + 0x80] = a1\n 45034: a0 = t0 | 0\n 45036: u64 [s1 + 0xb8] = a0\n 45040: a0 = a2 - a3\n 45043: a0 = a0 <u a5\n 45046: a1 = a2 <u a3\n 45049: t0 = u64 [s1 + 0x60]\n 45052: a4 = a2 - t0\n 45055: a4 = a4 - a1\n 45058: a4 = a4 - a0\n 45061: a5 = a4 >>a 0x3f\n 45064: a0 = u64 [s1 + 0x58]\n 45067: a0 = a0 & a5\n 45070: a1 = u64 [s1 + 0x68]\n 45073: t2 = a1 - a0\n 45076: a1 = a1 <u a0\n 45079: a0 = u64 [s1 + 0x70]\n 45082: t1 = a0 - a1\n 45085: a1 = 0 if a0 != 0\n 45087: a0 = a3 - a1\n 45090: a1 = a3 <u a1\n 45093: a1 = t0 - a1\n 45096: a3 = u64 [s1 + 0xb0]\n 45100: ra = u64 [s1 + 0xa0]\n 45104: a2 = a3 | ra\n 45107: a2 = a2 <u 0x1\n 45110: a4 = u64 [s1 + 0x90]\n 45114: t0 = a4 <u a2\n 45117: a2 = a4 - a2\n 45120: a4 = a3 <u 0x1\n 45123: ra = ra - a4\n 45126: a4 = u64 [s1 + 0x98]\n 45130: a4 = a4 - t0\n 45133: a3 = a3 + 0xffffffffffffffff\n 45136: u64 [s1 + 0xa0] = ra\n 45140: u64 [s1 + 0x98] = a4\n 45144: t0 = ra | a4\n 45147: u64 [s1 + 0xb0] = a3\n 45151: a4 = a3 | a2\n 45154: a3 = a4 | t0\n 45157: a5 = a5 & 0x1\n 45160: u64 [s1 + 0x90] = a2\n 45164: jump @1681 if a3 != 0\n      : @1682 (gas: 1)\n 45168: jump @1684\n      : @1683 (gas: 2)\n 45170: a5 = 0\n 45172: fallthrough\n      : @1684 (gas: 4)\n 45173: a0 = u64 [s1 + 0xa8]\n 45177: a0 = a0 << 0x1\n 45180: a3 = a5 | a0\n 45183: fallthrough\n      : @1685 (gas: 2)\n 45184: a0 = u64 [s1 + 0x30]\n 45187: jump @1758 if a0 >=u a3\n      : @1686 (gas: 13)\n 45191: a0 = u64 [s1 + 0x20]\n 45194: a0 = a0 << 0x20\n 45197: a2 = a0 >> 0x20\n 45200: u64 [s1 + 1528] = 0\n 45204: a0 = u64 [s1 + 0x40]\n 45207: u64 [s1 + 0x5e0] = a0\n 45211: a0 = u64 [s1 + 0x38]\n 45214: u64 [s1 + 0x5e8] = a0\n 45218: a1 = s1 + 0x5e0\n 45222: u64 [s1 + 0xa8] = a2\n 45226: u64 [s1 + 0x5f0] = a2\n 45230: a0 = 0\n 45232: ra = 1794, jump @24\n      : @1687 [@dyn 897] (gas: 7)\n 45239: u64 [s1 + 1496] = 0\n 45243: u64 [s1 + 1488] = 0\n 45247: u64 [s1 + 1472] = 0x2\n 45252: a0 = 0x20\n 45255: a1 = s1 + 0x5c0\n 45259: u64 [s1 + 1480] = 0\n 45263: ra = 1796, jump @24\n      : @1688 [@dyn 898] (gas: 3)\n 45270: a1 = 0x20180\n 45275: a0 = i32 [0x20180]\n 45280: jump @1690 if a0 >u 63\n      : @1689 (gas: 2)\n 45284: u32 [0x20180] = 0x40\n 45290: fallthrough\n      : @1690 (gas: 15)\n 45291: a0 = sp + 0xffffffffffffffe0\n 45294: a2 = a0 & 0xffffffffffffffe0\n 45297: u64 [s1 + 0xa0] = a2\n 45301: sp = a2\n 45303: a0 = 0x20190\n 45308: u64 [s1 + 0x50] = a0\n 45311: i32 a0 = a0 + 0\n 45313: u64 [s1 + 0xb0] = a1\n 45317: i32 a2 = a2 + 0\n 45319: a1 = 0x40\n 45322: u64 [s1 + 0xb8] = a0\n 45326: ra = 0x706\n 45330: ecalli 8 // 'hash_keccak_256'\n 45332: t0 = 0x708\n 45336: jump @1813\n      : @1691 [@dyn 899] (gas: 1)\n 45339: t0 = 1800, jump @1813\n      : @1692 [@dyn 900] (gas: 11)\n 45345: a0 = u64 [s1 + 0x28]\n 45348: a0 = a0 << 0x20\n 45351: a0 = a0 >> 0x20\n 45354: u64 [s1 + 1464] = 0\n 45358: u64 [s1 + 1456] = 0\n 45362: u64 [s1 + 1448] = 0\n 45366: a1 = s1 + 0x5a0\n 45370: u64 [s1 + 0x90] = a0\n 45374: u64 [s1 + 0x5a0] = a0\n 45378: a0 = 0\n 45380: ra = 1802, jump @24\n      : @1693 [@dyn 901] (gas: 12)\n 45387: a0 = u64 [s1 + 0x78]\n 45390: a3 = s1 + 0x500\n 45394: u64 [a3 + 0x98] = a0\n 45398: a0 = u64 [s1 + 0x80]\n 45402: u64 [a3 + 0x90] = a0\n 45406: a0 = u64 [s1 + 0x88]\n 45410: u64 [a3 + 0x88] = a0\n 45414: a0 = 0x20\n 45417: a1 = s1 + 0x580\n 45421: a2 = u64 [s1 + 0x98]\n 45425: u64 [a3 + 0x80] = a2\n 45429: ra = 1804, jump @24\n      : @1694 [@dyn 902] (gas: 3)\n 45436: a1 = u64 [s1 + 0xb0]\n 45440: a0 = i32 [a1]\n 45442: jump @1696 if a0 >u 63\n      : @1695 (gas: 2)\n 45446: u32 [a1 + 0] = 0x40\n 45449: fallthrough\n      : @1696 (gas: 4)\n 45450: a0 = sp + 0xffffffffffffffe0\n 45453: a0 = a0 & 0xffffffffffffffe0\n 45456: u64 [s1 + 0x98] = a0\n 45460: t0 = 1806, jump @1846\n      : @1697 [@dyn 903] (gas: 4)\n 45466: ra = 0x710\n 45470: ecalli 8 // 'hash_keccak_256'\n 45472: t0 = 0x712\n 45476: jump @1827\n      : @1698 [@dyn 904] (gas: 1)\n 45479: t0 = 1810, jump @1827\n      : @1699 [@dyn 905] (gas: 2)\n 45485: a0 = s1 + 0x560\n 45489: ra = 1812, jump @26\n      : @1700 [@dyn 906] (gas: 7)\n 45496: a0 = u32 [s1 + 0x564]\n 45500: a1 = u64 [s1 + 0x568]\n 45504: a2 = u64 [s1 + 0x570]\n 45508: a0 = a0 << 0x20\n 45511: a1 = a1 | a2\n 45514: a0 = a0 | a1\n 45517: jump @1762 if a0 == 0\n      : @1701 (gas: 10)\n 45521: u64 [s1 + 1368] = 0\n 45525: a0 = u64 [s1 + 0x40]\n 45528: u64 [s1 + 0x540] = a0\n 45532: a0 = u64 [s1 + 0x38]\n 45535: u64 [s1 + 0x548] = a0\n 45539: a1 = s1 + 0x540\n 45543: a0 = u64 [s1 + 0xa8]\n 45547: u64 [s1 + 0x550] = a0\n 45551: a0 = 0\n 45553: ra = 1814, jump @24\n      : @1702 [@dyn 907] (gas: 7)\n 45560: u64 [s1 + 1336] = 0\n 45564: u64 [s1 + 1328] = 0\n 45568: u64 [s1 + 1312] = 0x4\n 45573: a0 = 0x20\n 45576: a1 = s1 + 0x520\n 45580: u64 [s1 + 1320] = 0\n 45584: ra = 1816, jump @24\n      : @1703 [@dyn 908] (gas: 3)\n 45591: a1 = u64 [s1 + 0xb0]\n 45595: a0 = i32 [a1]\n 45597: jump @1705 if a0 >u 63\n      : @1704 (gas: 2)\n 45601: u32 [a1 + 0] = 0x40\n 45604: fallthrough\n      : @1705 (gas: 4)\n 45605: a0 = sp + 0xffffffffffffffe0\n 45608: a0 = a0 & 0xffffffffffffffe0\n 45611: u64 [s1 + 0xa0] = a0\n 45615: t0 = 1818, jump @1846\n      : @1706 [@dyn 909] (gas: 5)\n 45621: ra = 0x71c\n 45625: ecalli 8 // 'hash_keccak_256'\n 45627: a3 = u64 [s1 + 0xa0]\n 45631: t0 = 0x71e\n 45635: jump @1870\n      : @1707 [@dyn 910] (gas: 2)\n 45638: a3 = u64 [s1 + 0xa0]\n 45642: t0 = 1822, jump @1870\n      : @1708 [@dyn 911] (gas: 15)\n 45648: u64 [s1 + 0xa0] = a0\n 45652: a0 = reverse a1\n 45654: u64 [s1 + 0x98] = a0\n 45658: a0 = reverse a2\n 45660: u64 [s1 + 0x88] = a0\n 45664: a0 = reverse a3\n 45666: u64 [s1 + 0x80] = a0\n 45670: u64 [s1 + 1304] = 0\n 45674: u64 [s1 + 1296] = 0\n 45678: u64 [s1 + 1288] = 0\n 45682: a1 = s1 + 0x500\n 45686: a0 = u64 [s1 + 0x30]\n 45689: u64 [s1 + 0x500] = a0\n 45693: a0 = 0\n 45695: ra = 1824, jump @24\n      : @1709 [@dyn 912] (gas: 12)\n 45702: a0 = u64 [s1 + 0x80]\n 45706: a3 = s1 + 0x400\n 45710: u64 [a3 + 0xf8] = a0\n 45714: a0 = u64 [s1 + 0x88]\n 45718: u64 [a3 + 0xf0] = a0\n 45722: a0 = u64 [s1 + 0x98]\n 45726: u64 [a3 + 0xe8] = a0\n 45730: a0 = 0x20\n 45733: a1 = s1 + 0x4e0\n 45737: a2 = u64 [s1 + 0xa0]\n 45741: u64 [a3 + 0xe0] = a2\n 45745: ra = 1826, jump @24\n      : @1710 [@dyn 913] (gas: 3)\n 45752: a1 = u64 [s1 + 0xb0]\n 45756: a0 = i32 [a1]\n 45758: jump @1712 if a0 >u 63\n      : @1711 (gas: 2)\n 45762: u32 [a1 + 0] = 0x40\n 45765: fallthrough\n      : @1712 (gas: 4)\n 45766: a0 = sp + 0xffffffffffffffe0\n 45769: a0 = a0 & 0xffffffffffffffe0\n 45772: u64 [s1 + 0xa0] = a0\n 45776: t0 = 1828, jump @1846\n      : @1713 [@dyn 914] (gas: 4)\n 45782: ra = 0x726\n 45786: ecalli 8 // 'hash_keccak_256'\n 45788: t0 = 0x728\n 45792: jump @1813\n      : @1714 [@dyn 915] (gas: 1)\n 45795: t0 = 1832, jump @1813\n      : @1715 [@dyn 916] (gas: 8)\n 45801: u64 [s1 + 1240] = 0\n 45805: u64 [s1 + 1232] = 0\n 45809: u64 [s1 + 1224] = 0\n 45813: a1 = s1 + 0x4c0\n 45817: a0 = u64 [s1 + 0x90]\n 45821: u64 [s1 + 0x4c0] = a0\n 45825: a0 = 0\n 45827: ra = 1834, jump @24\n      : @1716 [@dyn 917] (gas: 12)\n 45834: a0 = u64 [s1 + 0x78]\n 45837: a3 = s1 + 0x400\n 45841: u64 [a3 + 0xb8] = a0\n 45845: a0 = u64 [s1 + 0x80]\n 45849: u64 [a3 + 0xb0] = a0\n 45853: a0 = u64 [s1 + 0x88]\n 45857: u64 [a3 + 0xa8] = a0\n 45861: a0 = 0x20\n 45864: a1 = s1 + 0x4a0\n 45868: a2 = u64 [s1 + 0x98]\n 45872: u64 [a3 + 0xa0] = a2\n 45876: ra = 1836, jump @24\n      : @1717 [@dyn 918] (gas: 3)\n 45883: a1 = u64 [s1 + 0xb0]\n 45887: a0 = i32 [a1]\n 45889: jump @1719 if a0 >=u 64\n      : @1718 (gas: 2)\n 45893: u32 [a1 + 0] = 0x40\n 45896: fallthrough\n      : @1719 (gas: 4)\n 45897: a0 = sp + 0xffffffffffffffe0\n 45900: a0 = a0 & 0xffffffffffffffe0\n 45903: u64 [s1 + 0x98] = a0\n 45907: t0 = 1838, jump @1846\n      : @1720 [@dyn 919] (gas: 4)\n 45913: ra = 0x730\n 45917: ecalli 8 // 'hash_keccak_256'\n 45919: t0 = 0x732\n 45923: jump @1827\n      : @1721 [@dyn 920] (gas: 1)\n 45926: t0 = 1842, jump @1827\n      : @1722 [@dyn 921] (gas: 2)\n 45932: a0 = s1 + 0x480\n 45936: ra = 1844, jump @26\n      : @1723 [@dyn 922] (gas: 3)\n 45943: a1 = u64 [s1 + 0x480]\n 45947: a0 = a1 & 0xff\n 45951: jump @1763 if a0 == 0\n      : @1724 (gas: 3)\n 45955: u64 [s1 + 0x98] = a1\n 45959: a0 = a1 & 0xff0000\n 45965: jump @1764 if a0 != 0\n      : @1725 (gas: 16)\n 45969: a0 = u64 [s1 + 0x498]\n 45973: u64 [s1 + 0x58] = a0\n 45976: a0 = u64 [s1 + 0x490]\n 45980: u64 [s1 + 0x60] = a0\n 45983: a0 = u64 [s1 + 0x488]\n 45987: u64 [s1 + 0x68] = a0\n 45990: u64 [s1 + 1112] = 0\n 45994: a0 = u64 [s1 + 0x40]\n 45997: u64 [s1 + 0x440] = a0\n 46001: a0 = u64 [s1 + 0x38]\n 46004: u64 [s1 + 0x448] = a0\n 46008: a1 = s1 + 0x440\n 46012: a0 = u64 [s1 + 0xa8]\n 46016: u64 [s1 + 0x450] = a0\n 46020: a0 = 0\n 46022: ra = 1846, jump @24\n      : @1726 [@dyn 923] (gas: 7)\n 46029: u64 [s1 + 1080] = 0\n 46033: u64 [s1 + 1072] = 0\n 46037: u64 [s1 + 1056] = 0x1\n 46042: a0 = 0x20\n 46045: a1 = s1 + 0x420\n 46049: u64 [s1 + 1064] = 0\n 46053: ra = 1848, jump @24\n      : @1727 [@dyn 924] (gas: 3)\n 46060: a2 = u64 [s1 + 0xb0]\n 46064: a0 = i32 [a2]\n 46066: jump @1729 if a0 >u 63\n      : @1728 (gas: 2)\n 46070: u32 [a2 + 0] = 0x40\n 46073: fallthrough\n      : @1729 (gas: 4)\n 46074: a0 = sp + 0xffffffffffffffe0\n 46077: a0 = a0 & 0xffffffffffffffe0\n 46080: u64 [s1 + 0x88] = a0\n 46084: t0 = 1850, jump @1846\n      : @1730 [@dyn 925] (gas: 28)\n 46090: ecalli 8 // 'hash_keccak_256'\n 46092: a3 = u64 [s1 + 0x88]\n 46096: a0 = u64 [a3]\n 46098: a1 = u64 [a3 + 0x8]\n 46101: a2 = u64 [a3 + 0x10]\n 46104: a3 = u64 [a3 + 0x18]\n 46107: a0 = reverse a0\n 46109: u64 [s1 + 0x88] = a0\n 46113: a0 = reverse a1\n 46115: u64 [s1 + 0x80] = a0\n 46119: a0 = reverse a2\n 46121: u64 [s1 + 0x78] = a0\n 46124: a0 = reverse a3\n 46126: u64 [s1 + 0x70] = a0\n 46129: a1 = sp + 0xffffffffffffffe0\n 46132: a1 = a1 & 0xffffffffffffffe0\n 46135: sp = a1\n 46137: a2 = u64 [s1 + 0x98]\n 46141: a0 = a2 | 0x10000\n 46146: a2 = u64 [s1 + 0x58]\n 46149: u64 [a1 + 0x18] = a2\n 46152: a2 = u64 [s1 + 0x60]\n 46155: u64 [a1 + 0x10] = a2\n 46158: a2 = u64 [s1 + 0x68]\n 46161: u64 [a1 + 0x8] = a2\n 46164: u64 [a1] = a0\n 46166: a0 = u64 [s1 + 0xa0]\n 46170: ra = 1852, jump @28\n      : @1731 [@dyn 926] (gas: 25)\n 46177: a1 = u64 [s1 + 0x98]\n 46181: a0 = a1 & 0xff00\n 46186: u64 [s1 + 0x98] = a0\n 46190: a0 = sp + 0xffffffffffffffe0\n 46193: a1 = a0 & 0xffffffffffffffe0\n 46196: sp = a1\n 46198: a0 = u64 [s1 + 0x70]\n 46201: a0 = a0 + 0x1\n 46204: a2 = a0 <u 0x1\n 46207: a4 = u64 [s1 + 0x78]\n 46210: a4 = a4 + a2\n 46213: a2 = a0 | a4\n 46216: a2 = a2 <u 0x1\n 46219: a3 = u64 [s1 + 0x80]\n 46223: a2 = a2 + a3\n 46226: a3 = a2 <u a3\n 46229: a5 = u64 [s1 + 0x88]\n 46233: a3 = a3 + a5\n 46236: u64 [a1 + 0x18] = a3\n 46239: u64 [a1 + 0x10] = a2\n 46242: u64 [a1 + 0x8] = a4\n 46245: u64 [a1] = a0\n 46247: a0 = s1 + 0x400\n 46251: u64 [s1 + 0xa0] = a1\n 46255: ra = 1854, jump @26\n      : @1732 [@dyn 927] (gas: 27)\n 46262: t0 = u64 [s1 + 0x418]\n 46266: t1 = u64 [s1 + 0x410]\n 46270: a3 = u64 [s1 + 0x408]\n 46274: t2 = u64 [s1 + 0x400]\n 46278: a1 = sp + 0xffffffffffffffe0\n 46281: a1 = a1 & 0xffffffffffffffe0\n 46284: sp = a1\n 46286: a5 = u64 [0x20120]\n 46291: a5 = a5 + t2\n 46294: a2 = a5 <u t2\n 46297: a0 = a3 + a2\n 46300: a0 = a0 + 0xffffffffffffffff\n 46303: ra = a0 ^ a3\n 46306: a4 = a0 <u a3\n 46309: a4 = a2 if ra == 0\n 46312: a2 = t1 + 0xffffffffffffffff\n 46315: a4 = a4 + a2\n 46318: ra = a4 <u a2\n 46321: a2 = t1 <u 0x1\n 46324: a2 = t0 - a2\n 46327: a2 = a2 + ra\n 46330: u64 [a1 + 0x8] = a0\n 46333: u64 [a1] = a5\n 46335: u64 [a1 + 0x10] = a4\n 46338: u64 [a1 + 0x18] = a2\n 46341: a0 = u64 [s1 + 0x98]\n 46345: jump @1743 if a0 == 0\n      : @1733 (gas: 7)\n 46349: a0 = u64 [0x20128]\n 46354: u64 [s1 + 0x98] = a0\n 46358: a0 = t2 <u a0\n 46361: a0 = 0 if a3 != 0\n 46363: a2 = t1 | t0\n 46366: a0 = 0 if a2 != 0\n 46368: jump @1765 if a0 != 0\n      : @1734 (gas: 2)\n 46372: a0 = u64 [s1 + 0xa0]\n 46376: ra = 1856, jump @28\n      : @1735 [@dyn 928] (gas: 22)\n 46383: a0 = sp + 0xffffffffffffffe0\n 46386: a1 = a0 & 0xffffffffffffffe0\n 46389: sp = a1\n 46391: a2 = u64 [s1 + 0x70]\n 46394: a0 = a2 + 0x2\n 46397: a4 = a0 <u a2\n 46400: a3 = u64 [s1 + 0x78]\n 46403: a2 = a3 + a4\n 46406: a3 = a2 <u a3\n 46409: a3 = a4 if a4 == 0\n 46412: a4 = u64 [s1 + 0x80]\n 46416: a3 = a3 + a4\n 46419: a5 = a3 <u a4\n 46422: a4 = u64 [s1 + 0x88]\n 46426: a4 = a4 + a5\n 46429: u64 [a1 + 0x10] = a3\n 46432: u64 [a1 + 0x8] = a2\n 46435: u64 [a1] = a0\n 46437: u64 [a1 + 0x18] = a4\n 46440: a0 = s1 + 0x3e0\n 46444: u64 [s1 + 0xa0] = a1\n 46448: ra = 1858, jump @26\n      : @1736 [@dyn 929] (gas: 28)\n 46455: t0 = u64 [s1 + 0x3f8]\n 46459: t1 = u64 [s1 + 0x3f0]\n 46463: a3 = u64 [s1 + 0x3e8]\n 46467: a4 = u64 [s1 + 0x3e0]\n 46471: a1 = sp + 0xffffffffffffffe0\n 46474: a1 = a1 & 0xffffffffffffffe0\n 46477: sp = a1\n 46479: t2 = u64 [s1 + 0x98]\n 46483: t2 = t2 + a4\n 46486: a0 = t2 <u a4\n 46489: a2 = a3 + a0\n 46492: a5 = a2 <u a3\n 46495: a5 = a0 if a0 == 0\n 46498: a5 = a5 + t1\n 46501: a0 = a5 <u t1\n 46504: u64 [a1 + 0x10] = a5\n 46507: a5 = u64 [0x20130]\n 46512: a0 = a0 + t0\n 46515: u64 [a1 + 0x8] = a2\n 46518: u64 [a1] = t2\n 46520: a2 = a5 <u a4\n 46523: a3 = a3 + 0x1\n 46526: a2 = 0 if a3 != 0\n 46528: a3 = t1 & t0\n 46531: a3 = a3 + 0x1\n 46534: a2 = 0 if a3 != 0\n 46536: u64 [a1 + 0x18] = a0\n 46539: jump @1768 if a2 != 0\n      : @1737 (gas: 2)\n 46543: a0 = u64 [s1 + 0xa0]\n 46547: ra = 1860, jump @28\n      : @1738 [@dyn 930] (gas: 3)\n 46554: a0 = s1 + 0x3c0\n 46558: a1 = 0x40\n 46561: ra = 1862, jump @22\n      : @1739 [@dyn 931] (gas: 6)\n 46568: a4 = s1 + 0x300\n 46572: a0 = u64 [a4 + 0xd8]\n 46576: a1 = u64 [a4 + 0xd0]\n 46580: a2 = u64 [a4 + 0xc8]\n 46584: a3 = u64 [a4 + 0xc0]\n 46588: t0 = 1864, jump @1809\n      : @1740 [@dyn 932] (gas: 1)\n 46594: jump @1757 if a0 != 0\n      : @1741 (gas: 9)\n 46598: u64 [s1 + 952] = 0\n 46602: u64 [s1 + 944] = 0\n 46606: u64 [s1 + 936] = 0\n 46610: a1 = s1 + 0x3a0\n 46614: a0 = u64 [s1 + 0x98]\n 46618: u64 [s1 + 0x3a0] = a0\n 46622: a0 = a3\n 46624: u64 [s1 + 0xb8] = a3\n 46628: ra = 1866, jump @24\n      : @1742 [@dyn 933] (gas: 33)\n 46635: u64 [s1 + 824] = 0\n 46639: u64 [s1 + 816] = 0\n 46643: u64 [s1 + 808] = 0\n 46647: a0 = u64 [s1 + 0x30]\n 46650: u64 [s1 + 0x320] = a0\n 46654: u64 [s1 + 856] = 0\n 46658: u64 [s1 + 848] = 0\n 46662: u64 [s1 + 840] = 0\n 46666: a0 = u64 [s1 + 0x90]\n 46670: u64 [s1 + 0x340] = a0\n 46674: u64 [s1 + 888] = 0\n 46678: a0 = u64 [s1 + 0xa8]\n 46682: u64 [s1 + 0x370] = a0\n 46686: a0 = u64 [s1 + 0x38]\n 46689: u64 [s1 + 0x368] = a0\n 46693: a0 = u64 [0x20138]\n 46698: a1 = u64 [0x20140]\n 46703: a2 = u64 [0x20148]\n 46708: a3 = u64 [s1 + 0x40]\n 46711: u64 [s1 + 0x360] = a3\n 46715: u64 [s1 + 0x398] = a0\n 46719: u64 [s1 + 0x390] = a1\n 46723: u64 [s1 + 0x388] = a2\n 46727: a0 = u64 [0x20150]\n 46732: a1 = 0x20\n 46735: a2 = s1 + 0x380\n 46739: a3 = s1 + 0x360\n 46743: a4 = s1 + 0x340\n 46747: a5 = s1 + 0x320\n 46751: u64 [s1 + 0x380] = a0\n 46755: a0 = u64 [s1 + 0xb8]\n 46759: ra = 0x75c\n 46763: jump @34\n      : @1743 (gas: 7)\n 46767: a0 = u64 [0x20128]\n 46772: u64 [s1 + 0x98] = a0\n 46776: a0 = t2 <u a0\n 46779: a0 = 0 if a3 != 0\n 46781: a2 = t1 | t0\n 46784: a0 = 0 if a2 != 0\n 46786: jump @1771 if a0 != 0\n      : @1744 (gas: 2)\n 46790: a0 = u64 [s1 + 0xa0]\n 46794: ra = 1868, jump @28\n      : @1745 [@dyn 934] (gas: 7)\n 46801: u64 [s1 + 1624] = 0\n 46805: u64 [s1 + 1616] = 0\n 46809: u64 [s1 + 1608] = 0\n 46813: u64 [s1 + 1600] = 0\n 46817: a0 = s1 + 0x280\n 46821: a1 = s1 + 0x640\n 46825: ra = 1870, jump @26\n      : @1746 [@dyn 935] (gas: 28)\n 46832: t0 = u64 [s1 + 0x298]\n 46836: t1 = u64 [s1 + 0x290]\n 46840: a3 = u64 [s1 + 0x288]\n 46844: a4 = u64 [s1 + 0x280]\n 46848: a1 = sp + 0xffffffffffffffe0\n 46851: a1 = a1 & 0xffffffffffffffe0\n 46854: sp = a1\n 46856: t2 = u64 [s1 + 0x98]\n 46860: t2 = t2 + a4\n 46863: a0 = t2 <u a4\n 46866: a2 = a3 + a0\n 46869: a5 = a2 <u a3\n 46872: a5 = a0 if a0 == 0\n 46875: a5 = a5 + t1\n 46878: a0 = a5 <u t1\n 46881: u64 [a1 + 0x10] = a5\n 46884: a5 = u64 [0x20130]\n 46889: a0 = a0 + t0\n 46892: u64 [a1 + 0x8] = a2\n 46895: u64 [a1] = t2\n 46897: a2 = a5 <u a4\n 46900: a3 = a3 + 0x1\n 46903: a2 = 0 if a3 != 0\n 46905: a3 = t1 & t0\n 46908: a3 = a3 + 0x1\n 46911: a2 = 0 if a3 != 0\n 46913: u64 [a1 + 0x18] = a0\n 46916: jump @1774 if a2 != 0\n      : @1747 (gas: 6)\n 46920: u64 [s1 + 1656] = 0\n 46924: u64 [s1 + 1648] = 0\n 46928: u64 [s1 + 1640] = 0\n 46932: u64 [s1 + 1632] = 0\n 46936: a0 = s1 + 0x660\n 46940: ra = 1872, jump @28\n      : @1748 [@dyn 936] (gas: 1)\n 46947: ra = 1874, jump @15\n      : @1749 [@dyn 937] (gas: 59)\n 46954: a1 = u64 [0x301b0]\n 46959: u64 [s1 + 0xa0] = a1\n 46963: a1 = u64 [0x301c0]\n 46968: u64 [s1 + 0x88] = a1\n 46972: a0 = u64 [0x301b8]\n 46977: u64 [s1 + 0x80] = a0\n 46981: ecalli 10 // 'ref_time_left'\n 46983: a1 = u64 [s1 + 0x80]\n 46987: a1 = reverse a1\n 46989: a2 = a1 << 0x20\n 46992: a3 = u64 [s1 + 0x88]\n 46996: a3 = reverse a3\n 46998: a3 = a3 >> 0x20\n 47001: a2 = a2 | a3\n 47004: a1 = a1 >> 0x20\n 47007: a3 = u64 [s1 + 0xa0]\n 47011: a3 = reverse a3\n 47013: a4 = 0x30190\n 47018: a5 = a3 << 0x20\n 47021: a1 = a1 | a5\n 47024: a3 = a3 >> 0x20\n 47027: u32 [0x301a0] = a3\n 47032: u64 [0x30198] = a1\n 47037: u64 [0x30190] = a2\n 47042: u64 [s1 + 1688] = 0\n 47046: u64 [s1 + 1680] = 0\n 47050: u64 [s1 + 1672] = 0\n 47054: a1 = u64 [s1 + 0x98]\n 47058: a2 = s1 + 0x600\n 47062: u64 [a2 + 0x80] = a1\n 47066: u32 [s1 + 1696] = 0\n 47070: a0 = a0 >u 0x8fc\n 47074: a1 = -a0\n 47076: u64 [a2 + 0xd8] = a1\n 47080: u64 [a2 + 0xd0] = a1\n 47084: u64 [a2 + 0xc8] = a1\n 47088: u64 [a2 + 0xc0] = a1\n 47092: a4 = a4 << 0x20\n 47095: a4 = a4 >> 0x20\n 47098: a0 = a0 << 0x23\n 47101: a0 = a0 | a4\n 47104: a1 = s1 + 0x680\n 47108: a1 = a1 << 0x20\n 47111: a1 = a1 >> 0x20\n 47114: a2 = s1 + 0x6c0\n 47118: a2 = a2 << 0x20\n 47121: a3 = a2 | a1\n 47124: a4 = u64 [s1 + 0x50]\n 47127: a4 = a4 << 0x20\n 47130: a4 = a4 >> 0x20\n 47133: a1 = s1 + 0x6a0\n 47137: a1 = a1 << 0x20\n 47140: a5 = a1 | a4\n 47143: a1 = 0xffffffffffffffff\n 47146: a2 = 0xffffffffffffffff\n 47149: ecalli 0 // 'call'\n 47150: u64 [s1 + 0xa0] = a0\n 47154: a0 = s1 + 0x260\n 47158: ra = 1876, jump @1616\n      : @1750 [@dyn 938] (gas: 2)\n 47164: a0 = u64 [s1 + 0xa0]\n 47168: jump @1780 if a0 != 0\n      : @1751 (gas: 3)\n 47172: a0 = s1 + 0x220\n 47176: a1 = 0x40\n 47179: ra = 1878, jump @22\n      : @1752 [@dyn 939] (gas: 6)\n 47186: a4 = s1 + 0x200\n 47190: a0 = u64 [a4 + 0x38]\n 47193: a1 = u64 [a4 + 0x30]\n 47196: a2 = u64 [a4 + 0x28]\n 47199: a3 = u64 [a4 + 0x20]\n 47202: t0 = 1880, jump @1809\n      : @1753 [@dyn 940] (gas: 1)\n 47208: jump @1757 if a0 != 0\n      : @1754 (gas: 9)\n 47212: u64 [s1 + 536] = 0\n 47216: u64 [s1 + 528] = 0\n 47220: u64 [s1 + 520] = 0\n 47224: a1 = s1 + 0x200\n 47228: a0 = u64 [s1 + 0x98]\n 47232: u64 [s1 + 0x200] = a0\n 47236: a0 = a3\n 47238: u64 [s1 + 0xb8] = a3\n 47242: ra = 1882, jump @24\n      : @1755 [@dyn 941] (gas: 32)\n 47249: u64 [s1 + 408] = 0\n 47253: u64 [s1 + 400] = 0\n 47257: u64 [s1 + 392] = 0\n 47261: a0 = u64 [s1 + 0x30]\n 47264: u64 [s1 + 0x180] = a0\n 47268: u64 [s1 + 440] = 0\n 47272: u64 [s1 + 432] = 0\n 47276: u64 [s1 + 424] = 0\n 47280: a0 = u64 [s1 + 0x90]\n 47284: u64 [s1 + 0x1a0] = a0\n 47288: u64 [s1 + 472] = 0\n 47292: a0 = u64 [s1 + 0xa8]\n 47296: u64 [s1 + 0x1d0] = a0\n 47300: a0 = u64 [s1 + 0x38]\n 47303: u64 [s1 + 0x1c8] = a0\n 47307: a0 = u64 [0x20158]\n 47312: a1 = u64 [0x20160]\n 47317: a2 = u64 [0x20168]\n 47322: a3 = u64 [s1 + 0x40]\n 47325: u64 [s1 + 0x1c0] = a3\n 47329: u64 [s1 + 0x1f8] = a0\n 47333: u64 [s1 + 0x1f0] = a1\n 47337: u64 [s1 + 0x1e8] = a2\n 47341: a0 = u64 [0x20170]\n 47346: a1 = 0x20\n 47349: a2 = s1 + 0x1e0\n 47353: a3 = s1 + 0x1c0\n 47357: a4 = s1 + 0x1a0\n 47361: a5 = s1 + 0x180\n 47365: u64 [s1 + 0x1e0] = a0\n 47369: a0 = u64 [s1 + 0xb8]\n 47373: ra = 1884, jump @34\n      : @1756 [@dyn 942] (gas: 7)\n 47380: sp = s0 + 0xfffffffffffff900\n 47384: a0 = sp + 0x600\n 47388: ra = u64 [a0 + 0xf8]\n 47392: s0 = u64 [a0 + 0xf0]\n 47396: s1 = u64 [a0 + 0xe8]\n 47400: sp = sp + 0x700\n 47404: ret\n      : @1757 (gas: 1)\n 47406: trap\n      : @1758 (gas: 8)\n 47407: u64 [s1 + 1552] = 0\n 47411: u64 [s1 + 1544] = 0\n 47415: u64 [s1 + 1536] = 0\n 47419: a0 = 0xcf114bd900000000\n 47429: a1 = s1 + 0x600\n 47433: u64 [s1 + 0x618] = a0\n 47437: a0 = 0\n 47439: ra = 1886, jump @24\n      : @1759 [@dyn 943] (gas: 2)\n 47446: a1 = i32 [0x20180]\n 47451: jump @1761 if a1 >u 31\n      : @1760 (gas: 2)\n 47455: u32 [0x20180] = 0x20\n 47461: fallthrough\n      : @1761 (gas: 6)\n 47462: a1 = 0x20190\n 47467: i32 a1 = a1 + 0\n 47469: a0 = 0x1\n 47472: a2 = 0x4\n 47475: ecalli 13 // 'seal_return'\n 47477: fallthrough\n      : @1762 (gas: 9)\n 47478: u64 [s1 + 208] = 0\n 47482: u64 [s1 + 200] = 0\n 47486: u64 [s1 + 192] = 0\n 47490: a0 = 0xa7a9536d00000000\n 47500: a1 = s1 + 0xc0\n 47504: u64 [s1 + 0xd8] = a0\n 47508: a0 = 0\n 47510: ra = 0x772\n 47514: jump @24\n      : @1763 (gas: 9)\n 47518: u64 [s1 + 240] = 0\n 47522: u64 [s1 + 232] = 0\n 47526: u64 [s1 + 224] = 0\n 47530: a0 = 0xafa4e2b600000000\n 47540: a1 = s1 + 0xe0\n 47544: u64 [s1 + 0xf8] = a0\n 47548: a0 = 0\n 47550: ra = 0x772\n 47554: jump @24\n      : @1764 (gas: 9)\n 47558: u64 [s1 + 1136] = 0\n 47562: u64 [s1 + 1128] = 0\n 47566: u64 [s1 + 1120] = 0\n 47570: a0 = 0x560ff90000000000\n 47580: a1 = s1 + 0x460\n 47584: u64 [s1 + 0x478] = a0\n 47588: a0 = 0\n 47590: ra = 0x772\n 47594: jump @24\n      : @1765 (gas: 6)\n 47598: u64 [s1 + 720] = 0\n 47602: u64 [s1 + 712] = 0\n 47606: u64 [s1 + 704] = 0\n 47610: t0 = 0x760\n 47614: a0 = 0x4e487b7100000000\n 47624: fallthrough\n      : @1766 [@dyn 944] (gas: 4)\n 47625: a1 = s1 + 0x2c0\n 47629: u64 [s1 + 0x2d8] = a0\n 47633: a0 = 0\n 47635: ra = 1890, jump @24\n      : @1767 [@dyn 945] (gas: 8)\n 47642: u64 [s1 + 696] = 0\n 47646: u64 [s1 + 688] = 0\n 47650: u64 [s1 + 672] = 0x11\n 47655: a0 = 0x4\n 47658: a1 = s1 + 0x2a0\n 47662: u64 [s1 + 680] = 0\n 47666: ra = 0x770\n 47670: jump @24\n      : @1768 (gas: 6)\n 47674: u64 [s1 + 784] = 0\n 47678: u64 [s1 + 776] = 0\n 47682: u64 [s1 + 768] = 0\n 47686: t0 = 0x764\n 47690: a0 = 0x4e487b7100000000\n 47700: fallthrough\n      : @1769 [@dyn 946] (gas: 4)\n 47701: a1 = s1 + 0x300\n 47705: u64 [s1 + 0x318] = a0\n 47709: a0 = 0\n 47711: ra = 1894, jump @24\n      : @1770 [@dyn 947] (gas: 8)\n 47718: u64 [s1 + 760] = 0\n 47722: u64 [s1 + 752] = 0\n 47726: u64 [s1 + 736] = 0x11\n 47731: a0 = 0x4\n 47734: a1 = s1 + 0x2e0\n 47738: u64 [s1 + 744] = 0\n 47742: ra = 0x770\n 47746: jump @24\n      : @1771 (gas: 6)\n 47750: u64 [s1 + 304] = 0\n 47754: u64 [s1 + 296] = 0\n 47758: u64 [s1 + 288] = 0\n 47762: t0 = 0x768\n 47766: a0 = 0x4e487b7100000000\n 47776: fallthrough\n      : @1772 [@dyn 948] (gas: 4)\n 47777: a1 = s1 + 0x120\n 47781: u64 [s1 + 0x138] = a0\n 47785: a0 = 0\n 47787: ra = 1898, jump @24\n      : @1773 [@dyn 949] (gas: 8)\n 47794: u64 [s1 + 280] = 0\n 47798: u64 [s1 + 272] = 0\n 47802: u64 [s1 + 256] = 0x11\n 47807: a0 = 0x4\n 47810: a1 = s1 + 0x100\n 47814: u64 [s1 + 264] = 0\n 47818: ra = 0x770\n 47822: jump @24\n      : @1774 (gas: 6)\n 47826: u64 [s1 + 368] = 0\n 47830: u64 [s1 + 360] = 0\n 47834: u64 [s1 + 352] = 0\n 47838: t0 = 0x76c\n 47842: a0 = 0x4e487b7100000000\n 47852: fallthrough\n      : @1775 [@dyn 950] (gas: 4)\n 47853: a1 = s1 + 0x160\n 47857: u64 [s1 + 0x178] = a0\n 47861: a0 = 0\n 47863: ra = 1902, jump @24\n      : @1776 [@dyn 951] (gas: 7)\n 47870: u64 [s1 + 344] = 0\n 47874: u64 [s1 + 336] = 0\n 47878: u64 [s1 + 320] = 0x11\n 47883: a0 = 0x4\n 47886: a1 = s1 + 0x140\n 47890: u64 [s1 + 328] = 0\n 47894: ra = 1904, jump @24\n      : @1777 [@dyn 952] (gas: 3)\n 47901: a0 = u64 [s1 + 0xb0]\n 47905: a0 = i32 [a0]\n 47907: jump @1779 if a0 >u 63\n      : @1778 (gas: 5)\n 47911: a1 = u64 [s1 + 0xb0]\n 47915: u32 [a1 + 0] = 0x40\n 47918: a0 = 0x1\n 47921: a2 = 0x24\n 47924: jump @1784\n      : @1779 (gas: 7)\n 47926: a0 = 0x1\n 47929: a2 = 0x24\n 47932: a1 = u64 [s1 + 0xb8]\n 47936: ecalli 13 // 'seal_return'\n 47938: a0 = 0\n 47940: ra = 0x774\n 47944: jump @43\n      : @1780 (gas: 8)\n 47948: u64 [s1 + 592] = 0\n 47952: u64 [s1 + 584] = 0\n 47956: u64 [s1 + 576] = 0\n 47960: a0 = 0x90b8ec1800000000\n 47970: a1 = s1 + 0x240\n 47974: u64 [s1 + 0x258] = a0\n 47978: a0 = 0\n 47980: ra = 1906, jump @24\n      : @1781 [@dyn 953] (gas: 3)\n 47987: a0 = u64 [s1 + 0xb0]\n 47991: a0 = i32 [a0]\n 47993: jump @1783 if a0 >u 31\n      : @1782 (gas: 5)\n 47997: a1 = u64 [s1 + 0xb0]\n 48001: u32 [a1 + 0] = 0x20\n 48004: a0 = 0x1\n 48007: a2 = 0x4\n 48010: jump @1784\n      : @1783 (gas: 7)\n 48012: a0 = 0x1\n 48015: a2 = 0x4\n 48018: a1 = u64 [s1 + 0xb8]\n 48022: ecalli 13 // 'seal_return'\n 48024: a0 = 0\n 48026: ra = 0x774\n 48030: jump @43\n      : @1784 (gas: 5)\n 48034: a1 = u64 [s1 + 0xb8]\n 48038: ecalli 13 // 'seal_return'\n 48040: a0 = 0\n 48042: ra = 0x774\n 48046: jump @43\n      : @1785 [export #0: 'call'] (gas: 2)\n 48050: a0 = 0\n 48052: ra = 1908, jump @43\n      : @1786 [@dyn 954] [export #1: 'deploy'] (gas: 2)\n 48059: a0 = 0x1\n 48062: ra = 1910, jump @43\n      : @1787 [@dyn 955] (gas: 15)\n 48069: a0 = u64 [a2 + 0x8]\n 48072: a1 = i32 [a2 + 0x10]\n 48075: a2 = u64 [a2]\n 48077: a0 = reverse a0\n 48079: a3 = a0 << 0x20\n 48082: a1 = reverse a1\n 48084: a1 = a1 >> 0x20\n 48087: a3 = a3 | a1\n 48090: a0 = a0 >> 0x20\n 48093: a1 = reverse a2\n 48095: a2 = a1 << 0x20\n 48098: a0 = a0 | a2\n 48101: a1 = a1 >> 0x20\n 48104: a2 = s1 + 0x2118\n 48108: jump [t0]\n      : @1788 (gas: 16)\n 48110: a2 = u64 [s1 + 0x140]\n 48114: a0 = u64 [a2 + 0x8]\n 48117: a1 = i32 [a2 + 0x10]\n 48120: a2 = u64 [a2]\n 48122: a0 = reverse a0\n 48124: a3 = a0 << 0x20\n 48127: a1 = reverse a1\n 48129: a1 = a1 >> 0x20\n 48132: a3 = a3 | a1\n 48135: a0 = a0 >> 0x20\n 48138: a1 = reverse a2\n 48140: a2 = a1 << 0x20\n 48143: a0 = a0 | a2\n 48146: a1 = a1 >> 0x20\n 48149: a2 = s1 + 0x1118\n 48153: jump [t0]\n      : @1789 (gas: 21)\n 48155: a3 = u64 [s1 + 0x168]\n 48159: a0 = u64 [a3 + 0x18]\n 48162: a1 = u64 [a3 + 0x10]\n 48165: a2 = u64 [a3 + 0x8]\n 48168: a3 = u64 [a3]\n 48170: a0 = reverse a0\n 48172: u64 [s1 + 0x160] = a0\n 48176: a0 = reverse a1\n 48178: u64 [s1 + 0x158] = a0\n 48182: a0 = reverse a2\n 48184: u64 [s1 + 0x150] = a0\n 48188: a0 = reverse a3\n 48190: u64 [s1 + 0x148] = a0\n 48194: a0 = sp + 0xffffffffffffffe0\n 48197: a0 = a0 & 0xffffffffffffffe0\n 48200: u64 [s1 + 0x168] = a0\n 48204: sp = a0\n 48206: a2 = s1 + 0x7ff\n 48210: a2 = a2 + 0x111\n 48214: a0 = u64 [s1 + 0x198]\n 48218: jump [t0]\n      : @1790 (gas: 15)\n 48220: a0 = u64 [a2 + 0x8]\n 48223: a1 = i32 [a2 + 0x10]\n 48226: a2 = u64 [a2]\n 48228: a0 = reverse a0\n 48230: a3 = a0 << 0x20\n 48233: a1 = reverse a1\n 48235: a1 = a1 >> 0x20\n 48238: a3 = a3 | a1\n 48241: a0 = a0 >> 0x20\n 48244: a1 = reverse a2\n 48246: a2 = a1 << 0x20\n 48249: a0 = a0 | a2\n 48252: a1 = a1 >> 0x20\n 48255: a2 = s1 + 0x2918\n 48259: jump [t0]\n      : @1791 (gas: 13)\n 48261: a0 = u64 [a3 + 0x18]\n 48264: a1 = u64 [a3 + 0x10]\n 48267: a2 = u64 [a3 + 0x8]\n 48270: a3 = u64 [a3]\n 48272: a0 = reverse a0\n 48274: u64 [s1 + 0x168] = a0\n 48278: a0 = reverse a1\n 48280: u64 [s1 + 0x160] = a0\n 48284: a0 = reverse a2\n 48286: u64 [s1 + 0x158] = a0\n 48290: a0 = reverse a3\n 48292: u64 [s1 + 0x150] = a0\n 48296: jump [t0]\n      : @1792 (gas: 8)\n 48298: a0 = sp + 0xffffffffffffffe0\n 48301: a0 = a0 & 0xffffffffffffffe0\n 48304: u64 [s1 + 0x168] = a0\n 48308: sp = a0\n 48310: i32 a2 = a0 + 0\n 48312: a1 = 0x40\n 48315: a0 = u64 [s1 + 0x170]\n 48319: jump [t0]\n      : @1793 (gas: 17)\n 48321: a0 = u64 [a3]\n 48323: a1 = u64 [a3 + 0x8]\n 48326: a2 = u64 [a3 + 0x10]\n 48329: a3 = u64 [a3 + 0x18]\n 48332: a0 = reverse a0\n 48334: a1 = reverse a1\n 48336: a2 = reverse a2\n 48338: a3 = reverse a3\n 48340: a4 = a3 + 0x2\n 48343: a3 = a4 <u a3\n 48346: a5 = a2 + a3\n 48349: a2 = a5 <u a2\n 48352: a2 = a3 if a3 == 0\n 48355: a2 = a2 + a1\n 48358: a1 = a2 <u a1\n 48361: a0 = a0 + a1\n 48364: jump [t0]\n      : @1794 (gas: 27)\n 48366: u64 [s1 + 0x168] = a0\n 48370: a0 = ra - a3\n 48373: a0 = a0 <u a5\n 48376: a1 = ra <u a3\n 48379: a5 = u64 [s1 + 0x138]\n 48383: a4 = ra - a5\n 48386: a4 = a4 - a1\n 48389: a4 = a4 - a0\n 48392: ra = a4 >>a 0x3f\n 48395: a0 = u64 [s1 + 0x130]\n 48399: a0 = ra & a0\n 48402: a1 = u64 [s1 + 0x140]\n 48406: t2 = a1 - a0\n 48409: a1 = a1 <u a0\n 48412: t1 = a2 - a1\n 48415: a1 = 0 if a2 != 0\n 48417: a0 = a3 - a1\n 48420: u64 [s1 + 0x148] = a0\n 48424: a1 = a3 <u a1\n 48427: a1 = a5 - a1\n 48430: a0 = s1 + 0x100\n 48434: a3 = u64 [a0 + 0x98]\n 48438: a5 = u64 [a0 + 0x90]\n 48442: a2 = a3 | a5\n 48445: a2 = a2 <u 0x1\n 48448: a4 = u64 [a0 + 0x80]\n 48452: jump [t0]\n      : @1795 (gas: 8)\n 48454: a0 = u64 [a2 + 0x8]\n 48457: a1 = i32 [a2 + 0x10]\n 48460: a2 = u64 [a2]\n 48462: a3 = reverse a0\n 48464: a0 = a3 << 0x20\n 48467: a1 = reverse a1\n 48469: a1 = a1 >> 0x20\n 48472: jump [t0]\n      : @1796 (gas: 24)\n 48474: a0 = a1 if a2 == 0\n 48477: a2 = u64 [s1 + 0x150]\n 48481: a3 = a2\n 48483: a1 = a2\n 48485: a2 = u64 [s1 + 0x160]\n 48489: a3 = a0 if a2 != 0\n 48492: u64 [s1 + 0x168] = a3\n 48496: a0 = u64 [s1 + 0x148]\n 48500: a3 = u64 [s1 + 0x130]\n 48504: a0 = a0 | a3\n 48507: a3 = u64 [s1 + 0x120]\n 48511: a0 = a3 if a5 == 0\n 48514: a4 = u64 [s1 + 0x158]\n 48518: a3 = a4\n 48520: a3 = a0 if a2 != 0\n 48523: u64 [s1 + 0x160] = a3\n 48527: a0 = u64 [s1 + 0x170]\n 48531: a0 = 0 if a5 == 0\n 48533: u64 [s1 + 0x170] = a0\n 48537: u64 [s1 + 304] = 0x15180\n 48544: a0 = u64 [s1 + 0x198]\n 48548: a2 = a0 + 0xffffffffffffff80\n 48551: a0 = a4\n 48553: jump [t0]\n      : @1797 (gas: 8)\n 48555: u64 [sp + 48] = 0\n 48558: u64 [sp + 40] = 0\n 48561: u64 [sp + 32] = 0\n 48564: a0 = 0x4e487b7100000000\n 48574: a1 = sp + 0x20\n 48577: u64 [sp + 0x38] = a0\n 48580: a0 = 0\n 48582: jump [t0]\n      : @1798 (gas: 5)\n 48584: sp = a0\n 48586: i32 a2 = a0 + 0\n 48588: a1 = 0x40\n 48591: a0 = u64 [s1 + 0x170]\n 48595: jump [t0]\n      : @1799 (gas: 15)\n 48597: a3 = u64 [s1 + 0x160]\n 48601: a0 = u64 [a3 + 0x18]\n 48604: a1 = u64 [a3 + 0x10]\n 48607: a2 = u64 [a3 + 0x8]\n 48610: a3 = u64 [a3]\n 48612: a0 = reverse a0\n 48614: a4 = reverse a1\n 48616: a2 = reverse a2\n 48618: a3 = reverse a3\n 48620: a1 = u64 [s1 + 0x168]\n 48624: u64 [a1 + 0x18] = a3\n 48627: u64 [a1 + 0x10] = a2\n 48630: u64 [a1 + 0x8] = a4\n 48633: u64 [a1] = a0\n 48635: jump [t0]\n      : @1800 (gas: 9)\n 48637: a0 = u64 [a3 + 0x18]\n 48640: a1 = u64 [a3 + 0x10]\n 48643: a2 = u64 [a3 + 0x8]\n 48646: a3 = u64 [a3]\n 48648: a0 = reverse a0\n 48650: a4 = reverse a1\n 48652: a2 = reverse a2\n 48654: a3 = reverse a3\n 48656: jump [t0]\n      : @1801 (gas: 8)\n 48658: a0 = sp + 0xffffffffffffffe0\n 48661: a0 = a0 & 0xffffffffffffffe0\n 48664: u64 [s1 + 0x190] = a0\n 48668: sp = a0\n 48670: i32 a2 = a0 + 0\n 48672: a1 = 0x40\n 48675: a0 = u64 [s1 + 0x110]\n 48679: jump [t0]\n      : @1802 (gas: 8)\n 48681: a3 = a4 <u a3\n 48684: a5 = a2 + a3\n 48687: a2 = a5 <u a2\n 48690: a2 = a3 if a3 == 0\n 48693: a2 = a2 + a1\n 48696: a1 = a2 <u a1\n 48699: a0 = a0 + a1\n 48702: jump [t0]\n      : @1803 (gas: 18)\n 48704: a1 = a2 + 0x1\n 48707: u64 [s1 + 0x198] = a1\n 48711: a0 = a1 <u 0x1\n 48714: a0 = a0 + a3\n 48717: u64 [s1 + 0x190] = a0\n 48721: a0 = a0 | a1\n 48724: a0 = a0 <u 0x1\n 48727: a0 = a0 + t1\n 48730: u64 [s1 + 0x180] = a0\n 48734: a0 = a0 <u t1\n 48737: a0 = a0 + ra\n 48740: u64 [s1 + 0x188] = a0\n 48744: a1 = 0xff - a2\n 48748: u64 [s1 + 0x160] = a1\n 48752: a2 = 0x80 - a1\n 48756: a0 = u64 [s1 + 0x140]\n 48760: a1 = u64 [s1 + 0x138]\n 48764: jump [t0]\n      : @1804 (gas: 19)\n 48766: a3 = u64 [s1 + 0x168]\n 48770: a0 = u64 [a3 + 0x18]\n 48773: a1 = u64 [a3 + 0x10]\n 48776: a2 = u64 [a3 + 0x8]\n 48779: a3 = u64 [a3]\n 48781: a0 = reverse a0\n 48783: u64 [s1 + 0x160] = a0\n 48787: a0 = reverse a1\n 48789: u64 [s1 + 0x158] = a0\n 48793: a0 = reverse a2\n 48795: u64 [s1 + 0x150] = a0\n 48799: a0 = reverse a3\n 48801: u64 [s1 + 0x148] = a0\n 48805: a0 = sp + 0xffffffffffffffe0\n 48808: a0 = a0 & 0xffffffffffffffe0\n 48811: u64 [s1 + 0x168] = a0\n 48815: sp = a0\n 48817: a0 = 0x2000\n 48821: jump [t0]\n      : @1805 (gas: 8)\n 48823: a0 = sp + 0xffffffffffffffe0\n 48826: a0 = a0 & 0xffffffffffffffe0\n 48829: u64 [s1 + 0x168] = a0\n 48833: sp = a0\n 48835: i32 a2 = a0 + 0\n 48837: a1 = 0x40\n 48840: a0 = u64 [s1 + 0x178]\n 48844: jump [t0]\n      : @1806 (gas: 16)\n 48846: a3 = u64 [s1 + 0x190]\n 48850: a0 = u64 [a3 + 0x18]\n 48853: a1 = u64 [a3 + 0x10]\n 48856: a2 = u64 [a3 + 0x8]\n 48859: a3 = u64 [a3]\n 48861: a0 = reverse a0\n 48863: u64 [s1 + 0x190] = a0\n 48867: a0 = reverse a1\n 48869: u64 [s1 + 0x188] = a0\n 48873: a0 = reverse a2\n 48875: u64 [s1 + 0x180] = a0\n 48879: a0 = reverse a3\n 48881: u64 [s1 + 0x178] = a0\n 48885: a0 = 0x2118\n 48889: a2 = s1 + a0\n 48892: jump [t0]\n      : @1807 (gas: 16)\n 48894: t2 = u64 [s1 + 0x140]\n 48898: t1 = u64 [s1 + 0x138]\n 48902: u64 [s1 + 344] = 0\n 48906: u64 [s1 + 336] = 0\n 48910: a4 = s1 + 0x100\n 48914: a2 = u64 [a4 + 0x28]\n 48917: a1 = 0 if a2 == 0\n 48919: a0 = 0 if a2 == 0\n 48921: u64 [a4 + 0x48] = a0\n 48924: a3 = u64 [a4 + 0x30]\n 48927: a2 = a3 + 0xffffffffffffffff\n 48930: u64 [a4 + 0x28] = a2\n 48933: a2 = a3 >u 0\n 48935: a2 = a2 + 0xffffffffffffffff\n 48938: u64 [a4 + 0x20] = a2\n 48941: jump [t0]\n      : @1808 (gas: 13)\n 48943: a1 = a0 <u a1\n 48946: a3 = u64 [s1 + 0x160]\n 48950: a2 = a3 + a1\n 48953: a3 = a2 <u a3\n 48956: a3 = a1 if a1 == 0\n 48959: a1 = u64 [s1 + 0x170]\n 48963: a3 = a3 + a1\n 48966: a1 = a3 <u a1\n 48969: a4 = u64 [s1 + 0x168]\n 48973: a1 = a1 + a4\n 48976: a4 = s1 + 0x3118\n 48980: a5 = a4 + 0x500\n 48984: jump [t0]\n      : @1809 (gas: 8)\n 48986: a0 = a0 | a2\n 48989: a2 = a3 | a1\n 48992: a2 = a2 | a0\n 48995: a2 = a2 >> 0x20\n 48998: a0 = a0 | a1\n 49001: a0 = a0 << 0x20\n 49004: a0 = a0 | a2\n 49007: jump [t0]\n      : @1810 (gas: 15)\n 49009: a0 = u64 [a3 + 0x18]\n 49012: a1 = u64 [a3 + 0x10]\n 49015: a2 = u64 [a3 + 0x8]\n 49018: a3 = u64 [a3]\n 49020: a0 = reverse a0\n 49022: u64 [s1 + 0x188] = a0\n 49026: a0 = reverse a1\n 49028: u64 [s1 + 0x180] = a0\n 49032: a0 = reverse a2\n 49034: u64 [s1 + 0x178] = a0\n 49038: a0 = reverse a3\n 49040: u64 [s1 + 0x170] = a0\n 49044: a0 = sp + 0xffffffffffffffe0\n 49047: a0 = a0 & 0xffffffffffffffe0\n 49050: jump [t0]\n      : @1811 (gas: 14)\n 49052: a3 = u64 [s1 + 0x198]\n 49056: a0 = u64 [a3 + 0x18]\n 49059: a1 = u64 [a3 + 0x10]\n 49062: a2 = u64 [a3 + 0x8]\n 49065: a3 = u64 [a3]\n 49067: a5 = reverse a0\n 49069: u64 [s1 + 0x188] = a5\n 49073: a4 = reverse a1\n 49075: u64 [s1 + 0x190] = a4\n 49079: a2 = reverse a2\n 49081: u64 [s1 + 0x180] = a2\n 49085: a0 = reverse a3\n 49087: u64 [s1 + 0x198] = a0\n 49091: jump [t0]\n      : @1812 (gas: 15)\n 49093: a0 = u64 [a2 + 0x8]\n 49096: a1 = i32 [a2 + 0x10]\n 49099: a2 = u64 [a2]\n 49101: a0 = reverse a0\n 49103: a3 = a0 << 0x20\n 49106: a1 = reverse a1\n 49108: a1 = a1 >> 0x20\n 49111: a3 = a3 | a1\n 49114: a0 = a0 >> 0x20\n 49117: a1 = reverse a2\n 49119: a2 = a1 << 0x20\n 49122: a0 = a0 | a2\n 49125: a1 = a1 >> 0x20\n 49128: a2 = s1 + 0x3118\n 49132: jump [t0]\n      : @1813 (gas: 18)\n 49134: a3 = u64 [s1 + 0xa0]\n 49138: a0 = u64 [a3 + 0x18]\n 49141: a1 = u64 [a3 + 0x10]\n 49144: a2 = u64 [a3 + 0x8]\n 49147: a3 = u64 [a3]\n 49149: a0 = reverse a0\n 49151: u64 [s1 + 0x98] = a0\n 49155: a0 = reverse a1\n 49157: u64 [s1 + 0x88] = a0\n 49161: a0 = reverse a2\n 49163: u64 [s1 + 0x80] = a0\n 49167: a0 = reverse a3\n 49169: u64 [s1 + 0x78] = a0\n 49172: a0 = sp + 0xffffffffffffffe0\n 49175: a0 = a0 & 0xffffffffffffffe0\n 49178: u64 [s1 + 0xa0] = a0\n 49182: sp = a0\n 49184: jump [t0]\n      : @1814 (gas: 6)\n 49186: a1 = a0 <u a1\n 49189: a3 = u64 [s1 + 0x190]\n 49193: a2 = a3 + a1\n 49196: a3 = a2 <u a3\n 49199: a3 = a1 if a1 == 0\n 49202: jump [t0]\n      : @1815 (gas: 13)\n 49204: a0 = u64 [a3 + 0x18]\n 49207: a1 = u64 [a3 + 0x10]\n 49210: a2 = u64 [a3 + 0x8]\n 49213: a3 = u64 [a3]\n 49215: a0 = reverse a0\n 49217: u64 [s1 + 0x178] = a0\n 49221: a0 = reverse a1\n 49223: u64 [s1 + 0x170] = a0\n 49227: a0 = reverse a2\n 49229: u64 [s1 + 0x168] = a0\n 49233: a0 = reverse a3\n 49235: u64 [s1 + 0x160] = a0\n 49239: jump [t0]\n      : @1816 (gas: 15)\n 49241: a2 = u64 [s1 + 0x198]\n 49245: a0 = u64 [a2 + 0x8]\n 49248: a1 = i32 [a2 + 0x10]\n 49251: a2 = u64 [a2]\n 49253: a0 = reverse a0\n 49255: a3 = a0 << 0x20\n 49258: a1 = reverse a1\n 49260: a1 = a1 >> 0x20\n 49263: a3 = a3 | a1\n 49266: a0 = a0 >> 0x20\n 49269: a1 = reverse a2\n 49271: a2 = a1 << 0x20\n 49274: a0 = a0 | a2\n 49277: a1 = a1 >> 0x20\n 49280: jump [t0]\n      : @1817 (gas: 12)\n 49282: a4 = 0\n 49284: a5 = 0\n 49286: a2 = u64 [s1 + 0x128]\n 49290: a1 = 0 if a2 == 0\n 49292: a0 = 0 if a2 == 0\n 49294: a3 = u64 [s1 + 0x138]\n 49298: a2 = a3 + 0xffffffffffffffff\n 49301: u64 [s1 + 0x130] = a2\n 49305: a2 = a3 >u 0\n 49307: a2 = a2 + 0xffffffffffffffff\n 49310: u64 [s1 + 0x128] = a2\n 49314: jump [t0]\n      : @1818 (gas: 5)\n 49316: sp = a0\n 49318: i32 a2 = a0 + 0\n 49320: a1 = 0x40\n 49323: a0 = u64 [s1 + 0x190]\n 49327: jump [t0]\n      : @1819 (gas: 5)\n 49329: a0 = sp + 0xffffffffffffffe0\n 49332: a2 = a0 & 0xffffffffffffffe0\n 49335: u64 [s1 + 0x198] = a2\n 49339: sp = a2\n 49341: jump [t0]\n      : @1820 (gas: 12)\n 49343: a2 = t2 >> 0x3f\n 49346: a3 = t1 << 0x1\n 49349: a2 = a2 | a3\n 49352: a3 = t2 << 0x1\n 49355: t2 = u64 [s1 + 0x168]\n 49359: a4 = t2 >> 0x3f\n 49362: a3 = a3 | a4\n 49365: u64 [s1 + 0x140] = a3\n 49369: ra = u64 [s1 + 0x120]\n 49373: a0 = t1\n 49375: t1 = ra ^ a2\n 49378: jump [t0]\n      : @1821 (gas: 12)\n 49380: a1 = a1 << 0x1\n 49383: a4 = u64 [s1 + 0x148]\n 49387: a3 = a4 >> 0x3f\n 49390: a1 = a1 | a3\n 49393: u64 [s1 + 0x138] = a1\n 49397: a3 = a0 >> 0x3f\n 49400: a0 = a4 << 0x1\n 49403: a3 = a3 | a0\n 49406: a0 = t2 << 0x1\n 49409: a4 = u64 [s1 + 0x160]\n 49413: a1 = a4 >> 0x3f\n 49416: jump [t0]\n      : @1822 (gas: 11)\n 49418: a1 = u64 [s1 + 0x198]\n 49422: a2 = u64 [s1 + 0x150]\n 49426: u64 [a1 + 0x8] = a2\n 49429: a2 = u64 [s1 + 0x158]\n 49433: u64 [a1] = a2\n 49435: a2 = u64 [s1 + 0x170]\n 49439: u32 [a1 + 0x10] = a2\n 49442: a3 = a1\n 49444: a2 = s1 + 0x3118\n 49448: a1 = u64 [s1 + 0x180]\n 49452: jump [t0]\n      : @1823 (gas: 14)\n 49454: a4 = a1 <u t1\n 49457: a5 = a0 + a4\n 49460: a0 = a5 <u a0\n 49463: a0 = a4 if a4 == 0\n 49466: a0 = a0 + a2\n 49469: a2 = a0 <u a2\n 49472: a2 = a2 + a3\n 49475: u64 [sp + 0x40] = a1\n 49478: u64 [sp + 0x48] = a5\n 49481: u64 [sp + 0x50] = a0\n 49484: a0 = 0x40\n 49487: a1 = sp + a0\n 49490: u64 [sp + 0x58] = a2\n 49493: jump [t0]\n      : @1824 (gas: 11)\n 49495: a2 = u64 [s1 + 0x128]\n 49499: a1 = a1 | a2\n 49502: a2 = u64 [s1 + 0x198]\n 49506: a3 = a2 <u 0x80\n 49510: u64 [s1 + 0x128] = a3\n 49514: a4 = u64 [s1 + 0x120]\n 49518: a1 = a4 if a3 == 0\n 49521: a4 = u64 [s1 + 0x138]\n 49525: a4 = a1 if a2 != 0\n 49528: u64 [s1 + 0x138] = a4\n 49532: jump [t0]\n      : @1825 (gas: 14)\n 49534: a0 = u64 [a3 + 0x18]\n 49537: a1 = u64 [a3 + 0x10]\n 49540: a2 = u64 [a3 + 0x8]\n 49543: a3 = u64 [a3]\n 49545: a0 = reverse a0\n 49547: a1 = reverse a1\n 49549: a2 = reverse a2\n 49551: a3 = reverse a3\n 49553: a4 = u64 [s1 + 0x198]\n 49557: u64 [a4 + 0x18] = a3\n 49560: u64 [a4 + 0x10] = a2\n 49563: u64 [a4 + 0x8] = a1\n 49566: u64 [a4] = a0\n 49568: jump [t0]\n      : @1826 (gas: 11)\n 49570: a0 = u64 [a3 + 0x18]\n 49573: a1 = u64 [a3 + 0x10]\n 49576: a2 = u64 [a3 + 0x8]\n 49579: a3 = u64 [a3]\n 49581: a0 = reverse a0\n 49583: a1 = reverse a1\n 49585: a2 = reverse a2\n 49587: a3 = reverse a3\n 49589: a4 = s1 + 0x3118\n 49593: a5 = a4 + 0x600\n 49597: jump [t0]\n      : @1827 (gas: 15)\n 49599: a3 = u64 [s1 + 0x98]\n 49603: a0 = u64 [a3 + 0x18]\n 49606: a1 = u64 [a3 + 0x10]\n 49609: a2 = u64 [a3 + 0x8]\n 49612: a3 = u64 [a3]\n 49614: a0 = reverse a0\n 49616: a4 = reverse a1\n 49618: a2 = reverse a2\n 49620: a3 = reverse a3\n 49622: a1 = u64 [s1 + 0xa0]\n 49626: u64 [a1 + 0x18] = a3\n 49629: u64 [a1 + 0x10] = a2\n 49632: u64 [a1 + 0x8] = a4\n 49635: u64 [a1] = a0\n 49637: jump [t0]\n      : @1828 (gas: 4)\n 49639: a2 = a3 + a1\n 49642: a3 = a2 <u a3\n 49645: a3 = a1 if a1 == 0\n 49648: jump [t0]\n      : @1829 (gas: 8)\n 49650: a2 = s1 + 0x100\n 49654: a1 = u64 [a2 + 0x68]\n 49657: a0 = a1 <u a0\n 49660: a1 = u64 [a2 + 0x18]\n 49663: a0 = 0 if a1 != 0\n 49665: a1 = u64 [a2]\n 49667: a0 = 0 if a1 != 0\n 49669: jump [t0]\n      : @1830 (gas: 9)\n 49671: u64 [s1 + 0x160] = a3\n 49675: a1 = 0 if a4 == 0\n 49677: u64 [s1 + 0x168] = a1\n 49681: u64 [s1 + 312] = 0x15180\n 49688: a0 = u64 [s1 + 0x190]\n 49692: a2 = a0 + 0xffffffffffffff80\n 49695: a0 = a5\n 49697: a1 = t1\n 49699: jump [t0]\n      : @1831 (gas: 13)\n 49701: sp = sp + 0xffffffffffffff90\n 49704: u64 [sp + 0x68] = ra\n 49707: u64 [sp + 0x60] = s0\n 49710: s0 = sp + 0x70\n 49713: sp = sp & 0xfffffffffffffff0\n 49716: a3 = u64 [a0 + 0x18]\n 49719: a2 = u64 [a0 + 0x10]\n 49722: t1 = u64 [a0]\n 49724: a0 = u64 [a0 + 0x8]\n 49727: a4 = a3 >u 0\n 49729: a5 = a2 >u 0\n 49731: a5 = a4 if a3 != 0\n 49734: jump [t0]\n      : @1832 (gas: 10)\n 49736: u64 [s1] = a3\n 49738: u64 [s1 + 0x8] = a2\n 49741: u64 [s1 + 0x10] = a1\n 49744: u64 [s1 + 0x18] = a0\n 49747: sp = s0 + 0xffffffffffffffc0\n 49750: ra = u64 [sp + 0x38]\n 49753: s0 = u64 [sp + 0x30]\n 49756: s1 = u64 [sp + 0x28]\n 49759: sp = sp + 0x40\n 49762: jump [t0]\n      : @1833 (gas: 10)\n 49764: a0 = u64 [a3 + 0x18]\n 49767: a1 = u64 [a3 + 0x10]\n 49770: a2 = u64 [a3 + 0x8]\n 49773: a3 = u64 [a3]\n 49775: a0 = reverse a0\n 49777: a1 = reverse a1\n 49779: a2 = reverse a2\n 49781: a3 = reverse a3\n 49783: a4 = s1 + 0x3118\n 49787: jump [t0]\n      : @1834 (gas: 7)\n 49789: a1 = a1 | a2\n 49792: a1 = a1 | a0\n 49795: a1 = a1 >> 0x20\n 49798: a0 = a0 | a2\n 49801: a0 = a0 << 0x20\n 49804: a0 = a0 | a1\n 49807: jump [t0]\n      : @1835 (gas: 7)\n 49809: u64 [sp + 24] = 0\n 49812: u64 [sp + 16] = 0\n 49815: u64 [sp + 0] = 0x41\n 49818: a0 = 0x4\n 49821: a1 = sp\n 49823: u64 [sp + 8] = 0\n 49826: jump [t0]\n      : @1836 (gas: 8)\n 49828: a1 = u64 [a3 + 0x70]\n 49831: u64 [a3] = a0\n 49833: a0 = a1 <u a0\n 49836: a2 = u64 [a3 + 0x78]\n 49839: a0 = 0 if a2 != 0\n 49841: a2 = u64 [a3 + 0x68]\n 49844: a0 = 0 if a2 != 0\n 49846: jump [t0]\n      : @1837 (gas: 9)\n 49848: a0 = a0 | a1\n 49851: a1 = u64 [s1 + 0x148]\n 49855: a0 = a1 if a3 == 0\n 49858: a1 = u64 [s1 + 0x140]\n 49862: a1 = a0 if a2 != 0\n 49865: u64 [s1 + 0x140] = a1\n 49869: a0 = u64 [s1 + 0x158]\n 49873: a1 = u64 [s1 + 0x150]\n 49877: jump [t0]\n      : @1838 (gas: 16)\n 49879: a4 = u64 [a3]\n 49881: u64 [sp + 0x18] = a4\n 49884: a4 = u64 [a3 + 0x8]\n 49887: u64 [sp + 0x20] = a4\n 49890: a4 = u64 [a3 + 0x10]\n 49893: u64 [sp + 0x28] = a4\n 49896: a3 = u64 [a3 + 0x18]\n 49899: u64 [sp + 0x30] = a3\n 49902: s1 = u64 [a2]\n 49904: a3 = u64 [a2 + 0x8]\n 49907: u64 [sp] = a3\n 49909: a3 = u64 [a2 + 0x10]\n 49912: u64 [sp + 0x8] = a3\n 49915: a2 = u64 [a2 + 0x18]\n 49918: u64 [sp + 0x10] = a2\n 49921: jump [t0]\n      : @1839 (gas: 7)\n 49923: u64 [s1 + 0x110] = a0\n 49927: u64 [s1 + 0x128] = a1\n 49931: a1 = u64 [s1 + 0x190]\n 49935: a2 = 0x80 - a1\n 49939: a0 = u64 [s1 + 0x150]\n 49943: a1 = u64 [s1 + 0x140]\n 49947: jump [t0]\n      : @1840 (gas: 7)\n 49949: a1 = u64 [a2 + 0x98]\n 49953: a0 = a1 <u a0\n 49956: a1 = u64 [a2 + 0x90]\n 49960: a0 = 0 if a1 != 0\n 49962: a1 = u64 [a2 + 0x68]\n 49965: a0 = 0 if a1 != 0\n 49967: jump [t0]\n      : @1841 (gas: 5)\n 49969: a2 = a2 + a1\n 49972: a3 = a2 ^ a4\n 49975: a4 = a2 <u a4\n 49978: a4 = a1 if a3 == 0\n 49981: jump [t0]\n      : @1842 (gas: 4)\n 49983: a0 = u64 [s1 + 0x198]\n 49987: a0 = i32 [a0]\n 49989: a1 = 0x23\n 49992: jump [t0]\n      : @1843 (gas: 8)\n 49994: a0 = u64 [a4 + 0x38]\n 49997: a1 = u64 [a4 + 0x40]\n 50000: a2 = u64 [a4 + 0x30]\n 50003: a3 = u64 [a4 + 0x28]\n 50006: a1 = a1 | a2\n 50009: a0 = a0 | a3\n 50012: a0 = a0 | a1\n 50015: jump [t0]\n      : @1844 (gas: 12)\n 50017: a0 = u64 [sp + 0x18]\n 50020: a1 = u64 [sp + 0x10]\n 50023: a2 = u64 [sp + 0x8]\n 50026: a3 = u64 [sp]\n 50028: a4 = a2 | a0\n 50031: a5 = a3 | a1\n 50034: a5 = a5 | a4\n 50037: a5 = a5 >> 0x20\n 50040: a4 = a4 | a1\n 50043: a4 = a4 << 0x20\n 50046: a4 = a4 | a5\n 50049: jump [t0]\n      : @1845 (gas: 8)\n 50051: a2 = u64 [s1 + 0x128]\n 50055: a1 = a1 | a2\n 50058: a3 = u64 [s1 + 0x190]\n 50062: a4 = a3 <u 0x80\n 50066: u64 [s1 + 0x128] = a4\n 50070: a2 = u64 [s1 + 0x118]\n 50074: a1 = a2 if a4 == 0\n 50077: jump [t0]\n      : @1846 (gas: 5)\n 50079: sp = a0\n 50081: i32 a2 = a0 + 0\n 50083: a1 = 0x40\n 50086: a0 = u64 [s1 + 0xb8]\n 50090: jump [t0]\n      : @1847 (gas: 9)\n 50092: a0 = u64 [a3 + 0x18]\n 50095: a1 = u64 [a3 + 0x10]\n 50098: a2 = u64 [a3 + 0x8]\n 50101: a3 = u64 [a3]\n 50103: a0 = reverse a0\n 50105: a1 = reverse a1\n 50107: a2 = reverse a2\n 50109: a3 = reverse a3\n 50111: jump [t0]\n      : @1848 (gas: 8)\n 50113: a0 = sp + 0xffffffffffffffe0\n 50116: a0 = a0 & 0xffffffffffffffe0\n 50119: u64 [s1 + 0x160] = a0\n 50123: sp = a0\n 50125: i32 a2 = a0 + 0\n 50127: a1 = 0x40\n 50130: a0 = u64 [s1 + 0x178]\n 50134: jump [t0]\n      : @1849 (gas: 9)\n 50136: a3 = s1 + 0x100\n 50140: a2 = u64 [a3 + 0x98]\n 50144: a0 = u64 [a3]\n 50146: a0 = a2 <u a0\n 50149: a1 = u64 [a3 + 0x90]\n 50153: a0 = 0 if a1 != 0\n 50155: a1 = u64 [a3 + 0x60]\n 50158: a0 = 0 if a1 != 0\n 50160: jump [t0]\n      : @1850 (gas: 8)\n 50162: a0 = u64 [s1 + 0x198]\n 50166: a2 = u64 [s1 + 0x128]\n 50170: a0 = a0 | a2\n 50173: a2 = u64 [s1 + 0x110]\n 50177: a0 = a2 if a4 == 0\n 50180: t1 = u64 [s1 + 0x140]\n 50184: a3 = t1\n 50186: jump [t0]\n      : @1851 (gas: 10)\n 50188: a3 = s1 + a0\n 50191: a4 = a3 + 0x300\n 50195: a0 = u64 [a4 + 0xf8]\n 50199: a1 = u64 [a3 + 0x400]\n 50203: a2 = u64 [a4 + 0xf0]\n 50207: a3 = u64 [a4 + 0xe8]\n 50211: a1 = a1 | a2\n 50214: a0 = a0 | a3\n 50217: a0 = a0 | a1\n 50220: jump [t0]\n      : @1852 (gas: 7)\n 50222: a0 = 0xffffffa0\n 50232: a2 = s1 + 0x100\n 50236: a1 = u64 [a2 + 0x98]\n 50240: a0 = a1 <u a0\n 50243: a1 = u64 [a2 + 0x90]\n 50247: a0 = 0 if a1 != 0\n 50249: jump [t0]\n      : @1853 (gas: 7)\n 50251: u64 [s1 + 0x130] = a0\n 50255: u64 [s1 + 0x128] = a1\n 50259: a0 = u64 [s1 + 0x160]\n 50263: a2 = a0 + 0xffffffffffffff80\n 50266: a0 = u64 [s1 + 0x140]\n 50270: a1 = u64 [s1 + 0x138]\n 50274: jump [t0]\n      : @1854 (gas: 6)\n 50276: a1 = u64 [s1 + 0x180]\n 50280: a3 = a3 + a1\n 50283: a1 = a3 <u a1\n 50286: a4 = u64 [s1 + 0x198]\n 50290: a1 = a1 + a4\n 50293: jump [t0]\n      : @1855 (gas: 12)\n 50295: a0 = u64 [a5 + 0x20]\n 50298: a1 = u64 [a5 + 0x18]\n 50301: a2 = u64 [a5 + 0x10]\n 50304: a4 = u64 [a5 + 0x8]\n 50307: a0 = a0 | a2\n 50310: a2 = a4 | a1\n 50313: a2 = a2 | a0\n 50316: a2 = a2 >> 0x20\n 50319: a0 = a0 | a1\n 50322: a0 = a0 << 0x20\n 50325: a0 = a0 | a2\n 50328: jump [t0]\n      : @1856 (gas: 9)\n 50330: u64 [a2 + 0xe8] = a0\n 50334: a0 = u64 [s1 + 0x150]\n 50338: u64 [a2 + 0xe0] = a0\n 50342: a0 = u64 [s1 + 0x158]\n 50346: u64 [a2 + 0xd8] = a0\n 50350: a3 = a1\n 50352: a0 = 0x20\n 50355: a1 = s1 + 0x7ff\n 50359: jump [t0]\n      : @1857 (gas: 6)\n 50361: u64 [s1 + 0x128] = a1\n 50365: a1 = u64 [s1 + 0x198]\n 50369: a2 = 0x80 - a1\n 50373: a0 = u64 [s1 + 0x158]\n 50377: a1 = u64 [s1 + 0x150]\n 50381: jump [t0]\n      : @1858 (gas: 8)\n 50383: a0 = sp + 0xffffffffffffffe0\n 50386: a0 = a0 & 0xffffffffffffffe0\n 50389: u64 [s1 + 0x190] = a0\n 50393: sp = a0\n 50395: i32 a2 = a0 + 0\n 50397: a1 = 0x40\n 50400: a0 = u64 [s1 + 0xa0]\n 50404: jump [t0]\n      : @1859 (gas: 9)\n 50406: a0 = u64 [a2 + 0x8]\n 50409: a1 = i32 [a2 + 0x10]\n 50412: a2 = u64 [a2]\n 50414: a0 = reverse a0\n 50416: a3 = a0 << 0x20\n 50419: a1 = reverse a1\n 50421: a1 = a1 >> 0x20\n 50424: a1 = a1 | a3\n 50427: jump [t0]\n      : @1860 (gas: 8)\n 50429: u64 [sp + 64] = 0\n 50432: u64 [sp + 56] = 0\n 50435: u64 [sp + 48] = 0\n 50438: a0 = 0x4e487b7100000000\n 50448: a1 = sp + 0x30\n 50451: u64 [sp + 0x48] = a0\n 50454: a0 = 0\n 50456: jump [t0]\n      : @1861 (gas: 9)\n 50458: a5 = s1 + 0x100\n 50462: u64 [a5 + 0x80] = a1\n 50466: u64 [a5 + 0x90] = a3\n 50470: a0 = a3 | a1\n 50473: u64 [a5 + 0x78] = a2\n 50476: u64 [a5 + 0x88] = a4\n 50480: a1 = a4 | a2\n 50483: a0 = a0 | a1\n 50486: jump [t0]\n      : @1862 (gas: 8)\n 50488: a1 = u64 [s1 + 0x198]\n 50492: a0 = i32 [a1 + 0x10]\n 50495: u64 [s1 + 0x170] = a0\n 50499: a0 = u64 [a1]\n 50501: u64 [s1 + 0x158] = a0\n 50505: a0 = u64 [a1 + 0x8]\n 50508: u64 [s1 + 0x150] = a0\n 50512: jump [t0]\n      : @1863 (gas: 10)\n 50514: sp = sp + 0xffffffffffffffc0\n 50517: u64 [sp + 0x38] = ra\n 50520: u64 [sp + 0x30] = s0\n 50523: u64 [sp + 0x28] = s1\n 50526: s0 = sp + 0x40\n 50529: sp = sp & 0xffffffffffffffe0\n 50532: s1 = a0\n 50534: i32 a0 = sp + 0\n 50536: a1 = 0x4\n 50539: jump [t0]\n      : @1864 (gas: 6)\n 50541: sp = s0 + 0xffffffffffffffa0\n 50544: ra = u64 [sp + 0x58]\n 50547: s0 = u64 [sp + 0x50]\n 50550: s1 = u64 [sp + 0x48]\n 50553: sp = sp + 0x60\n 50556: jump [t0]\n      : @1865 (gas: 6)\n 50558: u64 [s1 + 0x148] = a0\n 50562: u64 [s1 + 0x120] = a1\n 50566: a0 = u64 [s1 + 0x140]\n 50570: a1 = u64 [s1 + 0x138]\n 50574: a2 = u64 [s1 + 0x198]\n 50578: jump [t0]\n      : @1866 (gas: 6)\n 50580: u64 [s1 + 0x148] = a0\n 50584: u64 [s1 + 0x168] = a1\n 50588: a0 = u64 [s1 + 0x158]\n 50592: a1 = u64 [s1 + 0x150]\n 50596: a2 = u64 [s1 + 0x160]\n 50600: jump [t0]\n      : @1867 (gas: 6)\n 50602: u64 [s1 + 0x160] = a0\n 50606: u64 [s1 + 0x198] = a1\n 50610: a0 = u64 [s1 + 0x150]\n 50614: a1 = u64 [s1 + 0x140]\n 50618: a2 = u64 [s1 + 0x168]\n 50622: jump [t0]\n      : @1868 (gas: 4)\n 50624: a1 = u64 [s1 + 0x178]\n 50628: a0 = i32 [a1]\n 50630: a2 = 0x3f\n 50633: jump [t0]\n      : @1869 (gas: 8)\n 50635: a0 = u64 [a4 + 0xb8]\n 50639: a1 = u64 [a4 + 0xc0]\n 50643: a2 = u64 [a4 + 0xb0]\n 50647: a3 = u64 [a4 + 0xa8]\n 50651: a1 = a1 | a2\n 50654: a0 = a0 | a3\n 50657: a0 = a0 | a1\n 50660: jump [t0]\n      : @1870 (gas: 6)\n 50662: a0 = u64 [a3 + 0x18]\n 50665: a1 = u64 [a3 + 0x10]\n 50668: a2 = u64 [a3 + 0x8]\n 50671: a3 = u64 [a3]\n 50673: a0 = reverse a0\n 50675: jump [t0]\n      : @1871 (gas: 8)\n 50677: a0 = u64 [a3 + 0x18]\n 50680: a1 = u64 [a3 + 0x10]\n 50683: a2 = u64 [a3 + 0x8]\n 50686: a3 = u64 [a3]\n 50688: a5 = reverse a0\n 50690: a4 = reverse a1\n 50692: a0 = reverse a2\n 50694: jump [t0]\n      : @1872 (gas: 4)\n 50696: i32 a0 = a0 + 0xfffffffffffff918\n 50700: a3 = s1 + a0\n 50703: a4 = a3 + 0x100\n 50707: jump [t0]\n      : @1873 (gas: 6)\n 50709: u64 [s1 + 0x118] = a0\n 50713: u64 [s1 + 0x110] = a1\n 50717: a2 = u64 [s1 + 0x168]\n 50721: a0 = a2 <u 0x80\n 50725: u64 [s1 + 0x138] = a0\n 50729: jump [t0]\n      : @1874 (gas: 6)\n 50731: a3 = u64 [s1 + 0x190]\n 50735: ra = u64 [s1 + 0x180]\n 50739: a2 = a3 | ra\n 50742: a2 = a2 <u 0x1\n 50745: a4 = u64 [s1 + 0x170]\n 50749: jump [t0]\n      : @1875 (gas: 9)\n 50751: sp = sp + 0xffffffffffffffc0\n 50754: u64 [sp + 0x38] = ra\n 50757: u64 [sp + 0x30] = s0\n 50760: u64 [sp + 0x28] = s1\n 50763: s0 = sp + 0x40\n 50766: sp = sp & 0xffffffffffffffe0\n 50769: s1 = a0\n 50771: i32 a0 = sp + 0\n 50773: jump [t0]\n      : @1876 (gas: 10)\n 50775: a4 = s1 + 0x100\n 50779: u64 [a4 + 0x70] = a1\n 50782: a1 = u64 [a4 + 0x90]\n 50786: a2 = u64 [a4 + 0x88]\n 50790: a2 = a2 | a1\n 50793: a1 = u64 [a4 + 0x98]\n 50797: a3 = u64 [a4 + 0x80]\n 50801: a1 = a1 | a3\n 50804: a1 = a1 | a2\n 50807: jump [t0]\n      : @1877 (gas: 2)\n 50809: a3 = a2 & 0x40\n 50812: jump @1881 if a3 != 0\n      : @1878 (gas: 1)\n 50815: jump @1880 if a2 == 0\n      : @1879 (gas: 6)\n 50818: i32 a3 = 0x40 - a2\n 50821: a3 = a1 << a3\n 50824: a1 = a1 >> a2\n 50827: a0 = a0 >> a2\n 50830: a0 = a0 | a3\n 50833: ret\n      : @1880 (gas: 1)\n 50835: ret\n      : @1881 (gas: 4)\n 50837: a0 = a2 + 0xffffffffffffffc0\n 50840: a0 = a1 >> a0\n 50843: a1 = 0\n 50845: ret\n      : @1882 (gas: 2)\n 50847: a3 = a2 & 0x40\n 50850: jump @1886 if a3 != 0\n      : @1883 (gas: 1)\n 50853: jump @1885 if a2 == 0\n      : @1884 (gas: 6)\n 50856: i32 a3 = 0x40 - a2\n 50859: a3 = a0 >> a3\n 50862: a0 = a0 << a2\n 50865: a1 = a1 << a2\n 50868: a1 = a1 | a3\n 50871: ret\n      : @1885 (gas: 1)\n 50873: ret\n      : @1886 (gas: 4)\n 50875: a1 = a2 + 0xffffffffffffffc0\n 50878: a1 = a0 << a1\n 50881: a0 = 0\n 50883: ret\n","bytecode":{"object":"50564d0000e7e9000000000000010700c1d001c0008003817cf40443b2a766a42db9815a1e2efa877e5c0519ec4fe51c83c442ba392fca77e2116ca4777b81d4ea98e10c16c565173f400507b7679bbdc6b249bd00a16076687a96c0a237ac310730ce86cab6918a9cee1f20395b3b80e1e34a4eb67d08a74e0dc354af37bd04b03f2522518a6d9314cf35a01b6f25119782e62a75888f78d1b417406592b5dbd6886d772784123ca0859bbddc544b79277c562e79691cb8290000e8890423c78affffe7890423c78a00001876fbdc3875ffff1776fbdc3875975752f4e33b24c3dceff4c6a46dc4173eb68630b623f1b6b5ef1d0584397d33527c373f8a8f13d8dec2e4708e54ca59a13610a1f529f1946a422bba3c51695be6d8186647f5847091063f7d0def110bff283e79b8ad5546d505d5764c8d017f00001876fbdc38750000e8890423c78affff1776fbdc3875f2a8b439f25bd8ebdf119a7090238fa225717e85c68e190f0982ba0d5cabfde394247a18b5e26bbe1d817609543b3c0451c960f58acf6b97ba06c2c9ba61c0412000000004811b11000000000400000012000000200000002e0000003400000041000000530000005e0000006d000000700000007d0000008d0000009d000000a8000000ba000000c500000063616c6c63616c6c5f646174615f636f707963616c6c5f646174615f6c6f616463616c6c5f646174615f73697a6563616c6c65726465706f7369745f6576656e746765745f696d6d757461626c655f646174616765745f73746f72616765686173685f6b656363616b5f3235366e6f777265665f74696d655f6c65667472657475726e5f646174615f636f707972657475726e5f646174615f73697a657365616c5f72657475726e7365745f696d6d757461626c655f646174617365745f73746f7261676576616c75655f7472616e73666572726564051302c0b2bb0463616c6cc0bbbb066465706c6f7906c01ae783bb02c0c5c6da00220266031c04b104b9048b05930592069706180723073e078f079a0704082d0841086d088208c108e6089209bb09d009d809100a330a6e0a8e0a980ab60a330b560b5c0b6f0b7b0b810bb30be60bec0b030c0f0c150c1e0c260c780c9b0ca10cb40cc40cce0c010d350d3b0d4e0d5e0d680d8d0d950dce0dd60d2c0e620e710e7e0e940ebc0eda0e060f200f270f400faa0fd80fdf0f0210221030105c107110dc104b119a1107122d1294129f12bd12df1232133d138b1317144e145c14b714ed14fa141915531569157415f21501165516701667178217a017c317581873189218df18651a741a9b1aa61ac61aea1a341b3f1b8f1be61b1d1c2a1c751c941cd61cec1cf71c571d8c1db71df51efc1e031f211f281f371f841faf1fc91ffe1f4f206d209d200c215d2164219d21d72103222f224d2258228a22d422e62203234b239d231e242c244e24cb24d924fb246925792505261626a626b4260b27192720275d276b27cf27fb27172852287628bd28c828ec2820293f2951295c299229c529e429f629012a1a2a332a962a012b512b5e2b982ba32bd82b0d2c1c2c762c852c922caa2cc92cec2cf32c0f2d2d2d842d8f2da82d2d2e622e742e7b2e892e902e0b2f222f392f6f2f852f902f0930183038308e30c930fe3063317f31a931cf31cd32153333335b33ab33bc33e833f9332434353461348134ef34093548355335603578359335b635bd35d935f7354e3659367236f336253737373e374c375337d237e93704383a3850385b38b438ed381739a83ab33acf3af33a463b513b6a3b8e3bbd3b0f3c0f3d163d1d3d3b3d423d513dde3d803e893ea93eeb3ef13e283f313f643f6b3f823f903f973fb03f1240334042406c40754092409b40fa409241d74145427e42bf4205437443e4430e442d4463447744a344aa44c544cb44d244d8440d451345fd4569466f468f469846b846e5464247484765476e478e47be47cf47d947f747a648ac48c848ec4806496b499e49b849c949d349204a714a9b4ad04ad64aee4a0e4b284b394b434b624b9b4bb54bc24bc84bf44b2f4c494c564c5c4c664c844cef4c654d964d034e114e524e904ecc4e3a4f9c4fb14fbb4f475062508e509450ae50b450ba50c050f450fa50e35137527852db5264539753cc5331549454dd546955d85522566d5682568c56a956b256d256005711571b57465772577b57ab571058305884589258c05816596e59b859075a3d5ac15aa55c4b5d6f5d755d885d995da35df25d215e275e3e5e455e525e765e1d5f3f5f8c5fa55fd85f476091609e60d7600d611a61546161619761ef6150625962a262d862e1623d636563e863f663656459668e669766e1663f677267d767e767f86757686568c268d2680b6911693d694d695f696569db69ef69bf6ad66ae16beb6b1d6c496dc06d026e1a6e406ea96e2b6fa66fc16fe76f73708d70b870d57010711d7152719b71b071ba71da71e37103722d72347254726d7276729e72d072357342739173b07325747b748c74ab74037518752275af75bc75ca75f47508763476cb76147784775878eb786879e1794a7a707a967abc7a3e7b487bbd7bc77bcd7b107c1d7c4b7c5b7c647c847c2c7d367d3c7d747dab7de27d557e987ed07ef07e0b7f377f417f5e7f677f877faf7fd07fda7f0e804580638074807e8093809d80c280c781cd81d381d981df81e58107820d82338239823f8245824f8255825b8265826b82718277828a82d08296839c83b683e283ec830a84138434847b848584c084f48416852785318555855f858585dd85e78500860986268648867a869786c686e8863b8754878587e887f287108819883a88588865886b888c88c088de88ef88f9881d8932897c89a389c289098a138a328a558a878aab8a288b3d8b478b688b718b928bc08bc78be78b018c318c778c8c8c968c0a8d1c8d598d638d848d8d8dae8dcc8dd98ddf8d008e358e538e648e6e8e7d8e9e8ed28e0a8f148f2e8f508f8b8fc68f0190ca90d090d690dc90e290e8900a91109136913c9142914891529158915e9168916e9174917a918d91d391349245924e926f92b792de923c9351935b93eb937d94aa94da94fb9405952495d695039621962e963496619677968a96ac96bd96c796f7963c977297bd97ea9708981998239850988d98ab98b898be98eb98019914993699439949995899fc993a9aa59a039b559b7d9bdd9be39b059c209c269c369c3c9c459c609c669c739c799c829c979c009d5e9dd29de19def9d079e5b9e809e3c9f449f4b9f639f8d9f939fb19fb89fcc9fd39fd99fe09f0aa010a02fa036a04aa051a057a05ea082a04aa165a16ca186a1aaa100a22aa26ca2cca228a3a3a301a4faa417a57aa5a5a6b4a6cea6f2a64fa756a75ca763a787a7cfa7f9a74ca88aa8c9a85aa961a979a99da942aa49aa63aa87aafcaa03ab09ab10ab34ab9cab82ac91acabaccfacfdad14ae2dae4baecaaee0aefaae3dafb7b0d6b01bb121b14bb17cb19ab1a7b1adb1b8b1f8b117b235b246b250b286b2b8b2d6b2e3b2e9b20ab33bb359b366b36cb377b3cdb3ecb30ab461b4b6b42fb577b5dab5e8b502b62bb6d1b6f0b663b76ab73cb852b868b891b814b956b909ba1aba55ba66baa1bab2baedbafeba1dbb73bbbbbbc5bbaa876e978a2098aa20977b2098bb20c89b0bc9ba0a979b019abbaeab20ae873751094ec87909647a017c8b95880195ac0178ab64caab9cf42836510934c87909647a017c8b95880195ac0178ab64caab9cf4281c51091a839aff01c8a80b7cbb9599ffc8a70c78cb83aaff5209f032009511e87b10107b15087b163306780102390578010251051c3307b00103837783680a060139077801022003780102ac5710821010821508821695111832000039087801025108b0073307b0010383770a0e28a3079511f07b10087b156489647533082064975010026e057c78017c797c7a027c7b03978808d4980897aa1097bb18d4ba0ad4a8087c79057c7a047c7b067c7c07979908d4a90997bb1097cc18d4cb0bd4b909979920d489027c79097c7a087c7b0a7c7c0b979908d4a90997bb1097cc18d4cb0bd4b9097c7a0d7c7b0c7c7c0e7c780f97aa08d4ba0a97cc10978818d4c808d4a808978820d498037c78117c7a107c7b127c7c13978808d4a80897bb1097cc18d4cb0bd4b8087c7a157c7b147c7c167c791797aa08d4ba0a97cc10979918d4c909d4a909979920d4890a7c78197c79187c7b1a7c7c1b978808d4980897bb1097cc18d4cb0bd4b8087c791d7c7b1c7c7c1e7c771f979908d4b90997cc10977718d4c707d49707977720d487076f776fa86f396f2a7b5a187b59107b58087b57821008821595111032009511d87b10207b15187b161082897b19088289087b1982851082861833082050100426046f686f59821a6faa821b086fbb787b18787a10787908787898bc38787c1f98bc30787c1e98bc28787c1d98bc20787c1c98bc18787c1b98bc10787c1a98bb08787b1998ab38787b1798ab30787b1698ab28787b1598ab20787b1498ab18787b1398ab10787b1298aa08787a11989a38787a0f989a30787a0e989a28787a0d989a20787a0c989a18787a0b989a10787a0a98990878790998893878790798893078790698892878790598892078790498891878790398891078790298880878780182102082151882161095112832009511a07b10587b15507b16489515608411e06476828718828910828a0882886f776f996faa6f887b18187b1a107b19087b17491138491130491128491120481140208318831a20831b403309ff33070a07821738821830821928821a206f776f886f996faa7b6a187b69107b68087b675012060dc20032009511a07b10587b15509515608411e08272827a08827b108277188283828908828c108288186f746fbb6faa6f276f826fcc6f996f387b17187b1a107b1b087b147b18387b19307b1c287b12208318831a203309ff330b2033070a0f9551a08210588215509511603200951160ff7b1098007b1590007b1688009515a0008411e082ab7b1b3882ab087b1b3082ab107b1b2882aa187b1a20829a7b1a18829a087b1a10829a107b1a088299187b1964865010082c0282186f888219086f99821a106faa821b186fbb7b1b587b1a507b19487b18408218206f888219286f99821a306faa821b386fbb7b1b787b1a707b19687b18608379836a8317403308020a05955160ff8210980082159000821688009511a0003200951120ff7b10d8007b15d0007b16c8009515e0008411e082bc7b1c4082bc087b1c4882bc107b1c5082bb187b1b5850120a2cbe007b183850100c8f016f687b187882186f887b18708218086f887b18688218106f887b18608218186f887b1898008218206f887b1890008218286f887b1888008218306f887b1880008218406f887b18b8008218486f887b18b0008218506f887b18a8008218586f887b18a0008379811a388317603308030a05955120ff8210d8008215d0008216c8009511e00032009511e0fe7b1018017b1510017b160801951520018411e082c67b166082c6087b166882c6107b167082cc187b1c7882bc7b1c3882bc087b1c4082bc107b1c4882bb187b1b5050120e52bd007b1858501010b5006f687b18980082186f887b1890008218086f887b1888008218106f887b1880008218186f887b18b8008218206f887b18b0008218286f887b18a8008218306f887b18a0008218386f887b18d8008218406f887b18d0008218486f887b18c8008218506f887b18c0008218606f887b18f8008218686f887b18f0008218706f887b18e8008218786f887b18e0008379811a58831780003308040a059551e0fe8210180182151001821608019511200132008b7910520931c8780883881f8488e05638000001253309800102390a800102ae8a093d088001020133089001028377c887073200009511f07b10087b158475010a03013d077c010251050750101209501014f001951100ff7b10f8007b15f0007b16e800951500018411e04921d8004921d0004921c8004921c0008317c0000a10018217d0008218d8008219c800821ac000d49808d4a707d487075207e10039067c010297672098772095771f8477e09578a000d878077b18a0007b17a80094777b17b0003307409518a0004921b800501016ebfa3307a000646850101825ff8377646833090a010154161fa000951780003308a00050101a8bf9821790008219980014080000000001000000d37808d49808987a2088aa01949a938a510a7982188000821a8800d4780bd49a0cd4cb0b510b727b18607b1a687b1770330780009518607b197850101c74fa95174033084050101e2ff9821758821850821948821640d49707d48609d47909989920d48707977720d49707510769003308900102838833070128b1003308900102838833070128a400330890010283883307012897004911104911084901140700000000c8f5bc1464187b17183307501020fff9390880010256181f0b20038001022001330890010283883307013309040a0d01646733085010221bfe8377330833090a019517203308800050102488f8821738821930821a28821b203e07c801033e09c001033e0ab801033e0bb00103284ef864673308501026dbfd8378330733093300280a0d280a33093300280a0d01951110fe7b10e8017b15e0017b16d8019515f001951110c48411e06416956918314929c0024929b8024929a80280003307409568c0334929b00250102a42f933077c01027b67980139077c01025517040728947a956700308377e003330833002c0a0201956918318197e4025247871cb2880a28831e51476cd3238ff0085247346662990a2878345247e1ac83b60a28b92f52472d16dfba0a284f225247b00de3d00a28101151475f53cc0e1b05514786e72a22a30c52474d7d1a2e0a28df2b5247f50796370a280e23524768e76a410a2812165247b836cc480a2810145247aef7914a0a28832651477f7eba4b0a28103a4929600749295807492950074929480795670040837760f833002e0a1001956a183195ab000782b75882b86082b95082ba48d49808d4a707d4870751070628a16c5012308ab900ac780628a26c9567001d33003233023c062886bb00330234956a18190195ab000382b7e80082b8f00080a9f803492ae003956a00017ba9307bb9d8007ba8387bb8d0009568e01c7ba7407bb7c8003307501036f3f7956818194928c0034928b8034928a8030364893307209568c01c4929b003501038d0f73308800102390780010256173f0b200380010240017b6878011408ffffffff000000007b68d000140700000000ffffffff7b67200150123a49b6003307900102837783993308407b67700133003c0a08826a980133023e28dab700826a980150123ed2b70095bc00077bca80007bc9787bc8707bc7689567a01c956880385010403ff8956a181980a788037b672801492618014926000149260801492610013302330c330b330301018ec78eb8dab70882672801d837078e29da2709d4bc07db780951090628a4257b6380017b6288017b6c90017b6b9801492a80038267400195a900037b9768826738017b97709568801c826730017b97783307501042d0f695671819492760034927580349275003647a3307209568601c492a480302501044adf65012466aba00ac790d4808403302482845b10050124841b10033004a0a0833024c2807b30050124c03b300837718f9c8760982679801959a00037ba740826790017ba738826788017ba7309568401c826780017ba728330750104e50f68267480195681819958900037b9720826750017b9718826758017b9710648a3307209568201c826960017ba908035010501df6501252dab900ac7907480840019517e08477e07b676001501254cbb1003300560a0833025828cab100501258c6b1009567001c50105ad7f633025c956a18190195ab000282b7f00082b8f80082b9e8008477ff8488ff826b2001d2b909d49808d487075107ad01492ae0028267400195a900027b97c800826738017b97d0009568e01b826730017b97d800330750105e8bf5956718194927c0024927b8024927b002647a3307209568c01b492aa8020250106068f550126225b900ac790d4808403302642800b000501264fcaf003300660a08826a680133026828c5af00826a6801501268bdaf009569181982679801959a00027ba7a000826790017ba79800826788017ba790009568a01b826780017ba78800330750106a02f58267500195681819958900027b978000826758017b9778826760017b9770648a3307209568801b826968017ba9680250106ccef450126e8bb800ac790d4808403302702866af0050127062af003300720a08826a68013302742867af00826a68015012745faf0095681831958a00077bab88007bac90007ba998007ba7a0009567601b9568a03850107668f5330278956a18190182a750028477ff005207598267180195ab00027bb708826700017bb710826708017bb7189567401b9568201b826910017bb92050107a559b0033027c956a18190195a80002828740956900017b97108287387b97088287307b978287287b971801956b000182b7800095ac00017bc7c80082b788007bc7d00082b790007bc7d8009567001b9568e01a82b998007bc9e00050107ef79a00956a181982ab000282acf80182a2f00182a3e801289cfc492940034929380349293003492928039567003083774004330080000a1001956a183195ab000350228200e0b40051070628f96750228400c8b400ac780628f9679567a0033300860033023c0628c2b6008267a0038268a8038069b003492698037b6990037b688803956880037b67800333075020880048f349267803492670034926600301330720956860034926680350208a002af39517e08477e07b6778016471390880010256183f143308403d0880010233028c0028b6b10050228c00b2b10033079001028377839933084033008e000a08330290002880b000502290007cb000826878017b87187b89107b8b087b8c9567400350209200b6f3826758037b677801826750037b677001826748037b676801826740037b6760018267880195770188780182699001c8980895691831959a00037ba850d478087ba74888870182688001c887077ba758d8870782689801c887077ba7609567200395686034502094004cf3826738037b675801826730037b675001826728037b674801826720037b674001826888019587025022960051b000502298008cb400956b183195bc00037bc880007bca787bc9707bc768956700039568803450209a00f4f2956c000382c7187b67380182c7107b6730018268880195870350229c0007b00082c8087b68880150229e003bb40082cb7b6b8001956b183195bc00037bc8a0007bca98007bc990007bc788009567e0029568a0345020a0009af28267e0027b6728019567c0023308405020a20059f095670002827bd800827cd000827ac8008279c000d4ba07d4c908d47808988820d4c707977720d48707510706283165826760017b67a002826768017b67a802826770017b67b0029568a002826778017b67b80264977b6998017b6a90017b6b78017b6c70015020a40028f1956c000182c8980082c77882ca70d47a0a140b00000000010000001407e0ffffff00000000d8780782c99000949794a752070628bf6483872082684001956c00027bc88000826848017bc88800826850017bc8900095688002826958017bc998007b6a78017b6b70015020a600b9f095690001829b78829a9000829898008297709577c0d8780794a794b752070628646483874082688001956a00027ba860826888017ba868826830017ba87095686002826938017ba9785020a8006af0956a000182a998001407a0ffffff00000000d8790782a89000948782a87894875207062811648267280197772098782083976049265802492650027b6840029568400249264802330066012819f09567183949174049173849173049172895670040837740f93300aa000a1001956a183982a73882a84082a93082aa28d49808d4a707d487075107062864645022ac0019b100ac780628646495670040837760f93308040a020195671839827860827958827a50827b48956c00017bc880007bca9800d48a077bc9787bcb9000d49b08d4870752070628316433079001037b67700183777b6758013300ae000a04826970013302b0002835a900826970015022b0002da9004909959b00ff7bb8f8007bb7f000956800217bbae80033075020b20047ef956918194929e0074929d8074929c807013307209568e0204929d0075020b40025ef9517e08477e07b67880164713309800102390780010256173f0b200380010240017b6950019517e08479e07b69680164913307900102837783993308407b6760013300b6000a08826a68013302b80028b8b200826a68015022b800b0b2006f8c6f996fa2826b88017bb2187bb9107bbc087bb7951be084b8e06481957b02d87b07c87c0ad8ca0cda770cc89c0cd89c07c827077b8c107b8a087b8b7b87189567c0207b6868015020ba006bef956718198272c0078278b0078274b8078273a80782608001d3020782699801d3980cd8980a82699001d89309dbca09d8020a826b7801d8b40cdb7a0cd3b40ad47a0adbac095109062817639569181982679001959a00077ba7487b936807826798017ba7507ba8707bab587b9478077b906007649a9567a02095688020956960207ba280075020bc00e29100956a181995ab000782b7a00082b8980082b9900082ba8800956b18397bb780007bb8787bb9707bba6895688039826768015020be0020ef95674020826888015020c0009aee956b181982ba280782b7300782b8380782b94007826c80017bbce006826c78017bbcd806826c98017bbcd006826c90017bbcc8067bb9000795bc00067bc8f8007bc7f00095672020956800209569e01f7bcae8005020c200ed9400956a181995ab000782b72082b81882b91082ba08956b18397bb7a0007bb898007bb990007bba88009568a039826788015020c40081ee9567c01f3308405020c600d0eb956b181995bc000682c7c00082c8b80082c9b00082caa8005022c80048aa0051070628b2608267900195b900067b978800826798017b979000826778017b9798009568a01f826780017b97a00064a77b6a98015020ca00b1ec826758013300cc000a04826970013302ce0028e1a700826970015022ce00d9a700d4780298aa206f99979820d4a8089899203a0a800002956718197b7a80063a0a8800023a0b9000023a0c9800027b7a7806957a00067bab70492760067bac687ba9587ba8503308209569801f956a601f7b7248068267980133000a012801ee4929c0034929b8034929b0034929a803956700308377c0043300d0000a1001956a183195ab00035022d200d1af00510706282f6182679801817756170307282f61956700308377e0040a0995671831957900038298e000956a00017ba8588298d8007ba8508298d0007ba898008297c8007ba790009567e0033308405020d40075ea956b000382b7f80082b8f00082b9e80082bae0005022d600f1a800510706285b5f7b6a1801826350016837957740826058016809da0709826490016847957740826298016828da270895878000d4030adaa709d8870c94ac8ecb8897f000857a01daca0b88b7019577ff9ab89accc9ac0a9a99ef007b6878018e8c8e78da7c088eac7b69680188990001859901dbac09dbb809d43408d4020bd4b808888801d49808644b948b51080628f464826868018588ff0082697801d49808d47a09d4980852080628d964826b680195b9017b698801889801c8a8087b688001d49808888801826a7801c8a8087b687001d8a808c887077b6778019ab8ff007b6840019a89800082679001826898015020d80019af007b6730017b6848018267500182685801826940015020da0024af007b6728017b6820018267400195798082679001826898015020dc0006af007b6710017b68080182694001889780007b67380182679001826898015020de00e3ae00956b00017bb86082b8800082b978d4890982b8880082ba70d4a808d4980882ba3893a77bb76852080628f26364a98267480182682001d4870764ac82680801da980782695801649a649882694001db970a7b6a480182673001826a2801d4a707826a1001daca07826b500164badb970a7b6a40018267600193c77b676001492630018051018267880195798064b75020e00028ae007b6738017b6820018267900182689801826988015020e2000dae007b6710017b682801826888019a89800082675001826858015020e40014ae0082692801d4980882698801889a80007b6a2801826b2001daab08826b9801db980b7b6b980182681001d4870782683801daa80782689001db97087b68900182675001826858015020e600a1ad0082649001826398014926580149265001956b000182b928939893977bb73882ba3095a9ff7bb9288ea99599ff7bb9200198493f973a01d4a909974a0182644801984b3fd4ba0a7b6a9801826020016437d39003d89002826b2801d8ab0cdb320c978801826b380198ba3fd4a8087b689001987a3f97b701d47a0a974701826b400198b83fd4870297b801826b600198b33fd4380397b801826b680198b43fd4480897bb0182675801d47b0b7b6b680182675001d478087b686001d437087b684001d427077b674801c9a007d8c707d8a008826c9001c9c00bc98b0bc97b0b99b03f82673001d2700782689801c97804d87808c989039498c98a077b673801d88a08c98c0895670001827a8800827c8000d4ca09889901827b70d89b02c99b0988ab01c9bc0c827b78c92b0b95aaff7b7c80007b7b78d4bc027b7a8800d49a0bd42b0a840b017b7b587b797049265001520ae1fe28b16182679801817756170307280e5d956718394927400449273804492730044927280495670040837740fd3300e8000a1001956a183995ab00045022ea00dda80052070628e35c33079001037b67900183777b6768013300ec000a04826990013302ee00282ea500826990015022ee0026a5004929a002959b00027bb898007bb790009568a0337bba880033075020f0003ee79568183149288002492878024928680201648933072095688033492970025020f2001ae79517e08477e07b6798016471390880010256183f0b200380010240019517e08479e07b69880164913307900102837783993308407b6760013300f4000a08826a88013302f600284ea600826a88015022f60046a600956718394927600449275804492750044927480495670040837760fd0a1095671839957900048298487b6888018298507b6880018298587b6878018297607b67700195676033826898015020f80067e7956b183182ba480282b7500282b8580282b96002826c70017bbc0002826c78017bbcf801826c80017bbcf001826c88017bbce80195bc00027bc9207bc8187bc7109567403395682033956900337bca085020fa00be8d00956a183195ab000282b74082b83882b93082ba28956b183995bc00047bc780007bc8787bc9707bca689568803d826798015020fc0051e79567e0323308405020fe00a0e495671831957900018298e0007b6888018298d8007b6880018298d0007b6878018297c8007b679801956718394927a004492798044927900449278804956700408377a0fd330000010a1001956a000182a7880082a878d4870782a89800648c82a9800050220201f0a500510706283759956a183995ab000482b7880082b8900082b9980082baa000956b18317bbac00195ba00017ba9b8007ba8b0009568c0327ba7a80064c7502004012ee582676801330006010a048269900133020801285ea000826990015022080156a000d4780298aa206f99979820d4a8089899203a0a000002956718317b7aa0013a0a0800023a0b1000023a0c1800027b7a9801957a00017bab9000492780017bac88007ba9787ba8703308209569a032956a80327b7268018267980150200a0180e633078268600133093300ee040a0d3302f00428d6a50049298006492978064929700649296806956700308377800733000c010a1001956a183195ab000682b77882b8800082b97082ba68d49808d4a707d4870751070628f65950220e018fa500ac780628f659956700308377a0073308040a0201956a183195ab000682b7a00082b8980082b99000d48707889801947852080628d35982a788067b672001956700308377c0070a0901956718318274c006827ab8067b6a50018272b0068270a806684768a8958940db470968276808958840db270895878000d44a0adaa709d8870c94ac8ecb8897f000857a01daca0b88b7019577ff9ab89accc9ac0a9a93ef007b6898018e8c8e78da7c08883c000185cc018ea9dba90cdbb80c7b6440017b625801d4420882645001d44009d49808888801d4c808640b948b51080628ac278538ff00826c9801d4c808d47a09d4980852080628952764029539017b699001889801c8a8087b688001d49808888801c8c8087b687001d8c808c887077b6778019a38ff007b6868019a89800064077b62480182685801502010018ba70050221201b5a60050201401a3a7007b6730017b6828018267680195798082674801826858015020160185a70050221801f4a600826748018268580150201a016fa700826b380182627001826c780182698001d49c0c826a9001d42a0ad4ca0a93b77b678801510a06281425330b28d32649298005492978054929700549296805956700308377800633001c010a1001956a183195ab000582b77882b8800082b97082ba68d49808d4a707d4870751070628255850221e0197a300ac78062825589567ff079577c1023300200133023c06288da5009568ff0795881101958900018297c0007b6768018297b8007b6770018297b0007b6778019567ff079577a10233084050202201cce09567ff0795771101957c000182c8a8007b68880182c9a0007b69800182cb98007b6b900182ca90007b6a98017bc888007bc980007bcb7864789567ff07957781027b8a7001330024013302740628daa100956a000182a7880082a89000d4870782a9800082a898005022260117a200510706285e559567ff07957711014927680149276001492758019568ff079588610249275001826798015020280167e1956b000182b7880082b98000d47909140a00000000010000001407e0ffffff0000000082b89800d8780782b890009487949752070628fc54826798018377209568ff07958811017b69880164894928480149284001492838019568ff0795884102492930017b6a800150202a01f8e0956a000182a9880082a780009577c082a89800d8780782a890009487949752070628a154826798018377409569ff07959911014929280149292001492918019568ff07958821024929100150202c01a7e050222e01d1a200829888009487520706286154826798018377609569ff079599110149290801492900014929f8009568ff07958801024929f0005020300167e0826768019777209877209569ff07959911014929e800826870017b98d800826878017b98d0009568ff079588e1017b97e0003307502032012de09568ff07958811014928c8004928c0004928b0000164893307209568ff079588c1014929b8005020340101e09517e08477e07b6790016471390880010256183f143308403d0880010233023601288d9e0050223601899e00330790010283778399330840330038010a08826a980133023a0128aca300826a980150223a01a4a3006fa87b686801826990017b98187b6770017b97107b6b60017b9b087b6c58017b9c9567ff079577a10133084050203c0140de9568ff07958811018287a8007b6780018289a0007b697801828b98007b6b8801828a90007b6a98017b8788007b8980007b8b789567ff07957781017b8a7033003e013302740628559f009567ff0795776101826890015020400110e0956a000182a7800082a88800d4870782a97882a8980050224201819f0051070628c852956bff0795bb110182b76882b86082b95882ba507b6a38017bba307b6940017bb9387b6848017bb8409568ff07958841017b6750017bb7488267980150204401b9de8267580195770188780182696001c89808d48709889901826a7001c8a909d8a90a826b6801c8ba0a956b183195bc00057bc890007bc788007bc998007bcaa0009567ff07957721019568a0365020460159df956b000182b7800082b978d47909140a00000000010000001407e0ffffff0000000082b89800d8780782b888009487949752070628fd51956cff0795cc110182c22882c8207b69900182c9187b6a800182ca1082679801837720956b00107bba00f9956a00107ba908f97bc89568ff07958801017bc2087b67780150204801e6dd8268580195870250224a010a9b007bc9b0007bc7a8007bcab8007bc8c0009567ff079577e1009568c03650204c01a8de956a000182a9900082a780009577c082a89800d8780782a8880094879497520706285f5195670010827bf8f8956700108278f0f8956700108279e8f895670010827ae0f882679801837740956c00107bcac0f8956a00107ba9c8f8956900107b98d0f89568ff079588c100956900107b9bd8f87b67800150204e0139dd82685801958703502250015d9a007bc9d0007bc7c8007bcad8007bc8e0009567ff079577a1009568e03650205201fbdd1407a0ffffff000000009569000182989800d8780782988800948782989000948752070628af50956700108277a0f89777209879208268980183876095680010492898f895680010492890f895680010492888f89568ff0795888100956a00107ba980f87b678801502054019bdc9567ff079577613308405020560151db95670010827978f895670010827a70f895670010827768f895680010828860f87b679001d497077b689801d4a808d47808988820d4a707977720d4870751070628155082673801956800107b8740f882674001956800107b8748f882674801956800107b8750f89568ff0795884182675001956b00107bb758f8826798017b6970017b6a680150205801ffdb9567ff079577218268780150205a01b4da956a000182a77082a968d47909140700000000010000007ba7701407e0ffffff0000000082a89800d8780782a8900094877ba9789497520706287f4f95670010827938f895670010827830f895670010827a28f895670010827b20f882679801837720956c00107bcb00f8956b00107bba08f8956a00107ba810f89568ff07958801956a00107ba918f850205c015edb9567e0078268800150205e0116da956900018297709577c082989800d87807829890009487829878948752070628fb4e956c000782c9f80082c8f00082cae80082cbe000826798018377407bcbc0007bcac8007bc8d0009568c0077bc9d80050206001f9da9567a0078268880150206201b1d950226401159d00829878948752070628a64e8267a0071408ffffffff00000000d278088267980183776049269807492690077b688007956880074926880750206601a7da330880008267980150206801dede83783309800033070a0d28bb549567183949172049171849171049170895670040837720f90a1001956a183982a71882a82082a91082aa08d49808d4a707d48707510706283550826798018177561763072835509567001f33006a0133023c0628879d00956818198287e8057b6798018287f0057b6790018087f8057b6778019567e01e33006c013302400628489e00956718198277c8057b6780019567c01e33006e0133024606282c9e0095691819959a000582a7a800956b00017bb788004929a00582b7787ba7980082b790007ba790009568a01e82b798007ba78800330750207001b2d9956818194928800549287805492868050464893307209568801e49297005502072018ed93308800102390780010256173f0b200380010240019517e08479e07b69780164913307900102837783997b6898013308407b679001330074010a08826a780133027601287b9700826a780150227601739700956918194929600549295805492950059568601e826780017b97480533075020780118d98267600195681819958900057b9740826768017b9738826770017b9730648a3307209568401e826978017ba9280550207a01e4d882689801818756173f08480840019517e08477e07b67800150227c016c970033007e010a08826a80013302800128e79600826a800150228001df96009517e08477e07b678001647182678801977720987720956918194929200549291805492910059568201e7b97080533075020820172d882676001956818197b870005826768017b87f804826770017b87f004648a3307209568001e826978017ba9e804502084013fd882689801818755174008480840019517e08477e07b67980150228601c79600330088010a08826a980133028a01280b9400826a980150228a01039400826880017b8a187b89107b8b087b879567e01d50208c01dcd8956718198277c8047b6798019567c01d33084050208e0197d6956918198292c00495980004828cb800828bb0008287a800d42b0ad4c708d4a808988820d4ca0a97aa20d4a808510806286b4b7c6898018e8a4929a00449299804492990049568a01d7b9a88047b6790017b6b88017b6278017b6c8001502090016ed7956b000182ba880082b9900082b7800082b878d47808140b00000000010000001407e0ffffff00000000d8790794a7948752070628044b7b68800182689801848700ff008e788397209569181949298004492978047b9868049568801d492970047b6b78015020920103d7956a000182a9900082a7789577c0d8790782a88800948782a88000948752070628ad4a8268980184870000ff008e78839740956a1819492a6004492a58047ba848049568601d492a500450209401b3d63308608267900150209601ebda837833096033070a0d28c95095671839492700044927f8034927f0034927e80395670040837700fd330098010a103307183933029a01287898003307183950229a0170980051070628584c8267980181775617030728584c9567183949272004492718044927100449270804956740329568203d50209c011ed79568183195890001829740956800017b8798008297387b8790008297307b8788008297287b8780009567203233084050209e01bdd4956a183195ac00015022a00162980051070628af4995690001829780007ba7e800829788007ba7f000829790007ba7f80095680032829798007ba7000164b77b9b98003300d80128aad54929c0044929b8044929b0044929a804956700308377c0053300a2010a1001956a183195ab00045022a4014d990051070628904b5022a601b49600ac780628904b956700308377e0053308043300a8010a020195671831957c000482c8e00082c9d80082cad00082cbc8005022aa0158980052070628664b33079001037b67980183777b6768013300ac010a043302ae01287193005022ae016d9300492678077b6870077b676807956860077b6a600733075020b001f5d44926580749265007492640070133072095684007492648075020b201d7d49517e08477e07b67700164713309800102390780010256173f0b200380010240017b6940019517e08479e07b695801649133079001027b676001837783993308407b6748013300b4010a08826a58013302b60128418f00826a58015022b601398f00826870017b8b7b8c087b89107b8718956720075020b8014ed58262380782682807826430078263200782608001d3020782699001d3980cd8980a82698801d89309dbca09d8020a826b7801d8b40cdb7a0cd3b40ad47a0adbac09510906288b4a82678801956900067b97c0007b63e006826790017b97c8007b98e8007b9bd0007b64f0067b60d806956700079568e0069569c0067b62f8065020ba01cb77956b000782b71882b81082b90882ba956b18317bb7000595b700047b78f8007b79f0007b7ae80095680036826770015020bc010cd5826768013300be010a043302c00128c896005022c001c496003300c2010a0a3302c401288592005022c401819200959b00057bb820826878017bb818826890017bb810826888017bb808482928058e77fc089a787bb8607bb8587bb8507bb84897a820988820977723d487079568203697882098882095696036979920d4890a826b600197bb2098bb2095684036978820d4b80c3308ff3309ff0a7b6770019567a0065020c60182788267700151070628754a956760063308405020c801a8d1956b000682b77882b87082b96882ba605022ca01289000510706289246826788017b674006826790017b674806826778017b67500695684006826780017b67580664a77b6a90015020cc0195d2826768013300ce010a04826998013302d00128c58d00826998015022d001bd8d00d4780298aa206f99979820d4a808989920492618063a0ae000023a0be800023a0cf000023a07f800027b6a3806956a00067bab307bac287ba7207ba9107ba80833082095692006956a00067b620006826790013300320228ead34929400749293807492930074929280795670040837740f83300d2010a1001956a183195ab00075022d40139930051070628834882679801817756170307288348956700133308405020d60192d0956a181182ab000295ac000182c8f80082c9f00082c7e800d49b0bd48709d4b909989920d4b808978820d498085108062866453a08a00002492ae001492ad8017ba8c8019568e012492ad0017b6798015020d80176d1330820826798013300840428aad58267d00082681801d27809492aa001492a9801492a90019567c01a9568a01a7b6998017ba988015020da01c47995681819958900018297a8007b6790018297b0007b6788018297b8007b6780018297c0007b6768019567801a3308405020dc01cccf95671819827980017b69a800827b78017b6ba000827c70017b6c9800827a68017b6ab000826868017b784001826880017b783801826888017b783001826890017b782801957800017b89607b8b587b8c5064799567601a9568401a7b9a48015020de01256f826898008269a0008267a800d487078268b000648c5022e001059100510706284c44956718194927200149271801492710019568201a826998017b79080164c75020e2015bd0956918194929e0004929d800826798017b97c8009567001a9568e0194929d0005020e401be78956a181982a7e800330233033300330b82a8f00082a9f80064ac957ae07b6a1801d87a07c8780a95aaffd38a047b6a1001d88a08da470882c70001959affc8a808956c00017bc808d8a808889901c99707c887077bc78268b0009587207b67f000d8870782699800c879087b68e800d89808da77088267a000c878087b68e000d878078268a800c887077b67d800140700000000010000007bc7601407e0ffffff000000007b67f8000182671801d8720782691001d39308d89309da870982670801d8700c826a0001d3ab08d8ab0ada8c0ad37007d48707da790a520a0628292a7b6320017b6248017b6050017b6b5801956700143308405020e601fdcd95681811828700037b678801958c000282caf8007b6a800182c9f0007b69900182cbe8007b6b98017bc7e0007bcad8007bc9d0009567e0137bcbc8003300e8013302840628148f00956a000182a9800082a7880082a89000d4870782a898005022ea01518f00510706289842956718114927c0024927b8024927b0029568c0134927a802826798015020ec01a9ce956a000182a7800082a88800d478088267f80082a99800d8790782a9900094977ba8689487520706284b4282679801837720956918114929a00249299802492990029568a013492988025020ee0159ce956900018297609577c05022f001688f00520706280f4282679801837740956a1811492a8002492a7802492a700295688013492a6802605020f2011cce956900018297609577a05022f4012b8f0052070628d241826798018377609569181149296002492958024929500295686013492948025020f601e0cd956900018297609577805022f801ef8e0052070628964182679801837780009569181149294002492938024929300295684013492928025020fa01a3cd826348018268f000c83807d8870882642001826be800c84b095022fc01b78e0082605001826ce000c80c08d8c802826c5801826ad800c8ac0cc82c0cc88b0bd88b08c8c808d49808d4b709d48909d4b808989920978820d498085108062810419569181182689801959b00027bb808826890017bb810826880017bb81895682013826a88017bba205020fe0115cd956c000182cb5882c848958720d8870882ca2050220002e58c0082c850c88a0ad88a08c88b0b6472649364a0285efd492900044929f8034929f0034929e8039567003083770005330002020a10330718313302040228c88e003307183150220402c08e0051070628584450220602e68d00ac78062855439567003083772005330804330008020a020195671831957c000482c82082c91882ca1082cb0850220a028e8f00520706282f4333079001037b67980183777b67680133000c020a0433020e0228a78a0050220e02a38a004926b8057b68b0057b67a8059568a0057b6aa0053307502010022bcc492698054926900549268005013307209568800549268805502012020dcc9517e08477e07b67700164713309800102390780010256173f0b200380010240017b6940019517e08479e07b695801649133079001027b676001837783993308407b674801330014020a08826a58013302160228b38700826a580150221602ab8700826870017b8a187b89107b8b087b87956760055020180284cc8262780582686805826470058263600582608001d3020782699001d3980cd8980a82698801d89309dbca09d8020a826b7801d8b40cdb7a0cd3b40ad47a0adbac09510906285442826788017b6700057b632005826790017b6708057b6828057b6b10057b6430057b6018059567400595682005956900057b62380550201a02056f956b000582b75882b85082b94882ba40956b183195bc00047bc7407bc8387bc9307bca28956840358267700150201c0249cc8267680133001e020a043302200228058e0050222002018e00330022020a0a3302240228c2890050222402be8900959b00047bb860826878017bb858826890017bb850826888017bb848482968048e77fc089a787bb8a0007bb898007bb890007bb8880097a820988820977723d48707956860359788209888209569a035979920d4890a826b600197bb2098bb2095688035978820d4b80c3308ff3309ff0a7b6770019567e00450202602bb6f8267700151070628e2419567a00433084050202802e1c8956b000482b7b80082b8b00082b9a80082baa00050222a025d870051070628c73d826788017b678004826790017b678804826778017b67900495688004826780017b67980464a77b6a900150202c02cac98267680133002e020a04826998013302300228fa84008269980150223002f28400d4780298aa206f99979820d4a808989920492658043a0a0001023a0b0801023a0c1001023a071801027b6a7804956a00047bab707bac687ba7607ba9507ba84833082095696004956a40047b624004826790015020320223cb33078268480133093300ee040a0d3302f00428798a00956718394927200249271802492710024927080295670040837720fb330034020a1001956a183995ab000282b71882b82082b91082ba08d49808d4a707d4870751070628f340502236022f8a00ac780628174095670040837740fb3308040a02019569183995970002827a40827838827b30d4a80c88b70194c752070628c6407b6c9800829c280282679801807395c723d8c709c89b027b6bd000d8b20bda990bc88b0b7b688001d88b097b6a8801c8a909d4b909d837079427949752070628914083c80495670040837760fb7b6cc8000a0201956a183982a2600282a7580282a950027b67e800d427078898017b679001947852080628664082a448028268c800958724d8870a8260d000c8a00bc847037b672001d8730cc89b08c8c808d3b8077b69e000d8b809da7c09d80b07daaa07826a8001c8a707d8a70a826b8801c82b0bc8ba0a826ce800c8c70bd87b07c8a707826a980180aac8b909d8b90bc8b707d83a0a888b0185aa01db8b0a887801889b01db780bd49707db7b0a520a0628ea3f8847038269e0009497826a900194a751070628e23f64cb8e977b64b800884865858801db97088ec78e297b62b000da2709daa80951090628094033079001037b67d80083777b67c000330038020a048269d80033023a02282185008269d80050223a021985004929e0007b98d8007b97d0009568e0317b9ac800330750203c0235c7956818314928c0004928b8004928a8000364893307209568c0314929b00050203e0211c79517e08477e07b67980164713309800102390780010256173f0b200380010240017b69a8009517e08479e07b69900164913307900102837783993308407b67a000330040020a08826a90013302420228bb8200826a900150224202b38200826898017b8a187b89107b8b087b879567a031502044028cc79569183180978800330a4919604919587b9748956780319568603149195050204602956d95671831827880007b6808018278787b6800018278707b68f8008278687b68f00095674031826898015020480239c7956a183180a72c97772082a83082a93882aa40826bf000d4b707826bf800d4b808826b0001d4b909826b0801d4ba0a956b183995bc00027bca80007bc9787bc8707bc7689568803b8267980150204a025fc7956700408377a0fb0a0901956718398274a002827a98027b6a50018273900282708802684768a8958940db470968376808958840db370895878000d44a0adaa709d8870c94ac8ecb8897f000857a01daca0b88b7019577ff9ab89accc9ac0a9a92ef007b6898018e8c8e78da7c08882c000185cc018ea9dba90cdbb80c7b644001d44308643482635001d43009d49808888801d4c8087b605801640b948b5108062876158528ff00826c9801d4c808d47a09d49808520806285f159529017b699001889801c8a8087b688001d49808888801c8c8087b687001d8c808c887077b6778019a28ff007b6868019a8980008267580164487b64480150204c0271890050224e029b8800502050028989007b6730017b682801826768019579808267580182684801502052026b890050225402da8800826758018268480150205602558900826b380182627001826c780182698001d49c0c826a9001d42a0ad4ca0a93b77b678801510a0628e512330b289f14956718394927c0004927b8004927b0004927a800956700408377c0f90a1001956a183982a7b80082a8c00082a9b00082aaa800d49808d4a707d4870751070628253d8267980181775617430728253d956740233300580233023c062878870095671821957900028298387b6868018298307b6878018297287b677001956700408377e0f93308240a020195671839827be000827ad8008279d0008278c800956c00017bc990007bcb8000d4b9077bc89800d4a808d478089888207bca8800d4a707977720d4870751070628b43c956a000182a768977720987720956918214929200282a870959b00027bb80882a8787bb810956820237bb718330750205a0284c333025c029568182101492800024928f8014928e801026489330720956800234929f00150205e025bc33308800102390780010256173f0b200380010240019517e08479e07b69680164913307900102837783997b6878013308407b677001330060020a083302620228967f50226202937f83771801c8760982678001959a00017ba7e000826788017ba7d800826790017ba7d0009568e022826798017ba7c800330750206402dcc233026602956818210182674801958900017b97c000826750017b97b800826758017b97b000648a3307209568c022826960017ba9a80150206802a0c250226a025c8600ac7907480840019517e08477e07b67980150226c024c7e33006e020a083302700228108000502270020c8000826868017b87187b89107b8b087b8c9567a0225020720246c3956b182182b798017b67700182b790017b67680182b788017b6778018267880195770188780182699001c89808d48709889901826a8001c8a909d8a90a826c9801c8ca0a95bc00017bc8507bc7487bc95895678022956860227bca60502074029e61956c182182c780017b67580182c778017b6760018268880195870250227602f57f82c870017b6850015022780229840082cb68017b6b4801956b18397bb800017bbaf8007bb9f0007bb7e800956740229568003a50207a028ac233027c029568182101828730017b673801828728017b6740019567202233084050207e0238c0330280029569182101959a000182ab2082ac1882a81082a7087b689801d4b80ad4c708d4a808988820d4ca0a97aa20d4a80851080628073582687801978820988a20492900014929f8004929f000956800227b9ae8007b6790017b6b88017b6c8001502082020ac1956b000182bc900082b7880082b88000d47809140a00000000010000001407e0ffffff00000000d87c0782b8980094879497520706289f343302ff1408ffffffff000000007b69300182697801989920826768017b6a7801977a20d4a909987a2082677001977b20d4ba0a987b20d22a0ad22909d2b80883c720956b1821492be0007bb8d8007bb9c8009568e0217bbad0005020840272c0956a000182a8900082a7789577c0d8780782a99800949782a9309497520706281d34838740956918214929c0004929b8004929a800a0009568c0214929b000502086022dc0826790019577a00082689001d88708826a9801c88a09d8a90ada880a82688001c88a0ad88a08826b8801c88b0b956818217b89507b8748826758017b878000826760017b8778826750017b8770826748017b87687b8a58648a9567a02195688021956960217bab6050208802585a956c000182c93082c89000140b00000000010000001407a0ffffff00000000d8780782ca980094a79497520706285c3333028a0295691821018297a0007b676001829798007b675801829790007b676801829788007b677001838760491940491938826840017b9828956840214919307b6b780150208c0245bf956a000182a9900082a778957780d8790782a89800948782a830948752070628f0327c6738018e7883978000956918214919204919187b98089568202149191050208e02ffbe8267900182637001d87302826c980182686801d3c80ad8c809daa209826a8001826b5801c9ab04d8ab00826b8801826a6001c9ba0bc90b0bd8940ac9ab0ac9940bc9c809c92909c97308d4a909d4b80ad49a0ad4b90998aa20979920d4a9095109062867327b68980150209002d5c283788169980133070a0d28b2385147b327d0610a2882379567183949074917f84917f04917e895670040837700f90a1001956a183995ab00ff82b7f80082a882b9f00082bae800d49808d4a707d4870751070628a7378267980181775617030728a7379567401d33084050209202e6bc95671819957900048298407b6898018298387b6890018298307b6880018297287b6788015020940268bc956b000182b7980082b88000d4870782b88800648a82b9900050229602567e510706289e313a09b001033a08b801033807c00103956b1819492b200495bc00047bc7187bc8109568201d7bc90864a750209802a1bd330820826788013300840428d5c150229a02817f82626801db270a7b6a98018267600182693001d4970782691801dab907826c500164cadb270a50229c026a7d50209e02d681007b6730017b6818018267480182685801826990015020a002bb81005022a2023e7e5020a402d481005022a602b17e82695801dba8097b69580182681001d4870782683001dab80782684801dba70864a97b68480182675001826840015020a8027381005022aa02757b8263580182644801017b6b580198493f973a01d49a02974a01826b980198bb3fd4ba0a7b6a48018269280164847b625001d329086430d82903826b3001d8ab02db8302974801987a3fd4a8087b684001980a3f977701d47a0a82679801977701826b600198b83fd4870097b801826b680198b33fd4380397b801826b880198b43fd4480897bb0182675801d47b0b7b6b8801d4c8087b686801d43c087b686001d40c077b679801c9a907d82707d8a90882624001c9290bc98b0bc97b0b99bc3f82673801d2c70782684801c97804d8780882675001c987039478c98a07d88a08c982085022ac02358000d89b02c99b0988ab01c9b000826b7801c92b0b95aaff7b6080017b6b7801d4b0027b6a9001d49a0bd42b0a84cb017b697001330c520aebfe82678801977701d47b0b0184b7ff82682001aa780628f43233079001037b67400183777b6738013300ae020a043302b0022888755022b00285754929a001959b00017bb898007bb790009568a0127bba880033075020b20275bb3302b402956818110149288001492878014928680101648933072095688012492970015020b6024cbb9517e08477e07b67180164713308800102390780010256173f112003800102403302b80228d5795022b802d2793307900102837783997b6870013308407b6778010a08826a980182a71882a81082a90882aa6f7c6f8b6f986fa9826718017b6990017b79187b6898017b78107b6b88017b7b087b6c80017b7c826738013300ba020a043302bc0228af745022bc02ac7449296001959b00017bb8587bb750956860127bba4833075020be029fba3302c002956818110149284001492838014928280103648933072095684012492930015020c20276ba82687001818756173f0848084001140800000000ffffffff7b6828011407ffffffff000000007b67b0005022c402ff763300c6020a08826a68013302c80228d679826a68015022c802cf797bcae0007bc9d8007bc8d0007bc7c800956720129568e0375020ca02ffba492608014926f0004926f80049260001492610014926e8004926e0004926d800330c330b330a8268800195880188870182698801c897077b68d0007b67c800d487078877019569000182989800c887077b67c000d8870782989000c887077b67b80095671811807708017b9730330201018eb78ea8daa70882673001d827078ec9dac709d4ab07db780952093a067b6280017b6c88017b6b90017b6a9801826738013300cc020a043302ce02284b735022ce024873492900017b98f8007b97f000956800127b9ae80033075020d0023cb9956718114927e0004927d8004927d000647a3307209568e011492ac800025020d20218b982687001818756173f0e4808403302d40228ba755022d402b7750a08826a680182a71882a81082a90882aa6f777b6760016f877b6758016f977b6750016fa77b6748019517e08477e07b676801647195691811826798017b97c000826790017b97b800826788017b97b0009568c011826780017b97a80033075020d60299b882674801956818117b87a000826750017b879800826758017b879000648a3307209568a011826960017ba988005020d80266b882687001818756173f0e4808403302da0228127a5022da020f7a3300dc020a08826a60013302de0228e679826a60015022de02df79826b68017bba187bb9107bb8087bb7957b02d87b07c8780cd88c08da7708c89808d89807c8a70795691831959a00067babe8007bacf0007ba8f8007b97000795678011956800385020e002d6b8956718118277708477ff005107629569ff079599110101956b000182b78000959c00067bc71082b788007bc71882b790007bc7209567ff07957741079568ff079588210782ba98007bca285020e202b25e9567ff079577110195780006828a48828b40828c388272300628defd95676011826868015020e4025bb8956918118297508298588299488477ff8488ff826a2801d2a909d49808d48707510773ff826738013300e6020a043302e8022821715022e8021e714919407b98387b9730956840117b9a2833075020ea0216b795671811491720491718491710647a33072095682011491a08045020ec02f6b682687001818756173f0e4808403302ee022898735022ee0295733300f0020a08826a68013302f202284f71826a68015022f20248719567181149074917f84917f095680011826920017b79e833075020f402a2b69569ff079599110182675001959b00077bb7e800826758017bb7e000826760017bb7d8003307209568e010826a68017bbad0005020f60269b682687001818756173f0e4808403302f802280b735022f80208733300fa020a083302fc02285c705022fc025970959a00077ba7c800826790017ba7c000826788017ba7b8009568c010826780017ba7b00033075020fe0210b6826748019568ff0795881101958900077b97a800826750017b97a000826758017b979800648a3307209568a010826960017ba9900750200003d5b582687001818756173f0e48084033020203288177502202037e77330004030a0833020603288271502206037f71956780105020080390b69569ff07959911017c9770075207c5fd956760108268180150200a0372b6956aff0795aa110182a7680782a3600782a9580782a250073a08a800028e7c8e3bdb7c0bd828088e9cda980cd47308db8b0c520c668267080195ab00067bb7508267f0007bb7588267f8007bb7609567ff07957781079568ff0795886107826900017bb96850200c03345c9569ff079599110195980006828788007b670001828780007b67f8008287787b67f0008287707b670801281efd9518e08488e064813a0bb00002c82b0bd82b0cc8c90a95aaffd39a02d89a09da2c09953cffc8c909d8c902883c01c9c707c827077b8a087b8b7b89107b87188267180150200e0309b69517e08478e064818267b8007b87188267c0007b87108267c8007b87088267d0007b87956740107b6860015020100360b59567ff0795771101827248078273400782793807827b30079518e08488e064813a0ca00002c8cb04d8b407c8790ad89a0cda770cc83c0cd83c077b8c103a0cb80002c827077b8a087b84d8bc0a959901949ad22309959901949a7b8718510a0628d92782676001502012036bb5956720108268680150201403e5b4956aff0795aa110195ab000782b71082b81882b92882ba20847700ff867701956b183195bc00077bc9207bca187bc8107bc7089568203882676801502016031cb58267d800956aff0795aa110195ab00067bb7e8008267e0007bb7e0008267e8007bb7d800956700109568ff079588e107826910017bb9d00050201803935a9569ff0795991101829708077b67d800829700077b67e0008297f8067b67e8008297f0067b671001287ffb9567ff079577010733084050201a03feb19569ff079599110182920806829c0006829bf805829af005d42b07d4ca08d47808988820d4c707977720d4870751070628d226826710018268b000d287074929e8054929e0054929d8059568ff079588e1067b97d00564a77b6a98017b6b90017b6280017b6c880150201c03cab2956b000182b9980082b7880082b88000d487071408e0ffffff00000000d8890882ba900094a89478520806286926826708018268b000d27808839720956aff0795aa1101492ac805492ac0057ba8b0059568ff079588c106492ab80550201e0368b282673801330020030a04826940013302220328986d8269400150222203916dd4780298aa206f99979820d4a8039899203a0ac000023a0bc800023a0cd00002826720019568ff07958811017b875005958700057b7aa8007b7ba0007b7c98003a0ad800024928680549286005492858057b7a90007b7980007b8378057b82700564873308409569ff079599a106956aff0795aa8106956bff0795bb61064927880582679801502024033cb433078268780133093300ee040a0d3302f00428e67250222603967382626801db270a7b6a98018267600182693001d4970782691801dab907826c500164cadb270a502228037f7150202a03eb757b6730017b68180182675801826848018269900150202c03d17550222e03557250203003eb7550223203c97282694801dba8097b69480182681001d4870782683001dab80782685801dba70864a97b6858018267500182684001502034038b75502236038e6f8263480182645801017b6b580198493f973a01d49a02974a01826b980198bb3fd4ba0a7b6a48018269280164847b625001d329086430d82903826b3001d8ab02db8302974801987a3fd4a8087b684001980a3f977701d47a0a82679801977701826b600198b83fd4870097b801826b680198b33fd4380397b801826b880198b43fd4480897bb0182675801d47b0b7b6b8801d4c8087b686801d43c087b686001d40c077b679801c9a907d82707d8a90882624001c9290bc98b0bc97b0b99bc3f82673801d2c70782684801c97804d8780882675001c987039478c98a07d88a08c98208502238034e74d89b02c99b0988ab01c9b000826b7801c92b0b95aaff7b6080017b6b7801d4b0027b6a9001d49a0bd42b0a84cb017b697001330c520aecfe82678801977701d47b0b017b6b78019567203133084050203a0393ae956818318287207b6788018289187b698001828a107b6a9001828b087b6b98017b87958c00ff7bc9f8007bcaf000956700317bcbe80033003c033302840628b06f956b000182b9980082b7880082b89000d4870782ba8000d4a908d47808988820d4a707977720d48707510706282a23956a18298267f00095ab00077bb7c8008267f8007bb7d000826700017bb7d8009568e030826708017bb7e000649750203e0329af8267c0000a0401956a000182ab980082a7880082a98000d479091407e0ffffff00000000d87b0782a890009487949752070628c1227b6940018269d80082970881981082996f77977a206f88988820d48a0a9877206f98978920d4790998882083b720956b1829492bc00795bc00077bc8b8007bc9b0009568c0307bcaa8007b67380150204003a0ae8267b000956a182995ab00077bb780008267e8007bb7788267e0007bb7709567a030956880308269b8007bb9685020420361539567182995790007829888007b686001829890007b685801829898007b6850018298a0007b6848019567603033084050204403feac95671829827a60077b6a8801827858077b688001827c50077b6c7001827b48077b6b6801826948017b792007826950017b791807826958017b791007826960017b790807957900077b9a407b98387b9c30647995674030956820307b9b280750204603574c9569000182987082978800d48707829868648c829b8000d4b808d47808988820d4b707977720d48707510706287121956718298268b800957900067b98e8008268e0007b98f0008268e8007b98f80095680030826bb0007b7b000764c75020480370ad82678801826a8001d4a707140be0ffffff00000000826c6801d8bc0882697001949894785208062813218268b80083877b679000816720017b67880083c7207b6b600150204a036cb1837782689000826988000a0101826b70018262b80082676801c87202d872088269e000c8b909c88909d3b90ad8b90bdaa80b8268e80082678001c87808d8780a826c88018267b000c87c0cc8ca0ac88b0bd88b08c8a808d4b80882676001d8720a949a948a520a06288920832720956918294929e0064929d8064929d0069568e02f4929c80650204c039bac140a00000000010000001407c0ffffff00000000956b000182b89800d8780782b99000949782b9409497520706283820838740956818297b6a6001648a8268680195ab00067bb8a800826870017bb8b000826880017bb8b8009568c02f826988017bb9c0007b67880150204e032cac956b000182ba4082b9900082b8980082b7609577a0d87807949794a752070628d71f838760956b1829492ba006492b9806492b90069568a02f826978017bb988067b676850205003e2ab956a000182a89800140780ffffff00000000d8780782a99000949782a940949752070628891f83878000956918294929800649297806492970069568802f492968067b67205020520397ab8267c000330054030a048269d8003302560328dd658269d80050225603d66549296006959b00067bb8587bb7509568602f7bba483307502058035bab33025a0395681829014928400649283806492828060264893307209568402f4929300650205c0332ab8268a800818756173f0848084001140800000000ffffffff7b68781407ffffffff000000007b677050225e03d56d330060030a08826a90013302620328d86e826a900150226203d16e7b6780016f877b6778016f977b6770016fa77b6768019517e08477e07b679001647133026403956918290182670801959a00067ba720826700017ba7188267f8007ba7109568202f8267f0007ba70833075020660392aa330268039568182901956b000182b7687b87000682b7707b87f80582b7787b87f005648a3307209568002f82b980007ba9e80550206a0359aa8268a800818756173f08480840019517e08477e07b678001647183793308408267a0000a08826a800182a71882a81082a90882aa6f7c7b6c486f8b7b6b506f987b68606fa77b6758826990017b97187b98107b9b087b9c9567e02e8268980150206c03baa8956718298277c805826870d287077b6798019567c02e8268900150206e03c6aa956a182995ab000582b7b00082b8b80082b9c00082baa8008477ff8488ff8499ff826b78d2ba0a826b9801d4ba0a956b183995bc00027bc9c0007bc8b8007bc7b0007bcaa8009568c03b8267900150207003eaaa9567a02e826838015020720338a89567182995790005829898007b689801829890007b688001829888007b6878019567802e826890015020740336aa956818298287800580886805826c780198c920826b800197ba20d4a90998ba20826b980197bb20d4ba0a97cb20d4b808956b183995bc00027bcad8007bc9d0007bc7e0007bc8c8009568e03b826790015020760358aa9517e08478e06481826948959901889701826a50c87a0ad4a907887701826c60c87c0bd8cb07826c58c8c7077b6748017b87187b6b38017b8b107b6a40017b8a087b68387b6950017b899567602e82688801502078035ca795671829957c000582ca6082cb5882c95082c848956c00017bc9307bca28d4a907d4b809d479099899207bcb20d4b707977720d4970751070628271c9567402e7b68180150207a0312a7956918290195970005827b40827a388278308eb78eacdbb70c7b68408e877b6a307b6b28d4ba0a7b67087b6c107b6a1001dbac07510706284122829728057b6780009567202e82683850207c03efa8956b182995bc000582c90882c71082c81882ca2095bc00047bcae0007bc8d8007bc7d0009567002e9568e02d7bc9c80050207e03954495671829827a000595780004828bf800828cf0008289e8008ea78eb8dba7088ec77b6978018899208599017b6c8001dbc7097b6a88017b6b9001d4ab07db7809826780008877207b671852090628dc0f95671829956a000182a850957b00047bb8a80082a8407bb8b00082a8387bb8b8009568c02d82a9487bb9c00033075020800343a78267a800817756171f0c8268a800480820019517e08477e07b676801647183793308208267a0000a088267800095781fd87807826c40c87c09d8c90ada770a826b30c8ba0a7b6a600197aa3b989b05d4ab0b8267680182731897993b827a10988805d498076f346fa982681894c8826a100194a8948b9487c87402d84207c8790cc8cb0b7b6b9801d39b0cd89b0adac70a7b6a58018267780195701fd8700b826a8001c8ba07d8a70cdabb0c82639001c8c303973b3b987a05d4ba0a97773b980b05d4b707c847077b677801d847076424c8790bc8ab0bd39b0a7b6b7001d89b09daa709826b6001826730d87b07826a28c8a70798ba05977b3bd4ba0a826b680182b282bb08987705948a94876fb86f2bc8b707c88a0ad88a0cc8c70782605801c8a000d8a00ac8a70282679001d87307826a8801c8a707983a05977c3bd4ca0a987705c8b707956c000182cb9800c88a0ad88a08c88707c8a9097bc968d8a908c887077bc7609517e08473e064317b6358010182677801d8740782697001d39b08d89b09da8709826c6801d8c007826a6001d3a208d8a20ada870ad3c007d48707da790a7b6490017b347b6b98017b3b087b6080017b30107b6288017b3218510ae50d95671839492700034927f8024927f0024927e8029568003c643750208203c9a68263580182649001954401884701826b9801c87b0bd4b40788770182688001c88707d8870882628801c8820264702862ff3302492690004926880049268000330b3303330c330401018e378ec8dac70882672801d847078eb9dab709d4c307db7809956a181952094d067b6480017b6b88017b6390017b6c98017b626001492ac000826740017ba7a800826738017ba7b0009568c019826730017ba7b800330750208403b9a4956718194927a0004927980049279000647a3307209568a019492a8800025020860395a4502288035168ac790d48084033028a03282b5f50228a03285f33008c030a08826a680133028e03285068826a680150228e0349687b6758016f877b6750016f977b6748016fa77b6720019517e08477e07b676801647195691819826798017b978000826790017b9778826788017b977095688019826780017b976833075020900312a482672001956818197b8760826748017b8758826750017b8750648a33072095686019826958017ba94850209203e3a3502294039f67ac7907480840019517e08477e07b67580150229603905f330098030a0801956c000182ca5850229a03b15f82c8687bca507b8a187bc9587b89107bcb487b8b087bc7207b879567401950209c0380a495681819828730828c2882883897792098ca20d4a909978a20987720d4a707988820847bff8267d000d278088499ffd48907d4b707510780007b6c00017b69e0007b6be8007b68f000956c000182c720957902d8790782c848c8780ad88a08da770882c758c8870bd87b0782c850c87808956718317b69d800957c00077bc9a8007b6ac8007bcab0007b6bc0007bcbb8007b68b8007bc8c000956720199568c03850209e03d9a3956718198277108477ff0051070a9567181128d903956700193308405020a0038ba19567181982797b691001957800ff828bf8007b6b0801828af0007b6a1801828ce8007b6c6801956818117b89e007958900077b9bd8007b9ad0009567e0187b9cc8003300a20333028406289c62956a000182a90882a71082a818d4870782a8685022a403de625107062826168267d00082680001d28707956918114929c0074929b8074929b0079568c0187b97a807826768015020a6032ca2956a000182a70882a810d47808140700000000010000007b67f8001407e0ffffff0000000082a968d8790782a91894977ba8948752070628bf1582676801837720956918114929a0078268e000959b00077bb888008268e8007bb890009568a018826af0007bba98005020a803bda18267200195770188780182694801c89808d48709889901826a5801c8a909d8a90a826b5001c8ba0a956b181195bc00077bc8507bc7487bc95895678018956860187bca605020aa031f418267f8009577c05022ac035a61520706282d15956c181182c2800795c90007829878829a70829b68826768018377407b9b287b9a307b9838956840187bc240075020ae032da1956718318268b800957900077b98e0008268c0007b98d8008268c8007b98d0008268d8007b98c800956720189568e0385020b003e9a18267f8009577a05022b203de6052070628b1149569181182970807829810077b6858018478ff82676801837760492900074929f8067b98e806956800184929f0065020b403b0a08267f8009577805022b6039760520706286a14826858018487ff008e788267680183778000956918114929e0064929d8067b98c8069568e0174929d0065020b8036da08267d00082686001d28707956b1811492b8006492b7806492b70067b67580195bc00067bc7688267a8007bc7a0008267a0007bc79800826798007bc790009567c0179568a01795698017826ab0007bca88005020ba034b4995671811957b000682b8c00082b9b80082bab00082b7a800d4a808d4970ad48a0a98aa20d49808978820d4a80851080628af13956a18118268680195ab00067bb848826818017bb850826808017bb85895686017826910017bb9605020bc03b49f3302be039568181101492800064928f8054928f005826758017b87e8058267a800958900067b97208267a0007b9718826798007b9710648b956740179568201795690017826ab0007bba08065020c003984882678000956a181195ab00057bb7c000826788007bb7b800826790007bb7b0009567e0169568c016826960017bb9a8005020c2034b463302c4039568181101958900058297e0007b6780008297d8007b6788008297d0007b6790008297c8007b676001648701956b000182b88000957900057b986882b888007b987082b890007b9878647a9567a0169568801682b998007ba980055020c603e64595671811827ca00582739805827b900582748805826260012899f9956760163308405020c803659d956a181182a2600595a80005828b58828c50828748d42c09d4b708d49808988820d4b909979920d49808510806283c129578207b689001d87803c83c087b689801d8c808da3308c8b8087b688001d8b808c828087b688801492a4005492a3805492a300595684016492a2805207b67e0007b62d8007b6bc8007b6cc0005020ca031c9e956720168268b0005020cc03d49c956b000182bc900082b98000d49c0782b8980082ba8800d4a808d48707987720d49808978820d4870751070628ac11956b181182b720057b67900082b918057b69880082b810057b68b80082ba08057b6a80007bbae8047bb8f0047bb9f804956800167bb7000564c75020ce039f9d3302330c4926200133038267e000957a40d87a078268c000c8780b8260800098043b8269b800979905d44904970905c8b404c8a9097b6a50017b699801d8a909c894047b649001d3b400d8b40ada090a7b6b4801d88b08da7708826b880098b73b82699000979905d479008269b80098993b97bb05d49b04826b20018267c800c88709d879088267d800c87808c849077b684001c880007b693001d89708c88009c87a0a7b6a8801d87a08c89808956900017b988000140700000000010000007b97381407e0ffffff000000007b9758018260e000826780007b621801d872078269b800d39c087b6c1001d89c09da8709826c8800d8cb0a64b7826b9000d3b3087b630801d8b30bda8a0b7b672001d3c707d48707da790b82639801d803077b6778018262c00082649001d324077b676801d82408826c8801826ac800c9ac09d8ac07956c00017bc77082ca80008267d800c97a0a7bca60c92404c90303510b39078267500182623001d4270c826b4801826a4001d4ab0bd4bc0a98aa20d42b0b97bb20d4ba0a510a0628df0f826a7801826b6801daba08d88902826b7001826c6001c9bc0bc92b02c98909c9a40b889801c982029538c0d8380ac8ab0c95ccffd3bc03d8bc0bda3a0b9599ffc89b0bd89b09c82909956a18117ba8c8047bacd0047babd8049568e0157ba9e0045020d003ab9b8267a8008268a000d48707826ab00082685801d88a08826998009498947852080628540f95a8209567c0157b6828015020d2033c9a3302d4039568181101958b000482b9c00082bab80082b7b00082b8a800956b00017bb7787bb968d49707d4a809d479099899207bba60d4a707977720d4970751070628fe0e9567a0157b6870015020d603e999956c000182ca980082c98800d49a0782c8800082cb9000d4b808d48707987720d49808978820d4870751070628c10e95691811829788048268d000d28707492980044929780449297004956880157b97680464a77b6a98015020d803c59a956b000182b76882ba60d47a0a82b87082b758d8780782b97894977bba6894a7520706286c0e838820956760155020da035899956a000182a7880082a88000d4870982ac980082a758d87c0782a8900094877ba960949752070628350e956b181182b7580482b8500482b94804826ad000d27a0a8488ff8499ff83c720492b400495bc00047bc9287bc830956840157bca385020dc032d9a956a000182a7389577c05022de03c35a5107e70d838840956720155020e003d29895690001829a98008297d87a0782989000948782986094875107be0d956b181195b800048287207b67e8008287187b67f0008287107b67f8008287087b67000183a740492b0004492bf803492bf00395680015492be803a0005020e203ad99826898019587a0005022e403c35782688801c88a0ad88a08826b8001c88b0b95681811958c00037bc990007bc788008267e8007bc7c0008267f0007bc7b8008267f8007bc7b000826700017bc7a8007bca9800648a9567e0149568c0149569a0147baba0035020e603db33956a000182a7389577a05022e803d8595107fc0c95691811959a000382a7e0007b67800182a7d8007b67880182a7d0007b67f80082a7c8007b67f000838860956780145020ea03bf975022ec03cd5a5107bd0c956a181182a768038478ff839760492a6003492a58037ba8480395686014492a50035020ee03c798956a000182a7389577805022f0035d595107810c83888000956740145020f2036b975022f403795a5107690c8267b00082682801d8780782689800c8780a7b6a9001d88a08da7708826ba000c8b8087b687801956c181182c2400382c3380382c4280382ca3003d8b80b8267a800c8b7077b67a800d43408d42a07d487078e7883978000492c2003492c18037bc8080395682014492c10035020f603299882685001958720d88708826a48015022f803fe5782683001c88a0ad88a08826b4001c88b0b7b6b400182621801952201882801826c1001c88c0cd4c208888801826b2001c8b808d8b80b82630801c8b303826b28017b6bb000826b90017b6b9800826b78017b6ba000956b00017bb7507bb9487bba308267f0007bb798008267f8007bb79000648b28d3fa826718857701826840826908db890782681082691001db980751075002826780008477e07b6710019567182982685001957a00047ba868826840017ba870826838017ba8789568802d826948017ba9800033075020fa0345979517e08477e07b677001647133082033075020fc03739b9518e08488e07b6868016481837783893308200a084926980120330c49269001492688014926780149268001826a680182a71882a81082a90882aa6f736f846f903309826b78016fa7330a6472826870017b87187b6050017b80107b84087b83017b626801826710017b6b7801d87b07857b017b6a580194ab017b69600182678001d49707947b018268180182679801c87808826a3001c8ca0a8269200182679001c879098267280164c0826c8801c8c707520bce01826b9801d8b80bc8ba0ad30a027b603801d80a0cda2b0cc89c0cd89c02826b9001d8b909c89707c82707d4c809d4a707d47909989920d4c707977720d497077b6348017b6440015207fb099567e02a5020fe03e9943307003050220004235a82b7e00082b8d80082b9d00082bac800956b183995bc00037bc7207bc8187bc9107bca089568203c826770015020020451978263480195330188370182644001c87404d4430788770182685001c87800d8800882676801c88707826898019589207b696801d8890a82683801c8a8097b694801d8890bdaaa0b82689001c8b80ad88a0b82688801c8b8087b68880182687801958b20d88b0c82695801c8c908d89809dacc09826c6001c8c909d8c90c82628001c8c2027b628001826c70017bc4087bc37bc01064727bc7187b605001826768017b679801826c48017b6a9001648a286bfe82678000826830d48707826840826928d49808d4870752070d0249264001492638014926480149265001285b0282677801826a6801daa708d8890c826b7001826a6001c9ba0bc9cb0bc98909c97407d49308d4b707d47808988820d49707977720d4870752079b08643a8267e00064387b6a280150200404009983788169280133070a0d28dd0e8264900182639801826b8000826c1001d3cb0b826c30d4cb02826c40826b28d4bc0cd4c20b510b2e01d8380bc8ba0ad30a02d80a0cda2b0cc89c0cd89c0bd84909c89707c8b707d4c809d4a707d47909989920d4c707977720d4970752071c089567602d502006040a9395671829957900048298607b6890018298587b6888018298507b6880018297487b6778018267800097773b9878387b6898019a8980003307ff3308ff50200804a3587b6768017b6850013307ff3308ff8269980150200a0465587b6758017b68600182675001d487077b675001826798019579803307ff3308ff50200c043f58826b980188b98000826a5001db9a08826c5801826a6801d4ca0ada970a93b8ff93baff826b6001939b939c82677801e0a70782698001e0890882698801e0c909826a9001e0ba0a956b183995bc00037bca407bc9387bc8307bc7289568403c8267700150200e04c59482693098973f826828978801d48707826a4098a83f979901d49808826b800098b93f97aa01d4a90997ba0195aa01956b183995bc00037bca487bc9507bc8587bc7603307603c287801956a000182a72882a820d487071408e0ffffff0000000082a918d8890882a930949894785108b806826718018378209567a02d502010049f9195671829957900048298a000956a00017ba850829898007ba848829890007ba838829788007ba7400182694098973f826a3097a801d487077b67900198a73f826828978801d487077b678801826a800098a73f979801d487077b67800197a7017b67780197a8037b6898018d8980003307ff3308ff50201204ff567b6758017b687001826780008a79033307ff3308ff50201404be567b6768017b68600182685801d487077b675801826798018379803307ff3308ff502016049856826b980188b98000826a5801db9a07826c6001826a7001d4ca0ada980a93b7ff93baff939c826b6801939b82683801e0a80882694001e0790782694801e0b909826a5001e0ca0a956c000182cb78d4b70782cb8000d4b80882cb8800d4ba0a82cb9000d4b909956b183995bc00037bc9787bca80007bc8707bc7683307803c01c8760882673850201804fb929517e0847ce064c1826848958702d88708826a5050221a046051826860c88a0ad88a08826b58c8b8087b6c98017bca107bc9087bc77bc8189567402d82686850201c04129095671829827728048477ff7b6790019567202d8268980150201e04219295691829959a000482a72082a81882a910956a1839826b900195ac00037bcb88007bc7a0007bc898007bc990009568a03c82679801502020045e929567002d82682050202204ad8f956a182982a7000495ab000382b8f00082b9f80082bae800d48707d4a909d497078e777b6790019567e02c8268980150202404a491956a182995ab000382b7d00082b8c80082b9e00082bad800847700ff826b9001d4b707956b183995bc00037bc9c0007bcab8007bc8a8007bc7b0009568c03c8267980150202604d3918267c000330028040a048269d80033022a0428af4a8269d80050222a04a84a4929c003959b00037bb8b8007bb7b0009568c02c7bbaa800330750202c042a9033022e0495681829014928a00349289803492888030164893307209568a02c492990035020300401909517e08477e07b67980164718267a800817756173f128268a8004808403302320428ab5250223204a852330034040a0801826a900182a782a80882a91082aa186f776f886f996faa95ab0350223604db4b826898017b8b7b8c087b89107b87189567802c50203804899033023a04956918290182976803826870d2870749294003492938037b9728039567602c9568402c4929300350203c04853695671829957900038298607b6890018298587b6888018298507b6880018298487b6878019567202c8268980150203e042690956a182995ab000382b72082b81882b91082ba088477ff8488ff8499ff826b78d2ba0a826b7801d4ba0a826b8001d4b909826b8801d4b808826b9001d4b707956b183995bc00037bc7e0007bc8d8007bc9d0007bcac8009568e03c826798015020400439909567002c33084050204204888d956818290182870003958b000282b9f80082baf00082b8e800956b00017bb780007bba9000d4a7077bb89800d49808d478089888207bb98800d49707977720d4870752074a023302440495691829014929e0024929d8024929d0029568e02b4929c802208267980150204604548e956a000182a7880082a88000d48709140700000000010000007ba7781407e0ffffff0000000082a89800d8780782a8900094877ba97094975107e60182679801837720956918298268b800959b00027bb8a8008268e0007bb8b0008268e8007bb8b8009568c02b826ab0007bbac00050204804df8d826778019577dc8268c800d878078268d000948782689800948751078f011408c0ffffff0000000095690001829798007b9878d88707829890009487829870948751076801826798018377408268900050204a04ce918377826890008269880033004c040a01018268b80082679801c88707d88708826be00082699001c8b90950224e048c4e8268b000826a8001c8a808826ce800826a8801c8ca0ad8ca0cc8c808c8ab0bd8ab0ac8a808d4b808826a7801d8a70a949a948a510af000837740956918294929a00249299802492990029568a02b4929880250205004018d8267c000330052040a048269d800330254042831488269d800502254042a48d4780298aa206f98978920d4a9039884208268b80095881f8488e0009588403a0b2000023a0c2800023a073000023a09380002956a18297bab800295ab00027bbc787bb7707bb968956c000182c7087bb74082c77bb7388267f8007bb7308267f0007bb7287ba458027ba350027ba2480264a79569802b956a602b956b402b4927600282c7980050205604d48e9567202b330840502058040e8b956a182995ac000250225a04b34e5107d906009567ff07957711014927c0064927b8064927b006647933025c04140700000000717b484e019568ff079588c1077b97c806330750205e04fc8b9568ff07958811014928a8064928a006492890061164893307049568ff079588a1074929980650206004d08b82677001817756173f0c8268700148084001330701330924826878010a0d0133089001028388330701282a0d33089001028388330701281d0d3308900102838833070128100d3308900102838833070128030d3308900102838833070128f60c3308900102838833070128e90c956918194929180649291006140700000000c611522c7b9720069568201f49290806330750206204398b390880010256181f12200380010220330890010228f903330890010228f103956918194929380649293006140700000000b878d6f47b9740069568401f49292806330750206404f08a82675001817756171f0c8268500148082001330701330904826860010a0d0133089001028388330701284a0c33089001028388330701283d0c3308900102838833070128300c956918314929580149295001140700000000c611522c7b9760019568603249294801330750206604808a390880010256181f12200380010220330890010228400333089001022838033308900102838833070128da0b3308900102838833070128cd0b3308900102838833070128c00b3308900102838833070128b30b3308900102838833070128a60b3308900102838833070128990b33089001028388330701288c0b33089001028388330701287f0b3308900102838833070128720b3308900102838833070128650b3308900102838833070128580b4926d0054926c8054926c005140700000000c611522c9568c0057b67d805330750206804ac89390880010256181f122003800102203308900102286c0233089001022864024926f0054926e8054926e005140700000000b878d6f49568e0057b67f805330733006e042863893308900102838833070128df0a3308900102838833070128d20a3308900102838833070128c50a492610044926080449260004140700000000c611522c956800047b671804330750206a041989390880010256181f12200380010220330890010228d901330890010228d101492630044926280449262004140700000000b878d6f4956820047b673804330733006e0428d08833089001028388330701284c0a956918114929b8014929b001140700000000635bb2d57b97c0019568c0124929a801330750206c049c88390880010256181f122003800102203308900102285c01330890010228540149269006492688064926800614070000000018ecb890956880067b679806330733006e042853883308900102838833070128cf094926d0044926c8044926c00414070000000018ecb8909568c0047b67d804330750206e04238882674001817756171f0c8268400148082001330701330904826848010a0d0133089001028388330701287d09330890010283883307012870093308900102838833070128630933089001028388330701285609330890010283883307012849093302700495691829014929580149295001140700000000969ee20b7b9760019568602a492948013307502072049487390880010256181f11200380010220330890010228543308900102284d33027404956918290149297801492970011407000000003bc167cc7b9780019568802a492968013307502076044887390880010256181f112003800102203308900102280833089001020183883307013309040a0d0133089001028388330701289a0833089001028388330701288d083308900102838833070128800852476eeb149c7e956718394927200149271801492710014927080195670040837720fa330078040a103307004033027a0428cd4a3307004050227a04c64a82b71882b82082b91082ba08d49808d4a707d487075107820133089001028388330701281c0833089001028388330701280f08330890010283883307012802085247275914a06f01956718394927400149273801492730014927280195670040837740fa33007c040a103307004033027e04284e4a3307004050227e04474a502280048347510780013308900102838833070128ac07492658010182676801977701826b5801d47b0b014926d8034926d0034926c8039568c0037b6bc0038267180150208204f48533082082671801502084042c8a837833092033070a0d280a33092033070a0d014929b8014929b0014929a80133028604140700000000717b484e019568c02a7b97c001330750208804a98533028a0495681829014928a00149289801492888014164893307049568a02a4929900150208c0480858267a800817756173f0c8268a800480840013307013309248268a0000a0d0164ba956718298268f000957900017b98e8008268f8007b98f000956c000182c87b98f8009568002b82c9087b79000264b77bca98003300d80128228582679801817756176380003308900102838833070128930652473a6750b67601956718394927c0014927b8014927b0014927a801956700408377c0fa33008e040a10330700403302900428df483307004050229004d84850229204954851078e0133089001028388330701283d068267980181775617438e0133089001028388330701282506956700243300940433023c0628e14795681821958900028297e8007b6798018297f0007b6790018297f8007b678801828700037b6780019567e023330096043302400628974895681821958900028297c8007b6778018297d0007b6770018297d8007b6768018297e0007b6760019567c0233300980433024606286048956b182195bc000282c7a80082c8b00082c9b80082cac0007bca607bc9587bc8507bc748956b000182b7607bc7800082b7687bc77882b7707bc77082b7787bc76882b780007bc7a00082b788007bc7980082b790007bc790009567a023956880239569602382ba98007bca880050209a04802e33089001028388330733093300ee040a0d3302f00428d54452474a45080ea30495671831492700034927f8024927f0024927e802956700308377000433009c040a1001956a183195ab000282b7f80082a8000382b9f00082bae800d49808d4a707d487075107dd043308900102838833070128c00450229e047544ac78d7043308900102838833070128a904956780273300a0043302500628654695671821827768067b679001956760273300a2043302400628374795671821827748067b67f00033079001037b67080183777b6700013300a4040a04826908013302a60428913c826908015022a6048a3c49294006959b00067bb8387bb730956840277bba2833075020a804a6823302aa04956818210149282006492818064928080602648933072095682027492910065020ac047d8233078001027b671801390780010233083fac7811826818014808403302ae04280b415022ae0408413307900102837783993308407b6710013300b0040a08826a98013302b20428a43f826a98015022b2049d3f7b67980164718267900197772098792095671821492700064927f8054927f005956800277b69f8007b79e80533075020b404f6818267700195681821958900057b97e000826778017b97d800826780017b97d000648a3307209568e026826988017ba9c8055020b604bf8182671801817756173f12826718014807403302b80428b83d5022b804b53d3300ba040a08826a90013302bc04280d41826a90015022bc040641826700013300be040a04826908013302c004285644826908015022c0044f447b6890019877206f987b688801978820d487077b6780019567c026826898015020c204348295691821018297b0058098ac058299b805977a20d4a808979a20987720d4a707956b000182ba8000d3a70782ba9000d3a80882ba8800d3a909989920d49808d487075207780695670040837760fa0a09019567183982726001827b58017b6b580182745001827a48017b6a4001682768b8958940db2709684768a8958840db470895878000d42b0adaa709d8870c94ac8ecb8897f000857a01daca0b88b7019570ff9ab39accc9ac0a9a99ef008e3c8e07da0c07889c000185cc018ea8dba80cdbb70c7b6438017b625001d42407826b400182685801d4b808d48707887701d4c70764b894787b68980152071b068597ff00d43707d40a08d4870751070a065022c4047f3c5020c604b2445022c804c7435020ca04cc445022cc0472425020ce04c0447b6720017b68e80082696001889780007b67e00082674001826838015020d0049e445022d2045044826ae00093a77bb7785108970564a98267680182682801d4870764ac8268e8005022d4042d3b5020d60446445022d80445435020da043a447b67e8005022dc0470425020de0450445022e004023f8268e8005022e20459405020e40414445022e604933c5022e8044e3ed89002826b2801d8ab0cdb320c5022ea04603ed4870297b801826b700198b33fd4380397b801826b780198b43fd4480897bb0182675801d47b0b7b6b780182675001d478087b687001d437087b686001d427075022ec04243ad89b02c99b0988ab01c9bc0c827b8800c92b0b95aaff7b7c90007b7b8800d4bc027b7a9800d49a0bd42b0a840b017b7b587b79800049265001520a68ff28a504956918315247ce3c124553492900064929f8054929f0054929e80595670030837700070a1001956a183195ab000582b7f80082a8000682b9f00082bae800d49808d4a707d4870751070306330890010283883307012822330890010283883307012816838833070133093300ee040a0d3302f00428bb3f33093300ee040a0d3302f00428ac3f5022f004a93fac78d105330890010228ce9567402a3300f20433025006289f4195671829827728017b67700133079001037b67880183777b6780013300f4040a04826988013302f604287d38826988015022f604763849292001959b00017bb8187bb7109568202a7bba0833075020f804fb7dff3302fa049568182901492800014928f8004928e8000264893307209568002a4929f0005020fc04d17dff33078001027b679801390780010256173f0c82689801480840019517e08479e07b69780164913307900102837783993308407b6790013300fe040a08826a780133020005280d38826a78015022000506389517e08477e07b677801647182677001977720987920956718294927e0004927d8004927d0009568e0297b6970017b79c800330750200205457dff82675001956818297b87c000826758017b87b800826760017b87b000648a3307209568c029826968017ba9a80050200405117dff82679801817756173f0c82679801480740019517e08477e07b67680150220605943b330008050a08826a680133020a0528883e826a680150220a05813e826b78017bba187bb9107bb8087bb78267800133000c050a048269880133020e0528943f8269880150220e058d3f7b6868019877206f987b686001978820d487077b6758019567a0298268780150201005727dff95691829018297900080988c0082999800977a20d4a808979a20987720d4a707956b000182ba58d3a70782ba68d3a80882ba60d3a909989920d49808d487075207ba0482678001330012050a04826988013302140528823682698801502214057b364919607b98587b9750956860297b9a48330750201605057cff3302180595681829014918404918384918280264893307209568402949193050201a05df7bff82679801817756173f0c82689801480840019517e08477e07b67780150221c05623a0a08826a780182a71882a81082a90882aa6f777b6778016f877b6768016f977b6760016fa77b67580133021e05956918290149192049191849191095682029826770017b97083307502020056e7bff82675801956818297b87826760017b87f8826768017b87f0648a33072095680029826978017ba9e8502022053f7bff82679801817756173f0c82679801480740019517e08477e07b67780150222405c2390a08826a780182a782a80882a91082aa186f726f876f996faa951be084b8e0648195ab02d8ab0ac8a90cd89c09daaa09c87909d87907c827077b8c087b8b7b89107b87189567e0287b68780150202605bc7bff956718218277d0078478ff00510895033302280595691821014929b8074929b007140700000000c884c1c17b97c0079568c0284929a807330733005a0528867aff33022a0595691821014929980549299005140700000000dbf71c6f7b97a0059568a0264929880533073300de0528557aff492658010195690001829778977701829858d487077b979800018267f00082689801ab8744058267000133002c050a048269080133022e0528e0338269080150222e05d93349296005959b00057bb8587bb750956860267bba48330750203005f579ff330232059568182101492840054928380549282805026489330720956840264929300550203405cb79ff82671801817756173f12826818014808403302360528c33550223605c035330038050a0833023a05286c3650223a056936492920054929180549291005956820268267f8007b970805330750203c057979ff82677801956818217b870005826780017b87f804826788017b87f004648a33072095680026826990017ba9e80450203e054579ff82671801817756173f128267180148074033024005283d35502240053a35330042050a08826a90013302440528d533826a900150224405ce3395681839958a00017bab687bac707ba9787ba780009567e0259568803a50204605da79ff956718217c77d00451071f043302480595691821014929b8044929b0041407000000006d53a9a77b97c0049568c0254929a80433073300de0528a878ff826798018177561763180633089001022809fa9567200233004a0533023c0628d93b956a000282a72082a82880693002492618027ba9107ba808956800027ba7330750204c056278ff4926f8014926f0014926e001033307209568e0014926e80150204e054378ff33078001027b679801390780010256173f0c82689801480840019517e08479e07b698801649133079001027b67900183778399330840330050050a08826a880133025205285e38826a880150225205573895bc00037bca207bc9187bc8107bc7089567c0019568203450205405c578ff8067c0014926b8014926b0017b67a001330780009568a0014926a80150205605b077ff82679801817756279f0018826898014808a000826790018378800028b8f1826790018378800028adf1330258059569182901491978491970140700000000dbf71c6f7b97800095688029491968330750205a055a77ff82679801817756171f148268980148082033070133090428dc07330701330904826890010a0d3302dc059569182128de071408ffffffff000000007b686801956a182195ab000782b8c80082b9d80082bae000867701956b183995bc00017bc8c8007bc9d8007bc7d0007bcae0009568e03a8267780150205c054778ff8267800133005e050a048269880133026005288b30826988015022600584304929a007959b00077bb898007bb790009568a0287bba88003307502062059d76ff3302640595681821014928800749287807492868070164893307209568802849297007502066057376ff9517e08477e07b677801647182679801817756173f0c82689801480840019517e08477e07b67600150226805ea3433006a050a0801826a600182a782a80882a91082aa186f776f886f996faa95ab0350226c054832826878017b8b7b8c087b89107b87189567602850206e05f676ff956718218277480782686801d278085108030682686801c88707d287077b679801956740288268780150207005c676ff956a182180a72c0797772095ab000782b84082b93882ba30826b9801d4b707956b18397bb8000295b800017b89f8007b8af0007b87e8009568003b8267780150207205f876ff82678001330074050a04826988013302760528bd308269880150227605b630d4780298aa206f99979820d4a808989920826a7001956718217b7ac8063a0a4000023a0b4800023a0c5000027b7a20077b7b18074927e0067b7c10073a0a5800024927d8064927d006492700077b7a08077b79f8067b78f00695692028956a0028956be0277b72e80633073308502078057a77ff3307826890012877f633027a0595691821014929780549297005140700000000635bb2d57b978005956880264929680533073300de0528be74ff8267000133007c050a048269080133027e05286f2e8269080150227e05682e4929a004959b00047bb898007bb790009568a0257bba88003307502080058174ff3302820595681821014928800449287804492868040464893307209568802549297004502084055774ff82671801817756173f128268180148084033028605284f30502286054c30330088050a0833028a0528f83050228a05f53049296004492958044929500495686025826798017b974804330750208c050574ff8267780195681821958900047b9740826780017b9738826788017b9730648a33072095684025826990017ba9280450208e05d073ff82671801817756173f12826718014807403302900528c82f50229005c52f330092050a08826a900133029405281031826a90015022940509317b6790016471330296059569182101492920044929180449291004956820258267f8007b9708043307502098056773ff82677001956818217b870004826778017b87f803826780017b87f003648a33072095680025826988017ba9e80350209a053373ff8267180181775517400c82671801480740019517e08477e07b678801647183793308408267100133009c050a08826a880133029e0528f62e826a880150229e05ef2e826890017b8a187b89107b8b087b879567e0245020a005c973ff956718218277c8038478ff0051087403847800ff005108ba033302a20595691821014929b8034929b003140700000000f08982c97b97c0039568c0244929a80333073300de05288a72ff9567ff07957741063300a40533023c0628ca359568ff0795881101958900058297487b67d8008297407b67e0008297387b6718018297307b6710019567ff07957721063300a60533024006287c369568ff0795881101958900058297287b67d0008297207b67c8008297187b67c0008297107b6700019567ff07957701063300a805330246062841369567ff07957711018277f0047b67080195670030837720070a09019567183182722006827b18067b6b580182741006827a08067b6a4001682768b8958940db2709684768a8958840db470895878000d42b0adaa709d8870c94ac8ecb8897f000857a01daca0b88b7019570ff9ab39accc9ac0a9a99ef008e3c8e07da0c07889c000185cc018ea8dba80cdbb70c7b6438017b625001d42407826b400182685801d4b808d48707887701d4c707947b520759038597ff00d43707d40a08d48707510748035022aa057c2d5020ac05af355022ae05c4345020b005c9355022b2056f335020b405bd357b6720017b68f80082696001889780007b67f00082674001826838015020b6059b355022b8054d35826af00093a77bb7785108db0264a98267680182682801d4870764ac8268f8005022ba052a2c5020bc0543355022be0542345020c00537357b67f8005022c2056d335020c4054d355022c605ff2f8268f8005022c80556315020ca0511355022cc05902d5022ce054b2fd89002826b2801d8ab0cdb320c5022d0055d2fd4870297b801826b700198b33fd4380397b801826b780198b43fd4480897bb0182675801d47b0b7b6b780182675001d478087b687001d437087b686001d427075022d205212bd89b02c99b0988ab01c9bc0c827b8800c92b0b95aaff7b7c90007b7b8800d4bc027b7a9800d49a0bd42b0a840b017b7b587b79800049265001520a68ff28e901956718214927b8064927b0064927a80664793302d405140700000000717b484e019568c0277b97c00633075020d605c06fff3302d80595681821014928a00649289806492888061164893307049568a027492990065020da05966fff82679801817756173f13826898014808403307013309242818330701330924826890010a0d3302dc0595691821281b826890010a0d3302dc0595691821280b3302dc0595691821014929180349291003140700000000b6e2a4af7b972003956820244929080333075020de05276fff82671801817756171f0c8268180148082001330701330904826810010a0d01956a182195ab000382b8d00082b9e00082bad80086770001956b183995bc00017bc890007bc788007bca98007bc9a0009568a03a826790015020e0053370ff826700013300e2050a04826908013302e40528f829826908015022e405f129d4870798aa206f99979820d4a808989920956c1821492c4003492c3803492c3003826a98017bca2803826af8007bca48033a0a6000023a0b680002492c6003492c58037bcaa0037bcb98033a0a7000023a0b780002492c5003492c80037bca900395ca00037bab88007ba9787ba87064c89569a024956a8024956b6024956c40247b876803330733085020e6055c71ff3307826810012896ef492658010182677801977701826b5801d47b0b0182670001aeb7c406826708019777209878209587ff88773293877b68280193875107fa061407ffffffff000000007b6730018267e000977720987920956aff0795aa1101492aa8048267100195ab00047bb79000826718017bb798009568ff079588a1057b6940017bb9a00033075020e805886dff9568ff07958811014928880449288004492870040364893307209568ff0795888105492978045020ea055b6dff33078001027b677801390780010233083fac780b8268780148084001140700000000ffffffff7b6720015022ec05dd2b3307900102837783993308407b6770013300ee050a08826a98013302f00528aa2c826a98015022f005a32c7bca407bc9387bc8307bc7289567ff0795776105956840375020f205d36dff9567ff079577110182775004492638014926f8004926f0004926e80049268801492690014926980182683001d287077b670801330701017b678001826b90018eb7826a98018ea8daa7088267080182698001d89707826c88018ec9dac709d4ab07db78095209ec0595690001829730829838d28707829828ae87d8059569ff07959911014929480482671001959a00047ba730826718017ba7389568ff0795884105826740017ba74033075020f4052f6cff9567ff0795771101492728044927200449271804647a3307209568ff0795882105492a1004025020f605026cff82677801817756173f12826878014808403302f8052892265022f8058f263300fa050a083302fc0528f0255022fc05ed257b970804826790017b970004826788017b97f8039568ff0795880105826780017b97f00333075020fe05a46bff826748019568ff07958811019589000350220006292e9588e104826960017ba9d003502002067b6bff82677801817756173f0c82677801480740019517e08477e07b676001502204062227330006060a08826a600133020806283b2f826a600150220806342f6fa9826868017b6958017b89187b6760017b87107b6b50017b8b087b6c48017b8c9567ff079577c10450200a06006cff9569ff0795991101959a000382a7b80082a8c00082a9b0008477ff8488ff826a2001d2a909d49808d4870751074103956c000182c848958702d8870882ca5050220c06b12a82c860c88a0ad88a0882cb58c8b808956b183195bc00067bc7487bc9507bca587bc8609567ff079577a1049568603750200e06856bff9567ff0795771101827798038477ff005207e1029569ff07959911014929880382671001959a00037ba770826718017ba7789568ff0795888104826740017ba78000330750201006486aff9567ff0795771101492768034927600349275803647a3307209568ff0795886104492a500304502012061b6aff82677801817756173f12826778014807403302140628ab2450221406a824330016060a08826a680133021806286f24826a68015022180668249569ff07959911014929480349294003492938039568ff0795884104826700017b973003330750201a06b569ff826750019568ff0795881101958900037b9728826758017b9720826760017b9718648a3307209568ff0795882104826968017ba9100350201c067869ff82677801817756173f128267780148074033021e0628082450221e060524330020060a08330222062866235022220663237b970803826790017b970003826788017b97f8029568ff0795880104826780017b97f0023307502024061a69ff826748019568ff079588110195890002502226069f2b9588e103826960017ba9d00250202806f168ff82677801817756173f0c82677801480740019517e08477e07b67600150222a06982433002c060a0833022e0628952450222e0692249567ff079577c103502030069f69ff9567ff07957711018277b0028478ff005108fb0084770000ff005207f1009568ff079588110182678001958900027b9750826700017b9770826710017b979000826788017b97588267c0007b9778826718017b979800826790017b97608267c8007b9780008267e0007b97a000826798017b97688267d0007b978800648b9567ff079577a1039568ff07958881039569ff0795996103826ad8007bbaa80250203206d9128267e800956aff0795aa110195ab00027bb7288267f0007bb7208267f8007bb7189567ff07957741039568ff0795882103826938017bb91050203406e90e9568ff0795881101958900028297487b67e8008297407b67f0008297387b67f8008297307b67380101956aff0795aa11018267800195ab00017bb7d000826788017bb7d800826790017bb7e0009567ff07957701039568ff079588e102826998017bb9e800502036067e0e9568ff079588110182870802956900017b979800828700027b9790008287f8017b9788008287f001288efa9569ff07959911014929e0044929d804140700000000d94b11cf7b97e8049568ff079588e1054929d0043307502038060267ff390880010256181f12200380010220330890010228c1df330890010228b9df9569ff07959911014929c0044929b80414070000000059e962787b97c8049568ff079588c1054929b004330750203a06b066ff390880010256181f122003800102203308900102286fdf33089001022867df330782687001280de80a020182171082181814090000000001000000d37909d48909987a2088aa01948a939a510a248219821a087b697b6a087b67107b68189551c0821038821530821628951140320033089001028388330701330933003e060a0d3302400628652a50224006622a3308240a0201821718821810821908d4780a889b0194ab510b0d821a5022420649263200330890010283883307013309330044060a0d3302460628222a502246061f2a330844330048060a0233024a06282e2750224a062b27520b0b50224c060926320033089001028388330701330933004e060a0d3302500628f52850225006f228330052060a023302540628f12650225406ee26520b0b50225606cc253200330890010283883307013309330058060a0d01951110ff7b10e8007b15e0007b16d8009515f0008411f0828c10828b18828a0882887b1a287b1b18d4ab0bd4c80ad4ba0a98aa207b1c20d4cb0b97bb20d4ba0a520af4017b17088297187b17688296108297087b176082977b17589517b0007b181050205a06cb63ff821758d46709821868821a60d4a808d489099899207b1650d46808978820d498085208aa018219c800821ac000821bb8008218b0007b18307b1890007b1b387b1b98007b1a407b1aa000951890007b19487b19a800647650205c06a764ff821768821850d478081407e0ffffff00000000d87609821a6094a9948951095001821820821918d49808821910d87907821a2894a7948751073601646c821630821a40d4a607821848821b38d4b808d48707987720d4a808978820d4870752070f0183c7208398207b1828646850205e067868ff7b17208217286468502060066968ff64788217206469502062061862ff821758c86707d86708821960821b38c8b909502264063025821850821a40c8a808d8a80a821c68821648c86c0cc8ca0ac88b0bd88b08c8a808d4b808140ae0ffffff00000000d8a70a949a948a510a8f00837720492188004921800049117895187049117050206606aa63ff82163095661f1407e0ffffff01000000d26707821858c88707d88708821a60502268066d23821850c88a0ad88a08821b68c8b808957b20d87b07c8790cd89c09da7709c8a909d8a907c887078218087b8b7b8c087b89107b8718955110ff8210e8008215e0008216d8009511f0003200009511a07b10587b15507b16489515608411f0828910828c08828b82881897923f98ca01d42a02978a3f989901d49a0a97cc3f98b901d49c0c98830184bb019ab888b60184c97fd2a804d2280adbbc09d2380b88982094a8d4b40c94c8ab86167b797b7a087b74107b7b1850226a063726320050226c066d1e50206e06ba62ff491118491110490122330704641849110850207006a262ff390880010256183f0b2003800102400133089001028388330701330924330072060a0d33027406289b225022740698228e72883b8085bb01db720bd4a908db8c0b520b2295388000502276068321502078064d62ff955190821068821560951170320050227a06e51d50207c063262ff50227e06be22502080062562ff390880010256183f0b2003800102400133089001028388330701330924330082060a0d33028406281e22502284061b228e72883b60ff85bb01db720bd4a908db8c0b520b229538a00050228606052150208806cf61ff955190821068821560951170320050228a06671d50208c06b461ff50228e06402250209006a761ff390880010256183f0b2003800102400133089001028388330701330924330092060a0d01951170ff7b1088007b1580007b1678951590008411f064728289827408828c088273959a1fd89a00c80c0984aae07b1308c8a303d8a30bc8490ac8ba0ad39a06d89a07da6b07822b18d8c90c828610822210828818da000cc86c0cd86c06c82c09c89707d8c90cd89709c8b808c86808c8c808c8980c8ec88e79dbc809d4c7088ea6db8906520658821808d88308d34a09d84a06da9806d82708d3bc09d8bc0bda980bd32708d49808da860b520b317b13507b1a587b17603307409518507b1c6850209406bb60ff955170ff8210880082158000821678951190003200502296069e23502098069960ff4911284911204911104133070495181049111850209a067f60ff390880010256183f0b200380010240013308900102838833070133092433009c060a0d019511a0fd951900027b90587b95507b9648951560028411e064167b6710828718828910828a0882887b67b0007b6738027b69a8007b6930027b6aa0007b6a28027b6898007b6820029567000233084050209e06cb5eff956800028287187b67188287107b67208287087b672882877b67309567e001956820025020a006cd60ff956b000182b7f80082b8f00082b9e80082bae0007b6790007bb7b8007b6888007bb8b0007b6980007bb9a8009567c0019568a0017b6ab8007bbaa0005020a20666fc826730826818826928d48909826a20d4a708d49808988820d4a909979920d4980852086403956c000182c9d80082cad00082c8c80082cbc0007b6b607bcb80007b68707bc888007b6a687bca9000956880017b69787bc998005020a406395fff826ab80084a70152070101826720826818d487071408e0ffffff00000000826b30d88b08826928949894785108fa0284a800ff83b720826a8000956900017b9a087b98826888007b981095680001826a90007b9a185020a606dd5eff330433033302826768826860d48707826878826970d49808d487078e779777057b67b800018268b800958720d88708c88409d8490ada880ac83a0ad83a08c8820b8268307b68e0007b67c0008267287b67e8008267207b67f0007b69c8008267187b67f8007b6ad0009567e0009568c0007b6bd8005020a806e5fc8267108268187b78188268207b78108268287b78088268307b789551a0fd9517000282705882755082764895116002320082679800956900017b97608267a0007b97688267a8007b9770956860018267b0007b977833075020aa06045eff9517e08477e07b67586471390880010256181f0b200380010220019517e08479e07b69b00064913307900102837783993308200a084926b800330433033302826cb00082c7188268309589207b6950d88908826928c8890a7b6a48d89a0bda880b82c81082c90882ca6f776f886f906fa9826c58649a7bc91864097b6980007bc9107b6890007bc80864797bc7826720c87b0b7b6b40d87b07826818c887077b6738017b6a88007b6998008267608268b800d87807826970d39408d89409da8709826b68d8b307826a78d3a208d8a20ada870ad3b307d48707da790a510a70fe9567400164c87b62b0007b63a8007b64a0005020ac06fd5dff8268508267b800c88707d88708826b488269a000c8b9095022ae06201e826a408268a800c8a808d8a802826c38826ab000c8ac0cc82c0ac88b0bd88b08c8a808d49808d4b709d48909d4b808989920978820d498085208a200956c000182c95882c85082ca4882cb407bcb207bca287bc830956820017bc9385020b0068b5cff826a980095aa0188a70182649000c87404d44a0788770182688000c87803d8830882678800c887078268b800958020d88009826ba000c89b08d8b80bda990b8269a800c89b0bd89b098262b000c8920264497b699000826c587bc90864a97bca7bc310647a7bc7187b6380007b60b800648464b328b6fe009511807b10787b15707b1668951580008411f0829b828a829608828308829410828c10829918828818d363027b1608d863067b1b187b1a10d8ba0a7b1ada2a06d3980ad89800d84c02daa200d34c0bd4ba0adaa600520046c94c0ac99808c92808d86a09c99808c96a0a821908c99309821bc9b909821b18821c10c9bc0b7b7b7b79087b7a107b78189551808210788215708216689511800032004911504911484911403302b206140700000000717b484e019518407b175833075020b406515bff491138491130491120113307049518204911285020b606375bff390880010256183f0b20038001024001330890010283883307013309243300b8060a0d01828a18828b108282088eac8eb9dbac09d4ba0a8e2bdba90b520b30828895891fd88908c828088488018499e0959a20d89a09c8980bd88b08da99084917187b7a7b7b087b781032009511b07b10487b15409515508411f05022ba0662165020bc06af5aff5022be063b1b5020c006a25aff390880010256183f0b20038001024001330890010283883307013309243300c2060a0d019511c0fe7b1038017b1530017b162801951540018411e064760a0c0151074f017b16180a0c64794921f8004921f0004921e800951700019518e0007b19207b19e0005020c40629ff821700017b1740821708017b1738821710017b1730821718017b17289517c0003308405020c606d258ff8217d8007b17588216d0008219c8007b1950821ac0007b1a488218287b1898008218307b1890008218387b1888008218407b1880007b17b8007b16b0007b19a8009517a000951880007b1aa0005020c8063cf8821748821858821950d48909d46708d498089888207b1640d46909979920d49808520884004911784911704911689518608219207b19605020ca067b59ff0a0c01821a48821840821958d498081409e0ffffff00000000d89a09821b5094b99489510944647698772052073c83a72083687b183864685020cc06815dff7a16200183778318200133090a0b01821b4881172001821618821858821940821a50821c38aec70e00330a33093308330b60017b6b7b6a087b69107b68189551c0fe82103801821530018216280195114001320080881409ffffffff00000000aa981c958801888901d4980a88aa014917187b787b79087b7a1032009511b07b10487b15409515508411f05022ce0657145020d006a458ff49111849111049011133070464184911085020d2068c58ff390880010256183f0b20038001024001330890010283883307013309243300d4060a0d019511907b10687b15607b16589515708411f0828a187b1a08829b1882847b14828a08829608829c828310829210c8a609c8c404d8c40cc8c909d36900d86906da0c06c83208821c08c8bc0cd8280bc8cb0bc8680cd88c08c88b00d3a90bd8a90a8218d88406dbba06d83c02821808d3800bd8800adab20ad33c08d4b808db8a0652061f7b747b79087b7c107b701895519082106882156082165895117032005022d606c11a5020d806bc57ff491128491120491110113307049518104911185020da06a257ff390880010256183f0b20038001024001330890010283883307013309243300dc060a0d01828b18828a108283088eb28eacdbb20cd4ba028e39db2c09520948828898a93b97bb05d49b02983b3b97aa05d4ba0a988b3b973305d4b30b978805958c20d88c08c88b09d8b90bda880bc8ab0bd8ab08c828087b7c7b79087b7b107b781832009511b07b10487b15409515508411f05022de06b5125020e0060257ff5022e2068e175020e406f556ff390880010256183f0b20038001024001330890010283883307013309243300e6060a0d01951140ff7b10b8007b15b0007b16a8009515c0008411f0828b10828a18828c0882887b1a287b1c20d4ac0cd4b80ad4ca0a98aa207b1b30d4cb0b97bb20d4ba0a7b1738520af2008297187b17108296108297087b170882977b17951780007b18185020e8062f55ff821210821c088213821788008218980082198000821a9000d3c70bd87c07d89309dbb709d8a607d3280bd88208dab708d36a0ad4ba0adaa9085108950098673b972805d4780298c83b976605d4680898393b97ca05d4a909973a05821718c87a0ad87a0b821c20c8c909c8b909d3c907d8c906da7b06821c30c8c808c88606d8860bd8c808821c28c82c07c88707c8b70795a820d8a80ac8a90bd89b09daaa09c86909d8690ac8a707821a387ba87bab087ba9107ba718955140ff8210b8008215b0008216a8009511c0003200004911704911684911603302ea06140700000000717b484e019518607b177833075020ec067455ff491158491150491140323307049518404911485020ee065a55ff390880010256183f0b20038001024001330890010283883307013309243300f0060a0d01951100f9951a00067ba0f8007ba5f0007ba6e800951500078411e0641682997b692882887b68308278107b68208278087b683882777b6740836720060a0901826238068263300682672806826b20067b6b7868296838958a40db290a687968b8958840db7908958b8000d42309da9b0ad88b0c949c8ecb88a8f000858901dac90b88b4019540ff9ab49accc99c099aa8ef007b64a8008e4a8e0cda0a0c7b68b800888a000185aa018e98db980adbbc0a6474826778d42408d4370bd4b808888801d4a808647a948a5208e9028268b8008588ff00826ca800d4c808d4090bd4b8085108d002826bb80095ba017b6ab00088a801c898087b68a000d4a808888801c8c8087b689000d8c808c808087b6898009ab9ff007b6988009a99800064487b64707b62687b63605020f20682187b6780007b6850826760826868826988005020f40691187b67487b68188268b8009a897f8267788268705020f60678187b67107b68b80082698800889780007b67588267788268705020f8065a18826c58826b9000826a98008269a000d4a909826ab000d4ba0ad49a0a93c77b67a800510a0502826750826918d497078269b800dac907826268642a82638800db370a7b6ab80082678000826948d49707826910dac907826b6064badb370a7b6a800093c87b6888004916588051018267b00095798064b764285020fa06b5177b67507b68188267788268708269b0005020fc069f177b67107b68488268b0009a8980008267608268685020fe06ab17826948d49808826ab00088ab80007b6b48826918dab908826970dba8097b6970826810d48707826850dab807826878dba70864a97b6878826760826868502000074217330c82694893989397826a5895a9ff7b69508ea99599ff7b6948826370826478017b6c7898493f973a01d49a0c974a01826bb80098bb3fd4ba0a7b6a688269487b6c706434d3c903d8c902826b50d8ab0cdb320c978801987a3fd4a8087b6860984a3f977701d47a0a8267b800977701826b800098b83fd4870297b801826b880098b33fd4380397b801826ba80098b43fd4480897bb01826778d47b0b7b6ba80086887b68880086387b68800086277b67b800c9a907d8c707d8a908826260c9290bc98b0bc97b0b99bc3f826758d2c707826868c97804d87808826770c987039478c98a07d88a08c98208826ab0008260a000d40a09889901826b9000d89b02c99b0988ab01c9b000826b9800c92b0b95aaff7b60a0007b6b9800d4b0027b6ab000d49a0bd42b0a84cc017b699000520af2fe2805330c018267a800977701d47c0a01826730aea7ac088267209777209879204926f8058267407b67e0058267387b67e8059568e0057b69a8007b69f0053307502002074e51ff4926d8054926d0054926c005023307209568c0054926c805502004072f51ff3308800102390780010256173f0b200380010240019517e08479e07b69a000649133079001027b675083777b68b00083993308407b67b800330006070a083302080728d60e50220807d30e8267289777209877204926b8054926b0054926a8059568a0057b6790007b67a005330750200a07ba50ff826778956a00057ba79800826780007ba79000826788007ba7880033072095688005826998007ba9800050200c078950ff8268b000818756173f08480840019517e08477e07b67980050220e070b12330010070a0833021207281b1050221207181095676005502014073f51ff806764058268680582697005977720d49808d487075107a907492658058267407b6740058267387b674805956840058267a8007b6750053307502016070d50ff49263805492630054926200504330720956820054926280550201807ee4fff8268b000818756173f08480840019517e08477e07b67a00050221a07701133001c070a08826aa00033021e0728a313826aa00050221e079c137b67a0006f877b6798006f977b6788006fa77b678000492618054926100549260805956800058267307b6700053307502020077f4fff82678000956a00047ba7f800826788007ba7f000826798007ba7e8003307209568e0048269a0007ba9e000502022074d4fff8268b000818756173f08480840019517e08477e07b67a00050222407cf10330026070a0833022807280e0d502228070b0d4926d8044926d0044926c8049568c004826790007b67c004330750202a07fb4eff826778956a00047ba7b800826780007ba7b000826788007ba7a8003307209568a004826998007ba9a00050202c07ca4eff8268b000818755174008480840019517e08477e07b67980050222e074c10330030070a0833023207285c0e50223207590e9567800450203407804fff826880048487ff0051071f067b68980084870000ff0052073906826798047b6758826790047b6760826788047b6768492658048267407b6740048267387b674804956840048267a8007b675004330750203607384eff49263804492630044926200401330720956820044926280450203807194eff8269b000819756173f08480940019517e08477e07b67880050223a079b0f0a08826a880082a782a80882a91082aa186f777b6788006f877b6780006f977b67786fa77b67709518e08488e064818269980086970000018269587b89188269607b89108269687b89087b878267a00050203c070e4fff82689800848700ff007b6798009517e08478e06481826770957701887901826b78c89b0bd4b709889901826a8000c8a909d8a90a826c8800c8ca0a7b8a187b89107b8b087b87956700047b68a00050203e07414eff8262180482631004826a0804826400049518e08488e064813a0c200102c84c0cd84c09c89a079577ffd3a700d8a70bda090b9539ffc89b0bd89b00883901c99209c809097b87087b8c7b8b107b8918826798005107a6013a072801027b679800d8740794a7d4230994975207ce048267a00050204007404eff9517e08478e06481826970959702d8970b826a78c8ba09d8a90adabb0a826b8000c8ba0ad8ba0c826b8800c8cb0b7b8a107b89087b877b8b189567e0037b68a00050204207804dff8262f8038263f003826ae803826be0039518e08488e0648182649800c8b404d8b407c87a09d8a90cda770cc83c0cd83c077b8c103a0c300102c827077b89087b84d8bc0995aa0194a9d2230a95aa0194a97b871852096f048267a00050204407954dff9567c00333084050204607e34aff956b000382b7d80082b8d00082b9c80082bac000502248075e0952072c034926b8034926b0034926a8039568a003826798007b67a00364a77b6ab80050204a07da4bff4926380349263003492628038267307b672003492658034926500349264803826790007b674003492678038267a8007b6770038267387b6768033a073801023a084001023a09480102826a407b6a60037b6798037b6890037b6988033a0750010233082095698003956a6003956b4003956c20037b6780038267b80033005c0728954eff3a072801027b679800d8740794a7d4230994975207c4038267a00050204c079e4cff49265806492650064926480649264006956780029568400650204e07074cff8262980282639002826a8802826b80029518e08488e0648182649800c8b404d8b407c87a09d8a90cda770cc83c0cd83c077b8c103a0c300102c827077b89087b84d8bc0995aa0194a9d2230a95aa0194a97b871852098e034926780649267006492668064926600695676006502050070c4cff502052070d49ff3a08b001037b68a0003a08c001037b6888003a07b801037b6780000a0a826880006f88978920826a88006faa98aa20d4a909988820826aa0006faa330b90010397ac20d4c80898aa203d0aa001033e089801033e0990010349269806492690064926880682689800956900067b9880004826a0068e77fc089a787b98d8007b98d0007b98c8007b98c00097bb2098bb20977723d4b707956880069788209888209569c006979920d4890a826b5097bb2098bb209568a006978820d4b80c3308ff3309ff0a7b67a000956760025020540751ef8267a00052070c0395672002330840502056077948ff956b000282b73882b83082b92882ba2050225807f8065207c60049261802492610024926080295680002826798007b67000264a77b6ab80050205a077449ff4926980149269001492688018267307b6780014926b8014926b0014926a801826790007b67a0014926d8018267a8007b67d0018267387b67c8013a075801023a086001023a09680102826a407b6ac0017b67f8017b68f0017b69e8013a077001023308209569e001956ac001956ba001956c80017b67e0018267b80050205c07334cff955100f9951700068270f8008275f0008276e80095110007320000492610064926080649260006140700000000d94b11cf956800067b671806330750205e07af48ff390880010256181f0b20038001022001330890010283883307013309040a0d014926d0004926c8004926c0001407000000006d53a9a79568c0007b67d800330733007207286448ff4926f0004926e8004926e000140700000000b6e2a4af9568e0007b67f800330733007207283c48ff49267004492668044926600414070000000000f90f56956860047b677804330733007207281448ff4926d0024926c8024926c00233026007140700000000717b484e019568c0027b67d802330750206207eb47ff4926b8024926b0024926a002113307049568a0024926a8023300700728c847ff49261003492608034926000333026407140700000000717b484e01956800037b6718033307502066079f47ff4926f8024926f0024926e002113307049568e0024926e80233007007287c47ff49263001492628014926200133026807140700000000717b484e01956820017b673801330750206a075347ff49261801492610014926000111330704956800014926080133007007283047ff49267001492668014926600133026c07140700000000717b484e01956860017b677801330750206e070747ff49265801492650014926400111330704956840014926480150207007e846ff8267b000817756173f138268b000480840330701330924286e3307013309248268b8000a0d33073300740728304bff49265002492648024926400214070000000018ecb890956840027b6758023307502072079246ff8267b000817756171f138268b00048082033070133090428183307013309048268b8000a0d33073300740728da4aff8268b8000a0d33073300740728ca4aff330750207407c44aff33070150207607ba4aff82970881981082996f77977a206f88988820d48a0a9877206f98978920d497079888209569182132028269400182970881981082996f77977a206f88988820d48a0a9877206f98978920d49707988820956918113202826a680182a71882a81082a90882aa6f777b6760016f877b6758016f977b6750016fa77b6748019517e08477e07b67680164719569ff079599110182679801320282970881981082996f77977a206f88988820d48a0a9877206f98978920d4970798882095691829320282a71882a81082a90882aa6f777b6768016f877b6760016f977b6758016fa77b67500132029517e08477e07b6768016471837933084082677001320282a782a80882a91082aa186f776f886f996faa95ab02d8ab0ac8a90cd89c09daaa09c88909d88908c8870732027b676801c9a007d8c707d8a008826c3801c9c00bc98b0bc97b0b99b03f82673001d2700782684001c97804d87808c989039498c98a077b674801d88a08c98c0895670001827a9800827c9000d4ca09889901827b8000320282970881981082996f7a97a7206f889888203202da980782695001649a649882696001db970a7b6a680182674801826a3001d4a707826a2001daca07826b580164badb970a7b6a60018267700193c77b677001492630018051018267980195798064b73202491130491128491120140700000000717b484e9518207b17383307320264718379330840826770013202826a600182a71882a81082a90882aa6f776f8b6f996faa826868017b8a187b89107b8b087b87320282a71882a81082a90882aa6f776f8b6f996faa32029517e08477e07b67900164718379330840826710013202d8ab0ac8a90cd89c09daaa09c88909d88908c8870732029598017b689801888701c8a7077b679001d48707887701c837077b678001d83707c807077b6788019a98ff007b6860019a89800082674001826838013202826a680182a71882a81082a90882aa6f777b6760016f877b6758016f977b6750016fa77b6748019517e08477e07b67680164713307002032029517e08477e07b67680164718379330840826778013202826a900182a71882a81082a90882aa6f777b6790016f877b6788016f977b6780016fa77b67780133071821c87609320282644001826338014926580149265001956b000182b928939893977bb74882ba3095a9ff7bb9288ea99599ff7bb9203202d88708826a6001c88a09d8a90ada880a82687001c88a0ad88a08826b6801c8b808956b183195bc00053202d49707d48a09d47909989920d48707977720d49707320282a71882a81082a90882aa6f777b6788016f877b6780016f977b6778016fa77b6770019517e08477e03202826a980182a71882a81082a90882aa6f7c7b6c88016f8b7b6b90016f997b6980016fa77b679801320282970881981082996f77977a206f88988820d48a0a9877206f98978920d49707988820956918313202826aa00082a71882a81082a90882aa6f777b6798006f877b6788006f977b6780006fa77b67789517e08477e07b67a00064713202d88708826a9001c88a09d8a90ada880a320282a71882a81082a90882aa6f777b6778016f877b6770016f977b6768016fa77b67600132028269980182970881981082996f77977a206f88988820d48a0a9877206f98978920d497079888203202330b330c8269280193989397826a380195a9ff7b6930018ea99599ff7b6928013202647183793308408267900132029517e08479e07b6998016491320298493f973a01d4a909974a0182646801984b3fd4ba0a7b6a4001826020016437d390033202978801826b480198ba3fd4a8087b683801987a3f97b701d47a0a974701826b600198b83f320282689801826950017b8908826958017b89826970017a8910648a95691831826880013202d8380bc8b70cd87c07dabb07c89707d89709c8a9097b18407b1c487b1750330740c871087b1958320282692801d4980882699801889a80007b6a2801826b2001daab08826b3801db980b7b6b3801320282a71882a81082a90882aa6f776f886f996faa826b98017bba187bb9107bb8087bb7320282a71882a81082a90882aa6f776f886f996faa956b183195bc00063202826a980082a71882a81082a90882aa6f776f8b6f996faa8268a0007b8a187b89107b8b087b873202c88a09d8a90ada880a320295690001829868d8780782981894878298948732027b6a600193b87b686801492638018051018267900195798064c7643832029511907b10687b15609515708411f0827a1882791082738277088eab8e9cdbab0c32027b6a7b69087b68107b67189551c0821038821530821628951140320282a71882a81082a90882aa6f776f886f996faa956b18313202d49808d47808988820d49707977720d4870732024911184911104901413307046418491108320282a8707ba7d8780782a978949782a96894973202d4870782684801daa80782684001db97087b6840018267580182685001320282ab7b1b1882ab087b1b2082ab107b1b2882aa187b1a308296829a087b1a829a107b1a088299187b191032027b6710017b682801826890019a8980008267500182684001320282989800d8780782989000948782986894873202c88909d3b90ad8b90bdaa80b3202826798018177330823320282b73882b84082b93082ba28d49808d4a707d487073202821718821810821908821ad4790bd48a0cd4bc0c98cc20d48b0b97bb20d4cb0b320282692801d49808826a900188ab80007b6b280182691801dab9083202647183793308408267b800320282a71882a81082a90882aa6f776f886f996faa32029517e08477e07b67600164718379330840826778013202956a000182a9980082a7d8790782a89000948782a860948732028267980182692801d4970782691001dab90782634001643a3202c8760a95ab000382b7f80082a8000482b9f00082bae800d49808d4a707d4870732021407a0ffffff000000009569000182989800d8780782989000948732027b6730017b682801826760019579808267400182683801320282688001c88a0ad88a08826b9801c8b808320282c72082c81882c91082cb08d49707d48b09d47909989920d48707977720d4970732027b97e800826750017b97e000826758017b97d800648a3307209568ff0732027b682801826898019a898000826758018268500132029517e08477e07b679001647183793308408267a000320282970881981082996f77977a206f88988820d4a8083202491140491138491130140700000000717b484e9518307b174833073202956c00017bc880007bca9000d48a077bc9787bcb8800d49b08d487073202826898018187107b67700182877b6758018287087b67500132029511c07b10387b15307b16289515408411e06476831733080432029551a082105882155082164895116032027b6748017b68200182674001826838018269980132027b6748017b68680182675801826850018269600132027b6760017b689801826750018268400182696801320282687801818733093f320282b7b80082b8c00082b9b00082baa800d49808d4a707d48707320282a71882a81082a90882aa6f77320282a71882a81082a90882aa6f7c6f8b6f973202837718f9c8760a95ab000132027b6718017b68100182696801889780007b6738013202826a900182608001d40a09889901826b700132029511c07b10387b15307b16289515408411e0647683173202956b00017bb87082b8900082b98800d4890982b8980082ba8000d4a808d498083202849a40520a195109148d9a40cfa80ad09808d09707d4a707320032009597c0d0780733083200849a40520a195109148d9a40d0a70acf9707cf9808d4a808320032009598c0cf87083307320049922425494b2a252da9944c4949490a21a11a4292d210a1925429a42449922449922449922449922449922449922449922449922449922449922449aa9294529294942454a5242549922449922449922449922449922449922449922449499294a4aa24254994a492a42a494149929294a4aa2a494952924a922222222549929224a95029a5244929a524a9a4888828222252922409124a252525458a142952a44891a22445444411119192244949922448282a52a4489122458a142952a4489122458a122922224a920421240ca5496948848888484444342222498424894414890851a81a2242440049528948922491842424499224c950124a42495200a51022184a5aa12a119224841052a14a95464444a48808121142844844694420018104124820010181041248208104121111914624499224482211891111118944240a11114a440821821140041041a8448a4404114922424444445459899424898888884422528888281142902482940822118944225288884422252242904c2248892042624444124922222222220a1111254208924490221141444444444414222222911211214812418a440411111111213122118944222241622492a46444444444444410111189888888460492401211111111115110111211245188848840a84411814852041111111191442292249244121144444444440281884812114422110924024544444444101109222222499224111111115144441091248000129524222222222222884424a924118944221244049028259124222222912411d1489224492089482349222289240951441111812222a22022422282240a21829144a112514444a08a242525499224252288888848249124922449442422494411118188888888241141441011111111111111111111818824898888882012444444049288888888882288282222909424448410221249121111898888884604922812514444221111912022220249448912254a24a948924a44a5882449924a2222491289249248241111118188880844442202111111118844124952922252242a12118944892802910211111188888808442222128948241211818888482549c9248924a22492441249124922492489442412892491249148522289882449922492489244248a444444443422908428a288884044444441448412112451886012854a4411118188888828229148242282888888888888882411914044924444928820124444444444444444443422892290444444444444444144111181a42421228410111149222282a228222222221a914892248124228d8888a42422a2111111955412492a92a412518994442492a49288244989249244121151442010888844040211818888445224252222221a914892248124222222222222222241444444444444a4888888884844208988888888202212400091a8241211454444441011894425918888888820102591888888882092888888888882888850222248a21009118150892222024524128922124444444444442422111111414424114822922412894444228824924412898888888820220920804854129144229188882212412410111111414424129544444444442222222222228804222222220820225194442491888888888808220922222222229124491211111111918888882012412409200144a2944444444444222222221141441049244a49444444222222880802298900128988882022282a9124118d2449924491888888888888888888888888888844444414444428114108114ca250918822220211111151101189444a44045164128128222290449144444414444444448988208a4c2210454404224911444424888888489224491411111111414444124000a924229488888808229244511241898888081241a94444444414111148a2484444440411894824129120229044444444441491888888684420092411894644440492104514118888888288908820894288602451884a44111181284904111191482249244992888888888888882092141111111144141188220291482412519224492491441249322288241244920492888888882882882222024949228410229224898888444444442302491489041111114992240911111141221291888888082222222222224144444444444444444492222288884481242222220a222222228288aa8812491249249124291289441289442280041023912412499224111191202222222222222222222222114822222222888844244a4924222222882490442222220491049248444444104920898888880822928804229288244992244922229148448248920492a44a44444414111148024944a211491248421451442022220a22422282240a21829144212a114544042249114444442289249124492222222222222288248948928820a288401411884422918822229224924822892419114412092222229044444444441144141111484a1221841091244944445014454444444434224992248124228d4892944444492249249254928868444424511291441249124912492491244a922449922451945424a948921045141111888888828808252248a210221849142a114544042249114494242241442412898820922491482412114922828846444454524924a948924a442552122992242a89489224924812494444148140202212110844042222124991948888886844442449a24844444422918848232222221249224912492212492205112342890842886012858a4414092211111111110511232222a244441048261144118148520411111111492489241249221244444424880844444444441031222212448c248924499244121111111144442480001295248088442489244912111111442489529288082282884824892412494424124911912012010490a8246244444444924824828824514aa2882491202211492292882449922449924450540289924434228a489244914810914824124144248a20092144441229484482484424122508444444200804918844224544208818491249449112499248128924912492442291482489248944122949204922894824892292892444114582888888828811a1440449144204912054248a245545241289228a041149a420624428114114194004104114910822222282888888882a924844129148242292954849222222a24810111105111125421045224191a4a2288a248a888888882888888888121141148904514422882425499244444444049148c48848241211110922224924228824492489882241924841242911411489045144228892881444444444442222882291208a0411111111511011111111252282281209a2481041444444101111112a2949221289444444828888884824921492244992242989202912894411414444445248922409494949492288082222492211491211444444444444440411111111118948101111912449928844444414111144442480442511494444444410514422484a12428888888808111111512222222282a2281244222291284110111141100491884422454410448c248924a24889244924894492481249229148249244924422899424489248221249a2886444824824128922222222111189244992888888888828884644248044251149a5242549444444441011118944448288888888884810111111111111111191a48808229114499224111111111151109100225149141189a0884644124992882422499248258988880802082022514a125144444444440491882495242222221244049028251111119120a288441091440a224684121144910124800451442288a2289228624422918814448c4422512222882293a84491a4524a89244504114944041111114992484444444410114444444444041111892491241111111141529224499244229144114144924492244992440431925452922492444482882489888888202222a25224918824922422118944240aa2884ca2124592244924892449a5a89224924424912492244922258924922449945425492489449224114992244931124922912449148944222222a22022892491444a1151652552928888888888888828888828118220890451442288a22892282222918814442412291109826412413412244992144124499224892489888848922449928888888888882012894482282222222222222222124992208948444444049124800820499544222222222282482249249188241109224112114922492282888888888888201224111189444444100992882222222282884444442422222222228288888824499244442291880411232222229148111111444444444444041123222222a2119148a48888202222229120229224499224914492482222224444041141442422499224222222222222a2a0a24822914892442491249248249124228924124922890820016444241249a448249124121189442491882489884424499244241149922449922489888808221291a8241141c4888888244992248908222211499224119188882882489224a52411444422895212111149129144824882480411254a11914824128988088288209248444444444444141111441244444444444422082222898888209220228220221289241211119148242922222288248248221149248924121111114922224a9224918844442412898882244a4112550a45444492aaa28a44d288482211494422118922114922492249922489880822888888489288209248124924128944124924228924914422524a44449448922422221291442449922489a2088a4a444492248924499224499244041189442211494412442411444422920411918824898a4422918824890892244912499288248944920092544422888848241299248924894812894424414424092222114982884844921445229148249148242291c424484a92204912498904118988202249444444440491202222224911114444444424222222228828221144444414448c08252248a2282291201a25a94a102589206224111111414422914844041149922489442291888888882012c4888888884492481211232242041191001240244a11898888888888201289a20820228952442228221a914424884844922489542422222288282211242589444208212292445222918828222282481011c4888828021811051111a14444104564120d25a12494849250124a2222808828081184844444001151104564120d25a124944444001151102208090925a12494849250124a4249280925a12494444400110521829090880820a248280925a124220288280811848444440011454249440410110521829090880820a24828898800220aa2884ca2a12494849250124a22460410110521825028624400115110220885250d25a1249404222222228a4804499224424928092501111111114524822042498c444644440489a054a91111018c288818114a44104564122d2222228a481491288492808888888822124110a1240aa12422121111111111118988888888888844444424492492248988888888882054512420222222a211111149229404114a22221111118988104514910822924841c4885022821021894482508928221144914444444441444444448988208a4824882212414411892052241111c48848924424124912118d8888884a2a8924154952894aa42422114952119124822008822022222282204a1491220882208220882008824412249124924422128904491249442249222211888888684444449208a5502a4591a24810a18848448428a288441091440a448c0825221022446412854a44118920892289888888021111115122221045641241149108224911452482489144442046449224922449121145248224910211932891401491490445928aa2282226894881882291129140149149044549aa929224495212118888881811404414113122808828224692c48888282211442491021123428908441189045124888888281011111125220251442241149108229244442022224604101145442124221249441215880889088408119944212a5144228824890844444444200a11118948c4248088148822922489221240444444222222220211452482888888021123428908245114914904d12849558228490422221149440422124922111111118188221241529288082144448488888888880a14891811404414115144228888882810312294884014914810458288888802119148a44444208a48248822124114312222a2404444449488084411994425a2884410498a4044448888110144441111118988442291888848442412894444442222221a111111955412492a92a412954849442292a488241104411004111111110451a28814411004110441044110249220892491241291482448924822124912118988280218512062442811812822494914511451c4880022a240149149342222222222222210514422484a12111111114244440811119114111115281223911191244511404412111111111151202222948808840849640011844a44118920492222101111111111898c284a44a2241149121111914844a440444494881088221209a248101111111105222282880844119944104524822212894411818888882492442449902489489288084444444444241211512022224a440844118904514422888888888802111189444a4444208a4824882241444444441488880822221045641241140922021111114444442211914844242222125144444444101191482422221244442291488c88888888888888202222222222111101444414081184844444041011512044101252a44900495229254992144a5124489324a5a0508a2241a24890a0508a2241140912144ad188884892922449924892a4440249922449222222914844a2409200928a24492a4a92244912490a24054a812449822449922409201589481248024892044992244992942422229a244952922449929424494a2949501048921208110c255124284992080249521008022182a1248a044592248240921404824088602889464422959424499224499224499224959424499224499224094444a22090449240886028894624899424454444444402912449890844444444444444449024499224222222914844221089240124a98844a44844025592242931922449129148442222224892242922491491482422059214229844a15254912449922455a514895492241991489224499224a2880824924482449248922449928824491209441249228944124922891449a544542649a492244992a424499224499294242549922849043029904492408860288926a9a4a42449922425254982401008110c25d18888488d54444424824824128904221189241289444444449024499224922409344902482a252905a2a88924495659928888a8009224292949120492a40442044349344992249594244992244992a424499224254992140492481208110c25d12495949424499224499294a424491008022182a1241a1111495292244992489254249014119124499224922449922449922449922449922425898888268900260592481208110c25d1888888544a92946844442aa9249254244925a21291929224a988882411892492441211519220924490449220119124484424922292445224224952a20822152449044944122411499224495292a0549292649224922425499224492492449248924451144992244992a4241149244924118924113592892491484444818890884008114ca290a244140992444444144844444422221045261144912002119124229188880211211181283289208a48045114454444a2404444442422025164124114092222220a24222222111188229308a24810818888202291482412115120222422104526111425298a529222244952042244529224892492a488404444524892244992a42422444a1181a424491249242911818888a44892240949494989084402111111444444441188884444444444228490888890888888881029450422222202111149912449129292921211111108840811a228519228240921444444441411912491449224926444101109449204111111510422221111111191082124222224222222101111d1880820a24088602869440410514444041051444404105144444400230a4484444444440430a24044484444444400230a4484444444440430a240444844208a4852121511110144148822929444454445144820a994a4245124959294248a2415455124514494544a529228494551142551894a529524495224892489449212494424515229252a12118944892802914a1240529528925415492a4955255189922449892492441211115124a9288a2289a2242a5124a9288a22524444a492a4a44492482211254992925414459114492a8aa228a994a4245124a9288a9244259294a4a2288a22a994a4245554244a548992a8248924a2944822492245248a145192244992a4484444225192aa224925a92aa248525524a9244592aa2802912a4992944a25499294a4aa28499292a4949252894422a292244929498a88882812a592a428254992929424498a4444a44a94a4aa92a84411254a45241295888848520011898a88441449a424499224454444892222a2242a51522929490049454412499128122549522949524444141111454444518a884852922a4955912822228a48a22449aa484422929224492aa92449924a0a00"},"methodIdentifiers":{"STAKE_PER_DAY()":"4a91f7ae","archiveHabit(uint32)":"b650673a","checkIn(uint32,uint64)":"a0145927","claim(uint256)":"379607f5","createHabit(string)":"b683ace1","dailyStatuses(address,uint64,uint32)":"88b21c87","deposit()":"d0e30db0","epochNow()":"222ae786","getActiveHabits(address)":"4bba7e7f","getUserState(address)":"416ae768","habits(address,uint32)":"99626634","prepareDay(uint64)":"48cc36b8","redepositFromClaimable(uint256)":"8f23d36c","settle(address,uint64,uint32)":"9c14eb6e","settleAll(address,uint64,uint32)":"45123cce","totalTreasuryReceived()":"badf162d","treasury()":"61d027b3","userHabitCounters(address)":"0e08454a","userStates(address)":"0ecc535f","withdraw(uint256)":"2e1a7d4d"}},"hash":"1cc754e7ab9a481ce56fb225417a85d3a68ae2ea580c5ac6b8cd73cc86ab124e","factoryDependencies":{}}}}