{"contracts/HabitTracker.sol":{"HabitTracker":{"abi":[{"inputs":[{"internalType":"address","name":"_treasury","type":"address"}],"stateMutability":"nonpayable","type":"constructor"},{"inputs":[],"name":"AlreadyCheckedIn","type":"error"},{"inputs":[],"name":"AlreadySettled","type":"error"},{"inputs":[],"name":"CannotSettleCurrentDay","type":"error"},{"inputs":[],"name":"DayNotFunded","type":"error"},{"inputs":[],"name":"HabitAlreadyArchived","type":"error"},{"inputs":[],"name":"HabitNotFound","type":"error"},{"inputs":[],"name":"HabitTextTooLong","type":"error"},{"inputs":[],"name":"InsufficientBalance","type":"error"},{"inputs":[],"name":"InvalidAmount","type":"error"},{"inputs":[],"name":"InvalidBatchSize","type":"error"},{"inputs":[],"name":"InvalidEpoch","type":"error"},{"inputs":[],"name":"InvalidTreasury","type":"error"},{"inputs":[],"name":"NotHabitOwner","type":"error"},{"inputs":[],"name":"TransferFailed","type":"error"},{"anonymous":false,"inputs":[{"indexed":true,"internalType":"address","name":"user","type":"address"},{"indexed":true,"internalType":"uint32","name":"habitId","type":"uint32"},{"indexed":true,"internalType":"uint64","name":"epoch","type":"uint64"}],"name":"CheckedIn","type":"event"},{"anonymous":false,"inputs":[{"indexed":true,"internalType":"address","name":"user","type":"address"},{"indexed":false,"internalType":"uint256","name":"amount","type":"uint256"}],"name":"Claimed","type":"event"},{"anonymous":false,"inputs":[{"indexed":true,"internalType":"address","name":"user","type":"address"},{"indexed":true,"internalType":"uint64","name":"epoch","type":"uint64"},{"indexed":false,"internalType":"uint32","name":"fundedCount","type":"uint32"},{"indexed":false,"internalType":"uint32","name":"insufficientCount","type":"uint32"}],"name":"DayPrepared","type":"event"},{"anonymous":false,"inputs":[{"indexed":true,"internalType":"address","name":"user","type":"address"},{"indexed":false,"internalType":"uint256","name":"amount","type":"uint256"}],"name":"Deposited","type":"event"},{"anonymous":false,"inputs":[{"indexed":true,"internalType":"address","name":"user","type":"address"},{"indexed":true,"internalType":"uint32","name":"habitId","type":"uint32"}],"name":"HabitArchived","type":"event"},{"anonymous":false,"inputs":[{"indexed":true,"internalType":"address","name":"user","type":"address"},{"indexed":true,"internalType":"uint32","name":"habitId","type":"uint32"},{"indexed":false,"internalType":"string","name":"text","type":"string"}],"name":"HabitCreated","type":"event"},{"anonymous":false,"inputs":[{"indexed":true,"internalType":"address","name":"user","type":"address"},{"indexed":false,"internalType":"uint256","name":"amount","type":"uint256"}],"name":"RedepositedFromClaimable","type":"event"},{"anonymous":false,"inputs":[{"indexed":true,"internalType":"address","name":"user","type":"address"},{"indexed":true,"internalType":"uint32","name":"habitId","type":"uint32"},{"indexed":true,"internalType":"uint64","name":"epoch","type":"uint64"},{"indexed":false,"internalType":"uint256","name":"slashed","type":"uint256"}],"name":"SettledFail","type":"event"},{"anonymous":false,"inputs":[{"indexed":true,"internalType":"address","name":"user","type":"address"},{"indexed":true,"internalType":"uint32","name":"habitId","type":"uint32"},{"indexed":true,"internalType":"uint64","name":"epoch","type":"uint64"},{"indexed":false,"internalType":"uint256","name":"reward","type":"uint256"}],"name":"SettledSuccess","type":"event"},{"anonymous":false,"inputs":[{"indexed":true,"internalType":"address","name":"user","type":"address"},{"indexed":false,"internalType":"uint256","name":"amount","type":"uint256"}],"name":"Withdrawn","type":"event"},{"inputs":[],"name":"STAKE_PER_DAY","outputs":[{"internalType":"uint128","name":"","type":"uint128"}],"stateMutability":"view","type":"function"},{"inputs":[{"internalType":"uint32","name":"habitId","type":"uint32"}],"name":"archiveHabit","outputs":[],"stateMutability":"nonpayable","type":"function"},{"inputs":[{"internalType":"uint32","name":"habitId","type":"uint32"},{"internalType":"uint64","name":"epoch","type":"uint64"}],"name":"checkIn","outputs":[],"stateMutability":"nonpayable","type":"function"},{"inputs":[{"internalType":"uint128","name":"amount","type":"uint128"}],"name":"claim","outputs":[],"stateMutability":"nonpayable","type":"function"},{"inputs":[{"internalType":"string","name":"text","type":"string"}],"name":"createHabit","outputs":[{"internalType":"uint32","name":"","type":"uint32"}],"stateMutability":"nonpayable","type":"function"},{"inputs":[{"internalType":"address","name":"","type":"address"},{"internalType":"uint64","name":"","type":"uint64"},{"internalType":"uint32","name":"","type":"uint32"}],"name":"dailyStatuses","outputs":[{"internalType":"uint8","name":"flags","type":"uint8"}],"stateMutability":"view","type":"function"},{"inputs":[],"name":"deposit","outputs":[],"stateMutability":"payable","type":"function"},{"inputs":[],"name":"epochNow","outputs":[{"internalType":"uint64","name":"","type":"uint64"}],"stateMutability":"view","type":"function"},{"inputs":[{"internalType":"address","name":"user","type":"address"},{"internalType":"uint64","name":"startEpoch","type":"uint64"},{"internalType":"uint32","name":"maxSettlements","type":"uint32"}],"name":"forceSettleAllEpochs","outputs":[],"stateMutability":"nonpayable","type":"function"},{"inputs":[{"internalType":"address","name":"","type":"address"},{"internalType":"uint32","name":"","type":"uint32"}],"name":"habits","outputs":[{"internalType":"uint32","name":"id","type":"uint32"},{"internalType":"address","name":"owner","type":"address"},{"internalType":"string","name":"text","type":"string"},{"internalType":"uint64","name":"createdAtEpoch","type":"uint64"},{"internalType":"bool","name":"archived","type":"bool"}],"stateMutability":"view","type":"function"},{"inputs":[{"internalType":"uint64","name":"epoch","type":"uint64"}],"name":"prepareDay","outputs":[],"stateMutability":"nonpayable","type":"function"},{"inputs":[{"internalType":"uint128","name":"amount","type":"uint128"}],"name":"redepositFromClaimable","outputs":[],"stateMutability":"nonpayable","type":"function"},{"inputs":[{"internalType":"address","name":"user","type":"address"},{"internalType":"uint64","name":"epoch","type":"uint64"},{"internalType":"uint32","name":"habitId","type":"uint32"}],"name":"settle","outputs":[],"stateMutability":"nonpayable","type":"function"},{"inputs":[{"internalType":"address","name":"user","type":"address"},{"internalType":"uint64","name":"epoch","type":"uint64"},{"internalType":"uint32","name":"maxCount","type":"uint32"}],"name":"settleAll","outputs":[],"stateMutability":"nonpayable","type":"function"},{"inputs":[],"name":"treasury","outputs":[{"internalType":"address","name":"","type":"address"}],"stateMutability":"view","type":"function"},{"inputs":[{"internalType":"address","name":"","type":"address"}],"name":"userHabitCounters","outputs":[{"internalType":"uint32","name":"","type":"uint32"}],"stateMutability":"view","type":"function"},{"inputs":[{"internalType":"address","name":"","type":"address"}],"name":"userStates","outputs":[{"internalType":"uint128","name":"depositBalance","type":"uint128"},{"internalType":"uint128","name":"blockedBalance","type":"uint128"},{"internalType":"uint128","name":"claimableBalance","type":"uint128"},{"internalType":"uint32","name":"activeHabitCount","type":"uint32"}],"stateMutability":"view","type":"function"},{"inputs":[{"internalType":"uint128","name":"amount","type":"uint128"}],"name":"withdraw","outputs":[],"stateMutability":"nonpayable","type":"function"}],"evm":{"assembly":"// RO data = 0/0 bytes\n// RW data = 364/65984 bytes\n// Stack size = 32768 bytes\n\n// Instructions = 11990\n// Code size = 42216 bytes\n\n      : @0 (gas: 1)\n     0: jump @14 if a0 == a1\n      : @1 (gas: 9)\n     3: a3 = a1 << 0x20\n     6: a3 = a3 >> 0x20\n     9: a4 = a0 << 0x20\n    12: a4 = a4 >> 0x20\n    15: a4 = a4 + a2\n    18: a3 = a3 - a4\n    21: a4 = a2 << 0x1\n    24: a4 = -a4\n    26: jump @7 if a4 >=u a3\n      : @2 (gas: 1)\n    29: jump @11 if a0 >=u a1\n      : @3 (gas: 1)\n    32: jump @14 if a2 == 0\n      : @4 (gas: 3)\n    35: a2 = a2 + a0\n    38: a3 = a0\n    40: fallthrough\n      : @5 (gas: 6)\n    41: a4 = u8 [a1]\n    43: a1 = a1 + 0x1\n    46: a5 = a3 + 0x1\n    49: u8 [a3] = a4\n    51: a3 = a5\n    53: jump @5 if a5 != a2\n      : @6 (gas: 1)\n    56: jump @14\n      : @7 (gas: 1)\n    58: jump @14 if a2 == 0\n      : @8 (gas: 3)\n    61: a2 = a2 + a0\n    64: a3 = a0\n    66: fallthrough\n      : @9 (gas: 6)\n    67: a4 = u8 [a1]\n    69: a1 = a1 + 0x1\n    72: a5 = a3 + 0x1\n    75: u8 [a3] = a4\n    77: a3 = a5\n    79: jump @9 if a5 != a2\n      : @10 (gas: 1)\n    82: jump @14\n      : @11 (gas: 1)\n    84: jump @14 if a2 == 0\n      : @12 (gas: 2)\n    87: i32 a3 = a2 + 0xffffffffffffffff\n    90: fallthrough\n      : @13 (gas: 7)\n    91: a4 = a1 + a3\n    94: a4 = u8 [a4]\n    96: a2 = a2 + 0xffffffffffffffff\n    99: a5 = a0 + a3\n   102: u8 [a5] = a4\n   104: i32 a3 = a3 + 0xffffffffffffffff\n   107: jump @13 if a2 != 0\n      : @14 (gas: 1)\n   110: ret\n      : @15 (gas: 7)\n   112: sp = sp + 0xffffffffffffffe8\n   115: u64 [sp + 0x10] = ra\n   118: u64 [sp + 0x8] = s0\n   121: u64 [sp] = s1\n   123: s1 = 0x20168\n   128: s0 = i32 [0x20168]\n   133: jump @18 if s0 == 0\n      : @16 (gas: 5)\n   136: a0 = 0x301a0\n   141: i32 a0 = a0 + 0\n   143: i32 a1 = s1 + 0\n   145: ecalli 6 // 'get_immutable_data'\n   147: fallthrough\n      : @17 (gas: 3)\n   148: a0 = i32 [0x20168]\n   153: u32 [0x20168] = 0\n   158: jump @19 if a0 <u s0\n      : @18 (gas: 5)\n   161: ra = u64 [sp + 0x10]\n   164: s0 = u64 [sp + 0x8]\n   167: s1 = u64 [sp]\n   169: sp = sp + 0x18\n   172: ret\n      : @19 (gas: 1)\n   174: trap\n      : @20 (gas: 2)\n   175: a1 = i32 [0x20168]\n   180: jump @72 if a1 == 0\n      : @21 (gas: 4)\n   184: a0 = 0x301a0\n   189: i32 a0 = a0 + 0\n   191: ecalli 14 // 'set_immutable_data'\n   193: jump @72\n      : @22 (gas: 8)\n   196: sp = sp + 0xfffffffffffffff0\n   199: u64 [sp + 0x8] = ra\n   202: u64 [sp] = s0\n   204: a2 = a1\n   206: s0 = a0\n   208: a1 = 0x20\n   211: a0 = a2\n   213: ra = 2, jump @39\n      : @23 [@dyn 1] (gas: 100)\n   218: a1 = u8 [a0 + 0x1]\n   221: a2 = u8 [a0]\n   223: a3 = u8 [a0 + 0x2]\n   226: a4 = u8 [a0 + 0x3]\n   229: a1 = a1 << 0x8\n   232: a1 = a1 | a2\n   235: a3 = a3 << 0x10\n   238: a4 = a4 << 0x18\n   241: a3 = a3 | a4\n   244: a1 = a1 | a3\n   247: a2 = u8 [a0 + 0x5]\n   250: a3 = u8 [a0 + 0x4]\n   253: a4 = u8 [a0 + 0x6]\n   256: a5 = u8 [a0 + 0x7]\n   259: a2 = a2 << 0x8\n   262: a2 = a2 | a3\n   265: a4 = a4 << 0x10\n   268: a5 = a5 << 0x18\n   271: a4 = a4 | a5\n   274: a2 = a2 | a4\n   277: a2 = a2 << 0x20\n   280: t0 = a2 | a1\n   283: a2 = u8 [a0 + 0x9]\n   286: a3 = u8 [a0 + 0x8]\n   289: a4 = u8 [a0 + 0xa]\n   292: a5 = u8 [a0 + 0xb]\n   295: a2 = a2 << 0x8\n   298: a2 = a2 | a3\n   301: a4 = a4 << 0x10\n   304: a5 = a5 << 0x18\n   307: a4 = a4 | a5\n   310: a2 = a2 | a4\n   313: a3 = u8 [a0 + 0xd]\n   316: a4 = u8 [a0 + 0xc]\n   319: a5 = u8 [a0 + 0xe]\n   322: a1 = u8 [a0 + 0xf]\n   325: a3 = a3 << 0x8\n   328: a3 = a3 | a4\n   331: a5 = a5 << 0x10\n   334: a1 = a1 << 0x18\n   337: a1 = a1 | a5\n   340: a1 = a1 | a3\n   343: a1 = a1 << 0x20\n   346: t1 = a1 | a2\n   349: a1 = u8 [a0 + 0x11]\n   352: a3 = u8 [a0 + 0x10]\n   355: a4 = u8 [a0 + 0x12]\n   358: a5 = u8 [a0 + 0x13]\n   361: a1 = a1 << 0x8\n   364: a1 = a1 | a3\n   367: a4 = a4 << 0x10\n   370: a5 = a5 << 0x18\n   373: a4 = a4 | a5\n   376: a1 = a1 | a4\n   379: a3 = u8 [a0 + 0x15]\n   382: a4 = u8 [a0 + 0x14]\n   385: a5 = u8 [a0 + 0x16]\n   388: a2 = u8 [a0 + 0x17]\n   391: a3 = a3 << 0x8\n   394: a3 = a3 | a4\n   397: a5 = a5 << 0x10\n   400: a2 = a2 << 0x18\n   403: a2 = a2 | a5\n   406: a2 = a2 | a3\n   409: a2 = a2 << 0x20\n   412: a3 = a2 | a1\n   415: a1 = u8 [a0 + 0x19]\n   418: a2 = u8 [a0 + 0x18]\n   421: a4 = u8 [a0 + 0x1a]\n   424: a5 = u8 [a0 + 0x1b]\n   427: a1 = a1 << 0x8\n   430: a1 = a1 | a2\n   433: a4 = a4 << 0x10\n   436: a5 = a5 << 0x18\n   439: a4 = a4 | a5\n   442: a1 = a1 | a4\n   445: a2 = u8 [a0 + 0x1d]\n   448: a4 = u8 [a0 + 0x1c]\n   451: a5 = u8 [a0 + 0x1e]\n   454: a0 = u8 [a0 + 0x1f]\n   457: a2 = a2 << 0x8\n   460: a2 = a2 | a4\n   463: a5 = a5 << 0x10\n   466: a0 = a0 << 0x18\n   469: a0 = a0 | a5\n   472: a0 = a0 | a2\n   475: a0 = a0 << 0x20\n   478: a0 = a0 | a1\n   481: a0 = reverse a0\n   483: a1 = reverse a3\n   485: a2 = reverse t1\n   487: a3 = reverse t0\n   489: u64 [s0 + 0x18] = a3\n   492: u64 [s0 + 0x10] = a2\n   495: u64 [s0 + 0x8] = a1\n   498: u64 [s0] = a0\n   500: ra = u64 [sp + 0x8]\n   503: s0 = u64 [sp]\n   505: sp = sp + 0x10\n   508: ret\n      : @24 (gas: 12)\n   510: sp = sp + 0xffffffffffffffd8\n   513: u64 [sp + 0x20] = ra\n   516: u64 [sp + 0x18] = s0\n   519: u64 [sp + 0x10] = s1\n   522: a2 = u64 [a1]\n   524: u64 [sp + 0x8] = a2\n   527: a2 = u64 [a1 + 0x8]\n   530: u64 [sp] = a2\n   532: s0 = u64 [a1 + 0x10]\n   535: s1 = u64 [a1 + 0x18]\n   538: a1 = 0x20\n   541: ra = 4, jump @39\n      : @25 [@dyn 2] (gas: 71)\n   546: a1 = reverse s1\n   548: a2 = reverse s0\n   550: a3 = u64 [sp]\n   552: a3 = reverse a3\n   554: a4 = u64 [sp + 0x8]\n   557: a4 = reverse a4\n   559: u8 [a0 + 0x18] = a4\n   562: u8 [a0 + 0x10] = a3\n   565: u8 [a0 + 0x8] = a2\n   568: u8 [a0] = a1\n   570: a5 = a4 >> 0x38\n   573: u8 [a0 + 0x1f] = a5\n   576: a5 = a4 >> 0x30\n   579: u8 [a0 + 0x1e] = a5\n   582: a5 = a4 >> 0x28\n   585: u8 [a0 + 0x1d] = a5\n   588: a5 = a4 >> 0x20\n   591: u8 [a0 + 0x1c] = a5\n   594: a5 = a4 >> 0x18\n   597: u8 [a0 + 0x1b] = a5\n   600: a5 = a4 >> 0x10\n   603: u8 [a0 + 0x1a] = a5\n   606: a4 = a4 >> 0x8\n   609: u8 [a0 + 0x19] = a4\n   612: a4 = a3 >> 0x38\n   615: u8 [a0 + 0x17] = a4\n   618: a4 = a3 >> 0x30\n   621: u8 [a0 + 0x16] = a4\n   624: a4 = a3 >> 0x28\n   627: u8 [a0 + 0x15] = a4\n   630: a4 = a3 >> 0x20\n   633: u8 [a0 + 0x14] = a4\n   636: a4 = a3 >> 0x18\n   639: u8 [a0 + 0x13] = a4\n   642: a4 = a3 >> 0x10\n   645: u8 [a0 + 0x12] = a4\n   648: a3 = a3 >> 0x8\n   651: u8 [a0 + 0x11] = a3\n   654: a3 = a2 >> 0x38\n   657: u8 [a0 + 0xf] = a3\n   660: a3 = a2 >> 0x30\n   663: u8 [a0 + 0xe] = a3\n   666: a3 = a2 >> 0x28\n   669: u8 [a0 + 0xd] = a3\n   672: a3 = a2 >> 0x20\n   675: u8 [a0 + 0xc] = a3\n   678: a3 = a2 >> 0x18\n   681: u8 [a0 + 0xb] = a3\n   684: a3 = a2 >> 0x10\n   687: u8 [a0 + 0xa] = a3\n   690: a2 = a2 >> 0x8\n   693: u8 [a0 + 0x9] = a2\n   696: a2 = a1 >> 0x38\n   699: u8 [a0 + 0x7] = a2\n   702: a2 = a1 >> 0x30\n   705: u8 [a0 + 0x6] = a2\n   708: a2 = a1 >> 0x28\n   711: u8 [a0 + 0x5] = a2\n   714: a2 = a1 >> 0x20\n   717: u8 [a0 + 0x4] = a2\n   720: a2 = a1 >> 0x18\n   723: u8 [a0 + 0x3] = a2\n   726: a2 = a1 >> 0x10\n   729: u8 [a0 + 0x2] = a2\n   732: a1 = a1 >> 0x8\n   735: u8 [a0 + 0x1] = a1\n   738: ra = u64 [sp + 0x20]\n   741: s0 = u64 [sp + 0x18]\n   744: s1 = u64 [sp + 0x10]\n   747: sp = sp + 0x28\n   750: ret\n      : @26 (gas: 32)\n   752: sp = sp + 0xffffffffffffffa0\n   755: u64 [sp + 0x58] = ra\n   758: u64 [sp + 0x50] = s0\n   761: u64 [sp + 0x48] = s1\n   764: s0 = sp + 0x60\n   767: sp = sp & 0xffffffffffffffe0\n   770: s1 = a0\n   772: a0 = u64 [a1 + 0x18]\n   775: a2 = u64 [a1 + 0x10]\n   778: a3 = u64 [a1 + 0x8]\n   781: a1 = u64 [a1]\n   783: a0 = reverse a0\n   785: a2 = reverse a2\n   787: a3 = reverse a3\n   789: a1 = reverse a1\n   791: u64 [sp + 0x18] = a1\n   794: u64 [sp + 0x10] = a3\n   797: u64 [sp + 0x8] = a2\n   800: u64 [sp] = a0\n   802: u64 [sp + 56] = 0\n   805: u64 [sp + 48] = 0\n   808: u64 [sp + 40] = 0\n   811: u64 [sp + 32] = 0\n   814: u32 [sp + 64] = 0x20\n   818: i32 a1 = sp + 0\n   820: i32 a3 = sp + 0x20\n   823: i32 a4 = sp + 0x40\n   826: a2 = 0xffffffffffffffff\n   829: a0 = 0\n   831: ra = 0x6\n   834: ecalli 7 // 'get_storage'\n   836: fallthrough\n      : @27 [@dyn 3] (gas: 5)\n   837: a0 = u64 [sp + 0x38]\n   840: a1 = u64 [sp + 0x30]\n   843: a2 = u64 [sp + 0x28]\n   846: a3 = u64 [sp + 0x20]\n   849: t0 = 8, jump @1526\n      : @28 [@dyn 4] (gas: 5)\n   855: u64 [s1 + 0x18] = a3\n   858: u64 [s1 + 0x10] = a2\n   861: u64 [s1 + 0x8] = a1\n   864: u64 [s1] = a0\n   866: t0 = 10, jump @1571\n      : @29 [@dyn 5] (gas: 1)\n   872: ret\n      : @30 (gas: 40)\n   874: sp = sp + 0xffffffffffffffa0\n   877: u64 [sp + 0x58] = ra\n   880: u64 [sp + 0x50] = s0\n   883: s0 = sp + 0x60\n   886: sp = sp & 0xffffffffffffffe0\n   889: t0 = u64 [a0]\n   891: a3 = u64 [a0 + 0x8]\n   894: a4 = u64 [a0 + 0x10]\n   897: a0 = u64 [a0 + 0x18]\n   900: t1 = u64 [a1]\n   902: a2 = u64 [a1 + 0x8]\n   905: a5 = u64 [a1 + 0x10]\n   908: a1 = u64 [a1 + 0x18]\n   911: t2 = reverse a0\n   913: a4 = reverse a4\n   915: a3 = reverse a3\n   917: a0 = reverse t0\n   919: t0 = reverse a1\n   921: a5 = reverse a5\n   923: a2 = reverse a2\n   925: a1 = reverse t1\n   927: u64 [sp + 0x18] = a0\n   930: u64 [sp + 0x10] = a3\n   933: u64 [sp + 0x8] = a4\n   936: u64 [sp] = t2\n   938: u64 [sp + 0x38] = a1\n   941: u64 [sp + 0x30] = a2\n   944: u64 [sp + 0x28] = a5\n   947: u64 [sp + 0x20] = t0\n   950: i32 a1 = sp + 0\n   952: i32 a3 = sp + 0x20\n   955: a2 = 0xffffffffffffffff\n   958: a4 = 0x20\n   961: a0 = 0\n   963: ecalli 15 // 'set_storage'\n   965: sp = s0 + 0xffffffffffffffa0\n   968: ra = u64 [sp + 0x58]\n   971: s0 = u64 [sp + 0x50]\n   974: sp = sp + 0x60\n   977: ret\n      : @31 (gas: 24)\n   979: sp = sp + 0xffffffffffffff60\n   983: u64 [sp + 0x98] = ra\n   987: u64 [sp + 0x90] = s0\n   991: u64 [sp + 0x88] = s1\n   995: s0 = sp + 0xa0\n   999: sp = sp & 0xffffffffffffffe0\n  1002: a4 = u64 [a3]\n  1004: u64 [sp + 0x38] = a4\n  1007: a4 = u64 [a3 + 0x8]\n  1010: u64 [sp + 0x30] = a4\n  1013: a4 = u64 [a3 + 0x10]\n  1016: u64 [sp + 0x28] = a4\n  1019: a3 = u64 [a3 + 0x18]\n  1022: u64 [sp + 0x20] = a3\n  1025: a3 = u64 [a2]\n  1027: u64 [sp + 0x18] = a3\n  1030: a3 = u64 [a2 + 0x8]\n  1033: u64 [sp + 0x10] = a3\n  1036: a3 = u64 [a2 + 0x10]\n  1039: u64 [sp + 0x8] = a3\n  1042: a2 = u64 [a2 + 0x18]\n  1045: u64 [sp] = a2\n  1047: s1 = a1\n  1049: ra = 12, jump @39\n      : @32 [@dyn 6] (gas: 35)\n  1054: a1 = u64 [sp]\n  1056: a1 = reverse a1\n  1058: a2 = u64 [sp + 0x8]\n  1061: a2 = reverse a2\n  1063: a3 = u64 [sp + 0x10]\n  1066: a3 = reverse a3\n  1068: a4 = u64 [sp + 0x18]\n  1071: a4 = reverse a4\n  1073: u64 [sp + 0x58] = a4\n  1076: u64 [sp + 0x50] = a3\n  1079: u64 [sp + 0x48] = a2\n  1082: u64 [sp + 0x40] = a1\n  1085: a1 = u64 [sp + 0x20]\n  1088: a1 = reverse a1\n  1090: a2 = u64 [sp + 0x28]\n  1093: a2 = reverse a2\n  1095: a3 = u64 [sp + 0x30]\n  1098: a3 = reverse a3\n  1100: a4 = u64 [sp + 0x38]\n  1103: a4 = reverse a4\n  1105: u64 [sp + 0x78] = a4\n  1108: u64 [sp + 0x70] = a3\n  1111: u64 [sp + 0x68] = a2\n  1114: u64 [sp + 0x60] = a1\n  1117: i32 a2 = a0 + 0\n  1119: i32 a3 = s1 + 0\n  1121: i32 a0 = sp + 0x40\n  1124: a1 = 0x2\n  1127: ecalli 5 // 'deposit_event'\n  1129: sp = s0 + 0xffffffffffffff60\n  1133: ra = u64 [sp + 0x98]\n  1137: s0 = u64 [sp + 0x90]\n  1141: s1 = u64 [sp + 0x88]\n  1145: sp = sp + 0xa0\n  1149: ret\n      : @33 (gas: 15)\n  1151: sp = sp + 0xffffffffffffff20\n  1155: u64 [sp + 0xd8] = ra\n  1159: u64 [sp + 0xd0] = s0\n  1163: u64 [sp + 0xc8] = s1\n  1167: s0 = sp + 0xe0\n  1171: sp = sp & 0xffffffffffffffe0\n  1174: a5 = u64 [a4]\n  1176: u64 [sp + 0x40] = a5\n  1179: a5 = u64 [a4 + 0x8]\n  1182: u64 [sp + 0x48] = a5\n  1185: a5 = u64 [a4 + 0x10]\n  1188: u64 [sp + 0x50] = a5\n  1191: a4 = u64 [a4 + 0x18]\n  1194: u64 [sp + 0x58] = a4\n  1197: t0 = 14, jump @1549\n      : @34 [@dyn 7] (gas: 2)\n  1203: u64 [sp + 0x38] = a1\n  1206: ra = 16, jump @39\n      : @35 [@dyn 8] (gas: 46)\n  1211: a1 = reverse s1\n  1213: u64 [sp + 0x78] = a1\n  1216: a1 = u64 [sp]\n  1218: a1 = reverse a1\n  1220: u64 [sp + 0x70] = a1\n  1223: a1 = u64 [sp + 0x8]\n  1226: a1 = reverse a1\n  1228: u64 [sp + 0x68] = a1\n  1231: a1 = u64 [sp + 0x10]\n  1234: a1 = reverse a1\n  1236: u64 [sp + 0x60] = a1\n  1239: a1 = u64 [sp + 0x18]\n  1242: a1 = reverse a1\n  1244: u64 [sp + 0x98] = a1\n  1248: a1 = u64 [sp + 0x20]\n  1251: a1 = reverse a1\n  1253: u64 [sp + 0x90] = a1\n  1257: a1 = u64 [sp + 0x28]\n  1260: a1 = reverse a1\n  1262: u64 [sp + 0x88] = a1\n  1266: a1 = u64 [sp + 0x30]\n  1269: a1 = reverse a1\n  1271: u64 [sp + 0x80] = a1\n  1275: a1 = u64 [sp + 0x40]\n  1278: a1 = reverse a1\n  1280: u64 [sp + 0xb8] = a1\n  1284: a1 = u64 [sp + 0x48]\n  1287: a1 = reverse a1\n  1289: u64 [sp + 0xb0] = a1\n  1293: a1 = u64 [sp + 0x50]\n  1296: a1 = reverse a1\n  1298: u64 [sp + 0xa8] = a1\n  1302: a1 = u64 [sp + 0x58]\n  1305: a1 = reverse a1\n  1307: u64 [sp + 0xa0] = a1\n  1311: i32 a2 = a0 + 0\n  1313: a3 = i32 [sp + 0x38]\n  1316: i32 a0 = sp + 0x60\n  1319: a1 = 0x3\n  1322: ecalli 5 // 'deposit_event'\n  1324: sp = s0 + 0xffffffffffffff20\n  1328: ra = u64 [sp + 0xd8]\n  1332: s0 = u64 [sp + 0xd0]\n  1336: s1 = u64 [sp + 0xc8]\n  1340: sp = sp + 0xe0\n  1344: ret\n      : @36 (gas: 23)\n  1346: sp = sp + 0xfffffffffffffee0\n  1350: u64 [sp + 0x118] = ra\n  1354: u64 [sp + 0x110] = s0\n  1358: u64 [sp + 0x108] = s1\n  1362: s0 = sp + 0x120\n  1366: sp = sp & 0xffffffffffffffe0\n  1369: s1 = u64 [a5]\n  1371: u64 [sp + 0x60] = s1\n  1374: s1 = u64 [a5 + 0x8]\n  1377: u64 [sp + 0x68] = s1\n  1380: s1 = u64 [a5 + 0x10]\n  1383: u64 [sp + 0x70] = s1\n  1386: a5 = u64 [a5 + 0x18]\n  1389: u64 [sp + 0x78] = a5\n  1392: a5 = u64 [a4]\n  1394: u64 [sp + 0x38] = a5\n  1397: a5 = u64 [a4 + 0x8]\n  1400: u64 [sp + 0x40] = a5\n  1403: a5 = u64 [a4 + 0x10]\n  1406: u64 [sp + 0x48] = a5\n  1409: a4 = u64 [a4 + 0x18]\n  1412: u64 [sp + 0x50] = a4\n  1415: t0 = 18, jump @1549\n      : @37 [@dyn 9] (gas: 2)\n  1421: u64 [sp + 0x58] = a1\n  1424: ra = 20, jump @39\n      : @38 [@dyn 10] (gas: 58)\n  1429: a1 = reverse s1\n  1431: u64 [sp + 0x98] = a1\n  1435: a1 = u64 [sp]\n  1437: a1 = reverse a1\n  1439: u64 [sp + 0x90] = a1\n  1443: a1 = u64 [sp + 0x8]\n  1446: a1 = reverse a1\n  1448: u64 [sp + 0x88] = a1\n  1452: a1 = u64 [sp + 0x10]\n  1455: a1 = reverse a1\n  1457: u64 [sp + 0x80] = a1\n  1461: a1 = u64 [sp + 0x18]\n  1464: a1 = reverse a1\n  1466: u64 [sp + 0xb8] = a1\n  1470: a1 = u64 [sp + 0x20]\n  1473: a1 = reverse a1\n  1475: u64 [sp + 0xb0] = a1\n  1479: a1 = u64 [sp + 0x28]\n  1482: a1 = reverse a1\n  1484: u64 [sp + 0xa8] = a1\n  1488: a1 = u64 [sp + 0x30]\n  1491: a1 = reverse a1\n  1493: u64 [sp + 0xa0] = a1\n  1497: a1 = u64 [sp + 0x38]\n  1500: a1 = reverse a1\n  1502: u64 [sp + 0xd8] = a1\n  1506: a1 = u64 [sp + 0x40]\n  1509: a1 = reverse a1\n  1511: u64 [sp + 0xd0] = a1\n  1515: a1 = u64 [sp + 0x48]\n  1518: a1 = reverse a1\n  1520: u64 [sp + 0xc8] = a1\n  1524: a1 = u64 [sp + 0x50]\n  1527: a1 = reverse a1\n  1529: u64 [sp + 0xc0] = a1\n  1533: a1 = u64 [sp + 0x60]\n  1536: a1 = reverse a1\n  1538: u64 [sp + 0xf8] = a1\n  1542: a1 = u64 [sp + 0x68]\n  1545: a1 = reverse a1\n  1547: u64 [sp + 0xf0] = a1\n  1551: a1 = u64 [sp + 0x70]\n  1554: a1 = reverse a1\n  1556: u64 [sp + 0xe8] = a1\n  1560: a1 = u64 [sp + 0x78]\n  1563: a1 = reverse a1\n  1565: u64 [sp + 0xe0] = a1\n  1569: i32 a2 = a0 + 0\n  1571: a3 = i32 [sp + 0x58]\n  1574: i32 a0 = sp + 0x80\n  1578: a1 = 0x4\n  1581: ecalli 5 // 'deposit_event'\n  1583: sp = s0 + 0xfffffffffffffee0\n  1587: ra = u64 [sp + 0x118]\n  1591: s0 = u64 [sp + 0x110]\n  1595: s1 = u64 [sp + 0x108]\n  1599: sp = sp + 0x120\n  1603: ret\n      : @39 (gas: 2)\n  1605: i32 a2 = a0 >> 0x10\n  1608: jump @44 if a2 != 0\n      : @40 (gas: 4)\n  1611: a1 = a1 + a0\n  1614: i32 a1 = a1 + 0x1f\n  1617: a1 = a1 & 0xffffffffffffffe0\n  1620: jump @44 if a1 >u 65536\n      : @41 (gas: 3)\n  1626: a2 = 0x20170\n  1631: a3 = i32 [0x20170]\n  1636: jump @43 if a3 >=u a1\n      : @42 (gas: 2)\n  1639: u32 [0x20170] = a1\n  1644: fallthrough\n      : @43 (gas: 4)\n  1645: a1 = 0x20180\n  1650: i32 a0 = a0 + 0\n  1652: a0 = a0 + a1\n  1655: ret\n      : @44 (gas: 1)\n  1657: trap\n      : @45 (gas: 6)\n  1658: sp = sp + 0xfffffffffffffff0\n  1661: u64 [sp + 0x8] = ra\n  1664: u64 [sp] = s0\n  1666: s0 = a0 & 0x1\n  1669: ecalli 3 // 'call_data_size'\n  1671: fallthrough\n      : @46 (gas: 2)\n  1672: u32 [0x2016c] = a0\n  1677: jump @48 if s0 == 0\n      : @47 (gas: 1)\n  1680: ra = 22, jump @49\n      : @48 [@dyn 11] (gas: 1)\n  1684: ra = 24, jump @75\n      : @49 [@dyn 12] (gas: 13)\n  1689: sp = sp + 0xffffffffffffff00\n  1693: u64 [sp + 0xf8] = ra\n  1697: u64 [sp + 0xf0] = s0\n  1701: u64 [sp + 0xe8] = s1\n  1705: s0 = sp + 0x100\n  1709: sp = sp & 0xffffffffffffffe0\n  1712: u64 [sp + 216] = 0\n  1716: u64 [sp + 208] = 0\n  1720: u64 [sp + 200] = 0\n  1724: u64 [sp + 192] = 0\n  1728: i32 a0 = sp + 0xc0\n  1732: ecalli 16 // 'value_transferred'\n  1734: fallthrough\n      : @50 (gas: 8)\n  1735: a0 = u64 [sp + 0xd0]\n  1739: a1 = u64 [sp + 0xd8]\n  1743: a2 = u64 [sp + 0xc8]\n  1747: a3 = u64 [sp + 0xc0]\n  1751: a1 = a1 | a2\n  1754: a0 = a0 | a3\n  1757: a0 = a0 | a1\n  1760: jump @62 if a0 != 0\n      : @51 (gas: 15)\n  1764: s1 = i32 [0x2016c]\n  1769: a0 = s1 << 0x20\n  1772: a0 = a0 >> 0x20\n  1775: a0 = a0 + 0x1f\n  1778: a0 = a0 & 0xffffffffffffffe0\n  1781: a1 = a0 + 0xa0\n  1785: a0 = a1 <u a0\n  1788: u64 [sp + 0xa0] = a1\n  1792: u64 [sp + 0xa8] = a0\n  1796: a0 = 0 if a0 != 0\n  1798: u64 [sp + 0xb0] = a0\n  1802: a0 = 0x40\n  1805: a1 = sp + 0xa0\n  1809: u64 [sp + 184] = 0\n  1813: ra = 26, jump @24\n      : @52 [@dyn 13] (gas: 3)\n  1818: a0 = 0xa0\n  1822: a1 = s1\n  1824: ra = 28, jump @39\n      : @53 [@dyn 14] (gas: 5)\n  1829: i32 a0 = a0 + 0\n  1831: a1 = s1\n  1833: a2 = 0\n  1835: ecalli 1 // 'call_data_copy'\n  1837: fallthrough\n      : @54 (gas: 1)\n  1838: jump @63 if s1 <=u 31\n      : @55 (gas: 3)\n  1843: a0 = sp + 0x80\n  1847: a1 = 0xa0\n  1851: ra = 30, jump @22\n      : @56 [@dyn 15] (gas: 10)\n  1856: a0 = u64 [sp + 0x90]\n  1860: a2 = u64 [sp + 0x98]\n  1864: a1 = 0x100000000\n  1874: a1 = a1 ^ a0\n  1877: a1 = a1 | a2\n  1880: a3 = a0 >> 0x20\n  1883: a3 = a3 <u 0x1\n  1886: a3 = 0 if a2 != 0\n  1888: a3 = 0 if a1 == 0\n  1890: jump @64 if a3 == 0\n      : @57 (gas: 6)\n  1893: a1 = u64 [sp + 0x80]\n  1897: a3 = u64 [sp + 0x88]\n  1901: a4 = a1 | a0\n  1904: a5 = a3 | a2\n  1907: a4 = a4 | a5\n  1910: jump @65 if a4 == 0\n      : @58 (gas: 7)\n  1913: u64 [sp + 0x60] = a1\n  1916: u64 [sp + 0x68] = a3\n  1919: u64 [sp + 0x70] = a0\n  1922: a0 = 0x80\n  1926: a1 = sp + 0x60\n  1929: u64 [sp + 0x78] = a2\n  1932: ra = 32, jump @24\n      : @59 [@dyn 16] (gas: 3)\n  1937: a0 = sp + 0x40\n  1940: a1 = 0x40\n  1943: ra = 34, jump @22\n      : @60 [@dyn 17] (gas: 12)\n  1948: a0 = u64 [sp + 0x58]\n  1951: a1 = u64 [sp + 0x50]\n  1954: a2 = u64 [sp + 0x48]\n  1957: s1 = u64 [sp + 0x40]\n  1960: a0 = a0 | a2\n  1963: a2 = s1 | a1\n  1966: a2 = a2 | a0\n  1969: a2 = a2 >> 0x20\n  1972: a0 = a0 | a1\n  1975: a0 = a0 << 0x20\n  1978: a0 = a0 | a2\n  1981: jump @69 if a0 == 0\n      : @61 (gas: 1)\n  1984: trap\n      : @62 (gas: 4)\n  1985: a1 = 0x20180\n  1990: i32 a1 = a1 + 0\n  1992: a0 = 0x1\n  1995: jump @74\n      : @63 (gas: 4)\n  1998: a1 = 0x20180\n  2003: i32 a1 = a1 + 0\n  2005: a0 = 0x1\n  2008: jump @74\n      : @64 (gas: 4)\n  2011: a1 = 0x20180\n  2016: i32 a1 = a1 + 0\n  2018: a0 = 0x1\n  2021: jump @74\n      : @65 (gas: 8)\n  2024: u64 [sp + 16] = 0\n  2027: u64 [sp + 8] = 0\n  2030: u64 [sp + 0] = 0\n  2032: a0 = 0x14bcf5c800000000\n  2042: a1 = sp\n  2044: u64 [sp + 0x18] = a0\n  2047: a0 = 0\n  2049: ra = 36, jump @24\n      : @66 [@dyn 18] (gas: 2)\n  2054: a1 = i32 [0x20170]\n  2059: jump @68 if a1 >u 31\n      : @67 (gas: 2)\n  2063: u32 [0x20170] = 0x20\n  2069: fallthrough\n      : @68 (gas: 6)\n  2070: a1 = 0x20180\n  2075: i32 a1 = a1 + 0\n  2077: a0 = 0x1\n  2080: a2 = 0x4\n  2083: ecalli 13 // 'seal_return'\n  2085: fallthrough\n      : @69 (gas: 3)\n  2086: a0 = s1\n  2088: a1 = 0\n  2090: ra = 38, jump @39\n      : @70 [@dyn 19] (gas: 7)\n  2095: i32 a0 = a0 + 0\n  2097: a1 = 0\n  2099: a2 = 0\n  2101: ecalli 1 // 'call_data_copy'\n  2103: a0 = sp + 0x20\n  2106: a1 = 0x80\n  2110: ra = 40, jump @22\n      : @71 [@dyn 20] (gas: 9)\n  2115: a0 = u64 [sp + 0x38]\n  2118: a2 = u64 [sp + 0x30]\n  2121: a3 = u64 [sp + 0x28]\n  2124: a4 = u64 [sp + 0x20]\n  2127: u64 [0x301b8] = a0\n  2132: u64 [0x301b0] = a2\n  2137: u64 [0x301a8] = a3\n  2142: u64 [0x301a0] = a4\n  2147: jump @20\n      : @72 (gas: 3)\n  2150: a0 = s1\n  2152: a1 = 0\n  2154: ra = 42, jump @39\n      : @73 [@dyn 21] (gas: 6)\n  2159: i32 a1 = a0 + 0\n  2161: a0 = 0\n  2163: a2 = 0\n  2165: ra = 0x2c\n  2168: ecalli 13 // 'seal_return'\n  2170: jump @75\n      : @74 (gas: 4)\n  2172: a2 = 0\n  2174: ra = 0x2c\n  2177: ecalli 13 // 'seal_return'\n  2179: fallthrough\n      : @75 [@dyn 22] (gas: 11)\n  2180: sp = sp + 0xfffffffffffffe10\n  2184: u64 [sp + 0x1e8] = ra\n  2188: u64 [sp + 0x1e0] = s0\n  2192: u64 [sp + 0x1d8] = s1\n  2196: s0 = sp + 0x1f0\n  2200: sp = sp + 0xffffffffffffd1f0\n  2204: sp = sp & 0xffffffffffffffe0\n  2207: s1 = sp\n  2209: t0 = 0x2e\n  2212: a2 = s1 + 0x2118\n  2216: fallthrough\n      : @76 [@dyn 23] (gas: 7)\n  2217: u64 [a2 + 1728] = 0\n  2221: u64 [a2 + 1720] = 0\n  2225: u64 [a2 + 1704] = 0x80\n  2231: a0 = 0x40\n  2234: a1 = s1 + 0x27c0\n  2238: u64 [a2 + 1712] = 0\n  2242: ra = 48, jump @24\n      : @77 [@dyn 24] (gas: 4)\n  2247: a0 = 0x2016c\n  2252: u64 [s1 + 0x198] = a0\n  2256: a0 = i32 [0x2016c]\n  2261: jump @79 if a0 >=u 4\n      : @78 (gas: 1)\n  2265: jump @984\n      : @79 (gas: 6)\n  2268: a0 = s1 + 0x2000\n  2272: i32 a0 = a0 + 0x7e0\n  2276: a1 = 0\n  2278: ra = 0x32\n  2281: ecalli 2 // 'call_data_load'\n  2283: fallthrough\n      : @80 [@dyn 25] (gas: 3)\n  2284: a3 = s1 + 0x2118\n  2288: a0 = i32 [a3 + 0x6e4]\n  2292: jump @82 if a0 != 2293374087\n      : @81 (gas: 1)\n  2299: jump @295\n      : @82 (gas: 1)\n  2302: jump @200 if a0 == 2573362740\n      : @83 (gas: 2)\n  2310: a2 = s1 + 0x2918\n  2314: jump @85 if a0 != 3062082785\n      : @84 (gas: 1)\n  2321: jump @441\n      : @85 (gas: 1)\n  2324: jump @87 if a0 != 3085052847\n      : @86 (gas: 1)\n  2331: jump @364\n      : @87 (gas: 1)\n  2334: jump @139 if a0 == 3504541104\n      : @88 (gas: 1)\n  2342: jump @90 if a0 != 37255803\n      : @89 (gas: 1)\n  2349: jump @403\n      : @90 (gas: 1)\n  2352: jump @92 if a0 != 235423050\n      : @91 (gas: 1)\n  2359: jump @239\n      : @92 (gas: 1)\n  2362: jump @94 if a0 != 248271711\n      : @93 (gas: 1)\n  2369: jump @333\n      : @94 (gas: 1)\n  2372: jump @169 if a0 == 573237126\n      : @95 (gas: 1)\n  2380: jump @97 if a0 != 1221342904\n      : @96 (gas: 1)\n  2387: jump @261\n      : @97 (gas: 1)\n  2390: jump @99 if a0 != 1251080110\n      : @98 (gas: 1)\n  2397: jump @285\n      : @99 (gas: 1)\n  2400: jump @101 if a0 == 1625762523\n      : @100 (gas: 1)\n  2407: jump @490\n      : @101 (gas: 10)\n  2410: u64 [a2 + 576] = 0\n  2414: u64 [a2 + 568] = 0\n  2418: u64 [a2 + 560] = 0\n  2422: u64 [a2 + 552] = 0\n  2426: a0 = s1 + 0x3000\n  2430: i32 a0 = a0 + 0xfffffffffffffb40\n  2434: ra = 0x34\n  2437: ecalli 16 // 'value_transferred'\n  2439: t0 = 0x36\n  2442: jump @1547\n      : @102 [@dyn 26] (gas: 1)\n  2446: t0 = 54, jump @1547\n      : @103 [@dyn 27] (gas: 8)\n  2452: a0 = u64 [a4 + 0x38]\n  2455: a1 = u64 [a4 + 0x40]\n  2458: a2 = u64 [a4 + 0x30]\n  2461: a3 = u64 [a4 + 0x28]\n  2464: a1 = a1 | a2\n  2467: a0 = a0 | a3\n  2470: a0 = a0 | a1\n  2473: jump @105 if a0 == 0\n      : @104 (gas: 1)\n  2476: jump @795\n      : @105 (gas: 1)\n  2479: t0 = 56, jump @1569\n      : @106 [@dyn 28] (gas: 1)\n  2485: jump @108 if a1 <u a0\n      : @107 (gas: 1)\n  2488: jump @796\n      : @108 (gas: 5)\n  2491: a0 = s1 + 0x3000\n  2495: i32 a0 = a0 + 0xfffffffffffffb60\n  2499: a1 = 0x4\n  2502: ecalli 2 // 'call_data_load'\n  2504: fallthrough\n      : @109 (gas: 9)\n  2505: a2 = s1 + 0x2918\n  2509: a3 = u64 [a2 + 0x258]\n  2513: a4 = u64 [a2 + 0x260]\n  2517: a0 = a3 ^ 0x1\n  2520: a0 = a0 | a4\n  2523: a1 = a3 <u 0x1\n  2526: a1 = 0 if a4 != 0\n  2528: a1 = 0 if a0 == 0\n  2530: jump @111 if a1 != 0\n      : @110 (gas: 1)\n  2533: jump @797\n      : @111 (gas: 9)\n  2536: a5 = s1 + 0x100\n  2540: u64 [a5 + 0x68] = a4\n  2543: u64 [a5 + 0x70] = a3\n  2546: a0 = u64 [a2 + 0x250]\n  2550: a1 = u64 [a2 + 0x248]\n  2554: u64 [a5 + 0x88] = a0\n  2558: u64 [a5 + 0x80] = a1\n  2562: a0 = a0 | a1\n  2565: jump @113 if a0 != 0\n      : @112 (gas: 1)\n  2568: jump @798\n      : @113 (gas: 8)\n  2571: a0 = 0x30180\n  2576: u64 [s1 + 0x190] = a0\n  2580: i32 a0 = a0 + 0\n  2582: u64 [s1 + 0x178] = a0\n  2586: ra = 0x3a\n  2589: ecalli 4 // 'caller'\n  2591: t0 = 0x3c\n  2594: jump @1520\n      : @114 [@dyn 29] (gas: 1)\n  2598: t0 = 60, jump @1520\n      : @115 [@dyn 30] (gas: 9)\n  2604: a2 = s1 + 0x1118\n  2608: u64 [a2 + 0] = 0\n  2610: a4 = a2 + 0xffffffffffffff00\n  2614: u64 [a4 + 0xf8] = a1\n  2618: u64 [a4 + 0xf0] = a0\n  2622: a1 = s1 + 0x1100\n  2626: u64 [a4 + 0xe8] = a3\n  2630: a0 = 0\n  2632: ra = 62, jump @24\n      : @116 [@dyn 31] (gas: 9)\n  2637: a2 = s1 + 0x7ff\n  2641: a2 = a2 + 0x119\n  2645: u64 [a2 + 2016] = 0\n  2649: u64 [a2 + 2008] = 0\n  2653: u64 [a2 + 2000] = 0\n  2657: a0 = 0x20\n  2660: a1 = s1 + 0x10e0\n  2664: u64 [a2 + 1992] = 0\n  2668: ra = 64, jump @24\n      : @117 [@dyn 32] (gas: 1)\n  2673: t0 = 66, jump @1531\n      : @118 [@dyn 33] (gas: 3)\n  2679: a2 = 0x20170\n  2684: a0 = i32 [0x20170]\n  2689: jump @120 if a0 >u 63\n      : @119 (gas: 2)\n  2693: u32 [0x20170] = 0x40\n  2699: fallthrough\n      : @120 (gas: 13)\n  2700: u64 [s1 + 0x158] = a2\n  2704: a0 = sp + 0xffffffffffffffe0\n  2707: a2 = a0 & 0xffffffffffffffe0\n  2710: u64 [s1 + 0x160] = a2\n  2714: sp = a2\n  2716: a0 = 0x20180\n  2721: i32 a0 = a0 + 0\n  2723: i32 a2 = a2 + 0\n  2725: a1 = 0x40\n  2728: u64 [s1 + 0x150] = a0\n  2732: ra = 0x44\n  2735: ecalli 8 // 'hash_keccak_256'\n  2737: fallthrough\n      : @121 [@dyn 34] (gas: 6)\n  2738: a3 = u64 [s1 + 0x160]\n  2742: a0 = u64 [a3]\n  2744: a1 = u64 [a3 + 0x8]\n  2747: a2 = u64 [a3 + 0x10]\n  2750: a3 = u64 [a3 + 0x18]\n  2753: t0 = 70, jump @1526\n      : @122 [@dyn 35] (gas: 15)\n  2759: a3 = a3 + 0x1\n  2762: a4 = a3 <u 0x1\n  2765: a2 = a2 + a4\n  2768: a4 = a3 | a2\n  2771: a4 = a4 <u 0x1\n  2774: a4 = a4 + a1\n  2777: a1 = a4 <u a1\n  2780: a0 = a0 + a1\n  2783: a1 = u64 [s1 + 0x198]\n  2787: u64 [a1] = a3\n  2789: u64 [a1 + 0x8] = a2\n  2792: u64 [a1 + 0x10] = a4\n  2795: u64 [a1 + 0x18] = a0\n  2798: a0 = s1 + 0x10c0\n  2802: ra = 72, jump @26\n      : @123 [@dyn 36] (gas: 14)\n  2807: a1 = s1 + 0x7ff\n  2811: a1 = a1 + 0x119\n  2815: a0 = u64 [a1 + 0x7a8]\n  2819: a1 = u64 [a1 + 0x7b0]\n  2823: t1 = 0xffffffffffffffff\n  2826: a2 = a0 & t1\n  2829: a3 = a1 & t1\n  2832: a5 = u64 [s1 + 0x188]\n  2836: t0 = a3 ^ a5\n  2839: a3 = a3 <u a5\n  2842: a4 = u64 [s1 + 0x180]\n  2846: a2 = a2 <u a4\n  2849: a2 = a3 if t0 != 0\n  2852: jump @125 if a2 == 0\n      : @124 (gas: 1)\n  2855: jump @802\n      : @125 (gas: 1)\n  2858: t0 = 74, jump @1554\n      : @126 [@dyn 37] (gas: 3)\n  2864: a0 = s1 + 0x10a0\n  2868: a1 = u64 [s1 + 0x198]\n  2872: ra = 76, jump @26\n      : @127 [@dyn 38] (gas: 15)\n  2877: a1 = s1 + 0x7ff\n  2881: a1 = a1 + 0x119\n  2885: a0 = u64 [a1 + 0x7a0]\n  2889: a1 = u64 [a1 + 0x798]\n  2893: a2 = s1 + 0x2918\n  2897: a3 = a2 + 0x200\n  2901: u64 [a3 + 0x80] = a0\n  2905: u64 [a3 + 0x78] = a1\n  2908: a0 = u64 [s1 + 0x158]\n  2912: u64 [a3 + 0x68] = a0\n  2915: a0 = u64 [s1 + 0x160]\n  2919: u64 [a3 + 0x70] = a0\n  2922: a1 = s1 + 0x2b80\n  2926: a0 = u64 [s1 + 0x198]\n  2930: ra = 78, jump @30\n      : @128 [@dyn 39] (gas: 4)\n  2935: a0 = u64 [s1 + 0x178]\n  2939: ra = 0x50\n  2942: ecalli 4 // 'caller'\n  2944: fallthrough\n      : @129 [@dyn 40] (gas: 3)\n  2945: a5 = s1 + 0x100\n  2949: a2 = u64 [a5 + 0x90]\n  2953: t0 = 82, jump @1523\n      : @130 [@dyn 41] (gas: 18)\n  2959: a2 = u64 [a5 + 0x68]\n  2962: a4 = s1 + 0x7ff\n  2966: a4 = a4 + 0x119\n  2970: u64 [a4 + 0x760] = a2\n  2974: a2 = u64 [a5 + 0x70]\n  2977: u64 [a4 + 0x758] = a2\n  2981: a2 = u64 [a5 + 0x88]\n  2985: u64 [a4 + 0x750] = a2\n  2989: a2 = u64 [a5 + 0x80]\n  2993: a5 = a4 + 0x700\n  2997: u64 [a5 + 0x48] = a2\n  3000: u64 [a4 + 1920] = 0\n  3004: u64 [a5 + 0x78] = a1\n  3007: u64 [a5 + 0x70] = a0\n  3010: a0 = s1 + 0x1080\n  3014: a1 = s1 + 0x1060\n  3018: u64 [a5 + 0x68] = a3\n  3021: ra = 84, jump @1488\n      : @131 [@dyn 42] (gas: 3)\n  3027: a0 = s1 + 0x1040\n  3031: a1 = 0x40\n  3034: ra = 86, jump @22\n      : @132 [@dyn 43] (gas: 8)\n  3039: a4 = s1 + 0x7ff\n  3043: a4 = a4 + 0x119\n  3047: a5 = a4 + 0x700\n  3051: a0 = u64 [a5 + 0x40]\n  3054: a1 = u64 [a5 + 0x38]\n  3057: a2 = u64 [a5 + 0x30]\n  3060: a3 = u64 [a5 + 0x28]\n  3063: t0 = 88, jump @1534\n      : @133 [@dyn 44] (gas: 1)\n  3069: jump @135 if a0 == 0\n      : @134 (gas: 1)\n  3072: jump @794\n      : @135 (gas: 10)\n  3075: u64 [a4 + 1824] = 0\n  3079: u64 [a4 + 1816] = 0\n  3083: a0 = u64 [s1 + 0x180]\n  3087: u64 [a4 + 0x708] = a0\n  3091: a1 = s1 + 0x1020\n  3095: a0 = u64 [s1 + 0x188]\n  3099: u64 [a4 + 0x710] = a0\n  3103: a0 = a3\n  3105: u64 [s1 + 0x198] = a3\n  3109: ra = 90, jump @24\n      : @136 [@dyn 45] (gas: 6)\n  3114: a0 = u64 [s1 + 0x178]\n  3118: ra = 0x5c\n  3121: ecalli 4 // 'caller'\n  3123: a2 = u64 [s1 + 0x190]\n  3127: t0 = 0x5e\n  3130: jump @1515\n      : @137 [@dyn 46] (gas: 2)\n  3134: a2 = u64 [s1 + 0x190]\n  3138: t0 = 94, jump @1515\n      : @138 [@dyn 47] (gas: 28)\n  3144: t0 = a1 | a0\n  3147: a3 = a3 >> 0x20\n  3150: a1 = reverse a2\n  3152: a2 = a1 << 0x20\n  3155: a2 = a2 | a3\n  3158: a1 = a1 >> 0x20\n  3161: a3 = u64 [0x200a0]\n  3166: a0 = s1 + 0x7ff\n  3170: a0 = a0 + 0x119\n  3174: u64 [a0 + 0x700] = a3\n  3178: a3 = u64 [0x200a8]\n  3183: a4 = u64 [0x200b0]\n  3188: a5 = u64 [0x200b8]\n  3193: u64 [a0 + 0x6f8] = a3\n  3197: a3 = a0 + 0x600\n  3201: u64 [a3 + 0xf0] = a4\n  3205: u64 [a0 + 1760] = 0\n  3209: u64 [a3 + 0xe8] = a5\n  3213: u64 [a3 + 0xd8] = a1\n  3217: u64 [a3 + 0xd0] = a2\n  3221: a1 = 0x20\n  3224: a2 = s1 + 0x1000\n  3228: a3 = s1 + 0x7ff\n  3232: a3 = a3 + 0x7e1\n  3236: u64 [a0 + 0x6c8] = t0\n  3240: a0 = u64 [s1 + 0x198]\n  3244: ra = 0x1a6\n  3248: jump @31\n      : @139 (gas: 3)\n  3251: a0 = u64 [s1 + 0x198]\n  3255: a0 = i32 [a0]\n  3257: jump @141 if a0 >u 3\n      : @140 (gas: 1)\n  3261: jump @803\n      : @141 (gas: 9)\n  3264: u64 [a2 + 1632] = 0\n  3268: u64 [a2 + 1624] = 0\n  3272: u64 [a2 + 1616] = 0\n  3276: u64 [a2 + 1608] = 0\n  3280: a0 = s1 + 0x3000\n  3284: i32 a0 = a0 + 0xffffffffffffff60\n  3288: ra = 0x60\n  3291: ecalli 16 // 'value_transferred'\n  3293: fallthrough\n      : @142 [@dyn 48] (gas: 3)\n  3294: a3 = s1 + 0x2918\n  3298: a4 = a3 + 0x600\n  3302: t0 = 98, jump @1591\n      : @143 [@dyn 49] (gas: 1)\n  3308: jump @145 if a0 != 0\n      : @144 (gas: 1)\n  3311: jump @804\n      : @145 (gas: 9)\n  3314: a0 = 0x30180\n  3319: u64 [s1 + 0x190] = a0\n  3323: i32 a0 = a0 + 0\n  3325: u64 [s1 + 0x168] = a0\n  3329: ra = 0x64\n  3332: ecalli 4 // 'caller'\n  3334: a2 = u64 [s1 + 0x190]\n  3338: t0 = 0x66\n  3341: jump @1512\n      : @146 [@dyn 50] (gas: 2)\n  3345: a2 = u64 [s1 + 0x190]\n  3349: t0 = 102, jump @1512\n      : @147 [@dyn 51] (gas: 8)\n  3355: u64 [a2 + 1696] = 0\n  3359: a4 = a2 + 0x600\n  3363: u64 [a4 + 0x98] = a1\n  3367: u64 [a4 + 0x90] = a0\n  3371: a1 = s1 + 0x27a0\n  3375: u64 [a4 + 0x88] = a3\n  3379: a0 = 0\n  3381: ra = 104, jump @24\n      : @148 [@dyn 52] (gas: 9)\n  3386: a0 = s1 + 0x2118\n  3390: u64 [a0 + 1664] = 0\n  3394: u64 [a0 + 1656] = 0\n  3398: u64 [a0 + 1648] = 0\n  3402: a2 = a0\n  3404: a0 = 0x20\n  3407: a1 = s1 + 0x2780\n  3411: u64 [a2 + 1640] = 0\n  3415: ra = 106, jump @24\n      : @149 [@dyn 53] (gas: 1)\n  3420: t0 = 108, jump @1531\n      : @150 [@dyn 54] (gas: 3)\n  3426: a2 = 0x20170\n  3431: a0 = i32 [0x20170]\n  3436: jump @152 if a0 >u 63\n      : @151 (gas: 2)\n  3440: u32 [0x20170] = 0x40\n  3446: fallthrough\n      : @152 (gas: 15)\n  3447: u64 [s1 + 0x160] = a2\n  3451: a0 = sp + 0xffffffffffffffe0\n  3454: a2 = a0 & 0xffffffffffffffe0\n  3457: u64 [s1 + 0x188] = a2\n  3461: sp = a2\n  3463: a0 = 0x20180\n  3468: i32 a0 = a0 + 0\n  3470: i32 a2 = a2 + 0\n  3472: a1 = 0x40\n  3475: u64 [s1 + 0x170] = a0\n  3479: ra = 0x6e\n  3482: ecalli 8 // 'hash_keccak_256'\n  3484: a3 = u64 [s1 + 0x188]\n  3488: t0 = 0x70\n  3491: jump @1541\n      : @153 [@dyn 55] (gas: 2)\n  3495: a3 = u64 [s1 + 0x188]\n  3499: t0 = 112, jump @1541\n      : @154 [@dyn 56] (gas: 16)\n  3505: a0 = s1 + 0x2918\n  3509: u64 [a0 + 1664] = 0\n  3513: u64 [a0 + 1656] = 0\n  3517: u64 [a0 + 1648] = 0\n  3521: u64 [a0 + 1640] = 0\n  3525: a0 = s1 + 0x3000\n  3529: i32 a0 = a0 + 0xffffffffffffff80\n  3532: ecalli 16 // 'value_transferred'\n  3534: a1 = s1 + 0x2918\n  3538: a0 = u64 [a1 + 0x668]\n  3542: u64 [s1 + 0x188] = a0\n  3546: a0 = u64 [a1 + 0x670]\n  3550: u64 [s1 + 0x180] = a0\n  3554: a0 = s1 + 0x2760\n  3558: a1 = u64 [s1 + 0x198]\n  3562: ra = 114, jump @26\n      : @155 [@dyn 57] (gas: 2)\n  3567: a1 = s1 + 0x2118\n  3571: fallthrough\n      : @156 (gas: 18)\n  3572: a0 = u64 [a1 + 0x650]\n  3576: a1 = u64 [a1 + 0x648]\n  3580: a4 = s1 + 0x100\n  3584: a2 = u64 [a4 + 0x80]\n  3588: a2 = a2 + a0\n  3591: a3 = u64 [a4 + 0x88]\n  3595: a3 = a3 + a1\n  3598: u64 [a4 + 0x88] = a3\n  3602: a1 = a3 <u a1\n  3605: a3 = a2 + a1\n  3608: a2 = a3 ^ a0\n  3611: u64 [a4 + 0x80] = a3\n  3615: a3 = a3 <u a0\n  3618: a3 = a1 if a2 == 0\n  3621: a0 = a3 >u 0\n  3623: u64 [a4 + 0x78] = a3\n  3626: a0 = 0 if a3 == 0\n  3628: jump @158 if a0 == 0\n      : @157 (gas: 1)\n  3631: jump @809\n      : @158 (gas: 3)\n  3634: a0 = s1 + 0x2740\n  3638: a1 = u64 [s1 + 0x198]\n  3642: ra = 116, jump @26\n      : @159 [@dyn 58] (gas: 16)\n  3647: a1 = s1 + 0x2118\n  3651: a0 = u64 [a1 + 0x638]\n  3655: a1 = u64 [a1 + 0x640]\n  3659: a2 = u64 [s1 + 0x178]\n  3663: a0 = a0 | a2\n  3666: a2 = s1 + 0x2918\n  3670: a3 = u64 [s1 + 0x180]\n  3674: a4 = a2 + 0x600\n  3678: u64 [a4 + 0x90] = a3\n  3682: a3 = u64 [s1 + 0x188]\n  3686: u64 [a4 + 0x88] = a3\n  3690: u64 [a4 + 0xa0] = a1\n  3694: u64 [a4 + 0x98] = a0\n  3698: a1 = s1 + 0x2fa0\n  3702: a0 = u64 [s1 + 0x198]\n  3706: ra = 118, jump @30\n      : @160 [@dyn 59] (gas: 3)\n  3711: a0 = s1 + 0x2720\n  3715: a1 = 0x40\n  3718: ra = 120, jump @22\n      : @161 [@dyn 60] (gas: 19)\n  3723: a0 = s1 + 0x2118\n  3727: a2 = a0 + 0x600\n  3731: a1 = u64 [a2 + 0x20]\n  3734: u64 [s1 + 0x188] = a1\n  3738: a1 = u64 [a2 + 0x18]\n  3741: u64 [s1 + 0x180] = a1\n  3745: a1 = u64 [a2 + 0x10]\n  3748: u64 [s1 + 0x178] = a1\n  3752: a0 = u64 [a2 + 0x8]\n  3755: u64 [s1 + 0x198] = a0\n  3759: a0 = s1 + 0x2918\n  3763: u64 [a0 + 1728] = 0\n  3767: u64 [a0 + 1720] = 0\n  3771: u64 [a0 + 1712] = 0\n  3775: u64 [a0 + 1704] = 0\n  3779: a0 = s1 + 0x3000\n  3783: i32 a0 = a0 + 0xffffffffffffffc0\n  3786: ecalli 16 // 'value_transferred'\n  3788: fallthrough\n      : @162 (gas: 14)\n  3789: a3 = s1 + 0x100\n  3793: a0 = u64 [a3 + 0x88]\n  3797: a1 = u64 [a3 + 0x78]\n  3800: a0 = a0 | a1\n  3803: a1 = u64 [a3 + 0x98]\n  3807: a5 = a1\n  3809: a2 = u64 [a3 + 0x80]\n  3813: a1 = a1 | a2\n  3816: a1 = a1 | a0\n  3819: a1 = a1 >> 0x20\n  3822: a0 = a0 | a2\n  3825: a0 = a0 << 0x20\n  3828: a0 = a0 | a1\n  3831: jump @164 if a0 == 0\n      : @163 (gas: 1)\n  3834: jump @794\n      : @164 (gas: 15)\n  3837: a3 = s1 + 0x2918\n  3841: a4 = a3 + 0x600\n  3845: a0 = u64 [a4 + 0xa8]\n  3849: a1 = u64 [a4 + 0xb0]\n  3853: a2 = u64 [a4 + 0xb8]\n  3857: a3 = u64 [a4 + 0xc0]\n  3861: a4 = s1 + 0x2118\n  3865: u64 [a4 + 0x600] = a3\n  3869: a3 = a4 + 0x500\n  3873: u64 [a3 + 0xf8] = a2\n  3877: u64 [a3 + 0xf0] = a1\n  3881: a1 = s1 + 0x2700\n  3885: u64 [a3 + 0xe8] = a0\n  3889: a0 = a5\n  3891: ra = 122, jump @24\n      : @165 [@dyn 61] (gas: 6)\n  3896: a0 = u64 [s1 + 0x168]\n  3900: ra = 0x7c\n  3903: ecalli 4 // 'caller'\n  3905: a2 = u64 [s1 + 0x190]\n  3909: t0 = 0x7e\n  3912: jump @1515\n      : @166 [@dyn 62] (gas: 2)\n  3916: a2 = u64 [s1 + 0x190]\n  3920: t0 = 126, jump @1515\n      : @167 [@dyn 63] (gas: 25)\n  3926: t0 = a1 | a0\n  3929: a3 = a3 >> 0x20\n  3932: a2 = reverse a2\n  3934: a1 = a2 << 0x20\n  3937: a1 = a1 | a3\n  3940: a2 = a2 >> 0x20\n  3943: a3 = u64 [0x20000]\n  3948: a0 = s1 + 0x2118\n  3952: u64 [a0 + 0x5e0] = a3\n  3956: a3 = u64 [0x20008]\n  3961: a4 = u64 [0x20010]\n  3966: a5 = u64 [0x20018]\n  3971: u64 [a0 + 0x5d8] = a3\n  3975: a3 = a0 + 0x500\n  3979: u64 [a3 + 0xd0] = a4\n  3983: u64 [a0 + 1472] = 0\n  3987: u64 [a3 + 0xc8] = a5\n  3991: u64 [a3 + 0xb8] = a2\n  3995: u64 [a3 + 0xb0] = a1\n  3999: a1 = 0x20\n  4002: a2 = s1 + 0x26e0\n  4006: a3 = s1 + 0x26c0\n  4010: u64 [a0 + 0x5a8] = t0\n  4014: a0 = u64 [s1 + 0x198]\n  4018: ra = 128, jump @31\n      : @168 [@dyn 64] (gas: 5)\n  4024: a0 = 0\n  4026: a1 = u64 [s1 + 0x170]\n  4030: a2 = 0\n  4032: ecalli 13 // 'seal_return'\n  4034: jump @986\n      : @169 (gas: 10)\n  4037: u64 [a3 + 2016] = 0\n  4041: u64 [a3 + 2008] = 0\n  4045: u64 [a3 + 2000] = 0\n  4049: u64 [a3 + 1992] = 0\n  4053: a0 = s1 + 0x3000\n  4057: i32 a0 = a0 + 0xfffffffffffff8e0\n  4061: ra = 0x82\n  4065: ecalli 16 // 'value_transferred'\n  4067: t0 = 0x84\n  4071: jump @1580\n      : @170 [@dyn 65] (gas: 1)\n  4075: t0 = 132, jump @1580\n      : @171 [@dyn 66] (gas: 1)\n  4082: t0 = 134, jump @1557\n      : @172 [@dyn 67] (gas: 1)\n  4089: jump @174 if a0 == 0\n      : @173 (gas: 1)\n  4092: jump @816\n      : @174 (gas: 3)\n  4095: a0 = u64 [s1 + 0x198]\n  4099: a0 = i32 [a0]\n  4101: jump @176 if a0 >u 3\n      : @175 (gas: 1)\n  4105: jump @817\n      : @176 (gas: 17)\n  4108: a0 = s1 + 0x3000\n  4112: i32 a0 = a0 + 0xfffffffffffff900\n  4116: ecalli 9 // 'now'\n  4118: a0 = s1 + 0x2918\n  4122: a1 = u64 [a0]\n  4124: a2 = s1 + 0x100\n  4128: u64 [a2 + 0x58] = a1\n  4131: a3 = a0 + 0xffffffffffffff00\n  4135: a1 = u64 [a3 + 0xf8]\n  4139: u64 [a2 + 0x50] = a1\n  4142: a1 = u64 [a3 + 0xf0]\n  4146: u64 [a2 + 0x98] = a1\n  4150: a0 = u64 [a3 + 0xe8]\n  4154: u64 [a2 + 0x90] = a0\n  4158: a0 = s1 + 0x540\n  4162: a1 = 0x40\n  4165: ra = 136, jump @22\n      : @177 [@dyn 68] (gas: 6)\n  4171: a4 = s1 + 0x500\n  4175: a0 = u64 [a4 + 0x58]\n  4178: a1 = u64 [a4 + 0x50]\n  4181: a2 = u64 [a4 + 0x48]\n  4184: a3 = u64 [a4 + 0x40]\n  4187: t0 = 138, jump @1534\n      : @178 [@dyn 69] (gas: 1)\n  4194: jump @180 if a0 == 0\n      : @179 (gas: 1)\n  4197: jump @794\n      : @180 (gas: 46)\n  4200: u64 [s1 + 0x118] = a3\n  4204: t1 = u64 [s1 + 0x150]\n  4208: a0 = clz t1\n  4210: a0 = a0 + 0x40\n  4213: ra = u64 [s1 + 0x158]\n  4217: a2 = clz ra\n  4219: a2 = a0 if ra == 0\n  4222: t2 = u64 [s1 + 0x190]\n  4226: a0 = clz t2\n  4228: a0 = a0 + 0x40\n  4231: t0 = u64 [s1 + 0x198]\n  4235: a1 = clz t0\n  4237: a1 = a0 if t0 == 0\n  4240: a0 = a1 + 0x80\n  4244: a3 = t1 | ra\n  4247: a2 = a0 if a3 == 0\n  4250: a5 = a0 <u a1\n  4253: a5 = 0 if a3 != 0\n  4255: a4 = a5 >u 0\n  4257: a0 = a2 <u 0xf0\n  4261: a3 = a0 ^ 0x1\n  4264: a4 = a3 if a5 == 0\n  4267: a0 = a4 <u 0x1\n  4270: a0 = a0 + 0xffffffffffffffff\n  4273: a1 = -a4\n  4275: a5 = -a5\n  4277: a3 = a5 - a3\n  4280: a2 = 0xef - a2\n  4284: u64 [s1 + 0x178] = a1\n  4288: a5 = a1 >u 0\n  4290: a1 = a0 >u 0\n  4292: a1 = a5 if a0 == 0\n  4295: a5 = a3 >u 0\n  4297: u64 [s1 + 0x168] = a2\n  4301: a2 = a2 <u 0x100\n  4305: a2 = a2 ^ 0x1\n  4308: a2 = a5 if a3 != 0\n  4311: a2 = a1 if a4 != 0\n  4314: a1 = t2 | t1\n  4317: a4 = t0 | ra\n  4320: a1 = a1 | a4\n  4323: a1 = a1 <u 0x1\n  4326: a1 = a1 | a2\n  4329: a4 = t2\n  4331: a4 = 0 if a1 != 0\n  4333: jump @182 if a1 == 0\n      : @181 (gas: 1)\n  4336: jump @898\n      : @182 (gas: 7)\n  4339: a1 = u64 [s1 + 0x168]\n  4343: a1 = a1 ^ 0xff\n  4347: a2 = u64 [s1 + 0x178]\n  4351: a1 = a1 | a2\n  4354: a2 = a3 | a0\n  4357: a1 = a1 | a2\n  4360: jump @184 if a1 != 0\n      : @183 (gas: 1)\n  4363: jump @898\n      : @184 (gas: 20)\n  4366: a4 = u64 [s1 + 0x168]\n  4370: a2 = a4 + 0x1\n  4373: u64 [s1 + 0x188] = a2\n  4377: a1 = a2 <u 0x1\n  4380: a1 = a1 + a3\n  4383: u64 [s1 + 0x180] = a1\n  4387: a1 = a1 | a2\n  4390: a1 = a1 <u 0x1\n  4393: a3 = u64 [s1 + 0x178]\n  4397: a1 = a1 + a3\n  4400: u64 [s1 + 0x170] = a1\n  4404: a1 = a1 <u a3\n  4407: a0 = a0 + a1\n  4410: u64 [s1 + 0x178] = a0\n  4414: a1 = 0xff - a4\n  4418: u64 [s1 + 0x140] = a1\n  4422: a2 = 0x80 - a1\n  4426: a0 = u64 [s1 + 0x190]\n  4430: a1 = u64 [s1 + 0x198]\n  4434: ra = 140, jump @1592\n      : @185 [@dyn 70] (gas: 6)\n  4441: u64 [s1 + 0x130] = a0\n  4445: u64 [s1 + 0x148] = a1\n  4449: a0 = u64 [s1 + 0x150]\n  4453: a1 = u64 [s1 + 0x158]\n  4457: a2 = u64 [s1 + 0x140]\n  4461: ra = 142, jump @1597\n      : @186 [@dyn 71] (gas: 7)\n  4468: u64 [s1 + 0x128] = a0\n  4472: u64 [s1 + 0x120] = a1\n  4476: a0 = u64 [s1 + 0x140]\n  4480: a2 = a0 + 0xffffffffffffff80\n  4483: a0 = u64 [s1 + 0x190]\n  4487: a1 = u64 [s1 + 0x198]\n  4491: ra = 144, jump @1597\n      : @187 [@dyn 72] (gas: 8)\n  4498: u64 [s1 + 0x110] = a0\n  4502: u64 [s1 + 0x108] = a1\n  4506: a2 = u64 [s1 + 0x140]\n  4510: a0 = a2 <u 0x80\n  4514: u64 [s1 + 0x138] = a0\n  4518: a0 = u64 [s1 + 0x190]\n  4522: a1 = u64 [s1 + 0x198]\n  4526: ra = 146, jump @1597\n      : @188 [@dyn 73] (gas: 1)\n  4533: t0 = 148, jump @1589\n      : @189 [@dyn 74] (gas: 4)\n  4540: a3 = u64 [a4 + 0x38]\n  4543: a0 = 0 if a3 == 0\n  4545: u64 [a4 + 0x68] = a0\n  4548: jump @191 if a1 != 0\n      : @190 (gas: 1)\n  4551: jump @896\n      : @191 (gas: 30)\n  4554: a2 = a3\n  4556: a0 = u64 [s1 + 0x148]\n  4560: a1 = u64 [s1 + 0x120]\n  4564: a0 = a0 | a1\n  4567: a5 = a3\n  4569: a1 = u64 [s1 + 0x108]\n  4573: a0 = a1 if a2 == 0\n  4576: a2 = u64 [s1 + 0x158]\n  4580: a3 = a2\n  4582: a1 = a2\n  4584: a2 = u64 [s1 + 0x140]\n  4588: a3 = a0 if a2 != 0\n  4591: u64 [s1 + 0x148] = a3\n  4595: a0 = u64 [s1 + 0x130]\n  4599: a3 = u64 [s1 + 0x128]\n  4603: a0 = a0 | a3\n  4606: a3 = u64 [s1 + 0x110]\n  4610: a0 = a3 if a5 == 0\n  4613: a4 = u64 [s1 + 0x150]\n  4617: a3 = a4\n  4619: a3 = a0 if a2 != 0\n  4622: u64 [s1 + 0x140] = a3\n  4626: a0 = u64 [s1 + 0x160]\n  4630: a0 = 0 if a5 == 0\n  4632: u64 [s1 + 0x160] = a0\n  4636: u64 [s1 + 304] = 0x15180\n  4643: a0 = u64 [s1 + 0x188]\n  4647: a2 = a0 + 0xffffffffffffff80\n  4650: a0 = a4\n  4652: ra = 150, jump @1592\n      : @192 [@dyn 75] (gas: 6)\n  4659: u64 [s1 + 0x138] = a0\n  4663: u64 [s1 + 0x120] = a1\n  4667: a0 = u64 [s1 + 0x190]\n  4671: a1 = u64 [s1 + 0x198]\n  4675: a2 = u64 [s1 + 0x188]\n  4679: ra = 152, jump @1592\n      : @193 [@dyn 76] (gas: 7)\n  4686: u64 [s1 + 0x110] = a0\n  4690: u64 [s1 + 0x128] = a1\n  4694: a1 = u64 [s1 + 0x188]\n  4698: a2 = 0x80 - a1\n  4702: a0 = u64 [s1 + 0x150]\n  4706: a1 = u64 [s1 + 0x158]\n  4710: ra = 154, jump @1597\n      : @194 [@dyn 77] (gas: 20)\n  4717: a2 = u64 [s1 + 0x128]\n  4721: a1 = a1 | a2\n  4724: a2 = u64 [s1 + 0x188]\n  4728: a3 = a2 <u 0x80\n  4732: u64 [s1 + 0x128] = a3\n  4736: a4 = u64 [s1 + 0x120]\n  4740: a1 = a4 if a3 == 0\n  4743: a4 = u64 [s1 + 0x198]\n  4747: a4 = a1 if a2 != 0\n  4750: u64 [s1 + 0x198] = a4\n  4754: a1 = u64 [s1 + 0x110]\n  4758: a0 = a0 | a1\n  4761: a1 = u64 [s1 + 0x138]\n  4765: a0 = a1 if a3 == 0\n  4768: a1 = u64 [s1 + 0x190]\n  4772: a1 = a0 if a2 != 0\n  4775: u64 [s1 + 0x190] = a1\n  4779: a0 = u64 [s1 + 0x150]\n  4783: a1 = u64 [s1 + 0x158]\n  4787: ra = 156, jump @1592\n      : @195 [@dyn 78] (gas: 16)\n  4794: t2 = u64 [s1 + 0x190]\n  4798: t1 = u64 [s1 + 0x198]\n  4802: u64 [s1 + 344] = 0\n  4806: u64 [s1 + 336] = 0\n  4810: a4 = s1 + 0x100\n  4814: a2 = u64 [a4 + 0x28]\n  4817: a1 = 0 if a2 == 0\n  4819: a0 = 0 if a2 == 0\n  4821: u64 [a4 + 0x38] = a0\n  4824: a3 = u64 [a4 + 0x30]\n  4827: a2 = a3 + 0xffffffffffffffff\n  4830: u64 [a4 + 0x28] = a2\n  4833: a2 = a3 >u 0\n  4835: a2 = a2 + 0xffffffffffffffff\n  4838: u64 [a4 + 0x20] = a2\n  4841: fallthrough\n      : @196 (gas: 58)\n  4842: a2 = t2 >> 0x3f\n  4845: a3 = t1 << 0x1\n  4848: a2 = a2 | a3\n  4851: a3 = t2 << 0x1\n  4854: t2 = u64 [s1 + 0x148]\n  4858: a4 = t2 >> 0x3f\n  4861: a3 = a3 | a4\n  4864: u64 [s1 + 0x198] = a3\n  4868: ra = u64 [s1 + 0x120]\n  4872: a0 = t1\n  4874: t1 = ra ^ a2\n  4877: t0 = ra <u a2\n  4880: a4 = u64 [s1 + 0x128]\n  4884: a5 = a4 <u a3\n  4887: a5 = t0 if t1 != 0\n  4890: a1 = a1 << 0x1\n  4893: a4 = u64 [s1 + 0x138]\n  4897: a3 = a4 >> 0x3f\n  4900: a1 = a1 | a3\n  4903: u64 [s1 + 0x190] = a1\n  4907: a3 = a0 >> 0x3f\n  4910: a0 = a4 << 0x1\n  4913: a3 = a3 | a0\n  4916: a0 = t2 << 0x1\n  4919: a4 = u64 [s1 + 0x140]\n  4923: a1 = a4 >> 0x3f\n  4926: t0 = a0 | a1\n  4929: a1 = a4 << 0x1\n  4932: a4 = u64 [s1 + 0x160]\n  4936: t1 = a4 >> 0x3f\n  4939: t1 = a1 | t1\n  4942: a1 = a4 << 0x1\n  4945: a4 = u64 [s1 + 0x168]\n  4949: t2 = a4 >> 0x3f\n  4952: a1 = a1 | t2\n  4955: a4 = a4 << 0x1\n  4958: a0 = u64 [s1 + 0x158]\n  4962: a4 = a4 | a0\n  4965: u64 [s1 + 0x168] = a4\n  4969: a0 = u64 [s1 + 0x150]\n  4973: a1 = a1 | a0\n  4976: u64 [s1 + 0x160] = a1\n  4980: a1 = a0 | t1\n  4983: u64 [s1 + 0x140] = a1\n  4987: a0 = a0 | t0\n  4990: u64 [s1 + 0x148] = a0\n  4994: a0 = ra - a3\n  4997: a0 = a0 <u a5\n  5000: a1 = ra <u a3\n  5003: a5 = u64 [s1 + 0x190]\n  5007: a4 = ra - a5\n  5010: a4 = a4 - a1\n  5013: a4 = a4 - a0\n  5016: ra = a4 >>a 0x3f\n  5019: a0 = u64 [s1 + 0x130]\n  5023: a0 = ra & a0\n  5026: a1 = u64 [s1 + 0x198]\n  5030: t0 = 158, jump @1577\n      : @197 [@dyn 79] (gas: 2)\n  5037: u64 [s1 + 0x138] = a0\n  5041: t0 = 160, jump @1558\n      : @198 [@dyn 80] (gas: 18)\n  5048: t0 = a4 <u a2\n  5051: a2 = a4 - a2\n  5054: a4 = a3 <u 0x1\n  5057: a5 = a5 - a4\n  5060: a4 = u64 [a0 + 0x78]\n  5063: a4 = a4 - t0\n  5066: a3 = a3 + 0xffffffffffffffff\n  5069: u64 [a0 + 0x80] = a5\n  5073: u64 [a0 + 0x78] = a4\n  5076: t0 = a5 | a4\n  5079: u64 [a0 + 0x88] = a3\n  5083: a4 = a3 | a2\n  5086: a3 = a4 | t0\n  5089: a4 = ra & 0x1\n  5092: u64 [a0 + 0x58] = a4\n  5095: u64 [a0 + 0x70] = a2\n  5098: u64 [s1 + 336] = 0\n  5102: jump @196 if a3 != 0\n      : @199 (gas: 1)\n  5106: jump @897\n      : @200 (gas: 11)\n  5109: a0 = s1 + 0x2918\n  5113: u64 [a0 + 736] = 0\n  5117: u64 [a0 + 728] = 0\n  5121: u64 [a0 + 720] = 0\n  5125: u64 [a0 + 712] = 0\n  5129: a0 = s1 + 0x3000\n  5133: i32 a0 = a0 + 0xfffffffffffffbe0\n  5137: ra = 0xa2\n  5141: ecalli 16 // 'value_transferred'\n  5143: t0 = 0xa4\n  5147: jump @1547\n      : @201 [@dyn 81] (gas: 1)\n  5151: t0 = 164, jump @1547\n      : @202 [@dyn 82] (gas: 1)\n  5158: t0 = 166, jump @1557\n      : @203 [@dyn 83] (gas: 1)\n  5165: jump @205 if a0 == 0\n      : @204 (gas: 1)\n  5168: jump @818\n      : @205 (gas: 3)\n  5171: a0 = u64 [s1 + 0x198]\n  5175: a0 = i32 [a0]\n  5177: jump @207 if a0 >u 67\n      : @206 (gas: 1)\n  5181: jump @819\n      : @207 (gas: 4)\n  5184: a0 = s1 + 0x1620\n  5188: ra = 0xa8\n  5192: t0 = 0x5a8\n  5196: jump @1570\n      : @208 [@dyn 84] (gas: 13)\n  5200: a0 = s1 + 0x1118\n  5204: a2 = a0 + 0x500\n  5208: a1 = u64 [a2 + 0x18]\n  5211: u64 [s1 + 0x168] = a1\n  5215: a1 = u64 [a2 + 0x10]\n  5218: u64 [s1 + 0x198] = a1\n  5222: a0 = u64 [a2 + 0x8]\n  5225: u64 [s1 + 0x190] = a0\n  5229: a0 = s1 + 0x3000\n  5233: i32 a0 = a0 + 0xfffffffffffffc00\n  5237: a1 = 0x24\n  5240: ecalli 2 // 'call_data_load'\n  5242: fallthrough\n      : @209 (gas: 19)\n  5243: a0 = s1 + 0x2918\n  5247: a4 = u64 [a0 + 0x300]\n  5251: a5 = a0 + 0x200\n  5255: a3 = u64 [a5 + 0xf8]\n  5259: a2 = u64 [a5 + 0xf0]\n  5263: a1 = u64 [a5 + 0xe8]\n  5267: a5 = s1 + 0x100\n  5271: u64 [a5 + 0x80] = a2\n  5275: u64 [a5 + 0x70] = a4\n  5278: a0 = a2 | a4\n  5281: u64 [a5 + 0x88] = a1\n  5285: a1 = a1 | a3\n  5288: a1 = a1 | a0\n  5291: a1 = a1 >> 0x20\n  5294: u64 [a5 + 0x78] = a3\n  5297: a0 = a0 | a3\n  5300: a0 = a0 << 0x20\n  5303: a0 = a0 | a1\n  5306: jump @211 if a0 == 0\n      : @210 (gas: 1)\n  5309: jump @820\n      : @211 (gas: 15)\n  5312: a3 = s1 + 0x100\n  5316: a0 = u64 [a3 + 0x68]\n  5319: a0 = a0 << 0x20\n  5322: a0 = a0 >> 0x20\n  5325: a2 = s1 + 0x1118\n  5329: u64 [a2 + 1280] = 0\n  5333: a1 = u64 [a3 + 0x90]\n  5337: a4 = a2 + 0x400\n  5341: u64 [a4 + 0xe8] = a1\n  5345: a1 = u64 [a3 + 0x98]\n  5349: u64 [a4 + 0xf0] = a1\n  5353: a1 = s1 + 0x1600\n  5357: u64 [a4 + 0xf8] = a0\n  5361: a0 = 0\n  5363: ra = 170, jump @24\n      : @212 [@dyn 85] (gas: 3)\n  5369: t0 = 0xac\n  5373: a1 = s1 + 0x1118\n  5377: fallthrough\n      : @213 [@dyn 86] (gas: 8)\n  5378: u64 [a1 + 1248] = 0\n  5382: u64 [a1 + 1240] = 0\n  5386: u64 [a1 + 1224] = 0x1\n  5391: a2 = a1\n  5393: a0 = 0x20\n  5396: a1 = s1 + 0x15e0\n  5400: u64 [a2 + 1232] = 0\n  5404: ra = 174, jump @24\n      : @214 [@dyn 87] (gas: 3)\n  5410: a1 = 0x20170\n  5415: a0 = i32 [0x20170]\n  5420: jump @216 if a0 >u 63\n      : @215 (gas: 2)\n  5424: u32 [0x20170] = 0x40\n  5430: fallthrough\n      : @216 (gas: 15)\n  5431: a0 = sp + 0xffffffffffffffe0\n  5434: a2 = a0 & 0xffffffffffffffe0\n  5437: u64 [s1 + 0x168] = a2\n  5441: sp = a2\n  5443: a0 = 0x20180\n  5448: i32 a0 = a0 + 0\n  5450: u64 [s1 + 0x198] = a1\n  5454: i32 a2 = a2 + 0\n  5456: a1 = 0x40\n  5459: u64 [s1 + 0x190] = a0\n  5463: ra = 0xb0\n  5467: ecalli 8 // 'hash_keccak_256'\n  5469: a3 = u64 [s1 + 0x168]\n  5473: t0 = 0xb2\n  5477: jump @1565\n      : @217 [@dyn 88] (gas: 2)\n  5481: a3 = u64 [s1 + 0x168]\n  5485: t0 = 178, jump @1565\n      : @218 [@dyn 89] (gas: 14)\n  5492: u64 [s1 + 0x160] = a0\n  5496: a0 = reverse a1\n  5498: u64 [s1 + 0x158] = a0\n  5502: a0 = reverse a2\n  5504: u64 [s1 + 0x150] = a0\n  5508: a0 = reverse a3\n  5510: u64 [s1 + 0x148] = a0\n  5514: a0 = sp + 0xffffffffffffffe0\n  5517: a0 = a0 & 0xffffffffffffffe0\n  5520: u64 [s1 + 0x168] = a0\n  5524: sp = a0\n  5526: t0 = 0xb4\n  5530: a2 = s1 + 0x1118\n  5534: fallthrough\n      : @219 [@dyn 90] (gas: 12)\n  5535: a0 = u64 [s1 + 0x170]\n  5539: a3 = a2 + 0x400\n  5543: u64 [a3 + 0xc0] = a0\n  5547: a0 = u64 [s1 + 0x178]\n  5551: u64 [a3 + 0xb8] = a0\n  5555: a0 = u64 [s1 + 0x180]\n  5559: u64 [a3 + 0xb0] = a0\n  5563: a1 = s1 + 0x15c0\n  5567: a0 = u64 [s1 + 0x188]\n  5571: u64 [a3 + 0xa8] = a0\n  5575: a0 = 0\n  5577: ra = 182, jump @24\n      : @220 [@dyn 91] (gas: 3)\n  5583: t0 = 0xb8\n  5587: a1 = s1 + 0x1118\n  5591: fallthrough\n      : @221 [@dyn 92] (gas: 13)\n  5592: a0 = u64 [s1 + 0x148]\n  5596: a2 = a1 + 0x400\n  5600: u64 [a2 + 0xa0] = a0\n  5604: a0 = u64 [s1 + 0x150]\n  5608: u64 [a2 + 0x98] = a0\n  5612: a0 = u64 [s1 + 0x158]\n  5616: u64 [a2 + 0x90] = a0\n  5620: a3 = a1\n  5622: a0 = 0x20\n  5625: a1 = s1 + 0x15a0\n  5629: a2 = u64 [s1 + 0x160]\n  5633: u64 [a3 + 0x488] = a2\n  5637: ra = 186, jump @24\n      : @222 [@dyn 93] (gas: 3)\n  5643: a1 = u64 [s1 + 0x198]\n  5647: a0 = i32 [a1]\n  5649: jump @224 if a0 >u 63\n      : @223 (gas: 2)\n  5653: u32 [a1 + 0] = 0x40\n  5656: fallthrough\n      : @224 (gas: 4)\n  5657: a0 = sp + 0xffffffffffffffe0\n  5660: a0 = a0 & 0xffffffffffffffe0\n  5663: u64 [s1 + 0x188] = a0\n  5667: t0 = 188, jump @1513\n      : @225 [@dyn 94] (gas: 21)\n  5674: ecalli 8 // 'hash_keccak_256'\n  5676: a3 = u64 [s1 + 0x188]\n  5680: a0 = u64 [a3 + 0x18]\n  5683: a1 = u64 [a3 + 0x10]\n  5686: a2 = u64 [a3 + 0x8]\n  5689: a3 = u64 [a3]\n  5691: a5 = reverse a0\n  5693: u64 [s1 + 0xd8] = a5\n  5697: a4 = reverse a1\n  5699: u64 [s1 + 0xe0] = a4\n  5703: a2 = reverse a2\n  5705: u64 [s1 + 0xf0] = a2\n  5709: a0 = reverse a3\n  5711: u64 [s1 + 0xe8] = a0\n  5715: a1 = u64 [s1 + 0x168]\n  5719: u64 [a1 + 0x18] = a0\n  5722: u64 [a1 + 0x10] = a2\n  5725: u64 [a1 + 0x8] = a4\n  5728: u64 [a1] = a5\n  5730: a0 = s1 + 0x1580\n  5734: ra = 190, jump @26\n      : @226 [@dyn 95] (gas: 3)\n  5740: t0 = 0xc0\n  5744: a1 = s1 + 0x1118\n  5748: fallthrough\n      : @227 [@dyn 96] (gas: 34)\n  5749: a2 = a1 + 0x400\n  5753: a0 = u64 [a2 + 0x78]\n  5756: u64 [s1 + 0xc8] = a0\n  5760: a0 = u64 [a2 + 0x70]\n  5763: u64 [s1 + 0xc0] = a0\n  5767: a0 = u64 [a2 + 0x68]\n  5770: u64 [s1 + 0xd0] = a0\n  5774: a0 = sp + 0xffffffffffffffe0\n  5777: a4 = a0 & 0xffffffffffffffe0\n  5780: u64 [s1 + 0x188] = a4\n  5784: sp = a4\n  5786: a1 = u64 [s1 + 0xd8]\n  5790: a1 = a1 + 0x1\n  5793: a0 = a1 <u 0x1\n  5796: a2 = u64 [s1 + 0xe0]\n  5800: a2 = a2 + a0\n  5803: a0 = a1 | a2\n  5806: a0 = a0 <u 0x1\n  5809: a5 = u64 [s1 + 0xf0]\n  5813: a3 = a5 + a0\n  5816: a0 = a3 <u a5\n  5819: a5 = u64 [s1 + 0xe8]\n  5823: a0 = a0 + a5\n  5826: u64 [s1 + 0x180] = a0\n  5830: u64 [a4 + 0x18] = a0\n  5833: u64 [s1 + 0x168] = a3\n  5837: u64 [a4 + 0x10] = a3\n  5840: u64 [s1 + 0x170] = a2\n  5844: u64 [a4 + 0x8] = a2\n  5847: u64 [s1 + 0x178] = a1\n  5851: u64 [a4] = a1\n  5853: a0 = s1 + 0x1560\n  5857: a1 = 0x40\n  5860: ra = 194, jump @22\n      : @228 [@dyn 97] (gas: 13)\n  5866: a0 = s1 + 0x1118\n  5870: a2 = a0 + 0x400\n  5874: a1 = u64 [a2 + 0x60]\n  5877: u64 [s1 + 0x110] = a1\n  5881: a1 = u64 [a2 + 0x58]\n  5884: u64 [s1 + 0xf8] = a1\n  5888: a1 = u64 [a2 + 0x50]\n  5891: u64 [s1 + 0x100] = a1\n  5895: a1 = u64 [a2 + 0x48]\n  5898: u64 [s1 + 0x108] = a1\n  5902: a0 = s1 + 0x1540\n  5906: a1 = u64 [s1 + 0x188]\n  5910: ra = 196, jump @26\n      : @229 [@dyn 98] (gas: 18)\n  5916: a3 = s1 + 0x1118\n  5920: a5 = a3 + 0x400\n  5924: a0 = u64 [a5 + 0x40]\n  5927: a1 = u64 [a5 + 0x38]\n  5930: a2 = u64 [a5 + 0x30]\n  5933: a4 = u64 [a5 + 0x28]\n  5936: u64 [s1 + 0x160] = a0\n  5940: u64 [a5] = a0\n  5942: u64 [s1 + 0x130] = a1\n  5946: a5 = a3 + 0x300\n  5950: u64 [a5 + 0xf8] = a1\n  5954: u64 [s1 + 0x128] = a2\n  5958: u64 [a5 + 0xf0] = a2\n  5962: a0 = s1 + 0x1520\n  5966: a1 = s1 + 0x1500\n  5970: u64 [s1 + 0x188] = a4\n  5974: u64 [a5 + 0xe8] = a4\n  5978: ra = 198, jump @1346\n      : @230 [@dyn 99] (gas: 13)\n  5984: a3 = u64 [s1 + 0xf8]\n  5988: a4 = s1 + 0x100\n  5992: a1 = u64 [a4 + 0x10]\n  5995: a0 = u64 [a4 + 0x8]\n  5998: a2 = u64 [a4]\n  6000: a2 = a2 | a1\n  6003: a1 = a0 | a3\n  6006: a1 = a1 | a2\n  6009: a1 = a1 >> 0x20\n  6012: a2 = a2 | a3\n  6015: a2 = a2 << 0x20\n  6018: a1 = a1 | a2\n  6021: jump @232 if a1 == 0\n      : @231 (gas: 1)\n  6024: jump @794\n      : @232 (gas: 15)\n  6027: a5 = s1 + 0x1118\n  6031: t0 = u64 [a5 + 0x420]\n  6035: t1 = u64 [a5 + 0x418]\n  6039: a1 = u64 [a5 + 0x410]\n  6043: a2 = u64 [a5 + 0x408]\n  6047: u64 [s1 + 0x140] = a2\n  6051: u64 [a5 + 0x3c8] = a2\n  6055: u64 [s1 + 0x150] = a1\n  6059: u64 [a5 + 0x3d0] = a1\n  6063: u64 [s1 + 0x148] = t1\n  6067: u64 [a5 + 0x3d8] = t1\n  6071: a1 = s1 + 0x14e0\n  6075: u64 [s1 + 0x158] = t0\n  6079: u64 [a5 + 0x3e0] = t0\n  6083: ra = 200, jump @24\n      : @233 [@dyn 100] (gas: 9)\n  6089: a4 = u64 [s1 + 0xf8]\n  6093: a1 = u64 [s1 + 0x108]\n  6097: a0 = a1 + 0x20\n  6100: a5 = u64 [s1 + 0x188]\n  6104: a2 = a5 & 0x1\n  6107: a3 = u64 [s1 + 0x110]\n  6111: a3 = a3 | a4\n  6114: u64 [s1 + 0x138] = a0\n  6118: jump @235 if a2 == 0\n      : @234 (gas: 1)\n  6121: jump @504\n      : @235 (gas: 6)\n  6124: a2 = 0xffffffe0\n  6134: a2 = a1 <u a2\n  6137: a1 = u64 [s1 + 0x100]\n  6141: a2 = 0 if a1 != 0\n  6143: a2 = 0 if a3 != 0\n  6145: jump @237 if a2 != 0\n      : @236 (gas: 1)\n  6148: jump @794\n      : @237 (gas: 13)\n  6151: u64 [s1 + 0xb8] = a3\n  6155: a2 = a5 & 0xffffffffffffff00\n  6159: a3 = s1 + 0x1118\n  6163: a1 = u64 [s1 + 0x128]\n  6167: a4 = a3 + 0x300\n  6171: u64 [a4 + 0x50] = a1\n  6174: u64 [a4 + 0x48] = a2\n  6177: a1 = u64 [s1 + 0x130]\n  6181: u64 [a4 + 0x58] = a1\n  6184: a1 = s1 + 0x1460\n  6188: a2 = u64 [s1 + 0x160]\n  6192: u64 [a4 + 0x60] = a2\n  6195: ra = 202, jump @24\n      : @238 [@dyn 101] (gas: 16)\n  6201: a5 = s1 + 0x1118\n  6205: t2 = 0\n  6207: t1 = 0\n  6209: u64 [s1 + 400] = 0\n  6213: a3 = s1 + 0x100\n  6217: a0 = u64 [a3 + 0x48]\n  6220: a1 = u64 [a3 + 0x40]\n  6223: a0 = a0 | a1\n  6226: a1 = u64 [a3 + 0x58]\n  6229: a2 = u64 [a3 + 0x50]\n  6232: a1 = a1 | a2\n  6235: a0 = a0 | a1\n  6238: a0 = a0 >u 0\n  6240: a0 = a0 << 0x5\n  6243: u64 [a3 + 0x98] = a0\n  6247: jump @706\n      : @239 (gas: 10)\n  6250: u64 [a3 + 1888] = 0\n  6254: u64 [a3 + 1880] = 0\n  6258: u64 [a3 + 1872] = 0\n  6262: u64 [a3 + 1864] = 0\n  6266: a0 = s1 + 0x3000\n  6270: i32 a0 = a0 + 0xfffffffffffff860\n  6274: ra = 0xcc\n  6278: ecalli 16 // 'value_transferred'\n  6280: t0 = 0xce\n  6284: jump @1580\n      : @240 [@dyn 102] (gas: 1)\n  6288: t0 = 206, jump @1580\n      : @241 [@dyn 103] (gas: 1)\n  6295: t0 = 208, jump @1591\n      : @242 [@dyn 104] (gas: 1)\n  6302: jump @244 if a0 == 0\n      : @243 (gas: 1)\n  6305: jump @821\n      : @244 (gas: 1)\n  6308: t0 = 210, jump @1569\n      : @245 [@dyn 105] (gas: 1)\n  6315: jump @247 if a1 <u a0\n      : @246 (gas: 1)\n  6318: jump @822\n      : @247 (gas: 4)\n  6321: a0 = s1 + 0x3c0\n  6325: ra = 0xd4\n  6329: t0 = 0x5a8\n  6333: jump @1570\n      : @248 [@dyn 106] (gas: 10)\n  6337: a0 = u64 [s1 + 0x3c0]\n  6341: a1 = u64 [s1 + 0x3c8]\n  6345: a2 = u32 [s1 + 0x3d0]\n  6349: u64 [s1 + 952] = 0\n  6353: u64 [s1 + 0x3b0] = a2\n  6357: u64 [s1 + 0x3a8] = a1\n  6361: a1 = s1 + 0x3a0\n  6365: u64 [s1 + 0x3a0] = a0\n  6369: a0 = 0\n  6371: ra = 214, jump @24\n      : @249 [@dyn 107] (gas: 7)\n  6377: u64 [s1 + 920] = 0\n  6381: u64 [s1 + 912] = 0\n  6385: u64 [s1 + 896] = 0x2\n  6390: a0 = 0x20\n  6393: a1 = s1 + 0x380\n  6397: u64 [s1 + 904] = 0\n  6401: ra = 216, jump @24\n      : @250 [@dyn 108] (gas: 2)\n  6407: a1 = i32 [0x20170]\n  6412: jump @252 if a1 >u 63\n      : @251 (gas: 4)\n  6416: a1 = 0x40\n  6419: u32 [0x20170] = a1\n  6424: t0 = 0xda\n  6428: jump @1575\n      : @252 (gas: 1)\n  6432: t0 = 218, jump @1575\n      : @253 [@dyn 109] (gas: 7)\n  6439: a0 = 0x20180\n  6444: i32 a0 = a0 + 0\n  6446: i32 a2 = a2 + 0\n  6448: a1 = 0x40\n  6451: ra = 0xdc\n  6455: ecalli 8 // 'hash_keccak_256'\n  6457: fallthrough\n      : @254 [@dyn 110] (gas: 6)\n  6458: a3 = u64 [s1 + 0x198]\n  6462: a0 = u64 [a3 + 0x18]\n  6465: a1 = u64 [a3 + 0x10]\n  6468: a2 = u64 [a3 + 0x8]\n  6471: a3 = u64 [a3]\n  6473: t0 = 222, jump @1526\n      : @255 [@dyn 111] (gas: 9)\n  6480: a4 = s1 + 0x2118\n  6484: a5 = a4 + 0x700\n  6488: u64 [a5 + 0x80] = a3\n  6492: u64 [a5 + 0x78] = a2\n  6495: u64 [a5 + 0x70] = a1\n  6498: u64 [a5 + 0x68] = a0\n  6501: a0 = s1 + 0x360\n  6505: a1 = s1 + 0x2880\n  6509: ra = 224, jump @26\n      : @256 [@dyn 112] (gas: 5)\n  6515: a0 = u64 [s1 + 0x360]\n  6519: u64 [s1 + 0x198] = a0\n  6523: a0 = s1 + 0x340\n  6527: a1 = 0x40\n  6530: ra = 226, jump @22\n      : @257 [@dyn 113] (gas: 1)\n  6536: t0 = 228, jump @1553\n      : @258 [@dyn 114] (gas: 1)\n  6543: jump @260 if a1 == 0\n      : @259 (gas: 1)\n  6546: jump @794\n      : @260 (gas: 11)\n  6549: a1 = u64 [s1 + 0x198]\n  6553: a1 = a1 << 0x20\n  6556: a2 = a1 >> 0x20\n  6559: u64 [s1 + 824] = 0\n  6563: u64 [s1 + 816] = 0\n  6567: u64 [s1 + 808] = 0\n  6571: a1 = s1 + 0x320\n  6575: u64 [s1 + 0x320] = a2\n  6579: u64 [s1 + 0x198] = a0\n  6583: ra = 0x12c\n  6587: jump @24\n      : @261 (gas: 10)\n  6590: u64 [a2 + 160] = 0\n  6594: u64 [a2 + 152] = 0\n  6598: u64 [a2 + 144] = 0\n  6602: u64 [a2 + 136] = 0\n  6606: a0 = s1 + 0x3000\n  6610: i32 a0 = a0 + 0xfffffffffffff9a0\n  6614: ra = 0xe6\n  6618: ecalli 16 // 'value_transferred'\n  6620: a3 = s1 + 0x2918\n  6624: jump @263\n      : @262 [@dyn 115] (gas: 2)\n  6626: a3 = s1 + 0x2918\n  6630: fallthrough\n      : @263 (gas: 8)\n  6631: a0 = u64 [a3 + 0x98]\n  6635: a1 = u64 [a3 + 0xa0]\n  6639: a2 = u64 [a3 + 0x90]\n  6643: a3 = u64 [a3 + 0x88]\n  6647: a1 = a1 | a2\n  6650: a0 = a0 | a3\n  6653: a0 = a0 | a1\n  6656: jump @265 if a0 == 0\n      : @264 (gas: 1)\n  6659: jump @823\n      : @265 (gas: 1)\n  6662: t0 = 232, jump @1569\n      : @266 [@dyn 116] (gas: 1)\n  6669: jump @268 if a1 <u a0\n      : @267 (gas: 1)\n  6672: jump @824\n      : @268 (gas: 6)\n  6675: a0 = s1 + 0x3000\n  6679: i32 a0 = a0 + 0xfffffffffffff9c0\n  6683: a1 = 0x4\n  6686: ecalli 2 // 'call_data_load'\n  6688: a3 = s1 + 0x2918\n  6692: fallthrough\n      : @269 (gas: 7)\n  6693: a0 = u64 [a3 + 0xc0]\n  6697: a1 = u64 [a3 + 0xb8]\n  6701: a2 = u64 [a3 + 0xb0]\n  6705: a0 = a0 | a1\n  6708: a1 = a2 <u 0x1\n  6711: a1 = 0 if a0 != 0\n  6713: jump @271 if a1 != 0\n      : @270 (gas: 1)\n  6716: jump @825\n      : @271 (gas: 6)\n  6719: a0 = u64 [a3 + 0xa8]\n  6723: u64 [s1 + 0x120] = a0\n  6727: a0 = s1 + 0x3000\n  6731: i32 a0 = a0 + 0xfffffffffffff9e0\n  6735: ecalli 9 // 'now'\n  6737: fallthrough\n      : @272 (gas: 49)\n  6738: a0 = s1 + 0x2918\n  6742: t2 = u64 [a0 + 0xe0]\n  6746: a3 = u64 [a0 + 0xd8]\n  6750: u64 [s1 + 0x150] = a3\n  6754: t0 = u64 [a0 + 0xd0]\n  6758: ra = u64 [a0 + 0xc8]\n  6762: a0 = clz t2\n  6764: a1 = clz a3\n  6766: a2 = a1 + 0x40\n  6769: a2 = a0 if t2 != 0\n  6772: a0 = clz t0\n  6774: a1 = clz ra\n  6776: a1 = a1 + 0x40\n  6779: a1 = a0 if t0 != 0\n  6782: a0 = a1 + 0x80\n  6786: a3 = a3 | t2\n  6789: a2 = a0 if a3 == 0\n  6792: a5 = a0 <u a1\n  6795: a5 = 0 if a3 != 0\n  6797: a4 = a5 >u 0\n  6799: a0 = a2 <u 0xf0\n  6803: a3 = a0 ^ 0x1\n  6806: a4 = a3 if a5 == 0\n  6809: a0 = a4 <u 0x1\n  6812: a0 = a0 + 0xffffffffffffffff\n  6815: a1 = -a4\n  6817: a5 = -a5\n  6819: a3 = a5 - a3\n  6822: t1 = 0xef - a2\n  6826: u64 [s1 + 0x198] = a1\n  6830: a5 = a1 >u 0\n  6832: a1 = a0 >u 0\n  6834: a1 = a5 if a0 == 0\n  6837: a5 = t1 <u 0x100\n  6841: a5 = a5 ^ 0x1\n  6844: a2 = a3 >u 0\n  6846: a5 = a2 if a3 != 0\n  6849: a5 = a1 if a4 != 0\n  6852: u64 [s1 + 0x140] = t2\n  6856: u64 [s1 + 0x158] = t0\n  6860: a1 = t0 | t2\n  6863: t2 = u64 [s1 + 0x150]\n  6867: a2 = ra | t2\n  6870: a1 = a1 | a2\n  6873: a1 = a1 <u 0x1\n  6876: a1 = a1 | a5\n  6879: a4 = ra\n  6881: a4 = 0 if a1 != 0\n  6883: jump @274 if a1 == 0\n      : @273 (gas: 1)\n  6886: jump @528\n      : @274 (gas: 6)\n  6889: a1 = t1 ^ 0xff\n  6893: a5 = u64 [s1 + 0x198]\n  6897: a1 = a1 | a5\n  6900: a2 = a3 | a0\n  6903: a1 = a1 | a2\n  6906: jump @276 if a1 != 0\n      : @275 (gas: 1)\n  6909: jump @528\n      : @276 (gas: 20)\n  6912: t0 = ra\n  6914: a2 = t1 + 0x1\n  6917: u64 [s1 + 0x190] = a2\n  6921: a1 = a2 <u 0x1\n  6924: a1 = a1 + a3\n  6927: u64 [s1 + 0x180] = a1\n  6931: a1 = a1 | a2\n  6934: a1 = a1 <u 0x1\n  6937: a1 = a1 + a5\n  6940: u64 [s1 + 0x170] = a1\n  6944: a1 = a1 <u a5\n  6947: a0 = a0 + a1\n  6950: u64 [s1 + 0x178] = a0\n  6954: a1 = 0xff - t1\n  6958: u64 [s1 + 0x168] = a1\n  6962: a2 = 0x80 - a1\n  6966: a0 = ra\n  6968: u64 [s1 + 0x148] = t0\n  6972: a1 = u64 [s1 + 0x158]\n  6976: ra = 234, jump @1592\n      : @277 [@dyn 117] (gas: 1)\n  6983: t0 = 236, jump @1582\n      : @278 [@dyn 118] (gas: 1)\n  6990: ra = 238, jump @1597\n      : @279 [@dyn 119] (gas: 7)\n  6997: u64 [s1 + 0x130] = a0\n  7001: u64 [s1 + 0x128] = a1\n  7005: a0 = u64 [s1 + 0x168]\n  7009: a2 = a0 + 0xffffffffffffff80\n  7012: a0 = u64 [s1 + 0x148]\n  7016: a1 = u64 [s1 + 0x158]\n  7020: ra = 240, jump @1597\n      : @280 [@dyn 120] (gas: 1)\n  7027: t0 = 242, jump @1588\n      : @281 [@dyn 121] (gas: 3)\n  7034: a0 = u64 [s1 + 0x148]\n  7038: a1 = u64 [s1 + 0x158]\n  7042: ra = 244, jump @1597\n      : @282 [@dyn 122] (gas: 11)\n  7049: a4 = u64 [s1 + 0x138]\n  7053: t0 = u64 [s1 + 0x170]\n  7057: a5 = u64 [s1 + 0x178]\n  7061: a2 = u64 [s1 + 0x180]\n  7065: a5 = a5 | a2\n  7068: a3 = u64 [s1 + 0x190]\n  7072: a3 = a3 | t0\n  7075: a3 = a3 | a5\n  7078: a0 = 0 if a4 == 0\n  7080: u64 [s1 + 0x188] = a0\n  7084: jump @284 if a3 == 0\n      : @283 (gas: 1)\n  7087: jump @515\n      : @284 (gas: 2)\n  7090: a4 = 0\n  7092: jump @527\n      : @285 (gas: 10)\n  7095: u64 [a2 + 544] = 0\n  7099: u64 [a2 + 536] = 0\n  7103: u64 [a2 + 528] = 0\n  7107: u64 [a2 + 520] = 0\n  7111: a0 = s1 + 0x3000\n  7115: i32 a0 = a0 + 0xfffffffffffffb20\n  7119: ra = 0xf6\n  7123: ecalli 16 // 'value_transferred'\n  7125: t0 = 0xf8\n  7129: jump @1547\n      : @286 [@dyn 123] (gas: 1)\n  7133: t0 = 248, jump @1547\n      : @287 [@dyn 124] (gas: 8)\n  7140: a0 = u64 [a4 + 0x18]\n  7143: a1 = u64 [a4 + 0x20]\n  7146: a2 = u64 [a4 + 0x10]\n  7149: a3 = u64 [a4 + 0x8]\n  7152: a1 = a1 | a2\n  7155: a0 = a0 | a3\n  7158: a0 = a0 | a1\n  7161: jump @289 if a0 == 0\n      : @288 (gas: 1)\n  7164: jump @826\n      : @289 (gas: 3)\n  7167: a0 = u64 [s1 + 0x198]\n  7171: a0 = i32 [a0]\n  7173: jump @291 if a0 >u 3\n      : @290 (gas: 1)\n  7177: jump @827\n      : @291 (gas: 4)\n  7180: a0 = s1 + 0x7ff\n  7184: a0 = a0 + 0x781\n  7188: a1 = 0x40\n  7191: ra = 250, jump @22\n      : @292 [@dyn 125] (gas: 15)\n  7197: a3 = s1 + 0x7ff\n  7201: a3 = a3 + 0x119\n  7205: a5 = a3 + 0x600\n  7209: a4 = u64 [a5 + 0x80]\n  7213: a1 = u64 [a5 + 0x78]\n  7216: a2 = u64 [a5 + 0x70]\n  7219: a0 = u64 [a5 + 0x68]\n  7222: a4 = a4 | a2\n  7225: a2 = a0 | a1\n  7228: a2 = a2 | a4\n  7231: a2 = a2 >> 0x20\n  7234: a1 = a1 | a4\n  7237: a1 = a1 << 0x20\n  7240: a1 = a1 | a2\n  7243: jump @294 if a1 == 0\n      : @293 (gas: 1)\n  7246: jump @794\n      : @294 (gas: 10)\n  7249: a1 = u64 [0x200c0]\n  7254: u64 [a3 + 1632] = 0\n  7258: u64 [a3 + 1624] = 0\n  7262: u64 [a3 + 0x648] = a1\n  7266: a1 = s1 + 0x7ff\n  7270: a1 = a1 + 0x761\n  7274: u64 [a3 + 1616] = 0\n  7278: u64 [s1 + 0x198] = a0\n  7282: ra = 0x12c\n  7286: jump @24\n      : @295 (gas: 11)\n  7289: a0 = s1 + 0x2918\n  7293: u64 [a0 + 704] = 0\n  7297: u64 [a0 + 696] = 0\n  7301: u64 [a0 + 688] = 0\n  7305: u64 [a0 + 680] = 0\n  7309: a0 = s1 + 0x3000\n  7313: i32 a0 = a0 + 0xfffffffffffffbc0\n  7317: ra = 0xfc\n  7321: ecalli 16 // 'value_transferred'\n  7323: t0 = 0xfe\n  7327: jump @1547\n      : @296 [@dyn 126] (gas: 1)\n  7331: t0 = 254, jump @1547\n      : @297 [@dyn 127] (gas: 8)\n  7338: a0 = u64 [a4 + 0xb8]\n  7342: a1 = u64 [a4 + 0xc0]\n  7346: a2 = u64 [a4 + 0xb0]\n  7350: a3 = u64 [a4 + 0xa8]\n  7354: a1 = a1 | a2\n  7357: a0 = a0 | a3\n  7360: a0 = a0 | a1\n  7363: jump @299 if a0 == 0\n      : @298 (gas: 1)\n  7366: jump @828\n      : @299 (gas: 3)\n  7369: a0 = u64 [s1 + 0x198]\n  7373: a0 = i32 [a0]\n  7375: jump @301 if a0 >u 99\n      : @300 (gas: 1)\n  7379: jump @829\n      : @301 (gas: 4)\n  7382: a0 = s1 + 0x12c0\n  7386: ra = 0x100\n  7390: t0 = 0x5a8\n  7394: jump @1570\n      : @302 [@dyn 128] (gas: 11)\n  7398: a1 = s1 + 0x1118\n  7402: a0 = u64 [a1 + 0x1a8]\n  7406: u64 [s1 + 0x198] = a0\n  7410: a0 = u64 [a1 + 0x1b0]\n  7414: u64 [s1 + 0x190] = a0\n  7418: a0 = u32 [a1 + 0x1b8]\n  7422: u64 [s1 + 0x178] = a0\n  7426: a0 = s1 + 0x12a0\n  7430: ra = 0x102\n  7434: t0 = 0x5ac\n  7438: jump @1585\n      : @303 [@dyn 129] (gas: 7)\n  7442: a0 = s1 + 0x1118\n  7446: a0 = u64 [a0 + 0x188]\n  7450: u64 [s1 + 0x180] = a0\n  7454: a0 = s1 + 0x1280\n  7458: ra = 0x104\n  7462: t0 = 0x5b2\n  7466: jump @1585\n      : @304 [@dyn 130] (gas: 3)\n  7470: t0 = 0x106\n  7474: a2 = s1 + 0x1118\n  7478: fallthrough\n      : @305 [@dyn 131] (gas: 14)\n  7479: a3 = a2 + 0x100\n  7483: a0 = u64 [a3 + 0x68]\n  7486: a4 = s1 + 0x100\n  7490: u64 [a4 + 0x88] = a0\n  7494: u64 [a2 + 352] = 0\n  7498: a0 = u64 [a4 + 0x78]\n  7501: u64 [a3 + 0x58] = a0\n  7504: a0 = u64 [a4 + 0x90]\n  7508: u64 [a3 + 0x50] = a0\n  7511: a1 = s1 + 0x1260\n  7515: a0 = u64 [a4 + 0x98]\n  7519: u64 [a3 + 0x48] = a0\n  7522: a0 = 0\n  7524: ra = 264, jump @24\n      : @306 [@dyn 132] (gas: 3)\n  7530: t0 = 0x10a\n  7534: a1 = s1 + 0x1118\n  7538: fallthrough\n      : @307 [@dyn 133] (gas: 8)\n  7539: u64 [a1 + 320] = 0\n  7543: u64 [a1 + 312] = 0\n  7547: u64 [a1 + 296] = 0x3\n  7552: a2 = a1\n  7554: a0 = 0x20\n  7557: a1 = s1 + 0x1240\n  7561: u64 [a2 + 304] = 0\n  7565: ra = 268, jump @24\n      : @308 [@dyn 134] (gas: 3)\n  7571: a1 = 0x20170\n  7576: a0 = i32 [0x20170]\n  7581: jump @310 if a0 >u 63\n      : @309 (gas: 2)\n  7585: u32 [0x20170] = 0x40\n  7591: fallthrough\n      : @310 (gas: 13)\n  7592: a0 = sp + 0xffffffffffffffe0\n  7595: a2 = a0 & 0xffffffffffffffe0\n  7598: u64 [s1 + 0x178] = a2\n  7602: sp = a2\n  7604: a0 = 0x20180\n  7609: i32 a0 = a0 + 0\n  7611: i32 a2 = a2 + 0\n  7613: u64 [s1 + 0x198] = a1\n  7617: a1 = 0x40\n  7620: u64 [s1 + 0x190] = a0\n  7624: ra = 0x10e\n  7628: ecalli 8 // 'hash_keccak_256'\n  7630: fallthrough\n      : @311 [@dyn 135] (gas: 8)\n  7631: a3 = u64 [s1 + 0x178]\n  7635: a0 = u64 [a3 + 0x18]\n  7638: a1 = u64 [a3 + 0x10]\n  7641: a2 = u64 [a3 + 0x8]\n  7644: a3 = u64 [a3]\n  7646: a0 = reverse a0\n  7648: u64 [s1 + 0x178] = a0\n  7652: t0 = 272, jump @1561\n      : @312 [@dyn 136] (gas: 3)\n  7659: t0 = 0x112\n  7663: a2 = s1 + 0x1118\n  7667: fallthrough\n      : @313 [@dyn 137] (gas: 8)\n  7668: u64 [a2 + 288] = 0\n  7672: u64 [a2 + 280] = 0\n  7676: u64 [a2 + 272] = 0\n  7680: a1 = s1 + 0x1220\n  7684: a0 = u64 [s1 + 0x180]\n  7688: u64 [a2 + 0x108] = a0\n  7692: a0 = 0\n  7694: ra = 276, jump @24\n      : @314 [@dyn 138] (gas: 13)\n  7700: a0 = u64 [s1 + 0x160]\n  7704: a1 = s1 + 0x1118\n  7708: u64 [a1 + 0x100] = a0\n  7712: a0 = u64 [s1 + 0x168]\n  7716: u64 [a1 + 0xf8] = a0\n  7720: a0 = u64 [s1 + 0x170]\n  7724: u64 [a1 + 0xf0] = a0\n  7728: a3 = a1\n  7730: a0 = 0x20\n  7733: a1 = s1 + 0x1200\n  7737: a2 = u64 [s1 + 0x178]\n  7741: u64 [a3 + 0xe8] = a2\n  7745: ra = 278, jump @24\n      : @315 [@dyn 139] (gas: 3)\n  7751: a1 = u64 [s1 + 0x198]\n  7755: a0 = i32 [a1]\n  7757: jump @317 if a0 >u 63\n      : @316 (gas: 2)\n  7761: u32 [a1 + 0] = 0x40\n  7764: fallthrough\n      : @317 (gas: 4)\n  7765: a0 = sp + 0xffffffffffffffe0\n  7768: a0 = a0 & 0xffffffffffffffe0\n  7771: u64 [s1 + 0x180] = a0\n  7775: t0 = 280, jump @1513\n      : @318 [@dyn 140] (gas: 5)\n  7781: ra = 0x11a\n  7785: ecalli 8 // 'hash_keccak_256'\n  7787: a3 = u64 [s1 + 0x180]\n  7791: t0 = 0x11c\n  7795: jump @1517\n      : @319 [@dyn 141] (gas: 2)\n  7798: a3 = u64 [s1 + 0x180]\n  7802: t0 = 284, jump @1517\n      : @320 [@dyn 142] (gas: 13)\n  7808: u64 [s1 + 0x180] = a0\n  7812: sp = a0\n  7814: a0 = u64 [s1 + 0x188]\n  7818: a0 = a0 << 0x20\n  7821: a0 = a0 >> 0x20\n  7824: a2 = s1 + 0x1118\n  7828: u64 [a2 + 224] = 0\n  7832: u64 [a2 + 216] = 0\n  7836: u64 [a2 + 208] = 0\n  7840: a1 = s1 + 0x11e0\n  7844: u64 [a2 + 0xc8] = a0\n  7848: a0 = 0\n  7850: ra = 286, jump @24\n      : @321 [@dyn 143] (gas: 13)\n  7856: a0 = u64 [s1 + 0x160]\n  7860: a1 = s1 + 0x1118\n  7864: u64 [a1 + 0xc0] = a0\n  7868: a0 = u64 [s1 + 0x168]\n  7872: u64 [a1 + 0xb8] = a0\n  7876: a0 = u64 [s1 + 0x170]\n  7880: u64 [a1 + 0xb0] = a0\n  7884: a3 = a1\n  7886: a0 = 0x20\n  7889: a1 = s1 + 0x11c0\n  7893: a2 = u64 [s1 + 0x178]\n  7897: u64 [a3 + 0xa8] = a2\n  7901: ra = 288, jump @24\n      : @322 [@dyn 144] (gas: 3)\n  7907: a1 = u64 [s1 + 0x198]\n  7911: a0 = i32 [a1]\n  7913: jump @324 if a0 >=u 64\n      : @323 (gas: 2)\n  7917: u32 [a1 + 0] = 0x40\n  7920: fallthrough\n      : @324 (gas: 4)\n  7921: a0 = sp + 0xffffffffffffffe0\n  7924: a0 = a0 & 0xffffffffffffffe0\n  7927: u64 [s1 + 0x198] = a0\n  7931: t0 = 290, jump @1513\n      : @325 [@dyn 145] (gas: 5)\n  7937: ra = 0x124\n  7941: ecalli 8 // 'hash_keccak_256'\n  7943: a3 = u64 [s1 + 0x198]\n  7947: t0 = 0x126\n  7951: jump @1543\n      : @326 [@dyn 146] (gas: 2)\n  7955: a3 = u64 [s1 + 0x198]\n  7959: t0 = 294, jump @1543\n      : @327 [@dyn 147] (gas: 2)\n  7966: a0 = s1 + 0x11a0\n  7970: ra = 296, jump @26\n      : @328 [@dyn 148] (gas: 6)\n  7976: a0 = s1 + 0x1118\n  7980: a0 = u64 [a0 + 0x88]\n  7984: u64 [s1 + 0x198] = a0\n  7988: a0 = s1 + 0x1180\n  7992: a1 = 0x40\n  7995: ra = 298, jump @22\n      : @329 [@dyn 149] (gas: 13)\n  8001: a3 = s1 + 0x1118\n  8005: a4 = u64 [a3 + 0x80]\n  8009: a1 = u64 [a3 + 0x78]\n  8012: a2 = u64 [a3 + 0x70]\n  8015: a0 = u64 [a3 + 0x68]\n  8018: a4 = a4 | a2\n  8021: a2 = a0 | a1\n  8024: a2 = a2 | a4\n  8027: a2 = a2 >> 0x20\n  8030: a1 = a1 | a4\n  8033: a1 = a1 << 0x20\n  8036: a1 = a1 | a2\n  8039: jump @331 if a1 == 0\n      : @330 (gas: 1)\n  8042: jump @794\n      : @331 (gas: 8)\n  8045: a1 = u8 [s1 + 0x198]\n  8049: u64 [a3 + 96] = 0\n  8052: u64 [a3 + 88] = 0\n  8055: u64 [a3 + 0x48] = a1\n  8058: a1 = s1 + 0x1160\n  8062: u64 [a3 + 80] = 0\n  8065: u64 [s1 + 0x198] = a0\n  8069: ra = 300, jump @24\n      : @332 [@dyn 150] (gas: 4)\n  8075: a1 = 0x20\n  8078: a0 = u64 [s1 + 0x198]\n  8082: ra = 0x376\n  8086: jump @39\n      : @333 (gas: 10)\n  8089: u64 [a3 + 1952] = 0\n  8093: u64 [a3 + 1944] = 0\n  8097: u64 [a3 + 1936] = 0\n  8101: u64 [a3 + 1928] = 0\n  8105: a0 = s1 + 0x3000\n  8109: i32 a0 = a0 + 0xfffffffffffff8a0\n  8113: ra = 0x12e\n  8117: ecalli 16 // 'value_transferred'\n  8119: t0 = 0x130\n  8123: jump @1580\n      : @334 [@dyn 151] (gas: 1)\n  8127: t0 = 304, jump @1580\n      : @335 [@dyn 152] (gas: 8)\n  8134: a0 = u64 [a4 + 0x98]\n  8138: a1 = u64 [a4 + 0xa0]\n  8142: a2 = u64 [a4 + 0x90]\n  8146: a3 = u64 [a4 + 0x88]\n  8150: a1 = a1 | a2\n  8153: a0 = a0 | a3\n  8156: a0 = a0 | a1\n  8159: jump @337 if a0 == 0\n      : @336 (gas: 1)\n  8162: jump @830\n      : @337 (gas: 1)\n  8165: t0 = 306, jump @1569\n      : @338 [@dyn 153] (gas: 1)\n  8172: jump @340 if a1 <u a0\n      : @339 (gas: 1)\n  8175: jump @831\n      : @340 (gas: 4)\n  8178: a0 = s1 + 0x500\n  8182: ra = 0x134\n  8186: t0 = 0x5a8\n  8190: jump @1570\n      : @341 [@dyn 154] (gas: 11)\n  8194: a0 = u64 [s1 + 0x500]\n  8198: a1 = u64 [s1 + 0x508]\n  8202: a2 = u32 [s1 + 0x510]\n  8206: u64 [s1 + 1272] = 0\n  8210: a3 = s1 + 0x400\n  8214: u64 [a3 + 0xf0] = a2\n  8218: u64 [a3 + 0xe8] = a1\n  8222: a1 = s1 + 0x4e0\n  8226: u64 [a3 + 0xe0] = a0\n  8230: a0 = 0\n  8232: ra = 310, jump @24\n      : @342 [@dyn 155] (gas: 7)\n  8238: u64 [s1 + 1240] = 0\n  8242: u64 [s1 + 1232] = 0\n  8246: u64 [s1 + 1224] = 0\n  8250: a0 = 0x20\n  8253: a1 = s1 + 0x4c0\n  8257: u64 [s1 + 1216] = 0\n  8261: ra = 312, jump @24\n      : @343 [@dyn 156] (gas: 1)\n  8267: t0 = 314, jump @1531\n      : @344 [@dyn 157] (gas: 2)\n  8273: a1 = i32 [0x20170]\n  8278: jump @346 if a1 >u 63\n      : @345 (gas: 4)\n  8282: a1 = 0x40\n  8285: u32 [0x20170] = a1\n  8290: t0 = 0x13c\n  8294: jump @1574\n      : @346 (gas: 1)\n  8298: t0 = 316, jump @1574\n      : @347 [@dyn 158] (gas: 25)\n  8305: a0 = 0x20180\n  8310: i32 a0 = a0 + 0\n  8312: i32 a2 = a2 + 0\n  8314: a1 = 0x40\n  8317: ecalli 8 // 'hash_keccak_256'\n  8319: a3 = u64 [s1 + 0x190]\n  8323: a0 = u64 [a3 + 0x18]\n  8326: a1 = u64 [a3 + 0x10]\n  8329: a2 = u64 [a3 + 0x8]\n  8332: a3 = u64 [a3]\n  8334: a5 = reverse a0\n  8336: u64 [s1 + 0x178] = a5\n  8340: a4 = reverse a1\n  8342: u64 [s1 + 0x180] = a4\n  8346: a2 = reverse a2\n  8348: u64 [s1 + 0x188] = a2\n  8352: a0 = reverse a3\n  8354: u64 [s1 + 0x190] = a0\n  8358: a1 = u64 [s1 + 0x198]\n  8362: u64 [a1 + 0x18] = a0\n  8365: u64 [a1 + 0x10] = a2\n  8368: u64 [a1 + 0x8] = a4\n  8371: u64 [a1] = a5\n  8373: a0 = s1 + 0x4a0\n  8377: ra = 318, jump @26\n      : @348 [@dyn 159] (gas: 29)\n  8383: a0 = u64 [s1 + 0x4b8]\n  8387: u64 [s1 + 0x168] = a0\n  8391: a0 = u64 [s1 + 0x4b0]\n  8395: u64 [s1 + 0x160] = a0\n  8399: a0 = u64 [s1 + 0x4a8]\n  8403: u64 [s1 + 0x198] = a0\n  8407: a0 = u64 [s1 + 0x4a0]\n  8411: u64 [s1 + 0x170] = a0\n  8415: a0 = u64 [s1 + 0x178]\n  8419: a0 = a0 + 0x1\n  8422: a1 = a0 <u 0x1\n  8425: a2 = u64 [s1 + 0x180]\n  8429: a1 = a1 + a2\n  8432: a2 = a0 | a1\n  8435: a2 = a2 <u 0x1\n  8438: a3 = u64 [s1 + 0x188]\n  8442: a2 = a2 + a3\n  8445: a3 = a2 <u a3\n  8448: a4 = u64 [s1 + 0x190]\n  8452: a3 = a3 + a4\n  8455: a4 = s1 + 0x2118\n  8459: a5 = a4 + 0x700\n  8463: u64 [a5 + 0xb0] = a1\n  8467: u64 [a5 + 0xa8] = a0\n  8471: u64 [a5 + 0xb8] = a2\n  8475: u64 [a5 + 0xc0] = a3\n  8479: a0 = s1 + 0x480\n  8483: a1 = s1 + 0x28c0\n  8487: ra = 320, jump @26\n      : @349 [@dyn 160] (gas: 10)\n  8493: a0 = u64 [s1 + 0x490]\n  8497: a1 = s1 + 0x100\n  8501: u64 [a1 + 0x58] = a0\n  8504: a0 = u64 [s1 + 0x488]\n  8508: u64 [a1 + 0x78] = a0\n  8511: a0 = u64 [s1 + 0x480]\n  8515: u64 [a1 + 0x80] = a0\n  8519: a0 = s1 + 0x460\n  8523: a1 = 0x40\n  8526: ra = 322, jump @22\n      : @350 [@dyn 161] (gas: 13)\n  8532: a1 = s1 + 0x400\n  8536: a4 = u64 [a1 + 0x78]\n  8539: a5 = u64 [a1 + 0x70]\n  8542: a3 = u64 [a1 + 0x68]\n  8545: a0 = u64 [a1 + 0x60]\n  8548: a2 = a3 | a4\n  8551: a1 = a0 | a5\n  8554: a1 = a1 | a2\n  8557: a1 = a1 >> 0x20\n  8560: a2 = a2 | a5\n  8563: a2 = a2 << 0x20\n  8566: a1 = a1 | a2\n  8569: jump @352 if a1 == 0\n      : @351 (gas: 1)\n  8572: jump @794\n      : @352 (gas: 12)\n  8575: u64 [s1 + 1112] = 0\n  8579: u64 [s1 + 1104] = 0\n  8583: a1 = u64 [s1 + 0x170]\n  8587: u64 [s1 + 0x440] = a1\n  8591: a1 = s1 + 0x440\n  8595: a2 = u64 [s1 + 0x198]\n  8599: u64 [s1 + 0x448] = a2\n  8603: u64 [s1 + 0x190] = a0\n  8607: u64 [s1 + 0x188] = a3\n  8611: u64 [s1 + 0x198] = a4\n  8615: u64 [s1 + 0x170] = a5\n  8619: ra = 324, jump @24\n      : @353 [@dyn 162] (gas: 12)\n  8625: a5 = s1 + 0x100\n  8629: a1 = u64 [a5 + 0x90]\n  8633: a0 = u64 [a5 + 0x98]\n  8637: a3 = u64 [a5 + 0x70]\n  8640: a3 = a3 | a0\n  8643: a4 = 0x100000000\n  8653: a0 = 0xffffffe0\n  8663: a0 = a1 <u a0\n  8666: a2 = u64 [a5 + 0x88]\n  8670: a0 = 0 if a2 != 0\n  8672: a0 = 0 if a3 != 0\n  8674: jump @355 if a0 != 0\n      : @354 (gas: 1)\n  8677: jump @794\n      : @355 (gas: 11)\n  8680: i32 a0 = a1 + 0x20\n  8683: u64 [s1 + 1080] = 0\n  8687: u64 [s1 + 1072] = 0\n  8691: a1 = u64 [s1 + 0x160]\n  8695: u64 [s1 + 0x420] = a1\n  8699: a1 = s1 + 0x420\n  8703: a2 = u64 [s1 + 0x168]\n  8707: u64 [s1 + 0x428] = a2\n  8711: u64 [s1 + 0x198] = a3\n  8715: u64 [s1 + 0x170] = a4\n  8719: ra = 326, jump @24\n      : @356 [@dyn 163] (gas: 10)\n  8725: a1 = s1 + 0x100\n  8729: a5 = u64 [a1 + 0x98]\n  8733: a4 = u64 [a1 + 0x88]\n  8737: a3 = u64 [a1 + 0x90]\n  8741: a0 = u64 [a1 + 0x70]\n  8744: a0 = a0 + 0xffffffffffffffc0\n  8747: a0 = a3 <u a0\n  8750: a0 = 0 if a4 != 0\n  8752: a0 = 0 if a5 != 0\n  8754: jump @358 if a0 != 0\n      : @357 (gas: 1)\n  8757: jump @794\n      : @358 (gas: 11)\n  8760: a2 = u64 [s1 + 0x178]\n  8764: a2 = a2 & 0xffffffffffffffff\n  8767: a1 = u64 [s1 + 0x180]\n  8771: a1 = a1 & 0xffffffffffffffff\n  8774: i32 a0 = a3 + 0x40\n  8777: u64 [s1 + 1048] = 0\n  8781: u64 [s1 + 1040] = 0\n  8785: u64 [s1 + 0x400] = a1\n  8789: a1 = s1 + 0x400\n  8793: u64 [s1 + 0x408] = a2\n  8797: ra = 328, jump @24\n      : @359 [@dyn 164] (gas: 9)\n  8803: a3 = s1 + 0x100\n  8807: a2 = u64 [a3 + 0x90]\n  8811: a0 = 0xffffffa0\n  8821: a0 = a2 <u a0\n  8824: a1 = u64 [a3 + 0x88]\n  8828: a0 = 0 if a1 != 0\n  8830: a1 = u64 [a3 + 0x98]\n  8834: a0 = 0 if a1 != 0\n  8836: jump @361 if a0 != 0\n      : @360 (gas: 1)\n  8839: jump @794\n      : @361 (gas: 10)\n  8842: a0 = u64 [s1 + 0x158]\n  8846: a0 = a0 << 0x20\n  8849: a1 = a0 >> 0x20\n  8852: i32 a0 = a2 + 0x60\n  8855: u64 [s1 + 1016] = 0\n  8859: u64 [s1 + 1008] = 0\n  8863: u64 [s1 + 0x3e0] = a1\n  8867: a1 = s1 + 0x3e0\n  8871: u64 [s1 + 1000] = 0\n  8875: ra = 330, jump @24\n      : @362 [@dyn 165] (gas: 3)\n  8881: a1 = 0x80\n  8885: a0 = u64 [s1 + 0x190]\n  8889: ra = 332, jump @39\n      : @363 [@dyn 166] (gas: 6)\n  8895: i32 a1 = a0 + 0\n  8897: a2 = 0x80\n  8901: a0 = 0\n  8903: ra = 0x378\n  8907: ecalli 13 // 'seal_return'\n  8909: jump @901\n      : @364 (gas: 12)\n  8912: u64 [a2 + 1504] = 0\n  8916: u64 [a2 + 1496] = 0\n  8920: u64 [a2 + 1488] = 0\n  8924: u64 [a2 + 1480] = 0\n  8928: a0 = s1 + 0x3000\n  8932: i32 a0 = a0 + 0xfffffffffffffee0\n  8936: ra = 0x14e\n  8940: ecalli 16 // 'value_transferred'\n  8942: a3 = s1 + 0x2918\n  8946: a4 = a3 + 0x500\n  8950: t0 = 0x150\n  8954: jump @1557\n      : @365 [@dyn 167] (gas: 3)\n  8957: a3 = s1 + 0x2918\n  8961: a4 = a3 + 0x500\n  8965: t0 = 336, jump @1557\n      : @366 [@dyn 168] (gas: 1)\n  8971: jump @368 if a0 == 0\n      : @367 (gas: 1)\n  8974: jump @832\n      : @368 (gas: 1)\n  8977: t0 = 338, jump @1569\n      : @369 [@dyn 169] (gas: 1)\n  8983: jump @371 if a1 <u a0\n      : @370 (gas: 1)\n  8986: jump @833\n      : @371 (gas: 6)\n  8989: a0 = s1 + 0x3000\n  8993: i32 a0 = a0 + 0xffffffffffffff00\n  8997: a1 = 0x4\n  9000: ecalli 2 // 'call_data_load'\n  9002: a3 = s1 + 0x2918\n  9006: fallthrough\n      : @372 (gas: 8)\n  9007: a0 = u64 [a3 + 0x5f8]\n  9011: a1 = u64 [a3 + 0x600]\n  9015: a2 = a0 ^ 0x1\n  9018: a2 = a2 | a1\n  9021: a0 = a0 <u 0x1\n  9024: a0 = 0 if a1 != 0\n  9026: a0 = 0 if a2 == 0\n  9028: jump @374 if a0 != 0\n      : @373 (gas: 1)\n  9031: jump @834\n      : @374 (gas: 6)\n  9034: a0 = u64 [a3 + 0x5f0]\n  9038: a1 = u64 [a3 + 0x5e8]\n  9042: u64 [s1 + 0x190] = a0\n  9046: u64 [s1 + 0x188] = a1\n  9050: a0 = a0 | a1\n  9053: jump @376 if a0 != 0\n      : @375 (gas: 1)\n  9056: jump @835\n      : @376 (gas: 9)\n  9059: a0 = 0x30180\n  9064: u64 [s1 + 0x178] = a0\n  9068: i32 a0 = a0 + 0\n  9070: u64 [s1 + 0x158] = a0\n  9074: ra = 0x154\n  9078: ecalli 4 // 'caller'\n  9080: a2 = u64 [s1 + 0x178]\n  9084: t0 = 0x156\n  9088: jump @1512\n      : @377 [@dyn 170] (gas: 2)\n  9091: a2 = u64 [s1 + 0x178]\n  9095: t0 = 342, jump @1512\n      : @378 [@dyn 171] (gas: 8)\n  9101: u64 [a2 + 1344] = 0\n  9105: a4 = a2 + 0x500\n  9109: u64 [a4 + 0x38] = a1\n  9112: u64 [a4 + 0x30] = a0\n  9115: a1 = s1 + 0x2640\n  9119: u64 [a4 + 0x28] = a3\n  9122: a0 = 0\n  9124: ra = 344, jump @24\n      : @379 [@dyn 172] (gas: 9)\n  9130: a0 = s1 + 0x2118\n  9134: u64 [a0 + 1312] = 0\n  9138: u64 [a0 + 1304] = 0\n  9142: u64 [a0 + 1296] = 0\n  9146: a2 = a0\n  9148: a0 = 0x20\n  9151: a1 = s1 + 0x2620\n  9155: u64 [a2 + 1288] = 0\n  9159: ra = 346, jump @24\n      : @380 [@dyn 173] (gas: 1)\n  9165: t0 = 348, jump @1531\n      : @381 [@dyn 174] (gas: 3)\n  9171: a2 = 0x20170\n  9176: a0 = i32 [0x20170]\n  9181: jump @383 if a0 >u 63\n      : @382 (gas: 2)\n  9185: u32 [0x20170] = 0x40\n  9191: fallthrough\n      : @383 (gas: 15)\n  9192: u64 [s1 + 0x170] = a2\n  9196: a0 = sp + 0xffffffffffffffe0\n  9199: a2 = a0 & 0xffffffffffffffe0\n  9202: u64 [s1 + 0x180] = a2\n  9206: sp = a2\n  9208: a0 = 0x20180\n  9213: i32 a0 = a0 + 0\n  9215: i32 a2 = a2 + 0\n  9217: a1 = 0x40\n  9220: u64 [s1 + 0x160] = a0\n  9224: ra = 0x15e\n  9228: ecalli 8 // 'hash_keccak_256'\n  9230: a3 = u64 [s1 + 0x180]\n  9234: t0 = 0x160\n  9238: jump @1565\n      : @384 [@dyn 175] (gas: 2)\n  9241: a3 = u64 [s1 + 0x180]\n  9245: t0 = 352, jump @1565\n      : @385 [@dyn 176] (gas: 26)\n  9251: a5 = reverse a1\n  9253: a2 = reverse a2\n  9255: a3 = reverse a3\n  9257: a4 = u64 [s1 + 0x198]\n  9261: u64 [a4 + 0x18] = a3\n  9264: u64 [a4 + 0x10] = a2\n  9267: u64 [a4 + 0x8] = a5\n  9270: u64 [a4] = a0\n  9272: a4 = sp + 0xffffffffffffffe0\n  9275: a1 = a4 & 0xffffffffffffffe0\n  9278: sp = a1\n  9280: a0 = a0 + 0x1\n  9283: a4 = a0 <u 0x1\n  9286: a5 = a5 + a4\n  9289: a4 = a0 | a5\n  9292: a4 = a4 <u 0x1\n  9295: a4 = a4 + a2\n  9298: a2 = a4 <u a2\n  9301: a2 = a2 + a3\n  9304: u64 [a1 + 0x10] = a4\n  9307: u64 [a1 + 0x8] = a5\n  9310: u64 [a1] = a0\n  9312: u64 [a1 + 0x18] = a2\n  9315: a0 = s1 + 0x2600\n  9319: u64 [s1 + 0x180] = a1\n  9323: ra = 354, jump @26\n      : @386 [@dyn 177] (gas: 2)\n  9329: a1 = s1 + 0x2118\n  9333: fallthrough\n      : @387 (gas: 12)\n  9334: a0 = u64 [a1 + 0x4e8]\n  9338: a1 = u64 [a1 + 0x4f0]\n  9342: t1 = 0xffffffffffffffff\n  9345: a2 = a0 & t1\n  9348: a3 = a1 & t1\n  9351: a5 = u64 [s1 + 0x190]\n  9355: t0 = a3 ^ a5\n  9358: a3 = a3 <u a5\n  9361: a4 = u64 [s1 + 0x188]\n  9365: a2 = a2 <u a4\n  9368: a2 = a3 if t0 != 0\n  9371: jump @389 if a2 == 0\n      : @388 (gas: 1)\n  9374: jump @840\n      : @389 (gas: 11)\n  9377: a2 = a0 <u a4\n  9380: a1 = a1 - a5\n  9383: a1 = a1 - a2\n  9386: a0 = a0 - a4\n  9389: a1 = a1 & 0xffffffffffffffff\n  9392: u64 [s1 + 0x170] = a1\n  9396: a0 = a0 & 0xffffffffffffffff\n  9399: u64 [s1 + 0x168] = a0\n  9403: a0 = s1 + 0x25e0\n  9407: a1 = u64 [s1 + 0x180]\n  9411: ra = 356, jump @26\n      : @390 [@dyn 178] (gas: 14)\n  9417: a1 = s1 + 0x2118\n  9421: a0 = u64 [a1 + 0x4e0]\n  9425: a1 = u64 [a1 + 0x4d8]\n  9429: a2 = s1 + 0x2918\n  9433: a3 = a2 + 0x600\n  9437: u64 [a3 + 0x20] = a0\n  9440: u64 [a3 + 0x18] = a1\n  9443: a0 = u64 [s1 + 0x168]\n  9447: u64 [a3 + 0x8] = a0\n  9450: a0 = u64 [s1 + 0x170]\n  9454: u64 [a3 + 0x10] = a0\n  9457: a1 = s1 + 0x2f20\n  9461: a0 = u64 [s1 + 0x180]\n  9465: ra = 358, jump @30\n      : @391 [@dyn 179] (gas: 3)\n  9471: a0 = s1 + 0x25c0\n  9475: a1 = u64 [s1 + 0x198]\n  9479: ra = 360, jump @26\n      : @392 [@dyn 180] (gas: 16)\n  9485: a1 = s1 + 0x2118\n  9489: a0 = u64 [a1 + 0x4b0]\n  9493: a1 = u64 [a1 + 0x4a8]\n  9497: a2 = u64 [s1 + 0x190]\n  9501: a0 = a0 + a2\n  9504: a2 = u64 [s1 + 0x188]\n  9508: a2 = a2 + a1\n  9511: a1 = a2 <u a1\n  9514: a0 = a0 + a1\n  9517: a0 = a0 & 0xffffffffffffffff\n  9520: u64 [s1 + 0x180] = a0\n  9524: a1 = a2 & 0xffffffffffffffff\n  9527: u64 [s1 + 0x170] = a1\n  9531: a0 = s1 + 0x25a0\n  9535: a1 = u64 [s1 + 0x198]\n  9539: ra = 362, jump @26\n      : @393 [@dyn 181] (gas: 15)\n  9545: a1 = s1 + 0x2118\n  9549: a0 = u64 [a1 + 0x4a0]\n  9553: a1 = u64 [a1 + 0x498]\n  9557: a2 = s1 + 0x2918\n  9561: a4 = s1 + 0x100\n  9565: a3 = u64 [a4 + 0x70]\n  9568: a5 = a2 + 0x600\n  9572: u64 [a5 + 0x28] = a3\n  9575: u64 [a5 + 0x40] = a0\n  9578: u64 [a5 + 0x38] = a1\n  9581: a0 = u64 [a4 + 0x80]\n  9585: u64 [a5 + 0x30] = a0\n  9588: a1 = s1 + 0x2f40\n  9592: a0 = u64 [a4 + 0x98]\n  9596: ra = 364, jump @30\n      : @394 [@dyn 182] (gas: 3)\n  9602: a0 = s1 + 0x2580\n  9606: a1 = 0x40\n  9609: ra = 366, jump @22\n      : @395 [@dyn 183] (gas: 7)\n  9615: a4 = s1 + 0x2118\n  9619: a5 = a4 + 0x400\n  9623: a0 = u64 [a5 + 0x80]\n  9627: a1 = u64 [a5 + 0x78]\n  9630: a2 = u64 [a5 + 0x70]\n  9633: a3 = u64 [a5 + 0x68]\n  9636: t0 = 368, jump @1534\n      : @396 [@dyn 184] (gas: 1)\n  9642: jump @398 if a0 == 0\n      : @397 (gas: 1)\n  9645: jump @794\n      : @398 (gas: 10)\n  9648: u64 [a4 + 1120] = 0\n  9652: u64 [a4 + 1112] = 0\n  9656: a0 = u64 [s1 + 0x188]\n  9660: u64 [a4 + 0x448] = a0\n  9664: a1 = s1 + 0x2560\n  9668: a0 = u64 [s1 + 0x190]\n  9672: u64 [a4 + 0x450] = a0\n  9676: a0 = a3\n  9678: u64 [s1 + 0x198] = a3\n  9682: ra = 370, jump @24\n      : @399 [@dyn 185] (gas: 6)\n  9688: a0 = u64 [s1 + 0x158]\n  9692: ra = 0x174\n  9696: ecalli 4 // 'caller'\n  9698: a2 = u64 [s1 + 0x178]\n  9702: t0 = 0x176\n  9706: jump @1515\n      : @400 [@dyn 186] (gas: 2)\n  9709: a2 = u64 [s1 + 0x178]\n  9713: t0 = 374, jump @1515\n      : @401 [@dyn 187] (gas: 25)\n  9719: t0 = a1 | a0\n  9722: a3 = a3 >> 0x20\n  9725: a1 = reverse a2\n  9727: a2 = a1 << 0x20\n  9730: a2 = a2 | a3\n  9733: a1 = a1 >> 0x20\n  9736: a3 = u64 [0x20020]\n  9741: a0 = s1 + 0x2118\n  9745: u64 [a0 + 0x440] = a3\n  9749: a3 = u64 [0x20028]\n  9754: a4 = u64 [0x20030]\n  9759: a5 = u64 [0x20038]\n  9764: u64 [a0 + 0x438] = a3\n  9768: a3 = a0 + 0x400\n  9772: u64 [a3 + 0x30] = a4\n  9775: u64 [a0 + 1056] = 0\n  9779: u64 [a3 + 0x28] = a5\n  9782: u64 [a3 + 0x18] = a1\n  9785: u64 [a3 + 0x10] = a2\n  9788: a1 = 0x20\n  9791: a2 = s1 + 0x2540\n  9795: a3 = s1 + 0x2520\n  9799: u64 [a0 + 0x408] = t0\n  9803: a0 = u64 [s1 + 0x198]\n  9807: ra = 376, jump @31\n      : @402 [@dyn 188] (gas: 5)\n  9813: a0 = 0\n  9815: a1 = u64 [s1 + 0x160]\n  9819: a2 = 0\n  9821: ecalli 13 // 'seal_return'\n  9823: jump @986\n      : @403 (gas: 9)\n  9826: u64 [a3 + 1792] = 0\n  9830: u64 [a3 + 1784] = 0\n  9834: u64 [a3 + 1776] = 0\n  9838: u64 [a3 + 1768] = 0\n  9842: a0 = s1 + 0x3000\n  9846: i32 a0 = a0 + 0xfffffffffffff800\n  9850: ra = 0x17a\n  9854: ecalli 16 // 'value_transferred'\n  9856: fallthrough\n      : @404 [@dyn 189] (gas: 10)\n  9857: a3 = s1 + 0x2118\n  9861: a4 = a3 + 0x600\n  9865: a0 = u64 [a4 + 0xf8]\n  9869: a1 = u64 [a3 + 0x700]\n  9873: a2 = u64 [a4 + 0xf0]\n  9877: a3 = u64 [a4 + 0xe8]\n  9881: a1 = a1 | a2\n  9884: a0 = a0 | a3\n  9887: a0 = a0 | a1\n  9890: jump @406 if a0 == 0\n      : @405 (gas: 1)\n  9893: jump @845\n      : @406 (gas: 1)\n  9896: t0 = 380, jump @1569\n      : @407 [@dyn 190] (gas: 1)\n  9902: jump @409 if a1 <u a0\n      : @408 (gas: 1)\n  9905: jump @846\n      : @409 (gas: 7)\n  9908: a0 = s1 + 0x3000\n  9912: i32 a0 = a0 + 0xfffffffffffff820\n  9916: a1 = 0x4\n  9919: ecalli 2 // 'call_data_load'\n  9921: t0 = 0x17e\n  9925: a2 = s1 + 0x2118\n  9929: fallthrough\n      : @410 [@dyn 191] (gas: 8)\n  9930: a3 = u64 [a2 + 0x718]\n  9934: a4 = u64 [a2 + 0x720]\n  9938: a0 = a3 ^ 0x1\n  9941: a0 = a0 | a4\n  9944: a1 = a3 <u 0x1\n  9947: a1 = 0 if a4 != 0\n  9949: a1 = 0 if a0 == 0\n  9951: jump @412 if a1 != 0\n      : @411 (gas: 1)\n  9954: jump @847\n      : @412 (gas: 9)\n  9957: a5 = s1 + 0x100\n  9961: u64 [a5 + 0x68] = a4\n  9964: u64 [a5 + 0x70] = a3\n  9967: a0 = u64 [a2 + 0x710]\n  9971: a1 = u64 [a2 + 0x708]\n  9975: u64 [a5 + 0x88] = a0\n  9979: u64 [a5 + 0x80] = a1\n  9983: a0 = a0 | a1\n  9986: jump @414 if a0 != 0\n      : @413 (gas: 1)\n  9989: jump @848\n      : @414 (gas: 8)\n  9992: a0 = 0x30180\n  9997: u64 [s1 + 0x190] = a0\n 10001: i32 a0 = a0 + 0\n 10003: u64 [s1 + 0x178] = a0\n 10007: ra = 0x180\n 10011: ecalli 4 // 'caller'\n 10013: t0 = 0x182\n 10017: jump @1520\n      : @415 [@dyn 192] (gas: 1)\n 10020: t0 = 386, jump @1520\n      : @416 [@dyn 193] (gas: 8)\n 10026: u64 [s1 + 792] = 0\n 10030: a2 = s1 + 0x300\n 10034: u64 [a2 + 0x10] = a1\n 10037: u64 [a2 + 0x8] = a0\n 10040: a1 = s1 + 0x300\n 10044: u64 [a2] = a3\n 10046: a0 = 0\n 10048: ra = 388, jump @24\n      : @417 [@dyn 194] (gas: 7)\n 10054: u64 [s1 + 760] = 0\n 10058: u64 [s1 + 752] = 0\n 10062: u64 [s1 + 744] = 0\n 10066: a0 = 0x20\n 10069: a1 = s1 + 0x2e0\n 10073: u64 [s1 + 736] = 0\n 10077: ra = 390, jump @24\n      : @418 [@dyn 195] (gas: 1)\n 10083: t0 = 392, jump @1531\n      : @419 [@dyn 196] (gas: 3)\n 10089: a2 = 0x20170\n 10094: a0 = i32 [0x20170]\n 10099: jump @421 if a0 >u 63\n      : @420 (gas: 2)\n 10103: u32 [0x20170] = 0x40\n 10109: fallthrough\n      : @421 (gas: 15)\n 10110: u64 [s1 + 0x158] = a2\n 10114: a0 = sp + 0xffffffffffffffe0\n 10117: a2 = a0 & 0xffffffffffffffe0\n 10120: u64 [s1 + 0x160] = a2\n 10124: sp = a2\n 10126: a0 = 0x20180\n 10131: i32 a0 = a0 + 0\n 10133: i32 a2 = a2 + 0\n 10135: a1 = 0x40\n 10138: u64 [s1 + 0x150] = a0\n 10142: ra = 0x18a\n 10146: ecalli 8 // 'hash_keccak_256'\n 10148: a3 = u64 [s1 + 0x160]\n 10152: t0 = 0x18c\n 10156: jump @1542\n      : @422 [@dyn 197] (gas: 2)\n 10159: a3 = u64 [s1 + 0x160]\n 10163: t0 = 396, jump @1542\n      : @423 [@dyn 198] (gas: 2)\n 10169: a0 = s1 + 0x2c0\n 10173: ra = 398, jump @26\n      : @424 [@dyn 199] (gas: 12)\n 10179: a0 = u64 [s1 + 0x2c0]\n 10183: a1 = u64 [s1 + 0x2c8]\n 10187: t1 = 0xffffffffffffffff\n 10190: a2 = a0 & t1\n 10193: a3 = a1 & t1\n 10196: a5 = u64 [s1 + 0x188]\n 10200: t0 = a3 ^ a5\n 10203: a3 = a3 <u a5\n 10206: a4 = u64 [s1 + 0x180]\n 10210: a2 = a2 <u a4\n 10213: a2 = a3 if t0 != 0\n 10216: jump @426 if a2 == 0\n      : @425 (gas: 1)\n 10219: jump @852\n      : @426 (gas: 1)\n 10222: t0 = 400, jump @1554\n      : @427 [@dyn 200] (gas: 3)\n 10228: a0 = s1 + 0x2a0\n 10232: a1 = u64 [s1 + 0x198]\n 10236: ra = 402, jump @26\n      : @428 [@dyn 201] (gas: 13)\n 10242: a0 = u64 [s1 + 0x2b8]\n 10246: a1 = u64 [s1 + 0x2b0]\n 10250: a2 = s1 + 0x2118\n 10254: a3 = a2 + 0x700\n 10258: u64 [a3 + 0x40] = a0\n 10261: u64 [a3 + 0x38] = a1\n 10264: a0 = u64 [s1 + 0x158]\n 10268: u64 [a3 + 0x28] = a0\n 10271: a0 = u64 [s1 + 0x160]\n 10275: u64 [a3 + 0x30] = a0\n 10278: a1 = s1 + 0x2840\n 10282: a0 = u64 [s1 + 0x198]\n 10286: ra = 404, jump @30\n      : @429 [@dyn 202] (gas: 4)\n 10292: a0 = u64 [s1 + 0x178]\n 10296: ra = 0x196\n 10300: ecalli 4 // 'caller'\n 10302: fallthrough\n      : @430 [@dyn 203] (gas: 3)\n 10303: a4 = s1 + 0x100\n 10307: a2 = u64 [a4 + 0x90]\n 10311: t0 = 408, jump @1523\n      : @431 [@dyn 204] (gas: 15)\n 10317: a2 = u64 [a4 + 0x68]\n 10320: u64 [s1 + 0x278] = a2\n 10324: a2 = u64 [a4 + 0x70]\n 10327: u64 [s1 + 0x270] = a2\n 10331: a2 = u64 [a4 + 0x88]\n 10335: u64 [s1 + 0x268] = a2\n 10339: a2 = u64 [a4 + 0x80]\n 10343: u64 [s1 + 0x260] = a2\n 10347: u64 [s1 + 664] = 0\n 10351: u64 [s1 + 0x290] = a1\n 10355: u64 [s1 + 0x288] = a0\n 10359: a0 = s1 + 0x280\n 10363: a1 = s1 + 0x260\n 10367: u64 [s1 + 0x280] = a3\n 10371: ra = 410, jump @1488\n      : @432 [@dyn 205] (gas: 3)\n 10377: a0 = s1 + 0x240\n 10381: a1 = 0x40\n 10384: ra = 412, jump @22\n      : @433 [@dyn 206] (gas: 6)\n 10390: a4 = s1 + 0x200\n 10394: a0 = u64 [a4 + 0x58]\n 10397: a1 = u64 [a4 + 0x50]\n 10400: a2 = u64 [a4 + 0x48]\n 10403: a3 = u64 [a4 + 0x40]\n 10406: t0 = 414, jump @1534\n      : @434 [@dyn 207] (gas: 1)\n 10412: jump @436 if a0 == 0\n      : @435 (gas: 1)\n 10415: jump @794\n      : @436 (gas: 10)\n 10418: u64 [s1 + 568] = 0\n 10422: u64 [s1 + 560] = 0\n 10426: a0 = u64 [s1 + 0x180]\n 10430: u64 [s1 + 0x220] = a0\n 10434: a1 = s1 + 0x220\n 10438: a0 = u64 [s1 + 0x188]\n 10442: u64 [s1 + 0x228] = a0\n 10446: a0 = a3\n 10448: u64 [s1 + 0x198] = a3\n 10452: ra = 416, jump @24\n      : @437 [@dyn 208] (gas: 6)\n 10458: a0 = u64 [s1 + 0x178]\n 10462: ra = 0x1a2\n 10466: ecalli 4 // 'caller'\n 10468: a2 = u64 [s1 + 0x190]\n 10472: t0 = 0x1a4\n 10476: jump @1515\n      : @438 [@dyn 209] (gas: 2)\n 10479: a2 = u64 [s1 + 0x190]\n 10483: t0 = 420, jump @1515\n      : @439 [@dyn 210] (gas: 24)\n 10489: t0 = a1 | a0\n 10492: a3 = a3 >> 0x20\n 10495: a1 = reverse a2\n 10497: a2 = a1 << 0x20\n 10500: a2 = a2 | a3\n 10503: a1 = a1 >> 0x20\n 10506: u64 [s1 + 504] = 0\n 10510: a3 = u64 [0x200f8]\n 10515: a4 = u64 [0x20100]\n 10520: a5 = u64 [0x20108]\n 10525: a0 = u64 [0x20110]\n 10530: u64 [s1 + 0x218] = a3\n 10534: a3 = s1 + 0x200\n 10538: u64 [a3 + 0x10] = a4\n 10541: u64 [a3 + 0x8] = a5\n 10544: u64 [a3] = a0\n 10546: u64 [s1 + 0x1f0] = a1\n 10550: u64 [s1 + 0x1e8] = a2\n 10554: a1 = 0x20\n 10557: a2 = s1 + 0x200\n 10561: a3 = s1 + 0x1e0\n 10565: u64 [s1 + 0x1e0] = t0\n 10569: a0 = u64 [s1 + 0x198]\n 10573: ra = 422, jump @31\n      : @440 [@dyn 211] (gas: 5)\n 10579: a0 = 0\n 10581: a1 = u64 [s1 + 0x150]\n 10585: a2 = 0\n 10587: ecalli 13 // 'seal_return'\n 10589: jump @986\n      : @441 (gas: 10)\n 10592: u64 [a2 + 1056] = 0\n 10596: u64 [a2 + 1048] = 0\n 10600: u64 [a2 + 1040] = 0\n 10604: u64 [a2 + 1032] = 0\n 10608: a0 = s1 + 0x3000\n 10612: i32 a0 = a0 + 0xfffffffffffffd20\n 10616: ra = 0x1a8\n 10620: ecalli 16 // 'value_transferred'\n 10622: a3 = s1 + 0x2918\n 10626: jump @443\n      : @442 [@dyn 212] (gas: 2)\n 10628: a3 = s1 + 0x2918\n 10632: fallthrough\n      : @443 (gas: 9)\n 10633: a4 = a3 + 0x400\n 10637: a0 = u64 [a4 + 0x18]\n 10640: a1 = u64 [a4 + 0x20]\n 10643: a2 = u64 [a4 + 0x10]\n 10646: a3 = u64 [a4 + 0x8]\n 10649: a1 = a1 | a2\n 10652: a0 = a0 | a3\n 10655: a0 = a0 | a1\n 10658: jump @445 if a0 == 0\n      : @444 (gas: 1)\n 10661: jump @856\n      : @445 (gas: 1)\n 10664: t0 = 426, jump @1569\n      : @446 [@dyn 213] (gas: 1)\n 10670: jump @448 if a1 <u a0\n      : @447 (gas: 1)\n 10673: jump @857\n      : @448 (gas: 5)\n 10676: a0 = s1 + 0x3000\n 10680: i32 a0 = a0 + 0xfffffffffffffd40\n 10684: a1 = 0x4\n 10687: ecalli 2 // 'call_data_load'\n 10689: fallthrough\n      : @449 (gas: 9)\n 10690: a5 = s1 + 0x2918\n 10694: a0 = a5 + 0x400\n 10698: a3 = u64 [a0 + 0x40]\n 10701: a1 = u64 [a0 + 0x38]\n 10704: a4 = u64 [a0 + 0x30]\n 10707: a2 = a1 | a3\n 10710: a0 = a4 <u 0x1\n 10713: a0 = 0 if a2 != 0\n 10715: jump @451 if a0 != 0\n      : @450 (gas: 1)\n 10718: jump @858\n      : @451 (gas: 20)\n 10721: u64 [s1 + 0x98] = a2\n 10725: a5 = u64 [a5 + 0x428]\n 10729: a0 = u64 [s1 + 0x198]\n 10733: t1 = u32 [a0]\n 10735: a0 = a5 + 0x23\n 10738: a2 = a0 <u a5\n 10741: t0 = a4 + a2\n 10744: u64 [s1 + 0xd8] = a4\n 10748: a4 = t0 <u a4\n 10751: a4 = a2 if a2 == 0\n 10754: a4 = a4 + a1\n 10757: u64 [s1 + 0x188] = a1\n 10761: a2 = a4 <u a1\n 10764: u64 [s1 + 0x190] = a3\n 10768: a2 = a2 + a3\n 10771: a2 = a2 | a4\n 10774: a0 = a0 <u t1\n 10777: a0 = 0 if t0 != 0\n 10779: a0 = 0 if a2 != 0\n 10781: jump @453 if a0 != 0\n      : @452 (gas: 1)\n 10784: jump @864\n      : @453 (gas: 6)\n 10787: i32 a1 = a5 + 0x4\n 10790: a0 = s1 + 0x3000\n 10794: i32 a0 = a0 + 0xfffffffffffffd60\n 10798: u64 [s1 + 0xd0] = a5\n 10802: ecalli 2 // 'call_data_load'\n 10804: fallthrough\n      : @454 (gas: 9)\n 10805: a2 = s1 + 0x2918\n 10809: a0 = u64 [a2 + 0x460]\n 10813: t0 = u64 [a2 + 0x458]\n 10817: ra = u64 [a2 + 0x450]\n 10821: u64 [s1 + 0xf0] = a0\n 10825: a0 = t0 | a0\n 10828: a1 = ra <u 0x1\n 10831: a1 = 0 if a0 != 0\n 10833: jump @456 if a1 != 0\n      : @455 (gas: 1)\n 10836: jump @859\n      : @456 (gas: 43)\n 10839: t1 = u64 [a2 + 0x448]\n 10843: a1 = u64 [s1 + 0xd0]\n 10847: a0 = a1 + 0x24\n 10850: a2 = a0 <u a1\n 10853: t2 = u64 [s1 + 0xd8]\n 10857: a3 = t2 + a2\n 10860: a1 = a0 + t1\n 10863: u64 [s1 + 0x180] = a1\n 10867: u64 [s1 + 0x120] = a0\n 10871: a4 = a1 <u a0\n 10874: a0 = a3 + ra\n 10877: a0 = a0 + a4\n 10880: a5 = a0 ^ a3\n 10883: a1 = a0 <u a3\n 10886: a1 = a4 if a5 == 0\n 10889: a3 = a3 <u t2\n 10892: a3 = a2 if a2 == 0\n 10895: a2 = u64 [s1 + 0x188]\n 10899: a3 = a3 + a2\n 10902: a2 = a3 <u a2\n 10905: a5 = u64 [s1 + 0xf0]\n 10909: a4 = u64 [s1 + 0x190]\n 10913: a4 = a4 + a5\n 10916: a2 = a2 + a4\n 10919: a4 = a3 + t0\n 10922: a3 = a4 <u a3\n 10925: a2 = a2 + a3\n 10928: a3 = u64 [s1 + 0x198]\n 10932: a3 = u32 [a3]\n 10934: a1 = a1 + a4\n 10937: a4 = a1 <u a4\n 10940: a2 = a2 + a4\n 10943: a4 = u64 [s1 + 0x180]\n 10947: a3 = a3 <u a4\n 10950: a4 = a0 <u 0x1\n 10953: a3 = a3 ^ 0x1\n 10956: a3 = a4 if a0 != 0\n 10959: a0 = a2 <u 0x1\n 10962: a4 = a1 <u 0x1\n 10965: a4 = a0 if a2 != 0\n 10968: a1 = a1 | a2\n 10971: a3 = a4 if a1 != 0\n 10974: jump @458 if a3 != 0\n      : @457 (gas: 1)\n 10977: jump @865\n      : @458 (gas: 26)\n 10980: a0 = t1 + 0xfffffffffffffffd\n 10983: u64 [s1 + 0xc0] = t1\n 10987: a1 = a0 <u t1\n 10990: a2 = ra + a1\n 10993: a2 = a2 + 0xffffffffffffffff\n 10996: a3 = a2 ^ ra\n 10999: u64 [s1 + 0xb0] = ra\n 11003: a4 = a2 <u ra\n 11006: a4 = a1 if a3 == 0\n 11009: a1 = t0 + 0xffffffffffffffff\n 11012: a4 = a4 + a1\n 11015: a1 = a4 <u a1\n 11018: u64 [s1 + 0xb8] = t0\n 11022: a3 = t0 <u 0x1\n 11025: a3 = a5 - a3\n 11028: a1 = a1 + a3\n 11031: a3 = a4 >u 0\n 11033: a5 = a1 >u 0\n 11035: a5 = a3 if a1 == 0\n 11038: a1 = a1 | a4\n 11041: a3 = a2 >u 0\n 11043: a0 = a0 <u 0x62\n 11046: a0 = a0 ^ 0x1\n 11049: a0 = a3 if a2 != 0\n 11052: a0 = a5 if a1 != 0\n 11055: jump @460 if a0 == 0\n      : @459 (gas: 1)\n 11058: jump @866\n      : @460 (gas: 9)\n 11061: a0 = 0x30180\n 11066: u64 [s1 + 0xe8] = a0\n 11070: i32 a0 = a0 + 0\n 11072: u64 [s1 + 0xc8] = a0\n 11076: ra = 0x1ac\n 11080: ecalli 4 // 'caller'\n 11082: a2 = u64 [s1 + 0xe8]\n 11086: t0 = 0x1ae\n 11090: jump @1512\n      : @461 [@dyn 214] (gas: 2)\n 11093: a2 = u64 [s1 + 0xe8]\n 11097: t0 = 430, jump @1512\n      : @462 [@dyn 215] (gas: 8)\n 11103: u64 [a2 + 928] = 0\n 11107: a4 = a2 + 0x300\n 11111: u64 [a4 + 0x98] = a1\n 11115: u64 [a4 + 0x90] = a0\n 11119: a1 = s1 + 0x24a0\n 11123: u64 [a4 + 0x88] = a3\n 11127: a0 = 0\n 11129: ra = 432, jump @24\n      : @463 [@dyn 216] (gas: 3)\n 11135: t0 = 0x1b2\n 11139: a1 = s1 + 0x2118\n 11143: fallthrough\n      : @464 [@dyn 217] (gas: 8)\n 11144: u64 [a1 + 896] = 0\n 11148: u64 [a1 + 888] = 0\n 11152: u64 [a1 + 872] = 0x2\n 11157: a2 = a1\n 11159: a0 = 0x20\n 11162: a1 = s1 + 0x2480\n 11166: u64 [a2 + 880] = 0\n 11170: ra = 436, jump @24\n      : @465 [@dyn 218] (gas: 1)\n 11176: t0 = 438, jump @1531\n      : @466 [@dyn 219] (gas: 4)\n 11182: a2 = 0x20170\n 11187: a0 = i32 [0x20170]\n 11192: a1 = 0x3f\n 11195: jump @468 if a1 <u a0\n      : @467 (gas: 2)\n 11198: u32 [0x20170] = 0x40\n 11204: fallthrough\n      : @468 (gas: 4)\n 11205: u64 [s1 + 0xa8] = a2\n 11209: a0 = 0xffffffff\n 11219: u64 [s1 + 0xe0] = a0\n 11223: t0 = 440, jump @1574\n      : @469 [@dyn 220] (gas: 10)\n 11229: a0 = 0x20180\n 11234: i32 a0 = a0 + 0\n 11236: i32 a2 = a2 + 0\n 11238: a1 = 0x40\n 11241: u64 [s1 + 0xa0] = a0\n 11245: ra = 0x1ba\n 11249: ecalli 8 // 'hash_keccak_256'\n 11251: a3 = u64 [s1 + 0x190]\n 11255: t0 = 0x1bc\n 11259: jump @1542\n      : @470 [@dyn 221] (gas: 2)\n 11262: a3 = u64 [s1 + 0x190]\n 11266: t0 = 444, jump @1542\n      : @471 [@dyn 222] (gas: 2)\n 11272: a0 = s1 + 0x2460\n 11276: ra = 446, jump @26\n      : @472 [@dyn 223] (gas: 4)\n 11282: a0 = s1 + 0x2118\n 11286: a0 = u32 [a0 + 0x348]\n 11290: a1 = u64 [s1 + 0xe0]\n 11294: jump @474 if a0 != a1\n      : @473 (gas: 1)\n 11297: jump @872\n      : @474 (gas: 10)\n 11300: a1 = a0 + 0x1\n 11303: u64 [s1 + 0x100] = a1\n 11307: a0 = a1 <u 0x1\n 11310: u64 [s1 + 0xf8] = a0\n 11314: a0 = a0 | a1\n 11317: a0 = a0 <u 0x1\n 11320: u64 [s1 + 0x108] = a0\n 11324: a0 = s1 + 0x2440\n 11328: a1 = u64 [s1 + 0x198]\n 11332: ra = 448, jump @26\n      : @475 [@dyn 224] (gas: 22)\n 11338: a3 = s1 + 0x2118\n 11342: a0 = u32 [a3 + 0x32c]\n 11346: a4 = a3 + 0x300\n 11350: a1 = u64 [a4 + 0x38]\n 11353: a0 = a0 << 0x20\n 11356: a2 = u64 [a4 + 0x30]\n 11359: a3 = u64 [a4 + 0x40]\n 11362: a4 = u64 [s1 + 0x108]\n 11366: a1 = a1 | a4\n 11369: a4 = u64 [s1 + 0x100]\n 11373: a0 = a0 | a4\n 11376: a4 = u64 [s1 + 0xf8]\n 11380: a2 = a2 | a4\n 11383: a4 = s1 + 0x2918\n 11387: a5 = a4 + 0x400\n 11391: u64 [a5 + 0x80] = a3\n 11395: u64 [a5 + 0x70] = a2\n 11398: u64 [a5 + 0x68] = a0\n 11401: u64 [a5 + 0x78] = a1\n 11404: a1 = s1 + 0x2d80\n 11408: a0 = u64 [s1 + 0x198]\n 11412: ra = 450, jump @30\n      : @476 [@dyn 225] (gas: 4)\n 11418: a0 = s1 + 0x3000\n 11422: i32 a0 = a0 + 0xfffffffffffffda0\n 11426: ecalli 9 // 'now'\n 11428: fallthrough\n      : @477 (gas: 50)\n 11429: a0 = s1 + 0x2918\n 11433: t2 = u64 [a0 + 0x4a0]\n 11437: a3 = u64 [a0 + 0x498]\n 11441: u64 [s1 + 0x150] = a3\n 11445: t1 = u64 [a0 + 0x490]\n 11449: ra = u64 [a0 + 0x488]\n 11453: a0 = clz t2\n 11455: a1 = clz a3\n 11457: a2 = a1 + 0x40\n 11460: a2 = a0 if t2 != 0\n 11463: a0 = clz t1\n 11465: a1 = clz ra\n 11467: a1 = a1 + 0x40\n 11470: a1 = a0 if t1 != 0\n 11473: a0 = a1 + 0x80\n 11477: a3 = a3 | t2\n 11480: a2 = a0 if a3 == 0\n 11483: a5 = a0 <u a1\n 11486: a5 = 0 if a3 != 0\n 11488: a4 = a5 >u 0\n 11490: a0 = a2 <u 0xf0\n 11494: a3 = a0 ^ 0x1\n 11497: a4 = a3 if a5 == 0\n 11500: a0 = a4 <u 0x1\n 11503: a0 = a0 + 0xffffffffffffffff\n 11506: a1 = -a4\n 11508: a5 = -a5\n 11510: a3 = a5 - a3\n 11513: t0 = 0xef - a2\n 11517: u64 [s1 + 0x198] = a1\n 11521: a5 = a1 >u 0\n 11523: a1 = a0 >u 0\n 11525: a1 = a5 if a0 == 0\n 11528: a5 = t0 <u 0x100\n 11532: a5 = a5 ^ 0x1\n 11535: a2 = a3 >u 0\n 11537: a5 = a2 if a3 != 0\n 11540: a5 = a1 if a4 != 0\n 11543: u64 [s1 + 0x140] = t2\n 11547: a1 = t1 | t2\n 11550: t2 = t1\n 11552: t1 = u64 [s1 + 0x150]\n 11556: a2 = ra | t1\n 11559: a1 = a1 | a2\n 11562: a1 = a1 <u 0x1\n 11565: a1 = a1 | a5\n 11568: u64 [s1 + 0x158] = ra\n 11572: a4 = ra\n 11574: a4 = 0 if a1 != 0\n 11576: jump @479 if a1 == 0\n      : @478 (gas: 1)\n 11579: jump @635\n      : @479 (gas: 6)\n 11582: a1 = t0 ^ 0xff\n 11586: a5 = u64 [s1 + 0x198]\n 11590: a1 = a1 | a5\n 11593: a2 = a3 | a0\n 11596: a1 = a1 | a2\n 11599: jump @481 if a1 != 0\n      : @480 (gas: 1)\n 11602: jump @635\n      : @481 (gas: 19)\n 11605: a2 = t0 + 0x1\n 11608: u64 [s1 + 0x190] = a2\n 11612: a1 = a2 <u 0x1\n 11615: a1 = a1 + a3\n 11618: u64 [s1 + 0x180] = a1\n 11622: a1 = a1 | a2\n 11625: a1 = a1 <u 0x1\n 11628: a1 = a1 + a5\n 11631: u64 [s1 + 0x170] = a1\n 11635: a1 = a1 <u a5\n 11638: a0 = a0 + a1\n 11641: u64 [s1 + 0x178] = a0\n 11645: a1 = 0xff - t0\n 11649: u64 [s1 + 0x168] = a1\n 11653: a2 = 0x80 - a1\n 11657: a0 = u64 [s1 + 0x158]\n 11661: a1 = t2\n 11663: u64 [s1 + 0x148] = t2\n 11667: ra = 452, jump @1592\n      : @482 [@dyn 226] (gas: 1)\n 11673: t0 = 454, jump @1582\n      : @483 [@dyn 227] (gas: 1)\n 11679: ra = 456, jump @1597\n      : @484 [@dyn 228] (gas: 7)\n 11685: u64 [s1 + 0x130] = a0\n 11689: u64 [s1 + 0x128] = a1\n 11693: a0 = u64 [s1 + 0x168]\n 11697: a2 = a0 + 0xffffffffffffff80\n 11700: a0 = u64 [s1 + 0x158]\n 11704: a1 = u64 [s1 + 0x148]\n 11708: ra = 458, jump @1597\n      : @485 [@dyn 229] (gas: 1)\n 11714: t0 = 460, jump @1588\n      : @486 [@dyn 230] (gas: 3)\n 11720: a0 = u64 [s1 + 0x158]\n 11724: a1 = u64 [s1 + 0x148]\n 11728: ra = 462, jump @1597\n      : @487 [@dyn 231] (gas: 11)\n 11734: a4 = u64 [s1 + 0x138]\n 11738: t0 = u64 [s1 + 0x170]\n 11742: a5 = u64 [s1 + 0x178]\n 11746: a2 = u64 [s1 + 0x180]\n 11750: a5 = a5 | a2\n 11753: a3 = u64 [s1 + 0x190]\n 11757: a3 = a3 | t0\n 11760: a3 = a3 | a5\n 11763: a0 = 0 if a4 == 0\n 11765: u64 [s1 + 0x188] = a0\n 11769: jump @489 if a3 == 0\n      : @488 (gas: 1)\n 11772: jump @622\n      : @489 (gas: 2)\n 11775: a4 = 0\n 11777: jump @634\n      : @490 (gas: 1)\n 11780: jump @492 if a0 == 1641031603\n      : @491 (gas: 1)\n 11787: jump @876\n      : @492 (gas: 10)\n 11790: u64 [a2 + 672] = 0\n 11794: u64 [a2 + 664] = 0\n 11798: u64 [a2 + 656] = 0\n 11802: u64 [a2 + 648] = 0\n 11806: a0 = s1 + 0x3000\n 11810: i32 a0 = a0 + 0xfffffffffffffba0\n 11814: ra = 0x1d0\n 11818: ecalli 16 // 'value_transferred'\n 11820: t0 = 0x1d2\n 11824: jump @1547\n      : @493 [@dyn 232] (gas: 1)\n 11827: t0 = 466, jump @1547\n      : @494 [@dyn 233] (gas: 8)\n 11833: a0 = u64 [a4 + 0x98]\n 11837: a1 = u64 [a4 + 0xa0]\n 11841: a2 = u64 [a4 + 0x90]\n 11845: a3 = u64 [a4 + 0x88]\n 11849: a1 = a1 | a2\n 11852: a0 = a0 | a3\n 11855: a0 = a0 | a1\n 11858: jump @496 if a0 == 0\n      : @495 (gas: 1)\n 11861: jump @881\n      : @496 (gas: 3)\n 11864: a0 = u64 [s1 + 0x198]\n 11868: a0 = i32 [a0]\n 11870: jump @498 if a0 >u 3\n      : @497 (gas: 1)\n 11874: jump @882\n      : @498 (gas: 3)\n 11877: a0 = s1 + 0x1140\n 11881: a1 = 0x40\n 11884: ra = 468, jump @22\n      : @499 [@dyn 234] (gas: 10)\n 11890: a0 = s1 + 0x1118\n 11894: a1 = u64 [a0 + 0x40]\n 11897: u64 [s1 + 0x198] = a1\n 11901: a1 = u64 [a0 + 0x38]\n 11904: u64 [s1 + 0x190] = a1\n 11908: a1 = u64 [a0 + 0x30]\n 11911: u64 [s1 + 0x180] = a1\n 11915: a0 = u64 [a0 + 0x28]\n 11918: u64 [s1 + 0x188] = a0\n 11922: ra = 470, jump @15\n      : @500 [@dyn 235] (gas: 14)\n 11928: a4 = s1 + 0x100\n 11932: a0 = u64 [a4 + 0x98]\n 11936: a1 = u64 [a4 + 0x80]\n 11940: a0 = a0 | a1\n 11943: a1 = u64 [a4 + 0x88]\n 11947: a3 = a1\n 11949: a2 = u64 [a4 + 0x90]\n 11953: a1 = a1 | a2\n 11956: a1 = a1 | a0\n 11959: a1 = a1 >> 0x20\n 11962: a0 = a0 | a2\n 11965: a0 = a0 << 0x20\n 11968: a0 = a0 | a1\n 11971: jump @502 if a0 == 0\n      : @501 (gas: 1)\n 11974: jump @794\n      : @502 (gas: 11)\n 11977: a2 = u64 [0x301a0]\n 11982: a1 = u64 [0x301a8]\n 11987: a0 = u32 [0x301b0]\n 11992: a4 = s1 + 0x1118\n 11996: u64 [a4 + 32] = 0\n 11999: u64 [a4 + 0x18] = a0\n 12002: u64 [a4 + 0x10] = a1\n 12005: a1 = s1 + 0x1120\n 12009: u64 [a4 + 0x8] = a2\n 12012: a0 = a3\n 12014: ra = 472, jump @24\n      : @503 [@dyn 236] (gas: 4)\n 12020: a1 = 0x20\n 12023: a0 = u64 [s1 + 0x188]\n 12027: ra = 0x376\n 12031: jump @39\n      : @504 (gas: 24)\n 12034: u64 [s1 + 0xb8] = a3\n 12038: a0 = a0 <u a1\n 12041: a1 = u64 [s1 + 0x100]\n 12045: a2 = a1 + a0\n 12048: u64 [s1 + 0x128] = a2\n 12052: a1 = a2 <u a1\n 12055: a1 = a0 if a0 == 0\n 12058: a1 = a1 + a4\n 12061: u64 [s1 + 0x120] = a1\n 12065: a0 = a1 <u a4\n 12068: u64 [s1 + 0x188] = a0\n 12072: a0 = s1 + 0x1118\n 12076: a1 = u64 [s1 + 0x178]\n 12080: a3 = a0 + 0x300\n 12084: u64 [a3 + 0xa8] = a1\n 12088: a1 = u64 [s1 + 0x170]\n 12092: u64 [a3 + 0xb0] = a1\n 12096: a1 = u64 [s1 + 0x168]\n 12100: u64 [a3 + 0xb8] = a1\n 12104: a1 = s1 + 0x14c0\n 12108: a2 = u64 [s1 + 0x180]\n 12112: u64 [a3 + 0xc0] = a2\n 12116: a0 = 0\n 12118: ra = 474, jump @24\n      : @505 [@dyn 237] (gas: 7)\n 12124: a0 = sp + 0xffffffffffffffe0\n 12127: a0 = a0 & 0xffffffffffffffe0\n 12130: u64 [s1 + 0x130] = a0\n 12134: sp = a0\n 12136: a2 = u64 [s1 + 0x198]\n 12140: a0 = i32 [a2]\n 12142: jump @507 if a0 >u 31\n      : @506 (gas: 2)\n 12146: u32 [a2 + 0] = 0x20\n 12149: fallthrough\n      : @507 (gas: 35)\n 12150: a0 = u64 [s1 + 0x110]\n 12154: a1 = u64 [s1 + 0x188]\n 12158: a0 = a0 + a1\n 12161: u64 [s1 + 0x118] = a0\n 12165: a0 = sp + 0xffffffffffffffe0\n 12168: a0 = a0 & 0xffffffffffffffe0\n 12171: u64 [s1 + 0x188] = a0\n 12175: sp = a0\n 12177: i32 a2 = a0 + 0\n 12179: a1 = 0x20\n 12182: a0 = u64 [s1 + 0x190]\n 12186: ecalli 8 // 'hash_keccak_256'\n 12188: u64 [s1 + 408] = 0\n 12192: t2 = 0\n 12194: t1 = 0\n 12196: u64 [s1 + 400] = 0\n 12200: a3 = u64 [s1 + 0x188]\n 12204: a0 = u64 [a3 + 0x18]\n 12207: a1 = u64 [a3 + 0x10]\n 12210: a2 = u64 [a3 + 0x8]\n 12213: a3 = u64 [a3]\n 12215: a0 = reverse a0\n 12217: a4 = reverse a1\n 12219: a5 = reverse a2\n 12221: a2 = reverse a3\n 12223: a1 = u64 [s1 + 0x130]\n 12227: a3 = a2\n 12229: u64 [a1 + 0x18] = a2\n 12232: u64 [s1 + 0x160] = a5\n 12236: u64 [a1 + 0x10] = a5\n 12239: ra = a4\n 12241: u64 [a1 + 0x8] = a4\n 12244: a2 = a0\n 12246: u64 [a1] = a0\n 12248: fallthrough\n      : @508 (gas: 22)\n 12249: a4 = s1 + 0x100\n 12253: u64 [a4 + 0x68] = a3\n 12256: u64 [s1 + 0x170] = ra\n 12260: u64 [a4 + 0x78] = a2\n 12263: a0 = u64 [a4 + 0x40]\n 12266: a2 = u64 [a4 + 0x98]\n 12270: a0 = a2 <u a0\n 12273: a2 = u64 [a4 + 0x50]\n 12276: a3 = t2 ^ a2\n 12279: a2 = t2 <u a2\n 12282: a2 = a0 if a3 == 0\n 12285: a0 = u64 [a4 + 0x48]\n 12288: t0 = t1 <u a0\n 12291: a3 = u64 [a4 + 0x58]\n 12294: a5 = u64 [a4 + 0x90]\n 12298: a4 = a5 ^ a3\n 12301: a3 = a5 <u a3\n 12304: a3 = t0 if a4 == 0\n 12307: a0 = t1 ^ a0\n 12310: a0 = a0 | a4\n 12313: a3 = a2 if a0 == 0\n 12316: jump @510 if a3 != 0\n      : @509 (gas: 1)\n 12319: jump @705\n      : @510 (gas: 4)\n 12322: a0 = s1 + 0x14a0\n 12326: u64 [s1 + 0x188] = t1\n 12330: u64 [s1 + 0x180] = t2\n 12334: ra = 476, jump @26\n      : @511 [@dyn 238] (gas: 30)\n 12340: ra = u64 [s1 + 0x198]\n 12344: t2 = u64 [s1 + 0x180]\n 12348: t1 = u64 [s1 + 0x188]\n 12352: a1 = u64 [s1 + 0x138]\n 12356: a0 = a1 + ra\n 12359: a1 = a0 <u a1\n 12362: a4 = u64 [s1 + 0x128]\n 12366: a2 = a4 + t2\n 12369: a2 = a2 + a1\n 12372: a3 = a2 ^ a4\n 12375: a4 = a2 <u a4\n 12378: a4 = a1 if a3 == 0\n 12381: a3 = u64 [s1 + 0x120]\n 12385: a1 = a3 + t1\n 12388: t0 = a1 <u a3\n 12391: a5 = u64 [s1 + 0x118]\n 12395: a3 = u64 [s1 + 0x190]\n 12399: a5 = a5 + a3\n 12402: a3 = a5 + t0\n 12405: a4 = a4 + a1\n 12408: a1 = a4 <u a1\n 12411: a1 = a1 + a3\n 12414: a1 = a1 | a2\n 12417: a2 = a0 | a4\n 12420: a2 = a2 | a1\n 12423: a1 = a1 | a4\n 12426: a2 = a2 >> 0x20\n 12429: a1 = a1 << 0x20\n 12432: a1 = a1 | a2\n 12435: jump @513 if a1 == 0\n      : @512 (gas: 1)\n 12438: jump @794\n      : @513 (gas: 13)\n 12441: a5 = s1 + 0x1118\n 12445: a2 = u64 [a5 + 0x3a0]\n 12449: a1 = u64 [a5 + 0x398]\n 12453: a3 = u64 [a5 + 0x390]\n 12457: a4 = u64 [a5 + 0x388]\n 12461: u64 [a5 + 0x368] = a4\n 12465: a4 = a5 + 0x300\n 12469: u64 [a4 + 0x70] = a3\n 12472: u64 [a4 + 0x78] = a1\n 12475: a1 = s1 + 0x1480\n 12479: u64 [a4 + 0x80] = a2\n 12483: u64 [s1 + 0x198] = ra\n 12487: ra = 478, jump @24\n      : @514 [@dyn 239] (gas: 38)\n 12493: a5 = u64 [s1 + 0x178]\n 12497: a5 = a5 + 0x1\n 12500: a0 = a5 <u 0x1\n 12503: a3 = u64 [s1 + 0x170]\n 12507: a3 = a3 + a0\n 12510: a0 = a5 | a3\n 12513: a0 = a0 <u 0x1\n 12516: a1 = u64 [s1 + 0x160]\n 12520: t2 = a1 + a0\n 12523: a1 = t2 <u a1\n 12526: a0 = u64 [s1 + 0x168]\n 12530: a0 = a0 + a1\n 12533: a1 = u64 [s1 + 0x198]\n 12537: t1 = a1 + 0x20\n 12540: a2 = t1 <u a1\n 12543: a1 = u64 [s1 + 0x180]\n 12547: t0 = a1 + a2\n 12550: a4 = t0 <u a1\n 12553: a4 = a2 if a2 == 0\n 12556: a1 = u64 [s1 + 0x188]\n 12560: a4 = a4 + a1\n 12563: a2 = a4 <u a1\n 12566: a1 = u64 [s1 + 0x190]\n 12570: a1 = a1 + a2\n 12573: u64 [s1 + 0x190] = a1\n 12577: ra = a3\n 12579: a1 = u64 [s1 + 0x130]\n 12583: u64 [a1 + 0x8] = a3\n 12586: a2 = a5\n 12588: u64 [a1] = a5\n 12590: u64 [a1 + 0x10] = t2\n 12593: a3 = a0\n 12595: u64 [a1 + 0x18] = a0\n 12598: u64 [s1 + 0x160] = t2\n 12602: u64 [s1 + 0x198] = t1\n 12606: t2 = t0\n 12608: t1 = a4\n 12610: jump @508\n      : @515 (gas: 1)\n 12613: t0 = 480, jump @1562\n      : @516 [@dyn 240] (gas: 12)\n 12619: t0 = u64 [s1 + 0x168]\n 12623: a3 = a0 if t0 != 0\n 12626: u64 [s1 + 0x198] = a3\n 12630: a0 = u64 [s1 + 0x160]\n 12634: a2 = u64 [s1 + 0x130]\n 12638: a0 = a0 | a2\n 12641: a2 = u64 [s1 + 0x118]\n 12645: a0 = a2 if a4 == 0\n 12648: a5 = u64 [s1 + 0x150]\n 12652: a3 = a5\n 12654: a3 = a0 if t0 != 0\n 12657: t0 = 482, jump @1544\n      : @517 [@dyn 241] (gas: 1)\n 12663: ra = 484, jump @1592\n      : @518 [@dyn 242] (gas: 6)\n 12669: u64 [s1 + 0x130] = a0\n 12673: u64 [s1 + 0x118] = a1\n 12677: a0 = u64 [s1 + 0x148]\n 12681: a1 = u64 [s1 + 0x158]\n 12685: a2 = u64 [s1 + 0x190]\n 12689: ra = 486, jump @1592\n      : @519 [@dyn 243] (gas: 1)\n 12695: t0 = 488, jump @1552\n      : @520 [@dyn 244] (gas: 1)\n 12701: ra = 490, jump @1597\n      : @521 [@dyn 245] (gas: 1)\n 12707: t0 = 492, jump @1555\n      : @522 [@dyn 246] (gas: 14)\n 12713: a2 = u64 [s1 + 0x158]\n 12717: a2 = a1 if a3 != 0\n 12720: u64 [s1 + 0x158] = a2\n 12724: a1 = u64 [s1 + 0x110]\n 12728: a0 = a0 | a1\n 12731: a1 = u64 [s1 + 0x130]\n 12735: a0 = a1 if a4 == 0\n 12738: a1 = u64 [s1 + 0x148]\n 12742: a1 = a0 if a3 != 0\n 12745: a2 = a3\n 12747: u64 [s1 + 0x148] = a1\n 12751: a0 = u64 [s1 + 0x150]\n 12755: a1 = u64 [s1 + 0x140]\n 12759: ra = 494, jump @1592\n      : @523 [@dyn 247] (gas: 1)\n 12765: t0 = 496, jump @1536\n      : @524 [@dyn 248] (gas: 3)\n 12771: t1 = u64 [s1 + 0x158]\n 12775: t2 = u64 [s1 + 0x148]\n 12779: fallthrough\n      : @525 (gas: 68)\n 12780: u64 [s1 + 0x158] = a4\n 12784: a2 = t2 >> 0x3f\n 12787: a3 = t1 << 0x1\n 12790: t0 = a3 | a2\n 12793: a3 = t2 << 0x1\n 12796: a4 = u64 [s1 + 0x198]\n 12800: a4 = a4 >> 0x3f\n 12803: a3 = a3 | a4\n 12806: u64 [s1 + 0x148] = a3\n 12810: a2 = u64 [s1 + 0x128]\n 12814: t2 = a1\n 12816: u64 [s1 + 0x150] = t0\n 12820: a1 = a2 ^ t0\n 12823: ra = t1\n 12825: t1 = a2 <u t0\n 12828: a4 = u64 [s1 + 0x130]\n 12832: t0 = a4 <u a3\n 12835: t0 = t1 if a1 != 0\n 12838: a1 = t2 << 0x1\n 12841: a3 = a0 >> 0x3f\n 12844: a1 = a1 | a3\n 12847: u64 [s1 + 0x140] = a1\n 12851: a3 = ra >> 0x3f\n 12854: a0 = a0 << 0x1\n 12857: a3 = a3 | a0\n 12860: a0 = u64 [s1 + 0x198]\n 12864: a0 = a0 << 0x1\n 12867: a4 = u64 [s1 + 0x160]\n 12871: a1 = a4 >> 0x3f\n 12874: ra = a0 | a1\n 12877: a1 = a4 << 0x1\n 12880: a4 = u64 [s1 + 0x168]\n 12884: t1 = a4 >> 0x3f\n 12887: t1 = a1 | t1\n 12890: a1 = a4 << 0x1\n 12893: a4 = u64 [s1 + 0x188]\n 12897: t2 = a4 >> 0x3f\n 12900: a1 = a1 | t2\n 12903: a4 = a4 << 0x1\n 12906: a0 = u64 [s1 + 0x158]\n 12910: a4 = a4 | a0\n 12913: u64 [s1 + 0x188] = a4\n 12917: a1 = a1 | a5\n 12920: u64 [s1 + 0x168] = a1\n 12924: a1 = a5 | t1\n 12927: u64 [s1 + 0x160] = a1\n 12931: a0 = a5 | ra\n 12934: u64 [s1 + 0x198] = a0\n 12938: a0 = a2 - a3\n 12941: a0 = a0 <u t0\n 12944: a1 = a2 <u a3\n 12947: t0 = u64 [s1 + 0x140]\n 12951: a4 = a2 - t0\n 12954: a4 = a4 - a1\n 12957: a4 = a4 - a0\n 12960: a5 = a4 >>a 0x3f\n 12963: a0 = u64 [s1 + 0x138]\n 12967: a0 = a0 & a5\n 12970: a1 = u64 [s1 + 0x148]\n 12974: t2 = a1 - a0\n 12977: a1 = a1 <u a0\n 12980: a0 = u64 [s1 + 0x150]\n 12984: t1 = a0 - a1\n 12987: a1 = 0 if a0 != 0\n 12989: a0 = a3 - a1\n 12992: a1 = a3 <u a1\n 12995: a1 = t0 - a1\n 12998: t0 = 498, jump @1586\n      : @526 [@dyn 249] (gas: 17)\n 13004: t0 = a4 <u a2\n 13007: a2 = a4 - a2\n 13010: a4 = a3 <u 0x1\n 13013: ra = ra - a4\n 13016: a4 = u64 [s1 + 0x178]\n 13020: a4 = a4 - t0\n 13023: a3 = a3 + 0xffffffffffffffff\n 13026: u64 [s1 + 0x180] = ra\n 13030: u64 [s1 + 0x178] = a4\n 13034: t0 = ra | a4\n 13037: u64 [s1 + 0x190] = a3\n 13041: a4 = a3 | a2\n 13044: a3 = a4 | t0\n 13047: a4 = a5 & 0x1\n 13050: u64 [s1 + 0x170] = a2\n 13054: a5 = 0\n 13056: jump @525 if a3 != 0\n      : @527 (gas: 4)\n 13060: a0 = u64 [s1 + 0x188]\n 13064: a0 = a0 << 0x1\n 13067: a4 = a4 | a0\n 13070: fallthrough\n      : @528 (gas: 3)\n 13071: a0 = a4 & 0xffffffffffffffff\n 13074: a1 = u64 [s1 + 0x120]\n 13078: jump @530 if a1 == a0\n      : @529 (gas: 1)\n 13081: jump @860\n      : @530 (gas: 8)\n 13084: a0 = 0x30180\n 13089: u64 [s1 + 0x150] = a0\n 13093: i32 a0 = a0 + 0\n 13095: u64 [s1 + 0x148] = a0\n 13099: ra = 0x1f4\n 13103: ecalli 4 // 'caller'\n 13105: t0 = 0x1f6\n 13109: jump @1511\n      : @531 [@dyn 250] (gas: 1)\n 13112: t0 = 502, jump @1511\n      : @532 [@dyn 251] (gas: 9)\n 13118: u64 [a2 + 800] = 0\n 13122: a4 = a2 + 0x300\n 13126: u64 [a4 + 0x18] = a1\n 13129: u64 [a4 + 0x10] = a0\n 13132: a1 = s1 + 0x7ff\n 13136: a1 = a1 + 0x421\n 13140: u64 [a4 + 0x8] = a3\n 13143: a0 = 0\n 13145: ra = 504, jump @24\n      : @533 [@dyn 252] (gas: 11)\n 13151: a0 = s1 + 0x7ff\n 13155: a0 = a0 + 0x119\n 13159: u64 [a0 + 768] = 0\n 13163: u64 [a0 + 760] = 0\n 13167: u64 [a0 + 752] = 0\n 13171: a2 = a0\n 13173: a0 = 0x20\n 13176: a1 = s1 + 0x7ff\n 13180: a1 = a1 + 0x401\n 13184: u64 [a2 + 744] = 0\n 13188: ra = 506, jump @24\n      : @534 [@dyn 253] (gas: 7)\n 13194: a0 = sp + 0xffffffffffffffe0\n 13197: a0 = a0 & 0xffffffffffffffe0\n 13200: u64 [s1 + 0x128] = a0\n 13204: sp = a0\n 13206: a1 = 0x20170\n 13211: a0 = i32 [0x20170]\n 13216: jump @536 if a0 >u 63\n      : @535 (gas: 3)\n 13220: u32 [0x20170] = 0x40\n 13226: t0 = 0x1fc\n 13230: jump @1575\n      : @536 (gas: 1)\n 13233: t0 = 508, jump @1575\n      : @537 [@dyn 254] (gas: 30)\n 13239: a0 = 0x20180\n 13244: i32 a0 = a0 + 0\n 13246: i32 a2 = a2 + 0\n 13248: u64 [s1 + 0x188] = a1\n 13252: a1 = 0x40\n 13255: u64 [s1 + 0x190] = a0\n 13259: ecalli 8 // 'hash_keccak_256'\n 13261: a3 = u64 [s1 + 0x198]\n 13265: a0 = u64 [a3 + 0x18]\n 13268: a1 = u64 [a3 + 0x10]\n 13271: a2 = u64 [a3 + 0x8]\n 13274: a3 = u64 [a3]\n 13276: a4 = reverse a0\n 13278: a1 = reverse a1\n 13280: a2 = reverse a2\n 13282: a3 = reverse a3\n 13284: a0 = u64 [s1 + 0x128]\n 13288: u64 [s1 + 0xf0] = a3\n 13292: u64 [a0 + 0x18] = a3\n 13295: u64 [s1 + 0xf8] = a2\n 13299: u64 [a0 + 0x10] = a2\n 13302: u64 [s1 + 0x100] = a1\n 13306: u64 [a0 + 0x8] = a1\n 13309: u64 [s1 + 0x108] = a4\n 13313: u64 [a0] = a4\n 13315: a0 = u64 [s1 + 0x148]\n 13319: ra = 0x1fe\n 13323: ecalli 4 // 'caller'\n 13325: t0 = 0x200\n 13329: jump @1511\n      : @538 [@dyn 255] (gas: 1)\n 13332: t0 = 512, jump @1511\n      : @539 [@dyn 256] (gas: 9)\n 13338: u64 [a2 + 736] = 0\n 13342: a4 = a2 + 0x200\n 13346: u64 [a4 + 0xd8] = a1\n 13350: u64 [a4 + 0xd0] = a0\n 13354: a1 = s1 + 0x7ff\n 13358: a1 = a1 + 0x3e1\n 13362: u64 [a4 + 0xc8] = a3\n 13366: a0 = 0\n 13368: ra = 514, jump @24\n      : @540 [@dyn 257] (gas: 11)\n 13374: a1 = s1 + 0x7ff\n 13378: a1 = a1 + 0x119\n 13382: u64 [a1 + 704] = 0\n 13386: u64 [a1 + 696] = 0\n 13390: u64 [a1 + 680] = 0x2\n 13395: a2 = a1\n 13397: a0 = 0x20\n 13400: a1 = s1 + 0x7ff\n 13404: a1 = a1 + 0x3c1\n 13408: u64 [a2 + 688] = 0\n 13412: ra = 516, jump @24\n      : @541 [@dyn 258] (gas: 3)\n 13418: a1 = u64 [s1 + 0x188]\n 13422: a0 = i32 [a1]\n 13424: jump @543 if a0 >u 63\n      : @542 (gas: 2)\n 13428: u32 [a1 + 0] = 0x40\n 13431: fallthrough\n      : @543 (gas: 8)\n 13432: a1 = 0xffffffff00000000\n 13442: u64 [s1 + 0x130] = a1\n 13446: a0 = 0xffffffff\n 13456: u64 [s1 + 0x140] = a0\n 13460: a0 = sp + 0xffffffffffffffe0\n 13463: a0 = a0 & 0xffffffffffffffe0\n 13466: u64 [s1 + 0x198] = a0\n 13470: t0 = 518, jump @1513\n      : @544 [@dyn 259] (gas: 5)\n 13476: ra = 0x208\n 13480: ecalli 8 // 'hash_keccak_256'\n 13482: a3 = u64 [s1 + 0x198]\n 13486: t0 = 0x20a\n 13490: jump @1525\n      : @545 [@dyn 260] (gas: 2)\n 13493: a3 = u64 [s1 + 0x198]\n 13497: t0 = 522, jump @1525\n      : @546 [@dyn 261] (gas: 8)\n 13503: u64 [a4 + 0x100] = a3\n 13507: u64 [a4 + 0xf8] = a2\n 13511: u64 [a4 + 0xf0] = a1\n 13515: u64 [a4 + 0xe8] = a0\n 13519: a0 = s1 + 0x7ff\n 13523: a0 = a0 + 0x3a1\n 13527: a1 = s1 + 0x2a00\n 13531: ra = 524, jump @26\n      : @547 [@dyn 262] (gas: 9)\n 13537: u64 [s1 + 272] = 0\n 13541: u64 [s1 + 280] = 0\n 13545: a4 = 0\n 13547: a0 = s1 + 0x7ff\n 13551: a0 = a0 + 0x119\n 13555: a0 = u32 [a0 + 0x288]\n 13559: u64 [s1 + 0x138] = a0\n 13563: a3 = 0x1\n 13566: fallthrough\n      : @548 (gas: 9)\n 13567: a1 = 0\n 13569: a1 = 0 if a4 == 0\n 13571: a0 = u64 [s1 + 0x138]\n 13575: a0 = a0 <u a3\n 13578: a2 = 0\n 13580: a2 = a0 if a4 == 0\n 13583: a0 = 0\n 13585: a2 = a1 if a0 != 0\n 13588: jump @612 if a2 != 0\n      : @549 (gas: 7)\n 13592: u64 [s1 + 376] = 0\n 13596: u64 [s1 + 0x198] = a3\n 13600: a0 = u64 [s1 + 0x148]\n 13604: ra = 0x20e\n 13608: ecalli 4 // 'caller'\n 13610: t0 = 0x210\n 13614: jump @1511\n      : @550 [@dyn 263] (gas: 1)\n 13617: t0 = 528, jump @1511\n      : @551 [@dyn 264] (gas: 9)\n 13623: u64 [a2 + 640] = 0\n 13627: a4 = a2 + 0x200\n 13631: u64 [a4 + 0x78] = a1\n 13634: u64 [a4 + 0x70] = a0\n 13637: a1 = s1 + 0x7ff\n 13641: a1 = a1 + 0x381\n 13645: u64 [a4 + 0x68] = a3\n 13648: a0 = 0\n 13650: ra = 530, jump @24\n      : @552 [@dyn 265] (gas: 11)\n 13656: a0 = s1 + 0x7ff\n 13660: a0 = a0 + 0x119\n 13664: u64 [a0 + 608] = 0\n 13668: u64 [a0 + 600] = 0\n 13672: u64 [a0 + 592] = 0\n 13676: a3 = a0\n 13678: a0 = 0x20\n 13681: a1 = s1 + 0x7ff\n 13685: a1 = a1 + 0x361\n 13689: u64 [a3 + 584] = 0x1\n 13694: ra = 532, jump @24\n      : @553 [@dyn 266] (gas: 3)\n 13700: a1 = u64 [s1 + 0x188]\n 13704: a0 = i32 [a1]\n 13706: jump @555 if a0 >u 63\n      : @554 (gas: 2)\n 13710: u32 [a1 + 0] = 0x40\n 13713: fallthrough\n      : @555 (gas: 4)\n 13714: a0 = sp + 0xffffffffffffffe0\n 13717: a0 = a0 & 0xffffffffffffffe0\n 13720: u64 [s1 + 0x180] = a0\n 13724: t0 = 534, jump @1513\n      : @556 [@dyn 267] (gas: 4)\n 13730: ra = 0x218\n 13734: ecalli 8 // 'hash_keccak_256'\n 13736: t0 = 0x21a\n 13740: jump @1522\n      : @557 [@dyn 268] (gas: 1)\n 13743: t0 = 538, jump @1522\n      : @558 [@dyn 269] (gas: 10)\n 13749: a3 = a2 + 0x200\n 13753: u64 [a3 + 0x40] = a0\n 13756: u64 [a3 + 0x38] = a0\n 13759: u64 [a3 + 0x30] = a0\n 13762: a1 = s1 + 0x7ff\n 13766: a1 = a1 + 0x341\n 13770: a0 = u64 [s1 + 0x198]\n 13774: u64 [a3 + 0x28] = a0\n 13777: a0 = 0\n 13779: ra = 540, jump @24\n      : @559 [@dyn 270] (gas: 1)\n 13785: t0 = 542, jump @1572\n      : @560 [@dyn 271] (gas: 2)\n 13791: a2 = a1 + 0x200\n 13795: t0 = 544, jump @1533\n      : @561 [@dyn 272] (gas: 4)\n 13801: a1 = a1 + 0x321\n 13805: a2 = u64 [s1 + 0x170]\n 13809: u64 [a3 + 0x208] = a2\n 13813: ra = 546, jump @24\n      : @562 [@dyn 273] (gas: 3)\n 13819: a1 = u64 [s1 + 0x188]\n 13823: a0 = i32 [a1]\n 13825: jump @564 if a0 >u 63\n      : @563 (gas: 2)\n 13829: u32 [a1 + 0] = 0x40\n 13832: fallthrough\n      : @564 (gas: 4)\n 13833: a0 = sp + 0xffffffffffffffe0\n 13836: a0 = a0 & 0xffffffffffffffe0\n 13839: u64 [s1 + 0x170] = a0\n 13843: t0 = 548, jump @1513\n      : @565 [@dyn 274] (gas: 3)\n 13849: ra = 0x226\n 13853: ecalli 8 // 'hash_keccak_256'\n 13855: fallthrough\n      : @566 [@dyn 275] (gas: 6)\n 13856: a3 = u64 [s1 + 0x170]\n 13860: a0 = u64 [a3 + 0x18]\n 13863: a1 = u64 [a3 + 0x10]\n 13866: a2 = u64 [a3 + 0x8]\n 13869: a3 = u64 [a3]\n 13871: t0 = 552, jump @1526\n      : @567 [@dyn 276] (gas: 23)\n 13877: a4 = u64 [s1 + 0x180]\n 13881: u64 [a4 + 0x18] = a3\n 13884: u64 [a4 + 0x10] = a2\n 13887: u64 [a4 + 0x8] = a1\n 13890: u64 [a4] = a0\n 13892: a4 = a0 + 0x2\n 13895: a0 = a4 <u a0\n 13898: a5 = a1 + a0\n 13901: a1 = a5 <u a1\n 13904: a1 = a0 if a0 == 0\n 13907: a1 = a1 + a2\n 13910: a0 = a1 <u a2\n 13913: a0 = a0 + a3\n 13916: a2 = s1 + 0x2918\n 13920: a3 = a2 + 0x100\n 13924: u64 [a3 + 0x8] = a4\n 13927: u64 [a3 + 0x10] = a5\n 13930: u64 [a3 + 0x18] = a1\n 13933: u64 [a3 + 0x20] = a0\n 13936: a0 = s1 + 0x7ff\n 13940: a0 = a0 + 0x301\n 13944: a1 = s1 + 0x2a20\n 13948: ra = 554, jump @26\n      : @568 [@dyn 277] (gas: 5)\n 13954: a0 = s1 + 0x7ff\n 13958: a0 = a0 + 0x119\n 13962: a0 = u64 [a0 + 0x1f0]\n 13966: a0 = a0 & 0xff\n 13970: jump @571 if a0 == 0\n      : @569 (gas: 2)\n 13973: a1 = u64 [s1 + 0x140]\n 13977: fallthrough\n      : @570 (gas: 5)\n 13978: a4 = 0\n 13980: a0 = u64 [s1 + 0x198]\n 13984: a0 = a0 + 0x1\n 13987: a3 = a0 & a1\n 13990: jump @548\n      : @571 (gas: 4)\n 13993: a0 = s1 + 0x7ff\n 13997: a0 = a0 + 0x2e1\n 14001: a1 = u64 [s1 + 0x180]\n 14005: ra = 556, jump @26\n      : @572 [@dyn 278] (gas: 13)\n 14011: a2 = s1 + 0x7ff\n 14015: a2 = a2 + 0x119\n 14019: a3 = a2 + 0x100\n 14023: a0 = u64 [a3 + 0xd0]\n 14027: a1 = u64 [a3 + 0xd8]\n 14031: a2 = u64 [a3 + 0xc8]\n 14035: a0 = a0 & 0xffffffffffffffff\n 14038: a1 = a1 & 0xffffffffffffffff\n 14041: a4 = u64 [s1 + 0x130]\n 14045: a2 = a2 & a4\n 14048: a1 = a1 | a2\n 14051: a0 = a0 | a1\n 14054: jump @569 if a0 == 0\n      : @573 (gas: 5)\n 14057: a0 = u64 [s1 + 0x148]\n 14061: ra = 0x22e\n 14065: ecalli 4 // 'caller'\n 14067: t0 = 0x230\n 14071: jump @1511\n      : @574 [@dyn 279] (gas: 1)\n 14074: t0 = 560, jump @1511\n      : @575 [@dyn 280] (gas: 9)\n 14080: u64 [a2 + 448] = 0\n 14084: a4 = a2 + 0x100\n 14088: u64 [a4 + 0xb8] = a1\n 14092: u64 [a4 + 0xb0] = a0\n 14096: a1 = s1 + 0x7ff\n 14100: a1 = a1 + 0x2c1\n 14104: u64 [a4 + 0xa8] = a3\n 14108: a0 = 0\n 14110: ra = 562, jump @24\n      : @576 [@dyn 281] (gas: 11)\n 14116: a0 = s1 + 0x7ff\n 14120: a0 = a0 + 0x119\n 14124: u64 [a0 + 416] = 0\n 14128: u64 [a0 + 408] = 0\n 14132: u64 [a0 + 400] = 0\n 14136: a3 = a0\n 14138: a0 = 0x20\n 14141: a1 = s1 + 0x7ff\n 14145: a1 = a1 + 0x2a1\n 14149: u64 [a3 + 392] = 0x3\n 14154: ra = 564, jump @24\n      : @577 [@dyn 282] (gas: 3)\n 14160: a1 = u64 [s1 + 0x188]\n 14164: a0 = i32 [a1]\n 14166: jump @579 if a0 >u 63\n      : @578 (gas: 2)\n 14170: u32 [a1 + 0] = 0x40\n 14173: fallthrough\n      : @579 (gas: 4)\n 14174: a0 = sp + 0xffffffffffffffe0\n 14177: a0 = a0 & 0xffffffffffffffe0\n 14180: u64 [s1 + 0x180] = a0\n 14184: t0 = 566, jump @1513\n      : @580 [@dyn 283] (gas: 5)\n 14190: ra = 0x238\n 14194: ecalli 8 // 'hash_keccak_256'\n 14196: a3 = u64 [s1 + 0x180]\n 14200: t0 = 0x23a\n 14204: jump @1565\n      : @581 [@dyn 284] (gas: 2)\n 14207: a3 = u64 [s1 + 0x180]\n 14211: t0 = 570, jump @1565\n      : @582 [@dyn 285] (gas: 2)\n 14217: u64 [s1 + 0x180] = a0\n 14221: t0 = 572, jump @1561\n      : @583 [@dyn 286] (gas: 11)\n 14227: a2 = s1 + 0x7ff\n 14231: a2 = a2 + 0x119\n 14235: u64 [a2 + 384] = 0\n 14239: u64 [a2 + 376] = 0\n 14243: u64 [a2 + 368] = 0\n 14247: a1 = s1 + 0x7ff\n 14251: a1 = a1 + 0x281\n 14255: a0 = u64 [s1 + 0x120]\n 14259: u64 [a2 + 0x168] = a0\n 14263: a0 = 0\n 14265: ra = 574, jump @24\n      : @584 [@dyn 287] (gas: 16)\n 14271: a0 = u64 [s1 + 0x160]\n 14275: a1 = s1 + 0x7ff\n 14279: a1 = a1 + 0x119\n 14283: a2 = a1 + 0x100\n 14287: u64 [a2 + 0x60] = a0\n 14290: a0 = u64 [s1 + 0x168]\n 14294: u64 [a2 + 0x58] = a0\n 14297: a0 = u64 [s1 + 0x170]\n 14301: u64 [a2 + 0x50] = a0\n 14304: a3 = a1\n 14306: a0 = 0x20\n 14309: a1 = s1 + 0x7ff\n 14313: a1 = a1 + 0x261\n 14317: a2 = u64 [s1 + 0x180]\n 14321: u64 [a3 + 0x148] = a2\n 14325: ra = 576, jump @24\n      : @585 [@dyn 288] (gas: 3)\n 14331: a1 = u64 [s1 + 0x188]\n 14335: a0 = i32 [a1]\n 14337: jump @587 if a0 >u 63\n      : @586 (gas: 2)\n 14341: u32 [a1 + 0] = 0x40\n 14344: fallthrough\n      : @587 (gas: 4)\n 14345: a0 = sp + 0xffffffffffffffe0\n 14348: a0 = a0 & 0xffffffffffffffe0\n 14351: u64 [s1 + 0x180] = a0\n 14355: t0 = 578, jump @1513\n      : @588 [@dyn 289] (gas: 4)\n 14361: ra = 0x244\n 14365: ecalli 8 // 'hash_keccak_256'\n 14367: t0 = 0x246\n 14371: jump @1522\n      : @589 [@dyn 290] (gas: 1)\n 14374: t0 = 582, jump @1522\n      : @590 [@dyn 291] (gas: 10)\n 14380: a3 = a2 + 0x100\n 14384: u64 [a3 + 0x40] = a0\n 14387: u64 [a3 + 0x38] = a0\n 14390: u64 [a3 + 0x30] = a0\n 14393: a1 = s1 + 0x7ff\n 14397: a1 = a1 + 0x241\n 14401: a0 = u64 [s1 + 0x198]\n 14405: u64 [a3 + 0x28] = a0\n 14408: a0 = 0\n 14410: ra = 584, jump @24\n      : @591 [@dyn 292] (gas: 1)\n 14416: t0 = 586, jump @1572\n      : @592 [@dyn 293] (gas: 2)\n 14422: a2 = a1 + 0x100\n 14426: t0 = 588, jump @1533\n      : @593 [@dyn 294] (gas: 4)\n 14432: a1 = a1 + 0x221\n 14436: a2 = u64 [s1 + 0x170]\n 14440: u64 [a3 + 0x108] = a2\n 14444: ra = 590, jump @24\n      : @594 [@dyn 295] (gas: 3)\n 14450: a1 = u64 [s1 + 0x188]\n 14454: a0 = i32 [a1]\n 14456: jump @596 if a0 >u 63\n      : @595 (gas: 2)\n 14460: u32 [a1 + 0] = 0x40\n 14463: fallthrough\n      : @596 (gas: 4)\n 14464: a0 = sp + 0xffffffffffffffe0\n 14467: a0 = a0 & 0xffffffffffffffe0\n 14470: u64 [s1 + 0x178] = a0\n 14474: t0 = 592, jump @1513\n      : @597 [@dyn 296] (gas: 5)\n 14480: ra = 0x252\n 14484: ecalli 8 // 'hash_keccak_256'\n 14486: a3 = u64 [s1 + 0x178]\n 14490: t0 = 0x254\n 14494: jump @1543\n      : @598 [@dyn 297] (gas: 2)\n 14497: a3 = u64 [s1 + 0x178]\n 14501: t0 = 596, jump @1543\n      : @599 [@dyn 298] (gas: 3)\n 14507: a0 = s1 + 0x7ff\n 14511: a0 = a0 + 0x201\n 14515: ra = 598, jump @26\n      : @600 [@dyn 299] (gas: 5)\n 14521: a0 = s1 + 0x7ff\n 14525: a0 = a0 + 0x119\n 14529: a0 = u64 [a0 + 0xe8]\n 14533: a0 = a0 & 0x1\n 14536: jump @569 if a0 != 0\n      : @601 (gas: 4)\n 14540: a0 = s1 + 0x7ff\n 14544: a0 = a0 + 0x1e1\n 14548: a1 = u64 [s1 + 0x128]\n 14552: ra = 600, jump @26\n      : @602 [@dyn 300] (gas: 10)\n 14558: a3 = s1 + 0x7ff\n 14562: a3 = a3 + 0x119\n 14566: a0 = u64 [a3 + 0xc8]\n 14570: a2 = u64 [0x200c8]\n 14575: a1 = u64 [a3 + 0xd0]\n 14579: a3 = a0 & 0xfffffffffff80000\n 14584: a2 = a2 <u a3\n 14587: a3 = a1 >u 0\n 14589: a3 = a2 if a1 == 0\n 14592: jump @604 if a3 != 0\n      : @603 (gas: 7)\n 14595: a2 = s1 + 0x100\n 14599: a0 = u64 [a2 + 0x10]\n 14602: a0 = a0 + 0x1\n 14605: a1 = u64 [a2 + 0x40]\n 14608: a0 = a0 & a1\n 14611: u64 [a2 + 0x10] = a0\n 14614: jump @570\n      : @604 (gas: 13)\n 14617: a2 = u64 [0x200d0]\n 14622: a2 = a2 + a0\n 14625: a0 = a2 <u a0\n 14628: a0 = a0 + a1\n 14631: a0 = a0 + 0xffffffffffffffff\n 14634: a0 = a0 & 0xffffffffffffffff\n 14637: u64 [s1 + 0x178] = a0\n 14641: a1 = a2 & 0xffffffffffffffff\n 14644: u64 [s1 + 0x170] = a1\n 14648: a0 = s1 + 0x7ff\n 14652: a0 = a0 + 0x1c1\n 14656: a1 = u64 [s1 + 0x128]\n 14660: ra = 602, jump @26\n      : @605 [@dyn 301] (gas: 19)\n 14666: a0 = s1 + 0x7ff\n 14670: a0 = a0 + 0x119\n 14674: a0 = u64 [a0 + 0xc0]\n 14678: a1 = s1 + 0x7ff\n 14682: a1 = a1 + 0x119\n 14686: a1 = u64 [a1 + 0xb8]\n 14690: a0 = a0 & 0xffffffffffffffff\n 14693: a1 = a1 & 0xffffffffffffffff\n 14696: a2 = s1 + 0x2918\n 14700: a3 = a2 + 0x100\n 14704: u64 [a3 + 0x38] = a1\n 14707: a1 = u64 [s1 + 0x170]\n 14711: u64 [a3 + 0x28] = a1\n 14714: u64 [a3 + 0x40] = a0\n 14717: a0 = u64 [s1 + 0x178]\n 14721: u64 [a3 + 0x30] = a0\n 14724: a1 = s1 + 0x2a40\n 14728: a0 = u64 [s1 + 0x128]\n 14732: ra = 604, jump @30\n      : @606 [@dyn 302] (gas: 4)\n 14738: a0 = s1 + 0x7ff\n 14742: a0 = a0 + 0x1a1\n 14746: a1 = u64 [s1 + 0x128]\n 14750: ra = 606, jump @26\n      : @607 [@dyn 303] (gas: 45)\n 14756: a0 = s1 + 0x7ff\n 14760: a0 = a0 + 0x119\n 14764: a0 = u64 [a0 + 0x98]\n 14768: a1 = u64 [0x200c0]\n 14773: a2 = s1 + 0x7ff\n 14777: a2 = a2 + 0x119\n 14781: a2 = u64 [a2 + 0xa0]\n 14785: a1 = a1 + a0\n 14788: a0 = a1 <u a0\n 14791: a0 = a0 + a2\n 14794: a0 = a0 & 0xffffffffffffffff\n 14797: a1 = a1 & 0xffffffffffffffff\n 14800: a2 = s1 + 0x7ff\n 14804: a2 = a2 + 0x119\n 14808: u64 [a2 + 96] = 0\n 14811: a2 = s1 + 0x7ff\n 14815: a2 = a2 + 0x119\n 14819: u64 [a2 + 88] = 0\n 14822: a2 = s1 + 0x7ff\n 14826: a2 = a2 + 0x119\n 14830: a3 = u64 [s1 + 0xf0]\n 14834: u64 [a2 + 0x80] = a3\n 14838: a2 = s1 + 0x7ff\n 14842: a2 = a2 + 0x119\n 14846: a3 = u64 [s1 + 0xf8]\n 14850: u64 [a2 + 0x78] = a3\n 14853: a2 = s1 + 0x7ff\n 14857: a2 = a2 + 0x119\n 14861: a3 = u64 [s1 + 0x100]\n 14865: u64 [a2 + 0x70] = a3\n 14868: a2 = s1 + 0x7ff\n 14872: a2 = a2 + 0x119\n 14876: u64 [a2 + 0x48] = a1\n 14879: a1 = s1 + 0x7ff\n 14883: a1 = a1 + 0x119\n 14887: u64 [a1 + 0x50] = a0\n 14890: a0 = s1 + 0x7ff\n 14894: a0 = a0 + 0x181\n 14898: a1 = s1 + 0x7ff\n 14902: a1 = a1 + 0x161\n 14906: a2 = s1 + 0x7ff\n 14910: a2 = a2 + 0x119\n 14914: a3 = u64 [s1 + 0x108]\n 14918: u64 [a2 + 0x68] = a3\n 14921: ra = 608, jump @1364\n      : @608 [@dyn 304] (gas: 9)\n 14927: a0 = u64 [s1 + 0x118]\n 14931: a0 = a0 + 0x1\n 14934: a1 = u64 [s1 + 0x140]\n 14938: a0 = a0 & a1\n 14941: u64 [s1 + 0x118] = a0\n 14945: a0 = s1 + 0x7ff\n 14949: a0 = a0 + 0x141\n 14953: a1 = u64 [s1 + 0x180]\n 14957: ra = 610, jump @26\n      : @609 [@dyn 305] (gas: 9)\n 14963: a0 = s1 + 0x7ff\n 14967: a0 = a0 + 0x119\n 14971: a0 = u64 [a0 + 0x28]\n 14974: a0 = a0 & 0xfe\n 14978: u64 [s1 + 0x178] = a0\n 14982: a0 = s1 + 0x7ff\n 14986: a0 = a0 + 0x121\n 14990: a1 = u64 [s1 + 0x180]\n 14994: ra = 612, jump @26\n      : @610 [@dyn 306] (gas: 25)\n 15000: a0 = s1 + 0x7ff\n 15004: a0 = a0 + 0x119\n 15008: a0 = u64 [a0 + 0x8]\n 15011: a1 = s1 + 0x7ff\n 15015: a1 = a1 + 0x119\n 15019: a1 = u64 [a1 + 0x10]\n 15022: a2 = s1 + 0x7ff\n 15026: a2 = a2 + 0x119\n 15030: a2 = u64 [a2 + 0x18]\n 15033: a3 = s1 + 0x7ff\n 15037: a3 = a3 + 0x119\n 15041: a3 = u64 [a3 + 0x20]\n 15044: a0 = a0 & 0xffffffffffffff00\n 15048: a4 = u64 [s1 + 0x178]\n 15052: a0 = a0 | a4\n 15055: a0 = a0 + 0x1\n 15058: a4 = s1 + 0x2918\n 15062: a5 = a4 + 0x100\n 15066: u64 [a5 + 0x60] = a3\n 15069: u64 [a5 + 0x58] = a2\n 15072: u64 [a5 + 0x50] = a1\n 15075: u64 [a5 + 0x48] = a0\n 15078: a1 = s1 + 0x2a60\n 15082: a0 = u64 [s1 + 0x180]\n 15086: ra = 614, jump @30\n      : @611 [@dyn 307] (gas: 1)\n 15092: jump @569\n      : @612 (gas: 4)\n 15095: a0 = s1 + 0x7ff\n 15099: a0 = a0 + 0x101\n 15103: a1 = 0x40\n 15106: ra = 616, jump @22\n      : @613 [@dyn 308] (gas: 16)\n 15112: a0 = s1 + 0x7ff\n 15116: a0 = a0 + 0x119\n 15120: a4 = u64 [a0]\n 15122: a5 = u64 [a0 + 0xfffffffffffffff8]\n 15125: a0 = s1 + 0x1000\n 15129: a3 = u64 [a0 + 0xfffffffffffff908]\n 15133: a0 = s1 + 0x1000\n 15137: a2 = u64 [a0 + 0xfffffffffffff900]\n 15141: a0 = a3 | a4\n 15144: a1 = a2 | a5\n 15147: a1 = a1 | a0\n 15150: a1 = a1 >> 0x20\n 15153: a0 = a0 | a5\n 15156: a0 = a0 << 0x20\n 15159: a0 = a0 | a1\n 15162: jump @615 if a0 == 0\n      : @614 (gas: 1)\n 15165: jump @794\n      : @615 (gas: 19)\n 15168: a0 = u64 [s1 + 0x118]\n 15172: a1 = u64 [s1 + 0x140]\n 15176: a0 = a0 & a1\n 15179: a1 = s1 + 0x1000\n 15183: u64 [a1 + 4294965496] = 0\n 15187: a1 = s1 + 0x1000\n 15191: u64 [a1 + 4294965488] = 0\n 15195: a1 = s1 + 0x1000\n 15199: u64 [a1 + 4294965480] = 0\n 15203: a1 = s1 + 0x7ff\n 15207: a1 = a1 + 0xe1\n 15211: t0 = s1 + 0x1000\n 15215: u64 [t0 + 0xfffffffffffff8e0] = a0\n 15219: a0 = a2\n 15221: u64 [s1 + 0x198] = a2\n 15225: u64 [s1 + 0x188] = a3\n 15229: u64 [s1 + 0x180] = a4\n 15233: u64 [s1 + 0x178] = a5\n 15237: ra = 618, jump @24\n      : @616 [@dyn 309] (gas: 11)\n 15243: a4 = s1 + 0x100\n 15247: a2 = u64 [a4 + 0x98]\n 15251: a0 = u64 [a4 + 0x80]\n 15255: a1 = u64 [a4 + 0x78]\n 15258: a0 = a0 | a1\n 15261: a1 = 0xffffffe0\n 15271: a1 = a2 <u a1\n 15274: a3 = u64 [a4 + 0x88]\n 15278: a1 = 0 if a3 != 0\n 15280: a1 = 0 if a0 != 0\n 15282: jump @618 if a1 != 0\n      : @617 (gas: 1)\n 15285: jump @794\n      : @618 (gas: 15)\n 15288: a0 = u64 [s1 + 0x110]\n 15292: a1 = u64 [s1 + 0x140]\n 15296: a1 = a1 & a0\n 15299: i32 a0 = a2 + 0x20\n 15302: a2 = s1 + 0x1000\n 15306: u64 [a2 + 4294965464] = 0\n 15310: a2 = s1 + 0x1000\n 15314: u64 [a2 + 4294965456] = 0\n 15318: a2 = s1 + 0x1000\n 15322: u64 [a2 + 0xfffffffffffff8c0] = a1\n 15326: a1 = s1 + 0x7ff\n 15330: a1 = a1 + 0xc1\n 15334: a2 = s1 + 0x1000\n 15338: u64 [a2 + 4294965448] = 0\n 15342: ra = 620, jump @24\n      : @619 [@dyn 310] (gas: 6)\n 15348: a0 = u64 [s1 + 0x148]\n 15352: ra = 0x26e\n 15356: ecalli 4 // 'caller'\n 15358: a2 = u64 [s1 + 0x150]\n 15362: t0 = 0x270\n 15366: jump @1515\n      : @620 [@dyn 311] (gas: 2)\n 15369: a2 = u64 [s1 + 0x150]\n 15373: t0 = 624, jump @1515\n      : @621 [@dyn 312] (gas: 45)\n 15379: t0 = a1 | a0\n 15382: a3 = a3 >> 0x20\n 15385: a2 = reverse a2\n 15387: a1 = a2 << 0x20\n 15390: a1 = a1 | a3\n 15393: a2 = a2 >> 0x20\n 15396: a0 = s1 + 0x1000\n 15400: u64 [a0 + 4294965368] = 0\n 15404: a0 = s1 + 0x1000\n 15408: u64 [a0 + 4294965360] = 0\n 15412: a0 = s1 + 0x1000\n 15416: u64 [a0 + 4294965352] = 0\n 15420: a0 = u64 [s1 + 0x120]\n 15424: a3 = s1 + 0x1000\n 15428: u64 [a3 + 0xfffffffffffff860] = a0\n 15432: a0 = s1 + 0x1000\n 15436: u64 [a0 + 4294965400] = 0\n 15440: a3 = u64 [0x200d8]\n 15445: a4 = u64 [0x200e0]\n 15450: a5 = u64 [0x200e8]\n 15455: a0 = u64 [0x200f0]\n 15460: t1 = s1 + 0x1000\n 15464: u64 [t1 + 0xfffffffffffff8b8] = a3\n 15468: a3 = s1 + 0x1000\n 15472: u64 [a3 + 0xfffffffffffff8b0] = a4\n 15476: a3 = s1 + 0x1000\n 15480: u64 [a3 + 0xfffffffffffff8a8] = a5\n 15484: a3 = s1 + 0x1000\n 15488: u64 [a3 + 0xfffffffffffff8a0] = a0\n 15492: a0 = s1 + 0x1000\n 15496: u64 [a0 + 0xfffffffffffff890] = a2\n 15500: a0 = s1 + 0x1000\n 15504: u64 [a0 + 0xfffffffffffff888] = a1\n 15508: a1 = 0x40\n 15511: a2 = s1 + 0x7ff\n 15515: a2 = a2 + 0xa1\n 15519: a3 = s1 + 0x7ff\n 15523: a3 = a3 + 0x81\n 15527: a4 = s1 + 0x7ff\n 15531: a4 = a4 + 0x61\n 15534: a0 = s1 + 0x1000\n 15538: u64 [a0 + 0xfffffffffffff880] = t0\n 15542: a0 = u64 [s1 + 0x198]\n 15546: ra = 0x49c\n 15550: jump @33\n      : @622 (gas: 1)\n 15553: t0 = 626, jump @1562\n      : @623 [@dyn 313] (gas: 12)\n 15559: t0 = u64 [s1 + 0x168]\n 15563: a3 = a0 if t0 != 0\n 15566: u64 [s1 + 0x198] = a3\n 15570: a0 = u64 [s1 + 0x160]\n 15574: a2 = u64 [s1 + 0x130]\n 15578: a0 = a0 | a2\n 15581: a2 = u64 [s1 + 0x118]\n 15585: a0 = a2 if a4 == 0\n 15588: a5 = u64 [s1 + 0x150]\n 15592: a3 = a5\n 15594: a3 = a0 if t0 != 0\n 15597: t0 = 628, jump @1544\n      : @624 [@dyn 314] (gas: 1)\n 15603: ra = 630, jump @1592\n      : @625 [@dyn 315] (gas: 6)\n 15609: u64 [s1 + 0x130] = a0\n 15613: u64 [s1 + 0x118] = a1\n 15617: a0 = u64 [s1 + 0x158]\n 15621: a1 = u64 [s1 + 0x148]\n 15625: a2 = u64 [s1 + 0x190]\n 15629: ra = 632, jump @1592\n      : @626 [@dyn 316] (gas: 1)\n 15635: t0 = 634, jump @1552\n      : @627 [@dyn 317] (gas: 1)\n 15641: ra = 636, jump @1597\n      : @628 [@dyn 318] (gas: 1)\n 15647: t0 = 638, jump @1555\n      : @629 [@dyn 319] (gas: 14)\n 15653: a2 = u64 [s1 + 0x148]\n 15657: a2 = a1 if a3 != 0\n 15660: u64 [s1 + 0x148] = a2\n 15664: a1 = u64 [s1 + 0x110]\n 15668: a0 = a0 | a1\n 15671: a1 = u64 [s1 + 0x130]\n 15675: a0 = a1 if a4 == 0\n 15678: a1 = u64 [s1 + 0x158]\n 15682: a1 = a0 if a3 != 0\n 15685: a2 = a3\n 15687: u64 [s1 + 0x158] = a1\n 15691: a0 = u64 [s1 + 0x150]\n 15695: a1 = u64 [s1 + 0x140]\n 15699: ra = 640, jump @1592\n      : @630 [@dyn 320] (gas: 1)\n 15705: t0 = 642, jump @1536\n      : @631 [@dyn 321] (gas: 3)\n 15711: t1 = u64 [s1 + 0x148]\n 15715: t2 = u64 [s1 + 0x158]\n 15719: fallthrough\n      : @632 (gas: 68)\n 15720: u64 [s1 + 0x158] = a4\n 15724: a2 = t2 >> 0x3f\n 15727: a3 = t1 << 0x1\n 15730: t0 = a3 | a2\n 15733: a3 = t2 << 0x1\n 15736: a4 = u64 [s1 + 0x198]\n 15740: a4 = a4 >> 0x3f\n 15743: a3 = a3 | a4\n 15746: u64 [s1 + 0x148] = a3\n 15750: a2 = u64 [s1 + 0x128]\n 15754: t2 = a1\n 15756: u64 [s1 + 0x150] = t0\n 15760: a1 = a2 ^ t0\n 15763: ra = t1\n 15765: t1 = a2 <u t0\n 15768: a4 = u64 [s1 + 0x130]\n 15772: t0 = a4 <u a3\n 15775: t0 = t1 if a1 != 0\n 15778: a1 = t2 << 0x1\n 15781: a3 = a0 >> 0x3f\n 15784: a1 = a1 | a3\n 15787: u64 [s1 + 0x140] = a1\n 15791: a3 = ra >> 0x3f\n 15794: a0 = a0 << 0x1\n 15797: a3 = a3 | a0\n 15800: a0 = u64 [s1 + 0x198]\n 15804: a0 = a0 << 0x1\n 15807: a4 = u64 [s1 + 0x160]\n 15811: a1 = a4 >> 0x3f\n 15814: ra = a0 | a1\n 15817: a1 = a4 << 0x1\n 15820: a4 = u64 [s1 + 0x168]\n 15824: t1 = a4 >> 0x3f\n 15827: t1 = a1 | t1\n 15830: a1 = a4 << 0x1\n 15833: a4 = u64 [s1 + 0x188]\n 15837: t2 = a4 >> 0x3f\n 15840: a1 = a1 | t2\n 15843: a4 = a4 << 0x1\n 15846: a0 = u64 [s1 + 0x158]\n 15850: a4 = a4 | a0\n 15853: u64 [s1 + 0x188] = a4\n 15857: a1 = a1 | a5\n 15860: u64 [s1 + 0x168] = a1\n 15864: a1 = a5 | t1\n 15867: u64 [s1 + 0x160] = a1\n 15871: a0 = a5 | ra\n 15874: u64 [s1 + 0x198] = a0\n 15878: a0 = a2 - a3\n 15881: a0 = a0 <u t0\n 15884: a1 = a2 <u a3\n 15887: t0 = u64 [s1 + 0x140]\n 15891: a4 = a2 - t0\n 15894: a4 = a4 - a1\n 15897: a4 = a4 - a0\n 15900: a5 = a4 >>a 0x3f\n 15903: a0 = u64 [s1 + 0x138]\n 15907: a0 = a0 & a5\n 15910: a1 = u64 [s1 + 0x148]\n 15914: t2 = a1 - a0\n 15917: a1 = a1 <u a0\n 15920: a0 = u64 [s1 + 0x150]\n 15924: t1 = a0 - a1\n 15927: a1 = 0 if a0 != 0\n 15929: a0 = a3 - a1\n 15932: a1 = a3 <u a1\n 15935: a1 = t0 - a1\n 15938: t0 = 644, jump @1586\n      : @633 [@dyn 322] (gas: 17)\n 15944: t0 = a4 <u a2\n 15947: a2 = a4 - a2\n 15950: a4 = a3 <u 0x1\n 15953: ra = ra - a4\n 15956: a4 = u64 [s1 + 0x178]\n 15960: a4 = a4 - t0\n 15963: a3 = a3 + 0xffffffffffffffff\n 15966: u64 [s1 + 0x180] = ra\n 15970: u64 [s1 + 0x178] = a4\n 15974: t0 = ra | a4\n 15977: u64 [s1 + 0x190] = a3\n 15981: a4 = a3 | a2\n 15984: a3 = a4 | t0\n 15987: a4 = a5 & 0x1\n 15990: u64 [s1 + 0x170] = a2\n 15994: a5 = 0\n 15996: jump @632 if a3 != 0\n      : @634 (gas: 4)\n 16000: a0 = u64 [s1 + 0x188]\n 16004: a0 = a0 << 0x1\n 16007: a4 = a4 | a0\n 16010: fallthrough\n      : @635 (gas: 4)\n 16011: u64 [s1 + 0x170] = a4\n 16015: a0 = s1 + 0x2420\n 16019: a1 = 0x40\n 16022: ra = 646, jump @22\n      : @636 [@dyn 323] (gas: 17)\n 16028: t0 = s1 + 0x2118\n 16032: t1 = u64 [t0 + 0x320]\n 16036: a0 = t0 + 0x300\n 16040: a5 = u64 [a0 + 0x18]\n 16043: a3 = u64 [a0 + 0x10]\n 16046: a4 = u64 [a0 + 0x8]\n 16049: a0 = t1 >u 0\n 16051: a1 = a5 >u 0\n 16053: a1 = a0 if t1 != 0\n 16056: a0 = a3 >u 0\n 16058: a2 = a4 <u 0xffffffffffffff60\n 16062: a2 = a2 ^ 0x1\n 16065: a2 = a0 if a3 != 0\n 16068: a0 = a5 | t1\n 16071: u64 [s1 + 0x178] = a0\n 16075: a2 = a1 if a0 != 0\n 16078: jump @638 if a2 == 0\n      : @637 (gas: 1)\n 16081: jump @883\n      : @638 (gas: 21)\n 16084: a0 = a4 + 0xa0\n 16088: a1 = a0 <u a4\n 16091: a2 = a3 + a1\n 16094: u64 [s1 + 0x198] = a3\n 16098: a3 = u64 [s1 + 0x198]\n 16102: a3 = a2 <u a3\n 16105: a3 = a1 if a1 == 0\n 16108: a3 = a3 + a5\n 16111: a1 = a3 <u a5\n 16114: u64 [s1 + 0x190] = a4\n 16118: a4 = t1 + a1\n 16121: a1 = t0 + 0x200\n 16125: u64 [a1 + 0xe8] = a0\n 16129: u64 [a1 + 0xf0] = a2\n 16133: u64 [a1 + 0xf8] = a3\n 16137: a0 = 0x40\n 16140: a1 = s1 + 0x2400\n 16144: u64 [t0 + 0x300] = a4\n 16148: u64 [s1 + 0x180] = a5\n 16152: u64 [s1 + 0x188] = t1\n 16156: ra = 648, jump @24\n      : @639 [@dyn 324] (gas: 13)\n 16162: a5 = s1 + 0x100\n 16166: a2 = u64 [a5 + 0x90]\n 16170: a3 = u64 [a5 + 0x80]\n 16174: a0 = a2 | a3\n 16177: a1 = u64 [a5 + 0x98]\n 16181: a4 = u64 [a5 + 0x88]\n 16185: a1 = a1 | a4\n 16188: a0 = a0 | a1\n 16191: a0 = a0 >> 0x20\n 16194: a1 = a1 | a3\n 16197: a1 = a1 << 0x20\n 16200: a0 = a0 | a1\n 16203: jump @641 if a0 == 0\n      : @640 (gas: 1)\n 16206: jump @794\n      : @641 (gas: 12)\n 16209: a3 = s1 + 0x2118\n 16213: u64 [a3 + 736] = 0\n 16217: a0 = u64 [s1 + 0x100]\n 16221: a4 = a3 + 0x200\n 16225: u64 [a4 + 0xc8] = a0\n 16229: a0 = u64 [s1 + 0xf8]\n 16233: u64 [a4 + 0xd0] = a0\n 16237: a1 = s1 + 0x23e0\n 16241: a0 = u64 [s1 + 0x108]\n 16245: u64 [a4 + 0xd8] = a0\n 16249: a0 = a2\n 16251: ra = 650, jump @24\n      : @642 [@dyn 325] (gas: 3)\n 16257: a0 = u64 [s1 + 0xc8]\n 16261: ecalli 4 // 'caller'\n 16263: fallthrough\n      : @643 (gas: 9)\n 16264: a2 = s1 + 0x100\n 16268: a4 = u64 [a2 + 0x90]\n 16272: a0 = 0xffffffe0\n 16282: a0 = a4 <u a0\n 16285: a1 = u64 [a2 + 0x98]\n 16289: a0 = 0 if a1 != 0\n 16291: a1 = u64 [a2 + 0x78]\n 16294: a0 = 0 if a1 != 0\n 16296: jump @645 if a0 != 0\n      : @644 (gas: 1)\n 16299: jump @794\n      : @645 (gas: 24)\n 16302: a2 = u64 [s1 + 0xe8]\n 16306: a0 = u64 [a2 + 0x8]\n 16309: a1 = i32 [a2 + 0x10]\n 16312: a2 = u64 [a2]\n 16314: a0 = reverse a0\n 16316: a3 = a0 << 0x20\n 16319: a1 = reverse a1\n 16321: a1 = a1 >> 0x20\n 16324: a3 = a3 | a1\n 16327: a0 = a0 >> 0x20\n 16330: a1 = reverse a2\n 16332: a2 = a1 << 0x20\n 16335: a2 = a2 | a0\n 16338: a1 = a1 >> 0x20\n 16341: i32 a0 = a4 + 0x20\n 16344: a4 = s1 + 0x2118\n 16348: u64 [a4 + 704] = 0\n 16352: a5 = a4 + 0x200\n 16356: u64 [a5 + 0xb8] = a1\n 16360: u64 [a5 + 0xb0] = a2\n 16364: a1 = s1 + 0x23c0\n 16368: u64 [a5 + 0xa8] = a3\n 16372: u64 [s1 + 0x138] = a0\n 16376: ra = 652, jump @24\n      : @646 [@dyn 326] (gas: 13)\n 16382: a0 = u64 [s1 + 0xf0]\n 16386: a3 = s1 + 0x2118\n 16390: a4 = a3 + 0x200\n 16394: u64 [a4 + 0x80] = a0\n 16398: a0 = u64 [s1 + 0xb8]\n 16402: u64 [a4 + 0x78] = a0\n 16405: a0 = u64 [s1 + 0xb0]\n 16409: u64 [a4 + 0x70] = a0\n 16412: a0 = s1 + 0x23a0\n 16416: a1 = s1 + 0x2380\n 16420: a2 = u64 [s1 + 0xc0]\n 16424: u64 [a4 + 0x68] = a2\n 16427: ra = 654, jump @1480\n      : @647 [@dyn 327] (gas: 13)\n 16433: a0 = s1 + 0x2118\n 16437: a2 = a0 + 0x200\n 16441: a1 = u64 [a2 + 0x88]\n 16445: u64 [s1 + 0x158] = a1\n 16449: a1 = u64 [a2 + 0x90]\n 16453: u64 [s1 + 0x150] = a1\n 16457: a1 = u64 [a2 + 0x98]\n 16461: u64 [s1 + 0x148] = a1\n 16465: a1 = u64 [a2 + 0xa0]\n 16469: u64 [s1 + 0x140] = a1\n 16473: a0 = s1 + 0x2360\n 16477: a1 = 0x40\n 16480: ra = 656, jump @22\n      : @648 [@dyn 328] (gas: 26)\n 16486: a0 = s1 + 0x2118\n 16490: a3 = u64 [a0 + 0x260]\n 16494: u64 [s1 + 0x188] = a3\n 16498: a1 = u64 [a0 + 0x258]\n 16502: u64 [s1 + 0x180] = a1\n 16506: a5 = u64 [a0 + 0x250]\n 16510: u64 [s1 + 0x168] = a5\n 16514: a4 = u64 [a0 + 0x248]\n 16518: u64 [s1 + 0x160] = a4\n 16522: a2 = u64 [s1 + 0x140]\n 16526: u64 [a0 + 0x220] = a2\n 16530: a2 = u64 [s1 + 0x148]\n 16534: u64 [a0 + 0x218] = a2\n 16538: a2 = u64 [s1 + 0x150]\n 16542: u64 [a0 + 0x210] = a2\n 16546: a2 = u64 [s1 + 0x158]\n 16550: u64 [a0 + 0x208] = a2\n 16554: a2 = a0 + 0x200\n 16558: u64 [a2 + 0x40] = a3\n 16561: u64 [a2 + 0x38] = a1\n 16564: u64 [a2 + 0x30] = a5\n 16567: a2 = a0\n 16569: a0 = s1 + 0x2340\n 16573: a1 = s1 + 0x2320\n 16577: u64 [a2 + 0x228] = a4\n 16581: ra = 658, jump @1355\n      : @649 [@dyn 329] (gas: 14)\n 16587: a2 = s1 + 0x100\n 16591: a1 = u64 [a2 + 0x68]\n 16594: a0 = u64 [a2 + 0x88]\n 16598: a0 = a0 | a1\n 16601: a1 = u64 [a2 + 0x60]\n 16604: a5 = a1\n 16606: a4 = u64 [a2 + 0x80]\n 16610: a1 = a1 | a4\n 16613: a1 = a1 | a0\n 16616: a1 = a1 >> 0x20\n 16619: a0 = a0 | a4\n 16622: a0 = a0 << 0x20\n 16625: a0 = a0 | a1\n 16628: jump @651 if a0 == 0\n      : @650 (gas: 1)\n 16631: jump @794\n      : @651 (gas: 13)\n 16634: a0 = s1 + 0x2118\n 16638: a1 = u64 [s1 + 0xc0]\n 16642: a2 = a0 + 0x100\n 16646: u64 [a2 + 0xe8] = a1\n 16650: a1 = u64 [s1 + 0xb0]\n 16654: u64 [a2 + 0xf0] = a1\n 16658: a1 = u64 [s1 + 0xb8]\n 16662: u64 [a2 + 0xf8] = a1\n 16666: a1 = s1 + 0x2300\n 16670: a4 = u64 [s1 + 0xf0]\n 16674: u64 [a0 + 0x200] = a4\n 16678: a0 = a5\n 16680: ra = 660, jump @24\n      : @652 [@dyn 330] (gas: 10)\n 16686: a0 = u64 [s1 + 0x188]\n 16690: a3 = u64 [s1 + 0x180]\n 16694: a0 = a0 | a3\n 16697: a4 = 0xffffffe0\n 16707: a5 = u64 [s1 + 0x160]\n 16711: a1 = a5 <u a4\n 16714: a2 = u64 [s1 + 0x168]\n 16718: a1 = 0 if a2 != 0\n 16720: a1 = 0 if a0 != 0\n 16722: jump @654 if a1 != 0\n      : @653 (gas: 1)\n 16725: jump @794\n      : @654 (gas: 8)\n 16728: a0 = i32 [s1 + 0x120]\n 16732: u64 [s1 + 0x88] = a0\n 16736: a1 = u64 [s1 + 0xc0]\n 16740: i32 a0 = a1 + 0\n 16742: u64 [s1 + 0x90] = a0\n 16746: i32 a0 = a5 + 0x20\n 16749: u64 [s1 + 0x158] = a4\n 16753: ra = 662, jump @39\n      : @655 [@dyn 331] (gas: 5)\n 16759: i32 a0 = a0 + 0\n 16761: a1 = u64 [s1 + 0x90]\n 16765: a2 = u64 [s1 + 0x88]\n 16769: ecalli 1 // 'call_data_copy'\n 16771: fallthrough\n      : @656 (gas: 28)\n 16772: a4 = u64 [s1 + 0x168]\n 16776: t0 = u64 [s1 + 0xc0]\n 16780: a0 = u64 [s1 + 0x160]\n 16784: t0 = t0 + a0\n 16787: a1 = t0 <u a0\n 16790: a2 = u64 [s1 + 0xb0]\n 16794: a2 = a2 + a4\n 16797: a2 = a2 + a1\n 16800: a3 = a2 ^ a4\n 16803: a4 = a2 <u a4\n 16806: a4 = a1 if a3 == 0\n 16809: a1 = u64 [s1 + 0xb8]\n 16813: a0 = u64 [s1 + 0x180]\n 16817: a1 = a1 + a0\n 16820: a3 = a1 <u a0\n 16823: a5 = u64 [s1 + 0x188]\n 16827: a0 = u64 [s1 + 0xf0]\n 16831: a5 = a5 + a0\n 16834: a3 = a3 + a5\n 16837: a4 = a4 + a1\n 16840: a1 = a4 <u a1\n 16843: a1 = a1 + a3\n 16846: a1 = a1 | a4\n 16849: a0 = u64 [s1 + 0x158]\n 16853: a3 = t0 <u a0\n 16856: a3 = 0 if a2 != 0\n 16858: a3 = 0 if a1 != 0\n 16860: jump @658 if a3 != 0\n      : @657 (gas: 1)\n 16863: jump @794\n      : @658 (gas: 8)\n 16866: i32 a0 = t0 + 0x20\n 16869: a2 = s1 + 0x2118\n 16873: u64 [a2 + 480] = 0\n 16877: u64 [a2 + 472] = 0\n 16881: u64 [a2 + 464] = 0\n 16885: a1 = s1 + 0x22e0\n 16889: u64 [a2 + 456] = 0\n 16893: ra = 664, jump @24\n      : @659 [@dyn 332] (gas: 10)\n 16899: a3 = 0x100000000\n 16909: a0 = 0xffffffc0\n 16919: a4 = s1 + 0x100\n 16923: a1 = u64 [a4 + 0x90]\n 16927: a0 = a1 <u a0\n 16930: a2 = u64 [a4 + 0x98]\n 16934: a0 = 0 if a2 != 0\n 16936: a2 = u64 [a4 + 0x78]\n 16939: a0 = 0 if a2 != 0\n 16941: jump @661 if a0 != 0\n      : @660 (gas: 1)\n 16944: jump @794\n      : @661 (gas: 16)\n 16947: i32 a0 = a1 + 0x40\n 16950: a1 = s1 + 0x2118\n 16954: u64 [s1 + 0x158] = a3\n 16958: a3 = a1\n 16960: a1 = u64 [s1 + 0x160]\n 16964: a4 = a3 + 0x100\n 16968: u64 [a4 + 0xa8] = a1\n 16972: a1 = u64 [s1 + 0x168]\n 16976: u64 [a4 + 0xb0] = a1\n 16980: a1 = u64 [s1 + 0x180]\n 16984: u64 [a4 + 0xb8] = a1\n 16988: a1 = s1 + 0x22c0\n 16992: a2 = u64 [s1 + 0x188]\n 16996: u64 [a4 + 0xc0] = a2\n 17000: u64 [s1 + 0x188] = a0\n 17004: ra = 666, jump @24\n      : @662 [@dyn 333] (gas: 10)\n 17010: a4 = s1 + 0x100\n 17014: a2 = u64 [a4 + 0x78]\n 17017: a3 = u64 [a4 + 0x98]\n 17021: a1 = u64 [a4 + 0x90]\n 17025: a0 = u64 [a4 + 0x58]\n 17028: a0 = a0 + 0xffffffffffffffa0\n 17031: a0 = a1 <u a0\n 17034: a0 = 0 if a3 != 0\n 17036: a0 = 0 if a2 != 0\n 17038: jump @664 if a0 != 0\n      : @663 (gas: 1)\n 17041: jump @794\n      : @664 (gas: 10)\n 17044: i32 a0 = a1 + 0x60\n 17047: a4 = s1 + 0x2118\n 17051: u64 [a4 + 416] = 0\n 17055: u64 [a4 + 408] = 0\n 17059: u64 [a4 + 400] = 0\n 17063: a1 = s1 + 0x22a0\n 17067: a2 = u64 [s1 + 0x170]\n 17071: u64 [a4 + 0x188] = a2\n 17075: u64 [s1 + 0x78] = a0\n 17078: ra = 668, jump @24\n      : @665 [@dyn 334] (gas: 9)\n 17084: a3 = s1 + 0x100\n 17088: a1 = u64 [a3 + 0x90]\n 17092: a0 = 0xffffff80\n 17102: a0 = a1 <u a0\n 17105: a2 = u64 [a3 + 0x98]\n 17109: a0 = 0 if a2 != 0\n 17111: a2 = u64 [a3 + 0x78]\n 17114: a0 = 0 if a2 != 0\n 17116: jump @667 if a0 != 0\n      : @666 (gas: 1)\n 17119: jump @794\n      : @667 (gas: 9)\n 17122: i32 a0 = a1 + 0x80\n 17126: a2 = s1 + 0x2118\n 17130: u64 [a2 + 384] = 0\n 17134: u64 [a2 + 376] = 0\n 17138: u64 [a2 + 368] = 0\n 17142: a1 = s1 + 0x2280\n 17146: u64 [a2 + 360] = 0\n 17150: u64 [s1 + 0x30] = a0\n 17153: ra = 670, jump @24\n      : @668 [@dyn 335] (gas: 6)\n 17159: a0 = u64 [s1 + 0xc8]\n 17163: ra = 0x2a0\n 17167: ecalli 4 // 'caller'\n 17169: a2 = u64 [s1 + 0xe8]\n 17173: t0 = 0x2a2\n 17177: jump @1512\n      : @669 [@dyn 336] (gas: 2)\n 17180: a2 = u64 [s1 + 0xe8]\n 17184: t0 = 674, jump @1512\n      : @670 [@dyn 337] (gas: 8)\n 17190: u64 [a2 + 352] = 0\n 17194: a4 = a2 + 0x100\n 17198: u64 [a4 + 0x58] = a1\n 17201: u64 [a4 + 0x50] = a0\n 17204: a1 = s1 + 0x2260\n 17208: u64 [a4 + 0x48] = a3\n 17211: a0 = 0\n 17213: ra = 676, jump @24\n      : @671 [@dyn 338] (gas: 3)\n 17219: t0 = 0x2a6\n 17223: a1 = s1 + 0x2118\n 17227: fallthrough\n      : @672 [@dyn 339] (gas: 8)\n 17228: u64 [a1 + 320] = 0\n 17232: u64 [a1 + 312] = 0\n 17236: u64 [a1 + 296] = 0x1\n 17241: a2 = a1\n 17243: a0 = 0x20\n 17246: a1 = s1 + 0x2240\n 17250: u64 [a2 + 304] = 0\n 17254: ra = 680, jump @24\n      : @673 [@dyn 340] (gas: 3)\n 17260: a1 = u64 [s1 + 0xa8]\n 17264: a0 = i32 [a1]\n 17266: jump @675 if a0 >u 63\n      : @674 (gas: 2)\n 17270: u32 [a1 + 0] = 0x40\n 17273: fallthrough\n      : @675 (gas: 14)\n 17274: a0 = 0xffffffff00000000\n 17284: u64 [s1 + 0x180] = a0\n 17288: a0 = sp + 0xffffffffffffffe0\n 17291: a0 = a0 & 0xffffffffffffffe0\n 17294: u64 [s1 + 0x198] = a0\n 17298: sp = a0\n 17300: i32 a2 = a0 + 0\n 17302: a1 = 0x40\n 17305: a0 = u64 [s1 + 0xa0]\n 17309: ra = 0x2aa\n 17313: ecalli 8 // 'hash_keccak_256'\n 17315: a3 = u64 [s1 + 0x198]\n 17319: t0 = 0x2ac\n 17323: jump @1517\n      : @676 [@dyn 341] (gas: 2)\n 17326: a3 = u64 [s1 + 0x198]\n 17330: t0 = 684, jump @1517\n      : @677 [@dyn 342] (gas: 5)\n 17336: u64 [s1 + 0x198] = a0\n 17340: sp = a0\n 17342: t0 = 0x2ae\n 17346: a2 = s1 + 0x2118\n 17350: fallthrough\n      : @678 [@dyn 343] (gas: 11)\n 17351: u64 [a2 + 288] = 0\n 17355: a0 = u64 [s1 + 0x108]\n 17359: a3 = a2 + 0x100\n 17363: u64 [a3 + 0x18] = a0\n 17366: a0 = u64 [s1 + 0xf8]\n 17370: u64 [a3 + 0x10] = a0\n 17373: a1 = s1 + 0x2220\n 17377: a0 = u64 [s1 + 0x100]\n 17381: u64 [a3 + 0x8] = a0\n 17384: a0 = 0\n 17386: ra = 688, jump @24\n      : @679 [@dyn 344] (gas: 14)\n 17392: a4 = s1 + 0x100\n 17396: a0 = u64 [a4 + 0x60]\n 17399: a1 = s1 + 0x2118\n 17403: u64 [a1 + 0x100] = a0\n 17407: a0 = u64 [a4 + 0x68]\n 17410: u64 [a1 + 0xf8] = a0\n 17414: a0 = u64 [a4 + 0x70]\n 17417: u64 [a1 + 0xf0] = a0\n 17421: a3 = a1\n 17423: a0 = 0x20\n 17426: a1 = s1 + 0x2200\n 17430: a2 = u64 [a4 + 0x78]\n 17433: u64 [a3 + 0xe8] = a2\n 17437: ra = 690, jump @24\n      : @680 [@dyn 345] (gas: 3)\n 17443: a1 = u64 [s1 + 0xa8]\n 17447: a0 = i32 [a1]\n 17449: jump @682 if a0 >u 63\n      : @681 (gas: 2)\n 17453: u32 [a1 + 0] = 0x40\n 17456: fallthrough\n      : @682 (gas: 29)\n 17457: a0 = sp + 0xffffffffffffffe0\n 17460: a0 = a0 & 0xffffffffffffffe0\n 17463: u64 [s1 + 0x178] = a0\n 17467: sp = a0\n 17469: i32 a2 = a0 + 0\n 17471: a1 = 0x40\n 17474: a0 = u64 [s1 + 0xa0]\n 17478: ecalli 8 // 'hash_keccak_256'\n 17480: a3 = u64 [s1 + 0x178]\n 17484: a0 = u64 [a3 + 0x18]\n 17487: a1 = u64 [a3 + 0x10]\n 17490: a2 = u64 [a3 + 0x8]\n 17493: a3 = u64 [a3]\n 17495: a5 = reverse a0\n 17497: u64 [s1 + 0x58] = a5\n 17500: a4 = reverse a1\n 17502: u64 [s1 + 0x60] = a4\n 17505: a1 = reverse a2\n 17507: u64 [s1 + 0x70] = a1\n 17510: a0 = reverse a3\n 17512: u64 [s1 + 0x68] = a0\n 17515: a2 = u64 [s1 + 0x198]\n 17519: u64 [a2 + 0x18] = a0\n 17522: u64 [a2 + 0x10] = a1\n 17525: u64 [a2 + 0x8] = a4\n 17528: u64 [a2] = a5\n 17530: a0 = s1 + 0x21e0\n 17534: a1 = u64 [s1 + 0x190]\n 17538: ra = 692, jump @22\n      : @683 [@dyn 346] (gas: 8)\n 17544: a0 = s1 + 0x2118\n 17548: a0 = u64 [a0 + 0xc8]\n 17552: a1 = u64 [s1 + 0xe0]\n 17556: a0 = a0 & a1\n 17559: u64 [s1 + 0x190] = a0\n 17563: a0 = s1 + 0x21c0\n 17567: a1 = u64 [s1 + 0x198]\n 17571: ra = 694, jump @26\n      : @684 [@dyn 347] (gas: 21)\n 17577: a3 = s1 + 0x2118\n 17581: a0 = u64 [a3 + 0xb0]\n 17585: a1 = u64 [a3 + 0xb8]\n 17589: a2 = u64 [a3 + 0xc0]\n 17593: a3 = u64 [a3 + 0xa8]\n 17597: a0 = a0 & 0xffffffffffffffff\n 17600: a1 = a1 & 0xffffffffffffffff\n 17603: a2 = a2 & 0xffffffffffffffff\n 17606: a4 = u64 [s1 + 0x180]\n 17610: a3 = a3 & a4\n 17613: a4 = u64 [s1 + 0x190]\n 17617: a3 = a3 | a4\n 17620: a4 = s1 + 0x2918\n 17624: a5 = a4 + 0x400\n 17628: u64 [a5 + 0xc0] = a2\n 17632: u64 [a5 + 0xb8] = a1\n 17636: u64 [a5 + 0xb0] = a0\n 17640: u64 [a5 + 0xa8] = a3\n 17644: a1 = s1 + 0x2dc0\n 17648: a0 = u64 [s1 + 0x198]\n 17652: ra = 696, jump @30\n      : @685 [@dyn 348] (gas: 3)\n 17658: a0 = s1 + 0x21a0\n 17662: a1 = u64 [s1 + 0x138]\n 17666: ra = 698, jump @22\n      : @686 [@dyn 349] (gas: 10)\n 17672: a0 = s1 + 0x2118\n 17676: a1 = u64 [a0 + 0x98]\n 17680: u64 [s1 + 0x190] = a1\n 17684: a1 = u64 [a0 + 0x90]\n 17688: u64 [s1 + 0x180] = a1\n 17692: a1 = u64 [a0 + 0x88]\n 17696: u64 [s1 + 0x178] = a1\n 17700: a0 = s1 + 0x2180\n 17704: a1 = u64 [s1 + 0x198]\n 17708: ra = 700, jump @26\n      : @687 [@dyn 350] (gas: 23)\n 17714: a1 = s1 + 0x2118\n 17718: a0 = u64 [a1 + 0x80]\n 17722: a1 = u32 [a1 + 0x68]\n 17725: a5 = u64 [s1 + 0x178]\n 17729: a2 = a5 >> 0x20\n 17732: a4 = u64 [s1 + 0x180]\n 17736: a3 = a4 << 0x20\n 17739: a2 = a2 | a3\n 17742: a3 = a4 >> 0x20\n 17745: a4 = u64 [s1 + 0x190]\n 17749: a4 = a4 << 0x20\n 17752: a3 = a3 | a4\n 17755: a4 = a5 << 0x20\n 17758: a1 = a1 | a4\n 17761: a4 = s1 + 0x2918\n 17765: a5 = a4 + 0x400\n 17769: u64 [a5 + 0xd8] = a3\n 17773: u64 [a5 + 0xd0] = a2\n 17777: u64 [a5 + 0xe0] = a0\n 17781: u64 [a5 + 0xc8] = a1\n 17785: a1 = s1 + 0x2de0\n 17789: a0 = u64 [s1 + 0x198]\n 17793: ra = 702, jump @30\n      : @688 [@dyn 351] (gas: 27)\n 17799: a0 = sp + 0xffffffffffffffe0\n 17802: a1 = a0 & 0xffffffffffffffe0\n 17805: sp = a1\n 17807: a2 = u64 [s1 + 0x58]\n 17810: a2 = a2 + 0x1\n 17813: a0 = a2 <u 0x1\n 17816: a3 = u64 [s1 + 0x60]\n 17819: a3 = a3 + a0\n 17822: a0 = a2 | a3\n 17825: a0 = a0 <u 0x1\n 17828: a5 = u64 [s1 + 0x70]\n 17831: a4 = a5 + a0\n 17834: a0 = a4 <u a5\n 17837: a5 = u64 [s1 + 0x68]\n 17840: a0 = a0 + a5\n 17843: u64 [s1 + 0x148] = a0\n 17847: u64 [a1 + 0x18] = a0\n 17850: u64 [s1 + 0x138] = a4\n 17854: u64 [a1 + 0x10] = a4\n 17857: u64 [s1 + 0x140] = a3\n 17861: u64 [a1 + 0x8] = a3\n 17864: u64 [s1 + 0x48] = a1\n 17867: u64 [s1 + 0x150] = a2\n 17871: u64 [a1] = a2\n 17873: a0 = s1 + 0x2160\n 17877: a1 = u64 [s1 + 0x188]\n 17881: ra = 704, jump @22\n      : @689 [@dyn 352] (gas: 17)\n 17887: a0 = s1 + 0x2118\n 17891: a3 = u64 [a0 + 0x60]\n 17894: a4 = u64 [a0 + 0x58]\n 17897: a2 = u64 [a0 + 0x50]\n 17900: a1 = u64 [a0 + 0x48]\n 17903: a5 = s1 + 0x100\n 17907: u64 [a5 + 0x30] = a2\n 17910: u64 [a5 + 0x28] = a3\n 17913: a0 = a2 | a3\n 17916: a2 = a1 | a4\n 17919: a2 = a2 | a0\n 17922: a2 = a2 >> 0x20\n 17925: u64 [a5 + 0x20] = a4\n 17928: a0 = a0 | a4\n 17931: a0 = a0 << 0x20\n 17934: a0 = a0 | a2\n 17937: jump @691 if a0 == 0\n      : @690 (gas: 1)\n 17940: jump @794\n      : @691 (gas: 3)\n 17943: a0 = s1 + 0x2140\n 17947: u64 [s1 + 0x118] = a1\n 17951: ra = 706, jump @22\n      : @692 [@dyn 353] (gas: 2)\n 17957: a2 = s1 + 0x2118\n 17961: fallthrough\n      : @693 (gas: 16)\n 17962: a4 = u64 [a2 + 0x40]\n 17965: a3 = u64 [a2 + 0x38]\n 17968: a1 = u64 [a2 + 0x30]\n 17971: a0 = a4 >u 0\n 17973: a5 = a3 >u 0\n 17975: a5 = a0 if a4 != 0\n 17978: u64 [s1 + 0x50] = a1\n 17981: a0 = a1 >u 0\n 17983: u64 [s1 + 0x40] = a3\n 17986: u64 [s1 + 0x38] = a4\n 17989: a3 = a3 | a4\n 17992: u64 [s1 + 0x18] = a0\n 17995: u64 [s1 + 0x20] = a5\n 17998: u64 [s1 + 0x110] = a3\n 18002: a0 = a5 if a3 != 0\n 18005: jump @695 if a0 == 0\n      : @694 (gas: 1)\n 18008: jump @901\n      : @695 (gas: 5)\n 18011: a0 = u64 [a2 + 0x28]\n 18014: u64 [s1 + 0x80] = a0\n 18018: a0 = s1 + 0x2120\n 18022: a1 = u64 [s1 + 0x48]\n 18025: ra = 708, jump @26\n      : @696 [@dyn 354] (gas: 14)\n 18031: a3 = s1 + 0x2118\n 18035: a2 = u64 [a3 + 0x8]\n 18038: a0 = u64 [a3 + 0x10]\n 18041: a1 = u64 [a3 + 0x18]\n 18044: a3 = u64 [a3 + 0x20]\n 18047: a4 = s1 + 0x1918\n 18051: a5 = a4 + 0x700\n 18055: u64 [a5 + 0xe0] = a3\n 18059: u64 [a5 + 0xd8] = a1\n 18063: u64 [a5 + 0xd0] = a0\n 18067: a0 = s1 + 0x2100\n 18071: a1 = s1 + 0x20e0\n 18075: u64 [a5 + 0xc8] = a2\n 18079: ra = 710, jump @1346\n      : @697 [@dyn 355] (gas: 23)\n 18085: a0 = s1 + 0x2118\n 18089: a3 = u64 [a0]\n 18091: a1 = a0 + 0xffffffffffffff00\n 18095: a4 = u64 [a1 + 0xf8]\n 18099: a5 = u64 [a1 + 0xf0]\n 18103: a2 = u64 [a1 + 0xe8]\n 18107: a0 = a3 >u 0\n 18109: a1 = a4 >u 0\n 18111: a1 = a0 if a3 != 0\n 18114: a0 = a5 >u 0\n 18116: u64 [s1 + 0x178] = a2\n 18120: a2 = a2 <u 0x20\n 18123: a2 = a2 ^ 0x1\n 18126: u64 [s1 + 0x180] = a5\n 18130: a2 = a0 if a5 != 0\n 18133: u64 [s1 + 0x188] = a3\n 18137: u64 [s1 + 0x190] = a4\n 18141: a0 = a4 | a3\n 18144: a2 = a1 if a0 != 0\n 18147: a0 = u64 [s1 + 0x80]\n 18151: a0 = a0 <u 0x20\n 18154: u64 [s1 + 0x28] = a0\n 18157: jump @732 if a2 == 0\n      : @698 (gas: 14)\n 18161: a0 = s1 + 0x1918\n 18165: a3 = s1 + 0x100\n 18169: a1 = u64 [a3 + 0x50]\n 18172: a4 = a0 + 0x700\n 18176: u64 [a4 + 0xa8] = a1\n 18180: a1 = u64 [a3 + 0x40]\n 18183: u64 [a4 + 0xb0] = a1\n 18187: a1 = u64 [a3 + 0x38]\n 18190: u64 [a4 + 0xb8] = a1\n 18194: a1 = s1 + 0x20c0\n 18198: a2 = u64 [a3 + 0x48]\n 18201: u64 [a4 + 0xc0] = a2\n 18205: a0 = 0\n 18207: ra = 712, jump @24\n      : @699 [@dyn 356] (gas: 3)\n 18213: a0 = u64 [s1 + 0xa8]\n 18217: a0 = i32 [a0]\n 18219: jump @701 if a0 >u 31\n      : @700 (gas: 3)\n 18223: a1 = u64 [s1 + 0xa8]\n 18227: u32 [a1 + 0] = 0x20\n 18230: fallthrough\n      : @701 (gas: 117)\n 18231: a0 = sp + 0xffffffffffffffe0\n 18234: a0 = a0 & 0xffffffffffffffe0\n 18237: u64 [s1 + 0x168] = a0\n 18241: sp = a0\n 18243: i32 a2 = a0 + 0\n 18245: a1 = 0x20\n 18248: a0 = u64 [s1 + 0xa0]\n 18252: ecalli 8 // 'hash_keccak_256'\n 18254: a0 = u64 [s1 + 0x80]\n 18258: a1 = a0 + 0x1f\n 18261: a0 = a1 <u a0\n 18264: a5 = u64 [s1 + 0x50]\n 18267: a2 = a5 + a0\n 18270: a3 = a2 <u a5\n 18273: a3 = a0 if a0 == 0\n 18276: a4 = u64 [s1 + 0x40]\n 18279: a3 = a3 + a4\n 18282: u64 [s1 + 0x160] = a3\n 18286: a3 = a3 << 0x3b\n 18289: a4 = a2 >> 0x5\n 18292: a4 = a4 | a3\n 18295: a0 = u64 [s1 + 0x168]\n 18299: t1 = u64 [a0 + 0x18]\n 18302: a2 = a2 << 0x3b\n 18305: a3 = u64 [a0 + 0x10]\n 18308: a1 = a1 >> 0x5\n 18311: a0 = a1 | a2\n 18314: t2 = reverse t1\n 18316: a2 = reverse a3\n 18318: a1 = u64 [s1 + 0x28]\n 18321: a1 = 0 if a5 != 0\n 18323: a3 = u64 [s1 + 0x110]\n 18327: a1 = 0 if a3 != 0\n 18329: a4 = 0 if a1 != 0\n 18331: a0 = 0 if a1 != 0\n 18333: t0 = t2 + a0\n 18336: a0 = t0 <u t2\n 18339: a5 = a2 + a0\n 18342: a4 = a4 + a5\n 18345: u64 [s1 + 0x198] = a4\n 18349: a5 = a4 ^ a2\n 18352: a3 = a4 <u a2\n 18355: a3 = a0 if a5 == 0\n 18358: u64 [s1 + 0x158] = a3\n 18362: a0 = u64 [s1 + 0x178]\n 18366: ra = a0 + 0x1f\n 18369: a4 = ra <u a0\n 18372: a3 = u64 [s1 + 0x180]\n 18376: a0 = a3 + a4\n 18379: a5 = a0 <u a3\n 18382: a5 = a4 if a4 == 0\n 18385: t1 = u64 [s1 + 0x190]\n 18389: t1 = t1 + a5\n 18392: a4 = t1 << 0x3b\n 18395: a3 = a0 >> 0x5\n 18398: a3 = a3 | a4\n 18401: a0 = a0 << 0x3b\n 18404: a4 = ra >> 0x5\n 18407: a0 = a0 | a4\n 18410: a0 = a0 + t2\n 18413: u64 [s1 + 0x178] = a0\n 18417: a0 = a0 <u t2\n 18420: t2 = t0\n 18422: a4 = a2 + a0\n 18425: a4 = a4 + a3\n 18428: a3 = a4 ^ a2\n 18431: u64 [s1 + 0x170] = a4\n 18435: a2 = a4 <u a2\n 18438: a2 = a0 if a3 == 0\n 18441: a4 = u64 [s1 + 0x160]\n 18445: a0 = u64 [s1 + 0x40]\n 18448: a0 = a4 <u a0\n 18451: a3 = u64 [s1 + 0x38]\n 18454: a0 = a0 + a3\n 18457: a3 = a4 >> 0x5\n 18460: a4 = a0 << 0x3b\n 18463: a3 = a3 | a4\n 18466: a4 = u64 [s1 + 0x168]\n 18470: t0 = u64 [a4]\n 18472: a4 = u64 [a4 + 0x8]\n 18475: a0 = a0 >> 0x5\n 18478: a3 = 0 if a1 != 0\n 18480: a0 = 0 if a1 != 0\n 18482: a1 = reverse a4\n 18484: a4 = reverse t0\n 18486: a0 = a0 + a4\n 18489: a3 = a3 + a1\n 18492: a5 = a3 <u a1\n 18495: a0 = a0 + a5\n 18498: ra = u64 [s1 + 0x158]\n 18502: ra = ra + a3\n 18505: a3 = ra <u a3\n 18508: t0 = a0 + a3\n 18511: a0 = u64 [s1 + 0x190]\n 18515: a0 = t1 <u a0\n 18518: a3 = u64 [s1 + 0x188]\n 18522: a0 = a0 + a3\n 18525: a3 = t1 >> 0x5\n 18528: a5 = a0 << 0x3b\n 18531: a3 = a3 | a5\n 18534: a0 = a0 >> 0x5\n 18537: a0 = a0 + a4\n 18540: a5 = s1 + 0x100\n 18544: a4 = u64 [a5 + 0x98]\n 18548: a3 = a3 + a1\n 18551: a1 = a3 <u a1\n 18554: a0 = a0 + a1\n 18557: a2 = a2 + a3\n 18560: u64 [a5 + 0x68] = a2\n 18563: a1 = a2 <u a3\n 18566: a0 = a0 + a1\n 18569: u64 [a5 + 0x60] = a0\n 18572: a0 = sp + 0xffffffffffffffe0\n 18575: t1 = a0 & 0xffffffffffffffe0\n 18578: sp = t1\n 18580: u64 [s1 + 0x158] = t1\n 18584: fallthrough\n      : @702 (gas: 24)\n 18585: a0 = u64 [s1 + 0x178]\n 18589: a0 = t2 <u a0\n 18592: a2 = u64 [s1 + 0x170]\n 18596: a1 = a4 ^ a2\n 18599: a2 = a4 <u a2\n 18602: a2 = a0 if a1 == 0\n 18605: a5 = u64 [s1 + 0x168]\n 18609: a0 = ra <u a5\n 18612: a3 = u64 [s1 + 0x160]\n 18616: a1 = t0 ^ a3\n 18619: a3 = t0 <u a3\n 18622: a3 = a0 if a1 == 0\n 18625: a0 = ra ^ a5\n 18628: a0 = a0 | a1\n 18631: a3 = a2 if a0 == 0\n 18634: u64 [s1 + 0x190] = t2\n 18638: u64 [t1] = t2\n 18640: u64 [s1 + 0x198] = a4\n 18644: u64 [t1 + 0x8] = a4\n 18647: u64 [s1 + 0x180] = ra\n 18651: u64 [t1 + 0x10] = ra\n 18654: u64 [s1 + 0x188] = t0\n 18658: u64 [t1 + 0x18] = t0\n 18661: jump @732 if a3 == 0\n      : @703 (gas: 8)\n 18665: a0 = s1 + 0x2918\n 18669: u64 [a0 + 1280] = 0\n 18673: u64 [a0 + 1272] = 0\n 18677: u64 [a0 + 1264] = 0\n 18681: u64 [a0 + 1256] = 0\n 18685: a1 = s1 + 0x2e00\n 18689: a0 = t1\n 18691: ra = 714, jump @30\n      : @704 [@dyn 357] (gas: 15)\n 18697: t1 = u64 [s1 + 0x158]\n 18701: t2 = u64 [s1 + 0x190]\n 18705: t2 = t2 + 0x1\n 18708: a0 = t2 <u 0x1\n 18711: a4 = u64 [s1 + 0x198]\n 18715: a4 = a4 + a0\n 18718: a0 = t2 | a4\n 18721: a0 = a0 <u 0x1\n 18724: a1 = u64 [s1 + 0x180]\n 18728: a0 = a0 + a1\n 18731: a1 = a0 <u a1\n 18734: t0 = u64 [s1 + 0x188]\n 18738: t0 = t0 + a1\n 18741: ra = a0\n 18743: jump @702\n      : @705 (gas: 2)\n 18746: a5 = s1 + 0x1118\n 18750: fallthrough\n      : @706 (gas: 26)\n 18751: a1 = u64 [s1 + 0x198]\n 18755: a0 = a1 + 0x20\n 18758: a1 = a0 <u a1\n 18761: a2 = t2 + a1\n 18764: a3 = a2 <u t2\n 18767: a3 = a1 if a1 == 0\n 18770: a3 = a3 + t1\n 18773: a1 = a3 <u t1\n 18776: a4 = u64 [s1 + 0x190]\n 18780: a4 = a4 + a1\n 18783: a1 = u64 [s1 + 0x108]\n 18787: u64 [a5 + 0x328] = a1\n 18791: u64 [a5 + 0x308] = a0\n 18795: a0 = u64 [s1 + 0x100]\n 18799: u64 [a5 + 0x330] = a0\n 18803: a0 = u64 [s1 + 0xf8]\n 18807: u64 [a5 + 0x338] = a0\n 18811: u64 [a5 + 0x310] = a2\n 18815: a0 = u64 [s1 + 0x110]\n 18819: a2 = a5 + 0x300\n 18823: u64 [a2 + 0x40] = a0\n 18826: u64 [a2 + 0x18] = a3\n 18829: a0 = s1 + 0x1440\n 18833: a1 = s1 + 0x1420\n 18837: u64 [a2 + 0x20] = a4\n 18840: ra = 716, jump @1355\n      : @707 [@dyn 358] (gas: 21)\n 18846: a1 = u64 [s1 + 0xd8]\n 18850: a0 = a1 + 0x2\n 18853: a1 = a0 <u a1\n 18856: a3 = u64 [s1 + 0xe0]\n 18860: a2 = a3 + a1\n 18863: a3 = a2 <u a3\n 18866: a3 = a1 if a1 == 0\n 18869: a1 = u64 [s1 + 0xf0]\n 18873: a3 = a3 + a1\n 18876: a1 = a3 <u a1\n 18879: a4 = u64 [s1 + 0xe8]\n 18883: a1 = a1 + a4\n 18886: a4 = s1 + 0x2918\n 18890: a5 = a4 + 0x300\n 18894: u64 [a5 + 0x20] = a1\n 18897: u64 [a5 + 0x18] = a3\n 18900: u64 [a5 + 0x10] = a2\n 18903: u64 [a5 + 0x8] = a0\n 18906: a0 = s1 + 0x1400\n 18910: a1 = s1 + 0x2c20\n 18914: ra = 718, jump @26\n      : @708 [@dyn 359] (gas: 3)\n 18920: t0 = 0x2d0\n 18924: a1 = s1 + 0x1118\n 18928: fallthrough\n      : @709 [@dyn 360] (gas: 7)\n 18929: a0 = u64 [a1 + 0x2f0]\n 18933: u64 [s1 + 0x178] = a0\n 18937: a0 = u64 [a1 + 0x2e8]\n 18941: u64 [s1 + 0x170] = a0\n 18945: a0 = s1 + 0x13e0\n 18949: a1 = 0x40\n 18952: ra = 722, jump @22\n      : @710 [@dyn 361] (gas: 14)\n 18958: a4 = s1 + 0x1118\n 18962: t0 = u64 [a4 + 0x2e0]\n 18966: a1 = a4 + 0x200\n 18970: a3 = u64 [a1 + 0xd8]\n 18974: a5 = u64 [a1 + 0xd0]\n 18978: a0 = u64 [a1 + 0xc8]\n 18982: a2 = a5 | t0\n 18985: a1 = a0 | a3\n 18988: a1 = a1 | a2\n 18991: a1 = a1 >> 0x20\n 18994: a2 = a2 | a3\n 18997: a2 = a2 << 0x20\n 19000: a1 = a1 | a2\n 19003: jump @794 if a1 != 0\n      : @711 (gas: 13)\n 19007: a1 = u64 [s1 + 0xd0]\n 19011: a1 = a1 << 0x20\n 19014: u64 [s1 + 0x188] = a3\n 19018: a3 = a1 >> 0x20\n 19021: u64 [a4 + 704] = 0\n 19025: u64 [a4 + 696] = 0\n 19029: u64 [a4 + 688] = 0\n 19033: a1 = s1 + 0x13c0\n 19037: u64 [a4 + 0x2a8] = a3\n 19041: u64 [s1 + 0x198] = a0\n 19045: u64 [s1 + 0x180] = t0\n 19049: u64 [s1 + 0x190] = a5\n 19053: ra = 724, jump @24\n      : @712 [@dyn 362] (gas: 12)\n 19059: a5 = s1 + 0x100\n 19063: a1 = u64 [a5 + 0x98]\n 19067: a0 = u64 [a5 + 0x88]\n 19071: a2 = u64 [a5 + 0x80]\n 19075: a3 = a0 | a2\n 19078: a4 = 0x100000000\n 19088: a0 = 0xffffffe0\n 19098: a0 = a1 <u a0\n 19101: a2 = u64 [a5 + 0x90]\n 19105: a0 = 0 if a2 != 0\n 19107: a0 = 0 if a3 != 0\n 19109: jump @794 if a0 == 0\n      : @713 (gas: 24)\n 19113: t0 = 0xffffffff\n 19123: a2 = u64 [s1 + 0xd0]\n 19127: a2 = a2 >> 0x20\n 19130: u64 [s1 + 0x160] = a4\n 19134: a4 = u64 [s1 + 0xc0]\n 19138: u64 [s1 + 0x168] = a3\n 19142: a3 = a4 << 0x20\n 19145: a2 = a2 | a3\n 19148: a3 = a4 >> 0x20\n 19151: a5 = u64 [s1 + 0xc8]\n 19155: a4 = a5 << 0x20\n 19158: a3 = a3 | a4\n 19161: a4 = a5 >> 0x20\n 19164: a3 = a3 & 0xffffffffffffffff\n 19167: a2 = a2 & 0xffffffffffffffff\n 19170: a4 = a4 & t0\n 19173: i32 a0 = a1 + 0x20\n 19176: a5 = s1 + 0x1118\n 19180: u64 [a5 + 672] = 0\n 19184: u64 [a5 + 0x298] = a4\n 19188: u64 [a5 + 0x288] = a2\n 19192: a1 = s1 + 0x13a0\n 19196: u64 [a5 + 0x290] = a3\n 19200: ra = 726, jump @24\n      : @714 [@dyn 363] (gas: 10)\n 19206: a3 = s1 + 0x100\n 19210: a1 = u64 [a3 + 0x98]\n 19214: a0 = u64 [a3 + 0x60]\n 19217: a0 = a0 + 0xffffffffffffffc0\n 19220: a0 = a1 <u a0\n 19223: a2 = u64 [a3 + 0x90]\n 19227: a0 = 0 if a2 != 0\n 19229: a2 = u64 [a3 + 0x68]\n 19232: a0 = 0 if a2 != 0\n 19234: jump @794 if a0 == 0\n      : @715 (gas: 8)\n 19238: i32 a0 = a1 + 0x40\n 19241: a2 = s1 + 0x1118\n 19245: u64 [a2 + 640] = 0\n 19249: u64 [a2 + 632] = 0\n 19253: u64 [a2 + 616] = 0xa0\n 19259: a1 = s1 + 0x1380\n 19263: u64 [a2 + 624] = 0\n 19267: ra = 728, jump @24\n      : @716 [@dyn 364] (gas: 3)\n 19273: a0 = s1 + 0x1360\n 19277: a1 = u64 [s1 + 0x108]\n 19281: ra = 730, jump @22\n      : @717 [@dyn 365] (gas: 10)\n 19287: a5 = s1 + 0x100\n 19291: a3 = u64 [a5 + 0x68]\n 19294: a1 = u64 [a5 + 0x98]\n 19298: a4 = 0x100000000\n 19308: a0 = 0xffffff60\n 19318: a0 = a1 <u a0\n 19321: a2 = u64 [a5 + 0x90]\n 19325: a0 = 0 if a2 != 0\n 19327: a0 = 0 if a3 != 0\n 19329: jump @794 if a0 == 0\n      : @718 (gas: 18)\n 19333: a0 = s1 + 0x1118\n 19337: u64 [s1 + 0x160] = a4\n 19341: a4 = a0\n 19343: t0 = u64 [a0 + 0x260]\n 19347: t1 = u64 [a0 + 0x258]\n 19351: a5 = u64 [a0 + 0x250]\n 19355: a2 = u64 [a0 + 0x248]\n 19359: i32 a0 = a1 + 0xa0\n 19363: u64 [s1 + 0x158] = a2\n 19367: u64 [a4 + 0x228] = a2\n 19371: u64 [s1 + 0x140] = a5\n 19375: u64 [a4 + 0x230] = a5\n 19379: u64 [s1 + 0x150] = t1\n 19383: u64 [a4 + 0x238] = t1\n 19387: a1 = s1 + 0x1340\n 19391: u64 [s1 + 0x148] = t0\n 19395: u64 [a4 + 0x240] = t0\n 19399: ra = 732, jump @24\n      : @719 [@dyn 366] (gas: 10)\n 19405: a4 = s1 + 0x100\n 19409: a3 = u64 [a4 + 0x90]\n 19413: a2 = u64 [a4 + 0x98]\n 19417: a0 = u64 [a4 + 0x60]\n 19420: a0 = a0 + 0xffffffffffffff40\n 19424: a0 = a2 <u a0\n 19427: a0 = 0 if a3 != 0\n 19429: a1 = u64 [a4 + 0x68]\n 19432: a0 = 0 if a1 != 0\n 19434: jump @794 if a0 == 0\n      : @720 (gas: 8)\n 19438: a0 = 0xffffffe0\n 19448: a1 = u64 [s1 + 0x108]\n 19452: a0 = a1 <u a0\n 19455: a1 = u64 [s1 + 0x100]\n 19459: a0 = 0 if a1 != 0\n 19461: a1 = u64 [s1 + 0xb8]\n 19465: a0 = 0 if a1 != 0\n 19467: jump @794 if a0 == 0\n      : @721 (gas: 12)\n 19471: a1 = u64 [s1 + 0x158]\n 19475: a5 = u64 [s1 + 0x150]\n 19479: a0 = a1 | a5\n 19482: t0 = u64 [s1 + 0x148]\n 19486: t1 = u64 [s1 + 0x140]\n 19490: a4 = t1 | t0\n 19493: a0 = a0 | a4\n 19496: a0 = a0 >> 0x20\n 19499: a4 = a4 | a5\n 19502: a4 = a4 << 0x20\n 19505: a0 = a0 | a4\n 19508: jump @794 if a0 != 0\n      : @722 (gas: 2)\n 19512: i32 a0 = a2 + 0xc0\n 19516: ra = 734, jump @39\n      : @723 [@dyn 367] (gas: 4)\n 19522: u64 [s1 + 0x168] = a0\n 19526: a0 = u64 [s1 + 0x138]\n 19530: a1 = u64 [s1 + 0x158]\n 19534: ra = 736, jump @39\n      : @724 [@dyn 368] (gas: 4)\n 19540: a1 = a0\n 19542: a0 = u64 [s1 + 0x168]\n 19546: a2 = u64 [s1 + 0x158]\n 19550: ra = 738, jump @0\n      : @725 [@dyn 369] (gas: 29)\n 19556: a1 = u64 [s1 + 0x158]\n 19560: a0 = u64 [s1 + 0x198]\n 19564: a0 = a0 + a1\n 19567: a2 = a0 <u a1\n 19570: a4 = u64 [s1 + 0x140]\n 19574: a1 = u64 [s1 + 0x190]\n 19578: a1 = a1 + a4\n 19581: a1 = a1 + a2\n 19584: a3 = a1 ^ a4\n 19587: a4 = a1 <u a4\n 19590: a4 = a2 if a3 == 0\n 19593: a2 = u64 [s1 + 0x180]\n 19597: a3 = u64 [s1 + 0x148]\n 19601: a2 = a2 + a3\n 19604: a3 = u64 [s1 + 0x188]\n 19608: a5 = u64 [s1 + 0x150]\n 19612: a3 = a3 + a5\n 19615: a4 = a4 + a3\n 19618: a5 = a3 <u a5\n 19621: a3 = a4 <u a3\n 19624: a2 = a2 + a5\n 19627: a2 = a2 + a3\n 19630: a2 = a2 | a4\n 19633: a3 = 0xffffff40\n 19643: u64 [s1 + 0x190] = a3\n 19647: a3 = a0 <u a3\n 19650: a3 = 0 if a1 != 0\n 19652: a3 = 0 if a2 != 0\n 19654: jump @794 if a3 == 0\n      : @726 (gas: 8)\n 19658: i32 a0 = a0 + 0xc0\n 19662: a2 = s1 + 0x1118\n 19666: u64 [a2 + 544] = 0\n 19670: u64 [a2 + 536] = 0\n 19674: u64 [a2 + 528] = 0\n 19678: a1 = s1 + 0x1320\n 19682: u64 [a2 + 520] = 0\n 19686: ra = 740, jump @24\n      : @727 [@dyn 370] (gas: 10)\n 19692: a0 = u64 [s1 + 0x198]\n 19696: i32 a0 = a0 + 0x60\n 19699: a2 = s1 + 0x1118\n 19703: u64 [a2 + 512] = 0\n 19707: u64 [a2 + 504] = 0\n 19711: a1 = u64 [s1 + 0x170]\n 19715: u64 [a2 + 0x1e8] = a1\n 19719: a1 = s1 + 0x1300\n 19723: u64 [a2 + 496] = 0\n 19727: ra = 742, jump @24\n      : @728 [@dyn 371] (gas: 11)\n 19733: a0 = u8 [s1 + 0x178]\n 19737: a1 = a0 >u 0\n 19739: a0 = u64 [s1 + 0x198]\n 19743: i32 a0 = a0 + 0x80\n 19747: a2 = s1 + 0x1118\n 19751: u64 [a2 + 480] = 0\n 19755: u64 [a2 + 472] = 0\n 19759: u64 [a2 + 0x1c8] = a1\n 19763: a1 = s1 + 0x12e0\n 19767: u64 [a2 + 464] = 0\n 19771: ra = 744, jump @24\n      : @729 [@dyn 372] (gas: 6)\n 19777: a0 = u64 [s1 + 0x158]\n 19781: a0 = a0 + 0x1f\n 19784: a1 = 0x1ffffffe0\n 19794: a0 = a0 & a1\n 19797: a1 = u64 [s1 + 0x190]\n 19801: jump @794 if a0 >=u a1\n      : @730 (gas: 4)\n 19805: i32 a1 = a0 + 0xc0\n 19809: u64 [s1 + 0x190] = a1\n 19813: a0 = u64 [s1 + 0x198]\n 19817: ra = 746, jump @39\n      : @731 [@dyn 373] (gas: 5)\n 19823: i32 a1 = a0 + 0\n 19825: a0 = 0\n 19827: a2 = u64 [s1 + 0x190]\n 19831: ecalli 13 // 'seal_return'\n 19833: fallthrough\n      : @732 (gas: 9)\n 19834: a0 = u64 [s1 + 0x28]\n 19837: a0 = a0 ^ 0x1\n 19840: a1 = u64 [s1 + 0x50]\n 19843: a2 = u64 [s1 + 0x18]\n 19846: a0 = a2 if a1 != 0\n 19849: a1 = u64 [s1 + 0x20]\n 19852: a2 = u64 [s1 + 0x110]\n 19856: a0 = a1 if a2 != 0\n 19859: jump @741 if a0 == 0\n      : @733 (gas: 16)\n 19863: a0 = u64 [s1 + 0x80]\n 19867: a0 = a0 & 0xffffffffffffffe0\n 19870: u64 [s1 + 0x110] = a0\n 19874: a0 = s1 + 0x1918\n 19878: a1 = u64 [s1 + 0x150]\n 19882: a3 = a0 + 0x700\n 19886: u64 [a3 + 0x68] = a1\n 19889: a1 = u64 [s1 + 0x140]\n 19893: u64 [a3 + 0x70] = a1\n 19896: a1 = u64 [s1 + 0x138]\n 19900: u64 [a3 + 0x78] = a1\n 19903: a1 = s1 + 0x2080\n 19907: a2 = u64 [s1 + 0x148]\n 19911: u64 [a3 + 0x80] = a2\n 19915: a0 = 0\n 19917: ra = 748, jump @24\n      : @734 [@dyn 374] (gas: 7)\n 19923: a0 = sp + 0xffffffffffffffe0\n 19926: a0 = a0 & 0xffffffffffffffe0\n 19929: u64 [s1 + 0x170] = a0\n 19933: sp = a0\n 19935: a1 = 0x20\n 19938: a0 = 0\n 19940: ra = 750, jump @39\n      : @735 [@dyn 375] (gas: 34)\n 19946: a1 = sp + 0xffffffffffffffe0\n 19949: a1 = a1 & 0xffffffffffffffe0\n 19952: u64 [s1 + 0x168] = a1\n 19956: sp = a1\n 19958: i32 a0 = a0 + 0\n 19960: i32 a2 = a1 + 0\n 19962: a1 = 0x20\n 19965: ecalli 8 // 'hash_keccak_256'\n 19967: u64 [s1 + 408] = 0x20\n 19972: a5 = 0\n 19974: u64 [s1 + 400] = 0\n 19978: u64 [s1 + 392] = 0\n 19982: u64 [s1 + 376] = 0\n 19986: u64 [s1 + 384] = 0\n 19990: a3 = u64 [s1 + 0x168]\n 19994: a0 = u64 [a3 + 0x18]\n 19997: a1 = u64 [a3 + 0x10]\n 20000: a2 = u64 [a3 + 0x8]\n 20003: a3 = u64 [a3]\n 20005: t1 = reverse a0\n 20007: t2 = reverse a1\n 20009: ra = reverse a2\n 20011: a2 = 0\n 20013: a4 = u64 [s1 + 0x178]\n 20017: a0 = reverse a3\n 20019: a3 = 0\n 20021: t0 = a0\n 20023: a1 = u64 [s1 + 0x170]\n 20027: u64 [a1 + 0x18] = a0\n 20030: u64 [s1 + 0x150] = ra\n 20034: u64 [a1 + 0x10] = ra\n 20037: u64 [a1 + 0x8] = t2\n 20040: u64 [a1] = t1\n 20042: fallthrough\n      : @736 (gas: 24)\n 20043: u64 [s1 + 0x168] = t0\n 20047: a0 = u64 [s1 + 0x110]\n 20051: u64 [s1 + 0x178] = a4\n 20055: a0 = a4 <u a0\n 20058: a4 = a0 ^ 0x1\n 20061: u64 [s1 + 0x158] = a3\n 20065: a4 = 0x1 if a3 != 0\n 20068: u64 [s1 + 0x160] = a2\n 20072: a0 = u64 [s1 + 0x180]\n 20076: a0 = a0 | a2\n 20079: a4 = 0x1 if a0 != 0\n 20082: a1 = u64 [s1 + 0x118]\n 20086: a0 = u64 [s1 + 0x198]\n 20090: a1 = a1 + a0\n 20093: a3 = u64 [s1 + 0x130]\n 20097: a3 = a3 + a5\n 20100: a2 = u64 [s1 + 0x120]\n 20104: a0 = u64 [s1 + 0x190]\n 20108: a2 = a2 + a0\n 20111: a0 = u64 [s1 + 0x128]\n 20115: ra = a5\n 20117: a5 = u64 [s1 + 0x188]\n 20121: a0 = a0 + a5\n 20124: jump @743 if a4 != 0\n      : @737 (gas: 23)\n 20128: a4 = u64 [s1 + 0x198]\n 20132: a4 = a1 <u a4\n 20135: a3 = a3 + a4\n 20138: t0 = a3 ^ ra\n 20141: u64 [s1 + 0x138] = ra\n 20145: a5 = a3 <u ra\n 20148: a5 = a4 if t0 == 0\n 20151: a5 = a5 + a2\n 20154: t0 = a5 <u a2\n 20157: a4 = u64 [s1 + 0x190]\n 20161: a2 = a2 <u a4\n 20164: a0 = a0 + a2\n 20167: a0 = a0 + t0\n 20170: a2 = a1 | a5\n 20173: a0 = a0 | a3\n 20176: a2 = a2 | a0\n 20179: a2 = a2 >> 0x20\n 20182: a0 = a0 | a5\n 20185: a0 = a0 << 0x20\n 20188: a0 = a0 | a2\n 20191: u64 [s1 + 0x148] = t1\n 20195: u64 [s1 + 0x140] = t2\n 20199: jump @794 if a0 != 0\n      : @738 (gas: 2)\n 20203: a0 = s1 + 0x1e00\n 20207: ra = 752, jump @22\n      : @739 [@dyn 376] (gas: 15)\n 20213: a3 = s1 + 0x1918\n 20217: a0 = u64 [a3 + 0x500]\n 20221: a4 = a3 + 0x400\n 20225: a1 = u64 [a4 + 0xf8]\n 20229: a2 = u64 [a4 + 0xf0]\n 20233: a3 = u64 [a4 + 0xe8]\n 20237: a4 = s1 + 0x2918\n 20241: a5 = a4 + 0x500\n 20245: u64 [a5 + 0x20] = a0\n 20248: u64 [a5 + 0x18] = a1\n 20251: u64 [a5 + 0x10] = a2\n 20254: u64 [a5 + 0x8] = a3\n 20257: a1 = s1 + 0x2e20\n 20261: a0 = u64 [s1 + 0x170]\n 20265: ra = 754, jump @30\n      : @740 [@dyn 377] (gas: 53)\n 20271: t1 = u64 [s1 + 0x148]\n 20275: t1 = t1 + 0x1\n 20278: a0 = t1 <u 0x1\n 20281: t2 = u64 [s1 + 0x140]\n 20285: t2 = t2 + a0\n 20288: a0 = t1 | t2\n 20291: a0 = a0 <u 0x1\n 20294: a1 = u64 [s1 + 0x150]\n 20298: ra = a1 + a0\n 20301: a1 = ra <u a1\n 20304: a0 = u64 [s1 + 0x168]\n 20308: a0 = a0 + a1\n 20311: a1 = u64 [s1 + 0x198]\n 20315: a2 = a1 + 0x20\n 20318: u64 [s1 + 0x168] = a2\n 20322: a3 = a2 <u a1\n 20325: a1 = u64 [s1 + 0x138]\n 20329: a2 = a1 + a3\n 20332: u64 [s1 + 0x148] = a2\n 20336: a4 = a2 <u a1\n 20339: a4 = a3 if a3 == 0\n 20342: a1 = u64 [s1 + 0x190]\n 20346: a3 = a1 + a4\n 20349: a4 = a3 <u a1\n 20352: a1 = u64 [s1 + 0x188]\n 20356: a1 = a1 + a4\n 20359: u64 [s1 + 0x188] = a1\n 20363: a1 = u64 [s1 + 0x178]\n 20367: a4 = a1 + 0x20\n 20370: a5 = a4 <u a1\n 20373: a2 = u64 [s1 + 0x158]\n 20377: a1 = a2 + a5\n 20380: a2 = a1 <u a2\n 20383: a2 = a5 if a5 == 0\n 20386: a5 = u64 [s1 + 0x160]\n 20390: a2 = a2 + a5\n 20393: a5 = a2 <u a5\n 20396: t0 = u64 [s1 + 0x180]\n 20400: t0 = t0 + a5\n 20403: u64 [s1 + 0x180] = t0\n 20407: a5 = u64 [s1 + 0x170]\n 20411: u64 [a5 + 0x8] = t2\n 20414: u64 [a5] = t1\n 20416: u64 [a5 + 0x10] = ra\n 20419: t0 = a0\n 20421: u64 [a5 + 0x18] = a0\n 20424: u64 [s1 + 0x150] = ra\n 20428: a0 = u64 [s1 + 0x168]\n 20432: u64 [s1 + 0x198] = a0\n 20436: a5 = u64 [s1 + 0x148]\n 20440: u64 [s1 + 0x190] = a3\n 20444: a3 = a1\n 20446: jump @736\n      : @741 (gas: 8)\n 20449: a0 = u64 [s1 + 0x80]\n 20453: a1 = u64 [s1 + 0x40]\n 20456: a0 = a0 | a1\n 20459: a1 = u64 [s1 + 0x50]\n 20462: a2 = u64 [s1 + 0x38]\n 20465: a1 = a1 | a2\n 20468: a0 = a0 | a1\n 20471: jump @751 if a0 != 0\n      : @742 (gas: 5)\n 20475: u64 [s1 + 320] = 0\n 20479: u64 [s1 + 312] = 0\n 20483: u64 [s1 + 328] = 0\n 20487: u64 [s1 + 336] = 0\n 20491: jump @754\n      : @743 (gas: 12)\n 20494: t2 = u64 [s1 + 0x190]\n 20498: t1 = u64 [s1 + 0x198]\n 20502: a4 = u64 [s1 + 0x80]\n 20506: a5 = u64 [s1 + 0x110]\n 20510: a4 = a4 ^ a5\n 20513: a5 = u64 [s1 + 0x40]\n 20516: t0 = a4 | a5\n 20519: a5 = u64 [s1 + 0x50]\n 20522: a4 = u64 [s1 + 0x38]\n 20525: a5 = a5 | a4\n 20528: a4 = t0 | a5\n 20531: jump @750 if a4 == 0\n      : @744 (gas: 18)\n 20535: a4 = a1 <u t1\n 20538: a3 = a3 + a4\n 20541: t0 = a3 ^ ra\n 20544: a5 = a3 <u ra\n 20547: a5 = a4 if t0 == 0\n 20550: a5 = a5 + a2\n 20553: a4 = a5 <u a2\n 20556: a2 = a2 <u t2\n 20559: a0 = a0 + a2\n 20562: a0 = a0 + a4\n 20565: a2 = a1 | a5\n 20568: a0 = a0 | a3\n 20571: a2 = a2 | a0\n 20574: a2 = a2 >> 0x20\n 20577: a0 = a0 | a5\n 20580: a0 = a0 << 0x20\n 20583: a0 = a0 | a2\n 20586: jump @794 if a0 != 0\n      : @745 (gas: 2)\n 20590: a0 = s1 + 0x2060\n 20594: ra = 756, jump @22\n      : @746 [@dyn 378] (gas: 18)\n 20600: a0 = s1 + 0x1918\n 20604: a2 = a0 + 0x700\n 20608: a1 = u64 [a2 + 0x60]\n 20611: u64 [s1 + 0x190] = a1\n 20615: a1 = u64 [a2 + 0x58]\n 20618: u64 [s1 + 0x188] = a1\n 20622: a1 = u64 [a2 + 0x50]\n 20625: u64 [s1 + 0x180] = a1\n 20629: a0 = u64 [a2 + 0x48]\n 20632: u64 [s1 + 0x178] = a0\n 20636: a0 = u64 [s1 + 0x80]\n 20640: a0 = a0 << 0x3b\n 20643: a1 = a0 >> 0x38\n 20646: u64 [s1 + 0x198] = a1\n 20650: a2 = 0x80 - a1\n 20654: a0 = 0xffffffffffffffff\n 20657: a1 = 0xffffffffffffffff\n 20660: ra = 758, jump @1597\n      : @747 [@dyn 379] (gas: 6)\n 20666: u64 [s1 + 0x168] = a0\n 20670: u64 [s1 + 0x150] = a1\n 20674: a0 = 0xffffffffffffffff\n 20677: a1 = 0xffffffffffffffff\n 20680: a2 = u64 [s1 + 0x198]\n 20684: ra = 760, jump @1592\n      : @748 [@dyn 380] (gas: 10)\n 20690: u64 [s1 + 0x158] = a0\n 20694: u64 [s1 + 0x160] = a1\n 20698: a0 = u64 [s1 + 0x150]\n 20702: a0 = a0 | a1\n 20705: u64 [s1 + 0x150] = a0\n 20709: a0 = u64 [s1 + 0x198]\n 20713: a2 = a0 + 0xffffffffffffff80\n 20716: a0 = 0xffffffffffffffff\n 20719: a1 = 0xffffffffffffffff\n 20722: ra = 762, jump @1592\n      : @749 [@dyn 381] (gas: 30)\n 20728: a4 = u64 [s1 + 0x198]\n 20732: a2 = a4 <u 0x80\n 20736: a3 = u64 [s1 + 0x150]\n 20740: a1 = a3 if a2 != 0\n 20743: a5 = u64 [s1 + 0x158]\n 20747: a3 = u64 [s1 + 0x168]\n 20751: a3 = a3 | a5\n 20754: a3 = a0 if a2 == 0\n 20757: a1 = 0xffffffffffffffff if a4 == 0\n 20760: a3 = 0xffffffffffffffff if a4 == 0\n 20763: a4 = u64 [s1 + 0x160]\n 20767: a4 = 0 if a2 == 0\n 20769: a5 = 0 if a2 == 0\n 20771: a0 = u64 [s1 + 0x178]\n 20775: a0 = a0 & ~a3\n 20778: a2 = u64 [s1 + 0x180]\n 20782: a1 = a2 & ~a1\n 20785: a2 = u64 [s1 + 0x188]\n 20789: a2 = a2 & ~a5\n 20792: a3 = u64 [s1 + 0x190]\n 20796: a3 = a3 & ~a4\n 20799: a4 = s1 + 0x2918\n 20803: a5 = a4 + 0x500\n 20807: u64 [a5 + 0x40] = a3\n 20810: u64 [a5 + 0x38] = a2\n 20813: u64 [a5 + 0x30] = a1\n 20816: u64 [a5 + 0x28] = a0\n 20819: a1 = s1 + 0x2e40\n 20823: a0 = u64 [s1 + 0x170]\n 20827: ra = 764, jump @30\n      : @750 [@dyn 382] (gas: 23)\n 20833: a2 = u64 [s1 + 0x40]\n 20836: a0 = a2 >> 0x3f\n 20839: a1 = u64 [s1 + 0x38]\n 20842: a1 = a1 << 0x1\n 20845: a0 = a0 | a1\n 20848: a3 = u64 [s1 + 0x50]\n 20851: a1 = a3 >> 0x3f\n 20854: a2 = a2 << 0x1\n 20857: a1 = a1 | a2\n 20860: a4 = u64 [s1 + 0x80]\n 20864: a2 = a4 >> 0x3f\n 20867: a3 = a3 << 0x1\n 20870: a2 = a2 | a3\n 20873: a3 = a4 << 0x1\n 20876: a3 = a3 + 0x1\n 20879: a4 = s1 + 0x2918\n 20883: a5 = a4 + 0x500\n 20887: u64 [a5 + 0x48] = a3\n 20890: u64 [a5 + 0x50] = a2\n 20893: u64 [a5 + 0x58] = a1\n 20896: u64 [a5 + 0x60] = a0\n 20899: a0 = 0x2e60\n 20903: jump @758\n      : @751 (gas: 11)\n 20906: a3 = s1 + 0x100\n 20910: a0 = u64 [a3 + 0x28]\n 20913: a1 = u64 [a3 + 0x20]\n 20916: a0 = a0 | a1\n 20919: a1 = 0xffffffe0\n 20929: a2 = u64 [a3 + 0x18]\n 20932: a1 = a2 <u a1\n 20935: a2 = u64 [a3 + 0x30]\n 20938: a1 = 0 if a2 != 0\n 20940: a1 = 0 if a0 != 0\n 20942: jump @794 if a1 == 0\n      : @752 (gas: 4)\n 20946: a0 = u64 [s1 + 0x118]\n 20950: i32 a1 = a0 + 0x20\n 20953: a0 = s1 + 0x20a0\n 20957: ra = 766, jump @22\n      : @753 [@dyn 383] (gas: 12)\n 20963: a0 = s1 + 0x1918\n 20967: a2 = a0 + 0x700\n 20971: a1 = u64 [a2 + 0xa0]\n 20975: a3 = s1 + 0x100\n 20979: u64 [a3 + 0x50] = a1\n 20982: a1 = u64 [a2 + 0x98]\n 20986: u64 [a3 + 0x48] = a1\n 20989: a1 = u64 [a2 + 0x90]\n 20993: u64 [a3 + 0x38] = a1\n 20996: a0 = u64 [a2 + 0x88]\n 21000: u64 [a3 + 0x40] = a0\n 21003: fallthrough\n      : @754 (gas: 24)\n 21004: a2 = u64 [s1 + 0x50]\n 21007: a0 = a2 >> 0x3f\n 21010: a3 = u64 [s1 + 0x40]\n 21013: a1 = a3 << 0x1\n 21016: a0 = a0 | a1\n 21019: u64 [s1 + 0x190] = a0\n 21023: a0 = a3 >> 0x3f\n 21026: a1 = u64 [s1 + 0x38]\n 21029: a1 = a1 << 0x1\n 21032: a0 = a0 | a1\n 21035: u64 [s1 + 0x188] = a0\n 21039: a3 = u64 [s1 + 0x80]\n 21043: a0 = a3 >> 0x3f\n 21046: a1 = a2 << 0x1\n 21049: a0 = a0 | a1\n 21052: u64 [s1 + 0x180] = a0\n 21056: a0 = a3 << 0x1\n 21059: u64 [s1 + 0x178] = a0\n 21063: a1 = a3 << 0x3\n 21066: u64 [s1 + 0x198] = a1\n 21070: i32 a2 = 0x80 - a1\n 21074: a0 = 0xffffffffffffffff\n 21077: a1 = 0xffffffffffffffff\n 21080: ra = 768, jump @1597\n      : @755 [@dyn 384] (gas: 7)\n 21086: u64 [s1 + 0x158] = a0\n 21090: u64 [s1 + 0x170] = a1\n 21094: a0 = u64 [s1 + 0x80]\n 21098: i32 a2 = a0 << 0x3\n 21101: a0 = 0xffffffffffffffff\n 21104: a1 = 0xffffffffffffffff\n 21107: ra = 770, jump @1592\n      : @756 [@dyn 385] (gas: 10)\n 21113: u64 [s1 + 0x168] = a0\n 21117: u64 [s1 + 0x160] = a1\n 21121: a1 = u64 [s1 + 0x158]\n 21125: a0 = a0 | a1\n 21128: u64 [s1 + 0x158] = a0\n 21132: a0 = u64 [s1 + 0x198]\n 21136: i32 a2 = a0 + 0xffffffffffffff80\n 21139: a0 = 0xffffffffffffffff\n 21142: a1 = 0xffffffffffffffff\n 21145: ra = 772, jump @1592\n      : @757 [@dyn 386] (gas: 38)\n 21151: a4 = u64 [s1 + 0x198]\n 21155: a2 = a4 <u 0x80\n 21159: a3 = u64 [s1 + 0x158]\n 21163: a0 = a3 if a2 != 0\n 21166: a5 = u64 [s1 + 0x160]\n 21170: a3 = u64 [s1 + 0x170]\n 21174: a3 = a3 | a5\n 21177: a3 = a1 if a2 == 0\n 21180: a0 = 0xffffffffffffffff if a4 == 0\n 21183: a3 = 0xffffffffffffffff if a4 == 0\n 21186: a5 = 0 if a2 == 0\n 21188: a4 = u64 [s1 + 0x168]\n 21192: a4 = 0 if a2 == 0\n 21194: a1 = u64 [s1 + 0x138]\n 21198: a1 = a1 & ~a3\n 21201: a2 = u64 [s1 + 0x140]\n 21205: a0 = a2 & ~a0\n 21208: a2 = u64 [s1 + 0x148]\n 21212: a2 = a2 & ~a4\n 21215: a3 = u64 [s1 + 0x150]\n 21219: a3 = a3 & ~a5\n 21222: a5 = s1 + 0x100\n 21226: a4 = u64 [a5 + 0x78]\n 21229: a0 = a0 | a4\n 21232: a4 = u64 [a5 + 0x80]\n 21236: a1 = a1 | a4\n 21239: a4 = u64 [a5 + 0x88]\n 21243: a3 = a3 | a4\n 21246: a4 = u64 [a5 + 0x90]\n 21250: a2 = a2 | a4\n 21253: a4 = s1 + 0x2918\n 21257: a5 = a4 + 0x500\n 21261: u64 [a5 + 0x78] = a2\n 21264: u64 [a5 + 0x80] = a3\n 21268: u64 [a5 + 0x70] = a1\n 21271: u64 [a5 + 0x68] = a0\n 21274: a0 = 0x2e80\n 21278: fallthrough\n      : @758 (gas: 3)\n 21279: a1 = s1 + a0\n 21282: a0 = u64 [s1 + 0x48]\n 21285: ra = 774, jump @30\n      : @759 [@dyn 387] (gas: 23)\n 21291: a0 = sp + 0xffffffffffffffe0\n 21294: a5 = a0 & 0xffffffffffffffe0\n 21297: sp = a5\n 21299: a1 = u64 [s1 + 0x58]\n 21302: a0 = a1 + 0x2\n 21305: a1 = a0 <u a1\n 21308: a3 = u64 [s1 + 0x60]\n 21311: a2 = a3 + a1\n 21314: a3 = a2 <u a3\n 21317: a3 = a1 if a1 == 0\n 21320: a1 = u64 [s1 + 0x70]\n 21323: a3 = a3 + a1\n 21326: a1 = a3 <u a1\n 21329: a4 = u64 [s1 + 0x68]\n 21332: a1 = a1 + a4\n 21335: u64 [s1 + 0x198] = a5\n 21339: u64 [a5 + 0x10] = a3\n 21342: u64 [a5 + 0x8] = a2\n 21345: u64 [a5] = a0\n 21347: u64 [a5 + 0x18] = a1\n 21350: a0 = s1 + 0x2040\n 21354: a1 = u64 [s1 + 0x78]\n 21357: ra = 776, jump @22\n      : @760 [@dyn 388] (gas: 7)\n 21363: a0 = s1 + 0x1918\n 21367: a0 = u64 [a0 + 0x728]\n 21371: a0 = a0 & 0xffffffffffffffff\n 21374: u64 [s1 + 0x190] = a0\n 21378: a0 = s1 + 0x2020\n 21382: a1 = u64 [s1 + 0x198]\n 21386: ra = 778, jump @26\n      : @761 [@dyn 389] (gas: 15)\n 21392: a2 = s1 + 0x1918\n 21396: a3 = a2 + 0x700\n 21400: a0 = u64 [a3 + 0x20]\n 21403: a1 = u64 [a3 + 0x18]\n 21406: a2 = u64 [a3 + 0x10]\n 21409: a3 = s1 + 0x2918\n 21413: a4 = u64 [s1 + 0x190]\n 21417: a5 = a3 + 0x500\n 21421: u64 [a5 + 0x88] = a4\n 21425: u64 [a5 + 0xa0] = a0\n 21429: u64 [a5 + 0x98] = a1\n 21433: u64 [a5 + 0x90] = a2\n 21437: a1 = s1 + 0x2ea0\n 21441: a0 = u64 [s1 + 0x198]\n 21445: ra = 780, jump @30\n      : @762 [@dyn 390] (gas: 3)\n 21451: a0 = s1 + 0x2000\n 21455: a1 = u64 [s1 + 0x30]\n 21458: ra = 782, jump @22\n      : @763 [@dyn 391] (gas: 14)\n 21464: a3 = s1 + 0x1918\n 21468: a0 = u64 [a3 + 0x700]\n 21472: a4 = a3 + 0x600\n 21476: a1 = u64 [a4 + 0xf0]\n 21480: a2 = u64 [a4 + 0xf8]\n 21484: a3 = u64 [a4 + 0xe8]\n 21488: a0 = a0 | a1\n 21491: a2 = a2 | a3\n 21494: a0 = a0 | a2\n 21497: a0 = a0 >u 0\n 21499: u64 [s1 + 0x190] = a0\n 21503: a0 = s1 + 0x1fe0\n 21507: a1 = u64 [s1 + 0x198]\n 21511: ra = 784, jump @26\n      : @764 [@dyn 392] (gas: 18)\n 21517: a3 = s1 + 0x1918\n 21521: a4 = a3 + 0x600\n 21525: a0 = u64 [a4 + 0xd0]\n 21529: a1 = u64 [a4 + 0xc8]\n 21533: a2 = u64 [a4 + 0xe0]\n 21537: a3 = u64 [a4 + 0xd8]\n 21541: a0 = a0 & 0xffffffffffffff00\n 21545: a4 = u64 [s1 + 0x190]\n 21549: a0 = a0 | a4\n 21552: a4 = s1 + 0x2918\n 21556: a5 = a4 + 0x500\n 21560: u64 [a5 + 0xc0] = a2\n 21564: u64 [a5 + 0xb8] = a3\n 21568: u64 [a5 + 0xa8] = a1\n 21572: u64 [a5 + 0xb0] = a0\n 21576: a1 = s1 + 0x2ec0\n 21580: a0 = u64 [s1 + 0x198]\n 21584: ra = 786, jump @30\n      : @765 [@dyn 393] (gas: 6)\n 21590: a0 = u64 [s1 + 0xc8]\n 21594: ra = 0x314\n 21598: ecalli 4 // 'caller'\n 21600: a2 = u64 [s1 + 0xe8]\n 21604: t0 = 0x316\n 21608: jump @1510\n      : @766 [@dyn 394] (gas: 2)\n 21611: a2 = u64 [s1 + 0xe8]\n 21615: t0 = 790, jump @1510\n      : @767 [@dyn 395] (gas: 8)\n 21621: u64 [a2 + 1728] = 0\n 21625: a4 = a2 + 0x600\n 21629: u64 [a4 + 0xb8] = a1\n 21633: u64 [a4 + 0xb0] = a0\n 21637: a1 = s1 + 0x1fc0\n 21641: u64 [a4 + 0xa8] = a3\n 21645: a0 = 0\n 21647: ra = 792, jump @24\n      : @768 [@dyn 396] (gas: 9)\n 21653: a0 = s1 + 0x1918\n 21657: u64 [a0 + 1696] = 0\n 21661: u64 [a0 + 1688] = 0\n 21665: u64 [a0 + 1680] = 0\n 21669: a2 = a0\n 21671: a0 = 0x20\n 21674: a1 = s1 + 0x1fa0\n 21678: u64 [a2 + 1672] = 0\n 21682: ra = 794, jump @24\n      : @769 [@dyn 397] (gas: 1)\n 21688: t0 = 796, jump @1531\n      : @770 [@dyn 398] (gas: 3)\n 21694: a2 = u64 [s1 + 0xa8]\n 21698: a0 = i32 [a2]\n 21700: jump @772 if a0 >u 63\n      : @771 (gas: 2)\n 21704: u32 [a2 + 0] = 0x40\n 21707: fallthrough\n      : @772 (gas: 12)\n 21708: a0 = sp + 0xffffffffffffffe0\n 21711: a0 = a0 & 0xffffffffffffffe0\n 21714: u64 [s1 + 0x190] = a0\n 21718: sp = a0\n 21720: i32 a2 = a0 + 0\n 21722: a1 = 0x40\n 21725: a0 = u64 [s1 + 0xa0]\n 21729: ra = 0x31e\n 21733: ecalli 8 // 'hash_keccak_256'\n 21735: a3 = u64 [s1 + 0x190]\n 21739: t0 = 0x320\n 21743: jump @1550\n      : @773 [@dyn 399] (gas: 2)\n 21746: a3 = u64 [s1 + 0x190]\n 21750: t0 = 800, jump @1550\n      : @774 [@dyn 400] (gas: 18)\n 21756: u64 [s1 + 0x190] = a4\n 21760: a3 = a4 <u 0x1\n 21763: a3 = a3 + a2\n 21766: u64 [s1 + 0x188] = a3\n 21770: a2 = a4 | a3\n 21773: a2 = a2 <u 0x1\n 21776: a2 = a2 + a1\n 21779: u64 [s1 + 0x180] = a2\n 21783: a1 = a2 <u a1\n 21786: a0 = a0 + a1\n 21789: u64 [s1 + 0x178] = a0\n 21793: a1 = u64 [s1 + 0x198]\n 21797: u64 [a1] = a4\n 21799: u64 [a1 + 0x8] = a3\n 21802: u64 [a1 + 0x10] = a2\n 21805: u64 [a1 + 0x18] = a0\n 21808: a0 = s1 + 0x1f80\n 21812: ra = 802, jump @26\n      : @775 [@dyn 401] (gas: 22)\n 21818: a1 = s1 + 0x1918\n 21822: a3 = a1 + 0x600\n 21826: a0 = u64 [a3 + 0x78]\n 21829: a0 = a0 + 0x1\n 21832: a2 = u64 [s1 + 0xe0]\n 21836: a2 = a2 & a0\n 21839: u64 [a1 + 1600] = 0\n 21843: u64 [a1 + 1592] = 0\n 21847: u64 [a1 + 1584] = 0\n 21851: a0 = u64 [s1 + 0x178]\n 21855: u64 [a3 + 0x60] = a0\n 21858: a0 = u64 [s1 + 0x180]\n 21862: u64 [a3 + 0x58] = a0\n 21865: a0 = u64 [s1 + 0x188]\n 21869: u64 [a3 + 0x50] = a0\n 21872: a0 = u64 [s1 + 0x190]\n 21876: u64 [a3 + 0x48] = a0\n 21879: a3 = a1\n 21881: a0 = s1 + 0x1f60\n 21885: a1 = s1 + 0x1f40\n 21889: u64 [a3 + 0x628] = a2\n 21893: ra = 804, jump @1477\n      : @776 [@dyn 402] (gas: 3)\n 21899: a0 = s1 + 0x1f20\n 21903: a1 = 0x40\n 21906: ra = 806, jump @22\n      : @777 [@dyn 403] (gas: 3)\n 21912: t0 = 0x328\n 21916: a2 = s1 + 0x1918\n 21920: fallthrough\n      : @778 [@dyn 404] (gas: 17)\n 21921: a5 = a2 + 0x600\n 21925: a3 = u64 [a5 + 0x20]\n 21928: a4 = u64 [a5 + 0x18]\n 21931: a1 = u64 [a5 + 0x10]\n 21934: a0 = u64 [a5 + 0x8]\n 21937: a5 = s1 + 0x100\n 21941: u64 [a5 + 0x98] = a1\n 21945: u64 [a5 + 0x88] = a3\n 21949: a3 = a3 | a1\n 21952: a1 = a0 | a4\n 21955: a1 = a1 | a3\n 21958: a1 = a1 >> 0x20\n 21961: u64 [a5 + 0x90] = a4\n 21965: a3 = a3 | a4\n 21968: a3 = a3 << 0x20\n 21971: a1 = a1 | a3\n 21974: jump @794 if a1 != 0\n      : @779 (gas: 7)\n 21978: u64 [a2 + 1536] = 0\n 21982: u64 [a2 + 1528] = 0\n 21986: u64 [a2 + 1520] = 0\n 21990: a1 = s1 + 0x1f00\n 21994: u64 [a2 + 1512] = 0x20\n 21999: u64 [s1 + 0x180] = a0\n 22003: ra = 810, jump @24\n      : @780 [@dyn 405] (gas: 14)\n 22009: a3 = s1 + 0x100\n 22013: a0 = u64 [a3 + 0x88]\n 22017: a1 = u64 [a3 + 0x90]\n 22021: a1 = a1 | a0\n 22024: a0 = 0x100000000\n 22034: u64 [a3 + 0x78] = a0\n 22037: a0 = 0xffffffe0\n 22047: a2 = u64 [a3 + 0x80]\n 22051: a0 = a2 <u a0\n 22054: a2 = u64 [a3 + 0x98]\n 22058: a0 = 0 if a2 != 0\n 22060: u64 [a3 + 0x70] = a1\n 22063: a0 = 0 if a1 != 0\n 22065: jump @794 if a0 == 0\n      : @781 (gas: 14)\n 22069: a0 = u64 [s1 + 0x180]\n 22073: i32 a0 = a0 + 0x20\n 22076: a2 = s1 + 0x1918\n 22080: a1 = u64 [s1 + 0xc0]\n 22084: a4 = a2 + 0x500\n 22088: u64 [a4 + 0xc8] = a1\n 22092: a1 = u64 [s1 + 0xb0]\n 22096: u64 [a4 + 0xd0] = a1\n 22100: a1 = u64 [s1 + 0xb8]\n 22104: u64 [a4 + 0xd8] = a1\n 22108: a1 = s1 + 0x1ee0\n 22112: a3 = u64 [s1 + 0xf0]\n 22116: u64 [a4 + 0xe0] = a3\n 22120: ra = 812, jump @24\n      : @782 [@dyn 406] (gas: 9)\n 22126: a0 = u64 [s1 + 0x178]\n 22130: a0 = a0 + 0xffffffffffffffdc\n 22133: a1 = u64 [s1 + 0xd0]\n 22137: a0 = a1 <u a0\n 22140: a1 = u64 [s1 + 0xd8]\n 22144: a0 = 0 if a1 != 0\n 22146: a1 = u64 [s1 + 0x98]\n 22150: a0 = 0 if a1 != 0\n 22152: jump @794 if a0 == 0\n      : @783 (gas: 12)\n 22156: a0 = u64 [s1 + 0xc0]\n 22160: a2 = u64 [s1 + 0xb8]\n 22164: a0 = a0 | a2\n 22167: a1 = u64 [s1 + 0xf0]\n 22171: a3 = u64 [s1 + 0xb0]\n 22175: a1 = a1 | a3\n 22178: a0 = a0 | a1\n 22181: a0 = a0 >> 0x20\n 22184: a1 = a1 | a2\n 22187: a1 = a1 << 0x20\n 22190: a0 = a0 | a1\n 22193: jump @794 if a0 != 0\n      : @784 (gas: 10)\n 22197: a1 = 0xffffffc0\n 22207: a2 = s1 + 0x100\n 22211: a0 = u64 [a2 + 0x80]\n 22215: u64 [a2 + 0x78] = a1\n 22218: a0 = a0 <u a1\n 22221: a1 = u64 [a2 + 0x98]\n 22225: a0 = 0 if a1 != 0\n 22227: a1 = u64 [a2 + 0x70]\n 22230: a0 = 0 if a1 != 0\n 22232: jump @794 if a0 == 0\n      : @785 (gas: 4)\n 22236: a0 = u64 [s1 + 0x180]\n 22240: i32 a0 = a0 + 0x40\n 22243: a1 = u64 [s1 + 0x90]\n 22247: ra = 814, jump @39\n      : @786 [@dyn 407] (gas: 5)\n 22253: i32 a0 = a0 + 0\n 22255: a1 = u64 [s1 + 0x90]\n 22259: a2 = u64 [s1 + 0x88]\n 22263: ecalli 1 // 'call_data_copy'\n 22265: fallthrough\n      : @787 (gas: 28)\n 22266: a1 = u64 [s1 + 0xc0]\n 22270: a0 = u64 [s1 + 0x180]\n 22274: a0 = a0 + a1\n 22277: a1 = a0 <u a1\n 22280: a4 = u64 [s1 + 0xb0]\n 22284: a2 = u64 [s1 + 0x198]\n 22288: a2 = a2 + a4\n 22291: a2 = a2 + a1\n 22294: a3 = a2 ^ a4\n 22297: a4 = a2 <u a4\n 22300: a4 = a1 if a3 == 0\n 22303: a1 = u64 [s1 + 0xf0]\n 22307: a3 = u64 [s1 + 0x188]\n 22311: a1 = a1 + a3\n 22314: a5 = u64 [s1 + 0xb8]\n 22318: a3 = u64 [s1 + 0x190]\n 22322: a3 = a3 + a5\n 22325: a5 = a3 <u a5\n 22328: a1 = a1 + a5\n 22331: a4 = a4 + a3\n 22334: a3 = a4 <u a3\n 22337: a1 = a1 + a3\n 22340: a1 = a1 | a4\n 22343: a3 = u64 [s1 + 0x178]\n 22347: a3 = a0 <u a3\n 22350: a3 = 0 if a2 != 0\n 22352: a3 = 0 if a1 != 0\n 22354: jump @794 if a3 == 0\n      : @788 (gas: 8)\n 22358: i32 a0 = a0 + 0x40\n 22361: a2 = s1 + 0x1918\n 22365: u64 [a2 + 1472] = 0\n 22369: u64 [a2 + 1464] = 0\n 22373: u64 [a2 + 1456] = 0\n 22377: a1 = s1 + 0x1ec0\n 22381: u64 [a2 + 1448] = 0\n 22385: ra = 816, jump @24\n      : @789 [@dyn 408] (gas: 6)\n 22391: a0 = u64 [s1 + 0xc8]\n 22395: ra = 0x332\n 22399: ecalli 4 // 'caller'\n 22401: a2 = u64 [s1 + 0xe8]\n 22405: t0 = 0x334\n 22409: jump @1515\n      : @790 [@dyn 409] (gas: 2)\n 22412: a2 = u64 [s1 + 0xe8]\n 22416: t0 = 820, jump @1515\n      : @791 [@dyn 410] (gas: 36)\n 22422: t0 = a1 | a0\n 22425: a3 = a3 >> 0x20\n 22428: a1 = reverse a2\n 22430: a2 = a1 << 0x20\n 22433: a2 = a2 | a3\n 22436: a3 = a1 >> 0x20\n 22439: a1 = u64 [s1 + 0xc0]\n 22443: a1 = a1 + 0x1f\n 22446: a1 = a1 & 0xe0\n 22450: a1 = a1 + 0x40\n 22453: a4 = u64 [0x20040]\n 22458: a5 = u64 [0x20048]\n 22463: a0 = s1 + 0x1918\n 22467: u64 [a0 + 0x5a0] = a4\n 22471: a4 = u64 [0x20050]\n 22476: u64 [a0 + 0x598] = a5\n 22480: u64 [a0 + 1376] = 0\n 22484: a5 = u64 [s1 + 0x108]\n 22488: u64 [a0 + 0x558] = a5\n 22492: u64 [a0 + 0x590] = a4\n 22496: a4 = u64 [0x20058]\n 22501: a5 = u64 [s1 + 0xf8]\n 22505: u64 [a0 + 0x550] = a5\n 22509: a5 = u64 [s1 + 0x100]\n 22513: u64 [a0 + 0x548] = a5\n 22517: u64 [a0 + 1408] = 0\n 22521: a5 = a0 + 0x500\n 22525: u64 [a5 + 0x88] = a4\n 22529: u64 [a5 + 0x78] = a3\n 22532: u64 [a5 + 0x70] = a2\n 22535: a2 = s1 + 0x1ea0\n 22539: a3 = s1 + 0x1e80\n 22543: a4 = s1 + 0x1e60\n 22547: u64 [a0 + 0x568] = t0\n 22551: a0 = u64 [s1 + 0x180]\n 22555: ra = 822, jump @33\n      : @792 [@dyn 411] (gas: 3)\n 22561: a0 = s1 + 0x1e40\n 22565: a1 = 0x40\n 22568: ra = 824, jump @22\n      : @793 [@dyn 412] (gas: 14)\n 22574: a3 = s1 + 0x1918\n 22578: a5 = a3 + 0x500\n 22582: a0 = u64 [a5 + 0x40]\n 22585: a1 = u64 [a5 + 0x38]\n 22588: a2 = u64 [a5 + 0x30]\n 22591: a4 = u64 [a5 + 0x28]\n 22594: a0 = a0 | a2\n 22597: a2 = a4 | a1\n 22600: a2 = a2 | a0\n 22603: a2 = a2 >> 0x20\n 22606: a0 = a0 | a1\n 22609: a0 = a0 << 0x20\n 22612: a0 = a0 | a2\n 22615: jump @905 if a0 == 0\n      : @794 (gas: 1)\n 22619: trap\n      : @795 (gas: 6)\n 22620: a1 = 0x20180\n 22625: i32 a1 = a1 + 0\n 22627: a0 = 0x1\n 22630: a2 = 0\n 22632: ecalli 13 // 'seal_return'\n 22634: jump @986\n      : @796 (gas: 6)\n 22637: a1 = 0x20180\n 22642: i32 a1 = a1 + 0\n 22644: a0 = 0x1\n 22647: a2 = 0\n 22649: ecalli 13 // 'seal_return'\n 22651: jump @986\n      : @797 (gas: 6)\n 22654: a1 = 0x20180\n 22659: i32 a1 = a1 + 0\n 22661: a0 = 0x1\n 22664: a2 = 0\n 22666: ecalli 13 // 'seal_return'\n 22668: jump @986\n      : @798 (gas: 11)\n 22671: a2 = s1 + 0x7ff\n 22675: a2 = a2 + 0x119\n 22679: u64 [a2 + 1688] = 0\n 22683: u64 [a2 + 1680] = 0\n 22687: a0 = 0x2c5211c600000000\n 22697: u64 [a2 + 0x6a0] = a0\n 22701: a1 = s1 + 0x7ff\n 22705: a1 = a1 + 0x7a1\n 22709: u64 [a2 + 1672] = 0\n 22713: a0 = 0\n 22715: ra = 826, jump @24\n      : @799 [@dyn 413] (gas: 2)\n 22721: a1 = i32 [0x20170]\n 22726: jump @801 if a1 >u 31\n      : @800 (gas: 3)\n 22730: u32 [0x20170] = 0x20\n 22736: a1 = 0x20180\n 22741: jump @871\n      : @801 (gas: 2)\n 22744: a1 = 0x20180\n 22749: jump @871\n      : @802 (gas: 12)\n 22752: a2 = s1 + 0x7ff\n 22756: a2 = a2 + 0x119\n 22760: u64 [a2 + 1720] = 0\n 22764: u64 [a2 + 1712] = 0\n 22768: a0 = 0xf4d678b800000000\n 22778: u64 [a2 + 0x6c0] = a0\n 22782: a1 = s1 + 0x7ff\n 22786: a1 = a1 + 0x7c1\n 22790: u64 [a2 + 1704] = 0\n 22794: a0 = 0\n 22796: ra = 0x352\n 22800: jump @24\n      : @803 (gas: 6)\n 22803: a1 = 0x20180\n 22808: i32 a1 = a1 + 0\n 22810: a0 = 0x1\n 22813: a2 = 0\n 22815: ecalli 13 // 'seal_return'\n 22817: jump @986\n      : @804 (gas: 3)\n 22820: t0 = 0x33c\n 22824: a2 = s1 + 0x2118\n 22828: fallthrough\n      : @805 [@dyn 414] (gas: 8)\n 22829: u64 [a2 + 1368] = 0\n 22833: u64 [a2 + 1360] = 0\n 22837: a0 = 0x2c5211c600000000\n 22847: u64 [a2 + 0x560] = a0\n 22851: a1 = s1 + 0x2660\n 22855: u64 [a2 + 1352] = 0\n 22859: a0 = 0\n 22861: ra = 830, jump @24\n      : @806 [@dyn 415] (gas: 2)\n 22867: a1 = i32 [0x20170]\n 22872: jump @808 if a1 >u 31\n      : @807 (gas: 3)\n 22876: u32 [0x20170] = 0x20\n 22882: a1 = 0x20180\n 22887: jump @871\n      : @808 (gas: 2)\n 22890: a1 = 0x20180\n 22895: jump @871\n      : @809 (gas: 5)\n 22898: a0 = s1 + 0x2118\n 22902: u64 [a0 + 1432] = 0\n 22906: u64 [a0 + 1424] = 0\n 22910: u64 [a0 + 1416] = 0\n 22914: t0 = 832, jump @1556\n      : @810 [@dyn 416] (gas: 5)\n 22920: i32 a1 = a1 + 0x6a0\n 22924: a1 = a1 + s1\n 22927: u64 [a2 + 0x5a0] = a0\n 22931: a0 = 0\n 22933: ra = 834, jump @24\n      : @811 [@dyn 417] (gas: 3)\n 22939: t0 = 0x344\n 22943: a1 = s1 + 0x2118\n 22947: fallthrough\n      : @812 [@dyn 418] (gas: 8)\n 22948: u64 [a1 + 1408] = 0\n 22952: u64 [a1 + 1400] = 0\n 22956: u64 [a1 + 1384] = 0x11\n 22961: a2 = a1\n 22963: a0 = 0x4\n 22966: a1 = s1 + 0x2680\n 22970: u64 [a2 + 1392] = 0\n 22974: ra = 838, jump @24\n      : @813 [@dyn 419] (gas: 3)\n 22980: a0 = u64 [s1 + 0x160]\n 22984: a0 = i32 [a0]\n 22986: jump @815 if a0 >u 63\n      : @814 (gas: 3)\n 22990: a1 = u64 [s1 + 0x160]\n 22994: u32 [a1 + 0] = 0x40\n 22997: fallthrough\n      : @815 (gas: 5)\n 22998: a0 = 0x1\n 23001: a2 = 0x24\n 23004: a1 = u64 [s1 + 0x170]\n 23008: ecalli 13 // 'seal_return'\n 23010: fallthrough\n      : @816 (gas: 6)\n 23011: a1 = 0x20180\n 23016: i32 a1 = a1 + 0\n 23018: a0 = 0x1\n 23021: a2 = 0\n 23023: ecalli 13 // 'seal_return'\n 23025: jump @986\n      : @817 (gas: 6)\n 23028: a1 = 0x20180\n 23033: i32 a1 = a1 + 0\n 23035: a0 = 0x1\n 23038: a2 = 0\n 23040: ecalli 13 // 'seal_return'\n 23042: jump @986\n      : @818 (gas: 6)\n 23045: a1 = 0x20180\n 23050: i32 a1 = a1 + 0\n 23052: a0 = 0x1\n 23055: a2 = 0\n 23057: ecalli 13 // 'seal_return'\n 23059: jump @986\n      : @819 (gas: 6)\n 23062: a1 = 0x20180\n 23067: i32 a1 = a1 + 0\n 23069: a0 = 0x1\n 23072: a2 = 0\n 23074: ecalli 13 // 'seal_return'\n 23076: jump @986\n      : @820 (gas: 6)\n 23079: a1 = 0x20180\n 23084: i32 a1 = a1 + 0\n 23086: a0 = 0x1\n 23089: a2 = 0\n 23091: ecalli 13 // 'seal_return'\n 23093: jump @986\n      : @821 (gas: 6)\n 23096: a1 = 0x20180\n 23101: i32 a1 = a1 + 0\n 23103: a0 = 0x1\n 23106: a2 = 0\n 23108: ecalli 13 // 'seal_return'\n 23110: jump @986\n      : @822 (gas: 6)\n 23113: a1 = 0x20180\n 23118: i32 a1 = a1 + 0\n 23120: a0 = 0x1\n 23123: a2 = 0\n 23125: ecalli 13 // 'seal_return'\n 23127: jump @986\n      : @823 (gas: 6)\n 23130: a1 = 0x20180\n 23135: i32 a1 = a1 + 0\n 23137: a0 = 0x1\n 23140: a2 = 0\n 23142: ecalli 13 // 'seal_return'\n 23144: jump @986\n      : @824 (gas: 6)\n 23147: a1 = 0x20180\n 23152: i32 a1 = a1 + 0\n 23154: a0 = 0x1\n 23157: a2 = 0\n 23159: ecalli 13 // 'seal_return'\n 23161: jump @986\n      : @825 (gas: 6)\n 23164: a1 = 0x20180\n 23169: i32 a1 = a1 + 0\n 23171: a0 = 0x1\n 23174: a2 = 0\n 23176: ecalli 13 // 'seal_return'\n 23178: jump @986\n      : @826 (gas: 6)\n 23181: a1 = 0x20180\n 23186: i32 a1 = a1 + 0\n 23188: a0 = 0x1\n 23191: a2 = 0\n 23193: ecalli 13 // 'seal_return'\n 23195: jump @986\n      : @827 (gas: 6)\n 23198: a1 = 0x20180\n 23203: i32 a1 = a1 + 0\n 23205: a0 = 0x1\n 23208: a2 = 0\n 23210: ecalli 13 // 'seal_return'\n 23212: jump @986\n      : @828 (gas: 6)\n 23215: a1 = 0x20180\n 23220: i32 a1 = a1 + 0\n 23222: a0 = 0x1\n 23225: a2 = 0\n 23227: ecalli 13 // 'seal_return'\n 23229: jump @986\n      : @829 (gas: 6)\n 23232: a1 = 0x20180\n 23237: i32 a1 = a1 + 0\n 23239: a0 = 0x1\n 23242: a2 = 0\n 23244: ecalli 13 // 'seal_return'\n 23246: jump @986\n      : @830 (gas: 6)\n 23249: a1 = 0x20180\n 23254: i32 a1 = a1 + 0\n 23256: a0 = 0x1\n 23259: a2 = 0\n 23261: ecalli 13 // 'seal_return'\n 23263: jump @986\n      : @831 (gas: 6)\n 23266: a1 = 0x20180\n 23271: i32 a1 = a1 + 0\n 23273: a0 = 0x1\n 23276: a2 = 0\n 23278: ecalli 13 // 'seal_return'\n 23280: jump @986\n      : @832 (gas: 6)\n 23283: a1 = 0x20180\n 23288: i32 a1 = a1 + 0\n 23290: a0 = 0x1\n 23293: a2 = 0\n 23295: ecalli 13 // 'seal_return'\n 23297: jump @986\n      : @833 (gas: 6)\n 23300: a1 = 0x20180\n 23305: i32 a1 = a1 + 0\n 23307: a0 = 0x1\n 23310: a2 = 0\n 23312: ecalli 13 // 'seal_return'\n 23314: jump @986\n      : @834 (gas: 6)\n 23317: a1 = 0x20180\n 23322: i32 a1 = a1 + 0\n 23324: a0 = 0x1\n 23327: a2 = 0\n 23329: ecalli 13 // 'seal_return'\n 23331: jump @986\n      : @835 (gas: 3)\n 23334: t0 = 0x348\n 23338: a2 = s1 + 0x2118\n 23342: fallthrough\n      : @836 [@dyn 420] (gas: 8)\n 23343: u64 [a2 + 984] = 0\n 23347: u64 [a2 + 976] = 0\n 23351: a0 = 0x2c5211c600000000\n 23361: u64 [a2 + 0x3e0] = a0\n 23365: a1 = s1 + 0x24e0\n 23369: u64 [a2 + 968] = 0\n 23373: a0 = 0\n 23375: ra = 842, jump @24\n      : @837 [@dyn 421] (gas: 2)\n 23381: a1 = i32 [0x20170]\n 23386: jump @839 if a1 >u 31\n      : @838 (gas: 3)\n 23390: u32 [0x20170] = 0x20\n 23396: a1 = 0x20180\n 23401: jump @871\n      : @839 (gas: 2)\n 23404: a1 = 0x20180\n 23409: jump @871\n      : @840 (gas: 3)\n 23412: t0 = 0x34c\n 23416: a2 = s1 + 0x2118\n 23420: fallthrough\n      : @841 [@dyn 422] (gas: 8)\n 23421: u64 [a2 + 1016] = 0\n 23425: u64 [a2 + 1008] = 0\n 23429: a0 = 0xf4d678b800000000\n 23439: u64 [a2 + 0x400] = a0\n 23443: a1 = s1 + 0x2500\n 23447: u64 [a2 + 1000] = 0\n 23451: a0 = 0\n 23453: ra = 846, jump @24\n      : @842 [@dyn 423] (gas: 3)\n 23459: a0 = u64 [s1 + 0x170]\n 23463: a0 = i32 [a0]\n 23465: jump @844 if a0 >u 31\n      : @843 (gas: 3)\n 23469: a1 = u64 [s1 + 0x170]\n 23473: u32 [a1 + 0] = 0x20\n 23476: fallthrough\n      : @844 (gas: 5)\n 23477: a0 = 0x1\n 23480: a2 = 0x4\n 23483: a1 = u64 [s1 + 0x160]\n 23487: ecalli 13 // 'seal_return'\n 23489: fallthrough\n      : @845 (gas: 6)\n 23490: a1 = 0x20180\n 23495: i32 a1 = a1 + 0\n 23497: a0 = 0x1\n 23500: a2 = 0\n 23502: ecalli 13 // 'seal_return'\n 23504: jump @986\n      : @846 (gas: 6)\n 23507: a1 = 0x20180\n 23512: i32 a1 = a1 + 0\n 23514: a0 = 0x1\n 23517: a2 = 0\n 23519: ecalli 13 // 'seal_return'\n 23521: jump @986\n      : @847 (gas: 6)\n 23524: a1 = 0x20180\n 23529: i32 a1 = a1 + 0\n 23531: a0 = 0x1\n 23534: a2 = 0\n 23536: ecalli 13 // 'seal_return'\n 23538: jump @986\n      : @848 (gas: 8)\n 23541: u64 [s1 + 432] = 0\n 23545: u64 [s1 + 424] = 0\n 23549: u64 [s1 + 416] = 0\n 23553: a0 = 0x2c5211c600000000\n 23563: a1 = s1 + 0x1a0\n 23567: u64 [s1 + 0x1b8] = a0\n 23571: a0 = 0\n 23573: ra = 848, jump @24\n      : @849 [@dyn 424] (gas: 2)\n 23579: a1 = i32 [0x20170]\n 23584: jump @851 if a1 >u 31\n      : @850 (gas: 3)\n 23588: u32 [0x20170] = 0x20\n 23594: a1 = 0x20180\n 23599: jump @871\n      : @851 (gas: 2)\n 23602: a1 = 0x20180\n 23607: jump @871\n      : @852 (gas: 8)\n 23610: u64 [s1 + 464] = 0\n 23614: u64 [s1 + 456] = 0\n 23618: u64 [s1 + 448] = 0\n 23622: a0 = 0xf4d678b800000000\n 23632: a1 = s1 + 0x1c0\n 23636: u64 [s1 + 0x1d8] = a0\n 23640: a0 = 0\n 23642: ra = 850, jump @24\n      : @853 [@dyn 425] (gas: 3)\n 23648: a0 = u64 [s1 + 0x158]\n 23652: a0 = i32 [a0]\n 23654: jump @855 if a0 >u 31\n      : @854 (gas: 3)\n 23658: a1 = u64 [s1 + 0x158]\n 23662: u32 [a1 + 0] = 0x20\n 23665: fallthrough\n      : @855 (gas: 5)\n 23666: a0 = 0x1\n 23669: a2 = 0x4\n 23672: a1 = u64 [s1 + 0x150]\n 23676: ecalli 13 // 'seal_return'\n 23678: fallthrough\n      : @856 (gas: 6)\n 23679: a1 = 0x20180\n 23684: i32 a1 = a1 + 0\n 23686: a0 = 0x1\n 23689: a2 = 0\n 23691: ecalli 13 // 'seal_return'\n 23693: jump @986\n      : @857 (gas: 6)\n 23696: a1 = 0x20180\n 23701: i32 a1 = a1 + 0\n 23703: a0 = 0x1\n 23706: a2 = 0\n 23708: ecalli 13 // 'seal_return'\n 23710: jump @986\n      : @858 (gas: 6)\n 23713: a1 = 0x20180\n 23718: i32 a1 = a1 + 0\n 23720: a0 = 0x1\n 23723: a2 = 0\n 23725: ecalli 13 // 'seal_return'\n 23727: jump @986\n      : @859 (gas: 6)\n 23730: a1 = 0x20180\n 23735: i32 a1 = a1 + 0\n 23737: a0 = 0x1\n 23740: a2 = 0\n 23742: ecalli 13 // 'seal_return'\n 23744: jump @986\n      : @860 (gas: 11)\n 23747: a2 = s1 + 0x7ff\n 23751: a2 = a2 + 0x119\n 23755: u64 [a2 + 824] = 0\n 23759: u64 [a2 + 816] = 0\n 23763: a0 = 0xd5b25b6300000000\n 23773: u64 [a2 + 0x340] = a0\n 23777: a1 = s1 + 0x7ff\n 23781: a1 = a1 + 0x441\n 23785: u64 [a2 + 808] = 0\n 23789: a0 = 0\n 23791: ra = 852, jump @24\n      : @861 [@dyn 426] (gas: 2)\n 23797: a1 = i32 [0x20170]\n 23802: jump @863 if a1 >u 31\n      : @862 (gas: 3)\n 23806: u32 [0x20170] = 0x20\n 23812: a1 = 0x20180\n 23817: jump @871\n      : @863 (gas: 2)\n 23819: a1 = 0x20180\n 23824: jump @871\n      : @864 (gas: 6)\n 23826: a1 = 0x20180\n 23831: i32 a1 = a1 + 0\n 23833: a0 = 0x1\n 23836: a2 = 0\n 23838: ecalli 13 // 'seal_return'\n 23840: jump @986\n      : @865 (gas: 6)\n 23843: a1 = 0x20180\n 23848: i32 a1 = a1 + 0\n 23850: a0 = 0x1\n 23853: a2 = 0\n 23855: ecalli 13 // 'seal_return'\n 23857: jump @986\n      : @866 (gas: 3)\n 23860: t0 = 0x356\n 23864: a2 = s1 + 0x2118\n 23868: fallthrough\n      : @867 [@dyn 427] (gas: 8)\n 23869: u64 [a2 + 952] = 0\n 23873: u64 [a2 + 944] = 0\n 23877: a0 = 0xcc67c13b00000000\n 23887: u64 [a2 + 0x3c0] = a0\n 23891: a1 = s1 + 0x24c0\n 23895: u64 [a2 + 936] = 0\n 23899: a0 = 0\n 23901: ra = 856, jump @24\n      : @868 [@dyn 428] (gas: 2)\n 23907: a1 = i32 [0x20170]\n 23912: jump @870 if a1 >u 31\n      : @869 (gas: 3)\n 23916: u32 [0x20170] = 0x20\n 23922: a1 = 0x20180\n 23927: jump @871\n      : @870 (gas: 2)\n 23929: a1 = 0x20180\n 23934: fallthrough\n      : @871 (gas: 6)\n 23935: i32 a1 = a1 + 0\n 23937: a0 = 0x1\n 23940: a2 = 0x4\n 23943: ra = 0x35a\n 23947: ecalli 13 // 'seal_return'\n 23949: fallthrough\n      : @872 [@dyn 429] (gas: 5)\n 23950: a0 = s1 + 0x1918\n 23954: u64 [a0 + 1112] = 0\n 23958: u64 [a0 + 1104] = 0\n 23962: u64 [a0 + 1096] = 0\n 23966: t0 = 860, jump @1556\n      : @873 [@dyn 430] (gas: 5)\n 23972: i32 a1 = a1 + 0xfffffffffffffd60\n 23976: a1 = a1 + s1\n 23979: u64 [a2 + 0x460] = a0\n 23983: a0 = 0\n 23985: ra = 862, jump @24\n      : @874 [@dyn 431] (gas: 3)\n 23991: t0 = 0x360\n 23995: a1 = s1 + 0x1918\n 23999: fallthrough\n      : @875 [@dyn 432] (gas: 9)\n 24000: u64 [a1 + 1088] = 0\n 24004: u64 [a1 + 1080] = 0\n 24008: u64 [a1 + 1064] = 0x11\n 24013: a2 = a1\n 24015: a0 = 0x4\n 24018: a1 = s1 + 0x1d40\n 24022: u64 [a2 + 1072] = 0\n 24026: ra = 0x36c\n 24030: jump @24\n      : @876 (gas: 1)\n 24033: jump @890 if a0 != 2618616686\n      : @877 (gas: 11)\n 24041: a0 = s1 + 0x2918\n 24045: u64 [a0 + 832] = 0\n 24049: u64 [a0 + 824] = 0\n 24053: u64 [a0 + 816] = 0\n 24057: u64 [a0 + 808] = 0\n 24061: a0 = s1 + 0x3000\n 24065: i32 a0 = a0 + 0xfffffffffffffc40\n 24069: ra = 0x362\n 24073: ecalli 16 // 'value_transferred'\n 24075: t0 = 0x364\n 24079: jump @1581\n      : @878 [@dyn 433] (gas: 1)\n 24082: t0 = 868, jump @1581\n      : @879 [@dyn 434] (gas: 8)\n 24088: a0 = u64 [a4 + 0x38]\n 24091: a1 = u64 [a4 + 0x40]\n 24094: a2 = u64 [a4 + 0x30]\n 24097: a3 = u64 [a4 + 0x28]\n 24100: a1 = a1 | a2\n 24103: a0 = a0 | a3\n 24106: a0 = a0 | a1\n 24109: jump @906 if a0 == 0\n      : @880 (gas: 6)\n 24113: a1 = 0x20180\n 24118: i32 a1 = a1 + 0\n 24120: a0 = 0x1\n 24123: a2 = 0\n 24125: ecalli 13 // 'seal_return'\n 24127: jump @986\n      : @881 (gas: 6)\n 24130: a1 = 0x20180\n 24135: i32 a1 = a1 + 0\n 24137: a0 = 0x1\n 24140: a2 = 0\n 24142: ecalli 13 // 'seal_return'\n 24144: jump @986\n      : @882 (gas: 6)\n 24147: a1 = 0x20180\n 24152: i32 a1 = a1 + 0\n 24154: a0 = 0x1\n 24157: a2 = 0\n 24159: ecalli 13 // 'seal_return'\n 24161: jump @986\n      : @883 (gas: 5)\n 24164: a0 = s1 + 0x1918\n 24168: u64 [a0 + 1176] = 0\n 24172: u64 [a0 + 1168] = 0\n 24176: u64 [a0 + 1160] = 0\n 24180: t0 = 870, jump @1556\n      : @884 [@dyn 435] (gas: 5)\n 24186: i32 a1 = a1 + 0xfffffffffffffda0\n 24190: a1 = a1 + s1\n 24193: u64 [a2 + 0x4a0] = a0\n 24197: a0 = 0\n 24199: ra = 872, jump @24\n      : @885 [@dyn 436] (gas: 3)\n 24205: t0 = 0x36a\n 24209: a1 = s1 + 0x1918\n 24213: fallthrough\n      : @886 [@dyn 437] (gas: 8)\n 24214: u64 [a1 + 1152] = 0\n 24218: u64 [a1 + 1144] = 0\n 24222: u64 [a1 + 1128] = 0x41\n 24227: a2 = a1\n 24229: a0 = 0x4\n 24232: a1 = s1 + 0x1d80\n 24236: u64 [a2 + 1136] = 0\n 24240: ra = 876, jump @24\n      : @887 [@dyn 438] (gas: 3)\n 24246: a0 = u64 [s1 + 0xa8]\n 24250: a0 = i32 [a0]\n 24252: jump @889 if a0 >u 63\n      : @888 (gas: 3)\n 24256: a1 = u64 [s1 + 0xa8]\n 24260: u32 [a1 + 0] = 0x40\n 24263: fallthrough\n      : @889 (gas: 5)\n 24264: a0 = 0x1\n 24267: a2 = 0x24\n 24270: a1 = u64 [s1 + 0xa0]\n 24274: ecalli 13 // 'seal_return'\n 24276: fallthrough\n      : @890 (gas: 1)\n 24277: jump @908 if a0 != 2685688103\n      : @891 (gas: 11)\n 24285: a0 = s1 + 0x2918\n 24289: u64 [a0 + 864] = 0\n 24293: u64 [a0 + 856] = 0\n 24297: u64 [a0 + 848] = 0\n 24301: u64 [a0 + 840] = 0\n 24305: a0 = s1 + 0x3000\n 24309: i32 a0 = a0 + 0xfffffffffffffc60\n 24313: ra = 0x36e\n 24317: ecalli 16 // 'value_transferred'\n 24319: t0 = 0x370\n 24323: jump @1581\n      : @892 [@dyn 439] (gas: 1)\n 24326: t0 = 880, jump @1581\n      : @893 [@dyn 440] (gas: 1)\n 24332: t0 = 882, jump @1591\n      : @894 [@dyn 441] (gas: 1)\n 24338: jump @914 if a0 == 0\n      : @895 (gas: 6)\n 24342: a1 = 0x20180\n 24347: i32 a1 = a1 + 0\n 24349: a0 = 0x1\n 24352: a2 = 0\n 24354: ecalli 13 // 'seal_return'\n 24356: jump @986\n      : @896 (gas: 2)\n 24359: u64 [s1 + 344] = 0\n 24363: fallthrough\n      : @897 (gas: 5)\n 24364: a0 = u64 [s1 + 0x168]\n 24368: a0 = a0 << 0x1\n 24371: a4 = u64 [s1 + 0x158]\n 24375: a4 = a4 | a0\n 24378: fallthrough\n      : @898 (gas: 7)\n 24379: u64 [s1 + 1336] = 0\n 24383: u64 [s1 + 1328] = 0\n 24387: u64 [s1 + 1320] = 0\n 24391: a1 = s1 + 0x520\n 24395: u64 [s1 + 0x520] = a4\n 24399: a0 = u64 [s1 + 0x118]\n 24403: ra = 884, jump @24\n      : @899 [@dyn 442] (gas: 3)\n 24409: a1 = 0x20\n 24412: a0 = u64 [s1 + 0x118]\n 24416: ra = 886, jump @39\n      : @900 [@dyn 443] (gas: 6)\n 24422: i32 a1 = a0 + 0\n 24424: a2 = 0x20\n 24427: a0 = 0\n 24429: ra = 0x378\n 24433: ecalli 13 // 'seal_return'\n 24435: fallthrough\n      : @901 [@dyn 444] (gas: 5)\n 24436: a0 = s1 + 0x1918\n 24440: u64 [a0 + 1240] = 0\n 24444: u64 [a0 + 1232] = 0\n 24448: u64 [a0 + 1224] = 0\n 24452: t0 = 890, jump @1556\n      : @902 [@dyn 445] (gas: 5)\n 24458: i32 a1 = a1 + 0xfffffffffffffde0\n 24462: a1 = a1 + s1\n 24465: u64 [a2 + 0x4e0] = a0\n 24469: a0 = 0\n 24471: ra = 892, jump @24\n      : @903 [@dyn 446] (gas: 3)\n 24477: t0 = 0x37e\n 24481: a1 = s1 + 0x1918\n 24485: fallthrough\n      : @904 [@dyn 447] (gas: 9)\n 24486: u64 [a1 + 1216] = 0\n 24490: u64 [a1 + 1208] = 0\n 24494: u64 [a1 + 1192] = 0x41\n 24499: a2 = a1\n 24501: a0 = 0x4\n 24504: a1 = s1 + 0x1dc0\n 24508: u64 [a2 + 1200] = 0\n 24512: ra = 0x36c\n 24516: jump @24\n      : @905 (gas: 15)\n 24519: a3 = a4\n 24521: a0 = s1 + 0x1918\n 24525: u64 [a0 + 1312] = 0\n 24529: a5 = s1 + 0x100\n 24533: a1 = u64 [a5]\n 24535: u64 [a0 + 0x508] = a1\n 24539: a1 = u64 [s1 + 0xf8]\n 24543: u64 [a0 + 0x510] = a1\n 24547: a1 = s1 + 0x1e20\n 24551: a2 = u64 [a5 + 0x8]\n 24554: u64 [a0 + 0x518] = a2\n 24558: a0 = a4\n 24560: u64 [a5 + 0x98] = a3\n 24564: ra = 0x12c\n 24568: jump @24\n      : @906 (gas: 3)\n 24571: a0 = u64 [s1 + 0x198]\n 24575: a0 = i32 [a0]\n 24577: jump @916 if a0 >u 99\n      : @907 (gas: 6)\n 24582: a1 = 0x20180\n 24587: i32 a1 = a1 + 0\n 24589: a0 = 0x1\n 24592: a2 = 0\n 24594: ecalli 13 // 'seal_return'\n 24596: jump @986\n      : @908 (gas: 1)\n 24599: jump @921 if a0 != 3058722618\n      : @909 (gas: 11)\n 24607: a0 = s1 + 0x2918\n 24611: u64 [a0 + 992] = 0\n 24615: u64 [a0 + 984] = 0\n 24619: u64 [a0 + 976] = 0\n 24623: u64 [a0 + 968] = 0\n 24627: a0 = s1 + 0x3000\n 24631: i32 a0 = a0 + 0xfffffffffffffce0\n 24635: ra = 0x380\n 24639: ecalli 16 // 'value_transferred'\n 24641: t0 = 0x382\n 24645: jump @1581\n      : @910 [@dyn 448] (gas: 1)\n 24648: t0 = 898, jump @1581\n      : @911 [@dyn 449] (gas: 1)\n 24654: t0 = 900, jump @1557\n      : @912 [@dyn 450] (gas: 1)\n 24660: jump @925 if a0 == 0\n      : @913 (gas: 6)\n 24664: a1 = 0x20180\n 24669: i32 a1 = a1 + 0\n 24671: a0 = 0x1\n 24674: a2 = 0\n 24676: ecalli 13 // 'seal_return'\n 24678: jump @986\n      : @914 (gas: 3)\n 24681: a0 = u64 [s1 + 0x198]\n 24685: a0 = i32 [a0]\n 24687: jump @928 if a0 >u 67\n      : @915 (gas: 6)\n 24692: a1 = 0x20180\n 24697: i32 a1 = a1 + 0\n 24699: a0 = 0x1\n 24702: a2 = 0\n 24704: ecalli 13 // 'seal_return'\n 24706: jump @986\n      : @916 (gas: 4)\n 24709: a0 = s1 + 0x16e0\n 24713: ra = 0x386\n 24717: t0 = 0x5a8\n 24721: jump @1570\n      : @917 [@dyn 451] (gas: 14)\n 24724: a1 = s1 + 0x1118\n 24728: a2 = a1 + 0x500\n 24732: a0 = u64 [a2 + 0xc8]\n 24736: u64 [s1 + 0x198] = a0\n 24740: a0 = u64 [a2 + 0xd0]\n 24744: u64 [s1 + 0x190] = a0\n 24748: a0 = u64 [a2 + 0xd8]\n 24752: u64 [s1 + 0x188] = a0\n 24756: a0 = u64 [a2 + 0xe0]\n 24760: u64 [s1 + 0x180] = a0\n 24764: a0 = s1 + 0x16c0\n 24768: ra = 0x388\n 24772: t0 = 0x5ac\n 24776: jump @1585\n      : @918 [@dyn 452] (gas: 14)\n 24779: a1 = s1 + 0x1118\n 24783: a2 = a1 + 0x500\n 24787: a0 = u64 [a2 + 0xa8]\n 24791: u64 [s1 + 0x178] = a0\n 24795: a0 = u64 [a2 + 0xb0]\n 24799: u64 [s1 + 0x170] = a0\n 24803: a0 = u64 [a2 + 0xb8]\n 24807: u64 [s1 + 0x168] = a0\n 24811: a0 = u64 [a2 + 0xc0]\n 24815: u64 [s1 + 0x160] = a0\n 24819: a0 = s1 + 0x16a0\n 24823: ra = 0x38a\n 24827: t0 = 0x5b2\n 24831: jump @1585\n      : @919 [@dyn 453] (gas: 31)\n 24834: a4 = s1 + 0x1118\n 24838: a5 = a4 + 0x500\n 24842: a0 = u64 [a5 + 0x88]\n 24846: a1 = u64 [a5 + 0x90]\n 24850: a2 = u64 [a5 + 0x98]\n 24854: a3 = u64 [a5 + 0xa0]\n 24858: u64 [a5 + 0x40] = a3\n 24861: u64 [a5 + 0x38] = a2\n 24864: u64 [a5 + 0x30] = a1\n 24867: u64 [a5 + 0x28] = a0\n 24870: a4 = s1 + 0x100\n 24874: a0 = u64 [a4 + 0x60]\n 24877: u64 [a5 + 0x60] = a0\n 24880: a0 = u64 [a4 + 0x68]\n 24883: u64 [a5 + 0x58] = a0\n 24886: a0 = u64 [a4 + 0x70]\n 24889: u64 [a5 + 0x50] = a0\n 24892: a0 = u64 [a4 + 0x78]\n 24895: u64 [a5 + 0x48] = a0\n 24898: a0 = u64 [a4 + 0x80]\n 24902: u64 [a5 + 0x80] = a0\n 24906: a0 = u64 [a4 + 0x88]\n 24910: u64 [a5 + 0x78] = a0\n 24913: a0 = u64 [a4 + 0x90]\n 24917: u64 [a5 + 0x70] = a0\n 24920: a0 = s1 + 0x1680\n 24924: a1 = s1 + 0x1660\n 24928: a2 = s1 + 0x1640\n 24932: a3 = u64 [a4 + 0x98]\n 24936: u64 [a5 + 0x68] = a3\n 24939: ra = 908, jump @1367\n      : @920 [@dyn 454] (gas: 6)\n 24945: a1 = 0x20180\n 24950: i32 a1 = a1 + 0\n 24952: a0 = 0\n 24954: a2 = 0\n 24956: ecalli 13 // 'seal_return'\n 24958: jump @986\n      : @921 (gas: 1)\n 24961: jump @980 if a0 != 1158823118\n      : @922 (gas: 10)\n 24969: a0 = s1 + 0x2918\n 24973: u64 [a0 + 32] = 0\n 24976: u64 [a0 + 24] = 0\n 24979: u64 [a0 + 16] = 0\n 24982: u64 [a0 + 8] = 0\n 24985: a0 = s1 + 0x3000\n 24989: i32 a0 = a0 + 0xfffffffffffff920\n 24993: ecalli 16 // 'value_transferred'\n 24995: a3 = s1 + 0x2918\n 24999: fallthrough\n      : @923 (gas: 8)\n 25000: a0 = u64 [a3 + 0x18]\n 25003: a1 = u64 [a3 + 0x20]\n 25006: a2 = u64 [a3 + 0x10]\n 25009: a3 = u64 [a3 + 0x8]\n 25012: a1 = a1 | a2\n 25015: a0 = a0 | a3\n 25018: a0 = a0 | a1\n 25021: jump @986 if a0 == 0\n      : @924 (gas: 6)\n 25025: a1 = 0x20180\n 25030: i32 a1 = a1 + 0\n 25032: a0 = 0x1\n 25035: a2 = 0\n 25037: ecalli 13 // 'seal_return'\n 25039: jump @986\n      : @925 (gas: 1)\n 25042: t0 = 910, jump @1569\n      : @926 [@dyn 455] (gas: 1)\n 25048: jump @988 if a1 <u a0\n      : @927 (gas: 6)\n 25052: a1 = 0x20180\n 25057: i32 a1 = a1 + 0\n 25059: a0 = 0x1\n 25062: a2 = 0\n 25064: ecalli 13 // 'seal_return'\n 25066: jump @986\n      : @928 (gas: 4)\n 25069: a0 = s1 + 0x1a80\n 25073: ra = 0x390\n 25077: t0 = 0x5bc\n 25081: jump @1570\n      : @929 [@dyn 456] (gas: 7)\n 25084: a0 = s1 + 0x1918\n 25088: a0 = u64 [a0 + 0x168]\n 25092: u64 [s1 + 0x190] = a0\n 25096: a0 = s1 + 0x1a60\n 25100: ra = 0x392\n 25104: t0 = 0x5ac\n 25108: jump @1585\n      : @930 [@dyn 457] (gas: 12)\n 25111: a0 = s1 + 0x1918\n 25115: a0 = u64 [a0 + 0x148]\n 25119: u64 [s1 + 0xf0] = a0\n 25123: a0 = 0x30180\n 25128: u64 [s1 + 0x108] = a0\n 25132: i32 a0 = a0 + 0\n 25134: u64 [s1 + 0x100] = a0\n 25138: ra = 0x394\n 25142: ecalli 4 // 'caller'\n 25144: a2 = u64 [s1 + 0x108]\n 25148: t0 = 0x396\n 25152: jump @1510\n      : @931 [@dyn 458] (gas: 2)\n 25155: a2 = u64 [s1 + 0x108]\n 25159: t0 = 918, jump @1510\n      : @932 [@dyn 459] (gas: 8)\n 25165: u64 [a2 + 320] = 0\n 25169: a4 = a2 + 0x100\n 25173: u64 [a4 + 0x38] = a1\n 25176: u64 [a4 + 0x30] = a0\n 25179: a1 = s1 + 0x1a40\n 25183: u64 [a4 + 0x28] = a3\n 25186: a0 = 0\n 25188: ra = 920, jump @24\n      : @933 [@dyn 460] (gas: 3)\n 25194: t0 = 0x39a\n 25198: a1 = s1 + 0x1918\n 25202: fallthrough\n      : @934 [@dyn 461] (gas: 8)\n 25203: u64 [a1 + 288] = 0\n 25207: u64 [a1 + 280] = 0\n 25211: u64 [a1 + 264] = 0x1\n 25216: a2 = a1\n 25218: a0 = 0x20\n 25221: a1 = s1 + 0x1a20\n 25225: u64 [a2 + 272] = 0\n 25229: ra = 924, jump @24\n      : @935 [@dyn 462] (gas: 5)\n 25235: a0 = 0x20170\n 25240: u64 [s1 + 0x118] = a0\n 25244: a0 = i32 [0x20170]\n 25249: a1 = 0x3f\n 25252: jump @937 if a1 <u a0\n      : @936 (gas: 4)\n 25255: a1 = u64 [s1 + 0x118]\n 25259: u32 [a1 + 0] = 0x40\n 25262: t0 = 0x39e\n 25266: jump @1575\n      : @937 (gas: 1)\n 25269: t0 = 926, jump @1575\n      : @938 [@dyn 463] (gas: 10)\n 25275: a0 = 0x20180\n 25280: i32 a0 = a0 + 0\n 25282: i32 a2 = a2 + 0\n 25284: a1 = 0x40\n 25287: u64 [s1 + 0x110] = a0\n 25291: ra = 0x3a0\n 25295: ecalli 8 // 'hash_keccak_256'\n 25297: a3 = u64 [s1 + 0x198]\n 25301: t0 = 0x3a2\n 25305: jump @1528\n      : @939 [@dyn 464] (gas: 2)\n 25308: a3 = u64 [s1 + 0x198]\n 25312: t0 = 930, jump @1528\n      : @940 [@dyn 465] (gas: 14)\n 25318: u64 [s1 + 0x198] = a0\n 25322: sp = a0\n 25324: a0 = u64 [s1 + 0x190]\n 25328: a0 = a0 << 0x20\n 25331: a2 = a0 >> 0x20\n 25334: a0 = s1 + 0x1918\n 25338: u64 [a0 + 256] = 0\n 25342: u64 [a0 + 248] = 0\n 25346: u64 [a0 + 240] = 0\n 25350: a1 = s1 + 0x1a00\n 25354: u64 [s1 + 0xf8] = a2\n 25358: u64 [a0 + 0xe8] = a2\n 25362: a0 = 0\n 25364: ra = 932, jump @24\n      : @941 [@dyn 466] (gas: 13)\n 25370: a0 = u64 [s1 + 0x170]\n 25374: a1 = s1 + 0x1918\n 25378: u64 [a1 + 0xe0] = a0\n 25382: a0 = u64 [s1 + 0x178]\n 25386: u64 [a1 + 0xd8] = a0\n 25390: a0 = u64 [s1 + 0x180]\n 25394: u64 [a1 + 0xd0] = a0\n 25398: a3 = a1\n 25400: a0 = 0x20\n 25403: a1 = s1 + 0x19e0\n 25407: a2 = u64 [s1 + 0x188]\n 25411: u64 [a3 + 0xc8] = a2\n 25415: ra = 934, jump @24\n      : @942 [@dyn 467] (gas: 3)\n 25421: a0 = u64 [s1 + 0x118]\n 25425: a0 = i32 [a0]\n 25427: jump @944 if a0 >u 63\n      : @943 (gas: 4)\n 25431: a0 = u64 [s1 + 0x118]\n 25435: u32 [a0 + 0] = 0x40\n 25438: t0 = 0x3a8\n 25442: jump @1519\n      : @944 (gas: 1)\n 25445: t0 = 936, jump @1519\n      : @945 [@dyn 468] (gas: 5)\n 25451: ra = 0x3aa\n 25455: ecalli 8 // 'hash_keccak_256'\n 25457: a3 = u64 [s1 + 0x190]\n 25461: t0 = 0x3ac\n 25465: jump @1541\n      : @946 [@dyn 469] (gas: 2)\n 25468: a3 = u64 [s1 + 0x190]\n 25472: t0 = 940, jump @1541\n      : @947 [@dyn 470] (gas: 6)\n 25478: a0 = u64 [s1 + 0x100]\n 25482: ra = 0x3ae\n 25486: ecalli 4 // 'caller'\n 25488: a2 = u64 [s1 + 0x108]\n 25492: t0 = 0x3b0\n 25496: jump @1568\n      : @948 [@dyn 471] (gas: 2)\n 25499: a2 = u64 [s1 + 0x108]\n 25503: t0 = 944, jump @1568\n      : @949 [@dyn 472] (gas: 10)\n 25509: u64 [s1 + 0x190] = a1\n 25513: a0 = a0 >> 0x20\n 25516: a1 = reverse a2\n 25518: u64 [s1 + 0x188] = a1\n 25522: a1 = a1 << 0x20\n 25525: a0 = a0 | a1\n 25528: u64 [s1 + 0x180] = a0\n 25532: a0 = s1 + 0x19c0\n 25536: a1 = u64 [s1 + 0x198]\n 25540: ra = 946, jump @26\n      : @950 [@dyn 473] (gas: 3)\n 25546: t0 = 0x3b4\n 25550: a2 = s1 + 0x1918\n 25554: fallthrough\n      : @951 [@dyn 474] (gas: 19)\n 25555: a0 = u64 [a2 + 0xb0]\n 25559: a1 = u32 [a2 + 0xac]\n 25563: a2 = u64 [a2 + 0xb8]\n 25567: a3 = a0 << 0x20\n 25570: a1 = a1 | a3\n 25573: a3 = a2 << 0x20\n 25576: a0 = a0 >> 0x20\n 25579: a0 = a0 | a3\n 25582: a4 = s1 + 0x100\n 25586: a3 = u64 [a4 + 0x80]\n 25590: a0 = a0 ^ a3\n 25593: a3 = u64 [a4 + 0x90]\n 25597: a1 = a1 ^ a3\n 25600: a3 = u64 [a4 + 0x88]\n 25604: a2 = a2 ^ a3\n 25607: a2 = a2 >> 0x20\n 25610: a1 = a1 | a2\n 25613: a0 = a0 | a1\n 25616: jump @1032 if a0 != 0\n      : @952 (gas: 4)\n 25620: a0 = s1 + 0x3000\n 25624: i32 a0 = a0 + 0xfffffffffffffc80\n 25628: ecalli 9 // 'now'\n 25630: fallthrough\n      : @953 (gas: 51)\n 25631: a0 = s1 + 0x2918\n 25635: t0 = u64 [a0 + 0x380]\n 25639: a4 = u64 [a0 + 0x378]\n 25643: u64 [s1 + 0x158] = a4\n 25647: t2 = u64 [a0 + 0x370]\n 25651: a3 = u64 [a0 + 0x368]\n 25655: u64 [s1 + 0x140] = a3\n 25659: a0 = clz t0\n 25661: a1 = clz a4\n 25663: a2 = a1 + 0x40\n 25666: a2 = a0 if t0 != 0\n 25669: a0 = clz t2\n 25671: a1 = clz a3\n 25673: a1 = a1 + 0x40\n 25676: a1 = a0 if t2 != 0\n 25679: a0 = a1 + 0x80\n 25683: a3 = a4 | t0\n 25686: a2 = a0 if a3 == 0\n 25689: a5 = a0 <u a1\n 25692: a5 = 0 if a3 != 0\n 25694: a4 = a5 >u 0\n 25696: a0 = a2 <u 0xf0\n 25700: a3 = a0 ^ 0x1\n 25703: a4 = a3 if a5 == 0\n 25706: a0 = a4 <u 0x1\n 25709: ra = a0 + 0xffffffffffffffff\n 25712: t1 = -a4\n 25714: a5 = -a5\n 25716: a3 = a5 - a3\n 25719: a2 = 0xef - a2\n 25723: a5 = t1 >u 0\n 25725: a0 = ra >u 0\n 25727: a0 = a5 if ra == 0\n 25730: a5 = a2 <u 0x100\n 25734: a5 = a5 ^ 0x1\n 25737: a1 = a3 >u 0\n 25739: a5 = a1 if a3 != 0\n 25742: a5 = a0 if a4 != 0\n 25745: u64 [s1 + 0x138] = t2\n 25749: u64 [s1 + 0x150] = t0\n 25753: a0 = t2 | t0\n 25756: a4 = u64 [s1 + 0x140]\n 25760: a1 = u64 [s1 + 0x158]\n 25764: a1 = a1 | a4\n 25767: a0 = a0 | a1\n 25770: a0 = a0 <u 0x1\n 25773: a0 = a0 | a5\n 25776: a1 = a4\n 25778: a1 = 0 if a0 != 0\n 25780: u64 [s1 + 0x198] = a1\n 25784: jump @1035 if a0 != 0\n      : @954 (gas: 1)\n 25788: t0 = 950, jump @1587\n      : @955 [@dyn 475] (gas: 1)\n 25794: jump @1035 if a0 == 0\n      : @956 (gas: 1)\n 25798: t0 = 952, jump @1521\n      : @957 [@dyn 476] (gas: 1)\n 25804: ra = 954, jump @1592\n      : @958 [@dyn 477] (gas: 1)\n 25810: t0 = 956, jump @1579\n      : @959 [@dyn 478] (gas: 1)\n 25816: ra = 958, jump @1597\n      : @960 [@dyn 479] (gas: 1)\n 25822: t0 = 960, jump @1564\n      : @961 [@dyn 480] (gas: 1)\n 25828: ra = 962, jump @1597\n      : @962 [@dyn 481] (gas: 8)\n 25834: u64 [s1 + 0x120] = a0\n 25838: u64 [s1 + 0xe8] = a1\n 25842: a2 = u64 [s1 + 0x160]\n 25846: a0 = a2 <u 0x80\n 25850: u64 [s1 + 0xe0] = a0\n 25854: a0 = u64 [s1 + 0x140]\n 25858: a1 = u64 [s1 + 0x138]\n 25862: ra = 964, jump @1597\n      : @963 [@dyn 482] (gas: 1)\n 25868: t0 = 966, jump @1590\n      : @964 [@dyn 483] (gas: 4)\n 25874: a3 = u64 [s1 + 0xe0]\n 25878: a0 = 0 if a3 == 0\n 25880: u64 [a4 + 0x78] = a0\n 25883: jump @1033 if a1 == 0\n      : @965 (gas: 7)\n 25887: a2 = a3\n 25889: a0 = u64 [s1 + 0x168]\n 25893: a1 = u64 [s1 + 0x128]\n 25897: a0 = a0 | a1\n 25900: a5 = a3\n 25902: a1 = u64 [s1 + 0xe8]\n 25906: t0 = 968, jump @1516\n      : @966 [@dyn 484] (gas: 1)\n 25912: ra = 970, jump @1592\n      : @967 [@dyn 485] (gas: 1)\n 25918: t0 = 972, jump @1578\n      : @968 [@dyn 486] (gas: 1)\n 25924: ra = 974, jump @1592\n      : @969 [@dyn 487] (gas: 2)\n 25930: u64 [s1 + 0xe8] = a0\n 25934: t0 = 976, jump @1563\n      : @970 [@dyn 488] (gas: 1)\n 25940: ra = 978, jump @1597\n      : @971 [@dyn 489] (gas: 1)\n 25946: t0 = 980, jump @1537\n      : @972 [@dyn 490] (gas: 2)\n 25952: a1 = u64 [s1 + 0xe8]\n 25956: t0 = 982, jump @1548\n      : @973 [@dyn 491] (gas: 1)\n 25962: ra = 984, jump @1592\n      : @974 [@dyn 492] (gas: 1)\n 25968: t0 = 986, jump @1527\n      : @975 [@dyn 493] (gas: 1)\n 25974: t0 = 988, jump @1538\n      : @976 [@dyn 494] (gas: 5)\n 25980: t0 = ra <u a2\n 25983: a4 = u64 [s1 + 0x128]\n 25987: a5 = a4 <u a3\n 25990: a5 = t0 if t1 != 0\n 25993: t0 = 990, jump @1539\n      : @977 [@dyn 495] (gas: 20)\n 25999: t0 = a0 | a1\n 26002: a1 = a4 << 0x1\n 26005: a4 = u64 [s1 + 0x170]\n 26009: t1 = a4 >> 0x3f\n 26012: t1 = a1 | t1\n 26015: a1 = a4 << 0x1\n 26018: a4 = u64 [s1 + 0x178]\n 26022: t2 = a4 >> 0x3f\n 26025: a1 = a1 | t2\n 26028: a4 = a4 << 0x1\n 26031: a0 = u64 [s1 + 0x158]\n 26035: a4 = a4 | a0\n 26038: u64 [s1 + 0x178] = a4\n 26042: a0 = u64 [s1 + 0x150]\n 26046: a1 = a1 | a0\n 26049: u64 [s1 + 0x170] = a1\n 26053: a1 = a0 | t1\n 26056: u64 [s1 + 0x160] = a1\n 26060: a0 = a0 | t0\n 26063: t0 = 992, jump @1514\n      : @978 [@dyn 496] (gas: 18)\n 26069: t0 = a4 <u a2\n 26072: a2 = a4 - a2\n 26075: a4 = a3 <u 0x1\n 26078: a5 = a5 - a4\n 26081: a4 = u64 [a0 + 0x88]\n 26085: a4 = a4 - t0\n 26088: a3 = a3 + 0xffffffffffffffff\n 26091: u64 [a0 + 0x90] = a5\n 26095: u64 [a0 + 0x88] = a4\n 26099: t0 = a5 | a4\n 26102: u64 [a0 + 0x98] = a3\n 26106: a4 = a3 | a2\n 26109: a3 = a4 | t0\n 26112: a4 = ra & 0x1\n 26115: u64 [a0 + 0x58] = a4\n 26118: u64 [a0 + 0x80] = a2\n 26122: u64 [s1 + 336] = 0\n 26126: jump @975 if a3 != 0\n      : @979 (gas: 1)\n 26130: jump @1034\n      : @980 (gas: 1)\n 26133: jump @984 if a0 != 1229702701\n      : @981 (gas: 10)\n 26140: a0 = s1 + 0x2918\n 26144: u64 [a0 + 384] = 0\n 26148: u64 [a0 + 376] = 0\n 26152: u64 [a0 + 368] = 0\n 26156: u64 [a0 + 360] = 0\n 26160: a0 = s1 + 0x3000\n 26164: i32 a0 = a0 + 0xfffffffffffffa80\n 26168: ecalli 16 // 'value_transferred'\n 26170: a3 = s1 + 0x2918\n 26174: fallthrough\n      : @982 (gas: 9)\n 26175: a4 = a3 + 0x100\n 26179: a0 = u64 [a4 + 0x78]\n 26182: a1 = u64 [a4 + 0x80]\n 26186: a2 = u64 [a4 + 0x70]\n 26189: a3 = u64 [a4 + 0x68]\n 26192: a1 = a1 | a2\n 26195: a0 = a0 | a3\n 26198: a0 = a0 | a1\n 26201: jump @1058 if a0 == 0\n      : @983 (gas: 6)\n 26205: a1 = 0x20180\n 26210: i32 a1 = a1 + 0\n 26212: a0 = 0x1\n 26215: a2 = 0\n 26217: ecalli 13 // 'seal_return'\n 26219: jump @986\n      : @984 (gas: 6)\n 26221: a1 = 0x20180\n 26226: i32 a1 = a1 + 0\n 26228: a0 = 0x1\n 26231: a2 = 0\n 26233: ecalli 13 // 'seal_return'\n 26235: jump @986\n      : @985 (gas: 5)\n 26237: i32 a1 = a1 + 0\n 26239: a0 = 0x1\n 26242: a2 = 0\n 26244: ecalli 13 // 'seal_return'\n 26246: fallthrough\n      : @986 (gas: 3)\n 26247: a0 = u64 [s1 + 0x198]\n 26251: a0 = i32 [a0]\n 26253: jump @1060 if a0 >u 99\n      : @987 (gas: 2)\n 26258: a1 = 0x20180\n 26263: jump @985\n      : @988 (gas: 4)\n 26265: a0 = s1 + 0x1d20\n 26269: ra = 0x3e2\n 26273: t0 = 0x5bc\n 26277: jump @1570\n      : @989 [@dyn 497] (gas: 12)\n 26280: a0 = s1 + 0x1918\n 26284: a0 = u64 [a0 + 0x408]\n 26288: u64 [s1 + 0x178] = a0\n 26292: a0 = 0x30180\n 26297: u64 [s1 + 0x188] = a0\n 26301: i32 a0 = a0 + 0\n 26303: u64 [s1 + 0x180] = a0\n 26307: ra = 0x3e4\n 26311: ecalli 4 // 'caller'\n 26313: a2 = u64 [s1 + 0x188]\n 26317: t0 = 0x3e6\n 26321: jump @1510\n      : @990 [@dyn 498] (gas: 2)\n 26324: a2 = u64 [s1 + 0x188]\n 26328: t0 = 998, jump @1510\n      : @991 [@dyn 499] (gas: 8)\n 26334: u64 [a2 + 1024] = 0\n 26338: a4 = a2 + 0x300\n 26342: u64 [a4 + 0xf8] = a1\n 26346: u64 [a4 + 0xf0] = a0\n 26350: a1 = s1 + 0x1d00\n 26354: u64 [a4 + 0xe8] = a3\n 26358: a0 = 0\n 26360: ra = 1000, jump @24\n      : @992 [@dyn 500] (gas: 3)\n 26366: t0 = 0x3ea\n 26370: a1 = s1 + 0x1918\n 26374: fallthrough\n      : @993 [@dyn 501] (gas: 8)\n 26375: u64 [a1 + 992] = 0\n 26379: u64 [a1 + 984] = 0\n 26383: u64 [a1 + 968] = 0x1\n 26388: a2 = a1\n 26390: a0 = 0x20\n 26393: a1 = s1 + 0x1ce0\n 26397: u64 [a2 + 976] = 0\n 26401: ra = 1004, jump @24\n      : @994 [@dyn 502] (gas: 4)\n 26407: a0 = 0x20170\n 26412: u64 [s1 + 0x198] = a0\n 26416: a0 = i32 [0x20170]\n 26421: jump @996 if a0 >u 63\n      : @995 (gas: 1)\n 26425: t0 = 1006, jump @1583\n      : @996 [@dyn 503] (gas: 39)\n 26431: a0 = sp + 0xffffffffffffffe0\n 26434: a2 = a0 & 0xffffffffffffffe0\n 26437: u64 [s1 + 0x170] = a2\n 26441: sp = a2\n 26443: a0 = 0x20180\n 26448: i32 a0 = a0 + 0\n 26450: i32 a2 = a2 + 0\n 26452: a1 = 0x40\n 26455: u64 [s1 + 0x190] = a0\n 26459: ecalli 8 // 'hash_keccak_256'\n 26461: a3 = u64 [s1 + 0x170]\n 26465: a0 = u64 [a3 + 0x18]\n 26468: a1 = u64 [a3 + 0x10]\n 26471: a2 = u64 [a3 + 0x8]\n 26474: a3 = u64 [a3]\n 26476: a0 = reverse a0\n 26478: u64 [s1 + 0x168] = a0\n 26482: a0 = reverse a1\n 26484: u64 [s1 + 0x160] = a0\n 26488: a0 = reverse a2\n 26490: u64 [s1 + 0x158] = a0\n 26494: a0 = reverse a3\n 26496: u64 [s1 + 0x150] = a0\n 26500: a0 = sp + 0xffffffffffffffe0\n 26503: a0 = a0 & 0xffffffffffffffe0\n 26506: u64 [s1 + 0x170] = a0\n 26510: sp = a0\n 26512: a0 = u64 [s1 + 0x178]\n 26516: a0 = a0 << 0x20\n 26519: a2 = a0 >> 0x20\n 26522: a0 = s1 + 0x1918\n 26526: u64 [a0 + 960] = 0\n 26530: u64 [a0 + 952] = 0\n 26534: u64 [a0 + 944] = 0\n 26538: a1 = s1 + 0x1cc0\n 26542: u64 [s1 + 0x178] = a2\n 26546: u64 [a0 + 0x3a8] = a2\n 26550: a0 = 0\n 26552: ra = 1008, jump @24\n      : @997 [@dyn 504] (gas: 14)\n 26558: a0 = u64 [s1 + 0x150]\n 26562: a1 = s1 + 0x1918\n 26566: a2 = a1 + 0x300\n 26570: u64 [a2 + 0xa0] = a0\n 26574: a0 = u64 [s1 + 0x158]\n 26578: u64 [a2 + 0x98] = a0\n 26582: a0 = u64 [s1 + 0x160]\n 26586: u64 [a2 + 0x90] = a0\n 26590: a3 = a1\n 26592: a0 = 0x20\n 26595: a1 = s1 + 0x1ca0\n 26599: a2 = u64 [s1 + 0x168]\n 26603: u64 [a3 + 0x388] = a2\n 26607: ra = 1010, jump @24\n      : @998 [@dyn 505] (gas: 1)\n 26613: t0 = 1012, jump @1551\n      : @999 [@dyn 506] (gas: 1)\n 26619: jump @1001 if a1 <u a0\n      : @1000 (gas: 1)\n 26622: t0 = 1014, jump @1576\n      : @1001 [@dyn 507] (gas: 4)\n 26628: a0 = sp + 0xffffffffffffffe0\n 26631: a0 = a0 & 0xffffffffffffffe0\n 26634: u64 [s1 + 0x168] = a0\n 26638: t0 = 1016, jump @1513\n      : @1002 [@dyn 508] (gas: 3)\n 26644: ra = 0x3fa\n 26648: ecalli 8 // 'hash_keccak_256'\n 26650: fallthrough\n      : @1003 [@dyn 509] (gas: 6)\n 26651: a3 = u64 [s1 + 0x168]\n 26655: a0 = u64 [a3 + 0x18]\n 26658: a1 = u64 [a3 + 0x10]\n 26661: a2 = u64 [a3 + 0x8]\n 26664: a3 = u64 [a3]\n 26666: t0 = 1020, jump @1526\n      : @1004 [@dyn 510] (gas: 11)\n 26672: a4 = u64 [s1 + 0x170]\n 26676: u64 [a4 + 0x18] = a3\n 26679: u64 [a4 + 0x10] = a2\n 26682: u64 [a4 + 0x8] = a1\n 26685: u64 [a4] = a0\n 26687: a0 = u64 [s1 + 0x180]\n 26691: ra = 0x3fe\n 26695: ecalli 4 // 'caller'\n 26697: a2 = u64 [s1 + 0x188]\n 26701: t0 = 0x400\n 26705: jump @1568\n      : @1005 [@dyn 511] (gas: 2)\n 26708: a2 = u64 [s1 + 0x188]\n 26712: t0 = 1024, jump @1568\n      : @1006 [@dyn 512] (gas: 10)\n 26718: u64 [s1 + 0x168] = a1\n 26722: a0 = a0 >> 0x20\n 26725: a1 = reverse a2\n 26727: u64 [s1 + 0x160] = a1\n 26731: a1 = a1 << 0x20\n 26734: a0 = a0 | a1\n 26737: u64 [s1 + 0x158] = a0\n 26741: a0 = s1 + 0x1c80\n 26745: a1 = u64 [s1 + 0x170]\n 26749: ra = 1026, jump @26\n      : @1007 [@dyn 513] (gas: 2)\n 26755: a2 = s1 + 0x1918\n 26759: fallthrough\n      : @1008 (gas: 19)\n 26760: a0 = u64 [a2 + 0x370]\n 26764: a1 = u32 [a2 + 0x36c]\n 26768: a2 = u64 [a2 + 0x378]\n 26772: a3 = a0 << 0x20\n 26775: a1 = a1 | a3\n 26778: a3 = a2 << 0x20\n 26781: a0 = a0 >> 0x20\n 26784: a0 = a0 | a3\n 26787: a4 = s1 + 0x100\n 26791: a3 = u64 [a4 + 0x58]\n 26794: a0 = a0 ^ a3\n 26797: a3 = u64 [a4 + 0x68]\n 26800: a1 = a1 ^ a3\n 26803: a3 = u64 [a4 + 0x60]\n 26806: a2 = a2 ^ a3\n 26809: a2 = a2 >> 0x20\n 26812: a1 = a1 | a2\n 26815: a0 = a0 | a1\n 26818: jump @1091 if a0 != 0\n      : @1009 (gas: 6)\n 26822: a0 = u64 [s1 + 0x180]\n 26826: ra = 0x404\n 26830: ecalli 4 // 'caller'\n 26832: a2 = u64 [s1 + 0x188]\n 26836: t0 = 0x406\n 26840: jump @1510\n      : @1010 [@dyn 514] (gas: 2)\n 26843: a2 = u64 [s1 + 0x188]\n 26847: t0 = 1030, jump @1510\n      : @1011 [@dyn 515] (gas: 8)\n 26853: u64 [a2 + 832] = 0\n 26857: a4 = a2 + 0x300\n 26861: u64 [a4 + 0x38] = a1\n 26864: u64 [a4 + 0x30] = a0\n 26867: a1 = s1 + 0x1c40\n 26871: u64 [a4 + 0x28] = a3\n 26874: a0 = 0\n 26876: ra = 1032, jump @24\n      : @1012 [@dyn 516] (gas: 3)\n 26882: t0 = 0x40a\n 26886: a1 = s1 + 0x1918\n 26890: fallthrough\n      : @1013 [@dyn 517] (gas: 8)\n 26891: u64 [a1 + 800] = 0\n 26895: u64 [a1 + 792] = 0\n 26899: u64 [a1 + 776] = 0x1\n 26904: a2 = a1\n 26906: a0 = 0x20\n 26909: a1 = s1 + 0x1c20\n 26913: u64 [a2 + 784] = 0\n 26917: ra = 1036, jump @24\n      : @1014 [@dyn 518] (gas: 1)\n 26923: t0 = 1038, jump @1551\n      : @1015 [@dyn 519] (gas: 1)\n 26929: jump @1017 if a1 <u a0\n      : @1016 (gas: 1)\n 26932: t0 = 1040, jump @1583\n      : @1017 [@dyn 520] (gas: 4)\n 26938: a0 = sp + 0xffffffffffffffe0\n 26941: a0 = a0 & 0xffffffffffffffe0\n 26944: u64 [s1 + 0x170] = a0\n 26948: t0 = 1042, jump @1513\n      : @1018 [@dyn 521] (gas: 4)\n 26954: ra = 0x414\n 26958: ecalli 8 // 'hash_keccak_256'\n 26960: t0 = 0x416\n 26964: jump @1518\n      : @1019 [@dyn 522] (gas: 1)\n 26967: t0 = 1046, jump @1518\n      : @1020 [@dyn 523] (gas: 3)\n 26973: t0 = 0x418\n 26977: a2 = s1 + 0x1918\n 26981: fallthrough\n      : @1021 [@dyn 524] (gas: 8)\n 26982: u64 [a2 + 768] = 0\n 26986: u64 [a2 + 760] = 0\n 26990: u64 [a2 + 752] = 0\n 26994: a1 = s1 + 0x1c00\n 26998: a0 = u64 [s1 + 0x178]\n 27002: u64 [a2 + 0x2e8] = a0\n 27006: a0 = 0\n 27008: ra = 1050, jump @24\n      : @1022 [@dyn 525] (gas: 4)\n 27014: a0 = u64 [s1 + 0x158]\n 27018: a1 = s1 + 0x1918\n 27022: a2 = a1 + 0x200\n 27026: t0 = 1052, jump @1584\n      : @1023 [@dyn 526] (gas: 4)\n 27032: a1 = s1 + 0x1be0\n 27036: a2 = u64 [s1 + 0x170]\n 27040: u64 [a3 + 0x2c8] = a2\n 27044: ra = 1054, jump @24\n      : @1024 [@dyn 527] (gas: 1)\n 27050: t0 = 1056, jump @1551\n      : @1025 [@dyn 528] (gas: 1)\n 27056: jump @1027 if a1 <u a0\n      : @1026 (gas: 1)\n 27059: t0 = 1058, jump @1576\n      : @1027 [@dyn 529] (gas: 4)\n 27065: a0 = sp + 0xffffffffffffffe0\n 27068: a0 = a0 & 0xffffffffffffffe0\n 27071: u64 [s1 + 0x170] = a0\n 27075: t0 = 1060, jump @1513\n      : @1028 [@dyn 530] (gas: 28)\n 27081: ecalli 8 // 'hash_keccak_256'\n 27083: a3 = u64 [s1 + 0x170]\n 27087: a0 = u64 [a3]\n 27089: a1 = u64 [a3 + 0x8]\n 27092: a2 = u64 [a3 + 0x10]\n 27095: a3 = u64 [a3 + 0x18]\n 27098: t0 = reverse a0\n 27100: a0 = reverse a1\n 27102: a2 = reverse a2\n 27104: a3 = reverse a3\n 27106: a4 = sp + 0xffffffffffffffe0\n 27109: a1 = a4 & 0xffffffffffffffe0\n 27112: sp = a1\n 27114: a4 = a3 + 0x2\n 27117: a3 = a4 <u a3\n 27120: a5 = a2 + a3\n 27123: a2 = a5 <u a2\n 27126: a2 = a3 if a3 == 0\n 27129: a2 = a2 + a0\n 27132: a0 = a2 <u a0\n 27135: a0 = a0 + t0\n 27138: u64 [a1 + 0x8] = a5\n 27141: u64 [a1] = a4\n 27143: u64 [a1 + 0x10] = a2\n 27146: u64 [a1 + 0x18] = a0\n 27149: a0 = s1 + 0x1bc0\n 27153: u64 [s1 + 0x168] = a1\n 27157: ra = 1062, jump @26\n      : @1029 [@dyn 531] (gas: 4)\n 27163: a0 = s1 + 0x1918\n 27167: a0 = u64 [a0 + 0x2b0]\n 27171: a1 = a0 & 0xff\n 27175: jump @1096 if a1 == 0\n      : @1030 (gas: 3)\n 27179: t0 = 0x428\n 27183: a2 = s1 + 0x1918\n 27187: fallthrough\n      : @1031 [@dyn 532] (gas: 9)\n 27188: u64 [a2 + 664] = 0\n 27192: u64 [a2 + 656] = 0\n 27196: a0 = 0xc1c184c800000000\n 27206: u64 [a2 + 0x2a0] = a0\n 27210: a1 = s1 + 0x1ba0\n 27214: u64 [a2 + 648] = 0\n 27218: a0 = 0\n 27220: ra = 0x47e\n 27224: jump @24\n      : @1032 (gas: 10)\n 27227: a2 = s1 + 0x1918\n 27231: u64 [a2 + 152] = 0\n 27235: u64 [a2 + 144] = 0\n 27239: a0 = 0x6f1cf7db00000000\n 27249: u64 [a2 + 0xa0] = a0\n 27253: a1 = s1 + 0x19a0\n 27257: u64 [a2 + 136] = 0\n 27261: a0 = 0\n 27263: ra = 0x5a4\n 27267: jump @24\n      : @1033 (gas: 2)\n 27270: u64 [s1 + 344] = 0\n 27274: fallthrough\n      : @1034 (gas: 7)\n 27275: a2 = s1 + 0x100\n 27279: a0 = u64 [a2 + 0x78]\n 27282: a0 = a0 << 0x1\n 27285: a1 = u64 [a2 + 0x58]\n 27288: a0 = a0 | a1\n 27291: u64 [a2 + 0x98] = a0\n 27295: fallthrough\n      : @1035 (gas: 3)\n 27296: a0 = u64 [s1 + 0xf0]\n 27300: a1 = u64 [s1 + 0x198]\n 27304: jump @1113 if a0 != a1\n      : @1036 (gas: 6)\n 27308: a0 = u64 [s1 + 0x100]\n 27312: ra = 0x42a\n 27316: ecalli 4 // 'caller'\n 27318: a2 = u64 [s1 + 0x108]\n 27322: t0 = 0x42c\n 27326: jump @1510\n      : @1037 [@dyn 533] (gas: 2)\n 27329: a2 = u64 [s1 + 0x108]\n 27333: t0 = 1068, jump @1510\n      : @1038 [@dyn 534] (gas: 7)\n 27339: u64 [a2 + 96] = 0\n 27342: u64 [a2 + 0x58] = a1\n 27345: u64 [a2 + 0x50] = a0\n 27348: a1 = s1 + 0x1960\n 27352: u64 [a2 + 0x48] = a3\n 27355: a0 = 0\n 27357: ra = 1070, jump @24\n      : @1039 [@dyn 535] (gas: 3)\n 27363: t0 = 0x430\n 27367: a1 = s1 + 0x1918\n 27371: fallthrough\n      : @1040 [@dyn 536] (gas: 8)\n 27372: u64 [a1 + 64] = 0\n 27375: u64 [a1 + 56] = 0\n 27378: u64 [a1 + 40] = 0x1\n 27382: a2 = a1\n 27384: a0 = 0x20\n 27387: a1 = s1 + 0x1940\n 27391: u64 [a2 + 48] = 0\n 27394: ra = 1074, jump @24\n      : @1041 [@dyn 537] (gas: 3)\n 27400: a0 = u64 [s1 + 0x118]\n 27404: a0 = i32 [a0]\n 27406: jump @1043 if a0 >u 63\n      : @1042 (gas: 4)\n 27410: a1 = u64 [s1 + 0x118]\n 27414: u32 [a1 + 0] = 0x40\n 27417: t0 = 0x434\n 27421: jump @1519\n      : @1043 (gas: 1)\n 27424: t0 = 1076, jump @1519\n      : @1044 [@dyn 538] (gas: 4)\n 27430: ra = 0x436\n 27434: ecalli 8 // 'hash_keccak_256'\n 27436: t0 = 0x438\n 27440: jump @1530\n      : @1045 [@dyn 539] (gas: 1)\n 27443: t0 = 1080, jump @1530\n      : @1046 [@dyn 540] (gas: 3)\n 27449: t0 = 0x43a\n 27453: a2 = s1 + 0x1918\n 27457: fallthrough\n      : @1047 [@dyn 541] (gas: 8)\n 27458: u64 [a2 + 32] = 0\n 27461: u64 [a2 + 24] = 0\n 27464: u64 [a2 + 16] = 0\n 27467: a1 = s1 + 0x1920\n 27471: a0 = u64 [s1 + 0xf8]\n 27475: u64 [a2 + 0x8] = a0\n 27478: a0 = 0\n 27480: ra = 1084, jump @24\n      : @1048 [@dyn 542] (gas: 13)\n 27486: a0 = u64 [s1 + 0x178]\n 27490: a1 = s1 + 0x1918\n 27494: u64 [a1] = a0\n 27496: a0 = u64 [s1 + 0x180]\n 27500: u64 [a1 + 0xfffffffffffffff8] = a0\n 27503: a0 = u64 [s1 + 0x188]\n 27507: u64 [a1 + 0xfffffffffffffff0] = a0\n 27510: a3 = a1\n 27512: a0 = 0x20\n 27515: a1 = s1 + 0x1900\n 27519: a2 = u64 [s1 + 0x190]\n 27523: u64 [a3 + 0xffffffffffffffe8] = a2\n 27526: ra = 1086, jump @24\n      : @1049 [@dyn 543] (gas: 3)\n 27532: a0 = u64 [s1 + 0x118]\n 27536: a0 = i32 [a0]\n 27538: jump @1051 if a0 >u 63\n      : @1050 (gas: 4)\n 27542: a0 = u64 [s1 + 0x118]\n 27546: u32 [a0 + 0] = 0x40\n 27549: t0 = 0x440\n 27553: jump @1519\n      : @1051 (gas: 1)\n 27556: t0 = 1088, jump @1519\n      : @1052 [@dyn 544] (gas: 3)\n 27562: ra = 0x442\n 27566: ecalli 8 // 'hash_keccak_256'\n 27568: fallthrough\n      : @1053 [@dyn 545] (gas: 6)\n 27569: a3 = u64 [s1 + 0x190]\n 27573: a0 = u64 [a3]\n 27575: a1 = u64 [a3 + 0x8]\n 27578: a2 = u64 [a3 + 0x10]\n 27581: a3 = u64 [a3 + 0x18]\n 27584: t0 = 1092, jump @1526\n      : @1054 [@dyn 546] (gas: 17)\n 27590: a4 = a3 + 0x2\n 27593: a3 = a4 <u a3\n 27596: a5 = a2 + a3\n 27599: a2 = a5 <u a2\n 27602: a2 = a3 if a3 == 0\n 27605: a2 = a2 + a1\n 27608: a1 = a2 <u a1\n 27611: a0 = a0 + a1\n 27614: a1 = s1 + 0x2918\n 27618: a3 = a1 + 0x300\n 27622: u64 [a3 + 0x88] = a4\n 27626: u64 [a3 + 0x90] = a5\n 27630: u64 [a3 + 0x98] = a2\n 27634: u64 [a3 + 0xa0] = a0\n 27638: a0 = s1 + 0x18e0\n 27642: a1 = s1 + 0x2ca0\n 27646: ra = 1094, jump @26\n      : @1055 [@dyn 547] (gas: 3)\n 27652: a0 = s1 + 0x1118\n 27656: a0 = u8 [a0 + 0x7d0]\n 27660: jump @1114 if a0 == 0\n      : @1056 (gas: 3)\n 27664: t0 = 0x448\n 27668: a2 = s1 + 0x1118\n 27672: fallthrough\n      : @1057 [@dyn 548] (gas: 9)\n 27673: u64 [a2 + 1976] = 0\n 27677: u64 [a2 + 1968] = 0\n 27681: a0 = 0xa7a9536d00000000\n 27691: u64 [a2 + 0x7c0] = a0\n 27695: a1 = s1 + 0x18c0\n 27699: u64 [a2 + 1960] = 0\n 27703: a0 = 0\n 27705: ra = 0x5a4\n 27709: jump @24\n      : @1058 (gas: 3)\n 27712: a0 = u64 [s1 + 0x198]\n 27716: a0 = i32 [a0]\n 27718: jump @1141 if a0 >u 99\n      : @1059 (gas: 2)\n 27723: a1 = 0x20180\n 27728: jump @985\n      : @1060 (gas: 5)\n 27731: a0 = s1 + 0x7ff\n 27735: a0 = a0 + 0x41\n 27738: ra = 0x44a\n 27742: t0 = 0x5a8\n 27746: jump @1570\n      : @1061 [@dyn 549] (gas: 17)\n 27749: a0 = s1 + 0x1000\n 27753: a0 = u64 [a0 + 0xfffffffffffff858]\n 27757: u64 [s1 + 0xf8] = a0\n 27761: a0 = s1 + 0x1000\n 27765: a0 = u64 [a0 + 0xfffffffffffff850]\n 27769: u64 [s1 + 0x100] = a0\n 27773: a0 = s1 + 0x1000\n 27777: a0 = u64 [a0 + 0xfffffffffffff848]\n 27781: u64 [s1 + 0x118] = a0\n 27785: a0 = s1 + 0x1000\n 27789: a0 = u64 [a0 + 0xfffffffffffff840]\n 27793: u64 [s1 + 0x110] = a0\n 27797: a0 = s1 + 0x7ff\n 27801: a0 = a0 + 0x21\n 27804: ra = 0x44c\n 27808: t0 = 0x5ac\n 27812: jump @1585\n      : @1062 [@dyn 550] (gas: 17)\n 27815: a0 = s1 + 0x1000\n 27819: a0 = u64 [a0 + 0xfffffffffffff838]\n 27823: u64 [s1 + 0xf0] = a0\n 27827: a0 = s1 + 0x1000\n 27831: a0 = u64 [a0 + 0xfffffffffffff830]\n 27835: u64 [s1 + 0xe8] = a0\n 27839: a0 = s1 + 0x1000\n 27843: a0 = u64 [a0 + 0xfffffffffffff828]\n 27847: u64 [s1 + 0xe0] = a0\n 27851: a0 = s1 + 0x1000\n 27855: a0 = u64 [a0 + 0xfffffffffffff820]\n 27859: u64 [s1 + 0x108] = a0\n 27863: a0 = s1 + 0x7ff\n 27867: a0 = a0 + 0x1\n 27870: ra = 0x44e\n 27874: t0 = 0x5b2\n 27878: jump @1585\n      : @1063 [@dyn 551] (gas: 7)\n 27881: a0 = s1 + 0x1000\n 27885: a0 = u64 [a0 + 0xfffffffffffff800]\n 27889: u64 [s1 + 0xd8] = a0\n 27893: a0 = s1 + 0x3000\n 27897: i32 a0 = a0 + 0xfffffffffffff940\n 27901: ecalli 9 // 'now'\n 27903: fallthrough\n      : @1064 (gas: 49)\n 27904: a0 = s1 + 0x2918\n 27908: t0 = u64 [a0 + 0x40]\n 27911: a4 = u64 [a0 + 0x38]\n 27914: u64 [s1 + 0x158] = a4\n 27918: t2 = u64 [a0 + 0x30]\n 27921: a3 = u64 [a0 + 0x28]\n 27924: u64 [s1 + 0x140] = a3\n 27928: a0 = clz t0\n 27930: a1 = clz a4\n 27932: a2 = a1 + 0x40\n 27935: a2 = a0 if t0 != 0\n 27938: a0 = clz t2\n 27940: a1 = clz a3\n 27942: a1 = a1 + 0x40\n 27945: a1 = a0 if t2 != 0\n 27948: a0 = a1 + 0x80\n 27952: a3 = a4 | t0\n 27955: a2 = a0 if a3 == 0\n 27958: a5 = a0 <u a1\n 27961: a5 = 0 if a3 != 0\n 27963: a4 = a5 >u 0\n 27965: a0 = a2 <u 0xf0\n 27969: a3 = a0 ^ 0x1\n 27972: a4 = a3 if a5 == 0\n 27975: a0 = a4 <u 0x1\n 27978: ra = a0 + 0xffffffffffffffff\n 27981: t1 = -a4\n 27983: a5 = -a5\n 27985: a3 = a5 - a3\n 27988: a2 = 0xef - a2\n 27992: a5 = t1 >u 0\n 27994: a0 = ra >u 0\n 27996: a0 = a5 if ra == 0\n 27999: a5 = a2 <u 0x100\n 28003: a5 = a5 ^ 0x1\n 28006: a1 = a3 >u 0\n 28008: a5 = a1 if a3 != 0\n 28011: a5 = a0 if a4 != 0\n 28014: u64 [s1 + 0x138] = t2\n 28018: u64 [s1 + 0x150] = t0\n 28022: a0 = t2 | t0\n 28025: a4 = u64 [s1 + 0x140]\n 28029: a1 = u64 [s1 + 0x158]\n 28033: a1 = a1 | a4\n 28036: a0 = a0 | a1\n 28039: a0 = a0 <u 0x1\n 28042: a0 = a0 | a5\n 28045: a4 = 0 if a0 != 0\n 28047: jump @1173 if a0 != 0\n      : @1065 (gas: 1)\n 28051: t0 = 1104, jump @1587\n      : @1066 [@dyn 552] (gas: 1)\n 28057: jump @1173 if a0 == 0\n      : @1067 (gas: 1)\n 28061: t0 = 1106, jump @1521\n      : @1068 [@dyn 553] (gas: 1)\n 28067: ra = 1108, jump @1592\n      : @1069 [@dyn 554] (gas: 1)\n 28073: t0 = 1110, jump @1579\n      : @1070 [@dyn 555] (gas: 1)\n 28079: ra = 1112, jump @1597\n      : @1071 [@dyn 556] (gas: 1)\n 28085: t0 = 1114, jump @1564\n      : @1072 [@dyn 557] (gas: 1)\n 28091: ra = 1116, jump @1597\n      : @1073 [@dyn 558] (gas: 8)\n 28097: u64 [s1 + 0x120] = a0\n 28101: u64 [s1 + 0xd0] = a1\n 28105: a2 = u64 [s1 + 0x160]\n 28109: a0 = a2 <u 0x80\n 28113: u64 [s1 + 0xc8] = a0\n 28117: a0 = u64 [s1 + 0x140]\n 28121: a1 = u64 [s1 + 0x138]\n 28125: ra = 1118, jump @1597\n      : @1074 [@dyn 559] (gas: 1)\n 28131: t0 = 1120, jump @1590\n      : @1075 [@dyn 560] (gas: 4)\n 28137: a3 = u64 [s1 + 0xc8]\n 28141: a0 = 0 if a3 == 0\n 28143: u64 [a4 + 0x78] = a0\n 28146: jump @1171 if a1 == 0\n      : @1076 (gas: 7)\n 28150: a2 = a3\n 28152: a0 = u64 [s1 + 0x168]\n 28156: a1 = u64 [s1 + 0x128]\n 28160: a0 = a0 | a1\n 28163: a5 = a3\n 28165: a1 = u64 [s1 + 0xd0]\n 28169: t0 = 1122, jump @1516\n      : @1077 [@dyn 561] (gas: 1)\n 28175: ra = 1124, jump @1592\n      : @1078 [@dyn 562] (gas: 1)\n 28181: t0 = 1126, jump @1578\n      : @1079 [@dyn 563] (gas: 1)\n 28187: ra = 1128, jump @1592\n      : @1080 [@dyn 564] (gas: 2)\n 28193: u64 [s1 + 0xd0] = a0\n 28197: t0 = 1130, jump @1563\n      : @1081 [@dyn 565] (gas: 1)\n 28203: ra = 1132, jump @1597\n      : @1082 [@dyn 566] (gas: 1)\n 28209: t0 = 1134, jump @1537\n      : @1083 [@dyn 567] (gas: 2)\n 28215: a1 = u64 [s1 + 0xd0]\n 28219: t0 = 1136, jump @1548\n      : @1084 [@dyn 568] (gas: 1)\n 28225: ra = 1138, jump @1592\n      : @1085 [@dyn 569] (gas: 1)\n 28231: t0 = 1140, jump @1527\n      : @1086 [@dyn 570] (gas: 1)\n 28237: t0 = 1142, jump @1538\n      : @1087 [@dyn 571] (gas: 5)\n 28243: t0 = ra <u a2\n 28246: a4 = u64 [s1 + 0x128]\n 28250: a5 = a4 <u a3\n 28253: a5 = t0 if t1 != 0\n 28256: t0 = 1144, jump @1539\n      : @1088 [@dyn 572] (gas: 20)\n 28262: t0 = a0 | a1\n 28265: a1 = a4 << 0x1\n 28268: a4 = u64 [s1 + 0x170]\n 28272: t1 = a4 >> 0x3f\n 28275: t1 = a1 | t1\n 28278: a1 = a4 << 0x1\n 28281: a4 = u64 [s1 + 0x178]\n 28285: t2 = a4 >> 0x3f\n 28288: a1 = a1 | t2\n 28291: a4 = a4 << 0x1\n 28294: a0 = u64 [s1 + 0x158]\n 28298: a4 = a4 | a0\n 28301: u64 [s1 + 0x178] = a4\n 28305: a0 = u64 [s1 + 0x150]\n 28309: a1 = a1 | a0\n 28312: u64 [s1 + 0x170] = a1\n 28316: a1 = a0 | t1\n 28319: u64 [s1 + 0x160] = a1\n 28323: a0 = a0 | t0\n 28326: t0 = 1146, jump @1514\n      : @1089 [@dyn 573] (gas: 18)\n 28332: t0 = a4 <u a2\n 28335: a2 = a4 - a2\n 28338: a4 = a3 <u 0x1\n 28341: a5 = a5 - a4\n 28344: a4 = u64 [a0 + 0x88]\n 28348: a4 = a4 - t0\n 28351: a3 = a3 + 0xffffffffffffffff\n 28354: u64 [a0 + 0x90] = a5\n 28358: u64 [a0 + 0x88] = a4\n 28362: t0 = a5 | a4\n 28365: u64 [a0 + 0x98] = a3\n 28369: a4 = a3 | a2\n 28372: a3 = a4 | t0\n 28375: a4 = ra & 0x1\n 28378: u64 [a0 + 0x58] = a4\n 28381: u64 [a0 + 0x80] = a2\n 28385: u64 [s1 + 336] = 0\n 28389: jump @1086 if a3 != 0\n      : @1090 (gas: 1)\n 28393: jump @1172\n      : @1091 (gas: 3)\n 28396: t0 = 0x47c\n 28400: a2 = s1 + 0x1918\n 28404: fallthrough\n      : @1092 [@dyn 574] (gas: 8)\n 28405: u64 [a2 + 856] = 0\n 28409: u64 [a2 + 848] = 0\n 28413: a0 = 0x6f1cf7db00000000\n 28423: u64 [a2 + 0x360] = a0\n 28427: a1 = s1 + 0x1c60\n 28431: u64 [a2 + 840] = 0\n 28435: a0 = 0\n 28437: ra = 1150, jump @24\n      : @1093 [@dyn 575] (gas: 3)\n 28443: a0 = u64 [s1 + 0x198]\n 28447: a0 = i32 [a0]\n 28449: jump @1095 if a0 >u 31\n      : @1094 (gas: 3)\n 28453: a1 = u64 [s1 + 0x198]\n 28457: u32 [a1 + 0] = 0x20\n 28460: fallthrough\n      : @1095 (gas: 5)\n 28461: a0 = 0x1\n 28464: a2 = 0x4\n 28467: a1 = u64 [s1 + 0x190]\n 28471: ecalli 13 // 'seal_return'\n 28473: fallthrough\n      : @1096 (gas: 17)\n 28474: a1 = 0xffffffff\n 28484: u64 [s1 + 0x170] = a1\n 28488: a3 = s1 + 0x1918\n 28492: a4 = a3 + 0x200\n 28496: a1 = u64 [a4 + 0xa8]\n 28500: a2 = u64 [a4 + 0xb8]\n 28504: a3 = u64 [a4 + 0xc0]\n 28508: a0 = a0 | 0x1\n 28511: a4 = s1 + 0x2918\n 28515: a5 = a4 + 0x300\n 28519: u64 [a5 + 0xe8] = a1\n 28523: u64 [a5 + 0xf8] = a2\n 28527: u64 [a5 + 0xf0] = a0\n 28531: u64 [a4 + 0x400] = a3\n 28535: a1 = s1 + 0x2d00\n 28539: a0 = u64 [s1 + 0x168]\n 28543: ra = 1152, jump @30\n      : @1097 [@dyn 576] (gas: 6)\n 28549: a0 = u64 [s1 + 0x180]\n 28553: ra = 0x482\n 28557: ecalli 4 // 'caller'\n 28559: a2 = u64 [s1 + 0x188]\n 28563: t0 = 0x484\n 28567: jump @1510\n      : @1098 [@dyn 577] (gas: 2)\n 28570: a2 = u64 [s1 + 0x188]\n 28574: t0 = 1156, jump @1510\n      : @1099 [@dyn 578] (gas: 8)\n 28580: u64 [a2 + 640] = 0\n 28584: a4 = a2 + 0x200\n 28588: u64 [a4 + 0x78] = a1\n 28591: u64 [a4 + 0x70] = a0\n 28594: a1 = s1 + 0x1b80\n 28598: u64 [a4 + 0x68] = a3\n 28601: a0 = 0\n 28603: ra = 1158, jump @24\n      : @1100 [@dyn 579] (gas: 9)\n 28609: a0 = s1 + 0x1918\n 28613: u64 [a0 + 608] = 0\n 28617: u64 [a0 + 600] = 0\n 28621: u64 [a0 + 592] = 0\n 28625: a2 = a0\n 28627: a0 = 0x20\n 28630: a1 = s1 + 0x1b60\n 28634: u64 [a2 + 584] = 0\n 28638: ra = 1160, jump @24\n      : @1101 [@dyn 580] (gas: 5)\n 28644: a0 = sp + 0xffffffffffffffe0\n 28647: a0 = a0 & 0xffffffffffffffe0\n 28650: u64 [s1 + 0x168] = a0\n 28654: sp = a0\n 28656: t0 = 1162, jump @1551\n      : @1102 [@dyn 581] (gas: 1)\n 28662: jump @1104 if a1 <u a0\n      : @1103 (gas: 1)\n 28665: t0 = 1164, jump @1583\n      : @1104 [@dyn 582] (gas: 4)\n 28671: a0 = sp + 0xffffffffffffffe0\n 28674: a0 = a0 & 0xffffffffffffffe0\n 28677: u64 [s1 + 0x198] = a0\n 28681: t0 = 1166, jump @1513\n      : @1105 [@dyn 583] (gas: 5)\n 28687: ra = 0x490\n 28691: ecalli 8 // 'hash_keccak_256'\n 28693: a3 = u64 [s1 + 0x198]\n 28697: t0 = 0x492\n 28701: jump @1550\n      : @1106 [@dyn 584] (gas: 2)\n 28704: a3 = u64 [s1 + 0x198]\n 28708: t0 = 1170, jump @1550\n      : @1107 [@dyn 585] (gas: 18)\n 28714: u64 [s1 + 0x198] = a4\n 28718: a3 = a4 <u 0x1\n 28721: a3 = a3 + a2\n 28724: u64 [s1 + 0x160] = a3\n 28728: a2 = a4 | a3\n 28731: a2 = a2 <u 0x1\n 28734: a2 = a2 + a1\n 28737: u64 [s1 + 0x158] = a2\n 28741: a1 = a2 <u a1\n 28744: a0 = a0 + a1\n 28747: u64 [s1 + 0x150] = a0\n 28751: a1 = u64 [s1 + 0x168]\n 28755: u64 [a1] = a4\n 28757: u64 [a1 + 0x8] = a3\n 28760: u64 [a1 + 0x10] = a2\n 28763: u64 [a1 + 0x18] = a0\n 28766: a0 = s1 + 0x1b40\n 28770: ra = 1172, jump @26\n      : @1108 [@dyn 586] (gas: 22)\n 28776: a1 = s1 + 0x1918\n 28780: a3 = a1 + 0x200\n 28784: a0 = u64 [a3 + 0x38]\n 28787: a2 = u64 [s1 + 0x170]\n 28791: a0 = a0 + a2\n 28794: a2 = a2 & a0\n 28797: u64 [a1 + 512] = 0\n 28801: u64 [a1 + 504] = 0\n 28805: u64 [a1 + 496] = 0\n 28809: a0 = u64 [s1 + 0x150]\n 28813: u64 [a3 + 0x20] = a0\n 28816: a0 = u64 [s1 + 0x158]\n 28820: u64 [a3 + 0x18] = a0\n 28823: a0 = u64 [s1 + 0x160]\n 28827: u64 [a3 + 0x10] = a0\n 28830: a0 = u64 [s1 + 0x198]\n 28834: u64 [a3 + 0x8] = a0\n 28837: a3 = a1\n 28839: a0 = s1 + 0x1b20\n 28843: a1 = s1 + 0x1b00\n 28847: u64 [a3 + 0x1e8] = a2\n 28851: ra = 1174, jump @1477\n      : @1109 [@dyn 587] (gas: 6)\n 28857: a0 = u64 [s1 + 0x180]\n 28861: ra = 0x498\n 28865: ecalli 4 // 'caller'\n 28867: a2 = u64 [s1 + 0x188]\n 28871: t0 = 0x49a\n 28875: jump @1515\n      : @1110 [@dyn 588] (gas: 2)\n 28878: a2 = u64 [s1 + 0x188]\n 28882: t0 = 1178, jump @1515\n      : @1111 [@dyn 589] (gas: 31)\n 28888: t0 = a1 | a0\n 28891: a3 = a3 >> 0x20\n 28894: a2 = reverse a2\n 28896: a1 = a2 << 0x20\n 28899: a1 = a1 | a3\n 28902: a2 = a2 >> 0x20\n 28905: a3 = u64 [s1 + 0x178]\n 28909: a0 = s1 + 0x1918\n 28913: u64 [a0 + 0x188] = a3\n 28917: a3 = u64 [0x20060]\n 28922: a4 = u64 [0x20068]\n 28927: a5 = u64 [0x20070]\n 28932: u64 [a0 + 0x1e0] = a3\n 28936: u64 [a0 + 0x1d8] = a4\n 28940: u64 [a0 + 416] = 0\n 28944: a4 = a0 + 0x100\n 28948: u64 [a4 + 0xd0] = a5\n 28952: a3 = u64 [0x20078]\n 28957: u64 [a0 + 408] = 0\n 28961: u64 [a0 + 400] = 0\n 28965: u64 [a0 + 448] = 0\n 28969: u64 [a4 + 0xc8] = a3\n 28973: u64 [a4 + 0xb8] = a2\n 28977: u64 [a4 + 0xb0] = a1\n 28981: a2 = s1 + 0x1ae0\n 28985: a3 = s1 + 0x1ac0\n 28989: a4 = s1 + 0x1aa0\n 28993: u64 [a0 + 0x1a8] = t0\n 28997: a0 = 0\n 28999: a1 = 0\n 29001: ra = 1180, jump @33\n      : @1112 [@dyn 590] (gas: 5)\n 29007: a0 = 0\n 29009: a1 = u64 [s1 + 0x190]\n 29013: a2 = 0\n 29015: ecalli 13 // 'seal_return'\n 29017: jump @986\n      : @1113 (gas: 10)\n 29020: a2 = s1 + 0x1918\n 29024: u64 [a2 + 120] = 0\n 29027: u64 [a2 + 112] = 0\n 29030: a0 = 0xd5b25b6300000000\n 29040: u64 [a2 + 0x80] = a0\n 29044: a1 = s1 + 0x1980\n 29048: u64 [a2 + 104] = 0\n 29051: a0 = 0\n 29053: ra = 0x5a4\n 29057: jump @24\n      : @1114 (gas: 25)\n 29060: a0 = u64 [s1 + 0x100]\n 29064: ecalli 4 // 'caller'\n 29066: a2 = u64 [s1 + 0x108]\n 29070: a0 = u64 [a2 + 0x8]\n 29073: a1 = i32 [a2 + 0x10]\n 29076: a2 = u64 [a2]\n 29078: a0 = reverse a0\n 29080: a3 = a0 << 0x20\n 29083: a1 = reverse a1\n 29085: a1 = a1 >> 0x20\n 29088: a3 = a3 | a1\n 29091: a0 = a0 >> 0x20\n 29094: a1 = reverse a2\n 29096: a2 = a1 << 0x20\n 29099: a0 = a0 | a2\n 29102: a1 = a1 >> 0x20\n 29105: a2 = s1 + 0x1118\n 29109: u64 [a2 + 1952] = 0\n 29113: a4 = a2 + 0x700\n 29117: u64 [a4 + 0x98] = a1\n 29121: u64 [a4 + 0x90] = a0\n 29125: a1 = s1 + 0x18a0\n 29129: u64 [a4 + 0x88] = a3\n 29133: a0 = 0\n 29135: ra = 1182, jump @24\n      : @1115 [@dyn 591] (gas: 3)\n 29141: t0 = 0x4a0\n 29145: a1 = s1 + 0x1118\n 29149: fallthrough\n      : @1116 [@dyn 592] (gas: 8)\n 29150: u64 [a1 + 1920] = 0\n 29154: u64 [a1 + 1912] = 0\n 29158: u64 [a1 + 1896] = 0x3\n 29163: a2 = a1\n 29165: a0 = 0x20\n 29168: a1 = s1 + 0x1880\n 29172: u64 [a2 + 1904] = 0\n 29176: ra = 1186, jump @24\n      : @1117 [@dyn 593] (gas: 3)\n 29182: a0 = u64 [s1 + 0x118]\n 29186: a0 = i32 [a0]\n 29188: jump @1119 if a0 >u 63\n      : @1118 (gas: 4)\n 29192: a1 = u64 [s1 + 0x118]\n 29196: u32 [a1 + 0] = 0x40\n 29199: t0 = 0x4a4\n 29203: jump @1519\n      : @1119 (gas: 1)\n 29206: t0 = 1188, jump @1519\n      : @1120 [@dyn 594] (gas: 4)\n 29212: ra = 0x4a6\n 29216: ecalli 8 // 'hash_keccak_256'\n 29218: t0 = 0x4a8\n 29222: jump @1530\n      : @1121 [@dyn 595] (gas: 1)\n 29225: t0 = 1192, jump @1530\n      : @1122 [@dyn 596] (gas: 3)\n 29231: t0 = 0x4aa\n 29235: a2 = s1 + 0x1118\n 29239: fallthrough\n      : @1123 [@dyn 597] (gas: 8)\n 29240: u64 [a2 + 1888] = 0\n 29244: u64 [a2 + 1880] = 0\n 29248: u64 [a2 + 1872] = 0\n 29252: a1 = s1 + 0x1860\n 29256: a0 = u64 [s1 + 0x198]\n 29260: u64 [a2 + 0x748] = a0\n 29264: a0 = 0\n 29266: ra = 1196, jump @24\n      : @1124 [@dyn 598] (gas: 14)\n 29272: a0 = u64 [s1 + 0x178]\n 29276: a1 = s1 + 0x1118\n 29280: a2 = a1 + 0x700\n 29284: u64 [a2 + 0x40] = a0\n 29287: a0 = u64 [s1 + 0x180]\n 29291: u64 [a2 + 0x38] = a0\n 29294: a0 = u64 [s1 + 0x188]\n 29298: u64 [a2 + 0x30] = a0\n 29301: a3 = a1\n 29303: a0 = 0x20\n 29306: a1 = s1 + 0x1840\n 29310: a2 = u64 [s1 + 0x190]\n 29314: u64 [a3 + 0x728] = a2\n 29318: ra = 1198, jump @24\n      : @1125 [@dyn 599] (gas: 3)\n 29324: a0 = u64 [s1 + 0x118]\n 29328: a0 = i32 [a0]\n 29330: jump @1127 if a0 >u 63\n      : @1126 (gas: 4)\n 29334: a0 = u64 [s1 + 0x118]\n 29338: u32 [a0 + 0] = 0x40\n 29341: t0 = 0x4b0\n 29345: jump @1519\n      : @1127 (gas: 1)\n 29348: t0 = 1200, jump @1519\n      : @1128 [@dyn 600] (gas: 5)\n 29354: ra = 0x4b2\n 29358: ecalli 8 // 'hash_keccak_256'\n 29360: a3 = u64 [s1 + 0x190]\n 29364: t0 = 0x4b4\n 29368: jump @1528\n      : @1129 [@dyn 601] (gas: 2)\n 29371: a3 = u64 [s1 + 0x190]\n 29375: t0 = 1204, jump @1528\n      : @1130 [@dyn 602] (gas: 5)\n 29381: u64 [s1 + 0x190] = a0\n 29385: sp = a0\n 29387: t0 = 0x4b6\n 29391: a2 = s1 + 0x1118\n 29395: fallthrough\n      : @1131 [@dyn 603] (gas: 8)\n 29396: u64 [a2 + 1824] = 0\n 29400: u64 [a2 + 1816] = 0\n 29404: u64 [a2 + 1808] = 0\n 29408: a1 = s1 + 0x1820\n 29412: a0 = u64 [s1 + 0xf8]\n 29416: u64 [a2 + 0x708] = a0\n 29420: a0 = 0\n 29422: ra = 1208, jump @24\n      : @1132 [@dyn 604] (gas: 13)\n 29428: a0 = u64 [s1 + 0x170]\n 29432: a1 = s1 + 0x1118\n 29436: u64 [a1 + 0x700] = a0\n 29440: a0 = u64 [s1 + 0x178]\n 29444: u64 [a1 + 0x6f8] = a0\n 29448: a0 = u64 [s1 + 0x180]\n 29452: u64 [a1 + 0x6f0] = a0\n 29456: a3 = a1\n 29458: a0 = 0x20\n 29461: a1 = s1 + 0x1800\n 29465: a2 = u64 [s1 + 0x188]\n 29469: u64 [a3 + 0x6e8] = a2\n 29473: ra = 1210, jump @24\n      : @1133 [@dyn 605] (gas: 3)\n 29479: a0 = u64 [s1 + 0x118]\n 29483: a0 = i32 [a0]\n 29485: jump @1135 if a0 >=u 64\n      : @1134 (gas: 3)\n 29489: a0 = u64 [s1 + 0x118]\n 29493: u32 [a0 + 0] = 0x40\n 29496: fallthrough\n      : @1135 (gas: 12)\n 29497: a0 = sp + 0xffffffffffffffe0\n 29500: a0 = a0 & 0xffffffffffffffe0\n 29503: u64 [s1 + 0x188] = a0\n 29507: sp = a0\n 29509: i32 a2 = a0 + 0\n 29511: a1 = 0x40\n 29514: a0 = u64 [s1 + 0x110]\n 29518: ra = 0x4bc\n 29522: ecalli 8 // 'hash_keccak_256'\n 29524: a3 = u64 [s1 + 0x188]\n 29528: t0 = 0x4be\n 29532: jump @1535\n      : @1136 [@dyn 606] (gas: 2)\n 29535: a3 = u64 [s1 + 0x188]\n 29539: t0 = 1214, jump @1535\n      : @1137 [@dyn 607] (gas: 7)\n 29545: a1 = u64 [s1 + 0x190]\n 29549: u64 [a1 + 0x18] = a3\n 29552: u64 [a1 + 0x10] = a2\n 29555: u64 [a1 + 0x8] = a4\n 29558: u64 [a1] = a0\n 29560: a0 = s1 + 0x17e0\n 29564: ra = 1216, jump @26\n      : @1138 [@dyn 608] (gas: 4)\n 29570: a0 = s1 + 0x1118\n 29574: a0 = u64 [a0 + 0x6c8]\n 29578: a1 = a0 & 0x1\n 29581: jump @1235 if a1 != 0\n      : @1139 (gas: 3)\n 29585: t0 = 0x4c2\n 29589: a2 = s1 + 0x1118\n 29593: fallthrough\n      : @1140 [@dyn 609] (gas: 9)\n 29594: u64 [a2 + 1528] = 0\n 29598: u64 [a2 + 1520] = 0\n 29602: a0 = 0xafa4e2b600000000\n 29612: u64 [a2 + 0x600] = a0\n 29616: a1 = s1 + 0x1700\n 29620: u64 [a2 + 1512] = 0\n 29624: a0 = 0\n 29626: ra = 0x5a4\n 29630: jump @24\n      : @1141 (gas: 5)\n 29633: a0 = s1 + 0x7ff\n 29637: a0 = a0 + 0x741\n 29641: ra = 0x4c4\n 29645: t0 = 0x5a8\n 29649: jump @1570\n      : @1142 [@dyn 610] (gas: 16)\n 29652: a1 = s1 + 0x7ff\n 29656: a1 = a1 + 0x119\n 29660: a2 = a1 + 0x600\n 29664: a0 = u64 [a2 + 0x40]\n 29667: u64 [s1 + 0xf8] = a0\n 29671: a0 = u64 [a2 + 0x38]\n 29674: u64 [s1 + 0xf0] = a0\n 29678: a0 = u64 [a2 + 0x30]\n 29681: u64 [s1 + 0x138] = a0\n 29685: a0 = u64 [a2 + 0x28]\n 29688: u64 [s1 + 0x130] = a0\n 29692: a0 = s1 + 0x7ff\n 29696: a0 = a0 + 0x721\n 29700: ra = 0x4c6\n 29704: t0 = 0x5ac\n 29708: jump @1585\n      : @1143 [@dyn 611] (gas: 16)\n 29711: a1 = s1 + 0x7ff\n 29715: a1 = a1 + 0x119\n 29719: a2 = a1 + 0x600\n 29723: a0 = u64 [a2 + 0x20]\n 29726: u64 [s1 + 0xd0] = a0\n 29730: a0 = u64 [a2 + 0x18]\n 29733: u64 [s1 + 0xc8] = a0\n 29737: a0 = u64 [a2 + 0x10]\n 29740: u64 [s1 + 0xc0] = a0\n 29744: a0 = u64 [a2 + 0x8]\n 29747: u64 [s1 + 0xb8] = a0\n 29751: a0 = s1 + 0x7ff\n 29755: a0 = a0 + 0x701\n 29759: ra = 0x4c8\n 29763: t0 = 0x5b2\n 29767: jump @1585\n      : @1144 [@dyn 612] (gas: 11)\n 29770: a0 = s1 + 0x7ff\n 29774: a0 = a0 + 0x119\n 29778: a2 = u32 [a0 + 0x5e8]\n 29782: a0 = a2 <u 0x1\n 29785: a1 = a2 + 0xffffffffffffffff\n 29788: a1 = a1 <u 0x32\n 29791: a1 = a1 ^ 0x1\n 29794: a1 = a0 if a2 == 0\n 29797: u64 [s1 + 0x110] = a2\n 29801: a1 = a0 if a2 == 0\n 29804: jump @1242 if a1 != 0\n      : @1145 (gas: 17)\n 29808: a0 = u64 [s1 + 0xf0]\n 29812: a0 = a0 << 0x20\n 29815: a2 = a0 >> 0x20\n 29818: a3 = s1 + 0x7ff\n 29822: a3 = a3 + 0x119\n 29826: u64 [a3 + 1472] = 0\n 29830: a0 = u64 [s1 + 0x130]\n 29834: a4 = a3 + 0x500\n 29838: u64 [a4 + 0xa8] = a0\n 29842: a0 = u64 [s1 + 0x138]\n 29846: u64 [a4 + 0xb0] = a0\n 29850: a1 = s1 + 0x7ff\n 29854: a1 = a1 + 0x6c1\n 29858: u64 [s1 + 0x108] = a2\n 29862: u64 [a4 + 0xb8] = a2\n 29866: a0 = 0\n 29868: ra = 1226, jump @24\n      : @1146 [@dyn 613] (gas: 11)\n 29874: a1 = s1 + 0x7ff\n 29878: a1 = a1 + 0x119\n 29882: u64 [a1 + 1440] = 0\n 29886: u64 [a1 + 1432] = 0\n 29890: u64 [a1 + 1416] = 0x2\n 29895: a2 = a1\n 29897: a0 = 0x20\n 29900: a1 = s1 + 0x7ff\n 29904: a1 = a1 + 0x6a1\n 29908: u64 [a2 + 1424] = 0\n 29912: ra = 1228, jump @24\n      : @1147 [@dyn 614] (gas: 4)\n 29918: a0 = 0x20170\n 29923: u64 [s1 + 0x198] = a0\n 29927: a0 = i32 [0x20170]\n 29932: jump @1149 if a0 >u 63\n      : @1148 (gas: 1)\n 29936: t0 = 1230, jump @1583\n      : @1149 [@dyn 615] (gas: 16)\n 29942: a0 = 0xffffffff\n 29952: u64 [s1 + 0x148] = a0\n 29956: a0 = sp + 0xffffffffffffffe0\n 29959: a2 = a0 & 0xffffffffffffffe0\n 29962: u64 [s1 + 0x188] = a2\n 29966: sp = a2\n 29968: a0 = 0x20180\n 29973: i32 a0 = a0 + 0\n 29975: i32 a2 = a2 + 0\n 29977: a1 = 0x40\n 29980: u64 [s1 + 0x190] = a0\n 29984: ra = 0x4d0\n 29988: ecalli 8 // 'hash_keccak_256'\n 29990: a3 = u64 [s1 + 0x188]\n 29994: t0 = 0x4d2\n 29998: jump @1525\n      : @1150 [@dyn 616] (gas: 2)\n 30001: a3 = u64 [s1 + 0x188]\n 30005: t0 = 1234, jump @1525\n      : @1151 [@dyn 617] (gas: 9)\n 30011: a5 = a4 + 0x100\n 30015: u64 [a5 + 0xa0] = a3\n 30019: u64 [a5 + 0x98] = a2\n 30023: u64 [a5 + 0x90] = a1\n 30027: u64 [a5 + 0x88] = a0\n 30031: a0 = s1 + 0x7ff\n 30035: a0 = a0 + 0x681\n 30039: a1 = s1 + 0x2aa0\n 30043: ra = 1236, jump @26\n      : @1152 [@dyn 618] (gas: 8)\n 30049: a0 = s1 + 0x7ff\n 30053: a0 = a0 + 0x119\n 30057: a0 = u64 [a0 + 0x568]\n 30061: u64 [s1 + 0xa8] = a0\n 30065: a0 = s1 + 0x3000\n 30069: i32 a0 = a0 + 0xfffffffffffffac0\n 30073: ecalli 9 // 'now'\n 30075: fallthrough\n      : @1153 (gas: 51)\n 30076: a0 = s1 + 0x2918\n 30080: t0 = u64 [a0 + 0x1c0]\n 30084: a4 = u64 [a0 + 0x1b8]\n 30088: u64 [s1 + 0x140] = a4\n 30092: t2 = u64 [a0 + 0x1b0]\n 30096: a3 = u64 [a0 + 0x1a8]\n 30100: u64 [s1 + 0x118] = a3\n 30104: a0 = clz t0\n 30106: a1 = clz a4\n 30108: a2 = a1 + 0x40\n 30111: a2 = a0 if t0 != 0\n 30114: a0 = clz t2\n 30116: a1 = clz a3\n 30118: a1 = a1 + 0x40\n 30121: a1 = a0 if t2 != 0\n 30124: a0 = a1 + 0x80\n 30128: a3 = a4 | t0\n 30131: a2 = a0 if a3 == 0\n 30134: a5 = a0 <u a1\n 30137: a5 = 0 if a3 != 0\n 30139: a4 = a5 >u 0\n 30141: a0 = a2 <u 0xf0\n 30145: a3 = a0 ^ 0x1\n 30148: a4 = a3 if a5 == 0\n 30151: a0 = a4 <u 0x1\n 30154: ra = a0 + 0xffffffffffffffff\n 30157: t1 = -a4\n 30159: a5 = -a5\n 30161: a3 = a5 - a3\n 30164: a2 = 0xef - a2\n 30168: a5 = t1 >u 0\n 30170: a0 = ra >u 0\n 30172: a0 = a5 if ra == 0\n 30175: a5 = a2 <u 0x100\n 30179: a5 = a5 ^ 0x1\n 30182: a1 = a3 >u 0\n 30184: a5 = a1 if a3 != 0\n 30187: a5 = a0 if a4 != 0\n 30190: u64 [s1 + 0xb0] = t2\n 30194: u64 [s1 + 0x128] = t0\n 30198: a0 = t2 | t0\n 30201: a4 = u64 [s1 + 0x118]\n 30205: a1 = u64 [s1 + 0x140]\n 30209: a1 = a1 | a4\n 30212: a0 = a0 | a1\n 30215: a0 = a0 <u 0x1\n 30218: a0 = a0 | a5\n 30221: a1 = a4\n 30223: a1 = 0 if a0 != 0\n 30225: u64 [s1 + 0x100] = a1\n 30229: jump @1248 if a0 != 0\n      : @1154 (gas: 1)\n 30233: t0 = 1238, jump @1587\n      : @1155 [@dyn 619] (gas: 1)\n 30239: jump @1248 if a0 == 0\n      : @1156 (gas: 18)\n 30243: a1 = a2 + 0x1\n 30246: u64 [s1 + 0x188] = a1\n 30250: a0 = a1 <u 0x1\n 30253: a0 = a0 + a3\n 30256: u64 [s1 + 0x180] = a0\n 30260: a0 = a0 | a1\n 30263: a0 = a0 <u 0x1\n 30266: a0 = a0 + t1\n 30269: u64 [s1 + 0x170] = a0\n 30273: a0 = a0 <u t1\n 30276: a0 = a0 + ra\n 30279: u64 [s1 + 0x178] = a0\n 30283: a1 = 0xff - a2\n 30287: u64 [s1 + 0x150] = a1\n 30291: a2 = 0x80 - a1\n 30295: a0 = u64 [s1 + 0x118]\n 30299: a1 = u64 [s1 + 0xb0]\n 30303: ra = 1240, jump @1592\n      : @1157 [@dyn 620] (gas: 6)\n 30309: u64 [s1 + 0x120] = a0\n 30313: u64 [s1 + 0x158] = a1\n 30317: a0 = u64 [s1 + 0x140]\n 30321: a1 = u64 [s1 + 0x128]\n 30325: a2 = u64 [s1 + 0x150]\n 30329: ra = 1242, jump @1597\n      : @1158 [@dyn 621] (gas: 7)\n 30335: u64 [s1 + 0x100] = a0\n 30339: u64 [s1 + 0xe8] = a1\n 30343: a0 = u64 [s1 + 0x150]\n 30347: a2 = a0 + 0xffffffffffffff80\n 30350: a0 = u64 [s1 + 0x118]\n 30354: a1 = u64 [s1 + 0xb0]\n 30358: ra = 1244, jump @1597\n      : @1159 [@dyn 622] (gas: 8)\n 30364: u64 [s1 + 0xe0] = a0\n 30368: u64 [s1 + 0xd8] = a1\n 30372: a2 = u64 [s1 + 0x150]\n 30376: a0 = a2 <u 0x80\n 30380: u64 [s1 + 0xa0] = a0\n 30384: a0 = u64 [s1 + 0x118]\n 30388: a1 = u64 [s1 + 0xb0]\n 30392: ra = 1246, jump @1597\n      : @1160 [@dyn 623] (gas: 1)\n 30398: t0 = 1248, jump @1589\n      : @1161 [@dyn 624] (gas: 4)\n 30404: a3 = u64 [s1 + 0xa0]\n 30408: a0 = 0 if a3 == 0\n 30410: u64 [a4 + 0x68] = a0\n 30413: jump @1246 if a1 == 0\n      : @1162 (gas: 30)\n 30417: a2 = a3\n 30419: a0 = u64 [s1 + 0x158]\n 30423: a1 = u64 [s1 + 0xe8]\n 30427: a0 = a0 | a1\n 30430: a5 = a3\n 30432: a1 = u64 [s1 + 0xd8]\n 30436: a0 = a1 if a2 == 0\n 30439: a2 = u64 [s1 + 0x128]\n 30443: a3 = a2\n 30445: a1 = a2\n 30447: a2 = u64 [s1 + 0x150]\n 30451: a3 = a0 if a2 != 0\n 30454: u64 [s1 + 0x158] = a3\n 30458: a0 = u64 [s1 + 0x120]\n 30462: a3 = u64 [s1 + 0x100]\n 30466: a0 = a0 | a3\n 30469: a3 = u64 [s1 + 0xe0]\n 30473: a0 = a3 if a5 == 0\n 30476: a4 = u64 [s1 + 0x140]\n 30480: a3 = a4\n 30482: a3 = a0 if a2 != 0\n 30485: u64 [s1 + 0x150] = a3\n 30489: a0 = u64 [s1 + 0x160]\n 30493: a0 = 0 if a5 == 0\n 30495: u64 [s1 + 0x160] = a0\n 30499: u64 [s1 + 232] = 0x15180\n 30506: a0 = u64 [s1 + 0x188]\n 30510: a2 = a0 + 0xffffffffffffff80\n 30513: a0 = a4\n 30515: ra = 1250, jump @1592\n      : @1163 [@dyn 625] (gas: 6)\n 30521: u64 [s1 + 0x120] = a0\n 30525: u64 [s1 + 0xe0] = a1\n 30529: a0 = u64 [s1 + 0x118]\n 30533: a1 = u64 [s1 + 0xb0]\n 30537: a2 = u64 [s1 + 0x188]\n 30541: ra = 1252, jump @1592\n      : @1164 [@dyn 626] (gas: 7)\n 30547: u64 [s1 + 0xd8] = a0\n 30551: u64 [s1 + 0x100] = a1\n 30555: a1 = u64 [s1 + 0x188]\n 30559: a2 = 0x80 - a1\n 30563: a0 = u64 [s1 + 0x140]\n 30567: a1 = u64 [s1 + 0x128]\n 30571: ra = 1254, jump @1597\n      : @1165 [@dyn 627] (gas: 20)\n 30577: a2 = u64 [s1 + 0x100]\n 30581: a1 = a1 | a2\n 30584: a2 = u64 [s1 + 0x188]\n 30588: a3 = a2 <u 0x80\n 30592: u64 [s1 + 0x100] = a3\n 30596: a4 = u64 [s1 + 0xe0]\n 30600: a1 = a4 if a3 == 0\n 30603: a4 = u64 [s1 + 0xb0]\n 30607: a4 = a1 if a2 != 0\n 30610: u64 [s1 + 0xb0] = a4\n 30614: a1 = u64 [s1 + 0xd8]\n 30618: a0 = a0 | a1\n 30621: a1 = u64 [s1 + 0x120]\n 30625: a0 = a1 if a3 == 0\n 30628: a1 = u64 [s1 + 0x118]\n 30632: a1 = a0 if a2 != 0\n 30635: u64 [s1 + 0x118] = a1\n 30639: a0 = u64 [s1 + 0x140]\n 30643: a1 = u64 [s1 + 0x128]\n 30647: ra = 1256, jump @1592\n      : @1166 [@dyn 628] (gas: 15)\n 30653: t2 = u64 [s1 + 0x118]\n 30657: t1 = u64 [s1 + 0xb0]\n 30661: u64 [s1 + 320] = 0\n 30665: u64 [s1 + 296] = 0\n 30669: a2 = u64 [s1 + 0x100]\n 30673: a1 = 0 if a2 == 0\n 30675: a0 = 0 if a2 == 0\n 30677: u64 [s1 + 0x120] = a0\n 30681: a3 = u64 [s1 + 0xe8]\n 30685: a2 = a3 + 0xffffffffffffffff\n 30688: u64 [s1 + 0xe0] = a2\n 30692: a2 = a3 >u 0\n 30694: a2 = a2 + 0xffffffffffffffff\n 30697: u64 [s1 + 0xd8] = a2\n 30701: fallthrough\n      : @1167 (gas: 58)\n 30702: a2 = t2 >> 0x3f\n 30705: a3 = t1 << 0x1\n 30708: a2 = a2 | a3\n 30711: a3 = t2 << 0x1\n 30714: t2 = u64 [s1 + 0x158]\n 30718: a4 = t2 >> 0x3f\n 30721: a3 = a3 | a4\n 30724: u64 [s1 + 0x118] = a3\n 30728: ra = u64 [s1 + 0xd8]\n 30732: a0 = t1\n 30734: t1 = ra ^ a2\n 30737: t0 = ra <u a2\n 30740: a4 = u64 [s1 + 0xe0]\n 30744: a5 = a4 <u a3\n 30747: a5 = t0 if t1 != 0\n 30750: a1 = a1 << 0x1\n 30753: a4 = u64 [s1 + 0x120]\n 30757: a3 = a4 >> 0x3f\n 30760: a1 = a1 | a3\n 30763: u64 [s1 + 0x100] = a1\n 30767: a3 = a0 >> 0x3f\n 30770: a0 = a4 << 0x1\n 30773: a3 = a3 | a0\n 30776: a0 = t2 << 0x1\n 30779: a4 = u64 [s1 + 0x150]\n 30783: a1 = a4 >> 0x3f\n 30786: t0 = a0 | a1\n 30789: a1 = a4 << 0x1\n 30792: a4 = u64 [s1 + 0x160]\n 30796: t1 = a4 >> 0x3f\n 30799: t1 = a1 | t1\n 30802: a1 = a4 << 0x1\n 30805: a4 = u64 [s1 + 0x168]\n 30809: t2 = a4 >> 0x3f\n 30812: a1 = a1 | t2\n 30815: a4 = a4 << 0x1\n 30818: a0 = u64 [s1 + 0x140]\n 30822: a4 = a4 | a0\n 30825: u64 [s1 + 0x168] = a4\n 30829: a0 = u64 [s1 + 0x128]\n 30833: a1 = a1 | a0\n 30836: u64 [s1 + 0x160] = a1\n 30840: a1 = a0 | t1\n 30843: u64 [s1 + 0x150] = a1\n 30847: a0 = a0 | t0\n 30850: u64 [s1 + 0x158] = a0\n 30854: a0 = ra - a3\n 30857: a0 = a0 <u a5\n 30860: a1 = ra <u a3\n 30863: a5 = u64 [s1 + 0x100]\n 30867: a4 = ra - a5\n 30870: a4 = a4 - a1\n 30873: a4 = a4 - a0\n 30876: ra = a4 >>a 0x3f\n 30879: a0 = u64 [s1 + 0xe8]\n 30883: a0 = ra & a0\n 30886: a1 = u64 [s1 + 0x118]\n 30890: t0 = 1258, jump @1577\n      : @1168 [@dyn 629] (gas: 2)\n 30896: u64 [s1 + 0x120] = a0\n 30900: t0 = 1260, jump @1558\n      : @1169 [@dyn 630] (gas: 18)\n 30906: t0 = a4 <u a2\n 30909: a2 = a4 - a2\n 30912: a4 = a3 <u 0x1\n 30915: a5 = a5 - a4\n 30918: a4 = u64 [a0 + 0x78]\n 30921: a4 = a4 - t0\n 30924: a3 = a3 + 0xffffffffffffffff\n 30927: u64 [a0 + 0x80] = a5\n 30931: u64 [a0 + 0x78] = a4\n 30934: t0 = a5 | a4\n 30937: u64 [a0 + 0x88] = a3\n 30941: a4 = a3 | a2\n 30944: a3 = a4 | t0\n 30947: a4 = ra & 0x1\n 30950: u64 [a0 + 0x40] = a4\n 30953: u64 [a0 + 0x70] = a2\n 30956: u64 [s1 + 296] = 0\n 30960: jump @1167 if a3 != 0\n      : @1170 (gas: 1)\n 30964: jump @1247\n      : @1171 (gas: 2)\n 30967: u64 [s1 + 344] = 0\n 30971: fallthrough\n      : @1172 (gas: 5)\n 30972: a0 = u64 [s1 + 0x178]\n 30976: a0 = a0 << 0x1\n 30979: a4 = u64 [s1 + 0x158]\n 30983: a4 = a4 | a0\n 30986: fallthrough\n      : @1173 (gas: 2)\n 30987: a0 = u64 [s1 + 0x108]\n 30991: jump @1307 if a0 >=u a4\n      : @1174 (gas: 9)\n 30995: a0 = u64 [s1 + 0xd8]\n 30999: a0 = a0 << 0x20\n 31002: a1 = a0 >> 0x20\n 31005: a0 = a1 + 0xffffffffffffffff\n 31008: a0 = a0 <u 0x32\n 31011: a0 = 0 if a1 == 0\n 31013: u64 [s1 + 0x138] = a1\n 31017: a0 = 0 if a1 == 0\n 31019: jump @1311 if a0 == 0\n      : @1175 (gas: 15)\n 31023: a0 = 0xffffffff\n 31033: u64 [s1 + 0x178] = a0\n 31037: a0 = u64 [s1 + 0x100]\n 31041: a0 = a0 << 0x20\n 31044: a2 = a0 >> 0x20\n 31047: u64 [s1 + 1976] = 0\n 31051: a0 = u64 [s1 + 0x110]\n 31055: u64 [s1 + 0x7a0] = a0\n 31059: a0 = u64 [s1 + 0x118]\n 31063: u64 [s1 + 0x7a8] = a0\n 31067: a1 = s1 + 0x7a0\n 31071: u64 [s1 + 0x148] = a2\n 31075: u64 [s1 + 0x7b0] = a2\n 31079: a0 = 0\n 31081: ra = 1262, jump @24\n      : @1176 [@dyn 631] (gas: 7)\n 31087: u64 [s1 + 1944] = 0\n 31091: u64 [s1 + 1936] = 0\n 31095: u64 [s1 + 1920] = 0x2\n 31100: a0 = 0x20\n 31103: a1 = s1 + 0x780\n 31107: u64 [s1 + 1928] = 0\n 31111: ra = 1264, jump @24\n      : @1177 [@dyn 632] (gas: 5)\n 31117: a0 = 0x20170\n 31122: u64 [s1 + 0x198] = a0\n 31126: a0 = i32 [0x20170]\n 31131: a1 = 0x3f\n 31134: jump @1179 if a1 <u a0\n      : @1178 (gas: 1)\n 31137: t0 = 1266, jump @1583\n      : @1179 [@dyn 633] (gas: 3)\n 31143: a0 = 0xffffffff00000000\n 31153: u64 [s1 + 0x130] = a0\n 31157: t0 = 1268, jump @1574\n      : @1180 [@dyn 634] (gas: 10)\n 31163: a0 = 0x20180\n 31168: i32 a0 = a0 + 0\n 31170: i32 a2 = a2 + 0\n 31172: a1 = 0x40\n 31175: u64 [s1 + 0x188] = a0\n 31179: ra = 0x4f6\n 31183: ecalli 8 // 'hash_keccak_256'\n 31185: a3 = u64 [s1 + 0x190]\n 31189: t0 = 0x4f8\n 31193: jump @1525\n      : @1181 [@dyn 635] (gas: 2)\n 31196: a3 = u64 [s1 + 0x190]\n 31200: t0 = 1272, jump @1525\n      : @1182 [@dyn 636] (gas: 7)\n 31206: u64 [a4 + 0x60] = a3\n 31209: u64 [a4 + 0x58] = a2\n 31212: u64 [a4 + 0x50] = a1\n 31215: u64 [a4 + 0x48] = a0\n 31218: a0 = s1 + 0x760\n 31222: a1 = s1 + 0x2960\n 31226: ra = 1274, jump @26\n      : @1183 [@dyn 637] (gas: 8)\n 31232: a0 = u64 [s1 + 0x760]\n 31236: u64 [s1 + 320] = 0\n 31240: a3 = 0\n 31242: a1 = u64 [s1 + 0x178]\n 31246: a0 = a0 & a1\n 31249: u64 [s1 + 0x128] = a0\n 31253: a2 = 0x1\n 31256: fallthrough\n      : @1184 (gas: 12)\n 31257: a1 = 0\n 31259: a1 = 0 if a3 == 0\n 31261: a4 = s1 + 0x100\n 31265: a0 = u64 [a4 + 0x28]\n 31268: u64 [a4 + 0x90] = a2\n 31272: a0 = a0 <u a2\n 31275: a2 = 0\n 31277: a2 = a0 if a3 == 0\n 31280: u64 [a4 + 128] = 0\n 31284: a0 = 0\n 31286: a2 = a1 if a0 != 0\n 31289: jump @1315 if a2 != 0\n      : @1185 (gas: 6)\n 31293: a2 = s1 + 0x100\n 31297: a0 = u64 [a2 + 0x78]\n 31300: a1 = u64 [a2 + 0x40]\n 31303: a0 = a0 & a1\n 31306: a1 = u64 [a2 + 0x38]\n 31309: jump @1315 if a0 >=u a1\n      : @1186 (gas: 10)\n 31313: u64 [s1 + 1880] = 0\n 31317: a0 = u64 [s1 + 0x110]\n 31321: u64 [s1 + 0x740] = a0\n 31325: a0 = u64 [s1 + 0x118]\n 31329: u64 [s1 + 0x748] = a0\n 31333: a1 = s1 + 0x740\n 31337: a0 = u64 [s1 + 0x148]\n 31341: u64 [s1 + 0x750] = a0\n 31345: a0 = 0\n 31347: ra = 1276, jump @24\n      : @1187 [@dyn 638] (gas: 7)\n 31353: u64 [s1 + 1848] = 0\n 31357: u64 [s1 + 1840] = 0\n 31361: u64 [s1 + 1832] = 0\n 31365: a0 = 0x20\n 31368: a1 = s1 + 0x720\n 31372: u64 [s1 + 1824] = 0x1\n 31377: ra = 1278, jump @24\n      : @1188 [@dyn 639] (gas: 1)\n 31383: t0 = 1280, jump @1551\n      : @1189 [@dyn 640] (gas: 1)\n 31389: jump @1191 if a1 <u a0\n      : @1190 (gas: 1)\n 31392: t0 = 1282, jump @1583\n      : @1191 [@dyn 641] (gas: 1)\n 31398: t0 = 1284, jump @1532\n      : @1192 [@dyn 642] (gas: 4)\n 31404: ra = 0x506\n 31408: ecalli 8 // 'hash_keccak_256'\n 31410: t0 = 0x508\n 31414: jump @1524\n      : @1193 [@dyn 643] (gas: 1)\n 31417: t0 = 1288, jump @1524\n      : @1194 [@dyn 644] (gas: 9)\n 31423: a2 = s1 + 0x700\n 31427: u64 [a2 + 0x18] = a0\n 31430: u64 [a2 + 0x10] = a0\n 31433: u64 [a2 + 0x8] = a0\n 31436: a1 = s1 + 0x700\n 31440: a0 = u64 [s1 + 0x190]\n 31444: u64 [a2] = a0\n 31446: a0 = 0\n 31448: ra = 1290, jump @24\n      : @1195 [@dyn 645] (gas: 12)\n 31454: a0 = u64 [s1 + 0x150]\n 31458: a3 = s1 + 0x600\n 31462: u64 [a3 + 0xf8] = a0\n 31466: a0 = u64 [s1 + 0x158]\n 31470: u64 [a3 + 0xf0] = a0\n 31474: a0 = u64 [s1 + 0x160]\n 31478: u64 [a3 + 0xe8] = a0\n 31482: a0 = 0x20\n 31485: a1 = s1 + 0x6e0\n 31489: a2 = u64 [s1 + 0x168]\n 31493: u64 [a3 + 0xe0] = a2\n 31497: ra = 1292, jump @24\n      : @1196 [@dyn 646] (gas: 1)\n 31503: t0 = 1294, jump @1551\n      : @1197 [@dyn 647] (gas: 1)\n 31509: jump @1199 if a1 <u a0\n      : @1198 (gas: 1)\n 31512: t0 = 1296, jump @1576\n      : @1199 [@dyn 648] (gas: 1)\n 31518: t0 = 1298, jump @1560\n      : @1200 [@dyn 649] (gas: 5)\n 31524: ra = 0x514\n 31528: ecalli 8 // 'hash_keccak_256'\n 31530: a3 = u64 [s1 + 0x168]\n 31534: t0 = 0x516\n 31538: jump @1566\n      : @1201 [@dyn 650] (gas: 2)\n 31541: a3 = u64 [s1 + 0x168]\n 31545: t0 = 1302, jump @1566\n      : @1202 [@dyn 651] (gas: 11)\n 31551: a1 = u64 [s1 + 0x170]\n 31555: u64 [s1 + 0x160] = a2\n 31559: u64 [a1 + 0x18] = a2\n 31562: u64 [s1 + 0x168] = a0\n 31566: u64 [a1 + 0x10] = a0\n 31569: u64 [s1 + 0x158] = a4\n 31573: u64 [a1 + 0x8] = a4\n 31576: u64 [s1 + 0x150] = a5\n 31580: u64 [a1] = a5\n 31582: a0 = s1 + 0x6c0\n 31586: ra = 1304, jump @26\n      : @1203 [@dyn 652] (gas: 11)\n 31592: a3 = s1 + 0x600\n 31596: a0 = u64 [a3 + 0xc8]\n 31600: a1 = u64 [a3 + 0xd0]\n 31604: a2 = u64 [a3 + 0xc0]\n 31608: a0 = a0 & 0xffffffffffffffff\n 31611: a1 = a1 & 0xffffffffffffffff\n 31614: a3 = u64 [s1 + 0x130]\n 31618: a2 = a2 & a3\n 31621: a1 = a1 | a2\n 31624: a0 = a0 | a1\n 31627: jump @1234 if a0 == 0\n      : @1204 (gas: 21)\n 31631: a5 = s1 + 0x100\n 31635: a1 = u64 [a5 + 0x50]\n 31638: a0 = a1 + 0x2\n 31641: a1 = a0 <u a1\n 31644: a3 = u64 [a5 + 0x58]\n 31647: a2 = a3 + a1\n 31650: a3 = a2 <u a3\n 31653: a3 = a1 if a1 == 0\n 31656: a1 = u64 [a5 + 0x68]\n 31659: a3 = a3 + a1\n 31662: a1 = a3 <u a1\n 31665: a4 = u64 [a5 + 0x60]\n 31668: a1 = a1 + a4\n 31671: a4 = s1 + 0x2918\n 31675: u64 [a4 + 0x68] = a0\n 31678: u64 [a4 + 0x70] = a2\n 31681: u64 [a4 + 0x78] = a3\n 31684: u64 [a4 + 0x80] = a1\n 31688: a0 = s1 + 0x6a0\n 31692: a1 = s1 + 0x2980\n 31696: ra = 1306, jump @26\n      : @1205 [@dyn 653] (gas: 3)\n 31702: a0 = u64 [s1 + 0x6a8]\n 31706: a0 = a0 & 0xff\n 31710: jump @1234 if a0 != 0\n      : @1206 (gas: 10)\n 31714: u64 [s1 + 1688] = 0\n 31718: a0 = u64 [s1 + 0x110]\n 31722: u64 [s1 + 0x680] = a0\n 31726: a0 = u64 [s1 + 0x118]\n 31730: u64 [s1 + 0x688] = a0\n 31734: a1 = s1 + 0x680\n 31738: a0 = u64 [s1 + 0x148]\n 31742: u64 [s1 + 0x690] = a0\n 31746: a0 = 0\n 31748: ra = 1308, jump @24\n      : @1207 [@dyn 654] (gas: 7)\n 31754: u64 [s1 + 1656] = 0\n 31758: u64 [s1 + 1648] = 0\n 31762: u64 [s1 + 1640] = 0\n 31766: a0 = 0x20\n 31769: a1 = s1 + 0x660\n 31773: u64 [s1 + 1632] = 0x3\n 31778: ra = 1310, jump @24\n      : @1208 [@dyn 655] (gas: 1)\n 31784: t0 = 1312, jump @1551\n      : @1209 [@dyn 656] (gas: 1)\n 31790: jump @1211 if a1 <u a0\n      : @1210 (gas: 1)\n 31793: t0 = 1314, jump @1576\n      : @1211 [@dyn 657] (gas: 1)\n 31799: t0 = 1316, jump @1532\n      : @1212 [@dyn 658] (gas: 4)\n 31805: ra = 0x526\n 31809: ecalli 8 // 'hash_keccak_256'\n 31811: t0 = 0x528\n 31815: jump @1518\n      : @1213 [@dyn 659] (gas: 1)\n 31818: t0 = 1320, jump @1518\n      : @1214 [@dyn 660] (gas: 8)\n 31824: u64 [s1 + 1624] = 0\n 31828: u64 [s1 + 1616] = 0\n 31832: u64 [s1 + 1608] = 0\n 31836: a1 = s1 + 0x640\n 31840: a0 = u64 [s1 + 0x108]\n 31844: u64 [s1 + 0x640] = a0\n 31848: a0 = 0\n 31850: ra = 1322, jump @24\n      : @1215 [@dyn 661] (gas: 12)\n 31856: a0 = u64 [s1 + 0x158]\n 31860: a3 = s1 + 0x600\n 31864: u64 [a3 + 0x38] = a0\n 31867: a0 = u64 [s1 + 0x160]\n 31871: u64 [a3 + 0x30] = a0\n 31874: a0 = u64 [s1 + 0x168]\n 31878: u64 [a3 + 0x28] = a0\n 31881: a0 = 0x20\n 31884: a1 = s1 + 0x620\n 31888: a2 = u64 [s1 + 0x170]\n 31892: u64 [a3 + 0x20] = a2\n 31895: ra = 1324, jump @24\n      : @1216 [@dyn 662] (gas: 1)\n 31901: t0 = 1326, jump @1551\n      : @1217 [@dyn 663] (gas: 1)\n 31907: jump @1219 if a1 <u a0\n      : @1218 (gas: 1)\n 31910: t0 = 1328, jump @1576\n      : @1219 [@dyn 664] (gas: 1)\n 31916: t0 = 1330, jump @1532\n      : @1220 [@dyn 665] (gas: 4)\n 31922: ra = 0x534\n 31926: ecalli 8 // 'hash_keccak_256'\n 31928: t0 = 0x536\n 31932: jump @1524\n      : @1221 [@dyn 666] (gas: 1)\n 31935: t0 = 1334, jump @1524\n      : @1222 [@dyn 667] (gas: 9)\n 31941: a2 = s1 + 0x600\n 31945: u64 [a2 + 0x18] = a0\n 31948: u64 [a2 + 0x10] = a0\n 31951: u64 [a2 + 0x8] = a0\n 31954: a1 = s1 + 0x600\n 31958: a0 = u64 [s1 + 0x190]\n 31962: u64 [a2] = a0\n 31964: a0 = 0\n 31966: ra = 1336, jump @24\n      : @1223 [@dyn 668] (gas: 12)\n 31972: a0 = u64 [s1 + 0x150]\n 31976: a3 = s1 + 0x500\n 31980: u64 [a3 + 0xf8] = a0\n 31984: a0 = u64 [s1 + 0x158]\n 31988: u64 [a3 + 0xf0] = a0\n 31992: a0 = u64 [s1 + 0x160]\n 31996: u64 [a3 + 0xe8] = a0\n 32000: a0 = 0x20\n 32003: a1 = s1 + 0x5e0\n 32007: a2 = u64 [s1 + 0x168]\n 32011: u64 [a3 + 0xe0] = a2\n 32015: ra = 1338, jump @24\n      : @1224 [@dyn 669] (gas: 1)\n 32021: t0 = 1340, jump @1551\n      : @1225 [@dyn 670] (gas: 1)\n 32027: jump @1227 if a1 <u a0\n      : @1226 (gas: 1)\n 32030: t0 = 1342, jump @1576\n      : @1227 [@dyn 671] (gas: 1)\n 32036: t0 = 1344, jump @1560\n      : @1228 [@dyn 672] (gas: 5)\n 32042: ra = 0x542\n 32046: ecalli 8 // 'hash_keccak_256'\n 32048: a3 = u64 [s1 + 0x168]\n 32052: t0 = 0x544\n 32056: jump @1535\n      : @1229 [@dyn 673] (gas: 2)\n 32059: a3 = u64 [s1 + 0x168]\n 32063: t0 = 1348, jump @1535\n      : @1230 [@dyn 674] (gas: 7)\n 32069: a1 = u64 [s1 + 0x170]\n 32073: u64 [a1 + 0x18] = a3\n 32076: u64 [a1 + 0x10] = a2\n 32079: u64 [a1 + 0x8] = a4\n 32082: u64 [a1] = a0\n 32084: a0 = s1 + 0x5c0\n 32088: ra = 1350, jump @26\n      : @1231 [@dyn 675] (gas: 3)\n 32094: a0 = u64 [s1 + 0x5c0]\n 32098: a0 = a0 & 0x5\n 32101: jump @1234 if a0 != 1\n      : @1232 (gas: 27)\n 32106: a0 = u64 [s1 + 0x190]\n 32110: a4 = s1 + 0x500\n 32114: u64 [a4 + 0x60] = a0\n 32117: a0 = u64 [s1 + 0x108]\n 32121: u64 [a4 + 0x80] = a0\n 32125: a0 = u64 [s1 + 0x110]\n 32129: u64 [a4 + 0xa0] = a0\n 32133: a1 = u64 [s1 + 0x180]\n 32137: u64 [a4 + 0x68] = a1\n 32140: a0 = u64 [s1 + 0xe0]\n 32144: u64 [a4 + 0x88] = a0\n 32148: a0 = u64 [s1 + 0x118]\n 32152: u64 [a4 + 0xa8] = a0\n 32156: u64 [a4 + 0x70] = a1\n 32159: a0 = u64 [s1 + 0xe8]\n 32163: u64 [a4 + 0x90] = a0\n 32167: a0 = u64 [s1 + 0x100]\n 32171: u64 [a4 + 0xb0] = a0\n 32175: u64 [a4 + 0x78] = a1\n 32178: a0 = u64 [s1 + 0xf0]\n 32182: u64 [a4 + 0x98] = a0\n 32186: a0 = s1 + 0x5a0\n 32190: a1 = s1 + 0x580\n 32194: a2 = s1 + 0x560\n 32198: a3 = u64 [s1 + 0xf8]\n 32202: u64 [a4 + 0xb8] = a3\n 32206: ra = 1352, jump @1367\n      : @1233 [@dyn 676] (gas: 7)\n 32212: a2 = s1 + 0x100\n 32216: a0 = u64 [a2 + 0x40]\n 32219: a0 = a0 + 0x1\n 32222: a1 = u64 [a2 + 0x78]\n 32225: a0 = a0 & a1\n 32228: u64 [a2 + 0x40] = a0\n 32231: fallthrough\n      : @1234 (gas: 6)\n 32232: a3 = 0\n 32234: a0 = u64 [s1 + 0x190]\n 32238: a0 = a0 + 0x1\n 32241: a1 = u64 [s1 + 0x178]\n 32245: a2 = a0 & a1\n 32248: jump @1184\n      : @1235 (gas: 2)\n 32251: a1 = a0 & 0x2\n 32254: jump @1316 if a1 != 0\n      : @1236 (gas: 5)\n 32258: a0 = a0 & 0xfd\n 32262: u64 [s1 + 0x188] = a0\n 32266: a0 = s1 + 0x17a0\n 32270: a1 = u64 [s1 + 0x190]\n 32274: ra = 1354, jump @26\n      : @1237 [@dyn 677] (gas: 19)\n 32280: a3 = s1 + 0x1118\n 32284: a4 = a3 + 0x600\n 32288: a0 = u64 [a4 + 0x88]\n 32292: a1 = u64 [a4 + 0x90]\n 32296: a2 = u64 [a4 + 0x98]\n 32300: a3 = u64 [a4 + 0xa0]\n 32304: a0 = a0 & 0xffffffffffffff00\n 32308: a4 = u64 [s1 + 0x188]\n 32312: a0 = a0 | a4\n 32315: a0 = a0 + 0x2\n 32318: a4 = s1 + 0x2918\n 32322: a5 = a4 + 0x300\n 32326: u64 [a5 + 0xc0] = a3\n 32330: u64 [a5 + 0xb8] = a2\n 32334: u64 [a5 + 0xb0] = a1\n 32338: u64 [a5 + 0xa8] = a0\n 32342: a1 = s1 + 0x2cc0\n 32346: a0 = u64 [s1 + 0x190]\n 32350: ra = 1356, jump @30\n      : @1238 [@dyn 678] (gas: 6)\n 32356: a0 = u64 [s1 + 0x100]\n 32360: ra = 0x54e\n 32364: ecalli 4 // 'caller'\n 32366: a2 = u64 [s1 + 0x108]\n 32370: t0 = 0x550\n 32374: jump @1515\n      : @1239 [@dyn 679] (gas: 2)\n 32377: a2 = u64 [s1 + 0x108]\n 32381: t0 = 1360, jump @1515\n      : @1240 [@dyn 680] (gas: 38)\n 32387: a0 = a0 | a1\n 32390: a3 = a3 >> 0x20\n 32393: a2 = reverse a2\n 32395: a1 = a2 << 0x20\n 32398: a1 = a1 | a3\n 32401: a2 = a2 >> 0x20\n 32404: a5 = s1 + 0x1118\n 32408: u64 [a5 + 1568] = 0\n 32412: u64 [a5 + 1560] = 0\n 32416: u64 [a5 + 1552] = 0\n 32420: a3 = u64 [s1 + 0x198]\n 32424: u64 [a5 + 0x608] = a3\n 32428: a3 = u64 [s1 + 0xf8]\n 32432: u64 [a5 + 0x628] = a3\n 32436: a3 = u64 [0x20080]\n 32441: a4 = u64 [0x20088]\n 32446: u64 [a5 + 1600] = 0\n 32450: u64 [a5 + 1592] = 0\n 32454: u64 [a5 + 0x680] = a3\n 32458: u64 [a5 + 0x678] = a4\n 32462: a3 = u64 [0x20090]\n 32467: a4 = u64 [0x20098]\n 32472: u64 [a5 + 1584] = 0\n 32476: u64 [a5 + 1632] = 0\n 32480: u64 [a5 + 0x670] = a3\n 32484: a3 = a5 + 0x600\n 32488: u64 [a3 + 0x68] = a4\n 32491: u64 [a3 + 0x58] = a2\n 32494: u64 [a3 + 0x50] = a1\n 32497: a1 = a5\n 32499: a2 = s1 + 0x1780\n 32503: a3 = s1 + 0x1760\n 32507: a4 = s1 + 0x1740\n 32511: a5 = s1 + 0x1720\n 32515: u64 [a1 + 0x648] = a0\n 32519: a0 = 0\n 32521: a1 = 0\n 32523: ra = 1362, jump @36\n      : @1241 [@dyn 681] (gas: 5)\n 32529: a0 = 0\n 32531: a1 = u64 [s1 + 0x110]\n 32535: a2 = 0\n 32537: ecalli 13 // 'seal_return'\n 32539: jump @986\n      : @1242 (gas: 11)\n 32542: a2 = s1 + 0x7ff\n 32546: a2 = a2 + 0x119\n 32550: u64 [a2 + 1496] = 0\n 32554: u64 [a2 + 1488] = 0\n 32558: a0 = 0x7862e95900000000\n 32568: u64 [a2 + 0x5e0] = a0\n 32572: a1 = s1 + 0x7ff\n 32576: a1 = a1 + 0x6e1\n 32580: u64 [a2 + 1480] = 0\n 32584: a0 = 0\n 32586: ra = 1364, jump @24\n      : @1243 [@dyn 682] (gas: 2)\n 32592: a1 = i32 [0x20170]\n 32597: jump @1245 if a1 >u 31\n      : @1244 (gas: 3)\n 32601: u32 [0x20170] = 0x20\n 32607: a1 = 0x20180\n 32612: jump @871\n      : @1245 (gas: 2)\n 32615: a1 = 0x20180\n 32620: jump @871\n      : @1246 (gas: 2)\n 32623: u64 [s1 + 320] = 0\n 32627: fallthrough\n      : @1247 (gas: 7)\n 32628: a2 = s1 + 0x100\n 32632: a0 = u64 [a2 + 0x68]\n 32635: a0 = a0 << 0x1\n 32638: a1 = u64 [a2 + 0x40]\n 32641: a0 = a0 | a1\n 32644: u64 [a2] = a0\n 32646: fallthrough\n      : @1248 (gas: 10)\n 32647: u64 [s1 + 384] = 0\n 32651: a3 = 0\n 32653: a0 = u64 [s1 + 0x148]\n 32657: a1 = u64 [s1 + 0xa8]\n 32661: a0 = a0 & a1\n 32664: u64 [s1 + 0xe8] = a0\n 32668: a0 = 0xffffffff00000000\n 32678: u64 [s1 + 0xe0] = a0\n 32682: a2 = 0x1\n 32685: fallthrough\n      : @1249 (gas: 11)\n 32686: a1 = 0\n 32688: a1 = 0 if a3 == 0\n 32690: a0 = u64 [s1 + 0xe8]\n 32694: u64 [s1 + 0x150] = a2\n 32698: a0 = a0 <u a2\n 32701: a2 = 0\n 32703: a2 = a0 if a3 == 0\n 32706: u64 [s1 + 320] = 0\n 32710: a0 = 0\n 32712: a2 = a1 if a0 != 0\n 32715: jump @1251 if a2 == 0\n      : @1250 (gas: 1)\n 32718: jump @1112\n      : @1251 (gas: 6)\n 32721: a2 = s1 + 0x100\n 32725: a0 = u64 [a2 + 0x48]\n 32728: a1 = u64 [a2 + 0x80]\n 32732: a0 = a0 & a1\n 32735: a1 = u64 [a2 + 0x10]\n 32738: jump @1253 if a0 <u a1\n      : @1252 (gas: 1)\n 32741: jump @1112\n      : @1253 (gas: 14)\n 32744: a2 = s1 + 0x7ff\n 32748: a2 = a2 + 0x119\n 32752: u64 [a2 + 1376] = 0\n 32756: a0 = u64 [s1 + 0x130]\n 32760: a3 = a2 + 0x500\n 32764: u64 [a3 + 0x48] = a0\n 32767: a0 = u64 [s1 + 0x138]\n 32771: u64 [a3 + 0x50] = a0\n 32774: a1 = s1 + 0x7ff\n 32778: a1 = a1 + 0x661\n 32782: a0 = u64 [s1 + 0x108]\n 32786: u64 [a3 + 0x58] = a0\n 32789: a0 = 0\n 32791: ra = 1366, jump @24\n      : @1254 [@dyn 683] (gas: 11)\n 32797: a0 = s1 + 0x7ff\n 32801: a0 = a0 + 0x119\n 32805: u64 [a0 + 1344] = 0\n 32809: u64 [a0 + 1336] = 0\n 32813: u64 [a0 + 1328] = 0\n 32817: a3 = a0\n 32819: a0 = 0x20\n 32822: a1 = s1 + 0x7ff\n 32826: a1 = a1 + 0x641\n 32830: u64 [a3 + 1320] = 0x1\n 32835: ra = 1368, jump @24\n      : @1255 [@dyn 684] (gas: 1)\n 32841: t0 = 1370, jump @1551\n      : @1256 [@dyn 685] (gas: 1)\n 32847: jump @1258 if a1 <u a0\n      : @1257 (gas: 1)\n 32850: t0 = 1372, jump @1583\n      : @1258 [@dyn 686] (gas: 4)\n 32856: a0 = sp + 0xffffffffffffffe0\n 32859: a0 = a0 & 0xffffffffffffffe0\n 32862: u64 [s1 + 0x188] = a0\n 32866: t0 = 1374, jump @1513\n      : @1259 [@dyn 687] (gas: 5)\n 32872: ra = 0x560\n 32876: ecalli 8 // 'hash_keccak_256'\n 32878: a3 = u64 [s1 + 0x188]\n 32882: t0 = 0x562\n 32886: jump @1517\n      : @1260 [@dyn 688] (gas: 2)\n 32889: a3 = u64 [s1 + 0x188]\n 32893: t0 = 1378, jump @1517\n      : @1261 [@dyn 689] (gas: 15)\n 32899: u64 [s1 + 0x188] = a0\n 32903: sp = a0\n 32905: a2 = s1 + 0x7ff\n 32909: a2 = a2 + 0x119\n 32913: a0 = u64 [s1 + 0x140]\n 32917: a3 = a2 + 0x500\n 32921: u64 [a3 + 0x20] = a0\n 32924: u64 [a3 + 0x18] = a0\n 32927: u64 [a3 + 0x10] = a0\n 32930: a1 = s1 + 0x7ff\n 32934: a1 = a1 + 0x621\n 32938: a0 = u64 [s1 + 0x150]\n 32942: u64 [a3 + 0x8] = a0\n 32945: a0 = 0\n 32947: ra = 1380, jump @24\n      : @1262 [@dyn 690] (gas: 15)\n 32953: a0 = u64 [s1 + 0x160]\n 32957: a1 = s1 + 0x7ff\n 32961: a1 = a1 + 0x119\n 32965: u64 [a1 + 0x500] = a0\n 32969: a0 = u64 [s1 + 0x168]\n 32973: u64 [a1 + 0x4f8] = a0\n 32977: a0 = u64 [s1 + 0x170]\n 32981: u64 [a1 + 0x4f0] = a0\n 32985: a3 = a1\n 32987: a0 = 0x20\n 32990: a1 = s1 + 0x7ff\n 32994: a1 = a1 + 0x601\n 32998: a2 = u64 [s1 + 0x178]\n 33002: u64 [a3 + 0x4e8] = a2\n 33006: ra = 1382, jump @24\n      : @1263 [@dyn 691] (gas: 1)\n 33012: t0 = 1384, jump @1551\n      : @1264 [@dyn 692] (gas: 1)\n 33018: jump @1266 if a1 <u a0\n      : @1265 (gas: 1)\n 33021: t0 = 1386, jump @1576\n      : @1266 [@dyn 693] (gas: 4)\n 33027: a0 = sp + 0xffffffffffffffe0\n 33030: a0 = a0 & 0xffffffffffffffe0\n 33033: u64 [s1 + 0x178] = a0\n 33037: t0 = 1388, jump @1513\n      : @1267 [@dyn 694] (gas: 5)\n 33043: ra = 0x56e\n 33047: ecalli 8 // 'hash_keccak_256'\n 33049: a3 = u64 [s1 + 0x178]\n 33053: t0 = 0x570\n 33057: jump @1566\n      : @1268 [@dyn 695] (gas: 2)\n 33060: a3 = u64 [s1 + 0x178]\n 33064: t0 = 1392, jump @1566\n      : @1269 [@dyn 696] (gas: 13)\n 33070: a3 = s1 + 0x100\n 33074: a1 = u64 [a3 + 0x88]\n 33078: u64 [a3 + 0x70] = a2\n 33081: u64 [a1 + 0x18] = a2\n 33084: u64 [a3 + 0x78] = a0\n 33087: u64 [a1 + 0x10] = a0\n 33090: u64 [a3 + 0x68] = a4\n 33093: u64 [a1 + 0x8] = a4\n 33096: u64 [a3 + 0x60] = a5\n 33099: u64 [a1] = a5\n 33101: a0 = s1 + 0x7ff\n 33105: a0 = a0 + 0x5e1\n 33109: ra = 1394, jump @26\n      : @1270 [@dyn 697] (gas: 13)\n 33115: a2 = s1 + 0x7ff\n 33119: a2 = a2 + 0x119\n 33123: a3 = a2 + 0x400\n 33127: a0 = u64 [a3 + 0xd0]\n 33131: a1 = u64 [a3 + 0xd8]\n 33135: a2 = u64 [a3 + 0xc8]\n 33139: a0 = a0 & 0xffffffffffffffff\n 33142: a1 = a1 & 0xffffffffffffffff\n 33145: a3 = u64 [s1 + 0xe0]\n 33149: a2 = a2 & a3\n 33152: a1 = a1 | a2\n 33155: a0 = a0 | a1\n 33158: jump @1273 if a0 == 0\n      : @1271 (gas: 27)\n 33161: a5 = s1 + 0x100\n 33165: a0 = u64 [a5 + 0x60]\n 33168: a2 = a0 + 0x2\n 33171: a0 = a2 <u a0\n 33174: a1 = u64 [a5 + 0x68]\n 33177: a3 = a1 + a0\n 33180: a1 = a3 <u a1\n 33183: a1 = a0 if a0 == 0\n 33186: a0 = u64 [a5 + 0x78]\n 33189: a4 = a0 + a1\n 33192: a0 = a4 <u a0\n 33195: a1 = u64 [a5 + 0x70]\n 33198: a1 = a1 + a0\n 33201: a0 = s1 + 0x2918\n 33205: u64 [a5 + 0x88] = a2\n 33209: u64 [a0 + 0x1c8] = a2\n 33213: u64 [a5 + 0x78] = a3\n 33216: a2 = a0 + 0x100\n 33220: u64 [a2 + 0xd0] = a3\n 33224: u64 [a5 + 0x70] = a4\n 33227: u64 [a2 + 0xd8] = a4\n 33231: u64 [a5 + 0x68] = a1\n 33234: u64 [a2 + 0xe0] = a1\n 33238: a0 = s1 + 0x7ff\n 33242: a0 = a0 + 0x5c1\n 33246: a1 = s1 + 0x2ae0\n 33250: ra = 1396, jump @26\n      : @1272 [@dyn 698] (gas: 5)\n 33256: a0 = s1 + 0x7ff\n 33260: a0 = a0 + 0x119\n 33264: a0 = u64 [a0 + 0x4b0]\n 33268: a0 = a0 & 0xff\n 33272: jump @1274 if a0 == 0\n      : @1273 (gas: 6)\n 33275: a3 = 0\n 33277: a0 = u64 [s1 + 0x150]\n 33281: a0 = a0 + 0x1\n 33284: a1 = u64 [s1 + 0x148]\n 33288: a2 = a0 & a1\n 33291: jump @1249\n      : @1274 (gas: 15)\n 33294: a0 = s1 + 0x2918\n 33298: a2 = s1 + 0x100\n 33302: a1 = u64 [a2 + 0x88]\n 33306: a3 = a0 + 0x100\n 33310: u64 [a3 + 0xe8] = a1\n 33314: a1 = u64 [a2 + 0x78]\n 33317: u64 [a3 + 0xf0] = a1\n 33321: a1 = u64 [a2 + 0x70]\n 33324: u64 [a3 + 0xf8] = a1\n 33328: a1 = u64 [a2 + 0x68]\n 33331: u64 [a0 + 0x200] = a1\n 33335: a0 = s1 + 0x7ff\n 33339: a0 = a0 + 0x5a1\n 33343: a1 = s1 + 0x2b00\n 33347: ra = 1398, jump @26\n      : @1275 [@dyn 699] (gas: 14)\n 33353: a3 = s1 + 0x7ff\n 33357: a3 = a3 + 0x119\n 33361: a0 = u64 [a3 + 0x488]\n 33365: a4 = a0 & 0xffffffffffffffff\n 33368: a1 = u64 [s1 + 0xb8]\n 33372: a0 = a4 <u a1\n 33375: a4 = a1 if a0 != 0\n 33378: t0 = u64 [s1 + 0xd0]\n 33382: t0 = 0 if a0 == 0\n 33384: a5 = u64 [s1 + 0xc8]\n 33388: a5 = 0 if a0 == 0\n 33390: a1 = u64 [s1 + 0xc0]\n 33394: a1 = 0 if a0 == 0\n 33396: fallthrough\n      : @1276 (gas: 3)\n 33397: a2 = a4 & 0xffffffffffffffff\n 33400: a0 = u64 [s1 + 0x100]\n 33404: jump @1273 if a2 >=u a0\n      : @1277 (gas: 11)\n 33408: u64 [s1 + 0x178] = a2\n 33412: a2 = s1 + 0x100\n 33416: u64 [a2 + 0x18] = a1\n 33419: u64 [a2 + 0x20] = a5\n 33422: u64 [s1 + 0x128] = t0\n 33426: u64 [a2 + 0x88] = a4\n 33430: a0 = u64 [a2 + 0x48]\n 33433: a1 = u64 [a2 + 0x80]\n 33437: a0 = a0 & a1\n 33440: a1 = u64 [a2 + 0x10]\n 33443: jump @1273 if a0 >=u a1\n      : @1278 (gas: 12)\n 33447: u64 [a3 + 1152] = 0\n 33451: a0 = u64 [s1 + 0x130]\n 33455: a2 = a3 + 0x400\n 33459: u64 [a2 + 0x68] = a0\n 33462: a0 = u64 [s1 + 0x138]\n 33466: u64 [a2 + 0x70] = a0\n 33469: a1 = s1 + 0x7ff\n 33473: a1 = a1 + 0x581\n 33477: a0 = u64 [s1 + 0x108]\n 33481: u64 [a2 + 0x78] = a0\n 33484: a0 = 0\n 33486: ra = 1400, jump @24\n      : @1279 [@dyn 700] (gas: 11)\n 33493: a0 = s1 + 0x7ff\n 33497: a0 = a0 + 0x119\n 33501: u64 [a0 + 1120] = 0\n 33505: u64 [a0 + 1112] = 0\n 33509: u64 [a0 + 1104] = 0\n 33513: a3 = a0\n 33515: a0 = 0x20\n 33518: a1 = s1 + 0x7ff\n 33522: a1 = a1 + 0x561\n 33526: u64 [a3 + 1096] = 0x3\n 33531: ra = 1402, jump @24\n      : @1280 [@dyn 701] (gas: 3)\n 33538: a1 = u64 [s1 + 0x198]\n 33542: a0 = i32 [a1]\n 33544: jump @1282 if a0 >u 63\n      : @1281 (gas: 2)\n 33548: u32 [a1 + 0] = 0x40\n 33551: fallthrough\n      : @1282 (gas: 4)\n 33552: a0 = sp + 0xffffffffffffffe0\n 33555: a0 = a0 & 0xffffffffffffffe0\n 33558: u64 [s1 + 0x170] = a0\n 33562: t0 = 1404, jump @1513\n      : @1283 [@dyn 702] (gas: 4)\n 33568: ra = 0x57e\n 33572: ecalli 8 // 'hash_keccak_256'\n 33574: t0 = 0x580\n 33578: jump @1518\n      : @1284 [@dyn 703] (gas: 1)\n 33581: t0 = 1408, jump @1518\n      : @1285 [@dyn 704] (gas: 11)\n 33587: a2 = s1 + 0x7ff\n 33591: a2 = a2 + 0x119\n 33595: u64 [a2 + 1088] = 0\n 33599: u64 [a2 + 1080] = 0\n 33603: u64 [a2 + 1072] = 0\n 33607: a1 = s1 + 0x7ff\n 33611: a1 = a1 + 0x541\n 33615: a0 = u64 [s1 + 0x178]\n 33619: u64 [a2 + 0x428] = a0\n 33623: a0 = 0\n 33625: ra = 1410, jump @24\n      : @1286 [@dyn 705] (gas: 1)\n 33632: t0 = 1412, jump @1572\n      : @1287 [@dyn 706] (gas: 2)\n 33638: a2 = a1 + 0x400\n 33642: t0 = 1414, jump @1533\n      : @1288 [@dyn 707] (gas: 4)\n 33648: a1 = a1 + 0x521\n 33652: a2 = u64 [s1 + 0x170]\n 33656: u64 [a3 + 0x408] = a2\n 33660: ra = 1416, jump @24\n      : @1289 [@dyn 708] (gas: 3)\n 33667: a1 = u64 [s1 + 0x198]\n 33671: a0 = i32 [a1]\n 33673: jump @1291 if a0 >u 63\n      : @1290 (gas: 2)\n 33677: u32 [a1 + 0] = 0x40\n 33680: fallthrough\n      : @1291 (gas: 4)\n 33681: a0 = sp + 0xffffffffffffffe0\n 33684: a0 = a0 & 0xffffffffffffffe0\n 33687: u64 [s1 + 0x178] = a0\n 33691: t0 = 1418, jump @1513\n      : @1292 [@dyn 709] (gas: 31)\n 33697: ecalli 8 // 'hash_keccak_256'\n 33699: a3 = u64 [s1 + 0x178]\n 33703: a0 = u64 [a3 + 0x18]\n 33706: a1 = u64 [a3 + 0x10]\n 33709: a2 = u64 [a3 + 0x8]\n 33712: a3 = u64 [a3]\n 33714: a0 = reverse a0\n 33716: u64 [s1 + 0x170] = a0\n 33720: a0 = reverse a1\n 33722: u64 [s1 + 0x168] = a0\n 33726: a0 = reverse a2\n 33728: u64 [s1 + 0x160] = a0\n 33732: a0 = reverse a3\n 33734: u64 [s1 + 0x158] = a0\n 33738: a0 = sp + 0xffffffffffffffe0\n 33741: a0 = a0 & 0xffffffffffffffe0\n 33744: u64 [s1 + 0x178] = a0\n 33748: sp = a0\n 33750: a2 = s1 + 0x7ff\n 33754: a2 = a2 + 0x119\n 33758: a0 = u64 [s1 + 0x140]\n 33762: u64 [a2 + 0x400] = a0\n 33766: a3 = a2 + 0x300\n 33770: u64 [a3 + 0xf8] = a0\n 33774: u64 [a3 + 0xf0] = a0\n 33778: a1 = s1 + 0x7ff\n 33782: a1 = a1 + 0x501\n 33786: a0 = u64 [s1 + 0x150]\n 33790: u64 [a3 + 0xe8] = a0\n 33794: a0 = 0\n 33796: ra = 1420, jump @24\n      : @1293 [@dyn 710] (gas: 1)\n 33803: t0 = 1422, jump @1572\n      : @1294 [@dyn 711] (gas: 2)\n 33809: a2 = a1 + 0x300\n 33813: t0 = 1424, jump @1584\n      : @1295 [@dyn 712] (gas: 5)\n 33819: a1 = s1 + 0x7ff\n 33823: a1 = a1 + 0x4e1\n 33827: a2 = u64 [s1 + 0x170]\n 33831: u64 [a3 + 0x3c8] = a2\n 33835: ra = 1426, jump @24\n      : @1296 [@dyn 713] (gas: 3)\n 33842: a1 = u64 [s1 + 0x198]\n 33846: a0 = i32 [a1]\n 33848: jump @1298 if a0 >u 63\n      : @1297 (gas: 2)\n 33852: u32 [a1 + 0] = 0x40\n 33855: fallthrough\n      : @1298 (gas: 4)\n 33856: a0 = sp + 0xffffffffffffffe0\n 33859: a0 = a0 & 0xffffffffffffffe0\n 33862: u64 [s1 + 0x170] = a0\n 33866: t0 = 1428, jump @1513\n      : @1299 [@dyn 714] (gas: 5)\n 33872: ra = 0x596\n 33876: ecalli 8 // 'hash_keccak_256'\n 33878: a3 = u64 [s1 + 0x170]\n 33882: t0 = 0x598\n 33886: jump @1535\n      : @1300 [@dyn 715] (gas: 2)\n 33889: a3 = u64 [s1 + 0x170]\n 33893: t0 = 1432, jump @1535\n      : @1301 [@dyn 716] (gas: 8)\n 33899: a1 = u64 [s1 + 0x178]\n 33903: u64 [a1 + 0x18] = a3\n 33906: u64 [a1 + 0x10] = a2\n 33909: u64 [a1 + 0x8] = a4\n 33912: u64 [a1] = a0\n 33914: a0 = s1 + 0x7ff\n 33918: a0 = a0 + 0x4c1\n 33922: ra = 1434, jump @26\n      : @1302 [@dyn 717] (gas: 5)\n 33929: a3 = s1 + 0x7ff\n 33933: a3 = a3 + 0x119\n 33937: a0 = u64 [a3 + 0x3a8]\n 33941: a0 = a0 & 0x5\n 33944: jump @1305 if a0 != 1\n      : @1303 (gas: 30)\n 33949: a0 = u64 [s1 + 0x150]\n 33953: a5 = a3 + 0x300\n 33957: u64 [a5 + 0x48] = a0\n 33960: a0 = u64 [s1 + 0x188]\n 33964: u64 [a5 + 0x68] = a0\n 33967: a0 = u64 [s1 + 0x130]\n 33971: u64 [a5 + 0x88] = a0\n 33975: a1 = u64 [s1 + 0x140]\n 33979: u64 [a5 + 0x50] = a1\n 33982: a0 = u64 [s1 + 0x118]\n 33986: u64 [a5 + 0x70] = a0\n 33989: a0 = u64 [s1 + 0x138]\n 33993: u64 [a5 + 0x90] = a0\n 33997: u64 [a5 + 0x58] = a1\n 34000: a0 = u64 [s1 + 0x120]\n 34004: u64 [a5 + 0x78] = a0\n 34007: a0 = u64 [s1 + 0xf0]\n 34011: u64 [a5 + 0x98] = a0\n 34015: u64 [a5 + 0x60] = a1\n 34018: a0 = u64 [s1 + 0x128]\n 34022: u64 [a5 + 0x80] = a0\n 34026: a0 = s1 + 0x7ff\n 34030: a0 = a0 + 0x4a1\n 34034: a1 = s1 + 0x7ff\n 34038: a1 = a1 + 0x481\n 34042: a2 = s1 + 0x7ff\n 34046: a2 = a2 + 0x461\n 34050: a4 = u64 [s1 + 0xf8]\n 34054: u64 [a5 + 0xa0] = a4\n 34058: ra = 1436, jump @1367\n      : @1304 [@dyn 718] (gas: 10)\n 34064: a2 = s1 + 0x100\n 34068: a4 = u64 [a2 + 0x88]\n 34072: a3 = s1 + 0x7ff\n 34076: a3 = a3 + 0x119\n 34080: a0 = u64 [a2 + 0x80]\n 34084: a0 = a0 + 0x1\n 34087: a1 = u64 [a2 + 0x48]\n 34090: a0 = a0 & a1\n 34093: u64 [a2 + 0x80] = a0\n 34097: jump @1306\n      : @1305 (gas: 2)\n 34099: a4 = u64 [s1 + 0x188]\n 34103: fallthrough\n      : @1306 (gas: 6)\n 34104: a1 = 0\n 34106: a5 = 0\n 34108: t0 = 0\n 34110: a0 = a4 + 0x1\n 34113: a4 = a0 & 0xffffffffffffffff\n 34116: jump @1276\n      : @1307 (gas: 8)\n 34119: u64 [s1 + 2032] = 0\n 34123: u64 [s1 + 2024] = 0\n 34127: u64 [s1 + 2016] = 0\n 34131: a0 = 0xcf114bd900000000\n 34141: a1 = s1 + 0x7e0\n 34145: u64 [s1 + 0x7f8] = a0\n 34149: a0 = 0\n 34151: ra = 1438, jump @24\n      : @1308 [@dyn 719] (gas: 2)\n 34158: a1 = i32 [0x20170]\n 34163: jump @1310 if a1 >u 31\n      : @1309 (gas: 3)\n 34167: u32 [0x20170] = 0x20\n 34173: a1 = 0x20180\n 34178: jump @871\n      : @1310 (gas: 2)\n 34181: a1 = 0x20180\n 34186: jump @871\n      : @1311 (gas: 8)\n 34189: u64 [s1 + 2000] = 0\n 34193: u64 [s1 + 1992] = 0\n 34197: u64 [s1 + 1984] = 0\n 34201: a0 = 0x7862e95900000000\n 34211: a1 = s1 + 0x7c0\n 34215: u64 [s1 + 0x7d8] = a0\n 34219: a0 = 0\n 34221: ra = 1440, jump @24\n      : @1312 [@dyn 720] (gas: 2)\n 34228: a1 = i32 [0x20170]\n 34233: jump @1314 if a1 >u 31\n      : @1313 (gas: 3)\n 34237: u32 [0x20170] = 0x20\n 34243: a1 = 0x20180\n 34248: jump @871\n      : @1314 (gas: 2)\n 34251: a1 = 0x20180\n 34256: jump @871\n      : @1315 (gas: 5)\n 34259: a0 = 0\n 34261: a1 = u64 [s1 + 0x188]\n 34265: a2 = 0\n 34267: ecalli 13 // 'seal_return'\n 34269: jump @986\n      : @1316 (gas: 3)\n 34272: t0 = 0x5a2\n 34276: a2 = s1 + 0x1118\n 34280: fallthrough\n      : @1317 [@dyn 721] (gas: 8)\n 34281: u64 [a2 + 1720] = 0\n 34285: u64 [a2 + 1712] = 0\n 34289: a0 = 0xc98289f000000000\n 34299: u64 [a2 + 0x6c0] = a0\n 34303: a1 = s1 + 0x17c0\n 34307: u64 [a2 + 1704] = 0\n 34311: a0 = 0\n 34313: ra = 1444, jump @24\n      : @1318 [@dyn 722] (gas: 3)\n 34320: a0 = u64 [s1 + 0x118]\n 34324: a0 = i32 [a0]\n 34326: jump @1320 if a0 >u 31\n      : @1319 (gas: 3)\n 34330: a1 = u64 [s1 + 0x118]\n 34334: u32 [a1 + 0] = 0x20\n 34337: fallthrough\n      : @1320 (gas: 7)\n 34338: a0 = 0x1\n 34341: a2 = 0x4\n 34344: a1 = u64 [s1 + 0x110]\n 34348: ra = 0x5a6\n 34352: ecalli 13 // 'seal_return'\n 34354: t0 = 0x5a8\n 34358: jump @1570\n      : @1321 [@dyn 723] (gas: 1)\n 34361: t0 = 1448, jump @1570\n      : @1322 [@dyn 724] (gas: 2)\n 34367: ecalli 2 // 'call_data_load'\n 34369: fallthrough\n      : @1323 (gas: 10)\n 34370: a0 = u64 [sp + 0x10]\n 34373: a1 = u64 [sp + 0x18]\n 34376: a2 = 0x100000000\n 34386: a2 = a2 ^ a0\n 34389: a2 = a2 | a1\n 34392: a3 = a0 >> 0x20\n 34395: a3 = a3 <u 0x1\n 34398: a3 = 0 if a1 != 0\n 34400: a3 = 0 if a2 == 0\n 34402: jump @1325 if a3 == 0\n      : @1324 (gas: 12)\n 34405: a2 = u64 [sp]\n 34407: a3 = u64 [sp + 0x8]\n 34410: u64 [s1] = a2\n 34412: u64 [s1 + 0x8] = a3\n 34415: u64 [s1 + 0x10] = a0\n 34418: u64 [s1 + 0x18] = a1\n 34421: sp = s0 + 0xffffffffffffffc0\n 34424: ra = u64 [sp + 0x38]\n 34427: s0 = u64 [sp + 0x30]\n 34430: s1 = u64 [sp + 0x28]\n 34433: sp = sp + 0x40\n 34436: ret\n      : @1325 (gas: 8)\n 34438: a1 = 0x20180\n 34443: i32 a1 = a1 + 0\n 34445: a0 = 0x1\n 34448: a2 = 0\n 34450: ra = 0x5aa\n 34454: ecalli 13 // 'seal_return'\n 34456: t0 = 0x5ac\n 34460: jump @1585\n      : @1326 [@dyn 725] (gas: 1)\n 34463: t0 = 1452, jump @1585\n      : @1327 [@dyn 726] (gas: 3)\n 34469: a1 = 0x24\n 34472: ecalli 2 // 'call_data_load'\n 34474: fallthrough\n      : @1328 (gas: 7)\n 34475: a0 = u64 [sp + 0x18]\n 34478: a1 = u64 [sp + 0x10]\n 34481: a2 = u64 [sp + 0x8]\n 34484: a3 = a1 | a0\n 34487: a4 = a2 <u 0x1\n 34490: a4 = 0 if a3 != 0\n 34492: jump @1331 if a4 == 0\n      : @1329 (gas: 2)\n 34495: a3 = u64 [sp]\n 34497: t0 = 1454, jump @1545\n      : @1330 [@dyn 727] (gas: 1)\n 34503: ret\n      : @1331 (gas: 8)\n 34505: a1 = 0x20180\n 34510: i32 a1 = a1 + 0\n 34512: a0 = 0x1\n 34515: a2 = 0\n 34517: ra = 0x5b0\n 34521: ecalli 13 // 'seal_return'\n 34523: t0 = 0x5b2\n 34527: jump @1585\n      : @1332 [@dyn 728] (gas: 1)\n 34530: t0 = 1458, jump @1585\n      : @1333 [@dyn 729] (gas: 5)\n 34536: a1 = 0x44\n 34539: ra = 0x5b4\n 34543: ecalli 2 // 'call_data_load'\n 34545: t0 = 0x5b6\n 34549: jump @1559\n      : @1334 [@dyn 730] (gas: 1)\n 34552: t0 = 1462, jump @1559\n      : @1335 [@dyn 731] (gas: 1)\n 34558: jump @1338 if a4 != 0\n      : @1336 (gas: 1)\n 34561: t0 = 1464, jump @1545\n      : @1337 [@dyn 732] (gas: 1)\n 34567: ret\n      : @1338 (gas: 8)\n 34569: a1 = 0x20180\n 34574: i32 a1 = a1 + 0\n 34576: a0 = 0x1\n 34579: a2 = 0\n 34581: ra = 0x5ba\n 34585: ecalli 13 // 'seal_return'\n 34587: t0 = 0x5bc\n 34591: jump @1570\n      : @1339 [@dyn 733] (gas: 1)\n 34594: t0 = 1468, jump @1570\n      : @1340 [@dyn 734] (gas: 4)\n 34600: ra = 0x5be\n 34604: ecalli 2 // 'call_data_load'\n 34606: t0 = 0x5c0\n 34610: jump @1559\n      : @1341 [@dyn 735] (gas: 1)\n 34613: t0 = 1472, jump @1559\n      : @1342 [@dyn 736] (gas: 1)\n 34619: jump @1345 if a4 != 0\n      : @1343 (gas: 1)\n 34622: t0 = 1474, jump @1545\n      : @1344 [@dyn 737] (gas: 1)\n 34628: ret\n      : @1345 (gas: 7)\n 34630: a1 = 0x20180\n 34635: i32 a1 = a1 + 0\n 34637: a0 = 0x1\n 34640: a2 = 0\n 34642: ra = 0x5c4\n 34646: ecalli 13 // 'seal_return'\n 34648: fallthrough\n      : @1346 [@dyn 738] (gas: 33)\n 34649: sp = sp + 0xffffffffffffffa0\n 34652: u64 [sp + 0x58] = ra\n 34655: u64 [sp + 0x50] = s0\n 34658: u64 [sp + 0x48] = s1\n 34661: s0 = sp + 0x60\n 34664: sp = sp & 0xfffffffffffffff0\n 34667: a2 = u64 [a1 + 0x10]\n 34670: a5 = u64 [a1 + 0x8]\n 34673: a4 = u64 [a1]\n 34675: a1 = u64 [a1 + 0x18]\n 34678: t0 = a2 << 0x3f\n 34681: a3 = a5 >> 0x1\n 34684: t0 = a3 | t0\n 34687: a3 = a1 << 0x3f\n 34690: a2 = a2 >> 0x1\n 34693: a3 = a3 | a2\n 34696: a5 = a5 << 0x3f\n 34699: a2 = a4 >> 0x1\n 34702: a5 = a5 | a2\n 34705: t1 = a1 >> 0x1\n 34708: a4 = a4 & 0x1\n 34711: a1 = -a4\n 34713: s1 = a4 <u 0x1\n 34716: a2 = a5 & 0x7f\n 34719: t2 = a1 & a3\n 34722: a3 = a1 & t0\n 34725: a2 = a5 if a4 != 0\n 34728: a4 = a1 & t1\n 34731: a1 = a2 <u 0x20\n 34734: a1 = 0 if a3 != 0\n 34736: a5 = t2 | a4\n 34739: a1 = 0 if a5 != 0\n 34741: jump @1349 if s1 != a1\n      : @1347 (gas: 5)\n 34744: u64 [a0] = a2\n 34746: u64 [a0 + 0x8] = a3\n 34749: u64 [a0 + 0x10] = t2\n 34752: u64 [a0 + 0x18] = a4\n 34755: t0 = 1478, jump @1571\n      : @1348 [@dyn 739] (gas: 1)\n 34761: ret\n      : @1349 (gas: 1)\n 34763: t0 = 1480, jump @1567\n      : @1350 [@dyn 740] (gas: 1)\n 34769: ra = 1482, jump @24\n      : @1351 [@dyn 741] (gas: 7)\n 34776: u64 [sp + 24] = 0\n 34779: u64 [sp + 16] = 0\n 34782: u64 [sp + 0] = 0x22\n 34785: a0 = 0x4\n 34788: a1 = sp\n 34790: u64 [sp + 8] = 0\n 34793: ra = 1484, jump @24\n      : @1352 [@dyn 742] (gas: 2)\n 34800: a1 = i32 [0x20170]\n 34805: jump @1354 if a1 >u 63\n      : @1353 (gas: 2)\n 34809: u32 [0x20170] = 0x40\n 34815: fallthrough\n      : @1354 (gas: 7)\n 34816: a1 = 0x20180\n 34821: i32 a1 = a1 + 0\n 34823: a0 = 0x1\n 34826: a2 = 0x24\n 34829: ra = 0x5ce\n 34833: ecalli 13 // 'seal_return'\n 34835: fallthrough\n      : @1355 [@dyn 743] (gas: 46)\n 34836: sp = sp + 0xffffffffffffff70\n 34840: u64 [sp + 0x88] = ra\n 34844: u64 [sp + 0x80] = s0\n 34848: u64 [sp + 0x78] = s1\n 34851: s0 = sp + 0x90\n 34855: sp = sp & 0xfffffffffffffff0\n 34858: t0 = a0\n 34860: a2 = u64 [a1]\n 34862: t2 = u64 [a0 + 0x8]\n 34865: a5 = u64 [a1 + 0x8]\n 34868: t1 = u64 [a0]\n 34870: a3 = a2 + 0x1f\n 34873: ra = a3 <u a2\n 34876: a2 = a5 + ra\n 34879: a3 = a3 & 0xffffffffffffffe0\n 34882: u64 [sp + 0x8] = t1\n 34885: t1 = t1 + a3\n 34888: a4 = t1 <u a3\n 34891: a3 = a2 + t2\n 34894: a3 = a3 + a4\n 34897: s1 = a3 ^ a2\n 34900: a0 = a3 <u a2\n 34903: a0 = a4 if s1 == 0\n 34906: a4 = u64 [t0 + 0x18]\n 34909: a5 = a2 <u a5\n 34912: s1 = u64 [a1 + 0x10]\n 34915: t0 = u64 [t0 + 0x10]\n 34918: a1 = u64 [a1 + 0x18]\n 34921: a5 = ra if ra == 0\n 34924: a5 = a5 + s1\n 34927: s1 = a5 <u s1\n 34930: a2 = a5 + t0\n 34933: a0 = a0 + a2\n 34936: a5 = a2 <u a5\n 34939: a2 = a0 <u a2\n 34942: a1 = a1 + a4\n 34945: a1 = a1 + s1\n 34948: a1 = a1 + a5\n 34951: a5 = a1 + a2\n 34954: a1 = a5 >u 0\n 34956: a2 = a0 >u 0\n 34958: a2 = a1 if a5 != 0\n 34961: a1 = a0 | a5\n 34964: s1 = a3 >u 0\n 34966: s1 = a2 if a1 != 0\n 34969: jump @1359 if s1 != 0\n      : @1356 (gas: 13)\n 34972: a1 = u64 [sp + 0x8]\n 34975: a1 = t1 <u a1\n 34978: a2 = a3 ^ t2\n 34981: s1 = a3 <u t2\n 34984: s1 = a1 if a2 == 0\n 34987: a1 = a0 <u t0\n 34990: a2 = a5 ^ a4\n 34993: a4 = a5 <u a4\n 34996: a4 = a1 if a2 == 0\n 34999: a1 = a0 ^ t0\n 35002: a1 = a1 | a2\n 35005: a4 = s1 if a1 == 0\n 35008: jump @1359 if a4 != 0\n      : @1357 (gas: 7)\n 35011: u64 [sp + 0x50] = t1\n 35014: u64 [sp + 0x58] = a3\n 35017: u64 [sp + 0x60] = a0\n 35020: a0 = 0x40\n 35023: a1 = sp + 0x50\n 35026: u64 [sp + 0x68] = a5\n 35029: ra = 1488, jump @24\n      : @1358 [@dyn 744] (gas: 6)\n 35036: sp = s0 + 0xffffffffffffff70\n 35040: ra = u64 [sp + 0x88]\n 35044: s0 = u64 [sp + 0x80]\n 35048: s1 = u64 [sp + 0x78]\n 35051: sp = sp + 0x90\n 35055: ret\n      : @1359 (gas: 8)\n 35057: u64 [sp + 64] = 0\n 35060: u64 [sp + 56] = 0\n 35063: u64 [sp + 48] = 0\n 35066: a0 = 0x4e487b7100000000\n 35076: a1 = sp + 0x30\n 35079: u64 [sp + 0x48] = a0\n 35082: a0 = 0\n 35084: ra = 1490, jump @24\n      : @1360 [@dyn 745] (gas: 7)\n 35091: u64 [sp + 40] = 0\n 35094: u64 [sp + 32] = 0\n 35097: u64 [sp + 16] = 0x41\n 35101: a0 = 0x4\n 35104: a1 = sp + 0x10\n 35107: u64 [sp + 24] = 0\n 35110: ra = 1492, jump @24\n      : @1361 [@dyn 746] (gas: 2)\n 35117: a1 = i32 [0x20170]\n 35122: jump @1363 if a1 >u 63\n      : @1362 (gas: 2)\n 35126: u32 [0x20170] = 0x40\n 35132: fallthrough\n      : @1363 (gas: 7)\n 35133: a1 = 0x20180\n 35138: i32 a1 = a1 + 0\n 35140: a0 = 0x1\n 35143: a2 = 0x24\n 35146: ra = 0x5d6\n 35150: ecalli 13 // 'seal_return'\n 35152: fallthrough\n      : @1364 [@dyn 747] (gas: 20)\n 35153: sp = sp + 0xffffffffffffff60\n 35157: u64 [sp + 0x98] = ra\n 35161: u64 [sp + 0x90] = s0\n 35165: u64 [sp + 0x88] = s1\n 35169: s0 = sp + 0xa0\n 35173: sp = sp & 0xffffffffffffffe0\n 35176: a2 = u64 [a1]\n 35178: u64 [sp + 0x18] = a2\n 35181: s1 = u64 [a1 + 0x8]\n 35184: a1 = u64 [a0 + 0x18]\n 35187: a2 = u64 [a0 + 0x10]\n 35190: a3 = u64 [a0 + 0x8]\n 35193: a0 = u64 [a0]\n 35195: u64 [sp + 0x58] = a1\n 35198: u64 [sp + 0x50] = a2\n 35201: u64 [sp + 0x48] = a3\n 35204: u64 [sp + 0x40] = a0\n 35207: a0 = sp + 0x20\n 35210: a1 = sp + 0x40\n 35213: ra = 1496, jump @26\n      : @1365 [@dyn 748] (gas: 10)\n 35220: a0 = u64 [sp + 0x28]\n 35223: a1 = u64 [sp + 0x20]\n 35226: u64 [sp + 0x78] = s1\n 35229: a2 = u64 [sp + 0x18]\n 35232: u64 [sp + 0x70] = a2\n 35235: u64 [sp + 0x68] = a0\n 35238: u64 [sp + 0x60] = a1\n 35241: a0 = sp + 0x40\n 35244: a1 = sp + 0x60\n 35247: ra = 1498, jump @30\n      : @1366 [@dyn 749] (gas: 6)\n 35254: sp = s0 + 0xffffffffffffff60\n 35258: ra = u64 [sp + 0x98]\n 35262: s0 = u64 [sp + 0x90]\n 35266: s1 = u64 [sp + 0x88]\n 35270: sp = sp + 0xa0\n 35274: ret\n      : @1367 (gas: 21)\n 35276: sp = sp + 0xfffffffffffff8e0\n 35280: a3 = sp + 0x700\n 35284: u64 [a3 + 0x18] = ra\n 35287: u64 [a3 + 0x10] = s0\n 35290: u64 [a3 + 0x8] = s1\n 35293: s0 = sp + 0x720\n 35297: sp = sp & 0xffffffffffffffe0\n 35300: s1 = sp\n 35302: a2 = u64 [a2]\n 35304: u64 [s1 + 0x28] = a2\n 35307: a1 = u64 [a1]\n 35309: u64 [s1 + 0x30] = a1\n 35312: a1 = u64 [a0 + 0x10]\n 35315: u64 [s1 + 0x20] = a1\n 35318: a1 = u64 [a0 + 0x8]\n 35321: u64 [s1 + 0x38] = a1\n 35324: a0 = u64 [a0]\n 35326: u64 [s1 + 0x40] = a0\n 35329: i32 a0 = s1 + 0x620\n 35333: ecalli 9 // 'now'\n 35335: fallthrough\n      : @1368 (gas: 48)\n 35336: t0 = u64 [s1 + 0x638]\n 35340: t1 = u64 [s1 + 0x630]\n 35344: a0 = u64 [s1 + 0x628]\n 35348: a4 = u64 [s1 + 0x620]\n 35352: u64 [s1 + 0x78] = a4\n 35355: a2 = clz t0\n 35357: a1 = clz t1\n 35359: a3 = a1 + 0x40\n 35362: a3 = a2 if t0 != 0\n 35365: a2 = clz a0\n 35367: a1 = clz a4\n 35369: a1 = a1 + 0x40\n 35372: a1 = a2 if a0 != 0\n 35375: a4 = a1 + 0x80\n 35379: a2 = t1 | t0\n 35382: a3 = a4 if a2 == 0\n 35385: a5 = a4 <u a1\n 35388: a5 = 0 if a2 != 0\n 35390: a4 = a5 >u 0\n 35392: a1 = a3 <u 0xf0\n 35396: a2 = a1 ^ 0x1\n 35399: a4 = a2 if a5 == 0\n 35402: t2 = a4 <u 0x1\n 35405: ra = t2 + 0xffffffffffffffff\n 35408: t2 = -a4\n 35410: a5 = -a5\n 35412: a2 = a5 - a2\n 35415: a1 = 0xef - a3\n 35419: u64 [s1 + 0xa8] = t2\n 35423: a3 = t2 >u 0\n 35425: a5 = ra >u 0\n 35427: a5 = a3 if ra == 0\n 35430: u64 [s1 + 0xb8] = a1\n 35434: a3 = a1 <u 0x100\n 35438: a3 = a3 ^ 0x1\n 35441: a1 = a2 >u 0\n 35443: a3 = a1 if a2 != 0\n 35446: a3 = a5 if a4 != 0\n 35449: t2 = a0\n 35451: a0 = u64 [s1 + 0x78]\n 35454: a1 = t2 | t0\n 35457: a4 = a0 | t1\n 35460: a1 = a1 | a4\n 35463: a1 = a1 <u 0x1\n 35466: a1 = a1 | a3\n 35469: a3 = a0\n 35471: a3 = 0 if a1 != 0\n 35473: jump @1384 if a1 != 0\n      : @1369 (gas: 7)\n 35477: a1 = u64 [s1 + 0xb8]\n 35481: a1 = a1 ^ 0xff\n 35485: a5 = u64 [s1 + 0xa8]\n 35489: a1 = a1 | a5\n 35492: a4 = a2 | ra\n 35495: a1 = a1 | a4\n 35498: jump @1384 if a1 == 0\n      : @1370 (gas: 21)\n 35502: a4 = u64 [s1 + 0xb8]\n 35506: a3 = a4 + 0x1\n 35509: u64 [s1 + 0xb0] = a3\n 35513: a1 = a3 <u 0x1\n 35516: a1 = a1 + a2\n 35519: u64 [s1 + 0xa0] = a1\n 35523: a1 = a1 | a3\n 35526: a1 = a1 <u 0x1\n 35529: a1 = a1 + a5\n 35532: u64 [s1 + 0x90] = a1\n 35536: a1 = a1 <u a5\n 35539: a1 = a1 + ra\n 35542: u64 [s1 + 0x98] = a1\n 35546: a2 = 0xff - a4\n 35550: u64 [s1 + 0x88] = a2\n 35554: a2 = 0x80 - a2\n 35558: a1 = t2\n 35560: u64 [s1 + 0x70] = t2\n 35563: u64 [s1 + 0x68] = t0\n 35566: u64 [s1 + 0x60] = t1\n 35569: ra = 1500, jump @1592\n      : @1371 [@dyn 750] (gas: 6)\n 35575: u64 [s1 + 0x80] = a0\n 35579: u64 [s1 + 0x50] = a1\n 35582: a0 = u64 [s1 + 0x60]\n 35585: a1 = u64 [s1 + 0x68]\n 35588: a2 = u64 [s1 + 0x88]\n 35592: ra = 1502, jump @1597\n      : @1372 [@dyn 751] (gas: 7)\n 35598: u64 [s1 + 0x48] = a0\n 35601: u64 [s1 + 0x18] = a1\n 35604: a1 = u64 [s1 + 0xb8]\n 35608: a2 = 0x7f - a1\n 35611: a0 = u64 [s1 + 0x78]\n 35614: a1 = u64 [s1 + 0x70]\n 35617: ra = 1504, jump @1597\n      : @1373 [@dyn 752] (gas: 8)\n 35623: u64 [s1 + 0x10] = a0\n 35626: u64 [s1 + 0xb8] = a1\n 35630: a2 = u64 [s1 + 0x88]\n 35634: a0 = a2 <u 0x80\n 35638: u64 [s1 + 0x58] = a0\n 35641: a0 = u64 [s1 + 0x78]\n 35644: a1 = u64 [s1 + 0x70]\n 35647: ra = 1506, jump @1597\n      : @1374 [@dyn 753] (gas: 11)\n 35653: a5 = u64 [s1 + 0x58]\n 35656: a4 = u64 [s1 + 0x90]\n 35660: a3 = u64 [s1 + 0x98]\n 35664: a2 = u64 [s1 + 0xa0]\n 35668: a2 = a2 | a3\n 35671: a3 = u64 [s1 + 0xb0]\n 35675: a3 = a3 | a4\n 35678: a3 = a3 | a2\n 35681: a0 = 0 if a5 == 0\n 35683: u64 [s1 + 0xa8] = a0\n 35687: jump @1382 if a3 == 0\n      : @1375 (gas: 27)\n 35691: a0 = u64 [s1 + 0x50]\n 35694: a2 = u64 [s1 + 0x18]\n 35697: a0 = a0 | a2\n 35700: a2 = u64 [s1 + 0xb8]\n 35704: a0 = a2 if a5 == 0\n 35707: t0 = u64 [s1 + 0x68]\n 35710: a3 = t0\n 35712: t1 = u64 [s1 + 0x88]\n 35716: a3 = a0 if t1 != 0\n 35719: u64 [s1 + 0xb8] = a3\n 35723: a0 = u64 [s1 + 0x80]\n 35727: a2 = u64 [s1 + 0x48]\n 35730: a0 = a0 | a2\n 35733: a2 = u64 [s1 + 0x10]\n 35736: a0 = a2 if a5 == 0\n 35739: a4 = u64 [s1 + 0x60]\n 35742: a3 = a4\n 35744: a3 = a0 if t1 != 0\n 35747: u64 [s1 + 0x80] = a3\n 35751: a1 = 0 if a5 == 0\n 35753: u64 [s1 + 0x88] = a1\n 35757: u64 [s1 + 88] = 0x15180\n 35763: a0 = u64 [s1 + 0xb0]\n 35767: a2 = a0 + 0xffffffffffffff80\n 35770: a0 = a4\n 35772: a1 = t0\n 35774: ra = 1508, jump @1592\n      : @1376 [@dyn 754] (gas: 6)\n 35780: u64 [s1 + 0x50] = a0\n 35783: u64 [s1 + 0x18] = a1\n 35786: a0 = u64 [s1 + 0x78]\n 35789: a1 = u64 [s1 + 0x70]\n 35792: a2 = u64 [s1 + 0xb0]\n 35796: ra = 1510, jump @1592\n      : @1377 [@dyn 755] (gas: 7)\n 35802: u64 [s1 + 0x10] = a0\n 35805: u64 [s1 + 0x48] = a1\n 35808: a1 = u64 [s1 + 0xb0]\n 35812: a2 = 0x80 - a1\n 35816: a0 = u64 [s1 + 0x60]\n 35819: a1 = u64 [s1 + 0x68]\n 35822: ra = 1512, jump @1597\n      : @1378 [@dyn 756] (gas: 21)\n 35828: a2 = u64 [s1 + 0x48]\n 35831: a1 = a1 | a2\n 35834: a3 = u64 [s1 + 0xb0]\n 35838: a4 = a3 <u 0x80\n 35842: u64 [s1 + 0x48] = a4\n 35845: a2 = u64 [s1 + 0x18]\n 35848: a1 = a2 if a4 == 0\n 35851: a2 = u64 [s1 + 0x70]\n 35854: a2 = a1 if a3 != 0\n 35857: u64 [s1 + 0x70] = a2\n 35860: a1 = u64 [s1 + 0x10]\n 35863: a0 = a0 | a1\n 35866: a1 = u64 [s1 + 0x50]\n 35869: a0 = a1 if a4 == 0\n 35872: a1 = u64 [s1 + 0x78]\n 35875: a1 = a0 if a3 != 0\n 35878: a2 = a3\n 35880: u64 [s1 + 0x78] = a1\n 35883: a0 = u64 [s1 + 0x60]\n 35886: a1 = u64 [s1 + 0x68]\n 35889: ra = 1514, jump @1592\n      : @1379 [@dyn 757] (gas: 13)\n 35895: a5 = 0\n 35897: a2 = u64 [s1 + 0x48]\n 35900: a1 = 0 if a2 == 0\n 35902: a0 = 0 if a2 == 0\n 35904: a3 = u64 [s1 + 0x58]\n 35907: a2 = a3 + 0xffffffffffffffff\n 35910: u64 [s1 + 0x50] = a2\n 35913: a2 = a3 >u 0\n 35915: a2 = a2 + 0xffffffffffffffff\n 35918: u64 [s1 + 0x48] = a2\n 35921: t1 = u64 [s1 + 0x70]\n 35924: t2 = u64 [s1 + 0x78]\n 35927: fallthrough\n      : @1380 (gas: 87)\n 35928: u64 [s1 + 0x78] = a5\n 35931: a2 = t2 >> 0x3f\n 35934: a3 = t1 << 0x1\n 35937: a5 = a3 | a2\n 35940: a3 = t2 << 0x1\n 35943: a4 = u64 [s1 + 0xb8]\n 35947: a4 = a4 >> 0x3f\n 35950: a3 = a3 | a4\n 35953: u64 [s1 + 0x68] = a3\n 35956: a2 = u64 [s1 + 0x48]\n 35959: u64 [s1 + 0x70] = a5\n 35962: t2 = t1\n 35964: t1 = a2 ^ a5\n 35967: t0 = a2 <u a5\n 35970: a4 = u64 [s1 + 0x50]\n 35973: a5 = a4 <u a3\n 35976: a5 = t0 if t1 != 0\n 35979: a1 = a1 << 0x1\n 35982: a3 = a0 >> 0x3f\n 35985: a1 = a1 | a3\n 35988: u64 [s1 + 0x60] = a1\n 35991: a3 = t2 >> 0x3f\n 35994: a0 = a0 << 0x1\n 35997: a3 = a3 | a0\n 36000: a0 = u64 [s1 + 0xb8]\n 36004: a0 = a0 << 0x1\n 36007: a4 = u64 [s1 + 0x80]\n 36011: a1 = a4 >> 0x3f\n 36014: t0 = a0 | a1\n 36017: a1 = a4 << 0x1\n 36020: a4 = u64 [s1 + 0x88]\n 36024: t1 = a4 >> 0x3f\n 36027: t1 = a1 | t1\n 36030: a1 = a4 << 0x1\n 36033: a4 = u64 [s1 + 0xa8]\n 36037: t2 = a4 >> 0x3f\n 36040: a1 = a1 | t2\n 36043: a4 = a4 << 0x1\n 36046: a0 = u64 [s1 + 0x78]\n 36049: a4 = a4 | a0\n 36052: u64 [s1 + 0xa8] = a4\n 36056: a1 = a1 | 0\n 36058: u64 [s1 + 0x88] = a1\n 36062: a1 = t1 | 0\n 36064: u64 [s1 + 0x80] = a1\n 36068: a0 = t0 | 0\n 36070: u64 [s1 + 0xb8] = a0\n 36074: a0 = a2 - a3\n 36077: a0 = a0 <u a5\n 36080: a1 = a2 <u a3\n 36083: t0 = u64 [s1 + 0x60]\n 36086: a4 = a2 - t0\n 36089: a4 = a4 - a1\n 36092: a4 = a4 - a0\n 36095: a5 = a4 >>a 0x3f\n 36098: a0 = u64 [s1 + 0x58]\n 36101: a0 = a0 & a5\n 36104: a1 = u64 [s1 + 0x68]\n 36107: t2 = a1 - a0\n 36110: a1 = a1 <u a0\n 36113: a0 = u64 [s1 + 0x70]\n 36116: t1 = a0 - a1\n 36119: a1 = 0 if a0 != 0\n 36121: a0 = a3 - a1\n 36124: a1 = a3 <u a1\n 36127: a1 = t0 - a1\n 36130: a3 = u64 [s1 + 0xb0]\n 36134: ra = u64 [s1 + 0xa0]\n 36138: a2 = a3 | ra\n 36141: a2 = a2 <u 0x1\n 36144: a4 = u64 [s1 + 0x90]\n 36148: t0 = a4 <u a2\n 36151: a2 = a4 - a2\n 36154: a4 = a3 <u 0x1\n 36157: ra = ra - a4\n 36160: a4 = u64 [s1 + 0x98]\n 36164: a4 = a4 - t0\n 36167: a3 = a3 + 0xffffffffffffffff\n 36170: u64 [s1 + 0xa0] = ra\n 36174: u64 [s1 + 0x98] = a4\n 36178: t0 = ra | a4\n 36181: u64 [s1 + 0xb0] = a3\n 36185: a4 = a3 | a2\n 36188: a3 = a4 | t0\n 36191: a5 = a5 & 0x1\n 36194: u64 [s1 + 0x90] = a2\n 36198: jump @1380 if a3 != 0\n      : @1381 (gas: 1)\n 36202: jump @1383\n      : @1382 (gas: 2)\n 36204: a5 = 0\n 36206: fallthrough\n      : @1383 (gas: 4)\n 36207: a0 = u64 [s1 + 0xa8]\n 36211: a0 = a0 << 0x1\n 36214: a3 = a5 | a0\n 36217: fallthrough\n      : @1384 (gas: 2)\n 36218: a0 = u64 [s1 + 0x30]\n 36221: jump @1466 if a0 >=u a3\n      : @1385 (gas: 13)\n 36225: a0 = u64 [s1 + 0x20]\n 36228: a0 = a0 << 0x20\n 36231: a2 = a0 >> 0x20\n 36234: u64 [s1 + 1528] = 0\n 36238: a0 = u64 [s1 + 0x40]\n 36241: u64 [s1 + 0x5e0] = a0\n 36245: a0 = u64 [s1 + 0x38]\n 36248: u64 [s1 + 0x5e8] = a0\n 36252: a1 = s1 + 0x5e0\n 36256: u64 [s1 + 0xa0] = a2\n 36260: u64 [s1 + 0x5f0] = a2\n 36264: a0 = 0\n 36266: ra = 1516, jump @24\n      : @1386 [@dyn 758] (gas: 7)\n 36273: u64 [s1 + 1496] = 0\n 36277: u64 [s1 + 1488] = 0\n 36281: u64 [s1 + 1472] = 0x1\n 36286: a0 = 0x20\n 36289: a1 = s1 + 0x5c0\n 36293: u64 [s1 + 1480] = 0\n 36297: ra = 1518, jump @24\n      : @1387 [@dyn 759] (gas: 3)\n 36304: a1 = 0x20170\n 36309: a0 = i32 [0x20170]\n 36314: jump @1389 if a0 >u 63\n      : @1388 (gas: 2)\n 36318: u32 [0x20170] = 0x40\n 36324: fallthrough\n      : @1389 (gas: 15)\n 36325: a0 = sp + 0xffffffffffffffe0\n 36328: a2 = a0 & 0xffffffffffffffe0\n 36331: u64 [s1 + 0xa8] = a2\n 36335: sp = a2\n 36337: a0 = 0x20180\n 36342: u64 [s1 + 0x68] = a0\n 36345: i32 a0 = a0 + 0\n 36347: u64 [s1 + 0xb0] = a1\n 36351: i32 a2 = a2 + 0\n 36353: a1 = 0x40\n 36356: u64 [s1 + 0xb8] = a0\n 36360: ra = 0x5f0\n 36364: ecalli 8 // 'hash_keccak_256'\n 36366: t0 = 0x5f2\n 36370: jump @1529\n      : @1390 [@dyn 760] (gas: 1)\n 36373: t0 = 1522, jump @1529\n      : @1391 [@dyn 761] (gas: 11)\n 36379: a0 = u64 [s1 + 0x28]\n 36382: a0 = a0 << 0x20\n 36385: a0 = a0 >> 0x20\n 36388: u64 [s1 + 1464] = 0\n 36392: u64 [s1 + 1456] = 0\n 36396: u64 [s1 + 1448] = 0\n 36400: a1 = s1 + 0x5a0\n 36404: u64 [s1 + 0x98] = a0\n 36408: u64 [s1 + 0x5a0] = a0\n 36412: a0 = 0\n 36414: ra = 1524, jump @24\n      : @1392 [@dyn 762] (gas: 12)\n 36421: a0 = u64 [s1 + 0x78]\n 36424: a3 = s1 + 0x500\n 36428: u64 [a3 + 0x98] = a0\n 36432: a0 = u64 [s1 + 0x80]\n 36436: u64 [a3 + 0x90] = a0\n 36440: a0 = u64 [s1 + 0x88]\n 36444: u64 [a3 + 0x88] = a0\n 36448: a0 = 0x20\n 36451: a1 = s1 + 0x580\n 36455: a2 = u64 [s1 + 0x90]\n 36459: u64 [a3 + 0x80] = a2\n 36463: ra = 1526, jump @24\n      : @1393 [@dyn 763] (gas: 3)\n 36470: a1 = u64 [s1 + 0xb0]\n 36474: a0 = i32 [a1]\n 36476: jump @1395 if a0 >u 63\n      : @1394 (gas: 3)\n 36480: u32 [a1 + 0] = 0x40\n 36483: t0 = 0x5f8\n 36487: jump @1573\n      : @1395 (gas: 1)\n 36490: t0 = 1528, jump @1573\n      : @1396 [@dyn 764] (gas: 4)\n 36496: ra = 0x5fa\n 36500: ecalli 8 // 'hash_keccak_256'\n 36502: t0 = 0x5fc\n 36506: jump @1540\n      : @1397 [@dyn 765] (gas: 1)\n 36509: t0 = 1532, jump @1540\n      : @1398 [@dyn 766] (gas: 2)\n 36515: a0 = s1 + 0x560\n 36519: ra = 1534, jump @26\n      : @1399 [@dyn 767] (gas: 7)\n 36526: a0 = u32 [s1 + 0x564]\n 36530: a1 = u64 [s1 + 0x568]\n 36534: a2 = u64 [s1 + 0x570]\n 36538: a0 = a0 << 0x20\n 36541: a1 = a1 | a2\n 36544: a0 = a0 | a1\n 36547: jump @1470 if a0 == 0\n      : @1400 (gas: 10)\n 36551: u64 [s1 + 1368] = 0\n 36555: a0 = u64 [s1 + 0x40]\n 36558: u64 [s1 + 0x540] = a0\n 36562: a0 = u64 [s1 + 0x38]\n 36565: u64 [s1 + 0x548] = a0\n 36569: a1 = s1 + 0x540\n 36573: a0 = u64 [s1 + 0xa0]\n 36577: u64 [s1 + 0x550] = a0\n 36581: a0 = 0\n 36583: ra = 1536, jump @24\n      : @1401 [@dyn 768] (gas: 7)\n 36590: u64 [s1 + 1336] = 0\n 36594: u64 [s1 + 1328] = 0\n 36598: u64 [s1 + 1312] = 0x3\n 36603: a0 = 0x20\n 36606: a1 = s1 + 0x520\n 36610: u64 [s1 + 1320] = 0\n 36614: ra = 1538, jump @24\n      : @1402 [@dyn 769] (gas: 3)\n 36621: a1 = u64 [s1 + 0xb0]\n 36625: a0 = i32 [a1]\n 36627: jump @1404 if a0 >u 63\n      : @1403 (gas: 3)\n 36631: u32 [a1 + 0] = 0x40\n 36634: t0 = 0x604\n 36638: jump @1546\n      : @1404 (gas: 1)\n 36641: t0 = 1540, jump @1546\n      : @1405 [@dyn 770] (gas: 5)\n 36647: ra = 0x606\n 36651: ecalli 8 // 'hash_keccak_256'\n 36653: a3 = u64 [s1 + 0xa8]\n 36657: t0 = 0x608\n 36661: jump @1565\n      : @1406 [@dyn 771] (gas: 2)\n 36664: a3 = u64 [s1 + 0xa8]\n 36668: t0 = 1544, jump @1565\n      : @1407 [@dyn 772] (gas: 15)\n 36674: u64 [s1 + 0xa8] = a0\n 36678: a0 = reverse a1\n 36680: u64 [s1 + 0x90] = a0\n 36684: a0 = reverse a2\n 36686: u64 [s1 + 0x88] = a0\n 36690: a0 = reverse a3\n 36692: u64 [s1 + 0x80] = a0\n 36696: u64 [s1 + 1304] = 0\n 36700: u64 [s1 + 1296] = 0\n 36704: u64 [s1 + 1288] = 0\n 36708: a1 = s1 + 0x500\n 36712: a0 = u64 [s1 + 0x30]\n 36715: u64 [s1 + 0x500] = a0\n 36719: a0 = 0\n 36721: ra = 1546, jump @24\n      : @1408 [@dyn 773] (gas: 12)\n 36728: a0 = u64 [s1 + 0x80]\n 36732: a3 = s1 + 0x400\n 36736: u64 [a3 + 0xf8] = a0\n 36740: a0 = u64 [s1 + 0x88]\n 36744: u64 [a3 + 0xf0] = a0\n 36748: a0 = u64 [s1 + 0x90]\n 36752: u64 [a3 + 0xe8] = a0\n 36756: a0 = 0x20\n 36759: a1 = s1 + 0x4e0\n 36763: a2 = u64 [s1 + 0xa8]\n 36767: u64 [a3 + 0xe0] = a2\n 36771: ra = 1548, jump @24\n      : @1409 [@dyn 774] (gas: 3)\n 36778: a1 = u64 [s1 + 0xb0]\n 36782: a0 = i32 [a1]\n 36784: jump @1411 if a0 >u 63\n      : @1410 (gas: 3)\n 36788: u32 [a1 + 0] = 0x40\n 36791: t0 = 0x60e\n 36795: jump @1546\n      : @1411 (gas: 1)\n 36798: t0 = 1550, jump @1546\n      : @1412 [@dyn 775] (gas: 4)\n 36804: ra = 0x610\n 36808: ecalli 8 // 'hash_keccak_256'\n 36810: t0 = 0x612\n 36814: jump @1529\n      : @1413 [@dyn 776] (gas: 1)\n 36817: t0 = 1554, jump @1529\n      : @1414 [@dyn 777] (gas: 8)\n 36823: u64 [s1 + 1240] = 0\n 36827: u64 [s1 + 1232] = 0\n 36831: u64 [s1 + 1224] = 0\n 36835: a1 = s1 + 0x4c0\n 36839: a0 = u64 [s1 + 0x98]\n 36843: u64 [s1 + 0x4c0] = a0\n 36847: a0 = 0\n 36849: ra = 1556, jump @24\n      : @1415 [@dyn 778] (gas: 12)\n 36856: a0 = u64 [s1 + 0x78]\n 36859: a3 = s1 + 0x400\n 36863: u64 [a3 + 0xb8] = a0\n 36867: a0 = u64 [s1 + 0x80]\n 36871: u64 [a3 + 0xb0] = a0\n 36875: a0 = u64 [s1 + 0x88]\n 36879: u64 [a3 + 0xa8] = a0\n 36883: a0 = 0x20\n 36886: a1 = s1 + 0x4a0\n 36890: a2 = u64 [s1 + 0x90]\n 36894: u64 [a3 + 0xa0] = a2\n 36898: ra = 1558, jump @24\n      : @1416 [@dyn 779] (gas: 3)\n 36905: a1 = u64 [s1 + 0xb0]\n 36909: a0 = i32 [a1]\n 36911: jump @1418 if a0 >=u 64\n      : @1417 (gas: 3)\n 36915: u32 [a1 + 0] = 0x40\n 36918: t0 = 0x618\n 36922: jump @1573\n      : @1418 (gas: 1)\n 36925: t0 = 1560, jump @1573\n      : @1419 [@dyn 780] (gas: 4)\n 36931: ra = 0x61a\n 36935: ecalli 8 // 'hash_keccak_256'\n 36937: t0 = 0x61c\n 36941: jump @1540\n      : @1420 [@dyn 781] (gas: 1)\n 36944: t0 = 1564, jump @1540\n      : @1421 [@dyn 782] (gas: 2)\n 36950: a0 = s1 + 0x480\n 36954: ra = 1566, jump @26\n      : @1422 [@dyn 783] (gas: 3)\n 36961: a1 = u64 [s1 + 0x480]\n 36965: a0 = a1 & 0x1\n 36968: jump @1471 if a0 == 0\n      : @1423 (gas: 2)\n 36972: a0 = a1 & 0x4\n 36975: jump @1472 if a0 != 0\n      : @1424 (gas: 6)\n 36979: u64 [s1 + 0x78] = a1\n 36982: a0 = a1 & 0xfb\n 36986: u64 [s1 + 0x90] = a0\n 36990: a0 = s1 + 0x440\n 36994: a1 = u64 [s1 + 0xa8]\n 36998: ra = 1568, jump @26\n      : @1425 [@dyn 784] (gas: 16)\n 37005: a0 = u64 [s1 + 0x440]\n 37009: a1 = u64 [s1 + 0x448]\n 37013: a2 = u64 [s1 + 0x450]\n 37017: a3 = u64 [s1 + 0x458]\n 37021: a0 = a0 & 0xffffffffffffff00\n 37025: a4 = u64 [s1 + 0x90]\n 37029: a0 = a0 | a4\n 37032: a0 = a0 + 0x4\n 37035: a4 = s1 + 0x600\n 37039: u64 [a4 + 0x58] = a3\n 37042: u64 [a4 + 0x50] = a2\n 37045: u64 [a4 + 0x48] = a1\n 37048: u64 [a4 + 0x40] = a0\n 37051: a1 = s1 + 0x640\n 37055: a0 = u64 [s1 + 0xa8]\n 37059: ra = 1570, jump @30\n      : @1426 [@dyn 785] (gas: 11)\n 37066: u64 [s1 + 1080] = 0\n 37070: a0 = u64 [s1 + 0xa0]\n 37074: a2 = s1 + 0x400\n 37078: u64 [a2 + 0x30] = a0\n 37081: a0 = u64 [s1 + 0x38]\n 37084: u64 [a2 + 0x28] = a0\n 37087: a1 = s1 + 0x420\n 37091: a0 = u64 [s1 + 0x40]\n 37094: u64 [a2 + 0x20] = a0\n 37097: a0 = 0\n 37099: ra = 1572, jump @24\n      : @1427 [@dyn 786] (gas: 7)\n 37106: u64 [s1 + 1048] = 0\n 37110: u64 [s1 + 1040] = 0\n 37114: u64 [s1 + 1032] = 0\n 37118: a0 = 0x20\n 37121: a1 = s1 + 0x400\n 37125: u64 [s1 + 1024] = 0\n 37129: ra = 1574, jump @24\n      : @1428 [@dyn 787] (gas: 7)\n 37136: a0 = sp + 0xffffffffffffffe0\n 37139: a0 = a0 & 0xffffffffffffffe0\n 37142: u64 [s1 + 0x70] = a0\n 37145: sp = a0\n 37147: a2 = u64 [s1 + 0xb0]\n 37151: a0 = i32 [a2]\n 37153: jump @1430 if a0 >u 63\n      : @1429 (gas: 3)\n 37157: u32 [a2 + 0] = 0x40\n 37160: t0 = 0x628\n 37164: jump @1546\n      : @1430 (gas: 1)\n 37167: t0 = 1576, jump @1546\n      : @1431 [@dyn 788] (gas: 5)\n 37173: ra = 0x62a\n 37177: ecalli 8 // 'hash_keccak_256'\n 37179: a3 = u64 [s1 + 0xa8]\n 37183: t0 = 0x62c\n 37187: jump @1565\n      : @1432 [@dyn 789] (gas: 2)\n 37190: a3 = u64 [s1 + 0xa8]\n 37194: t0 = 1580, jump @1565\n      : @1433 [@dyn 790] (gas: 14)\n 37200: u64 [s1 + 0x80] = a0\n 37204: a4 = reverse a1\n 37206: u64 [s1 + 0x88] = a4\n 37210: a2 = reverse a2\n 37212: u64 [s1 + 0xa8] = a2\n 37216: a3 = reverse a3\n 37218: u64 [s1 + 0x90] = a3\n 37222: a1 = u64 [s1 + 0x70]\n 37225: u64 [a1 + 0x18] = a3\n 37228: u64 [a1 + 0x10] = a2\n 37231: u64 [a1 + 0x8] = a4\n 37234: u64 [a1] = a0\n 37236: a0 = s1 + 0x3e0\n 37240: ra = 1582, jump @26\n      : @1434 [@dyn 791] (gas: 23)\n 37247: a3 = s1 + 0x300\n 37251: a0 = u64 [a3 + 0xf0]\n 37255: a1 = u64 [0x20118]\n 37260: a2 = u64 [a3 + 0xf8]\n 37264: a1 = a1 + a0\n 37267: a0 = a1 <u a0\n 37270: a0 = a0 + a2\n 37273: a2 = a0 + 0xffffffffffffffff\n 37276: u64 [s1 + 952] = 0\n 37280: u64 [s1 + 944] = 0\n 37284: u64 [a3 + 0xa0] = a1\n 37288: a0 = u64 [s1 + 0x90]\n 37292: u64 [a3 + 0xd8] = a0\n 37296: a0 = u64 [s1 + 0xa8]\n 37300: u64 [a3 + 0xd0] = a0\n 37304: a0 = u64 [s1 + 0x88]\n 37308: u64 [a3 + 0xc8] = a0\n 37312: a0 = u64 [s1 + 0x80]\n 37316: u64 [a3 + 0xc0] = a0\n 37320: a0 = s1 + 0x3c0\n 37324: a1 = s1 + 0x3a0\n 37328: u64 [a3 + 0xa8] = a2\n 37332: ra = 1584, jump @1364\n      : @1435 [@dyn 792] (gas: 3)\n 37338: a0 = u64 [s1 + 0x78]\n 37341: a0 = a0 & 0x2\n 37344: jump @1456 if a0 != 0\n      : @1436 (gas: 1)\n 37348: ra = 1586, jump @15\n      : @1437 [@dyn 793] (gas: 60)\n 37355: a1 = u64 [0x301a0]\n 37360: u64 [s1 + 0xa8] = a1\n 37364: a1 = u64 [0x301b0]\n 37369: u64 [s1 + 0x90] = a1\n 37373: a0 = u64 [0x301a8]\n 37378: u64 [s1 + 0x88] = a0\n 37382: ecalli 10 // 'ref_time_left'\n 37384: a1 = u64 [s1 + 0x88]\n 37388: a1 = reverse a1\n 37390: a2 = a1 << 0x20\n 37393: a3 = u64 [s1 + 0x90]\n 37397: a3 = reverse a3\n 37399: a3 = a3 >> 0x20\n 37402: a2 = a2 | a3\n 37405: a3 = a1 >> 0x20\n 37408: a1 = u64 [s1 + 0xa8]\n 37412: a4 = reverse a1\n 37414: a1 = 0x30180\n 37419: a5 = a4 << 0x20\n 37422: a3 = a3 | a5\n 37425: a4 = a4 >> 0x20\n 37428: u32 [0x30190] = a4\n 37433: u64 [0x30188] = a3\n 37438: u64 [0x30180] = a2\n 37443: a2 = u64 [0x20120]\n 37448: u64 [s1 + 1656] = 0\n 37452: u64 [s1 + 1648] = 0\n 37456: u64 [s1 + 1640] = 0\n 37460: u64 [s1 + 0x90] = a2\n 37464: a3 = s1 + 0x600\n 37468: u64 [a3 + 0x60] = a2\n 37471: u32 [s1 + 1664] = 0\n 37475: a0 = a0 >u 0x8fc\n 37479: a2 = -a0\n 37481: u64 [a3 + 0xb8] = a2\n 37485: u64 [a3 + 0xb0] = a2\n 37489: u64 [a3 + 0xa8] = a2\n 37493: u64 [a3 + 0xa0] = a2\n 37497: a1 = a1 << 0x20\n 37500: a1 = a1 >> 0x20\n 37503: a0 = a0 << 0x23\n 37506: a0 = a0 | a1\n 37509: a1 = s1 + 0x660\n 37513: a1 = a1 << 0x20\n 37516: a1 = a1 >> 0x20\n 37519: a2 = s1 + 0x6a0\n 37523: a2 = a2 << 0x20\n 37526: a3 = a2 | a1\n 37529: a4 = u64 [s1 + 0x68]\n 37532: a4 = a4 << 0x20\n 37535: a4 = a4 >> 0x20\n 37538: a1 = s1 + 0x680\n 37542: a1 = a1 << 0x20\n 37545: a5 = a1 | a4\n 37548: a1 = 0xffffffffffffffff\n 37551: a2 = 0xffffffffffffffff\n 37554: ecalli 0 // 'call'\n 37555: u64 [s1 + 0xa8] = a0\n 37559: ecalli 12 // 'return_data_size'\n 37561: fallthrough\n      : @1438 (gas: 1)\n 37562: jump @1450 if a0 == 0\n      : @1439 (gas: 10)\n 37566: ecalli 12 // 'return_data_size'\n 37568: a2 = a0\n 37570: u64 [s1 + 632] = 0\n 37574: u64 [s1 + 624] = 0\n 37578: u64 [s1 + 616] = 0\n 37582: a0 = s1 + 0x280\n 37586: a1 = s1 + 0x260\n 37590: u64 [s1 + 0x48] = a2\n 37593: u64 [s1 + 0x260] = a2\n 37597: ra = 1588, jump @1480\n      : @1440 [@dyn 794] (gas: 11)\n 37603: a0 = u64 [s1 + 0x280]\n 37607: u64 [s1 + 0x68] = a0\n 37610: a0 = u64 [s1 + 0x288]\n 37614: u64 [s1 + 0x60] = a0\n 37617: a0 = u64 [s1 + 0x290]\n 37621: u64 [s1 + 0x58] = a0\n 37624: a0 = u64 [s1 + 0x298]\n 37628: u64 [s1 + 0x50] = a0\n 37631: a0 = s1 + 0x240\n 37635: a1 = 0x40\n 37638: ra = 1590, jump @22\n      : @1441 [@dyn 795] (gas: 24)\n 37645: a5 = s1 + 0x200\n 37649: a0 = u64 [a5 + 0x58]\n 37652: u64 [s1 + 0x78] = a0\n 37655: a1 = u64 [a5 + 0x50]\n 37658: u64 [s1 + 0x70] = a1\n 37661: a3 = u64 [a5 + 0x48]\n 37664: u64 [s1 + 0x80] = a3\n 37668: a4 = u64 [a5 + 0x40]\n 37671: u64 [s1 + 0x88] = a4\n 37675: a2 = u64 [s1 + 0x50]\n 37678: u64 [a5 + 0x18] = a2\n 37681: a2 = u64 [s1 + 0x58]\n 37684: u64 [a5 + 0x10] = a2\n 37687: a2 = u64 [s1 + 0x60]\n 37690: u64 [a5 + 0x8] = a2\n 37693: a2 = u64 [s1 + 0x68]\n 37696: u64 [a5] = a2\n 37698: u64 [a5 + 0x38] = a0\n 37701: u64 [a5 + 0x30] = a1\n 37704: u64 [a5 + 0x28] = a3\n 37707: a0 = s1 + 0x220\n 37711: a1 = s1 + 0x200\n 37715: u64 [a5 + 0x20] = a4\n 37718: ra = 1592, jump @1355\n      : @1442 [@dyn 796] (gas: 12)\n 37724: a2 = u64 [s1 + 0x88]\n 37728: a0 = u64 [s1 + 0x78]\n 37731: a1 = u64 [s1 + 0x80]\n 37735: a0 = a0 | a1\n 37738: a3 = u64 [s1 + 0x70]\n 37741: a1 = a2 | a3\n 37744: a1 = a1 | a0\n 37747: a1 = a1 >> 0x20\n 37750: a0 = a0 | a3\n 37753: a0 = a0 << 0x20\n 37756: a0 = a0 | a1\n 37759: jump @1465 if a0 != 0\n      : @1443 (gas: 8)\n 37763: u64 [s1 + 504] = 0\n 37767: u64 [s1 + 496] = 0\n 37771: u64 [s1 + 488] = 0\n 37775: a1 = s1 + 0x1e0\n 37779: a0 = u64 [s1 + 0x48]\n 37782: u64 [s1 + 0x1e0] = a0\n 37786: a0 = a2\n 37788: ra = 1594, jump @24\n      : @1444 [@dyn 797] (gas: 2)\n 37795: ecalli 12 // 'return_data_size'\n 37797: fallthrough\n      : @1445 (gas: 10)\n 37798: a3 = u64 [s1 + 0x88]\n 37802: a1 = u64 [s1 + 0x78]\n 37805: a2 = u64 [s1 + 0x70]\n 37808: a1 = a1 | a2\n 37811: a2 = 0xffffffe0\n 37821: a2 = a3 <u a2\n 37824: a4 = u64 [s1 + 0x80]\n 37828: a2 = 0 if a4 != 0\n 37830: a2 = 0 if a1 != 0\n 37832: jump @1465 if a2 == 0\n      : @1446 (gas: 3)\n 37836: a1 = a0\n 37838: a0 = a0 >> 0x20\n 37841: jump @1465 if a0 != 0\n      : @1447 (gas: 7)\n 37845: i32 a0 = a3 + 0x20\n 37848: a2 = a1\n 37850: u64 [s1 + 0x80] = a1\n 37854: i32 a1 = a1 + 0\n 37856: u64 [s1 + 0x88] = a1\n 37860: a1 = a2\n 37862: ra = 1596, jump @39\n      : @1448 [@dyn 798] (gas: 7)\n 37869: a1 = u64 [s1 + 0x80]\n 37873: u32 [s1 + 0x6c0] = a1\n 37877: i32 a0 = a0 + 0\n 37879: i32 a1 = s1 + 0x6c0\n 37883: a2 = 0\n 37885: ecalli 11 // 'return_data_copy'\n 37887: fallthrough\n      : @1449 (gas: 3)\n 37888: a0 = i32 [s1 + 0x6c0]\n 37892: a1 = u64 [s1 + 0x88]\n 37896: jump @1465 if a0 <u a1\n      : @1450 (gas: 2)\n 37900: a0 = u64 [s1 + 0xa8]\n 37904: jump @1473 if a0 != 0\n      : @1451 (gas: 3)\n 37908: a0 = s1 + 0x1a0\n 37912: a1 = 0x40\n 37915: ra = 1598, jump @22\n      : @1452 [@dyn 799] (gas: 6)\n 37922: a4 = s1 + 0x100\n 37926: a0 = u64 [a4 + 0xb8]\n 37930: a1 = u64 [a4 + 0xb0]\n 37934: a2 = u64 [a4 + 0xa8]\n 37938: a3 = u64 [a4 + 0xa0]\n 37942: t0 = 1600, jump @1534\n      : @1453 [@dyn 800] (gas: 1)\n 37948: jump @1465 if a0 != 0\n      : @1454 (gas: 9)\n 37952: u64 [s1 + 408] = 0\n 37956: u64 [s1 + 400] = 0\n 37960: u64 [s1 + 392] = 0\n 37964: a1 = s1 + 0x180\n 37968: a0 = u64 [s1 + 0x90]\n 37972: u64 [s1 + 0x180] = a0\n 37976: a0 = a3\n 37978: u64 [s1 + 0xb8] = a3\n 37982: ra = 1602, jump @24\n      : @1455 [@dyn 801] (gas: 33)\n 37989: u64 [s1 + 280] = 0\n 37993: u64 [s1 + 272] = 0\n 37997: u64 [s1 + 264] = 0\n 38001: a0 = u64 [s1 + 0x30]\n 38004: u64 [s1 + 0x100] = a0\n 38008: u64 [s1 + 312] = 0\n 38012: u64 [s1 + 304] = 0\n 38016: u64 [s1 + 296] = 0\n 38020: a0 = u64 [s1 + 0x98]\n 38024: u64 [s1 + 0x120] = a0\n 38028: u64 [s1 + 344] = 0\n 38032: a0 = u64 [s1 + 0xa0]\n 38036: u64 [s1 + 0x150] = a0\n 38040: a0 = u64 [s1 + 0x38]\n 38043: u64 [s1 + 0x148] = a0\n 38047: a0 = u64 [0x20148]\n 38052: a1 = u64 [0x20150]\n 38057: a2 = u64 [0x20158]\n 38062: a3 = u64 [s1 + 0x40]\n 38065: u64 [s1 + 0x140] = a3\n 38069: u64 [s1 + 0x178] = a0\n 38073: u64 [s1 + 0x170] = a1\n 38077: u64 [s1 + 0x168] = a2\n 38081: a0 = u64 [0x20160]\n 38086: a1 = 0x20\n 38089: a2 = s1 + 0x160\n 38093: a3 = s1 + 0x140\n 38097: a4 = s1 + 0x120\n 38101: a5 = s1 + 0x100\n 38105: u64 [s1 + 0x160] = a0\n 38109: a0 = u64 [s1 + 0xb8]\n 38113: ra = 0x650\n 38117: jump @36\n      : @1456 (gas: 24)\n 38121: a0 = sp + 0xffffffffffffffe0\n 38124: t0 = a0 & 0xffffffffffffffe0\n 38127: sp = t0\n 38129: a0 = u64 [s1 + 0x80]\n 38133: a0 = a0 + 0x1\n 38136: a1 = a0 <u 0x1\n 38139: a2 = u64 [s1 + 0x88]\n 38143: a5 = a2 + a1\n 38146: a2 = a0 | a5\n 38149: a2 = a2 <u 0x1\n 38152: a3 = u64 [s1 + 0xa8]\n 38156: a2 = a2 + a3\n 38159: a3 = a2 <u a3\n 38162: a4 = u64 [s1 + 0x90]\n 38166: a3 = a3 + a4\n 38169: a1 = t0\n 38171: a4 = t0\n 38173: u64 [s1 + 0xb8] = a4\n 38177: u64 [a4 + 0x8] = a5\n 38180: u64 [a4] = a0\n 38182: u64 [a4 + 0x10] = a2\n 38185: u64 [a4 + 0x18] = a3\n 38188: a0 = s1 + 0x380\n 38192: ra = 1604, jump @26\n      : @1457 [@dyn 802] (gas: 14)\n 38199: a0 = u64 [s1 + 0x380]\n 38203: a2 = u64 [0x20120]\n 38208: a1 = u64 [s1 + 0x388]\n 38212: u64 [s1 + 0x90] = a2\n 38216: a2 = a2 + a0\n 38219: a0 = a2 <u a0\n 38222: a0 = a0 + a1\n 38225: a0 = a0 & 0xffffffffffffffff\n 38228: u64 [s1 + 0xb0] = a0\n 38232: a1 = a2 & 0xffffffffffffffff\n 38235: u64 [s1 + 0xa8] = a1\n 38239: a0 = s1 + 0x360\n 38243: a1 = u64 [s1 + 0xb8]\n 38247: ra = 1606, jump @26\n      : @1458 [@dyn 803] (gas: 12)\n 38254: a0 = u64 [s1 + 0x378]\n 38258: a1 = u64 [s1 + 0x370]\n 38262: a2 = u64 [s1 + 0xa8]\n 38266: a3 = s1 + 0x600\n 38270: u64 [a3 + 0xe0] = a2\n 38274: u64 [a3 + 0xf8] = a0\n 38278: u64 [a3 + 0xf0] = a1\n 38282: a0 = u64 [s1 + 0xb0]\n 38286: u64 [a3 + 0xe8] = a0\n 38290: a1 = s1 + 0x6e0\n 38294: a0 = u64 [s1 + 0xb8]\n 38298: ra = 1608, jump @30\n      : @1459 [@dyn 804] (gas: 3)\n 38305: a0 = s1 + 0x340\n 38309: a1 = 0x40\n 38312: ra = 1610, jump @22\n      : @1460 [@dyn 805] (gas: 1)\n 38319: t0 = 1612, jump @1553\n      : @1461 [@dyn 806] (gas: 1)\n 38325: jump @1465 if a1 != 0\n      : @1462 (gas: 8)\n 38329: u64 [s1 + 824] = 0\n 38333: u64 [s1 + 816] = 0\n 38337: u64 [s1 + 808] = 0\n 38341: a1 = s1 + 0x320\n 38345: a2 = u64 [s1 + 0x90]\n 38349: u64 [s1 + 0x320] = a2\n 38353: u64 [s1 + 0xb8] = a0\n 38357: ra = 1614, jump @24\n      : @1463 [@dyn 807] (gas: 33)\n 38364: u64 [s1 + 696] = 0\n 38368: u64 [s1 + 688] = 0\n 38372: u64 [s1 + 680] = 0\n 38376: a0 = u64 [s1 + 0x30]\n 38379: a4 = s1 + 0x200\n 38383: u64 [a4 + 0xa0] = a0\n 38387: u64 [s1 + 728] = 0\n 38391: u64 [s1 + 720] = 0\n 38395: u64 [s1 + 712] = 0\n 38399: a0 = u64 [s1 + 0x98]\n 38403: u64 [a4 + 0xc0] = a0\n 38407: u64 [s1 + 760] = 0\n 38411: a0 = u64 [s1 + 0xa0]\n 38415: u64 [a4 + 0xf0] = a0\n 38419: a0 = u64 [s1 + 0x38]\n 38422: u64 [a4 + 0xe8] = a0\n 38426: a0 = u64 [0x20128]\n 38431: a1 = u64 [0x20130]\n 38436: a2 = u64 [0x20138]\n 38441: a3 = u64 [s1 + 0x40]\n 38444: u64 [a4 + 0xe0] = a3\n 38448: u64 [s1 + 0x318] = a0\n 38452: u64 [s1 + 0x310] = a1\n 38456: u64 [s1 + 0x308] = a2\n 38460: a0 = u64 [0x20140]\n 38465: a1 = 0x20\n 38468: a2 = s1 + 0x300\n 38472: a3 = s1 + 0x2e0\n 38476: a4 = s1 + 0x2c0\n 38480: a5 = s1 + 0x2a0\n 38484: u64 [s1 + 0x300] = a0\n 38488: a0 = u64 [s1 + 0xb8]\n 38492: ra = 1616, jump @36\n      : @1464 [@dyn 808] (gas: 7)\n 38499: sp = s0 + 0xfffffffffffff8e0\n 38503: a0 = sp + 0x700\n 38507: ra = u64 [a0 + 0x18]\n 38510: s0 = u64 [a0 + 0x10]\n 38513: s1 = u64 [a0 + 0x8]\n 38516: sp = sp + 0x720\n 38520: ret\n      : @1465 (gas: 1)\n 38522: trap\n      : @1466 (gas: 8)\n 38523: u64 [s1 + 1552] = 0\n 38527: u64 [s1 + 1544] = 0\n 38531: u64 [s1 + 1536] = 0\n 38535: a0 = 0xcf114bd900000000\n 38545: a1 = s1 + 0x600\n 38549: u64 [s1 + 0x618] = a0\n 38553: a0 = 0\n 38555: ra = 1618, jump @24\n      : @1467 [@dyn 809] (gas: 2)\n 38562: a1 = i32 [0x20170]\n 38567: jump @1469 if a1 >u 31\n      : @1468 (gas: 2)\n 38571: u32 [0x20170] = 0x20\n 38577: fallthrough\n      : @1469 (gas: 6)\n 38578: a1 = 0x20180\n 38583: i32 a1 = a1 + 0\n 38585: a0 = 0x1\n 38588: a2 = 0x4\n 38591: ecalli 13 // 'seal_return'\n 38593: fallthrough\n      : @1470 (gas: 9)\n 38594: u64 [s1 + 208] = 0\n 38598: u64 [s1 + 200] = 0\n 38602: u64 [s1 + 192] = 0\n 38606: a0 = 0xa7a9536d00000000\n 38616: a1 = s1 + 0xc0\n 38620: u64 [s1 + 0xd8] = a0\n 38624: a0 = 0\n 38626: ra = 0x654\n 38630: jump @24\n      : @1471 (gas: 9)\n 38634: u64 [s1 + 240] = 0\n 38638: u64 [s1 + 232] = 0\n 38642: u64 [s1 + 224] = 0\n 38646: a0 = 0xafa4e2b600000000\n 38656: a1 = s1 + 0xe0\n 38660: u64 [s1 + 0xf8] = a0\n 38664: a0 = 0\n 38666: ra = 0x654\n 38670: jump @24\n      : @1472 (gas: 9)\n 38674: u64 [s1 + 1136] = 0\n 38678: u64 [s1 + 1128] = 0\n 38682: u64 [s1 + 1120] = 0\n 38686: a0 = 0x560ff90000000000\n 38696: a1 = s1 + 0x460\n 38700: u64 [s1 + 0x478] = a0\n 38704: a0 = 0\n 38706: ra = 0x654\n 38710: jump @24\n      : @1473 (gas: 8)\n 38714: u64 [s1 + 464] = 0\n 38718: u64 [s1 + 456] = 0\n 38722: u64 [s1 + 448] = 0\n 38726: a0 = 0x90b8ec1800000000\n 38736: a1 = s1 + 0x1c0\n 38740: u64 [s1 + 0x1d8] = a0\n 38744: a0 = 0\n 38746: ra = 1620, jump @24\n      : @1474 [@dyn 810] (gas: 3)\n 38753: a0 = u64 [s1 + 0xb0]\n 38757: a0 = i32 [a0]\n 38759: jump @1476 if a0 >u 31\n      : @1475 (gas: 3)\n 38763: a1 = u64 [s1 + 0xb0]\n 38767: u32 [a1 + 0] = 0x20\n 38770: fallthrough\n      : @1476 (gas: 6)\n 38771: a0 = 0x1\n 38774: a2 = 0x4\n 38777: a1 = u64 [s1 + 0xb8]\n 38781: ra = 0x656\n 38785: ecalli 13 // 'seal_return'\n 38787: fallthrough\n      : @1477 [@dyn 811] (gas: 18)\n 38788: sp = sp + 0xffffffffffffff80\n 38791: u64 [sp + 0x78] = ra\n 38794: u64 [sp + 0x70] = s0\n 38797: u64 [sp + 0x68] = s1\n 38800: s0 = sp + 0x80\n 38804: sp = sp & 0xffffffffffffffe0\n 38807: s1 = u32 [a1]\n 38809: a1 = u64 [a0 + 0x18]\n 38812: a2 = u64 [a0 + 0x10]\n 38815: a3 = u64 [a0 + 0x8]\n 38818: a0 = u64 [a0]\n 38820: u64 [sp + 0x38] = a1\n 38823: u64 [sp + 0x30] = a2\n 38826: u64 [sp + 0x28] = a3\n 38829: u64 [sp + 0x20] = a0\n 38832: a0 = sp\n 38834: a1 = sp + 0x20\n 38837: ra = 1624, jump @26\n      : @1478 [@dyn 812] (gas: 13)\n 38844: a0 = u32 [sp + 0x14]\n 38847: a0 = a0 << 0x20\n 38850: a1 = u64 [sp + 0x18]\n 38853: a2 = u64 [sp + 0x8]\n 38856: a3 = u64 [sp]\n 38858: a0 = a0 | s1\n 38861: u64 [sp + 0x58] = a1\n 38864: u64 [sp + 0x48] = a2\n 38867: u64 [sp + 0x40] = a3\n 38870: u64 [sp + 0x50] = a0\n 38873: a0 = sp + 0x20\n 38876: a1 = sp + 0x40\n 38879: ra = 1626, jump @30\n      : @1479 [@dyn 813] (gas: 6)\n 38886: sp = s0 + 0xffffffffffffff80\n 38889: ra = u64 [sp + 0x78]\n 38892: s0 = u64 [sp + 0x70]\n 38895: s1 = u64 [sp + 0x68]\n 38898: sp = sp + 0x80\n 38902: ret\n      : @1480 (gas: 10)\n 38904: a3 = u64 [a1 + 0x18]\n 38907: a4 = u64 [a1 + 0x10]\n 38910: t0 = u64 [a1 + 0x8]\n 38913: a5 = a3 >u 0\n 38915: a2 = a4 >u 0\n 38917: a2 = a5 if a3 != 0\n 38920: a3 = a3 | a4\n 38923: a4 = t0 >u 0\n 38925: a4 = a2 if a3 != 0\n 38928: jump @1482 if a4 != 0\n      : @1481 (gas: 16)\n 38931: a1 = u64 [a1]\n 38933: a2 = a1 + 0x1f\n 38936: a1 = a2 <u a1\n 38939: a1 = a1 + t0\n 38942: a1 = a1 & 0x1\n 38945: a2 = a2 & 0xffffffffffffffe0\n 38948: a3 = a2 + 0x20\n 38951: a2 = a3 <u a2\n 38954: a4 = a1 + a2\n 38957: a1 = a4 <u a1\n 38960: a1 = a2 if a2 == 0\n 38963: u64 [a0 + 24] = 0\n 38966: u64 [a0] = a3\n 38968: u64 [a0 + 0x8] = a4\n 38971: u64 [a0 + 0x10] = a1\n 38974: ret\n      : @1482 (gas: 6)\n 38976: sp = sp + 0xffffffffffffffb0\n 38979: u64 [sp + 0x48] = ra\n 38982: u64 [sp + 0x40] = s0\n 38985: s0 = sp + 0x50\n 38988: sp = sp & 0xfffffffffffffff0\n 38991: t0 = 1628, jump @1567\n      : @1483 [@dyn 814] (gas: 1)\n 38997: ra = 1630, jump @24\n      : @1484 [@dyn 815] (gas: 7)\n 39004: u64 [sp + 24] = 0\n 39007: u64 [sp + 16] = 0\n 39010: u64 [sp + 0] = 0x41\n 39013: a0 = 0x4\n 39016: a1 = sp\n 39018: u64 [sp + 8] = 0\n 39021: ra = 1632, jump @24\n      : @1485 [@dyn 816] (gas: 2)\n 39028: a1 = i32 [0x20170]\n 39033: jump @1487 if a1 >u 63\n      : @1486 (gas: 2)\n 39037: u32 [0x20170] = 0x40\n 39043: fallthrough\n      : @1487 (gas: 7)\n 39044: a1 = 0x20180\n 39049: i32 a1 = a1 + 0\n 39051: a0 = 0x1\n 39054: a2 = 0x24\n 39057: ra = 0x662\n 39061: ecalli 13 // 'seal_return'\n 39063: fallthrough\n      : @1488 [@dyn 817] (gas: 68)\n 39064: sp = sp + 0xfffffffffffffe40\n 39068: u64 [sp + 0x1b8] = ra\n 39072: u64 [sp + 0x1b0] = s0\n 39076: u64 [sp + 0x1a8] = s1\n 39080: s0 = sp + 0x1c0\n 39084: sp = sp & 0xffffffffffffffe0\n 39087: a2 = u64 [a1]\n 39089: u64 [sp + 0x58] = a2\n 39092: a1 = u64 [a1 + 0x8]\n 39095: u64 [sp + 0x50] = a1\n 39098: a1 = u64 [a0]\n 39100: u64 [sp + 0x48] = a1\n 39103: a1 = u64 [a0 + 0x10]\n 39106: u64 [sp + 0x40] = a1\n 39109: s1 = u64 [a0 + 0x8]\n 39112: ecalli 10 // 'ref_time_left'\n 39114: a1 = reverse s1\n 39116: a2 = a1 << 0x20\n 39119: a3 = u64 [sp + 0x40]\n 39122: a3 = reverse a3\n 39124: a3 = a3 >> 0x20\n 39127: a2 = a2 | a3\n 39130: a1 = a1 >> 0x20\n 39133: a3 = u64 [sp + 0x48]\n 39136: a3 = reverse a3\n 39138: a4 = 0x30180\n 39143: a5 = a3 << 0x20\n 39146: a1 = a1 | a5\n 39149: a3 = a3 >> 0x20\n 39152: u32 [0x30190] = a3\n 39157: u64 [0x30188] = a1\n 39162: u64 [0x30180] = a2\n 39167: u64 [sp + 344] = 0\n 39171: u64 [sp + 336] = 0\n 39175: a1 = u64 [sp + 0x50]\n 39178: u64 [sp + 0x148] = a1\n 39182: a1 = u64 [sp + 0x58]\n 39185: u64 [sp + 0x140] = a1\n 39189: u32 [sp + 352] = 0\n 39193: a0 = a0 >u 0x8fc\n 39197: a1 = -a0\n 39199: u64 [sp + 0x198] = a1\n 39203: u64 [sp + 0x190] = a1\n 39207: u64 [sp + 0x188] = a1\n 39211: u64 [sp + 0x180] = a1\n 39215: a4 = a4 << 0x20\n 39218: a4 = a4 >> 0x20\n 39221: a0 = a0 << 0x23\n 39224: a0 = a0 | a4\n 39227: a1 = sp + 0x140\n 39231: a1 = a1 << 0x20\n 39234: a1 = a1 >> 0x20\n 39237: a4 = 0x20180\n 39242: a2 = sp + 0x180\n 39246: a2 = a2 << 0x20\n 39249: a3 = a2 | a1\n 39252: u64 [sp + 0x10] = a4\n 39255: a4 = a4 << 0x20\n 39258: a4 = a4 >> 0x20\n 39261: a1 = sp + 0x160\n 39265: a1 = a1 << 0x20\n 39268: a5 = a1 | a4\n 39271: a1 = 0xffffffffffffffff\n 39274: a2 = 0xffffffffffffffff\n 39277: ecalli 0 // 'call'\n 39278: s1 = a0\n 39280: ecalli 12 // 'return_data_size'\n 39282: fallthrough\n      : @1489 (gas: 1)\n 39283: jump @1501 if a0 == 0\n      : @1490 (gas: 11)\n 39287: u64 [sp + 0x18] = s1\n 39290: ecalli 12 // 'return_data_size'\n 39292: a2 = a0\n 39294: u64 [sp + 280] = 0\n 39298: u64 [sp + 272] = 0\n 39302: u64 [sp + 264] = 0\n 39306: a0 = sp + 0x120\n 39310: a1 = sp + 0x100\n 39314: u64 [sp + 0x20] = a2\n 39317: u64 [sp + 0x100] = a2\n 39321: ra = 1636, jump @1480\n      : @1491 [@dyn 818] (gas: 11)\n 39327: a0 = u64 [sp + 0x120]\n 39331: u64 [sp + 0x48] = a0\n 39334: a0 = u64 [sp + 0x128]\n 39338: u64 [sp + 0x40] = a0\n 39341: a0 = u64 [sp + 0x130]\n 39345: u64 [sp + 0x38] = a0\n 39348: a0 = u64 [sp + 0x138]\n 39352: u64 [sp + 0x30] = a0\n 39355: a0 = sp + 0xe0\n 39359: a1 = 0x40\n 39362: ra = 1638, jump @22\n      : @1492 [@dyn 819] (gas: 22)\n 39369: a0 = u64 [sp + 0xf8]\n 39373: u64 [sp + 0x50] = a0\n 39376: s1 = u64 [sp + 0xf0]\n 39380: a2 = u64 [sp + 0xe8]\n 39384: u64 [sp + 0x58] = a2\n 39387: a3 = u64 [sp + 0xe0]\n 39391: u64 [sp + 0x28] = a3\n 39394: a1 = u64 [sp + 0x30]\n 39397: u64 [sp + 0xb8] = a1\n 39401: a1 = u64 [sp + 0x38]\n 39404: u64 [sp + 0xb0] = a1\n 39408: a1 = u64 [sp + 0x40]\n 39411: u64 [sp + 0xa8] = a1\n 39415: a1 = u64 [sp + 0x48]\n 39418: u64 [sp + 0xa0] = a1\n 39422: u64 [sp + 0xd8] = a0\n 39426: u64 [sp + 0xd0] = s1\n 39430: u64 [sp + 0xc8] = a2\n 39434: a0 = sp + 0xc0\n 39438: a1 = sp + 0xa0\n 39442: u64 [sp + 0xc0] = a3\n 39446: ra = 1640, jump @1355\n      : @1493 [@dyn 820] (gas: 12)\n 39452: a2 = u64 [sp + 0x28]\n 39455: a0 = u64 [sp + 0x50]\n 39458: a1 = u64 [sp + 0x58]\n 39461: a0 = a0 | a1\n 39464: a1 = a2 | s1\n 39467: a1 = a1 | a0\n 39470: a1 = a1 >> 0x20\n 39473: u64 [sp + 0x48] = s1\n 39476: a0 = a0 | s1\n 39479: a0 = a0 << 0x20\n 39482: a0 = a0 | a1\n 39485: jump @1503 if a0 != 0\n      : @1494 (gas: 9)\n 39489: u64 [sp + 152] = 0\n 39493: u64 [sp + 144] = 0\n 39497: u64 [sp + 136] = 0\n 39501: a1 = sp + 0x80\n 39505: a0 = u64 [sp + 0x20]\n 39508: u64 [sp + 0x80] = a0\n 39512: a0 = a2\n 39514: s1 = a2\n 39516: ra = 1642, jump @24\n      : @1495 [@dyn 821] (gas: 2)\n 39523: ecalli 12 // 'return_data_size'\n 39525: fallthrough\n      : @1496 (gas: 9)\n 39526: a1 = u64 [sp + 0x50]\n 39529: a2 = u64 [sp + 0x48]\n 39532: a1 = a1 | a2\n 39535: a2 = 0xffffffe0\n 39545: a2 = s1 <u a2\n 39548: a4 = u64 [sp + 0x58]\n 39551: a2 = 0 if a4 != 0\n 39553: a2 = 0 if a1 != 0\n 39555: jump @1503 if a2 == 0\n      : @1497 (gas: 4)\n 39558: a3 = s1\n 39560: s1 = a0\n 39562: a0 = a0 >> 0x20\n 39565: jump @1503 if a0 != 0\n      : @1498 (gas: 5)\n 39568: i32 a0 = a3 + 0x20\n 39571: i32 a1 = s1 + 0\n 39573: u64 [sp + 0x58] = a1\n 39576: a1 = s1\n 39578: ra = 1644, jump @39\n      : @1499 [@dyn 822] (gas: 6)\n 39585: u32 [sp + 0x1a0] = s1\n 39589: i32 a0 = a0 + 0\n 39591: i32 a1 = sp + 0x1a0\n 39595: a2 = 0\n 39597: ecalli 11 // 'return_data_copy'\n 39599: fallthrough\n      : @1500 (gas: 4)\n 39600: a0 = i32 [sp + 0x1a0]\n 39604: s1 = u64 [sp + 0x18]\n 39607: a1 = u64 [sp + 0x58]\n 39610: jump @1503 if a0 <u a1\n      : @1501 (gas: 1)\n 39613: jump @1504 if s1 != 0\n      : @1502 (gas: 6)\n 39616: sp = s0 + 0xfffffffffffffe40\n 39620: ra = u64 [sp + 0x1b8]\n 39624: s0 = u64 [sp + 0x1b0]\n 39628: s1 = u64 [sp + 0x1a8]\n 39632: sp = sp + 0x1c0\n 39636: ret\n      : @1503 (gas: 1)\n 39638: trap\n      : @1504 (gas: 8)\n 39639: u64 [sp + 112] = 0\n 39642: u64 [sp + 104] = 0\n 39645: u64 [sp + 96] = 0\n 39648: a0 = 0x90b8ec1800000000\n 39658: a1 = sp + 0x60\n 39661: u64 [sp + 0x78] = a0\n 39664: a0 = 0\n 39666: ra = 1646, jump @24\n      : @1505 [@dyn 823] (gas: 2)\n 39673: a1 = i32 [0x20170]\n 39678: jump @1507 if a1 >u 31\n      : @1506 (gas: 2)\n 39682: u32 [0x20170] = 0x20\n 39688: fallthrough\n      : @1507 (gas: 7)\n 39689: a1 = i32 [sp + 0x10]\n 39692: a0 = 0x1\n 39695: a2 = 0x4\n 39698: ecalli 13 // 'seal_return'\n 39700: a0 = 0\n 39702: ra = 0x670\n 39706: jump @45\n      : @1508 [export #0: 'call'] (gas: 2)\n 39710: a0 = 0\n 39712: ra = 1648, jump @45\n      : @1509 [@dyn 824] [export #1: 'deploy'] (gas: 2)\n 39719: a0 = 0x1\n 39722: ra = 1650, jump @45\n      : @1510 [@dyn 825] (gas: 15)\n 39729: a0 = u64 [a2 + 0x8]\n 39732: a1 = i32 [a2 + 0x10]\n 39735: a2 = u64 [a2]\n 39737: a0 = reverse a0\n 39739: a3 = a0 << 0x20\n 39742: a1 = reverse a1\n 39744: a1 = a1 >> 0x20\n 39747: a3 = a3 | a1\n 39750: a0 = a0 >> 0x20\n 39753: a1 = reverse a2\n 39755: a2 = a1 << 0x20\n 39758: a0 = a0 | a2\n 39761: a1 = a1 >> 0x20\n 39764: a2 = s1 + 0x1918\n 39768: jump [t0]\n      : @1511 (gas: 17)\n 39770: a2 = u64 [s1 + 0x150]\n 39774: a0 = u64 [a2 + 0x8]\n 39777: a1 = i32 [a2 + 0x10]\n 39780: a2 = u64 [a2]\n 39782: a0 = reverse a0\n 39784: a3 = a0 << 0x20\n 39787: a1 = reverse a1\n 39789: a1 = a1 >> 0x20\n 39792: a3 = a3 | a1\n 39795: a0 = a0 >> 0x20\n 39798: a1 = reverse a2\n 39800: a2 = a1 << 0x20\n 39803: a0 = a0 | a2\n 39806: a1 = a1 >> 0x20\n 39809: a2 = s1 + 0x7ff\n 39813: a2 = a2 + 0x119\n 39817: jump [t0]\n      : @1512 (gas: 15)\n 39819: a0 = u64 [a2 + 0x8]\n 39822: a1 = i32 [a2 + 0x10]\n 39825: a2 = u64 [a2]\n 39827: a0 = reverse a0\n 39829: a3 = a0 << 0x20\n 39832: a1 = reverse a1\n 39834: a1 = a1 >> 0x20\n 39837: a3 = a3 | a1\n 39840: a0 = a0 >> 0x20\n 39843: a1 = reverse a2\n 39845: a2 = a1 << 0x20\n 39848: a0 = a0 | a2\n 39851: a1 = a1 >> 0x20\n 39854: a2 = s1 + 0x2118\n 39858: jump [t0]\n      : @1513 (gas: 5)\n 39860: sp = a0\n 39862: i32 a2 = a0 + 0\n 39864: a1 = 0x40\n 39867: a0 = u64 [s1 + 0x190]\n 39871: jump [t0]\n      : @1514 (gas: 27)\n 39873: u64 [s1 + 0x168] = a0\n 39877: a0 = ra - a3\n 39880: a0 = a0 <u a5\n 39883: a1 = ra <u a3\n 39886: a5 = u64 [s1 + 0x138]\n 39890: a4 = ra - a5\n 39893: a4 = a4 - a1\n 39896: a4 = a4 - a0\n 39899: ra = a4 >>a 0x3f\n 39902: a0 = u64 [s1 + 0x130]\n 39906: a0 = ra & a0\n 39909: a1 = u64 [s1 + 0x140]\n 39913: t2 = a1 - a0\n 39916: a1 = a1 <u a0\n 39919: t1 = a2 - a1\n 39922: a1 = 0 if a2 != 0\n 39924: a0 = a3 - a1\n 39927: u64 [s1 + 0x148] = a0\n 39931: a1 = a3 <u a1\n 39934: a1 = a5 - a1\n 39937: a0 = s1 + 0x100\n 39941: a3 = u64 [a0 + 0x98]\n 39945: a5 = u64 [a0 + 0x90]\n 39949: a2 = a3 | a5\n 39952: a2 = a2 <u 0x1\n 39955: a4 = u64 [a0 + 0x80]\n 39959: jump [t0]\n      : @1515 (gas: 8)\n 39961: a0 = u64 [a2 + 0x8]\n 39964: a1 = i32 [a2 + 0x10]\n 39967: a2 = u64 [a2]\n 39969: a3 = reverse a0\n 39971: a0 = a3 << 0x20\n 39974: a1 = reverse a1\n 39976: a1 = a1 >> 0x20\n 39979: jump [t0]\n      : @1516 (gas: 24)\n 39981: a0 = a1 if a2 == 0\n 39984: a2 = u64 [s1 + 0x150]\n 39988: a3 = a2\n 39990: a1 = a2\n 39992: a2 = u64 [s1 + 0x160]\n 39996: a3 = a0 if a2 != 0\n 39999: u64 [s1 + 0x168] = a3\n 40003: a0 = u64 [s1 + 0x148]\n 40007: a3 = u64 [s1 + 0x130]\n 40011: a0 = a0 | a3\n 40014: a3 = u64 [s1 + 0x120]\n 40018: a0 = a3 if a5 == 0\n 40021: a4 = u64 [s1 + 0x158]\n 40025: a3 = a4\n 40027: a3 = a0 if a2 != 0\n 40030: u64 [s1 + 0x160] = a3\n 40034: a0 = u64 [s1 + 0x170]\n 40038: a0 = 0 if a5 == 0\n 40040: u64 [s1 + 0x170] = a0\n 40044: u64 [s1 + 304] = 0x15180\n 40051: a0 = u64 [s1 + 0x198]\n 40055: a2 = a0 + 0xffffffffffffff80\n 40058: a0 = a4\n 40060: jump [t0]\n      : @1517 (gas: 15)\n 40062: a0 = u64 [a3 + 0x18]\n 40065: a1 = u64 [a3 + 0x10]\n 40068: a2 = u64 [a3 + 0x8]\n 40071: a3 = u64 [a3]\n 40073: a0 = reverse a0\n 40075: u64 [s1 + 0x178] = a0\n 40079: a0 = reverse a1\n 40081: u64 [s1 + 0x170] = a0\n 40085: a0 = reverse a2\n 40087: u64 [s1 + 0x168] = a0\n 40091: a0 = reverse a3\n 40093: u64 [s1 + 0x160] = a0\n 40097: a0 = sp + 0xffffffffffffffe0\n 40100: a0 = a0 & 0xffffffffffffffe0\n 40103: jump [t0]\n      : @1518 (gas: 14)\n 40105: a3 = u64 [s1 + 0x170]\n 40109: a0 = u64 [a3 + 0x18]\n 40112: a1 = u64 [a3 + 0x10]\n 40115: a2 = u64 [a3 + 0x8]\n 40118: a3 = u64 [a3]\n 40120: a0 = reverse a0\n 40122: u64 [s1 + 0x170] = a0\n 40126: a0 = reverse a1\n 40128: u64 [s1 + 0x168] = a0\n 40132: a0 = reverse a2\n 40134: u64 [s1 + 0x160] = a0\n 40138: a0 = reverse a3\n 40140: u64 [s1 + 0x158] = a0\n 40144: jump [t0]\n      : @1519 (gas: 8)\n 40146: a0 = sp + 0xffffffffffffffe0\n 40149: a0 = a0 & 0xffffffffffffffe0\n 40152: u64 [s1 + 0x190] = a0\n 40156: sp = a0\n 40158: i32 a2 = a0 + 0\n 40160: a1 = 0x40\n 40163: a0 = u64 [s1 + 0x110]\n 40167: jump [t0]\n      : @1520 (gas: 15)\n 40169: a2 = u64 [s1 + 0x190]\n 40173: a0 = u64 [a2 + 0x8]\n 40176: a1 = i32 [a2 + 0x10]\n 40179: a2 = u64 [a2]\n 40181: a0 = reverse a0\n 40183: a3 = a0 << 0x20\n 40186: a1 = reverse a1\n 40188: a1 = a1 >> 0x20\n 40191: a3 = a3 | a1\n 40194: a0 = a0 >> 0x20\n 40197: a1 = reverse a2\n 40199: a2 = a1 << 0x20\n 40202: a0 = a0 | a2\n 40205: a1 = a1 >> 0x20\n 40208: jump [t0]\n      : @1521 (gas: 18)\n 40210: a1 = a2 + 0x1\n 40213: u64 [s1 + 0x198] = a1\n 40217: a0 = a1 <u 0x1\n 40220: a0 = a0 + a3\n 40223: u64 [s1 + 0x190] = a0\n 40227: a0 = a0 | a1\n 40230: a0 = a0 <u 0x1\n 40233: a0 = a0 + t1\n 40236: u64 [s1 + 0x180] = a0\n 40240: a0 = a0 <u t1\n 40243: a0 = a0 + ra\n 40246: u64 [s1 + 0x188] = a0\n 40250: a1 = 0xff - a2\n 40254: u64 [s1 + 0x160] = a1\n 40258: a2 = 0x80 - a1\n 40262: a0 = u64 [s1 + 0x140]\n 40266: a1 = u64 [s1 + 0x138]\n 40270: jump [t0]\n      : @1522 (gas: 21)\n 40272: a3 = u64 [s1 + 0x180]\n 40276: a0 = u64 [a3 + 0x18]\n 40279: a1 = u64 [a3 + 0x10]\n 40282: a2 = u64 [a3 + 0x8]\n 40285: a3 = u64 [a3]\n 40287: a0 = reverse a0\n 40289: u64 [s1 + 0x170] = a0\n 40293: a0 = reverse a1\n 40295: u64 [s1 + 0x168] = a0\n 40299: a0 = reverse a2\n 40301: u64 [s1 + 0x160] = a0\n 40305: a0 = reverse a3\n 40307: u64 [s1 + 0x158] = a0\n 40311: a0 = sp + 0xffffffffffffffe0\n 40314: a0 = a0 & 0xffffffffffffffe0\n 40317: u64 [s1 + 0x180] = a0\n 40321: sp = a0\n 40323: a2 = s1 + 0x7ff\n 40327: a2 = a2 + 0x119\n 40331: a0 = u64 [s1 + 0x178]\n 40335: jump [t0]\n      : @1523 (gas: 14)\n 40337: a0 = u64 [a2 + 0x8]\n 40340: a1 = i32 [a2 + 0x10]\n 40343: a2 = u64 [a2]\n 40345: a0 = reverse a0\n 40347: a3 = a0 << 0x20\n 40350: a1 = reverse a1\n 40352: a1 = a1 >> 0x20\n 40355: a3 = a3 | a1\n 40358: a0 = a0 >> 0x20\n 40361: a1 = reverse a2\n 40363: a2 = a1 << 0x20\n 40366: a0 = a0 | a2\n 40369: a1 = a1 >> 0x20\n 40372: jump [t0]\n      : @1524 (gas: 19)\n 40374: a3 = u64 [s1 + 0x170]\n 40378: a0 = u64 [a3 + 0x18]\n 40381: a1 = u64 [a3 + 0x10]\n 40384: a2 = u64 [a3 + 0x8]\n 40387: a3 = u64 [a3]\n 40389: a0 = reverse a0\n 40391: u64 [s1 + 0x168] = a0\n 40395: a0 = reverse a1\n 40397: u64 [s1 + 0x160] = a0\n 40401: a0 = reverse a2\n 40403: u64 [s1 + 0x158] = a0\n 40407: a0 = reverse a3\n 40409: u64 [s1 + 0x150] = a0\n 40413: a0 = sp + 0xffffffffffffffe0\n 40416: a0 = a0 & 0xffffffffffffffe0\n 40419: u64 [s1 + 0x170] = a0\n 40423: sp = a0\n 40425: a0 = u64 [s1 + 0x180]\n 40429: jump [t0]\n      : @1525 (gas: 10)\n 40431: a0 = u64 [a3 + 0x18]\n 40434: a1 = u64 [a3 + 0x10]\n 40437: a2 = u64 [a3 + 0x8]\n 40440: a3 = u64 [a3]\n 40442: a0 = reverse a0\n 40444: a1 = reverse a1\n 40446: a2 = reverse a2\n 40448: a3 = reverse a3\n 40450: a4 = s1 + 0x2918\n 40454: jump [t0]\n      : @1526 (gas: 5)\n 40456: a0 = reverse a0\n 40458: a1 = reverse a1\n 40460: a2 = reverse a2\n 40462: a3 = reverse a3\n 40464: jump [t0]\n      : @1527 (gas: 16)\n 40466: t2 = u64 [s1 + 0x140]\n 40470: t1 = u64 [s1 + 0x138]\n 40474: u64 [s1 + 344] = 0\n 40478: u64 [s1 + 336] = 0\n 40482: a4 = s1 + 0x100\n 40486: a2 = u64 [a4 + 0x28]\n 40489: a1 = 0 if a2 == 0\n 40491: a0 = 0 if a2 == 0\n 40493: u64 [a4 + 0x48] = a0\n 40496: a3 = u64 [a4 + 0x30]\n 40499: a2 = a3 + 0xffffffffffffffff\n 40502: u64 [a4 + 0x28] = a2\n 40505: a2 = a3 >u 0\n 40507: a2 = a2 + 0xffffffffffffffff\n 40510: u64 [a4 + 0x20] = a2\n 40513: jump [t0]\n      : @1528 (gas: 15)\n 40515: a0 = u64 [a3 + 0x18]\n 40518: a1 = u64 [a3 + 0x10]\n 40521: a2 = u64 [a3 + 0x8]\n 40524: a3 = u64 [a3]\n 40526: a0 = reverse a0\n 40528: u64 [s1 + 0x188] = a0\n 40532: a0 = reverse a1\n 40534: u64 [s1 + 0x180] = a0\n 40538: a0 = reverse a2\n 40540: u64 [s1 + 0x178] = a0\n 40544: a0 = reverse a3\n 40546: u64 [s1 + 0x170] = a0\n 40550: a0 = sp + 0xffffffffffffffe0\n 40553: a0 = a0 & 0xffffffffffffffe0\n 40556: jump [t0]\n      : @1529 (gas: 18)\n 40558: a3 = u64 [s1 + 0xa8]\n 40562: a0 = u64 [a3 + 0x18]\n 40565: a1 = u64 [a3 + 0x10]\n 40568: a2 = u64 [a3 + 0x8]\n 40571: a3 = u64 [a3]\n 40573: a0 = reverse a0\n 40575: u64 [s1 + 0x90] = a0\n 40579: a0 = reverse a1\n 40581: u64 [s1 + 0x88] = a0\n 40585: a0 = reverse a2\n 40587: u64 [s1 + 0x80] = a0\n 40591: a0 = reverse a3\n 40593: u64 [s1 + 0x78] = a0\n 40596: a0 = sp + 0xffffffffffffffe0\n 40599: a0 = a0 & 0xffffffffffffffe0\n 40602: u64 [s1 + 0xa8] = a0\n 40606: sp = a0\n 40608: jump [t0]\n      : @1530 (gas: 14)\n 40610: a3 = u64 [s1 + 0x190]\n 40614: a0 = u64 [a3 + 0x18]\n 40617: a1 = u64 [a3 + 0x10]\n 40620: a2 = u64 [a3 + 0x8]\n 40623: a3 = u64 [a3]\n 40625: a0 = reverse a0\n 40627: u64 [s1 + 0x190] = a0\n 40631: a0 = reverse a1\n 40633: u64 [s1 + 0x188] = a0\n 40637: a0 = reverse a2\n 40639: u64 [s1 + 0x180] = a0\n 40643: a0 = reverse a3\n 40645: u64 [s1 + 0x178] = a0\n 40649: jump [t0]\n      : @1531 (gas: 5)\n 40651: a0 = sp + 0xffffffffffffffe0\n 40654: a0 = a0 & 0xffffffffffffffe0\n 40657: u64 [s1 + 0x198] = a0\n 40661: sp = a0\n 40663: jump [t0]\n      : @1532 (gas: 8)\n 40665: a0 = sp + 0xffffffffffffffe0\n 40668: a0 = a0 & 0xffffffffffffffe0\n 40671: u64 [s1 + 0x170] = a0\n 40675: sp = a0\n 40677: i32 a2 = a0 + 0\n 40679: a1 = 0x40\n 40682: a0 = u64 [s1 + 0x188]\n 40686: jump [t0]\n      : @1533 (gas: 9)\n 40688: u64 [a2 + 0x20] = a0\n 40691: a0 = u64 [s1 + 0x160]\n 40695: u64 [a2 + 0x18] = a0\n 40698: a0 = u64 [s1 + 0x168]\n 40702: u64 [a2 + 0x10] = a0\n 40705: a3 = a1\n 40707: a0 = 0x20\n 40710: a1 = s1 + 0x7ff\n 40714: jump [t0]\n      : @1534 (gas: 8)\n 40716: a0 = a0 | a2\n 40719: a2 = a3 | a1\n 40722: a2 = a2 | a0\n 40725: a2 = a2 >> 0x20\n 40728: a0 = a0 | a1\n 40731: a0 = a0 << 0x20\n 40734: a0 = a0 | a2\n 40737: jump [t0]\n      : @1535 (gas: 9)\n 40739: a0 = u64 [a3 + 0x18]\n 40742: a1 = u64 [a3 + 0x10]\n 40745: a2 = u64 [a3 + 0x8]\n 40748: a3 = u64 [a3]\n 40750: a0 = reverse a0\n 40752: a4 = reverse a1\n 40754: a2 = reverse a2\n 40756: a3 = reverse a3\n 40758: jump [t0]\n      : @1536 (gas: 12)\n 40760: a4 = 0\n 40762: a5 = 0\n 40764: a2 = u64 [s1 + 0x128]\n 40768: a1 = 0 if a2 == 0\n 40770: a0 = 0 if a2 == 0\n 40772: a3 = u64 [s1 + 0x138]\n 40776: a2 = a3 + 0xffffffffffffffff\n 40779: u64 [s1 + 0x130] = a2\n 40783: a2 = a3 >u 0\n 40785: a2 = a2 + 0xffffffffffffffff\n 40788: u64 [s1 + 0x128] = a2\n 40792: jump [t0]\n      : @1537 (gas: 11)\n 40794: a2 = u64 [s1 + 0x128]\n 40798: a1 = a1 | a2\n 40801: a2 = u64 [s1 + 0x198]\n 40805: a3 = a2 <u 0x80\n 40809: u64 [s1 + 0x128] = a3\n 40813: a4 = u64 [s1 + 0x120]\n 40817: a1 = a4 if a3 == 0\n 40820: a4 = u64 [s1 + 0x138]\n 40824: a4 = a1 if a2 != 0\n 40827: u64 [s1 + 0x138] = a4\n 40831: jump [t0]\n      : @1538 (gas: 12)\n 40833: a2 = t2 >> 0x3f\n 40836: a3 = t1 << 0x1\n 40839: a2 = a2 | a3\n 40842: a3 = t2 << 0x1\n 40845: t2 = u64 [s1 + 0x168]\n 40849: a4 = t2 >> 0x3f\n 40852: a3 = a3 | a4\n 40855: u64 [s1 + 0x140] = a3\n 40859: ra = u64 [s1 + 0x120]\n 40863: a0 = t1\n 40865: t1 = ra ^ a2\n 40868: jump [t0]\n      : @1539 (gas: 12)\n 40870: a1 = a1 << 0x1\n 40873: a4 = u64 [s1 + 0x148]\n 40877: a3 = a4 >> 0x3f\n 40880: a1 = a1 | a3\n 40883: u64 [s1 + 0x138] = a1\n 40887: a3 = a0 >> 0x3f\n 40890: a0 = a4 << 0x1\n 40893: a3 = a3 | a0\n 40896: a0 = t2 << 0x1\n 40899: a4 = u64 [s1 + 0x160]\n 40903: a1 = a4 >> 0x3f\n 40906: jump [t0]\n      : @1540 (gas: 15)\n 40908: a3 = u64 [s1 + 0x90]\n 40912: a0 = u64 [a3 + 0x18]\n 40915: a1 = u64 [a3 + 0x10]\n 40918: a2 = u64 [a3 + 0x8]\n 40921: a3 = u64 [a3]\n 40923: a0 = reverse a0\n 40925: a4 = reverse a1\n 40927: a2 = reverse a2\n 40929: a3 = reverse a3\n 40931: a1 = u64 [s1 + 0xa8]\n 40935: u64 [a1 + 0x18] = a3\n 40938: u64 [a1 + 0x10] = a2\n 40941: u64 [a1 + 0x8] = a4\n 40944: u64 [a1] = a0\n 40946: jump [t0]\n      : @1541 (gas: 14)\n 40948: a0 = u64 [a3 + 0x18]\n 40951: a1 = u64 [a3 + 0x10]\n 40954: a2 = u64 [a3 + 0x8]\n 40957: a3 = u64 [a3]\n 40959: a0 = reverse a0\n 40961: a1 = reverse a1\n 40963: a2 = reverse a2\n 40965: a3 = reverse a3\n 40967: a4 = u64 [s1 + 0x198]\n 40971: u64 [a4 + 0x18] = a3\n 40974: u64 [a4 + 0x10] = a2\n 40977: u64 [a4 + 0x8] = a1\n 40980: u64 [a4] = a0\n 40982: jump [t0]\n      : @1542 (gas: 14)\n 40984: a0 = u64 [a3 + 0x18]\n 40987: a1 = u64 [a3 + 0x10]\n 40990: a2 = u64 [a3 + 0x8]\n 40993: a3 = u64 [a3]\n 40995: a0 = reverse a0\n 40997: a4 = reverse a1\n 40999: a2 = reverse a2\n 41001: a3 = reverse a3\n 41003: a1 = u64 [s1 + 0x198]\n 41007: u64 [a1 + 0x18] = a3\n 41010: u64 [a1 + 0x10] = a2\n 41013: u64 [a1 + 0x8] = a4\n 41016: u64 [a1] = a0\n 41018: jump [t0]\n      : @1543 (gas: 14)\n 41020: a0 = u64 [a3 + 0x18]\n 41023: a1 = u64 [a3 + 0x10]\n 41026: a2 = u64 [a3 + 0x8]\n 41029: a3 = u64 [a3]\n 41031: a0 = reverse a0\n 41033: a4 = reverse a1\n 41035: a2 = reverse a2\n 41037: a3 = reverse a3\n 41039: a1 = u64 [s1 + 0x180]\n 41043: u64 [a1 + 0x18] = a3\n 41046: u64 [a1 + 0x10] = a2\n 41049: u64 [a1 + 0x8] = a4\n 41052: u64 [a1] = a0\n 41054: jump [t0]\n      : @1544 (gas: 9)\n 41056: u64 [s1 + 0x160] = a3\n 41060: a1 = 0 if a4 == 0\n 41062: u64 [s1 + 0x168] = a1\n 41066: u64 [s1 + 312] = 0x15180\n 41073: a0 = u64 [s1 + 0x190]\n 41077: a2 = a0 + 0xffffffffffffff80\n 41080: a0 = a5\n 41082: a1 = t1\n 41084: jump [t0]\n      : @1545 (gas: 10)\n 41086: u64 [s1] = a3\n 41088: u64 [s1 + 0x8] = a2\n 41091: u64 [s1 + 0x10] = a1\n 41094: u64 [s1 + 0x18] = a0\n 41097: sp = s0 + 0xffffffffffffffc0\n 41100: ra = u64 [sp + 0x38]\n 41103: s0 = u64 [sp + 0x30]\n 41106: s1 = u64 [sp + 0x28]\n 41109: sp = sp + 0x40\n 41112: jump [t0]\n      : @1546 (gas: 8)\n 41114: a0 = sp + 0xffffffffffffffe0\n 41117: a0 = a0 & 0xffffffffffffffe0\n 41120: u64 [s1 + 0xa8] = a0\n 41124: sp = a0\n 41126: i32 a2 = a0 + 0\n 41128: a1 = 0x40\n 41131: a0 = u64 [s1 + 0xb8]\n 41135: jump [t0]\n      : @1547 (gas: 4)\n 41137: a0 = 0x2918\n 41141: a3 = s1 + a0\n 41144: a4 = a3 + 0x200\n 41148: jump [t0]\n      : @1548 (gas: 9)\n 41150: a0 = a0 | a1\n 41153: a1 = u64 [s1 + 0x148]\n 41157: a0 = a1 if a3 == 0\n 41160: a1 = u64 [s1 + 0x140]\n 41164: a1 = a0 if a2 != 0\n 41167: u64 [s1 + 0x140] = a1\n 41171: a0 = u64 [s1 + 0x158]\n 41175: a1 = u64 [s1 + 0x150]\n 41179: jump [t0]\n      : @1549 (gas: 16)\n 41181: a4 = u64 [a3]\n 41183: u64 [sp + 0x18] = a4\n 41186: a4 = u64 [a3 + 0x8]\n 41189: u64 [sp + 0x20] = a4\n 41192: a4 = u64 [a3 + 0x10]\n 41195: u64 [sp + 0x28] = a4\n 41198: a3 = u64 [a3 + 0x18]\n 41201: u64 [sp + 0x30] = a3\n 41204: s1 = u64 [a2]\n 41206: a3 = u64 [a2 + 0x8]\n 41209: u64 [sp] = a3\n 41211: a3 = u64 [a2 + 0x10]\n 41214: u64 [sp + 0x8] = a3\n 41217: a2 = u64 [a2 + 0x18]\n 41220: u64 [sp + 0x10] = a2\n 41223: jump [t0]\n      : @1550 (gas: 10)\n 41225: a0 = u64 [a3]\n 41227: a1 = u64 [a3 + 0x8]\n 41230: a2 = u64 [a3 + 0x10]\n 41233: a3 = u64 [a3 + 0x18]\n 41236: a0 = reverse a0\n 41238: a1 = reverse a1\n 41240: a2 = reverse a2\n 41242: a3 = reverse a3\n 41244: a4 = a3 + 0x1\n 41247: jump [t0]\n      : @1551 (gas: 4)\n 41249: a0 = u64 [s1 + 0x198]\n 41253: a0 = i32 [a0]\n 41255: a1 = 0x3f\n 41258: jump [t0]\n      : @1552 (gas: 7)\n 41260: u64 [s1 + 0x110] = a0\n 41264: u64 [s1 + 0x128] = a1\n 41268: a1 = u64 [s1 + 0x190]\n 41272: a2 = 0x80 - a1\n 41276: a0 = u64 [s1 + 0x150]\n 41280: a1 = u64 [s1 + 0x140]\n 41284: jump [t0]\n      : @1553 (gas: 13)\n 41286: a4 = s1 + 0x300\n 41290: a3 = u64 [a4 + 0x58]\n 41293: a1 = u64 [a4 + 0x50]\n 41296: a2 = u64 [a4 + 0x48]\n 41299: a0 = u64 [a4 + 0x40]\n 41302: a3 = a3 | a2\n 41305: a2 = a0 | a1\n 41308: a2 = a2 | a3\n 41311: a2 = a2 >> 0x20\n 41314: a1 = a1 | a3\n 41317: a1 = a1 << 0x20\n 41320: a1 = a1 | a2\n 41323: jump [t0]\n      : @1554 (gas: 9)\n 41325: a2 = a0 <u a4\n 41328: a1 = a1 - a5\n 41331: a1 = a1 - a2\n 41334: a0 = a0 - a4\n 41337: a1 = a1 & 0xffffffffffffffff\n 41340: u64 [s1 + 0x160] = a1\n 41344: a0 = a0 & 0xffffffffffffffff\n 41347: u64 [s1 + 0x158] = a0\n 41351: jump [t0]\n      : @1555 (gas: 8)\n 41353: a2 = u64 [s1 + 0x128]\n 41357: a1 = a1 | a2\n 41360: a3 = u64 [s1 + 0x190]\n 41364: a4 = a3 <u 0x80\n 41368: u64 [s1 + 0x128] = a4\n 41372: a2 = u64 [s1 + 0x118]\n 41376: a1 = a2 if a4 == 0\n 41379: jump [t0]\n      : @1556 (gas: 4)\n 41381: a2 = a0\n 41383: a0 = 0x4e487b7100000000\n 41393: a1 = 0x2000\n 41397: jump [t0]\n      : @1557 (gas: 8)\n 41399: a0 = u64 [a4 + 0xd8]\n 41403: a1 = u64 [a4 + 0xe0]\n 41407: a2 = u64 [a4 + 0xd0]\n 41411: a3 = u64 [a4 + 0xc8]\n 41415: a1 = a1 | a2\n 41418: a0 = a0 | a3\n 41421: a0 = a0 | a1\n 41424: jump [t0]\n      : @1558 (gas: 9)\n 41426: a1 = a3 <u a1\n 41429: a1 = a5 - a1\n 41432: a0 = s1 + 0x100\n 41436: a3 = u64 [a0 + 0x88]\n 41440: a5 = u64 [a0 + 0x80]\n 41444: a2 = a3 | a5\n 41447: a2 = a2 <u 0x1\n 41450: a4 = u64 [a0 + 0x70]\n 41453: jump [t0]\n      : @1559 (gas: 12)\n 41455: a0 = u64 [sp + 0x18]\n 41458: a1 = u64 [sp + 0x10]\n 41461: a2 = u64 [sp + 0x8]\n 41464: a3 = u64 [sp]\n 41466: a4 = a2 | a0\n 41469: a5 = a3 | a1\n 41472: a5 = a5 | a4\n 41475: a5 = a5 >> 0x20\n 41478: a4 = a4 | a1\n 41481: a4 = a4 << 0x20\n 41484: a4 = a4 | a5\n 41487: jump [t0]\n      : @1560 (gas: 8)\n 41489: a0 = sp + 0xffffffffffffffe0\n 41492: a0 = a0 & 0xffffffffffffffe0\n 41495: u64 [s1 + 0x168] = a0\n 41499: sp = a0\n 41501: i32 a2 = a0 + 0\n 41503: a1 = 0x40\n 41506: a0 = u64 [s1 + 0x188]\n 41510: jump [t0]\n      : @1561 (gas: 7)\n 41512: a0 = reverse a1\n 41514: u64 [s1 + 0x170] = a0\n 41518: a0 = reverse a2\n 41520: u64 [s1 + 0x168] = a0\n 41524: a0 = reverse a3\n 41526: u64 [s1 + 0x160] = a0\n 41530: jump [t0]\n      : @1562 (gas: 8)\n 41532: a0 = u64 [s1 + 0x198]\n 41536: a2 = u64 [s1 + 0x128]\n 41540: a0 = a0 | a2\n 41543: a2 = u64 [s1 + 0x110]\n 41547: a0 = a2 if a4 == 0\n 41550: t1 = u64 [s1 + 0x140]\n 41554: a3 = t1\n 41556: jump [t0]\n      : @1563 (gas: 6)\n 41558: u64 [s1 + 0x128] = a1\n 41562: a1 = u64 [s1 + 0x198]\n 41566: a2 = 0x80 - a1\n 41570: a0 = u64 [s1 + 0x158]\n 41574: a1 = u64 [s1 + 0x150]\n 41578: jump [t0]\n      : @1564 (gas: 7)\n 41580: u64 [s1 + 0x130] = a0\n 41584: u64 [s1 + 0x128] = a1\n 41588: a0 = u64 [s1 + 0x160]\n 41592: a2 = a0 + 0xffffffffffffff80\n 41595: a0 = u64 [s1 + 0x140]\n 41599: a1 = u64 [s1 + 0x138]\n 41603: jump [t0]\n      : @1565 (gas: 6)\n 41605: a0 = u64 [a3 + 0x18]\n 41608: a1 = u64 [a3 + 0x10]\n 41611: a2 = u64 [a3 + 0x8]\n 41614: a3 = u64 [a3]\n 41616: a0 = reverse a0\n 41618: jump [t0]\n      : @1566 (gas: 9)\n 41620: a0 = u64 [a3 + 0x18]\n 41623: a1 = u64 [a3 + 0x10]\n 41626: a2 = u64 [a3 + 0x8]\n 41629: a3 = u64 [a3]\n 41631: a5 = reverse a0\n 41633: a4 = reverse a1\n 41635: a0 = reverse a2\n 41637: a2 = reverse a3\n 41639: jump [t0]\n      : @1567 (gas: 8)\n 41641: u64 [sp + 48] = 0\n 41644: u64 [sp + 40] = 0\n 41647: u64 [sp + 32] = 0\n 41650: a0 = 0x4e487b7100000000\n 41660: a1 = sp + 0x20\n 41663: u64 [sp + 0x38] = a0\n 41666: a0 = 0\n 41668: jump [t0]\n      : @1568 (gas: 9)\n 41670: a0 = u64 [a2 + 0x8]\n 41673: a1 = i32 [a2 + 0x10]\n 41676: a2 = u64 [a2]\n 41678: a0 = reverse a0\n 41680: a3 = a0 << 0x20\n 41683: a1 = reverse a1\n 41685: a1 = a1 >> 0x20\n 41688: a1 = a1 | a3\n 41691: jump [t0]\n      : @1569 (gas: 4)\n 41693: a0 = u64 [s1 + 0x198]\n 41697: a0 = i32 [a0]\n 41699: a1 = 0x23\n 41702: jump [t0]\n      : @1570 (gas: 10)\n 41704: sp = sp + 0xffffffffffffffc0\n 41707: u64 [sp + 0x38] = ra\n 41710: u64 [sp + 0x30] = s0\n 41713: u64 [sp + 0x28] = s1\n 41716: s0 = sp + 0x40\n 41719: sp = sp & 0xffffffffffffffe0\n 41722: s1 = a0\n 41724: i32 a0 = sp + 0\n 41726: a1 = 0x4\n 41729: jump [t0]\n      : @1571 (gas: 6)\n 41731: sp = s0 + 0xffffffffffffffa0\n 41734: ra = u64 [sp + 0x58]\n 41737: s0 = u64 [sp + 0x50]\n 41740: s1 = u64 [sp + 0x48]\n 41743: sp = sp + 0x60\n 41746: jump [t0]\n      : @1572 (gas: 4)\n 41748: a0 = u64 [s1 + 0x158]\n 41752: a1 = s1 + 0x7ff\n 41756: a1 = a1 + 0x119\n 41760: jump [t0]\n      : @1573 (gas: 8)\n 41762: a0 = sp + 0xffffffffffffffe0\n 41765: a0 = a0 & 0xffffffffffffffe0\n 41768: u64 [s1 + 0x90] = a0\n 41772: sp = a0\n 41774: i32 a2 = a0 + 0\n 41776: a1 = 0x40\n 41779: a0 = u64 [s1 + 0xb8]\n 41783: jump [t0]\n      : @1574 (gas: 5)\n 41785: a0 = sp + 0xffffffffffffffe0\n 41788: a2 = a0 & 0xffffffffffffffe0\n 41791: u64 [s1 + 0x190] = a2\n 41795: sp = a2\n 41797: jump [t0]\n      : @1575 (gas: 5)\n 41799: a0 = sp + 0xffffffffffffffe0\n 41802: a2 = a0 & 0xffffffffffffffe0\n 41805: u64 [s1 + 0x198] = a2\n 41809: sp = a2\n 41811: jump [t0]\n      : @1576 (gas: 4)\n 41813: a0 = u64 [s1 + 0x198]\n 41817: a1 = 0x40\n 41820: u32 [a0] = a1\n 41822: jump [t0]\n      : @1577 (gas: 6)\n 41824: t2 = a1 - a0\n 41827: a1 = a1 <u a0\n 41830: t1 = a2 - a1\n 41833: a1 = 0 if a2 != 0\n 41835: a0 = a3 - a1\n 41838: jump [t0]\n      : @1578 (gas: 6)\n 41840: u64 [s1 + 0x148] = a0\n 41844: u64 [s1 + 0x120] = a1\n 41848: a0 = u64 [s1 + 0x140]\n 41852: a1 = u64 [s1 + 0x138]\n 41856: a2 = u64 [s1 + 0x198]\n 41860: jump [t0]\n      : @1579 (gas: 6)\n 41862: u64 [s1 + 0x148] = a0\n 41866: u64 [s1 + 0x168] = a1\n 41870: a0 = u64 [s1 + 0x158]\n 41874: a1 = u64 [s1 + 0x150]\n 41878: a2 = u64 [s1 + 0x160]\n 41882: jump [t0]\n      : @1580 (gas: 4)\n 41884: a0 = 0x2118\n 41888: a3 = s1 + a0\n 41891: a4 = a3 + 0x700\n 41895: jump [t0]\n      : @1581 (gas: 4)\n 41897: a0 = 0x2918\n 41901: a3 = s1 + a0\n 41904: a4 = a3 + 0x300\n 41908: jump [t0]\n      : @1582 (gas: 6)\n 41910: u64 [s1 + 0x160] = a0\n 41914: u64 [s1 + 0x198] = a1\n 41918: a0 = u64 [s1 + 0x150]\n 41922: a1 = u64 [s1 + 0x140]\n 41926: a2 = u64 [s1 + 0x168]\n 41930: jump [t0]\n      : @1583 (gas: 4)\n 41932: a0 = 0x40\n 41935: a1 = u64 [s1 + 0x198]\n 41939: u32 [a1] = a0\n 41941: jump [t0]\n      : @1584 (gas: 8)\n 41943: u64 [a2 + 0xe0] = a0\n 41947: a0 = u64 [s1 + 0x160]\n 41951: u64 [a2 + 0xd8] = a0\n 41955: a0 = u64 [s1 + 0x168]\n 41959: u64 [a2 + 0xd0] = a0\n 41963: a3 = a1\n 41965: a0 = 0x20\n 41968: jump [t0]\n      : @1585 (gas: 9)\n 41970: sp = sp + 0xffffffffffffffc0\n 41973: u64 [sp + 0x38] = ra\n 41976: u64 [sp + 0x30] = s0\n 41979: u64 [sp + 0x28] = s1\n 41982: s0 = sp + 0x40\n 41985: sp = sp & 0xffffffffffffffe0\n 41988: s1 = a0\n 41990: i32 a0 = sp + 0\n 41992: jump [t0]\n      : @1586 (gas: 6)\n 41994: a3 = u64 [s1 + 0x190]\n 41998: ra = u64 [s1 + 0x180]\n 42002: a2 = a3 | ra\n 42005: a2 = a2 <u 0x1\n 42008: a4 = u64 [s1 + 0x170]\n 42012: jump [t0]\n      : @1587 (gas: 5)\n 42014: a0 = a2 ^ 0xff\n 42018: a0 = a0 | t1\n 42021: a1 = a3 | ra\n 42024: a0 = a0 | a1\n 42027: jump [t0]\n      : @1588 (gas: 6)\n 42029: u64 [s1 + 0x118] = a0\n 42033: u64 [s1 + 0x110] = a1\n 42037: a2 = u64 [s1 + 0x168]\n 42041: a0 = a2 <u 0x80\n 42045: u64 [s1 + 0x138] = a0\n 42049: jump [t0]\n      : @1589 (gas: 10)\n 42051: a4 = s1 + 0x100\n 42055: u64 [a4 + 0x60] = a1\n 42058: a1 = u64 [a4 + 0x80]\n 42062: a2 = u64 [a4 + 0x78]\n 42065: a2 = a2 | a1\n 42068: a1 = u64 [a4 + 0x88]\n 42072: a3 = u64 [a4 + 0x70]\n 42075: a1 = a1 | a3\n 42078: a1 = a1 | a2\n 42081: jump [t0]\n      : @1590 (gas: 10)\n 42083: a4 = s1 + 0x100\n 42087: u64 [a4 + 0x70] = a1\n 42090: a1 = u64 [a4 + 0x90]\n 42094: a2 = u64 [a4 + 0x88]\n 42098: a2 = a2 | a1\n 42101: a1 = u64 [a4 + 0x98]\n 42105: a3 = u64 [a4 + 0x80]\n 42109: a1 = a1 | a3\n 42112: a1 = a1 | a2\n 42115: jump [t0]\n      : @1591 (gas: 8)\n 42117: a0 = u64 [a4 + 0x58]\n 42120: a1 = u64 [a4 + 0x60]\n 42123: a2 = u64 [a4 + 0x50]\n 42126: a3 = u64 [a4 + 0x48]\n 42129: a1 = a1 | a2\n 42132: a0 = a0 | a3\n 42135: a0 = a0 | a1\n 42138: jump [t0]\n      : @1592 (gas: 2)\n 42140: a3 = a2 & 0x40\n 42143: jump @1596 if a3 != 0\n      : @1593 (gas: 1)\n 42146: jump @1595 if a2 == 0\n      : @1594 (gas: 6)\n 42149: i32 a3 = 0x40 - a2\n 42152: a3 = a1 << a3\n 42155: a1 = a1 >> a2\n 42158: a0 = a0 >> a2\n 42161: a0 = a0 | a3\n 42164: ret\n      : @1595 (gas: 1)\n 42166: ret\n      : @1596 (gas: 4)\n 42168: a0 = a2 + 0xffffffffffffffc0\n 42171: a0 = a1 >> a0\n 42174: a1 = 0\n 42176: ret\n      : @1597 (gas: 2)\n 42178: a3 = a2 & 0x40\n 42181: jump @1601 if a3 != 0\n      : @1598 (gas: 1)\n 42184: jump @1600 if a2 == 0\n      : @1599 (gas: 6)\n 42187: i32 a3 = 0x40 - a2\n 42190: a3 = a0 >> a3\n 42193: a0 = a0 << a2\n 42196: a1 = a1 << a2\n 42199: a1 = a1 | a3\n 42202: ret\n      : @1600 (gas: 1)\n 42204: ret\n      : @1601 (gas: 4)\n 42206: a1 = a2 + 0xffffffffffffffc0\n 42209: a1 = a0 << a1\n 42212: a0 = 0\n 42214: ret\n","bytecode":{"object":"50564d0000bac2000000000000010700c1c001c0008003816cf40443b2a766a42db9815a1e2efa877e5c0519ec4fe51c83c442ba392fca77e2b417406592b5dbd6886d772784123ca0859bbddc544b79277c562e79691cb829116ca4777b81d4ea98e10c16c565173f400507b7679bbdc6b249bd00a16076687a96c0a237ac310730ce86cab6918a9cee1f20395b3b80e1e34a4eb67d08a74e0dc354af37bd04b03f2522518a6d9314cf35a01b6f25119782e62a75888f78d1527c373f8a8f13d8dec2e4708e54ca59a13610a1f529f1946a422bba3c51695b0000e8890423c78affffe7890423c78a00001876fbdc3875975752f4e33b24c3dceff4c6a46dc4173eb68630b623f1b6b5ef1d0584397d33e6d8186647f5847091063f7d0def110bff283e79b8ad5546d505d5764c8d017f00001876fbdc38750000e8890423c78af2a8b439f25bd8ebdf119a7090238fa225717e85c68e190f0982ba0d5cabfde394247a18b5e26bbe1d817609543b3c0451c960f58acf6b97ba06c2c9ba61c0412000000004811b11000000000400000012000000200000002e0000003400000041000000530000005e0000006d000000700000007d0000008d0000009d000000a8000000ba000000c500000063616c6c63616c6c5f646174615f636f707963616c6c5f646174615f6c6f616463616c6c5f646174615f73697a6563616c6c65726465706f7369745f6576656e746765745f696d6d757461626c655f646174616765745f73746f72616765686173685f6b656363616b5f3235366e6f777265665f74696d655f6c65667472657475726e5f646174615f636f707972657475726e5f646174615f73697a657365616c5f72657475726e7365745f696d6d757461626c655f646174617365745f73746f7261676576616c75655f7472616e73666572726564051302c01e9b0463616c6cc0279b066465706c6f7906c0fdbf833902c0e8a4da0022024503570368031e04b304bb048d059505940699061a072507400791079c0706082f0843086f088408a908c708ec088e099409b509260a2c0a4d0a710a770ab20ac70af70a300b3d0b770b810b8f0bd30bdf0bfd0b2a0c3e0c480cde0cec0c110d1b0d3a0d5c0d620da70db10def0d3f0e7f0e8b0e380f4c0f560fb80feb0ff20ff90f4b106210591174119211b511bc1133124e126d12ba12ad13b8131f1426142d145014f91402152215691574159f15cf15d8150b162a166c167516ea161c176017c9173918901897189e18ab18c118e918071927193a195019731988198f19e2190d1a471b4e1b551b731b7a1b891bdd1be41b1d1ca31caa1ce61c121d2e1d371d6a1d731d931dcf1deb1df41d141e471e651e761e801eb01ee31e011f131f1e1f281f411f8b1fbf1fc61fec1f02202e204b2051207120bf202d215421b12115226322b122bf22fd220b23172383238d23aa23cd23d323192423247124c924ff240d25492582258f25aa25d825ed25f72555268126ae26ca2624272a27462763276927af27b927c327f427022834283f284d2889289628ac28da28ef28f92853298429ae29552b5f2b7f2b882ba82bae2bdd2bfe2b082c122c4a2c9a2c992d9f2da52dc22dc82dd62d332e392e722e982ef42e5c2f3430cd304b3177317d3197319d31a331a931dd31e331cc3238333e335f338a33b73314341a343e346a34a434b534bf34e1343135373558358435a235af35b535d935df35e935fb351936203635368236bb36fa360037243750376e377f3789379337bf37fb37193826382c3850385638603872389038a138ab38b938de384a399239a4394f3a733a983af43a083b8b3bf43b093c133cc73cf33cf93c133d193d1f3d253d593d5f3d483e9c3e223f813ffe3f31406640cb402e41774103427242bc4207431c43264343434c436c43ae43b843c743f04323448844a944fa44084532458745df4525466f46a546254709499e49e849f1490e4a734a064b494b574bcd4b424c544c644cec4c154d414d6f4dd34dea4df54e2f4f7850ba50d250f8506151e3515e5279529f522b5373539053cb53d8530d5456546b5475549554b854be54f254fc543a558b559855a155f9556e56ed5677578c57965721582e58c1582d59535988599b59a459c4592f5b555b7d5ba35b1b5c605cf55c3d5d635d8e5da45db75dc05d125e185e7a5e8d5e965eb65e065f0c5f125f595f665f745f8a5f9d5fa65f48604e6054609460cb6002617161d861fc61176243624d626a6273629362bb62dc62e6621a634d636b637c6386639b63a563ca63d363c264cc64d264d864de64e464ea640c65126538653e6544654a6554655a6560656a65706576657c658f65d565a866d466de66fe66076727673f67be67f567fb67046814681b68306854685e688368db68e56802690b692b6931693a694a6957695d69666986699869aa69b069b969c9691b6a346ac16acb6ae36aec6a086b266b336b396b426b5e6b8c6baa6bb16bc66b046c196c656ca76ce96c996da36da96daf6db56dbb6dc16de36de96d0f6e156e1b6e216e2b6e316e376e416e476e4d6e536e666eac6ef56e1b6f856f9a6fa46fc16fe46ff66fff6f0f7020702a706870b970ce70d8704f71d571de71fe711c7229722f72387258728c72aa72bb72c572d472f47227735f73697382739a73d4730f744a74b274de74f67431753b7561751f7665767f769c76be76c476397753777177bd77b078ba786f798d79a779bb79dc79e679007a797a977a9d7aa67aac7ab97abf7ade7a0f7b157b1e7b247b357b3f7b687bd67b0a7c287c2e7c377c3d7c4a7c507c707c9d7ca37cac7cb27cbf7cc57ce47c157d1b7d247d2a7d3b7d457d5e7dd47d187e647e797e837e117f507f1d8049804f805880688079808380b980f480fa800381138124812e815b81e8814982d582028320832d8333836083668370838383a1830b8411841b843284508461846b84898410856e85b485e985108639863f869f86a586c786e286e886f886fe8607872287288735873b8744875987c987d187d887f0871488dc8813892d8951899489b689f78a0e8b278b458bc48bda8bf48b378cb18dd08d158e1b8e458e768e908e9d8ea38eae8eee8e0d8f278f388f428f788faa8fc48fd18fd78ff88f299043905090569061908d90ca90f29010913591469150917f91da91eb91e3920d935c93a393ed9322943c94659437956e95a195af95b595dc956396a29661978497bc97e69755985c98749898989f99c9991c9a639aa19af99a279b319baa876e978a2098aa20977b2098bb20c89b0bc9ba0a979b019abbaeab20ae873751094ec87909647a017c8b95880195ac0178ab64caab9cf42836510934c87909647a017c8b95880195ac0178ab64caab9cf4281c51091a839aff01c8a80b7cbb9599ffc8a70c78cb83aaff5209f032009511e87b10107b15087b163306680102390568010251051c3307a00103837783680a060139076801022003680102ac5710821010821508821695111832000039086801025108b2073307a0010383770a0e28a5079511f07b10087b1564896475330820649750100270057c78017c797c7a027c7b03978808d4980897aa1097bb18d4ba0ad4a8087c79057c7a047c7b067c7c07979908d4a90997bb1097cc18d4cb0bd4b909979920d489027c79097c7a087c7b0a7c7c0b979908d4a90997bb1097cc18d4cb0bd4b9097c7a0d7c7b0c7c7c0e7c780f97aa08d4ba0a97cc10978818d4c808d4a808978820d498037c78117c7a107c7b127c7c13978808d4a80897bb1097cc18d4cb0bd4b8087c7a157c7b147c7c167c791797aa08d4ba0a97cc10979918d4c909d4a909979920d4890a7c78197c79187c7b1a7c7c1b978808d4980897bb1097cc18d4cb0bd4b8087c791d7c7b1c7c7c1e7c771f979908d4b90997cc10977718d4c707d49707977720d487076f776fa86f396f2a7b5a187b59107b58087b57821008821595111032009511d87b10207b15187b161082897b19088289087b1982851082861833082050100428046f686f59821a6faa821b086fbb787b18787a10787908787898bc38787c1f98bc30787c1e98bc28787c1d98bc20787c1c98bc18787c1b98bc10787c1a98bb08787b1998ab38787b1798ab30787b1698ab28787b1598ab20787b1498ab18787b1398ab10787b1298aa08787a11989a38787a0f989a30787a0e989a28787a0d989a20787a0c989a18787a0b989a10787a0a98990878790998893878790798893078790698892878790598892078790498891878790398891078790298880878780182102082151882161095112832009511a07b10587b15507b16489515608411e06476828718828910828a0882886f776f996faa6f887b18187b1a107b19087b17491138491130491128491120481140208318831a20831b403309ff33073300060a0701821738821830821928821a20501208b79a007b6a187b69107b68087b6750120aa19f0032009511a07b10587b15509515608411e08272827a08827b108277188283828908828c108288186f746fbb6faa6f276f826fcc6f996f387b17187b1a107b1b087b147b18387b19307b1c287b12208318831a203309ff330b2033070a0f9551a08210588215509511603200951160ff7b1098007b1590007b1688009515a0008411e082ab7b1b3882ab087b1b3082ab107b1b2882aa187b1a20829a7b1a18829a087b1a10829a107b1a088299187b19648650100c2c0282186f888219086f99821a106faa821b186fbb7b1b587b1a507b19487b18408218206f888219286f99821a306faa821b386fbb7b1b787b1a707b19687b18608379836a8317403308020a05955160ff8210980082159000821688009511a0003200951120ff7b10d8007b15d0007b16c8009515e0008411e082bc7b1c4082bc087b1c4882bc107b1c5082bb187b1b5850120e309c007b18385010108f016f687b187882186f887b18708218086f887b18688218106f887b18608218186f887b1898008218206f887b1890008218286f887b1888008218306f887b1880008218406f887b18b8008218486f887b18b0008218506f887b18a8008218586f887b18a0008379811a388317603308030a05955120ff8210d8008215d0008216c8009511e00032009511e0fe7b1018017b1510017b160801951520018411e082c67b166082c6087b166882c6107b167082cc187b1c7882bc7b1c3882bc087b1c4082bc107b1c4882bb187b1b50501212569b007b1858501014b5006f687b18980082186f887b1890008218086f887b1888008218106f887b1880008218186f887b18b8008218206f887b18b0008218286f887b18a8008218306f887b18a0008218386f887b18d8008218406f887b18d0008218486f887b18c8008218506f887b18c0008218606f887b18f8008218686f887b18f0008218706f887b18e8008218786f887b18e0008379811a58831780003308040a059551e0fe8210180182151001821608019511200132008b7910520931c8780883881f8488e05638000001253309700102390a700102ae8a093d087001020133088001028377c887073200009511f07b10087b158475010a03013d076c010251050750101609501018f001951100ff7b10f8007b15f0007b16e800951500018411e04921d8004921d0004921c8004921c0008317c0000a10018217d0008218d8008219c800821ac000d49808d4a707d487075207e10039066c010297672098772095771f8477e09578a000d878077b18a0007b17a80094777b17b0003307409518a0004921b80050101ae9fa3307a000646850101c25ff8377646833090a010154161fa000951780003308a00050101e89f9821790008219980014080000000001000000d37808d49808987a2088aa01949a938a510a7982188000821a8800d4780bd49a0cd4cb0b510b727b18607b1a687b1770330780009518607b197850102072fa9517403308405010222df9821758821850821948821640d49707d48609d47909989920d48707977720d49707510769003308800102838833070128b1003308800102838833070128a400330880010283883307012897004911104911084901140700000000c8f5bc1464187b17183307501024fdf9390870010256181f0b20037001022001330880010283883307013309040a0d01646733085010261bfe8377330833090a019517203308800050102886f8821738821930821a28821b203e07b801033e09b001033e0aa801033e0ba00103284cf86467330850102adbfd83783307330933002c0a0d280a330933002c0a0d01951110fe7b10e8017b15e0017b16d8019515f0019511f0d18411e0641633022e95691821014929c0064929b8064929a80680003307409568c0274929b0065010303cf933076c01027b67980139076c01025517040728945d956700208377e00733083300320a0201956a182181a7e4065247871cb2880a287e13514734666299f70a956918295247e1ac83b60a284f205247af2be2b70a28b5195147b00de3d0950352477b7a38020a28351d52474a45080e0a28330f52475f53cc0e0a285816514786e72a2281065247b836cc480a286b105247aef7914a0a285a125147db2ae7600a289d244929400249293802492930024929280295670030837740fb3300340a103302362827970050123623970082b73882b84082b93082ba28d49808d4a707d4870751070628b04e5012382e9900ac780628b54e95670030837760fb3308040a020195691829829a5802829b600285a701d4b70788a80194b8937852080628994e956c00017bcb687bca7082975002829848027bc788007bc88000d4870752070628874e33078001037b67900183777b67780133003a0a0433023c28c7920050123cc39200956918114909959b00ff7bb8f8007bb7f000956800117bbae800330750103eb6f79569ff07959919014929e0074929d8074929d0073307209568e0104929c80750104092f75012425a94003309700102390770010256173f0b200370010240017b6958019517e08479e07b69600164913307800102837783993308407b6750013300440a0801826a600182a782a80882a91082aa1850124647930095aa0188ab01c8b909d49a0b88bb01c88b0bd88b08c88707826898017b8a7b89087b8b107b87189567c010501048fef79568ff07958819018287a8078288b0073303ffd23709d2380a826c8801d3ca02d8ca0a826b8001d8b909db2a0951090628b94d50124a4396009567a0108268980150104cb8f79568ff07958819018287a0078288980795691829959a00027ba780007ba878826758017ba768826760017ba7709568802b8267980150104ef8f7826778013300500a0401956c000182c9900050125208920082c968956bff0795bb19017bb9600782c9707bb9580782c988007bb9500782c9800095bc00077bc948492b80077bc8787bc77095678010956860107bca68501054cb8c0095674010330840501056eaf4956bff0795bb190195bc000782c74082c83882c93082ca28501258159300510706285b4c492b2007492b1807826780017bb7080795682010826788017bb7100764a77b6a980150105ad9f58267780133005c0a048269900133025e28df8f008269900150125ed78f00d4780298aa206f98978920d4a9099888203a0aa000029567ff07957719017b7a00073a0aa800023a0bb000023a0cb800027b7af806957a00067babf0004927e0067bace8007ba8d8007ba9d00033082095690010956aff0795aae1077b72c806826798013300a6012823f78267980181775617030728564c4929600649295806492950064929480695670030837760ff3300600a1001956a182995ab00065012629f970052070628354c33078001037b67900183777b6768013300640a0482699001330266287e8e0082699001501266768e004929a006959b00067bb898007bb790009568a0277bba88003307501068c9f4956718214927800649277806492770066479330720956880274929680650106aa7f450126c6f91003309700102390770010256173f0b200370010240017b6960019517e08479e07b69880164913307800102837783993308407b67700133006e0a08826a880133027028519200826a88015012704992009567182949278006492778064927700649276806956700308377800a1095681829828768067b678801828770067b678001956760278268980150107206f595681821018287500682884806956b000182b98000c8790982ba8800c88a0a7bba8800d88a08c8890ad37a097bba8000d87a0ada980a8ea77bba7893a751070628434b9567402782689801501074b6f495681821828738068288400682697801d4970795691829826a8001959b00067bba9000826a88017bba88007bb8a0007bb798009568a02f82679801501076f0f4956720273308405010783ef295671821957900068298207b6888018298187b6880018298107b6878018297087b679801956718294927c0064927b8064927b0064927a806956700308377c00a1001956a000182a7880082a878d4870782a89800648c82a98000d49808d47808988820d49707977720d48707510706286149956a182995ab000682b7a80082b8b00082b9b80082bac000956b18217bba000695ba00057ba9f8007ba8f000956800277ba7e80064c750107acbf28267680133007c0a048269900133027e28d18c008269900150127ec98c00d4780298aa206f99979820d4a8089899203a0a000002956718217b7ae0053a0a0800023a0b1000023a0c1800027b7ad805957a00057babd0004927c0057bacc8007ba9b8007ba8b0003308209569e026956ac0267b72a805826798015020800021f433078268700133090a0d28c556492ae007492ad807492ad007492ac807956700308377e0f8330082000a103302840028b5930050228400b1930050228600c5910051070628e7498267980181775617030728eb4995670030837700f90a09956718298278956900017b9858957a00ff82a8f8007b985082a8f0007b98980082a7e8007b97900095674005330840502088007ff0956b000582b75882b85082b94882ba4050228a00b18e0051070628f6477b6a1801826350016837957740826058016809da0709826490016847957740826298016828da270895878000d4030adaa709d8870c94ac8ecb8897f000857a01daca0b88b7019577ff9ab89accc9ac0a9a99ef007b6878018e8c8e78da7c088eac7b69680188990001859901dbac09dbb809d43408d4020bd4b808888801d49808644b948b510806284b4e826868018588ff0082697801d49808d47a09d4980852080628304e826b680195b9017b698801889801c8a8087b688001d49808888801826a7801c8a8087b687001d8a808c887077b6778019ab8ff007b6840019a898000826790018268980150208c004a93007b6730017b68480182675001826858018269400150208e005593007b6728017b682001826740019579808267900182689801502090003793007b6710017b68080182694001889780007b673801826790018268980150209200149300502294008e920082ba3893a77bb76852080628604d64a98267480182682001d4870764ac82680801da980782695801649a649882694001db970a7b6a480182673001826a2801d4a707826a1001daca07826b500164badb970a7b6a40018267600193c77b676001492630018051018267880195798064b7502096007092007b6738017b682001826790018268980182698801502098005592007b6710017b682801826888019a898000826750018268580150209a005c920082692801d4980882698801889a80007b6a2801826b2001daab08826b9801db980b7b6b980182681001d4870782683801daa80782689001db97087b689001826750018268580150209c00e9910082649001826398014926580149265001956b000182b928939893977bb73882ba3095a9ff7bb9288ea99599ff7bb9200198493f973a01d4a909974a0182644801984b3fd4ba0a7b6a9801826020016437d39003d89002826b2801d8ab0cdb320c978801826b380198ba3fd4a8087b689001987a3f97b701d47a0a974701826b400198b83fd4870297b801826b600198b33fd4380397b801826b680198b43fd4480897bb0182675801d47b0b7b6b680182675001d478087b686001d437087b684001d427077b674801c9a007d8c707d8a008826c9001c9c00bc98b0bc97b0b99b03f82673001d270078268980150229e00ba8f007b6738015022a000218e00d89b02c99b0988ab01c9bc0c827b78c92b0b95aaff7b7c80007b7b78d4bc027b7a8800d49a0bd42b0a840b017b7b587b797049265001520afcfe283a4b956718294927e0024927d8024927d0024927c802956700308377e0fb3300a2000a103302a40028968c005022a400928c005022a600918d0051070628d5458267980181775617430728d945956720163300a8003302a805289c8e0095671811957900058298187b6868018298107b6898018297087b67900195670030837700fc3308240a020195671829827b0003957c000282caf80082c9f00082c8e800956c00017bc980007bcb70d4b9077bc88800d4a808d478089888207bca78d4a707977720d48707510706286a45956a000182a768977720987720956918114929000582a89000959b00047bb8e80082a898007bb8f000956800167bb7f80033075020aa000bed3302ac0095681811014928e0044928d8044928c8040164893307209568e0154929d0045020ae00e2ec3308700102390770010256173f0b200370010240019517e08479e07b6968016491330780010283777b68980183993308407b6790013300b0000a08826a68013302b20028208d00826a68015022b200188d007b6760016f877b6758016f977b6750016fa77b6748019517e08477e07b67680164713302b400956918110182677001959a00047ba7c000826778017ba7b800826780017ba7b0009568c015826788017ba7a80033075020b60035ec3302b800956818110182674801958900047b97a000826750017b979800826758017b979000648a3307209568a015826960017ba988045020ba00f9eb82689801818756173f08480840019517e08477e07b6788015022bc009185000a08826a880182a71882a81082a90882aa6f7c7b6cd8006f8b7b6be0006f997b69f0006fa77b67e800826868017b87187b89107b8b087b8c956780155020be008aec3302c0009568181101958900048297787b67c8008297707b67c0008297687b67d0009517e0847be07b6b880164b18268d8009588018887018269e000c87909d49807887701826cf000c87c0ad8ca07826ce800c8c7077b6780017bb7187b6a68017bba107b6970017bb9087b6878017bb8956760153308405020c200e0e995671811957900048298607b6810018298587b68f8008298507b6800018298487b68080195674015826888015020c400daeb956a181195ac000482c74082c83882c93082cb287b6760017bc77b68300195ac00037bc8f8007b6928017bc9f00095672015956800157b6b88017bcbe8005020c600ff6f826af800956b000182b81082b70882b9d48909d4a708d49808988820d4a909979920d4980851080628d340956c181182c2200482c3180482c8100482c908047b6940017bc9c8037b6850017bc8d0037b6348017bc3d8039568e0147b6258017bc2e0035020c8003bea826bf80082680801958720826c880184c901826a1001d4ba0a7b6738015109062819171409e0ffffff00000000d8980982680001948994a95209062857407b6ab80084c900ff956a18118268280195ab00037bb8507bb948826830017bb85895686014826960017bb9605020ca00cbe9956c18113304330349269001956a000182a74882a840d4870782a85882a950d49808d487078e779777057ba7980028d830492a6007492a5807492a5007492a480795670030837760f83300cc000a103302ce0028108b005022ce000c8b005022d000ee8b005107062897415022d200398a00ac7806289b419567c0033300d4003302a805282b8a008267c0038268c8038069d0034926b8037b69b0037b68a8039568a0037b67a00333075020d6001be94926980349269003492680030233072095688003492688035020d800fde8390870010256183f143308403d087001023302da00282b8a005022da00278a003307800102837783993308403300dc000a0801826a980182a71882a81082a90882aa5022de00bf8400956b182195bc00077bca80007bc9787bc8707bc76895676003956880285020e00083e9826760037b679801956740033308405020e20042e75022e400be870051080628c93e82689801978820988920492638034926300349262803956820037b6920037b67980133002c012843e84929a000492998004929900049298800956700308377a0f93300e6000a10956a18292807956a18290182a7980082a8a00082a9900082aa8800d49808d4a707d487075107062857405022e800d78800ac7806285b40956700308377c0f93308040a02956a18290182a7c00082a8b80082a9b000d48707889801947852080628404082a7a8007b672001956700308377e0f90a0901956718298274e000827ad8007b6a50018272d0008270c800684768a8958940db470968276808958840db270895878000d44a0adaa709d8870c94ac8ecb8897f000857a01daca0b88b7019577ff9ab89accc9ac0a9a93ef007b6898018e8c8e78da7c08883c000185cc018ea9dba90cdbb80c7b6440017b625801d4420882645001d44009d49808888801d4c808640b948b5108062829188538ff00826c9801d4c808d47a09d4980852080628121864029539017b699001889801c8a8087b688001d49808888801c8c8087b687001d8c808c887077b6778019a38ff007b6868019a89800064077b624801826858015020ea005c89005022ec006f88005020ee007489007b6730017b6828018267680195798082674801826858015020f0005689005022f200ba880082674801826858015020f400408900826b380182627001826c780182698001d49c0c826a9001d42a0ad4ca0a93b77b678801510a06289615330b2850174929200249291802492910024929080295670030837720fb3300f6000a103302f80028d884005022f800d4840082b71882b82082b91082ba08d49808d4a707d4870751070628913e8267980181775617030728953e9567ff07957781073308405020fa00ade4956aff0795aa190195ac000682cb800082c87882c97082c768d49b0bd48709d4b909989920d4b808978820d49808510806280d3c3a08c00002492a6006492a58067ba848069568ff0795886107492a50067b67980133002c012888e5956718294927c0024927b8024927b0024927a802956700308377c0fb3300fc000a103302fe00281284005022fe000e840082b7b80082b8c00082b9b00082baa800d49808d4a707d4870751070628e93d8267980181775617630728ed3d9567c012330000013302a80528068600956818118287a8017b6798018287b0017b6790018087b8017b6778019567a012330002013302ac0528e4860095671811827788017b67800195678012330004013302b20528c88600330206019569181101959a000182a768956b00017bb788004929600182b7787ba75882b790007ba7509568601282b798007ba7483307502008019ae433020a019568181101492840014928380149282801036489330720956840124929300150200c0171e43308700102390770010256173f0b200370010240019517e08479e07b69780164913307800102837783997b6898013308407b67900133000e010a0801826a780182a71882a81082a90882aa6f777b6778015022100144840033021201956918110149292001492918014929100195682012826780017b970801330750201401f0e382676001956818117b870001826768017b87f800826770017b87f000648a33072095680012826978017ba9e80050201601bde382689801818756173f08480840019517e08477e07b67800150221801557d33001a010a08826a800133021c01280b7e826a800150221c01047e7b678001647182678801977720987720956918114929e0004929d8004929d0009568e0117b97c800330750201e0154e382676001956818117b87c000826768017b87b800826770017b87b000648a3307209568c011826978017ba9a8005020200121e382689801818755174008480840019517e08477e07b67980150222201b97c330024010a08826a980133022601282d8100826a9801502226012581009567a01150202801cee395671811827788007b6798019567801133084050202a0189e1956a181182ab800082a87882a97082a768d49b0bd48709d4b909989920d4b808978820d4980851080628f1387c689801491a60491a587ba84895686011491a507b67980150202c0179e2330820826798013300760328afe6492aa007492a9807492a9007492a8807956700308377a0f833002e010a103302300128e1830050223001dd830082b7980082b8a00082b9900082ba8800d49808d4a707d4870751070628ef3a50223201f88200ac780628f33a95670005330034013302a80528ea82008267000582680805806910054926f804956a00047ba9f0007ba8e8009568e0047ba7e000330750203601d6e14926d8044926d0044926c8043307209568c0044926c00450203801b9e150223a01807e390870010256183f143308403d0870010233023c0128d3820050223c01cf82003307800102837783993308400a08826a900182a71882a81082a90882aa6f7c7b6c78016f8b7b6b80016f997b6988016fa77b679001826898017b87187b89107b8b087b8c9567a00450203e0137e28267b8047b6768018267b0047b6760018267a8047b6798018267a0047b6770018267780195770188780182698001c89808d48709889901826a8801c8a909d8a90a826b9001c8ba0a956b182195bc00077bc8b0007bc7a8007bc9b8007bcac000956780049568c02850204001c9e182679004956800017b8758826788047b8778826780047b878000956760043308405020420176df95680004828b78828c70828a68828760d4ba09d4c708d49808988820d4c909979920d4980851080628df364926580449265004826870017b68400495684004826998017b6948047b6790017b6a88017b6b98017b6c70015020440153e0956c000182c8900082c7980082ca70d47a0a140b00000000010000001407e0ffffff00000000d8780782c98800949794a75207062876368387204926380449263004826860017b68200495682004826968017b6928047b6a98017b6b700150204601efdf95680001828c9800828b8800828a90008287709577c0d87a0794b794c7520706282636826978018499ff826880018488ff83a74049261804492610047b680004956800047b69080450204801a1df956a000182a990001407a0ffffff00000000d8790782a88800948782a89800948752070628d435826758019777209878208397604926f8034926f0037b68e0039568e0034926e80350204a0153df330880008267900150204c018ce38378330980003307330078030a0d28a73c4929e0054929d8054929d0054929c805956700308377e0fe33004e010a10956a182995ab00053302500128bd7e956a182995ab000550225001b27e51070628e53750225201cc7fac780628ea3795670030837700ff3308040a02956a18290182a7f80582a80006857901d489098877019487939752070628ce3782a7f00582a8e8057b6790017b688801d4870752070628c63733078001037b67780183777b675801330054010a048269780133025601280b788269780150225601047849294005959b00057bb8387bb730956840267bba283307502058015ade956718214927200549271805492710056479330720956820264929080550205a0137de50225c01fe7a3309700102390770010256173f0b200370010240017b6970019517e08479e07b69800164913307800102837783993308407b67600133005e010a08826a800133026001286f7e826a800150226001687e6f8c6f996faa826b98017bba187bb9107bbc087bb7951be084b8e06481957701887b01c8bc0cd4c70b88bb01c89b0bd89b09c8a9097b8b107b8c087b877b8918956700267b6880015020620185de95681821018287e8048288f0043303ffd23709d2380a826c9001d3ca02d8ca0a826b8801d8b909db2a0951090628d636d8b709c9c808c99808c9b7078488ff7b6870018477ff7b6768019567e02582688001502064012dde956818218287e0048288d80495691829959a00067ba7207ba818826768017ba708826770017ba7109568202f826780015020660171de9567c0258268980150206801e9dd956818218287b0048288a80482699001c8970782698801c88909d88908c887078477ff7b6780018498ff7b6870019567a0258268980150206a01addd956818218287a0048288980495691829956b000182ba70959c00067bca287bc7407bc83882b780007bc7309568402f82b7980050206c01eedd9567802533084050206e013bdb956b182195bc000482c7800082c87882c97082ca6850227001687951070628ae32492b6004492b5804826788017bb7480495686025826790017bb7500464a77b6a9801502072012cdc82675801330074010a048269780133027601282f7682697801502276012876d4780298aa206f98978920d4a9099888203a0a200002956718217b7a40043a0a2800023a0b3000023a0c3800027b7a3804957a00047bab30492720047bac287ba8187ba91033082095694025956a20257b720804826798015020780184dd33078268600133090a0d282840492a0007492af806492af006492ae80695670030837700f833007a010a1001956a182195ab000682b7f80082a8000782b9f00082bae800d49808d4a707d48707510706281d3550227c01357cac780628223595670030837720f83308040a0233027e019569182101829a1807829b200785a701d4b70788a80194b89378520806280235956c00017bcb687bca7082971007829808077bc788007bc88000d4870752070628f03433078001037b67900183777b677801330080010a043302820128c87550228201c57549261803956900037b98107b9708956800037b9a330750208401beda4926f8024926f0024926e8023307209568e0024926e00250208601a1da5022880168773309700102390770010256173f0b200370010240017b6958019517e08479e07b69600164913307800102837783993308407b67500133008a010a08826a600133028c01286c78826a600150228c0165789567c00250208e0133db8267c0028268c8023303ffd23709d2380a826c8801d3ca02d8ca0a826b8001d8b909db2a09510906284f34502290017f799567a0028268980150209201f4da8267b8028268b00295691821959a00077ba7407ba838826758017ba728826760017ba7309568402882679801502094013cdb82677801330096010a0401956b000182b99000502298014a7582b9687b69780282b9707b69700282b988007b69680282b980007b696002492698027b6890027b67880295678002956860027b6a800250209a0115709567400233084050209c0134d8956b000282b75882b85082b94882ba4050229e01667651070628ac2f4926380249263002826780017b67200295682002826788017b67280264a77b6a98015020a0012ad9826778013300a2010a04826990013302a401282d73826990015022a4012673d4780298aa206f98978920d4a9099888204926f8013a0af800023a0b0001023a0c0801023a071001027b6a1802956a00027bab107bac087ba77b68f0017b69e80133082095690002956ae0017b62e001826798015020a60186da33078268500133090a0d282a3d4929200449291804492910044929080495670030837720fd3300a8010a10956a18292807956a18290195ab000482b71882b82082b91082ba08d49808d4a707d4870751070628da325022aa013579ac780628df3295670030837740fd3308040a0201956c182995c70004827a40827838827b30d4a80988b701949752070628c3327b69980082cc280482679801807395c723d8c709c89b027b6bd800d8b20bda990bc88b0b7b688801d88b097b6a9001c8a909d4b909d837079427949752070628f23283c80495670030837760fd7b6cd0000a0201956918298297600482925804829050047b67f000d472078808019478520806285e32829348048268d000958724d887098264d800c8940ac837087b6880017b672001d8780bc80a07c8b707d3a70cd8a708dacb08d84a0ada990a82698801c89a0ad89a09826cf000826b9001c8cb0bc8b909c82a0bd8ab0ac8a909826a980180aac8b808d8b80bc8b909826b8001d8ba0a887b0185aa01db7b0a889701888b01db970bd49808db8b0a520a062842329537fd7b63c000d83708c880099599ffd3090a7b60b000d8090bdaa80b9528ffc88b0bd88b087b62b800882a01c9ac0ac8a8088eba8e8cda8a0cd4b8088e9a887762857701db9a07db8c0751070628023233078001037b67e80083777b67c8003300ac010a048269e8003302ae012839708269e8005022ae0132704929a003959b00037bb898007bb790009568a0247bba880033075020b00185d63302b201956818210149288003492878034928680302648933072095688024492970035020b4015cd65022b60123733309700102390770010233083fac780a200370010240017b69a8001407ffffffff000000007b67e0005022b80162773307800102837783993308407b67a0003300ba010a08826a90013302bc01281d74826a90015022bc011674956760245020be01e4d695671821807748038268e000ab8706286d319578017b6800018887017b67f800d487078877017b67080195674024826898015020c001acd6956a182180a72c0395ab000382b83897772082b93082ba40826b0801d4b808826b0001d4b707826bf800d4b909956b182995bc00047bca80007bc9707bc7687bc8789568802d826798015020c201d6d6956700308377a0fd0a0901956718298274a004827a98047b6a50018273900482708804684768a8958940db470968376808958840db370895878000d44a0adaa709d8870c94ac8ecb8897f000857a01daca0b88b7019577ff9ab89accc9ac0a9a92ef007b6898018e8c8e78da7c08882c000185cc018ea9dba90cdbb80c7b644001d44308643482635001d43009d49808888801d4c8087b605801640b948b5108062850118528ff00826c9801d4c808d47a09d498085208062839119529017b699001889801c8a8087b688001d49808888801c8c8087b687001d8c808c887077b6778019a28ff007b6868019a8980008267580164487b6448015020c40109775022c6011d765020c80123777b6730017b6828018267680195798082675801826848015020ca0106775022cc016b7682675801826848015020ce01f276826b380182627001826c780182698001d49c0c826a9001d42a0ad4ca0a93b77b678801510a0628c50e330b287f105147b327d0610a28d62f4929a002492998024929900249298802956700308377a0fb3300d0010a103302d2012881725022d2017e7282b7980082b8a00082b9900082ba8800d49808d4a707d4870751070628ed2f8267980181775617030728f12f956740113308405020d40158d2956718118278407b6898018278387b6890018278307b6880018277287b6788015020d601ded1956b000182b7980082b88000d4870782b88800648a82b99000d49808d47808988820d49707977720d487075107062895293a09a001033a08a801033807b00103956b1811491b207bb7187bb810956820117bb90864a75020d80110d333082082678801330076032846d77b6ab800d8870782680001c878097b692801d88908da7708c8b8087b682001d8b8077b6788019567181182687801957a00037ba8a800826870017ba8b000826868017ba8b8009568c014826980017ba9c00033075020da01a8d29517e08477e07b673001647182699801819756171f08480920018267100182688801c887077b6718019517e08477e07b67880164718379330820826790010a08492698013304330349269001826a880182a71882a81082a90882aa6f776f8b6f9c6fa982683001649a7b89187b6c60017b8c1064b07b8b0864797b8701956b00017bba687b6070017bb97882b74082b99800d8790782b950d3940ad89409daa70982b748d8730282ba5882bc9000d3ac0bd8ac0adab20ad37307d4b707da790a520a06281b199567a0147b6388017b6480015020dc01c2d282609801826480018263880182683801c80807d88708826b2801c84b09c88909d3b90ad8b90bdaa80b826a2001c83a08d8a802826c1801826a9001c8ac0cc82c0ac88b0bd88b08c8a808d49808d4b709d48909d4b808989920978820d4980851080628c527956c181182c9a00382c8980382ca900382cb88037bcb680395cb00037bba707bb878956880147bb980007b6098015020de0137d1826c780195cc0188c701826a7001c87a0ad4ac0788770182686001c87804d8840882676801c8870782689801958320d8830982688001c89802d8820bda990b82688801c88b0bd88b0982689001c898087b68900164a0826830017b8a0864c97b8c7b8410647a7b87187b6460017b639801642464b32897fe5022e001f77082626801db270a7b6a98018267600182693001d4970782691801dab907826c500164cadb270a5022e201ef6e5020e40125737b6730017b6818018267480182685801826990015020e6010b735022e801956f5020ea0125735022ec01e66f82695801dba8097b69580182681001d4870782683001dab80782684801dba70864a97b68480182675001826840015020ee01c5725022f0015b6d8263580182644801017b6b580198493f973a01d49a02974a01826b980198bb3fd4ba0a7b6a48018269280164847b625001d329086430d82903826b3001d8ab02db8302974801987a3fd4a8087b684001980a3f977701d47a0a82679801977701826b600198b83fd4870097b801826b680198b33fd4380397b801826b880198b43fd4480897bb0182675801d47b0b7b6b8801d4c8087b686801d43c087b686001d40c077b679801c9a907d82707d8a90882624001c9290bc98b0bc97b0b99bc3f82673801d2c70782684801c97804d8780882675001c987039478c98a07d88a08c982085022f2014471d89b02c99b0988ab01c9b000826b7801c92b0b95aaff7b6080017b6b7801d4b0027b6a9001d49a0bd42b0a84cb017b697001330c520aecfe82678801977701d47b0b0184b7ff82682001aa780628aa2933078001037b67500183777b6748013300f4010a043302f6012825685022f601226849292003959b00037bb8187bb7109568ff07958821047bba0833075020f801a5ce9567ff0795771901492700034927f8024927f00264793307209568ff07958801044929e8025020fa017ace9517e08477e07b67280164713308700102390770010256173f112003700102403302fc0128996f5022fc01966f3307800102837783997b6888013308407b6790010a08826a980182a71882a81082a90882aa6f7b6f886f996faa826728017b6af0007b7a187b69f8007b79107b6800017b78087b6b08017b7b826748013300fe010a04330200022849675022000246674929e002959b00027bb8d8007bb7d0009568ff079588e1037bbac800330750200202c6cd9568ff07958819014928c0024928b8024928a8020264893307209568ff079588c1034929b002502004029acd82688801818756173f0848084001140800000000ffffffff7b6830011407ffffffff000000007b6740019517e08477e07b679801502206021667330008020a08826a980133020a02283d69826a980150220a0236697bba00017bb9f8007bb8f0007bb7e8009567ff079577a1039568002a50200c0215ce4926100149261801330b9567ff0795771901807788027b673801330a0101330893b882673801d8a7073309dab7093307db78095209e305492678017b6a98018267480133000e020a0433021002282c6650221002296649298002959b00027bb8787bb7709568ff07958881037bba68330750201202accc9567ff0795771901492760024927580249275002647a3307209568ff0795886103492a4802015020140280cc82688801818756173f08480840019517e08477e07b678001502216021866330018020a0833021a0228a46750221a02a167959a00027ba7407ba7387ba7309568ff0795884103826798017ba728330750201c022bcc50221e023b6d95890002502220020d6995882103826970017ba908025020220209cc82688801818756173f08480840019517e08477e07b67700150222402a165330026020a0801826a700182a71882a81082a90882aa50222802d967826b80017bba187bb9107bb8087bb7957b02d87b07c8780cd88c08da7708c89808d89807c8a70795691829959a00017bab087bac107ba8187ba7209567ff07957701039568202a50202a0274cc9567ff07957719018277f0018477ff005107178268400101330b82679801957701d2870a2859fe9567ff079577e1028268800150202c023bcc9569ff0795991901959a000182a7d00082a8d80082a9c8008477ff8488ff826b3001d2b909d49808d487075107af8267480133002e020a04330230022863645022300260644929c001959b00017bb8b8007bb7b0009568ff079588c1027bbaa800330750203202e0ca9567ff07957719014927a0014927980149279001647a3307209568ff079588a102492a88010350203402b4ca82688801818756173f08480840019517e08477e07b678001502236024c64330038020a08826a800133023a0228096b826a800150223a02026b7b67800150223c029b6a9569ff07959919014929800149297801492970019568ff0795888102826720017b976801330750203e0245ca826760019568ff0795881901958900017b9760826768017b9758826770017b9750648a3307209568ff0795886102826980017ba948015020400209ca82688801818756173f08480840019517e08477e07b67800150224202a163330044020a0833024602282d65502246022a65959a00017ba7407ba7387ba7309568ff0795884102826798017ba728330750204802b4c950224a02c46a9589000150224c02966695882102826970017ba9080150204e0292c982688801818756173f08480840019517e08477e07b677801502250022a63330052020a08826a780133025402289e67826a78015022540297679567ff0795770102502056023dca9567ff07957719018277e8008477015207cdfd9567ff079577e101826828015020580218ca956aff0795aa190182a7c8003a09c8000282a8d000847a0000f8d8a9098e8ada890a520a1995690001829710957701829840d287077b97102884fd3a09d00002c87909d87907c887079577ff8477ff7b6778018498ff7b6870019567ff079577c1018268280150205a02acc99567ff07957719018277c0009568ff07958819018288b8008477ff8488ff95691829959a00017ba838826870017ba8287ba740826778017ba7309568402a8267280150205c02dec99567ff079577a1018268280150205e0252c99567ff0795771901827798003a08c000029569ff07959919018299a000c87808d87807c897078477ff8488ff9569ff07959919014919609569ff07959919014919589569ff0795991901826af0007b9a80009569ff0795991901826af8007b9a789569ff0795991901826a00017b9a709569ff07959919017b98489568ff07958819017b87509567ff07957781019568ff07958861019569ff0795991901826a08017b9a6850206002084f8267180195770182684001d287077b6718019567ff0795774101826880015020620283c89567ff07957719018277288477fe007b6778019567ff079577210182688001502064025ec89567ff07957719018277089568ff07958819018288109569ff0795991901829918956aff0795aa190182aa20847700ff826b7801d4b707957701956b182995bc00017bca607bc9587bc8507bc7489568602a82678001502066027cc828a1fb9567ff079577010133084050206802c2c59567ff0795771901827b827cf895670010827a08f995670010827900f9d4ba07d4c908d47808988820d4c707977720d48707510706281e1d8267180182684001d28707956800104928f8f8956800104928f0f8956800104928e8f89568ff079588e100956200107b27e0f864977b6998017b6a88017b6b80017b6c780150206a0279c6956b000182b9980082b7800082b878d487071408e0ffffff00000000d8890882ba880094a8947852080628a61c8267100182684001d27808839720956900104929d8f8956900104929d0f8956900107b98c0f89568ff079588c100956900104929c8f850206c0210c68267480133006e020a04826950013302700228136082695001502270020c60d4780298aa206f99979820d4a80898992095670010492778f895670010492770f895670010492768f882672001956a00107ba760f895670010492798f83a0ad800023a0be000023a0ce800023a07f00002956300107b3ab8f8956a00107babb0f8956a00107baca8f8956a00107ba7a0f8956700107b7990f8956700107b7888f83308409569ff079599a100956aff0795aa8100956bff0795bb61956700107b7280f88267980133009c0428c1c7502272027b6582626801db270a7b6a98018267600182693001d4970782691801dab907826c500164cadb270a50227402736350207602a9677b6730017b681801826758018268480182699001502078028f6750227a02196450207c02a96750227e026a6482694801dba8097b69480182681001d4870782683001dab80782685801dba70864a97b685801826750018268400150208002496750228202df618263480182645801017b6b580198493f973a01d49a02974a01826b980198bb3fd4ba0a7b6a48018269280164847b625001d329086430d82903826b3001d8ab02db8302974801987a3fd4a8087b684001980a3f977701d47a0a82679801977701826b600198b83fd4870097b801826b680198b33fd4380397b801826b880198b43fd4480897bb0182675801d47b0b7b6b8801d4c8087b686801d43c087b686001d40c077b679801c9a907d82707d8a90882624001c9290bc98b0bc97b0b99bc3f82673801d2c70782684801c97804d8780882675001c987039478c98a07d88a08c9820850228402c865d89b02c99b0988ab01c9b000826b7801c92b0b95aaff7b6080017b6b7801d4b0027b6a9001d49a0bd42b0a84cb017b697001330c520aecfe82678801977701d47b0b017b6b700195672024330840502086022ec2956218218223200395270003827c18827a10827b088e378ec8db37088ea788b960ff859901dba709d43c077b677801db780951090628931f95b7a000d8b708c88a097b6a9801826a9801d8a90ada880ac8ca0ad8ca087b6b9001c8830b952800027b87e8007b89f0007b8af800330740956800247b2b00037b6c80017b63880150208802e2c2956c000182c9900082ca8000d4a90782c8980082cb8800d4b808d48707987720d4a808978820d48707510706280d19956a1821492ae0028267000195ab00027bb7c8008267f8007bb7d0009568e023826708017bb7d800649750208a0283c28267c8000a040195690001829b90001407e0ffffff00000000d87b07829898009487829878948752070628b0188269e80082970881981082996f77977a206f88988820d48a0a9877206f98978920d4790998882083b720956b1821492bc00295bc00027bc8b8007bc9b0009568c0237bcaa8007b67380150208c0206c28267f000956a182195ab00027bb780008267b8007bb7788267b0007bb7709567a023956880238269c0007bb96850208e02cd579567182195790002829888007b685801829890007b685001829898007b6848018298a0007b684001956760233308405020900264c095671821827a60027b6a8801827858027b688001827c50027b6c6801827b48027b6b6001826940017b792002826948017b791802826950017b791002826958017b790802957900027b9a407b98387b9c30647995674023956820237b9b2802502092024f479569000182986882978800d48707829860648c829b8000d4b808d47808988820d4b707977720d48707510706286417956718218268c000957900017b98e8008268b0007b98f0008268b8007b98f80095680023826bf0007b7b000264c750209402d6c082678801826a8001d4a707140be0ffffff00000000826c6001d8bc088269680194989478520806280617816720017b6788008268c00083877b67900083c7207b6b580150209602d4c4837782689000826988000a0101826b68018262c00082676001c87202d872088269b000c8b909c88909d3b90ad8b90bdaa80b8268b80082678001c87808d8780a826c88018267f000c87c0cc8ca0ac88b0bd88b08c8a808d4b80882675801d8720a949a948a520a06287c16832720956918214929e0014929d8014929d0019568e0224929c8015020980201c0140a00000000010000001407c0ffffff00000000956b000182b89000d8780782b99800949782b9789497520706282b16838740956818217b6a5801648a8268600195ab00017bb8a800826868017bb8b000826880017bb8b8009568c022826988017bb9c0007b67880150209a0292bf956b000182b97882ba980082b8900082b7589577a0d8780794a7949752070628ca15838760956b1821492ba001492b9801492b90019568a022826970017bb988017b677850209c0248bf956a000182a89000140780ffffff00000000d8780782a99800949782a9789497520706287c15838780009569182149298001492978014929700195688022492968017b673050209e02fdbe8267c8003300a0020a048269e8003302a2022872588269e8005022a2026b5849296001959b00017bb8587bb750956860227bba4833075020a402c1be3302a602956818210149284001492838014928280101648933072095684022492930015020a80298be8268a800818756173f0848084001140700000000ffffffff7b6780019517e08477e07b679801647183793308408267a0003300aa020a08826a98013302ac0228d358826a98015022ac02cc587b67980164713302ae0295691821014929200182670801959a00017ba7188267f8007ba71095682022826700017ba70833075020b00214be956b000182b760956818217b87000182b7687b87f80082b7707b87f000648a3307209568002282b9787ba9e8005020b202e1bd8268a800818756173f08480840019517e08477e07b677801647183793308408267a0000a08826a780182a71882a81082a90882aa6f7c7b6c586f8b7b6b606f987b68706fa77b6768826998017b97187b98107b9b087b9c9567e021826890015020b40242bc956718218277c8008268e000d287077b6790019567c021826898015020b6024dbe956a182182a7b00082a8b80082a9c00082aaa8008477ff8488ff8499ff826b8001d2ba0a826b9001d4ba0a956b182995bc00047bc9c0007bc8b8007bc7b0007bcaa8009568c02d826798015020b80276be9567a021826838015020ba02c2bb95671821827898007b689001827890007b688001827888007b68780195678021826898015020bc02c4bd9568182182878000808868826c780198c920826b800197ba20d4a90998ba20826b900197bb20d4ba0a97cb20d4b808956b182995bc00047bcad8007bc9d0007bc7e0007bc8c8009568e02d826798015020be02e9bd9517e08478e06481826958959901889701826a60c87a0ad4a907887701826c70c87c0bd8cb07826c68c8c7077b6748017b87187b6b38017b8b107b6a40017b8a087b68487b6950017b8995676021826888015020c002ebba95671821827a60827b58827950827848956c00017bc9307bca28d4a907d4b809d479099899207bcb20d4b707977720d49707510706284712956740217b6818015020c202a5ba9569182101829b40829a388298308eb78eacdbb70c7b68508e877b6a407b6b38d4ba0a7b67187b6c207b6a1001dbac07510706281c198297287b678000956720218268485020c40287bc956a182182a90882a71082a81882aa20956b181995bc00077bcae0007bc8d8007bc7d000956700219568e0207bc9c8005020c602ba4095671821827a957800ff828bf800828cf0008289e8008ea78eb8dba7088ec77b6978018899208599017b6c8001dbc7097b6a88017b6b9001d4ab07db7809826780008877207b672851098d0695671819956a000182a850957b00077bb8a80082a8407bb8b00082a8387bb8b8009568c02082a9487bb9c00033075020c802dfba8267a800817756171f0c8268a800480820019517e08477e07b676801647183793308208267a0000a088267800095781fd87807826c50c87c09d8c90ada770a826b40c8ba0a7b6a600197aa3b989b05d4ab0b8267680182731897993b827a10988805d498076f346fa982682894c8826a100194a8948b9487c87402d84207c8790cc8cb0b7b6b9801d39b0cd89b0adac70a7b6a58018267780195701fd8700b826a8001c8ba07d8a70cdabb0c82639001c8c303973b3b987a05d4ba0a97773b980b05d4b707c847077b677801d847076424c8790bc8ab0bd39b0a7b6b7001d89b09daa709826b6001826740d87b07826a38c8a70798ba05977b3bd4ba0a826b680182b282bb08987705948a94876fb86f2bc8b707c88a0ad88a0cc8c70782605801c8a000d8a00ac8a70282679001d87307826a8801c8a707983a05977c3bd4ca0a987705c8b707956c000182cb9800c88a0ad88a08c88707c8a9097bc968d8a908c887077bc7609517e08473e064317b6358010182677801d8740782697001d39b08d89b09da8709826c6801d8c007826a6001d3a208d8a20ada870ad3c007d48707da790a7b6490017b347b6b98017b3b087b6080017b30107b6288017b3218510a950495671829492700054927f8044927f0044927e8049568002e64375020ca0267ba8263580182649001954401884701826b9801c87b0bd4b40788770182688001c88707d8870882628801c8820264702862ff956c18110182689801958720d88708c88409d8490ada880ac83a0ad83a08826b9001c88b0b826808017bc828037bc70803826700017bc730038267f8007bc738037bc910038267100195c900037b97407b9a1895674014956820147b9b205020cc027c3e8268d800958702d88708826ae000c88a09d8a90ada880a8268f000c88a0ad88a08826be800c8b808956b182995bc00037bc8207bca187bc9107bc708956700149568202c5020ce020eb93302d00295681811018287f0027b6778018287e8027b6770019567e0133308405020d202bcb6956b181182b2e00295b80002828ad800828cd0008287c800d42c09d4a708d49808988820d4a909979920d498085208200e8268d0009788207b6a8801988a20492bc002492bb802492bb0029568c0137bbaa8027b6798017b6280017b6c90015020d40291b7956c000182c8980082c7880082c98000d4970a140b00000000010000001407e0ffffff00000000d8780782c99000949794a75107b60d1402ffffffff000000008269d0009899207b6b6001826bc0007b6a680197ba20d4a90998ba20826cc80097cb20d4ba0a98cb2084aaff8499ffd22b0b838720956c1811492ca0027bcb98027bc988029568a0137bca90025020d602feb6956a000182a8980082a7609577c0d8780782a99000949782a96894975107390d83874095691811492980024929780249296802a00095688013492970025020d802bbb695676013826808015020da0273b5956c000182ca6882c89800140b0000000001000000140760ffffff00000000d8780782c99000949794a75107da0c956718117b6b6001647b8272600282735802827c5002827948028387a0007b6958017bb928027b6c40017bbc30027b6350017bb33802956840137b6248017bb240025020dc0237b6956b000182ba900082b9980082b760957740ffd8790794a782b86894875107710c1407e0ffffff0000000082680801d878078268000194878268b80094875107500c82685801826c5001d4c8078262480182634001d4230bd4b707987720d4cb0b97bb20d4b7075207270c8397c0005020de0209ba7b67680182673801826858015020e002f7b9647882676801826958015020e202a2b38268580182679801c88707d88709826b400182689001c8b808c89808d3b80ad8b80bdaa90b82698001826a4801c8a909826a8801826c5001c8ca0ac8ab0bd8ca0cd8ab0ac8c909c8a909d4b909140a40ffffff000000007b6a9001d8a70a948a949a510a950b8377c0009569181149292002492918024929100295682013492908025020e40218b58267980183776095691811492900024929f801826870017b98e801956800134929f0015020e602efb47c6778018e788267980183778000956918114929e0014929d8017b98c8019568e0124929d0015020e802c3b48267580195771f1408e0ffffff01000000d2870782689001ae87020b8378c0007b689001826798015020ea02dcb883783307826990010a0d01826728857701826850826918db890782682082691001db980751074e02826780008477e07b6710019567181982685001957a00077ba868826840017ba870826838017ba87895688020826948017ba9800033075020ec0231b49517e08477e07b677001647133082033075020ee0261b89518e08488e07b6868016481837783893308200a084926980120330c49269001492688014926780149268001826a680182a71882a81082a90882aa6f736f846f903309826b78016fa7330a6472826870017b87187b6050017b80107b84087b83017b626801826710017b6b7801d87b07857b017b6a580194ab017b69600182678001d49707947b018268180182679801c87808826a3001c8ca0a8269200182679001c879098267280164c0826c8801c8c707520b7201826b9801d8b80bc8ba0ad30a027b603801d80a0cda2b0cc89c0cd89c02826b9001d8b909c89707c82707d4c809d4a707d47909989920d4c707977720d497077b6348017b644001520774099567001e5020f002d5b1956a181982a7000595ab000482b8f80082b9f00082bae800956b182995bc00057bc7207bc8187bc9107bca089568202e826770015020f20241b48263480195330188370182644001c87404d4430788770182685001c87800d8800882676801c88707826898019589207b696801d8890a82683801c8a8097b694801d8890bdaaa0b82689001c8b80ad88a0b82688801c8b8087b68880182687801958b20d88b0c82695801c8c908d89809dacc09826c6001c8c909d8c90c82628001c8c2027b628001826c70017bc4087bc37bc01064727bc7187b605001826768017b679801826c48017b6a9001648a286dfe82678000826840d48707826850826938d49808d487075207b301492640014926380149264801492650012801028264900182639801826b8000826c1001d3cb0b826c40d4cb02826c50826b38d4bc0cd4c20b510b2e01d8380bc8ba0ad30a02d80a0cda2b0cc89c0cd89c0bd84909c89707c8b707d4c809d4a707d47909989920d4c707977720d497075207f107956760205020f40252b095671819957900078298607b6890018298587b6888018298507b6880018297487b6778018267800097773b9878387b6898019a8980003307ff3308ff5020f6020e547b6768017b6850013307ff3308ff826998015020f802d0537b6758017b68600182675001d487077b675001826798019579803307ff3308ff5020fa02aa53826b980188b98000826a5001db9a08826c5801826a6801d4ca0ada970a93b8ff93baff826b6001939b939c82677801e0a70782698001e0890882698801e0c909826a9001e0ba0a956b182995bc00057bca407bc9387bc8307bc7289568402e826770015020fc020fb282694098973f826838978801d48707826a5098a83f979901d49808826b800098b93f97aa01d4a90997ba0195aa01956b182995bc00057bca487bc9507bc8587bc7603307602e287801956a000182a72882a820d487071408e0ffffff0000000082a918d8890882a9309498947851088d06826718018378209567a0205020fe02e7ae95671819957900078298a000956a00017ba850829898007ba848829890007ba838829788007ba7400182695098973f826a4097a801d487077b67900198a73f826838978801d487077b678801826a800098a73f979801d487077b67800197a7017b67780197a8037b6898018d8980003307ff3308ff502000036a527b6758017b687001826780008a79033307ff3308ff5020020329527b6768017b68600182685801d487077b675801826798018379803307ff3308ff502004030352826b980188b98000826a5801db9a07826c6001826a7001d4ca0ada980a93b7ff93baff939c826b6801939b82683801e0a80882694001e0790782694801e0b909826a5001e0ca0a956c000182cb78d4b70782cb8000d4b80882cb8800d4ba0a82cb9000d4b909956b182995bc00057bc9787bca80007bc8707bc7683307802e01c876088267485020060345b09517e0847ce064c1826858958702d88708826a60c88a09d8a90ada880a826870c88a0ad88a08826b68c8b8087b6c98017bca107bc9087bc77bc818956740208268785020080357ad95671819827728078477ff7b679001956720208268980150200a0366af95691819959a000782a72082a81882a910956a1829826b900195ac00057bcb88007bc7a0007bc898007bc990009568a02e8267980150200c03a5af9567002082683050200e03f2ac956a181982a7000795ab000682b8f00082b9f80082bae800d48707d4a909d497078e777b6790019567e01f8268980150201003e9ae956a181995ab000682b7d00082b8c80082b9e00082bad800847700ff826b9001d4b707956b182995bc00057bc9c0007bcab8007bc8a8007bc7b0009568c02e82679801502012031aaf8267c800330014030a048269e8003302160328c9468269e80050221603c2464929c006959b00067bb8b8007bb7b0009568c01f7bbaa8003307502018036fad956718194927a006492798064927900664793307209568a01f4929880650201a034cad50221c03134a8269a800819756173f08480940019517e08477e07b679001647183793308408267a00033001e030a08826a900133022003281a4c826a900150222003134c7b6b900188ba01c89a0a7b6a8801d4ab09889901c889097b698001d88908c887077b677801826898017b8b7b8a087b89107b87189567801f50202203bcad95681819958a000682a7789577018269e000d27909492840064928380649283006826778017ba760826780017ba758826788017ba750826790017ba748648a9567601f9568401f7ba9280650202403ff419567201f3308405020260332ab330228039569181901959c000682ca2082cb1882c81082c708956c00017bc898007bca8800d48a0ad4b708d4a8089888207bcb9000d4ba0a97aa20d4a80852088502492900064929f8054929f0059568001f4929e805207b67800150202a030bac956a000182a7880082a89000d47808140700000000010000007ba7781407e0ffffff0000000082a98000d8790782a9980094977ba870948751072a0282678001837720956918198268c000959b00057bb8c8008268b0007bb8d0008268b8007bb8d8009568e01e826af0007bbae00050202c0396ab826778019577dc8268d000d878078268d80094878268980094875107d3018267c0008269b800d497078268f000826ab000d4a808d48707987720d49808978820d487075207aa011408c0ffffff0000000095690001829780007b9878d88707829898009487829870948751078301826780018377408268900050202e035eaf837782689000826988000a01018268c00082678001c88707d88708826bb00082699801c8b909c88909d3b90ad8b90bdaa80b8268f000826a8801c8a808826cb800826a9001c8ca0ad8ca0cc8c808c8ab0bd8ab0ac8a808d4b808826a7801d8a70a949a948a510a0901837740956918194929c0054929b8054929b0059568c01e4929a805502030038daa8267c800330032030a048269e800330234032890448269e800502234038944d4780298aa206f98978920d4a909988a208268c00095881f8488e0009588403a0b4000023a0c480002956718197b7ba0053a0b5000027b7c980549276005826c08017b7c58057b7b90053a0b580002826cf8007b7c5005826c00017b7c480549278005957c00057bcb88007bca787bc9709569a01e956a801e956b601e7b726805826780015020360364ac9567401e330840502038039ca8956a181995ac000582c74082c83882c93082cb28d49707d48b09d47909989920d48707977720d4970751077007003308800102838833070133090a0d281d0e3308800102838833070133090a0d280c0e3308800102838833070133090a0d28fb0d9569ff07959919014929980649299006140700000000c611522c7b97a0069568ff079588a10749298806330750203a0343a9390870010256181f12200370010220330880010228aa04330880010228a2049569ff07959919014929b8064929b006140700000000b878d6f47b97c0069568ff079588c1074929a80633073300520328eea83308800102838833070133090a0d28660d33023c0395691821014929580549295005140700000000c611522c7b9760059568602649294805330750203e03b1a8390870010256181f1220037001022033088001022818043308800102281004956718214927980549279005492788055022400323488388a006c868087b97a00533075020420369a833024403956818210149288005492878054928680511648933070495688026492970055020460340a882676001817756173f0c8268600148084001330701330924826870010a0d013308800102838833070133090a0d28960c3308800102838833070133090a0d28850c3308800102838833070133090a0d28740c3308800102838833070133090a0d28630c3308800102838833070133090a0d28520c3308800102838833070133090a0d28410c3308800102838833070133090a0d28300c3308800102838833070133090a0d281f0c3308800102838833070133090a0d280e0c3308800102838833070133090a0d28fd0b3308800102838833070133090a0d28ec0b3308800102838833070133090a0d28db0b3308800102838833070133090a0d28ca0b3308800102838833070133090a0d28b90b3308800102838833070133090a0d28a80b3308800102838833070133090a0d28970b3308800102838833070133090a0d28860b3308800102838833070133090a0d28750b3308800102838833070133090a0d28640b3302480395691821014929d8034929d003140700000000c611522c7b97e0039568e0244929c803330750204a03afa6390870010256181f1220037001022033088001022816023308800102280e0233024c0395691821014929f8034929f003140700000000b878d6f47b970004956800254929e803330750204e0361a682677001817756171f0c8268700148082001330701330904826860010a0d013308800102838833070133090a0d28b70a3308800102838833070133090a0d28a60a3308800102838833070133090a0d28950a4926b0014926a8014926a001140700000000c611522c9568a0017b67b801330750205003e9a5390870010256181f12200370010220330880010228500133088001022848014926d0014926c8014926c001140700000000b878d6f49568c0017b67d801330750205203a4a582675801817756171f0c8268580148082001330701330904826850010a0d013308800102838833070133090a0d28fa093308800102838833070133090a0d28e9093308800102838833070133090a0d28d8093308800102838833070133090a0d28c7099569ff07959919014929380349293003140700000000635bb2d57b9740039568ff0795884104492928033307502054030fa5390870010256181f11200370010220330880010228763308800102286f3308800102838833070133090a0d2867093308800102838833070133090a0d2856093302560395691821014929b8034929b0031407000000003bc167cc7b97c0039568c0244929a803330750205803a1a4390870010256181f1120037001022033088001022808330880010201838833070133090433005a030a0d019567181949275804492750044927480450225c030744838860fdc868087b976004330750205e034da43302600395681819014928400449283804492828041164893307049568401d4929300433006c032820a452476eeb149cf400956718294927400349273803492730034927280395670030837740fc330062030a1033026403289a4550226403974582b73882b84082b93082ba28d49808d4a707d487075107ce013308800102838833070133090a0d2848083308800102838833070133090a0d2837083308800102838833070133090a0d282608956718194927980449279004492788045022660331438388a0fdc868087b97a00433075020680377a333026a0395681819014928800449287804492868044164893307049568801d4929700450206c034ea38267a800817756173f0c8268a800480840013307013309248268a0000a0d015247275914a04201956718294927600349275803492750034927480395670030837760fc33006e030a103302700328a64450227003a344502272037945510757013308800102838833070133090a0d286307492658010182676801977701826b5801d47b0b01492638054926300549262805956820057b6b20058267180150207403aba23308208267180150207603e5a683783309203307330078030a0d01956718194927d8044927d0044927c80450227a0321428388e0fdc868087b97e004330750207c0367a233027e0395681819014928c0044928b8044928a8044164893307049568c01d4929b00433006c03283aa264ba9567181949272005956c000182c87b7808058268f8007b7810059568201e82c9087b79180564b77bca980033002c012806a282679801817756176384003308800102838833070133090a0d28730652473a6750b66a01956718294927e0034927d8034927d0034927c803956700308377e0fc330080030a103302820328644350228203614350228403694151077e013308800102838833070133090a0d2821068267980181775617437e013308800102838833070133090a0d2805069567e016330086033302a80528574295681811958900058297c8007b6798018297d0007b6790018297d8007b6788018297e0007b6780019567c016330088033302ac05282a4395681811958900058297a8007b6778018297b0007b6770018297b8007b6768018297c0007b6760019567a01633008a033302b20528f342956b181195bc000582c7880082c8900082c9980082caa0007bca407bc9387bc8307bc728956b000182b7607bc76082b7687bc75882b7707bc75082b7787bc74882b780007bc7800082b788007bc77882b790007bc77095678016956860169569401682ba98007bca6850208c03612833088001028388330733090a0d2809055247ce3c124594049567182949172049171849171049170895670030837720f90a10956a18290182a71882a82082a91082aa08d49808d4a707d487075107ca043308800102838833070133090a0d28b80450228e030b41ac78c1043308800102838833070133090a0d289d049567801a330090033302bc0528ef4095671819827768017b6790019567601a330092033302ac0528de4195671819827748017b67f00033078001037b67080183777b670001330094030a04826908013302960328f1388269080150229603ea3849294001959b00017bb8387bb7309568401a7bba283307502098039a9f33029a0395681819014928200149281801492808010164893307209568201a4929100150209c03719f33077001027b671801390770010233083fac78118268180148084033029e0328954050229e0392403307800102837783993308407b6710013300a0030a08826a98013302a203286a3b826a98015022a203633b7b67980164718267900197772098792095671819492700014927f8004927f0009568001a7b69f8007b79e80033075020a403ea9e82677001956818197b87e000826778017b87d800826780017b87d000648a3307209568e019826988017ba9c8005020a603b79e82671801817756173f12826718014807403302a8032870395022a8036d393300aa030a08826a90013302ac03287b3c826a90015022ac03743c826700013300ae030a04826908013302b003282e3f826908015022b003273f7b6890019877206f987b688801978820d487077b6780019567c019826898015020b2032c9f3302b40395691819018297b0008098ac008299b800977a20d4a808979a20987720d4a707956b000182ba8000d3a70782ba9000d3a80882ba8800d3a909989920d49808d4870752074b0695670030837780fc0a09019567182982728003827b78037b6b580182747003827a68037b6a4001682768b8958940db2709684768a8958840db470895878000d42b0adaa709d8870c94ac8ecb8897f000857a01daca0b88b7019570ff9ab39accc9ac0a9a99ef008e3c8e07da0c07889c000185cc018ea8dba80cdbb70c7b6438017b625001d42407826b400182685801d4b808d48707887701d4c70764b894787b6898015207e8055022b603623f5107de055022b8034c385020ba03d03f5022bc03b43e5020be03ea3f5022c0038e3d5020c203de3f7b6720017b68e80082696001889780007b67e00082674001826838015020c403bc3f5022c603573f826ae00093a77bb77851086b0564a98267680182682801d4870764ac8268e8005022c803fb365020ca03643f5022cc03323e5020ce03583f7b67e8005022d003083d5020d2036e3f5022d403003a8268e8005022d6035a3b5020d803323f5022da03a2385022dc030b3ad89002826b2801d8ab0cdb320c5022de031d3ad4870297b801826b700198b33fd4380397b801826b780198b43fd4480897bb0182675801d47b0b7b6b780182675001d478087b687001d437087b686001d427075022e003f235d89b02c99b0988ab01c9bc0c827b8800c92b0b95aaff7b7c90007b7b8800d4bc027b7a9800d49a0bd42b0a840b017b7b587b79800049265001520a68ff28790452472dc64b4958956718294927800149277801492770014927680195670030837780fa0a10956a18290195ab000182b77882b8800082b97082ba68d49808d4a707d487075107e7053308800102838833070133090a0d281c3308800102838833070133090a0d280c838833070133090a0d01826798018177561763c605330880010228e69567201d3300e2033302bc0528433c95671819827708047b67780133078001037b67880183777b6780013300e4030a04826988013302e603286034826988015022e603593449290004959b00037bb8f8007bb7f0009568001d7bbae80033075020e803069b3302ea0395681819014928e0034928d8034928c8030164893307209568e01c4929d0035020ec03dd9a33077001027b679801390770010256173f0a5022ee03933c9517e08479e07b69700164913307800102837783993308407b6790010a08826a700182a71882a81082a90882aa6f777b6768016f877b6760016f977b6758016fa77b6750019517e08477e07b677001647182677801977720987920956718194927c0034927b8034927b0039568c01c7b6978017b79a80333075020f003469a8267500195681819958900037b97a000826758017b979800826760017b979000648a3307209568a01c826968017ba988035020f2030f9a5022f4032c39ac78095022f603573b9517e08477e07b6768015022f803a6333300fa030a0801826a680182a71882a81082a90882aa5022fc03de35826b70017bba187bb9107bb8087bb7826780013300fe030a04826988013302000428753a82698801502200046e3a7b6868019877206f987b686001978820d487077b6758019567801c8268700150200204739a95691819018297700380986c0382997803977a20d4a808979a20987720d4a707956b000182ba58d3a70782ba68d3a80882ba60d3a909989920d49808d4870752072a0682678001330004040a0482698801330206042859328269880150220604523249294003959b00037bb8387bb7309568401c7bba28330750200804029933020a0495681819014928200349281803492808030164893307209568201c4929100350200c04d99850220e04f637ac780950221004983a9517e08477e07b677001502212047032330014040a0833021604285533502216045233330218049569181901492900034929f8024929f0029568001c826778017b97e802330750201a047e9882675801956818199589000250221c04453a9568e01b826970017ba9c80250201e045a98502220047737ac780950222204a2399517e08477e07b67700150222404f1310a08826a700182a782a80882a91082aa186f726f876f996faa951be084b8e0648195ab02d8ab0ac8a90cd89c09daaa09c87909d87907c827077b8c087b8b7b89107b87189567c01b7b68680150202604db98956718198277b0028478ff00510813053302280495691819014929980249299002140700000000c884c1c17b97a0029568a01b49298802330733007e0428a697956918194929980049299000140700000000dbf71c6f7b97a0009568a0194929880033073300a405287b97492658010195690001829778977701829858d487077b979800018267f00082689801ab87b4068267000133002a040a048269080133022c042873308269080150222c046c304919607b98587b9750956860197b9a48330750202e0421973302300495681819014918404918384918280164893307209568401949193050203204fc9682671801817756173f12826818014808403302340428b53150223404b231330036040a0833023804287233502238046f3333023a049569181901491920491918491910956820198267f8007b9708330750203c04a69682677801956818197b87826780017b87f8826788017b87f0648a33072095680019826990017ba9e850203e04789682671801817756173f128267180148074033024004283131502240042e31330042040a0801826a900182a782a80882a91082aa1850224404483295ab02d8ab0ac8a90cd89c09daaa09c88909d88908c8870795681829958a00037bab88007bac90007ba998007ba7a0009567e0189568a02c50204604f296956718117c77d007510778053302480495691811014929b8074929b0071407000000006d53a9a77b97c0079568c0184929a80733073300a40528c1958267980181775617637b073308800102282dfa9567ff0795774133004a043302a80528863695670010827758f87b67f80095670010827750f87b67000195670010827748f87b67180195670010827740f87b6710019567ff0795772133004c043302ac05284e3795670010827738f87b67f00095670010827730f87b67e80095670010827728f87b67e00095670010827720f87b6708019567ff0795770133004e043302b205280c3795670010827700f87b67d80095670030837740f90a090195671829827240827b387b6b5801827430827a287b6a4001682768b8958940db2709684768a8958840db470895878000d42b0adaa709d8870c94ac8ecb8897f000857a01daca0b88b7019570ff9ab39accc9ac0a9a99ef008e3c8e07da0c07889c000185cc018ea8dba80cdbb70c7b6438017b625001d42407826b400182685801d4b808d48707887701d4c707947b52077c0b502250048b365107720b50225204752f50205404f93650225604dd3550205804133750225a04b73450205c0407377b6720017b68d00082696001889780007b67c800826740018268380150205e04e536502260048036826ac80093a77bb7785108050b64a98267680182682801d4870764ac8268d00050226204242e502064048d36502266045b355020680481367b67d00050226a04313450206c04973650226e0429318268d000502270048332502072045b3650227404cb2f502276043431d89002826b2801d8ab0cdb320c502278044631d4870297b801826b700198b33fd4380397b801826b780198b43fd4480897bb0182675801d47b0b7b6b780182675001d478087b687001d437087b686001d4270750227a041b2dd89b02c99b0988ab01c9bc0c827b8800c92b0b95aaff7b7c90007b7b8800d4bc027b7a9800d49a0bd42b0a840b017b7b587b79800049265001520a68ff28130a33027c0495691819014929580349295003140700000000dbf71c6f7b9760039568601c49294803330750207e04e99282679801817756171f0c8268980148082001330701330904826890010a0d011408ffffffff000000007b687001956a181995ab000282b8a80082b9b80082bac000867701956b182995bc00037bc8e8007bc9f8007bc7f0007bba00049568002d8267680150208004eb9382678001330082040a048269880133028404289a2b8269880150228404932b49298002959b00027bb8787bb7709568801b7bba6833075020860443929567181949276002492758024927500264793307209568601b492948025020880420929517e08477e07b676801647150228a043131ac780950228c04d3339517e08477e07b67980150228e04ab2b330090040a08826a98013302920428ec30826a980150229204e5307b6b980188ba01c89a0a7b6a6001d4ab09889901c889097b695801d88908c887077b675001826868017b8b7b8a087b89107b87189567401b502094048e9295681819958a000282a73882697001c89707d27909492800024928f8014928f001826750017ba720826758017ba718826760017ba710826798017ba708648a9567201b9568001b7ba9e80150209604d12682678001330098040a048269880133029a04284e2b8269880150229a04472bd4780298aa206f99979820d4a808989920826a7801956718197b7a88013a0a6000023a0b6800023a0c7000027b7ae0017b7bd8014927a001957b00017bbcd0003a0a78000249279801492790014927c0017bbac8007bb9b8007bb8b0009569e01a956ac01a956ba01a7b72a8013307330850209c04369333078268900133090a0d282ef595691819491978491970140700000000635bb2d57b9780009568801949196833073300a405287d90826700010a048269080182970881981082996f77977a206f88988820d48a0a9877206f98978920d49707988820956918114929a007959b00077bb898007bb790009568a0187bba8800330750209e042f903302a004956818110149288007492878074928680703648933072095688018492970075020a204069082671801817756173f12826818014808403302a40428bf2a5022a404bc2a3300a6040a083302a804287c2c5022a804792c3302aa04956918110149296007492958074929500795686018826798017b97480733075020ac04ac8f8267780195681811958900077b9740826780017b9738826788017b9730648a33072095684018826990017ba928075020ae04788f82671801817756173f12826718014807403302b00428312a5022b0042e2a3300b2040a08826a90013302b404288b2b826a90015022b404842b7b67900164713302b6049569181101492920074929180749291007956820188267f8007b97080733075020b804108f82677001956818117b870007826778017b87f806826780017b87f006648a33072095680018826988017ba9e8065020ba04dd8e8267180181775517400c82671801480740019517e08477e07b67880164718379330840826710013300bc040a08826a88013302be0428c72b826a88015022be04c02b826890017b8a187b89107b8b087b879567e0175020c004748f956718118277c80684780152086e0a3302c20495691811014929f8054929f005140700000000b6e2a4af7b970006956800174929e80533073300a40528408e9567ff07957741073300c4043302a80528172f9568ff0795881901958900068297407b67f8008297387b67f0008297307b6738018297287b6730019567ff07957721073300c6043302ac0528e62f9568ff0795881901958900068297207b67d0008297187b67c8008297107b67c0008297087b67b8009567ff07957701073300c8043302b20528ab2f9567ff07957719018079e8058897019598ff888832858801da97087b691001da97085208b20a8267f000977720987920956aff0795aa1901492ac0058267300195ab00057bb7a800826738017bb7b0009568ff079588c1067b6908017bb9b80033075020ca04528d9568ff07958819014928a00549289805492888050264893307209568ff079588a106492990055020cc04268d33077001027b679801390770010256173f0a5022ce04dc2e1407ffffffff000000007b6748019517e08479e07b69880164913307800102837783993308407b6790013300d0040a08826a88013302d20428c128826a88015022d204ba2895bc00017bcaa0007bc998007bc890007bc788009567ff07957781069568a02a5020d404958d9567ff0795771901827768057b67a800956700308377c0fa0a0901956718298272c001827bb8017b6b40018274b001827aa8017b6a1801682768b8958940db2709684768a8958840db470895878000d42b0adaa709d8870c94ac8ecb8897f000857a01daca0b88b7019570ff9ab39accc9ac0a9a99ef008e3c8e07da0c07889c000185cc018ea8dba80cdbb70c7b64b0007b622801d42407826b180182684001d4b808d48707887701d4c70764b894787b680001520772095022d604052e510768099598017b688801888701c8a7077b678001d48707887701c837077b677001d83707c807077b6778019a98ff007b6850019a898000826718018268b0005020d8043d2e7b6720017b6858018267400182682801826950015020da04492e7b6700017b68e80082675001957980826718018268b0005020dc042c2e7b67e0007b68d80082695001889780007b67a000826718018268b0005020de040a2e5022e004852d826aa00093a77bb7685108a20864a9826758018268e800d4870764ac8268d800da980782692801649a649882695001db970a7b6a580182672001826a0001d4a707826ae000daca07826b400164badb970a7b6a50018267600193c77b6760014926e8008051018267880195798064b75020e204692d7b6720017b68e000826718018268b000826988015020e4044f2d7b67d8007b680001826888019a89800082674001826828015020e604572d82690001d4980882698801889a80007b6a0001826be000daab08826bb000db980b7b6bb0008268d800d4870782682001daa80782681801db97087b68180182674001826828015020e804e52c826418018263b000492640014926280182690001939893977b672001826ae80095a9ff7b69e0008ea99599ff7b69d8000198493f973a01d4a909974a0182645801984b3fd4ba0a7b6a18018260d8006437d39003d89002826be000d8ab0cdb320c978801826b200198ba3fd4a8087b680001987a3f97b701d47a0a974701826b500198b83fd4870297b801826b600198b33fd4380397b801826b680198b43fd4480897bb0182674001d47b0b7b6b680182672801d478087b686001d437087b685001d427077b675801c9a007d8c707d8a008826c0001c9c00bc98b0bc97b0b99b03f8267e800d27007826818015022ea04b62a7b6720015022ec041e29d89b02c99b0988ab01c9bc0c827b78c92b0b95aaff7b7c80007b7b78d4bc027b7a8800d49a0bd42b0a840b017b7b407b797049262801520afefe288006492658010182677801977701826b5801d47b0b0182670801aeb7380c8267d8009777209878209587ff88773293877b68380193875107620c1407ffffffff000000007b677801826700019777209879204926b807826710017b67a007826718017b67a8079568a0077b6948017b69b00733075020ee0495884926980749269007492680070233072095688007492688075020f004778833077001027b679801390770010233083fac78095022f2042b2a140700000000ffffffff7b6730015022f40484293307800102837783993308407b6788013300f6040a08826a90013302f804281624826a90015022f8040f247bba607bb9587bb8507bb74895676007956860295020fa04f6888267600749264001330a82687801d287077b67280133090101330893a8956b000182b7287bb99000d897073309daa709492b80003307db780952099a0b95690001829778829840d28707829838ae87860b49265807826710017b674007826718017b67480795684007826748017b67500733075020fc048b874926380749263007492628073307209568200749262007015020fe046d87502200058a26ac7809502202052c29502204053324330006050a083302080528002350220805fd22956900077b97187b97107b970895680007826790017b97330750200a05268782675001956a00067ba7f800826758017ba7f000826760017ba7e8003307209568e006826968017ba9e00050200c05f58650220e051226ac7809502210053d2850221205f326330014050a08826a680133021605286227826a6801502216055b27826870017b6960017b89187b6768017b87107b6b58017b8b087b6c50017b8c9567c006502018058e87956a000682a7c80082a8d00082a9c0008477ff8488ff826a3001d2a909d49808d4870751075d02956c000182c850958702d8870882ca58c88a09d8a90ada880a82c868c88a0ad88a0882cb60c8b808956b18297bb7687bb9707bba787bb880009567a0069568802950201a0520878267a8068477ff0052070a0249269806826710017b678006826718017b67880695688006826748017b679006330750201c05fa8549267806492670064926680633072095686006492660060350201e05dc8550222005f924ac780950222205242750222405a222330026050a0833022805286220502228055f2049265806492650064926480695684006826708017b674006330750202a05948582675801956a00067ba738826760017ba730826768017ba72833072095682006826970017ba92050202c05678550222e058424ac780950223005af26502232052d22330034050a083302360528fa2050223605f720956900067b97187b97107b970895680006826790017b97330750203805208582675001956a00057ba7f800826758017ba7f000826760017ba7e8003307209568e005826968017ba9e00050203a05ef8450223c050c24ac780950223e05372650224005ed24330042050a08826a68013302440528eb21826a680150224405e421826870017b8a187b89107b8b087b879567c0055020460598858267c005847705521701830082679001956b00057bb760826708017bb78000826710017bb7a000826880017bb8688267e0007bb78800826718017bb7a8007bb8708267e8007bb79000826700017bb7b0007bb8788267f0007bb798009567a0059568800595696005826af8007bbab80050204805fe0b95690001829740957701829878d287077b974001330a8267900195770182687801d287092821fc8478025208e2078477fd007b6788019567a0178268900150204a05de84956a181195ab000682b7880082b8900082b9980082baa000847700ff826b8801d4b707957702956b182995bc00037bcac0007bc9b8007bc8b0007bc7a8009568c02c8267900150204c050c858267000133004e050a04826908013302500528a31d82690801502250059c1dd4870798aa206f99979820d4a808989920956c1811492c2006492c1806492c1006826a98017bca0806826af8007bca28063a0a8000023a0b880002492c4006492c38067bca80067bcb78063a0a9000023a0b980002492c3006492c60067bca700695ca00067bab687ba9587ba85064c895698017956a6017956b4017956c20177b8748063307330850205205378633078268100133090a0d286ce79569ff07959919014929d8054929d00514070000000059e962787b97e0059568ff079588e1064929c805330750205405b482390870010256181f122003700102203308800102281bde33088001022813de492640010195690001829768977701829840d487077b970149268001330a826748018268a800d287077b67e800140700000000ffffffff7b67e00033090101330893a88267e8007b695001d897073309daa709492640013307db78095109062881f19569000182974882988000d28707829810ac8706286af19569ff07959919014929600582673001959a00057ba748826738017ba7509568ff0795886106826708017ba758330750205605e7819567ff0795771901492740054927380549273005647a3307209568ff0795884106492a28050150205805bb8150225a05d820ac780950225c057a239517e08477e07b67880150225e05521b330060050a08826a88013302620528081c826a880150226205011c7b67880164719569ff079599190182674001959a00057ba7207ba7187ba7109568ff0795882106826750017ba7083307502064054b81826760019568ff07958819017b870005826768017b87f804826770017b87f004648a3307209568ff0795880106826978017ba9e804502066051081502268052d20ac780950226a0558229517e08477e07b67780150226c05a71a33006e050a08826a780133027005287321826a7801502270056c21956a000182a888007ba9707b89187ba7787b87107bab687b8b087bac607b8c9567ff079577e105502072059b819569ff0795991901959a000482a7d00082a8d80082a9c8008477ff8488ff826ae000d2a909d49808d48707510775956c000182c760957902d8790782c868c8780ad88a08da770882c778c8870bd87b0782c870c87808956718297bc988007b79c8017bca78957900017b9ad0007bcb707b9bd8007bc8687b98e0009567ff079577c1059568e02a502074050e819567ff07957719018277b0048477ff00510716330a8267500195770182684801d2870928a3fd956718299569000182988800957a00017ba8e8008298787ba8f0008298707ba8f8008298687b7800029567ff079577a1059568002b50207605ad80956aff0795aa190182a78804847bff8268b800d88b07db780b8262d0009372826cc800937c8268c00093780184b9ff82670001ae797fff7b697801956900017b98187b9c207b6228017b9b880082974882988000d28707829810ae8758ff492a80048267300195a900047b9768826738017b97709568ff0795888105826708017b9778330750207805307fff9567ff0795771901492760044927580449275004647a3307209568ff0795886105492a48040350207a05037fff82689801818756173f08480840019517e08477e07b67700150227c059a1833007e050a0833028005287f19502280057c199569ff07959919014929400449293804492930049568ff0795884105826778017b972804330750208205a57eff50228405b41f9589000450228605861b95882105826970017ba9080450208805827eff82689801818756173f08480840019517e08477e07b67780150228a0519180a08826a780182a71882a81082a90882aa6f777b6770016f877b6768016f977b6760016fa77b6758019517e08477e07b67780164719569ff0795991901826740017b970004959a00037ba7f8007ba7f0009568ff0795880105826750017ba7e800330750208c05fa7dff50228e05091f9589000350229005c21f9568ff079588e104826970017ba9c80350209205d37dff82689801818756173f08480840019517e08477e07b677001502294056a17330096050a08826a70013302980528c51a826a700150229805be1a826878017b8a187b89107b8b087b879567ff079577c10450209a056e7eff956aff0795aa190182a7a8038477055217019b008267500195ac00037bc748826788017bc768826730017bc78800826840017bc850826718017bc770826738017bc790007bc858826720017bc7788267f0007bc798007bc860826728017bc780009567ff079577a1049568ff07958881049569ff0795996104826bf8007bcba00050209c05c20495690001829b8800956aff0795aa190182978000957701829848d287077b9780002807826b8801013308330c330295b701847bff2831fd4926f0074926e8074926e007140700000000d94b11cf9568e0077b67f807330750209e05977cff390870010256181f12200370010220330880010228fdd7330880010228f5d74926d0074926c8074926c00714070000000059e962789568c0077b67d80733075020a005517cff390870010256181f12200370010220330880010228b7d7330880010228afd733078268880133090a0d28aae03302a20595691811014929b8064929b006140700000000f08982c97b97c0069568c0174929a80633075020a405f57bff82671801817756171f0c8268180148082001330701330904826810013300a6050a0d3302a80528b21c5022a805af1c0a020182171082181814090000000001000000d37909d48909987a2088aa01948a939a510a248219821a087b697b6a087b67107b68189551c082103882153082162895114032003308800102838833070133093300aa050a0d3302ac0528561d5022ac05531d3308240a0201821718821810821908d4780a889b0194ab510b0d821a5022ae05bd1932003308800102838833070133093300b0050a0d3302b20528131d5022b205101d3308443300b4050a023302b60528fa1a5022b605f71a520b0b5022b8057d1932003308800102838833070133093300ba050a0d3302bc0528c91b5022bc05c61b3300be050a023302c00528bd1a5022c005ba1a520b0b5022c205401932003308800102838833070133093300c4050a0d019511a07b10587b15507b16489515608411f0828910828c08828b82881897923f98ca01d42a02978a3f989901d49a0a97cc3f98b901d49c0c98830184bb019ab888b60184c97fd2a804d2280adbbc09d2380b88982094a8d4b40c94c8ab86167b797b7a087b74107b7b185022c605401b32005022c805de1a5020ca052d7aff49111849111049012233070464184911085020cc05157aff390870010256183f0b20037001024001330880010283883307013309243300ce050a0d01951170ff7b1088007b1580007b1678951590008411f064728289827408828c088273959a1fd89a00c80c0984aae07b1308c8a303d8a30bc8490ac8ba0ad39a06d89a07da6b07822b18d8c90c828610822210828818da000cc86c0cd86c06c82c09c89707d8c90cd89709c8b808c86808c8c808c8980c8ec88e79dbc809d4c7088ea6db8906520658821808d88308d34a09d84a06da9806d82708d3bc09d8bc0bda980bd32708d49808da860b520b317b13507b1a587b17603307409518507b1c685020d0052979ff955170ff8210880082158000821678951190003200491140491138491130140700000000717b484e9518307b174833075020d205f278ff491128491120491110413307049518104911185020d405d878ff390870010256183f0b20037001024001330880010283883307013309243300d6050a0d01951160ff7b1098007b1590007b1688009515a0008411e082897b1918828608827818827910827a0882777b18587b19507b1a487b17409517209518405020d8056379ff8217288218207b16788219187b19707b17687b18609517409518605020da05bb79ff955160ff8210980082159000821688009511a00032009511e0f8951a00077ba0187ba5107ba608951520078411e0641682997b692882887b68308278107b68208278087b683882777b6740836720060a0901826238068263300682672806826b20067b6b7868296838958a40db290a687968b8958840db7908958b8000d42309da9b0ad88b0c949c8ecb88a8f000858901dac90b88b4019540ff9ab49accc99c099aa8ef007b64a8008e4a8e0cda0a0c7b68b800888a000185aa018e98db980adbbc0a6474826778d42408d4370bd4b808888801d4a808647a948a5208e9028268b8008588ff00826ca800d4c808d4090bd4b8085108d002826bb80095ba017b6ab00088a801c898087b68a000d4a808888801c8c8087b689000d8c808c808087b6898009ab9ff007b6988009a99800064487b64707b62687b63605020dc05ab197b6780007b6850826760826868826988005020de05ba197b67487b68188268b8009a897f8267788268705020e005a1197b67107b68b80082698800889780007b67588267788268705020e2058319826c58826b9000826a98008269a000d4a909826ab000d4ba0ad49a0a93c77b67a800510a0502826750826918d497078269b800dac907826268642a82638800db370a7b6ab80082678000826948d49707826910dac907826b6064badb370a7b6a800093c87b6888004916588051018267b00095798064b764285020e405de187b67507b68188267788268708269b0005020e605c8187b67107b68488268b0009a8980008267608268685020e805d418826948d49808826ab00088ab80007b6b48826918dab908826970dba8097b6970826810d48707826850dab807826878dba70864a97b68788267608268685020ea056b18330c82694893989397826a5895a9ff7b69508ea99599ff7b6948826370826478017b6c7898493f973a01d49a0c974a01826bb80098bb3fd4ba0a7b6a688269487b6c706434d3c903d8c902826b50d8ab0cdb320c978801987a3fd4a8087b6860984a3f977701d47a0a8267b800977701826b800098b83fd4870297b801826b880098b33fd4380397b801826ba80098b43fd4480897bb01826778d47b0b7b6ba80086887b68880086387b68800086277b67b800c9a907d8c707d8a908826260c9290bc98b0bc97b0b99bc3f826758d2c707826868c97804d87808826770c987039478c98a07d88a08c98208826ab0008260a000d40a09889901826b9000d89b02c99b0988ab01c9b000826b9800c92b0b95aaff7b60a0007b6b9800d4b0027b6ab000d49a0bd42b0a84cc017b699000520af2fe2805330c018267a800977701d47c0a01826730aea7fe088267209777209879204926f8058267407b67e0058267387b67e8059568e0057b69a0007b69f00533075020ec055474ff4926d8054926d0054926c005013307209568c0054926c8055020ee053574ff3308700102390770010256173f0b200370010240019517e08479e07b69a800649133078001027b676883777b68b00083993308407b67b8003300f0050a083302f205285c105022f20559108267289777209877204926b8054926b0054926a8059568a0057b6798007b67a00533075020f405c073ff826778956a00057ba79800826780007ba79000826788007ba7880033072095688005826990007ba980005020f6058f73ff8268b000818756173f0e4808403302f805289b145022f80598143300fa050a083302fc052832115022fc052f11956760055020fe054974ff806764058268680582697005977720d49808d487075107ff07492658058267407b6740058267387b674805956840058267a0007b6750053307502000061773ff49263805492630054926200503330720956820054926280550200206f872ff8268b000818756173f0e48084033020406287c11502204067911330006060a08826aa80033020806285013826aa8005022080649137b67a8006f877b6790006f977b6788006fa77b678000492618054926100549260805956800058267307b670005330750200a068d72ff82678000956a00047ba7f800826788007ba7f000826790007ba7e8003307209568e0048269a8007ba9e00050200c065b72ff8268b000818756173f0e48084033020e0628df1050220e06dc10330010060a083302120628a00e502212069d0e4926d8044926d0044926c8049568c004826798007b67c0043307502014060d72ff826778956a00047ba7b800826780007ba7b000826788007ba7a8003307209568a004826990007ba9a00050201606dc71ff8268b00081875517400e4808403302180628e81250221806e51233001a060a0833021c06287f0f50221c067c0f9567800450201e069672ff82688004848701510782068487045207a3067b68788487fb007b679000956740048268a800502020066a72ff826740048268480482695004826a5804847700ff826b9000d4b707957704956b00067bba587bb9507bb8487bb740956840068267a80050202206a772ff492638048267a000956900047b97308267387b9728956820048267407b97203307502024061371ff492618044926100449260804330720956800044926000450202606f570ff9517e08477e07b677064718269b000819756173f0e48094033022806286e0f502228066b0f33002a060a08826aa80033022c06284211826aa80050222c063b117b6780006f8b7b6b88006f997b69a8006faa7b6a90008268707b8a187b89107b8b087b879567e00350202e067871ff956a000382a7f0003a0818010282a9f800c87808d87807c897079579ff4926b8034926b0037ba8a000826790007ba7d8008267a8007ba7d000826788007ba7c800826780007ba7c0009567c0039568a0037ba9a800502030067df782677884770252070903502032068c6eff3a08a001037b68a8003a08b001037b6890003a07a801037b6788000a0a826888006f88978920826a90006faa98aa20d4a909988a208268a8006f8b330880010397bc20d4ca0a98bb203d0b9001033e0a8801033e098001033a092001024926780649267006492668067b699000956a00067ba960482680068e77fc089a797ba9b8007ba9b0007ba9a8007ba9a000978820988820977723d48707956860069788209888209569a006979920d4890a826b6897bb2098bb2095688006978820d4b80c3308ff3309ff0a7b67a8000a0c01510752010a0c647949267802492670024926680295678002956860027b69487b696002502034061b05826780027b6768826788027b6760826790027b6758826798027b67509567400233084050203606be6dff956c000282c7587b677882c8507b687082ca487b6a800082cb407b6b88008269507bc9188269587bc9108269607bc9088269687bc97bc7387bc8307bca2895672002956800027bcb2050203806bef48269880082677882688000d48707826a70d4a908d47808988820d4a707977720d487075207fb024926f8014926f0014926e8019568e0018267487b67e001649750203a06626eff0a0c01826a8800826878826970d498081409e0ffffff00000000d89a09826b800094b994895109b20264789877205207a90283a72064897b68800083887b688800649850203c065f72ff826880007a68c00683778368c00633090a0b018167c00682688800ac8772028267a80052072a039567a00133084050203e06a96cff956b000182b7b80082b8b00082b9a80082baa00050224006d60a52073e0249269801492690014926880195688001826790007b67800164a77b6ab80050204206a06dff4926180149261001492608018267307b670001492638014926300149262801826798007b672001492658018267a0007b6750018267387b6748013a074801023a085001023a09580102826a407b6a40017b6778017b6870017b6968013a0760010233082095696001956a4001956b2001956c00017b6760018267b80033005006285d70ff9517e08472e064218267800095770188780182698800c8890cd4c709889901826aa800c8a909d8a90a826b9000c8ba0a6428642b7b6bb8007bbc087bb77bb9107bba189567800350204406c06dff826780033a09200102826888037b699000c87909d87907c887078477ff7b67b0008498ff7b68a800956760038268b80050204606896dff82677803826870038269a800956a00067ba9e0007ba7f8007ba8f0008267b0007ba7e8009568e0068267b80050204806d06dff9567400333084050204a061c6bff50224c06970b5208c50049263803492630034926280395682003826990007b6920037b67b80050204e06296cff4926b8024926b0024926a802826730956b00027bb7a0004926d8024926d0024926c802826798007bb7c0004926f8028267a0007bb7f0008267387bb7e8003a072801023a083001023a09380102826a407bbae0007b6718037b6810037b6908033a0740010233082095690003956ae002956bc002956ca0027b6700038267b80050205006e66eff9551e0f89517000782701882751082760895112007320000492610064926080649260006140700000000d94b11cf956800067b671806330750205206636bff390870010256181f0b20037001022001330880010283883307013309040a0d014926d0004926c8004926c0001407000000006d53a9a79568c0007b67d80033073300540628186bff4926f0004926e8004926e000140700000000b6e2a4af9568e0007b67f80033073300540628f06aff49267004492668044926600414070000000000f90f56956860047b67780433073300540628c86aff4926d0014926c8014926c00114070000000018ecb8909568c0017b67d801330750205406a46aff8267b000817756171f0c8268b000480820013307013309048268b800330056060a0d019511807b10787b15707b1668951580008411e08086827818827910827a0882777b18387b19307b1a287b17206417951820502058063b6bff801714977720821818821908821ad467077b18587b19487b1a407b175095172095184050205a068b6bff955180821078821570821668951180003200828a18828b108282088eac8eb9dbac09d4ba0a8e2bdba90b520b30828895891fd88908c828088488018499e0959a20d89a09c8980bd88b08da99084917187b7a7b7b087b781032009511b07b10487b15409515508411f050225c065a0a50205e06a969ff4911184911104901413307046418491108502060069169ff390870010256183f0b2003700102400133088001028388330701330924330062060a0d01951140fe7b10b8017b15b0017b16a8019515c0018411e082897b19588288087b185082787b18488278107b18408276080a0a6f68978920821a406faa98aa20d4a909988820821a486faa330b80010397ac20d4c80898aa203d0a9001033e088801033e0980010349215801492150018218507b1848018218587b184001482160018e77fc089a787b1898017b1890017b1888017b18800197bb2098bb20977723d4b70795184001978820988820330b80010295198001979920d4890a7b1b1097bb2098bb2095186001978820d4b80c3308ff3309ff0a64760a0c0151074a017b16180a0c647949211801492110014921080195172001951800017b19207b190001502064065ffe821720017b1748821728017b1740821730017b1738821738017b17309517e000330840502066060267ff8217f8007b17508216f0008219e8007b1958821ae0007b1a288218307b18b8008218387b18b0008218407b18a8008218487b18a0007b17d8007b16d0007b19c8009517c0009518a0007b1ac00050206806feed821928821750821858d48707d46908d478089888207b1648d46707977720d4870752079900492198004921900049218800951880008217207b1780006497649650206a06a267ff0a0c01821850821948d498081409e0ffffff00000000d89609821b5894b99489510953646a647698772052074983a72083687b1858646850206c06ab6bff7a16a00183778318a00133090a0b018117a001821618821858ac871c52061a955140fe8210b8018215b0018216a8019511c00132000049117049116849116014070000000018ecb8909518607b1778330750206e060c67ff390870010256181f0b200370010220018118103307013309040a0d33073300700628606bff3307502070065a6bff33070150207206506bff82970881981082996f77977a206f88988820d48a0a9877206f98978920d497079888209569181932028269500182970881981082996f77977a206f88988820d48a0a9877206f98978920d497079888209569ff0795991901320282970881981082996f77977a206f88988820d48a0a9877206f98978920d49707988820956918213202647183793308408267900132027b676801c9a007d8c707d8a008826c3801c9c00bc98b0bc97b0b99b03f82673001d2700782684001c97804d87808c989039498c98a077b674801d88a08c98c0895670001827a9800827c9000d4ca09889901827b8000320282970881981082996f7a97a7206f889888203202da980782695001649a649882696001db970a7b6a680182674801826a3001d4a707826a2001daca07826b580164badb970a7b6a60018267700193c77b677001492630018051018267980195798064b7320282a71882a81082a90882aa6f777b6778016f877b6770016f977b6768016fa77b6760019517e08477e03202826a700182a71882a81082a90882aa6f777b6770016f877b6768016f977b6760016fa77b67580132029517e08477e07b679001647183793308408267100132028269900182970881981082996f77977a206f88988820d48a0a9877206f98978920d4970798882032029598017b689801888701c8a7077b679001d48707887701c837077b678001d83707c807077b6788019a98ff007b6860019a89800082674001826838013202826a800182a71882a81082a90882aa6f777b6770016f877b6768016f977b6760016fa77b6758019517e08477e07b67800164719569ff079599190182677801320282970881981082996f77977a206f88988820d48a0a9877206f98978920d497079888203202826a700182a71882a81082a90882aa6f777b6768016f877b6760016f977b6758016fa77b6750019517e08477e07b677001647182678001320282a71882a81082a90882aa6f776f886f996faa956b182932026f776f886f996faa320282644001826338014926580149265001956b000182b928939893977bb74882ba3095a9ff7bb9288ea99599ff7bb920320282a71882a81082a90882aa6f777b6788016f877b6780016f977b6778016fa77b6770019517e08477e03202826aa80082a71882a81082a90882aa6f777b6790006f877b6788006f977b6780006fa77b67789517e08477e07b67a80064713202826a900182a71882a81082a90882aa6f777b6790016f877b6788016f977b6780016fa77b67780132029517e08477e07b679801647132029517e08477e07b677001647183793308408267880132027b9720826760017b9718826768017b9710648a3307209568ff073202d49707d48a09d47909989920d48707977720d49707320282a71882a81082a90882aa6f776f8b6f996faa3202330b330c8269280193989397826a380195a9ff7b6930018ea99599ff7b692801320282692801d4980882699801889a80007b6a2801826b2001daab08826b3801db980b7b6b3801320298493f973a01d4a909974a0182646801984b3fd4ba0a7b6a4001826020016437d390033202978801826b480198ba3fd4a8087b683801987a3f97b701d47a0a974701826b600198b83f3202826a900082a71882a81082a90882aa6f776f8b6f996faa8268a8007b8a187b89107b8b087b87320282a71882a81082a90882aa6f776f886f996faa826b98017bba187bb9107bb8087bb7320282a71882a81082a90882aa6f776f8b6f996faa826898017b8a187b89107b8b087b87320282a71882a81082a90882aa6f776f8b6f996faa826880017b8a187b89107b8b087b8732027b6a600193b87b686801492638018051018267900195798064c7643832027b6a7b69087b68107b67189551c082103882153082162895114032029517e08477e07b67a800647183793308408267b800320233071829c8760a95ab00023202d4870782684801daa80782684001db97087b6840018267580182685001320282ab7b1b1882ab087b1b2082ab107b1b2882aa187b1a308296829a087b1a829a107b1a088299187b1910320282a782a80882a91082aa186f776f886f996faa95ab01320282679801817733083f32027b6710017b682801826890019a89800082675001826840013202956b000382ba5882b85082b94882b740d49a0ad48709d4a909989920d4a808978820d498083202d8b709c9c808c99808c9b7078488ff7b6860018477ff7b675801320282692801d49808826a900188ab80007b6b280182691801dab90832026479140700000000717b484e33080020320282b7d80082b8e00082b9d00082bac800d49808d4a707d487073202d88a08c98c0895670001827a8800827c8000d4ca09889901827b703202821718821810821908821ad4790bd48a0cd4bc0c98cc20d48b0b97bb20d4cb0b32029517e08477e07b676801647183793308408267880132026f877b6770016f977b6768016fa77b67600132028267980182692801d4970782691001dab90782634001643a32027b682801826898019a898000826758018268500132027b6730017b682801826760019579808267400182683801320282a71882a81082a90882aa6f77320282a71882a81082a90882aa6f7c6f8b6f976fa93202491130491128491120140700000000717b484e9518207b17383307320282970881981082996f77977a206f88988820d4a808320282679801817733082332029511c07b10387b15307b16289515408411e06476831733080432029551a08210588215508216489511603202826758019568ff079588190132029517e08477e07b679000647183793308408267b80032029517e08479e07b699001649132029517e08479e07b69980164913202826798013308407a783202c97804d87808c989039498c98a0732027b6748017b68200182674001826838018269980132027b6748017b686801826758018268500182696001320233071821c8760a95ab0007320233071829c8760a95ab000332027b6760017b6898018267500182684001826968013202330740826898017a8732027b97e000826760017b97d800826768017b97d000648a33072032029511c07b10387b15307b16289515408411e0647683173202826a900182608001d40a09889901826b700132028597ff00d43707d40a08d4870732027b6718017b68100182696801889780007b6738013202956b00017bb86082b8800082b978d4890982b8880082ba70d4a808d498083202956b00017bb87082b8900082b98800d4890982b8980082ba8000d4a808d49808320282b75882b86082b95082ba48d49808d4a707d487073202849a40520a195109148d9a40cfa80ad09808d09707d4a707320032009597c0d0780733083200849a40520a195109148d9a40d0a70acf9707cf9808d4a808320032009598c0cf87083307320049922425494b2a252da9944c4949490a21a11a4292d210a1925429a42449922449922449922449922449922449922449922449922449922449922449aa9294529294942454a5242549922449922449922449922449922449922449922449499294a4aa24254994a4344982240525494a5292aaaa242549492a498a88889424494a92a442a5949224a59492a4922222a28888484992244828959494142952a4489122458a921411114544444a922425499220a1a8489122458a142952a4489122458a14294aa488882849128490309426a521112222221111d18888241192241251242244a16a8808110124492522499244129290244992244349280925490194428860286985aa444892104248852a551a1111911223824484102112511a114840041248402081041210482081444444a4449024499220894823224925914444240951a4441045444421222212118210221849142a914649822449922849848888249144920411212222221289448448238244442222229144248884884892208988888822448a440449494244841022222222111111892211111169449084285224228888882844449488108410c148a250891489082222225244444484181191482489a49444848888444444444484488848241289888888342289224992242222222222220a9122114152921011428888888844440445252222228a0804922812511489484444248824092411254a942891a422492a1195229224492a89882449249248229144444404222222101189084444444420909214912251918848244a4411881488888840444444201211914844229188084444442a494a26492411259124924892481249224924229148248924894420024992249248924424222222a28840208922111111894422228d88888848224992249124222222220a22468412118410c1240a45892822221045512451c4888888888882881111115122228822930814492a8aa28824451031128944124512492289442291281244241289444410912451444444440411494992248988888888888808221289441240a292888848221109a222922449894444444411814012482222222222220a22422282100911815089469202119124228888048124928888884844444414c58888244920894831229292888846444454524924a948924a442552129148924a2292242592481249444411814020221211084404222212499194888888282290244992281291202222499224494244444444222222228a0844442449a2484444444444444444444444c4484424918814448c08252208218249142a12d1485211881811115110111111252282283289208a480451241111110511111151222288229308a2888840041111092292244992249244224844222222a2884044449224904444444444444441442422084224440442a5485251144524298288888888482249249188888888202291884810499224499288888888880822220920804425898888888820222249259148222222880820519444928888082282a2281111115144242248822422c588249544442409514411892022891444449488200821829144a112514422a822494949922449890862449248224992249188082222228944228288202222912491880822222291241211448288481224111111510411452482a424212284109148928888a0a8444444442322229224411291224624a92492888824218a281244245141442422084288602451a84414910822884812492449101144442491484410d188209188888888880822412449904444444411441491089292440821442445242222282a1111115114234992244112914624494a22a224912412492a494434222292928824928824499248229224519248922449924892489244924a4a92244411452482888888828811a144044108493002882054228a480411444492482411114444924422918848121144342222a2924a2249459254222a91924891245149449224914492482222a2088220221211041141444422299212484444441409222292245124124422914804119128922449420891245290884422912412111111111151904451644422894a141591a4aa28915223914492244924499244441011914492249288244992244922222222898820924812492492481249248a544a4425884444225182202222822008221189448a882088184912494491124992481289249124924422914824892489441229499024914424924411c94412a28822414412918288882811112451081144825091289254159148248a281244444444414444281111449101440091441045248288888808228a88c88a941211114582882422051111512242104526114491209244440a8208222288229308a291a42092942449129124111144442416492222888888482249228a041111115110111125220451641241149108228888888888828888442225222288229308a2481049222205410411114491490451442288082222111141448408298924494292241211114444442411892412114444101121229224118948444444242212918844444444824824222288484444041189484422129144244944908804112522224992241189888888882822228888248044251149444444444410514422484a121111111111218410111111111191888848444482484424122508222222088220129148a4880882889124914414299124892491481249224924128944924892482491920449124944224914918c481011492a4592481249449244222212111144442292244922222222220aa21101244a49249592942411111111414444241211092222222222224144444444444444444492222288445224499244444444444441440288442511512482221a1149244922928824492295242222220820808844294944111111111111442292549288888848101140a2944444444482882212414412298818114a44104506104954228a480451c48848242205918844a24422882293a84491a4524a892445041191880822222249241211111111440411111111114424124922492222222282a42449922489442289228248924892244992882026a9a4244924494482489288888888208a88a81449242289242212914844a2208ac8242a5124499244924892548a2a49224944124922499224529248224992444955924492482449129124499214239124124992449148242222220a2292481249a4c448922491888888888824224124912492484492440411232222414444449224894824222222228888480001242a0288444492489224111111414492284522228808228248041040a222a28888888888888820221229450091288a8844244912114444504410914424492212912449028854444444441089888888208a888888082201242222828a264912894844442291882848a2142451a550444424a92aaa48248d8824129144241291281291249224922449928888202222222249228248224924914824124924918824924412894829111151224992888848444492248924499224499244041189442211494412442411444422920411918824898a4422918824890892244912499288248944920092544422888848241299248924894812894424414424092222114982884844921445229148249148242291c424484a92244992484a2488484404114922222222228804111111498a8820222222221111111141441189202222a22022a244044114994425a288441049248924a224114424918888442291222288041123492222492249444484082222012480489422121111111111412412451191882449228088244a1189a0884624114992884424499248452222228288221241529248248488101111212222229288880822414492244992184a25944a289588880022220a4204212111110144441409a51231228088280811848444440491288818114a44104564120da5124a25944a2895502aa15442a9845209a5124a25944a2895502aa15442a9845209a5124a25944ac4880022a22044101212312280882888223289865209a5124a2522028828081184844444001105514426d1502aa15442a984528988082022a22044100a855209a5123122808828081184c2926844441089828811a1444402222222228a0449922442a9845209a512111144a22062442811411491493420222222a2481044289518898c8888081241291a111144a220624428119122a288884411894228958088888888224110a154a2104a2522121111111111118988888888888844444424492449924444221111094255022249228a49922442a904114a25221211119188085144118920228914448c0825220811924824089588221241144944444414444444448988208a4824882212414411892052241111448c8824494422912411d1888888a8a4924852912495a8444a2212912415114410044110444444441044892252044110441004110441904882249244924844229120492289482449442410111111c548244922942a94aad4288422221111a28822124144444441c488502282102182240a952892541445914491444444444144444444898820489044108d240591a488221241a448222288119124892449924444118920228914448c08252208122411449120624444444144041111040992088a925425254992a42422888888181140441489880022a2488c248911115144224812298898448904514422411409222689484144914889481045241244a324419224494444444410111123028888225108894424222222222222129188888888888848442222a2914412955412492a92a412954849442292a40822088220082222222208a2441129822008220882088220482441124922492422914890249144249224221231228088288822328906101111918888888820a288441091440a22224a44904441822482282211441249228928490411892422229148a48808228a480449492222841011112122222222a282a21249001129124552294949222222a22062442811411491481045828811111105119148a4444410452412441189208a1811115110111111252282282293a8441491082249114424224604101145222212118944221111918848241289888844449224129144444444444414444484121141881041009144a11251442288888888082222221a111111955412492a92a412954849442292a42282482491249288888820222282884844101111114110258a4891a84844241225a208440a222222888888082211118944241289882022222a22516292441251124922892489249124924422128944924892480411244992482249129118898c8824298a00229288888888828890882044488200220895882212419244041145222b122951229224222222220a2222118220411045824812514144444424228220411045248288442251041111492489489224499248121141444444444414444422044182208a0411111105118944129120481044912092445410111111898820481044118920921441244424222212119188884444444410499245224944440411111111494444444410514422484a1211111111424444081111498a88880a8a4a444400111105218290901849d2282211406445a444492291241111914844a42022224a4408820449045144228822229244440a222222224a44441024482288221241449224292288888848224922499224492222118944440411112912494444241289880822229144513411114944228988482422522022224a440844914904512488888888880241041111882293088a241545512451444444444414082288880844914904514422882445042222212291884824229188444444444404111191248a5592880820a240882024242202882810220809292a11230288880251442611458226012449a594244952284591204d92948242298a048922418242298a045124485028459324494a922449929224492925090a024952022182a1241a11895452922449922449922449925452922449922449922410118992049014482249204430944423222225494a92249024499240444414912452294952a21111a9a4924852912495884a444a4a92a422229244249248124944444982481241124982444492201191488a481249918824498922885490241124114990442449922449498252494a9249924892942449922491481249224912455124499224499292442491249144249244d448269244221111052242220221443089428a12512448121111512011111189884014890451248840442489482422a240444844208a44822822114451141111890211111191880844914810458288888802898888484404a248248822410422914844442022222289248908444492480a44442202498a2291208a4804511445921481881049121111111111111124110811224451a2245148124208111191882222922492489244928c464544442288442291482092249148922425894810892449928888481468240920515122455120a2a811111109444444101111114520221211111111891042222242222222229222892491442a521281081149128988404444444444042281202222222210118988888888488410121111121111118848128d8800220a840886924644001145444400114544440011454444001105a2884c229a2491929424259024254992409244492a292949922449494992209024251022184aa211119192942495942485242184884422a2888824892444922492648d5444442482482412890422118924128944444444902449922422221215689200924a252905a2a891241111d12401240542049354448104924a494a124552294949224a2a25294954892249244924929448222289924a2951918848244a44118854928aa22892224945511425518922a994a424259248124944444491a4a2288a248a88924a494a5224a9288a2289a2245545554544442a494a4a525114455224a9288a924445928aa2284aa292a84489444a9424494a52551515891245222212899224928852228924891449aa8a2495a4aa485249aa8a2495a4aa4852510422554992242551892251229188a82449524a924a5295a2141111512449922429491289221111a900a2888824251191a42425499292a8444551149148544444141189284995a4aa920490545229294a4992544a92141125518992a8242a52494a111151444414892251444494a8888828254952452451242922228a4412498a4424222949929424495249254992545200"},"methodIdentifiers":{"STAKE_PER_DAY()":"4a91f7ae","archiveHabit(uint32)":"b650673a","checkIn(uint32,uint64)":"a0145927","claim(uint128)":"60e72adb","createHabit(string)":"b683ace1","dailyStatuses(address,uint64,uint32)":"88b21c87","deposit()":"d0e30db0","epochNow()":"222ae786","forceSettleAllEpochs(address,uint64,uint32)":"494bc62d","habits(address,uint32)":"99626634","prepareDay(uint64)":"48cc36b8","redepositFromClaimable(uint128)":"b7e22baf","settle(address,uint64,uint32)":"9c14eb6e","settleAll(address,uint64,uint32)":"45123cce","treasury()":"61d027b3","userHabitCounters(address)":"0e08454a","userStates(address)":"0ecc535f","withdraw(uint128)":"02387a7b"}},"hash":"e1308a241e8d1776322d7c44aada2808fcf50a5651e472e0b6b455aa68caf72d","factoryDependencies":{}}}}