{"contracts/HabitTracker.sol":{"HabitTracker":{"abi":[{"inputs":[{"internalType":"address","name":"_treasury","type":"address"},{"internalType":"address","name":"_stakingAdapter","type":"address"}],"stateMutability":"nonpayable","type":"constructor"},{"inputs":[],"name":"AlreadyCheckedIn","type":"error"},{"inputs":[],"name":"AlreadySettled","type":"error"},{"inputs":[],"name":"CannotSettleCurrentDay","type":"error"},{"inputs":[],"name":"DayNotFunded","type":"error"},{"inputs":[],"name":"HabitAlreadyArchived","type":"error"},{"inputs":[],"name":"HabitIdTooLarge","type":"error"},{"inputs":[],"name":"HabitNotFound","type":"error"},{"inputs":[],"name":"HabitTextTooLong","type":"error"},{"inputs":[],"name":"InsufficientBalance","type":"error"},{"inputs":[],"name":"InvalidAmount","type":"error"},{"inputs":[],"name":"InvalidBalanceType","type":"error"},{"inputs":[],"name":"InvalidEpoch","type":"error"},{"inputs":[],"name":"InvalidStakingAdapter","type":"error"},{"inputs":[],"name":"InvalidTreasury","type":"error"},{"inputs":[],"name":"OnlyOwner","type":"error"},{"inputs":[],"name":"TransferFailed","type":"error"},{"anonymous":false,"inputs":[{"indexed":true,"internalType":"address","name":"user","type":"address"},{"indexed":true,"internalType":"uint8","name":"from","type":"uint8"},{"indexed":true,"internalType":"uint8","name":"to","type":"uint8"},{"indexed":false,"internalType":"uint256","name":"amount","type":"uint256"}],"name":"BalanceMoved","type":"event"},{"anonymous":false,"inputs":[{"indexed":true,"internalType":"address","name":"user","type":"address"},{"indexed":true,"internalType":"uint32","name":"habitId","type":"uint32"},{"indexed":true,"internalType":"uint64","name":"epoch","type":"uint64"}],"name":"CheckedIn","type":"event"},{"anonymous":false,"inputs":[{"indexed":true,"internalType":"address","name":"user","type":"address"},{"indexed":true,"internalType":"uint64","name":"epoch","type":"uint64"},{"indexed":false,"internalType":"uint32","name":"fundedCount","type":"uint32"},{"indexed":false,"internalType":"uint32","name":"insufficientCount","type":"uint32"}],"name":"DayPrepared","type":"event"},{"anonymous":false,"inputs":[{"indexed":true,"internalType":"address","name":"user","type":"address"},{"indexed":false,"internalType":"uint256","name":"amount","type":"uint256"}],"name":"Deposited","type":"event"},{"anonymous":false,"inputs":[{"indexed":true,"internalType":"address","name":"user","type":"address"},{"indexed":true,"internalType":"uint32","name":"habitId","type":"uint32"}],"name":"HabitArchived","type":"event"},{"anonymous":false,"inputs":[{"indexed":true,"internalType":"address","name":"user","type":"address"},{"indexed":true,"internalType":"uint32","name":"habitId","type":"uint32"},{"indexed":false,"internalType":"bytes32","name":"text","type":"bytes32"}],"name":"HabitCreated","type":"event"},{"anonymous":false,"inputs":[{"indexed":true,"internalType":"address","name":"user","type":"address"},{"indexed":true,"internalType":"uint32","name":"habitId","type":"uint32"},{"indexed":true,"internalType":"uint64","name":"epoch","type":"uint64"},{"indexed":false,"internalType":"uint256","name":"slashed","type":"uint256"}],"name":"SettledFail","type":"event"},{"anonymous":false,"inputs":[{"indexed":true,"internalType":"address","name":"user","type":"address"},{"indexed":true,"internalType":"uint32","name":"habitId","type":"uint32"},{"indexed":true,"internalType":"uint64","name":"epoch","type":"uint64"},{"indexed":false,"internalType":"uint256","name":"reward","type":"uint256"}],"name":"SettledSuccess","type":"event"},{"anonymous":false,"inputs":[{"indexed":true,"internalType":"address","name":"oldAdapter","type":"address"},{"indexed":true,"internalType":"address","name":"newAdapter","type":"address"}],"name":"StakingAdapterUpdated","type":"event"},{"inputs":[],"name":"STAKE_PER_DAY","outputs":[{"internalType":"uint256","name":"","type":"uint256"}],"stateMutability":"view","type":"function"},{"inputs":[{"internalType":"uint32","name":"habitId","type":"uint32"}],"name":"archiveHabit","outputs":[],"stateMutability":"nonpayable","type":"function"},{"inputs":[{"internalType":"uint32","name":"habitId","type":"uint32"},{"internalType":"uint64","name":"epoch","type":"uint64"}],"name":"checkIn","outputs":[],"stateMutability":"nonpayable","type":"function"},{"inputs":[{"internalType":"address","name":"","type":"address"},{"internalType":"uint64","name":"","type":"uint64"}],"name":"checked","outputs":[{"internalType":"uint256","name":"","type":"uint256"}],"stateMutability":"view","type":"function"},{"inputs":[],"name":"claimAll","outputs":[{"internalType":"uint256","name":"total","type":"uint256"}],"stateMutability":"nonpayable","type":"function"},{"inputs":[],"name":"claimYieldRewards","outputs":[{"internalType":"uint256","name":"","type":"uint256"}],"stateMutability":"nonpayable","type":"function"},{"inputs":[{"internalType":"bytes32","name":"text","type":"bytes32"}],"name":"createHabit","outputs":[{"internalType":"uint32","name":"","type":"uint32"}],"stateMutability":"nonpayable","type":"function"},{"inputs":[],"name":"deposit","outputs":[],"stateMutability":"payable","type":"function"},{"inputs":[],"name":"epochNow","outputs":[{"internalType":"uint64","name":"","type":"uint64"}],"stateMutability":"view","type":"function"},{"inputs":[{"internalType":"address","name":"user","type":"address"},{"internalType":"uint64","name":"epoch","type":"uint64"},{"internalType":"uint32","name":"habitId","type":"uint32"}],"name":"forceSettle","outputs":[],"stateMutability":"nonpayable","type":"function"},{"inputs":[{"internalType":"address","name":"","type":"address"},{"internalType":"uint64","name":"","type":"uint64"}],"name":"funded","outputs":[{"internalType":"uint256","name":"","type":"uint256"}],"stateMutability":"view","type":"function"},{"inputs":[{"internalType":"address","name":"","type":"address"},{"internalType":"uint32","name":"","type":"uint32"}],"name":"habits","outputs":[{"internalType":"bytes32","name":"text","type":"bytes32"},{"internalType":"uint64","name":"createdAtEpoch","type":"uint64"},{"internalType":"bool","name":"archived","type":"bool"}],"stateMutability":"view","type":"function"},{"inputs":[{"internalType":"uint8","name":"from","type":"uint8"},{"internalType":"uint8","name":"to","type":"uint8"},{"internalType":"uint256","name":"amount","type":"uint256"}],"name":"move","outputs":[],"stateMutability":"nonpayable","type":"function"},{"inputs":[],"name":"owner","outputs":[{"internalType":"address","name":"","type":"address"}],"stateMutability":"view","type":"function"},{"inputs":[{"internalType":"uint64","name":"epoch","type":"uint64"}],"name":"prepareDay","outputs":[],"stateMutability":"nonpayable","type":"function"},{"inputs":[{"internalType":"address","name":"_newAdapter","type":"address"}],"name":"setStakingAdapter","outputs":[],"stateMutability":"nonpayable","type":"function"},{"inputs":[{"internalType":"address","name":"user","type":"address"},{"internalType":"uint64","name":"epoch","type":"uint64"},{"internalType":"uint32","name":"habitId","type":"uint32"}],"name":"settle","outputs":[],"stateMutability":"nonpayable","type":"function"},{"inputs":[{"internalType":"address","name":"","type":"address"},{"internalType":"uint64","name":"","type":"uint64"}],"name":"settled","outputs":[{"internalType":"uint256","name":"","type":"uint256"}],"stateMutability":"view","type":"function"},{"inputs":[],"name":"stakingAdapter","outputs":[{"internalType":"contract IStakingAdapter","name":"","type":"address"}],"stateMutability":"view","type":"function"},{"inputs":[{"internalType":"address","name":"newOwner","type":"address"}],"name":"transferOwnership","outputs":[],"stateMutability":"nonpayable","type":"function"},{"inputs":[],"name":"treasury","outputs":[{"internalType":"address","name":"","type":"address"}],"stateMutability":"view","type":"function"},{"inputs":[{"internalType":"address","name":"","type":"address"}],"name":"userHabitCounters","outputs":[{"internalType":"uint32","name":"","type":"uint32"}],"stateMutability":"view","type":"function"},{"inputs":[{"internalType":"address","name":"","type":"address"}],"name":"userStates","outputs":[{"internalType":"uint256","name":"depositBalance","type":"uint256"},{"internalType":"uint256","name":"blockedBalance","type":"uint256"},{"internalType":"uint256","name":"claimableBalance","type":"uint256"},{"internalType":"uint32","name":"activeHabitCount","type":"uint32"}],"stateMutability":"view","type":"function"},{"stateMutability":"payable","type":"receive"}],"evm":{"assembly":"// RO data = 0/0 bytes\n// RW data = 332/65952 bytes\n// Stack size = 32768 bytes\n\n// Instructions = 11128\n// Code size = 39363 bytes\n\n      : @0 (gas: 7)\n     0: sp = sp + 0xffffffffffffffe8\n     3: u64 [sp + 0x10] = ra\n     6: u64 [sp + 0x8] = s0\n     9: u64 [sp] = s1\n    11: s1 = 0x20148\n    16: s0 = i32 [0x20148]\n    21: jump @3 if s0 == 0\n      : @1 (gas: 5)\n    24: a0 = 0x30180\n    29: i32 a0 = a0 + 0\n    31: i32 a1 = s1 + 0\n    33: ecalli 7 // 'get_immutable_data'\n    35: fallthrough\n      : @2 (gas: 3)\n    36: a0 = i32 [0x20148]\n    41: u32 [0x20148] = 0\n    46: jump @4 if a0 <u s0\n      : @3 (gas: 5)\n    49: ra = u64 [sp + 0x10]\n    52: s0 = u64 [sp + 0x8]\n    55: s1 = u64 [sp]\n    57: sp = sp + 0x18\n    60: ret\n      : @4 (gas: 1)\n    62: trap\n      : @5 (gas: 2)\n    63: a1 = i32 [0x20148]\n    68: jump @57 if a1 == 0\n      : @6 (gas: 4)\n    72: a0 = 0x30180\n    77: i32 a0 = a0 + 0\n    79: ecalli 15 // 'set_immutable_data'\n    81: jump @57\n      : @7 (gas: 8)\n    84: sp = sp + 0xfffffffffffffff0\n    87: u64 [sp + 0x8] = ra\n    90: u64 [sp] = s0\n    92: a2 = a1\n    94: s0 = a0\n    96: a1 = 0x20\n    99: a0 = a2\n   101: ra = 2, jump @20\n      : @8 [@dyn 1] (gas: 100)\n   106: a1 = u8 [a0 + 0x1]\n   109: a2 = u8 [a0]\n   111: a3 = u8 [a0 + 0x2]\n   114: a4 = u8 [a0 + 0x3]\n   117: a1 = a1 << 0x8\n   120: a1 = a1 | a2\n   123: a3 = a3 << 0x10\n   126: a4 = a4 << 0x18\n   129: a3 = a3 | a4\n   132: a1 = a1 | a3\n   135: a2 = u8 [a0 + 0x5]\n   138: a3 = u8 [a0 + 0x4]\n   141: a4 = u8 [a0 + 0x6]\n   144: a5 = u8 [a0 + 0x7]\n   147: a2 = a2 << 0x8\n   150: a2 = a2 | a3\n   153: a4 = a4 << 0x10\n   156: a5 = a5 << 0x18\n   159: a4 = a4 | a5\n   162: a2 = a2 | a4\n   165: a2 = a2 << 0x20\n   168: t0 = a2 | a1\n   171: a2 = u8 [a0 + 0x9]\n   174: a3 = u8 [a0 + 0x8]\n   177: a4 = u8 [a0 + 0xa]\n   180: a5 = u8 [a0 + 0xb]\n   183: a2 = a2 << 0x8\n   186: a2 = a2 | a3\n   189: a4 = a4 << 0x10\n   192: a5 = a5 << 0x18\n   195: a4 = a4 | a5\n   198: a2 = a2 | a4\n   201: a3 = u8 [a0 + 0xd]\n   204: a4 = u8 [a0 + 0xc]\n   207: a5 = u8 [a0 + 0xe]\n   210: a1 = u8 [a0 + 0xf]\n   213: a3 = a3 << 0x8\n   216: a3 = a3 | a4\n   219: a5 = a5 << 0x10\n   222: a1 = a1 << 0x18\n   225: a1 = a1 | a5\n   228: a1 = a1 | a3\n   231: a1 = a1 << 0x20\n   234: t1 = a1 | a2\n   237: a1 = u8 [a0 + 0x11]\n   240: a3 = u8 [a0 + 0x10]\n   243: a4 = u8 [a0 + 0x12]\n   246: a5 = u8 [a0 + 0x13]\n   249: a1 = a1 << 0x8\n   252: a1 = a1 | a3\n   255: a4 = a4 << 0x10\n   258: a5 = a5 << 0x18\n   261: a4 = a4 | a5\n   264: a1 = a1 | a4\n   267: a3 = u8 [a0 + 0x15]\n   270: a4 = u8 [a0 + 0x14]\n   273: a5 = u8 [a0 + 0x16]\n   276: a2 = u8 [a0 + 0x17]\n   279: a3 = a3 << 0x8\n   282: a3 = a3 | a4\n   285: a5 = a5 << 0x10\n   288: a2 = a2 << 0x18\n   291: a2 = a2 | a5\n   294: a2 = a2 | a3\n   297: a2 = a2 << 0x20\n   300: a3 = a2 | a1\n   303: a1 = u8 [a0 + 0x19]\n   306: a2 = u8 [a0 + 0x18]\n   309: a4 = u8 [a0 + 0x1a]\n   312: a5 = u8 [a0 + 0x1b]\n   315: a1 = a1 << 0x8\n   318: a1 = a1 | a2\n   321: a4 = a4 << 0x10\n   324: a5 = a5 << 0x18\n   327: a4 = a4 | a5\n   330: a1 = a1 | a4\n   333: a2 = u8 [a0 + 0x1d]\n   336: a4 = u8 [a0 + 0x1c]\n   339: a5 = u8 [a0 + 0x1e]\n   342: a0 = u8 [a0 + 0x1f]\n   345: a2 = a2 << 0x8\n   348: a2 = a2 | a4\n   351: a5 = a5 << 0x10\n   354: a0 = a0 << 0x18\n   357: a0 = a0 | a5\n   360: a0 = a0 | a2\n   363: a0 = a0 << 0x20\n   366: a0 = a0 | a1\n   369: a0 = reverse a0\n   371: a1 = reverse a3\n   373: a2 = reverse t1\n   375: a3 = reverse t0\n   377: u64 [s0 + 0x18] = a3\n   380: u64 [s0 + 0x10] = a2\n   383: u64 [s0 + 0x8] = a1\n   386: u64 [s0] = a0\n   388: ra = u64 [sp + 0x8]\n   391: s0 = u64 [sp]\n   393: sp = sp + 0x10\n   396: ret\n      : @9 (gas: 12)\n   398: sp = sp + 0xffffffffffffffd8\n   401: u64 [sp + 0x20] = ra\n   404: u64 [sp + 0x18] = s0\n   407: u64 [sp + 0x10] = s1\n   410: a2 = u64 [a1]\n   412: u64 [sp + 0x8] = a2\n   415: a2 = u64 [a1 + 0x8]\n   418: u64 [sp] = a2\n   420: s0 = u64 [a1 + 0x10]\n   423: s1 = u64 [a1 + 0x18]\n   426: a1 = 0x20\n   429: ra = 4, jump @20\n      : @10 [@dyn 2] (gas: 71)\n   434: a1 = reverse s1\n   436: a2 = reverse s0\n   438: a3 = u64 [sp]\n   440: a3 = reverse a3\n   442: a4 = u64 [sp + 0x8]\n   445: a4 = reverse a4\n   447: u8 [a0 + 0x18] = a4\n   450: u8 [a0 + 0x10] = a3\n   453: u8 [a0 + 0x8] = a2\n   456: u8 [a0] = a1\n   458: a5 = a4 >> 0x38\n   461: u8 [a0 + 0x1f] = a5\n   464: a5 = a4 >> 0x30\n   467: u8 [a0 + 0x1e] = a5\n   470: a5 = a4 >> 0x28\n   473: u8 [a0 + 0x1d] = a5\n   476: a5 = a4 >> 0x20\n   479: u8 [a0 + 0x1c] = a5\n   482: a5 = a4 >> 0x18\n   485: u8 [a0 + 0x1b] = a5\n   488: a5 = a4 >> 0x10\n   491: u8 [a0 + 0x1a] = a5\n   494: a4 = a4 >> 0x8\n   497: u8 [a0 + 0x19] = a4\n   500: a4 = a3 >> 0x38\n   503: u8 [a0 + 0x17] = a4\n   506: a4 = a3 >> 0x30\n   509: u8 [a0 + 0x16] = a4\n   512: a4 = a3 >> 0x28\n   515: u8 [a0 + 0x15] = a4\n   518: a4 = a3 >> 0x20\n   521: u8 [a0 + 0x14] = a4\n   524: a4 = a3 >> 0x18\n   527: u8 [a0 + 0x13] = a4\n   530: a4 = a3 >> 0x10\n   533: u8 [a0 + 0x12] = a4\n   536: a3 = a3 >> 0x8\n   539: u8 [a0 + 0x11] = a3\n   542: a3 = a2 >> 0x38\n   545: u8 [a0 + 0xf] = a3\n   548: a3 = a2 >> 0x30\n   551: u8 [a0 + 0xe] = a3\n   554: a3 = a2 >> 0x28\n   557: u8 [a0 + 0xd] = a3\n   560: a3 = a2 >> 0x20\n   563: u8 [a0 + 0xc] = a3\n   566: a3 = a2 >> 0x18\n   569: u8 [a0 + 0xb] = a3\n   572: a3 = a2 >> 0x10\n   575: u8 [a0 + 0xa] = a3\n   578: a2 = a2 >> 0x8\n   581: u8 [a0 + 0x9] = a2\n   584: a2 = a1 >> 0x38\n   587: u8 [a0 + 0x7] = a2\n   590: a2 = a1 >> 0x30\n   593: u8 [a0 + 0x6] = a2\n   596: a2 = a1 >> 0x28\n   599: u8 [a0 + 0x5] = a2\n   602: a2 = a1 >> 0x20\n   605: u8 [a0 + 0x4] = a2\n   608: a2 = a1 >> 0x18\n   611: u8 [a0 + 0x3] = a2\n   614: a2 = a1 >> 0x10\n   617: u8 [a0 + 0x2] = a2\n   620: a1 = a1 >> 0x8\n   623: u8 [a0 + 0x1] = a1\n   626: ra = u64 [sp + 0x20]\n   629: s0 = u64 [sp + 0x18]\n   632: s1 = u64 [sp + 0x10]\n   635: sp = sp + 0x28\n   638: ret\n      : @11 (gas: 48)\n   640: sp = sp + 0xffffffffffffffa0\n   643: u64 [sp + 0x58] = ra\n   646: u64 [sp + 0x50] = s0\n   649: u64 [sp + 0x48] = s1\n   652: s0 = sp + 0x60\n   655: sp = sp & 0xffffffffffffffe0\n   658: s1 = a0\n   660: a0 = u64 [a1 + 0x18]\n   663: a2 = u64 [a1 + 0x10]\n   666: a3 = u64 [a1 + 0x8]\n   669: a1 = u64 [a1]\n   671: a0 = reverse a0\n   673: a2 = reverse a2\n   675: a3 = reverse a3\n   677: a1 = reverse a1\n   679: u64 [sp + 0x18] = a1\n   682: u64 [sp + 0x10] = a3\n   685: u64 [sp + 0x8] = a2\n   688: u64 [sp] = a0\n   690: u64 [sp + 56] = 0\n   693: u64 [sp + 48] = 0\n   696: u64 [sp + 40] = 0\n   699: u64 [sp + 32] = 0\n   702: u32 [sp + 64] = 0x20\n   706: i32 a1 = sp + 0\n   708: i32 a3 = sp + 0x20\n   711: i32 a4 = sp + 0x40\n   714: a2 = 0xffffffffffffffff\n   717: a0 = 0\n   719: ecalli 8 // 'get_storage'\n   721: a0 = u64 [sp + 0x38]\n   724: a1 = u64 [sp + 0x30]\n   727: a2 = u64 [sp + 0x28]\n   730: a3 = u64 [sp + 0x20]\n   733: a0 = reverse a0\n   735: a1 = reverse a1\n   737: a2 = reverse a2\n   739: a3 = reverse a3\n   741: u64 [s1 + 0x18] = a3\n   744: u64 [s1 + 0x10] = a2\n   747: u64 [s1 + 0x8] = a1\n   750: u64 [s1] = a0\n   752: sp = s0 + 0xffffffffffffffa0\n   755: ra = u64 [sp + 0x58]\n   758: s0 = u64 [sp + 0x50]\n   761: s1 = u64 [sp + 0x48]\n   764: sp = sp + 0x60\n   767: ret\n      : @12 (gas: 40)\n   769: sp = sp + 0xffffffffffffffa0\n   772: u64 [sp + 0x58] = ra\n   775: u64 [sp + 0x50] = s0\n   778: s0 = sp + 0x60\n   781: sp = sp & 0xffffffffffffffe0\n   784: t0 = u64 [a0]\n   786: a3 = u64 [a0 + 0x8]\n   789: a4 = u64 [a0 + 0x10]\n   792: a0 = u64 [a0 + 0x18]\n   795: t1 = u64 [a1]\n   797: a2 = u64 [a1 + 0x8]\n   800: a5 = u64 [a1 + 0x10]\n   803: a1 = u64 [a1 + 0x18]\n   806: t2 = reverse a0\n   808: a4 = reverse a4\n   810: a3 = reverse a3\n   812: a0 = reverse t0\n   814: t0 = reverse a1\n   816: a5 = reverse a5\n   818: a2 = reverse a2\n   820: a1 = reverse t1\n   822: u64 [sp + 0x18] = a0\n   825: u64 [sp + 0x10] = a3\n   828: u64 [sp + 0x8] = a4\n   831: u64 [sp] = t2\n   833: u64 [sp + 0x38] = a1\n   836: u64 [sp + 0x30] = a2\n   839: u64 [sp + 0x28] = a5\n   842: u64 [sp + 0x20] = t0\n   845: i32 a1 = sp + 0\n   847: i32 a3 = sp + 0x20\n   850: a2 = 0xffffffffffffffff\n   853: a4 = 0x20\n   856: a0 = 0\n   858: ecalli 16 // 'set_storage'\n   860: sp = s0 + 0xffffffffffffffa0\n   863: ra = u64 [sp + 0x58]\n   866: s0 = u64 [sp + 0x50]\n   869: sp = sp + 0x60\n   872: ret\n      : @13 [@dyn 3] (gas: 35)\n   874: a1 = u64 [sp]\n   876: a1 = reverse a1\n   878: a2 = u64 [sp + 0x8]\n   881: a2 = reverse a2\n   883: a3 = u64 [sp + 0x10]\n   886: a3 = reverse a3\n   888: a4 = u64 [sp + 0x18]\n   891: a4 = reverse a4\n   893: u64 [sp + 0x58] = a4\n   896: u64 [sp + 0x50] = a3\n   899: u64 [sp + 0x48] = a2\n   902: u64 [sp + 0x40] = a1\n   905: a1 = u64 [sp + 0x20]\n   908: a1 = reverse a1\n   910: a2 = u64 [sp + 0x28]\n   913: a2 = reverse a2\n   915: a3 = u64 [sp + 0x30]\n   918: a3 = reverse a3\n   920: a4 = u64 [sp + 0x38]\n   923: a4 = reverse a4\n   925: u64 [sp + 0x78] = a4\n   928: u64 [sp + 0x70] = a3\n   931: u64 [sp + 0x68] = a2\n   934: u64 [sp + 0x60] = a1\n   937: i32 a2 = a0 + 0\n   939: i32 a3 = s1 + 0\n   941: i32 a0 = sp + 0x40\n   944: a1 = 0x2\n   947: ecalli 6 // 'deposit_event'\n   949: sp = s0 + 0xffffffffffffff60\n   953: ra = u64 [sp + 0x98]\n   957: s0 = u64 [sp + 0x90]\n   961: s1 = u64 [sp + 0x88]\n   965: sp = sp + 0xa0\n   969: ret\n      : @14 (gas: 15)\n   971: sp = sp + 0xffffffffffffff20\n   975: u64 [sp + 0xd8] = ra\n   979: u64 [sp + 0xd0] = s0\n   983: u64 [sp + 0xc8] = s1\n   987: s0 = sp + 0xe0\n   991: sp = sp & 0xffffffffffffffe0\n   994: a5 = u64 [a4]\n   996: u64 [sp + 0x40] = a5\n   999: a5 = u64 [a4 + 0x8]\n  1002: u64 [sp + 0x48] = a5\n  1005: a5 = u64 [a4 + 0x10]\n  1008: u64 [sp + 0x50] = a5\n  1011: a4 = u64 [a4 + 0x18]\n  1014: u64 [sp + 0x58] = a4\n  1017: t0 = 8, jump @1480\n      : @15 [@dyn 4] (gas: 2)\n  1023: u64 [sp + 0x38] = a1\n  1026: ra = 10, jump @20\n      : @16 [@dyn 5] (gas: 46)\n  1031: a1 = reverse s1\n  1033: u64 [sp + 0x78] = a1\n  1036: a1 = u64 [sp]\n  1038: a1 = reverse a1\n  1040: u64 [sp + 0x70] = a1\n  1043: a1 = u64 [sp + 0x8]\n  1046: a1 = reverse a1\n  1048: u64 [sp + 0x68] = a1\n  1051: a1 = u64 [sp + 0x10]\n  1054: a1 = reverse a1\n  1056: u64 [sp + 0x60] = a1\n  1059: a1 = u64 [sp + 0x18]\n  1062: a1 = reverse a1\n  1064: u64 [sp + 0x98] = a1\n  1068: a1 = u64 [sp + 0x20]\n  1071: a1 = reverse a1\n  1073: u64 [sp + 0x90] = a1\n  1077: a1 = u64 [sp + 0x28]\n  1080: a1 = reverse a1\n  1082: u64 [sp + 0x88] = a1\n  1086: a1 = u64 [sp + 0x30]\n  1089: a1 = reverse a1\n  1091: u64 [sp + 0x80] = a1\n  1095: a1 = u64 [sp + 0x40]\n  1098: a1 = reverse a1\n  1100: u64 [sp + 0xb8] = a1\n  1104: a1 = u64 [sp + 0x48]\n  1107: a1 = reverse a1\n  1109: u64 [sp + 0xb0] = a1\n  1113: a1 = u64 [sp + 0x50]\n  1116: a1 = reverse a1\n  1118: u64 [sp + 0xa8] = a1\n  1122: a1 = u64 [sp + 0x58]\n  1125: a1 = reverse a1\n  1127: u64 [sp + 0xa0] = a1\n  1131: i32 a2 = a0 + 0\n  1133: a3 = i32 [sp + 0x38]\n  1136: i32 a0 = sp + 0x60\n  1139: a1 = 0x3\n  1142: ecalli 6 // 'deposit_event'\n  1144: sp = s0 + 0xffffffffffffff20\n  1148: ra = u64 [sp + 0xd8]\n  1152: s0 = u64 [sp + 0xd0]\n  1156: s1 = u64 [sp + 0xc8]\n  1160: sp = sp + 0xe0\n  1164: ret\n      : @17 (gas: 23)\n  1166: sp = sp + 0xfffffffffffffee0\n  1170: u64 [sp + 0x118] = ra\n  1174: u64 [sp + 0x110] = s0\n  1178: u64 [sp + 0x108] = s1\n  1182: s0 = sp + 0x120\n  1186: sp = sp & 0xffffffffffffffe0\n  1189: s1 = u64 [a5]\n  1191: u64 [sp + 0x60] = s1\n  1194: s1 = u64 [a5 + 0x8]\n  1197: u64 [sp + 0x68] = s1\n  1200: s1 = u64 [a5 + 0x10]\n  1203: u64 [sp + 0x70] = s1\n  1206: a5 = u64 [a5 + 0x18]\n  1209: u64 [sp + 0x78] = a5\n  1212: a5 = u64 [a4]\n  1214: u64 [sp + 0x38] = a5\n  1217: a5 = u64 [a4 + 0x8]\n  1220: u64 [sp + 0x40] = a5\n  1223: a5 = u64 [a4 + 0x10]\n  1226: u64 [sp + 0x48] = a5\n  1229: a4 = u64 [a4 + 0x18]\n  1232: u64 [sp + 0x50] = a4\n  1235: t0 = 12, jump @1480\n      : @18 [@dyn 6] (gas: 2)\n  1241: u64 [sp + 0x58] = a1\n  1244: ra = 14, jump @20\n      : @19 [@dyn 7] (gas: 58)\n  1249: a1 = reverse s1\n  1251: u64 [sp + 0x98] = a1\n  1255: a1 = u64 [sp]\n  1257: a1 = reverse a1\n  1259: u64 [sp + 0x90] = a1\n  1263: a1 = u64 [sp + 0x8]\n  1266: a1 = reverse a1\n  1268: u64 [sp + 0x88] = a1\n  1272: a1 = u64 [sp + 0x10]\n  1275: a1 = reverse a1\n  1277: u64 [sp + 0x80] = a1\n  1281: a1 = u64 [sp + 0x18]\n  1284: a1 = reverse a1\n  1286: u64 [sp + 0xb8] = a1\n  1290: a1 = u64 [sp + 0x20]\n  1293: a1 = reverse a1\n  1295: u64 [sp + 0xb0] = a1\n  1299: a1 = u64 [sp + 0x28]\n  1302: a1 = reverse a1\n  1304: u64 [sp + 0xa8] = a1\n  1308: a1 = u64 [sp + 0x30]\n  1311: a1 = reverse a1\n  1313: u64 [sp + 0xa0] = a1\n  1317: a1 = u64 [sp + 0x38]\n  1320: a1 = reverse a1\n  1322: u64 [sp + 0xd8] = a1\n  1326: a1 = u64 [sp + 0x40]\n  1329: a1 = reverse a1\n  1331: u64 [sp + 0xd0] = a1\n  1335: a1 = u64 [sp + 0x48]\n  1338: a1 = reverse a1\n  1340: u64 [sp + 0xc8] = a1\n  1344: a1 = u64 [sp + 0x50]\n  1347: a1 = reverse a1\n  1349: u64 [sp + 0xc0] = a1\n  1353: a1 = u64 [sp + 0x60]\n  1356: a1 = reverse a1\n  1358: u64 [sp + 0xf8] = a1\n  1362: a1 = u64 [sp + 0x68]\n  1365: a1 = reverse a1\n  1367: u64 [sp + 0xf0] = a1\n  1371: a1 = u64 [sp + 0x70]\n  1374: a1 = reverse a1\n  1376: u64 [sp + 0xe8] = a1\n  1380: a1 = u64 [sp + 0x78]\n  1383: a1 = reverse a1\n  1385: u64 [sp + 0xe0] = a1\n  1389: i32 a2 = a0 + 0\n  1391: a3 = i32 [sp + 0x58]\n  1394: i32 a0 = sp + 0x80\n  1398: a1 = 0x4\n  1401: ecalli 6 // 'deposit_event'\n  1403: sp = s0 + 0xfffffffffffffee0\n  1407: ra = u64 [sp + 0x118]\n  1411: s0 = u64 [sp + 0x110]\n  1415: s1 = u64 [sp + 0x108]\n  1419: sp = sp + 0x120\n  1423: ret\n      : @20 (gas: 2)\n  1425: i32 a2 = a0 >> 0x10\n  1428: jump @25 if a2 != 0\n      : @21 (gas: 4)\n  1431: a1 = a1 + a0\n  1434: i32 a1 = a1 + 0x1f\n  1437: a1 = a1 & 0xffffffffffffffe0\n  1440: jump @25 if a1 >u 65536\n      : @22 (gas: 3)\n  1446: a2 = 0x20150\n  1451: a3 = i32 [0x20150]\n  1456: jump @24 if a3 >=u a1\n      : @23 (gas: 2)\n  1459: u32 [0x20150] = a1\n  1464: fallthrough\n      : @24 (gas: 4)\n  1465: a1 = 0x20160\n  1470: i32 a0 = a0 + 0\n  1472: a0 = a0 + a1\n  1475: ret\n      : @25 (gas: 1)\n  1477: trap\n      : @26 (gas: 6)\n  1478: sp = sp + 0xfffffffffffffff0\n  1481: u64 [sp + 0x8] = ra\n  1484: u64 [sp] = s0\n  1486: s0 = a0 & 0x1\n  1489: ecalli 3 // 'call_data_size'\n  1491: fallthrough\n      : @27 (gas: 2)\n  1492: u32 [0x2014c] = a0\n  1497: jump @29 if s0 == 0\n      : @28 (gas: 1)\n  1500: ra = 16, jump @30\n      : @29 [@dyn 8] (gas: 1)\n  1504: ra = 18, jump @60\n      : @30 [@dyn 9] (gas: 14)\n  1509: sp = sp + 0xfffffffffffffd60\n  1513: a0 = sp + 0x200\n  1517: u64 [a0 + 0x98] = ra\n  1521: u64 [a0 + 0x90] = s0\n  1525: u64 [a0 + 0x88] = s1\n  1529: s0 = sp + 0x2a0\n  1533: sp = sp & 0xffffffffffffffe0\n  1536: u64 [sp + 440] = 0\n  1540: u64 [sp + 432] = 0\n  1544: u64 [sp + 424] = 0\n  1548: u64 [sp + 416] = 0\n  1552: i32 a0 = sp + 0x1a0\n  1556: ecalli 17 // 'value_transferred'\n  1558: fallthrough\n      : @31 (gas: 8)\n  1559: a0 = u64 [sp + 0x1b0]\n  1563: a1 = u64 [sp + 0x1b8]\n  1567: a2 = u64 [sp + 0x1a8]\n  1571: a3 = u64 [sp + 0x1a0]\n  1575: a1 = a1 | a2\n  1578: a0 = a0 | a3\n  1581: a0 = a0 | a1\n  1584: jump @48 if a0 != 0\n      : @32 (gas: 15)\n  1588: s1 = i32 [0x2014c]\n  1593: a0 = s1 << 0x20\n  1596: a0 = a0 >> 0x20\n  1599: a0 = a0 + 0x1f\n  1602: a0 = a0 & 0xffffffffffffffe0\n  1605: a1 = a0 + 0xa0\n  1609: a0 = a1 <u a0\n  1612: u64 [sp + 408] = 0\n  1616: u64 [sp + 0x180] = a1\n  1620: u64 [sp + 0x188] = a0\n  1624: a0 = 0 if a0 != 0\n  1626: u64 [sp + 0x190] = a0\n  1630: a0 = 0x40\n  1633: a1 = sp + 0x180\n  1637: ra = 20, jump @9\n      : @33 [@dyn 10] (gas: 3)\n  1642: a0 = 0xa0\n  1646: a1 = s1\n  1648: ra = 22, jump @20\n      : @34 [@dyn 11] (gas: 5)\n  1653: i32 a0 = a0 + 0\n  1655: a1 = s1\n  1657: a2 = 0\n  1659: ecalli 1 // 'call_data_copy'\n  1661: fallthrough\n      : @35 (gas: 1)\n  1662: jump @49 if s1 <u 64\n      : @36 (gas: 7)\n  1667: u64 [sp + 344] = 0\n  1671: u64 [sp + 336] = 0\n  1675: u64 [sp + 320] = 0xa0\n  1681: a0 = sp + 0x160\n  1685: a1 = sp + 0x140\n  1689: u64 [sp + 328] = 0\n  1693: ra = 24, jump @1203\n      : @37 [@dyn 12] (gas: 14)\n  1698: a0 = u64 [sp + 0x178]\n  1702: u64 [sp + 0x18] = a0\n  1705: a0 = u64 [sp + 0x170]\n  1709: u64 [sp + 0x10] = a0\n  1712: a0 = u64 [sp + 0x168]\n  1716: u64 [sp + 0x8] = a0\n  1719: s1 = u64 [sp + 0x160]\n  1723: u64 [sp + 280] = 0\n  1727: u64 [sp + 272] = 0\n  1731: u64 [sp + 256] = 0xc0\n  1737: a0 = sp + 0x120\n  1741: a1 = sp + 0x100\n  1745: u64 [sp + 264] = 0\n  1749: ra = 26, jump @1203\n      : @38 [@dyn 13] (gas: 7)\n  1754: a3 = u64 [sp + 0x8]\n  1757: a2 = u64 [sp + 0x10]\n  1760: a0 = a2 << 0x20\n  1763: a0 = a0 >> 0x20\n  1766: a1 = s1 | a3\n  1769: a0 = a0 | a1\n  1772: jump @50 if a0 == 0\n      : @39 (gas: 16)\n  1776: a0 = u64 [sp + 0x130]\n  1780: u64 [sp + 0x38] = a0\n  1783: a0 = u64 [sp + 0x128]\n  1787: u64 [sp + 0x28] = a0\n  1790: a0 = u64 [sp + 0x120]\n  1794: u64 [sp + 0x30] = a0\n  1797: a0 = 0xffffffff\n  1807: u64 [sp + 0x20] = a0\n  1810: u64 [sp + 0xe0] = s1\n  1814: u64 [sp + 0xe8] = a3\n  1818: u64 [sp + 0xf0] = a2\n  1822: a0 = 0x80\n  1826: a1 = sp + 0xe0\n  1830: a2 = u64 [sp + 0x18]\n  1833: u64 [sp + 0xf8] = a2\n  1837: ra = 28, jump @9\n      : @40 [@dyn 14] (gas: 25)\n  1842: s1 = 0x30160\n  1847: i32 a0 = s1 + 0\n  1849: ecalli 4 // 'caller'\n  1851: a0 = u64 [0x30168]\n  1856: a1 = i32 [0x30170]\n  1861: a2 = u64 [0x30160]\n  1866: a0 = reverse a0\n  1868: a3 = a0 << 0x20\n  1871: a1 = reverse a1\n  1873: a1 = a1 >> 0x20\n  1876: a1 = a1 | a3\n  1879: u64 [sp + 0x18] = a1\n  1882: a0 = a0 >> 0x20\n  1885: a1 = reverse a2\n  1887: s1 = a1 << 0x20\n  1890: a0 = a0 | s1\n  1893: u64 [sp + 0x10] = a0\n  1896: s1 = a1 >> 0x20\n  1899: u64 [sp + 472] = 0\n  1903: u64 [sp + 464] = 0\n  1907: u64 [sp + 456] = 0\n  1911: u64 [sp + 448] = 0x1\n  1916: a0 = sp + 0xc0\n  1920: a1 = sp + 0x1c0\n  1924: ra = 30, jump @11\n      : @41 [@dyn 15] (gas: 18)\n  1929: a0 = u32 [sp + 0xd4]\n  1933: a0 = a0 << 0x20\n  1936: a1 = u64 [sp + 0xd8]\n  1940: a0 = a0 | s1\n  1943: u64 [sp + 504] = 0\n  1947: u64 [sp + 496] = 0\n  1951: u64 [sp + 488] = 0\n  1955: u64 [sp + 480] = 0x1\n  1960: a2 = sp + 0x200\n  1964: u64 [a2 + 0x18] = a1\n  1967: a1 = u64 [sp + 0x10]\n  1970: u64 [a2 + 0x8] = a1\n  1973: a1 = u64 [sp + 0x18]\n  1976: u64 [a2] = a1\n  1978: u64 [a2 + 0x10] = a0\n  1981: a0 = sp + 0x1e0\n  1985: a1 = sp + 0x200\n  1989: ra = 32, jump @12\n      : @42 [@dyn 16] (gas: 10)\n  1994: a0 = u64 [sp + 0x28]\n  1997: a2 = a0 & 0xffffffffffffffff\n  2000: a0 = u64 [sp + 0x30]\n  2003: a1 = a0 & 0xffffffffffffffff\n  2006: a0 = u64 [sp + 0x38]\n  2009: s1 = u64 [sp + 0x20]\n  2012: s1 = s1 & a0\n  2015: a0 = a1 | s1\n  2018: a0 = a0 | a2\n  2021: jump @45 if a0 == 0\n      : @43 (gas: 12)\n  2024: a0 = 0xffffffff00000000\n  2034: u64 [sp + 0x38] = a0\n  2037: a0 = sp + 0x200\n  2041: u64 [a0 + 56] = 0\n  2044: u64 [a0 + 48] = 0\n  2047: u64 [a0 + 40] = 0\n  2050: u64 [a0 + 32] = 0\n  2053: a0 = sp + 0xa0\n  2057: u64 [sp + 0x30] = a1\n  2060: a1 = sp + 0x220\n  2064: u64 [sp + 0x28] = a2\n  2067: ra = 34, jump @11\n      : @44 [@dyn 17] (gas: 20)\n  2072: a0 = u64 [sp + 0xb8]\n  2076: a1 = u64 [sp + 0xb0]\n  2080: a0 = a0 & 0xffffffffffffffff\n  2083: a2 = u64 [sp + 0x38]\n  2086: a1 = a1 & a2\n  2089: a1 = a1 | s1\n  2092: a3 = sp + 0x200\n  2096: u64 [a3 + 88] = 0\n  2099: u64 [a3 + 80] = 0\n  2102: u64 [a3 + 72] = 0\n  2105: u64 [a3 + 64] = 0\n  2108: a2 = u64 [sp + 0x28]\n  2111: u64 [a3 + 0x68] = a2\n  2114: a2 = u64 [sp + 0x30]\n  2117: u64 [a3 + 0x60] = a2\n  2120: u64 [a3 + 0x78] = a0\n  2123: u64 [a3 + 0x70] = a1\n  2126: a0 = sp + 0x240\n  2130: a1 = sp + 0x260\n  2134: ra = 36, jump @12\n      : @45 [@dyn 18] (gas: 3)\n  2139: a0 = sp + 0x80\n  2143: a1 = 0x40\n  2146: ra = 38, jump @7\n      : @46 [@dyn 19] (gas: 12)\n  2151: a0 = u64 [sp + 0x98]\n  2155: a1 = u64 [sp + 0x90]\n  2159: a2 = u64 [sp + 0x88]\n  2163: s1 = u64 [sp + 0x80]\n  2167: a0 = a0 | a2\n  2170: a2 = s1 | a1\n  2173: a2 = a2 | a0\n  2176: a2 = a2 >> 0x20\n  2179: a0 = a0 | a1\n  2182: a0 = a0 << 0x20\n  2185: a0 = a0 | a2\n  2188: jump @54 if a0 == 0\n      : @47 (gas: 1)\n  2191: trap\n      : @48 (gas: 4)\n  2192: a1 = 0x20160\n  2197: i32 a1 = a1 + 0\n  2199: a0 = 0x1\n  2202: jump @59\n      : @49 (gas: 4)\n  2205: a1 = 0x20160\n  2210: i32 a1 = a1 + 0\n  2212: a0 = 0x1\n  2215: jump @59\n      : @50 (gas: 8)\n  2218: u64 [sp + 80] = 0\n  2221: u64 [sp + 72] = 0\n  2224: u64 [sp + 64] = 0\n  2227: a0 = 0x14bcf5c800000000\n  2237: a1 = sp + 0x40\n  2240: u64 [sp + 0x58] = a0\n  2243: a0 = 0\n  2245: ra = 40, jump @9\n      : @51 [@dyn 20] (gas: 2)\n  2250: a1 = i32 [0x20150]\n  2255: jump @53 if a1 >u 31\n      : @52 (gas: 2)\n  2259: u32 [0x20150] = 0x20\n  2265: fallthrough\n      : @53 (gas: 6)\n  2266: a1 = 0x20160\n  2271: i32 a1 = a1 + 0\n  2273: a0 = 0x1\n  2276: a2 = 0x4\n  2279: ecalli 14 // 'seal_return'\n  2281: fallthrough\n      : @54 (gas: 3)\n  2282: a0 = s1\n  2284: a1 = 0\n  2286: ra = 42, jump @20\n      : @55 [@dyn 21] (gas: 7)\n  2291: i32 a0 = a0 + 0\n  2293: a1 = 0\n  2295: a2 = 0\n  2297: ecalli 1 // 'call_data_copy'\n  2299: a0 = sp + 0x60\n  2302: a1 = 0x80\n  2306: ra = 44, jump @7\n      : @56 [@dyn 22] (gas: 9)\n  2311: a0 = u64 [sp + 0x78]\n  2314: a2 = u64 [sp + 0x70]\n  2317: a3 = u64 [sp + 0x68]\n  2320: a4 = u64 [sp + 0x60]\n  2323: u64 [0x30198] = a0\n  2328: u64 [0x30190] = a2\n  2333: u64 [0x30188] = a3\n  2338: u64 [0x30180] = a4\n  2343: jump @5\n      : @57 (gas: 3)\n  2346: a0 = s1\n  2348: a1 = 0\n  2350: ra = 46, jump @20\n      : @58 [@dyn 23] (gas: 6)\n  2355: i32 a1 = a0 + 0\n  2357: a0 = 0\n  2359: a2 = 0\n  2361: ra = 0x30\n  2364: ecalli 14 // 'seal_return'\n  2366: jump @60\n      : @59 (gas: 4)\n  2368: a2 = 0\n  2370: ra = 0x30\n  2373: ecalli 14 // 'seal_return'\n  2375: fallthrough\n      : @60 [@dyn 24] (gas: 11)\n  2376: sp = sp + 0xfffffffffffffe10\n  2380: u64 [sp + 0x1e8] = ra\n  2384: u64 [sp + 0x1e0] = s0\n  2388: u64 [sp + 0x1d8] = s1\n  2392: s0 = sp + 0x1f0\n  2396: sp = sp + 0xffffffffffffd2d0\n  2400: sp = sp & 0xffffffffffffffe0\n  2403: s1 = sp\n  2405: t0 = 0x32\n  2408: a2 = s1 + 0x2078\n  2412: fallthrough\n      : @61 [@dyn 25] (gas: 7)\n  2413: u64 [a2 + 992] = 0\n  2417: u64 [a2 + 984] = 0\n  2421: u64 [a2 + 968] = 0x80\n  2427: a0 = 0x40\n  2430: a1 = s1 + 0x2440\n  2434: u64 [a2 + 976] = 0\n  2438: ra = 52, jump @9\n      : @62 [@dyn 26] (gas: 4)\n  2443: a0 = 0x2014c\n  2448: u64 [s1 + 0xf8] = a0\n  2452: a0 = i32 [0x2014c]\n  2457: jump @64 if a0 >=u 4\n      : @63 (gas: 1)\n  2461: jump @1180\n      : @64 (gas: 16)\n  2464: a0 = sp + 0xffffffffffffffe0\n  2467: a0 = a0 & 0xffffffffffffffe0\n  2470: sp = a0\n  2472: u64 [a0 + 24] = 0\n  2475: u64 [a0 + 16] = 0\n  2478: u64 [a0 + 8] = 0\n  2481: u64 [s1 + 0xf0] = a0\n  2485: u64 [a0 + 0] = 0\n  2487: a0 = s1 + 0x2000\n  2491: i32 a0 = a0 + 0x460\n  2495: a1 = 0\n  2497: ra = 0x36\n  2500: ecalli 2 // 'call_data_load'\n  2502: t0 = 0x38\n  2505: a3 = s1 + 0x2078\n  2509: jump @66\n      : @65 [@dyn 27] (gas: 3)\n  2511: t0 = 0x38\n  2514: a3 = s1 + 0x2078\n  2518: fallthrough\n      : @66 [@dyn 28] (gas: 2)\n  2519: a0 = i32 [a3 + 0x404]\n  2523: jump @68 if a0 != 2376452955\n      : @67 (gas: 1)\n  2530: jump @300\n      : @68 (gas: 1)\n  2533: jump @126 if a0 == 2573362740\n      : @69 (gas: 2)\n  2541: a2 = s1 + 0x2878\n  2545: jump @71 if a0 != 2822282762\n      : @70 (gas: 1)\n  2552: jump @391\n      : @71 (gas: 1)\n  2555: jump @224 if a0 == 3504541104\n      : @72 (gas: 1)\n  2563: jump @161 if a0 == 3506802265\n      : @73 (gas: 1)\n  2571: jump @75 if a0 != 3675214841\n      : @74 (gas: 1)\n  2578: jump @454\n      : @75 (gas: 1)\n  2581: jump @77 if a0 != 3916516871\n      : @76 (gas: 1)\n  2588: jump @251\n      : @77 (gas: 1)\n  2591: jump @79 if a0 != 248271711\n      : @78 (gas: 1)\n  2598: jump @495\n      : @79 (gas: 1)\n  2601: jump @81 if a0 != 573237126\n      : @80 (gas: 1)\n  2608: jump @322\n      : @81 (gas: 1)\n  2611: jump @83 if a0 != 832302164\n      : @82 (gas: 1)\n  2618: jump @423\n      : @83 (gas: 1)\n  2621: jump @85 if a0 != 969217301\n      : @84 (gas: 1)\n  2628: jump @363\n      : @85 (gas: 1)\n  2631: jump @202 if a0 == 1221342904\n      : @86 (gas: 1)\n  2639: jump @88 if a0 != 1251080110\n      : @87 (gas: 1)\n  2646: jump @311\n      : @88 (gas: 1)\n  2649: jump @90 if a0 != 1287362804\n      : @89 (gas: 1)\n  2656: jump @288\n      : @90 (gas: 1)\n  2659: jump @92 if a0 == 1326608131\n      : @91 (gas: 1)\n  2666: jump @350\n      : @92 (gas: 12)\n  2669: u64 [a3 + 1824] = 0\n  2673: u64 [a3 + 1816] = 0\n  2677: u64 [a3 + 1808] = 0\n  2681: u64 [a3 + 1800] = 0\n  2685: a0 = s1 + 0x2000\n  2689: i32 a0 = a0 + 0x780\n  2693: ra = 0x3a\n  2696: ecalli 17 // 'value_transferred'\n  2698: a3 = s1 + 0x2078\n  2702: a4 = a3 + 0x700\n  2706: t0 = 0x3c\n  2709: jump @1475\n      : @93 [@dyn 29] (gas: 3)\n  2713: a3 = s1 + 0x2078\n  2717: a4 = a3 + 0x700\n  2721: t0 = 60, jump @1475\n      : @94 [@dyn 30] (gas: 1)\n  2727: jump @96 if a0 == 0\n      : @95 (gas: 1)\n  2730: jump @832\n      : @96 (gas: 3)\n  2733: a0 = u64 [s1 + 0xf8]\n  2737: a0 = i32 [a0]\n  2739: jump @98 if a0 >u 99\n      : @97 (gas: 1)\n  2743: jump @833\n      : @98 (gas: 5)\n  2746: a0 = s1 + 0x2000\n  2750: i32 a0 = a0 + 0x7a0\n  2754: a1 = 0x4\n  2757: ecalli 2 // 'call_data_load'\n  2759: fallthrough\n      : @99 (gas: 12)\n  2760: a2 = s1 + 0x2078\n  2764: a4 = a2 + 0x700\n  2768: a0 = u64 [a4 + 0x40]\n  2771: a1 = u64 [a4 + 0x38]\n  2774: a3 = u64 [a4 + 0x28]\n  2777: a2 = u64 [a4 + 0x30]\n  2780: a0 = a0 | a1\n  2783: u64 [s1 + 0xf8] = a3\n  2787: a1 = a3 <u 0x100\n  2791: a1 = 0 if a2 != 0\n  2793: a1 = 0 if a0 != 0\n  2795: jump @101 if a1 != 0\n      : @100 (gas: 1)\n  2798: jump @834\n      : @101 (gas: 5)\n  2801: a0 = s1 + 0x2000\n  2805: i32 a0 = a0 + 0x7c0\n  2809: a1 = 0x24\n  2812: ecalli 2 // 'call_data_load'\n  2814: fallthrough\n      : @102 (gas: 12)\n  2815: a2 = s1 + 0x2078\n  2819: a4 = a2 + 0x700\n  2823: a0 = u64 [a4 + 0x60]\n  2826: a1 = u64 [a4 + 0x58]\n  2829: a3 = u64 [a4 + 0x48]\n  2832: a2 = u64 [a4 + 0x50]\n  2835: a0 = a0 | a1\n  2838: u64 [s1 + 0xe8] = a3\n  2842: a1 = a3 <u 0x100\n  2846: a1 = 0 if a2 != 0\n  2848: a1 = 0 if a0 != 0\n  2850: jump @104 if a1 != 0\n      : @103 (gas: 1)\n  2853: jump @835\n      : @104 (gas: 5)\n  2856: a0 = s1 + 0x2000\n  2860: i32 a0 = a0 + 0x7e0\n  2864: a1 = 0x44\n  2867: ecalli 2 // 'call_data_load'\n  2869: fallthrough\n      : @105 (gas: 10)\n  2870: a0 = s1 + 0x2078\n  2874: t0 = u64 [a0 + 0x780]\n  2878: a1 = a0 + 0x700\n  2882: a4 = u64 [a1 + 0x78]\n  2885: a5 = u64 [a1 + 0x70]\n  2888: a3 = u64 [a1 + 0x68]\n  2891: a0 = a5 | t0\n  2894: a1 = a3 | a4\n  2897: a0 = a0 | a1\n  2900: jump @107 if a0 != 0\n      : @106 (gas: 1)\n  2903: jump @836\n      : @107 (gas: 3)\n  2906: a1 = u8 [s1 + 0xf8]\n  2910: a2 = u8 [s1 + 0xe8]\n  2914: jump @109 if a1 != a2\n      : @108 (gas: 1)\n  2917: jump @840\n      : @109 (gas: 6)\n  2920: u64 [s1 + 0xf8] = a3\n  2924: u64 [s1 + 0xd0] = a5\n  2928: u64 [s1 + 0xd8] = a4\n  2932: u64 [s1 + 0xe0] = t0\n  2936: u64 [s1 + 0xc0] = a1\n  2940: jump @111 if a1 <=u 1\n      : @110 (gas: 1)\n  2944: jump @828\n      : @111 (gas: 1)\n  2947: jump @113 if a2 <u 3\n      : @112 (gas: 1)\n  2951: jump @828\n      : @113 (gas: 10)\n  2954: u64 [s1 + 0x80] = a2\n  2958: a0 = 0x30160\n  2963: u64 [s1 + 0xc8] = a0\n  2967: i32 a0 = a0 + 0\n  2969: u64 [s1 + 0xa0] = a0\n  2973: ra = 0x3e\n  2976: ecalli 4 // 'caller'\n  2978: a2 = u64 [s1 + 0xc8]\n  2982: t0 = 0x40\n  2985: jump @1445\n      : @114 [@dyn 31] (gas: 2)\n  2989: a2 = u64 [s1 + 0xc8]\n  2993: t0 = 64, jump @1445\n      : @115 [@dyn 32] (gas: 9)\n  2999: u64 [a2 + 1088] = 0\n  3003: a4 = a2 + 0x400\n  3007: u64 [a4 + 0x38] = a1\n  3010: u64 [a4 + 0x30] = a0\n  3013: a1 = s1 + 0x7ff\n  3017: a1 = a1 + 0x4a1\n  3021: u64 [a4 + 0x28] = a3\n  3024: a0 = 0\n  3026: ra = 66, jump @9\n      : @116 [@dyn 33] (gas: 11)\n  3031: a1 = s1 + 0x7ff\n  3035: a1 = a1 + 0x79\n  3038: u64 [a1 + 1056] = 0\n  3042: u64 [a1 + 1048] = 0\n  3046: u64 [a1 + 1032] = 0x2\n  3051: a2 = a1\n  3053: a0 = 0x20\n  3056: a1 = s1 + 0x7ff\n  3060: a1 = a1 + 0x481\n  3064: u64 [a2 + 1040] = 0\n  3068: ra = 68, jump @9\n      : @117 [@dyn 34] (gas: 7)\n  3073: a0 = sp + 0xffffffffffffffe0\n  3076: a0 = a0 & 0xffffffffffffffe0\n  3079: u64 [s1 + 0xf0] = a0\n  3083: sp = a0\n  3085: a2 = 0x20150\n  3090: a0 = i32 [0x20150]\n  3095: jump @119 if a0 >u 63\n      : @118 (gas: 2)\n  3099: u32 [0x20150] = 0x40\n  3105: fallthrough\n      : @119 (gas: 12)\n  3106: u64 [s1 + 0x78] = a2\n  3109: a0 = sp + 0xffffffffffffffe0\n  3112: a2 = a0 & 0xffffffffffffffe0\n  3115: u64 [s1 + 0xb8] = a2\n  3119: sp = a2\n  3121: a0 = 0x20160\n  3126: i32 a0 = a0 + 0\n  3128: i32 a2 = a2 + 0\n  3130: a1 = 0x40\n  3133: u64 [s1 + 0x88] = a0\n  3137: ecalli 9 // 'hash_keccak_256'\n  3139: fallthrough\n      : @120 (gas: 22)\n  3140: a2 = u64 [s1 + 0xb8]\n  3144: a0 = u64 [a2 + 0x18]\n  3147: a1 = u64 [a2 + 0x10]\n  3150: a4 = u64 [a2 + 0x8]\n  3153: a3 = u64 [a2]\n  3155: a2 = reverse a0\n  3157: a5 = reverse a1\n  3159: a4 = reverse a4\n  3161: a3 = reverse a3\n  3163: a1 = u64 [s1 + 0xf0]\n  3167: u64 [a1 + 0x18] = a3\n  3170: u64 [a1 + 0x10] = a4\n  3173: u64 [a1 + 0x8] = a5\n  3176: u64 [a1] = a2\n  3178: t1 = a2 + 0x2\n  3181: a0 = u64 [s1 + 0xc0]\n  3185: u64 [s1 + 0xb8] = a4\n  3189: u64 [s1 + 0x98] = a3\n  3193: u64 [s1 + 0xb0] = a5\n  3197: u64 [s1 + 0x90] = t1\n  3201: u64 [s1 + 0xa8] = a2\n  3205: jump @122 if a0 == 0\n      : @121 (gas: 1)\n  3208: jump @580\n      : @122 (gas: 3)\n  3211: a0 = s1 + 0x7ff\n  3215: a0 = a0 + 0x421\n  3219: ra = 70, jump @11\n      : @123 [@dyn 35] (gas: 25)\n  3224: a0 = s1 + 0x7ff\n  3228: a0 = a0 + 0x79\n  3231: ra = u64 [a0 + 0x3b0]\n  3235: t0 = u64 [a0 + 0x3c0]\n  3239: a1 = u64 [a0 + 0x3a8]\n  3243: a5 = u64 [a0 + 0x3b8]\n  3247: t2 = u64 [s1 + 0xd0]\n  3251: a0 = ra ^ t2\n  3254: a4 = ra <u t2\n  3257: u64 [s1 + 0x70] = a1\n  3260: a2 = u64 [s1 + 0xf8]\n  3264: a1 = a1 <u a2\n  3267: u64 [s1 + 0x68] = a1\n  3270: a4 = a1 if a0 == 0\n  3273: t1 = u64 [s1 + 0xd8]\n  3277: a1 = a5 <u t1\n  3280: a2 = u64 [s1 + 0xe0]\n  3284: a3 = t0 ^ a2\n  3287: a0 = t0 <u a2\n  3290: u64 [s1 + 0x60] = a1\n  3293: a0 = a1 if a3 == 0\n  3296: a1 = a5 ^ t1\n  3299: a1 = a1 | a3\n  3302: a0 = a4 if a1 == 0\n  3305: jump @125 if a0 == 0\n      : @124 (gas: 1)\n  3308: jump @901\n      : @125 (gas: 23)\n  3311: a0 = a5 - t1\n  3314: a1 = t0 - a2\n  3317: a2 = u64 [s1 + 0x60]\n  3320: a1 = a1 - a2\n  3323: a2 = a0 <u a4\n  3326: a1 = a1 - a2\n  3329: a0 = a0 - a4\n  3332: a2 = ra - t2\n  3335: a3 = u64 [s1 + 0x68]\n  3338: a2 = a2 - a3\n  3341: a3 = u64 [s1 + 0x70]\n  3344: a4 = u64 [s1 + 0xf8]\n  3348: a3 = a3 - a4\n  3351: a4 = s1 + 0x2078\n  3355: a5 = a4 + 0x700\n  3359: u64 [a5 + 0xa8] = a3\n  3363: u64 [a5 + 0xb0] = a2\n  3367: u64 [a5 + 0xb8] = a0\n  3371: u64 [a5 + 0xc0] = a1\n  3375: a1 = s1 + 0x2820\n  3379: a0 = u64 [s1 + 0xf0]\n  3383: ra = 0x20c\n  3387: jump @12\n      : @126 (gas: 10)\n  3390: a0 = s1 + 0x2878\n  3394: u64 [a0 + 160] = 0\n  3398: u64 [a0 + 152] = 0\n  3402: u64 [a0 + 144] = 0\n  3406: u64 [a0 + 136] = 0\n  3410: a0 = s1 + 0x3000\n  3414: i32 a0 = a0 + 0xfffffffffffff900\n  3418: ecalli 17 // 'value_transferred'\n  3420: a3 = s1 + 0x2878\n  3424: fallthrough\n      : @127 (gas: 8)\n  3425: a0 = u64 [a3 + 0x98]\n  3429: a1 = u64 [a3 + 0xa0]\n  3433: a2 = u64 [a3 + 0x90]\n  3437: a3 = u64 [a3 + 0x88]\n  3441: a1 = a1 | a2\n  3444: a0 = a0 | a3\n  3447: a0 = a0 | a1\n  3450: jump @129 if a0 == 0\n      : @128 (gas: 1)\n  3453: jump @844\n      : @129 (gas: 3)\n  3456: a0 = u64 [s1 + 0xf8]\n  3460: a0 = i32 [a0]\n  3462: jump @131 if a0 >u 67\n      : @130 (gas: 1)\n  3466: jump @845\n      : @131 (gas: 5)\n  3469: a0 = s1 + 0x7ff\n  3473: a0 = a0 + 0x781\n  3477: ra = 0x48\n  3480: t0 = 0x4de\n  3484: jump @1493\n      : @132 [@dyn 36] (gas: 14)\n  3488: a0 = s1 + 0x7ff\n  3492: a0 = a0 + 0x79\n  3495: a2 = a0 + 0x700\n  3499: a1 = u64 [a2 + 0x18]\n  3502: u64 [s1 + 0xc8] = a1\n  3506: a1 = u64 [a2 + 0x10]\n  3509: u64 [s1 + 0xd8] = a1\n  3513: a0 = u64 [a2 + 0x8]\n  3516: u64 [s1 + 0xd0] = a0\n  3520: a0 = s1 + 0x3000\n  3524: i32 a0 = a0 + 0xfffffffffffff920\n  3528: a1 = 0x24\n  3531: ecalli 2 // 'call_data_load'\n  3533: fallthrough\n      : @133 (gas: 17)\n  3534: a0 = s1 + 0x2878\n  3538: a4 = u64 [a0 + 0xc0]\n  3542: a3 = u64 [a0 + 0xb8]\n  3546: a2 = u64 [a0 + 0xb0]\n  3550: a1 = u64 [a0 + 0xa8]\n  3554: u64 [s1 + 0xf0] = a2\n  3558: u64 [s1 + 0xe0] = a4\n  3562: a0 = a2 | a4\n  3565: u64 [s1 + 0xf8] = a1\n  3569: a1 = a1 | a3\n  3572: a1 = a1 | a0\n  3575: a1 = a1 >> 0x20\n  3578: u64 [s1 + 0xe8] = a3\n  3582: a0 = a0 | a3\n  3585: a0 = a0 << 0x20\n  3588: a0 = a0 | a1\n  3591: jump @135 if a0 == 0\n      : @134 (gas: 1)\n  3594: jump @846\n      : @135 (gas: 16)\n  3597: a0 = u64 [s1 + 0xc8]\n  3601: a0 = a0 << 0x20\n  3604: a0 = a0 >> 0x20\n  3607: a2 = s1 + 0x7ff\n  3611: a2 = a2 + 0x79\n  3614: u64 [a2 + 1792] = 0\n  3618: a1 = u64 [s1 + 0xd0]\n  3622: a3 = a2 + 0x600\n  3626: u64 [a3 + 0xe8] = a1\n  3630: a1 = u64 [s1 + 0xd8]\n  3634: u64 [a3 + 0xf0] = a1\n  3638: a1 = s1 + 0x7ff\n  3642: a1 = a1 + 0x761\n  3646: u64 [a3 + 0xf8] = a0\n  3650: a0 = 0\n  3652: ra = 74, jump @9\n      : @136 [@dyn 37] (gas: 11)\n  3657: a1 = s1 + 0x7ff\n  3661: a1 = a1 + 0x79\n  3664: u64 [a1 + 1760] = 0\n  3668: u64 [a1 + 1752] = 0\n  3672: u64 [a1 + 1736] = 0x3\n  3677: a2 = a1\n  3679: a0 = 0x20\n  3682: a1 = s1 + 0x7ff\n  3686: a1 = a1 + 0x741\n  3690: u64 [a2 + 1744] = 0\n  3694: ra = 76, jump @9\n      : @137 [@dyn 38] (gas: 3)\n  3699: a1 = 0x20150\n  3704: a0 = i32 [0x20150]\n  3709: jump @139 if a0 >u 63\n      : @138 (gas: 2)\n  3713: u32 [0x20150] = 0x40\n  3719: fallthrough\n      : @139 (gas: 14)\n  3720: a0 = sp + 0xffffffffffffffe0\n  3723: a2 = a0 & 0xffffffffffffffe0\n  3726: u64 [s1 + 0xc8] = a2\n  3730: sp = a2\n  3732: a0 = 0x20160\n  3737: i32 a0 = a0 + 0\n  3739: i32 a2 = a2 + 0\n  3741: u64 [s1 + 0xd8] = a1\n  3745: a1 = 0x40\n  3748: u64 [s1 + 0xd0] = a0\n  3752: ra = 0x4e\n  3755: ecalli 9 // 'hash_keccak_256'\n  3757: t0 = 0x50\n  3760: jump @1486\n      : @140 [@dyn 39] (gas: 1)\n  3764: t0 = 80, jump @1486\n      : @141 [@dyn 40] (gas: 22)\n  3770: u64 [s1 + 0xb0] = a0\n  3774: a0 = reverse a3\n  3776: u64 [s1 + 0xa8] = a0\n  3780: a0 = sp + 0xffffffffffffffe0\n  3783: a0 = a0 & 0xffffffffffffffe0\n  3786: u64 [s1 + 0xc8] = a0\n  3790: sp = a0\n  3792: a2 = s1 + 0x7ff\n  3796: a2 = a2 + 0x79\n  3799: a0 = u64 [s1 + 0xe0]\n  3803: a3 = a2 + 0x600\n  3807: u64 [a3 + 0xc0] = a0\n  3811: a0 = u64 [s1 + 0xe8]\n  3815: u64 [a3 + 0xb8] = a0\n  3819: a0 = u64 [s1 + 0xf0]\n  3823: u64 [a3 + 0xb0] = a0\n  3827: a1 = s1 + 0x7ff\n  3831: a1 = a1 + 0x721\n  3835: a0 = u64 [s1 + 0xf8]\n  3839: u64 [a3 + 0xa8] = a0\n  3843: a0 = 0\n  3845: ra = 82, jump @9\n      : @142 [@dyn 41] (gas: 16)\n  3850: a1 = s1 + 0x7ff\n  3854: a1 = a1 + 0x79\n  3857: a0 = u64 [s1 + 0xa8]\n  3861: a2 = a1 + 0x600\n  3865: u64 [a2 + 0xa0] = a0\n  3869: a0 = u64 [s1 + 0xb0]\n  3873: u64 [a2 + 0x98] = a0\n  3877: a0 = u64 [s1 + 0xb8]\n  3881: u64 [a2 + 0x90] = a0\n  3885: a3 = a1\n  3887: a0 = 0x20\n  3890: a1 = s1 + 0x7ff\n  3894: a1 = a1 + 0x701\n  3898: a2 = u64 [s1 + 0xc0]\n  3902: u64 [a3 + 0x688] = a2\n  3906: ra = 84, jump @9\n      : @143 [@dyn 42] (gas: 3)\n  3911: a1 = u64 [s1 + 0xd8]\n  3915: a0 = i32 [a1]\n  3917: jump @145 if a0 >u 63\n      : @144 (gas: 2)\n  3921: u32 [a1 + 0] = 0x40\n  3924: fallthrough\n      : @145 (gas: 11)\n  3925: a0 = sp + 0xffffffffffffffe0\n  3928: a0 = a0 & 0xffffffffffffffe0\n  3931: u64 [s1 + 0xf8] = a0\n  3935: sp = a0\n  3937: i32 a2 = a0 + 0\n  3939: a1 = 0x40\n  3942: a0 = u64 [s1 + 0xd0]\n  3946: ra = 0x56\n  3949: ecalli 9 // 'hash_keccak_256'\n  3951: t0 = 0x58\n  3954: jump @1501\n      : @146 [@dyn 43] (gas: 1)\n  3958: t0 = 88, jump @1501\n      : @147 [@dyn 44] (gas: 15)\n  3964: u64 [s1 + 0xe0] = a5\n  3968: a4 = reverse a1\n  3970: u64 [s1 + 0xe8] = a4\n  3974: a2 = reverse a2\n  3976: u64 [s1 + 0xf0] = a2\n  3980: a0 = reverse a3\n  3982: u64 [s1 + 0xf8] = a0\n  3986: a1 = u64 [s1 + 0xc8]\n  3990: u64 [a1 + 0x18] = a0\n  3993: u64 [a1 + 0x10] = a2\n  3996: u64 [a1 + 0x8] = a4\n  3999: u64 [a1] = a5\n  4001: a0 = s1 + 0x7ff\n  4005: a0 = a0 + 0x6e1\n  4009: ra = 90, jump @11\n      : @148 [@dyn 45] (gas: 33)\n  4014: a1 = s1 + 0x7ff\n  4018: a1 = a1 + 0x79\n  4021: a2 = a1 + 0x600\n  4025: a0 = u64 [a2 + 0x80]\n  4029: u64 [s1 + 0xd8] = a0\n  4033: a0 = u64 [a2 + 0x78]\n  4036: u64 [s1 + 0xd0] = a0\n  4040: a0 = u64 [a2 + 0x70]\n  4043: a5 = a1\n  4045: u64 [s1 + 0xc8] = a0\n  4049: a0 = u64 [s1 + 0xe0]\n  4053: a0 = a0 + 0x1\n  4056: a1 = a0 <u 0x1\n  4059: a2 = u64 [s1 + 0xe8]\n  4063: a1 = a1 + a2\n  4066: a2 = a0 | a1\n  4069: a2 = a2 <u 0x1\n  4072: a3 = u64 [s1 + 0xf0]\n  4076: a2 = a2 + a3\n  4079: a3 = a2 <u a3\n  4082: a4 = u64 [s1 + 0xf8]\n  4086: a3 = a3 + a4\n  4089: a4 = u64 [a5 + 0x668]\n  4093: u64 [s1 + 0xf8] = a4\n  4097: a4 = s1 + 0x2878\n  4101: u64 [a4 + 0xd0] = a1\n  4105: u64 [a4 + 0xc8] = a0\n  4109: u64 [a4 + 0xd8] = a2\n  4113: u64 [a4 + 0xe0] = a3\n  4117: a0 = s1 + 0x7ff\n  4121: a0 = a0 + 0x6c1\n  4125: a1 = s1 + 0x2940\n  4129: ra = 92, jump @11\n      : @149 [@dyn 46] (gas: 10)\n  4134: a1 = s1 + 0x7ff\n  4138: a1 = a1 + 0x79\n  4141: a0 = u64 [a1 + 0x650]\n  4145: u64 [s1 + 0xc0] = a0\n  4149: a0 = u64 [a1 + 0x648]\n  4153: u64 [s1 + 0xe0] = a0\n  4157: a0 = s1 + 0x7ff\n  4161: a0 = a0 + 0x6a1\n  4165: a1 = 0x40\n  4168: ra = 94, jump @7\n      : @150 [@dyn 47] (gas: 15)\n  4173: a2 = s1 + 0x7ff\n  4177: a2 = a2 + 0x79\n  4180: t0 = u64 [a2 + 0x640]\n  4184: a1 = a2 + 0x600\n  4188: a5 = u64 [a1 + 0x38]\n  4191: a4 = u64 [a1 + 0x30]\n  4194: a0 = u64 [a1 + 0x28]\n  4197: a3 = a4 | t0\n  4200: a1 = a0 | a5\n  4203: a1 = a1 | a3\n  4206: a1 = a1 >> 0x20\n  4209: a3 = a3 | a5\n  4212: a3 = a3 << 0x20\n  4215: a1 = a1 | a3\n  4218: jump @152 if a1 == 0\n      : @151 (gas: 1)\n  4221: jump @827\n      : @152 (gas: 15)\n  4224: a1 = u64 [s1 + 0xf8]\n  4228: u64 [a2 + 0x608] = a1\n  4232: a1 = u64 [s1 + 0xc8]\n  4236: u64 [a2 + 0x610] = a1\n  4240: a1 = u64 [s1 + 0xd0]\n  4244: u64 [a2 + 0x618] = a1\n  4248: a1 = s1 + 0x7ff\n  4252: a1 = a1 + 0x681\n  4256: a3 = u64 [s1 + 0xd8]\n  4260: u64 [a2 + 0x620] = a3\n  4264: u64 [s1 + 0xf0] = a0\n  4268: u64 [s1 + 0xe8] = a4\n  4272: u64 [s1 + 0xd8] = t0\n  4276: u64 [s1 + 0xf8] = a5\n  4280: ra = 96, jump @9\n      : @153 [@dyn 48] (gas: 11)\n  4285: a2 = u64 [s1 + 0xe8]\n  4289: a1 = u64 [s1 + 0xf0]\n  4293: a0 = u64 [s1 + 0xf8]\n  4297: a3 = u64 [s1 + 0xd8]\n  4301: a3 = a3 | a0\n  4304: a4 = 0x100000000\n  4314: a0 = 0xffffffe0\n  4324: a0 = a1 <u a0\n  4327: a0 = 0 if a2 != 0\n  4329: a0 = 0 if a3 != 0\n  4331: jump @155 if a0 != 0\n      : @154 (gas: 1)\n  4334: jump @827\n      : @155 (gas: 14)\n  4337: i32 a0 = a1 + 0x20\n  4340: a1 = s1 + 0x7ff\n  4344: a1 = a1 + 0x79\n  4347: u64 [s1 + 0xf8] = a3\n  4351: a3 = a1\n  4353: u64 [a1 + 1536] = 0\n  4357: u64 [a1 + 1528] = 0\n  4361: a1 = u64 [s1 + 0xe0]\n  4365: u64 [a3 + 0x5e8] = a1\n  4369: a1 = s1 + 0x7ff\n  4373: a1 = a1 + 0x661\n  4377: u64 [a3 + 1520] = 0\n  4381: u64 [s1 + 0xe0] = a4\n  4385: ra = 98, jump @9\n      : @156 [@dyn 49] (gas: 9)\n  4390: a2 = u64 [s1 + 0xf0]\n  4394: a0 = u64 [s1 + 0xe0]\n  4398: a0 = a0 + 0xffffffffffffffc0\n  4401: a0 = a2 <u a0\n  4404: a1 = u64 [s1 + 0xe8]\n  4408: a0 = 0 if a1 != 0\n  4410: a1 = u64 [s1 + 0xf8]\n  4414: a0 = 0 if a1 != 0\n  4416: jump @158 if a0 != 0\n      : @157 (gas: 1)\n  4419: jump @827\n      : @158 (gas: 12)\n  4422: a0 = u8 [s1 + 0xc0]\n  4426: a1 = a0 >u 0\n  4428: i32 a0 = a2 + 0x40\n  4431: a3 = s1 + 0x7ff\n  4435: a3 = a3 + 0x79\n  4438: u64 [a3 + 1504] = 0\n  4442: u64 [a3 + 1496] = 0\n  4446: u64 [a3 + 0x5c8] = a1\n  4450: a1 = s1 + 0x7ff\n  4454: a1 = a1 + 0x641\n  4458: u64 [a3 + 1488] = 0\n  4462: ra = 100, jump @9\n      : @159 [@dyn 50] (gas: 3)\n  4467: a1 = 0x60\n  4470: a0 = u64 [s1 + 0xf0]\n  4474: ra = 102, jump @20\n      : @160 [@dyn 51] (gas: 5)\n  4479: i32 a1 = a0 + 0\n  4481: a2 = 0x60\n  4484: a0 = 0\n  4486: ecalli 14 // 'seal_return'\n  4488: jump @454\n      : @161 (gas: 10)\n  4491: u64 [a2 + 704] = 0\n  4495: u64 [a2 + 696] = 0\n  4499: u64 [a2 + 688] = 0\n  4503: u64 [a2 + 680] = 0\n  4507: a0 = s1 + 0x3000\n  4511: i32 a0 = a0 + 0xfffffffffffffb20\n  4515: ra = 0x68\n  4518: ecalli 17 // 'value_transferred'\n  4520: t0 = 0x6a\n  4523: jump @1498\n      : @162 [@dyn 52] (gas: 1)\n  4527: t0 = 106, jump @1498\n      : @163 [@dyn 53] (gas: 1)\n  4533: t0 = 108, jump @1500\n      : @164 [@dyn 54] (gas: 1)\n  4539: jump @166 if a0 == 0\n      : @165 (gas: 1)\n  4542: jump @847\n      : @166 (gas: 3)\n  4545: a0 = u64 [s1 + 0xf8]\n  4549: a0 = i32 [a0]\n  4551: jump @168 if a0 >u 3\n      : @167 (gas: 1)\n  4555: jump @848\n      : @168 (gas: 9)\n  4558: a0 = 0x30160\n  4563: u64 [s1 + 0xf8] = a0\n  4567: i32 a0 = a0 + 0\n  4569: u64 [s1 + 0xe0] = a0\n  4573: ra = 0x6e\n  4576: ecalli 4 // 'caller'\n  4578: a2 = u64 [s1 + 0xf8]\n  4582: t0 = 0x70\n  4585: jump @1446\n      : @169 [@dyn 55] (gas: 2)\n  4589: a2 = u64 [s1 + 0xf8]\n  4593: t0 = 112, jump @1446\n      : @170 [@dyn 56] (gas: 8)\n  4599: u64 [a2 + 1376] = 0\n  4603: a4 = a2 + 0x500\n  4607: u64 [a4 + 0x58] = a1\n  4610: u64 [a4 + 0x50] = a0\n  4613: a1 = s1 + 0x1dc0\n  4617: u64 [a4 + 0x48] = a3\n  4620: a0 = 0\n  4622: ra = 114, jump @9\n      : @171 [@dyn 57] (gas: 3)\n  4627: t0 = 0x74\n  4630: a1 = s1 + 0x1878\n  4634: fallthrough\n      : @172 [@dyn 58] (gas: 8)\n  4635: u64 [a1 + 1344] = 0\n  4639: u64 [a1 + 1336] = 0\n  4643: u64 [a1 + 1320] = 0x2\n  4648: a2 = a1\n  4650: a0 = 0x20\n  4653: a1 = s1 + 0x1da0\n  4657: u64 [a2 + 1328] = 0\n  4661: ra = 118, jump @9\n      : @173 [@dyn 59] (gas: 2)\n  4666: a1 = i32 [0x20150]\n  4671: jump @175 if a1 >u 63\n      : @174 (gas: 2)\n  4675: u32 [0x20150] = 0x40\n  4681: fallthrough\n      : @175 (gas: 27)\n  4682: a0 = sp + 0xffffffffffffffe0\n  4685: a2 = a0 & 0xffffffffffffffe0\n  4688: u64 [s1 + 0xe8] = a2\n  4692: sp = a2\n  4694: a0 = 0x20160\n  4699: i32 a0 = a0 + 0\n  4701: i32 a2 = a2 + 0\n  4703: a1 = 0x40\n  4706: u64 [s1 + 0xc0] = a0\n  4710: ecalli 9 // 'hash_keccak_256'\n  4712: a1 = u64 [s1 + 0xe8]\n  4716: a0 = u64 [a1 + 0x18]\n  4719: u64 [s1 + 0xd8] = a0\n  4723: a0 = u64 [a1 + 0x10]\n  4726: u64 [s1 + 0xd0] = a0\n  4730: a0 = u64 [a1 + 0x8]\n  4733: u64 [s1 + 0xc8] = a0\n  4737: a0 = u64 [a1]\n  4739: u64 [s1 + 0xe8] = a0\n  4743: a0 = s1 + 0x2878\n  4747: u64 [a0 + 736] = 0\n  4751: u64 [a0 + 728] = 0\n  4755: u64 [a0 + 720] = 0\n  4759: u64 [a0 + 712] = 0\n  4763: a0 = s1 + 0x1d80\n  4767: a1 = s1 + 0x2b40\n  4771: ra = 120, jump @11\n      : @176 [@dyn 60] (gas: 10)\n  4776: a0 = s1 + 0x1878\n  4780: a1 = a0 + 0x500\n  4784: a3 = u64 [a1 + 0x18]\n  4787: a4 = u64 [a1 + 0x10]\n  4790: a2 = u64 [a1 + 0x8]\n  4793: a0 = a3 << 0x20\n  4796: a0 = a0 >> 0x20\n  4799: a1 = a2 | a4\n  4802: a0 = a0 | a1\n  4805: jump @178 if a0 == 0\n      : @177 (gas: 1)\n  4808: jump @527\n      : @178 (gas: 5)\n  4811: u64 [s1 + 192] = 0\n  4815: u64 [s1 + 168] = 0\n  4819: u64 [s1 + 176] = 0\n  4823: u64 [s1 + 184] = 0\n  4827: fallthrough\n      : @179 (gas: 26)\n  4828: a0 = u64 [s1 + 0xe8]\n  4832: t0 = reverse a0\n  4834: a1 = u64 [s1 + 0xc8]\n  4838: a0 = reverse a1\n  4840: a2 = u64 [s1 + 0xd0]\n  4844: a2 = reverse a2\n  4846: a3 = u64 [s1 + 0xd8]\n  4850: a3 = reverse a3\n  4852: a4 = sp + 0xffffffffffffffe0\n  4855: a1 = a4 & 0xffffffffffffffe0\n  4858: sp = a1\n  4860: a4 = a3 + 0x2\n  4863: a3 = a4 <u a3\n  4866: a5 = a2 + a3\n  4869: a2 = a5 <u a2\n  4872: a2 = a3 if a3 == 0\n  4875: a2 = a2 + a0\n  4878: a0 = a2 <u a0\n  4881: a0 = a0 + t0\n  4884: u64 [a1 + 0x8] = a5\n  4887: u64 [a1] = a4\n  4889: u64 [a1 + 0x10] = a2\n  4892: u64 [a1 + 0x18] = a0\n  4895: a0 = s1 + 0x1a40\n  4899: u64 [s1 + 0xe8] = a1\n  4903: ra = 122, jump @11\n      : @180 [@dyn 61] (gas: 10)\n  4908: a0 = s1 + 0x1878\n  4912: a1 = a0 + 0x100\n  4916: a5 = u64 [a1 + 0xe0]\n  4920: a4 = u64 [a1 + 0xd8]\n  4924: a3 = u64 [a1 + 0xd0]\n  4928: a2 = u64 [a1 + 0xc8]\n  4932: a0 = a3 | a5\n  4935: a1 = a2 | a4\n  4938: a0 = a0 | a1\n  4941: jump @193 if a0 == 0\n      : @181 (gas: 7)\n  4945: u64 [s1 + 0xa0] = a5\n  4949: u64 [s1 + 0xc8] = a4\n  4953: u64 [s1 + 0xd0] = a3\n  4957: u64 [s1 + 0xd8] = a2\n  4961: a0 = u64 [s1 + 0xe8]\n  4965: a1 = u64 [s1 + 0xf0]\n  4969: ra = 124, jump @12\n      : @182 [@dyn 62] (gas: 3)\n  4974: a0 = s1 + 0x1a20\n  4978: a1 = 0x40\n  4981: ra = 126, jump @7\n      : @183 [@dyn 63] (gas: 7)\n  4986: a3 = s1 + 0x1878\n  4990: a5 = a3 + 0x100\n  4994: a4 = u64 [a5 + 0xc0]\n  4998: a1 = u64 [a5 + 0xb8]\n  5002: a2 = u64 [a5 + 0xb0]\n  5006: a0 = u64 [a5 + 0xa8]\n  5010: t0 = 128, jump @1476\n      : @184 [@dyn 64] (gas: 1)\n  5017: jump @186 if a1 == 0\n      : @185 (gas: 1)\n  5020: jump @827\n      : @186 (gas: 12)\n  5023: a1 = u64 [s1 + 0xd8]\n  5027: a4 = a3 + 0x100\n  5031: u64 [a4 + 0x88] = a1\n  5035: a1 = u64 [s1 + 0xd0]\n  5039: u64 [a4 + 0x90] = a1\n  5043: a1 = u64 [s1 + 0xc8]\n  5047: u64 [a4 + 0x98] = a1\n  5051: a1 = s1 + 0x1a00\n  5055: a2 = u64 [s1 + 0xa0]\n  5059: u64 [a4 + 0xa0] = a2\n  5063: u64 [s1 + 0xf0] = a0\n  5067: ra = 130, jump @9\n      : @187 [@dyn 65] (gas: 6)\n  5073: a0 = u64 [s1 + 0xe0]\n  5077: ra = 0x84\n  5081: ecalli 4 // 'caller'\n  5083: a2 = u64 [s1 + 0xf8]\n  5087: t0 = 0x86\n  5091: jump @1453\n      : @188 [@dyn 66] (gas: 2)\n  5094: a2 = u64 [s1 + 0xf8]\n  5098: t0 = 134, jump @1453\n      : @189 [@dyn 67] (gas: 30)\n  5104: a5 = s1 + 0x1878\n  5108: u64 [a5 + 288] = 0\n  5112: u64 [a5 + 280] = 0\n  5116: u64 [a5 + 264] = 0x2\n  5121: u64 [a5 + 296] = 0x1\n  5126: a3 = u64 [0x20020]\n  5131: a4 = u64 [0x20028]\n  5136: u64 [a5 + 272] = 0\n  5140: u64 [a5 + 320] = 0\n  5144: u64 [a5 + 0x180] = a3\n  5148: u64 [a5 + 0x178] = a4\n  5152: a3 = u64 [0x20030]\n  5157: a4 = u64 [0x20038]\n  5162: u64 [a5 + 312] = 0\n  5166: u64 [a5 + 304] = 0\n  5170: u64 [a5 + 0x170] = a3\n  5174: a3 = a5 + 0x100\n  5178: u64 [a3 + 0x68] = a4\n  5181: u64 [a3 + 0x58] = a2\n  5184: u64 [a3 + 0x50] = a1\n  5187: u64 [a3 + 0x48] = a0\n  5190: a0 = a5\n  5192: a1 = 0x20\n  5195: a2 = s1 + 0x19e0\n  5199: a3 = s1 + 0x19c0\n  5203: a4 = s1 + 0x19a0\n  5207: a5 = s1 + 0x1980\n  5211: u64 [a0 + 352] = 0\n  5215: a0 = u64 [s1 + 0xf0]\n  5219: ra = 136, jump @17\n      : @190 [@dyn 68] (gas: 22)\n  5225: a0 = u64 [s1 + 0xa0]\n  5229: a1 = s1 + 0x1878\n  5233: u64 [a1 + 0xc0] = a0\n  5237: a0 = u64 [s1 + 0xc8]\n  5241: u64 [a1 + 0xb8] = a0\n  5245: a0 = u64 [s1 + 0xd0]\n  5249: u64 [a1 + 0xb0] = a0\n  5253: a0 = u64 [s1 + 0xd8]\n  5257: u64 [a1 + 0xa8] = a0\n  5261: a0 = u64 [s1 + 0xb8]\n  5265: u64 [a1 + 0xe0] = a0\n  5269: a0 = u64 [s1 + 0xb0]\n  5273: u64 [a1 + 0xd8] = a0\n  5277: a0 = u64 [s1 + 0xa8]\n  5281: u64 [a1 + 0xd0] = a0\n  5285: a4 = a1\n  5287: a0 = s1 + 0x1960\n  5291: a1 = s1 + 0x1940\n  5295: a2 = s1 + 0x1920\n  5299: a3 = u64 [s1 + 0xc0]\n  5303: u64 [a4 + 0xc8] = a3\n  5307: ra = 138, jump @1238\n      : @191 [@dyn 69] (gas: 3)\n  5313: t0 = 0x8c\n  5317: a1 = s1 + 0x1878\n  5321: fallthrough\n      : @192 [@dyn 70] (gas: 9)\n  5322: a0 = u64 [a1 + 0x100]\n  5326: u64 [s1 + 0xb8] = a0\n  5330: a0 = u64 [a1 + 0xf8]\n  5334: u64 [s1 + 0xb0] = a0\n  5338: a0 = u64 [a1 + 0xf0]\n  5342: u64 [s1 + 0xa8] = a0\n  5346: a0 = u64 [a1 + 0xe8]\n  5350: u64 [s1 + 0xc0] = a0\n  5354: fallthrough\n      : @193 (gas: 8)\n  5355: a0 = u64 [s1 + 0xc0]\n  5359: a1 = u64 [s1 + 0xb0]\n  5363: a0 = a0 | a1\n  5366: a1 = u64 [s1 + 0xb8]\n  5370: a2 = u64 [s1 + 0xa8]\n  5374: a1 = a1 | a2\n  5377: a0 = a0 | a1\n  5380: jump @197 if a0 == 0\n      : @194 (gas: 6)\n  5383: a0 = u64 [s1 + 0xe0]\n  5387: ra = 0x8e\n  5391: ecalli 4 // 'caller'\n  5393: a2 = u64 [s1 + 0xf8]\n  5397: t0 = 0x90\n  5401: jump @1446\n      : @195 [@dyn 71] (gas: 2)\n  5404: a2 = u64 [s1 + 0xf8]\n  5408: t0 = 144, jump @1446\n      : @196 [@dyn 72] (gas: 15)\n  5414: a4 = u64 [s1 + 0xb8]\n  5418: u64 [a2 + 0x80] = a4\n  5422: a4 = u64 [s1 + 0xb0]\n  5426: u64 [a2 + 0x78] = a4\n  5429: a4 = u64 [s1 + 0xa8]\n  5433: u64 [a2 + 0x70] = a4\n  5436: a4 = u64 [s1 + 0xc0]\n  5440: u64 [a2 + 0x68] = a4\n  5443: u64 [a2 + 160] = 0\n  5447: u64 [a2 + 0x98] = a1\n  5451: u64 [a2 + 0x90] = a0\n  5455: a0 = s1 + 0x1900\n  5459: a1 = s1 + 0x18e0\n  5463: u64 [a2 + 0x88] = a3\n  5467: ra = 146, jump @1264\n      : @197 [@dyn 73] (gas: 3)\n  5473: a0 = s1 + 0x18c0\n  5477: a1 = 0x40\n  5480: ra = 148, jump @7\n      : @198 [@dyn 74] (gas: 6)\n  5486: a3 = s1 + 0x1878\n  5490: a0 = u64 [a3 + 0x60]\n  5493: a1 = u64 [a3 + 0x58]\n  5496: a2 = u64 [a3 + 0x50]\n  5499: a4 = u64 [a3 + 0x48]\n  5502: t0 = 150, jump @1479\n      : @199 [@dyn 75] (gas: 1)\n  5509: jump @201 if a0 == 0\n      : @200 (gas: 1)\n  5512: jump @827\n      : @201 (gas: 13)\n  5515: a0 = u64 [s1 + 0xc0]\n  5519: u64 [a3 + 0x28] = a0\n  5522: a0 = u64 [s1 + 0xa8]\n  5526: u64 [a3 + 0x30] = a0\n  5529: a0 = u64 [s1 + 0xb0]\n  5533: u64 [a3 + 0x38] = a0\n  5536: a1 = s1 + 0x18a0\n  5540: a0 = u64 [s1 + 0xb8]\n  5544: u64 [a3 + 0x40] = a0\n  5547: a0 = a4\n  5549: u64 [s1 + 0xf8] = a4\n  5553: ra = 0x196\n  5557: jump @9\n      : @202 (gas: 10)\n  5560: u64 [a3 + 1504] = 0\n  5564: u64 [a3 + 1496] = 0\n  5568: u64 [a3 + 1488] = 0\n  5572: u64 [a3 + 1480] = 0\n  5576: a0 = s1 + 0x2000\n  5580: i32 a0 = a0 + 0x640\n  5584: ra = 0x98\n  5588: ecalli 17 // 'value_transferred'\n  5590: t0 = 0x9a\n  5594: jump @1483\n      : @203 [@dyn 76] (gas: 1)\n  5598: t0 = 154, jump @1483\n      : @204 [@dyn 77] (gas: 1)\n  5605: t0 = 156, jump @1482\n      : @205 [@dyn 78] (gas: 1)\n  5612: jump @207 if a0 == 0\n      : @206 (gas: 1)\n  5615: jump @849\n      : @207 (gas: 3)\n  5618: a0 = u64 [s1 + 0xf8]\n  5622: a0 = i32 [a0]\n  5624: jump @209 if a0 >u 35\n      : @208 (gas: 1)\n  5628: jump @850\n      : @209 (gas: 6)\n  5631: a0 = s1 + 0x2000\n  5635: i32 a0 = a0 + 0x660\n  5639: a1 = 0x4\n  5642: ecalli 2 // 'call_data_load'\n  5644: a3 = s1 + 0x2078\n  5648: fallthrough\n      : @210 (gas: 7)\n  5649: a0 = u64 [a3 + 0x600]\n  5653: a1 = u64 [a3 + 0x5f8]\n  5657: a2 = u64 [a3 + 0x5f0]\n  5661: a0 = a0 | a1\n  5664: a1 = a2 <u 0x1\n  5667: a1 = 0 if a0 != 0\n  5669: jump @212 if a1 != 0\n      : @211 (gas: 1)\n  5672: jump @851\n      : @212 (gas: 6)\n  5675: a0 = u64 [a3 + 0x5e8]\n  5679: u64 [s1 + 0x38] = a0\n  5682: a0 = s1 + 0x2000\n  5686: i32 a0 = a0 + 0x680\n  5690: ecalli 10 // 'now'\n  5692: fallthrough\n      : @213 (gas: 49)\n  5693: a0 = s1 + 0x2078\n  5697: t2 = u64 [a0 + 0x620]\n  5701: a3 = u64 [a0 + 0x618]\n  5705: u64 [s1 + 0xb0] = a3\n  5709: t0 = u64 [a0 + 0x610]\n  5713: ra = u64 [a0 + 0x608]\n  5717: a0 = clz t2\n  5719: a1 = clz a3\n  5721: a2 = a1 + 0x40\n  5724: a2 = a0 if t2 != 0\n  5727: a0 = clz t0\n  5729: a1 = clz ra\n  5731: a1 = a1 + 0x40\n  5734: a1 = a0 if t0 != 0\n  5737: a0 = a1 + 0x80\n  5741: a3 = a3 | t2\n  5744: a2 = a0 if a3 == 0\n  5747: a5 = a0 <u a1\n  5750: a5 = 0 if a3 != 0\n  5752: a4 = a5 >u 0\n  5754: a0 = a2 <u 0xf0\n  5758: a3 = a0 ^ 0x1\n  5761: a4 = a3 if a5 == 0\n  5764: a0 = a4 <u 0x1\n  5767: a0 = a0 + 0xffffffffffffffff\n  5770: a1 = -a4\n  5772: a5 = -a5\n  5774: a3 = a5 - a3\n  5777: t1 = 0xef - a2\n  5781: u64 [s1 + 0xf8] = a1\n  5785: a5 = a1 >u 0\n  5787: a1 = a0 >u 0\n  5789: a1 = a5 if a0 == 0\n  5792: a5 = t1 <u 0x100\n  5796: a5 = a5 ^ 0x1\n  5799: a2 = a3 >u 0\n  5801: a5 = a2 if a3 != 0\n  5804: a5 = a1 if a4 != 0\n  5807: u64 [s1 + 0xa0] = t2\n  5811: u64 [s1 + 0xb8] = t0\n  5815: a1 = t0 | t2\n  5818: t2 = u64 [s1 + 0xb0]\n  5822: a2 = ra | t2\n  5825: a1 = a1 | a2\n  5828: a1 = a1 <u 0x1\n  5831: a1 = a1 | a5\n  5834: a4 = ra\n  5836: a4 = 0 if a1 != 0\n  5838: jump @215 if a1 == 0\n      : @214 (gas: 1)\n  5841: jump @613\n      : @215 (gas: 6)\n  5844: a1 = t1 ^ 0xff\n  5848: a5 = u64 [s1 + 0xf8]\n  5852: a1 = a1 | a5\n  5855: a2 = a3 | a0\n  5858: a1 = a1 | a2\n  5861: jump @217 if a1 != 0\n      : @216 (gas: 1)\n  5864: jump @613\n      : @217 (gas: 20)\n  5867: t0 = ra\n  5869: a2 = t1 + 0x1\n  5872: u64 [s1 + 0xf0] = a2\n  5876: a1 = a2 <u 0x1\n  5879: a1 = a1 + a3\n  5882: u64 [s1 + 0xe0] = a1\n  5886: a1 = a1 | a2\n  5889: a1 = a1 <u 0x1\n  5892: a1 = a1 + a5\n  5895: u64 [s1 + 0xd0] = a1\n  5899: a1 = a1 <u a5\n  5902: a0 = a0 + a1\n  5905: u64 [s1 + 0xd8] = a0\n  5909: a1 = 0xff - t1\n  5913: u64 [s1 + 0xc8] = a1\n  5917: a2 = 0x80 - a1\n  5921: a0 = ra\n  5923: u64 [s1 + 0xa8] = t0\n  5927: a1 = u64 [s1 + 0xb8]\n  5931: ra = 158, jump @1504\n      : @218 [@dyn 79] (gas: 6)\n  5938: u64 [s1 + 0xc0] = a0\n  5942: u64 [s1 + 0xf8] = a1\n  5946: a0 = u64 [s1 + 0xb0]\n  5950: a1 = u64 [s1 + 0xa0]\n  5954: a2 = u64 [s1 + 0xc8]\n  5958: ra = 160, jump @1509\n      : @219 [@dyn 80] (gas: 7)\n  5965: u64 [s1 + 0x90] = a0\n  5969: u64 [s1 + 0x88] = a1\n  5973: a0 = u64 [s1 + 0xc8]\n  5977: a2 = a0 + 0xffffffffffffff80\n  5980: a0 = u64 [s1 + 0xa8]\n  5984: a1 = u64 [s1 + 0xb8]\n  5988: ra = 162, jump @1509\n      : @220 [@dyn 81] (gas: 8)\n  5995: u64 [s1 + 0x80] = a0\n  5999: u64 [s1 + 0x78] = a1\n  6002: a2 = u64 [s1 + 0xc8]\n  6006: a0 = a2 <u 0x80\n  6010: u64 [s1 + 0x98] = a0\n  6014: a0 = u64 [s1 + 0xa8]\n  6018: a1 = u64 [s1 + 0xb8]\n  6022: ra = 164, jump @1509\n      : @221 [@dyn 82] (gas: 11)\n  6029: a4 = u64 [s1 + 0x98]\n  6033: t0 = u64 [s1 + 0xd0]\n  6037: a5 = u64 [s1 + 0xd8]\n  6041: a2 = u64 [s1 + 0xe0]\n  6045: a5 = a5 | a2\n  6048: a3 = u64 [s1 + 0xf0]\n  6052: a3 = a3 | t0\n  6055: a3 = a3 | a5\n  6058: a0 = 0 if a4 == 0\n  6060: u64 [s1 + 0xe8] = a0\n  6064: jump @223 if a3 == 0\n      : @222 (gas: 1)\n  6067: jump @604\n      : @223 (gas: 2)\n  6070: a4 = 0\n  6072: jump @612\n      : @224 (gas: 3)\n  6075: a0 = u64 [s1 + 0xf8]\n  6079: a0 = i32 [a0]\n  6081: jump @226 if a0 >u 3\n      : @225 (gas: 1)\n  6085: jump @852\n      : @226 (gas: 10)\n  6088: u64 [a2 + 576] = 0\n  6092: u64 [a2 + 568] = 0\n  6096: u64 [a2 + 560] = 0\n  6100: u64 [a2 + 552] = 0\n  6104: a0 = s1 + 0x3000\n  6108: i32 a0 = a0 + 0xfffffffffffffaa0\n  6112: ra = 0xa6\n  6116: ecalli 17 // 'value_transferred'\n  6118: t0 = 0xa8\n  6122: jump @1498\n      : @227 [@dyn 83] (gas: 1)\n  6126: t0 = 168, jump @1498\n      : @228 [@dyn 84] (gas: 1)\n  6133: t0 = 170, jump @1494\n      : @229 [@dyn 85] (gas: 1)\n  6140: jump @231 if a0 != 0\n      : @230 (gas: 1)\n  6143: jump @853\n      : @231 (gas: 9)\n  6146: a0 = 0x30160\n  6151: u64 [s1 + 0xf0] = a0\n  6155: i32 a0 = a0 + 0\n  6157: u64 [s1 + 0xc8] = a0\n  6161: ra = 0xac\n  6165: ecalli 4 // 'caller'\n  6167: a2 = u64 [s1 + 0xf0]\n  6171: t0 = 0xae\n  6175: jump @1446\n      : @232 [@dyn 86] (gas: 2)\n  6178: a2 = u64 [s1 + 0xf0]\n  6182: t0 = 174, jump @1446\n      : @233 [@dyn 87] (gas: 7)\n  6188: u64 [a2 + 32] = 0\n  6191: u64 [a2 + 0x18] = a1\n  6194: u64 [a2 + 0x10] = a0\n  6197: a1 = s1 + 0x1880\n  6201: u64 [a2 + 0x8] = a3\n  6204: a0 = 0\n  6206: ra = 176, jump @9\n      : @234 [@dyn 88] (gas: 3)\n  6212: t0 = 0xb2\n  6216: a1 = s1 + 0x1878\n  6220: fallthrough\n      : @235 [@dyn 89] (gas: 8)\n  6221: u64 [a1 + 0] = 0\n  6223: u64 [a1 + 4294967288] = 0\n  6226: u64 [a1 + 4294967272] = 0x2\n  6230: a2 = a1\n  6232: a0 = 0x20\n  6235: a1 = s1 + 0x1860\n  6239: u64 [a2 + 4294967280] = 0\n  6242: ra = 180, jump @9\n      : @236 [@dyn 90] (gas: 6)\n  6248: a0 = sp + 0xffffffffffffffe0\n  6251: a0 = a0 & 0xffffffffffffffe0\n  6254: u64 [s1 + 0xf8] = a0\n  6258: sp = a0\n  6260: a1 = i32 [0x20150]\n  6265: jump @238 if a1 >u 63\n      : @237 (gas: 2)\n  6269: u32 [0x20150] = 0x40\n  6275: fallthrough\n      : @238 (gas: 45)\n  6276: a0 = sp + 0xffffffffffffffe0\n  6279: a2 = a0 & 0xffffffffffffffe0\n  6282: u64 [s1 + 0xe8] = a2\n  6286: sp = a2\n  6288: a0 = 0x20160\n  6293: i32 a0 = a0 + 0\n  6295: i32 a2 = a2 + 0\n  6297: a1 = 0x40\n  6300: u64 [s1 + 0xc0] = a0\n  6304: ecalli 9 // 'hash_keccak_256'\n  6306: a3 = u64 [s1 + 0xe8]\n  6310: a0 = u64 [a3 + 0x18]\n  6313: a1 = u64 [a3 + 0x10]\n  6316: a2 = u64 [a3 + 0x8]\n  6319: a3 = u64 [a3]\n  6321: a0 = reverse a0\n  6323: a1 = reverse a1\n  6325: a2 = reverse a2\n  6327: a3 = reverse a3\n  6329: a4 = u64 [s1 + 0xf8]\n  6333: u64 [a4 + 0x18] = a3\n  6336: u64 [a4 + 0x10] = a2\n  6339: u64 [a4 + 0x8] = a1\n  6342: u64 [a4] = a0\n  6344: a0 = s1 + 0x2878\n  6348: u64 [a0 + 608] = 0\n  6352: u64 [a0 + 600] = 0\n  6356: u64 [a0 + 592] = 0\n  6360: u64 [a0 + 584] = 0\n  6364: a0 = s1 + 0x3000\n  6368: i32 a0 = a0 + 0xfffffffffffffac0\n  6372: ecalli 17 // 'value_transferred'\n  6374: a0 = s1 + 0x2878\n  6378: a2 = a0 + 0x200\n  6382: a1 = u64 [a2 + 0x48]\n  6385: u64 [s1 + 0xe8] = a1\n  6389: a1 = u64 [a2 + 0x50]\n  6392: u64 [s1 + 0xe0] = a1\n  6396: a1 = u64 [a2 + 0x58]\n  6399: u64 [s1 + 0xd8] = a1\n  6403: a0 = u64 [a2 + 0x60]\n  6406: u64 [s1 + 0xd0] = a0\n  6410: a0 = s1 + 0x1840\n  6414: a1 = u64 [s1 + 0xf8]\n  6418: ra = 182, jump @11\n      : @239 [@dyn 91] (gas: 22)\n  6424: a4 = s1 + 0x1078\n  6428: a3 = u64 [a4 + 0x7c8]\n  6432: a0 = u64 [a4 + 0x7d0]\n  6436: a1 = u64 [a4 + 0x7d8]\n  6440: a2 = u64 [a4 + 0x7e0]\n  6444: a5 = u64 [s1 + 0xd0]\n  6448: u64 [a4 + 0x780] = a5\n  6452: a5 = u64 [s1 + 0xd8]\n  6456: u64 [a4 + 0x778] = a5\n  6460: a5 = u64 [s1 + 0xe0]\n  6464: u64 [a4 + 0x770] = a5\n  6468: a5 = u64 [s1 + 0xe8]\n  6472: u64 [a4 + 0x768] = a5\n  6476: a5 = a4 + 0x700\n  6480: u64 [a5 + 0xa0] = a2\n  6484: u64 [a5 + 0x98] = a1\n  6488: u64 [a5 + 0x90] = a0\n  6492: a0 = s1 + 0x1820\n  6496: a1 = s1 + 0x1800\n  6500: a2 = s1 + 0x17e0\n  6504: u64 [a5 + 0x88] = a3\n  6508: ra = 184, jump @1238\n      : @240 [@dyn 92] (gas: 15)\n  6514: a3 = s1 + 0x1078\n  6518: a4 = a3 + 0x700\n  6522: a0 = u64 [a4 + 0xc0]\n  6526: a1 = u64 [a4 + 0xb8]\n  6530: a2 = u64 [a4 + 0xb0]\n  6534: a3 = u64 [a4 + 0xa8]\n  6538: a4 = s1 + 0x2878\n  6542: a5 = a4 + 0x200\n  6546: u64 [a5 + 0x80] = a0\n  6550: u64 [a5 + 0x78] = a1\n  6553: u64 [a5 + 0x70] = a2\n  6556: u64 [a5 + 0x68] = a3\n  6559: a1 = s1 + 0x2ae0\n  6563: a0 = u64 [s1 + 0xf8]\n  6567: ra = 186, jump @12\n      : @241 [@dyn 93] (gas: 3)\n  6573: a0 = s1 + 0x17c0\n  6577: a1 = 0x40\n  6580: ra = 188, jump @7\n      : @242 [@dyn 94] (gas: 20)\n  6586: a0 = s1 + 0x1078\n  6590: a2 = a0 + 0x700\n  6594: a1 = u64 [a2 + 0x60]\n  6597: u64 [s1 + 0xe8] = a1\n  6601: a1 = u64 [a2 + 0x58]\n  6604: u64 [s1 + 0xe0] = a1\n  6608: a1 = u64 [a2 + 0x50]\n  6611: u64 [s1 + 0xd8] = a1\n  6615: a0 = u64 [a2 + 0x48]\n  6618: u64 [s1 + 0xf8] = a0\n  6622: a0 = s1 + 0x2878\n  6626: u64 [a0 + 672] = 0\n  6630: u64 [a0 + 664] = 0\n  6634: u64 [a0 + 656] = 0\n  6638: u64 [a0 + 648] = 0\n  6642: a0 = s1 + 0x3000\n  6646: i32 a0 = a0 + 0xfffffffffffffb00\n  6650: ra = 0xbe\n  6654: ecalli 17 // 'value_transferred'\n  6656: fallthrough\n      : @243 [@dyn 95] (gas: 13)\n  6657: a0 = u64 [s1 + 0xe8]\n  6661: a1 = u64 [s1 + 0xd8]\n  6665: a0 = a0 | a1\n  6668: a1 = u64 [s1 + 0xf8]\n  6672: a5 = a1\n  6674: a2 = u64 [s1 + 0xe0]\n  6678: a1 = a1 | a2\n  6681: a1 = a1 | a0\n  6684: a1 = a1 >> 0x20\n  6687: a0 = a0 | a2\n  6690: a0 = a0 << 0x20\n  6693: a0 = a0 | a1\n  6696: jump @245 if a0 == 0\n      : @244 (gas: 1)\n  6699: jump @827\n      : @245 (gas: 1)\n  6702: t0 = 192, jump @1498\n      : @246 [@dyn 96] (gas: 13)\n  6708: a0 = u64 [a4 + 0x88]\n  6712: a1 = u64 [a4 + 0x90]\n  6716: a2 = u64 [a4 + 0x98]\n  6720: a3 = u64 [a4 + 0xa0]\n  6724: a4 = s1 + 0x1078\n  6728: u64 [a4 + 0x740] = a3\n  6732: a3 = a4 + 0x700\n  6736: u64 [a3 + 0x38] = a2\n  6739: u64 [a3 + 0x30] = a1\n  6742: a1 = s1 + 0x17a0\n  6746: u64 [a3 + 0x28] = a0\n  6749: a0 = a5\n  6751: ra = 194, jump @9\n      : @247 [@dyn 97] (gas: 6)\n  6757: a0 = u64 [s1 + 0xc8]\n  6761: ra = 0xc4\n  6765: ecalli 4 // 'caller'\n  6767: a2 = u64 [s1 + 0xf0]\n  6771: t0 = 0xc6\n  6775: jump @1464\n      : @248 [@dyn 98] (gas: 2)\n  6778: a2 = u64 [s1 + 0xf0]\n  6782: t0 = 198, jump @1464\n      : @249 [@dyn 99] (gas: 49)\n  6788: t0 = a1 | a0\n  6791: a3 = a3 >> 0x20\n  6794: a2 = reverse a2\n  6796: a1 = a2 << 0x20\n  6799: a1 = a1 | a3\n  6802: a2 = a2 >> 0x20\n  6805: a3 = u64 [0x20040]\n  6810: a0 = s1 + 0x1078\n  6814: u64 [a0 + 0x720] = a3\n  6818: a3 = u64 [0x20048]\n  6823: a4 = u64 [0x20050]\n  6828: a5 = u64 [0x20058]\n  6833: u64 [a0 + 0x718] = a3\n  6837: u64 [a0 + 0x710] = a4\n  6841: u64 [a0 + 1792] = 0\n  6845: u64 [a0 + 0x708] = a5\n  6849: u64 [a0 + 0x6f8] = a2\n  6853: u64 [a0 + 0x6f0] = a1\n  6857: a1 = 0x20\n  6860: a2 = s1 + 0x1780\n  6864: a3 = s1 + 0x1760\n  6868: u64 [a0 + 0x6e8] = t0\n  6872: a0 = u64 [s1 + 0xf8]\n  6876: ra = 0xc8\n  6880: sp = sp + 0xffffffffffffff60\n  6884: u64 [sp + 0x98] = ra\n  6888: u64 [sp + 0x90] = s0\n  6892: u64 [sp + 0x88] = s1\n  6896: s0 = sp + 0xa0\n  6900: sp = sp & 0xffffffffffffffe0\n  6903: a4 = u64 [a3]\n  6905: u64 [sp + 0x38] = a4\n  6908: a4 = u64 [a3 + 0x8]\n  6911: u64 [sp + 0x30] = a4\n  6914: a4 = u64 [a3 + 0x10]\n  6917: u64 [sp + 0x28] = a4\n  6920: a3 = u64 [a3 + 0x18]\n  6923: u64 [sp + 0x20] = a3\n  6926: a3 = u64 [a2]\n  6928: u64 [sp + 0x18] = a3\n  6931: a3 = u64 [a2 + 0x8]\n  6934: u64 [sp + 0x10] = a3\n  6937: a3 = u64 [a2 + 0x10]\n  6940: u64 [sp + 0x8] = a3\n  6943: a2 = u64 [a2 + 0x18]\n  6946: u64 [sp] = a2\n  6948: s1 = a1\n  6950: ra = 0x6\n  6953: jump @20\n      : @250 [@dyn 100] (gas: 3)\n  6956: a0 = 0\n  6958: a1 = u64 [s1 + 0xc0]\n  6962: jump @1183\n      : @251 (gas: 12)\n  6965: u64 [a2 + 1312] = 0\n  6969: u64 [a2 + 1304] = 0\n  6973: u64 [a2 + 1296] = 0\n  6977: u64 [a2 + 1288] = 0\n  6981: a0 = s1 + 0x3000\n  6985: i32 a0 = a0 + 0xfffffffffffffd80\n  6989: ra = 0xca\n  6993: ecalli 17 // 'value_transferred'\n  6995: a3 = s1 + 0x2878\n  6999: a4 = a3 + 0x500\n  7003: t0 = 0xcc\n  7007: jump @1475\n      : @252 [@dyn 101] (gas: 3)\n  7010: a3 = s1 + 0x2878\n  7014: a4 = a3 + 0x500\n  7018: t0 = 204, jump @1475\n      : @253 [@dyn 102] (gas: 1)\n  7024: jump @255 if a0 == 0\n      : @254 (gas: 1)\n  7027: jump @934\n      : @255 (gas: 3)\n  7030: a0 = u64 [s1 + 0xf8]\n  7034: a0 = i32 [a0]\n  7036: jump @257 if a0 >u 35\n      : @256 (gas: 1)\n  7040: jump @934\n      : @257 (gas: 5)\n  7043: a0 = s1 + 0x3000\n  7047: i32 a0 = a0 + 0xfffffffffffffda0\n  7051: a1 = 0x4\n  7054: ecalli 2 // 'call_data_load'\n  7056: fallthrough\n      : @258 (gas: 14)\n  7057: a0 = s1 + 0x2878\n  7061: a5 = a0 + 0x500\n  7065: a1 = u64 [a5 + 0x40]\n  7068: a2 = u64 [a5 + 0x38]\n  7071: a3 = u64 [a5 + 0x30]\n  7074: a4 = u64 [a5 + 0x28]\n  7077: u64 [s1 + 0x58] = a1\n  7080: u64 [s1 + 0x48] = a3\n  7083: a0 = a3 | a1\n  7086: u64 [s1 + 0x50] = a2\n  7089: u64 [s1 + 0x40] = a4\n  7092: a1 = a4 | a2\n  7095: a0 = a0 | a1\n  7098: jump @260 if a0 != 0\n      : @259 (gas: 1)\n  7101: jump @858\n      : @260 (gas: 10)\n  7104: a0 = 0xffffffff\n  7114: u64 [s1 + 0x60] = a0\n  7117: a0 = 0x30160\n  7122: u64 [s1 + 0x80] = a0\n  7126: i32 a0 = a0 + 0\n  7128: u64 [s1 + 0x38] = a0\n  7131: ra = 0xce\n  7135: ecalli 4 // 'caller'\n  7137: t0 = 0xd0\n  7141: jump @1449\n      : @261 [@dyn 103] (gas: 1)\n  7144: t0 = 208, jump @1449\n      : @262 [@dyn 104] (gas: 8)\n  7150: u64 [a2 + 864] = 0\n  7154: a4 = a2 + 0x300\n  7158: u64 [a4 + 0x58] = a1\n  7161: u64 [a4 + 0x50] = a0\n  7164: a1 = s1 + 0x23c0\n  7168: u64 [a4 + 0x48] = a3\n  7171: a0 = 0\n  7173: ra = 210, jump @9\n      : @263 [@dyn 105] (gas: 3)\n  7179: t0 = 0xd4\n  7183: a2 = s1 + 0x2078\n  7187: fallthrough\n      : @264 [@dyn 106] (gas: 7)\n  7188: u64 [a2 + 832] = 0\n  7192: u64 [a2 + 824] = 0\n  7196: u64 [a2 + 808] = 0x4\n  7201: a0 = 0x20\n  7204: a1 = s1 + 0x23a0\n  7208: u64 [a2 + 816] = 0\n  7212: ra = 214, jump @9\n      : @265 [@dyn 107] (gas: 7)\n  7218: a0 = sp + 0xffffffffffffffe0\n  7221: a0 = a0 & 0xffffffffffffffe0\n  7224: u64 [s1 + 0xf8] = a0\n  7228: sp = a0\n  7230: a1 = 0x40\n  7233: a0 = 0\n  7235: ra = 216, jump @20\n      : @266 [@dyn 108] (gas: 1)\n  7241: t0 = 218, jump @1502\n      : @267 [@dyn 109] (gas: 5)\n  7247: ra = 0xdc\n  7251: ecalli 9 // 'hash_keccak_256'\n  7253: a3 = u64 [s1 + 0xf0]\n  7257: t0 = 0xde\n  7261: jump @1469\n      : @268 [@dyn 110] (gas: 2)\n  7264: a3 = u64 [s1 + 0xf0]\n  7268: t0 = 222, jump @1469\n      : @269 [@dyn 111] (gas: 7)\n  7274: a1 = u64 [s1 + 0xf8]\n  7278: u64 [a1 + 0x18] = a3\n  7281: u64 [a1 + 0x10] = a2\n  7284: u64 [a1 + 0x8] = a4\n  7287: u64 [a1] = a0\n  7289: a0 = s1 + 0x2380\n  7293: ra = 224, jump @11\n      : @270 [@dyn 112] (gas: 4)\n  7299: a0 = s1 + 0x2078\n  7303: a2 = u32 [a0 + 0x308]\n  7307: a0 = u64 [s1 + 0x60]\n  7310: jump @272 if a2 != a0\n      : @271 (gas: 1)\n  7313: jump @860\n      : @272 (gas: 11)\n  7316: a1 = a2 + 0x1\n  7319: u64 [s1 + 0x70] = a1\n  7322: a0 = a1 <u 0x1\n  7325: u64 [s1 + 0x68] = a0\n  7328: a0 = a0 | a1\n  7331: a0 = a0 <u 0x1\n  7334: u64 [s1 + 0x78] = a0\n  7337: a0 = s1 + 0x2360\n  7341: u64 [s1 + 0xf0] = a2\n  7345: a1 = u64 [s1 + 0xf8]\n  7349: ra = 226, jump @11\n      : @273 [@dyn 113] (gas: 21)\n  7355: a3 = s1 + 0x2078\n  7359: a0 = u32 [a3 + 0x2ec]\n  7363: a1 = u64 [a3 + 0x2f8]\n  7367: a0 = a0 << 0x20\n  7370: a2 = u64 [a3 + 0x2f0]\n  7374: a3 = u64 [a3 + 0x300]\n  7378: a4 = u64 [s1 + 0x78]\n  7381: a1 = a1 | a4\n  7384: a4 = u64 [s1 + 0x70]\n  7387: a0 = a0 | a4\n  7390: a4 = u64 [s1 + 0x68]\n  7393: a2 = a2 | a4\n  7396: a4 = s1 + 0x2878\n  7400: a5 = a4 + 0x500\n  7404: u64 [a5 + 0x60] = a3\n  7407: u64 [a5 + 0x50] = a2\n  7410: u64 [a5 + 0x48] = a0\n  7413: u64 [a5 + 0x58] = a1\n  7416: a1 = s1 + 0x2dc0\n  7420: a0 = u64 [s1 + 0xf8]\n  7424: ra = 228, jump @12\n      : @274 [@dyn 114] (gas: 2)\n  7430: a1 = u64 [s1 + 0xf0]\n  7434: jump @276 if a1 <=u 254\n      : @275 (gas: 1)\n  7439: jump @863\n      : @276 (gas: 4)\n  7442: a0 = s1 + 0x3000\n  7446: i32 a0 = a0 + 0xfffffffffffffde0\n  7450: ecalli 10 // 'now'\n  7452: fallthrough\n      : @277 (gas: 49)\n  7453: a0 = s1 + 0x2878\n  7457: t2 = u64 [a0 + 0x580]\n  7461: a3 = u64 [a0 + 0x578]\n  7465: u64 [s1 + 0xb8] = a3\n  7469: t0 = u64 [a0 + 0x570]\n  7473: ra = u64 [a0 + 0x568]\n  7477: a0 = clz t2\n  7479: a1 = clz a3\n  7481: a2 = a1 + 0x40\n  7484: a2 = a0 if t2 != 0\n  7487: a0 = clz t0\n  7489: a1 = clz ra\n  7491: a1 = a1 + 0x40\n  7494: a1 = a0 if t0 != 0\n  7497: a0 = a1 + 0x80\n  7501: a3 = a3 | t2\n  7504: a2 = a0 if a3 == 0\n  7507: a5 = a0 <u a1\n  7510: a5 = 0 if a3 != 0\n  7512: a4 = a5 >u 0\n  7514: a0 = a2 <u 0xf0\n  7518: a3 = a0 ^ 0x1\n  7521: a4 = a3 if a5 == 0\n  7524: a0 = a4 <u 0x1\n  7527: a0 = a0 + 0xffffffffffffffff\n  7530: a1 = -a4\n  7532: a5 = -a5\n  7534: a3 = a5 - a3\n  7537: t1 = 0xef - a2\n  7541: u64 [s1 + 0xf8] = a1\n  7545: a5 = a1 >u 0\n  7547: a1 = a0 >u 0\n  7549: a1 = a5 if a0 == 0\n  7552: a5 = t1 <u 0x100\n  7556: a5 = a5 ^ 0x1\n  7559: a2 = a3 >u 0\n  7561: a5 = a2 if a3 != 0\n  7564: a5 = a1 if a4 != 0\n  7567: u64 [s1 + 0xa0] = t2\n  7571: a1 = t0 | t2\n  7574: t2 = t0\n  7576: a4 = u64 [s1 + 0xb8]\n  7580: a2 = ra | a4\n  7583: a1 = a1 | a2\n  7586: a1 = a1 <u 0x1\n  7589: a1 = a1 | a5\n  7592: t0 = ra\n  7594: ra = 0 if a1 != 0\n  7596: jump @279 if a1 == 0\n      : @278 (gas: 1)\n  7599: jump @720\n      : @279 (gas: 6)\n  7602: a1 = t1 ^ 0xff\n  7606: a5 = u64 [s1 + 0xf8]\n  7610: a1 = a1 | a5\n  7613: a2 = a3 | a0\n  7616: a1 = a1 | a2\n  7619: jump @281 if a1 != 0\n      : @280 (gas: 1)\n  7622: jump @720\n      : @281 (gas: 20)\n  7625: a2 = t1 + 0x1\n  7628: u64 [s1 + 0xf0] = a2\n  7632: a1 = a2 <u 0x1\n  7635: a1 = a1 + a3\n  7638: u64 [s1 + 0xe0] = a1\n  7642: a1 = a1 | a2\n  7645: a1 = a1 <u 0x1\n  7648: a1 = a1 + a5\n  7651: u64 [s1 + 0xd0] = a1\n  7655: a1 = a1 <u a5\n  7658: a0 = a0 + a1\n  7661: u64 [s1 + 0xd8] = a0\n  7665: a1 = 0xff - t1\n  7669: u64 [s1 + 0xc8] = a1\n  7673: a2 = 0x80 - a1\n  7677: a0 = t0\n  7679: u64 [s1 + 0xb0] = t0\n  7683: a1 = t2\n  7685: u64 [s1 + 0xa8] = t2\n  7689: ra = 230, jump @1504\n      : @282 [@dyn 115] (gas: 6)\n  7695: u64 [s1 + 0xc0] = a0\n  7699: u64 [s1 + 0xf8] = a1\n  7703: a0 = u64 [s1 + 0xb8]\n  7707: a1 = u64 [s1 + 0xa0]\n  7711: a2 = u64 [s1 + 0xc8]\n  7715: ra = 232, jump @1509\n      : @283 [@dyn 116] (gas: 7)\n  7721: u64 [s1 + 0x90] = a0\n  7725: u64 [s1 + 0x88] = a1\n  7729: a0 = u64 [s1 + 0xc8]\n  7733: a2 = a0 + 0xffffffffffffff80\n  7736: a0 = u64 [s1 + 0xb0]\n  7740: a1 = u64 [s1 + 0xa8]\n  7744: ra = 234, jump @1509\n      : @284 [@dyn 117] (gas: 8)\n  7750: u64 [s1 + 0x30] = a0\n  7753: u64 [s1 + 0x28] = a1\n  7756: a2 = u64 [s1 + 0xc8]\n  7760: a0 = a2 <u 0x80\n  7764: u64 [s1 + 0x98] = a0\n  7768: a0 = u64 [s1 + 0xb0]\n  7772: a1 = u64 [s1 + 0xa8]\n  7776: ra = 236, jump @1509\n      : @285 [@dyn 118] (gas: 11)\n  7782: a4 = u64 [s1 + 0x98]\n  7786: t0 = u64 [s1 + 0xd0]\n  7790: a5 = u64 [s1 + 0xd8]\n  7794: a2 = u64 [s1 + 0xe0]\n  7798: a5 = a5 | a2\n  7801: a3 = u64 [s1 + 0xf0]\n  7805: a3 = a3 | t0\n  7808: a3 = a3 | a5\n  7811: a0 = 0 if a4 == 0\n  7813: u64 [s1 + 0xe8] = a0\n  7817: jump @287 if a3 == 0\n      : @286 (gas: 1)\n  7820: jump @711\n      : @287 (gas: 2)\n  7823: a5 = 0\n  7825: jump @719\n      : @288 (gas: 9)\n  7828: u64 [a3 + 1760] = 0\n  7832: u64 [a3 + 1752] = 0\n  7836: u64 [a3 + 1744] = 0\n  7840: u64 [a3 + 1736] = 0\n  7844: a0 = s1 + 0x2000\n  7848: i32 a0 = a0 + 0x740\n  7852: ra = 0xee\n  7856: ecalli 17 // 'value_transferred'\n  7858: fallthrough\n      : @289 [@dyn 119] (gas: 3)\n  7859: a3 = s1 + 0x2078\n  7863: a4 = a3 + 0x600\n  7867: t0 = 240, jump @1482\n      : @290 [@dyn 120] (gas: 1)\n  7873: jump @292 if a0 == 0\n      : @291 (gas: 1)\n  7876: jump @865\n      : @292 (gas: 3)\n  7879: a0 = u64 [s1 + 0xf8]\n  7883: a0 = i32 [a0]\n  7885: jump @294 if a0 >u 3\n      : @293 (gas: 1)\n  7889: jump @866\n      : @294 (gas: 9)\n  7892: a0 = s1 + 0x2078\n  7896: u64 [a0 + 1792] = 0\n  7900: u64 [a0 + 1784] = 0\n  7904: u64 [a0 + 1776] = 0\n  7908: u64 [a0 + 1768] = 0\n  7912: a0 = s1 + 0x7ff\n  7916: a0 = a0 + 0x261\n  7920: a1 = s1 + 0x2760\n  7924: ra = 242, jump @11\n      : @295 [@dyn 121] (gas: 13)\n  7930: a1 = s1 + 0x7ff\n  7934: a1 = a1 + 0x79\n  7937: a2 = a1 + 0x100\n  7941: a0 = u64 [a2 + 0xf8]\n  7945: u64 [s1 + 0xe8] = a0\n  7949: a0 = u64 [a2 + 0xf0]\n  7953: u64 [s1 + 0xf8] = a0\n  7957: a0 = u64 [a2 + 0xe8]\n  7961: u64 [s1 + 0xf0] = a0\n  7965: a0 = s1 + 0x7ff\n  7969: a0 = a0 + 0x241\n  7973: a1 = 0x40\n  7976: ra = 244, jump @7\n      : @296 [@dyn 122] (gas: 8)\n  7982: a3 = s1 + 0x7ff\n  7986: a3 = a3 + 0x79\n  7989: a5 = a3 + 0x100\n  7993: a4 = u64 [a5 + 0xe0]\n  7997: a1 = u64 [a5 + 0xd8]\n  8001: a2 = u64 [a5 + 0xd0]\n  8005: a0 = u64 [a5 + 0xc8]\n  8009: t0 = 246, jump @1476\n      : @297 [@dyn 123] (gas: 1)\n  8015: jump @299 if a1 == 0\n      : @298 (gas: 1)\n  8018: jump @827\n      : @299 (gas: 15)\n  8021: a1 = u64 [s1 + 0xe8]\n  8025: a1 = a1 << 0x20\n  8028: a2 = a1 >> 0x20\n  8031: u64 [a3 + 448] = 0\n  8035: a1 = u64 [s1 + 0xf0]\n  8039: a4 = a3 + 0x100\n  8043: u64 [a4 + 0xa8] = a1\n  8047: a1 = u64 [s1 + 0xf8]\n  8051: u64 [a4 + 0xb0] = a1\n  8055: a1 = s1 + 0x7ff\n  8059: a1 = a1 + 0x221\n  8063: u64 [a4 + 0xb8] = a2\n  8067: u64 [s1 + 0xf8] = a0\n  8071: ra = 0x196\n  8075: jump @9\n      : @300 (gas: 10)\n  8078: a0 = s1 + 0x2878\n  8082: u64 [a0 + 96] = 0\n  8085: u64 [a0 + 88] = 0\n  8088: u64 [a0 + 80] = 0\n  8091: u64 [a0 + 72] = 0\n  8094: a0 = s1 + 0x3000\n  8098: i32 a0 = a0 + 0xfffffffffffff8c0\n  8102: ecalli 17 // 'value_transferred'\n  8104: a3 = s1 + 0x2878\n  8108: fallthrough\n      : @301 (gas: 8)\n  8109: a0 = u64 [a3 + 0x58]\n  8112: a1 = u64 [a3 + 0x60]\n  8115: a2 = u64 [a3 + 0x50]\n  8118: a3 = u64 [a3 + 0x48]\n  8121: a1 = a1 | a2\n  8124: a0 = a0 | a3\n  8127: a0 = a0 | a1\n  8130: jump @303 if a0 == 0\n      : @302 (gas: 1)\n  8133: jump @867\n      : @303 (gas: 3)\n  8136: a0 = u64 [s1 + 0xf8]\n  8140: a0 = i32 [a0]\n  8142: jump @305 if a0 >u 3\n      : @304 (gas: 1)\n  8146: jump @868\n      : @305 (gas: 9)\n  8149: a1 = s1 + 0x2878\n  8153: u64 [a1 + 128] = 0\n  8157: u64 [a1 + 120] = 0\n  8160: u64 [a1 + 112] = 0\n  8163: u64 [a1 + 104] = 0x1\n  8167: a0 = s1 + 0x7ff\n  8171: a0 = a0 + 0x621\n  8175: a1 = s1 + 0x28e0\n  8179: ra = 248, jump @11\n      : @306 [@dyn 124] (gas: 13)\n  8185: a1 = s1 + 0x7ff\n  8189: a1 = a1 + 0x79\n  8192: a2 = a1 + 0x500\n  8196: a0 = u64 [a2 + 0xb8]\n  8200: u64 [s1 + 0xe8] = a0\n  8204: a0 = u64 [a2 + 0xb0]\n  8208: u64 [s1 + 0xf8] = a0\n  8212: a0 = u64 [a2 + 0xa8]\n  8216: u64 [s1 + 0xf0] = a0\n  8220: a0 = s1 + 0x7ff\n  8224: a0 = a0 + 0x601\n  8228: a1 = 0x40\n  8231: ra = 250, jump @7\n      : @307 [@dyn 125] (gas: 8)\n  8237: a3 = s1 + 0x7ff\n  8241: a3 = a3 + 0x79\n  8244: a5 = a3 + 0x500\n  8248: a4 = u64 [a5 + 0xa0]\n  8252: a1 = u64 [a5 + 0x98]\n  8256: a2 = u64 [a5 + 0x90]\n  8260: a0 = u64 [a5 + 0x88]\n  8264: t0 = 252, jump @1476\n      : @308 [@dyn 126] (gas: 1)\n  8270: jump @310 if a1 == 0\n      : @309 (gas: 1)\n  8273: jump @827\n      : @310 (gas: 15)\n  8276: a1 = u64 [s1 + 0xe8]\n  8280: a1 = a1 << 0x20\n  8283: a2 = a1 >> 0x20\n  8286: u64 [a3 + 1408] = 0\n  8290: a1 = u64 [s1 + 0xf0]\n  8294: a4 = a3 + 0x500\n  8298: u64 [a4 + 0x68] = a1\n  8301: a1 = u64 [s1 + 0xf8]\n  8305: u64 [a4 + 0x70] = a1\n  8308: a1 = s1 + 0x7ff\n  8312: a1 = a1 + 0x5e1\n  8316: u64 [a4 + 0x78] = a2\n  8319: u64 [s1 + 0xf8] = a0\n  8323: ra = 0x196\n  8327: jump @9\n      : @311 (gas: 9)\n  8330: u64 [a3 + 1728] = 0\n  8334: u64 [a3 + 1720] = 0\n  8338: u64 [a3 + 1712] = 0\n  8342: u64 [a3 + 1704] = 0\n  8346: a0 = s1 + 0x2000\n  8350: i32 a0 = a0 + 0x720\n  8354: ra = 0xfe\n  8358: ecalli 17 // 'value_transferred'\n  8360: fallthrough\n      : @312 [@dyn 127] (gas: 3)\n  8361: a3 = s1 + 0x2078\n  8365: a4 = a3 + 0x600\n  8369: t0 = 256, jump @1500\n      : @313 [@dyn 128] (gas: 1)\n  8375: jump @315 if a0 == 0\n      : @314 (gas: 1)\n  8378: jump @869\n      : @315 (gas: 3)\n  8381: a0 = u64 [s1 + 0xf8]\n  8385: a0 = i32 [a0]\n  8387: jump @317 if a0 >u 3\n      : @316 (gas: 1)\n  8391: jump @870\n      : @317 (gas: 4)\n  8394: a0 = s1 + 0x7ff\n  8398: a0 = a0 + 0x201\n  8402: a1 = 0x40\n  8405: ra = 258, jump @7\n      : @318 [@dyn 129] (gas: 8)\n  8411: a3 = s1 + 0x7ff\n  8415: a3 = a3 + 0x79\n  8418: a5 = a3 + 0x100\n  8422: a4 = u64 [a5 + 0xa0]\n  8426: a1 = u64 [a5 + 0x98]\n  8430: a2 = u64 [a5 + 0x90]\n  8434: a0 = u64 [a5 + 0x88]\n  8438: t0 = 260, jump @1476\n      : @319 [@dyn 130] (gas: 1)\n  8444: jump @321 if a1 == 0\n      : @320 (gas: 1)\n  8447: jump @827\n      : @321 (gas: 10)\n  8450: a1 = u64 [0x200a0]\n  8455: u64 [a3 + 384] = 0\n  8459: u64 [a3 + 376] = 0\n  8463: u64 [a3 + 0x168] = a1\n  8467: a1 = s1 + 0x7ff\n  8471: a1 = a1 + 0x1e1\n  8475: u64 [a3 + 368] = 0\n  8479: u64 [s1 + 0xf8] = a0\n  8483: ra = 0x196\n  8487: jump @9\n      : @322 (gas: 10)\n  8490: u64 [a3 + 1248] = 0\n  8494: u64 [a3 + 1240] = 0\n  8498: u64 [a3 + 1232] = 0\n  8502: u64 [a3 + 1224] = 0\n  8506: a0 = s1 + 0x2000\n  8510: i32 a0 = a0 + 0x540\n  8514: ra = 0x106\n  8518: ecalli 17 // 'value_transferred'\n  8520: t0 = 0x108\n  8524: jump @1496\n      : @323 [@dyn 131] (gas: 1)\n  8527: t0 = 264, jump @1496\n      : @324 [@dyn 132] (gas: 1)\n  8533: t0 = 266, jump @1482\n      : @325 [@dyn 133] (gas: 1)\n  8539: jump @327 if a0 == 0\n      : @326 (gas: 1)\n  8542: jump @871\n      : @327 (gas: 3)\n  8545: a0 = u64 [s1 + 0xf8]\n  8549: a0 = i32 [a0]\n  8551: jump @329 if a0 >u 3\n      : @328 (gas: 1)\n  8555: jump @872\n      : @329 (gas: 16)\n  8558: a0 = s1 + 0x2000\n  8562: i32 a0 = a0 + 0x560\n  8566: ecalli 10 // 'now'\n  8568: a0 = s1 + 0x2078\n  8572: a1 = u64 [a0 + 0x500]\n  8576: u64 [s1 + 0xb8] = a1\n  8580: a2 = a0 + 0x400\n  8584: a1 = u64 [a2 + 0xf8]\n  8588: u64 [s1 + 0xb0] = a1\n  8592: a1 = u64 [a2 + 0xf0]\n  8596: u64 [s1 + 0xf8] = a1\n  8600: a0 = u64 [a2 + 0xe8]\n  8604: u64 [s1 + 0xf0] = a0\n  8608: a0 = s1 + 0x340\n  8612: a1 = 0x40\n  8615: ra = 268, jump @7\n      : @330 [@dyn 134] (gas: 6)\n  8621: a4 = s1 + 0x300\n  8625: a0 = u64 [a4 + 0x58]\n  8628: a1 = u64 [a4 + 0x50]\n  8631: a2 = u64 [a4 + 0x48]\n  8634: a3 = u64 [a4 + 0x40]\n  8637: t0 = 270, jump @1459\n      : @331 [@dyn 135] (gas: 1)\n  8643: jump @333 if a0 == 0\n      : @332 (gas: 1)\n  8646: jump @827\n      : @333 (gas: 46)\n  8649: u64 [s1 + 0x78] = a3\n  8652: t1 = u64 [s1 + 0xb0]\n  8656: a0 = clz t1\n  8658: a0 = a0 + 0x40\n  8661: ra = u64 [s1 + 0xb8]\n  8665: a2 = clz ra\n  8667: a2 = a0 if ra == 0\n  8670: t2 = u64 [s1 + 0xf0]\n  8674: a0 = clz t2\n  8676: a0 = a0 + 0x40\n  8679: t0 = u64 [s1 + 0xf8]\n  8683: a1 = clz t0\n  8685: a1 = a0 if t0 == 0\n  8688: a0 = a1 + 0x80\n  8692: a3 = t1 | ra\n  8695: a2 = a0 if a3 == 0\n  8698: a5 = a0 <u a1\n  8701: a5 = 0 if a3 != 0\n  8703: a4 = a5 >u 0\n  8705: a0 = a2 <u 0xf0\n  8709: a3 = a0 ^ 0x1\n  8712: a4 = a3 if a5 == 0\n  8715: a0 = a4 <u 0x1\n  8718: a0 = a0 + 0xffffffffffffffff\n  8721: a1 = -a4\n  8723: a5 = -a5\n  8725: a3 = a5 - a3\n  8728: a2 = 0xef - a2\n  8732: u64 [s1 + 0xd8] = a1\n  8736: a5 = a1 >u 0\n  8738: a1 = a0 >u 0\n  8740: a1 = a5 if a0 == 0\n  8743: a5 = a3 >u 0\n  8745: u64 [s1 + 0xc8] = a2\n  8749: a2 = a2 <u 0x100\n  8753: a2 = a2 ^ 0x1\n  8756: a2 = a5 if a3 != 0\n  8759: a2 = a1 if a4 != 0\n  8762: a1 = t2 | t1\n  8765: a4 = t0 | ra\n  8768: a1 = a1 | a4\n  8771: a1 = a1 <u 0x1\n  8774: a1 = a1 | a2\n  8777: a4 = t2\n  8779: a4 = 0 if a1 != 0\n  8781: jump @335 if a1 == 0\n      : @334 (gas: 1)\n  8784: jump @920\n      : @335 (gas: 7)\n  8787: a1 = u64 [s1 + 0xc8]\n  8791: a1 = a1 ^ 0xff\n  8795: a2 = u64 [s1 + 0xd8]\n  8799: a1 = a1 | a2\n  8802: a2 = a3 | a0\n  8805: a1 = a1 | a2\n  8808: jump @337 if a1 != 0\n      : @336 (gas: 1)\n  8811: jump @920\n      : @337 (gas: 20)\n  8814: a4 = u64 [s1 + 0xc8]\n  8818: a2 = a4 + 0x1\n  8821: u64 [s1 + 0xe8] = a2\n  8825: a1 = a2 <u 0x1\n  8828: a1 = a1 + a3\n  8831: u64 [s1 + 0xe0] = a1\n  8835: a1 = a1 | a2\n  8838: a1 = a1 <u 0x1\n  8841: a3 = u64 [s1 + 0xd8]\n  8845: a1 = a1 + a3\n  8848: u64 [s1 + 0xd0] = a1\n  8852: a1 = a1 <u a3\n  8855: a0 = a0 + a1\n  8858: u64 [s1 + 0xd8] = a0\n  8862: a1 = 0xff - a4\n  8866: u64 [s1 + 0xa0] = a1\n  8870: a2 = 0x80 - a1\n  8874: a0 = u64 [s1 + 0xf0]\n  8878: a1 = u64 [s1 + 0xf8]\n  8882: ra = 272, jump @1504\n      : @338 [@dyn 136] (gas: 6)\n  8888: u64 [s1 + 0x90] = a0\n  8892: u64 [s1 + 0xa8] = a1\n  8896: a0 = u64 [s1 + 0xb0]\n  8900: a1 = u64 [s1 + 0xb8]\n  8904: a2 = u64 [s1 + 0xa0]\n  8908: ra = 274, jump @1509\n      : @339 [@dyn 137] (gas: 7)\n  8914: u64 [s1 + 0x88] = a0\n  8918: u64 [s1 + 0x80] = a1\n  8922: a0 = u64 [s1 + 0xa0]\n  8926: a2 = a0 + 0xffffffffffffff80\n  8929: a0 = u64 [s1 + 0xf0]\n  8933: a1 = u64 [s1 + 0xf8]\n  8937: ra = 276, jump @1509\n      : @340 [@dyn 138] (gas: 8)\n  8943: u64 [s1 + 0x70] = a0\n  8946: u64 [s1 + 0x68] = a1\n  8949: a2 = u64 [s1 + 0xa0]\n  8953: a0 = a2 <u 0x80\n  8957: u64 [s1 + 0x98] = a0\n  8961: a0 = u64 [s1 + 0xf0]\n  8965: a1 = u64 [s1 + 0xf8]\n  8969: ra = 278, jump @1509\n      : @341 [@dyn 139] (gas: 12)\n  8975: u64 [s1 + 0xc0] = a1\n  8979: a1 = u64 [s1 + 0xe0]\n  8983: a2 = u64 [s1 + 0xd8]\n  8987: a2 = a2 | a1\n  8990: a1 = u64 [s1 + 0xe8]\n  8994: a3 = u64 [s1 + 0xd0]\n  8998: a1 = a1 | a3\n  9001: a1 = a1 | a2\n  9004: a3 = u64 [s1 + 0x98]\n  9008: a0 = 0 if a3 == 0\n  9010: u64 [s1 + 0xc8] = a0\n  9014: jump @343 if a1 != 0\n      : @342 (gas: 1)\n  9017: jump @918\n      : @343 (gas: 30)\n  9020: a2 = a3\n  9022: a0 = u64 [s1 + 0xa8]\n  9026: a1 = u64 [s1 + 0x80]\n  9030: a0 = a0 | a1\n  9033: a5 = a3\n  9035: a1 = u64 [s1 + 0x68]\n  9038: a0 = a1 if a2 == 0\n  9041: a2 = u64 [s1 + 0xb8]\n  9045: a3 = a2\n  9047: a1 = a2\n  9049: a2 = u64 [s1 + 0xa0]\n  9053: a3 = a0 if a2 != 0\n  9056: u64 [s1 + 0xa8] = a3\n  9060: a0 = u64 [s1 + 0x90]\n  9064: a3 = u64 [s1 + 0x88]\n  9068: a0 = a0 | a3\n  9071: a3 = u64 [s1 + 0x70]\n  9074: a0 = a3 if a5 == 0\n  9077: a4 = u64 [s1 + 0xb0]\n  9081: a3 = a4\n  9083: a3 = a0 if a2 != 0\n  9086: u64 [s1 + 0xa0] = a3\n  9090: a0 = u64 [s1 + 0xc0]\n  9094: a0 = 0 if a5 == 0\n  9096: u64 [s1 + 0xc0] = a0\n  9100: u64 [s1 + 144] = 0x15180\n  9107: a0 = u64 [s1 + 0xe8]\n  9111: a2 = a0 + 0xffffffffffffff80\n  9114: a0 = a4\n  9116: ra = 280, jump @1504\n      : @344 [@dyn 140] (gas: 6)\n  9122: u64 [s1 + 0x98] = a0\n  9126: u64 [s1 + 0x80] = a1\n  9130: a0 = u64 [s1 + 0xf0]\n  9134: a1 = u64 [s1 + 0xf8]\n  9138: a2 = u64 [s1 + 0xe8]\n  9142: ra = 282, jump @1504\n      : @345 [@dyn 141] (gas: 7)\n  9148: u64 [s1 + 0x70] = a0\n  9151: u64 [s1 + 0x88] = a1\n  9155: a1 = u64 [s1 + 0xe8]\n  9159: a2 = 0x80 - a1\n  9163: a0 = u64 [s1 + 0xb0]\n  9167: a1 = u64 [s1 + 0xb8]\n  9171: ra = 284, jump @1509\n      : @346 [@dyn 142] (gas: 20)\n  9177: a2 = u64 [s1 + 0x88]\n  9181: a1 = a1 | a2\n  9184: a2 = u64 [s1 + 0xe8]\n  9188: a3 = a2 <u 0x80\n  9192: u64 [s1 + 0x88] = a3\n  9196: a4 = u64 [s1 + 0x80]\n  9200: a1 = a4 if a3 == 0\n  9203: a4 = u64 [s1 + 0xf8]\n  9207: a4 = a1 if a2 != 0\n  9210: u64 [s1 + 0xf8] = a4\n  9214: a1 = u64 [s1 + 0x70]\n  9217: a0 = a0 | a1\n  9220: a1 = u64 [s1 + 0x98]\n  9224: a0 = a1 if a3 == 0\n  9227: a1 = u64 [s1 + 0xf0]\n  9231: a1 = a0 if a2 != 0\n  9234: u64 [s1 + 0xf0] = a1\n  9238: a0 = u64 [s1 + 0xb0]\n  9242: a1 = u64 [s1 + 0xb8]\n  9246: ra = 286, jump @1504\n      : @347 [@dyn 143] (gas: 15)\n  9252: t2 = u64 [s1 + 0xf0]\n  9256: t1 = u64 [s1 + 0xf8]\n  9260: u64 [s1 + 184] = 0\n  9264: u64 [s1 + 176] = 0\n  9268: a2 = u64 [s1 + 0x88]\n  9272: a1 = 0 if a2 == 0\n  9274: a0 = 0 if a2 == 0\n  9276: u64 [s1 + 0x98] = a0\n  9280: a3 = u64 [s1 + 0x90]\n  9284: a2 = a3 + 0xffffffffffffffff\n  9287: u64 [s1 + 0x88] = a2\n  9291: a2 = a3 >u 0\n  9293: a2 = a2 + 0xffffffffffffffff\n  9296: u64 [s1 + 0x80] = a2\n  9300: fallthrough\n      : @348 (gas: 88)\n  9301: a2 = t2 >> 0x3f\n  9304: a3 = t1 << 0x1\n  9307: a2 = a2 | a3\n  9310: a3 = t2 << 0x1\n  9313: t2 = u64 [s1 + 0xa8]\n  9317: a4 = t2 >> 0x3f\n  9320: a3 = a3 | a4\n  9323: u64 [s1 + 0xf8] = a3\n  9327: ra = u64 [s1 + 0x80]\n  9331: a0 = t1\n  9333: t1 = ra ^ a2\n  9336: t0 = ra <u a2\n  9339: a4 = u64 [s1 + 0x88]\n  9343: a5 = a4 <u a3\n  9346: a5 = t0 if t1 != 0\n  9349: a1 = a1 << 0x1\n  9352: a4 = u64 [s1 + 0x98]\n  9356: a3 = a4 >> 0x3f\n  9359: a1 = a1 | a3\n  9362: u64 [s1 + 0xf0] = a1\n  9366: a3 = a0 >> 0x3f\n  9369: a0 = a4 << 0x1\n  9372: a3 = a3 | a0\n  9375: a0 = t2 << 0x1\n  9378: a4 = u64 [s1 + 0xa0]\n  9382: a1 = a4 >> 0x3f\n  9385: t0 = a0 | a1\n  9388: a1 = a4 << 0x1\n  9391: a4 = u64 [s1 + 0xc0]\n  9395: t1 = a4 >> 0x3f\n  9398: t1 = a1 | t1\n  9401: a1 = a4 << 0x1\n  9404: a4 = u64 [s1 + 0xc8]\n  9408: t2 = a4 >> 0x3f\n  9411: a1 = a1 | t2\n  9414: a4 = a4 << 0x1\n  9417: a0 = u64 [s1 + 0xb8]\n  9421: a4 = a4 | a0\n  9424: u64 [s1 + 0xc8] = a4\n  9428: a0 = u64 [s1 + 0xb0]\n  9432: a1 = a1 | a0\n  9435: u64 [s1 + 0xc0] = a1\n  9439: a1 = a0 | t1\n  9442: u64 [s1 + 0xa0] = a1\n  9446: a0 = a0 | t0\n  9449: u64 [s1 + 0xa8] = a0\n  9453: a0 = ra - a3\n  9456: a0 = a0 <u a5\n  9459: a1 = ra <u a3\n  9462: a5 = u64 [s1 + 0xf0]\n  9466: a4 = ra - a5\n  9469: a4 = a4 - a1\n  9472: a4 = a4 - a0\n  9475: ra = a4 >>a 0x3f\n  9478: a0 = u64 [s1 + 0x90]\n  9482: a0 = ra & a0\n  9485: a1 = u64 [s1 + 0xf8]\n  9489: t2 = a1 - a0\n  9492: a1 = a1 <u a0\n  9495: t1 = a2 - a1\n  9498: a1 = 0 if a2 != 0\n  9500: a0 = a3 - a1\n  9503: u64 [s1 + 0x98] = a0\n  9507: a1 = a3 <u a1\n  9510: a1 = a5 - a1\n  9513: a3 = u64 [s1 + 0xe8]\n  9517: a5 = u64 [s1 + 0xe0]\n  9521: a2 = a3 | a5\n  9524: a2 = a2 <u 0x1\n  9527: a4 = u64 [s1 + 0xd0]\n  9531: t0 = a4 <u a2\n  9534: a2 = a4 - a2\n  9537: a4 = a3 <u 0x1\n  9540: a5 = a5 - a4\n  9543: a4 = u64 [s1 + 0xd8]\n  9547: a4 = a4 - t0\n  9550: a3 = a3 + 0xffffffffffffffff\n  9553: u64 [s1 + 0xe0] = a5\n  9557: u64 [s1 + 0xd8] = a4\n  9561: t0 = a5 | a4\n  9564: u64 [s1 + 0xe8] = a3\n  9568: a4 = a3 | a2\n  9571: a3 = a4 | t0\n  9574: a4 = ra & 0x1\n  9577: u64 [s1 + 0xb8] = a4\n  9581: u64 [s1 + 0xd0] = a2\n  9585: u64 [s1 + 176] = 0\n  9589: jump @348 if a3 != 0\n      : @349 (gas: 1)\n  9593: jump @919\n      : @350 (gas: 1)\n  9596: jump @352 if a0 == 1641031603\n      : @351 (gas: 1)\n  9603: jump @873\n      : @352 (gas: 10)\n  9606: u64 [a2 + 32] = 0\n  9609: u64 [a2 + 24] = 0\n  9612: u64 [a2 + 16] = 0\n  9615: u64 [a2 + 8] = 0\n  9618: a0 = s1 + 0x3000\n  9622: i32 a0 = a0 + 0xfffffffffffff880\n  9626: ecalli 17 // 'value_transferred'\n  9628: t0 = 0x120\n  9632: a3 = s1 + 0x2878\n  9636: fallthrough\n      : @353 [@dyn 144] (gas: 8)\n  9637: a0 = u64 [a3 + 0x18]\n  9640: a1 = u64 [a3 + 0x20]\n  9643: a2 = u64 [a3 + 0x10]\n  9646: a3 = u64 [a3 + 0x8]\n  9649: a1 = a1 | a2\n  9652: a0 = a0 | a3\n  9655: a0 = a0 | a1\n  9658: jump @355 if a0 == 0\n      : @354 (gas: 1)\n  9661: jump @877\n      : @355 (gas: 3)\n  9664: a0 = u64 [s1 + 0xf8]\n  9668: a0 = i32 [a0]\n  9670: jump @357 if a0 >u 3\n      : @356 (gas: 1)\n  9674: jump @878\n      : @357 (gas: 4)\n  9677: a0 = s1 + 0x7ff\n  9681: a0 = a0 + 0x501\n  9685: a1 = 0x40\n  9688: ra = 290, jump @7\n      : @358 [@dyn 145] (gas: 12)\n  9694: a0 = s1 + 0x7ff\n  9698: a0 = a0 + 0x79\n  9701: a2 = a0 + 0x400\n  9705: a1 = u64 [a2 + 0xa0]\n  9709: u64 [s1 + 0xf8] = a1\n  9713: a1 = u64 [a2 + 0x98]\n  9717: u64 [s1 + 0xf0] = a1\n  9721: a1 = u64 [a2 + 0x90]\n  9725: u64 [s1 + 0xe0] = a1\n  9729: a0 = u64 [a2 + 0x88]\n  9733: u64 [s1 + 0xe8] = a0\n  9737: ra = 292, jump @0\n      : @359 [@dyn 146] (gas: 13)\n  9743: a0 = u64 [s1 + 0xf8]\n  9747: a1 = u64 [s1 + 0xe0]\n  9751: a0 = a0 | a1\n  9754: a1 = u64 [s1 + 0xe8]\n  9758: a3 = a1\n  9760: a2 = u64 [s1 + 0xf0]\n  9764: a1 = a1 | a2\n  9767: a1 = a1 | a0\n  9770: a1 = a1 >> 0x20\n  9773: a0 = a0 | a2\n  9776: a0 = a0 << 0x20\n  9779: a0 = a0 | a1\n  9782: jump @361 if a0 == 0\n      : @360 (gas: 1)\n  9785: jump @827\n      : @361 (gas: 14)\n  9788: a2 = u64 [0x30180]\n  9793: a1 = u64 [0x30188]\n  9798: a0 = u32 [0x30190]\n  9803: a4 = s1 + 0x7ff\n  9807: a4 = a4 + 0x79\n  9810: u64 [a4 + 1152] = 0\n  9814: a5 = a4 + 0x400\n  9818: u64 [a5 + 0x78] = a0\n  9821: u64 [a5 + 0x70] = a1\n  9824: a1 = s1 + 0x7ff\n  9828: a1 = a1 + 0x4e1\n  9832: u64 [a5 + 0x68] = a2\n  9835: a0 = a3\n  9837: ra = 294, jump @9\n      : @362 [@dyn 147] (gas: 4)\n  9843: a1 = 0x20\n  9846: a0 = u64 [s1 + 0xe8]\n  9850: ra = 0x198\n  9854: jump @20\n      : @363 (gas: 10)\n  9857: u64 [a3 + 1344] = 0\n  9861: u64 [a3 + 1336] = 0\n  9865: u64 [a3 + 1328] = 0\n  9869: u64 [a3 + 1320] = 0\n  9873: a0 = s1 + 0x2000\n  9877: i32 a0 = a0 + 0x5a0\n  9881: ra = 0x128\n  9885: ecalli 17 // 'value_transferred'\n  9887: t0 = 0x12a\n  9891: jump @1483\n      : @364 [@dyn 148] (gas: 1)\n  9894: t0 = 298, jump @1483\n      : @365 [@dyn 149] (gas: 1)\n  9900: t0 = 300, jump @1494\n      : @366 [@dyn 150] (gas: 1)\n  9906: jump @368 if a0 == 0\n      : @367 (gas: 1)\n  9909: jump @879\n      : @368 (gas: 3)\n  9912: a0 = u64 [s1 + 0xf8]\n  9916: a0 = i32 [a0]\n  9918: jump @370 if a0 >u 67\n      : @369 (gas: 1)\n  9922: jump @880\n      : @370 (gas: 4)\n  9925: a0 = s1 + 0x580\n  9929: ra = 0x12e\n  9933: t0 = 0x4de\n  9937: jump @1493\n      : @371 [@dyn 151] (gas: 10)\n  9940: a0 = u64 [s1 + 0x580]\n  9944: u64 [s1 + 0xf0] = a0\n  9948: a0 = u64 [s1 + 0x588]\n  9952: u64 [s1 + 0xe8] = a0\n  9956: a0 = u32 [s1 + 0x590]\n  9960: u64 [s1 + 0xe0] = a0\n  9964: a0 = s1 + 0x560\n  9968: ra = 0x130\n  9972: t0 = 0x4e8\n  9976: jump @1499\n      : @372 [@dyn 152] (gas: 12)\n  9979: a0 = u64 [s1 + 0x560]\n  9983: u64 [s1 + 0xf8] = a0\n  9987: u64 [s1 + 1368] = 0\n  9991: a0 = u64 [s1 + 0xe0]\n  9995: u64 [s1 + 0x550] = a0\n  9999: a0 = u64 [s1 + 0xe8]\n 10003: u64 [s1 + 0x548] = a0\n 10007: a1 = s1 + 0x540\n 10011: a0 = u64 [s1 + 0xf0]\n 10015: u64 [s1 + 0x540] = a0\n 10019: a0 = 0\n 10021: ra = 306, jump @9\n      : @373 [@dyn 153] (gas: 7)\n 10027: u64 [s1 + 1336] = 0\n 10031: u64 [s1 + 1328] = 0\n 10035: u64 [s1 + 1312] = 0x7\n 10040: a0 = 0x20\n 10043: a1 = s1 + 0x520\n 10047: u64 [s1 + 1320] = 0\n 10051: ra = 308, jump @9\n      : @374 [@dyn 154] (gas: 3)\n 10057: a1 = 0x20150\n 10062: a0 = i32 [0x20150]\n 10067: jump @376 if a0 >u 63\n      : @375 (gas: 2)\n 10071: u32 [0x20150] = 0x40\n 10077: fallthrough\n      : @376 (gas: 14)\n 10078: a0 = sp + 0xffffffffffffffe0\n 10081: a2 = a0 & 0xffffffffffffffe0\n 10084: u64 [s1 + 0xe0] = a2\n 10088: sp = a2\n 10090: a0 = 0x20160\n 10095: i32 a0 = a0 + 0\n 10097: i32 a2 = a2 + 0\n 10099: u64 [s1 + 0xf0] = a1\n 10103: a1 = 0x40\n 10106: u64 [s1 + 0xe8] = a0\n 10110: ra = 0x136\n 10114: ecalli 9 // 'hash_keccak_256'\n 10116: t0 = 0x138\n 10120: jump @1451\n      : @377 [@dyn 155] (gas: 1)\n 10123: t0 = 312, jump @1451\n      : @378 [@dyn 156] (gas: 8)\n 10129: u64 [s1 + 1304] = 0\n 10133: u64 [s1 + 1296] = 0\n 10137: u64 [s1 + 1288] = 0\n 10141: a1 = s1 + 0x500\n 10145: a0 = u64 [s1 + 0xf8]\n 10149: u64 [s1 + 0x500] = a0\n 10153: a0 = 0\n 10155: ra = 314, jump @9\n      : @379 [@dyn 157] (gas: 12)\n 10161: a0 = u64 [s1 + 0xc0]\n 10165: a3 = s1 + 0x400\n 10169: u64 [a3 + 0xf8] = a0\n 10173: a0 = u64 [s1 + 0xc8]\n 10177: u64 [a3 + 0xf0] = a0\n 10181: a0 = u64 [s1 + 0xd0]\n 10185: u64 [a3 + 0xe8] = a0\n 10189: a0 = 0x20\n 10192: a1 = s1 + 0x4e0\n 10196: a2 = u64 [s1 + 0xd8]\n 10200: u64 [a3 + 0xe0] = a2\n 10204: ra = 316, jump @9\n      : @380 [@dyn 158] (gas: 3)\n 10210: a1 = u64 [s1 + 0xf0]\n 10214: a0 = i32 [a1]\n 10216: jump @382 if a0 >u 63\n      : @381 (gas: 2)\n 10220: u32 [a1 + 0] = 0x40\n 10223: fallthrough\n      : @382 (gas: 4)\n 10224: a0 = sp + 0xffffffffffffffe0\n 10227: a0 = a0 & 0xffffffffffffffe0\n 10230: u64 [s1 + 0xf8] = a0\n 10234: t0 = 318, jump @1465\n      : @383 [@dyn 159] (gas: 4)\n 10240: ra = 0x140\n 10244: ecalli 9 // 'hash_keccak_256'\n 10246: t0 = 0x142\n 10250: jump @1454\n      : @384 [@dyn 160] (gas: 1)\n 10253: t0 = 322, jump @1454\n      : @385 [@dyn 161] (gas: 2)\n 10259: a0 = s1 + 0x4c0\n 10263: ra = 324, jump @11\n      : @386 [@dyn 162] (gas: 11)\n 10269: a0 = u64 [s1 + 0x4d8]\n 10273: u64 [s1 + 0xf8] = a0\n 10277: a0 = u64 [s1 + 0x4d0]\n 10281: u64 [s1 + 0xf0] = a0\n 10285: a0 = u64 [s1 + 0x4c8]\n 10289: u64 [s1 + 0xe8] = a0\n 10293: a0 = u64 [s1 + 0x4c0]\n 10297: u64 [s1 + 0xe0] = a0\n 10301: a0 = s1 + 0x4a0\n 10305: a1 = 0x40\n 10308: ra = 326, jump @7\n      : @387 [@dyn 163] (gas: 6)\n 10314: a4 = s1 + 0x400\n 10318: a0 = u64 [a4 + 0xb8]\n 10322: a1 = u64 [a4 + 0xb0]\n 10326: a2 = u64 [a4 + 0xa8]\n 10330: a3 = u64 [a4 + 0xa0]\n 10334: t0 = 328, jump @1459\n      : @388 [@dyn 164] (gas: 1)\n 10340: jump @390 if a0 == 0\n      : @389 (gas: 1)\n 10343: jump @827\n      : @390 (gas: 14)\n 10346: a0 = u64 [s1 + 0xe0]\n 10350: a2 = s1 + 0x400\n 10354: u64 [a2 + 0x80] = a0\n 10358: a0 = u64 [s1 + 0xe8]\n 10362: u64 [a2 + 0x88] = a0\n 10366: a0 = u64 [s1 + 0xf0]\n 10370: u64 [a2 + 0x90] = a0\n 10374: a1 = s1 + 0x480\n 10378: a0 = u64 [s1 + 0xf8]\n 10382: u64 [a2 + 0x98] = a0\n 10386: a0 = a3\n 10388: u64 [s1 + 0xf8] = a3\n 10392: ra = 0x196\n 10396: jump @9\n      : @391 (gas: 10)\n 10399: u64 [a2 + 448] = 0\n 10403: u64 [a2 + 440] = 0\n 10407: u64 [a2 + 432] = 0\n 10411: u64 [a2 + 424] = 0\n 10415: a0 = s1 + 0x3000\n 10419: i32 a0 = a0 + 0xfffffffffffffa20\n 10423: ra = 0x14a\n 10427: ecalli 17 // 'value_transferred'\n 10429: t0 = 0x14c\n 10433: jump @1497\n      : @392 [@dyn 165] (gas: 1)\n 10436: t0 = 332, jump @1497\n      : @393 [@dyn 166] (gas: 1)\n 10442: t0 = 334, jump @1500\n      : @394 [@dyn 167] (gas: 1)\n 10448: jump @396 if a0 == 0\n      : @395 (gas: 1)\n 10451: jump @881\n      : @396 (gas: 3)\n 10454: a0 = u64 [s1 + 0xf8]\n 10458: a0 = i32 [a0]\n 10460: jump @398 if a0 >u 67\n      : @397 (gas: 1)\n 10464: jump @882\n      : @398 (gas: 4)\n 10467: a0 = s1 + 0x1540\n 10471: ra = 0x150\n 10475: t0 = 0x4de\n 10479: jump @1493\n      : @399 [@dyn 168] (gas: 11)\n 10482: a1 = s1 + 0x1078\n 10486: a0 = u64 [a1 + 0x4c8]\n 10490: u64 [s1 + 0xf0] = a0\n 10494: a0 = u64 [a1 + 0x4d0]\n 10498: u64 [s1 + 0xe8] = a0\n 10502: a0 = u32 [a1 + 0x4d8]\n 10506: u64 [s1 + 0xe0] = a0\n 10510: a0 = s1 + 0x1520\n 10514: ra = 0x152\n 10518: t0 = 0x4e8\n 10522: jump @1499\n      : @400 [@dyn 169] (gas: 3)\n 10525: t0 = 0x154\n 10529: a2 = s1 + 0x1078\n 10533: fallthrough\n      : @401 [@dyn 170] (gas: 13)\n 10534: a3 = a2 + 0x400\n 10538: a0 = u64 [a3 + 0xa8]\n 10542: u64 [s1 + 0xf8] = a0\n 10546: u64 [a2 + 1184] = 0\n 10550: a0 = u64 [s1 + 0xe0]\n 10554: u64 [a3 + 0x98] = a0\n 10558: a0 = u64 [s1 + 0xe8]\n 10562: u64 [a3 + 0x90] = a0\n 10566: a1 = s1 + 0x1500\n 10570: a0 = u64 [s1 + 0xf0]\n 10574: u64 [a3 + 0x88] = a0\n 10578: a0 = 0\n 10580: ra = 342, jump @9\n      : @402 [@dyn 171] (gas: 3)\n 10586: t0 = 0x158\n 10590: a1 = s1 + 0x1078\n 10594: fallthrough\n      : @403 [@dyn 172] (gas: 8)\n 10595: u64 [a1 + 1152] = 0\n 10599: u64 [a1 + 1144] = 0\n 10603: u64 [a1 + 1128] = 0x6\n 10608: a2 = a1\n 10610: a0 = 0x20\n 10613: a1 = s1 + 0x14e0\n 10617: u64 [a2 + 1136] = 0\n 10621: ra = 346, jump @9\n      : @404 [@dyn 173] (gas: 3)\n 10627: a1 = 0x20150\n 10632: a0 = i32 [0x20150]\n 10637: jump @406 if a0 >u 63\n      : @405 (gas: 2)\n 10641: u32 [0x20150] = 0x40\n 10647: fallthrough\n      : @406 (gas: 14)\n 10648: a0 = sp + 0xffffffffffffffe0\n 10651: a2 = a0 & 0xffffffffffffffe0\n 10654: u64 [s1 + 0xe0] = a2\n 10658: sp = a2\n 10660: a0 = 0x20160\n 10665: i32 a0 = a0 + 0\n 10667: i32 a2 = a2 + 0\n 10669: u64 [s1 + 0xf0] = a1\n 10673: a1 = 0x40\n 10676: u64 [s1 + 0xe8] = a0\n 10680: ra = 0x15c\n 10684: ecalli 9 // 'hash_keccak_256'\n 10686: t0 = 0x15e\n 10690: jump @1451\n      : @407 [@dyn 174] (gas: 1)\n 10693: t0 = 350, jump @1451\n      : @408 [@dyn 175] (gas: 3)\n 10699: t0 = 0x160\n 10703: a2 = s1 + 0x1078\n 10707: fallthrough\n      : @409 [@dyn 176] (gas: 8)\n 10708: u64 [a2 + 1120] = 0\n 10712: u64 [a2 + 1112] = 0\n 10716: u64 [a2 + 1104] = 0\n 10720: a1 = s1 + 0x14c0\n 10724: a0 = u64 [s1 + 0xf8]\n 10728: u64 [a2 + 0x448] = a0\n 10732: a0 = 0\n 10734: ra = 354, jump @9\n      : @410 [@dyn 177] (gas: 14)\n 10740: a0 = u64 [s1 + 0xc0]\n 10744: a1 = s1 + 0x1078\n 10748: a2 = a1 + 0x400\n 10752: u64 [a2 + 0x40] = a0\n 10755: a0 = u64 [s1 + 0xc8]\n 10759: u64 [a2 + 0x38] = a0\n 10762: a0 = u64 [s1 + 0xd0]\n 10766: u64 [a2 + 0x30] = a0\n 10769: a3 = a1\n 10771: a0 = 0x20\n 10774: a1 = s1 + 0x14a0\n 10778: a2 = u64 [s1 + 0xd8]\n 10782: u64 [a3 + 0x428] = a2\n 10786: ra = 356, jump @9\n      : @411 [@dyn 178] (gas: 3)\n 10792: a1 = u64 [s1 + 0xf0]\n 10796: a0 = i32 [a1]\n 10798: jump @413 if a0 >u 63\n      : @412 (gas: 2)\n 10802: u32 [a1 + 0] = 0x40\n 10805: fallthrough\n      : @413 (gas: 4)\n 10806: a0 = sp + 0xffffffffffffffe0\n 10809: a0 = a0 & 0xffffffffffffffe0\n 10812: u64 [s1 + 0xf8] = a0\n 10816: t0 = 358, jump @1465\n      : @414 [@dyn 179] (gas: 4)\n 10822: ra = 0x168\n 10826: ecalli 9 // 'hash_keccak_256'\n 10828: t0 = 0x16a\n 10832: jump @1454\n      : @415 [@dyn 180] (gas: 1)\n 10835: t0 = 362, jump @1454\n      : @416 [@dyn 181] (gas: 2)\n 10841: a0 = s1 + 0x1480\n 10845: ra = 364, jump @11\n      : @417 [@dyn 182] (gas: 3)\n 10851: t0 = 0x16e\n 10855: a1 = s1 + 0x1078\n 10859: fallthrough\n      : @418 [@dyn 183] (gas: 12)\n 10860: a2 = a1 + 0x400\n 10864: a0 = u64 [a2 + 0x20]\n 10867: u64 [s1 + 0xf8] = a0\n 10871: a0 = u64 [a2 + 0x18]\n 10874: u64 [s1 + 0xf0] = a0\n 10878: a0 = u64 [a2 + 0x10]\n 10881: u64 [s1 + 0xe8] = a0\n 10885: a0 = u64 [a2 + 0x8]\n 10888: u64 [s1 + 0xe0] = a0\n 10892: a0 = s1 + 0x1460\n 10896: a1 = 0x40\n 10899: ra = 368, jump @7\n      : @419 [@dyn 184] (gas: 7)\n 10905: a3 = s1 + 0x1078\n 10909: a0 = u64 [a3 + 0x400]\n 10913: a5 = a3 + 0x300\n 10917: a1 = u64 [a5 + 0xf8]\n 10921: a2 = u64 [a5 + 0xf0]\n 10925: a4 = u64 [a5 + 0xe8]\n 10929: t0 = 370, jump @1479\n      : @420 [@dyn 185] (gas: 1)\n 10935: jump @422 if a0 == 0\n      : @421 (gas: 1)\n 10938: jump @827\n      : @422 (gas: 14)\n 10941: a0 = u64 [s1 + 0xe0]\n 10945: a2 = a3 + 0x300\n 10949: u64 [a2 + 0xc8] = a0\n 10953: a0 = u64 [s1 + 0xe8]\n 10957: u64 [a2 + 0xd0] = a0\n 10961: a0 = u64 [s1 + 0xf0]\n 10965: u64 [a2 + 0xd8] = a0\n 10969: a1 = s1 + 0x1440\n 10973: a0 = u64 [s1 + 0xf8]\n 10977: u64 [a2 + 0xe0] = a0\n 10981: a0 = a4\n 10983: u64 [s1 + 0xf8] = a4\n 10987: ra = 0x196\n 10991: jump @9\n      : @423 (gas: 10)\n 10994: u64 [a3 + 1312] = 0\n 10998: u64 [a3 + 1304] = 0\n 11002: u64 [a3 + 1296] = 0\n 11006: u64 [a3 + 1288] = 0\n 11010: a0 = s1 + 0x2000\n 11014: i32 a0 = a0 + 0x580\n 11018: ra = 0x174\n 11022: ecalli 17 // 'value_transferred'\n 11024: t0 = 0x176\n 11028: jump @1483\n      : @424 [@dyn 186] (gas: 1)\n 11031: t0 = 374, jump @1483\n      : @425 [@dyn 187] (gas: 1)\n 11037: t0 = 376, jump @1475\n      : @426 [@dyn 188] (gas: 1)\n 11043: jump @428 if a0 == 0\n      : @427 (gas: 1)\n 11046: jump @883\n      : @428 (gas: 3)\n 11049: a0 = u64 [s1 + 0xf8]\n 11053: a0 = i32 [a0]\n 11055: jump @430 if a0 >u 67\n      : @429 (gas: 1)\n 11059: jump @884\n      : @430 (gas: 4)\n 11062: a0 = s1 + 0x460\n 11066: ra = 0x17a\n 11070: t0 = 0x4de\n 11074: jump @1493\n      : @431 [@dyn 189] (gas: 10)\n 11077: a0 = u64 [s1 + 0x460]\n 11081: u64 [s1 + 0xf0] = a0\n 11085: a0 = u64 [s1 + 0x468]\n 11089: u64 [s1 + 0xe8] = a0\n 11093: a0 = u32 [s1 + 0x470]\n 11097: u64 [s1 + 0xe0] = a0\n 11101: a0 = s1 + 0x440\n 11105: ra = 0x17c\n 11109: t0 = 0x4e8\n 11113: jump @1499\n      : @432 [@dyn 190] (gas: 12)\n 11116: a0 = u64 [s1 + 0x440]\n 11120: u64 [s1 + 0xf8] = a0\n 11124: u64 [s1 + 1080] = 0\n 11128: a0 = u64 [s1 + 0xe0]\n 11132: u64 [s1 + 0x430] = a0\n 11136: a0 = u64 [s1 + 0xe8]\n 11140: u64 [s1 + 0x428] = a0\n 11144: a1 = s1 + 0x420\n 11148: a0 = u64 [s1 + 0xf0]\n 11152: u64 [s1 + 0x420] = a0\n 11156: a0 = 0\n 11158: ra = 382, jump @9\n      : @433 [@dyn 191] (gas: 7)\n 11164: u64 [s1 + 1048] = 0\n 11168: u64 [s1 + 1040] = 0\n 11172: u64 [s1 + 1024] = 0x5\n 11177: a0 = 0x20\n 11180: a1 = s1 + 0x400\n 11184: u64 [s1 + 1032] = 0\n 11188: ra = 384, jump @9\n      : @434 [@dyn 192] (gas: 3)\n 11194: a1 = 0x20150\n 11199: a0 = i32 [0x20150]\n 11204: jump @436 if a0 >u 63\n      : @435 (gas: 2)\n 11208: u32 [0x20150] = 0x40\n 11214: fallthrough\n      : @436 (gas: 14)\n 11215: a0 = sp + 0xffffffffffffffe0\n 11218: a2 = a0 & 0xffffffffffffffe0\n 11221: u64 [s1 + 0xe0] = a2\n 11225: sp = a2\n 11227: a0 = 0x20160\n 11232: i32 a0 = a0 + 0\n 11234: i32 a2 = a2 + 0\n 11236: u64 [s1 + 0xf0] = a1\n 11240: a1 = 0x40\n 11243: u64 [s1 + 0xe8] = a0\n 11247: ra = 0x182\n 11251: ecalli 9 // 'hash_keccak_256'\n 11253: t0 = 0x184\n 11257: jump @1451\n      : @437 [@dyn 193] (gas: 1)\n 11260: t0 = 388, jump @1451\n      : @438 [@dyn 194] (gas: 8)\n 11266: u64 [s1 + 1016] = 0\n 11270: u64 [s1 + 1008] = 0\n 11274: u64 [s1 + 1000] = 0\n 11278: a1 = s1 + 0x3e0\n 11282: a0 = u64 [s1 + 0xf8]\n 11286: u64 [s1 + 0x3e0] = a0\n 11290: a0 = 0\n 11292: ra = 390, jump @9\n      : @439 [@dyn 195] (gas: 12)\n 11298: a0 = u64 [s1 + 0xc0]\n 11302: a3 = s1 + 0x300\n 11306: u64 [a3 + 0xd8] = a0\n 11310: a0 = u64 [s1 + 0xc8]\n 11314: u64 [a3 + 0xd0] = a0\n 11318: a0 = u64 [s1 + 0xd0]\n 11322: u64 [a3 + 0xc8] = a0\n 11326: a0 = 0x20\n 11329: a1 = s1 + 0x3c0\n 11333: a2 = u64 [s1 + 0xd8]\n 11337: u64 [a3 + 0xc0] = a2\n 11341: ra = 392, jump @9\n      : @440 [@dyn 196] (gas: 3)\n 11347: a1 = u64 [s1 + 0xf0]\n 11351: a0 = i32 [a1]\n 11353: jump @442 if a0 >u 63\n      : @441 (gas: 2)\n 11357: u32 [a1 + 0] = 0x40\n 11360: fallthrough\n      : @442 (gas: 4)\n 11361: a0 = sp + 0xffffffffffffffe0\n 11364: a0 = a0 & 0xffffffffffffffe0\n 11367: u64 [s1 + 0xf8] = a0\n 11371: t0 = 394, jump @1465\n      : @443 [@dyn 197] (gas: 4)\n 11377: ra = 0x18c\n 11381: ecalli 9 // 'hash_keccak_256'\n 11383: t0 = 0x18e\n 11387: jump @1454\n      : @444 [@dyn 198] (gas: 1)\n 11390: t0 = 398, jump @1454\n      : @445 [@dyn 199] (gas: 2)\n 11396: a0 = s1 + 0x3a0\n 11400: ra = 400, jump @11\n      : @446 [@dyn 200] (gas: 11)\n 11406: a0 = u64 [s1 + 0x3b8]\n 11410: u64 [s1 + 0xf8] = a0\n 11414: a0 = u64 [s1 + 0x3b0]\n 11418: u64 [s1 + 0xf0] = a0\n 11422: a0 = u64 [s1 + 0x3a8]\n 11426: u64 [s1 + 0xe8] = a0\n 11430: a0 = u64 [s1 + 0x3a0]\n 11434: u64 [s1 + 0xe0] = a0\n 11438: a0 = s1 + 0x380\n 11442: a1 = 0x40\n 11445: ra = 402, jump @7\n      : @447 [@dyn 201] (gas: 6)\n 11451: a4 = s1 + 0x300\n 11455: a0 = u64 [a4 + 0x98]\n 11459: a1 = u64 [a4 + 0x90]\n 11463: a2 = u64 [a4 + 0x88]\n 11467: a3 = u64 [a4 + 0x80]\n 11471: t0 = 404, jump @1459\n      : @448 [@dyn 202] (gas: 1)\n 11477: jump @450 if a0 == 0\n      : @449 (gas: 1)\n 11480: jump @827\n      : @450 (gas: 13)\n 11483: a0 = u64 [s1 + 0xe0]\n 11487: a2 = s1 + 0x300\n 11491: u64 [a2 + 0x60] = a0\n 11494: a0 = u64 [s1 + 0xe8]\n 11498: u64 [a2 + 0x68] = a0\n 11501: a0 = u64 [s1 + 0xf0]\n 11505: u64 [a2 + 0x70] = a0\n 11508: a1 = s1 + 0x360\n 11512: a0 = u64 [s1 + 0xf8]\n 11516: u64 [a2 + 0x78] = a0\n 11519: a0 = a3\n 11521: u64 [s1 + 0xf8] = a3\n 11525: ra = 406, jump @9\n      : @451 [@dyn 203] (gas: 3)\n 11531: a1 = 0x20\n 11534: a0 = u64 [s1 + 0xf8]\n 11538: ra = 408, jump @20\n      : @452 [@dyn 204] (gas: 5)\n 11544: i32 a1 = a0 + 0\n 11546: a2 = 0x20\n 11549: a0 = 0\n 11551: ecalli 14 // 'seal_return'\n 11553: jump @454\n      : @453 (gas: 4)\n 11555: a2 = 0x20\n 11558: a0 = 0\n 11560: ecalli 14 // 'seal_return'\n 11562: fallthrough\n      : @454 (gas: 10)\n 11563: u64 [a2 + 1152] = 0\n 11567: u64 [a2 + 1144] = 0\n 11571: u64 [a2 + 1136] = 0\n 11575: u64 [a2 + 1128] = 0\n 11579: a0 = s1 + 0x3000\n 11583: i32 a0 = a0 + 0xfffffffffffffce0\n 11587: ecalli 17 // 'value_transferred'\n 11589: t0 = 0x19a\n 11593: a3 = s1 + 0x2878\n 11597: fallthrough\n      : @455 [@dyn 205] (gas: 9)\n 11598: a4 = a3 + 0x400\n 11602: a0 = u64 [a4 + 0x78]\n 11605: a1 = u64 [a4 + 0x80]\n 11609: a2 = u64 [a4 + 0x70]\n 11612: a3 = u64 [a4 + 0x68]\n 11615: a1 = a1 | a2\n 11618: a0 = a0 | a3\n 11621: a0 = a0 | a1\n 11624: jump @457 if a0 == 0\n      : @456 (gas: 1)\n 11627: jump @934\n      : @457 (gas: 3)\n 11630: a0 = u64 [s1 + 0xf8]\n 11634: a0 = i32 [a0]\n 11636: jump @459 if a0 >u 3\n      : @458 (gas: 1)\n 11640: jump @934\n      : @459 (gas: 3)\n 11643: a0 = s1 + 0x1f60\n 11647: a1 = u64 [s1 + 0xf0]\n 11651: ra = 412, jump @11\n      : @460 [@dyn 206] (gas: 3)\n 11657: t0 = 0x19e\n 11661: a1 = s1 + 0x1878\n 11665: fallthrough\n      : @461 [@dyn 207] (gas: 12)\n 11666: a3 = a1 + 0x600\n 11670: a0 = u64 [a3 + 0xf8]\n 11674: a2 = u64 [a3 + 0xf0]\n 11678: a1 = u64 [a3 + 0xe8]\n 11682: u64 [s1 + 0xe0] = a0\n 11686: a0 = a0 << 0x20\n 11689: a0 = a0 >> 0x20\n 11692: u64 [s1 + 0xe8] = a1\n 11696: u64 [s1 + 0xd8] = a2\n 11700: a1 = a1 | a2\n 11703: a0 = a0 | a1\n 11706: jump @463 if a0 != 0\n      : @462 (gas: 1)\n 11709: jump @885\n      : @463 (gas: 3)\n 11712: a0 = s1 + 0x1f40\n 11716: a1 = 0x40\n 11719: ra = 416, jump @7\n      : @464 [@dyn 208] (gas: 14)\n 11725: a5 = s1 + 0x1878\n 11729: a1 = a5 + 0x600\n 11733: a3 = u64 [a1 + 0xe0]\n 11737: a4 = u64 [a1 + 0xd8]\n 11741: t0 = u64 [a5 + 0x6d0]\n 11745: a0 = u64 [a1 + 0xc8]\n 11749: a2 = t0 | a3\n 11752: a1 = a0 | a4\n 11755: a1 = a1 | a2\n 11758: a1 = a1 >> 0x20\n 11761: a2 = a2 | a4\n 11764: a2 = a2 << 0x20\n 11767: a1 = a1 | a2\n 11770: jump @466 if a1 == 0\n      : @465 (gas: 1)\n 11773: jump @827\n      : @466 (gas: 11)\n 11776: u64 [a5 + 1720] = 0\n 11780: u64 [a5 + 1712] = 0\n 11784: u64 [a5 + 1704] = 0\n 11788: u64 [s1 + 0xd0] = a3\n 11792: a3 = 0xef5cfb8c00000000\n 11802: a1 = s1 + 0x1f20\n 11806: u64 [a5 + 0x6c0] = a3\n 11810: u64 [s1 + 0xf8] = a0\n 11814: u64 [s1 + 0xc8] = a4\n 11818: u64 [s1 + 0xc0] = t0\n 11822: ra = 418, jump @9\n      : @467 [@dyn 209] (gas: 7)\n 11828: a0 = 0x30160\n 11833: u64 [s1 + 0xf0] = a0\n 11837: i32 a0 = a0 + 0\n 11839: u64 [s1 + 0xb8] = a0\n 11843: ra = 0x1a4\n 11847: ecalli 4 // 'caller'\n 11849: fallthrough\n      : @468 [@dyn 210] (gas: 10)\n 11850: a4 = u64 [s1 + 0xf8]\n 11854: a0 = u64 [s1 + 0xd0]\n 11858: a1 = u64 [s1 + 0xc8]\n 11862: a0 = a0 | a1\n 11865: a1 = 0xfffffffc\n 11875: a1 = a4 <u a1\n 11878: a2 = u64 [s1 + 0xc0]\n 11882: a1 = 0 if a2 != 0\n 11884: a1 = 0 if a0 != 0\n 11886: jump @470 if a1 != 0\n      : @469 (gas: 1)\n 11889: jump @827\n      : @470 (gas: 2)\n 11892: a2 = u64 [s1 + 0xf0]\n 11896: t0 = 422, jump @1463\n      : @471 [@dyn 211] (gas: 7)\n 11902: u64 [a5 + 1696] = 0\n 11906: a4 = a5 + 0x600\n 11910: u64 [a4 + 0x98] = a1\n 11914: u64 [a4 + 0x90] = a2\n 11918: a1 = s1 + 0x1f00\n 11922: u64 [a4 + 0x88] = a3\n 11926: ra = 424, jump @9\n      : @472 [@dyn 212] (gas: 26)\n 11932: ecalli 11 // 'ref_time_left'\n 11934: a0 = u64 [s1 + 0xd8]\n 11938: a0 = reverse a0\n 11940: a1 = a0 << 0x20\n 11943: a2 = u64 [s1 + 0xe0]\n 11947: a2 = reverse a2\n 11949: a2 = a2 >> 0x20\n 11952: a1 = a1 | a2\n 11955: a2 = u64 [s1 + 0xe8]\n 11959: a2 = reverse a2\n 11961: a3 = a2 << 0x20\n 11964: a0 = a0 >> 0x20\n 11967: a0 = a0 | a3\n 11970: a2 = a2 >> 0x20\n 11973: a3 = u64 [s1 + 0xf0]\n 11977: u64 [a3 + 0x8] = a0\n 11980: u64 [a3] = a1\n 11982: u32 [a3 + 0x10] = a2\n 11985: a0 = s1 + 0x2878\n 11989: u64 [a0 + 1184] = 0\n 11993: u64 [a0 + 1176] = 0\n 11997: u64 [a0 + 1168] = 0\n 12001: u64 [a0 + 1160] = 0\n 12005: a1 = 0x24\n 12008: a0 = u64 [s1 + 0xf8]\n 12012: ra = 426, jump @20\n      : @473 [@dyn 213] (gas: 4)\n 12018: u64 [s1 + 0xe8] = a0\n 12022: a1 = 0x20\n 12025: a0 = u64 [s1 + 0xf8]\n 12029: ra = 428, jump @20\n      : @474 [@dyn 214] (gas: 33)\n 12035: a2 = s1 + 0x2878\n 12039: u32 [a2 + 1192] = 0x20\n 12044: a3 = a2 + 0x400\n 12048: u64 [a3 + 224] = 0xffffffffffffffff\n 12053: u64 [a3 + 216] = 0xffffffffffffffff\n 12058: u64 [a3 + 208] = 0xffffffffffffffff\n 12063: u64 [a3 + 200] = 0xffffffffffffffff\n 12068: a1 = u64 [s1 + 0xf0]\n 12072: a1 = a1 << 0x20\n 12075: a1 = a1 >> 0x20\n 12078: a2 = 0x800000000\n 12088: t0 = a1 | a2\n 12091: a1 = s1 + 0x2d00\n 12095: a1 = a1 << 0x20\n 12098: a1 = a1 >> 0x20\n 12101: a2 = s1 + 0x2d40\n 12105: a2 = a2 << 0x20\n 12108: a3 = a2 | a1\n 12111: a1 = u64 [s1 + 0xe8]\n 12115: a1 = a1 << 0x20\n 12118: a1 = a1 >> 0x20\n 12121: a2 = 0x2400000000\n 12131: a4 = a1 | a2\n 12134: a0 = a0 << 0x20\n 12137: a0 = a0 >> 0x20\n 12140: a1 = s1 + 0x2d20\n 12144: a1 = a1 << 0x20\n 12147: a5 = a1 | a0\n 12150: a1 = 0xffffffffffffffff\n 12153: a2 = 0xffffffffffffffff\n 12156: a0 = t0\n 12158: ecalli 0 // 'call'\n 12159: fallthrough\n      : @475 (gas: 1)\n 12160: jump @477 if a0 == 0\n      : @476 (gas: 1)\n 12163: jump @777\n      : @477 (gas: 2)\n 12166: ecalli 13 // 'return_data_size'\n 12168: fallthrough\n      : @478 (gas: 2)\n 12169: a4 = 0x20\n 12172: jump @480 if a0 >=u a4\n      : @479 (gas: 4)\n 12175: ecalli 13 // 'return_data_size'\n 12177: a4 = a0\n 12179: a2 = s1 + 0x1878\n 12183: jump @481\n      : @480 (gas: 2)\n 12185: a2 = s1 + 0x1878\n 12189: fallthrough\n      : @481 (gas: 18)\n 12190: a3 = u64 [s1 + 0xf8]\n 12194: a0 = u64 [s1 + 0xc8]\n 12198: a1 = u64 [s1 + 0xc0]\n 12202: u64 [s1 + 224] = 0\n 12206: u64 [s1 + 0xe8] = a4\n 12210: a5 = a2 + 0x600\n 12214: u64 [a5 + 0x28] = a4\n 12217: u64 [a5 + 0x48] = a3\n 12220: u64 [a2 + 1584] = 0\n 12224: u64 [a5 + 0x50] = a1\n 12227: u64 [a2 + 1592] = 0\n 12231: u64 [a5 + 0x58] = a0\n 12234: u64 [a2 + 1600] = 0\n 12238: a0 = s1 + 0x1ec0\n 12242: a1 = s1 + 0x1ea0\n 12246: a4 = u64 [s1 + 0xd0]\n 12250: u64 [a5 + 0x60] = a4\n 12253: ra = 430, jump @1246\n      : @482 [@dyn 215] (gas: 4)\n 12259: a3 = u64 [s1 + 0xe0]\n 12263: a0 = a3 >u 0\n 12265: a1 = u64 [s1 + 0xe8]\n 12269: t0 = 432, jump @1458\n      : @483 [@dyn 216] (gas: 1)\n 12275: jump @485 if a2 != 0\n      : @484 (gas: 1)\n 12278: jump @922\n      : @485 (gas: 3)\n 12281: a0 = s1 + 0x1e80\n 12285: a1 = u64 [s1 + 0xf8]\n 12289: ra = 434, jump @7\n      : @486 [@dyn 217] (gas: 14)\n 12295: a0 = s1 + 0x1878\n 12299: a5 = a0 + 0x600\n 12303: a1 = u64 [a5 + 0x20]\n 12306: a2 = u64 [a5 + 0x18]\n 12309: a3 = u64 [a5 + 0x10]\n 12312: a4 = u64 [a5 + 0x8]\n 12315: u64 [s1 + 0xf8] = a1\n 12319: u64 [s1 + 0xe0] = a3\n 12323: a0 = a3 | a1\n 12326: u64 [s1 + 0xe8] = a2\n 12330: u64 [s1 + 0xd8] = a4\n 12334: a1 = a4 | a2\n 12337: a0 = a0 | a1\n 12340: jump @490 if a0 == 0\n      : @487 (gas: 6)\n 12343: a0 = u64 [s1 + 0xb8]\n 12347: ra = 0x1b4\n 12351: ecalli 4 // 'caller'\n 12353: a2 = u64 [s1 + 0xf0]\n 12357: t0 = 0x1b6\n 12361: jump @1446\n      : @488 [@dyn 218] (gas: 2)\n 12364: a2 = u64 [s1 + 0xf0]\n 12368: t0 = 438, jump @1446\n      : @489 [@dyn 219] (gas: 16)\n 12374: a4 = u64 [s1 + 0xf8]\n 12378: a5 = a2 + 0x500\n 12382: u64 [a5 + 0xe0] = a4\n 12386: a4 = u64 [s1 + 0xe8]\n 12390: u64 [a5 + 0xd8] = a4\n 12394: a4 = u64 [s1 + 0xe0]\n 12398: u64 [a5 + 0xd0] = a4\n 12402: a4 = u64 [s1 + 0xd8]\n 12406: u64 [a5 + 0xc8] = a4\n 12410: u64 [a2 + 1536] = 0\n 12414: u64 [a5 + 0xf8] = a1\n 12418: u64 [a5 + 0xf0] = a0\n 12422: a0 = s1 + 0x1e60\n 12426: a1 = s1 + 0x1e40\n 12430: u64 [a5 + 0xe8] = a3\n 12434: ra = 440, jump @1264\n      : @490 [@dyn 220] (gas: 3)\n 12440: a0 = s1 + 0x1e20\n 12444: a1 = 0x40\n 12447: ra = 442, jump @7\n      : @491 [@dyn 221] (gas: 7)\n 12453: a3 = s1 + 0x1878\n 12457: a5 = a3 + 0x500\n 12461: a0 = u64 [a5 + 0xc0]\n 12465: a1 = u64 [a5 + 0xb8]\n 12469: a2 = u64 [a5 + 0xb0]\n 12473: a4 = u64 [a5 + 0xa8]\n 12477: t0 = 444, jump @1479\n      : @492 [@dyn 222] (gas: 1)\n 12483: jump @494 if a0 == 0\n      : @493 (gas: 1)\n 12486: jump @827\n      : @494 (gas: 14)\n 12489: a0 = u64 [s1 + 0xd8]\n 12493: a2 = a3 + 0x500\n 12497: u64 [a2 + 0x88] = a0\n 12501: a0 = u64 [s1 + 0xe0]\n 12505: u64 [a2 + 0x90] = a0\n 12509: a0 = u64 [s1 + 0xe8]\n 12513: u64 [a2 + 0x98] = a0\n 12517: a1 = s1 + 0x1e00\n 12521: a0 = u64 [s1 + 0xf8]\n 12525: u64 [a2 + 0xa0] = a0\n 12529: a0 = a4\n 12531: u64 [s1 + 0xf8] = a4\n 12535: ra = 0x196\n 12539: jump @9\n      : @495 (gas: 10)\n 12542: u64 [a3 + 1120] = 0\n 12546: u64 [a3 + 1112] = 0\n 12550: u64 [a3 + 1104] = 0\n 12554: u64 [a3 + 1096] = 0\n 12558: a0 = s1 + 0x2000\n 12562: i32 a0 = a0 + 0x4c0\n 12566: ra = 0x1be\n 12570: ecalli 17 // 'value_transferred'\n 12572: t0 = 0x1c0\n 12576: jump @1496\n      : @496 [@dyn 223] (gas: 1)\n 12579: t0 = 448, jump @1496\n      : @497 [@dyn 224] (gas: 8)\n 12585: a0 = u64 [a4 + 0x58]\n 12588: a1 = u64 [a4 + 0x60]\n 12591: a2 = u64 [a4 + 0x50]\n 12594: a3 = u64 [a4 + 0x48]\n 12597: a1 = a1 | a2\n 12600: a0 = a0 | a3\n 12603: a0 = a0 | a1\n 12606: jump @499 if a0 == 0\n      : @498 (gas: 1)\n 12609: jump @889\n      : @499 (gas: 3)\n 12612: a0 = u64 [s1 + 0xf8]\n 12616: a0 = i32 [a0]\n 12618: jump @501 if a0 >u 35\n      : @500 (gas: 1)\n 12622: jump @890\n      : @501 (gas: 4)\n 12625: a0 = s1 + 0x300\n 12629: ra = 0x1c2\n 12633: t0 = 0x4de\n 12637: jump @1493\n      : @502 [@dyn 225] (gas: 10)\n 12640: a0 = u64 [s1 + 0x300]\n 12644: a1 = u64 [s1 + 0x308]\n 12648: a2 = u32 [s1 + 0x310]\n 12652: u64 [s1 + 760] = 0\n 12656: u64 [s1 + 0x2f0] = a2\n 12660: u64 [s1 + 0x2e8] = a1\n 12664: a1 = s1 + 0x2e0\n 12668: u64 [s1 + 0x2e0] = a0\n 12672: a0 = 0\n 12674: ra = 452, jump @9\n      : @503 [@dyn 226] (gas: 7)\n 12680: u64 [s1 + 728] = 0\n 12684: u64 [s1 + 720] = 0\n 12688: u64 [s1 + 704] = 0x2\n 12693: a0 = 0x20\n 12696: a1 = s1 + 0x2c0\n 12700: u64 [s1 + 712] = 0\n 12704: ra = 454, jump @9\n      : @504 [@dyn 227] (gas: 6)\n 12710: a0 = sp + 0xffffffffffffffe0\n 12713: a0 = a0 & 0xffffffffffffffe0\n 12716: u64 [s1 + 0xd8] = a0\n 12720: sp = a0\n 12722: a1 = i32 [0x20150]\n 12727: jump @506 if a1 >u 63\n      : @505 (gas: 2)\n 12731: u32 [0x20150] = 0x40\n 12737: fallthrough\n      : @506 (gas: 12)\n 12738: a0 = sp + 0xffffffffffffffe0\n 12741: a2 = a0 & 0xffffffffffffffe0\n 12744: u64 [s1 + 0xf8] = a2\n 12748: sp = a2\n 12750: a0 = 0x20160\n 12755: i32 a0 = a0 + 0\n 12757: i32 a2 = a2 + 0\n 12759: a1 = 0x40\n 12762: ra = 0x1c8\n 12766: ecalli 9 // 'hash_keccak_256'\n 12768: t0 = 0x1ca\n 12772: jump @1501\n      : @507 [@dyn 228] (gas: 1)\n 12775: t0 = 458, jump @1501\n      : @508 [@dyn 229] (gas: 14)\n 12781: u64 [s1 + 0xe8] = a5\n 12785: a4 = reverse a1\n 12787: u64 [s1 + 0xf0] = a4\n 12791: a2 = reverse a2\n 12793: u64 [s1 + 0xe0] = a2\n 12797: a0 = reverse a3\n 12799: u64 [s1 + 0xf8] = a0\n 12803: a1 = u64 [s1 + 0xd8]\n 12807: u64 [a1 + 0x18] = a0\n 12810: u64 [a1 + 0x10] = a2\n 12813: u64 [a1 + 0x8] = a4\n 12816: u64 [a1] = a5\n 12818: a0 = s1 + 0x2a0\n 12822: ra = 460, jump @11\n      : @509 [@dyn 230] (gas: 29)\n 12828: a0 = u64 [s1 + 0x2b8]\n 12832: u64 [s1 + 0xd8] = a0\n 12836: a0 = u64 [s1 + 0x2b0]\n 12840: u64 [s1 + 0xd0] = a0\n 12844: a0 = u64 [s1 + 0x2a8]\n 12848: u64 [s1 + 0xc8] = a0\n 12852: a0 = u64 [s1 + 0x2a0]\n 12856: u64 [s1 + 0xc0] = a0\n 12860: a0 = u64 [s1 + 0xe8]\n 12864: a0 = a0 + 0x1\n 12867: a1 = a0 <u 0x1\n 12870: a2 = u64 [s1 + 0xf0]\n 12874: a1 = a1 + a2\n 12877: a2 = s1 + 0x2078\n 12881: a3 = a2 + 0x400\n 12885: u64 [a3 + 0x70] = a1\n 12888: a1 = a1 | a0\n 12891: u64 [a3 + 0x68] = a0\n 12894: a0 = a1 <u 0x1\n 12897: a1 = u64 [s1 + 0xe0]\n 12901: a0 = a0 + a1\n 12904: u64 [a3 + 0x78] = a0\n 12907: a0 = a0 <u a1\n 12910: a1 = u64 [s1 + 0xf8]\n 12914: a0 = a0 + a1\n 12917: u64 [a3 + 0x80] = a0\n 12921: a0 = s1 + 0x280\n 12925: a1 = s1 + 0x24e0\n 12929: ra = 462, jump @11\n      : @510 [@dyn 231] (gas: 29)\n 12935: a0 = u64 [s1 + 0x298]\n 12939: u64 [s1 + 0xb8] = a0\n 12943: a0 = u64 [s1 + 0x290]\n 12947: u64 [s1 + 0xb0] = a0\n 12951: a0 = u64 [s1 + 0x288]\n 12955: u64 [s1 + 0xa8] = a0\n 12959: a0 = u64 [s1 + 0x280]\n 12963: u64 [s1 + 0xa0] = a0\n 12967: a1 = u64 [s1 + 0xe8]\n 12971: a0 = a1 + 0x2\n 12974: a1 = a0 <u a1\n 12977: a3 = u64 [s1 + 0xf0]\n 12981: a2 = a3 + a1\n 12984: a3 = a2 <u a3\n 12987: a3 = a1 if a1 == 0\n 12990: a1 = u64 [s1 + 0xe0]\n 12994: a3 = a3 + a1\n 12997: a1 = a3 <u a1\n 13000: a4 = u64 [s1 + 0xf8]\n 13004: a1 = a1 + a4\n 13007: a4 = s1 + 0x2078\n 13011: a5 = a4 + 0x400\n 13015: u64 [a5 + 0xa0] = a1\n 13019: u64 [a5 + 0x98] = a3\n 13023: u64 [a5 + 0x90] = a2\n 13027: u64 [a5 + 0x88] = a0\n 13031: a0 = s1 + 0x260\n 13035: a1 = s1 + 0x2500\n 13039: ra = 464, jump @11\n      : @511 [@dyn 232] (gas: 29)\n 13045: a0 = u64 [s1 + 0x278]\n 13049: u64 [s1 + 0x98] = a0\n 13053: a0 = u64 [s1 + 0x270]\n 13057: u64 [s1 + 0x90] = a0\n 13061: a1 = u64 [s1 + 0xe8]\n 13065: a0 = a1 + 0x3\n 13068: a1 = a0 <u a1\n 13071: a3 = u64 [s1 + 0xf0]\n 13075: a2 = a3 + a1\n 13078: a3 = a2 <u a3\n 13081: a3 = a1 if a1 == 0\n 13084: a1 = u64 [s1 + 0x268]\n 13088: u64 [s1 + 0xe8] = a1\n 13092: a1 = u64 [s1 + 0xe0]\n 13096: a3 = a3 + a1\n 13099: a1 = a3 <u a1\n 13102: a4 = u64 [s1 + 0xf8]\n 13106: a1 = a1 + a4\n 13109: a4 = u64 [s1 + 0x260]\n 13113: u64 [s1 + 0xe0] = a4\n 13117: a4 = s1 + 0x2078\n 13121: a5 = a4 + 0x400\n 13125: u64 [a5 + 0xc0] = a1\n 13129: u64 [a5 + 0xb8] = a3\n 13133: u64 [a5 + 0xb0] = a2\n 13137: u64 [a5 + 0xa8] = a0\n 13141: a0 = s1 + 0x240\n 13145: a1 = s1 + 0x2520\n 13149: ra = 466, jump @11\n      : @512 [@dyn 233] (gas: 5)\n 13155: a0 = u64 [s1 + 0x240]\n 13159: u64 [s1 + 0x88] = a0\n 13163: a0 = s1 + 0x220\n 13167: a1 = 0x40\n 13170: ra = 468, jump @7\n      : @513 [@dyn 234] (gas: 13)\n 13176: a0 = s1 + 0x200\n 13180: a4 = u64 [a0 + 0x38]\n 13183: a5 = u64 [a0 + 0x30]\n 13186: a3 = u64 [a0 + 0x28]\n 13189: a2 = u64 [a0 + 0x20]\n 13192: a0 = a3 | a4\n 13195: a1 = a2 | a5\n 13198: a1 = a1 | a0\n 13201: a1 = a1 >> 0x20\n 13204: a0 = a0 | a5\n 13207: a0 = a0 << 0x20\n 13210: a0 = a0 | a1\n 13213: jump @515 if a0 == 0\n      : @514 (gas: 1)\n 13216: jump @827\n      : @515 (gas: 15)\n 13219: a0 = u64 [s1 + 0xc0]\n 13223: u64 [s1 + 0x200] = a0\n 13227: a0 = u64 [s1 + 0xc8]\n 13231: u64 [s1 + 0x208] = a0\n 13235: a0 = u64 [s1 + 0xd0]\n 13239: u64 [s1 + 0x210] = a0\n 13243: a1 = s1 + 0x200\n 13247: a0 = u64 [s1 + 0xd8]\n 13251: u64 [s1 + 0x218] = a0\n 13255: a0 = a2\n 13257: u64 [s1 + 0xf8] = a2\n 13261: u64 [s1 + 0xf0] = a3\n 13265: u64 [s1 + 0xd8] = a4\n 13269: u64 [s1 + 0xd0] = a5\n 13273: ra = 470, jump @9\n      : @516 [@dyn 235] (gas: 11)\n 13279: a1 = u64 [s1 + 0xf8]\n 13283: a0 = u64 [s1 + 0xd8]\n 13287: a3 = u64 [s1 + 0xd0]\n 13291: a3 = a3 | a0\n 13294: a4 = 0x100000000\n 13304: a0 = 0xffffffe0\n 13314: a0 = a1 <u a0\n 13317: a2 = u64 [s1 + 0xf0]\n 13321: a0 = 0 if a2 != 0\n 13323: a0 = 0 if a3 != 0\n 13325: jump @518 if a0 != 0\n      : @517 (gas: 1)\n 13328: jump @827\n      : @518 (gas: 14)\n 13331: i32 a0 = a1 + 0x20\n 13334: a1 = u64 [s1 + 0xa0]\n 13338: a5 = s1 + 0x100\n 13342: u64 [a5 + 0xe0] = a1\n 13346: a1 = u64 [s1 + 0xa8]\n 13350: u64 [a5 + 0xe8] = a1\n 13354: a1 = u64 [s1 + 0xb0]\n 13358: u64 [a5 + 0xf0] = a1\n 13362: a1 = s1 + 0x1e0\n 13366: a2 = u64 [s1 + 0xb8]\n 13370: u64 [a5 + 0xf8] = a2\n 13374: u64 [s1 + 0xd8] = a3\n 13378: u64 [s1 + 0xd0] = a4\n 13382: ra = 472, jump @9\n      : @519 [@dyn 236] (gas: 9)\n 13388: a4 = u64 [s1 + 0xd8]\n 13392: a3 = u64 [s1 + 0xf0]\n 13396: a1 = u64 [s1 + 0xf8]\n 13400: a0 = u64 [s1 + 0xd0]\n 13404: a0 = a0 + 0xffffffffffffffc0\n 13407: a0 = a1 <u a0\n 13410: a0 = 0 if a3 != 0\n 13412: a0 = 0 if a4 != 0\n 13414: jump @521 if a0 != 0\n      : @520 (gas: 1)\n 13417: jump @827\n      : @521 (gas: 12)\n 13420: i32 a0 = a1 + 0x40\n 13423: a1 = u64 [s1 + 0xe0]\n 13427: a3 = s1 + 0x100\n 13431: u64 [a3 + 0xc0] = a1\n 13435: a1 = u64 [s1 + 0xe8]\n 13439: u64 [a3 + 0xc8] = a1\n 13443: a1 = u64 [s1 + 0x90]\n 13447: u64 [a3 + 0xd0] = a1\n 13451: a1 = s1 + 0x1c0\n 13455: a2 = u64 [s1 + 0x98]\n 13459: u64 [a3 + 0xd8] = a2\n 13463: ra = 474, jump @9\n      : @522 [@dyn 237] (gas: 8)\n 13469: a2 = u64 [s1 + 0xf8]\n 13473: a0 = 0xffffffa0\n 13483: a0 = a2 <u a0\n 13486: a1 = u64 [s1 + 0xf0]\n 13490: a0 = 0 if a1 != 0\n 13492: a1 = u64 [s1 + 0xd8]\n 13496: a0 = 0 if a1 != 0\n 13498: jump @524 if a0 != 0\n      : @523 (gas: 1)\n 13501: jump @827\n      : @524 (gas: 10)\n 13504: a0 = u64 [s1 + 0x88]\n 13508: a0 = a0 << 0x20\n 13511: a1 = a0 >> 0x20\n 13514: i32 a0 = a2 + 0x60\n 13517: u64 [s1 + 440] = 0\n 13521: u64 [s1 + 432] = 0\n 13525: u64 [s1 + 0x1a0] = a1\n 13529: a1 = s1 + 0x1a0\n 13533: u64 [s1 + 424] = 0\n 13537: ra = 476, jump @9\n      : @525 [@dyn 238] (gas: 3)\n 13543: a1 = 0x80\n 13547: a0 = u64 [s1 + 0xf8]\n 13551: ra = 478, jump @20\n      : @526 [@dyn 239] (gas: 5)\n 13557: i32 a1 = a0 + 0\n 13559: a2 = 0x80\n 13563: a0 = 0\n 13565: ecalli 14 // 'seal_return'\n 13567: jump @454\n      : @527 (gas: 6)\n 13570: u64 [s1 + 0xa0] = a4\n 13574: u64 [s1 + 0xa8] = a3\n 13578: u64 [s1 + 0xb0] = a2\n 13582: a0 = s1 + 0x1d60\n 13586: a1 = 0x40\n 13589: ra = 480, jump @7\n      : @528 [@dyn 240] (gas: 2)\n 13595: a2 = s1 + 0x1878\n 13599: fallthrough\n      : @529 (gas: 13)\n 13600: t0 = u64 [a2 + 0x500]\n 13604: a1 = a2 + 0x400\n 13608: a5 = u64 [a1 + 0xf8]\n 13612: a4 = u64 [a1 + 0xf0]\n 13616: a0 = u64 [a1 + 0xe8]\n 13620: a3 = a4 | t0\n 13623: a1 = a0 | a5\n 13626: a1 = a1 | a3\n 13629: a1 = a1 >> 0x20\n 13632: a3 = a3 | a5\n 13635: a3 = a3 << 0x20\n 13638: a1 = a1 | a3\n 13641: jump @531 if a1 == 0\n      : @530 (gas: 1)\n 13644: jump @827\n      : @531 (gas: 11)\n 13647: u64 [a2 + 1240] = 0\n 13651: u64 [a2 + 1232] = 0\n 13655: u64 [a2 + 1224] = 0\n 13659: a3 = 0x4da6a55600000000\n 13669: a1 = s1 + 0x1d40\n 13673: u64 [a2 + 0x4e0] = a3\n 13677: u64 [s1 + 0xb8] = a0\n 13681: u64 [s1 + 0x98] = t0\n 13685: u64 [s1 + 0x90] = a5\n 13689: u64 [s1 + 0x88] = a4\n 13693: ra = 482, jump @9\n      : @532 [@dyn 241] (gas: 3)\n 13699: a0 = u64 [s1 + 0xe0]\n 13703: ecalli 4 // 'caller'\n 13705: fallthrough\n      : @533 (gas: 10)\n 13706: a4 = u64 [s1 + 0xb8]\n 13710: a0 = u64 [s1 + 0x98]\n 13714: a1 = u64 [s1 + 0x90]\n 13718: a0 = a0 | a1\n 13721: a1 = 0xfffffffc\n 13731: a1 = a4 <u a1\n 13734: a2 = u64 [s1 + 0x88]\n 13738: a1 = 0 if a2 != 0\n 13740: a1 = 0 if a0 != 0\n 13742: jump @535 if a1 != 0\n      : @534 (gas: 1)\n 13745: jump @827\n      : @535 (gas: 25)\n 13748: a2 = u64 [s1 + 0xf8]\n 13752: a1 = u64 [a2 + 0x8]\n 13755: a0 = 0x2400000000\n 13765: u64 [s1 + 0x80] = a0\n 13769: a0 = i32 [a2 + 0x10]\n 13772: a2 = u64 [a2]\n 13774: a1 = reverse a1\n 13776: a3 = a1 << 0x20\n 13779: a0 = reverse a0\n 13781: a0 = a0 >> 0x20\n 13784: a3 = a3 | a0\n 13787: a1 = a1 >> 0x20\n 13790: a0 = reverse a2\n 13792: a2 = a0 << 0x20\n 13795: a1 = a1 | a2\n 13798: a2 = a0 >> 0x20\n 13801: i32 a0 = a4 + 0x4\n 13804: a5 = s1 + 0x1878\n 13808: u64 [a5 + 1216] = 0\n 13812: a4 = a5 + 0x400\n 13816: u64 [a4 + 0xb8] = a2\n 13820: u64 [a4 + 0xb0] = a1\n 13824: a1 = s1 + 0x1d20\n 13828: u64 [a4 + 0xa8] = a3\n 13832: ra = 484, jump @9\n      : @536 [@dyn 242] (gas: 29)\n 13838: ecalli 11 // 'ref_time_left'\n 13840: a0 = u64 [s1 + 0xa0]\n 13844: a0 = reverse a0\n 13846: a1 = a0 << 0x20\n 13849: a2 = u64 [s1 + 0xa8]\n 13853: a2 = reverse a2\n 13855: a2 = a2 >> 0x20\n 13858: a3 = a2 | a1\n 13861: a1 = u64 [s1 + 0xb0]\n 13865: a1 = reverse a1\n 13867: a2 = a1 << 0x20\n 13870: a0 = a0 >> 0x20\n 13873: a0 = a0 | a2\n 13876: a1 = a1 >> 0x20\n 13879: u64 [s1 + 0x78] = a0\n 13882: a2 = u64 [s1 + 0xf8]\n 13886: u64 [a2 + 0x8] = a0\n 13889: u64 [s1 + 0xa8] = a3\n 13893: u64 [a2] = a3\n 13895: u64 [s1 + 0xa0] = a1\n 13899: u32 [a2 + 0x10] = a1\n 13902: a0 = s1 + 0x2878\n 13906: u64 [a0 + 768] = 0\n 13910: u64 [a0 + 760] = 0\n 13914: u64 [a0 + 752] = 0\n 13918: u64 [a0 + 744] = 0\n 13922: a1 = 0x24\n 13925: a0 = u64 [s1 + 0xb8]\n 13929: ra = 486, jump @20\n      : @537 [@dyn 243] (gas: 4)\n 13935: u64 [s1 + 0xb0] = a0\n 13939: a1 = 0x20\n 13942: a0 = u64 [s1 + 0xb8]\n 13946: ra = 488, jump @20\n      : @538 [@dyn 244] (gas: 33)\n 13952: a1 = s1 + 0x2878\n 13956: u32 [a1 + 776] = 0x20\n 13961: u64 [a1 + 832] = 0\n 13965: u64 [a1 + 824] = 0\n 13969: u64 [a1 + 816] = 0\n 13973: u64 [a1 + 808] = 0\n 13977: a1 = u64 [s1 + 0xf8]\n 13981: a1 = a1 << 0x20\n 13984: a2 = a1 >> 0x20\n 13987: a1 = 0x1800000000\n 13997: u64 [s1 + 0x70] = a2\n 14000: t0 = a2 | a1\n 14003: a1 = s1 + 0x2b60\n 14007: a1 = a1 << 0x20\n 14010: a1 = a1 >> 0x20\n 14013: a2 = s1 + 0x2ba0\n 14017: a2 = a2 << 0x20\n 14020: a3 = a2 | a1\n 14023: a1 = u64 [s1 + 0xb0]\n 14027: a1 = a1 << 0x20\n 14030: a1 = a1 >> 0x20\n 14033: a4 = u64 [s1 + 0x80]\n 14037: a4 = a4 | a1\n 14040: a0 = a0 << 0x20\n 14043: a0 = a0 >> 0x20\n 14046: a1 = s1 + 0x2b80\n 14050: a1 = a1 << 0x20\n 14053: a5 = a1 | a0\n 14056: a1 = 0xffffffffffffffff\n 14059: a2 = 0xffffffffffffffff\n 14062: a0 = t0\n 14064: ecalli 0 // 'call'\n 14065: fallthrough\n      : @539 (gas: 1)\n 14066: jump @541 if a0 == 0\n      : @540 (gas: 1)\n 14069: jump @784\n      : @541 (gas: 2)\n 14072: ecalli 13 // 'return_data_size'\n 14074: fallthrough\n      : @542 (gas: 2)\n 14075: a5 = 0x20\n 14078: jump @544 if a0 >=u a5\n      : @543 (gas: 4)\n 14081: ecalli 13 // 'return_data_size'\n 14083: a5 = a0\n 14085: a2 = s1 + 0x1878\n 14089: jump @545\n      : @544 (gas: 2)\n 14091: a2 = s1 + 0x1878\n 14095: fallthrough\n      : @545 (gas: 18)\n 14096: a3 = u64 [s1 + 0xb8]\n 14100: t0 = u64 [s1 + 0x98]\n 14104: a0 = u64 [s1 + 0x90]\n 14108: a1 = u64 [s1 + 0x88]\n 14112: u64 [s1 + 152] = 0\n 14116: u64 [s1 + 0xb0] = a5\n 14120: a4 = a2 + 0x400\n 14124: u64 [a4 + 0x48] = a5\n 14127: u64 [a4 + 0x68] = a3\n 14130: u64 [a2 + 1104] = 0\n 14134: u64 [a4 + 0x70] = a1\n 14137: u64 [a2 + 1112] = 0\n 14141: u64 [a4 + 0x78] = a0\n 14144: u64 [a2 + 1120] = 0\n 14148: a0 = s1 + 0x1ce0\n 14152: a1 = s1 + 0x1cc0\n 14156: u64 [a2 + 0x480] = t0\n 14160: ra = 490, jump @1246\n      : @546 [@dyn 245] (gas: 4)\n 14166: a3 = u64 [s1 + 0x98]\n 14170: a0 = a3 >u 0\n 14172: a1 = u64 [s1 + 0xb0]\n 14176: t0 = 492, jump @1458\n      : @547 [@dyn 246] (gas: 1)\n 14182: jump @549 if a2 != 0\n      : @548 (gas: 1)\n 14185: jump @923\n      : @549 (gas: 3)\n 14188: a0 = s1 + 0x1ca0\n 14192: a1 = u64 [s1 + 0xb8]\n 14196: ra = 494, jump @7\n      : @550 [@dyn 247] (gas: 2)\n 14202: a1 = s1 + 0x1878\n 14206: fallthrough\n      : @551 (gas: 13)\n 14207: a4 = a1 + 0x400\n 14211: a3 = u64 [a4 + 0x40]\n 14214: a2 = u64 [a4 + 0x38]\n 14217: a0 = u64 [a4 + 0x30]\n 14220: a1 = u64 [a4 + 0x28]\n 14223: u64 [s1 + 0xb0] = a0\n 14227: u64 [s1 + 0x90] = a3\n 14231: a0 = a0 | a3\n 14234: u64 [s1 + 0xb8] = a1\n 14238: u64 [s1 + 0x98] = a2\n 14242: a1 = a1 | a2\n 14245: a0 = a0 | a1\n 14248: jump @553 if a0 == 0\n      : @552 (gas: 1)\n 14251: jump @796\n      : @553 (gas: 3)\n 14254: a0 = s1 + 0x1ba0\n 14258: a1 = u64 [s1 + 0xf0]\n 14262: ra = 496, jump @11\n      : @554 [@dyn 248] (gas: 3)\n 14268: t0 = 0x1f2\n 14272: a1 = s1 + 0x1878\n 14276: fallthrough\n      : @555 [@dyn 249] (gas: 10)\n 14277: a2 = a1 + 0x300\n 14281: a0 = u64 [a2 + 0x38]\n 14284: u64 [s1 + 0x88] = a0\n 14288: a0 = u64 [a2 + 0x30]\n 14291: u64 [s1 + 0x78] = a0\n 14294: a0 = u64 [a2 + 0x28]\n 14297: u64 [s1 + 0xa0] = a0\n 14301: a0 = s1 + 0x1b80\n 14305: a1 = 0x40\n 14308: ra = 500, jump @7\n      : @556 [@dyn 250] (gas: 14)\n 14314: t0 = s1 + 0x1878\n 14318: a1 = t0 + 0x300\n 14322: a3 = u64 [a1 + 0x20]\n 14325: a4 = u64 [a1 + 0x18]\n 14328: a5 = u64 [a1 + 0x10]\n 14331: a0 = u64 [a1 + 0x8]\n 14334: a2 = a5 | a3\n 14337: a1 = a0 | a4\n 14340: a1 = a1 | a2\n 14343: a1 = a1 >> 0x20\n 14346: a2 = a2 | a4\n 14349: a2 = a2 << 0x20\n 14352: a1 = a1 | a2\n 14355: jump @558 if a1 == 0\n      : @557 (gas: 1)\n 14358: jump @827\n      : @558 (gas: 11)\n 14361: u64 [t0 + 760] = 0\n 14365: u64 [t0 + 752] = 0\n 14369: u64 [t0 + 744] = 0\n 14373: u64 [s1 + 0x68] = a3\n 14376: a3 = 0xef5cfb8c00000000\n 14386: a1 = s1 + 0x1b60\n 14390: u64 [t0 + 0x300] = a3\n 14394: u64 [s1 + 0xa8] = a0\n 14398: u64 [s1 + 0x60] = a4\n 14401: u64 [s1 + 0x58] = a5\n 14404: ra = 502, jump @9\n      : @559 [@dyn 251] (gas: 4)\n 14410: a0 = u64 [s1 + 0xe0]\n 14414: ra = 0x1f8\n 14418: ecalli 4 // 'caller'\n 14420: fallthrough\n      : @560 [@dyn 252] (gas: 10)\n 14421: a4 = u64 [s1 + 0xa8]\n 14425: a0 = u64 [s1 + 0x68]\n 14428: a1 = u64 [s1 + 0x60]\n 14431: a0 = a0 | a1\n 14434: a1 = 0xfffffffc\n 14444: a1 = a4 <u a1\n 14447: a2 = u64 [s1 + 0x58]\n 14450: a1 = 0 if a2 != 0\n 14452: a1 = 0 if a0 != 0\n 14454: jump @562 if a1 != 0\n      : @561 (gas: 1)\n 14457: jump @827\n      : @562 (gas: 2)\n 14460: a2 = u64 [s1 + 0xf8]\n 14464: t0 = 506, jump @1463\n      : @563 [@dyn 253] (gas: 7)\n 14470: u64 [a5 + 736] = 0\n 14474: a4 = a5 + 0x200\n 14478: u64 [a4 + 0xd8] = a1\n 14482: u64 [a4 + 0xd0] = a2\n 14486: a1 = s1 + 0x1b40\n 14490: u64 [a4 + 0xc8] = a3\n 14494: ra = 508, jump @9\n      : @564 [@dyn 254] (gas: 26)\n 14500: ecalli 11 // 'ref_time_left'\n 14502: a0 = u64 [s1 + 0x78]\n 14505: a0 = reverse a0\n 14507: a1 = a0 << 0x20\n 14510: a2 = u64 [s1 + 0x88]\n 14514: a2 = reverse a2\n 14516: a2 = a2 >> 0x20\n 14519: a1 = a1 | a2\n 14522: a2 = u64 [s1 + 0xa0]\n 14526: a2 = reverse a2\n 14528: a3 = a2 << 0x20\n 14531: a0 = a0 >> 0x20\n 14534: a0 = a0 | a3\n 14537: a2 = a2 >> 0x20\n 14540: a3 = u64 [s1 + 0xf8]\n 14544: u64 [a3 + 0x8] = a0\n 14547: u64 [a3] = a1\n 14549: u32 [a3 + 0x10] = a2\n 14552: a0 = s1 + 0x2878\n 14556: u64 [a0 + 1024] = 0\n 14560: u64 [a0 + 1016] = 0\n 14564: u64 [a0 + 1008] = 0\n 14568: u64 [a0 + 1000] = 0\n 14572: a1 = 0x24\n 14575: a0 = u64 [s1 + 0xa8]\n 14579: ra = 510, jump @20\n      : @565 [@dyn 255] (gas: 4)\n 14585: u64 [s1 + 0xa0] = a0\n 14589: a1 = 0x20\n 14592: a0 = u64 [s1 + 0xa8]\n 14596: ra = 512, jump @20\n      : @566 [@dyn 256] (gas: 31)\n 14602: a2 = s1 + 0x2878\n 14606: a3 = a2 + 0x400\n 14610: u32 [a3 + 8] = 0x20\n 14614: u64 [a3 + 64] = 0xffffffffffffffff\n 14618: u64 [a3 + 56] = 0xffffffffffffffff\n 14622: u64 [a3 + 48] = 0xffffffffffffffff\n 14626: u64 [a3 + 40] = 0xffffffffffffffff\n 14630: a1 = 0x800000000\n 14640: a2 = u64 [s1 + 0x70]\n 14643: t0 = a2 | a1\n 14646: a1 = s1 + 0x2c60\n 14650: a1 = a1 << 0x20\n 14653: a1 = a1 >> 0x20\n 14656: a2 = s1 + 0x2ca0\n 14660: a2 = a2 << 0x20\n 14663: a3 = a2 | a1\n 14666: a1 = u64 [s1 + 0xa0]\n 14670: a1 = a1 << 0x20\n 14673: a1 = a1 >> 0x20\n 14676: a4 = u64 [s1 + 0x80]\n 14680: a4 = a4 | a1\n 14683: a0 = a0 << 0x20\n 14686: a0 = a0 >> 0x20\n 14689: a1 = s1 + 0x2c80\n 14693: a1 = a1 << 0x20\n 14696: a5 = a1 | a0\n 14699: a1 = 0xffffffffffffffff\n 14702: a2 = 0xffffffffffffffff\n 14705: a0 = t0\n 14707: ecalli 0 // 'call'\n 14708: fallthrough\n      : @567 (gas: 1)\n 14709: jump @569 if a0 == 0\n      : @568 (gas: 1)\n 14712: jump @813\n      : @569 (gas: 2)\n 14715: ecalli 13 // 'return_data_size'\n 14717: fallthrough\n      : @570 (gas: 2)\n 14718: a4 = 0x20\n 14721: jump @572 if a0 >=u a4\n      : @571 (gas: 4)\n 14724: ecalli 13 // 'return_data_size'\n 14726: a4 = a0\n 14728: a2 = s1 + 0x1878\n 14732: jump @573\n      : @572 (gas: 2)\n 14734: a2 = s1 + 0x1878\n 14738: fallthrough\n      : @573 (gas: 18)\n 14739: a3 = u64 [s1 + 0xa8]\n 14743: a0 = u64 [s1 + 0x60]\n 14746: a1 = u64 [s1 + 0x58]\n 14749: u64 [s1 + 136] = 0\n 14753: u64 [s1 + 0xa0] = a4\n 14757: a5 = a2 + 0x200\n 14761: u64 [a5 + 0x68] = a4\n 14764: u64 [a5 + 0x88] = a3\n 14768: u64 [a2 + 624] = 0\n 14772: u64 [a5 + 0x90] = a1\n 14776: u64 [a2 + 632] = 0\n 14780: u64 [a5 + 0x98] = a0\n 14784: u64 [a2 + 640] = 0\n 14788: a0 = s1 + 0x1b00\n 14792: a1 = s1 + 0x1ae0\n 14796: a4 = u64 [s1 + 0x68]\n 14799: u64 [a5 + 0xa0] = a4\n 14803: ra = 514, jump @1246\n      : @574 [@dyn 257] (gas: 4)\n 14809: a3 = u64 [s1 + 0x88]\n 14813: a0 = a3 >u 0\n 14815: a1 = u64 [s1 + 0xa0]\n 14819: t0 = 516, jump @1458\n      : @575 [@dyn 258] (gas: 1)\n 14825: jump @577 if a2 != 0\n      : @576 (gas: 1)\n 14828: jump @923\n      : @577 (gas: 3)\n 14831: a0 = s1 + 0x1ac0\n 14835: a1 = u64 [s1 + 0xa8]\n 14839: ra = 518, jump @7\n      : @578 [@dyn 259] (gas: 23)\n 14845: a4 = s1 + 0x1878\n 14849: a5 = a4 + 0x200\n 14853: a0 = u64 [a5 + 0x48]\n 14856: a1 = u64 [a5 + 0x50]\n 14859: a2 = u64 [a5 + 0x58]\n 14862: a3 = u64 [a5 + 0x60]\n 14865: u64 [a5] = a3\n 14867: a3 = a4 + 0x100\n 14871: u64 [a3 + 0xf8] = a2\n 14875: u64 [a3 + 0xf0] = a1\n 14879: u64 [a3 + 0xe8] = a0\n 14883: a0 = u64 [s1 + 0x90]\n 14887: u64 [a5 + 0x20] = a0\n 14890: a0 = u64 [s1 + 0x98]\n 14894: u64 [a5 + 0x18] = a0\n 14897: a0 = u64 [s1 + 0xb0]\n 14901: u64 [a5 + 0x10] = a0\n 14904: a0 = s1 + 0x1aa0\n 14908: a1 = s1 + 0x1a80\n 14912: a2 = s1 + 0x1a60\n 14916: a3 = u64 [s1 + 0xb8]\n 14920: u64 [a5 + 0x8] = a3\n 14923: ra = 520, jump @1238\n      : @579 [@dyn 260] (gas: 11)\n 14929: a1 = s1 + 0x1878\n 14933: a2 = a1 + 0x200\n 14937: a0 = u64 [a2 + 0x40]\n 14940: u64 [s1 + 0xb8] = a0\n 14944: a0 = u64 [a2 + 0x38]\n 14947: u64 [s1 + 0xb0] = a0\n 14951: a0 = u64 [a2 + 0x30]\n 14954: u64 [s1 + 0xa8] = a0\n 14958: a0 = u64 [a2 + 0x28]\n 14961: u64 [s1 + 0xc0] = a0\n 14965: jump @179\n      : @580 (gas: 18)\n 14968: a0 = sp + 0xffffffffffffffe0\n 14971: a1 = a0 & 0xffffffffffffffe0\n 14974: sp = a1\n 14976: a0 = t1 <u a2\n 14979: t0 = a5 + a0\n 14982: a2 = t0 <u a5\n 14985: a2 = a0 if a0 == 0\n 14988: a2 = a2 + a4\n 14991: a0 = a2 <u a4\n 14994: a0 = a0 + a3\n 14997: u64 [a1 + 0x8] = t0\n 15000: u64 [a1] = t1\n 15002: u64 [a1 + 0x10] = a2\n 15005: u64 [a1 + 0x18] = a0\n 15008: a0 = s1 + 0x7ff\n 15012: a0 = a0 + 0x461\n 15016: u64 [s1 + 0x70] = a1\n 15019: ra = 522, jump @11\n      : @581 [@dyn 261] (gas: 29)\n 15025: a0 = s1 + 0x7ff\n 15029: a0 = a0 + 0x79\n 15032: a5 = u64 [a0 + 0x400]\n 15036: a4 = a0 + 0x300\n 15040: a3 = u64 [a4 + 0xf8]\n 15044: a2 = u64 [a4 + 0xf0]\n 15048: a1 = u64 [a4 + 0xe8]\n 15052: a4 = u64 [s1 + 0xe0]\n 15056: ra = a5 ^ a4\n 15059: u64 [s1 + 0x58] = a5\n 15062: a5 = a5 <u a4\n 15065: t1 = u64 [s1 + 0xd8]\n 15069: a0 = a3 <u t1\n 15072: u64 [s1 + 0x50] = a0\n 15075: a5 = a0 if ra == 0\n 15078: t2 = u64 [s1 + 0xd0]\n 15082: a0 = a2 ^ t2\n 15085: u64 [s1 + 0x48] = a0\n 15088: u64 [s1 + 0x60] = a2\n 15091: a0 = a2 <u t2\n 15094: u64 [s1 + 0x68] = a1\n 15097: t0 = u64 [s1 + 0xf8]\n 15101: t0 = a1 <u t0\n 15104: a1 = u64 [s1 + 0x48]\n 15107: a0 = t0 if a1 == 0\n 15110: a1 = a3 ^ t1\n 15113: a1 = a1 | ra\n 15116: a5 = a0 if a1 == 0\n 15119: jump @583 if a5 == 0\n      : @582 (gas: 1)\n 15122: jump @902\n      : @583 (gas: 23)\n 15125: a1 = a3 - t1\n 15128: a2 = u64 [s1 + 0x58]\n 15131: a2 = a2 - a4\n 15134: a3 = u64 [s1 + 0x50]\n 15137: a2 = a2 - a3\n 15140: a3 = a1 <u a0\n 15143: a2 = a2 - a3\n 15146: a1 = a1 - a0\n 15149: a0 = u64 [s1 + 0x60]\n 15152: a0 = a0 - t2\n 15155: a0 = a0 - t0\n 15158: a3 = u64 [s1 + 0x68]\n 15161: a4 = u64 [s1 + 0xf8]\n 15165: a3 = a3 - a4\n 15168: a4 = s1 + 0x2078\n 15172: a5 = a4 + 0x700\n 15176: u64 [a5 + 0x88] = a3\n 15180: u64 [a5 + 0x90] = a0\n 15184: u64 [a5 + 0x98] = a1\n 15188: u64 [a5 + 0xa0] = a2\n 15192: a1 = s1 + 0x2800\n 15196: a0 = u64 [s1 + 0x70]\n 15199: ra = 524, jump @12\n      : @584 [@dyn 262] (gas: 6)\n 15205: a0 = u64 [s1 + 0xe8]\n 15209: a0 = a0 & 0x3\n 15212: a3 = u64 [s1 + 0xb8]\n 15216: a2 = u64 [s1 + 0xb0]\n 15220: a5 = u64 [s1 + 0xa8]\n 15224: jump @588 if a0 == 0\n      : @585 (gas: 1)\n 15228: jump @592 if a0 != 1\n      : @586 (gas: 20)\n 15233: a0 = sp + 0xffffffffffffffe0\n 15236: a1 = a0 & 0xffffffffffffffe0\n 15239: sp = a1\n 15241: a4 = u64 [s1 + 0x90]\n 15245: a0 = a4 <u a5\n 15248: a5 = a2 + a0\n 15251: a2 = a5 <u a2\n 15254: a2 = a0 if a0 == 0\n 15257: a2 = a2 + a3\n 15260: a0 = a2 <u a3\n 15263: a3 = u64 [s1 + 0x98]\n 15267: a0 = a0 + a3\n 15270: u64 [s1 + 0xf0] = a1\n 15274: u64 [a1 + 0x8] = a5\n 15277: u64 [a1] = a4\n 15279: u64 [a1 + 0x10] = a2\n 15282: u64 [a1 + 0x18] = a0\n 15285: a0 = s1 + 0x7ff\n 15289: a0 = a0 + 0x401\n 15293: ra = 526, jump @11\n      : @587 [@dyn 263] (gas: 33)\n 15299: a2 = s1 + 0x7ff\n 15303: a2 = a2 + 0x79\n 15306: a4 = a2 + 0x300\n 15310: a0 = u64 [a4 + 0x90]\n 15314: a1 = u64 [a4 + 0x88]\n 15318: t0 = u64 [a2 + 0x3a0]\n 15322: a3 = u64 [a4 + 0x98]\n 15326: a4 = u64 [s1 + 0xd0]\n 15330: a4 = a4 + a0\n 15333: a5 = u64 [s1 + 0xf8]\n 15337: a5 = a5 + a1\n 15340: a1 = a5 <u a1\n 15343: a4 = a4 + a1\n 15346: a2 = a4 ^ a0\n 15349: a0 = a4 <u a0\n 15352: a0 = a1 if a2 == 0\n 15355: a1 = u64 [s1 + 0xd8]\n 15359: a1 = a1 + a3\n 15362: a2 = u64 [s1 + 0xe0]\n 15366: t0 = t0 + a2\n 15369: a2 = a1 <u a3\n 15372: a2 = a2 + t0\n 15375: a0 = a0 + a1\n 15378: a1 = a0 <u a1\n 15381: a1 = a1 + a2\n 15384: a2 = s1 + 0x2078\n 15388: a3 = a2 + 0x700\n 15392: u64 [a3 + 0xc8] = a5\n 15396: u64 [a3 + 0xd0] = a4\n 15400: u64 [a3 + 0xd8] = a0\n 15404: u64 [a3 + 0xe0] = a1\n 15408: a0 = 0x2840\n 15412: jump @590\n      : @588 (gas: 4)\n 15415: a0 = s1 + 0x7ff\n 15419: a0 = a0 + 0x3e1\n 15423: a1 = u64 [s1 + 0xf0]\n 15427: ra = 528, jump @11\n      : @589 [@dyn 264] (gas: 32)\n 15433: a5 = s1 + 0x7ff\n 15437: a5 = a5 + 0x79\n 15440: a0 = u64 [a5 + 0x370]\n 15444: a1 = u64 [a5 + 0x368]\n 15448: a2 = u64 [s1 + 0xd0]\n 15452: a2 = a2 + a0\n 15455: a3 = u64 [s1 + 0xf8]\n 15459: a3 = a3 + a1\n 15462: a1 = a3 <u a1\n 15465: a2 = a2 + a1\n 15468: a4 = a2 ^ a0\n 15471: a0 = a2 <u a0\n 15474: a0 = a1 if a4 == 0\n 15477: a1 = u64 [a5 + 0x378]\n 15481: a4 = u64 [a5 + 0x380]\n 15485: a5 = s1 + 0x2078\n 15489: u64 [a5 + 0x7e8] = a3\n 15493: u64 [a5 + 0x7f0] = a2\n 15497: a2 = u64 [s1 + 0xd8]\n 15501: a2 = a2 + a1\n 15504: a0 = a0 + a2\n 15507: u64 [a5 + 0x7f8] = a0\n 15511: a0 = a0 <u a2\n 15514: a1 = a2 <u a1\n 15517: a2 = u64 [s1 + 0xe0]\n 15521: a4 = a4 + a2\n 15524: a1 = a1 + a4\n 15527: a0 = a0 + a1\n 15530: a1 = s1 + 0x2878\n 15534: u64 [a1] = a0\n 15536: a0 = 0x2860\n 15540: fallthrough\n      : @590 (gas: 3)\n 15541: a1 = s1 + a0\n 15544: a0 = u64 [s1 + 0xf0]\n 15548: ra = 530, jump @12\n      : @591 [@dyn 265] (gas: 1)\n 15554: jump @595\n      : @592 (gas: 6)\n 15556: a0 = u64 [s1 + 0xa0]\n 15560: ra = 0x214\n 15564: ecalli 4 // 'caller'\n 15566: a2 = u64 [s1 + 0xc8]\n 15570: t0 = 0x216\n 15574: jump @1470\n      : @593 [@dyn 266] (gas: 2)\n 15577: a2 = u64 [s1 + 0xc8]\n 15581: t0 = 534, jump @1470\n      : @594 [@dyn 267] (gas: 20)\n 15587: a4 = s1 + 0x7ff\n 15591: a4 = a4 + 0x79\n 15594: a2 = u64 [s1 + 0xe0]\n 15598: a5 = a4 + 0x300\n 15602: u64 [a5 + 0x40] = a2\n 15605: a2 = u64 [s1 + 0xd8]\n 15609: u64 [a5 + 0x38] = a2\n 15612: a2 = u64 [s1 + 0xd0]\n 15616: u64 [a5 + 0x30] = a2\n 15619: a2 = u64 [s1 + 0xf8]\n 15623: u64 [a5 + 0x28] = a2\n 15626: u64 [a4 + 864] = 0\n 15630: u64 [a5 + 0x58] = a1\n 15633: u64 [a5 + 0x50] = a0\n 15636: a0 = s1 + 0x7ff\n 15640: a0 = a0 + 0x3c1\n 15644: a1 = s1 + 0x7ff\n 15648: a1 = a1 + 0x3a1\n 15652: u64 [a5 + 0x48] = a3\n 15655: ra = 536, jump @1264\n      : @595 [@dyn 268] (gas: 4)\n 15661: a0 = s1 + 0x7ff\n 15665: a0 = a0 + 0x381\n 15669: a1 = 0x40\n 15672: ra = 538, jump @7\n      : @596 [@dyn 269] (gas: 8)\n 15678: a3 = s1 + 0x7ff\n 15682: a3 = a3 + 0x79\n 15685: a4 = a3 + 0x300\n 15689: a0 = u64 [a4 + 0x20]\n 15692: a1 = u64 [a4 + 0x18]\n 15695: a2 = u64 [a4 + 0x10]\n 15698: a3 = u64 [a4 + 0x8]\n 15701: t0 = 540, jump @1459\n      : @597 [@dyn 270] (gas: 1)\n 15707: jump @599 if a0 == 0\n      : @598 (gas: 1)\n 15710: jump @827\n      : @599 (gas: 16)\n 15713: a0 = u64 [s1 + 0xf8]\n 15717: a2 = s1 + 0x7ff\n 15721: a2 = a2 + 0x79\n 15724: a1 = a2 + 0x200\n 15728: u64 [a1 + 0xe8] = a0\n 15732: a0 = u64 [s1 + 0xd0]\n 15736: u64 [a1 + 0xf0] = a0\n 15740: a0 = u64 [s1 + 0xd8]\n 15744: u64 [a1 + 0xf8] = a0\n 15748: a1 = s1 + 0x7ff\n 15752: a1 = a1 + 0x361\n 15756: a0 = u64 [s1 + 0xe0]\n 15760: u64 [a2 + 0x300] = a0\n 15764: a0 = a3\n 15766: u64 [s1 + 0xf8] = a3\n 15770: ra = 542, jump @9\n      : @600 [@dyn 271] (gas: 6)\n 15776: a0 = u64 [s1 + 0xa0]\n 15780: ra = 0x220\n 15784: ecalli 4 // 'caller'\n 15786: a2 = u64 [s1 + 0xc8]\n 15790: t0 = 0x222\n 15794: jump @1453\n      : @601 [@dyn 272] (gas: 2)\n 15797: a2 = u64 [s1 + 0xc8]\n 15801: t0 = 546, jump @1453\n      : @602 [@dyn 273] (gas: 37)\n 15807: a5 = s1 + 0x7ff\n 15811: a5 = a5 + 0x79\n 15814: u64 [a5 + 640] = 0\n 15818: u64 [a5 + 632] = 0\n 15822: a3 = u64 [s1 + 0x80]\n 15826: u64 [a5 + 0x268] = a3\n 15830: a3 = u64 [s1 + 0xc0]\n 15834: u64 [a5 + 0x288] = a3\n 15838: a3 = u64 [0x20020]\n 15843: a4 = u64 [0x20028]\n 15848: u64 [a5 + 624] = 0\n 15852: u64 [a5 + 672] = 0\n 15856: u64 [a5 + 0x2e0] = a3\n 15860: u64 [a5 + 0x2d8] = a4\n 15864: a3 = u64 [0x20030]\n 15869: a4 = u64 [0x20038]\n 15874: u64 [a5 + 664] = 0\n 15878: u64 [a5 + 656] = 0\n 15882: u64 [a5 + 0x2d0] = a3\n 15886: a3 = a5 + 0x200\n 15890: u64 [a3 + 0xc8] = a4\n 15894: u64 [a3 + 0xb8] = a2\n 15898: u64 [a3 + 0xb0] = a1\n 15902: u64 [a3 + 0xa8] = a0\n 15906: a0 = a5\n 15908: a1 = 0x20\n 15911: a2 = s1 + 0x7ff\n 15915: a2 = a2 + 0x341\n 15919: a3 = s1 + 0x7ff\n 15923: a3 = a3 + 0x321\n 15927: a4 = s1 + 0x7ff\n 15931: a4 = a4 + 0x301\n 15935: a5 = s1 + 0x7ff\n 15939: a5 = a5 + 0x2e1\n 15943: u64 [a0 + 704] = 0\n 15947: a0 = u64 [s1 + 0xf8]\n 15951: ra = 548, jump @17\n      : @603 [@dyn 274] (gas: 8)\n 15957: a0 = 0\n 15959: a1 = u64 [s1 + 0x88]\n 15963: a2 = 0\n 15965: ecalli 14 // 'seal_return'\n 15967: a1 = 0x20160\n 15972: i32 a1 = a1 + 0\n 15974: a0 = 0\n 15976: jump @1183\n      : @604 (gas: 19)\n 15979: a0 = u64 [s1 + 0xf8]\n 15983: a2 = u64 [s1 + 0x88]\n 15987: a0 = a0 | a2\n 15990: a2 = u64 [s1 + 0x78]\n 15993: a0 = a2 if a4 == 0\n 15996: t1 = u64 [s1 + 0xa0]\n 16000: a3 = t1\n 16002: t0 = u64 [s1 + 0xc8]\n 16006: a3 = a0 if t0 != 0\n 16009: u64 [s1 + 0xf8] = a3\n 16013: a0 = u64 [s1 + 0xc0]\n 16017: a2 = u64 [s1 + 0x90]\n 16021: a0 = a0 | a2\n 16024: a2 = u64 [s1 + 0x80]\n 16028: a0 = a2 if a4 == 0\n 16031: a5 = u64 [s1 + 0xb0]\n 16035: a3 = a5\n 16037: a3 = a0 if t0 != 0\n 16040: t0 = 550, jump @1487\n      : @605 [@dyn 275] (gas: 1)\n 16046: ra = 552, jump @1504\n      : @606 [@dyn 276] (gas: 6)\n 16052: u64 [s1 + 0x90] = a0\n 16056: u64 [s1 + 0x80] = a1\n 16060: a0 = u64 [s1 + 0xa8]\n 16064: a1 = u64 [s1 + 0xb8]\n 16068: a2 = u64 [s1 + 0xf0]\n 16072: ra = 554, jump @1504\n      : @607 [@dyn 277] (gas: 7)\n 16078: u64 [s1 + 0x78] = a0\n 16081: u64 [s1 + 0x88] = a1\n 16085: a1 = u64 [s1 + 0xf0]\n 16089: a2 = 0x80 - a1\n 16093: a0 = u64 [s1 + 0xb0]\n 16097: a1 = u64 [s1 + 0xa0]\n 16101: ra = 556, jump @1509\n      : @608 [@dyn 278] (gas: 21)\n 16107: a2 = u64 [s1 + 0x88]\n 16111: a1 = a1 | a2\n 16114: a3 = u64 [s1 + 0xf0]\n 16118: a4 = a3 <u 0x80\n 16122: u64 [s1 + 0x88] = a4\n 16126: a2 = u64 [s1 + 0x80]\n 16130: a1 = a2 if a4 == 0\n 16133: a2 = u64 [s1 + 0xb8]\n 16137: a2 = a1 if a3 != 0\n 16140: u64 [s1 + 0xb8] = a2\n 16144: a1 = u64 [s1 + 0x78]\n 16147: a0 = a0 | a1\n 16150: a1 = u64 [s1 + 0x90]\n 16154: a0 = a1 if a4 == 0\n 16157: a1 = u64 [s1 + 0xa8]\n 16161: a1 = a0 if a3 != 0\n 16164: a2 = a3\n 16166: u64 [s1 + 0xa8] = a1\n 16170: a0 = u64 [s1 + 0xb0]\n 16174: a1 = u64 [s1 + 0xa0]\n 16178: ra = 558, jump @1504\n      : @609 [@dyn 279] (gas: 3)\n 16184: a4 = 0\n 16186: a5 = 0\n 16188: t0 = 560, jump @1485\n      : @610 [@dyn 280] (gas: 3)\n 16194: t1 = u64 [s1 + 0xb8]\n 16198: t2 = u64 [s1 + 0xa8]\n 16202: fallthrough\n      : @611 (gas: 89)\n 16203: u64 [s1 + 0xb8] = a4\n 16207: a2 = t2 >> 0x3f\n 16210: a3 = t1 << 0x1\n 16213: t0 = a3 | a2\n 16216: a3 = t2 << 0x1\n 16219: a4 = u64 [s1 + 0xf8]\n 16223: a4 = a4 >> 0x3f\n 16226: a3 = a3 | a4\n 16229: u64 [s1 + 0xa8] = a3\n 16233: a2 = u64 [s1 + 0x88]\n 16237: t2 = a1\n 16239: u64 [s1 + 0xb0] = t0\n 16243: a1 = a2 ^ t0\n 16246: ra = t1\n 16248: t1 = a2 <u t0\n 16251: a4 = u64 [s1 + 0x90]\n 16255: t0 = a4 <u a3\n 16258: t0 = t1 if a1 != 0\n 16261: a1 = t2 << 0x1\n 16264: a3 = a0 >> 0x3f\n 16267: a1 = a1 | a3\n 16270: u64 [s1 + 0xa0] = a1\n 16274: a3 = ra >> 0x3f\n 16277: a0 = a0 << 0x1\n 16280: a3 = a3 | a0\n 16283: a0 = u64 [s1 + 0xf8]\n 16287: a0 = a0 << 0x1\n 16290: a4 = u64 [s1 + 0xc0]\n 16294: a1 = a4 >> 0x3f\n 16297: ra = a0 | a1\n 16300: a1 = a4 << 0x1\n 16303: a4 = u64 [s1 + 0xc8]\n 16307: t1 = a4 >> 0x3f\n 16310: t1 = a1 | t1\n 16313: a1 = a4 << 0x1\n 16316: a4 = u64 [s1 + 0xe8]\n 16320: t2 = a4 >> 0x3f\n 16323: a1 = a1 | t2\n 16326: a4 = a4 << 0x1\n 16329: a0 = u64 [s1 + 0xb8]\n 16333: a4 = a4 | a0\n 16336: u64 [s1 + 0xe8] = a4\n 16340: a1 = a1 | a5\n 16343: u64 [s1 + 0xc8] = a1\n 16347: a1 = a5 | t1\n 16350: u64 [s1 + 0xc0] = a1\n 16354: a0 = a5 | ra\n 16357: u64 [s1 + 0xf8] = a0\n 16361: a0 = a2 - a3\n 16364: a0 = a0 <u t0\n 16367: a1 = a2 <u a3\n 16370: t0 = u64 [s1 + 0xa0]\n 16374: a4 = a2 - t0\n 16377: a4 = a4 - a1\n 16380: a4 = a4 - a0\n 16383: a5 = a4 >>a 0x3f\n 16386: a0 = u64 [s1 + 0x98]\n 16390: a0 = a0 & a5\n 16393: a1 = u64 [s1 + 0xa8]\n 16397: t2 = a1 - a0\n 16400: a1 = a1 <u a0\n 16403: a0 = u64 [s1 + 0xb0]\n 16407: t1 = a0 - a1\n 16410: a1 = 0 if a0 != 0\n 16412: a0 = a3 - a1\n 16415: a1 = a3 <u a1\n 16418: a1 = t0 - a1\n 16421: a3 = u64 [s1 + 0xf0]\n 16425: ra = u64 [s1 + 0xe0]\n 16429: a2 = a3 | ra\n 16432: a2 = a2 <u 0x1\n 16435: a4 = u64 [s1 + 0xd0]\n 16439: t0 = a4 <u a2\n 16442: a2 = a4 - a2\n 16445: a4 = a3 <u 0x1\n 16448: ra = ra - a4\n 16451: a4 = u64 [s1 + 0xd8]\n 16455: a4 = a4 - t0\n 16458: a3 = a3 + 0xffffffffffffffff\n 16461: u64 [s1 + 0xe0] = ra\n 16465: u64 [s1 + 0xd8] = a4\n 16469: t0 = ra | a4\n 16472: u64 [s1 + 0xf0] = a3\n 16476: a4 = a3 | a2\n 16479: a3 = a4 | t0\n 16482: a4 = a5 & 0x1\n 16485: u64 [s1 + 0xd0] = a2\n 16489: a5 = 0\n 16491: jump @611 if a3 != 0\n      : @612 (gas: 4)\n 16495: a0 = u64 [s1 + 0xe8]\n 16499: a0 = a0 << 0x1\n 16502: a4 = a4 | a0\n 16505: fallthrough\n      : @613 (gas: 3)\n 16506: a0 = a4 & 0xffffffffffffffff\n 16509: a1 = u64 [s1 + 0x38]\n 16512: jump @615 if a1 == a0\n      : @614 (gas: 1)\n 16515: jump @891\n      : @615 (gas: 9)\n 16518: a0 = 0x30160\n 16523: u64 [s1 + 0xb0] = a0\n 16527: i32 a0 = a0 + 0\n 16529: u64 [s1 + 0xa8] = a0\n 16533: ra = 0x232\n 16537: ecalli 4 // 'caller'\n 16539: a2 = u64 [s1 + 0xb0]\n 16543: t0 = 0x234\n 16547: jump @1445\n      : @616 [@dyn 281] (gas: 2)\n 16550: a2 = u64 [s1 + 0xb0]\n 16554: t0 = 564, jump @1445\n      : @617 [@dyn 282] (gas: 9)\n 16560: u64 [a2 + 320] = 0\n 16564: a4 = a2 + 0x100\n 16568: u64 [a4 + 0x38] = a1\n 16571: u64 [a4 + 0x30] = a0\n 16574: a1 = s1 + 0x7ff\n 16578: a1 = a1 + 0x1a1\n 16582: u64 [a4 + 0x28] = a3\n 16585: a0 = 0\n 16587: ra = 566, jump @9\n      : @618 [@dyn 283] (gas: 11)\n 16593: a1 = s1 + 0x7ff\n 16597: a1 = a1 + 0x79\n 16600: u64 [a1 + 288] = 0\n 16604: u64 [a1 + 280] = 0\n 16608: u64 [a1 + 264] = 0x2\n 16613: a2 = a1\n 16615: a0 = 0x20\n 16618: a1 = s1 + 0x7ff\n 16622: a1 = a1 + 0x181\n 16626: u64 [a2 + 272] = 0\n 16630: ra = 568, jump @9\n      : @619 [@dyn 284] (gas: 7)\n 16636: a0 = sp + 0xffffffffffffffe0\n 16639: a0 = a0 & 0xffffffffffffffe0\n 16642: u64 [s1 + 0x70] = a0\n 16645: sp = a0\n 16647: a1 = 0x20150\n 16652: a0 = i32 [0x20150]\n 16657: jump @621 if a0 >u 63\n      : @620 (gas: 2)\n 16661: u32 [0x20150] = 0x40\n 16667: fallthrough\n      : @621 (gas: 14)\n 16668: a0 = sp + 0xffffffffffffffe0\n 16671: a2 = a0 & 0xffffffffffffffe0\n 16674: u64 [s1 + 0xf8] = a2\n 16678: sp = a2\n 16680: a0 = 0x20160\n 16685: i32 a0 = a0 + 0\n 16687: i32 a2 = a2 + 0\n 16689: u64 [s1 + 0xe0] = a1\n 16693: a1 = 0x40\n 16696: u64 [s1 + 0xe8] = a0\n 16700: ra = 0x23a\n 16704: ecalli 9 // 'hash_keccak_256'\n 16706: t0 = 0x23c\n 16710: jump @1501\n      : @622 [@dyn 285] (gas: 1)\n 16713: t0 = 572, jump @1501\n      : @623 [@dyn 286] (gas: 18)\n 16719: a4 = reverse a1\n 16721: a1 = reverse a2\n 16723: a2 = reverse a3\n 16725: a0 = u64 [s1 + 0x70]\n 16728: u64 [s1 + 0xf0] = a2\n 16732: u64 [a0 + 0x18] = a2\n 16735: u64 [s1 + 0xf8] = a1\n 16739: u64 [a0 + 0x10] = a1\n 16742: u64 [s1 + 0xd8] = a4\n 16746: u64 [a0 + 0x8] = a4\n 16749: u64 [s1 + 0xd0] = a5\n 16753: u64 [a0] = a5\n 16755: a0 = u64 [s1 + 0xa8]\n 16759: ra = 0x23e\n 16763: ecalli 4 // 'caller'\n 16765: a2 = u64 [s1 + 0xb0]\n 16769: t0 = 0x240\n 16773: jump @1445\n      : @624 [@dyn 287] (gas: 2)\n 16776: a2 = u64 [s1 + 0xb0]\n 16780: t0 = 576, jump @1445\n      : @625 [@dyn 288] (gas: 8)\n 16786: u64 [a2 + 256] = 0\n 16790: u64 [a2 + 0xf8] = a1\n 16794: u64 [a2 + 0xf0] = a0\n 16798: a1 = s1 + 0x7ff\n 16802: a1 = a1 + 0x161\n 16806: u64 [a2 + 0xe8] = a3\n 16810: a0 = 0\n 16812: ra = 578, jump @9\n      : @626 [@dyn 289] (gas: 11)\n 16818: a1 = s1 + 0x7ff\n 16822: a1 = a1 + 0x79\n 16825: u64 [a1 + 224] = 0\n 16829: u64 [a1 + 216] = 0\n 16833: u64 [a1 + 200] = 0x4\n 16838: a2 = a1\n 16840: a0 = 0x20\n 16843: a1 = s1 + 0x7ff\n 16847: a1 = a1 + 0x141\n 16851: u64 [a2 + 208] = 0\n 16855: ra = 580, jump @9\n      : @627 [@dyn 290] (gas: 3)\n 16861: a1 = u64 [s1 + 0xe0]\n 16865: a0 = i32 [a1]\n 16867: jump @629 if a0 >u 63\n      : @628 (gas: 2)\n 16871: u32 [a1 + 0] = 0x40\n 16874: fallthrough\n      : @629 (gas: 4)\n 16875: a0 = sp + 0xffffffffffffffe0\n 16878: a0 = a0 & 0xffffffffffffffe0\n 16881: u64 [s1 + 0xc8] = a0\n 16885: t0 = 582, jump @1465\n      : @630 [@dyn 291] (gas: 5)\n 16891: ra = 0x248\n 16895: ecalli 9 // 'hash_keccak_256'\n 16897: a3 = u64 [s1 + 0xc8]\n 16901: t0 = 0x24a\n 16905: jump @1478\n      : @631 [@dyn 292] (gas: 2)\n 16908: a3 = u64 [s1 + 0xc8]\n 16912: t0 = 586, jump @1478\n      : @632 [@dyn 293] (gas: 9)\n 16918: a5 = a4 + 0x600\n 16922: u64 [a5 + 0x40] = a3\n 16925: u64 [a5 + 0x38] = a2\n 16928: u64 [a5 + 0x30] = a1\n 16931: u64 [a5 + 0x28] = a0\n 16934: a0 = s1 + 0x7ff\n 16938: a0 = a0 + 0x121\n 16942: a1 = s1 + 0x26a0\n 16946: ra = 588, jump @11\n      : @633 [@dyn 294] (gas: 10)\n 16952: a0 = s1 + 0x7ff\n 16956: a0 = a0 + 0x79\n 16959: a0 = u32 [a0 + 0xa8]\n 16963: u64 [s1 + 0xa0] = a0\n 16967: a0 = u64 [s1 + 0xa8]\n 16971: ra = 0x24e\n 16975: ecalli 4 // 'caller'\n 16977: a2 = u64 [s1 + 0xb0]\n 16981: t0 = 0x250\n 16985: jump @1445\n      : @634 [@dyn 295] (gas: 2)\n 16988: a2 = u64 [s1 + 0xb0]\n 16992: t0 = 592, jump @1445\n      : @635 [@dyn 296] (gas: 8)\n 16998: u64 [a2 + 160] = 0\n 17002: u64 [a2 + 0x98] = a1\n 17006: u64 [a2 + 0x90] = a0\n 17010: a1 = s1 + 0x7ff\n 17014: a1 = a1 + 0x101\n 17018: u64 [a2 + 0x88] = a3\n 17022: a0 = 0\n 17024: ra = 594, jump @9\n      : @636 [@dyn 297] (gas: 11)\n 17030: a1 = s1 + 0x7ff\n 17034: a1 = a1 + 0x79\n 17037: u64 [a1 + 128] = 0\n 17041: u64 [a1 + 120] = 0\n 17044: u64 [a1 + 104] = 0x5\n 17048: a2 = a1\n 17050: a0 = 0x20\n 17053: a1 = s1 + 0x7ff\n 17057: a1 = a1 + 0xe1\n 17061: u64 [a2 + 112] = 0\n 17064: ra = 596, jump @9\n      : @637 [@dyn 298] (gas: 3)\n 17070: a1 = u64 [s1 + 0xe0]\n 17074: a0 = i32 [a1]\n 17076: jump @639 if a0 >u 63\n      : @638 (gas: 2)\n 17080: u32 [a1 + 0] = 0x40\n 17083: fallthrough\n      : @639 (gas: 4)\n 17084: a0 = sp + 0xffffffffffffffe0\n 17087: a0 = a0 & 0xffffffffffffffe0\n 17090: u64 [s1 + 0xc8] = a0\n 17094: t0 = 598, jump @1465\n      : @640 [@dyn 299] (gas: 4)\n 17100: ra = 0x258\n 17104: ecalli 9 // 'hash_keccak_256'\n 17106: t0 = 0x25a\n 17110: jump @1486\n      : @641 [@dyn 300] (gas: 1)\n 17113: t0 = 602, jump @1486\n      : @642 [@dyn 301] (gas: 18)\n 17119: u64 [s1 + 0x98] = a0\n 17123: a0 = reverse a3\n 17125: u64 [s1 + 0x90] = a0\n 17129: a0 = sp + 0xffffffffffffffe0\n 17132: a0 = a0 & 0xffffffffffffffe0\n 17135: u64 [s1 + 0xc8] = a0\n 17139: sp = a0\n 17141: a2 = s1 + 0x7ff\n 17145: a2 = a2 + 0x79\n 17148: u64 [a2 + 96] = 0\n 17151: u64 [a2 + 88] = 0\n 17154: u64 [a2 + 80] = 0\n 17157: a1 = s1 + 0x7ff\n 17161: a1 = a1 + 0xc1\n 17165: a0 = u64 [s1 + 0x38]\n 17168: u64 [a2 + 0x48] = a0\n 17171: a0 = 0\n 17173: ra = 604, jump @9\n      : @643 [@dyn 302] (gas: 15)\n 17179: a0 = u64 [s1 + 0x90]\n 17183: a1 = s1 + 0x7ff\n 17187: a1 = a1 + 0x79\n 17190: u64 [a1 + 0x40] = a0\n 17193: a0 = u64 [s1 + 0x98]\n 17197: u64 [a1 + 0x38] = a0\n 17200: a0 = u64 [s1 + 0xb8]\n 17204: u64 [a1 + 0x30] = a0\n 17207: a3 = a1\n 17209: a0 = 0x20\n 17212: a1 = s1 + 0x7ff\n 17216: a1 = a1 + 0xa1\n 17220: a2 = u64 [s1 + 0xc0]\n 17224: u64 [a3 + 0x28] = a2\n 17227: ra = 606, jump @9\n      : @644 [@dyn 303] (gas: 3)\n 17233: a1 = u64 [s1 + 0xe0]\n 17237: a0 = i32 [a1]\n 17239: jump @646 if a0 >u 63\n      : @645 (gas: 2)\n 17243: u32 [a1 + 0] = 0x40\n 17246: fallthrough\n      : @646 (gas: 6)\n 17247: a0 = 0xffffffff\n 17257: u64 [s1 + 0x98] = a0\n 17261: a0 = sp + 0xffffffffffffffe0\n 17264: a0 = a0 & 0xffffffffffffffe0\n 17267: u64 [s1 + 0xc0] = a0\n 17271: t0 = 608, jump @1465\n      : @647 [@dyn 304] (gas: 5)\n 17277: ra = 0x262\n 17281: ecalli 9 // 'hash_keccak_256'\n 17283: a3 = u64 [s1 + 0xc0]\n 17287: t0 = 0x264\n 17291: jump @1469\n      : @648 [@dyn 305] (gas: 2)\n 17294: a3 = u64 [s1 + 0xc0]\n 17298: t0 = 612, jump @1469\n      : @649 [@dyn 306] (gas: 12)\n 17304: a1 = u64 [s1 + 0xc8]\n 17308: u64 [a1 + 0x18] = a3\n 17311: u64 [a1 + 0x10] = a2\n 17314: u64 [a1 + 0x8] = a4\n 17317: u64 [a1] = a0\n 17319: a0 = sp + 0xffffffffffffffe0\n 17322: a0 = a0 & 0xffffffffffffffe0\n 17325: u64 [s1 + 0x30] = a0\n 17328: sp = a0\n 17330: a0 = s1 + 0x7ff\n 17334: a0 = a0 + 0x81\n 17338: ra = 614, jump @11\n      : @650 [@dyn 307] (gas: 31)\n 17344: a3 = 0x1\n 17347: u64 [s1 + 96] = 0\n 17350: u64 [s1 + 104] = 0\n 17353: a5 = 0\n 17355: a1 = s1 + 0x7ff\n 17359: a1 = a1 + 0x79\n 17362: a0 = u64 [a1 + 0x20]\n 17365: u64 [s1 + 0x90] = a0\n 17369: a0 = u64 [a1 + 0x18]\n 17372: u64 [s1 + 0x88] = a0\n 17376: a2 = u64 [s1 + 0xd0]\n 17380: a2 = a2 + a3\n 17383: a0 = a2 <u a3\n 17386: a4 = u64 [s1 + 0xd8]\n 17390: a0 = a0 + a4\n 17393: u64 [s1 + 0x58] = a2\n 17396: u64 [s1 + 0x50] = a0\n 17399: a0 = a0 | a2\n 17402: a0 = a0 <u a3\n 17405: a2 = u64 [s1 + 0xf8]\n 17409: a0 = a0 + a2\n 17412: u64 [s1 + 0x48] = a0\n 17415: a0 = a0 <u a2\n 17418: a2 = u64 [s1 + 0xf0]\n 17422: a0 = a0 + a2\n 17425: u64 [s1 + 0x40] = a0\n 17428: a0 = u64 [a1 + 0x10]\n 17431: u64 [s1 + 0x80] = a0\n 17435: a0 = u64 [a1 + 0x8]\n 17438: u64 [s1 + 0x78] = a0\n 17441: fallthrough\n      : @651 (gas: 10)\n 17442: a1 = 0x1\n 17445: a1 = a1 if a5 == 0\n 17448: a0 = u64 [s1 + 0xa0]\n 17452: a0 = a0 <u a3\n 17455: a0 = a0 ^ 0x1\n 17458: a2 = 0x1\n 17461: a2 = a0 if a5 == 0\n 17464: a0 = 0\n 17466: a2 = a1 if a0 != 0\n 17469: jump @686 if a2 == 0\n      : @652 (gas: 9)\n 17473: u64 [s1 + 184] = 0\n 17477: u64 [s1 + 240] = 0\n 17481: u64 [s1 + 0xf8] = a3\n 17485: a0 = u64 [s1 + 0xa8]\n 17489: ra = 0x268\n 17493: ecalli 4 // 'caller'\n 17495: a2 = u64 [s1 + 0xb0]\n 17499: t0 = 0x26a\n 17503: jump @1445\n      : @653 [@dyn 308] (gas: 2)\n 17506: a2 = u64 [s1 + 0xb0]\n 17510: t0 = 618, jump @1445\n      : @654 [@dyn 309] (gas: 10)\n 17516: u64 [a2 + 0] = 0\n 17518: u64 [a2 + 0xfffffffffffffff8] = a1\n 17521: a1 = s1 + 0x1000\n 17525: u64 [a1 + 0xfffffffffffff868] = a0\n 17529: a1 = s1 + 0x7ff\n 17533: a1 = a1 + 0x61\n 17536: a0 = s1 + 0x1000\n 17540: u64 [a0 + 0xfffffffffffff860] = a3\n 17544: a0 = 0\n 17546: ra = 620, jump @9\n      : @655 [@dyn 310] (gas: 12)\n 17552: a0 = s1 + 0x1000\n 17556: u64 [a0 + 4294965336] = 0\n 17560: a0 = s1 + 0x1000\n 17564: u64 [a0 + 4294965328] = 0\n 17568: a0 = s1 + 0x1000\n 17572: u64 [a0 + 4294965320] = 0\n 17576: a0 = 0x20\n 17579: a1 = s1 + 0x7ff\n 17583: a1 = a1 + 0x41\n 17586: a3 = s1 + 0x1000\n 17590: u64 [a3 + 4294965312] = 0x3\n 17595: ra = 622, jump @9\n      : @656 [@dyn 311] (gas: 3)\n 17601: a1 = u64 [s1 + 0xe0]\n 17605: a0 = i32 [a1]\n 17607: jump @658 if a0 >u 63\n      : @657 (gas: 2)\n 17611: u32 [a1 + 0] = 0x40\n 17614: fallthrough\n      : @658 (gas: 4)\n 17615: a0 = sp + 0xffffffffffffffe0\n 17618: a0 = a0 & 0xffffffffffffffe0\n 17621: u64 [s1 + 0xd8] = a0\n 17625: t0 = 624, jump @1465\n      : @659 [@dyn 312] (gas: 4)\n 17631: ra = 0x272\n 17635: ecalli 9 // 'hash_keccak_256'\n 17637: t0 = 0x274\n 17641: jump @1473\n      : @660 [@dyn 313] (gas: 1)\n 17644: t0 = 628, jump @1473\n      : @661 [@dyn 314] (gas: 14)\n 17650: a0 = u64 [s1 + 0xf0]\n 17654: a1 = s1 + 0x1000\n 17658: u64 [a1 + 0xfffffffffffff838] = a0\n 17662: a1 = s1 + 0x1000\n 17666: u64 [a1 + 0xfffffffffffff830] = a0\n 17670: a1 = s1 + 0x1000\n 17674: u64 [a1 + 0xfffffffffffff828] = a0\n 17678: a1 = s1 + 0x7ff\n 17682: a1 = a1 + 0x21\n 17685: a0 = u64 [s1 + 0xf8]\n 17689: a2 = s1 + 0x1000\n 17693: u64 [a2 + 0xfffffffffffff820] = a0\n 17697: a0 = 0\n 17699: ra = 630, jump @9\n      : @662 [@dyn 315] (gas: 16)\n 17705: a0 = u64 [s1 + 0xc0]\n 17709: a1 = s1 + 0x1000\n 17713: u64 [a1 + 0xfffffffffffff818] = a0\n 17717: a0 = u64 [s1 + 0xc8]\n 17721: a1 = s1 + 0x1000\n 17725: u64 [a1 + 0xfffffffffffff810] = a0\n 17729: a0 = u64 [s1 + 0xd0]\n 17733: a1 = s1 + 0x1000\n 17737: u64 [a1 + 0xfffffffffffff808] = a0\n 17741: a0 = 0x20\n 17744: a1 = s1 + 0x7ff\n 17748: a1 = a1 + 0x1\n 17751: a2 = u64 [s1 + 0xd8]\n 17755: a3 = s1 + 0x1000\n 17759: u64 [a3 + 0xfffffffffffff800] = a2\n 17763: ra = 632, jump @9\n      : @663 [@dyn 316] (gas: 3)\n 17769: a1 = u64 [s1 + 0xe0]\n 17773: a0 = i32 [a1]\n 17775: jump @665 if a0 >u 63\n      : @664 (gas: 2)\n 17779: u32 [a1 + 0] = 0x40\n 17782: fallthrough\n      : @665 (gas: 4)\n 17783: a0 = sp + 0xffffffffffffffe0\n 17786: a0 = a0 & 0xffffffffffffffe0\n 17789: u64 [s1 + 0xd8] = a0\n 17793: t0 = 634, jump @1465\n      : @666 [@dyn 317] (gas: 5)\n 17799: ra = 0x27c\n 17803: ecalli 9 // 'hash_keccak_256'\n 17805: a3 = u64 [s1 + 0xd8]\n 17809: t0 = 0x27e\n 17813: jump @1448\n      : @667 [@dyn 318] (gas: 2)\n 17816: a3 = u64 [s1 + 0xd8]\n 17820: t0 = 638, jump @1448\n      : @668 [@dyn 319] (gas: 9)\n 17826: a1 = s1 + 0x2078\n 17830: a5 = a1 + 0x600\n 17834: u64 [a5 + 0x48] = a3\n 17837: u64 [a5 + 0x50] = a2\n 17840: u64 [a5 + 0x58] = a4\n 17843: u64 [a5 + 0x60] = a0\n 17846: a0 = s1 + 0x7e0\n 17850: a1 = s1 + 0x26c0\n 17854: ra = 640, jump @11\n      : @669 [@dyn 320] (gas: 3)\n 17860: a0 = u64 [s1 + 0x7e8]\n 17864: a0 = a0 & 0xff\n 17868: jump @676 if a0 != 0\n      : @670 (gas: 4)\n 17872: a0 = u64 [s1 + 0x7e0]\n 17876: a0 = a0 & 0xffffffffffffffff\n 17879: a3 = u64 [s1 + 0xf8]\n 17883: jump @677 if a0 == 0\n      : @671 (gas: 15)\n 17887: a2 = u64 [s1 + 0xf0]\n 17891: a0 = a2 >u 0\n 17893: a1 = a3 <u 0x100\n 17897: a1 = a1 ^ 0x1\n 17900: a1 = a0 if a2 != 0\n 17903: a0 = a2 >u 0\n 17905: a4 = a2 >u 0\n 17907: a4 = a0 if a2 == 0\n 17910: a0 = u64 [s1 + 0xb8]\n 17914: a4 = a1 if a0 == 0\n 17917: u64 [s1 + 0xd0] = a4\n 17921: i32 a2 = a3 + 0xffffffffffffff80\n 17924: a0 = 0x1\n 17927: a1 = 0\n 17929: ra = 642, jump @1509\n      : @672 [@dyn 321] (gas: 7)\n 17935: u64 [s1 + 0xf0] = a0\n 17939: u64 [s1 + 0xd8] = a1\n 17943: a1 = u64 [s1 + 0xf8]\n 17947: i32 a2 = 0x80 - a1\n 17951: a0 = 0x1\n 17954: a1 = 0\n 17956: ra = 644, jump @1504\n      : @673 [@dyn 322] (gas: 7)\n 17962: u64 [s1 + 0xb8] = a0\n 17966: u64 [s1 + 0xc0] = a1\n 17970: a2 = i32 [s1 + 0xf8]\n 17974: u64 [s1 + 0xc8] = a2\n 17978: a0 = 0\n 17980: a1 = 0\n 17982: ra = 646, jump @1509\n      : @674 [@dyn 323] (gas: 19)\n 17988: a4 = u64 [s1 + 0xb8]\n 17992: a4 = a4 | a0\n 17995: a0 = u64 [s1 + 0xf8]\n 17999: a3 = a0 <u 0x80\n 18003: u64 [s1 + 0xb8] = a3\n 18007: a2 = u64 [s1 + 0xf0]\n 18011: a4 = a2 if a3 == 0\n 18014: a4 = 0 if a0 == 0\n 18016: u64 [s1 + 0xf0] = a4\n 18020: a2 = u64 [s1 + 0xc0]\n 18024: a2 = a2 | a1\n 18027: a1 = u64 [s1 + 0xd8]\n 18031: a2 = a1 if a3 == 0\n 18034: a2 = 0 if a0 == 0\n 18036: u64 [s1 + 0xd8] = a2\n 18040: a0 = 0x1\n 18043: a1 = 0\n 18045: a2 = u64 [s1 + 0xc8]\n 18049: ra = 648, jump @1509\n      : @675 [@dyn 324] (gas: 24)\n 18055: a4 = u64 [s1 + 0xd8]\n 18059: t0 = u64 [s1 + 0xf0]\n 18063: a5 = a0\n 18065: a3 = a1\n 18067: a0 = u64 [s1 + 0xb8]\n 18071: a5 = 0 if a0 == 0\n 18073: a3 = 0 if a0 == 0\n 18075: a0 = u64 [s1 + 0xd0]\n 18079: a4 = 0 if a0 != 0\n 18081: t0 = 0 if a0 != 0\n 18083: a3 = 0 if a0 != 0\n 18085: a5 = 0 if a0 != 0\n 18087: a0 = u64 [s1 + 0x88]\n 18091: a0 = a0 & t0\n 18094: a1 = u64 [s1 + 0x90]\n 18098: a1 = a1 & a4\n 18101: a2 = u64 [s1 + 0x80]\n 18105: a2 = a2 & a3\n 18108: a1 = a1 | a2\n 18111: a2 = u64 [s1 + 0x78]\n 18114: a2 = a2 & a5\n 18117: a0 = a0 | a2\n 18120: a0 = a0 | a1\n 18123: jump @679 if a0 == 0\n      : @676 (gas: 3)\n 18126: a1 = u64 [s1 + 0x98]\n 18130: a3 = u64 [s1 + 0xf8]\n 18134: jump @678\n      : @677 (gas: 2)\n 18136: a1 = u64 [s1 + 0x98]\n 18140: fallthrough\n      : @678 (gas: 4)\n 18141: a5 = 0\n 18143: a0 = a3 + 0x1\n 18146: a3 = a0 & a1\n 18149: jump @651\n      : @679 (gas: 7)\n 18152: u64 [s1 + 0xc8] = a3\n 18156: u64 [s1 + 0xd0] = a5\n 18160: u64 [s1 + 0xd8] = a4\n 18164: u64 [s1 + 0xf0] = t0\n 18168: a0 = s1 + 0x7c0\n 18172: a1 = u64 [s1 + 0x70]\n 18175: ra = 650, jump @11\n      : @680 [@dyn 325] (gas: 15)\n 18181: a3 = s1 + 0x700\n 18185: a0 = u64 [a3 + 0xd8]\n 18189: a1 = u64 [a3 + 0xd0]\n 18193: a2 = u64 [a3 + 0xc8]\n 18197: t0 = u64 [s1 + 0x7c0]\n 18201: a4 = u64 [0x200a8]\n 18206: a5 = a0 >u 0\n 18208: a3 = a1 >u 0\n 18210: a3 = a5 if a0 != 0\n 18213: a4 = a4 <u t0\n 18216: a5 = a2 >u 0\n 18218: a5 = a4 if a2 == 0\n 18221: a4 = a1 | a0\n 18224: a5 = a3 if a4 != 0\n 18227: jump @682 if a5 != 0\n      : @681 (gas: 7)\n 18230: a0 = u64 [s1 + 0x60]\n 18233: a0 = a0 + 0x1\n 18236: a1 = u64 [s1 + 0x98]\n 18240: a0 = a0 & a1\n 18243: u64 [s1 + 0x60] = a0\n 18246: a3 = u64 [s1 + 0xf8]\n 18250: jump @678\n      : @682 (gas: 23)\n 18252: a3 = u64 [0x200b0]\n 18257: a3 = a3 + t0\n 18260: a4 = a3 <u t0\n 18263: a5 = a2 + a4\n 18266: a5 = a5 + 0xffffffffffffffff\n 18269: t0 = a5 ^ a2\n 18272: a2 = a5 <u a2\n 18275: a2 = a4 if t0 == 0\n 18278: a4 = a1 + 0xffffffffffffffff\n 18281: a2 = a2 + a4\n 18284: a4 = a2 <u a4\n 18287: a1 = a1 <u 0x1\n 18290: a0 = a0 - a1\n 18293: a0 = a0 + a4\n 18296: a1 = s1 + 0x2078\n 18300: a4 = a1 + 0x600\n 18304: u64 [a4 + 0x68] = a3\n 18307: u64 [a4 + 0x70] = a5\n 18310: u64 [a4 + 0x78] = a2\n 18313: u64 [a4 + 0x80] = a0\n 18317: a1 = s1 + 0x26e0\n 18321: a0 = u64 [s1 + 0x70]\n 18324: ra = 652, jump @12\n      : @683 [@dyn 326] (gas: 14)\n 18330: a0 = sp + 0xffffffffffffffe0\n 18333: a1 = a0 & 0xffffffffffffffe0\n 18336: u64 [s1 + 0xc0] = a1\n 18340: sp = a1\n 18342: a0 = u64 [s1 + 0x40]\n 18345: u64 [a1 + 0x18] = a0\n 18348: a0 = u64 [s1 + 0x48]\n 18351: u64 [a1 + 0x10] = a0\n 18354: a0 = u64 [s1 + 0x50]\n 18357: u64 [a1 + 0x8] = a0\n 18360: a0 = u64 [s1 + 0x58]\n 18363: u64 [a1] = a0\n 18365: a0 = s1 + 0x7a0\n 18369: ra = 654, jump @11\n      : @684 [@dyn 327] (gas: 23)\n 18375: a5 = s1 + 0x700\n 18379: a0 = u64 [a5 + 0xa0]\n 18383: a1 = u64 [0x200a0]\n 18388: a2 = u64 [a5 + 0xb8]\n 18392: a3 = u64 [a5 + 0xa8]\n 18396: a4 = u64 [a5 + 0xb0]\n 18400: a1 = a1 + a0\n 18403: a0 = a1 <u a0\n 18406: a5 = a3 + a0\n 18409: a3 = a5 <u a3\n 18412: a3 = a0 if a0 == 0\n 18415: a3 = a3 + a4\n 18418: a0 = a3 <u a4\n 18421: a0 = a0 + a2\n 18424: a2 = s1 + 0x2078\n 18428: a4 = a2 + 0x600\n 18432: u64 [a4 + 0x88] = a1\n 18436: u64 [a4 + 0x90] = a5\n 18440: u64 [a4 + 0x98] = a3\n 18444: u64 [a4 + 0xa0] = a0\n 18448: a1 = s1 + 0x2700\n 18452: a0 = u64 [s1 + 0xc0]\n 18456: ra = 656, jump @12\n      : @685 [@dyn 328] (gas: 23)\n 18462: a0 = u64 [s1 + 0x68]\n 18465: a0 = a0 + 0x1\n 18468: a1 = u64 [s1 + 0x98]\n 18472: a0 = a0 & a1\n 18475: u64 [s1 + 0x68] = a0\n 18478: a0 = u64 [s1 + 0x78]\n 18481: a2 = u64 [s1 + 0xd0]\n 18485: a0 = a0 | a2\n 18488: u64 [s1 + 0x78] = a0\n 18491: a0 = u64 [s1 + 0x80]\n 18495: a2 = u64 [s1 + 0xc8]\n 18499: a0 = a0 | a2\n 18502: u64 [s1 + 0x80] = a0\n 18506: a0 = u64 [s1 + 0x88]\n 18510: a2 = u64 [s1 + 0xf0]\n 18514: a0 = a0 | a2\n 18517: u64 [s1 + 0x88] = a0\n 18521: a0 = u64 [s1 + 0x90]\n 18525: a2 = u64 [s1 + 0xd8]\n 18529: a0 = a0 | a2\n 18532: u64 [s1 + 0x90] = a0\n 18536: a3 = u64 [s1 + 0xf8]\n 18540: jump @678\n      : @686 (gas: 15)\n 18543: a0 = u64 [s1 + 0x30]\n 18546: a1 = u64 [s1 + 0x78]\n 18549: u64 [a0] = a1\n 18551: a1 = u64 [s1 + 0x80]\n 18555: u64 [a0 + 0x8] = a1\n 18558: a1 = u64 [s1 + 0x88]\n 18562: u64 [a0 + 0x10] = a1\n 18565: a1 = u64 [s1 + 0x90]\n 18569: u64 [a0 + 0x18] = a1\n 18572: a0 = u64 [s1 + 0xa8]\n 18576: ra = 0x292\n 18580: ecalli 4 // 'caller'\n 18582: a2 = u64 [s1 + 0xb0]\n 18586: t0 = 0x294\n 18590: jump @1470\n      : @687 [@dyn 329] (gas: 2)\n 18593: a2 = u64 [s1 + 0xb0]\n 18597: t0 = 660, jump @1470\n      : @688 [@dyn 330] (gas: 7)\n 18603: u64 [s1 + 1944] = 0\n 18607: u64 [s1 + 0x790] = a1\n 18611: u64 [s1 + 0x788] = a0\n 18615: a1 = s1 + 0x780\n 18619: u64 [s1 + 0x780] = a3\n 18623: a0 = 0\n 18625: ra = 662, jump @9\n      : @689 [@dyn 331] (gas: 7)\n 18631: u64 [s1 + 1912] = 0\n 18635: u64 [s1 + 1904] = 0\n 18639: u64 [s1 + 1888] = 0x5\n 18644: a0 = 0x20\n 18647: a1 = s1 + 0x760\n 18651: u64 [s1 + 1896] = 0\n 18655: ra = 664, jump @9\n      : @690 [@dyn 332] (gas: 3)\n 18661: a1 = u64 [s1 + 0xe0]\n 18665: a0 = i32 [a1]\n 18667: jump @692 if a0 >u 63\n      : @691 (gas: 2)\n 18671: u32 [a1 + 0] = 0x40\n 18674: fallthrough\n      : @692 (gas: 4)\n 18675: a0 = sp + 0xffffffffffffffe0\n 18678: a0 = a0 & 0xffffffffffffffe0\n 18681: u64 [s1 + 0xf8] = a0\n 18685: t0 = 666, jump @1465\n      : @693 [@dyn 333] (gas: 5)\n 18691: ra = 0x29c\n 18695: ecalli 9 // 'hash_keccak_256'\n 18697: a3 = u64 [s1 + 0xf8]\n 18701: t0 = 0x29e\n 18705: jump @1489\n      : @694 [@dyn 334] (gas: 2)\n 18708: a3 = u64 [s1 + 0xf8]\n 18712: t0 = 670, jump @1489\n      : @695 [@dyn 335] (gas: 19)\n 18718: u64 [s1 + 0xf0] = a0\n 18722: a0 = reverse a1\n 18724: u64 [s1 + 0xd8] = a0\n 18728: a0 = reverse a2\n 18730: u64 [s1 + 0xd0] = a0\n 18734: a0 = reverse a3\n 18736: u64 [s1 + 0xc8] = a0\n 18740: a0 = sp + 0xffffffffffffffe0\n 18743: a0 = a0 & 0xffffffffffffffe0\n 18746: u64 [s1 + 0xf8] = a0\n 18750: sp = a0\n 18752: u64 [s1 + 1880] = 0\n 18756: u64 [s1 + 1872] = 0\n 18760: u64 [s1 + 1864] = 0\n 18764: a1 = s1 + 0x740\n 18768: a0 = u64 [s1 + 0x38]\n 18771: u64 [s1 + 0x740] = a0\n 18775: a0 = 0\n 18777: ra = 672, jump @9\n      : @696 [@dyn 336] (gas: 12)\n 18783: a0 = u64 [s1 + 0xc8]\n 18787: a3 = s1 + 0x700\n 18791: u64 [a3 + 0x38] = a0\n 18794: a0 = u64 [s1 + 0xd0]\n 18798: u64 [a3 + 0x30] = a0\n 18801: a0 = u64 [s1 + 0xd8]\n 18805: u64 [a3 + 0x28] = a0\n 18808: a0 = 0x20\n 18811: a1 = s1 + 0x720\n 18815: a2 = u64 [s1 + 0xf0]\n 18819: u64 [a3 + 0x20] = a2\n 18822: ra = 674, jump @9\n      : @697 [@dyn 337] (gas: 3)\n 18828: a1 = u64 [s1 + 0xe0]\n 18832: a0 = i32 [a1]\n 18834: jump @699 if a0 >u 63\n      : @698 (gas: 2)\n 18838: u32 [a1 + 0] = 0x40\n 18841: fallthrough\n      : @699 (gas: 4)\n 18842: a0 = sp + 0xffffffffffffffe0\n 18845: a0 = a0 & 0xffffffffffffffe0\n 18848: u64 [s1 + 0xf0] = a0\n 18852: t0 = 676, jump @1465\n      : @700 [@dyn 338] (gas: 17)\n 18858: ecalli 9 // 'hash_keccak_256'\n 18860: a3 = u64 [s1 + 0xf0]\n 18864: a0 = u64 [a3 + 0x18]\n 18867: a1 = u64 [a3 + 0x10]\n 18870: a2 = u64 [a3 + 0x8]\n 18873: a3 = u64 [a3]\n 18875: a4 = reverse a0\n 18877: a1 = reverse a1\n 18879: a2 = reverse a2\n 18881: a3 = reverse a3\n 18883: a0 = u64 [s1 + 0xf8]\n 18887: u64 [a0 + 0x18] = a3\n 18890: u64 [a0 + 0x10] = a2\n 18893: u64 [a0 + 0x8] = a1\n 18896: u64 [a0] = a4\n 18898: a1 = u64 [s1 + 0x30]\n 18901: ra = 678, jump @12\n      : @701 [@dyn 339] (gas: 3)\n 18907: a0 = s1 + 0x700\n 18911: a1 = 0x40\n 18914: ra = 680, jump @7\n      : @702 [@dyn 340] (gas: 13)\n 18920: a0 = s1 + 0x700\n 18924: a4 = u64 [a0 + 0x18]\n 18927: a5 = u64 [a0 + 0x10]\n 18930: a3 = u64 [a0 + 0x8]\n 18933: a2 = u64 [a0]\n 18935: a0 = a3 | a4\n 18938: a1 = a2 | a5\n 18941: a1 = a1 | a0\n 18944: a1 = a1 >> 0x20\n 18947: a0 = a0 | a5\n 18950: a0 = a0 << 0x20\n 18953: a0 = a0 | a1\n 18956: jump @704 if a0 == 0\n      : @703 (gas: 1)\n 18959: jump @827\n      : @704 (gas: 14)\n 18962: a0 = u64 [s1 + 0x68]\n 18965: a1 = u64 [s1 + 0x98]\n 18969: a0 = a0 & a1\n 18972: u64 [s1 + 1784] = 0\n 18976: u64 [s1 + 1776] = 0\n 18980: u64 [s1 + 1768] = 0\n 18984: a1 = s1 + 0x6e0\n 18988: u64 [s1 + 0x6e0] = a0\n 18992: a0 = a2\n 18994: u64 [s1 + 0xf8] = a2\n 18998: u64 [s1 + 0xf0] = a3\n 19002: u64 [s1 + 0xe0] = a4\n 19006: u64 [s1 + 0xd8] = a5\n 19010: ra = 682, jump @9\n      : @705 [@dyn 341] (gas: 10)\n 19016: a2 = u64 [s1 + 0xf8]\n 19020: a0 = u64 [s1 + 0xe0]\n 19024: a1 = u64 [s1 + 0xd8]\n 19028: a0 = a0 | a1\n 19031: a1 = 0xffffffe0\n 19041: a1 = a2 <u a1\n 19044: a3 = u64 [s1 + 0xf0]\n 19048: a1 = 0 if a3 != 0\n 19050: a1 = 0 if a0 != 0\n 19052: jump @827 if a1 == 0\n      : @706 (gas: 10)\n 19056: a0 = u64 [s1 + 0x60]\n 19059: a1 = u64 [s1 + 0x98]\n 19063: a1 = a1 & a0\n 19066: i32 a0 = a2 + 0x20\n 19069: u64 [s1 + 1752] = 0\n 19073: u64 [s1 + 1744] = 0\n 19077: u64 [s1 + 0x6c0] = a1\n 19081: a1 = s1 + 0x6c0\n 19085: u64 [s1 + 1736] = 0\n 19089: ra = 684, jump @9\n      : @707 [@dyn 342] (gas: 6)\n 19095: a0 = u64 [s1 + 0xa8]\n 19099: ra = 0x2ae\n 19103: ecalli 4 // 'caller'\n 19105: a2 = u64 [s1 + 0xb0]\n 19109: t0 = 0x2b0\n 19113: jump @1464\n      : @708 [@dyn 343] (gas: 2)\n 19116: a2 = u64 [s1 + 0xb0]\n 19120: t0 = 688, jump @1464\n      : @709 [@dyn 344] (gas: 30)\n 19126: t0 = a1 | a0\n 19129: a3 = a3 >> 0x20\n 19132: a2 = reverse a2\n 19134: a1 = a2 << 0x20\n 19137: a1 = a1 | a3\n 19140: a2 = a2 >> 0x20\n 19143: u64 [s1 + 1656] = 0\n 19147: u64 [s1 + 1648] = 0\n 19151: u64 [s1 + 1640] = 0\n 19155: a0 = u64 [s1 + 0x38]\n 19158: u64 [s1 + 0x660] = a0\n 19162: u64 [s1 + 1688] = 0\n 19166: a3 = u64 [0x200b8]\n 19171: a4 = u64 [0x200c0]\n 19176: a5 = u64 [0x200c8]\n 19181: a0 = u64 [0x200d0]\n 19186: u64 [s1 + 0x6b8] = a3\n 19190: a3 = s1 + 0x600\n 19194: u64 [a3 + 0xb0] = a4\n 19198: u64 [a3 + 0xa8] = a5\n 19202: u64 [a3 + 0xa0] = a0\n 19206: u64 [a3 + 0x90] = a2\n 19210: u64 [a3 + 0x88] = a1\n 19214: a1 = 0x40\n 19217: a2 = s1 + 0x6a0\n 19221: a3 = s1 + 0x680\n 19225: a4 = s1 + 0x660\n 19229: u64 [s1 + 0x680] = t0\n 19233: a0 = u64 [s1 + 0xf8]\n 19237: ra = 690, jump @14\n      : @710 [@dyn 345] (gas: 8)\n 19243: a0 = 0\n 19245: a1 = u64 [s1 + 0xe8]\n 19249: a2 = 0\n 19251: ecalli 14 // 'seal_return'\n 19253: a1 = 0x20160\n 19258: i32 a1 = a1 + 0\n 19260: a0 = 0\n 19262: jump @1183\n      : @711 (gas: 19)\n 19265: a0 = u64 [s1 + 0xf8]\n 19269: a2 = u64 [s1 + 0x88]\n 19273: a0 = a0 | a2\n 19276: a2 = u64 [s1 + 0x28]\n 19279: a0 = a2 if a4 == 0\n 19282: t1 = u64 [s1 + 0xa0]\n 19286: a3 = t1\n 19288: t0 = u64 [s1 + 0xc8]\n 19292: a3 = a0 if t0 != 0\n 19295: u64 [s1 + 0xf8] = a3\n 19299: a0 = u64 [s1 + 0xc0]\n 19303: a2 = u64 [s1 + 0x90]\n 19307: a0 = a0 | a2\n 19310: a2 = u64 [s1 + 0x30]\n 19313: a0 = a2 if a4 == 0\n 19316: a5 = u64 [s1 + 0xb8]\n 19320: a3 = a5\n 19322: a3 = a0 if t0 != 0\n 19325: t0 = 692, jump @1487\n      : @712 [@dyn 346] (gas: 1)\n 19331: ra = 694, jump @1504\n      : @713 [@dyn 347] (gas: 6)\n 19337: u64 [s1 + 0x90] = a0\n 19341: u64 [s1 + 0x30] = a1\n 19344: a0 = u64 [s1 + 0xb0]\n 19348: a1 = u64 [s1 + 0xa8]\n 19352: a2 = u64 [s1 + 0xf0]\n 19356: ra = 696, jump @1504\n      : @714 [@dyn 348] (gas: 7)\n 19362: u64 [s1 + 0x28] = a0\n 19365: u64 [s1 + 0x88] = a1\n 19369: a1 = u64 [s1 + 0xf0]\n 19373: a2 = 0x80 - a1\n 19377: a0 = u64 [s1 + 0xb8]\n 19381: a1 = u64 [s1 + 0xa0]\n 19385: ra = 698, jump @1509\n      : @715 [@dyn 349] (gas: 21)\n 19391: a2 = u64 [s1 + 0x88]\n 19395: a1 = a1 | a2\n 19398: a3 = u64 [s1 + 0xf0]\n 19402: a4 = a3 <u 0x80\n 19406: u64 [s1 + 0x88] = a4\n 19410: a2 = u64 [s1 + 0x30]\n 19413: a1 = a2 if a4 == 0\n 19416: a2 = u64 [s1 + 0xa8]\n 19420: a2 = a1 if a3 != 0\n 19423: u64 [s1 + 0xa8] = a2\n 19427: a1 = u64 [s1 + 0x28]\n 19430: a0 = a0 | a1\n 19433: a1 = u64 [s1 + 0x90]\n 19437: a0 = a1 if a4 == 0\n 19440: a1 = u64 [s1 + 0xb0]\n 19444: a1 = a0 if a3 != 0\n 19447: a2 = a3\n 19449: u64 [s1 + 0xb0] = a1\n 19453: a0 = u64 [s1 + 0xb8]\n 19457: a1 = u64 [s1 + 0xa0]\n 19461: ra = 700, jump @1504\n      : @716 [@dyn 350] (gas: 3)\n 19467: a5 = 0\n 19469: ra = 0\n 19471: t0 = 702, jump @1485\n      : @717 [@dyn 351] (gas: 3)\n 19477: t1 = u64 [s1 + 0xa8]\n 19481: t2 = u64 [s1 + 0xb0]\n 19485: fallthrough\n      : @718 (gas: 88)\n 19486: u64 [s1 + 0xb8] = a5\n 19490: a2 = t2 >> 0x3f\n 19493: a3 = t1 << 0x1\n 19496: a5 = a3 | a2\n 19499: a3 = t2 << 0x1\n 19502: a4 = u64 [s1 + 0xf8]\n 19506: a4 = a4 >> 0x3f\n 19509: a3 = a3 | a4\n 19512: u64 [s1 + 0xa8] = a3\n 19516: a2 = u64 [s1 + 0x88]\n 19520: u64 [s1 + 0xb0] = a5\n 19524: t2 = t1\n 19526: t1 = a2 ^ a5\n 19529: t0 = a2 <u a5\n 19532: a4 = u64 [s1 + 0x90]\n 19536: a5 = a4 <u a3\n 19539: a5 = t0 if t1 != 0\n 19542: a1 = a1 << 0x1\n 19545: a3 = a0 >> 0x3f\n 19548: a1 = a1 | a3\n 19551: u64 [s1 + 0xa0] = a1\n 19555: a3 = t2 >> 0x3f\n 19558: a0 = a0 << 0x1\n 19561: a3 = a3 | a0\n 19564: a0 = u64 [s1 + 0xf8]\n 19568: a0 = a0 << 0x1\n 19571: a4 = u64 [s1 + 0xc0]\n 19575: a1 = a4 >> 0x3f\n 19578: t0 = a0 | a1\n 19581: a1 = a4 << 0x1\n 19584: a4 = u64 [s1 + 0xc8]\n 19588: t1 = a4 >> 0x3f\n 19591: t1 = a1 | t1\n 19594: a1 = a4 << 0x1\n 19597: a4 = u64 [s1 + 0xe8]\n 19601: t2 = a4 >> 0x3f\n 19604: a1 = a1 | t2\n 19607: a4 = a4 << 0x1\n 19610: a0 = u64 [s1 + 0xb8]\n 19614: a4 = a4 | a0\n 19617: u64 [s1 + 0xe8] = a4\n 19621: a1 = ra | a1\n 19624: u64 [s1 + 0xc8] = a1\n 19628: a1 = ra | t1\n 19631: u64 [s1 + 0xc0] = a1\n 19635: a0 = ra | t0\n 19638: u64 [s1 + 0xf8] = a0\n 19642: a0 = a2 - a3\n 19645: a0 = a0 <u a5\n 19648: a1 = a2 <u a3\n 19651: t0 = u64 [s1 + 0xa0]\n 19655: a4 = a2 - t0\n 19658: a4 = a4 - a1\n 19661: a4 = a4 - a0\n 19664: a5 = a4 >>a 0x3f\n 19667: a0 = u64 [s1 + 0x98]\n 19671: a0 = a0 & a5\n 19674: a1 = u64 [s1 + 0xa8]\n 19678: t2 = a1 - a0\n 19681: a1 = a1 <u a0\n 19684: a0 = u64 [s1 + 0xb0]\n 19688: t1 = a0 - a1\n 19691: a1 = 0 if a0 != 0\n 19693: a0 = a3 - a1\n 19696: a1 = a3 <u a1\n 19699: a1 = t0 - a1\n 19702: a3 = u64 [s1 + 0xf0]\n 19706: ra = u64 [s1 + 0xe0]\n 19710: a2 = a3 | ra\n 19713: a2 = a2 <u 0x1\n 19716: a4 = u64 [s1 + 0xd0]\n 19720: t0 = a4 <u a2\n 19723: a2 = a4 - a2\n 19726: a4 = a3 <u 0x1\n 19729: ra = ra - a4\n 19732: a4 = u64 [s1 + 0xd8]\n 19736: a4 = a4 - t0\n 19739: a3 = a3 + 0xffffffffffffffff\n 19742: u64 [s1 + 0xe0] = ra\n 19746: u64 [s1 + 0xd8] = a4\n 19750: t0 = ra | a4\n 19753: u64 [s1 + 0xf0] = a3\n 19757: a4 = a3 | a2\n 19760: a3 = a4 | t0\n 19763: a5 = a5 & 0x1\n 19766: u64 [s1 + 0xd0] = a2\n 19770: ra = 0\n 19772: jump @718 if a3 != 0\n      : @719 (gas: 4)\n 19776: a0 = u64 [s1 + 0xe8]\n 19780: a0 = a0 << 0x1\n 19783: ra = a5 | a0\n 19786: fallthrough\n      : @720 (gas: 4)\n 19787: u64 [s1 + 0xd0] = ra\n 19791: a0 = s1 + 0x2340\n 19795: a1 = 0x40\n 19798: ra = 704, jump @7\n      : @721 [@dyn 352] (gas: 18)\n 19804: t0 = s1 + 0x2078\n 19808: t1 = u64 [t0 + 0x2e0]\n 19812: a0 = t0 + 0x200\n 19816: a5 = u64 [a0 + 0xd8]\n 19820: a4 = u64 [a0 + 0xd0]\n 19824: a3 = u64 [a0 + 0xc8]\n 19828: a0 = t1 >u 0\n 19830: a1 = a5 >u 0\n 19832: a1 = a0 if t1 != 0\n 19835: a0 = a4 >u 0\n 19837: a2 = a3 <u 0xffffffffffffffa0\n 19840: a2 = a2 ^ 0x1\n 19843: u64 [s1 + 0xf8] = a4\n 19847: a2 = a0 if a4 != 0\n 19850: a0 = a5 | t1\n 19853: u64 [s1 + 0xd8] = a0\n 19857: a2 = a1 if a0 != 0\n 19860: jump @723 if a2 == 0\n      : @722 (gas: 1)\n 19863: jump @896\n      : @723 (gas: 19)\n 19866: a0 = a3 + 0x60\n 19869: a1 = a0 <u a3\n 19872: a4 = u64 [s1 + 0xf8]\n 19876: a2 = a4 + a1\n 19879: u64 [s1 + 0xf0] = a3\n 19883: a3 = a2 <u a4\n 19886: a3 = a1 if a1 == 0\n 19889: a3 = a3 + a5\n 19892: a1 = a3 <u a5\n 19895: a4 = t1 + a1\n 19898: u64 [t0 + 0x2a8] = a0\n 19902: u64 [t0 + 0x2b0] = a2\n 19906: u64 [t0 + 0x2b8] = a3\n 19910: a0 = 0x40\n 19913: a1 = s1 + 0x2320\n 19917: u64 [t0 + 0x2c0] = a4\n 19921: u64 [s1 + 0xe0] = a5\n 19925: u64 [s1 + 0xe8] = t1\n 19929: ra = 706, jump @9\n      : @724 [@dyn 353] (gas: 12)\n 19935: a2 = u64 [s1 + 0xf0]\n 19939: a3 = u64 [s1 + 0xe0]\n 19943: a0 = a2 | a3\n 19946: a1 = u64 [s1 + 0xf8]\n 19950: a4 = u64 [s1 + 0xe8]\n 19954: a1 = a1 | a4\n 19957: a0 = a0 | a1\n 19960: a0 = a0 >> 0x20\n 19963: a1 = a1 | a3\n 19966: a1 = a1 << 0x20\n 19969: a0 = a0 | a1\n 19972: jump @827 if a0 != 0\n      : @725 (gas: 13)\n 19976: a0 = u64 [s1 + 0x40]\n 19979: a3 = s1 + 0x2078\n 19983: a4 = a3 + 0x200\n 19987: u64 [a4 + 0x88] = a0\n 19991: a0 = u64 [s1 + 0x48]\n 19994: u64 [a4 + 0x90] = a0\n 19998: a0 = u64 [s1 + 0x50]\n 20001: u64 [a4 + 0x98] = a0\n 20005: a1 = s1 + 0x2300\n 20009: a0 = u64 [s1 + 0x58]\n 20012: u64 [a4 + 0xa0] = a0\n 20016: a0 = a2\n 20018: ra = 708, jump @9\n      : @726 [@dyn 354] (gas: 9)\n 20024: a1 = u64 [s1 + 0xf0]\n 20028: a3 = 0x100000000\n 20038: a0 = 0xffffffe0\n 20048: a0 = a1 <u a0\n 20051: a2 = u64 [s1 + 0xf8]\n 20055: a0 = 0 if a2 != 0\n 20057: a2 = u64 [s1 + 0xd8]\n 20061: a0 = 0 if a2 != 0\n 20063: jump @827 if a0 == 0\n      : @727 (gas: 11)\n 20067: i32 a0 = a1 + 0x20\n 20070: a2 = s1 + 0x2078\n 20074: u64 [a2 + 640] = 0\n 20078: u64 [a2 + 632] = 0\n 20082: u64 [a2 + 624] = 0\n 20086: a1 = s1 + 0x22e0\n 20090: u64 [s1 + 0xe8] = a3\n 20094: a3 = u64 [s1 + 0xd0]\n 20098: u64 [a2 + 0x268] = a3\n 20102: u64 [s1 + 0xe0] = a0\n 20106: ra = 710, jump @9\n      : @728 [@dyn 355] (gas: 9)\n 20112: a1 = u64 [s1 + 0xf0]\n 20116: a0 = u64 [s1 + 0xe8]\n 20120: a0 = a0 + 0xffffffffffffffc0\n 20123: a0 = a1 <u a0\n 20126: a2 = u64 [s1 + 0xf8]\n 20130: a0 = 0 if a2 != 0\n 20132: a2 = u64 [s1 + 0xd8]\n 20136: a0 = 0 if a2 != 0\n 20138: jump @827 if a0 == 0\n      : @729 (gas: 11)\n 20142: a0 = 0xffffffff00000000\n 20152: u64 [s1 + 0xe8] = a0\n 20156: i32 a0 = a1 + 0x40\n 20159: a2 = s1 + 0x2078\n 20163: u64 [a2 + 608] = 0\n 20167: u64 [a2 + 600] = 0\n 20171: u64 [a2 + 592] = 0\n 20175: a1 = s1 + 0x22c0\n 20179: u64 [a2 + 584] = 0\n 20183: u64 [s1 + 0xd8] = a0\n 20187: ra = 712, jump @9\n      : @730 [@dyn 356] (gas: 5)\n 20193: a0 = u64 [s1 + 0x38]\n 20196: ra = 0x2ca\n 20200: ecalli 4 // 'caller'\n 20202: t0 = 0x2cc\n 20206: jump @1449\n      : @731 [@dyn 357] (gas: 1)\n 20209: t0 = 716, jump @1449\n      : @732 [@dyn 358] (gas: 8)\n 20215: u64 [a2 + 576] = 0\n 20219: a4 = a2 + 0x200\n 20223: u64 [a4 + 0x38] = a1\n 20226: u64 [a4 + 0x30] = a0\n 20229: a1 = s1 + 0x22a0\n 20233: u64 [a4 + 0x28] = a3\n 20236: a0 = 0\n 20238: ra = 718, jump @9\n      : @733 [@dyn 359] (gas: 3)\n 20244: t0 = 0x2d0\n 20248: a2 = s1 + 0x2078\n 20252: fallthrough\n      : @734 [@dyn 360] (gas: 7)\n 20253: u64 [a2 + 544] = 0\n 20257: u64 [a2 + 536] = 0\n 20261: u64 [a2 + 520] = 0x3\n 20266: a0 = 0x20\n 20269: a1 = s1 + 0x2280\n 20273: u64 [a2 + 528] = 0\n 20277: ra = 722, jump @9\n      : @735 [@dyn 361] (gas: 3)\n 20283: a1 = 0x40\n 20286: a0 = 0\n 20288: ra = 724, jump @20\n      : @736 [@dyn 362] (gas: 12)\n 20294: a1 = sp + 0xffffffffffffffe0\n 20297: a1 = a1 & 0xffffffffffffffe0\n 20300: u64 [s1 + 0xf8] = a1\n 20304: sp = a1\n 20306: i32 a0 = a0 + 0\n 20308: i32 a2 = a1 + 0\n 20310: a1 = 0x40\n 20313: ra = 0x2d6\n 20317: ecalli 9 // 'hash_keccak_256'\n 20319: a3 = u64 [s1 + 0xf8]\n 20323: t0 = 0x2d8\n 20327: jump @1489\n      : @737 [@dyn 363] (gas: 2)\n 20330: a3 = u64 [s1 + 0xf8]\n 20334: t0 = 728, jump @1489\n      : @738 [@dyn 364] (gas: 14)\n 20340: u64 [s1 + 0xd0] = a0\n 20344: a0 = reverse a1\n 20346: u64 [s1 + 0xc8] = a0\n 20350: a0 = reverse a2\n 20352: u64 [s1 + 0xc0] = a0\n 20356: a0 = reverse a3\n 20358: u64 [s1 + 0xb8] = a0\n 20362: a0 = sp + 0xffffffffffffffe0\n 20365: a0 = a0 & 0xffffffffffffffe0\n 20368: u64 [s1 + 0xf8] = a0\n 20372: sp = a0\n 20374: t0 = 0x2da\n 20378: a2 = s1 + 0x2078\n 20382: fallthrough\n      : @739 [@dyn 365] (gas: 11)\n 20383: u64 [a2 + 512] = 0\n 20387: a0 = u64 [s1 + 0x78]\n 20390: a3 = a2 + 0x100\n 20394: u64 [a3 + 0xf8] = a0\n 20398: a0 = u64 [s1 + 0x68]\n 20401: u64 [a3 + 0xf0] = a0\n 20405: a1 = s1 + 0x2260\n 20409: a0 = u64 [s1 + 0x70]\n 20412: u64 [a3 + 0xe8] = a0\n 20416: a0 = 0\n 20418: ra = 732, jump @9\n      : @740 [@dyn 366] (gas: 14)\n 20424: a0 = u64 [s1 + 0xb8]\n 20428: a1 = s1 + 0x2078\n 20432: a2 = a1 + 0x100\n 20436: u64 [a2 + 0xe0] = a0\n 20440: a0 = u64 [s1 + 0xc0]\n 20444: u64 [a2 + 0xd8] = a0\n 20448: a0 = u64 [s1 + 0xc8]\n 20452: u64 [a2 + 0xd0] = a0\n 20456: a3 = a1\n 20458: a0 = 0x20\n 20461: a1 = s1 + 0x2240\n 20465: a2 = u64 [s1 + 0xd0]\n 20469: u64 [a3 + 0x1c8] = a2\n 20473: ra = 734, jump @9\n      : @741 [@dyn 367] (gas: 2)\n 20479: a1 = i32 [0x20150]\n 20484: jump @743 if a1 >=u 64\n      : @742 (gas: 2)\n 20488: u32 [0x20150] = 0x40\n 20494: fallthrough\n      : @743 (gas: 30)\n 20495: a0 = sp + 0xffffffffffffffe0\n 20498: a2 = a0 & 0xffffffffffffffe0\n 20501: u64 [s1 + 0xd0] = a2\n 20505: sp = a2\n 20507: a0 = 0x20160\n 20512: i32 a0 = a0 + 0\n 20514: i32 a2 = a2 + 0\n 20516: a1 = 0x40\n 20519: ecalli 9 // 'hash_keccak_256'\n 20521: a3 = u64 [s1 + 0xd0]\n 20525: a0 = u64 [a3 + 0x18]\n 20528: a1 = u64 [a3 + 0x10]\n 20531: a2 = u64 [a3 + 0x8]\n 20534: a3 = u64 [a3]\n 20536: a5 = reverse a0\n 20538: u64 [s1 + 0xb8] = a5\n 20542: a4 = reverse a1\n 20544: u64 [s1 + 0xc0] = a4\n 20548: a1 = reverse a2\n 20550: u64 [s1 + 0xc8] = a1\n 20554: a0 = reverse a3\n 20556: u64 [s1 + 0xd0] = a0\n 20560: a2 = u64 [s1 + 0xf8]\n 20564: u64 [a2 + 0x18] = a0\n 20567: u64 [a2 + 0x10] = a1\n 20570: u64 [a2 + 0x8] = a4\n 20573: u64 [a2] = a5\n 20575: a0 = s1 + 0x2220\n 20579: a1 = u64 [s1 + 0xf0]\n 20583: ra = 736, jump @7\n      : @744 [@dyn 368] (gas: 2)\n 20589: a0 = 0x2000\n 20593: t0 = 738, jump @1495\n      : @745 [@dyn 369] (gas: 13)\n 20599: a0 = u64 [a4 + 0xc0]\n 20603: a1 = u64 [a4 + 0xb8]\n 20607: a2 = u64 [a4 + 0xb0]\n 20611: a3 = u64 [a4 + 0xa8]\n 20615: a4 = s1 + 0x2878\n 20619: a5 = a4 + 0x500\n 20623: u64 [a5 + 0xa0] = a0\n 20627: u64 [a5 + 0x98] = a1\n 20631: u64 [a5 + 0x90] = a2\n 20635: u64 [a5 + 0x88] = a3\n 20639: a1 = s1 + 0x2e00\n 20643: a0 = u64 [s1 + 0xf8]\n 20647: ra = 740, jump @12\n      : @746 [@dyn 370] (gas: 23)\n 20653: a0 = sp + 0xffffffffffffffe0\n 20656: a4 = a0 & 0xffffffffffffffe0\n 20659: u64 [s1 + 0xf8] = a4\n 20663: sp = a4\n 20665: a0 = u64 [s1 + 0xb8]\n 20669: a0 = a0 + 0x1\n 20672: a1 = a0 <u 0x1\n 20675: a2 = u64 [s1 + 0xc0]\n 20679: a1 = a1 + a2\n 20682: a2 = a0 | a1\n 20685: a2 = a2 <u 0x1\n 20688: a3 = u64 [s1 + 0xc8]\n 20692: a2 = a2 + a3\n 20695: a3 = a2 <u a3\n 20698: a5 = u64 [s1 + 0xd0]\n 20702: a3 = a3 + a5\n 20705: u64 [a4 + 0x18] = a3\n 20708: u64 [a4 + 0x10] = a2\n 20711: u64 [a4 + 0x8] = a1\n 20714: u64 [a4] = a0\n 20716: a0 = s1 + 0x2200\n 20720: a1 = u64 [s1 + 0xe0]\n 20724: ra = 742, jump @7\n      : @747 [@dyn 371] (gas: 7)\n 20730: a0 = s1 + 0x2078\n 20734: a0 = u64 [a0 + 0x188]\n 20738: a0 = a0 & 0xffffffffffffffff\n 20741: u64 [s1 + 0xf0] = a0\n 20745: a0 = s1 + 0x21e0\n 20749: a1 = u64 [s1 + 0xf8]\n 20753: ra = 744, jump @11\n      : @748 [@dyn 372] (gas: 15)\n 20759: a2 = s1 + 0x2078\n 20763: a3 = a2 + 0x100\n 20767: a0 = u64 [a3 + 0x80]\n 20771: a1 = u64 [a3 + 0x78]\n 20774: a2 = u64 [a3 + 0x70]\n 20777: a3 = s1 + 0x2878\n 20781: a4 = u64 [s1 + 0xf0]\n 20785: a5 = a3 + 0x500\n 20789: u64 [a5 + 0xa8] = a4\n 20793: u64 [a5 + 0xc0] = a0\n 20797: u64 [a5 + 0xb8] = a1\n 20801: u64 [a5 + 0xb0] = a2\n 20805: a1 = s1 + 0x2e20\n 20809: a0 = u64 [s1 + 0xf8]\n 20813: ra = 746, jump @12\n      : @749 [@dyn 373] (gas: 3)\n 20819: a0 = s1 + 0x21c0\n 20823: a1 = u64 [s1 + 0xd8]\n 20827: ra = 748, jump @7\n      : @750 [@dyn 374] (gas: 2)\n 20833: a0 = 0x2000\n 20837: t0 = 750, jump @1495\n      : @751 [@dyn 375] (gas: 12)\n 20843: a0 = u64 [a4 + 0x60]\n 20846: a1 = u64 [a4 + 0x50]\n 20849: a2 = u64 [a4 + 0x58]\n 20852: a3 = u64 [a4 + 0x48]\n 20855: a0 = a0 | a1\n 20858: a2 = a2 | a3\n 20861: a0 = a0 | a2\n 20864: a0 = a0 >u 0\n 20866: u64 [s1 + 0xf0] = a0\n 20870: a0 = s1 + 0x21a0\n 20874: a1 = u64 [s1 + 0xf8]\n 20878: ra = 752, jump @11\n      : @752 [@dyn 376] (gas: 2)\n 20884: a0 = 0x2000\n 20888: t0 = 754, jump @1495\n      : @753 [@dyn 377] (gas: 16)\n 20894: a0 = u64 [a4 + 0x30]\n 20897: a1 = u64 [a4 + 0x28]\n 20900: a2 = u64 [a4 + 0x40]\n 20903: a3 = u64 [a4 + 0x38]\n 20906: a0 = a0 & 0xffffffffffffff00\n 20910: a4 = u64 [s1 + 0xf0]\n 20914: a0 = a0 | a4\n 20917: a4 = s1 + 0x2878\n 20921: a5 = a4 + 0x500\n 20925: u64 [a5 + 0xe0] = a2\n 20929: u64 [a5 + 0xd8] = a3\n 20933: u64 [a5 + 0xc8] = a1\n 20937: u64 [a5 + 0xd0] = a0\n 20941: a1 = s1 + 0x2e40\n 20945: a0 = u64 [s1 + 0xf8]\n 20949: ra = 756, jump @12\n      : @754 [@dyn 378] (gas: 5)\n 20955: a0 = u64 [s1 + 0x38]\n 20958: ra = 0x2f6\n 20962: ecalli 4 // 'caller'\n 20964: t0 = 0x2f8\n 20968: jump @1449\n      : @755 [@dyn 379] (gas: 1)\n 20971: t0 = 760, jump @1449\n      : @756 [@dyn 380] (gas: 8)\n 20977: u64 [a2 + 288] = 0\n 20981: a4 = a2 + 0x100\n 20985: u64 [a4 + 0x18] = a1\n 20988: u64 [a4 + 0x10] = a0\n 20991: a1 = s1 + 0x2180\n 20995: u64 [a4 + 0x8] = a3\n 20998: a0 = 0\n 21000: ra = 762, jump @9\n      : @757 [@dyn 381] (gas: 3)\n 21006: t0 = 0x2fc\n 21010: a2 = s1 + 0x2078\n 21014: fallthrough\n      : @758 [@dyn 382] (gas: 7)\n 21015: u64 [a2 + 256] = 0\n 21019: u64 [a2 + 248] = 0\n 21023: u64 [a2 + 232] = 0x2\n 21028: a0 = 0x20\n 21031: a1 = s1 + 0x2160\n 21035: u64 [a2 + 240] = 0\n 21039: ra = 766, jump @9\n      : @759 [@dyn 383] (gas: 7)\n 21045: a0 = sp + 0xffffffffffffffe0\n 21048: a0 = a0 & 0xffffffffffffffe0\n 21051: u64 [s1 + 0xf8] = a0\n 21055: sp = a0\n 21057: a1 = 0x40\n 21060: a0 = 0\n 21062: ra = 768, jump @20\n      : @760 [@dyn 384] (gas: 1)\n 21068: t0 = 770, jump @1502\n      : @761 [@dyn 385] (gas: 5)\n 21074: ra = 0x304\n 21078: ecalli 9 // 'hash_keccak_256'\n 21080: a3 = u64 [s1 + 0xf0]\n 21084: t0 = 0x306\n 21088: jump @1461\n      : @762 [@dyn 386] (gas: 2)\n 21091: a3 = u64 [s1 + 0xf0]\n 21095: t0 = 774, jump @1461\n      : @763 [@dyn 387] (gas: 7)\n 21101: a1 = u64 [s1 + 0xf8]\n 21105: u64 [a1] = a4\n 21107: u64 [a1 + 0x8] = a5\n 21110: u64 [a1 + 0x10] = a2\n 21113: u64 [a1 + 0x18] = a0\n 21116: a0 = s1 + 0x2140\n 21120: ra = 776, jump @11\n      : @764 [@dyn 388] (gas: 9)\n 21126: a0 = s1 + 0x2078\n 21130: a0 = u64 [a0 + 0xc8]\n 21134: a0 = a0 + 0x1\n 21137: a1 = u64 [s1 + 0x60]\n 21140: a0 = a0 & a1\n 21143: u64 [s1 + 0xf0] = a0\n 21147: a0 = s1 + 0x2120\n 21151: a1 = u64 [s1 + 0xf8]\n 21155: ra = 778, jump @11\n      : @765 [@dyn 389] (gas: 21)\n 21161: a3 = s1 + 0x2078\n 21165: a0 = u64 [a3 + 0xb0]\n 21169: a1 = u64 [a3 + 0xb8]\n 21173: a2 = u64 [a3 + 0xc0]\n 21177: a3 = u64 [a3 + 0xa8]\n 21181: a0 = a0 & 0xffffffffffffffff\n 21184: a1 = a1 & 0xffffffffffffffff\n 21187: a2 = a2 & 0xffffffffffffffff\n 21190: a4 = u64 [s1 + 0xe8]\n 21194: a3 = a3 & a4\n 21197: a4 = u64 [s1 + 0xf0]\n 21201: a3 = a3 | a4\n 21204: a4 = s1 + 0x2878\n 21208: u64 [a4 + 0x600] = a2\n 21212: a2 = a4 + 0x500\n 21216: u64 [a2 + 0xf8] = a1\n 21220: u64 [a2 + 0xf0] = a0\n 21224: u64 [a2 + 0xe8] = a3\n 21228: a1 = s1 + 0x2e60\n 21232: a0 = u64 [s1 + 0xf8]\n 21236: ra = 780, jump @12\n      : @766 [@dyn 390] (gas: 3)\n 21242: a0 = s1 + 0x2100\n 21246: a1 = 0x40\n 21249: ra = 782, jump @7\n      : @767 [@dyn 391] (gas: 6)\n 21255: a3 = s1 + 0x2078\n 21259: a0 = u64 [a3 + 0xa0]\n 21263: a1 = u64 [a3 + 0x98]\n 21267: a2 = u64 [a3 + 0x90]\n 21271: a4 = u64 [a3 + 0x88]\n 21275: t0 = 784, jump @1479\n      : @768 [@dyn 392] (gas: 1)\n 21281: jump @827 if a0 != 0\n      : @769 (gas: 12)\n 21285: a0 = u64 [s1 + 0x40]\n 21288: u64 [a3 + 0x68] = a0\n 21291: a0 = u64 [s1 + 0x48]\n 21294: u64 [a3 + 0x70] = a0\n 21297: a0 = u64 [s1 + 0x50]\n 21300: u64 [a3 + 0x78] = a0\n 21303: a1 = s1 + 0x20e0\n 21307: a0 = u64 [s1 + 0x58]\n 21310: u64 [a3 + 0x80] = a0\n 21314: a0 = a4\n 21316: u64 [s1 + 0xf8] = a4\n 21320: ra = 786, jump @9\n      : @770 [@dyn 393] (gas: 6)\n 21326: a0 = u64 [s1 + 0x38]\n 21329: ra = 0x314\n 21333: ecalli 4 // 'caller'\n 21335: a2 = u64 [s1 + 0x80]\n 21339: t0 = 0x316\n 21343: jump @1464\n      : @771 [@dyn 394] (gas: 2)\n 21346: a2 = u64 [s1 + 0x80]\n 21350: t0 = 790, jump @1464\n      : @772 [@dyn 395] (gas: 32)\n 21356: t0 = a1 | a0\n 21359: a3 = a3 >> 0x20\n 21362: a2 = reverse a2\n 21364: a1 = a2 << 0x20\n 21367: a1 = a1 | a3\n 21370: a2 = a2 >> 0x20\n 21373: a3 = u64 [0x20000]\n 21378: a4 = u64 [0x20008]\n 21383: a5 = u64 [0x20010]\n 21388: a0 = s1 + 0x2078\n 21392: u64 [a0 + 0x60] = a3\n 21395: u64 [a0 + 0x58] = a4\n 21398: u64 [a0 + 32] = 0\n 21401: u64 [a0 + 0x50] = a5\n 21404: a3 = u64 [0x20018]\n 21409: a4 = u64 [s1 + 0x78]\n 21412: u64 [a0 + 0x18] = a4\n 21415: a4 = u64 [s1 + 0x68]\n 21418: u64 [a0 + 0x10] = a4\n 21421: a4 = u64 [s1 + 0x70]\n 21424: u64 [a0 + 0x8] = a4\n 21427: u64 [a0 + 0x48] = a3\n 21430: u64 [a0 + 0x38] = a2\n 21433: u64 [a0 + 0x30] = a1\n 21436: u64 [a0 + 0x28] = t0\n 21439: a1 = 0x20\n 21442: a2 = s1 + 0x20c0\n 21446: a3 = s1 + 0x20a0\n 21450: a4 = s1 + 0x2080\n 21454: u64 [a0 + 64] = 0\n 21457: a0 = u64 [s1 + 0xf8]\n 21461: ra = 792, jump @14\n      : @773 [@dyn 396] (gas: 3)\n 21467: a0 = s1 + 0x2060\n 21471: a1 = 0x40\n 21474: ra = 794, jump @7\n      : @774 [@dyn 397] (gas: 7)\n 21480: a3 = s1 + 0x2078\n 21484: a0 = u64 [a3]\n 21486: a4 = a3 + 0xffffffffffffff00\n 21490: a1 = u64 [a4 + 0xf8]\n 21494: a2 = u64 [a4 + 0xf0]\n 21498: a3 = u64 [a4 + 0xe8]\n 21502: t0 = 796, jump @1459\n      : @775 [@dyn 398] (gas: 1)\n 21508: jump @827 if a0 != 0\n      : @776 (gas: 14)\n 21512: a0 = s1 + 0x1878\n 21516: u64 [a0 + 2016] = 0\n 21520: a1 = u64 [s1 + 0x70]\n 21523: a4 = a0 + 0x700\n 21527: u64 [a4 + 0xc8] = a1\n 21531: a1 = u64 [s1 + 0x68]\n 21534: u64 [a4 + 0xd0] = a1\n 21538: a1 = s1 + 0x2040\n 21542: a2 = u64 [s1 + 0x78]\n 21545: u64 [a4 + 0xd8] = a2\n 21549: a0 = a3\n 21551: u64 [s1 + 0xf8] = a3\n 21555: ra = 0x196\n 21559: jump @9\n      : @777 (gas: 3)\n 21562: a0 = s1 + 0x1ee0\n 21566: a1 = 0x40\n 21569: ra = 798, jump @7\n      : @778 [@dyn 399] (gas: 14)\n 21575: a0 = s1 + 0x1878\n 21579: a2 = a0 + 0x600\n 21583: a1 = u64 [a2 + 0x80]\n 21587: u64 [s1 + 0xf0] = a1\n 21591: a1 = u64 [a2 + 0x78]\n 21594: u64 [s1 + 0xe8] = a1\n 21598: a1 = u64 [a2 + 0x70]\n 21601: u64 [s1 + 0xe0] = a1\n 21605: a0 = u64 [a2 + 0x68]\n 21608: u64 [s1 + 0xf8] = a0\n 21612: ra = 0x320\n 21616: ecalli 13 // 'return_data_size'\n 21618: t0 = 0x322\n 21622: jump @1462\n      : @779 [@dyn 400] (gas: 1)\n 21625: t0 = 802, jump @1462\n      : @780 [@dyn 401] (gas: 1)\n 21631: jump @827 if a1 != 0\n      : @781 (gas: 3)\n 21635: a2 = a0\n 21637: a0 = a0 >> 0x20\n 21640: jump @827 if a0 != 0\n      : @782 (gas: 6)\n 21644: i32 a0 = a2 + 0\n 21646: u64 [s1 + 0xf0] = a0\n 21650: a0 = u64 [s1 + 0xf8]\n 21654: a1 = a2\n 21656: u64 [s1 + 0xe8] = a2\n 21660: ra = 804, jump @20\n      : @783 [@dyn 402] (gas: 11)\n 21666: a1 = s1 + 0x2878\n 21670: a2 = u64 [s1 + 0xe8]\n 21674: u32 [a1 + 0x4e8] = a2\n 21678: i32 a0 = a0 + 0\n 21680: a1 = s1 + 0x3000\n 21684: i32 a1 = a1 + 0xfffffffffffffd60\n 21688: a2 = 0\n 21690: ecalli 12 // 'return_data_copy'\n 21692: a0 = s1 + 0x2878\n 21696: a0 = i32 [a0 + 0x4e8]\n 21700: jump @791\n      : @784 (gas: 3)\n 21703: a0 = s1 + 0x1d00\n 21707: a1 = 0x40\n 21710: ra = 806, jump @7\n      : @785 [@dyn 403] (gas: 14)\n 21716: a0 = s1 + 0x1878\n 21720: a2 = a0 + 0x400\n 21724: a1 = u64 [a2 + 0xa0]\n 21728: u64 [s1 + 0xf0] = a1\n 21732: a1 = u64 [a2 + 0x98]\n 21736: u64 [s1 + 0xe8] = a1\n 21740: a1 = u64 [a2 + 0x90]\n 21744: u64 [s1 + 0xe0] = a1\n 21748: a0 = u64 [a2 + 0x88]\n 21752: u64 [s1 + 0xf8] = a0\n 21756: ra = 0x328\n 21760: ecalli 13 // 'return_data_size'\n 21762: t0 = 0x32a\n 21766: jump @1462\n      : @786 [@dyn 404] (gas: 1)\n 21769: t0 = 810, jump @1462\n      : @787 [@dyn 405] (gas: 1)\n 21775: jump @827 if a1 != 0\n      : @788 (gas: 3)\n 21779: a2 = a0\n 21781: a0 = a0 >> 0x20\n 21784: jump @827 if a0 != 0\n      : @789 (gas: 6)\n 21788: i32 a0 = a2 + 0\n 21790: u64 [s1 + 0xf0] = a0\n 21794: a0 = u64 [s1 + 0xf8]\n 21798: a1 = a2\n 21800: u64 [s1 + 0xe8] = a2\n 21804: ra = 812, jump @20\n      : @790 [@dyn 406] (gas: 11)\n 21810: a1 = s1 + 0x2878\n 21814: a2 = u64 [s1 + 0xe8]\n 21818: u32 [a1 + 0x348] = a2\n 21822: i32 a0 = a0 + 0\n 21824: a1 = s1 + 0x3000\n 21828: i32 a1 = a1 + 0xfffffffffffffbc0\n 21832: a2 = 0\n 21834: ecalli 12 // 'return_data_copy'\n 21836: a0 = s1 + 0x2878\n 21840: a0 = i32 [a0 + 0x348]\n 21844: fallthrough\n      : @791 (gas: 2)\n 21845: a1 = u64 [s1 + 0xf0]\n 21849: jump @827 if a0 <u a1\n      : @792 (gas: 2)\n 21853: ecalli 13 // 'return_data_size'\n 21855: fallthrough\n      : @793 (gas: 3)\n 21856: a1 = a0\n 21858: a0 = a0 >> 0x20\n 21861: jump @827 if a0 != 0\n      : @794 (gas: 3)\n 21865: a0 = u64 [s1 + 0xf8]\n 21869: u64 [s1 + 0xf0] = a1\n 21873: ra = 814, jump @20\n      : @795 [@dyn 407] (gas: 5)\n 21879: i32 a1 = a0 + 0\n 21881: a2 = i32 [s1 + 0xf0]\n 21885: a0 = 0x1\n 21888: ecalli 14 // 'seal_return'\n 21890: jump @923\n      : @796 (gas: 10)\n 21893: a0 = u64 [s1 + 0xf8]\n 21897: a1 = u64 [s1 + 0xa8]\n 21901: u64 [a0] = a1\n 21903: a1 = u64 [s1 + 0x78]\n 21906: u64 [a0 + 0x8] = a1\n 21909: a1 = u64 [s1 + 0xa0]\n 21913: u32 [a0 + 0x10] = a1\n 21916: a0 = u64 [s1 + 0xe0]\n 21920: ecalli 5 // 'code_size'\n 21922: fallthrough\n      : @797 (gas: 1)\n 21923: jump @924 if a0 == 0\n      : @798 (gas: 3)\n 21927: a0 = s1 + 0x1c80\n 21931: a1 = 0x40\n 21934: ra = 816, jump @7\n      : @799 [@dyn 408] (gas: 2)\n 21940: a2 = s1 + 0x1878\n 21944: fallthrough\n      : @800 (gas: 13)\n 21945: t0 = u64 [a2 + 0x420]\n 21949: a1 = a2 + 0x400\n 21953: a4 = u64 [a1 + 0x18]\n 21956: a5 = u64 [a1 + 0x10]\n 21959: a0 = u64 [a1 + 0x8]\n 21962: a3 = a5 | t0\n 21965: a1 = a0 | a4\n 21968: a1 = a1 | a3\n 21971: a1 = a1 >> 0x20\n 21974: a3 = a3 | a4\n 21977: a3 = a3 << 0x20\n 21980: a1 = a1 | a3\n 21983: jump @827 if a1 != 0\n      : @801 (gas: 11)\n 21987: u64 [a2 + 1016] = 0\n 21991: u64 [a2 + 1008] = 0\n 21995: u64 [a2 + 1000] = 0\n 21999: a3 = 0xc2a672e000000000\n 22009: a1 = s1 + 0x1c60\n 22013: u64 [a2 + 0x400] = a3\n 22017: u64 [s1 + 0x60] = t0\n 22020: u64 [s1 + 0x58] = a4\n 22023: u64 [s1 + 0x68] = a5\n 22026: u64 [s1 + 0x88] = a0\n 22030: ra = 818, jump @9\n      : @802 [@dyn 409] (gas: 3)\n 22036: a0 = u64 [s1 + 0xe0]\n 22040: ecalli 4 // 'caller'\n 22042: fallthrough\n      : @803 (gas: 11)\n 22043: a4 = u64 [s1 + 0x88]\n 22047: a0 = u64 [s1 + 0x60]\n 22050: a1 = u64 [s1 + 0x58]\n 22053: a2 = a1 | a0\n 22056: a3 = 0x100000000\n 22066: a0 = 0xfffffffc\n 22076: a0 = a4 <u a0\n 22079: a1 = u64 [s1 + 0x68]\n 22082: a0 = 0 if a1 != 0\n 22084: a0 = 0 if a2 != 0\n 22086: jump @827 if a0 == 0\n      : @804 (gas: 25)\n 22090: u64 [s1 + 0x50] = a2\n 22093: a2 = u64 [s1 + 0xf8]\n 22097: a0 = u64 [a2 + 0x8]\n 22100: a1 = i32 [a2 + 0x10]\n 22103: a2 = u64 [a2]\n 22105: a0 = reverse a0\n 22107: u64 [s1 + 0x48] = a3\n 22110: a3 = a0 << 0x20\n 22113: a1 = reverse a1\n 22115: a1 = a1 >> 0x20\n 22118: a3 = a3 | a1\n 22121: a0 = a0 >> 0x20\n 22124: a1 = reverse a2\n 22126: a2 = a1 << 0x20\n 22129: a2 = a2 | a0\n 22132: a1 = a1 >> 0x20\n 22135: i32 a0 = a4 + 0x4\n 22138: a4 = s1 + 0x1878\n 22142: u64 [a4 + 992] = 0\n 22146: a5 = a4 + 0x300\n 22150: u64 [a5 + 0xd8] = a1\n 22154: u64 [a5 + 0xd0] = a2\n 22158: a1 = s1 + 0x1c40\n 22162: u64 [a5 + 0xc8] = a3\n 22166: ra = 820, jump @9\n      : @805 [@dyn 410] (gas: 9)\n 22172: a4 = u64 [s1 + 0x88]\n 22176: a0 = u64 [s1 + 0x48]\n 22179: a0 = a0 + 0xffffffffffffffdc\n 22182: a0 = a4 <u a0\n 22185: a1 = u64 [s1 + 0x68]\n 22188: a0 = 0 if a1 != 0\n 22190: a1 = u64 [s1 + 0x50]\n 22193: a0 = 0 if a1 != 0\n 22195: jump @827 if a0 == 0\n      : @806 (gas: 13)\n 22199: i32 a0 = a4 + 0x24\n 22202: a1 = u64 [s1 + 0xb8]\n 22206: a3 = s1 + 0x1878\n 22210: a4 = a3 + 0x300\n 22214: u64 [a4 + 0xa8] = a1\n 22218: a1 = u64 [s1 + 0xb0]\n 22222: u64 [a4 + 0xb0] = a1\n 22226: a1 = u64 [s1 + 0x98]\n 22230: u64 [a4 + 0xb8] = a1\n 22234: a1 = s1 + 0x1c20\n 22238: a2 = u64 [s1 + 0x90]\n 22242: u64 [a4 + 0xc0] = a2\n 22246: ra = 822, jump @9\n      : @807 [@dyn 411] (gas: 16)\n 22252: ecalli 11 // 'ref_time_left'\n 22254: a0 = u64 [s1 + 0x78]\n 22257: a1 = u64 [s1 + 0xf8]\n 22261: u64 [a1 + 0x8] = a0\n 22264: a0 = u64 [s1 + 0xa8]\n 22268: u64 [a1] = a0\n 22270: a0 = u64 [s1 + 0xa0]\n 22274: u32 [a1 + 0x10] = a0\n 22277: a0 = s1 + 0x2878\n 22281: u64 [a0 + 896] = 0\n 22285: u64 [a0 + 888] = 0\n 22289: u64 [a0 + 880] = 0\n 22293: u64 [a0 + 872] = 0\n 22297: a1 = 0x44\n 22300: a0 = u64 [s1 + 0x88]\n 22304: ra = 824, jump @20\n      : @808 [@dyn 412] (gas: 4)\n 22310: u64 [s1 + 0xa8] = a0\n 22314: a0 = u64 [s1 + 0x88]\n 22318: a1 = 0\n 22320: ra = 826, jump @20\n      : @809 [@dyn 413] (gas: 31)\n 22326: a2 = s1 + 0x2878\n 22330: u32 [a2 + 904] = 0\n 22334: a3 = a2 + 0x300\n 22338: u64 [a3 + 192] = 0xffffffffffffffff\n 22343: u64 [a3 + 184] = 0xffffffffffffffff\n 22348: u64 [a3 + 176] = 0xffffffffffffffff\n 22353: u64 [a3 + 168] = 0xffffffffffffffff\n 22358: a1 = 0x800000000\n 22368: a2 = u64 [s1 + 0x70]\n 22371: t0 = a2 | a1\n 22374: a1 = s1 + 0x2be0\n 22378: a1 = a1 << 0x20\n 22381: a1 = a1 >> 0x20\n 22384: a2 = s1 + 0x2c20\n 22388: a2 = a2 << 0x20\n 22391: a3 = a2 | a1\n 22394: a1 = u64 [s1 + 0xa8]\n 22398: a1 = a1 << 0x20\n 22401: a1 = a1 >> 0x20\n 22404: a2 = 0x4400000000\n 22414: a4 = a1 | a2\n 22417: a0 = a0 << 0x20\n 22420: a0 = a0 >> 0x20\n 22423: a1 = s1 + 0x2c00\n 22427: a1 = a1 << 0x20\n 22430: a5 = a1 | a0\n 22433: a1 = 0xffffffffffffffff\n 22436: a2 = 0xffffffffffffffff\n 22439: a0 = t0\n 22441: ecalli 0 // 'call'\n 22442: fallthrough\n      : @810 (gas: 1)\n 22443: jump @820 if a0 != 0\n      : @811 (gas: 17)\n 22447: a2 = s1 + 0x1878\n 22451: u64 [a2 + 864] = 0\n 22455: u64 [a2 + 856] = 0\n 22459: u64 [a2 + 848] = 0\n 22463: u64 [a2 + 840] = 0\n 22467: a0 = u64 [s1 + 0x88]\n 22471: a4 = a2 + 0x300\n 22475: u64 [a4 + 0x68] = a0\n 22478: a0 = u64 [s1 + 0x68]\n 22481: u64 [a4 + 0x70] = a0\n 22484: a0 = u64 [s1 + 0x58]\n 22487: u64 [a4 + 0x78] = a0\n 22490: a0 = s1 + 0x1be0\n 22494: a1 = s1 + 0x1bc0\n 22498: a3 = u64 [s1 + 0x60]\n 22501: u64 [a4 + 0x80] = a3\n 22505: ra = 828, jump @1246\n      : @812 [@dyn 414] (gas: 6)\n 22511: a0 = u64 [s1 + 0xf0]\n 22515: u64 [a0 + 24] = 0\n 22518: u64 [a0 + 16] = 0\n 22521: u64 [a0 + 8] = 0\n 22524: u64 [a0 + 0] = 0\n 22526: jump @553\n      : @813 (gas: 3)\n 22529: a0 = s1 + 0x1b20\n 22533: a1 = 0x40\n 22536: ra = 830, jump @7\n      : @814 [@dyn 415] (gas: 14)\n 22542: a0 = s1 + 0x1878\n 22546: a2 = a0 + 0x200\n 22550: a1 = u64 [a2 + 0xc0]\n 22554: u64 [s1 + 0xf0] = a1\n 22558: a1 = u64 [a2 + 0xb8]\n 22562: u64 [s1 + 0xe8] = a1\n 22566: a1 = u64 [a2 + 0xb0]\n 22570: u64 [s1 + 0xe0] = a1\n 22574: a0 = u64 [a2 + 0xa8]\n 22578: u64 [s1 + 0xf8] = a0\n 22582: ra = 0x340\n 22586: ecalli 13 // 'return_data_size'\n 22588: t0 = 0x342\n 22592: jump @1462\n      : @815 [@dyn 416] (gas: 1)\n 22595: t0 = 834, jump @1462\n      : @816 [@dyn 417] (gas: 1)\n 22601: jump @827 if a1 != 0\n      : @817 (gas: 3)\n 22605: a2 = a0\n 22607: a0 = a0 >> 0x20\n 22610: jump @827 if a0 != 0\n      : @818 (gas: 6)\n 22614: i32 a0 = a2 + 0\n 22616: u64 [s1 + 0xf0] = a0\n 22620: a0 = u64 [s1 + 0xf8]\n 22624: a1 = a2\n 22626: u64 [s1 + 0xe8] = a2\n 22630: ra = 836, jump @20\n      : @819 [@dyn 418] (gas: 11)\n 22636: a1 = s1 + 0x2878\n 22640: a2 = u64 [s1 + 0xe8]\n 22644: u32 [a1 + 0x448] = a2\n 22648: i32 a0 = a0 + 0\n 22650: a1 = s1 + 0x3000\n 22654: i32 a1 = a1 + 0xfffffffffffffcc0\n 22658: a2 = 0\n 22660: ecalli 12 // 'return_data_copy'\n 22662: a0 = s1 + 0x2878\n 22666: a0 = i32 [a0 + 0x448]\n 22670: jump @791\n      : @820 (gas: 3)\n 22673: a0 = s1 + 0x1c00\n 22677: a1 = 0x40\n 22680: ra = 838, jump @7\n      : @821 [@dyn 419] (gas: 14)\n 22686: a0 = s1 + 0x1878\n 22690: a2 = a0 + 0x300\n 22694: a1 = u64 [a2 + 0xa0]\n 22698: u64 [s1 + 0xf0] = a1\n 22702: a1 = u64 [a2 + 0x98]\n 22706: u64 [s1 + 0xe8] = a1\n 22710: a1 = u64 [a2 + 0x90]\n 22714: u64 [s1 + 0xe0] = a1\n 22718: a0 = u64 [a2 + 0x88]\n 22722: u64 [s1 + 0xf8] = a0\n 22726: ra = 0x348\n 22730: ecalli 13 // 'return_data_size'\n 22732: t0 = 0x34a\n 22736: jump @1462\n      : @822 [@dyn 420] (gas: 1)\n 22739: t0 = 842, jump @1462\n      : @823 [@dyn 421] (gas: 1)\n 22745: jump @827 if a1 != 0\n      : @824 (gas: 3)\n 22748: a1 = a0\n 22750: a0 = a0 >> 0x20\n 22753: jump @827 if a0 != 0\n      : @825 (gas: 5)\n 22756: u64 [s1 + 0xe8] = a1\n 22760: i32 a0 = a1 + 0\n 22762: u64 [s1 + 0xf0] = a0\n 22766: a0 = u64 [s1 + 0xf8]\n 22770: ra = 844, jump @20\n      : @826 [@dyn 422] (gas: 11)\n 22776: a1 = s1 + 0x2878\n 22780: a2 = u64 [s1 + 0xe8]\n 22784: u32 [a1 + 0x3c8] = a2\n 22788: i32 a0 = a0 + 0\n 22790: a1 = s1 + 0x3000\n 22794: i32 a1 = a1 + 0xfffffffffffffc40\n 22798: a2 = 0\n 22800: ecalli 12 // 'return_data_copy'\n 22802: a0 = s1 + 0x2878\n 22806: a0 = i32 [a0 + 0x3c8]\n 22810: jump @791\n      : @827 (gas: 1)\n 22813: trap\n      : @828 (gas: 11)\n 22814: a2 = s1 + 0x7ff\n 22818: a2 = a2 + 0x79\n 22821: u64 [a2 + 1112] = 0\n 22825: u64 [a2 + 1104] = 0\n 22829: a0 = 0xfcb63a2200000000\n 22839: u64 [a2 + 0x460] = a0\n 22843: a1 = s1 + 0x7ff\n 22847: a1 = a1 + 0x4c1\n 22851: u64 [a2 + 1096] = 0\n 22855: a0 = 0\n 22857: ra = 846, jump @9\n      : @829 [@dyn 423] (gas: 2)\n 22863: a1 = i32 [0x20150]\n 22868: jump @831 if a1 >u 31\n      : @830 (gas: 4)\n 22872: u32 [0x20150] = 0x20\n 22878: a1 = 0x20160\n 22883: i32 a1 = a1 + 0\n 22885: jump @895\n      : @831 (gas: 3)\n 22888: a1 = 0x20160\n 22893: i32 a1 = a1 + 0\n 22895: jump @895\n      : @832 (gas: 3)\n 22898: a1 = 0x20160\n 22903: i32 a1 = a1 + 0\n 22905: jump @1182\n      : @833 (gas: 3)\n 22908: a1 = 0x20160\n 22913: i32 a1 = a1 + 0\n 22915: jump @1182\n      : @834 (gas: 3)\n 22918: a1 = 0x20160\n 22923: i32 a1 = a1 + 0\n 22925: jump @1182\n      : @835 (gas: 3)\n 22928: a1 = 0x20160\n 22933: i32 a1 = a1 + 0\n 22935: jump @1182\n      : @836 (gas: 11)\n 22938: a2 = s1 + 0x7ff\n 22942: a2 = a2 + 0x79\n 22945: u64 [a2 + 536] = 0\n 22949: u64 [a2 + 528] = 0\n 22953: a0 = 0x2c5211c600000000\n 22963: u64 [a2 + 0x220] = a0\n 22967: a1 = s1 + 0x7ff\n 22971: a1 = a1 + 0x281\n 22975: u64 [a2 + 520] = 0\n 22979: a0 = 0\n 22981: ra = 848, jump @9\n      : @837 [@dyn 424] (gas: 2)\n 22987: a1 = i32 [0x20150]\n 22992: jump @839 if a1 >u 31\n      : @838 (gas: 4)\n 22996: u32 [0x20150] = 0x20\n 23002: a1 = 0x20160\n 23007: i32 a1 = a1 + 0\n 23009: jump @895\n      : @839 (gas: 3)\n 23012: a1 = 0x20160\n 23017: i32 a1 = a1 + 0\n 23019: jump @895\n      : @840 (gas: 11)\n 23022: a2 = s1 + 0x7ff\n 23026: a2 = a2 + 0x79\n 23029: u64 [a2 + 568] = 0\n 23033: u64 [a2 + 560] = 0\n 23037: a0 = 0xfcb63a2200000000\n 23047: u64 [a2 + 0x240] = a0\n 23051: a1 = s1 + 0x7ff\n 23055: a1 = a1 + 0x2a1\n 23059: u64 [a2 + 552] = 0\n 23063: a0 = 0\n 23065: ra = 850, jump @9\n      : @841 [@dyn 425] (gas: 2)\n 23071: a1 = i32 [0x20150]\n 23076: jump @843 if a1 >u 31\n      : @842 (gas: 4)\n 23080: u32 [0x20150] = 0x20\n 23086: a1 = 0x20160\n 23091: i32 a1 = a1 + 0\n 23093: jump @895\n      : @843 (gas: 3)\n 23096: a1 = 0x20160\n 23101: i32 a1 = a1 + 0\n 23103: jump @895\n      : @844 (gas: 3)\n 23106: a1 = 0x20160\n 23111: i32 a1 = a1 + 0\n 23113: jump @1182\n      : @845 (gas: 3)\n 23116: a1 = 0x20160\n 23121: i32 a1 = a1 + 0\n 23123: jump @1182\n      : @846 (gas: 3)\n 23126: a1 = 0x20160\n 23131: i32 a1 = a1 + 0\n 23133: jump @1182\n      : @847 (gas: 3)\n 23136: a1 = 0x20160\n 23141: i32 a1 = a1 + 0\n 23143: jump @1182\n      : @848 (gas: 3)\n 23146: a1 = 0x20160\n 23151: i32 a1 = a1 + 0\n 23153: jump @1182\n      : @849 (gas: 3)\n 23156: a1 = 0x20160\n 23161: i32 a1 = a1 + 0\n 23163: jump @1182\n      : @850 (gas: 3)\n 23166: a1 = 0x20160\n 23171: i32 a1 = a1 + 0\n 23173: jump @1182\n      : @851 (gas: 3)\n 23176: a1 = 0x20160\n 23181: i32 a1 = a1 + 0\n 23183: jump @1182\n      : @852 (gas: 3)\n 23186: a1 = 0x20160\n 23191: i32 a1 = a1 + 0\n 23193: jump @1182\n      : @853 (gas: 3)\n 23196: t0 = 0x354\n 23200: a2 = s1 + 0x1078\n 23204: fallthrough\n      : @854 [@dyn 426] (gas: 8)\n 23205: u64 [a2 + 1752] = 0\n 23209: u64 [a2 + 1744] = 0\n 23213: a0 = 0x2c5211c600000000\n 23223: u64 [a2 + 0x6e0] = a0\n 23227: a1 = s1 + 0x1740\n 23231: u64 [a2 + 1736] = 0\n 23235: a0 = 0\n 23237: ra = 854, jump @9\n      : @855 [@dyn 427] (gas: 2)\n 23243: a1 = i32 [0x20150]\n 23248: jump @857 if a1 >u 31\n      : @856 (gas: 4)\n 23252: u32 [0x20150] = 0x20\n 23258: a1 = 0x20160\n 23263: i32 a1 = a1 + 0\n 23265: jump @895\n      : @857 (gas: 3)\n 23268: a1 = 0x20160\n 23273: i32 a1 = a1 + 0\n 23275: jump @895\n      : @858 (gas: 3)\n 23278: t0 = 0x358\n 23282: a2 = s1 + 0x1878\n 23286: fallthrough\n      : @859 [@dyn 428] (gas: 9)\n 23287: u64 [a2 + 1816] = 0\n 23291: u64 [a2 + 1808] = 0\n 23295: a0 = 0xcc67c13b00000000\n 23305: u64 [a2 + 0x720] = a0\n 23309: a1 = s1 + 0x1f80\n 23313: u64 [a2 + 1800] = 0\n 23317: a0 = 0\n 23319: ra = 0x362\n 23323: jump @9\n      : @860 (gas: 10)\n 23326: a0 = s1 + 0x1878\n 23330: u64 [a0 + 1880] = 0\n 23334: u64 [a0 + 1872] = 0\n 23338: u64 [a0 + 1864] = 0\n 23342: a2 = a0\n 23344: a0 = 0x4e487b7100000000\n 23354: a1 = s1 + 0x1fc0\n 23358: u64 [a2 + 0x760] = a0\n 23362: a0 = 0\n 23364: ra = 858, jump @9\n      : @861 [@dyn 429] (gas: 3)\n 23370: t0 = 0x35c\n 23374: a1 = s1 + 0x1878\n 23378: fallthrough\n      : @862 [@dyn 430] (gas: 9)\n 23379: u64 [a1 + 1856] = 0\n 23383: u64 [a1 + 1848] = 0\n 23387: u64 [a1 + 1832] = 0x11\n 23392: a2 = a1\n 23394: a0 = 0x4\n 23397: a1 = s1 + 0x1fa0\n 23401: u64 [a2 + 1840] = 0\n 23405: ra = 0x36c\n 23409: jump @9\n      : @863 (gas: 3)\n 23412: t0 = 0x35e\n 23416: a2 = s1 + 0x1878\n 23420: fallthrough\n      : @864 [@dyn 431] (gas: 9)\n 23421: u64 [a2 + 1912] = 0\n 23425: u64 [a2 + 1904] = 0\n 23429: a0 = 0xe9987cdd00000000\n 23439: u64 [a2 + 0x780] = a0\n 23443: a1 = s1 + 0x1fe0\n 23447: u64 [a2 + 1896] = 0\n 23451: a0 = 0\n 23453: ra = 0x362\n 23457: jump @9\n      : @865 (gas: 3)\n 23460: a1 = 0x20160\n 23465: i32 a1 = a1 + 0\n 23467: jump @1182\n      : @866 (gas: 3)\n 23470: a1 = 0x20160\n 23475: i32 a1 = a1 + 0\n 23477: jump @1182\n      : @867 (gas: 3)\n 23480: a1 = 0x20160\n 23485: i32 a1 = a1 + 0\n 23487: jump @1182\n      : @868 (gas: 3)\n 23490: a1 = 0x20160\n 23495: i32 a1 = a1 + 0\n 23497: jump @1182\n      : @869 (gas: 3)\n 23500: a1 = 0x20160\n 23505: i32 a1 = a1 + 0\n 23507: jump @1182\n      : @870 (gas: 3)\n 23510: a1 = 0x20160\n 23515: i32 a1 = a1 + 0\n 23517: jump @1182\n      : @871 (gas: 3)\n 23520: a1 = 0x20160\n 23525: i32 a1 = a1 + 0\n 23527: jump @1182\n      : @872 (gas: 3)\n 23530: a1 = 0x20160\n 23535: i32 a1 = a1 + 0\n 23537: jump @1182\n      : @873 (gas: 1)\n 23540: jump @906 if a0 != 2618616686\n      : @874 (gas: 10)\n 23548: a0 = s1 + 0x2878\n 23552: u64 [a0 + 256] = 0\n 23556: u64 [a0 + 248] = 0\n 23560: u64 [a0 + 240] = 0\n 23564: u64 [a0 + 232] = 0\n 23568: a0 = s1 + 0x3000\n 23572: i32 a0 = a0 + 0xfffffffffffff960\n 23576: ecalli 17 // 'value_transferred'\n 23578: a3 = s1 + 0x2878\n 23582: fallthrough\n      : @875 (gas: 8)\n 23583: a0 = u64 [a3 + 0xf8]\n 23587: a1 = u64 [a3 + 0x100]\n 23591: a2 = u64 [a3 + 0xf0]\n 23595: a3 = u64 [a3 + 0xe8]\n 23599: a1 = a1 | a2\n 23602: a0 = a0 | a3\n 23605: a0 = a0 | a1\n 23608: jump @925 if a0 == 0\n      : @876 (gas: 3)\n 23612: a1 = 0x20160\n 23617: i32 a1 = a1 + 0\n 23619: jump @1182\n      : @877 (gas: 3)\n 23622: a1 = 0x20160\n 23627: i32 a1 = a1 + 0\n 23629: jump @1182\n      : @878 (gas: 3)\n 23632: a1 = 0x20160\n 23637: i32 a1 = a1 + 0\n 23639: jump @1182\n      : @879 (gas: 3)\n 23642: a1 = 0x20160\n 23647: i32 a1 = a1 + 0\n 23649: jump @1182\n      : @880 (gas: 3)\n 23652: a1 = 0x20160\n 23657: i32 a1 = a1 + 0\n 23659: jump @1182\n      : @881 (gas: 3)\n 23662: a1 = 0x20160\n 23667: i32 a1 = a1 + 0\n 23669: jump @1182\n      : @882 (gas: 3)\n 23672: a1 = 0x20160\n 23677: i32 a1 = a1 + 0\n 23679: jump @1182\n      : @883 (gas: 3)\n 23682: a1 = 0x20160\n 23687: i32 a1 = a1 + 0\n 23689: jump @1182\n      : @884 (gas: 3)\n 23692: a1 = 0x20160\n 23697: i32 a1 = a1 + 0\n 23699: jump @1182\n      : @885 (gas: 3)\n 23702: t0 = 0x360\n 23706: a2 = s1 + 0x1878\n 23710: fallthrough\n      : @886 [@dyn 432] (gas: 8)\n 23711: u64 [a2 + 1400] = 0\n 23715: u64 [a2 + 1392] = 0\n 23719: a0 = 0xdd75059200000000\n 23729: u64 [a2 + 0x580] = a0\n 23733: a1 = s1 + 0x1de0\n 23737: u64 [a2 + 1384] = 0\n 23741: a0 = 0\n 23743: ra = 866, jump @9\n      : @887 [@dyn 433] (gas: 3)\n 23749: a1 = 0x4\n 23752: a0 = 0\n 23754: ra = 868, jump @20\n      : @888 [@dyn 434] (gas: 2)\n 23760: i32 a1 = a0 + 0\n 23762: jump @895\n      : @889 (gas: 3)\n 23764: a1 = 0x20160\n 23769: i32 a1 = a1 + 0\n 23771: jump @1182\n      : @890 (gas: 3)\n 23774: a1 = 0x20160\n 23779: i32 a1 = a1 + 0\n 23781: jump @1182\n      : @891 (gas: 11)\n 23784: a2 = s1 + 0x7ff\n 23788: a2 = a2 + 0x79\n 23791: u64 [a2 + 344] = 0\n 23795: u64 [a2 + 336] = 0\n 23799: a0 = 0xd5b25b6300000000\n 23809: u64 [a2 + 0x160] = a0\n 23813: a1 = s1 + 0x7ff\n 23817: a1 = a1 + 0x1c1\n 23821: u64 [a2 + 328] = 0\n 23825: a0 = 0\n 23827: ra = 870, jump @9\n      : @892 [@dyn 435] (gas: 2)\n 23833: a1 = i32 [0x20150]\n 23838: jump @894 if a1 >u 31\n      : @893 (gas: 4)\n 23842: u32 [0x20150] = 0x20\n 23848: a1 = 0x20160\n 23853: i32 a1 = a1 + 0\n 23855: jump @895\n      : @894 (gas: 3)\n 23857: a1 = 0x20160\n 23862: i32 a1 = a1 + 0\n 23864: fallthrough\n      : @895 (gas: 4)\n 23865: a0 = 0x1\n 23868: a2 = 0x4\n 23871: ecalli 14 // 'seal_return'\n 23873: fallthrough\n      : @896 (gas: 10)\n 23874: a0 = s1 + 0x1878\n 23878: u64 [a0 + 1976] = 0\n 23882: u64 [a0 + 1968] = 0\n 23886: u64 [a0 + 1960] = 0\n 23890: a2 = a0\n 23892: a0 = 0x4e487b7100000000\n 23902: a1 = s1 + 0x2020\n 23906: u64 [a2 + 0x7c0] = a0\n 23910: a0 = 0\n 23912: ra = 872, jump @9\n      : @897 [@dyn 436] (gas: 3)\n 23918: t0 = 0x36a\n 23922: a1 = s1 + 0x1878\n 23926: fallthrough\n      : @898 [@dyn 437] (gas: 8)\n 23927: u64 [a1 + 1952] = 0\n 23931: u64 [a1 + 1944] = 0\n 23935: u64 [a1 + 1928] = 0x41\n 23940: a2 = a1\n 23942: a0 = 0x4\n 23945: a1 = s1 + 0x2000\n 23949: u64 [a2 + 1936] = 0\n 23953: ra = 876, jump @9\n      : @899 [@dyn 438] (gas: 3)\n 23959: a1 = 0x24\n 23962: a0 = 0\n 23964: ra = 878, jump @20\n      : @900 [@dyn 439] (gas: 5)\n 23970: i32 a1 = a0 + 0\n 23972: a0 = 0x1\n 23975: a2 = 0x24\n 23978: ecalli 14 // 'seal_return'\n 23980: fallthrough\n      : @901 (gas: 12)\n 23981: a2 = s1 + 0x7ff\n 23985: a2 = a2 + 0x79\n 23988: u64 [a2 + 600] = 0\n 23992: u64 [a2 + 592] = 0\n 23996: a0 = 0xf4d678b800000000\n 24006: u64 [a2 + 0x260] = a0\n 24010: a1 = s1 + 0x7ff\n 24014: a1 = a1 + 0x2c1\n 24018: u64 [a2 + 584] = 0\n 24022: a0 = 0\n 24024: ra = 0x370\n 24028: jump @9\n      : @902 (gas: 11)\n 24031: a2 = s1 + 0x7ff\n 24035: a2 = a2 + 0x79\n 24038: u64 [a2 + 984] = 0\n 24042: u64 [a2 + 976] = 0\n 24046: a0 = 0xf4d678b800000000\n 24056: u64 [a2 + 0x3e0] = a0\n 24060: a1 = s1 + 0x7ff\n 24064: a1 = a1 + 0x441\n 24068: u64 [a2 + 968] = 0\n 24072: a0 = 0\n 24074: ra = 880, jump @9\n      : @903 [@dyn 440] (gas: 3)\n 24080: a0 = u64 [s1 + 0x78]\n 24083: a0 = i32 [a0]\n 24085: jump @905 if a0 >u 31\n      : @904 (gas: 3)\n 24089: a1 = u64 [s1 + 0x78]\n 24092: u32 [a1 + 0] = 0x20\n 24095: fallthrough\n      : @905 (gas: 6)\n 24096: a0 = 0x1\n 24099: a2 = 0x4\n 24102: a1 = u64 [s1 + 0x88]\n 24106: ra = 0x372\n 24110: ecalli 14 // 'seal_return'\n 24112: fallthrough\n      : @906 [@dyn 441] (gas: 1)\n 24113: jump @912 if a0 != 2685688103\n      : @907 (gas: 11)\n 24120: a0 = s1 + 0x2878\n 24124: u64 [a0 + 320] = 0\n 24128: u64 [a0 + 312] = 0\n 24132: u64 [a0 + 304] = 0\n 24136: u64 [a0 + 296] = 0\n 24140: a0 = s1 + 0x3000\n 24144: i32 a0 = a0 + 0xfffffffffffff9a0\n 24148: ra = 0x374\n 24152: ecalli 17 // 'value_transferred'\n 24154: t0 = 0x376\n 24158: jump @1497\n      : @908 [@dyn 442] (gas: 1)\n 24161: t0 = 886, jump @1497\n      : @909 [@dyn 443] (gas: 1)\n 24167: t0 = 888, jump @1494\n      : @910 [@dyn 444] (gas: 1)\n 24173: jump @927 if a0 == 0\n      : @911 (gas: 3)\n 24177: a1 = 0x20160\n 24182: i32 a1 = a1 + 0\n 24184: jump @1182\n      : @912 (gas: 1)\n 24187: jump @929 if a0 != 3058722618\n      : @913 (gas: 11)\n 24195: a0 = s1 + 0x2878\n 24199: u64 [a0 + 480] = 0\n 24203: u64 [a0 + 472] = 0\n 24207: u64 [a0 + 464] = 0\n 24211: u64 [a0 + 456] = 0\n 24215: a0 = s1 + 0x3000\n 24219: i32 a0 = a0 + 0xfffffffffffffa40\n 24223: ra = 0x37a\n 24227: ecalli 17 // 'value_transferred'\n 24229: t0 = 0x37c\n 24233: jump @1497\n      : @914 [@dyn 445] (gas: 1)\n 24236: t0 = 892, jump @1497\n      : @915 [@dyn 446] (gas: 1)\n 24242: t0 = 894, jump @1482\n      : @916 [@dyn 447] (gas: 1)\n 24248: jump @936 if a0 == 0\n      : @917 (gas: 3)\n 24252: a1 = 0x20160\n 24257: i32 a1 = a1 + 0\n 24259: jump @1182\n      : @918 (gas: 2)\n 24262: u64 [s1 + 184] = 0\n 24266: fallthrough\n      : @919 (gas: 5)\n 24267: a0 = u64 [s1 + 0xc8]\n 24271: a0 = a0 << 0x1\n 24274: a4 = u64 [s1 + 0xb8]\n 24278: a4 = a4 | a0\n 24281: fallthrough\n      : @920 (gas: 7)\n 24282: u64 [s1 + 824] = 0\n 24286: u64 [s1 + 816] = 0\n 24290: u64 [s1 + 808] = 0\n 24294: a1 = s1 + 0x320\n 24298: u64 [s1 + 0x320] = a4\n 24302: a0 = u64 [s1 + 0x78]\n 24305: ra = 896, jump @9\n      : @921 [@dyn 448] (gas: 4)\n 24311: a1 = 0x20\n 24314: a0 = u64 [s1 + 0x78]\n 24317: ra = 0x198\n 24321: jump @20\n      : @922 (gas: 5)\n 24324: a1 = 0x20160\n 24329: i32 a1 = a1 + 0\n 24331: a0 = 0x1\n 24334: ecalli 14 // 'seal_return'\n 24336: fallthrough\n      : @923 (gas: 4)\n 24337: a0 = 0x1\n 24340: a1 = u64 [s1 + 0xc0]\n 24344: ecalli 14 // 'seal_return'\n 24346: fallthrough\n      : @924 (gas: 8)\n 24347: a0 = 0x1\n 24350: a1 = u64 [s1 + 0xc0]\n 24354: a2 = 0\n 24356: ecalli 14 // 'seal_return'\n 24358: a1 = 0x20160\n 24363: i32 a1 = a1 + 0\n 24365: a0 = 0\n 24367: jump @1183\n      : @925 (gas: 3)\n 24370: a0 = u64 [s1 + 0xf8]\n 24374: a0 = i32 [a0]\n 24376: jump @938 if a0 >u 99\n      : @926 (gas: 3)\n 24381: a1 = 0x20160\n 24386: i32 a1 = a1 + 0\n 24388: jump @1182\n      : @927 (gas: 3)\n 24391: a0 = u64 [s1 + 0xf8]\n 24395: a0 = i32 [a0]\n 24397: jump @963 if a0 >u 67\n      : @928 (gas: 3)\n 24402: a1 = 0x20160\n 24407: i32 a1 = a1 + 0\n 24409: jump @1182\n      : @929 (gas: 1)\n 24412: jump @987 if a0 != 4076725131\n      : @930 (gas: 13)\n 24420: a0 = s1 + 0x2878\n 24424: u64 [a0 + 1568] = 0\n 24428: u64 [a0 + 1560] = 0\n 24432: u64 [a0 + 1552] = 0\n 24436: u64 [a0 + 1544] = 0\n 24440: a0 = s1 + 0x3000\n 24444: i32 a0 = a0 + 0xfffffffffffffe80\n 24448: ra = 0x382\n 24452: ecalli 17 // 'value_transferred'\n 24454: a3 = s1 + 0x2878\n 24458: a4 = a3 + 0x600\n 24462: t0 = 0x384\n 24466: jump @1475\n      : @931 [@dyn 449] (gas: 3)\n 24469: a3 = s1 + 0x2878\n 24473: a4 = a3 + 0x600\n 24477: t0 = 900, jump @1475\n      : @932 [@dyn 450] (gas: 1)\n 24483: jump @934 if a0 != 0\n      : @933 (gas: 3)\n 24486: a0 = u64 [s1 + 0xf8]\n 24490: a0 = i32 [a0]\n 24492: jump @993 if a0 >u 35\n      : @934 (gas: 3)\n 24497: a0 = 0\n 24499: a1 = 0\n 24501: ra = 902, jump @20\n      : @935 [@dyn 451] (gas: 3)\n 24507: i32 a1 = a0 + 0\n 24509: a0 = 0x1\n 24512: jump @1183\n      : @936 (gas: 3)\n 24515: a0 = u64 [s1 + 0xf8]\n 24519: a0 = i32 [a0]\n 24521: jump @1000 if a0 >u 35\n      : @937 (gas: 3)\n 24526: a1 = 0x20160\n 24531: i32 a1 = a1 + 0\n 24533: jump @1182\n      : @938 (gas: 4)\n 24536: a0 = s1 + 0x1060\n 24540: ra = 0x388\n 24544: t0 = 0x4de\n 24548: jump @1493\n      : @939 [@dyn 452] (gas: 14)\n 24551: a0 = s1 + 0x1078\n 24555: a1 = u64 [a0]\n 24557: u64 [s1 + 0x70] = a1\n 24560: a2 = a0 + 0xffffffffffffff00\n 24564: a1 = u64 [a2 + 0xf8]\n 24568: u64 [s1 + 0x68] = a1\n 24571: a1 = u64 [a2 + 0xf0]\n 24575: u64 [s1 + 0x60] = a1\n 24578: a0 = u64 [a2 + 0xe8]\n 24582: u64 [s1 + 0x50] = a0\n 24585: a0 = s1 + 0x1040\n 24589: ra = 0x38a\n 24593: t0 = 0x4e8\n 24597: jump @1499\n      : @940 [@dyn 453] (gas: 15)\n 24600: a1 = s1 + 0x7ff\n 24604: a1 = a1 + 0x79\n 24607: a2 = a1 + 0x700\n 24611: a0 = u64 [a2 + 0xe0]\n 24615: u64 [s1 + 0x58] = a0\n 24618: a0 = u64 [a2 + 0xd8]\n 24622: u64 [s1 + 0x48] = a0\n 24625: a0 = u64 [a2 + 0xd0]\n 24629: u64 [s1 + 0x40] = a0\n 24632: a0 = u64 [a2 + 0xc8]\n 24636: u64 [s1 + 0x78] = a0\n 24639: a0 = s1 + 0x1020\n 24643: ra = 0x38c\n 24647: t0 = 0x4ee\n 24651: jump @1499\n      : @941 [@dyn 454] (gas: 15)\n 24654: a1 = s1 + 0x7ff\n 24658: a1 = a1 + 0x79\n 24661: a2 = a1 + 0x700\n 24665: a0 = u64 [a2 + 0xc0]\n 24669: u64 [s1 + 0x38] = a0\n 24672: a0 = u64 [a2 + 0xb8]\n 24676: u64 [s1 + 0x30] = a0\n 24679: a0 = u64 [a2 + 0xb0]\n 24683: u64 [s1 + 0x28] = a0\n 24686: a0 = u64 [a2 + 0xa8]\n 24690: u64 [s1 + 0x20] = a0\n 24693: a0 = s1 + 0x3000\n 24697: i32 a0 = a0 + 0xfffffffffffff980\n 24701: ecalli 10 // 'now'\n 24703: fallthrough\n      : @942 (gas: 49)\n 24704: a0 = s1 + 0x2878\n 24708: t0 = u64 [a0 + 0x120]\n 24712: a4 = u64 [a0 + 0x118]\n 24716: u64 [s1 + 0xb8] = a4\n 24720: t2 = u64 [a0 + 0x110]\n 24724: a3 = u64 [a0 + 0x108]\n 24728: u64 [s1 + 0xa0] = a3\n 24732: a0 = clz t0\n 24734: a1 = clz a4\n 24736: a2 = a1 + 0x40\n 24739: a2 = a0 if t0 != 0\n 24742: a0 = clz t2\n 24744: a1 = clz a3\n 24746: a1 = a1 + 0x40\n 24749: a1 = a0 if t2 != 0\n 24752: a0 = a1 + 0x80\n 24756: a3 = a4 | t0\n 24759: a2 = a0 if a3 == 0\n 24762: a5 = a0 <u a1\n 24765: a5 = 0 if a3 != 0\n 24767: a4 = a5 >u 0\n 24769: a0 = a2 <u 0xf0\n 24773: a3 = a0 ^ 0x1\n 24776: a4 = a3 if a5 == 0\n 24779: a0 = a4 <u 0x1\n 24782: ra = a0 + 0xffffffffffffffff\n 24785: t1 = -a4\n 24787: a5 = -a5\n 24789: a3 = a5 - a3\n 24792: a2 = 0xef - a2\n 24796: a5 = t1 >u 0\n 24798: a0 = ra >u 0\n 24800: a0 = a5 if ra == 0\n 24803: a5 = a2 <u 0x100\n 24807: a5 = a5 ^ 0x1\n 24810: a1 = a3 >u 0\n 24812: a5 = a1 if a3 != 0\n 24815: a5 = a0 if a4 != 0\n 24818: u64 [s1 + 0x98] = t2\n 24822: u64 [s1 + 0xb0] = t0\n 24826: a0 = t2 | t0\n 24829: a4 = u64 [s1 + 0xa0]\n 24833: a1 = u64 [s1 + 0xb8]\n 24837: a1 = a1 | a4\n 24840: a0 = a0 | a1\n 24843: a0 = a0 <u 0x1\n 24846: a0 = a0 | a5\n 24849: a4 = 0 if a0 != 0\n 24851: jump @1022 if a0 != 0\n      : @943 (gas: 5)\n 24855: a0 = a2 ^ 0xff\n 24859: a0 = a0 | t1\n 24862: a1 = a3 | ra\n 24865: a0 = a0 | a1\n 24868: jump @1022 if a0 == 0\n      : @944 (gas: 1)\n 24872: t0 = 910, jump @1460\n      : @945 [@dyn 455] (gas: 1)\n 24878: ra = 912, jump @1504\n      : @946 [@dyn 456] (gas: 6)\n 24884: u64 [s1 + 0xa8] = a0\n 24888: u64 [s1 + 0xc8] = a1\n 24892: a0 = u64 [s1 + 0xb8]\n 24896: a1 = u64 [s1 + 0xb0]\n 24900: a2 = u64 [s1 + 0xc0]\n 24904: ra = 914, jump @1509\n      : @947 [@dyn 457] (gas: 7)\n 24910: u64 [s1 + 0x90] = a0\n 24914: u64 [s1 + 0x88] = a1\n 24918: a0 = u64 [s1 + 0xc0]\n 24922: a2 = a0 + 0xffffffffffffff80\n 24925: a0 = u64 [s1 + 0xa0]\n 24929: a1 = u64 [s1 + 0x98]\n 24933: ra = 916, jump @1509\n      : @948 [@dyn 458] (gas: 8)\n 24939: u64 [s1 + 0x80] = a0\n 24943: u64 [s1 + 0x18] = a1\n 24946: a2 = u64 [s1 + 0xc0]\n 24950: a0 = a2 <u 0x80\n 24954: u64 [s1 + 0x10] = a0\n 24957: a0 = u64 [s1 + 0xa0]\n 24961: a1 = u64 [s1 + 0x98]\n 24965: ra = 918, jump @1509\n      : @949 [@dyn 459] (gas: 12)\n 24971: u64 [s1 + 0xd0] = a1\n 24975: a1 = u64 [s1 + 0xf0]\n 24979: a2 = u64 [s1 + 0xe8]\n 24983: a2 = a2 | a1\n 24986: a1 = u64 [s1 + 0xf8]\n 24990: a3 = u64 [s1 + 0xe0]\n 24994: a1 = a1 | a3\n 24997: a1 = a1 | a2\n 25000: a3 = u64 [s1 + 0x10]\n 25003: a0 = 0 if a3 == 0\n 25005: u64 [s1 + 0xd8] = a0\n 25009: jump @1020 if a1 == 0\n      : @950 (gas: 7)\n 25013: a2 = a3\n 25015: a0 = u64 [s1 + 0xc8]\n 25019: a1 = u64 [s1 + 0x88]\n 25023: a0 = a0 | a1\n 25026: a5 = a3\n 25028: a1 = u64 [s1 + 0x18]\n 25031: t0 = 920, jump @1456\n      : @951 [@dyn 460] (gas: 1)\n 25037: ra = 922, jump @1504\n      : @952 [@dyn 461] (gas: 6)\n 25043: u64 [s1 + 0xa8] = a0\n 25047: u64 [s1 + 0x80] = a1\n 25051: a0 = u64 [s1 + 0xa0]\n 25055: a1 = u64 [s1 + 0x98]\n 25059: a2 = u64 [s1 + 0xf8]\n 25063: ra = 924, jump @1504\n      : @953 [@dyn 462] (gas: 7)\n 25069: u64 [s1 + 0x18] = a0\n 25072: u64 [s1 + 0x88] = a1\n 25076: a1 = u64 [s1 + 0xf8]\n 25080: a2 = 0x80 - a1\n 25084: a0 = u64 [s1 + 0xb8]\n 25088: a1 = u64 [s1 + 0xb0]\n 25092: ra = 926, jump @1509\n      : @954 [@dyn 463] (gas: 1)\n 25098: t0 = 928, jump @1484\n      : @955 [@dyn 464] (gas: 2)\n 25104: a1 = u64 [s1 + 0x18]\n 25107: t0 = 930, jump @1503\n      : @956 [@dyn 465] (gas: 1)\n 25113: ra = 932, jump @1504\n      : @957 [@dyn 466] (gas: 1)\n 25119: t0 = 934, jump @1467\n      : @958 [@dyn 467] (gas: 1)\n 25125: t0 = 936, jump @1472\n      : @959 [@dyn 468] (gas: 5)\n 25131: t0 = ra <u a2\n 25134: a4 = u64 [s1 + 0x88]\n 25138: a5 = a4 <u a3\n 25141: a5 = t0 if t1 != 0\n 25144: t0 = 938, jump @1477\n      : @960 [@dyn 469] (gas: 20)\n 25150: t0 = a0 | a1\n 25153: a1 = a4 << 0x1\n 25156: a4 = u64 [s1 + 0xd0]\n 25160: t1 = a4 >> 0x3f\n 25163: t1 = a1 | t1\n 25166: a1 = a4 << 0x1\n 25169: a4 = u64 [s1 + 0xd8]\n 25173: t2 = a4 >> 0x3f\n 25176: a1 = a1 | t2\n 25179: a4 = a4 << 0x1\n 25182: a0 = u64 [s1 + 0xb8]\n 25186: a4 = a4 | a0\n 25189: u64 [s1 + 0xd8] = a4\n 25193: a0 = u64 [s1 + 0xb0]\n 25197: a1 = a1 | a0\n 25200: u64 [s1 + 0xd0] = a1\n 25204: a1 = a0 | t1\n 25207: u64 [s1 + 0xc0] = a1\n 25211: a0 = a0 | t0\n 25214: t0 = 940, jump @1450\n      : @961 [@dyn 470] (gas: 18)\n 25220: t0 = a4 <u a2\n 25223: a2 = a4 - a2\n 25226: a4 = a3 <u 0x1\n 25229: a5 = a5 - a4\n 25232: a4 = u64 [s1 + 0xe8]\n 25236: a4 = a4 - t0\n 25239: a3 = a3 + 0xffffffffffffffff\n 25242: u64 [s1 + 0xf0] = a5\n 25246: u64 [s1 + 0xe8] = a4\n 25250: t0 = a5 | a4\n 25253: u64 [s1 + 0xf8] = a3\n 25257: a4 = a3 | a2\n 25260: a3 = a4 | t0\n 25263: a4 = ra & 0x1\n 25266: u64 [s1 + 0xb8] = a4\n 25270: u64 [s1 + 0xe0] = a2\n 25274: u64 [s1 + 176] = 0\n 25278: jump @958 if a3 != 0\n      : @962 (gas: 1)\n 25282: jump @1021\n      : @963 (gas: 4)\n 25285: a0 = s1 + 0x1420\n 25289: ra = 0x3ae\n 25293: t0 = 0x4f8\n 25297: jump @1493\n      : @964 [@dyn 471] (gas: 7)\n 25300: a0 = s1 + 0x1078\n 25304: a0 = u64 [a0 + 0x3a8]\n 25308: u64 [s1 + 0x78] = a0\n 25311: a0 = s1 + 0x1400\n 25315: ra = 0x3b0\n 25319: t0 = 0x4e8\n 25323: jump @1499\n      : @965 [@dyn 472] (gas: 7)\n 25326: a0 = s1 + 0x1078\n 25330: a0 = u64 [a0 + 0x388]\n 25334: u64 [s1 + 0x70] = a0\n 25337: a0 = s1 + 0x3000\n 25341: i32 a0 = a0 + 0xfffffffffffff9c0\n 25345: ecalli 10 // 'now'\n 25347: fallthrough\n      : @966 (gas: 51)\n 25348: a0 = s1 + 0x2878\n 25352: t0 = u64 [a0 + 0x160]\n 25356: a4 = u64 [a0 + 0x158]\n 25360: u64 [s1 + 0xb8] = a4\n 25364: t2 = u64 [a0 + 0x150]\n 25368: a3 = u64 [a0 + 0x148]\n 25372: u64 [s1 + 0xa0] = a3\n 25376: a0 = clz t0\n 25378: a1 = clz a4\n 25380: a2 = a1 + 0x40\n 25383: a2 = a0 if t0 != 0\n 25386: a0 = clz t2\n 25388: a1 = clz a3\n 25390: a1 = a1 + 0x40\n 25393: a1 = a0 if t2 != 0\n 25396: a0 = a1 + 0x80\n 25400: a3 = a4 | t0\n 25403: a2 = a0 if a3 == 0\n 25406: a5 = a0 <u a1\n 25409: a5 = 0 if a3 != 0\n 25411: a4 = a5 >u 0\n 25413: a0 = a2 <u 0xf0\n 25417: a3 = a0 ^ 0x1\n 25420: a4 = a3 if a5 == 0\n 25423: a0 = a4 <u 0x1\n 25426: ra = a0 + 0xffffffffffffffff\n 25429: t1 = -a4\n 25431: a5 = -a5\n 25433: a3 = a5 - a3\n 25436: a2 = 0xef - a2\n 25440: a5 = t1 >u 0\n 25442: a0 = ra >u 0\n 25444: a0 = a5 if ra == 0\n 25447: a5 = a2 <u 0x100\n 25451: a5 = a5 ^ 0x1\n 25454: a1 = a3 >u 0\n 25456: a5 = a1 if a3 != 0\n 25459: a5 = a0 if a4 != 0\n 25462: u64 [s1 + 0x98] = t2\n 25466: u64 [s1 + 0xb0] = t0\n 25470: a0 = t2 | t0\n 25473: a4 = u64 [s1 + 0xa0]\n 25477: a1 = u64 [s1 + 0xb8]\n 25481: a1 = a1 | a4\n 25484: a0 = a0 | a1\n 25487: a0 = a0 <u 0x1\n 25490: a0 = a0 | a5\n 25493: a1 = a4\n 25495: a1 = 0 if a0 != 0\n 25497: u64 [s1 + 0xe8] = a1\n 25501: jump @1027 if a0 != 0\n      : @967 (gas: 5)\n 25505: a0 = a2 ^ 0xff\n 25509: a0 = a0 | t1\n 25512: a1 = a3 | ra\n 25515: a0 = a0 | a1\n 25518: jump @1027 if a0 == 0\n      : @968 (gas: 1)\n 25522: t0 = 946, jump @1460\n      : @969 [@dyn 473] (gas: 1)\n 25528: ra = 948, jump @1504\n      : @970 [@dyn 474] (gas: 6)\n 25534: u64 [s1 + 0xa8] = a0\n 25538: u64 [s1 + 0xc8] = a1\n 25542: a0 = u64 [s1 + 0xb8]\n 25546: a1 = u64 [s1 + 0xb0]\n 25550: a2 = u64 [s1 + 0xc0]\n 25554: ra = 950, jump @1509\n      : @971 [@dyn 475] (gas: 7)\n 25560: u64 [s1 + 0x90] = a0\n 25564: u64 [s1 + 0x88] = a1\n 25568: a0 = u64 [s1 + 0xc0]\n 25572: a2 = a0 + 0xffffffffffffff80\n 25575: a0 = u64 [s1 + 0xa0]\n 25579: a1 = u64 [s1 + 0x98]\n 25583: ra = 952, jump @1509\n      : @972 [@dyn 476] (gas: 8)\n 25589: u64 [s1 + 0x80] = a0\n 25593: u64 [s1 + 0x68] = a1\n 25596: a2 = u64 [s1 + 0xc0]\n 25600: a0 = a2 <u 0x80\n 25604: u64 [s1 + 0x60] = a0\n 25607: a0 = u64 [s1 + 0xa0]\n 25611: a1 = u64 [s1 + 0x98]\n 25615: ra = 954, jump @1509\n      : @973 [@dyn 477] (gas: 12)\n 25621: u64 [s1 + 0xd0] = a1\n 25625: a1 = u64 [s1 + 0xf0]\n 25629: a2 = u64 [s1 + 0xe8]\n 25633: a2 = a2 | a1\n 25636: a1 = u64 [s1 + 0xf8]\n 25640: a3 = u64 [s1 + 0xe0]\n 25644: a1 = a1 | a3\n 25647: a1 = a1 | a2\n 25650: a3 = u64 [s1 + 0x60]\n 25653: a0 = 0 if a3 == 0\n 25655: u64 [s1 + 0xd8] = a0\n 25659: jump @1025 if a1 == 0\n      : @974 (gas: 7)\n 25663: a2 = a3\n 25665: a0 = u64 [s1 + 0xc8]\n 25669: a1 = u64 [s1 + 0x88]\n 25673: a0 = a0 | a1\n 25676: a5 = a3\n 25678: a1 = u64 [s1 + 0x68]\n 25681: t0 = 956, jump @1456\n      : @975 [@dyn 478] (gas: 1)\n 25687: ra = 958, jump @1504\n      : @976 [@dyn 479] (gas: 6)\n 25693: u64 [s1 + 0xa8] = a0\n 25697: u64 [s1 + 0x80] = a1\n 25701: a0 = u64 [s1 + 0xa0]\n 25705: a1 = u64 [s1 + 0x98]\n 25709: a2 = u64 [s1 + 0xf8]\n 25713: ra = 960, jump @1504\n      : @977 [@dyn 480] (gas: 7)\n 25719: u64 [s1 + 0x68] = a0\n 25722: u64 [s1 + 0x88] = a1\n 25726: a1 = u64 [s1 + 0xf8]\n 25730: a2 = 0x80 - a1\n 25734: a0 = u64 [s1 + 0xb8]\n 25738: a1 = u64 [s1 + 0xb0]\n 25742: ra = 962, jump @1509\n      : @978 [@dyn 481] (gas: 1)\n 25748: t0 = 964, jump @1484\n      : @979 [@dyn 482] (gas: 2)\n 25754: a1 = u64 [s1 + 0x68]\n 25757: t0 = 966, jump @1503\n      : @980 [@dyn 483] (gas: 1)\n 25763: ra = 968, jump @1504\n      : @981 [@dyn 484] (gas: 1)\n 25769: t0 = 970, jump @1467\n      : @982 [@dyn 485] (gas: 1)\n 25775: t0 = 972, jump @1472\n      : @983 [@dyn 486] (gas: 5)\n 25781: t0 = ra <u a2\n 25784: a4 = u64 [s1 + 0x88]\n 25788: a5 = a4 <u a3\n 25791: a5 = t0 if t1 != 0\n 25794: t0 = 974, jump @1477\n      : @984 [@dyn 487] (gas: 20)\n 25800: t0 = a0 | a1\n 25803: a1 = a4 << 0x1\n 25806: a4 = u64 [s1 + 0xd0]\n 25810: t1 = a4 >> 0x3f\n 25813: t1 = a1 | t1\n 25816: a1 = a4 << 0x1\n 25819: a4 = u64 [s1 + 0xd8]\n 25823: t2 = a4 >> 0x3f\n 25826: a1 = a1 | t2\n 25829: a4 = a4 << 0x1\n 25832: a0 = u64 [s1 + 0xb8]\n 25836: a4 = a4 | a0\n 25839: u64 [s1 + 0xd8] = a4\n 25843: a0 = u64 [s1 + 0xb0]\n 25847: a1 = a1 | a0\n 25850: u64 [s1 + 0xd0] = a1\n 25854: a1 = a0 | t1\n 25857: u64 [s1 + 0xc0] = a1\n 25861: a0 = a0 | t0\n 25864: t0 = 976, jump @1450\n      : @985 [@dyn 488] (gas: 18)\n 25870: t0 = a4 <u a2\n 25873: a2 = a4 - a2\n 25876: a4 = a3 <u 0x1\n 25879: a5 = a5 - a4\n 25882: a4 = u64 [s1 + 0xe8]\n 25886: a4 = a4 - t0\n 25889: a3 = a3 + 0xffffffffffffffff\n 25892: u64 [s1 + 0xf0] = a5\n 25896: u64 [s1 + 0xe8] = a4\n 25900: t0 = a5 | a4\n 25903: u64 [s1 + 0xf8] = a3\n 25907: a4 = a3 | a2\n 25910: a3 = a4 | t0\n 25913: a4 = ra & 0x1\n 25916: u64 [s1 + 0xb8] = a4\n 25920: u64 [s1 + 0xe0] = a2\n 25924: u64 [s1 + 176] = 0\n 25928: jump @982 if a3 != 0\n      : @986 (gas: 1)\n 25932: jump @1026\n      : @987 (gas: 1)\n 25935: jump @1093 if a0 != 235423050\n      : @988 (gas: 11)\n 25943: a0 = s1 + 0x2078\n 25947: u64 [a0 + 1056] = 0\n 25951: u64 [a0 + 1048] = 0\n 25955: u64 [a0 + 1040] = 0\n 25959: u64 [a0 + 1032] = 0\n 25963: a0 = s1 + 0x2000\n 25967: i32 a0 = a0 + 0x480\n 25971: ra = 0x3d2\n 25975: ecalli 17 // 'value_transferred'\n 25977: t0 = 0x3d4\n 25981: jump @1496\n      : @989 [@dyn 489] (gas: 1)\n 25984: t0 = 980, jump @1496\n      : @990 [@dyn 490] (gas: 1)\n 25990: t0 = 982, jump @1475\n      : @991 [@dyn 491] (gas: 1)\n 25996: jump @1098 if a0 == 0\n      : @992 (gas: 3)\n 26000: a1 = 0x20160\n 26005: i32 a1 = a1 + 0\n 26007: jump @1182\n      : @993 (gas: 4)\n 26010: a0 = s1 + 0x2420\n 26014: ra = 0x3d8\n 26018: t0 = 0x4de\n 26022: jump @1493\n      : @994 [@dyn 492] (gas: 8)\n 26025: a0 = s1 + 0x2078\n 26029: a1 = u64 [a0 + 0x3b0]\n 26033: u64 [s1 + 0xf0] = a1\n 26037: a1 = u64 [a0 + 0x3a8]\n 26041: u64 [s1 + 0xf8] = a1\n 26045: a0 = u32 [a0 + 0x3b8]\n 26049: u64 [s1 + 0xe8] = a0\n 26053: ra = 986, jump @1256\n      : @995 [@dyn 493] (gas: 6)\n 26059: a0 = u64 [s1 + 0xf8]\n 26063: a1 = u64 [s1 + 0xe8]\n 26067: a0 = a0 | a1\n 26070: a1 = u64 [s1 + 0xf0]\n 26074: a0 = a0 | a1\n 26077: jump @1100 if a0 == 0\n      : @996 (gas: 8)\n 26081: a1 = s1 + 0x2878\n 26085: u64 [a1 + 1600] = 0\n 26089: u64 [a1 + 1592] = 0\n 26093: u64 [a1 + 1584] = 0\n 26097: u64 [a1 + 1576] = 0x1\n 26102: a0 = s1 + 0x2400\n 26106: a1 = s1 + 0x2ea0\n 26110: ra = 988, jump @11\n      : @997 [@dyn 494] (gas: 21)\n 26116: a1 = s1 + 0x2078\n 26120: a0 = u32 [a1 + 0x39c]\n 26124: a0 = a0 << 0x20\n 26127: a1 = u64 [a1 + 0x3a0]\n 26131: a2 = u64 [s1 + 0xe8]\n 26135: a0 = a0 | a2\n 26138: a3 = s1 + 0x2878\n 26142: u64 [a3 + 1632] = 0\n 26146: u64 [a3 + 1624] = 0\n 26150: u64 [a3 + 1616] = 0\n 26154: a4 = a3 + 0x600\n 26158: u64 [a4 + 72] = 0x1\n 26162: a2 = u64 [s1 + 0xf0]\n 26166: u64 [a4 + 0x70] = a2\n 26169: a2 = u64 [s1 + 0xf8]\n 26173: u64 [a4 + 0x68] = a2\n 26176: u64 [a4 + 0x80] = a1\n 26180: u64 [a4 + 0x78] = a0\n 26183: a0 = s1 + 0x2ec0\n 26187: a1 = s1 + 0x2ee0\n 26191: ra = 990, jump @12\n      : @998 [@dyn 495] (gas: 3)\n 26197: a0 = 0\n 26199: a1 = 0\n 26201: ra = 992, jump @20\n      : @999 [@dyn 496] (gas: 3)\n 26207: i32 a1 = a0 + 0\n 26209: a0 = 0\n 26211: jump @1183\n      : @1000 (gas: 4)\n 26214: a0 = s1 + 0x1720\n 26218: ra = 0x3e2\n 26222: t0 = 0x4f8\n 26226: jump @1493\n      : @1001 [@dyn 497] (gas: 12)\n 26229: a0 = s1 + 0x1078\n 26233: a0 = u64 [a0 + 0x6a8]\n 26237: u64 [s1 + 0xe0] = a0\n 26241: a0 = 0x30160\n 26246: u64 [s1 + 0xe8] = a0\n 26250: i32 a0 = a0 + 0\n 26252: u64 [s1 + 0xd8] = a0\n 26256: ra = 0x3e4\n 26260: ecalli 4 // 'caller'\n 26262: a2 = u64 [s1 + 0xe8]\n 26266: t0 = 0x3e6\n 26270: jump @1444\n      : @1002 [@dyn 498] (gas: 2)\n 26273: a2 = u64 [s1 + 0xe8]\n 26277: t0 = 998, jump @1444\n      : @1003 [@dyn 499] (gas: 8)\n 26283: u64 [a2 + 1696] = 0\n 26287: a4 = a2 + 0x600\n 26291: u64 [a4 + 0x98] = a1\n 26295: u64 [a4 + 0x90] = a0\n 26299: a1 = s1 + 0x1700\n 26303: u64 [a4 + 0x88] = a3\n 26307: a0 = 0\n 26309: ra = 1000, jump @9\n      : @1004 [@dyn 500] (gas: 3)\n 26315: t0 = 0x3ea\n 26319: a1 = s1 + 0x1078\n 26323: fallthrough\n      : @1005 [@dyn 501] (gas: 8)\n 26324: u64 [a1 + 1664] = 0\n 26328: u64 [a1 + 1656] = 0\n 26332: u64 [a1 + 1640] = 0x3\n 26337: a2 = a1\n 26339: a0 = 0x20\n 26342: a1 = s1 + 0x16e0\n 26346: u64 [a2 + 1648] = 0\n 26350: ra = 1004, jump @9\n      : @1006 [@dyn 502] (gas: 4)\n 26356: a0 = 0x20150\n 26361: u64 [s1 + 0xf8] = a0\n 26365: a0 = i32 [0x20150]\n 26370: jump @1008 if a0 >u 63\n      : @1007 (gas: 3)\n 26374: a1 = u64 [s1 + 0xf8]\n 26378: u32 [a1 + 0] = 0x40\n 26381: fallthrough\n      : @1008 (gas: 14)\n 26382: a0 = sp + 0xffffffffffffffe0\n 26385: a2 = a0 & 0xffffffffffffffe0\n 26388: u64 [s1 + 0xd0] = a2\n 26392: sp = a2\n 26394: a0 = 0x20160\n 26399: i32 a0 = a0 + 0\n 26401: i32 a2 = a2 + 0\n 26403: a1 = 0x40\n 26406: u64 [s1 + 0xf0] = a0\n 26410: ra = 0x3ee\n 26414: ecalli 9 // 'hash_keccak_256'\n 26416: a3 = u64 [s1 + 0xd0]\n 26420: t0 = 0x3f0\n 26424: jump @1489\n      : @1009 [@dyn 503] (gas: 2)\n 26427: a3 = u64 [s1 + 0xd0]\n 26431: t0 = 1008, jump @1489\n      : @1010 [@dyn 504] (gas: 19)\n 26437: u64 [s1 + 0xc8] = a0\n 26441: a0 = reverse a1\n 26443: u64 [s1 + 0xc0] = a0\n 26447: a0 = reverse a2\n 26449: u64 [s1 + 0xb8] = a0\n 26453: a0 = reverse a3\n 26455: u64 [s1 + 0xb0] = a0\n 26459: a0 = u64 [s1 + 0xe0]\n 26463: a0 = a0 << 0x20\n 26466: a2 = a0 >> 0x20\n 26469: a0 = s1 + 0x1078\n 26473: u64 [a0 + 1632] = 0\n 26477: u64 [a0 + 1624] = 0\n 26481: u64 [a0 + 1616] = 0\n 26485: a1 = s1 + 0x16c0\n 26489: u64 [s1 + 0xd0] = a2\n 26493: u64 [a0 + 0x648] = a2\n 26497: a0 = 0\n 26499: ra = 1010, jump @9\n      : @1011 [@dyn 505] (gas: 14)\n 26505: a0 = u64 [s1 + 0xb0]\n 26509: a1 = s1 + 0x1078\n 26513: a2 = a1 + 0x600\n 26517: u64 [a2 + 0x40] = a0\n 26520: a0 = u64 [s1 + 0xb8]\n 26524: u64 [a2 + 0x38] = a0\n 26527: a0 = u64 [s1 + 0xc0]\n 26531: u64 [a2 + 0x30] = a0\n 26534: a3 = a1\n 26536: a0 = 0x20\n 26539: a1 = s1 + 0x16a0\n 26543: a2 = u64 [s1 + 0xc8]\n 26547: u64 [a3 + 0x628] = a2\n 26551: ra = 1012, jump @9\n      : @1012 [@dyn 506] (gas: 3)\n 26557: a0 = u64 [s1 + 0xf8]\n 26561: a0 = i32 [a0]\n 26563: jump @1014 if a0 >u 63\n      : @1013 (gas: 3)\n 26567: a0 = u64 [s1 + 0xf8]\n 26571: u32 [a0 + 0] = 0x40\n 26574: fallthrough\n      : @1014 (gas: 4)\n 26575: a0 = sp + 0xffffffffffffffe0\n 26578: a0 = a0 & 0xffffffffffffffe0\n 26581: u64 [s1 + 0xe0] = a0\n 26585: t0 = 1014, jump @1468\n      : @1015 [@dyn 507] (gas: 28)\n 26591: ecalli 9 // 'hash_keccak_256'\n 26593: a3 = u64 [s1 + 0xe0]\n 26597: a0 = u64 [a3]\n 26599: a1 = u64 [a3 + 0x8]\n 26602: a2 = u64 [a3 + 0x10]\n 26605: a3 = u64 [a3 + 0x18]\n 26608: a0 = reverse a0\n 26610: a5 = reverse a1\n 26612: a2 = reverse a2\n 26614: a3 = reverse a3\n 26616: a4 = sp + 0xffffffffffffffe0\n 26619: a1 = a4 & 0xffffffffffffffe0\n 26622: sp = a1\n 26624: a3 = a3 + 0x1\n 26627: a4 = a3 <u 0x1\n 26630: a2 = a2 + a4\n 26633: a4 = a3 | a2\n 26636: a4 = a4 <u 0x1\n 26639: a4 = a4 + a5\n 26642: a5 = a4 <u a5\n 26645: a0 = a0 + a5\n 26648: u64 [a1 + 0x8] = a2\n 26651: u64 [a1] = a3\n 26653: u64 [a1 + 0x10] = a4\n 26656: u64 [a1 + 0x18] = a0\n 26659: a0 = s1 + 0x1680\n 26663: u64 [s1 + 0xe0] = a1\n 26667: ra = 1016, jump @11\n      : @1016 [@dyn 508] (gas: 3)\n 26673: a0 = s1 + 0x1078\n 26677: a0 = u64 [a0 + 0x608]\n 26681: jump @1102 if a0 == 0\n      : @1017 (gas: 4)\n 26685: a1 = s1 + 0x1078\n 26689: a1 = u64 [a1 + 0x610]\n 26693: a2 = a1 & 0xff\n 26697: jump @1104 if a2 == 0\n      : @1018 (gas: 3)\n 26701: t0 = 0x3fa\n 26705: a2 = s1 + 0x1078\n 26709: fallthrough\n      : @1019 [@dyn 509] (gas: 9)\n 26710: u64 [a2 + 1528] = 0\n 26714: u64 [a2 + 1520] = 0\n 26718: a0 = 0xc1c184c800000000\n 26728: u64 [a2 + 0x600] = a0\n 26732: a1 = s1 + 0x1660\n 26736: u64 [a2 + 1512] = 0\n 26740: a0 = 0\n 26742: ra = 0x48e\n 26746: jump @9\n      : @1020 (gas: 2)\n 26749: u64 [s1 + 184] = 0\n 26753: fallthrough\n      : @1021 (gas: 5)\n 26754: a0 = u64 [s1 + 0xd8]\n 26758: a0 = a0 << 0x1\n 26761: a4 = u64 [s1 + 0xb8]\n 26765: a4 = a4 | a0\n 26768: fallthrough\n      : @1022 (gas: 2)\n 26769: a0 = u64 [s1 + 0x78]\n 26772: jump @1122 if a0 >=u a4\n      : @1023 (gas: 34)\n 26776: a3 = s1 + 0x7ff\n 26780: a3 = a3 + 0x79\n 26783: a0 = u64 [s1 + 0x20]\n 26786: a5 = a3 + 0x700\n 26790: u64 [a5 + 0x28] = a0\n 26793: a0 = u64 [s1 + 0x78]\n 26796: u64 [a5 + 0x48] = a0\n 26799: a0 = u64 [s1 + 0x50]\n 26802: u64 [a5 + 0x68] = a0\n 26805: a0 = u64 [s1 + 0x28]\n 26808: u64 [a5 + 0x30] = a0\n 26811: a0 = u64 [s1 + 0x40]\n 26814: u64 [a5 + 0x50] = a0\n 26817: a0 = u64 [s1 + 0x60]\n 26820: u64 [a5 + 0x70] = a0\n 26823: a0 = u64 [s1 + 0x30]\n 26826: u64 [a5 + 0x38] = a0\n 26829: a0 = u64 [s1 + 0x48]\n 26832: u64 [a5 + 0x58] = a0\n 26835: a0 = u64 [s1 + 0x68]\n 26838: u64 [a5 + 0x78] = a0\n 26841: a0 = u64 [s1 + 0x38]\n 26844: u64 [a5 + 0x40] = a0\n 26847: a0 = u64 [s1 + 0x58]\n 26850: u64 [a5 + 0x60] = a0\n 26853: a0 = s1 + 0x7ff\n 26857: a0 = a0 + 0x7e1\n 26861: a1 = s1 + 0x7ff\n 26865: a1 = a1 + 0x7c1\n 26869: a2 = s1 + 0x7ff\n 26873: a2 = a2 + 0x7a1\n 26877: a4 = u64 [s1 + 0x70]\n 26880: u64 [a5 + 0x80] = a4\n 26884: ra = 1020, jump @1283\n      : @1024 [@dyn 510] (gas: 4)\n 26890: a1 = 0x20160\n 26895: i32 a1 = a1 + 0\n 26897: a0 = 0\n 26899: jump @1183\n      : @1025 (gas: 2)\n 26902: u64 [s1 + 184] = 0\n 26906: fallthrough\n      : @1026 (gas: 6)\n 26907: a0 = u64 [s1 + 0xd8]\n 26911: a0 = a0 << 0x1\n 26914: a1 = u64 [s1 + 0xb8]\n 26918: a0 = a0 | a1\n 26921: u64 [s1 + 0xe8] = a0\n 26925: fallthrough\n      : @1027 (gas: 3)\n 26926: a0 = u64 [s1 + 0xe8]\n 26930: a1 = u64 [s1 + 0x70]\n 26933: jump @1126 if a1 != a0\n      : @1028 (gas: 9)\n 26937: a0 = 0x30160\n 26942: u64 [s1 + 0xe0] = a0\n 26946: i32 a0 = a0 + 0\n 26948: u64 [s1 + 0xb8] = a0\n 26952: ra = 0x3fe\n 26956: ecalli 4 // 'caller'\n 26958: a2 = u64 [s1 + 0xe0]\n 26962: t0 = 0x400\n 26966: jump @1444\n      : @1029 [@dyn 511] (gas: 2)\n 26969: a2 = u64 [s1 + 0xe0]\n 26973: t0 = 1024, jump @1444\n      : @1030 [@dyn 512] (gas: 8)\n 26979: u64 [a2 + 864] = 0\n 26983: a4 = a2 + 0x300\n 26987: u64 [a4 + 0x58] = a1\n 26990: u64 [a4 + 0x50] = a0\n 26993: a1 = s1 + 0x13c0\n 26997: u64 [a4 + 0x48] = a3\n 27000: a0 = 0\n 27002: ra = 1026, jump @9\n      : @1031 [@dyn 513] (gas: 3)\n 27008: t0 = 0x404\n 27012: a1 = s1 + 0x1078\n 27016: fallthrough\n      : @1032 [@dyn 514] (gas: 8)\n 27017: u64 [a1 + 832] = 0\n 27021: u64 [a1 + 824] = 0\n 27025: u64 [a1 + 808] = 0x3\n 27030: a2 = a1\n 27032: a0 = 0x20\n 27035: a1 = s1 + 0x13a0\n 27039: u64 [a2 + 816] = 0\n 27043: ra = 1030, jump @9\n      : @1033 [@dyn 515] (gas: 4)\n 27049: a0 = 0x20150\n 27054: u64 [s1 + 0xf8] = a0\n 27058: a0 = i32 [0x20150]\n 27063: jump @1035 if a0 >u 63\n      : @1034 (gas: 3)\n 27067: a1 = u64 [s1 + 0xf8]\n 27071: u32 [a1 + 0] = 0x40\n 27074: fallthrough\n      : @1035 (gas: 13)\n 27075: a0 = sp + 0xffffffffffffffe0\n 27078: a2 = a0 & 0xffffffffffffffe0\n 27081: u64 [s1 + 0xd8] = a2\n 27085: sp = a2\n 27087: a0 = 0x20160\n 27092: i32 a0 = a0 + 0\n 27094: i32 a2 = a2 + 0\n 27096: a1 = 0x40\n 27099: u64 [s1 + 0xf0] = a0\n 27103: ra = 0x408\n 27107: ecalli 9 // 'hash_keccak_256'\n 27109: t0 = 0x40a\n 27113: jump @1473\n      : @1036 [@dyn 516] (gas: 1)\n 27116: t0 = 1034, jump @1473\n      : @1037 [@dyn 517] (gas: 12)\n 27122: a0 = u64 [s1 + 0x78]\n 27125: a0 = a0 << 0x20\n 27128: a2 = a0 >> 0x20\n 27131: a0 = s1 + 0x1078\n 27135: u64 [a0 + 800] = 0\n 27139: u64 [a0 + 792] = 0\n 27143: u64 [a0 + 784] = 0\n 27147: a1 = s1 + 0x1380\n 27151: u64 [s1 + 0xb0] = a2\n 27155: u64 [a0 + 0x308] = a2\n 27159: a0 = 0\n 27161: ra = 1036, jump @9\n      : @1038 [@dyn 518] (gas: 13)\n 27167: a0 = u64 [s1 + 0xc0]\n 27171: a1 = s1 + 0x1078\n 27175: u64 [a1 + 0x300] = a0\n 27179: a0 = u64 [s1 + 0xc8]\n 27183: u64 [a1 + 0x2f8] = a0\n 27187: a0 = u64 [s1 + 0xd0]\n 27191: u64 [a1 + 0x2f0] = a0\n 27195: a3 = a1\n 27197: a0 = 0x20\n 27200: a1 = s1 + 0x1360\n 27204: a2 = u64 [s1 + 0xd8]\n 27208: u64 [a3 + 0x2e8] = a2\n 27212: ra = 1038, jump @9\n      : @1039 [@dyn 519] (gas: 3)\n 27218: a0 = u64 [s1 + 0xf8]\n 27222: a0 = i32 [a0]\n 27224: jump @1041 if a0 >u 63\n      : @1040 (gas: 3)\n 27228: a0 = u64 [s1 + 0xf8]\n 27232: u32 [a0 + 0] = 0x40\n 27235: fallthrough\n      : @1041 (gas: 4)\n 27236: a0 = sp + 0xffffffffffffffe0\n 27239: a0 = a0 & 0xffffffffffffffe0\n 27242: u64 [s1 + 0xd8] = a0\n 27246: t0 = 1040, jump @1468\n      : @1042 [@dyn 520] (gas: 5)\n 27252: ra = 0x412\n 27256: ecalli 9 // 'hash_keccak_256'\n 27258: a3 = u64 [s1 + 0xd8]\n 27262: t0 = 0x414\n 27266: jump @1448\n      : @1043 [@dyn 521] (gas: 2)\n 27269: a3 = u64 [s1 + 0xd8]\n 27273: t0 = 1044, jump @1448\n      : @1044 [@dyn 522] (gas: 9)\n 27279: a1 = s1 + 0x2878\n 27283: a5 = a1 + 0x100\n 27287: u64 [a5 + 0x68] = a3\n 27290: u64 [a5 + 0x70] = a2\n 27293: u64 [a5 + 0x78] = a4\n 27296: u64 [a5 + 0x80] = a0\n 27300: a0 = s1 + 0x1340\n 27304: a1 = s1 + 0x29e0\n 27308: ra = 1046, jump @11\n      : @1045 [@dyn 523] (gas: 4)\n 27314: a0 = s1 + 0x1078\n 27318: a0 = u64 [a0 + 0x2c8]\n 27322: a0 = a0 & 0xffffffffffffffff\n 27325: jump @1131 if a0 == 0\n      : @1046 (gas: 3)\n 27329: a0 = s1 + 0x1078\n 27333: a0 = u8 [a0 + 0x2d0]\n 27337: jump @1131 if a0 != 0\n      : @1047 (gas: 7)\n 27341: a1 = u64 [s1 + 0xb0]\n 27345: a0 = a1 <u 0x100\n 27349: u64 [s1 + 0xa8] = a0\n 27353: i32 a2 = a1 + 0xffffffffffffff80\n 27356: a0 = 0x1\n 27359: a1 = 0\n 27361: ra = 1048, jump @1509\n      : @1048 [@dyn 524] (gas: 7)\n 27367: u64 [s1 + 0xd8] = a0\n 27371: u64 [s1 + 0xd0] = a1\n 27375: a1 = u64 [s1 + 0xb0]\n 27379: i32 a2 = 0x80 - a1\n 27383: a0 = 0x1\n 27386: a1 = 0\n 27388: ra = 1050, jump @1504\n      : @1049 [@dyn 525] (gas: 15)\n 27394: a2 = u64 [s1 + 0xb0]\n 27398: a3 = a2 <u 0x80\n 27402: u64 [s1 + 0xc0] = a3\n 27406: a4 = u64 [s1 + 0xd8]\n 27410: a0 = a4 if a3 == 0\n 27413: a0 = 0 if a2 == 0\n 27415: u64 [s1 + 0xd8] = a0\n 27419: a0 = u64 [s1 + 0xd0]\n 27423: a1 = a0 if a3 == 0\n 27426: a1 = 0 if a2 == 0\n 27428: u64 [s1 + 0xd0] = a1\n 27432: i32 a2 = a2 + 0\n 27434: a0 = 0x1\n 27437: a1 = 0\n 27439: ra = 1052, jump @1509\n      : @1050 [@dyn 526] (gas: 11)\n 27445: a2 = u64 [s1 + 0xc0]\n 27449: a0 = 0 if a2 == 0\n 27451: u64 [s1 + 0xc8] = a0\n 27455: a1 = 0 if a2 == 0\n 27457: u64 [s1 + 0xc0] = a1\n 27461: a0 = u64 [s1 + 0xb8]\n 27465: ra = 0x41e\n 27469: ecalli 4 // 'caller'\n 27471: a2 = u64 [s1 + 0xe0]\n 27475: t0 = 0x420\n 27479: jump @1444\n      : @1051 [@dyn 527] (gas: 2)\n 27482: a2 = u64 [s1 + 0xe0]\n 27486: t0 = 1056, jump @1444\n      : @1052 [@dyn 528] (gas: 8)\n 27492: u64 [a2 + 672] = 0\n 27496: a4 = a2 + 0x200\n 27500: u64 [a4 + 0x98] = a1\n 27504: u64 [a4 + 0x90] = a0\n 27508: a1 = s1 + 0x1300\n 27512: u64 [a4 + 0x88] = a3\n 27516: a0 = 0\n 27518: ra = 1058, jump @9\n      : @1053 [@dyn 529] (gas: 3)\n 27524: t0 = 0x424\n 27528: a1 = s1 + 0x1078\n 27532: fallthrough\n      : @1054 [@dyn 530] (gas: 8)\n 27533: u64 [a1 + 640] = 0\n 27537: u64 [a1 + 632] = 0\n 27541: u64 [a1 + 616] = 0x5\n 27546: a2 = a1\n 27548: a0 = 0x20\n 27551: a1 = s1 + 0x12e0\n 27555: u64 [a2 + 624] = 0\n 27559: ra = 1062, jump @9\n      : @1055 [@dyn 531] (gas: 3)\n 27565: a0 = u64 [s1 + 0xf8]\n 27569: a0 = i32 [a0]\n 27571: jump @1057 if a0 >u 63\n      : @1056 (gas: 3)\n 27575: a1 = u64 [s1 + 0xf8]\n 27579: u32 [a1 + 0] = 0x40\n 27582: fallthrough\n      : @1057 (gas: 17)\n 27583: a0 = u64 [s1 + 0xc0]\n 27587: a1 = u64 [s1 + 0xa8]\n 27591: a0 = 0 if a1 == 0\n 27593: u64 [s1 + 0xc0] = a0\n 27597: a0 = u64 [s1 + 0xc8]\n 27601: a0 = 0 if a1 == 0\n 27603: u64 [s1 + 0xc8] = a0\n 27607: a0 = u64 [s1 + 0xd0]\n 27611: a0 = 0 if a1 == 0\n 27613: u64 [s1 + 0xd0] = a0\n 27617: a0 = u64 [s1 + 0xd8]\n 27621: a0 = 0 if a1 == 0\n 27623: u64 [s1 + 0xd8] = a0\n 27627: a0 = sp + 0xffffffffffffffe0\n 27630: a0 = a0 & 0xffffffffffffffe0\n 27633: u64 [s1 + 0xa8] = a0\n 27637: t0 = 1064, jump @1468\n      : @1058 [@dyn 532] (gas: 4)\n 27643: ra = 0x42a\n 27647: ecalli 9 // 'hash_keccak_256'\n 27649: t0 = 0x42c\n 27653: jump @1447\n      : @1059 [@dyn 533] (gas: 1)\n 27656: t0 = 1068, jump @1447\n      : @1060 [@dyn 534] (gas: 8)\n 27662: u64 [a2 + 608] = 0\n 27666: u64 [a2 + 600] = 0\n 27670: u64 [a2 + 592] = 0\n 27674: a1 = s1 + 0x12c0\n 27678: a0 = u64 [s1 + 0xe8]\n 27682: u64 [a2 + 0x248] = a0\n 27686: a0 = 0\n 27688: ra = 1070, jump @9\n      : @1061 [@dyn 535] (gas: 14)\n 27694: a0 = u64 [s1 + 0x88]\n 27698: a1 = s1 + 0x1078\n 27702: a2 = a1 + 0x200\n 27706: u64 [a2 + 0x40] = a0\n 27709: a0 = u64 [s1 + 0x90]\n 27713: u64 [a2 + 0x38] = a0\n 27716: a0 = u64 [s1 + 0x98]\n 27720: u64 [a2 + 0x30] = a0\n 27723: a3 = a1\n 27725: a0 = 0x20\n 27728: a1 = s1 + 0x12a0\n 27732: a2 = u64 [s1 + 0xa0]\n 27736: u64 [a3 + 0x228] = a2\n 27740: ra = 1072, jump @9\n      : @1062 [@dyn 536] (gas: 3)\n 27746: a0 = u64 [s1 + 0xf8]\n 27750: a0 = i32 [a0]\n 27752: jump @1064 if a0 >u 63\n      : @1063 (gas: 3)\n 27756: a0 = u64 [s1 + 0xf8]\n 27760: u32 [a0 + 0] = 0x40\n 27763: fallthrough\n      : @1064 (gas: 4)\n 27764: a0 = sp + 0xffffffffffffffe0\n 27767: a0 = a0 & 0xffffffffffffffe0\n 27770: u64 [s1 + 0xa0] = a0\n 27774: t0 = 1074, jump @1468\n      : @1065 [@dyn 537] (gas: 5)\n 27780: ra = 0x434\n 27784: ecalli 9 // 'hash_keccak_256'\n 27786: a3 = u64 [s1 + 0xa0]\n 27790: t0 = 0x436\n 27794: jump @1455\n      : @1066 [@dyn 538] (gas: 2)\n 27797: a3 = u64 [s1 + 0xa0]\n 27801: t0 = 1078, jump @1455\n      : @1067 [@dyn 539] (gas: 3)\n 27807: i32 a0 = a0 + 0x280\n 27811: a0 = a0 + s1\n 27814: ra = 1080, jump @11\n      : @1068 [@dyn 540] (gas: 7)\n 27820: a3 = s1 + 0x1078\n 27824: a4 = a3 + 0x200\n 27828: a0 = u64 [a4 + 0x18]\n 27831: a1 = u64 [a4 + 0x8]\n 27834: a2 = u64 [a4 + 0x20]\n 27837: a3 = u64 [a4 + 0x10]\n 27840: t0 = 1082, jump @1491\n      : @1069 [@dyn 541] (gas: 1)\n 27846: jump @1133 if a0 == 0\n      : @1070 (gas: 6)\n 27850: a0 = u64 [s1 + 0xb8]\n 27854: ra = 0x43c\n 27858: ecalli 4 // 'caller'\n 27860: a2 = u64 [s1 + 0xe0]\n 27864: t0 = 0x43e\n 27868: jump @1444\n      : @1071 [@dyn 542] (gas: 2)\n 27871: a2 = u64 [s1 + 0xe0]\n 27875: t0 = 1086, jump @1444\n      : @1072 [@dyn 543] (gas: 8)\n 27881: u64 [a2 + 512] = 0\n 27885: a4 = a2 + 0x100\n 27889: u64 [a4 + 0xf8] = a1\n 27893: u64 [a4 + 0xf0] = a0\n 27897: a1 = s1 + 0x1260\n 27901: u64 [a4 + 0xe8] = a3\n 27905: a0 = 0\n 27907: ra = 1088, jump @9\n      : @1073 [@dyn 544] (gas: 3)\n 27913: t0 = 0x442\n 27917: a1 = s1 + 0x1078\n 27921: fallthrough\n      : @1074 [@dyn 545] (gas: 8)\n 27922: u64 [a1 + 480] = 0\n 27926: u64 [a1 + 472] = 0\n 27930: u64 [a1 + 456] = 0x6\n 27935: a2 = a1\n 27937: a0 = 0x20\n 27940: a1 = s1 + 0x1240\n 27944: u64 [a2 + 464] = 0\n 27948: ra = 1092, jump @9\n      : @1075 [@dyn 546] (gas: 3)\n 27954: a0 = u64 [s1 + 0xf8]\n 27958: a0 = i32 [a0]\n 27960: jump @1077 if a0 >u 63\n      : @1076 (gas: 3)\n 27964: a1 = u64 [s1 + 0xf8]\n 27968: u32 [a1 + 0] = 0x40\n 27971: fallthrough\n      : @1077 (gas: 4)\n 27972: a0 = sp + 0xffffffffffffffe0\n 27975: a0 = a0 & 0xffffffffffffffe0\n 27978: u64 [s1 + 0xa8] = a0\n 27982: t0 = 1094, jump @1468\n      : @1078 [@dyn 547] (gas: 4)\n 27988: ra = 0x448\n 27992: ecalli 9 // 'hash_keccak_256'\n 27994: t0 = 0x44a\n 27998: jump @1447\n      : @1079 [@dyn 548] (gas: 1)\n 28001: t0 = 1098, jump @1447\n      : @1080 [@dyn 549] (gas: 8)\n 28007: u64 [a2 + 448] = 0\n 28011: u64 [a2 + 440] = 0\n 28015: u64 [a2 + 432] = 0\n 28019: a1 = s1 + 0x1220\n 28023: a0 = u64 [s1 + 0xe8]\n 28027: u64 [a2 + 0x1a8] = a0\n 28031: a0 = 0\n 28033: ra = 1100, jump @9\n      : @1081 [@dyn 550] (gas: 14)\n 28039: a0 = u64 [s1 + 0x88]\n 28043: a1 = s1 + 0x1078\n 28047: a2 = a1 + 0x100\n 28051: u64 [a2 + 0xa0] = a0\n 28055: a0 = u64 [s1 + 0x90]\n 28059: u64 [a2 + 0x98] = a0\n 28063: a0 = u64 [s1 + 0x98]\n 28067: u64 [a2 + 0x90] = a0\n 28071: a3 = a1\n 28073: a0 = 0x20\n 28076: a1 = s1 + 0x1200\n 28080: a2 = u64 [s1 + 0xa0]\n 28084: u64 [a3 + 0x188] = a2\n 28088: ra = 1102, jump @9\n      : @1082 [@dyn 551] (gas: 3)\n 28094: a0 = u64 [s1 + 0xf8]\n 28098: a0 = i32 [a0]\n 28100: jump @1084 if a0 >u 63\n      : @1083 (gas: 3)\n 28104: a0 = u64 [s1 + 0xf8]\n 28108: u32 [a0 + 0] = 0x40\n 28111: fallthrough\n      : @1084 (gas: 4)\n 28112: a0 = sp + 0xffffffffffffffe0\n 28115: a0 = a0 & 0xffffffffffffffe0\n 28118: u64 [s1 + 0xa0] = a0\n 28122: t0 = 1104, jump @1468\n      : @1085 [@dyn 552] (gas: 5)\n 28128: ra = 0x452\n 28132: ecalli 9 // 'hash_keccak_256'\n 28134: a3 = u64 [s1 + 0xa0]\n 28138: t0 = 0x454\n 28142: jump @1455\n      : @1086 [@dyn 553] (gas: 2)\n 28145: a3 = u64 [s1 + 0xa0]\n 28149: t0 = 1108, jump @1455\n      : @1087 [@dyn 554] (gas: 3)\n 28155: i32 a0 = a0 + 0x1e0\n 28159: a0 = a0 + s1\n 28162: ra = 1110, jump @11\n      : @1088 [@dyn 555] (gas: 2)\n 28168: a0 = 0x1000\n 28172: t0 = 1112, jump @1495\n      : @1089 [@dyn 556] (gas: 5)\n 28178: a0 = u64 [a4 + 0x78]\n 28181: a1 = u64 [a4 + 0x68]\n 28184: a2 = u64 [a4 + 0x80]\n 28188: a3 = u64 [a4 + 0x70]\n 28191: t0 = 1114, jump @1491\n      : @1090 [@dyn 557] (gas: 1)\n 28197: jump @1138 if a0 == 0\n      : @1091 (gas: 3)\n 28201: t0 = 0x45c\n 28205: a2 = s1 + 0x1078\n 28209: fallthrough\n      : @1092 [@dyn 558] (gas: 9)\n 28210: u64 [a2 + 344] = 0\n 28214: u64 [a2 + 336] = 0\n 28218: a0 = 0xc98289f000000000\n 28228: u64 [a2 + 0x160] = a0\n 28232: a1 = s1 + 0x11c0\n 28236: u64 [a2 + 328] = 0\n 28240: a0 = 0\n 28242: ra = 0x48e\n 28246: jump @9\n      : @1093 (gas: 1)\n 28249: jump @1161 if a0 != 1081252952\n      : @1094 (gas: 11)\n 28257: a0 = s1 + 0x2078\n 28261: u64 [a0 + 1376] = 0\n 28265: u64 [a0 + 1368] = 0\n 28269: u64 [a0 + 1360] = 0\n 28273: u64 [a0 + 1352] = 0\n 28277: a0 = s1 + 0x2000\n 28281: i32 a0 = a0 + 0x5c0\n 28285: ra = 0x45e\n 28289: ecalli 17 // 'value_transferred'\n 28291: t0 = 0x460\n 28295: jump @1483\n      : @1095 [@dyn 559] (gas: 1)\n 28298: t0 = 1120, jump @1483\n      : @1096 [@dyn 560] (gas: 8)\n 28304: a0 = u64 [a4 + 0x58]\n 28307: a1 = u64 [a4 + 0x60]\n 28310: a2 = u64 [a4 + 0x50]\n 28313: a3 = u64 [a4 + 0x48]\n 28316: a1 = a1 | a2\n 28319: a0 = a0 | a3\n 28322: a0 = a0 | a1\n 28325: jump @1165 if a0 == 0\n      : @1097 (gas: 3)\n 28329: a1 = 0x20160\n 28334: i32 a1 = a1 + 0\n 28336: jump @1182\n      : @1098 (gas: 3)\n 28339: a0 = u64 [s1 + 0xf8]\n 28343: a0 = i32 [a0]\n 28345: jump @1167 if a0 >u 35\n      : @1099 (gas: 3)\n 28350: a1 = 0x20160\n 28355: i32 a1 = a1 + 0\n 28357: jump @1182\n      : @1100 (gas: 3)\n 28360: t0 = 0x462\n 28364: a2 = s1 + 0x2078\n 28368: fallthrough\n      : @1101 [@dyn 561] (gas: 9)\n 28369: u64 [a2 + 888] = 0\n 28373: u64 [a2 + 880] = 0\n 28377: a0 = 0x14bcf5c800000000\n 28387: u64 [a2 + 0x380] = a0\n 28391: a1 = s1 + 0x23e0\n 28395: u64 [a2 + 872] = 0\n 28399: a0 = 0\n 28401: ra = 0x362\n 28405: jump @9\n      : @1102 (gas: 3)\n 28408: t0 = 0x464\n 28412: a2 = s1 + 0x1078\n 28416: fallthrough\n      : @1103 [@dyn 562] (gas: 9)\n 28417: u64 [a2 + 1272] = 0\n 28421: u64 [a2 + 1264] = 0\n 28425: a0 = 0xa7a9536d00000000\n 28435: u64 [a2 + 0x500] = a0\n 28439: a1 = s1 + 0x1560\n 28443: u64 [a2 + 1256] = 0\n 28447: a0 = 0\n 28449: ra = 0x48e\n 28453: jump @9\n      : @1104 (gas: 15)\n 28456: a2 = 0xffffffff\n 28466: u64 [s1 + 0xc8] = a2\n 28470: a3 = s1 + 0x1078\n 28474: a2 = u64 [a3 + 0x618]\n 28478: a3 = u64 [a3 + 0x620]\n 28482: a1 = a1 | 0x1\n 28485: a4 = s1 + 0x2878\n 28489: a5 = a4 + 0x100\n 28493: u64 [a5 + 0xe8] = a0\n 28497: u64 [a5 + 0xf8] = a2\n 28501: u64 [a5 + 0xf0] = a1\n 28505: u64 [a4 + 0x200] = a3\n 28509: a1 = s1 + 0x2a60\n 28513: a0 = u64 [s1 + 0xe0]\n 28517: ra = 1126, jump @12\n      : @1105 [@dyn 563] (gas: 6)\n 28523: a0 = u64 [s1 + 0xd8]\n 28527: ra = 0x468\n 28531: ecalli 4 // 'caller'\n 28533: a2 = u64 [s1 + 0xe8]\n 28537: t0 = 0x46a\n 28541: jump @1444\n      : @1106 [@dyn 564] (gas: 2)\n 28544: a2 = u64 [s1 + 0xe8]\n 28548: t0 = 1130, jump @1444\n      : @1107 [@dyn 565] (gas: 8)\n 28554: u64 [a2 + 1504] = 0\n 28558: a4 = a2 + 0x500\n 28562: u64 [a4 + 0xd8] = a1\n 28566: u64 [a4 + 0xd0] = a0\n 28570: a1 = s1 + 0x1640\n 28574: u64 [a4 + 0xc8] = a3\n 28578: a0 = 0\n 28580: ra = 1132, jump @9\n      : @1108 [@dyn 566] (gas: 3)\n 28586: t0 = 0x46e\n 28590: a1 = s1 + 0x1078\n 28594: fallthrough\n      : @1109 [@dyn 567] (gas: 8)\n 28595: u64 [a1 + 1472] = 0\n 28599: u64 [a1 + 1464] = 0\n 28603: u64 [a1 + 1448] = 0x2\n 28608: a2 = a1\n 28610: a0 = 0x20\n 28613: a1 = s1 + 0x1620\n 28617: u64 [a2 + 1456] = 0\n 28621: ra = 1136, jump @9\n      : @1110 [@dyn 568] (gas: 7)\n 28627: a0 = sp + 0xffffffffffffffe0\n 28630: a0 = a0 & 0xffffffffffffffe0\n 28633: u64 [s1 + 0xe0] = a0\n 28637: sp = a0\n 28639: a0 = u64 [s1 + 0xf8]\n 28643: a0 = i32 [a0]\n 28645: jump @1112 if a0 >u 63\n      : @1111 (gas: 3)\n 28649: a1 = u64 [s1 + 0xf8]\n 28653: u32 [a1 + 0] = 0x40\n 28656: fallthrough\n      : @1112 (gas: 4)\n 28657: a0 = sp + 0xffffffffffffffe0\n 28660: a0 = a0 & 0xffffffffffffffe0\n 28663: u64 [s1 + 0xf8] = a0\n 28667: t0 = 1138, jump @1468\n      : @1113 [@dyn 569] (gas: 5)\n 28673: ra = 0x474\n 28677: ecalli 9 // 'hash_keccak_256'\n 28679: a3 = u64 [s1 + 0xf8]\n 28683: t0 = 0x476\n 28687: jump @1461\n      : @1114 [@dyn 570] (gas: 2)\n 28690: a3 = u64 [s1 + 0xf8]\n 28694: t0 = 1142, jump @1461\n      : @1115 [@dyn 571] (gas: 7)\n 28700: a1 = u64 [s1 + 0xe0]\n 28704: u64 [a1] = a4\n 28706: u64 [a1 + 0x8] = a5\n 28709: u64 [a1 + 0x10] = a2\n 28712: u64 [a1 + 0x18] = a0\n 28715: a0 = s1 + 0x1600\n 28719: ra = 1144, jump @11\n      : @1116 [@dyn 572] (gas: 9)\n 28725: a0 = s1 + 0x1078\n 28729: a0 = u64 [a0 + 0x588]\n 28733: a1 = u64 [s1 + 0xc8]\n 28737: a0 = a0 + a1\n 28740: a0 = a0 & a1\n 28743: u64 [s1 + 0xf8] = a0\n 28747: a0 = s1 + 0x15e0\n 28751: a1 = u64 [s1 + 0xe0]\n 28755: ra = 1146, jump @11\n      : @1117 [@dyn 573] (gas: 18)\n 28761: a3 = s1 + 0x1078\n 28765: a0 = u32 [a3 + 0x56c]\n 28769: a0 = a0 << 0x20\n 28772: a4 = a3 + 0x500\n 28776: a1 = u64 [a4 + 0x80]\n 28780: a2 = u64 [a4 + 0x78]\n 28783: a3 = u64 [a4 + 0x70]\n 28786: a4 = u64 [s1 + 0xf8]\n 28790: a0 = a0 | a4\n 28793: a4 = s1 + 0x2878\n 28797: a5 = a4 + 0x200\n 28801: u64 [a5 + 0x20] = a1\n 28804: u64 [a5 + 0x18] = a2\n 28807: u64 [a5 + 0x10] = a3\n 28810: u64 [a5 + 0x8] = a0\n 28813: a1 = s1 + 0x2a80\n 28817: a0 = u64 [s1 + 0xe0]\n 28821: ra = 1148, jump @12\n      : @1118 [@dyn 574] (gas: 6)\n 28827: a0 = u64 [s1 + 0xd8]\n 28831: ra = 0x47e\n 28835: ecalli 4 // 'caller'\n 28837: a2 = u64 [s1 + 0xe8]\n 28841: t0 = 0x480\n 28845: jump @1464\n      : @1119 [@dyn 575] (gas: 2)\n 28848: a2 = u64 [s1 + 0xe8]\n 28852: t0 = 1152, jump @1464\n      : @1120 [@dyn 576] (gas: 31)\n 28858: t0 = a1 | a0\n 28861: a3 = a3 >> 0x20\n 28864: a2 = reverse a2\n 28866: a1 = a2 << 0x20\n 28869: a1 = a1 | a3\n 28872: a2 = a2 >> 0x20\n 28875: a3 = u64 [s1 + 0xd0]\n 28879: a0 = s1 + 0x1078\n 28883: u64 [a0 + 0x508] = a3\n 28887: a3 = u64 [0x20060]\n 28892: a4 = u64 [0x20068]\n 28897: a5 = u64 [0x20070]\n 28902: u64 [a0 + 0x560] = a3\n 28906: u64 [a0 + 0x558] = a4\n 28910: u64 [a0 + 1312] = 0\n 28914: a4 = a0 + 0x500\n 28918: u64 [a4 + 0x50] = a5\n 28921: a3 = u64 [0x20078]\n 28926: u64 [a0 + 1304] = 0\n 28930: u64 [a0 + 1296] = 0\n 28934: u64 [a0 + 1344] = 0\n 28938: u64 [a4 + 0x48] = a3\n 28941: u64 [a4 + 0x38] = a2\n 28944: u64 [a4 + 0x30] = a1\n 28947: a2 = s1 + 0x15c0\n 28951: a3 = s1 + 0x15a0\n 28955: a4 = s1 + 0x1580\n 28959: u64 [a0 + 0x528] = t0\n 28963: a0 = 0\n 28965: a1 = 0\n 28967: ra = 1154, jump @14\n      : @1121 [@dyn 577] (gas: 1)\n 28973: jump @1160\n      : @1122 (gas: 10)\n 28976: a2 = s1 + 0x7ff\n 28980: a2 = a2 + 0x79\n 28983: u64 [a2 + 1944] = 0\n 28987: u64 [a2 + 1936] = 0\n 28991: a0 = 0xcf114bd900000000\n 29001: u64 [a2 + 0x7a0] = a0\n 29005: a1 = s1 + 0x1000\n 29009: u64 [a2 + 1928] = 0\n 29013: a0 = 0\n 29015: ra = 1156, jump @9\n      : @1123 [@dyn 578] (gas: 2)\n 29021: a1 = i32 [0x20150]\n 29026: jump @1125 if a1 >u 31\n      : @1124 (gas: 4)\n 29030: u32 [0x20150] = 0x20\n 29036: a1 = 0x20160\n 29041: i32 a1 = a1 + 0\n 29043: jump @895\n      : @1125 (gas: 3)\n 29046: a1 = 0x20160\n 29051: i32 a1 = a1 + 0\n 29053: jump @895\n      : @1126 (gas: 3)\n 29056: t0 = 0x486\n 29060: a2 = s1 + 0x1078\n 29064: fallthrough\n      : @1127 [@dyn 579] (gas: 8)\n 29065: u64 [a2 + 888] = 0\n 29069: u64 [a2 + 880] = 0\n 29073: a0 = 0xd5b25b6300000000\n 29083: u64 [a2 + 0x380] = a0\n 29087: a1 = s1 + 0x13e0\n 29091: u64 [a2 + 872] = 0\n 29095: a0 = 0\n 29097: ra = 1160, jump @9\n      : @1128 [@dyn 580] (gas: 2)\n 29103: a1 = i32 [0x20150]\n 29108: jump @1130 if a1 >u 31\n      : @1129 (gas: 4)\n 29112: u32 [0x20150] = 0x20\n 29118: a1 = 0x20160\n 29123: i32 a1 = a1 + 0\n 29125: jump @895\n      : @1130 (gas: 3)\n 29128: a1 = 0x20160\n 29133: i32 a1 = a1 + 0\n 29135: jump @895\n      : @1131 (gas: 3)\n 29138: t0 = 0x48a\n 29142: a2 = s1 + 0x1078\n 29146: fallthrough\n      : @1132 [@dyn 581] (gas: 9)\n 29147: u64 [a2 + 696] = 0\n 29151: u64 [a2 + 688] = 0\n 29155: a0 = 0xa7a9536d00000000\n 29165: u64 [a2 + 0x2c0] = a0\n 29169: a1 = s1 + 0x1320\n 29173: u64 [a2 + 680] = 0\n 29177: a0 = 0\n 29179: ra = 0x48e\n 29183: jump @9\n      : @1133 (gas: 3)\n 29186: t0 = 0x48c\n 29190: a2 = s1 + 0x1078\n 29194: fallthrough\n      : @1134 [@dyn 582] (gas: 8)\n 29195: u64 [a2 + 24] = 0\n 29198: u64 [a2 + 16] = 0\n 29201: a0 = 0xafa4e2b600000000\n 29211: u64 [a2 + 0x20] = a0\n 29214: a1 = s1 + 0x1080\n 29218: u64 [a2 + 8] = 0\n 29221: a0 = 0\n 29223: ra = 1166, jump @9\n      : @1135 [@dyn 583] (gas: 3)\n 29229: a0 = u64 [s1 + 0xf8]\n 29233: a0 = i32 [a0]\n 29235: jump @1137 if a0 >u 31\n      : @1136 (gas: 3)\n 29239: a1 = u64 [s1 + 0xf8]\n 29243: u32 [a1 + 0] = 0x20\n 29246: fallthrough\n      : @1137 (gas: 5)\n 29247: a0 = 0x1\n 29250: a2 = 0x4\n 29253: a1 = u64 [s1 + 0xf0]\n 29257: ecalli 14 // 'seal_return'\n 29259: fallthrough\n      : @1138 (gas: 6)\n 29260: a0 = u64 [s1 + 0xb8]\n 29264: ra = 0x490\n 29268: ecalli 4 // 'caller'\n 29270: a2 = u64 [s1 + 0xe0]\n 29274: t0 = 0x492\n 29278: jump @1444\n      : @1139 [@dyn 584] (gas: 2)\n 29281: a2 = u64 [s1 + 0xe0]\n 29285: t0 = 1170, jump @1444\n      : @1140 [@dyn 585] (gas: 8)\n 29291: u64 [a2 + 320] = 0\n 29295: a4 = a2 + 0x100\n 29299: u64 [a4 + 0x38] = a1\n 29302: u64 [a4 + 0x30] = a0\n 29305: a1 = s1 + 0x11a0\n 29309: u64 [a4 + 0x28] = a3\n 29312: a0 = 0\n 29314: ra = 1172, jump @9\n      : @1141 [@dyn 586] (gas: 3)\n 29320: t0 = 0x496\n 29324: a1 = s1 + 0x1078\n 29328: fallthrough\n      : @1142 [@dyn 587] (gas: 8)\n 29329: u64 [a1 + 288] = 0\n 29333: u64 [a1 + 280] = 0\n 29337: u64 [a1 + 264] = 0x6\n 29342: a2 = a1\n 29344: a0 = 0x20\n 29347: a1 = s1 + 0x1180\n 29351: u64 [a2 + 272] = 0\n 29355: ra = 1176, jump @9\n      : @1143 [@dyn 588] (gas: 3)\n 29361: a0 = u64 [s1 + 0xf8]\n 29365: a0 = i32 [a0]\n 29367: jump @1145 if a0 >u 63\n      : @1144 (gas: 3)\n 29371: a1 = u64 [s1 + 0xf8]\n 29375: u32 [a1 + 0] = 0x40\n 29378: fallthrough\n      : @1145 (gas: 4)\n 29379: a0 = sp + 0xffffffffffffffe0\n 29382: a0 = a0 & 0xffffffffffffffe0\n 29385: u64 [s1 + 0xa8] = a0\n 29389: t0 = 1178, jump @1468\n      : @1146 [@dyn 589] (gas: 4)\n 29395: ra = 0x49c\n 29399: ecalli 9 // 'hash_keccak_256'\n 29401: t0 = 0x49e\n 29405: jump @1447\n      : @1147 [@dyn 590] (gas: 1)\n 29408: t0 = 1182, jump @1447\n      : @1148 [@dyn 591] (gas: 8)\n 29414: u64 [a2 + 256] = 0\n 29418: u64 [a2 + 248] = 0\n 29422: u64 [a2 + 240] = 0\n 29426: a1 = s1 + 0x1160\n 29430: a0 = u64 [s1 + 0xe8]\n 29434: u64 [a2 + 0xe8] = a0\n 29438: a0 = 0\n 29440: ra = 1184, jump @9\n      : @1149 [@dyn 592] (gas: 13)\n 29446: a0 = u64 [s1 + 0x88]\n 29450: a1 = s1 + 0x1078\n 29454: u64 [a1 + 0xe0] = a0\n 29458: a0 = u64 [s1 + 0x90]\n 29462: u64 [a1 + 0xd8] = a0\n 29466: a0 = u64 [s1 + 0x98]\n 29470: u64 [a1 + 0xd0] = a0\n 29474: a3 = a1\n 29476: a0 = 0x20\n 29479: a1 = s1 + 0x1140\n 29483: a2 = u64 [s1 + 0xa0]\n 29487: u64 [a3 + 0xc8] = a2\n 29491: ra = 1186, jump @9\n      : @1150 [@dyn 593] (gas: 3)\n 29497: a0 = u64 [s1 + 0xf8]\n 29501: a0 = i32 [a0]\n 29503: jump @1152 if a0 >u 63\n      : @1151 (gas: 3)\n 29507: a0 = u64 [s1 + 0xf8]\n 29511: u32 [a0 + 0] = 0x40\n 29514: fallthrough\n      : @1152 (gas: 4)\n 29515: a0 = sp + 0xffffffffffffffe0\n 29518: a0 = a0 & 0xffffffffffffffe0\n 29521: u64 [s1 + 0xf8] = a0\n 29525: t0 = 1188, jump @1468\n      : @1153 [@dyn 594] (gas: 5)\n 29531: ra = 0x4a6\n 29535: ecalli 9 // 'hash_keccak_256'\n 29537: a3 = u64 [s1 + 0xf8]\n 29541: t0 = 0x4a8\n 29545: jump @1455\n      : @1154 [@dyn 595] (gas: 2)\n 29548: a3 = u64 [s1 + 0xf8]\n 29552: t0 = 1192, jump @1455\n      : @1155 [@dyn 596] (gas: 3)\n 29558: i32 a0 = a0 + 0x120\n 29562: a0 = a0 + s1\n 29565: ra = 1194, jump @11\n      : @1156 [@dyn 597] (gas: 22)\n 29571: a3 = s1 + 0x1078\n 29575: a0 = u64 [a3 + 0xa8]\n 29579: a1 = u64 [a3 + 0xb0]\n 29583: a2 = u64 [a3 + 0xb8]\n 29587: a3 = u64 [a3 + 0xc0]\n 29591: a4 = u64 [s1 + 0xc8]\n 29595: a0 = a0 | a4\n 29598: a4 = u64 [s1 + 0xc0]\n 29602: a1 = a1 | a4\n 29605: a4 = u64 [s1 + 0xd8]\n 29609: a2 = a2 | a4\n 29612: a4 = u64 [s1 + 0xd0]\n 29616: a3 = a3 | a4\n 29619: a4 = s1 + 0x2878\n 29623: a5 = a4 + 0x100\n 29627: u64 [a5 + 0xa0] = a3\n 29631: u64 [a5 + 0x98] = a2\n 29635: u64 [a5 + 0x90] = a1\n 29639: u64 [a5 + 0x88] = a0\n 29643: a1 = s1 + 0x2a00\n 29647: a0 = u64 [s1 + 0xa8]\n 29651: ra = 1196, jump @12\n      : @1157 [@dyn 598] (gas: 6)\n 29657: a0 = u64 [s1 + 0xb8]\n 29661: ra = 0x4ae\n 29665: ecalli 4 // 'caller'\n 29667: a2 = u64 [s1 + 0xe0]\n 29671: t0 = 0x4b0\n 29675: jump @1453\n      : @1158 [@dyn 599] (gas: 2)\n 29678: a2 = u64 [s1 + 0xe0]\n 29682: t0 = 1200, jump @1453\n      : @1159 [@dyn 600] (gas: 31)\n 29688: a5 = s1 + 0x1078\n 29692: u64 [a5 + 64] = 0\n 29695: u64 [a5 + 56] = 0\n 29698: u64 [a5 + 48] = 0\n 29701: a3 = u64 [s1 + 0xe8]\n 29705: u64 [a5 + 0x28] = a3\n 29708: a3 = u64 [s1 + 0xb0]\n 29712: u64 [a5 + 0x48] = a3\n 29715: a3 = u64 [0x20080]\n 29720: a4 = u64 [0x20088]\n 29725: u64 [a5 + 96] = 0\n 29728: u64 [a5 + 88] = 0\n 29731: u64 [a5 + 0xa0] = a3\n 29735: u64 [a5 + 0x98] = a4\n 29739: a3 = u64 [0x20090]\n 29744: a4 = u64 [0x20098]\n 29749: u64 [a5 + 80] = 0\n 29752: u64 [a5 + 128] = 0\n 29756: u64 [a5 + 0x90] = a3\n 29760: u64 [a5 + 0x88] = a4\n 29764: u64 [a5 + 0x78] = a2\n 29767: u64 [a5 + 0x70] = a1\n 29770: a1 = a5\n 29772: a2 = s1 + 0x1100\n 29776: a3 = s1 + 0x10e0\n 29780: a4 = s1 + 0x10c0\n 29784: a5 = s1 + 0x10a0\n 29788: u64 [a1 + 0x68] = a0\n 29791: a0 = 0\n 29793: a1 = 0\n 29795: ra = 1202, jump @17\n      : @1160 [@dyn 601] (gas: 8)\n 29801: a0 = 0\n 29803: a1 = u64 [s1 + 0xf0]\n 29807: a2 = 0\n 29809: ecalli 14 // 'seal_return'\n 29811: a1 = 0x20160\n 29816: i32 a1 = a1 + 0\n 29818: a0 = 0\n 29820: jump @1183\n      : @1161 (gas: 1)\n 29823: jump @1179 if a0 != 1746437986\n      : @1162 (gas: 10)\n 29831: a0 = s1 + 0x2878\n 29835: u64 [a0 + 64] = 0\n 29838: u64 [a0 + 56] = 0\n 29841: u64 [a0 + 48] = 0\n 29844: u64 [a0 + 40] = 0\n 29847: a0 = s1 + 0x3000\n 29851: i32 a0 = a0 + 0xfffffffffffff8a0\n 29855: ecalli 17 // 'value_transferred'\n 29857: a3 = s1 + 0x2878\n 29861: fallthrough\n      : @1163 (gas: 8)\n 29862: a0 = u64 [a3 + 0x38]\n 29865: a1 = u64 [a3 + 0x40]\n 29868: a2 = u64 [a3 + 0x30]\n 29871: a3 = u64 [a3 + 0x28]\n 29874: a1 = a1 | a2\n 29877: a0 = a0 | a3\n 29880: a0 = a0 | a1\n 29883: jump @1185 if a0 == 0\n      : @1164 (gas: 3)\n 29887: a1 = 0x20160\n 29892: i32 a1 = a1 + 0\n 29894: jump @1182\n      : @1165 (gas: 3)\n 29897: a0 = u64 [s1 + 0xf8]\n 29901: a0 = i32 [a0]\n 29903: jump @1187 if a0 >u 35\n      : @1166 (gas: 3)\n 29908: a1 = 0x20160\n 29913: i32 a1 = a1 + 0\n 29915: jump @1182\n      : @1167 (gas: 4)\n 29918: a0 = s1 + 0x180\n 29922: ra = 0x4b4\n 29926: t0 = 0x4de\n 29930: jump @1493\n      : @1168 [@dyn 602] (gas: 10)\n 29933: a0 = u64 [s1 + 0x180]\n 29937: a1 = u64 [s1 + 0x188]\n 29941: a2 = u32 [s1 + 0x190]\n 29945: u64 [s1 + 376] = 0\n 29949: u64 [s1 + 0x170] = a2\n 29953: u64 [s1 + 0x168] = a1\n 29957: a1 = s1 + 0x160\n 29961: u64 [s1 + 0x160] = a0\n 29965: a0 = 0\n 29967: ra = 1206, jump @9\n      : @1169 [@dyn 603] (gas: 7)\n 29973: u64 [s1 + 344] = 0\n 29977: u64 [s1 + 336] = 0\n 29981: u64 [s1 + 320] = 0x4\n 29986: a0 = 0x20\n 29989: a1 = s1 + 0x140\n 29993: u64 [s1 + 328] = 0\n 29997: ra = 1208, jump @9\n      : @1170 [@dyn 604] (gas: 4)\n 30003: a0 = 0x20150\n 30008: u64 [s1 + 0xf8] = a0\n 30012: a0 = i32 [0x20150]\n 30017: jump @1172 if a0 >u 63\n      : @1171 (gas: 3)\n 30021: a1 = u64 [s1 + 0xf8]\n 30025: u32 [a1 + 0] = 0x40\n 30028: fallthrough\n      : @1172 (gas: 14)\n 30029: a0 = sp + 0xffffffffffffffe0\n 30032: a2 = a0 & 0xffffffffffffffe0\n 30035: u64 [s1 + 0xe8] = a2\n 30039: sp = a2\n 30041: a0 = 0x20160\n 30046: u64 [s1 + 0xf0] = a0\n 30050: i32 a0 = a0 + 0\n 30052: i32 a2 = a2 + 0\n 30054: a1 = 0x40\n 30057: ra = 0x4ba\n 30061: ecalli 9 // 'hash_keccak_256'\n 30063: a3 = u64 [s1 + 0xe8]\n 30067: t0 = 0x4bc\n 30071: jump @1478\n      : @1173 [@dyn 605] (gas: 2)\n 30074: a3 = u64 [s1 + 0xe8]\n 30078: t0 = 1212, jump @1478\n      : @1174 [@dyn 606] (gas: 8)\n 30084: a5 = a4 + 0x400\n 30088: u64 [a5 + 0x40] = a3\n 30091: u64 [a5 + 0x38] = a2\n 30094: u64 [a5 + 0x30] = a1\n 30097: u64 [a5 + 0x28] = a0\n 30100: a0 = s1 + 0x120\n 30104: a1 = s1 + 0x24a0\n 30108: ra = 1214, jump @11\n      : @1175 [@dyn 607] (gas: 8)\n 30114: a0 = u32 [s1 + 0x120]\n 30118: u64 [s1 + 280] = 0\n 30122: u64 [s1 + 272] = 0\n 30126: u64 [s1 + 0x100] = a0\n 30130: a0 = 0x80\n 30134: a1 = s1 + 0x100\n 30138: u64 [s1 + 264] = 0\n 30142: ra = 1216, jump @9\n      : @1176 [@dyn 608] (gas: 3)\n 30148: a0 = u64 [s1 + 0xf8]\n 30152: a0 = i32 [a0]\n 30154: jump @1178 if a0 >u 159\n      : @1177 (gas: 5)\n 30159: a1 = u64 [s1 + 0xf8]\n 30163: u32 [a1 + 0] = 0xa0\n 30167: a0 = u64 [s1 + 0xf0]\n 30171: i32 a1 = a0 + 0x80\n 30175: jump @453\n      : @1178 (gas: 3)\n 30178: a0 = u64 [s1 + 0xf0]\n 30182: i32 a1 = a0 + 0x80\n 30186: jump @453\n      : @1179 (gas: 3)\n 30189: a0 = u64 [s1 + 0xf8]\n 30193: a0 = i32 [a0]\n 30195: fallthrough\n      : @1180 (gas: 1)\n 30196: jump @1184 if a0 == 0\n      : @1181 (gas: 3)\n 30199: a1 = 0x20160\n 30204: i32 a1 = a1 + 0\n 30206: fallthrough\n      : @1182 (gas: 7)\n 30207: a0 = 0x1\n 30210: a2 = 0\n 30212: ecalli 14 // 'seal_return'\n 30214: a1 = 0x20160\n 30219: i32 a1 = a1 + 0\n 30221: a0 = 0\n 30223: fallthrough\n      : @1183 (gas: 6)\n 30224: a2 = 0\n 30226: ecalli 14 // 'seal_return'\n 30228: a1 = 0x20160\n 30233: i32 a1 = a1 + 0\n 30235: a0 = 0\n 30237: jump @1183\n      : @1184 (gas: 4)\n 30239: a1 = 0x20160\n 30244: i32 a1 = a1 + 0\n 30246: a0 = 0\n 30248: jump @1183\n      : @1185 (gas: 3)\n 30250: a0 = u64 [s1 + 0xf8]\n 30254: a0 = i32 [a0]\n 30256: jump @1194 if a0 >u 99\n      : @1186 (gas: 4)\n 30261: a1 = 0x20160\n 30266: i32 a1 = a1 + 0\n 30268: a0 = 0x1\n 30271: jump @1183\n      : @1187 (gas: 4)\n 30273: a0 = s1 + 0x640\n 30277: ra = 0x4c2\n 30281: t0 = 0x4de\n 30285: jump @1493\n      : @1188 [@dyn 609] (gas: 7)\n 30288: a0 = u64 [s1 + 0x648]\n 30292: u64 [s1 + 0xf0] = a0\n 30296: a0 = u64 [s1 + 0x640]\n 30300: u64 [s1 + 0xf8] = a0\n 30304: a0 = u32 [s1 + 0x650]\n 30308: u64 [s1 + 0xe8] = a0\n 30312: ra = 1220, jump @1256\n      : @1189 [@dyn 610] (gas: 6)\n 30318: a0 = u64 [s1 + 0xf8]\n 30322: a1 = u64 [s1 + 0xe8]\n 30326: a0 = a0 | a1\n 30329: a1 = u64 [s1 + 0xf0]\n 30333: a0 = a0 | a1\n 30336: jump @1199 if a0 == 0\n      : @1190 (gas: 10)\n 30340: a0 = 0xffffffff\n 30350: u64 [s1 + 0xe0] = a0\n 30354: a0 = s1 + 0x2078\n 30358: u64 [a0 + 1408] = 0\n 30362: u64 [a0 + 1400] = 0\n 30366: u64 [a0 + 1392] = 0\n 30370: u64 [a0 + 1384] = 0\n 30374: a0 = s1 + 0x620\n 30378: a1 = s1 + 0x25e0\n 30382: ra = 1222, jump @11\n      : @1191 [@dyn 611] (gas: 26)\n 30388: a1 = u64 [s1 + 0x630]\n 30392: u64 [s1 + 0xc8] = a1\n 30396: a0 = u64 [s1 + 0x628]\n 30400: u64 [s1 + 0xd8] = a0\n 30404: a0 = u64 [s1 + 0x620]\n 30408: u64 [s1 + 0xd0] = a0\n 30412: a0 = u64 [s1 + 0x638]\n 30416: a1 = a1 >> 0x20\n 30419: a1 = a1 << 0x20\n 30422: a2 = u64 [s1 + 0xe8]\n 30426: a1 = a1 | a2\n 30429: a2 = s1 + 0x2078\n 30433: u64 [a2 + 1440] = 0\n 30437: u64 [a2 + 1432] = 0\n 30441: u64 [a2 + 1424] = 0\n 30445: u64 [a2 + 1416] = 0\n 30449: a3 = u64 [s1 + 0xf0]\n 30453: a4 = a2 + 0x500\n 30457: u64 [a4 + 0xb0] = a3\n 30461: a3 = u64 [s1 + 0xf8]\n 30465: u64 [a4 + 0xa8] = a3\n 30469: u64 [a4 + 0xc0] = a0\n 30473: u64 [a4 + 0xb8] = a1\n 30477: a0 = s1 + 0x2600\n 30481: a1 = s1 + 0x2620\n 30485: ra = 1224, jump @12\n      : @1192 [@dyn 612] (gas: 34)\n 30491: a0 = u64 [s1 + 0xd0]\n 30495: a0 = a0 & 0xffffffffffffffff\n 30498: a2 = u64 [s1 + 0xd8]\n 30502: a1 = a2 & 0xffffffffffffffff\n 30505: a2 = u64 [s1 + 0xe0]\n 30509: a3 = u64 [s1 + 0xc8]\n 30513: a2 = a2 & a3\n 30516: u64 [s1 + 1496] = 0\n 30520: a3 = u64 [s1 + 0xe8]\n 30524: a4 = s1 + 0x500\n 30528: u64 [a4 + 0xd0] = a3\n 30532: a3 = u64 [s1 + 0xf0]\n 30536: u64 [a4 + 0xc8] = a3\n 30540: a3 = u64 [s1 + 0xf8]\n 30544: u64 [a4 + 0xc0] = a3\n 30548: u64 [s1 + 1528] = 0\n 30552: u64 [a4 + 0xf0] = a2\n 30556: u64 [a4 + 0xe8] = a1\n 30560: a1 = u64 [0x200d8]\n 30565: a2 = u64 [0x200e0]\n 30570: a3 = u64 [0x200e8]\n 30575: u64 [a4 + 0xe0] = a0\n 30579: a5 = s1 + 0x600\n 30583: u64 [a5 + 0x18] = a1\n 30586: u64 [a5 + 0x10] = a2\n 30589: u64 [a5 + 0x8] = a3\n 30592: a0 = u64 [0x200f0]\n 30597: a2 = s1 + 0x600\n 30601: a3 = s1 + 0x5e0\n 30605: a4 = s1 + 0x5c0\n 30609: u64 [a5] = a0\n 30611: a0 = 0\n 30613: a1 = 0\n 30615: ra = 1226, jump @14\n      : @1193 [@dyn 613] (gas: 4)\n 30621: a1 = 0x20160\n 30626: i32 a1 = a1 + 0\n 30628: a0 = 0\n 30630: jump @1183\n      : @1194 (gas: 5)\n 30633: a0 = s1 + 0x7ff\n 30637: a0 = a0 + 0x5c1\n 30641: ra = 0x4cc\n 30645: t0 = 0x4de\n 30649: jump @1493\n      : @1195 [@dyn 614] (gas: 16)\n 30652: a1 = s1 + 0x7ff\n 30656: a1 = a1 + 0x79\n 30659: a2 = a1 + 0x500\n 30663: a0 = u64 [a2 + 0x48]\n 30666: u64 [s1 + 0xf8] = a0\n 30670: a0 = u64 [a2 + 0x50]\n 30673: u64 [s1 + 0xf0] = a0\n 30677: a0 = u64 [a2 + 0x58]\n 30680: u64 [s1 + 0xe8] = a0\n 30684: a0 = u64 [a2 + 0x60]\n 30687: u64 [s1 + 0xe0] = a0\n 30691: a0 = s1 + 0x7ff\n 30695: a0 = a0 + 0x5a1\n 30699: ra = 0x4ce\n 30703: t0 = 0x4e8\n 30707: jump @1499\n      : @1196 [@dyn 615] (gas: 16)\n 30710: a1 = s1 + 0x7ff\n 30714: a1 = a1 + 0x79\n 30717: a2 = a1 + 0x500\n 30721: a0 = u64 [a2 + 0x28]\n 30724: u64 [s1 + 0xd8] = a0\n 30728: a0 = u64 [a2 + 0x30]\n 30731: u64 [s1 + 0xd0] = a0\n 30735: a0 = u64 [a2 + 0x38]\n 30738: u64 [s1 + 0xc8] = a0\n 30742: a0 = u64 [a2 + 0x40]\n 30745: u64 [s1 + 0xc0] = a0\n 30749: a0 = s1 + 0x7ff\n 30753: a0 = a0 + 0x581\n 30757: ra = 0x4d0\n 30761: t0 = 0x4ee\n 30765: jump @1499\n      : @1197 [@dyn 616] (gas: 35)\n 30768: a4 = s1 + 0x7ff\n 30772: a4 = a4 + 0x79\n 30775: a5 = a4 + 0x500\n 30779: a0 = u64 [a5 + 0x8]\n 30782: a1 = u64 [a5 + 0x10]\n 30785: a2 = u64 [a5 + 0x18]\n 30788: a3 = u64 [a5 + 0x20]\n 30791: u64 [a4 + 0x4c0] = a3\n 30795: u64 [a4 + 0x4b8] = a2\n 30799: u64 [a4 + 0x4b0] = a1\n 30803: u64 [a4 + 0x4a8] = a0\n 30807: a0 = u64 [s1 + 0xc0]\n 30811: u64 [a4 + 0x4e0] = a0\n 30815: a0 = u64 [s1 + 0xc8]\n 30819: u64 [a4 + 0x4d8] = a0\n 30823: a0 = u64 [s1 + 0xd0]\n 30827: u64 [a4 + 0x4d0] = a0\n 30831: a0 = u64 [s1 + 0xd8]\n 30835: u64 [a4 + 0x4c8] = a0\n 30839: a0 = u64 [s1 + 0xe0]\n 30843: u64 [a5] = a0\n 30845: a0 = u64 [s1 + 0xe8]\n 30849: a5 = a4 + 0x400\n 30853: u64 [a5 + 0xf8] = a0\n 30857: a0 = u64 [s1 + 0xf0]\n 30861: u64 [a5 + 0xf0] = a0\n 30865: a0 = s1 + 0x7ff\n 30869: a0 = a0 + 0x561\n 30873: a1 = s1 + 0x7ff\n 30877: a1 = a1 + 0x541\n 30881: a2 = s1 + 0x7ff\n 30885: a2 = a2 + 0x521\n 30889: a3 = u64 [s1 + 0xf8]\n 30893: u64 [a5 + 0xe8] = a3\n 30897: ra = 1234, jump @1283\n      : @1198 [@dyn 617] (gas: 4)\n 30903: a1 = 0x20160\n 30908: i32 a1 = a1 + 0\n 30910: a0 = 0\n 30912: jump @1183\n      : @1199 (gas: 8)\n 30915: u64 [s1 + 1456] = 0\n 30919: u64 [s1 + 1448] = 0\n 30923: u64 [s1 + 1440] = 0\n 30927: a0 = 0xdd75059200000000\n 30937: a1 = s1 + 0x5a0\n 30941: u64 [s1 + 0x5b8] = a0\n 30945: a0 = 0\n 30947: ra = 1236, jump @9\n      : @1200 [@dyn 618] (gas: 2)\n 30953: a1 = i32 [0x20150]\n 30958: jump @1202 if a1 >u 31\n      : @1201 (gas: 4)\n 30962: u32 [0x20150] = 0x20\n 30968: a1 = 0x20160\n 30973: i32 a1 = a1 + 0\n 30975: jump @895\n      : @1202 (gas: 3)\n 30978: a1 = 0x20160\n 30983: i32 a1 = a1 + 0\n 30985: jump @895\n      : @1203 (gas: 18)\n 30988: sp = sp + 0xffffffffffffffc0\n 30991: u64 [sp + 0x38] = ra\n 30994: u64 [sp + 0x30] = s0\n 30997: u64 [sp + 0x28] = s1\n 31000: s0 = sp + 0x40\n 31003: sp = sp & 0xfffffffffffffff0\n 31006: a2 = u64 [a1 + 0x10]\n 31009: a3 = u64 [a1 + 0x18]\n 31012: a4 = u64 [a1 + 0x8]\n 31015: a1 = u64 [a1]\n 31017: a3 = a3 | a4\n 31020: a4 = a1 | a2\n 31023: a4 = a4 | a3\n 31026: a4 = a4 >> 0x20\n 31029: a2 = a2 | a3\n 31032: a2 = a2 << 0x20\n 31035: a2 = a2 | a4\n 31038: jump @1209 if a2 != 0\n      : @1204 (gas: 3)\n 31041: s1 = a0\n 31043: a0 = sp\n 31045: ra = 1238, jump @7\n      : @1205 [@dyn 619] (gas: 1)\n 31051: t0 = 1240, jump @1481\n      : @1206 [@dyn 620] (gas: 1)\n 31057: jump @1210 if a3 == 0\n      : @1207 (gas: 1)\n 31060: t0 = 1242, jump @1490\n      : @1208 [@dyn 621] (gas: 1)\n 31066: ret\n      : @1209 (gas: 1)\n 31068: trap\n      : @1210 (gas: 8)\n 31069: a1 = 0x20160\n 31074: i32 a1 = a1 + 0\n 31076: a0 = 0x1\n 31079: a2 = 0\n 31081: ra = 0x4dc\n 31085: ecalli 14 // 'seal_return'\n 31087: t0 = 0x4de\n 31091: jump @1493\n      : @1211 [@dyn 622] (gas: 1)\n 31094: t0 = 1246, jump @1493\n      : @1212 [@dyn 623] (gas: 4)\n 31100: ra = 0x4e0\n 31104: ecalli 2 // 'call_data_load'\n 31106: t0 = 0x4e2\n 31110: jump @1481\n      : @1213 [@dyn 624] (gas: 1)\n 31113: t0 = 1250, jump @1481\n      : @1214 [@dyn 625] (gas: 1)\n 31119: jump @1217 if a3 == 0\n      : @1215 (gas: 1)\n 31122: t0 = 1252, jump @1490\n      : @1216 [@dyn 626] (gas: 1)\n 31128: ret\n      : @1217 (gas: 8)\n 31130: a1 = 0x20160\n 31135: i32 a1 = a1 + 0\n 31137: a0 = 0x1\n 31140: a2 = 0\n 31142: ra = 0x4e6\n 31146: ecalli 14 // 'seal_return'\n 31148: t0 = 0x4e8\n 31152: jump @1499\n      : @1218 [@dyn 627] (gas: 1)\n 31155: t0 = 1256, jump @1499\n      : @1219 [@dyn 628] (gas: 3)\n 31161: a1 = 0x24\n 31164: ecalli 2 // 'call_data_load'\n 31166: fallthrough\n      : @1220 (gas: 7)\n 31167: a0 = u64 [sp + 0x18]\n 31170: a1 = u64 [sp + 0x10]\n 31173: a2 = u64 [sp + 0x8]\n 31176: a3 = a1 | a0\n 31179: a4 = a2 <u 0x1\n 31182: a4 = 0 if a3 != 0\n 31184: jump @1223 if a4 == 0\n      : @1221 (gas: 2)\n 31187: a3 = u64 [sp]\n 31189: t0 = 1258, jump @1474\n      : @1222 [@dyn 629] (gas: 1)\n 31195: ret\n      : @1223 (gas: 8)\n 31197: a1 = 0x20160\n 31202: i32 a1 = a1 + 0\n 31204: a0 = 0x1\n 31207: a2 = 0\n 31209: ra = 0x4ec\n 31213: ecalli 14 // 'seal_return'\n 31215: t0 = 0x4ee\n 31219: jump @1499\n      : @1224 [@dyn 630] (gas: 1)\n 31222: t0 = 1262, jump @1499\n      : @1225 [@dyn 631] (gas: 5)\n 31228: a1 = 0x44\n 31231: ra = 0x4f0\n 31235: ecalli 2 // 'call_data_load'\n 31237: t0 = 0x4f2\n 31241: jump @1488\n      : @1226 [@dyn 632] (gas: 1)\n 31244: t0 = 1266, jump @1488\n      : @1227 [@dyn 633] (gas: 1)\n 31250: jump @1230 if a4 != 0\n      : @1228 (gas: 1)\n 31253: t0 = 1268, jump @1474\n      : @1229 [@dyn 634] (gas: 1)\n 31259: ret\n      : @1230 (gas: 8)\n 31261: a1 = 0x20160\n 31266: i32 a1 = a1 + 0\n 31268: a0 = 0x1\n 31271: a2 = 0\n 31273: ra = 0x4f6\n 31277: ecalli 14 // 'seal_return'\n 31279: t0 = 0x4f8\n 31283: jump @1493\n      : @1231 [@dyn 635] (gas: 1)\n 31286: t0 = 1272, jump @1493\n      : @1232 [@dyn 636] (gas: 4)\n 31292: ra = 0x4fa\n 31296: ecalli 2 // 'call_data_load'\n 31298: t0 = 0x4fc\n 31302: jump @1488\n      : @1233 [@dyn 637] (gas: 1)\n 31305: t0 = 1276, jump @1488\n      : @1234 [@dyn 638] (gas: 1)\n 31311: jump @1237 if a4 != 0\n      : @1235 (gas: 1)\n 31314: t0 = 1278, jump @1474\n      : @1236 [@dyn 639] (gas: 1)\n 31320: ret\n      : @1237 (gas: 7)\n 31322: a1 = 0x20160\n 31327: i32 a1 = a1 + 0\n 31329: a0 = 0x1\n 31332: a2 = 0\n 31334: ra = 0x500\n 31338: ecalli 14 // 'seal_return'\n 31340: fallthrough\n      : @1238 [@dyn 640] (gas: 45)\n 31341: sp = sp + 0xffffffffffffff90\n 31344: u64 [sp + 0x68] = ra\n 31347: u64 [sp + 0x60] = s0\n 31350: u64 [sp + 0x58] = s1\n 31353: s0 = sp + 0x70\n 31356: sp = sp & 0xfffffffffffffff0\n 31359: a3 = u64 [a1 + 0x18]\n 31362: u64 [sp + 0x8] = a3\n 31365: a4 = u64 [a2 + 0x18]\n 31368: t2 = u64 [a1]\n 31370: u64 [sp] = t2\n 31372: a3 = u64 [a1 + 0x8]\n 31375: s1 = u64 [a2 + 0x8]\n 31378: a5 = u64 [a2]\n 31380: t1 = u64 [a1 + 0x10]\n 31383: t0 = u64 [a2 + 0x10]\n 31386: a2 = s1 + a3\n 31389: t2 = t2 + a5\n 31392: a5 = t2 <u a5\n 31395: a2 = a2 + a5\n 31398: ra = a2 ^ s1\n 31401: s1 = a2 <u s1\n 31404: s1 = a5 if ra == 0\n 31407: a1 = t0 + t1\n 31410: a5 = u64 [sp + 0x8]\n 31413: a5 = a5 + a4\n 31416: a4 = a1 <u t0\n 31419: a4 = a4 + a5\n 31422: a5 = a1 + s1\n 31425: a1 = a5 <u a1\n 31428: ra = a4 + a1\n 31431: a4 = a2 ^ a3\n 31434: a3 = a2 <u a3\n 31437: a1 = u64 [sp]\n 31439: s1 = t2 <u a1\n 31442: s1 = a3 if a4 != 0\n 31445: t0 = a5 <u t1\n 31448: a1 = u64 [sp + 0x8]\n 31451: a4 = ra ^ a1\n 31454: a3 = ra <u a1\n 31457: a3 = t0 if a4 == 0\n 31460: a1 = a5 ^ t1\n 31463: a1 = a1 | a4\n 31466: s1 = a3 if a1 != 0\n 31469: jump @1240 if s1 != 0\n      : @1239 (gas: 10)\n 31472: u64 [a0] = t2\n 31474: u64 [a0 + 0x8] = a2\n 31477: u64 [a0 + 0x10] = a5\n 31480: u64 [a0 + 0x18] = ra\n 31483: sp = s0 + 0xffffffffffffff90\n 31486: ra = u64 [sp + 0x68]\n 31489: s0 = u64 [sp + 0x60]\n 31492: s1 = u64 [sp + 0x58]\n 31495: sp = sp + 0x70\n 31498: ret\n      : @1240 (gas: 1)\n 31500: t0 = 1282, jump @1492\n      : @1241 [@dyn 641] (gas: 1)\n 31506: ra = 1284, jump @9\n      : @1242 [@dyn 642] (gas: 7)\n 31512: u64 [sp + 40] = 0\n 31515: u64 [sp + 32] = 0\n 31518: u64 [sp + 16] = 0x11\n 31522: a0 = 0x4\n 31525: a1 = sp + 0x10\n 31528: u64 [sp + 24] = 0\n 31531: ra = 1286, jump @9\n      : @1243 [@dyn 643] (gas: 2)\n 31537: a1 = i32 [0x20150]\n 31542: jump @1245 if a1 >u 63\n      : @1244 (gas: 2)\n 31546: u32 [0x20150] = 0x40\n 31552: fallthrough\n      : @1245 (gas: 7)\n 31553: a1 = 0x20160\n 31558: i32 a1 = a1 + 0\n 31560: a0 = 0x1\n 31563: a2 = 0x24\n 31566: ra = 0x508\n 31570: ecalli 14 // 'seal_return'\n 31572: fallthrough\n      : @1246 [@dyn 644] (gas: 46)\n 31573: sp = sp + 0xffffffffffffff70\n 31577: u64 [sp + 0x88] = ra\n 31581: u64 [sp + 0x80] = s0\n 31585: u64 [sp + 0x78] = s1\n 31588: s0 = sp + 0x90\n 31592: sp = sp & 0xfffffffffffffff0\n 31595: t0 = a0\n 31597: a2 = u64 [a1]\n 31599: t2 = u64 [a0 + 0x8]\n 31602: a5 = u64 [a1 + 0x8]\n 31605: t1 = u64 [a0]\n 31607: a3 = a2 + 0x1f\n 31610: ra = a3 <u a2\n 31613: a2 = a5 + ra\n 31616: a3 = a3 & 0xffffffffffffffe0\n 31619: u64 [sp + 0x8] = t1\n 31622: t1 = t1 + a3\n 31625: a4 = t1 <u a3\n 31628: a3 = a2 + t2\n 31631: a3 = a3 + a4\n 31634: s1 = a3 ^ a2\n 31637: a0 = a3 <u a2\n 31640: a0 = a4 if s1 == 0\n 31643: a4 = u64 [t0 + 0x18]\n 31646: a5 = a2 <u a5\n 31649: s1 = u64 [a1 + 0x10]\n 31652: t0 = u64 [t0 + 0x10]\n 31655: a1 = u64 [a1 + 0x18]\n 31658: a5 = ra if ra == 0\n 31661: a5 = a5 + s1\n 31664: s1 = a5 <u s1\n 31667: a2 = a5 + t0\n 31670: a0 = a0 + a2\n 31673: a5 = a2 <u a5\n 31676: a2 = a0 <u a2\n 31679: a1 = a1 + a4\n 31682: a1 = a1 + s1\n 31685: a1 = a1 + a5\n 31688: a5 = a1 + a2\n 31691: a1 = a5 >u 0\n 31693: a2 = a0 >u 0\n 31695: a2 = a1 if a5 != 0\n 31698: a1 = a0 | a5\n 31701: s1 = a3 >u 0\n 31703: s1 = a2 if a1 != 0\n 31706: jump @1250 if s1 != 0\n      : @1247 (gas: 13)\n 31709: a1 = u64 [sp + 0x8]\n 31712: a1 = t1 <u a1\n 31715: a2 = a3 ^ t2\n 31718: s1 = a3 <u t2\n 31721: s1 = a1 if a2 == 0\n 31724: a1 = a0 <u t0\n 31727: a2 = a5 ^ a4\n 31730: a4 = a5 <u a4\n 31733: a4 = a1 if a2 == 0\n 31736: a1 = a0 ^ t0\n 31739: a1 = a1 | a2\n 31742: a4 = s1 if a1 == 0\n 31745: jump @1250 if a4 != 0\n      : @1248 (gas: 7)\n 31748: u64 [sp + 0x50] = t1\n 31751: u64 [sp + 0x58] = a3\n 31754: u64 [sp + 0x60] = a0\n 31757: a0 = 0x40\n 31760: a1 = sp + 0x50\n 31763: u64 [sp + 0x68] = a5\n 31766: ra = 1290, jump @9\n      : @1249 [@dyn 645] (gas: 6)\n 31772: sp = s0 + 0xffffffffffffff70\n 31776: ra = u64 [sp + 0x88]\n 31780: s0 = u64 [sp + 0x80]\n 31784: s1 = u64 [sp + 0x78]\n 31787: sp = sp + 0x90\n 31791: ret\n      : @1250 (gas: 1)\n 31793: t0 = 1292, jump @1492\n      : @1251 [@dyn 646] (gas: 1)\n 31799: ra = 1294, jump @9\n      : @1252 [@dyn 647] (gas: 7)\n 31805: u64 [sp + 40] = 0\n 31808: u64 [sp + 32] = 0\n 31811: u64 [sp + 16] = 0x41\n 31815: a0 = 0x4\n 31818: a1 = sp + 0x10\n 31821: u64 [sp + 24] = 0\n 31824: ra = 1296, jump @9\n      : @1253 [@dyn 648] (gas: 2)\n 31830: a1 = i32 [0x20150]\n 31835: jump @1255 if a1 >u 63\n      : @1254 (gas: 2)\n 31839: u32 [0x20150] = 0x40\n 31845: fallthrough\n      : @1255 (gas: 7)\n 31846: a1 = 0x20160\n 31851: i32 a1 = a1 + 0\n 31853: a0 = 0x1\n 31856: a2 = 0x24\n 31859: ra = 0x512\n 31863: ecalli 14 // 'seal_return'\n 31865: fallthrough\n      : @1256 [@dyn 649] (gas: 13)\n 31866: sp = sp + 0xffffffffffffff60\n 31870: u64 [sp + 0x98] = ra\n 31874: u64 [sp + 0x90] = s0\n 31878: u64 [sp + 0x88] = s1\n 31882: s0 = sp + 0xa0\n 31886: sp = sp & 0xffffffffffffffe0\n 31889: u64 [sp + 120] = 0\n 31892: u64 [sp + 112] = 0\n 31895: u64 [sp + 104] = 0\n 31898: u64 [sp + 96] = 0x1\n 31902: a0 = sp + 0x40\n 31905: a1 = sp + 0x60\n 31908: ra = 1300, jump @11\n      : @1257 [@dyn 650] (gas: 10)\n 31914: a0 = u64 [sp + 0x48]\n 31917: u64 [sp + 0x18] = a0\n 31920: a0 = u64 [sp + 0x40]\n 31923: u64 [sp + 0x10] = a0\n 31926: a0 = u32 [sp + 0x50]\n 31929: u64 [sp + 0x8] = a0\n 31932: s1 = 0x30160\n 31937: i32 a0 = s1 + 0\n 31939: ecalli 4 // 'caller'\n 31941: fallthrough\n      : @1258 (gas: 22)\n 31942: a0 = u64 [0x30168]\n 31947: a1 = u64 [0x30160]\n 31952: a2 = i32 [0x30170]\n 31957: a0 = reverse a0\n 31959: a3 = a0 >> 0x20\n 31962: a1 = reverse a1\n 31964: a4 = a1 << 0x20\n 31967: a3 = a3 | a4\n 31970: a0 = a0 << 0x20\n 31973: a2 = reverse a2\n 31975: a2 = a2 >> 0x20\n 31978: a0 = a0 | a2\n 31981: a1 = a1 >> 0x20\n 31984: a2 = u64 [sp + 0x8]\n 31987: a1 = a1 ^ a2\n 31990: a2 = u64 [sp + 0x10]\n 31993: a0 = a0 ^ a2\n 31996: a0 = a0 | a1\n 31999: a1 = u64 [sp + 0x18]\n 32002: a1 = a1 ^ a3\n 32005: a0 = a0 | a1\n 32008: jump @1260 if a0 != 0\n      : @1259 (gas: 6)\n 32011: sp = s0 + 0xffffffffffffff60\n 32015: ra = u64 [sp + 0x98]\n 32019: s0 = u64 [sp + 0x90]\n 32023: s1 = u64 [sp + 0x88]\n 32027: sp = sp + 0xa0\n 32031: ret\n      : @1260 (gas: 8)\n 32033: u64 [sp + 48] = 0\n 32036: u64 [sp + 40] = 0\n 32039: u64 [sp + 32] = 0\n 32042: a0 = 0x5fc483c500000000\n 32052: a1 = sp + 0x20\n 32055: u64 [sp + 0x38] = a0\n 32058: a0 = 0\n 32060: ra = 1302, jump @9\n      : @1261 [@dyn 651] (gas: 2)\n 32066: a1 = i32 [0x20150]\n 32071: jump @1263 if a1 >u 31\n      : @1262 (gas: 2)\n 32075: u32 [0x20150] = 0x20\n 32081: fallthrough\n      : @1263 (gas: 7)\n 32082: a1 = 0x20160\n 32087: i32 a1 = a1 + 0\n 32089: a0 = 0x1\n 32092: a2 = 0x4\n 32095: ra = 0x518\n 32099: ecalli 14 // 'seal_return'\n 32101: fallthrough\n      : @1264 [@dyn 652] (gas: 74)\n 32102: sp = sp + 0xfffffffffffffea0\n 32106: u64 [sp + 0x158] = ra\n 32110: u64 [sp + 0x150] = s0\n 32114: u64 [sp + 0x148] = s1\n 32118: s0 = sp + 0x160\n 32122: sp = sp & 0xffffffffffffffe0\n 32125: a2 = u64 [a1]\n 32127: u64 [sp + 0x38] = a2\n 32130: a2 = u64 [a1 + 0x8]\n 32133: u64 [sp + 0x30] = a2\n 32136: a2 = u64 [a1 + 0x10]\n 32139: u64 [sp + 0x28] = a2\n 32142: a1 = u64 [a1 + 0x18]\n 32145: u64 [sp + 0x20] = a1\n 32148: a1 = u64 [a0]\n 32150: u64 [sp + 0x18] = a1\n 32153: a1 = u64 [a0 + 0x10]\n 32156: u64 [sp + 0x10] = a1\n 32159: s1 = u64 [a0 + 0x8]\n 32162: ecalli 11 // 'ref_time_left'\n 32164: a1 = reverse s1\n 32166: a2 = a1 << 0x20\n 32169: a3 = u64 [sp + 0x10]\n 32172: a3 = reverse a3\n 32174: a3 = a3 >> 0x20\n 32177: a2 = a2 | a3\n 32180: a1 = a1 >> 0x20\n 32183: a3 = u64 [sp + 0x18]\n 32186: a3 = reverse a3\n 32188: a4 = 0x30160\n 32193: a5 = a3 << 0x20\n 32196: a1 = a1 | a5\n 32199: a3 = a3 >> 0x20\n 32202: u32 [0x30170] = a3\n 32207: u64 [0x30168] = a1\n 32212: u64 [0x30160] = a2\n 32217: a1 = u64 [sp + 0x20]\n 32220: u64 [sp + 0xf8] = a1\n 32224: a1 = u64 [sp + 0x28]\n 32227: u64 [sp + 0xf0] = a1\n 32231: a1 = u64 [sp + 0x30]\n 32234: u64 [sp + 0xe8] = a1\n 32238: a1 = u64 [sp + 0x38]\n 32241: u64 [sp + 0xe0] = a1\n 32245: u32 [sp + 256] = 0\n 32249: a0 = a0 >u 0x8fc\n 32253: a1 = -a0\n 32255: u64 [sp + 0x138] = a1\n 32259: u64 [sp + 0x130] = a1\n 32263: u64 [sp + 0x128] = a1\n 32267: u64 [sp + 0x120] = a1\n 32271: a4 = a4 << 0x20\n 32274: a4 = a4 >> 0x20\n 32277: a0 = a0 << 0x23\n 32280: a0 = a0 | a4\n 32283: a1 = sp + 0xe0\n 32287: a1 = a1 << 0x20\n 32290: a1 = a1 >> 0x20\n 32293: a4 = 0x20160\n 32298: a2 = sp + 0x120\n 32302: a2 = a2 << 0x20\n 32305: a3 = a2 | a1\n 32308: u64 [sp + 0x8] = a4\n 32311: a4 = a4 << 0x20\n 32314: a4 = a4 >> 0x20\n 32317: a1 = sp + 0x100\n 32321: a1 = a1 << 0x20\n 32324: a5 = a1 | a4\n 32327: a1 = 0xffffffffffffffff\n 32330: a2 = 0xffffffffffffffff\n 32333: ecalli 0 // 'call'\n 32334: s1 = a0\n 32336: ecalli 13 // 'return_data_size'\n 32338: fallthrough\n      : @1265 (gas: 1)\n 32339: jump @1276 if a0 == 0\n      : @1266 (gas: 6)\n 32343: u64 [sp + 0x10] = s1\n 32346: ecalli 13 // 'return_data_size'\n 32348: s1 = a0\n 32350: a0 = sp + 0xc0\n 32354: a1 = 0x40\n 32357: ra = 1306, jump @7\n      : @1267 [@dyn 653] (gas: 28)\n 32363: t0 = u64 [sp + 0xd8]\n 32367: a5 = u64 [sp + 0xd0]\n 32371: u64 [sp + 0x30] = a5\n 32374: t1 = u64 [sp + 0xc8]\n 32378: u64 [sp + 0x38] = t1\n 32381: t2 = u64 [sp + 0xc0]\n 32385: u64 [sp + 0x28] = t2\n 32388: a0 = s1 + 0x1f\n 32391: u64 [sp + 0x18] = s1\n 32394: a1 = a0 <u s1\n 32397: a0 = a0 & 0xffffffffffffffe0\n 32400: a2 = a0 + 0x20\n 32403: a0 = a2 <u a0\n 32406: a3 = a1 + a0\n 32409: a4 = a3 <u a1\n 32412: a4 = a0 if a0 == 0\n 32415: u64 [sp + 152] = 0\n 32419: u64 [sp + 0x80] = a2\n 32423: s1 = t0\n 32425: u64 [sp + 0xb8] = t0\n 32429: u64 [sp + 0xb0] = a5\n 32433: u64 [sp + 0xa8] = t1\n 32437: u64 [sp + 0xa0] = t2\n 32441: u64 [sp + 0x88] = a3\n 32445: a0 = sp + 0xa0\n 32449: a1 = sp + 0x80\n 32453: u64 [sp + 0x90] = a4\n 32457: ra = 1308, jump @1246\n      : @1268 [@dyn 654] (gas: 12)\n 32463: a0 = u64 [sp + 0x28]\n 32466: u64 [sp + 0x20] = s1\n 32469: a2 = u64 [sp + 0x38]\n 32472: a2 = a2 | s1\n 32475: a3 = u64 [sp + 0x30]\n 32478: a1 = a0 | a3\n 32481: a1 = a1 | a2\n 32484: a1 = a1 >> 0x20\n 32487: a2 = a2 | a3\n 32490: a2 = a2 << 0x20\n 32493: a1 = a1 | a2\n 32496: jump @1278 if a1 != 0\n      : @1269 (gas: 8)\n 32500: u64 [sp + 120] = 0\n 32503: u64 [sp + 112] = 0\n 32506: u64 [sp + 104] = 0\n 32509: a1 = sp + 0x60\n 32512: a2 = u64 [sp + 0x18]\n 32515: u64 [sp + 0x60] = a2\n 32518: s1 = a0\n 32520: ra = 1310, jump @9\n      : @1270 [@dyn 655] (gas: 2)\n 32526: ecalli 13 // 'return_data_size'\n 32528: fallthrough\n      : @1271 (gas: 9)\n 32529: a1 = u64 [sp + 0x20]\n 32532: a2 = u64 [sp + 0x30]\n 32535: a1 = a1 | a2\n 32538: a2 = 0xffffffe0\n 32548: a2 = s1 <u a2\n 32551: a4 = u64 [sp + 0x38]\n 32554: a2 = 0 if a4 != 0\n 32556: a2 = 0 if a1 != 0\n 32558: jump @1278 if a2 == 0\n      : @1272 (gas: 4)\n 32561: a3 = s1\n 32563: s1 = a0\n 32565: a0 = a0 >> 0x20\n 32568: jump @1278 if a0 != 0\n      : @1273 (gas: 5)\n 32571: i32 a0 = a3 + 0x20\n 32574: i32 a1 = s1 + 0\n 32576: u64 [sp + 0x38] = a1\n 32579: a1 = s1\n 32581: ra = 1312, jump @20\n      : @1274 [@dyn 656] (gas: 6)\n 32587: u32 [sp + 0x140] = s1\n 32591: i32 a0 = a0 + 0\n 32593: i32 a1 = sp + 0x140\n 32597: a2 = 0\n 32599: ecalli 12 // 'return_data_copy'\n 32601: fallthrough\n      : @1275 (gas: 4)\n 32602: a0 = i32 [sp + 0x140]\n 32606: s1 = u64 [sp + 0x10]\n 32609: a1 = u64 [sp + 0x38]\n 32612: jump @1278 if a0 <u a1\n      : @1276 (gas: 1)\n 32615: jump @1279 if s1 != 0\n      : @1277 (gas: 6)\n 32618: sp = s0 + 0xfffffffffffffea0\n 32622: ra = u64 [sp + 0x158]\n 32626: s0 = u64 [sp + 0x150]\n 32630: s1 = u64 [sp + 0x148]\n 32634: sp = sp + 0x160\n 32638: ret\n      : @1278 (gas: 1)\n 32640: trap\n      : @1279 (gas: 8)\n 32641: u64 [sp + 80] = 0\n 32644: u64 [sp + 72] = 0\n 32647: u64 [sp + 64] = 0\n 32650: a0 = 0x90b8ec1800000000\n 32660: a1 = sp + 0x40\n 32663: u64 [sp + 0x58] = a0\n 32666: a0 = 0\n 32668: ra = 1314, jump @9\n      : @1280 [@dyn 657] (gas: 2)\n 32674: a1 = i32 [0x20150]\n 32679: jump @1282 if a1 >u 31\n      : @1281 (gas: 2)\n 32683: u32 [0x20150] = 0x20\n 32689: fallthrough\n      : @1282 (gas: 6)\n 32690: a1 = i32 [sp + 0x8]\n 32693: a0 = 0x1\n 32696: a2 = 0x4\n 32699: ra = 0x524\n 32703: ecalli 14 // 'seal_return'\n 32705: fallthrough\n      : @1283 [@dyn 658] (gas: 31)\n 32706: sp = sp + 0xfffffffffffff808\n 32710: a3 = sp + 0x700\n 32714: u64 [a3 + 0xf0] = ra\n 32718: u64 [a3 + 0xe8] = s0\n 32722: u64 [a3 + 0xe0] = s1\n 32726: s0 = sp + 0x7f8\n 32730: sp = sp + 0xfffffffffffffdf8\n 32734: sp = sp & 0xffffffffffffffe0\n 32737: s1 = sp\n 32739: a2 = u64 [a2]\n 32741: u64 [s1 + 0x90] = a2\n 32745: a1 = u64 [a1]\n 32747: u64 [s1 + 0x68] = a1\n 32750: a2 = u64 [a0]\n 32752: a1 = u64 [a0 + 0x8]\n 32755: a0 = u32 [a0 + 0x10]\n 32758: a3 = s1 + 0x1000\n 32762: u64 [a3 + 4294965272] = 0\n 32766: u64 [s1 + 0x98] = a0\n 32770: a3 = s1 + 0x1000\n 32774: u64 [a3 + 0xfffffffffffff810] = a0\n 32778: u64 [s1 + 0xa0] = a1\n 32782: a0 = s1 + 0x1000\n 32786: u64 [a0 + 0xfffffffffffff808] = a1\n 32790: a1 = s1 + 0x7ff\n 32794: a1 = a1 + 0x1\n 32797: u64 [s1 + 0xa8] = a2\n 32801: a0 = s1 + 0x1000\n 32805: u64 [a0 + 0xfffffffffffff800] = a2\n 32809: a0 = 0\n 32811: ra = 1318, jump @9\n      : @1284 [@dyn 659] (gas: 7)\n 32817: u64 [s1 + 2040] = 0\n 32821: u64 [s1 + 2032] = 0\n 32825: u64 [s1 + 2016] = 0x3\n 32830: a0 = 0x20\n 32833: a1 = s1 + 0x7e0\n 32837: u64 [s1 + 2024] = 0\n 32841: ra = 1320, jump @9\n      : @1285 [@dyn 660] (gas: 3)\n 32847: a1 = 0x20150\n 32852: a0 = i32 [0x20150]\n 32857: jump @1287 if a0 >u 63\n      : @1286 (gas: 2)\n 32861: u32 [0x20150] = 0x40\n 32867: fallthrough\n      : @1287 (gas: 16)\n 32868: a0 = sp + 0xffffffffffffffe0\n 32871: a2 = a0 & 0xffffffffffffffe0\n 32874: u64 [s1 + 0x88] = a2\n 32878: sp = a2\n 32880: a0 = 0x20160\n 32885: u64 [s1 + 0x30] = a0\n 32888: i32 a0 = a0 + 0\n 32890: i32 a2 = a2 + 0\n 32892: u64 [s1 + 0xb0] = a1\n 32896: a1 = 0x40\n 32899: u64 [s1 + 0xb8] = a0\n 32903: ra = 0x52a\n 32907: ecalli 9 // 'hash_keccak_256'\n 32909: a3 = u64 [s1 + 0x88]\n 32913: t0 = 0x52c\n 32917: jump @1489\n      : @1288 [@dyn 661] (gas: 2)\n 32920: a3 = u64 [s1 + 0x88]\n 32924: t0 = 1324, jump @1489\n      : @1289 [@dyn 662] (gas: 18)\n 32930: u64 [s1 + 0x88] = a0\n 32934: a0 = reverse a1\n 32936: u64 [s1 + 0x80] = a0\n 32940: a0 = reverse a2\n 32942: u64 [s1 + 0x78] = a0\n 32945: a0 = reverse a3\n 32947: u64 [s1 + 0x60] = a0\n 32950: a0 = u64 [s1 + 0x90]\n 32954: a0 = a0 << 0x20\n 32957: a0 = a0 >> 0x20\n 32960: u64 [s1 + 2008] = 0\n 32964: u64 [s1 + 2000] = 0\n 32968: u64 [s1 + 1992] = 0\n 32972: a1 = s1 + 0x7c0\n 32976: u64 [s1 + 0x70] = a0\n 32979: u64 [s1 + 0x7c0] = a0\n 32983: a0 = 0\n 32985: ra = 1326, jump @9\n      : @1290 [@dyn 663] (gas: 12)\n 32991: a0 = u64 [s1 + 0x60]\n 32994: a3 = s1 + 0x700\n 32998: u64 [a3 + 0xb8] = a0\n 33002: a0 = u64 [s1 + 0x78]\n 33005: u64 [a3 + 0xb0] = a0\n 33009: a0 = u64 [s1 + 0x80]\n 33013: u64 [a3 + 0xa8] = a0\n 33017: a0 = 0x20\n 33020: a1 = s1 + 0x7a0\n 33024: a2 = u64 [s1 + 0x88]\n 33028: u64 [a3 + 0xa0] = a2\n 33032: ra = 1328, jump @9\n      : @1291 [@dyn 664] (gas: 3)\n 33038: a1 = u64 [s1 + 0xb0]\n 33042: a0 = i32 [a1]\n 33044: jump @1293 if a0 >u 63\n      : @1292 (gas: 2)\n 33048: u32 [a1 + 0] = 0x40\n 33051: fallthrough\n      : @1293 (gas: 4)\n 33052: a0 = sp + 0xffffffffffffffe0\n 33055: a0 = a0 & 0xffffffffffffffe0\n 33058: u64 [s1 + 0x90] = a0\n 33062: t0 = 1330, jump @1466\n      : @1294 [@dyn 665] (gas: 5)\n 33068: ra = 0x534\n 33072: ecalli 9 // 'hash_keccak_256'\n 33074: a3 = u64 [s1 + 0x90]\n 33078: t0 = 0x536\n 33082: jump @1448\n      : @1295 [@dyn 666] (gas: 2)\n 33085: a3 = u64 [s1 + 0x90]\n 33089: t0 = 1334, jump @1448\n      : @1296 [@dyn 667] (gas: 12)\n 33095: a1 = s1 + 0x1000\n 33099: u64 [a1 + 0xfffffffffffff820] = a3\n 33103: a1 = s1 + 0x1000\n 33107: u64 [a1 + 0xfffffffffffff828] = a2\n 33111: a1 = s1 + 0x7ff\n 33115: a1 = a1 + 0x31\n 33118: u64 [a1] = a4\n 33120: u64 [a1 + 0x8] = a0\n 33123: a0 = s1 + 0x780\n 33127: a1 = s1 + 0x7ff\n 33131: a1 = a1 + 0x21\n 33134: ra = 1336, jump @11\n      : @1297 [@dyn 668] (gas: 2)\n 33140: a0 = u64 [s1 + 0x780]\n 33144: jump @1431 if a0 == 0\n      : @1298 (gas: 7)\n 33148: a1 = u64 [s1 + 0x70]\n 33151: a0 = a1 <u 0x100\n 33155: u64 [s1 + 0x60] = a0\n 33158: i32 a2 = a1 + 0xffffffffffffff80\n 33161: a0 = 0x1\n 33164: a1 = 0\n 33166: ra = 1338, jump @1509\n      : @1299 [@dyn 669] (gas: 7)\n 33172: u64 [s1 + 0x88] = a0\n 33176: u64 [s1 + 0x90] = a1\n 33180: a1 = u64 [s1 + 0x70]\n 33183: i32 a2 = 0x80 - a1\n 33187: a0 = 0x1\n 33190: a1 = 0\n 33192: ra = 1340, jump @1504\n      : @1300 [@dyn 670] (gas: 15)\n 33198: a2 = u64 [s1 + 0x70]\n 33201: a3 = a2 <u 0x80\n 33205: u64 [s1 + 0x80] = a3\n 33209: a4 = u64 [s1 + 0x88]\n 33213: a0 = a4 if a3 == 0\n 33216: a0 = 0 if a2 == 0\n 33218: u64 [s1 + 0x88] = a0\n 33222: a0 = u64 [s1 + 0x90]\n 33226: a1 = a0 if a3 == 0\n 33229: a1 = 0 if a2 == 0\n 33231: u64 [s1 + 0x90] = a1\n 33235: i32 a2 = a2 + 0\n 33237: a0 = 0x1\n 33240: a1 = 0\n 33242: ra = 1342, jump @1509\n      : @1301 [@dyn 671] (gas: 15)\n 33248: a2 = u64 [s1 + 0x80]\n 33252: a0 = 0 if a2 == 0\n 33254: u64 [s1 + 0x78] = a0\n 33257: a1 = 0 if a2 == 0\n 33259: u64 [s1 + 0x80] = a1\n 33263: u64 [s1 + 1912] = 0\n 33267: a0 = u64 [s1 + 0xa8]\n 33271: u64 [s1 + 0x760] = a0\n 33275: a0 = u64 [s1 + 0xa0]\n 33279: u64 [s1 + 0x768] = a0\n 33283: a1 = s1 + 0x760\n 33287: a0 = u64 [s1 + 0x98]\n 33291: u64 [s1 + 0x770] = a0\n 33295: a0 = 0\n 33297: ra = 1344, jump @9\n      : @1302 [@dyn 672] (gas: 7)\n 33304: u64 [s1 + 1880] = 0\n 33308: u64 [s1 + 1872] = 0\n 33312: u64 [s1 + 1856] = 0x5\n 33317: a0 = 0x20\n 33320: a1 = s1 + 0x740\n 33324: u64 [s1 + 1864] = 0\n 33328: ra = 1346, jump @9\n      : @1303 [@dyn 673] (gas: 3)\n 33335: a1 = u64 [s1 + 0xb0]\n 33339: a0 = i32 [a1]\n 33341: jump @1305 if a0 >u 63\n      : @1304 (gas: 2)\n 33345: u32 [a1 + 0] = 0x40\n 33348: fallthrough\n      : @1305 (gas: 17)\n 33349: a0 = u64 [s1 + 0x80]\n 33353: a1 = u64 [s1 + 0x60]\n 33356: a0 = 0 if a1 == 0\n 33358: u64 [s1 + 0x80] = a0\n 33362: a0 = u64 [s1 + 0x78]\n 33365: a0 = 0 if a1 == 0\n 33367: u64 [s1 + 0x78] = a0\n 33370: a0 = u64 [s1 + 0x90]\n 33374: a0 = 0 if a1 == 0\n 33376: u64 [s1 + 0x90] = a0\n 33380: a0 = u64 [s1 + 0x88]\n 33384: a0 = 0 if a1 == 0\n 33386: u64 [s1 + 0x88] = a0\n 33390: a0 = sp + 0xffffffffffffffe0\n 33393: a0 = a0 & 0xffffffffffffffe0\n 33396: u64 [s1 + 0x60] = a0\n 33399: t0 = 1348, jump @1466\n      : @1306 [@dyn 674] (gas: 4)\n 33405: ra = 0x546\n 33409: ecalli 9 // 'hash_keccak_256'\n 33411: t0 = 0x548\n 33415: jump @1452\n      : @1307 [@dyn 675] (gas: 1)\n 33418: t0 = 1352, jump @1452\n      : @1308 [@dyn 676] (gas: 10)\n 33424: a0 = u64 [s1 + 0x68]\n 33427: a0 = a0 & 0xffffffffffffffff\n 33430: u64 [s1 + 1848] = 0\n 33434: u64 [s1 + 1840] = 0\n 33438: u64 [s1 + 1832] = 0\n 33442: a1 = s1 + 0x720\n 33446: u64 [s1 + 0x68] = a0\n 33449: u64 [s1 + 0x720] = a0\n 33453: a0 = 0\n 33455: ra = 1354, jump @9\n      : @1309 [@dyn 677] (gas: 12)\n 33462: a0 = u64 [s1 + 0x40]\n 33465: a3 = s1 + 0x700\n 33469: u64 [a3 + 0x18] = a0\n 33472: a0 = u64 [s1 + 0x48]\n 33475: u64 [a3 + 0x10] = a0\n 33478: a0 = u64 [s1 + 0x50]\n 33481: u64 [a3 + 0x8] = a0\n 33484: a0 = 0x20\n 33487: a1 = s1 + 0x700\n 33491: a2 = u64 [s1 + 0x58]\n 33494: u64 [a3] = a2\n 33496: ra = 1356, jump @9\n      : @1310 [@dyn 678] (gas: 3)\n 33503: a1 = u64 [s1 + 0xb0]\n 33507: a0 = i32 [a1]\n 33509: jump @1312 if a0 >u 63\n      : @1311 (gas: 2)\n 33513: u32 [a1 + 0] = 0x40\n 33516: fallthrough\n      : @1312 (gas: 4)\n 33517: a0 = sp + 0xffffffffffffffe0\n 33520: a0 = a0 & 0xffffffffffffffe0\n 33523: u64 [s1 + 0x58] = a0\n 33526: t0 = 1358, jump @1466\n      : @1313 [@dyn 679] (gas: 4)\n 33532: ra = 0x550\n 33536: ecalli 9 // 'hash_keccak_256'\n 33538: t0 = 0x552\n 33542: jump @1457\n      : @1314 [@dyn 680] (gas: 1)\n 33545: t0 = 1362, jump @1457\n      : @1315 [@dyn 681] (gas: 2)\n 33551: a0 = s1 + 0x6e0\n 33555: ra = 1364, jump @11\n      : @1316 [@dyn 682] (gas: 6)\n 33562: a4 = s1 + 0x600\n 33566: a0 = u64 [a4 + 0xf0]\n 33570: a1 = u64 [a4 + 0xe0]\n 33574: a2 = u64 [a4 + 0xf8]\n 33578: a3 = u64 [a4 + 0xe8]\n 33582: t0 = 1366, jump @1471\n      : @1317 [@dyn 683] (gas: 1)\n 33588: jump @1432 if a0 == 0\n      : @1318 (gas: 10)\n 33592: u64 [s1 + 1752] = 0\n 33596: a0 = u64 [s1 + 0xa8]\n 33600: u64 [s1 + 0x6c0] = a0\n 33604: a0 = u64 [s1 + 0xa0]\n 33608: u64 [s1 + 0x6c8] = a0\n 33612: a1 = s1 + 0x6c0\n 33616: a0 = u64 [s1 + 0x98]\n 33620: u64 [s1 + 0x6d0] = a0\n 33624: a0 = 0\n 33626: ra = 1368, jump @9\n      : @1319 [@dyn 684] (gas: 7)\n 33633: u64 [s1 + 1720] = 0\n 33637: u64 [s1 + 1712] = 0\n 33641: u64 [s1 + 1696] = 0x7\n 33646: a0 = 0x20\n 33649: a1 = s1 + 0x6a0\n 33653: u64 [s1 + 1704] = 0\n 33657: ra = 1370, jump @9\n      : @1320 [@dyn 685] (gas: 3)\n 33664: a1 = u64 [s1 + 0xb0]\n 33668: a0 = i32 [a1]\n 33670: jump @1322 if a0 >u 63\n      : @1321 (gas: 2)\n 33674: u32 [a1 + 0] = 0x40\n 33677: fallthrough\n      : @1322 (gas: 4)\n 33678: a0 = sp + 0xffffffffffffffe0\n 33681: a0 = a0 & 0xffffffffffffffe0\n 33684: u64 [s1 + 0x60] = a0\n 33687: t0 = 1372, jump @1466\n      : @1323 [@dyn 686] (gas: 4)\n 33693: ra = 0x55e\n 33697: ecalli 9 // 'hash_keccak_256'\n 33699: t0 = 0x560\n 33703: jump @1452\n      : @1324 [@dyn 687] (gas: 1)\n 33706: t0 = 1376, jump @1452\n      : @1325 [@dyn 688] (gas: 8)\n 33712: u64 [s1 + 1688] = 0\n 33716: u64 [s1 + 1680] = 0\n 33720: u64 [s1 + 1672] = 0\n 33724: a1 = s1 + 0x680\n 33728: a0 = u64 [s1 + 0x68]\n 33731: u64 [s1 + 0x680] = a0\n 33735: a0 = 0\n 33737: ra = 1378, jump @9\n      : @1326 [@dyn 689] (gas: 12)\n 33744: a0 = u64 [s1 + 0x40]\n 33747: a3 = s1 + 0x600\n 33751: u64 [a3 + 0x78] = a0\n 33754: a0 = u64 [s1 + 0x48]\n 33757: u64 [a3 + 0x70] = a0\n 33760: a0 = u64 [s1 + 0x50]\n 33763: u64 [a3 + 0x68] = a0\n 33766: a0 = 0x20\n 33769: a1 = s1 + 0x660\n 33773: a2 = u64 [s1 + 0x58]\n 33776: u64 [a3 + 0x60] = a2\n 33779: ra = 1380, jump @9\n      : @1327 [@dyn 690] (gas: 3)\n 33786: a1 = u64 [s1 + 0xb0]\n 33790: a0 = i32 [a1]\n 33792: jump @1329 if a0 >u 63\n      : @1328 (gas: 2)\n 33796: u32 [a1 + 0] = 0x40\n 33799: fallthrough\n      : @1329 (gas: 4)\n 33800: a0 = sp + 0xffffffffffffffe0\n 33803: a0 = a0 & 0xffffffffffffffe0\n 33806: u64 [s1 + 0x58] = a0\n 33809: t0 = 1382, jump @1466\n      : @1330 [@dyn 691] (gas: 4)\n 33815: ra = 0x568\n 33819: ecalli 9 // 'hash_keccak_256'\n 33821: t0 = 0x56a\n 33825: jump @1457\n      : @1331 [@dyn 692] (gas: 1)\n 33828: t0 = 1386, jump @1457\n      : @1332 [@dyn 693] (gas: 2)\n 33834: a0 = s1 + 0x640\n 33838: ra = 1388, jump @11\n      : @1333 [@dyn 694] (gas: 6)\n 33845: a4 = s1 + 0x600\n 33849: a0 = u64 [a4 + 0x50]\n 33852: a1 = u64 [a4 + 0x40]\n 33855: a2 = u64 [a4 + 0x58]\n 33858: a3 = u64 [a4 + 0x48]\n 33861: t0 = 1390, jump @1471\n      : @1334 [@dyn 695] (gas: 1)\n 33867: jump @1433 if a0 != 0\n      : @1335 (gas: 11)\n 33871: u64 [s1 + 1560] = 0\n 33875: a0 = u64 [s1 + 0xa8]\n 33879: a2 = s1 + 0x600\n 33883: u64 [a2] = a0\n 33885: a0 = u64 [s1 + 0xa0]\n 33889: u64 [a2 + 0x8] = a0\n 33892: a1 = s1 + 0x600\n 33896: a0 = u64 [s1 + 0x98]\n 33900: u64 [a2 + 0x10] = a0\n 33903: a0 = 0\n 33905: ra = 1392, jump @9\n      : @1336 [@dyn 696] (gas: 7)\n 33912: u64 [s1 + 1528] = 0\n 33916: u64 [s1 + 1520] = 0\n 33920: u64 [s1 + 1504] = 0x7\n 33925: a0 = 0x20\n 33928: a1 = s1 + 0x5e0\n 33932: u64 [s1 + 1512] = 0\n 33936: ra = 1394, jump @9\n      : @1337 [@dyn 697] (gas: 3)\n 33943: a1 = u64 [s1 + 0xb0]\n 33947: a0 = i32 [a1]\n 33949: jump @1339 if a0 >u 63\n      : @1338 (gas: 2)\n 33953: u32 [a1 + 0] = 0x40\n 33956: fallthrough\n      : @1339 (gas: 4)\n 33957: a0 = sp + 0xffffffffffffffe0\n 33960: a0 = a0 & 0xffffffffffffffe0\n 33963: u64 [s1 + 0x60] = a0\n 33966: t0 = 1396, jump @1466\n      : @1340 [@dyn 698] (gas: 4)\n 33972: ra = 0x576\n 33976: ecalli 9 // 'hash_keccak_256'\n 33978: t0 = 0x578\n 33982: jump @1452\n      : @1341 [@dyn 699] (gas: 1)\n 33985: t0 = 1400, jump @1452\n      : @1342 [@dyn 700] (gas: 8)\n 33991: u64 [s1 + 1496] = 0\n 33995: u64 [s1 + 1488] = 0\n 33999: u64 [s1 + 1480] = 0\n 34003: a1 = s1 + 0x5c0\n 34007: a0 = u64 [s1 + 0x68]\n 34010: u64 [s1 + 0x5c0] = a0\n 34014: a0 = 0\n 34016: ra = 1402, jump @9\n      : @1343 [@dyn 701] (gas: 12)\n 34023: a0 = u64 [s1 + 0x40]\n 34026: a3 = s1 + 0x500\n 34030: u64 [a3 + 0xb8] = a0\n 34034: a0 = u64 [s1 + 0x48]\n 34037: u64 [a3 + 0xb0] = a0\n 34041: a0 = u64 [s1 + 0x50]\n 34044: u64 [a3 + 0xa8] = a0\n 34048: a0 = 0x20\n 34051: a1 = s1 + 0x5a0\n 34055: a2 = u64 [s1 + 0x58]\n 34058: u64 [a3 + 0xa0] = a2\n 34062: ra = 1404, jump @9\n      : @1344 [@dyn 702] (gas: 3)\n 34069: a1 = u64 [s1 + 0xb0]\n 34073: a0 = i32 [a1]\n 34075: jump @1346 if a0 >u 63\n      : @1345 (gas: 2)\n 34079: u32 [a1 + 0] = 0x40\n 34082: fallthrough\n      : @1346 (gas: 4)\n 34083: a0 = sp + 0xffffffffffffffe0\n 34086: a0 = a0 & 0xffffffffffffffe0\n 34089: u64 [s1 + 0x58] = a0\n 34092: t0 = 1406, jump @1466\n      : @1347 [@dyn 703] (gas: 4)\n 34098: ra = 0x580\n 34102: ecalli 9 // 'hash_keccak_256'\n 34104: t0 = 0x582\n 34108: jump @1457\n      : @1348 [@dyn 704] (gas: 1)\n 34111: t0 = 1410, jump @1457\n      : @1349 [@dyn 705] (gas: 2)\n 34117: a0 = s1 + 0x580\n 34121: ra = 1412, jump @11\n      : @1350 [@dyn 706] (gas: 22)\n 34128: a0 = u64 [s1 + 0x580]\n 34132: a1 = u64 [s1 + 0x588]\n 34136: a2 = u64 [s1 + 0x590]\n 34140: a3 = u64 [s1 + 0x598]\n 34144: a4 = u64 [s1 + 0x78]\n 34147: a0 = a0 | a4\n 34150: a4 = u64 [s1 + 0x80]\n 34154: a1 = a1 | a4\n 34157: a4 = u64 [s1 + 0x88]\n 34161: a2 = a2 | a4\n 34164: a4 = u64 [s1 + 0x90]\n 34168: a3 = a3 | a4\n 34171: a4 = s1 + 0x7ff\n 34175: a4 = a4 + 0x31\n 34178: u64 [a4 + 0x28] = a3\n 34181: u64 [a4 + 0x20] = a2\n 34184: u64 [a4 + 0x18] = a1\n 34187: u64 [a4 + 0x10] = a0\n 34190: a1 = s1 + 0x7ff\n 34194: a1 = a1 + 0x41\n 34197: a0 = u64 [s1 + 0x60]\n 34200: ra = 1414, jump @12\n      : @1351 [@dyn 707] (gas: 10)\n 34207: u64 [s1 + 1400] = 0\n 34211: a0 = u64 [s1 + 0x98]\n 34215: u64 [s1 + 0x570] = a0\n 34219: a0 = u64 [s1 + 0xa0]\n 34223: u64 [s1 + 0x568] = a0\n 34227: a1 = s1 + 0x560\n 34231: a0 = u64 [s1 + 0xa8]\n 34235: u64 [s1 + 0x560] = a0\n 34239: a0 = 0\n 34241: ra = 1416, jump @9\n      : @1352 [@dyn 708] (gas: 7)\n 34248: u64 [s1 + 1368] = 0\n 34252: u64 [s1 + 1360] = 0\n 34256: u64 [s1 + 1344] = 0x2\n 34261: a0 = 0x20\n 34264: a1 = s1 + 0x540\n 34268: u64 [s1 + 1352] = 0\n 34272: ra = 1418, jump @9\n      : @1353 [@dyn 709] (gas: 3)\n 34279: a1 = u64 [s1 + 0xb0]\n 34283: a0 = i32 [a1]\n 34285: jump @1355 if a0 >=u 64\n      : @1354 (gas: 2)\n 34289: u32 [a1 + 0] = 0x40\n 34292: fallthrough\n      : @1355 (gas: 4)\n 34293: a0 = sp + 0xffffffffffffffe0\n 34296: a0 = a0 & 0xffffffffffffffe0\n 34299: u64 [s1 + 0x60] = a0\n 34302: t0 = 1420, jump @1466\n      : @1356 [@dyn 710] (gas: 32)\n 34308: ecalli 9 // 'hash_keccak_256'\n 34310: a3 = u64 [s1 + 0x60]\n 34313: a0 = u64 [a3]\n 34315: a1 = u64 [a3 + 0x8]\n 34318: a2 = u64 [a3 + 0x10]\n 34321: a3 = u64 [a3 + 0x18]\n 34324: t0 = reverse a0\n 34326: a5 = reverse a1\n 34328: a2 = reverse a2\n 34330: a3 = reverse a3\n 34332: a0 = sp + 0xffffffffffffffe0\n 34335: a1 = a0 & 0xffffffffffffffe0\n 34338: sp = a1\n 34340: u64 [s1 + 0x10] = a3\n 34343: a0 = a3 + 0x1\n 34346: a3 = a0 <u 0x1\n 34349: u64 [s1 + 0x18] = a2\n 34352: a4 = a2 + a3\n 34355: a2 = a0 | a4\n 34358: a2 = a2 <u 0x1\n 34361: a2 = a2 + a5\n 34364: u64 [s1 + 0x20] = a5\n 34367: a3 = a2 <u a5\n 34370: u64 [s1 + 0x28] = t0\n 34373: a3 = a3 + t0\n 34376: u64 [a1 + 0x8] = a4\n 34379: u64 [a1] = a0\n 34381: u64 [a1 + 0x10] = a2\n 34384: u64 [a1 + 0x18] = a3\n 34387: a0 = s1 + 0x520\n 34391: u64 [s1 + 0x58] = a1\n 34394: ra = 1422, jump @11\n      : @1357 [@dyn 711] (gas: 12)\n 34401: t0 = u64 [s1 + 0x538]\n 34405: a4 = s1 + 0x500\n 34409: a1 = u64 [a4 + 0x30]\n 34412: a2 = u64 [a4 + 0x20]\n 34415: a0 = u64 [0x200f8]\n 34420: a3 = u64 [a4 + 0x28]\n 34423: a4 = a1 | t0\n 34426: u64 [s1 + 0x60] = a0\n 34429: a5 = a2 <u a0\n 34432: a5 = 0 if a3 != 0\n 34434: a5 = 0 if a4 != 0\n 34436: jump @1434 if a5 != 0\n      : @1358 (gas: 24)\n 34440: a4 = u64 [0x20100]\n 34445: a4 = a4 + a2\n 34448: a2 = a4 <u a2\n 34451: a5 = a3 + a2\n 34454: a5 = a5 + 0xffffffffffffffff\n 34457: a0 = a5 ^ a3\n 34460: a3 = a5 <u a3\n 34463: a3 = a2 if a0 == 0\n 34466: a0 = a1 + 0xffffffffffffffff\n 34469: a3 = a3 + a0\n 34472: a0 = a3 <u a0\n 34475: a1 = a1 <u 0x1\n 34478: a1 = t0 - a1\n 34481: a0 = a0 + a1\n 34484: a1 = s1 + 0x7ff\n 34488: a1 = a1 + 0x31\n 34491: u64 [a1 + 0x30] = a4\n 34494: u64 [a1 + 0x38] = a5\n 34497: u64 [a1 + 0x40] = a3\n 34500: u64 [a1 + 0x48] = a0\n 34503: a1 = s1 + 0x7ff\n 34507: a1 = a1 + 0x61\n 34510: a0 = u64 [s1 + 0x58]\n 34513: ra = 1424, jump @12\n      : @1359 [@dyn 712] (gas: 11)\n 34520: u64 [s1 + 1304] = 0\n 34524: a0 = u64 [s1 + 0x98]\n 34528: a2 = s1 + 0x500\n 34532: u64 [a2 + 0x10] = a0\n 34535: a0 = u64 [s1 + 0xa0]\n 34539: u64 [a2 + 0x8] = a0\n 34542: a1 = s1 + 0x500\n 34546: a0 = u64 [s1 + 0xa8]\n 34550: u64 [a2] = a0\n 34552: a0 = 0\n 34554: ra = 1426, jump @9\n      : @1360 [@dyn 713] (gas: 7)\n 34561: u64 [s1 + 1272] = 0\n 34565: u64 [s1 + 1264] = 0\n 34569: u64 [s1 + 1248] = 0x6\n 34574: a0 = 0x20\n 34577: a1 = s1 + 0x4e0\n 34581: u64 [s1 + 1256] = 0\n 34585: ra = 1428, jump @9\n      : @1361 [@dyn 714] (gas: 3)\n 34592: a1 = u64 [s1 + 0xb0]\n 34596: a0 = i32 [a1]\n 34598: jump @1363 if a0 >u 63\n      : @1362 (gas: 2)\n 34602: u32 [a1 + 0] = 0x40\n 34605: fallthrough\n      : @1363 (gas: 4)\n 34606: a0 = sp + 0xffffffffffffffe0\n 34609: a0 = a0 & 0xffffffffffffffe0\n 34612: u64 [s1 + 0x58] = a0\n 34615: t0 = 1430, jump @1466\n      : @1364 [@dyn 715] (gas: 5)\n 34621: ra = 0x598\n 34625: ecalli 9 // 'hash_keccak_256'\n 34627: a3 = u64 [s1 + 0x58]\n 34630: t0 = 0x59a\n 34634: jump @1489\n      : @1365 [@dyn 716] (gas: 2)\n 34637: a3 = u64 [s1 + 0x58]\n 34640: t0 = 1434, jump @1489\n      : @1366 [@dyn 717] (gas: 19)\n 34646: u64 [s1 + 0x50] = a0\n 34649: a0 = reverse a1\n 34651: u64 [s1 + 0x48] = a0\n 34654: a0 = reverse a2\n 34656: u64 [s1 + 0x40] = a0\n 34659: a0 = reverse a3\n 34661: u64 [s1 + 0x38] = a0\n 34664: a0 = sp + 0xffffffffffffffe0\n 34667: a0 = a0 & 0xffffffffffffffe0\n 34670: u64 [s1 + 0x58] = a0\n 34673: sp = a0\n 34675: u64 [s1 + 1240] = 0\n 34679: u64 [s1 + 1232] = 0\n 34683: u64 [s1 + 1224] = 0\n 34687: a1 = s1 + 0x4c0\n 34691: a0 = u64 [s1 + 0x68]\n 34694: u64 [s1 + 0x4c0] = a0\n 34698: a0 = 0\n 34700: ra = 1436, jump @9\n      : @1367 [@dyn 718] (gas: 12)\n 34707: a0 = u64 [s1 + 0x38]\n 34710: a3 = s1 + 0x400\n 34714: u64 [a3 + 0xb8] = a0\n 34718: a0 = u64 [s1 + 0x40]\n 34721: u64 [a3 + 0xb0] = a0\n 34725: a0 = u64 [s1 + 0x48]\n 34728: u64 [a3 + 0xa8] = a0\n 34732: a0 = 0x20\n 34735: a1 = s1 + 0x4a0\n 34739: a2 = u64 [s1 + 0x50]\n 34742: u64 [a3 + 0xa0] = a2\n 34746: ra = 1438, jump @9\n      : @1368 [@dyn 719] (gas: 3)\n 34753: a1 = u64 [s1 + 0xb0]\n 34757: a0 = i32 [a1]\n 34759: jump @1370 if a0 >u 63\n      : @1369 (gas: 2)\n 34763: u32 [a1 + 0] = 0x40\n 34766: fallthrough\n      : @1370 (gas: 4)\n 34767: a0 = sp + 0xffffffffffffffe0\n 34770: a0 = a0 & 0xffffffffffffffe0\n 34773: u64 [s1 + 0x50] = a0\n 34776: t0 = 1440, jump @1466\n      : @1371 [@dyn 720] (gas: 5)\n 34782: ra = 0x5a2\n 34786: ecalli 9 // 'hash_keccak_256'\n 34788: a3 = u64 [s1 + 0x50]\n 34791: t0 = 0x5a4\n 34795: jump @1469\n      : @1372 [@dyn 721] (gas: 2)\n 34798: a3 = u64 [s1 + 0x50]\n 34801: t0 = 1444, jump @1469\n      : @1373 [@dyn 722] (gas: 7)\n 34807: a1 = u64 [s1 + 0x58]\n 34810: u64 [a1 + 0x18] = a3\n 34813: u64 [a1 + 0x10] = a2\n 34816: u64 [a1 + 0x8] = a4\n 34819: u64 [a1] = a0\n 34821: a0 = s1 + 0x480\n 34825: ra = 1446, jump @11\n      : @1374 [@dyn 723] (gas: 6)\n 34832: a4 = s1 + 0x400\n 34836: a0 = u64 [a4 + 0x90]\n 34840: a1 = u64 [a4 + 0x80]\n 34844: a2 = u64 [a4 + 0x98]\n 34848: a3 = u64 [a4 + 0x88]\n 34852: t0 = 1448, jump @1471\n      : @1375 [@dyn 724] (gas: 1)\n 34858: jump @1394 if a0 == 0\n      : @1376 (gas: 12)\n 34862: a0 = 0xffffffff\n 34872: u64 [s1 + 0xb0] = a0\n 34876: a0 = s1 + 0x7ff\n 34880: a0 = a0 + 0x31\n 34883: u64 [a0 + 232] = 0\n 34887: u64 [a0 + 224] = 0\n 34891: u64 [a0 + 216] = 0\n 34895: u64 [a0 + 208] = 0\n 34899: a0 = s1 + 0x460\n 34903: a1 = s1 + 0x7ff\n 34907: a1 = a1 + 0x101\n 34911: ra = 1450, jump @11\n      : @1377 [@dyn 725] (gas: 11)\n 34918: a3 = s1 + 0x400\n 34922: a0 = u64 [a3 + 0x68]\n 34925: a1 = u64 [a3 + 0x70]\n 34928: a2 = u64 [a3 + 0x60]\n 34931: a0 = a0 & 0xffffffffffffffff\n 34934: a4 = u64 [s1 + 0xb0]\n 34938: a1 = a1 & a4\n 34941: a2 = a2 & 0xffffffffffffffff\n 34944: a1 = a1 | a2\n 34947: a0 = a0 | a1\n 34950: jump @1413 if a0 == 0\n      : @1378 (gas: 10)\n 34954: a0 = s1 + 0x7ff\n 34958: a0 = a0 + 0x31\n 34961: u64 [a0 + 296] = 0\n 34965: u64 [a0 + 288] = 0\n 34969: u64 [a0 + 280] = 0\n 34973: u64 [a0 + 272] = 0\n 34977: a0 = s1 + 0x440\n 34981: a1 = s1 + 0x7ff\n 34985: a1 = a1 + 0x141\n 34989: ra = 1452, jump @11\n      : @1379 [@dyn 726] (gas: 25)\n 34996: a3 = s1 + 0x400\n 35000: a0 = u64 [a3 + 0x48]\n 35003: a1 = u64 [a3 + 0x50]\n 35006: a2 = u64 [a3 + 0x40]\n 35009: a0 = reverse a0\n 35011: a3 = a0 << 0x20\n 35014: a1 = reverse a1\n 35016: a1 = a1 >> 0x20\n 35019: a4 = a1 | a3\n 35022: a0 = a0 >> 0x20\n 35025: a1 = reverse a2\n 35027: a3 = 0x30160\n 35032: a2 = a1 << 0x20\n 35035: a0 = a0 | a2\n 35038: a1 = a1 >> 0x20\n 35041: u64 [s1 + 0x58] = a1\n 35044: u32 [0x30170] = a1\n 35049: u64 [s1 + 0x50] = a0\n 35052: u64 [0x30168] = a0\n 35057: u64 [s1 + 0x78] = a4\n 35060: u64 [0x30160] = a4\n 35065: u64 [s1 + 0x80] = a3\n 35069: i32 a0 = a3 + 0\n 35071: ecalli 5 // 'code_size'\n 35073: fallthrough\n      : @1380 (gas: 1)\n 35074: jump @1435 if a0 == 0\n      : @1381 (gas: 3)\n 35078: a0 = s1 + 0x420\n 35082: a1 = 0x40\n 35085: ra = 1454, jump @7\n      : @1382 [@dyn 727] (gas: 17)\n 35092: a4 = s1 + 0x400\n 35096: a2 = u64 [a4 + 0x38]\n 35099: a3 = u64 [a4 + 0x30]\n 35102: a0 = u64 [a4 + 0x28]\n 35105: a1 = u64 [a4 + 0x20]\n 35108: u64 [s1 + 0xb0] = a0\n 35112: u64 [s1 + 0x90] = a2\n 35116: a0 = a0 | a2\n 35119: u64 [s1 + 0xb8] = a1\n 35123: a1 = a1 | a3\n 35126: a1 = a1 | a0\n 35129: a1 = a1 >> 0x20\n 35132: u64 [s1 + 0x88] = a3\n 35136: a0 = a0 | a3\n 35139: a0 = a0 << 0x20\n 35142: a0 = a0 | a1\n 35145: jump @1430 if a0 != 0\n      : @1383 (gas: 8)\n 35149: u64 [s1 + 1040] = 0\n 35153: u64 [s1 + 1032] = 0\n 35157: u64 [s1 + 1024] = 0\n 35161: a0 = 0xadc9772e00000000\n 35171: a1 = s1 + 0x400\n 35175: u64 [s1 + 0x418] = a0\n 35179: a0 = u64 [s1 + 0xb8]\n 35183: ra = 1456, jump @9\n      : @1384 [@dyn 728] (gas: 13)\n 35190: a0 = u64 [s1 + 0x90]\n 35194: a2 = u64 [s1 + 0x88]\n 35198: a2 = a2 | a0\n 35201: a0 = 0x100000000\n 35211: u64 [s1 + 0x40] = a0\n 35214: a0 = 0xfffffffc\n 35224: a1 = u64 [s1 + 0xb8]\n 35228: a0 = a1 <u a0\n 35231: a1 = u64 [s1 + 0xb0]\n 35235: a0 = 0 if a1 != 0\n 35237: u64 [s1 + 0x48] = a2\n 35240: a0 = 0 if a2 != 0\n 35242: jump @1430 if a0 == 0\n      : @1385 (gas: 12)\n 35246: a0 = u64 [s1 + 0xb8]\n 35250: i32 a0 = a0 + 0x4\n 35253: u64 [s1 + 1016] = 0\n 35257: a1 = u64 [s1 + 0xa8]\n 35261: a3 = s1 + 0x300\n 35265: u64 [a3 + 0xe0] = a1\n 35269: a1 = u64 [s1 + 0xa0]\n 35273: u64 [a3 + 0xe8] = a1\n 35277: a1 = s1 + 0x3e0\n 35281: a2 = u64 [s1 + 0x98]\n 35285: u64 [a3 + 0xf0] = a2\n 35289: ra = 1458, jump @9\n      : @1386 [@dyn 729] (gas: 9)\n 35296: a0 = u64 [s1 + 0x40]\n 35299: a0 = a0 + 0xffffffffffffffdc\n 35302: a1 = u64 [s1 + 0xb8]\n 35306: a0 = a1 <u a0\n 35309: a1 = u64 [s1 + 0xb0]\n 35313: a0 = 0 if a1 != 0\n 35315: a1 = u64 [s1 + 0x48]\n 35318: a0 = 0 if a1 != 0\n 35320: jump @1430 if a0 == 0\n      : @1387 (gas: 9)\n 35324: a0 = u64 [s1 + 0xb8]\n 35328: i32 a0 = a0 + 0x24\n 35331: u64 [s1 + 984] = 0\n 35335: u64 [s1 + 976] = 0\n 35339: u64 [s1 + 968] = 0\n 35343: a1 = s1 + 0x3c0\n 35347: a2 = u64 [s1 + 0x60]\n 35350: u64 [s1 + 0x3c0] = a2\n 35354: ra = 1460, jump @9\n      : @1388 [@dyn 730] (gas: 18)\n 35361: ecalli 11 // 'ref_time_left'\n 35363: a1 = u64 [s1 + 0x80]\n 35367: a0 = u64 [s1 + 0x50]\n 35370: u64 [a1 + 0x8] = a0\n 35373: a0 = u64 [s1 + 0x78]\n 35376: u64 [a1] = a0\n 35378: a0 = u64 [s1 + 0x58]\n 35381: u32 [a1 + 0x10] = a0\n 35384: a0 = s1 + 0x7ff\n 35388: a0 = a0 + 0x31\n 35391: u64 [a0 + 328] = 0\n 35395: u64 [a0 + 320] = 0\n 35399: u64 [a0 + 312] = 0\n 35403: a1 = u64 [s1 + 0x60]\n 35406: u64 [a0 + 0x130] = a1\n 35410: a1 = 0x44\n 35413: a0 = u64 [s1 + 0xb8]\n 35417: ra = 1462, jump @20\n      : @1389 [@dyn 731] (gas: 4)\n 35424: u64 [s1 + 0x78] = a0\n 35427: a0 = u64 [s1 + 0xb8]\n 35431: a1 = 0\n 35433: ra = 1464, jump @20\n      : @1390 [@dyn 732] (gas: 37)\n 35440: a2 = s1 + 0x7ff\n 35444: a2 = a2 + 0x31\n 35447: u32 [a2 + 336] = 0\n 35451: a3 = a2 + 0x100\n 35455: u64 [a3 + 136] = 0xffffffffffffffff\n 35460: u64 [a3 + 128] = 0xffffffffffffffff\n 35465: u64 [a3 + 120] = 0xffffffffffffffff\n 35469: u64 [a3 + 112] = 0xffffffffffffffff\n 35473: a1 = u64 [s1 + 0x80]\n 35477: a1 = a1 << 0x20\n 35480: a1 = a1 >> 0x20\n 35483: a2 = 0x800000000\n 35493: t0 = a1 | a2\n 35496: a1 = s1 + 0x7ff\n 35500: a1 = a1 + 0x161\n 35504: a1 = a1 << 0x20\n 35507: a1 = a1 >> 0x20\n 35510: a2 = s1 + 0x7ff\n 35514: a2 = a2 + 0x1a1\n 35518: a2 = a2 << 0x20\n 35521: a3 = a2 | a1\n 35524: a1 = u64 [s1 + 0x78]\n 35527: a1 = a1 << 0x20\n 35530: a1 = a1 >> 0x20\n 35533: a2 = 0x4400000000\n 35543: a4 = a1 | a2\n 35546: a0 = a0 << 0x20\n 35549: a0 = a0 >> 0x20\n 35552: a1 = s1 + 0x7ff\n 35556: a1 = a1 + 0x181\n 35560: a1 = a1 << 0x20\n 35563: a5 = a1 | a0\n 35566: a1 = 0xffffffffffffffff\n 35569: a2 = 0xffffffffffffffff\n 35572: a0 = t0\n 35574: ecalli 0 // 'call'\n 35575: fallthrough\n      : @1391 (gas: 1)\n 35576: jump @1421 if a0 != 0\n      : @1392 (gas: 16)\n 35580: u64 [s1 + 888] = 0\n 35584: u64 [s1 + 880] = 0\n 35588: u64 [s1 + 872] = 0\n 35592: u64 [s1 + 864] = 0\n 35596: a0 = u64 [s1 + 0xb8]\n 35600: a3 = s1 + 0x300\n 35604: u64 [a3 + 0x80] = a0\n 35608: a0 = u64 [s1 + 0xb0]\n 35612: u64 [a3 + 0x88] = a0\n 35616: a0 = u64 [s1 + 0x88]\n 35620: u64 [a3 + 0x90] = a0\n 35624: a0 = s1 + 0x380\n 35628: a1 = s1 + 0x360\n 35632: a2 = u64 [s1 + 0x90]\n 35636: u64 [a3 + 0x98] = a2\n 35640: ra = 1466, jump @1246\n      : @1393 [@dyn 733] (gas: 1)\n 35646: jump @1415\n      : @1394 (gas: 1)\n 35649: ra = 1468, jump @0\n      : @1395 [@dyn 734] (gas: 63)\n 35656: a1 = u64 [0x30180]\n 35661: u64 [s1 + 0x90] = a1\n 35665: a1 = u64 [0x30190]\n 35670: u64 [s1 + 0x88] = a1\n 35674: a0 = u64 [0x30188]\n 35679: u64 [s1 + 0x80] = a0\n 35683: ecalli 11 // 'ref_time_left'\n 35685: a1 = u64 [s1 + 0x80]\n 35689: a1 = reverse a1\n 35691: a2 = a1 << 0x20\n 35694: a3 = u64 [s1 + 0x88]\n 35698: a3 = reverse a3\n 35700: a3 = a3 >> 0x20\n 35703: a2 = a2 | a3\n 35706: a3 = a1 >> 0x20\n 35709: a1 = u64 [s1 + 0x90]\n 35713: a4 = reverse a1\n 35715: a1 = 0x30160\n 35720: a5 = a4 << 0x20\n 35723: a3 = a3 | a5\n 35726: a4 = a4 >> 0x20\n 35729: u32 [0x30170] = a4\n 35734: u64 [0x30168] = a3\n 35739: u64 [0x30160] = a2\n 35744: a3 = s1 + 0x7ff\n 35748: a3 = a3 + 0x31\n 35751: u64 [a3 + 104] = 0\n 35754: u64 [a3 + 96] = 0\n 35757: u64 [a3 + 88] = 0\n 35760: a2 = u64 [s1 + 0x60]\n 35763: u64 [a3 + 0x50] = a2\n 35766: u32 [a3 + 112] = 0\n 35769: a0 = a0 >u 0x8fc\n 35773: a2 = -a0\n 35775: u64 [a3 + 0xa8] = a2\n 35779: u64 [a3 + 0xa0] = a2\n 35783: u64 [a3 + 0x98] = a2\n 35787: u64 [a3 + 0x90] = a2\n 35791: a1 = a1 << 0x20\n 35794: a1 = a1 >> 0x20\n 35797: a0 = a0 << 0x23\n 35800: a0 = a0 | a1\n 35803: a1 = s1 + 0x7ff\n 35807: a1 = a1 + 0x81\n 35811: a1 = a1 << 0x20\n 35814: a1 = a1 >> 0x20\n 35817: a2 = s1 + 0x7ff\n 35821: a2 = a2 + 0xc1\n 35825: a2 = a2 << 0x20\n 35828: a3 = a2 | a1\n 35831: a4 = u64 [s1 + 0x30]\n 35834: a4 = a4 << 0x20\n 35837: a4 = a4 >> 0x20\n 35840: a1 = s1 + 0x7ff\n 35844: a1 = a1 + 0xa1\n 35848: a1 = a1 << 0x20\n 35851: a5 = a1 | a4\n 35854: a1 = 0xffffffffffffffff\n 35857: a2 = 0xffffffffffffffff\n 35860: ecalli 0 // 'call'\n 35861: u64 [s1 + 0x90] = a0\n 35865: ecalli 13 // 'return_data_size'\n 35867: fallthrough\n      : @1396 (gas: 1)\n 35868: jump @1407 if a0 == 0\n      : @1397 (gas: 5)\n 35872: ecalli 13 // 'return_data_size'\n 35874: u64 [s1 + 0x58] = a0\n 35877: a0 = s1 + 0x260\n 35881: a1 = 0x40\n 35884: ra = 1470, jump @7\n      : @1398 [@dyn 735] (gas: 29)\n 35891: a5 = u64 [s1 + 0x278]\n 35895: u64 [s1 + 0x78] = a5\n 35898: t0 = u64 [s1 + 0x270]\n 35902: u64 [s1 + 0x50] = t0\n 35905: t1 = u64 [s1 + 0x268]\n 35909: u64 [s1 + 0x80] = t1\n 35913: t2 = u64 [s1 + 0x260]\n 35917: u64 [s1 + 0x88] = t2\n 35921: a1 = u64 [s1 + 0x58]\n 35924: a0 = a1 + 0x1f\n 35927: a1 = a0 <u a1\n 35930: a0 = a0 & 0xffffffffffffffe0\n 35933: a2 = a0 + 0x20\n 35936: a0 = a2 <u a0\n 35939: a3 = a1 + a0\n 35942: a4 = a3 <u a1\n 35945: a4 = a0 if a0 == 0\n 35948: u64 [s1 + 568] = 0\n 35952: u64 [s1 + 0x220] = a2\n 35956: a2 = s1 + 0x200\n 35960: u64 [a2 + 0x58] = a5\n 35963: u64 [s1 + 0x250] = t0\n 35967: u64 [s1 + 0x248] = t1\n 35971: u64 [s1 + 0x240] = t2\n 35975: u64 [a2 + 0x28] = a3\n 35978: a0 = s1 + 0x240\n 35982: a1 = s1 + 0x220\n 35986: u64 [a2 + 0x30] = a4\n 35989: ra = 1472, jump @1246\n      : @1399 [@dyn 736] (gas: 12)\n 35995: a0 = u64 [s1 + 0x88]\n 35999: a1 = u64 [s1 + 0x78]\n 36002: a2 = u64 [s1 + 0x80]\n 36006: a2 = a2 | a1\n 36009: a3 = u64 [s1 + 0x50]\n 36012: a1 = a0 | a3\n 36015: a1 = a1 | a2\n 36018: a1 = a1 >> 0x20\n 36021: a2 = a2 | a3\n 36024: a2 = a2 << 0x20\n 36027: a1 = a1 | a2\n 36030: jump @1430 if a1 != 0\n      : @1400 (gas: 7)\n 36034: u64 [s1 + 536] = 0\n 36038: u64 [s1 + 528] = 0\n 36042: u64 [s1 + 520] = 0\n 36046: a1 = s1 + 0x200\n 36050: a2 = u64 [s1 + 0x58]\n 36053: u64 [s1 + 0x200] = a2\n 36057: ra = 1474, jump @9\n      : @1401 [@dyn 737] (gas: 2)\n 36064: ecalli 13 // 'return_data_size'\n 36066: fallthrough\n      : @1402 (gas: 10)\n 36067: a3 = u64 [s1 + 0x88]\n 36071: a1 = u64 [s1 + 0x78]\n 36074: a2 = u64 [s1 + 0x50]\n 36077: a1 = a1 | a2\n 36080: a2 = 0xffffffe0\n 36090: a2 = a3 <u a2\n 36093: a4 = u64 [s1 + 0x80]\n 36097: a2 = 0 if a4 != 0\n 36099: a2 = 0 if a1 != 0\n 36101: jump @1430 if a2 == 0\n      : @1403 (gas: 3)\n 36105: a1 = a0\n 36107: a0 = a0 >> 0x20\n 36110: jump @1430 if a0 != 0\n      : @1404 (gas: 7)\n 36114: i32 a0 = a3 + 0x20\n 36117: a2 = a1\n 36119: u64 [s1 + 0x80] = a1\n 36123: i32 a1 = a1 + 0\n 36125: u64 [s1 + 0x88] = a1\n 36129: a1 = a2\n 36131: ra = 1476, jump @20\n      : @1405 [@dyn 738] (gas: 10)\n 36138: a1 = s1 + 0x7ff\n 36142: a1 = a1 + 0x31\n 36145: a2 = u64 [s1 + 0x80]\n 36149: u32 [a1 + 0xb0] = a2\n 36153: i32 a0 = a0 + 0\n 36155: a1 = s1 + 0x1000\n 36159: i32 a1 = a1 + 0xfffffffffffff8e0\n 36163: a2 = 0\n 36165: ecalli 12 // 'return_data_copy'\n 36167: fallthrough\n      : @1406 (gas: 5)\n 36168: a0 = s1 + 0x7ff\n 36172: a0 = a0 + 0x31\n 36175: a0 = i32 [a0 + 0xb0]\n 36179: a1 = u64 [s1 + 0x88]\n 36183: jump @1430 if a0 <u a1\n      : @1407 (gas: 2)\n 36187: a0 = u64 [s1 + 0x90]\n 36191: jump @1436 if a0 != 0\n      : @1408 (gas: 3)\n 36195: a0 = s1 + 0x1c0\n 36199: a1 = 0x40\n 36202: ra = 1478, jump @7\n      : @1409 [@dyn 739] (gas: 6)\n 36209: a4 = s1 + 0x100\n 36213: a0 = u64 [a4 + 0xd8]\n 36217: a1 = u64 [a4 + 0xd0]\n 36221: a2 = u64 [a4 + 0xc8]\n 36225: a3 = u64 [a4 + 0xc0]\n 36229: t0 = 1480, jump @1459\n      : @1410 [@dyn 740] (gas: 1)\n 36235: jump @1430 if a0 != 0\n      : @1411 (gas: 9)\n 36239: u64 [s1 + 440] = 0\n 36243: u64 [s1 + 432] = 0\n 36247: u64 [s1 + 424] = 0\n 36251: a1 = s1 + 0x1a0\n 36255: a0 = u64 [s1 + 0x60]\n 36258: u64 [s1 + 0x1a0] = a0\n 36262: a0 = a3\n 36264: u64 [s1 + 0xb8] = a3\n 36268: ra = 1482, jump @9\n      : @1412 [@dyn 741] (gas: 33)\n 36275: u64 [s1 + 312] = 0\n 36279: u64 [s1 + 304] = 0\n 36283: u64 [s1 + 296] = 0\n 36287: a0 = u64 [s1 + 0x68]\n 36290: u64 [s1 + 0x120] = a0\n 36294: u64 [s1 + 344] = 0\n 36298: u64 [s1 + 336] = 0\n 36302: u64 [s1 + 328] = 0\n 36306: a0 = u64 [s1 + 0x70]\n 36309: u64 [s1 + 0x140] = a0\n 36313: u64 [s1 + 376] = 0\n 36317: a0 = u64 [s1 + 0x98]\n 36321: u64 [s1 + 0x170] = a0\n 36325: a0 = u64 [s1 + 0xa0]\n 36329: u64 [s1 + 0x168] = a0\n 36333: a0 = u64 [0x20128]\n 36338: a1 = u64 [0x20130]\n 36343: a2 = u64 [0x20138]\n 36348: a3 = u64 [s1 + 0xa8]\n 36352: u64 [s1 + 0x160] = a3\n 36356: u64 [s1 + 0x198] = a0\n 36360: u64 [s1 + 0x190] = a1\n 36364: u64 [s1 + 0x188] = a2\n 36368: a0 = u64 [0x20140]\n 36373: a1 = 0x20\n 36376: a2 = s1 + 0x180\n 36380: a3 = s1 + 0x160\n 36384: a4 = s1 + 0x140\n 36388: a5 = s1 + 0x120\n 36392: u64 [s1 + 0x180] = a0\n 36396: a0 = u64 [s1 + 0xb8]\n 36400: ra = 0x5d6\n 36404: jump @17\n      : @1413 (gas: 23)\n 36408: a0 = sp + 0xffffffffffffffe0\n 36411: a5 = a0 & 0xffffffffffffffe0\n 36414: sp = a5\n 36416: a1 = u64 [s1 + 0x10]\n 36419: a0 = a1 + 0x2\n 36422: a1 = a0 <u a1\n 36425: a3 = u64 [s1 + 0x18]\n 36428: a2 = a3 + a1\n 36431: a3 = a2 <u a3\n 36434: a3 = a1 if a1 == 0\n 36437: a1 = u64 [s1 + 0x20]\n 36440: a3 = a3 + a1\n 36443: a1 = a3 <u a1\n 36446: a4 = u64 [s1 + 0x28]\n 36449: a4 = a4 + a1\n 36452: a1 = a5\n 36454: u64 [s1 + 0xb8] = a5\n 36458: u64 [a5 + 0x8] = a2\n 36461: u64 [a5] = a0\n 36463: u64 [a5 + 0x10] = a3\n 36466: u64 [a5 + 0x18] = a4\n 36469: a0 = s1 + 0x340\n 36473: ra = 1484, jump @11\n      : @1414 [@dyn 742] (gas: 24)\n 36480: a4 = s1 + 0x300\n 36484: a0 = u64 [a4 + 0x40]\n 36487: a1 = u64 [a4 + 0x58]\n 36490: a2 = u64 [a4 + 0x48]\n 36493: a3 = u64 [a4 + 0x50]\n 36496: a4 = u64 [s1 + 0x60]\n 36499: a4 = a4 + a0\n 36502: a0 = a4 <u a0\n 36505: a5 = a2 + a0\n 36508: a2 = a5 <u a2\n 36511: a2 = a0 if a0 == 0\n 36514: a2 = a2 + a3\n 36517: a0 = a2 <u a3\n 36520: a0 = a0 + a1\n 36523: a1 = s1 + 0x7ff\n 36527: a1 = a1 + 0x31\n 36530: u64 [a1 + 0xf0] = a4\n 36534: u64 [a1 + 0xf8] = a5\n 36538: u64 [a1 + 0x100] = a2\n 36542: u64 [a1 + 0x108] = a0\n 36546: a1 = s1 + 0x7ff\n 36550: a1 = a1 + 0x121\n 36554: a0 = u64 [s1 + 0xb8]\n 36558: ra = 1486, jump @12\n      : @1415 [@dyn 743] (gas: 3)\n 36565: a0 = s1 + 0x320\n 36569: a1 = 0x40\n 36572: ra = 1488, jump @7\n      : @1416 [@dyn 744] (gas: 6)\n 36579: a4 = s1 + 0x300\n 36583: a0 = u64 [a4 + 0x38]\n 36586: a1 = u64 [a4 + 0x30]\n 36589: a2 = u64 [a4 + 0x28]\n 36592: a3 = u64 [a4 + 0x20]\n 36595: t0 = 1490, jump @1459\n      : @1417 [@dyn 745] (gas: 1)\n 36601: jump @1430 if a0 != 0\n      : @1418 (gas: 9)\n 36605: u64 [s1 + 792] = 0\n 36609: u64 [s1 + 784] = 0\n 36613: u64 [s1 + 776] = 0\n 36617: a1 = s1 + 0x300\n 36621: a0 = u64 [s1 + 0x60]\n 36624: u64 [s1 + 0x300] = a0\n 36628: a0 = a3\n 36630: u64 [s1 + 0xb8] = a3\n 36634: ra = 1492, jump @9\n      : @1419 [@dyn 746] (gas: 32)\n 36641: u64 [s1 + 664] = 0\n 36645: u64 [s1 + 656] = 0\n 36649: u64 [s1 + 648] = 0\n 36653: a0 = u64 [s1 + 0x68]\n 36656: u64 [s1 + 0x280] = a0\n 36660: u64 [s1 + 696] = 0\n 36664: u64 [s1 + 688] = 0\n 36668: u64 [s1 + 680] = 0\n 36672: a0 = u64 [s1 + 0x70]\n 36675: u64 [s1 + 0x2a0] = a0\n 36679: u64 [s1 + 728] = 0\n 36683: a0 = u64 [s1 + 0x98]\n 36687: u64 [s1 + 0x2d0] = a0\n 36691: a0 = u64 [s1 + 0xa0]\n 36695: u64 [s1 + 0x2c8] = a0\n 36699: a0 = u64 [0x20108]\n 36704: a1 = u64 [0x20110]\n 36709: a2 = u64 [0x20118]\n 36714: a3 = u64 [s1 + 0xa8]\n 36718: u64 [s1 + 0x2c0] = a3\n 36722: u64 [s1 + 0x2f8] = a0\n 36726: u64 [s1 + 0x2f0] = a1\n 36730: u64 [s1 + 0x2e8] = a2\n 36734: a0 = u64 [0x20120]\n 36739: a1 = 0x20\n 36742: a2 = s1 + 0x2e0\n 36746: a3 = s1 + 0x2c0\n 36750: a4 = s1 + 0x2a0\n 36754: a5 = s1 + 0x280\n 36758: u64 [s1 + 0x2e0] = a0\n 36762: a0 = u64 [s1 + 0xb8]\n 36766: ra = 1494, jump @17\n      : @1420 [@dyn 747] (gas: 9)\n 36773: sp = s0 + 0xfffffffffffff800\n 36777: sp = sp + 0xfffffffffffffe00\n 36781: sp = sp + 0x208\n 36785: a0 = sp + 0x700\n 36789: ra = u64 [a0 + 0xf0]\n 36793: s0 = u64 [a0 + 0xe8]\n 36797: s1 = u64 [a0 + 0xe0]\n 36801: sp = sp + 0x7f8\n 36805: ret\n      : @1421 (gas: 3)\n 36807: a0 = s1 + 0x3a0\n 36811: a1 = 0x40\n 36814: ra = 1496, jump @7\n      : @1422 [@dyn 748] (gas: 11)\n 36821: a1 = s1 + 0x300\n 36825: a0 = u64 [a1 + 0xb8]\n 36829: u64 [s1 + 0xb0] = a0\n 36833: a0 = u64 [a1 + 0xb0]\n 36837: u64 [s1 + 0xa8] = a0\n 36841: a0 = u64 [a1 + 0xa8]\n 36845: u64 [s1 + 0xa0] = a0\n 36849: a0 = u64 [a1 + 0xa0]\n 36853: u64 [s1 + 0xb8] = a0\n 36857: ecalli 13 // 'return_data_size'\n 36859: fallthrough\n      : @1423 (gas: 12)\n 36860: a1 = u64 [s1 + 0xb0]\n 36864: a2 = u64 [s1 + 0xa0]\n 36868: a1 = a1 | a2\n 36871: a3 = u64 [s1 + 0xa8]\n 36875: a2 = u64 [s1 + 0xb8]\n 36879: a2 = a2 | a3\n 36882: a2 = a2 | a1\n 36885: a2 = a2 >> 0x20\n 36888: a1 = a1 | a3\n 36891: a1 = a1 << 0x20\n 36894: a1 = a1 | a2\n 36897: jump @1430 if a1 != 0\n      : @1424 (gas: 2)\n 36900: a1 = a0 >> 0x20\n 36903: jump @1430 if a1 != 0\n      : @1425 (gas: 6)\n 36906: a1 = a0\n 36908: u64 [s1 + 0xa8] = a0\n 36912: i32 a0 = a0 + 0\n 36914: u64 [s1 + 0xb0] = a0\n 36918: a0 = u64 [s1 + 0xb8]\n 36922: ra = 1498, jump @20\n      : @1426 [@dyn 749] (gas: 10)\n 36929: a1 = s1 + 0x7ff\n 36933: a1 = a1 + 0x31\n 36936: a2 = u64 [s1 + 0xa8]\n 36940: u32 [a1 + 0x190] = a2\n 36944: i32 a0 = a0 + 0\n 36946: a1 = s1 + 0x1000\n 36950: i32 a1 = a1 + 0xfffffffffffff9c0\n 36954: a2 = 0\n 36956: ecalli 12 // 'return_data_copy'\n 36958: fallthrough\n      : @1427 (gas: 5)\n 36959: a0 = s1 + 0x7ff\n 36963: a0 = a0 + 0x31\n 36966: a0 = i32 [a0 + 0x190]\n 36970: a1 = u64 [s1 + 0xb0]\n 36974: jump @1430 if a0 <u a1\n      : @1428 (gas: 2)\n 36977: ecalli 13 // 'return_data_size'\n 36979: fallthrough\n      : @1429 (gas: 3)\n 36980: a1 = a0\n 36982: a0 = a0 >> 0x20\n 36985: jump @1440 if a0 == 0\n      : @1430 (gas: 1)\n 36989: trap\n      : @1431 (gas: 9)\n 36990: u64 [s1 + 208] = 0\n 36994: u64 [s1 + 200] = 0\n 36998: u64 [s1 + 192] = 0\n 37002: a0 = 0xa7a9536d00000000\n 37012: a1 = s1 + 0xc0\n 37016: u64 [s1 + 0xd8] = a0\n 37020: a0 = 0\n 37022: ra = 0x5dc\n 37026: jump @9\n      : @1432 (gas: 9)\n 37030: u64 [s1 + 240] = 0\n 37034: u64 [s1 + 232] = 0\n 37038: u64 [s1 + 224] = 0\n 37042: a0 = 0xafa4e2b600000000\n 37052: a1 = s1 + 0xe0\n 37056: u64 [s1 + 0xf8] = a0\n 37060: a0 = 0\n 37062: ra = 0x5dc\n 37066: jump @9\n      : @1433 (gas: 9)\n 37070: u64 [s1 + 1584] = 0\n 37074: u64 [s1 + 1576] = 0\n 37078: u64 [s1 + 1568] = 0\n 37082: a0 = 0x560ff90000000000\n 37092: a1 = s1 + 0x620\n 37096: u64 [s1 + 0x638] = a0\n 37100: a0 = 0\n 37102: ra = 0x5dc\n 37106: jump @9\n      : @1434 (gas: 9)\n 37110: u64 [s1 + 272] = 0\n 37114: u64 [s1 + 264] = 0\n 37118: u64 [s1 + 256] = 0\n 37122: a0 = 0xf4d678b800000000\n 37132: a1 = s1 + 0x100\n 37136: u64 [s1 + 0x118] = a0\n 37140: a0 = 0\n 37142: ra = 0x5dc\n 37146: jump @9\n      : @1435 (gas: 5)\n 37150: a0 = 0x1\n 37153: a1 = u64 [s1 + 0xb8]\n 37157: a2 = 0\n 37159: ecalli 14 // 'seal_return'\n 37161: fallthrough\n      : @1436 (gas: 8)\n 37162: u64 [s1 + 496] = 0\n 37166: u64 [s1 + 488] = 0\n 37170: u64 [s1 + 480] = 0\n 37174: a0 = 0x90b8ec1800000000\n 37184: a1 = s1 + 0x1e0\n 37188: u64 [s1 + 0x1f8] = a0\n 37192: a0 = 0\n 37194: ra = 1500, jump @9\n      : @1437 [@dyn 750] (gas: 3)\n 37201: a0 = u64 [s1 + 0xb0]\n 37205: a0 = i32 [a0]\n 37207: jump @1439 if a0 >u 31\n      : @1438 (gas: 3)\n 37211: a1 = u64 [s1 + 0xb0]\n 37215: u32 [a1 + 0] = 0x20\n 37218: fallthrough\n      : @1439 (gas: 5)\n 37219: a0 = 0x1\n 37222: a2 = 0x4\n 37225: a1 = u64 [s1 + 0xb8]\n 37229: ecalli 14 // 'seal_return'\n 37231: fallthrough\n      : @1440 (gas: 3)\n 37232: a0 = u64 [s1 + 0xb8]\n 37236: u64 [s1 + 0xb0] = a1\n 37240: ra = 1502, jump @20\n      : @1441 [@dyn 751] (gas: 7)\n 37247: i32 a1 = a0 + 0\n 37249: a2 = i32 [s1 + 0xb0]\n 37253: a0 = 0x1\n 37256: ecalli 14 // 'seal_return'\n 37258: a0 = 0\n 37260: ra = 0x5e0\n 37264: jump @26\n      : @1442 [export #0: 'call'] (gas: 2)\n 37268: a0 = 0\n 37270: ra = 1504, jump @26\n      : @1443 [@dyn 752] [export #1: 'deploy'] (gas: 2)\n 37277: a0 = 0x1\n 37280: ra = 1506, jump @26\n      : @1444 [@dyn 753] (gas: 15)\n 37287: a0 = u64 [a2 + 0x8]\n 37290: a1 = i32 [a2 + 0x10]\n 37293: a2 = u64 [a2]\n 37295: a0 = reverse a0\n 37297: a3 = a0 << 0x20\n 37300: a1 = reverse a1\n 37302: a1 = a1 >> 0x20\n 37305: a3 = a3 | a1\n 37308: a0 = a0 >> 0x20\n 37311: a1 = reverse a2\n 37313: a2 = a1 << 0x20\n 37316: a0 = a0 | a2\n 37319: a1 = a1 >> 0x20\n 37322: a2 = s1 + 0x1078\n 37326: jump [t0]\n      : @1445 (gas: 16)\n 37328: a0 = u64 [a2 + 0x8]\n 37331: a1 = i32 [a2 + 0x10]\n 37334: a2 = u64 [a2]\n 37336: a0 = reverse a0\n 37338: a3 = a0 << 0x20\n 37341: a1 = reverse a1\n 37343: a1 = a1 >> 0x20\n 37346: a3 = a3 | a1\n 37349: a0 = a0 >> 0x20\n 37352: a1 = reverse a2\n 37354: a2 = a1 << 0x20\n 37357: a0 = a0 | a2\n 37360: a1 = a1 >> 0x20\n 37363: a2 = s1 + 0x7ff\n 37367: a2 = a2 + 0x79\n 37370: jump [t0]\n      : @1446 (gas: 15)\n 37372: a0 = u64 [a2 + 0x8]\n 37375: a1 = i32 [a2 + 0x10]\n 37378: a2 = u64 [a2]\n 37380: a0 = reverse a0\n 37382: a3 = a0 << 0x20\n 37385: a1 = reverse a1\n 37387: a1 = a1 >> 0x20\n 37390: a3 = a3 | a1\n 37393: a0 = a0 >> 0x20\n 37396: a1 = reverse a2\n 37398: a2 = a1 << 0x20\n 37401: a0 = a0 | a2\n 37404: a1 = a1 >> 0x20\n 37407: a2 = s1 + 0x1878\n 37411: jump [t0]\n      : @1447 (gas: 20)\n 37413: a3 = u64 [s1 + 0xa8]\n 37417: a0 = u64 [a3 + 0x18]\n 37420: a1 = u64 [a3 + 0x10]\n 37423: a2 = u64 [a3 + 0x8]\n 37426: a3 = u64 [a3]\n 37428: a0 = reverse a0\n 37430: u64 [s1 + 0xa0] = a0\n 37434: a0 = reverse a1\n 37436: u64 [s1 + 0x98] = a0\n 37440: a0 = reverse a2\n 37442: u64 [s1 + 0x90] = a0\n 37446: a0 = reverse a3\n 37448: u64 [s1 + 0x88] = a0\n 37452: a0 = sp + 0xffffffffffffffe0\n 37455: a0 = a0 & 0xffffffffffffffe0\n 37458: u64 [s1 + 0xa8] = a0\n 37462: sp = a0\n 37464: a0 = 0x1078\n 37468: a2 = s1 + a0\n 37471: jump [t0]\n      : @1448 (gas: 17)\n 37473: a0 = u64 [a3]\n 37475: a1 = u64 [a3 + 0x8]\n 37478: a2 = u64 [a3 + 0x10]\n 37481: a3 = u64 [a3 + 0x18]\n 37484: a0 = reverse a0\n 37486: a1 = reverse a1\n 37488: a2 = reverse a2\n 37490: a3 = reverse a3\n 37492: a3 = a3 + 0x1\n 37495: a4 = a3 <u 0x1\n 37498: a2 = a2 + a4\n 37501: a4 = a3 | a2\n 37504: a4 = a4 <u 0x1\n 37507: a4 = a4 + a1\n 37510: a1 = a4 <u a1\n 37513: a0 = a0 + a1\n 37516: jump [t0]\n      : @1449 (gas: 16)\n 37518: a2 = u64 [s1 + 0x80]\n 37522: a0 = u64 [a2 + 0x8]\n 37525: a1 = i32 [a2 + 0x10]\n 37528: a2 = u64 [a2]\n 37530: a0 = reverse a0\n 37532: a3 = a0 << 0x20\n 37535: a1 = reverse a1\n 37537: a1 = a1 >> 0x20\n 37540: a3 = a3 | a1\n 37543: a0 = a0 >> 0x20\n 37546: a1 = reverse a2\n 37548: a2 = a1 << 0x20\n 37551: a0 = a0 | a2\n 37554: a1 = a1 >> 0x20\n 37557: a2 = s1 + 0x2078\n 37561: jump [t0]\n      : @1450 (gas: 26)\n 37563: u64 [s1 + 0xc8] = a0\n 37567: a0 = ra - a3\n 37570: a0 = a0 <u a5\n 37573: a1 = ra <u a3\n 37576: a5 = u64 [s1 + 0x98]\n 37580: a4 = ra - a5\n 37583: a4 = a4 - a1\n 37586: a4 = a4 - a0\n 37589: ra = a4 >>a 0x3f\n 37592: a0 = u64 [s1 + 0x90]\n 37596: a0 = ra & a0\n 37599: a1 = u64 [s1 + 0xa0]\n 37603: t2 = a1 - a0\n 37606: a1 = a1 <u a0\n 37609: t1 = a2 - a1\n 37612: a1 = 0 if a2 != 0\n 37614: a0 = a3 - a1\n 37617: u64 [s1 + 0xa8] = a0\n 37621: a1 = a3 <u a1\n 37624: a1 = a5 - a1\n 37627: a3 = u64 [s1 + 0xf8]\n 37631: a5 = u64 [s1 + 0xf0]\n 37635: a2 = a3 | a5\n 37638: a2 = a2 <u 0x1\n 37641: a4 = u64 [s1 + 0xe0]\n 37645: jump [t0]\n      : @1451 (gas: 18)\n 37647: a3 = u64 [s1 + 0xe0]\n 37651: a0 = u64 [a3 + 0x18]\n 37654: a1 = u64 [a3 + 0x10]\n 37657: a2 = u64 [a3 + 0x8]\n 37660: a3 = u64 [a3]\n 37662: a0 = reverse a0\n 37664: u64 [s1 + 0xd8] = a0\n 37668: a0 = reverse a1\n 37670: u64 [s1 + 0xd0] = a0\n 37674: a0 = reverse a2\n 37676: u64 [s1 + 0xc8] = a0\n 37680: a0 = reverse a3\n 37682: u64 [s1 + 0xc0] = a0\n 37686: a0 = sp + 0xffffffffffffffe0\n 37689: a0 = a0 & 0xffffffffffffffe0\n 37692: u64 [s1 + 0xe0] = a0\n 37696: sp = a0\n 37698: jump [t0]\n      : @1452 (gas: 18)\n 37700: a3 = u64 [s1 + 0x60]\n 37703: a0 = u64 [a3 + 0x18]\n 37706: a1 = u64 [a3 + 0x10]\n 37709: a2 = u64 [a3 + 0x8]\n 37712: a3 = u64 [a3]\n 37714: a0 = reverse a0\n 37716: u64 [s1 + 0x58] = a0\n 37719: a0 = reverse a1\n 37721: u64 [s1 + 0x50] = a0\n 37724: a0 = reverse a2\n 37726: u64 [s1 + 0x48] = a0\n 37729: a0 = reverse a3\n 37731: u64 [s1 + 0x40] = a0\n 37734: a0 = sp + 0xffffffffffffffe0\n 37737: a0 = a0 & 0xffffffffffffffe0\n 37740: u64 [s1 + 0x60] = a0\n 37743: sp = a0\n 37745: jump [t0]\n      : @1453 (gas: 14)\n 37747: a0 = u64 [a2 + 0x8]\n 37750: a1 = i32 [a2 + 0x10]\n 37753: a2 = u64 [a2]\n 37755: a3 = reverse a0\n 37757: a0 = a3 << 0x20\n 37760: a1 = reverse a1\n 37762: a1 = a1 >> 0x20\n 37765: a0 = a0 | a1\n 37768: a3 = a3 >> 0x20\n 37771: a2 = reverse a2\n 37773: a1 = a2 << 0x20\n 37776: a1 = a1 | a3\n 37779: a2 = a2 >> 0x20\n 37782: jump [t0]\n      : @1454 (gas: 15)\n 37784: a3 = u64 [s1 + 0xf8]\n 37788: a0 = u64 [a3 + 0x18]\n 37791: a1 = u64 [a3 + 0x10]\n 37794: a2 = u64 [a3 + 0x8]\n 37797: a3 = u64 [a3]\n 37799: a0 = reverse a0\n 37801: a4 = reverse a1\n 37803: a2 = reverse a2\n 37805: a3 = reverse a3\n 37807: a1 = u64 [s1 + 0xe0]\n 37811: u64 [a1 + 0x18] = a3\n 37814: u64 [a1 + 0x10] = a2\n 37817: u64 [a1 + 0x8] = a4\n 37820: u64 [a1] = a0\n 37822: jump [t0]\n      : @1455 (gas: 15)\n 37824: a0 = u64 [a3 + 0x18]\n 37827: a1 = u64 [a3 + 0x10]\n 37830: a2 = u64 [a3 + 0x8]\n 37833: a3 = u64 [a3]\n 37835: a0 = reverse a0\n 37837: a4 = reverse a1\n 37839: a2 = reverse a2\n 37841: a3 = reverse a3\n 37843: a1 = u64 [s1 + 0xa8]\n 37847: u64 [a1 + 0x18] = a3\n 37850: u64 [a1 + 0x10] = a2\n 37853: u64 [a1 + 0x8] = a4\n 37856: u64 [a1] = a0\n 37858: a0 = 0x1000\n 37862: jump [t0]\n      : @1456 (gas: 24)\n 37864: a0 = a1 if a2 == 0\n 37867: a2 = u64 [s1 + 0xb0]\n 37871: a3 = a2\n 37873: a1 = a2\n 37875: a2 = u64 [s1 + 0xc0]\n 37879: a3 = a0 if a2 != 0\n 37882: u64 [s1 + 0xc8] = a3\n 37886: a0 = u64 [s1 + 0xa8]\n 37890: a3 = u64 [s1 + 0x90]\n 37894: a0 = a0 | a3\n 37897: a3 = u64 [s1 + 0x80]\n 37901: a0 = a3 if a5 == 0\n 37904: a4 = u64 [s1 + 0xb8]\n 37908: a3 = a4\n 37910: a3 = a0 if a2 != 0\n 37913: u64 [s1 + 0xc0] = a3\n 37917: a0 = u64 [s1 + 0xd0]\n 37921: a0 = 0 if a5 == 0\n 37923: u64 [s1 + 0xd0] = a0\n 37927: u64 [s1 + 144] = 0x15180\n 37934: a0 = u64 [s1 + 0xf8]\n 37938: a2 = a0 + 0xffffffffffffff80\n 37941: a0 = a4\n 37943: jump [t0]\n      : @1457 (gas: 15)\n 37945: a3 = u64 [s1 + 0x58]\n 37948: a0 = u64 [a3 + 0x18]\n 37951: a1 = u64 [a3 + 0x10]\n 37954: a2 = u64 [a3 + 0x8]\n 37957: a3 = u64 [a3]\n 37959: a0 = reverse a0\n 37961: a4 = reverse a1\n 37963: a2 = reverse a2\n 37965: a3 = reverse a3\n 37967: a1 = u64 [s1 + 0x60]\n 37970: u64 [a1 + 0x18] = a3\n 37973: u64 [a1 + 0x10] = a2\n 37976: u64 [a1 + 0x8] = a4\n 37979: u64 [a1] = a0\n 37981: jump [t0]\n      : @1458 (gas: 9)\n 37983: a1 = a1 <u 0x20\n 37986: a1 = a1 ^ 0x1\n 37989: a1 = a0 if a3 != 0\n 37992: a0 = a3 >u 0\n 37994: a2 = a3 >u 0\n 37996: a2 = a0 if a3 == 0\n 37999: a0 = a3 | a3\n 38002: a2 = a1 if a0 == 0\n 38005: jump [t0]\n      : @1459 (gas: 8)\n 38007: a0 = a0 | a2\n 38010: a2 = a3 | a1\n 38013: a2 = a2 | a0\n 38016: a2 = a2 >> 0x20\n 38019: a0 = a0 | a1\n 38022: a0 = a0 << 0x20\n 38025: a0 = a0 | a2\n 38028: jump [t0]\n      : @1460 (gas: 18)\n 38030: a1 = a2 + 0x1\n 38033: u64 [s1 + 0xf8] = a1\n 38037: a0 = a1 <u 0x1\n 38040: a0 = a0 + a3\n 38043: u64 [s1 + 0xf0] = a0\n 38047: a0 = a0 | a1\n 38050: a0 = a0 <u 0x1\n 38053: a0 = a0 + t1\n 38056: u64 [s1 + 0xe0] = a0\n 38060: a0 = a0 <u t1\n 38063: a0 = a0 + ra\n 38066: u64 [s1 + 0xe8] = a0\n 38070: a1 = 0xff - a2\n 38074: u64 [s1 + 0xc0] = a1\n 38078: a2 = 0x80 - a1\n 38082: a0 = u64 [s1 + 0xa0]\n 38086: a1 = u64 [s1 + 0x98]\n 38090: jump [t0]\n      : @1461 (gas: 17)\n 38092: a0 = u64 [a3]\n 38094: a1 = u64 [a3 + 0x8]\n 38097: a2 = u64 [a3 + 0x10]\n 38100: a3 = u64 [a3 + 0x18]\n 38103: a0 = reverse a0\n 38105: a1 = reverse a1\n 38107: a2 = reverse a2\n 38109: a3 = reverse a3\n 38111: a4 = a3 + 0x3\n 38114: a3 = a4 <u a3\n 38117: a5 = a2 + a3\n 38120: a2 = a5 <u a2\n 38123: a2 = a3 if a3 == 0\n 38126: a2 = a2 + a1\n 38129: a1 = a2 <u a1\n 38132: a0 = a0 + a1\n 38135: jump [t0]\n      : @1462 (gas: 12)\n 38137: a1 = u64 [s1 + 0xf0]\n 38141: a2 = u64 [s1 + 0xe0]\n 38145: a1 = a1 | a2\n 38148: a3 = u64 [s1 + 0xe8]\n 38152: a2 = u64 [s1 + 0xf8]\n 38156: a2 = a2 | a3\n 38159: a2 = a2 | a1\n 38162: a2 = a2 >> 0x20\n 38165: a1 = a1 | a3\n 38168: a1 = a1 << 0x20\n 38171: a1 = a1 | a2\n 38174: jump [t0]\n      : @1463 (gas: 17)\n 38176: a0 = u64 [a2 + 0x8]\n 38179: a1 = i32 [a2 + 0x10]\n 38182: a2 = u64 [a2]\n 38184: a0 = reverse a0\n 38186: a3 = a0 << 0x20\n 38189: a1 = reverse a1\n 38191: a1 = a1 >> 0x20\n 38194: a3 = a3 | a1\n 38197: a0 = a0 >> 0x20\n 38200: a1 = reverse a2\n 38202: a2 = a1 << 0x20\n 38205: a2 = a2 | a0\n 38208: a1 = a1 >> 0x20\n 38211: i32 a0 = a4 + 0x4\n 38214: a4 = 0x1878\n 38218: a5 = s1 + a4\n 38221: jump [t0]\n      : @1464 (gas: 8)\n 38223: a0 = u64 [a2 + 0x8]\n 38226: a1 = i32 [a2 + 0x10]\n 38229: a2 = u64 [a2]\n 38231: a3 = reverse a0\n 38233: a0 = a3 << 0x20\n 38236: a1 = reverse a1\n 38238: a1 = a1 >> 0x20\n 38241: jump [t0]\n      : @1465 (gas: 5)\n 38243: sp = a0\n 38245: i32 a2 = a0 + 0\n 38247: a1 = 0x40\n 38250: a0 = u64 [s1 + 0xe8]\n 38254: jump [t0]\n      : @1466 (gas: 5)\n 38256: sp = a0\n 38258: i32 a2 = a0 + 0\n 38260: a1 = 0x40\n 38263: a0 = u64 [s1 + 0xb8]\n 38267: jump [t0]\n      : @1467 (gas: 15)\n 38269: t2 = u64 [s1 + 0xa0]\n 38273: t1 = u64 [s1 + 0x98]\n 38277: u64 [s1 + 184] = 0\n 38281: u64 [s1 + 176] = 0\n 38285: a2 = u64 [s1 + 0x88]\n 38289: a1 = 0 if a2 == 0\n 38291: a0 = 0 if a2 == 0\n 38293: u64 [s1 + 0xa8] = a0\n 38297: a3 = u64 [s1 + 0x90]\n 38301: a2 = a3 + 0xffffffffffffffff\n 38304: u64 [s1 + 0x88] = a2\n 38308: a2 = a3 >u 0\n 38310: a2 = a2 + 0xffffffffffffffff\n 38313: u64 [s1 + 0x80] = a2\n 38317: jump [t0]\n      : @1468 (gas: 5)\n 38319: sp = a0\n 38321: i32 a2 = a0 + 0\n 38323: a1 = 0x40\n 38326: a0 = u64 [s1 + 0xf0]\n 38330: jump [t0]\n      : @1469 (gas: 9)\n 38332: a0 = u64 [a3 + 0x18]\n 38335: a1 = u64 [a3 + 0x10]\n 38338: a2 = u64 [a3 + 0x8]\n 38341: a3 = u64 [a3]\n 38343: a0 = reverse a0\n 38345: a4 = reverse a1\n 38347: a2 = reverse a2\n 38349: a3 = reverse a3\n 38351: jump [t0]\n      : @1470 (gas: 14)\n 38353: a0 = u64 [a2 + 0x8]\n 38356: a1 = i32 [a2 + 0x10]\n 38359: a2 = u64 [a2]\n 38361: a0 = reverse a0\n 38363: a3 = a0 << 0x20\n 38366: a1 = reverse a1\n 38368: a1 = a1 >> 0x20\n 38371: a3 = a3 | a1\n 38374: a0 = a0 >> 0x20\n 38377: a1 = reverse a2\n 38379: a2 = a1 << 0x20\n 38382: a0 = a0 | a2\n 38385: a1 = a1 >> 0x20\n 38388: jump [t0]\n      : @1471 (gas: 12)\n 38390: a4 = u64 [s1 + 0x88]\n 38394: a0 = a0 & a4\n 38397: a4 = u64 [s1 + 0x78]\n 38400: a1 = a1 & a4\n 38403: a4 = u64 [s1 + 0x90]\n 38407: a2 = a2 & a4\n 38410: a4 = u64 [s1 + 0x80]\n 38414: a3 = a3 & a4\n 38417: a2 = a2 | a3\n 38420: a0 = a0 | a1\n 38423: a0 = a0 | a2\n 38426: jump [t0]\n      : @1472 (gas: 12)\n 38428: a2 = t2 >> 0x3f\n 38431: a3 = t1 << 0x1\n 38434: a2 = a2 | a3\n 38437: a3 = t2 << 0x1\n 38440: t2 = u64 [s1 + 0xc8]\n 38444: a4 = t2 >> 0x3f\n 38447: a3 = a3 | a4\n 38450: u64 [s1 + 0xa0] = a3\n 38454: ra = u64 [s1 + 0x80]\n 38458: a0 = t1\n 38460: t1 = ra ^ a2\n 38463: jump [t0]\n      : @1473 (gas: 14)\n 38465: a3 = u64 [s1 + 0xd8]\n 38469: a0 = u64 [a3 + 0x18]\n 38472: a1 = u64 [a3 + 0x10]\n 38475: a2 = u64 [a3 + 0x8]\n 38478: a3 = u64 [a3]\n 38480: a0 = reverse a0\n 38482: u64 [s1 + 0xd8] = a0\n 38486: a0 = reverse a1\n 38488: u64 [s1 + 0xd0] = a0\n 38492: a0 = reverse a2\n 38494: u64 [s1 + 0xc8] = a0\n 38498: a0 = reverse a3\n 38500: u64 [s1 + 0xc0] = a0\n 38504: jump [t0]\n      : @1474 (gas: 10)\n 38506: u64 [s1] = a3\n 38508: u64 [s1 + 0x8] = a2\n 38511: u64 [s1 + 0x10] = a1\n 38514: u64 [s1 + 0x18] = a0\n 38517: sp = s0 + 0xffffffffffffffc0\n 38520: ra = u64 [sp + 0x38]\n 38523: s0 = u64 [sp + 0x30]\n 38526: s1 = u64 [sp + 0x28]\n 38529: sp = sp + 0x40\n 38532: jump [t0]\n      : @1475 (gas: 8)\n 38534: a0 = u64 [a4 + 0x18]\n 38537: a1 = u64 [a4 + 0x20]\n 38540: a2 = u64 [a4 + 0x10]\n 38543: a3 = u64 [a4 + 0x8]\n 38546: a1 = a1 | a2\n 38549: a0 = a0 | a3\n 38552: a0 = a0 | a1\n 38555: jump [t0]\n      : @1476 (gas: 8)\n 38557: a4 = a4 | a2\n 38560: a2 = a0 | a1\n 38563: a2 = a2 | a4\n 38566: a2 = a2 >> 0x20\n 38569: a1 = a1 | a4\n 38572: a1 = a1 << 0x20\n 38575: a1 = a1 | a2\n 38578: jump [t0]\n      : @1477 (gas: 12)\n 38580: a1 = a1 << 0x1\n 38583: a4 = u64 [s1 + 0xa8]\n 38587: a3 = a4 >> 0x3f\n 38590: a1 = a1 | a3\n 38593: u64 [s1 + 0x98] = a1\n 38597: a3 = a0 >> 0x3f\n 38600: a0 = a4 << 0x1\n 38603: a3 = a3 | a0\n 38606: a0 = t2 << 0x1\n 38609: a4 = u64 [s1 + 0xc0]\n 38613: a1 = a4 >> 0x3f\n 38616: jump [t0]\n      : @1478 (gas: 10)\n 38618: a0 = u64 [a3 + 0x18]\n 38621: a1 = u64 [a3 + 0x10]\n 38624: a2 = u64 [a3 + 0x8]\n 38627: a3 = u64 [a3]\n 38629: a0 = reverse a0\n 38631: a1 = reverse a1\n 38633: a2 = reverse a2\n 38635: a3 = reverse a3\n 38637: a4 = s1 + 0x2078\n 38641: jump [t0]\n      : @1479 (gas: 8)\n 38643: a0 = a0 | a2\n 38646: a2 = a4 | a1\n 38649: a2 = a2 | a0\n 38652: a2 = a2 >> 0x20\n 38655: a0 = a0 | a1\n 38658: a0 = a0 << 0x20\n 38661: a0 = a0 | a2\n 38664: jump [t0]\n      : @1480 (gas: 16)\n 38666: a4 = u64 [a3]\n 38668: u64 [sp + 0x18] = a4\n 38671: a4 = u64 [a3 + 0x8]\n 38674: u64 [sp + 0x20] = a4\n 38677: a4 = u64 [a3 + 0x10]\n 38680: u64 [sp + 0x28] = a4\n 38683: a3 = u64 [a3 + 0x18]\n 38686: u64 [sp + 0x30] = a3\n 38689: s1 = u64 [a2]\n 38691: a3 = u64 [a2 + 0x8]\n 38694: u64 [sp] = a3\n 38696: a3 = u64 [a2 + 0x10]\n 38699: u64 [sp + 0x8] = a3\n 38702: a2 = u64 [a2 + 0x18]\n 38705: u64 [sp + 0x10] = a2\n 38708: jump [t0]\n      : @1481 (gas: 10)\n 38710: a0 = u64 [sp + 0x10]\n 38713: a1 = u64 [sp + 0x18]\n 38716: a2 = 0x100000000\n 38726: a2 = a2 ^ a0\n 38729: a2 = a2 | a1\n 38732: a3 = a0 >> 0x20\n 38735: a3 = a3 <u 0x1\n 38738: a3 = 0 if a1 != 0\n 38740: a3 = 0 if a2 == 0\n 38742: jump [t0]\n      : @1482 (gas: 8)\n 38744: a0 = u64 [a4 + 0xd8]\n 38748: a1 = u64 [a4 + 0xe0]\n 38752: a2 = u64 [a4 + 0xd0]\n 38756: a3 = u64 [a4 + 0xc8]\n 38760: a1 = a1 | a2\n 38763: a0 = a0 | a3\n 38766: a0 = a0 | a1\n 38769: jump [t0]\n      : @1483 (gas: 4)\n 38771: a0 = 0x2078\n 38775: a3 = s1 + a0\n 38778: a4 = a3 + 0x500\n 38782: jump [t0]\n      : @1484 (gas: 11)\n 38784: a2 = u64 [s1 + 0x88]\n 38788: a1 = a1 | a2\n 38791: a2 = u64 [s1 + 0xf8]\n 38795: a3 = a2 <u 0x80\n 38799: u64 [s1 + 0x88] = a3\n 38803: a4 = u64 [s1 + 0x80]\n 38807: a1 = a4 if a3 == 0\n 38810: a4 = u64 [s1 + 0x98]\n 38814: a4 = a1 if a2 != 0\n 38817: u64 [s1 + 0x98] = a4\n 38821: jump [t0]\n      : @1485 (gas: 10)\n 38823: a2 = u64 [s1 + 0x88]\n 38827: a1 = 0 if a2 == 0\n 38829: a0 = 0 if a2 == 0\n 38831: a3 = u64 [s1 + 0x98]\n 38835: a2 = a3 + 0xffffffffffffffff\n 38838: u64 [s1 + 0x90] = a2\n 38842: a2 = a3 >u 0\n 38844: a2 = a2 + 0xffffffffffffffff\n 38847: u64 [s1 + 0x88] = a2\n 38851: jump [t0]\n      : @1486 (gas: 11)\n 38853: a3 = u64 [s1 + 0xc8]\n 38857: a0 = u64 [a3 + 0x18]\n 38860: a1 = u64 [a3 + 0x10]\n 38863: a2 = u64 [a3 + 0x8]\n 38866: a3 = u64 [a3]\n 38868: a0 = reverse a0\n 38870: u64 [s1 + 0xc0] = a0\n 38874: a0 = reverse a1\n 38876: u64 [s1 + 0xb8] = a0\n 38880: a0 = reverse a2\n 38882: jump [t0]\n      : @1487 (gas: 9)\n 38884: u64 [s1 + 0xc0] = a3\n 38888: a1 = 0 if a4 == 0\n 38890: u64 [s1 + 0xc8] = a1\n 38894: u64 [s1 + 152] = 0x15180\n 38901: a0 = u64 [s1 + 0xf0]\n 38905: a2 = a0 + 0xffffffffffffff80\n 38908: a0 = a5\n 38910: a1 = t1\n 38912: jump [t0]\n      : @1488 (gas: 12)\n 38914: a0 = u64 [sp + 0x18]\n 38917: a1 = u64 [sp + 0x10]\n 38920: a2 = u64 [sp + 0x8]\n 38923: a3 = u64 [sp]\n 38925: a4 = a2 | a0\n 38928: a5 = a3 | a1\n 38931: a5 = a5 | a4\n 38934: a5 = a5 >> 0x20\n 38937: a4 = a4 | a1\n 38940: a4 = a4 << 0x20\n 38943: a4 = a4 | a5\n 38946: jump [t0]\n      : @1489 (gas: 6)\n 38948: a0 = u64 [a3 + 0x18]\n 38951: a1 = u64 [a3 + 0x10]\n 38954: a2 = u64 [a3 + 0x8]\n 38957: a3 = u64 [a3]\n 38959: a0 = reverse a0\n 38961: jump [t0]\n      : @1490 (gas: 12)\n 38963: a2 = u64 [sp]\n 38965: a3 = u64 [sp + 0x8]\n 38968: u64 [s1] = a2\n 38970: u64 [s1 + 0x8] = a3\n 38973: u64 [s1 + 0x10] = a0\n 38976: u64 [s1 + 0x18] = a1\n 38979: sp = s0 + 0xffffffffffffffc0\n 38982: ra = u64 [sp + 0x38]\n 38985: s0 = u64 [sp + 0x30]\n 38988: s1 = u64 [sp + 0x28]\n 38991: sp = sp + 0x40\n 38994: jump [t0]\n      : @1491 (gas: 12)\n 38996: a4 = u64 [s1 + 0xd8]\n 39000: a0 = a0 & a4\n 39003: a4 = u64 [s1 + 0xc8]\n 39007: a1 = a1 & a4\n 39010: a4 = u64 [s1 + 0xd0]\n 39014: a2 = a2 & a4\n 39017: a4 = u64 [s1 + 0xc0]\n 39021: a3 = a3 & a4\n 39024: a2 = a2 | a3\n 39027: a0 = a0 | a1\n 39030: a0 = a0 | a2\n 39033: jump [t0]\n      : @1492 (gas: 8)\n 39035: u64 [sp + 64] = 0\n 39038: u64 [sp + 56] = 0\n 39041: u64 [sp + 48] = 0\n 39044: a0 = 0x4e487b7100000000\n 39054: a1 = sp + 0x30\n 39057: u64 [sp + 0x48] = a0\n 39060: a0 = 0\n 39062: jump [t0]\n      : @1493 (gas: 10)\n 39064: sp = sp + 0xffffffffffffffc0\n 39067: u64 [sp + 0x38] = ra\n 39070: u64 [sp + 0x30] = s0\n 39073: u64 [sp + 0x28] = s1\n 39076: s0 = sp + 0x40\n 39079: sp = sp & 0xffffffffffffffe0\n 39082: s1 = a0\n 39084: i32 a0 = sp + 0\n 39086: a1 = 0x4\n 39089: jump [t0]\n      : @1494 (gas: 8)\n 39091: a0 = u64 [a4 + 0x38]\n 39094: a1 = u64 [a4 + 0x40]\n 39097: a2 = u64 [a4 + 0x30]\n 39100: a3 = u64 [a4 + 0x28]\n 39103: a1 = a1 | a2\n 39106: a0 = a0 | a3\n 39109: a0 = a0 | a1\n 39112: jump [t0]\n      : @1495 (gas: 4)\n 39114: i32 a0 = a0 + 0x78\n 39117: a3 = s1 + a0\n 39120: a4 = a3 + 0x100\n 39124: jump [t0]\n      : @1496 (gas: 4)\n 39126: a0 = 0x2078\n 39130: a3 = s1 + a0\n 39133: a4 = a3 + 0x400\n 39137: jump [t0]\n      : @1497 (gas: 4)\n 39139: a0 = 0x2878\n 39143: a3 = s1 + a0\n 39146: a4 = a3 + 0x100\n 39150: jump [t0]\n      : @1498 (gas: 4)\n 39152: a0 = 0x2878\n 39156: a3 = s1 + a0\n 39159: a4 = a3 + 0x200\n 39163: jump [t0]\n      : @1499 (gas: 9)\n 39165: sp = sp + 0xffffffffffffffc0\n 39168: u64 [sp + 0x38] = ra\n 39171: u64 [sp + 0x30] = s0\n 39174: u64 [sp + 0x28] = s1\n 39177: s0 = sp + 0x40\n 39180: sp = sp & 0xffffffffffffffe0\n 39183: s1 = a0\n 39185: i32 a0 = sp + 0\n 39187: jump [t0]\n      : @1500 (gas: 8)\n 39189: a0 = u64 [a4 + 0xb8]\n 39193: a1 = u64 [a4 + 0xc0]\n 39197: a2 = u64 [a4 + 0xb0]\n 39201: a3 = u64 [a4 + 0xa8]\n 39205: a1 = a1 | a2\n 39208: a0 = a0 | a3\n 39211: a0 = a0 | a1\n 39214: jump [t0]\n      : @1501 (gas: 7)\n 39216: a3 = u64 [s1 + 0xf8]\n 39220: a0 = u64 [a3 + 0x18]\n 39223: a1 = u64 [a3 + 0x10]\n 39226: a2 = u64 [a3 + 0x8]\n 39229: a3 = u64 [a3]\n 39231: a5 = reverse a0\n 39233: jump [t0]\n      : @1502 (gas: 8)\n 39235: a1 = sp + 0xffffffffffffffe0\n 39238: a1 = a1 & 0xffffffffffffffe0\n 39241: u64 [s1 + 0xf0] = a1\n 39245: sp = a1\n 39247: i32 a0 = a0 + 0\n 39249: i32 a2 = a1 + 0\n 39251: a1 = 0x40\n 39254: jump [t0]\n      : @1503 (gas: 9)\n 39256: a0 = a0 | a1\n 39259: a1 = u64 [s1 + 0xa8]\n 39263: a0 = a1 if a3 == 0\n 39266: a1 = u64 [s1 + 0xa0]\n 39270: a1 = a0 if a2 != 0\n 39273: u64 [s1 + 0xa0] = a1\n 39277: a0 = u64 [s1 + 0xb8]\n 39281: a1 = u64 [s1 + 0xb0]\n 39285: jump [t0]\n      : @1504 (gas: 2)\n 39287: a3 = a2 & 0x40\n 39290: jump @1508 if a3 != 0\n      : @1505 (gas: 1)\n 39293: jump @1507 if a2 == 0\n      : @1506 (gas: 6)\n 39296: i32 a3 = 0x40 - a2\n 39299: a3 = a1 << a3\n 39302: a1 = a1 >> a2\n 39305: a0 = a0 >> a2\n 39308: a0 = a0 | a3\n 39311: ret\n      : @1507 (gas: 1)\n 39313: ret\n      : @1508 (gas: 4)\n 39315: a0 = a2 + 0xffffffffffffffc0\n 39318: a0 = a1 >> a0\n 39321: a1 = 0\n 39323: ret\n      : @1509 (gas: 2)\n 39325: a3 = a2 & 0x40\n 39328: jump @1513 if a3 != 0\n      : @1510 (gas: 1)\n 39331: jump @1512 if a2 == 0\n      : @1511 (gas: 6)\n 39334: i32 a3 = 0x40 - a2\n 39337: a3 = a0 >> a3\n 39340: a0 = a0 << a2\n 39343: a1 = a1 << a2\n 39346: a1 = a1 | a3\n 39349: ret\n      : @1512 (gas: 1)\n 39351: ret\n      : @1513 (gas: 4)\n 39353: a1 = a2 + 0xffffffffffffffc0\n 39356: a1 = a0 << a1\n 39359: a0 = 0\n 39361: ret\n","bytecode":{"object":"50564d00008eb5000000000000010700c1a001c0008003814c8c5429eea693f81e976c2a47cb5638031d6e7e460a43c54553b4e6a10ec9d36bbe28982eecaa761aff97e6ce55d5613eea1ab831552409f8051f0b480298fcabf40443b2a766a42db9815a1e2efa877e5c0519ec4fe51c83c442ba392fca77e27a96c0a237ac310730ce86cab6918a9cee1f20395b3b80e1e34a4eb67d08a74e0dc354af37bd04b03f2522518a6d9314cf35a01b6f25119782e62a75888f78d10000e8890423c78affffe7890423c78a00001876fbdc3875975752f4e33b24c3dceff4c6a46dc4173eb68630b623f1b6b5ef1d0584397d3391535eb615f58f25f5e154f9d3ae7110504aede2dc37ca8e481016d0c9006f760000e8890423c78a00001876fbdc3875f2a8b439f25bd8ebdf119a7090238fa225717e85c68e190f0982ba0d5cabfde394247a18b5e26bbe1d817609543b3c0451c960f58acf6b97ba06c2c9ba61c0412000000004812812000000000400000012000000200000002e000000340000003d0000004a0000005c0000006700000076000000790000008600000096000000a6000000b1000000c3000000ce00000063616c6c63616c6c5f646174615f636f707963616c6c5f646174615f6c6f616463616c6c5f646174615f73697a6563616c6c6572636f64655f73697a656465706f7369745f6576656e746765745f696d6d757461626c655f646174616765745f73746f72616765686173685f6b656363616b5f3235366e6f777265665f74696d655f6c65667472657475726e5f646174615f636f707972657475726e5f646174615f73697a657365616c5f72657475726e7365745f696d6d757461626c655f646174617365745f73746f7261676576616c75655f7472616e73666572726564051302c094910463616c6cc09d91066465706c6f7906c0e4b282f102c0c3996a00b2016a03ff030704d904e104e005e5056a067506a206da0632078907ca0718085b086708ca08f3080709330948096d098b09cf09d709990aa70aad0bb70bd70b010c980ca00d490e730eb40eba0e0a0f470f760f7c0fae0f26104d10bd10261173117f11af11b511bb11ed11f71113121b123a12a8122c136e137a139913d113e613f0136914c114ca141c15261561156e158515de15e515ec1532174d176b178d17ee17f517fc1722182c1844184d18681818197219ad19ba19011a341a651a7a1a841a2c1b621b701be81bee1b0b1c141c321c491c4f1c601c6a1c831cbb1c061d0f1e291e461e661eb31ec11efa1e2e1f4f1ff91f2d204e20a920b720db20fc204f2155215b21ad21c321b822d222ef220f23a223bc23d9232424a525de250f267326a626ac26b226d426fb262b2749278b279127b127e22700280d2813281d284a286428c428ca28d028f2281d2926295a2963298329c529cb29d429f429282a462a532a592a632a6c2a992ab72a172b1d2b232b452b6c2b9c2bba2bfc2b022c222c532c712c7e2c842c8e2cbb2cd52c0b2d182d4e2d892d922dcd2d342e4a2e7e2e9c2ef22e032fe32ff32f07304c3056309830a530c3302331293160318831a631e731ed311c328732f53263337833df334c349d34e734f5341b3583350e366f368036563766377a37bc37c537ea374a3855388638a438f9380a39d939e939fd39513ab13a653bc33b493cc23cd93ce33c2d3d3e3d5b3da03db53dbf3d553eae3eb43ece3eeb3e383f423fa640b040d140fc4049414f4188419241b241dd41fb410c42164238425c4266428642ae42cc42d942df421b4351437d438e439843c04362446c449044c144df44ec44f2442945694587459845a245c4450f462a464446874605479a47c7471e48a148ab48c748e548034914491e495f498c49aa49db49e849484a974aac4ab64a2b4b834b894ba24bbf4b0b4c154c5c4ddf4d384e904ee14ef14ef74e144f1d4f3b4f464f6a4f744f9f4fc84fff4f6d507750ad50fa501751535161516b5194519e51db51eb51f1510e52175235524c52525263526d528652a952fa52075321534e5362536c53db53e8530454475479547f54a254d45409550f5532557755b45514569c56ec5626573657ef570e58435849586c589e58d358d958f8584f59cb591f5aa55acb5af75a4a5b535b7d5b9f5cc55cd05c195d6e5d775d975da25d105e315e615e675e6d5eac5eb25eb85ef75e955fa35fbb5fe75f18604e602e6134614e616b618b61cd61d361ed610a62106219621f6225622b623e628462d462ee62b863be63d863f563156457645d64776494649a64a364a964af64b564c8640e65806586658c65a965cb65046655665f667566a166ab66cb66d466f4663b6745678967bd67df67316856680a695969636980698969a969ec69f2691f6a526a746a856a8f6ab26ae76a026b356b5a6b646b846b8d6bad6bfb6b086c0e6c2e6c626c846c956c9f6cac6cc66cdf6ce96c096d126d326d546d616d676d876dbe6de06df16dfb6d086e126e256e326e8a6e906ed16e016f6b6f806f8a6faa6fb36fd36f017012701c70357059709b70b070ba702d715d718971af71db710b722d7261726b7288729172b172d372e072e672067339735b736c7376738373d973ee73f8736974ed74157533757a758475a275c47550766e76b4761b779d77bc77f6773078b778e9784b7951795a7976797c7989798f799879b379b979db79f679fc790c7a127a1b7a367a3c7a497a4f7a587a6d7a127b187b317b557b1c7c377c3d7c567c7a7caa7c427d667d6b7ecf7e0e7f4b7fa27fc27f31804f809880a280df800e812c813d81478174819481ae81e081188237827d828a829082b682df82fc8209830f831a833483618380839d83aa83b083d083fa83178424842a8435844b8478849784b484c184c784e784158532853f85458550859f85c885e78504866186d886018720873d874d8756879387c187de87ee87f78710882a886688b48814897689e089218a608a708a3e8b488b338c9b8ce08c2a8d718d8b8db38d808ed58ee38ef98e218fa58fd58f419051917f919d91a7919511e87b10107b15087b163306480102390548010251051c3307800103837783680a070139074801022003480102ac5710821010821508821695111832000039084801025108e608330780010383770a0f28d9089511f07b10087b156489647533082064975010022c057c78017c797c7a027c7b03978808d4980897aa1097bb18d4ba0ad4a8087c79057c7a047c7b067c7c07979908d4a90997bb1097cc18d4cb0bd4b909979920d489027c79097c7a087c7b0a7c7c0b979908d4a90997bb1097cc18d4cb0bd4b9097c7a0d7c7b0c7c7c0e7c780f97aa08d4ba0a97cc10978818d4c808d4a808978820d498037c78117c7a107c7b127c7c13978808d4a80897bb1097cc18d4cb0bd4b8087c7a157c7b147c7c167c791797aa08d4ba0a97cc10979918d4c909d4a909979920d4890a7c78197c79187c7b1a7c7c1b978808d4980897bb1097cc18d4cb0bd4b8087c791d7c7b1c7c7c1e7c771f979908d4b90997cc10977718d4c707d49707977720d487076f776fa86f396f2a7b5a187b59107b58087b57821008821595111032009511d87b10207b15187b161082897b19088289087b19828510828618330820501004e4036f686f59821a6faa821b086fbb787b18787a10787908787898bc38787c1f98bc30787c1e98bc28787c1d98bc20787c1c98bc18787c1b98bc10787c1a98bb08787b1998ab38787b1798ab30787b1698ab28787b1598ab20787b1498ab18787b1398ab10787b1298aa08787a11989a38787a0f989a30787a0e989a28787a0d989a20787a0c989a18787a0b989a10787a0a98990878790998893878790798893078790698892878790598892078790498891878790398891078790298880878780182102082151882161095112832009511a07b10587b15507b16489515608411e06476828718828910828a0882886f776f996faa6f887b18187b1a107b19087b17491138491130491128491120481140208318831a20831b403309ff33070a08821738821830821928821a206f776f886f996faa7b6a187b69107b68087b679551a082105882155082164895116032009511a07b10587b15509515608411e08272827a08827b108277188283828908828c108288186f746fbb6faa6f276f826fcc6f996f387b17187b1a107b1b087b147b18387b19307b1c287b12208318831a203309ff330b2033070a109551a0821058821550951160320082186f888219086f99821a106faa821b186fbb7b1b587b1a507b19487b18408218206f888219286f99821a306faa821b386fbb7b1b787b1a707b19687b18608379836a8317403308020a06955160ff8210980082159000821688009511a0003200951120ff7b10d8007b15d0007b16c8009515e0008411e082bc7b1c4082bc087b1c4882bc107b1c5082bb187b1b585012081193007b183850100a8f016f687b187882186f887b18708218086f887b18688218106f887b18608218186f887b1898008218206f887b1890008218286f887b1888008218306f887b1880008218406f887b18b8008218486f887b18b0008218506f887b18a8008218586f887b18a0008379811a388317603308030a06955120ff8210d8008215d0008216c8009511e00032009511e0fe7b1018017b1510017b160801951520018411e082c67b166082c6087b166882c6107b167082cc187b1c7882bc7b1c3882bc087b1c4082bc107b1c4882bb187b1b5050120c3792007b185850100eb5006f687b18980082186f887b1890008218086f887b1888008218106f887b1880008218186f887b18b8008218206f887b18b0008218286f887b18a8008218306f887b18a0008218386f887b18d8008218406f887b18d0008218486f887b18c8008218506f887b18c0008218606f887b18f8008218686f887b18f0008218706f887b18e8008218786f887b18e0008379811a58831780003308040a069551e0fe8210180182151001821608019511200132008b7910520931c8780883881f8488e05638000001253309500102390a500102ae8a093d085001020133086001028377c887073200009511f07b10087b158475010a03013d074c0102510507501010095010126803951160fd951700027b7098007b7590007b7688009515a0028411e04921b8014921b0014921a8014921a0018317a0010a11018217b0018218b8018219a801821aa001d49808d4a707d487075207600239064c010297672098772095771f8477e09578a000d87807492198017b1880017b17880194777b1790013307409518800150101429fb3307a000646850101621ff8377646833090a01015316401f02492158014921500149214001a0009517600195184001492148015010186f72821778017b1718821770017b1710821768017b170882166001492118014921100149210001c00095172001951800014921080150101a3772821a08821910979720987720d4a608d487075107be01821730017b1738821728017b1728821720017b17301407ffffffff000000007b17207b16e0007b1ae8007b19f000330780009518e0008219187b19f80050101c61fa330660010383670a043a0768010339087001033a096001036f77977a206f88988820d4a8087b18189877206f98978620d467077b17109886204921d8014921d0014921c8014921c001019517c0009518c00150101efcfa8017d4009777208218d800d467074921f8014921f0014921e8014921e00101951900027b98188218107b98088218187b987b97109517e001951800025010203cfb8217288479ff8217308478ff821738821620d27606d46807d49707510776140700000000ffffffff7b1738951700024917384917304917284917209517a0007b1830951820027b19285010226dfa8217b8008218b0008477ff821938d29808d46808951a0002491a58491a50491a48491a408219287ba9688219307ba9607ba7787ba8709517400295186002501024abfa95178000330840501026f2f782179800821890008219880082168000d49707d48609d47909989920d48707977720d4970751075e003308600102838833070128a60033086001028388330701289900491150491148491140140700000000c8f5bc149518407b17583307501028c9f8390850010256181f0b20035001022001330860010283883307013309040a0e016467330850102aa3fc8377330833090a019517603308800050102c52f7821778821970821a68821b603e079801033e099001033e0a8801033e0b8001032818f76467330850102e63fc8378330733093300300a0e280a33093300300a0e01951110fe7b10e8017b15e0017b16d8019515f0019511d0d28411e0641633023295697820014929e0034929d8034929c8038000330740956840244929d00350103408f833074c01027b67f80039074c01025517040728576c9517e08477e064714917184917104917087b67f0004907956700208377600433083300360a02330238956a7820280a330238956a78200181a7040452475bcba58d0a28ac1551473466629959039569782852470a9e38a80a28a71e5147b00de3d0c00d5147598e05d188075247f9530fdb0a2819235247074e71e90a28191152475f53cc0e0a28d826524786e72a220a28fa16524754ec9b310a28b82052471515c5390a283d1c5147b836cc48710b5247aef7914a0a2834165247f498bb4c0a2834145147036f124f0a28121b492a2007492a1807492a1007492a0807956700208377800733003a0a11956a782095ab000733023c28f18b00956a782095ab000750123ce58b0051070628c84e8267f80081775617630728c54e956700208377a0073308040a020195697820959b000782b74082b83882ba2882b930d487077b6af80088a800019498947852080628984e956700208377c0073308240a020195697820959b000782b76082b85882ba4882b950d487077b6ae80088a8000194989478520806286b4e956700208377e0073308440a0201956778208272800795780007828b78828c70828a68d42c07d4ba08d4870752070628434e7c68f8007c69e800ab980628894e7b6af8007b6cd0007b6bd8007b62e0007b68c00054180107289e4d5319030728974d7b69800033076001037b67c80083777b67a00033003e0a048269c800330240282786008269c8005012401f860049294004959b00047bb8387bb7309568ff079588a1047bba283307501042bcf59568ff079588794928200449281804492808040264893307209568ff07958881044929100450104492f59517e08477e07b67f00064713309500102390750010256173f0b200350010240017b69789517e08479e07b69b80064913307600102837783993308407b6788000a09018269b800829718829810829b08829a6f796f8c6fbb6faa8268f0007b8a187b8b107b8c087b899593028267c0007b6bb8007b6a98007b6cb0007b6390007b69a80051070628f02d9567ff0795772104501046edf59567ff079577798270b0038272c0038278a803827cb8038264d000d34007d8400b7b68708269f800d898087b6868da780b8263d800d83c088269e000d3920ad892077b6860daa807d33c08d4a808da8b0751070628c150c93c07c99208826960c99808d8b709c99808c9b707c94009826a68c9a909826a70826bf800c9ba0a956b782095bc00077bcaa8007bc9b0007bc7b8007bc8c000956820288267f00033000c0228c6f5956778284927a00049279800492790004927880095670030837700f90a11956a78280182a7980082a8a00082a9900082aa8800d49808d4a707d4870751070628c54c8267f80081775617430728c24c9567ff07957781073300483302de0428fc8a009567ff07957779957900078298187b68c8008298107b68d8008297087b67d00095670030837720f93308240a020195677828827bc000827ab8008279b0008278a8007b69f0007b6be000d4b9077b68f800d4a808d478089888207b6ae800d4a707977720d48707510706284c4c8267c8009777209877209569ff07959979492900078268d000959a00067ba8e8008268d8007ba8f0009568ff07958861077ba7f800330750104a4af39568ff079588794928e0064928d8064928c8060364893307209568ff07958841074929d00650104c20f33308500102390750010256173f0b200350010240019517e08479e07b69c80064913307600102837783997b68d8003308407b67d00033004e0a09330250281589005012501189007b67b0006fa77b67a8009517e08477e07b67c80064719569ff079599798267e000959a00067ba7c0008267e8007ba7b8008267f0007ba7b0009568ff07958821078267f8007ba7a800330750105289f29568ff079588798267a800958900067b97a0008267b0007b9798008267b8007b979000648a3307209568ff07958801078269c0007ba988065010544cf28268d800818756173f08480840019517e08477e07b67f800647183793308408267d0003300560a0933025828be8900501258ba89007b6ce0006f8b7b6be8006f997b69f0006fa77b67f8008268c8007b87187b89107b8b087b8c9567ff079577e10650105ad7f29568ff0795887995890006829780007b67d8008297787b67d000829770648c7b67c8008267e0009577018878018269e800c89808d48709889901826af000c8a909d8a90a826bf800c8ba0a82cb68067b6bf800956b78287bb8d0007bb7c8007bb9d8007bbae0009567ff079577c1069568402950105c5ff29568ff07958879828750067b67c000828748067b67e0009567ff079577a10633084050105e0cf09569ff079599798292400695980006828c38828b30828728d42b0ad4c708d4a808988820d4ca0a97aa20d4a80851080628a0488268f8007b9808068268c8007b9810068268d0007b9818069568ff0795888106826ad8007b9a20067b67f0007b6be8007b62d8007b6cf800501060d6f08269e8008268f0008267f800826ad800d47a0a140b00000000010000001407e0ffffff00000000d87807949794a7520706282f488387209568ff079588797b6af800648a492800064928f8058268e0007ba8e8059568ff0795886106492af0057b6be0005010626df08269f0008267e0009577c0d879078268e80094878268f800948752070628da477c67c0008e78839740956aff0795aa79492ae005492ad8057ba8c8059568ff0795884106492ad00550106420f03308608267f00050106617f4837833096033070a0e28a31b4929c0024929b8024929b0024929a80295670030837720fb3300680a1133026a2845870050126a41870050126c60870051070628a2488267f800817756170307289f4833076001037b67f80083777b67e00033006e0a048269f800330270281380008269f8005012700b800049296005959b00057bb8587bb7509568c01d7bba48330750107280ef33027495687818014928400549283805492828050264893307209568a01d4929300550107659ef390850010256183f0b200350010240019517e08479e07b69e80064913307600102837783993308407b67c0000a098268e8008287187b67d8008287107b67d0008287087b67c80082877b67e800956778284927e0024927d8024927d0024927c8029567801d9568402b501078ddef9567781895780005828a18828b1082890897a720987720d4b908d48707510706283a224926c0004926a8004926b0004926b800018267e8006f728268c8006f878269d0006f99826ad8006faa951be084b8e0648195ab02d8ab0ac8a90cd89c09daaa09c87909d87907c827077b8c087b8b7b89107b87189567401a7b68e80050107a59ef9567781895780001828ce000828bd800828ad0008289c800d4ca07d4b908d4870751079e017b6ca0007b6bc8007b6ad0007b69d8008267e8008268f00050107c98ef9567201a33084050107edfec956a781895ac000182cbc00082c8b80082c9b00082c7a800502280000b83005108062881458268d80095ab00017bb888008268d0007bb890008268c8007bb898009568001a8269a0007bb9a0007b67f00050208200c3ed8267e000330084000a048269f8003302860028907f8269f80050228600897f956c7818492c2001492c1801492c080102492c2801013a0a2000023a0b280002492c1001492c40017bca80017bcb78013a0a3000023a0b380002492c3801492c30017bca700195ca00017bab687ba9587ba8507ba74864c73308209569e019956ac019956ba019956c8019492760018267f000502088002bf08267a000956878187b87c0008267c8007b87b8008267d0007b87b0008267d8007b87a8008267b8007b87e0008267b0007b87d8008267a8007b87d000648b956760199568401995692019826ac0007bbac80050208a00b26533028c009568781801828700017b67b8008287f8007b67b0008287f0007b67a8008287e8007b67c000018267c0008268b000d487078268b8008269a800d49808d4870751075d8267e00033008e000a048269f8003302900028e37c8269f80050229000dc7c826bb8007b9b8000826bb0007b9b78826ba8007b9b70826bc0007b9b684929a0007b9898007b979000956700199568e0187b9a8800502092000b689567c01833084050209400ecea956a781882a76082a85882a95082ab48502296007581005107062895438267c0007ba7288267a8007ba7308267b0007ba7389568a0188267b8007ba74064b77b6bf8003300960128d9eb492ae005492ad805492ad005492ac8059567002083774006330098000a1133029a002899810050229a0095810050229c007381005107062885448267f80081775617230728824495670020837760063308040a02956a78200182a7000682a8f80582a9f005d48707889801947852080628604482a7e8057b673895670020837780060a0a019567782082742006827a18067b6ab0008272100682700806684768a8958940db470968276808958840db270895878000d44a0adaa709d8870c94ac8ecb8897f000857a01daca0b88b7019577ff9ab89accc9ac0a9a93ef007b68f8008e8c8e78da7c08883c000185cc018ea9dba90cdbb80c7b64a0007b62b800d442088264b000d44009d49808888801d4c808640b948b51080628a9298538ff00826cf800d4c808d47a09d4980852080628922964029539017b69f000889801c8a8087b68e000d49808888801c8c8087b68d000d8c808c887077b67d8009a38ff007b68c8009a89800064077b62a8008268b80050209e004c82007b67c0007b68f8008267b0008268a0008269c8005020a0005782007b6790007b6888008267c8009579808267a8008268b8005020a2003982007b6780007b68788269c800889780007b6798008267a8008268b8005020a400178200826b98008262d000826cd8008269e000d49c0c826af000d42a0ad4ca0a93b77b67e800510a0628b826330b28b7288267f80081775617030728cd4249294002492938024929300249292802956700308377a0fa3300a6000a113302a800280681005022a8000281005022aa00be8000520706289d4233076001037b67f00083777b67c8003300ac000a048269f0003302ae0028dd798269f0005022ae00d6794919207b98187b9710956880187b9a0833075020b00050e93302b200956878180149084918f84918e8026489330720956860184919f05020b4002ce99517e08477e07b67f8006471390850010256183f0b200350010240019517e08479e07b69e80064913307600102837783993308407b67c0000a09826ae80082a71882a81082a90882aa6f776f886f996faa826bf8007bba187bb9107bb8087bb79567782849276002492758024927500249274802956700308377c0fa0a1195677828957900028298487b68e8008298507b68e0008298587b68d8008297607b67d000956740188268f8005020b6006ee9956b781082bac80782b7d00782b8d80782b9e007826cd0007bbc8007826cd8007bbc7807826ce0007bbc7007826ce8007bbc680795bc00077bc9a0007bc898007bc7900095672018956800189569e0177bca88005020b8000161956a781095ab000782b7c00082b8b80082b9b00082baa800956b782895bc00027bc780007bc8787bc9707bca689568e02a8267f8005020ba005ae99567c0173308405020bc00a0e695677810957900078298607b68e8008298587b68e0008298507b68d8008297487b67f800956778284927a00249279802492790024927880295670030837700fb3300be000a11018267e8008268d800d487078268f800648c8269e000d49808d47808988820d49707977720d4870751070628f23e5022c000c27e82b7880082b8900082b9980082baa000956b78107bba400795ba00077ba9387ba8309568a0177ba72864c75020c2002fe78267c8003300c4000a048269f0003302c60028d87a8269f0005022c600d17ad4780298aa206f99979820d4a8089899203a0a400002956778107b7a20073a0a4800023a0b5000023a0c5800027b7a18077b7b1007492700077b7c08077b79f8067b78f00633082095698017956a60177b72e8068267f8003300c800951160ff7b1098007b1590007b1688009515a0008411e082ab7b1b3882ab087b1b3082ab107b1b2882aa187b1a20829a7b1a18829a087b1a10829a107b1a088299187b1964863300062868ea33078268c00028de5a4929200549291805492910054929080595670030837780fd3300ca000a11956a782895ab00053302cc0028277b956a782895ab00055022cc001c7b510706283e448267f800817756172307283144956700308377a0fd3308040a020195677828957c000582c84082c93882ca3082cb287b68587b6a48d48a077b69507b6b40d49b08d4870752070628313f1407ffffffff000000007b676033076001037b67800083777b67383300ce000a043302d00028a9765022d000a67649296003959b00037bb8587bb7509568c0237bba4833075020d20089e53302d4009569782001492940034929380349292803043307209568a023492930035020d60062e59517e08477e07b67f800647133084033075020d8004ee95022da00fa7c3300dc000a09826af0003302de00285f79826af0005022de0058798268f8007b8a187b89107b8b087b87956780235020e00003e69567782080790803826760ab7906288d3e9598017b68708887017b6768d487078877017b6778956760237b69f0008268f8005020e200cbe5956a782080a7ec0282a8f80297772082a9f00282aa0003826b78d4b808826b70d4b707826b68d4b909956b782895bc00057bca607bc9507bc7487bc8589568c02d8267f8005020e40001e68268f0005428fe000828653e956700308377e0fd0a0a019567782882748005827a78057b6ab8008272700582706805684768a8958940db470968276808958840db270895878000d44a0adaa709d8870c94ac8ecb8897f000857a01daca0b88b7019577ff9ab89accc9ac0a9a93ef007b68f8008e8c8e78da7c08883c000185cc018ea9dba90cdbb80c7b64a000d442086424826bb800d4b009d49808888801d4c80864029480510806289c2f8538ff00826cf800d4c808d47a09d4980852080628852f9539017b69f000889801c8a8087b68e000d49808888801c8c8087b68d000d8c808c887077b67d8009a38ff007b68c8009a89800064277b62b00064487b64a8005020e6006e7b7b67c0007b68f8008267b8008268a0008269c8005020e8007a7b7b6790007b6888008267c8009579808267b0008268a8005020ea005d7b7b67307b68288269c800889780007b6798008267b0008268a8005020ec003d7b826b98008262d000826cd8008269e000d49c0c826af000d42a0ad4ca0a93b77b67e800510a0628b52c330c28af2e492ae006492ad806492ad006492ac80695670020837740073300ee000a1101956a782095ab00065022f0009d7851070628e03c8267f80081775617030728dd3c95677820492700074927f8064927f0064927e8069567ff0795776102956860275020f2008ce39568ff07958879958900018297f8007b67e8008297f0007b67f8008297e8007b67f0009567ff07957741023308405020f4002ce1956aff0795aa7995ac000182cbe00082c8d80082c9d00082c7c8005022f600547751080628cb398268e800978820988920492ac0018268f00095ab00017bb8a8008268f8007bb8b0009568ff07958821027bb9b8007b67f800330096012803e295677828491760491758491750491748956700308377c0f80a11956a78280182a75882a86082a95082aa48d49808d4a707d4870751070628f33b8267f80081775617030728f03b9568782849288000491878491870491868019567ff07957721069568e0285020f8008de29568ff07958879958900058297b8007b67e8008297b0007b67f8008297a8007b67f0009567ff07957701063308405020fa002de0956aff0795aa7995ac000582cba00082c8980082c9900082c788005022fc00557651080628cc388268e800978820988920492a80058268f00095ab00057bb8688268f8007bb8709568ff079588e1057bb9787b67f800330096012807e1492ac006492ab806492ab006492aa80695670020837720073300fe000a1101956a782095ab000650220001647851070628123b8267f800817756170307280f3b9567ff0795770102330840502002017fdf956aff0795aa7995ac000182cba00082c8980082c9900082c7880050220401a775510806281e383a08a00002492a8001492a78017ba868019568ff079588e101492a70017b67f800330096012867e0492ae004492ad804492ad004492ac8049567002083774005330006010a1133020801288a7750220801877750220a01037651070628823a8267f800817756170307287f3a95670020837760050a0a95677820827800057b68b800957900048298f8007b68b0008298f0007b68f8008297e8007b67f0009567400333084050200c01adde956b000382b75882b85082b94882ba4050220e01ba725107062857377b6a788263b00068379577408260b8006809da07098264f00068479577408262f8006828da270895878000d4030adaa709d8870c94ac8ecb8897f000857a01daca0b88b7019577ff9ab89accc9ac0a9a99ef007b68d8008e8c8e78da7c088eac7b69c80088990001859901dbac09dbb809d43408d4020bd4b808888801d49808644b948b510806288a3c8268c8008588ff008269d800d49808d47a09d49808520806286f3c826bc80095b9017b69e800889801c8a8087b68e000d49808888801826ad800c8a8087b68d000d8a808c887077b67d8009ab8ff007b68a0009a8980008267f0008268f80050201001c5767b6790007b68a8008267b0008268b8008269a00050201201d1767b6788007b6880008267a0009579808267f0008268f80050201401b4767b67707b68688269a000889780007b6798008267f0008268f8005020160194767b68c0008268e0008269d800d489098268e800826ad000d4a808d49808826a980093a77b67c800520806288d3b64a98267a80082688000d4870764ac826868da98078269b800649a64988269a000db970a7b6aa80082679000826a8800d4a707826a70daca07826bb00064badb970a7b6aa0008267c00093c77b67c000492690008051018267e80095798064b750201801db757b6798007b6880008267f0008268f8008269e80050201a01c1757b67707b6888008268e8009a8980008267b0008268b80050201c01ca7582698800d498088269e800889a80007b6a8800826b8000daab08826bf800db980b7b6bf800826870d4870782689800daa8078268f000db97087b68f0008267b0008268b80050201e0159758264f0008263f8004926b8004926b00082698800939893977b679800826a900095a9ff7b6988008ea99599ff7b6980000198493f973a01d4a909974a018264a800984b3fd4ba0a7b6af800826080006437d39003d89002826b8800d8ab0cdb320c978801826b980098ba3fd4a8087b68f000987a3f97b701d47a0a974701826ba00098b83fd4870297b801826bc00098b33fd4380397b801826bc80098b43fd4480897bb018267b800d47b0b7b6bc8008267b000d478087b68c000d437087b68a000d427077b67a800c9a007d8c707d8a008826cf000c9c00bc98b0bc97b0b99b03f82679000d270078268f800c97804d87808c989039498c98a077b679800d88a08c98c08826ae800826ce000d4ca09889901826bd000d89b02c99b0988ab01c9bc0c826bd800c92b0b95aaff7b6ce0007b6bd800d4bc027b6ae800d49a0bd42b0a840b017b6bb8007b69d0004926b000520ae0fe2852395147b327d0610a28713649192049191849191049190895670030837780f80a1133022001956a78280182a71882a82082a91082aa08d49808d4a707d487075107062889368267f8008177561703072886369567ff0795770105330840502022017cda9567ff07957779957900048298a0007b68f800829898007b68f000829890007b68e000829788007b67e80050202401f7d98267f8008268e000d487078268e800648a8269f000d49808d47808988820d49707977720d4870751070628e4323a098001033a088801033807900103956bff0795bb79492b800495bc00047bc7787bc8709568ff079588e1047bc96864a75020260121db3308208267e800330098012813df492a4005492a3805492a3005492a2805956700208377a005330028010a1133022a0128d07050222a01cd7050222c01077251070628a5358267f80081775617430728a2359567800533002e013302de0428c771826780057b67f000826788057b67e800806790057b67e00095676005330030013302e804280572826760057b67f800492658058267e0007b6750058267e8007b674805956840058267f0007b67400533075020320169da492638054926300549262005073307209568200549262805502034014bda3308500102390750010256173f0b200350010240019517e08479e07b69e00064913307600102837783997b68f0003308407b67e800330036010a093302380128876b50223801846b492618054926100549260805956800058267f8007b670005330750203a01e3d98267c000956a00047ba7f8008267c8007ba7f0008267d0007ba7e8003307209568e0048269d8007ba9e00050203c01b2d98268f000818756173f08480840019517e08477e07b67f80050223e01696d330040010a0933024201288e6b502242018b6b9567c0045020440169da8267d8047b67f8008267d0047b67f0008267c8047b67e8008267c0047b67e0009567a0043308405020460110d8956b000482b7b80082b8b00082b9a80082baa00050224801196c51070628b6308267e000956900047b9780008267e8007b9788008267f0007b979000956880048267f8007b97980064a77b6af8003300960128f2d84929c0014929b8014929b0014929a80195670030837720fa33004a010a1133024c0128227050224c011f7050224e014b70510706289b338267f80081775617430728983395674015330050013302de0428a96f956878108287c8047b67f0008287d0047b67e8008087d8047b67e00095672015330052013302e80428e36f330254019569781001959a000482a7a8007b67f8004929a0048267e0007ba798008267e8007ba79000956800158267f0007ba788003307502056013ad83302580195687810014928800449287804492868040664893307209568e0144929700450205a0111d83308500102390750010256173f0b200350010240019517e08479e07b69e00064913307600102837783997b68f0003308407b67e80033005c010a0933025e01284d6950225e014a693302600195697810014929600449295804492950049568c0148267f8007b974804330750206201a0d78267c00095687810958900047b97408267c8007b97388267d0007b9730648a3307209568a0148269d8007ba92804502064016cd78268f000818756173f08480840019517e08477e07b67f80050226601236b330068010a0933026a0128486950226a0145699567801450206c0123d833026e019568781001958900048297207b67f8008297187b67f0008297107b67e8008297087b67e0009567601433084050207001c1d5956a781082a7000495ac000382c8f80082c9f00082cbe80050227201426c51070628632e8267e00095a900037b97c8008267e8007b97d0008267f0007b97d800956840148267f8007b97e00064b77b6bf80033009601289fd6492a2005492a1805492a1005492a08059567002083778005330074010a1133027601285f6c502276015c6c50227801696b510706285c318267f8008177561743072859319567600433007a013302de0428566d826760047b67f000826768047b67e800806770047b67e0009567400433007c013302e80428946d826740047b67f800492638048267e0007b6730048267e8007b672804956820048267f0007b672004330750207e01f8d549261804492610044926000405330720956800044926080450208001dad53308500102390750010256173f0b200350010240019517e08479e07b69e00064913307600102837783997b68f0003308407b67e800330082010a09330284012816675022840113674926f8034926f0034926e8039568e0038267f8007b67e00333075020860172d58267c000956a00037ba7d8008267c8007ba7d0008267d0007ba7c8003307209568c0038269d8007ba9c0005020880141d58268f000818756173f08480840019517e08477e07b67f80050228a01f86833008c010a0933028e01281d6750228e011a679567a00350209001f8d58267b8037b67f8008267b0037b67f0008267a8037b67e8008267a0037b67e00095678003330840502092019fd3956b000382b7980082b8900082b9880082ba800050229401a86751070628452c8267e000956900037b97608267e8007b97688267f0007b9770956860038267f8007b977864a77b6af8005020960189d43308208267f800502098017fd8837833092033070a0e280a33092033070a0e0149298004492978044929700449296804956700308377e0fc0a1133029a01956a78280195ab000482b77882b8800082b97082ba68d49808d4a707d487075107062846328267f8008177561703072839329567601f8268f00050209c01fdd433029e019568781801958a000682a7f80082a9f00082a8e8007b67e0009777209877207b68e8007b69d800d49808d4870752070628d92e9567401f3308405020a0018dd2956c781895c80006828ae000828bd80082c2d0068287c800d4a209d4b708d49808988820d4b909979920d4980851080628202b492cb806492cb006492ca8067b6ad000140a000000008cfb5cef9568201f7bcac0067b67f8007b6bc8007b62c0005020a20160d333076001037b67f00083777b67b8003300a4010a0401826bf8008267d0008268c800d487071408fcffffff00000000d88b088269c0009498947852080628ac2a8269f0005022a601a866492ca00695cb00067bb898007bb990009568001f7bba88005020a801f8d20a0b8267d8006f779778208269e0006f99989920d498088269e8006f99979a20987720d4a707989920826af0007ba7087ba87aa910956778284927a0044927980449279004492788043308248267f8005020aa01a5d67b67e8003308208267f8005020ac0194d6956978284829a80420959a0004492ae000ff492ad800ff492ad000ff492ac800ff8268f00097882098882014090000000008000000d498029568002d9788209888209569402d979920d4890a8268e80097882098882014090000000024000000d4980b9777209877209568202d978820d4780c3308ff3309ff64270a0151070628b7240a0d01330b20aeb70d0a0d647b9569781828079569781801826af8008267c8008268c0004926e0007b6be800959c00067bcb287bca48492930067bc850492938067bc758492940069567c01e9568a01e826bd0007bcb605020ae01784b826ae0008ea78268e8005022b0017264520906280e2f9567801e8268f8005020b20153d095677818957c000682c82082c91882ca1082cb087b68f8007b6ae000d48a077b69e8007b6bd800d49b08d487075107648267b8003300b4010a048269f0003302b60128b3618269f0005022b601ac61826bf800959c00057bcbe000826be8007bcbd800826be0007bcbd000826bd8007bcbc800492900067bc8f8007bc7f0009567601e9568401e7bcae8005020b801d44c9567201e3308405020ba01b5cf956a781895ac000582c7c00082c8b80082c9b00082cba8005022bc0136665107062857288267d80095a900057b9788008267e0007b9790008267e8007b9798009568001e8267f8007b97a00064b77b6bf800330096012893d0492a6004492a5804492a5004492a4804956700208377c0043300be010a113302c00128b6675022c001b36782b75882b86082b95082ba48d49808d4a707d4870751070628932b8267f80081775617230728902b956700033300c2013302de04283b678267000382680803806910034926f8027b69f0027b68e8029568e0027b67e00233075020c4010cd04926d8024926d0024926c002023307209568c0024926c8025020c601eecf9517e08477e07b67d8006471390850010256183f0b200350010240019517e08479e07b69f80064913307600102837783993308403300c8010a093302ca01284c675022ca0149677b6ce8006f8b7b6bf0006f997b69e0006fa77b67f8008268d8007b87187b89107b8b087b8c9567a0025020cc016ad08267b8027b67d8008267b0027b67d0008267a8027b67c8008267a0027b67c0008267e8009577018878018269f000c8980895697820959a00047ba870d478087ba7688887018268e000c887077ba778d887078268f800c887077ba78000956780029568e0245020ce01ffcf826798027b67b800826790027b67b000826788027b67a800826780027b67a0008268e800958702d88708826af000c88a09d8a90ada880a8268e000c88a0ad88a08826bf800c8b808956b782095bc00047bc8a0007bca98007bc990007bc7880095676002956800255020d00191cf826778027b679800826770027b6790008268e800958703d88708826af000c88a09d8a90ada880a826868027b68e8008268e000c88a0ad88a08826bf800c8b808826b60027b6be000956b782095bc00047bc8c0007bcab8007bc9b0007bc7a80095674002956820255020d20123cf826740027b678800956720023308405020d401e2cc95670002827b38827c30827a28827920d4ba07d4c908d47808988820d4c707977720d48707510706287d258267c0007b6700028267c8007b6708028267d0007b671002956800028267d8007b67180264977b69f8007b6af0007b6bd8007b6cd0005020d601b5cd8268f8008267d800826ad000d47a0a140b00000000010000001407e0ffffff00000000d878078269f000949794a7520706280d258387208268a000956c00017bc8e0008268a8007bc8e8008268b0007bc8f0009568e0018269b8007bc9f8007b6ad8007b6bd0005020d80148cd826bd800826af0008268f8008267d0009577c0d8780794a794b752070628b4248387408268e000956a00017ba8c0008268e8007ba8c800826890007ba8d0009568c001826998007ba9d8005020da01f7cc8269f8001407a0ffffff00000000d879078268f00094878268d8009487520706286024826788009777209878208397604926b8014926b0017b68a0019568a0014926a8015020dc01adcc330880008267f8005020de01a2d083783309800033070a0e282cf87b6ba0007b6aa8007b69b0009567601d3308405020e0013fcb95697818018292000595980004828cf800828bf0008287e800d42b0ad4c708d4a808988820d4ca0a97aa20d4a80851080628d1234929d8044929d0044929c804140a0000000056a5a64d9568401d7b9ae0047b67b8007b6298007b6c90007b6b88005020e20111cc8267e0000a0401826bb8008267980082689000d487071408fcffffff00000000d88b088269880094989478520806286c238269f800829808140700000000240000007b67800081971082996f88978a206f77987720d47a0a9888206f97977920d4980898792083b704956c7818492cc00495cb00047bb9b8007bb8b0009568201d7bbaa8005020e40186cb0a0b8267a0006f779778208269a8006f99989920d4890a8268b0006f88978920987720d497079888207b67788269f8007b97087b6aa8007b9a7b68a0007a981095677828492700034927f8024927f0024927e8023308248267b8005020e60128cf7b67b0003308208267b8005020e80117cf956878284828080320492840034928380349283003492828038268f800978820988920140800000000180000007b6970d489029568602b9788209888209569a02b979920d4890a8268b000978820988820826b8000d48b0b9777209877209568802b978820d4780c3308ff3309ff64270a0151070628d21d0a0d01330c20aec70d0a0d647c9569781828079569781801826ab800826298008267900082688800492698007b6cb000959b00047bbc487bba68492950047bb870492958047bb778492960049567e01c9568c01c7b9280045020ea010544826a98008ea78268b0005022ec01ff5c52090628a8279567a01c8268b8005020ee01e0c89568781801958b000482ba4082b93882b73082b8287b67b0007b6a9000d4a7077b68b8007b699800d49808d4870751070628da1d9567a01b8268f0005020f001caca3302f2019568781801958900038297387b6788008297307b67788297287b67a0009567801b3308405020f40170c89562781895280003828a20828b18828c10828708d4ac09d4b708d49808988820d4b909979920d498085108062807214922f8024922f0024922e8027b6a68140a000000008cfb5cef9568601b7b2a00037b67a8007b6b607b6c585020f6014ac98267e0003300f8010a0401826ba800826768826860d487071408fcffffff00000000d88b088269589498947852080628a4208269f8005022fa01a05c492ce00295cb00027bb8d8007bb9d0009568401b7bbac8005020fc01f0c80a0b8267786f77977820826988006f99989920d498088269a0006f99979a20987720d4a707989920826af8007ba7087ba87aa91095677828492700044927f8034927f0034927e8033308248267a8005020fe019ecc7b67a0003308208267a800502000028dcc95697828959a0004481a0820491a40ff491a38ff491a30ff491a28ff14080000000008000000826970d489029568602c9788209888209569a02c979920d4890a8268a000978820988820826b8000d48b0b9777209877209568802c978820d4780c3308ff3309ff64270a0151070628891e0a0d01330b20aeb70d0a0d647b9569781828079569781801826aa800826760826858492688007b6ba000959c00027bcb687bca8800492970027bc89000492978027bc79800492980029567001b9568e01a826b687bcba000502002028241826a88008ea78268a000502204027c5a5209062825259567c01a8268a800502006025dc6956b781895bc000282c74882c85082c95882ca607bca95ba00017ba9f8007ba8f0007ba7e800826790007bc720826798007bc7188267b0007bc7109567a01a9568801a9569601a826ab8007bca0850200802224095687818958900028297407b67b8008297387b67b0008297307b67a8008297287b67c0002867d89517e08478e06481d89307c87c02d8c209da7709c8b909d8b907c8a7077b82087b837b89107b87189567ff07957761047b687050200a02d5c79567ff07957779827c0004957b000382baf80082b9f00082b8e800826be000d3bc007b6c58d8bc0c8263d800d83a077b6750da070c8264d000d349077b67487b6960d849077b68688262f800d82802826848da8207d33a08d40808da870c510c0628cd22c93a08826958c9b909826a50c9a909d8780ac9a909c97808826760c94707c92707826a68826bf800c9ba0a956b782095bc00077bca88007bc790007bc898007bc9a0009568002882677050200c02a2c78267e800847703826ab8008269b000826ca8005107bf0052170148019517e08478e06481826b9000d8cb07c8790cd89c09da7709c8a909d8a907826a9800c8a7077b68f0007b8c087b8b7b89107b87189567ff079577010450200e02c3c69569ff07959979959b000382b7900082b888008292a00382ba9800826bd000c87b0b826cf800c88c0cd88c08c88b0bd37b09d87b07da98078268d800c8a8088269e000c89202d8a809c82909c88707d88708c8980895697820959a00077bacc8007babd0007ba7d8007ba8e000330740282881009567ff079577e1038268f000502010023dc6956cff0795cc7982c7700382c868038269d000c87909826af800c88a0ad88a08c88909d3790bd87907dab80782c8780382cb8003956c78207bcae8077bc9f0078269d800c88909c897077bc7f807d89707d889088269e000c89b0bc8b808c88707956878287b873307602801c876088267f0005020120245c6286b8267a000330014020a048269c8003302160228fb588269c80050221602f458956bff0795bb798269e00095bc00037bc9408269d8007bc9388269d0007bc9308269f8007bc928492b60037bc8587bc7509567ff079577c1039568ff079588a1037bca48502018023f409567ff079577810333084050201a021cc3956aff0795aa7995ab000382b72082b81882b91082ba0850221c02225751070628bf1b8267f8009569ff07959979959800027b87e8008267d0007b87f0008267d8007b87f8009568ff07958861038267e0007b97000364a77b6af80050201e02f4c38267a000330020020a048269c8003302220228c1558269c80050222202ba55956cff0795cc79492c8002492c7802826a80007bca6802826ac0007bca88023a0a2000023a0b280002492c7002492ca0027bcae0027bcbd8023a0a3000023a0b380002492c9802492c90027bcad00295ca00027babc8007ba9b8007ba8b0007ba7a80064c73308209569ff0795994103956aff0795aa2103956bff0795bb0103956cff0795cce1024927c0028267f800502024023fc633078268880033090a0e33086001028388330728a8378267f80082698800d49707826978dab9078263a000643a8262c800db270a7b6af8008267c00082699000d4970782698000dab907826cb00064cadb270a502226023c5950202802c95a7b6790007b6880008267a8008268b8008269f00050202a02af5a7b67787b6888008268f0009a8980008267b0008268a00050202c02b85a82698800d49808826af00088ab80007b6b880082698000dab9088269b800dba8097b69b800826878d4870782689000dab8078268a800dba70864a97b68a8008267b0008268a00050202e02455a330b330c502230026b588263b8008264a800017b6bb80098493f973a01d49a02974a01826bf80098bb3fd4ba0a7b6aa8008269880064847b62b000d329086430d82903826b9000d8ab02db8302974801987a3fd4a8087b68a000980a3f977701d47a0a8267f800977701826bc00098b83fd4870097b801826bc80098b33fd4380397b801826be80098b43fd4480897bb018267b800d47b0b7b6be800d4c8087b68c800d43c087b68c000d40c077b67f800c9a907d82707d8a9088262a000c9290bc98b0bc97b0b99bc3f82679800d2c7078268a800c97804d878088267b000c987039478c98a07d88a08c98208826af0008260e000d40a09889901826bd000d89b02c99b0988ab01c9b000826bd800c92b0b95aaff7b60e0007b6bd800d4b0027b6af000d49a0bd42b0a84cb017b69d000330c520ae0fe8267e800977701d47b0b0184b7ff826838aa780628651c33076001037b67b00083777b67a800330032020a048269b00033023402282d518269b00050223402265149294001959b00017bb8387bb7309568ff079588a1017bba28330750203602c3c09568ff079588794928200149281801492808010264893307209568ff0795888101492910015020380298c09517e08477e07b677064713308500102390750010256173f0b200350010240019517e08479e07b69f80064913307600102837783997b68e0003308407b67e80033003a020a0933023c0228ea5750223c02e7576f8b6f986fa98267707b69f0007b79187b68f8007b78107b6bd8007b7b087b6cd0007b7c8267a80033003e020a048269b00033024002284b508269b000502240024450492900017b98f8007b97f0009568ff07958861017b9ae800330750204202e2bf9568ff079588794928e0004928d8004928c8000464893307209568ff07958841014929d00050204402b7bf8268e000818756173f08480840019517e08477e07b67c800502246026e53330048020a09826ac80033024a0228d154826ac80050224a02ca5495bc00067bca407bc9387bc8307bc7289567ff07957721019568a02650204c024ec09567ff079577798077a8007b67a0008267a80033004e020a048269b0003302500228774f8269b00050225002704f4929a0007b9898007b9790009568ff07958801017b9a88003307502052020ebf9568ff07958879492880004918784918680564893307209568ff079588e10049197050205402e6be8268e000818756173f08480840019517e08477e07b67c800502256029d52330058020a0933025a0228ef5450225a02ec547b6798006fa77b6790009517e08477e07b67c80064719569ff079599794919604919584919509568ff079588c1008267387b9748330750205c0279be826790009568ff079588797b8740826798007b87388267b8007b8730648a3307209568ff079588a1008269c0007ba92850205e0243be8268e000818756173f08480840011407ffffffff000000007b6798009517e08477e07b67c00050226002ec51330062020a09826ac00033026402283152826ac000502264022a528268c8007b8a187b89107b8b087b879517e08477e07b673064719567ff079577810050206602c6be330a01491660491668330c9568ff079588798287207b6790008287187b6788008269d000c8a909d8a907826bd800c8b7077b69587b6750d49707d8a7078269f800c897077b6748d897078269f000c897077b67408287107b6780008287087b677801330801dac8088267a000d8a707857701330901dac7093307db7809510932044926b8004926f0007b6af8008267a800330068020a048269b00033026a0228714d8269b00050226a026a4d49097b98f8956800107b8768f89568ff07958861956700107b7a60f8330750206c0204bd95670010492758f895670010492750f895670010492748f83307209568ff07958841956a0010492a40f80350206e02d3bc8268e000818756173f08480840019517e08477e07b67d800502270028a50330072020a09330274022858515022740255518267f000956800107b8738f8956800107b8730f8956800107b8728f89568ff079588218267f800956900107b9720f83307502076026bbc8267c000956800107b8718f88267c800956800107b8710f88267d000956800107b8708f83307209568ff079588018269d800956a00107ba900f8502078022bbc8268e000818756173f08480840019517e08477e07b67d80050227a02e24f33007c020a09826ad80033027e0228cc4c826ad80050227e02c54c95687820958c00067bca487bc9507bcb587bc7609567e0079568c02650208002c2bc8267e8078477ff00520702018267e0078477ff826af8005107fd008269f0008e9788a80001858801db97088e978e9bda970b8267b800da780b7b6bd00083a98033070133085020820294537b67f0007b68d8008268f8008d89800033070133085020840253537b67b8007b68c0008169f8007b69c80033073308502086025f53826bb800d47b0b8267f800887a80007b6ab8008269f000daa90b937b7b6bf0008269c000d489098268d800daa80993797b69d80033070133088269c800502088021c53826bd8008262f000647c648a8267b800937c937a8267d000947b9472947a947c82678800d2270782689000d2b80882698000d2a909d49808826978d2c909d49707d4870751071d82689800826af80028078268980001330c95a701d2870a283dfd7b6ac8007b6cd0007b6bd8007b62f0009567c00782687050208a0281bb956a000782a7d80082a8d00082a9c8008262c0073a0ba800028e7c8e8adb7c0ad82b0b8e9cda9b0cd4780bdbba0c520c1982676095770182689800d287077b6760826af80028933a0ab00002c82a0ad82a0bc8b90c95ccffd39c02d89c09da2b09958bffc8b909d8b90b888801c98707c8b70795687820958b00067bba687bbc707bb9787bb780009568e02682677050208c026dbb9517e08478e07b68c00064818267407b87188267487b87108267507b87088267587b879567a00750208e02bfba956c000782c7a0003a08a0000282c9b80082caa80082cbb000c87808d87807c87a0cd8ac0ada770ac8ba0ad8ba07c8970795697820959b00067bb888007bbc90007bba98007bb7a000956800278267c00050209002e9ba82676895770182689800d287077b67688267788269d000d497077b6778826780008269c800d497077b678000826788008269f000d497077b678800826790008269d800d497077b679000826af8002871fe8267308268787b78826880007b7808826888007b7810826890007b78188267a800330092020a048269b0003302940228334d8269b000502294022c4d492698077b6890077b678807956880077b6a8007330750209602cdb849267807492670074926600705330720956860074926680750209802afb88268e000818756173f08480840019517e08477e07b67f80050229a02664c33009c020a09826af80033029e0228134f826af80050229e020c4f7b67f0006f877b67d8006f977b67d0006fa77b67c8009517e08477e07b67f8006471492658074926500749264807956840078267387b67400733075020a00235b88267c800956a00077ba7388267d0007ba7308267d8007ba728330720956820078269f0007ba9205020a20208b88268e000818756173f08480840019517e08477e07b67f0005022a402bf4b0a09826af00082a71882a81082a90882aa6f7b6f886f996faa8267f8007b7a187b79107b78087b7b8268305020a6022cb9956700073308405020a80272b695670007827b18827c10827a088279d4ba07d4c908d47808988820d4c707977720d48707510706280e0f82676882689800d287074926f8064926f0064926e8069568e0067b67e00664977b69f8007b6af0007b6be0007b6cd8005020aa024cb78269f8008267e0008268d800d487071408e0ffffff00000000d88908826af00094a894785108b10e82676082689800d278088397204926d8064926d0067b68c0069568c0064926c8065020ac02fdb68267a8003300ae020a048269b0003302b00228a64a8269b0005022b0029f4ad4780298aa206f99979820d4a8089899204926780649267006492668068267387b676006492698063a0ab800023a0bc000023a0cc800023a07d000027b6ab806956a00067babb0007baca8007ba7a0007ba990007ba888003308409569a006956a8006956b60067b6280068267f8005020b202a6b833078268e80033090a0e33086001028388330728d22a8267f80082698800d49707826928dab9078263a000643a8262c800db270a7b6af8008267c00082699000d49707826930dab907826cb80064cadb270a5022b402674c5020b602f44d7b6790007b68308267b0008268a8008269f0005020b802db4d7b67287b6888008268f0009a8980008267b8008268a0005020ba02e44d82698800d49808826af00088ab80007b6b8800826930dab9088269a800dba8097b69a800826828d4870782689000dab8078268b000dba70864a97b68b0008267b8008268a0005020bc02724d330c33005022be02984b8263a8008264b000017b6cb80098493f973a01d49a0c974a01826bf80098bb3fd4ba0a7b6aa800826988007b6cb0006434d3c903d8c902826b9000d8ab0cdb320c978801987a3fd4a8087b68a000984a3f977701d47a0a8267f800977701826bc00098b83fd4870297b801826bc80098b33fd4380397b801826be80098b43fd4480897bb018267b800d47b0b7b6be800d480087b68c800d430087b68c000d420077b67f800c9a907d8c707d8a9088262a000c9290bc98b0bc97b0b99bc3f82679800d2c7078268a800c97804d878088267b000c987039478c98a07d88a08c98208826af0008260e000d40a09889901826bd000d89b02c99b0988ab01c9b000826bd800c92b0b95aaff7b60e0007b6bd800d4b0027b6af000d49a0bd42b0a84cc017b69d0003300520ae2fe8267e800977701d47c00017b60d000956740233308405020c002feb2956278208223e00295270002827cd800827bd000827ac8008e378ec8db37088eb788a9a08599017b6bf800dbb709d43c077b67d800db780951090628ab0f95a760d8a708826bf800c88b097b6af000d8b90ada880ac8ca0ad8ca08c8830b7b27a8027b29b0027b2ab802330740956820237b2bc0027b6ce0007b63e8005020c202b5b38269f000826ae000d4a9078268f800826be800d4b808d48707987720d4a808978820d487075207190b826740956a782095ab00027bb788008267487bb790008267507bb79800956800238267587bb7a00064975020c4025cb38268f000140a00000000010000001407e0ffffff00000000d878078269f80094978269d80094975107be0a838720956978204929800249297802492970029568e0227b6ae800826ad0007b9a68027b67e0005020c60204b38268f0008267e8009577c0d878078269f80094978269d80094975107730a140700000000ffffffff7b67e800838740956978204929600249295802492950029568c022492948027b67d8005020c802b3b28267383300ca020a043302cc0228a0435022cc029d4349294002959b00027bb8387bb7309568a0227bba2833075020ce0280b23302d00295697820014929200249291802492908020333072095688022492910025020d20259b233084033075020d40251b69518e08488e07b68f8006481837783893308403300d6020a09826af8003302d80228bd48826af8005022d802b6487b67d0006f877b67c8006f977b67c0006fa77b67b8009517e08477e07b67f80064713302da02956978200149290002826778959a00017ba7f8008267687ba7f000956860228267707ba7e80033075020dc02ccb18267b80095687820958900017b97e0008267c0007b97d8008267c8007b97d000648a330720956840228269d0007ba9c8015020de0295b139085001025518400b200350010240019517e08479e07b69d00064913307600102837783993308400a09826ad00082a71882a81082a90882aa6f7c7b6cb8006f8b7b6bc0006f987b68c8006fa77b67d0008269f8007b97187b98107b9b087b9c956720228268f0005020e002edaf330700205022e202594882b7c00082b8b80082b9b00082baa800956b782895bc00057bc7a0007bc898007bc990007bca88009568002e8267f8005020e4025ab29517e0847be07b6bf80064b18267b8009577018878018269c000c89808d48709889901826ac800c8a909d8a90a826cd000c8ca0a7bba187bb9107bb8087bb7956700228268e0005020e60260af95677820827788018477ff7b67f0009567e0218268f8005020e8026fb195697820959a000182a7800082a87882a970956a7828826bf00095ac00057bcba8007bc7c0007bc8b8007bc9b0009568202e8267f8005020ea02b4b19567c0218268d8005020ec02f9ae330700205022ee02654782b76082b85082b95882ba48d48707d4a909d497078e777b67f0009567a0218268f8005020f002f2b0330700205022f202324782b73082b82882b94082ba38847700ff826bf000d4b707956b782895bc00057bc9e0007bcad8007bc8c8007bc7d0009568402e8267f8005020f4022cb18267383300f6020a043302f80228a6405022f802a34049292001959b00017bb8187bb710956880217bba0833075020fa0286af3302fc029569782001492900014929f8004929e80002330720956860214929f0005020fe025faf9517e08477e07b67f80064713308403307502000034bb350220203f746330004030a09826af00033020603286c42826af0005022060365428268f8007b8b7b8c087b89107b8718956740215020080300b0956778208277c800957701826860d287077b67f000956720218268f80050200a03ddaf956a782082a7b00082a8b80082a9c00082aaa8008477ff8488ff8499ff826be800d2ba0a826bf000d4ba0a956b78287bb9000695b900057b98f8007b97f0007b9ae8009568602e8267f80050200c030db09567002133084050200e0353ad956a782082a7a00082a8980082a9900082ab880050221003d8435207fc058267407ba7688267487ba7708267507ba7789568e0208267587ba7800064b77b6bf8005020120346ae826738330014030a04826980003302160328f0418269800050221603e941d4780298aa206f99979820d4a8089899203a0a0000023a0b0800023a0c100002956778207b7a607b7b584917207b7c503a0a180002826b787b7b18826b687b7b10826b707b7b087b7a487b79387b78307b72283308209569c020956aa020956b80204917408267f80050201803f6af9567602033084050201a0372ac956a782082a795ab00ff82b8f80082b9f00082bae80050221c03794052071905956778184927e007826870957b00077bb8c8008268687bb8d000956840208269787bb9d80064a77b6af800330096012857ad9567e01e33084050201e0313ac9567781895790006829880007b68f0008298787b68e8008298707b68e0008297687b67f800330020030a0d3302220328834050222203804052089e0464799877205207950483977b67f0008267f80064987b69e80050202403f5b0956878288269e8007a89e804837795680030838860fd33090a0c956778288177e8042891009567001d3308405020260386ab95677818957900048298a0007b68f000829898007b68e800829890007b68e000829788007b67f800330028030a0d33022a0328f33f50222a03f03f52080e0464799877205207050483977b67f0008267f80064987b69e80050202c0365b0956878288269e8007a8948038377956800308388c0fb33090a0c9567782881774803018268f000ac87c4030a0d0164789877205207b8038267f8007b68f00050202e0320b083788169f0003307010a0e288f098267f8008268a8007b788268787b78088268a0007a78108267e0000a0501510778099567801c33084050203003a6aa95697818018292200495980004828b18828c10828708d42c0ad4b708d4a808988820d4ba0a97aa20d4a80852083e034929f8034929f0034929e803140a00000000e072a6c29568601c7b9a00047b62607b6b587b6c687b6788005020320380ab8267e0000a0401826b8800826760826858d47809140a00000000010000001407fcffffff00000000d87b07826868948794975107d7027b69508269f80082970881981082996f777b6a48977a206f88988820d48a0a9877206f98978920d4790998882083b704956b7818492be00395bc00037bc8d8007bc9d0009568401c7bcac80050203403f8aa826b88008267489577dcd87b078268689487826850948751076a0283b7248268b800956a781895ab00037bb8a8008268b0007bb8b000826898007bb8b8009568201c826990007bb9c00050203603a8aa0a0b8267788268f8007b87088267a8007b878267a0007a87109567782849278003492778034927700349276803330844826788005020380371ae7b67a80082678800330850203a0361ae9569782848298803959a0003492ac000ff492ab800ff492ab000ff492aa800ff14080000000008000000826970d489029568e02b9788209888209569202c979920d4890a8268a80097882098882014090000000044000000d4980b9777209877209568002c978820d4780c3308ff3309ff64270a015207e600956978184929600349295803492950034929480382678800959b00037bb7688267687bb7708267587bb7789567e01b9568c01b826a607bba800050203c036c238267f000491718491710491708490728b0df9567201b33084050203e034ca895677818957900028298c0007b68f0008298b8007b68e8008298b0007b68e0008297a8007b67f800330040030a0d3302420328b93c50224203b63c5208d40064799877205207cb0083977b67f0008267f80064987b69e800502044032bad956878288269e8007a8948048377956800308388c0fc33090a0c956778288177480428c7fc9567001c33084050204603bca795677818957900038298a0007b68f000829898007b68e800829890007b68e000829788007b67f800330048030a0d33024a0328293c50224a03263c520844647898772052073c7b68e80083877b67f0008267f80050204c039fac956878288269e8007a89c803837795680030838840fc33090a0c956778288177c803283bfc009569ff079599794929580449295004140700000000223ab6fc7b9760049568ff079588c10449294804330750204e0345a8390850010256181f142003500102203308600102838828d4033308600102838828ca033308600102838828861c33086001028388287c1c3308600102838828721c3308600102838828681c9569ff079599794929180249291002140700000000c611522c7b9720029568ff079588810249290802330750205003c9a7390850010256181f142003500102203308600102838828580333086001028388284e039569ff079599794929380249293002140700000000223ab6fc7b9740029568ff079588a1024929280233075020520375a7390850010256181f14200350010220330860010283882804033308600102838828fa023308600102838828b61b3308600102838828ac1b3308600102838828a21b3308600102838828981b33086001028388288e1b3308600102838828841b33086001028388287a1b3308600102838828701b3308600102838828661b3302540395697810014929d8064929d006140700000000c611522c7b97e006956840174929c806330750205603c9a6390850010256181f142003500102203308600102838828580233086001028388284e0233025803956978180149291807492910071407000000003bc167cc7b9720079568801f492908073307330062032873a6956778184927580749275007492748076479140700000000717b484e9568c01f7b976007330750205a034aa633025c0395687818014928400749283807492828071164893307049568a01f4929300733006c03281da633025e0395697818014929780749297007140700000000dd7c98e97b9780079568e01f4929680733073300620328eda53308600102838828541a33086001028388284a1a3308600102838828401a3308600102838828361a33086001028388282c1a3308600102838828221a3308600102838828181a33086001028388280e1a52476eeb149c3d0295677828492700014927f8004927f0004927e80095670030837760f90a11956a78280182a7f80082a8000182a9f00082aae800d49808d4a707d487075107fa023308600102838828bc193308600102838828b2193308600102838828a81933086001028388289e193308600102838828941933086001028388288a19330860010283882880193308600102838828761933086001028388286c193302600395697818014929780549297005140700000000920575dd7b9780059568e01d49296805330750206203cfa4330804330750206403c7a8837828673308600102838828241933086001028388281a199569ff079599794929580149295001140700000000635bb2d57b9760019568ff079588c101492948013307502066037ba4390850010256181f1320035001022033086001028388280a33086001028388013307013309040a0e01956778184927b8074927b0074927a8076479140700000000717b484e956820207b97c00733075020680326a433026a0395687818014928a0074928980749288807416489330704956800204929900750206c03fda3330824330750206e03f5a783783307013309240a0e019569ff079599794929580249295002140700000000b878d6f47b9760029568ff079588c1024929480233073300700328b2a39569ff079599794929d8034929d003140700000000b878d6f47b97e0039568ff07958841044929c80333075020700384a3826778817756171f0b8268784808200133070133090482688800330072030a0e015247275914a04a9567782849274001492738014927300149272801956700308377a0f9330074030a113302760328853a50227603823a502278034c3a5107da003308600102838828871752473a6750b6e100956778284927e0014927d8014927d0014927c80195670030837740fa33007a030a1133027c03283a3a50227c03373a50227e03a63851070b0133086001028388283c174926b800018267c800977701826bb800d47b0b01492638034926300349262803956820037b6b2003826778502080039da2330820826778330098012890a6330860010283883307010a0e013307018268c0000a0e013307018268c00033090a0e33086001028388330728e1168267f8008177561763a0003308600102838828bb168267f800817756174378033308600102838828a61652478be3fdf2f305956778284927200649271806492710064927080695670030837780fe330082030a11956a782895ab00063302840328f436956a782895ab000650228403e93652070e8267f8008177561723ee053307330850208603dca583783307012850168267f80081775617239d0633086001028388282a1695676010330088033302de0428b4389567781082787b6870957900ff8298f8007b68688298f0007b68608297e8007b67509567401033008a033302e80428e8389568ff07958879958900078297e0007b67588297d8007b67488297d0007b67408297c8007b67789567201033008c033302ee0428b2389568ff07958879958900078297c0007b67388297b8007b67308297b0007b67288297a8007b672095670030837780f90a0a019567782882722001827b18017b6bb80082741001827a08017b6aa000682768b8958940db2709684768a8958840db470895878000d42b0adaa709d8870c94ac8ecb8897f000857a01daca0b88b7019570ff9ab39accc9ac0a9a99ef008e3c8e07da0c07889c000185cc018ea8dba80cdbb70c7b6498007b62b000d42407826ba0008268b800d4b808d48707887701d4c707947b52077e078597ff00d43707d40a08d4870751076d0750228e0366335020900349387b67a8007b68c8008267b8008268b0008269c0005020920355387b6790007b6888008267c0009579808267a000826898005020940338387b6780007b68188269c000889780007b67108267a000826898005020960318387b68d0008268f0008269e800d489098268f800826ae000d4a808d49808826a1093a77b67d8005108cc0664a98267c80082688800d4870764ac82681850229803213250209a03aa377b67a8007b6880008267a000826898008269f80050209c0390377b67187b6888008268f8009a8980008267b8008268b00050209e0399375022a00376358268185022a20345375020a4035e375022a6035e335022a803f733d89002826b8800d8ab0cdb320c5022aa037c34d4870297b801826bd00098b33fd4380397b801826bd80098b43fd4480897bb018267b800d47b0b7b6bd8008267b000d478087b68d000d437087b68c000d427075022ac033d30d89b02c99b0988ab01c9bc0c826be800c92b0b95aaff7b6cf0007b6be800d4bc027b6af800d49a0bd42b0a840b017b6bb8007b69e0004926b000520a67ff28c005956720143300ae033302f80428c735956778108277a8037b6778956700143300b0033302e80428123695677810827788037b6770956700308377c0f90a0a019567782882726001827b58017b6bb80082745001827a48017b6aa000682768b8958940db2709684768a8958840db470895878000d42b0adaa709d8870c94ac8ecb8897f000857a01daca0b88b7019570ff9ab39accc9ac0a9a99ef008e3c8e07da0c07889c000185cc018ea8dba80cdbb70c7b6498007b62b000d42407826ba0008268b800d4b808d48707887701d4c70764b894787b68e800520791058597ff00d43707d40a08d48707510780055022b203dc305020b403bf357b67a8007b68c8008267b8008268b0008269c0005020b603cb357b6790007b6888008267c0009579808267a000826898005020b803ae357b6780007b68688269c000889780007b67608267a000826898005020ba038e357b68d0008268f0008269e800d489098268f800826ae000d4a808d49808826a6093a77b67d8005108db0464a98267c80082688800d4870764ac8268685022bc03972f5020be0320357b67a8007b6880008267a000826898008269f8005020c00306357b67687b6888008268f8009a8980008267b8008268b0005020c2030f355022c403ec328268685022c603bb345020c803d4345022ca03d4305022cc036d31d89002826b8800d8ab0cdb320c5022ce03f231d4870297b801826bd00098b33fd4380397b801826bd80098b43fd4480897bb018267b800d47b0b7b6bd8008267b000d478087b68d000d437087b68c000d427075022d003b32dd89b02c99b0988ab01c9bc0c826be800c92b0b95aaff7b6cf0007b6be800d4bc027b6af800d49a0bd42b0a840b017b6bb8007b69e0004926b000520a67ff28cf0352474a45080e0a09956778204927200449271804492710044927080495670020837780043300d2030a113302d4032859335022d40356335022d60300315107270933086001028388286810956720243300d8033302de0428f232956778208278b0037b68f0008278a8037b68f8008077b8037b67e8005020da03b5168267f8008268e800d487078268f000d487075107eb08956878284928400649283806492830064928280601956700249568a02e5020dc03829c9568782080879c039777208288a0038269e800d49707956a7828492a6006492a5806492a500695ab0006491b48018269f0007bb9708269f8007bb9687bb880007bb7789567c02e9568e02e5020de03b29c330733085020e003389f8378330728ad0f956720173300e2033302f804282632956778108277a8067b67e00033076001037b67e80083777b67d8003300e4030a048269e8003302e60328092b8269e8005022e603022b4929a006959b00067bb898007bb79000956800177bba880033075020e803c99a3302ea0395687810014928800649287806492868060364893307209568e016492970065020ec03a09a33075001027b67f800390750010256173f0c8268f800480840019517e08479e07b69d00064913307600102837783993308407b67f0003300ee030a09826ad0003302f00328ec30826ad0005022f003e5307b67c8006f877b67c0006f977b67b8006fa77b67b0008267e000977720987920956778104927600649275806492750069568c0167b69d0007b79480633075020f2030b9a8267b00095687810958900067b97408267b8007b97388267c0007b9730648a3307209568a0168269c8007ba928065020f403d7998267f800817756173f0c8267f800480740019517e08477e07b67e0005022f603d62d0a09826ae00082a782a80882a91082aa186f776f8c6f996faa951be084b8e0648195aa0188ab01c8b909d49a0b88bb01c8cb0bd8cb0cc8c7077b89087b8a7b8b107b8718956780167b68e0005020f803559a95677810827708065107bf0695687810828810068489ff005109df063302fa0395697810014929f8054929f005140700000000c884c1c17b970006956860164929e805330733008e042814994926b800018267d800977701826bb800d47b0b01826778aeb79c08956aff0795aa7982672095ac00077bc7288267787bc7488267507bc7688267287bc7308267407bc7508267607bc7708267307bc7388267487bc7588267687bc7788267387bc7408267587bc7609567ff079577e1079568ff079588c1079569ff079599a107826b707bcb80005020fc03be1633086001028388330728fd0c4926b800018267d8009777018268b800d487077b67e800018267e800826870ab784b0833076001037b67e00083777b67b8003300fe030a048269e000330200042851288269e000502200044a2849296003959b00037bb8587bb7509568c0137bba4833075020020414983302040495687810014928400349283803492828030364893307209568a0134929300350200604eb9733075001027b67f800390750010256173f0c8268f800480840019517e08479e07b69d80064913307600102837783993308407b67f000330008040a0933020a0428582c50220a04552c82677897772098792095677810492720034927180349271003956880137b69b0007b790803330750200c0475978267c000956878107b8700038267c8007b87f8028267d0007b87f002648a330720956860138269d8007ba9e80250200e0442978267f800817756173f0c8267f800480740019517e08477e07b67d80050221004412b330012040a09826ad8003302140428df27826ad80050221404d82795687828958c00017bca687bc9707bcb787bc78000956740139568e02950201604d497956778108277c8028477ff51071507956778107c77d002520709078268b000888700017b67a800838980330701330850201804bc2e7b67d8007b68d0008268b0008d898000330701330850201a047b2e8269b000889a80007b6ac000826bd800daab0793977b67d8008267d000daa70893987b68d0008399330701330850201c046e2e8269c00093977b67c80093987b68c0008267b80033001e040a048269e000330220042850268269e0005022200449264929a002959b00027bb898007bb79000956800137bba880033075020220410963302240495687810014928800249287802492868020564893307209568e0124929700250202604e7958267f800817756173f0c8268f800480840018267c0008268a80093877b67c0008267c80093877b67c8008267d00093877b67d0008267d80093877b67d8009517e08477e07b67a80050222804ba2933002a040a0933022c0428202650222c041d264929600249295802492950029568c0128267e8007b974802330750202e0466958267880095687810958900027b9740826790007b9738826798007b9730648a3307209568a0128269a0007ba928025020300432958267f800817756173f0c8267f800480740019517e08477e07b67a000502232043129330034040a09826aa00033023604282e27826aa00050223604272783778002c8670750203804da95956a781095ab000282b71882b80882b92082ba1050223a04942b51073c058267b80033003c040a048269e00033023e0428cb248269e00050223e04c42449290002959b00017bb8f8007bb7f000956860127bbae8003307502040048b943302420495687810014928e0014928d8014928c801066489330720956840124929d0015020440462948267f800817756173f0c8268f800480840019517e08477e07b67a800502246046128330048040a0933024a0428c72450224a04c4244929c0014929b8014929b001956820128267e8007b97a801330750204c040d948267880095687810958900017b97a000826790007b979800826798007b979000648a330720956800128269a0007ba9880150204e04d6938267f800817756173f0c8267f800480740019517e08477e07b67a00050225004d527330052040a09826aa0003302540428d225826aa00050225404cb258377e001c86707502056047e943307001050225804be2a82b77882b86882b9800082ba7050225a04352a5107270433025c0495697810014929580149295001140700000000f08982c97b9760019568c01149294801330733008e042838935247589c724026069567782049276005492758054927500549274805956700208377c00533005e040a113302600428ec2850226004e92882b75882b86082b95082ba48d49808d4a707d487075107240633086001028388284f078267f8008177561723250633086001028388283a073302620495697820014929780349297003140700000000c8f5bc147b9780039568e023492968033307330062032899923302640495697810014929f8044929f0041407000000006d53a9a77b970005956860154929e804330733008e042869921409ffffffff000000007b69c800956a781082a9180682aa2006868801956b782895bc00017bc7e8007bc9f8007bc8f0007bba00029568602a8267e000502066049c938267d800330068040a048269e80033026a04282a228269e80050226a0423224929e005959b00057bb8d8007bb7d000956840167bbac800330750206c04ea9133026e0495687810014928c0054928b8054928a805026489330720956820164929b00550207004c1919517e08477e07b67e00064718267f800817756173f0c8268f800480840019517e08477e07b67f80050227204b425330074040a09826af8003302760428bd24826af80050227604b6248268e0007b8b7b8c087b89107b87189567001650207804519295677810827788058268c800c88707d287077b67f8009567e0158268e00050207a042d92956a781080a76c0597772095ab000582b8800082b97882ba70826bf800d4b707956b782895bc00027bc8207bc9187bca107bc7089568802a8267e00050207c046c928267d80033007e040a048269e8003302800428a2248269e800502280049b24d4780298aa206f99979820d4a808989920826ad000956778107b7a08053a0a6000023a0b6800023a0c7000027b7a60057b7b580549272005957b00057bbc503a0a7800024927180549271005492740057bba487bb9387bb8309569c015956aa015956b80157b7228053307330850208204a492283c039569ff079599794929980749299007140700000000d94b11cf7b97a00795680010492988073307502084043790390850010256181f142003500102203308600102838828c6eb3308600102838828bceb3302860495697810014929780349297003140700000000635bb2d57b9780039568e01349296803330750208804e58f390850010256181f14200350010220330860010283882874eb33086001028388286aeb33028a0495697810014929b8024929b0021407000000006d53a9a77b97c002956820134929a802330733008e04288f8f33028c049569781001491918491910140700000000b6e2a4af7b972095688010491908330750208e04678f8267f800817756171f0c8268f800480820013307013309048268f0000a0e018267b800330090040a048269e0003302920428491f8269e00050229204421f49294001959b00017bb8387bb7309568a0117bba283307502094040c8f330296049568781001492820014928180149280801066489330720956880114929100150209804e38e8267f800817756173f0c8268f800480840019517e08477e07b67a80050229a04e22233009c040a0933029e0428481f50229e04451f492900014929f8004929f000956860118267e8007b97e80033075020a0048e8e82678800956878107b87e000826790007b87d800826798007b87d000648a330720956840118269a0007ba9c8005020a2045b8e8267f800817756173f0c8267f800480740019517e08477e07b67f8005022a4045a223300a6040a09826af8003302a804285720826af8005022a804502083772001c867075020aa04038f956a781082a7a80082a8b00082a9b80082aac000826bc800d4b707826bc000d4b808826bd800d4b909826bd000d4ba0a956b782895bc00017bcaa0007bc998007bc890007bc788009568002a8267a8005020ac042e8f8267b8003300ae040a048269e0003302b00428881f8269e0005022b004811f956c7810491c40491c38491c30826ae8007bca28826ab0007bca483a0a8000023a0b880002491c60491c587bcaa0007bcb98003a0a9000023a0b980002491c50492c80007bca90007bcb88007bc9787bc87064c895690011956ae010956bc010956ca0107b8768330733085020b2042b9033078268f00033090a0e3308600102838833072894015247628718686e0195677828491740491738491730491728956700308377a0f80a11956a78280182a73882a84082a93082aa28d49808d4a707d4870751076f01330860010283882839018267f8008177561723720133086001028388282401956780013300b4043302de0428ae23826780018268880180699001492678017b6970017b686801956860017b67600133075020b6047f8c4926580149265001492640010433072095684001492648015020b804618c33075001027b67f800390750010256173f0c8268f800480840019517e08479e07b69e800649133076001027b67f000837783993308403300ba040a09826ae8003302bc04286321826ae8005022bc045c2195bc00047bca407bc9387bc8307bc728956720019568a0245020be04e48c8067200149261801492610017b6700013307800095680001492608015020c004d08b8267f800817756279f00188268f8004808a0008267f000837880002844b78267f000837880002839b78267f80081770151072b330860010283880133070133090a0e3308600102838833070133090a0e33086001028388330728f333086001028388330728e88267f800817756176379013308600102838833070128d1956740063300c2043302de04284b22826748067b67f000826740067b67f800806750067b67e8005020c40412068267f8008268e800d487078268f000d48707510743021407ffffffff000000007b67e0009567782049278005492778054927700549276805956720069568e0255020c604d28b826830067b68c800826728067b67d800826720067b67d000826738069888209788208269e800d49808956978204929a005492998054929900549298805826af000959b00057bbab000826af8007bbaa8007bb7c0007bb8b80095670026956820265020c804ec8b8267d0008477ff8269d8008498ff8269e000826ac800d2a9094926d805826ae800956b00057bbad000826af0007bbac800826af8007bbac0004926f8057bb9f0007bb8e8003a08d800023a09e000023a0ae800027bb7e000956c00067bc8187bc9107bca083a07f0000295690006956ae005956bc0057bc7330733085020ca04348c330860010283883307286afe9567ff079577c1053300cc043302de0428df209568ff07958879958900058297487b67f8008297507b67f0008297587b67e8008297607b67e0009567ff079577a1053300ce043302e804280a219568ff07958879958900058297287b67d8008297307b67d0008297387b67c8008297407b67c0009567ff07957781053300d0043302ee0428d020956bff0795bb7995bc000582c70882c81082c91882ca207bbac0047bb9b8047bb8b0047bb7a8048267c0007bb7e0048267c8007bb7d8048267d0007bb7d0048267d8007bb7c8048267e0007bc78267e80095bc00047bc7f8008267f0007bc7f0009567ff07957761059568ff07958841059569ff0795992105826af8007bcae8005020d20411073308600102838833072850fd4926b0054926a8054926a005140700000000920575dd9568a0057b67b80533075020d404ab88390850010256181f1420035001022033086001028388283ae4330860010283882830e49511c07b10387b15307b16289515408411f0828910828a18828b088288d4ba0ad4980bd4ab0b98bb20d4a909979920d4b90952091e647664175020d6040f875022d804eb1d510a0c5022da04df1e3200003308600102838833070133093300dc040a0e3302de0428251f5022de04221f3300e0040a023302e20428b01d5022e204ad1d510a0b5022e404a11e32003308600102838833070133093300e6040a0e3302e804284d1f5022e8044a1f3308240a0201821718821810821908d4780a889b0194ab510b0d821a5022ea04951c32003308600102838833070133093300ec040a0e3302ee04280a1f5022ee04071f3308443300f0040a023302f20428f91d5022f204f61d520b0b5022f404551c32003308600102838833070133093300f6040a0e3302f80428651e5022f804621e3300fa040a023302fc0428bc1d5022fc04b91d520b0b5022fe04181c3200330860010283883307013309330000050a0e019511907b10687b15607b16589515708411f0828a187b1a08829b1882847b14828a08829608829c828310829210c8a609c8c404d8c40cc8c909d36900d86906da0c06c83208821c08c8bc0cd8280bc8cb0bc8680cd88c08c88b00d3a90bd8a90a8218d88406dbba06d83c02821808d3800bd8800adab20ad33c08d4b808db8a0652061f7b747b79087b7c107b70189551908210688215608216589511703200502202056f1d502004057c8649112849112049111011330704951810491118502006056386390850010256183f0b2003500102400133086001028388330701330924330008050a0e01951170ff7b1088007b1580007b1678951590008411f064728289827408828c088273959a1fd89a00c80c0984aae07b1308c8a303d8a30bc8490ac8ba0ad39a06d89a07da6b07822b18d8c90c828610822210828818da000cc86c0cd86c06c82c09c89707d8c90cd89709c8b808c86808c8c808c8980c8ec88e79dbc809d4c7088ea6db8906520657821808d88308d34a09d84a06da9806d82708d3bc09d8bc0bda980bd32708d49808da860b520b307b13507b1a587b17603307409518507b1c6850200a057885955170ff821088008215800082167895119000320050220c054a1c50200e05578549112849112049111041330704951810491118502010053e85390850010256183f0b2003500102400133086001028388330701330924330012050a0e01951160ff7b1098007b1590007b1688009515a0008411e04911784911704911684911600195174095186050201405dc858217487b17188217407b17108017507b1708330660010383670a04013a076801033a0860010339097001036f77987a206f88978b20d4ba0a9777206f99989920d49707988820821908d39808821910d39707d48707821818d3a808d48707520719955160ff8210980082159000821688009511a0003200491130491128491120140700000000c583c45f9518207b17383307502016055284390850010256181f0b2003500102200133086001028388330701330904330018050a0e019511a0fe7b1058017b1550017b164801951560018411e082897b19388289087b19308289107b19288288187b182082787b18188278107b18108276080a0b6f68978920821a106faa98aa20d4a909988820821a186faa330b60010397ac20d4c80898aa203d0a7001033e086801033e096001038218207b18f8008218287b18f0008218307b18e8008218387b18e000482100018e77fc089a787b1838017b1830017b1828017b18200197bb2098bb20977723d4b7079518e000978820988820330b60010295192001979920d4890a7b1b0897bb2098bb2095180001978820d4b80c3308ff3309ff0a64760a0d01510714017b16100a0d64769517c00033084050201a05ef818212d800821cd0007b1c308213c8007b13388214c0007b142895671f7b1618d867088477e0957920d87907c8780ad88a0bda770b492198007b19800064267b12b8007b1cb0007b13a8007b14a0007b1a88009517a000951880007b1b900050201c058cfc8217287b1620821938d46909821a30d4a708d49808988820d4a909979920d49808520890004911784911704911689518608219187b1960647650201e0586820a0d01821820821930d498081409e0ffffff00000000d89609821b3894b99489510952646a647698772052074883a72083687b18386468502020054c867a16400183778318400133090a0c0181174001821610821838ac871c52061a9551a0fe8210580182155001821648019511600132000049115049114849114014070000000018ecb8909518407b1758330750202205f281390850010256181f0b20035001022001811808330701330904330024050a0e01951108f8951a00077ba0f0007ba5e8007ba6e0009515f8079511f8fd8411e0641682997b69900082887b68688279827808807710956a0010492a18f87b679800956a00107ba710f87b68a000956700107b7808f89568ff079588017b69a800956700107b7900f833075020260563814926f8074926f0074926e007033307209568e0074926e8075020280545813308500102390750010256173f0b200350010240019517e08479e07b698800649133076001027b6730837783997b68b0003308407b67b80033002a050a09826a880033022c05288f17826a880050222c0588177b6788006f877b6780006f977b67786fa77b6760826790009777209877204926d8074926d0074926c8079568c0077b67707b67c007330750202e05b580826760956a00077ba7b8008267787ba7b000826780007ba7a8003307209568a007826988007ba9a0005020300586808268b000818756173f08480840019517e08477e07b679000502232054a14330034050a09826a900033023605282711826a9000502236052011956800107b8a20f8956800107b8928f89568ff079588317b8b7b8708956780079568ff07958821502038051281826780075107060f826870888700017b6760838980330701330850203a050f187b6788007b6890008268708d898000330701330850203c05cf17826970889a80007b6a8000826b8800daab0793977b67880082679000daa70893987b6890008399330701330850203e05c3178269800093977b677893987b688000492678078267a8007b6760078267a0007b67680795686007826798007b6770073307502040057d7fff492658074926500749264007053307209568400749264807502042055e7fff8268b000818756173f08480840018267800082686093877b67800082677893877b67788267900093877b6790008267880093877b6788009517e08477e07b676050224405f912330046050a093302480528bd1050224805ba108267688477ff492638074926300749262807956820077b67687b672007330750204a05df7eff826740956a00077ba7188267487ba7108267507ba708330720956800078269587ba950204c05b67eff8268b000818756173f08480840019517e08477e07b675850224e057a12330050050a09330252052833115022520530119567e006502054056d7fff956b000682b7f00082b8e00082b9f80082bae80050225605c8125107720d4926d8068267a8007b67c0068267a0007b67c8069568c006826798007b67d006330750205805347eff4926b8064926b0064926a006073307209568a0064926a80650205a05157eff8268b000818756173f08480840019517e08477e07b676050225c05d91133005e050a0933026005289d0f502260059a0f492698064926900649268806956880068267687b678006330750206205c57dff826740956a00067ba7788267487ba7708267507ba768330720956860068269587ba960502064059b7dff8268b000818756173f08480840019517e08477e07b6758502266055f11330068050a0933026a0528181050226a0515109567400650206c05527eff956b000682b75082b84082b95882ba4850226e05b1115207830c492618068267a800956900067b978267a0007b970895680006826798007b97103307502070051d7dff4926f8054926f0054926e005073307209568e0054926e80550207205fe7cff8268b000818756173f08480840019517e08477e07b676050227405c210330076050a093302780528860e50227805830e4926d8054926d0054926c8059568c0058267687b67c005330750207a05ae7cff826740956a00057ba7b8008267487ba7b0008267507ba7a8003307209568a0058269587ba9a00050207c05807cff8268b000818756173f08480840019517e08477e07b675850227e054410330080050a093302820528fd0e50228205fa0e9567800550208405377dff826780058268880582699005826a9805826b78d4b707826b8000d4b808826b8800d4b909826b9000d4ba0a956bff0795bb317bba287bb9207bb8187bb7109568ff0795884182676050208605697dff49267805826798007b6770058267a0007b676805956860058267a8007b676005330750208805cd7bff49265805492650054926400502330720956840054926480550208a05ae7bff8268b000818755174008480840019517e08477e07b676050228c05720f0a09826a6082a782a80882a91082aa186f726f8c6f996faa9517e08478e064817b6a1095a701887a017b6918c8a90bd4b709889901c8c9097b6c20d8c90a7b6228c82a0a7b8b087b877b89107b8a18956720057b685850208e05267cff82623805956b000582b83082b9203a07f8000282ba28d4280b7b6760d8790c94ac94bc520c720a3a0b000102c89b0bd89b09c89a0c95ccffd3ac07d8ac0ada790a9587ffc87a0ad87a07888801c98208c887079568ff079588317b8b307b8c387b8a407b87489568ff0795886182675850209005307cff4926180582679800956900057b97108267a0007b9708956800058267a8007b97330750209205947aff4926f8044926f0044926e004063307209568e0044926e80450209405757aff8268b000818756173f08480840019517e08477e07b675850229605390e330098050a09826a5833029a0528da10826a5850229a05d4107b67506f877b67486f977b67406fa77b67389517e08477e07b675864714926d8044926d0044926c8049568c0048267687b67c004330750209c05027aff826738956a00047ba7b8008267407ba7b0008267487ba7a8003307209568a0048269507ba9a00050209e05d479ff8268b000818756173f08480840019517e08477e07b67505022a005980d3300a2050a09826a503302a40528d10d826a505022a405cb0d8268587b8a187b89107b8b087b87956780045020a605777aff956b000482b7900082b8800082b9980082ba88005022a805d20d510717031407ffffffff000000007b67b0009567ff079577314927e8004927e0004927d8004927d000956760049568ff07958801015020aa05217aff956a000482a76882a87082a9608477ff826bb000d2b8088499ffd49808d487075107b2059567ff0795773149272801492720014927180149271001956740049568ff07958841015020ac05d379ff956a000482a74882a85082a9406f77977a206f88988820d4a80b9877206f98330a600103978920d497079888207b68583d087001037b67503e076801037b6b783e0b6001037b6a800083a70a050151071c08956720043308405020ae054777ff956b000482b93882ba3082b72882b8207b67b0007b699000d497077b68b800d4a808d478089888207b6a8800d4a707977720d48707520734074926100449260804492600041407000000002e77c9ad956800047b6718048267b8005020b0051f78ff8267900082698800d47909140700000000010000007b67401407fcffffff000000008268b800d878078268b00094877b694894975107d3068267b8008377044926f8038268a800956a00037ba8e0008268a0007ba8e8009568e003826998007ba9f0005020b205b577ff8267409577dc8268b800d878078268b00094878268489487510785068267b8008377244926d8034926d0034926c8039568c0038269607b69c0035020b4057477ff0a0b826880008267507b87088267787b878267587a87109567ff079577314927480149274001492738018268607b7830013308448267b8005020b605387bff7b67788267b80033085020b805287bff9569ff0795993148295001959a0001492a8800ff492a8000ff491a78ff491a70ff8268800097882098882014090000000008000000d498029568ff07958861019788209888209569ff079599a101979920d4890a82687897882098882014090000000044000000d4980b9777209877209568ff0795888101978820d4780c3308ff3309ff64270a015207cf04492678034926700349266803492660038267b800956a00037ba780008267b0007ba78800826788007ba790009567800395686003826990007ba998005020ba051df02897035020bc05bf74ff3a088001037b6890003a089001037b6888003a078801037b6780000a0b826880006f88978920826a88006faa98aa20d4a909988a20826890006f8b330860010397bc20d4ca0a98bb203d0b7001033e0a6801033e09600103956aff0795aa31491a68491a60491a588269607ba950481a708e77fc089a797ba9a8007ba9a0007ba998007ba99000978820988820977723d487079568ff07958881009788209888209569ff079599c100979920d4890a826b3097bb2098bb209568ff079588a100978820d4b80c3308ff3309ff0a7b6790000a0d0151073f010a0d7b6758956760023308405020be052874ff826c78027b6c78826270027b6250826368027b638000826460027b64880082685895871fd887088477e0957920d87907c8780ad88a0bda770b492638027b692002956900027b9c587b6250027b6348027b6440027b9a2895674002956820027b9b305020c005c0ee8267880082687882698000d48909826a50d4a708d49808988820d4a909979920d498085208bf03492618024926100249260802956800028269587b6900025020c205b574ff0a0d01826a8800826878826950d498081409e0ffffff00000000d89a09826b800094b9948951097803647898772052076f0383a72064897b68800083887b68880064985020c4056e78ff9568ff07958831826980007a89b0008377956800108388e0f833090a0c019567ff079577318177b00082688800ac872603826790005207cb039567c0013308405020c605ea72ff956b000182b7d80082b8d00082b9c80082bac0005022c805f2065207f2024926b8014926b0014926a8019568a0018267607b67a00164a77b6ab8005020ca05e273ff4926380149263001492628018267687b6720014926580149265001492648018267707b67400149267801826798007b6770018267a0007b6768013a072801023a083001023a09380102826aa8007b6a60017b6798017b6890017b6988013a0740010233082095698001956a6001956b4001956c20017b6780018267b8003300d605285a76ff9517e0847ce064c1826810958702d88708826a18c88a09d8a90ada880a826820c88a0ad88a08826b28c88b0b64c87b6cb8007bc9087bc77bca107bcb18956740035020cc050774ff956b000382b74082b85882b94882ba50826b60c87b0bd87b07c8790cd89c09da7709c8a909d8a907c887079568ff079588317b8bf0007b8cf8007b8900017b8708019568ff07958821018267b8005020ce053374ff956720033308405020d0057871ff956b000382b73882b83082b92882ba205022d205840552078401492618034926100349260803956800038267607b67000364a77b6ab8005020d4057472ff4926980249269002492688028267687b6780024926b8024926b0024926a8028267707b67a0024926d802826798007b67d0028267a0007b67c8023a070801023a081001023a09180102826aa8007b6ac0027b67f8027b68f0027b69e8023a072001023308209569e002956ac002956ba002956c80027b67e0028267b8005020d605f074ff955100f8951100fe95110802951700078270f0008275e8008276e0009511f80732009567a0033308405020d8058670ff956800038287b8007b67b0008287b0007b67a8008287a8007b67a0008287a0007b67b8000a0d018268b0008269a000d49808826aa8008269b800d4a909d48909989920d4a808978820d4980852085c98782052085664787b67a80083777b67b0008267b8005020da055775ff9568ff079588318269a8007a8990018377956800108388c0f933090a0c019567ff07957731817790018268b000ac870f0a0d0164789877205107f700004926d0004926c8004926c0001407000000006d53a9a79568c0007b67d80033073300dc0528ec70ff4926f0004926e8004926e000140700000000b6e2a4af9568e0007b67f80033073300dc0528c470ff49263006492628064926200614070000000000f90f56956820067b67380633073300dc05289c70ff492610014926080149260001140700000000b878d6f4956800017b67180133073300dc05287470ff3307018268b80033090a0e014926f0014926e8014926e00114070000000018ecb8909568e0017b67f80133075020dc054470ff8267b000817756171f0c8268b000480820013307013309048268b8000a0e018267b8007b68b0005020de051974ff83788169b0003307010a0e33073300e005283674ff33075020e0053074ff3307015020e2052674ff82970881981082996f77977a206f88988820d48a0a9877206f98978920d4970798882095697810320282970881981082996f77977a206f88988820d48a0a9877206f98978920d497079888209569ff07959979320282970881981082996f77977a206f88988820d48a0a9877206f98978920d49707988820956978183202826aa80082a71882a81082a90882aa6f777b67a0006f877b6798006f977b6790006fa77b6788009517e08477e07b67a800647133077810c87609320282a782a80882a91082aa186f776f886f996faa95aa0188ab01c8b909d49a0b88bb01c88b0bd88b08c8870732028269800082970881981082996f77977a206f88988820d48a0a9877206f98978920d497079888209569782032027b67c800c9a007d8c707d8a008826c9800c9c00bc98b0bc97b0b99b03f82679000d270078268a000c97804d87808c989039498c98a077b67a800d88a08c98c08826af800826cf000d4ca09889901826be0003202826ae00082a71882a81082a90882aa6f777b67d8006f877b67d0006f977b67c8006fa77b67c0009517e08477e07b67e00064713202826a6082a71882a81082a90882aa6f777b67586f877b67506f977b67486fa77b67409517e08477e07b67606471320282970881981082996f7a97a7206f88988820d4870798aa206f99979820d4a8089899203202826af80082a71882a81082a90882aa6f776f8b6f996faa8268e0007b8a187b89107b8b087b87320282a71882a81082a90882aa6f776f8b6f996faa8268a8007b8a187b89107b8b087b87330700103202da98078269b000649a64988269c000db970a7b6ac8008267a800826a9000d4a707826a8000daca07826bb80064badb970a7b6ac0008267d00093c77b67d000492690008051018267f80095798064b73202826a5882a71882a81082a90882aa6f776f8b6f996faa8268607b8a187b89107b8b087b873202888820858801dba7088ea78ea9daa709d4aa07da78093202d49707d48a09d47909989920d48707977720d4970732029598017b68f800888701c8a7077b67f000d48707887701c837077b67e000d83707c807077b67e8009a98ff007b68c0009a8980008267a00082689800320282a782a80882a91082aa186f776f886f996faa95ab03d8ab0ac8a90cd89c09daaa09c88909d88908c8870732028268f0008269e000d49808826ae8008269f800d4a909d48909989920d4a808978820d49808320282970881981082996f77977a206f88988820d48a0a9877206f98978920d4790998882083b704330b7818c8b60c320282970881981082996f7a97a7206f889888203202647183793308408267e8003202647183793308408267b80032028264a000826398004926b8004926b00082698800939893977b67a800826a900095a9ff7b6988008ea99599ff7b6980003202647183793308408267f000320282a71882a81082a90882aa6f776f8b6f996faa320282970881981082996f77977a206f88988820d48a0a9877206f98978920d497079888203202826b8800d2b707826b78d2b808826b9000d2b909826b8000d2ba0ad4a909d48707d49707320298493f973a01d4a909974a018264c800984b3fd4ba0a7b6aa000826080006437d390033202826ad80082a71882a81082a90882aa6f777b67d8006f877b67d0006f977b67c8006fa77b67c00032027b6a7b69087b68107b67189551c0821038821530821628951140320282b71882b82082b91082ba08d49808d4a707d487073202d49b0bd48709d4b909989920d4b808978820d498083202978801826ba80098ba3fd4a8087b689800987a3f97b701d47a0a974701826bc00098b83f320282a71882a81082a90882aa6f776f886f996faa956b78203202d49707d48b09d47909989920d48707977720d49707320282ab7b1b1882ab087b1b2082ab107b1b2882aa187b1a308296829a087b1a829a107b1a088299187b1910320282171082181814090000000001000000d37909d48909987a2088aa01948a939a320282b7d80082b8e00082b9d00082bac800d49808d4a707d48707320233077820c8760a95ab0005320282698800d498088269f800889a80007b6a8800826b8000daab08826b9800db980b7b6b980032028269880093989397826a980095a9ff7b6990008ea99599ff7b6988003202826ac80082a71882a81082a90882aa6f777b67c0006f877b67b8006f9732027b6ac00093b87b68c800492698008051018267f00095798064c764383202821718821810821908821ad4790bd48a0cd4bc0c98cc20d48b0b97bb20d4cb0b320282a71882a81082a90882aa6f7732028219821a087b697b6a087b67107b68189551c08210388215308216289511403202826bd800d2b707826bc800d2b808826bd000d2b909826bc000d2ba0ad4a909d48707d497073202491140491138491130140700000000717b484e9518307b1748330732029511c07b10387b15307b16289515408411e064768317330804320282b73882b84082b93082ba28d49808d4a707d487073202837778c8760a95ab0001320233077820c8760a95ab0004320233077828c8760a95ab0001320233077828c8760a95ab000232029511c07b10387b15307b16289515408411e064768317320282b7b80082b8c00082b9b00082baa800d49808d4a707d487073202826af80082a71882a81082a90882aa6f7c32029518e08488e07b68f0006481837783893308403202d487078268a800daa8078268a000db97087b68a0008267b8008268b0003202849a40520a195109148d9a40cfa80ad09808d09707d4a707320032009597c0d0780733083200849a40520a195109148d9a40d0a70acf9707cf9808d4a808320032009598c0cf870833073200490a21a11a4292d210a1925429a42449922449922449922449922449922449922449922449922449922449922449aa9294529294942454a5242549922449922449922449922449922449922449922449499294a4aa24254994a492a42a494992922425294955559292a4249524554a2949524a29492a2922228a88889424498284524949499122458a142952a428491111514444a4244952922409128a8a142952a4489122458a142952a44891a2448a888892244108094369521a12212222221111d18888241192241211452244a16a88082222442291880822222449129148248044444422840a219492a42489881011229188089124252224499224012492241209114912499224494488848888244992a12494240920298408869256a84a842409218454a852a511111129312248440811224949a28852a2c40824200209080824904002092490804002092422222245242282248a44a4114992884a22d2882449442511694424499244241111118944882245228288242285484428111192288408268942251a49aa8a242522222289089188884812492291244992244992249188888888484444441423229224512422119148241211694444442492449224924844444444142211a1444408218249142a1229114491449188888888882844222222a24444842832894aa444104551449222422422122922892491442222222222422422222221129124499224111111111111112122220104904a1289222222224244124549944844444448845289888848892048a2488822452282882452488c08252284082651a8449148248a8888880811499224898818455194942449929288101111912422222242244444440492888888888808228a480411114208111121444424498988880822222222222222a288880822464444448c4844928822124144241289888808224124492089442211292211111151442090449188142322298944342222a2924a2249459254222a919288449254129124299144924822228a0844444420221211884444442022229114498922111111514420908428a2884490245210b14489044914229844a1124592aa22491111115144229148440411111111111111111111114444444444928820124424128944444444442312459224491011111149a420a2884490942444841022222212111111119192244949925452242222228a88440449148948239224499224012444892241441229881811121124510a8228221144922288489224492222888844244912912411418444342222a2924a2249459254222a919248912495442449124924892422a2288288880822221141121111414444222992121111118d08922812111111114422222222224124222282249288888888884824494431499224512422898808221111111191201211114112494424129188444444442382248a44248844444490848888888844444444912048a248441111111111912092244812254a942891a422492a1195229224492a898824492492482291444444041111114444228224222282884844124552444aa2221191244a441188144444449088880822111189441289444410111115912831492289288924914492449248124922118944224924492492944822924892482212492222124892441431499224512422412422222222828844912449124288442411294844222222a248102451242212111111118988888888288808890842886012858a4414092222220a2222222211114491490451248820222222221244444490444444444414918888882812044914898844444444442462444444444414448c08252208218249142a1251248818111151101189444a44045164124114092288188944221109222222822422222222a28844444444912048a248442422222222121111111151101112118410c1240a158928124444441444444444222288229308a24810414444444424888888208948241291224804a54a8d888828622492244914890822464444129124912022222249922411110144444410a2884644024854124144444450942889922452222222114422881021841049008924924802481249d249938a624444441289444424882248228288248948449288221241444444444444440491202222224822222222228a484444441409922449124522221111111105112111411285082651a84491208aa288244510111111114924224922492422828888888848224924918888888820222292481211492422222222228888049124499224898888888822228288480001242a49444444444444101191549288888888882002481425912422228288a0a84444248811119124499288082022222288464402485412092052294949121111114151a2244a9244a2484444248248041122222209208924924822492449274d2a8a11111191442211114114411211c4489288442449441031124922124424499224492222014444124434920490541241444444504a9444491229111191082211444444440049249144124922493a6952518c2422121111119108a20892882022498a8888442211110922128944224949922425110922111111492249244922499224499224492211111191201211119222499248a4242288444444249224894492241111119188082211914892242222228924924431111451442288442412894412119120224124922448221211111111510411452482484444440811112144444444948888888888a0a850894812452222912841101111412222228844442412492452440415448c248924a2488924492489449248124922914824924492442289942422892489242291248a48264988228a48041149440a2211a1444490a410229844a1221145822a9148248a282211444444144422428988208a4c2288221241244944049188882212414444444124122522411499441045822892289224222988482291121109a2c8002289208a480491a4244504498a24129144922492449248269124252222a288445022221105111111894408a2c8248228124444444424220a2222222222918808a2c82482282211442449441011918828924a249282888814444454108988481189142982888a8aaa482492244944b12411119120222242252549124914922449922411492212245192242982881011499224111111114112492289484424221291a448241251442288888882889088208a4c228822124114459144111189828844228948104526111449aa8a2425880491a42449922412111145440411910012158924222282882212415292884844082144444444222222282a5422924491884812250822111124222282484424914822912222a82062244924115112499248128924912492442291482489248944122949441249124944224914918c481011115129892492249148924444222282884424491289884422120511400089a248444444440411491445009188888808124582882452103122242248411255a288441045512451c448442212051111111125228210c1240a95224945511491a4882082888888888888208922892491449214114424228288482222222222880822489224454410419244242222222248140922924841c488908820895210441189204a124144928808222222492412111111114482888808224992481441a28844909424841049129224499244442288045144441011894844a288448288884422114582285144114444111591481011111111114582285144114444111531a22522822225a224128d48102392244992888800229244108d240104905424924a4a5292444444441049528a4444444444445022512422221241444144841042004924914412409248928e88888848924424824852224144444444441409a24411451011455444224144444444441409521245041151444564242280888882104128a184124a28a1442202888828081184124a242280888882104128a184124a28a184124a28a184123122808828081184124ac4880022a2484444014414448c082522123122808828124a28a184124a28a1841210111111c5888824114a28a184124a28a184124ac4880022a22005154a2891880022220a4204a14293464414404441c488502282149434121140444491484400111105299249440311111111458220420988888888281204114a8c444644448224124a134d54a8442194288412101111115144242248142a288942281191281189442222918844229188482422914824a211111151492591a422492a518994442422498a48124110111141442422884424228888442429a288942088888820111111040982204824411249224924229148902491442492444424221291884844221a111111955412492a92a412954849442292a422224904414444041191882012918820221291a488225282202222824444441024088220910449248924918844224192441291481211918088888888224110a14444222222228848242222424410918844444444229188a0824a4424224214514422888888288818114a441022446412854a441189208aa288242222220a222291488988208ac82482a2245549499224298908222222226244001151244622139144922449922449922422222211844a8c44622442145144228848220511234289084284884ca250892812248988888882888888281111441199441045248288241111442422222292828888144444a48814a5208a22a28844101111511031229488208ac888228a28a248228822414444444144241229111144119944104524824810912441441491082222220a22468412114411994410458288888882888888881211411491490451442288041124912022460410114502222222228a044992244289422811230288882211230288882201444424222222228828221144444414448c08252248a228229308a28844102589202292880822129144229224228828221124258988104244444244248988a82091880022a22044104a28112302888882104128a1448c0820228a444c0248a4208ac8241a514422884822051123428908a2884c2288224144444441444444948808a2884c2288221241248888884824128988888808228a4804912412092189082111911411910a8a0a95804892886292248950a2104a4424222222a22022242208112232894254a2884410491211444444441085888844249ad054a815aa50452194222211111141442211404444444410111111492422222222222222884422121111111111218488242122aa20542222128944229188884824128944222222914892888888888888282222222222228250898800220a4204a184922449929224492a08123494a2481045820485521409d22449292894a248902812242894a248104582048552344992249594244992244992a424499224254992140449240942044349342212a9a424499224499224499224a9a424499224499224491011898220892441886028894644449244122449126a08a194a4244992248988889204901484088692684444a4244952925452921492841012894422a2888824892444922492648d5424884824922449928822222222822449922491244941930490542a492988a246924444449304901484082689464444442a4a494444444424220a224222821022984421158928221144514a24111189824424221211411499441045248288884889481091485210914841222245a42805518a888888880211211181283252a444114592208a04494444a24022499248812832491045820844444410111111110522422202516492208a041111890289244922094491498228124420922488882812910211211181283249104582888844814424128944208a4c124491200211114924128924492481888888880211211181283249504a52959424499224298904229290241521499224491249924802119148440522422202516492204a24414a29498a884814484422914804a2c82441944882242902111111440011898888884024492449442222222210494a490a49121212a24624104912914812492222028888404402480091284524222222220249244a11898848048a24259188482402890291881022220920114944922480241149d211111111111111114102214284284a94240a494208912449a288882489482292241149321a2512884422229224491211898844248844922449444424028d2401242a4aa4280a44228aa8918888880422222288888844118888444424222222841011112111111111494992244952a4240291244992248944444444201288240922222251042222111189888808214444444844444420222222a24820222222221a9188244992144504221145d448445a624404105144440410514444041051444404105144a24644001105a2884ca211812215512081a45292924449a524258994544a529228925414459144914a529524495224959294248a249124914852228948a2485251144512952495524a924a2a25294991a4aa485249aa8a2445898a44442251228a40a492a4aa24a92495a4244952228924914444445492aa244992221291244949a5242549a4a452aa44952822222a2251a24a94a4aa924a494a522489449294249144942249455114952449529224294992944822492225a92a4a92249524494a4952124092541111498a4491888844a2a8489428925414154520522529499294a42a25499214894422494a1240524992544a92242551248a44912849922a22224991a44aa24a894422a22449924a2a4992a4920200"},"methodIdentifiers":{"STAKE_PER_DAY()":"4a91f7ae","archiveHabit(uint32)":"b650673a","checkIn(uint32,uint64)":"a0145927","checked(address,uint64)":"a8389e0a","claimAll()":"d1058e59","claimYieldRewards()":"db0f53f9","createHabit(bytes32)":"e9714e07","deposit()":"d0e30db0","epochNow()":"222ae786","forceSettle(address,uint64,uint32)":"68188762","funded(address,uint64)":"319bec54","habits(address,uint32)":"99626634","move(uint8,uint8,uint256)":"4f126f03","owner()":"8da5cb5b","prepareDay(uint64)":"48cc36b8","setStakingAdapter(address)":"40729c58","settle(address,uint64,uint32)":"9c14eb6e","settled(address,uint64)":"39c51515","stakingAdapter()":"4cbb98f4","transferOwnership(address)":"f2fde38b","treasury()":"61d027b3","userHabitCounters(address)":"0e08454a","userStates(address)":"0ecc535f"}},"hash":"bd852a319bf254866542d64ebf7f6bc2312fded118c9893927546b55bc27f1a3","factoryDependencies":{}}}}