{"contracts/HabitTracker.sol":{"HabitTracker":{"abi":[{"inputs":[{"internalType":"address","name":"_treasury","type":"address"}],"stateMutability":"nonpayable","type":"constructor"},{"inputs":[],"name":"AlreadyCheckedIn","type":"error"},{"inputs":[],"name":"AlreadySettled","type":"error"},{"inputs":[],"name":"CannotSettleCurrentDay","type":"error"},{"inputs":[],"name":"DayNotFunded","type":"error"},{"inputs":[],"name":"HabitAlreadyArchived","type":"error"},{"inputs":[],"name":"HabitNotFound","type":"error"},{"inputs":[],"name":"HabitTextTooLong","type":"error"},{"inputs":[],"name":"InsufficientBalance","type":"error"},{"inputs":[],"name":"InvalidAmount","type":"error"},{"inputs":[],"name":"InvalidBatchSize","type":"error"},{"inputs":[],"name":"InvalidEpoch","type":"error"},{"inputs":[],"name":"InvalidTreasury","type":"error"},{"inputs":[],"name":"NotHabitOwner","type":"error"},{"inputs":[],"name":"TransferFailed","type":"error"},{"anonymous":false,"inputs":[{"indexed":true,"internalType":"address","name":"user","type":"address"},{"indexed":true,"internalType":"uint32","name":"habitId","type":"uint32"},{"indexed":true,"internalType":"uint64","name":"epoch","type":"uint64"}],"name":"CheckedIn","type":"event"},{"anonymous":false,"inputs":[{"indexed":true,"internalType":"address","name":"user","type":"address"},{"indexed":false,"internalType":"uint256","name":"amount","type":"uint256"}],"name":"Claimed","type":"event"},{"anonymous":false,"inputs":[{"indexed":true,"internalType":"address","name":"user","type":"address"},{"indexed":true,"internalType":"uint64","name":"epoch","type":"uint64"},{"indexed":false,"internalType":"uint32","name":"fundedCount","type":"uint32"},{"indexed":false,"internalType":"uint32","name":"insufficientCount","type":"uint32"}],"name":"DayPrepared","type":"event"},{"anonymous":false,"inputs":[{"indexed":true,"internalType":"address","name":"user","type":"address"},{"indexed":false,"internalType":"uint256","name":"amount","type":"uint256"}],"name":"Deposited","type":"event"},{"anonymous":false,"inputs":[{"indexed":true,"internalType":"address","name":"user","type":"address"},{"indexed":true,"internalType":"uint32","name":"habitId","type":"uint32"}],"name":"HabitArchived","type":"event"},{"anonymous":false,"inputs":[{"indexed":true,"internalType":"address","name":"user","type":"address"},{"indexed":true,"internalType":"uint32","name":"habitId","type":"uint32"},{"indexed":false,"internalType":"string","name":"text","type":"string"}],"name":"HabitCreated","type":"event"},{"anonymous":false,"inputs":[{"indexed":true,"internalType":"address","name":"user","type":"address"},{"indexed":false,"internalType":"uint256","name":"amount","type":"uint256"}],"name":"RedepositedFromClaimable","type":"event"},{"anonymous":false,"inputs":[{"indexed":true,"internalType":"address","name":"user","type":"address"},{"indexed":true,"internalType":"uint32","name":"habitId","type":"uint32"},{"indexed":true,"internalType":"uint64","name":"epoch","type":"uint64"},{"indexed":false,"internalType":"uint256","name":"slashed","type":"uint256"}],"name":"SettledFail","type":"event"},{"anonymous":false,"inputs":[{"indexed":true,"internalType":"address","name":"user","type":"address"},{"indexed":true,"internalType":"uint32","name":"habitId","type":"uint32"},{"indexed":true,"internalType":"uint64","name":"epoch","type":"uint64"},{"indexed":false,"internalType":"uint256","name":"reward","type":"uint256"}],"name":"SettledSuccess","type":"event"},{"anonymous":false,"inputs":[{"indexed":true,"internalType":"address","name":"user","type":"address"},{"indexed":false,"internalType":"uint256","name":"amount","type":"uint256"}],"name":"Withdrawn","type":"event"},{"inputs":[],"name":"STAKE_PER_DAY","outputs":[{"internalType":"uint256","name":"","type":"uint256"}],"stateMutability":"view","type":"function"},{"inputs":[{"internalType":"uint32","name":"habitId","type":"uint32"}],"name":"archiveHabit","outputs":[],"stateMutability":"nonpayable","type":"function"},{"inputs":[{"internalType":"uint32","name":"habitId","type":"uint32"},{"internalType":"uint64","name":"epoch","type":"uint64"}],"name":"checkIn","outputs":[],"stateMutability":"nonpayable","type":"function"},{"inputs":[{"internalType":"uint256","name":"amount","type":"uint256"}],"name":"claim","outputs":[],"stateMutability":"nonpayable","type":"function"},{"inputs":[{"internalType":"string","name":"text","type":"string"}],"name":"createHabit","outputs":[{"internalType":"uint32","name":"","type":"uint32"}],"stateMutability":"nonpayable","type":"function"},{"inputs":[],"name":"deposit","outputs":[],"stateMutability":"payable","type":"function"},{"inputs":[],"name":"epochNow","outputs":[{"internalType":"uint64","name":"","type":"uint64"}],"stateMutability":"view","type":"function"},{"inputs":[{"internalType":"address","name":"user","type":"address"},{"internalType":"uint64","name":"startEpoch","type":"uint64"},{"internalType":"uint32","name":"maxSettlements","type":"uint32"}],"name":"forceSettleAllEpochs","outputs":[],"stateMutability":"nonpayable","type":"function"},{"inputs":[{"internalType":"uint64","name":"epoch","type":"uint64"}],"name":"prepareDay","outputs":[],"stateMutability":"nonpayable","type":"function"},{"inputs":[{"internalType":"uint256","name":"amount","type":"uint256"}],"name":"redepositFromClaimable","outputs":[],"stateMutability":"nonpayable","type":"function"},{"inputs":[{"internalType":"address","name":"user","type":"address"},{"internalType":"uint64","name":"epoch","type":"uint64"},{"internalType":"uint32","name":"habitId","type":"uint32"}],"name":"settle","outputs":[],"stateMutability":"nonpayable","type":"function"},{"inputs":[{"internalType":"address","name":"user","type":"address"},{"internalType":"uint64","name":"epoch","type":"uint64"},{"internalType":"uint32","name":"maxCount","type":"uint32"}],"name":"settleAll","outputs":[],"stateMutability":"nonpayable","type":"function"},{"inputs":[],"name":"totalTreasuryReceived","outputs":[{"internalType":"uint256","name":"","type":"uint256"}],"stateMutability":"view","type":"function"},{"inputs":[],"name":"treasury","outputs":[{"internalType":"address","name":"","type":"address"}],"stateMutability":"view","type":"function"},{"inputs":[{"internalType":"address","name":"","type":"address"}],"name":"userHabitCounters","outputs":[{"internalType":"uint32","name":"","type":"uint32"}],"stateMutability":"view","type":"function"},{"inputs":[{"internalType":"address","name":"","type":"address"}],"name":"userStates","outputs":[{"internalType":"uint256","name":"depositBalance","type":"uint256"},{"internalType":"uint256","name":"blockedBalance","type":"uint256"},{"internalType":"uint256","name":"claimableBalance","type":"uint256"},{"internalType":"uint32","name":"activeHabitCount","type":"uint32"}],"stateMutability":"view","type":"function"},{"inputs":[{"internalType":"uint256","name":"amount","type":"uint256"}],"name":"withdraw","outputs":[],"stateMutability":"nonpayable","type":"function"}],"evm":{"assembly":"// RO data = 0/0 bytes\n// RW data = 364/65984 bytes\n// Stack size = 32768 bytes\n\n// Instructions = 10940\n// Code size = 38481 bytes\n\n      : @0 (gas: 7)\n     0: sp = sp + 0xffffffffffffffe8\n     3: u64 [sp + 0x10] = ra\n     6: u64 [sp + 0x8] = s0\n     9: u64 [sp] = s1\n    11: s1 = 0x20168\n    16: s0 = i32 [0x20168]\n    21: jump @3 if s0 == 0\n      : @1 (gas: 5)\n    24: a0 = 0x301a0\n    29: i32 a0 = a0 + 0\n    31: i32 a1 = s1 + 0\n    33: ecalli 6 // 'get_immutable_data'\n    35: fallthrough\n      : @2 (gas: 3)\n    36: a0 = i32 [0x20168]\n    41: u32 [0x20168] = 0\n    46: jump @4 if a0 <u s0\n      : @3 (gas: 5)\n    49: ra = u64 [sp + 0x10]\n    52: s0 = u64 [sp + 0x8]\n    55: s1 = u64 [sp]\n    57: sp = sp + 0x18\n    60: ret\n      : @4 (gas: 1)\n    62: trap\n      : @5 (gas: 2)\n    63: a1 = i32 [0x20168]\n    68: jump @54 if a1 == 0\n      : @6 (gas: 4)\n    72: a0 = 0x301a0\n    77: i32 a0 = a0 + 0\n    79: ecalli 14 // 'set_immutable_data'\n    81: jump @54\n      : @7 (gas: 8)\n    84: sp = sp + 0xfffffffffffffff0\n    87: u64 [sp + 0x8] = ra\n    90: u64 [sp] = s0\n    92: a2 = a1\n    94: s0 = a0\n    96: a1 = 0x20\n    99: a0 = a2\n   101: ra = 2, jump @21\n      : @8 [@dyn 1] (gas: 100)\n   106: a1 = u8 [a0 + 0x1]\n   109: a2 = u8 [a0]\n   111: a3 = u8 [a0 + 0x2]\n   114: a4 = u8 [a0 + 0x3]\n   117: a1 = a1 << 0x8\n   120: a1 = a1 | a2\n   123: a3 = a3 << 0x10\n   126: a4 = a4 << 0x18\n   129: a3 = a3 | a4\n   132: a1 = a1 | a3\n   135: a2 = u8 [a0 + 0x5]\n   138: a3 = u8 [a0 + 0x4]\n   141: a4 = u8 [a0 + 0x6]\n   144: a5 = u8 [a0 + 0x7]\n   147: a2 = a2 << 0x8\n   150: a2 = a2 | a3\n   153: a4 = a4 << 0x10\n   156: a5 = a5 << 0x18\n   159: a4 = a4 | a5\n   162: a2 = a2 | a4\n   165: a2 = a2 << 0x20\n   168: t0 = a2 | a1\n   171: a2 = u8 [a0 + 0x9]\n   174: a3 = u8 [a0 + 0x8]\n   177: a4 = u8 [a0 + 0xa]\n   180: a5 = u8 [a0 + 0xb]\n   183: a2 = a2 << 0x8\n   186: a2 = a2 | a3\n   189: a4 = a4 << 0x10\n   192: a5 = a5 << 0x18\n   195: a4 = a4 | a5\n   198: a2 = a2 | a4\n   201: a3 = u8 [a0 + 0xd]\n   204: a4 = u8 [a0 + 0xc]\n   207: a5 = u8 [a0 + 0xe]\n   210: a1 = u8 [a0 + 0xf]\n   213: a3 = a3 << 0x8\n   216: a3 = a3 | a4\n   219: a5 = a5 << 0x10\n   222: a1 = a1 << 0x18\n   225: a1 = a1 | a5\n   228: a1 = a1 | a3\n   231: a1 = a1 << 0x20\n   234: t1 = a1 | a2\n   237: a1 = u8 [a0 + 0x11]\n   240: a3 = u8 [a0 + 0x10]\n   243: a4 = u8 [a0 + 0x12]\n   246: a5 = u8 [a0 + 0x13]\n   249: a1 = a1 << 0x8\n   252: a1 = a1 | a3\n   255: a4 = a4 << 0x10\n   258: a5 = a5 << 0x18\n   261: a4 = a4 | a5\n   264: a1 = a1 | a4\n   267: a3 = u8 [a0 + 0x15]\n   270: a4 = u8 [a0 + 0x14]\n   273: a5 = u8 [a0 + 0x16]\n   276: a2 = u8 [a0 + 0x17]\n   279: a3 = a3 << 0x8\n   282: a3 = a3 | a4\n   285: a5 = a5 << 0x10\n   288: a2 = a2 << 0x18\n   291: a2 = a2 | a5\n   294: a2 = a2 | a3\n   297: a2 = a2 << 0x20\n   300: a3 = a2 | a1\n   303: a1 = u8 [a0 + 0x19]\n   306: a2 = u8 [a0 + 0x18]\n   309: a4 = u8 [a0 + 0x1a]\n   312: a5 = u8 [a0 + 0x1b]\n   315: a1 = a1 << 0x8\n   318: a1 = a1 | a2\n   321: a4 = a4 << 0x10\n   324: a5 = a5 << 0x18\n   327: a4 = a4 | a5\n   330: a1 = a1 | a4\n   333: a2 = u8 [a0 + 0x1d]\n   336: a4 = u8 [a0 + 0x1c]\n   339: a5 = u8 [a0 + 0x1e]\n   342: a0 = u8 [a0 + 0x1f]\n   345: a2 = a2 << 0x8\n   348: a2 = a2 | a4\n   351: a5 = a5 << 0x10\n   354: a0 = a0 << 0x18\n   357: a0 = a0 | a5\n   360: a0 = a0 | a2\n   363: a0 = a0 << 0x20\n   366: a0 = a0 | a1\n   369: a0 = reverse a0\n   371: a1 = reverse a3\n   373: a2 = reverse t1\n   375: a3 = reverse t0\n   377: u64 [s0 + 0x18] = a3\n   380: u64 [s0 + 0x10] = a2\n   383: u64 [s0 + 0x8] = a1\n   386: u64 [s0] = a0\n   388: ra = u64 [sp + 0x8]\n   391: s0 = u64 [sp]\n   393: sp = sp + 0x10\n   396: ret\n      : @9 (gas: 12)\n   398: sp = sp + 0xffffffffffffffd8\n   401: u64 [sp + 0x20] = ra\n   404: u64 [sp + 0x18] = s0\n   407: u64 [sp + 0x10] = s1\n   410: a2 = u64 [a1]\n   412: u64 [sp + 0x8] = a2\n   415: a2 = u64 [a1 + 0x8]\n   418: u64 [sp] = a2\n   420: s0 = u64 [a1 + 0x10]\n   423: s1 = u64 [a1 + 0x18]\n   426: a1 = 0x20\n   429: ra = 4, jump @21\n      : @10 [@dyn 2] (gas: 71)\n   434: a1 = reverse s1\n   436: a2 = reverse s0\n   438: a3 = u64 [sp]\n   440: a3 = reverse a3\n   442: a4 = u64 [sp + 0x8]\n   445: a4 = reverse a4\n   447: u8 [a0 + 0x18] = a4\n   450: u8 [a0 + 0x10] = a3\n   453: u8 [a0 + 0x8] = a2\n   456: u8 [a0] = a1\n   458: a5 = a4 >> 0x38\n   461: u8 [a0 + 0x1f] = a5\n   464: a5 = a4 >> 0x30\n   467: u8 [a0 + 0x1e] = a5\n   470: a5 = a4 >> 0x28\n   473: u8 [a0 + 0x1d] = a5\n   476: a5 = a4 >> 0x20\n   479: u8 [a0 + 0x1c] = a5\n   482: a5 = a4 >> 0x18\n   485: u8 [a0 + 0x1b] = a5\n   488: a5 = a4 >> 0x10\n   491: u8 [a0 + 0x1a] = a5\n   494: a4 = a4 >> 0x8\n   497: u8 [a0 + 0x19] = a4\n   500: a4 = a3 >> 0x38\n   503: u8 [a0 + 0x17] = a4\n   506: a4 = a3 >> 0x30\n   509: u8 [a0 + 0x16] = a4\n   512: a4 = a3 >> 0x28\n   515: u8 [a0 + 0x15] = a4\n   518: a4 = a3 >> 0x20\n   521: u8 [a0 + 0x14] = a4\n   524: a4 = a3 >> 0x18\n   527: u8 [a0 + 0x13] = a4\n   530: a4 = a3 >> 0x10\n   533: u8 [a0 + 0x12] = a4\n   536: a3 = a3 >> 0x8\n   539: u8 [a0 + 0x11] = a3\n   542: a3 = a2 >> 0x38\n   545: u8 [a0 + 0xf] = a3\n   548: a3 = a2 >> 0x30\n   551: u8 [a0 + 0xe] = a3\n   554: a3 = a2 >> 0x28\n   557: u8 [a0 + 0xd] = a3\n   560: a3 = a2 >> 0x20\n   563: u8 [a0 + 0xc] = a3\n   566: a3 = a2 >> 0x18\n   569: u8 [a0 + 0xb] = a3\n   572: a3 = a2 >> 0x10\n   575: u8 [a0 + 0xa] = a3\n   578: a2 = a2 >> 0x8\n   581: u8 [a0 + 0x9] = a2\n   584: a2 = a1 >> 0x38\n   587: u8 [a0 + 0x7] = a2\n   590: a2 = a1 >> 0x30\n   593: u8 [a0 + 0x6] = a2\n   596: a2 = a1 >> 0x28\n   599: u8 [a0 + 0x5] = a2\n   602: a2 = a1 >> 0x20\n   605: u8 [a0 + 0x4] = a2\n   608: a2 = a1 >> 0x18\n   611: u8 [a0 + 0x3] = a2\n   614: a2 = a1 >> 0x10\n   617: u8 [a0 + 0x2] = a2\n   620: a1 = a1 >> 0x8\n   623: u8 [a0 + 0x1] = a1\n   626: ra = u64 [sp + 0x20]\n   629: s0 = u64 [sp + 0x18]\n   632: s1 = u64 [sp + 0x10]\n   635: sp = sp + 0x28\n   638: ret\n      : @11 (gas: 48)\n   640: sp = sp + 0xffffffffffffffa0\n   643: u64 [sp + 0x58] = ra\n   646: u64 [sp + 0x50] = s0\n   649: u64 [sp + 0x48] = s1\n   652: s0 = sp + 0x60\n   655: sp = sp & 0xffffffffffffffe0\n   658: s1 = a0\n   660: a0 = u64 [a1 + 0x18]\n   663: a2 = u64 [a1 + 0x10]\n   666: a3 = u64 [a1 + 0x8]\n   669: a1 = u64 [a1]\n   671: a0 = reverse a0\n   673: a2 = reverse a2\n   675: a3 = reverse a3\n   677: a1 = reverse a1\n   679: u64 [sp + 0x18] = a1\n   682: u64 [sp + 0x10] = a3\n   685: u64 [sp + 0x8] = a2\n   688: u64 [sp] = a0\n   690: u64 [sp + 56] = 0\n   693: u64 [sp + 48] = 0\n   696: u64 [sp + 40] = 0\n   699: u64 [sp + 32] = 0\n   702: u32 [sp + 64] = 0x20\n   706: i32 a1 = sp + 0\n   708: i32 a3 = sp + 0x20\n   711: i32 a4 = sp + 0x40\n   714: a2 = 0xffffffffffffffff\n   717: a0 = 0\n   719: ecalli 7 // 'get_storage'\n   721: a0 = u64 [sp + 0x38]\n   724: a1 = u64 [sp + 0x30]\n   727: a2 = u64 [sp + 0x28]\n   730: a3 = u64 [sp + 0x20]\n   733: a0 = reverse a0\n   735: a1 = reverse a1\n   737: a2 = reverse a2\n   739: a3 = reverse a3\n   741: u64 [s1 + 0x18] = a3\n   744: u64 [s1 + 0x10] = a2\n   747: u64 [s1 + 0x8] = a1\n   750: u64 [s1] = a0\n   752: sp = s0 + 0xffffffffffffffa0\n   755: ra = u64 [sp + 0x58]\n   758: s0 = u64 [sp + 0x50]\n   761: s1 = u64 [sp + 0x48]\n   764: sp = sp + 0x60\n   767: ret\n      : @12 (gas: 40)\n   769: sp = sp + 0xffffffffffffffa0\n   772: u64 [sp + 0x58] = ra\n   775: u64 [sp + 0x50] = s0\n   778: s0 = sp + 0x60\n   781: sp = sp & 0xffffffffffffffe0\n   784: t0 = u64 [a0]\n   786: a3 = u64 [a0 + 0x8]\n   789: a4 = u64 [a0 + 0x10]\n   792: a0 = u64 [a0 + 0x18]\n   795: t1 = u64 [a1]\n   797: a2 = u64 [a1 + 0x8]\n   800: a5 = u64 [a1 + 0x10]\n   803: a1 = u64 [a1 + 0x18]\n   806: t2 = reverse a0\n   808: a4 = reverse a4\n   810: a3 = reverse a3\n   812: a0 = reverse t0\n   814: t0 = reverse a1\n   816: a5 = reverse a5\n   818: a2 = reverse a2\n   820: a1 = reverse t1\n   822: u64 [sp + 0x18] = a0\n   825: u64 [sp + 0x10] = a3\n   828: u64 [sp + 0x8] = a4\n   831: u64 [sp] = t2\n   833: u64 [sp + 0x38] = a1\n   836: u64 [sp + 0x30] = a2\n   839: u64 [sp + 0x28] = a5\n   842: u64 [sp + 0x20] = t0\n   845: i32 a1 = sp + 0\n   847: i32 a3 = sp + 0x20\n   850: a2 = 0xffffffffffffffff\n   853: a4 = 0x20\n   856: a0 = 0\n   858: ecalli 15 // 'set_storage'\n   860: sp = s0 + 0xffffffffffffffa0\n   863: ra = u64 [sp + 0x58]\n   866: s0 = u64 [sp + 0x50]\n   869: sp = sp + 0x60\n   872: ret\n      : @13 (gas: 24)\n   874: sp = sp + 0xffffffffffffff60\n   878: u64 [sp + 0x98] = ra\n   882: u64 [sp + 0x90] = s0\n   886: u64 [sp + 0x88] = s1\n   890: s0 = sp + 0xa0\n   894: sp = sp & 0xffffffffffffffe0\n   897: a4 = u64 [a3]\n   899: u64 [sp + 0x38] = a4\n   902: a4 = u64 [a3 + 0x8]\n   905: u64 [sp + 0x30] = a4\n   908: a4 = u64 [a3 + 0x10]\n   911: u64 [sp + 0x28] = a4\n   914: a3 = u64 [a3 + 0x18]\n   917: u64 [sp + 0x20] = a3\n   920: a3 = u64 [a2]\n   922: u64 [sp + 0x18] = a3\n   925: a3 = u64 [a2 + 0x8]\n   928: u64 [sp + 0x10] = a3\n   931: a3 = u64 [a2 + 0x10]\n   934: u64 [sp + 0x8] = a3\n   937: a2 = u64 [a2 + 0x18]\n   940: u64 [sp] = a2\n   942: s1 = a1\n   944: ra = 6, jump @21\n      : @14 [@dyn 3] (gas: 35)\n   949: a1 = u64 [sp]\n   951: a1 = reverse a1\n   953: a2 = u64 [sp + 0x8]\n   956: a2 = reverse a2\n   958: a3 = u64 [sp + 0x10]\n   961: a3 = reverse a3\n   963: a4 = u64 [sp + 0x18]\n   966: a4 = reverse a4\n   968: u64 [sp + 0x58] = a4\n   971: u64 [sp + 0x50] = a3\n   974: u64 [sp + 0x48] = a2\n   977: u64 [sp + 0x40] = a1\n   980: a1 = u64 [sp + 0x20]\n   983: a1 = reverse a1\n   985: a2 = u64 [sp + 0x28]\n   988: a2 = reverse a2\n   990: a3 = u64 [sp + 0x30]\n   993: a3 = reverse a3\n   995: a4 = u64 [sp + 0x38]\n   998: a4 = reverse a4\n  1000: u64 [sp + 0x78] = a4\n  1003: u64 [sp + 0x70] = a3\n  1006: u64 [sp + 0x68] = a2\n  1009: u64 [sp + 0x60] = a1\n  1012: i32 a2 = a0 + 0\n  1014: i32 a3 = s1 + 0\n  1016: i32 a0 = sp + 0x40\n  1019: a1 = 0x2\n  1022: ecalli 5 // 'deposit_event'\n  1024: sp = s0 + 0xffffffffffffff60\n  1028: ra = u64 [sp + 0x98]\n  1032: s0 = u64 [sp + 0x90]\n  1036: s1 = u64 [sp + 0x88]\n  1040: sp = sp + 0xa0\n  1044: ret\n      : @15 (gas: 15)\n  1046: sp = sp + 0xffffffffffffff20\n  1050: u64 [sp + 0xd8] = ra\n  1054: u64 [sp + 0xd0] = s0\n  1058: u64 [sp + 0xc8] = s1\n  1062: s0 = sp + 0xe0\n  1066: sp = sp & 0xffffffffffffffe0\n  1069: a5 = u64 [a4]\n  1071: u64 [sp + 0x40] = a5\n  1074: a5 = u64 [a4 + 0x8]\n  1077: u64 [sp + 0x48] = a5\n  1080: a5 = u64 [a4 + 0x10]\n  1083: u64 [sp + 0x50] = a5\n  1086: a4 = u64 [a4 + 0x18]\n  1089: u64 [sp + 0x58] = a4\n  1092: t0 = 8, jump @1402\n      : @16 [@dyn 4] (gas: 2)\n  1098: u64 [sp + 0x38] = a1\n  1101: ra = 10, jump @21\n      : @17 [@dyn 5] (gas: 46)\n  1106: a1 = reverse s1\n  1108: u64 [sp + 0x78] = a1\n  1111: a1 = u64 [sp]\n  1113: a1 = reverse a1\n  1115: u64 [sp + 0x70] = a1\n  1118: a1 = u64 [sp + 0x8]\n  1121: a1 = reverse a1\n  1123: u64 [sp + 0x68] = a1\n  1126: a1 = u64 [sp + 0x10]\n  1129: a1 = reverse a1\n  1131: u64 [sp + 0x60] = a1\n  1134: a1 = u64 [sp + 0x18]\n  1137: a1 = reverse a1\n  1139: u64 [sp + 0x98] = a1\n  1143: a1 = u64 [sp + 0x20]\n  1146: a1 = reverse a1\n  1148: u64 [sp + 0x90] = a1\n  1152: a1 = u64 [sp + 0x28]\n  1155: a1 = reverse a1\n  1157: u64 [sp + 0x88] = a1\n  1161: a1 = u64 [sp + 0x30]\n  1164: a1 = reverse a1\n  1166: u64 [sp + 0x80] = a1\n  1170: a1 = u64 [sp + 0x40]\n  1173: a1 = reverse a1\n  1175: u64 [sp + 0xb8] = a1\n  1179: a1 = u64 [sp + 0x48]\n  1182: a1 = reverse a1\n  1184: u64 [sp + 0xb0] = a1\n  1188: a1 = u64 [sp + 0x50]\n  1191: a1 = reverse a1\n  1193: u64 [sp + 0xa8] = a1\n  1197: a1 = u64 [sp + 0x58]\n  1200: a1 = reverse a1\n  1202: u64 [sp + 0xa0] = a1\n  1206: i32 a2 = a0 + 0\n  1208: a3 = i32 [sp + 0x38]\n  1211: i32 a0 = sp + 0x60\n  1214: a1 = 0x3\n  1217: ecalli 5 // 'deposit_event'\n  1219: sp = s0 + 0xffffffffffffff20\n  1223: ra = u64 [sp + 0xd8]\n  1227: s0 = u64 [sp + 0xd0]\n  1231: s1 = u64 [sp + 0xc8]\n  1235: sp = sp + 0xe0\n  1239: ret\n      : @18 (gas: 23)\n  1241: sp = sp + 0xfffffffffffffee0\n  1245: u64 [sp + 0x118] = ra\n  1249: u64 [sp + 0x110] = s0\n  1253: u64 [sp + 0x108] = s1\n  1257: s0 = sp + 0x120\n  1261: sp = sp & 0xffffffffffffffe0\n  1264: s1 = u64 [a5]\n  1266: u64 [sp + 0x60] = s1\n  1269: s1 = u64 [a5 + 0x8]\n  1272: u64 [sp + 0x68] = s1\n  1275: s1 = u64 [a5 + 0x10]\n  1278: u64 [sp + 0x70] = s1\n  1281: a5 = u64 [a5 + 0x18]\n  1284: u64 [sp + 0x78] = a5\n  1287: a5 = u64 [a4]\n  1289: u64 [sp + 0x38] = a5\n  1292: a5 = u64 [a4 + 0x8]\n  1295: u64 [sp + 0x40] = a5\n  1298: a5 = u64 [a4 + 0x10]\n  1301: u64 [sp + 0x48] = a5\n  1304: a4 = u64 [a4 + 0x18]\n  1307: u64 [sp + 0x50] = a4\n  1310: t0 = 12, jump @1402\n      : @19 [@dyn 6] (gas: 2)\n  1316: u64 [sp + 0x58] = a1\n  1319: ra = 14, jump @21\n      : @20 [@dyn 7] (gas: 58)\n  1324: a1 = reverse s1\n  1326: u64 [sp + 0x98] = a1\n  1330: a1 = u64 [sp]\n  1332: a1 = reverse a1\n  1334: u64 [sp + 0x90] = a1\n  1338: a1 = u64 [sp + 0x8]\n  1341: a1 = reverse a1\n  1343: u64 [sp + 0x88] = a1\n  1347: a1 = u64 [sp + 0x10]\n  1350: a1 = reverse a1\n  1352: u64 [sp + 0x80] = a1\n  1356: a1 = u64 [sp + 0x18]\n  1359: a1 = reverse a1\n  1361: u64 [sp + 0xb8] = a1\n  1365: a1 = u64 [sp + 0x20]\n  1368: a1 = reverse a1\n  1370: u64 [sp + 0xb0] = a1\n  1374: a1 = u64 [sp + 0x28]\n  1377: a1 = reverse a1\n  1379: u64 [sp + 0xa8] = a1\n  1383: a1 = u64 [sp + 0x30]\n  1386: a1 = reverse a1\n  1388: u64 [sp + 0xa0] = a1\n  1392: a1 = u64 [sp + 0x38]\n  1395: a1 = reverse a1\n  1397: u64 [sp + 0xd8] = a1\n  1401: a1 = u64 [sp + 0x40]\n  1404: a1 = reverse a1\n  1406: u64 [sp + 0xd0] = a1\n  1410: a1 = u64 [sp + 0x48]\n  1413: a1 = reverse a1\n  1415: u64 [sp + 0xc8] = a1\n  1419: a1 = u64 [sp + 0x50]\n  1422: a1 = reverse a1\n  1424: u64 [sp + 0xc0] = a1\n  1428: a1 = u64 [sp + 0x60]\n  1431: a1 = reverse a1\n  1433: u64 [sp + 0xf8] = a1\n  1437: a1 = u64 [sp + 0x68]\n  1440: a1 = reverse a1\n  1442: u64 [sp + 0xf0] = a1\n  1446: a1 = u64 [sp + 0x70]\n  1449: a1 = reverse a1\n  1451: u64 [sp + 0xe8] = a1\n  1455: a1 = u64 [sp + 0x78]\n  1458: a1 = reverse a1\n  1460: u64 [sp + 0xe0] = a1\n  1464: i32 a2 = a0 + 0\n  1466: a3 = i32 [sp + 0x58]\n  1469: i32 a0 = sp + 0x80\n  1473: a1 = 0x4\n  1476: ecalli 5 // 'deposit_event'\n  1478: sp = s0 + 0xfffffffffffffee0\n  1482: ra = u64 [sp + 0x118]\n  1486: s0 = u64 [sp + 0x110]\n  1490: s1 = u64 [sp + 0x108]\n  1494: sp = sp + 0x120\n  1498: ret\n      : @21 (gas: 2)\n  1500: i32 a2 = a0 >> 0x10\n  1503: jump @26 if a2 != 0\n      : @22 (gas: 4)\n  1506: a1 = a1 + a0\n  1509: i32 a1 = a1 + 0x1f\n  1512: a1 = a1 & 0xffffffffffffffe0\n  1515: jump @26 if a1 >u 65536\n      : @23 (gas: 3)\n  1521: a2 = 0x20170\n  1526: a3 = i32 [0x20170]\n  1531: jump @25 if a3 >=u a1\n      : @24 (gas: 2)\n  1534: u32 [0x20170] = a1\n  1539: fallthrough\n      : @25 (gas: 4)\n  1540: a1 = 0x20180\n  1545: i32 a0 = a0 + 0\n  1547: a0 = a0 + a1\n  1550: ret\n      : @26 (gas: 1)\n  1552: trap\n      : @27 (gas: 6)\n  1553: sp = sp + 0xfffffffffffffff0\n  1556: u64 [sp + 0x8] = ra\n  1559: u64 [sp] = s0\n  1561: s0 = a0 & 0x1\n  1564: ecalli 3 // 'call_data_size'\n  1566: fallthrough\n      : @28 (gas: 2)\n  1567: u32 [0x2016c] = a0\n  1572: jump @30 if s0 == 0\n      : @29 (gas: 1)\n  1575: ra = 16, jump @31\n      : @30 [@dyn 8] (gas: 1)\n  1579: ra = 18, jump @57\n      : @31 [@dyn 9] (gas: 13)\n  1584: sp = sp + 0xffffffffffffff00\n  1588: u64 [sp + 0xf8] = ra\n  1592: u64 [sp + 0xf0] = s0\n  1596: u64 [sp + 0xe8] = s1\n  1600: s0 = sp + 0x100\n  1604: sp = sp & 0xffffffffffffffe0\n  1607: u64 [sp + 216] = 0\n  1611: u64 [sp + 208] = 0\n  1615: u64 [sp + 200] = 0\n  1619: u64 [sp + 192] = 0\n  1623: i32 a0 = sp + 0xc0\n  1627: ecalli 16 // 'value_transferred'\n  1629: fallthrough\n      : @32 (gas: 8)\n  1630: a0 = u64 [sp + 0xd0]\n  1634: a1 = u64 [sp + 0xd8]\n  1638: a2 = u64 [sp + 0xc8]\n  1642: a3 = u64 [sp + 0xc0]\n  1646: a1 = a1 | a2\n  1649: a0 = a0 | a3\n  1652: a0 = a0 | a1\n  1655: jump @44 if a0 != 0\n      : @33 (gas: 15)\n  1659: s1 = i32 [0x2016c]\n  1664: a0 = s1 << 0x20\n  1667: a0 = a0 >> 0x20\n  1670: a0 = a0 + 0x1f\n  1673: a0 = a0 & 0xffffffffffffffe0\n  1676: a1 = a0 + 0xa0\n  1680: a0 = a1 <u a0\n  1683: u64 [sp + 0xa0] = a1\n  1687: u64 [sp + 0xa8] = a0\n  1691: a0 = 0 if a0 != 0\n  1693: u64 [sp + 0xb0] = a0\n  1697: a0 = 0x40\n  1700: a1 = sp + 0xa0\n  1704: u64 [sp + 184] = 0\n  1708: ra = 20, jump @9\n      : @34 [@dyn 10] (gas: 3)\n  1713: a0 = 0xa0\n  1717: a1 = s1\n  1719: ra = 22, jump @21\n      : @35 [@dyn 11] (gas: 5)\n  1724: i32 a0 = a0 + 0\n  1726: a1 = s1\n  1728: a2 = 0\n  1730: ecalli 1 // 'call_data_copy'\n  1732: fallthrough\n      : @36 (gas: 1)\n  1733: jump @45 if s1 <=u 31\n      : @37 (gas: 3)\n  1738: a0 = sp + 0x80\n  1742: a1 = 0xa0\n  1746: ra = 24, jump @7\n      : @38 [@dyn 12] (gas: 10)\n  1751: a0 = u64 [sp + 0x90]\n  1755: a2 = u64 [sp + 0x98]\n  1759: a1 = 0x100000000\n  1769: a1 = a1 ^ a0\n  1772: a1 = a1 | a2\n  1775: a3 = a0 >> 0x20\n  1778: a3 = a3 <u 0x1\n  1781: a3 = 0 if a2 != 0\n  1783: a3 = 0 if a1 == 0\n  1785: jump @46 if a3 == 0\n      : @39 (gas: 6)\n  1788: a1 = u64 [sp + 0x80]\n  1792: a3 = u64 [sp + 0x88]\n  1796: a4 = a1 | a0\n  1799: a5 = a3 | a2\n  1802: a4 = a4 | a5\n  1805: jump @47 if a4 == 0\n      : @40 (gas: 7)\n  1808: u64 [sp + 0x60] = a1\n  1811: u64 [sp + 0x68] = a3\n  1814: u64 [sp + 0x70] = a0\n  1817: a0 = 0x80\n  1821: a1 = sp + 0x60\n  1824: u64 [sp + 0x78] = a2\n  1827: ra = 26, jump @9\n      : @41 [@dyn 13] (gas: 3)\n  1832: a0 = sp + 0x40\n  1835: a1 = 0x40\n  1838: ra = 28, jump @7\n      : @42 [@dyn 14] (gas: 12)\n  1843: a0 = u64 [sp + 0x58]\n  1846: a1 = u64 [sp + 0x50]\n  1849: a2 = u64 [sp + 0x48]\n  1852: s1 = u64 [sp + 0x40]\n  1855: a0 = a0 | a2\n  1858: a2 = s1 | a1\n  1861: a2 = a2 | a0\n  1864: a2 = a2 >> 0x20\n  1867: a0 = a0 | a1\n  1870: a0 = a0 << 0x20\n  1873: a0 = a0 | a2\n  1876: jump @51 if a0 == 0\n      : @43 (gas: 1)\n  1879: trap\n      : @44 (gas: 4)\n  1880: a1 = 0x20180\n  1885: i32 a1 = a1 + 0\n  1887: a0 = 0x1\n  1890: jump @56\n      : @45 (gas: 4)\n  1893: a1 = 0x20180\n  1898: i32 a1 = a1 + 0\n  1900: a0 = 0x1\n  1903: jump @56\n      : @46 (gas: 4)\n  1906: a1 = 0x20180\n  1911: i32 a1 = a1 + 0\n  1913: a0 = 0x1\n  1916: jump @56\n      : @47 (gas: 8)\n  1919: u64 [sp + 16] = 0\n  1922: u64 [sp + 8] = 0\n  1925: u64 [sp + 0] = 0\n  1927: a0 = 0x14bcf5c800000000\n  1937: a1 = sp\n  1939: u64 [sp + 0x18] = a0\n  1942: a0 = 0\n  1944: ra = 30, jump @9\n      : @48 [@dyn 15] (gas: 2)\n  1949: a1 = i32 [0x20170]\n  1954: jump @50 if a1 >u 31\n      : @49 (gas: 2)\n  1958: u32 [0x20170] = 0x20\n  1964: fallthrough\n      : @50 (gas: 6)\n  1965: a1 = 0x20180\n  1970: i32 a1 = a1 + 0\n  1972: a0 = 0x1\n  1975: a2 = 0x4\n  1978: ecalli 13 // 'seal_return'\n  1980: fallthrough\n      : @51 (gas: 3)\n  1981: a0 = s1\n  1983: a1 = 0\n  1985: ra = 32, jump @21\n      : @52 [@dyn 16] (gas: 7)\n  1990: i32 a0 = a0 + 0\n  1992: a1 = 0\n  1994: a2 = 0\n  1996: ecalli 1 // 'call_data_copy'\n  1998: a0 = sp + 0x20\n  2001: a1 = 0x80\n  2005: ra = 34, jump @7\n      : @53 [@dyn 17] (gas: 9)\n  2010: a0 = u64 [sp + 0x38]\n  2013: a2 = u64 [sp + 0x30]\n  2016: a3 = u64 [sp + 0x28]\n  2019: a4 = u64 [sp + 0x20]\n  2022: u64 [0x301b8] = a0\n  2027: u64 [0x301b0] = a2\n  2032: u64 [0x301a8] = a3\n  2037: u64 [0x301a0] = a4\n  2042: jump @5\n      : @54 (gas: 3)\n  2045: a0 = s1\n  2047: a1 = 0\n  2049: ra = 36, jump @21\n      : @55 [@dyn 18] (gas: 6)\n  2054: i32 a1 = a0 + 0\n  2056: a0 = 0\n  2058: a2 = 0\n  2060: ra = 0x26\n  2063: ecalli 13 // 'seal_return'\n  2065: jump @57\n      : @56 (gas: 4)\n  2067: a2 = 0\n  2069: ra = 0x26\n  2072: ecalli 13 // 'seal_return'\n  2074: fallthrough\n      : @57 [@dyn 19] (gas: 16)\n  2075: sp = sp + 0xfffffffffffffe10\n  2079: u64 [sp + 0x1e8] = ra\n  2083: u64 [sp + 0x1e0] = s0\n  2087: u64 [sp + 0x1d8] = s1\n  2091: s0 = sp + 0x1f0\n  2095: sp = sp + 0xffffffffffffd770\n  2099: sp = sp & 0xffffffffffffffe0\n  2102: s1 = sp\n  2104: a2 = s1 + 0x2118\n  2108: u64 [a2 + 256] = 0\n  2112: u64 [a2 + 248] = 0\n  2116: u64 [a2 + 232] = 0x80\n  2122: a0 = 0x40\n  2125: a1 = s1 + 0x2200\n  2129: u64 [a2 + 240] = 0\n  2133: ra = 40, jump @9\n      : @58 [@dyn 20] (gas: 4)\n  2138: a0 = 0x2016c\n  2143: u64 [s1 + 0x198] = a0\n  2147: a0 = i32 [0x2016c]\n  2152: jump @60 if a0 >=u 4\n      : @59 (gas: 1)\n  2156: jump @903\n      : @60 (gas: 6)\n  2159: a0 = s1 + 0x2000\n  2163: i32 a0 = a0 + 0x220\n  2167: a1 = 0\n  2169: ra = 0x2a\n  2172: ecalli 2 // 'call_data_load'\n  2174: fallthrough\n      : @61 [@dyn 21] (gas: 3)\n  2175: a2 = s1 + 0x2118\n  2179: a0 = i32 [a2 + 0x124]\n  2183: jump @63 if a0 != 2401489772\n      : @62 (gas: 1)\n  2190: jump @341\n      : @63 (gas: 2)\n  2193: a3 = s1 + 0x2918\n  2197: jump @123 if a0 == 3062082785\n      : @64 (gas: 1)\n  2205: jump @66 if a0 != 3135182381\n      : @65 (gas: 1)\n  2212: jump @374\n      : @66 (gas: 1)\n  2215: jump @68 if a0 != 3504541104\n      : @67 (gas: 1)\n  2222: jump @230\n      : @68 (gas: 1)\n  2225: jump @70 if a0 != 248271711\n      : @69 (gas: 1)\n  2232: jump @305\n      : @70 (gas: 1)\n  2235: jump @72 if a0 != 573237126\n      : @71 (gas: 1)\n  2242: jump @275\n      : @72 (gas: 1)\n  2245: jump @87 if a0 == 773487949\n      : @73 (gas: 1)\n  2253: jump @195 if a0 == 932579317\n      : @74 (gas: 1)\n  2261: jump @171 if a0 == 1221342904\n      : @75 (gas: 1)\n  2269: jump @77 if a0 == 1251080110\n      : @76 (gas: 1)\n  2276: jump @260\n      : @77 (gas: 10)\n  2279: u64 [a2 + 1312] = 0\n  2283: u64 [a2 + 1304] = 0\n  2287: u64 [a2 + 1296] = 0\n  2291: u64 [a2 + 1288] = 0\n  2295: a0 = s1 + 0x2000\n  2299: i32 a0 = a0 + 0x620\n  2303: ra = 0x2c\n  2306: ecalli 16 // 'value_transferred'\n  2308: t0 = 0x2e\n  2311: jump @1398\n      : @78 [@dyn 22] (gas: 1)\n  2315: t0 = 46, jump @1398\n      : @79 [@dyn 23] (gas: 8)\n  2321: a0 = u64 [a4 + 0x18]\n  2324: a1 = u64 [a4 + 0x20]\n  2327: a2 = u64 [a4 + 0x10]\n  2330: a3 = u64 [a4 + 0x8]\n  2333: a1 = a1 | a2\n  2336: a0 = a0 | a3\n  2339: a0 = a0 | a1\n  2342: jump @81 if a0 == 0\n      : @80 (gas: 1)\n  2345: jump @644\n      : @81 (gas: 3)\n  2348: a0 = u64 [s1 + 0x198]\n  2352: a0 = i32 [a0]\n  2354: jump @83 if a0 >u 3\n      : @82 (gas: 1)\n  2358: jump @645\n      : @83 (gas: 3)\n  2361: a0 = s1 + 0x1080\n  2365: a1 = 0x40\n  2368: ra = 48, jump @7\n      : @84 [@dyn 24] (gas: 15)\n  2373: a3 = s1 + 0x7ff\n  2377: a3 = a3 + 0x119\n  2381: a5 = a3 + 0x700\n  2385: a4 = u64 [a5 + 0x80]\n  2389: a1 = u64 [a5 + 0x78]\n  2392: a2 = u64 [a5 + 0x70]\n  2395: a0 = u64 [a5 + 0x68]\n  2398: a4 = a4 | a2\n  2401: a2 = a0 | a1\n  2404: a2 = a2 | a4\n  2407: a2 = a2 >> 0x20\n  2410: a1 = a1 | a4\n  2413: a1 = a1 << 0x20\n  2416: a1 = a1 | a2\n  2419: jump @86 if a1 == 0\n      : @85 (gas: 1)\n  2422: jump @643\n      : @86 (gas: 9)\n  2425: a1 = u64 [0x200a0]\n  2430: u64 [a3 + 1888] = 0\n  2434: u64 [a3 + 1880] = 0\n  2438: u64 [a3 + 0x748] = a1\n  2442: a1 = s1 + 0x1060\n  2446: u64 [a3 + 1872] = 0\n  2450: u64 [s1 + 0x198] = a0\n  2454: ra = 0x16a\n  2458: jump @9\n      : @87 (gas: 11)\n  2461: u64 [a2 + 576] = 0\n  2465: u64 [a2 + 568] = 0\n  2469: u64 [a2 + 560] = 0\n  2473: u64 [a2 + 552] = 0\n  2477: a0 = s1 + 0x2000\n  2481: i32 a0 = a0 + 0x340\n  2485: ra = 0x32\n  2488: ecalli 16 // 'value_transferred'\n  2490: a0 = 0x2000\n  2494: t0 = 0x34\n  2497: jump @1434\n      : @88 [@dyn 25] (gas: 2)\n  2501: a0 = 0x2000\n  2505: t0 = 52, jump @1434\n      : @89 [@dyn 26] (gas: 1)\n  2511: t0 = 54, jump @1432\n      : @90 [@dyn 27] (gas: 1)\n  2517: jump @92 if a0 == 0\n      : @91 (gas: 1)\n  2520: jump @646\n      : @92 (gas: 1)\n  2523: t0 = 56, jump @1422\n      : @93 [@dyn 28] (gas: 1)\n  2529: jump @95 if a1 <u a0\n      : @94 (gas: 1)\n  2532: jump @647\n      : @95 (gas: 6)\n  2535: a0 = s1 + 0x2000\n  2539: i32 a0 = a0 + 0x360\n  2543: a1 = 0x4\n  2546: ra = 0x3a\n  2549: ecalli 2 // 'call_data_load'\n  2551: fallthrough\n      : @96 [@dyn 29] (gas: 7)\n  2552: a0 = s1 + 0x2118\n  2556: a5 = a0 + 0x200\n  2560: a1 = u64 [a5 + 0x60]\n  2563: a2 = u64 [a5 + 0x58]\n  2566: a3 = u64 [a5 + 0x50]\n  2569: a4 = u64 [a5 + 0x48]\n  2572: t0 = 60, jump @1393\n      : @97 [@dyn 30] (gas: 1)\n  2578: jump @99 if a0 != 0\n      : @98 (gas: 1)\n  2581: jump @648\n      : @99 (gas: 8)\n  2584: a0 = 0x30180\n  2589: u64 [s1 + 0x180] = a0\n  2593: i32 a0 = a0 + 0\n  2595: u64 [s1 + 0x168] = a0\n  2599: ra = 0x3e\n  2602: ecalli 4 // 'caller'\n  2604: t0 = 0x40\n  2607: jump @1369\n      : @100 [@dyn 31] (gas: 1)\n  2611: t0 = 64, jump @1369\n      : @101 [@dyn 32] (gas: 7)\n  2617: u64 [s1 + 1368] = 0\n  2621: u64 [s1 + 0x550] = a1\n  2625: u64 [s1 + 0x548] = a0\n  2629: a1 = s1 + 0x540\n  2633: u64 [s1 + 0x540] = a3\n  2637: a0 = 0\n  2639: ra = 66, jump @9\n      : @102 [@dyn 33] (gas: 7)\n  2644: u64 [s1 + 1336] = 0\n  2648: u64 [s1 + 1328] = 0\n  2652: u64 [s1 + 1312] = 0x1\n  2657: a0 = 0x20\n  2660: a1 = s1 + 0x520\n  2664: u64 [s1 + 1320] = 0\n  2668: ra = 68, jump @9\n      : @103 [@dyn 34] (gas: 7)\n  2673: a0 = sp + 0xffffffffffffffe0\n  2676: a0 = a0 & 0xffffffffffffffe0\n  2679: u64 [s1 + 0x170] = a0\n  2683: sp = a0\n  2685: a2 = 0x20170\n  2690: a0 = i32 [0x20170]\n  2695: jump @105 if a0 >u 63\n      : @104 (gas: 2)\n  2699: u32 [0x20170] = 0x40\n  2705: fallthrough\n      : @105 (gas: 15)\n  2706: u64 [s1 + 0x140] = a2\n  2710: a0 = sp + 0xffffffffffffffe0\n  2713: a2 = a0 & 0xffffffffffffffe0\n  2716: u64 [s1 + 0x160] = a2\n  2720: sp = a2\n  2722: a0 = 0x20180\n  2727: i32 a0 = a0 + 0\n  2729: i32 a2 = a2 + 0\n  2731: a1 = 0x40\n  2734: u64 [s1 + 0x148] = a0\n  2738: ra = 0x46\n  2741: ecalli 8 // 'hash_keccak_256'\n  2743: a3 = u64 [s1 + 0x160]\n  2747: t0 = 0x48\n  2750: jump @1392\n      : @106 [@dyn 35] (gas: 2)\n  2754: a3 = u64 [s1 + 0x160]\n  2758: t0 = 72, jump @1392\n      : @107 [@dyn 36] (gas: 2)\n  2764: a0 = s1 + 0x500\n  2768: ra = 74, jump @11\n      : @108 [@dyn 37] (gas: 24)\n  2773: t1 = u64 [s1 + 0x518]\n  2777: t2 = u64 [s1 + 0x510]\n  2781: t0 = u64 [s1 + 0x508]\n  2785: a3 = u64 [s1 + 0x500]\n  2789: a0 = u64 [s1 + 0x198]\n  2793: a4 = t1 ^ a0\n  2796: a5 = t1 <u a0\n  2799: a1 = u64 [s1 + 0x178]\n  2803: a0 = t2 <u a1\n  2806: u64 [s1 + 0x158] = a0\n  2810: a5 = a0 if a4 == 0\n  2813: a0 = u64 [s1 + 0x190]\n  2817: ra = t0 ^ a0\n  2820: a0 = t0 <u a0\n  2823: a2 = u64 [s1 + 0x188]\n  2827: u64 [s1 + 0x160] = a3\n  2831: a2 = a3 <u a2\n  2834: u64 [s1 + 0x150] = a2\n  2838: a0 = a2 if ra == 0\n  2841: ra = a1\n  2843: a1 = t2 ^ a1\n  2846: a1 = a1 | a4\n  2849: a5 = a0 if a1 == 0\n  2852: jump @110 if a5 == 0\n      : @109 (gas: 1)\n  2855: jump @652\n      : @110 (gas: 11)\n  2858: a1 = t2 - ra\n  2861: a2 = u64 [s1 + 0x198]\n  2865: a2 = t1 - a2\n  2868: a3 = u64 [s1 + 0x158]\n  2872: a2 = a2 - a3\n  2875: a3 = a1 <u a0\n  2878: a2 = a2 - a3\n  2881: a1 = a1 - a0\n  2884: a0 = u64 [s1 + 0x190]\n  2888: a0 = t0 - a0\n  2891: t0 = 76, jump @1400\n      : @111 [@dyn 38] (gas: 7)\n  2897: u64 [a5 + 0x68] = a3\n  2900: u64 [a5 + 0x70] = a0\n  2903: u64 [a5 + 0x78] = a1\n  2906: u64 [a5 + 0x80] = a2\n  2910: a1 = s1 + 0x2380\n  2914: a0 = u64 [s1 + 0x170]\n  2918: ra = 78, jump @12\n      : @112 [@dyn 39] (gas: 5)\n  2923: a0 = u64 [s1 + 0x168]\n  2927: ra = 0x50\n  2930: ecalli 4 // 'caller'\n  2932: t0 = 0x52\n  2935: jump @1377\n      : @113 [@dyn 40] (gas: 1)\n  2939: t0 = 82, jump @1377\n      : @114 [@dyn 41] (gas: 14)\n  2945: u64 [s1 + 0x4d8] = a2\n  2949: a2 = u64 [a4 + 0x78]\n  2952: u64 [s1 + 0x4d0] = a2\n  2956: a2 = u64 [a4 + 0x90]\n  2960: u64 [s1 + 0x4c8] = a2\n  2964: a2 = u64 [a4 + 0x88]\n  2968: u64 [s1 + 0x4c0] = a2\n  2972: u64 [s1 + 1272] = 0\n  2976: u64 [s1 + 0x4f0] = a1\n  2980: u64 [s1 + 0x4e8] = a0\n  2984: a0 = s1 + 0x4e0\n  2988: a1 = s1 + 0x4c0\n  2992: u64 [s1 + 0x4e0] = a3\n  2996: ra = 84, jump @1340\n      : @115 [@dyn 42] (gas: 3)\n  3001: a0 = s1 + 0x4a0\n  3005: a1 = 0x40\n  3008: ra = 86, jump @7\n      : @116 [@dyn 43] (gas: 6)\n  3013: a4 = s1 + 0x400\n  3017: a0 = u64 [a4 + 0xb8]\n  3021: a1 = u64 [a4 + 0xb0]\n  3025: a2 = u64 [a4 + 0xa8]\n  3029: a3 = u64 [a4 + 0xa0]\n  3033: t0 = 88, jump @1385\n      : @117 [@dyn 44] (gas: 1)\n  3039: jump @119 if a0 == 0\n      : @118 (gas: 1)\n  3042: jump @643\n      : @119 (gas: 12)\n  3045: a0 = u64 [s1 + 0x188]\n  3049: u64 [s1 + 0x480] = a0\n  3053: a0 = u64 [s1 + 0x190]\n  3057: u64 [s1 + 0x488] = a0\n  3061: a0 = u64 [s1 + 0x178]\n  3065: u64 [s1 + 0x490] = a0\n  3069: a1 = s1 + 0x480\n  3073: a0 = u64 [s1 + 0x198]\n  3077: u64 [s1 + 0x498] = a0\n  3081: a0 = a3\n  3083: u64 [s1 + 0x198] = a3\n  3087: ra = 90, jump @9\n      : @120 [@dyn 45] (gas: 6)\n  3092: a0 = u64 [s1 + 0x168]\n  3096: ra = 0x5c\n  3099: ecalli 4 // 'caller'\n  3101: a2 = u64 [s1 + 0x180]\n  3105: t0 = 0x5e\n  3108: jump @1365\n      : @121 [@dyn 46] (gas: 2)\n  3112: a2 = u64 [s1 + 0x180]\n  3116: t0 = 94, jump @1365\n      : @122 [@dyn 47] (gas: 25)\n  3122: t0 = a1 | a0\n  3125: a3 = a3 >> 0x20\n  3128: a2 = reverse a2\n  3130: a1 = a2 << 0x20\n  3133: a1 = a1 | a3\n  3136: a2 = a2 >> 0x20\n  3139: u64 [s1 + 1112] = 0\n  3143: a3 = u64 [0x200f8]\n  3148: a4 = u64 [0x20100]\n  3153: a5 = u64 [0x20108]\n  3158: a0 = u64 [0x20110]\n  3163: u64 [s1 + 0x478] = a3\n  3167: a3 = s1 + 0x400\n  3171: u64 [a3 + 0x70] = a4\n  3174: u64 [a3 + 0x68] = a5\n  3177: u64 [a3 + 0x60] = a0\n  3180: u64 [a3 + 0x50] = a2\n  3183: u64 [a3 + 0x48] = a1\n  3186: a1 = 0x20\n  3189: a2 = s1 + 0x460\n  3193: a3 = s1 + 0x440\n  3197: u64 [s1 + 0x440] = t0\n  3201: a0 = u64 [s1 + 0x198]\n  3205: ra = 0x160\n  3209: jump @13\n      : @123 (gas: 9)\n  3212: u64 [a2 + 1760] = 0\n  3216: u64 [a2 + 1752] = 0\n  3220: u64 [a2 + 1744] = 0\n  3224: u64 [a2 + 1736] = 0\n  3228: a0 = s1 + 0x2000\n  3232: i32 a0 = a0 + 0x7e0\n  3236: ra = 0x60\n  3239: ecalli 16 // 'value_transferred'\n  3241: fallthrough\n      : @124 [@dyn 48] (gas: 10)\n  3242: a3 = s1 + 0x2118\n  3246: a4 = a3 + 0x600\n  3250: a0 = u64 [a4 + 0xd8]\n  3254: a1 = u64 [a4 + 0xe0]\n  3258: a2 = u64 [a4 + 0xd0]\n  3262: a3 = u64 [a4 + 0xc8]\n  3266: a1 = a1 | a2\n  3269: a0 = a0 | a3\n  3272: a0 = a0 | a1\n  3275: jump @126 if a0 == 0\n      : @125 (gas: 1)\n  3278: jump @653\n      : @126 (gas: 1)\n  3281: t0 = 98, jump @1422\n      : @127 [@dyn 49] (gas: 1)\n  3287: jump @129 if a1 <u a0\n      : @128 (gas: 1)\n  3290: jump @654\n      : @129 (gas: 5)\n  3293: a0 = s1 + 0x3000\n  3297: i32 a0 = a0 + 0xfffffffffffff800\n  3301: a1 = 0x4\n  3304: ecalli 2 // 'call_data_load'\n  3306: fallthrough\n      : @130 (gas: 8)\n  3307: a5 = s1 + 0x2118\n  3311: a3 = u64 [a5 + 0x700]\n  3315: a1 = u64 [a5 + 0x6f8]\n  3319: a4 = u64 [a5 + 0x6f0]\n  3323: a2 = a1 | a3\n  3326: a0 = a4 <u 0x1\n  3329: a0 = 0 if a2 != 0\n  3331: jump @132 if a0 != 0\n      : @131 (gas: 1)\n  3334: jump @655\n      : @132 (gas: 20)\n  3337: u64 [s1 + 0x98] = a2\n  3341: a5 = u64 [a5 + 0x6e8]\n  3345: a0 = u64 [s1 + 0x198]\n  3349: t1 = u32 [a0]\n  3351: a0 = a5 + 0x23\n  3354: a2 = a0 <u a5\n  3357: t0 = a4 + a2\n  3360: u64 [s1 + 0xd8] = a4\n  3364: a4 = t0 <u a4\n  3367: a4 = a2 if a2 == 0\n  3370: a4 = a4 + a1\n  3373: u64 [s1 + 0x188] = a1\n  3377: a2 = a4 <u a1\n  3380: u64 [s1 + 0x190] = a3\n  3384: a2 = a2 + a3\n  3387: a2 = a2 | a4\n  3390: a0 = a0 <u t1\n  3393: a0 = 0 if t0 != 0\n  3395: a0 = 0 if a2 != 0\n  3397: jump @134 if a0 != 0\n      : @133 (gas: 1)\n  3400: jump @656\n      : @134 (gas: 6)\n  3403: i32 a1 = a5 + 0x4\n  3406: a0 = s1 + 0x3000\n  3410: i32 a0 = a0 + 0xfffffffffffff820\n  3414: u64 [s1 + 0xd0] = a5\n  3418: ecalli 2 // 'call_data_load'\n  3420: fallthrough\n      : @135 (gas: 9)\n  3421: a2 = s1 + 0x2118\n  3425: a0 = u64 [a2 + 0x720]\n  3429: t0 = u64 [a2 + 0x718]\n  3433: ra = u64 [a2 + 0x710]\n  3437: u64 [s1 + 0xf0] = a0\n  3441: a0 = t0 | a0\n  3444: a1 = ra <u 0x1\n  3447: a1 = 0 if a0 != 0\n  3449: jump @137 if a1 != 0\n      : @136 (gas: 1)\n  3452: jump @657\n      : @137 (gas: 43)\n  3455: t1 = u64 [a2 + 0x708]\n  3459: a1 = u64 [s1 + 0xd0]\n  3463: a0 = a1 + 0x24\n  3466: a2 = a0 <u a1\n  3469: t2 = u64 [s1 + 0xd8]\n  3473: a3 = t2 + a2\n  3476: a1 = a0 + t1\n  3479: u64 [s1 + 0x180] = a1\n  3483: u64 [s1 + 0x120] = a0\n  3487: a4 = a1 <u a0\n  3490: a0 = a3 + ra\n  3493: a0 = a0 + a4\n  3496: a5 = a0 ^ a3\n  3499: a1 = a0 <u a3\n  3502: a1 = a4 if a5 == 0\n  3505: a3 = a3 <u t2\n  3508: a3 = a2 if a2 == 0\n  3511: a2 = u64 [s1 + 0x188]\n  3515: a3 = a3 + a2\n  3518: a2 = a3 <u a2\n  3521: a5 = u64 [s1 + 0xf0]\n  3525: a4 = u64 [s1 + 0x190]\n  3529: a4 = a4 + a5\n  3532: a2 = a2 + a4\n  3535: a4 = a3 + t0\n  3538: a3 = a4 <u a3\n  3541: a2 = a2 + a3\n  3544: a3 = u64 [s1 + 0x198]\n  3548: a3 = u32 [a3]\n  3550: a1 = a1 + a4\n  3553: a4 = a1 <u a4\n  3556: a2 = a2 + a4\n  3559: a4 = u64 [s1 + 0x180]\n  3563: a3 = a3 <u a4\n  3566: a4 = a0 <u 0x1\n  3569: a3 = a3 ^ 0x1\n  3572: a3 = a4 if a0 != 0\n  3575: a0 = a2 <u 0x1\n  3578: a4 = a1 <u 0x1\n  3581: a4 = a0 if a2 != 0\n  3584: a1 = a1 | a2\n  3587: a3 = a4 if a1 != 0\n  3590: jump @139 if a3 != 0\n      : @138 (gas: 1)\n  3593: jump @658\n      : @139 (gas: 26)\n  3596: a0 = t1 + 0xfffffffffffffffd\n  3599: u64 [s1 + 0xc0] = t1\n  3603: a1 = a0 <u t1\n  3606: a2 = ra + a1\n  3609: a2 = a2 + 0xffffffffffffffff\n  3612: a3 = a2 ^ ra\n  3615: u64 [s1 + 0xb0] = ra\n  3619: a4 = a2 <u ra\n  3622: a4 = a1 if a3 == 0\n  3625: a1 = t0 + 0xffffffffffffffff\n  3628: a4 = a4 + a1\n  3631: a1 = a4 <u a1\n  3634: u64 [s1 + 0xb8] = t0\n  3638: a3 = t0 <u 0x1\n  3641: a3 = a5 - a3\n  3644: a1 = a1 + a3\n  3647: a3 = a4 >u 0\n  3649: a5 = a1 >u 0\n  3651: a5 = a3 if a1 == 0\n  3654: a1 = a1 | a4\n  3657: a3 = a2 >u 0\n  3659: a0 = a0 <u 0x62\n  3662: a0 = a0 ^ 0x1\n  3665: a0 = a3 if a2 != 0\n  3668: a0 = a5 if a1 != 0\n  3671: jump @141 if a0 == 0\n      : @140 (gas: 1)\n  3674: jump @719\n      : @141 (gas: 8)\n  3677: a0 = 0x30180\n  3682: u64 [s1 + 0xe8] = a0\n  3686: i32 a0 = a0 + 0\n  3688: u64 [s1 + 0xc8] = a0\n  3692: ra = 0x64\n  3695: ecalli 4 // 'caller'\n  3697: t0 = 0x66\n  3700: jump @1367\n      : @142 [@dyn 50] (gas: 1)\n  3703: t0 = 102, jump @1367\n      : @143 [@dyn 51] (gas: 8)\n  3708: u64 [a2 + 1824] = 0\n  3712: a4 = a2 + 0x700\n  3716: u64 [a4 + 0x18] = a1\n  3719: u64 [a4 + 0x10] = a0\n  3722: a1 = s1 + 0x2020\n  3726: u64 [a4 + 0x8] = a3\n  3729: a0 = 0\n  3731: ra = 104, jump @9\n      : @144 [@dyn 52] (gas: 3)\n  3736: t0 = 0x6a\n  3739: a1 = s1 + 0x1918\n  3743: fallthrough\n      : @145 [@dyn 53] (gas: 8)\n  3744: u64 [a1 + 1792] = 0\n  3748: u64 [a1 + 1784] = 0\n  3752: u64 [a1 + 1768] = 0x3\n  3757: a2 = a1\n  3759: a0 = 0x20\n  3762: a1 = s1 + 0x2000\n  3766: u64 [a2 + 1776] = 0\n  3770: ra = 108, jump @9\n      : @146 [@dyn 54] (gas: 1)\n  3775: t0 = 110, jump @1413\n      : @147 [@dyn 55] (gas: 4)\n  3781: a2 = 0x20170\n  3786: a0 = i32 [0x20170]\n  3791: a1 = 0x3f\n  3794: jump @149 if a1 <u a0\n      : @148 (gas: 2)\n  3797: u32 [0x20170] = 0x40\n  3803: fallthrough\n      : @149 (gas: 4)\n  3804: u64 [s1 + 0xa8] = a2\n  3808: a0 = 0xffffffff\n  3818: u64 [s1 + 0xe0] = a0\n  3822: t0 = 112, jump @1429\n      : @150 [@dyn 56] (gas: 9)\n  3828: a0 = 0x20180\n  3833: i32 a0 = a0 + 0\n  3835: i32 a2 = a2 + 0\n  3837: a1 = 0x40\n  3840: u64 [s1 + 0xa0] = a0\n  3844: ra = 0x72\n  3847: ecalli 8 // 'hash_keccak_256'\n  3849: t0 = 0x74\n  3852: jump @1380\n      : @151 [@dyn 57] (gas: 1)\n  3856: t0 = 116, jump @1380\n      : @152 [@dyn 58] (gas: 3)\n  3862: i32 a0 = a0 + 0xffffffffffffffe0\n  3865: a0 = a0 + s1\n  3868: ra = 118, jump @11\n      : @153 [@dyn 59] (gas: 4)\n  3873: a0 = s1 + 0x1918\n  3877: a0 = u32 [a0 + 0x6c8]\n  3881: a1 = u64 [s1 + 0xe0]\n  3885: jump @155 if a0 != a1\n      : @154 (gas: 1)\n  3888: jump @659\n      : @155 (gas: 10)\n  3891: a1 = a0 + 0x1\n  3894: u64 [s1 + 0x100] = a1\n  3898: a0 = a1 <u 0x1\n  3901: u64 [s1 + 0xf8] = a0\n  3905: a0 = a0 | a1\n  3908: a0 = a0 <u 0x1\n  3911: u64 [s1 + 0x108] = a0\n  3915: a0 = s1 + 0x1fc0\n  3919: a1 = u64 [s1 + 0x198]\n  3923: ra = 120, jump @11\n      : @156 [@dyn 60] (gas: 22)\n  3928: a3 = s1 + 0x1918\n  3932: a0 = u32 [a3 + 0x6ac]\n  3936: a4 = a3 + 0x600\n  3940: a1 = u64 [a4 + 0xb8]\n  3944: a0 = a0 << 0x20\n  3947: a2 = u64 [a4 + 0xb0]\n  3951: a3 = u64 [a4 + 0xc0]\n  3955: a4 = u64 [s1 + 0x108]\n  3959: a1 = a1 | a4\n  3962: a4 = u64 [s1 + 0x100]\n  3966: a0 = a0 | a4\n  3969: a4 = u64 [s1 + 0xf8]\n  3973: a2 = a2 | a4\n  3976: a4 = s1 + 0x2118\n  3980: a5 = a4 + 0x700\n  3984: u64 [a5 + 0x40] = a3\n  3987: u64 [a5 + 0x30] = a2\n  3990: u64 [a5 + 0x28] = a0\n  3993: u64 [a5 + 0x38] = a1\n  3996: a1 = s1 + 0x2840\n  4000: a0 = u64 [s1 + 0x198]\n  4004: ra = 122, jump @12\n      : @157 [@dyn 61] (gas: 4)\n  4009: a0 = s1 + 0x3000\n  4013: i32 a0 = a0 + 0xfffffffffffff860\n  4017: ecalli 9 // 'now'\n  4019: fallthrough\n      : @158 (gas: 50)\n  4020: a0 = s1 + 0x2118\n  4024: t2 = u64 [a0 + 0x760]\n  4028: a3 = u64 [a0 + 0x758]\n  4032: u64 [s1 + 0x150] = a3\n  4036: t1 = u64 [a0 + 0x750]\n  4040: ra = u64 [a0 + 0x748]\n  4044: a0 = clz t2\n  4046: a1 = clz a3\n  4048: a2 = a1 + 0x40\n  4051: a2 = a0 if t2 != 0\n  4054: a0 = clz t1\n  4056: a1 = clz ra\n  4058: a1 = a1 + 0x40\n  4061: a1 = a0 if t1 != 0\n  4064: a0 = a1 + 0x80\n  4068: a3 = a3 | t2\n  4071: a2 = a0 if a3 == 0\n  4074: a5 = a0 <u a1\n  4077: a5 = 0 if a3 != 0\n  4079: a4 = a5 >u 0\n  4081: a0 = a2 <u 0xf0\n  4085: a3 = a0 ^ 0x1\n  4088: a4 = a3 if a5 == 0\n  4091: a0 = a4 <u 0x1\n  4094: a0 = a0 + 0xffffffffffffffff\n  4097: a1 = -a4\n  4099: a5 = -a5\n  4101: a3 = a5 - a3\n  4104: t0 = 0xef - a2\n  4108: u64 [s1 + 0x198] = a1\n  4112: a5 = a1 >u 0\n  4114: a1 = a0 >u 0\n  4116: a1 = a5 if a0 == 0\n  4119: a5 = t0 <u 0x100\n  4123: a5 = a5 ^ 0x1\n  4126: a2 = a3 >u 0\n  4128: a5 = a2 if a3 != 0\n  4131: a5 = a1 if a4 != 0\n  4134: u64 [s1 + 0x140] = t2\n  4138: a1 = t1 | t2\n  4141: t2 = t1\n  4143: t1 = u64 [s1 + 0x150]\n  4147: a2 = ra | t1\n  4150: a1 = a1 | a2\n  4153: a1 = a1 <u 0x1\n  4156: a1 = a1 | a5\n  4159: u64 [s1 + 0x158] = ra\n  4163: a4 = ra\n  4165: a4 = 0 if a1 != 0\n  4167: jump @160 if a1 == 0\n      : @159 (gas: 1)\n  4170: jump @505\n      : @160 (gas: 6)\n  4173: a1 = t0 ^ 0xff\n  4177: a5 = u64 [s1 + 0x198]\n  4181: a1 = a1 | a5\n  4184: a2 = a3 | a0\n  4187: a1 = a1 | a2\n  4190: jump @162 if a1 != 0\n      : @161 (gas: 1)\n  4193: jump @505\n      : @162 (gas: 19)\n  4196: a2 = t0 + 0x1\n  4199: u64 [s1 + 0x190] = a2\n  4203: a1 = a2 <u 0x1\n  4206: a1 = a1 + a3\n  4209: u64 [s1 + 0x180] = a1\n  4213: a1 = a1 | a2\n  4216: a1 = a1 <u 0x1\n  4219: a1 = a1 + a5\n  4222: u64 [s1 + 0x170] = a1\n  4226: a1 = a1 <u a5\n  4229: a0 = a0 + a1\n  4232: u64 [s1 + 0x178] = a0\n  4236: a1 = 0xff - t0\n  4240: u64 [s1 + 0x168] = a1\n  4244: a2 = 0x80 - a1\n  4248: a0 = u64 [s1 + 0x158]\n  4252: a1 = t2\n  4254: u64 [s1 + 0x148] = t2\n  4258: ra = 124, jump @1443\n      : @163 [@dyn 62] (gas: 1)\n  4264: t0 = 126, jump @1439\n      : @164 [@dyn 63] (gas: 1)\n  4270: ra = 128, jump @1448\n      : @165 [@dyn 64] (gas: 7)\n  4277: u64 [s1 + 0x130] = a0\n  4281: u64 [s1 + 0x128] = a1\n  4285: a0 = u64 [s1 + 0x168]\n  4289: a2 = a0 + 0xffffffffffffff80\n  4292: a0 = u64 [s1 + 0x158]\n  4296: a1 = u64 [s1 + 0x148]\n  4300: ra = 130, jump @1448\n      : @166 [@dyn 65] (gas: 1)\n  4307: t0 = 132, jump @1438\n      : @167 [@dyn 66] (gas: 3)\n  4314: a0 = u64 [s1 + 0x158]\n  4318: a1 = u64 [s1 + 0x148]\n  4322: ra = 134, jump @1448\n      : @168 [@dyn 67] (gas: 11)\n  4329: a4 = u64 [s1 + 0x138]\n  4333: t0 = u64 [s1 + 0x170]\n  4337: a5 = u64 [s1 + 0x178]\n  4341: a2 = u64 [s1 + 0x180]\n  4345: a5 = a5 | a2\n  4348: a3 = u64 [s1 + 0x190]\n  4352: a3 = a3 | t0\n  4355: a3 = a3 | a5\n  4358: a0 = 0 if a4 == 0\n  4360: u64 [s1 + 0x188] = a0\n  4364: jump @170 if a3 == 0\n      : @169 (gas: 1)\n  4367: jump @492\n      : @170 (gas: 2)\n  4370: a4 = 0\n  4372: jump @504\n      : @171 (gas: 9)\n  4375: u64 [a2 + 896] = 0\n  4379: u64 [a2 + 888] = 0\n  4383: u64 [a2 + 880] = 0\n  4387: u64 [a2 + 872] = 0\n  4391: a0 = s1 + 0x2000\n  4395: i32 a0 = a0 + 0x480\n  4399: ra = 0x88\n  4403: ecalli 16 // 'value_transferred'\n  4405: fallthrough\n      : @172 [@dyn 68] (gas: 3)\n  4406: a3 = s1 + 0x2118\n  4410: a4 = a3 + 0x300\n  4414: t0 = 138, jump @1407\n      : @173 [@dyn 69] (gas: 1)\n  4421: jump @175 if a0 == 0\n      : @174 (gas: 1)\n  4424: jump @663\n      : @175 (gas: 1)\n  4427: t0 = 140, jump @1422\n      : @176 [@dyn 70] (gas: 1)\n  4434: jump @178 if a1 <u a0\n      : @177 (gas: 1)\n  4437: jump @664\n      : @178 (gas: 5)\n  4440: a0 = s1 + 0x2000\n  4444: i32 a0 = a0 + 0x4a0\n  4448: a1 = 0x4\n  4451: ecalli 2 // 'call_data_load'\n  4453: fallthrough\n      : @179 (gas: 9)\n  4454: a3 = s1 + 0x2118\n  4458: a4 = a3 + 0x300\n  4462: a0 = u64 [a4 + 0xa0]\n  4466: a1 = u64 [a4 + 0x98]\n  4470: a2 = u64 [a4 + 0x90]\n  4474: a0 = a0 | a1\n  4477: a1 = a2 <u 0x1\n  4480: a1 = 0 if a0 != 0\n  4482: jump @181 if a1 != 0\n      : @180 (gas: 1)\n  4485: jump @665\n      : @181 (gas: 6)\n  4488: a0 = u64 [a3 + 0x388]\n  4492: u64 [s1 + 0x120] = a0\n  4496: a0 = s1 + 0x2000\n  4500: i32 a0 = a0 + 0x4c0\n  4504: ecalli 9 // 'now'\n  4506: fallthrough\n      : @182 (gas: 49)\n  4507: a0 = s1 + 0x2118\n  4511: t2 = u64 [a0 + 0x3c0]\n  4515: a3 = u64 [a0 + 0x3b8]\n  4519: u64 [s1 + 0x150] = a3\n  4523: t0 = u64 [a0 + 0x3b0]\n  4527: ra = u64 [a0 + 0x3a8]\n  4531: a0 = clz t2\n  4533: a1 = clz a3\n  4535: a2 = a1 + 0x40\n  4538: a2 = a0 if t2 != 0\n  4541: a0 = clz t0\n  4543: a1 = clz ra\n  4545: a1 = a1 + 0x40\n  4548: a1 = a0 if t0 != 0\n  4551: a0 = a1 + 0x80\n  4555: a3 = a3 | t2\n  4558: a2 = a0 if a3 == 0\n  4561: a5 = a0 <u a1\n  4564: a5 = 0 if a3 != 0\n  4566: a4 = a5 >u 0\n  4568: a0 = a2 <u 0xf0\n  4572: a3 = a0 ^ 0x1\n  4575: a4 = a3 if a5 == 0\n  4578: a0 = a4 <u 0x1\n  4581: a0 = a0 + 0xffffffffffffffff\n  4584: a1 = -a4\n  4586: a5 = -a5\n  4588: a3 = a5 - a3\n  4591: t1 = 0xef - a2\n  4595: u64 [s1 + 0x198] = a1\n  4599: a5 = a1 >u 0\n  4601: a1 = a0 >u 0\n  4603: a1 = a5 if a0 == 0\n  4606: a5 = t1 <u 0x100\n  4610: a5 = a5 ^ 0x1\n  4613: a2 = a3 >u 0\n  4615: a5 = a2 if a3 != 0\n  4618: a5 = a1 if a4 != 0\n  4621: u64 [s1 + 0x140] = t2\n  4625: u64 [s1 + 0x158] = t0\n  4629: a1 = t0 | t2\n  4632: t2 = u64 [s1 + 0x150]\n  4636: a2 = ra | t2\n  4639: a1 = a1 | a2\n  4642: a1 = a1 <u 0x1\n  4645: a1 = a1 | a5\n  4648: a4 = ra\n  4650: a4 = 0 if a1 != 0\n  4652: jump @184 if a1 == 0\n      : @183 (gas: 1)\n  4655: jump @400\n      : @184 (gas: 6)\n  4658: a1 = t1 ^ 0xff\n  4662: a5 = u64 [s1 + 0x198]\n  4666: a1 = a1 | a5\n  4669: a2 = a3 | a0\n  4672: a1 = a1 | a2\n  4675: jump @186 if a1 != 0\n      : @185 (gas: 1)\n  4678: jump @400\n      : @186 (gas: 20)\n  4681: t0 = ra\n  4683: a2 = t1 + 0x1\n  4686: u64 [s1 + 0x190] = a2\n  4690: a1 = a2 <u 0x1\n  4693: a1 = a1 + a3\n  4696: u64 [s1 + 0x180] = a1\n  4700: a1 = a1 | a2\n  4703: a1 = a1 <u 0x1\n  4706: a1 = a1 + a5\n  4709: u64 [s1 + 0x170] = a1\n  4713: a1 = a1 <u a5\n  4716: a0 = a0 + a1\n  4719: u64 [s1 + 0x178] = a0\n  4723: a1 = 0xff - t1\n  4727: u64 [s1 + 0x168] = a1\n  4731: a2 = 0x80 - a1\n  4735: a0 = ra\n  4737: u64 [s1 + 0x148] = t0\n  4741: a1 = u64 [s1 + 0x158]\n  4745: ra = 142, jump @1443\n      : @187 [@dyn 71] (gas: 1)\n  4752: t0 = 144, jump @1439\n      : @188 [@dyn 72] (gas: 1)\n  4759: ra = 146, jump @1448\n      : @189 [@dyn 73] (gas: 7)\n  4766: u64 [s1 + 0x130] = a0\n  4770: u64 [s1 + 0x128] = a1\n  4774: a0 = u64 [s1 + 0x168]\n  4778: a2 = a0 + 0xffffffffffffff80\n  4781: a0 = u64 [s1 + 0x148]\n  4785: a1 = u64 [s1 + 0x158]\n  4789: ra = 148, jump @1448\n      : @190 [@dyn 74] (gas: 1)\n  4796: t0 = 150, jump @1438\n      : @191 [@dyn 75] (gas: 3)\n  4803: a0 = u64 [s1 + 0x148]\n  4807: a1 = u64 [s1 + 0x158]\n  4811: ra = 152, jump @1448\n      : @192 [@dyn 76] (gas: 11)\n  4818: a4 = u64 [s1 + 0x138]\n  4822: t0 = u64 [s1 + 0x170]\n  4826: a5 = u64 [s1 + 0x178]\n  4830: a2 = u64 [s1 + 0x180]\n  4834: a5 = a5 | a2\n  4837: a3 = u64 [s1 + 0x190]\n  4841: a3 = a3 | t0\n  4844: a3 = a3 | a5\n  4847: a0 = 0 if a4 == 0\n  4849: u64 [s1 + 0x188] = a0\n  4853: jump @194 if a3 == 0\n      : @193 (gas: 1)\n  4856: jump @387\n      : @194 (gas: 2)\n  4859: a4 = 0\n  4861: jump @399\n      : @195 (gas: 11)\n  4864: u64 [a2 + 672] = 0\n  4868: u64 [a2 + 664] = 0\n  4872: u64 [a2 + 656] = 0\n  4876: u64 [a2 + 648] = 0\n  4880: a0 = s1 + 0x2000\n  4884: i32 a0 = a0 + 0x3a0\n  4888: ra = 0x9a\n  4892: ecalli 16 // 'value_transferred'\n  4894: a0 = 0x2000\n  4898: t0 = 0x9c\n  4902: jump @1434\n      : @196 [@dyn 77] (gas: 2)\n  4906: a0 = 0x2000\n  4910: t0 = 156, jump @1434\n      : @197 [@dyn 78] (gas: 8)\n  4917: a0 = u64 [a4 + 0x98]\n  4921: a1 = u64 [a4 + 0xa0]\n  4925: a2 = u64 [a4 + 0x90]\n  4929: a3 = u64 [a4 + 0x88]\n  4933: a1 = a1 | a2\n  4936: a0 = a0 | a3\n  4939: a0 = a0 | a1\n  4942: jump @199 if a0 == 0\n      : @198 (gas: 1)\n  4945: jump @666\n      : @199 (gas: 1)\n  4948: t0 = 158, jump @1422\n      : @200 [@dyn 79] (gas: 1)\n  4955: jump @202 if a1 <u a0\n      : @201 (gas: 1)\n  4958: jump @667\n      : @202 (gas: 6)\n  4961: a0 = s1 + 0x2000\n  4965: i32 a0 = a0 + 0x3c0\n  4969: a1 = 0x4\n  4972: ra = 0xa0\n  4976: ecalli 2 // 'call_data_load'\n  4978: fallthrough\n      : @203 [@dyn 80] (gas: 7)\n  4979: a0 = s1 + 0x2118\n  4983: a5 = a0 + 0x200\n  4987: a1 = u64 [a5 + 0xc0]\n  4991: a2 = u64 [a5 + 0xb8]\n  4995: a3 = u64 [a5 + 0xb0]\n  4999: a4 = u64 [a5 + 0xa8]\n  5003: t0 = 162, jump @1393\n      : @204 [@dyn 81] (gas: 1)\n  5009: jump @206 if a0 != 0\n      : @205 (gas: 1)\n  5012: jump @668\n      : @206 (gas: 8)\n  5015: a0 = 0x30180\n  5020: u64 [s1 + 0x180] = a0\n  5024: i32 a0 = a0 + 0\n  5026: u64 [s1 + 0x168] = a0\n  5030: ra = 0xa4\n  5034: ecalli 4 // 'caller'\n  5036: t0 = 0xa6\n  5040: jump @1369\n      : @207 [@dyn 82] (gas: 1)\n  5043: t0 = 166, jump @1369\n      : @208 [@dyn 83] (gas: 7)\n  5049: u64 [s1 + 1720] = 0\n  5053: u64 [s1 + 0x6b0] = a1\n  5057: u64 [s1 + 0x6a8] = a0\n  5061: a1 = s1 + 0x6a0\n  5065: u64 [s1 + 0x6a0] = a3\n  5069: a0 = 0\n  5071: ra = 168, jump @9\n      : @209 [@dyn 84] (gas: 7)\n  5077: u64 [s1 + 1688] = 0\n  5081: u64 [s1 + 1680] = 0\n  5085: u64 [s1 + 1664] = 0x1\n  5090: a0 = 0x20\n  5093: a1 = s1 + 0x680\n  5097: u64 [s1 + 1672] = 0\n  5101: ra = 170, jump @9\n      : @210 [@dyn 85] (gas: 7)\n  5107: a0 = sp + 0xffffffffffffffe0\n  5110: a0 = a0 & 0xffffffffffffffe0\n  5113: u64 [s1 + 0x170] = a0\n  5117: sp = a0\n  5119: a2 = 0x20170\n  5124: a0 = i32 [0x20170]\n  5129: jump @212 if a0 >u 63\n      : @211 (gas: 2)\n  5133: u32 [0x20170] = 0x40\n  5139: fallthrough\n      : @212 (gas: 13)\n  5140: u64 [s1 + 0x140] = a2\n  5144: a0 = sp + 0xffffffffffffffe0\n  5147: a2 = a0 & 0xffffffffffffffe0\n  5150: u64 [s1 + 0x160] = a2\n  5154: sp = a2\n  5156: a0 = 0x20180\n  5161: i32 a0 = a0 + 0\n  5163: i32 a2 = a2 + 0\n  5165: a1 = 0x40\n  5168: u64 [s1 + 0x148] = a0\n  5172: ra = 0xac\n  5176: ecalli 8 // 'hash_keccak_256'\n  5178: fallthrough\n      : @213 [@dyn 86] (gas: 11)\n  5179: a3 = u64 [s1 + 0x160]\n  5183: a0 = u64 [a3]\n  5185: a1 = u64 [a3 + 0x8]\n  5188: a2 = u64 [a3 + 0x10]\n  5191: a3 = u64 [a3 + 0x18]\n  5194: a0 = reverse a0\n  5196: a1 = reverse a1\n  5198: a2 = reverse a2\n  5200: a3 = reverse a3\n  5202: a4 = a3 + 0x2\n  5205: t0 = 174, jump @1373\n      : @214 [@dyn 87] (gas: 7)\n  5211: a1 = u64 [s1 + 0x170]\n  5215: u64 [a1] = a4\n  5217: u64 [a1 + 0x8] = a5\n  5220: u64 [a1 + 0x10] = a2\n  5223: u64 [a1 + 0x18] = a0\n  5226: a0 = s1 + 0x660\n  5230: ra = 176, jump @11\n      : @215 [@dyn 88] (gas: 24)\n  5236: t1 = u64 [s1 + 0x678]\n  5240: t2 = u64 [s1 + 0x670]\n  5244: t0 = u64 [s1 + 0x668]\n  5248: a3 = u64 [s1 + 0x660]\n  5252: a0 = u64 [s1 + 0x198]\n  5256: a4 = t1 ^ a0\n  5259: a5 = t1 <u a0\n  5262: a1 = u64 [s1 + 0x178]\n  5266: a0 = t2 <u a1\n  5269: u64 [s1 + 0x158] = a0\n  5273: a5 = a0 if a4 == 0\n  5276: a0 = u64 [s1 + 0x190]\n  5280: ra = t0 ^ a0\n  5283: a0 = t0 <u a0\n  5286: a2 = u64 [s1 + 0x188]\n  5290: u64 [s1 + 0x160] = a3\n  5294: a2 = a3 <u a2\n  5297: u64 [s1 + 0x150] = a2\n  5301: a0 = a2 if ra == 0\n  5304: ra = a1\n  5306: a1 = t2 ^ a1\n  5309: a1 = a1 | a4\n  5312: a5 = a0 if a1 == 0\n  5315: jump @217 if a5 == 0\n      : @216 (gas: 1)\n  5318: jump @672\n      : @217 (gas: 11)\n  5321: a1 = t2 - ra\n  5324: a2 = u64 [s1 + 0x198]\n  5328: a2 = t1 - a2\n  5331: a3 = u64 [s1 + 0x158]\n  5335: a2 = a2 - a3\n  5338: a3 = a1 <u a0\n  5341: a2 = a2 - a3\n  5344: a1 = a1 - a0\n  5347: a0 = u64 [s1 + 0x190]\n  5351: a0 = t0 - a0\n  5354: t0 = 178, jump @1400\n      : @218 [@dyn 89] (gas: 7)\n  5360: u64 [a5 + 0xc8] = a3\n  5364: u64 [a5 + 0xd0] = a0\n  5368: u64 [a5 + 0xd8] = a1\n  5372: u64 [a5 + 0xe0] = a2\n  5376: a1 = s1 + 0x23e0\n  5380: a0 = u64 [s1 + 0x170]\n  5384: ra = 180, jump @12\n      : @219 [@dyn 90] (gas: 5)\n  5390: a0 = u64 [s1 + 0x168]\n  5394: ra = 0xb6\n  5398: ecalli 4 // 'caller'\n  5400: t0 = 0xb8\n  5404: jump @1377\n      : @220 [@dyn 91] (gas: 1)\n  5407: t0 = 184, jump @1377\n      : @221 [@dyn 92] (gas: 14)\n  5413: u64 [s1 + 0x638] = a2\n  5417: a2 = u64 [a4 + 0x78]\n  5420: u64 [s1 + 0x630] = a2\n  5424: a2 = u64 [a4 + 0x90]\n  5428: u64 [s1 + 0x628] = a2\n  5432: a2 = u64 [a4 + 0x88]\n  5436: u64 [s1 + 0x620] = a2\n  5440: u64 [s1 + 1624] = 0\n  5444: u64 [s1 + 0x650] = a1\n  5448: u64 [s1 + 0x648] = a0\n  5452: a0 = s1 + 0x640\n  5456: a1 = s1 + 0x620\n  5460: u64 [s1 + 0x640] = a3\n  5464: ra = 186, jump @1340\n      : @222 [@dyn 93] (gas: 3)\n  5470: a0 = s1 + 0x600\n  5474: a1 = 0x40\n  5477: ra = 188, jump @7\n      : @223 [@dyn 94] (gas: 6)\n  5483: a4 = s1 + 0x600\n  5487: a0 = u64 [a4 + 0x18]\n  5490: a1 = u64 [a4 + 0x10]\n  5493: a2 = u64 [a4 + 0x8]\n  5496: a3 = u64 [a4]\n  5498: t0 = 190, jump @1385\n      : @224 [@dyn 95] (gas: 1)\n  5504: jump @226 if a0 == 0\n      : @225 (gas: 1)\n  5507: jump @643\n      : @226 (gas: 12)\n  5510: a0 = u64 [s1 + 0x188]\n  5514: u64 [s1 + 0x5e0] = a0\n  5518: a0 = u64 [s1 + 0x190]\n  5522: u64 [s1 + 0x5e8] = a0\n  5526: a0 = u64 [s1 + 0x178]\n  5530: u64 [s1 + 0x5f0] = a0\n  5534: a1 = s1 + 0x5e0\n  5538: a0 = u64 [s1 + 0x198]\n  5542: u64 [s1 + 0x5f8] = a0\n  5546: a0 = a3\n  5548: u64 [s1 + 0x198] = a3\n  5552: ra = 192, jump @9\n      : @227 [@dyn 96] (gas: 6)\n  5558: a0 = u64 [s1 + 0x168]\n  5562: ra = 0xc2\n  5566: ecalli 4 // 'caller'\n  5568: a2 = u64 [s1 + 0x180]\n  5572: t0 = 0xc4\n  5576: jump @1365\n      : @228 [@dyn 97] (gas: 2)\n  5579: a2 = u64 [s1 + 0x180]\n  5583: t0 = 196, jump @1365\n      : @229 [@dyn 98] (gas: 25)\n  5589: t0 = a1 | a0\n  5592: a3 = a3 >> 0x20\n  5595: a2 = reverse a2\n  5597: a1 = a2 << 0x20\n  5600: a1 = a1 | a3\n  5603: a2 = a2 >> 0x20\n  5606: u64 [s1 + 1464] = 0\n  5610: a3 = u64 [0x200d8]\n  5615: a4 = u64 [0x200e0]\n  5620: a5 = u64 [0x200e8]\n  5625: a0 = u64 [0x200f0]\n  5630: u64 [s1 + 0x5d8] = a3\n  5634: a3 = s1 + 0x500\n  5638: u64 [a3 + 0xd0] = a4\n  5642: u64 [a3 + 0xc8] = a5\n  5646: u64 [a3 + 0xc0] = a0\n  5650: u64 [a3 + 0xb0] = a2\n  5654: u64 [a3 + 0xa8] = a1\n  5658: a1 = 0x20\n  5661: a2 = s1 + 0x5c0\n  5665: a3 = s1 + 0x5a0\n  5669: u64 [s1 + 0x5a0] = t0\n  5673: a0 = u64 [s1 + 0x198]\n  5677: ra = 0x160\n  5681: jump @13\n      : @230 (gas: 3)\n  5684: a0 = u64 [s1 + 0x198]\n  5688: a0 = i32 [a0]\n  5690: jump @232 if a0 >u 3\n      : @231 (gas: 1)\n  5694: jump @675\n      : @232 (gas: 8)\n  5697: u64 [a3 + 256] = 0\n  5701: u64 [a3 + 248] = 0\n  5705: u64 [a3 + 240] = 0\n  5709: u64 [a3 + 232] = 0\n  5713: a0 = s1 + 0x3000\n  5717: i32 a0 = a0 + 0xfffffffffffffa00\n  5721: ecalli 16 // 'value_transferred'\n  5723: fallthrough\n      : @233 (gas: 9)\n  5724: a3 = s1 + 0x2918\n  5728: a0 = u64 [a3 + 0xf8]\n  5732: a1 = u64 [a3 + 0x100]\n  5736: a2 = u64 [a3 + 0xf0]\n  5740: a3 = u64 [a3 + 0xe8]\n  5744: a1 = a1 | a2\n  5747: a0 = a0 | a3\n  5750: a0 = a0 | a1\n  5753: jump @235 if a0 != 0\n      : @234 (gas: 1)\n  5756: jump @676\n      : @235 (gas: 8)\n  5759: a0 = 0x30180\n  5764: u64 [s1 + 0x180] = a0\n  5768: i32 a0 = a0 + 0\n  5770: u64 [s1 + 0x158] = a0\n  5774: ra = 0xc6\n  5778: ecalli 4 // 'caller'\n  5780: t0 = 0xc8\n  5784: jump @1369\n      : @236 [@dyn 99] (gas: 1)\n  5787: t0 = 200, jump @1369\n      : @237 [@dyn 100] (gas: 8)\n  5793: a2 = s1 + 0x2118\n  5797: u64 [a2 + 224] = 0\n  5801: u64 [a2 + 0xd8] = a1\n  5805: u64 [a2 + 0xd0] = a0\n  5809: a1 = s1 + 0x21e0\n  5813: u64 [a2 + 0xc8] = a3\n  5817: a0 = 0\n  5819: ra = 202, jump @9\n      : @238 [@dyn 101] (gas: 9)\n  5825: a1 = s1 + 0x2118\n  5829: u64 [a1 + 192] = 0\n  5833: u64 [a1 + 184] = 0\n  5837: u64 [a1 + 168] = 0x1\n  5842: a2 = a1\n  5844: a0 = 0x20\n  5847: a1 = s1 + 0x21c0\n  5851: u64 [a2 + 176] = 0\n  5855: ra = 204, jump @9\n      : @239 [@dyn 102] (gas: 1)\n  5861: t0 = 206, jump @1413\n      : @240 [@dyn 103] (gas: 4)\n  5867: a2 = 0x20170\n  5872: a0 = i32 [0x20170]\n  5877: a1 = 0x3f\n  5880: jump @242 if a1 <u a0\n      : @241 (gas: 4)\n  5883: u32 [0x20170] = 0x40\n  5889: u64 [s1 + 0x150] = a2\n  5893: t0 = 0xd0\n  5897: jump @1429\n      : @242 (gas: 2)\n  5900: u64 [s1 + 0x150] = a2\n  5904: t0 = 208, jump @1429\n      : @243 [@dyn 104] (gas: 9)\n  5910: a0 = 0x20180\n  5915: i32 a0 = a0 + 0\n  5917: i32 a2 = a2 + 0\n  5919: a1 = 0x40\n  5922: u64 [s1 + 0x160] = a0\n  5926: ra = 0xd2\n  5930: ecalli 8 // 'hash_keccak_256'\n  5932: t0 = 0xd4\n  5936: jump @1380\n      : @244 [@dyn 105] (gas: 1)\n  5939: t0 = 212, jump @1380\n      : @245 [@dyn 106] (gas: 3)\n  5945: i32 a0 = a0 + 0x1a0\n  5949: a0 = a0 + s1\n  5952: ra = 214, jump @11\n      : @246 [@dyn 107] (gas: 10)\n  5958: a0 = s1 + 0x2118\n  5962: a1 = u64 [a0 + 0xa0]\n  5966: u64 [s1 + 0x170] = a1\n  5970: a1 = u64 [a0 + 0x98]\n  5974: u64 [s1 + 0x190] = a1\n  5978: a1 = u64 [a0 + 0x88]\n  5982: u64 [s1 + 0x168] = a1\n  5986: a0 = u64 [a0 + 0x90]\n  5990: u64 [s1 + 0x188] = a0\n  5994: t0 = 216, jump @1412\n      : @247 [@dyn 108] (gas: 9)\n  6000: a0 = s1 + 0x2918\n  6004: u64 [a0 + 288] = 0\n  6008: u64 [a0 + 280] = 0\n  6012: u64 [a0 + 272] = 0\n  6016: u64 [a0 + 264] = 0\n  6020: a0 = s1 + 0x3000\n  6024: i32 a0 = a0 + 0xfffffffffffffa20\n  6028: ecalli 16 // 'value_transferred'\n  6030: fallthrough\n      : @248 (gas: 43)\n  6031: a0 = s1 + 0x2918\n  6035: a3 = a0 + 0x100\n  6039: a2 = u64 [a3 + 0x10]\n  6042: a1 = u64 [a3 + 0x8]\n  6045: t0 = u64 [a0 + 0x120]\n  6049: a4 = u64 [a3 + 0x18]\n  6052: a5 = u64 [s1 + 0x188]\n  6056: a5 = a5 + a2\n  6059: a0 = u64 [s1 + 0x168]\n  6063: t1 = a1 + a0\n  6066: a1 = t1 <u a1\n  6069: a5 = a5 + a1\n  6072: a3 = a5 ^ a2\n  6075: a2 = a5 <u a2\n  6078: a2 = a1 if a3 == 0\n  6081: a1 = u64 [s1 + 0x190]\n  6085: a1 = a1 + a4\n  6088: ra = u64 [s1 + 0x170]\n  6092: t0 = t0 + ra\n  6095: a3 = a1 <u a4\n  6098: a3 = a3 + t0\n  6101: a2 = a2 + a1\n  6104: a1 = a2 <u a1\n  6107: t2 = a3 + a1\n  6110: a3 = u64 [s1 + 0x188]\n  6114: a1 = a3 ^ a5\n  6117: a4 = a5 <u a3\n  6120: a0 = t1 <u a0\n  6123: a0 = a4 if a1 != 0\n  6126: a3 = u64 [s1 + 0x190]\n  6130: t0 = a2 <u a3\n  6133: a4 = ra ^ t2\n  6136: a1 = t2 <u ra\n  6139: a1 = t0 if a4 == 0\n  6142: a3 = a3 ^ a2\n  6145: a3 = a3 | a4\n  6148: a0 = a1 if a3 != 0\n  6151: a1 = u64 [s1 + 0x178]\n  6155: u64 [a1] = t1\n  6157: u64 [a1 + 0x8] = a5\n  6160: u64 [a1 + 0x10] = a2\n  6163: u64 [a1 + 0x18] = t2\n  6166: jump @250 if a0 == 0\n      : @249 (gas: 1)\n  6169: jump @680\n      : @250 (gas: 2)\n  6172: a0 = u64 [s1 + 0x198]\n  6176: ra = 218, jump @12\n      : @251 [@dyn 109] (gas: 3)\n  6182: a0 = s1 + 0x2180\n  6186: a1 = 0x40\n  6189: ra = 220, jump @7\n      : @252 [@dyn 110] (gas: 18)\n  6195: a0 = s1 + 0x2118\n  6199: a1 = u64 [a0 + 0x80]\n  6203: u64 [s1 + 0x190] = a1\n  6207: a1 = u64 [a0 + 0x78]\n  6210: u64 [s1 + 0x188] = a1\n  6214: a1 = u64 [a0 + 0x70]\n  6217: u64 [s1 + 0x178] = a1\n  6221: a0 = u64 [a0 + 0x68]\n  6224: u64 [s1 + 0x198] = a0\n  6228: a0 = s1 + 0x2918\n  6232: u64 [a0 + 320] = 0\n  6236: u64 [a0 + 312] = 0\n  6240: u64 [a0 + 304] = 0\n  6244: u64 [a0 + 296] = 0\n  6248: a0 = s1 + 0x3000\n  6252: i32 a0 = a0 + 0xfffffffffffffa40\n  6256: ecalli 16 // 'value_transferred'\n  6258: fallthrough\n      : @253 (gas: 14)\n  6259: a3 = s1 + 0x100\n  6263: a0 = u64 [a3 + 0x90]\n  6267: a1 = u64 [a3 + 0x78]\n  6270: a0 = a0 | a1\n  6273: a1 = u64 [a3 + 0x98]\n  6277: a5 = a1\n  6279: a2 = u64 [a3 + 0x88]\n  6283: a1 = a1 | a2\n  6286: a1 = a1 | a0\n  6289: a1 = a1 >> 0x20\n  6292: a0 = a0 | a2\n  6295: a0 = a0 << 0x20\n  6298: a0 = a0 | a1\n  6301: jump @255 if a0 == 0\n      : @254 (gas: 1)\n  6304: jump @643\n      : @255 (gas: 14)\n  6307: a3 = s1 + 0x2918\n  6311: a4 = a3 + 0x100\n  6315: a0 = u64 [a4 + 0x28]\n  6318: a1 = u64 [a4 + 0x30]\n  6321: a2 = u64 [a4 + 0x38]\n  6324: a3 = u64 [a4 + 0x40]\n  6327: a4 = s1 + 0x2118\n  6331: u64 [a4 + 0x60] = a3\n  6334: u64 [a4 + 0x58] = a2\n  6337: u64 [a4 + 0x50] = a1\n  6340: a1 = s1 + 0x2160\n  6344: u64 [a4 + 0x48] = a0\n  6347: a0 = a5\n  6349: ra = 222, jump @9\n      : @256 [@dyn 111] (gas: 6)\n  6355: a0 = u64 [s1 + 0x158]\n  6359: ra = 0xe0\n  6363: ecalli 4 // 'caller'\n  6365: a2 = u64 [s1 + 0x180]\n  6369: t0 = 0xe2\n  6373: jump @1365\n      : @257 [@dyn 112] (gas: 2)\n  6376: a2 = u64 [s1 + 0x180]\n  6380: t0 = 226, jump @1365\n      : @258 [@dyn 113] (gas: 24)\n  6386: t0 = a1 | a0\n  6389: a3 = a3 >> 0x20\n  6392: a2 = reverse a2\n  6394: a1 = a2 << 0x20\n  6397: a1 = a1 | a3\n  6400: a2 = a2 >> 0x20\n  6403: a3 = u64 [0x20000]\n  6408: a0 = s1 + 0x2118\n  6412: u64 [a0 + 0x40] = a3\n  6415: a3 = u64 [0x20008]\n  6420: a4 = u64 [0x20010]\n  6425: a5 = u64 [0x20018]\n  6430: u64 [a0 + 0x38] = a3\n  6433: u64 [a0 + 0x30] = a4\n  6436: u64 [a0 + 32] = 0\n  6439: u64 [a0 + 0x28] = a5\n  6442: u64 [a0 + 0x18] = a2\n  6445: u64 [a0 + 0x10] = a1\n  6448: a1 = 0x20\n  6451: a2 = s1 + 0x2140\n  6455: a3 = s1 + 0x2120\n  6459: u64 [a0 + 0x8] = t0\n  6462: a0 = u64 [s1 + 0x198]\n  6466: ra = 228, jump @13\n      : @259 [@dyn 114] (gas: 5)\n  6472: a0 = 0\n  6474: a1 = u64 [s1 + 0x160]\n  6478: a2 = 0\n  6480: ecalli 13 // 'seal_return'\n  6482: jump @905\n      : @260 (gas: 1)\n  6485: jump @262 if a0 == 1641031603\n      : @261 (gas: 1)\n  6492: jump @687\n      : @262 (gas: 10)\n  6495: u64 [a2 + 1344] = 0\n  6499: u64 [a2 + 1336] = 0\n  6503: u64 [a2 + 1328] = 0\n  6507: u64 [a2 + 1320] = 0\n  6511: a0 = s1 + 0x2000\n  6515: i32 a0 = a0 + 0x640\n  6519: ra = 0xe6\n  6523: ecalli 16 // 'value_transferred'\n  6525: t0 = 0xe8\n  6529: jump @1398\n      : @263 [@dyn 115] (gas: 1)\n  6532: t0 = 232, jump @1398\n      : @264 [@dyn 116] (gas: 1)\n  6538: t0 = 234, jump @1432\n      : @265 [@dyn 117] (gas: 1)\n  6544: jump @267 if a0 == 0\n      : @266 (gas: 1)\n  6547: jump @692\n      : @267 (gas: 3)\n  6550: a0 = u64 [s1 + 0x198]\n  6554: a0 = i32 [a0]\n  6556: jump @269 if a0 >u 3\n      : @268 (gas: 1)\n  6560: jump @693\n      : @269 (gas: 3)\n  6563: a0 = s1 + 0x10c0\n  6567: a1 = 0x40\n  6570: ra = 236, jump @7\n      : @270 [@dyn 118] (gas: 12)\n  6576: a0 = s1 + 0x7ff\n  6580: a0 = a0 + 0x119\n  6584: a2 = a0 + 0x700\n  6588: a1 = u64 [a2 + 0xc0]\n  6592: u64 [s1 + 0x198] = a1\n  6596: a1 = u64 [a2 + 0xb8]\n  6600: u64 [s1 + 0x190] = a1\n  6604: a1 = u64 [a2 + 0xb0]\n  6608: u64 [s1 + 0x180] = a1\n  6612: a0 = u64 [a2 + 0xa8]\n  6616: u64 [s1 + 0x188] = a0\n  6620: ra = 238, jump @0\n      : @271 [@dyn 119] (gas: 14)\n  6626: a4 = s1 + 0x100\n  6630: a0 = u64 [a4 + 0x98]\n  6634: a1 = u64 [a4 + 0x80]\n  6638: a0 = a0 | a1\n  6641: a1 = u64 [a4 + 0x88]\n  6645: a3 = a1\n  6647: a2 = u64 [a4 + 0x90]\n  6651: a1 = a1 | a2\n  6654: a1 = a1 | a0\n  6657: a1 = a1 >> 0x20\n  6660: a0 = a0 | a2\n  6663: a0 = a0 << 0x20\n  6666: a0 = a0 | a1\n  6669: jump @273 if a0 == 0\n      : @272 (gas: 1)\n  6672: jump @643\n      : @273 (gas: 13)\n  6675: a2 = u64 [0x301a0]\n  6680: a1 = u64 [0x301a8]\n  6685: a0 = u32 [0x301b0]\n  6690: a4 = s1 + 0x7ff\n  6694: a4 = a4 + 0x119\n  6698: u64 [a4 + 1952] = 0\n  6702: a5 = a4 + 0x700\n  6706: u64 [a5 + 0x98] = a0\n  6710: u64 [a5 + 0x90] = a1\n  6714: a1 = s1 + 0x10a0\n  6718: u64 [a5 + 0x88] = a2\n  6722: a0 = a3\n  6724: ra = 240, jump @9\n      : @274 [@dyn 120] (gas: 4)\n  6730: a1 = 0x20\n  6733: a0 = u64 [s1 + 0x188]\n  6737: ra = 0x2e0\n  6741: jump @21\n      : @275 (gas: 10)\n  6744: u64 [a2 + 512] = 0\n  6748: u64 [a2 + 504] = 0\n  6752: u64 [a2 + 496] = 0\n  6756: u64 [a2 + 488] = 0\n  6760: a0 = s1 + 0x2000\n  6764: i32 a0 = a0 + 0x300\n  6768: ra = 0xf2\n  6772: ecalli 16 // 'value_transferred'\n  6774: t0 = 0xf4\n  6778: jump @1436\n      : @276 [@dyn 121] (gas: 1)\n  6781: t0 = 244, jump @1436\n      : @277 [@dyn 122] (gas: 8)\n  6787: a0 = u64 [a4 + 0xf8]\n  6791: a1 = u64 [a3 + 0x200]\n  6795: a2 = u64 [a4 + 0xf0]\n  6799: a3 = u64 [a4 + 0xe8]\n  6803: a1 = a1 | a2\n  6806: a0 = a0 | a3\n  6809: a0 = a0 | a1\n  6812: jump @279 if a0 == 0\n      : @278 (gas: 1)\n  6815: jump @694\n      : @279 (gas: 3)\n  6818: a0 = u64 [s1 + 0x198]\n  6822: a0 = i32 [a0]\n  6824: jump @281 if a0 >u 3\n      : @280 (gas: 1)\n  6828: jump @695\n      : @281 (gas: 17)\n  6831: a0 = s1 + 0x2000\n  6835: i32 a0 = a0 + 0x320\n  6839: ecalli 9 // 'now'\n  6841: a0 = s1 + 0x2118\n  6845: a2 = a0 + 0x200\n  6849: a1 = u64 [a2 + 0x20]\n  6852: a3 = s1 + 0x100\n  6856: u64 [a3 + 0x58] = a1\n  6859: a1 = u64 [a2 + 0x18]\n  6862: u64 [a3 + 0x50] = a1\n  6865: a1 = u64 [a2 + 0x10]\n  6868: u64 [a3 + 0x98] = a1\n  6872: a0 = u64 [a2 + 0x8]\n  6875: u64 [a3 + 0x90] = a0\n  6879: a0 = s1 + 0x3e0\n  6883: a1 = 0x40\n  6886: ra = 246, jump @7\n      : @282 [@dyn 123] (gas: 6)\n  6892: a4 = s1 + 0x300\n  6896: a0 = u64 [a4 + 0xf8]\n  6900: a1 = u64 [a4 + 0xf0]\n  6904: a2 = u64 [a4 + 0xe8]\n  6908: a3 = u64 [a4 + 0xe0]\n  6912: t0 = 248, jump @1385\n      : @283 [@dyn 124] (gas: 1)\n  6918: jump @285 if a0 == 0\n      : @284 (gas: 1)\n  6921: jump @643\n      : @285 (gas: 46)\n  6924: u64 [s1 + 0x118] = a3\n  6928: t1 = u64 [s1 + 0x150]\n  6932: a0 = clz t1\n  6934: a0 = a0 + 0x40\n  6937: ra = u64 [s1 + 0x158]\n  6941: a2 = clz ra\n  6943: a2 = a0 if ra == 0\n  6946: t2 = u64 [s1 + 0x190]\n  6950: a0 = clz t2\n  6952: a0 = a0 + 0x40\n  6955: t0 = u64 [s1 + 0x198]\n  6959: a1 = clz t0\n  6961: a1 = a0 if t0 == 0\n  6964: a0 = a1 + 0x80\n  6968: a3 = t1 | ra\n  6971: a2 = a0 if a3 == 0\n  6974: a5 = a0 <u a1\n  6977: a5 = 0 if a3 != 0\n  6979: a4 = a5 >u 0\n  6981: a0 = a2 <u 0xf0\n  6985: a3 = a0 ^ 0x1\n  6988: a4 = a3 if a5 == 0\n  6991: a0 = a4 <u 0x1\n  6994: a0 = a0 + 0xffffffffffffffff\n  6997: a1 = -a4\n  6999: a5 = -a5\n  7001: a3 = a5 - a3\n  7004: a2 = 0xef - a2\n  7008: u64 [s1 + 0x178] = a1\n  7012: a5 = a1 >u 0\n  7014: a1 = a0 >u 0\n  7016: a1 = a5 if a0 == 0\n  7019: a5 = a3 >u 0\n  7021: u64 [s1 + 0x168] = a2\n  7025: a2 = a2 <u 0x100\n  7029: a2 = a2 ^ 0x1\n  7032: a2 = a5 if a3 != 0\n  7035: a2 = a1 if a4 != 0\n  7038: a1 = t2 | t1\n  7041: a4 = t0 | ra\n  7044: a1 = a1 | a4\n  7047: a1 = a1 <u 0x1\n  7050: a1 = a1 | a2\n  7053: a4 = t2\n  7055: a4 = 0 if a1 != 0\n  7057: jump @287 if a1 == 0\n      : @286 (gas: 1)\n  7060: jump @736\n      : @287 (gas: 7)\n  7063: a1 = u64 [s1 + 0x168]\n  7067: a1 = a1 ^ 0xff\n  7071: a2 = u64 [s1 + 0x178]\n  7075: a1 = a1 | a2\n  7078: a2 = a3 | a0\n  7081: a1 = a1 | a2\n  7084: jump @289 if a1 != 0\n      : @288 (gas: 1)\n  7087: jump @736\n      : @289 (gas: 20)\n  7090: a4 = u64 [s1 + 0x168]\n  7094: a2 = a4 + 0x1\n  7097: u64 [s1 + 0x188] = a2\n  7101: a1 = a2 <u 0x1\n  7104: a1 = a1 + a3\n  7107: u64 [s1 + 0x180] = a1\n  7111: a1 = a1 | a2\n  7114: a1 = a1 <u 0x1\n  7117: a3 = u64 [s1 + 0x178]\n  7121: a1 = a1 + a3\n  7124: u64 [s1 + 0x170] = a1\n  7128: a1 = a1 <u a3\n  7131: a0 = a0 + a1\n  7134: u64 [s1 + 0x178] = a0\n  7138: a1 = 0xff - a4\n  7142: u64 [s1 + 0x140] = a1\n  7146: a2 = 0x80 - a1\n  7150: a0 = u64 [s1 + 0x190]\n  7154: a1 = u64 [s1 + 0x198]\n  7158: ra = 250, jump @1443\n      : @290 [@dyn 125] (gas: 6)\n  7164: u64 [s1 + 0x130] = a0\n  7168: u64 [s1 + 0x148] = a1\n  7172: a0 = u64 [s1 + 0x150]\n  7176: a1 = u64 [s1 + 0x158]\n  7180: a2 = u64 [s1 + 0x140]\n  7184: ra = 252, jump @1448\n      : @291 [@dyn 126] (gas: 7)\n  7190: u64 [s1 + 0x128] = a0\n  7194: u64 [s1 + 0x120] = a1\n  7198: a0 = u64 [s1 + 0x140]\n  7202: a2 = a0 + 0xffffffffffffff80\n  7205: a0 = u64 [s1 + 0x190]\n  7209: a1 = u64 [s1 + 0x198]\n  7213: ra = 254, jump @1448\n      : @292 [@dyn 127] (gas: 8)\n  7219: u64 [s1 + 0x110] = a0\n  7223: u64 [s1 + 0x108] = a1\n  7227: a2 = u64 [s1 + 0x140]\n  7231: a0 = a2 <u 0x80\n  7235: u64 [s1 + 0x138] = a0\n  7239: a0 = u64 [s1 + 0x190]\n  7243: a1 = u64 [s1 + 0x198]\n  7247: ra = 256, jump @1448\n      : @293 [@dyn 128] (gas: 1)\n  7253: t0 = 258, jump @1424\n      : @294 [@dyn 129] (gas: 4)\n  7259: a3 = u64 [a4 + 0x38]\n  7262: a0 = 0 if a3 == 0\n  7264: u64 [a4 + 0x68] = a0\n  7267: jump @296 if a1 != 0\n      : @295 (gas: 1)\n  7270: jump @734\n      : @296 (gas: 30)\n  7273: a2 = a3\n  7275: a0 = u64 [s1 + 0x148]\n  7279: a1 = u64 [s1 + 0x120]\n  7283: a0 = a0 | a1\n  7286: a5 = a3\n  7288: a1 = u64 [s1 + 0x108]\n  7292: a0 = a1 if a2 == 0\n  7295: a2 = u64 [s1 + 0x158]\n  7299: a3 = a2\n  7301: a1 = a2\n  7303: a2 = u64 [s1 + 0x140]\n  7307: a3 = a0 if a2 != 0\n  7310: u64 [s1 + 0x148] = a3\n  7314: a0 = u64 [s1 + 0x130]\n  7318: a3 = u64 [s1 + 0x128]\n  7322: a0 = a0 | a3\n  7325: a3 = u64 [s1 + 0x110]\n  7329: a0 = a3 if a5 == 0\n  7332: a4 = u64 [s1 + 0x150]\n  7336: a3 = a4\n  7338: a3 = a0 if a2 != 0\n  7341: u64 [s1 + 0x140] = a3\n  7345: a0 = u64 [s1 + 0x160]\n  7349: a0 = 0 if a5 == 0\n  7351: u64 [s1 + 0x160] = a0\n  7355: u64 [s1 + 304] = 0x15180\n  7362: a0 = u64 [s1 + 0x188]\n  7366: a2 = a0 + 0xffffffffffffff80\n  7369: a0 = a4\n  7371: ra = 260, jump @1443\n      : @297 [@dyn 130] (gas: 6)\n  7377: u64 [s1 + 0x138] = a0\n  7381: u64 [s1 + 0x120] = a1\n  7385: a0 = u64 [s1 + 0x190]\n  7389: a1 = u64 [s1 + 0x198]\n  7393: a2 = u64 [s1 + 0x188]\n  7397: ra = 262, jump @1443\n      : @298 [@dyn 131] (gas: 7)\n  7403: u64 [s1 + 0x110] = a0\n  7407: u64 [s1 + 0x128] = a1\n  7411: a1 = u64 [s1 + 0x188]\n  7415: a2 = 0x80 - a1\n  7419: a0 = u64 [s1 + 0x150]\n  7423: a1 = u64 [s1 + 0x158]\n  7427: ra = 264, jump @1448\n      : @299 [@dyn 132] (gas: 20)\n  7433: a2 = u64 [s1 + 0x128]\n  7437: a1 = a1 | a2\n  7440: a2 = u64 [s1 + 0x188]\n  7444: a3 = a2 <u 0x80\n  7448: u64 [s1 + 0x128] = a3\n  7452: a4 = u64 [s1 + 0x120]\n  7456: a1 = a4 if a3 == 0\n  7459: a4 = u64 [s1 + 0x198]\n  7463: a4 = a1 if a2 != 0\n  7466: u64 [s1 + 0x198] = a4\n  7470: a1 = u64 [s1 + 0x110]\n  7474: a0 = a0 | a1\n  7477: a1 = u64 [s1 + 0x138]\n  7481: a0 = a1 if a3 == 0\n  7484: a1 = u64 [s1 + 0x190]\n  7488: a1 = a0 if a2 != 0\n  7491: u64 [s1 + 0x190] = a1\n  7495: a0 = u64 [s1 + 0x150]\n  7499: a1 = u64 [s1 + 0x158]\n  7503: ra = 266, jump @1443\n      : @300 [@dyn 133] (gas: 16)\n  7509: t2 = u64 [s1 + 0x190]\n  7513: t1 = u64 [s1 + 0x198]\n  7517: u64 [s1 + 344] = 0\n  7521: u64 [s1 + 336] = 0\n  7525: a4 = s1 + 0x100\n  7529: a2 = u64 [a4 + 0x28]\n  7532: a1 = 0 if a2 == 0\n  7534: a0 = 0 if a2 == 0\n  7536: u64 [a4 + 0x38] = a0\n  7539: a3 = u64 [a4 + 0x30]\n  7542: a2 = a3 + 0xffffffffffffffff\n  7545: u64 [a4 + 0x28] = a2\n  7548: a2 = a3 >u 0\n  7550: a2 = a2 + 0xffffffffffffffff\n  7553: u64 [a4 + 0x20] = a2\n  7556: fallthrough\n      : @301 (gas: 58)\n  7557: a2 = t2 >> 0x3f\n  7560: a3 = t1 << 0x1\n  7563: a2 = a2 | a3\n  7566: a3 = t2 << 0x1\n  7569: t2 = u64 [s1 + 0x148]\n  7573: a4 = t2 >> 0x3f\n  7576: a3 = a3 | a4\n  7579: u64 [s1 + 0x198] = a3\n  7583: ra = u64 [s1 + 0x120]\n  7587: a0 = t1\n  7589: t1 = ra ^ a2\n  7592: t0 = ra <u a2\n  7595: a4 = u64 [s1 + 0x128]\n  7599: a5 = a4 <u a3\n  7602: a5 = t0 if t1 != 0\n  7605: a1 = a1 << 0x1\n  7608: a4 = u64 [s1 + 0x138]\n  7612: a3 = a4 >> 0x3f\n  7615: a1 = a1 | a3\n  7618: u64 [s1 + 0x190] = a1\n  7622: a3 = a0 >> 0x3f\n  7625: a0 = a4 << 0x1\n  7628: a3 = a3 | a0\n  7631: a0 = t2 << 0x1\n  7634: a4 = u64 [s1 + 0x140]\n  7638: a1 = a4 >> 0x3f\n  7641: t0 = a0 | a1\n  7644: a1 = a4 << 0x1\n  7647: a4 = u64 [s1 + 0x160]\n  7651: t1 = a4 >> 0x3f\n  7654: t1 = a1 | t1\n  7657: a1 = a4 << 0x1\n  7660: a4 = u64 [s1 + 0x168]\n  7664: t2 = a4 >> 0x3f\n  7667: a1 = a1 | t2\n  7670: a4 = a4 << 0x1\n  7673: a0 = u64 [s1 + 0x158]\n  7677: a4 = a4 | a0\n  7680: u64 [s1 + 0x168] = a4\n  7684: a0 = u64 [s1 + 0x150]\n  7688: a1 = a1 | a0\n  7691: u64 [s1 + 0x160] = a1\n  7695: a1 = a0 | t1\n  7698: u64 [s1 + 0x140] = a1\n  7702: a0 = a0 | t0\n  7705: u64 [s1 + 0x148] = a0\n  7709: a0 = ra - a3\n  7712: a0 = a0 <u a5\n  7715: a1 = ra <u a3\n  7718: a5 = u64 [s1 + 0x190]\n  7722: a4 = ra - a5\n  7725: a4 = a4 - a1\n  7728: a4 = a4 - a0\n  7731: ra = a4 >>a 0x3f\n  7734: a0 = u64 [s1 + 0x130]\n  7738: a0 = ra & a0\n  7741: a1 = u64 [s1 + 0x198]\n  7745: t0 = 268, jump @1442\n      : @302 [@dyn 134] (gas: 2)\n  7751: u64 [s1 + 0x138] = a0\n  7755: t0 = 270, jump @1409\n      : @303 [@dyn 135] (gas: 18)\n  7761: t0 = a4 <u a2\n  7764: a2 = a4 - a2\n  7767: a4 = a3 <u 0x1\n  7770: a5 = a5 - a4\n  7773: a4 = u64 [a0 + 0x78]\n  7776: a4 = a4 - t0\n  7779: a3 = a3 + 0xffffffffffffffff\n  7782: u64 [a0 + 0x80] = a5\n  7786: u64 [a0 + 0x78] = a4\n  7789: t0 = a5 | a4\n  7792: u64 [a0 + 0x88] = a3\n  7796: a4 = a3 | a2\n  7799: a3 = a4 | t0\n  7802: a4 = ra & 0x1\n  7805: u64 [a0 + 0x58] = a4\n  7808: u64 [a0 + 0x70] = a2\n  7811: u64 [s1 + 336] = 0\n  7815: jump @301 if a3 != 0\n      : @304 (gas: 1)\n  7819: jump @735\n      : @305 (gas: 10)\n  7822: u64 [a2 + 384] = 0\n  7826: u64 [a2 + 376] = 0\n  7830: u64 [a2 + 368] = 0\n  7834: u64 [a2 + 360] = 0\n  7838: a0 = s1 + 0x2000\n  7842: i32 a0 = a0 + 0x280\n  7846: ra = 0x110\n  7850: ecalli 16 // 'value_transferred'\n  7852: t0 = 0x112\n  7856: jump @1436\n      : @306 [@dyn 136] (gas: 1)\n  7859: t0 = 274, jump @1436\n      : @307 [@dyn 137] (gas: 1)\n  7865: t0 = 276, jump @1407\n      : @308 [@dyn 138] (gas: 1)\n  7871: jump @310 if a0 == 0\n      : @309 (gas: 1)\n  7874: jump @696\n      : @310 (gas: 1)\n  7877: t0 = 278, jump @1422\n      : @311 [@dyn 139] (gas: 1)\n  7883: jump @313 if a1 <u a0\n      : @312 (gas: 1)\n  7886: jump @697\n      : @313 (gas: 4)\n  7889: a0 = s1 + 0x3a0\n  7893: ra = 0x118\n  7897: t0 = 0x540\n  7901: jump @1420\n      : @314 [@dyn 140] (gas: 10)\n  7904: a0 = u64 [s1 + 0x3a0]\n  7908: a1 = u64 [s1 + 0x3a8]\n  7912: a2 = u32 [s1 + 0x3b0]\n  7916: u64 [s1 + 920] = 0\n  7920: u64 [s1 + 0x390] = a2\n  7924: u64 [s1 + 0x388] = a1\n  7928: a1 = s1 + 0x380\n  7932: u64 [s1 + 0x380] = a0\n  7936: a0 = 0\n  7938: ra = 282, jump @9\n      : @315 [@dyn 141] (gas: 7)\n  7944: u64 [s1 + 888] = 0\n  7948: u64 [s1 + 880] = 0\n  7952: u64 [s1 + 864] = 0x1\n  7957: a0 = 0x20\n  7960: a1 = s1 + 0x360\n  7964: u64 [s1 + 872] = 0\n  7968: ra = 284, jump @9\n      : @316 [@dyn 142] (gas: 1)\n  7974: t0 = 286, jump @1412\n      : @317 [@dyn 143] (gas: 2)\n  7980: a1 = i32 [0x20170]\n  7985: jump @319 if a1 >u 63\n      : @318 (gas: 4)\n  7989: a1 = 0x40\n  7992: u32 [0x20170] = a1\n  7997: t0 = 0x120\n  8001: jump @1430\n      : @319 (gas: 1)\n  8004: t0 = 288, jump @1430\n      : @320 [@dyn 144] (gas: 25)\n  8010: a0 = 0x20180\n  8015: i32 a0 = a0 + 0\n  8017: i32 a2 = a2 + 0\n  8019: a1 = 0x40\n  8022: ecalli 8 // 'hash_keccak_256'\n  8024: a3 = u64 [s1 + 0x198]\n  8028: a0 = u64 [a3 + 0x18]\n  8031: a1 = u64 [a3 + 0x10]\n  8034: a2 = u64 [a3 + 0x8]\n  8037: a3 = u64 [a3]\n  8039: a5 = reverse a0\n  8041: u64 [s1 + 0x188] = a5\n  8045: a4 = reverse a1\n  8047: u64 [s1 + 0x190] = a4\n  8051: a2 = reverse a2\n  8053: u64 [s1 + 0x180] = a2\n  8057: a0 = reverse a3\n  8059: u64 [s1 + 0x198] = a0\n  8063: a1 = u64 [s1 + 0x178]\n  8067: u64 [a1 + 0x18] = a0\n  8070: u64 [a1 + 0x10] = a2\n  8073: u64 [a1 + 0x8] = a4\n  8076: u64 [a1] = a5\n  8078: a0 = s1 + 0x340\n  8082: ra = 290, jump @11\n      : @321 [@dyn 145] (gas: 29)\n  8088: a0 = u64 [s1 + 0x358]\n  8092: u64 [s1 + 0x178] = a0\n  8096: a0 = u64 [s1 + 0x350]\n  8100: u64 [s1 + 0x170] = a0\n  8104: a0 = u64 [s1 + 0x348]\n  8108: u64 [s1 + 0x168] = a0\n  8112: a0 = u64 [s1 + 0x340]\n  8116: u64 [s1 + 0x160] = a0\n  8120: a0 = u64 [s1 + 0x188]\n  8124: a0 = a0 + 0x1\n  8127: a1 = a0 <u 0x1\n  8130: a2 = u64 [s1 + 0x190]\n  8134: a1 = a1 + a2\n  8137: a2 = s1 + 0x2118\n  8141: a3 = a2 + 0x100\n  8145: u64 [a3 + 0x90] = a1\n  8149: a1 = a1 | a0\n  8152: u64 [a3 + 0x88] = a0\n  8156: a0 = a1 <u 0x1\n  8159: a1 = u64 [s1 + 0x180]\n  8163: a0 = a0 + a1\n  8166: u64 [a3 + 0x98] = a0\n  8170: a0 = a0 <u a1\n  8173: a1 = u64 [s1 + 0x198]\n  8177: a0 = a0 + a1\n  8180: u64 [a3 + 0xa0] = a0\n  8184: a0 = s1 + 0x320\n  8188: a1 = s1 + 0x22a0\n  8192: ra = 292, jump @11\n      : @322 [@dyn 146] (gas: 13)\n  8198: a0 = u64 [s1 + 0x338]\n  8202: u64 [s1 + 0x158] = a0\n  8206: a0 = u64 [s1 + 0x330]\n  8210: u64 [s1 + 0x150] = a0\n  8214: a0 = u64 [s1 + 0x328]\n  8218: u64 [s1 + 0x148] = a0\n  8222: a0 = u64 [s1 + 0x320]\n  8226: u64 [s1 + 0x140] = a0\n  8230: a1 = u64 [s1 + 0x188]\n  8234: a0 = a1 + 0x2\n  8237: a1 = a0 <u a1\n  8240: a3 = u64 [s1 + 0x190]\n  8244: t0 = 294, jump @1417\n      : @323 [@dyn 147] (gas: 14)\n  8250: a1 = u64 [s1 + 0x180]\n  8254: a3 = a3 + a1\n  8257: a1 = a3 <u a1\n  8260: a4 = u64 [s1 + 0x198]\n  8264: a1 = a1 + a4\n  8267: a4 = s1 + 0x2118\n  8271: a5 = a4 + 0x100\n  8275: u64 [a5 + 0xc0] = a1\n  8279: u64 [a5 + 0xb8] = a3\n  8283: u64 [a5 + 0xb0] = a2\n  8287: u64 [a5 + 0xa8] = a0\n  8291: a0 = s1 + 0x300\n  8295: a1 = s1 + 0x22c0\n  8299: ra = 296, jump @11\n      : @324 [@dyn 148] (gas: 10)\n  8305: a5 = s1 + 0x300\n  8309: a0 = u64 [a5 + 0x18]\n  8312: u64 [s1 + 0x138] = a0\n  8316: a0 = u64 [a5 + 0x10]\n  8319: u64 [s1 + 0x130] = a0\n  8323: a1 = u64 [s1 + 0x188]\n  8327: a0 = a1 + 0x3\n  8330: a1 = a0 <u a1\n  8333: a3 = u64 [s1 + 0x190]\n  8337: t0 = 298, jump @1417\n      : @325 [@dyn 149] (gas: 18)\n  8343: a1 = u64 [a5 + 0x8]\n  8346: u64 [s1 + 0x188] = a1\n  8350: a1 = u64 [s1 + 0x180]\n  8354: a3 = a3 + a1\n  8357: a1 = a3 <u a1\n  8360: a4 = u64 [s1 + 0x198]\n  8364: a1 = a1 + a4\n  8367: a4 = u64 [a5]\n  8369: u64 [s1 + 0x180] = a4\n  8373: a4 = s1 + 0x2118\n  8377: a5 = a4 + 0x100\n  8381: u64 [a5 + 0xe0] = a1\n  8385: u64 [a5 + 0xd8] = a3\n  8389: u64 [a5 + 0xd0] = a2\n  8393: u64 [a5 + 0xc8] = a0\n  8397: a0 = s1 + 0x2e0\n  8401: a1 = s1 + 0x22e0\n  8405: ra = 300, jump @11\n      : @326 [@dyn 150] (gas: 5)\n  8411: a0 = u64 [s1 + 0x2e0]\n  8415: u64 [s1 + 0x128] = a0\n  8419: a0 = s1 + 0x2c0\n  8423: a1 = 0x40\n  8426: ra = 302, jump @7\n      : @327 [@dyn 151] (gas: 13)\n  8432: a0 = s1 + 0x200\n  8436: a4 = u64 [a0 + 0xd8]\n  8440: a5 = u64 [a0 + 0xd0]\n  8444: a3 = u64 [a0 + 0xc8]\n  8448: a2 = u64 [a0 + 0xc0]\n  8452: a0 = a3 | a4\n  8455: a1 = a2 | a5\n  8458: a1 = a1 | a0\n  8461: a1 = a1 >> 0x20\n  8464: a0 = a0 | a5\n  8467: a0 = a0 << 0x20\n  8470: a0 = a0 | a1\n  8473: jump @329 if a0 == 0\n      : @328 (gas: 1)\n  8476: jump @643\n      : @329 (gas: 15)\n  8479: a0 = u64 [s1 + 0x160]\n  8483: u64 [s1 + 0x2a0] = a0\n  8487: a0 = u64 [s1 + 0x168]\n  8491: u64 [s1 + 0x2a8] = a0\n  8495: a0 = u64 [s1 + 0x170]\n  8499: u64 [s1 + 0x2b0] = a0\n  8503: a1 = s1 + 0x2a0\n  8507: a0 = u64 [s1 + 0x178]\n  8511: u64 [s1 + 0x2b8] = a0\n  8515: a0 = a2\n  8517: u64 [s1 + 0x198] = a2\n  8521: u64 [s1 + 0x190] = a3\n  8525: u64 [s1 + 0x178] = a4\n  8529: u64 [s1 + 0x170] = a5\n  8533: ra = 304, jump @9\n      : @330 [@dyn 152] (gas: 12)\n  8539: a5 = s1 + 0x100\n  8543: a1 = u64 [a5 + 0x98]\n  8547: a0 = u64 [a5 + 0x78]\n  8550: a3 = u64 [a5 + 0x70]\n  8553: a3 = a3 | a0\n  8556: a4 = 0x100000000\n  8566: a0 = 0xffffffe0\n  8576: a0 = a1 <u a0\n  8579: a2 = u64 [a5 + 0x90]\n  8583: a0 = 0 if a2 != 0\n  8585: a0 = 0 if a3 != 0\n  8587: jump @332 if a0 != 0\n      : @331 (gas: 1)\n  8590: jump @643\n      : @332 (gas: 14)\n  8593: i32 a0 = a1 + 0x20\n  8596: a1 = u64 [s1 + 0x140]\n  8600: a5 = s1 + 0x200\n  8604: u64 [a5 + 0x80] = a1\n  8608: a1 = u64 [s1 + 0x148]\n  8612: u64 [a5 + 0x88] = a1\n  8616: a1 = u64 [s1 + 0x150]\n  8620: u64 [a5 + 0x90] = a1\n  8624: a1 = s1 + 0x280\n  8628: a2 = u64 [s1 + 0x158]\n  8632: u64 [a5 + 0x98] = a2\n  8636: u64 [s1 + 0x178] = a3\n  8640: u64 [s1 + 0x170] = a4\n  8644: ra = 306, jump @9\n      : @333 [@dyn 153] (gas: 10)\n  8650: a2 = s1 + 0x100\n  8654: a4 = u64 [a2 + 0x78]\n  8657: a3 = u64 [a2 + 0x90]\n  8661: a1 = u64 [a2 + 0x98]\n  8665: a0 = u64 [a2 + 0x70]\n  8668: a0 = a0 + 0xffffffffffffffc0\n  8671: a0 = a1 <u a0\n  8674: a0 = 0 if a3 != 0\n  8676: a0 = 0 if a4 != 0\n  8678: jump @335 if a0 != 0\n      : @334 (gas: 1)\n  8681: jump @643\n      : @335 (gas: 12)\n  8684: i32 a0 = a1 + 0x40\n  8687: a1 = u64 [s1 + 0x180]\n  8691: a3 = s1 + 0x200\n  8695: u64 [a3 + 0x60] = a1\n  8698: a1 = u64 [s1 + 0x188]\n  8702: u64 [a3 + 0x68] = a1\n  8705: a1 = u64 [s1 + 0x130]\n  8709: u64 [a3 + 0x70] = a1\n  8712: a1 = s1 + 0x260\n  8716: a2 = u64 [s1 + 0x138]\n  8720: u64 [a3 + 0x78] = a2\n  8723: ra = 308, jump @9\n      : @336 [@dyn 154] (gas: 9)\n  8729: a3 = s1 + 0x100\n  8733: a2 = u64 [a3 + 0x98]\n  8737: a0 = 0xffffffa0\n  8747: a0 = a2 <u a0\n  8750: a1 = u64 [a3 + 0x90]\n  8754: a0 = 0 if a1 != 0\n  8756: a1 = u64 [a3 + 0x78]\n  8759: a0 = 0 if a1 != 0\n  8761: jump @338 if a0 != 0\n      : @337 (gas: 1)\n  8764: jump @643\n      : @338 (gas: 10)\n  8767: a0 = u64 [s1 + 0x128]\n  8771: a0 = a0 << 0x20\n  8774: a1 = a0 >> 0x20\n  8777: i32 a0 = a2 + 0x60\n  8780: u64 [s1 + 600] = 0\n  8784: u64 [s1 + 592] = 0\n  8788: u64 [s1 + 0x240] = a1\n  8792: a1 = s1 + 0x240\n  8796: u64 [s1 + 584] = 0\n  8800: ra = 310, jump @9\n      : @339 [@dyn 155] (gas: 3)\n  8806: a1 = 0x80\n  8810: a0 = u64 [s1 + 0x198]\n  8814: ra = 312, jump @21\n      : @340 [@dyn 156] (gas: 5)\n  8820: i32 a1 = a0 + 0\n  8822: a2 = 0x80\n  8826: a0 = 0\n  8828: ecalli 13 // 'seal_return'\n  8830: jump @740\n      : @341 (gas: 10)\n  8833: u64 [a2 + 1376] = 0\n  8837: u64 [a2 + 1368] = 0\n  8841: u64 [a2 + 1360] = 0\n  8845: u64 [a2 + 1352] = 0\n  8849: a0 = s1 + 0x2000\n  8853: i32 a0 = a0 + 0x660\n  8857: ra = 0x13a\n  8861: ecalli 16 // 'value_transferred'\n  8863: t0 = 0x13c\n  8867: jump @1398\n      : @342 [@dyn 157] (gas: 1)\n  8870: t0 = 316, jump @1398\n      : @343 [@dyn 158] (gas: 8)\n  8876: a0 = u64 [a4 + 0x58]\n  8879: a1 = u64 [a4 + 0x60]\n  8882: a2 = u64 [a4 + 0x50]\n  8885: a3 = u64 [a4 + 0x48]\n  8888: a1 = a1 | a2\n  8891: a0 = a0 | a3\n  8894: a0 = a0 | a1\n  8897: jump @345 if a0 == 0\n      : @344 (gas: 1)\n  8900: jump @698\n      : @345 (gas: 1)\n  8903: t0 = 318, jump @1422\n      : @346 [@dyn 159] (gas: 1)\n  8909: jump @348 if a1 <u a0\n      : @347 (gas: 1)\n  8912: jump @699\n      : @348 (gas: 6)\n  8915: a0 = s1 + 0x2000\n  8919: i32 a0 = a0 + 0x680\n  8923: a1 = 0x4\n  8926: ra = 0x140\n  8930: ecalli 2 // 'call_data_load'\n  8932: fallthrough\n      : @349 [@dyn 160] (gas: 7)\n  8933: a0 = s1 + 0x2118\n  8937: a5 = a0 + 0x500\n  8941: a1 = u64 [a5 + 0x80]\n  8945: a2 = u64 [a5 + 0x78]\n  8948: a3 = u64 [a5 + 0x70]\n  8951: a4 = u64 [a5 + 0x68]\n  8954: t0 = 322, jump @1393\n      : @350 [@dyn 161] (gas: 1)\n  8960: jump @352 if a0 != 0\n      : @351 (gas: 1)\n  8963: jump @700\n      : @352 (gas: 9)\n  8966: a0 = 0x30180\n  8971: u64 [s1 + 0x170] = a0\n  8975: i32 a0 = a0 + 0\n  8977: u64 [s1 + 0x140] = a0\n  8981: ra = 0x144\n  8985: ecalli 4 // 'caller'\n  8987: a2 = u64 [s1 + 0x170]\n  8991: t0 = 0x146\n  8995: jump @1361\n      : @353 [@dyn 162] (gas: 2)\n  8998: a2 = u64 [s1 + 0x170]\n  9002: t0 = 326, jump @1361\n      : @354 [@dyn 163] (gas: 7)\n  9008: u64 [a2 + 256] = 0\n  9012: u64 [a2 + 0xf8] = a1\n  9016: u64 [a2 + 0xf0] = a0\n  9020: a1 = s1 + 0x1200\n  9024: u64 [a2 + 0xe8] = a3\n  9028: a0 = 0\n  9030: ra = 328, jump @9\n      : @355 [@dyn 164] (gas: 3)\n  9036: t0 = 0x14a\n  9040: a1 = s1 + 0x1118\n  9044: fallthrough\n      : @356 [@dyn 165] (gas: 8)\n  9045: u64 [a1 + 224] = 0\n  9049: u64 [a1 + 216] = 0\n  9053: u64 [a1 + 200] = 0x1\n  9058: a2 = a1\n  9060: a0 = 0x20\n  9063: a1 = s1 + 0x11e0\n  9067: u64 [a2 + 208] = 0\n  9071: ra = 332, jump @9\n      : @357 [@dyn 166] (gas: 7)\n  9077: a0 = sp + 0xffffffffffffffe0\n  9080: a0 = a0 & 0xffffffffffffffe0\n  9083: u64 [s1 + 0x180] = a0\n  9087: sp = a0\n  9089: a2 = 0x20170\n  9094: a0 = i32 [0x20170]\n  9099: jump @359 if a0 >u 63\n      : @358 (gas: 2)\n  9103: u32 [0x20170] = 0x40\n  9109: fallthrough\n      : @359 (gas: 43)\n  9110: u64 [s1 + 0x138] = a2\n  9114: a0 = sp + 0xffffffffffffffe0\n  9117: a2 = a0 & 0xffffffffffffffe0\n  9120: u64 [s1 + 0x168] = a2\n  9124: sp = a2\n  9126: a0 = 0x20180\n  9131: i32 a0 = a0 + 0\n  9133: i32 a2 = a2 + 0\n  9135: a1 = 0x40\n  9138: u64 [s1 + 0x148] = a0\n  9142: ecalli 8 // 'hash_keccak_256'\n  9144: a3 = u64 [s1 + 0x168]\n  9148: a0 = u64 [a3 + 0x18]\n  9151: a1 = u64 [a3 + 0x10]\n  9154: a2 = u64 [a3 + 0x8]\n  9157: a3 = u64 [a3]\n  9159: a0 = reverse a0\n  9161: a5 = reverse a1\n  9163: a2 = reverse a2\n  9165: t0 = reverse a3\n  9167: a4 = u64 [s1 + 0x180]\n  9171: u64 [a4 + 0x18] = t0\n  9174: u64 [a4 + 0x10] = a2\n  9177: u64 [a4 + 0x8] = a5\n  9180: u64 [a4] = a0\n  9182: a4 = sp + 0xffffffffffffffe0\n  9185: a1 = a4 & 0xffffffffffffffe0\n  9188: sp = a1\n  9190: a4 = a0 + 0x2\n  9193: a0 = a4 <u a0\n  9196: a3 = a5 + a0\n  9199: a5 = a3 <u a5\n  9202: a5 = a0 if a0 == 0\n  9205: a5 = a5 + a2\n  9208: a0 = a5 <u a2\n  9211: a0 = a0 + t0\n  9214: u64 [a1 + 0x10] = a5\n  9217: u64 [a1 + 0x8] = a3\n  9220: u64 [a1] = a4\n  9222: u64 [a1 + 0x18] = a0\n  9225: a0 = s1 + 0x11c0\n  9229: u64 [s1 + 0x168] = a1\n  9233: ra = 334, jump @11\n      : @360 [@dyn 167] (gas: 25)\n  9239: a0 = s1 + 0x1118\n  9243: t1 = u64 [a0 + 0xc0]\n  9247: t2 = u64 [a0 + 0xb8]\n  9251: t0 = u64 [a0 + 0xb0]\n  9255: a3 = u64 [a0 + 0xa8]\n  9259: a0 = u64 [s1 + 0x198]\n  9263: a4 = t1 ^ a0\n  9266: a5 = t1 <u a0\n  9269: a1 = u64 [s1 + 0x178]\n  9273: a0 = t2 <u a1\n  9276: u64 [s1 + 0x158] = a0\n  9280: a5 = a0 if a4 == 0\n  9283: a0 = u64 [s1 + 0x190]\n  9287: ra = t0 ^ a0\n  9290: a0 = t0 <u a0\n  9293: a2 = u64 [s1 + 0x188]\n  9297: u64 [s1 + 0x160] = a3\n  9301: a2 = a3 <u a2\n  9304: u64 [s1 + 0x150] = a2\n  9308: a0 = a2 if ra == 0\n  9311: ra = a1\n  9313: a1 = t2 ^ a1\n  9316: a1 = a1 | a4\n  9319: a5 = a0 if a1 == 0\n  9322: jump @362 if a5 == 0\n      : @361 (gas: 1)\n  9325: jump @704\n      : @362 (gas: 24)\n  9328: a1 = t2 - ra\n  9331: a2 = u64 [s1 + 0x198]\n  9335: a2 = t1 - a2\n  9338: a3 = u64 [s1 + 0x158]\n  9342: a2 = a2 - a3\n  9345: a3 = a1 <u a0\n  9348: a2 = a2 - a3\n  9351: a1 = a1 - a0\n  9354: a0 = u64 [s1 + 0x190]\n  9358: a0 = t0 - a0\n  9361: a3 = u64 [s1 + 0x150]\n  9365: a0 = a0 - a3\n  9368: a3 = u64 [s1 + 0x160]\n  9372: a4 = u64 [s1 + 0x188]\n  9376: a3 = a3 - a4\n  9379: a4 = s1 + 0x2118\n  9383: a5 = a4 + 0x500\n  9387: u64 [a5 + 0x88] = a3\n  9391: u64 [a5 + 0x90] = a0\n  9395: u64 [a5 + 0x98] = a1\n  9399: u64 [a5 + 0xa0] = a2\n  9403: a1 = s1 + 0x26a0\n  9407: a0 = u64 [s1 + 0x168]\n  9411: ra = 336, jump @12\n      : @363 [@dyn 168] (gas: 3)\n  9417: a0 = s1 + 0x11a0\n  9421: a1 = u64 [s1 + 0x180]\n  9425: ra = 338, jump @11\n      : @364 [@dyn 169] (gas: 32)\n  9431: a2 = s1 + 0x1118\n  9435: a0 = u64 [a2 + 0x90]\n  9439: a1 = u64 [a2 + 0x88]\n  9443: t0 = u64 [a2 + 0xa0]\n  9447: a3 = u64 [a2 + 0x98]\n  9451: a4 = u64 [s1 + 0x190]\n  9455: a4 = a4 + a0\n  9458: a5 = u64 [s1 + 0x188]\n  9462: a5 = a5 + a1\n  9465: a1 = a5 <u a1\n  9468: a4 = a4 + a1\n  9471: a2 = a4 ^ a0\n  9474: a0 = a4 <u a0\n  9477: a0 = a1 if a2 == 0\n  9480: a1 = u64 [s1 + 0x178]\n  9484: a1 = a1 + a3\n  9487: a2 = u64 [s1 + 0x198]\n  9491: t0 = t0 + a2\n  9494: a2 = a1 <u a3\n  9497: a2 = a2 + t0\n  9500: a0 = a0 + a1\n  9503: a1 = a0 <u a1\n  9506: a1 = a1 + a2\n  9509: a2 = s1 + 0x2118\n  9513: a3 = a2 + 0x500\n  9517: u64 [a3 + 0xa8] = a5\n  9521: u64 [a3 + 0xb0] = a4\n  9525: u64 [a3 + 0xb8] = a0\n  9529: u64 [a3 + 0xc0] = a1\n  9533: a1 = s1 + 0x26c0\n  9537: a0 = u64 [s1 + 0x180]\n  9541: ra = 340, jump @12\n      : @365 [@dyn 170] (gas: 3)\n  9547: a0 = s1 + 0x1180\n  9551: a1 = 0x40\n  9554: ra = 342, jump @7\n      : @366 [@dyn 171] (gas: 6)\n  9560: a4 = s1 + 0x1118\n  9564: a0 = u64 [a4 + 0x80]\n  9568: a1 = u64 [a4 + 0x78]\n  9571: a2 = u64 [a4 + 0x70]\n  9574: a3 = u64 [a4 + 0x68]\n  9577: t0 = 344, jump @1385\n      : @367 [@dyn 172] (gas: 1)\n  9583: jump @369 if a0 == 0\n      : @368 (gas: 1)\n  9586: jump @643\n      : @369 (gas: 12)\n  9589: a0 = u64 [s1 + 0x188]\n  9593: u64 [a4 + 0x48] = a0\n  9596: a0 = u64 [s1 + 0x190]\n  9600: u64 [a4 + 0x50] = a0\n  9603: a0 = u64 [s1 + 0x178]\n  9607: u64 [a4 + 0x58] = a0\n  9610: a1 = s1 + 0x1160\n  9614: a0 = u64 [s1 + 0x198]\n  9618: u64 [a4 + 0x60] = a0\n  9621: a0 = a3\n  9623: u64 [s1 + 0x198] = a3\n  9627: ra = 346, jump @9\n      : @370 [@dyn 173] (gas: 6)\n  9633: a0 = u64 [s1 + 0x140]\n  9637: ra = 0x15c\n  9641: ecalli 4 // 'caller'\n  9643: a2 = u64 [s1 + 0x170]\n  9647: t0 = 0x15e\n  9651: jump @1365\n      : @371 [@dyn 174] (gas: 2)\n  9654: a2 = u64 [s1 + 0x170]\n  9658: t0 = 350, jump @1365\n      : @372 [@dyn 175] (gas: 24)\n  9664: t0 = a1 | a0\n  9667: a3 = a3 >> 0x20\n  9670: a2 = reverse a2\n  9672: a1 = a2 << 0x20\n  9675: a1 = a1 | a3\n  9678: a2 = a2 >> 0x20\n  9681: a3 = u64 [0x20080]\n  9686: a0 = s1 + 0x1118\n  9690: u64 [a0 + 0x40] = a3\n  9693: a3 = u64 [0x20088]\n  9698: a4 = u64 [0x20090]\n  9703: a5 = u64 [0x20098]\n  9708: u64 [a0 + 0x38] = a3\n  9711: u64 [a0 + 0x30] = a4\n  9714: u64 [a0 + 32] = 0\n  9717: u64 [a0 + 0x28] = a5\n  9720: u64 [a0 + 0x18] = a2\n  9723: u64 [a0 + 0x10] = a1\n  9726: a1 = 0x20\n  9729: a2 = s1 + 0x1140\n  9733: a3 = s1 + 0x1120\n  9737: u64 [a0 + 0x8] = t0\n  9740: a0 = u64 [s1 + 0x198]\n  9744: ra = 352, jump @13\n      : @373 [@dyn 176] (gas: 5)\n  9750: a0 = 0\n  9752: a1 = u64 [s1 + 0x148]\n  9756: a2 = 0\n  9758: ecalli 13 // 'seal_return'\n  9760: jump @905\n      : @374 (gas: 8)\n  9763: u64 [a3 + 192] = 0\n  9767: u64 [a3 + 184] = 0\n  9771: u64 [a3 + 176] = 0\n  9775: u64 [a3 + 168] = 0\n  9779: a0 = s1 + 0x3000\n  9783: i32 a0 = a0 + 0xfffffffffffff9c0\n  9787: ecalli 16 // 'value_transferred'\n  9789: fallthrough\n      : @375 (gas: 9)\n  9790: a4 = s1 + 0x2918\n  9794: a0 = u64 [a4 + 0xb8]\n  9798: a1 = u64 [a4 + 0xc0]\n  9802: a2 = u64 [a4 + 0xb0]\n  9806: a3 = u64 [a4 + 0xa8]\n  9810: a1 = a1 | a2\n  9813: a0 = a0 | a3\n  9816: a0 = a0 | a1\n  9819: jump @377 if a0 == 0\n      : @376 (gas: 1)\n  9822: jump @708\n      : @377 (gas: 3)\n  9825: a0 = u64 [s1 + 0x198]\n  9829: a0 = i32 [a0]\n  9831: jump @379 if a0 >u 3\n      : @378 (gas: 1)\n  9835: jump @709\n      : @379 (gas: 7)\n  9838: u64 [a4 + 224] = 0\n  9842: u64 [a4 + 216] = 0\n  9846: u64 [a4 + 208] = 0\n  9850: u64 [a4 + 200] = 0\n  9854: a0 = s1 + 0x20a0\n  9858: a1 = s1 + 0x29e0\n  9862: ra = 354, jump @11\n      : @380 [@dyn 177] (gas: 3)\n  9868: t0 = 0x164\n  9872: a1 = s1 + 0x1918\n  9876: fallthrough\n      : @381 [@dyn 178] (gas: 13)\n  9877: a2 = a1 + 0x700\n  9881: a0 = u64 [a2 + 0xa0]\n  9885: a1 = s1 + 0x100\n  9889: u64 [a1 + 0x98] = a0\n  9893: a0 = u64 [a2 + 0x98]\n  9897: u64 [a1 + 0x90] = a0\n  9901: a0 = u64 [a2 + 0x90]\n  9905: u64 [a1 + 0x88] = a0\n  9909: a0 = u64 [a2 + 0x88]\n  9913: u64 [a1 + 0x80] = a0\n  9917: a0 = s1 + 0x2080\n  9921: a1 = 0x40\n  9924: ra = 358, jump @7\n      : @382 [@dyn 179] (gas: 3)\n  9930: t0 = 0x168\n  9934: a3 = s1 + 0x1918\n  9938: fallthrough\n      : @383 [@dyn 180] (gas: 13)\n  9939: a5 = a3 + 0x700\n  9943: a0 = u64 [a5 + 0x80]\n  9947: a1 = u64 [a5 + 0x78]\n  9950: a2 = u64 [a5 + 0x70]\n  9953: a4 = u64 [a5 + 0x68]\n  9956: a0 = a0 | a2\n  9959: a2 = a4 | a1\n  9962: a2 = a2 | a0\n  9965: a2 = a2 >> 0x20\n  9968: a0 = a0 | a1\n  9971: a0 = a0 << 0x20\n  9974: a0 = a0 | a2\n  9977: jump @385 if a0 == 0\n      : @384 (gas: 1)\n  9980: jump @643\n      : @385 (gas: 14)\n  9983: a2 = s1 + 0x100\n  9987: a0 = u64 [a2 + 0x80]\n  9991: a5 = a3 + 0x700\n  9995: u64 [a5 + 0x48] = a0\n  9998: a0 = u64 [a2 + 0x88]\n 10002: u64 [a5 + 0x50] = a0\n 10005: a0 = u64 [a2 + 0x90]\n 10009: u64 [a5 + 0x58] = a0\n 10012: a1 = s1 + 0x2060\n 10016: a0 = u64 [a2 + 0x98]\n 10020: u64 [a5 + 0x60] = a0\n 10023: a0 = a4\n 10025: u64 [a2 + 0x98] = a4\n 10029: ra = 362, jump @9\n      : @386 [@dyn 181] (gas: 4)\n 10035: a1 = 0x20\n 10038: a0 = u64 [s1 + 0x198]\n 10042: ra = 0x2e0\n 10046: jump @21\n      : @387 (gas: 1)\n 10049: t0 = 364, jump @1415\n      : @388 [@dyn 182] (gas: 12)\n 10055: t0 = u64 [s1 + 0x168]\n 10059: a3 = a0 if t0 != 0\n 10062: u64 [s1 + 0x198] = a3\n 10066: a0 = u64 [s1 + 0x160]\n 10070: a2 = u64 [s1 + 0x130]\n 10074: a0 = a0 | a2\n 10077: a2 = u64 [s1 + 0x118]\n 10081: a0 = a2 if a4 == 0\n 10084: a5 = u64 [s1 + 0x150]\n 10088: a3 = a5\n 10090: a3 = a0 if t0 != 0\n 10093: t0 = 366, jump @1395\n      : @389 [@dyn 183] (gas: 1)\n 10099: ra = 368, jump @1443\n      : @390 [@dyn 184] (gas: 6)\n 10105: u64 [s1 + 0x130] = a0\n 10109: u64 [s1 + 0x118] = a1\n 10113: a0 = u64 [s1 + 0x148]\n 10117: a1 = u64 [s1 + 0x158]\n 10121: a2 = u64 [s1 + 0x190]\n 10125: ra = 370, jump @1443\n      : @391 [@dyn 185] (gas: 1)\n 10131: t0 = 372, jump @1405\n      : @392 [@dyn 186] (gas: 1)\n 10137: ra = 374, jump @1448\n      : @393 [@dyn 187] (gas: 1)\n 10143: t0 = 376, jump @1408\n      : @394 [@dyn 188] (gas: 14)\n 10149: a2 = u64 [s1 + 0x158]\n 10153: a2 = a1 if a3 != 0\n 10156: u64 [s1 + 0x158] = a2\n 10160: a1 = u64 [s1 + 0x110]\n 10164: a0 = a0 | a1\n 10167: a1 = u64 [s1 + 0x130]\n 10171: a0 = a1 if a4 == 0\n 10174: a1 = u64 [s1 + 0x148]\n 10178: a1 = a0 if a3 != 0\n 10181: a2 = a3\n 10183: u64 [s1 + 0x148] = a1\n 10187: a0 = u64 [s1 + 0x150]\n 10191: a1 = u64 [s1 + 0x140]\n 10195: ra = 378, jump @1443\n      : @395 [@dyn 189] (gas: 1)\n 10201: t0 = 380, jump @1386\n      : @396 [@dyn 190] (gas: 3)\n 10207: t1 = u64 [s1 + 0x158]\n 10211: t2 = u64 [s1 + 0x148]\n 10215: fallthrough\n      : @397 (gas: 68)\n 10216: u64 [s1 + 0x158] = a4\n 10220: a2 = t2 >> 0x3f\n 10223: a3 = t1 << 0x1\n 10226: t0 = a3 | a2\n 10229: a3 = t2 << 0x1\n 10232: a4 = u64 [s1 + 0x198]\n 10236: a4 = a4 >> 0x3f\n 10239: a3 = a3 | a4\n 10242: u64 [s1 + 0x148] = a3\n 10246: a2 = u64 [s1 + 0x128]\n 10250: t2 = a1\n 10252: u64 [s1 + 0x150] = t0\n 10256: a1 = a2 ^ t0\n 10259: ra = t1\n 10261: t1 = a2 <u t0\n 10264: a4 = u64 [s1 + 0x130]\n 10268: t0 = a4 <u a3\n 10271: t0 = t1 if a1 != 0\n 10274: a1 = t2 << 0x1\n 10277: a3 = a0 >> 0x3f\n 10280: a1 = a1 | a3\n 10283: u64 [s1 + 0x140] = a1\n 10287: a3 = ra >> 0x3f\n 10290: a0 = a0 << 0x1\n 10293: a3 = a3 | a0\n 10296: a0 = u64 [s1 + 0x198]\n 10300: a0 = a0 << 0x1\n 10303: a4 = u64 [s1 + 0x160]\n 10307: a1 = a4 >> 0x3f\n 10310: ra = a0 | a1\n 10313: a1 = a4 << 0x1\n 10316: a4 = u64 [s1 + 0x168]\n 10320: t1 = a4 >> 0x3f\n 10323: t1 = a1 | t1\n 10326: a1 = a4 << 0x1\n 10329: a4 = u64 [s1 + 0x188]\n 10333: t2 = a4 >> 0x3f\n 10336: a1 = a1 | t2\n 10339: a4 = a4 << 0x1\n 10342: a0 = u64 [s1 + 0x158]\n 10346: a4 = a4 | a0\n 10349: u64 [s1 + 0x188] = a4\n 10353: a1 = a1 | a5\n 10356: u64 [s1 + 0x168] = a1\n 10360: a1 = a5 | t1\n 10363: u64 [s1 + 0x160] = a1\n 10367: a0 = a5 | ra\n 10370: u64 [s1 + 0x198] = a0\n 10374: a0 = a2 - a3\n 10377: a0 = a0 <u t0\n 10380: a1 = a2 <u a3\n 10383: t0 = u64 [s1 + 0x140]\n 10387: a4 = a2 - t0\n 10390: a4 = a4 - a1\n 10393: a4 = a4 - a0\n 10396: a5 = a4 >>a 0x3f\n 10399: a0 = u64 [s1 + 0x138]\n 10403: a0 = a0 & a5\n 10406: a1 = u64 [s1 + 0x148]\n 10410: t2 = a1 - a0\n 10413: a1 = a1 <u a0\n 10416: a0 = u64 [s1 + 0x150]\n 10420: t1 = a0 - a1\n 10423: a1 = 0 if a0 != 0\n 10425: a0 = a3 - a1\n 10428: a1 = a3 <u a1\n 10431: a1 = t0 - a1\n 10434: t0 = 382, jump @1441\n      : @398 [@dyn 191] (gas: 17)\n 10440: t0 = a4 <u a2\n 10443: a2 = a4 - a2\n 10446: a4 = a3 <u 0x1\n 10449: ra = ra - a4\n 10452: a4 = u64 [s1 + 0x178]\n 10456: a4 = a4 - t0\n 10459: a3 = a3 + 0xffffffffffffffff\n 10462: u64 [s1 + 0x180] = ra\n 10466: u64 [s1 + 0x178] = a4\n 10470: t0 = ra | a4\n 10473: u64 [s1 + 0x190] = a3\n 10477: a4 = a3 | a2\n 10480: a3 = a4 | t0\n 10483: a4 = a5 & 0x1\n 10486: u64 [s1 + 0x170] = a2\n 10490: a5 = 0\n 10492: jump @397 if a3 != 0\n      : @399 (gas: 4)\n 10496: a0 = u64 [s1 + 0x188]\n 10500: a0 = a0 << 0x1\n 10503: a4 = a4 | a0\n 10506: fallthrough\n      : @400 (gas: 3)\n 10507: a0 = a4 & 0xffffffffffffffff\n 10510: a1 = u64 [s1 + 0x120]\n 10514: jump @402 if a1 == a0\n      : @401 (gas: 1)\n 10517: jump @710\n      : @402 (gas: 8)\n 10520: a0 = 0x30180\n 10525: u64 [s1 + 0x150] = a0\n 10529: i32 a0 = a0 + 0\n 10531: u64 [s1 + 0x148] = a0\n 10535: ra = 0x180\n 10539: ecalli 4 // 'caller'\n 10541: t0 = 0x182\n 10545: jump @1362\n      : @403 [@dyn 192] (gas: 1)\n 10548: t0 = 386, jump @1362\n      : @404 [@dyn 193] (gas: 9)\n 10554: u64 [a2 + 1056] = 0\n 10558: a4 = a2 + 0x400\n 10562: u64 [a4 + 0x18] = a1\n 10565: u64 [a4 + 0x10] = a0\n 10568: a1 = s1 + 0x7ff\n 10572: a1 = a1 + 0x521\n 10576: u64 [a4 + 0x8] = a3\n 10579: a0 = 0\n 10581: ra = 388, jump @9\n      : @405 [@dyn 194] (gas: 11)\n 10587: a1 = s1 + 0x7ff\n 10591: a1 = a1 + 0x119\n 10595: u64 [a1 + 1024] = 0\n 10599: u64 [a1 + 1016] = 0\n 10603: u64 [a1 + 1000] = 0x1\n 10608: a2 = a1\n 10610: a0 = 0x20\n 10613: a1 = s1 + 0x7ff\n 10617: a1 = a1 + 0x501\n 10621: u64 [a2 + 1008] = 0\n 10625: ra = 390, jump @9\n      : @406 [@dyn 195] (gas: 7)\n 10631: a0 = sp + 0xffffffffffffffe0\n 10634: a0 = a0 & 0xffffffffffffffe0\n 10637: u64 [s1 + 0x128] = a0\n 10641: sp = a0\n 10643: a1 = 0x20170\n 10648: a0 = i32 [0x20170]\n 10653: jump @408 if a0 >u 63\n      : @407 (gas: 3)\n 10657: u32 [0x20170] = 0x40\n 10663: t0 = 0x188\n 10667: jump @1430\n      : @408 (gas: 1)\n 10670: t0 = 392, jump @1430\n      : @409 [@dyn 196] (gas: 30)\n 10676: a0 = 0x20180\n 10681: i32 a0 = a0 + 0\n 10683: i32 a2 = a2 + 0\n 10685: u64 [s1 + 0x188] = a1\n 10689: a1 = 0x40\n 10692: u64 [s1 + 0x190] = a0\n 10696: ecalli 8 // 'hash_keccak_256'\n 10698: a3 = u64 [s1 + 0x198]\n 10702: a0 = u64 [a3 + 0x18]\n 10705: a1 = u64 [a3 + 0x10]\n 10708: a2 = u64 [a3 + 0x8]\n 10711: a3 = u64 [a3]\n 10713: a5 = reverse a0\n 10715: a4 = reverse a1\n 10717: a1 = reverse a2\n 10719: a2 = reverse a3\n 10721: a0 = u64 [s1 + 0x128]\n 10725: u64 [s1 + 0x180] = a2\n 10729: u64 [a0 + 0x18] = a2\n 10732: u64 [s1 + 0x198] = a1\n 10736: u64 [a0 + 0x10] = a1\n 10739: u64 [s1 + 0x178] = a4\n 10743: u64 [a0 + 0x8] = a4\n 10746: u64 [s1 + 0x170] = a5\n 10750: u64 [a0] = a5\n 10752: a0 = u64 [s1 + 0x148]\n 10756: ra = 0x18a\n 10760: ecalli 4 // 'caller'\n 10762: t0 = 0x18c\n 10766: jump @1362\n      : @410 [@dyn 197] (gas: 1)\n 10769: t0 = 396, jump @1362\n      : @411 [@dyn 198] (gas: 9)\n 10775: u64 [a2 + 992] = 0\n 10779: a4 = a2 + 0x300\n 10783: u64 [a4 + 0xd8] = a1\n 10787: u64 [a4 + 0xd0] = a0\n 10791: a1 = s1 + 0x7ff\n 10795: a1 = a1 + 0x4e1\n 10799: u64 [a4 + 0xc8] = a3\n 10803: a0 = 0\n 10805: ra = 398, jump @9\n      : @412 [@dyn 199] (gas: 11)\n 10811: a1 = s1 + 0x7ff\n 10815: a1 = a1 + 0x119\n 10819: u64 [a1 + 960] = 0\n 10823: u64 [a1 + 952] = 0\n 10827: u64 [a1 + 936] = 0x3\n 10832: a2 = a1\n 10834: a0 = 0x20\n 10837: a1 = s1 + 0x7ff\n 10841: a1 = a1 + 0x4c1\n 10845: u64 [a2 + 944] = 0\n 10849: ra = 400, jump @9\n      : @413 [@dyn 200] (gas: 3)\n 10855: a1 = u64 [s1 + 0x188]\n 10859: a0 = i32 [a1]\n 10861: jump @415 if a0 >u 63\n      : @414 (gas: 2)\n 10865: u32 [a1 + 0] = 0x40\n 10868: fallthrough\n      : @415 (gas: 8)\n 10869: a1 = 0xffffffff00000000\n 10879: u64 [s1 + 0x130] = a1\n 10883: a0 = 0xffffffff\n 10893: u64 [s1 + 0x140] = a0\n 10897: a0 = sp + 0xffffffffffffffe0\n 10900: a0 = a0 & 0xffffffffffffffe0\n 10903: u64 [s1 + 0x168] = a0\n 10907: t0 = 402, jump @1364\n      : @416 [@dyn 201] (gas: 5)\n 10913: ra = 0x194\n 10917: ecalli 8 // 'hash_keccak_256'\n 10919: a3 = u64 [s1 + 0x168]\n 10923: t0 = 0x196\n 10927: jump @1391\n      : @417 [@dyn 202] (gas: 2)\n 10930: a3 = u64 [s1 + 0x168]\n 10934: t0 = 406, jump @1391\n      : @418 [@dyn 203] (gas: 8)\n 10940: u64 [a5 + 0xe0] = a3\n 10944: u64 [a5 + 0xd8] = a2\n 10948: u64 [a5 + 0xd0] = a1\n 10952: u64 [a5 + 0xc8] = a0\n 10956: a0 = s1 + 0x7ff\n 10960: a0 = a0 + 0x4a1\n 10964: a1 = s1 + 0x24e0\n 10968: ra = 408, jump @11\n      : @419 [@dyn 204] (gas: 26)\n 10974: u64 [s1 + 272] = 0\n 10978: u64 [s1 + 280] = 0\n 10982: a4 = 0\n 10984: a0 = s1 + 0x7ff\n 10988: a0 = a0 + 0x119\n 10992: a0 = u32 [a0 + 0x388]\n 10996: a3 = s1 + 0x100\n 11000: u64 [a3 + 0x38] = a0\n 11003: a1 = u64 [a3 + 0x70]\n 11006: a1 = a1 + 0x1\n 11009: a0 = a1 <u 0x1\n 11012: a2 = u64 [a3 + 0x78]\n 11015: a0 = a0 + a2\n 11018: u64 [a3 + 0x8] = a1\n 11021: u64 [a3] = a0\n 11023: a0 = a0 | a1\n 11026: a0 = a0 <u 0x1\n 11029: a1 = u64 [a3 + 0x98]\n 11033: a0 = a0 + a1\n 11036: u64 [s1 + 0xf8] = a0\n 11040: a0 = a0 <u a1\n 11043: a1 = u64 [a3 + 0x80]\n 11047: a0 = a0 + a1\n 11050: u64 [s1 + 0xf0] = a0\n 11054: a3 = 0x1\n 11057: fallthrough\n      : @420 (gas: 9)\n 11058: a1 = 0\n 11060: a1 = 0 if a4 == 0\n 11062: a0 = u64 [s1 + 0x138]\n 11066: a0 = a0 <u a3\n 11069: a2 = 0\n 11071: a2 = a0 if a4 == 0\n 11074: a0 = 0\n 11076: a2 = a1 if a0 != 0\n 11079: jump @482 if a2 != 0\n      : @421 (gas: 7)\n 11083: u64 [s1 + 376] = 0\n 11087: u64 [s1 + 0x198] = a3\n 11091: a0 = u64 [s1 + 0x148]\n 11095: ra = 0x19a\n 11099: ecalli 4 // 'caller'\n 11101: t0 = 0x19c\n 11105: jump @1362\n      : @422 [@dyn 205] (gas: 1)\n 11108: t0 = 412, jump @1362\n      : @423 [@dyn 206] (gas: 9)\n 11114: u64 [a2 + 896] = 0\n 11118: a4 = a2 + 0x300\n 11122: u64 [a4 + 0x78] = a1\n 11125: u64 [a4 + 0x70] = a0\n 11128: a1 = s1 + 0x7ff\n 11132: a1 = a1 + 0x481\n 11136: u64 [a4 + 0x68] = a3\n 11139: a0 = 0\n 11141: ra = 414, jump @9\n      : @424 [@dyn 207] (gas: 11)\n 11147: a0 = s1 + 0x7ff\n 11151: a0 = a0 + 0x119\n 11155: u64 [a0 + 864] = 0\n 11159: u64 [a0 + 856] = 0\n 11163: u64 [a0 + 848] = 0\n 11167: a3 = a0\n 11169: a0 = 0x20\n 11172: a1 = s1 + 0x7ff\n 11176: a1 = a1 + 0x461\n 11180: u64 [a3 + 840] = 0x2\n 11185: ra = 416, jump @9\n      : @425 [@dyn 208] (gas: 3)\n 11191: a1 = u64 [s1 + 0x188]\n 11195: a0 = i32 [a1]\n 11197: jump @427 if a0 >u 63\n      : @426 (gas: 2)\n 11201: u32 [a1 + 0] = 0x40\n 11204: fallthrough\n      : @427 (gas: 4)\n 11205: a0 = sp + 0xffffffffffffffe0\n 11208: a0 = a0 & 0xffffffffffffffe0\n 11211: u64 [s1 + 0x180] = a0\n 11215: t0 = 418, jump @1364\n      : @428 [@dyn 209] (gas: 4)\n 11221: ra = 0x1a4\n 11225: ecalli 8 // 'hash_keccak_256'\n 11227: t0 = 0x1a6\n 11231: jump @1371\n      : @429 [@dyn 210] (gas: 1)\n 11234: t0 = 422, jump @1371\n      : @430 [@dyn 211] (gas: 10)\n 11240: a3 = a2 + 0x300\n 11244: u64 [a3 + 0x40] = a0\n 11247: u64 [a3 + 0x38] = a0\n 11250: u64 [a3 + 0x30] = a0\n 11253: a1 = s1 + 0x7ff\n 11257: a1 = a1 + 0x441\n 11261: a0 = u64 [s1 + 0x198]\n 11265: u64 [a3 + 0x28] = a0\n 11268: a0 = 0\n 11270: ra = 424, jump @9\n      : @431 [@dyn 212] (gas: 1)\n 11276: t0 = 426, jump @1440\n      : @432 [@dyn 213] (gas: 2)\n 11282: a2 = a1 + 0x300\n 11286: t0 = 428, jump @1384\n      : @433 [@dyn 214] (gas: 4)\n 11292: a1 = a1 + 0x421\n 11296: a2 = u64 [s1 + 0x170]\n 11300: u64 [a3 + 0x308] = a2\n 11304: ra = 430, jump @9\n      : @434 [@dyn 215] (gas: 3)\n 11310: a1 = u64 [s1 + 0x188]\n 11314: a0 = i32 [a1]\n 11316: jump @436 if a0 >u 63\n      : @435 (gas: 2)\n 11320: u32 [a1 + 0] = 0x40\n 11323: fallthrough\n      : @436 (gas: 4)\n 11324: a0 = sp + 0xffffffffffffffe0\n 11327: a0 = a0 & 0xffffffffffffffe0\n 11330: u64 [s1 + 0x170] = a0\n 11334: t0 = 432, jump @1364\n      : @437 [@dyn 216] (gas: 5)\n 11340: ra = 0x1b2\n 11344: ecalli 8 // 'hash_keccak_256'\n 11346: a3 = u64 [s1 + 0x170]\n 11350: t0 = 0x1b4\n 11354: jump @1381\n      : @438 [@dyn 217] (gas: 2)\n 11357: a3 = u64 [s1 + 0x170]\n 11361: t0 = 436, jump @1381\n      : @439 [@dyn 218] (gas: 23)\n 11367: a4 = u64 [s1 + 0x180]\n 11371: u64 [a4 + 0x18] = a3\n 11374: u64 [a4 + 0x10] = a2\n 11377: u64 [a4 + 0x8] = a1\n 11380: u64 [a4] = a0\n 11382: a4 = a0 + 0x2\n 11385: a0 = a4 <u a0\n 11388: a5 = a1 + a0\n 11391: a1 = a5 <u a1\n 11394: a1 = a0 if a0 == 0\n 11397: a1 = a1 + a2\n 11400: a0 = a1 <u a2\n 11403: a0 = a0 + a3\n 11406: a2 = s1 + 0x2118\n 11410: a3 = a2 + 0x300\n 11414: u64 [a3 + 0xe8] = a4\n 11418: u64 [a3 + 0xf0] = a5\n 11422: u64 [a3 + 0xf8] = a1\n 11426: u64 [a2 + 0x400] = a0\n 11430: a0 = s1 + 0x7ff\n 11434: a0 = a0 + 0x401\n 11438: a1 = s1 + 0x2500\n 11442: ra = 438, jump @11\n      : @440 [@dyn 219] (gas: 5)\n 11448: a0 = s1 + 0x7ff\n 11452: a0 = a0 + 0x119\n 11456: a0 = u64 [a0 + 0x2f0]\n 11460: a0 = a0 & 0xff\n 11464: jump @443 if a0 == 0\n      : @441 (gas: 2)\n 11467: a1 = u64 [s1 + 0x140]\n 11471: fallthrough\n      : @442 (gas: 5)\n 11472: a4 = 0\n 11474: a0 = u64 [s1 + 0x198]\n 11478: a0 = a0 + 0x1\n 11481: a3 = a0 & a1\n 11484: jump @420\n      : @443 (gas: 4)\n 11487: a0 = s1 + 0x7ff\n 11491: a0 = a0 + 0x3e1\n 11495: a1 = u64 [s1 + 0x180]\n 11499: ra = 440, jump @11\n      : @444 [@dyn 220] (gas: 13)\n 11505: a2 = s1 + 0x7ff\n 11509: a2 = a2 + 0x119\n 11513: a3 = a2 + 0x200\n 11517: a0 = u64 [a3 + 0xd0]\n 11521: a1 = u64 [a3 + 0xd8]\n 11525: a2 = u64 [a3 + 0xc8]\n 11529: a0 = a0 & 0xffffffffffffffff\n 11532: a1 = a1 & 0xffffffffffffffff\n 11535: a4 = u64 [s1 + 0x130]\n 11539: a2 = a2 & a4\n 11542: a1 = a1 | a2\n 11545: a0 = a0 | a1\n 11548: jump @441 if a0 == 0\n      : @445 (gas: 5)\n 11551: a0 = u64 [s1 + 0x148]\n 11555: ra = 0x1ba\n 11559: ecalli 4 // 'caller'\n 11561: t0 = 0x1bc\n 11565: jump @1362\n      : @446 [@dyn 221] (gas: 1)\n 11568: t0 = 444, jump @1362\n      : @447 [@dyn 222] (gas: 9)\n 11574: u64 [a2 + 704] = 0\n 11578: a4 = a2 + 0x200\n 11582: u64 [a4 + 0xb8] = a1\n 11586: u64 [a4 + 0xb0] = a0\n 11590: a1 = s1 + 0x7ff\n 11594: a1 = a1 + 0x3c1\n 11598: u64 [a4 + 0xa8] = a3\n 11602: a0 = 0\n 11604: ra = 446, jump @9\n      : @448 [@dyn 223] (gas: 11)\n 11610: a0 = s1 + 0x7ff\n 11614: a0 = a0 + 0x119\n 11618: u64 [a0 + 672] = 0\n 11622: u64 [a0 + 664] = 0\n 11626: u64 [a0 + 656] = 0\n 11630: a3 = a0\n 11632: a0 = 0x20\n 11635: a1 = s1 + 0x7ff\n 11639: a1 = a1 + 0x3a1\n 11643: u64 [a3 + 648] = 0x4\n 11648: ra = 448, jump @9\n      : @449 [@dyn 224] (gas: 3)\n 11654: a1 = u64 [s1 + 0x188]\n 11658: a0 = i32 [a1]\n 11660: jump @451 if a0 >u 63\n      : @450 (gas: 2)\n 11664: u32 [a1 + 0] = 0x40\n 11667: fallthrough\n      : @451 (gas: 4)\n 11668: a0 = sp + 0xffffffffffffffe0\n 11671: a0 = a0 & 0xffffffffffffffe0\n 11674: u64 [s1 + 0x180] = a0\n 11678: t0 = 450, jump @1364\n      : @452 [@dyn 225] (gas: 3)\n 11684: ra = 0x1c4\n 11688: ecalli 8 // 'hash_keccak_256'\n 11690: fallthrough\n      : @453 [@dyn 226] (gas: 8)\n 11691: a3 = u64 [s1 + 0x180]\n 11695: a0 = u64 [a3 + 0x18]\n 11698: a1 = u64 [a3 + 0x10]\n 11701: a2 = u64 [a3 + 0x8]\n 11704: a3 = u64 [a3]\n 11706: a0 = reverse a0\n 11708: u64 [s1 + 0x180] = a0\n 11712: t0 = 454, jump @1419\n      : @454 [@dyn 227] (gas: 11)\n 11718: a2 = s1 + 0x7ff\n 11722: a2 = a2 + 0x119\n 11726: u64 [a2 + 640] = 0\n 11730: u64 [a2 + 632] = 0\n 11734: u64 [a2 + 624] = 0\n 11738: a1 = s1 + 0x7ff\n 11742: a1 = a1 + 0x381\n 11746: a0 = u64 [s1 + 0x120]\n 11750: u64 [a2 + 0x268] = a0\n 11754: a0 = 0\n 11756: ra = 456, jump @9\n      : @455 [@dyn 228] (gas: 16)\n 11762: a0 = u64 [s1 + 0x160]\n 11766: a1 = s1 + 0x7ff\n 11770: a1 = a1 + 0x119\n 11774: a2 = a1 + 0x200\n 11778: u64 [a2 + 0x60] = a0\n 11781: a0 = u64 [s1 + 0x168]\n 11785: u64 [a2 + 0x58] = a0\n 11788: a0 = u64 [s1 + 0x170]\n 11792: u64 [a2 + 0x50] = a0\n 11795: a3 = a1\n 11797: a0 = 0x20\n 11800: a1 = s1 + 0x7ff\n 11804: a1 = a1 + 0x361\n 11808: a2 = u64 [s1 + 0x180]\n 11812: u64 [a3 + 0x248] = a2\n 11816: ra = 458, jump @9\n      : @456 [@dyn 229] (gas: 3)\n 11822: a1 = u64 [s1 + 0x188]\n 11826: a0 = i32 [a1]\n 11828: jump @458 if a0 >u 63\n      : @457 (gas: 2)\n 11832: u32 [a1 + 0] = 0x40\n 11835: fallthrough\n      : @458 (gas: 4)\n 11836: a0 = sp + 0xffffffffffffffe0\n 11839: a0 = a0 & 0xffffffffffffffe0\n 11842: u64 [s1 + 0x180] = a0\n 11846: t0 = 460, jump @1364\n      : @459 [@dyn 230] (gas: 4)\n 11852: ra = 0x1ce\n 11856: ecalli 8 // 'hash_keccak_256'\n 11858: t0 = 0x1d0\n 11862: jump @1371\n      : @460 [@dyn 231] (gas: 1)\n 11865: t0 = 464, jump @1371\n      : @461 [@dyn 232] (gas: 10)\n 11871: a3 = a2 + 0x200\n 11875: u64 [a3 + 0x40] = a0\n 11878: u64 [a3 + 0x38] = a0\n 11881: u64 [a3 + 0x30] = a0\n 11884: a1 = s1 + 0x7ff\n 11888: a1 = a1 + 0x341\n 11892: a0 = u64 [s1 + 0x198]\n 11896: u64 [a3 + 0x28] = a0\n 11899: a0 = 0\n 11901: ra = 466, jump @9\n      : @462 [@dyn 233] (gas: 1)\n 11907: t0 = 468, jump @1440\n      : @463 [@dyn 234] (gas: 2)\n 11913: a2 = a1 + 0x200\n 11917: t0 = 470, jump @1384\n      : @464 [@dyn 235] (gas: 4)\n 11923: a1 = a1 + 0x321\n 11927: a2 = u64 [s1 + 0x170]\n 11931: u64 [a3 + 0x208] = a2\n 11935: ra = 472, jump @9\n      : @465 [@dyn 236] (gas: 3)\n 11941: a1 = u64 [s1 + 0x188]\n 11945: a0 = i32 [a1]\n 11947: jump @467 if a0 >u 63\n      : @466 (gas: 2)\n 11951: u32 [a1 + 0] = 0x40\n 11954: fallthrough\n      : @467 (gas: 4)\n 11955: a0 = sp + 0xffffffffffffffe0\n 11958: a0 = a0 & 0xffffffffffffffe0\n 11961: u64 [s1 + 0x178] = a0\n 11965: t0 = 474, jump @1364\n      : @468 [@dyn 237] (gas: 5)\n 11971: ra = 0x1dc\n 11975: ecalli 8 // 'hash_keccak_256'\n 11977: a3 = u64 [s1 + 0x178]\n 11981: t0 = 0x1de\n 11985: jump @1382\n      : @469 [@dyn 238] (gas: 2)\n 11988: a3 = u64 [s1 + 0x178]\n 11992: t0 = 478, jump @1382\n      : @470 [@dyn 239] (gas: 8)\n 11998: a1 = u64 [s1 + 0x180]\n 12002: u64 [a1 + 0x18] = a3\n 12005: u64 [a1 + 0x10] = a2\n 12008: u64 [a1 + 0x8] = a4\n 12011: u64 [a1] = a0\n 12013: a0 = s1 + 0x7ff\n 12017: a0 = a0 + 0x301\n 12021: ra = 480, jump @11\n      : @471 [@dyn 240] (gas: 5)\n 12027: a0 = s1 + 0x7ff\n 12031: a0 = a0 + 0x119\n 12035: a0 = u64 [a0 + 0x1e8]\n 12039: a0 = a0 & 0x1\n 12042: jump @441 if a0 != 0\n      : @472 (gas: 4)\n 12046: a0 = s1 + 0x7ff\n 12050: a0 = a0 + 0x2e1\n 12054: a1 = u64 [s1 + 0x128]\n 12058: ra = 482, jump @11\n      : @473 [@dyn 241] (gas: 17)\n 12064: a3 = s1 + 0x7ff\n 12068: a3 = a3 + 0x119\n 12072: a4 = a3 + 0x100\n 12076: a0 = u64 [a4 + 0xe0]\n 12080: a1 = u64 [a4 + 0xd8]\n 12084: a2 = u64 [a4 + 0xd0]\n 12088: t0 = u64 [a3 + 0x1c8]\n 12092: a4 = u64 [0x200a8]\n 12097: a5 = a0 >u 0\n 12099: a3 = a1 >u 0\n 12101: a3 = a5 if a0 != 0\n 12104: a4 = a4 <u t0\n 12107: a5 = a2 >u 0\n 12109: a5 = a4 if a2 == 0\n 12112: a4 = a1 | a0\n 12115: a5 = a3 if a4 != 0\n 12118: jump @475 if a5 != 0\n      : @474 (gas: 7)\n 12121: a2 = s1 + 0x100\n 12125: a0 = u64 [a2 + 0x10]\n 12128: a0 = a0 + 0x1\n 12131: a1 = u64 [a2 + 0x40]\n 12134: a0 = a0 & a1\n 12137: u64 [a2 + 0x10] = a0\n 12140: jump @442\n      : @475 (gas: 23)\n 12143: a3 = u64 [0x200b0]\n 12148: a3 = a3 + t0\n 12151: a4 = a3 <u t0\n 12154: a5 = a2 + a4\n 12157: a5 = a5 + 0xffffffffffffffff\n 12160: t0 = a5 ^ a2\n 12163: a2 = a5 <u a2\n 12166: a2 = a4 if t0 == 0\n 12169: a4 = a1 + 0xffffffffffffffff\n 12172: a2 = a2 + a4\n 12175: a4 = a2 <u a4\n 12178: a1 = a1 <u 0x1\n 12181: a0 = a0 - a1\n 12184: a0 = a0 + a4\n 12187: a1 = s1 + 0x2118\n 12191: a4 = a1 + 0x400\n 12195: u64 [a4 + 0x8] = a3\n 12198: u64 [a4 + 0x10] = a5\n 12201: u64 [a4 + 0x18] = a2\n 12204: u64 [a4 + 0x20] = a0\n 12207: a1 = s1 + 0x2520\n 12211: a0 = u64 [s1 + 0x128]\n 12215: ra = 484, jump @12\n      : @476 [@dyn 242] (gas: 15)\n 12221: a0 = sp + 0xffffffffffffffe0\n 12224: a1 = a0 & 0xffffffffffffffe0\n 12227: u64 [s1 + 0x178] = a1\n 12231: sp = a1\n 12233: a0 = u64 [s1 + 0xf0]\n 12237: u64 [a1 + 0x18] = a0\n 12240: a0 = u64 [s1 + 0xf8]\n 12244: u64 [a1 + 0x10] = a0\n 12247: a0 = u64 [s1 + 0x100]\n 12251: u64 [a1 + 0x8] = a0\n 12254: a0 = u64 [s1 + 0x108]\n 12258: u64 [a1] = a0\n 12260: a0 = s1 + 0x7ff\n 12264: a0 = a0 + 0x2c1\n 12268: ra = 486, jump @11\n      : @477 [@dyn 243] (gas: 30)\n 12274: a0 = s1 + 0x7ff\n 12278: a0 = a0 + 0x119\n 12282: a0 = u64 [a0 + 0x1a8]\n 12286: a1 = u64 [0x200a0]\n 12291: a2 = s1 + 0x7ff\n 12295: a2 = a2 + 0x119\n 12299: a2 = u64 [a2 + 0x1c0]\n 12303: a3 = s1 + 0x7ff\n 12307: a3 = a3 + 0x119\n 12311: a3 = u64 [a3 + 0x1b0]\n 12315: a4 = s1 + 0x7ff\n 12319: a4 = a4 + 0x119\n 12323: a4 = u64 [a4 + 0x1b8]\n 12327: a1 = a1 + a0\n 12330: a0 = a1 <u a0\n 12333: a5 = a3 + a0\n 12336: a3 = a5 <u a3\n 12339: a3 = a0 if a0 == 0\n 12342: a3 = a3 + a4\n 12345: a0 = a3 <u a4\n 12348: a0 = a0 + a2\n 12351: a2 = s1 + 0x2118\n 12355: a4 = a2 + 0x400\n 12359: u64 [a4 + 0x28] = a1\n 12362: u64 [a4 + 0x30] = a5\n 12365: u64 [a4 + 0x38] = a3\n 12368: u64 [a4 + 0x40] = a0\n 12371: a1 = s1 + 0x2540\n 12375: a0 = u64 [s1 + 0x178]\n 12379: ra = 488, jump @12\n      : @478 [@dyn 244] (gas: 9)\n 12385: a0 = u64 [s1 + 0x118]\n 12389: a0 = a0 + 0x1\n 12392: a1 = u64 [s1 + 0x140]\n 12396: a0 = a0 & a1\n 12399: u64 [s1 + 0x118] = a0\n 12403: a0 = s1 + 0x7ff\n 12407: a0 = a0 + 0x2a1\n 12411: a1 = u64 [s1 + 0x180]\n 12415: ra = 490, jump @11\n      : @479 [@dyn 245] (gas: 9)\n 12421: a0 = s1 + 0x7ff\n 12425: a0 = a0 + 0x119\n 12429: a0 = u64 [a0 + 0x188]\n 12433: a0 = a0 & 0xfe\n 12437: u64 [s1 + 0x178] = a0\n 12441: a0 = s1 + 0x7ff\n 12445: a0 = a0 + 0x281\n 12449: a1 = u64 [s1 + 0x180]\n 12453: ra = 492, jump @11\n      : @480 [@dyn 246] (gas: 25)\n 12459: a0 = s1 + 0x7ff\n 12463: a0 = a0 + 0x119\n 12467: a0 = u64 [a0 + 0x168]\n 12471: a1 = s1 + 0x7ff\n 12475: a1 = a1 + 0x119\n 12479: a1 = u64 [a1 + 0x170]\n 12483: a2 = s1 + 0x7ff\n 12487: a2 = a2 + 0x119\n 12491: a2 = u64 [a2 + 0x178]\n 12495: a3 = s1 + 0x7ff\n 12499: a3 = a3 + 0x119\n 12503: a3 = u64 [a3 + 0x180]\n 12507: a0 = a0 & 0xffffffffffffff00\n 12511: a4 = u64 [s1 + 0x178]\n 12515: a0 = a0 | a4\n 12518: a0 = a0 + 0x1\n 12521: a4 = s1 + 0x2118\n 12525: a5 = a4 + 0x400\n 12529: u64 [a5 + 0x60] = a3\n 12532: u64 [a5 + 0x58] = a2\n 12535: u64 [a5 + 0x50] = a1\n 12538: u64 [a5 + 0x48] = a0\n 12541: a1 = s1 + 0x2560\n 12545: a0 = u64 [s1 + 0x180]\n 12549: ra = 494, jump @12\n      : @481 [@dyn 247] (gas: 1)\n 12555: jump @441\n      : @482 (gas: 4)\n 12558: a0 = s1 + 0x7ff\n 12562: a0 = a0 + 0x261\n 12566: a1 = 0x40\n 12569: ra = 496, jump @7\n      : @483 [@dyn 248] (gas: 15)\n 12575: a2 = s1 + 0x7ff\n 12579: a2 = a2 + 0x119\n 12583: t0 = u64 [a2 + 0x160]\n 12587: a0 = a2 + 0x100\n 12591: a5 = u64 [a0 + 0x58]\n 12594: a4 = u64 [a0 + 0x50]\n 12597: a3 = u64 [a0 + 0x48]\n 12600: a0 = a4 | t0\n 12603: a1 = a3 | a5\n 12606: a1 = a1 | a0\n 12609: a1 = a1 >> 0x20\n 12612: a0 = a0 | a5\n 12615: a0 = a0 << 0x20\n 12618: a0 = a0 | a1\n 12621: jump @485 if a0 == 0\n      : @484 (gas: 1)\n 12624: jump @643\n      : @485 (gas: 15)\n 12627: a0 = u64 [s1 + 0x118]\n 12631: a1 = u64 [s1 + 0x140]\n 12635: a0 = a0 & a1\n 12638: u64 [a2 + 320] = 0\n 12642: u64 [a2 + 312] = 0\n 12646: u64 [a2 + 304] = 0\n 12650: a1 = s1 + 0x7ff\n 12654: a1 = a1 + 0x241\n 12658: u64 [a2 + 0x128] = a0\n 12662: a0 = a3\n 12664: u64 [s1 + 0x198] = a3\n 12668: u64 [s1 + 0x188] = a4\n 12672: u64 [s1 + 0x178] = t0\n 12676: u64 [s1 + 0x180] = a5\n 12680: ra = 498, jump @9\n      : @486 [@dyn 249] (gas: 11)\n 12686: a4 = s1 + 0x100\n 12690: a2 = u64 [a4 + 0x98]\n 12694: a0 = u64 [a4 + 0x80]\n 12698: a1 = u64 [a4 + 0x78]\n 12701: a0 = a0 | a1\n 12704: a1 = 0xffffffe0\n 12714: a1 = a2 <u a1\n 12717: a3 = u64 [a4 + 0x88]\n 12721: a1 = 0 if a3 != 0\n 12723: a1 = 0 if a0 != 0\n 12725: jump @488 if a1 != 0\n      : @487 (gas: 1)\n 12728: jump @643\n      : @488 (gas: 13)\n 12731: a0 = u64 [s1 + 0x110]\n 12735: a1 = u64 [s1 + 0x140]\n 12739: a1 = a1 & a0\n 12742: i32 a0 = a2 + 0x20\n 12745: a3 = s1 + 0x7ff\n 12749: a3 = a3 + 0x119\n 12753: u64 [a3 + 288] = 0\n 12757: u64 [a3 + 280] = 0\n 12761: u64 [a3 + 0x108] = a1\n 12765: a1 = s1 + 0x7ff\n 12769: a1 = a1 + 0x221\n 12773: u64 [a3 + 272] = 0\n 12777: ra = 500, jump @9\n      : @489 [@dyn 250] (gas: 6)\n 12783: a0 = u64 [s1 + 0x148]\n 12787: ra = 0x1f6\n 12791: ecalli 4 // 'caller'\n 12793: a2 = u64 [s1 + 0x150]\n 12797: t0 = 0x1f8\n 12801: jump @1365\n      : @490 [@dyn 251] (gas: 2)\n 12804: a2 = u64 [s1 + 0x150]\n 12808: t0 = 504, jump @1365\n      : @491 [@dyn 252] (gas: 36)\n 12814: t0 = a1 | a0\n 12817: a3 = a3 >> 0x20\n 12820: a2 = reverse a2\n 12822: a1 = a2 << 0x20\n 12825: t1 = a1 | a3\n 12828: a2 = a2 >> 0x20\n 12831: a3 = u64 [0x200b8]\n 12836: a4 = u64 [0x200c0]\n 12841: a5 = u64 [0x200c8]\n 12846: a0 = u64 [s1 + 0x120]\n 12850: a1 = s1 + 0x7ff\n 12854: a1 = a1 + 0x119\n 12858: u64 [a1 + 0xa8] = a0\n 12862: u64 [a1 + 0x100] = a3\n 12866: u64 [a1 + 0xf8] = a4\n 12870: u64 [a1 + 0xf0] = a5\n 12874: a3 = u64 [0x200d0]\n 12879: u64 [a1 + 192] = 0\n 12883: u64 [a1 + 184] = 0\n 12887: u64 [a1 + 176] = 0\n 12891: u64 [a1 + 0xe8] = a3\n 12895: u64 [a1 + 0xd8] = a2\n 12899: u64 [a1 + 0xd0] = t1\n 12903: u64 [a1 + 0xc8] = t0\n 12907: a0 = a1\n 12909: a1 = 0x40\n 12912: a2 = s1 + 0x7ff\n 12916: a2 = a2 + 0x201\n 12920: a3 = s1 + 0x7ff\n 12924: a3 = a3 + 0x1e1\n 12928: a4 = s1 + 0x7ff\n 12932: a4 = a4 + 0x1c1\n 12936: u64 [a0 + 224] = 0\n 12940: a0 = u64 [s1 + 0x198]\n 12944: ra = 0x3f8\n 12948: jump @15\n      : @492 (gas: 1)\n 12951: t0 = 506, jump @1415\n      : @493 [@dyn 253] (gas: 12)\n 12957: t0 = u64 [s1 + 0x168]\n 12961: a3 = a0 if t0 != 0\n 12964: u64 [s1 + 0x198] = a3\n 12968: a0 = u64 [s1 + 0x160]\n 12972: a2 = u64 [s1 + 0x130]\n 12976: a0 = a0 | a2\n 12979: a2 = u64 [s1 + 0x118]\n 12983: a0 = a2 if a4 == 0\n 12986: a5 = u64 [s1 + 0x150]\n 12990: a3 = a5\n 12992: a3 = a0 if t0 != 0\n 12995: t0 = 508, jump @1395\n      : @494 [@dyn 254] (gas: 1)\n 13001: ra = 510, jump @1443\n      : @495 [@dyn 255] (gas: 6)\n 13007: u64 [s1 + 0x130] = a0\n 13011: u64 [s1 + 0x118] = a1\n 13015: a0 = u64 [s1 + 0x158]\n 13019: a1 = u64 [s1 + 0x148]\n 13023: a2 = u64 [s1 + 0x190]\n 13027: ra = 512, jump @1443\n      : @496 [@dyn 256] (gas: 1)\n 13033: t0 = 514, jump @1405\n      : @497 [@dyn 257] (gas: 1)\n 13039: ra = 516, jump @1448\n      : @498 [@dyn 258] (gas: 1)\n 13045: t0 = 518, jump @1408\n      : @499 [@dyn 259] (gas: 14)\n 13051: a2 = u64 [s1 + 0x148]\n 13055: a2 = a1 if a3 != 0\n 13058: u64 [s1 + 0x148] = a2\n 13062: a1 = u64 [s1 + 0x110]\n 13066: a0 = a0 | a1\n 13069: a1 = u64 [s1 + 0x130]\n 13073: a0 = a1 if a4 == 0\n 13076: a1 = u64 [s1 + 0x158]\n 13080: a1 = a0 if a3 != 0\n 13083: a2 = a3\n 13085: u64 [s1 + 0x158] = a1\n 13089: a0 = u64 [s1 + 0x150]\n 13093: a1 = u64 [s1 + 0x140]\n 13097: ra = 520, jump @1443\n      : @500 [@dyn 260] (gas: 1)\n 13103: t0 = 522, jump @1386\n      : @501 [@dyn 261] (gas: 3)\n 13109: t1 = u64 [s1 + 0x148]\n 13113: t2 = u64 [s1 + 0x158]\n 13117: fallthrough\n      : @502 (gas: 68)\n 13118: u64 [s1 + 0x158] = a4\n 13122: a2 = t2 >> 0x3f\n 13125: a3 = t1 << 0x1\n 13128: t0 = a3 | a2\n 13131: a3 = t2 << 0x1\n 13134: a4 = u64 [s1 + 0x198]\n 13138: a4 = a4 >> 0x3f\n 13141: a3 = a3 | a4\n 13144: u64 [s1 + 0x148] = a3\n 13148: a2 = u64 [s1 + 0x128]\n 13152: t2 = a1\n 13154: u64 [s1 + 0x150] = t0\n 13158: a1 = a2 ^ t0\n 13161: ra = t1\n 13163: t1 = a2 <u t0\n 13166: a4 = u64 [s1 + 0x130]\n 13170: t0 = a4 <u a3\n 13173: t0 = t1 if a1 != 0\n 13176: a1 = t2 << 0x1\n 13179: a3 = a0 >> 0x3f\n 13182: a1 = a1 | a3\n 13185: u64 [s1 + 0x140] = a1\n 13189: a3 = ra >> 0x3f\n 13192: a0 = a0 << 0x1\n 13195: a3 = a3 | a0\n 13198: a0 = u64 [s1 + 0x198]\n 13202: a0 = a0 << 0x1\n 13205: a4 = u64 [s1 + 0x160]\n 13209: a1 = a4 >> 0x3f\n 13212: ra = a0 | a1\n 13215: a1 = a4 << 0x1\n 13218: a4 = u64 [s1 + 0x168]\n 13222: t1 = a4 >> 0x3f\n 13225: t1 = a1 | t1\n 13228: a1 = a4 << 0x1\n 13231: a4 = u64 [s1 + 0x188]\n 13235: t2 = a4 >> 0x3f\n 13238: a1 = a1 | t2\n 13241: a4 = a4 << 0x1\n 13244: a0 = u64 [s1 + 0x158]\n 13248: a4 = a4 | a0\n 13251: u64 [s1 + 0x188] = a4\n 13255: a1 = a1 | a5\n 13258: u64 [s1 + 0x168] = a1\n 13262: a1 = a5 | t1\n 13265: u64 [s1 + 0x160] = a1\n 13269: a0 = a5 | ra\n 13272: u64 [s1 + 0x198] = a0\n 13276: a0 = a2 - a3\n 13279: a0 = a0 <u t0\n 13282: a1 = a2 <u a3\n 13285: t0 = u64 [s1 + 0x140]\n 13289: a4 = a2 - t0\n 13292: a4 = a4 - a1\n 13295: a4 = a4 - a0\n 13298: a5 = a4 >>a 0x3f\n 13301: a0 = u64 [s1 + 0x138]\n 13305: a0 = a0 & a5\n 13308: a1 = u64 [s1 + 0x148]\n 13312: t2 = a1 - a0\n 13315: a1 = a1 <u a0\n 13318: a0 = u64 [s1 + 0x150]\n 13322: t1 = a0 - a1\n 13325: a1 = 0 if a0 != 0\n 13327: a0 = a3 - a1\n 13330: a1 = a3 <u a1\n 13333: a1 = t0 - a1\n 13336: t0 = 524, jump @1441\n      : @503 [@dyn 262] (gas: 17)\n 13342: t0 = a4 <u a2\n 13345: a2 = a4 - a2\n 13348: a4 = a3 <u 0x1\n 13351: ra = ra - a4\n 13354: a4 = u64 [s1 + 0x178]\n 13358: a4 = a4 - t0\n 13361: a3 = a3 + 0xffffffffffffffff\n 13364: u64 [s1 + 0x180] = ra\n 13368: u64 [s1 + 0x178] = a4\n 13372: t0 = ra | a4\n 13375: u64 [s1 + 0x190] = a3\n 13379: a4 = a3 | a2\n 13382: a3 = a4 | t0\n 13385: a4 = a5 & 0x1\n 13388: u64 [s1 + 0x170] = a2\n 13392: a5 = 0\n 13394: jump @502 if a3 != 0\n      : @504 (gas: 4)\n 13398: a0 = u64 [s1 + 0x188]\n 13402: a0 = a0 << 0x1\n 13405: a4 = a4 | a0\n 13408: fallthrough\n      : @505 (gas: 4)\n 13409: u64 [s1 + 0x170] = a4\n 13413: a0 = s1 + 0x1fa0\n 13417: a1 = 0x40\n 13420: ra = 526, jump @7\n      : @506 [@dyn 263] (gas: 17)\n 13426: t0 = s1 + 0x1918\n 13430: t1 = u64 [t0 + 0x6a0]\n 13434: a0 = t0 + 0x600\n 13438: a5 = u64 [a0 + 0x98]\n 13442: a3 = u64 [a0 + 0x90]\n 13446: a4 = u64 [a0 + 0x88]\n 13450: a0 = t1 >u 0\n 13452: a1 = a5 >u 0\n 13454: a1 = a0 if t1 != 0\n 13457: a0 = a3 >u 0\n 13459: a2 = a4 <u 0xffffffffffffff60\n 13463: a2 = a2 ^ 0x1\n 13466: a2 = a0 if a3 != 0\n 13469: a0 = a5 | t1\n 13472: u64 [s1 + 0x178] = a0\n 13476: a2 = a1 if a0 != 0\n 13479: jump @508 if a2 == 0\n      : @507 (gas: 1)\n 13482: jump @714\n      : @508 (gas: 20)\n 13485: a0 = a4 + 0xa0\n 13489: a1 = a0 <u a4\n 13492: a2 = a3 + a1\n 13495: u64 [s1 + 0x198] = a3\n 13499: a3 = u64 [s1 + 0x198]\n 13503: a3 = a2 <u a3\n 13506: a3 = a1 if a1 == 0\n 13509: a3 = a3 + a5\n 13512: a1 = a3 <u a5\n 13515: u64 [s1 + 0x190] = a4\n 13519: a4 = t1 + a1\n 13522: u64 [t0 + 0x668] = a0\n 13526: u64 [t0 + 0x670] = a2\n 13530: u64 [t0 + 0x678] = a3\n 13534: a0 = 0x40\n 13537: a1 = s1 + 0x1f80\n 13541: u64 [t0 + 0x680] = a4\n 13545: u64 [s1 + 0x180] = a5\n 13549: u64 [s1 + 0x188] = t1\n 13553: ra = 528, jump @9\n      : @509 [@dyn 264] (gas: 13)\n 13559: a5 = s1 + 0x100\n 13563: a2 = u64 [a5 + 0x90]\n 13567: a3 = u64 [a5 + 0x80]\n 13571: a0 = a2 | a3\n 13574: a1 = u64 [a5 + 0x98]\n 13578: a4 = u64 [a5 + 0x88]\n 13582: a1 = a1 | a4\n 13585: a0 = a0 | a1\n 13588: a0 = a0 >> 0x20\n 13591: a1 = a1 | a3\n 13594: a1 = a1 << 0x20\n 13597: a0 = a0 | a1\n 13600: jump @511 if a0 == 0\n      : @510 (gas: 1)\n 13603: jump @643\n      : @511 (gas: 3)\n 13606: t0 = 0x212\n 13610: a3 = s1 + 0x1918\n 13614: fallthrough\n      : @512 [@dyn 265] (gas: 11)\n 13615: u64 [a3 + 1632] = 0\n 13619: a0 = u64 [s1 + 0x100]\n 13623: a4 = a3 + 0x600\n 13627: u64 [a4 + 0x48] = a0\n 13630: a0 = u64 [s1 + 0xf8]\n 13634: u64 [a4 + 0x50] = a0\n 13637: a1 = s1 + 0x1f60\n 13641: a0 = u64 [s1 + 0x108]\n 13645: u64 [a4 + 0x58] = a0\n 13648: a0 = a2\n 13650: ra = 532, jump @9\n      : @513 [@dyn 266] (gas: 3)\n 13656: a0 = u64 [s1 + 0xc8]\n 13660: ecalli 4 // 'caller'\n 13662: fallthrough\n      : @514 (gas: 9)\n 13663: a2 = s1 + 0x100\n 13667: a4 = u64 [a2 + 0x90]\n 13671: a0 = 0xffffffe0\n 13681: a0 = a4 <u a0\n 13684: a1 = u64 [a2 + 0x98]\n 13688: a0 = 0 if a1 != 0\n 13690: a1 = u64 [a2 + 0x78]\n 13693: a0 = 0 if a1 != 0\n 13695: jump @516 if a0 != 0\n      : @515 (gas: 1)\n 13698: jump @643\n      : @516 (gas: 24)\n 13701: a2 = u64 [s1 + 0xe8]\n 13705: a0 = u64 [a2 + 0x8]\n 13708: a1 = i32 [a2 + 0x10]\n 13711: a2 = u64 [a2]\n 13713: a0 = reverse a0\n 13715: a3 = a0 << 0x20\n 13718: a1 = reverse a1\n 13720: a1 = a1 >> 0x20\n 13723: a3 = a3 | a1\n 13726: a0 = a0 >> 0x20\n 13729: a1 = reverse a2\n 13731: a2 = a1 << 0x20\n 13734: a2 = a2 | a0\n 13737: a1 = a1 >> 0x20\n 13740: i32 a0 = a4 + 0x20\n 13743: a4 = s1 + 0x1918\n 13747: u64 [a4 + 1600] = 0\n 13751: a5 = a4 + 0x600\n 13755: u64 [a5 + 0x38] = a1\n 13758: u64 [a5 + 0x30] = a2\n 13761: a1 = s1 + 0x1f40\n 13765: u64 [a5 + 0x28] = a3\n 13768: u64 [s1 + 0x158] = a0\n 13772: ra = 534, jump @9\n      : @517 [@dyn 267] (gas: 13)\n 13778: a0 = u64 [s1 + 0xf0]\n 13782: a3 = s1 + 0x1918\n 13786: u64 [a3 + 0x600] = a0\n 13790: a0 = u64 [s1 + 0xb8]\n 13794: a4 = a3 + 0x500\n 13798: u64 [a4 + 0xf8] = a0\n 13802: a0 = u64 [s1 + 0xb0]\n 13806: u64 [a4 + 0xf0] = a0\n 13810: a0 = s1 + 0x1f20\n 13814: a1 = s1 + 0x1f00\n 13818: a2 = u64 [s1 + 0xc0]\n 13822: u64 [a4 + 0xe8] = a2\n 13826: ra = 536, jump @1333\n      : @518 [@dyn 268] (gas: 14)\n 13832: a4 = s1 + 0x1918\n 13836: a5 = a4 + 0x600\n 13840: a2 = u64 [a5 + 0x8]\n 13843: a0 = u64 [a5 + 0x10]\n 13846: a1 = u64 [a5 + 0x18]\n 13849: a3 = u64 [a5 + 0x20]\n 13852: a5 = a4 + 0x500\n 13856: u64 [a5 + 0xc0] = a3\n 13860: u64 [a5 + 0xb8] = a1\n 13864: u64 [a5 + 0xb0] = a0\n 13868: a0 = s1 + 0x1ee0\n 13872: a1 = s1 + 0x1ec0\n 13876: u64 [a5 + 0xa8] = a2\n 13880: ra = 538, jump @1323\n      : @519 [@dyn 269] (gas: 14)\n 13886: t0 = s1 + 0x1918\n 13890: a1 = t0 + 0x500\n 13894: a3 = u64 [a1 + 0xe0]\n 13898: a4 = u64 [a1 + 0xd8]\n 13902: a5 = u64 [a1 + 0xd0]\n 13906: a0 = u64 [a1 + 0xc8]\n 13910: a2 = a5 | a3\n 13913: a1 = a0 | a4\n 13916: a1 = a1 | a2\n 13919: a1 = a1 >> 0x20\n 13922: a2 = a2 | a4\n 13925: a2 = a2 << 0x20\n 13928: a1 = a1 | a2\n 13931: jump @521 if a1 == 0\n      : @520 (gas: 1)\n 13934: jump @643\n      : @521 (gas: 14)\n 13937: a1 = u64 [s1 + 0xc0]\n 13941: u64 [t0 + 0x588] = a1\n 13945: a1 = u64 [s1 + 0xb0]\n 13949: u64 [t0 + 0x590] = a1\n 13953: a1 = u64 [s1 + 0xb8]\n 13957: u64 [t0 + 0x598] = a1\n 13961: a1 = s1 + 0x1ea0\n 13965: a2 = u64 [s1 + 0xf0]\n 13969: u64 [t0 + 0x5a0] = a2\n 13973: u64 [s1 + 0x188] = a3\n 13977: u64 [s1 + 0x180] = a4\n 13981: u64 [s1 + 0x168] = a5\n 13985: u64 [s1 + 0x160] = a0\n 13989: ra = 540, jump @9\n      : @522 [@dyn 270] (gas: 11)\n 13995: a5 = s1 + 0x100\n 13999: a3 = u64 [a5 + 0x60]\n 14002: a0 = u64 [a5 + 0x88]\n 14006: a1 = u64 [a5 + 0x80]\n 14010: a0 = a0 | a1\n 14013: a4 = 0xffffffe0\n 14023: a1 = a3 <u a4\n 14026: a2 = u64 [a5 + 0x68]\n 14029: a1 = 0 if a2 != 0\n 14031: a1 = 0 if a0 != 0\n 14033: jump @524 if a1 != 0\n      : @523 (gas: 1)\n 14036: jump @643\n      : @524 (gas: 8)\n 14039: a0 = i32 [s1 + 0x120]\n 14043: u64 [s1 + 0x88] = a0\n 14047: a1 = u64 [s1 + 0xc0]\n 14051: i32 a0 = a1 + 0\n 14053: u64 [s1 + 0x90] = a0\n 14057: i32 a0 = a3 + 0x20\n 14060: u64 [s1 + 0x150] = a4\n 14064: ra = 542, jump @21\n      : @525 [@dyn 271] (gas: 5)\n 14070: i32 a0 = a0 + 0\n 14072: a1 = u64 [s1 + 0x90]\n 14076: a2 = u64 [s1 + 0x88]\n 14080: ecalli 1 // 'call_data_copy'\n 14082: fallthrough\n      : @526 (gas: 28)\n 14083: a1 = u64 [s1 + 0x160]\n 14087: a4 = u64 [s1 + 0x168]\n 14091: a5 = u64 [s1 + 0x180]\n 14095: t0 = u64 [s1 + 0xc0]\n 14099: t0 = t0 + a1\n 14102: a1 = t0 <u a1\n 14105: a2 = u64 [s1 + 0xb0]\n 14109: a2 = a2 + a4\n 14112: a2 = a2 + a1\n 14115: a3 = a2 ^ a4\n 14118: a4 = a2 <u a4\n 14121: a4 = a1 if a3 == 0\n 14124: a1 = u64 [s1 + 0xb8]\n 14128: a1 = a1 + a5\n 14131: a3 = a1 <u a5\n 14134: a5 = u64 [s1 + 0x188]\n 14138: a0 = u64 [s1 + 0xf0]\n 14142: a5 = a5 + a0\n 14145: a3 = a3 + a5\n 14148: a4 = a4 + a1\n 14151: a1 = a4 <u a1\n 14154: a1 = a1 + a3\n 14157: a1 = a1 | a4\n 14160: a0 = u64 [s1 + 0x150]\n 14164: a3 = t0 <u a0\n 14167: a3 = 0 if a2 != 0\n 14169: a3 = 0 if a1 != 0\n 14171: jump @528 if a3 != 0\n      : @527 (gas: 1)\n 14174: jump @643\n      : @528 (gas: 8)\n 14177: i32 a0 = t0 + 0x20\n 14180: a2 = s1 + 0x1918\n 14184: u64 [a2 + 1408] = 0\n 14188: u64 [a2 + 1400] = 0\n 14192: u64 [a2 + 1392] = 0\n 14196: a1 = s1 + 0x1e80\n 14200: u64 [a2 + 1384] = 0\n 14204: ra = 544, jump @9\n      : @529 [@dyn 272] (gas: 10)\n 14210: a3 = 0x100000000\n 14220: a0 = 0xffffffc0\n 14230: a4 = s1 + 0x100\n 14234: a1 = u64 [a4 + 0x90]\n 14238: a0 = a1 <u a0\n 14241: a2 = u64 [a4 + 0x98]\n 14245: a0 = 0 if a2 != 0\n 14247: a2 = u64 [a4 + 0x78]\n 14250: a0 = 0 if a2 != 0\n 14252: jump @531 if a0 != 0\n      : @530 (gas: 1)\n 14255: jump @643\n      : @531 (gas: 15)\n 14258: i32 a0 = a1 + 0x40\n 14261: a2 = s1 + 0x1918\n 14265: a1 = u64 [s1 + 0x160]\n 14269: a4 = a2 + 0x500\n 14273: u64 [a4 + 0x48] = a1\n 14276: a1 = u64 [s1 + 0x168]\n 14280: u64 [a4 + 0x50] = a1\n 14283: a1 = u64 [s1 + 0x180]\n 14287: u64 [a4 + 0x58] = a1\n 14290: a1 = s1 + 0x1e60\n 14294: u64 [s1 + 0x180] = a3\n 14298: a3 = u64 [s1 + 0x188]\n 14302: u64 [a4 + 0x60] = a3\n 14305: u64 [s1 + 0x188] = a0\n 14309: ra = 546, jump @9\n      : @532 [@dyn 273] (gas: 10)\n 14315: a4 = s1 + 0x100\n 14319: a2 = u64 [a4 + 0x78]\n 14322: a3 = u64 [a4 + 0x98]\n 14326: a1 = u64 [a4 + 0x90]\n 14330: a0 = u64 [a4 + 0x80]\n 14334: a0 = a0 + 0xffffffffffffffa0\n 14337: a0 = a1 <u a0\n 14340: a0 = 0 if a3 != 0\n 14342: a0 = 0 if a2 != 0\n 14344: jump @534 if a0 != 0\n      : @533 (gas: 1)\n 14347: jump @643\n      : @534 (gas: 10)\n 14350: i32 a0 = a1 + 0x60\n 14353: a4 = s1 + 0x1918\n 14357: u64 [a4 + 1344] = 0\n 14361: u64 [a4 + 1336] = 0\n 14365: u64 [a4 + 1328] = 0\n 14369: a1 = s1 + 0x1e40\n 14373: a2 = u64 [s1 + 0x170]\n 14377: u64 [a4 + 0x528] = a2\n 14381: u64 [s1 + 0x78] = a0\n 14384: ra = 548, jump @9\n      : @535 [@dyn 274] (gas: 9)\n 14390: a3 = s1 + 0x100\n 14394: a1 = u64 [a3 + 0x90]\n 14398: a0 = 0xffffff80\n 14408: a0 = a1 <u a0\n 14411: a2 = u64 [a3 + 0x98]\n 14415: a0 = 0 if a2 != 0\n 14417: a2 = u64 [a3 + 0x78]\n 14420: a0 = 0 if a2 != 0\n 14422: jump @537 if a0 != 0\n      : @536 (gas: 1)\n 14425: jump @643\n      : @537 (gas: 9)\n 14428: i32 a0 = a1 + 0x80\n 14432: a2 = s1 + 0x1918\n 14436: u64 [a2 + 1312] = 0\n 14440: u64 [a2 + 1304] = 0\n 14444: u64 [a2 + 1296] = 0\n 14448: a1 = s1 + 0x1e20\n 14452: u64 [a2 + 1288] = 0\n 14456: u64 [s1 + 0x28] = a0\n 14459: ra = 550, jump @9\n      : @538 [@dyn 275] (gas: 5)\n 14465: a0 = u64 [s1 + 0xc8]\n 14469: ra = 0x228\n 14473: ecalli 4 // 'caller'\n 14475: t0 = 0x22a\n 14479: jump @1367\n      : @539 [@dyn 276] (gas: 1)\n 14482: t0 = 554, jump @1367\n      : @540 [@dyn 277] (gas: 8)\n 14488: u64 [a2 + 1280] = 0\n 14492: a4 = a2 + 0x400\n 14496: u64 [a4 + 0xf8] = a1\n 14500: u64 [a4 + 0xf0] = a0\n 14504: a1 = s1 + 0x1e00\n 14508: u64 [a4 + 0xe8] = a3\n 14512: a0 = 0\n 14514: ra = 556, jump @9\n      : @541 [@dyn 278] (gas: 3)\n 14520: t0 = 0x22e\n 14524: a1 = s1 + 0x1918\n 14528: fallthrough\n      : @542 [@dyn 279] (gas: 8)\n 14529: u64 [a1 + 1248] = 0\n 14533: u64 [a1 + 1240] = 0\n 14537: u64 [a1 + 1224] = 0x2\n 14542: a2 = a1\n 14544: a0 = 0x20\n 14547: a1 = s1 + 0x1de0\n 14551: u64 [a2 + 1232] = 0\n 14555: ra = 560, jump @9\n      : @543 [@dyn 280] (gas: 3)\n 14561: a1 = u64 [s1 + 0xa8]\n 14565: a0 = i32 [a1]\n 14567: jump @545 if a0 >u 63\n      : @544 (gas: 2)\n 14571: u32 [a1 + 0] = 0x40\n 14574: fallthrough\n      : @545 (gas: 12)\n 14575: a0 = 0xffffffff00000000\n 14585: u64 [s1 + 0x70] = a0\n 14588: a0 = sp + 0xffffffffffffffe0\n 14591: a0 = a0 & 0xffffffffffffffe0\n 14594: u64 [s1 + 0x198] = a0\n 14598: sp = a0\n 14600: i32 a2 = a0 + 0\n 14602: a1 = 0x40\n 14605: a0 = u64 [s1 + 0xa0]\n 14609: ra = 0x232\n 14613: ecalli 8 // 'hash_keccak_256'\n 14615: fallthrough\n      : @546 [@dyn 281] (gas: 14)\n 14616: a3 = u64 [s1 + 0x198]\n 14620: a0 = u64 [a3 + 0x18]\n 14623: a1 = u64 [a3 + 0x10]\n 14626: a2 = u64 [a3 + 0x8]\n 14629: a3 = u64 [a3]\n 14631: a0 = reverse a0\n 14633: u64 [s1 + 0x180] = a0\n 14637: a0 = reverse a1\n 14639: u64 [s1 + 0x178] = a0\n 14643: a0 = reverse a2\n 14645: u64 [s1 + 0x170] = a0\n 14649: a0 = reverse a3\n 14651: u64 [s1 + 0x168] = a0\n 14655: t0 = 564, jump @1413\n      : @547 [@dyn 282] (gas: 12)\n 14661: a2 = s1 + 0x1918\n 14665: u64 [a2 + 1216] = 0\n 14669: a0 = u64 [s1 + 0x108]\n 14673: a3 = a2 + 0x400\n 14677: u64 [a3 + 0xb8] = a0\n 14681: a0 = u64 [s1 + 0xf8]\n 14685: u64 [a3 + 0xb0] = a0\n 14689: a1 = s1 + 0x1dc0\n 14693: a0 = u64 [s1 + 0x100]\n 14697: u64 [a3 + 0xa8] = a0\n 14701: a0 = 0\n 14703: ra = 566, jump @9\n      : @548 [@dyn 283] (gas: 15)\n 14709: a4 = s1 + 0x100\n 14713: a0 = u64 [a4 + 0x68]\n 14716: a1 = s1 + 0x1918\n 14720: a2 = a1 + 0x400\n 14724: u64 [a2 + 0xa0] = a0\n 14728: a0 = u64 [a4 + 0x70]\n 14731: u64 [a2 + 0x98] = a0\n 14735: a0 = u64 [a4 + 0x78]\n 14738: u64 [a2 + 0x90] = a0\n 14742: a3 = a1\n 14744: a0 = 0x20\n 14747: a1 = s1 + 0x1da0\n 14751: a2 = u64 [a4 + 0x80]\n 14755: u64 [a3 + 0x488] = a2\n 14759: ra = 568, jump @9\n      : @549 [@dyn 284] (gas: 3)\n 14765: a1 = u64 [s1 + 0xa8]\n 14769: a0 = i32 [a1]\n 14771: jump @551 if a0 >u 63\n      : @550 (gas: 2)\n 14775: u32 [a1 + 0] = 0x40\n 14778: fallthrough\n      : @551 (gas: 29)\n 14779: a0 = sp + 0xffffffffffffffe0\n 14782: a0 = a0 & 0xffffffffffffffe0\n 14785: u64 [s1 + 0x180] = a0\n 14789: sp = a0\n 14791: i32 a2 = a0 + 0\n 14793: a1 = 0x40\n 14796: a0 = u64 [s1 + 0xa0]\n 14800: ecalli 8 // 'hash_keccak_256'\n 14802: a3 = u64 [s1 + 0x180]\n 14806: a0 = u64 [a3 + 0x18]\n 14809: a1 = u64 [a3 + 0x10]\n 14812: a2 = u64 [a3 + 0x8]\n 14815: a3 = u64 [a3]\n 14817: a5 = reverse a0\n 14819: u64 [s1 + 0x50] = a5\n 14822: a4 = reverse a1\n 14824: u64 [s1 + 0x58] = a4\n 14827: a1 = reverse a2\n 14829: u64 [s1 + 0x68] = a1\n 14832: a0 = reverse a3\n 14834: u64 [s1 + 0x60] = a0\n 14837: a2 = u64 [s1 + 0x198]\n 14841: u64 [a2 + 0x18] = a0\n 14844: u64 [a2 + 0x10] = a1\n 14847: u64 [a2 + 0x8] = a4\n 14850: u64 [a2] = a5\n 14852: a0 = s1 + 0x1d80\n 14856: a1 = u64 [s1 + 0x190]\n 14860: ra = 570, jump @7\n      : @552 [@dyn 285] (gas: 8)\n 14866: a0 = s1 + 0x1918\n 14870: a0 = u64 [a0 + 0x468]\n 14874: a1 = u64 [s1 + 0xe0]\n 14878: a0 = a0 & a1\n 14881: u64 [s1 + 0x190] = a0\n 14885: a0 = s1 + 0x1d60\n 14889: a1 = u64 [s1 + 0x198]\n 14893: ra = 572, jump @11\n      : @553 [@dyn 286] (gas: 22)\n 14899: a3 = s1 + 0x1918\n 14903: a4 = a3 + 0x400\n 14907: a0 = u64 [a4 + 0x50]\n 14910: a1 = u64 [a4 + 0x58]\n 14913: a2 = u64 [a4 + 0x60]\n 14916: a3 = u64 [a4 + 0x48]\n 14919: a0 = a0 & 0xffffffffffffffff\n 14922: a1 = a1 & 0xffffffffffffffff\n 14925: a2 = a2 & 0xffffffffffffffff\n 14928: a4 = u64 [s1 + 0x70]\n 14931: a3 = a3 & a4\n 14934: a4 = u64 [s1 + 0x190]\n 14938: a3 = a3 | a4\n 14941: a4 = s1 + 0x2118\n 14945: a5 = a4 + 0x700\n 14949: u64 [a5 + 0x80] = a2\n 14953: u64 [a5 + 0x78] = a1\n 14956: u64 [a5 + 0x70] = a0\n 14959: u64 [a5 + 0x68] = a3\n 14962: a1 = s1 + 0x2880\n 14966: a0 = u64 [s1 + 0x198]\n 14970: ra = 574, jump @12\n      : @554 [@dyn 287] (gas: 3)\n 14976: a0 = s1 + 0x1d40\n 14980: a1 = u64 [s1 + 0x158]\n 14984: ra = 576, jump @7\n      : @555 [@dyn 288] (gas: 11)\n 14990: a0 = s1 + 0x1918\n 14994: a2 = a0 + 0x400\n 14998: a1 = u64 [a2 + 0x38]\n 15001: u64 [s1 + 0x190] = a1\n 15005: a1 = u64 [a2 + 0x30]\n 15008: u64 [s1 + 0x180] = a1\n 15012: a1 = u64 [a2 + 0x28]\n 15015: u64 [s1 + 0x178] = a1\n 15019: a0 = s1 + 0x1d20\n 15023: a1 = u64 [s1 + 0x198]\n 15027: ra = 578, jump @11\n      : @556 [@dyn 289] (gas: 23)\n 15033: a1 = s1 + 0x1918\n 15037: a0 = u64 [a1 + 0x420]\n 15041: a1 = u32 [a1 + 0x408]\n 15045: a5 = u64 [s1 + 0x178]\n 15049: a2 = a5 >> 0x20\n 15052: a4 = u64 [s1 + 0x180]\n 15056: a3 = a4 << 0x20\n 15059: a2 = a2 | a3\n 15062: a3 = a4 >> 0x20\n 15065: a4 = u64 [s1 + 0x190]\n 15069: a4 = a4 << 0x20\n 15072: a3 = a3 | a4\n 15075: a4 = a5 << 0x20\n 15078: a1 = a1 | a4\n 15081: a4 = s1 + 0x2118\n 15085: a5 = a4 + 0x700\n 15089: u64 [a5 + 0x98] = a3\n 15093: u64 [a5 + 0x90] = a2\n 15097: u64 [a5 + 0xa0] = a0\n 15101: u64 [a5 + 0x88] = a1\n 15105: a1 = s1 + 0x28a0\n 15109: a0 = u64 [s1 + 0x198]\n 15113: ra = 580, jump @12\n      : @557 [@dyn 290] (gas: 27)\n 15119: a0 = sp + 0xffffffffffffffe0\n 15122: a1 = a0 & 0xffffffffffffffe0\n 15125: sp = a1\n 15127: a2 = u64 [s1 + 0x50]\n 15130: a2 = a2 + 0x1\n 15133: a0 = a2 <u 0x1\n 15136: a3 = u64 [s1 + 0x58]\n 15139: a3 = a3 + a0\n 15142: a0 = a2 | a3\n 15145: a0 = a0 <u 0x1\n 15148: a5 = u64 [s1 + 0x68]\n 15151: a4 = a5 + a0\n 15154: a0 = a4 <u a5\n 15157: a5 = u64 [s1 + 0x60]\n 15160: a0 = a0 + a5\n 15163: u64 [s1 + 0x148] = a0\n 15167: u64 [a1 + 0x18] = a0\n 15170: u64 [s1 + 0x138] = a4\n 15174: u64 [a1 + 0x10] = a4\n 15177: u64 [s1 + 0x140] = a3\n 15181: u64 [a1 + 0x8] = a3\n 15184: u64 [s1 + 0x40] = a1\n 15187: u64 [s1 + 0x150] = a2\n 15191: u64 [a1] = a2\n 15193: a0 = s1 + 0x1d00\n 15197: a1 = u64 [s1 + 0x188]\n 15201: ra = 582, jump @7\n      : @558 [@dyn 291] (gas: 18)\n 15207: a0 = s1 + 0x1918\n 15211: a3 = u64 [a0 + 0x400]\n 15215: a5 = a0 + 0x300\n 15219: a4 = u64 [a5 + 0xf8]\n 15223: a2 = u64 [a5 + 0xf0]\n 15227: a1 = u64 [a5 + 0xe8]\n 15231: a5 = s1 + 0x100\n 15235: u64 [a5 + 0x30] = a2\n 15238: u64 [a5 + 0x28] = a3\n 15241: a0 = a2 | a3\n 15244: a2 = a1 | a4\n 15247: a2 = a2 | a0\n 15250: a2 = a2 >> 0x20\n 15253: u64 [a5 + 0x20] = a4\n 15256: a0 = a0 | a4\n 15259: a0 = a0 << 0x20\n 15262: a0 = a0 | a2\n 15265: jump @643 if a0 != 0\n      : @559 (gas: 3)\n 15269: a0 = s1 + 0x1ce0\n 15273: u64 [s1 + 0x118] = a1\n 15277: ra = 584, jump @7\n      : @560 [@dyn 292] (gas: 18)\n 15283: a2 = s1 + 0x1918\n 15287: a0 = a2 + 0x300\n 15291: a4 = u64 [a0 + 0xe0]\n 15295: a3 = u64 [a0 + 0xd8]\n 15299: a1 = u64 [a0 + 0xd0]\n 15303: a0 = a4 >u 0\n 15305: a5 = a3 >u 0\n 15307: a5 = a0 if a4 != 0\n 15310: u64 [s1 + 0x48] = a1\n 15313: a0 = a1 >u 0\n 15315: u64 [s1 + 0x38] = a3\n 15318: u64 [s1 + 0x30] = a4\n 15321: a3 = a3 | a4\n 15324: u64 [s1 + 0x10] = a0\n 15327: u64 [s1 + 0x18] = a5\n 15330: u64 [s1 + 0x110] = a3\n 15334: a0 = a5 if a3 != 0\n 15337: jump @562 if a0 == 0\n      : @561 (gas: 1)\n 15340: jump @740\n      : @562 (gas: 5)\n 15343: a0 = u64 [a2 + 0x3c8]\n 15347: u64 [s1 + 0x80] = a0\n 15351: a0 = s1 + 0x1cc0\n 15355: a1 = u64 [s1 + 0x40]\n 15358: ra = 586, jump @11\n      : @563 [@dyn 293] (gas: 2)\n 15364: a3 = s1 + 0x1918\n 15368: fallthrough\n      : @564 (gas: 30)\n 15369: a4 = a3 + 0x300\n 15373: a0 = u64 [a4 + 0xb8]\n 15377: a1 = u64 [a4 + 0xb0]\n 15381: a2 = u64 [a4 + 0xa8]\n 15385: a3 = u64 [a4 + 0xc0]\n 15389: a4 = a0 << 0x3f\n 15392: a5 = a1 >> 0x1\n 15395: t1 = a5 | a4\n 15398: a5 = a3 << 0x3f\n 15401: a0 = a0 >> 0x1\n 15404: a0 = a0 | a5\n 15407: a1 = a1 << 0x3f\n 15410: a5 = a2 >> 0x1\n 15413: a1 = a1 | a5\n 15416: t2 = a3 >> 0x1\n 15419: a2 = a2 & 0x1\n 15422: a5 = -a2\n 15424: t0 = a2 <u 0x1\n 15427: a4 = a1 & 0x7f\n 15430: a0 = a0 & a5\n 15433: a3 = a5 & t1\n 15436: a4 = a1 if a2 != 0\n 15439: u64 [s1 + 0x180] = a4\n 15443: a1 = a4 <u 0x20\n 15446: a5 = a5 & t2\n 15449: a2 = a1\n 15451: a2 = 0 if a3 != 0\n 15453: a4 = a0 | a5\n 15456: a2 = 0 if a4 != 0\n 15458: jump @566 if t0 == a2\n      : @565 (gas: 1)\n 15461: jump @743\n      : @566 (gas: 14)\n 15464: a2 = a3 >u 0\n 15466: a1 = a1 ^ 0x1\n 15469: u64 [s1 + 0x178] = a3\n 15473: a1 = a2 if a3 != 0\n 15476: u64 [s1 + 0x190] = a0\n 15480: a2 = a0 >u 0\n 15482: a3 = a5 >u 0\n 15484: u64 [s1 + 0x188] = a5\n 15488: a3 = a2 if a5 == 0\n 15491: a3 = a1 if a4 == 0\n 15494: a0 = u64 [s1 + 0x80]\n 15498: a0 = a0 <u 0x20\n 15501: u64 [s1 + 0x20] = a0\n 15504: jump @574 if a3 == 0\n      : @567 (gas: 14)\n 15508: a0 = s1 + 0x1918\n 15512: a3 = s1 + 0x100\n 15516: a1 = u64 [a3 + 0x50]\n 15519: a4 = a0 + 0x300\n 15523: u64 [a4 + 0x88] = a1\n 15527: a1 = u64 [a3 + 0x40]\n 15530: u64 [a4 + 0x90] = a1\n 15534: a1 = u64 [a3 + 0x38]\n 15537: u64 [a4 + 0x98] = a1\n 15541: a1 = s1 + 0x1ca0\n 15545: a2 = u64 [a3 + 0x48]\n 15548: u64 [a4 + 0xa0] = a2\n 15552: a0 = 0\n 15554: ra = 588, jump @9\n      : @568 [@dyn 294] (gas: 3)\n 15560: a0 = u64 [s1 + 0xa8]\n 15564: a0 = i32 [a0]\n 15566: jump @570 if a0 >u 31\n      : @569 (gas: 3)\n 15570: a1 = u64 [s1 + 0xa8]\n 15574: u32 [a1 + 0] = 0x20\n 15577: fallthrough\n      : @570 (gas: 117)\n 15578: a0 = sp + 0xffffffffffffffe0\n 15581: a0 = a0 & 0xffffffffffffffe0\n 15584: u64 [s1 + 0x168] = a0\n 15588: sp = a0\n 15590: i32 a2 = a0 + 0\n 15592: a1 = 0x20\n 15595: a0 = u64 [s1 + 0xa0]\n 15599: ecalli 8 // 'hash_keccak_256'\n 15601: a0 = u64 [s1 + 0x80]\n 15605: a1 = a0 + 0x1f\n 15608: a0 = a1 <u a0\n 15611: a5 = u64 [s1 + 0x48]\n 15614: a2 = a5 + a0\n 15617: a3 = a2 <u a5\n 15620: a3 = a0 if a0 == 0\n 15623: a4 = u64 [s1 + 0x38]\n 15626: a3 = a3 + a4\n 15629: u64 [s1 + 0x160] = a3\n 15633: a3 = a3 << 0x3b\n 15636: a4 = a2 >> 0x5\n 15639: a4 = a4 | a3\n 15642: a0 = u64 [s1 + 0x168]\n 15646: t0 = u64 [a0 + 0x18]\n 15649: a2 = a2 << 0x3b\n 15652: a0 = u64 [a0 + 0x10]\n 15655: a1 = a1 >> 0x5\n 15658: a2 = a2 | a1\n 15661: t2 = reverse t0\n 15663: a0 = reverse a0\n 15665: a1 = u64 [s1 + 0x20]\n 15668: a1 = 0 if a5 != 0\n 15670: a3 = u64 [s1 + 0x110]\n 15674: a1 = 0 if a3 != 0\n 15676: a4 = 0 if a1 != 0\n 15678: a2 = 0 if a1 != 0\n 15680: t0 = t2 + a2\n 15683: a2 = t0 <u t2\n 15686: a5 = a0 + a2\n 15689: a4 = a4 + a5\n 15692: u64 [s1 + 0x198] = a4\n 15696: a5 = a4 ^ a0\n 15699: a3 = a4 <u a0\n 15702: a3 = a2 if a5 == 0\n 15705: u64 [s1 + 0x158] = a3\n 15709: a2 = u64 [s1 + 0x180]\n 15713: ra = a2 + 0x1f\n 15716: a4 = ra <u a2\n 15719: a3 = u64 [s1 + 0x178]\n 15723: a2 = a3 + a4\n 15726: a5 = a2 <u a3\n 15729: a5 = a4 if a4 == 0\n 15732: t1 = u64 [s1 + 0x190]\n 15736: t1 = t1 + a5\n 15739: a4 = t1 << 0x3b\n 15742: a3 = a2 >> 0x5\n 15745: a3 = a3 | a4\n 15748: a2 = a2 << 0x3b\n 15751: a4 = ra >> 0x5\n 15754: a2 = a2 | a4\n 15757: a2 = a2 + t2\n 15760: u64 [s1 + 0x178] = a2\n 15764: a4 = a2 <u t2\n 15767: t2 = t0\n 15769: a2 = a0 + a4\n 15772: a2 = a2 + a3\n 15775: a3 = a2 ^ a0\n 15778: u64 [s1 + 0x170] = a2\n 15782: a2 = a2 <u a0\n 15785: a2 = a4 if a3 == 0\n 15788: a4 = u64 [s1 + 0x160]\n 15792: a0 = u64 [s1 + 0x38]\n 15795: a0 = a4 <u a0\n 15798: a3 = u64 [s1 + 0x30]\n 15801: a0 = a0 + a3\n 15804: a3 = a4 >> 0x5\n 15807: a4 = a0 << 0x3b\n 15810: a3 = a3 | a4\n 15813: a4 = u64 [s1 + 0x168]\n 15817: t0 = u64 [a4]\n 15819: a4 = u64 [a4 + 0x8]\n 15822: a0 = a0 >> 0x5\n 15825: a3 = 0 if a1 != 0\n 15827: a0 = 0 if a1 != 0\n 15829: a1 = reverse a4\n 15831: a4 = reverse t0\n 15833: a0 = a0 + a4\n 15836: a3 = a3 + a1\n 15839: a5 = a3 <u a1\n 15842: a0 = a0 + a5\n 15845: ra = u64 [s1 + 0x158]\n 15849: ra = ra + a3\n 15852: a3 = ra <u a3\n 15855: t0 = a0 + a3\n 15858: a0 = u64 [s1 + 0x190]\n 15862: a0 = t1 <u a0\n 15865: a3 = u64 [s1 + 0x188]\n 15869: a0 = a0 + a3\n 15872: a3 = t1 >> 0x5\n 15875: a5 = a0 << 0x3b\n 15878: a3 = a3 | a5\n 15881: a0 = a0 >> 0x5\n 15884: a0 = a0 + a4\n 15887: a5 = s1 + 0x100\n 15891: a4 = u64 [a5 + 0x98]\n 15895: a3 = a3 + a1\n 15898: a1 = a3 <u a1\n 15901: a0 = a0 + a1\n 15904: a2 = a2 + a3\n 15907: u64 [a5 + 0x68] = a2\n 15910: a1 = a2 <u a3\n 15913: a0 = a0 + a1\n 15916: u64 [a5 + 0x60] = a0\n 15919: a0 = sp + 0xffffffffffffffe0\n 15922: t1 = a0 & 0xffffffffffffffe0\n 15925: sp = t1\n 15927: u64 [s1 + 0x158] = t1\n 15931: fallthrough\n      : @571 (gas: 24)\n 15932: a0 = u64 [s1 + 0x178]\n 15936: a0 = t2 <u a0\n 15939: a2 = u64 [s1 + 0x170]\n 15943: a1 = a4 ^ a2\n 15946: a2 = a4 <u a2\n 15949: a2 = a0 if a1 == 0\n 15952: a5 = u64 [s1 + 0x168]\n 15956: a0 = ra <u a5\n 15959: a3 = u64 [s1 + 0x160]\n 15963: a1 = t0 ^ a3\n 15966: a3 = t0 <u a3\n 15969: a3 = a0 if a1 == 0\n 15972: a0 = ra ^ a5\n 15975: a0 = a0 | a1\n 15978: a3 = a2 if a0 == 0\n 15981: u64 [s1 + 0x190] = t2\n 15985: u64 [t1] = t2\n 15987: u64 [s1 + 0x198] = a4\n 15991: u64 [t1 + 0x8] = a4\n 15994: u64 [s1 + 0x180] = ra\n 15998: u64 [t1 + 0x10] = ra\n 16001: u64 [s1 + 0x188] = t0\n 16005: u64 [t1 + 0x18] = t0\n 16008: jump @574 if a3 == 0\n      : @572 (gas: 8)\n 16011: a0 = s1 + 0x2118\n 16015: u64 [a0 + 1984] = 0\n 16019: u64 [a0 + 1976] = 0\n 16023: u64 [a0 + 1968] = 0\n 16027: u64 [a0 + 1960] = 0\n 16031: a1 = s1 + 0x28c0\n 16035: a0 = t1\n 16037: ra = 590, jump @12\n      : @573 [@dyn 295] (gas: 15)\n 16043: t1 = u64 [s1 + 0x158]\n 16047: t2 = u64 [s1 + 0x190]\n 16051: t2 = t2 + 0x1\n 16054: a0 = t2 <u 0x1\n 16057: a4 = u64 [s1 + 0x198]\n 16061: a4 = a4 + a0\n 16064: a0 = t2 | a4\n 16067: a0 = a0 <u 0x1\n 16070: a1 = u64 [s1 + 0x180]\n 16074: a0 = a0 + a1\n 16077: a1 = a0 <u a1\n 16080: t0 = u64 [s1 + 0x188]\n 16084: t0 = t0 + a1\n 16087: ra = a0\n 16089: jump @571\n      : @574 (gas: 9)\n 16092: a0 = u64 [s1 + 0x20]\n 16095: a0 = a0 ^ 0x1\n 16098: a1 = u64 [s1 + 0x48]\n 16101: a2 = u64 [s1 + 0x10]\n 16104: a0 = a2 if a1 != 0\n 16107: a1 = u64 [s1 + 0x18]\n 16110: a2 = u64 [s1 + 0x110]\n 16114: a0 = a1 if a2 != 0\n 16117: jump @583 if a0 == 0\n      : @575 (gas: 16)\n 16121: a0 = u64 [s1 + 0x80]\n 16125: a0 = a0 & 0xffffffffffffffe0\n 16128: u64 [s1 + 0x110] = a0\n 16132: a0 = s1 + 0x1918\n 16136: a1 = u64 [s1 + 0x150]\n 16140: a3 = a0 + 0x300\n 16144: u64 [a3 + 0x48] = a1\n 16147: a1 = u64 [s1 + 0x140]\n 16151: u64 [a3 + 0x50] = a1\n 16154: a1 = u64 [s1 + 0x138]\n 16158: u64 [a3 + 0x58] = a1\n 16161: a1 = s1 + 0x1c60\n 16165: a2 = u64 [s1 + 0x148]\n 16169: u64 [a3 + 0x60] = a2\n 16172: a0 = 0\n 16174: ra = 592, jump @9\n      : @576 [@dyn 296] (gas: 7)\n 16180: a0 = sp + 0xffffffffffffffe0\n 16183: a0 = a0 & 0xffffffffffffffe0\n 16186: u64 [s1 + 0x170] = a0\n 16190: sp = a0\n 16192: a1 = 0x20\n 16195: a0 = 0\n 16197: ra = 594, jump @21\n      : @577 [@dyn 297] (gas: 34)\n 16203: a1 = sp + 0xffffffffffffffe0\n 16206: a1 = a1 & 0xffffffffffffffe0\n 16209: u64 [s1 + 0x168] = a1\n 16213: sp = a1\n 16215: i32 a0 = a0 + 0\n 16217: i32 a2 = a1 + 0\n 16219: a1 = 0x20\n 16222: ecalli 8 // 'hash_keccak_256'\n 16224: u64 [s1 + 408] = 0x20\n 16229: a5 = 0\n 16231: u64 [s1 + 400] = 0\n 16235: u64 [s1 + 392] = 0\n 16239: u64 [s1 + 376] = 0\n 16243: u64 [s1 + 384] = 0\n 16247: a3 = u64 [s1 + 0x168]\n 16251: a0 = u64 [a3 + 0x18]\n 16254: a1 = u64 [a3 + 0x10]\n 16257: a2 = u64 [a3 + 0x8]\n 16260: a3 = u64 [a3]\n 16262: t1 = reverse a0\n 16264: t2 = reverse a1\n 16266: ra = reverse a2\n 16268: a2 = 0\n 16270: a4 = u64 [s1 + 0x178]\n 16274: a0 = reverse a3\n 16276: a3 = 0\n 16278: t0 = a0\n 16280: a1 = u64 [s1 + 0x170]\n 16284: u64 [a1 + 0x18] = a0\n 16287: u64 [s1 + 0x150] = ra\n 16291: u64 [a1 + 0x10] = ra\n 16294: u64 [a1 + 0x8] = t2\n 16297: u64 [a1] = t1\n 16299: fallthrough\n      : @578 (gas: 24)\n 16300: u64 [s1 + 0x168] = t0\n 16304: a0 = u64 [s1 + 0x110]\n 16308: u64 [s1 + 0x178] = a4\n 16312: a0 = a4 <u a0\n 16315: a4 = a0 ^ 0x1\n 16318: u64 [s1 + 0x158] = a3\n 16322: a4 = 0x1 if a3 != 0\n 16325: u64 [s1 + 0x160] = a2\n 16329: a0 = u64 [s1 + 0x180]\n 16333: a0 = a0 | a2\n 16336: a4 = 0x1 if a0 != 0\n 16339: a1 = u64 [s1 + 0x118]\n 16343: a0 = u64 [s1 + 0x198]\n 16347: a1 = a1 + a0\n 16350: a3 = u64 [s1 + 0x130]\n 16354: a3 = a3 + a5\n 16357: a2 = u64 [s1 + 0x120]\n 16361: a0 = u64 [s1 + 0x190]\n 16365: a2 = a2 + a0\n 16368: a0 = u64 [s1 + 0x128]\n 16372: ra = a5\n 16374: a5 = u64 [s1 + 0x188]\n 16378: a0 = a0 + a5\n 16381: jump @585 if a4 != 0\n      : @579 (gas: 23)\n 16385: a4 = u64 [s1 + 0x198]\n 16389: a4 = a1 <u a4\n 16392: a3 = a3 + a4\n 16395: t0 = a3 ^ ra\n 16398: u64 [s1 + 0x138] = ra\n 16402: a5 = a3 <u ra\n 16405: a5 = a4 if t0 == 0\n 16408: a5 = a5 + a2\n 16411: t0 = a5 <u a2\n 16414: a4 = u64 [s1 + 0x190]\n 16418: a2 = a2 <u a4\n 16421: a0 = a0 + a2\n 16424: a0 = a0 + t0\n 16427: a2 = a1 | a5\n 16430: a0 = a0 | a3\n 16433: a2 = a2 | a0\n 16436: a2 = a2 >> 0x20\n 16439: a0 = a0 | a5\n 16442: a0 = a0 << 0x20\n 16445: a0 = a0 | a2\n 16448: u64 [s1 + 0x148] = t1\n 16452: u64 [s1 + 0x140] = t2\n 16456: jump @643 if a0 != 0\n      : @580 (gas: 2)\n 16460: a0 = s1 + 0x1a00\n 16464: ra = 596, jump @7\n      : @581 [@dyn 298] (gas: 14)\n 16470: a3 = s1 + 0x1918\n 16474: a0 = u64 [a3 + 0x100]\n 16478: a1 = u64 [a3 + 0xf8]\n 16482: a2 = u64 [a3 + 0xf0]\n 16486: a3 = u64 [a3 + 0xe8]\n 16490: a4 = s1 + 0x2118\n 16494: a5 = a4 + 0x700\n 16498: u64 [a5 + 0xe0] = a0\n 16502: u64 [a5 + 0xd8] = a1\n 16506: u64 [a5 + 0xd0] = a2\n 16510: u64 [a5 + 0xc8] = a3\n 16514: a1 = s1 + 0x28e0\n 16518: a0 = u64 [s1 + 0x170]\n 16522: ra = 598, jump @12\n      : @582 [@dyn 299] (gas: 53)\n 16528: t1 = u64 [s1 + 0x148]\n 16532: t1 = t1 + 0x1\n 16535: a0 = t1 <u 0x1\n 16538: t2 = u64 [s1 + 0x140]\n 16542: t2 = t2 + a0\n 16545: a0 = t1 | t2\n 16548: a0 = a0 <u 0x1\n 16551: a1 = u64 [s1 + 0x150]\n 16555: ra = a1 + a0\n 16558: a1 = ra <u a1\n 16561: a0 = u64 [s1 + 0x168]\n 16565: a0 = a0 + a1\n 16568: a1 = u64 [s1 + 0x198]\n 16572: a2 = a1 + 0x20\n 16575: u64 [s1 + 0x168] = a2\n 16579: a3 = a2 <u a1\n 16582: a1 = u64 [s1 + 0x138]\n 16586: a2 = a1 + a3\n 16589: u64 [s1 + 0x148] = a2\n 16593: a4 = a2 <u a1\n 16596: a4 = a3 if a3 == 0\n 16599: a1 = u64 [s1 + 0x190]\n 16603: a3 = a1 + a4\n 16606: a4 = a3 <u a1\n 16609: a1 = u64 [s1 + 0x188]\n 16613: a1 = a1 + a4\n 16616: u64 [s1 + 0x188] = a1\n 16620: a1 = u64 [s1 + 0x178]\n 16624: a4 = a1 + 0x20\n 16627: a5 = a4 <u a1\n 16630: a2 = u64 [s1 + 0x158]\n 16634: a1 = a2 + a5\n 16637: a2 = a1 <u a2\n 16640: a2 = a5 if a5 == 0\n 16643: a5 = u64 [s1 + 0x160]\n 16647: a2 = a2 + a5\n 16650: a5 = a2 <u a5\n 16653: t0 = u64 [s1 + 0x180]\n 16657: t0 = t0 + a5\n 16660: u64 [s1 + 0x180] = t0\n 16664: a5 = u64 [s1 + 0x170]\n 16668: u64 [a5 + 0x8] = t2\n 16671: u64 [a5] = t1\n 16673: u64 [a5 + 0x10] = ra\n 16676: t0 = a0\n 16678: u64 [a5 + 0x18] = a0\n 16681: u64 [s1 + 0x150] = ra\n 16685: a0 = u64 [s1 + 0x168]\n 16689: u64 [s1 + 0x198] = a0\n 16693: a5 = u64 [s1 + 0x148]\n 16697: u64 [s1 + 0x190] = a3\n 16701: a3 = a1\n 16703: jump @578\n      : @583 (gas: 8)\n 16706: a0 = u64 [s1 + 0x80]\n 16710: a1 = u64 [s1 + 0x38]\n 16713: a0 = a0 | a1\n 16716: a1 = u64 [s1 + 0x48]\n 16719: a2 = u64 [s1 + 0x30]\n 16722: a1 = a1 | a2\n 16725: a0 = a0 | a1\n 16728: jump @593 if a0 != 0\n      : @584 (gas: 5)\n 16732: u64 [s1 + 384] = 0\n 16736: u64 [s1 + 376] = 0\n 16740: u64 [s1 + 392] = 0\n 16744: u64 [s1 + 400] = 0\n 16748: jump @596\n      : @585 (gas: 12)\n 16751: t2 = u64 [s1 + 0x190]\n 16755: t1 = u64 [s1 + 0x198]\n 16759: a4 = u64 [s1 + 0x80]\n 16763: a5 = u64 [s1 + 0x110]\n 16767: a4 = a4 ^ a5\n 16770: a5 = u64 [s1 + 0x38]\n 16773: t0 = a4 | a5\n 16776: a5 = u64 [s1 + 0x48]\n 16779: a4 = u64 [s1 + 0x30]\n 16782: a5 = a5 | a4\n 16785: a4 = t0 | a5\n 16788: jump @592 if a4 == 0\n      : @586 (gas: 18)\n 16792: a4 = a1 <u t1\n 16795: a3 = a3 + a4\n 16798: t0 = a3 ^ ra\n 16801: a5 = a3 <u ra\n 16804: a5 = a4 if t0 == 0\n 16807: a5 = a5 + a2\n 16810: a4 = a5 <u a2\n 16813: a2 = a2 <u t2\n 16816: a0 = a0 + a2\n 16819: a0 = a0 + a4\n 16822: a2 = a1 | a5\n 16825: a0 = a0 | a3\n 16828: a2 = a2 | a0\n 16831: a2 = a2 >> 0x20\n 16834: a0 = a0 | a5\n 16837: a0 = a0 << 0x20\n 16840: a0 = a0 | a2\n 16843: jump @643 if a0 != 0\n      : @587 (gas: 2)\n 16847: a0 = s1 + 0x1c40\n 16851: ra = 600, jump @7\n      : @588 [@dyn 300] (gas: 18)\n 16857: a0 = s1 + 0x1918\n 16861: a2 = a0 + 0x300\n 16865: a1 = u64 [a2 + 0x40]\n 16868: u64 [s1 + 0x190] = a1\n 16872: a1 = u64 [a2 + 0x38]\n 16875: u64 [s1 + 0x188] = a1\n 16879: a1 = u64 [a2 + 0x30]\n 16882: u64 [s1 + 0x180] = a1\n 16886: a0 = u64 [a2 + 0x28]\n 16889: u64 [s1 + 0x178] = a0\n 16893: a0 = u64 [s1 + 0x80]\n 16897: a0 = a0 << 0x3b\n 16900: a1 = a0 >> 0x38\n 16903: u64 [s1 + 0x198] = a1\n 16907: a2 = 0x80 - a1\n 16911: a0 = 0xffffffffffffffff\n 16914: a1 = 0xffffffffffffffff\n 16917: ra = 602, jump @1448\n      : @589 [@dyn 301] (gas: 6)\n 16923: u64 [s1 + 0x168] = a0\n 16927: u64 [s1 + 0x150] = a1\n 16931: a0 = 0xffffffffffffffff\n 16934: a1 = 0xffffffffffffffff\n 16937: a2 = u64 [s1 + 0x198]\n 16941: ra = 604, jump @1443\n      : @590 [@dyn 302] (gas: 10)\n 16947: u64 [s1 + 0x158] = a0\n 16951: u64 [s1 + 0x160] = a1\n 16955: a0 = u64 [s1 + 0x150]\n 16959: a0 = a0 | a1\n 16962: u64 [s1 + 0x150] = a0\n 16966: a0 = u64 [s1 + 0x198]\n 16970: a2 = a0 + 0xffffffffffffff80\n 16973: a0 = 0xffffffffffffffff\n 16976: a1 = 0xffffffffffffffff\n 16979: ra = 606, jump @1443\n      : @591 [@dyn 303] (gas: 30)\n 16985: a4 = u64 [s1 + 0x198]\n 16989: a2 = a4 <u 0x80\n 16993: a3 = u64 [s1 + 0x150]\n 16997: a1 = a3 if a2 != 0\n 17000: a5 = u64 [s1 + 0x158]\n 17004: a3 = u64 [s1 + 0x168]\n 17008: a3 = a3 | a5\n 17011: a3 = a0 if a2 == 0\n 17014: a1 = 0xffffffffffffffff if a4 == 0\n 17017: a3 = 0xffffffffffffffff if a4 == 0\n 17020: a4 = u64 [s1 + 0x160]\n 17024: a4 = 0 if a2 == 0\n 17026: a5 = 0 if a2 == 0\n 17028: a0 = u64 [s1 + 0x178]\n 17032: a0 = a0 & ~a3\n 17035: a2 = u64 [s1 + 0x180]\n 17039: a1 = a2 & ~a1\n 17042: a2 = u64 [s1 + 0x188]\n 17046: a2 = a2 & ~a5\n 17049: a3 = u64 [s1 + 0x190]\n 17053: a3 = a3 & ~a4\n 17056: a4 = s1 + 0x2918\n 17060: u64 [a4] = a3\n 17062: a3 = a4 + 0xffffffffffffff00\n 17066: u64 [a3 + 0xf8] = a2\n 17070: u64 [a3 + 0xf0] = a1\n 17074: u64 [a3 + 0xe8] = a0\n 17078: a1 = s1 + 0x2900\n 17082: a0 = u64 [s1 + 0x170]\n 17086: ra = 608, jump @12\n      : @592 [@dyn 304] (gas: 22)\n 17092: a2 = u64 [s1 + 0x38]\n 17095: a0 = a2 >> 0x3f\n 17098: a1 = u64 [s1 + 0x30]\n 17101: a1 = a1 << 0x1\n 17104: a0 = a0 | a1\n 17107: a3 = u64 [s1 + 0x48]\n 17110: a1 = a3 >> 0x3f\n 17113: a2 = a2 << 0x1\n 17116: a1 = a1 | a2\n 17119: a4 = u64 [s1 + 0x80]\n 17123: a2 = a4 >> 0x3f\n 17126: a3 = a3 << 0x1\n 17129: a2 = a2 | a3\n 17132: a3 = a4 << 0x1\n 17135: a3 = a3 + 0x1\n 17138: a4 = s1 + 0x2918\n 17142: u64 [a4 + 0x8] = a3\n 17145: u64 [a4 + 0x10] = a2\n 17148: u64 [a4 + 0x18] = a1\n 17151: u64 [a4 + 0x20] = a0\n 17154: a0 = 0x2920\n 17158: jump @600\n      : @593 (gas: 11)\n 17161: a3 = s1 + 0x100\n 17165: a0 = u64 [a3 + 0x28]\n 17168: a1 = u64 [a3 + 0x20]\n 17171: a0 = a0 | a1\n 17174: a1 = 0xffffffe0\n 17184: a2 = u64 [a3 + 0x18]\n 17187: a1 = a2 <u a1\n 17190: a2 = u64 [a3 + 0x30]\n 17193: a1 = 0 if a2 != 0\n 17195: a1 = 0 if a0 != 0\n 17197: jump @643 if a1 == 0\n      : @594 (gas: 4)\n 17201: a0 = u64 [s1 + 0x118]\n 17205: i32 a1 = a0 + 0x20\n 17208: a0 = s1 + 0x1c80\n 17212: ra = 610, jump @7\n      : @595 [@dyn 305] (gas: 12)\n 17218: a0 = s1 + 0x1918\n 17222: a2 = a0 + 0x300\n 17226: a1 = u64 [a2 + 0x80]\n 17230: a3 = s1 + 0x100\n 17234: u64 [a3 + 0x90] = a1\n 17238: a1 = u64 [a2 + 0x78]\n 17241: u64 [a3 + 0x88] = a1\n 17245: a1 = u64 [a2 + 0x70]\n 17248: u64 [a3 + 0x78] = a1\n 17251: a0 = u64 [a2 + 0x68]\n 17254: u64 [a3 + 0x80] = a0\n 17258: fallthrough\n      : @596 (gas: 24)\n 17259: a2 = u64 [s1 + 0x48]\n 17262: a0 = a2 >> 0x3f\n 17265: a3 = u64 [s1 + 0x38]\n 17268: a1 = a3 << 0x1\n 17271: a0 = a0 | a1\n 17274: u64 [s1 + 0x170] = a0\n 17278: a0 = a3 >> 0x3f\n 17281: a1 = u64 [s1 + 0x30]\n 17284: a1 = a1 << 0x1\n 17287: a0 = a0 | a1\n 17290: u64 [s1 + 0x168] = a0\n 17294: a3 = u64 [s1 + 0x80]\n 17298: a0 = a3 >> 0x3f\n 17301: a1 = a2 << 0x1\n 17304: a0 = a0 | a1\n 17307: u64 [s1 + 0x160] = a0\n 17311: a0 = a3 << 0x1\n 17314: u64 [s1 + 0x158] = a0\n 17318: a1 = a3 << 0x3\n 17321: u64 [s1 + 0x198] = a1\n 17325: i32 a2 = 0x80 - a1\n 17329: a0 = 0xffffffffffffffff\n 17332: a1 = 0xffffffffffffffff\n 17335: ra = 612, jump @1448\n      : @597 [@dyn 306] (gas: 7)\n 17341: u64 [s1 + 0x138] = a0\n 17345: u64 [s1 + 0x150] = a1\n 17349: a0 = u64 [s1 + 0x80]\n 17353: i32 a2 = a0 << 0x3\n 17356: a0 = 0xffffffffffffffff\n 17359: a1 = 0xffffffffffffffff\n 17362: ra = 614, jump @1443\n      : @598 [@dyn 307] (gas: 10)\n 17368: u64 [s1 + 0x148] = a0\n 17372: u64 [s1 + 0x140] = a1\n 17376: a1 = u64 [s1 + 0x138]\n 17380: a0 = a0 | a1\n 17383: u64 [s1 + 0x138] = a0\n 17387: a0 = u64 [s1 + 0x198]\n 17391: i32 a2 = a0 + 0xffffffffffffff80\n 17394: a0 = 0xffffffffffffffff\n 17397: a1 = 0xffffffffffffffff\n 17400: ra = 616, jump @1443\n      : @599 [@dyn 308] (gas: 37)\n 17406: a4 = u64 [s1 + 0x198]\n 17410: a2 = a4 <u 0x80\n 17414: a3 = u64 [s1 + 0x138]\n 17418: a0 = a3 if a2 != 0\n 17421: a5 = u64 [s1 + 0x140]\n 17425: a3 = u64 [s1 + 0x150]\n 17429: a3 = a3 | a5\n 17432: a3 = a1 if a2 == 0\n 17435: a0 = 0xffffffffffffffff if a4 == 0\n 17438: a3 = 0xffffffffffffffff if a4 == 0\n 17441: a5 = 0 if a2 == 0\n 17443: a4 = u64 [s1 + 0x148]\n 17447: a4 = 0 if a2 == 0\n 17449: a1 = u64 [s1 + 0x178]\n 17453: a1 = a1 & ~a3\n 17456: a2 = u64 [s1 + 0x180]\n 17460: a0 = a2 & ~a0\n 17463: a2 = u64 [s1 + 0x188]\n 17467: a2 = a2 & ~a4\n 17470: a3 = u64 [s1 + 0x190]\n 17474: a3 = a3 & ~a5\n 17477: a5 = s1 + 0x100\n 17481: a4 = u64 [a5 + 0x58]\n 17484: a0 = a0 | a4\n 17487: a4 = u64 [a5 + 0x60]\n 17490: a1 = a1 | a4\n 17493: a4 = u64 [a5 + 0x68]\n 17496: a3 = a3 | a4\n 17499: a4 = u64 [a5 + 0x70]\n 17502: a2 = a2 | a4\n 17505: a4 = s1 + 0x2918\n 17509: u64 [a4 + 0x38] = a2\n 17512: u64 [a4 + 0x40] = a3\n 17515: u64 [a4 + 0x30] = a1\n 17518: u64 [a4 + 0x28] = a0\n 17521: a0 = 0x2940\n 17525: fallthrough\n      : @600 (gas: 3)\n 17526: a1 = s1 + a0\n 17529: a0 = u64 [s1 + 0x40]\n 17532: ra = 618, jump @12\n      : @601 [@dyn 309] (gas: 8)\n 17538: a0 = sp + 0xffffffffffffffe0\n 17541: a5 = a0 & 0xffffffffffffffe0\n 17544: sp = a5\n 17546: a1 = u64 [s1 + 0x50]\n 17549: a0 = a1 + 0x2\n 17552: a1 = a0 <u a1\n 17555: a3 = u64 [s1 + 0x58]\n 17558: t0 = 620, jump @1417\n      : @602 [@dyn 310] (gas: 13)\n 17564: a1 = u64 [s1 + 0x68]\n 17567: a3 = a3 + a1\n 17570: a1 = a3 <u a1\n 17573: a4 = u64 [s1 + 0x60]\n 17576: a1 = a1 + a4\n 17579: u64 [s1 + 0x198] = a5\n 17583: u64 [a5 + 0x10] = a3\n 17586: u64 [a5 + 0x8] = a2\n 17589: u64 [a5] = a0\n 17591: u64 [a5 + 0x18] = a1\n 17594: a0 = s1 + 0x1c20\n 17598: a1 = u64 [s1 + 0x78]\n 17601: ra = 622, jump @7\n      : @603 [@dyn 311] (gas: 7)\n 17607: a0 = s1 + 0x1918\n 17611: a0 = u64 [a0 + 0x308]\n 17615: a0 = a0 & 0xffffffffffffffff\n 17618: u64 [s1 + 0x190] = a0\n 17622: a0 = s1 + 0x1c00\n 17626: a1 = u64 [s1 + 0x198]\n 17630: ra = 624, jump @11\n      : @604 [@dyn 312] (gas: 13)\n 17636: a2 = s1 + 0x1918\n 17640: a0 = u64 [a2 + 0x300]\n 17644: a1 = u64 [a2 + 0x2f8]\n 17648: a2 = u64 [a2 + 0x2f0]\n 17652: a3 = s1 + 0x2918\n 17656: a4 = u64 [s1 + 0x190]\n 17660: u64 [a3 + 0x48] = a4\n 17663: u64 [a3 + 0x60] = a0\n 17666: u64 [a3 + 0x58] = a1\n 17669: u64 [a3 + 0x50] = a2\n 17672: a1 = s1 + 0x2960\n 17676: a0 = u64 [s1 + 0x198]\n 17680: ra = 626, jump @12\n      : @605 [@dyn 313] (gas: 3)\n 17686: a0 = s1 + 0x1be0\n 17690: a1 = u64 [s1 + 0x28]\n 17693: ra = 628, jump @7\n      : @606 [@dyn 314] (gas: 1)\n 17699: t0 = 630, jump @1435\n      : @607 [@dyn 315] (gas: 12)\n 17705: a0 = u64 [a4 + 0xe0]\n 17709: a1 = u64 [a4 + 0xd0]\n 17713: a2 = u64 [a4 + 0xd8]\n 17717: a3 = u64 [a4 + 0xc8]\n 17721: a0 = a0 | a1\n 17724: a2 = a2 | a3\n 17727: a0 = a0 | a2\n 17730: a0 = a0 >u 0\n 17732: u64 [s1 + 0x190] = a0\n 17736: a0 = s1 + 0x1bc0\n 17740: a1 = u64 [s1 + 0x198]\n 17744: ra = 632, jump @11\n      : @608 [@dyn 316] (gas: 1)\n 17750: t0 = 634, jump @1435\n      : @609 [@dyn 317] (gas: 15)\n 17756: a0 = u64 [a4 + 0xb0]\n 17760: a1 = u64 [a4 + 0xa8]\n 17764: a2 = u64 [a4 + 0xc0]\n 17768: a3 = u64 [a4 + 0xb8]\n 17772: a0 = a0 & 0xffffffffffffff00\n 17776: a4 = u64 [s1 + 0x190]\n 17780: a0 = a0 | a4\n 17783: a4 = s1 + 0x2918\n 17787: u64 [a4 + 0x80] = a2\n 17791: u64 [a4 + 0x78] = a3\n 17794: u64 [a4 + 0x68] = a1\n 17797: u64 [a4 + 0x70] = a0\n 17800: a1 = s1 + 0x2980\n 17804: a0 = u64 [s1 + 0x198]\n 17808: ra = 636, jump @12\n      : @610 [@dyn 318] (gas: 5)\n 17814: a0 = u64 [s1 + 0xc8]\n 17818: ra = 0x27e\n 17822: ecalli 4 // 'caller'\n 17824: t0 = 0x280\n 17828: jump @1367\n      : @611 [@dyn 319] (gas: 1)\n 17831: t0 = 640, jump @1367\n      : @612 [@dyn 320] (gas: 8)\n 17837: u64 [a2 + 672] = 0\n 17841: a4 = a2 + 0x200\n 17845: u64 [a4 + 0x98] = a1\n 17849: u64 [a4 + 0x90] = a0\n 17853: a1 = s1 + 0x1ba0\n 17857: u64 [a4 + 0x88] = a3\n 17861: a0 = 0\n 17863: ra = 642, jump @9\n      : @613 [@dyn 321] (gas: 3)\n 17869: t0 = 0x284\n 17873: a1 = s1 + 0x1918\n 17877: fallthrough\n      : @614 [@dyn 322] (gas: 8)\n 17878: u64 [a1 + 640] = 0\n 17882: u64 [a1 + 632] = 0\n 17886: u64 [a1 + 616] = 0x1\n 17891: a2 = a1\n 17893: a0 = 0x20\n 17896: a1 = s1 + 0x1b80\n 17900: u64 [a2 + 624] = 0\n 17904: ra = 646, jump @9\n      : @615 [@dyn 323] (gas: 1)\n 17910: t0 = 648, jump @1413\n      : @616 [@dyn 324] (gas: 3)\n 17916: a2 = u64 [s1 + 0xa8]\n 17920: a0 = i32 [a2]\n 17922: jump @618 if a0 >u 63\n      : @617 (gas: 2)\n 17926: u32 [a2 + 0] = 0x40\n 17929: fallthrough\n      : @618 (gas: 11)\n 17930: a0 = sp + 0xffffffffffffffe0\n 17933: a0 = a0 & 0xffffffffffffffe0\n 17936: u64 [s1 + 0x190] = a0\n 17940: sp = a0\n 17942: i32 a2 = a0 + 0\n 17944: a1 = 0x40\n 17947: a0 = u64 [s1 + 0xa0]\n 17951: ra = 0x28a\n 17955: ecalli 8 // 'hash_keccak_256'\n 17957: t0 = 0x28c\n 17961: jump @1404\n      : @619 [@dyn 325] (gas: 1)\n 17964: t0 = 652, jump @1404\n      : @620 [@dyn 326] (gas: 2)\n 17970: a4 = a3 + 0x3\n 17973: t0 = 654, jump @1373\n      : @621 [@dyn 327] (gas: 7)\n 17979: a1 = u64 [s1 + 0x198]\n 17983: u64 [a1] = a4\n 17985: u64 [a1 + 0x8] = a5\n 17988: u64 [a1 + 0x10] = a2\n 17991: u64 [a1 + 0x18] = a0\n 17994: a0 = s1 + 0x1b60\n 17998: ra = 656, jump @11\n      : @622 [@dyn 328] (gas: 9)\n 18004: a0 = s1 + 0x1918\n 18008: a0 = u64 [a0 + 0x248]\n 18012: a0 = a0 + 0x1\n 18015: a1 = u64 [s1 + 0xe0]\n 18019: a0 = a0 & a1\n 18022: u64 [s1 + 0x190] = a0\n 18026: a0 = s1 + 0x1b40\n 18030: a1 = u64 [s1 + 0x198]\n 18034: ra = 658, jump @11\n      : @623 [@dyn 329] (gas: 1)\n 18040: t0 = 660, jump @1435\n      : @624 [@dyn 330] (gas: 19)\n 18046: a0 = u64 [a4 + 0x30]\n 18049: a1 = u64 [a4 + 0x38]\n 18052: a2 = u64 [a4 + 0x40]\n 18055: a3 = u64 [a4 + 0x28]\n 18058: a0 = a0 & 0xffffffffffffffff\n 18061: a1 = a1 & 0xffffffffffffffff\n 18064: a2 = a2 & 0xffffffffffffffff\n 18067: a4 = u64 [s1 + 0x70]\n 18070: a3 = a3 & a4\n 18073: a4 = u64 [s1 + 0x190]\n 18077: a3 = a3 | a4\n 18080: a4 = s1 + 0x2918\n 18084: u64 [a4 + 0xa0] = a2\n 18088: u64 [a4 + 0x98] = a1\n 18092: u64 [a4 + 0x90] = a0\n 18096: u64 [a4 + 0x88] = a3\n 18100: a1 = s1 + 0x29a0\n 18104: a0 = u64 [s1 + 0x198]\n 18108: ra = 662, jump @12\n      : @625 [@dyn 331] (gas: 3)\n 18114: a0 = s1 + 0x1b20\n 18118: a1 = 0x40\n 18121: ra = 664, jump @7\n      : @626 [@dyn 332] (gas: 18)\n 18127: a2 = s1 + 0x1918\n 18131: a5 = a2 + 0x200\n 18135: a3 = u64 [a5 + 0x20]\n 18138: a4 = u64 [a5 + 0x18]\n 18141: a1 = u64 [a5 + 0x10]\n 18144: a0 = u64 [a5 + 0x8]\n 18147: a5 = s1 + 0x100\n 18151: u64 [a5 + 0x98] = a1\n 18155: u64 [a5 + 0x88] = a3\n 18159: a3 = a3 | a1\n 18162: a1 = a0 | a4\n 18165: a1 = a1 | a3\n 18168: a1 = a1 >> 0x20\n 18171: u64 [a5 + 0x90] = a4\n 18175: a3 = a3 | a4\n 18178: a3 = a3 << 0x20\n 18181: a1 = a1 | a3\n 18184: jump @643 if a1 != 0\n      : @627 (gas: 7)\n 18188: u64 [a2 + 512] = 0\n 18192: u64 [a2 + 504] = 0\n 18196: u64 [a2 + 496] = 0\n 18200: a1 = s1 + 0x1b00\n 18204: u64 [a2 + 488] = 0x20\n 18209: u64 [s1 + 0x180] = a0\n 18213: ra = 666, jump @9\n      : @628 [@dyn 333] (gas: 14)\n 18219: a3 = s1 + 0x100\n 18223: a0 = u64 [a3 + 0x88]\n 18227: a1 = u64 [a3 + 0x90]\n 18231: a1 = a1 | a0\n 18234: a0 = 0x100000000\n 18244: u64 [a3 + 0x78] = a0\n 18247: a0 = 0xffffffe0\n 18257: a2 = u64 [a3 + 0x80]\n 18261: a0 = a2 <u a0\n 18264: a2 = u64 [a3 + 0x98]\n 18268: a0 = 0 if a2 != 0\n 18270: u64 [a3 + 0x70] = a1\n 18273: a0 = 0 if a1 != 0\n 18275: jump @643 if a0 == 0\n      : @629 (gas: 14)\n 18279: a0 = u64 [s1 + 0x180]\n 18283: i32 a0 = a0 + 0x20\n 18286: a2 = s1 + 0x1918\n 18290: a1 = u64 [s1 + 0xc0]\n 18294: a4 = a2 + 0x100\n 18298: u64 [a4 + 0xc8] = a1\n 18302: a1 = u64 [s1 + 0xb0]\n 18306: u64 [a4 + 0xd0] = a1\n 18310: a1 = u64 [s1 + 0xb8]\n 18314: u64 [a4 + 0xd8] = a1\n 18318: a1 = s1 + 0x1ae0\n 18322: a3 = u64 [s1 + 0xf0]\n 18326: u64 [a4 + 0xe0] = a3\n 18330: ra = 668, jump @9\n      : @630 [@dyn 334] (gas: 9)\n 18336: a0 = u64 [s1 + 0x178]\n 18340: a0 = a0 + 0xffffffffffffffdc\n 18343: a1 = u64 [s1 + 0xd0]\n 18347: a0 = a1 <u a0\n 18350: a1 = u64 [s1 + 0xd8]\n 18354: a0 = 0 if a1 != 0\n 18356: a1 = u64 [s1 + 0x98]\n 18360: a0 = 0 if a1 != 0\n 18362: jump @643 if a0 == 0\n      : @631 (gas: 12)\n 18366: a0 = u64 [s1 + 0xc0]\n 18370: a2 = u64 [s1 + 0xb8]\n 18374: a0 = a0 | a2\n 18377: a1 = u64 [s1 + 0xf0]\n 18381: a3 = u64 [s1 + 0xb0]\n 18385: a1 = a1 | a3\n 18388: a0 = a0 | a1\n 18391: a0 = a0 >> 0x20\n 18394: a1 = a1 | a2\n 18397: a1 = a1 << 0x20\n 18400: a0 = a0 | a1\n 18403: jump @643 if a0 != 0\n      : @632 (gas: 10)\n 18407: a1 = 0xffffffc0\n 18417: a2 = s1 + 0x100\n 18421: a0 = u64 [a2 + 0x80]\n 18425: u64 [a2 + 0x78] = a1\n 18428: a0 = a0 <u a1\n 18431: a1 = u64 [a2 + 0x98]\n 18435: a0 = 0 if a1 != 0\n 18437: a1 = u64 [a2 + 0x70]\n 18440: a0 = 0 if a1 != 0\n 18442: jump @643 if a0 == 0\n      : @633 (gas: 4)\n 18446: a0 = u64 [s1 + 0x180]\n 18450: i32 a0 = a0 + 0x40\n 18453: a1 = u64 [s1 + 0x90]\n 18457: ra = 670, jump @21\n      : @634 [@dyn 335] (gas: 5)\n 18463: i32 a0 = a0 + 0\n 18465: a1 = u64 [s1 + 0x90]\n 18469: a2 = u64 [s1 + 0x88]\n 18473: ecalli 1 // 'call_data_copy'\n 18475: fallthrough\n      : @635 (gas: 28)\n 18476: a1 = u64 [s1 + 0xc0]\n 18480: a0 = u64 [s1 + 0x180]\n 18484: a0 = a0 + a1\n 18487: a1 = a0 <u a1\n 18490: a4 = u64 [s1 + 0xb0]\n 18494: a2 = u64 [s1 + 0x198]\n 18498: a2 = a2 + a4\n 18501: a2 = a2 + a1\n 18504: a3 = a2 ^ a4\n 18507: a4 = a2 <u a4\n 18510: a4 = a1 if a3 == 0\n 18513: a1 = u64 [s1 + 0xf0]\n 18517: a3 = u64 [s1 + 0x188]\n 18521: a1 = a1 + a3\n 18524: a5 = u64 [s1 + 0xb8]\n 18528: a3 = u64 [s1 + 0x190]\n 18532: a3 = a3 + a5\n 18535: a5 = a3 <u a5\n 18538: a1 = a1 + a5\n 18541: a4 = a4 + a3\n 18544: a3 = a4 <u a3\n 18547: a1 = a1 + a3\n 18550: a1 = a1 | a4\n 18553: a3 = u64 [s1 + 0x178]\n 18557: a3 = a0 <u a3\n 18560: a3 = 0 if a2 != 0\n 18562: a3 = 0 if a1 != 0\n 18564: jump @643 if a3 == 0\n      : @636 (gas: 8)\n 18568: i32 a0 = a0 + 0x40\n 18571: a2 = s1 + 0x1918\n 18575: u64 [a2 + 448] = 0\n 18579: u64 [a2 + 440] = 0\n 18583: u64 [a2 + 432] = 0\n 18587: a1 = s1 + 0x1ac0\n 18591: u64 [a2 + 424] = 0\n 18595: ra = 672, jump @9\n      : @637 [@dyn 336] (gas: 6)\n 18601: a0 = u64 [s1 + 0xc8]\n 18605: ra = 0x2a2\n 18609: ecalli 4 // 'caller'\n 18611: a2 = u64 [s1 + 0xe8]\n 18615: t0 = 0x2a4\n 18619: jump @1365\n      : @638 [@dyn 337] (gas: 2)\n 18622: a2 = u64 [s1 + 0xe8]\n 18626: t0 = 676, jump @1365\n      : @639 [@dyn 338] (gas: 36)\n 18632: t0 = a1 | a0\n 18635: a3 = a3 >> 0x20\n 18638: a1 = reverse a2\n 18640: a2 = a1 << 0x20\n 18643: a2 = a2 | a3\n 18646: a3 = a1 >> 0x20\n 18649: a1 = u64 [s1 + 0xc0]\n 18653: a1 = a1 + 0x1f\n 18656: a1 = a1 & 0xe0\n 18660: a1 = a1 + 0x40\n 18663: a4 = u64 [0x20020]\n 18668: a5 = u64 [0x20028]\n 18673: a0 = s1 + 0x1918\n 18677: u64 [a0 + 0x1a0] = a4\n 18681: a4 = u64 [0x20030]\n 18686: u64 [a0 + 0x198] = a5\n 18690: u64 [a0 + 352] = 0\n 18694: a5 = u64 [s1 + 0x108]\n 18698: u64 [a0 + 0x158] = a5\n 18702: u64 [a0 + 0x190] = a4\n 18706: a4 = u64 [0x20038]\n 18711: a5 = u64 [s1 + 0xf8]\n 18715: u64 [a0 + 0x150] = a5\n 18719: a5 = u64 [s1 + 0x100]\n 18723: u64 [a0 + 0x148] = a5\n 18727: u64 [a0 + 384] = 0\n 18731: a5 = a0 + 0x100\n 18735: u64 [a5 + 0x88] = a4\n 18739: u64 [a5 + 0x78] = a3\n 18742: u64 [a5 + 0x70] = a2\n 18745: a2 = s1 + 0x1aa0\n 18749: a3 = s1 + 0x1a80\n 18753: a4 = s1 + 0x1a60\n 18757: u64 [a0 + 0x168] = t0\n 18761: a0 = u64 [s1 + 0x180]\n 18765: ra = 678, jump @15\n      : @640 [@dyn 339] (gas: 3)\n 18771: a0 = s1 + 0x1a40\n 18775: a1 = 0x40\n 18778: ra = 680, jump @7\n      : @641 [@dyn 340] (gas: 3)\n 18784: t0 = 0x2aa\n 18788: a3 = s1 + 0x1918\n 18792: fallthrough\n      : @642 [@dyn 341] (gas: 13)\n 18793: a5 = a3 + 0x100\n 18797: a0 = u64 [a5 + 0x40]\n 18800: a1 = u64 [a5 + 0x38]\n 18803: a2 = u64 [a5 + 0x30]\n 18806: a4 = u64 [a5 + 0x28]\n 18809: a0 = a0 | a2\n 18812: a2 = a4 | a1\n 18815: a2 = a2 | a0\n 18818: a2 = a2 >> 0x20\n 18821: a0 = a0 | a1\n 18824: a0 = a0 << 0x20\n 18827: a0 = a0 | a2\n 18830: jump @746 if a0 == 0\n      : @643 (gas: 1)\n 18834: trap\n      : @644 (gas: 6)\n 18835: a1 = 0x20180\n 18840: i32 a1 = a1 + 0\n 18842: a0 = 0x1\n 18845: a2 = 0\n 18847: ecalli 13 // 'seal_return'\n 18849: jump @905\n      : @645 (gas: 6)\n 18852: a1 = 0x20180\n 18857: i32 a1 = a1 + 0\n 18859: a0 = 0x1\n 18862: a2 = 0\n 18864: ecalli 13 // 'seal_return'\n 18866: jump @905\n      : @646 (gas: 6)\n 18869: a1 = 0x20180\n 18874: i32 a1 = a1 + 0\n 18876: a0 = 0x1\n 18879: a2 = 0\n 18881: ecalli 13 // 'seal_return'\n 18883: jump @905\n      : @647 (gas: 6)\n 18886: a1 = 0x20180\n 18891: i32 a1 = a1 + 0\n 18893: a0 = 0x1\n 18896: a2 = 0\n 18898: ecalli 13 // 'seal_return'\n 18900: jump @905\n      : @648 (gas: 8)\n 18903: u64 [s1 + 1040] = 0\n 18907: u64 [s1 + 1032] = 0\n 18911: u64 [s1 + 1024] = 0\n 18915: a0 = 0x2c5211c600000000\n 18925: a1 = s1 + 0x400\n 18929: u64 [s1 + 0x418] = a0\n 18933: a0 = 0\n 18935: ra = 684, jump @9\n      : @649 [@dyn 342] (gas: 2)\n 18941: a1 = i32 [0x20170]\n 18946: jump @651 if a1 >u 31\n      : @650 (gas: 3)\n 18950: u32 [0x20170] = 0x20\n 18956: a1 = 0x20180\n 18961: jump @723\n      : @651 (gas: 2)\n 18964: a1 = 0x20180\n 18969: jump @723\n      : @652 (gas: 9)\n 18972: u64 [s1 + 1072] = 0\n 18976: u64 [s1 + 1064] = 0\n 18980: u64 [s1 + 1056] = 0\n 18984: a0 = 0xf4d678b800000000\n 18994: a1 = s1 + 0x420\n 18998: u64 [s1 + 0x438] = a0\n 19002: a0 = 0\n 19004: ra = 0x2b6\n 19008: jump @9\n      : @653 (gas: 6)\n 19011: a1 = 0x20180\n 19016: i32 a1 = a1 + 0\n 19018: a0 = 0x1\n 19021: a2 = 0\n 19023: ecalli 13 // 'seal_return'\n 19025: jump @905\n      : @654 (gas: 6)\n 19028: a1 = 0x20180\n 19033: i32 a1 = a1 + 0\n 19035: a0 = 0x1\n 19038: a2 = 0\n 19040: ecalli 13 // 'seal_return'\n 19042: jump @905\n      : @655 (gas: 6)\n 19045: a1 = 0x20180\n 19050: i32 a1 = a1 + 0\n 19052: a0 = 0x1\n 19055: a2 = 0\n 19057: ecalli 13 // 'seal_return'\n 19059: jump @905\n      : @656 (gas: 6)\n 19062: a1 = 0x20180\n 19067: i32 a1 = a1 + 0\n 19069: a0 = 0x1\n 19072: a2 = 0\n 19074: ecalli 13 // 'seal_return'\n 19076: jump @905\n      : @657 (gas: 6)\n 19079: a1 = 0x20180\n 19084: i32 a1 = a1 + 0\n 19086: a0 = 0x1\n 19089: a2 = 0\n 19091: ecalli 13 // 'seal_return'\n 19093: jump @905\n      : @658 (gas: 6)\n 19096: a1 = 0x20180\n 19101: i32 a1 = a1 + 0\n 19103: a0 = 0x1\n 19106: a2 = 0\n 19108: ecalli 13 // 'seal_return'\n 19110: jump @905\n      : @659 (gas: 9)\n 19113: a0 = s1 + 0x1918\n 19117: u64 [a0 + 24] = 0\n 19120: u64 [a0 + 16] = 0\n 19123: u64 [a0 + 8] = 0\n 19126: a2 = a0\n 19128: t0 = 0x2ae\n 19132: a0 = 0x4e487b7100000000\n 19142: a1 = 0x2000\n 19146: fallthrough\n      : @660 [@dyn 343] (gas: 5)\n 19147: i32 a1 = a1 + 0xfffffffffffff920\n 19151: a1 = a1 + s1\n 19154: u64 [a2 + 0x20] = a0\n 19157: a0 = 0\n 19159: ra = 688, jump @9\n      : @661 [@dyn 344] (gas: 3)\n 19165: t0 = 0x2b2\n 19169: a1 = s1 + 0x1918\n 19173: fallthrough\n      : @662 [@dyn 345] (gas: 9)\n 19174: u64 [a1 + 0] = 0\n 19176: u64 [a1 + 4294967288] = 0\n 19179: u64 [a1 + 4294967272] = 0x11\n 19183: a2 = a1\n 19185: a0 = 0x4\n 19188: a1 = s1 + 0x1900\n 19192: u64 [a2 + 4294967280] = 0\n 19195: ra = 0x2d0\n 19199: jump @9\n      : @663 (gas: 6)\n 19202: a1 = 0x20180\n 19207: i32 a1 = a1 + 0\n 19209: a0 = 0x1\n 19212: a2 = 0\n 19214: ecalli 13 // 'seal_return'\n 19216: jump @905\n      : @664 (gas: 6)\n 19219: a1 = 0x20180\n 19224: i32 a1 = a1 + 0\n 19226: a0 = 0x1\n 19229: a2 = 0\n 19231: ecalli 13 // 'seal_return'\n 19233: jump @905\n      : @665 (gas: 6)\n 19236: a1 = 0x20180\n 19241: i32 a1 = a1 + 0\n 19243: a0 = 0x1\n 19246: a2 = 0\n 19248: ecalli 13 // 'seal_return'\n 19250: jump @905\n      : @666 (gas: 6)\n 19253: a1 = 0x20180\n 19258: i32 a1 = a1 + 0\n 19260: a0 = 0x1\n 19263: a2 = 0\n 19265: ecalli 13 // 'seal_return'\n 19267: jump @905\n      : @667 (gas: 6)\n 19270: a1 = 0x20180\n 19275: i32 a1 = a1 + 0\n 19277: a0 = 0x1\n 19280: a2 = 0\n 19282: ecalli 13 // 'seal_return'\n 19284: jump @905\n      : @668 (gas: 8)\n 19287: u64 [s1 + 1392] = 0\n 19291: u64 [s1 + 1384] = 0\n 19295: u64 [s1 + 1376] = 0\n 19299: a0 = 0x2c5211c600000000\n 19309: a1 = s1 + 0x560\n 19313: u64 [s1 + 0x578] = a0\n 19317: a0 = 0\n 19319: ra = 692, jump @9\n      : @669 [@dyn 346] (gas: 2)\n 19325: a1 = i32 [0x20170]\n 19330: jump @671 if a1 >u 31\n      : @670 (gas: 3)\n 19334: u32 [0x20170] = 0x20\n 19340: a1 = 0x20180\n 19345: jump @723\n      : @671 (gas: 2)\n 19348: a1 = 0x20180\n 19353: jump @723\n      : @672 (gas: 8)\n 19356: u64 [s1 + 1424] = 0\n 19360: u64 [s1 + 1416] = 0\n 19364: u64 [s1 + 1408] = 0\n 19368: a0 = 0xf4d678b800000000\n 19378: a1 = s1 + 0x580\n 19382: u64 [s1 + 0x598] = a0\n 19386: a0 = 0\n 19388: ra = 694, jump @9\n      : @673 [@dyn 347] (gas: 3)\n 19394: a0 = u64 [s1 + 0x140]\n 19398: a0 = i32 [a0]\n 19400: jump @707 if a0 >u 31\n      : @674 (gas: 3)\n 19405: a1 = u64 [s1 + 0x140]\n 19409: u32 [a1 + 0] = 0x20\n 19412: jump @707\n      : @675 (gas: 6)\n 19415: a1 = 0x20180\n 19420: i32 a1 = a1 + 0\n 19422: a0 = 0x1\n 19425: a2 = 0\n 19427: ecalli 13 // 'seal_return'\n 19429: jump @905\n      : @676 (gas: 9)\n 19432: a2 = s1 + 0x1918\n 19436: u64 [a2 + 1976] = 0\n 19440: u64 [a2 + 1968] = 0\n 19444: a0 = 0x2c5211c600000000\n 19454: u64 [a2 + 0x7c0] = a0\n 19458: a1 = s1 + 0x20c0\n 19462: u64 [a2 + 1960] = 0\n 19466: a0 = 0\n 19468: ra = 696, jump @9\n      : @677 [@dyn 348] (gas: 2)\n 19474: a1 = i32 [0x20170]\n 19479: jump @679 if a1 >u 31\n      : @678 (gas: 3)\n 19483: u32 [0x20170] = 0x20\n 19489: a1 = 0x20180\n 19494: jump @723\n      : @679 (gas: 2)\n 19497: a1 = 0x20180\n 19502: jump @723\n      : @680 (gas: 8)\n 19505: a0 = s1 + 0x1918\n 19509: u64 [a0 + 2040] = 0\n 19513: u64 [a0 + 2032] = 0\n 19517: u64 [a0 + 2024] = 0\n 19521: t0 = 0x2ba\n 19525: a0 = 0x4e487b7100000000\n 19535: a1 = 0x2000\n 19539: fallthrough\n      : @681 [@dyn 349] (gas: 6)\n 19540: i32 a1 = a1 + 0x100\n 19544: a1 = a1 + s1\n 19547: a2 = s1 + 0x2118\n 19551: u64 [a2] = a0\n 19553: a0 = 0\n 19555: ra = 700, jump @9\n      : @682 [@dyn 350] (gas: 3)\n 19561: t0 = 0x2be\n 19565: a1 = s1 + 0x1918\n 19569: fallthrough\n      : @683 [@dyn 351] (gas: 8)\n 19570: u64 [a1 + 2016] = 0\n 19574: u64 [a1 + 2008] = 0\n 19578: u64 [a1 + 1992] = 0x11\n 19583: a2 = a1\n 19585: a0 = 0x4\n 19588: a1 = s1 + 0x20e0\n 19592: u64 [a2 + 2000] = 0\n 19596: ra = 704, jump @9\n      : @684 [@dyn 352] (gas: 3)\n 19602: a0 = u64 [s1 + 0x150]\n 19606: a0 = i32 [a0]\n 19608: jump @686 if a0 >u 63\n      : @685 (gas: 3)\n 19612: a1 = u64 [s1 + 0x150]\n 19616: u32 [a1 + 0] = 0x40\n 19619: fallthrough\n      : @686 (gas: 6)\n 19620: a0 = 0x1\n 19623: a2 = 0x24\n 19626: a1 = u64 [s1 + 0x160]\n 19630: ra = 0x2c2\n 19634: ecalli 13 // 'seal_return'\n 19636: fallthrough\n      : @687 [@dyn 353] (gas: 1)\n 19637: jump @724 if a0 != 2618616686\n      : @688 (gas: 11)\n 19645: a0 = s1 + 0x2118\n 19649: u64 [a0 + 1504] = 0\n 19653: u64 [a0 + 1496] = 0\n 19657: u64 [a0 + 1488] = 0\n 19661: u64 [a0 + 1480] = 0\n 19665: a0 = s1 + 0x2000\n 19669: i32 a0 = a0 + 0x6e0\n 19673: ra = 0x2c4\n 19677: ecalli 16 // 'value_transferred'\n 19679: t0 = 0x2c6\n 19683: jump @1398\n      : @689 [@dyn 354] (gas: 1)\n 19686: t0 = 710, jump @1398\n      : @690 [@dyn 355] (gas: 8)\n 19692: a0 = u64 [a4 + 0xd8]\n 19696: a1 = u64 [a4 + 0xe0]\n 19700: a2 = u64 [a4 + 0xd0]\n 19704: a3 = u64 [a4 + 0xc8]\n 19708: a1 = a1 | a2\n 19711: a0 = a0 | a3\n 19714: a0 = a0 | a1\n 19717: jump @747 if a0 == 0\n      : @691 (gas: 6)\n 19721: a1 = 0x20180\n 19726: i32 a1 = a1 + 0\n 19728: a0 = 0x1\n 19731: a2 = 0\n 19733: ecalli 13 // 'seal_return'\n 19735: jump @905\n      : @692 (gas: 6)\n 19738: a1 = 0x20180\n 19743: i32 a1 = a1 + 0\n 19745: a0 = 0x1\n 19748: a2 = 0\n 19750: ecalli 13 // 'seal_return'\n 19752: jump @905\n      : @693 (gas: 6)\n 19755: a1 = 0x20180\n 19760: i32 a1 = a1 + 0\n 19762: a0 = 0x1\n 19765: a2 = 0\n 19767: ecalli 13 // 'seal_return'\n 19769: jump @905\n      : @694 (gas: 6)\n 19772: a1 = 0x20180\n 19777: i32 a1 = a1 + 0\n 19779: a0 = 0x1\n 19782: a2 = 0\n 19784: ecalli 13 // 'seal_return'\n 19786: jump @905\n      : @695 (gas: 6)\n 19789: a1 = 0x20180\n 19794: i32 a1 = a1 + 0\n 19796: a0 = 0x1\n 19799: a2 = 0\n 19801: ecalli 13 // 'seal_return'\n 19803: jump @905\n      : @696 (gas: 6)\n 19806: a1 = 0x20180\n 19811: i32 a1 = a1 + 0\n 19813: a0 = 0x1\n 19816: a2 = 0\n 19818: ecalli 13 // 'seal_return'\n 19820: jump @905\n      : @697 (gas: 6)\n 19823: a1 = 0x20180\n 19828: i32 a1 = a1 + 0\n 19830: a0 = 0x1\n 19833: a2 = 0\n 19835: ecalli 13 // 'seal_return'\n 19837: jump @905\n      : @698 (gas: 6)\n 19840: a1 = 0x20180\n 19845: i32 a1 = a1 + 0\n 19847: a0 = 0x1\n 19850: a2 = 0\n 19852: ecalli 13 // 'seal_return'\n 19854: jump @905\n      : @699 (gas: 6)\n 19857: a1 = 0x20180\n 19862: i32 a1 = a1 + 0\n 19864: a0 = 0x1\n 19867: a2 = 0\n 19869: ecalli 13 // 'seal_return'\n 19871: jump @905\n      : @700 (gas: 10)\n 19874: a2 = s1 + 0x7ff\n 19878: a2 = a2 + 0x119\n 19882: u64 [a2 + 2008] = 0\n 19886: u64 [a2 + 2000] = 0\n 19890: a0 = 0x2c5211c600000000\n 19900: u64 [a2 + 0x7e0] = a0\n 19904: a1 = s1 + 0x10e0\n 19908: u64 [a2 + 1992] = 0\n 19912: a0 = 0\n 19914: ra = 712, jump @9\n      : @701 [@dyn 356] (gas: 2)\n 19920: a1 = i32 [0x20170]\n 19925: jump @703 if a1 >u 31\n      : @702 (gas: 3)\n 19929: u32 [0x20170] = 0x20\n 19935: a1 = 0x20180\n 19940: jump @723\n      : @703 (gas: 2)\n 19943: a1 = 0x20180\n 19948: jump @723\n      : @704 (gas: 11)\n 19951: a0 = s1 + 0x7ff\n 19955: a0 = a0 + 0x119\n 19959: u64 [a0 + 2040] = 0\n 19963: u64 [a0 + 2032] = 0\n 19967: u64 [a0 + 2024] = 0\n 19971: a0 = 0xf4d678b800000000\n 19981: a1 = s1 + 0x1100\n 19985: a2 = s1 + 0x1118\n 19989: u64 [a2] = a0\n 19991: a0 = 0\n 19993: ra = 714, jump @9\n      : @705 [@dyn 357] (gas: 3)\n 19999: a0 = u64 [s1 + 0x138]\n 20003: a0 = i32 [a0]\n 20005: jump @707 if a0 >u 31\n      : @706 (gas: 3)\n 20009: a1 = u64 [s1 + 0x138]\n 20013: u32 [a1 + 0] = 0x20\n 20016: fallthrough\n      : @707 (gas: 5)\n 20017: a0 = 0x1\n 20020: a2 = 0x4\n 20023: a1 = u64 [s1 + 0x148]\n 20027: ecalli 13 // 'seal_return'\n 20029: fallthrough\n      : @708 (gas: 6)\n 20030: a1 = 0x20180\n 20035: i32 a1 = a1 + 0\n 20037: a0 = 0x1\n 20040: a2 = 0\n 20042: ecalli 13 // 'seal_return'\n 20044: jump @905\n      : @709 (gas: 6)\n 20047: a1 = 0x20180\n 20052: i32 a1 = a1 + 0\n 20054: a0 = 0x1\n 20057: a2 = 0\n 20059: ecalli 13 // 'seal_return'\n 20061: jump @905\n      : @710 (gas: 11)\n 20064: a2 = s1 + 0x7ff\n 20068: a2 = a2 + 0x119\n 20072: u64 [a2 + 1080] = 0\n 20076: u64 [a2 + 1072] = 0\n 20080: a0 = 0xd5b25b6300000000\n 20090: u64 [a2 + 0x440] = a0\n 20094: a1 = s1 + 0x7ff\n 20098: a1 = a1 + 0x541\n 20102: u64 [a2 + 1064] = 0\n 20106: a0 = 0\n 20108: ra = 716, jump @9\n      : @711 [@dyn 358] (gas: 2)\n 20114: a1 = i32 [0x20170]\n 20119: jump @713 if a1 >u 31\n      : @712 (gas: 3)\n 20123: u32 [0x20170] = 0x20\n 20129: a1 = 0x20180\n 20134: jump @723\n      : @713 (gas: 2)\n 20137: a1 = 0x20180\n 20142: jump @723\n      : @714 (gas: 8)\n 20145: u64 [t0 + 88] = 0\n 20148: u64 [t0 + 80] = 0\n 20151: u64 [t0 + 72] = 0\n 20154: a0 = 0x4e487b7100000000\n 20164: a1 = s1 + 0x1960\n 20168: u64 [t0 + 0x60] = a0\n 20171: a0 = 0\n 20173: ra = 718, jump @9\n      : @715 [@dyn 359] (gas: 9)\n 20179: a1 = s1 + 0x1918\n 20183: u64 [a1 + 64] = 0\n 20186: u64 [a1 + 56] = 0\n 20189: u64 [a1 + 40] = 0x41\n 20193: a2 = a1\n 20195: a0 = 0x4\n 20198: a1 = s1 + 0x1940\n 20202: u64 [a2 + 48] = 0\n 20205: ra = 720, jump @9\n      : @716 [@dyn 360] (gas: 3)\n 20211: a0 = u64 [s1 + 0xa8]\n 20215: a0 = i32 [a0]\n 20217: jump @718 if a0 >u 63\n      : @717 (gas: 3)\n 20221: a1 = u64 [s1 + 0xa8]\n 20225: u32 [a1 + 0] = 0x40\n 20228: fallthrough\n      : @718 (gas: 5)\n 20229: a0 = 0x1\n 20232: a2 = 0x24\n 20235: a1 = u64 [s1 + 0xa0]\n 20239: ecalli 13 // 'seal_return'\n 20241: fallthrough\n      : @719 (gas: 9)\n 20242: a2 = s1 + 0x1918\n 20246: u64 [a2 + 1848] = 0\n 20250: u64 [a2 + 1840] = 0\n 20254: a0 = 0xcc67c13b00000000\n 20264: u64 [a2 + 0x740] = a0\n 20268: a1 = s1 + 0x2040\n 20272: u64 [a2 + 1832] = 0\n 20276: a0 = 0\n 20278: ra = 722, jump @9\n      : @720 [@dyn 361] (gas: 2)\n 20284: a1 = i32 [0x20170]\n 20289: jump @722 if a1 >u 31\n      : @721 (gas: 3)\n 20293: u32 [0x20170] = 0x20\n 20299: a1 = 0x20180\n 20304: jump @723\n      : @722 (gas: 2)\n 20306: a1 = 0x20180\n 20311: fallthrough\n      : @723 (gas: 6)\n 20312: i32 a1 = a1 + 0\n 20314: a0 = 0x1\n 20317: a2 = 0x4\n 20320: ra = 0x2d4\n 20324: ecalli 13 // 'seal_return'\n 20326: fallthrough\n      : @724 [@dyn 362] (gas: 1)\n 20327: jump @729 if a0 != 2685688103\n      : @725 (gas: 11)\n 20334: a0 = s1 + 0x2118\n 20338: u64 [a0 + 1536] = 0\n 20342: u64 [a0 + 1528] = 0\n 20346: u64 [a0 + 1520] = 0\n 20350: u64 [a0 + 1512] = 0\n 20354: a0 = s1 + 0x2000\n 20358: i32 a0 = a0 + 0x700\n 20362: ra = 0x2d6\n 20366: ecalli 16 // 'value_transferred'\n 20368: t0 = 0x2d8\n 20372: jump @1398\n      : @726 [@dyn 363] (gas: 1)\n 20375: t0 = 728, jump @1398\n      : @727 [@dyn 364] (gas: 8)\n 20381: a0 = u64 [a4 + 0xf8]\n 20385: a1 = u64 [a3 + 0x600]\n 20389: a2 = u64 [a4 + 0xf0]\n 20393: a3 = u64 [a4 + 0xe8]\n 20397: a1 = a1 | a2\n 20400: a0 = a0 | a3\n 20403: a0 = a0 | a1\n 20406: jump @749 if a0 == 0\n      : @728 (gas: 6)\n 20410: a1 = 0x20180\n 20415: i32 a1 = a1 + 0\n 20417: a0 = 0x1\n 20420: a2 = 0\n 20422: ecalli 13 // 'seal_return'\n 20424: jump @905\n      : @729 (gas: 1)\n 20427: jump @751 if a0 != 3058722618\n      : @730 (gas: 10)\n 20435: a0 = s1 + 0x2118\n 20439: u64 [a0 + 1664] = 0\n 20443: u64 [a0 + 1656] = 0\n 20447: u64 [a0 + 1648] = 0\n 20451: u64 [a0 + 1640] = 0\n 20455: a0 = s1 + 0x2000\n 20459: i32 a0 = a0 + 0x780\n 20463: ra = 0x2da\n 20467: ecalli 16 // 'value_transferred'\n 20469: fallthrough\n      : @731 [@dyn 365] (gas: 3)\n 20470: a3 = s1 + 0x2118\n 20474: a4 = a3 + 0x600\n 20478: t0 = 732, jump @1407\n      : @732 [@dyn 366] (gas: 1)\n 20484: jump @757 if a0 == 0\n      : @733 (gas: 6)\n 20488: a1 = 0x20180\n 20493: i32 a1 = a1 + 0\n 20495: a0 = 0x1\n 20498: a2 = 0\n 20500: ecalli 13 // 'seal_return'\n 20502: jump @905\n      : @734 (gas: 2)\n 20505: u64 [s1 + 344] = 0\n 20509: fallthrough\n      : @735 (gas: 5)\n 20510: a0 = u64 [s1 + 0x168]\n 20514: a0 = a0 << 0x1\n 20517: a4 = u64 [s1 + 0x158]\n 20521: a4 = a4 | a0\n 20524: fallthrough\n      : @736 (gas: 7)\n 20525: u64 [s1 + 984] = 0\n 20529: u64 [s1 + 976] = 0\n 20533: u64 [s1 + 968] = 0\n 20537: a1 = s1 + 0x3c0\n 20541: u64 [s1 + 0x3c0] = a4\n 20545: a0 = u64 [s1 + 0x118]\n 20549: ra = 734, jump @9\n      : @737 [@dyn 367] (gas: 3)\n 20555: a1 = 0x20\n 20558: a0 = u64 [s1 + 0x118]\n 20562: ra = 736, jump @21\n      : @738 [@dyn 368] (gas: 5)\n 20568: i32 a1 = a0 + 0\n 20570: a2 = 0x20\n 20573: a0 = 0\n 20575: ecalli 13 // 'seal_return'\n 20577: jump @740\n      : @739 (gas: 4)\n 20579: a2 = 0x20\n 20582: a0 = 0\n 20584: ecalli 13 // 'seal_return'\n 20586: fallthrough\n      : @740 (gas: 7)\n 20587: u64 [a2 + 152] = 0\n 20591: u64 [a2 + 144] = 0\n 20595: u64 [a2 + 136] = 0\n 20599: t0 = 0x2e2\n 20603: a0 = 0x4e487b7100000000\n 20613: a1 = 0x2000\n 20617: fallthrough\n      : @741 [@dyn 369] (gas: 5)\n 20618: i32 a1 = a1 + 0xfffffffffffff9a0\n 20622: a1 = a1 + s1\n 20625: u64 [a2 + 0xa0] = a0\n 20629: a0 = 0\n 20631: ra = 740, jump @9\n      : @742 [@dyn 370] (gas: 10)\n 20637: a1 = s1 + 0x1918\n 20641: u64 [a1 + 128] = 0\n 20645: u64 [a1 + 120] = 0\n 20648: u64 [a1 + 104] = 0x41\n 20652: a2 = a1\n 20654: a0 = 0x4\n 20657: a1 = s1 + 0x1980\n 20661: u64 [a2 + 112] = 0\n 20664: ra = 0x2d0\n 20668: jump @9\n      : @743 (gas: 9)\n 20671: a0 = s1 + 0x1918\n 20675: u64 [a0 + 216] = 0\n 20679: u64 [a0 + 208] = 0\n 20683: u64 [a0 + 200] = 0\n 20687: a2 = a0\n 20689: t0 = 0x2e6\n 20693: a0 = 0x4e487b7100000000\n 20703: a1 = 0x2000\n 20707: fallthrough\n      : @744 [@dyn 371] (gas: 5)\n 20708: i32 a1 = a1 + 0xfffffffffffff9e0\n 20712: a1 = a1 + s1\n 20715: u64 [a2 + 0xe0] = a0\n 20719: a0 = 0\n 20721: ra = 744, jump @9\n      : @745 [@dyn 372] (gas: 10)\n 20727: a1 = s1 + 0x1918\n 20731: u64 [a1 + 192] = 0\n 20735: u64 [a1 + 184] = 0\n 20739: u64 [a1 + 168] = 0x22\n 20744: a2 = a1\n 20746: a0 = 0x4\n 20749: a1 = s1 + 0x19c0\n 20753: u64 [a2 + 176] = 0\n 20757: ra = 0x2d0\n 20761: jump @9\n      : @746 (gas: 15)\n 20764: a3 = a4\n 20766: a0 = s1 + 0x1918\n 20770: u64 [a0 + 288] = 0\n 20774: a5 = s1 + 0x100\n 20778: a1 = u64 [a5]\n 20780: u64 [a0 + 0x108] = a1\n 20784: a1 = u64 [s1 + 0xf8]\n 20788: u64 [a0 + 0x110] = a1\n 20792: a1 = s1 + 0x1a20\n 20796: a2 = u64 [a5 + 0x8]\n 20799: u64 [a0 + 0x118] = a2\n 20803: a0 = a4\n 20805: u64 [a5 + 0x98] = a3\n 20809: ra = 0x16a\n 20813: jump @9\n      : @747 (gas: 3)\n 20816: a0 = u64 [s1 + 0x198]\n 20820: a0 = i32 [a0]\n 20822: jump @760 if a0 >u 99\n      : @748 (gas: 6)\n 20827: a1 = 0x20180\n 20832: i32 a1 = a1 + 0\n 20834: a0 = 0x1\n 20837: a2 = 0\n 20839: ecalli 13 // 'seal_return'\n 20841: jump @905\n      : @749 (gas: 3)\n 20844: a0 = u64 [s1 + 0x198]\n 20848: a0 = i32 [a0]\n 20850: jump @765 if a0 >u 67\n      : @750 (gas: 6)\n 20855: a1 = 0x20180\n 20860: i32 a1 = a1 + 0\n 20862: a0 = 0x1\n 20865: a2 = 0\n 20867: ecalli 13 // 'seal_return'\n 20869: jump @905\n      : @751 (gas: 1)\n 20872: jump @817 if a0 != 235423050\n      : @752 (gas: 11)\n 20880: a0 = s1 + 0x2118\n 20884: u64 [a0 + 320] = 0\n 20888: u64 [a0 + 312] = 0\n 20892: u64 [a0 + 304] = 0\n 20896: u64 [a0 + 296] = 0\n 20900: a0 = s1 + 0x2000\n 20904: i32 a0 = a0 + 0x240\n 20908: ra = 0x2ea\n 20912: ecalli 16 // 'value_transferred'\n 20914: t0 = 0x2ec\n 20918: jump @1436\n      : @753 [@dyn 373] (gas: 1)\n 20921: t0 = 748, jump @1436\n      : @754 [@dyn 374] (gas: 1)\n 20927: t0 = 750, jump @1432\n      : @755 [@dyn 375] (gas: 1)\n 20933: jump @822 if a0 == 0\n      : @756 (gas: 6)\n 20937: a1 = 0x20180\n 20942: i32 a1 = a1 + 0\n 20944: a0 = 0x1\n 20947: a2 = 0\n 20949: ecalli 13 // 'seal_return'\n 20951: jump @905\n      : @757 (gas: 1)\n 20954: t0 = 752, jump @1422\n      : @758 [@dyn 376] (gas: 1)\n 20960: jump @825 if a1 <u a0\n      : @759 (gas: 6)\n 20964: a1 = 0x20180\n 20969: i32 a1 = a1 + 0\n 20971: a0 = 0x1\n 20974: a2 = 0\n 20976: ecalli 13 // 'seal_return'\n 20978: jump @905\n      : @760 (gas: 4)\n 20981: a0 = s1 + 0x12c0\n 20985: ra = 0x2f2\n 20989: t0 = 0x540\n 20993: jump @1420\n      : @761 [@dyn 377] (gas: 14)\n 20996: a1 = s1 + 0x1118\n 21000: a2 = a1 + 0x100\n 21004: a0 = u64 [a2 + 0xa8]\n 21008: u64 [s1 + 0x198] = a0\n 21012: a0 = u64 [a2 + 0xb0]\n 21016: u64 [s1 + 0x190] = a0\n 21020: a0 = u64 [a2 + 0xb8]\n 21024: u64 [s1 + 0x188] = a0\n 21028: a0 = u64 [a2 + 0xc0]\n 21032: u64 [s1 + 0x180] = a0\n 21036: a0 = s1 + 0x12a0\n 21040: ra = 0x2f4\n 21044: t0 = 0x544\n 21048: jump @1431\n      : @762 [@dyn 378] (gas: 14)\n 21051: a1 = s1 + 0x1118\n 21055: a2 = a1 + 0x100\n 21059: a0 = u64 [a2 + 0x88]\n 21063: u64 [s1 + 0x178] = a0\n 21067: a0 = u64 [a2 + 0x90]\n 21071: u64 [s1 + 0x170] = a0\n 21075: a0 = u64 [a2 + 0x98]\n 21079: u64 [s1 + 0x168] = a0\n 21083: a0 = u64 [a2 + 0xa0]\n 21087: u64 [s1 + 0x160] = a0\n 21091: a0 = s1 + 0x1280\n 21095: ra = 0x2f6\n 21099: t0 = 0x54a\n 21103: jump @1431\n      : @763 [@dyn 379] (gas: 31)\n 21106: a4 = s1 + 0x1118\n 21110: a5 = a4 + 0x100\n 21114: a0 = u64 [a5 + 0x68]\n 21117: a1 = u64 [a5 + 0x70]\n 21120: a2 = u64 [a5 + 0x78]\n 21123: a3 = u64 [a5 + 0x80]\n 21127: u64 [a5 + 0x20] = a3\n 21130: u64 [a5 + 0x18] = a2\n 21133: u64 [a5 + 0x10] = a1\n 21136: u64 [a5 + 0x8] = a0\n 21139: a4 = s1 + 0x100\n 21143: a0 = u64 [a4 + 0x60]\n 21146: u64 [a5 + 0x40] = a0\n 21149: a0 = u64 [a4 + 0x68]\n 21152: u64 [a5 + 0x38] = a0\n 21155: a0 = u64 [a4 + 0x70]\n 21158: u64 [a5 + 0x30] = a0\n 21161: a0 = u64 [a4 + 0x78]\n 21164: u64 [a5 + 0x28] = a0\n 21167: a0 = u64 [a4 + 0x80]\n 21171: u64 [a5 + 0x60] = a0\n 21174: a0 = u64 [a4 + 0x88]\n 21178: u64 [a5 + 0x58] = a0\n 21181: a0 = u64 [a4 + 0x90]\n 21185: u64 [a5 + 0x50] = a0\n 21188: a0 = s1 + 0x1260\n 21192: a1 = s1 + 0x1240\n 21196: a2 = s1 + 0x1220\n 21200: a3 = u64 [a4 + 0x98]\n 21204: u64 [a5 + 0x48] = a3\n 21207: ra = 760, jump @1215\n      : @764 [@dyn 380] (gas: 6)\n 21213: a1 = 0x20180\n 21218: i32 a1 = a1 + 0\n 21220: a0 = 0\n 21222: a2 = 0\n 21224: ecalli 13 // 'seal_return'\n 21226: jump @905\n      : @765 (gas: 4)\n 21229: a0 = s1 + 0x1660\n 21233: ra = 0x2fa\n 21237: t0 = 0x554\n 21241: jump @1420\n      : @766 [@dyn 381] (gas: 7)\n 21244: a0 = s1 + 0x1118\n 21248: a0 = u64 [a0 + 0x548]\n 21252: u64 [s1 + 0x190] = a0\n 21256: a0 = s1 + 0x1640\n 21260: ra = 0x2fc\n 21264: t0 = 0x544\n 21268: jump @1431\n      : @767 [@dyn 382] (gas: 12)\n 21271: a0 = s1 + 0x1118\n 21275: a0 = u64 [a0 + 0x528]\n 21279: u64 [s1 + 0xf0] = a0\n 21283: a0 = 0x30180\n 21288: u64 [s1 + 0x108] = a0\n 21292: i32 a0 = a0 + 0\n 21294: u64 [s1 + 0x100] = a0\n 21298: ra = 0x2fe\n 21302: ecalli 4 // 'caller'\n 21304: a2 = u64 [s1 + 0x108]\n 21308: t0 = 0x300\n 21312: jump @1361\n      : @768 [@dyn 383] (gas: 2)\n 21315: a2 = u64 [s1 + 0x108]\n 21319: t0 = 768, jump @1361\n      : @769 [@dyn 384] (gas: 8)\n 21325: u64 [a2 + 1312] = 0\n 21329: a4 = a2 + 0x500\n 21333: u64 [a4 + 0x18] = a1\n 21336: u64 [a4 + 0x10] = a0\n 21339: a1 = s1 + 0x1620\n 21343: u64 [a4 + 0x8] = a3\n 21346: a0 = 0\n 21348: ra = 770, jump @9\n      : @770 [@dyn 385] (gas: 3)\n 21354: t0 = 0x304\n 21358: a1 = s1 + 0x1118\n 21362: fallthrough\n      : @771 [@dyn 386] (gas: 8)\n 21363: u64 [a1 + 1280] = 0\n 21367: u64 [a1 + 1272] = 0\n 21371: u64 [a1 + 1256] = 0x2\n 21376: a2 = a1\n 21378: a0 = 0x20\n 21381: a1 = s1 + 0x1600\n 21385: u64 [a2 + 1264] = 0\n 21389: ra = 774, jump @9\n      : @772 [@dyn 387] (gas: 5)\n 21395: a0 = 0x20170\n 21400: u64 [s1 + 0x118] = a0\n 21404: a0 = i32 [0x20170]\n 21409: a1 = 0x3f\n 21412: jump @774 if a1 <u a0\n      : @773 (gas: 4)\n 21415: a1 = u64 [s1 + 0x118]\n 21419: u32 [a1 + 0] = 0x40\n 21422: t0 = 0x308\n 21426: jump @1430\n      : @774 (gas: 1)\n 21429: t0 = 776, jump @1430\n      : @775 [@dyn 388] (gas: 10)\n 21435: a0 = 0x20180\n 21440: i32 a0 = a0 + 0\n 21442: i32 a2 = a2 + 0\n 21444: a1 = 0x40\n 21447: u64 [s1 + 0x110] = a0\n 21451: ra = 0x30a\n 21455: ecalli 8 // 'hash_keccak_256'\n 21457: a3 = u64 [s1 + 0x198]\n 21461: t0 = 0x30c\n 21465: jump @1376\n      : @776 [@dyn 389] (gas: 2)\n 21468: a3 = u64 [s1 + 0x198]\n 21472: t0 = 780, jump @1376\n      : @777 [@dyn 390] (gas: 14)\n 21478: u64 [s1 + 0x198] = a0\n 21482: sp = a0\n 21484: a0 = u64 [s1 + 0x190]\n 21488: a0 = a0 << 0x20\n 21491: a2 = a0 >> 0x20\n 21494: a0 = s1 + 0x1118\n 21498: u64 [a0 + 1248] = 0\n 21502: u64 [a0 + 1240] = 0\n 21506: u64 [a0 + 1232] = 0\n 21510: a1 = s1 + 0x15e0\n 21514: u64 [s1 + 0xf8] = a2\n 21518: u64 [a0 + 0x4c8] = a2\n 21522: a0 = 0\n 21524: ra = 782, jump @9\n      : @778 [@dyn 391] (gas: 14)\n 21530: a0 = u64 [s1 + 0x170]\n 21534: a1 = s1 + 0x1118\n 21538: a2 = a1 + 0x400\n 21542: u64 [a2 + 0xc0] = a0\n 21546: a0 = u64 [s1 + 0x178]\n 21550: u64 [a2 + 0xb8] = a0\n 21554: a0 = u64 [s1 + 0x180]\n 21558: u64 [a2 + 0xb0] = a0\n 21562: a3 = a1\n 21564: a0 = 0x20\n 21567: a1 = s1 + 0x15c0\n 21571: a2 = u64 [s1 + 0x188]\n 21575: u64 [a3 + 0x4a8] = a2\n 21579: ra = 784, jump @9\n      : @779 [@dyn 392] (gas: 3)\n 21585: a0 = u64 [s1 + 0x118]\n 21589: a0 = i32 [a0]\n 21591: jump @781 if a0 >u 63\n      : @780 (gas: 4)\n 21595: a0 = u64 [s1 + 0x118]\n 21599: u32 [a0 + 0] = 0x40\n 21602: t0 = 0x312\n 21606: jump @1368\n      : @781 (gas: 1)\n 21609: t0 = 786, jump @1368\n      : @782 [@dyn 393] (gas: 5)\n 21615: ra = 0x314\n 21619: ecalli 8 // 'hash_keccak_256'\n 21621: a3 = u64 [s1 + 0x190]\n 21625: t0 = 0x316\n 21629: jump @1381\n      : @783 [@dyn 394] (gas: 2)\n 21632: a3 = u64 [s1 + 0x190]\n 21636: t0 = 790, jump @1381\n      : @784 [@dyn 395] (gas: 11)\n 21642: a4 = u64 [s1 + 0x198]\n 21646: u64 [a4 + 0x18] = a3\n 21649: u64 [a4 + 0x10] = a2\n 21652: u64 [a4 + 0x8] = a1\n 21655: u64 [a4] = a0\n 21657: a0 = u64 [s1 + 0x100]\n 21661: ra = 0x318\n 21665: ecalli 4 // 'caller'\n 21667: a2 = u64 [s1 + 0x108]\n 21671: t0 = 0x31a\n 21675: jump @1421\n      : @785 [@dyn 396] (gas: 2)\n 21678: a2 = u64 [s1 + 0x108]\n 21682: t0 = 794, jump @1421\n      : @786 [@dyn 397] (gas: 10)\n 21688: u64 [s1 + 0x190] = a1\n 21692: a0 = a0 >> 0x20\n 21695: a1 = reverse a2\n 21697: u64 [s1 + 0x188] = a1\n 21701: a1 = a1 << 0x20\n 21704: a0 = a0 | a1\n 21707: u64 [s1 + 0x180] = a0\n 21711: a0 = s1 + 0x15a0\n 21715: a1 = u64 [s1 + 0x198]\n 21719: ra = 796, jump @11\n      : @787 [@dyn 398] (gas: 2)\n 21725: a2 = s1 + 0x1118\n 21729: fallthrough\n      : @788 (gas: 19)\n 21730: a0 = u64 [a2 + 0x490]\n 21734: a1 = u32 [a2 + 0x48c]\n 21738: a2 = u64 [a2 + 0x498]\n 21742: a3 = a0 << 0x20\n 21745: a1 = a1 | a3\n 21748: a3 = a2 << 0x20\n 21751: a0 = a0 >> 0x20\n 21754: a0 = a0 | a3\n 21757: a4 = s1 + 0x100\n 21761: a3 = u64 [a4 + 0x80]\n 21765: a0 = a0 ^ a3\n 21768: a3 = u64 [a4 + 0x90]\n 21772: a1 = a1 ^ a3\n 21775: a3 = u64 [a4 + 0x88]\n 21779: a2 = a2 ^ a3\n 21782: a2 = a2 >> 0x20\n 21785: a1 = a1 | a2\n 21788: a0 = a0 | a1\n 21791: jump @871 if a0 != 0\n      : @789 (gas: 4)\n 21795: a0 = s1 + 0x2000\n 21799: i32 a0 = a0 + 0x720\n 21803: ecalli 9 // 'now'\n 21805: fallthrough\n      : @790 (gas: 51)\n 21806: a0 = s1 + 0x2118\n 21810: t0 = u64 [a0 + 0x620]\n 21814: a4 = u64 [a0 + 0x618]\n 21818: u64 [s1 + 0x158] = a4\n 21822: t2 = u64 [a0 + 0x610]\n 21826: a3 = u64 [a0 + 0x608]\n 21830: u64 [s1 + 0x140] = a3\n 21834: a0 = clz t0\n 21836: a1 = clz a4\n 21838: a2 = a1 + 0x40\n 21841: a2 = a0 if t0 != 0\n 21844: a0 = clz t2\n 21846: a1 = clz a3\n 21848: a1 = a1 + 0x40\n 21851: a1 = a0 if t2 != 0\n 21854: a0 = a1 + 0x80\n 21858: a3 = a4 | t0\n 21861: a2 = a0 if a3 == 0\n 21864: a5 = a0 <u a1\n 21867: a5 = 0 if a3 != 0\n 21869: a4 = a5 >u 0\n 21871: a0 = a2 <u 0xf0\n 21875: a3 = a0 ^ 0x1\n 21878: a4 = a3 if a5 == 0\n 21881: a0 = a4 <u 0x1\n 21884: ra = a0 + 0xffffffffffffffff\n 21887: t1 = -a4\n 21889: a5 = -a5\n 21891: a3 = a5 - a3\n 21894: a2 = 0xef - a2\n 21898: a5 = t1 >u 0\n 21900: a0 = ra >u 0\n 21902: a0 = a5 if ra == 0\n 21905: a5 = a2 <u 0x100\n 21909: a5 = a5 ^ 0x1\n 21912: a1 = a3 >u 0\n 21914: a5 = a1 if a3 != 0\n 21917: a5 = a0 if a4 != 0\n 21920: u64 [s1 + 0x138] = t2\n 21924: u64 [s1 + 0x150] = t0\n 21928: a0 = t2 | t0\n 21931: a4 = u64 [s1 + 0x140]\n 21935: a1 = u64 [s1 + 0x158]\n 21939: a1 = a1 | a4\n 21942: a0 = a0 | a1\n 21945: a0 = a0 <u 0x1\n 21948: a0 = a0 | a5\n 21951: a1 = a4\n 21953: a1 = 0 if a0 != 0\n 21955: u64 [s1 + 0x198] = a1\n 21959: jump @875 if a0 != 0\n      : @791 (gas: 1)\n 21963: t0 = 798, jump @1437\n      : @792 [@dyn 399] (gas: 1)\n 21969: jump @875 if a0 == 0\n      : @793 (gas: 1)\n 21973: t0 = 800, jump @1370\n      : @794 [@dyn 400] (gas: 1)\n 21979: ra = 802, jump @1443\n      : @795 [@dyn 401] (gas: 1)\n 21985: t0 = 804, jump @1427\n      : @796 [@dyn 402] (gas: 1)\n 21991: ra = 806, jump @1448\n      : @797 [@dyn 403] (gas: 1)\n 21997: t0 = 808, jump @1418\n      : @798 [@dyn 404] (gas: 1)\n 22003: ra = 810, jump @1448\n      : @799 [@dyn 405] (gas: 8)\n 22009: u64 [s1 + 0x120] = a0\n 22013: u64 [s1 + 0xe8] = a1\n 22017: a2 = u64 [s1 + 0x160]\n 22021: a0 = a2 <u 0x80\n 22025: u64 [s1 + 0xe0] = a0\n 22029: a0 = u64 [s1 + 0x140]\n 22033: a1 = u64 [s1 + 0x138]\n 22037: ra = 812, jump @1448\n      : @800 [@dyn 406] (gas: 1)\n 22043: t0 = 814, jump @1425\n      : @801 [@dyn 407] (gas: 4)\n 22049: a3 = u64 [s1 + 0xe0]\n 22053: a0 = 0 if a3 == 0\n 22055: u64 [a4 + 0x78] = a0\n 22058: jump @873 if a1 == 0\n      : @802 (gas: 7)\n 22062: a2 = a3\n 22064: a0 = u64 [s1 + 0x168]\n 22068: a1 = u64 [s1 + 0x128]\n 22072: a0 = a0 | a1\n 22075: a5 = a3\n 22077: a1 = u64 [s1 + 0xe8]\n 22081: t0 = 816, jump @1366\n      : @803 [@dyn 408] (gas: 1)\n 22087: ra = 818, jump @1443\n      : @804 [@dyn 409] (gas: 1)\n 22093: t0 = 820, jump @1426\n      : @805 [@dyn 410] (gas: 1)\n 22099: ra = 822, jump @1443\n      : @806 [@dyn 411] (gas: 2)\n 22105: u64 [s1 + 0xe8] = a0\n 22109: t0 = 824, jump @1416\n      : @807 [@dyn 412] (gas: 1)\n 22115: ra = 826, jump @1448\n      : @808 [@dyn 413] (gas: 1)\n 22121: t0 = 828, jump @1389\n      : @809 [@dyn 414] (gas: 2)\n 22127: a1 = u64 [s1 + 0xe8]\n 22131: t0 = 830, jump @1401\n      : @810 [@dyn 415] (gas: 1)\n 22137: ra = 832, jump @1443\n      : @811 [@dyn 416] (gas: 1)\n 22143: t0 = 834, jump @1375\n      : @812 [@dyn 417] (gas: 1)\n 22149: t0 = 836, jump @1387\n      : @813 [@dyn 418] (gas: 5)\n 22155: t0 = ra <u a2\n 22158: a4 = u64 [s1 + 0x128]\n 22162: a5 = a4 <u a3\n 22165: a5 = t0 if t1 != 0\n 22168: t0 = 838, jump @1388\n      : @814 [@dyn 419] (gas: 20)\n 22174: t0 = a0 | a1\n 22177: a1 = a4 << 0x1\n 22180: a4 = u64 [s1 + 0x170]\n 22184: t1 = a4 >> 0x3f\n 22187: t1 = a1 | t1\n 22190: a1 = a4 << 0x1\n 22193: a4 = u64 [s1 + 0x178]\n 22197: t2 = a4 >> 0x3f\n 22200: a1 = a1 | t2\n 22203: a4 = a4 << 0x1\n 22206: a0 = u64 [s1 + 0x158]\n 22210: a4 = a4 | a0\n 22213: u64 [s1 + 0x178] = a4\n 22217: a0 = u64 [s1 + 0x150]\n 22221: a1 = a1 | a0\n 22224: u64 [s1 + 0x170] = a1\n 22228: a1 = a0 | t1\n 22231: u64 [s1 + 0x160] = a1\n 22235: a0 = a0 | t0\n 22238: t0 = 840, jump @1363\n      : @815 [@dyn 420] (gas: 18)\n 22244: t0 = a4 <u a2\n 22247: a2 = a4 - a2\n 22250: a4 = a3 <u 0x1\n 22253: a5 = a5 - a4\n 22256: a4 = u64 [a0 + 0x88]\n 22260: a4 = a4 - t0\n 22263: a3 = a3 + 0xffffffffffffffff\n 22266: u64 [a0 + 0x90] = a5\n 22270: u64 [a0 + 0x88] = a4\n 22274: t0 = a5 | a4\n 22277: u64 [a0 + 0x98] = a3\n 22281: a4 = a3 | a2\n 22284: a3 = a4 | t0\n 22287: a4 = ra & 0x1\n 22290: u64 [a0 + 0x58] = a4\n 22293: u64 [a0 + 0x80] = a2\n 22297: u64 [s1 + 336] = 0\n 22301: jump @812 if a3 != 0\n      : @816 (gas: 1)\n 22305: jump @874\n      : @817 (gas: 1)\n 22308: jump @898 if a0 != 1158823118\n      : @818 (gas: 12)\n 22316: a0 = s1 + 0x2118\n 22320: u64 [a0 + 768] = 0\n 22324: u64 [a0 + 760] = 0\n 22328: u64 [a0 + 752] = 0\n 22332: u64 [a0 + 744] = 0\n 22336: a0 = s1 + 0x2000\n 22340: i32 a0 = a0 + 0x400\n 22344: ra = 0x34a\n 22348: ecalli 16 // 'value_transferred'\n 22350: a0 = 0x2000\n 22354: t0 = 0x34c\n 22358: jump @1434\n      : @819 [@dyn 421] (gas: 2)\n 22361: a0 = 0x2000\n 22365: t0 = 844, jump @1434\n      : @820 [@dyn 422] (gas: 8)\n 22371: a0 = u64 [a4 + 0xf8]\n 22375: a1 = u64 [a3 + 0x300]\n 22379: a2 = u64 [a4 + 0xf0]\n 22383: a3 = u64 [a4 + 0xe8]\n 22387: a1 = a1 | a2\n 22390: a0 = a0 | a3\n 22393: a0 = a0 | a1\n 22396: jump @905 if a0 == 0\n      : @821 (gas: 6)\n 22400: a1 = 0x20180\n 22405: i32 a1 = a1 + 0\n 22407: a0 = 0x1\n 22410: a2 = 0\n 22412: ecalli 13 // 'seal_return'\n 22414: jump @905\n      : @822 (gas: 1)\n 22417: t0 = 846, jump @1422\n      : @823 [@dyn 423] (gas: 1)\n 22423: jump @907 if a1 <u a0\n      : @824 (gas: 6)\n 22427: a1 = 0x20180\n 22432: i32 a1 = a1 + 0\n 22434: a0 = 0x1\n 22437: a2 = 0\n 22439: ecalli 13 // 'seal_return'\n 22441: jump @905\n      : @825 (gas: 4)\n 22444: a0 = s1 + 0x18e0\n 22448: ra = 0x350\n 22452: t0 = 0x554\n 22456: jump @1420\n      : @826 [@dyn 424] (gas: 12)\n 22459: a0 = s1 + 0x1118\n 22463: a0 = u64 [a0 + 0x7c8]\n 22467: u64 [s1 + 0x170] = a0\n 22471: a0 = 0x30180\n 22476: u64 [s1 + 0x188] = a0\n 22480: i32 a0 = a0 + 0\n 22482: u64 [s1 + 0x180] = a0\n 22486: ra = 0x352\n 22490: ecalli 4 // 'caller'\n 22492: a2 = u64 [s1 + 0x188]\n 22496: t0 = 0x354\n 22500: jump @1361\n      : @827 [@dyn 425] (gas: 2)\n 22503: a2 = u64 [s1 + 0x188]\n 22507: t0 = 852, jump @1361\n      : @828 [@dyn 426] (gas: 8)\n 22513: u64 [a2 + 1984] = 0\n 22517: a4 = a2 + 0x700\n 22521: u64 [a4 + 0xb8] = a1\n 22525: u64 [a4 + 0xb0] = a0\n 22529: a1 = s1 + 0x18c0\n 22533: u64 [a4 + 0xa8] = a3\n 22537: a0 = 0\n 22539: ra = 854, jump @9\n      : @829 [@dyn 427] (gas: 3)\n 22545: t0 = 0x358\n 22549: a1 = s1 + 0x1118\n 22553: fallthrough\n      : @830 [@dyn 428] (gas: 8)\n 22554: u64 [a1 + 1952] = 0\n 22558: u64 [a1 + 1944] = 0\n 22562: u64 [a1 + 1928] = 0x2\n 22567: a2 = a1\n 22569: a0 = 0x20\n 22572: a1 = s1 + 0x18a0\n 22576: u64 [a2 + 1936] = 0\n 22580: ra = 858, jump @9\n      : @831 [@dyn 429] (gas: 4)\n 22586: a0 = 0x20170\n 22591: u64 [s1 + 0x198] = a0\n 22595: a0 = i32 [0x20170]\n 22600: jump @833 if a0 >u 63\n      : @832 (gas: 1)\n 22604: t0 = 860, jump @1423\n      : @833 [@dyn 430] (gas: 13)\n 22610: a0 = sp + 0xffffffffffffffe0\n 22613: a2 = a0 & 0xffffffffffffffe0\n 22616: u64 [s1 + 0x178] = a2\n 22620: sp = a2\n 22622: a0 = 0x20180\n 22627: i32 a0 = a0 + 0\n 22629: i32 a2 = a2 + 0\n 22631: a1 = 0x40\n 22634: u64 [s1 + 0x190] = a0\n 22638: ra = 0x35e\n 22642: ecalli 8 // 'hash_keccak_256'\n 22644: t0 = 0x360\n 22648: jump @1399\n      : @834 [@dyn 431] (gas: 1)\n 22651: t0 = 864, jump @1399\n      : @835 [@dyn 432] (gas: 8)\n 22657: u64 [s1 + 0x168] = a0\n 22661: a0 = reverse a1\n 22663: u64 [s1 + 0x160] = a0\n 22667: a0 = reverse a2\n 22669: u64 [s1 + 0x158] = a0\n 22673: a0 = reverse a3\n 22675: u64 [s1 + 0x150] = a0\n 22679: t0 = 866, jump @1412\n      : @836 [@dyn 433] (gas: 12)\n 22685: a0 = u64 [s1 + 0x170]\n 22689: a0 = a0 << 0x20\n 22692: a2 = a0 >> 0x20\n 22695: a0 = s1 + 0x1118\n 22699: u64 [a0 + 1920] = 0\n 22703: u64 [a0 + 1912] = 0\n 22707: u64 [a0 + 1904] = 0\n 22711: a1 = s1 + 0x1880\n 22715: u64 [s1 + 0x170] = a2\n 22719: u64 [a0 + 0x768] = a2\n 22723: a0 = 0\n 22725: ra = 868, jump @9\n      : @837 [@dyn 434] (gas: 14)\n 22731: a0 = u64 [s1 + 0x150]\n 22735: a1 = s1 + 0x1118\n 22739: a2 = a1 + 0x700\n 22743: u64 [a2 + 0x60] = a0\n 22746: a0 = u64 [s1 + 0x158]\n 22750: u64 [a2 + 0x58] = a0\n 22753: a0 = u64 [s1 + 0x160]\n 22757: u64 [a2 + 0x50] = a0\n 22760: a3 = a1\n 22762: a0 = 0x20\n 22765: a1 = s1 + 0x1860\n 22769: a2 = u64 [s1 + 0x168]\n 22773: u64 [a3 + 0x748] = a2\n 22777: ra = 870, jump @9\n      : @838 [@dyn 435] (gas: 1)\n 22783: t0 = 872, jump @1403\n      : @839 [@dyn 436] (gas: 1)\n 22789: jump @841 if a1 <u a0\n      : @840 (gas: 1)\n 22792: t0 = 874, jump @1433\n      : @841 [@dyn 437] (gas: 4)\n 22798: a0 = sp + 0xffffffffffffffe0\n 22801: a0 = a0 & 0xffffffffffffffe0\n 22804: u64 [s1 + 0x168] = a0\n 22808: t0 = 876, jump @1364\n      : @842 [@dyn 438] (gas: 5)\n 22814: ra = 0x36e\n 22818: ecalli 8 // 'hash_keccak_256'\n 22820: a3 = u64 [s1 + 0x168]\n 22824: t0 = 0x370\n 22828: jump @1381\n      : @843 [@dyn 439] (gas: 2)\n 22831: a3 = u64 [s1 + 0x168]\n 22835: t0 = 880, jump @1381\n      : @844 [@dyn 440] (gas: 11)\n 22841: a4 = u64 [s1 + 0x178]\n 22845: u64 [a4 + 0x18] = a3\n 22848: u64 [a4 + 0x10] = a2\n 22851: u64 [a4 + 0x8] = a1\n 22854: u64 [a4] = a0\n 22856: a0 = u64 [s1 + 0x180]\n 22860: ra = 0x372\n 22864: ecalli 4 // 'caller'\n 22866: a2 = u64 [s1 + 0x188]\n 22870: t0 = 0x374\n 22874: jump @1421\n      : @845 [@dyn 441] (gas: 2)\n 22877: a2 = u64 [s1 + 0x188]\n 22881: t0 = 884, jump @1421\n      : @846 [@dyn 442] (gas: 10)\n 22887: u64 [s1 + 0x168] = a1\n 22891: a0 = a0 >> 0x20\n 22894: a1 = reverse a2\n 22896: u64 [s1 + 0x160] = a1\n 22900: a1 = a1 << 0x20\n 22903: a0 = a0 | a1\n 22906: u64 [s1 + 0x158] = a0\n 22910: a0 = s1 + 0x1840\n 22914: a1 = u64 [s1 + 0x178]\n 22918: ra = 886, jump @11\n      : @847 [@dyn 443] (gas: 2)\n 22924: a2 = s1 + 0x1118\n 22928: fallthrough\n      : @848 (gas: 19)\n 22929: a0 = u64 [a2 + 0x730]\n 22933: a1 = u32 [a2 + 0x72c]\n 22937: a2 = u64 [a2 + 0x738]\n 22941: a3 = a0 << 0x20\n 22944: a1 = a1 | a3\n 22947: a3 = a2 << 0x20\n 22950: a0 = a0 >> 0x20\n 22953: a0 = a0 | a3\n 22956: a4 = s1 + 0x100\n 22960: a3 = u64 [a4 + 0x58]\n 22963: a0 = a0 ^ a3\n 22966: a3 = u64 [a4 + 0x68]\n 22969: a1 = a1 ^ a3\n 22972: a3 = u64 [a4 + 0x60]\n 22975: a2 = a2 ^ a3\n 22978: a2 = a2 >> 0x20\n 22981: a1 = a1 | a2\n 22984: a0 = a0 | a1\n 22987: jump @919 if a0 != 0\n      : @849 (gas: 6)\n 22991: a0 = u64 [s1 + 0x180]\n 22995: ra = 0x378\n 22999: ecalli 4 // 'caller'\n 23001: a2 = u64 [s1 + 0x188]\n 23005: t0 = 0x37a\n 23009: jump @1361\n      : @850 [@dyn 444] (gas: 2)\n 23012: a2 = u64 [s1 + 0x188]\n 23016: t0 = 890, jump @1361\n      : @851 [@dyn 445] (gas: 8)\n 23022: u64 [a2 + 1792] = 0\n 23026: a4 = a2 + 0x600\n 23030: u64 [a4 + 0xf8] = a1\n 23034: u64 [a4 + 0xf0] = a0\n 23038: a1 = s1 + 0x1800\n 23042: u64 [a4 + 0xe8] = a3\n 23046: a0 = 0\n 23048: ra = 892, jump @9\n      : @852 [@dyn 446] (gas: 3)\n 23054: t0 = 0x37e\n 23058: a1 = s1 + 0x1118\n 23062: fallthrough\n      : @853 [@dyn 447] (gas: 8)\n 23063: u64 [a1 + 1760] = 0\n 23067: u64 [a1 + 1752] = 0\n 23071: u64 [a1 + 1736] = 0x2\n 23076: a2 = a1\n 23078: a0 = 0x20\n 23081: a1 = s1 + 0x17e0\n 23085: u64 [a2 + 1744] = 0\n 23089: ra = 896, jump @9\n      : @854 [@dyn 448] (gas: 1)\n 23095: t0 = 898, jump @1403\n      : @855 [@dyn 449] (gas: 1)\n 23101: jump @857 if a1 <u a0\n      : @856 (gas: 1)\n 23104: t0 = 900, jump @1423\n      : @857 [@dyn 450] (gas: 4)\n 23110: a0 = sp + 0xffffffffffffffe0\n 23113: a0 = a0 & 0xffffffffffffffe0\n 23116: u64 [s1 + 0x178] = a0\n 23120: t0 = 902, jump @1364\n      : @858 [@dyn 451] (gas: 4)\n 23126: ra = 0x388\n 23130: ecalli 8 // 'hash_keccak_256'\n 23132: t0 = 0x38a\n 23136: jump @1399\n      : @859 [@dyn 452] (gas: 1)\n 23139: t0 = 906, jump @1399\n      : @860 [@dyn 453] (gas: 10)\n 23145: u64 [s1 + 0x178] = a0\n 23149: a0 = reverse a1\n 23151: u64 [s1 + 0x168] = a0\n 23155: a0 = reverse a2\n 23157: u64 [s1 + 0x160] = a0\n 23161: a0 = reverse a3\n 23163: u64 [s1 + 0x158] = a0\n 23167: t0 = 0x38c\n 23171: a2 = s1 + 0x1118\n 23175: fallthrough\n      : @861 [@dyn 454] (gas: 8)\n 23176: u64 [a2 + 1728] = 0\n 23180: u64 [a2 + 1720] = 0\n 23184: u64 [a2 + 1712] = 0\n 23188: a1 = s1 + 0x17c0\n 23192: a0 = u64 [s1 + 0x170]\n 23196: u64 [a2 + 0x6a8] = a0\n 23200: a0 = 0\n 23202: ra = 910, jump @9\n      : @862 [@dyn 455] (gas: 14)\n 23208: a0 = u64 [s1 + 0x158]\n 23212: a1 = s1 + 0x1118\n 23216: a2 = a1 + 0x600\n 23220: u64 [a2 + 0xa0] = a0\n 23224: a0 = u64 [s1 + 0x160]\n 23228: u64 [a2 + 0x98] = a0\n 23232: a0 = u64 [s1 + 0x168]\n 23236: u64 [a2 + 0x90] = a0\n 23240: a3 = a1\n 23242: a0 = 0x20\n 23245: a1 = s1 + 0x17a0\n 23249: a2 = u64 [s1 + 0x178]\n 23253: u64 [a3 + 0x688] = a2\n 23257: ra = 912, jump @9\n      : @863 [@dyn 456] (gas: 1)\n 23263: t0 = 914, jump @1403\n      : @864 [@dyn 457] (gas: 1)\n 23269: jump @866 if a1 <u a0\n      : @865 (gas: 1)\n 23272: t0 = 916, jump @1433\n      : @866 [@dyn 458] (gas: 4)\n 23278: a0 = sp + 0xffffffffffffffe0\n 23281: a0 = a0 & 0xffffffffffffffe0\n 23284: u64 [s1 + 0x178] = a0\n 23288: t0 = 918, jump @1364\n      : @867 [@dyn 459] (gas: 28)\n 23294: ecalli 8 // 'hash_keccak_256'\n 23296: a3 = u64 [s1 + 0x178]\n 23300: a0 = u64 [a3]\n 23302: a1 = u64 [a3 + 0x8]\n 23305: a2 = u64 [a3 + 0x10]\n 23308: a3 = u64 [a3 + 0x18]\n 23311: t0 = reverse a0\n 23313: a0 = reverse a1\n 23315: a2 = reverse a2\n 23317: a3 = reverse a3\n 23319: a4 = sp + 0xffffffffffffffe0\n 23322: a1 = a4 & 0xffffffffffffffe0\n 23325: sp = a1\n 23327: a4 = a3 + 0x2\n 23330: a3 = a4 <u a3\n 23333: a5 = a2 + a3\n 23336: a2 = a5 <u a2\n 23339: a2 = a3 if a3 == 0\n 23342: a2 = a2 + a0\n 23345: a0 = a2 <u a0\n 23348: a0 = a0 + t0\n 23351: u64 [a1 + 0x8] = a5\n 23354: u64 [a1] = a4\n 23356: u64 [a1 + 0x10] = a2\n 23359: u64 [a1 + 0x18] = a0\n 23362: a0 = s1 + 0x1780\n 23366: u64 [s1 + 0x178] = a1\n 23370: ra = 920, jump @11\n      : @868 [@dyn 460] (gas: 4)\n 23376: a0 = s1 + 0x1118\n 23380: a0 = u64 [a0 + 0x670]\n 23384: a1 = a0 & 0xff\n 23388: jump @924 if a1 == 0\n      : @869 (gas: 3)\n 23392: t0 = 0x39a\n 23396: a2 = s1 + 0x1118\n 23400: fallthrough\n      : @870 [@dyn 461] (gas: 9)\n 23401: u64 [a2 + 1624] = 0\n 23405: u64 [a2 + 1616] = 0\n 23409: a0 = 0xc1c184c800000000\n 23419: u64 [a2 + 0x660] = a0\n 23423: a1 = s1 + 0x1760\n 23427: u64 [a2 + 1608] = 0\n 23431: a0 = 0\n 23433: ra = 0x3d4\n 23437: jump @9\n      : @871 (gas: 3)\n 23440: t0 = 0x39c\n 23444: a2 = s1 + 0x1118\n 23448: fallthrough\n      : @872 [@dyn 462] (gas: 9)\n 23449: u64 [a2 + 1144] = 0\n 23453: u64 [a2 + 1136] = 0\n 23457: a0 = 0x6f1cf7db00000000\n 23467: u64 [a2 + 0x480] = a0\n 23471: a1 = s1 + 0x1580\n 23475: u64 [a2 + 1128] = 0\n 23479: a0 = 0\n 23481: ra = 0x4ec\n 23485: jump @9\n      : @873 (gas: 2)\n 23488: u64 [s1 + 344] = 0\n 23492: fallthrough\n      : @874 (gas: 7)\n 23493: a2 = s1 + 0x100\n 23497: a0 = u64 [a2 + 0x78]\n 23500: a0 = a0 << 0x1\n 23503: a1 = u64 [a2 + 0x58]\n 23506: a0 = a0 | a1\n 23509: u64 [a2 + 0x98] = a0\n 23513: fallthrough\n      : @875 (gas: 3)\n 23514: a0 = u64 [s1 + 0xf0]\n 23518: a1 = u64 [s1 + 0x198]\n 23522: jump @944 if a0 != a1\n      : @876 (gas: 6)\n 23526: a0 = u64 [s1 + 0x100]\n 23530: ra = 0x39e\n 23534: ecalli 4 // 'caller'\n 23536: a2 = u64 [s1 + 0x108]\n 23540: t0 = 0x3a0\n 23544: jump @1361\n      : @877 [@dyn 463] (gas: 2)\n 23547: a2 = u64 [s1 + 0x108]\n 23551: t0 = 928, jump @1361\n      : @878 [@dyn 464] (gas: 8)\n 23557: u64 [a2 + 1088] = 0\n 23561: a4 = a2 + 0x400\n 23565: u64 [a4 + 0x38] = a1\n 23568: u64 [a4 + 0x30] = a0\n 23571: a1 = s1 + 0x1540\n 23575: u64 [a4 + 0x28] = a3\n 23578: a0 = 0\n 23580: ra = 930, jump @9\n      : @879 [@dyn 465] (gas: 3)\n 23586: t0 = 0x3a4\n 23590: a1 = s1 + 0x1118\n 23594: fallthrough\n      : @880 [@dyn 466] (gas: 8)\n 23595: u64 [a1 + 1056] = 0\n 23599: u64 [a1 + 1048] = 0\n 23603: u64 [a1 + 1032] = 0x2\n 23608: a2 = a1\n 23610: a0 = 0x20\n 23613: a1 = s1 + 0x1520\n 23617: u64 [a2 + 1040] = 0\n 23621: ra = 934, jump @9\n      : @881 [@dyn 467] (gas: 3)\n 23627: a0 = u64 [s1 + 0x118]\n 23631: a0 = i32 [a0]\n 23633: jump @883 if a0 >u 63\n      : @882 (gas: 4)\n 23637: a1 = u64 [s1 + 0x118]\n 23641: u32 [a1 + 0] = 0x40\n 23644: t0 = 0x3a8\n 23648: jump @1368\n      : @883 (gas: 1)\n 23651: t0 = 936, jump @1368\n      : @884 [@dyn 468] (gas: 4)\n 23657: ra = 0x3aa\n 23661: ecalli 8 // 'hash_keccak_256'\n 23663: t0 = 0x3ac\n 23667: jump @1374\n      : @885 [@dyn 469] (gas: 1)\n 23670: t0 = 940, jump @1374\n      : @886 [@dyn 470] (gas: 8)\n 23676: u64 [a2 + 1024] = 0\n 23680: u64 [a2 + 1016] = 0\n 23684: u64 [a2 + 1008] = 0\n 23688: a1 = s1 + 0x1500\n 23692: a0 = u64 [s1 + 0xf8]\n 23696: u64 [a2 + 0x3e8] = a0\n 23700: a0 = 0\n 23702: ra = 942, jump @9\n      : @887 [@dyn 471] (gas: 14)\n 23708: a0 = u64 [s1 + 0x178]\n 23712: a1 = s1 + 0x1118\n 23716: a2 = a1 + 0x300\n 23720: u64 [a2 + 0xe0] = a0\n 23724: a0 = u64 [s1 + 0x180]\n 23728: u64 [a2 + 0xd8] = a0\n 23732: a0 = u64 [s1 + 0x188]\n 23736: u64 [a2 + 0xd0] = a0\n 23740: a3 = a1\n 23742: a0 = 0x20\n 23745: a1 = s1 + 0x14e0\n 23749: a2 = u64 [s1 + 0x190]\n 23753: u64 [a3 + 0x3c8] = a2\n 23757: ra = 944, jump @9\n      : @888 [@dyn 472] (gas: 3)\n 23763: a0 = u64 [s1 + 0x118]\n 23767: a0 = i32 [a0]\n 23769: jump @890 if a0 >u 63\n      : @889 (gas: 4)\n 23773: a0 = u64 [s1 + 0x118]\n 23777: u32 [a0 + 0] = 0x40\n 23780: t0 = 0x3b2\n 23784: jump @1368\n      : @890 (gas: 1)\n 23787: t0 = 946, jump @1368\n      : @891 [@dyn 473] (gas: 4)\n 23793: ra = 0x3b4\n 23797: ecalli 8 // 'hash_keccak_256'\n 23799: t0 = 0x3b6\n 23803: jump @1404\n      : @892 [@dyn 474] (gas: 1)\n 23806: t0 = 950, jump @1404\n      : @893 [@dyn 475] (gas: 2)\n 23812: a4 = a3 + 0x2\n 23815: t0 = 952, jump @1373\n      : @894 [@dyn 476] (gas: 9)\n 23821: a1 = s1 + 0x2118\n 23825: a3 = a1 + 0x600\n 23829: u64 [a3 + 0x28] = a4\n 23832: u64 [a3 + 0x30] = a5\n 23835: u64 [a3 + 0x38] = a2\n 23838: u64 [a3 + 0x40] = a0\n 23841: a0 = s1 + 0x14c0\n 23845: a1 = s1 + 0x2740\n 23849: ra = 954, jump @11\n      : @895 [@dyn 477] (gas: 3)\n 23855: a0 = s1 + 0x1118\n 23859: a0 = u8 [a0 + 0x3b0]\n 23863: jump @946 if a0 == 0\n      : @896 (gas: 3)\n 23867: t0 = 0x3bc\n 23871: a2 = s1 + 0x1118\n 23875: fallthrough\n      : @897 [@dyn 478] (gas: 9)\n 23876: u64 [a2 + 920] = 0\n 23880: u64 [a2 + 912] = 0\n 23884: a0 = 0xa7a9536d00000000\n 23894: u64 [a2 + 0x3a0] = a0\n 23898: a1 = s1 + 0x14a0\n 23902: u64 [a2 + 904] = 0\n 23906: a0 = 0\n 23908: ra = 0x4ec\n 23912: jump @9\n      : @898 (gas: 2)\n 23915: a2 = s1 + 0x2118\n 23919: jump @903 if a0 != 1229702701\n      : @899 (gas: 9)\n 23926: u64 [a2 + 1152] = 0\n 23930: u64 [a2 + 1144] = 0\n 23934: u64 [a2 + 1136] = 0\n 23938: u64 [a2 + 1128] = 0\n 23942: a0 = s1 + 0x2000\n 23946: i32 a0 = a0 + 0x580\n 23950: ra = 0x3be\n 23954: ecalli 16 // 'value_transferred'\n 23956: fallthrough\n      : @900 [@dyn 479] (gas: 3)\n 23957: a3 = s1 + 0x2118\n 23961: a4 = a3 + 0x400\n 23965: t0 = 960, jump @1407\n      : @901 [@dyn 480] (gas: 1)\n 23971: jump @974 if a0 == 0\n      : @902 (gas: 6)\n 23975: a1 = 0x20180\n 23980: i32 a1 = a1 + 0\n 23982: a0 = 0x1\n 23985: a2 = 0\n 23987: ecalli 13 // 'seal_return'\n 23989: jump @905\n      : @903 (gas: 6)\n 23991: a1 = 0x20180\n 23996: i32 a1 = a1 + 0\n 23998: a0 = 0x1\n 24001: a2 = 0\n 24003: ecalli 13 // 'seal_return'\n 24005: jump @905\n      : @904 (gas: 5)\n 24007: i32 a1 = a1 + 0\n 24009: a0 = 0x1\n 24012: a2 = 0\n 24014: ecalli 13 // 'seal_return'\n 24016: fallthrough\n      : @905 (gas: 3)\n 24017: a0 = u64 [s1 + 0x198]\n 24021: a0 = i32 [a0]\n 24023: jump @976 if a0 >u 99\n      : @906 (gas: 2)\n 24028: a1 = 0x20180\n 24033: jump @904\n      : @907 (gas: 4)\n 24035: a0 = s1 + 0x220\n 24039: ra = 0x3c2\n 24043: t0 = 0x540\n 24047: jump @1420\n      : @908 [@dyn 481] (gas: 11)\n 24050: a3 = s1 + 0x200\n 24054: a0 = u64 [a3 + 0x20]\n 24057: a1 = u64 [a3 + 0x28]\n 24060: a2 = u32 [s1 + 0x230]\n 24064: u64 [s1 + 536] = 0\n 24068: u64 [a3 + 0x10] = a2\n 24071: u64 [a3 + 0x8] = a1\n 24074: a1 = s1 + 0x200\n 24078: u64 [a3] = a0\n 24080: a0 = 0\n 24082: ra = 964, jump @9\n      : @909 [@dyn 482] (gas: 7)\n 24088: u64 [s1 + 504] = 0\n 24092: u64 [s1 + 496] = 0\n 24096: u64 [s1 + 480] = 0x3\n 24101: a0 = 0x20\n 24104: a1 = s1 + 0x1e0\n 24108: u64 [s1 + 488] = 0\n 24112: ra = 966, jump @9\n      : @910 [@dyn 483] (gas: 4)\n 24118: a0 = 0x20170\n 24123: u64 [s1 + 0x198] = a0\n 24127: a0 = i32 [0x20170]\n 24132: jump @912 if a0 >u 63\n      : @911 (gas: 1)\n 24136: t0 = 968, jump @1423\n      : @912 [@dyn 484] (gas: 13)\n 24142: a0 = sp + 0xffffffffffffffe0\n 24145: a2 = a0 & 0xffffffffffffffe0\n 24148: u64 [s1 + 0x188] = a2\n 24152: sp = a2\n 24154: a0 = 0x20180\n 24159: u64 [s1 + 0x190] = a0\n 24163: i32 a0 = a0 + 0\n 24165: i32 a2 = a2 + 0\n 24167: a1 = 0x40\n 24170: ra = 0x3ca\n 24174: ecalli 8 // 'hash_keccak_256'\n 24176: t0 = 0x3cc\n 24180: jump @1390\n      : @913 [@dyn 485] (gas: 1)\n 24183: t0 = 972, jump @1390\n      : @914 [@dyn 486] (gas: 8)\n 24189: a5 = a4 + 0x100\n 24193: u64 [a5 + 0x60] = a3\n 24196: u64 [a5 + 0x58] = a2\n 24199: u64 [a5 + 0x50] = a1\n 24202: u64 [a5 + 0x48] = a0\n 24205: a0 = s1 + 0x1c0\n 24209: a1 = s1 + 0x2260\n 24213: ra = 974, jump @11\n      : @915 [@dyn 487] (gas: 8)\n 24219: a0 = u32 [s1 + 0x1c0]\n 24223: u64 [s1 + 440] = 0\n 24227: u64 [s1 + 432] = 0\n 24231: u64 [s1 + 0x1a0] = a0\n 24235: a0 = 0x80\n 24239: a1 = s1 + 0x1a0\n 24243: u64 [s1 + 424] = 0\n 24247: ra = 976, jump @9\n      : @916 [@dyn 488] (gas: 3)\n 24253: a0 = u64 [s1 + 0x198]\n 24257: a0 = i32 [a0]\n 24259: jump @918 if a0 >u 159\n      : @917 (gas: 5)\n 24264: a1 = u64 [s1 + 0x198]\n 24268: u32 [a1 + 0] = 0xa0\n 24272: a0 = u64 [s1 + 0x190]\n 24276: i32 a1 = a0 + 0x80\n 24280: jump @739\n      : @918 (gas: 3)\n 24283: a0 = u64 [s1 + 0x190]\n 24287: i32 a1 = a0 + 0x80\n 24291: jump @739\n      : @919 (gas: 3)\n 24294: t0 = 0x3d2\n 24298: a2 = s1 + 0x1118\n 24302: fallthrough\n      : @920 [@dyn 489] (gas: 8)\n 24303: u64 [a2 + 1816] = 0\n 24307: u64 [a2 + 1808] = 0\n 24311: a0 = 0x6f1cf7db00000000\n 24321: u64 [a2 + 0x720] = a0\n 24325: a1 = s1 + 0x1820\n 24329: u64 [a2 + 1800] = 0\n 24333: a0 = 0\n 24335: ra = 980, jump @9\n      : @921 [@dyn 490] (gas: 3)\n 24341: a0 = u64 [s1 + 0x198]\n 24345: a0 = i32 [a0]\n 24347: jump @923 if a0 >u 31\n      : @922 (gas: 3)\n 24351: a1 = u64 [s1 + 0x198]\n 24355: u32 [a1 + 0] = 0x20\n 24358: fallthrough\n      : @923 (gas: 5)\n 24359: a0 = 0x1\n 24362: a2 = 0x4\n 24365: a1 = u64 [s1 + 0x190]\n 24369: ecalli 13 // 'seal_return'\n 24371: fallthrough\n      : @924 (gas: 17)\n 24372: a1 = 0xffffffff\n 24382: u64 [s1 + 0x168] = a1\n 24386: a3 = s1 + 0x1118\n 24390: a4 = a3 + 0x600\n 24394: a1 = u64 [a4 + 0x68]\n 24397: a2 = u64 [a4 + 0x78]\n 24400: a3 = u64 [a4 + 0x80]\n 24404: a0 = a0 | 0x1\n 24407: a4 = s1 + 0x2118\n 24411: a5 = a4 + 0x600\n 24415: u64 [a5 + 0x88] = a1\n 24419: u64 [a5 + 0x98] = a2\n 24423: u64 [a5 + 0x90] = a0\n 24427: u64 [a5 + 0xa0] = a3\n 24431: a1 = s1 + 0x27a0\n 24435: a0 = u64 [s1 + 0x178]\n 24439: ra = 982, jump @12\n      : @925 [@dyn 491] (gas: 6)\n 24445: a0 = u64 [s1 + 0x180]\n 24449: ra = 0x3d8\n 24453: ecalli 4 // 'caller'\n 24455: a2 = u64 [s1 + 0x188]\n 24459: t0 = 0x3da\n 24463: jump @1361\n      : @926 [@dyn 492] (gas: 2)\n 24466: a2 = u64 [s1 + 0x188]\n 24470: t0 = 986, jump @1361\n      : @927 [@dyn 493] (gas: 8)\n 24476: u64 [a2 + 1600] = 0\n 24480: a4 = a2 + 0x600\n 24484: u64 [a4 + 0x38] = a1\n 24487: u64 [a4 + 0x30] = a0\n 24490: a1 = s1 + 0x1740\n 24494: u64 [a4 + 0x28] = a3\n 24497: a0 = 0\n 24499: ra = 988, jump @9\n      : @928 [@dyn 494] (gas: 3)\n 24505: t0 = 0x3de\n 24509: a1 = s1 + 0x1118\n 24513: fallthrough\n      : @929 [@dyn 495] (gas: 8)\n 24514: u64 [a1 + 1568] = 0\n 24518: u64 [a1 + 1560] = 0\n 24522: u64 [a1 + 1544] = 0x1\n 24527: a2 = a1\n 24529: a0 = 0x20\n 24532: a1 = s1 + 0x1720\n 24536: u64 [a2 + 1552] = 0\n 24540: ra = 992, jump @9\n      : @930 [@dyn 496] (gas: 1)\n 24546: t0 = 994, jump @1412\n      : @931 [@dyn 497] (gas: 1)\n 24552: t0 = 996, jump @1403\n      : @932 [@dyn 498] (gas: 1)\n 24558: jump @934 if a1 <u a0\n      : @933 (gas: 1)\n 24561: t0 = 998, jump @1423\n      : @934 [@dyn 499] (gas: 4)\n 24567: a0 = sp + 0xffffffffffffffe0\n 24570: a0 = a0 & 0xffffffffffffffe0\n 24573: u64 [s1 + 0x198] = a0\n 24577: t0 = 1000, jump @1364\n      : @935 [@dyn 500] (gas: 3)\n 24583: ra = 0x3ea\n 24587: ecalli 8 // 'hash_keccak_256'\n 24589: fallthrough\n      : @936 [@dyn 501] (gas: 11)\n 24590: a3 = u64 [s1 + 0x198]\n 24594: a0 = u64 [a3]\n 24596: a1 = u64 [a3 + 0x8]\n 24599: a2 = u64 [a3 + 0x10]\n 24602: a3 = u64 [a3 + 0x18]\n 24605: a0 = reverse a0\n 24607: a1 = reverse a1\n 24609: a2 = reverse a2\n 24611: a3 = reverse a3\n 24613: a4 = a3 + 0x3\n 24616: t0 = 1004, jump @1373\n      : @937 [@dyn 502] (gas: 7)\n 24622: a1 = u64 [s1 + 0x178]\n 24626: u64 [a1] = a4\n 24628: u64 [a1 + 0x8] = a5\n 24631: u64 [a1 + 0x10] = a2\n 24634: u64 [a1 + 0x18] = a0\n 24637: a0 = s1 + 0x1700\n 24641: ra = 1006, jump @11\n      : @938 [@dyn 503] (gas: 9)\n 24647: a0 = s1 + 0x1118\n 24651: a0 = u64 [a0 + 0x5e8]\n 24655: a1 = u64 [s1 + 0x168]\n 24659: a0 = a0 + a1\n 24662: a0 = a0 & a1\n 24665: u64 [s1 + 0x198] = a0\n 24669: a0 = s1 + 0x16e0\n 24673: a1 = u64 [s1 + 0x178]\n 24677: ra = 1008, jump @11\n      : @939 [@dyn 504] (gas: 18)\n 24683: a3 = s1 + 0x1118\n 24687: a0 = u32 [a3 + 0x5cc]\n 24691: a0 = a0 << 0x20\n 24694: a4 = a3 + 0x500\n 24698: a1 = u64 [a4 + 0xe0]\n 24702: a2 = u64 [a4 + 0xd8]\n 24706: a3 = u64 [a4 + 0xd0]\n 24710: a4 = u64 [s1 + 0x198]\n 24714: a0 = a0 | a4\n 24717: a4 = s1 + 0x2118\n 24721: a5 = a4 + 0x600\n 24725: u64 [a5 + 0xc0] = a1\n 24729: u64 [a5 + 0xb8] = a2\n 24733: u64 [a5 + 0xb0] = a3\n 24737: u64 [a5 + 0xa8] = a0\n 24741: a1 = s1 + 0x27c0\n 24745: a0 = u64 [s1 + 0x178]\n 24749: ra = 1010, jump @12\n      : @940 [@dyn 505] (gas: 6)\n 24755: a0 = u64 [s1 + 0x180]\n 24759: ra = 0x3f4\n 24763: ecalli 4 // 'caller'\n 24765: a2 = u64 [s1 + 0x188]\n 24769: t0 = 0x3f6\n 24773: jump @1365\n      : @941 [@dyn 506] (gas: 2)\n 24776: a2 = u64 [s1 + 0x188]\n 24780: t0 = 1014, jump @1365\n      : @942 [@dyn 507] (gas: 31)\n 24786: t0 = a1 | a0\n 24789: a3 = a3 >> 0x20\n 24792: a2 = reverse a2\n 24794: a1 = a2 << 0x20\n 24797: a1 = a1 | a3\n 24800: a2 = a2 >> 0x20\n 24803: a3 = u64 [s1 + 0x170]\n 24807: a0 = s1 + 0x1118\n 24811: u64 [a0 + 0x568] = a3\n 24815: a3 = u64 [0x20040]\n 24820: a4 = u64 [0x20048]\n 24825: a5 = u64 [0x20050]\n 24830: u64 [a0 + 0x5c0] = a3\n 24834: u64 [a0 + 0x5b8] = a4\n 24838: u64 [a0 + 1408] = 0\n 24842: a4 = a0 + 0x500\n 24846: u64 [a4 + 0xb0] = a5\n 24850: a3 = u64 [0x20058]\n 24855: u64 [a0 + 1400] = 0\n 24859: u64 [a0 + 1392] = 0\n 24863: u64 [a0 + 1440] = 0\n 24867: u64 [a4 + 0xa8] = a3\n 24871: u64 [a4 + 0x98] = a2\n 24875: u64 [a4 + 0x90] = a1\n 24879: a2 = s1 + 0x16c0\n 24883: a3 = s1 + 0x16a0\n 24887: a4 = s1 + 0x1680\n 24891: u64 [a0 + 0x588] = t0\n 24895: a0 = 0\n 24897: a1 = 0\n 24899: ra = 1016, jump @15\n      : @943 [@dyn 508] (gas: 5)\n 24905: a0 = 0\n 24907: a1 = u64 [s1 + 0x190]\n 24911: a2 = 0\n 24913: ecalli 13 // 'seal_return'\n 24915: jump @905\n      : @944 (gas: 3)\n 24918: t0 = 0x3fa\n 24922: a2 = s1 + 0x1118\n 24926: fallthrough\n      : @945 [@dyn 509] (gas: 9)\n 24927: u64 [a2 + 1112] = 0\n 24931: u64 [a2 + 1104] = 0\n 24935: a0 = 0xd5b25b6300000000\n 24945: u64 [a2 + 0x460] = a0\n 24949: a1 = s1 + 0x1560\n 24953: u64 [a2 + 1096] = 0\n 24957: a0 = 0\n 24959: ra = 0x4ec\n 24963: jump @9\n      : @946 (gas: 6)\n 24966: a0 = u64 [s1 + 0x100]\n 24970: ra = 0x3fc\n 24974: ecalli 4 // 'caller'\n 24976: a2 = u64 [s1 + 0x108]\n 24980: t0 = 0x3fe\n 24984: jump @1361\n      : @947 [@dyn 510] (gas: 2)\n 24987: a2 = u64 [s1 + 0x108]\n 24991: t0 = 1022, jump @1361\n      : @948 [@dyn 511] (gas: 8)\n 24997: u64 [a2 + 896] = 0\n 25001: a4 = a2 + 0x300\n 25005: u64 [a4 + 0x78] = a1\n 25008: u64 [a4 + 0x70] = a0\n 25011: a1 = s1 + 0x1480\n 25015: u64 [a4 + 0x68] = a3\n 25018: a0 = 0\n 25020: ra = 1024, jump @9\n      : @949 [@dyn 512] (gas: 3)\n 25026: t0 = 0x402\n 25030: a1 = s1 + 0x1118\n 25034: fallthrough\n      : @950 [@dyn 513] (gas: 8)\n 25035: u64 [a1 + 864] = 0\n 25039: u64 [a1 + 856] = 0\n 25043: u64 [a1 + 840] = 0x4\n 25048: a2 = a1\n 25050: a0 = 0x20\n 25053: a1 = s1 + 0x1460\n 25057: u64 [a2 + 848] = 0\n 25061: ra = 1028, jump @9\n      : @951 [@dyn 514] (gas: 3)\n 25067: a0 = u64 [s1 + 0x118]\n 25071: a0 = i32 [a0]\n 25073: jump @953 if a0 >u 63\n      : @952 (gas: 4)\n 25077: a1 = u64 [s1 + 0x118]\n 25081: u32 [a1 + 0] = 0x40\n 25084: t0 = 0x406\n 25088: jump @1368\n      : @953 (gas: 1)\n 25091: t0 = 1030, jump @1368\n      : @954 [@dyn 515] (gas: 4)\n 25097: ra = 0x408\n 25101: ecalli 8 // 'hash_keccak_256'\n 25103: t0 = 0x40a\n 25107: jump @1374\n      : @955 [@dyn 516] (gas: 1)\n 25110: t0 = 1034, jump @1374\n      : @956 [@dyn 517] (gas: 8)\n 25116: u64 [a2 + 832] = 0\n 25120: u64 [a2 + 824] = 0\n 25124: u64 [a2 + 816] = 0\n 25128: a1 = s1 + 0x1440\n 25132: a0 = u64 [s1 + 0x198]\n 25136: u64 [a2 + 0x328] = a0\n 25140: a0 = 0\n 25142: ra = 1036, jump @9\n      : @957 [@dyn 518] (gas: 14)\n 25148: a0 = u64 [s1 + 0x178]\n 25152: a1 = s1 + 0x1118\n 25156: a2 = a1 + 0x300\n 25160: u64 [a2 + 0x20] = a0\n 25163: a0 = u64 [s1 + 0x180]\n 25167: u64 [a2 + 0x18] = a0\n 25170: a0 = u64 [s1 + 0x188]\n 25174: u64 [a2 + 0x10] = a0\n 25177: a3 = a1\n 25179: a0 = 0x20\n 25182: a1 = s1 + 0x1420\n 25186: a2 = u64 [s1 + 0x190]\n 25190: u64 [a3 + 0x308] = a2\n 25194: ra = 1038, jump @9\n      : @958 [@dyn 519] (gas: 3)\n 25200: a0 = u64 [s1 + 0x118]\n 25204: a0 = i32 [a0]\n 25206: jump @960 if a0 >u 63\n      : @959 (gas: 4)\n 25210: a0 = u64 [s1 + 0x118]\n 25214: u32 [a0 + 0] = 0x40\n 25217: t0 = 0x410\n 25221: jump @1368\n      : @960 (gas: 1)\n 25224: t0 = 1040, jump @1368\n      : @961 [@dyn 520] (gas: 5)\n 25230: ra = 0x412\n 25234: ecalli 8 // 'hash_keccak_256'\n 25236: a3 = u64 [s1 + 0x190]\n 25240: t0 = 0x414\n 25244: jump @1376\n      : @962 [@dyn 521] (gas: 2)\n 25247: a3 = u64 [s1 + 0x190]\n 25251: t0 = 1044, jump @1376\n      : @963 [@dyn 522] (gas: 5)\n 25257: u64 [s1 + 0x190] = a0\n 25261: sp = a0\n 25263: t0 = 0x416\n 25267: a2 = s1 + 0x1118\n 25271: fallthrough\n      : @964 [@dyn 523] (gas: 8)\n 25272: u64 [a2 + 768] = 0\n 25276: u64 [a2 + 760] = 0\n 25280: u64 [a2 + 752] = 0\n 25284: a1 = s1 + 0x1400\n 25288: a0 = u64 [s1 + 0xf8]\n 25292: u64 [a2 + 0x2e8] = a0\n 25296: a0 = 0\n 25298: ra = 1048, jump @9\n      : @965 [@dyn 524] (gas: 14)\n 25304: a0 = u64 [s1 + 0x170]\n 25308: a1 = s1 + 0x1118\n 25312: a2 = a1 + 0x200\n 25316: u64 [a2 + 0xe0] = a0\n 25320: a0 = u64 [s1 + 0x178]\n 25324: u64 [a2 + 0xd8] = a0\n 25328: a0 = u64 [s1 + 0x180]\n 25332: u64 [a2 + 0xd0] = a0\n 25336: a3 = a1\n 25338: a0 = 0x20\n 25341: a1 = s1 + 0x13e0\n 25345: a2 = u64 [s1 + 0x188]\n 25349: u64 [a3 + 0x2c8] = a2\n 25353: ra = 1050, jump @9\n      : @966 [@dyn 525] (gas: 3)\n 25359: a0 = u64 [s1 + 0x118]\n 25363: a0 = i32 [a0]\n 25365: jump @968 if a0 >=u 64\n      : @967 (gas: 3)\n 25369: a0 = u64 [s1 + 0x118]\n 25373: u32 [a0 + 0] = 0x40\n 25376: fallthrough\n      : @968 (gas: 12)\n 25377: a0 = sp + 0xffffffffffffffe0\n 25380: a0 = a0 & 0xffffffffffffffe0\n 25383: u64 [s1 + 0x188] = a0\n 25387: sp = a0\n 25389: i32 a2 = a0 + 0\n 25391: a1 = 0x40\n 25394: a0 = u64 [s1 + 0x110]\n 25398: ra = 0x41c\n 25402: ecalli 8 // 'hash_keccak_256'\n 25404: a3 = u64 [s1 + 0x188]\n 25408: t0 = 0x41e\n 25412: jump @1382\n      : @969 [@dyn 526] (gas: 2)\n 25415: a3 = u64 [s1 + 0x188]\n 25419: t0 = 1054, jump @1382\n      : @970 [@dyn 527] (gas: 7)\n 25425: a1 = u64 [s1 + 0x190]\n 25429: u64 [a1 + 0x18] = a3\n 25432: u64 [a1 + 0x10] = a2\n 25435: u64 [a1 + 0x8] = a4\n 25438: u64 [a1] = a0\n 25440: a0 = s1 + 0x13c0\n 25444: ra = 1056, jump @11\n      : @971 [@dyn 528] (gas: 4)\n 25450: a0 = s1 + 0x1118\n 25454: a0 = u64 [a0 + 0x2a8]\n 25458: a1 = a0 & 0x1\n 25461: jump @1007 if a1 != 0\n      : @972 (gas: 3)\n 25465: t0 = 0x422\n 25469: a2 = s1 + 0x1118\n 25473: fallthrough\n      : @973 [@dyn 529] (gas: 9)\n 25474: u64 [a2 + 472] = 0\n 25478: u64 [a2 + 464] = 0\n 25482: a0 = 0xafa4e2b600000000\n 25492: u64 [a2 + 0x1e0] = a0\n 25496: a1 = s1 + 0x12e0\n 25500: u64 [a2 + 456] = 0\n 25504: a0 = 0\n 25506: ra = 0x4ec\n 25510: jump @9\n      : @974 (gas: 3)\n 25513: a0 = u64 [s1 + 0x198]\n 25517: a0 = i32 [a0]\n 25519: jump @1015 if a0 >u 99\n      : @975 (gas: 2)\n 25524: a1 = 0x20180\n 25529: jump @904\n      : @976 (gas: 5)\n 25532: a0 = s1 + 0x7ff\n 25536: a0 = a0 + 0x1a1\n 25540: ra = 0x424\n 25544: t0 = 0x540\n 25548: jump @1420\n      : @977 [@dyn 530] (gas: 15)\n 25551: a1 = s1 + 0x7ff\n 25555: a1 = a1 + 0x119\n 25559: a0 = u64 [a1 + 0xa0]\n 25563: u64 [s1 + 0xf8] = a0\n 25567: a0 = u64 [a1 + 0x98]\n 25571: u64 [s1 + 0x100] = a0\n 25575: a0 = u64 [a1 + 0x90]\n 25579: u64 [s1 + 0x118] = a0\n 25583: a0 = u64 [a1 + 0x88]\n 25587: u64 [s1 + 0x110] = a0\n 25591: a0 = s1 + 0x7ff\n 25595: a0 = a0 + 0x181\n 25599: ra = 0x426\n 25603: t0 = 0x544\n 25607: jump @1431\n      : @978 [@dyn 531] (gas: 15)\n 25610: a1 = s1 + 0x7ff\n 25614: a1 = a1 + 0x119\n 25618: a0 = u64 [a1 + 0x80]\n 25622: u64 [s1 + 0xf0] = a0\n 25626: a0 = u64 [a1 + 0x78]\n 25629: u64 [s1 + 0xe8] = a0\n 25633: a0 = u64 [a1 + 0x70]\n 25636: u64 [s1 + 0xe0] = a0\n 25640: a0 = u64 [a1 + 0x68]\n 25643: u64 [s1 + 0x108] = a0\n 25647: a0 = s1 + 0x7ff\n 25651: a0 = a0 + 0x161\n 25655: ra = 0x428\n 25659: t0 = 0x54a\n 25663: jump @1431\n      : @979 [@dyn 532] (gas: 8)\n 25666: a0 = s1 + 0x7ff\n 25670: a0 = a0 + 0x119\n 25674: a0 = u64 [a0 + 0x48]\n 25677: u64 [s1 + 0xd8] = a0\n 25681: a0 = s1 + 0x2000\n 25685: i32 a0 = a0 + 0x420\n 25689: ecalli 9 // 'now'\n 25691: fallthrough\n      : @980 (gas: 49)\n 25692: a0 = s1 + 0x2118\n 25696: t0 = u64 [a0 + 0x320]\n 25700: a4 = u64 [a0 + 0x318]\n 25704: u64 [s1 + 0x158] = a4\n 25708: t2 = u64 [a0 + 0x310]\n 25712: a3 = u64 [a0 + 0x308]\n 25716: u64 [s1 + 0x140] = a3\n 25720: a0 = clz t0\n 25722: a1 = clz a4\n 25724: a2 = a1 + 0x40\n 25727: a2 = a0 if t0 != 0\n 25730: a0 = clz t2\n 25732: a1 = clz a3\n 25734: a1 = a1 + 0x40\n 25737: a1 = a0 if t2 != 0\n 25740: a0 = a1 + 0x80\n 25744: a3 = a4 | t0\n 25747: a2 = a0 if a3 == 0\n 25750: a5 = a0 <u a1\n 25753: a5 = 0 if a3 != 0\n 25755: a4 = a5 >u 0\n 25757: a0 = a2 <u 0xf0\n 25761: a3 = a0 ^ 0x1\n 25764: a4 = a3 if a5 == 0\n 25767: a0 = a4 <u 0x1\n 25770: ra = a0 + 0xffffffffffffffff\n 25773: t1 = -a4\n 25775: a5 = -a5\n 25777: a3 = a5 - a3\n 25780: a2 = 0xef - a2\n 25784: a5 = t1 >u 0\n 25786: a0 = ra >u 0\n 25788: a0 = a5 if ra == 0\n 25791: a5 = a2 <u 0x100\n 25795: a5 = a5 ^ 0x1\n 25798: a1 = a3 >u 0\n 25800: a5 = a1 if a3 != 0\n 25803: a5 = a0 if a4 != 0\n 25806: u64 [s1 + 0x138] = t2\n 25810: u64 [s1 + 0x150] = t0\n 25814: a0 = t2 | t0\n 25817: a4 = u64 [s1 + 0x140]\n 25821: a1 = u64 [s1 + 0x158]\n 25825: a1 = a1 | a4\n 25828: a0 = a0 | a1\n 25831: a0 = a0 <u 0x1\n 25834: a0 = a0 | a5\n 25837: a4 = 0 if a0 != 0\n 25839: jump @1047 if a0 != 0\n      : @981 (gas: 1)\n 25843: t0 = 1066, jump @1437\n      : @982 [@dyn 533] (gas: 1)\n 25849: jump @1047 if a0 == 0\n      : @983 (gas: 1)\n 25853: t0 = 1068, jump @1370\n      : @984 [@dyn 534] (gas: 1)\n 25859: ra = 1070, jump @1443\n      : @985 [@dyn 535] (gas: 1)\n 25865: t0 = 1072, jump @1427\n      : @986 [@dyn 536] (gas: 1)\n 25871: ra = 1074, jump @1448\n      : @987 [@dyn 537] (gas: 1)\n 25877: t0 = 1076, jump @1418\n      : @988 [@dyn 538] (gas: 1)\n 25883: ra = 1078, jump @1448\n      : @989 [@dyn 539] (gas: 8)\n 25889: u64 [s1 + 0x120] = a0\n 25893: u64 [s1 + 0xd0] = a1\n 25897: a2 = u64 [s1 + 0x160]\n 25901: a0 = a2 <u 0x80\n 25905: u64 [s1 + 0xc8] = a0\n 25909: a0 = u64 [s1 + 0x140]\n 25913: a1 = u64 [s1 + 0x138]\n 25917: ra = 1080, jump @1448\n      : @990 [@dyn 540] (gas: 1)\n 25923: t0 = 1082, jump @1425\n      : @991 [@dyn 541] (gas: 4)\n 25929: a3 = u64 [s1 + 0xc8]\n 25933: a0 = 0 if a3 == 0\n 25935: u64 [a4 + 0x78] = a0\n 25938: jump @1045 if a1 == 0\n      : @992 (gas: 7)\n 25942: a2 = a3\n 25944: a0 = u64 [s1 + 0x168]\n 25948: a1 = u64 [s1 + 0x128]\n 25952: a0 = a0 | a1\n 25955: a5 = a3\n 25957: a1 = u64 [s1 + 0xd0]\n 25961: t0 = 1084, jump @1366\n      : @993 [@dyn 542] (gas: 1)\n 25967: ra = 1086, jump @1443\n      : @994 [@dyn 543] (gas: 1)\n 25973: t0 = 1088, jump @1426\n      : @995 [@dyn 544] (gas: 1)\n 25979: ra = 1090, jump @1443\n      : @996 [@dyn 545] (gas: 2)\n 25985: u64 [s1 + 0xd0] = a0\n 25989: t0 = 1092, jump @1416\n      : @997 [@dyn 546] (gas: 1)\n 25995: ra = 1094, jump @1448\n      : @998 [@dyn 547] (gas: 1)\n 26001: t0 = 1096, jump @1389\n      : @999 [@dyn 548] (gas: 2)\n 26007: a1 = u64 [s1 + 0xd0]\n 26011: t0 = 1098, jump @1401\n      : @1000 [@dyn 549] (gas: 1)\n 26017: ra = 1100, jump @1443\n      : @1001 [@dyn 550] (gas: 1)\n 26023: t0 = 1102, jump @1375\n      : @1002 [@dyn 551] (gas: 1)\n 26029: t0 = 1104, jump @1387\n      : @1003 [@dyn 552] (gas: 5)\n 26035: t0 = ra <u a2\n 26038: a4 = u64 [s1 + 0x128]\n 26042: a5 = a4 <u a3\n 26045: a5 = t0 if t1 != 0\n 26048: t0 = 1106, jump @1388\n      : @1004 [@dyn 553] (gas: 20)\n 26054: t0 = a0 | a1\n 26057: a1 = a4 << 0x1\n 26060: a4 = u64 [s1 + 0x170]\n 26064: t1 = a4 >> 0x3f\n 26067: t1 = a1 | t1\n 26070: a1 = a4 << 0x1\n 26073: a4 = u64 [s1 + 0x178]\n 26077: t2 = a4 >> 0x3f\n 26080: a1 = a1 | t2\n 26083: a4 = a4 << 0x1\n 26086: a0 = u64 [s1 + 0x158]\n 26090: a4 = a4 | a0\n 26093: u64 [s1 + 0x178] = a4\n 26097: a0 = u64 [s1 + 0x150]\n 26101: a1 = a1 | a0\n 26104: u64 [s1 + 0x170] = a1\n 26108: a1 = a0 | t1\n 26111: u64 [s1 + 0x160] = a1\n 26115: a0 = a0 | t0\n 26118: t0 = 1108, jump @1363\n      : @1005 [@dyn 554] (gas: 18)\n 26124: t0 = a4 <u a2\n 26127: a2 = a4 - a2\n 26130: a4 = a3 <u 0x1\n 26133: a5 = a5 - a4\n 26136: a4 = u64 [a0 + 0x88]\n 26140: a4 = a4 - t0\n 26143: a3 = a3 + 0xffffffffffffffff\n 26146: u64 [a0 + 0x90] = a5\n 26150: u64 [a0 + 0x88] = a4\n 26154: t0 = a5 | a4\n 26157: u64 [a0 + 0x98] = a3\n 26161: a4 = a3 | a2\n 26164: a3 = a4 | t0\n 26167: a4 = ra & 0x1\n 26170: u64 [a0 + 0x58] = a4\n 26173: u64 [a0 + 0x80] = a2\n 26177: u64 [s1 + 336] = 0\n 26181: jump @1002 if a3 != 0\n      : @1006 (gas: 1)\n 26185: jump @1046\n      : @1007 (gas: 2)\n 26188: a1 = a0 & 0x2\n 26191: jump @1110 if a1 != 0\n      : @1008 (gas: 5)\n 26195: a0 = a0 & 0xfd\n 26199: u64 [s1 + 0x188] = a0\n 26203: a0 = s1 + 0x1380\n 26207: a1 = u64 [s1 + 0x190]\n 26211: ra = 1110, jump @11\n      : @1009 [@dyn 555] (gas: 2)\n 26217: a0 = 0x1000\n 26221: t0 = 1112, jump @1434\n      : @1010 [@dyn 556] (gas: 17)\n 26227: a0 = u64 [a4 + 0x68]\n 26230: a1 = u64 [a4 + 0x70]\n 26233: a2 = u64 [a4 + 0x78]\n 26236: a3 = u64 [a4 + 0x80]\n 26240: a0 = a0 & 0xffffffffffffff00\n 26244: a4 = u64 [s1 + 0x188]\n 26248: a0 = a0 | a4\n 26251: a0 = a0 + 0x2\n 26254: a4 = s1 + 0x2118\n 26258: a5 = a4 + 0x600\n 26262: u64 [a5 + 0x60] = a3\n 26265: u64 [a5 + 0x58] = a2\n 26268: u64 [a5 + 0x50] = a1\n 26271: u64 [a5 + 0x48] = a0\n 26274: a1 = s1 + 0x2760\n 26278: a0 = u64 [s1 + 0x190]\n 26282: ra = 1114, jump @12\n      : @1011 [@dyn 557] (gas: 6)\n 26288: a0 = u64 [s1 + 0x100]\n 26292: ra = 0x45c\n 26296: ecalli 4 // 'caller'\n 26298: a2 = u64 [s1 + 0x108]\n 26302: t0 = 0x45e\n 26306: jump @1365\n      : @1012 [@dyn 558] (gas: 2)\n 26309: a2 = u64 [s1 + 0x108]\n 26313: t0 = 1118, jump @1365\n      : @1013 [@dyn 559] (gas: 38)\n 26319: a0 = a0 | a1\n 26322: a3 = a3 >> 0x20\n 26325: a2 = reverse a2\n 26327: a1 = a2 << 0x20\n 26330: a1 = a1 | a3\n 26333: a2 = a2 >> 0x20\n 26336: a5 = s1 + 0x1118\n 26340: u64 [a5 + 512] = 0\n 26344: u64 [a5 + 504] = 0\n 26348: u64 [a5 + 496] = 0\n 26352: a3 = u64 [s1 + 0x198]\n 26356: u64 [a5 + 0x1e8] = a3\n 26360: a3 = u64 [s1 + 0xf8]\n 26364: u64 [a5 + 0x208] = a3\n 26368: a3 = u64 [0x20060]\n 26373: a4 = u64 [0x20068]\n 26378: u64 [a5 + 544] = 0\n 26382: u64 [a5 + 536] = 0\n 26386: u64 [a5 + 0x260] = a3\n 26390: u64 [a5 + 0x258] = a4\n 26394: a3 = u64 [0x20070]\n 26399: a4 = u64 [0x20078]\n 26404: u64 [a5 + 528] = 0\n 26408: u64 [a5 + 576] = 0\n 26412: u64 [a5 + 0x250] = a3\n 26416: a3 = a5 + 0x200\n 26420: u64 [a3 + 0x48] = a4\n 26423: u64 [a3 + 0x38] = a2\n 26426: u64 [a3 + 0x30] = a1\n 26429: a1 = a5\n 26431: a2 = s1 + 0x1360\n 26435: a3 = s1 + 0x1340\n 26439: a4 = s1 + 0x1320\n 26443: a5 = s1 + 0x1300\n 26447: u64 [a1 + 0x228] = a0\n 26451: a0 = 0\n 26453: a1 = 0\n 26455: ra = 1120, jump @18\n      : @1014 [@dyn 560] (gas: 5)\n 26461: a0 = 0\n 26463: a1 = u64 [s1 + 0x110]\n 26467: a2 = 0\n 26469: ecalli 13 // 'seal_return'\n 26471: jump @905\n      : @1015 (gas: 4)\n 26474: a0 = s1 + 0x1040\n 26478: ra = 0x462\n 26482: t0 = 0x540\n 26486: jump @1420\n      : @1016 [@dyn 561] (gas: 15)\n 26489: a1 = s1 + 0x7ff\n 26493: a1 = a1 + 0x119\n 26497: a2 = a1 + 0x700\n 26501: a0 = u64 [a2 + 0x40]\n 26504: u64 [s1 + 0xf0] = a0\n 26508: a0 = u64 [a2 + 0x38]\n 26511: u64 [s1 + 0xf8] = a0\n 26515: a0 = u64 [a2 + 0x30]\n 26518: u64 [s1 + 0x138] = a0\n 26522: a0 = u64 [a2 + 0x28]\n 26525: u64 [s1 + 0x130] = a0\n 26529: a0 = s1 + 0x1020\n 26533: ra = 0x464\n 26537: t0 = 0x544\n 26541: jump @1431\n      : @1017 [@dyn 562] (gas: 15)\n 26544: a1 = s1 + 0x7ff\n 26548: a1 = a1 + 0x119\n 26552: a2 = a1 + 0x700\n 26556: a0 = u64 [a2 + 0x20]\n 26559: u64 [s1 + 0xd0] = a0\n 26563: a0 = u64 [a2 + 0x18]\n 26566: u64 [s1 + 0xc8] = a0\n 26570: a0 = u64 [a2 + 0x10]\n 26573: u64 [s1 + 0xc0] = a0\n 26577: a0 = u64 [a2 + 0x8]\n 26580: u64 [s1 + 0xb8] = a0\n 26584: a0 = s1 + 0x1000\n 26588: ra = 0x466\n 26592: t0 = 0x54a\n 26596: jump @1431\n      : @1018 [@dyn 563] (gas: 11)\n 26599: a0 = s1 + 0x7ff\n 26603: a0 = a0 + 0x119\n 26607: a2 = u32 [a0 + 0x6e8]\n 26611: a0 = a2 <u 0x1\n 26614: a1 = a2 + 0xffffffffffffffff\n 26617: a1 = a1 <u 0x32\n 26620: a1 = a1 ^ 0x1\n 26623: a1 = a0 if a2 == 0\n 26626: u64 [s1 + 0x110] = a2\n 26630: a1 = a0 if a2 == 0\n 26633: jump @1115 if a1 != 0\n      : @1019 (gas: 17)\n 26637: a0 = u64 [s1 + 0xf8]\n 26641: a0 = a0 << 0x20\n 26644: a2 = a0 >> 0x20\n 26647: a3 = s1 + 0x7ff\n 26651: a3 = a3 + 0x119\n 26655: u64 [a3 + 1728] = 0\n 26659: a0 = u64 [s1 + 0x130]\n 26663: a4 = a3 + 0x600\n 26667: u64 [a4 + 0xa8] = a0\n 26671: a0 = u64 [s1 + 0x138]\n 26675: u64 [a4 + 0xb0] = a0\n 26679: a1 = s1 + 0x7ff\n 26683: a1 = a1 + 0x7c1\n 26687: u64 [s1 + 0x108] = a2\n 26691: u64 [a4 + 0xb8] = a2\n 26695: a0 = 0\n 26697: ra = 1128, jump @9\n      : @1020 [@dyn 564] (gas: 11)\n 26703: a1 = s1 + 0x7ff\n 26707: a1 = a1 + 0x119\n 26711: u64 [a1 + 1696] = 0\n 26715: u64 [a1 + 1688] = 0\n 26719: u64 [a1 + 1672] = 0x3\n 26724: a2 = a1\n 26726: a0 = 0x20\n 26729: a1 = s1 + 0x7ff\n 26733: a1 = a1 + 0x7a1\n 26737: u64 [a2 + 1680] = 0\n 26741: ra = 1130, jump @9\n      : @1021 [@dyn 565] (gas: 4)\n 26747: a0 = 0x20170\n 26752: u64 [s1 + 0x198] = a0\n 26756: a0 = i32 [0x20170]\n 26761: jump @1023 if a0 >u 63\n      : @1022 (gas: 1)\n 26765: t0 = 1132, jump @1423\n      : @1023 [@dyn 566] (gas: 15)\n 26771: a0 = 0xffffffff\n 26781: u64 [s1 + 0x148] = a0\n 26785: a0 = sp + 0xffffffffffffffe0\n 26788: a2 = a0 & 0xffffffffffffffe0\n 26791: u64 [s1 + 0x188] = a2\n 26795: sp = a2\n 26797: a0 = 0x20180\n 26802: i32 a0 = a0 + 0\n 26804: i32 a2 = a2 + 0\n 26806: a1 = 0x40\n 26809: u64 [s1 + 0x190] = a0\n 26813: ra = 0x46e\n 26817: ecalli 8 // 'hash_keccak_256'\n 26819: t0 = 0x470\n 26823: jump @1390\n      : @1024 [@dyn 567] (gas: 1)\n 26826: t0 = 1136, jump @1390\n      : @1025 [@dyn 568] (gas: 9)\n 26832: a5 = a4 + 0x400\n 26836: u64 [a5 + 0xa0] = a3\n 26840: u64 [a5 + 0x98] = a2\n 26844: u64 [a5 + 0x90] = a1\n 26848: u64 [a5 + 0x88] = a0\n 26852: a0 = s1 + 0x7ff\n 26856: a0 = a0 + 0x781\n 26860: a1 = s1 + 0x25a0\n 26864: ra = 1138, jump @11\n      : @1026 [@dyn 569] (gas: 8)\n 26870: a0 = s1 + 0x7ff\n 26874: a0 = a0 + 0x119\n 26878: a0 = u64 [a0 + 0x668]\n 26882: u64 [s1 + 0xa8] = a0\n 26886: a0 = s1 + 0x2000\n 26890: i32 a0 = a0 + 0x5c0\n 26894: ecalli 9 // 'now'\n 26896: fallthrough\n      : @1027 (gas: 51)\n 26897: a0 = s1 + 0x2118\n 26901: t0 = u64 [a0 + 0x4c0]\n 26905: a4 = u64 [a0 + 0x4b8]\n 26909: u64 [s1 + 0x140] = a4\n 26913: t2 = u64 [a0 + 0x4b0]\n 26917: a3 = u64 [a0 + 0x4a8]\n 26921: u64 [s1 + 0x118] = a3\n 26925: a0 = clz t0\n 26927: a1 = clz a4\n 26929: a2 = a1 + 0x40\n 26932: a2 = a0 if t0 != 0\n 26935: a0 = clz t2\n 26937: a1 = clz a3\n 26939: a1 = a1 + 0x40\n 26942: a1 = a0 if t2 != 0\n 26945: a0 = a1 + 0x80\n 26949: a3 = a4 | t0\n 26952: a2 = a0 if a3 == 0\n 26955: a5 = a0 <u a1\n 26958: a5 = 0 if a3 != 0\n 26960: a4 = a5 >u 0\n 26962: a0 = a2 <u 0xf0\n 26966: a3 = a0 ^ 0x1\n 26969: a4 = a3 if a5 == 0\n 26972: a0 = a4 <u 0x1\n 26975: ra = a0 + 0xffffffffffffffff\n 26978: t1 = -a4\n 26980: a5 = -a5\n 26982: a3 = a5 - a3\n 26985: a2 = 0xef - a2\n 26989: a5 = t1 >u 0\n 26991: a0 = ra >u 0\n 26993: a0 = a5 if ra == 0\n 26996: a5 = a2 <u 0x100\n 27000: a5 = a5 ^ 0x1\n 27003: a1 = a3 >u 0\n 27005: a5 = a1 if a3 != 0\n 27008: a5 = a0 if a4 != 0\n 27011: u64 [s1 + 0xb0] = t2\n 27015: u64 [s1 + 0x128] = t0\n 27019: a0 = t2 | t0\n 27022: a4 = u64 [s1 + 0x118]\n 27026: a1 = u64 [s1 + 0x140]\n 27030: a1 = a1 | a4\n 27033: a0 = a0 | a1\n 27036: a0 = a0 <u 0x1\n 27039: a0 = a0 | a5\n 27042: a1 = a4\n 27044: a1 = 0 if a0 != 0\n 27046: u64 [s1 + 0x100] = a1\n 27050: jump @1121 if a0 != 0\n      : @1028 (gas: 1)\n 27054: t0 = 1140, jump @1437\n      : @1029 [@dyn 570] (gas: 1)\n 27060: jump @1121 if a0 == 0\n      : @1030 (gas: 18)\n 27064: a1 = a2 + 0x1\n 27067: u64 [s1 + 0x188] = a1\n 27071: a0 = a1 <u 0x1\n 27074: a0 = a0 + a3\n 27077: u64 [s1 + 0x180] = a0\n 27081: a0 = a0 | a1\n 27084: a0 = a0 <u 0x1\n 27087: a0 = a0 + t1\n 27090: u64 [s1 + 0x170] = a0\n 27094: a0 = a0 <u t1\n 27097: a0 = a0 + ra\n 27100: u64 [s1 + 0x178] = a0\n 27104: a1 = 0xff - a2\n 27108: u64 [s1 + 0x150] = a1\n 27112: a2 = 0x80 - a1\n 27116: a0 = u64 [s1 + 0x118]\n 27120: a1 = u64 [s1 + 0xb0]\n 27124: ra = 1142, jump @1443\n      : @1031 [@dyn 571] (gas: 6)\n 27130: u64 [s1 + 0x120] = a0\n 27134: u64 [s1 + 0x158] = a1\n 27138: a0 = u64 [s1 + 0x140]\n 27142: a1 = u64 [s1 + 0x128]\n 27146: a2 = u64 [s1 + 0x150]\n 27150: ra = 1144, jump @1448\n      : @1032 [@dyn 572] (gas: 7)\n 27156: u64 [s1 + 0x100] = a0\n 27160: u64 [s1 + 0xe8] = a1\n 27164: a0 = u64 [s1 + 0x150]\n 27168: a2 = a0 + 0xffffffffffffff80\n 27171: a0 = u64 [s1 + 0x118]\n 27175: a1 = u64 [s1 + 0xb0]\n 27179: ra = 1146, jump @1448\n      : @1033 [@dyn 573] (gas: 8)\n 27185: u64 [s1 + 0xe0] = a0\n 27189: u64 [s1 + 0xd8] = a1\n 27193: a2 = u64 [s1 + 0x150]\n 27197: a0 = a2 <u 0x80\n 27201: u64 [s1 + 0xa0] = a0\n 27205: a0 = u64 [s1 + 0x118]\n 27209: a1 = u64 [s1 + 0xb0]\n 27213: ra = 1148, jump @1448\n      : @1034 [@dyn 574] (gas: 1)\n 27219: t0 = 1150, jump @1424\n      : @1035 [@dyn 575] (gas: 4)\n 27225: a3 = u64 [s1 + 0xa0]\n 27229: a0 = 0 if a3 == 0\n 27231: u64 [a4 + 0x68] = a0\n 27234: jump @1119 if a1 == 0\n      : @1036 (gas: 30)\n 27238: a2 = a3\n 27240: a0 = u64 [s1 + 0x158]\n 27244: a1 = u64 [s1 + 0xe8]\n 27248: a0 = a0 | a1\n 27251: a5 = a3\n 27253: a1 = u64 [s1 + 0xd8]\n 27257: a0 = a1 if a2 == 0\n 27260: a2 = u64 [s1 + 0x128]\n 27264: a3 = a2\n 27266: a1 = a2\n 27268: a2 = u64 [s1 + 0x150]\n 27272: a3 = a0 if a2 != 0\n 27275: u64 [s1 + 0x158] = a3\n 27279: a0 = u64 [s1 + 0x120]\n 27283: a3 = u64 [s1 + 0x100]\n 27287: a0 = a0 | a3\n 27290: a3 = u64 [s1 + 0xe0]\n 27294: a0 = a3 if a5 == 0\n 27297: a4 = u64 [s1 + 0x140]\n 27301: a3 = a4\n 27303: a3 = a0 if a2 != 0\n 27306: u64 [s1 + 0x150] = a3\n 27310: a0 = u64 [s1 + 0x160]\n 27314: a0 = 0 if a5 == 0\n 27316: u64 [s1 + 0x160] = a0\n 27320: u64 [s1 + 232] = 0x15180\n 27327: a0 = u64 [s1 + 0x188]\n 27331: a2 = a0 + 0xffffffffffffff80\n 27334: a0 = a4\n 27336: ra = 1152, jump @1443\n      : @1037 [@dyn 576] (gas: 6)\n 27342: u64 [s1 + 0x120] = a0\n 27346: u64 [s1 + 0xe0] = a1\n 27350: a0 = u64 [s1 + 0x118]\n 27354: a1 = u64 [s1 + 0xb0]\n 27358: a2 = u64 [s1 + 0x188]\n 27362: ra = 1154, jump @1443\n      : @1038 [@dyn 577] (gas: 7)\n 27368: u64 [s1 + 0xd8] = a0\n 27372: u64 [s1 + 0x100] = a1\n 27376: a1 = u64 [s1 + 0x188]\n 27380: a2 = 0x80 - a1\n 27384: a0 = u64 [s1 + 0x140]\n 27388: a1 = u64 [s1 + 0x128]\n 27392: ra = 1156, jump @1448\n      : @1039 [@dyn 578] (gas: 20)\n 27398: a2 = u64 [s1 + 0x100]\n 27402: a1 = a1 | a2\n 27405: a2 = u64 [s1 + 0x188]\n 27409: a3 = a2 <u 0x80\n 27413: u64 [s1 + 0x100] = a3\n 27417: a4 = u64 [s1 + 0xe0]\n 27421: a1 = a4 if a3 == 0\n 27424: a4 = u64 [s1 + 0xb0]\n 27428: a4 = a1 if a2 != 0\n 27431: u64 [s1 + 0xb0] = a4\n 27435: a1 = u64 [s1 + 0xd8]\n 27439: a0 = a0 | a1\n 27442: a1 = u64 [s1 + 0x120]\n 27446: a0 = a1 if a3 == 0\n 27449: a1 = u64 [s1 + 0x118]\n 27453: a1 = a0 if a2 != 0\n 27456: u64 [s1 + 0x118] = a1\n 27460: a0 = u64 [s1 + 0x140]\n 27464: a1 = u64 [s1 + 0x128]\n 27468: ra = 1158, jump @1443\n      : @1040 [@dyn 579] (gas: 15)\n 27474: t2 = u64 [s1 + 0x118]\n 27478: t1 = u64 [s1 + 0xb0]\n 27482: u64 [s1 + 320] = 0\n 27486: u64 [s1 + 296] = 0\n 27490: a2 = u64 [s1 + 0x100]\n 27494: a1 = 0 if a2 == 0\n 27496: a0 = 0 if a2 == 0\n 27498: u64 [s1 + 0x120] = a0\n 27502: a3 = u64 [s1 + 0xe8]\n 27506: a2 = a3 + 0xffffffffffffffff\n 27509: u64 [s1 + 0xe0] = a2\n 27513: a2 = a3 >u 0\n 27515: a2 = a2 + 0xffffffffffffffff\n 27518: u64 [s1 + 0xd8] = a2\n 27522: fallthrough\n      : @1041 (gas: 58)\n 27523: a2 = t2 >> 0x3f\n 27526: a3 = t1 << 0x1\n 27529: a2 = a2 | a3\n 27532: a3 = t2 << 0x1\n 27535: t2 = u64 [s1 + 0x158]\n 27539: a4 = t2 >> 0x3f\n 27542: a3 = a3 | a4\n 27545: u64 [s1 + 0x118] = a3\n 27549: ra = u64 [s1 + 0xd8]\n 27553: a0 = t1\n 27555: t1 = ra ^ a2\n 27558: t0 = ra <u a2\n 27561: a4 = u64 [s1 + 0xe0]\n 27565: a5 = a4 <u a3\n 27568: a5 = t0 if t1 != 0\n 27571: a1 = a1 << 0x1\n 27574: a4 = u64 [s1 + 0x120]\n 27578: a3 = a4 >> 0x3f\n 27581: a1 = a1 | a3\n 27584: u64 [s1 + 0x100] = a1\n 27588: a3 = a0 >> 0x3f\n 27591: a0 = a4 << 0x1\n 27594: a3 = a3 | a0\n 27597: a0 = t2 << 0x1\n 27600: a4 = u64 [s1 + 0x150]\n 27604: a1 = a4 >> 0x3f\n 27607: t0 = a0 | a1\n 27610: a1 = a4 << 0x1\n 27613: a4 = u64 [s1 + 0x160]\n 27617: t1 = a4 >> 0x3f\n 27620: t1 = a1 | t1\n 27623: a1 = a4 << 0x1\n 27626: a4 = u64 [s1 + 0x168]\n 27630: t2 = a4 >> 0x3f\n 27633: a1 = a1 | t2\n 27636: a4 = a4 << 0x1\n 27639: a0 = u64 [s1 + 0x140]\n 27643: a4 = a4 | a0\n 27646: u64 [s1 + 0x168] = a4\n 27650: a0 = u64 [s1 + 0x128]\n 27654: a1 = a1 | a0\n 27657: u64 [s1 + 0x160] = a1\n 27661: a1 = a0 | t1\n 27664: u64 [s1 + 0x150] = a1\n 27668: a0 = a0 | t0\n 27671: u64 [s1 + 0x158] = a0\n 27675: a0 = ra - a3\n 27678: a0 = a0 <u a5\n 27681: a1 = ra <u a3\n 27684: a5 = u64 [s1 + 0x100]\n 27688: a4 = ra - a5\n 27691: a4 = a4 - a1\n 27694: a4 = a4 - a0\n 27697: ra = a4 >>a 0x3f\n 27700: a0 = u64 [s1 + 0xe8]\n 27704: a0 = ra & a0\n 27707: a1 = u64 [s1 + 0x118]\n 27711: t0 = 1160, jump @1442\n      : @1042 [@dyn 580] (gas: 2)\n 27717: u64 [s1 + 0x120] = a0\n 27721: t0 = 1162, jump @1409\n      : @1043 [@dyn 581] (gas: 18)\n 27727: t0 = a4 <u a2\n 27730: a2 = a4 - a2\n 27733: a4 = a3 <u 0x1\n 27736: a5 = a5 - a4\n 27739: a4 = u64 [a0 + 0x78]\n 27742: a4 = a4 - t0\n 27745: a3 = a3 + 0xffffffffffffffff\n 27748: u64 [a0 + 0x80] = a5\n 27752: u64 [a0 + 0x78] = a4\n 27755: t0 = a5 | a4\n 27758: u64 [a0 + 0x88] = a3\n 27762: a4 = a3 | a2\n 27765: a3 = a4 | t0\n 27768: a4 = ra & 0x1\n 27771: u64 [a0 + 0x40] = a4\n 27774: u64 [a0 + 0x70] = a2\n 27777: u64 [s1 + 296] = 0\n 27781: jump @1041 if a3 != 0\n      : @1044 (gas: 1)\n 27785: jump @1120\n      : @1045 (gas: 2)\n 27788: u64 [s1 + 344] = 0\n 27792: fallthrough\n      : @1046 (gas: 5)\n 27793: a0 = u64 [s1 + 0x178]\n 27797: a0 = a0 << 0x1\n 27800: a4 = u64 [s1 + 0x158]\n 27804: a4 = a4 | a0\n 27807: fallthrough\n      : @1047 (gas: 2)\n 27808: a0 = u64 [s1 + 0x108]\n 27812: jump @1182 if a0 >=u a4\n      : @1048 (gas: 9)\n 27816: a0 = u64 [s1 + 0xd8]\n 27820: a0 = a0 << 0x20\n 27823: a1 = a0 >> 0x20\n 27826: a0 = a1 + 0xffffffffffffffff\n 27829: a0 = a0 <u 0x32\n 27832: a0 = 0 if a1 == 0\n 27834: u64 [s1 + 0x138] = a1\n 27838: a0 = 0 if a1 == 0\n 27840: jump @1186 if a0 == 0\n      : @1049 (gas: 20)\n 27844: a0 = 0xffffffff\n 27854: u64 [s1 + 0x178] = a0\n 27858: a0 = u64 [s1 + 0x100]\n 27862: a0 = a0 << 0x20\n 27865: a2 = a0 >> 0x20\n 27868: a0 = s1 + 0x7ff\n 27872: a0 = a0 + 0x119\n 27876: u64 [a0 + 0] = 0\n 27878: a1 = u64 [s1 + 0x110]\n 27882: a3 = s1 + 0x1000\n 27886: u64 [a3 + 0xfffffffffffff900] = a1\n 27890: a1 = u64 [s1 + 0x118]\n 27894: a3 = s1 + 0x1000\n 27898: u64 [a3 + 0xfffffffffffff908] = a1\n 27902: a1 = s1 + 0x7ff\n 27906: a1 = a1 + 0x101\n 27910: u64 [s1 + 0x148] = a2\n 27914: u64 [a0 + 0xfffffffffffffff8] = a2\n 27917: a0 = 0\n 27919: ra = 1164, jump @9\n      : @1050 [@dyn 582] (gas: 12)\n 27925: a0 = s1 + 0x1000\n 27929: u64 [a0 + 4294965496] = 0\n 27933: a0 = s1 + 0x1000\n 27937: u64 [a0 + 4294965488] = 0\n 27941: a1 = s1 + 0x1000\n 27945: u64 [a1 + 4294965472] = 0x3\n 27950: a0 = 0x20\n 27953: a1 = s1 + 0x7ff\n 27957: a1 = a1 + 0xe1\n 27961: a2 = s1 + 0x1000\n 27965: u64 [a2 + 4294965480] = 0\n 27969: ra = 1166, jump @9\n      : @1051 [@dyn 583] (gas: 5)\n 27975: a0 = 0x20170\n 27980: u64 [s1 + 0x198] = a0\n 27984: a0 = i32 [0x20170]\n 27989: a1 = 0x3f\n 27992: jump @1053 if a1 <u a0\n      : @1052 (gas: 1)\n 27995: t0 = 1168, jump @1423\n      : @1053 [@dyn 584] (gas: 3)\n 28001: a0 = 0xffffffff00000000\n 28011: u64 [s1 + 0x130] = a0\n 28015: t0 = 1170, jump @1429\n      : @1054 [@dyn 585] (gas: 10)\n 28021: a0 = 0x20180\n 28026: i32 a0 = a0 + 0\n 28028: i32 a2 = a2 + 0\n 28030: a1 = 0x40\n 28033: u64 [s1 + 0x188] = a0\n 28037: ra = 0x494\n 28041: ecalli 8 // 'hash_keccak_256'\n 28043: a3 = u64 [s1 + 0x190]\n 28047: t0 = 0x496\n 28051: jump @1391\n      : @1055 [@dyn 586] (gas: 2)\n 28054: a3 = u64 [s1 + 0x190]\n 28058: t0 = 1174, jump @1391\n      : @1056 [@dyn 587] (gas: 8)\n 28064: u64 [a5 + 0x40] = a3\n 28067: u64 [a5 + 0x38] = a2\n 28070: u64 [a5 + 0x30] = a1\n 28073: u64 [a5 + 0x28] = a0\n 28076: a0 = s1 + 0x7ff\n 28080: a0 = a0 + 0xc1\n 28084: a1 = s1 + 0x2440\n 28088: ra = 1176, jump @11\n      : @1057 [@dyn 588] (gas: 9)\n 28094: a0 = s1 + 0x1000\n 28098: a0 = u64 [a0 + 0xfffffffffffff8c0]\n 28102: u64 [s1 + 320] = 0\n 28106: a3 = 0\n 28108: a1 = u64 [s1 + 0x178]\n 28112: a0 = a0 & a1\n 28115: u64 [s1 + 0x128] = a0\n 28119: a2 = 0x1\n 28122: fallthrough\n      : @1058 (gas: 12)\n 28123: a1 = 0\n 28125: a1 = 0 if a3 == 0\n 28127: a4 = s1 + 0x100\n 28131: a0 = u64 [a4 + 0x28]\n 28134: u64 [a4 + 0x90] = a2\n 28138: a0 = a0 <u a2\n 28141: a2 = 0\n 28143: a2 = a0 if a3 == 0\n 28146: u64 [a4 + 128] = 0\n 28150: a0 = 0\n 28152: a2 = a1 if a0 != 0\n 28155: jump @1190 if a2 != 0\n      : @1059 (gas: 6)\n 28159: a2 = s1 + 0x100\n 28163: a0 = u64 [a2 + 0x78]\n 28166: a1 = u64 [a2 + 0x40]\n 28169: a0 = a0 & a1\n 28172: a1 = u64 [a2 + 0x38]\n 28175: jump @1190 if a0 >=u a1\n      : @1060 (gas: 15)\n 28179: a0 = s1 + 0x1000\n 28183: u64 [a0 + 4294965432] = 0\n 28187: a0 = u64 [s1 + 0x110]\n 28191: a1 = s1 + 0x1000\n 28195: u64 [a1 + 0xfffffffffffff8a0] = a0\n 28199: a0 = u64 [s1 + 0x118]\n 28203: a1 = s1 + 0x1000\n 28207: u64 [a1 + 0xfffffffffffff8a8] = a0\n 28211: a1 = s1 + 0x7ff\n 28215: a1 = a1 + 0xa1\n 28219: a0 = u64 [s1 + 0x148]\n 28223: a2 = s1 + 0x1000\n 28227: u64 [a2 + 0xfffffffffffff8b0] = a0\n 28231: a0 = 0\n 28233: ra = 1178, jump @9\n      : @1061 [@dyn 589] (gas: 12)\n 28239: a0 = s1 + 0x1000\n 28243: u64 [a0 + 4294965400] = 0\n 28247: a0 = s1 + 0x1000\n 28251: u64 [a0 + 4294965392] = 0\n 28255: a0 = s1 + 0x1000\n 28259: u64 [a0 + 4294965384] = 0\n 28263: a0 = 0x20\n 28266: a1 = s1 + 0x7ff\n 28270: a1 = a1 + 0x81\n 28274: a3 = s1 + 0x1000\n 28278: u64 [a3 + 4294965376] = 0x2\n 28283: ra = 1180, jump @9\n      : @1062 [@dyn 590] (gas: 1)\n 28289: t0 = 1182, jump @1403\n      : @1063 [@dyn 591] (gas: 1)\n 28295: jump @1065 if a1 <u a0\n      : @1064 (gas: 1)\n 28298: t0 = 1184, jump @1423\n      : @1065 [@dyn 592] (gas: 1)\n 28304: t0 = 1186, jump @1383\n      : @1066 [@dyn 593] (gas: 4)\n 28310: ra = 0x4a4\n 28314: ecalli 8 // 'hash_keccak_256'\n 28316: t0 = 0x4a6\n 28320: jump @1372\n      : @1067 [@dyn 594] (gas: 1)\n 28323: t0 = 1190, jump @1372\n      : @1068 [@dyn 595] (gas: 13)\n 28329: a1 = s1 + 0x1000\n 28333: u64 [a1 + 0xfffffffffffff878] = a0\n 28337: a1 = s1 + 0x1000\n 28341: u64 [a1 + 0xfffffffffffff870] = a0\n 28345: a1 = s1 + 0x1000\n 28349: u64 [a1 + 0xfffffffffffff868] = a0\n 28353: a1 = s1 + 0x7ff\n 28357: a1 = a1 + 0x61\n 28360: a0 = u64 [s1 + 0x190]\n 28364: a2 = s1 + 0x1000\n 28368: u64 [a2 + 0xfffffffffffff860] = a0\n 28372: a0 = 0\n 28374: ra = 1192, jump @9\n      : @1069 [@dyn 596] (gas: 16)\n 28380: a0 = u64 [s1 + 0x150]\n 28384: a1 = s1 + 0x1000\n 28388: u64 [a1 + 0xfffffffffffff858] = a0\n 28392: a0 = u64 [s1 + 0x158]\n 28396: a1 = s1 + 0x1000\n 28400: u64 [a1 + 0xfffffffffffff850] = a0\n 28404: a0 = u64 [s1 + 0x160]\n 28408: a1 = s1 + 0x1000\n 28412: u64 [a1 + 0xfffffffffffff848] = a0\n 28416: a0 = 0x20\n 28419: a1 = s1 + 0x7ff\n 28423: a1 = a1 + 0x41\n 28426: a2 = u64 [s1 + 0x168]\n 28430: a3 = s1 + 0x1000\n 28434: u64 [a3 + 0xfffffffffffff840] = a2\n 28438: ra = 1194, jump @9\n      : @1070 [@dyn 597] (gas: 1)\n 28444: t0 = 1196, jump @1403\n      : @1071 [@dyn 598] (gas: 1)\n 28450: jump @1073 if a1 <u a0\n      : @1072 (gas: 1)\n 28453: t0 = 1198, jump @1433\n      : @1073 [@dyn 599] (gas: 1)\n 28459: t0 = 1200, jump @1414\n      : @1074 [@dyn 600] (gas: 5)\n 28465: ra = 0x4b2\n 28469: ecalli 8 // 'hash_keccak_256'\n 28471: a3 = u64 [s1 + 0x168]\n 28475: t0 = 0x4b4\n 28479: jump @1411\n      : @1075 [@dyn 601] (gas: 2)\n 28482: a3 = u64 [s1 + 0x168]\n 28486: t0 = 1204, jump @1411\n      : @1076 [@dyn 602] (gas: 12)\n 28492: a1 = u64 [s1 + 0x170]\n 28496: u64 [s1 + 0x160] = a2\n 28500: u64 [a1 + 0x18] = a2\n 28503: u64 [s1 + 0x168] = a0\n 28507: u64 [a1 + 0x10] = a0\n 28510: u64 [s1 + 0x158] = a4\n 28514: u64 [a1 + 0x8] = a4\n 28517: u64 [s1 + 0x150] = a5\n 28521: u64 [a1] = a5\n 28523: a0 = s1 + 0x7ff\n 28527: a0 = a0 + 0x21\n 28530: ra = 1206, jump @11\n      : @1077 [@dyn 603] (gas: 13)\n 28536: a0 = s1 + 0x1000\n 28540: a0 = u64 [a0 + 0xfffffffffffff828]\n 28544: a1 = s1 + 0x1000\n 28548: a1 = u64 [a1 + 0xfffffffffffff830]\n 28552: a2 = s1 + 0x1000\n 28556: a2 = u64 [a2 + 0xfffffffffffff820]\n 28560: a0 = a0 & 0xffffffffffffffff\n 28563: a1 = a1 & 0xffffffffffffffff\n 28566: a3 = u64 [s1 + 0x130]\n 28570: a2 = a2 & a3\n 28573: a1 = a1 | a2\n 28576: a0 = a0 | a1\n 28579: jump @1109 if a0 == 0\n      : @1078 (gas: 6)\n 28583: a5 = s1 + 0x100\n 28587: a1 = u64 [a5 + 0x50]\n 28590: a0 = a1 + 0x2\n 28593: a1 = a0 <u a1\n 28596: a3 = u64 [a5 + 0x58]\n 28599: t0 = 1208, jump @1417\n      : @1079 [@dyn 604] (gas: 15)\n 28605: a1 = u64 [a5 + 0x68]\n 28608: a3 = a3 + a1\n 28611: a1 = a3 <u a1\n 28614: a4 = u64 [a5 + 0x60]\n 28617: a1 = a1 + a4\n 28620: a4 = s1 + 0x2118\n 28624: a5 = a4 + 0x300\n 28628: u64 [a5 + 0x48] = a0\n 28631: u64 [a5 + 0x50] = a2\n 28634: u64 [a5 + 0x58] = a3\n 28637: u64 [a5 + 0x60] = a1\n 28640: a0 = s1 + 0x7ff\n 28644: a0 = a0 + 0x1\n 28647: a1 = s1 + 0x2460\n 28651: ra = 1210, jump @11\n      : @1080 [@dyn 605] (gas: 4)\n 28657: a0 = s1 + 0x1000\n 28661: a0 = u64 [a0 + 0xfffffffffffff808]\n 28665: a0 = a0 & 0xff\n 28669: jump @1109 if a0 != 0\n      : @1081 (gas: 10)\n 28673: u64 [s1 + 2040] = 0\n 28677: a0 = u64 [s1 + 0x110]\n 28681: u64 [s1 + 0x7e0] = a0\n 28685: a0 = u64 [s1 + 0x118]\n 28689: u64 [s1 + 0x7e8] = a0\n 28693: a1 = s1 + 0x7e0\n 28697: a0 = u64 [s1 + 0x148]\n 28701: u64 [s1 + 0x7f0] = a0\n 28705: a0 = 0\n 28707: ra = 1212, jump @9\n      : @1082 [@dyn 606] (gas: 7)\n 28713: u64 [s1 + 2008] = 0\n 28717: u64 [s1 + 2000] = 0\n 28721: u64 [s1 + 1992] = 0\n 28725: a0 = 0x20\n 28728: a1 = s1 + 0x7c0\n 28732: u64 [s1 + 1984] = 0x4\n 28737: ra = 1214, jump @9\n      : @1083 [@dyn 607] (gas: 1)\n 28743: t0 = 1216, jump @1403\n      : @1084 [@dyn 608] (gas: 1)\n 28749: jump @1086 if a1 <u a0\n      : @1085 (gas: 1)\n 28752: t0 = 1218, jump @1433\n      : @1086 [@dyn 609] (gas: 1)\n 28758: t0 = 1220, jump @1383\n      : @1087 [@dyn 610] (gas: 4)\n 28764: ra = 0x4c6\n 28768: ecalli 8 // 'hash_keccak_256'\n 28770: t0 = 0x4c8\n 28774: jump @1378\n      : @1088 [@dyn 611] (gas: 1)\n 28777: t0 = 1224, jump @1378\n      : @1089 [@dyn 612] (gas: 8)\n 28783: u64 [s1 + 1976] = 0\n 28787: u64 [s1 + 1968] = 0\n 28791: u64 [s1 + 1960] = 0\n 28795: a1 = s1 + 0x7a0\n 28799: a0 = u64 [s1 + 0x108]\n 28803: u64 [s1 + 0x7a0] = a0\n 28807: a0 = 0\n 28809: ra = 1226, jump @9\n      : @1090 [@dyn 613] (gas: 12)\n 28815: a0 = u64 [s1 + 0x158]\n 28819: a3 = s1 + 0x700\n 28823: u64 [a3 + 0x98] = a0\n 28827: a0 = u64 [s1 + 0x160]\n 28831: u64 [a3 + 0x90] = a0\n 28835: a0 = u64 [s1 + 0x168]\n 28839: u64 [a3 + 0x88] = a0\n 28843: a0 = 0x20\n 28846: a1 = s1 + 0x780\n 28850: a2 = u64 [s1 + 0x170]\n 28854: u64 [a3 + 0x80] = a2\n 28858: ra = 1228, jump @9\n      : @1091 [@dyn 614] (gas: 1)\n 28864: t0 = 1230, jump @1403\n      : @1092 [@dyn 615] (gas: 1)\n 28870: jump @1094 if a1 <u a0\n      : @1093 (gas: 1)\n 28873: t0 = 1232, jump @1433\n      : @1094 [@dyn 616] (gas: 1)\n 28879: t0 = 1234, jump @1383\n      : @1095 [@dyn 617] (gas: 4)\n 28885: ra = 0x4d4\n 28889: ecalli 8 // 'hash_keccak_256'\n 28891: t0 = 0x4d6\n 28895: jump @1372\n      : @1096 [@dyn 618] (gas: 1)\n 28898: t0 = 1238, jump @1372\n      : @1097 [@dyn 619] (gas: 8)\n 28904: u64 [s1 + 0x778] = a0\n 28908: u64 [s1 + 0x770] = a0\n 28912: u64 [s1 + 0x768] = a0\n 28916: a1 = s1 + 0x760\n 28920: a0 = u64 [s1 + 0x190]\n 28924: u64 [s1 + 0x760] = a0\n 28928: a0 = 0\n 28930: ra = 1240, jump @9\n      : @1098 [@dyn 620] (gas: 12)\n 28936: a0 = u64 [s1 + 0x150]\n 28940: a3 = s1 + 0x700\n 28944: u64 [a3 + 0x58] = a0\n 28947: a0 = u64 [s1 + 0x158]\n 28951: u64 [a3 + 0x50] = a0\n 28954: a0 = u64 [s1 + 0x160]\n 28958: u64 [a3 + 0x48] = a0\n 28961: a0 = 0x20\n 28964: a1 = s1 + 0x740\n 28968: a2 = u64 [s1 + 0x168]\n 28972: u64 [a3 + 0x40] = a2\n 28975: ra = 1242, jump @9\n      : @1099 [@dyn 621] (gas: 1)\n 28981: t0 = 1244, jump @1403\n      : @1100 [@dyn 622] (gas: 1)\n 28987: jump @1102 if a1 <u a0\n      : @1101 (gas: 1)\n 28990: t0 = 1246, jump @1433\n      : @1102 [@dyn 623] (gas: 1)\n 28996: t0 = 1248, jump @1414\n      : @1103 [@dyn 624] (gas: 5)\n 29002: ra = 0x4e2\n 29006: ecalli 8 // 'hash_keccak_256'\n 29008: a3 = u64 [s1 + 0x168]\n 29012: t0 = 0x4e4\n 29016: jump @1392\n      : @1104 [@dyn 625] (gas: 2)\n 29019: a3 = u64 [s1 + 0x168]\n 29023: t0 = 1252, jump @1392\n      : @1105 [@dyn 626] (gas: 2)\n 29029: a0 = s1 + 0x720\n 29033: ra = 1254, jump @11\n      : @1106 [@dyn 627] (gas: 3)\n 29039: a0 = u64 [s1 + 0x720]\n 29043: a0 = a0 & 0x5\n 29046: jump @1109 if a0 != 1\n      : @1107 (gas: 28)\n 29051: a0 = u64 [s1 + 0x190]\n 29055: a2 = s1 + 0x600\n 29059: u64 [a2 + 0xc0] = a0\n 29063: a0 = u64 [s1 + 0x108]\n 29067: u64 [a2 + 0xe0] = a0\n 29071: a0 = u64 [s1 + 0x110]\n 29075: a4 = s1 + 0x700\n 29079: u64 [a4] = a0\n 29081: a1 = u64 [s1 + 0x180]\n 29085: u64 [a2 + 0xc8] = a1\n 29089: a0 = u64 [s1 + 0xe0]\n 29093: u64 [a2 + 0xe8] = a0\n 29097: a0 = u64 [s1 + 0x118]\n 29101: u64 [a4 + 0x8] = a0\n 29104: u64 [a2 + 0xd0] = a1\n 29108: a0 = u64 [s1 + 0xe8]\n 29112: u64 [a2 + 0xf0] = a0\n 29116: a0 = u64 [s1 + 0x100]\n 29120: u64 [a4 + 0x10] = a0\n 29123: u64 [a2 + 0xd8] = a1\n 29127: a0 = u64 [s1 + 0xf0]\n 29131: u64 [a2 + 0xf8] = a0\n 29135: a0 = s1 + 0x700\n 29139: a1 = s1 + 0x6e0\n 29143: a2 = s1 + 0x6c0\n 29147: a3 = u64 [s1 + 0xf8]\n 29151: u64 [a4 + 0x18] = a3\n 29154: ra = 1256, jump @1215\n      : @1108 [@dyn 628] (gas: 7)\n 29160: a2 = s1 + 0x100\n 29164: a0 = u64 [a2 + 0x40]\n 29167: a0 = a0 + 0x1\n 29170: a1 = u64 [a2 + 0x78]\n 29173: a0 = a0 & a1\n 29176: u64 [a2 + 0x40] = a0\n 29179: fallthrough\n      : @1109 (gas: 6)\n 29180: a3 = 0\n 29182: a0 = u64 [s1 + 0x190]\n 29186: a0 = a0 + 0x1\n 29189: a1 = u64 [s1 + 0x178]\n 29193: a2 = a0 & a1\n 29196: jump @1058\n      : @1110 (gas: 3)\n 29199: t0 = 0x4ea\n 29203: a2 = s1 + 0x1118\n 29207: fallthrough\n      : @1111 [@dyn 629] (gas: 8)\n 29208: u64 [a2 + 664] = 0\n 29212: u64 [a2 + 656] = 0\n 29216: a0 = 0xc98289f000000000\n 29226: u64 [a2 + 0x2a0] = a0\n 29230: a1 = s1 + 0x13a0\n 29234: u64 [a2 + 648] = 0\n 29238: a0 = 0\n 29240: ra = 1260, jump @9\n      : @1112 [@dyn 630] (gas: 3)\n 29246: a0 = u64 [s1 + 0x118]\n 29250: a0 = i32 [a0]\n 29252: jump @1114 if a0 >u 31\n      : @1113 (gas: 3)\n 29256: a1 = u64 [s1 + 0x118]\n 29260: u32 [a1 + 0] = 0x20\n 29263: fallthrough\n      : @1114 (gas: 5)\n 29264: a0 = 0x1\n 29267: a2 = 0x4\n 29270: a1 = u64 [s1 + 0x110]\n 29274: ecalli 13 // 'seal_return'\n 29276: fallthrough\n      : @1115 (gas: 11)\n 29277: a2 = s1 + 0x7ff\n 29281: a2 = a2 + 0x119\n 29285: u64 [a2 + 1752] = 0\n 29289: u64 [a2 + 1744] = 0\n 29293: a0 = 0x7862e95900000000\n 29303: u64 [a2 + 0x6e0] = a0\n 29307: a1 = s1 + 0x7ff\n 29311: a1 = a1 + 0x7e1\n 29315: u64 [a2 + 1736] = 0\n 29319: a0 = 0\n 29321: ra = 1262, jump @9\n      : @1116 [@dyn 631] (gas: 2)\n 29327: a1 = i32 [0x20170]\n 29332: jump @1118 if a1 >u 31\n      : @1117 (gas: 3)\n 29336: u32 [0x20170] = 0x20\n 29342: a1 = 0x20180\n 29347: jump @723\n      : @1118 (gas: 2)\n 29350: a1 = 0x20180\n 29355: jump @723\n      : @1119 (gas: 2)\n 29358: u64 [s1 + 320] = 0\n 29362: fallthrough\n      : @1120 (gas: 7)\n 29363: a2 = s1 + 0x100\n 29367: a0 = u64 [a2 + 0x68]\n 29370: a0 = a0 << 0x1\n 29373: a1 = u64 [a2 + 0x40]\n 29376: a0 = a0 | a1\n 29379: u64 [a2] = a0\n 29381: fallthrough\n      : @1121 (gas: 10)\n 29382: u64 [s1 + 384] = 0\n 29386: a3 = 0\n 29388: a0 = u64 [s1 + 0x148]\n 29392: a1 = u64 [s1 + 0xa8]\n 29396: a0 = a0 & a1\n 29399: u64 [s1 + 0xe8] = a0\n 29403: a0 = 0xffffffff00000000\n 29413: u64 [s1 + 0xe0] = a0\n 29417: a2 = 0x1\n 29420: fallthrough\n      : @1122 (gas: 11)\n 29421: a1 = 0\n 29423: a1 = 0 if a3 == 0\n 29425: a0 = u64 [s1 + 0xe8]\n 29429: u64 [s1 + 0x150] = a2\n 29433: a0 = a0 <u a2\n 29436: a2 = 0\n 29438: a2 = a0 if a3 == 0\n 29441: u64 [s1 + 320] = 0\n 29445: a0 = 0\n 29447: a2 = a1 if a0 != 0\n 29450: jump @1124 if a2 == 0\n      : @1123 (gas: 1)\n 29453: jump @943\n      : @1124 (gas: 6)\n 29456: a2 = s1 + 0x100\n 29460: a0 = u64 [a2 + 0x48]\n 29463: a1 = u64 [a2 + 0x80]\n 29467: a0 = a0 & a1\n 29470: a1 = u64 [a2 + 0x10]\n 29473: jump @1126 if a0 <u a1\n      : @1125 (gas: 1)\n 29476: jump @943\n      : @1126 (gas: 14)\n 29479: a2 = s1 + 0x7ff\n 29483: a2 = a2 + 0x119\n 29487: u64 [a2 + 1632] = 0\n 29491: a0 = u64 [s1 + 0x130]\n 29495: a3 = a2 + 0x600\n 29499: u64 [a3 + 0x48] = a0\n 29502: a0 = u64 [s1 + 0x138]\n 29506: u64 [a3 + 0x50] = a0\n 29509: a1 = s1 + 0x7ff\n 29513: a1 = a1 + 0x761\n 29517: a0 = u64 [s1 + 0x108]\n 29521: u64 [a3 + 0x58] = a0\n 29524: a0 = 0\n 29526: ra = 1264, jump @9\n      : @1127 [@dyn 632] (gas: 11)\n 29532: a0 = s1 + 0x7ff\n 29536: a0 = a0 + 0x119\n 29540: u64 [a0 + 1600] = 0\n 29544: u64 [a0 + 1592] = 0\n 29548: u64 [a0 + 1584] = 0\n 29552: a3 = a0\n 29554: a0 = 0x20\n 29557: a1 = s1 + 0x7ff\n 29561: a1 = a1 + 0x741\n 29565: u64 [a3 + 1576] = 0x2\n 29570: ra = 1266, jump @9\n      : @1128 [@dyn 633] (gas: 1)\n 29576: t0 = 1268, jump @1403\n      : @1129 [@dyn 634] (gas: 1)\n 29582: jump @1131 if a1 <u a0\n      : @1130 (gas: 1)\n 29585: t0 = 1270, jump @1423\n      : @1131 [@dyn 635] (gas: 4)\n 29591: a0 = sp + 0xffffffffffffffe0\n 29594: a0 = a0 & 0xffffffffffffffe0\n 29597: u64 [s1 + 0x188] = a0\n 29601: t0 = 1272, jump @1364\n      : @1132 [@dyn 636] (gas: 3)\n 29607: ra = 0x4fa\n 29611: ecalli 8 // 'hash_keccak_256'\n 29613: fallthrough\n      : @1133 [@dyn 637] (gas: 8)\n 29614: a3 = u64 [s1 + 0x188]\n 29618: a0 = u64 [a3 + 0x18]\n 29621: a1 = u64 [a3 + 0x10]\n 29624: a2 = u64 [a3 + 0x8]\n 29627: a3 = u64 [a3]\n 29629: a0 = reverse a0\n 29631: u64 [s1 + 0x178] = a0\n 29635: t0 = 1276, jump @1419\n      : @1134 [@dyn 638] (gas: 17)\n 29641: a0 = sp + 0xffffffffffffffe0\n 29644: a0 = a0 & 0xffffffffffffffe0\n 29647: u64 [s1 + 0x188] = a0\n 29651: sp = a0\n 29653: a2 = s1 + 0x7ff\n 29657: a2 = a2 + 0x119\n 29661: a0 = u64 [s1 + 0x140]\n 29665: a3 = a2 + 0x600\n 29669: u64 [a3 + 0x20] = a0\n 29672: u64 [a3 + 0x18] = a0\n 29675: u64 [a3 + 0x10] = a0\n 29678: a1 = s1 + 0x7ff\n 29682: a1 = a1 + 0x721\n 29686: a0 = u64 [s1 + 0x150]\n 29690: u64 [a3 + 0x8] = a0\n 29693: a0 = 0\n 29695: ra = 1278, jump @9\n      : @1135 [@dyn 639] (gas: 15)\n 29701: a0 = u64 [s1 + 0x160]\n 29705: a1 = s1 + 0x7ff\n 29709: a1 = a1 + 0x119\n 29713: u64 [a1 + 0x600] = a0\n 29717: a0 = u64 [s1 + 0x168]\n 29721: u64 [a1 + 0x5f8] = a0\n 29725: a0 = u64 [s1 + 0x170]\n 29729: u64 [a1 + 0x5f0] = a0\n 29733: a3 = a1\n 29735: a0 = 0x20\n 29738: a1 = s1 + 0x7ff\n 29742: a1 = a1 + 0x701\n 29746: a2 = u64 [s1 + 0x178]\n 29750: u64 [a3 + 0x5e8] = a2\n 29754: ra = 1280, jump @9\n      : @1136 [@dyn 640] (gas: 1)\n 29760: t0 = 1282, jump @1403\n      : @1137 [@dyn 641] (gas: 1)\n 29766: jump @1139 if a1 <u a0\n      : @1138 (gas: 1)\n 29769: t0 = 1284, jump @1433\n      : @1139 [@dyn 642] (gas: 4)\n 29775: a0 = sp + 0xffffffffffffffe0\n 29778: a0 = a0 & 0xffffffffffffffe0\n 29781: u64 [s1 + 0x178] = a0\n 29785: t0 = 1286, jump @1364\n      : @1140 [@dyn 643] (gas: 5)\n 29791: ra = 0x508\n 29795: ecalli 8 // 'hash_keccak_256'\n 29797: a3 = u64 [s1 + 0x178]\n 29801: t0 = 0x50a\n 29805: jump @1411\n      : @1141 [@dyn 644] (gas: 2)\n 29808: a3 = u64 [s1 + 0x178]\n 29812: t0 = 1290, jump @1411\n      : @1142 [@dyn 645] (gas: 13)\n 29818: a3 = s1 + 0x100\n 29822: a1 = u64 [a3 + 0x88]\n 29826: u64 [a3 + 0x70] = a2\n 29829: u64 [a1 + 0x18] = a2\n 29832: u64 [a3 + 0x78] = a0\n 29835: u64 [a1 + 0x10] = a0\n 29838: u64 [a3 + 0x68] = a4\n 29841: u64 [a1 + 0x8] = a4\n 29844: u64 [a3 + 0x60] = a5\n 29847: u64 [a1] = a5\n 29849: a0 = s1 + 0x7ff\n 29853: a0 = a0 + 0x6e1\n 29857: ra = 1292, jump @11\n      : @1143 [@dyn 646] (gas: 13)\n 29863: a2 = s1 + 0x7ff\n 29867: a2 = a2 + 0x119\n 29871: a3 = a2 + 0x500\n 29875: a0 = u64 [a3 + 0xd0]\n 29879: a1 = u64 [a3 + 0xd8]\n 29883: a2 = u64 [a3 + 0xc8]\n 29887: a0 = a0 & 0xffffffffffffffff\n 29890: a1 = a1 & 0xffffffffffffffff\n 29893: a3 = u64 [s1 + 0xe0]\n 29897: a2 = a2 & a3\n 29900: a1 = a1 | a2\n 29903: a0 = a0 | a1\n 29906: jump @1146 if a0 == 0\n      : @1144 (gas: 27)\n 29909: a5 = s1 + 0x100\n 29913: a0 = u64 [a5 + 0x60]\n 29916: a2 = a0 + 0x2\n 29919: a0 = a2 <u a0\n 29922: a1 = u64 [a5 + 0x68]\n 29925: a3 = a1 + a0\n 29928: a1 = a3 <u a1\n 29931: a1 = a0 if a0 == 0\n 29934: a0 = u64 [a5 + 0x78]\n 29937: a4 = a0 + a1\n 29940: a0 = a4 <u a0\n 29943: a1 = u64 [a5 + 0x70]\n 29946: a1 = a1 + a0\n 29949: a0 = s1 + 0x2118\n 29953: u64 [a5 + 0x88] = a2\n 29957: u64 [a0 + 0x4c8] = a2\n 29961: u64 [a5 + 0x78] = a3\n 29964: a2 = a0 + 0x400\n 29968: u64 [a2 + 0xd0] = a3\n 29972: u64 [a5 + 0x70] = a4\n 29975: u64 [a2 + 0xd8] = a4\n 29979: u64 [a5 + 0x68] = a1\n 29982: u64 [a2 + 0xe0] = a1\n 29986: a0 = s1 + 0x7ff\n 29990: a0 = a0 + 0x6c1\n 29994: a1 = s1 + 0x25e0\n 29998: ra = 1294, jump @11\n      : @1145 [@dyn 647] (gas: 5)\n 30004: a0 = s1 + 0x7ff\n 30008: a0 = a0 + 0x119\n 30012: a0 = u64 [a0 + 0x5b0]\n 30016: a0 = a0 & 0xff\n 30020: jump @1147 if a0 == 0\n      : @1146 (gas: 6)\n 30023: a3 = 0\n 30025: a0 = u64 [s1 + 0x150]\n 30029: a0 = a0 + 0x1\n 30032: a1 = u64 [s1 + 0x148]\n 30036: a2 = a0 & a1\n 30039: jump @1122\n      : @1147 (gas: 15)\n 30042: a0 = s1 + 0x2118\n 30046: a2 = s1 + 0x100\n 30050: a1 = u64 [a2 + 0x88]\n 30054: a3 = a0 + 0x400\n 30058: u64 [a3 + 0xe8] = a1\n 30062: a1 = u64 [a2 + 0x78]\n 30065: u64 [a3 + 0xf0] = a1\n 30069: a1 = u64 [a2 + 0x70]\n 30072: u64 [a3 + 0xf8] = a1\n 30076: a1 = u64 [a2 + 0x68]\n 30079: u64 [a0 + 0x500] = a1\n 30083: a0 = s1 + 0x7ff\n 30087: a0 = a0 + 0x6a1\n 30091: a1 = s1 + 0x2600\n 30095: ra = 1296, jump @11\n      : @1148 [@dyn 648] (gas: 14)\n 30101: a3 = s1 + 0x7ff\n 30105: a3 = a3 + 0x119\n 30109: a0 = u64 [a3 + 0x588]\n 30113: a4 = a0 & 0xffffffffffffffff\n 30116: a1 = u64 [s1 + 0xb8]\n 30120: a0 = a4 <u a1\n 30123: a4 = a1 if a0 != 0\n 30126: t0 = u64 [s1 + 0xd0]\n 30130: t0 = 0 if a0 == 0\n 30132: a5 = u64 [s1 + 0xc8]\n 30136: a5 = 0 if a0 == 0\n 30138: a1 = u64 [s1 + 0xc0]\n 30142: a1 = 0 if a0 == 0\n 30144: fallthrough\n      : @1149 (gas: 3)\n 30145: a2 = a4 & 0xffffffffffffffff\n 30148: a0 = u64 [s1 + 0x100]\n 30152: jump @1146 if a2 >=u a0\n      : @1150 (gas: 11)\n 30156: u64 [s1 + 0x178] = a2\n 30160: a2 = s1 + 0x100\n 30164: u64 [a2 + 0x18] = a1\n 30167: u64 [a2 + 0x20] = a5\n 30170: u64 [s1 + 0x128] = t0\n 30174: u64 [a2 + 0x88] = a4\n 30178: a0 = u64 [a2 + 0x48]\n 30181: a1 = u64 [a2 + 0x80]\n 30185: a0 = a0 & a1\n 30188: a1 = u64 [a2 + 0x10]\n 30191: jump @1146 if a0 >=u a1\n      : @1151 (gas: 12)\n 30195: u64 [a3 + 1408] = 0\n 30199: a0 = u64 [s1 + 0x130]\n 30203: a2 = a3 + 0x500\n 30207: u64 [a2 + 0x68] = a0\n 30210: a0 = u64 [s1 + 0x138]\n 30214: u64 [a2 + 0x70] = a0\n 30217: a1 = s1 + 0x7ff\n 30221: a1 = a1 + 0x681\n 30225: a0 = u64 [s1 + 0x108]\n 30229: u64 [a2 + 0x78] = a0\n 30232: a0 = 0\n 30234: ra = 1298, jump @9\n      : @1152 [@dyn 649] (gas: 11)\n 30240: a0 = s1 + 0x7ff\n 30244: a0 = a0 + 0x119\n 30248: u64 [a0 + 1376] = 0\n 30252: u64 [a0 + 1368] = 0\n 30256: u64 [a0 + 1360] = 0\n 30260: a3 = a0\n 30262: a0 = 0x20\n 30265: a1 = s1 + 0x7ff\n 30269: a1 = a1 + 0x661\n 30273: u64 [a3 + 1352] = 0x4\n 30278: ra = 1300, jump @9\n      : @1153 [@dyn 650] (gas: 3)\n 30284: a1 = u64 [s1 + 0x198]\n 30288: a0 = i32 [a1]\n 30290: jump @1155 if a0 >u 63\n      : @1154 (gas: 2)\n 30294: u32 [a1 + 0] = 0x40\n 30297: fallthrough\n      : @1155 (gas: 4)\n 30298: a0 = sp + 0xffffffffffffffe0\n 30301: a0 = a0 & 0xffffffffffffffe0\n 30304: u64 [s1 + 0x170] = a0\n 30308: t0 = 1302, jump @1364\n      : @1156 [@dyn 651] (gas: 4)\n 30314: ra = 0x518\n 30318: ecalli 8 // 'hash_keccak_256'\n 30320: t0 = 0x51a\n 30324: jump @1378\n      : @1157 [@dyn 652] (gas: 1)\n 30327: t0 = 1306, jump @1378\n      : @1158 [@dyn 653] (gas: 11)\n 30333: a2 = s1 + 0x7ff\n 30337: a2 = a2 + 0x119\n 30341: u64 [a2 + 1344] = 0\n 30345: u64 [a2 + 1336] = 0\n 30349: u64 [a2 + 1328] = 0\n 30353: a1 = s1 + 0x7ff\n 30357: a1 = a1 + 0x641\n 30361: a0 = u64 [s1 + 0x178]\n 30365: u64 [a2 + 0x528] = a0\n 30369: a0 = 0\n 30371: ra = 1308, jump @9\n      : @1159 [@dyn 654] (gas: 1)\n 30377: t0 = 1310, jump @1440\n      : @1160 [@dyn 655] (gas: 2)\n 30383: a2 = a1 + 0x500\n 30387: t0 = 1312, jump @1384\n      : @1161 [@dyn 656] (gas: 4)\n 30393: a1 = a1 + 0x621\n 30397: a2 = u64 [s1 + 0x170]\n 30401: u64 [a3 + 0x508] = a2\n 30405: ra = 1314, jump @9\n      : @1162 [@dyn 657] (gas: 3)\n 30411: a1 = u64 [s1 + 0x198]\n 30415: a0 = i32 [a1]\n 30417: jump @1164 if a0 >u 63\n      : @1163 (gas: 2)\n 30421: u32 [a1 + 0] = 0x40\n 30424: fallthrough\n      : @1164 (gas: 4)\n 30425: a0 = sp + 0xffffffffffffffe0\n 30428: a0 = a0 & 0xffffffffffffffe0\n 30431: u64 [s1 + 0x178] = a0\n 30435: t0 = 1316, jump @1364\n      : @1165 [@dyn 658] (gas: 4)\n 30441: ra = 0x526\n 30445: ecalli 8 // 'hash_keccak_256'\n 30447: t0 = 0x528\n 30451: jump @1399\n      : @1166 [@dyn 659] (gas: 1)\n 30454: t0 = 1320, jump @1399\n      : @1167 [@dyn 660] (gas: 8)\n 30460: u64 [s1 + 0x170] = a0\n 30464: a0 = reverse a1\n 30466: u64 [s1 + 0x168] = a0\n 30470: a0 = reverse a2\n 30472: u64 [s1 + 0x160] = a0\n 30476: a0 = reverse a3\n 30478: u64 [s1 + 0x158] = a0\n 30482: t0 = 1322, jump @1412\n      : @1168 [@dyn 661] (gas: 13)\n 30488: a2 = s1 + 0x7ff\n 30492: a2 = a2 + 0x119\n 30496: a0 = u64 [s1 + 0x140]\n 30500: u64 [a2 + 0x500] = a0\n 30504: a3 = a2 + 0x400\n 30508: u64 [a3 + 0xf8] = a0\n 30512: u64 [a3 + 0xf0] = a0\n 30516: a1 = s1 + 0x7ff\n 30520: a1 = a1 + 0x601\n 30524: a0 = u64 [s1 + 0x150]\n 30528: u64 [a3 + 0xe8] = a0\n 30532: a0 = 0\n 30534: ra = 1324, jump @9\n      : @1169 [@dyn 662] (gas: 1)\n 30540: t0 = 1326, jump @1440\n      : @1170 [@dyn 663] (gas: 13)\n 30546: a2 = a1 + 0x400\n 30550: u64 [a2 + 0xe0] = a0\n 30554: a0 = u64 [s1 + 0x160]\n 30558: u64 [a2 + 0xd8] = a0\n 30562: a0 = u64 [s1 + 0x168]\n 30566: u64 [a2 + 0xd0] = a0\n 30570: a3 = a1\n 30572: a0 = 0x20\n 30575: a1 = s1 + 0x7ff\n 30579: a1 = a1 + 0x5e1\n 30583: a2 = u64 [s1 + 0x170]\n 30587: u64 [a3 + 0x4c8] = a2\n 30591: ra = 1328, jump @9\n      : @1171 [@dyn 664] (gas: 3)\n 30597: a1 = u64 [s1 + 0x198]\n 30601: a0 = i32 [a1]\n 30603: jump @1173 if a0 >u 63\n      : @1172 (gas: 2)\n 30607: u32 [a1 + 0] = 0x40\n 30610: fallthrough\n      : @1173 (gas: 4)\n 30611: a0 = sp + 0xffffffffffffffe0\n 30614: a0 = a0 & 0xffffffffffffffe0\n 30617: u64 [s1 + 0x170] = a0\n 30621: t0 = 1330, jump @1364\n      : @1174 [@dyn 665] (gas: 5)\n 30627: ra = 0x534\n 30631: ecalli 8 // 'hash_keccak_256'\n 30633: a3 = u64 [s1 + 0x170]\n 30637: t0 = 0x536\n 30641: jump @1382\n      : @1175 [@dyn 666] (gas: 2)\n 30644: a3 = u64 [s1 + 0x170]\n 30648: t0 = 1334, jump @1382\n      : @1176 [@dyn 667] (gas: 8)\n 30654: a1 = u64 [s1 + 0x178]\n 30658: u64 [a1 + 0x18] = a3\n 30661: u64 [a1 + 0x10] = a2\n 30664: u64 [a1 + 0x8] = a4\n 30667: u64 [a1] = a0\n 30669: a0 = s1 + 0x7ff\n 30673: a0 = a0 + 0x5c1\n 30677: ra = 1336, jump @11\n      : @1177 [@dyn 668] (gas: 5)\n 30683: a3 = s1 + 0x7ff\n 30687: a3 = a3 + 0x119\n 30691: a0 = u64 [a3 + 0x4a8]\n 30695: a0 = a0 & 0x5\n 30698: jump @1180 if a0 != 1\n      : @1178 (gas: 30)\n 30703: a0 = u64 [s1 + 0x150]\n 30707: a5 = a3 + 0x400\n 30711: u64 [a5 + 0x48] = a0\n 30714: a0 = u64 [s1 + 0x188]\n 30718: u64 [a5 + 0x68] = a0\n 30721: a0 = u64 [s1 + 0x130]\n 30725: u64 [a5 + 0x88] = a0\n 30729: a1 = u64 [s1 + 0x140]\n 30733: u64 [a5 + 0x50] = a1\n 30736: a0 = u64 [s1 + 0x118]\n 30740: u64 [a5 + 0x70] = a0\n 30743: a0 = u64 [s1 + 0x138]\n 30747: u64 [a5 + 0x90] = a0\n 30751: u64 [a5 + 0x58] = a1\n 30754: a0 = u64 [s1 + 0x120]\n 30758: u64 [a5 + 0x78] = a0\n 30761: a0 = u64 [s1 + 0xf8]\n 30765: u64 [a5 + 0x98] = a0\n 30769: u64 [a5 + 0x60] = a1\n 30772: a0 = u64 [s1 + 0x128]\n 30776: u64 [a5 + 0x80] = a0\n 30780: a0 = s1 + 0x7ff\n 30784: a0 = a0 + 0x5a1\n 30788: a1 = s1 + 0x7ff\n 30792: a1 = a1 + 0x581\n 30796: a2 = s1 + 0x7ff\n 30800: a2 = a2 + 0x561\n 30804: a4 = u64 [s1 + 0xf0]\n 30808: u64 [a5 + 0xa0] = a4\n 30812: ra = 1338, jump @1215\n      : @1179 [@dyn 669] (gas: 10)\n 30818: a2 = s1 + 0x100\n 30822: a4 = u64 [a2 + 0x88]\n 30826: a3 = s1 + 0x7ff\n 30830: a3 = a3 + 0x119\n 30834: a0 = u64 [a2 + 0x80]\n 30838: a0 = a0 + 0x1\n 30841: a1 = u64 [a2 + 0x48]\n 30844: a0 = a0 & a1\n 30847: u64 [a2 + 0x80] = a0\n 30851: jump @1181\n      : @1180 (gas: 2)\n 30853: a4 = u64 [s1 + 0x188]\n 30857: fallthrough\n      : @1181 (gas: 6)\n 30858: a1 = 0\n 30860: a5 = 0\n 30862: t0 = 0\n 30864: a0 = a4 + 0x1\n 30867: a4 = a0 & 0xffffffffffffffff\n 30870: jump @1149\n      : @1182 (gas: 11)\n 30873: a2 = s1 + 0x7ff\n 30877: a2 = a2 + 0x119\n 30881: u64 [a2 + 56] = 0\n 30884: u64 [a2 + 48] = 0\n 30887: a0 = 0xcf114bd900000000\n 30897: u64 [a2 + 0x40] = a0\n 30900: a1 = s1 + 0x7ff\n 30904: a1 = a1 + 0x141\n 30908: u64 [a2 + 40] = 0\n 30911: a0 = 0\n 30913: ra = 1340, jump @9\n      : @1183 [@dyn 670] (gas: 2)\n 30919: a1 = i32 [0x20170]\n 30924: jump @1185 if a1 >u 31\n      : @1184 (gas: 3)\n 30928: u32 [0x20170] = 0x20\n 30934: a1 = 0x20180\n 30939: jump @723\n      : @1185 (gas: 2)\n 30942: a1 = 0x20180\n 30947: jump @723\n      : @1186 (gas: 11)\n 30950: a2 = s1 + 0x7ff\n 30954: a2 = a2 + 0x119\n 30958: u64 [a2 + 24] = 0\n 30961: u64 [a2 + 16] = 0\n 30964: a0 = 0x7862e95900000000\n 30974: u64 [a2 + 0x20] = a0\n 30977: a1 = s1 + 0x7ff\n 30981: a1 = a1 + 0x121\n 30985: u64 [a2 + 8] = 0\n 30988: a0 = 0\n 30990: ra = 1342, jump @9\n      : @1187 [@dyn 671] (gas: 2)\n 30996: a1 = i32 [0x20170]\n 31001: jump @1189 if a1 >u 31\n      : @1188 (gas: 3)\n 31005: u32 [0x20170] = 0x20\n 31011: a1 = 0x20180\n 31016: jump @723\n      : @1189 (gas: 2)\n 31019: a1 = 0x20180\n 31024: jump @723\n      : @1190 (gas: 5)\n 31027: a0 = 0\n 31029: a1 = u64 [s1 + 0x188]\n 31033: a2 = 0\n 31035: ecalli 13 // 'seal_return'\n 31037: jump @905\n      : @1191 [@dyn 672] (gas: 2)\n 31040: ecalli 2 // 'call_data_load'\n 31042: fallthrough\n      : @1192 (gas: 10)\n 31043: a0 = u64 [sp + 0x10]\n 31046: a1 = u64 [sp + 0x18]\n 31049: a2 = 0x100000000\n 31059: a2 = a2 ^ a0\n 31062: a2 = a2 | a1\n 31065: a3 = a0 >> 0x20\n 31068: a3 = a3 <u 0x1\n 31071: a3 = 0 if a1 != 0\n 31073: a3 = 0 if a2 == 0\n 31075: jump @1194 if a3 == 0\n      : @1193 (gas: 12)\n 31078: a2 = u64 [sp]\n 31080: a3 = u64 [sp + 0x8]\n 31083: u64 [s1] = a2\n 31085: u64 [s1 + 0x8] = a3\n 31088: u64 [s1 + 0x10] = a0\n 31091: u64 [s1 + 0x18] = a1\n 31094: sp = s0 + 0xffffffffffffffc0\n 31097: ra = u64 [sp + 0x38]\n 31100: s0 = u64 [sp + 0x30]\n 31103: s1 = u64 [sp + 0x28]\n 31106: sp = sp + 0x40\n 31109: ret\n      : @1194 (gas: 8)\n 31111: a1 = 0x20180\n 31116: i32 a1 = a1 + 0\n 31118: a0 = 0x1\n 31121: a2 = 0\n 31123: ra = 0x542\n 31127: ecalli 13 // 'seal_return'\n 31129: t0 = 0x544\n 31133: jump @1431\n      : @1195 [@dyn 673] (gas: 1)\n 31136: t0 = 1348, jump @1431\n      : @1196 [@dyn 674] (gas: 3)\n 31142: a1 = 0x24\n 31145: ecalli 2 // 'call_data_load'\n 31147: fallthrough\n      : @1197 (gas: 7)\n 31148: a0 = u64 [sp + 0x18]\n 31151: a1 = u64 [sp + 0x10]\n 31154: a2 = u64 [sp + 0x8]\n 31157: a3 = a1 | a0\n 31160: a4 = a2 <u 0x1\n 31163: a4 = 0 if a3 != 0\n 31165: jump @1200 if a4 == 0\n      : @1198 (gas: 2)\n 31168: a3 = u64 [sp]\n 31170: t0 = 1350, jump @1396\n      : @1199 [@dyn 675] (gas: 1)\n 31176: ret\n      : @1200 (gas: 8)\n 31178: a1 = 0x20180\n 31183: i32 a1 = a1 + 0\n 31185: a0 = 0x1\n 31188: a2 = 0\n 31190: ra = 0x548\n 31194: ecalli 13 // 'seal_return'\n 31196: t0 = 0x54a\n 31200: jump @1431\n      : @1201 [@dyn 676] (gas: 1)\n 31203: t0 = 1354, jump @1431\n      : @1202 [@dyn 677] (gas: 5)\n 31209: a1 = 0x44\n 31212: ra = 0x54c\n 31216: ecalli 2 // 'call_data_load'\n 31218: t0 = 0x54e\n 31222: jump @1410\n      : @1203 [@dyn 678] (gas: 1)\n 31225: t0 = 1358, jump @1410\n      : @1204 [@dyn 679] (gas: 1)\n 31231: jump @1207 if a4 != 0\n      : @1205 (gas: 1)\n 31234: t0 = 1360, jump @1396\n      : @1206 [@dyn 680] (gas: 1)\n 31240: ret\n      : @1207 (gas: 8)\n 31242: a1 = 0x20180\n 31247: i32 a1 = a1 + 0\n 31249: a0 = 0x1\n 31252: a2 = 0\n 31254: ra = 0x552\n 31258: ecalli 13 // 'seal_return'\n 31260: t0 = 0x554\n 31264: jump @1420\n      : @1208 [@dyn 681] (gas: 1)\n 31267: t0 = 1364, jump @1420\n      : @1209 [@dyn 682] (gas: 4)\n 31273: ra = 0x556\n 31277: ecalli 2 // 'call_data_load'\n 31279: t0 = 0x558\n 31283: jump @1410\n      : @1210 [@dyn 683] (gas: 1)\n 31286: t0 = 1368, jump @1410\n      : @1211 [@dyn 684] (gas: 1)\n 31292: jump @1214 if a4 != 0\n      : @1212 (gas: 1)\n 31295: t0 = 1370, jump @1396\n      : @1213 [@dyn 685] (gas: 1)\n 31301: ret\n      : @1214 (gas: 7)\n 31303: a1 = 0x20180\n 31308: i32 a1 = a1 + 0\n 31310: a0 = 0x1\n 31313: a2 = 0\n 31315: ra = 0x55c\n 31319: ecalli 13 // 'seal_return'\n 31321: fallthrough\n      : @1215 [@dyn 686] (gas: 21)\n 31322: sp = sp + 0xfffffffffffff8c0\n 31326: a3 = sp + 0x700\n 31330: u64 [a3 + 0x38] = ra\n 31333: u64 [a3 + 0x30] = s0\n 31336: u64 [a3 + 0x28] = s1\n 31339: s0 = sp + 0x740\n 31343: sp = sp & 0xffffffffffffffe0\n 31346: s1 = sp\n 31348: a2 = u64 [a2]\n 31350: u64 [s1 + 0x28] = a2\n 31353: a1 = u64 [a1]\n 31355: u64 [s1 + 0x30] = a1\n 31358: a1 = u64 [a0 + 0x10]\n 31361: u64 [s1 + 0x20] = a1\n 31364: a1 = u64 [a0 + 0x8]\n 31367: u64 [s1 + 0x38] = a1\n 31370: a0 = u64 [a0]\n 31372: u64 [s1 + 0x40] = a0\n 31375: i32 a0 = s1 + 0x5c0\n 31379: ecalli 9 // 'now'\n 31381: fallthrough\n      : @1216 (gas: 48)\n 31382: t0 = u64 [s1 + 0x5d8]\n 31386: t1 = u64 [s1 + 0x5d0]\n 31390: a0 = u64 [s1 + 0x5c8]\n 31394: a4 = u64 [s1 + 0x5c0]\n 31398: u64 [s1 + 0x78] = a4\n 31401: a2 = clz t0\n 31403: a1 = clz t1\n 31405: a3 = a1 + 0x40\n 31408: a3 = a2 if t0 != 0\n 31411: a2 = clz a0\n 31413: a1 = clz a4\n 31415: a1 = a1 + 0x40\n 31418: a1 = a2 if a0 != 0\n 31421: a4 = a1 + 0x80\n 31425: a2 = t1 | t0\n 31428: a3 = a4 if a2 == 0\n 31431: a5 = a4 <u a1\n 31434: a5 = 0 if a2 != 0\n 31436: a4 = a5 >u 0\n 31438: a1 = a3 <u 0xf0\n 31442: a2 = a1 ^ 0x1\n 31445: a4 = a2 if a5 == 0\n 31448: t2 = a4 <u 0x1\n 31451: ra = t2 + 0xffffffffffffffff\n 31454: t2 = -a4\n 31456: a5 = -a5\n 31458: a2 = a5 - a2\n 31461: a1 = 0xef - a3\n 31465: u64 [s1 + 0xa8] = t2\n 31469: a3 = t2 >u 0\n 31471: a5 = ra >u 0\n 31473: a5 = a3 if ra == 0\n 31476: u64 [s1 + 0xb8] = a1\n 31480: a3 = a1 <u 0x100\n 31484: a3 = a3 ^ 0x1\n 31487: a1 = a2 >u 0\n 31489: a3 = a1 if a2 != 0\n 31492: a3 = a5 if a4 != 0\n 31495: t2 = a0\n 31497: a0 = u64 [s1 + 0x78]\n 31500: a1 = t2 | t0\n 31503: a4 = a0 | t1\n 31506: a1 = a1 | a4\n 31509: a1 = a1 <u 0x1\n 31512: a1 = a1 | a3\n 31515: a3 = a0\n 31517: a3 = 0 if a1 != 0\n 31519: jump @1232 if a1 != 0\n      : @1217 (gas: 7)\n 31523: a1 = u64 [s1 + 0xb8]\n 31527: a1 = a1 ^ 0xff\n 31531: a5 = u64 [s1 + 0xa8]\n 31535: a1 = a1 | a5\n 31538: a4 = a2 | ra\n 31541: a1 = a1 | a4\n 31544: jump @1232 if a1 == 0\n      : @1218 (gas: 21)\n 31548: a4 = u64 [s1 + 0xb8]\n 31552: a3 = a4 + 0x1\n 31555: u64 [s1 + 0xb0] = a3\n 31559: a1 = a3 <u 0x1\n 31562: a1 = a1 + a2\n 31565: u64 [s1 + 0xa0] = a1\n 31569: a1 = a1 | a3\n 31572: a1 = a1 <u 0x1\n 31575: a1 = a1 + a5\n 31578: u64 [s1 + 0x90] = a1\n 31582: a1 = a1 <u a5\n 31585: a1 = a1 + ra\n 31588: u64 [s1 + 0x98] = a1\n 31592: a2 = 0xff - a4\n 31596: u64 [s1 + 0x88] = a2\n 31600: a2 = 0x80 - a2\n 31604: a1 = t2\n 31606: u64 [s1 + 0x70] = t2\n 31609: u64 [s1 + 0x68] = t0\n 31612: u64 [s1 + 0x60] = t1\n 31615: ra = 1374, jump @1443\n      : @1219 [@dyn 687] (gas: 6)\n 31621: u64 [s1 + 0x80] = a0\n 31625: u64 [s1 + 0x50] = a1\n 31628: a0 = u64 [s1 + 0x60]\n 31631: a1 = u64 [s1 + 0x68]\n 31634: a2 = u64 [s1 + 0x88]\n 31638: ra = 1376, jump @1448\n      : @1220 [@dyn 688] (gas: 7)\n 31644: u64 [s1 + 0x48] = a0\n 31647: u64 [s1 + 0x18] = a1\n 31650: a1 = u64 [s1 + 0xb8]\n 31654: a2 = 0x7f - a1\n 31657: a0 = u64 [s1 + 0x78]\n 31660: a1 = u64 [s1 + 0x70]\n 31663: ra = 1378, jump @1448\n      : @1221 [@dyn 689] (gas: 8)\n 31669: u64 [s1 + 0x10] = a0\n 31672: u64 [s1 + 0xb8] = a1\n 31676: a2 = u64 [s1 + 0x88]\n 31680: a0 = a2 <u 0x80\n 31684: u64 [s1 + 0x58] = a0\n 31687: a0 = u64 [s1 + 0x78]\n 31690: a1 = u64 [s1 + 0x70]\n 31693: ra = 1380, jump @1448\n      : @1222 [@dyn 690] (gas: 11)\n 31699: a5 = u64 [s1 + 0x58]\n 31702: a4 = u64 [s1 + 0x90]\n 31706: a3 = u64 [s1 + 0x98]\n 31710: a2 = u64 [s1 + 0xa0]\n 31714: a2 = a2 | a3\n 31717: a3 = u64 [s1 + 0xb0]\n 31721: a3 = a3 | a4\n 31724: a3 = a3 | a2\n 31727: a0 = 0 if a5 == 0\n 31729: u64 [s1 + 0xa8] = a0\n 31733: jump @1230 if a3 == 0\n      : @1223 (gas: 27)\n 31737: a0 = u64 [s1 + 0x50]\n 31740: a2 = u64 [s1 + 0x18]\n 31743: a0 = a0 | a2\n 31746: a2 = u64 [s1 + 0xb8]\n 31750: a0 = a2 if a5 == 0\n 31753: t0 = u64 [s1 + 0x68]\n 31756: a3 = t0\n 31758: t1 = u64 [s1 + 0x88]\n 31762: a3 = a0 if t1 != 0\n 31765: u64 [s1 + 0xb8] = a3\n 31769: a0 = u64 [s1 + 0x80]\n 31773: a2 = u64 [s1 + 0x48]\n 31776: a0 = a0 | a2\n 31779: a2 = u64 [s1 + 0x10]\n 31782: a0 = a2 if a5 == 0\n 31785: a4 = u64 [s1 + 0x60]\n 31788: a3 = a4\n 31790: a3 = a0 if t1 != 0\n 31793: u64 [s1 + 0x80] = a3\n 31797: a1 = 0 if a5 == 0\n 31799: u64 [s1 + 0x88] = a1\n 31803: u64 [s1 + 88] = 0x15180\n 31809: a0 = u64 [s1 + 0xb0]\n 31813: a2 = a0 + 0xffffffffffffff80\n 31816: a0 = a4\n 31818: a1 = t0\n 31820: ra = 1382, jump @1443\n      : @1224 [@dyn 691] (gas: 6)\n 31826: u64 [s1 + 0x50] = a0\n 31829: u64 [s1 + 0x18] = a1\n 31832: a0 = u64 [s1 + 0x78]\n 31835: a1 = u64 [s1 + 0x70]\n 31838: a2 = u64 [s1 + 0xb0]\n 31842: ra = 1384, jump @1443\n      : @1225 [@dyn 692] (gas: 7)\n 31848: u64 [s1 + 0x10] = a0\n 31851: u64 [s1 + 0x48] = a1\n 31854: a1 = u64 [s1 + 0xb0]\n 31858: a2 = 0x80 - a1\n 31862: a0 = u64 [s1 + 0x60]\n 31865: a1 = u64 [s1 + 0x68]\n 31868: ra = 1386, jump @1448\n      : @1226 [@dyn 693] (gas: 21)\n 31874: a2 = u64 [s1 + 0x48]\n 31877: a1 = a1 | a2\n 31880: a3 = u64 [s1 + 0xb0]\n 31884: a4 = a3 <u 0x80\n 31888: u64 [s1 + 0x48] = a4\n 31891: a2 = u64 [s1 + 0x18]\n 31894: a1 = a2 if a4 == 0\n 31897: a2 = u64 [s1 + 0x70]\n 31900: a2 = a1 if a3 != 0\n 31903: u64 [s1 + 0x70] = a2\n 31906: a1 = u64 [s1 + 0x10]\n 31909: a0 = a0 | a1\n 31912: a1 = u64 [s1 + 0x50]\n 31915: a0 = a1 if a4 == 0\n 31918: a1 = u64 [s1 + 0x78]\n 31921: a1 = a0 if a3 != 0\n 31924: a2 = a3\n 31926: u64 [s1 + 0x78] = a1\n 31929: a0 = u64 [s1 + 0x60]\n 31932: a1 = u64 [s1 + 0x68]\n 31935: ra = 1388, jump @1443\n      : @1227 [@dyn 694] (gas: 13)\n 31941: a5 = 0\n 31943: a2 = u64 [s1 + 0x48]\n 31946: a1 = 0 if a2 == 0\n 31948: a0 = 0 if a2 == 0\n 31950: a3 = u64 [s1 + 0x58]\n 31953: a2 = a3 + 0xffffffffffffffff\n 31956: u64 [s1 + 0x50] = a2\n 31959: a2 = a3 >u 0\n 31961: a2 = a2 + 0xffffffffffffffff\n 31964: u64 [s1 + 0x48] = a2\n 31967: t1 = u64 [s1 + 0x70]\n 31970: t2 = u64 [s1 + 0x78]\n 31973: fallthrough\n      : @1228 (gas: 87)\n 31974: u64 [s1 + 0x78] = a5\n 31977: a2 = t2 >> 0x3f\n 31980: a3 = t1 << 0x1\n 31983: a5 = a3 | a2\n 31986: a3 = t2 << 0x1\n 31989: a4 = u64 [s1 + 0xb8]\n 31993: a4 = a4 >> 0x3f\n 31996: a3 = a3 | a4\n 31999: u64 [s1 + 0x68] = a3\n 32002: a2 = u64 [s1 + 0x48]\n 32005: u64 [s1 + 0x70] = a5\n 32008: t2 = t1\n 32010: t1 = a2 ^ a5\n 32013: t0 = a2 <u a5\n 32016: a4 = u64 [s1 + 0x50]\n 32019: a5 = a4 <u a3\n 32022: a5 = t0 if t1 != 0\n 32025: a1 = a1 << 0x1\n 32028: a3 = a0 >> 0x3f\n 32031: a1 = a1 | a3\n 32034: u64 [s1 + 0x60] = a1\n 32037: a3 = t2 >> 0x3f\n 32040: a0 = a0 << 0x1\n 32043: a3 = a3 | a0\n 32046: a0 = u64 [s1 + 0xb8]\n 32050: a0 = a0 << 0x1\n 32053: a4 = u64 [s1 + 0x80]\n 32057: a1 = a4 >> 0x3f\n 32060: t0 = a0 | a1\n 32063: a1 = a4 << 0x1\n 32066: a4 = u64 [s1 + 0x88]\n 32070: t1 = a4 >> 0x3f\n 32073: t1 = a1 | t1\n 32076: a1 = a4 << 0x1\n 32079: a4 = u64 [s1 + 0xa8]\n 32083: t2 = a4 >> 0x3f\n 32086: a1 = a1 | t2\n 32089: a4 = a4 << 0x1\n 32092: a0 = u64 [s1 + 0x78]\n 32095: a4 = a4 | a0\n 32098: u64 [s1 + 0xa8] = a4\n 32102: a1 = a1 | 0\n 32104: u64 [s1 + 0x88] = a1\n 32108: a1 = t1 | 0\n 32110: u64 [s1 + 0x80] = a1\n 32114: a0 = t0 | 0\n 32116: u64 [s1 + 0xb8] = a0\n 32120: a0 = a2 - a3\n 32123: a0 = a0 <u a5\n 32126: a1 = a2 <u a3\n 32129: t0 = u64 [s1 + 0x60]\n 32132: a4 = a2 - t0\n 32135: a4 = a4 - a1\n 32138: a4 = a4 - a0\n 32141: a5 = a4 >>a 0x3f\n 32144: a0 = u64 [s1 + 0x58]\n 32147: a0 = a0 & a5\n 32150: a1 = u64 [s1 + 0x68]\n 32153: t2 = a1 - a0\n 32156: a1 = a1 <u a0\n 32159: a0 = u64 [s1 + 0x70]\n 32162: t1 = a0 - a1\n 32165: a1 = 0 if a0 != 0\n 32167: a0 = a3 - a1\n 32170: a1 = a3 <u a1\n 32173: a1 = t0 - a1\n 32176: a3 = u64 [s1 + 0xb0]\n 32180: ra = u64 [s1 + 0xa0]\n 32184: a2 = a3 | ra\n 32187: a2 = a2 <u 0x1\n 32190: a4 = u64 [s1 + 0x90]\n 32194: t0 = a4 <u a2\n 32197: a2 = a4 - a2\n 32200: a4 = a3 <u 0x1\n 32203: ra = ra - a4\n 32206: a4 = u64 [s1 + 0x98]\n 32210: a4 = a4 - t0\n 32213: a3 = a3 + 0xffffffffffffffff\n 32216: u64 [s1 + 0xa0] = ra\n 32220: u64 [s1 + 0x98] = a4\n 32224: t0 = ra | a4\n 32227: u64 [s1 + 0xb0] = a3\n 32231: a4 = a3 | a2\n 32234: a3 = a4 | t0\n 32237: a5 = a5 & 0x1\n 32240: u64 [s1 + 0x90] = a2\n 32244: jump @1228 if a3 != 0\n      : @1229 (gas: 1)\n 32248: jump @1231\n      : @1230 (gas: 2)\n 32250: a5 = 0\n 32252: fallthrough\n      : @1231 (gas: 4)\n 32253: a0 = u64 [s1 + 0xa8]\n 32257: a0 = a0 << 0x1\n 32260: a3 = a5 | a0\n 32263: fallthrough\n      : @1232 (gas: 2)\n 32264: a0 = u64 [s1 + 0x30]\n 32267: jump @1312 if a0 >=u a3\n      : @1233 (gas: 13)\n 32271: a0 = u64 [s1 + 0x20]\n 32274: a0 = a0 << 0x20\n 32277: a2 = a0 >> 0x20\n 32280: u64 [s1 + 1432] = 0\n 32284: a0 = u64 [s1 + 0x40]\n 32287: u64 [s1 + 0x580] = a0\n 32291: a0 = u64 [s1 + 0x38]\n 32294: u64 [s1 + 0x588] = a0\n 32298: a1 = s1 + 0x580\n 32302: u64 [s1 + 0xa0] = a2\n 32306: u64 [s1 + 0x590] = a2\n 32310: a0 = 0\n 32312: ra = 1390, jump @9\n      : @1234 [@dyn 695] (gas: 7)\n 32318: u64 [s1 + 1400] = 0\n 32322: u64 [s1 + 1392] = 0\n 32326: u64 [s1 + 1376] = 0x2\n 32331: a0 = 0x20\n 32334: a1 = s1 + 0x560\n 32338: u64 [s1 + 1384] = 0\n 32342: ra = 1392, jump @9\n      : @1235 [@dyn 696] (gas: 3)\n 32348: a1 = 0x20170\n 32353: a0 = i32 [0x20170]\n 32358: jump @1237 if a0 >u 63\n      : @1236 (gas: 2)\n 32362: u32 [0x20170] = 0x40\n 32368: fallthrough\n      : @1237 (gas: 15)\n 32369: a0 = sp + 0xffffffffffffffe0\n 32372: a2 = a0 & 0xffffffffffffffe0\n 32375: u64 [s1 + 0xa8] = a2\n 32379: sp = a2\n 32381: a0 = 0x20180\n 32386: u64 [s1 + 0x70] = a0\n 32389: i32 a0 = a0 + 0\n 32391: u64 [s1 + 0xb0] = a1\n 32395: i32 a2 = a2 + 0\n 32397: a1 = 0x40\n 32400: u64 [s1 + 0xb8] = a0\n 32404: ra = 0x572\n 32408: ecalli 8 // 'hash_keccak_256'\n 32410: t0 = 0x574\n 32414: jump @1379\n      : @1238 [@dyn 697] (gas: 1)\n 32417: t0 = 1396, jump @1379\n      : @1239 [@dyn 698] (gas: 11)\n 32423: a0 = u64 [s1 + 0x28]\n 32426: a0 = a0 << 0x20\n 32429: a0 = a0 >> 0x20\n 32432: u64 [s1 + 1368] = 0\n 32436: u64 [s1 + 1360] = 0\n 32440: u64 [s1 + 1352] = 0\n 32444: a1 = s1 + 0x540\n 32448: u64 [s1 + 0x98] = a0\n 32452: u64 [s1 + 0x540] = a0\n 32456: a0 = 0\n 32458: ra = 1398, jump @9\n      : @1240 [@dyn 699] (gas: 12)\n 32464: a0 = u64 [s1 + 0x78]\n 32467: a3 = s1 + 0x500\n 32471: u64 [a3 + 0x38] = a0\n 32474: a0 = u64 [s1 + 0x80]\n 32478: u64 [a3 + 0x30] = a0\n 32481: a0 = u64 [s1 + 0x88]\n 32485: u64 [a3 + 0x28] = a0\n 32488: a0 = 0x20\n 32491: a1 = s1 + 0x520\n 32495: a2 = u64 [s1 + 0x90]\n 32499: u64 [a3 + 0x20] = a2\n 32502: ra = 1400, jump @9\n      : @1241 [@dyn 700] (gas: 3)\n 32508: a1 = u64 [s1 + 0xb0]\n 32512: a0 = i32 [a1]\n 32514: jump @1243 if a0 >u 63\n      : @1242 (gas: 3)\n 32518: u32 [a1 + 0] = 0x40\n 32521: t0 = 0x57a\n 32525: jump @1428\n      : @1243 (gas: 1)\n 32528: t0 = 1402, jump @1428\n      : @1244 [@dyn 701] (gas: 4)\n 32534: ra = 0x57c\n 32538: ecalli 8 // 'hash_keccak_256'\n 32540: t0 = 0x57e\n 32544: jump @1394\n      : @1245 [@dyn 702] (gas: 1)\n 32547: t0 = 1406, jump @1394\n      : @1246 [@dyn 703] (gas: 2)\n 32553: a0 = s1 + 0x500\n 32557: ra = 1408, jump @11\n      : @1247 [@dyn 704] (gas: 7)\n 32563: a0 = u32 [s1 + 0x504]\n 32567: a1 = u64 [s1 + 0x508]\n 32571: a2 = u64 [s1 + 0x510]\n 32575: a0 = a0 << 0x20\n 32578: a1 = a1 | a2\n 32581: a0 = a0 | a1\n 32584: jump @1316 if a0 == 0\n      : @1248 (gas: 10)\n 32588: u64 [s1 + 1272] = 0\n 32592: a0 = u64 [s1 + 0x40]\n 32595: u64 [s1 + 0x4e0] = a0\n 32599: a0 = u64 [s1 + 0x38]\n 32602: u64 [s1 + 0x4e8] = a0\n 32606: a1 = s1 + 0x4e0\n 32610: a0 = u64 [s1 + 0xa0]\n 32614: u64 [s1 + 0x4f0] = a0\n 32618: a0 = 0\n 32620: ra = 1410, jump @9\n      : @1249 [@dyn 705] (gas: 7)\n 32626: u64 [s1 + 1240] = 0\n 32630: u64 [s1 + 1232] = 0\n 32634: u64 [s1 + 1216] = 0x4\n 32639: a0 = 0x20\n 32642: a1 = s1 + 0x4c0\n 32646: u64 [s1 + 1224] = 0\n 32650: ra = 1412, jump @9\n      : @1250 [@dyn 706] (gas: 3)\n 32656: a1 = u64 [s1 + 0xb0]\n 32660: a0 = i32 [a1]\n 32662: jump @1252 if a0 >u 63\n      : @1251 (gas: 3)\n 32666: u32 [a1 + 0] = 0x40\n 32669: t0 = 0x586\n 32673: jump @1397\n      : @1252 (gas: 1)\n 32676: t0 = 1414, jump @1397\n      : @1253 [@dyn 707] (gas: 22)\n 32682: ecalli 8 // 'hash_keccak_256'\n 32684: a3 = u64 [s1 + 0xa8]\n 32688: a0 = u64 [a3 + 0x18]\n 32691: a1 = u64 [a3 + 0x10]\n 32694: a2 = u64 [a3 + 0x8]\n 32697: a3 = u64 [a3]\n 32699: a0 = reverse a0\n 32701: u64 [s1 + 0xa8] = a0\n 32705: a0 = reverse a1\n 32707: u64 [s1 + 0x90] = a0\n 32711: a0 = reverse a2\n 32713: u64 [s1 + 0x88] = a0\n 32717: a0 = reverse a3\n 32719: u64 [s1 + 0x80] = a0\n 32723: u64 [s1 + 1208] = 0\n 32727: u64 [s1 + 1200] = 0\n 32731: u64 [s1 + 1192] = 0\n 32735: a1 = s1 + 0x4a0\n 32739: a0 = u64 [s1 + 0x30]\n 32742: u64 [s1 + 0x4a0] = a0\n 32746: a0 = 0\n 32748: ra = 1416, jump @9\n      : @1254 [@dyn 708] (gas: 12)\n 32754: a0 = u64 [s1 + 0x80]\n 32758: a3 = s1 + 0x400\n 32762: u64 [a3 + 0x98] = a0\n 32766: a0 = u64 [s1 + 0x88]\n 32770: u64 [a3 + 0x90] = a0\n 32774: a0 = u64 [s1 + 0x90]\n 32778: u64 [a3 + 0x88] = a0\n 32782: a0 = 0x20\n 32785: a1 = s1 + 0x480\n 32789: a2 = u64 [s1 + 0xa8]\n 32793: u64 [a3 + 0x80] = a2\n 32797: ra = 1418, jump @9\n      : @1255 [@dyn 709] (gas: 3)\n 32803: a1 = u64 [s1 + 0xb0]\n 32807: a0 = i32 [a1]\n 32809: jump @1257 if a0 >u 63\n      : @1256 (gas: 3)\n 32813: u32 [a1 + 0] = 0x40\n 32816: t0 = 0x58c\n 32820: jump @1397\n      : @1257 (gas: 1)\n 32823: t0 = 1420, jump @1397\n      : @1258 [@dyn 710] (gas: 4)\n 32829: ra = 0x58e\n 32833: ecalli 8 // 'hash_keccak_256'\n 32835: t0 = 0x590\n 32839: jump @1379\n      : @1259 [@dyn 711] (gas: 1)\n 32842: t0 = 1424, jump @1379\n      : @1260 [@dyn 712] (gas: 8)\n 32848: u64 [s1 + 1144] = 0\n 32852: u64 [s1 + 1136] = 0\n 32856: u64 [s1 + 1128] = 0\n 32860: a1 = s1 + 0x460\n 32864: a0 = u64 [s1 + 0x98]\n 32868: u64 [s1 + 0x460] = a0\n 32872: a0 = 0\n 32874: ra = 1426, jump @9\n      : @1261 [@dyn 713] (gas: 12)\n 32880: a0 = u64 [s1 + 0x78]\n 32883: a3 = s1 + 0x400\n 32887: u64 [a3 + 0x58] = a0\n 32890: a0 = u64 [s1 + 0x80]\n 32894: u64 [a3 + 0x50] = a0\n 32897: a0 = u64 [s1 + 0x88]\n 32901: u64 [a3 + 0x48] = a0\n 32904: a0 = 0x20\n 32907: a1 = s1 + 0x440\n 32911: a2 = u64 [s1 + 0x90]\n 32915: u64 [a3 + 0x40] = a2\n 32918: ra = 1428, jump @9\n      : @1262 [@dyn 714] (gas: 3)\n 32924: a1 = u64 [s1 + 0xb0]\n 32928: a0 = i32 [a1]\n 32930: jump @1264 if a0 >=u 64\n      : @1263 (gas: 3)\n 32934: u32 [a1 + 0] = 0x40\n 32937: t0 = 0x596\n 32941: jump @1428\n      : @1264 (gas: 1)\n 32944: t0 = 1430, jump @1428\n      : @1265 [@dyn 715] (gas: 4)\n 32950: ra = 0x598\n 32954: ecalli 8 // 'hash_keccak_256'\n 32956: t0 = 0x59a\n 32960: jump @1394\n      : @1266 [@dyn 716] (gas: 1)\n 32963: t0 = 1434, jump @1394\n      : @1267 [@dyn 717] (gas: 2)\n 32969: a0 = s1 + 0x420\n 32973: ra = 1436, jump @11\n      : @1268 [@dyn 718] (gas: 3)\n 32979: a1 = u64 [s1 + 0x420]\n 32983: a0 = a1 & 0x1\n 32986: jump @1317 if a0 == 0\n      : @1269 (gas: 2)\n 32990: a0 = a1 & 0x4\n 32993: jump @1318 if a0 != 0\n      : @1270 (gas: 6)\n 32997: u64 [s1 + 0x90] = a1\n 33001: a0 = a1 & 0xfb\n 33005: u64 [s1 + 0x88] = a0\n 33009: a0 = s1 + 0x3e0\n 33013: a1 = u64 [s1 + 0xa8]\n 33017: ra = 1438, jump @11\n      : @1271 [@dyn 719] (gas: 16)\n 33023: a0 = u64 [s1 + 0x3e0]\n 33027: a1 = u64 [s1 + 0x3e8]\n 33031: a2 = u64 [s1 + 0x3f0]\n 33035: a3 = u64 [s1 + 0x3f8]\n 33039: a0 = a0 & 0xffffffffffffff00\n 33043: a4 = u64 [s1 + 0x88]\n 33047: a0 = a0 | a4\n 33050: a0 = a0 + 0x4\n 33053: a4 = s1 + 0x500\n 33057: u64 [a4 + 0xf8] = a3\n 33061: u64 [a4 + 0xf0] = a2\n 33065: u64 [a4 + 0xe8] = a1\n 33069: u64 [a4 + 0xe0] = a0\n 33073: a1 = s1 + 0x5e0\n 33077: a0 = u64 [s1 + 0xa8]\n 33081: ra = 1440, jump @12\n      : @1272 [@dyn 720] (gas: 10)\n 33087: u64 [s1 + 984] = 0\n 33091: a0 = u64 [s1 + 0xa0]\n 33095: u64 [s1 + 0x3d0] = a0\n 33099: a0 = u64 [s1 + 0x38]\n 33102: u64 [s1 + 0x3c8] = a0\n 33106: a1 = s1 + 0x3c0\n 33110: a0 = u64 [s1 + 0x40]\n 33113: u64 [s1 + 0x3c0] = a0\n 33117: a0 = 0\n 33119: ra = 1442, jump @9\n      : @1273 [@dyn 721] (gas: 7)\n 33125: u64 [s1 + 952] = 0\n 33129: u64 [s1 + 944] = 0\n 33133: u64 [s1 + 928] = 0x1\n 33138: a0 = 0x20\n 33141: a1 = s1 + 0x3a0\n 33145: u64 [s1 + 936] = 0\n 33149: ra = 1444, jump @9\n      : @1274 [@dyn 722] (gas: 3)\n 33155: a2 = u64 [s1 + 0xb0]\n 33159: a0 = i32 [a2]\n 33161: jump @1276 if a0 >u 63\n      : @1275 (gas: 3)\n 33165: u32 [a2 + 0] = 0x40\n 33168: t0 = 0x5a6\n 33172: jump @1397\n      : @1276 (gas: 1)\n 33175: t0 = 1446, jump @1397\n      : @1277 [@dyn 723] (gas: 32)\n 33181: ecalli 8 // 'hash_keccak_256'\n 33183: a3 = u64 [s1 + 0xa8]\n 33187: a0 = u64 [a3]\n 33189: a1 = u64 [a3 + 0x8]\n 33192: a2 = u64 [a3 + 0x10]\n 33195: a3 = u64 [a3 + 0x18]\n 33198: t0 = reverse a0\n 33200: a5 = reverse a1\n 33202: a2 = reverse a2\n 33204: a3 = reverse a3\n 33206: a0 = sp + 0xffffffffffffffe0\n 33209: a1 = a0 & 0xffffffffffffffe0\n 33212: u64 [s1 + 0xa8] = a1\n 33216: sp = a1\n 33218: u64 [s1 + 0x68] = a3\n 33221: a0 = a3 + 0x1\n 33224: a3 = a0 <u 0x1\n 33227: u64 [s1 + 0x78] = a2\n 33230: a4 = a2 + a3\n 33233: a2 = a0 | a4\n 33236: a2 = a2 <u 0x1\n 33239: a2 = a2 + a5\n 33242: u64 [s1 + 0x80] = a5\n 33246: a3 = a2 <u a5\n 33249: u64 [s1 + 0x88] = t0\n 33253: a3 = a3 + t0\n 33256: u64 [a1 + 0x8] = a4\n 33259: u64 [a1] = a0\n 33261: u64 [a1 + 0x10] = a2\n 33264: u64 [a1 + 0x18] = a3\n 33267: a0 = s1 + 0x380\n 33271: ra = 1448, jump @11\n      : @1278 [@dyn 724] (gas: 27)\n 33277: a2 = s1 + 0x300\n 33281: a0 = u64 [a2 + 0x80]\n 33285: a1 = u64 [0x20118]\n 33290: t0 = u64 [s1 + 0x398]\n 33294: a3 = u64 [a2 + 0x88]\n 33298: a4 = u64 [a2 + 0x90]\n 33302: a1 = a1 + a0\n 33305: a0 = a1 <u a0\n 33308: a5 = a3 + a0\n 33311: a5 = a5 + 0xffffffffffffffff\n 33314: a2 = a5 ^ a3\n 33317: a3 = a5 <u a3\n 33320: a3 = a0 if a2 == 0\n 33323: a0 = a4 + 0xffffffffffffffff\n 33326: a3 = a3 + a0\n 33329: a0 = a3 <u a0\n 33332: a2 = a4 <u 0x1\n 33335: a2 = t0 - a2\n 33338: a0 = a0 + a2\n 33341: a2 = s1 + 0x600\n 33345: u64 [a2] = a1\n 33347: u64 [a2 + 0x8] = a5\n 33350: u64 [a2 + 0x10] = a3\n 33353: u64 [a2 + 0x18] = a0\n 33356: a1 = s1 + 0x600\n 33360: a0 = u64 [s1 + 0xa8]\n 33364: ra = 1450, jump @12\n      : @1279 [@dyn 725] (gas: 3)\n 33370: a0 = u64 [s1 + 0x90]\n 33374: a0 = a0 & 0x2\n 33377: jump @1302 if a0 != 0\n      : @1280 (gas: 7)\n 33381: u64 [s1 + 1592] = 0\n 33385: u64 [s1 + 1584] = 0\n 33389: u64 [s1 + 1576] = 0\n 33393: u64 [s1 + 1568] = 0\n 33397: a0 = s1 + 0x280\n 33401: a1 = s1 + 0x620\n 33405: ra = 1452, jump @11\n      : @1281 [@dyn 726] (gas: 8)\n 33411: a5 = s1 + 0x200\n 33415: a0 = u64 [a5 + 0x80]\n 33419: a4 = u64 [0x20120]\n 33424: u64 [s1 + 0xa8] = a4\n 33428: a1 = u64 [a5 + 0x98]\n 33432: a2 = u64 [a5 + 0x88]\n 33436: a3 = u64 [a5 + 0x90]\n 33440: t0 = 1454, jump @1406\n      : @1282 [@dyn 727] (gas: 11)\n 33446: u64 [s1 + 1624] = 0\n 33450: u64 [s1 + 1616] = 0\n 33454: u64 [s1 + 1608] = 0\n 33458: u64 [s1 + 1600] = 0\n 33462: u64 [s1 + 0x660] = a4\n 33466: u64 [s1 + 0x668] = a5\n 33470: u64 [s1 + 0x670] = a2\n 33474: u64 [s1 + 0x678] = a0\n 33478: a0 = s1 + 0x640\n 33482: a1 = s1 + 0x660\n 33486: ra = 1456, jump @12\n      : @1283 [@dyn 728] (gas: 1)\n 33492: ra = 1458, jump @0\n      : @1284 [@dyn 729] (gas: 59)\n 33499: a1 = u64 [0x301a0]\n 33504: u64 [s1 + 0x90] = a1\n 33508: a1 = u64 [0x301b0]\n 33513: u64 [s1 + 0x88] = a1\n 33517: a0 = u64 [0x301a8]\n 33522: u64 [s1 + 0x80] = a0\n 33526: ecalli 10 // 'ref_time_left'\n 33528: a1 = u64 [s1 + 0x80]\n 33532: a1 = reverse a1\n 33534: a2 = a1 << 0x20\n 33537: a3 = u64 [s1 + 0x88]\n 33541: a3 = reverse a3\n 33543: a3 = a3 >> 0x20\n 33546: a2 = a2 | a3\n 33549: a1 = a1 >> 0x20\n 33552: a3 = u64 [s1 + 0x90]\n 33556: a3 = reverse a3\n 33558: a4 = 0x30180\n 33563: a5 = a3 << 0x20\n 33566: a1 = a1 | a5\n 33569: a3 = a3 >> 0x20\n 33572: u32 [0x30190] = a3\n 33577: u64 [0x30188] = a1\n 33582: u64 [0x30180] = a2\n 33587: u64 [s1 + 1688] = 0\n 33591: u64 [s1 + 1680] = 0\n 33595: u64 [s1 + 1672] = 0\n 33599: a1 = u64 [s1 + 0xa8]\n 33603: a2 = s1 + 0x600\n 33607: u64 [a2 + 0x80] = a1\n 33611: u32 [s1 + 1696] = 0\n 33615: a0 = a0 >u 0x8fc\n 33619: a1 = -a0\n 33621: u64 [a2 + 0xd8] = a1\n 33625: u64 [a2 + 0xd0] = a1\n 33629: u64 [a2 + 0xc8] = a1\n 33633: u64 [a2 + 0xc0] = a1\n 33637: a4 = a4 << 0x20\n 33640: a4 = a4 >> 0x20\n 33643: a0 = a0 << 0x23\n 33646: a0 = a0 | a4\n 33649: a1 = s1 + 0x680\n 33653: a1 = a1 << 0x20\n 33656: a1 = a1 >> 0x20\n 33659: a2 = s1 + 0x6c0\n 33663: a2 = a2 << 0x20\n 33666: a3 = a2 | a1\n 33669: a4 = u64 [s1 + 0x70]\n 33672: a4 = a4 << 0x20\n 33675: a4 = a4 >> 0x20\n 33678: a1 = s1 + 0x6a0\n 33682: a1 = a1 << 0x20\n 33685: a5 = a1 | a4\n 33688: a1 = 0xffffffffffffffff\n 33691: a2 = 0xffffffffffffffff\n 33694: ecalli 0 // 'call'\n 33695: u64 [s1 + 0x90] = a0\n 33699: ecalli 12 // 'return_data_size'\n 33701: fallthrough\n      : @1285 (gas: 1)\n 33702: jump @1296 if a0 == 0\n      : @1286 (gas: 10)\n 33706: ecalli 12 // 'return_data_size'\n 33708: a2 = a0\n 33710: u64 [s1 + 600] = 0\n 33714: u64 [s1 + 592] = 0\n 33718: u64 [s1 + 584] = 0\n 33722: a0 = s1 + 0x260\n 33726: a1 = s1 + 0x240\n 33730: u64 [s1 + 0x88] = a2\n 33734: u64 [s1 + 0x240] = a2\n 33738: ra = 1460, jump @1333\n      : @1287 [@dyn 730] (gas: 11)\n 33744: a2 = u64 [s1 + 0x260]\n 33748: a0 = u64 [s1 + 0x268]\n 33752: a1 = u64 [s1 + 0x270]\n 33756: a3 = u64 [s1 + 0x278]\n 33760: u64 [s1 + 0x218] = a3\n 33764: u64 [s1 + 0x210] = a1\n 33768: u64 [s1 + 0x208] = a0\n 33772: a0 = s1 + 0x220\n 33776: a1 = s1 + 0x200\n 33780: u64 [s1 + 0x200] = a2\n 33784: ra = 1462, jump @1323\n      : @1288 [@dyn 731] (gas: 16)\n 33790: a4 = s1 + 0x200\n 33794: a1 = u64 [a4 + 0x38]\n 33797: a3 = u64 [a4 + 0x30]\n 33800: a0 = u64 [a4 + 0x28]\n 33803: a2 = u64 [a4 + 0x20]\n 33806: u64 [s1 + 0x80] = a0\n 33810: u64 [s1 + 0x78] = a1\n 33813: a0 = a0 | a1\n 33816: a1 = a2 | a3\n 33819: a1 = a1 | a0\n 33822: a1 = a1 >> 0x20\n 33825: u64 [s1 + 0x70] = a3\n 33828: a0 = a0 | a3\n 33831: a0 = a0 << 0x20\n 33834: a0 = a0 | a1\n 33837: jump @1311 if a0 != 0\n      : @1289 (gas: 9)\n 33841: u64 [s1 + 504] = 0\n 33845: u64 [s1 + 496] = 0\n 33849: u64 [s1 + 488] = 0\n 33853: a1 = s1 + 0x1e0\n 33857: a0 = u64 [s1 + 0x88]\n 33861: u64 [s1 + 0x1e0] = a0\n 33865: a0 = a2\n 33867: u64 [s1 + 0x88] = a2\n 33871: ra = 1464, jump @9\n      : @1290 [@dyn 732] (gas: 2)\n 33878: ecalli 12 // 'return_data_size'\n 33880: fallthrough\n      : @1291 (gas: 10)\n 33881: a3 = u64 [s1 + 0x88]\n 33885: a1 = u64 [s1 + 0x78]\n 33888: a2 = u64 [s1 + 0x70]\n 33891: a1 = a1 | a2\n 33894: a2 = 0xffffffe0\n 33904: a2 = a3 <u a2\n 33907: a4 = u64 [s1 + 0x80]\n 33911: a2 = 0 if a4 != 0\n 33913: a2 = 0 if a1 != 0\n 33915: jump @1311 if a2 == 0\n      : @1292 (gas: 3)\n 33919: a1 = a0\n 33921: a0 = a0 >> 0x20\n 33924: jump @1311 if a0 != 0\n      : @1293 (gas: 7)\n 33928: i32 a0 = a3 + 0x20\n 33931: a2 = a1\n 33933: u64 [s1 + 0x80] = a1\n 33937: i32 a1 = a1 + 0\n 33939: u64 [s1 + 0x88] = a1\n 33943: a1 = a2\n 33945: ra = 1466, jump @21\n      : @1294 [@dyn 733] (gas: 7)\n 33951: a1 = u64 [s1 + 0x80]\n 33955: u32 [s1 + 0x6e0] = a1\n 33959: i32 a0 = a0 + 0\n 33961: i32 a1 = s1 + 0x6e0\n 33965: a2 = 0\n 33967: ecalli 11 // 'return_data_copy'\n 33969: fallthrough\n      : @1295 (gas: 3)\n 33970: a0 = i32 [s1 + 0x6e0]\n 33974: a1 = u64 [s1 + 0x88]\n 33978: jump @1311 if a0 <u a1\n      : @1296 (gas: 2)\n 33982: a0 = u64 [s1 + 0x90]\n 33986: jump @1319 if a0 != 0\n      : @1297 (gas: 3)\n 33990: a0 = s1 + 0x1a0\n 33994: a1 = 0x40\n 33997: ra = 1468, jump @7\n      : @1298 [@dyn 734] (gas: 6)\n 34004: a4 = s1 + 0x100\n 34008: a0 = u64 [a4 + 0xb8]\n 34012: a1 = u64 [a4 + 0xb0]\n 34016: a2 = u64 [a4 + 0xa8]\n 34020: a3 = u64 [a4 + 0xa0]\n 34024: t0 = 1470, jump @1385\n      : @1299 [@dyn 735] (gas: 1)\n 34030: jump @1311 if a0 != 0\n      : @1300 (gas: 9)\n 34034: u64 [s1 + 408] = 0\n 34038: u64 [s1 + 400] = 0\n 34042: u64 [s1 + 392] = 0\n 34046: a1 = s1 + 0x180\n 34050: a0 = u64 [s1 + 0xa8]\n 34054: u64 [s1 + 0x180] = a0\n 34058: a0 = a3\n 34060: u64 [s1 + 0xb8] = a3\n 34064: ra = 1472, jump @9\n      : @1301 [@dyn 736] (gas: 33)\n 34071: u64 [s1 + 280] = 0\n 34075: u64 [s1 + 272] = 0\n 34079: u64 [s1 + 264] = 0\n 34083: a0 = u64 [s1 + 0x30]\n 34086: u64 [s1 + 0x100] = a0\n 34090: u64 [s1 + 312] = 0\n 34094: u64 [s1 + 304] = 0\n 34098: u64 [s1 + 296] = 0\n 34102: a0 = u64 [s1 + 0x98]\n 34106: u64 [s1 + 0x120] = a0\n 34110: u64 [s1 + 344] = 0\n 34114: a0 = u64 [s1 + 0xa0]\n 34118: u64 [s1 + 0x150] = a0\n 34122: a0 = u64 [s1 + 0x38]\n 34125: u64 [s1 + 0x148] = a0\n 34129: a0 = u64 [0x20148]\n 34134: a1 = u64 [0x20150]\n 34139: a2 = u64 [0x20158]\n 34144: a3 = u64 [s1 + 0x40]\n 34147: u64 [s1 + 0x140] = a3\n 34151: u64 [s1 + 0x178] = a0\n 34155: u64 [s1 + 0x170] = a1\n 34159: u64 [s1 + 0x168] = a2\n 34163: a0 = u64 [0x20160]\n 34168: a1 = 0x20\n 34171: a2 = s1 + 0x160\n 34175: a3 = s1 + 0x140\n 34179: a4 = s1 + 0x120\n 34183: a5 = s1 + 0x100\n 34187: u64 [s1 + 0x160] = a0\n 34191: a0 = u64 [s1 + 0xb8]\n 34195: ra = 0x5ce\n 34199: jump @18\n      : @1302 (gas: 8)\n 34203: a0 = sp + 0xffffffffffffffe0\n 34206: a5 = a0 & 0xffffffffffffffe0\n 34209: sp = a5\n 34211: a1 = u64 [s1 + 0x68]\n 34214: a0 = a1 + 0x2\n 34217: a1 = a0 <u a1\n 34220: a3 = u64 [s1 + 0x78]\n 34223: t0 = 1474, jump @1417\n      : @1303 [@dyn 737] (gas: 13)\n 34229: a1 = u64 [s1 + 0x80]\n 34233: a3 = a3 + a1\n 34236: a1 = a3 <u a1\n 34239: a4 = u64 [s1 + 0x88]\n 34243: a4 = a4 + a1\n 34246: a1 = a5\n 34248: u64 [s1 + 0xb8] = a5\n 34252: u64 [a5 + 0x8] = a2\n 34255: u64 [a5] = a0\n 34257: u64 [a5 + 0x10] = a3\n 34260: u64 [a5 + 0x18] = a4\n 34263: a0 = s1 + 0x360\n 34267: ra = 1476, jump @11\n      : @1304 [@dyn 738] (gas: 7)\n 34274: a0 = u64 [s1 + 0x360]\n 34278: a4 = u64 [0x20120]\n 34283: a1 = u64 [s1 + 0x378]\n 34287: a2 = u64 [s1 + 0x368]\n 34291: a3 = u64 [s1 + 0x370]\n 34295: u64 [s1 + 0xb0] = a4\n 34299: t0 = 1478, jump @1406\n      : @1305 [@dyn 739] (gas: 8)\n 34305: a1 = s1 + 0x700\n 34309: u64 [a1] = a4\n 34311: u64 [a1 + 0x8] = a5\n 34314: u64 [a1 + 0x10] = a2\n 34317: u64 [a1 + 0x18] = a0\n 34320: a1 = s1 + 0x700\n 34324: a0 = u64 [s1 + 0xb8]\n 34328: ra = 1480, jump @12\n      : @1306 [@dyn 740] (gas: 3)\n 34335: a0 = s1 + 0x340\n 34339: a1 = 0x40\n 34342: ra = 1482, jump @7\n      : @1307 [@dyn 741] (gas: 13)\n 34349: a4 = s1 + 0x300\n 34353: a3 = u64 [a4 + 0x58]\n 34356: a1 = u64 [a4 + 0x50]\n 34359: a2 = u64 [a4 + 0x48]\n 34362: a0 = u64 [a4 + 0x40]\n 34365: a3 = a3 | a2\n 34368: a2 = a0 | a1\n 34371: a2 = a2 | a3\n 34374: a2 = a2 >> 0x20\n 34377: a1 = a1 | a3\n 34380: a1 = a1 << 0x20\n 34383: a1 = a1 | a2\n 34386: jump @1311 if a1 != 0\n      : @1308 (gas: 8)\n 34390: u64 [s1 + 824] = 0\n 34394: u64 [s1 + 816] = 0\n 34398: u64 [s1 + 808] = 0\n 34402: a1 = s1 + 0x320\n 34406: a2 = u64 [s1 + 0xb0]\n 34410: u64 [s1 + 0x320] = a2\n 34414: u64 [s1 + 0xb8] = a0\n 34418: ra = 1484, jump @9\n      : @1309 [@dyn 742] (gas: 33)\n 34425: u64 [s1 + 696] = 0\n 34429: u64 [s1 + 688] = 0\n 34433: u64 [s1 + 680] = 0\n 34437: a0 = u64 [s1 + 0x30]\n 34440: a4 = s1 + 0x200\n 34444: u64 [a4 + 0xa0] = a0\n 34448: u64 [s1 + 728] = 0\n 34452: u64 [s1 + 720] = 0\n 34456: u64 [s1 + 712] = 0\n 34460: a0 = u64 [s1 + 0x98]\n 34464: u64 [a4 + 0xc0] = a0\n 34468: u64 [s1 + 760] = 0\n 34472: a0 = u64 [s1 + 0xa0]\n 34476: u64 [a4 + 0xf0] = a0\n 34480: a0 = u64 [s1 + 0x38]\n 34483: u64 [a4 + 0xe8] = a0\n 34487: a0 = u64 [0x20128]\n 34492: a1 = u64 [0x20130]\n 34497: a2 = u64 [0x20138]\n 34502: a3 = u64 [s1 + 0x40]\n 34505: u64 [a4 + 0xe0] = a3\n 34509: u64 [s1 + 0x318] = a0\n 34513: u64 [s1 + 0x310] = a1\n 34517: u64 [s1 + 0x308] = a2\n 34521: a0 = u64 [0x20140]\n 34526: a1 = 0x20\n 34529: a2 = s1 + 0x300\n 34533: a3 = s1 + 0x2e0\n 34537: a4 = s1 + 0x2c0\n 34541: a5 = s1 + 0x2a0\n 34545: u64 [s1 + 0x300] = a0\n 34549: a0 = u64 [s1 + 0xb8]\n 34553: ra = 1486, jump @18\n      : @1310 [@dyn 743] (gas: 7)\n 34560: sp = s0 + 0xfffffffffffff8c0\n 34564: a0 = sp + 0x700\n 34568: ra = u64 [a0 + 0x38]\n 34571: s0 = u64 [a0 + 0x30]\n 34574: s1 = u64 [a0 + 0x28]\n 34577: sp = sp + 0x740\n 34581: ret\n      : @1311 (gas: 1)\n 34583: trap\n      : @1312 (gas: 8)\n 34584: u64 [s1 + 1456] = 0\n 34588: u64 [s1 + 1448] = 0\n 34592: u64 [s1 + 1440] = 0\n 34596: a0 = 0xcf114bd900000000\n 34606: a1 = s1 + 0x5a0\n 34610: u64 [s1 + 0x5b8] = a0\n 34614: a0 = 0\n 34616: ra = 1488, jump @9\n      : @1313 [@dyn 744] (gas: 2)\n 34623: a1 = i32 [0x20170]\n 34628: jump @1315 if a1 >u 31\n      : @1314 (gas: 2)\n 34632: u32 [0x20170] = 0x20\n 34638: fallthrough\n      : @1315 (gas: 6)\n 34639: a1 = 0x20180\n 34644: i32 a1 = a1 + 0\n 34646: a0 = 0x1\n 34649: a2 = 0x4\n 34652: ecalli 13 // 'seal_return'\n 34654: fallthrough\n      : @1316 (gas: 9)\n 34655: u64 [s1 + 208] = 0\n 34659: u64 [s1 + 200] = 0\n 34663: u64 [s1 + 192] = 0\n 34667: a0 = 0xa7a9536d00000000\n 34677: a1 = s1 + 0xc0\n 34681: u64 [s1 + 0xd8] = a0\n 34685: a0 = 0\n 34687: ra = 0x5d2\n 34691: jump @9\n      : @1317 (gas: 9)\n 34695: u64 [s1 + 240] = 0\n 34699: u64 [s1 + 232] = 0\n 34703: u64 [s1 + 224] = 0\n 34707: a0 = 0xafa4e2b600000000\n 34717: a1 = s1 + 0xe0\n 34721: u64 [s1 + 0xf8] = a0\n 34725: a0 = 0\n 34727: ra = 0x5d2\n 34731: jump @9\n      : @1318 (gas: 9)\n 34735: u64 [s1 + 1040] = 0\n 34739: u64 [s1 + 1032] = 0\n 34743: u64 [s1 + 1024] = 0\n 34747: a0 = 0x560ff90000000000\n 34757: a1 = s1 + 0x400\n 34761: u64 [s1 + 0x418] = a0\n 34765: a0 = 0\n 34767: ra = 0x5d2\n 34771: jump @9\n      : @1319 (gas: 8)\n 34775: u64 [s1 + 464] = 0\n 34779: u64 [s1 + 456] = 0\n 34783: u64 [s1 + 448] = 0\n 34787: a0 = 0x90b8ec1800000000\n 34797: a1 = s1 + 0x1c0\n 34801: u64 [s1 + 0x1d8] = a0\n 34805: a0 = 0\n 34807: ra = 1490, jump @9\n      : @1320 [@dyn 745] (gas: 3)\n 34814: a0 = u64 [s1 + 0xb0]\n 34818: a0 = i32 [a0]\n 34820: jump @1322 if a0 >u 31\n      : @1321 (gas: 3)\n 34824: a1 = u64 [s1 + 0xb0]\n 34828: u32 [a1 + 0] = 0x20\n 34831: fallthrough\n      : @1322 (gas: 6)\n 34832: a0 = 0x1\n 34835: a2 = 0x4\n 34838: a1 = u64 [s1 + 0xb8]\n 34842: ra = 0x5d4\n 34846: ecalli 13 // 'seal_return'\n 34848: fallthrough\n      : @1323 [@dyn 746] (gas: 17)\n 34849: sp = sp + 0xffffffffffffff30\n 34853: u64 [sp + 0xc8] = ra\n 34857: u64 [sp + 0xc0] = s0\n 34861: u64 [sp + 0xb8] = s1\n 34865: s0 = sp + 0xd0\n 34869: sp = sp & 0xfffffffffffffff0\n 34872: a2 = u64 [a1 + 0x18]\n 34875: u64 [sp + 0x10] = a2\n 34878: a2 = u64 [a1 + 0x10]\n 34881: u64 [sp + 0x8] = a2\n 34884: a2 = u64 [a1 + 0x8]\n 34887: u64 [sp] = a2\n 34889: s1 = u64 [a1]\n 34891: u64 [sp + 0x28] = a0\n 34894: a0 = sp + 0x90\n 34898: a1 = 0x40\n 34901: ra = 1494, jump @7\n      : @1324 [@dyn 747] (gas: 39)\n 34908: a1 = u64 [sp + 0x98]\n 34912: a2 = u64 [sp + 0x90]\n 34916: a0 = s1 + 0x1f\n 34919: ra = a0 <u s1\n 34922: a3 = u64 [sp]\n 34924: a4 = a3 + ra\n 34927: a0 = a0 & 0xffffffffffffffe0\n 34930: t1 = a1 + a4\n 34933: t0 = a2 + a0\n 34936: u64 [sp + 0x20] = a2\n 34939: a5 = t0 <u a2\n 34942: t1 = t1 + a5\n 34945: s1 = t1 ^ a1\n 34948: u64 [sp + 0x18] = a1\n 34951: a2 = t1 <u a1\n 34954: a2 = a5 if s1 == 0\n 34957: t2 = u64 [sp + 0xa8]\n 34961: a4 = a4 <u a3\n 34964: s1 = u64 [sp + 0xa0]\n 34968: a4 = ra if ra == 0\n 34971: a0 = u64 [sp + 0x8]\n 34974: a4 = a4 + a0\n 34977: a5 = a4 <u a0\n 34980: a4 = a4 + s1\n 34983: a3 = a4 + a2\n 34986: a0 = u64 [sp + 0x10]\n 34989: a0 = a0 + t2\n 34992: a0 = a0 + a5\n 34995: a5 = a3 <u a4\n 34998: a4 = a4 <u s1\n 35001: a0 = a0 + a4\n 35004: a4 = a0 + a5\n 35007: a0 = a4 >u 0\n 35009: a5 = a3 >u 0\n 35011: a5 = a0 if a4 != 0\n 35014: a0 = a3 | a4\n 35017: a1 = t1 >u 0\n 35019: a1 = a5 if a0 != 0\n 35022: jump @1328 if a1 != 0\n      : @1325 (gas: 8)\n 35025: a0 = a3 <u s1\n 35028: a1 = a4 ^ t2\n 35031: a5 = a4 <u t2\n 35034: a5 = a0 if a1 == 0\n 35037: a0 = a3 ^ s1\n 35040: a0 = a0 | a1\n 35043: a2 = a5 if a0 != 0\n 35046: jump @1328 if a2 != 0\n      : @1326 (gas: 8)\n 35049: u64 [sp + 0x70] = t0\n 35052: u64 [sp + 0x78] = t1\n 35055: u64 [sp + 0x80] = a3\n 35059: a0 = 0x40\n 35062: a1 = sp + 0x70\n 35065: u64 [sp + 0x88] = a4\n 35069: u64 [sp + 0x10] = t2\n 35072: ra = 1496, jump @9\n      : @1327 [@dyn 748] (gas: 14)\n 35079: a0 = u64 [sp + 0x28]\n 35082: a1 = u64 [sp + 0x10]\n 35085: u64 [a0 + 0x18] = a1\n 35088: u64 [a0 + 0x10] = s1\n 35091: a1 = u64 [sp + 0x18]\n 35094: u64 [a0 + 0x8] = a1\n 35097: a1 = u64 [sp + 0x20]\n 35100: u64 [a0] = a1\n 35102: sp = s0 + 0xffffffffffffff30\n 35106: ra = u64 [sp + 0xc8]\n 35110: s0 = u64 [sp + 0xc0]\n 35114: s1 = u64 [sp + 0xb8]\n 35118: sp = sp + 0xd0\n 35122: ret\n      : @1328 (gas: 8)\n 35124: u64 [sp + 96] = 0\n 35127: u64 [sp + 88] = 0\n 35130: u64 [sp + 80] = 0\n 35133: a0 = 0x4e487b7100000000\n 35143: a1 = sp + 0x50\n 35146: u64 [sp + 0x68] = a0\n 35149: a0 = 0\n 35151: ra = 1498, jump @9\n      : @1329 [@dyn 749] (gas: 7)\n 35158: u64 [sp + 72] = 0\n 35161: u64 [sp + 64] = 0\n 35164: u64 [sp + 48] = 0x41\n 35168: a0 = 0x4\n 35171: a1 = sp + 0x30\n 35174: u64 [sp + 56] = 0\n 35177: ra = 1500, jump @9\n      : @1330 [@dyn 750] (gas: 2)\n 35184: a1 = i32 [0x20170]\n 35189: jump @1332 if a1 >u 63\n      : @1331 (gas: 2)\n 35193: u32 [0x20170] = 0x40\n 35199: fallthrough\n      : @1332 (gas: 7)\n 35200: a1 = 0x20180\n 35205: i32 a1 = a1 + 0\n 35207: a0 = 0x1\n 35210: a2 = 0x24\n 35213: ra = 0x5de\n 35217: ecalli 13 // 'seal_return'\n 35219: fallthrough\n      : @1333 [@dyn 751] (gas: 10)\n 35220: a3 = u64 [a1 + 0x18]\n 35223: a4 = u64 [a1 + 0x10]\n 35226: t0 = u64 [a1 + 0x8]\n 35229: a5 = a3 >u 0\n 35231: a2 = a4 >u 0\n 35233: a2 = a5 if a3 != 0\n 35236: a3 = a3 | a4\n 35239: a4 = t0 >u 0\n 35241: a4 = a2 if a3 != 0\n 35244: jump @1335 if a4 != 0\n      : @1334 (gas: 16)\n 35247: a1 = u64 [a1]\n 35249: a2 = a1 + 0x1f\n 35252: a1 = a2 <u a1\n 35255: a1 = a1 + t0\n 35258: a1 = a1 & 0x1\n 35261: a2 = a2 & 0xffffffffffffffe0\n 35264: a3 = a2 + 0x20\n 35267: a2 = a3 <u a2\n 35270: a4 = a1 + a2\n 35273: a1 = a4 <u a1\n 35276: a1 = a2 if a2 == 0\n 35279: u64 [a0 + 24] = 0\n 35282: u64 [a0] = a3\n 35284: u64 [a0 + 0x8] = a4\n 35287: u64 [a0 + 0x10] = a1\n 35290: ret\n      : @1335 (gas: 13)\n 35292: sp = sp + 0xffffffffffffffb0\n 35295: u64 [sp + 0x48] = ra\n 35298: u64 [sp + 0x40] = s0\n 35301: s0 = sp + 0x50\n 35304: sp = sp & 0xfffffffffffffff0\n 35307: u64 [sp + 48] = 0\n 35310: u64 [sp + 40] = 0\n 35313: u64 [sp + 32] = 0\n 35316: a0 = 0x4e487b7100000000\n 35326: a1 = sp + 0x20\n 35329: u64 [sp + 0x38] = a0\n 35332: a0 = 0\n 35334: ra = 1504, jump @9\n      : @1336 [@dyn 752] (gas: 7)\n 35341: u64 [sp + 24] = 0\n 35344: u64 [sp + 16] = 0\n 35347: u64 [sp + 0] = 0x41\n 35350: a0 = 0x4\n 35353: a1 = sp\n 35355: u64 [sp + 8] = 0\n 35358: ra = 1506, jump @9\n      : @1337 [@dyn 753] (gas: 2)\n 35365: a1 = i32 [0x20170]\n 35370: jump @1339 if a1 >u 63\n      : @1338 (gas: 2)\n 35374: u32 [0x20170] = 0x40\n 35380: fallthrough\n      : @1339 (gas: 7)\n 35381: a1 = 0x20180\n 35386: i32 a1 = a1 + 0\n 35388: a0 = 0x1\n 35391: a2 = 0x24\n 35394: ra = 0x5e4\n 35398: ecalli 13 // 'seal_return'\n 35400: fallthrough\n      : @1340 [@dyn 754] (gas: 74)\n 35401: sp = sp + 0xfffffffffffffe80\n 35405: u64 [sp + 0x178] = ra\n 35409: u64 [sp + 0x170] = s0\n 35413: u64 [sp + 0x168] = s1\n 35417: s0 = sp + 0x180\n 35421: sp = sp & 0xffffffffffffffe0\n 35424: a2 = u64 [a1]\n 35426: u64 [sp + 0x38] = a2\n 35429: a2 = u64 [a1 + 0x8]\n 35432: u64 [sp + 0x30] = a2\n 35435: a2 = u64 [a1 + 0x10]\n 35438: u64 [sp + 0x28] = a2\n 35441: a1 = u64 [a1 + 0x18]\n 35444: u64 [sp + 0x20] = a1\n 35447: a1 = u64 [a0]\n 35449: u64 [sp + 0x18] = a1\n 35452: a1 = u64 [a0 + 0x10]\n 35455: u64 [sp + 0x10] = a1\n 35458: s1 = u64 [a0 + 0x8]\n 35461: ecalli 10 // 'ref_time_left'\n 35463: a1 = reverse s1\n 35465: a2 = a1 << 0x20\n 35468: a3 = u64 [sp + 0x10]\n 35471: a3 = reverse a3\n 35473: a3 = a3 >> 0x20\n 35476: a2 = a2 | a3\n 35479: a1 = a1 >> 0x20\n 35482: a3 = u64 [sp + 0x18]\n 35485: a3 = reverse a3\n 35487: a4 = 0x30180\n 35492: a5 = a3 << 0x20\n 35495: a1 = a1 | a5\n 35498: a3 = a3 >> 0x20\n 35501: u32 [0x30190] = a3\n 35506: u64 [0x30188] = a1\n 35511: u64 [0x30180] = a2\n 35516: a1 = u64 [sp + 0x20]\n 35519: u64 [sp + 0x118] = a1\n 35523: a1 = u64 [sp + 0x28]\n 35526: u64 [sp + 0x110] = a1\n 35530: a1 = u64 [sp + 0x30]\n 35533: u64 [sp + 0x108] = a1\n 35537: a1 = u64 [sp + 0x38]\n 35540: u64 [sp + 0x100] = a1\n 35544: u32 [sp + 288] = 0\n 35548: a0 = a0 >u 0x8fc\n 35552: a1 = -a0\n 35554: u64 [sp + 0x158] = a1\n 35558: u64 [sp + 0x150] = a1\n 35562: u64 [sp + 0x148] = a1\n 35566: u64 [sp + 0x140] = a1\n 35570: a4 = a4 << 0x20\n 35573: a4 = a4 >> 0x20\n 35576: a0 = a0 << 0x23\n 35579: a0 = a0 | a4\n 35582: a1 = sp + 0x100\n 35586: a1 = a1 << 0x20\n 35589: a1 = a1 >> 0x20\n 35592: a4 = 0x20180\n 35597: a2 = sp + 0x140\n 35601: a2 = a2 << 0x20\n 35604: a3 = a2 | a1\n 35607: u64 [sp + 0x18] = a4\n 35610: a4 = a4 << 0x20\n 35613: a4 = a4 >> 0x20\n 35616: a1 = sp + 0x120\n 35620: a1 = a1 << 0x20\n 35623: a5 = a1 | a4\n 35626: a1 = 0xffffffffffffffff\n 35629: a2 = 0xffffffffffffffff\n 35632: ecalli 0 // 'call'\n 35633: s1 = a0\n 35635: ecalli 12 // 'return_data_size'\n 35637: fallthrough\n      : @1341 (gas: 1)\n 35638: jump @1352 if a0 == 0\n      : @1342 (gas: 11)\n 35642: u64 [sp + 0x20] = s1\n 35645: ecalli 12 // 'return_data_size'\n 35647: a2 = a0\n 35649: u64 [sp + 216] = 0\n 35653: u64 [sp + 208] = 0\n 35657: u64 [sp + 200] = 0\n 35661: a0 = sp + 0xe0\n 35665: a1 = sp + 0xc0\n 35669: u64 [sp + 0x38] = a2\n 35672: u64 [sp + 0xc0] = a2\n 35676: ra = 1510, jump @1333\n      : @1343 [@dyn 755] (gas: 11)\n 35682: a2 = u64 [sp + 0xe0]\n 35686: a0 = u64 [sp + 0xe8]\n 35690: a1 = u64 [sp + 0xf0]\n 35694: a3 = u64 [sp + 0xf8]\n 35698: u64 [sp + 0x98] = a3\n 35702: u64 [sp + 0x90] = a1\n 35706: u64 [sp + 0x88] = a0\n 35710: a0 = sp + 0xa0\n 35714: a1 = sp + 0x80\n 35718: u64 [sp + 0x80] = a2\n 35722: ra = 1512, jump @1323\n      : @1344 [@dyn 756] (gas: 14)\n 35728: a1 = u64 [sp + 0xb8]\n 35732: s1 = u64 [sp + 0xb0]\n 35736: a0 = u64 [sp + 0xa8]\n 35740: a2 = u64 [sp + 0xa0]\n 35744: u64 [sp + 0x30] = a0\n 35747: u64 [sp + 0x28] = a1\n 35750: a0 = a0 | a1\n 35753: a1 = a2 | s1\n 35756: a1 = a1 | a0\n 35759: a1 = a1 >> 0x20\n 35762: a0 = a0 | s1\n 35765: a0 = a0 << 0x20\n 35768: a0 = a0 | a1\n 35771: jump @1354 if a0 != 0\n      : @1345 (gas: 9)\n 35775: u64 [sp + 120] = 0\n 35778: u64 [sp + 112] = 0\n 35781: u64 [sp + 104] = 0\n 35784: a1 = sp + 0x60\n 35787: a0 = u64 [sp + 0x38]\n 35790: u64 [sp + 0x60] = a0\n 35793: a0 = a2\n 35795: u64 [sp + 0x38] = a2\n 35798: ra = 1514, jump @9\n      : @1346 [@dyn 757] (gas: 2)\n 35805: ecalli 12 // 'return_data_size'\n 35807: fallthrough\n      : @1347 (gas: 9)\n 35808: a3 = u64 [sp + 0x38]\n 35811: a1 = u64 [sp + 0x28]\n 35814: a1 = a1 | s1\n 35817: a2 = 0xffffffe0\n 35827: a2 = a3 <u a2\n 35830: a4 = u64 [sp + 0x30]\n 35833: a2 = 0 if a4 != 0\n 35835: a2 = 0 if a1 != 0\n 35837: jump @1354 if a2 == 0\n      : @1348 (gas: 3)\n 35840: s1 = a0\n 35842: a0 = a0 >> 0x20\n 35845: jump @1354 if a0 != 0\n      : @1349 (gas: 5)\n 35848: i32 a0 = a3 + 0x20\n 35851: i32 a1 = s1 + 0\n 35853: u64 [sp + 0x38] = a1\n 35856: a1 = s1\n 35858: ra = 1516, jump @21\n      : @1350 [@dyn 758] (gas: 6)\n 35865: u32 [sp + 0x160] = s1\n 35869: i32 a0 = a0 + 0\n 35871: i32 a1 = sp + 0x160\n 35875: a2 = 0\n 35877: ecalli 11 // 'return_data_copy'\n 35879: fallthrough\n      : @1351 (gas: 4)\n 35880: a0 = i32 [sp + 0x160]\n 35884: s1 = u64 [sp + 0x20]\n 35887: a1 = u64 [sp + 0x38]\n 35890: jump @1354 if a0 <u a1\n      : @1352 (gas: 1)\n 35893: jump @1355 if s1 != 0\n      : @1353 (gas: 6)\n 35896: sp = s0 + 0xfffffffffffffe80\n 35900: ra = u64 [sp + 0x178]\n 35904: s0 = u64 [sp + 0x170]\n 35908: s1 = u64 [sp + 0x168]\n 35912: sp = sp + 0x180\n 35916: ret\n      : @1354 (gas: 1)\n 35918: trap\n      : @1355 (gas: 8)\n 35919: u64 [sp + 80] = 0\n 35922: u64 [sp + 72] = 0\n 35925: u64 [sp + 64] = 0\n 35928: a0 = 0x90b8ec1800000000\n 35938: a1 = sp + 0x40\n 35941: u64 [sp + 0x58] = a0\n 35944: a0 = 0\n 35946: ra = 1518, jump @9\n      : @1356 [@dyn 759] (gas: 2)\n 35953: a1 = i32 [0x20170]\n 35958: jump @1358 if a1 >u 31\n      : @1357 (gas: 2)\n 35962: u32 [0x20170] = 0x20\n 35968: fallthrough\n      : @1358 (gas: 7)\n 35969: a1 = i32 [sp + 0x18]\n 35972: a0 = 0x1\n 35975: a2 = 0x4\n 35978: ecalli 13 // 'seal_return'\n 35980: a0 = 0\n 35982: ra = 0x5f0\n 35986: jump @27\n      : @1359 [export #0: 'call'] (gas: 2)\n 35990: a0 = 0\n 35992: ra = 1520, jump @27\n      : @1360 [@dyn 760] [export #1: 'deploy'] (gas: 2)\n 35999: a0 = 0x1\n 36002: ra = 1522, jump @27\n      : @1361 [@dyn 761] (gas: 15)\n 36009: a0 = u64 [a2 + 0x8]\n 36012: a1 = i32 [a2 + 0x10]\n 36015: a2 = u64 [a2]\n 36017: a0 = reverse a0\n 36019: a3 = a0 << 0x20\n 36022: a1 = reverse a1\n 36024: a1 = a1 >> 0x20\n 36027: a3 = a3 | a1\n 36030: a0 = a0 >> 0x20\n 36033: a1 = reverse a2\n 36035: a2 = a1 << 0x20\n 36038: a0 = a0 | a2\n 36041: a1 = a1 >> 0x20\n 36044: a2 = s1 + 0x1118\n 36048: jump [t0]\n      : @1362 (gas: 17)\n 36050: a2 = u64 [s1 + 0x150]\n 36054: a0 = u64 [a2 + 0x8]\n 36057: a1 = i32 [a2 + 0x10]\n 36060: a2 = u64 [a2]\n 36062: a0 = reverse a0\n 36064: a3 = a0 << 0x20\n 36067: a1 = reverse a1\n 36069: a1 = a1 >> 0x20\n 36072: a3 = a3 | a1\n 36075: a0 = a0 >> 0x20\n 36078: a1 = reverse a2\n 36080: a2 = a1 << 0x20\n 36083: a0 = a0 | a2\n 36086: a1 = a1 >> 0x20\n 36089: a2 = s1 + 0x7ff\n 36093: a2 = a2 + 0x119\n 36097: jump [t0]\n      : @1363 (gas: 27)\n 36099: u64 [s1 + 0x168] = a0\n 36103: a0 = ra - a3\n 36106: a0 = a0 <u a5\n 36109: a1 = ra <u a3\n 36112: a5 = u64 [s1 + 0x138]\n 36116: a4 = ra - a5\n 36119: a4 = a4 - a1\n 36122: a4 = a4 - a0\n 36125: ra = a4 >>a 0x3f\n 36128: a0 = u64 [s1 + 0x130]\n 36132: a0 = ra & a0\n 36135: a1 = u64 [s1 + 0x140]\n 36139: t2 = a1 - a0\n 36142: a1 = a1 <u a0\n 36145: t1 = a2 - a1\n 36148: a1 = 0 if a2 != 0\n 36150: a0 = a3 - a1\n 36153: u64 [s1 + 0x148] = a0\n 36157: a1 = a3 <u a1\n 36160: a1 = a5 - a1\n 36163: a0 = s1 + 0x100\n 36167: a3 = u64 [a0 + 0x98]\n 36171: a5 = u64 [a0 + 0x90]\n 36175: a2 = a3 | a5\n 36178: a2 = a2 <u 0x1\n 36181: a4 = u64 [a0 + 0x80]\n 36185: jump [t0]\n      : @1364 (gas: 5)\n 36187: sp = a0\n 36189: i32 a2 = a0 + 0\n 36191: a1 = 0x40\n 36194: a0 = u64 [s1 + 0x190]\n 36198: jump [t0]\n      : @1365 (gas: 8)\n 36200: a0 = u64 [a2 + 0x8]\n 36203: a1 = i32 [a2 + 0x10]\n 36206: a2 = u64 [a2]\n 36208: a3 = reverse a0\n 36210: a0 = a3 << 0x20\n 36213: a1 = reverse a1\n 36215: a1 = a1 >> 0x20\n 36218: jump [t0]\n      : @1366 (gas: 24)\n 36220: a0 = a1 if a2 == 0\n 36223: a2 = u64 [s1 + 0x150]\n 36227: a3 = a2\n 36229: a1 = a2\n 36231: a2 = u64 [s1 + 0x160]\n 36235: a3 = a0 if a2 != 0\n 36238: u64 [s1 + 0x168] = a3\n 36242: a0 = u64 [s1 + 0x148]\n 36246: a3 = u64 [s1 + 0x130]\n 36250: a0 = a0 | a3\n 36253: a3 = u64 [s1 + 0x120]\n 36257: a0 = a3 if a5 == 0\n 36260: a4 = u64 [s1 + 0x158]\n 36264: a3 = a4\n 36266: a3 = a0 if a2 != 0\n 36269: u64 [s1 + 0x160] = a3\n 36273: a0 = u64 [s1 + 0x170]\n 36277: a0 = 0 if a5 == 0\n 36279: u64 [s1 + 0x170] = a0\n 36283: u64 [s1 + 304] = 0x15180\n 36290: a0 = u64 [s1 + 0x198]\n 36294: a2 = a0 + 0xffffffffffffff80\n 36297: a0 = a4\n 36299: jump [t0]\n      : @1367 (gas: 16)\n 36301: a2 = u64 [s1 + 0xe8]\n 36305: a0 = u64 [a2 + 0x8]\n 36308: a1 = i32 [a2 + 0x10]\n 36311: a2 = u64 [a2]\n 36313: a0 = reverse a0\n 36315: a3 = a0 << 0x20\n 36318: a1 = reverse a1\n 36320: a1 = a1 >> 0x20\n 36323: a3 = a3 | a1\n 36326: a0 = a0 >> 0x20\n 36329: a1 = reverse a2\n 36331: a2 = a1 << 0x20\n 36334: a0 = a0 | a2\n 36337: a1 = a1 >> 0x20\n 36340: a2 = s1 + 0x1918\n 36344: jump [t0]\n      : @1368 (gas: 8)\n 36346: a0 = sp + 0xffffffffffffffe0\n 36349: a0 = a0 & 0xffffffffffffffe0\n 36352: u64 [s1 + 0x190] = a0\n 36356: sp = a0\n 36358: i32 a2 = a0 + 0\n 36360: a1 = 0x40\n 36363: a0 = u64 [s1 + 0x110]\n 36367: jump [t0]\n      : @1369 (gas: 15)\n 36369: a2 = u64 [s1 + 0x180]\n 36373: a0 = u64 [a2 + 0x8]\n 36376: a1 = i32 [a2 + 0x10]\n 36379: a2 = u64 [a2]\n 36381: a0 = reverse a0\n 36383: a3 = a0 << 0x20\n 36386: a1 = reverse a1\n 36388: a1 = a1 >> 0x20\n 36391: a3 = a3 | a1\n 36394: a0 = a0 >> 0x20\n 36397: a1 = reverse a2\n 36399: a2 = a1 << 0x20\n 36402: a0 = a0 | a2\n 36405: a1 = a1 >> 0x20\n 36408: jump [t0]\n      : @1370 (gas: 18)\n 36410: a1 = a2 + 0x1\n 36413: u64 [s1 + 0x198] = a1\n 36417: a0 = a1 <u 0x1\n 36420: a0 = a0 + a3\n 36423: u64 [s1 + 0x190] = a0\n 36427: a0 = a0 | a1\n 36430: a0 = a0 <u 0x1\n 36433: a0 = a0 + t1\n 36436: u64 [s1 + 0x180] = a0\n 36440: a0 = a0 <u t1\n 36443: a0 = a0 + ra\n 36446: u64 [s1 + 0x188] = a0\n 36450: a1 = 0xff - a2\n 36454: u64 [s1 + 0x160] = a1\n 36458: a2 = 0x80 - a1\n 36462: a0 = u64 [s1 + 0x140]\n 36466: a1 = u64 [s1 + 0x138]\n 36470: jump [t0]\n      : @1371 (gas: 21)\n 36472: a3 = u64 [s1 + 0x180]\n 36476: a0 = u64 [a3 + 0x18]\n 36479: a1 = u64 [a3 + 0x10]\n 36482: a2 = u64 [a3 + 0x8]\n 36485: a3 = u64 [a3]\n 36487: a0 = reverse a0\n 36489: u64 [s1 + 0x170] = a0\n 36493: a0 = reverse a1\n 36495: u64 [s1 + 0x168] = a0\n 36499: a0 = reverse a2\n 36501: u64 [s1 + 0x160] = a0\n 36505: a0 = reverse a3\n 36507: u64 [s1 + 0x158] = a0\n 36511: a0 = sp + 0xffffffffffffffe0\n 36514: a0 = a0 & 0xffffffffffffffe0\n 36517: u64 [s1 + 0x180] = a0\n 36521: sp = a0\n 36523: a2 = s1 + 0x7ff\n 36527: a2 = a2 + 0x119\n 36531: a0 = u64 [s1 + 0x178]\n 36535: jump [t0]\n      : @1372 (gas: 19)\n 36537: a3 = u64 [s1 + 0x170]\n 36541: a0 = u64 [a3 + 0x18]\n 36544: a1 = u64 [a3 + 0x10]\n 36547: a2 = u64 [a3 + 0x8]\n 36550: a3 = u64 [a3]\n 36552: a0 = reverse a0\n 36554: u64 [s1 + 0x168] = a0\n 36558: a0 = reverse a1\n 36560: u64 [s1 + 0x160] = a0\n 36564: a0 = reverse a2\n 36566: u64 [s1 + 0x158] = a0\n 36570: a0 = reverse a3\n 36572: u64 [s1 + 0x150] = a0\n 36576: a0 = sp + 0xffffffffffffffe0\n 36579: a0 = a0 & 0xffffffffffffffe0\n 36582: u64 [s1 + 0x170] = a0\n 36586: sp = a0\n 36588: a0 = u64 [s1 + 0x180]\n 36592: jump [t0]\n      : @1373 (gas: 8)\n 36594: a3 = a4 <u a3\n 36597: a5 = a2 + a3\n 36600: a2 = a5 <u a2\n 36603: a2 = a3 if a3 == 0\n 36606: a2 = a2 + a1\n 36609: a1 = a2 <u a1\n 36612: a0 = a0 + a1\n 36615: jump [t0]\n      : @1374 (gas: 16)\n 36617: a3 = u64 [s1 + 0x190]\n 36621: a0 = u64 [a3 + 0x18]\n 36624: a1 = u64 [a3 + 0x10]\n 36627: a2 = u64 [a3 + 0x8]\n 36630: a3 = u64 [a3]\n 36632: a0 = reverse a0\n 36634: u64 [s1 + 0x190] = a0\n 36638: a0 = reverse a1\n 36640: u64 [s1 + 0x188] = a0\n 36644: a0 = reverse a2\n 36646: u64 [s1 + 0x180] = a0\n 36650: a0 = reverse a3\n 36652: u64 [s1 + 0x178] = a0\n 36656: a0 = 0x1118\n 36660: a2 = s1 + a0\n 36663: jump [t0]\n      : @1375 (gas: 16)\n 36665: t2 = u64 [s1 + 0x140]\n 36669: t1 = u64 [s1 + 0x138]\n 36673: u64 [s1 + 344] = 0\n 36677: u64 [s1 + 336] = 0\n 36681: a4 = s1 + 0x100\n 36685: a2 = u64 [a4 + 0x28]\n 36688: a1 = 0 if a2 == 0\n 36690: a0 = 0 if a2 == 0\n 36692: u64 [a4 + 0x48] = a0\n 36695: a3 = u64 [a4 + 0x30]\n 36698: a2 = a3 + 0xffffffffffffffff\n 36701: u64 [a4 + 0x28] = a2\n 36704: a2 = a3 >u 0\n 36706: a2 = a2 + 0xffffffffffffffff\n 36709: u64 [a4 + 0x20] = a2\n 36712: jump [t0]\n      : @1376 (gas: 15)\n 36714: a0 = u64 [a3 + 0x18]\n 36717: a1 = u64 [a3 + 0x10]\n 36720: a2 = u64 [a3 + 0x8]\n 36723: a3 = u64 [a3]\n 36725: a0 = reverse a0\n 36727: u64 [s1 + 0x188] = a0\n 36731: a0 = reverse a1\n 36733: u64 [s1 + 0x180] = a0\n 36737: a0 = reverse a2\n 36739: u64 [s1 + 0x178] = a0\n 36743: a0 = reverse a3\n 36745: u64 [s1 + 0x170] = a0\n 36749: a0 = sp + 0xffffffffffffffe0\n 36752: a0 = a0 & 0xffffffffffffffe0\n 36755: jump [t0]\n      : @1377 (gas: 17)\n 36757: a4 = s1 + 0x100\n 36761: a2 = u64 [a4 + 0x80]\n 36765: a0 = u64 [a2 + 0x8]\n 36768: a1 = i32 [a2 + 0x10]\n 36771: a2 = u64 [a2]\n 36773: a0 = reverse a0\n 36775: a3 = a0 << 0x20\n 36778: a1 = reverse a1\n 36780: a1 = a1 >> 0x20\n 36783: a3 = a3 | a1\n 36786: a0 = a0 >> 0x20\n 36789: a1 = reverse a2\n 36791: a2 = a1 << 0x20\n 36794: a0 = a0 | a2\n 36797: a1 = a1 >> 0x20\n 36800: a2 = u64 [a4 + 0x98]\n 36804: jump [t0]\n      : @1378 (gas: 14)\n 36806: a3 = u64 [s1 + 0x170]\n 36810: a0 = u64 [a3 + 0x18]\n 36813: a1 = u64 [a3 + 0x10]\n 36816: a2 = u64 [a3 + 0x8]\n 36819: a3 = u64 [a3]\n 36821: a0 = reverse a0\n 36823: u64 [s1 + 0x170] = a0\n 36827: a0 = reverse a1\n 36829: u64 [s1 + 0x168] = a0\n 36833: a0 = reverse a2\n 36835: u64 [s1 + 0x160] = a0\n 36839: a0 = reverse a3\n 36841: u64 [s1 + 0x158] = a0\n 36845: jump [t0]\n      : @1379 (gas: 18)\n 36847: a3 = u64 [s1 + 0xa8]\n 36851: a0 = u64 [a3 + 0x18]\n 36854: a1 = u64 [a3 + 0x10]\n 36857: a2 = u64 [a3 + 0x8]\n 36860: a3 = u64 [a3]\n 36862: a0 = reverse a0\n 36864: u64 [s1 + 0x90] = a0\n 36868: a0 = reverse a1\n 36870: u64 [s1 + 0x88] = a0\n 36874: a0 = reverse a2\n 36876: u64 [s1 + 0x80] = a0\n 36880: a0 = reverse a3\n 36882: u64 [s1 + 0x78] = a0\n 36885: a0 = sp + 0xffffffffffffffe0\n 36888: a0 = a0 & 0xffffffffffffffe0\n 36891: u64 [s1 + 0xa8] = a0\n 36895: sp = a0\n 36897: jump [t0]\n      : @1380 (gas: 16)\n 36899: a3 = u64 [s1 + 0x190]\n 36903: a0 = u64 [a3 + 0x18]\n 36906: a1 = u64 [a3 + 0x10]\n 36909: a2 = u64 [a3 + 0x8]\n 36912: a3 = u64 [a3]\n 36914: a0 = reverse a0\n 36916: a4 = reverse a1\n 36918: a2 = reverse a2\n 36920: a3 = reverse a3\n 36922: a1 = u64 [s1 + 0x198]\n 36926: u64 [a1 + 0x18] = a3\n 36929: u64 [a1 + 0x10] = a2\n 36932: u64 [a1 + 0x8] = a4\n 36935: u64 [a1] = a0\n 36937: a0 = 0x2000\n 36941: jump [t0]\n      : @1381 (gas: 9)\n 36943: a0 = u64 [a3 + 0x18]\n 36946: a1 = u64 [a3 + 0x10]\n 36949: a2 = u64 [a3 + 0x8]\n 36952: a3 = u64 [a3]\n 36954: a0 = reverse a0\n 36956: a1 = reverse a1\n 36958: a2 = reverse a2\n 36960: a3 = reverse a3\n 36962: jump [t0]\n      : @1382 (gas: 9)\n 36964: a0 = u64 [a3 + 0x18]\n 36967: a1 = u64 [a3 + 0x10]\n 36970: a2 = u64 [a3 + 0x8]\n 36973: a3 = u64 [a3]\n 36975: a0 = reverse a0\n 36977: a4 = reverse a1\n 36979: a2 = reverse a2\n 36981: a3 = reverse a3\n 36983: jump [t0]\n      : @1383 (gas: 8)\n 36985: a0 = sp + 0xffffffffffffffe0\n 36988: a0 = a0 & 0xffffffffffffffe0\n 36991: u64 [s1 + 0x170] = a0\n 36995: sp = a0\n 36997: i32 a2 = a0 + 0\n 36999: a1 = 0x40\n 37002: a0 = u64 [s1 + 0x188]\n 37006: jump [t0]\n      : @1384 (gas: 9)\n 37008: u64 [a2 + 0x20] = a0\n 37011: a0 = u64 [s1 + 0x160]\n 37015: u64 [a2 + 0x18] = a0\n 37018: a0 = u64 [s1 + 0x168]\n 37022: u64 [a2 + 0x10] = a0\n 37025: a3 = a1\n 37027: a0 = 0x20\n 37030: a1 = s1 + 0x7ff\n 37034: jump [t0]\n      : @1385 (gas: 8)\n 37036: a0 = a0 | a2\n 37039: a2 = a3 | a1\n 37042: a2 = a2 | a0\n 37045: a2 = a2 >> 0x20\n 37048: a0 = a0 | a1\n 37051: a0 = a0 << 0x20\n 37054: a0 = a0 | a2\n 37057: jump [t0]\n      : @1386 (gas: 12)\n 37059: a4 = 0\n 37061: a5 = 0\n 37063: a2 = u64 [s1 + 0x128]\n 37067: a1 = 0 if a2 == 0\n 37069: a0 = 0 if a2 == 0\n 37071: a3 = u64 [s1 + 0x138]\n 37075: a2 = a3 + 0xffffffffffffffff\n 37078: u64 [s1 + 0x130] = a2\n 37082: a2 = a3 >u 0\n 37084: a2 = a2 + 0xffffffffffffffff\n 37087: u64 [s1 + 0x128] = a2\n 37091: jump [t0]\n      : @1387 (gas: 12)\n 37093: a2 = t2 >> 0x3f\n 37096: a3 = t1 << 0x1\n 37099: a2 = a2 | a3\n 37102: a3 = t2 << 0x1\n 37105: t2 = u64 [s1 + 0x168]\n 37109: a4 = t2 >> 0x3f\n 37112: a3 = a3 | a4\n 37115: u64 [s1 + 0x140] = a3\n 37119: ra = u64 [s1 + 0x120]\n 37123: a0 = t1\n 37125: t1 = ra ^ a2\n 37128: jump [t0]\n      : @1388 (gas: 12)\n 37130: a1 = a1 << 0x1\n 37133: a4 = u64 [s1 + 0x148]\n 37137: a3 = a4 >> 0x3f\n 37140: a1 = a1 | a3\n 37143: u64 [s1 + 0x138] = a1\n 37147: a3 = a0 >> 0x3f\n 37150: a0 = a4 << 0x1\n 37153: a3 = a3 | a0\n 37156: a0 = t2 << 0x1\n 37159: a4 = u64 [s1 + 0x160]\n 37163: a1 = a4 >> 0x3f\n 37166: jump [t0]\n      : @1389 (gas: 11)\n 37168: a2 = u64 [s1 + 0x128]\n 37172: a1 = a1 | a2\n 37175: a2 = u64 [s1 + 0x198]\n 37179: a3 = a2 <u 0x80\n 37183: u64 [s1 + 0x128] = a3\n 37187: a4 = u64 [s1 + 0x120]\n 37191: a1 = a4 if a3 == 0\n 37194: a4 = u64 [s1 + 0x138]\n 37198: a4 = a1 if a2 != 0\n 37201: u64 [s1 + 0x138] = a4\n 37205: jump [t0]\n      : @1390 (gas: 11)\n 37207: a3 = u64 [s1 + 0x188]\n 37211: a0 = u64 [a3 + 0x18]\n 37214: a1 = u64 [a3 + 0x10]\n 37217: a2 = u64 [a3 + 0x8]\n 37220: a3 = u64 [a3]\n 37222: a0 = reverse a0\n 37224: a1 = reverse a1\n 37226: a2 = reverse a2\n 37228: a3 = reverse a3\n 37230: a4 = s1 + 0x2118\n 37234: jump [t0]\n      : @1391 (gas: 11)\n 37236: a0 = u64 [a3 + 0x18]\n 37239: a1 = u64 [a3 + 0x10]\n 37242: a2 = u64 [a3 + 0x8]\n 37245: a3 = u64 [a3]\n 37247: a0 = reverse a0\n 37249: a1 = reverse a1\n 37251: a2 = reverse a2\n 37253: a3 = reverse a3\n 37255: a4 = s1 + 0x2118\n 37259: a5 = a4 + 0x300\n 37263: jump [t0]\n      : @1392 (gas: 14)\n 37265: a0 = u64 [a3 + 0x18]\n 37268: a1 = u64 [a3 + 0x10]\n 37271: a2 = u64 [a3 + 0x8]\n 37274: a3 = u64 [a3]\n 37276: a0 = reverse a0\n 37278: a4 = reverse a1\n 37280: a2 = reverse a2\n 37282: a3 = reverse a3\n 37284: a1 = u64 [s1 + 0x170]\n 37288: u64 [a1 + 0x18] = a3\n 37291: u64 [a1 + 0x10] = a2\n 37294: u64 [a1 + 0x8] = a4\n 37297: u64 [a1] = a0\n 37299: jump [t0]\n      : @1393 (gas: 9)\n 37301: a5 = s1 + 0x100\n 37305: u64 [a5 + 0x98] = a1\n 37309: u64 [a5 + 0x90] = a3\n 37313: a0 = a3 | a1\n 37316: u64 [a5 + 0x78] = a2\n 37319: u64 [a5 + 0x88] = a4\n 37323: a1 = a4 | a2\n 37326: a0 = a0 | a1\n 37329: jump [t0]\n      : @1394 (gas: 15)\n 37331: a3 = u64 [s1 + 0x90]\n 37335: a0 = u64 [a3 + 0x18]\n 37338: a1 = u64 [a3 + 0x10]\n 37341: a2 = u64 [a3 + 0x8]\n 37344: a3 = u64 [a3]\n 37346: a0 = reverse a0\n 37348: a4 = reverse a1\n 37350: a2 = reverse a2\n 37352: a3 = reverse a3\n 37354: a1 = u64 [s1 + 0xa8]\n 37358: u64 [a1 + 0x18] = a3\n 37361: u64 [a1 + 0x10] = a2\n 37364: u64 [a1 + 0x8] = a4\n 37367: u64 [a1] = a0\n 37369: jump [t0]\n      : @1395 (gas: 9)\n 37371: u64 [s1 + 0x160] = a3\n 37375: a1 = 0 if a4 == 0\n 37377: u64 [s1 + 0x168] = a1\n 37381: u64 [s1 + 312] = 0x15180\n 37388: a0 = u64 [s1 + 0x190]\n 37392: a2 = a0 + 0xffffffffffffff80\n 37395: a0 = a5\n 37397: a1 = t1\n 37399: jump [t0]\n      : @1396 (gas: 10)\n 37401: u64 [s1] = a3\n 37403: u64 [s1 + 0x8] = a2\n 37406: u64 [s1 + 0x10] = a1\n 37409: u64 [s1 + 0x18] = a0\n 37412: sp = s0 + 0xffffffffffffffc0\n 37415: ra = u64 [sp + 0x38]\n 37418: s0 = u64 [sp + 0x30]\n 37421: s1 = u64 [sp + 0x28]\n 37424: sp = sp + 0x40\n 37427: jump [t0]\n      : @1397 (gas: 8)\n 37429: a0 = sp + 0xffffffffffffffe0\n 37432: a0 = a0 & 0xffffffffffffffe0\n 37435: u64 [s1 + 0xa8] = a0\n 37439: sp = a0\n 37441: i32 a2 = a0 + 0\n 37443: a1 = 0x40\n 37446: a0 = u64 [s1 + 0xb8]\n 37450: jump [t0]\n      : @1398 (gas: 4)\n 37452: a0 = 0x2118\n 37456: a3 = s1 + a0\n 37459: a4 = a3 + 0x500\n 37463: jump [t0]\n      : @1399 (gas: 7)\n 37465: a3 = u64 [s1 + 0x178]\n 37469: a0 = u64 [a3 + 0x18]\n 37472: a1 = u64 [a3 + 0x10]\n 37475: a2 = u64 [a3 + 0x8]\n 37478: a3 = u64 [a3]\n 37480: a0 = reverse a0\n 37482: jump [t0]\n      : @1400 (gas: 8)\n 37484: a3 = u64 [s1 + 0x150]\n 37488: a0 = a0 - a3\n 37491: a3 = u64 [s1 + 0x188]\n 37495: a4 = u64 [s1 + 0x160]\n 37499: a3 = a4 - a3\n 37502: a4 = s1 + 0x2118\n 37506: a5 = a4 + 0x200\n 37510: jump [t0]\n      : @1401 (gas: 9)\n 37512: a0 = a0 | a1\n 37515: a1 = u64 [s1 + 0x148]\n 37519: a0 = a1 if a3 == 0\n 37522: a1 = u64 [s1 + 0x140]\n 37526: a1 = a0 if a2 != 0\n 37529: u64 [s1 + 0x140] = a1\n 37533: a0 = u64 [s1 + 0x158]\n 37537: a1 = u64 [s1 + 0x150]\n 37541: jump [t0]\n      : @1402 (gas: 16)\n 37543: a4 = u64 [a3]\n 37545: u64 [sp + 0x18] = a4\n 37548: a4 = u64 [a3 + 0x8]\n 37551: u64 [sp + 0x20] = a4\n 37554: a4 = u64 [a3 + 0x10]\n 37557: u64 [sp + 0x28] = a4\n 37560: a3 = u64 [a3 + 0x18]\n 37563: u64 [sp + 0x30] = a3\n 37566: s1 = u64 [a2]\n 37568: a3 = u64 [a2 + 0x8]\n 37571: u64 [sp] = a3\n 37573: a3 = u64 [a2 + 0x10]\n 37576: u64 [sp + 0x8] = a3\n 37579: a2 = u64 [a2 + 0x18]\n 37582: u64 [sp + 0x10] = a2\n 37585: jump [t0]\n      : @1403 (gas: 4)\n 37587: a0 = u64 [s1 + 0x198]\n 37591: a0 = i32 [a0]\n 37593: a1 = 0x3f\n 37596: jump [t0]\n      : @1404 (gas: 10)\n 37598: a3 = u64 [s1 + 0x190]\n 37602: a0 = u64 [a3]\n 37604: a1 = u64 [a3 + 0x8]\n 37607: a2 = u64 [a3 + 0x10]\n 37610: a3 = u64 [a3 + 0x18]\n 37613: a0 = reverse a0\n 37615: a1 = reverse a1\n 37617: a2 = reverse a2\n 37619: a3 = reverse a3\n 37621: jump [t0]\n      : @1405 (gas: 7)\n 37623: u64 [s1 + 0x110] = a0\n 37627: u64 [s1 + 0x128] = a1\n 37631: a1 = u64 [s1 + 0x190]\n 37635: a2 = 0x80 - a1\n 37639: a0 = u64 [s1 + 0x150]\n 37643: a1 = u64 [s1 + 0x140]\n 37647: jump [t0]\n      : @1406 (gas: 9)\n 37649: a4 = a4 + a0\n 37652: a0 = a4 <u a0\n 37655: a5 = a2 + a0\n 37658: a2 = a5 <u a2\n 37661: a2 = a0 if a0 == 0\n 37664: a2 = a2 + a3\n 37667: a0 = a2 <u a3\n 37670: a0 = a0 + a1\n 37673: jump [t0]\n      : @1407 (gas: 8)\n 37675: a0 = u64 [a4 + 0x78]\n 37678: a1 = u64 [a4 + 0x80]\n 37682: a2 = u64 [a4 + 0x70]\n 37685: a3 = u64 [a4 + 0x68]\n 37688: a1 = a1 | a2\n 37691: a0 = a0 | a3\n 37694: a0 = a0 | a1\n 37697: jump [t0]\n      : @1408 (gas: 8)\n 37699: a2 = u64 [s1 + 0x128]\n 37703: a1 = a1 | a2\n 37706: a3 = u64 [s1 + 0x190]\n 37710: a4 = a3 <u 0x80\n 37714: u64 [s1 + 0x128] = a4\n 37718: a2 = u64 [s1 + 0x118]\n 37722: a1 = a2 if a4 == 0\n 37725: jump [t0]\n      : @1409 (gas: 9)\n 37727: a1 = a3 <u a1\n 37730: a1 = a5 - a1\n 37733: a0 = s1 + 0x100\n 37737: a3 = u64 [a0 + 0x88]\n 37741: a5 = u64 [a0 + 0x80]\n 37745: a2 = a3 | a5\n 37748: a2 = a2 <u 0x1\n 37751: a4 = u64 [a0 + 0x70]\n 37754: jump [t0]\n      : @1410 (gas: 12)\n 37756: a0 = u64 [sp + 0x18]\n 37759: a1 = u64 [sp + 0x10]\n 37762: a2 = u64 [sp + 0x8]\n 37765: a3 = u64 [sp]\n 37767: a4 = a2 | a0\n 37770: a5 = a3 | a1\n 37773: a5 = a5 | a4\n 37776: a5 = a5 >> 0x20\n 37779: a4 = a4 | a1\n 37782: a4 = a4 << 0x20\n 37785: a4 = a4 | a5\n 37788: jump [t0]\n      : @1411 (gas: 9)\n 37790: a0 = u64 [a3 + 0x18]\n 37793: a1 = u64 [a3 + 0x10]\n 37796: a2 = u64 [a3 + 0x8]\n 37799: a3 = u64 [a3]\n 37801: a5 = reverse a0\n 37803: a4 = reverse a1\n 37805: a0 = reverse a2\n 37807: a2 = reverse a3\n 37809: jump [t0]\n      : @1412 (gas: 5)\n 37811: a0 = sp + 0xffffffffffffffe0\n 37814: a0 = a0 & 0xffffffffffffffe0\n 37817: u64 [s1 + 0x178] = a0\n 37821: sp = a0\n 37823: jump [t0]\n      : @1413 (gas: 5)\n 37825: a0 = sp + 0xffffffffffffffe0\n 37828: a0 = a0 & 0xffffffffffffffe0\n 37831: u64 [s1 + 0x198] = a0\n 37835: sp = a0\n 37837: jump [t0]\n      : @1414 (gas: 8)\n 37839: a0 = sp + 0xffffffffffffffe0\n 37842: a0 = a0 & 0xffffffffffffffe0\n 37845: u64 [s1 + 0x168] = a0\n 37849: sp = a0\n 37851: i32 a2 = a0 + 0\n 37853: a1 = 0x40\n 37856: a0 = u64 [s1 + 0x188]\n 37860: jump [t0]\n      : @1415 (gas: 8)\n 37862: a0 = u64 [s1 + 0x198]\n 37866: a2 = u64 [s1 + 0x128]\n 37870: a0 = a0 | a2\n 37873: a2 = u64 [s1 + 0x110]\n 37877: a0 = a2 if a4 == 0\n 37880: t1 = u64 [s1 + 0x140]\n 37884: a3 = t1\n 37886: jump [t0]\n      : @1416 (gas: 6)\n 37888: u64 [s1 + 0x128] = a1\n 37892: a1 = u64 [s1 + 0x198]\n 37896: a2 = 0x80 - a1\n 37900: a0 = u64 [s1 + 0x158]\n 37904: a1 = u64 [s1 + 0x150]\n 37908: jump [t0]\n      : @1417 (gas: 4)\n 37910: a2 = a3 + a1\n 37913: a3 = a2 <u a3\n 37916: a3 = a1 if a1 == 0\n 37919: jump [t0]\n      : @1418 (gas: 7)\n 37921: u64 [s1 + 0x130] = a0\n 37925: u64 [s1 + 0x128] = a1\n 37929: a0 = u64 [s1 + 0x160]\n 37933: a2 = a0 + 0xffffffffffffff80\n 37936: a0 = u64 [s1 + 0x140]\n 37940: a1 = u64 [s1 + 0x138]\n 37944: jump [t0]\n      : @1419 (gas: 7)\n 37946: a0 = reverse a1\n 37948: u64 [s1 + 0x170] = a0\n 37952: a0 = reverse a2\n 37954: u64 [s1 + 0x168] = a0\n 37958: a0 = reverse a3\n 37960: u64 [s1 + 0x160] = a0\n 37964: jump [t0]\n      : @1420 (gas: 10)\n 37966: sp = sp + 0xffffffffffffffc0\n 37969: u64 [sp + 0x38] = ra\n 37972: u64 [sp + 0x30] = s0\n 37975: u64 [sp + 0x28] = s1\n 37978: s0 = sp + 0x40\n 37981: sp = sp & 0xffffffffffffffe0\n 37984: s1 = a0\n 37986: i32 a0 = sp + 0\n 37988: a1 = 0x4\n 37991: jump [t0]\n      : @1421 (gas: 9)\n 37993: a0 = u64 [a2 + 0x8]\n 37996: a1 = i32 [a2 + 0x10]\n 37999: a2 = u64 [a2]\n 38001: a0 = reverse a0\n 38003: a3 = a0 << 0x20\n 38006: a1 = reverse a1\n 38008: a1 = a1 >> 0x20\n 38011: a1 = a1 | a3\n 38014: jump [t0]\n      : @1422 (gas: 4)\n 38016: a0 = u64 [s1 + 0x198]\n 38020: a0 = i32 [a0]\n 38022: a1 = 0x23\n 38025: jump [t0]\n      : @1423 (gas: 4)\n 38027: a0 = 0x40\n 38030: a1 = u64 [s1 + 0x198]\n 38034: u32 [a1] = a0\n 38036: jump [t0]\n      : @1424 (gas: 10)\n 38038: a4 = s1 + 0x100\n 38042: u64 [a4 + 0x60] = a1\n 38045: a1 = u64 [a4 + 0x80]\n 38049: a2 = u64 [a4 + 0x78]\n 38052: a2 = a2 | a1\n 38055: a1 = u64 [a4 + 0x88]\n 38059: a3 = u64 [a4 + 0x70]\n 38062: a1 = a1 | a3\n 38065: a1 = a1 | a2\n 38068: jump [t0]\n      : @1425 (gas: 10)\n 38070: a4 = s1 + 0x100\n 38074: u64 [a4 + 0x70] = a1\n 38077: a1 = u64 [a4 + 0x90]\n 38081: a2 = u64 [a4 + 0x88]\n 38085: a2 = a2 | a1\n 38088: a1 = u64 [a4 + 0x98]\n 38092: a3 = u64 [a4 + 0x80]\n 38096: a1 = a1 | a3\n 38099: a1 = a1 | a2\n 38102: jump [t0]\n      : @1426 (gas: 6)\n 38104: u64 [s1 + 0x148] = a0\n 38108: u64 [s1 + 0x120] = a1\n 38112: a0 = u64 [s1 + 0x140]\n 38116: a1 = u64 [s1 + 0x138]\n 38120: a2 = u64 [s1 + 0x198]\n 38124: jump [t0]\n      : @1427 (gas: 6)\n 38126: u64 [s1 + 0x148] = a0\n 38130: u64 [s1 + 0x168] = a1\n 38134: a0 = u64 [s1 + 0x158]\n 38138: a1 = u64 [s1 + 0x150]\n 38142: a2 = u64 [s1 + 0x160]\n 38146: jump [t0]\n      : @1428 (gas: 8)\n 38148: a0 = sp + 0xffffffffffffffe0\n 38151: a0 = a0 & 0xffffffffffffffe0\n 38154: u64 [s1 + 0x90] = a0\n 38158: sp = a0\n 38160: i32 a2 = a0 + 0\n 38162: a1 = 0x40\n 38165: a0 = u64 [s1 + 0xb8]\n 38169: jump [t0]\n      : @1429 (gas: 5)\n 38171: a0 = sp + 0xffffffffffffffe0\n 38174: a2 = a0 & 0xffffffffffffffe0\n 38177: u64 [s1 + 0x190] = a2\n 38181: sp = a2\n 38183: jump [t0]\n      : @1430 (gas: 5)\n 38185: a0 = sp + 0xffffffffffffffe0\n 38188: a2 = a0 & 0xffffffffffffffe0\n 38191: u64 [s1 + 0x198] = a2\n 38195: sp = a2\n 38197: jump [t0]\n      : @1431 (gas: 9)\n 38199: sp = sp + 0xffffffffffffffc0\n 38202: u64 [sp + 0x38] = ra\n 38205: u64 [sp + 0x30] = s0\n 38208: u64 [sp + 0x28] = s1\n 38211: s0 = sp + 0x40\n 38214: sp = sp & 0xffffffffffffffe0\n 38217: s1 = a0\n 38219: i32 a0 = sp + 0\n 38221: jump [t0]\n      : @1432 (gas: 8)\n 38223: a0 = u64 [a4 + 0x38]\n 38226: a1 = u64 [a4 + 0x40]\n 38229: a2 = u64 [a4 + 0x30]\n 38232: a3 = u64 [a4 + 0x28]\n 38235: a1 = a1 | a2\n 38238: a0 = a0 | a3\n 38241: a0 = a0 | a1\n 38244: jump [t0]\n      : @1433 (gas: 4)\n 38246: a0 = u64 [s1 + 0x198]\n 38250: a1 = 0x40\n 38253: u32 [a0] = a1\n 38255: jump [t0]\n      : @1434 (gas: 4)\n 38257: i32 a0 = a0 + 0x118\n 38261: a3 = s1 + a0\n 38264: a4 = a3 + 0x200\n 38268: jump [t0]\n      : @1435 (gas: 4)\n 38270: a0 = 0x1918\n 38274: a3 = s1 + a0\n 38277: a4 = a3 + 0x200\n 38281: jump [t0]\n      : @1436 (gas: 4)\n 38283: a0 = 0x2118\n 38287: a3 = s1 + a0\n 38290: a4 = a3 + 0x100\n 38294: jump [t0]\n      : @1437 (gas: 5)\n 38296: a0 = a2 ^ 0xff\n 38300: a0 = a0 | t1\n 38303: a1 = a3 | ra\n 38306: a0 = a0 | a1\n 38309: jump [t0]\n      : @1438 (gas: 6)\n 38311: u64 [s1 + 0x118] = a0\n 38315: u64 [s1 + 0x110] = a1\n 38319: a2 = u64 [s1 + 0x168]\n 38323: a0 = a2 <u 0x80\n 38327: u64 [s1 + 0x138] = a0\n 38331: jump [t0]\n      : @1439 (gas: 6)\n 38333: u64 [s1 + 0x160] = a0\n 38337: u64 [s1 + 0x198] = a1\n 38341: a0 = u64 [s1 + 0x150]\n 38345: a1 = u64 [s1 + 0x140]\n 38349: a2 = u64 [s1 + 0x168]\n 38353: jump [t0]\n      : @1440 (gas: 4)\n 38355: a0 = u64 [s1 + 0x158]\n 38359: a1 = s1 + 0x7ff\n 38363: a1 = a1 + 0x119\n 38367: jump [t0]\n      : @1441 (gas: 6)\n 38369: a3 = u64 [s1 + 0x190]\n 38373: ra = u64 [s1 + 0x180]\n 38377: a2 = a3 | ra\n 38380: a2 = a2 <u 0x1\n 38383: a4 = u64 [s1 + 0x170]\n 38387: jump [t0]\n      : @1442 (gas: 6)\n 38389: t2 = a1 - a0\n 38392: a1 = a1 <u a0\n 38395: t1 = a2 - a1\n 38398: a1 = 0 if a2 != 0\n 38400: a0 = a3 - a1\n 38403: jump [t0]\n      : @1443 (gas: 2)\n 38405: a3 = a2 & 0x40\n 38408: jump @1447 if a3 != 0\n      : @1444 (gas: 1)\n 38411: jump @1446 if a2 == 0\n      : @1445 (gas: 6)\n 38414: i32 a3 = 0x40 - a2\n 38417: a3 = a1 << a3\n 38420: a1 = a1 >> a2\n 38423: a0 = a0 >> a2\n 38426: a0 = a0 | a3\n 38429: ret\n      : @1446 (gas: 1)\n 38431: ret\n      : @1447 (gas: 4)\n 38433: a0 = a2 + 0xffffffffffffffc0\n 38436: a0 = a1 >> a0\n 38439: a1 = 0\n 38441: ret\n      : @1448 (gas: 2)\n 38443: a3 = a2 & 0x40\n 38446: jump @1452 if a3 != 0\n      : @1449 (gas: 1)\n 38449: jump @1451 if a2 == 0\n      : @1450 (gas: 6)\n 38452: i32 a3 = 0x40 - a2\n 38455: a3 = a0 >> a3\n 38458: a0 = a0 << a2\n 38461: a1 = a1 << a2\n 38464: a1 = a1 | a3\n 38467: ret\n      : @1451 (gas: 1)\n 38469: ret\n      : @1452 (gas: 4)\n 38471: a1 = a2 + 0xffffffffffffffc0\n 38474: a1 = a0 << a1\n 38477: a0 = 0\n 38479: ret\n","bytecode":{"object":"50564d0000d1b1000000000000010700c1c001c0008003816cf40443b2a766a42db9815a1e2efa877e5c0519ec4fe51c83c442ba392fca77e2116ca4777b81d4ea98e10c16c565173f400507b7679bbdc6b249bd00a16076687a96c0a237ac310730ce86cab6918a9cee1f20395b3b80e1e34a4eb67d08a74e0dc354af37bd04b03f2522518a6d9314cf35a01b6f25119782e62a75888f78d1b417406592b5dbd6886d772784123ca0859bbddc544b79277c562e79691cb8290000e8890423c78affffe7890423c78a00001876fbdc3875975752f4e33b24c3dceff4c6a46dc4173eb68630b623f1b6b5ef1d0584397d33527c373f8a8f13d8dec2e4708e54ca59a13610a1f529f1946a422bba3c51695be6d8186647f5847091063f7d0def110bff283e79b8ad5546d505d5764c8d017f00001876fbdc38750000e8890423c78af2a8b439f25bd8ebdf119a7090238fa225717e85c68e190f0982ba0d5cabfde394247a18b5e26bbe1d817609543b3c0451c960f58acf6b97ba06c2c9ba61c0412000000004811b11000000000400000012000000200000002e0000003400000041000000530000005e0000006d000000700000007d0000008d0000009d000000a8000000ba000000c500000063616c6c63616c6c5f646174615f636f707963616c6c5f646174615f6c6f616463616c6c5f646174615f73697a6563616c6c65726465706f7369745f6576656e746765745f696d6d757461626c655f646174616765745f73746f72616765686173685f6b656363616b5f3235366e6f777265665f74696d655f6c65667472657475726e5f646174615f636f707972657475726e5f646174615f73697a657365616c5f72657475726e7365745f696d6d757461626c655f646174617365745f73746f7261676576616c75655f7472616e73666572726564051302c0968c0463616c6cc09f8c066465706c6f7906c014af82f902c051966a00b201b5034a04520424052c052b063006b106bc06d706280733079d07c607da0706081b085a087f080b0911094509c509cf09d509e109f809120a330a390a540a710ac20acc0ad50a510b6b0b7b0b810bb90bc50bdf0b140c280c320caa0cd70c770e7c0e980ea00ebf0ec50ef40e100f160f210f580fa90fa810ae10b510d310da10e910361145115211901297129e12bc12c312d2122a1335135b1373139113b313b913d513f3133b145b147414f0140e151f1525155e156b158015b615cb15d5159b16a116c116e516eb161617331739174617701726183318d318e818f218481984198a199019b019e2194a1a7d1a831aec1a061bfc1b161c331c551c5b1cd11ceb1c091d551d471e511eb31eb91ebf1ecb1ee01e081f261f2c1f4a1f981f06203a2071209720db20f0205b21ca21192266227422a622ac22cd22e5220023262330234c23552375231724c924d7244b2558256f25a125b625c02516268c269526ca26d3263327472773277927932799279f27a527d927df27c82834293a295b298729b429112a172a3b2a672aa12ab22abc2ade2a642b6a2b8b2bb72bd52be22be82b0c2c122c1c2c2e2c4c2c5d2c672cb82cf12c302d362d5a2d862da42dab2dc62df22d2e2e4c2e592e5f2e832e892e932ea52ec32ed42ede2efb2e202fbd2ff22f61308530ab300b311f318e31ef3104320e329d32c932cf32e932ef32f532fb322f3335331e347234f7342f355835d23508363e36ab36f6368237eb373638813892389838b838c138e138183945397539ad39123a333a803a8e3ab93a0f3b673bb33b043cc83cab3e343f4b3f56409040d9411b4233425942c4424243bd43d843fe4382449c44c744e44416452345294556455c459645a745ad45cd45d645f645fc452c4632463b46544678467e46c246cf462b47a0471f48a948be48c848534960496949fd49cb4add4ae64a7d4bc24b124c544c694c724c924cb54ce64cec4cd04d1f4e924ed34ef34e3c4f674f974f9d4ff64f04504b5058508a509d50e450f750b951bf51c551e05104523b527252dd52fc52175343534d536a5373539353bb53dc53e6531a5451546f5480548a54ae54b854dd54d155db55e155e755ed55f355f9551b56215647564d5653565956635669566f5679567f5685568b569e56e456595763579757bb57e757f15711581a583a5852587b5881589d58cb58ff5805590e591e592f5939595d5967598c59e459ee590e5a175a375a3d5a465a565a635a695a885aa85adf5ae55aee5afe5a505b695b995bfb5b055c225c2b5c4b5c695c765c7c5c9c5cd35cf15cfe5c045d0d5d2f5d445d955da35df25d185e365e4e5e775e7d5e9b5ebd5eef5e155f7d5f925f9c5fb95fc25fe25fe85fee5ff75f07600e602e6047606b60b360c860d26049615f619b61a561c261cb61eb61096216621c623c6270628e629f62a962b862d8620f63476351636a638263cf630a644264f964036509650f6515651b652165436549656f6575657b6581658b6591659765a165a765ad65b365c6650c6669667366b066c566cf665d677967b067e7674f687b689368ca68d068f668b469fa69146a316a536a596ace6ae86a066b526b456c4f6c156d476d616d756d966da06dbe6d4f6e816e876e906e966ea36ea96edc6e1c6f226f2b6f316f426f4c6f786fbd6ff16f297047704d7056705c7069706f708f70c070c670cf70d570e270e870087135713b7144714a715b7165716f71e87118723e728f725c7388738e739773a773ae73c9730574407446744f745f7470747a74a7743475957520764c766a7677767d76a976af76b976cb76e976f676fc7618774c7752778577a377b477be77db776278c77814794079a079a679c879e379e979f979ff79087a237a297a367a3c7a457a5a7a857b9c7bb57bd37b527c687c827cc57c3e7e5c7ea17ea77ed07efc7e167f237f297f337f727f907faa7ff27f23803d804a80508070809c80b680c380c980d380ff803f81658183819d81fd815a828382a682d482db82d083fe8356849f84d484ee841785b585e28501861f862d86798600873f87fe8721885c8807895689708994890d8a258a498a628b908bdd8b198c718c9f8ca98c9511e87b10107b15087b163306680102390568010251051c3307a00103837783680a060139076801022003680102ac5710821010821508821695111832000039086801025108b9073307a0010383770a0e28ac079511f07b10087b1564896475330820649750100277057c78017c797c7a027c7b03978808d4980897aa1097bb18d4ba0ad4a8087c79057c7a047c7b067c7c07979908d4a90997bb1097cc18d4cb0bd4b909979920d489027c79097c7a087c7b0a7c7c0b979908d4a90997bb1097cc18d4cb0bd4b9097c7a0d7c7b0c7c7c0e7c780f97aa08d4ba0a97cc10978818d4c808d4a808978820d498037c78117c7a107c7b127c7c13978808d4a80897bb1097cc18d4cb0bd4b8087c7a157c7b147c7c167c791797aa08d4ba0a97cc10979918d4c909d4a909979920d4890a7c78197c79187c7b1a7c7c1b978808d4980897bb1097cc18d4cb0bd4b8087c791d7c7b1c7c7c1e7c771f979908d4b90997cc10977718d4c707d49707977720d487076f776fa86f396f2a7b5a187b59107b58087b57821008821595111032009511d87b10207b15187b161082897b19088289087b198285108286183308205010042f046f686f59821a6faa821b086fbb787b18787a10787908787898bc38787c1f98bc30787c1e98bc28787c1d98bc20787c1c98bc18787c1b98bc10787c1a98bb08787b1998ab38787b1798ab30787b1698ab28787b1598ab20787b1498ab18787b1398ab10787b1298aa08787a11989a38787a0f989a30787a0e989a28787a0d989a20787a0c989a18787a0b989a10787a0a98990878790998893878790798893078790698892878790598892078790498891878790398891078790298880878780182102082151882161095112832009511a07b10587b15507b16489515608411e06476828718828910828a0882886f776f996faa6f887b18187b1a107b19087b17491138491130491128491120481140208318831a20831b403309ff33070a07821738821830821928821a206f776f886f996faa7b6a187b69107b68087b679551a082105882155082164895116032009511a07b10587b15509515608411e08272827a08827b108277188283828908828c108288186f746fbb6faa6f276f826fcc6f996f387b17187b1a107b1b087b147b18387b19307b1c287b12208318831a203309ff330b2033070a0f9551a08210588215509511603200951160ff7b1098007b1590007b1688009515a0008411e082ab7b1b3882ab087b1b3082ab107b1b2882aa187b1a20829a7b1a18829a087b1a10829a107b1a088299187b1964865010062c0282186f888219086f99821a106faa821b186fbb7b1b587b1a507b19487b18408218206f888219286f99821a306faa821b386fbb7b1b787b1a707b19687b18608379836a8317403308020a05955160ff8210980082159000821688009511a0003200951120ff7b10d8007b15d0007b16c8009515e0008411e082bc7b1c4082bc087b1c4882bc107b1c5082bb187b1b58501208638e007b183850100a8f016f687b187882186f887b18708218086f887b18688218106f887b18608218186f887b1898008218206f887b1890008218286f887b1888008218306f887b1880008218406f887b18b8008218486f887b18b0008218506f887b18a8008218586f887b18a0008379811a388317603308030a05955120ff8210d8008215d0008216c8009511e00032009511e0fe7b1018017b1510017b160801951520018411e082c67b166082c6087b166882c6107b167082cc187b1c7882bc7b1c3882bc087b1c4082bc107b1c4882bb187b1b5050120c898d007b185850100eb5006f687b18980082186f887b1890008218086f887b1888008218106f887b1880008218186f887b18b8008218206f887b18b0008218286f887b18a8008218306f887b18a0008218386f887b18d8008218406f887b18d0008218486f887b18c8008218506f887b18c0008218606f887b18f8008218686f887b18f0008218706f887b18e8008218786f887b18e0008379811a58831780003308040a059551e0fe8210180182151001821608019511200132008b7910520931c8780883881f8488e05638000001253309700102390a700102ae8a093d087001020133088001028377c887073200009511f07b10087b158475010a03013d076c010251050750101009501012f001951100ff7b10f8007b15f0007b16e800951500018411e04921d8004921d0004921c8004921c0008317c0000a10018217d0008218d8008219c800821ac000d49808d4a707d487075207e10039066c010297672098772095771f8477e09578a000d878077b18a0007b17a80094777b17b0003307409518a0004921b800501014e2fa3307a000646850101625ff8377646833090a010154161fa000951780003308a00050101882f9821790008219980014080000000001000000d37808d49808987a2088aa01949a938a510a7982188000821a8800d4780bd49a0cd4cb0b510b727b18607b1a687b1770330780009518607b197850101a6bfa95174033084050101c26f9821758821850821948821640d49707d48609d47909989920d48707977720d49707510769003308800102838833070128b1003308800102838833070128a400330880010283883307012897004911104911084901140700000000c8f5bc1464187b1718330750101ef6f9390870010256181f0b20037001022001330880010283883307013309040a0d01646733085010201bfe8377330833090a01951720330880005010227ff8821738821930821a28821b203e07b801033e09b001033e0aa801033e0ba001032845f864673308501024dbfd8378330733093300260a0d280a33093300260a0d01951110fe7b10e8017b15e0017b16d8019515f001951170d78411e0641695691821492900014929f8004929e8008000330740956800224929f00050102839f933076c01027b67980139076c010255170407284b559567002083772002330833002a0a0201956918218197240152476cd3238f0a28f319956a18295147e1ac83b6f70352472d16dfba0a287f1d5247b00de3d00a28860d52475f53cc0e0a28d615524786e72a220a28961151474d7d1a2ed8005147f5079637330a5147b836cc4842085147aef7914a0a28711049292005492918054929100549290805956700208377200633002c0a1033022e2845890050122e41890082b71882b82082b91082ba08d49808d4a707d48707510706286a4082679801817756170307286e409567801033084050103014f7956aff0795aa190195ac000782cb800082c87882c97082c768d49b0bd48709d4b909989920d4b808978820d49808510806281c403a08a00002492a6007492a58077ba8480795686010492a50077b67980133006a0128f4f74929400249293802492930024929280295670020837740033300320a103307002033023428b08b0033070020501234a88b00501236808b0051070628dd3f501238a58a00ac780628e23f956700208377600333080433003a0a020195671821957c000282c86082c95882ca5082cb4850123ca9870052070628c23f33078001037b67800183777b67680133003e0a0433024028e28300501240de8300492658057b6850057b674805956840057b6a400533075010423ff749263805492630054926200501330720956820054926280550104422f79517e08477e07b67700164713309700102390770010256173f0b200370010240017b6940019517e08479e07b69600164913307800102837783993308407b6748013300460a08826a600133024828d38600826a6001501248cb86009567000550104ab0f7826318058264100582620805826a000582679801d3730bd8730c82687801d884077b675801dab70c82679001d37200d87207826988017b6a6001d89a097b695001da09076480d38408d4b808da870c510c0628f53ec9040882699801c99309826a5801c9a909d8780ac9a909c9780882679001c9720750124c2187007bca687bc7707bc8787bc98000956880238267700150104e9bf7826768013300500a04330252281e84005012521a84007b69d80482b9787b69d00482b990007b69c80482b988007b69c0044926f8047b68f0047b67e8049567e0049568c0047b6ae004501054957e9567a00433084050105694f4956b000482b7b80082b8b00082b9a80082baa000501258d3840051070628b03d826788017b678004826790017b678804826778017b67900495688004826798017b67980464a77b6a980150105a7ff58267680133005c0a048269800133025e284481008269800150125e3c8100d4780298aa206f99979820d4a808989920492658043a0af800023a0b0001023a0c0801023a071001027b6a7804956a00047bab707bac687ba7607ba9507ba84833082095696004956a40047b624004826798013300600128e1f64929e0064929d8064929d0064929c806956700208377e0073300600a1001956a182195ab000682b7d80082b8e00082b9d00082bac800d49808d4a707d4870751070628753d501262af8700ac7806287a3d95670030837700f83308040a0201956c182182ca000782c8f80682cbf006d4a80988b7019497520706285f3d7b69980082cce80682679801807395c723d8c709c89b027b6bd800d8b20bda990bc88b0b7b688801d88b097b6a9001c8a909d4b909d8370794279497520706282e3d83c80495670030837720f87b6cd0000a0201956918218297200782921807829010077b67f000d472078808019478520806280b3d829308078268d000958724d887098264d800c8940ac837087b6880017b672001d8780bc80a07c8b707d3a70cd8a708dacb08d84a0ada990a82698801c89a0ad89a09826cf000826b9001c8cb0bc8b909c82a0bd8ab0ac8a909826a980180aac8b808d8b80bc8b909826b8001d8ba0a887b0185aa01db7b0a889701888b01db970bd49808db8b0a520a06288f3c9537fd7b63c000d83708c880099599ffd3090a7b60b000d8090bdaa80b9528ffc88b0bd88b087b62b800882a01c9ac0ac8a8088eba8e8cda8a0cd4b8088e9a887762857701db9a07db8c0751070628b84033078001037b67e80083777b67c8003300640a0433026628597f501266567f49292007959b00077bb8187bb710956820207bba083307501068fbf233026a9568181901492800074928f8064928e806036489330720956800204929f00650106cd4f250126e0285003309700102390770010233083fac780a200370010240017b69a8001407ffffffff000000007b67e0005012702d86003307800102837783993308407b67a0003300720a08330274281781005012741381008377e0c8670750107664f3956718198077c8068268e000ab870628793b9578017b6800018887017b67f800d487078877017b6708019567c01f826898015010782df3956a181980a7ac0695ab000682b8b80097772082b9b00082bac000826b0801d4b808826b0001d4b707826bf800d4b909956b182195bc00077bca407bc9307bc7287bc838956840288267980150107a5df395670030837760f80a09019567182182746007827a58077b6a50018273500782704807684768a8958940db470968376808958840db370895878000d44a0adaa709d8870c94ac8ecb8897f000857a01daca0b88b7019577ff9ab89accc9ac0a9a92ef007b6898018e8c8e78da7c08882c000185cc018ea9dba90cdbb80c7b644001d44308643482635001d43009d49808888801d4c8087b605801640b948b5108062817248528ff00826c9801d4c808d47a09d498085208062800249529017b699001889801c8a8087b688001d49808888801c8c8087b687001d8c808c887077b6778019a28ff007b6868019a8980008267580164487b64480150107c63850050127e158500502080007d85007b6730017b682801826768019579808267580182684801502082005f850050228400d48400826758018268480150208600498500826b380182627001826c780182698001d49c0c826a9001d42a0ad4ca0a93b77b678801510a06288821330b284223492980034929780349297003492968039567002083778004330088000a1001956a182195ab000350228a00ed810051070628ba3950228c00358300ac780628be39956700208377a0043308040a0201956a182195ab000382b7a00082b8980082b99000d487078898019478520806289f3982a788037b672001956700208377c0040a0901956718218274c003827ab8037b6a50018272b0038270a803684768a8958940db470968276808958840db270895878000d44a0adaa709d8870c94ac8ecb8897f000857a01daca0b88b7019577ff9ab89accc9ac0a9a93ef007b6898018e8c8e78da7c08883c000185cc018ea9dba90cdbb80c7b6440017b625801d4420882645001d44009d49808888801d4c808640b948b51080628dc168538ff00826c9801d4c808d47a09d4980852080628c51664029539017b699001889801c8a8087b688001d49808888801c8c8087b687001d8c808c887077b6778019a38ff007b6868019a89800064077b6248018268580150208e007c8300502290002d8300502092009483007b6730017b6828018267680195798082674801826858015020940076830050229600eb8200826748018268580150209800608300826b380182627001826c780182698001d49c0c826a9001d42a0ad4ca0a93b77b678801510a06284914330b2803164929a002492998024929900249298802956700208377a00333009a000a103307002033029c00284b82003307002050229c0043820082b7980082b8a00082b9900082ba8800d49808d4a707d4870751070628e43750229e002c8100ac780628e837956700208377c0033308043300a0000a020195671821957c000282c8c00082c9b80082cab00082cba8005022a2002a7e52070628c33733078001037b67800183777b6768013300a4000a043302a60028617a5022a6005e7a4926b8067b68b0067b67a8069568a0067b6aa00633075020a800bfed4926980649269006492680060133072095688006492688065020aa00a1ed9517e08477e07b67700164713309700102390770010256173f0b200370010240017b6940019517e08479e07b69600164913307800102837783993308407b6748013300ac000a0801826a600182a782a80882a91082aa186f776f886f996faa95ab025022ae009d7a826870017b8b7b8c087b89107b8718956760065020b00012ee826378068264700682626806826a600682679801d3730bd8730c82687801d884077b675801dab70c82679001d37200d87207826988017b6a6001d89a097b695001da09076480d38408d4b808da870c510c0628d636c9040882699801c99309826a5801c9a909d8780ac9a909c9780882679001c972075022b200827d7bcac8007bc7d0007bc8d8007bc9e0009568e023826770015020b400f9ed826768013300b6000a043302b80028797a5022b800767a7b69380682b9787b69300682b990007b69280682b988007b692006492658067b6850067b67480695674006956820067b6a40065020ba00f174956700063308405020bc00efea956b000682b71882b81082b90882ba5022be00327b510706280f34826788017b67e005826790017b67e805826778017b67f0059568e005826798017b67f80564a77b6a98015020c000deeb826768013300c2000a04826980013302c40028a077826980015022c4009977d4780298aa206f99979820d4a8089899204926b8053a0ad800023a0be000023a0ce800023a07f000027b6ad805956a00057babd0007bacc8007ba7c0007ba9b0007ba8a8003308209569c005956aa0057b62a00582679801330060012839ed82679801817756170307289935492a0001492af800492af000492ae80095670030837700fa0a1001956a182982a7f80082a8000182a9f00082aae800d49808d4a707d48707520706286c3533078001037b67800183777b6758013300c6000a043302c8002879775022c8007677956918214929e0007b98d8007b97d0009568e0217b9ac80033075020ca00d3ea956818214928c0004928b8004928a8000164893307209568c0214929b0005020cc00afea5022ce00dc7c3309700102390770010233083fac78142003700102407b6950013302d00028127e7b6950015022d0000b7e3307800102837783993308407b6760013300d2000a083302d40028f3785022d400f0788377a001c867075020d60040eb956718218278a0007b687001827898007b689001827888007b686801827790007b6788015022d800497c956718294927200149271801492710014927080195670030837720fa0a100195671829957a000182a91082a8088272200182ab18826c8801c89c0c82676801c87803d88308c88c0cd39c0ad89c09daa80982689001c8b80882607001c80202d8b80ac82a0ac88909d88908c88a04826a8801d3ca08d8ac0bd87307db8b07826a9001d8a902d3400bd80408dab208d39a0ad4ba0adba807826878017b837b8c087b89107b8418510706281834826798015020da00e1ea956780213308405020dc0027e895671821827880007b6890018278787b6888018278707b6878018277687b679801956718294927400149273801492730014927280195670030837740fa0a1001956a000182a7900082a878d4870782a89800648c82a98800d49808d47808988820d49707977720d4870751070628f230956a182995ab000182b72882b83082b93882ba40956b18217bba607bb9587bb850956860217bb74864c75020de00c1e8826758013300e0000a04826980013302e200288374826980015022e2007c74d4780298aa206f99979820d4a8089899203a0a000002956718217b7a403a0a0800023a0b1000023a0c1800027b7a387b7b304917207b7c287b79187b781033082095694021956a20217b7208826798015020e40028ea33078268600133090a0d287f445147b327d0610a2859334929400549293805492930054929280595670020837740063300e6000a103302e80028cb785022e800c8785022ea00c57b51070628873382679801817756170307288b339567c0103308405020ec00aae69567ff0795771901957900078298c0007b6898018298b8007b6890018298b0007b6880018297a8007b6788015020ee0024e6956b000182b7980082b88000d4870782b88800648a82b99000d49808d47808988820d49707977720d4870751070628822f3a09a001033a08a801033807b00103956bff0795bb1901492ba00795bc00077bc798007bc890009568a0107bc9880064a75020f0004ae7330820826788013300e0022887eb492900024929f8014929f0014929e80195670020837700033300f2000a103302f40028117b5022f4000e7b82b7f80082a8000282b9f00082bae800d49808d4a707d48707510706289d328267980181775617030728a13295670020837720030a099567182195790002829820956a00017ba8588298187ba8508298107ba898008297087ba790009567e0033308405020f6006ee5956b000382b7f80082b8f00082b9e80082bae0005022f800ac7551070628892e7b6a1801826350016837957740826058016809da0709826490016847957740826298016828da270895878000d4030adaa709d8870c94ac8ecb8897f000857a01daca0b88b7019577ff9ab89accc9ac0a9a99ef007b6878018e8c8e78da7c088eac7b69680188990001859901dbac09dbb809d43408d4020bd4b808888801d49808644b948b510806289934826868018588ff0082697801d49808d47a09d49808520806287e34826b680195b9017b698801889801c8a8087b688001d49808888801826a7801c8a8087b687001d8a808c887077b6778019ab8ff007b6840019a89800082679001826898015020fa000f7a7b6730017b6848018267500182685801826940015020fc001b7a7b6728017b6820018267400195798082679001826898015020fe00fe797b6710017b68080182694001889780007b673801826790018268980150200001dc7950220201417882ba3893a77bb76852080628b33364a98267480182682001d4870764ac82680801da980782695801649a649882694001db970a7b6a480182673001826a2801d4a707826a1001daca07826b500164badb970a7b6a40018267600193c77b676001492630018051018267880195798064b7502004013a797b6738017b6820018267900182689801826988015020060120797b6710017b682801826888019a898000826750018268580150200801287982692801d4980882698801889a80007b6a2801826b2001daab08826b9801db980b7b6b980182681001d4870782683801daa80782689001db97087b689001826750018268580150200a01b67882649001826398014926580149265001956b000182b928939893977bb73882ba3095a9ff7bb9288ea99599ff7bb9200198493f973a01d4a909974a0182644801984b3fd4ba0a7b6a9801826020016437d39003d89002826b2801d8ab0cdb320c978801826b380198ba3fd4a8087b689001987a3f97b701d47a0a974701826b400198b83fd4870297b801826b600198b33fd4380397b801826b680198b43fd4480897bb0182675801d47b0b7b6b680182675001d478087b686001d437087b684001d427077b674801c9a007d8c707d8a008826c9001c9c00bc98b0bc97b0b99b03f82673001d270078268980150220c01b4777b67380150220e011475d89b02c99b0988ab01c9bc0c827b78c92b0b95aaff7b7c80007b7b78d4bc027b7a8800d49a0bd42b0a840b017b7b587b797049265001520afefe289331492980014929780149297001492968019567002083778002330010010a103302120128db7650221201d876502214017274510706289c2e50221601bb75ac780628a12e9567a00333001801330240052871758267a0038268a8038069b003492698037b6990037b688803956880037b678003330750201a018ce249267803492670034926600301330720956860034926680350201c016ee250221e018d74390870010256183f133308403d087001023302200128e87550222001e5753307800102837783993308400a08826a980182a71882a81082a90882aa6f7c7b6c88016f8b7b6b90016f997b6980016fa77b679801826878017b87187b89107b8b087b8c9567400350202201eee2826758037b677801826750037b677001826748037b676801826740037b6760018267880195770188780182699001c8980895691821959a00017ba89000d478087ba7880088870182688001c887077ba79800d8870782689801c887077ba7a000956720039568a0225020240180e2826738037b675801826730037b675001826728037b674801826720037b67400182688801958702d88708826a900150222601e27382688001c88a0ad88a08826b9801c8b808956b182195bc00017bc8c0007bcab8007bc9b0007bc7a800956700039568c0225020280115e2956c000382c7187b67380182c7107b67300182688801958703d88708826a900150222a01857382c8087b68880182688001c88a0ad88a08826b9801c8b80882cb7b6b8001956b182195bc00017bc8e0007bcad8007bc9d0007bc7c8009567e0029568e02250202c01abe18267e0027b6728019567c00233084050202e016adf95670002827bd800827cd000827ac8008279c000d4ba07d4c908d47808988820d4c707977720d48707510706287628826760017b67a002826768017b67a802826770017b67b0029568a002826778017b67b80264977b6998017b6a90017b6b78017b6c70015020300139e0956c000182c8980082c77882ca70d47a0a140b00000000010000001407e0ffffff00000000d8780782c99000949794a752070628042883872082684001956c00027bc88000826848017bc88800826850017bc8900095688002826958017bc998007b6a78017b6b700150203201cadf95690001829b78829a9000829898008297709577c0d8780794a794b752070628a92783874082688001956a00027ba860826888017ba868826830017ba87095686002826938017ba978502034017bdf956a000182a998001407a0ffffff00000000d8790782a89000948782a87894875207062856278267280197772098782083976049265802492650027b6840029568400249264802502036012edf3308800082679801502038016ee383783309800033070a0d28ed2d49296005492958054929500549294805956700208377600633003a010a1033023c0128a96f50223c01a66f82b75882b86082b95082ba48d49808d4a707d4870751070628bc2a50223e01b971ac780628c12a9567002083778006330804330040010a020195671821957c000582c8800082c97882ca7082cb6850224201bb6e520706289f2a33078001037b67700183777b674001330044010a04826970013302460128866982697001502246017f69492900017b98f8007b97f000956800127b9ae80033075020480148de33024a0195681811014928e0004928d8004928c8000164893307209568e0114929d00050204c011fde9517e08477e07b67800164713309700102390770010256173f0b200370010240017b6938019517e08479e07b69680164913307800102837783993308407b6748010a08826a680182a71882a81082a90882aa6f776f8c6f996fa2826b80017bb2187bb9107bbc087bb7951be084b8e06481957b02d87b07c87c0ad8ca0cda770cc89c0cd89c07c827077b8c107b8a087b8b7b87189567c0117b68680150204e016fde956718118273c0008274b8008272b000827aa80082679801d3730bd8730c82687801d884077b675801dab70c82679001d37200d87207826988017b6a6001d89a097b695001da09076480d38408d4b808da870c510c06288229c9040882699801c99309826a5801c9a909d8780ac9a909c9780882679001c97207826a5001c9a707826a6001826b8801c9ba0a956b182195bc00057bca88007bc790007bc898007bc9a0009568a02682676801502050013ede9567a0118268800150205201afdd9569181182979000829888008292a000829a9800826b9001c87b0b826c8801c88c0cd88c08c88b0bd37b09d87b07da980782687801c8a80882699801c89202d8a809c82909c88707d88708c8980895691821959a00057baca8007babb0007ba7b8007ba8c0009568c0268267800150205401bcdd956780113308405020560102db956b181182b7800082b87882b97082ba6850225801436b510706282024826788017bb748826790017bb750826778017bb75895686011826798017bb76064a77b6a980150205a01f3db8267400133005c010a048269700133025e0128b5678269700150225e01ae67d4780298aa206f99979820d4a8089899203a0a800002956718117b7a403a0a8800023a0b9000023a0c9800027b7a387b7b304917207b7c287b79187b781033082095694011956a20117b720882679801502060015add33078268480133090a0d28b137492ac000492ab800492ab000492aa800956700308377c0f90a1001956b182982b7b80082b8c00082b9b00082baa800d49808d4a707d4870751070628e0278267980181775617030728e427492be000492bd800492bd000492bc8009567a0209568e02950206201fadb330264019568181901958900078297a000956800017b879800829798007b879000829790007b878800829788007b878000956780203308405020660190d933026801956a18190195ac000782c7800082c87882c97082cb68d49707d48b09d47909989920d48707977720d49707510706289622956900018297800095ac00077bc748829788007bc750829790007bc75895686020829798007bc76064b77b9b980050206a0161da330820826798013300e002289ede50226c01a56c82626801db270a7b6a98018267600182693001d4970782691801dab907826c500164cadb270a50226e018e6a50207001926e7b6730017b68180182674801826858018269900150207201786e50227401646b50207601926e50227801a46b82695801dba8097b69580182681001d4870782683001dab80782684801dba70864a97b684801826750018268400150207a01326e50227c01ea688263580182644801017b6b580198493f973a01d49a02974a01826b980198bb3fd4ba0a7b6a48018269280164847b625001d329086430d82903826b3001d8ab02db8302974801987a3fd4a8087b684001980a3f977701d47a0a82679801977701826b600198b83fd4870097b801826b680198b33fd4380397b801826b880198b43fd4480897bb0182675801d47b0b7b6b8801d4c8087b686801d43c087b686001d40c077b679801c9a907d82707d8a90882624001c9290bc98b0bc97b0b99bc3f82673801d2c70782684801c97804d8780882675001c987039478c98a07d88a08c9820850227e011f6dd89b02c99b0988ab01c9b000826b7801c92b0b95aaff7b6080017b6b7801d4b0027b6a9001d49a0bd42b0a84cb017b697001330c520aecfe82678801977701d47b0b0184b7ff82682001aa7806284b2533078001037b67500183777b674801330080010a043302820128a163502282019e6349292004959b00047bb8187bb7109568ff07958821057bba0833075020840139d89568ff0795881901492800044928f8034928e8030164893307209568ff07958801054929f003502086010dd89517e08477e07b67280164713308700102390770010256173f1120037001024033028801287e6b502288017b6b3307800102837783997b6888013308407b6790010a08826a980182a71882a81082a90882aa6f7c6f8b6f986fa9826728017b6980017b79187b6898017b78107b6b78017b7b087b6c70017b7c8267480133008a010a0433028c0128c46250228c01c1624929e003959b00037bb8d8007bb7d0009568ff079588e1047bbac800330750208e0159d79568ff07958819014928c0034928b8034928a8030364893307209568ff079588c1044929b003502090012dd782688801818756173f0848084001140800000000ffffffff7b6830011407ffffffff000000007b6740019517e08477e07b67680150229201c062330094010a08826a68013302960128c566826a680150229601be667bcae0007bc9d8007bc8d0007bc7c8009567ff079577a1049568e02450209801a8d74926100149261801330b9567ff079577190180778803956a00017ba73882a87095880188870182a978c897077ba8087ba7d4870788770182a89800c887077b67f800d8870782a88000c887077b67f000330a0101330893b882673801d8a7073309dab7093307db78095209c705492678017b6a98018267480133009a010a0433029c0128716150229c016e6149298003959b00037bb8787bb7709568ff07958881047bba68330750209e0109d69567ff0795771901492760034927580349275003647a3307209568ff0795886104492a4803025020a001ddd582688801818756173f08480840019517e08477e07b6780015022a2018c613300a4010a083302a6012899625022a6019662959a00037ba7407ba7387ba7309568ff0795884104826798017ba72833075020a80188d55022aa01c769958900035022ac017a6495882104826970017ba908035020ae0166d582688801818756173f08480840019517e08477e07b6770015022b00115613300b2010a08826a70013302b40128f563826a70015022b401ee63826b80017bba187bb9107bb8087bb7957b02d87b07c8780cd88c08da7708c89808d89807c8a70795691821959a00037babe8007bacf0007ba8f8007b9700049567ff0795770104956800255020b601ced59567ff07957719018277f0028477ff005107178268400101330b82679801957701d2870a2856fe9567ff079577e103826880015020b80195d59569ff0795991901959a000282a7d00082a8d80082a9c8008477ff8488ff826b3001d2b909d49808d487075107af826748013300ba010a043302bc0128a55f5022bc01a25f4929c002959b00027bb8b8007bb7b0009568ff079588c1037bbaa80033075020be013ad49567ff07957719014927a0024927980249279002647a3307209568ff079588a103492a8802045020c0010ed482688801818756173f08480840019517e08477e07b6780015022c201bd5f3300c4010a0801826a800182a71882a81082a90882aa6f777b6780015022c6017a669569ff07959919014929800249297802492970029568ff0795888103826720017b97680233075020c801a2d3826760019568ff0795881901958900027b9760826768017b9758826770017b9750648a3307209568ff0795886103826980017ba948025020ca0166d382688801818756173f08480840019517e08477e07b6780015022cc01155f3300ce010a083302d0012822605022d0011f60959a00027ba7407ba7387ba7309568ff0795884103826798017ba72833075020d20111d35022d4015067958900025022d601036295882103826970017ba908025020d801efd282688801818756173f08480840019517e08477e07b6778015022da019e5e3300dc010a08826a78013302de01289361826a78015022de018c61826880017b8a187b89107b8b087b879567ff07957701035020e0018bd39567ff07957719018277e8018477015207c1fd9567ff079577e102826828015020e20166d3956aff0795aa190195ab000182b7e00082b8d80082b9d00082a2c8013a0ba800028e7c8e8adb7c0ad82b0b8e9cda9b0cd4780bdbba0c520c1995690001829710957701829840d287077b97102864fd3a0ab00002c82a0ad82a0bc8b90c95ccffd39c02d89c09da2b09958bffc8b909d8b90b888801c98707c8b70795681821958b00047bba087bbc107bb9187bb72095682025826728015020e4014ad39517e08478e07b68780164818267f0007b87188267f8007b8710826700017b8708826708017b879567ff079577c1025020e60194d29567ff07957719018277a8013a08a000029569ff07959919018299c001956aff0795aa190182aab001956bff0795bb190182bbb801c87808d87807c87a0cd8ac0ada770ac8ba0ad8ba07c8970795691821959b00047bb8287bbc307bba387bb74095684025826778015020e801a6d28267180195770182684001d287077b6718019567ff079577a102826880015020ea0101d29567ff0795771901827788018477fe007b6778019567ff0795778102826880015020ec01dbd19567ff0795771901827768019568ff0795881901828870019569ff079599190182997801956aff0795aa190182aa8001847700ff826b7801d4b707957701956b182195bc00047bca607bc9587bc8507bc74895686025826780015020ee01fcd128c0fb9567ff07957761023308405020f0013bcf9569ff07959919018292600195970001827c58827b50827a48d42b07d4ca08d47808988820d4c707977720d487075107062842188267180182684001d287074929400149293801492930019568ff07958841027b97280164a77b6a98017b6b88017b6278017b6c80015020f20106d0956b000182b9980082b7800082b878d487071408e0ffffff00000000d8890882ba880094a8947852080628da178267100182684001d27808839720956aff0795aa1901492a2001492a18017ba808019568ff0795882102492a10015020f401a5cf826748013300f6010a04826950013302f80128675b826950015022f801605bd4780298aa206f99979820d4a8039899203a0ab800023a0bc000023a0cc80002826720019568ff07958819017b87a8007b8a00017b8bf8007b8cf0003a0ad000024928c0004928b8004928b0007b8ae8007b89d8007b83d0007b82c80064873308409569ff0795990102956aff0795aae101956bff0795bbc1014927e000826798013300f8032882d15022fa014f6182626801db270a7b6a98018267600182693001d4970782691801dab907826c500164cadb270a5022fc01385f5020fe013c637b6730017b681801826758018268480182699001502000022263502202020e60502004023c63502206024e6082694801dba8097b69480182681001d4870782683001dab80782685801dba70864a97b685801826750018268400150200802dc6250220a02945d8263480182645801017b6b580198493f973a01d49a02974a01826b980198bb3fd4ba0a7b6a48018269280164847b625001d329086430d82903826b3001d8ab02db8302974801987a3fd4a8087b684001980a3f977701d47a0a82679801977701826b600198b83fd4870097b801826b680198b33fd4380397b801826b880198b43fd4480897bb0182675801d47b0b7b6b8801d4c8087b686801d43c087b686001d40c077b679801c9a907d82707d8a90882624001c9290bc98b0bc97b0b99bc3f82673801d2c70782684801c97804d8780882675001c987039478c98a07d88a08c9820850220c02c961d89b02c99b0988ab01c9b000826b7801c92b0b95aaff7b6080017b6b7801d4b0027b6a9001d49a0bd42b0a84cb017b697001330c520aecfe82678801977701d47b0b017b6b70019567a01f33084050200e02e8cb956218198223a00695270006827c9800827a9000827b88008e378ec8db37088ea788b960ff859901dba709d43c077b677801db780951090628071a95b7a000d8b708c88a097b6a9801826a9801d8a90ada880ac8ca0ad8ca087b6b9001c8830b7b2768067b2970067b2a78063307409568801f7b2b80067b6c80017b638801502010029dcc956c000182c9900082ca8000d4a90782c8980082cb8800d4b808d48707987720d4a808978820d48707510706286f1433021202956a181901492a60068267000195ab00067bb7488267f8007bb7509568601f826708017bb7586497502014023ccc8267c8000a040195690001829b90001407e0ffffff00000000d87b0782989800948782987894875207062810148269e80082970881981082996f77977a206f88988820d48a0a9877206f98978920d4790998882083b720956b1819492b400695bc00067bc8387bc9309568401f7bca287b67580150201602c2cb8267f000956a18197ba700068267b80095ab00057bb7f8008267b0007bb7f0009567201f9568001f8269c0007bb9e800502018029253956b181995bc000682c90882c71082c81882ca2095bc00057bcac0007bc8b8007bc7b0009567e01e9568c01e7bc9a80050201a02e9519562181995280005828ae000828bd800828cd0008287c800d4ac09d4b708d49808988820d4b909979920d498085108062824138268c0007b2888058268b0007b2890058268b8007b2898059568a01e8269f0007b29a0057b6a88017b6b80017b6c68017b67600150201c02e9ca956c000182ca6082c7880082c88000d48707140be0ffffff00000000d8ba0882c9689498947852080628be12816720017b6788008268c00083877b67900083a7207b6b500150201e02ecce837782689000826988000a010182686001826b6801826c80018262c000c88202d882088269b000c8b909c88909d3b90ad8b90bdaa80b8268b800c8c808d8c80a826c88018267f000c87c0cc8ca0ac88b0bd88b08c8a808d4b80882675001d8720a949a948a520a06283412832720956918194929800549297805492970059568801e492968055020200212ca140a00000000010000001407c0ffffff00000000956b000182b89000d8780782b99800949782b978949752070628e3118387409569181982686001959b00057bb848826868017bb850826880017bb8589568601e7b6a8001826a88017bba607b67880150202202a9c9956b000182b97882ba980082b8900082b780009577a0d8780794a79497520706288711838760956b1819492b4005492b3805492b30059568401e826970017bb928057b6778502024025ec9956a000182a89000140780ffffff00000000d8780782a99800949782a978949752070628391183878000956918194929200549291805492910059568201e492908057b67285020260213c98267c800330028020a0433022a02283e5550222a023b5549290005959b00047bb8f8007bb7f0009568001e7bbae800330750202c02dcc833022e0295681819014928e0044928d8044928c8040264893307209568e01d4929d00450203002b3c88268a800818756173f0848084001140700000000ffffffff7b67709517e08477e07b679801647183793308408267a000330032020a0801826a980182a71882a81082a90882aa6f777b6780016f877b6778016f977b6770016fa77b67680150223402825a956918194929c00482670801959a00047ba7b8008267f8007ba7b0009568c01d826700017ba7a8003307502036021fc8956b000182b76895681819958900047b97a00082b7707b97980082b7787b979000648a3307209568a01d82b980007ba9880450203802e7c78268a800818756173f08480840019517e08477e07b678001647183793308408267a0000a08826a800182a71882a81082a90882aa6f7c7b6c506f8b7b6b586f987b68686fa77b6760826998017b97187b98107b9b087b9c9567801d8268900150203a0248c695671819827768048268e000d287077b6790019567601d8268980150203c0253c8956a181995ab000482b75082b85882b96082ba488477ff8488ff8499ff826b70d2ba0a826b9001d4ba0a956b182195bc00077bc980007bc8787bc7707bca68956880288267980150203e0287c89567401d8268580150204002ccc595671819957900048298387b6890018298307b6880018298287b6878019567201d8268980150204202cdc7956818198287200480880804826c780198c920826b800197ba20d4a90998ba20826b900197bb20d4ba0a97cb20d4b808956b182195bc00077bca98007bc990007bc7a0007bc888009568a0288267980150204402f8c79517e08478e06481826950959901889701826a58c87a0ad4a907887701826c68c87c0bd8cb07826c60c8c7077b6748017b87187b6b38017b8b107b6a40017b8a087b68407b6950017b899567001d8268880150204602f3c495671819827a0004957c000382cbf80082c9f00082c8e800956c00017bc9307bca28d4a907d4b809d479099899207bcb20d4b707977720d497075207f10d9567e01c7b68180150204802a7c49569181995970003827be000827ad8008278d0008eb78eacdbb70c7b68488e877b6a387b6b30d4ba0a7b67107b6c187b6a1001dbac07510706287f148297c8037b6780009567c01c82684050204a0282c6956a18190195ab000382b7b80082b8b00082b9a80082bac000977b3f988c01d4bc0397ac3f987701d4c70797883f989c01d4c80898a4018499019a9c889201848b7fd2c707d23c0adb980b7b6b800188b820d24c0c648994a9d4c70b94b9aa9206285a148ea98588017b6a7801dba9087b6790018e798eca7b6c8801dac90adab80a826780008877207b6720510a4c0295671819956a000182a850957b00037bb8880082a8407bb8900082a8387bb898009568a01c82a9487bb9a000330750204c02ccc48267a800817756171f0c8268a800480820019517e08477e07b676801647183793308208267a0000a088267800095781fd87807826c48c87c09d8c90ada770a826b38c8ba0a7b6a600197aa3b989b05d4ab0b8267680182721897993b827710988805d489096f246f7782682094c8826a100194a8948b9489c89402d84209c8970cc8cb0b7b6b9801d37b0cd87b0adac90a7b6a58018269800195901fd8900b826a7801c8ba09d8a90cdabb0c82639001c8c303973b3b989a05d4ba0a97993b980b05d4b909c849097b697801d8490b6424c8b709c8a909d3790a7b697001d87909daab09826b6001826738d87b07826a30c8a70798ba05977b3bd4ba0a826b680182b282bb08987705948a94876fb86f2bc8b707c88a0ad88a0cc8c70782605801c8a000d8a00ac8a70282679001d87307826a8801c8a707983a05977c3bd4ca0a987705c8b707956c000182cb9800c88a0ad88a08c88707c8a9097bc968d8a908c887077bc7609517e08473e064317b6358010182677801d8740782697001d39b08d89b09da8709826c6801d8c007826a6001d3a208d8a20ada870ad3c007d48707da790a7b6490017b347b6b98017b3b087b6080017b30107b6288017b3218510a54956718214927c0074927b8074927b0074927a8079568c028643750204e025cc48263580182649001954401884701826b9801c87b0bd4b40788770182688001c88707d8870882628801c8820264702863ff826720857701826848826910db890782681882691001db980751074d02826780008477e07b6710019567181982685001957a00037ba848826840017ba850826838017ba8589568601c826948017ba96033075020500260c29517e08477e07b677001647133082033075020520297c69518e08488e07b6868016481837783893308200a084926980120330c49269001492688014926780149268001826a680182a71882a81082a90882aa6f736f846f903309826b78016fa7330a6472826870017b87187b6050017b80107b84087b83017b626801826710017b6b7801d87b07857b017b6a580194ab017b69600182678001d49707947b018268180182679801c87808826a3001c8ca0a8269200182679001c879098267280164c0826c8801c8c707520b7201826b9801d8b80bc8ba0ad30a027b603801d80a0cda2b0cc89c0cd89c02826b9001d8b909c89707c82707d4c809d4a707d47909989920d4c707977720d497077b6348017b64400152074a099567001a5020540204c0956a181982a7000182a8f80082a9f00082aae800956b182195bc00077bc7e0007bc8d8007bc9d0007bcac8009568e028826770015020560277c28263480195330188370182644001c87404d4430788770182685001c87800d8800882676801c88707826898019589207b696801d8890a82683801c8a8097b694801d8890bdaaa0b82689001c8b80ad88a0b82688801c8b8087b68880182687801958b20d88b0c82695801c8c908d89809dacc09826c6001c8c909d8c90c82628001c8c2027b628001826c70017bc4087bc37bc01064727bc7187b605001826768017b679801826c48017b6a9001648a286dfe82678000826838d48707826848826930d49808d487075207b1014926800149267801492688014926900128ff018264900182639801826b8000826c1001d3cb0b826c38d4cb02826c48826b30d4bc0cd4c20b510b3001d8380bc8ba0ad30a02d80a0cda2b0cc89c0cd89c0bd84909c89707c8b707d4c809d4a707d47909989920d4c707977720d497075207c7079567401c5020580281be95671819957900038298407b6890018298387b6888018298307b6880018297287b6778018267800097773b9878387b6898019a8980003307ff3308ff50205a0216547b6768017b6850013307ff3308ff8269980150205c02d8537b6758017b68600182675001d487077b675001826798019579803307ff3308ff50205e02b253826b980188b98000826a5001db9a08826c5801826a6801d4ca0ada970a93b8ff93baff826b6001939b939c82677801e0a70782698001e0890882698801e0c909826a9001e0ba0a956b18297bba95ba00ff7ba9f8007ba8f0007ba7e80095680029826770015020600243c082693898973f826830978801d48707826a4898a83f979901d49808826b800098b93f97aa01d4a90997ba0195aa01956b18297bba087bb9107bb8187bb72033072029287001956a000182a72882a820d487071408e0ffffff0000000082a918d8890882a9309498947851086506826718018378209567801c5020620218bd956718199579000382988000956a00017ba890008298787ba888008298707ba8788297687ba780000182694898973f826a3897a801d487077b67700198a73f826830978801d487077b676801826a800098a73f979801d487077b67600197a7017b67580197a8037b6898018d8980003307ff3308ff5020640274527b6738017b685001826780008a79033307ff3308ff5020660233527b6748017b68400182683801d487077b673801826798018379803307ff3308ff502068020d52826b980188b98000826a3801db9a07826c4001826a5001d4ca0ada980a93b7ff93baff939c826b4801939b82687801e0a80882698001e0790782698801e0b909826a9001e0ca0a956c000182cb58d4b70782cb60d4b80882cb68d4ba0a82cb70d4b909956b18297bb9387bba407bb8307bb7283307402901c8760882674050206a0285be9517e0847ce064c1826850958702d88708826a5850226c02804f826868c88a0ad88a08826b60c8b8087b6c98017bca107bc9087bc77bc8189567201c82687850206e0293bb95671819827708038477ff7b6790019567001c8268980150207002a2bd95691819829700038298f8028299f002956a1829826b90017bab487ba7607ba8587ba950956860298267980150207202f1bd9567e01b8268285020740237bb502276025b5082b7e00082b8d00082b9d80082bac800d48707d4a909d497078e777b6790019567c01b826898015020780230bd50227a02285082b7b00082b8a80082b9c00082bab800847700ff826b9001d4b707956b18297bb980007bba787bb8687bb770956880298267980150207c0271bd8267c80033007e020a04330280022829485022800226484929a002959b00027bb898007bb790009568a01b7bba8800330750208202c7bb3302840295681819014928800249287802492868020164893307209568801b49297002502086029ebb50228802cb4d8269a800819756173f08480940019517e08477e07b679001647183793308408267a00033008a020a0833028c0228b54c50228c02b24c95ab0350228e02bd48826898017b8b7b8c087b89107b87189567601b5020900232bc95671819827748029577018268e000d287077b6790019567401b82689801502092020ebc50229402064f82b73082b83882b94082ba288477ff8488ff8499ff826b70d2ba0a826b9001d4ba0a956b18297bb9a0007bb898007bb790007bba88009568a029826798015020960245bc9567201b330840502098028bb995691819959c000282ca2082cb1882c81082c708956c00017bc898007bca8800d48a0ad4b708d4a8089888207bcb9000d4ba0a97aa20d4a80852088a02492900024929f8014929f0019568001b4929e801207b67800150209a0269ba956a000182a7880082a89000d47808140700000000010000007ba7781407e0ffffff0000000082a98000d8790782a9980094977ba870948751072f0282678001837720956918198268c000959b00017bb8c8008268b0007bb8d0008268b8007bb8d8009568e01a826af0007bbae00050209c02f4b9826778019577dc8268d000d878078268d80094878268980094875107d8018267c0008269b800d497078268f000826ab000d4a808d48707987720d49808978820d487075207af011408c0ffffff0000000095690001829780007b9878d88707829898009487829870948751078801826780018377408268900050209e02c3bd837782689000826988000a01018268c00082678001c88707d88708826bb00082699801c8b909c88909d3b90ad8b90bdaa80b8268f000826a8801c8a808826cb800826a9001c8ca0ad8ca0cc8c808c8ab0bd8ab0ac8a808d4b808826a7801d8a70a949a948a510a0e01837740956918194929c0014929b8014929b0019568c01a4929a8015020a002ebb88267c8003300a2020a048269e8003302a40228ad448269e8005022a402a644d4780298aa206f98978920d4a909988a208268c00095881f8488e0009588403a0b2000023a0c280002956718197b7ba0013a0b3000027b7c980149276001826c08017b7c58017b7b90013a0b380002826cf8007b7c5001826c00017b7c480149278001957c00017bcb88007bca787bc9709569a01a956a801a956b601a7b726801826780015020a602c9ba9567401a3308405020a802fab63302aa02956a18190195ac000182c74082c83882c93082cb28d49707d48b09d47909989920d48707977720d4970751078e07003308800102838833070133090a0d2830143308800102838833070133090a0d281f143308800102838833070133090a0d280e143308800102838833070133090a0d28fd13492610044926080449260004140700000000c611522c956800047b67180433075020ac0297b7390870010256181f1220037001022033088001022847053308800102283f05492630044926280449262004140700000000b878d6f4956820047b67380433073300b602284eb73308800102838833070133090a0d2880133308800102838833070133090a0d286f133308800102838833070133090a0d285e133308800102838833070133090a0d284d133308800102838833070133090a0d283c133308800102838833070133090a0d282b139567181949171849171049170864793302ae02140700000000717b484e3308002001838820f9c868087b972033075020b002b7b63302b202956818190149084918f84918e8116489330704956800194919f03300d002288fb63308800102838833070133090a0d28c1123308800102838833070133090a0d28b0123308800102838833070133090a0d289f123308800102838833070133090a0d288e123308800102838833070133090a0d287d12492670054926680549266005140700000000c611522c956860057b67780533075020b40217b6390870010256181f12200370010220330880010228c703330880010228bf03492690054926880549268005140700000000b878d6f4956880057b67980533075020b602d2b582674001817756171f690282684001480820285d023308800102838833070133090a0d28ec11956918194929b8074929b007140700000000c611522c7b97c0079568c0204929a80733075020b80282b5390870010256181f1220037001022033088001022832033308800102282a03956718194927f8074927f0074927e8073302ba02140700000000717b484e330800200183880001c86808956918217b9733075020bc022bb53302be0295681819014928e0074928d8074928c8071164893307049568e0204929d0075020c00202b582675001817756173f0c8268500148084001330701330924826860013300c2020a0d0152476eeb149cb202956718214927e0054927d8054927d0054927c805956700208377e0063300c4020a103302c6022869455022c602664582b7d80082b8e00082b9d00082bac800d49808d4a707d4870751074b043308800102838833070133090a0d28ba103308800102838833070133090a0d28a9103308800102838833070133090a0d2898103308800102838833070133090a0d2887103308800102838833070133090a0d2876103308800102838833070133090a0d2865103308800102838833070133090a0d2854103308800102838833070133090a0d2843103308800102838833070133090a0d2832109569ff07959919014929d8074929d007140700000000c611522c7b97e0079568e0104929c80733075020c802c4b3390870010256181f1220037001022033088001022874013308800102286c019567ff07957719014927f8074927f0074927e807140700000000b878d6f495680011956918117b9733075020ca0275b382673801817756171f0c8268380148082001330701330904826848010a0d013308800102838833070133090a0d28850f3308800102838833070133090a0d28740f9569ff07959919014929380449293004140700000000635bb2d57b9740049568ff07958841054929280433075020cc0202b3390870010256181f12200370010220330880010228b200330880010228aa00491258491250491248140700000000717b484e956860197b276033075020ce02c1b295681819491840491838491828416489330704956840194919305020d002a1b28267a800817756173f0c8268a800480840013307013309248268a0000a0d019569181949293807492930071407000000003bc167cc7b974007956840204929280733075020d20258b2390870010256181f112003700102203308800102280833088001020183883307013309043300d4020a0d015247275914a06495671821492700064927f8054927f0054927e80595670020837700073300d6020a103302d80228b8425022d802b54282b7f80082a8000682b9f00082bae800d49808d4a707d487075107b6013308800102838833070133090a0d28090e52473a6750b6bd01956718214927800649277806492770064927680695670020837780073300da020a1001956a182195ab00065022dc022d435107d6013308800102838833070133090a0d28bb0d492658010182676801977701826b5801d47b0b014926d8034926d0034926c8039568c0037b6bc003826718015020de0249b1330820826718015020e0028ab5837833092033070a0d280a33092033070a0d014929980049299000492988003302e202140700000000717b484e33080020018388a0f9c868087b97a00033075020e402f7b09568181949288000491878491868416489330704956880194919703300d00228d2b0956718194927d8004927d0004927c80064793302e602140700000000717b484e33080020018388e0f9c868087b97e00033075020e8029db0956818194928c0004928b8004928a8002264893307049568c0194929b0003300d0022875b064ba9567181949272001956c000182c87b7808018268f8007b7810019568201a82c9087b79180164b77bca980033006a012841b08267980181775617639f003308800102838833070133090a0d28680c8267980181775617437b013308800102838833070133090a0d284c0c52474a45080e9c05956718214927400149273801492730014927280195670020837740023300ea020a103302ec0228d5435022ec02d2435022ee0290435107cc053308800102838833070133090a0d28fa0b5022f002a642ac78cc053308800102838833070133090a0d28df0b9567c0123300f20233024005284d4295681811958900018297a8007b6798018297b0007b6790018297b8007b6788018297c0007b6780019567a0123300f4023302440528ff429568181195890001829788007b677801829790007b677001829798007b6768018297a0007b676001956780123300f60233024a0528c842956b181195bc000182c76882c87082c97882ca80007bca207bc9187bc8107bc708956b000182b7607bc74082b7687bc73882b7707bc73082b7787bc72882b780007bc76082b788007bc75882b790007bc75095676012956840129569201282ba98007bca485020f802832733088001028388330733090a0d28e70a956760163300fa023302540528554195671811827748057b679001956740163300fc023302440528234295671811827728057b67f00033078001037b67080183777b6700013300fe020a0482690801330200032869398269080150220003623949292005959b00057bb8187bb710956820167bba083307502002032aae330204039568181101492800054928f8044928e804026489330720956800164929f0045020060301ae33077001027b671801390770010233083fac781182681801480840330208032877415022080374413307800102837783993308407b67100133000a030a08826a980133020c0328913b826a980150220c038a3b7b679801647182679001977720987920956718114927e0044927d8044927d0049568e0157b69f8007b79c804330750200e037aad8267700195681811958900047b97c000826778017b97b800826780017b97b000648a3307209568c015826988017ba9a8045020100343ad82671801817756173f128267180148074033021203289439502212039139330014030a08826a90013302160328d23b826a900150221603cb3b826b98017bba187bb9107bb8087bb782670001330018030a048269080133021a0328be3f8269080150221a03b73f7b6890019877206f987b688801978820d487077b6780019567a0158268980150201c03a9ad95691811018297900480988c0482999804977a20d4a808979a20987720d4a707956b000182ba8000d3a70782ba9000d3a80882ba8800d3a909989920d49808d487075207710695670020837720070a09019567182182722006827b18067b6b580182741006827a08067b6a4001682768b8958940db2709684768a8958840db470895878000d42b0adaa709d8870c94ac8ecb8897f000857a01daca0b88b7019570ff9ab39accc9ac0a9a99ef008e3c8e07da0c07889c000185cc018ea8dba80cdbb70c7b6438017b625001d42407826b400182685801d4b808d48707887701d4c70764b894787b6898015207130650221e03cd3f51070906502220036538502022032a40502224030d3f50202603444050222803343e50202a0338407b6720017b68e80082696001889780007b67e000826740018268380150202c03164050222e039b3e826ae00093a77bb7785108960564a98267680182682801d4870764ac8268e800502230033b3750203203be3f502234038b3e50203603b23f7b67e80050223803a33d50203a03c83f50223c03c73a8268e80050223e03153c502040038c3f50224203ba3850224403603ad89002826b2801d8ab0cdb320c50224603723ad4870297b801826b700198b33fd4380397b801826b780198b43fd4480897bb0182675801d47b0b7b6b780182675001d478087b687001d437087b686001d42707502248032536d89b02c99b0988ab01c9bc0c827b8800c92b0b95aaff7b7c90007b7b8800d4bc027b7a9800d49a0bd42b0a840b017b7b587b79800049265001520a68ff28a4045247ce3c1245470695671821492700034927f8024927f0024927e802956700208377000433004a030a103307002033024c03281b3e3307002050224c03143e82b7f80082a8000382b9f00082bae800d49808d4a707d48707510755063308800102838833070133090a0d28430650224e03ef3cac784c063308800102838833070133090a0d2828069567e018330050033302540528963c956718118277c8077b67700133078001037b67880183777b678001330052030a04826988013302540328c5348269880150225403be344929c007959b00077bb8b8007bb7b0009568c0187bbaa80033075020560383a93302580395681811014928a00749289807492888070264893307209568a0184929900750205a035aa933077001027b679801390770010256173f0a50225c033f3c9517e08479e07b69780164913307800102837783993308407b67900133005e030a083302600328e13950226003de397b6768016f877b6760016f977b6758016fa77b675001502262031c3b8267700197772098792095671811492780074927780749277007956880187b6970017b796807330750206403c9a88267500195681811958900077b9760826758017b9758826760017b9750648a33072095686018826968017ba948075020660395a850226803d439ac780950226a035e3c9517e08477e07b67680150226c03433433006e030a08826a680133027003282337826a6801502270031c37826b78017bba187bb9107bb8087bb782678001330072030a048269880133027403280f3b8269880150227403083b7b6868019877206f987b686001978820d487077b675801956740188268780150207603faa895691811018297300780982c0782993807977a20d4a808979a20987720d4a707956b000182ba58d3a70782ba68d3a80882ba60d3a909989920d49808d4870752071b0582678001330078030a048269880133027a0328c8328269880150227a03c13249290007959b00067bb8f8007bb7f000956800187bbae800330750207c0386a733027e0395681811014928e0064928d8064928c8060264893307209568e0174929d006502080035da7502282039c38ac7809502284034b3a9517e08477e07b677801502286030b33330088030a0833028a0328f93750228a03f6377b6778016f877b6768016f977b6760016fa77b67580133028c0395691811014929c0064929b8064929b0069568c017826770017b97a806330750208e03eca68267580195681811958900067b97a000826760017b979800826768017b979000648a3307209568a017826978017ba9880650209003b5a650229203f437ac7809502294037e3a9517e08477e07b6778015022960363320a08826a780182a782a80882a91082aa186f726f876f996faa951be084b8e0648195ab02d8ab0ac8a90cd89c09daaa09c87909d87907c827077b8c087b8b7b89107b8718956780177b6878015020980336a795671811827770068478ff005108d80333029a0395691811014929580649295006140700000000c884c1c17b976006956860174929480633073300d4032801a633029c0395691811014929780449297004140700000000dbf71c6f7b978004956880154929680433073300ec0428d1a5492658010195690001829778977701829858d487077b979800018267f00082689801ab8774058267000133009e030a04826908013302a00328b130826908015022a003aa3049294004959b00047bb8387bb730956840157bba2833075020a20372a53302a403956818110149282004492818044928080402648933072095682015492910045020a60349a582671801817756173f12826818014808403302a803289a315022a80397313300aa030a083302ac032896325022ac039332492900044929f8034929f003956800158267f8007b97e80333075020ae03f8a48267780195681811958900037b97e000826780017b97d800826788017b97d000648a3307209568e014826990017ba9c8035020b003c1a482671801817756173f12826718014807403302b2032812315022b2030f313300b4030a083302b60328e3355022b603e03595ab025022b803eb3195681821958a00067bab287bac307ba9387ba7409567c014956840275020ba0357a5956718117c77b00351074f043302bc03956918110149299803492990031407000000006d53a9a77b97a0039568a0144929880333073300ec042826a49569182152472dc64b49484929800449297804492970044929680495670020837780053300be030a1001956a182195ab00045022c0038e35510706063308800102838833070133090a0d281c3308800102838833070133090a0d280c838833070133090a0d01826798018177561763e505330880010228e6956720023300c20333024005285f36956a000282a72082a82880693002492618027ba9107ba808956800027ba733075020c4037ca34926f8014926f0014926e001033307209568e0014926e8015020c6035ea333077001027b679801390770010256173f0a5022c80343369517e08479e07b698801649133078001027b679001837783993308403300ca030a083302cc0328e3325022cc03e03295bc00017bca607bc9587bc8507bc7489567c001956860225020ce03eba38067c0014926b8014926b0017b67a001330780009568a0014926a8015020d003d7a282679801817756279f0018826898014808a0008267900183788000288bf182679001837880002880f13302d20395691811014929180749291007140700000000dbf71c6f7b972007956820184929080733075020d4037fa282679801817756171f0c8268980148082001330701330904826890010a0d011408ffffffff000000007b686801956a181195ab000682b86882b97882ba8000867701956b182195bc00067bc888007bc998007bc790007bcaa0009568a027826778015020d6038aa3826780013300d8030a04826988013302da03281a2d826988015022da03132d49294006959b00067bb8387bb730956840177bba2833075020dc03dba13302de03956818110149282006492818064928080601648933072095682017492910065020e003b2a15022e203d1335022e403eb32ac78095022e6039a349517e08477e07b6798015022e8035a2d3300ea030a0801826a980182a782a80882a91082aa186f776f886f996faa95ab035022ec03ca2e826878017b8b7b8c087b89107b8718956700175020ee033fa2956718118277e80582686801c88707d287077b6798019567e016826878015020f0031ba2956a181180a7cc0597772095ab000582b8e00082b9d80082bad000826b9801d4b707956b182195bc00067bc8c0007bc9b8007bcab0007bc7a8009568c027826778015020f20354a2826780013300f4030a04826988013302f60328a32c826988015022f6039c2cd4780298aa206f99979820d4a808989920826a7001956718117b7a68053a0a4000023a0b4800023a0c5000027b7ac0057b7bb80549278005957b00057bbcb0003a0a58000249277805492770054927a0057bbaa8007bb998007bb890009569c016956aa016956b80167b728805330733085020f803d3a233078268900133090a0d287efc3302fa0395691811014929580449295004140700000000635bb2d57b976004956860154929480433073300ec04280ba0826700013300fc030a04826908013302fe0328112b826908015022fe030a2b49298003959b00037bb8787bb770956880147bba68330750200004d29f330202049568181101492860034928580349284803046489330720956860144929500350200404a99f82671801817756173f12826818014808403302060428fa2b50220604f72b330008040a0833020a0428f62c50220a04f32c49294003492938034929300395684014826798017b972803330750200c04589f8267780195681811958900037b9720826780017b9718826788017b9710648a33072095682014826990017ba9080350200e04249f82671801817756173f12826718014807403302100428752b50221004722b330012040a08826a90013302140428ce2c826a900150221404c72c7b6790016471330216049569181101492900034929f8024929f002956800148267f8007b97e802330750201804bc9e8267700195681811958900027b97e000826778017b97d800826780017b97d000648a3307209568e013826988017ba9c80250201a04859e8267180181775517400c82671801480740019517e08477e07b678801647183793308408267100133001c040a08826a880133021e0428202d826a880150221e04192d826890017b8a187b89107b8b087b879567c013502020041c9f956718118277a8028478015208d7023302220495691811014929d8014929d001140700000000b6e2a4af7b97e0019568e0124929c80133073300ec0428e89d826798018177561763bb033308800102280efa9567ff079577a10133002404330240052882309568ff07958819018287a0007b67f800828798007b670001828790007b671801828788007b6710019567ff079577810133002604330244052830319568ff0795881901828780007b67f0008287787b67e8008287707b67e0008287687b6708019567ff07957761013300280433024a0528f8309567ff07957719018277487b67d80095670020837720040a09019567182182722003827b18037b6b580182741003827a08037b6a4001682768b8958940db2709684768a8958840db470895878000d42b0adaa709d8870c94ac8ecb8897f000857a01daca0b88b7019570ff9ab39accc9ac0a9a99ef008e3c8e07da0c07889c000185cc018ea8dba80cdbb70c7b6438017b625001d42407826b400182685801d4b808d48707887701d4c707947b5207b10750222a04a5305107a70750222c043d2950202e04023150223004e52f502032041c31502234040c2f5020360410317b6720017b68d00082696001889780007b67c800826740018268380150203804ee3050223a04732f826ac80093a77bb77851083a0764a98267680182682801d4870764ac8268d00050223c04132850203e04963050224004632f502042048a307b67d000502244047b2e50204604a030502248049f2b8268d00050224a04ed2c50204c04643050224e04922950225004382bd89002826b2801d8ab0cdb320c502252044a2bd4870297b801826b700198b33fd4380397b801826b780198b43fd4480897bb0182675801d47b0b7b6b780182675001d478087b687001d437087b686001d4270750225404fd26d89b02c99b0988ab01c9bc0c827b8800c92b0b95aaff7b7c90007b7b8800d4bc027b7a9800d49a0bd42b0a840b017b7b587b79800049265001520a68ff2848068478025208c00b8477fd007b6788019567801382689001502056041d9c3307001050225804042f82b76882b87082b97882ba8000847700ff826b8801d4b707957702956b182195bc00067bca607bc9587bc8507bc748956860278267900150205a04579c8267000133005c040a048269080133025e0428a6268269080150225e049f26d4870798aa206f99979820d4a808989920956c1811492c0002492cf801492cf001826a98017bcae801826af8007bca08023a0a6000023a0b680002492c2002492c18027bca60027bcb58023a0a7000023a0b780002492c1002492c40027bca500295ca00027bab487ba9387ba83064c895696013956a4013956b2013956c00137b8728023307330850206004829d33078268100133090a0d286af695674010330062043302400528d82c9568ff0795881901958900078297407b67f0008297387b67f8008297307b6738018297287b673001956720103300640433024405288a2d9568ff0795881901958900078297207b67d0008297187b67c8008297107b67c0008297087b67b800956700103300660433024a0528532d9567ff07957719018079e8068897019598ff888832858801da97087b691001da97085208540a8267f800977720987920956aff0795aa1901492ac0068267300195ab00067bb7a800826738017bb7b0009568ff079588c1077b6908017bb9b80033075020680445999568ff07958819014928a00649289806492888060364893307209568ff079588a1074929900650206a04199933077001027b679801390770010256173f0a50226c04fe2b1407ffffffff000000007b6748019517e08479e07b69880164913307800102837783993308407b67900133006e040a0833027004289028502270048d2895bc00047bcaa0007bc998007bc890007bc788009567ff07957781079568a0255020720490999567ff0795771901827768067b67a800956700208377c0050a0901956718218272c004827bb8047b6b40018274b004827aa8047b6a1801682768b8958940db2709684768a8958840db470895878000d42b0adaa709d8870c94ac8ecb8897f000857a01daca0b88b7019570ff9ab39accc9ac0a9a99ef008e3c8e07da0c07889c000185cc018ea8dba80cdbb70c7b64b0007b622801d42407826b180182684001d4b808d48707887701d4c70764b894787b68000152071c0950227404ea2b510712099598017b688801888701c8a7077b678001d48707887701c837077b677001d83707c807077b6778019a98ff007b6850019a898000826718018268b00050207604112c7b6720017b685801826740018268280182695001502078041d2c7b6700017b68e80082675001957980826718018268b00050207a04002c7b67e0007b68d80082695001889780007b67a000826718018268b00050207c04de2b50227e04432a826aa00093a77bb76851084c0864a9826758018268e800d4870764ac8268d800da980782692801649a649882695001db970a7b6a580182672001826a0001d4a707826ae000daca07826b400164badb970a7b6a50018267600193c77b6760014926e8008051018267880195798064b7502080043d2b7b6720017b68e000826718018268b0008269880150208204232b7b67d8007b680001826888019a8980008267400182682801502084042b2b82690001d4980882698801889a80007b6a0001826be000daab08826bb000db980b7b6bb0008268d800d4870782682001daa80782681801db97087b681801826740018268280150208604b92a826418018263b000492640014926280182690001939893977b672001826ae80095a9ff7b69e0008ea99599ff7b69d8000198493f973a01d4a909974a0182645801984b3fd4ba0a7b6a18018260d8006437d39003d89002826be000d8ab0cdb320c978801826b200198ba3fd4a8087b680001987a3f97b701d47a0a974701826b500198b83fd4870297b801826b600198b33fd4380397b801826b680198b43fd4480897bb0182674001d47b0b7b6b680182672801d478087b686001d437087b685001d427077b675801c9a007d8c707d8a008826c0001c9c00bc98b0bc97b0b99b03f8267e800d270078268180150228804b6297b67200150228a041627d89b02c99b0988ab01c9bc0c827b78c92b0b95aaff7b7c80007b7b78d4bc027b7a8800d49a0bd42b0a840b017b7b407b797049262801520afefe282a06492658010182677801977701826b5801d47b0b0182670801aeb7f50b8267d8009777209878209587ff88773293877b68380193875107260c1407ffffffff000000007b677801826700019777209879209567ff0795771901490782681001956a00107ba800f982681801956a00107ba808f99568ff07958801017b6948017b79f8330750208c047f94956700104927f8f8956700104927f0f8956800104928e0f8033307209568ff079588e100956900104929e8f850208e044d9433077001027b679801390770010233083fac7809502290043027140700000000ffffffff7b67300150229204ac273307800102837783993308407b678801330094040a08826a90013302960428e123826a900150229604da237bca407bc9387bc8307bc7289567ff079577c1009568402450209804c894956700108277c0f849264001330a82687801d287077b67280133090101330893a8956b000182b7287bb99000d897073309daa709492b80003307db78095209380b95690001829778829840d28707829838ae87240b956700104927b8f882671001956800107b87a0f882671801956800107b87a8f89568ff079588a10082674801956900107b97b0f8330750209a04459395670010492798f895670010492790f895670010492788f83307209568ff0795888100956a0010492a80f80250209c04139350229e045224ac78095022a00401265022a204e9213300a4040a083302a6042819205022a6041620956800107b8778f8956800107b8770f8956800107b8768f89568ff0795886182679001956900107b9760f833075020a804b89282675001956800107b8758f882675801956800107b8750f882676001956800107b8748f83307209568ff0795884182696801956a00107ba940f85020aa0478925022ac04b723ac78095022ae0441265022b004a4243300b2040a08826a68013302b404285f24826a68015022b4045824826870017b6960017b89187b6768017b87107b6b58017b8b087b6c50017b8c9567ff079577215020b6040e9395670010827728f895680010828830f895690010829920f88477ff8488ff826a3001d2a909d49808d4870751075902956c000182c850958702d8870882ca585022b8045f2482c868c88a0ad88a0882cb60c8b808956b182195bc00037bc7487bc9507bca587bc8609567ff07957701956860245020ba04959295670010827708f88477ff005207ff014926f807826710017b67e007826718017b67e8079568e007826748017b67f00733075020bc046b914926d8074926d0074926c8073307209568c0074926c007045020be044d915022c0048c22ac78095022c20416255022c40423203300c6040a083302c80428601f5022c8045d1f4926b8074926b0074926a8079568a007826708017b67a00733075020ca04059182675801956a00077ba79800826760017ba79000826768017ba7880033072095688007826970017ba980005020cc04d4905022ce041322ac78095022d0049d245022d204aa1f3300d4040a083302d60428da1d5022d604d71d7b6778077b6770077b67680795686007826790017b67600733075020d8048c9082675001956a00077ba758826758017ba750826760017ba74833072095684007826968017ba9405020da045f905022dc049e21ac78095022de0428245022e0048b223300e2040a08826a68013302e404283920826a68015022e4043220956720075020e604179182672007847705521701860082679001956900067b97c000826708017b97e00082671001956b00077bb7826880017b98c8008267e0007b97e800826718017bb7087b98d0008267e8007b97f000826700017bb7107b98d8008267f0007b97f800956700079568e0069569c006826af8007bba185020e804780895690001829740957701829878d287077b974001330a8267900195770182687801d2870928cffb3302ea0495691811014929980249299002140700000000f08982c97b97a0029568a0134929880233075020ec04568f82671801817756171f0c8268180148082001330701330904826810010a0d019569ff07959919014929d8064929d00614070000000059e962787b97e0069568ff079588e1074929c80633075020ee04058f390870010256181f12200370010220330880010228b5dc330880010228addc492640010195690001829768977701829840d487077b970149268001330a826748018268a800d287077b67e800140700000000ffffffff7b67e00033090101330893a88267e8007b695001d897073309daa709492640013307db7809510906283cee9569000182974882988000d28707829810ac87062825ee9569ff07959919014929600682673001959a00067ba748826738017ba7509568ff0795886107826708017ba75833075020f004388e9567ff0795771901492740064927380649273006647a3307209568ff0795884107492a2806025020f2040c8e5022f4044b1fac78095022f604fa209517e08477e07b6788015022f804ba193300fa040a0801826a880182a71882a81082a90882aa6f777b6778015022fc0477209517e08477e07b67880164719569ff079599190182674001959a00067ba7207ba7187ba7109568ff0795882107826750017ba70833075020fe048f8d826760019568ff07958819017b870006826768017b87f805826770017b87f005648a3307209568ff0795880107826978017ba9e80550200005548d50220205931eac7809502204051d219517e08477e07b677801502206050219330008050a08826a780133020a0528311f826a780150220a052a1f956a000182a888007ba9707b89187ba7787b87107bab687b8b087bac607b8c9567ff079577e10650200c05df8d9569ff0795991901959a000582a7d00082a8d80082a9c8008477ff8488ff826ae000d2a909d49808d48707510775956c000182c760957902d8790782c868c8780ad88a08da770882c778c8870bd87b0782c870c87808956718217bc988007b79c8047bca78957900047b9ad0007bcb707b9bd8007bc8687b98e0009567ff079577c1069568e02550200e05528d9567ff07957719018277b0058477ff00510716330a8267500195770182684801d287092896fd956718219569000182988800957a00047ba8e8008298787ba8f0008298707ba8f8008298687b7800059567ff079577a1069568002650201005f18c956aff0795aa190182a78805847bff8268b800d88b07db780b8262d0009372826cc800937c8268c00093780184b9ff82670001ae797fff7b697801956900017b98187b9c207b6228017b9b880082974882988000d28707829810ae8758ff492a80058267300195a900057b9768826738017b97709568ff0795888106826708017b9778330750201205748b9567ff0795771901492760054927580549275005647a3307209568ff0795886106492a48050450201405488b82689801818756173f08480840019517e08477e07b67700150221605f716330018050a0833021a0528521950221a054f199569ff07959919014929400549293805492930059568ff0795884106826778017b972805330750201c05eb8a50221e052a1f9589000550222005dd1995882106826970017ba9080550202205c98a82689801818756173f08480840019517e08477e07b677801502224057816330026050a083302280528661b50222805631b7b6770016f877b6768016f977b6760016fa77b67580150222a05a11c9569ff0795991901826740017b970005959a00047ba7f8007ba7f0009568ff0795880106826750017ba7e800330750202c05488a50222e05871e958900047b97e000826760017b97d800826768017b97d000648a3307209568ff079588e105826970017ba9c804502030050f8a82689801818756173f08480840019517e08477e07b67700150223205be15330034050a08826a70013302360528b318826a700150223605ac18826878017b8a187b89107b8b087b879567ff079577c10550203805ab8a956aff0795aa190182a7a8048477055217019b008267500195ac00047bc748826788017bc768826730017bc78800826840017bc850826718017bc770826738017bc790007bc858826720017bc7788267f8007bc798007bc860826728017bc780009567ff079577a1059568ff07958881059569ff0795996105826bf0007bcba00050203a05fe0195690001829b8800956aff0795aa190182978000957701829848d287077b9780002807826b8801013308330c330295b701847bff282bfd9569ff0795991901491938491930140700000000d94b11cf7b97409568ff0795884101491928330750203c05cd88390870010256181f122003700102203308800102287dd633088001022875d69569ff079599190149191849191014070000000059e962787b97209568ff0795882101491908330750203e058088390870010256181f1220037001022033088001022830d633088001022828d633078268880133090a0d2894e40a020182171082181814090000000001000000d37909d48909987a2088aa01948a939a510a248219821a087b697b6a087b67107b68189551c08210388215308216289511403200330880010283883307013309330042050a0d33024405289a1b50224405971b3308240a0201821718821810821908d4780a889b0194ab510b0d821a5022460557183200330880010283883307013309330048050a0d33024a0528571b50224a05541b33084433004c050a0233024e0528861950224e058319520b0b5022500517183200330880010283883307013309330052050a0d33025405282e1a502254052b1a330056050a0233025805284919502258054619520b0b50225a05da17320033088001028388330701330933005c050a0d019511c0f8951a00077ba0387ba5307ba628951540078411e0641682997b692882887b68308278107b68208278087b683882777b67408367c0050a09018262d8058263d0058267c805826bc0057b6b7868296838958a40db290a687968b8958840db7908958b8000d42309da9b0ad88b0c949c8ecb88a8f000858901dac90b88b4019540ff9ab49accc99c099aa8ef007b64a8008e4a8e0cda0a0c7b68b800888a000185aa018e98db980adbbc0a6474826778d42408d4370bd4b808888801d4a808647a948a5208e9028268b8008588ff00826ca800d4c808d4090bd4b8085108d002826bb80095ba017b6ab00088a801c898087b68a000d4a808888801c8c8087b689000d8c808c808087b6898009ab9ff007b6988009a99800064487b64707b62687b636050205e05861a7b6780007b68508267608268688269880050206005951a7b67487b68188268b8009a897f826778826870502062057c1a7b67107b68b80082698800889780007b6758826778826870502064055e1a826c58826b9000826a98008269a000d4a909826ab000d4ba0ad49a0a93c77b67a800510a0502826750826918d497078269b800dac907826268642a82638800db370a7b6ab80082678000826948d49707826910dac907826b6064badb370a7b6a800093c87b6888004916588051018267b00095798064b7642850206605b9197b67507b68188267788268708269b00050206805a3197b67107b68488268b0009a89800082676082686850206a05af19826948d49808826ab00088ab80007b6b48826918dab908826970dba8097b6970826810d48707826850dab807826878dba70864a97b687882676082686850206c054619330c82694893989397826a5895a9ff7b69508ea99599ff7b6948826370826478017b6c7898493f973a01d49a0c974a01826bb80098bb3fd4ba0a7b6a688269487b6c706434d3c903d8c902826b50d8ab0cdb320c978801987a3fd4a8087b6860984a3f977701d47a0a8267b800977701826b800098b83fd4870297b801826b880098b33fd4380397b801826ba80098b43fd4480897bb01826778d47b0b7b6ba80086887b68880086387b68800086277b67b800c9a907d8c707d8a908826260c9290bc98b0bc97b0b99bc3f826758d2c707826868c97804d87808826770c987039478c98a07d88a08c98208826ab0008260a000d40a09889901826b9000d89b02c99b0988ab01c9b000826b9800c92b0b95aaff7b60a0007b6b9800d4b0027b6ab000d49a0bd42b0a84cc017b699000520af2fe2805330c018267a800977701d47c0a01826730aea70d09826720977720987920492698058267407b6780058267387b678805956880057b69a0007b699005330750206e0556834926780549267005492660050233072095686005492668055020700538833308700102390770010256173f0b200370010240019517e08479e07b69a800649133078001027b677083777b68b00083993308407b67b800330072050a0833027405285111502274054e11826728977720987720492658054926500549264805956840057b6798007b674005330750207605c482826778956a00057ba738826780007ba730826788007ba72833072095682005826990007ba9205020780598828268b000818756173f0e48084033027a0528f71550227a05f41533007c050a0833027e0528b31250227e05b01295670005502080055383806704058268080582691005977720d49808d48707510717084926f8048267407b67e0048267387b67e8049568e0048267a0007b67f00433075020820522824926d8044926d0044926c004043307209568c0044926c8045020840504828268b000818756173f0e480840330286052894125022860591120a08826aa80082a71882a81082a90882aa6f777b67a8006f877b6790006f977b6788006fa77b6780004926b8044926b0044926a8049568a0048267307b67a004330750208805a28182678000956a00047ba79800826788007ba79000826790007ba78800330720956880048269a8007ba9800050208a0571818268b000818756173f0e48084033028c0528011250228c05fe1133008e050a083302900528a80f50229005a50f49267804492670044926680495686004826798007b6760043307502092052481826778956a00047ba758826780007ba750826788007ba74833072095684004826990007ba94050209405f8808268b00081875517400e48084033029605285714502296055414330098050a0833029a0528131150229a0510119567200450209c05b381826820048487015107ad068487045207ce067b6890008487fb007b6788009567e0038268a80050209e0587818267e0038268e8038269f003826af803847700ff826b8800d4b707957704956b00057bbaf8007bb9f0007bb8e8007bb7e0009568e0058267a8005020a005c8814926d8038267a0007b67d0038267387b67c8039568c0038267407b67c00333075020a2052f804926b8034926b0034926a003013307209568a0034926a8035020a40511808269b000819756173f0e4809403302a60528a1105022a6059e100a08826aa80082a782a80882a91082aa186f726f8c6f996faa9517e08478e07b68a80064817b6a6895a701887a017b6978c8a90bd4b709889901c8c9097b6c8000d8c90a7b628800c82a0a7b8b087b877b89107b8a18956780035020a805898095690003829780003a0818010282629803829a8800829b9000c87808d87807c87a0c95ccffd3ac09d8ac0ada970a95b7ffc87a0ad87a0788b901c99209c89707956900067b987b9c087b9a107b9718956800068267a8005020aa05ad808267900084770252073a034926380649263006492628064926200695678002956820065020ac050380956c000282c780003a0b2001027b6ba80082c8980082c9880082ca90005022ae057110492658064926500649264806492640067b6b60067b6c68067b6970067b67780695674006956860065020b00533805020b2052c7dff3a08a001037b6890003a08b001037b6888003a07a801037b6780000a0a826880006f88978920826a88006faa98aa20d4a909988820826a90006faa330b80010397ac20d4c80898aa203d0a9001033e088801033e098001034926980649269006492688068268a800956900067b9880004826a0068e77fc089a787b98d8007b98d0007b98c8007b98c00097bb2098bb20977723d4b707956880069788209888209569c006979920d4890a826b7097bb2098bb209568a006978820d4b80c3308ff3309ff0a7b6790000a0c01510718010a0c647949265802492650024926480295676002956840027b6988007b6940025020b405ca05826960028267680282687002826a78027b6a18027b6810027b67080295672002956800027b6900025020b6052904956b000282b83882ba3082b72882b9207b6780007b6878d48707d4a908d478089888207b6a70d4a707977720d487075207ea024926f8014926f0014926e8019568e001826788007b67e00164977b6988005020b8053f7dff0a0c01826a8800826878826970d498081409e0ffffff00000000d89a09826b800094b9948951099c0264789877205207930283a72064897b68800083887b68880064985020ba054381826880007a68e00683778368e00633090a0b018167e00682688800ac875d0282679000520715039567a0013308405020bc05877bff956b000182b7b80082b8b00082b9a80082baa0005022be05c40b52072902492698014926900149268801956880018267a8007b67800164a77b6ab8005020c0057e7cff4926180149261001492608018267307b670001492638014926300149262801826798007b672001492658018267a0007b6750018267387b6748013a074801023a085001023a09580102826a407b6a40017b6778017b6870017b6968013a0760010233082095696001956a4001956b2001956c00017b6760018267b8003300ce0528427fff9517e0847ce064c1826868958702d88708826a785022c205670e82688000c88a0ad88a08826b8800c88b0b64c87b6cb8007bc9087bc77bca107bcb18956760035020c405a57cff826760033a0b2001028268780382696803826a70037b6bb0005022c605160d956800077b8b7b8c087b89107b8718956800078267b8005020c805e97cff956740033308405020ca052e7aff956b000382ba5882b85082b94882b740d49a0ad48709d4a909989920d4a808978820d498085208c500492638034926300349262803956820038269b0007b6920037b67b8005020cc051c7bff4926b8024926b0024926a802826730956b00027bb7a0004926d8024926d0024926c802826798007bb7c0004926f8028267a0007bb7f0008267387bb7e8003a072801023a083001023a09380102826a407bbae0007b6718037b6810037b6908033a0740010233082095690003956ae002956bc002956ca0027b6700038267b8005020ce05e07dff9551c0f895170007827038827530827628951140073200004926b0054926a8054926a005140700000000d94b11cf9568a0057b67b80533075020d005567aff390870010256181f0b20037001022001330880010283883307013309040a0d014926d0004926c8004926c0001407000000006d53a9a79568c0007b67d80033073300d205280b7aff4926f0004926e8004926e000140700000000b6e2a4af9568e0007b67f80033073300d20528e379ff49261004492608044926000414070000000000f90f56956800047b67180433073300d20528bb79ff4926d0014926c8014926c00114070000000018ecb8909568c0017b67d80133075020d2059779ff8267b000817756171f0c8268b000480820013307013309048268b8003300d4050a0d01951130ff7b10c8007b15c0007b16b8009515d0008411f08289187b19108289107b19088289087b1982867b1728951790003308405020d605ff77ff821898008219900095671fd86700821ac80a0b8477e0c8b803c879027b1920d8920cc8c303d383067b1818d88309da6c098214a800d8ab0b8216a000da000b821708c87b0bd87b0cc86b0bc89b0a821710c84707c8c707d8ba0cd86b0bc8b707c8c70b8eb78eacdbb70cd4ba078e38db7c08520866d86a07d34b08d84b0cda870cd36a07d48707db7c0952094e7b12707b13787b1a80003307409518707b1b88007b14105020d8058e78ff8217288218107b78187b76108218187b78088218207b78955130ff8210c8008215c0008216b8009511d0003200491160491158491150140700000000717b484e9518507b176833075020da053f78ff491148491140491130413307049518304911385020dc052578ff390870010256183f0b20037001024001330880010283883307013309243300de050a0d01828a18828b108282088eac8eb9dbac09d4ba0a8e2bdba90b520b30828895891fd88908c828088488018499e0959a20d89a09c8980bd88b08da99084917187b7a7b7b087b781032009511b07b10487b15409515508411f0491130491128491120140700000000717b484e9518207b173833075020e0058877ff49111849111049014133070464184911085020e2057077ff390870010256183f0b20037001024001330880010283883307013309243300e4050a0d01951180fe7b1078017b1570017b166801951580018411e082897b19388289087b19308289107b19288288187b182082787b18188278107b18108276080a0a6f68978920821a106faa98aa20d4a909988820821a186faa330b80010397ac20d4c80898aa203d0a9001033e088801033e098001038218207b1818018218287b1810018218307b1808018218387b180001482120018e77fc089a787b1858017b1850017b1848017b18400197bb2098bb20977723d4b70795180001978820988820330b80010295194001979920d4890a7b1b1897bb2098bb2095182001978820d4b80c3308ff3309ff0a64760a0c015107ff007b16200a0c64794921d8004921d0004921c8009517e0009518c0007b19387b19c0005020e60538fe8219e0008217e8008218f000821af8007b1a98007b1890007b1788009517a000951880007b1980005020e80597fc8218b8008216b0008217a8008219a0007b17307b1828d48707d46908d47808988820d46707977720d48707520793004911784911704911689518608217387b176064977b19385020ea05b875ff0a0c01821a38821828d468081409e0ffffff00000000d89a09821b3094b99489510951647698772052074983a72083687b183864685020ec05ca79ff7a16600183778318600133090a0b0181176001821620821838ac871c52061a955180fe8210780182157001821668019511800132000049115049114849114014070000000018ecb8909518407b175833075020ee052475ff390870010256181f0b200370010220018118183307013309040a0d33073300f005287f79ff33075020f0057979ff3307015020f2056f79ff82970881981082996f77977a206f88988820d48a0a9877206f98978920d497079888209569181132028269500182970881981082996f77977a206f88988820d48a0a9877206f98978920d497079888209569ff079599190132027b676801c9a007d8c707d8a008826c3801c9c00bc98b0bc97b0b99b03f82673001d2700782684001c97804d87808c989039498c98a077b674801d88a08c98c0895670001827a9800827c9000d4ca09889901827b800032026471837933084082679001320282970881981082996f7a97a7206f889888203202da980782695001649a649882696001db970a7b6a680182674801826a3001d4a707826a2001daca07826b580164badb970a7b6a60018267700193c77b677001492630018051018267980195798064b732028269e80082970881981082996f77977a206f88988820d48a0a9877206f98978920d497079888209569181932029517e08477e07b679001647183793308408267100132028269800182970881981082996f77977a206f88988820d48a0a9877206f98978920d4970798882032029598017b689801888701c8a7077b679001d48707887701c837077b678001d83707c807077b6788019a98ff007b6860019a89800082674001826838013202826a800182a71882a81082a90882aa6f777b6770016f877b6768016f977b6760016fa77b6758019517e08477e07b67800164719569ff0795991901826778013202826a700182a71882a81082a90882aa6f777b6768016f877b6760016f977b6758016fa77b6750019517e08477e07b6770016471826780013202d8ab0ac8a90cd89c09daaa09c88909d88908c887073202826a900182a71882a81082a90882aa6f777b6790016f877b6788016f977b6780016fa77b67780133071811c87609320282644001826338014926580149265001956b000182b928939893977bb74882ba3095a9ff7bb9288ea99599ff7bb920320282a71882a81082a90882aa6f777b6788016f877b6780016f977b6778016fa77b6770019517e08477e03202956b000182b9800082970881981082996f77977a206f88988820d48a0a9877206f98978920d4970798882082b998003202826a700182a71882a81082a90882aa6f777b6770016f877b6768016f977b6760016fa77b6758013202826aa80082a71882a81082a90882aa6f777b6790006f877b6788006f977b6780006fa77b67789517e08477e07b67a80064713202826a900182a71882a81082a90882aa6f776f8b6f996faa826898017b8a187b89107b8b087b8733070020320282a71882a81082a90882aa6f776f886f996faa320282a71882a81082a90882aa6f776f8b6f996faa32029517e08477e07b677001647183793308408267880132027b9720826760017b9718826768017b9710648a3307209568ff073202d49707d48a09d47909989920d48707977720d497073202330b330c8269280193989397826a380195a9ff7b6930018ea99599ff7b692801320298493f973a01d4a909974a0182646801984b3fd4ba0a7b6a4001826020016437d390033202978801826b480198ba3fd4a8087b683801987a3f97b701d47a0a974701826b600198b83f320282692801d4980882699801889a80007b6a2801826b2001daab08826b3801db980b7b6b38013202826a880182a71882a81082a90882aa6f776f886f996faa956b1821320282a71882a81082a90882aa6f776f886f996faa956b182195bc0003320282a71882a81082a90882aa6f776f8b6f996faa826870017b8a187b89107b8b087b873202956c00017bc898007bca9000d48a077bc9787bcb8800d49b08d487073202826a900082a71882a81082a90882aa6f776f8b6f996faa8268a8007b8a187b89107b8b087b8732027b6a600193b87b686801492638018051018267900195798064c7643832027b6a7b69087b68107b67189551c082103882153082162895114032029517e08477e07b67a800647183793308408267b800320233071821c8760a95ab00053202826a780182a71882a81082a90882aa6f773202826a5001c9a707826a8801826b6001c9ab0a956b182195bc00023202d4870782684801daa80782684001db97087b6840018267580182685001320282ab7b1b1882ab087b1b2082ab107b1b2882aa187b1a308296829a087b1a829a107b1a088299187b1910320282679801817733083f3202826a900182a782a80882a91082aa186f776f886f996faa32027b6710017b682801826890019a89800082675001826840013202c87b0bd87b07c8790cd89c09da7709c8a909d8a907c88707320282b77882b8800082b97082ba68d49808d4a707d48707320282692801d49808826a900188ab80007b6b280182691801dab9083202d88a08c98c0895670001827a8800827c8000d4ca09889901827b703202821718821810821908821ad4790bd48a0cd4bc0c98cc20d48b0b97bb20d4cb0b320282a71882a81082a90882aa6f7c6f8b6f976fa932029517e08477e07b677801647132029517e08477e07b679801647132029517e08477e07b676801647183793308408267880132028267980182692801d4970782691001dab90782634001643a32027b682801826898019a89800082675801826850013202c88a09d8a90ada880a32027b6730017b68280182676001957980826740018268380132026f877b6770016f977b6768016fa77b67600132029511c07b10387b15307b16289515408411e064768317330804320282970881981082996f77977a206f88988820d4a80832028267980181773308233202330740826898017a873202956b00017bb86082b8800082b978d4890982b8880082ba70d4a808d498083202956b00017bb87082b8900082b98800d4890982b8980082ba8000d4a808d4980832027b6748017b68200182674001826838018269980132027b6748017b68680182675801826850018269600132029517e08477e07b679000647183793308408267b80032029517e08479e07b699001649132029517e08479e07b699801649132029511c07b10387b15307b16289515408411e064768317320282b73882b84082b93082ba28d49808d4a707d487073202826798013308407a78320283771801c8760a95ab0002320233071819c8760a95ab0002320233071821c8760a95ab000132028597ff00d43707d40a08d4870732027b6718017b68100182696801889780007b67380132027b6760017b6898018267500182684001826968013202826758019568ff07958819013202826a900182608001d40a09889901826b70013202c97804d87808c989039498c98a073202849a40520a195109148d9a40cfa80ad09808d09707d4a707320032009597c0d0780733083200849a40520a195109148d9a40d0a70acf9707cf9808d4a808320032009598c0cf870833073200490a21a11a4292d210a1925429a42449922449922449922449922449922449922449922449922449922449922449aa9294529294942454a5242549922449922449922449922449922449922449922449499294a4aa24254994a492a42a494992922425294955559292a42495244544444a9224254952a1524a4992524a4952491111514444a424491224944a4a4a8a142952a448912245498a8888222222254992922449905054a4489122458a142952a4489122458a14255244449424094248184a93d2900811119188886844449208491289281211a250354484880092a4129124492209494892244992a124948492a4004a21443094b442552224490821a442952a8d8888481111242284089188d288402220904002092420202090888888940892244912452221222249922449424444442422222245228220099288a411491224218a94082222a210111211922884084612854aa44844102122229248249288444a92241249120992444488940822111111111111222122228224222222228a1029121124258910428848922422221211119146444424498224228d88484a22a224912412492a494434222292928824928824499248229224519248922449924892489244924a4a92244491921091440a8911a14484208424180144102a911241122222492492880811118988442211491211221a111151492591a422492a11954849a44892a82422499248224924111151044120221211084404222212499194888888684420092411694444242511118d8888a8a4924852912495884aa424229124954424494a2491249288882202814044242210880844442492222911111151444420222249124822128d88880892104514092222a22022242248a210221849142a118d925425889244101111492412494422254912892489041111114144912012111111111141248824054944444444144144118920294984104244444424222212452222221a11114992104514092222220a2222948820082109221241a844140922414444444404111111d1882412892449229124492449244992284912412488884422111111118d48a2489224894892481229882822112425099110429224894804452590888888281204491489041111111111114444a2489224092144444444142422111111512488884892449188221249128948101111411251a2448912492a92a4125129224992a49288489244228924124944444410111141442422888888882048498a4891a84844241225a208440a22222288888808221111894424128988202222524952324922892889249144924492481249221189442249244924820892244924912489484444441409822448222211111111051121114110222112844a91a4a2288a48520411111111914422229148241211414444444424114412898888880822918824824424912222222222888804111191244992888888882822228848124000894a121111111111114422925492884422110922024894924812111141445054222222a24890244992208948342292044988228a4804111151103122948820894288602451a84491a4aa4852529224495222828888882412892422919224894492442211898888880822828888884492249148922422222222880411498224128944a408228a48044949422484902449221241518988886844442449a2484444441031222222222212448c4892244992884824129122484482484424122508222222088220129148a4880882889124914414299124892491481249224924128944924892482491920449124944224914914c24218a281244241129888808252282240a218248102a124592aa221289441145828888882888880825228228328008209208a2884410111111414411114992a42412894456a4948888281244241129888888121182283289208a0491242252104410114114994410452482485292244944444444041111894592880822222292489288224144444414444444890841149944108d241541444444441444442412291111411499441045824812112908228888208a4c22882212412429228888444404111111112a29492249929024499224894892882089229148141144448888888888244992882489082291888820222222228888888888888848229224224844828888244992248948444444111141442401242a8948222222228288221241529210424444448488888828111111119120121189440982888808822088442412292282206224492411454a24492249249244924812894422912492241249a4244192441291481245242312444444548a249124928824894444222282884844922449c48848242205d1880012a524924a494a928848221144444444444404114912111111414444449224492222222222222288442480a49288281241118d884822491249449224914a1211111104104044a2942422128944442288444452492222222241440089521211111109228a04111111051123428908a2c800924425a291a4a2288a2022222222a220121189448988208a4ca21245924a29259214114444222288489224492422924404114144229188082222124922492222222282a4244992248944228922828888884892244922228888884a4a924492884810232222499224494992482a25251215492411918844221205514426518922499224924492a4525449124922924812499224919244124992244aaa9224924422499288244992a4188924914892248a442289888828884822492491922449242211118944225290442948a24aa188884852555491481a11492422894824225124224924492449922411114144444444444404914492482291482492482211492489241291522222a2449224111191888824491249922449922489082212894422928824884822888844240922221149121589442251444444902449924892449244224900492a221144444422494c924492442489442292202292041191882441442422498a2291482492244922496212242549902489a4448288444410111191241141240822229214114110111191882411414491202222a22062442811411045265189281224889244109148440441922449221111111144828824898824892411111122888804900022518a4844444444440491481445442292248900229228452482221a914424492212912449221589888808228a4804494922911022424444848888884822222288041123499224490ca5124a25944a2895880820a220441012121101441409a5124a25944a2895502aa154224911408ca42062891289845209a5124a25944a2895880820a2204410121211014414442192502a1111404414840842422222228018890a2246841211441199443420222222a2481011912442a9845209a5124a25944a2895502aa15442a94444041011052182909088880820a282282293682895502a111101444414840842429204102988244a248822328946440011511022088525d14044444444912022224984520988888888684410a1546224322222224804a54a8d88082046a220225122918888228018898288082522524414119128225108a51285502a011111111145822042a904114a2522121111111111118988888888888844248924892449924824121191205425221211119188085144118920228914448c082522081192482408958822124114494444441444444444948808a28844822822114492228a480491228988204644922422914892886844444454524924a948924a542225118948928a0822088220082222222208a244112982200822088208822048244112492249242291489024914424922422121011111151442288884812a1548208a51211898810451491082222220a22468412118408112451a8441409a2288a2092888888288888442225228220411241149108224911452482489144441023224912499224898822124144444441c488502282204112411409a2288a881111110511111111252282204112415192aaa42449929444041111112302888822112302888822319224464444118920228914448c08252288221209a248101111511011111151222288221209a24890202249228288881811404414894044444434228850aa50aa52a3108a884412914405112111418810411285a844912092242288888888200a11118948c4880022a2208ac8241a404424918888888820a288441091440a224684121104418224826894a42a41942482884822228848444424222222228828221124258988104244448488888888880a8a4ac4880022a24844118920228914448c08252288221209a24810111151101189444a440451442241149108a2881111110511111111252282282293a8441491082249114424224604101145a21012119188888888888888444424128988884424221a111111955412492a92a412954849442292a40822088220082222222208a2441129822008220882088220482441124922492422914890249144249224229288880822481211494492440411452482a4241111111121444484101191a48888a8a0a8444422229148242222119148241211918848924422928888888888888288885022220811220820922854228a041111111141444444232222a2924a2249459254a21229894844925444108924924412111111444444101189082222222208a24411291215898844a244148148414444041111114124222291884422111144444445244a4c9248224a2249249124912492449248442291481249128920822449124924492212239111912445114044125144444444a42022224222228210210902882054228a480449121141441489ac48a444894892888888888888888288888844440882044114092222222211511011111111894444102408a28844109148248a041111114924894892204912912491082222222222220a222211822041104582888888828888884844044182208a041111110511894412912048104411892082488888888822222211118988888804912459249288110144444114914934222280888882104148488c246914910820b22252a224914892888848242252101111252204418224826824a908922822224944a420222222a2444404418224822822114424499222828888882492249224499224221291484444101191229144444422918888202212491445131191442492888844222205111151224210452611449120222222220a8208222288229308a2481045510411111111115110444444948888208a4c228822124124292288888488442222918844221211111111114444449228564922920012918210414848441240225210220809292a4d0248924a294992a4508a22419a242905855214091245820485521409a24890a0508a462489544a92946844442aa9249254244925a21291929224a988882411892492441211519220924490449220119124484424922292445224224952a20822152449044944122411499224495292a0549292649224922425499224492492449248924451144992244992a4241149244924118924113592892491484444414448441042049328a428114582241111110589442289481045224114092288882411894444144484440451241214492a8aa288884814444444442222882291208a04111111058944228948104522411409228844222222828888882422222282884844a220222422882291a028495512254992442229892022444492244992244a1211442222222288081111414444444444100811224451a2245148124288888888282222492289244924c96854444444041111111111412449244992242222228a40234900898a12298a8288a24644442410111141444444148188484444444424420889880889888888484a9220924891920844888808a2241181482092244992444444440422221111111111891042222242222222021149a2111140448110c150d2880820a288880820a288880820a288880820a2401491494423222249924a24109194244992241249922449924a4a922449924822812449524444942480a4401249022182a1249aa49292922449929494244912405220494a204430944423222225499292a49292a49024849048241211454424492421922491246ba42222221144444444440411114992248924494aa04902482a252905a2a891241111d12401240542049354448104924a494a124552294949228a24912491485222898824aa4449a594a84844241225a208442a924a494a1225518922a994a424259248124944444491a4a2288a248a882249455114491425499222494551149122222295242525a9288a222922a994a4245124a9288aa24852511425898a24554592a2245595a4aa92a84489444a942449aaa848942849228928259248924891888844a248525594a4aa88925415492a2292488a245545928a2210a94a922429894a1489224915894844894422a292244929498a5294a4aa8888889224494a24498a4444a424229294a424495292aa4aa292a8242a5144225111115192222211154551922495924a49514a54249248522422114911115144449444254aa292a82449aa244952a42251248a4491a488882822228a8822922849294992a4924a9224a9a40000"},"methodIdentifiers":{"STAKE_PER_DAY()":"4a91f7ae","archiveHabit(uint32)":"b650673a","checkIn(uint32,uint64)":"a0145927","claim(uint256)":"379607f5","createHabit(string)":"b683ace1","deposit()":"d0e30db0","epochNow()":"222ae786","forceSettleAllEpochs(address,uint64,uint32)":"494bc62d","prepareDay(uint64)":"48cc36b8","redepositFromClaimable(uint256)":"8f23d36c","settle(address,uint64,uint32)":"9c14eb6e","settleAll(address,uint64,uint32)":"45123cce","totalTreasuryReceived()":"badf162d","treasury()":"61d027b3","userHabitCounters(address)":"0e08454a","userStates(address)":"0ecc535f","withdraw(uint256)":"2e1a7d4d"}},"hash":"fb1461246427e4c81e5e5399076d7bd3c17855bf4934a32e72c41d824dd31d89","factoryDependencies":{}}}}