{"contracts/HabitTracker.sol":{"HabitTracker":{"abi":[{"inputs":[{"internalType":"address","name":"_treasury","type":"address"}],"stateMutability":"nonpayable","type":"constructor"},{"inputs":[],"name":"AlreadyCheckedIn","type":"error"},{"inputs":[],"name":"AlreadySettled","type":"error"},{"inputs":[],"name":"CannotSettleCurrentDay","type":"error"},{"inputs":[],"name":"DayNotFunded","type":"error"},{"inputs":[],"name":"HabitAlreadyArchived","type":"error"},{"inputs":[],"name":"HabitNotFound","type":"error"},{"inputs":[],"name":"HabitTextTooLong","type":"error"},{"inputs":[],"name":"HabitTextTooShort","type":"error"},{"inputs":[],"name":"InsufficientBalance","type":"error"},{"inputs":[],"name":"InvalidAmount","type":"error"},{"inputs":[],"name":"InvalidBatchSize","type":"error"},{"inputs":[],"name":"InvalidEpoch","type":"error"},{"inputs":[],"name":"InvalidTreasury","type":"error"},{"inputs":[],"name":"NotHabitOwner","type":"error"},{"inputs":[],"name":"TransferFailed","type":"error"},{"anonymous":false,"inputs":[{"indexed":true,"internalType":"address","name":"user","type":"address"},{"indexed":true,"internalType":"uint32","name":"habitId","type":"uint32"},{"indexed":true,"internalType":"uint64","name":"epoch","type":"uint64"}],"name":"CheckedIn","type":"event"},{"anonymous":false,"inputs":[{"indexed":true,"internalType":"address","name":"user","type":"address"},{"indexed":false,"internalType":"uint256","name":"amount","type":"uint256"}],"name":"Claimed","type":"event"},{"anonymous":false,"inputs":[{"indexed":true,"internalType":"address","name":"user","type":"address"},{"indexed":true,"internalType":"uint64","name":"epoch","type":"uint64"},{"indexed":false,"internalType":"uint32","name":"fundedCount","type":"uint32"},{"indexed":false,"internalType":"uint32","name":"insufficientCount","type":"uint32"}],"name":"DayPrepared","type":"event"},{"anonymous":false,"inputs":[{"indexed":true,"internalType":"address","name":"user","type":"address"},{"indexed":false,"internalType":"uint256","name":"amount","type":"uint256"}],"name":"Deposited","type":"event"},{"anonymous":false,"inputs":[{"indexed":true,"internalType":"address","name":"user","type":"address"},{"indexed":true,"internalType":"uint32","name":"habitId","type":"uint32"}],"name":"HabitArchived","type":"event"},{"anonymous":false,"inputs":[{"indexed":true,"internalType":"address","name":"user","type":"address"},{"indexed":true,"internalType":"uint32","name":"habitId","type":"uint32"},{"indexed":false,"internalType":"string","name":"text","type":"string"}],"name":"HabitCreated","type":"event"},{"anonymous":false,"inputs":[{"indexed":true,"internalType":"address","name":"user","type":"address"},{"indexed":false,"internalType":"uint256","name":"amount","type":"uint256"}],"name":"RedepositedFromClaimable","type":"event"},{"anonymous":false,"inputs":[{"indexed":true,"internalType":"address","name":"user","type":"address"},{"indexed":true,"internalType":"uint32","name":"habitId","type":"uint32"},{"indexed":true,"internalType":"uint64","name":"epoch","type":"uint64"},{"indexed":false,"internalType":"uint256","name":"slashed","type":"uint256"}],"name":"SettledFail","type":"event"},{"anonymous":false,"inputs":[{"indexed":true,"internalType":"address","name":"user","type":"address"},{"indexed":true,"internalType":"uint32","name":"habitId","type":"uint32"},{"indexed":true,"internalType":"uint64","name":"epoch","type":"uint64"},{"indexed":false,"internalType":"uint256","name":"reward","type":"uint256"}],"name":"SettledSuccess","type":"event"},{"anonymous":false,"inputs":[{"indexed":true,"internalType":"address","name":"user","type":"address"},{"indexed":false,"internalType":"uint256","name":"amount","type":"uint256"}],"name":"Withdrawn","type":"event"},{"inputs":[],"name":"STAKE_PER_DAY","outputs":[{"internalType":"uint256","name":"","type":"uint256"}],"stateMutability":"view","type":"function"},{"inputs":[{"internalType":"uint32","name":"habitId","type":"uint32"}],"name":"archiveHabit","outputs":[],"stateMutability":"nonpayable","type":"function"},{"inputs":[{"internalType":"uint32","name":"habitId","type":"uint32"},{"internalType":"uint64","name":"epoch","type":"uint64"}],"name":"checkIn","outputs":[],"stateMutability":"nonpayable","type":"function"},{"inputs":[{"internalType":"uint256","name":"amount","type":"uint256"}],"name":"claim","outputs":[],"stateMutability":"nonpayable","type":"function"},{"inputs":[{"internalType":"string","name":"text","type":"string"}],"name":"createHabit","outputs":[{"internalType":"uint32","name":"","type":"uint32"}],"stateMutability":"nonpayable","type":"function"},{"inputs":[{"internalType":"address","name":"","type":"address"},{"internalType":"uint64","name":"","type":"uint64"},{"internalType":"uint32","name":"","type":"uint32"}],"name":"dailyStatuses","outputs":[{"internalType":"bool","name":"funded","type":"bool"},{"internalType":"bool","name":"checked","type":"bool"},{"internalType":"bool","name":"settled","type":"bool"}],"stateMutability":"view","type":"function"},{"inputs":[],"name":"deposit","outputs":[],"stateMutability":"payable","type":"function"},{"inputs":[],"name":"epochNow","outputs":[{"internalType":"uint64","name":"","type":"uint64"}],"stateMutability":"view","type":"function"},{"inputs":[{"internalType":"address","name":"","type":"address"},{"internalType":"uint32","name":"","type":"uint32"}],"name":"habits","outputs":[{"internalType":"uint32","name":"id","type":"uint32"},{"internalType":"address","name":"owner","type":"address"},{"internalType":"string","name":"text","type":"string"},{"internalType":"uint64","name":"createdAtEpoch","type":"uint64"},{"internalType":"bool","name":"archived","type":"bool"}],"stateMutability":"view","type":"function"},{"inputs":[{"internalType":"uint64","name":"epoch","type":"uint64"}],"name":"prepareDay","outputs":[],"stateMutability":"nonpayable","type":"function"},{"inputs":[{"internalType":"uint256","name":"amount","type":"uint256"}],"name":"redepositFromClaimable","outputs":[],"stateMutability":"nonpayable","type":"function"},{"inputs":[{"internalType":"address","name":"user","type":"address"},{"internalType":"uint64","name":"epoch","type":"uint64"},{"internalType":"uint32","name":"habitId","type":"uint32"}],"name":"settle","outputs":[],"stateMutability":"nonpayable","type":"function"},{"inputs":[{"internalType":"address","name":"user","type":"address"},{"internalType":"uint64","name":"epoch","type":"uint64"},{"internalType":"uint32","name":"maxCount","type":"uint32"}],"name":"settleAll","outputs":[],"stateMutability":"nonpayable","type":"function"},{"inputs":[],"name":"totalTreasuryReceived","outputs":[{"internalType":"uint256","name":"","type":"uint256"}],"stateMutability":"view","type":"function"},{"inputs":[],"name":"treasury","outputs":[{"internalType":"address","name":"","type":"address"}],"stateMutability":"view","type":"function"},{"inputs":[{"internalType":"address","name":"","type":"address"}],"name":"userHabitCounters","outputs":[{"internalType":"uint32","name":"","type":"uint32"}],"stateMutability":"view","type":"function"},{"inputs":[{"internalType":"address","name":"","type":"address"}],"name":"userStates","outputs":[{"internalType":"uint256","name":"depositBalance","type":"uint256"},{"internalType":"uint256","name":"blockedBalance","type":"uint256"},{"internalType":"uint256","name":"claimableBalance","type":"uint256"},{"internalType":"uint32","name":"activeHabitCount","type":"uint32"}],"stateMutability":"view","type":"function"},{"inputs":[{"internalType":"uint256","name":"amount","type":"uint256"}],"name":"withdraw","outputs":[],"stateMutability":"nonpayable","type":"function"}],"evm":{"assembly":"// RO data = 0/0 bytes\n// RW data = 380/66000 bytes\n// Stack size = 32768 bytes\n\n// Instructions = 11705\n// Code size = 41391 bytes\n\n      : @0 (gas: 1)\n     0: jump @14 if a0 == a1\n      : @1 (gas: 9)\n     3: a3 = a1 << 0x20\n     6: a3 = a3 >> 0x20\n     9: a4 = a0 << 0x20\n    12: a4 = a4 >> 0x20\n    15: a4 = a4 + a2\n    18: a3 = a3 - a4\n    21: a4 = a2 << 0x1\n    24: a4 = -a4\n    26: jump @7 if a4 >=u a3\n      : @2 (gas: 1)\n    29: jump @11 if a0 >=u a1\n      : @3 (gas: 1)\n    32: jump @14 if a2 == 0\n      : @4 (gas: 3)\n    35: a2 = a2 + a0\n    38: a3 = a0\n    40: fallthrough\n      : @5 (gas: 6)\n    41: a4 = u8 [a1]\n    43: a1 = a1 + 0x1\n    46: a5 = a3 + 0x1\n    49: u8 [a3] = a4\n    51: a3 = a5\n    53: jump @5 if a5 != a2\n      : @6 (gas: 1)\n    56: jump @14\n      : @7 (gas: 1)\n    58: jump @14 if a2 == 0\n      : @8 (gas: 3)\n    61: a2 = a2 + a0\n    64: a3 = a0\n    66: fallthrough\n      : @9 (gas: 6)\n    67: a4 = u8 [a1]\n    69: a1 = a1 + 0x1\n    72: a5 = a3 + 0x1\n    75: u8 [a3] = a4\n    77: a3 = a5\n    79: jump @9 if a5 != a2\n      : @10 (gas: 1)\n    82: jump @14\n      : @11 (gas: 1)\n    84: jump @14 if a2 == 0\n      : @12 (gas: 2)\n    87: i32 a3 = a2 + 0xffffffffffffffff\n    90: fallthrough\n      : @13 (gas: 7)\n    91: a4 = a1 + a3\n    94: a4 = u8 [a4]\n    96: a2 = a2 + 0xffffffffffffffff\n    99: a5 = a0 + a3\n   102: u8 [a5] = a4\n   104: i32 a3 = a3 + 0xffffffffffffffff\n   107: jump @13 if a2 != 0\n      : @14 (gas: 1)\n   110: ret\n      : @15 (gas: 7)\n   112: sp = sp + 0xffffffffffffffe8\n   115: u64 [sp + 0x10] = ra\n   118: u64 [sp + 0x8] = s0\n   121: u64 [sp] = s1\n   123: s1 = 0x20178\n   128: s0 = i32 [0x20178]\n   133: jump @18 if s0 == 0\n      : @16 (gas: 5)\n   136: a0 = 0x301b0\n   141: i32 a0 = a0 + 0\n   143: i32 a1 = s1 + 0\n   145: ecalli 6 // 'get_immutable_data'\n   147: fallthrough\n      : @17 (gas: 3)\n   148: a0 = i32 [0x20178]\n   153: u32 [0x20178] = 0\n   158: jump @19 if a0 <u s0\n      : @18 (gas: 5)\n   161: ra = u64 [sp + 0x10]\n   164: s0 = u64 [sp + 0x8]\n   167: s1 = u64 [sp]\n   169: sp = sp + 0x18\n   172: ret\n      : @19 (gas: 1)\n   174: trap\n      : @20 (gas: 2)\n   175: a1 = i32 [0x20178]\n   180: jump @70 if a1 == 0\n      : @21 (gas: 4)\n   184: a0 = 0x301b0\n   189: i32 a0 = a0 + 0\n   191: ecalli 14 // 'set_immutable_data'\n   193: jump @70\n      : @22 (gas: 8)\n   196: sp = sp + 0xfffffffffffffff0\n   199: u64 [sp + 0x8] = ra\n   202: u64 [sp] = s0\n   204: a2 = a1\n   206: s0 = a0\n   208: a1 = 0x20\n   211: a0 = a2\n   213: ra = 2, jump @37\n      : @23 [@dyn 1] (gas: 100)\n   218: a1 = u8 [a0 + 0x1]\n   221: a2 = u8 [a0]\n   223: a3 = u8 [a0 + 0x2]\n   226: a4 = u8 [a0 + 0x3]\n   229: a1 = a1 << 0x8\n   232: a1 = a1 | a2\n   235: a3 = a3 << 0x10\n   238: a4 = a4 << 0x18\n   241: a3 = a3 | a4\n   244: a1 = a1 | a3\n   247: a2 = u8 [a0 + 0x5]\n   250: a3 = u8 [a0 + 0x4]\n   253: a4 = u8 [a0 + 0x6]\n   256: a5 = u8 [a0 + 0x7]\n   259: a2 = a2 << 0x8\n   262: a2 = a2 | a3\n   265: a4 = a4 << 0x10\n   268: a5 = a5 << 0x18\n   271: a4 = a4 | a5\n   274: a2 = a2 | a4\n   277: a2 = a2 << 0x20\n   280: t0 = a2 | a1\n   283: a2 = u8 [a0 + 0x9]\n   286: a3 = u8 [a0 + 0x8]\n   289: a4 = u8 [a0 + 0xa]\n   292: a5 = u8 [a0 + 0xb]\n   295: a2 = a2 << 0x8\n   298: a2 = a2 | a3\n   301: a4 = a4 << 0x10\n   304: a5 = a5 << 0x18\n   307: a4 = a4 | a5\n   310: a2 = a2 | a4\n   313: a3 = u8 [a0 + 0xd]\n   316: a4 = u8 [a0 + 0xc]\n   319: a5 = u8 [a0 + 0xe]\n   322: a1 = u8 [a0 + 0xf]\n   325: a3 = a3 << 0x8\n   328: a3 = a3 | a4\n   331: a5 = a5 << 0x10\n   334: a1 = a1 << 0x18\n   337: a1 = a1 | a5\n   340: a1 = a1 | a3\n   343: a1 = a1 << 0x20\n   346: t1 = a1 | a2\n   349: a1 = u8 [a0 + 0x11]\n   352: a3 = u8 [a0 + 0x10]\n   355: a4 = u8 [a0 + 0x12]\n   358: a5 = u8 [a0 + 0x13]\n   361: a1 = a1 << 0x8\n   364: a1 = a1 | a3\n   367: a4 = a4 << 0x10\n   370: a5 = a5 << 0x18\n   373: a4 = a4 | a5\n   376: a1 = a1 | a4\n   379: a3 = u8 [a0 + 0x15]\n   382: a4 = u8 [a0 + 0x14]\n   385: a5 = u8 [a0 + 0x16]\n   388: a2 = u8 [a0 + 0x17]\n   391: a3 = a3 << 0x8\n   394: a3 = a3 | a4\n   397: a5 = a5 << 0x10\n   400: a2 = a2 << 0x18\n   403: a2 = a2 | a5\n   406: a2 = a2 | a3\n   409: a2 = a2 << 0x20\n   412: a3 = a2 | a1\n   415: a1 = u8 [a0 + 0x19]\n   418: a2 = u8 [a0 + 0x18]\n   421: a4 = u8 [a0 + 0x1a]\n   424: a5 = u8 [a0 + 0x1b]\n   427: a1 = a1 << 0x8\n   430: a1 = a1 | a2\n   433: a4 = a4 << 0x10\n   436: a5 = a5 << 0x18\n   439: a4 = a4 | a5\n   442: a1 = a1 | a4\n   445: a2 = u8 [a0 + 0x1d]\n   448: a4 = u8 [a0 + 0x1c]\n   451: a5 = u8 [a0 + 0x1e]\n   454: a0 = u8 [a0 + 0x1f]\n   457: a2 = a2 << 0x8\n   460: a2 = a2 | a4\n   463: a5 = a5 << 0x10\n   466: a0 = a0 << 0x18\n   469: a0 = a0 | a5\n   472: a0 = a0 | a2\n   475: a0 = a0 << 0x20\n   478: a0 = a0 | a1\n   481: a0 = reverse a0\n   483: a1 = reverse a3\n   485: a2 = reverse t1\n   487: a3 = reverse t0\n   489: u64 [s0 + 0x18] = a3\n   492: u64 [s0 + 0x10] = a2\n   495: u64 [s0 + 0x8] = a1\n   498: u64 [s0] = a0\n   500: ra = u64 [sp + 0x8]\n   503: s0 = u64 [sp]\n   505: sp = sp + 0x10\n   508: ret\n      : @24 (gas: 12)\n   510: sp = sp + 0xffffffffffffffd8\n   513: u64 [sp + 0x20] = ra\n   516: u64 [sp + 0x18] = s0\n   519: u64 [sp + 0x10] = s1\n   522: a2 = u64 [a1]\n   524: u64 [sp + 0x8] = a2\n   527: a2 = u64 [a1 + 0x8]\n   530: u64 [sp] = a2\n   532: s0 = u64 [a1 + 0x10]\n   535: s1 = u64 [a1 + 0x18]\n   538: a1 = 0x20\n   541: ra = 4, jump @37\n      : @25 [@dyn 2] (gas: 71)\n   546: a1 = reverse s1\n   548: a2 = reverse s0\n   550: a3 = u64 [sp]\n   552: a3 = reverse a3\n   554: a4 = u64 [sp + 0x8]\n   557: a4 = reverse a4\n   559: u8 [a0 + 0x18] = a4\n   562: u8 [a0 + 0x10] = a3\n   565: u8 [a0 + 0x8] = a2\n   568: u8 [a0] = a1\n   570: a5 = a4 >> 0x38\n   573: u8 [a0 + 0x1f] = a5\n   576: a5 = a4 >> 0x30\n   579: u8 [a0 + 0x1e] = a5\n   582: a5 = a4 >> 0x28\n   585: u8 [a0 + 0x1d] = a5\n   588: a5 = a4 >> 0x20\n   591: u8 [a0 + 0x1c] = a5\n   594: a5 = a4 >> 0x18\n   597: u8 [a0 + 0x1b] = a5\n   600: a5 = a4 >> 0x10\n   603: u8 [a0 + 0x1a] = a5\n   606: a4 = a4 >> 0x8\n   609: u8 [a0 + 0x19] = a4\n   612: a4 = a3 >> 0x38\n   615: u8 [a0 + 0x17] = a4\n   618: a4 = a3 >> 0x30\n   621: u8 [a0 + 0x16] = a4\n   624: a4 = a3 >> 0x28\n   627: u8 [a0 + 0x15] = a4\n   630: a4 = a3 >> 0x20\n   633: u8 [a0 + 0x14] = a4\n   636: a4 = a3 >> 0x18\n   639: u8 [a0 + 0x13] = a4\n   642: a4 = a3 >> 0x10\n   645: u8 [a0 + 0x12] = a4\n   648: a3 = a3 >> 0x8\n   651: u8 [a0 + 0x11] = a3\n   654: a3 = a2 >> 0x38\n   657: u8 [a0 + 0xf] = a3\n   660: a3 = a2 >> 0x30\n   663: u8 [a0 + 0xe] = a3\n   666: a3 = a2 >> 0x28\n   669: u8 [a0 + 0xd] = a3\n   672: a3 = a2 >> 0x20\n   675: u8 [a0 + 0xc] = a3\n   678: a3 = a2 >> 0x18\n   681: u8 [a0 + 0xb] = a3\n   684: a3 = a2 >> 0x10\n   687: u8 [a0 + 0xa] = a3\n   690: a2 = a2 >> 0x8\n   693: u8 [a0 + 0x9] = a2\n   696: a2 = a1 >> 0x38\n   699: u8 [a0 + 0x7] = a2\n   702: a2 = a1 >> 0x30\n   705: u8 [a0 + 0x6] = a2\n   708: a2 = a1 >> 0x28\n   711: u8 [a0 + 0x5] = a2\n   714: a2 = a1 >> 0x20\n   717: u8 [a0 + 0x4] = a2\n   720: a2 = a1 >> 0x18\n   723: u8 [a0 + 0x3] = a2\n   726: a2 = a1 >> 0x10\n   729: u8 [a0 + 0x2] = a2\n   732: a1 = a1 >> 0x8\n   735: u8 [a0 + 0x1] = a1\n   738: ra = u64 [sp + 0x20]\n   741: s0 = u64 [sp + 0x18]\n   744: s1 = u64 [sp + 0x10]\n   747: sp = sp + 0x28\n   750: ret\n      : @26 (gas: 43)\n   752: sp = sp + 0xffffffffffffffa0\n   755: u64 [sp + 0x58] = ra\n   758: u64 [sp + 0x50] = s0\n   761: u64 [sp + 0x48] = s1\n   764: s0 = sp + 0x60\n   767: sp = sp & 0xffffffffffffffe0\n   770: s1 = a0\n   772: a0 = u64 [a1 + 0x18]\n   775: a2 = u64 [a1 + 0x10]\n   778: a3 = u64 [a1 + 0x8]\n   781: a1 = u64 [a1]\n   783: a0 = reverse a0\n   785: a2 = reverse a2\n   787: a3 = reverse a3\n   789: a1 = reverse a1\n   791: u64 [sp + 0x18] = a1\n   794: u64 [sp + 0x10] = a3\n   797: u64 [sp + 0x8] = a2\n   800: u64 [sp] = a0\n   802: u64 [sp + 56] = 0\n   805: u64 [sp + 48] = 0\n   808: u64 [sp + 40] = 0\n   811: u64 [sp + 32] = 0\n   814: u32 [sp + 64] = 0x20\n   818: i32 a1 = sp + 0\n   820: i32 a3 = sp + 0x20\n   823: i32 a4 = sp + 0x40\n   826: a2 = 0xffffffffffffffff\n   829: a0 = 0\n   831: ecalli 7 // 'get_storage'\n   833: a0 = u64 [sp + 0x38]\n   836: a1 = u64 [sp + 0x30]\n   839: a2 = u64 [sp + 0x28]\n   842: a3 = u64 [sp + 0x20]\n   845: a0 = reverse a0\n   847: a1 = reverse a1\n   849: a2 = reverse a2\n   851: a3 = reverse a3\n   853: u64 [s1 + 0x18] = a3\n   856: u64 [s1 + 0x10] = a2\n   859: u64 [s1 + 0x8] = a1\n   862: u64 [s1] = a0\n   864: t0 = 6, jump @1488\n      : @27 [@dyn 3] (gas: 1)\n   870: ret\n      : @28 (gas: 40)\n   872: sp = sp + 0xffffffffffffffa0\n   875: u64 [sp + 0x58] = ra\n   878: u64 [sp + 0x50] = s0\n   881: s0 = sp + 0x60\n   884: sp = sp & 0xffffffffffffffe0\n   887: t0 = u64 [a0]\n   889: a3 = u64 [a0 + 0x8]\n   892: a4 = u64 [a0 + 0x10]\n   895: a0 = u64 [a0 + 0x18]\n   898: t1 = u64 [a1]\n   900: a2 = u64 [a1 + 0x8]\n   903: a5 = u64 [a1 + 0x10]\n   906: a1 = u64 [a1 + 0x18]\n   909: t2 = reverse a0\n   911: a4 = reverse a4\n   913: a3 = reverse a3\n   915: a0 = reverse t0\n   917: t0 = reverse a1\n   919: a5 = reverse a5\n   921: a2 = reverse a2\n   923: a1 = reverse t1\n   925: u64 [sp + 0x18] = a0\n   928: u64 [sp + 0x10] = a3\n   931: u64 [sp + 0x8] = a4\n   934: u64 [sp] = t2\n   936: u64 [sp + 0x38] = a1\n   939: u64 [sp + 0x30] = a2\n   942: u64 [sp + 0x28] = a5\n   945: u64 [sp + 0x20] = t0\n   948: i32 a1 = sp + 0\n   950: i32 a3 = sp + 0x20\n   953: a2 = 0xffffffffffffffff\n   956: a4 = 0x20\n   959: a0 = 0\n   961: ecalli 15 // 'set_storage'\n   963: sp = s0 + 0xffffffffffffffa0\n   966: ra = u64 [sp + 0x58]\n   969: s0 = u64 [sp + 0x50]\n   972: sp = sp + 0x60\n   975: ret\n      : @29 (gas: 24)\n   977: sp = sp + 0xffffffffffffff60\n   981: u64 [sp + 0x98] = ra\n   985: u64 [sp + 0x90] = s0\n   989: u64 [sp + 0x88] = s1\n   993: s0 = sp + 0xa0\n   997: sp = sp & 0xffffffffffffffe0\n  1000: a4 = u64 [a3]\n  1002: u64 [sp + 0x38] = a4\n  1005: a4 = u64 [a3 + 0x8]\n  1008: u64 [sp + 0x30] = a4\n  1011: a4 = u64 [a3 + 0x10]\n  1014: u64 [sp + 0x28] = a4\n  1017: a3 = u64 [a3 + 0x18]\n  1020: u64 [sp + 0x20] = a3\n  1023: a3 = u64 [a2]\n  1025: u64 [sp + 0x18] = a3\n  1028: a3 = u64 [a2 + 0x8]\n  1031: u64 [sp + 0x10] = a3\n  1034: a3 = u64 [a2 + 0x10]\n  1037: u64 [sp + 0x8] = a3\n  1040: a2 = u64 [a2 + 0x18]\n  1043: u64 [sp] = a2\n  1045: s1 = a1\n  1047: ra = 8, jump @37\n      : @30 [@dyn 4] (gas: 35)\n  1052: a1 = u64 [sp]\n  1054: a1 = reverse a1\n  1056: a2 = u64 [sp + 0x8]\n  1059: a2 = reverse a2\n  1061: a3 = u64 [sp + 0x10]\n  1064: a3 = reverse a3\n  1066: a4 = u64 [sp + 0x18]\n  1069: a4 = reverse a4\n  1071: u64 [sp + 0x58] = a4\n  1074: u64 [sp + 0x50] = a3\n  1077: u64 [sp + 0x48] = a2\n  1080: u64 [sp + 0x40] = a1\n  1083: a1 = u64 [sp + 0x20]\n  1086: a1 = reverse a1\n  1088: a2 = u64 [sp + 0x28]\n  1091: a2 = reverse a2\n  1093: a3 = u64 [sp + 0x30]\n  1096: a3 = reverse a3\n  1098: a4 = u64 [sp + 0x38]\n  1101: a4 = reverse a4\n  1103: u64 [sp + 0x78] = a4\n  1106: u64 [sp + 0x70] = a3\n  1109: u64 [sp + 0x68] = a2\n  1112: u64 [sp + 0x60] = a1\n  1115: i32 a2 = a0 + 0\n  1117: i32 a3 = s1 + 0\n  1119: i32 a0 = sp + 0x40\n  1122: a1 = 0x2\n  1125: ecalli 5 // 'deposit_event'\n  1127: sp = s0 + 0xffffffffffffff60\n  1131: ra = u64 [sp + 0x98]\n  1135: s0 = u64 [sp + 0x90]\n  1139: s1 = u64 [sp + 0x88]\n  1143: sp = sp + 0xa0\n  1147: ret\n      : @31 (gas: 15)\n  1149: sp = sp + 0xffffffffffffff20\n  1153: u64 [sp + 0xd8] = ra\n  1157: u64 [sp + 0xd0] = s0\n  1161: u64 [sp + 0xc8] = s1\n  1165: s0 = sp + 0xe0\n  1169: sp = sp & 0xffffffffffffffe0\n  1172: a5 = u64 [a4]\n  1174: u64 [sp + 0x40] = a5\n  1177: a5 = u64 [a4 + 0x8]\n  1180: u64 [sp + 0x48] = a5\n  1183: a5 = u64 [a4 + 0x10]\n  1186: u64 [sp + 0x50] = a5\n  1189: a4 = u64 [a4 + 0x18]\n  1192: u64 [sp + 0x58] = a4\n  1195: t0 = 10, jump @1463\n      : @32 [@dyn 5] (gas: 2)\n  1201: u64 [sp + 0x38] = a1\n  1204: ra = 12, jump @37\n      : @33 [@dyn 6] (gas: 46)\n  1209: a1 = reverse s1\n  1211: u64 [sp + 0x78] = a1\n  1214: a1 = u64 [sp]\n  1216: a1 = reverse a1\n  1218: u64 [sp + 0x70] = a1\n  1221: a1 = u64 [sp + 0x8]\n  1224: a1 = reverse a1\n  1226: u64 [sp + 0x68] = a1\n  1229: a1 = u64 [sp + 0x10]\n  1232: a1 = reverse a1\n  1234: u64 [sp + 0x60] = a1\n  1237: a1 = u64 [sp + 0x18]\n  1240: a1 = reverse a1\n  1242: u64 [sp + 0x98] = a1\n  1246: a1 = u64 [sp + 0x20]\n  1249: a1 = reverse a1\n  1251: u64 [sp + 0x90] = a1\n  1255: a1 = u64 [sp + 0x28]\n  1258: a1 = reverse a1\n  1260: u64 [sp + 0x88] = a1\n  1264: a1 = u64 [sp + 0x30]\n  1267: a1 = reverse a1\n  1269: u64 [sp + 0x80] = a1\n  1273: a1 = u64 [sp + 0x40]\n  1276: a1 = reverse a1\n  1278: u64 [sp + 0xb8] = a1\n  1282: a1 = u64 [sp + 0x48]\n  1285: a1 = reverse a1\n  1287: u64 [sp + 0xb0] = a1\n  1291: a1 = u64 [sp + 0x50]\n  1294: a1 = reverse a1\n  1296: u64 [sp + 0xa8] = a1\n  1300: a1 = u64 [sp + 0x58]\n  1303: a1 = reverse a1\n  1305: u64 [sp + 0xa0] = a1\n  1309: i32 a2 = a0 + 0\n  1311: a3 = i32 [sp + 0x38]\n  1314: i32 a0 = sp + 0x60\n  1317: a1 = 0x3\n  1320: ecalli 5 // 'deposit_event'\n  1322: sp = s0 + 0xffffffffffffff20\n  1326: ra = u64 [sp + 0xd8]\n  1330: s0 = u64 [sp + 0xd0]\n  1334: s1 = u64 [sp + 0xc8]\n  1338: sp = sp + 0xe0\n  1342: ret\n      : @34 (gas: 23)\n  1344: sp = sp + 0xfffffffffffffee0\n  1348: u64 [sp + 0x118] = ra\n  1352: u64 [sp + 0x110] = s0\n  1356: u64 [sp + 0x108] = s1\n  1360: s0 = sp + 0x120\n  1364: sp = sp & 0xffffffffffffffe0\n  1367: s1 = u64 [a5]\n  1369: u64 [sp + 0x60] = s1\n  1372: s1 = u64 [a5 + 0x8]\n  1375: u64 [sp + 0x68] = s1\n  1378: s1 = u64 [a5 + 0x10]\n  1381: u64 [sp + 0x70] = s1\n  1384: a5 = u64 [a5 + 0x18]\n  1387: u64 [sp + 0x78] = a5\n  1390: a5 = u64 [a4]\n  1392: u64 [sp + 0x38] = a5\n  1395: a5 = u64 [a4 + 0x8]\n  1398: u64 [sp + 0x40] = a5\n  1401: a5 = u64 [a4 + 0x10]\n  1404: u64 [sp + 0x48] = a5\n  1407: a4 = u64 [a4 + 0x18]\n  1410: u64 [sp + 0x50] = a4\n  1413: t0 = 14, jump @1463\n      : @35 [@dyn 7] (gas: 2)\n  1419: u64 [sp + 0x58] = a1\n  1422: ra = 16, jump @37\n      : @36 [@dyn 8] (gas: 58)\n  1427: a1 = reverse s1\n  1429: u64 [sp + 0x98] = a1\n  1433: a1 = u64 [sp]\n  1435: a1 = reverse a1\n  1437: u64 [sp + 0x90] = a1\n  1441: a1 = u64 [sp + 0x8]\n  1444: a1 = reverse a1\n  1446: u64 [sp + 0x88] = a1\n  1450: a1 = u64 [sp + 0x10]\n  1453: a1 = reverse a1\n  1455: u64 [sp + 0x80] = a1\n  1459: a1 = u64 [sp + 0x18]\n  1462: a1 = reverse a1\n  1464: u64 [sp + 0xb8] = a1\n  1468: a1 = u64 [sp + 0x20]\n  1471: a1 = reverse a1\n  1473: u64 [sp + 0xb0] = a1\n  1477: a1 = u64 [sp + 0x28]\n  1480: a1 = reverse a1\n  1482: u64 [sp + 0xa8] = a1\n  1486: a1 = u64 [sp + 0x30]\n  1489: a1 = reverse a1\n  1491: u64 [sp + 0xa0] = a1\n  1495: a1 = u64 [sp + 0x38]\n  1498: a1 = reverse a1\n  1500: u64 [sp + 0xd8] = a1\n  1504: a1 = u64 [sp + 0x40]\n  1507: a1 = reverse a1\n  1509: u64 [sp + 0xd0] = a1\n  1513: a1 = u64 [sp + 0x48]\n  1516: a1 = reverse a1\n  1518: u64 [sp + 0xc8] = a1\n  1522: a1 = u64 [sp + 0x50]\n  1525: a1 = reverse a1\n  1527: u64 [sp + 0xc0] = a1\n  1531: a1 = u64 [sp + 0x60]\n  1534: a1 = reverse a1\n  1536: u64 [sp + 0xf8] = a1\n  1540: a1 = u64 [sp + 0x68]\n  1543: a1 = reverse a1\n  1545: u64 [sp + 0xf0] = a1\n  1549: a1 = u64 [sp + 0x70]\n  1552: a1 = reverse a1\n  1554: u64 [sp + 0xe8] = a1\n  1558: a1 = u64 [sp + 0x78]\n  1561: a1 = reverse a1\n  1563: u64 [sp + 0xe0] = a1\n  1567: i32 a2 = a0 + 0\n  1569: a3 = i32 [sp + 0x58]\n  1572: i32 a0 = sp + 0x80\n  1576: a1 = 0x4\n  1579: ecalli 5 // 'deposit_event'\n  1581: sp = s0 + 0xfffffffffffffee0\n  1585: ra = u64 [sp + 0x118]\n  1589: s0 = u64 [sp + 0x110]\n  1593: s1 = u64 [sp + 0x108]\n  1597: sp = sp + 0x120\n  1601: ret\n      : @37 (gas: 2)\n  1603: i32 a2 = a0 >> 0x10\n  1606: jump @42 if a2 != 0\n      : @38 (gas: 4)\n  1609: a1 = a1 + a0\n  1612: i32 a1 = a1 + 0x1f\n  1615: a1 = a1 & 0xffffffffffffffe0\n  1618: jump @42 if a1 >u 65536\n      : @39 (gas: 3)\n  1624: a2 = 0x20180\n  1629: a3 = i32 [0x20180]\n  1634: jump @41 if a3 >=u a1\n      : @40 (gas: 2)\n  1637: u32 [0x20180] = a1\n  1642: fallthrough\n      : @41 (gas: 4)\n  1643: a1 = 0x20190\n  1648: i32 a0 = a0 + 0\n  1650: a0 = a0 + a1\n  1653: ret\n      : @42 (gas: 1)\n  1655: trap\n      : @43 (gas: 6)\n  1656: sp = sp + 0xfffffffffffffff0\n  1659: u64 [sp + 0x8] = ra\n  1662: u64 [sp] = s0\n  1664: s0 = a0 & 0x1\n  1667: ecalli 3 // 'call_data_size'\n  1669: fallthrough\n      : @44 (gas: 2)\n  1670: u32 [0x2017c] = a0\n  1675: jump @46 if s0 == 0\n      : @45 (gas: 1)\n  1678: ra = 18, jump @47\n      : @46 [@dyn 9] (gas: 1)\n  1682: ra = 20, jump @73\n      : @47 [@dyn 10] (gas: 13)\n  1687: sp = sp + 0xffffffffffffff00\n  1691: u64 [sp + 0xf8] = ra\n  1695: u64 [sp + 0xf0] = s0\n  1699: u64 [sp + 0xe8] = s1\n  1703: s0 = sp + 0x100\n  1707: sp = sp & 0xffffffffffffffe0\n  1710: u64 [sp + 216] = 0\n  1714: u64 [sp + 208] = 0\n  1718: u64 [sp + 200] = 0\n  1722: u64 [sp + 192] = 0\n  1726: i32 a0 = sp + 0xc0\n  1730: ecalli 16 // 'value_transferred'\n  1732: fallthrough\n      : @48 (gas: 8)\n  1733: a0 = u64 [sp + 0xd0]\n  1737: a1 = u64 [sp + 0xd8]\n  1741: a2 = u64 [sp + 0xc8]\n  1745: a3 = u64 [sp + 0xc0]\n  1749: a1 = a1 | a2\n  1752: a0 = a0 | a3\n  1755: a0 = a0 | a1\n  1758: jump @60 if a0 != 0\n      : @49 (gas: 15)\n  1762: s1 = i32 [0x2017c]\n  1767: a0 = s1 << 0x20\n  1770: a0 = a0 >> 0x20\n  1773: a0 = a0 + 0x1f\n  1776: a0 = a0 & 0xffffffffffffffe0\n  1779: a1 = a0 + 0xa0\n  1783: a0 = a1 <u a0\n  1786: u64 [sp + 0xa0] = a1\n  1790: u64 [sp + 0xa8] = a0\n  1794: a0 = 0 if a0 != 0\n  1796: u64 [sp + 0xb0] = a0\n  1800: a0 = 0x40\n  1803: a1 = sp + 0xa0\n  1807: u64 [sp + 184] = 0\n  1811: ra = 22, jump @24\n      : @50 [@dyn 11] (gas: 3)\n  1816: a0 = 0xa0\n  1820: a1 = s1\n  1822: ra = 24, jump @37\n      : @51 [@dyn 12] (gas: 5)\n  1827: i32 a0 = a0 + 0\n  1829: a1 = s1\n  1831: a2 = 0\n  1833: ecalli 1 // 'call_data_copy'\n  1835: fallthrough\n      : @52 (gas: 1)\n  1836: jump @61 if s1 <=u 31\n      : @53 (gas: 3)\n  1841: a0 = sp + 0x80\n  1845: a1 = 0xa0\n  1849: ra = 26, jump @22\n      : @54 [@dyn 13] (gas: 10)\n  1854: a0 = u64 [sp + 0x90]\n  1858: a2 = u64 [sp + 0x98]\n  1862: a1 = 0x100000000\n  1872: a1 = a1 ^ a0\n  1875: a1 = a1 | a2\n  1878: a3 = a0 >> 0x20\n  1881: a3 = a3 <u 0x1\n  1884: a3 = 0 if a2 != 0\n  1886: a3 = 0 if a1 == 0\n  1888: jump @62 if a3 == 0\n      : @55 (gas: 6)\n  1891: a1 = u64 [sp + 0x80]\n  1895: a3 = u64 [sp + 0x88]\n  1899: a4 = a1 | a0\n  1902: a5 = a3 | a2\n  1905: a4 = a4 | a5\n  1908: jump @63 if a4 == 0\n      : @56 (gas: 7)\n  1911: u64 [sp + 0x60] = a1\n  1914: u64 [sp + 0x68] = a3\n  1917: u64 [sp + 0x70] = a0\n  1920: a0 = 0x80\n  1924: a1 = sp + 0x60\n  1927: u64 [sp + 0x78] = a2\n  1930: ra = 28, jump @24\n      : @57 [@dyn 14] (gas: 3)\n  1935: a0 = sp + 0x40\n  1938: a1 = 0x40\n  1941: ra = 30, jump @22\n      : @58 [@dyn 15] (gas: 12)\n  1946: a0 = u64 [sp + 0x58]\n  1949: a1 = u64 [sp + 0x50]\n  1952: a2 = u64 [sp + 0x48]\n  1955: s1 = u64 [sp + 0x40]\n  1958: a0 = a0 | a2\n  1961: a2 = s1 | a1\n  1964: a2 = a2 | a0\n  1967: a2 = a2 >> 0x20\n  1970: a0 = a0 | a1\n  1973: a0 = a0 << 0x20\n  1976: a0 = a0 | a2\n  1979: jump @67 if a0 == 0\n      : @59 (gas: 1)\n  1982: trap\n      : @60 (gas: 4)\n  1983: a1 = 0x20190\n  1988: i32 a1 = a1 + 0\n  1990: a0 = 0x1\n  1993: jump @72\n      : @61 (gas: 4)\n  1996: a1 = 0x20190\n  2001: i32 a1 = a1 + 0\n  2003: a0 = 0x1\n  2006: jump @72\n      : @62 (gas: 4)\n  2009: a1 = 0x20190\n  2014: i32 a1 = a1 + 0\n  2016: a0 = 0x1\n  2019: jump @72\n      : @63 (gas: 8)\n  2022: u64 [sp + 16] = 0\n  2025: u64 [sp + 8] = 0\n  2028: u64 [sp + 0] = 0\n  2030: a0 = 0x14bcf5c800000000\n  2040: a1 = sp\n  2042: u64 [sp + 0x18] = a0\n  2045: a0 = 0\n  2047: ra = 32, jump @24\n      : @64 [@dyn 16] (gas: 2)\n  2052: a1 = i32 [0x20180]\n  2057: jump @66 if a1 >u 31\n      : @65 (gas: 2)\n  2061: u32 [0x20180] = 0x20\n  2067: fallthrough\n      : @66 (gas: 6)\n  2068: a1 = 0x20190\n  2073: i32 a1 = a1 + 0\n  2075: a0 = 0x1\n  2078: a2 = 0x4\n  2081: ecalli 13 // 'seal_return'\n  2083: fallthrough\n      : @67 (gas: 3)\n  2084: a0 = s1\n  2086: a1 = 0\n  2088: ra = 34, jump @37\n      : @68 [@dyn 17] (gas: 7)\n  2093: i32 a0 = a0 + 0\n  2095: a1 = 0\n  2097: a2 = 0\n  2099: ecalli 1 // 'call_data_copy'\n  2101: a0 = sp + 0x20\n  2104: a1 = 0x80\n  2108: ra = 36, jump @22\n      : @69 [@dyn 18] (gas: 9)\n  2113: a0 = u64 [sp + 0x38]\n  2116: a2 = u64 [sp + 0x30]\n  2119: a3 = u64 [sp + 0x28]\n  2122: a4 = u64 [sp + 0x20]\n  2125: u64 [0x301c8] = a0\n  2130: u64 [0x301c0] = a2\n  2135: u64 [0x301b8] = a3\n  2140: u64 [0x301b0] = a4\n  2145: jump @20\n      : @70 (gas: 3)\n  2148: a0 = s1\n  2150: a1 = 0\n  2152: ra = 38, jump @37\n      : @71 [@dyn 19] (gas: 6)\n  2157: i32 a1 = a0 + 0\n  2159: a0 = 0\n  2161: a2 = 0\n  2163: ra = 0x28\n  2166: ecalli 13 // 'seal_return'\n  2168: jump @73\n      : @72 (gas: 4)\n  2170: a2 = 0\n  2172: ra = 0x28\n  2175: ecalli 13 // 'seal_return'\n  2177: fallthrough\n      : @73 [@dyn 20] (gas: 16)\n  2178: sp = sp + 0xfffffffffffffe10\n  2182: u64 [sp + 0x1e8] = ra\n  2186: u64 [sp + 0x1e0] = s0\n  2190: u64 [sp + 0x1d8] = s1\n  2194: s0 = sp + 0x1f0\n  2198: sp = sp + 0xffffffffffffd130\n  2202: sp = sp & 0xffffffffffffffe0\n  2205: s1 = sp\n  2207: a2 = s1 + 0x2118\n  2211: u64 [a2 + 1728] = 0\n  2215: u64 [a2 + 1720] = 0\n  2219: u64 [a2 + 1704] = 0x80\n  2225: a0 = 0x40\n  2228: a1 = s1 + 0x27c0\n  2232: u64 [a2 + 1712] = 0\n  2236: ra = 42, jump @24\n      : @74 [@dyn 21] (gas: 4)\n  2241: a0 = 0x2017c\n  2246: u64 [s1 + 0x198] = a0\n  2250: a0 = i32 [0x2017c]\n  2255: jump @76 if a0 >=u 4\n      : @75 (gas: 1)\n  2259: jump @966\n      : @76 (gas: 6)\n  2262: a0 = s1 + 0x2000\n  2266: i32 a0 = a0 + 0x7e0\n  2270: a1 = 0\n  2272: ra = 0x2c\n  2275: ecalli 2 // 'call_data_load'\n  2277: fallthrough\n      : @77 [@dyn 22] (gas: 3)\n  2278: a3 = s1 + 0x2118\n  2282: a0 = i32 [a3 + 0x6e4]\n  2286: jump @79 if a0 != 2293374087\n      : @78 (gas: 1)\n  2293: jump @288\n      : @79 (gas: 1)\n  2296: jump @119 if a0 == 2401489772\n      : @80 (gas: 2)\n  2304: a2 = s1 + 0x2918\n  2308: jump @82 if a0 != 2573362740\n      : @81 (gas: 1)\n  2315: jump @434\n      : @82 (gas: 1)\n  2318: jump @84 if a0 != 3062082785\n      : @83 (gas: 1)\n  2325: jump @357\n      : @84 (gas: 1)\n  2328: jump @107 if a0 == 3135182381\n      : @85 (gas: 1)\n  2336: jump @87 if a0 != 3504541104\n      : @86 (gas: 1)\n  2343: jump @405\n      : @87 (gas: 1)\n  2346: jump @191 if a0 == 248271711\n      : @88 (gas: 1)\n  2354: jump @90 if a0 != 573237126\n      : @89 (gas: 1)\n  2361: jump @331\n      : @90 (gas: 1)\n  2364: jump @153 if a0 == 773487949\n      : @91 (gas: 1)\n  2372: jump @93 if a0 != 932579317\n      : @92 (gas: 1)\n  2379: jump @225\n      : @93 (gas: 1)\n  2382: jump @95 if a0 != 1221342904\n      : @94 (gas: 1)\n  2389: jump @264\n      : @95 (gas: 1)\n  2392: jump @97 if a0 == 1251080110\n      : @96 (gas: 1)\n  2399: jump @471\n      : @97 (gas: 10)\n  2402: u64 [a2 + 704] = 0\n  2406: u64 [a2 + 696] = 0\n  2410: u64 [a2 + 688] = 0\n  2414: u64 [a2 + 680] = 0\n  2418: a0 = s1 + 0x3000\n  2422: i32 a0 = a0 + 0xfffffffffffffbc0\n  2426: ra = 0x2e\n  2429: ecalli 16 // 'value_transferred'\n  2431: t0 = 0x30\n  2434: jump @1468\n      : @98 [@dyn 23] (gas: 1)\n  2438: t0 = 48, jump @1468\n      : @99 [@dyn 24] (gas: 8)\n  2444: a0 = u64 [a4 + 0xb8]\n  2448: a1 = u64 [a4 + 0xc0]\n  2452: a2 = u64 [a4 + 0xb0]\n  2456: a3 = u64 [a4 + 0xa8]\n  2460: a1 = a1 | a2\n  2463: a0 = a0 | a3\n  2466: a0 = a0 | a1\n  2469: jump @101 if a0 == 0\n      : @100 (gas: 1)\n  2472: jump @788\n      : @101 (gas: 3)\n  2475: a0 = u64 [s1 + 0x198]\n  2479: a0 = i32 [a0]\n  2481: jump @103 if a0 >u 3\n      : @102 (gas: 1)\n  2485: jump @789\n      : @103 (gas: 4)\n  2488: a0 = s1 + 0x7ff\n  2492: a0 = a0 + 0x7a1\n  2496: a1 = 0x40\n  2499: ra = 50, jump @22\n      : @104 [@dyn 25] (gas: 15)\n  2504: a3 = s1 + 0x7ff\n  2508: a3 = a3 + 0x119\n  2512: a5 = a3 + 0x600\n  2516: a4 = u64 [a5 + 0xa0]\n  2520: a1 = u64 [a5 + 0x98]\n  2524: a2 = u64 [a5 + 0x90]\n  2528: a0 = u64 [a5 + 0x88]\n  2532: a4 = a4 | a2\n  2535: a2 = a0 | a1\n  2538: a2 = a2 | a4\n  2541: a2 = a2 >> 0x20\n  2544: a1 = a1 | a4\n  2547: a1 = a1 << 0x20\n  2550: a1 = a1 | a2\n  2553: jump @106 if a1 == 0\n      : @105 (gas: 1)\n  2556: jump @782\n      : @106 (gas: 10)\n  2559: a1 = u64 [0x200a0]\n  2564: u64 [a3 + 1664] = 0\n  2568: u64 [a3 + 1656] = 0\n  2572: u64 [a3 + 0x668] = a1\n  2576: a1 = s1 + 0x7ff\n  2580: a1 = a1 + 0x781\n  2584: u64 [a3 + 1648] = 0\n  2588: u64 [s1 + 0x198] = a0\n  2592: ra = 0x3a\n  2595: jump @24\n      : @107 (gas: 8)\n  2598: u64 [a2 + 1760] = 0\n  2602: u64 [a2 + 1752] = 0\n  2606: u64 [a2 + 1744] = 0\n  2610: u64 [a2 + 1736] = 0\n  2614: a0 = s1 + 0x3000\n  2618: i32 a0 = a0 + 0xffffffffffffffe0\n  2621: ecalli 16 // 'value_transferred'\n  2623: fallthrough\n      : @108 (gas: 10)\n  2624: a3 = s1 + 0x2918\n  2628: a4 = a3 + 0x600\n  2632: a0 = u64 [a4 + 0xd8]\n  2636: a1 = u64 [a4 + 0xe0]\n  2640: a2 = u64 [a4 + 0xd0]\n  2644: a3 = u64 [a4 + 0xc8]\n  2648: a1 = a1 | a2\n  2651: a0 = a0 | a3\n  2654: a0 = a0 | a1\n  2657: jump @110 if a0 == 0\n      : @109 (gas: 1)\n  2660: jump @790\n      : @110 (gas: 3)\n  2663: a0 = u64 [s1 + 0x198]\n  2667: a0 = i32 [a0]\n  2669: jump @112 if a0 >u 3\n      : @111 (gas: 1)\n  2673: jump @791\n      : @112 (gas: 8)\n  2676: a0 = s1 + 0x2918\n  2680: u64 [a0 + 1792] = 0\n  2684: u64 [a0 + 1784] = 0\n  2688: u64 [a0 + 1776] = 0\n  2692: u64 [a0 + 1768] = 0\n  2696: a0 = s1 + 0x2640\n  2700: a1 = s1 + 0x3000\n  2704: ra = 52, jump @26\n      : @113 [@dyn 26] (gas: 14)\n  2709: a1 = s1 + 0x2118\n  2713: a2 = a1 + 0x500\n  2717: a0 = u64 [a2 + 0x40]\n  2720: a1 = s1 + 0x100\n  2724: u64 [a1 + 0x98] = a0\n  2728: a0 = u64 [a2 + 0x38]\n  2731: u64 [a1 + 0x90] = a0\n  2735: a0 = u64 [a2 + 0x30]\n  2738: u64 [a1 + 0x88] = a0\n  2742: a0 = u64 [a2 + 0x28]\n  2745: u64 [a1 + 0x80] = a0\n  2749: a0 = s1 + 0x2620\n  2753: a1 = 0x40\n  2756: ra = 54, jump @22\n      : @114 [@dyn 27] (gas: 3)\n  2761: a3 = s1 + 0x2118\n  2765: a5 = a3 + 0x500\n  2769: t0 = 56, jump @1475\n      : @115 [@dyn 28] (gas: 1)\n  2775: jump @117 if a0 == 0\n      : @116 (gas: 1)\n  2778: jump @782\n      : @117 (gas: 14)\n  2781: a2 = s1 + 0x100\n  2785: a0 = u64 [a2 + 0x80]\n  2789: a1 = a3 + 0x400\n  2793: u64 [a1 + 0xe8] = a0\n  2797: a0 = u64 [a2 + 0x88]\n  2801: u64 [a1 + 0xf0] = a0\n  2805: a0 = u64 [a2 + 0x90]\n  2809: u64 [a1 + 0xf8] = a0\n  2813: a1 = s1 + 0x2600\n  2817: a0 = u64 [a2 + 0x98]\n  2821: u64 [a3 + 0x500] = a0\n  2825: a0 = a4\n  2827: u64 [a2 + 0x98] = a4\n  2831: ra = 58, jump @24\n      : @118 [@dyn 29] (gas: 4)\n  2836: a1 = 0x20\n  2839: a0 = u64 [s1 + 0x198]\n  2843: ra = 0x36a\n  2847: jump @37\n      : @119 (gas: 11)\n  2850: a0 = s1 + 0x2918\n  2854: u64 [a0 + 800] = 0\n  2858: u64 [a0 + 792] = 0\n  2862: u64 [a0 + 784] = 0\n  2866: u64 [a0 + 776] = 0\n  2870: a0 = s1 + 0x3000\n  2874: i32 a0 = a0 + 0xfffffffffffffc20\n  2878: ra = 0x3c\n  2881: ecalli 16 // 'value_transferred'\n  2883: t0 = 0x3e\n  2886: jump @1492\n      : @120 [@dyn 30] (gas: 1)\n  2890: t0 = 62, jump @1492\n      : @121 [@dyn 31] (gas: 1)\n  2896: t0 = 64, jump @1489\n      : @122 [@dyn 32] (gas: 1)\n  2902: jump @124 if a0 == 0\n      : @123 (gas: 1)\n  2905: jump @792\n      : @124 (gas: 1)\n  2908: t0 = 66, jump @1484\n      : @125 [@dyn 33] (gas: 1)\n  2914: jump @127 if a1 <u a0\n      : @126 (gas: 1)\n  2917: jump @793\n      : @127 (gas: 5)\n  2920: a0 = s1 + 0x3000\n  2924: i32 a0 = a0 + 0xfffffffffffffc40\n  2928: a1 = 0x4\n  2931: ecalli 2 // 'call_data_load'\n  2933: fallthrough\n      : @128 (gas: 15)\n  2934: a0 = s1 + 0x2918\n  2938: a5 = a0 + 0x300\n  2942: a1 = u64 [a5 + 0x40]\n  2945: a2 = u64 [a5 + 0x38]\n  2948: a3 = u64 [a5 + 0x30]\n  2951: a4 = u64 [a5 + 0x28]\n  2954: a5 = s1 + 0x100\n  2958: u64 [a5 + 0x78] = a1\n  2961: u64 [a5 + 0x90] = a3\n  2965: a0 = a3 | a1\n  2968: u64 [a5 + 0x98] = a2\n  2972: u64 [a5 + 0x88] = a4\n  2976: a1 = a4 | a2\n  2979: a0 = a0 | a1\n  2982: jump @130 if a0 != 0\n      : @129 (gas: 1)\n  2985: jump @794\n      : @130 (gas: 9)\n  2988: a0 = 0x30190\n  2993: u64 [s1 + 0x170] = a0\n  2997: i32 a0 = a0 + 0\n  2999: u64 [s1 + 0x150] = a0\n  3003: ra = 0x44\n  3006: ecalli 4 // 'caller'\n  3008: a2 = u64 [s1 + 0x170]\n  3012: t0 = 0x46\n  3015: jump @1436\n      : @131 [@dyn 34] (gas: 2)\n  3019: a2 = u64 [s1 + 0x170]\n  3023: t0 = 70, jump @1436\n      : @132 [@dyn 35] (gas: 9)\n  3029: a2 = s1 + 0x1118\n  3033: u64 [a2 + 672] = 0\n  3037: a4 = a2 + 0x200\n  3041: u64 [a4 + 0x98] = a1\n  3045: u64 [a4 + 0x90] = a0\n  3049: a1 = s1 + 0x13a0\n  3053: u64 [a4 + 0x88] = a3\n  3057: a0 = 0\n  3059: ra = 72, jump @24\n      : @133 [@dyn 36] (gas: 3)\n  3064: t0 = 0x4a\n  3067: a1 = s1 + 0x1118\n  3071: fallthrough\n      : @134 [@dyn 37] (gas: 8)\n  3072: u64 [a1 + 640] = 0\n  3076: u64 [a1 + 632] = 0\n  3080: u64 [a1 + 616] = 0x1\n  3085: a2 = a1\n  3087: a0 = 0x20\n  3090: a1 = s1 + 0x1380\n  3094: u64 [a2 + 624] = 0\n  3098: ra = 76, jump @24\n      : @135 [@dyn 38] (gas: 7)\n  3103: a0 = sp + 0xffffffffffffffe0\n  3106: a0 = a0 & 0xffffffffffffffe0\n  3109: u64 [s1 + 0x180] = a0\n  3113: sp = a0\n  3115: a2 = 0x20180\n  3120: a0 = i32 [0x20180]\n  3125: jump @137 if a0 >u 63\n      : @136 (gas: 2)\n  3129: u32 [0x20180] = 0x40\n  3135: fallthrough\n      : @137 (gas: 43)\n  3136: u64 [s1 + 0x148] = a2\n  3140: a0 = sp + 0xffffffffffffffe0\n  3143: a2 = a0 & 0xffffffffffffffe0\n  3146: u64 [s1 + 0x168] = a2\n  3150: sp = a2\n  3152: a0 = 0x20190\n  3157: i32 a0 = a0 + 0\n  3159: i32 a2 = a2 + 0\n  3161: a1 = 0x40\n  3164: u64 [s1 + 0x158] = a0\n  3168: ecalli 8 // 'hash_keccak_256'\n  3170: a3 = u64 [s1 + 0x168]\n  3174: a0 = u64 [a3 + 0x18]\n  3177: a1 = u64 [a3 + 0x10]\n  3180: a2 = u64 [a3 + 0x8]\n  3183: a3 = u64 [a3]\n  3185: a0 = reverse a0\n  3187: a5 = reverse a1\n  3189: a2 = reverse a2\n  3191: t0 = reverse a3\n  3193: a4 = u64 [s1 + 0x180]\n  3197: u64 [a4 + 0x18] = t0\n  3200: u64 [a4 + 0x10] = a2\n  3203: u64 [a4 + 0x8] = a5\n  3206: u64 [a4] = a0\n  3208: a4 = sp + 0xffffffffffffffe0\n  3211: a1 = a4 & 0xffffffffffffffe0\n  3214: sp = a1\n  3216: a4 = a0 + 0x2\n  3219: a0 = a4 <u a0\n  3222: a3 = a5 + a0\n  3225: a5 = a3 <u a5\n  3228: a5 = a0 if a0 == 0\n  3231: a5 = a5 + a2\n  3234: a0 = a5 <u a2\n  3237: a0 = a0 + t0\n  3240: u64 [a1 + 0x10] = a5\n  3243: u64 [a1 + 0x8] = a3\n  3246: u64 [a1] = a4\n  3248: u64 [a1 + 0x18] = a0\n  3251: a0 = s1 + 0x1360\n  3255: u64 [s1 + 0x168] = a1\n  3259: ra = 78, jump @26\n      : @138 [@dyn 39] (gas: 22)\n  3264: a4 = s1 + 0x1118\n  3268: a5 = u64 [a4 + 0x260]\n  3272: a1 = u64 [a4 + 0x250]\n  3276: t2 = u64 [a4 + 0x258]\n  3280: t1 = u64 [a4 + 0x248]\n  3284: ra = u64 [s1 + 0x178]\n  3288: a0 = a5 ^ ra\n  3291: a2 = u64 [s1 + 0x190]\n  3295: t0 = a1 ^ a2\n  3298: a3 = a1 <u a2\n  3301: a2 = u64 [s1 + 0x188]\n  3305: a2 = t1 <u a2\n  3308: a2 = a3 if t0 != 0\n  3311: u64 [s1 + 0x160] = a5\n  3315: a3 = a5 <u ra\n  3318: t0 = u64 [s1 + 0x198]\n  3322: a5 = t2 <u t0\n  3325: a5 = a3 if a0 != 0\n  3328: a3 = t2 ^ t0\n  3331: a3 = a3 | a0\n  3334: a2 = a5 if a3 != 0\n  3337: jump @140 if a2 == 0\n      : @139 (gas: 1)\n  3340: jump @798\n      : @140 (gas: 17)\n  3343: a0 = u64 [s1 + 0x188]\n  3347: a2 = a4 + 0x100\n  3351: u64 [a2 + 0xe8] = a0\n  3355: u64 [a4 + 0x208] = t1\n  3359: a0 = u64 [s1 + 0x190]\n  3363: u64 [a2 + 0xf0] = a0\n  3367: u64 [a4 + 0x210] = a1\n  3371: a0 = u64 [s1 + 0x198]\n  3375: u64 [a2 + 0xf8] = a0\n  3379: u64 [a4 + 0x218] = t2\n  3383: u64 [a4 + 0x200] = ra\n  3387: a0 = s1 + 0x1340\n  3391: a1 = s1 + 0x1320\n  3395: a2 = s1 + 0x1300\n  3399: a3 = u64 [s1 + 0x160]\n  3403: u64 [a4 + 0x220] = a3\n  3407: ra = 80, jump @1266\n      : @141 [@dyn 40] (gas: 17)\n  3412: a0 = s1 + 0x1118\n  3416: a0 = u64 [a0 + 0x240]\n  3420: a1 = s1 + 0x1118\n  3424: a1 = u64 [a1 + 0x238]\n  3428: a2 = s1 + 0x1118\n  3432: a2 = u64 [a2 + 0x230]\n  3436: a3 = s1 + 0x1118\n  3440: a3 = u64 [a3 + 0x228]\n  3444: a4 = s1 + 0x2918\n  3448: a5 = a4 + 0x300\n  3452: u64 [a5 + 0x60] = a0\n  3455: u64 [a5 + 0x58] = a1\n  3458: u64 [a5 + 0x50] = a2\n  3461: u64 [a5 + 0x48] = a3\n  3464: a1 = s1 + 0x2c60\n  3468: a0 = u64 [s1 + 0x168]\n  3472: ra = 82, jump @28\n      : @142 [@dyn 41] (gas: 3)\n  3477: a0 = s1 + 0x12e0\n  3481: a1 = u64 [s1 + 0x180]\n  3485: ra = 84, jump @26\n      : @143 [@dyn 42] (gas: 32)\n  3490: a0 = s1 + 0x1118\n  3494: a3 = u64 [a0 + 0x1c8]\n  3498: a0 = s1 + 0x1118\n  3502: a0 = u64 [a0 + 0x1d0]\n  3506: a1 = s1 + 0x1118\n  3510: a1 = u64 [a1 + 0x1d8]\n  3514: a2 = s1 + 0x1118\n  3518: a2 = u64 [a2 + 0x1e0]\n  3522: a4 = s1 + 0x1118\n  3526: a5 = u64 [s1 + 0x178]\n  3530: u64 [a4 + 0x180] = a5\n  3534: a4 = s1 + 0x1118\n  3538: a5 = u64 [s1 + 0x198]\n  3542: u64 [a4 + 0x178] = a5\n  3546: a4 = s1 + 0x1118\n  3550: a5 = u64 [s1 + 0x190]\n  3554: u64 [a4 + 0x170] = a5\n  3558: a4 = s1 + 0x1118\n  3562: a5 = u64 [s1 + 0x188]\n  3566: u64 [a4 + 0x168] = a5\n  3570: a4 = s1 + 0x1118\n  3574: u64 [a4 + 0x1a0] = a2\n  3578: a2 = s1 + 0x1118\n  3582: u64 [a2 + 0x198] = a1\n  3586: a1 = s1 + 0x1118\n  3590: u64 [a1 + 0x190] = a0\n  3594: a0 = s1 + 0x12c0\n  3598: a1 = s1 + 0x12a0\n  3602: a2 = s1 + 0x1280\n  3606: a4 = s1 + 0x1118\n  3610: u64 [a4 + 0x188] = a3\n  3614: ra = 86, jump @1305\n      : @144 [@dyn 43] (gas: 17)\n  3619: a0 = s1 + 0x1118\n  3623: a0 = u64 [a0 + 0x1c0]\n  3627: a1 = s1 + 0x1118\n  3631: a1 = u64 [a1 + 0x1b8]\n  3635: a2 = s1 + 0x1118\n  3639: a2 = u64 [a2 + 0x1b0]\n  3643: a3 = s1 + 0x1118\n  3647: a3 = u64 [a3 + 0x1a8]\n  3651: a4 = s1 + 0x2918\n  3655: a5 = a4 + 0x300\n  3659: u64 [a5 + 0x80] = a0\n  3663: u64 [a5 + 0x78] = a1\n  3666: u64 [a5 + 0x70] = a2\n  3669: u64 [a5 + 0x68] = a3\n  3672: a1 = s1 + 0x2c80\n  3676: a0 = u64 [s1 + 0x180]\n  3680: ra = 88, jump @28\n      : @145 [@dyn 44] (gas: 3)\n  3685: a0 = s1 + 0x1260\n  3689: a1 = 0x40\n  3692: ra = 90, jump @22\n      : @146 [@dyn 45] (gas: 14)\n  3697: a3 = s1 + 0x1118\n  3701: a5 = a3 + 0x100\n  3705: a0 = u64 [a5 + 0x60]\n  3708: a1 = u64 [a5 + 0x58]\n  3711: a2 = u64 [a5 + 0x50]\n  3714: a4 = u64 [a5 + 0x48]\n  3717: a0 = a0 | a2\n  3720: a2 = a4 | a1\n  3723: a2 = a2 | a0\n  3726: a2 = a2 >> 0x20\n  3729: a0 = a0 | a1\n  3732: a0 = a0 << 0x20\n  3735: a0 = a0 | a2\n  3738: jump @148 if a0 == 0\n      : @147 (gas: 1)\n  3741: jump @782\n      : @148 (gas: 13)\n  3744: a0 = u64 [s1 + 0x188]\n  3748: a2 = a3 + 0x100\n  3752: u64 [a2 + 0x28] = a0\n  3755: a0 = u64 [s1 + 0x190]\n  3759: u64 [a2 + 0x30] = a0\n  3762: a0 = u64 [s1 + 0x198]\n  3766: u64 [a2 + 0x38] = a0\n  3769: a1 = s1 + 0x1240\n  3773: a0 = u64 [s1 + 0x178]\n  3777: u64 [a2 + 0x40] = a0\n  3780: a0 = a4\n  3782: u64 [s1 + 0x198] = a4\n  3786: ra = 92, jump @24\n      : @149 [@dyn 46] (gas: 6)\n  3791: a0 = u64 [s1 + 0x150]\n  3795: ra = 0x5e\n  3798: ecalli 4 // 'caller'\n  3800: a2 = u64 [s1 + 0x170]\n  3804: t0 = 0x60\n  3807: jump @1430\n      : @150 [@dyn 47] (gas: 2)\n  3811: a2 = u64 [s1 + 0x170]\n  3815: t0 = 96, jump @1430\n      : @151 [@dyn 48] (gas: 24)\n  3821: t0 = a1 | a0\n  3824: a3 = a3 >> 0x20\n  3827: a2 = reverse a2\n  3829: a1 = a2 << 0x20\n  3832: a1 = a1 | a3\n  3835: a2 = a2 >> 0x20\n  3838: a3 = u64 [0x20080]\n  3843: a0 = s1 + 0x1118\n  3847: u64 [a0 + 0x120] = a3\n  3851: a3 = u64 [0x20088]\n  3856: a4 = u64 [0x20090]\n  3861: a5 = u64 [0x20098]\n  3866: u64 [a0 + 0x118] = a3\n  3870: u64 [a0 + 0x110] = a4\n  3874: u64 [a0 + 256] = 0\n  3878: u64 [a0 + 0x108] = a5\n  3882: u64 [a0 + 0xf8] = a2\n  3886: u64 [a0 + 0xf0] = a1\n  3890: a1 = 0x20\n  3893: a2 = s1 + 0x1220\n  3897: a3 = s1 + 0x1200\n  3901: u64 [a0 + 0xe8] = t0\n  3905: a0 = u64 [s1 + 0x198]\n  3909: ra = 98, jump @29\n      : @152 [@dyn 49] (gas: 7)\n  3914: a0 = 0\n  3916: a1 = u64 [s1 + 0x158]\n  3920: a2 = 0\n  3922: ra = 0x3ce\n  3926: ecalli 13 // 'seal_return'\n  3928: t0 = 0x3d0\n  3932: jump @1484\n      : @153 (gas: 9)\n  3936: u64 [a2 + 0] = 0\n  3938: u64 [a2 + 4294967288] = 0\n  3941: u64 [a2 + 4294967280] = 0\n  3944: u64 [a2 + 4294967272] = 0\n  3947: a0 = s1 + 0x3000\n  3951: i32 a0 = a0 + 0xfffffffffffff900\n  3955: ra = 0x64\n  3958: ecalli 16 // 'value_transferred'\n  3960: fallthrough\n      : @154 [@dyn 50] (gas: 10)\n  3961: a3 = s1 + 0x2918\n  3965: a4 = a3 + 0xffffffffffffff00\n  3969: a0 = u64 [a4 + 0xf8]\n  3973: a1 = u64 [a3]\n  3975: a2 = u64 [a4 + 0xf0]\n  3979: a3 = u64 [a4 + 0xe8]\n  3983: a1 = a1 | a2\n  3986: a0 = a0 | a3\n  3989: a0 = a0 | a1\n  3992: jump @156 if a0 == 0\n      : @155 (gas: 1)\n  3995: jump @802\n      : @156 (gas: 1)\n  3998: t0 = 102, jump @1484\n      : @157 [@dyn 51] (gas: 1)\n  4004: jump @159 if a1 <u a0\n      : @158 (gas: 1)\n  4007: jump @803\n      : @159 (gas: 6)\n  4010: a0 = s1 + 0x3000\n  4014: i32 a0 = a0 + 0xfffffffffffff920\n  4018: a1 = 0x4\n  4021: ra = 0x68\n  4024: ecalli 2 // 'call_data_load'\n  4026: fallthrough\n      : @160 [@dyn 52] (gas: 6)\n  4027: a0 = s1 + 0x2918\n  4031: a1 = u64 [a0 + 0x20]\n  4034: a2 = u64 [a0 + 0x18]\n  4037: a3 = u64 [a0 + 0x10]\n  4040: a4 = u64 [a0 + 0x8]\n  4043: t0 = 106, jump @1483\n      : @161 [@dyn 53] (gas: 1)\n  4049: jump @163 if a0 != 0\n      : @162 (gas: 1)\n  4052: jump @804\n      : @163 (gas: 9)\n  4055: a0 = 0x30190\n  4060: u64 [s1 + 0x198] = a0\n  4064: i32 a0 = a0 + 0\n  4066: u64 [s1 + 0x168] = a0\n  4070: ra = 0x6c\n  4073: ecalli 4 // 'caller'\n  4075: a2 = u64 [s1 + 0x198]\n  4079: t0 = 0x6e\n  4082: jump @1436\n      : @164 [@dyn 54] (gas: 2)\n  4086: a2 = u64 [s1 + 0x198]\n  4090: t0 = 110, jump @1436\n      : @165 [@dyn 55] (gas: 7)\n  4096: u64 [s1 + 1464] = 0\n  4100: u64 [s1 + 0x5b0] = a1\n  4104: u64 [s1 + 0x5a8] = a0\n  4108: a1 = s1 + 0x5a0\n  4112: u64 [s1 + 0x5a0] = a3\n  4116: a0 = 0\n  4118: ra = 112, jump @24\n      : @166 [@dyn 56] (gas: 7)\n  4123: u64 [s1 + 1432] = 0\n  4127: u64 [s1 + 1424] = 0\n  4131: u64 [s1 + 1408] = 0x1\n  4136: a0 = 0x20\n  4139: a1 = s1 + 0x580\n  4143: u64 [s1 + 1416] = 0\n  4147: ra = 114, jump @24\n      : @167 [@dyn 57] (gas: 7)\n  4152: a0 = sp + 0xffffffffffffffe0\n  4155: a0 = a0 & 0xffffffffffffffe0\n  4158: u64 [s1 + 0x170] = a0\n  4162: sp = a0\n  4164: a2 = 0x20180\n  4169: a0 = i32 [0x20180]\n  4174: jump @169 if a0 >u 63\n      : @168 (gas: 2)\n  4178: u32 [0x20180] = 0x40\n  4184: fallthrough\n      : @169 (gas: 16)\n  4185: u64 [s1 + 0x140] = a2\n  4189: a0 = sp + 0xffffffffffffffe0\n  4192: a2 = a0 & 0xffffffffffffffe0\n  4195: u64 [s1 + 0x158] = a2\n  4199: sp = a2\n  4201: a0 = 0x20190\n  4206: u64 [s1 + 0x160] = a0\n  4210: i32 a0 = a0 + 0\n  4212: i32 a2 = a2 + 0\n  4214: a1 = 0x40\n  4217: u64 [s1 + 0x148] = a0\n  4221: ra = 0x74\n  4224: ecalli 8 // 'hash_keccak_256'\n  4226: a3 = u64 [s1 + 0x158]\n  4230: t0 = 0x76\n  4233: jump @1437\n      : @170 [@dyn 58] (gas: 2)\n  4237: a3 = u64 [s1 + 0x158]\n  4241: t0 = 118, jump @1437\n      : @171 [@dyn 59] (gas: 7)\n  4247: a1 = u64 [s1 + 0x170]\n  4251: u64 [a1 + 0x18] = a3\n  4254: u64 [a1 + 0x10] = a2\n  4257: u64 [a1 + 0x8] = a4\n  4260: u64 [a1] = a0\n  4262: a0 = s1 + 0x560\n  4266: ra = 120, jump @26\n      : @172 [@dyn 60] (gas: 20)\n  4271: t0 = u64 [s1 + 0x578]\n  4275: a1 = u64 [s1 + 0x568]\n  4279: t2 = u64 [s1 + 0x570]\n  4283: t1 = u64 [s1 + 0x560]\n  4287: ra = u64 [s1 + 0x180]\n  4291: a0 = t0 ^ ra\n  4294: a2 = u64 [s1 + 0x190]\n  4298: a5 = a1 ^ a2\n  4301: a3 = a1 <u a2\n  4304: a2 = u64 [s1 + 0x188]\n  4308: a2 = t1 <u a2\n  4311: a2 = a3 if a5 != 0\n  4314: a3 = t0 <u ra\n  4317: a4 = u64 [s1 + 0x178]\n  4321: a5 = t2 <u a4\n  4324: a5 = a3 if a0 != 0\n  4327: a3 = t2 ^ a4\n  4330: a3 = a3 | a0\n  4333: a2 = a5 if a3 != 0\n  4336: jump @174 if a2 == 0\n      : @173 (gas: 1)\n  4339: jump @808\n      : @174 (gas: 14)\n  4342: a0 = u64 [s1 + 0x188]\n  4346: u64 [s1 + 0x500] = a0\n  4350: u64 [s1 + 0x520] = t1\n  4354: a0 = u64 [s1 + 0x190]\n  4358: u64 [s1 + 0x508] = a0\n  4362: u64 [s1 + 0x528] = a1\n  4366: u64 [s1 + 0x510] = a4\n  4370: u64 [s1 + 0x530] = t2\n  4374: u64 [s1 + 0x518] = ra\n  4378: a0 = s1 + 0x540\n  4382: a1 = s1 + 0x520\n  4386: a2 = s1 + 0x500\n  4390: u64 [s1 + 0x538] = t0\n  4394: ra = 122, jump @1266\n      : @175 [@dyn 61] (gas: 13)\n  4399: a4 = s1 + 0x500\n  4403: a0 = u64 [a4 + 0x58]\n  4406: a1 = u64 [a4 + 0x50]\n  4409: a2 = u64 [a4 + 0x48]\n  4412: a3 = u64 [a4 + 0x40]\n  4415: a4 = s1 + 0x2918\n  4419: u64 [a4 + 0x40] = a0\n  4422: u64 [a4 + 0x38] = a1\n  4425: u64 [a4 + 0x30] = a2\n  4428: u64 [a4 + 0x28] = a3\n  4431: a1 = s1 + 0x2940\n  4435: a0 = u64 [s1 + 0x170]\n  4439: ra = 124, jump @28\n      : @176 [@dyn 62] (gas: 5)\n  4444: a0 = u64 [s1 + 0x168]\n  4448: ra = 0x7e\n  4451: ecalli 4 // 'caller'\n  4453: t0 = 0x80\n  4457: jump @1485\n      : @177 [@dyn 63] (gas: 1)\n  4461: t0 = 128, jump @1485\n      : @178 [@dyn 64] (gas: 4)\n  4468: ra = 0x82\n  4472: ecalli 10 // 'ref_time_left'\n  4474: t0 = 0x84\n  4478: jump @1455\n      : @179 [@dyn 65] (gas: 1)\n  4482: t0 = 132, jump @1455\n      : @180 [@dyn 66] (gas: 36)\n  4489: u64 [a2 + 0x60] = a1\n  4492: a1 = u64 [s1 + 0x178]\n  4496: u64 [a2 + 0x58] = a1\n  4499: a1 = u64 [s1 + 0x190]\n  4503: u64 [a2 + 0x50] = a1\n  4506: a1 = u64 [s1 + 0x188]\n  4510: u64 [a2 + 0x48] = a1\n  4513: u32 [a2 + 104] = 0\n  4516: a0 = a0 >u 0x8fc\n  4520: a1 = -a0\n  4522: u64 [a2 + 0xa0] = a1\n  4526: u64 [a2 + 0x98] = a1\n  4530: u64 [a2 + 0x90] = a1\n  4534: u64 [a2 + 0x88] = a1\n  4538: a1 = a3 << 0x20\n  4541: a1 = a1 >> 0x20\n  4544: a0 = a0 << 0x23\n  4547: a0 = a0 | a1\n  4550: a1 = s1 + 0x2960\n  4554: a1 = a1 << 0x20\n  4557: a1 = a1 >> 0x20\n  4560: a2 = s1 + 0x29a0\n  4564: a2 = a2 << 0x20\n  4567: a3 = a2 | a1\n  4570: a4 = u64 [s1 + 0x160]\n  4574: a4 = a4 << 0x20\n  4577: a4 = a4 >> 0x20\n  4580: a1 = s1 + 0x2980\n  4584: a1 = a1 << 0x20\n  4587: a5 = a1 | a4\n  4590: a1 = 0xffffffffffffffff\n  4593: a2 = 0xffffffffffffffff\n  4596: ecalli 0 // 'call'\n  4597: u64 [s1 + 0x170] = a0\n  4601: a0 = s1 + 0x4e0\n  4605: ra = 134, jump @1281\n      : @181 [@dyn 67] (gas: 2)\n  4611: a0 = u64 [s1 + 0x170]\n  4615: jump @183 if a0 == 0\n      : @182 (gas: 1)\n  4618: jump @809\n      : @183 (gas: 3)\n  4621: a0 = s1 + 0x4a0\n  4625: a1 = 0x40\n  4628: ra = 136, jump @22\n      : @184 [@dyn 68] (gas: 6)\n  4634: a4 = s1 + 0x400\n  4638: a0 = u64 [a4 + 0xb8]\n  4642: a1 = u64 [a4 + 0xb0]\n  4646: a2 = u64 [a4 + 0xa8]\n  4650: a3 = u64 [a4 + 0xa0]\n  4654: t0 = 138, jump @1450\n      : @185 [@dyn 69] (gas: 1)\n  4661: jump @187 if a0 == 0\n      : @186 (gas: 1)\n  4664: jump @782\n      : @187 (gas: 12)\n  4667: a0 = u64 [s1 + 0x188]\n  4671: u64 [s1 + 0x480] = a0\n  4675: a0 = u64 [s1 + 0x190]\n  4679: u64 [s1 + 0x488] = a0\n  4683: a0 = u64 [s1 + 0x178]\n  4687: u64 [s1 + 0x490] = a0\n  4691: a1 = s1 + 0x480\n  4695: a0 = u64 [s1 + 0x180]\n  4699: u64 [s1 + 0x498] = a0\n  4703: a0 = a3\n  4705: u64 [s1 + 0x190] = a3\n  4709: ra = 140, jump @24\n      : @188 [@dyn 70] (gas: 6)\n  4715: a0 = u64 [s1 + 0x168]\n  4719: ra = 0x8e\n  4723: ecalli 4 // 'caller'\n  4725: a2 = u64 [s1 + 0x198]\n  4729: t0 = 0x90\n  4733: jump @1430\n      : @189 [@dyn 71] (gas: 2)\n  4737: a2 = u64 [s1 + 0x198]\n  4741: t0 = 144, jump @1430\n      : @190 [@dyn 72] (gas: 25)\n  4748: t0 = a1 | a0\n  4751: a3 = a3 >> 0x20\n  4754: a2 = reverse a2\n  4756: a1 = a2 << 0x20\n  4759: a1 = a1 | a3\n  4762: a2 = a2 >> 0x20\n  4765: u64 [s1 + 1112] = 0\n  4769: a3 = u64 [0x20100]\n  4774: a4 = u64 [0x20108]\n  4779: a5 = u64 [0x20110]\n  4784: a0 = u64 [0x20118]\n  4789: u64 [s1 + 0x478] = a3\n  4793: a3 = s1 + 0x400\n  4797: u64 [a3 + 0x70] = a4\n  4800: u64 [a3 + 0x68] = a5\n  4803: u64 [a3 + 0x60] = a0\n  4806: u64 [a3 + 0x50] = a2\n  4809: u64 [a3 + 0x48] = a1\n  4812: a1 = 0x20\n  4815: a2 = s1 + 0x460\n  4819: a3 = s1 + 0x440\n  4823: u64 [s1 + 0x440] = t0\n  4827: a0 = u64 [s1 + 0x190]\n  4831: ra = 0xe6\n  4835: jump @29\n      : @191 (gas: 9)\n  4838: u64 [a3 + 1856] = 0\n  4842: u64 [a3 + 1848] = 0\n  4846: u64 [a3 + 1840] = 0\n  4850: u64 [a3 + 1832] = 0\n  4854: a0 = s1 + 0x3000\n  4858: i32 a0 = a0 + 0xfffffffffffff840\n  4862: ra = 0x92\n  4866: ecalli 16 // 'value_transferred'\n  4868: fallthrough\n      : @192 [@dyn 73] (gas: 10)\n  4869: a3 = s1 + 0x2118\n  4873: a4 = a3 + 0x700\n  4877: a0 = u64 [a4 + 0x38]\n  4880: a1 = u64 [a4 + 0x40]\n  4883: a2 = u64 [a4 + 0x30]\n  4886: a3 = u64 [a4 + 0x28]\n  4889: a1 = a1 | a2\n  4892: a0 = a0 | a3\n  4895: a0 = a0 | a1\n  4898: jump @194 if a0 == 0\n      : @193 (gas: 1)\n  4901: jump @810\n      : @194 (gas: 1)\n  4904: t0 = 148, jump @1484\n      : @195 [@dyn 74] (gas: 1)\n  4911: jump @197 if a1 <u a0\n      : @196 (gas: 1)\n  4914: jump @811\n      : @197 (gas: 4)\n  4917: a0 = s1 + 0x3a0\n  4921: ra = 0x96\n  4925: t0 = 0x512\n  4929: jump @1487\n      : @198 [@dyn 75] (gas: 10)\n  4933: a0 = u64 [s1 + 0x3a0]\n  4937: a1 = u64 [s1 + 0x3a8]\n  4941: a2 = u32 [s1 + 0x3b0]\n  4945: u64 [s1 + 920] = 0\n  4949: u64 [s1 + 0x390] = a2\n  4953: u64 [s1 + 0x388] = a1\n  4957: a1 = s1 + 0x380\n  4961: u64 [s1 + 0x380] = a0\n  4965: a0 = 0\n  4967: ra = 152, jump @24\n      : @199 [@dyn 76] (gas: 7)\n  4973: u64 [s1 + 888] = 0\n  4977: u64 [s1 + 880] = 0\n  4981: u64 [s1 + 864] = 0x1\n  4986: a0 = 0x20\n  4989: a1 = s1 + 0x360\n  4993: u64 [s1 + 872] = 0\n  4997: ra = 154, jump @24\n      : @200 [@dyn 77] (gas: 6)\n  5003: a0 = sp + 0xffffffffffffffe0\n  5006: a0 = a0 & 0xffffffffffffffe0\n  5009: u64 [s1 + 0x178] = a0\n  5013: sp = a0\n  5015: a1 = i32 [0x20180]\n  5020: jump @202 if a1 >u 63\n      : @201 (gas: 4)\n  5024: a1 = 0x40\n  5027: u32 [0x20180] = a1\n  5032: t0 = 0x9c\n  5036: jump @1466\n      : @202 (gas: 1)\n  5040: t0 = 156, jump @1466\n      : @203 [@dyn 78] (gas: 25)\n  5047: a0 = 0x20190\n  5052: i32 a0 = a0 + 0\n  5054: i32 a2 = a2 + 0\n  5056: a1 = 0x40\n  5059: ecalli 8 // 'hash_keccak_256'\n  5061: a3 = u64 [s1 + 0x198]\n  5065: a0 = u64 [a3 + 0x18]\n  5068: a1 = u64 [a3 + 0x10]\n  5071: a2 = u64 [a3 + 0x8]\n  5074: a3 = u64 [a3]\n  5076: a5 = reverse a0\n  5078: u64 [s1 + 0x188] = a5\n  5082: a4 = reverse a1\n  5084: u64 [s1 + 0x190] = a4\n  5088: a2 = reverse a2\n  5090: u64 [s1 + 0x180] = a2\n  5094: a0 = reverse a3\n  5096: u64 [s1 + 0x198] = a0\n  5100: a1 = u64 [s1 + 0x178]\n  5104: u64 [a1 + 0x18] = a0\n  5107: u64 [a1 + 0x10] = a2\n  5110: u64 [a1 + 0x8] = a4\n  5113: u64 [a1] = a5\n  5115: a0 = s1 + 0x340\n  5119: ra = 158, jump @26\n      : @204 [@dyn 79] (gas: 29)\n  5125: a0 = u64 [s1 + 0x358]\n  5129: u64 [s1 + 0x178] = a0\n  5133: a0 = u64 [s1 + 0x350]\n  5137: u64 [s1 + 0x170] = a0\n  5141: a0 = u64 [s1 + 0x348]\n  5145: u64 [s1 + 0x168] = a0\n  5149: a0 = u64 [s1 + 0x340]\n  5153: u64 [s1 + 0x160] = a0\n  5157: a0 = u64 [s1 + 0x188]\n  5161: a0 = a0 + 0x1\n  5164: a1 = a0 <u 0x1\n  5167: a2 = u64 [s1 + 0x190]\n  5171: a1 = a1 + a2\n  5174: a2 = s1 + 0x2118\n  5178: a3 = a2 + 0x700\n  5182: u64 [a3 + 0x50] = a1\n  5185: a1 = a1 | a0\n  5188: u64 [a3 + 0x48] = a0\n  5191: a0 = a1 <u 0x1\n  5194: a1 = u64 [s1 + 0x180]\n  5198: a0 = a0 + a1\n  5201: u64 [a3 + 0x58] = a0\n  5204: a0 = a0 <u a1\n  5207: a1 = u64 [s1 + 0x198]\n  5211: a0 = a0 + a1\n  5214: u64 [a3 + 0x60] = a0\n  5217: a0 = s1 + 0x320\n  5221: a1 = s1 + 0x2860\n  5225: ra = 160, jump @26\n      : @205 [@dyn 80] (gas: 13)\n  5231: a0 = u64 [s1 + 0x338]\n  5235: u64 [s1 + 0x158] = a0\n  5239: a0 = u64 [s1 + 0x330]\n  5243: u64 [s1 + 0x150] = a0\n  5247: a0 = u64 [s1 + 0x328]\n  5251: u64 [s1 + 0x148] = a0\n  5255: a0 = u64 [s1 + 0x320]\n  5259: u64 [s1 + 0x140] = a0\n  5263: a1 = u64 [s1 + 0x188]\n  5267: a0 = a1 + 0x2\n  5270: a1 = a0 <u a1\n  5273: a3 = u64 [s1 + 0x190]\n  5277: t0 = 162, jump @1477\n      : @206 [@dyn 81] (gas: 14)\n  5284: a1 = u64 [s1 + 0x180]\n  5288: a3 = a3 + a1\n  5291: a1 = a3 <u a1\n  5294: a4 = u64 [s1 + 0x198]\n  5298: a1 = a1 + a4\n  5301: a4 = s1 + 0x2118\n  5305: a5 = a4 + 0x700\n  5309: u64 [a5 + 0x80] = a1\n  5313: u64 [a5 + 0x78] = a3\n  5316: u64 [a5 + 0x70] = a2\n  5319: u64 [a5 + 0x68] = a0\n  5322: a0 = s1 + 0x300\n  5326: a1 = s1 + 0x2880\n  5330: ra = 164, jump @26\n      : @207 [@dyn 82] (gas: 10)\n  5336: a5 = s1 + 0x300\n  5340: a0 = u64 [a5 + 0x18]\n  5343: u64 [s1 + 0x138] = a0\n  5347: a0 = u64 [a5 + 0x10]\n  5350: u64 [s1 + 0x130] = a0\n  5354: a1 = u64 [s1 + 0x188]\n  5358: a0 = a1 + 0x3\n  5361: a1 = a0 <u a1\n  5364: a3 = u64 [s1 + 0x190]\n  5368: t0 = 166, jump @1477\n      : @208 [@dyn 83] (gas: 18)\n  5375: a1 = u64 [a5 + 0x8]\n  5378: u64 [s1 + 0x188] = a1\n  5382: a1 = u64 [s1 + 0x180]\n  5386: a3 = a3 + a1\n  5389: a1 = a3 <u a1\n  5392: a4 = u64 [s1 + 0x198]\n  5396: a1 = a1 + a4\n  5399: a4 = u64 [a5]\n  5401: u64 [s1 + 0x180] = a4\n  5405: a4 = s1 + 0x2118\n  5409: a5 = a4 + 0x700\n  5413: u64 [a5 + 0xa0] = a1\n  5417: u64 [a5 + 0x98] = a3\n  5421: u64 [a5 + 0x90] = a2\n  5425: u64 [a5 + 0x88] = a0\n  5429: a0 = s1 + 0x2e0\n  5433: a1 = s1 + 0x28a0\n  5437: ra = 168, jump @26\n      : @209 [@dyn 84] (gas: 5)\n  5443: a0 = u64 [s1 + 0x2e0]\n  5447: u64 [s1 + 0x128] = a0\n  5451: a0 = s1 + 0x2c0\n  5455: a1 = 0x40\n  5458: ra = 170, jump @22\n      : @210 [@dyn 85] (gas: 13)\n  5464: a0 = s1 + 0x200\n  5468: a4 = u64 [a0 + 0xd8]\n  5472: a5 = u64 [a0 + 0xd0]\n  5476: a3 = u64 [a0 + 0xc8]\n  5480: a2 = u64 [a0 + 0xc0]\n  5484: a0 = a3 | a4\n  5487: a1 = a2 | a5\n  5490: a1 = a1 | a0\n  5493: a1 = a1 >> 0x20\n  5496: a0 = a0 | a5\n  5499: a0 = a0 << 0x20\n  5502: a0 = a0 | a1\n  5505: jump @212 if a0 == 0\n      : @211 (gas: 1)\n  5508: jump @782\n      : @212 (gas: 15)\n  5511: a0 = u64 [s1 + 0x160]\n  5515: u64 [s1 + 0x2a0] = a0\n  5519: a0 = u64 [s1 + 0x168]\n  5523: u64 [s1 + 0x2a8] = a0\n  5527: a0 = u64 [s1 + 0x170]\n  5531: u64 [s1 + 0x2b0] = a0\n  5535: a1 = s1 + 0x2a0\n  5539: a0 = u64 [s1 + 0x178]\n  5543: u64 [s1 + 0x2b8] = a0\n  5547: a0 = a2\n  5549: u64 [s1 + 0x198] = a2\n  5553: u64 [s1 + 0x190] = a3\n  5557: u64 [s1 + 0x178] = a4\n  5561: u64 [s1 + 0x170] = a5\n  5565: ra = 172, jump @24\n      : @213 [@dyn 86] (gas: 6)\n  5571: a5 = s1 + 0x100\n  5575: a1 = u64 [a5 + 0x98]\n  5579: a0 = u64 [a5 + 0x78]\n  5582: a3 = u64 [a5 + 0x70]\n  5585: a3 = a3 | a0\n  5588: t0 = 174, jump @1479\n      : @214 [@dyn 87] (gas: 1)\n  5595: jump @216 if a0 != 0\n      : @215 (gas: 1)\n  5598: jump @782\n      : @216 (gas: 14)\n  5601: i32 a0 = a1 + 0x20\n  5604: a1 = u64 [s1 + 0x140]\n  5608: a5 = s1 + 0x200\n  5612: u64 [a5 + 0x80] = a1\n  5616: a1 = u64 [s1 + 0x148]\n  5620: u64 [a5 + 0x88] = a1\n  5624: a1 = u64 [s1 + 0x150]\n  5628: u64 [a5 + 0x90] = a1\n  5632: a1 = s1 + 0x280\n  5636: a2 = u64 [s1 + 0x158]\n  5640: u64 [a5 + 0x98] = a2\n  5644: u64 [s1 + 0x178] = a3\n  5648: u64 [s1 + 0x170] = a4\n  5652: ra = 176, jump @24\n      : @217 [@dyn 88] (gas: 10)\n  5658: a2 = s1 + 0x100\n  5662: a4 = u64 [a2 + 0x78]\n  5665: a3 = u64 [a2 + 0x90]\n  5669: a1 = u64 [a2 + 0x98]\n  5673: a0 = u64 [a2 + 0x70]\n  5676: a0 = a0 + 0xffffffffffffffc0\n  5679: a0 = a1 <u a0\n  5682: a0 = 0 if a3 != 0\n  5684: a0 = 0 if a4 != 0\n  5686: jump @219 if a0 != 0\n      : @218 (gas: 1)\n  5689: jump @782\n      : @219 (gas: 12)\n  5692: i32 a0 = a1 + 0x40\n  5695: a1 = u64 [s1 + 0x180]\n  5699: a3 = s1 + 0x200\n  5703: u64 [a3 + 0x60] = a1\n  5706: a1 = u64 [s1 + 0x188]\n  5710: u64 [a3 + 0x68] = a1\n  5713: a1 = u64 [s1 + 0x130]\n  5717: u64 [a3 + 0x70] = a1\n  5720: a1 = s1 + 0x260\n  5724: a2 = u64 [s1 + 0x138]\n  5728: u64 [a3 + 0x78] = a2\n  5731: ra = 178, jump @24\n      : @220 [@dyn 89] (gas: 9)\n  5737: a3 = s1 + 0x100\n  5741: a2 = u64 [a3 + 0x98]\n  5745: a0 = 0xffffffa0\n  5755: a0 = a2 <u a0\n  5758: a1 = u64 [a3 + 0x90]\n  5762: a0 = 0 if a1 != 0\n  5764: a1 = u64 [a3 + 0x78]\n  5767: a0 = 0 if a1 != 0\n  5769: jump @222 if a0 != 0\n      : @221 (gas: 1)\n  5772: jump @782\n      : @222 (gas: 10)\n  5775: a0 = u64 [s1 + 0x128]\n  5779: a0 = a0 << 0x20\n  5782: a1 = a0 >> 0x20\n  5785: i32 a0 = a2 + 0x60\n  5788: u64 [s1 + 600] = 0\n  5792: u64 [s1 + 592] = 0\n  5796: u64 [s1 + 0x240] = a1\n  5800: a1 = s1 + 0x240\n  5804: u64 [s1 + 584] = 0\n  5808: ra = 180, jump @24\n      : @223 [@dyn 90] (gas: 3)\n  5814: a1 = 0x80\n  5818: a0 = u64 [s1 + 0x198]\n  5822: ra = 182, jump @37\n      : @224 [@dyn 91] (gas: 6)\n  5828: i32 a1 = a0 + 0\n  5830: a2 = 0x80\n  5834: a0 = 0\n  5836: ra = 0x36c\n  5840: ecalli 13 // 'seal_return'\n  5842: jump @890\n      : @225 (gas: 9)\n  5845: u64 [a2 + 192] = 0\n  5849: u64 [a2 + 184] = 0\n  5853: u64 [a2 + 176] = 0\n  5857: u64 [a2 + 168] = 0\n  5861: a0 = s1 + 0x3000\n  5865: i32 a0 = a0 + 0xfffffffffffff9c0\n  5869: ra = 0xb8\n  5873: ecalli 16 // 'value_transferred'\n  5875: fallthrough\n      : @226 [@dyn 92] (gas: 9)\n  5876: a3 = s1 + 0x2918\n  5880: a0 = u64 [a3 + 0xb8]\n  5884: a1 = u64 [a3 + 0xc0]\n  5888: a2 = u64 [a3 + 0xb0]\n  5892: a3 = u64 [a3 + 0xa8]\n  5896: a1 = a1 | a2\n  5899: a0 = a0 | a3\n  5902: a0 = a0 | a1\n  5905: jump @228 if a0 == 0\n      : @227 (gas: 1)\n  5908: jump @812\n      : @228 (gas: 1)\n  5911: t0 = 186, jump @1484\n      : @229 [@dyn 93] (gas: 1)\n  5918: jump @231 if a1 <u a0\n      : @230 (gas: 1)\n  5921: jump @813\n      : @231 (gas: 6)\n  5924: a0 = s1 + 0x3000\n  5928: i32 a0 = a0 + 0xfffffffffffff9e0\n  5932: a1 = 0x4\n  5935: ra = 0xbc\n  5939: ecalli 2 // 'call_data_load'\n  5941: fallthrough\n      : @232 [@dyn 94] (gas: 6)\n  5942: a0 = s1 + 0x2918\n  5946: a1 = u64 [a0 + 0xe0]\n  5950: a2 = u64 [a0 + 0xd8]\n  5954: a3 = u64 [a0 + 0xd0]\n  5958: a4 = u64 [a0 + 0xc8]\n  5962: t0 = 190, jump @1483\n      : @233 [@dyn 95] (gas: 1)\n  5969: jump @235 if a0 != 0\n      : @234 (gas: 1)\n  5972: jump @814\n      : @235 (gas: 9)\n  5975: a0 = 0x30190\n  5980: u64 [s1 + 0x198] = a0\n  5984: i32 a0 = a0 + 0\n  5986: u64 [s1 + 0x168] = a0\n  5990: ra = 0xc0\n  5994: ecalli 4 // 'caller'\n  5996: a2 = u64 [s1 + 0x198]\n  6000: t0 = 0xc2\n  6004: jump @1436\n      : @236 [@dyn 96] (gas: 2)\n  6008: a2 = u64 [s1 + 0x198]\n  6012: t0 = 194, jump @1436\n      : @237 [@dyn 97] (gas: 7)\n  6019: u64 [s1 + 1912] = 0\n  6023: u64 [s1 + 0x770] = a1\n  6027: u64 [s1 + 0x768] = a0\n  6031: a1 = s1 + 0x760\n  6035: u64 [s1 + 0x760] = a3\n  6039: a0 = 0\n  6041: ra = 196, jump @24\n      : @238 [@dyn 98] (gas: 7)\n  6047: u64 [s1 + 1880] = 0\n  6051: u64 [s1 + 1872] = 0\n  6055: u64 [s1 + 1856] = 0x1\n  6060: a0 = 0x20\n  6063: a1 = s1 + 0x740\n  6067: u64 [s1 + 1864] = 0\n  6071: ra = 198, jump @24\n      : @239 [@dyn 99] (gas: 7)\n  6077: a0 = sp + 0xffffffffffffffe0\n  6080: a0 = a0 & 0xffffffffffffffe0\n  6083: u64 [s1 + 0x170] = a0\n  6087: sp = a0\n  6089: a2 = 0x20180\n  6094: a0 = i32 [0x20180]\n  6099: jump @241 if a0 >u 63\n      : @240 (gas: 2)\n  6103: u32 [0x20180] = 0x40\n  6109: fallthrough\n      : @241 (gas: 14)\n  6110: u64 [s1 + 0x140] = a2\n  6114: a0 = sp + 0xffffffffffffffe0\n  6117: a2 = a0 & 0xffffffffffffffe0\n  6120: u64 [s1 + 0x158] = a2\n  6124: sp = a2\n  6126: a0 = 0x20190\n  6131: u64 [s1 + 0x160] = a0\n  6135: i32 a0 = a0 + 0\n  6137: i32 a2 = a2 + 0\n  6139: a1 = 0x40\n  6142: u64 [s1 + 0x148] = a0\n  6146: ra = 0xc8\n  6150: ecalli 8 // 'hash_keccak_256'\n  6152: fallthrough\n      : @242 [@dyn 100] (gas: 11)\n  6153: a3 = u64 [s1 + 0x158]\n  6157: a0 = u64 [a3]\n  6159: a1 = u64 [a3 + 0x8]\n  6162: a2 = u64 [a3 + 0x10]\n  6165: a3 = u64 [a3 + 0x18]\n  6168: a0 = reverse a0\n  6170: a1 = reverse a1\n  6172: a2 = reverse a2\n  6174: a3 = reverse a3\n  6176: a4 = a3 + 0x2\n  6179: t0 = 202, jump @1441\n      : @243 [@dyn 101] (gas: 7)\n  6186: a1 = u64 [s1 + 0x170]\n  6190: u64 [a1] = a4\n  6192: u64 [a1 + 0x8] = a5\n  6195: u64 [a1 + 0x10] = a2\n  6198: u64 [a1 + 0x18] = a0\n  6201: a0 = s1 + 0x720\n  6205: ra = 204, jump @26\n      : @244 [@dyn 102] (gas: 20)\n  6211: t0 = u64 [s1 + 0x738]\n  6215: a1 = u64 [s1 + 0x728]\n  6219: t2 = u64 [s1 + 0x730]\n  6223: t1 = u64 [s1 + 0x720]\n  6227: ra = u64 [s1 + 0x180]\n  6231: a0 = t0 ^ ra\n  6234: a2 = u64 [s1 + 0x190]\n  6238: a5 = a1 ^ a2\n  6241: a3 = a1 <u a2\n  6244: a2 = u64 [s1 + 0x188]\n  6248: a2 = t1 <u a2\n  6251: a2 = a3 if a5 != 0\n  6254: a3 = t0 <u ra\n  6257: a4 = u64 [s1 + 0x178]\n  6261: a5 = t2 <u a4\n  6264: a5 = a3 if a0 != 0\n  6267: a3 = t2 ^ a4\n  6270: a3 = a3 | a0\n  6273: a2 = a5 if a3 != 0\n  6276: jump @246 if a2 == 0\n      : @245 (gas: 1)\n  6279: jump @818\n      : @246 (gas: 15)\n  6282: a0 = u64 [s1 + 0x188]\n  6286: a2 = s1 + 0x600\n  6290: u64 [a2 + 0xc0] = a0\n  6294: u64 [s1 + 0x6e0] = t1\n  6298: a0 = u64 [s1 + 0x190]\n  6302: u64 [a2 + 0xc8] = a0\n  6306: u64 [a2 + 0xe8] = a1\n  6310: u64 [a2 + 0xd0] = a4\n  6314: u64 [s1 + 0x6f0] = t2\n  6318: u64 [s1 + 0x6d8] = ra\n  6322: a0 = s1 + 0x700\n  6326: a1 = s1 + 0x6e0\n  6330: a2 = s1 + 0x6c0\n  6334: u64 [s1 + 0x6f8] = t0\n  6338: ra = 206, jump @1266\n      : @247 [@dyn 103] (gas: 13)\n  6344: a4 = s1 + 0x700\n  6348: a0 = u64 [a4 + 0x18]\n  6351: a1 = u64 [a4 + 0x10]\n  6354: a2 = u64 [a4 + 0x8]\n  6357: a3 = u64 [a4]\n  6359: a4 = s1 + 0x2918\n  6363: u64 [a4 + 0x100] = a0\n  6367: u64 [a4 + 0xf8] = a1\n  6371: u64 [a4 + 0xf0] = a2\n  6375: u64 [a4 + 0xe8] = a3\n  6379: a1 = s1 + 0x2a00\n  6383: a0 = u64 [s1 + 0x170]\n  6387: ra = 208, jump @28\n      : @248 [@dyn 104] (gas: 5)\n  6393: a0 = u64 [s1 + 0x168]\n  6397: ra = 0xd2\n  6401: ecalli 4 // 'caller'\n  6403: t0 = 0xd4\n  6407: jump @1485\n      : @249 [@dyn 105] (gas: 1)\n  6411: t0 = 212, jump @1485\n      : @250 [@dyn 106] (gas: 4)\n  6418: ra = 0xd6\n  6422: ecalli 10 // 'ref_time_left'\n  6424: t0 = 0xd8\n  6428: jump @1455\n      : @251 [@dyn 107] (gas: 1)\n  6432: t0 = 216, jump @1455\n      : @252 [@dyn 108] (gas: 37)\n  6439: a4 = a2 + 0x100\n  6443: u64 [a4 + 0x20] = a1\n  6446: a1 = u64 [s1 + 0x178]\n  6450: u64 [a4 + 0x18] = a1\n  6453: a1 = u64 [s1 + 0x190]\n  6457: u64 [a4 + 0x10] = a1\n  6460: a1 = u64 [s1 + 0x188]\n  6464: u64 [a4 + 0x8] = a1\n  6467: u32 [a2 + 296] = 0\n  6471: a0 = a0 >u 0x8fc\n  6475: a1 = -a0\n  6477: u64 [a4 + 0x60] = a1\n  6480: u64 [a4 + 0x58] = a1\n  6483: u64 [a4 + 0x50] = a1\n  6486: u64 [a4 + 0x48] = a1\n  6489: a1 = a3 << 0x20\n  6492: a1 = a1 >> 0x20\n  6495: a0 = a0 << 0x23\n  6498: a0 = a0 | a1\n  6501: a1 = s1 + 0x2a20\n  6505: a1 = a1 << 0x20\n  6508: a1 = a1 >> 0x20\n  6511: a2 = s1 + 0x2a60\n  6515: a2 = a2 << 0x20\n  6518: a3 = a2 | a1\n  6521: a4 = u64 [s1 + 0x160]\n  6525: a4 = a4 << 0x20\n  6528: a4 = a4 >> 0x20\n  6531: a1 = s1 + 0x2a40\n  6535: a1 = a1 << 0x20\n  6538: a5 = a1 | a4\n  6541: a1 = 0xffffffffffffffff\n  6544: a2 = 0xffffffffffffffff\n  6547: ecalli 0 // 'call'\n  6548: u64 [s1 + 0x170] = a0\n  6552: a0 = s1 + 0x6a0\n  6556: ra = 218, jump @1281\n      : @253 [@dyn 109] (gas: 2)\n  6562: a0 = u64 [s1 + 0x170]\n  6566: jump @255 if a0 == 0\n      : @254 (gas: 1)\n  6569: jump @819\n      : @255 (gas: 3)\n  6572: a0 = s1 + 0x660\n  6576: a1 = 0x40\n  6579: ra = 220, jump @22\n      : @256 [@dyn 110] (gas: 6)\n  6585: a4 = s1 + 0x600\n  6589: a0 = u64 [a4 + 0x78]\n  6592: a1 = u64 [a4 + 0x70]\n  6595: a2 = u64 [a4 + 0x68]\n  6598: a3 = u64 [a4 + 0x60]\n  6601: t0 = 222, jump @1450\n      : @257 [@dyn 111] (gas: 1)\n  6608: jump @259 if a0 == 0\n      : @258 (gas: 1)\n  6611: jump @782\n      : @259 (gas: 12)\n  6614: a0 = u64 [s1 + 0x188]\n  6618: u64 [s1 + 0x640] = a0\n  6622: a0 = u64 [s1 + 0x190]\n  6626: u64 [s1 + 0x648] = a0\n  6630: a0 = u64 [s1 + 0x178]\n  6634: u64 [s1 + 0x650] = a0\n  6638: a1 = s1 + 0x640\n  6642: a0 = u64 [s1 + 0x180]\n  6646: u64 [s1 + 0x658] = a0\n  6650: a0 = a3\n  6652: u64 [s1 + 0x190] = a3\n  6656: ra = 224, jump @24\n      : @260 [@dyn 112] (gas: 6)\n  6662: a0 = u64 [s1 + 0x168]\n  6666: ra = 0xe2\n  6670: ecalli 4 // 'caller'\n  6672: a2 = u64 [s1 + 0x198]\n  6676: t0 = 0xe4\n  6680: jump @1430\n      : @261 [@dyn 113] (gas: 2)\n  6683: a2 = u64 [s1 + 0x198]\n  6687: t0 = 228, jump @1430\n      : @262 [@dyn 114] (gas: 24)\n  6693: t0 = a1 | a0\n  6696: a3 = a3 >> 0x20\n  6699: a2 = reverse a2\n  6701: a1 = a2 << 0x20\n  6704: a1 = a1 | a3\n  6707: a2 = a2 >> 0x20\n  6710: u64 [s1 + 1560] = 0\n  6714: a3 = u64 [0x200e0]\n  6719: a4 = u64 [0x200e8]\n  6724: a5 = u64 [0x200f0]\n  6729: a0 = u64 [0x200f8]\n  6734: u64 [s1 + 0x638] = a3\n  6738: a3 = s1 + 0x600\n  6742: u64 [a3 + 0x30] = a4\n  6745: u64 [a3 + 0x28] = a5\n  6748: u64 [a3 + 0x20] = a0\n  6751: u64 [a3 + 0x10] = a2\n  6754: u64 [a3 + 0x8] = a1\n  6757: a1 = 0x20\n  6760: a2 = s1 + 0x620\n  6764: a3 = s1 + 0x600\n  6768: u64 [s1 + 0x600] = t0\n  6772: a0 = u64 [s1 + 0x190]\n  6776: ra = 230, jump @29\n      : @263 [@dyn 115] (gas: 7)\n  6782: a0 = 0\n  6784: a1 = u64 [s1 + 0x148]\n  6788: a2 = 0\n  6790: ra = 0x3ce\n  6794: ecalli 13 // 'seal_return'\n  6796: t0 = 0x3d0\n  6800: jump @1484\n      : @264 (gas: 9)\n  6804: u64 [a2 + 512] = 0\n  6808: u64 [a2 + 504] = 0\n  6812: u64 [a2 + 496] = 0\n  6816: u64 [a2 + 488] = 0\n  6820: a0 = s1 + 0x3000\n  6824: i32 a0 = a0 + 0xfffffffffffffb00\n  6828: ra = 0xe8\n  6832: ecalli 16 // 'value_transferred'\n  6834: fallthrough\n      : @265 [@dyn 116] (gas: 10)\n  6835: a3 = s1 + 0x2918\n  6839: a4 = a3 + 0x100\n  6843: a0 = u64 [a4 + 0xf8]\n  6847: a1 = u64 [a3 + 0x200]\n  6851: a2 = u64 [a4 + 0xf0]\n  6855: a3 = u64 [a4 + 0xe8]\n  6859: a1 = a1 | a2\n  6862: a0 = a0 | a3\n  6865: a0 = a0 | a1\n  6868: jump @267 if a0 == 0\n      : @266 (gas: 1)\n  6871: jump @823\n      : @267 (gas: 1)\n  6874: t0 = 234, jump @1484\n      : @268 [@dyn 117] (gas: 1)\n  6881: jump @270 if a1 <u a0\n      : @269 (gas: 1)\n  6884: jump @824\n      : @270 (gas: 7)\n  6887: a0 = s1 + 0x3000\n  6891: i32 a0 = a0 + 0xfffffffffffffb20\n  6895: a1 = 0x4\n  6898: ra = 0xec\n  6902: ecalli 2 // 'call_data_load'\n  6904: t0 = 0xee\n  6908: jump @1468\n      : @271 [@dyn 118] (gas: 1)\n  6912: t0 = 238, jump @1468\n      : @272 [@dyn 119] (gas: 7)\n  6919: a0 = u64 [a4 + 0x20]\n  6922: a1 = u64 [a4 + 0x18]\n  6925: a2 = u64 [a4 + 0x10]\n  6928: a0 = a0 | a1\n  6931: a1 = a2 <u 0x1\n  6934: a1 = 0 if a0 != 0\n  6936: jump @274 if a1 != 0\n      : @273 (gas: 1)\n  6939: jump @825\n      : @274 (gas: 6)\n  6942: a0 = u64 [a3 + 0x208]\n  6946: u64 [s1 + 0x120] = a0\n  6950: a0 = s1 + 0x3000\n  6954: i32 a0 = a0 + 0xfffffffffffffb40\n  6958: ecalli 9 // 'now'\n  6960: fallthrough\n      : @275 (gas: 49)\n  6961: a0 = s1 + 0x2918\n  6965: t2 = u64 [a0 + 0x240]\n  6969: a3 = u64 [a0 + 0x238]\n  6973: u64 [s1 + 0x150] = a3\n  6977: t0 = u64 [a0 + 0x230]\n  6981: ra = u64 [a0 + 0x228]\n  6985: a0 = clz t2\n  6987: a1 = clz a3\n  6989: a2 = a1 + 0x40\n  6992: a2 = a0 if t2 != 0\n  6995: a0 = clz t0\n  6997: a1 = clz ra\n  6999: a1 = a1 + 0x40\n  7002: a1 = a0 if t0 != 0\n  7005: a0 = a1 + 0x80\n  7009: a3 = a3 | t2\n  7012: a2 = a0 if a3 == 0\n  7015: a5 = a0 <u a1\n  7018: a5 = 0 if a3 != 0\n  7020: a4 = a5 >u 0\n  7022: a0 = a2 <u 0xf0\n  7026: a3 = a0 ^ 0x1\n  7029: a4 = a3 if a5 == 0\n  7032: a0 = a4 <u 0x1\n  7035: a0 = a0 + 0xffffffffffffffff\n  7038: a1 = -a4\n  7040: a5 = -a5\n  7042: a3 = a5 - a3\n  7045: t1 = 0xef - a2\n  7049: u64 [s1 + 0x198] = a1\n  7053: a5 = a1 >u 0\n  7055: a1 = a0 >u 0\n  7057: a1 = a5 if a0 == 0\n  7060: a5 = t1 <u 0x100\n  7064: a5 = a5 ^ 0x1\n  7067: a2 = a3 >u 0\n  7069: a5 = a2 if a3 != 0\n  7072: a5 = a1 if a4 != 0\n  7075: u64 [s1 + 0x140] = t2\n  7079: u64 [s1 + 0x158] = t0\n  7083: a1 = t0 | t2\n  7086: t2 = u64 [s1 + 0x150]\n  7090: a2 = ra | t2\n  7093: a1 = a1 | a2\n  7096: a1 = a1 <u 0x1\n  7099: a1 = a1 | a5\n  7102: a4 = ra\n  7104: a4 = 0 if a1 != 0\n  7106: jump @277 if a1 == 0\n      : @276 (gas: 1)\n  7109: jump @498\n      : @277 (gas: 6)\n  7112: a1 = t1 ^ 0xff\n  7116: a5 = u64 [s1 + 0x198]\n  7120: a1 = a1 | a5\n  7123: a2 = a3 | a0\n  7126: a1 = a1 | a2\n  7129: jump @279 if a1 != 0\n      : @278 (gas: 1)\n  7132: jump @498\n      : @279 (gas: 20)\n  7135: t0 = ra\n  7137: a2 = t1 + 0x1\n  7140: u64 [s1 + 0x190] = a2\n  7144: a1 = a2 <u 0x1\n  7147: a1 = a1 + a3\n  7150: u64 [s1 + 0x180] = a1\n  7154: a1 = a1 | a2\n  7157: a1 = a1 <u 0x1\n  7160: a1 = a1 + a5\n  7163: u64 [s1 + 0x170] = a1\n  7167: a1 = a1 <u a5\n  7170: a0 = a0 + a1\n  7173: u64 [s1 + 0x178] = a0\n  7177: a1 = 0xff - t1\n  7181: u64 [s1 + 0x168] = a1\n  7185: a2 = 0x80 - a1\n  7189: a0 = ra\n  7191: u64 [s1 + 0x148] = t0\n  7195: a1 = u64 [s1 + 0x158]\n  7199: ra = 240, jump @1501\n      : @280 [@dyn 120] (gas: 1)\n  7206: t0 = 242, jump @1497\n      : @281 [@dyn 121] (gas: 1)\n  7213: ra = 244, jump @1506\n      : @282 [@dyn 122] (gas: 7)\n  7220: u64 [s1 + 0x130] = a0\n  7224: u64 [s1 + 0x128] = a1\n  7228: a0 = u64 [s1 + 0x168]\n  7232: a2 = a0 + 0xffffffffffffff80\n  7235: a0 = u64 [s1 + 0x148]\n  7239: a1 = u64 [s1 + 0x158]\n  7243: ra = 246, jump @1506\n      : @283 [@dyn 123] (gas: 1)\n  7250: t0 = 248, jump @1499\n      : @284 [@dyn 124] (gas: 3)\n  7257: a0 = u64 [s1 + 0x148]\n  7261: a1 = u64 [s1 + 0x158]\n  7265: ra = 250, jump @1506\n      : @285 [@dyn 125] (gas: 11)\n  7272: a4 = u64 [s1 + 0x138]\n  7276: t0 = u64 [s1 + 0x170]\n  7280: a5 = u64 [s1 + 0x178]\n  7284: a2 = u64 [s1 + 0x180]\n  7288: a5 = a5 | a2\n  7291: a3 = u64 [s1 + 0x190]\n  7295: a3 = a3 | t0\n  7298: a3 = a3 | a5\n  7301: a0 = 0 if a4 == 0\n  7303: u64 [s1 + 0x188] = a0\n  7307: jump @287 if a3 == 0\n      : @286 (gas: 1)\n  7310: jump @485\n      : @287 (gas: 2)\n  7313: a4 = 0\n  7315: jump @497\n      : @288 (gas: 11)\n  7318: a0 = s1 + 0x2918\n  7322: u64 [a0 + 768] = 0\n  7326: u64 [a0 + 760] = 0\n  7330: u64 [a0 + 752] = 0\n  7334: u64 [a0 + 744] = 0\n  7338: a0 = s1 + 0x3000\n  7342: i32 a0 = a0 + 0xfffffffffffffc00\n  7346: ra = 0xfc\n  7350: ecalli 16 // 'value_transferred'\n  7352: t0 = 0xfe\n  7356: jump @1468\n      : @289 [@dyn 126] (gas: 1)\n  7360: t0 = 254, jump @1468\n      : @290 [@dyn 127] (gas: 8)\n  7367: a0 = u64 [a4 + 0xf8]\n  7371: a1 = u64 [a3 + 0x300]\n  7375: a2 = u64 [a4 + 0xf0]\n  7379: a3 = u64 [a4 + 0xe8]\n  7383: a1 = a1 | a2\n  7386: a0 = a0 | a3\n  7389: a0 = a0 | a1\n  7392: jump @292 if a0 == 0\n      : @291 (gas: 1)\n  7395: jump @826\n      : @292 (gas: 3)\n  7398: a0 = u64 [s1 + 0x198]\n  7402: a0 = i32 [a0]\n  7404: jump @294 if a0 >u 99\n      : @293 (gas: 1)\n  7408: jump @827\n      : @294 (gas: 4)\n  7411: a0 = s1 + 0x11a0\n  7415: ra = 0x100\n  7419: t0 = 0x512\n  7423: jump @1487\n      : @295 [@dyn 128] (gas: 11)\n  7427: a1 = s1 + 0x1118\n  7431: a0 = u64 [a1 + 0x88]\n  7435: u64 [s1 + 0x198] = a0\n  7439: a0 = u64 [a1 + 0x90]\n  7443: u64 [s1 + 0x190] = a0\n  7447: a0 = u32 [a1 + 0x98]\n  7451: u64 [s1 + 0x178] = a0\n  7455: a0 = s1 + 0x1180\n  7459: ra = 0x102\n  7463: t0 = 0x516\n  7467: jump @1500\n      : @296 [@dyn 129] (gas: 7)\n  7471: a0 = s1 + 0x1118\n  7475: a0 = u64 [a0 + 0x68]\n  7478: u64 [s1 + 0x180] = a0\n  7482: a0 = s1 + 0x1160\n  7486: ra = 0x104\n  7490: t0 = 0x51c\n  7494: jump @1500\n      : @297 [@dyn 130] (gas: 14)\n  7498: a2 = s1 + 0x1118\n  7502: a0 = u64 [a2 + 0x48]\n  7505: a3 = s1 + 0x100\n  7509: u64 [a3 + 0x88] = a0\n  7513: u64 [a2 + 64] = 0\n  7516: a0 = u64 [a3 + 0x78]\n  7519: u64 [a2 + 0x38] = a0\n  7522: a0 = u64 [a3 + 0x90]\n  7526: u64 [a2 + 0x30] = a0\n  7529: a1 = s1 + 0x1140\n  7533: a0 = u64 [a3 + 0x98]\n  7537: u64 [a2 + 0x28] = a0\n  7540: a0 = 0\n  7542: ra = 262, jump @24\n      : @298 [@dyn 131] (gas: 3)\n  7548: t0 = 0x108\n  7552: a1 = s1 + 0x1118\n  7556: fallthrough\n      : @299 [@dyn 132] (gas: 8)\n  7557: u64 [a1 + 32] = 0\n  7560: u64 [a1 + 24] = 0\n  7563: u64 [a1 + 8] = 0x4\n  7567: a2 = a1\n  7569: a0 = 0x20\n  7572: a1 = s1 + 0x1120\n  7576: u64 [a2 + 16] = 0\n  7579: ra = 266, jump @24\n      : @300 [@dyn 133] (gas: 3)\n  7585: a1 = 0x20180\n  7590: a0 = i32 [0x20180]\n  7595: jump @302 if a0 >u 63\n      : @301 (gas: 2)\n  7599: u32 [0x20180] = 0x40\n  7605: fallthrough\n      : @302 (gas: 15)\n  7606: a0 = sp + 0xffffffffffffffe0\n  7609: a2 = a0 & 0xffffffffffffffe0\n  7612: u64 [s1 + 0x178] = a2\n  7616: sp = a2\n  7618: a0 = 0x20190\n  7623: i32 a0 = a0 + 0\n  7625: i32 a2 = a2 + 0\n  7627: u64 [s1 + 0x198] = a1\n  7631: a1 = 0x40\n  7634: u64 [s1 + 0x190] = a0\n  7638: ra = 0x10c\n  7642: ecalli 8 // 'hash_keccak_256'\n  7644: a3 = u64 [s1 + 0x178]\n  7648: t0 = 0x10e\n  7652: jump @1448\n      : @303 [@dyn 134] (gas: 2)\n  7655: a3 = u64 [s1 + 0x178]\n  7659: t0 = 270, jump @1448\n      : @304 [@dyn 135] (gas: 9)\n  7665: a0 = s1 + 0x1118\n  7669: u64 [a0 + 0] = 0\n  7671: u64 [a0 + 4294967288] = 0\n  7674: a1 = u64 [s1 + 0x180]\n  7678: u64 [a0 + 0xffffffffffffffe8] = a1\n  7681: a1 = s1 + 0x1100\n  7685: u64 [a0 + 4294967280] = 0\n  7688: a0 = 0\n  7690: ra = 272, jump @24\n      : @305 [@dyn 136] (gas: 14)\n  7696: a2 = s1 + 0x7ff\n  7700: a2 = a2 + 0x119\n  7704: a0 = u64 [s1 + 0x160]\n  7708: a4 = a2 + 0x700\n  7712: u64 [a4 + 0xe0] = a0\n  7716: a0 = u64 [s1 + 0x168]\n  7720: u64 [a4 + 0xd8] = a0\n  7724: a0 = u64 [s1 + 0x170]\n  7728: u64 [a4 + 0xd0] = a0\n  7732: a0 = 0x20\n  7735: a1 = s1 + 0x10e0\n  7739: a3 = u64 [s1 + 0x178]\n  7743: u64 [a4 + 0xc8] = a3\n  7747: ra = 274, jump @24\n      : @306 [@dyn 137] (gas: 3)\n  7753: a1 = u64 [s1 + 0x198]\n  7757: a0 = i32 [a1]\n  7759: jump @308 if a0 >u 63\n      : @307 (gas: 2)\n  7763: u32 [a1 + 0] = 0x40\n  7766: fallthrough\n      : @308 (gas: 4)\n  7767: a0 = sp + 0xffffffffffffffe0\n  7770: a0 = a0 & 0xffffffffffffffe0\n  7773: u64 [s1 + 0x180] = a0\n  7777: t0 = 276, jump @1445\n      : @309 [@dyn 138] (gas: 5)\n  7783: ra = 0x116\n  7787: ecalli 8 // 'hash_keccak_256'\n  7789: a3 = u64 [s1 + 0x180]\n  7793: t0 = 0x118\n  7797: jump @1448\n      : @310 [@dyn 139] (gas: 2)\n  7800: a3 = u64 [s1 + 0x180]\n  7804: t0 = 280, jump @1448\n      : @311 [@dyn 140] (gas: 16)\n  7810: a0 = sp + 0xffffffffffffffe0\n  7813: a0 = a0 & 0xffffffffffffffe0\n  7816: u64 [s1 + 0x180] = a0\n  7820: sp = a0\n  7822: a0 = u64 [s1 + 0x188]\n  7826: a0 = a0 << 0x20\n  7829: a0 = a0 >> 0x20\n  7832: a2 = s1 + 0x7ff\n  7836: a2 = a2 + 0x119\n  7840: u64 [a2 + 1984] = 0\n  7844: u64 [a2 + 1976] = 0\n  7848: u64 [a2 + 1968] = 0\n  7852: a1 = s1 + 0x10c0\n  7856: u64 [a2 + 0x7a8] = a0\n  7860: a0 = 0\n  7862: ra = 282, jump @24\n      : @312 [@dyn 141] (gas: 15)\n  7868: a0 = u64 [s1 + 0x160]\n  7872: a1 = s1 + 0x7ff\n  7876: a1 = a1 + 0x119\n  7880: a2 = a1 + 0x700\n  7884: u64 [a2 + 0xa0] = a0\n  7888: a0 = u64 [s1 + 0x168]\n  7892: u64 [a2 + 0x98] = a0\n  7896: a0 = u64 [s1 + 0x170]\n  7900: u64 [a2 + 0x90] = a0\n  7904: a3 = a1\n  7906: a0 = 0x20\n  7909: a1 = s1 + 0x10a0\n  7913: a2 = u64 [s1 + 0x178]\n  7917: u64 [a3 + 0x788] = a2\n  7921: ra = 284, jump @24\n      : @313 [@dyn 142] (gas: 3)\n  7927: a1 = u64 [s1 + 0x198]\n  7931: a0 = i32 [a1]\n  7933: jump @315 if a0 >=u 64\n      : @314 (gas: 2)\n  7937: u32 [a1 + 0] = 0x40\n  7940: fallthrough\n      : @315 (gas: 4)\n  7941: a0 = sp + 0xffffffffffffffe0\n  7944: a0 = a0 & 0xffffffffffffffe0\n  7947: u64 [s1 + 0x198] = a0\n  7951: t0 = 286, jump @1445\n      : @316 [@dyn 143] (gas: 5)\n  7957: ra = 0x120\n  7961: ecalli 8 // 'hash_keccak_256'\n  7963: a3 = u64 [s1 + 0x198]\n  7967: t0 = 0x122\n  7971: jump @1437\n      : @317 [@dyn 144] (gas: 2)\n  7974: a3 = u64 [s1 + 0x198]\n  7978: t0 = 290, jump @1437\n      : @318 [@dyn 145] (gas: 7)\n  7984: a1 = u64 [s1 + 0x180]\n  7988: u64 [a1 + 0x18] = a3\n  7991: u64 [a1 + 0x10] = a2\n  7994: u64 [a1 + 0x8] = a4\n  7997: u64 [a1] = a0\n  7999: a0 = s1 + 0x1080\n  8003: ra = 292, jump @26\n      : @319 [@dyn 146] (gas: 7)\n  8009: a0 = s1 + 0x7ff\n  8013: a0 = a0 + 0x119\n  8017: a0 = u64 [a0 + 0x768]\n  8021: u64 [s1 + 0x198] = a0\n  8025: a0 = s1 + 0x1060\n  8029: a1 = 0x40\n  8032: ra = 294, jump @22\n      : @320 [@dyn 147] (gas: 15)\n  8038: a2 = s1 + 0x7ff\n  8042: a2 = a2 + 0x119\n  8046: t0 = u64 [a2 + 0x760]\n  8050: a1 = a2 + 0x700\n  8054: a5 = u64 [a1 + 0x58]\n  8057: a4 = u64 [a1 + 0x50]\n  8060: a0 = u64 [a1 + 0x48]\n  8063: a3 = a4 | t0\n  8066: a1 = a0 | a5\n  8069: a1 = a1 | a3\n  8072: a1 = a1 >> 0x20\n  8075: a3 = a3 | a5\n  8078: a3 = a3 << 0x20\n  8081: a1 = a1 | a3\n  8084: jump @322 if a1 == 0\n      : @321 (gas: 1)\n  8087: jump @782\n      : @322 (gas: 12)\n  8090: a1 = u8 [s1 + 0x198]\n  8094: a3 = a1 >u 0\n  8096: u64 [a2 + 1856] = 0\n  8100: u64 [a2 + 1848] = 0\n  8104: u64 [a2 + 1840] = 0\n  8108: a1 = s1 + 0x1040\n  8112: u64 [a2 + 0x728] = a3\n  8116: u64 [s1 + 0x190] = a0\n  8120: u64 [s1 + 0x188] = a4\n  8124: u64 [s1 + 0x178] = t0\n  8128: u64 [s1 + 0x180] = a5\n  8132: ra = 296, jump @24\n      : @323 [@dyn 148] (gas: 12)\n  8138: a4 = s1 + 0x100\n  8142: a3 = u64 [a4 + 0x88]\n  8146: a2 = u64 [a4 + 0x90]\n  8150: a0 = u64 [a4 + 0x80]\n  8154: a1 = u64 [a4 + 0x78]\n  8157: a1 = a1 | a0\n  8160: a4 = 0x100000000\n  8170: a0 = 0xffffffe0\n  8180: a0 = a2 <u a0\n  8183: a0 = 0 if a3 != 0\n  8185: a0 = 0 if a1 != 0\n  8187: jump @325 if a0 != 0\n      : @324 (gas: 1)\n  8190: jump @782\n      : @325 (gas: 14)\n  8193: u64 [s1 + 0x180] = a1\n  8197: a1 = u64 [s1 + 0x198]\n  8201: a0 = a1 & 0xff00\n  8206: a1 = a0 >u 0\n  8208: i32 a0 = a2 + 0x20\n  8211: a2 = s1 + 0x7ff\n  8215: a2 = a2 + 0x119\n  8219: u64 [a2 + 1824] = 0\n  8223: u64 [a2 + 1816] = 0\n  8227: u64 [a2 + 0x708] = a1\n  8231: a1 = s1 + 0x1020\n  8235: u64 [a2 + 1808] = 0\n  8239: u64 [s1 + 0x178] = a4\n  8243: ra = 298, jump @24\n      : @326 [@dyn 149] (gas: 10)\n  8249: a3 = s1 + 0x100\n  8253: a2 = u64 [a3 + 0x90]\n  8257: a0 = u64 [a3 + 0x78]\n  8260: a0 = a0 + 0xffffffffffffffc0\n  8263: a0 = a2 <u a0\n  8266: a1 = u64 [a3 + 0x88]\n  8270: a0 = 0 if a1 != 0\n  8272: a1 = u64 [a3 + 0x80]\n  8276: a0 = 0 if a1 != 0\n  8278: jump @328 if a0 != 0\n      : @327 (gas: 1)\n  8281: jump @782\n      : @328 (gas: 12)\n  8284: a1 = u64 [s1 + 0x198]\n  8288: a0 = a1 & 0xff0000\n  8294: a1 = a0 >u 0\n  8296: i32 a0 = a2 + 0x40\n  8299: a3 = s1 + 0x7ff\n  8303: a3 = a3 + 0x119\n  8307: u64 [a3 + 1792] = 0\n  8311: u64 [a3 + 1784] = 0\n  8315: u64 [a3 + 0x6e8] = a1\n  8319: a1 = s1 + 0x1000\n  8323: u64 [a3 + 1776] = 0\n  8327: ra = 300, jump @24\n      : @329 [@dyn 150] (gas: 3)\n  8333: a1 = 0x60\n  8336: a0 = u64 [s1 + 0x190]\n  8340: ra = 302, jump @37\n      : @330 [@dyn 151] (gas: 6)\n  8346: i32 a1 = a0 + 0\n  8348: a2 = 0x60\n  8351: a0 = 0\n  8353: ra = 0x36c\n  8357: ecalli 13 // 'seal_return'\n  8359: jump @890\n      : @331 (gas: 8)\n  8362: u64 [a3 + 1984] = 0\n  8366: u64 [a3 + 1976] = 0\n  8370: u64 [a3 + 1968] = 0\n  8374: u64 [a3 + 1960] = 0\n  8378: a0 = s1 + 0x3000\n  8382: i32 a0 = a0 + 0xfffffffffffff8c0\n  8386: ecalli 16 // 'value_transferred'\n  8388: fallthrough\n      : @332 (gas: 10)\n  8389: a3 = s1 + 0x2118\n  8393: a4 = a3 + 0x700\n  8397: a0 = u64 [a4 + 0xb8]\n  8401: a1 = u64 [a4 + 0xc0]\n  8405: a2 = u64 [a4 + 0xb0]\n  8409: a3 = u64 [a4 + 0xa8]\n  8413: a1 = a1 | a2\n  8416: a0 = a0 | a3\n  8419: a0 = a0 | a1\n  8422: jump @334 if a0 == 0\n      : @333 (gas: 1)\n  8425: jump @828\n      : @334 (gas: 3)\n  8428: a0 = u64 [s1 + 0x198]\n  8432: a0 = i32 [a0]\n  8434: jump @336 if a0 >u 3\n      : @335 (gas: 1)\n  8438: jump @829\n      : @336 (gas: 17)\n  8441: a0 = s1 + 0x3000\n  8445: i32 a0 = a0 + 0xfffffffffffff8e0\n  8449: ecalli 9 // 'now'\n  8451: a0 = s1 + 0x2118\n  8455: a2 = a0 + 0x700\n  8459: a1 = u64 [a2 + 0xe0]\n  8463: a3 = s1 + 0x100\n  8467: u64 [a3 + 0x58] = a1\n  8470: a1 = u64 [a2 + 0xd8]\n  8474: u64 [a3 + 0x50] = a1\n  8477: a1 = u64 [a2 + 0xd0]\n  8481: u64 [a3 + 0x98] = a1\n  8485: a0 = u64 [a2 + 0xc8]\n  8489: u64 [a3 + 0x90] = a0\n  8493: a0 = s1 + 0x3e0\n  8497: a1 = 0x40\n  8500: ra = 304, jump @22\n      : @337 [@dyn 152] (gas: 6)\n  8506: a4 = s1 + 0x300\n  8510: a0 = u64 [a4 + 0xf8]\n  8514: a1 = u64 [a4 + 0xf0]\n  8518: a2 = u64 [a4 + 0xe8]\n  8522: a3 = u64 [a4 + 0xe0]\n  8526: t0 = 306, jump @1450\n      : @338 [@dyn 153] (gas: 1)\n  8532: jump @340 if a0 == 0\n      : @339 (gas: 1)\n  8535: jump @782\n      : @340 (gas: 46)\n  8538: u64 [s1 + 0x118] = a3\n  8542: t1 = u64 [s1 + 0x150]\n  8546: a0 = clz t1\n  8548: a0 = a0 + 0x40\n  8551: ra = u64 [s1 + 0x158]\n  8555: a2 = clz ra\n  8557: a2 = a0 if ra == 0\n  8560: t2 = u64 [s1 + 0x190]\n  8564: a0 = clz t2\n  8566: a0 = a0 + 0x40\n  8569: t0 = u64 [s1 + 0x198]\n  8573: a1 = clz t0\n  8575: a1 = a0 if t0 == 0\n  8578: a0 = a1 + 0x80\n  8582: a3 = t1 | ra\n  8585: a2 = a0 if a3 == 0\n  8588: a5 = a0 <u a1\n  8591: a5 = 0 if a3 != 0\n  8593: a4 = a5 >u 0\n  8595: a0 = a2 <u 0xf0\n  8599: a3 = a0 ^ 0x1\n  8602: a4 = a3 if a5 == 0\n  8605: a0 = a4 <u 0x1\n  8608: a0 = a0 + 0xffffffffffffffff\n  8611: a1 = -a4\n  8613: a5 = -a5\n  8615: a3 = a5 - a3\n  8618: a2 = 0xef - a2\n  8622: u64 [s1 + 0x178] = a1\n  8626: a5 = a1 >u 0\n  8628: a1 = a0 >u 0\n  8630: a1 = a5 if a0 == 0\n  8633: a5 = a3 >u 0\n  8635: u64 [s1 + 0x168] = a2\n  8639: a2 = a2 <u 0x100\n  8643: a2 = a2 ^ 0x1\n  8646: a2 = a5 if a3 != 0\n  8649: a2 = a1 if a4 != 0\n  8652: a1 = t2 | t1\n  8655: a4 = t0 | ra\n  8658: a1 = a1 | a4\n  8661: a1 = a1 <u 0x1\n  8664: a1 = a1 | a2\n  8667: a4 = t2\n  8669: a4 = 0 if a1 != 0\n  8671: jump @342 if a1 == 0\n      : @341 (gas: 1)\n  8674: jump @886\n      : @342 (gas: 7)\n  8677: a1 = u64 [s1 + 0x168]\n  8681: a1 = a1 ^ 0xff\n  8685: a2 = u64 [s1 + 0x178]\n  8689: a1 = a1 | a2\n  8692: a2 = a3 | a0\n  8695: a1 = a1 | a2\n  8698: jump @344 if a1 != 0\n      : @343 (gas: 1)\n  8701: jump @886\n      : @344 (gas: 20)\n  8704: a4 = u64 [s1 + 0x168]\n  8708: a2 = a4 + 0x1\n  8711: u64 [s1 + 0x188] = a2\n  8715: a1 = a2 <u 0x1\n  8718: a1 = a1 + a3\n  8721: u64 [s1 + 0x180] = a1\n  8725: a1 = a1 | a2\n  8728: a1 = a1 <u 0x1\n  8731: a3 = u64 [s1 + 0x178]\n  8735: a1 = a1 + a3\n  8738: u64 [s1 + 0x170] = a1\n  8742: a1 = a1 <u a3\n  8745: a0 = a0 + a1\n  8748: u64 [s1 + 0x178] = a0\n  8752: a1 = 0xff - a4\n  8756: u64 [s1 + 0x140] = a1\n  8760: a2 = 0x80 - a1\n  8764: a0 = u64 [s1 + 0x190]\n  8768: a1 = u64 [s1 + 0x198]\n  8772: ra = 308, jump @1501\n      : @345 [@dyn 154] (gas: 6)\n  8778: u64 [s1 + 0x138] = a0\n  8782: u64 [s1 + 0x148] = a1\n  8786: a0 = u64 [s1 + 0x150]\n  8790: a1 = u64 [s1 + 0x158]\n  8794: a2 = u64 [s1 + 0x140]\n  8798: ra = 310, jump @1506\n      : @346 [@dyn 155] (gas: 7)\n  8804: u64 [s1 + 0x130] = a0\n  8808: u64 [s1 + 0x128] = a1\n  8812: a0 = u64 [s1 + 0x140]\n  8816: a2 = a0 + 0xffffffffffffff80\n  8819: a0 = u64 [s1 + 0x190]\n  8823: a1 = u64 [s1 + 0x198]\n  8827: ra = 312, jump @1506\n      : @347 [@dyn 156] (gas: 8)\n  8833: u64 [s1 + 0x120] = a0\n  8837: u64 [s1 + 0x110] = a1\n  8841: a2 = u64 [s1 + 0x140]\n  8845: a0 = a2 <u 0x80\n  8849: u64 [s1 + 0x108] = a0\n  8853: a0 = u64 [s1 + 0x190]\n  8857: a1 = u64 [s1 + 0x198]\n  8861: ra = 314, jump @1506\n      : @348 [@dyn 157] (gas: 13)\n  8867: a4 = s1 + 0x100\n  8871: u64 [a4 + 0x60] = a1\n  8874: a1 = u64 [a4 + 0x80]\n  8878: a2 = u64 [a4 + 0x78]\n  8881: a2 = a2 | a1\n  8884: a1 = u64 [a4 + 0x88]\n  8888: a3 = u64 [a4 + 0x70]\n  8891: a1 = a1 | a3\n  8894: a1 = a1 | a2\n  8897: a3 = u64 [a4 + 0x8]\n  8900: a0 = 0 if a3 == 0\n  8902: u64 [a4 + 0x68] = a0\n  8905: jump @350 if a1 != 0\n      : @349 (gas: 1)\n  8908: jump @884\n      : @350 (gas: 30)\n  8911: a2 = a3\n  8913: a0 = u64 [s1 + 0x148]\n  8917: a1 = u64 [s1 + 0x128]\n  8921: a0 = a0 | a1\n  8924: a5 = a3\n  8926: a1 = u64 [s1 + 0x110]\n  8930: a0 = a1 if a2 == 0\n  8933: a2 = u64 [s1 + 0x158]\n  8937: a3 = a2\n  8939: a1 = a2\n  8941: a2 = u64 [s1 + 0x140]\n  8945: a3 = a0 if a2 != 0\n  8948: u64 [s1 + 0x148] = a3\n  8952: a0 = u64 [s1 + 0x138]\n  8956: a3 = u64 [s1 + 0x130]\n  8960: a0 = a0 | a3\n  8963: a3 = u64 [s1 + 0x120]\n  8967: a0 = a3 if a5 == 0\n  8970: a4 = u64 [s1 + 0x150]\n  8974: a3 = a4\n  8976: a3 = a0 if a2 != 0\n  8979: u64 [s1 + 0x140] = a3\n  8983: a0 = u64 [s1 + 0x160]\n  8987: a0 = 0 if a5 == 0\n  8989: u64 [s1 + 0x160] = a0\n  8993: u64 [s1 + 304] = 0x15180\n  9000: a0 = u64 [s1 + 0x188]\n  9004: a2 = a0 + 0xffffffffffffff80\n  9007: a0 = a4\n  9009: ra = 316, jump @1501\n      : @351 [@dyn 158] (gas: 6)\n  9015: u64 [s1 + 0x138] = a0\n  9019: u64 [s1 + 0x120] = a1\n  9023: a0 = u64 [s1 + 0x190]\n  9027: a1 = u64 [s1 + 0x198]\n  9031: a2 = u64 [s1 + 0x188]\n  9035: ra = 318, jump @1501\n      : @352 [@dyn 159] (gas: 7)\n  9041: u64 [s1 + 0x110] = a0\n  9045: u64 [s1 + 0x128] = a1\n  9049: a1 = u64 [s1 + 0x188]\n  9053: a2 = 0x80 - a1\n  9057: a0 = u64 [s1 + 0x150]\n  9061: a1 = u64 [s1 + 0x158]\n  9065: ra = 320, jump @1506\n      : @353 [@dyn 160] (gas: 20)\n  9071: a2 = u64 [s1 + 0x128]\n  9075: a1 = a1 | a2\n  9078: a2 = u64 [s1 + 0x188]\n  9082: a3 = a2 <u 0x80\n  9086: u64 [s1 + 0x128] = a3\n  9090: a4 = u64 [s1 + 0x120]\n  9094: a1 = a4 if a3 == 0\n  9097: a4 = u64 [s1 + 0x198]\n  9101: a4 = a1 if a2 != 0\n  9104: u64 [s1 + 0x198] = a4\n  9108: a1 = u64 [s1 + 0x110]\n  9112: a0 = a0 | a1\n  9115: a1 = u64 [s1 + 0x138]\n  9119: a0 = a1 if a3 == 0\n  9122: a1 = u64 [s1 + 0x190]\n  9126: a1 = a0 if a2 != 0\n  9129: u64 [s1 + 0x190] = a1\n  9133: a0 = u64 [s1 + 0x150]\n  9137: a1 = u64 [s1 + 0x158]\n  9141: ra = 322, jump @1501\n      : @354 [@dyn 161] (gas: 16)\n  9147: t2 = u64 [s1 + 0x190]\n  9151: t1 = u64 [s1 + 0x198]\n  9155: u64 [s1 + 344] = 0\n  9159: u64 [s1 + 336] = 0\n  9163: a4 = s1 + 0x100\n  9167: a2 = u64 [a4 + 0x28]\n  9170: a1 = 0 if a2 == 0\n  9172: a0 = 0 if a2 == 0\n  9174: u64 [a4 + 0x38] = a0\n  9177: a3 = u64 [a4 + 0x30]\n  9180: a2 = a3 + 0xffffffffffffffff\n  9183: u64 [a4 + 0x28] = a2\n  9186: a2 = a3 >u 0\n  9188: a2 = a2 + 0xffffffffffffffff\n  9191: u64 [a4 + 0x20] = a2\n  9194: fallthrough\n      : @355 (gas: 89)\n  9195: a2 = t2 >> 0x3f\n  9198: a3 = t1 << 0x1\n  9201: a2 = a2 | a3\n  9204: a3 = t2 << 0x1\n  9207: t2 = u64 [s1 + 0x148]\n  9211: a4 = t2 >> 0x3f\n  9214: a3 = a3 | a4\n  9217: u64 [s1 + 0x198] = a3\n  9221: ra = u64 [s1 + 0x120]\n  9225: a0 = t1\n  9227: t1 = ra ^ a2\n  9230: t0 = ra <u a2\n  9233: a4 = u64 [s1 + 0x128]\n  9237: a5 = a4 <u a3\n  9240: a5 = t0 if t1 != 0\n  9243: a1 = a1 << 0x1\n  9246: a4 = u64 [s1 + 0x138]\n  9250: a3 = a4 >> 0x3f\n  9253: a1 = a1 | a3\n  9256: u64 [s1 + 0x190] = a1\n  9260: a3 = a0 >> 0x3f\n  9263: a0 = a4 << 0x1\n  9266: a3 = a3 | a0\n  9269: a0 = t2 << 0x1\n  9272: a4 = u64 [s1 + 0x140]\n  9276: a1 = a4 >> 0x3f\n  9279: t0 = a0 | a1\n  9282: a1 = a4 << 0x1\n  9285: a4 = u64 [s1 + 0x160]\n  9289: t1 = a4 >> 0x3f\n  9292: t1 = a1 | t1\n  9295: a1 = a4 << 0x1\n  9298: a4 = u64 [s1 + 0x168]\n  9302: t2 = a4 >> 0x3f\n  9305: a1 = a1 | t2\n  9308: a4 = a4 << 0x1\n  9311: a0 = u64 [s1 + 0x158]\n  9315: a4 = a4 | a0\n  9318: u64 [s1 + 0x168] = a4\n  9322: a0 = u64 [s1 + 0x150]\n  9326: a1 = a1 | a0\n  9329: u64 [s1 + 0x160] = a1\n  9333: a1 = a0 | t1\n  9336: u64 [s1 + 0x140] = a1\n  9340: a0 = a0 | t0\n  9343: u64 [s1 + 0x148] = a0\n  9347: a0 = ra - a3\n  9350: a0 = a0 <u a5\n  9353: a1 = ra <u a3\n  9356: a5 = u64 [s1 + 0x190]\n  9360: a4 = ra - a5\n  9363: a4 = a4 - a1\n  9366: a4 = a4 - a0\n  9369: ra = a4 >>a 0x3f\n  9372: a0 = u64 [s1 + 0x130]\n  9376: a0 = ra & a0\n  9379: a1 = u64 [s1 + 0x198]\n  9383: t2 = a1 - a0\n  9386: a1 = a1 <u a0\n  9389: t1 = a2 - a1\n  9392: a1 = 0 if a2 != 0\n  9394: a0 = a3 - a1\n  9397: u64 [s1 + 0x138] = a0\n  9401: a1 = a3 <u a1\n  9404: a1 = a5 - a1\n  9407: a0 = s1 + 0x100\n  9411: a3 = u64 [a0 + 0x88]\n  9415: a5 = u64 [a0 + 0x80]\n  9419: a2 = a3 | a5\n  9422: a2 = a2 <u 0x1\n  9425: a4 = u64 [a0 + 0x70]\n  9428: t0 = a4 <u a2\n  9431: a2 = a4 - a2\n  9434: a4 = a3 <u 0x1\n  9437: a5 = a5 - a4\n  9440: a4 = u64 [a0 + 0x78]\n  9443: a4 = a4 - t0\n  9446: a3 = a3 + 0xffffffffffffffff\n  9449: u64 [a0 + 0x80] = a5\n  9453: u64 [a0 + 0x78] = a4\n  9456: t0 = a5 | a4\n  9459: u64 [a0 + 0x88] = a3\n  9463: a4 = a3 | a2\n  9466: a3 = a4 | t0\n  9469: a4 = ra & 0x1\n  9472: u64 [a0 + 0x58] = a4\n  9475: u64 [a0 + 0x70] = a2\n  9478: u64 [s1 + 336] = 0\n  9482: jump @355 if a3 != 0\n      : @356 (gas: 1)\n  9486: jump @885\n      : @357 (gas: 10)\n  9489: u64 [a2 + 1280] = 0\n  9493: u64 [a2 + 1272] = 0\n  9497: u64 [a2 + 1264] = 0\n  9501: u64 [a2 + 1256] = 0\n  9505: a0 = s1 + 0x3000\n  9509: i32 a0 = a0 + 0xfffffffffffffe00\n  9513: ra = 0x144\n  9517: ecalli 16 // 'value_transferred'\n  9519: t0 = 0x146\n  9523: jump @1493\n      : @358 [@dyn 162] (gas: 1)\n  9526: t0 = 326, jump @1493\n      : @359 [@dyn 163] (gas: 8)\n  9532: a0 = u64 [a4 + 0xf8]\n  9536: a1 = u64 [a3 + 0x500]\n  9540: a2 = u64 [a4 + 0xf0]\n  9544: a3 = u64 [a4 + 0xe8]\n  9548: a1 = a1 | a2\n  9551: a0 = a0 | a3\n  9554: a0 = a0 | a1\n  9557: jump @361 if a0 == 0\n      : @360 (gas: 1)\n  9560: jump @830\n      : @361 (gas: 1)\n  9563: t0 = 328, jump @1484\n      : @362 [@dyn 164] (gas: 1)\n  9569: jump @364 if a1 <u a0\n      : @363 (gas: 1)\n  9572: jump @831\n      : @364 (gas: 5)\n  9575: a0 = s1 + 0x3000\n  9579: i32 a0 = a0 + 0xfffffffffffffe20\n  9583: a1 = 0x4\n  9586: ecalli 2 // 'call_data_load'\n  9588: fallthrough\n      : @365 (gas: 9)\n  9589: a5 = s1 + 0x2918\n  9593: a0 = a5 + 0x500\n  9597: a3 = u64 [a0 + 0x20]\n  9600: a1 = u64 [a0 + 0x18]\n  9603: a4 = u64 [a0 + 0x10]\n  9606: a2 = a1 | a3\n  9609: a0 = a4 <u 0x1\n  9612: a0 = 0 if a2 != 0\n  9614: jump @367 if a0 != 0\n      : @366 (gas: 1)\n  9617: jump @832\n      : @367 (gas: 20)\n  9620: u64 [s1 + 0x98] = a2\n  9624: a5 = u64 [a5 + 0x508]\n  9628: a0 = u64 [s1 + 0x198]\n  9632: t1 = u32 [a0]\n  9634: a0 = a5 + 0x23\n  9637: a2 = a0 <u a5\n  9640: t0 = a4 + a2\n  9643: u64 [s1 + 0xd0] = a4\n  9647: a4 = t0 <u a4\n  9650: a4 = a2 if a2 == 0\n  9653: a4 = a4 + a1\n  9656: u64 [s1 + 0x180] = a1\n  9660: a2 = a4 <u a1\n  9663: u64 [s1 + 0x188] = a3\n  9667: a2 = a2 + a3\n  9670: a2 = a2 | a4\n  9673: a0 = a0 <u t1\n  9676: a0 = 0 if t0 != 0\n  9678: a0 = 0 if a2 != 0\n  9680: jump @369 if a0 != 0\n      : @368 (gas: 1)\n  9683: jump @833\n      : @369 (gas: 6)\n  9686: i32 a1 = a5 + 0x4\n  9689: a0 = s1 + 0x3000\n  9693: i32 a0 = a0 + 0xfffffffffffffe40\n  9697: u64 [s1 + 0xc8] = a5\n  9701: ecalli 2 // 'call_data_load'\n  9703: fallthrough\n      : @370 (gas: 10)\n  9704: a3 = s1 + 0x2918\n  9708: t0 = u64 [a3 + 0x540]\n  9712: a0 = u64 [a3 + 0x538]\n  9716: a2 = u64 [a3 + 0x530]\n  9720: u64 [s1 + 0xe8] = a0\n  9724: a0 = a0 | t0\n  9727: a1 = a2 <u 0x1\n  9730: u64 [s1 + 0x190] = a0\n  9734: a1 = 0 if a0 != 0\n  9736: jump @372 if a1 != 0\n      : @371 (gas: 1)\n  9739: jump @834\n      : @372 (gas: 42)\n  9742: t2 = u64 [a3 + 0x528]\n  9746: a1 = u64 [s1 + 0xc8]\n  9750: a0 = a1 + 0x24\n  9753: a3 = a0 <u a1\n  9756: ra = u64 [s1 + 0xd0]\n  9760: a4 = ra + a3\n  9763: t1 = a0 + t2\n  9766: u64 [s1 + 0x120] = a0\n  9770: a5 = t1 <u a0\n  9773: a1 = a4 + a2\n  9776: a1 = a1 + a5\n  9779: a0 = a1 ^ a4\n  9782: u64 [s1 + 0xe0] = a2\n  9786: a2 = a1 <u a4\n  9789: a2 = a5 if a0 == 0\n  9792: a0 = a4 <u ra\n  9795: a0 = a3 if a3 == 0\n  9798: a3 = u64 [s1 + 0x180]\n  9802: a0 = a0 + a3\n  9805: a3 = a0 <u a3\n  9808: a4 = u64 [s1 + 0x188]\n  9812: a4 = a4 + t0\n  9815: a3 = a3 + a4\n  9818: a5 = u64 [s1 + 0xe8]\n  9822: a4 = a0 + a5\n  9825: a0 = a4 <u a0\n  9828: a0 = a0 + a3\n  9831: a3 = u64 [s1 + 0x198]\n  9835: a3 = u32 [a3]\n  9837: a2 = a2 + a4\n  9840: a4 = a2 <u a4\n  9843: a0 = a0 + a4\n  9846: a3 = a3 <u t1\n  9849: a4 = a1 <u 0x1\n  9852: a3 = a3 ^ 0x1\n  9855: a3 = a4 if a1 != 0\n  9858: a1 = a0 <u 0x1\n  9861: a4 = a2 <u 0x1\n  9864: a4 = a1 if a0 != 0\n  9867: a0 = a0 | a2\n  9870: a3 = a4 if a0 != 0\n  9873: jump @374 if a3 != 0\n      : @373 (gas: 1)\n  9876: jump @835\n      : @374 (gas: 6)\n  9879: a0 = t2 <u 0x3\n  9882: a2 = u64 [s1 + 0xe0]\n  9886: a0 = 0 if a2 != 0\n  9888: a3 = u64 [s1 + 0x190]\n  9892: a0 = 0 if a3 != 0\n  9894: jump @376 if a0 == 0\n      : @375 (gas: 1)\n  9897: jump @836\n      : @376 (gas: 12)\n  9900: a4 = a5\n  9902: a0 = a2 >u 0\n  9904: u64 [s1 + 0xb8] = t2\n  9908: a1 = t2 <u 0x65\n  9911: a1 = a1 ^ 0x1\n  9914: a1 = a0 if a2 != 0\n  9917: a0 = a5 >u 0\n  9919: a2 = t0 >u 0\n  9921: u64 [s1 + 0xb0] = t0\n  9925: a2 = a0 if t0 == 0\n  9928: a2 = a1 if a3 == 0\n  9931: jump @378 if a2 == 0\n      : @377 (gas: 1)\n  9934: jump @841\n      : @378 (gas: 9)\n  9937: a0 = 0x30190\n  9942: u64 [s1 + 0xd8] = a0\n  9946: i32 a0 = a0 + 0\n  9948: u64 [s1 + 0xc0] = a0\n  9952: ra = 0x14a\n  9956: ecalli 4 // 'caller'\n  9958: a2 = u64 [s1 + 0xd8]\n  9962: t0 = 0x14c\n  9966: jump @1432\n      : @379 [@dyn 165] (gas: 2)\n  9969: a2 = u64 [s1 + 0xd8]\n  9973: t0 = 332, jump @1432\n      : @380 [@dyn 166] (gas: 8)\n  9979: u64 [a2 + 1248] = 0\n  9983: a4 = a2 + 0x400\n  9987: u64 [a4 + 0xd8] = a1\n  9991: u64 [a4 + 0xd0] = a0\n  9995: a1 = s1 + 0x25e0\n  9999: u64 [a4 + 0xc8] = a3\n 10003: a0 = 0\n 10005: ra = 334, jump @24\n      : @381 [@dyn 167] (gas: 9)\n 10011: a1 = s1 + 0x2118\n 10015: u64 [a1 + 1216] = 0\n 10019: u64 [a1 + 1208] = 0\n 10023: u64 [a1 + 1192] = 0x3\n 10028: a2 = a1\n 10030: a0 = 0x20\n 10033: a1 = s1 + 0x25c0\n 10037: u64 [a2 + 1200] = 0\n 10041: ra = 336, jump @24\n      : @382 [@dyn 168] (gas: 1)\n 10047: t0 = 338, jump @1471\n      : @383 [@dyn 169] (gas: 3)\n 10053: a2 = 0x20180\n 10058: a0 = i32 [0x20180]\n 10063: jump @385 if a0 >u 63\n      : @384 (gas: 2)\n 10067: u32 [0x20180] = 0x40\n 10073: fallthrough\n      : @385 (gas: 15)\n 10074: u64 [s1 + 0xa8] = a2\n 10078: a0 = sp + 0xffffffffffffffe0\n 10081: a2 = a0 & 0xffffffffffffffe0\n 10084: u64 [s1 + 0x190] = a2\n 10088: sp = a2\n 10090: a0 = 0x20190\n 10095: i32 a0 = a0 + 0\n 10097: i32 a2 = a2 + 0\n 10099: a1 = 0x40\n 10102: u64 [s1 + 0xa0] = a0\n 10106: ra = 0x154\n 10110: ecalli 8 // 'hash_keccak_256'\n 10112: a3 = u64 [s1 + 0x190]\n 10116: t0 = 0x156\n 10120: jump @1437\n      : @386 [@dyn 170] (gas: 2)\n 10123: a3 = u64 [s1 + 0x190]\n 10127: t0 = 342, jump @1437\n      : @387 [@dyn 171] (gas: 7)\n 10133: a1 = u64 [s1 + 0x198]\n 10137: u64 [a1 + 0x18] = a3\n 10140: u64 [a1 + 0x10] = a2\n 10143: u64 [a1 + 0x8] = a4\n 10146: u64 [a1] = a0\n 10148: a0 = s1 + 0x25a0\n 10152: ra = 344, jump @26\n      : @388 [@dyn 172] (gas: 9)\n 10158: a2 = s1 + 0x2118\n 10162: a0 = u32 [a2 + 0x488]\n 10166: u64 [a2 + 1120] = 0\n 10170: u64 [a2 + 1112] = 0\n 10174: u64 [a2 + 0x448] = a0\n 10178: a0 = s1 + 0x2580\n 10182: a1 = s1 + 0x2560\n 10186: u64 [a2 + 1104] = 0\n 10190: ra = 346, jump @1297\n      : @389 [@dyn 173] (gas: 13)\n 10196: a0 = s1 + 0x2118\n 10200: a2 = a0 + 0x400\n 10204: a1 = u64 [a2 + 0x80]\n 10208: u64 [s1 + 0x108] = a1\n 10212: a1 = u64 [a2 + 0x78]\n 10215: u64 [s1 + 0x100] = a1\n 10219: a1 = u64 [a2 + 0x70]\n 10222: u64 [s1 + 0xf8] = a1\n 10226: a1 = u64 [a2 + 0x68]\n 10229: u64 [s1 + 0xf0] = a1\n 10233: a0 = s1 + 0x2540\n 10237: a1 = u64 [s1 + 0x198]\n 10241: ra = 348, jump @26\n      : @390 [@dyn 174] (gas: 24)\n 10247: a3 = s1 + 0x2118\n 10251: a0 = u32 [a3 + 0x42c]\n 10255: a0 = a0 << 0x20\n 10258: a4 = a3 + 0x400\n 10262: a1 = u64 [a4 + 0x30]\n 10265: a2 = u64 [a4 + 0x38]\n 10268: a3 = u64 [a4 + 0x40]\n 10271: a4 = u64 [s1 + 0xf0]\n 10275: a0 = a0 | a4\n 10278: a4 = u64 [s1 + 0xf8]\n 10282: a1 = a1 | a4\n 10285: a4 = u64 [s1 + 0x100]\n 10289: a2 = a2 | a4\n 10292: a4 = u64 [s1 + 0x108]\n 10296: a3 = a3 | a4\n 10299: a4 = s1 + 0x2918\n 10303: a5 = a4 + 0x500\n 10307: u64 [a5 + 0x60] = a3\n 10310: u64 [a5 + 0x58] = a2\n 10313: u64 [a5 + 0x50] = a1\n 10316: u64 [a5 + 0x48] = a0\n 10319: a1 = s1 + 0x2e60\n 10323: a0 = u64 [s1 + 0x198]\n 10327: ra = 350, jump @28\n      : @391 [@dyn 175] (gas: 4)\n 10333: a0 = s1 + 0x3000\n 10337: i32 a0 = a0 + 0xfffffffffffffe80\n 10341: ecalli 9 // 'now'\n 10343: fallthrough\n      : @392 (gas: 50)\n 10344: a0 = s1 + 0x2918\n 10348: t2 = u64 [a0 + 0x580]\n 10352: a3 = u64 [a0 + 0x578]\n 10356: u64 [s1 + 0x150] = a3\n 10360: t1 = u64 [a0 + 0x570]\n 10364: ra = u64 [a0 + 0x568]\n 10368: a0 = clz t2\n 10370: a1 = clz a3\n 10372: a2 = a1 + 0x40\n 10375: a2 = a0 if t2 != 0\n 10378: a0 = clz t1\n 10380: a1 = clz ra\n 10382: a1 = a1 + 0x40\n 10385: a1 = a0 if t1 != 0\n 10388: a0 = a1 + 0x80\n 10392: a3 = a3 | t2\n 10395: a2 = a0 if a3 == 0\n 10398: a5 = a0 <u a1\n 10401: a5 = 0 if a3 != 0\n 10403: a4 = a5 >u 0\n 10405: a0 = a2 <u 0xf0\n 10409: a3 = a0 ^ 0x1\n 10412: a4 = a3 if a5 == 0\n 10415: a0 = a4 <u 0x1\n 10418: a0 = a0 + 0xffffffffffffffff\n 10421: a1 = -a4\n 10423: a5 = -a5\n 10425: a3 = a5 - a3\n 10428: t0 = 0xef - a2\n 10432: u64 [s1 + 0x198] = a1\n 10436: a5 = a1 >u 0\n 10438: a1 = a0 >u 0\n 10440: a1 = a5 if a0 == 0\n 10443: a5 = t0 <u 0x100\n 10447: a5 = a5 ^ 0x1\n 10450: a2 = a3 >u 0\n 10452: a5 = a2 if a3 != 0\n 10455: a5 = a1 if a4 != 0\n 10458: u64 [s1 + 0x140] = t2\n 10462: a1 = t1 | t2\n 10465: t2 = t1\n 10467: t1 = u64 [s1 + 0x150]\n 10471: a2 = ra | t1\n 10474: a1 = a1 | a2\n 10477: a1 = a1 <u 0x1\n 10480: a1 = a1 | a5\n 10483: u64 [s1 + 0x158] = ra\n 10487: a4 = ra\n 10489: a4 = 0 if a1 != 0\n 10491: jump @394 if a1 == 0\n      : @393 (gas: 1)\n 10494: jump @616\n      : @394 (gas: 6)\n 10497: a1 = t0 ^ 0xff\n 10501: a5 = u64 [s1 + 0x198]\n 10505: a1 = a1 | a5\n 10508: a2 = a3 | a0\n 10511: a1 = a1 | a2\n 10514: jump @396 if a1 != 0\n      : @395 (gas: 1)\n 10517: jump @616\n      : @396 (gas: 19)\n 10520: a2 = t0 + 0x1\n 10523: u64 [s1 + 0x190] = a2\n 10527: a1 = a2 <u 0x1\n 10530: a1 = a1 + a3\n 10533: u64 [s1 + 0x180] = a1\n 10537: a1 = a1 | a2\n 10540: a1 = a1 <u 0x1\n 10543: a1 = a1 + a5\n 10546: u64 [s1 + 0x170] = a1\n 10550: a1 = a1 <u a5\n 10553: a0 = a0 + a1\n 10556: u64 [s1 + 0x178] = a0\n 10560: a1 = 0xff - t0\n 10564: u64 [s1 + 0x168] = a1\n 10568: a2 = 0x80 - a1\n 10572: a0 = u64 [s1 + 0x158]\n 10576: a1 = t2\n 10578: u64 [s1 + 0x148] = t2\n 10582: ra = 352, jump @1501\n      : @397 [@dyn 176] (gas: 1)\n 10588: t0 = 354, jump @1497\n      : @398 [@dyn 177] (gas: 1)\n 10594: ra = 356, jump @1506\n      : @399 [@dyn 178] (gas: 7)\n 10600: u64 [s1 + 0x130] = a0\n 10604: u64 [s1 + 0x128] = a1\n 10608: a0 = u64 [s1 + 0x168]\n 10612: a2 = a0 + 0xffffffffffffff80\n 10615: a0 = u64 [s1 + 0x158]\n 10619: a1 = u64 [s1 + 0x148]\n 10623: ra = 358, jump @1506\n      : @400 [@dyn 179] (gas: 1)\n 10629: t0 = 360, jump @1499\n      : @401 [@dyn 180] (gas: 3)\n 10635: a0 = u64 [s1 + 0x158]\n 10639: a1 = u64 [s1 + 0x148]\n 10643: ra = 362, jump @1506\n      : @402 [@dyn 181] (gas: 11)\n 10649: a4 = u64 [s1 + 0x138]\n 10653: t0 = u64 [s1 + 0x170]\n 10657: a5 = u64 [s1 + 0x178]\n 10661: a2 = u64 [s1 + 0x180]\n 10665: a5 = a5 | a2\n 10668: a3 = u64 [s1 + 0x190]\n 10672: a3 = a3 | t0\n 10675: a3 = a3 | a5\n 10678: a0 = 0 if a4 == 0\n 10680: u64 [s1 + 0x188] = a0\n 10684: jump @404 if a3 == 0\n      : @403 (gas: 1)\n 10687: jump @603\n      : @404 (gas: 2)\n 10690: a4 = 0\n 10692: jump @615\n      : @405 (gas: 3)\n 10695: a0 = u64 [s1 + 0x198]\n 10699: a0 = i32 [a0]\n 10701: jump @407 if a0 >u 3\n      : @406 (gas: 1)\n 10705: jump @846\n      : @407 (gas: 11)\n 10708: u64 [a2 + 1824] = 0\n 10712: u64 [a2 + 1816] = 0\n 10716: u64 [a2 + 1808] = 0\n 10720: u64 [a2 + 1800] = 0\n 10724: a0 = s1 + 0x3000\n 10728: i32 a0 = a0 + 0x20\n 10731: ra = 0x16c\n 10735: ecalli 16 // 'value_transferred'\n 10737: a0 = 0x3000\n 10741: t0 = 0x16e\n 10745: jump @1491\n      : @408 [@dyn 182] (gas: 2)\n 10748: a0 = 0x3000\n 10752: t0 = 366, jump @1491\n      : @409 [@dyn 183] (gas: 1)\n 10758: t0 = 368, jump @1489\n      : @410 [@dyn 184] (gas: 1)\n 10764: jump @412 if a0 != 0\n      : @411 (gas: 1)\n 10767: jump @847\n      : @412 (gas: 9)\n 10770: a0 = 0x30190\n 10775: u64 [s1 + 0x190] = a0\n 10779: i32 a0 = a0 + 0\n 10781: u64 [s1 + 0x168] = a0\n 10785: ra = 0x172\n 10789: ecalli 4 // 'caller'\n 10791: a2 = u64 [s1 + 0x190]\n 10795: t0 = 0x174\n 10799: jump @1432\n      : @413 [@dyn 185] (gas: 2)\n 10802: a2 = u64 [s1 + 0x190]\n 10806: t0 = 372, jump @1432\n      : @414 [@dyn 186] (gas: 8)\n 10812: u64 [a2 + 1696] = 0\n 10816: a4 = a2 + 0x600\n 10820: u64 [a4 + 0x98] = a1\n 10824: u64 [a4 + 0x90] = a0\n 10828: a1 = s1 + 0x27a0\n 10832: u64 [a4 + 0x88] = a3\n 10836: a0 = 0\n 10838: ra = 374, jump @24\n      : @415 [@dyn 187] (gas: 9)\n 10844: a1 = s1 + 0x2118\n 10848: u64 [a1 + 1664] = 0\n 10852: u64 [a1 + 1656] = 0\n 10856: u64 [a1 + 1640] = 0x1\n 10861: a2 = a1\n 10863: a0 = 0x20\n 10866: a1 = s1 + 0x2780\n 10870: u64 [a2 + 1648] = 0\n 10874: ra = 376, jump @24\n      : @416 [@dyn 188] (gas: 1)\n 10880: t0 = 378, jump @1471\n      : @417 [@dyn 189] (gas: 2)\n 10886: a1 = i32 [0x20180]\n 10891: jump @419 if a1 >u 63\n      : @418 (gas: 2)\n 10895: u32 [0x20180] = 0x40\n 10901: fallthrough\n      : @419 (gas: 14)\n 10902: a0 = sp + 0xffffffffffffffe0\n 10905: a2 = a0 & 0xffffffffffffffe0\n 10908: u64 [s1 + 0x188] = a2\n 10912: sp = a2\n 10914: a0 = 0x20190\n 10919: i32 a0 = a0 + 0\n 10921: i32 a2 = a2 + 0\n 10923: a1 = 0x40\n 10926: u64 [s1 + 0x160] = a0\n 10930: ra = 0x17c\n 10934: ecalli 8 // 'hash_keccak_256'\n 10936: a3 = u64 [s1 + 0x188]\n 10940: t0 = 0x17e\n 10944: jump @1456\n      : @420 [@dyn 190] (gas: 2)\n 10947: a3 = u64 [s1 + 0x188]\n 10951: t0 = 382, jump @1456\n      : @421 [@dyn 191] (gas: 21)\n 10957: a0 = s1 + 0x2918\n 10961: u64 [a0 + 1856] = 0\n 10965: u64 [a0 + 1848] = 0\n 10969: u64 [a0 + 1840] = 0\n 10973: u64 [a0 + 1832] = 0\n 10977: a0 = s1 + 0x3000\n 10981: i32 a0 = a0 + 0x40\n 10984: ecalli 16 // 'value_transferred'\n 10986: a0 = s1 + 0x2918\n 10990: a2 = a0 + 0x700\n 10994: a1 = u64 [a2 + 0x28]\n 10997: u64 [s1 + 0x188] = a1\n 11001: a1 = u64 [a2 + 0x30]\n 11004: u64 [s1 + 0x180] = a1\n 11008: a1 = u64 [a2 + 0x38]\n 11011: u64 [s1 + 0x178] = a1\n 11015: a0 = u64 [a2 + 0x40]\n 11018: u64 [s1 + 0x170] = a0\n 11022: a0 = s1 + 0x2760\n 11026: a1 = u64 [s1 + 0x198]\n 11030: ra = 384, jump @26\n      : @422 [@dyn 192] (gas: 22)\n 11036: a4 = s1 + 0x2118\n 11040: a3 = u64 [a4 + 0x648]\n 11044: a0 = u64 [a4 + 0x650]\n 11048: a1 = u64 [a4 + 0x658]\n 11052: a2 = u64 [a4 + 0x660]\n 11056: a5 = u64 [s1 + 0x170]\n 11060: u64 [a4 + 0x600] = a5\n 11064: a5 = u64 [s1 + 0x178]\n 11068: u64 [a4 + 0x5f8] = a5\n 11072: a5 = u64 [s1 + 0x180]\n 11076: u64 [a4 + 0x5f0] = a5\n 11080: a5 = u64 [s1 + 0x188]\n 11084: u64 [a4 + 0x5e8] = a5\n 11088: a5 = a4 + 0x600\n 11092: u64 [a5 + 0x20] = a2\n 11095: u64 [a5 + 0x18] = a1\n 11098: u64 [a5 + 0x10] = a0\n 11101: a0 = s1 + 0x2740\n 11105: a1 = s1 + 0x2720\n 11109: a2 = s1 + 0x2700\n 11113: u64 [a5 + 0x8] = a3\n 11116: ra = 386, jump @1305\n      : @423 [@dyn 193] (gas: 15)\n 11122: a3 = s1 + 0x2118\n 11126: a4 = a3 + 0x600\n 11130: a0 = u64 [a4 + 0x40]\n 11133: a1 = u64 [a4 + 0x38]\n 11136: a2 = u64 [a4 + 0x30]\n 11139: a3 = u64 [a4 + 0x28]\n 11142: a4 = s1 + 0x2918\n 11146: a5 = a4 + 0x700\n 11150: u64 [a5 + 0x60] = a0\n 11153: u64 [a5 + 0x58] = a1\n 11156: u64 [a5 + 0x50] = a2\n 11159: u64 [a5 + 0x48] = a3\n 11162: a1 = s1 + 0x3060\n 11166: a0 = u64 [s1 + 0x198]\n 11170: ra = 388, jump @28\n      : @424 [@dyn 194] (gas: 3)\n 11176: a0 = s1 + 0x26e0\n 11180: a1 = 0x40\n 11183: ra = 390, jump @22\n      : @425 [@dyn 195] (gas: 20)\n 11189: a0 = s1 + 0x2118\n 11193: a2 = a0 + 0x500\n 11197: a1 = u64 [a2 + 0xe0]\n 11201: u64 [s1 + 0x188] = a1\n 11205: a1 = u64 [a2 + 0xd8]\n 11209: u64 [s1 + 0x180] = a1\n 11213: a1 = u64 [a2 + 0xd0]\n 11217: u64 [s1 + 0x178] = a1\n 11221: a0 = u64 [a2 + 0xc8]\n 11225: u64 [s1 + 0x198] = a0\n 11229: a0 = s1 + 0x2918\n 11233: u64 [a0 + 1920] = 0\n 11237: u64 [a0 + 1912] = 0\n 11241: u64 [a0 + 1904] = 0\n 11245: u64 [a0 + 1896] = 0\n 11249: a0 = s1 + 0x3000\n 11253: i32 a0 = a0 + 0x80\n 11257: ra = 0x188\n 11261: ecalli 16 // 'value_transferred'\n 11263: fallthrough\n      : @426 [@dyn 196] (gas: 14)\n 11264: a3 = s1 + 0x100\n 11268: a0 = u64 [a3 + 0x88]\n 11272: a1 = u64 [a3 + 0x78]\n 11275: a0 = a0 | a1\n 11278: a1 = u64 [a3 + 0x98]\n 11282: a5 = a1\n 11284: a2 = u64 [a3 + 0x80]\n 11288: a1 = a1 | a2\n 11291: a1 = a1 | a0\n 11294: a1 = a1 >> 0x20\n 11297: a0 = a0 | a2\n 11300: a0 = a0 << 0x20\n 11303: a0 = a0 | a1\n 11306: jump @428 if a0 == 0\n      : @427 (gas: 1)\n 11309: jump @782\n      : @428 (gas: 2)\n 11312: a0 = 0x3000\n 11316: t0 = 394, jump @1491\n      : @429 [@dyn 197] (gas: 13)\n 11322: a0 = u64 [a4 + 0x68]\n 11325: a1 = u64 [a4 + 0x70]\n 11328: a2 = u64 [a4 + 0x78]\n 11331: a3 = u64 [a4 + 0x80]\n 11335: a4 = s1 + 0x2118\n 11339: u64 [a4 + 0x5c0] = a3\n 11343: a3 = a4 + 0x500\n 11347: u64 [a3 + 0xb8] = a2\n 11351: u64 [a3 + 0xb0] = a1\n 11355: a1 = s1 + 0x26c0\n 11359: u64 [a3 + 0xa8] = a0\n 11363: a0 = a5\n 11365: ra = 396, jump @24\n      : @430 [@dyn 198] (gas: 6)\n 11371: a0 = u64 [s1 + 0x168]\n 11375: ra = 0x18e\n 11379: ecalli 4 // 'caller'\n 11381: a2 = u64 [s1 + 0x190]\n 11385: t0 = 0x190\n 11389: jump @1430\n      : @431 [@dyn 199] (gas: 2)\n 11392: a2 = u64 [s1 + 0x190]\n 11396: t0 = 400, jump @1430\n      : @432 [@dyn 200] (gas: 25)\n 11402: t0 = a1 | a0\n 11405: a3 = a3 >> 0x20\n 11408: a2 = reverse a2\n 11410: a1 = a2 << 0x20\n 11413: a1 = a1 | a3\n 11416: a2 = a2 >> 0x20\n 11419: a3 = u64 [0x20000]\n 11424: a0 = s1 + 0x2118\n 11428: u64 [a0 + 0x5a0] = a3\n 11432: a3 = u64 [0x20008]\n 11437: a4 = u64 [0x20010]\n 11442: a5 = u64 [0x20018]\n 11447: u64 [a0 + 0x598] = a3\n 11451: a3 = a0 + 0x500\n 11455: u64 [a3 + 0x90] = a4\n 11459: u64 [a0 + 1408] = 0\n 11463: u64 [a3 + 0x88] = a5\n 11467: u64 [a3 + 0x78] = a2\n 11470: u64 [a3 + 0x70] = a1\n 11473: a1 = 0x20\n 11476: a2 = s1 + 0x26a0\n 11480: a3 = s1 + 0x2680\n 11484: u64 [a0 + 0x568] = t0\n 11488: a0 = u64 [s1 + 0x198]\n 11492: ra = 402, jump @29\n      : @433 [@dyn 201] (gas: 7)\n 11498: a0 = 0\n 11500: a1 = u64 [s1 + 0x160]\n 11504: a2 = 0\n 11506: ra = 0x3ce\n 11510: ecalli 13 // 'seal_return'\n 11512: t0 = 0x3d0\n 11516: jump @1484\n      : @434 (gas: 10)\n 11519: u64 [a2 + 928] = 0\n 11523: u64 [a2 + 920] = 0\n 11527: u64 [a2 + 912] = 0\n 11531: u64 [a2 + 904] = 0\n 11535: a0 = s1 + 0x3000\n 11539: i32 a0 = a0 + 0xfffffffffffffca0\n 11543: ra = 0x194\n 11547: ecalli 16 // 'value_transferred'\n 11549: t0 = 0x196\n 11553: jump @1492\n      : @435 [@dyn 202] (gas: 1)\n 11556: t0 = 406, jump @1492\n      : @436 [@dyn 203] (gas: 8)\n 11562: a0 = u64 [a4 + 0x98]\n 11566: a1 = u64 [a4 + 0xa0]\n 11570: a2 = u64 [a4 + 0x90]\n 11574: a3 = u64 [a4 + 0x88]\n 11578: a1 = a1 | a2\n 11581: a0 = a0 | a3\n 11584: a0 = a0 | a1\n 11587: jump @438 if a0 == 0\n      : @437 (gas: 1)\n 11590: jump @851\n      : @438 (gas: 3)\n 11593: a0 = u64 [s1 + 0x198]\n 11597: a0 = i32 [a0]\n 11599: jump @440 if a0 >u 67\n      : @439 (gas: 1)\n 11603: jump @852\n      : @440 (gas: 4)\n 11606: a0 = s1 + 0x1700\n 11610: ra = 0x198\n 11614: t0 = 0x512\n 11618: jump @1487\n      : @441 [@dyn 204] (gas: 13)\n 11621: a0 = s1 + 0x1118\n 11625: a2 = a0 + 0x500\n 11629: a1 = u64 [a2 + 0xf8]\n 11633: u64 [s1 + 0x168] = a1\n 11637: a1 = u64 [a2 + 0xf0]\n 11641: u64 [s1 + 0x198] = a1\n 11645: a0 = u64 [a2 + 0xe8]\n 11649: u64 [s1 + 0x190] = a0\n 11653: a0 = s1 + 0x3000\n 11657: i32 a0 = a0 + 0xfffffffffffffcc0\n 11661: a1 = 0x24\n 11664: ecalli 2 // 'call_data_load'\n 11666: fallthrough\n      : @442 (gas: 19)\n 11667: a0 = s1 + 0x2918\n 11671: a5 = a0 + 0x300\n 11675: a4 = u64 [a5 + 0xc0]\n 11679: a3 = u64 [a5 + 0xb8]\n 11683: a2 = u64 [a5 + 0xb0]\n 11687: a1 = u64 [a5 + 0xa8]\n 11691: a5 = s1 + 0x100\n 11695: u64 [a5 + 0x80] = a2\n 11699: u64 [a5 + 0x70] = a4\n 11702: a0 = a2 | a4\n 11705: u64 [a5 + 0x88] = a1\n 11709: a1 = a1 | a3\n 11712: a1 = a1 | a0\n 11715: a1 = a1 >> 0x20\n 11718: u64 [a5 + 0x78] = a3\n 11721: a0 = a0 | a3\n 11724: a0 = a0 << 0x20\n 11727: a0 = a0 | a1\n 11730: jump @444 if a0 == 0\n      : @443 (gas: 1)\n 11733: jump @853\n      : @444 (gas: 15)\n 11736: a3 = s1 + 0x100\n 11740: a0 = u64 [a3 + 0x68]\n 11743: a0 = a0 << 0x20\n 11746: a0 = a0 >> 0x20\n 11749: a2 = s1 + 0x1118\n 11753: u64 [a2 + 1504] = 0\n 11757: a1 = u64 [a3 + 0x90]\n 11761: a4 = a2 + 0x500\n 11765: u64 [a4 + 0xc8] = a1\n 11769: a1 = u64 [a3 + 0x98]\n 11773: u64 [a4 + 0xd0] = a1\n 11777: a1 = s1 + 0x16e0\n 11781: u64 [a4 + 0xd8] = a0\n 11785: a0 = 0\n 11787: ra = 410, jump @24\n      : @445 [@dyn 205] (gas: 3)\n 11793: t0 = 0x19c\n 11797: a1 = s1 + 0x1118\n 11801: fallthrough\n      : @446 [@dyn 206] (gas: 8)\n 11802: u64 [a1 + 1472] = 0\n 11806: u64 [a1 + 1464] = 0\n 11810: u64 [a1 + 1448] = 0x2\n 11815: a2 = a1\n 11817: a0 = 0x20\n 11820: a1 = s1 + 0x16c0\n 11824: u64 [a2 + 1456] = 0\n 11828: ra = 414, jump @24\n      : @447 [@dyn 207] (gas: 3)\n 11834: a1 = 0x20180\n 11839: a0 = i32 [0x20180]\n 11844: jump @449 if a0 >u 63\n      : @448 (gas: 2)\n 11848: u32 [0x20180] = 0x40\n 11854: fallthrough\n      : @449 (gas: 14)\n 11855: a0 = sp + 0xffffffffffffffe0\n 11858: a2 = a0 & 0xffffffffffffffe0\n 11861: u64 [s1 + 0x168] = a2\n 11865: sp = a2\n 11867: a0 = 0x20190\n 11872: i32 a0 = a0 + 0\n 11874: u64 [s1 + 0x198] = a1\n 11878: i32 a2 = a2 + 0\n 11880: a1 = 0x40\n 11883: u64 [s1 + 0x190] = a0\n 11887: ra = 0x1a0\n 11891: ecalli 8 // 'hash_keccak_256'\n 11893: t0 = 0x1a2\n 11897: jump @1438\n      : @450 [@dyn 208] (gas: 1)\n 11900: t0 = 418, jump @1438\n      : @451 [@dyn 209] (gas: 13)\n 11906: a2 = s1 + 0x1118\n 11910: a0 = u64 [s1 + 0x170]\n 11914: a3 = a2 + 0x500\n 11918: u64 [a3 + 0xa0] = a0\n 11922: a0 = u64 [s1 + 0x178]\n 11926: u64 [a3 + 0x98] = a0\n 11930: a0 = u64 [s1 + 0x180]\n 11934: u64 [a3 + 0x90] = a0\n 11938: a1 = s1 + 0x16a0\n 11942: a0 = u64 [s1 + 0x188]\n 11946: u64 [a3 + 0x88] = a0\n 11950: a0 = 0\n 11952: ra = 420, jump @24\n      : @452 [@dyn 210] (gas: 3)\n 11958: t0 = 0x1a6\n 11962: a1 = s1 + 0x1118\n 11966: fallthrough\n      : @453 [@dyn 211] (gas: 13)\n 11967: a0 = u64 [s1 + 0x148]\n 11971: a2 = a1 + 0x500\n 11975: u64 [a2 + 0x80] = a0\n 11979: a0 = u64 [s1 + 0x150]\n 11983: u64 [a2 + 0x78] = a0\n 11986: a0 = u64 [s1 + 0x158]\n 11990: u64 [a2 + 0x70] = a0\n 11993: a3 = a1\n 11995: a0 = 0x20\n 11998: a1 = s1 + 0x1680\n 12002: a2 = u64 [s1 + 0x160]\n 12006: u64 [a3 + 0x568] = a2\n 12010: ra = 424, jump @24\n      : @454 [@dyn 212] (gas: 3)\n 12016: a1 = u64 [s1 + 0x198]\n 12020: a0 = i32 [a1]\n 12022: jump @456 if a0 >u 63\n      : @455 (gas: 2)\n 12026: u32 [a1 + 0] = 0x40\n 12029: fallthrough\n      : @456 (gas: 4)\n 12030: a0 = sp + 0xffffffffffffffe0\n 12033: a0 = a0 & 0xffffffffffffffe0\n 12036: u64 [s1 + 0x188] = a0\n 12040: t0 = 426, jump @1445\n      : @457 [@dyn 213] (gas: 21)\n 12046: ecalli 8 // 'hash_keccak_256'\n 12048: a3 = u64 [s1 + 0x188]\n 12052: a0 = u64 [a3 + 0x18]\n 12055: a1 = u64 [a3 + 0x10]\n 12058: a2 = u64 [a3 + 0x8]\n 12061: a3 = u64 [a3]\n 12063: a5 = reverse a0\n 12065: u64 [s1 + 0xd8] = a5\n 12069: a4 = reverse a1\n 12071: u64 [s1 + 0xe0] = a4\n 12075: a2 = reverse a2\n 12077: u64 [s1 + 0xf0] = a2\n 12081: a0 = reverse a3\n 12083: u64 [s1 + 0xe8] = a0\n 12087: a1 = u64 [s1 + 0x168]\n 12091: u64 [a1 + 0x18] = a0\n 12094: u64 [a1 + 0x10] = a2\n 12097: u64 [a1 + 0x8] = a4\n 12100: u64 [a1] = a5\n 12102: a0 = s1 + 0x1660\n 12106: ra = 428, jump @26\n      : @458 [@dyn 214] (gas: 3)\n 12112: t0 = 0x1ae\n 12116: a1 = s1 + 0x1118\n 12120: fallthrough\n      : @459 [@dyn 215] (gas: 34)\n 12121: a2 = a1 + 0x500\n 12125: a0 = u64 [a2 + 0x58]\n 12128: u64 [s1 + 0xc8] = a0\n 12132: a0 = u64 [a2 + 0x50]\n 12135: u64 [s1 + 0xc0] = a0\n 12139: a0 = u64 [a2 + 0x48]\n 12142: u64 [s1 + 0xd0] = a0\n 12146: a0 = sp + 0xffffffffffffffe0\n 12149: a4 = a0 & 0xffffffffffffffe0\n 12152: u64 [s1 + 0x188] = a4\n 12156: sp = a4\n 12158: a1 = u64 [s1 + 0xd8]\n 12162: a1 = a1 + 0x1\n 12165: a0 = a1 <u 0x1\n 12168: a2 = u64 [s1 + 0xe0]\n 12172: a2 = a2 + a0\n 12175: a0 = a1 | a2\n 12178: a0 = a0 <u 0x1\n 12181: a5 = u64 [s1 + 0xf0]\n 12185: a3 = a5 + a0\n 12188: a0 = a3 <u a5\n 12191: a5 = u64 [s1 + 0xe8]\n 12195: a0 = a0 + a5\n 12198: u64 [s1 + 0x180] = a0\n 12202: u64 [a4 + 0x18] = a0\n 12205: u64 [s1 + 0x168] = a3\n 12209: u64 [a4 + 0x10] = a3\n 12212: u64 [s1 + 0x170] = a2\n 12216: u64 [a4 + 0x8] = a2\n 12219: u64 [s1 + 0x178] = a1\n 12223: u64 [a4] = a1\n 12225: a0 = s1 + 0x1640\n 12229: a1 = 0x40\n 12232: ra = 432, jump @22\n      : @460 [@dyn 216] (gas: 13)\n 12238: a0 = s1 + 0x1118\n 12242: a2 = a0 + 0x500\n 12246: a1 = u64 [a2 + 0x40]\n 12249: u64 [s1 + 0x110] = a1\n 12253: a1 = u64 [a2 + 0x38]\n 12256: u64 [s1 + 0xf8] = a1\n 12260: a1 = u64 [a2 + 0x30]\n 12263: u64 [s1 + 0x100] = a1\n 12267: a1 = u64 [a2 + 0x28]\n 12270: u64 [s1 + 0x108] = a1\n 12274: a0 = s1 + 0x1620\n 12278: a1 = u64 [s1 + 0x188]\n 12282: ra = 434, jump @26\n      : @461 [@dyn 217] (gas: 18)\n 12288: a3 = s1 + 0x1118\n 12292: a5 = a3 + 0x500\n 12296: a0 = u64 [a5 + 0x20]\n 12299: a1 = u64 [a5 + 0x18]\n 12302: a2 = u64 [a5 + 0x10]\n 12305: a4 = u64 [a5 + 0x8]\n 12308: u64 [s1 + 0x160] = a0\n 12312: a5 = a3 + 0x400\n 12316: u64 [a5 + 0xe0] = a0\n 12320: u64 [s1 + 0x130] = a1\n 12324: u64 [a5 + 0xd8] = a1\n 12328: u64 [s1 + 0x128] = a2\n 12332: u64 [a5 + 0xd0] = a2\n 12336: a0 = s1 + 0x1600\n 12340: a1 = s1 + 0x15e0\n 12344: u64 [s1 + 0x188] = a4\n 12348: u64 [a5 + 0xc8] = a4\n 12352: ra = 436, jump @1247\n      : @462 [@dyn 218] (gas: 13)\n 12358: a3 = u64 [s1 + 0xf8]\n 12362: a4 = s1 + 0x100\n 12366: a1 = u64 [a4 + 0x10]\n 12369: a0 = u64 [a4 + 0x8]\n 12372: a2 = u64 [a4]\n 12374: a2 = a2 | a1\n 12377: a1 = a0 | a3\n 12380: a1 = a1 | a2\n 12383: a1 = a1 >> 0x20\n 12386: a2 = a2 | a3\n 12389: a2 = a2 << 0x20\n 12392: a1 = a1 | a2\n 12395: jump @464 if a1 == 0\n      : @463 (gas: 1)\n 12398: jump @782\n      : @464 (gas: 16)\n 12401: a5 = s1 + 0x1118\n 12405: t0 = u64 [a5 + 0x500]\n 12409: t1 = u64 [a5 + 0x4f8]\n 12413: a3 = a5 + 0x400\n 12417: a1 = u64 [a3 + 0xf0]\n 12421: a2 = u64 [a3 + 0xe8]\n 12425: u64 [s1 + 0x140] = a2\n 12429: u64 [a3 + 0xa8] = a2\n 12433: u64 [s1 + 0x150] = a1\n 12437: u64 [a3 + 0xb0] = a1\n 12441: u64 [s1 + 0x148] = t1\n 12445: u64 [a5 + 0x4b8] = t1\n 12449: a1 = s1 + 0x15c0\n 12453: u64 [s1 + 0x158] = t0\n 12457: u64 [a5 + 0x4c0] = t0\n 12461: ra = 438, jump @24\n      : @465 [@dyn 219] (gas: 9)\n 12467: a4 = u64 [s1 + 0xf8]\n 12471: a1 = u64 [s1 + 0x108]\n 12475: a0 = a1 + 0x20\n 12478: a5 = u64 [s1 + 0x188]\n 12482: a2 = a5 & 0x1\n 12485: a3 = u64 [s1 + 0x110]\n 12489: a3 = a3 | a4\n 12492: u64 [s1 + 0x138] = a0\n 12496: jump @467 if a2 == 0\n      : @466 (gas: 1)\n 12499: jump @593\n      : @467 (gas: 6)\n 12502: a2 = 0xffffffe0\n 12512: a2 = a1 <u a2\n 12515: a1 = u64 [s1 + 0x100]\n 12519: a2 = 0 if a1 != 0\n 12521: a2 = 0 if a3 != 0\n 12523: jump @469 if a2 != 0\n      : @468 (gas: 1)\n 12526: jump @782\n      : @469 (gas: 13)\n 12529: u64 [s1 + 0xb8] = a3\n 12533: a2 = a5 & 0xffffffffffffff00\n 12537: a3 = s1 + 0x1118\n 12541: a1 = u64 [s1 + 0x128]\n 12545: a4 = a3 + 0x400\n 12549: u64 [a4 + 0x30] = a1\n 12552: u64 [a4 + 0x28] = a2\n 12555: a1 = u64 [s1 + 0x130]\n 12559: u64 [a4 + 0x38] = a1\n 12562: a1 = s1 + 0x1540\n 12566: a2 = u64 [s1 + 0x160]\n 12570: u64 [a4 + 0x40] = a2\n 12573: ra = 440, jump @24\n      : @470 [@dyn 220] (gas: 16)\n 12579: a5 = s1 + 0x1118\n 12583: t2 = 0\n 12585: t1 = 0\n 12587: u64 [s1 + 400] = 0\n 12591: a3 = s1 + 0x100\n 12595: a0 = u64 [a3 + 0x48]\n 12598: a1 = u64 [a3 + 0x40]\n 12601: a0 = a0 | a1\n 12604: a1 = u64 [a3 + 0x58]\n 12607: a2 = u64 [a3 + 0x50]\n 12610: a1 = a1 | a2\n 12613: a0 = a0 | a1\n 12616: a0 = a0 >u 0\n 12618: a0 = a0 << 0x5\n 12621: u64 [a3 + 0x98] = a0\n 12625: jump @684\n      : @471 (gas: 1)\n 12628: jump @473 if a0 == 1641031603\n      : @472 (gas: 1)\n 12635: jump @854\n      : @473 (gas: 10)\n 12638: u64 [a2 + 736] = 0\n 12642: u64 [a2 + 728] = 0\n 12646: u64 [a2 + 720] = 0\n 12650: u64 [a2 + 712] = 0\n 12654: a0 = s1 + 0x3000\n 12658: i32 a0 = a0 + 0xfffffffffffffbe0\n 12662: ra = 0x1ba\n 12666: ecalli 16 // 'value_transferred'\n 12668: t0 = 0x1bc\n 12672: jump @1468\n      : @474 [@dyn 221] (gas: 1)\n 12675: t0 = 444, jump @1468\n      : @475 [@dyn 222] (gas: 8)\n 12681: a0 = u64 [a4 + 0xd8]\n 12685: a1 = u64 [a4 + 0xe0]\n 12689: a2 = u64 [a4 + 0xd0]\n 12693: a3 = u64 [a4 + 0xc8]\n 12697: a1 = a1 | a2\n 12700: a0 = a0 | a3\n 12703: a0 = a0 | a1\n 12706: jump @477 if a0 == 0\n      : @476 (gas: 1)\n 12709: jump @859\n      : @477 (gas: 3)\n 12712: a0 = u64 [s1 + 0x198]\n 12716: a0 = i32 [a0]\n 12718: jump @479 if a0 >u 3\n      : @478 (gas: 1)\n 12722: jump @860\n      : @479 (gas: 4)\n 12725: a0 = s1 + 0x7ff\n 12729: a0 = a0 + 0x7e1\n 12733: a1 = 0x40\n 12736: ra = 446, jump @22\n      : @480 [@dyn 223] (gas: 12)\n 12742: a0 = s1 + 0x7ff\n 12746: a0 = a0 + 0x119\n 12750: a2 = a0 + 0x600\n 12754: a1 = u64 [a2 + 0xe0]\n 12758: u64 [s1 + 0x198] = a1\n 12762: a1 = u64 [a2 + 0xd8]\n 12766: u64 [s1 + 0x190] = a1\n 12770: a1 = u64 [a2 + 0xd0]\n 12774: u64 [s1 + 0x180] = a1\n 12778: a0 = u64 [a2 + 0xc8]\n 12782: u64 [s1 + 0x188] = a0\n 12786: ra = 448, jump @15\n      : @481 [@dyn 224] (gas: 14)\n 12792: a4 = s1 + 0x100\n 12796: a0 = u64 [a4 + 0x98]\n 12800: a1 = u64 [a4 + 0x80]\n 12804: a0 = a0 | a1\n 12807: a1 = u64 [a4 + 0x88]\n 12811: a3 = a1\n 12813: a2 = u64 [a4 + 0x90]\n 12817: a1 = a1 | a2\n 12820: a1 = a1 | a0\n 12823: a1 = a1 >> 0x20\n 12826: a0 = a0 | a2\n 12829: a0 = a0 << 0x20\n 12832: a0 = a0 | a1\n 12835: jump @483 if a0 == 0\n      : @482 (gas: 1)\n 12838: jump @782\n      : @483 (gas: 14)\n 12841: a2 = u64 [0x301b0]\n 12846: a1 = u64 [0x301b8]\n 12851: a0 = u32 [0x301c0]\n 12856: a4 = s1 + 0x7ff\n 12860: a4 = a4 + 0x119\n 12864: u64 [a4 + 1728] = 0\n 12868: a5 = a4 + 0x600\n 12872: u64 [a5 + 0xb8] = a0\n 12876: u64 [a5 + 0xb0] = a1\n 12880: a1 = s1 + 0x7ff\n 12884: a1 = a1 + 0x7c1\n 12888: u64 [a5 + 0xa8] = a2\n 12892: a0 = a3\n 12894: ra = 450, jump @24\n      : @484 [@dyn 225] (gas: 4)\n 12900: a1 = 0x20\n 12903: a0 = u64 [s1 + 0x188]\n 12907: ra = 0x36a\n 12911: jump @37\n      : @485 (gas: 1)\n 12914: t0 = 452, jump @1478\n      : @486 [@dyn 226] (gas: 12)\n 12920: t0 = u64 [s1 + 0x168]\n 12924: a3 = a0 if t0 != 0\n 12927: u64 [s1 + 0x198] = a3\n 12931: a0 = u64 [s1 + 0x160]\n 12935: a2 = u64 [s1 + 0x130]\n 12939: a0 = a0 | a2\n 12942: a2 = u64 [s1 + 0x118]\n 12946: a0 = a2 if a4 == 0\n 12949: a5 = u64 [s1 + 0x150]\n 12953: a3 = a5\n 12955: a3 = a0 if t0 != 0\n 12958: t0 = 454, jump @1459\n      : @487 [@dyn 227] (gas: 1)\n 12964: ra = 456, jump @1501\n      : @488 [@dyn 228] (gas: 6)\n 12970: u64 [s1 + 0x130] = a0\n 12974: u64 [s1 + 0x118] = a1\n 12978: a0 = u64 [s1 + 0x148]\n 12982: a1 = u64 [s1 + 0x158]\n 12986: a2 = u64 [s1 + 0x190]\n 12990: ra = 458, jump @1501\n      : @489 [@dyn 229] (gas: 1)\n 12996: t0 = 460, jump @1465\n      : @490 [@dyn 230] (gas: 1)\n 13002: ra = 462, jump @1506\n      : @491 [@dyn 231] (gas: 1)\n 13008: t0 = 464, jump @1467\n      : @492 [@dyn 232] (gas: 14)\n 13014: a2 = u64 [s1 + 0x158]\n 13018: a2 = a1 if a3 != 0\n 13021: u64 [s1 + 0x158] = a2\n 13025: a1 = u64 [s1 + 0x110]\n 13029: a0 = a0 | a1\n 13032: a1 = u64 [s1 + 0x130]\n 13036: a0 = a1 if a4 == 0\n 13039: a1 = u64 [s1 + 0x148]\n 13043: a1 = a0 if a3 != 0\n 13046: a2 = a3\n 13048: u64 [s1 + 0x148] = a1\n 13052: a0 = u64 [s1 + 0x150]\n 13056: a1 = u64 [s1 + 0x140]\n 13060: ra = 466, jump @1501\n      : @493 [@dyn 233] (gas: 1)\n 13066: t0 = 468, jump @1451\n      : @494 [@dyn 234] (gas: 3)\n 13072: t1 = u64 [s1 + 0x158]\n 13076: t2 = u64 [s1 + 0x148]\n 13080: fallthrough\n      : @495 (gas: 68)\n 13081: u64 [s1 + 0x158] = a4\n 13085: a2 = t2 >> 0x3f\n 13088: a3 = t1 << 0x1\n 13091: t0 = a3 | a2\n 13094: a3 = t2 << 0x1\n 13097: a4 = u64 [s1 + 0x198]\n 13101: a4 = a4 >> 0x3f\n 13104: a3 = a3 | a4\n 13107: u64 [s1 + 0x148] = a3\n 13111: a2 = u64 [s1 + 0x128]\n 13115: t2 = a1\n 13117: u64 [s1 + 0x150] = t0\n 13121: a1 = a2 ^ t0\n 13124: ra = t1\n 13126: t1 = a2 <u t0\n 13129: a4 = u64 [s1 + 0x130]\n 13133: t0 = a4 <u a3\n 13136: t0 = t1 if a1 != 0\n 13139: a1 = t2 << 0x1\n 13142: a3 = a0 >> 0x3f\n 13145: a1 = a1 | a3\n 13148: u64 [s1 + 0x140] = a1\n 13152: a3 = ra >> 0x3f\n 13155: a0 = a0 << 0x1\n 13158: a3 = a3 | a0\n 13161: a0 = u64 [s1 + 0x198]\n 13165: a0 = a0 << 0x1\n 13168: a4 = u64 [s1 + 0x160]\n 13172: a1 = a4 >> 0x3f\n 13175: ra = a0 | a1\n 13178: a1 = a4 << 0x1\n 13181: a4 = u64 [s1 + 0x168]\n 13185: t1 = a4 >> 0x3f\n 13188: t1 = a1 | t1\n 13191: a1 = a4 << 0x1\n 13194: a4 = u64 [s1 + 0x188]\n 13198: t2 = a4 >> 0x3f\n 13201: a1 = a1 | t2\n 13204: a4 = a4 << 0x1\n 13207: a0 = u64 [s1 + 0x158]\n 13211: a4 = a4 | a0\n 13214: u64 [s1 + 0x188] = a4\n 13218: a1 = a1 | a5\n 13221: u64 [s1 + 0x168] = a1\n 13225: a1 = a5 | t1\n 13228: u64 [s1 + 0x160] = a1\n 13232: a0 = a5 | ra\n 13235: u64 [s1 + 0x198] = a0\n 13239: a0 = a2 - a3\n 13242: a0 = a0 <u t0\n 13245: a1 = a2 <u a3\n 13248: t0 = u64 [s1 + 0x140]\n 13252: a4 = a2 - t0\n 13255: a4 = a4 - a1\n 13258: a4 = a4 - a0\n 13261: a5 = a4 >>a 0x3f\n 13264: a0 = u64 [s1 + 0x138]\n 13268: a0 = a0 & a5\n 13271: a1 = u64 [s1 + 0x148]\n 13275: t2 = a1 - a0\n 13278: a1 = a1 <u a0\n 13281: a0 = u64 [s1 + 0x150]\n 13285: t1 = a0 - a1\n 13288: a1 = 0 if a0 != 0\n 13290: a0 = a3 - a1\n 13293: a1 = a3 <u a1\n 13296: a1 = t0 - a1\n 13299: t0 = 470, jump @1490\n      : @496 [@dyn 235] (gas: 17)\n 13305: t0 = a4 <u a2\n 13308: a2 = a4 - a2\n 13311: a4 = a3 <u 0x1\n 13314: ra = ra - a4\n 13317: a4 = u64 [s1 + 0x178]\n 13321: a4 = a4 - t0\n 13324: a3 = a3 + 0xffffffffffffffff\n 13327: u64 [s1 + 0x180] = ra\n 13331: u64 [s1 + 0x178] = a4\n 13335: t0 = ra | a4\n 13338: u64 [s1 + 0x190] = a3\n 13342: a4 = a3 | a2\n 13345: a3 = a4 | t0\n 13348: a4 = a5 & 0x1\n 13351: u64 [s1 + 0x170] = a2\n 13355: a5 = 0\n 13357: jump @495 if a3 != 0\n      : @497 (gas: 4)\n 13361: a0 = u64 [s1 + 0x188]\n 13365: a0 = a0 << 0x1\n 13368: a4 = a4 | a0\n 13371: fallthrough\n      : @498 (gas: 3)\n 13372: a0 = a4 & 0xffffffffffffffff\n 13375: a1 = u64 [s1 + 0x120]\n 13379: jump @500 if a1 == a0\n      : @499 (gas: 1)\n 13382: jump @861\n      : @500 (gas: 8)\n 13385: a0 = 0x30190\n 13390: u64 [s1 + 0x140] = a0\n 13394: i32 a0 = a0 + 0\n 13396: u64 [s1 + 0x138] = a0\n 13400: ra = 0x1d8\n 13404: ecalli 4 // 'caller'\n 13406: t0 = 0x1da\n 13410: jump @1428\n      : @501 [@dyn 236] (gas: 1)\n 13413: t0 = 474, jump @1428\n      : @502 [@dyn 237] (gas: 9)\n 13419: u64 [a2 + 1600] = 0\n 13423: a4 = a2 + 0x600\n 13427: u64 [a4 + 0x38] = a1\n 13430: u64 [a4 + 0x30] = a0\n 13433: a1 = s1 + 0x7ff\n 13437: a1 = a1 + 0x741\n 13441: u64 [a4 + 0x28] = a3\n 13444: a0 = 0\n 13446: ra = 476, jump @24\n      : @503 [@dyn 238] (gas: 11)\n 13452: a1 = s1 + 0x7ff\n 13456: a1 = a1 + 0x119\n 13460: u64 [a1 + 1568] = 0\n 13464: u64 [a1 + 1560] = 0\n 13468: u64 [a1 + 1544] = 0x1\n 13473: a2 = a1\n 13475: a0 = 0x20\n 13478: a1 = s1 + 0x7ff\n 13482: a1 = a1 + 0x721\n 13486: u64 [a2 + 1552] = 0\n 13490: ra = 478, jump @24\n      : @504 [@dyn 239] (gas: 7)\n 13496: a0 = sp + 0xffffffffffffffe0\n 13499: a0 = a0 & 0xffffffffffffffe0\n 13502: u64 [s1 + 0x118] = a0\n 13506: sp = a0\n 13508: a1 = 0x20180\n 13513: a0 = i32 [0x20180]\n 13518: jump @506 if a0 >u 63\n      : @505 (gas: 3)\n 13522: u32 [0x20180] = 0x40\n 13528: t0 = 0x1e0\n 13532: jump @1466\n      : @506 (gas: 1)\n 13535: t0 = 480, jump @1466\n      : @507 [@dyn 240] (gas: 30)\n 13541: a0 = 0x20190\n 13546: i32 a0 = a0 + 0\n 13548: i32 a2 = a2 + 0\n 13550: u64 [s1 + 0x170] = a1\n 13554: a1 = 0x40\n 13557: u64 [s1 + 0x178] = a0\n 13561: ecalli 8 // 'hash_keccak_256'\n 13563: a3 = u64 [s1 + 0x198]\n 13567: a0 = u64 [a3 + 0x18]\n 13570: a1 = u64 [a3 + 0x10]\n 13573: a2 = u64 [a3 + 0x8]\n 13576: a3 = u64 [a3]\n 13578: a5 = reverse a0\n 13580: a4 = reverse a1\n 13582: a1 = reverse a2\n 13584: a2 = reverse a3\n 13586: a0 = u64 [s1 + 0x118]\n 13590: u64 [s1 + 0x190] = a2\n 13594: u64 [a0 + 0x18] = a2\n 13597: u64 [s1 + 0x198] = a1\n 13601: u64 [a0 + 0x10] = a1\n 13604: u64 [s1 + 0x188] = a4\n 13608: u64 [a0 + 0x8] = a4\n 13611: u64 [s1 + 0x180] = a5\n 13615: u64 [a0] = a5\n 13617: a0 = u64 [s1 + 0x138]\n 13621: ra = 0x1e2\n 13625: ecalli 4 // 'caller'\n 13627: t0 = 0x1e4\n 13631: jump @1428\n      : @508 [@dyn 241] (gas: 1)\n 13634: t0 = 484, jump @1428\n      : @509 [@dyn 242] (gas: 9)\n 13640: u64 [a2 + 1536] = 0\n 13644: a4 = a2 + 0x500\n 13648: u64 [a4 + 0xf8] = a1\n 13652: u64 [a4 + 0xf0] = a0\n 13656: a1 = s1 + 0x7ff\n 13660: a1 = a1 + 0x701\n 13664: u64 [a4 + 0xe8] = a3\n 13668: a0 = 0\n 13670: ra = 486, jump @24\n      : @510 [@dyn 243] (gas: 11)\n 13676: a1 = s1 + 0x7ff\n 13680: a1 = a1 + 0x119\n 13684: u64 [a1 + 1504] = 0\n 13688: u64 [a1 + 1496] = 0\n 13692: u64 [a1 + 1480] = 0x3\n 13697: a2 = a1\n 13699: a0 = 0x20\n 13702: a1 = s1 + 0x7ff\n 13706: a1 = a1 + 0x6e1\n 13710: u64 [a2 + 1488] = 0\n 13714: ra = 488, jump @24\n      : @511 [@dyn 244] (gas: 3)\n 13720: a1 = u64 [s1 + 0x170]\n 13724: a0 = i32 [a1]\n 13726: jump @513 if a0 >u 63\n      : @512 (gas: 2)\n 13730: u32 [a1 + 0] = 0x40\n 13733: fallthrough\n      : @513 (gas: 5)\n 13734: a1 = 0xffffffff00000000\n 13744: u64 [s1 + 0x128] = a1\n 13748: a0 = 0xffffffff\n 13758: u64 [s1 + 0xb0] = a0\n 13762: t0 = 490, jump @1439\n      : @514 [@dyn 245] (gas: 5)\n 13768: ra = 0x1ec\n 13772: ecalli 8 // 'hash_keccak_256'\n 13774: a3 = u64 [s1 + 0x168]\n 13778: t0 = 0x1ee\n 13782: jump @1460\n      : @515 [@dyn 246] (gas: 2)\n 13785: a3 = u64 [s1 + 0x168]\n 13789: t0 = 494, jump @1460\n      : @516 [@dyn 247] (gas: 9)\n 13795: a5 = a4 + 0x200\n 13799: u64 [a5 + 0x60] = a3\n 13802: u64 [a5 + 0x58] = a2\n 13805: u64 [a5 + 0x50] = a1\n 13808: u64 [a5 + 0x48] = a0\n 13811: a0 = s1 + 0x7ff\n 13815: a0 = a0 + 0x6c1\n 13819: a1 = s1 + 0x2b60\n 13823: ra = 496, jump @26\n      : @517 [@dyn 248] (gas: 34)\n 13829: u64 [s1 + 264] = 0\n 13833: u64 [s1 + 240] = 0\n 13837: u64 [s1 + 248] = 0\n 13841: u64 [s1 + 256] = 0\n 13845: u64 [s1 + 272] = 0\n 13849: u64 [s1 + 232] = 0\n 13853: u64 [s1 + 224] = 0\n 13857: u64 [s1 + 216] = 0\n 13861: a5 = 0\n 13863: a4 = 0\n 13865: a3 = 0\n 13867: a1 = u64 [s1 + 0x180]\n 13871: a1 = a1 + 0x1\n 13874: a0 = a1 <u 0x1\n 13877: a2 = u64 [s1 + 0x188]\n 13881: a0 = a0 + a2\n 13884: u64 [s1 + 0xd0] = a1\n 13888: u64 [s1 + 0xc8] = a0\n 13892: a0 = a0 | a1\n 13895: a0 = a0 <u 0x1\n 13898: a2 = s1 + 0x100\n 13902: a1 = u64 [a2 + 0x98]\n 13906: a0 = a0 + a1\n 13909: u64 [s1 + 0xc0] = a0\n 13913: a0 = a0 <u a1\n 13916: a1 = u64 [a2 + 0x90]\n 13920: a0 = a0 + a1\n 13923: u64 [s1 + 0xb8] = a0\n 13927: a0 = s1 + 0x7ff\n 13931: a0 = a0 + 0x119\n 13935: a0 = u32 [a0 + 0x5a8]\n 13939: u64 [a2 + 0x30] = a0\n 13942: t0 = 0x1\n 13945: fallthrough\n      : @518 (gas: 10)\n 13946: a0 = a4 >u 0\n 13948: a1 = a3 >u 0\n 13950: a1 = a0 if a3 == 0\n 13953: a0 = u64 [s1 + 0x130]\n 13957: a0 = a0 <u t0\n 13960: a2 = a5 >u 0\n 13962: a2 = a0 if a5 == 0\n 13965: a0 = a4 | a3\n 13968: a2 = a1 if a0 != 0\n 13971: jump @582 if a2 != 0\n      : @519 (gas: 9)\n 13975: u64 [s1 + 0x180] = t0\n 13979: u64 [s1 + 0x188] = a5\n 13983: u64 [s1 + 0x190] = a4\n 13987: u64 [s1 + 0x198] = a3\n 13991: a0 = u64 [s1 + 0x138]\n 13995: ra = 0x1f2\n 13999: ecalli 4 // 'caller'\n 14001: t0 = 0x1f4\n 14005: jump @1428\n      : @520 [@dyn 249] (gas: 1)\n 14008: t0 = 500, jump @1428\n      : @521 [@dyn 250] (gas: 9)\n 14014: u64 [a2 + 1440] = 0\n 14018: a4 = a2 + 0x500\n 14022: u64 [a4 + 0x98] = a1\n 14026: u64 [a4 + 0x90] = a0\n 14030: a1 = s1 + 0x7ff\n 14034: a1 = a1 + 0x6a1\n 14038: u64 [a4 + 0x88] = a3\n 14042: a0 = 0\n 14044: ra = 502, jump @24\n      : @522 [@dyn 251] (gas: 11)\n 14050: a0 = s1 + 0x7ff\n 14054: a0 = a0 + 0x119\n 14058: u64 [a0 + 1408] = 0\n 14062: u64 [a0 + 1400] = 0\n 14066: u64 [a0 + 1392] = 0\n 14070: a3 = a0\n 14072: a0 = 0x20\n 14075: a1 = s1 + 0x7ff\n 14079: a1 = a1 + 0x681\n 14083: u64 [a3 + 1384] = 0x2\n 14088: ra = 504, jump @24\n      : @523 [@dyn 252] (gas: 3)\n 14094: a1 = u64 [s1 + 0x170]\n 14098: a0 = i32 [a1]\n 14100: jump @525 if a0 >u 63\n      : @524 (gas: 3)\n 14104: u32 [a1 + 0] = 0x40\n 14107: t0 = 0x1fa\n 14111: jump @1439\n      : @525 (gas: 1)\n 14114: t0 = 506, jump @1439\n      : @526 [@dyn 253] (gas: 4)\n 14120: ra = 0x1fc\n 14124: ecalli 8 // 'hash_keccak_256'\n 14126: t0 = 0x1fe\n 14130: jump @1427\n      : @527 [@dyn 254] (gas: 1)\n 14133: t0 = 510, jump @1427\n      : @528 [@dyn 255] (gas: 12)\n 14139: a3 = a2 + 0x500\n 14143: u64 [a3 + 0x60] = a0\n 14146: a0 = u64 [s1 + 0x190]\n 14150: u64 [a3 + 0x58] = a0\n 14153: a0 = u64 [s1 + 0x188]\n 14157: u64 [a3 + 0x50] = a0\n 14160: a1 = s1 + 0x7ff\n 14164: a1 = a1 + 0x661\n 14168: a0 = u64 [s1 + 0x180]\n 14172: u64 [a3 + 0x48] = a0\n 14175: a0 = 0\n 14177: ra = 512, jump @24\n      : @529 [@dyn 256] (gas: 5)\n 14183: a0 = u64 [s1 + 0x148]\n 14187: a1 = s1 + 0x7ff\n 14191: a1 = a1 + 0x119\n 14195: a2 = a1 + 0x500\n 14199: t0 = 514, jump @1481\n      : @530 [@dyn 257] (gas: 4)\n 14205: a1 = a1 + 0x641\n 14209: a2 = u64 [s1 + 0x160]\n 14213: u64 [a3 + 0x528] = a2\n 14217: ra = 516, jump @24\n      : @531 [@dyn 258] (gas: 3)\n 14223: a1 = u64 [s1 + 0x170]\n 14227: a0 = i32 [a1]\n 14229: jump @533 if a0 >u 63\n      : @532 (gas: 3)\n 14233: u32 [a1 + 0] = 0x40\n 14236: t0 = 0x206\n 14240: jump @1473\n      : @533 (gas: 1)\n 14243: t0 = 518, jump @1473\n      : @534 [@dyn 259] (gas: 5)\n 14249: ra = 0x208\n 14253: ecalli 8 // 'hash_keccak_256'\n 14255: a3 = u64 [s1 + 0x160]\n 14259: t0 = 0x20a\n 14263: jump @1447\n      : @535 [@dyn 260] (gas: 2)\n 14266: a3 = u64 [s1 + 0x160]\n 14270: t0 = 522, jump @1447\n      : @536 [@dyn 261] (gas: 23)\n 14276: a4 = u64 [s1 + 0x168]\n 14280: u64 [a4 + 0x18] = a3\n 14283: u64 [a4 + 0x10] = a2\n 14286: u64 [a4 + 0x8] = a1\n 14289: u64 [a4] = a0\n 14291: a4 = a0 + 0x2\n 14294: a0 = a4 <u a0\n 14297: a5 = a1 + a0\n 14300: a1 = a5 <u a1\n 14303: a1 = a0 if a0 == 0\n 14306: a1 = a1 + a2\n 14309: a0 = a1 <u a2\n 14312: a0 = a0 + a3\n 14315: a2 = s1 + 0x2918\n 14319: a3 = a2 + 0x200\n 14323: u64 [a3 + 0x68] = a4\n 14326: u64 [a3 + 0x70] = a5\n 14329: u64 [a3 + 0x78] = a1\n 14332: u64 [a3 + 0x80] = a0\n 14336: a0 = s1 + 0x7ff\n 14340: a0 = a0 + 0x621\n 14344: a1 = s1 + 0x2b80\n 14348: ra = 524, jump @26\n      : @537 [@dyn 262] (gas: 5)\n 14354: a3 = s1 + 0x7ff\n 14358: a3 = a3 + 0x119\n 14362: a0 = u64 [a3 + 0x510]\n 14366: a0 = a0 & 0xff\n 14370: jump @540 if a0 == 0\n      : @538 (gas: 15)\n 14373: a4 = s1 + 0x100\n 14377: a0 = u64 [a4 + 0x80]\n 14381: a5 = a3 + 0x200\n 14385: u64 [a5 + 0xa8] = a0\n 14389: a0 = u64 [a4 + 0x88]\n 14393: u64 [a5 + 0xb0] = a0\n 14397: a0 = u64 [a4 + 0x90]\n 14401: u64 [a5 + 0xb8] = a0\n 14405: a0 = s1 + 0x7ff\n 14409: a0 = a0 + 0x3e1\n 14413: a1 = s1 + 0x7ff\n 14417: a1 = a1 + 0x3c1\n 14421: a2 = u64 [a4 + 0x98]\n 14425: u64 [a5 + 0xc0] = a2\n 14429: ra = 526, jump @1297\n      : @539 [@dyn 263] (gas: 8)\n 14435: a0 = s1 + 0x7ff\n 14439: a0 = a0 + 0x119\n 14443: a1 = a0 + 0x200\n 14447: a3 = u64 [a1 + 0xe0]\n 14451: a4 = u64 [a1 + 0xd8]\n 14455: a5 = u64 [a1 + 0xd0]\n 14459: t0 = u64 [a0 + 0x2c8]\n 14463: jump @518\n      : @540 (gas: 4)\n 14466: a0 = s1 + 0x7ff\n 14470: a0 = a0 + 0x601\n 14474: a1 = u64 [s1 + 0x168]\n 14478: ra = 528, jump @26\n      : @541 [@dyn 264] (gas: 13)\n 14484: a3 = s1 + 0x7ff\n 14488: a3 = a3 + 0x119\n 14492: a4 = a3 + 0x400\n 14496: a0 = u64 [a4 + 0xf0]\n 14500: a1 = u64 [a4 + 0xf8]\n 14504: a2 = u64 [a4 + 0xe8]\n 14508: a0 = a0 & 0xffffffffffffffff\n 14511: a1 = a1 & 0xffffffffffffffff\n 14514: a4 = u64 [s1 + 0x128]\n 14518: a2 = a2 & a4\n 14521: a1 = a1 | a2\n 14524: a0 = a0 | a1\n 14527: jump @538 if a0 == 0\n      : @542 (gas: 5)\n 14531: a0 = u64 [s1 + 0x138]\n 14535: ra = 0x212\n 14539: ecalli 4 // 'caller'\n 14541: t0 = 0x214\n 14545: jump @1428\n      : @543 [@dyn 265] (gas: 1)\n 14548: t0 = 532, jump @1428\n      : @544 [@dyn 266] (gas: 9)\n 14554: u64 [a2 + 1248] = 0\n 14558: a4 = a2 + 0x400\n 14562: u64 [a4 + 0xd8] = a1\n 14566: u64 [a4 + 0xd0] = a0\n 14570: a1 = s1 + 0x7ff\n 14574: a1 = a1 + 0x5e1\n 14578: u64 [a4 + 0xc8] = a3\n 14582: a0 = 0\n 14584: ra = 534, jump @24\n      : @545 [@dyn 267] (gas: 11)\n 14590: a0 = s1 + 0x7ff\n 14594: a0 = a0 + 0x119\n 14598: u64 [a0 + 1216] = 0\n 14602: u64 [a0 + 1208] = 0\n 14606: u64 [a0 + 1200] = 0\n 14610: a3 = a0\n 14612: a0 = 0x20\n 14615: a1 = s1 + 0x7ff\n 14619: a1 = a1 + 0x5c1\n 14623: u64 [a3 + 1192] = 0x4\n 14628: ra = 536, jump @24\n      : @546 [@dyn 268] (gas: 3)\n 14634: a1 = u64 [s1 + 0x170]\n 14638: a0 = i32 [a1]\n 14640: jump @548 if a0 >u 63\n      : @547 (gas: 3)\n 14644: u32 [a1 + 0] = 0x40\n 14647: t0 = 0x21a\n 14651: jump @1439\n      : @548 (gas: 1)\n 14654: t0 = 538, jump @1439\n      : @549 [@dyn 269] (gas: 5)\n 14660: ra = 0x21c\n 14664: ecalli 8 // 'hash_keccak_256'\n 14666: a3 = u64 [s1 + 0x168]\n 14670: t0 = 0x21e\n 14674: jump @1433\n      : @550 [@dyn 270] (gas: 2)\n 14677: a3 = u64 [s1 + 0x168]\n 14681: t0 = 542, jump @1433\n      : @551 [@dyn 271] (gas: 11)\n 14687: a2 = s1 + 0x7ff\n 14691: a2 = a2 + 0x119\n 14695: u64 [a2 + 1184] = 0\n 14699: u64 [a2 + 1176] = 0\n 14703: u64 [a2 + 1168] = 0\n 14707: a1 = s1 + 0x7ff\n 14711: a1 = a1 + 0x5a1\n 14715: a0 = u64 [s1 + 0x120]\n 14719: u64 [a2 + 0x488] = a0\n 14723: a0 = 0\n 14725: ra = 544, jump @24\n      : @552 [@dyn 272] (gas: 4)\n 14731: a0 = u64 [s1 + 0x150]\n 14735: a1 = s1 + 0x7ff\n 14739: a1 = a1 + 0x119\n 14743: t0 = 546, jump @1474\n      : @553 [@dyn 273] (gas: 5)\n 14749: a1 = s1 + 0x7ff\n 14753: a1 = a1 + 0x581\n 14757: a2 = u64 [s1 + 0x168]\n 14761: u64 [a3 + 0x468] = a2\n 14765: ra = 548, jump @24\n      : @554 [@dyn 274] (gas: 3)\n 14771: a1 = u64 [s1 + 0x170]\n 14775: a0 = i32 [a1]\n 14777: jump @556 if a0 >u 63\n      : @555 (gas: 3)\n 14781: u32 [a1 + 0] = 0x40\n 14784: t0 = 0x226\n 14788: jump @1439\n      : @556 (gas: 1)\n 14791: t0 = 550, jump @1439\n      : @557 [@dyn 275] (gas: 4)\n 14797: ra = 0x228\n 14801: ecalli 8 // 'hash_keccak_256'\n 14803: t0 = 0x22a\n 14807: jump @1427\n      : @558 [@dyn 276] (gas: 1)\n 14810: t0 = 554, jump @1427\n      : @559 [@dyn 277] (gas: 12)\n 14816: a3 = a2 + 0x400\n 14820: u64 [a3 + 0x60] = a0\n 14823: a0 = u64 [s1 + 0x190]\n 14827: u64 [a3 + 0x58] = a0\n 14830: a0 = u64 [s1 + 0x188]\n 14834: u64 [a3 + 0x50] = a0\n 14837: a1 = s1 + 0x7ff\n 14841: a1 = a1 + 0x561\n 14845: a0 = u64 [s1 + 0x180]\n 14849: u64 [a3 + 0x48] = a0\n 14852: a0 = 0\n 14854: ra = 556, jump @24\n      : @560 [@dyn 278] (gas: 5)\n 14860: a0 = u64 [s1 + 0x148]\n 14864: a1 = s1 + 0x7ff\n 14868: a1 = a1 + 0x119\n 14872: a2 = a1 + 0x400\n 14876: t0 = 558, jump @1481\n      : @561 [@dyn 279] (gas: 4)\n 14882: a1 = a1 + 0x541\n 14886: a2 = u64 [s1 + 0x160]\n 14890: u64 [a3 + 0x428] = a2\n 14894: ra = 560, jump @24\n      : @562 [@dyn 280] (gas: 3)\n 14900: a1 = u64 [s1 + 0x170]\n 14904: a0 = i32 [a1]\n 14906: jump @564 if a0 >u 63\n      : @563 (gas: 3)\n 14910: u32 [a1 + 0] = 0x40\n 14913: t0 = 0x232\n 14917: jump @1473\n      : @564 (gas: 1)\n 14920: t0 = 562, jump @1473\n      : @565 [@dyn 281] (gas: 4)\n 14926: ra = 0x234\n 14930: ecalli 8 // 'hash_keccak_256'\n 14932: t0 = 0x236\n 14936: jump @1446\n      : @566 [@dyn 282] (gas: 1)\n 14939: t0 = 566, jump @1446\n      : @567 [@dyn 283] (gas: 2)\n 14945: a0 = a0 + 0x521\n 14949: ra = 568, jump @26\n      : @568 [@dyn 284] (gas: 4)\n 14955: a3 = s1 + 0x7ff\n 14959: a3 = a3 + 0x119\n 14963: a0 = u8 [a3 + 0x408]\n 14967: jump @538 if a0 != 0\n      : @569 (gas: 4)\n 14971: a0 = s1 + 0x7ff\n 14975: a0 = a0 + 0x501\n 14979: a1 = u64 [s1 + 0x118]\n 14983: ra = 570, jump @26\n      : @570 [@dyn 285] (gas: 16)\n 14989: a3 = s1 + 0x7ff\n 14993: a3 = a3 + 0x119\n 14997: a0 = u64 [a3 + 0x400]\n 15001: t1 = u64 [a3 + 0x3f8]\n 15005: a2 = u64 [a3 + 0x3f0]\n 15009: t0 = u64 [a3 + 0x3e8]\n 15013: a1 = u64 [0x200a8]\n 15018: a5 = a0 >u 0\n 15020: a4 = t1 >u 0\n 15022: a4 = a5 if a0 != 0\n 15025: a1 = a1 <u t0\n 15028: a5 = a2 >u 0\n 15030: a5 = a1 if a2 == 0\n 15033: a1 = t1 | a0\n 15036: a5 = a4 if a1 != 0\n 15039: jump @573 if a5 != 0\n      : @571 (gas: 14)\n 15042: a0 = u64 [s1 + 0x108]\n 15046: a1 = a3 + 0x200\n 15050: u64 [a1 + 0xe8] = a0\n 15054: a0 = u64 [s1 + 0xf0]\n 15058: u64 [a1 + 0xf0] = a0\n 15062: a0 = u64 [s1 + 0xf8]\n 15066: u64 [a1 + 0xf8] = a0\n 15070: a0 = s1 + 0x7ff\n 15074: a0 = a0 + 0x421\n 15078: a1 = s1 + 0x7ff\n 15082: a1 = a1 + 0x401\n 15086: a2 = u64 [s1 + 0x100]\n 15090: u64 [a3 + 0x300] = a2\n 15094: ra = 572, jump @1297\n      : @572 [@dyn 286] (gas: 12)\n 15100: a3 = s1 + 0x7ff\n 15104: a3 = a3 + 0x119\n 15108: a1 = a3 + 0x300\n 15112: a0 = u64 [a1 + 0x20]\n 15115: u64 [s1 + 0x100] = a0\n 15119: a0 = u64 [a1 + 0x18]\n 15122: u64 [s1 + 0xf8] = a0\n 15126: a0 = u64 [a1 + 0x10]\n 15129: u64 [s1 + 0xf0] = a0\n 15133: a0 = u64 [a1 + 0x8]\n 15136: u64 [s1 + 0x108] = a0\n 15140: jump @538\n      : @573 (gas: 23)\n 15143: a1 = sp + 0xffffffffffffffe0\n 15146: a1 = a1 & 0xffffffffffffffe0\n 15149: sp = a1\n 15151: a4 = u64 [0x200b0]\n 15156: a4 = a4 + t0\n 15159: a5 = a4 <u t0\n 15162: a3 = a2 + a5\n 15165: a3 = a3 + 0xffffffffffffffff\n 15168: t0 = a3 ^ a2\n 15171: a2 = a3 <u a2\n 15174: a2 = a5 if t0 == 0\n 15177: a5 = t1 + 0xffffffffffffffff\n 15180: a2 = a2 + a5\n 15183: t0 = a2 <u a5\n 15186: a5 = t1 <u 0x1\n 15189: a0 = a0 - a5\n 15192: a0 = a0 + t0\n 15195: u64 [a1 + 0x8] = a3\n 15198: u64 [a1] = a4\n 15200: u64 [a1 + 0x10] = a2\n 15203: u64 [a1 + 0x18] = a0\n 15206: a0 = u64 [s1 + 0x118]\n 15210: ra = 574, jump @28\n      : @574 [@dyn 287] (gas: 15)\n 15216: a0 = sp + 0xffffffffffffffe0\n 15219: a1 = a0 & 0xffffffffffffffe0\n 15222: sp = a1\n 15224: a0 = u64 [s1 + 0xb8]\n 15228: u64 [a1 + 0x18] = a0\n 15231: a0 = u64 [s1 + 0xc0]\n 15235: u64 [a1 + 0x10] = a0\n 15238: a0 = u64 [s1 + 0xc8]\n 15242: u64 [a1 + 0x8] = a0\n 15245: a0 = u64 [s1 + 0xd0]\n 15249: u64 [a1] = a0\n 15251: a0 = s1 + 0x7ff\n 15255: a0 = a0 + 0x4e1\n 15259: u64 [s1 + 0x160] = a1\n 15263: ra = 576, jump @26\n      : @575 [@dyn 288] (gas: 30)\n 15269: a0 = s1 + 0x7ff\n 15273: a0 = a0 + 0x119\n 15277: t0 = u64 [a0 + 0x3e0]\n 15281: t1 = u64 [a0 + 0x3d8]\n 15285: a2 = u64 [a0 + 0x3d0]\n 15289: a4 = u64 [a0 + 0x3c8]\n 15293: a1 = sp + 0xffffffffffffffe0\n 15296: a1 = a1 & 0xffffffffffffffe0\n 15299: sp = a1\n 15301: a5 = u64 [0x200a0]\n 15306: t2 = a4 + a5\n 15309: a0 = t2 <u a4\n 15312: a3 = a2 + a0\n 15315: a5 = a3 <u a2\n 15318: a5 = a0 if a0 == 0\n 15321: a5 = a5 + t1\n 15324: a0 = a5 <u t1\n 15327: u64 [a1 + 0x10] = a5\n 15330: a5 = u64 [0x200b8]\n 15335: a0 = a0 + t0\n 15338: u64 [a1 + 0x8] = a3\n 15341: u64 [a1] = t2\n 15343: a3 = a5 <u a4\n 15346: a2 = a2 + 0x1\n 15349: a3 = 0 if a2 != 0\n 15351: a2 = t1 & t0\n 15354: a2 = a2 + 0x1\n 15357: a3 = 0 if a2 != 0\n 15359: u64 [a1 + 0x18] = a0\n 15362: jump @577 if a3 == 0\n      : @576 (gas: 1)\n 15365: jump @783\n      : @577 (gas: 2)\n 15368: a0 = u64 [s1 + 0x160]\n 15372: ra = 578, jump @28\n      : @578 [@dyn 289] (gas: 4)\n 15378: a0 = s1 + 0x7ff\n 15382: a0 = a0 + 0x4c1\n 15386: a1 = u64 [s1 + 0x168]\n 15390: ra = 580, jump @26\n      : @579 [@dyn 290] (gas: 18)\n 15396: a3 = s1 + 0x7ff\n 15400: a3 = a3 + 0x119\n 15404: a4 = a3 + 0x300\n 15408: a0 = u64 [a4 + 0xa8]\n 15412: a1 = u64 [a4 + 0xb0]\n 15416: a2 = u64 [a4 + 0xc0]\n 15420: a3 = u64 [a4 + 0xb8]\n 15424: a0 = a0 & 0xffffffffffffff00\n 15428: a0 = a0 | 0x1\n 15431: a4 = s1 + 0x2918\n 15435: a5 = a4 + 0x200\n 15439: u64 [a5 + 0xa0] = a2\n 15443: u64 [a5 + 0x98] = a3\n 15447: u64 [a5 + 0x90] = a1\n 15451: u64 [a5 + 0x88] = a0\n 15455: a1 = s1 + 0x2ba0\n 15459: a0 = u64 [s1 + 0x168]\n 15463: ra = 582, jump @28\n      : @580 [@dyn 291] (gas: 16)\n 15469: a0 = u64 [s1 + 0xd8]\n 15473: a3 = s1 + 0x7ff\n 15477: a3 = a3 + 0x119\n 15481: a4 = a3 + 0x300\n 15485: u64 [a4 + 0x80] = a0\n 15489: a0 = u64 [s1 + 0xe0]\n 15493: u64 [a4 + 0x78] = a0\n 15496: a0 = u64 [s1 + 0xe8]\n 15500: u64 [a4 + 0x70] = a0\n 15503: a0 = s1 + 0x7ff\n 15507: a0 = a0 + 0x4a1\n 15511: a1 = s1 + 0x7ff\n 15515: a1 = a1 + 0x481\n 15519: a2 = u64 [s1 + 0x110]\n 15523: u64 [a4 + 0x68] = a2\n 15526: ra = 584, jump @1297\n      : @581 [@dyn 292] (gas: 12)\n 15532: a3 = s1 + 0x7ff\n 15536: a3 = a3 + 0x119\n 15540: a1 = a3 + 0x300\n 15544: a0 = u64 [a1 + 0xa0]\n 15548: u64 [s1 + 0xd8] = a0\n 15552: a0 = u64 [a1 + 0x98]\n 15556: u64 [s1 + 0xe0] = a0\n 15560: a0 = u64 [a1 + 0x90]\n 15564: u64 [s1 + 0xe8] = a0\n 15568: a0 = u64 [a1 + 0x88]\n 15572: u64 [s1 + 0x110] = a0\n 15576: jump @538\n      : @582 (gas: 4)\n 15579: a0 = s1 + 0x7ff\n 15583: a0 = a0 + 0x3a1\n 15587: a1 = 0x40\n 15590: ra = 586, jump @22\n      : @583 [@dyn 293] (gas: 15)\n 15596: a2 = s1 + 0x7ff\n 15600: a2 = a2 + 0x119\n 15604: t0 = u64 [a2 + 0x2a0]\n 15608: a0 = a2 + 0x200\n 15612: a5 = u64 [a0 + 0x98]\n 15616: a4 = u64 [a0 + 0x90]\n 15620: a3 = u64 [a0 + 0x88]\n 15624: a0 = a4 | t0\n 15627: a1 = a3 | a5\n 15630: a1 = a1 | a0\n 15633: a1 = a1 >> 0x20\n 15636: a0 = a0 | a5\n 15639: a0 = a0 << 0x20\n 15642: a0 = a0 | a1\n 15645: jump @585 if a0 == 0\n      : @584 (gas: 1)\n 15648: jump @782\n      : @585 (gas: 15)\n 15651: a0 = u64 [s1 + 0x110]\n 15655: a1 = u64 [s1 + 0xb0]\n 15659: a0 = a0 & a1\n 15662: u64 [a2 + 640] = 0\n 15666: u64 [a2 + 632] = 0\n 15670: u64 [a2 + 624] = 0\n 15674: a1 = s1 + 0x7ff\n 15678: a1 = a1 + 0x381\n 15682: u64 [a2 + 0x268] = a0\n 15686: a0 = a3\n 15688: u64 [s1 + 0x198] = a3\n 15692: u64 [s1 + 0x190] = a4\n 15696: u64 [s1 + 0x180] = t0\n 15700: u64 [s1 + 0x188] = a5\n 15704: ra = 588, jump @24\n      : @586 [@dyn 294] (gas: 11)\n 15710: a4 = s1 + 0x100\n 15714: a2 = u64 [a4 + 0x98]\n 15718: a0 = u64 [a4 + 0x88]\n 15722: a1 = u64 [a4 + 0x80]\n 15726: a0 = a0 | a1\n 15729: a1 = 0xffffffe0\n 15739: a1 = a2 <u a1\n 15742: a3 = u64 [a4 + 0x90]\n 15746: a1 = 0 if a3 != 0\n 15748: a1 = 0 if a0 != 0\n 15750: jump @588 if a1 != 0\n      : @587 (gas: 1)\n 15753: jump @782\n      : @588 (gas: 13)\n 15756: a0 = u64 [s1 + 0x108]\n 15760: a1 = u64 [s1 + 0xb0]\n 15764: a1 = a1 & a0\n 15767: i32 a0 = a2 + 0x20\n 15770: a3 = s1 + 0x7ff\n 15774: a3 = a3 + 0x119\n 15778: u64 [a3 + 608] = 0\n 15782: u64 [a3 + 600] = 0\n 15786: u64 [a3 + 0x248] = a1\n 15790: a1 = s1 + 0x7ff\n 15794: a1 = a1 + 0x361\n 15798: u64 [a3 + 592] = 0\n 15802: ra = 590, jump @24\n      : @589 [@dyn 295] (gas: 6)\n 15808: a0 = u64 [s1 + 0x138]\n 15812: ra = 0x250\n 15816: ecalli 4 // 'caller'\n 15818: a2 = u64 [s1 + 0x140]\n 15822: t0 = 0x252\n 15826: jump @1430\n      : @590 [@dyn 296] (gas: 2)\n 15829: a2 = u64 [s1 + 0x140]\n 15833: t0 = 594, jump @1430\n      : @591 [@dyn 297] (gas: 36)\n 15839: t0 = a1 | a0\n 15842: a3 = a3 >> 0x20\n 15845: a2 = reverse a2\n 15847: a1 = a2 << 0x20\n 15850: t1 = a1 | a3\n 15853: a2 = a2 >> 0x20\n 15856: a3 = u64 [0x200c0]\n 15861: a4 = u64 [0x200c8]\n 15866: a5 = u64 [0x200d0]\n 15871: a0 = u64 [s1 + 0x120]\n 15875: a1 = s1 + 0x7ff\n 15879: a1 = a1 + 0x119\n 15883: u64 [a1 + 0x1e8] = a0\n 15887: a0 = a1 + 0x200\n 15891: u64 [a0 + 0x40] = a3\n 15894: u64 [a0 + 0x38] = a4\n 15897: u64 [a0 + 0x30] = a5\n 15900: a3 = u64 [0x200d8]\n 15905: u64 [a1 + 512] = 0\n 15909: u64 [a1 + 504] = 0\n 15913: u64 [a1 + 496] = 0\n 15917: u64 [a0 + 0x28] = a3\n 15920: u64 [a0 + 0x18] = a2\n 15923: u64 [a1 + 0x210] = t1\n 15927: u64 [a1 + 0x208] = t0\n 15931: a0 = a1\n 15933: a1 = 0x40\n 15936: a2 = s1 + 0x7ff\n 15940: a2 = a2 + 0x341\n 15944: a3 = s1 + 0x7ff\n 15948: a3 = a3 + 0x321\n 15952: a4 = s1 + 0x7ff\n 15956: a4 = a4 + 0x301\n 15960: u64 [a0 + 544] = 0\n 15964: a0 = u64 [s1 + 0x198]\n 15968: ra = 596, jump @31\n      : @592 [@dyn 298] (gas: 7)\n 15974: a0 = 0\n 15976: a1 = u64 [s1 + 0x178]\n 15980: a2 = 0\n 15982: ra = 0x3ce\n 15986: ecalli 13 // 'seal_return'\n 15988: t0 = 0x3d0\n 15992: jump @1484\n      : @593 (gas: 24)\n 15995: u64 [s1 + 0xb8] = a3\n 15999: a0 = a0 <u a1\n 16002: a1 = u64 [s1 + 0x100]\n 16006: a2 = a1 + a0\n 16009: u64 [s1 + 0x128] = a2\n 16013: a1 = a2 <u a1\n 16016: a1 = a0 if a0 == 0\n 16019: a1 = a1 + a4\n 16022: u64 [s1 + 0x120] = a1\n 16026: a0 = a1 <u a4\n 16029: u64 [s1 + 0x188] = a0\n 16033: a0 = s1 + 0x1118\n 16037: a1 = u64 [s1 + 0x178]\n 16041: a3 = a0 + 0x400\n 16045: u64 [a3 + 0x88] = a1\n 16049: a1 = u64 [s1 + 0x170]\n 16053: u64 [a3 + 0x90] = a1\n 16057: a1 = u64 [s1 + 0x168]\n 16061: u64 [a3 + 0x98] = a1\n 16065: a1 = s1 + 0x15a0\n 16069: a2 = u64 [s1 + 0x180]\n 16073: u64 [a3 + 0xa0] = a2\n 16077: a0 = 0\n 16079: ra = 598, jump @24\n      : @594 [@dyn 299] (gas: 7)\n 16085: a0 = sp + 0xffffffffffffffe0\n 16088: a0 = a0 & 0xffffffffffffffe0\n 16091: u64 [s1 + 0x130] = a0\n 16095: sp = a0\n 16097: a2 = u64 [s1 + 0x198]\n 16101: a0 = i32 [a2]\n 16103: jump @596 if a0 >u 31\n      : @595 (gas: 2)\n 16107: u32 [a2 + 0] = 0x20\n 16110: fallthrough\n      : @596 (gas: 35)\n 16111: a0 = u64 [s1 + 0x110]\n 16115: a1 = u64 [s1 + 0x188]\n 16119: a0 = a0 + a1\n 16122: u64 [s1 + 0x118] = a0\n 16126: a0 = sp + 0xffffffffffffffe0\n 16129: a0 = a0 & 0xffffffffffffffe0\n 16132: u64 [s1 + 0x188] = a0\n 16136: sp = a0\n 16138: i32 a2 = a0 + 0\n 16140: a1 = 0x20\n 16143: a0 = u64 [s1 + 0x190]\n 16147: ecalli 8 // 'hash_keccak_256'\n 16149: u64 [s1 + 408] = 0\n 16153: t2 = 0\n 16155: t1 = 0\n 16157: u64 [s1 + 400] = 0\n 16161: a3 = u64 [s1 + 0x188]\n 16165: a0 = u64 [a3 + 0x18]\n 16168: a1 = u64 [a3 + 0x10]\n 16171: a2 = u64 [a3 + 0x8]\n 16174: a3 = u64 [a3]\n 16176: a0 = reverse a0\n 16178: a4 = reverse a1\n 16180: a5 = reverse a2\n 16182: a2 = reverse a3\n 16184: a1 = u64 [s1 + 0x130]\n 16188: a3 = a2\n 16190: u64 [a1 + 0x18] = a2\n 16193: u64 [s1 + 0x160] = a5\n 16197: u64 [a1 + 0x10] = a5\n 16200: ra = a4\n 16202: u64 [a1 + 0x8] = a4\n 16205: a2 = a0\n 16207: u64 [a1] = a0\n 16209: fallthrough\n      : @597 (gas: 22)\n 16210: a4 = s1 + 0x100\n 16214: u64 [a4 + 0x68] = a3\n 16217: u64 [s1 + 0x170] = ra\n 16221: u64 [a4 + 0x78] = a2\n 16224: a0 = u64 [a4 + 0x40]\n 16227: a2 = u64 [a4 + 0x98]\n 16231: a0 = a2 <u a0\n 16234: a2 = u64 [a4 + 0x50]\n 16237: a3 = t2 ^ a2\n 16240: a2 = t2 <u a2\n 16243: a2 = a0 if a3 == 0\n 16246: a0 = u64 [a4 + 0x48]\n 16249: t0 = t1 <u a0\n 16252: a3 = u64 [a4 + 0x58]\n 16255: a5 = u64 [a4 + 0x90]\n 16259: a4 = a5 ^ a3\n 16262: a3 = a5 <u a3\n 16265: a3 = t0 if a4 == 0\n 16268: a0 = t1 ^ a0\n 16271: a0 = a0 | a4\n 16274: a3 = a2 if a0 == 0\n 16277: jump @683 if a3 == 0\n      : @598 (gas: 4)\n 16281: a0 = s1 + 0x1580\n 16285: u64 [s1 + 0x188] = t1\n 16289: u64 [s1 + 0x180] = t2\n 16293: ra = 600, jump @26\n      : @599 [@dyn 300] (gas: 30)\n 16299: ra = u64 [s1 + 0x198]\n 16303: t2 = u64 [s1 + 0x180]\n 16307: t1 = u64 [s1 + 0x188]\n 16311: a1 = u64 [s1 + 0x138]\n 16315: a0 = a1 + ra\n 16318: a1 = a0 <u a1\n 16321: a4 = u64 [s1 + 0x128]\n 16325: a2 = a4 + t2\n 16328: a2 = a2 + a1\n 16331: a3 = a2 ^ a4\n 16334: a4 = a2 <u a4\n 16337: a4 = a1 if a3 == 0\n 16340: a3 = u64 [s1 + 0x120]\n 16344: a1 = a3 + t1\n 16347: t0 = a1 <u a3\n 16350: a5 = u64 [s1 + 0x118]\n 16354: a3 = u64 [s1 + 0x190]\n 16358: a5 = a5 + a3\n 16361: a3 = a5 + t0\n 16364: a4 = a4 + a1\n 16367: a1 = a4 <u a1\n 16370: a1 = a1 + a3\n 16373: a1 = a1 | a2\n 16376: a2 = a0 | a4\n 16379: a2 = a2 | a1\n 16382: a1 = a1 | a4\n 16385: a2 = a2 >> 0x20\n 16388: a1 = a1 << 0x20\n 16391: a1 = a1 | a2\n 16394: jump @601 if a1 == 0\n      : @600 (gas: 1)\n 16397: jump @782\n      : @601 (gas: 13)\n 16400: a5 = s1 + 0x1118\n 16404: a2 = u64 [a5 + 0x480]\n 16408: a1 = u64 [a5 + 0x478]\n 16412: a3 = u64 [a5 + 0x470]\n 16416: a4 = u64 [a5 + 0x468]\n 16420: u64 [a5 + 0x448] = a4\n 16424: a4 = a5 + 0x400\n 16428: u64 [a4 + 0x50] = a3\n 16431: u64 [a4 + 0x58] = a1\n 16434: a1 = s1 + 0x1560\n 16438: u64 [a4 + 0x60] = a2\n 16441: u64 [s1 + 0x198] = ra\n 16445: ra = 602, jump @24\n      : @602 [@dyn 301] (gas: 38)\n 16451: a5 = u64 [s1 + 0x178]\n 16455: a5 = a5 + 0x1\n 16458: a0 = a5 <u 0x1\n 16461: a3 = u64 [s1 + 0x170]\n 16465: a3 = a3 + a0\n 16468: a0 = a5 | a3\n 16471: a0 = a0 <u 0x1\n 16474: a1 = u64 [s1 + 0x160]\n 16478: t2 = a1 + a0\n 16481: a1 = t2 <u a1\n 16484: a0 = u64 [s1 + 0x168]\n 16488: a0 = a0 + a1\n 16491: a1 = u64 [s1 + 0x198]\n 16495: t1 = a1 + 0x20\n 16498: a2 = t1 <u a1\n 16501: a1 = u64 [s1 + 0x180]\n 16505: t0 = a1 + a2\n 16508: a4 = t0 <u a1\n 16511: a4 = a2 if a2 == 0\n 16514: a1 = u64 [s1 + 0x188]\n 16518: a4 = a4 + a1\n 16521: a2 = a4 <u a1\n 16524: a1 = u64 [s1 + 0x190]\n 16528: a1 = a1 + a2\n 16531: u64 [s1 + 0x190] = a1\n 16535: ra = a3\n 16537: a1 = u64 [s1 + 0x130]\n 16541: u64 [a1 + 0x8] = a3\n 16544: a2 = a5\n 16546: u64 [a1] = a5\n 16548: u64 [a1 + 0x10] = t2\n 16551: a3 = a0\n 16553: u64 [a1 + 0x18] = a0\n 16556: u64 [s1 + 0x160] = t2\n 16560: u64 [s1 + 0x198] = t1\n 16564: t2 = t0\n 16566: t1 = a4\n 16568: jump @597\n      : @603 (gas: 1)\n 16571: t0 = 604, jump @1478\n      : @604 [@dyn 302] (gas: 12)\n 16577: t0 = u64 [s1 + 0x168]\n 16581: a3 = a0 if t0 != 0\n 16584: u64 [s1 + 0x198] = a3\n 16588: a0 = u64 [s1 + 0x160]\n 16592: a2 = u64 [s1 + 0x130]\n 16596: a0 = a0 | a2\n 16599: a2 = u64 [s1 + 0x118]\n 16603: a0 = a2 if a4 == 0\n 16606: a5 = u64 [s1 + 0x150]\n 16610: a3 = a5\n 16612: a3 = a0 if t0 != 0\n 16615: t0 = 606, jump @1459\n      : @605 [@dyn 303] (gas: 1)\n 16621: ra = 608, jump @1501\n      : @606 [@dyn 304] (gas: 6)\n 16627: u64 [s1 + 0x130] = a0\n 16631: u64 [s1 + 0x118] = a1\n 16635: a0 = u64 [s1 + 0x158]\n 16639: a1 = u64 [s1 + 0x148]\n 16643: a2 = u64 [s1 + 0x190]\n 16647: ra = 610, jump @1501\n      : @607 [@dyn 305] (gas: 1)\n 16653: t0 = 612, jump @1465\n      : @608 [@dyn 306] (gas: 1)\n 16659: ra = 614, jump @1506\n      : @609 [@dyn 307] (gas: 1)\n 16665: t0 = 616, jump @1467\n      : @610 [@dyn 308] (gas: 14)\n 16671: a2 = u64 [s1 + 0x148]\n 16675: a2 = a1 if a3 != 0\n 16678: u64 [s1 + 0x148] = a2\n 16682: a1 = u64 [s1 + 0x110]\n 16686: a0 = a0 | a1\n 16689: a1 = u64 [s1 + 0x130]\n 16693: a0 = a1 if a4 == 0\n 16696: a1 = u64 [s1 + 0x158]\n 16700: a1 = a0 if a3 != 0\n 16703: a2 = a3\n 16705: u64 [s1 + 0x158] = a1\n 16709: a0 = u64 [s1 + 0x150]\n 16713: a1 = u64 [s1 + 0x140]\n 16717: ra = 618, jump @1501\n      : @611 [@dyn 309] (gas: 1)\n 16723: t0 = 620, jump @1451\n      : @612 [@dyn 310] (gas: 3)\n 16729: t1 = u64 [s1 + 0x148]\n 16733: t2 = u64 [s1 + 0x158]\n 16737: fallthrough\n      : @613 (gas: 68)\n 16738: u64 [s1 + 0x158] = a4\n 16742: a2 = t2 >> 0x3f\n 16745: a3 = t1 << 0x1\n 16748: t0 = a3 | a2\n 16751: a3 = t2 << 0x1\n 16754: a4 = u64 [s1 + 0x198]\n 16758: a4 = a4 >> 0x3f\n 16761: a3 = a3 | a4\n 16764: u64 [s1 + 0x148] = a3\n 16768: a2 = u64 [s1 + 0x128]\n 16772: t2 = a1\n 16774: u64 [s1 + 0x150] = t0\n 16778: a1 = a2 ^ t0\n 16781: ra = t1\n 16783: t1 = a2 <u t0\n 16786: a4 = u64 [s1 + 0x130]\n 16790: t0 = a4 <u a3\n 16793: t0 = t1 if a1 != 0\n 16796: a1 = t2 << 0x1\n 16799: a3 = a0 >> 0x3f\n 16802: a1 = a1 | a3\n 16805: u64 [s1 + 0x140] = a1\n 16809: a3 = ra >> 0x3f\n 16812: a0 = a0 << 0x1\n 16815: a3 = a3 | a0\n 16818: a0 = u64 [s1 + 0x198]\n 16822: a0 = a0 << 0x1\n 16825: a4 = u64 [s1 + 0x160]\n 16829: a1 = a4 >> 0x3f\n 16832: ra = a0 | a1\n 16835: a1 = a4 << 0x1\n 16838: a4 = u64 [s1 + 0x168]\n 16842: t1 = a4 >> 0x3f\n 16845: t1 = a1 | t1\n 16848: a1 = a4 << 0x1\n 16851: a4 = u64 [s1 + 0x188]\n 16855: t2 = a4 >> 0x3f\n 16858: a1 = a1 | t2\n 16861: a4 = a4 << 0x1\n 16864: a0 = u64 [s1 + 0x158]\n 16868: a4 = a4 | a0\n 16871: u64 [s1 + 0x188] = a4\n 16875: a1 = a1 | a5\n 16878: u64 [s1 + 0x168] = a1\n 16882: a1 = a5 | t1\n 16885: u64 [s1 + 0x160] = a1\n 16889: a0 = a5 | ra\n 16892: u64 [s1 + 0x198] = a0\n 16896: a0 = a2 - a3\n 16899: a0 = a0 <u t0\n 16902: a1 = a2 <u a3\n 16905: t0 = u64 [s1 + 0x140]\n 16909: a4 = a2 - t0\n 16912: a4 = a4 - a1\n 16915: a4 = a4 - a0\n 16918: a5 = a4 >>a 0x3f\n 16921: a0 = u64 [s1 + 0x138]\n 16925: a0 = a0 & a5\n 16928: a1 = u64 [s1 + 0x148]\n 16932: t2 = a1 - a0\n 16935: a1 = a1 <u a0\n 16938: a0 = u64 [s1 + 0x150]\n 16942: t1 = a0 - a1\n 16945: a1 = 0 if a0 != 0\n 16947: a0 = a3 - a1\n 16950: a1 = a3 <u a1\n 16953: a1 = t0 - a1\n 16956: t0 = 622, jump @1490\n      : @614 [@dyn 311] (gas: 17)\n 16962: t0 = a4 <u a2\n 16965: a2 = a4 - a2\n 16968: a4 = a3 <u 0x1\n 16971: ra = ra - a4\n 16974: a4 = u64 [s1 + 0x178]\n 16978: a4 = a4 - t0\n 16981: a3 = a3 + 0xffffffffffffffff\n 16984: u64 [s1 + 0x180] = ra\n 16988: u64 [s1 + 0x178] = a4\n 16992: t0 = ra | a4\n 16995: u64 [s1 + 0x190] = a3\n 16999: a4 = a3 | a2\n 17002: a3 = a4 | t0\n 17005: a4 = a5 & 0x1\n 17008: u64 [s1 + 0x170] = a2\n 17012: a5 = 0\n 17014: jump @613 if a3 != 0\n      : @615 (gas: 4)\n 17018: a0 = u64 [s1 + 0x188]\n 17022: a0 = a0 << 0x1\n 17025: a4 = a4 | a0\n 17028: fallthrough\n      : @616 (gas: 4)\n 17029: u64 [s1 + 0x170] = a4\n 17033: a0 = s1 + 0x2520\n 17037: a1 = 0x40\n 17040: ra = 624, jump @22\n      : @617 [@dyn 312] (gas: 17)\n 17046: t0 = s1 + 0x2118\n 17050: t1 = u64 [t0 + 0x420]\n 17054: a0 = t0 + 0x400\n 17058: a5 = u64 [a0 + 0x18]\n 17061: a3 = u64 [a0 + 0x10]\n 17064: a4 = u64 [a0 + 0x8]\n 17067: a0 = t1 >u 0\n 17069: a1 = a5 >u 0\n 17071: a1 = a0 if t1 != 0\n 17074: a0 = a3 >u 0\n 17076: a2 = a4 <u 0xffffffffffffff60\n 17080: a2 = a2 ^ 0x1\n 17083: a2 = a0 if a3 != 0\n 17086: a0 = a5 | t1\n 17089: u64 [s1 + 0x178] = a0\n 17093: a2 = a1 if a0 != 0\n 17096: jump @619 if a2 == 0\n      : @618 (gas: 1)\n 17099: jump @866\n      : @619 (gas: 21)\n 17102: a0 = a4 + 0xa0\n 17106: a1 = a0 <u a4\n 17109: a2 = a3 + a1\n 17112: u64 [s1 + 0x198] = a3\n 17116: a3 = u64 [s1 + 0x198]\n 17120: a3 = a2 <u a3\n 17123: a3 = a1 if a1 == 0\n 17126: a3 = a3 + a5\n 17129: a1 = a3 <u a5\n 17132: u64 [s1 + 0x190] = a4\n 17136: a4 = t1 + a1\n 17139: a1 = t0 + 0x300\n 17143: u64 [a1 + 0xe8] = a0\n 17147: u64 [a1 + 0xf0] = a2\n 17151: u64 [a1 + 0xf8] = a3\n 17155: a0 = 0x40\n 17158: a1 = s1 + 0x2500\n 17162: u64 [t0 + 0x400] = a4\n 17166: u64 [s1 + 0x180] = a5\n 17170: u64 [s1 + 0x188] = t1\n 17174: ra = 626, jump @24\n      : @620 [@dyn 313] (gas: 13)\n 17180: a5 = s1 + 0x100\n 17184: a2 = u64 [a5 + 0x90]\n 17188: a3 = u64 [a5 + 0x80]\n 17192: a0 = a2 | a3\n 17195: a1 = u64 [a5 + 0x98]\n 17199: a4 = u64 [a5 + 0x88]\n 17203: a1 = a1 | a4\n 17206: a0 = a0 | a1\n 17209: a0 = a0 >> 0x20\n 17212: a1 = a1 | a3\n 17215: a1 = a1 << 0x20\n 17218: a0 = a0 | a1\n 17221: jump @622 if a0 == 0\n      : @621 (gas: 1)\n 17224: jump @782\n      : @622 (gas: 13)\n 17227: a0 = u64 [s1 + 0xf0]\n 17231: a3 = s1 + 0x2118\n 17235: a4 = a3 + 0x300\n 17239: u64 [a4 + 0xc8] = a0\n 17243: a0 = u64 [s1 + 0xf8]\n 17247: u64 [a4 + 0xd0] = a0\n 17251: a0 = u64 [s1 + 0x100]\n 17255: u64 [a4 + 0xd8] = a0\n 17259: a1 = s1 + 0x24e0\n 17263: a0 = u64 [s1 + 0x108]\n 17267: u64 [a4 + 0xe0] = a0\n 17271: a0 = a2\n 17273: ra = 628, jump @24\n      : @623 [@dyn 314] (gas: 3)\n 17279: a0 = u64 [s1 + 0xc0]\n 17283: ecalli 4 // 'caller'\n 17285: fallthrough\n      : @624 (gas: 9)\n 17286: a2 = s1 + 0x100\n 17290: a4 = u64 [a2 + 0x90]\n 17294: a0 = 0xffffffe0\n 17304: a0 = a4 <u a0\n 17307: a1 = u64 [a2 + 0x98]\n 17311: a0 = 0 if a1 != 0\n 17313: a1 = u64 [a2 + 0x78]\n 17316: a0 = 0 if a1 != 0\n 17318: jump @626 if a0 != 0\n      : @625 (gas: 1)\n 17321: jump @782\n      : @626 (gas: 24)\n 17324: a2 = u64 [s1 + 0xd8]\n 17328: a0 = u64 [a2 + 0x8]\n 17331: a1 = i32 [a2 + 0x10]\n 17334: a2 = u64 [a2]\n 17336: a0 = reverse a0\n 17338: a3 = a0 << 0x20\n 17341: a1 = reverse a1\n 17343: a1 = a1 >> 0x20\n 17346: a3 = a3 | a1\n 17349: a0 = a0 >> 0x20\n 17352: a1 = reverse a2\n 17354: a2 = a1 << 0x20\n 17357: a2 = a2 | a0\n 17360: a1 = a1 >> 0x20\n 17363: i32 a0 = a4 + 0x20\n 17366: a4 = s1 + 0x2118\n 17370: u64 [a4 + 960] = 0\n 17374: a5 = a4 + 0x300\n 17378: u64 [a5 + 0xb8] = a1\n 17382: u64 [a5 + 0xb0] = a2\n 17386: a1 = s1 + 0x24c0\n 17390: u64 [a5 + 0xa8] = a3\n 17394: u64 [s1 + 0x138] = a0\n 17398: ra = 630, jump @24\n      : @627 [@dyn 315] (gas: 13)\n 17404: a0 = u64 [s1 + 0xb0]\n 17408: a3 = s1 + 0x2118\n 17412: a4 = a3 + 0x300\n 17416: u64 [a4 + 0x80] = a0\n 17420: a0 = u64 [s1 + 0xe8]\n 17424: u64 [a4 + 0x78] = a0\n 17427: a0 = u64 [s1 + 0xe0]\n 17431: u64 [a4 + 0x70] = a0\n 17434: a0 = s1 + 0x24a0\n 17438: a1 = s1 + 0x2480\n 17442: a2 = u64 [s1 + 0xb8]\n 17446: u64 [a4 + 0x68] = a2\n 17449: ra = 632, jump @1273\n      : @628 [@dyn 316] (gas: 13)\n 17455: a0 = s1 + 0x2118\n 17459: a2 = a0 + 0x300\n 17463: a1 = u64 [a2 + 0x88]\n 17467: u64 [s1 + 0x158] = a1\n 17471: a1 = u64 [a2 + 0x90]\n 17475: u64 [s1 + 0x150] = a1\n 17479: a1 = u64 [a2 + 0x98]\n 17483: u64 [s1 + 0x148] = a1\n 17487: a1 = u64 [a2 + 0xa0]\n 17491: u64 [s1 + 0x140] = a1\n 17495: a0 = s1 + 0x2460\n 17499: a1 = 0x40\n 17502: ra = 634, jump @22\n      : @629 [@dyn 317] (gas: 26)\n 17508: a0 = s1 + 0x2118\n 17512: a3 = u64 [a0 + 0x360]\n 17516: u64 [s1 + 0x188] = a3\n 17520: a1 = u64 [a0 + 0x358]\n 17524: u64 [s1 + 0x180] = a1\n 17528: a5 = u64 [a0 + 0x350]\n 17532: u64 [s1 + 0x168] = a5\n 17536: a4 = u64 [a0 + 0x348]\n 17540: u64 [s1 + 0x160] = a4\n 17544: a2 = u64 [s1 + 0x140]\n 17548: u64 [a0 + 0x320] = a2\n 17552: a2 = u64 [s1 + 0x148]\n 17556: u64 [a0 + 0x318] = a2\n 17560: a2 = u64 [s1 + 0x150]\n 17564: u64 [a0 + 0x310] = a2\n 17568: a2 = u64 [s1 + 0x158]\n 17572: u64 [a0 + 0x308] = a2\n 17576: a2 = a0 + 0x300\n 17580: u64 [a2 + 0x40] = a3\n 17583: u64 [a2 + 0x38] = a1\n 17586: u64 [a2 + 0x30] = a5\n 17589: a2 = a0\n 17591: a0 = s1 + 0x2440\n 17595: a1 = s1 + 0x2420\n 17599: u64 [a2 + 0x328] = a4\n 17603: ra = 636, jump @1256\n      : @630 [@dyn 318] (gas: 14)\n 17609: a2 = s1 + 0x100\n 17613: a1 = u64 [a2 + 0x68]\n 17616: a0 = u64 [a2 + 0x88]\n 17620: a0 = a0 | a1\n 17623: a1 = u64 [a2 + 0x60]\n 17626: a5 = a1\n 17628: a4 = u64 [a2 + 0x80]\n 17632: a1 = a1 | a4\n 17635: a1 = a1 | a0\n 17638: a1 = a1 >> 0x20\n 17641: a0 = a0 | a4\n 17644: a0 = a0 << 0x20\n 17647: a0 = a0 | a1\n 17650: jump @632 if a0 == 0\n      : @631 (gas: 1)\n 17653: jump @782\n      : @632 (gas: 13)\n 17656: a0 = s1 + 0x2118\n 17660: a1 = u64 [s1 + 0xb8]\n 17664: a2 = a0 + 0x200\n 17668: u64 [a2 + 0xe8] = a1\n 17672: a1 = u64 [s1 + 0xe0]\n 17676: u64 [a2 + 0xf0] = a1\n 17680: a1 = u64 [s1 + 0xe8]\n 17684: u64 [a2 + 0xf8] = a1\n 17688: a1 = s1 + 0x2400\n 17692: a4 = u64 [s1 + 0xb0]\n 17696: u64 [a0 + 0x300] = a4\n 17700: a0 = a5\n 17702: ra = 638, jump @24\n      : @633 [@dyn 319] (gas: 10)\n 17708: a0 = u64 [s1 + 0x188]\n 17712: a3 = u64 [s1 + 0x180]\n 17716: a0 = a0 | a3\n 17719: a4 = 0xffffffe0\n 17729: a5 = u64 [s1 + 0x160]\n 17733: a1 = a5 <u a4\n 17736: a2 = u64 [s1 + 0x168]\n 17740: a1 = 0 if a2 != 0\n 17742: a1 = 0 if a0 != 0\n 17744: jump @635 if a1 != 0\n      : @634 (gas: 1)\n 17747: jump @782\n      : @635 (gas: 8)\n 17750: a1 = u64 [s1 + 0xb8]\n 17754: i32 a0 = a1 + 0\n 17756: u64 [s1 + 0x90] = a0\n 17760: a0 = i32 [s1 + 0x120]\n 17764: u64 [s1 + 0x88] = a0\n 17768: i32 a0 = a5 + 0x20\n 17771: u64 [s1 + 0x158] = a4\n 17775: ra = 640, jump @37\n      : @636 [@dyn 320] (gas: 5)\n 17781: i32 a0 = a0 + 0\n 17783: a1 = u64 [s1 + 0x90]\n 17787: a2 = u64 [s1 + 0x88]\n 17791: ecalli 1 // 'call_data_copy'\n 17793: fallthrough\n      : @637 (gas: 28)\n 17794: a4 = u64 [s1 + 0x168]\n 17798: t0 = u64 [s1 + 0xb8]\n 17802: a0 = u64 [s1 + 0x160]\n 17806: t0 = t0 + a0\n 17809: a1 = t0 <u a0\n 17812: a2 = u64 [s1 + 0xe0]\n 17816: a2 = a2 + a4\n 17819: a2 = a2 + a1\n 17822: a3 = a2 ^ a4\n 17825: a4 = a2 <u a4\n 17828: a4 = a1 if a3 == 0\n 17831: a1 = u64 [s1 + 0xe8]\n 17835: a0 = u64 [s1 + 0x180]\n 17839: a1 = a1 + a0\n 17842: a3 = a1 <u a0\n 17845: a5 = u64 [s1 + 0x188]\n 17849: a0 = u64 [s1 + 0xb0]\n 17853: a5 = a5 + a0\n 17856: a3 = a3 + a5\n 17859: a4 = a4 + a1\n 17862: a1 = a4 <u a1\n 17865: a1 = a1 + a3\n 17868: a1 = a1 | a4\n 17871: a0 = u64 [s1 + 0x158]\n 17875: a3 = t0 <u a0\n 17878: a3 = 0 if a2 != 0\n 17880: a3 = 0 if a1 != 0\n 17882: jump @639 if a3 != 0\n      : @638 (gas: 1)\n 17885: jump @782\n      : @639 (gas: 8)\n 17888: i32 a0 = t0 + 0x20\n 17891: a2 = s1 + 0x2118\n 17895: u64 [a2 + 736] = 0\n 17899: u64 [a2 + 728] = 0\n 17903: u64 [a2 + 720] = 0\n 17907: a1 = s1 + 0x23e0\n 17911: u64 [a2 + 712] = 0\n 17915: ra = 642, jump @24\n      : @640 [@dyn 321] (gas: 10)\n 17921: a3 = 0x100000000\n 17931: a0 = 0xffffffc0\n 17941: a4 = s1 + 0x100\n 17945: a1 = u64 [a4 + 0x90]\n 17949: a0 = a1 <u a0\n 17952: a2 = u64 [a4 + 0x98]\n 17956: a0 = 0 if a2 != 0\n 17958: a2 = u64 [a4 + 0x78]\n 17961: a0 = 0 if a2 != 0\n 17963: jump @642 if a0 != 0\n      : @641 (gas: 1)\n 17966: jump @782\n      : @642 (gas: 16)\n 17969: i32 a0 = a1 + 0x40\n 17972: a1 = s1 + 0x2118\n 17976: u64 [s1 + 0x158] = a3\n 17980: a3 = a1\n 17982: a1 = u64 [s1 + 0x160]\n 17986: a4 = a3 + 0x200\n 17990: u64 [a4 + 0xa8] = a1\n 17994: a1 = u64 [s1 + 0x168]\n 17998: u64 [a4 + 0xb0] = a1\n 18002: a1 = u64 [s1 + 0x180]\n 18006: u64 [a4 + 0xb8] = a1\n 18010: a1 = s1 + 0x23c0\n 18014: a2 = u64 [s1 + 0x188]\n 18018: u64 [a4 + 0xc0] = a2\n 18022: u64 [s1 + 0x188] = a0\n 18026: ra = 644, jump @24\n      : @643 [@dyn 322] (gas: 10)\n 18032: a4 = s1 + 0x100\n 18036: a2 = u64 [a4 + 0x78]\n 18039: a3 = u64 [a4 + 0x98]\n 18043: a1 = u64 [a4 + 0x90]\n 18047: a0 = u64 [a4 + 0x58]\n 18050: a0 = a0 + 0xffffffffffffffa0\n 18053: a0 = a1 <u a0\n 18056: a0 = 0 if a3 != 0\n 18058: a0 = 0 if a2 != 0\n 18060: jump @645 if a0 != 0\n      : @644 (gas: 1)\n 18063: jump @782\n      : @645 (gas: 10)\n 18066: i32 a0 = a1 + 0x60\n 18069: a4 = s1 + 0x2118\n 18073: u64 [a4 + 672] = 0\n 18077: u64 [a4 + 664] = 0\n 18081: u64 [a4 + 656] = 0\n 18085: a1 = s1 + 0x23a0\n 18089: a2 = u64 [s1 + 0x170]\n 18093: u64 [a4 + 0x288] = a2\n 18097: u64 [s1 + 0x78] = a0\n 18100: ra = 646, jump @24\n      : @646 [@dyn 323] (gas: 9)\n 18106: a3 = s1 + 0x100\n 18110: a1 = u64 [a3 + 0x90]\n 18114: a0 = 0xffffff80\n 18124: a0 = a1 <u a0\n 18127: a2 = u64 [a3 + 0x98]\n 18131: a0 = 0 if a2 != 0\n 18133: a2 = u64 [a3 + 0x78]\n 18136: a0 = 0 if a2 != 0\n 18138: jump @648 if a0 != 0\n      : @647 (gas: 1)\n 18141: jump @782\n      : @648 (gas: 9)\n 18144: i32 a0 = a1 + 0x80\n 18148: a2 = s1 + 0x2118\n 18152: u64 [a2 + 640] = 0\n 18156: u64 [a2 + 632] = 0\n 18160: u64 [a2 + 624] = 0\n 18164: a1 = s1 + 0x2380\n 18168: u64 [a2 + 616] = 0\n 18172: u64 [s1 + 0x20] = a0\n 18175: ra = 648, jump @24\n      : @649 [@dyn 324] (gas: 6)\n 18181: a0 = u64 [s1 + 0xc0]\n 18185: ra = 0x28a\n 18189: ecalli 4 // 'caller'\n 18191: a2 = u64 [s1 + 0xd8]\n 18195: t0 = 0x28c\n 18199: jump @1432\n      : @650 [@dyn 325] (gas: 2)\n 18202: a2 = u64 [s1 + 0xd8]\n 18206: t0 = 652, jump @1432\n      : @651 [@dyn 326] (gas: 8)\n 18212: u64 [a2 + 608] = 0\n 18216: a4 = a2 + 0x200\n 18220: u64 [a4 + 0x58] = a1\n 18223: u64 [a4 + 0x50] = a0\n 18226: a1 = s1 + 0x2360\n 18230: u64 [a4 + 0x48] = a3\n 18233: a0 = 0\n 18235: ra = 654, jump @24\n      : @652 [@dyn 327] (gas: 9)\n 18241: a1 = s1 + 0x2118\n 18245: u64 [a1 + 576] = 0\n 18249: u64 [a1 + 568] = 0\n 18253: u64 [a1 + 552] = 0x2\n 18258: a2 = a1\n 18260: a0 = 0x20\n 18263: a1 = s1 + 0x2340\n 18267: u64 [a2 + 560] = 0\n 18271: ra = 656, jump @24\n      : @653 [@dyn 328] (gas: 3)\n 18277: a1 = u64 [s1 + 0xa8]\n 18281: a0 = i32 [a1]\n 18283: jump @655 if a0 >u 63\n      : @654 (gas: 2)\n 18287: u32 [a1 + 0] = 0x40\n 18290: fallthrough\n      : @655 (gas: 14)\n 18291: a1 = 0xffffffff00000000\n 18301: u64 [s1 + 0x70] = a1\n 18304: a0 = 0xffffffff\n 18314: u64 [s1 + 0x68] = a0\n 18317: a0 = sp + 0xffffffffffffffe0\n 18320: a0 = a0 & 0xffffffffffffffe0\n 18323: u64 [s1 + 0x198] = a0\n 18327: sp = a0\n 18329: i32 a2 = a0 + 0\n 18331: a1 = 0x40\n 18334: a0 = u64 [s1 + 0xa0]\n 18338: ra = 0x292\n 18342: ecalli 8 // 'hash_keccak_256'\n 18344: fallthrough\n      : @656 [@dyn 329] (gas: 14)\n 18345: a3 = u64 [s1 + 0x198]\n 18349: a0 = u64 [a3 + 0x18]\n 18352: a1 = u64 [a3 + 0x10]\n 18355: a2 = u64 [a3 + 0x8]\n 18358: a3 = u64 [a3]\n 18360: a0 = reverse a0\n 18362: u64 [s1 + 0x180] = a0\n 18366: a0 = reverse a1\n 18368: u64 [s1 + 0x178] = a0\n 18372: a0 = reverse a2\n 18374: u64 [s1 + 0x170] = a0\n 18378: a0 = reverse a3\n 18380: u64 [s1 + 0x168] = a0\n 18384: t0 = 660, jump @1471\n      : @657 [@dyn 330] (gas: 13)\n 18390: a2 = s1 + 0x2118\n 18394: a0 = u64 [s1 + 0x108]\n 18398: a3 = a2 + 0x200\n 18402: u64 [a3 + 0x20] = a0\n 18405: a0 = u64 [s1 + 0x100]\n 18409: u64 [a3 + 0x18] = a0\n 18412: a0 = u64 [s1 + 0xf8]\n 18416: u64 [a3 + 0x10] = a0\n 18419: a1 = s1 + 0x2320\n 18423: a0 = u64 [s1 + 0xf0]\n 18427: u64 [a3 + 0x8] = a0\n 18430: a0 = 0\n 18432: ra = 662, jump @24\n      : @658 [@dyn 331] (gas: 14)\n 18438: a1 = s1 + 0x2118\n 18442: a4 = s1 + 0x100\n 18446: a0 = u64 [a4 + 0x68]\n 18449: u64 [a1 + 0x200] = a0\n 18453: a0 = u64 [a4 + 0x70]\n 18456: u64 [a1 + 0x1f8] = a0\n 18460: a0 = u64 [a4 + 0x78]\n 18463: u64 [a1 + 0x1f0] = a0\n 18467: a3 = a1\n 18469: a0 = 0x20\n 18472: a1 = s1 + 0x2300\n 18476: a2 = u64 [a4 + 0x80]\n 18480: u64 [a3 + 0x1e8] = a2\n 18484: ra = 664, jump @24\n      : @659 [@dyn 332] (gas: 3)\n 18490: a1 = u64 [s1 + 0xa8]\n 18494: a0 = i32 [a1]\n 18496: jump @661 if a0 >u 63\n      : @660 (gas: 2)\n 18500: u32 [a1 + 0] = 0x40\n 18503: fallthrough\n      : @661 (gas: 29)\n 18504: a0 = sp + 0xffffffffffffffe0\n 18507: a0 = a0 & 0xffffffffffffffe0\n 18510: u64 [s1 + 0x180] = a0\n 18514: sp = a0\n 18516: i32 a2 = a0 + 0\n 18518: a1 = 0x40\n 18521: a0 = u64 [s1 + 0xa0]\n 18525: ecalli 8 // 'hash_keccak_256'\n 18527: a3 = u64 [s1 + 0x180]\n 18531: a0 = u64 [a3 + 0x18]\n 18534: a1 = u64 [a3 + 0x10]\n 18537: a2 = u64 [a3 + 0x8]\n 18540: a3 = u64 [a3]\n 18542: a5 = reverse a0\n 18544: u64 [s1 + 0x48] = a5\n 18547: a4 = reverse a1\n 18549: u64 [s1 + 0x50] = a4\n 18552: a1 = reverse a2\n 18554: u64 [s1 + 0x60] = a1\n 18557: a0 = reverse a3\n 18559: u64 [s1 + 0x58] = a0\n 18562: a2 = u64 [s1 + 0x198]\n 18566: u64 [a2 + 0x18] = a0\n 18569: u64 [a2 + 0x10] = a1\n 18572: u64 [a2 + 0x8] = a4\n 18575: u64 [a2] = a5\n 18577: a0 = s1 + 0x22e0\n 18581: a1 = u64 [s1 + 0x190]\n 18585: ra = 666, jump @22\n      : @662 [@dyn 333] (gas: 8)\n 18591: a0 = s1 + 0x2118\n 18595: a0 = u64 [a0 + 0x1c8]\n 18599: a1 = u64 [s1 + 0x68]\n 18602: a0 = a0 & a1\n 18605: u64 [s1 + 0x190] = a0\n 18609: a0 = s1 + 0x22c0\n 18613: a1 = u64 [s1 + 0x198]\n 18617: ra = 668, jump @26\n      : @663 [@dyn 334] (gas: 22)\n 18623: a3 = s1 + 0x2118\n 18627: a4 = a3 + 0x100\n 18631: a0 = u64 [a4 + 0xb0]\n 18635: a1 = u64 [a4 + 0xb8]\n 18639: a2 = u64 [a4 + 0xc0]\n 18643: a3 = u64 [a4 + 0xa8]\n 18647: a0 = a0 & 0xffffffffffffffff\n 18650: a1 = a1 & 0xffffffffffffffff\n 18653: a2 = a2 & 0xffffffffffffffff\n 18656: a4 = u64 [s1 + 0x70]\n 18659: a3 = a3 & a4\n 18662: a4 = u64 [s1 + 0x190]\n 18666: a3 = a3 | a4\n 18669: a4 = s1 + 0x2918\n 18673: a5 = a4 + 0x500\n 18677: u64 [a5 + 0xa0] = a2\n 18681: u64 [a5 + 0x98] = a1\n 18685: u64 [a5 + 0x90] = a0\n 18689: u64 [a5 + 0x88] = a3\n 18693: a1 = s1 + 0x2ea0\n 18697: a0 = u64 [s1 + 0x198]\n 18701: ra = 670, jump @28\n      : @664 [@dyn 335] (gas: 3)\n 18707: a0 = s1 + 0x22a0\n 18711: a1 = u64 [s1 + 0x138]\n 18715: ra = 672, jump @22\n      : @665 [@dyn 336] (gas: 11)\n 18721: a0 = s1 + 0x2118\n 18725: a2 = a0 + 0x100\n 18729: a1 = u64 [a2 + 0x98]\n 18733: u64 [s1 + 0x190] = a1\n 18737: a1 = u64 [a2 + 0x90]\n 18741: u64 [s1 + 0x180] = a1\n 18745: a1 = u64 [a2 + 0x88]\n 18749: u64 [s1 + 0x178] = a1\n 18753: a0 = s1 + 0x2280\n 18757: a1 = u64 [s1 + 0x198]\n 18761: ra = 674, jump @26\n      : @666 [@dyn 337] (gas: 23)\n 18767: a1 = s1 + 0x2118\n 18771: a0 = u64 [a1 + 0x180]\n 18775: a1 = u32 [a1 + 0x168]\n 18779: a5 = u64 [s1 + 0x178]\n 18783: a2 = a5 >> 0x20\n 18786: a4 = u64 [s1 + 0x180]\n 18790: a3 = a4 << 0x20\n 18793: a2 = a2 | a3\n 18796: a3 = a4 >> 0x20\n 18799: a4 = u64 [s1 + 0x190]\n 18803: a4 = a4 << 0x20\n 18806: a3 = a3 | a4\n 18809: a4 = a5 << 0x20\n 18812: a1 = a1 | a4\n 18815: a4 = s1 + 0x2918\n 18819: a5 = a4 + 0x500\n 18823: u64 [a5 + 0xb8] = a3\n 18827: u64 [a5 + 0xb0] = a2\n 18831: u64 [a5 + 0xc0] = a0\n 18835: u64 [a5 + 0xa8] = a1\n 18839: a1 = s1 + 0x2ec0\n 18843: a0 = u64 [s1 + 0x198]\n 18847: ra = 676, jump @28\n      : @667 [@dyn 338] (gas: 27)\n 18853: a0 = sp + 0xffffffffffffffe0\n 18856: a1 = a0 & 0xffffffffffffffe0\n 18859: sp = a1\n 18861: a2 = u64 [s1 + 0x48]\n 18864: a2 = a2 + 0x1\n 18867: a0 = a2 <u 0x1\n 18870: a3 = u64 [s1 + 0x50]\n 18873: a3 = a3 + a0\n 18876: a0 = a2 | a3\n 18879: a0 = a0 <u 0x1\n 18882: a5 = u64 [s1 + 0x60]\n 18885: a4 = a5 + a0\n 18888: a0 = a4 <u a5\n 18891: a5 = u64 [s1 + 0x58]\n 18894: a0 = a0 + a5\n 18897: u64 [s1 + 0x148] = a0\n 18901: u64 [a1 + 0x18] = a0\n 18904: u64 [s1 + 0x138] = a4\n 18908: u64 [a1 + 0x10] = a4\n 18911: u64 [s1 + 0x140] = a3\n 18915: u64 [a1 + 0x8] = a3\n 18918: u64 [s1 + 0x38] = a1\n 18921: u64 [s1 + 0x150] = a2\n 18925: u64 [a1] = a2\n 18927: a0 = s1 + 0x2260\n 18931: a1 = u64 [s1 + 0x188]\n 18935: ra = 678, jump @22\n      : @668 [@dyn 339] (gas: 18)\n 18941: a0 = s1 + 0x2118\n 18945: a5 = a0 + 0x100\n 18949: a3 = u64 [a5 + 0x60]\n 18952: a4 = u64 [a5 + 0x58]\n 18955: a2 = u64 [a5 + 0x50]\n 18958: a1 = u64 [a5 + 0x48]\n 18961: a5 = s1 + 0x100\n 18965: u64 [a5 + 0x30] = a2\n 18968: u64 [a5 + 0x28] = a3\n 18971: a0 = a2 | a3\n 18974: a2 = a1 | a4\n 18977: a2 = a2 | a0\n 18980: a2 = a2 >> 0x20\n 18983: u64 [a5 + 0x20] = a4\n 18986: a0 = a0 | a4\n 18989: a0 = a0 << 0x20\n 18992: a0 = a0 | a2\n 18995: jump @670 if a0 == 0\n      : @669 (gas: 1)\n 18998: jump @782\n      : @670 (gas: 3)\n 19001: a0 = s1 + 0x2240\n 19005: u64 [s1 + 0x118] = a1\n 19009: ra = 680, jump @22\n      : @671 [@dyn 340] (gas: 18)\n 19015: a2 = s1 + 0x2118\n 19019: a0 = a2 + 0x100\n 19023: a4 = u64 [a0 + 0x40]\n 19026: a3 = u64 [a0 + 0x38]\n 19029: a1 = u64 [a0 + 0x30]\n 19032: a0 = a4 >u 0\n 19034: a5 = a3 >u 0\n 19036: a5 = a0 if a4 != 0\n 19039: u64 [s1 + 0x40] = a1\n 19042: a0 = a1 >u 0\n 19044: u64 [s1 + 0x30] = a3\n 19047: u64 [s1 + 0x28] = a4\n 19050: a3 = a3 | a4\n 19053: u64 [s1 + 0x8] = a0\n 19056: u64 [s1 + 0x10] = a5\n 19059: u64 [s1 + 0x110] = a3\n 19063: a0 = a5 if a3 != 0\n 19066: jump @673 if a0 == 0\n      : @672 (gas: 1)\n 19069: jump @890\n      : @673 (gas: 5)\n 19072: a0 = u64 [a2 + 0x128]\n 19076: u64 [s1 + 0x80] = a0\n 19080: a0 = s1 + 0x2220\n 19084: a1 = u64 [s1 + 0x38]\n 19087: ra = 682, jump @26\n      : @674 [@dyn 341] (gas: 13)\n 19093: a4 = s1 + 0x2118\n 19097: a5 = a4 + 0x100\n 19101: a2 = u64 [a5 + 0x8]\n 19104: a0 = u64 [a5 + 0x10]\n 19107: a1 = u64 [a5 + 0x18]\n 19110: a3 = u64 [a5 + 0x20]\n 19113: u64 [a4 + 0xe0] = a3\n 19117: u64 [a4 + 0xd8] = a1\n 19121: u64 [a4 + 0xd0] = a0\n 19125: a0 = s1 + 0x2200\n 19129: a1 = s1 + 0x21e0\n 19133: u64 [a4 + 0xc8] = a2\n 19137: ra = 684, jump @1247\n      : @675 [@dyn 342] (gas: 22)\n 19143: a0 = s1 + 0x2118\n 19147: a3 = u64 [a0 + 0x100]\n 19151: a4 = u64 [a0 + 0xf8]\n 19155: a5 = u64 [a0 + 0xf0]\n 19159: a2 = u64 [a0 + 0xe8]\n 19163: a0 = a3 >u 0\n 19165: a1 = a4 >u 0\n 19167: a1 = a0 if a3 != 0\n 19170: a0 = a5 >u 0\n 19172: u64 [s1 + 0x178] = a2\n 19176: a2 = a2 <u 0x20\n 19179: a2 = a2 ^ 0x1\n 19182: u64 [s1 + 0x180] = a5\n 19186: a2 = a0 if a5 != 0\n 19189: u64 [s1 + 0x188] = a3\n 19193: u64 [s1 + 0x190] = a4\n 19197: a0 = a4 | a3\n 19200: a2 = a1 if a0 != 0\n 19203: a0 = u64 [s1 + 0x80]\n 19207: a0 = a0 <u 0x20\n 19210: u64 [s1 + 0x18] = a0\n 19213: jump @712 if a2 == 0\n      : @676 (gas: 13)\n 19217: a0 = s1 + 0x2118\n 19221: a3 = s1 + 0x100\n 19225: a1 = u64 [a3 + 0x50]\n 19228: u64 [a0 + 0xa8] = a1\n 19232: a1 = u64 [a3 + 0x40]\n 19235: u64 [a0 + 0xb0] = a1\n 19239: a1 = u64 [a3 + 0x38]\n 19242: u64 [a0 + 0xb8] = a1\n 19246: a1 = s1 + 0x21c0\n 19250: a2 = u64 [a3 + 0x48]\n 19253: u64 [a0 + 0xc0] = a2\n 19257: a0 = 0\n 19259: ra = 686, jump @24\n      : @677 [@dyn 343] (gas: 3)\n 19265: a0 = u64 [s1 + 0xa8]\n 19269: a0 = i32 [a0]\n 19271: jump @679 if a0 >u 31\n      : @678 (gas: 3)\n 19275: a1 = u64 [s1 + 0xa8]\n 19279: u32 [a1 + 0] = 0x20\n 19282: fallthrough\n      : @679 (gas: 117)\n 19283: a0 = sp + 0xffffffffffffffe0\n 19286: a0 = a0 & 0xffffffffffffffe0\n 19289: u64 [s1 + 0x168] = a0\n 19293: sp = a0\n 19295: i32 a2 = a0 + 0\n 19297: a1 = 0x20\n 19300: a0 = u64 [s1 + 0xa0]\n 19304: ecalli 8 // 'hash_keccak_256'\n 19306: a0 = u64 [s1 + 0x80]\n 19310: a1 = a0 + 0x1f\n 19313: a0 = a1 <u a0\n 19316: a5 = u64 [s1 + 0x40]\n 19319: a2 = a5 + a0\n 19322: a3 = a2 <u a5\n 19325: a3 = a0 if a0 == 0\n 19328: a4 = u64 [s1 + 0x30]\n 19331: a3 = a3 + a4\n 19334: u64 [s1 + 0x160] = a3\n 19338: a3 = a3 << 0x3b\n 19341: a4 = a2 >> 0x5\n 19344: a4 = a4 | a3\n 19347: a0 = u64 [s1 + 0x168]\n 19351: t1 = u64 [a0 + 0x18]\n 19354: a2 = a2 << 0x3b\n 19357: a3 = u64 [a0 + 0x10]\n 19360: a1 = a1 >> 0x5\n 19363: a0 = a1 | a2\n 19366: t2 = reverse t1\n 19368: a2 = reverse a3\n 19370: a1 = u64 [s1 + 0x18]\n 19373: a1 = 0 if a5 != 0\n 19375: a3 = u64 [s1 + 0x110]\n 19379: a1 = 0 if a3 != 0\n 19381: a4 = 0 if a1 != 0\n 19383: a0 = 0 if a1 != 0\n 19385: t0 = t2 + a0\n 19388: a0 = t0 <u t2\n 19391: a5 = a2 + a0\n 19394: a4 = a4 + a5\n 19397: u64 [s1 + 0x198] = a4\n 19401: a5 = a4 ^ a2\n 19404: a3 = a4 <u a2\n 19407: a3 = a0 if a5 == 0\n 19410: u64 [s1 + 0x158] = a3\n 19414: a0 = u64 [s1 + 0x178]\n 19418: ra = a0 + 0x1f\n 19421: a4 = ra <u a0\n 19424: a3 = u64 [s1 + 0x180]\n 19428: a0 = a3 + a4\n 19431: a5 = a0 <u a3\n 19434: a5 = a4 if a4 == 0\n 19437: t1 = u64 [s1 + 0x190]\n 19441: t1 = t1 + a5\n 19444: a4 = t1 << 0x3b\n 19447: a3 = a0 >> 0x5\n 19450: a3 = a3 | a4\n 19453: a0 = a0 << 0x3b\n 19456: a4 = ra >> 0x5\n 19459: a0 = a0 | a4\n 19462: a0 = a0 + t2\n 19465: u64 [s1 + 0x178] = a0\n 19469: a0 = a0 <u t2\n 19472: t2 = t0\n 19474: a4 = a2 + a0\n 19477: a4 = a4 + a3\n 19480: a3 = a4 ^ a2\n 19483: u64 [s1 + 0x170] = a4\n 19487: a2 = a4 <u a2\n 19490: a2 = a0 if a3 == 0\n 19493: a4 = u64 [s1 + 0x160]\n 19497: a0 = u64 [s1 + 0x30]\n 19500: a0 = a4 <u a0\n 19503: a3 = u64 [s1 + 0x28]\n 19506: a0 = a0 + a3\n 19509: a3 = a4 >> 0x5\n 19512: a4 = a0 << 0x3b\n 19515: a3 = a3 | a4\n 19518: a4 = u64 [s1 + 0x168]\n 19522: t0 = u64 [a4]\n 19524: a4 = u64 [a4 + 0x8]\n 19527: a0 = a0 >> 0x5\n 19530: a3 = 0 if a1 != 0\n 19532: a0 = 0 if a1 != 0\n 19534: a1 = reverse a4\n 19536: a4 = reverse t0\n 19538: a0 = a0 + a4\n 19541: a3 = a3 + a1\n 19544: a5 = a3 <u a1\n 19547: a0 = a0 + a5\n 19550: ra = u64 [s1 + 0x158]\n 19554: ra = ra + a3\n 19557: a3 = ra <u a3\n 19560: t0 = a0 + a3\n 19563: a0 = u64 [s1 + 0x190]\n 19567: a0 = t1 <u a0\n 19570: a3 = u64 [s1 + 0x188]\n 19574: a0 = a0 + a3\n 19577: a3 = t1 >> 0x5\n 19580: a5 = a0 << 0x3b\n 19583: a3 = a3 | a5\n 19586: a0 = a0 >> 0x5\n 19589: a0 = a0 + a4\n 19592: a5 = s1 + 0x100\n 19596: a4 = u64 [a5 + 0x98]\n 19600: a3 = a3 + a1\n 19603: a1 = a3 <u a1\n 19606: a0 = a0 + a1\n 19609: a2 = a2 + a3\n 19612: u64 [a5 + 0x68] = a2\n 19615: a1 = a2 <u a3\n 19618: a0 = a0 + a1\n 19621: u64 [a5 + 0x60] = a0\n 19624: a0 = sp + 0xffffffffffffffe0\n 19627: t1 = a0 & 0xffffffffffffffe0\n 19630: sp = t1\n 19632: u64 [s1 + 0x158] = t1\n 19636: fallthrough\n      : @680 (gas: 24)\n 19637: a0 = u64 [s1 + 0x178]\n 19641: a0 = t2 <u a0\n 19644: a2 = u64 [s1 + 0x170]\n 19648: a1 = a4 ^ a2\n 19651: a2 = a4 <u a2\n 19654: a2 = a0 if a1 == 0\n 19657: a5 = u64 [s1 + 0x168]\n 19661: a0 = ra <u a5\n 19664: a3 = u64 [s1 + 0x160]\n 19668: a1 = t0 ^ a3\n 19671: a3 = t0 <u a3\n 19674: a3 = a0 if a1 == 0\n 19677: a0 = ra ^ a5\n 19680: a0 = a0 | a1\n 19683: a3 = a2 if a0 == 0\n 19686: u64 [s1 + 0x190] = t2\n 19690: u64 [t1] = t2\n 19692: u64 [s1 + 0x198] = a4\n 19696: u64 [t1 + 0x8] = a4\n 19699: u64 [s1 + 0x180] = ra\n 19703: u64 [t1 + 0x10] = ra\n 19706: u64 [s1 + 0x188] = t0\n 19710: u64 [t1 + 0x18] = t0\n 19713: jump @712 if a3 == 0\n      : @681 (gas: 8)\n 19717: a0 = s1 + 0x2918\n 19721: u64 [a0 + 1504] = 0\n 19725: u64 [a0 + 1496] = 0\n 19729: u64 [a0 + 1488] = 0\n 19733: u64 [a0 + 1480] = 0\n 19737: a1 = s1 + 0x2ee0\n 19741: a0 = t1\n 19743: ra = 688, jump @28\n      : @682 [@dyn 344] (gas: 15)\n 19749: t1 = u64 [s1 + 0x158]\n 19753: t2 = u64 [s1 + 0x190]\n 19757: t2 = t2 + 0x1\n 19760: a0 = t2 <u 0x1\n 19763: a4 = u64 [s1 + 0x198]\n 19767: a4 = a4 + a0\n 19770: a0 = t2 | a4\n 19773: a0 = a0 <u 0x1\n 19776: a1 = u64 [s1 + 0x180]\n 19780: a0 = a0 + a1\n 19783: a1 = a0 <u a1\n 19786: t0 = u64 [s1 + 0x188]\n 19790: t0 = t0 + a1\n 19793: ra = a0\n 19795: jump @680\n      : @683 (gas: 2)\n 19798: a5 = s1 + 0x1118\n 19802: fallthrough\n      : @684 (gas: 26)\n 19803: a1 = u64 [s1 + 0x198]\n 19807: a0 = a1 + 0x20\n 19810: a1 = a0 <u a1\n 19813: a2 = t2 + a1\n 19816: a3 = a2 <u t2\n 19819: a3 = a1 if a1 == 0\n 19822: a3 = a3 + t1\n 19825: a1 = a3 <u t1\n 19828: a4 = u64 [s1 + 0x190]\n 19832: a4 = a4 + a1\n 19835: a1 = u64 [s1 + 0x108]\n 19839: u64 [a5 + 0x408] = a1\n 19843: a1 = a5 + 0x300\n 19847: u64 [a1 + 0xe8] = a0\n 19851: a0 = u64 [s1 + 0x100]\n 19855: u64 [a5 + 0x410] = a0\n 19859: a0 = u64 [s1 + 0xf8]\n 19863: u64 [a5 + 0x418] = a0\n 19867: u64 [a1 + 0xf0] = a2\n 19871: a0 = u64 [s1 + 0x110]\n 19875: u64 [a5 + 0x420] = a0\n 19879: u64 [a1 + 0xf8] = a3\n 19883: a0 = s1 + 0x1520\n 19887: a1 = s1 + 0x1500\n 19891: u64 [a5 + 0x400] = a4\n 19895: ra = 690, jump @1256\n      : @685 [@dyn 345] (gas: 5)\n 19901: a1 = u64 [s1 + 0xd8]\n 19905: a0 = a1 + 0x2\n 19908: a1 = a0 <u a1\n 19911: a3 = u64 [s1 + 0xe0]\n 19915: t0 = 692, jump @1477\n      : @686 [@dyn 346] (gas: 14)\n 19921: a1 = u64 [s1 + 0xf0]\n 19925: a3 = a3 + a1\n 19928: a1 = a3 <u a1\n 19931: a4 = u64 [s1 + 0xe8]\n 19935: a1 = a1 + a4\n 19938: a4 = s1 + 0x2918\n 19942: a5 = a4 + 0x300\n 19946: u64 [a5 + 0xe0] = a1\n 19950: u64 [a5 + 0xd8] = a3\n 19954: u64 [a5 + 0xd0] = a2\n 19958: u64 [a5 + 0xc8] = a0\n 19962: a0 = s1 + 0x14e0\n 19966: a1 = s1 + 0x2ce0\n 19970: ra = 694, jump @26\n      : @687 [@dyn 347] (gas: 3)\n 19976: t0 = 0x2b8\n 19980: a1 = s1 + 0x1118\n 19984: fallthrough\n      : @688 [@dyn 348] (gas: 7)\n 19985: a0 = u64 [a1 + 0x3d0]\n 19989: u64 [s1 + 0x178] = a0\n 19993: a0 = u64 [a1 + 0x3c8]\n 19997: u64 [s1 + 0x170] = a0\n 20001: a0 = s1 + 0x14c0\n 20005: a1 = 0x40\n 20008: ra = 698, jump @22\n      : @689 [@dyn 349] (gas: 14)\n 20014: a4 = s1 + 0x1118\n 20018: t0 = u64 [a4 + 0x3c0]\n 20022: a1 = a4 + 0x300\n 20026: a3 = u64 [a1 + 0xb8]\n 20030: a5 = u64 [a1 + 0xb0]\n 20034: a0 = u64 [a1 + 0xa8]\n 20038: a2 = a5 | t0\n 20041: a1 = a0 | a3\n 20044: a1 = a1 | a2\n 20047: a1 = a1 >> 0x20\n 20050: a2 = a2 | a3\n 20053: a2 = a2 << 0x20\n 20056: a1 = a1 | a2\n 20059: jump @782 if a1 != 0\n      : @690 (gas: 13)\n 20063: a1 = u64 [s1 + 0xd0]\n 20067: a1 = a1 << 0x20\n 20070: u64 [s1 + 0x188] = a3\n 20074: a3 = a1 >> 0x20\n 20077: u64 [a4 + 928] = 0\n 20081: u64 [a4 + 920] = 0\n 20085: u64 [a4 + 912] = 0\n 20089: a1 = s1 + 0x14a0\n 20093: u64 [a4 + 0x388] = a3\n 20097: u64 [s1 + 0x198] = a0\n 20101: u64 [s1 + 0x180] = t0\n 20105: u64 [s1 + 0x190] = a5\n 20109: ra = 700, jump @24\n      : @691 [@dyn 350] (gas: 6)\n 20115: a5 = s1 + 0x100\n 20119: a1 = u64 [a5 + 0x98]\n 20123: a0 = u64 [a5 + 0x88]\n 20127: a2 = u64 [a5 + 0x80]\n 20131: a3 = a0 | a2\n 20134: t0 = 702, jump @1479\n      : @692 [@dyn 351] (gas: 1)\n 20140: jump @782 if a0 == 0\n      : @693 (gas: 24)\n 20144: t0 = 0xffffffff\n 20154: a2 = u64 [s1 + 0xd0]\n 20158: a2 = a2 >> 0x20\n 20161: u64 [s1 + 0x160] = a4\n 20165: a4 = u64 [s1 + 0xc0]\n 20169: u64 [s1 + 0x168] = a3\n 20173: a3 = a4 << 0x20\n 20176: a2 = a2 | a3\n 20179: a3 = a4 >> 0x20\n 20182: a5 = u64 [s1 + 0xc8]\n 20186: a4 = a5 << 0x20\n 20189: a3 = a3 | a4\n 20192: a4 = a5 >> 0x20\n 20195: a3 = a3 & 0xffffffffffffffff\n 20198: a2 = a2 & 0xffffffffffffffff\n 20201: a4 = a4 & t0\n 20204: i32 a0 = a1 + 0x20\n 20207: a5 = s1 + 0x1118\n 20211: u64 [a5 + 896] = 0\n 20215: u64 [a5 + 0x378] = a4\n 20219: u64 [a5 + 0x368] = a2\n 20223: a1 = s1 + 0x1480\n 20227: u64 [a5 + 0x370] = a3\n 20231: ra = 704, jump @24\n      : @694 [@dyn 352] (gas: 10)\n 20237: a3 = s1 + 0x100\n 20241: a1 = u64 [a3 + 0x98]\n 20245: a0 = u64 [a3 + 0x60]\n 20248: a0 = a0 + 0xffffffffffffffc0\n 20251: a0 = a1 <u a0\n 20254: a2 = u64 [a3 + 0x90]\n 20258: a0 = 0 if a2 != 0\n 20260: a2 = u64 [a3 + 0x68]\n 20263: a0 = 0 if a2 != 0\n 20265: jump @782 if a0 == 0\n      : @695 (gas: 8)\n 20269: i32 a0 = a1 + 0x40\n 20272: a2 = s1 + 0x1118\n 20276: u64 [a2 + 864] = 0\n 20280: u64 [a2 + 856] = 0\n 20284: u64 [a2 + 840] = 0xa0\n 20290: a1 = s1 + 0x1460\n 20294: u64 [a2 + 848] = 0\n 20298: ra = 706, jump @24\n      : @696 [@dyn 353] (gas: 3)\n 20304: a0 = s1 + 0x1440\n 20308: a1 = u64 [s1 + 0x108]\n 20312: ra = 708, jump @22\n      : @697 [@dyn 354] (gas: 10)\n 20318: a5 = s1 + 0x100\n 20322: a3 = u64 [a5 + 0x68]\n 20325: a1 = u64 [a5 + 0x98]\n 20329: a4 = 0x100000000\n 20339: a0 = 0xffffff60\n 20349: a0 = a1 <u a0\n 20352: a2 = u64 [a5 + 0x90]\n 20356: a0 = 0 if a2 != 0\n 20358: a0 = 0 if a3 != 0\n 20360: jump @782 if a0 == 0\n      : @698 (gas: 18)\n 20364: a0 = s1 + 0x1118\n 20368: u64 [s1 + 0x160] = a4\n 20372: a4 = a0\n 20374: t0 = u64 [a0 + 0x340]\n 20378: t1 = u64 [a0 + 0x338]\n 20382: a5 = u64 [a0 + 0x330]\n 20386: a2 = u64 [a0 + 0x328]\n 20390: i32 a0 = a1 + 0xa0\n 20394: u64 [s1 + 0x158] = a2\n 20398: u64 [a4 + 0x308] = a2\n 20402: u64 [s1 + 0x140] = a5\n 20406: u64 [a4 + 0x310] = a5\n 20410: u64 [s1 + 0x150] = t1\n 20414: u64 [a4 + 0x318] = t1\n 20418: a1 = s1 + 0x1420\n 20422: u64 [s1 + 0x148] = t0\n 20426: u64 [a4 + 0x320] = t0\n 20430: ra = 710, jump @24\n      : @699 [@dyn 355] (gas: 10)\n 20436: a4 = s1 + 0x100\n 20440: a3 = u64 [a4 + 0x90]\n 20444: a2 = u64 [a4 + 0x98]\n 20448: a0 = u64 [a4 + 0x60]\n 20451: a0 = a0 + 0xffffffffffffff40\n 20455: a0 = a2 <u a0\n 20458: a0 = 0 if a3 != 0\n 20460: a1 = u64 [a4 + 0x68]\n 20463: a0 = 0 if a1 != 0\n 20465: jump @782 if a0 == 0\n      : @700 (gas: 8)\n 20469: a0 = 0xffffffe0\n 20479: a1 = u64 [s1 + 0x108]\n 20483: a0 = a1 <u a0\n 20486: a1 = u64 [s1 + 0x100]\n 20490: a0 = 0 if a1 != 0\n 20492: a1 = u64 [s1 + 0xb8]\n 20496: a0 = 0 if a1 != 0\n 20498: jump @782 if a0 == 0\n      : @701 (gas: 12)\n 20502: a1 = u64 [s1 + 0x158]\n 20506: a5 = u64 [s1 + 0x150]\n 20510: a0 = a1 | a5\n 20513: t0 = u64 [s1 + 0x148]\n 20517: t1 = u64 [s1 + 0x140]\n 20521: a4 = t1 | t0\n 20524: a0 = a0 | a4\n 20527: a0 = a0 >> 0x20\n 20530: a4 = a4 | a5\n 20533: a4 = a4 << 0x20\n 20536: a0 = a0 | a4\n 20539: jump @782 if a0 != 0\n      : @702 (gas: 2)\n 20543: i32 a0 = a2 + 0xc0\n 20547: ra = 712, jump @37\n      : @703 [@dyn 356] (gas: 4)\n 20553: u64 [s1 + 0x168] = a0\n 20557: a0 = u64 [s1 + 0x138]\n 20561: a1 = u64 [s1 + 0x158]\n 20565: ra = 714, jump @37\n      : @704 [@dyn 357] (gas: 4)\n 20571: a1 = a0\n 20573: a0 = u64 [s1 + 0x168]\n 20577: a2 = u64 [s1 + 0x158]\n 20581: ra = 716, jump @0\n      : @705 [@dyn 358] (gas: 29)\n 20587: a1 = u64 [s1 + 0x158]\n 20591: a0 = u64 [s1 + 0x198]\n 20595: a0 = a0 + a1\n 20598: a2 = a0 <u a1\n 20601: a4 = u64 [s1 + 0x140]\n 20605: a1 = u64 [s1 + 0x190]\n 20609: a1 = a1 + a4\n 20612: a1 = a1 + a2\n 20615: a3 = a1 ^ a4\n 20618: a4 = a1 <u a4\n 20621: a4 = a2 if a3 == 0\n 20624: a2 = u64 [s1 + 0x180]\n 20628: a3 = u64 [s1 + 0x148]\n 20632: a2 = a2 + a3\n 20635: a3 = u64 [s1 + 0x188]\n 20639: a5 = u64 [s1 + 0x150]\n 20643: a3 = a3 + a5\n 20646: a4 = a4 + a3\n 20649: a5 = a3 <u a5\n 20652: a3 = a4 <u a3\n 20655: a2 = a2 + a5\n 20658: a2 = a2 + a3\n 20661: a2 = a2 | a4\n 20664: a3 = 0xffffff40\n 20674: u64 [s1 + 0x190] = a3\n 20678: a3 = a0 <u a3\n 20681: a3 = 0 if a1 != 0\n 20683: a3 = 0 if a2 != 0\n 20685: jump @782 if a3 == 0\n      : @706 (gas: 8)\n 20689: i32 a0 = a0 + 0xc0\n 20693: a2 = s1 + 0x1118\n 20697: u64 [a2 + 768] = 0\n 20701: u64 [a2 + 760] = 0\n 20705: u64 [a2 + 752] = 0\n 20709: a1 = s1 + 0x1400\n 20713: u64 [a2 + 744] = 0\n 20717: ra = 718, jump @24\n      : @707 [@dyn 359] (gas: 10)\n 20723: a0 = u64 [s1 + 0x198]\n 20727: i32 a0 = a0 + 0x60\n 20730: a2 = s1 + 0x1118\n 20734: u64 [a2 + 736] = 0\n 20738: u64 [a2 + 728] = 0\n 20742: a1 = u64 [s1 + 0x170]\n 20746: u64 [a2 + 0x2c8] = a1\n 20750: a1 = s1 + 0x13e0\n 20754: u64 [a2 + 720] = 0\n 20758: ra = 720, jump @24\n      : @708 [@dyn 360] (gas: 11)\n 20764: a0 = u8 [s1 + 0x178]\n 20768: a1 = a0 >u 0\n 20770: a0 = u64 [s1 + 0x198]\n 20774: i32 a0 = a0 + 0x80\n 20778: a2 = s1 + 0x1118\n 20782: u64 [a2 + 704] = 0\n 20786: u64 [a2 + 696] = 0\n 20790: u64 [a2 + 0x2a8] = a1\n 20794: a1 = s1 + 0x13c0\n 20798: u64 [a2 + 688] = 0\n 20802: ra = 722, jump @24\n      : @709 [@dyn 361] (gas: 6)\n 20808: a0 = u64 [s1 + 0x158]\n 20812: a0 = a0 + 0x1f\n 20815: a1 = 0x1ffffffe0\n 20825: a0 = a0 & a1\n 20828: a1 = u64 [s1 + 0x190]\n 20832: jump @782 if a0 >=u a1\n      : @710 (gas: 4)\n 20836: i32 a1 = a0 + 0xc0\n 20840: u64 [s1 + 0x190] = a1\n 20844: a0 = u64 [s1 + 0x198]\n 20848: ra = 724, jump @37\n      : @711 [@dyn 362] (gas: 5)\n 20854: i32 a1 = a0 + 0\n 20856: a0 = 0\n 20858: a2 = u64 [s1 + 0x190]\n 20862: ecalli 13 // 'seal_return'\n 20864: fallthrough\n      : @712 (gas: 9)\n 20865: a0 = u64 [s1 + 0x18]\n 20868: a0 = a0 ^ 0x1\n 20871: a1 = u64 [s1 + 0x40]\n 20874: a2 = u64 [s1 + 0x8]\n 20877: a0 = a2 if a1 != 0\n 20880: a1 = u64 [s1 + 0x10]\n 20883: a2 = u64 [s1 + 0x110]\n 20887: a0 = a1 if a2 != 0\n 20890: jump @721 if a0 == 0\n      : @713 (gas: 15)\n 20894: a0 = u64 [s1 + 0x80]\n 20898: a0 = a0 & 0xffffffffffffffe0\n 20901: u64 [s1 + 0x110] = a0\n 20905: a0 = s1 + 0x2118\n 20909: a1 = u64 [s1 + 0x150]\n 20913: u64 [a0 + 0x68] = a1\n 20916: a1 = u64 [s1 + 0x140]\n 20920: u64 [a0 + 0x70] = a1\n 20923: a1 = u64 [s1 + 0x138]\n 20927: u64 [a0 + 0x78] = a1\n 20930: a1 = s1 + 0x2180\n 20934: a2 = u64 [s1 + 0x148]\n 20938: u64 [a0 + 0x80] = a2\n 20942: a0 = 0\n 20944: ra = 726, jump @24\n      : @714 [@dyn 363] (gas: 7)\n 20950: a0 = sp + 0xffffffffffffffe0\n 20953: a0 = a0 & 0xffffffffffffffe0\n 20956: u64 [s1 + 0x170] = a0\n 20960: sp = a0\n 20962: a1 = 0x20\n 20965: a0 = 0\n 20967: ra = 728, jump @37\n      : @715 [@dyn 364] (gas: 34)\n 20973: a1 = sp + 0xffffffffffffffe0\n 20976: a1 = a1 & 0xffffffffffffffe0\n 20979: u64 [s1 + 0x168] = a1\n 20983: sp = a1\n 20985: i32 a0 = a0 + 0\n 20987: i32 a2 = a1 + 0\n 20989: a1 = 0x20\n 20992: ecalli 8 // 'hash_keccak_256'\n 20994: u64 [s1 + 408] = 0x20\n 20999: a5 = 0\n 21001: u64 [s1 + 400] = 0\n 21005: u64 [s1 + 392] = 0\n 21009: u64 [s1 + 376] = 0\n 21013: u64 [s1 + 384] = 0\n 21017: a3 = u64 [s1 + 0x168]\n 21021: a0 = u64 [a3 + 0x18]\n 21024: a1 = u64 [a3 + 0x10]\n 21027: a2 = u64 [a3 + 0x8]\n 21030: a3 = u64 [a3]\n 21032: t1 = reverse a0\n 21034: t2 = reverse a1\n 21036: ra = reverse a2\n 21038: a2 = 0\n 21040: a4 = u64 [s1 + 0x178]\n 21044: a0 = reverse a3\n 21046: a3 = 0\n 21048: t0 = a0\n 21050: a1 = u64 [s1 + 0x170]\n 21054: u64 [a1 + 0x18] = a0\n 21057: u64 [s1 + 0x150] = ra\n 21061: u64 [a1 + 0x10] = ra\n 21064: u64 [a1 + 0x8] = t2\n 21067: u64 [a1] = t1\n 21069: fallthrough\n      : @716 (gas: 24)\n 21070: u64 [s1 + 0x168] = t0\n 21074: a0 = u64 [s1 + 0x110]\n 21078: u64 [s1 + 0x178] = a4\n 21082: a0 = a4 <u a0\n 21085: a4 = a0 ^ 0x1\n 21088: u64 [s1 + 0x158] = a3\n 21092: a4 = 0x1 if a3 != 0\n 21095: u64 [s1 + 0x160] = a2\n 21099: a0 = u64 [s1 + 0x180]\n 21103: a0 = a0 | a2\n 21106: a4 = 0x1 if a0 != 0\n 21109: a1 = u64 [s1 + 0x118]\n 21113: a0 = u64 [s1 + 0x198]\n 21117: a1 = a1 + a0\n 21120: a3 = u64 [s1 + 0x130]\n 21124: a3 = a3 + a5\n 21127: a2 = u64 [s1 + 0x120]\n 21131: a0 = u64 [s1 + 0x190]\n 21135: a2 = a2 + a0\n 21138: a0 = u64 [s1 + 0x128]\n 21142: ra = a5\n 21144: a5 = u64 [s1 + 0x188]\n 21148: a0 = a0 + a5\n 21151: jump @723 if a4 != 0\n      : @717 (gas: 23)\n 21155: a4 = u64 [s1 + 0x198]\n 21159: a4 = a1 <u a4\n 21162: a3 = a3 + a4\n 21165: t0 = a3 ^ ra\n 21168: u64 [s1 + 0x138] = ra\n 21172: a5 = a3 <u ra\n 21175: a5 = a4 if t0 == 0\n 21178: a5 = a5 + a2\n 21181: t0 = a5 <u a2\n 21184: a4 = u64 [s1 + 0x190]\n 21188: a2 = a2 <u a4\n 21191: a0 = a0 + a2\n 21194: a0 = a0 + t0\n 21197: a2 = a1 | a5\n 21200: a0 = a0 | a3\n 21203: a2 = a2 | a0\n 21206: a2 = a2 >> 0x20\n 21209: a0 = a0 | a5\n 21212: a0 = a0 << 0x20\n 21215: a0 = a0 | a2\n 21218: u64 [s1 + 0x148] = t1\n 21222: u64 [s1 + 0x140] = t2\n 21226: jump @782 if a0 != 0\n      : @718 (gas: 2)\n 21230: a0 = s1 + 0x1ee0\n 21234: ra = 730, jump @22\n      : @719 [@dyn 365] (gas: 15)\n 21240: a3 = s1 + 0x1918\n 21244: a4 = a3 + 0x500\n 21248: a0 = u64 [a4 + 0xe0]\n 21252: a1 = u64 [a4 + 0xd8]\n 21256: a2 = u64 [a4 + 0xd0]\n 21260: a3 = u64 [a4 + 0xc8]\n 21264: a4 = s1 + 0x2918\n 21268: u64 [a4 + 0x600] = a0\n 21272: a0 = a4 + 0x500\n 21276: u64 [a0 + 0xf8] = a1\n 21280: u64 [a0 + 0xf0] = a2\n 21284: u64 [a0 + 0xe8] = a3\n 21288: a1 = s1 + 0x2f00\n 21292: a0 = u64 [s1 + 0x170]\n 21296: ra = 732, jump @28\n      : @720 [@dyn 366] (gas: 53)\n 21302: t1 = u64 [s1 + 0x148]\n 21306: t1 = t1 + 0x1\n 21309: a0 = t1 <u 0x1\n 21312: t2 = u64 [s1 + 0x140]\n 21316: t2 = t2 + a0\n 21319: a0 = t1 | t2\n 21322: a0 = a0 <u 0x1\n 21325: a1 = u64 [s1 + 0x150]\n 21329: ra = a1 + a0\n 21332: a1 = ra <u a1\n 21335: a0 = u64 [s1 + 0x168]\n 21339: a0 = a0 + a1\n 21342: a1 = u64 [s1 + 0x198]\n 21346: a2 = a1 + 0x20\n 21349: u64 [s1 + 0x168] = a2\n 21353: a3 = a2 <u a1\n 21356: a1 = u64 [s1 + 0x138]\n 21360: a2 = a1 + a3\n 21363: u64 [s1 + 0x148] = a2\n 21367: a4 = a2 <u a1\n 21370: a4 = a3 if a3 == 0\n 21373: a1 = u64 [s1 + 0x190]\n 21377: a3 = a1 + a4\n 21380: a4 = a3 <u a1\n 21383: a1 = u64 [s1 + 0x188]\n 21387: a1 = a1 + a4\n 21390: u64 [s1 + 0x188] = a1\n 21394: a1 = u64 [s1 + 0x178]\n 21398: a4 = a1 + 0x20\n 21401: a5 = a4 <u a1\n 21404: a2 = u64 [s1 + 0x158]\n 21408: a1 = a2 + a5\n 21411: a2 = a1 <u a2\n 21414: a2 = a5 if a5 == 0\n 21417: a5 = u64 [s1 + 0x160]\n 21421: a2 = a2 + a5\n 21424: a5 = a2 <u a5\n 21427: t0 = u64 [s1 + 0x180]\n 21431: t0 = t0 + a5\n 21434: u64 [s1 + 0x180] = t0\n 21438: a5 = u64 [s1 + 0x170]\n 21442: u64 [a5 + 0x8] = t2\n 21445: u64 [a5] = t1\n 21447: u64 [a5 + 0x10] = ra\n 21450: t0 = a0\n 21452: u64 [a5 + 0x18] = a0\n 21455: u64 [s1 + 0x150] = ra\n 21459: a0 = u64 [s1 + 0x168]\n 21463: u64 [s1 + 0x198] = a0\n 21467: a5 = u64 [s1 + 0x148]\n 21471: u64 [s1 + 0x190] = a3\n 21475: a3 = a1\n 21477: jump @716\n      : @721 (gas: 8)\n 21480: a0 = u64 [s1 + 0x80]\n 21484: a1 = u64 [s1 + 0x30]\n 21487: a0 = a0 | a1\n 21490: a1 = u64 [s1 + 0x40]\n 21493: a2 = u64 [s1 + 0x28]\n 21496: a1 = a1 | a2\n 21499: a0 = a0 | a1\n 21502: jump @731 if a0 != 0\n      : @722 (gas: 5)\n 21506: u64 [s1 + 320] = 0\n 21510: u64 [s1 + 312] = 0\n 21514: u64 [s1 + 328] = 0\n 21518: u64 [s1 + 336] = 0\n 21522: jump @734\n      : @723 (gas: 12)\n 21525: t2 = u64 [s1 + 0x190]\n 21529: t1 = u64 [s1 + 0x198]\n 21533: a4 = u64 [s1 + 0x80]\n 21537: a5 = u64 [s1 + 0x110]\n 21541: a4 = a4 ^ a5\n 21544: a5 = u64 [s1 + 0x30]\n 21547: t0 = a4 | a5\n 21550: a5 = u64 [s1 + 0x40]\n 21553: a4 = u64 [s1 + 0x28]\n 21556: a5 = a5 | a4\n 21559: a4 = t0 | a5\n 21562: jump @730 if a4 == 0\n      : @724 (gas: 18)\n 21566: a4 = a1 <u t1\n 21569: a3 = a3 + a4\n 21572: t0 = a3 ^ ra\n 21575: a5 = a3 <u ra\n 21578: a5 = a4 if t0 == 0\n 21581: a5 = a5 + a2\n 21584: a4 = a5 <u a2\n 21587: a2 = a2 <u t2\n 21590: a0 = a0 + a2\n 21593: a0 = a0 + a4\n 21596: a2 = a1 | a5\n 21599: a0 = a0 | a3\n 21602: a2 = a2 | a0\n 21605: a2 = a2 >> 0x20\n 21608: a0 = a0 | a5\n 21611: a0 = a0 << 0x20\n 21614: a0 = a0 | a2\n 21617: jump @782 if a0 != 0\n      : @725 (gas: 2)\n 21621: a0 = s1 + 0x2160\n 21625: ra = 734, jump @22\n      : @726 [@dyn 367] (gas: 17)\n 21631: a0 = s1 + 0x2118\n 21635: a1 = u64 [a0 + 0x60]\n 21638: u64 [s1 + 0x190] = a1\n 21642: a1 = u64 [a0 + 0x58]\n 21645: u64 [s1 + 0x188] = a1\n 21649: a1 = u64 [a0 + 0x50]\n 21652: u64 [s1 + 0x180] = a1\n 21656: a0 = u64 [a0 + 0x48]\n 21659: u64 [s1 + 0x178] = a0\n 21663: a0 = u64 [s1 + 0x80]\n 21667: a0 = a0 << 0x3b\n 21670: a1 = a0 >> 0x38\n 21673: u64 [s1 + 0x198] = a1\n 21677: a2 = 0x80 - a1\n 21681: a0 = 0xffffffffffffffff\n 21684: a1 = 0xffffffffffffffff\n 21687: ra = 736, jump @1506\n      : @727 [@dyn 368] (gas: 6)\n 21693: u64 [s1 + 0x168] = a0\n 21697: u64 [s1 + 0x150] = a1\n 21701: a0 = 0xffffffffffffffff\n 21704: a1 = 0xffffffffffffffff\n 21707: a2 = u64 [s1 + 0x198]\n 21711: ra = 738, jump @1501\n      : @728 [@dyn 369] (gas: 10)\n 21717: u64 [s1 + 0x158] = a0\n 21721: u64 [s1 + 0x160] = a1\n 21725: a0 = u64 [s1 + 0x150]\n 21729: a0 = a0 | a1\n 21732: u64 [s1 + 0x150] = a0\n 21736: a0 = u64 [s1 + 0x198]\n 21740: a2 = a0 + 0xffffffffffffff80\n 21743: a0 = 0xffffffffffffffff\n 21746: a1 = 0xffffffffffffffff\n 21749: ra = 740, jump @1501\n      : @729 [@dyn 370] (gas: 30)\n 21755: a4 = u64 [s1 + 0x198]\n 21759: a2 = a4 <u 0x80\n 21763: a3 = u64 [s1 + 0x150]\n 21767: a1 = a3 if a2 != 0\n 21770: a5 = u64 [s1 + 0x158]\n 21774: a3 = u64 [s1 + 0x168]\n 21778: a3 = a3 | a5\n 21781: a3 = a0 if a2 == 0\n 21784: a1 = 0xffffffffffffffff if a4 == 0\n 21787: a3 = 0xffffffffffffffff if a4 == 0\n 21790: a4 = u64 [s1 + 0x160]\n 21794: a4 = 0 if a2 == 0\n 21796: a5 = 0 if a2 == 0\n 21798: a0 = u64 [s1 + 0x178]\n 21802: a0 = a0 & ~a3\n 21805: a2 = u64 [s1 + 0x180]\n 21809: a1 = a2 & ~a1\n 21812: a2 = u64 [s1 + 0x188]\n 21816: a2 = a2 & ~a5\n 21819: a3 = u64 [s1 + 0x190]\n 21823: a3 = a3 & ~a4\n 21826: a4 = s1 + 0x2918\n 21830: a5 = a4 + 0x600\n 21834: u64 [a5 + 0x20] = a3\n 21837: u64 [a5 + 0x18] = a2\n 21840: u64 [a5 + 0x10] = a1\n 21843: u64 [a5 + 0x8] = a0\n 21846: a1 = s1 + 0x2f20\n 21850: a0 = u64 [s1 + 0x170]\n 21854: ra = 742, jump @28\n      : @730 [@dyn 371] (gas: 23)\n 21860: a2 = u64 [s1 + 0x30]\n 21863: a0 = a2 >> 0x3f\n 21866: a1 = u64 [s1 + 0x28]\n 21869: a1 = a1 << 0x1\n 21872: a0 = a0 | a1\n 21875: a3 = u64 [s1 + 0x40]\n 21878: a1 = a3 >> 0x3f\n 21881: a2 = a2 << 0x1\n 21884: a1 = a1 | a2\n 21887: a4 = u64 [s1 + 0x80]\n 21891: a2 = a4 >> 0x3f\n 21894: a3 = a3 << 0x1\n 21897: a2 = a2 | a3\n 21900: a3 = a4 << 0x1\n 21903: a3 = a3 + 0x1\n 21906: a4 = s1 + 0x2918\n 21910: a5 = a4 + 0x600\n 21914: u64 [a5 + 0x28] = a3\n 21917: u64 [a5 + 0x30] = a2\n 21920: u64 [a5 + 0x38] = a1\n 21923: u64 [a5 + 0x40] = a0\n 21926: a0 = 0x2f40\n 21930: jump @738\n      : @731 (gas: 11)\n 21933: a3 = s1 + 0x100\n 21937: a0 = u64 [a3 + 0x28]\n 21940: a1 = u64 [a3 + 0x20]\n 21943: a0 = a0 | a1\n 21946: a1 = 0xffffffe0\n 21956: a2 = u64 [a3 + 0x18]\n 21959: a1 = a2 <u a1\n 21962: a2 = u64 [a3 + 0x30]\n 21965: a1 = 0 if a2 != 0\n 21967: a1 = 0 if a0 != 0\n 21969: jump @782 if a1 == 0\n      : @732 (gas: 4)\n 21973: a0 = u64 [s1 + 0x118]\n 21977: i32 a1 = a0 + 0x20\n 21980: a0 = s1 + 0x21a0\n 21984: ra = 744, jump @22\n      : @733 [@dyn 372] (gas: 11)\n 21990: a0 = s1 + 0x2118\n 21994: a1 = u64 [a0 + 0xa0]\n 21998: a2 = s1 + 0x100\n 22002: u64 [a2 + 0x50] = a1\n 22005: a1 = u64 [a0 + 0x98]\n 22009: u64 [a2 + 0x48] = a1\n 22012: a1 = u64 [a0 + 0x90]\n 22016: u64 [a2 + 0x38] = a1\n 22019: a0 = u64 [a0 + 0x88]\n 22023: u64 [a2 + 0x40] = a0\n 22026: fallthrough\n      : @734 (gas: 24)\n 22027: a2 = u64 [s1 + 0x40]\n 22030: a0 = a2 >> 0x3f\n 22033: a3 = u64 [s1 + 0x30]\n 22036: a1 = a3 << 0x1\n 22039: a0 = a0 | a1\n 22042: u64 [s1 + 0x190] = a0\n 22046: a0 = a3 >> 0x3f\n 22049: a1 = u64 [s1 + 0x28]\n 22052: a1 = a1 << 0x1\n 22055: a0 = a0 | a1\n 22058: u64 [s1 + 0x188] = a0\n 22062: a3 = u64 [s1 + 0x80]\n 22066: a0 = a3 >> 0x3f\n 22069: a1 = a2 << 0x1\n 22072: a0 = a0 | a1\n 22075: u64 [s1 + 0x180] = a0\n 22079: a0 = a3 << 0x1\n 22082: u64 [s1 + 0x178] = a0\n 22086: a1 = a3 << 0x3\n 22089: u64 [s1 + 0x198] = a1\n 22093: i32 a2 = 0x80 - a1\n 22097: a0 = 0xffffffffffffffff\n 22100: a1 = 0xffffffffffffffff\n 22103: ra = 746, jump @1506\n      : @735 [@dyn 373] (gas: 7)\n 22109: u64 [s1 + 0x158] = a0\n 22113: u64 [s1 + 0x170] = a1\n 22117: a0 = u64 [s1 + 0x80]\n 22121: i32 a2 = a0 << 0x3\n 22124: a0 = 0xffffffffffffffff\n 22127: a1 = 0xffffffffffffffff\n 22130: ra = 748, jump @1501\n      : @736 [@dyn 374] (gas: 10)\n 22136: u64 [s1 + 0x168] = a0\n 22140: u64 [s1 + 0x160] = a1\n 22144: a1 = u64 [s1 + 0x158]\n 22148: a0 = a0 | a1\n 22151: u64 [s1 + 0x158] = a0\n 22155: a0 = u64 [s1 + 0x198]\n 22159: i32 a2 = a0 + 0xffffffffffffff80\n 22162: a0 = 0xffffffffffffffff\n 22165: a1 = 0xffffffffffffffff\n 22168: ra = 750, jump @1501\n      : @737 [@dyn 375] (gas: 38)\n 22174: a4 = u64 [s1 + 0x198]\n 22178: a2 = a4 <u 0x80\n 22182: a3 = u64 [s1 + 0x158]\n 22186: a0 = a3 if a2 != 0\n 22189: a5 = u64 [s1 + 0x160]\n 22193: a3 = u64 [s1 + 0x170]\n 22197: a3 = a3 | a5\n 22200: a3 = a1 if a2 == 0\n 22203: a0 = 0xffffffffffffffff if a4 == 0\n 22206: a3 = 0xffffffffffffffff if a4 == 0\n 22209: a5 = 0 if a2 == 0\n 22211: a4 = u64 [s1 + 0x168]\n 22215: a4 = 0 if a2 == 0\n 22217: a1 = u64 [s1 + 0x138]\n 22221: a1 = a1 & ~a3\n 22224: a2 = u64 [s1 + 0x140]\n 22228: a0 = a2 & ~a0\n 22231: a2 = u64 [s1 + 0x148]\n 22235: a2 = a2 & ~a4\n 22238: a3 = u64 [s1 + 0x150]\n 22242: a3 = a3 & ~a5\n 22245: a5 = s1 + 0x100\n 22249: a4 = u64 [a5 + 0x78]\n 22252: a0 = a0 | a4\n 22255: a4 = u64 [a5 + 0x80]\n 22259: a1 = a1 | a4\n 22262: a4 = u64 [a5 + 0x88]\n 22266: a3 = a3 | a4\n 22269: a4 = u64 [a5 + 0x90]\n 22273: a2 = a2 | a4\n 22276: a4 = s1 + 0x2918\n 22280: a5 = a4 + 0x600\n 22284: u64 [a5 + 0x58] = a2\n 22287: u64 [a5 + 0x60] = a3\n 22290: u64 [a5 + 0x50] = a1\n 22293: u64 [a5 + 0x48] = a0\n 22296: a0 = 0x2f60\n 22300: fallthrough\n      : @738 (gas: 3)\n 22301: a1 = s1 + a0\n 22304: a0 = u64 [s1 + 0x38]\n 22307: ra = 752, jump @28\n      : @739 [@dyn 376] (gas: 8)\n 22313: a0 = sp + 0xffffffffffffffe0\n 22316: a5 = a0 & 0xffffffffffffffe0\n 22319: sp = a5\n 22321: a1 = u64 [s1 + 0x48]\n 22324: a0 = a1 + 0x2\n 22327: a1 = a0 <u a1\n 22330: a3 = u64 [s1 + 0x50]\n 22333: t0 = 754, jump @1477\n      : @740 [@dyn 377] (gas: 13)\n 22339: a1 = u64 [s1 + 0x60]\n 22342: a3 = a3 + a1\n 22345: a1 = a3 <u a1\n 22348: a4 = u64 [s1 + 0x58]\n 22351: a1 = a1 + a4\n 22354: u64 [s1 + 0x198] = a5\n 22358: u64 [a5 + 0x10] = a3\n 22361: u64 [a5 + 0x8] = a2\n 22364: u64 [a5] = a0\n 22366: u64 [a5 + 0x18] = a1\n 22369: a0 = s1 + 0x2140\n 22373: a1 = u64 [s1 + 0x78]\n 22376: ra = 756, jump @22\n      : @741 [@dyn 378] (gas: 7)\n 22382: a0 = s1 + 0x2118\n 22386: a0 = u64 [a0 + 0x28]\n 22389: a0 = a0 & 0xffffffffffffffff\n 22392: u64 [s1 + 0x190] = a0\n 22396: a0 = s1 + 0x2120\n 22400: a1 = u64 [s1 + 0x198]\n 22404: ra = 758, jump @26\n      : @742 [@dyn 379] (gas: 14)\n 22410: a2 = s1 + 0x2118\n 22414: a0 = u64 [a2 + 0x20]\n 22417: a1 = u64 [a2 + 0x18]\n 22420: a2 = u64 [a2 + 0x10]\n 22423: a3 = s1 + 0x2918\n 22427: a4 = u64 [s1 + 0x190]\n 22431: a5 = a3 + 0x600\n 22435: u64 [a5 + 0x68] = a4\n 22438: u64 [a5 + 0x80] = a0\n 22442: u64 [a5 + 0x78] = a1\n 22445: u64 [a5 + 0x70] = a2\n 22448: a1 = s1 + 0x2f80\n 22452: a0 = u64 [s1 + 0x198]\n 22456: ra = 760, jump @28\n      : @743 [@dyn 380] (gas: 3)\n 22462: a0 = s1 + 0x2100\n 22466: a1 = u64 [s1 + 0x20]\n 22469: ra = 762, jump @22\n      : @744 [@dyn 381] (gas: 14)\n 22475: a3 = s1 + 0x2118\n 22479: a0 = u64 [a3]\n 22481: a4 = a3 + 0xffffffffffffff00\n 22485: a1 = u64 [a4 + 0xf0]\n 22489: a2 = u64 [a4 + 0xf8]\n 22493: a3 = u64 [a4 + 0xe8]\n 22497: a0 = a0 | a1\n 22500: a2 = a2 | a3\n 22503: a0 = a0 | a2\n 22506: a0 = a0 >u 0\n 22508: u64 [s1 + 0x190] = a0\n 22512: a0 = s1 + 0x20e0\n 22516: a1 = u64 [s1 + 0x198]\n 22520: ra = 764, jump @26\n      : @745 [@dyn 382] (gas: 2)\n 22526: a0 = 0x2000\n 22530: t0 = 766, jump @1491\n      : @746 [@dyn 383] (gas: 16)\n 22536: a0 = u64 [a4 + 0xd0]\n 22540: a1 = u64 [a4 + 0xc8]\n 22544: a2 = u64 [a4 + 0xe0]\n 22548: a3 = u64 [a4 + 0xd8]\n 22552: a0 = a0 & 0xffffffffffffff00\n 22556: a4 = u64 [s1 + 0x190]\n 22560: a0 = a0 | a4\n 22563: a4 = s1 + 0x2918\n 22567: a5 = a4 + 0x600\n 22571: u64 [a5 + 0xa0] = a2\n 22575: u64 [a5 + 0x98] = a3\n 22579: u64 [a5 + 0x88] = a1\n 22583: u64 [a5 + 0x90] = a0\n 22587: a1 = s1 + 0x2fa0\n 22591: a0 = u64 [s1 + 0x198]\n 22595: ra = 768, jump @28\n      : @747 [@dyn 384] (gas: 6)\n 22601: a0 = u64 [s1 + 0xc0]\n 22605: ra = 0x302\n 22609: ecalli 4 // 'caller'\n 22611: a2 = u64 [s1 + 0xd8]\n 22615: t0 = 0x304\n 22619: jump @1426\n      : @748 [@dyn 385] (gas: 2)\n 22622: a2 = u64 [s1 + 0xd8]\n 22626: t0 = 772, jump @1426\n      : @749 [@dyn 386] (gas: 8)\n 22632: u64 [a2 + 1984] = 0\n 22636: a4 = a2 + 0x700\n 22640: u64 [a4 + 0xb8] = a1\n 22644: u64 [a4 + 0xb0] = a0\n 22648: a1 = s1 + 0x20c0\n 22652: u64 [a4 + 0xa8] = a3\n 22656: a0 = 0\n 22658: ra = 774, jump @24\n      : @750 [@dyn 387] (gas: 3)\n 22664: t0 = 0x308\n 22668: a1 = s1 + 0x1918\n 22672: fallthrough\n      : @751 [@dyn 388] (gas: 8)\n 22673: u64 [a1 + 1952] = 0\n 22677: u64 [a1 + 1944] = 0\n 22681: u64 [a1 + 1928] = 0x1\n 22686: a2 = a1\n 22688: a0 = 0x20\n 22691: a1 = s1 + 0x20a0\n 22695: u64 [a2 + 1936] = 0\n 22699: ra = 778, jump @24\n      : @752 [@dyn 389] (gas: 1)\n 22705: t0 = 780, jump @1471\n      : @753 [@dyn 390] (gas: 3)\n 22711: a2 = u64 [s1 + 0xa8]\n 22715: a0 = i32 [a2]\n 22717: jump @755 if a0 >u 63\n      : @754 (gas: 2)\n 22721: u32 [a2 + 0] = 0x40\n 22724: fallthrough\n      : @755 (gas: 11)\n 22725: a0 = sp + 0xffffffffffffffe0\n 22728: a0 = a0 & 0xffffffffffffffe0\n 22731: u64 [s1 + 0x190] = a0\n 22735: sp = a0\n 22737: i32 a2 = a0 + 0\n 22739: a1 = 0x40\n 22742: a0 = u64 [s1 + 0xa0]\n 22746: ra = 0x30e\n 22750: ecalli 8 // 'hash_keccak_256'\n 22752: t0 = 0x310\n 22756: jump @1464\n      : @756 [@dyn 391] (gas: 1)\n 22759: t0 = 784, jump @1464\n      : @757 [@dyn 392] (gas: 2)\n 22765: a4 = a3 + 0x3\n 22768: t0 = 786, jump @1441\n      : @758 [@dyn 393] (gas: 7)\n 22774: a1 = u64 [s1 + 0x198]\n 22778: u64 [a1] = a4\n 22780: u64 [a1 + 0x8] = a5\n 22783: u64 [a1 + 0x10] = a2\n 22786: u64 [a1 + 0x18] = a0\n 22789: a0 = s1 + 0x2080\n 22793: ra = 788, jump @26\n      : @759 [@dyn 394] (gas: 3)\n 22799: t0 = 0x316\n 22803: a2 = s1 + 0x1918\n 22807: fallthrough\n      : @760 [@dyn 395] (gas: 10)\n 22808: a0 = u64 [a2 + 0x768]\n 22812: a1 = u64 [s1 + 0x68]\n 22815: a0 = a0 & a1\n 22818: u64 [a2 + 1856] = 0\n 22822: u64 [a2 + 1848] = 0\n 22826: u64 [a2 + 0x728] = a0\n 22830: a0 = s1 + 0x2060\n 22834: a1 = s1 + 0x2040\n 22838: u64 [a2 + 1840] = 0\n 22842: ra = 792, jump @1297\n      : @761 [@dyn 396] (gas: 13)\n 22848: a0 = s1 + 0x1918\n 22852: a2 = a0 + 0x700\n 22856: a1 = u64 [a2 + 0x60]\n 22859: u64 [s1 + 0x190] = a1\n 22863: a1 = u64 [a2 + 0x58]\n 22866: u64 [s1 + 0x188] = a1\n 22870: a1 = u64 [a2 + 0x50]\n 22873: u64 [s1 + 0x180] = a1\n 22877: a1 = u64 [a2 + 0x48]\n 22880: u64 [s1 + 0x178] = a1\n 22884: a0 = s1 + 0x2020\n 22888: a1 = u64 [s1 + 0x198]\n 22892: ra = 794, jump @26\n      : @762 [@dyn 397] (gas: 2)\n 22898: a0 = 0x2000\n 22902: t0 = 796, jump @1491\n      : @763 [@dyn 398] (gas: 26)\n 22908: a0 = u64 [a4 + 0x20]\n 22911: a1 = u64 [a4 + 0x18]\n 22914: a2 = u64 [a4 + 0x10]\n 22917: a3 = u64 [a4 + 0x8]\n 22920: a0 = a0 & 0xffffffffffffffff\n 22923: a1 = a1 & 0xffffffffffffffff\n 22926: a2 = a2 & 0xffffffffffffffff\n 22929: a4 = u64 [s1 + 0x70]\n 22932: a3 = a3 & a4\n 22935: a4 = u64 [s1 + 0x178]\n 22939: a3 = a3 | a4\n 22942: a4 = u64 [s1 + 0x180]\n 22946: a2 = a2 | a4\n 22949: a4 = u64 [s1 + 0x188]\n 22953: a1 = a1 | a4\n 22956: a4 = u64 [s1 + 0x190]\n 22960: a0 = a0 | a4\n 22963: a4 = s1 + 0x2918\n 22967: a5 = a4 + 0x600\n 22971: u64 [a5 + 0xc0] = a0\n 22975: u64 [a5 + 0xb8] = a1\n 22979: u64 [a5 + 0xb0] = a2\n 22983: u64 [a5 + 0xa8] = a3\n 22987: a1 = s1 + 0x2fc0\n 22991: a0 = u64 [s1 + 0x198]\n 22995: ra = 798, jump @28\n      : @764 [@dyn 399] (gas: 3)\n 23001: a0 = s1 + 0x2000\n 23005: a1 = 0x40\n 23008: ra = 800, jump @22\n      : @765 [@dyn 400] (gas: 3)\n 23014: t0 = 0x322\n 23018: a2 = s1 + 0x1918\n 23022: fallthrough\n      : @766 [@dyn 401] (gas: 18)\n 23023: a3 = u64 [a2 + 0x700]\n 23027: a5 = a2 + 0x600\n 23031: a4 = u64 [a5 + 0xf8]\n 23035: a0 = u64 [a5 + 0xf0]\n 23039: a1 = u64 [a5 + 0xe8]\n 23043: a5 = s1 + 0x100\n 23047: u64 [a5 + 0x90] = a0\n 23051: u64 [a5 + 0x80] = a3\n 23055: a0 = a0 | a3\n 23058: u64 [a5 + 0x98] = a1\n 23062: a1 = a1 | a4\n 23065: a1 = a1 | a0\n 23068: a1 = a1 >> 0x20\n 23071: u64 [a5 + 0x88] = a4\n 23075: a0 = a0 | a4\n 23078: a0 = a0 << 0x20\n 23081: a0 = a0 | a1\n 23084: jump @782 if a0 != 0\n      : @767 (gas: 7)\n 23088: u64 [a2 + 1760] = 0\n 23092: u64 [a2 + 1752] = 0\n 23096: u64 [a2 + 1744] = 0\n 23100: a1 = s1 + 0x1fe0\n 23104: u64 [a2 + 1736] = 0x20\n 23109: a0 = u64 [s1 + 0x198]\n 23113: ra = 804, jump @24\n      : @768 [@dyn 402] (gas: 14)\n 23119: a3 = s1 + 0x100\n 23123: a0 = u64 [a3 + 0x80]\n 23127: a1 = u64 [a3 + 0x88]\n 23131: a1 = a1 | a0\n 23134: a0 = 0x100000000\n 23144: u64 [a3 + 0x78] = a0\n 23147: a0 = 0xffffffe0\n 23157: a2 = u64 [a3 + 0x98]\n 23161: a0 = a2 <u a0\n 23164: a2 = u64 [a3 + 0x90]\n 23168: a0 = 0 if a2 != 0\n 23170: u64 [a3 + 0x70] = a1\n 23173: a0 = 0 if a1 != 0\n 23175: jump @782 if a0 == 0\n      : @769 (gas: 14)\n 23179: a0 = u64 [s1 + 0x198]\n 23183: i32 a0 = a0 + 0x20\n 23186: a2 = s1 + 0x1918\n 23190: a1 = u64 [s1 + 0xb8]\n 23194: a4 = a2 + 0x600\n 23198: u64 [a4 + 0xa8] = a1\n 23202: a1 = u64 [s1 + 0xe0]\n 23206: u64 [a4 + 0xb0] = a1\n 23210: a1 = u64 [s1 + 0xe8]\n 23214: u64 [a4 + 0xb8] = a1\n 23218: a1 = s1 + 0x1fc0\n 23222: a3 = u64 [s1 + 0xb0]\n 23226: u64 [a4 + 0xc0] = a3\n 23230: ra = 806, jump @24\n      : @770 [@dyn 403] (gas: 9)\n 23236: a0 = u64 [s1 + 0x178]\n 23240: a0 = a0 + 0xffffffffffffffdc\n 23243: a1 = u64 [s1 + 0xc8]\n 23247: a0 = a1 <u a0\n 23250: a1 = u64 [s1 + 0xd0]\n 23254: a0 = 0 if a1 != 0\n 23256: a1 = u64 [s1 + 0x98]\n 23260: a0 = 0 if a1 != 0\n 23262: jump @782 if a0 == 0\n      : @771 (gas: 10)\n 23266: a1 = 0xffffffc0\n 23276: a2 = s1 + 0x100\n 23280: a0 = u64 [a2 + 0x98]\n 23284: u64 [a2 + 0x78] = a1\n 23287: a0 = a0 <u a1\n 23290: a1 = u64 [a2 + 0x90]\n 23294: a0 = 0 if a1 != 0\n 23296: a1 = u64 [a2 + 0x70]\n 23299: a0 = 0 if a1 != 0\n 23301: jump @782 if a0 == 0\n      : @772 (gas: 4)\n 23305: a0 = u64 [s1 + 0x198]\n 23309: i32 a0 = a0 + 0x40\n 23312: a1 = u64 [s1 + 0x90]\n 23316: ra = 808, jump @37\n      : @773 [@dyn 404] (gas: 5)\n 23322: i32 a0 = a0 + 0\n 23324: a1 = u64 [s1 + 0x90]\n 23328: a2 = u64 [s1 + 0x88]\n 23332: ecalli 1 // 'call_data_copy'\n 23334: fallthrough\n      : @774 (gas: 28)\n 23335: a1 = u64 [s1 + 0xb8]\n 23339: a0 = u64 [s1 + 0x198]\n 23343: a0 = a0 + a1\n 23346: a1 = a0 <u a1\n 23349: a4 = u64 [s1 + 0xe0]\n 23353: a2 = u64 [s1 + 0x190]\n 23357: a2 = a2 + a4\n 23360: a2 = a2 + a1\n 23363: a3 = a2 ^ a4\n 23366: a4 = a2 <u a4\n 23369: a4 = a1 if a3 == 0\n 23372: a1 = u64 [s1 + 0xb0]\n 23376: a3 = u64 [s1 + 0x180]\n 23380: a1 = a1 + a3\n 23383: a5 = u64 [s1 + 0xe8]\n 23387: a3 = u64 [s1 + 0x188]\n 23391: a3 = a3 + a5\n 23394: a5 = a3 <u a5\n 23397: a1 = a1 + a5\n 23400: a4 = a4 + a3\n 23403: a3 = a4 <u a3\n 23406: a1 = a1 + a3\n 23409: a1 = a1 | a4\n 23412: a3 = u64 [s1 + 0x178]\n 23416: a3 = a0 <u a3\n 23419: a3 = 0 if a2 != 0\n 23421: a3 = 0 if a1 != 0\n 23423: jump @782 if a3 == 0\n      : @775 (gas: 8)\n 23427: i32 a0 = a0 + 0x40\n 23430: a2 = s1 + 0x1918\n 23434: u64 [a2 + 1696] = 0\n 23438: u64 [a2 + 1688] = 0\n 23442: u64 [a2 + 1680] = 0\n 23446: a1 = s1 + 0x1fa0\n 23450: u64 [a2 + 1672] = 0\n 23454: ra = 810, jump @24\n      : @776 [@dyn 405] (gas: 6)\n 23460: a0 = u64 [s1 + 0xc0]\n 23464: ra = 0x32c\n 23468: ecalli 4 // 'caller'\n 23470: a2 = u64 [s1 + 0xd8]\n 23474: t0 = 0x32e\n 23478: jump @1430\n      : @777 [@dyn 406] (gas: 2)\n 23481: a2 = u64 [s1 + 0xd8]\n 23485: t0 = 814, jump @1430\n      : @778 [@dyn 407] (gas: 39)\n 23491: t0 = a1 | a0\n 23494: a3 = a3 >> 0x20\n 23497: a1 = reverse a2\n 23499: a2 = a1 << 0x20\n 23502: t1 = a2 | a3\n 23505: t2 = a1 >> 0x20\n 23508: a1 = u64 [s1 + 0xb8]\n 23512: a1 = a1 + 0x1f\n 23515: a1 = a1 & 0xe0\n 23519: a1 = a1 + 0x40\n 23522: a4 = u64 [0x20020]\n 23527: a5 = u64 [0x20028]\n 23532: a0 = u64 [0x20030]\n 23537: a2 = u64 [0x20038]\n 23542: a3 = s1 + 0x1918\n 23546: u64 [a3 + 0x680] = a4\n 23550: a4 = a3 + 0x600\n 23554: u64 [a4 + 0x78] = a5\n 23557: u64 [a4 + 0x70] = a0\n 23560: u64 [a4 + 0x68] = a2\n 23563: a5 = s1 + 0x100\n 23567: a0 = u64 [a5 + 0x8]\n 23570: u64 [a4 + 0x40] = a0\n 23573: a0 = u64 [a5]\n 23575: u64 [a4 + 0x38] = a0\n 23578: a0 = u64 [s1 + 0xf8]\n 23582: u64 [a4 + 0x30] = a0\n 23585: a0 = u64 [s1 + 0xf0]\n 23589: u64 [a4 + 0x28] = a0\n 23592: u64 [a3 + 0x658] = t2\n 23596: u64 [a3 + 0x650] = t1\n 23600: u64 [a3 + 0x648] = t0\n 23604: a0 = a3\n 23606: a2 = s1 + 0x1f80\n 23610: a3 = s1 + 0x1f60\n 23614: a4 = s1 + 0x1f40\n 23618: u64 [a0 + 1632] = 0\n 23622: a0 = u64 [a5 + 0x98]\n 23626: ra = 816, jump @31\n      : @779 [@dyn 408] (gas: 3)\n 23632: a0 = s1 + 0x1f20\n 23636: a1 = 0x40\n 23639: ra = 818, jump @22\n      : @780 [@dyn 409] (gas: 3)\n 23645: a3 = s1 + 0x1918\n 23649: a5 = a3 + 0x600\n 23653: t0 = 820, jump @1475\n      : @781 [@dyn 410] (gas: 1)\n 23659: jump @894 if a0 == 0\n      : @782 (gas: 1)\n 23663: trap\n      : @783 (gas: 12)\n 23664: a0 = s1 + 0x7ff\n 23668: a0 = a0 + 0x119\n 23672: u64 [a0 + 856] = 0\n 23676: u64 [a0 + 848] = 0\n 23680: u64 [a0 + 840] = 0\n 23684: a2 = a0\n 23686: a0 = 0x4e487b7100000000\n 23696: a1 = s1 + 0x7ff\n 23700: a1 = a1 + 0x461\n 23704: u64 [a2 + 0x360] = a0\n 23708: a0 = 0\n 23710: ra = 822, jump @24\n      : @784 [@dyn 411] (gas: 11)\n 23716: a1 = s1 + 0x7ff\n 23720: a1 = a1 + 0x119\n 23724: u64 [a1 + 832] = 0\n 23728: u64 [a1 + 824] = 0\n 23732: u64 [a1 + 808] = 0x11\n 23737: a2 = a1\n 23739: a0 = 0x4\n 23742: a1 = s1 + 0x7ff\n 23746: a1 = a1 + 0x441\n 23750: u64 [a2 + 816] = 0\n 23754: ra = 824, jump @24\n      : @785 [@dyn 412] (gas: 3)\n 23760: a0 = u64 [s1 + 0x170]\n 23764: a0 = i32 [a0]\n 23766: jump @787 if a0 >u 63\n      : @786 (gas: 3)\n 23770: a1 = u64 [s1 + 0x170]\n 23774: u32 [a1 + 0] = 0x40\n 23777: fallthrough\n      : @787 (gas: 5)\n 23778: a0 = 0x1\n 23781: a2 = 0x24\n 23784: a1 = u64 [s1 + 0x178]\n 23788: ecalli 13 // 'seal_return'\n 23790: fallthrough\n      : @788 (gas: 4)\n 23791: a1 = 0x20190\n 23796: i32 a1 = a1 + 0\n 23798: a0 = 0x1\n 23801: jump @968\n      : @789 (gas: 4)\n 23804: a1 = 0x20190\n 23809: i32 a1 = a1 + 0\n 23811: a0 = 0x1\n 23814: jump @968\n      : @790 (gas: 4)\n 23817: a1 = 0x20190\n 23822: i32 a1 = a1 + 0\n 23824: a0 = 0x1\n 23827: jump @968\n      : @791 (gas: 4)\n 23830: a1 = 0x20190\n 23835: i32 a1 = a1 + 0\n 23837: a0 = 0x1\n 23840: jump @968\n      : @792 (gas: 4)\n 23843: a1 = 0x20190\n 23848: i32 a1 = a1 + 0\n 23850: a0 = 0x1\n 23853: jump @968\n      : @793 (gas: 4)\n 23856: a1 = 0x20190\n 23861: i32 a1 = a1 + 0\n 23863: a0 = 0x1\n 23866: jump @968\n      : @794 (gas: 9)\n 23869: a2 = s1 + 0x1118\n 23873: u64 [a2 + 184] = 0\n 23877: u64 [a2 + 176] = 0\n 23881: a0 = 0x2c5211c600000000\n 23891: u64 [a2 + 0xc0] = a0\n 23895: a1 = s1 + 0x11c0\n 23899: u64 [a2 + 168] = 0\n 23903: a0 = 0\n 23905: ra = 826, jump @24\n      : @795 [@dyn 413] (gas: 2)\n 23911: a1 = i32 [0x20180]\n 23916: jump @797 if a1 >u 31\n      : @796 (gas: 3)\n 23920: u32 [0x20180] = 0x20\n 23926: a1 = 0x20190\n 23931: jump @865\n      : @797 (gas: 2)\n 23934: a1 = 0x20190\n 23939: jump @865\n      : @798 (gas: 8)\n 23942: u64 [a4 + 216] = 0\n 23946: u64 [a4 + 208] = 0\n 23950: a0 = 0xf4d678b800000000\n 23960: u64 [a4 + 0xe0] = a0\n 23964: a1 = s1 + 0x11e0\n 23968: u64 [a4 + 200] = 0\n 23972: a0 = 0\n 23974: ra = 828, jump @24\n      : @799 [@dyn 414] (gas: 3)\n 23980: a0 = u64 [s1 + 0x148]\n 23984: a0 = i32 [a0]\n 23986: jump @801 if a0 >u 31\n      : @800 (gas: 3)\n 23990: a1 = u64 [s1 + 0x148]\n 23994: u32 [a1 + 0] = 0x20\n 23997: fallthrough\n      : @801 (gas: 5)\n 23998: a0 = 0x1\n 24001: a2 = 0x4\n 24004: a1 = u64 [s1 + 0x158]\n 24008: ecalli 13 // 'seal_return'\n 24010: fallthrough\n      : @802 (gas: 4)\n 24011: a1 = 0x20190\n 24016: i32 a1 = a1 + 0\n 24018: a0 = 0x1\n 24021: jump @968\n      : @803 (gas: 4)\n 24024: a1 = 0x20190\n 24029: i32 a1 = a1 + 0\n 24031: a0 = 0x1\n 24034: jump @968\n      : @804 (gas: 8)\n 24037: u64 [s1 + 1040] = 0\n 24041: u64 [s1 + 1032] = 0\n 24045: u64 [s1 + 1024] = 0\n 24049: a0 = 0x2c5211c600000000\n 24059: a1 = s1 + 0x400\n 24063: u64 [s1 + 0x418] = a0\n 24067: a0 = 0\n 24069: ra = 830, jump @24\n      : @805 [@dyn 415] (gas: 2)\n 24075: a1 = i32 [0x20180]\n 24080: jump @807 if a1 >u 31\n      : @806 (gas: 3)\n 24084: u32 [0x20180] = 0x20\n 24090: a1 = 0x20190\n 24095: jump @865\n      : @807 (gas: 2)\n 24098: a1 = 0x20190\n 24103: jump @865\n      : @808 (gas: 9)\n 24106: u64 [s1 + 1072] = 0\n 24110: u64 [s1 + 1064] = 0\n 24114: u64 [s1 + 1056] = 0\n 24118: a0 = 0xf4d678b800000000\n 24128: a1 = s1 + 0x420\n 24132: u64 [s1 + 0x438] = a0\n 24136: a0 = 0\n 24138: ra = 0x342\n 24142: jump @24\n      : @809 (gas: 9)\n 24145: u64 [s1 + 1232] = 0\n 24149: u64 [s1 + 1224] = 0\n 24153: u64 [s1 + 1216] = 0\n 24157: a0 = 0x90b8ec1800000000\n 24167: a1 = s1 + 0x4c0\n 24171: u64 [s1 + 0x4d8] = a0\n 24175: a0 = 0\n 24177: ra = 0x342\n 24181: jump @24\n      : @810 (gas: 4)\n 24184: a1 = 0x20190\n 24189: i32 a1 = a1 + 0\n 24191: a0 = 0x1\n 24194: jump @968\n      : @811 (gas: 4)\n 24197: a1 = 0x20190\n 24202: i32 a1 = a1 + 0\n 24204: a0 = 0x1\n 24207: jump @968\n      : @812 (gas: 4)\n 24210: a1 = 0x20190\n 24215: i32 a1 = a1 + 0\n 24217: a0 = 0x1\n 24220: jump @968\n      : @813 (gas: 4)\n 24223: a1 = 0x20190\n 24228: i32 a1 = a1 + 0\n 24230: a0 = 0x1\n 24233: jump @968\n      : @814 (gas: 8)\n 24236: u64 [s1 + 1488] = 0\n 24240: u64 [s1 + 1480] = 0\n 24244: u64 [s1 + 1472] = 0\n 24248: a0 = 0x2c5211c600000000\n 24258: a1 = s1 + 0x5c0\n 24262: u64 [s1 + 0x5d8] = a0\n 24266: a0 = 0\n 24268: ra = 832, jump @24\n      : @815 [@dyn 416] (gas: 2)\n 24274: a1 = i32 [0x20180]\n 24279: jump @817 if a1 >u 31\n      : @816 (gas: 3)\n 24283: u32 [0x20180] = 0x20\n 24289: a1 = 0x20190\n 24294: jump @865\n      : @817 (gas: 2)\n 24297: a1 = 0x20190\n 24302: jump @865\n      : @818 (gas: 9)\n 24305: u64 [s1 + 1520] = 0\n 24309: u64 [s1 + 1512] = 0\n 24313: u64 [s1 + 1504] = 0\n 24317: a0 = 0xf4d678b800000000\n 24327: a1 = s1 + 0x5e0\n 24331: u64 [s1 + 0x5f8] = a0\n 24335: a0 = 0\n 24337: ra = 0x342\n 24341: jump @24\n      : @819 (gas: 8)\n 24344: u64 [s1 + 1680] = 0\n 24348: u64 [s1 + 1672] = 0\n 24352: u64 [s1 + 1664] = 0\n 24356: a0 = 0x90b8ec1800000000\n 24366: a1 = s1 + 0x680\n 24370: u64 [s1 + 0x698] = a0\n 24374: a0 = 0\n 24376: ra = 834, jump @24\n      : @820 [@dyn 417] (gas: 3)\n 24382: a0 = u64 [s1 + 0x140]\n 24386: a0 = i32 [a0]\n 24388: jump @822 if a0 >u 31\n      : @821 (gas: 3)\n 24392: a1 = u64 [s1 + 0x140]\n 24396: u32 [a1 + 0] = 0x20\n 24399: fallthrough\n      : @822 (gas: 5)\n 24400: a0 = 0x1\n 24403: a2 = 0x4\n 24406: a1 = u64 [s1 + 0x148]\n 24410: ecalli 13 // 'seal_return'\n 24412: fallthrough\n      : @823 (gas: 4)\n 24413: a1 = 0x20190\n 24418: i32 a1 = a1 + 0\n 24420: a0 = 0x1\n 24423: jump @968\n      : @824 (gas: 4)\n 24426: a1 = 0x20190\n 24431: i32 a1 = a1 + 0\n 24433: a0 = 0x1\n 24436: jump @968\n      : @825 (gas: 4)\n 24439: a1 = 0x20190\n 24444: i32 a1 = a1 + 0\n 24446: a0 = 0x1\n 24449: jump @968\n      : @826 (gas: 4)\n 24452: a1 = 0x20190\n 24457: i32 a1 = a1 + 0\n 24459: a0 = 0x1\n 24462: jump @968\n      : @827 (gas: 4)\n 24465: a1 = 0x20190\n 24470: i32 a1 = a1 + 0\n 24472: a0 = 0x1\n 24475: jump @968\n      : @828 (gas: 4)\n 24478: a1 = 0x20190\n 24483: i32 a1 = a1 + 0\n 24485: a0 = 0x1\n 24488: jump @968\n      : @829 (gas: 4)\n 24491: a1 = 0x20190\n 24496: i32 a1 = a1 + 0\n 24498: a0 = 0x1\n 24501: jump @968\n      : @830 (gas: 4)\n 24504: a1 = 0x20190\n 24509: i32 a1 = a1 + 0\n 24511: a0 = 0x1\n 24514: jump @968\n      : @831 (gas: 4)\n 24517: a1 = 0x20190\n 24522: i32 a1 = a1 + 0\n 24524: a0 = 0x1\n 24527: jump @968\n      : @832 (gas: 4)\n 24530: a1 = 0x20190\n 24535: i32 a1 = a1 + 0\n 24537: a0 = 0x1\n 24540: jump @968\n      : @833 (gas: 4)\n 24543: a1 = 0x20190\n 24548: i32 a1 = a1 + 0\n 24550: a0 = 0x1\n 24553: jump @968\n      : @834 (gas: 4)\n 24556: a1 = 0x20190\n 24561: i32 a1 = a1 + 0\n 24563: a0 = 0x1\n 24566: jump @968\n      : @835 (gas: 4)\n 24569: a1 = 0x20190\n 24574: i32 a1 = a1 + 0\n 24576: a0 = 0x1\n 24579: jump @968\n      : @836 (gas: 3)\n 24582: t0 = 0x344\n 24586: a2 = s1 + 0x1918\n 24590: fallthrough\n      : @837 [@dyn 418] (gas: 8)\n 24591: u64 [a2 + 1304] = 0\n 24595: u64 [a2 + 1296] = 0\n 24599: a0 = 0xbe29e9600000000\n 24609: u64 [a2 + 0x520] = a0\n 24613: a1 = s1 + 0x1e20\n 24617: u64 [a2 + 1288] = 0\n 24621: a0 = 0\n 24623: ra = 838, jump @24\n      : @838 [@dyn 419] (gas: 2)\n 24629: a1 = i32 [0x20180]\n 24634: jump @840 if a1 >u 31\n      : @839 (gas: 3)\n 24638: u32 [0x20180] = 0x20\n 24644: a1 = 0x20190\n 24649: jump @865\n      : @840 (gas: 2)\n 24652: a1 = 0x20190\n 24657: jump @865\n      : @841 (gas: 3)\n 24660: t0 = 0x348\n 24664: a2 = s1 + 0x1918\n 24668: fallthrough\n      : @842 [@dyn 420] (gas: 8)\n 24669: u64 [a2 + 1336] = 0\n 24673: u64 [a2 + 1328] = 0\n 24677: a0 = 0xcc67c13b00000000\n 24687: u64 [a2 + 0x540] = a0\n 24691: a1 = s1 + 0x1e40\n 24695: u64 [a2 + 1320] = 0\n 24699: a0 = 0\n 24701: ra = 842, jump @24\n      : @843 [@dyn 421] (gas: 2)\n 24707: a1 = i32 [0x20180]\n 24712: jump @845 if a1 >u 31\n      : @844 (gas: 3)\n 24716: u32 [0x20180] = 0x20\n 24722: a1 = 0x20190\n 24727: jump @865\n      : @845 (gas: 2)\n 24730: a1 = 0x20190\n 24735: jump @865\n      : @846 (gas: 4)\n 24738: a1 = 0x20190\n 24743: i32 a1 = a1 + 0\n 24745: a0 = 0x1\n 24748: jump @968\n      : @847 (gas: 9)\n 24751: a2 = s1 + 0x2118\n 24755: u64 [a2 + 1368] = 0\n 24759: u64 [a2 + 1360] = 0\n 24763: a0 = 0x2c5211c600000000\n 24773: u64 [a2 + 0x560] = a0\n 24777: a1 = s1 + 0x2660\n 24781: u64 [a2 + 1352] = 0\n 24785: a0 = 0\n 24787: ra = 844, jump @24\n      : @848 [@dyn 422] (gas: 2)\n 24793: a1 = i32 [0x20180]\n 24798: jump @850 if a1 >u 31\n      : @849 (gas: 3)\n 24802: u32 [0x20180] = 0x20\n 24808: a1 = 0x20190\n 24813: jump @865\n      : @850 (gas: 2)\n 24816: a1 = 0x20190\n 24821: jump @865\n      : @851 (gas: 4)\n 24824: a1 = 0x20190\n 24829: i32 a1 = a1 + 0\n 24831: a0 = 0x1\n 24834: jump @968\n      : @852 (gas: 4)\n 24837: a1 = 0x20190\n 24842: i32 a1 = a1 + 0\n 24844: a0 = 0x1\n 24847: jump @968\n      : @853 (gas: 4)\n 24850: a1 = 0x20190\n 24855: i32 a1 = a1 + 0\n 24857: a0 = 0x1\n 24860: jump @968\n      : @854 (gas: 1)\n 24863: jump @873 if a0 != 2618616686\n      : @855 (gas: 11)\n 24871: a0 = s1 + 0x2918\n 24875: u64 [a0 + 1024] = 0\n 24879: u64 [a0 + 1016] = 0\n 24883: u64 [a0 + 1008] = 0\n 24887: u64 [a0 + 1000] = 0\n 24891: a0 = s1 + 0x3000\n 24895: i32 a0 = a0 + 0xfffffffffffffd00\n 24899: ra = 0x34e\n 24903: ecalli 16 // 'value_transferred'\n 24905: t0 = 0x350\n 24909: jump @1492\n      : @856 [@dyn 423] (gas: 1)\n 24912: t0 = 848, jump @1492\n      : @857 [@dyn 424] (gas: 8)\n 24918: a0 = u64 [a4 + 0xf8]\n 24922: a1 = u64 [a3 + 0x400]\n 24926: a2 = u64 [a4 + 0xf0]\n 24930: a3 = u64 [a4 + 0xe8]\n 24934: a1 = a1 | a2\n 24937: a0 = a0 | a3\n 24940: a0 = a0 | a1\n 24943: jump @895 if a0 == 0\n      : @858 (gas: 4)\n 24947: a1 = 0x20190\n 24952: i32 a1 = a1 + 0\n 24954: a0 = 0x1\n 24957: jump @968\n      : @859 (gas: 4)\n 24960: a1 = 0x20190\n 24965: i32 a1 = a1 + 0\n 24967: a0 = 0x1\n 24970: jump @968\n      : @860 (gas: 4)\n 24973: a1 = 0x20190\n 24978: i32 a1 = a1 + 0\n 24980: a0 = 0x1\n 24983: jump @968\n      : @861 (gas: 11)\n 24986: a2 = s1 + 0x7ff\n 24990: a2 = a2 + 0x119\n 24994: u64 [a2 + 1624] = 0\n 24998: u64 [a2 + 1616] = 0\n 25002: a0 = 0xd5b25b6300000000\n 25012: u64 [a2 + 0x660] = a0\n 25016: a1 = s1 + 0x7ff\n 25020: a1 = a1 + 0x761\n 25024: u64 [a2 + 1608] = 0\n 25028: a0 = 0\n 25030: ra = 850, jump @24\n      : @862 [@dyn 425] (gas: 2)\n 25036: a1 = i32 [0x20180]\n 25041: jump @864 if a1 >u 31\n      : @863 (gas: 3)\n 25045: u32 [0x20180] = 0x20\n 25051: a1 = 0x20190\n 25056: jump @865\n      : @864 (gas: 2)\n 25058: a1 = 0x20190\n 25063: fallthrough\n      : @865 (gas: 6)\n 25064: i32 a1 = a1 + 0\n 25066: a0 = 0x1\n 25069: a2 = 0x4\n 25072: ra = 0x354\n 25076: ecalli 13 // 'seal_return'\n 25078: fallthrough\n      : @866 [@dyn 426] (gas: 5)\n 25079: a0 = s1 + 0x1918\n 25083: u64 [a0 + 1400] = 0\n 25087: u64 [a0 + 1392] = 0\n 25091: u64 [a0 + 1384] = 0\n 25095: t0 = 854, jump @1498\n      : @867 [@dyn 427] (gas: 5)\n 25101: i32 a1 = a1 + 0xfffffffffffffe80\n 25105: a1 = a1 + s1\n 25108: u64 [a2 + 0x580] = a0\n 25112: a0 = 0\n 25114: ra = 856, jump @24\n      : @868 [@dyn 428] (gas: 3)\n 25120: t0 = 0x35a\n 25124: a1 = s1 + 0x1918\n 25128: fallthrough\n      : @869 [@dyn 429] (gas: 8)\n 25129: u64 [a1 + 1376] = 0\n 25133: u64 [a1 + 1368] = 0\n 25137: u64 [a1 + 1352] = 0x41\n 25142: a2 = a1\n 25144: a0 = 0x4\n 25147: a1 = s1 + 0x1e60\n 25151: u64 [a2 + 1360] = 0\n 25155: ra = 860, jump @24\n      : @870 [@dyn 430] (gas: 3)\n 25161: a0 = u64 [s1 + 0xa8]\n 25165: a0 = i32 [a0]\n 25167: jump @872 if a0 >u 63\n      : @871 (gas: 3)\n 25171: a1 = u64 [s1 + 0xa8]\n 25175: u32 [a1 + 0] = 0x40\n 25178: fallthrough\n      : @872 (gas: 5)\n 25179: a0 = 0x1\n 25182: a2 = 0x24\n 25185: a1 = u64 [s1 + 0xa0]\n 25189: ecalli 13 // 'seal_return'\n 25191: fallthrough\n      : @873 (gas: 1)\n 25192: jump @879 if a0 != 2685688103\n      : @874 (gas: 11)\n 25199: a0 = s1 + 0x2918\n 25203: u64 [a0 + 1056] = 0\n 25207: u64 [a0 + 1048] = 0\n 25211: u64 [a0 + 1040] = 0\n 25215: u64 [a0 + 1032] = 0\n 25219: a0 = s1 + 0x3000\n 25223: i32 a0 = a0 + 0xfffffffffffffd20\n 25227: ra = 0x35e\n 25231: ecalli 16 // 'value_transferred'\n 25233: t0 = 0x360\n 25237: jump @1493\n      : @875 [@dyn 431] (gas: 1)\n 25240: t0 = 864, jump @1493\n      : @876 [@dyn 432] (gas: 1)\n 25246: t0 = 866, jump @1489\n      : @877 [@dyn 433] (gas: 1)\n 25252: jump @897 if a0 == 0\n      : @878 (gas: 4)\n 25256: a1 = 0x20190\n 25261: i32 a1 = a1 + 0\n 25263: a0 = 0x1\n 25266: jump @968\n      : @879 (gas: 1)\n 25269: jump @899 if a0 != 3058722618\n      : @880 (gas: 11)\n 25277: a0 = s1 + 0x2918\n 25281: u64 [a0 + 1184] = 0\n 25285: u64 [a0 + 1176] = 0\n 25289: u64 [a0 + 1168] = 0\n 25293: u64 [a0 + 1160] = 0\n 25297: a0 = s1 + 0x3000\n 25301: i32 a0 = a0 + 0xfffffffffffffda0\n 25305: ra = 0x364\n 25309: ecalli 16 // 'value_transferred'\n 25311: t0 = 0x366\n 25315: jump @1493\n      : @881 [@dyn 434] (gas: 1)\n 25318: t0 = 870, jump @1493\n      : @882 [@dyn 435] (gas: 8)\n 25324: a0 = u64 [a4 + 0x98]\n 25328: a1 = u64 [a4 + 0xa0]\n 25332: a2 = u64 [a4 + 0x90]\n 25336: a3 = u64 [a4 + 0x88]\n 25340: a1 = a1 | a2\n 25343: a0 = a0 | a3\n 25346: a0 = a0 | a1\n 25349: jump @903 if a0 == 0\n      : @883 (gas: 4)\n 25353: a1 = 0x20190\n 25358: i32 a1 = a1 + 0\n 25360: a0 = 0x1\n 25363: jump @968\n      : @884 (gas: 2)\n 25366: u64 [s1 + 344] = 0\n 25370: fallthrough\n      : @885 (gas: 5)\n 25371: a0 = u64 [s1 + 0x168]\n 25375: a0 = a0 << 0x1\n 25378: a4 = u64 [s1 + 0x158]\n 25382: a4 = a4 | a0\n 25385: fallthrough\n      : @886 (gas: 7)\n 25386: u64 [s1 + 984] = 0\n 25390: u64 [s1 + 976] = 0\n 25394: u64 [s1 + 968] = 0\n 25398: a1 = s1 + 0x3c0\n 25402: u64 [s1 + 0x3c0] = a4\n 25406: a0 = u64 [s1 + 0x118]\n 25410: ra = 872, jump @24\n      : @887 [@dyn 436] (gas: 3)\n 25416: a1 = 0x20\n 25419: a0 = u64 [s1 + 0x118]\n 25423: ra = 874, jump @37\n      : @888 [@dyn 437] (gas: 6)\n 25429: i32 a1 = a0 + 0\n 25431: a2 = 0x20\n 25434: a0 = 0\n 25436: ra = 0x36c\n 25440: ecalli 13 // 'seal_return'\n 25442: jump @890\n      : @889 (gas: 5)\n 25444: a2 = 0x20\n 25447: a0 = 0\n 25449: ra = 0x36c\n 25453: ecalli 13 // 'seal_return'\n 25455: fallthrough\n      : @890 [@dyn 438] (gas: 5)\n 25456: a0 = s1 + 0x1918\n 25460: u64 [a0 + 1464] = 0\n 25464: u64 [a0 + 1456] = 0\n 25468: u64 [a0 + 1448] = 0\n 25472: t0 = 878, jump @1498\n      : @891 [@dyn 439] (gas: 5)\n 25478: i32 a1 = a1 + 0xfffffffffffffec0\n 25482: a1 = a1 + s1\n 25485: u64 [a2 + 0x5c0] = a0\n 25489: a0 = 0\n 25491: ra = 880, jump @24\n      : @892 [@dyn 440] (gas: 3)\n 25497: t0 = 0x372\n 25501: a1 = s1 + 0x1918\n 25505: fallthrough\n      : @893 [@dyn 441] (gas: 9)\n 25506: u64 [a1 + 1440] = 0\n 25510: u64 [a1 + 1432] = 0\n 25514: u64 [a1 + 1416] = 0x41\n 25519: a2 = a1\n 25521: a0 = 0x4\n 25524: a1 = s1 + 0x1ea0\n 25528: u64 [a2 + 1424] = 0\n 25532: ra = 0x35c\n 25536: jump @24\n      : @894 (gas: 17)\n 25539: a3 = a4\n 25541: a0 = s1 + 0x1918\n 25545: a1 = u64 [s1 + 0xf0]\n 25549: a2 = a0 + 0x500\n 25553: u64 [a2 + 0xe8] = a1\n 25557: a1 = u64 [s1 + 0xf8]\n 25561: u64 [a2 + 0xf0] = a1\n 25565: a5 = s1 + 0x100\n 25569: a1 = u64 [a5]\n 25571: u64 [a2 + 0xf8] = a1\n 25575: a1 = s1 + 0x1f00\n 25579: a2 = u64 [a5 + 0x8]\n 25582: u64 [a0 + 0x600] = a2\n 25586: a0 = a4\n 25588: u64 [a5 + 0x98] = a3\n 25592: ra = 0x3a\n 25595: jump @24\n      : @895 (gas: 3)\n 25598: a0 = u64 [s1 + 0x198]\n 25602: a0 = i32 [a0]\n 25604: jump @906 if a0 >u 99\n      : @896 (gas: 4)\n 25609: a1 = 0x20190\n 25614: i32 a1 = a1 + 0\n 25616: a0 = 0x1\n 25619: jump @968\n      : @897 (gas: 3)\n 25622: a0 = u64 [s1 + 0x198]\n 25626: a0 = i32 [a0]\n 25628: jump @911 if a0 >u 67\n      : @898 (gas: 4)\n 25633: a1 = 0x20190\n 25638: i32 a1 = a1 + 0\n 25640: a0 = 0x1\n 25643: jump @968\n      : @899 (gas: 1)\n 25646: jump @962 if a0 != 235423050\n      : @900 (gas: 10)\n 25654: a0 = s1 + 0x2118\n 25658: u64 [a0 + 1792] = 0\n 25662: u64 [a0 + 1784] = 0\n 25666: u64 [a0 + 1776] = 0\n 25670: u64 [a0 + 1768] = 0\n 25674: a0 = s1 + 0x3000\n 25678: i32 a0 = a0 + 0xfffffffffffff800\n 25682: ra = 0x374\n 25686: ecalli 16 // 'value_transferred'\n 25688: fallthrough\n      : @901 [@dyn 442] (gas: 10)\n 25689: a3 = s1 + 0x2118\n 25693: a4 = a3 + 0x600\n 25697: a0 = u64 [a4 + 0xf8]\n 25701: a1 = u64 [a3 + 0x700]\n 25705: a2 = u64 [a4 + 0xf0]\n 25709: a3 = u64 [a4 + 0xe8]\n 25713: a1 = a1 | a2\n 25716: a0 = a0 | a3\n 25719: a0 = a0 | a1\n 25722: jump @969 if a0 == 0\n      : @902 (gas: 4)\n 25726: a1 = 0x20190\n 25731: i32 a1 = a1 + 0\n 25733: a0 = 0x1\n 25736: jump @968\n      : @903 (gas: 1)\n 25739: t0 = 886, jump @1484\n      : @904 [@dyn 443] (gas: 1)\n 25745: jump @972 if a1 <u a0\n      : @905 (gas: 4)\n 25749: a1 = 0x20190\n 25754: i32 a1 = a1 + 0\n 25756: a0 = 0x1\n 25759: jump @968\n      : @906 (gas: 4)\n 25762: a0 = s1 + 0x17c0\n 25766: ra = 0x378\n 25770: t0 = 0x512\n 25774: jump @1487\n      : @907 [@dyn 444] (gas: 14)\n 25777: a1 = s1 + 0x1118\n 25781: a2 = a1 + 0x600\n 25785: a0 = u64 [a2 + 0xa8]\n 25789: u64 [s1 + 0x198] = a0\n 25793: a0 = u64 [a2 + 0xb0]\n 25797: u64 [s1 + 0x190] = a0\n 25801: a0 = u64 [a2 + 0xb8]\n 25805: u64 [s1 + 0x188] = a0\n 25809: a0 = u64 [a2 + 0xc0]\n 25813: u64 [s1 + 0x180] = a0\n 25817: a0 = s1 + 0x17a0\n 25821: ra = 0x37a\n 25825: t0 = 0x516\n 25829: jump @1500\n      : @908 [@dyn 445] (gas: 14)\n 25832: a1 = s1 + 0x1118\n 25836: a2 = a1 + 0x600\n 25840: a0 = u64 [a2 + 0x88]\n 25844: u64 [s1 + 0x178] = a0\n 25848: a0 = u64 [a2 + 0x90]\n 25852: u64 [s1 + 0x170] = a0\n 25856: a0 = u64 [a2 + 0x98]\n 25860: u64 [s1 + 0x168] = a0\n 25864: a0 = u64 [a2 + 0xa0]\n 25868: u64 [s1 + 0x160] = a0\n 25872: a0 = s1 + 0x1780\n 25876: ra = 0x37c\n 25880: t0 = 0x51c\n 25884: jump @1500\n      : @909 [@dyn 446] (gas: 31)\n 25887: a4 = s1 + 0x1118\n 25891: a5 = a4 + 0x600\n 25895: a0 = u64 [a5 + 0x68]\n 25898: a1 = u64 [a5 + 0x70]\n 25901: a2 = u64 [a5 + 0x78]\n 25904: a3 = u64 [a5 + 0x80]\n 25908: u64 [a5 + 0x20] = a3\n 25911: u64 [a5 + 0x18] = a2\n 25914: u64 [a5 + 0x10] = a1\n 25917: u64 [a5 + 0x8] = a0\n 25920: a4 = s1 + 0x100\n 25924: a0 = u64 [a4 + 0x60]\n 25927: u64 [a5 + 0x40] = a0\n 25930: a0 = u64 [a4 + 0x68]\n 25933: u64 [a5 + 0x38] = a0\n 25936: a0 = u64 [a4 + 0x70]\n 25939: u64 [a5 + 0x30] = a0\n 25942: a0 = u64 [a4 + 0x78]\n 25945: u64 [a5 + 0x28] = a0\n 25948: a0 = u64 [a4 + 0x80]\n 25952: u64 [a5 + 0x60] = a0\n 25955: a0 = u64 [a4 + 0x88]\n 25959: u64 [a5 + 0x58] = a0\n 25962: a0 = u64 [a4 + 0x90]\n 25966: u64 [a5 + 0x50] = a0\n 25969: a0 = s1 + 0x1760\n 25973: a1 = s1 + 0x1740\n 25977: a2 = s1 + 0x1720\n 25981: a3 = u64 [a4 + 0x98]\n 25985: u64 [a5 + 0x48] = a3\n 25988: ra = 894, jump @1313\n      : @910 [@dyn 447] (gas: 8)\n 25994: a1 = 0x20190\n 25999: i32 a1 = a1 + 0\n 26001: a0 = 0\n 26003: a2 = 0\n 26005: ra = 0x3ce\n 26009: ecalli 13 // 'seal_return'\n 26011: t0 = 0x3d0\n 26015: jump @1484\n      : @911 (gas: 4)\n 26018: a0 = s1 + 0x1b40\n 26022: ra = 0x380\n 26026: t0 = 0x526\n 26030: jump @1487\n      : @912 [@dyn 448] (gas: 7)\n 26033: a0 = s1 + 0x1918\n 26037: a0 = u64 [a0 + 0x228]\n 26041: u64 [s1 + 0x190] = a0\n 26045: a0 = s1 + 0x1b20\n 26049: ra = 0x382\n 26053: t0 = 0x516\n 26057: jump @1500\n      : @913 [@dyn 449] (gas: 12)\n 26060: a0 = s1 + 0x1918\n 26064: a0 = u64 [a0 + 0x208]\n 26068: u64 [s1 + 0xf0] = a0\n 26072: a0 = 0x30190\n 26077: u64 [s1 + 0x108] = a0\n 26081: i32 a0 = a0 + 0\n 26083: u64 [s1 + 0x100] = a0\n 26087: ra = 0x384\n 26091: ecalli 4 // 'caller'\n 26093: a2 = u64 [s1 + 0x108]\n 26097: t0 = 0x386\n 26101: jump @1426\n      : @914 [@dyn 450] (gas: 2)\n 26104: a2 = u64 [s1 + 0x108]\n 26108: t0 = 902, jump @1426\n      : @915 [@dyn 451] (gas: 8)\n 26114: u64 [a2 + 512] = 0\n 26118: a4 = a2 + 0x100\n 26122: u64 [a4 + 0xf8] = a1\n 26126: u64 [a4 + 0xf0] = a0\n 26130: a1 = s1 + 0x1b00\n 26134: u64 [a4 + 0xe8] = a3\n 26138: a0 = 0\n 26140: ra = 904, jump @24\n      : @916 [@dyn 452] (gas: 3)\n 26146: t0 = 0x38a\n 26150: a1 = s1 + 0x1918\n 26154: fallthrough\n      : @917 [@dyn 453] (gas: 8)\n 26155: u64 [a1 + 480] = 0\n 26159: u64 [a1 + 472] = 0\n 26163: u64 [a1 + 456] = 0x2\n 26168: a2 = a1\n 26170: a0 = 0x20\n 26173: a1 = s1 + 0x1ae0\n 26177: u64 [a2 + 464] = 0\n 26181: ra = 908, jump @24\n      : @918 [@dyn 454] (gas: 5)\n 26187: a0 = 0x20180\n 26192: u64 [s1 + 0x118] = a0\n 26196: a0 = i32 [0x20180]\n 26201: a1 = 0x3f\n 26204: jump @920 if a1 <u a0\n      : @919 (gas: 4)\n 26207: a1 = u64 [s1 + 0x118]\n 26211: u32 [a1 + 0] = 0x40\n 26214: t0 = 0x38e\n 26218: jump @1466\n      : @920 (gas: 1)\n 26221: t0 = 910, jump @1466\n      : @921 [@dyn 455] (gas: 10)\n 26227: a0 = 0x20190\n 26232: i32 a0 = a0 + 0\n 26234: i32 a2 = a2 + 0\n 26236: a1 = 0x40\n 26239: u64 [s1 + 0x110] = a0\n 26243: ra = 0x390\n 26247: ecalli 8 // 'hash_keccak_256'\n 26249: a3 = u64 [s1 + 0x198]\n 26253: t0 = 0x392\n 26257: jump @1443\n      : @922 [@dyn 456] (gas: 2)\n 26260: a3 = u64 [s1 + 0x198]\n 26264: t0 = 914, jump @1443\n      : @923 [@dyn 457] (gas: 14)\n 26270: u64 [s1 + 0x198] = a0\n 26274: sp = a0\n 26276: a0 = u64 [s1 + 0x190]\n 26280: a0 = a0 << 0x20\n 26283: a2 = a0 >> 0x20\n 26286: a0 = s1 + 0x1918\n 26290: u64 [a0 + 448] = 0\n 26294: u64 [a0 + 440] = 0\n 26298: u64 [a0 + 432] = 0\n 26302: a1 = s1 + 0x1ac0\n 26306: u64 [s1 + 0xf8] = a2\n 26310: u64 [a0 + 0x1a8] = a2\n 26314: a0 = 0\n 26316: ra = 916, jump @24\n      : @924 [@dyn 458] (gas: 14)\n 26322: a0 = u64 [s1 + 0x170]\n 26326: a1 = s1 + 0x1918\n 26330: a2 = a1 + 0x100\n 26334: u64 [a2 + 0xa0] = a0\n 26338: a0 = u64 [s1 + 0x178]\n 26342: u64 [a2 + 0x98] = a0\n 26346: a0 = u64 [s1 + 0x180]\n 26350: u64 [a2 + 0x90] = a0\n 26354: a3 = a1\n 26356: a0 = 0x20\n 26359: a1 = s1 + 0x1aa0\n 26363: a2 = u64 [s1 + 0x188]\n 26367: u64 [a3 + 0x188] = a2\n 26371: ra = 918, jump @24\n      : @925 [@dyn 459] (gas: 3)\n 26377: a0 = u64 [s1 + 0x118]\n 26381: a0 = i32 [a0]\n 26383: jump @927 if a0 >u 63\n      : @926 (gas: 4)\n 26387: a0 = u64 [s1 + 0x118]\n 26391: u32 [a0 + 0] = 0x40\n 26394: t0 = 0x398\n 26398: jump @1434\n      : @927 (gas: 1)\n 26401: t0 = 920, jump @1434\n      : @928 [@dyn 460] (gas: 5)\n 26407: ra = 0x39a\n 26411: ecalli 8 // 'hash_keccak_256'\n 26413: a3 = u64 [s1 + 0x190]\n 26417: t0 = 0x39c\n 26421: jump @1456\n      : @929 [@dyn 461] (gas: 2)\n 26424: a3 = u64 [s1 + 0x190]\n 26428: t0 = 924, jump @1456\n      : @930 [@dyn 462] (gas: 6)\n 26434: a0 = u64 [s1 + 0x100]\n 26438: ra = 0x39e\n 26442: ecalli 4 // 'caller'\n 26444: a2 = u64 [s1 + 0x108]\n 26448: t0 = 0x3a0\n 26452: jump @1482\n      : @931 [@dyn 463] (gas: 2)\n 26455: a2 = u64 [s1 + 0x108]\n 26459: t0 = 928, jump @1482\n      : @932 [@dyn 464] (gas: 10)\n 26465: u64 [s1 + 0x190] = a1\n 26469: a0 = a0 >> 0x20\n 26472: a1 = reverse a2\n 26474: u64 [s1 + 0x188] = a1\n 26478: a1 = a1 << 0x20\n 26481: a0 = a0 | a1\n 26484: u64 [s1 + 0x180] = a0\n 26488: a0 = s1 + 0x1a80\n 26492: a1 = u64 [s1 + 0x198]\n 26496: ra = 930, jump @26\n      : @933 [@dyn 465] (gas: 2)\n 26502: a2 = s1 + 0x1918\n 26506: fallthrough\n      : @934 (gas: 19)\n 26507: a0 = u64 [a2 + 0x170]\n 26511: a1 = u32 [a2 + 0x16c]\n 26515: a2 = u64 [a2 + 0x178]\n 26519: a3 = a0 << 0x20\n 26522: a1 = a1 | a3\n 26525: a3 = a2 << 0x20\n 26528: a0 = a0 >> 0x20\n 26531: a0 = a0 | a3\n 26534: a4 = s1 + 0x100\n 26538: a3 = u64 [a4 + 0x80]\n 26542: a0 = a0 ^ a3\n 26545: a3 = u64 [a4 + 0x90]\n 26549: a1 = a1 ^ a3\n 26552: a3 = u64 [a4 + 0x88]\n 26556: a2 = a2 ^ a3\n 26559: a2 = a2 >> 0x20\n 26562: a1 = a1 | a2\n 26565: a0 = a0 | a1\n 26568: jump @1013 if a0 != 0\n      : @935 (gas: 4)\n 26572: a0 = s1 + 0x3000\n 26576: i32 a0 = a0 + 0xfffffffffffffd40\n 26580: ecalli 9 // 'now'\n 26582: fallthrough\n      : @936 (gas: 51)\n 26583: a0 = s1 + 0x2918\n 26587: t0 = u64 [a0 + 0x440]\n 26591: a4 = u64 [a0 + 0x438]\n 26595: u64 [s1 + 0x158] = a4\n 26599: t2 = u64 [a0 + 0x430]\n 26603: a3 = u64 [a0 + 0x428]\n 26607: u64 [s1 + 0x140] = a3\n 26611: a0 = clz t0\n 26613: a1 = clz a4\n 26615: a2 = a1 + 0x40\n 26618: a2 = a0 if t0 != 0\n 26621: a0 = clz t2\n 26623: a1 = clz a3\n 26625: a1 = a1 + 0x40\n 26628: a1 = a0 if t2 != 0\n 26631: a0 = a1 + 0x80\n 26635: a3 = a4 | t0\n 26638: a2 = a0 if a3 == 0\n 26641: a5 = a0 <u a1\n 26644: a5 = 0 if a3 != 0\n 26646: a4 = a5 >u 0\n 26648: a0 = a2 <u 0xf0\n 26652: a3 = a0 ^ 0x1\n 26655: a4 = a3 if a5 == 0\n 26658: a0 = a4 <u 0x1\n 26661: ra = a0 + 0xffffffffffffffff\n 26664: t1 = -a4\n 26666: a5 = -a5\n 26668: a3 = a5 - a3\n 26671: a2 = 0xef - a2\n 26675: a5 = t1 >u 0\n 26677: a0 = ra >u 0\n 26679: a0 = a5 if ra == 0\n 26682: a5 = a2 <u 0x100\n 26686: a5 = a5 ^ 0x1\n 26689: a1 = a3 >u 0\n 26691: a5 = a1 if a3 != 0\n 26694: a5 = a0 if a4 != 0\n 26697: u64 [s1 + 0x138] = t2\n 26701: u64 [s1 + 0x150] = t0\n 26705: a0 = t2 | t0\n 26708: a4 = u64 [s1 + 0x140]\n 26712: a1 = u64 [s1 + 0x158]\n 26716: a1 = a1 | a4\n 26719: a0 = a0 | a1\n 26722: a0 = a0 <u 0x1\n 26725: a0 = a0 | a5\n 26728: a1 = a4\n 26730: a1 = 0 if a0 != 0\n 26732: u64 [s1 + 0x198] = a1\n 26736: jump @1017 if a0 != 0\n      : @937 (gas: 5)\n 26740: a0 = a2 ^ 0xff\n 26744: a0 = a0 | t1\n 26747: a1 = a3 | ra\n 26750: a0 = a0 | a1\n 26753: jump @1017 if a0 == 0\n      : @938 (gas: 1)\n 26757: t0 = 932, jump @1435\n      : @939 [@dyn 466] (gas: 1)\n 26763: ra = 934, jump @1501\n      : @940 [@dyn 467] (gas: 1)\n 26769: t0 = 936, jump @1496\n      : @941 [@dyn 468] (gas: 1)\n 26775: ra = 938, jump @1506\n      : @942 [@dyn 469] (gas: 1)\n 26781: t0 = 940, jump @1476\n      : @943 [@dyn 470] (gas: 1)\n 26787: ra = 942, jump @1506\n      : @944 [@dyn 471] (gas: 8)\n 26793: u64 [s1 + 0x120] = a0\n 26797: u64 [s1 + 0xe8] = a1\n 26801: a2 = u64 [s1 + 0x160]\n 26805: a0 = a2 <u 0x80\n 26809: u64 [s1 + 0xe0] = a0\n 26813: a0 = u64 [s1 + 0x140]\n 26817: a1 = u64 [s1 + 0x138]\n 26821: ra = 944, jump @1506\n      : @945 [@dyn 472] (gas: 1)\n 26827: t0 = 946, jump @1494\n      : @946 [@dyn 473] (gas: 4)\n 26833: a3 = u64 [s1 + 0xe0]\n 26837: a0 = 0 if a3 == 0\n 26839: u64 [a4 + 0x78] = a0\n 26842: jump @1015 if a1 == 0\n      : @947 (gas: 7)\n 26846: a2 = a3\n 26848: a0 = u64 [s1 + 0x168]\n 26852: a1 = u64 [s1 + 0x128]\n 26856: a0 = a0 | a1\n 26859: a5 = a3\n 26861: a1 = u64 [s1 + 0xe8]\n 26865: t0 = 948, jump @1431\n      : @948 [@dyn 474] (gas: 1)\n 26871: ra = 950, jump @1501\n      : @949 [@dyn 475] (gas: 1)\n 26877: t0 = 952, jump @1495\n      : @950 [@dyn 476] (gas: 1)\n 26883: ra = 954, jump @1501\n      : @951 [@dyn 477] (gas: 2)\n 26889: u64 [s1 + 0xe8] = a0\n 26893: t0 = 956, jump @1480\n      : @952 [@dyn 478] (gas: 1)\n 26899: ra = 958, jump @1506\n      : @953 [@dyn 479] (gas: 1)\n 26905: t0 = 960, jump @1452\n      : @954 [@dyn 480] (gas: 2)\n 26911: a1 = u64 [s1 + 0xe8]\n 26915: t0 = 962, jump @1462\n      : @955 [@dyn 481] (gas: 1)\n 26921: ra = 964, jump @1501\n      : @956 [@dyn 482] (gas: 1)\n 26927: t0 = 966, jump @1442\n      : @957 [@dyn 483] (gas: 1)\n 26933: t0 = 968, jump @1453\n      : @958 [@dyn 484] (gas: 5)\n 26939: t0 = ra <u a2\n 26942: a4 = u64 [s1 + 0x128]\n 26946: a5 = a4 <u a3\n 26949: a5 = t0 if t1 != 0\n 26952: t0 = 970, jump @1454\n      : @959 [@dyn 485] (gas: 20)\n 26958: t0 = a0 | a1\n 26961: a1 = a4 << 0x1\n 26964: a4 = u64 [s1 + 0x170]\n 26968: t1 = a4 >> 0x3f\n 26971: t1 = a1 | t1\n 26974: a1 = a4 << 0x1\n 26977: a4 = u64 [s1 + 0x178]\n 26981: t2 = a4 >> 0x3f\n 26984: a1 = a1 | t2\n 26987: a4 = a4 << 0x1\n 26990: a0 = u64 [s1 + 0x158]\n 26994: a4 = a4 | a0\n 26997: u64 [s1 + 0x178] = a4\n 27001: a0 = u64 [s1 + 0x150]\n 27005: a1 = a1 | a0\n 27008: u64 [s1 + 0x170] = a1\n 27012: a1 = a0 | t1\n 27015: u64 [s1 + 0x160] = a1\n 27019: a0 = a0 | t0\n 27022: t0 = 972, jump @1429\n      : @960 [@dyn 486] (gas: 18)\n 27028: t0 = a4 <u a2\n 27031: a2 = a4 - a2\n 27034: a4 = a3 <u 0x1\n 27037: a5 = a5 - a4\n 27040: a4 = u64 [a0 + 0x88]\n 27044: a4 = a4 - t0\n 27047: a3 = a3 + 0xffffffffffffffff\n 27050: u64 [a0 + 0x90] = a5\n 27054: u64 [a0 + 0x88] = a4\n 27058: t0 = a5 | a4\n 27061: u64 [a0 + 0x98] = a3\n 27065: a4 = a3 | a2\n 27068: a3 = a4 | t0\n 27071: a4 = ra & 0x1\n 27074: u64 [a0 + 0x58] = a4\n 27077: u64 [a0 + 0x80] = a2\n 27081: u64 [s1 + 336] = 0\n 27085: jump @957 if a3 != 0\n      : @961 (gas: 1)\n 27089: jump @1016\n      : @962 (gas: 1)\n 27092: jump @966 if a0 != 1158823118\n      : @963 (gas: 9)\n 27099: a0 = s1 + 0x2918\n 27103: u64 [a0 + 384] = 0\n 27107: u64 [a0 + 376] = 0\n 27111: u64 [a0 + 368] = 0\n 27115: u64 [a0 + 360] = 0\n 27119: a0 = s1 + 0x3000\n 27123: i32 a0 = a0 + 0xfffffffffffffa80\n 27127: ecalli 16 // 'value_transferred'\n 27129: fallthrough\n      : @964 (gas: 10)\n 27130: a3 = s1 + 0x2918\n 27134: a4 = a3 + 0x100\n 27138: a0 = u64 [a4 + 0x78]\n 27141: a1 = u64 [a4 + 0x80]\n 27145: a2 = u64 [a4 + 0x70]\n 27148: a3 = u64 [a4 + 0x68]\n 27151: a1 = a1 | a2\n 27154: a0 = a0 | a3\n 27157: a0 = a0 | a1\n 27160: jump @1040 if a0 == 0\n      : @965 (gas: 4)\n 27164: a1 = 0x20190\n 27169: i32 a1 = a1 + 0\n 27171: a0 = 0x1\n 27174: jump @968\n      : @966 (gas: 4)\n 27176: a1 = 0x20190\n 27181: i32 a1 = a1 + 0\n 27183: a0 = 0x1\n 27186: jump @968\n      : @967 (gas: 7)\n 27188: i32 a1 = a1 + 0\n 27190: a0 = 0x1\n 27193: a2 = 0\n 27195: ra = 0x3ce\n 27199: ecalli 13 // 'seal_return'\n 27201: t0 = 0x3d0\n 27205: jump @1484\n      : @968 (gas: 5)\n 27208: a2 = 0\n 27210: ra = 0x3ce\n 27214: ecalli 13 // 'seal_return'\n 27216: t0 = 0x3d0\n 27220: jump @1484\n      : @969 [@dyn 487] (gas: 1)\n 27223: t0 = 976, jump @1484\n      : @970 [@dyn 488] (gas: 1)\n 27229: jump @1042 if a1 <u a0\n      : @971 (gas: 2)\n 27233: a1 = 0x20190\n 27238: jump @967\n      : @972 (gas: 4)\n 27240: a0 = s1 + 0x1e00\n 27244: ra = 0x3d2\n 27248: t0 = 0x526\n 27252: jump @1487\n      : @973 [@dyn 489] (gas: 12)\n 27255: a0 = s1 + 0x1918\n 27259: a0 = u64 [a0 + 0x4e8]\n 27263: u64 [s1 + 0x170] = a0\n 27267: a0 = 0x30190\n 27272: u64 [s1 + 0x188] = a0\n 27276: i32 a0 = a0 + 0\n 27278: u64 [s1 + 0x180] = a0\n 27282: ra = 0x3d4\n 27286: ecalli 4 // 'caller'\n 27288: a2 = u64 [s1 + 0x188]\n 27292: t0 = 0x3d6\n 27296: jump @1426\n      : @974 [@dyn 490] (gas: 2)\n 27299: a2 = u64 [s1 + 0x188]\n 27303: t0 = 982, jump @1426\n      : @975 [@dyn 491] (gas: 8)\n 27309: u64 [a2 + 1248] = 0\n 27313: a4 = a2 + 0x400\n 27317: u64 [a4 + 0xd8] = a1\n 27321: u64 [a4 + 0xd0] = a0\n 27325: a1 = s1 + 0x1de0\n 27329: u64 [a4 + 0xc8] = a3\n 27333: a0 = 0\n 27335: ra = 984, jump @24\n      : @976 [@dyn 492] (gas: 3)\n 27341: t0 = 0x3da\n 27345: a1 = s1 + 0x1918\n 27349: fallthrough\n      : @977 [@dyn 493] (gas: 8)\n 27350: u64 [a1 + 1216] = 0\n 27354: u64 [a1 + 1208] = 0\n 27358: u64 [a1 + 1192] = 0x2\n 27363: a2 = a1\n 27365: a0 = 0x20\n 27368: a1 = s1 + 0x1dc0\n 27372: u64 [a2 + 1200] = 0\n 27376: ra = 988, jump @24\n      : @978 [@dyn 494] (gas: 4)\n 27382: a0 = 0x20180\n 27387: u64 [s1 + 0x198] = a0\n 27391: a0 = i32 [0x20180]\n 27396: jump @980 if a0 >u 63\n      : @979 (gas: 3)\n 27400: a1 = u64 [s1 + 0x198]\n 27404: u32 [a1 + 0] = 0x40\n 27407: fallthrough\n      : @980 (gas: 14)\n 27408: a0 = sp + 0xffffffffffffffe0\n 27411: a2 = a0 & 0xffffffffffffffe0\n 27414: u64 [s1 + 0x178] = a2\n 27418: sp = a2\n 27420: a0 = 0x20190\n 27425: i32 a0 = a0 + 0\n 27427: i32 a2 = a2 + 0\n 27429: a1 = 0x40\n 27432: u64 [s1 + 0x190] = a0\n 27436: ra = 0x3de\n 27440: ecalli 8 // 'hash_keccak_256'\n 27442: a3 = u64 [s1 + 0x178]\n 27446: t0 = 0x3e0\n 27450: jump @1433\n      : @981 [@dyn 495] (gas: 2)\n 27453: a3 = u64 [s1 + 0x178]\n 27457: t0 = 992, jump @1433\n      : @982 [@dyn 496] (gas: 16)\n 27463: a0 = sp + 0xffffffffffffffe0\n 27466: a0 = a0 & 0xffffffffffffffe0\n 27469: u64 [s1 + 0x178] = a0\n 27473: sp = a0\n 27475: a0 = u64 [s1 + 0x170]\n 27479: a0 = a0 << 0x20\n 27482: a2 = a0 >> 0x20\n 27485: a0 = s1 + 0x1918\n 27489: u64 [a0 + 1184] = 0\n 27493: u64 [a0 + 1176] = 0\n 27497: u64 [a0 + 1168] = 0\n 27501: a1 = s1 + 0x1da0\n 27505: u64 [s1 + 0x170] = a2\n 27509: u64 [a0 + 0x488] = a2\n 27513: a0 = 0\n 27515: ra = 994, jump @24\n      : @983 [@dyn 497] (gas: 3)\n 27521: a0 = u64 [s1 + 0x150]\n 27525: a1 = s1 + 0x1918\n 27529: t0 = 996, jump @1474\n      : @984 [@dyn 498] (gas: 4)\n 27535: a1 = s1 + 0x1d80\n 27539: a2 = u64 [s1 + 0x168]\n 27543: u64 [a3 + 0x468] = a2\n 27547: ra = 998, jump @24\n      : @985 [@dyn 499] (gas: 3)\n 27553: a0 = u64 [s1 + 0x198]\n 27557: a0 = i32 [a0]\n 27559: jump @987 if a0 >u 63\n      : @986 (gas: 3)\n 27563: a0 = u64 [s1 + 0x198]\n 27567: u32 [a0 + 0] = 0x40\n 27570: fallthrough\n      : @987 (gas: 4)\n 27571: a0 = sp + 0xffffffffffffffe0\n 27574: a0 = a0 & 0xffffffffffffffe0\n 27577: u64 [s1 + 0x168] = a0\n 27581: t0 = 1000, jump @1445\n      : @988 [@dyn 500] (gas: 5)\n 27587: ra = 0x3ea\n 27591: ecalli 8 // 'hash_keccak_256'\n 27593: a3 = u64 [s1 + 0x168]\n 27597: t0 = 0x3ec\n 27601: jump @1447\n      : @989 [@dyn 501] (gas: 2)\n 27604: a3 = u64 [s1 + 0x168]\n 27608: t0 = 1004, jump @1447\n      : @990 [@dyn 502] (gas: 11)\n 27614: a4 = u64 [s1 + 0x178]\n 27618: u64 [a4 + 0x18] = a3\n 27621: u64 [a4 + 0x10] = a2\n 27624: u64 [a4 + 0x8] = a1\n 27627: u64 [a4] = a0\n 27629: a0 = u64 [s1 + 0x180]\n 27633: ra = 0x3ee\n 27637: ecalli 4 // 'caller'\n 27639: a2 = u64 [s1 + 0x188]\n 27643: t0 = 0x3f0\n 27647: jump @1482\n      : @991 [@dyn 503] (gas: 2)\n 27650: a2 = u64 [s1 + 0x188]\n 27654: t0 = 1008, jump @1482\n      : @992 [@dyn 504] (gas: 10)\n 27660: u64 [s1 + 0x168] = a1\n 27664: a0 = a0 >> 0x20\n 27667: a1 = reverse a2\n 27669: u64 [s1 + 0x160] = a1\n 27673: a1 = a1 << 0x20\n 27676: a0 = a0 | a1\n 27679: u64 [s1 + 0x158] = a0\n 27683: a0 = s1 + 0x1d60\n 27687: a1 = u64 [s1 + 0x178]\n 27691: ra = 1010, jump @26\n      : @993 [@dyn 505] (gas: 2)\n 27697: a2 = s1 + 0x1918\n 27701: fallthrough\n      : @994 (gas: 19)\n 27702: a0 = u64 [a2 + 0x450]\n 27706: a1 = u32 [a2 + 0x44c]\n 27710: a2 = u64 [a2 + 0x458]\n 27714: a3 = a0 << 0x20\n 27717: a1 = a1 | a3\n 27720: a3 = a2 << 0x20\n 27723: a0 = a0 >> 0x20\n 27726: a0 = a0 | a3\n 27729: a4 = s1 + 0x100\n 27733: a3 = u64 [a4 + 0x58]\n 27736: a0 = a0 ^ a3\n 27739: a3 = u64 [a4 + 0x68]\n 27742: a1 = a1 ^ a3\n 27745: a3 = u64 [a4 + 0x60]\n 27748: a2 = a2 ^ a3\n 27751: a2 = a2 >> 0x20\n 27754: a1 = a1 | a2\n 27757: a0 = a0 | a1\n 27760: jump @1054 if a0 != 0\n      : @995 (gas: 6)\n 27764: a0 = u64 [s1 + 0x180]\n 27768: ra = 0x3f4\n 27772: ecalli 4 // 'caller'\n 27774: a2 = u64 [s1 + 0x188]\n 27778: t0 = 0x3f6\n 27782: jump @1426\n      : @996 [@dyn 506] (gas: 2)\n 27785: a2 = u64 [s1 + 0x188]\n 27789: t0 = 1014, jump @1426\n      : @997 [@dyn 507] (gas: 8)\n 27795: u64 [a2 + 1056] = 0\n 27799: a4 = a2 + 0x400\n 27803: u64 [a4 + 0x18] = a1\n 27806: u64 [a4 + 0x10] = a0\n 27809: a1 = s1 + 0x1d20\n 27813: u64 [a4 + 0x8] = a3\n 27816: a0 = 0\n 27818: ra = 1016, jump @24\n      : @998 [@dyn 508] (gas: 3)\n 27824: t0 = 0x3fa\n 27828: a1 = s1 + 0x1918\n 27832: fallthrough\n      : @999 [@dyn 509] (gas: 8)\n 27833: u64 [a1 + 1024] = 0\n 27837: u64 [a1 + 1016] = 0\n 27841: u64 [a1 + 1000] = 0x2\n 27846: a2 = a1\n 27848: a0 = 0x20\n 27851: a1 = s1 + 0x1d00\n 27855: u64 [a2 + 1008] = 0\n 27859: ra = 1020, jump @24\n      : @1000 [@dyn 510] (gas: 3)\n 27865: a0 = u64 [s1 + 0x198]\n 27869: a0 = i32 [a0]\n 27871: jump @1002 if a0 >u 63\n      : @1001 (gas: 3)\n 27875: a1 = u64 [s1 + 0x198]\n 27879: u32 [a1 + 0] = 0x40\n 27882: fallthrough\n      : @1002 (gas: 4)\n 27883: a0 = sp + 0xffffffffffffffe0\n 27886: a0 = a0 & 0xffffffffffffffe0\n 27889: u64 [s1 + 0x178] = a0\n 27893: t0 = 1022, jump @1445\n      : @1003 [@dyn 511] (gas: 17)\n 27899: ecalli 8 // 'hash_keccak_256'\n 27901: a3 = u64 [s1 + 0x178]\n 27905: a0 = u64 [a3 + 0x18]\n 27908: a1 = u64 [a3 + 0x10]\n 27911: a2 = u64 [a3 + 0x8]\n 27914: a3 = u64 [a3]\n 27916: a0 = reverse a0\n 27918: u64 [s1 + 0x178] = a0\n 27922: a0 = reverse a1\n 27924: u64 [s1 + 0x168] = a0\n 27928: a0 = reverse a2\n 27930: u64 [s1 + 0x160] = a0\n 27934: a0 = reverse a3\n 27936: u64 [s1 + 0x158] = a0\n 27940: t0 = 0x400\n 27944: a2 = s1 + 0x1918\n 27948: fallthrough\n      : @1004 [@dyn 512] (gas: 8)\n 27949: u64 [a2 + 992] = 0\n 27953: u64 [a2 + 984] = 0\n 27957: u64 [a2 + 976] = 0\n 27961: a1 = s1 + 0x1ce0\n 27965: a0 = u64 [s1 + 0x170]\n 27969: u64 [a2 + 0x3c8] = a0\n 27973: a0 = 0\n 27975: ra = 1026, jump @24\n      : @1005 [@dyn 513] (gas: 14)\n 27981: a0 = u64 [s1 + 0x158]\n 27985: a1 = s1 + 0x1918\n 27989: a2 = a1 + 0x300\n 27993: u64 [a2 + 0xc0] = a0\n 27997: a0 = u64 [s1 + 0x160]\n 28001: u64 [a2 + 0xb8] = a0\n 28005: a0 = u64 [s1 + 0x168]\n 28009: u64 [a2 + 0xb0] = a0\n 28013: a3 = a1\n 28015: a0 = 0x20\n 28018: a1 = s1 + 0x1cc0\n 28022: a2 = u64 [s1 + 0x178]\n 28026: u64 [a3 + 0x3a8] = a2\n 28030: ra = 1028, jump @24\n      : @1006 [@dyn 514] (gas: 3)\n 28036: a0 = u64 [s1 + 0x198]\n 28040: a0 = i32 [a0]\n 28042: jump @1008 if a0 >u 63\n      : @1007 (gas: 3)\n 28046: a0 = u64 [s1 + 0x198]\n 28050: u32 [a0 + 0] = 0x40\n 28053: fallthrough\n      : @1008 (gas: 4)\n 28054: a0 = sp + 0xffffffffffffffe0\n 28057: a0 = a0 & 0xffffffffffffffe0\n 28060: u64 [s1 + 0x178] = a0\n 28064: t0 = 1030, jump @1445\n      : @1009 [@dyn 515] (gas: 28)\n 28070: ecalli 8 // 'hash_keccak_256'\n 28072: a3 = u64 [s1 + 0x178]\n 28076: a0 = u64 [a3]\n 28078: a1 = u64 [a3 + 0x8]\n 28081: a2 = u64 [a3 + 0x10]\n 28084: a3 = u64 [a3 + 0x18]\n 28087: t0 = reverse a0\n 28089: a0 = reverse a1\n 28091: a2 = reverse a2\n 28093: a3 = reverse a3\n 28095: a4 = sp + 0xffffffffffffffe0\n 28098: a1 = a4 & 0xffffffffffffffe0\n 28101: sp = a1\n 28103: a4 = a3 + 0x2\n 28106: a3 = a4 <u a3\n 28109: a5 = a2 + a3\n 28112: a2 = a5 <u a2\n 28115: a2 = a3 if a3 == 0\n 28118: a2 = a2 + a0\n 28121: a0 = a2 <u a0\n 28124: a0 = a0 + t0\n 28127: u64 [a1 + 0x8] = a5\n 28130: u64 [a1] = a4\n 28132: u64 [a1 + 0x10] = a2\n 28135: u64 [a1 + 0x18] = a0\n 28138: a0 = s1 + 0x1ca0\n 28142: u64 [s1 + 0x178] = a1\n 28146: ra = 1032, jump @26\n      : @1010 [@dyn 516] (gas: 4)\n 28152: a0 = s1 + 0x1918\n 28156: a0 = u64 [a0 + 0x390]\n 28160: a1 = a0 & 0xff\n 28164: jump @1059 if a1 == 0\n      : @1011 (gas: 3)\n 28168: t0 = 0x40a\n 28172: a2 = s1 + 0x1918\n 28176: fallthrough\n      : @1012 [@dyn 517] (gas: 9)\n 28177: u64 [a2 + 888] = 0\n 28181: u64 [a2 + 880] = 0\n 28185: a0 = 0xc1c184c800000000\n 28195: u64 [a2 + 0x380] = a0\n 28199: a1 = s1 + 0x1c80\n 28203: u64 [a2 + 872] = 0\n 28207: a0 = 0\n 28209: ra = 0x43e\n 28213: jump @24\n      : @1013 (gas: 3)\n 28216: t0 = 0x40c\n 28220: a2 = s1 + 0x1918\n 28224: fallthrough\n      : @1014 [@dyn 518] (gas: 9)\n 28225: u64 [a2 + 344] = 0\n 28229: u64 [a2 + 336] = 0\n 28233: a0 = 0x6f1cf7db00000000\n 28243: u64 [a2 + 0x160] = a0\n 28247: a1 = s1 + 0x1a60\n 28251: u64 [a2 + 328] = 0\n 28255: a0 = 0\n 28257: ra = 0x4bc\n 28261: jump @24\n      : @1015 (gas: 2)\n 28264: u64 [s1 + 344] = 0\n 28268: fallthrough\n      : @1016 (gas: 7)\n 28269: a2 = s1 + 0x100\n 28273: a0 = u64 [a2 + 0x78]\n 28276: a0 = a0 << 0x1\n 28279: a1 = u64 [a2 + 0x58]\n 28282: a0 = a0 | a1\n 28285: u64 [a2 + 0x98] = a0\n 28289: fallthrough\n      : @1017 (gas: 3)\n 28290: a0 = u64 [s1 + 0xf0]\n 28294: a1 = u64 [s1 + 0x198]\n 28298: jump @1078 if a0 != a1\n      : @1018 (gas: 6)\n 28302: a0 = u64 [s1 + 0x100]\n 28306: ra = 0x40e\n 28310: ecalli 4 // 'caller'\n 28312: a2 = u64 [s1 + 0x108]\n 28316: t0 = 0x410\n 28320: jump @1426\n      : @1019 [@dyn 519] (gas: 2)\n 28323: a2 = u64 [s1 + 0x108]\n 28327: t0 = 1040, jump @1426\n      : @1020 [@dyn 520] (gas: 8)\n 28333: u64 [a2 + 288] = 0\n 28337: a4 = a2 + 0x100\n 28341: u64 [a4 + 0x18] = a1\n 28344: u64 [a4 + 0x10] = a0\n 28347: a1 = s1 + 0x1a20\n 28351: u64 [a4 + 0x8] = a3\n 28354: a0 = 0\n 28356: ra = 1042, jump @24\n      : @1021 [@dyn 521] (gas: 3)\n 28362: t0 = 0x414\n 28366: a1 = s1 + 0x1918\n 28370: fallthrough\n      : @1022 [@dyn 522] (gas: 8)\n 28371: u64 [a1 + 256] = 0\n 28375: u64 [a1 + 248] = 0\n 28379: u64 [a1 + 232] = 0x2\n 28384: a2 = a1\n 28386: a0 = 0x20\n 28389: a1 = s1 + 0x1a00\n 28393: u64 [a2 + 240] = 0\n 28397: ra = 1046, jump @24\n      : @1023 [@dyn 523] (gas: 3)\n 28403: a0 = u64 [s1 + 0x118]\n 28407: a0 = i32 [a0]\n 28409: jump @1025 if a0 >u 63\n      : @1024 (gas: 4)\n 28413: a1 = u64 [s1 + 0x118]\n 28417: u32 [a1 + 0] = 0x40\n 28420: t0 = 0x418\n 28424: jump @1434\n      : @1025 (gas: 1)\n 28427: t0 = 1048, jump @1434\n      : @1026 [@dyn 524] (gas: 4)\n 28433: ra = 0x41a\n 28437: ecalli 8 // 'hash_keccak_256'\n 28439: t0 = 0x41c\n 28443: jump @1440\n      : @1027 [@dyn 525] (gas: 1)\n 28446: t0 = 1052, jump @1440\n      : @1028 [@dyn 526] (gas: 8)\n 28452: u64 [a2 + 0xe0] = a0\n 28456: u64 [a2 + 0xd8] = a0\n 28460: u64 [a2 + 0xd0] = a0\n 28464: a1 = s1 + 0x19e0\n 28468: a0 = u64 [s1 + 0xf8]\n 28472: u64 [a2 + 0xc8] = a0\n 28476: a0 = 0\n 28478: ra = 1054, jump @24\n      : @1029 [@dyn 527] (gas: 13)\n 28484: a0 = u64 [s1 + 0x178]\n 28488: a1 = s1 + 0x1918\n 28492: u64 [a1 + 0xc0] = a0\n 28496: a0 = u64 [s1 + 0x180]\n 28500: u64 [a1 + 0xb8] = a0\n 28504: a0 = u64 [s1 + 0x188]\n 28508: u64 [a1 + 0xb0] = a0\n 28512: a3 = a1\n 28514: a0 = 0x20\n 28517: a1 = s1 + 0x19c0\n 28521: a2 = u64 [s1 + 0x190]\n 28525: u64 [a3 + 0xa8] = a2\n 28529: ra = 1056, jump @24\n      : @1030 [@dyn 528] (gas: 3)\n 28535: a0 = u64 [s1 + 0x118]\n 28539: a0 = i32 [a0]\n 28541: jump @1032 if a0 >u 63\n      : @1031 (gas: 4)\n 28545: a0 = u64 [s1 + 0x118]\n 28549: u32 [a0 + 0] = 0x40\n 28552: t0 = 0x422\n 28556: jump @1434\n      : @1032 (gas: 1)\n 28559: t0 = 1058, jump @1434\n      : @1033 [@dyn 529] (gas: 4)\n 28565: ra = 0x424\n 28569: ecalli 8 // 'hash_keccak_256'\n 28571: t0 = 0x426\n 28575: jump @1464\n      : @1034 [@dyn 530] (gas: 1)\n 28578: t0 = 1062, jump @1464\n      : @1035 [@dyn 531] (gas: 2)\n 28584: a4 = a3 + 0x2\n 28587: t0 = 1064, jump @1441\n      : @1036 [@dyn 532] (gas: 9)\n 28593: a1 = s1 + 0x2918\n 28597: a3 = a1 + 0x400\n 28601: u64 [a3 + 0x48] = a4\n 28604: u64 [a3 + 0x50] = a5\n 28607: u64 [a3 + 0x58] = a2\n 28610: u64 [a3 + 0x60] = a0\n 28613: a0 = s1 + 0x19a0\n 28617: a1 = s1 + 0x2d60\n 28621: ra = 1066, jump @26\n      : @1037 [@dyn 533] (gas: 3)\n 28627: a0 = s1 + 0x1918\n 28631: a0 = u8 [a0 + 0x90]\n 28635: jump @1080 if a0 == 0\n      : @1038 (gas: 3)\n 28639: t0 = 0x42c\n 28643: a2 = s1 + 0x1918\n 28647: fallthrough\n      : @1039 [@dyn 534] (gas: 9)\n 28648: u64 [a2 + 120] = 0\n 28651: u64 [a2 + 112] = 0\n 28654: a0 = 0xa7a9536d00000000\n 28664: u64 [a2 + 0x80] = a0\n 28668: a1 = s1 + 0x1980\n 28672: u64 [a2 + 104] = 0\n 28675: a0 = 0\n 28677: ra = 0x4bc\n 28681: jump @24\n      : @1040 (gas: 3)\n 28684: a0 = u64 [s1 + 0x198]\n 28688: a0 = i32 [a0]\n 28690: jump @1107 if a0 >u 99\n      : @1041 (gas: 2)\n 28695: a1 = 0x20190\n 28700: jump @967\n      : @1042 (gas: 4)\n 28703: a0 = s1 + 0x220\n 28707: ra = 0x42e\n 28711: t0 = 0x512\n 28715: jump @1487\n      : @1043 [@dyn 535] (gas: 11)\n 28718: a3 = s1 + 0x200\n 28722: a0 = u64 [a3 + 0x20]\n 28725: a1 = u64 [a3 + 0x28]\n 28728: a2 = u32 [s1 + 0x230]\n 28732: u64 [s1 + 536] = 0\n 28736: u64 [a3 + 0x10] = a2\n 28739: u64 [a3 + 0x8] = a1\n 28742: a1 = s1 + 0x200\n 28746: u64 [a3] = a0\n 28748: a0 = 0\n 28750: ra = 1072, jump @24\n      : @1044 [@dyn 536] (gas: 7)\n 28756: u64 [s1 + 504] = 0\n 28760: u64 [s1 + 496] = 0\n 28764: u64 [s1 + 480] = 0x3\n 28769: a0 = 0x20\n 28772: a1 = s1 + 0x1e0\n 28776: u64 [s1 + 488] = 0\n 28780: ra = 1074, jump @24\n      : @1045 [@dyn 537] (gas: 4)\n 28786: a0 = 0x20180\n 28791: u64 [s1 + 0x198] = a0\n 28795: a0 = i32 [0x20180]\n 28800: jump @1047 if a0 >u 63\n      : @1046 (gas: 3)\n 28804: a1 = u64 [s1 + 0x198]\n 28808: u32 [a1 + 0] = 0x40\n 28811: fallthrough\n      : @1047 (gas: 14)\n 28812: a0 = sp + 0xffffffffffffffe0\n 28815: a2 = a0 & 0xffffffffffffffe0\n 28818: u64 [s1 + 0x188] = a2\n 28822: sp = a2\n 28824: a0 = 0x20190\n 28829: u64 [s1 + 0x190] = a0\n 28833: i32 a0 = a0 + 0\n 28835: i32 a2 = a2 + 0\n 28837: a1 = 0x40\n 28840: ra = 0x434\n 28844: ecalli 8 // 'hash_keccak_256'\n 28846: a3 = u64 [s1 + 0x188]\n 28850: t0 = 0x436\n 28854: jump @1447\n      : @1048 [@dyn 538] (gas: 2)\n 28857: a3 = u64 [s1 + 0x188]\n 28861: t0 = 1078, jump @1447\n      : @1049 [@dyn 539] (gas: 9)\n 28867: a4 = s1 + 0x2118\n 28871: a5 = a4 + 0x700\n 28875: u64 [a5 + 0x20] = a3\n 28878: u64 [a5 + 0x18] = a2\n 28881: u64 [a5 + 0x10] = a1\n 28884: u64 [a5 + 0x8] = a0\n 28887: a0 = s1 + 0x1c0\n 28891: a1 = s1 + 0x2820\n 28895: ra = 1080, jump @26\n      : @1050 [@dyn 540] (gas: 8)\n 28901: a0 = u32 [s1 + 0x1c0]\n 28905: u64 [s1 + 440] = 0\n 28909: u64 [s1 + 432] = 0\n 28913: u64 [s1 + 0x1a0] = a0\n 28917: a0 = 0x80\n 28921: a1 = s1 + 0x1a0\n 28925: u64 [s1 + 424] = 0\n 28929: ra = 1082, jump @24\n      : @1051 [@dyn 541] (gas: 3)\n 28935: a0 = u64 [s1 + 0x198]\n 28939: a0 = i32 [a0]\n 28941: jump @1053 if a0 >u 159\n      : @1052 (gas: 5)\n 28946: a1 = u64 [s1 + 0x198]\n 28950: u32 [a1 + 0] = 0xa0\n 28954: a0 = u64 [s1 + 0x190]\n 28958: i32 a1 = a0 + 0x80\n 28962: jump @889\n      : @1053 (gas: 3)\n 28965: a0 = u64 [s1 + 0x190]\n 28969: i32 a1 = a0 + 0x80\n 28973: jump @889\n      : @1054 (gas: 3)\n 28976: t0 = 0x43c\n 28980: a2 = s1 + 0x1918\n 28984: fallthrough\n      : @1055 [@dyn 542] (gas: 8)\n 28985: u64 [a2 + 1080] = 0\n 28989: u64 [a2 + 1072] = 0\n 28993: a0 = 0x6f1cf7db00000000\n 29003: u64 [a2 + 0x440] = a0\n 29007: a1 = s1 + 0x1d40\n 29011: u64 [a2 + 1064] = 0\n 29015: a0 = 0\n 29017: ra = 1086, jump @24\n      : @1056 [@dyn 543] (gas: 3)\n 29023: a0 = u64 [s1 + 0x198]\n 29027: a0 = i32 [a0]\n 29029: jump @1058 if a0 >u 31\n      : @1057 (gas: 7)\n 29033: a1 = u64 [s1 + 0x198]\n 29037: u32 [a1 + 0] = 0x20\n 29040: a0 = 0x1\n 29043: a2 = 0x4\n 29046: a1 = u64 [s1 + 0x190]\n 29050: ecalli 13 // 'seal_return'\n 29052: jump @1144\n      : @1058 (gas: 5)\n 29055: a0 = 0x1\n 29058: a2 = 0x4\n 29061: a1 = u64 [s1 + 0x190]\n 29065: ecalli 13 // 'seal_return'\n 29067: jump @1144\n      : @1059 (gas: 17)\n 29070: a1 = 0xffffffff\n 29080: u64 [s1 + 0x168] = a1\n 29084: a3 = s1 + 0x1918\n 29088: a4 = a3 + 0x300\n 29092: a1 = u64 [a4 + 0x88]\n 29096: a2 = u64 [a4 + 0x98]\n 29100: a3 = u64 [a4 + 0xa0]\n 29104: a0 = a0 | 0x1\n 29107: a4 = s1 + 0x2918\n 29111: a5 = a4 + 0x400\n 29115: u64 [a5 + 0xa8] = a1\n 29119: u64 [a5 + 0xb8] = a2\n 29123: u64 [a5 + 0xb0] = a0\n 29127: u64 [a5 + 0xc0] = a3\n 29131: a1 = s1 + 0x2dc0\n 29135: a0 = u64 [s1 + 0x178]\n 29139: ra = 1088, jump @28\n      : @1060 [@dyn 544] (gas: 6)\n 29145: a0 = u64 [s1 + 0x180]\n 29149: ra = 0x442\n 29153: ecalli 4 // 'caller'\n 29155: a2 = u64 [s1 + 0x188]\n 29159: t0 = 0x444\n 29163: jump @1426\n      : @1061 [@dyn 545] (gas: 2)\n 29166: a2 = u64 [s1 + 0x188]\n 29170: t0 = 1092, jump @1426\n      : @1062 [@dyn 546] (gas: 8)\n 29176: u64 [a2 + 864] = 0\n 29180: a4 = a2 + 0x300\n 29184: u64 [a4 + 0x58] = a1\n 29187: u64 [a4 + 0x50] = a0\n 29190: a1 = s1 + 0x1c60\n 29194: u64 [a4 + 0x48] = a3\n 29197: a0 = 0\n 29199: ra = 1094, jump @24\n      : @1063 [@dyn 547] (gas: 3)\n 29205: t0 = 0x448\n 29209: a1 = s1 + 0x1918\n 29213: fallthrough\n      : @1064 [@dyn 548] (gas: 8)\n 29214: u64 [a1 + 832] = 0\n 29218: u64 [a1 + 824] = 0\n 29222: u64 [a1 + 808] = 0x1\n 29227: a2 = a1\n 29229: a0 = 0x20\n 29232: a1 = s1 + 0x1c40\n 29236: u64 [a2 + 816] = 0\n 29240: ra = 1098, jump @24\n      : @1065 [@dyn 549] (gas: 7)\n 29246: a0 = sp + 0xffffffffffffffe0\n 29249: a0 = a0 & 0xffffffffffffffe0\n 29252: u64 [s1 + 0x178] = a0\n 29256: sp = a0\n 29258: a0 = u64 [s1 + 0x198]\n 29262: a0 = i32 [a0]\n 29264: jump @1067 if a0 >u 63\n      : @1066 (gas: 3)\n 29268: a1 = u64 [s1 + 0x198]\n 29272: u32 [a1 + 0] = 0x40\n 29275: fallthrough\n      : @1067 (gas: 4)\n 29276: a0 = sp + 0xffffffffffffffe0\n 29279: a0 = a0 & 0xffffffffffffffe0\n 29282: u64 [s1 + 0x160] = a0\n 29286: t0 = 1100, jump @1445\n      : @1068 [@dyn 550] (gas: 3)\n 29292: ra = 0x44e\n 29296: ecalli 8 // 'hash_keccak_256'\n 29298: fallthrough\n      : @1069 [@dyn 551] (gas: 11)\n 29299: a3 = u64 [s1 + 0x160]\n 29303: a0 = u64 [a3]\n 29305: a1 = u64 [a3 + 0x8]\n 29308: a2 = u64 [a3 + 0x10]\n 29311: a3 = u64 [a3 + 0x18]\n 29314: a0 = reverse a0\n 29316: a1 = reverse a1\n 29318: a2 = reverse a2\n 29320: a3 = reverse a3\n 29322: a4 = a3 + 0x3\n 29325: t0 = 1104, jump @1441\n      : @1070 [@dyn 552] (gas: 7)\n 29331: a1 = u64 [s1 + 0x178]\n 29335: u64 [a1] = a4\n 29337: u64 [a1 + 0x8] = a5\n 29340: u64 [a1 + 0x10] = a2\n 29343: u64 [a1 + 0x18] = a0\n 29346: a0 = s1 + 0x1c20\n 29350: ra = 1106, jump @26\n      : @1071 [@dyn 553] (gas: 5)\n 29356: a0 = s1 + 0x1918\n 29360: a0 = u64 [a0 + 0x308]\n 29364: a1 = u64 [s1 + 0x168]\n 29368: a1 = a1 & a0\n 29371: jump @1137 if a1 == 0\n      : @1072 (gas: 7)\n 29375: a1 = u64 [s1 + 0x168]\n 29379: a0 = a0 + a1\n 29382: a0 = a0 & a1\n 29385: u64 [s1 + 0x198] = a0\n 29389: a0 = s1 + 0x1c00\n 29393: a1 = u64 [s1 + 0x178]\n 29397: ra = 1108, jump @26\n      : @1073 [@dyn 554] (gas: 17)\n 29403: a3 = s1 + 0x1918\n 29407: a0 = u32 [a3 + 0x2ec]\n 29411: a0 = a0 << 0x20\n 29414: a1 = u64 [a3 + 0x300]\n 29418: a2 = u64 [a3 + 0x2f8]\n 29422: a3 = u64 [a3 + 0x2f0]\n 29426: a4 = u64 [s1 + 0x198]\n 29430: a0 = a0 | a4\n 29433: a4 = s1 + 0x2918\n 29437: a5 = a4 + 0x400\n 29441: u64 [a5 + 0xe0] = a1\n 29445: u64 [a5 + 0xd8] = a2\n 29449: u64 [a5 + 0xd0] = a3\n 29453: u64 [a5 + 0xc8] = a0\n 29457: a1 = s1 + 0x2de0\n 29461: a0 = u64 [s1 + 0x178]\n 29465: ra = 1110, jump @28\n      : @1074 [@dyn 555] (gas: 6)\n 29471: a0 = u64 [s1 + 0x180]\n 29475: ra = 0x458\n 29479: ecalli 4 // 'caller'\n 29481: a2 = u64 [s1 + 0x188]\n 29485: t0 = 0x45a\n 29489: jump @1430\n      : @1075 [@dyn 556] (gas: 2)\n 29492: a2 = u64 [s1 + 0x188]\n 29496: t0 = 1114, jump @1430\n      : @1076 [@dyn 557] (gas: 31)\n 29502: t0 = a1 | a0\n 29505: a3 = a3 >> 0x20\n 29508: a2 = reverse a2\n 29510: a1 = a2 << 0x20\n 29513: a1 = a1 | a3\n 29516: a2 = a2 >> 0x20\n 29519: a3 = u64 [s1 + 0x170]\n 29523: a0 = s1 + 0x1918\n 29527: u64 [a0 + 0x288] = a3\n 29531: a3 = u64 [0x20040]\n 29536: a4 = u64 [0x20048]\n 29541: a5 = u64 [0x20050]\n 29546: u64 [a0 + 0x2e0] = a3\n 29550: u64 [a0 + 0x2d8] = a4\n 29554: u64 [a0 + 672] = 0\n 29558: a4 = a0 + 0x200\n 29562: u64 [a4 + 0xd0] = a5\n 29566: a3 = u64 [0x20058]\n 29571: u64 [a0 + 664] = 0\n 29575: u64 [a0 + 656] = 0\n 29579: u64 [a0 + 704] = 0\n 29583: u64 [a4 + 0xc8] = a3\n 29587: u64 [a4 + 0xb8] = a2\n 29591: u64 [a4 + 0xb0] = a1\n 29595: a2 = s1 + 0x1be0\n 29599: a3 = s1 + 0x1bc0\n 29603: a4 = s1 + 0x1ba0\n 29607: u64 [a0 + 0x2a8] = t0\n 29611: a0 = 0\n 29613: a1 = 0\n 29615: ra = 1116, jump @31\n      : @1077 [@dyn 558] (gas: 3)\n 29621: a0 = 0\n 29623: a1 = u64 [s1 + 0x190]\n 29627: jump @968\n      : @1078 (gas: 3)\n 29630: t0 = 0x45e\n 29634: a2 = s1 + 0x1918\n 29638: fallthrough\n      : @1079 [@dyn 559] (gas: 9)\n 29639: u64 [a2 + 312] = 0\n 29643: u64 [a2 + 304] = 0\n 29647: a0 = 0xd5b25b6300000000\n 29657: u64 [a2 + 0x140] = a0\n 29661: a1 = s1 + 0x1a40\n 29665: u64 [a2 + 296] = 0\n 29669: a0 = 0\n 29671: ra = 0x4bc\n 29675: jump @24\n      : @1080 (gas: 6)\n 29678: a0 = u64 [s1 + 0x100]\n 29682: ra = 0x460\n 29686: ecalli 4 // 'caller'\n 29688: a2 = u64 [s1 + 0x108]\n 29692: t0 = 0x462\n 29696: jump @1426\n      : @1081 [@dyn 560] (gas: 2)\n 29699: a2 = u64 [s1 + 0x108]\n 29703: t0 = 1122, jump @1426\n      : @1082 [@dyn 561] (gas: 7)\n 29709: u64 [a2 + 96] = 0\n 29712: u64 [a2 + 0x58] = a1\n 29715: u64 [a2 + 0x50] = a0\n 29718: a1 = s1 + 0x1960\n 29722: u64 [a2 + 0x48] = a3\n 29725: a0 = 0\n 29727: ra = 1124, jump @24\n      : @1083 [@dyn 562] (gas: 3)\n 29733: t0 = 0x466\n 29737: a1 = s1 + 0x1918\n 29741: fallthrough\n      : @1084 [@dyn 563] (gas: 8)\n 29742: u64 [a1 + 64] = 0\n 29745: u64 [a1 + 56] = 0\n 29748: u64 [a1 + 40] = 0x4\n 29752: a2 = a1\n 29754: a0 = 0x20\n 29757: a1 = s1 + 0x1940\n 29761: u64 [a2 + 48] = 0\n 29764: ra = 1128, jump @24\n      : @1085 [@dyn 564] (gas: 3)\n 29770: a0 = u64 [s1 + 0x118]\n 29774: a0 = i32 [a0]\n 29776: jump @1087 if a0 >u 63\n      : @1086 (gas: 4)\n 29780: a1 = u64 [s1 + 0x118]\n 29784: u32 [a1 + 0] = 0x40\n 29787: t0 = 0x46a\n 29791: jump @1434\n      : @1087 (gas: 1)\n 29794: t0 = 1130, jump @1434\n      : @1088 [@dyn 565] (gas: 4)\n 29800: ra = 0x46c\n 29804: ecalli 8 // 'hash_keccak_256'\n 29806: t0 = 0x46e\n 29810: jump @1440\n      : @1089 [@dyn 566] (gas: 1)\n 29813: t0 = 1134, jump @1440\n      : @1090 [@dyn 567] (gas: 8)\n 29819: u64 [a2 + 0x20] = a0\n 29822: u64 [a2 + 0x18] = a0\n 29825: u64 [a2 + 0x10] = a0\n 29828: a1 = s1 + 0x1920\n 29832: a0 = u64 [s1 + 0x198]\n 29836: u64 [a2 + 0x8] = a0\n 29839: a0 = 0\n 29841: ra = 1136, jump @24\n      : @1091 [@dyn 568] (gas: 13)\n 29847: a0 = u64 [s1 + 0x178]\n 29851: a1 = s1 + 0x1918\n 29855: u64 [a1] = a0\n 29857: a0 = u64 [s1 + 0x180]\n 29861: u64 [a1 + 0xfffffffffffffff8] = a0\n 29864: a0 = u64 [s1 + 0x188]\n 29868: u64 [a1 + 0xfffffffffffffff0] = a0\n 29871: a3 = a1\n 29873: a0 = 0x20\n 29876: a1 = s1 + 0x1900\n 29880: a2 = u64 [s1 + 0x190]\n 29884: u64 [a3 + 0xffffffffffffffe8] = a2\n 29887: ra = 1138, jump @24\n      : @1092 [@dyn 569] (gas: 3)\n 29893: a0 = u64 [s1 + 0x118]\n 29897: a0 = i32 [a0]\n 29899: jump @1094 if a0 >u 63\n      : @1093 (gas: 4)\n 29903: a0 = u64 [s1 + 0x118]\n 29907: u32 [a0 + 0] = 0x40\n 29910: t0 = 0x474\n 29914: jump @1434\n      : @1094 (gas: 1)\n 29917: t0 = 1140, jump @1434\n      : @1095 [@dyn 570] (gas: 5)\n 29923: ra = 0x476\n 29927: ecalli 8 // 'hash_keccak_256'\n 29929: a3 = u64 [s1 + 0x190]\n 29933: t0 = 0x478\n 29937: jump @1443\n      : @1096 [@dyn 571] (gas: 2)\n 29940: a3 = u64 [s1 + 0x190]\n 29944: t0 = 1144, jump @1443\n      : @1097 [@dyn 572] (gas: 11)\n 29950: u64 [s1 + 0x190] = a0\n 29954: sp = a0\n 29956: a2 = s1 + 0x1118\n 29960: u64 [a2 + 2016] = 0\n 29964: u64 [a2 + 2008] = 0\n 29968: u64 [a2 + 2000] = 0\n 29972: a1 = s1 + 0x18e0\n 29976: a0 = u64 [s1 + 0xf8]\n 29980: u64 [a2 + 0x7c8] = a0\n 29984: a0 = 0\n 29986: ra = 1146, jump @24\n      : @1098 [@dyn 573] (gas: 14)\n 29992: a0 = u64 [s1 + 0x170]\n 29996: a1 = s1 + 0x1118\n 30000: a2 = a1 + 0x700\n 30004: u64 [a2 + 0xc0] = a0\n 30008: a0 = u64 [s1 + 0x178]\n 30012: u64 [a2 + 0xb8] = a0\n 30016: a0 = u64 [s1 + 0x180]\n 30020: u64 [a2 + 0xb0] = a0\n 30024: a3 = a1\n 30026: a0 = 0x20\n 30029: a1 = s1 + 0x18c0\n 30033: a2 = u64 [s1 + 0x188]\n 30037: u64 [a3 + 0x7a8] = a2\n 30041: ra = 1148, jump @24\n      : @1099 [@dyn 574] (gas: 3)\n 30047: a0 = u64 [s1 + 0x118]\n 30051: a0 = i32 [a0]\n 30053: jump @1101 if a0 >=u 64\n      : @1100 (gas: 3)\n 30057: a0 = u64 [s1 + 0x118]\n 30061: u32 [a0 + 0] = 0x40\n 30064: fallthrough\n      : @1101 (gas: 12)\n 30065: a0 = sp + 0xffffffffffffffe0\n 30068: a0 = a0 & 0xffffffffffffffe0\n 30071: u64 [s1 + 0x188] = a0\n 30075: sp = a0\n 30077: i32 a2 = a0 + 0\n 30079: a1 = 0x40\n 30082: a0 = u64 [s1 + 0x110]\n 30086: ra = 0x47e\n 30090: ecalli 8 // 'hash_keccak_256'\n 30092: a3 = u64 [s1 + 0x188]\n 30096: t0 = 0x480\n 30100: jump @1437\n      : @1102 [@dyn 575] (gas: 2)\n 30103: a3 = u64 [s1 + 0x188]\n 30107: t0 = 1152, jump @1437\n      : @1103 [@dyn 576] (gas: 7)\n 30113: a1 = u64 [s1 + 0x190]\n 30117: u64 [a1 + 0x18] = a3\n 30120: u64 [a1 + 0x10] = a2\n 30123: u64 [a1 + 0x8] = a4\n 30126: u64 [a1] = a0\n 30128: a0 = s1 + 0x18a0\n 30132: ra = 1154, jump @26\n      : @1104 [@dyn 577] (gas: 4)\n 30138: a0 = s1 + 0x1118\n 30142: a0 = u64 [a0 + 0x788]\n 30146: a1 = a0 & 0xff\n 30150: jump @1144 if a1 == 0\n      : @1105 (gas: 2)\n 30154: a1 = a0 & 0xff00\n 30159: jump @1148 if a1 == 0\n      : @1106 (gas: 10)\n 30163: a2 = s1 + 0x1118\n 30167: u64 [a2 + 1912] = 0\n 30171: u64 [a2 + 1904] = 0\n 30175: a0 = 0xc98289f000000000\n 30185: u64 [a2 + 0x780] = a0\n 30189: a1 = s1 + 0x1880\n 30193: u64 [a2 + 1896] = 0\n 30197: a0 = 0\n 30199: ra = 0x4bc\n 30203: jump @24\n      : @1107 (gas: 5)\n 30206: a0 = s1 + 0x7ff\n 30210: a0 = a0 + 0x2e1\n 30214: ra = 0x484\n 30218: t0 = 0x512\n 30222: jump @1487\n      : @1108 [@dyn 578] (gas: 16)\n 30225: a1 = s1 + 0x7ff\n 30229: a1 = a1 + 0x119\n 30233: a2 = a1 + 0x100\n 30237: a0 = u64 [a2 + 0xe0]\n 30241: u64 [s1 + 0xd8] = a0\n 30245: a0 = u64 [a2 + 0xd8]\n 30249: u64 [s1 + 0xe0] = a0\n 30253: a0 = u64 [a2 + 0xd0]\n 30257: u64 [s1 + 0x118] = a0\n 30261: a0 = u64 [a2 + 0xc8]\n 30265: u64 [s1 + 0x110] = a0\n 30269: a0 = s1 + 0x7ff\n 30273: a0 = a0 + 0x2c1\n 30277: ra = 0x486\n 30281: t0 = 0x516\n 30285: jump @1500\n      : @1109 [@dyn 579] (gas: 16)\n 30288: a1 = s1 + 0x7ff\n 30292: a1 = a1 + 0x119\n 30296: a2 = a1 + 0x100\n 30300: a0 = u64 [a2 + 0xc0]\n 30304: u64 [s1 + 0xd0] = a0\n 30308: a0 = u64 [a2 + 0xb8]\n 30312: u64 [s1 + 0xc8] = a0\n 30316: a0 = u64 [a2 + 0xb0]\n 30320: u64 [s1 + 0xc0] = a0\n 30324: a0 = u64 [a2 + 0xa8]\n 30328: u64 [s1 + 0x100] = a0\n 30332: a0 = s1 + 0x7ff\n 30336: a0 = a0 + 0x2a1\n 30340: ra = 0x488\n 30344: t0 = 0x51c\n 30348: jump @1500\n      : @1110 [@dyn 580] (gas: 8)\n 30351: a0 = s1 + 0x7ff\n 30355: a0 = a0 + 0x119\n 30359: a0 = u64 [a0 + 0x188]\n 30363: u64 [s1 + 0x108] = a0\n 30367: a0 = s1 + 0x3000\n 30371: i32 a0 = a0 + 0xfffffffffffffaa0\n 30375: ecalli 9 // 'now'\n 30377: fallthrough\n      : @1111 (gas: 49)\n 30378: a0 = s1 + 0x2918\n 30382: t0 = u64 [a0 + 0x1a0]\n 30386: a4 = u64 [a0 + 0x198]\n 30390: u64 [s1 + 0x158] = a4\n 30394: t2 = u64 [a0 + 0x190]\n 30398: a3 = u64 [a0 + 0x188]\n 30402: u64 [s1 + 0x140] = a3\n 30406: a0 = clz t0\n 30408: a1 = clz a4\n 30410: a2 = a1 + 0x40\n 30413: a2 = a0 if t0 != 0\n 30416: a0 = clz t2\n 30418: a1 = clz a3\n 30420: a1 = a1 + 0x40\n 30423: a1 = a0 if t2 != 0\n 30426: a0 = a1 + 0x80\n 30430: a3 = a4 | t0\n 30433: a2 = a0 if a3 == 0\n 30436: a5 = a0 <u a1\n 30439: a5 = 0 if a3 != 0\n 30441: a4 = a5 >u 0\n 30443: a0 = a2 <u 0xf0\n 30447: a3 = a0 ^ 0x1\n 30450: a4 = a3 if a5 == 0\n 30453: a0 = a4 <u 0x1\n 30456: ra = a0 + 0xffffffffffffffff\n 30459: t1 = -a4\n 30461: a5 = -a5\n 30463: a3 = a5 - a3\n 30466: a2 = 0xef - a2\n 30470: a5 = t1 >u 0\n 30472: a0 = ra >u 0\n 30474: a0 = a5 if ra == 0\n 30477: a5 = a2 <u 0x100\n 30481: a5 = a5 ^ 0x1\n 30484: a1 = a3 >u 0\n 30486: a5 = a1 if a3 != 0\n 30489: a5 = a0 if a4 != 0\n 30492: u64 [s1 + 0x138] = t2\n 30496: u64 [s1 + 0x150] = t0\n 30500: a0 = t2 | t0\n 30503: a4 = u64 [s1 + 0x140]\n 30507: a1 = u64 [s1 + 0x158]\n 30511: a1 = a1 | a4\n 30514: a0 = a0 | a1\n 30517: a0 = a0 <u 0x1\n 30520: a0 = a0 | a5\n 30523: a4 = 0 if a0 != 0\n 30525: jump @1155 if a0 != 0\n      : @1112 (gas: 5)\n 30529: a0 = a2 ^ 0xff\n 30533: a0 = a0 | t1\n 30536: a1 = a3 | ra\n 30539: a0 = a0 | a1\n 30542: jump @1155 if a0 == 0\n      : @1113 (gas: 1)\n 30546: t0 = 1162, jump @1435\n      : @1114 [@dyn 581] (gas: 1)\n 30552: ra = 1164, jump @1501\n      : @1115 [@dyn 582] (gas: 1)\n 30558: t0 = 1166, jump @1496\n      : @1116 [@dyn 583] (gas: 1)\n 30564: ra = 1168, jump @1506\n      : @1117 [@dyn 584] (gas: 1)\n 30570: t0 = 1170, jump @1476\n      : @1118 [@dyn 585] (gas: 1)\n 30576: ra = 1172, jump @1506\n      : @1119 [@dyn 586] (gas: 8)\n 30582: u64 [s1 + 0x120] = a0\n 30586: u64 [s1 + 0xf8] = a1\n 30590: a2 = u64 [s1 + 0x160]\n 30594: a0 = a2 <u 0x80\n 30598: u64 [s1 + 0xf0] = a0\n 30602: a0 = u64 [s1 + 0x140]\n 30606: a1 = u64 [s1 + 0x138]\n 30610: ra = 1174, jump @1506\n      : @1120 [@dyn 587] (gas: 1)\n 30616: t0 = 1176, jump @1494\n      : @1121 [@dyn 588] (gas: 4)\n 30622: a3 = u64 [s1 + 0xf0]\n 30626: a0 = 0 if a3 == 0\n 30628: u64 [a4 + 0x78] = a0\n 30631: jump @1153 if a1 == 0\n      : @1122 (gas: 7)\n 30635: a2 = a3\n 30637: a0 = u64 [s1 + 0x168]\n 30641: a1 = u64 [s1 + 0x128]\n 30645: a0 = a0 | a1\n 30648: a5 = a3\n 30650: a1 = u64 [s1 + 0xf8]\n 30654: t0 = 1178, jump @1431\n      : @1123 [@dyn 589] (gas: 1)\n 30660: ra = 1180, jump @1501\n      : @1124 [@dyn 590] (gas: 1)\n 30666: t0 = 1182, jump @1495\n      : @1125 [@dyn 591] (gas: 1)\n 30672: ra = 1184, jump @1501\n      : @1126 [@dyn 592] (gas: 2)\n 30678: u64 [s1 + 0xf8] = a0\n 30682: t0 = 1186, jump @1480\n      : @1127 [@dyn 593] (gas: 1)\n 30688: ra = 1188, jump @1506\n      : @1128 [@dyn 594] (gas: 1)\n 30694: t0 = 1190, jump @1452\n      : @1129 [@dyn 595] (gas: 2)\n 30700: a1 = u64 [s1 + 0xf8]\n 30704: t0 = 1192, jump @1462\n      : @1130 [@dyn 596] (gas: 1)\n 30710: ra = 1194, jump @1501\n      : @1131 [@dyn 597] (gas: 1)\n 30716: t0 = 1196, jump @1442\n      : @1132 [@dyn 598] (gas: 1)\n 30722: t0 = 1198, jump @1453\n      : @1133 [@dyn 599] (gas: 5)\n 30728: t0 = ra <u a2\n 30731: a4 = u64 [s1 + 0x128]\n 30735: a5 = a4 <u a3\n 30738: a5 = t0 if t1 != 0\n 30741: t0 = 1200, jump @1454\n      : @1134 [@dyn 600] (gas: 20)\n 30747: t0 = a0 | a1\n 30750: a1 = a4 << 0x1\n 30753: a4 = u64 [s1 + 0x170]\n 30757: t1 = a4 >> 0x3f\n 30760: t1 = a1 | t1\n 30763: a1 = a4 << 0x1\n 30766: a4 = u64 [s1 + 0x178]\n 30770: t2 = a4 >> 0x3f\n 30773: a1 = a1 | t2\n 30776: a4 = a4 << 0x1\n 30779: a0 = u64 [s1 + 0x158]\n 30783: a4 = a4 | a0\n 30786: u64 [s1 + 0x178] = a4\n 30790: a0 = u64 [s1 + 0x150]\n 30794: a1 = a1 | a0\n 30797: u64 [s1 + 0x170] = a1\n 30801: a1 = a0 | t1\n 30804: u64 [s1 + 0x160] = a1\n 30808: a0 = a0 | t0\n 30811: t0 = 1202, jump @1429\n      : @1135 [@dyn 601] (gas: 18)\n 30817: t0 = a4 <u a2\n 30820: a2 = a4 - a2\n 30823: a4 = a3 <u 0x1\n 30826: a5 = a5 - a4\n 30829: a4 = u64 [a0 + 0x88]\n 30833: a4 = a4 - t0\n 30836: a3 = a3 + 0xffffffffffffffff\n 30839: u64 [a0 + 0x90] = a5\n 30843: u64 [a0 + 0x88] = a4\n 30847: t0 = a5 | a4\n 30850: u64 [a0 + 0x98] = a3\n 30854: a4 = a3 | a2\n 30857: a3 = a4 | t0\n 30860: a4 = ra & 0x1\n 30863: u64 [a0 + 0x58] = a4\n 30866: u64 [a0 + 0x80] = a2\n 30870: u64 [s1 + 336] = 0\n 30874: jump @1132 if a3 != 0\n      : @1136 (gas: 1)\n 30878: jump @1154\n      : @1137 (gas: 5)\n 30881: a0 = s1 + 0x1918\n 30885: u64 [a0 + 632] = 0\n 30889: u64 [a0 + 624] = 0\n 30893: u64 [a0 + 616] = 0\n 30897: t0 = 1204, jump @1498\n      : @1138 [@dyn 602] (gas: 5)\n 30903: i32 a1 = a1 + 0xfffffffffffffb80\n 30907: a1 = a1 + s1\n 30910: u64 [a2 + 0x280] = a0\n 30914: a0 = 0\n 30916: ra = 1206, jump @24\n      : @1139 [@dyn 603] (gas: 3)\n 30922: t0 = 0x4b8\n 30926: a1 = s1 + 0x1918\n 30930: fallthrough\n      : @1140 [@dyn 604] (gas: 8)\n 30931: u64 [a1 + 608] = 0\n 30935: u64 [a1 + 600] = 0\n 30939: u64 [a1 + 584] = 0x11\n 30944: a2 = a1\n 30946: a0 = 0x4\n 30949: a1 = s1 + 0x1b60\n 30953: u64 [a2 + 592] = 0\n 30957: ra = 1210, jump @24\n      : @1141 [@dyn 605] (gas: 3)\n 30963: a0 = u64 [s1 + 0x198]\n 30967: a0 = i32 [a0]\n 30969: jump @1143 if a0 >u 63\n      : @1142 (gas: 7)\n 30973: a1 = u64 [s1 + 0x198]\n 30977: u32 [a1 + 0] = 0x40\n 30980: a0 = 0x1\n 30983: a2 = 0x24\n 30986: a1 = u64 [s1 + 0x190]\n 30990: ecalli 13 // 'seal_return'\n 30992: jump @1144\n      : @1143 (gas: 5)\n 30994: a0 = 0x1\n 30997: a2 = 0x24\n 31000: a1 = u64 [s1 + 0x190]\n 31004: ecalli 13 // 'seal_return'\n 31006: fallthrough\n      : @1144 (gas: 9)\n 31007: a2 = s1 + 0x1118\n 31011: u64 [a2 + 1752] = 0\n 31015: u64 [a2 + 1744] = 0\n 31019: a0 = 0xafa4e2b600000000\n 31029: u64 [a2 + 0x6e0] = a0\n 31033: a1 = s1 + 0x17e0\n 31037: u64 [a2 + 1736] = 0\n 31041: a0 = 0\n 31043: ra = 1212, jump @24\n      : @1145 [@dyn 606] (gas: 3)\n 31049: a0 = u64 [s1 + 0x118]\n 31053: a0 = i32 [a0]\n 31055: jump @1147 if a0 >u 31\n      : @1146 (gas: 3)\n 31059: a1 = u64 [s1 + 0x118]\n 31063: u32 [a1 + 0] = 0x20\n 31066: fallthrough\n      : @1147 (gas: 5)\n 31067: a0 = 0x1\n 31070: a2 = 0x4\n 31073: a1 = u64 [s1 + 0x110]\n 31077: ecalli 13 // 'seal_return'\n 31079: fallthrough\n      : @1148 (gas: 15)\n 31080: a3 = s1 + 0x1118\n 31084: a4 = a3 + 0x700\n 31088: a1 = u64 [a4 + 0x90]\n 31092: a2 = u64 [a4 + 0xa0]\n 31096: a3 = u64 [a4 + 0x98]\n 31100: a0 = a0 | 0x100\n 31104: a4 = s1 + 0x2918\n 31108: a5 = a4 + 0x400\n 31112: u64 [a5 + 0x70] = a1\n 31115: u64 [a5 + 0x68] = a0\n 31118: u64 [a5 + 0x78] = a3\n 31121: u64 [a5 + 0x80] = a2\n 31125: a1 = s1 + 0x2d80\n 31129: a0 = u64 [s1 + 0x190]\n 31133: ra = 1214, jump @28\n      : @1149 [@dyn 607] (gas: 6)\n 31139: a0 = u64 [s1 + 0x100]\n 31143: ra = 0x4c0\n 31147: ecalli 4 // 'caller'\n 31149: a2 = u64 [s1 + 0x108]\n 31153: t0 = 0x4c2\n 31157: jump @1430\n      : @1150 [@dyn 608] (gas: 2)\n 31160: a2 = u64 [s1 + 0x108]\n 31164: t0 = 1218, jump @1430\n      : @1151 [@dyn 609] (gas: 38)\n 31170: a0 = a0 | a1\n 31173: a3 = a3 >> 0x20\n 31176: a2 = reverse a2\n 31178: a1 = a2 << 0x20\n 31181: a1 = a1 | a3\n 31184: a2 = a2 >> 0x20\n 31187: a5 = s1 + 0x1118\n 31191: u64 [a5 + 1792] = 0\n 31195: u64 [a5 + 1784] = 0\n 31199: u64 [a5 + 1776] = 0\n 31203: a3 = u64 [s1 + 0x198]\n 31207: u64 [a5 + 0x6e8] = a3\n 31211: a3 = u64 [s1 + 0xf8]\n 31215: u64 [a5 + 0x708] = a3\n 31219: a3 = u64 [0x20060]\n 31224: a4 = u64 [0x20068]\n 31229: u64 [a5 + 1824] = 0\n 31233: u64 [a5 + 1816] = 0\n 31237: u64 [a5 + 0x760] = a3\n 31241: u64 [a5 + 0x758] = a4\n 31245: a3 = u64 [0x20070]\n 31250: a4 = u64 [0x20078]\n 31255: u64 [a5 + 1808] = 0\n 31259: u64 [a5 + 1856] = 0\n 31263: u64 [a5 + 0x750] = a3\n 31267: a3 = a5 + 0x700\n 31271: u64 [a3 + 0x48] = a4\n 31274: u64 [a3 + 0x38] = a2\n 31277: u64 [a3 + 0x30] = a1\n 31280: a1 = a5\n 31282: a2 = s1 + 0x1860\n 31286: a3 = s1 + 0x1840\n 31290: a4 = s1 + 0x1820\n 31294: a5 = s1 + 0x1800\n 31298: u64 [a1 + 0x728] = a0\n 31302: a0 = 0\n 31304: a1 = 0\n 31306: ra = 1220, jump @34\n      : @1152 [@dyn 610] (gas: 3)\n 31312: a0 = 0\n 31314: a1 = u64 [s1 + 0x110]\n 31318: jump @968\n      : @1153 (gas: 2)\n 31321: u64 [s1 + 344] = 0\n 31325: fallthrough\n      : @1154 (gas: 5)\n 31326: a0 = u64 [s1 + 0x178]\n 31330: a0 = a0 << 0x1\n 31333: a4 = u64 [s1 + 0x158]\n 31337: a4 = a4 | a0\n 31340: fallthrough\n      : @1155 (gas: 2)\n 31341: a0 = u64 [s1 + 0x100]\n 31345: jump @1214 if a0 >=u a4\n      : @1156 (gas: 9)\n 31349: a0 = u64 [s1 + 0x108]\n 31353: a0 = a0 << 0x20\n 31356: a1 = a0 >> 0x20\n 31359: a0 = a1 + 0xffffffffffffffff\n 31362: a0 = a0 <u 0x32\n 31365: a0 = 0 if a1 == 0\n 31367: u64 [s1 + 0x128] = a1\n 31371: a0 = 0 if a1 == 0\n 31373: jump @1218 if a0 == 0\n      : @1157 (gas: 19)\n 31377: a0 = 0xffffffff\n 31387: u64 [s1 + 0x130] = a0\n 31391: a0 = u64 [s1 + 0xe0]\n 31395: a0 = a0 << 0x20\n 31398: a2 = a0 >> 0x20\n 31401: a3 = s1 + 0x7ff\n 31405: a3 = a3 + 0x119\n 31409: u64 [a3 + 320] = 0\n 31413: a0 = u64 [s1 + 0x110]\n 31417: a4 = a3 + 0x100\n 31421: u64 [a4 + 0x28] = a0\n 31424: a0 = u64 [s1 + 0x118]\n 31428: u64 [a4 + 0x30] = a0\n 31431: a1 = s1 + 0x7ff\n 31435: a1 = a1 + 0x241\n 31439: u64 [s1 + 0x138] = a2\n 31443: u64 [a4 + 0x38] = a2\n 31446: a0 = 0\n 31448: ra = 1222, jump @24\n      : @1158 [@dyn 611] (gas: 11)\n 31454: a1 = s1 + 0x7ff\n 31458: a1 = a1 + 0x119\n 31462: u64 [a1 + 288] = 0\n 31466: u64 [a1 + 280] = 0\n 31470: u64 [a1 + 264] = 0x3\n 31475: a2 = a1\n 31477: a0 = 0x20\n 31480: a1 = s1 + 0x7ff\n 31484: a1 = a1 + 0x221\n 31488: u64 [a2 + 272] = 0\n 31492: ra = 1224, jump @24\n      : @1159 [@dyn 612] (gas: 5)\n 31498: a0 = 0x20180\n 31503: u64 [s1 + 0x178] = a0\n 31507: a0 = i32 [0x20180]\n 31512: a1 = 0x3f\n 31515: jump @1161 if a1 <u a0\n      : @1160 (gas: 3)\n 31518: a1 = u64 [s1 + 0x178]\n 31522: u32 [a1 + 0] = 0x40\n 31525: fallthrough\n      : @1161 (gas: 3)\n 31526: a0 = 0xffffffff00000000\n 31536: u64 [s1 + 0x120] = a0\n 31540: t0 = 1226, jump @1466\n      : @1162 [@dyn 613] (gas: 10)\n 31546: a0 = 0x20190\n 31551: i32 a0 = a0 + 0\n 31553: i32 a2 = a2 + 0\n 31555: a1 = 0x40\n 31558: u64 [s1 + 0x170] = a0\n 31562: ra = 0x4cc\n 31566: ecalli 8 // 'hash_keccak_256'\n 31568: a3 = u64 [s1 + 0x198]\n 31572: t0 = 0x4ce\n 31576: jump @1460\n      : @1163 [@dyn 614] (gas: 2)\n 31579: a3 = u64 [s1 + 0x198]\n 31583: t0 = 1230, jump @1460\n      : @1164 [@dyn 615] (gas: 9)\n 31589: a5 = a4 + 0x100\n 31593: u64 [a5 + 0xc0] = a3\n 31597: u64 [a5 + 0xb8] = a2\n 31601: u64 [a5 + 0xb0] = a1\n 31605: u64 [a5 + 0xa8] = a0\n 31609: a0 = s1 + 0x7ff\n 31613: a0 = a0 + 0x201\n 31617: a1 = s1 + 0x2ac0\n 31621: ra = 1232, jump @26\n      : @1165 [@dyn 616] (gas: 15)\n 31627: a0 = s1 + 0x7ff\n 31631: a0 = a0 + 0x119\n 31635: a0 = u64 [a0 + 0xe8]\n 31639: u64 [s1 + 320] = 0\n 31643: u64 [s1 + 248] = 0\n 31647: u64 [s1 + 240] = 0\n 31651: u64 [s1 + 232] = 0\n 31655: u64 [s1 + 392] = 0\n 31659: u64 [s1 + 400] = 0\n 31663: u64 [s1 + 408] = 0\n 31667: a1 = u64 [s1 + 0x130]\n 31671: a0 = a0 & a1\n 31674: u64 [s1 + 0x108] = a0\n 31678: a0 = 0x1\n 31681: fallthrough\n      : @1166 (gas: 15)\n 31682: u64 [s1 + 0x180] = a0\n 31686: a4 = u64 [s1 + 0x190]\n 31690: a0 = a4 >u 0\n 31692: a3 = u64 [s1 + 0x198]\n 31696: a1 = a3 >u 0\n 31698: a1 = a0 if a3 == 0\n 31701: a0 = u64 [s1 + 0x108]\n 31705: a2 = u64 [s1 + 0x180]\n 31709: a0 = a0 <u a2\n 31712: a5 = u64 [s1 + 0x188]\n 31716: a2 = a5 >u 0\n 31718: a2 = a0 if a5 == 0\n 31721: a0 = a4 | a3\n 31724: a2 = a1 if a0 != 0\n 31727: jump @1222 if a2 != 0\n      : @1167 (gas: 6)\n 31731: a2 = s1 + 0x100\n 31735: a0 = u64 [a2 + 0x30]\n 31738: a1 = u64 [a2 + 0x40]\n 31741: a0 = a0 & a1\n 31744: a1 = u64 [a2 + 0x28]\n 31747: jump @1222 if a0 >=u a1\n      : @1168 (gas: 13)\n 31751: a2 = s1 + 0x7ff\n 31755: a2 = a2 + 0x119\n 31759: u64 [a2 + 224] = 0\n 31763: a0 = u64 [s1 + 0x110]\n 31767: u64 [a2 + 0xc8] = a0\n 31771: a0 = u64 [s1 + 0x118]\n 31775: u64 [a2 + 0xd0] = a0\n 31779: a1 = s1 + 0x7ff\n 31783: a1 = a1 + 0x1e1\n 31787: a0 = u64 [s1 + 0x138]\n 31791: u64 [a2 + 0xd8] = a0\n 31795: a0 = 0\n 31797: ra = 1234, jump @24\n      : @1169 [@dyn 617] (gas: 11)\n 31803: a0 = s1 + 0x7ff\n 31807: a0 = a0 + 0x119\n 31811: u64 [a0 + 192] = 0\n 31815: u64 [a0 + 184] = 0\n 31819: u64 [a0 + 176] = 0\n 31823: a3 = a0\n 31825: a0 = 0x20\n 31828: a1 = s1 + 0x7ff\n 31832: a1 = a1 + 0x1c1\n 31836: u64 [a3 + 168] = 0x2\n 31841: ra = 1236, jump @24\n      : @1170 [@dyn 618] (gas: 3)\n 31847: a0 = u64 [s1 + 0x178]\n 31851: a0 = i32 [a0]\n 31853: jump @1172 if a0 >u 63\n      : @1171 (gas: 4)\n 31857: a1 = u64 [s1 + 0x178]\n 31861: u32 [a1 + 0] = 0x40\n 31864: t0 = 0x4d6\n 31868: jump @1449\n      : @1172 (gas: 1)\n 31871: t0 = 1238, jump @1449\n      : @1173 [@dyn 619] (gas: 4)\n 31877: ra = 0x4d8\n 31881: ecalli 8 // 'hash_keccak_256'\n 31883: t0 = 0x4da\n 31887: jump @1427\n      : @1174 [@dyn 620] (gas: 1)\n 31890: t0 = 1242, jump @1427\n      : @1175 [@dyn 621] (gas: 11)\n 31896: u64 [a2 + 0xa0] = a0\n 31900: a0 = u64 [s1 + 0x190]\n 31904: u64 [a2 + 0x98] = a0\n 31908: a0 = u64 [s1 + 0x188]\n 31912: u64 [a2 + 0x90] = a0\n 31916: a1 = s1 + 0x7ff\n 31920: a1 = a1 + 0x1a1\n 31924: a0 = u64 [s1 + 0x180]\n 31928: u64 [a2 + 0x88] = a0\n 31932: a0 = 0\n 31934: ra = 1244, jump @24\n      : @1176 [@dyn 622] (gas: 15)\n 31940: a0 = u64 [s1 + 0x148]\n 31944: a1 = s1 + 0x7ff\n 31948: a1 = a1 + 0x119\n 31952: u64 [a1 + 0x80] = a0\n 31956: a0 = u64 [s1 + 0x150]\n 31960: u64 [a1 + 0x78] = a0\n 31963: a0 = u64 [s1 + 0x158]\n 31967: u64 [a1 + 0x70] = a0\n 31970: a3 = a1\n 31972: a0 = 0x20\n 31975: a1 = s1 + 0x7ff\n 31979: a1 = a1 + 0x181\n 31983: a2 = u64 [s1 + 0x160]\n 31987: u64 [a3 + 0x68] = a2\n 31990: ra = 1246, jump @24\n      : @1177 [@dyn 623] (gas: 3)\n 31996: a0 = u64 [s1 + 0x178]\n 32000: a0 = i32 [a0]\n 32002: jump @1179 if a0 >u 63\n      : @1178 (gas: 4)\n 32006: a0 = u64 [s1 + 0x178]\n 32010: u32 [a0 + 0] = 0x40\n 32013: t0 = 0x4e0\n 32017: jump @1472\n      : @1179 (gas: 1)\n 32020: t0 = 1248, jump @1472\n      : @1180 [@dyn 624] (gas: 22)\n 32026: ecalli 8 // 'hash_keccak_256'\n 32028: a3 = u64 [s1 + 0x160]\n 32032: a0 = u64 [a3 + 0x18]\n 32035: a1 = u64 [a3 + 0x10]\n 32038: a2 = u64 [a3 + 0x8]\n 32041: a3 = u64 [a3]\n 32043: a5 = reverse a0\n 32045: a4 = reverse a1\n 32047: a0 = reverse a2\n 32049: a2 = reverse a3\n 32051: a1 = u64 [s1 + 0x168]\n 32055: u64 [s1 + 0x158] = a2\n 32059: u64 [a1 + 0x18] = a2\n 32062: u64 [s1 + 0x160] = a0\n 32066: u64 [a1 + 0x10] = a0\n 32069: u64 [s1 + 0x150] = a4\n 32073: u64 [a1 + 0x8] = a4\n 32076: u64 [s1 + 0x148] = a5\n 32080: u64 [a1] = a5\n 32082: a0 = s1 + 0x7ff\n 32086: a0 = a0 + 0x161\n 32090: ra = 1250, jump @26\n      : @1181 [@dyn 625] (gas: 12)\n 32096: a2 = s1 + 0x7ff\n 32100: a2 = a2 + 0x119\n 32104: a0 = u64 [a2 + 0x50]\n 32107: a1 = u64 [a2 + 0x58]\n 32110: a2 = u64 [a2 + 0x48]\n 32113: a0 = a0 & 0xffffffffffffffff\n 32116: a1 = a1 & 0xffffffffffffffff\n 32119: a3 = u64 [s1 + 0x120]\n 32123: a2 = a2 & a3\n 32126: a1 = a1 | a2\n 32129: a0 = a0 | a1\n 32132: jump @1212 if a0 == 0\n      : @1182 (gas: 6)\n 32136: a5 = s1 + 0x100\n 32140: a1 = u64 [a5 + 0x48]\n 32143: a0 = a1 + 0x2\n 32146: a1 = a0 <u a1\n 32149: a3 = u64 [a5 + 0x50]\n 32152: t0 = 1252, jump @1477\n      : @1183 [@dyn 626] (gas: 15)\n 32158: a1 = u64 [a5 + 0x60]\n 32161: a3 = a3 + a1\n 32164: a1 = a3 <u a1\n 32167: a4 = u64 [a5 + 0x58]\n 32170: a1 = a1 + a4\n 32173: a4 = s1 + 0x2918\n 32177: a5 = a4 + 0x100\n 32181: u64 [a5 + 0xc8] = a0\n 32185: u64 [a5 + 0xd0] = a2\n 32189: u64 [a5 + 0xd8] = a3\n 32193: u64 [a5 + 0xe0] = a1\n 32197: a0 = s1 + 0x7ff\n 32201: a0 = a0 + 0x141\n 32205: a1 = s1 + 0x2ae0\n 32209: ra = 1254, jump @26\n      : @1184 [@dyn 627] (gas: 5)\n 32215: a0 = s1 + 0x7ff\n 32219: a0 = a0 + 0x119\n 32223: a0 = u64 [a0 + 0x30]\n 32226: a0 = a0 & 0xff\n 32230: jump @1212 if a0 != 0\n      : @1185 (gas: 13)\n 32234: a2 = s1 + 0x7ff\n 32238: a2 = a2 + 0x119\n 32242: u64 [a2 + 32] = 0\n 32245: a0 = u64 [s1 + 0x110]\n 32249: u64 [a2 + 0x8] = a0\n 32252: a0 = u64 [s1 + 0x118]\n 32256: u64 [a2 + 0x10] = a0\n 32259: a1 = s1 + 0x7ff\n 32263: a1 = a1 + 0x121\n 32267: a0 = u64 [s1 + 0x138]\n 32271: u64 [a2 + 0x18] = a0\n 32274: a0 = 0\n 32276: ra = 1256, jump @24\n      : @1186 [@dyn 628] (gas: 12)\n 32282: a0 = s1 + 0x7ff\n 32286: a0 = a0 + 0x119\n 32290: u64 [a0 + 0] = 0\n 32292: u64 [a0 + 4294967288] = 0\n 32295: a0 = s1 + 0x1000\n 32299: u64 [a0 + 4294965512] = 0\n 32303: a0 = 0x20\n 32306: a1 = s1 + 0x7ff\n 32310: a1 = a1 + 0x101\n 32314: a3 = s1 + 0x1000\n 32318: u64 [a3 + 4294965504] = 0x4\n 32323: ra = 1258, jump @24\n      : @1187 [@dyn 629] (gas: 3)\n 32329: a0 = u64 [s1 + 0x178]\n 32333: a0 = i32 [a0]\n 32335: jump @1189 if a0 >u 63\n      : @1188 (gas: 4)\n 32339: a0 = u64 [s1 + 0x178]\n 32343: u32 [a0 + 0] = 0x40\n 32346: t0 = 0x4ec\n 32350: jump @1449\n      : @1189 (gas: 1)\n 32353: t0 = 1260, jump @1449\n      : @1190 [@dyn 630] (gas: 5)\n 32359: ra = 0x4ee\n 32363: ecalli 8 // 'hash_keccak_256'\n 32365: a3 = u64 [s1 + 0x168]\n 32369: t0 = 0x4f0\n 32373: jump @1433\n      : @1191 [@dyn 631] (gas: 2)\n 32376: a3 = u64 [s1 + 0x168]\n 32380: t0 = 1264, jump @1433\n      : @1192 [@dyn 632] (gas: 13)\n 32386: a0 = s1 + 0x1000\n 32390: u64 [a0 + 4294965496] = 0\n 32394: a0 = s1 + 0x1000\n 32398: u64 [a0 + 4294965488] = 0\n 32402: a0 = s1 + 0x1000\n 32406: u64 [a0 + 4294965480] = 0\n 32410: a1 = s1 + 0x7ff\n 32414: a1 = a1 + 0xe1\n 32418: a0 = u64 [s1 + 0x100]\n 32422: a2 = s1 + 0x1000\n 32426: u64 [a2 + 0xfffffffffffff8e0] = a0\n 32430: a0 = 0\n 32432: ra = 1266, jump @24\n      : @1193 [@dyn 633] (gas: 16)\n 32438: a0 = u64 [s1 + 0x150]\n 32442: a1 = s1 + 0x1000\n 32446: u64 [a1 + 0xfffffffffffff8d8] = a0\n 32450: a0 = u64 [s1 + 0x158]\n 32454: a1 = s1 + 0x1000\n 32458: u64 [a1 + 0xfffffffffffff8d0] = a0\n 32462: a0 = u64 [s1 + 0x160]\n 32466: a1 = s1 + 0x1000\n 32470: u64 [a1 + 0xfffffffffffff8c8] = a0\n 32474: a0 = 0x20\n 32477: a1 = s1 + 0x7ff\n 32481: a1 = a1 + 0xc1\n 32485: a2 = u64 [s1 + 0x168]\n 32489: a3 = s1 + 0x1000\n 32493: u64 [a3 + 0xfffffffffffff8c0] = a2\n 32497: ra = 1268, jump @24\n      : @1194 [@dyn 634] (gas: 3)\n 32503: a0 = u64 [s1 + 0x178]\n 32507: a0 = i32 [a0]\n 32509: jump @1196 if a0 >u 63\n      : @1195 (gas: 4)\n 32513: a0 = u64 [s1 + 0x178]\n 32517: u32 [a0 + 0] = 0x40\n 32520: t0 = 0x4f6\n 32524: jump @1449\n      : @1196 (gas: 1)\n 32527: t0 = 1270, jump @1449\n      : @1197 [@dyn 635] (gas: 4)\n 32533: ra = 0x4f8\n 32537: ecalli 8 // 'hash_keccak_256'\n 32539: t0 = 0x4fa\n 32543: jump @1438\n      : @1198 [@dyn 636] (gas: 1)\n 32546: t0 = 1274, jump @1438\n      : @1199 [@dyn 637] (gas: 16)\n 32552: a0 = u64 [s1 + 0x198]\n 32556: a1 = s1 + 0x1000\n 32560: u64 [a1 + 0xfffffffffffff8b8] = a0\n 32564: a0 = u64 [s1 + 0x190]\n 32568: a1 = s1 + 0x1000\n 32572: u64 [a1 + 0xfffffffffffff8b0] = a0\n 32576: a0 = u64 [s1 + 0x188]\n 32580: a1 = s1 + 0x1000\n 32584: u64 [a1 + 0xfffffffffffff8a8] = a0\n 32588: a1 = s1 + 0x7ff\n 32592: a1 = a1 + 0xa1\n 32596: a0 = u64 [s1 + 0x180]\n 32600: a2 = s1 + 0x1000\n 32604: u64 [a2 + 0xfffffffffffff8a0] = a0\n 32608: a0 = 0\n 32610: ra = 1276, jump @24\n      : @1200 [@dyn 638] (gas: 16)\n 32616: a0 = u64 [s1 + 0x148]\n 32620: a1 = s1 + 0x1000\n 32624: u64 [a1 + 0xfffffffffffff898] = a0\n 32628: a0 = u64 [s1 + 0x150]\n 32632: a1 = s1 + 0x1000\n 32636: u64 [a1 + 0xfffffffffffff890] = a0\n 32640: a0 = u64 [s1 + 0x158]\n 32644: a1 = s1 + 0x1000\n 32648: u64 [a1 + 0xfffffffffffff888] = a0\n 32652: a0 = 0x20\n 32655: a1 = s1 + 0x7ff\n 32659: a1 = a1 + 0x81\n 32663: a2 = u64 [s1 + 0x160]\n 32667: a3 = s1 + 0x1000\n 32671: u64 [a3 + 0xfffffffffffff880] = a2\n 32675: ra = 1278, jump @24\n      : @1201 [@dyn 639] (gas: 3)\n 32681: a0 = u64 [s1 + 0x178]\n 32685: a0 = i32 [a0]\n 32687: jump @1203 if a0 >u 63\n      : @1202 (gas: 4)\n 32691: a0 = u64 [s1 + 0x178]\n 32695: u32 [a0 + 0] = 0x40\n 32698: t0 = 0x500\n 32702: jump @1472\n      : @1203 (gas: 1)\n 32705: t0 = 1280, jump @1472\n      : @1204 [@dyn 640] (gas: 4)\n 32711: ra = 0x502\n 32715: ecalli 8 // 'hash_keccak_256'\n 32717: t0 = 0x504\n 32721: jump @1446\n      : @1205 [@dyn 641] (gas: 1)\n 32724: t0 = 1284, jump @1446\n      : @1206 [@dyn 642] (gas: 2)\n 32730: a0 = a0 + 0x61\n 32733: ra = 1286, jump @26\n      : @1207 [@dyn 643] (gas: 4)\n 32739: a0 = s1 + 0x1000\n 32743: a0 = u64 [a0 + 0xfffffffffffff860]\n 32747: a1 = a0 & 0xff\n 32751: jump @1212 if a1 == 0\n      : @1208 (gas: 2)\n 32755: a0 = a0 & 0xff0000\n 32761: jump @1212 if a0 != 0\n      : @1209 (gas: 43)\n 32765: a0 = u64 [s1 + 0x180]\n 32769: a1 = s1 + 0x1000\n 32773: u64 [a1 + 0xfffffffffffff800] = a0\n 32777: a0 = u64 [s1 + 0x100]\n 32781: a1 = s1 + 0x1000\n 32785: u64 [a1 + 0xfffffffffffff820] = a0\n 32789: a0 = u64 [s1 + 0x110]\n 32793: a1 = s1 + 0x1000\n 32797: u64 [a1 + 0xfffffffffffff840] = a0\n 32801: a0 = u64 [s1 + 0x188]\n 32805: a1 = s1 + 0x1000\n 32809: u64 [a1 + 0xfffffffffffff808] = a0\n 32813: a0 = u64 [s1 + 0xc0]\n 32817: a1 = s1 + 0x1000\n 32821: u64 [a1 + 0xfffffffffffff828] = a0\n 32825: a0 = u64 [s1 + 0x118]\n 32829: a1 = s1 + 0x1000\n 32833: u64 [a1 + 0xfffffffffffff848] = a0\n 32837: a0 = u64 [s1 + 0x190]\n 32841: a1 = s1 + 0x1000\n 32845: u64 [a1 + 0xfffffffffffff810] = a0\n 32849: a0 = u64 [s1 + 0xc8]\n 32853: a1 = s1 + 0x1000\n 32857: u64 [a1 + 0xfffffffffffff830] = a0\n 32861: a0 = u64 [s1 + 0xe0]\n 32865: a1 = s1 + 0x1000\n 32869: u64 [a1 + 0xfffffffffffff850] = a0\n 32873: a0 = u64 [s1 + 0x198]\n 32877: a1 = s1 + 0x1000\n 32881: u64 [a1 + 0xfffffffffffff818] = a0\n 32885: a0 = u64 [s1 + 0xd0]\n 32889: a1 = s1 + 0x1000\n 32893: u64 [a1 + 0xfffffffffffff838] = a0\n 32897: a0 = s1 + 0x7ff\n 32901: a0 = a0 + 0x41\n 32904: a1 = s1 + 0x7ff\n 32908: a1 = a1 + 0x21\n 32911: a2 = s1 + 0x7ff\n 32915: a2 = a2 + 0x1\n 32918: a3 = u64 [s1 + 0xd8]\n 32922: a4 = s1 + 0x1000\n 32926: u64 [a4 + 0xfffffffffffff858] = a3\n 32930: ra = 1288, jump @1313\n      : @1210 [@dyn 644] (gas: 11)\n 32936: a0 = u64 [s1 + 0xe8]\n 32940: u64 [s1 + 0x7d8] = a0\n 32944: a0 = u64 [s1 + 0xf0]\n 32948: u64 [s1 + 0x7d0] = a0\n 32952: a0 = u64 [s1 + 0xf8]\n 32956: u64 [s1 + 0x7c8] = a0\n 32960: a0 = s1 + 0x7e0\n 32964: a1 = s1 + 0x7c0\n 32968: a2 = u64 [s1 + 0x140]\n 32972: u64 [s1 + 0x7c0] = a2\n 32976: ra = 1290, jump @1297\n      : @1211 [@dyn 645] (gas: 10)\n 32982: a1 = s1 + 0x700\n 32986: a0 = u64 [a1 + 0xf8]\n 32990: u64 [s1 + 0xe8] = a0\n 32994: a0 = u64 [a1 + 0xf0]\n 32998: u64 [s1 + 0xf0] = a0\n 33002: a0 = u64 [a1 + 0xe8]\n 33006: u64 [s1 + 0xf8] = a0\n 33010: a0 = u64 [a1 + 0xe0]\n 33014: u64 [s1 + 0x140] = a0\n 33018: fallthrough\n      : @1212 (gas: 11)\n 33019: a0 = u64 [s1 + 0x180]\n 33023: u64 [s1 + 0x780] = a0\n 33027: a0 = u64 [s1 + 0x188]\n 33031: u64 [s1 + 0x788] = a0\n 33035: a0 = u64 [s1 + 0x190]\n 33039: u64 [s1 + 0x790] = a0\n 33043: a0 = s1 + 0x7a0\n 33047: a1 = s1 + 0x780\n 33051: a2 = u64 [s1 + 0x198]\n 33055: u64 [s1 + 0x798] = a2\n 33059: ra = 1292, jump @1297\n      : @1213 [@dyn 646] (gas: 10)\n 33065: a1 = s1 + 0x700\n 33069: a0 = u64 [a1 + 0xb8]\n 33073: a2 = s1 + 0x100\n 33077: u64 [a2 + 0x98] = a0\n 33081: a0 = u64 [a1 + 0xb0]\n 33085: u64 [a2 + 0x90] = a0\n 33089: a0 = u64 [a1 + 0xa8]\n 33093: u64 [a2 + 0x88] = a0\n 33097: a0 = u64 [a1 + 0xa0]\n 33101: jump @1166\n      : @1214 (gas: 11)\n 33104: a2 = s1 + 0x7ff\n 33108: a2 = a2 + 0x119\n 33112: u64 [a2 + 376] = 0\n 33116: u64 [a2 + 368] = 0\n 33120: a0 = 0xcf114bd900000000\n 33130: u64 [a2 + 0x180] = a0\n 33134: a1 = s1 + 0x7ff\n 33138: a1 = a1 + 0x281\n 33142: u64 [a2 + 360] = 0\n 33146: a0 = 0\n 33148: ra = 1294, jump @24\n      : @1215 [@dyn 647] (gas: 2)\n 33154: a1 = i32 [0x20180]\n 33159: jump @1217 if a1 >u 31\n      : @1216 (gas: 3)\n 33163: u32 [0x20180] = 0x20\n 33169: a1 = 0x20190\n 33174: jump @865\n      : @1217 (gas: 2)\n 33177: a1 = 0x20190\n 33182: jump @865\n      : @1218 (gas: 11)\n 33185: a2 = s1 + 0x7ff\n 33189: a2 = a2 + 0x119\n 33193: u64 [a2 + 344] = 0\n 33197: u64 [a2 + 336] = 0\n 33201: a0 = 0x7862e95900000000\n 33211: u64 [a2 + 0x160] = a0\n 33215: a1 = s1 + 0x7ff\n 33219: a1 = a1 + 0x261\n 33223: u64 [a2 + 328] = 0\n 33227: a0 = 0\n 33229: ra = 1296, jump @24\n      : @1219 [@dyn 648] (gas: 2)\n 33235: a1 = i32 [0x20180]\n 33240: jump @1221 if a1 >u 31\n      : @1220 (gas: 3)\n 33244: u32 [0x20180] = 0x20\n 33250: a1 = 0x20190\n 33255: jump @865\n      : @1221 (gas: 2)\n 33258: a1 = 0x20190\n 33263: jump @865\n      : @1222 (gas: 3)\n 33266: a0 = 0\n 33268: a1 = u64 [s1 + 0x170]\n 33272: jump @968\n      : @1223 [@dyn 649] (gas: 2)\n 33275: ecalli 2 // 'call_data_load'\n 33277: fallthrough\n      : @1224 (gas: 10)\n 33278: a0 = u64 [sp + 0x10]\n 33281: a1 = u64 [sp + 0x18]\n 33284: a2 = 0x100000000\n 33294: a2 = a2 ^ a0\n 33297: a2 = a2 | a1\n 33300: a3 = a0 >> 0x20\n 33303: a3 = a3 <u 0x1\n 33306: a3 = 0 if a1 != 0\n 33308: a3 = 0 if a2 == 0\n 33310: jump @1226 if a3 == 0\n      : @1225 (gas: 12)\n 33313: a2 = u64 [sp]\n 33315: a3 = u64 [sp + 0x8]\n 33318: u64 [s1] = a2\n 33320: u64 [s1 + 0x8] = a3\n 33323: u64 [s1 + 0x10] = a0\n 33326: u64 [s1 + 0x18] = a1\n 33329: sp = s0 + 0xffffffffffffffc0\n 33332: ra = u64 [sp + 0x38]\n 33335: s0 = u64 [sp + 0x30]\n 33338: s1 = u64 [sp + 0x28]\n 33341: sp = sp + 0x40\n 33344: ret\n      : @1226 (gas: 8)\n 33346: a1 = 0x20190\n 33351: i32 a1 = a1 + 0\n 33353: a0 = 0x1\n 33356: a2 = 0\n 33358: ra = 0x514\n 33362: ecalli 13 // 'seal_return'\n 33364: t0 = 0x516\n 33368: jump @1500\n      : @1227 [@dyn 650] (gas: 1)\n 33371: t0 = 1302, jump @1500\n      : @1228 [@dyn 651] (gas: 3)\n 33377: a1 = 0x24\n 33380: ecalli 2 // 'call_data_load'\n 33382: fallthrough\n      : @1229 (gas: 7)\n 33383: a0 = u64 [sp + 0x18]\n 33386: a1 = u64 [sp + 0x10]\n 33389: a2 = u64 [sp + 0x8]\n 33392: a3 = a1 | a0\n 33395: a4 = a2 <u 0x1\n 33398: a4 = 0 if a3 != 0\n 33400: jump @1232 if a4 == 0\n      : @1230 (gas: 2)\n 33403: a3 = u64 [sp]\n 33405: t0 = 1304, jump @1461\n      : @1231 [@dyn 652] (gas: 1)\n 33411: ret\n      : @1232 (gas: 8)\n 33413: a1 = 0x20190\n 33418: i32 a1 = a1 + 0\n 33420: a0 = 0x1\n 33423: a2 = 0\n 33425: ra = 0x51a\n 33429: ecalli 13 // 'seal_return'\n 33431: t0 = 0x51c\n 33435: jump @1500\n      : @1233 [@dyn 653] (gas: 1)\n 33438: t0 = 1308, jump @1500\n      : @1234 [@dyn 654] (gas: 5)\n 33444: a1 = 0x44\n 33447: ra = 0x51e\n 33451: ecalli 2 // 'call_data_load'\n 33453: t0 = 0x520\n 33457: jump @1469\n      : @1235 [@dyn 655] (gas: 1)\n 33460: t0 = 1312, jump @1469\n      : @1236 [@dyn 656] (gas: 1)\n 33466: jump @1239 if a4 != 0\n      : @1237 (gas: 1)\n 33469: t0 = 1314, jump @1461\n      : @1238 [@dyn 657] (gas: 1)\n 33475: ret\n      : @1239 (gas: 8)\n 33477: a1 = 0x20190\n 33482: i32 a1 = a1 + 0\n 33484: a0 = 0x1\n 33487: a2 = 0\n 33489: ra = 0x524\n 33493: ecalli 13 // 'seal_return'\n 33495: t0 = 0x526\n 33499: jump @1487\n      : @1240 [@dyn 658] (gas: 1)\n 33502: t0 = 1318, jump @1487\n      : @1241 [@dyn 659] (gas: 4)\n 33508: ra = 0x528\n 33512: ecalli 2 // 'call_data_load'\n 33514: t0 = 0x52a\n 33518: jump @1469\n      : @1242 [@dyn 660] (gas: 1)\n 33521: t0 = 1322, jump @1469\n      : @1243 [@dyn 661] (gas: 1)\n 33527: jump @1246 if a4 != 0\n      : @1244 (gas: 1)\n 33530: t0 = 1324, jump @1461\n      : @1245 [@dyn 662] (gas: 1)\n 33536: ret\n      : @1246 (gas: 7)\n 33538: a1 = 0x20190\n 33543: i32 a1 = a1 + 0\n 33545: a0 = 0x1\n 33548: a2 = 0\n 33550: ra = 0x52e\n 33554: ecalli 13 // 'seal_return'\n 33556: fallthrough\n      : @1247 [@dyn 663] (gas: 33)\n 33557: sp = sp + 0xffffffffffffffa0\n 33560: u64 [sp + 0x58] = ra\n 33563: u64 [sp + 0x50] = s0\n 33566: u64 [sp + 0x48] = s1\n 33569: s0 = sp + 0x60\n 33572: sp = sp & 0xfffffffffffffff0\n 33575: a2 = u64 [a1 + 0x10]\n 33578: a5 = u64 [a1 + 0x8]\n 33581: a4 = u64 [a1]\n 33583: a1 = u64 [a1 + 0x18]\n 33586: t0 = a2 << 0x3f\n 33589: a3 = a5 >> 0x1\n 33592: t0 = a3 | t0\n 33595: a3 = a1 << 0x3f\n 33598: a2 = a2 >> 0x1\n 33601: a3 = a3 | a2\n 33604: a5 = a5 << 0x3f\n 33607: a2 = a4 >> 0x1\n 33610: a5 = a5 | a2\n 33613: t1 = a1 >> 0x1\n 33616: a4 = a4 & 0x1\n 33619: a1 = -a4\n 33621: s1 = a4 <u 0x1\n 33624: a2 = a5 & 0x7f\n 33627: t2 = a1 & a3\n 33630: a3 = a1 & t0\n 33633: a2 = a5 if a4 != 0\n 33636: a4 = a1 & t1\n 33639: a1 = a2 <u 0x20\n 33642: a1 = 0 if a3 != 0\n 33644: a5 = t2 | a4\n 33647: a1 = 0 if a5 != 0\n 33649: jump @1250 if s1 != a1\n      : @1248 (gas: 5)\n 33652: u64 [a0] = a2\n 33654: u64 [a0 + 0x8] = a3\n 33657: u64 [a0 + 0x10] = t2\n 33660: u64 [a0 + 0x18] = a4\n 33663: t0 = 1328, jump @1488\n      : @1249 [@dyn 664] (gas: 1)\n 33669: ret\n      : @1250 (gas: 1)\n 33671: t0 = 1330, jump @1457\n      : @1251 [@dyn 665] (gas: 1)\n 33677: ra = 1332, jump @24\n      : @1252 [@dyn 666] (gas: 7)\n 33684: u64 [sp + 24] = 0\n 33687: u64 [sp + 16] = 0\n 33690: u64 [sp + 0] = 0x22\n 33693: a0 = 0x4\n 33696: a1 = sp\n 33698: u64 [sp + 8] = 0\n 33701: ra = 1334, jump @24\n      : @1253 [@dyn 667] (gas: 2)\n 33708: a1 = i32 [0x20180]\n 33713: jump @1255 if a1 >u 63\n      : @1254 (gas: 2)\n 33717: u32 [0x20180] = 0x40\n 33723: fallthrough\n      : @1255 (gas: 7)\n 33724: a1 = 0x20190\n 33729: i32 a1 = a1 + 0\n 33731: a0 = 0x1\n 33734: a2 = 0x24\n 33737: ra = 0x538\n 33741: ecalli 13 // 'seal_return'\n 33743: fallthrough\n      : @1256 [@dyn 668] (gas: 46)\n 33744: sp = sp + 0xffffffffffffff70\n 33748: u64 [sp + 0x88] = ra\n 33752: u64 [sp + 0x80] = s0\n 33756: u64 [sp + 0x78] = s1\n 33759: s0 = sp + 0x90\n 33763: sp = sp & 0xfffffffffffffff0\n 33766: t0 = a0\n 33768: a2 = u64 [a1]\n 33770: t2 = u64 [a0 + 0x8]\n 33773: a5 = u64 [a1 + 0x8]\n 33776: t1 = u64 [a0]\n 33778: a3 = a2 + 0x1f\n 33781: ra = a3 <u a2\n 33784: a2 = a5 + ra\n 33787: a3 = a3 & 0xffffffffffffffe0\n 33790: u64 [sp + 0x8] = t1\n 33793: t1 = t1 + a3\n 33796: a4 = t1 <u a3\n 33799: a3 = a2 + t2\n 33802: a3 = a3 + a4\n 33805: s1 = a3 ^ a2\n 33808: a0 = a3 <u a2\n 33811: a0 = a4 if s1 == 0\n 33814: a4 = u64 [t0 + 0x18]\n 33817: a5 = a2 <u a5\n 33820: s1 = u64 [a1 + 0x10]\n 33823: t0 = u64 [t0 + 0x10]\n 33826: a1 = u64 [a1 + 0x18]\n 33829: a5 = ra if ra == 0\n 33832: a5 = a5 + s1\n 33835: s1 = a5 <u s1\n 33838: a2 = a5 + t0\n 33841: a0 = a0 + a2\n 33844: a5 = a2 <u a5\n 33847: a2 = a0 <u a2\n 33850: a1 = a1 + a4\n 33853: a1 = a1 + s1\n 33856: a1 = a1 + a5\n 33859: a5 = a1 + a2\n 33862: a1 = a5 >u 0\n 33864: a2 = a0 >u 0\n 33866: a2 = a1 if a5 != 0\n 33869: a1 = a0 | a5\n 33872: s1 = a3 >u 0\n 33874: s1 = a2 if a1 != 0\n 33877: jump @1260 if s1 != 0\n      : @1257 (gas: 13)\n 33880: a1 = u64 [sp + 0x8]\n 33883: a1 = t1 <u a1\n 33886: a2 = a3 ^ t2\n 33889: s1 = a3 <u t2\n 33892: s1 = a1 if a2 == 0\n 33895: a1 = a0 <u t0\n 33898: a2 = a5 ^ a4\n 33901: a4 = a5 <u a4\n 33904: a4 = a1 if a2 == 0\n 33907: a1 = a0 ^ t0\n 33910: a1 = a1 | a2\n 33913: a4 = s1 if a1 == 0\n 33916: jump @1260 if a4 != 0\n      : @1258 (gas: 7)\n 33919: u64 [sp + 0x50] = t1\n 33922: u64 [sp + 0x58] = a3\n 33925: u64 [sp + 0x60] = a0\n 33928: a0 = 0x40\n 33931: a1 = sp + 0x50\n 33934: u64 [sp + 0x68] = a5\n 33937: ra = 1338, jump @24\n      : @1259 [@dyn 669] (gas: 6)\n 33944: sp = s0 + 0xffffffffffffff70\n 33948: ra = u64 [sp + 0x88]\n 33952: s0 = u64 [sp + 0x80]\n 33956: s1 = u64 [sp + 0x78]\n 33959: sp = sp + 0x90\n 33963: ret\n      : @1260 (gas: 1)\n 33965: t0 = 1340, jump @1486\n      : @1261 [@dyn 670] (gas: 1)\n 33971: ra = 1342, jump @24\n      : @1262 [@dyn 671] (gas: 7)\n 33978: u64 [sp + 40] = 0\n 33981: u64 [sp + 32] = 0\n 33984: u64 [sp + 16] = 0x41\n 33988: a0 = 0x4\n 33991: a1 = sp + 0x10\n 33994: u64 [sp + 24] = 0\n 33997: ra = 1344, jump @24\n      : @1263 [@dyn 672] (gas: 2)\n 34004: a1 = i32 [0x20180]\n 34009: jump @1265 if a1 >u 63\n      : @1264 (gas: 2)\n 34013: u32 [0x20180] = 0x40\n 34019: fallthrough\n      : @1265 (gas: 7)\n 34020: a1 = 0x20190\n 34025: i32 a1 = a1 + 0\n 34027: a0 = 0x1\n 34030: a2 = 0x24\n 34033: ra = 0x542\n 34037: ecalli 13 // 'seal_return'\n 34039: fallthrough\n      : @1266 [@dyn 673] (gas: 30)\n 34040: sp = sp + 0xffffffffffffff80\n 34043: u64 [sp + 0x78] = ra\n 34046: u64 [sp + 0x70] = s0\n 34049: u64 [sp + 0x68] = s1\n 34052: s0 = sp + 0x80\n 34056: sp = sp & 0xfffffffffffffff0\n 34059: a4 = u64 [a2]\n 34061: a3 = u64 [a1]\n 34063: s1 = u64 [a2 + 0x8]\n 34066: t1 = u64 [a1 + 0x8]\n 34069: t2 = u64 [a2 + 0x10]\n 34072: a5 = u64 [a1 + 0x10]\n 34075: a2 = u64 [a2 + 0x18]\n 34078: a1 = u64 [a1 + 0x18]\n 34081: t0 = t1 ^ s1\n 34084: u64 [sp + 0x8] = s1\n 34087: s1 = t1 <u s1\n 34090: u64 [sp + 0x18] = a4\n 34093: u64 [sp + 0x10] = a3\n 34096: a3 = a3 <u a4\n 34099: u64 [sp] = a3\n 34101: s1 = a3 if t0 == 0\n 34104: a3 = a1 ^ a2\n 34107: ra = a1 <u a2\n 34110: t0 = a5 <u t2\n 34113: ra = t0 if a3 == 0\n 34116: a4 = a5 ^ t2\n 34119: a3 = a3 | a4\n 34122: ra = s1 if a3 == 0\n 34125: jump @1268 if ra != 0\n      : @1267 (gas: 23)\n 34128: a3 = a5 - t2\n 34131: a1 = a1 - a2\n 34134: a1 = a1 - t0\n 34137: a2 = a3 <u s1\n 34140: a1 = a1 - a2\n 34143: a3 = a3 - s1\n 34146: a2 = u64 [sp + 0x8]\n 34149: a2 = t1 - a2\n 34152: a4 = u64 [sp]\n 34154: a2 = a2 - a4\n 34157: a4 = u64 [sp + 0x18]\n 34160: a5 = u64 [sp + 0x10]\n 34163: a4 = a5 - a4\n 34166: u64 [a0] = a4\n 34168: u64 [a0 + 0x8] = a2\n 34171: u64 [a0 + 0x10] = a3\n 34174: u64 [a0 + 0x18] = a1\n 34177: sp = s0 + 0xffffffffffffff80\n 34180: ra = u64 [sp + 0x78]\n 34183: s0 = u64 [sp + 0x70]\n 34186: s1 = u64 [sp + 0x68]\n 34189: sp = sp + 0x80\n 34193: ret\n      : @1268 (gas: 8)\n 34195: u64 [sp + 80] = 0\n 34198: u64 [sp + 72] = 0\n 34201: u64 [sp + 64] = 0\n 34204: a0 = 0x4e487b7100000000\n 34214: a1 = sp + 0x40\n 34217: u64 [sp + 0x58] = a0\n 34220: a0 = 0\n 34222: ra = 1348, jump @24\n      : @1269 [@dyn 674] (gas: 7)\n 34229: u64 [sp + 56] = 0\n 34232: u64 [sp + 48] = 0\n 34235: u64 [sp + 32] = 0x11\n 34239: a0 = 0x4\n 34242: a1 = sp + 0x20\n 34245: u64 [sp + 40] = 0\n 34248: ra = 1350, jump @24\n      : @1270 [@dyn 675] (gas: 2)\n 34255: a1 = i32 [0x20180]\n 34260: jump @1272 if a1 >u 63\n      : @1271 (gas: 2)\n 34264: u32 [0x20180] = 0x40\n 34270: fallthrough\n      : @1272 (gas: 7)\n 34271: a1 = 0x20190\n 34276: i32 a1 = a1 + 0\n 34278: a0 = 0x1\n 34281: a2 = 0x24\n 34284: ra = 0x548\n 34288: ecalli 13 // 'seal_return'\n 34290: fallthrough\n      : @1273 [@dyn 676] (gas: 10)\n 34291: a3 = u64 [a1 + 0x18]\n 34294: a4 = u64 [a1 + 0x10]\n 34297: t0 = u64 [a1 + 0x8]\n 34300: a5 = a3 >u 0\n 34302: a2 = a4 >u 0\n 34304: a2 = a5 if a3 != 0\n 34307: a3 = a3 | a4\n 34310: a4 = t0 >u 0\n 34312: a4 = a2 if a3 != 0\n 34315: jump @1275 if a4 != 0\n      : @1274 (gas: 16)\n 34318: a1 = u64 [a1]\n 34320: a2 = a1 + 0x1f\n 34323: a1 = a2 <u a1\n 34326: a1 = a1 + t0\n 34329: a1 = a1 & 0x1\n 34332: a2 = a2 & 0xffffffffffffffe0\n 34335: a3 = a2 + 0x20\n 34338: a2 = a3 <u a2\n 34341: a4 = a1 + a2\n 34344: a1 = a4 <u a1\n 34347: a1 = a2 if a2 == 0\n 34350: u64 [a0 + 24] = 0\n 34353: u64 [a0] = a3\n 34355: u64 [a0 + 0x8] = a4\n 34358: u64 [a0 + 0x10] = a1\n 34361: ret\n      : @1275 (gas: 6)\n 34363: sp = sp + 0xffffffffffffffb0\n 34366: u64 [sp + 0x48] = ra\n 34369: u64 [sp + 0x40] = s0\n 34372: s0 = sp + 0x50\n 34375: sp = sp & 0xfffffffffffffff0\n 34378: t0 = 1354, jump @1457\n      : @1276 [@dyn 677] (gas: 1)\n 34384: ra = 1356, jump @24\n      : @1277 [@dyn 678] (gas: 7)\n 34391: u64 [sp + 24] = 0\n 34394: u64 [sp + 16] = 0\n 34397: u64 [sp + 0] = 0x41\n 34400: a0 = 0x4\n 34403: a1 = sp\n 34405: u64 [sp + 8] = 0\n 34408: ra = 1358, jump @24\n      : @1278 [@dyn 679] (gas: 2)\n 34415: a1 = i32 [0x20180]\n 34420: jump @1280 if a1 >u 63\n      : @1279 (gas: 2)\n 34424: u32 [0x20180] = 0x40\n 34430: fallthrough\n      : @1280 (gas: 7)\n 34431: a1 = 0x20190\n 34436: i32 a1 = a1 + 0\n 34438: a0 = 0x1\n 34441: a2 = 0x24\n 34444: ra = 0x550\n 34448: ecalli 13 // 'seal_return'\n 34450: fallthrough\n      : @1281 [@dyn 680] (gas: 9)\n 34451: sp = sp + 0xfffffffffffffec0\n 34455: u64 [sp + 0x138] = ra\n 34459: u64 [sp + 0x130] = s0\n 34463: u64 [sp + 0x128] = s1\n 34467: s0 = sp + 0x140\n 34471: sp = sp & 0xffffffffffffffe0\n 34474: s1 = a0\n 34476: ecalli 12 // 'return_data_size'\n 34478: fallthrough\n      : @1282 (gas: 1)\n 34479: jump @1295 if a0 == 0\n      : @1283 (gas: 11)\n 34483: u64 [sp + 0x18] = s1\n 34486: ecalli 12 // 'return_data_size'\n 34488: a2 = a0\n 34490: u64 [sp + 248] = 0\n 34494: u64 [sp + 240] = 0\n 34498: u64 [sp + 232] = 0\n 34502: a0 = sp + 0x100\n 34506: a1 = sp + 0xe0\n 34510: u64 [sp + 0x20] = a2\n 34513: u64 [sp + 0xe0] = a2\n 34517: ra = 1362, jump @1273\n      : @1284 [@dyn 681] (gas: 11)\n 34523: a0 = u64 [sp + 0x100]\n 34527: u64 [sp + 0x40] = a0\n 34530: a0 = u64 [sp + 0x108]\n 34534: u64 [sp + 0x38] = a0\n 34537: a0 = u64 [sp + 0x110]\n 34541: u64 [sp + 0x30] = a0\n 34544: a0 = u64 [sp + 0x118]\n 34548: u64 [sp + 0x28] = a0\n 34551: a0 = sp + 0xc0\n 34555: a1 = 0x40\n 34558: ra = 1364, jump @22\n      : @1285 [@dyn 682] (gas: 22)\n 34565: a0 = u64 [sp + 0xd8]\n 34569: u64 [sp + 0x58] = a0\n 34572: s1 = u64 [sp + 0xd0]\n 34576: a2 = u64 [sp + 0xc8]\n 34580: u64 [sp + 0x50] = a2\n 34583: a3 = u64 [sp + 0xc0]\n 34587: u64 [sp + 0x48] = a3\n 34590: a1 = u64 [sp + 0x28]\n 34593: u64 [sp + 0x98] = a1\n 34597: a1 = u64 [sp + 0x30]\n 34600: u64 [sp + 0x90] = a1\n 34604: a1 = u64 [sp + 0x38]\n 34607: u64 [sp + 0x88] = a1\n 34611: a1 = u64 [sp + 0x40]\n 34614: u64 [sp + 0x80] = a1\n 34618: u64 [sp + 0xb8] = a0\n 34622: u64 [sp + 0xb0] = s1\n 34626: u64 [sp + 0xa8] = a2\n 34630: a0 = sp + 0xa0\n 34634: a1 = sp + 0x80\n 34638: u64 [sp + 0xa0] = a3\n 34642: ra = 1366, jump @1256\n      : @1286 [@dyn 683] (gas: 12)\n 34648: a0 = u64 [sp + 0x48]\n 34651: a1 = u64 [sp + 0x58]\n 34654: a2 = u64 [sp + 0x50]\n 34657: a2 = a2 | a1\n 34660: a1 = a0 | s1\n 34663: a1 = a1 | a2\n 34666: a1 = a1 >> 0x20\n 34669: u64 [sp + 0x40] = s1\n 34672: a2 = a2 | s1\n 34675: a2 = a2 << 0x20\n 34678: a1 = a1 | a2\n 34681: jump @1294 if a1 != 0\n      : @1287 (gas: 7)\n 34685: u64 [sp + 120] = 0\n 34688: u64 [sp + 112] = 0\n 34691: u64 [sp + 104] = 0\n 34694: a1 = sp + 0x60\n 34697: a2 = u64 [sp + 0x20]\n 34700: u64 [sp + 0x60] = a2\n 34703: ra = 1368, jump @24\n      : @1288 [@dyn 684] (gas: 2)\n 34710: ecalli 12 // 'return_data_size'\n 34712: fallthrough\n      : @1289 (gas: 10)\n 34713: a3 = u64 [sp + 0x48]\n 34716: a1 = u64 [sp + 0x40]\n 34719: a2 = u64 [sp + 0x58]\n 34722: a1 = a1 | a2\n 34725: a2 = 0xffffffe0\n 34735: a2 = a3 <u a2\n 34738: a4 = u64 [sp + 0x50]\n 34741: a2 = 0 if a4 != 0\n 34743: a2 = 0 if a1 != 0\n 34745: jump @1294 if a2 == 0\n      : @1290 (gas: 3)\n 34748: s1 = a0\n 34750: a0 = a0 >> 0x20\n 34753: jump @1294 if a0 != 0\n      : @1291 (gas: 5)\n 34756: i32 a0 = a3 + 0x20\n 34759: i32 a1 = s1 + 0\n 34761: u64 [sp + 0x38] = a1\n 34764: a1 = s1\n 34766: ra = 1370, jump @37\n      : @1292 [@dyn 685] (gas: 6)\n 34773: u32 [sp + 0x120] = s1\n 34777: i32 a0 = a0 + 0\n 34779: i32 a1 = sp + 0x120\n 34783: a2 = 0\n 34785: ecalli 11 // 'return_data_copy'\n 34787: fallthrough\n      : @1293 (gas: 8)\n 34788: a4 = u64 [sp + 0x48]\n 34791: a0 = i32 [sp + 0x120]\n 34795: s1 = u64 [sp + 0x18]\n 34798: a1 = u64 [sp + 0x58]\n 34801: a2 = u64 [sp + 0x40]\n 34804: a3 = u64 [sp + 0x50]\n 34807: a5 = u64 [sp + 0x38]\n 34810: jump @1296 if a0 >=u a5\n      : @1294 (gas: 1)\n 34813: trap\n      : @1295 (gas: 5)\n 34814: a3 = 0\n 34816: a2 = 0\n 34818: a1 = 0\n 34820: a4 = 0x60\n 34823: fallthrough\n      : @1296 (gas: 10)\n 34824: u64 [s1] = a4\n 34826: u64 [s1 + 0x8] = a3\n 34829: u64 [s1 + 0x10] = a2\n 34832: u64 [s1 + 0x18] = a1\n 34835: sp = s0 + 0xfffffffffffffec0\n 34839: ra = u64 [sp + 0x138]\n 34843: s0 = u64 [sp + 0x130]\n 34847: s1 = u64 [sp + 0x128]\n 34851: sp = sp + 0x140\n 34855: ret\n      : @1297 (gas: 3)\n 34857: a1 = u32 [a1]\n 34859: a2 = 0xffffffff\n 34869: jump @1299 if a1 == a2\n      : @1298 (gas: 9)\n 34872: a1 = a1 + 0x1\n 34875: a2 = a1 <u 0x1\n 34878: a3 = a1 | a2\n 34881: a3 = a3 <u 0x1\n 34884: u64 [a0 + 24] = 0\n 34887: u64 [a0] = a1\n 34889: u64 [a0 + 0x8] = a2\n 34892: u64 [a0 + 0x10] = a3\n 34895: ret\n      : @1299 (gas: 6)\n 34897: sp = sp + 0xffffffffffffffb0\n 34900: u64 [sp + 0x48] = ra\n 34903: u64 [sp + 0x40] = s0\n 34906: s0 = sp + 0x50\n 34909: sp = sp & 0xfffffffffffffff0\n 34912: t0 = 1372, jump @1457\n      : @1300 [@dyn 686] (gas: 1)\n 34918: ra = 1374, jump @24\n      : @1301 [@dyn 687] (gas: 7)\n 34925: u64 [sp + 24] = 0\n 34928: u64 [sp + 16] = 0\n 34931: u64 [sp + 0] = 0x11\n 34934: a0 = 0x4\n 34937: a1 = sp\n 34939: u64 [sp + 8] = 0\n 34942: ra = 1376, jump @24\n      : @1302 [@dyn 688] (gas: 2)\n 34949: a1 = i32 [0x20180]\n 34954: jump @1304 if a1 >u 63\n      : @1303 (gas: 2)\n 34958: u32 [0x20180] = 0x40\n 34964: fallthrough\n      : @1304 (gas: 7)\n 34965: a1 = 0x20190\n 34970: i32 a1 = a1 + 0\n 34972: a0 = 0x1\n 34975: a2 = 0x24\n 34978: ra = 0x562\n 34982: ecalli 13 // 'seal_return'\n 34984: fallthrough\n      : @1305 [@dyn 689] (gas: 45)\n 34985: sp = sp + 0xffffffffffffff90\n 34988: u64 [sp + 0x68] = ra\n 34991: u64 [sp + 0x60] = s0\n 34994: u64 [sp + 0x58] = s1\n 34997: s0 = sp + 0x70\n 35000: sp = sp & 0xfffffffffffffff0\n 35003: a3 = u64 [a1 + 0x18]\n 35006: u64 [sp + 0x8] = a3\n 35009: a4 = u64 [a2 + 0x18]\n 35012: t2 = u64 [a1]\n 35014: u64 [sp] = t2\n 35016: a3 = u64 [a1 + 0x8]\n 35019: s1 = u64 [a2 + 0x8]\n 35022: a5 = u64 [a2]\n 35024: t1 = u64 [a1 + 0x10]\n 35027: t0 = u64 [a2 + 0x10]\n 35030: a2 = s1 + a3\n 35033: t2 = t2 + a5\n 35036: a5 = t2 <u a5\n 35039: a2 = a2 + a5\n 35042: ra = a2 ^ s1\n 35045: s1 = a2 <u s1\n 35048: s1 = a5 if ra == 0\n 35051: a1 = t0 + t1\n 35054: a5 = u64 [sp + 0x8]\n 35057: a5 = a5 + a4\n 35060: a4 = a1 <u t0\n 35063: a4 = a4 + a5\n 35066: a5 = a1 + s1\n 35069: a1 = a5 <u a1\n 35072: ra = a4 + a1\n 35075: a4 = a2 ^ a3\n 35078: a3 = a2 <u a3\n 35081: a1 = u64 [sp]\n 35083: s1 = t2 <u a1\n 35086: s1 = a3 if a4 != 0\n 35089: t0 = a5 <u t1\n 35092: a1 = u64 [sp + 0x8]\n 35095: a4 = ra ^ a1\n 35098: a3 = ra <u a1\n 35101: a3 = t0 if a4 == 0\n 35104: a1 = a5 ^ t1\n 35107: a1 = a1 | a4\n 35110: s1 = a3 if a1 != 0\n 35113: jump @1307 if s1 != 0\n      : @1306 (gas: 10)\n 35116: u64 [a0] = t2\n 35118: u64 [a0 + 0x8] = a2\n 35121: u64 [a0 + 0x10] = a5\n 35124: u64 [a0 + 0x18] = ra\n 35127: sp = s0 + 0xffffffffffffff90\n 35130: ra = u64 [sp + 0x68]\n 35133: s0 = u64 [sp + 0x60]\n 35136: s1 = u64 [sp + 0x58]\n 35139: sp = sp + 0x70\n 35142: ret\n      : @1307 (gas: 1)\n 35144: t0 = 1380, jump @1486\n      : @1308 [@dyn 690] (gas: 1)\n 35150: ra = 1382, jump @24\n      : @1309 [@dyn 691] (gas: 7)\n 35157: u64 [sp + 40] = 0\n 35160: u64 [sp + 32] = 0\n 35163: u64 [sp + 16] = 0x11\n 35167: a0 = 0x4\n 35170: a1 = sp + 0x10\n 35173: u64 [sp + 24] = 0\n 35176: ra = 1384, jump @24\n      : @1310 [@dyn 692] (gas: 2)\n 35183: a1 = i32 [0x20180]\n 35188: jump @1312 if a1 >u 63\n      : @1311 (gas: 2)\n 35192: u32 [0x20180] = 0x40\n 35198: fallthrough\n      : @1312 (gas: 7)\n 35199: a1 = 0x20190\n 35204: i32 a1 = a1 + 0\n 35206: a0 = 0x1\n 35209: a2 = 0x24\n 35212: ra = 0x56a\n 35216: ecalli 13 // 'seal_return'\n 35218: fallthrough\n      : @1313 [@dyn 693] (gas: 21)\n 35219: sp = sp + 0xfffffffffffff900\n 35223: a3 = sp + 0x600\n 35227: u64 [a3 + 0xf8] = ra\n 35231: u64 [a3 + 0xf0] = s0\n 35235: u64 [a3 + 0xe8] = s1\n 35239: s0 = sp + 0x700\n 35243: sp = sp & 0xffffffffffffffe0\n 35246: s1 = sp\n 35248: a2 = u64 [a2]\n 35250: u64 [s1 + 0x28] = a2\n 35253: a1 = u64 [a1]\n 35255: u64 [s1 + 0x30] = a1\n 35258: a1 = u64 [a0 + 0x10]\n 35261: u64 [s1 + 0x20] = a1\n 35264: a1 = u64 [a0 + 0x8]\n 35267: u64 [s1 + 0x38] = a1\n 35270: a0 = u64 [a0]\n 35272: u64 [s1 + 0x40] = a0\n 35275: i32 a0 = s1 + 0x620\n 35279: ecalli 9 // 'now'\n 35281: fallthrough\n      : @1314 (gas: 48)\n 35282: t0 = u64 [s1 + 0x638]\n 35286: t1 = u64 [s1 + 0x630]\n 35290: a0 = u64 [s1 + 0x628]\n 35294: a4 = u64 [s1 + 0x620]\n 35298: u64 [s1 + 0x78] = a4\n 35301: a2 = clz t0\n 35303: a1 = clz t1\n 35305: a3 = a1 + 0x40\n 35308: a3 = a2 if t0 != 0\n 35311: a2 = clz a0\n 35313: a1 = clz a4\n 35315: a1 = a1 + 0x40\n 35318: a1 = a2 if a0 != 0\n 35321: a4 = a1 + 0x80\n 35325: a2 = t1 | t0\n 35328: a3 = a4 if a2 == 0\n 35331: a5 = a4 <u a1\n 35334: a5 = 0 if a2 != 0\n 35336: a4 = a5 >u 0\n 35338: a1 = a3 <u 0xf0\n 35342: a2 = a1 ^ 0x1\n 35345: a4 = a2 if a5 == 0\n 35348: t2 = a4 <u 0x1\n 35351: ra = t2 + 0xffffffffffffffff\n 35354: t2 = -a4\n 35356: a5 = -a5\n 35358: a2 = a5 - a2\n 35361: a1 = 0xef - a3\n 35365: u64 [s1 + 0xa8] = t2\n 35369: a3 = t2 >u 0\n 35371: a5 = ra >u 0\n 35373: a5 = a3 if ra == 0\n 35376: u64 [s1 + 0xb8] = a1\n 35380: a3 = a1 <u 0x100\n 35384: a3 = a3 ^ 0x1\n 35387: a1 = a2 >u 0\n 35389: a3 = a1 if a2 != 0\n 35392: a3 = a5 if a4 != 0\n 35395: t2 = a0\n 35397: a0 = u64 [s1 + 0x78]\n 35400: a1 = t2 | t0\n 35403: a4 = a0 | t1\n 35406: a1 = a1 | a4\n 35409: a1 = a1 <u 0x1\n 35412: a1 = a1 | a3\n 35415: a3 = a0\n 35417: a3 = 0 if a1 != 0\n 35419: jump @1330 if a1 != 0\n      : @1315 (gas: 7)\n 35423: a1 = u64 [s1 + 0xb8]\n 35427: a1 = a1 ^ 0xff\n 35431: a5 = u64 [s1 + 0xa8]\n 35435: a1 = a1 | a5\n 35438: a4 = a2 | ra\n 35441: a1 = a1 | a4\n 35444: jump @1330 if a1 == 0\n      : @1316 (gas: 21)\n 35448: a4 = u64 [s1 + 0xb8]\n 35452: a3 = a4 + 0x1\n 35455: u64 [s1 + 0xb0] = a3\n 35459: a1 = a3 <u 0x1\n 35462: a1 = a1 + a2\n 35465: u64 [s1 + 0xa0] = a1\n 35469: a1 = a1 | a3\n 35472: a1 = a1 <u 0x1\n 35475: a1 = a1 + a5\n 35478: u64 [s1 + 0x90] = a1\n 35482: a1 = a1 <u a5\n 35485: a1 = a1 + ra\n 35488: u64 [s1 + 0x98] = a1\n 35492: a2 = 0xff - a4\n 35496: u64 [s1 + 0x88] = a2\n 35500: a2 = 0x80 - a2\n 35504: a1 = t2\n 35506: u64 [s1 + 0x70] = t2\n 35509: u64 [s1 + 0x68] = t0\n 35512: u64 [s1 + 0x60] = t1\n 35515: ra = 1388, jump @1501\n      : @1317 [@dyn 694] (gas: 6)\n 35521: u64 [s1 + 0x80] = a0\n 35525: u64 [s1 + 0x50] = a1\n 35528: a0 = u64 [s1 + 0x60]\n 35531: a1 = u64 [s1 + 0x68]\n 35534: a2 = u64 [s1 + 0x88]\n 35538: ra = 1390, jump @1506\n      : @1318 [@dyn 695] (gas: 7)\n 35544: u64 [s1 + 0x48] = a0\n 35547: u64 [s1 + 0x18] = a1\n 35550: a1 = u64 [s1 + 0xb8]\n 35554: a2 = 0x7f - a1\n 35557: a0 = u64 [s1 + 0x78]\n 35560: a1 = u64 [s1 + 0x70]\n 35563: ra = 1392, jump @1506\n      : @1319 [@dyn 696] (gas: 8)\n 35569: u64 [s1 + 0x10] = a0\n 35572: u64 [s1 + 0xb8] = a1\n 35576: a2 = u64 [s1 + 0x88]\n 35580: a0 = a2 <u 0x80\n 35584: u64 [s1 + 0x58] = a0\n 35587: a0 = u64 [s1 + 0x78]\n 35590: a1 = u64 [s1 + 0x70]\n 35593: ra = 1394, jump @1506\n      : @1320 [@dyn 697] (gas: 11)\n 35599: a5 = u64 [s1 + 0x58]\n 35602: a4 = u64 [s1 + 0x90]\n 35606: a3 = u64 [s1 + 0x98]\n 35610: a2 = u64 [s1 + 0xa0]\n 35614: a2 = a2 | a3\n 35617: a3 = u64 [s1 + 0xb0]\n 35621: a3 = a3 | a4\n 35624: a3 = a3 | a2\n 35627: a0 = 0 if a5 == 0\n 35629: u64 [s1 + 0xa8] = a0\n 35633: jump @1328 if a3 == 0\n      : @1321 (gas: 27)\n 35637: a0 = u64 [s1 + 0x50]\n 35640: a2 = u64 [s1 + 0x18]\n 35643: a0 = a0 | a2\n 35646: a2 = u64 [s1 + 0xb8]\n 35650: a0 = a2 if a5 == 0\n 35653: t0 = u64 [s1 + 0x68]\n 35656: a3 = t0\n 35658: t1 = u64 [s1 + 0x88]\n 35662: a3 = a0 if t1 != 0\n 35665: u64 [s1 + 0xb8] = a3\n 35669: a0 = u64 [s1 + 0x80]\n 35673: a2 = u64 [s1 + 0x48]\n 35676: a0 = a0 | a2\n 35679: a2 = u64 [s1 + 0x10]\n 35682: a0 = a2 if a5 == 0\n 35685: a4 = u64 [s1 + 0x60]\n 35688: a3 = a4\n 35690: a3 = a0 if t1 != 0\n 35693: u64 [s1 + 0x80] = a3\n 35697: a1 = 0 if a5 == 0\n 35699: u64 [s1 + 0x88] = a1\n 35703: u64 [s1 + 88] = 0x15180\n 35709: a0 = u64 [s1 + 0xb0]\n 35713: a2 = a0 + 0xffffffffffffff80\n 35716: a0 = a4\n 35718: a1 = t0\n 35720: ra = 1396, jump @1501\n      : @1322 [@dyn 698] (gas: 6)\n 35726: u64 [s1 + 0x50] = a0\n 35729: u64 [s1 + 0x18] = a1\n 35732: a0 = u64 [s1 + 0x78]\n 35735: a1 = u64 [s1 + 0x70]\n 35738: a2 = u64 [s1 + 0xb0]\n 35742: ra = 1398, jump @1501\n      : @1323 [@dyn 699] (gas: 7)\n 35748: u64 [s1 + 0x10] = a0\n 35751: u64 [s1 + 0x48] = a1\n 35754: a1 = u64 [s1 + 0xb0]\n 35758: a2 = 0x80 - a1\n 35762: a0 = u64 [s1 + 0x60]\n 35765: a1 = u64 [s1 + 0x68]\n 35768: ra = 1400, jump @1506\n      : @1324 [@dyn 700] (gas: 21)\n 35774: a2 = u64 [s1 + 0x48]\n 35777: a1 = a1 | a2\n 35780: a3 = u64 [s1 + 0xb0]\n 35784: a4 = a3 <u 0x80\n 35788: u64 [s1 + 0x48] = a4\n 35791: a2 = u64 [s1 + 0x18]\n 35794: a1 = a2 if a4 == 0\n 35797: a2 = u64 [s1 + 0x70]\n 35800: a2 = a1 if a3 != 0\n 35803: u64 [s1 + 0x70] = a2\n 35806: a1 = u64 [s1 + 0x10]\n 35809: a0 = a0 | a1\n 35812: a1 = u64 [s1 + 0x50]\n 35815: a0 = a1 if a4 == 0\n 35818: a1 = u64 [s1 + 0x78]\n 35821: a1 = a0 if a3 != 0\n 35824: a2 = a3\n 35826: u64 [s1 + 0x78] = a1\n 35829: a0 = u64 [s1 + 0x60]\n 35832: a1 = u64 [s1 + 0x68]\n 35835: ra = 1402, jump @1501\n      : @1325 [@dyn 701] (gas: 13)\n 35841: a5 = 0\n 35843: a2 = u64 [s1 + 0x48]\n 35846: a1 = 0 if a2 == 0\n 35848: a0 = 0 if a2 == 0\n 35850: a3 = u64 [s1 + 0x58]\n 35853: a2 = a3 + 0xffffffffffffffff\n 35856: u64 [s1 + 0x50] = a2\n 35859: a2 = a3 >u 0\n 35861: a2 = a2 + 0xffffffffffffffff\n 35864: u64 [s1 + 0x48] = a2\n 35867: t1 = u64 [s1 + 0x70]\n 35870: t2 = u64 [s1 + 0x78]\n 35873: fallthrough\n      : @1326 (gas: 87)\n 35874: u64 [s1 + 0x78] = a5\n 35877: a2 = t2 >> 0x3f\n 35880: a3 = t1 << 0x1\n 35883: a5 = a3 | a2\n 35886: a3 = t2 << 0x1\n 35889: a4 = u64 [s1 + 0xb8]\n 35893: a4 = a4 >> 0x3f\n 35896: a3 = a3 | a4\n 35899: u64 [s1 + 0x68] = a3\n 35902: a2 = u64 [s1 + 0x48]\n 35905: u64 [s1 + 0x70] = a5\n 35908: t2 = t1\n 35910: t1 = a2 ^ a5\n 35913: t0 = a2 <u a5\n 35916: a4 = u64 [s1 + 0x50]\n 35919: a5 = a4 <u a3\n 35922: a5 = t0 if t1 != 0\n 35925: a1 = a1 << 0x1\n 35928: a3 = a0 >> 0x3f\n 35931: a1 = a1 | a3\n 35934: u64 [s1 + 0x60] = a1\n 35937: a3 = t2 >> 0x3f\n 35940: a0 = a0 << 0x1\n 35943: a3 = a3 | a0\n 35946: a0 = u64 [s1 + 0xb8]\n 35950: a0 = a0 << 0x1\n 35953: a4 = u64 [s1 + 0x80]\n 35957: a1 = a4 >> 0x3f\n 35960: t0 = a0 | a1\n 35963: a1 = a4 << 0x1\n 35966: a4 = u64 [s1 + 0x88]\n 35970: t1 = a4 >> 0x3f\n 35973: t1 = a1 | t1\n 35976: a1 = a4 << 0x1\n 35979: a4 = u64 [s1 + 0xa8]\n 35983: t2 = a4 >> 0x3f\n 35986: a1 = a1 | t2\n 35989: a4 = a4 << 0x1\n 35992: a0 = u64 [s1 + 0x78]\n 35995: a4 = a4 | a0\n 35998: u64 [s1 + 0xa8] = a4\n 36002: a1 = a1 | 0\n 36004: u64 [s1 + 0x88] = a1\n 36008: a1 = t1 | 0\n 36010: u64 [s1 + 0x80] = a1\n 36014: a0 = t0 | 0\n 36016: u64 [s1 + 0xb8] = a0\n 36020: a0 = a2 - a3\n 36023: a0 = a0 <u a5\n 36026: a1 = a2 <u a3\n 36029: t0 = u64 [s1 + 0x60]\n 36032: a4 = a2 - t0\n 36035: a4 = a4 - a1\n 36038: a4 = a4 - a0\n 36041: a5 = a4 >>a 0x3f\n 36044: a0 = u64 [s1 + 0x58]\n 36047: a0 = a0 & a5\n 36050: a1 = u64 [s1 + 0x68]\n 36053: t2 = a1 - a0\n 36056: a1 = a1 <u a0\n 36059: a0 = u64 [s1 + 0x70]\n 36062: t1 = a0 - a1\n 36065: a1 = 0 if a0 != 0\n 36067: a0 = a3 - a1\n 36070: a1 = a3 <u a1\n 36073: a1 = t0 - a1\n 36076: a3 = u64 [s1 + 0xb0]\n 36080: ra = u64 [s1 + 0xa0]\n 36084: a2 = a3 | ra\n 36087: a2 = a2 <u 0x1\n 36090: a4 = u64 [s1 + 0x90]\n 36094: t0 = a4 <u a2\n 36097: a2 = a4 - a2\n 36100: a4 = a3 <u 0x1\n 36103: ra = ra - a4\n 36106: a4 = u64 [s1 + 0x98]\n 36110: a4 = a4 - t0\n 36113: a3 = a3 + 0xffffffffffffffff\n 36116: u64 [s1 + 0xa0] = ra\n 36120: u64 [s1 + 0x98] = a4\n 36124: t0 = ra | a4\n 36127: u64 [s1 + 0xb0] = a3\n 36131: a4 = a3 | a2\n 36134: a3 = a4 | t0\n 36137: a5 = a5 & 0x1\n 36140: u64 [s1 + 0x90] = a2\n 36144: jump @1326 if a3 != 0\n      : @1327 (gas: 1)\n 36148: jump @1329\n      : @1328 (gas: 2)\n 36150: a5 = 0\n 36152: fallthrough\n      : @1329 (gas: 4)\n 36153: a0 = u64 [s1 + 0xa8]\n 36157: a0 = a0 << 0x1\n 36160: a3 = a5 | a0\n 36163: fallthrough\n      : @1330 (gas: 2)\n 36164: a0 = u64 [s1 + 0x30]\n 36167: jump @1401 if a0 >=u a3\n      : @1331 (gas: 13)\n 36171: a0 = u64 [s1 + 0x20]\n 36174: a0 = a0 << 0x20\n 36177: a2 = a0 >> 0x20\n 36180: u64 [s1 + 1528] = 0\n 36184: a0 = u64 [s1 + 0x40]\n 36187: u64 [s1 + 0x5e0] = a0\n 36191: a0 = u64 [s1 + 0x38]\n 36194: u64 [s1 + 0x5e8] = a0\n 36198: a1 = s1 + 0x5e0\n 36202: u64 [s1 + 0xa8] = a2\n 36206: u64 [s1 + 0x5f0] = a2\n 36210: a0 = 0\n 36212: ra = 1404, jump @24\n      : @1332 [@dyn 702] (gas: 7)\n 36219: u64 [s1 + 1496] = 0\n 36223: u64 [s1 + 1488] = 0\n 36227: u64 [s1 + 1472] = 0x2\n 36232: a0 = 0x20\n 36235: a1 = s1 + 0x5c0\n 36239: u64 [s1 + 1480] = 0\n 36243: ra = 1406, jump @24\n      : @1333 [@dyn 703] (gas: 3)\n 36250: a1 = 0x20180\n 36255: a0 = i32 [0x20180]\n 36260: jump @1335 if a0 >u 63\n      : @1334 (gas: 2)\n 36264: u32 [0x20180] = 0x40\n 36270: fallthrough\n      : @1335 (gas: 15)\n 36271: a0 = sp + 0xffffffffffffffe0\n 36274: a2 = a0 & 0xffffffffffffffe0\n 36277: u64 [s1 + 0xa0] = a2\n 36281: sp = a2\n 36283: a0 = 0x20190\n 36288: u64 [s1 + 0x50] = a0\n 36291: i32 a0 = a0 + 0\n 36293: u64 [s1 + 0xb0] = a1\n 36297: i32 a2 = a2 + 0\n 36299: a1 = 0x40\n 36302: u64 [s1 + 0xb8] = a0\n 36306: ra = 0x580\n 36310: ecalli 8 // 'hash_keccak_256'\n 36312: t0 = 0x582\n 36316: jump @1444\n      : @1336 [@dyn 704] (gas: 1)\n 36319: t0 = 1410, jump @1444\n      : @1337 [@dyn 705] (gas: 11)\n 36325: a0 = u64 [s1 + 0x28]\n 36328: a0 = a0 << 0x20\n 36331: a0 = a0 >> 0x20\n 36334: u64 [s1 + 1464] = 0\n 36338: u64 [s1 + 1456] = 0\n 36342: u64 [s1 + 1448] = 0\n 36346: a1 = s1 + 0x5a0\n 36350: u64 [s1 + 0x90] = a0\n 36354: u64 [s1 + 0x5a0] = a0\n 36358: a0 = 0\n 36360: ra = 1412, jump @24\n      : @1338 [@dyn 706] (gas: 12)\n 36367: a0 = u64 [s1 + 0x78]\n 36370: a3 = s1 + 0x500\n 36374: u64 [a3 + 0x98] = a0\n 36378: a0 = u64 [s1 + 0x80]\n 36382: u64 [a3 + 0x90] = a0\n 36386: a0 = u64 [s1 + 0x88]\n 36390: u64 [a3 + 0x88] = a0\n 36394: a0 = 0x20\n 36397: a1 = s1 + 0x580\n 36401: a2 = u64 [s1 + 0x98]\n 36405: u64 [a3 + 0x80] = a2\n 36409: ra = 1414, jump @24\n      : @1339 [@dyn 707] (gas: 3)\n 36416: a1 = u64 [s1 + 0xb0]\n 36420: a0 = i32 [a1]\n 36422: jump @1341 if a0 >u 63\n      : @1340 (gas: 2)\n 36426: u32 [a1 + 0] = 0x40\n 36429: fallthrough\n      : @1341 (gas: 4)\n 36430: a0 = sp + 0xffffffffffffffe0\n 36433: a0 = a0 & 0xffffffffffffffe0\n 36436: u64 [s1 + 0x98] = a0\n 36440: t0 = 1416, jump @1470\n      : @1342 [@dyn 708] (gas: 4)\n 36446: ra = 0x58a\n 36450: ecalli 8 // 'hash_keccak_256'\n 36452: t0 = 0x58c\n 36456: jump @1458\n      : @1343 [@dyn 709] (gas: 1)\n 36459: t0 = 1420, jump @1458\n      : @1344 [@dyn 710] (gas: 2)\n 36465: a0 = s1 + 0x560\n 36469: ra = 1422, jump @26\n      : @1345 [@dyn 711] (gas: 7)\n 36476: a0 = u32 [s1 + 0x564]\n 36480: a1 = u64 [s1 + 0x568]\n 36484: a2 = u64 [s1 + 0x570]\n 36488: a0 = a0 << 0x20\n 36491: a1 = a1 | a2\n 36494: a0 = a0 | a1\n 36497: jump @1405 if a0 == 0\n      : @1346 (gas: 10)\n 36501: u64 [s1 + 1368] = 0\n 36505: a0 = u64 [s1 + 0x40]\n 36508: u64 [s1 + 0x540] = a0\n 36512: a0 = u64 [s1 + 0x38]\n 36515: u64 [s1 + 0x548] = a0\n 36519: a1 = s1 + 0x540\n 36523: a0 = u64 [s1 + 0xa8]\n 36527: u64 [s1 + 0x550] = a0\n 36531: a0 = 0\n 36533: ra = 1424, jump @24\n      : @1347 [@dyn 712] (gas: 7)\n 36540: u64 [s1 + 1336] = 0\n 36544: u64 [s1 + 1328] = 0\n 36548: u64 [s1 + 1312] = 0x4\n 36553: a0 = 0x20\n 36556: a1 = s1 + 0x520\n 36560: u64 [s1 + 1320] = 0\n 36564: ra = 1426, jump @24\n      : @1348 [@dyn 713] (gas: 3)\n 36571: a1 = u64 [s1 + 0xb0]\n 36575: a0 = i32 [a1]\n 36577: jump @1350 if a0 >u 63\n      : @1349 (gas: 2)\n 36581: u32 [a1 + 0] = 0x40\n 36584: fallthrough\n      : @1350 (gas: 4)\n 36585: a0 = sp + 0xffffffffffffffe0\n 36588: a0 = a0 & 0xffffffffffffffe0\n 36591: u64 [s1 + 0xa0] = a0\n 36595: t0 = 1428, jump @1470\n      : @1351 [@dyn 714] (gas: 22)\n 36601: ecalli 8 // 'hash_keccak_256'\n 36603: a3 = u64 [s1 + 0xa0]\n 36607: a0 = u64 [a3 + 0x18]\n 36610: a1 = u64 [a3 + 0x10]\n 36613: a2 = u64 [a3 + 0x8]\n 36616: a3 = u64 [a3]\n 36618: a0 = reverse a0\n 36620: u64 [s1 + 0xa0] = a0\n 36624: a0 = reverse a1\n 36626: u64 [s1 + 0x98] = a0\n 36630: a0 = reverse a2\n 36632: u64 [s1 + 0x88] = a0\n 36636: a0 = reverse a3\n 36638: u64 [s1 + 0x80] = a0\n 36642: u64 [s1 + 1304] = 0\n 36646: u64 [s1 + 1296] = 0\n 36650: u64 [s1 + 1288] = 0\n 36654: a1 = s1 + 0x500\n 36658: a0 = u64 [s1 + 0x30]\n 36661: u64 [s1 + 0x500] = a0\n 36665: a0 = 0\n 36667: ra = 1430, jump @24\n      : @1352 [@dyn 715] (gas: 12)\n 36674: a0 = u64 [s1 + 0x80]\n 36678: a3 = s1 + 0x400\n 36682: u64 [a3 + 0xf8] = a0\n 36686: a0 = u64 [s1 + 0x88]\n 36690: u64 [a3 + 0xf0] = a0\n 36694: a0 = u64 [s1 + 0x98]\n 36698: u64 [a3 + 0xe8] = a0\n 36702: a0 = 0x20\n 36705: a1 = s1 + 0x4e0\n 36709: a2 = u64 [s1 + 0xa0]\n 36713: u64 [a3 + 0xe0] = a2\n 36717: ra = 1432, jump @24\n      : @1353 [@dyn 716] (gas: 3)\n 36724: a1 = u64 [s1 + 0xb0]\n 36728: a0 = i32 [a1]\n 36730: jump @1355 if a0 >u 63\n      : @1354 (gas: 2)\n 36734: u32 [a1 + 0] = 0x40\n 36737: fallthrough\n      : @1355 (gas: 4)\n 36738: a0 = sp + 0xffffffffffffffe0\n 36741: a0 = a0 & 0xffffffffffffffe0\n 36744: u64 [s1 + 0xa0] = a0\n 36748: t0 = 1434, jump @1470\n      : @1356 [@dyn 717] (gas: 4)\n 36754: ra = 0x59c\n 36758: ecalli 8 // 'hash_keccak_256'\n 36760: t0 = 0x59e\n 36764: jump @1444\n      : @1357 [@dyn 718] (gas: 1)\n 36767: t0 = 1438, jump @1444\n      : @1358 [@dyn 719] (gas: 8)\n 36773: u64 [s1 + 1240] = 0\n 36777: u64 [s1 + 1232] = 0\n 36781: u64 [s1 + 1224] = 0\n 36785: a1 = s1 + 0x4c0\n 36789: a0 = u64 [s1 + 0x90]\n 36793: u64 [s1 + 0x4c0] = a0\n 36797: a0 = 0\n 36799: ra = 1440, jump @24\n      : @1359 [@dyn 720] (gas: 12)\n 36806: a0 = u64 [s1 + 0x78]\n 36809: a3 = s1 + 0x400\n 36813: u64 [a3 + 0xb8] = a0\n 36817: a0 = u64 [s1 + 0x80]\n 36821: u64 [a3 + 0xb0] = a0\n 36825: a0 = u64 [s1 + 0x88]\n 36829: u64 [a3 + 0xa8] = a0\n 36833: a0 = 0x20\n 36836: a1 = s1 + 0x4a0\n 36840: a2 = u64 [s1 + 0x98]\n 36844: u64 [a3 + 0xa0] = a2\n 36848: ra = 1442, jump @24\n      : @1360 [@dyn 721] (gas: 3)\n 36855: a1 = u64 [s1 + 0xb0]\n 36859: a0 = i32 [a1]\n 36861: jump @1362 if a0 >=u 64\n      : @1361 (gas: 2)\n 36865: u32 [a1 + 0] = 0x40\n 36868: fallthrough\n      : @1362 (gas: 4)\n 36869: a0 = sp + 0xffffffffffffffe0\n 36872: a0 = a0 & 0xffffffffffffffe0\n 36875: u64 [s1 + 0x98] = a0\n 36879: t0 = 1444, jump @1470\n      : @1363 [@dyn 722] (gas: 4)\n 36885: ra = 0x5a6\n 36889: ecalli 8 // 'hash_keccak_256'\n 36891: t0 = 0x5a8\n 36895: jump @1458\n      : @1364 [@dyn 723] (gas: 1)\n 36898: t0 = 1448, jump @1458\n      : @1365 [@dyn 724] (gas: 2)\n 36904: a0 = s1 + 0x480\n 36908: ra = 1450, jump @26\n      : @1366 [@dyn 725] (gas: 3)\n 36915: a1 = u64 [s1 + 0x480]\n 36919: a0 = a1 & 0xff\n 36923: jump @1406 if a0 == 0\n      : @1367 (gas: 3)\n 36927: u64 [s1 + 0x98] = a1\n 36931: a0 = a1 & 0xff0000\n 36937: jump @1407 if a0 != 0\n      : @1368 (gas: 16)\n 36941: a0 = u64 [s1 + 0x498]\n 36945: u64 [s1 + 0x58] = a0\n 36948: a0 = u64 [s1 + 0x490]\n 36952: u64 [s1 + 0x60] = a0\n 36955: a0 = u64 [s1 + 0x488]\n 36959: u64 [s1 + 0x68] = a0\n 36962: u64 [s1 + 1112] = 0\n 36966: a0 = u64 [s1 + 0x40]\n 36969: u64 [s1 + 0x440] = a0\n 36973: a0 = u64 [s1 + 0x38]\n 36976: u64 [s1 + 0x448] = a0\n 36980: a1 = s1 + 0x440\n 36984: a0 = u64 [s1 + 0xa8]\n 36988: u64 [s1 + 0x450] = a0\n 36992: a0 = 0\n 36994: ra = 1452, jump @24\n      : @1369 [@dyn 726] (gas: 7)\n 37001: u64 [s1 + 1080] = 0\n 37005: u64 [s1 + 1072] = 0\n 37009: u64 [s1 + 1056] = 0x1\n 37014: a0 = 0x20\n 37017: a1 = s1 + 0x420\n 37021: u64 [s1 + 1064] = 0\n 37025: ra = 1454, jump @24\n      : @1370 [@dyn 727] (gas: 3)\n 37032: a2 = u64 [s1 + 0xb0]\n 37036: a0 = i32 [a2]\n 37038: jump @1372 if a0 >u 63\n      : @1371 (gas: 2)\n 37042: u32 [a2 + 0] = 0x40\n 37045: fallthrough\n      : @1372 (gas: 4)\n 37046: a0 = sp + 0xffffffffffffffe0\n 37049: a0 = a0 & 0xffffffffffffffe0\n 37052: u64 [s1 + 0x88] = a0\n 37056: t0 = 1456, jump @1470\n      : @1373 [@dyn 728] (gas: 28)\n 37062: ecalli 8 // 'hash_keccak_256'\n 37064: a3 = u64 [s1 + 0x88]\n 37068: a0 = u64 [a3]\n 37070: a1 = u64 [a3 + 0x8]\n 37073: a2 = u64 [a3 + 0x10]\n 37076: a3 = u64 [a3 + 0x18]\n 37079: a0 = reverse a0\n 37081: u64 [s1 + 0x88] = a0\n 37085: a0 = reverse a1\n 37087: u64 [s1 + 0x80] = a0\n 37091: a0 = reverse a2\n 37093: u64 [s1 + 0x78] = a0\n 37096: a0 = reverse a3\n 37098: u64 [s1 + 0x70] = a0\n 37101: a1 = sp + 0xffffffffffffffe0\n 37104: a1 = a1 & 0xffffffffffffffe0\n 37107: sp = a1\n 37109: a2 = u64 [s1 + 0x98]\n 37113: a0 = a2 | 0x10000\n 37118: a2 = u64 [s1 + 0x58]\n 37121: u64 [a1 + 0x18] = a2\n 37124: a2 = u64 [s1 + 0x60]\n 37127: u64 [a1 + 0x10] = a2\n 37130: a2 = u64 [s1 + 0x68]\n 37133: u64 [a1 + 0x8] = a2\n 37136: u64 [a1] = a0\n 37138: a0 = u64 [s1 + 0xa0]\n 37142: ra = 1458, jump @28\n      : @1374 [@dyn 729] (gas: 25)\n 37149: a1 = u64 [s1 + 0x98]\n 37153: a0 = a1 & 0xff00\n 37158: u64 [s1 + 0x98] = a0\n 37162: a0 = sp + 0xffffffffffffffe0\n 37165: a1 = a0 & 0xffffffffffffffe0\n 37168: sp = a1\n 37170: a0 = u64 [s1 + 0x70]\n 37173: a0 = a0 + 0x1\n 37176: a2 = a0 <u 0x1\n 37179: a4 = u64 [s1 + 0x78]\n 37182: a4 = a4 + a2\n 37185: a2 = a0 | a4\n 37188: a2 = a2 <u 0x1\n 37191: a3 = u64 [s1 + 0x80]\n 37195: a2 = a2 + a3\n 37198: a3 = a2 <u a3\n 37201: a5 = u64 [s1 + 0x88]\n 37205: a3 = a3 + a5\n 37208: u64 [a1 + 0x18] = a3\n 37211: u64 [a1 + 0x10] = a2\n 37214: u64 [a1 + 0x8] = a4\n 37217: u64 [a1] = a0\n 37219: a0 = s1 + 0x400\n 37223: u64 [s1 + 0xa0] = a1\n 37227: ra = 1460, jump @26\n      : @1375 [@dyn 730] (gas: 27)\n 37234: t0 = u64 [s1 + 0x418]\n 37238: t1 = u64 [s1 + 0x410]\n 37242: a3 = u64 [s1 + 0x408]\n 37246: t2 = u64 [s1 + 0x400]\n 37250: a1 = sp + 0xffffffffffffffe0\n 37253: a1 = a1 & 0xffffffffffffffe0\n 37256: sp = a1\n 37258: a5 = u64 [0x20120]\n 37263: a5 = a5 + t2\n 37266: a2 = a5 <u t2\n 37269: a0 = a3 + a2\n 37272: a0 = a0 + 0xffffffffffffffff\n 37275: ra = a0 ^ a3\n 37278: a4 = a0 <u a3\n 37281: a4 = a2 if ra == 0\n 37284: a2 = t1 + 0xffffffffffffffff\n 37287: a4 = a4 + a2\n 37290: ra = a4 <u a2\n 37293: a2 = t1 <u 0x1\n 37296: a2 = t0 - a2\n 37299: a2 = a2 + ra\n 37302: u64 [a1 + 0x8] = a0\n 37305: u64 [a1] = a5\n 37307: u64 [a1 + 0x10] = a4\n 37310: u64 [a1 + 0x18] = a2\n 37313: a0 = u64 [s1 + 0x98]\n 37317: jump @1386 if a0 == 0\n      : @1376 (gas: 7)\n 37321: a0 = u64 [0x20128]\n 37326: u64 [s1 + 0x98] = a0\n 37330: a0 = t2 <u a0\n 37333: a0 = 0 if a3 != 0\n 37335: a2 = t1 | t0\n 37338: a0 = 0 if a2 != 0\n 37340: jump @1408 if a0 != 0\n      : @1377 (gas: 2)\n 37344: a0 = u64 [s1 + 0xa0]\n 37348: ra = 1462, jump @28\n      : @1378 [@dyn 731] (gas: 22)\n 37355: a0 = sp + 0xffffffffffffffe0\n 37358: a1 = a0 & 0xffffffffffffffe0\n 37361: sp = a1\n 37363: a2 = u64 [s1 + 0x70]\n 37366: a0 = a2 + 0x2\n 37369: a4 = a0 <u a2\n 37372: a3 = u64 [s1 + 0x78]\n 37375: a2 = a3 + a4\n 37378: a3 = a2 <u a3\n 37381: a3 = a4 if a4 == 0\n 37384: a4 = u64 [s1 + 0x80]\n 37388: a3 = a3 + a4\n 37391: a5 = a3 <u a4\n 37394: a4 = u64 [s1 + 0x88]\n 37398: a4 = a4 + a5\n 37401: u64 [a1 + 0x10] = a3\n 37404: u64 [a1 + 0x8] = a2\n 37407: u64 [a1] = a0\n 37409: u64 [a1 + 0x18] = a4\n 37412: a0 = s1 + 0x3e0\n 37416: u64 [s1 + 0xa0] = a1\n 37420: ra = 1464, jump @26\n      : @1379 [@dyn 732] (gas: 28)\n 37427: t0 = u64 [s1 + 0x3f8]\n 37431: t1 = u64 [s1 + 0x3f0]\n 37435: a3 = u64 [s1 + 0x3e8]\n 37439: a4 = u64 [s1 + 0x3e0]\n 37443: a1 = sp + 0xffffffffffffffe0\n 37446: a1 = a1 & 0xffffffffffffffe0\n 37449: sp = a1\n 37451: t2 = u64 [s1 + 0x98]\n 37455: t2 = t2 + a4\n 37458: a0 = t2 <u a4\n 37461: a2 = a3 + a0\n 37464: a5 = a2 <u a3\n 37467: a5 = a0 if a0 == 0\n 37470: a5 = a5 + t1\n 37473: a0 = a5 <u t1\n 37476: u64 [a1 + 0x10] = a5\n 37479: a5 = u64 [0x20130]\n 37484: a0 = a0 + t0\n 37487: u64 [a1 + 0x8] = a2\n 37490: u64 [a1] = t2\n 37492: a2 = a5 <u a4\n 37495: a3 = a3 + 0x1\n 37498: a2 = 0 if a3 != 0\n 37500: a3 = t1 & t0\n 37503: a3 = a3 + 0x1\n 37506: a2 = 0 if a3 != 0\n 37508: u64 [a1 + 0x18] = a0\n 37511: jump @1410 if a2 != 0\n      : @1380 (gas: 2)\n 37515: a0 = u64 [s1 + 0xa0]\n 37519: ra = 1466, jump @28\n      : @1381 [@dyn 733] (gas: 3)\n 37526: a0 = s1 + 0x3c0\n 37530: a1 = 0x40\n 37533: ra = 1468, jump @22\n      : @1382 [@dyn 734] (gas: 6)\n 37540: a4 = s1 + 0x300\n 37544: a0 = u64 [a4 + 0xd8]\n 37548: a1 = u64 [a4 + 0xd0]\n 37552: a2 = u64 [a4 + 0xc8]\n 37556: a3 = u64 [a4 + 0xc0]\n 37560: t0 = 1470, jump @1450\n      : @1383 [@dyn 735] (gas: 1)\n 37566: jump @1400 if a0 != 0\n      : @1384 (gas: 9)\n 37570: u64 [s1 + 952] = 0\n 37574: u64 [s1 + 944] = 0\n 37578: u64 [s1 + 936] = 0\n 37582: a1 = s1 + 0x3a0\n 37586: a0 = u64 [s1 + 0x98]\n 37590: u64 [s1 + 0x3a0] = a0\n 37594: a0 = a3\n 37596: u64 [s1 + 0xb8] = a3\n 37600: ra = 1472, jump @24\n      : @1385 [@dyn 736] (gas: 33)\n 37607: u64 [s1 + 824] = 0\n 37611: u64 [s1 + 816] = 0\n 37615: u64 [s1 + 808] = 0\n 37619: a0 = u64 [s1 + 0x30]\n 37622: u64 [s1 + 0x320] = a0\n 37626: u64 [s1 + 856] = 0\n 37630: u64 [s1 + 848] = 0\n 37634: u64 [s1 + 840] = 0\n 37638: a0 = u64 [s1 + 0x90]\n 37642: u64 [s1 + 0x340] = a0\n 37646: u64 [s1 + 888] = 0\n 37650: a0 = u64 [s1 + 0xa8]\n 37654: u64 [s1 + 0x370] = a0\n 37658: a0 = u64 [s1 + 0x38]\n 37661: u64 [s1 + 0x368] = a0\n 37665: a0 = u64 [0x20138]\n 37670: a1 = u64 [0x20140]\n 37675: a2 = u64 [0x20148]\n 37680: a3 = u64 [s1 + 0x40]\n 37683: u64 [s1 + 0x360] = a3\n 37687: u64 [s1 + 0x398] = a0\n 37691: u64 [s1 + 0x390] = a1\n 37695: u64 [s1 + 0x388] = a2\n 37699: a0 = u64 [0x20150]\n 37704: a1 = 0x20\n 37707: a2 = s1 + 0x380\n 37711: a3 = s1 + 0x360\n 37715: a4 = s1 + 0x340\n 37719: a5 = s1 + 0x320\n 37723: u64 [s1 + 0x380] = a0\n 37727: a0 = u64 [s1 + 0xb8]\n 37731: ra = 0x5d2\n 37735: jump @34\n      : @1386 (gas: 7)\n 37739: a0 = u64 [0x20128]\n 37744: u64 [s1 + 0x98] = a0\n 37748: a0 = t2 <u a0\n 37751: a0 = 0 if a3 != 0\n 37753: a2 = t1 | t0\n 37756: a0 = 0 if a2 != 0\n 37758: jump @1412 if a0 != 0\n      : @1387 (gas: 2)\n 37762: a0 = u64 [s1 + 0xa0]\n 37766: ra = 1474, jump @28\n      : @1388 [@dyn 737] (gas: 7)\n 37773: u64 [s1 + 1624] = 0\n 37777: u64 [s1 + 1616] = 0\n 37781: u64 [s1 + 1608] = 0\n 37785: u64 [s1 + 1600] = 0\n 37789: a0 = s1 + 0x280\n 37793: a1 = s1 + 0x640\n 37797: ra = 1476, jump @26\n      : @1389 [@dyn 738] (gas: 28)\n 37804: t0 = u64 [s1 + 0x298]\n 37808: t1 = u64 [s1 + 0x290]\n 37812: a3 = u64 [s1 + 0x288]\n 37816: a4 = u64 [s1 + 0x280]\n 37820: a1 = sp + 0xffffffffffffffe0\n 37823: a1 = a1 & 0xffffffffffffffe0\n 37826: sp = a1\n 37828: t2 = u64 [s1 + 0x98]\n 37832: t2 = t2 + a4\n 37835: a0 = t2 <u a4\n 37838: a2 = a3 + a0\n 37841: a5 = a2 <u a3\n 37844: a5 = a0 if a0 == 0\n 37847: a5 = a5 + t1\n 37850: a0 = a5 <u t1\n 37853: u64 [a1 + 0x10] = a5\n 37856: a5 = u64 [0x20130]\n 37861: a0 = a0 + t0\n 37864: u64 [a1 + 0x8] = a2\n 37867: u64 [a1] = t2\n 37869: a2 = a5 <u a4\n 37872: a3 = a3 + 0x1\n 37875: a2 = 0 if a3 != 0\n 37877: a3 = t1 & t0\n 37880: a3 = a3 + 0x1\n 37883: a2 = 0 if a3 != 0\n 37885: u64 [a1 + 0x18] = a0\n 37888: jump @1414 if a2 != 0\n      : @1390 (gas: 6)\n 37892: u64 [s1 + 1656] = 0\n 37896: u64 [s1 + 1648] = 0\n 37900: u64 [s1 + 1640] = 0\n 37904: u64 [s1 + 1632] = 0\n 37908: a0 = s1 + 0x660\n 37912: ra = 1478, jump @28\n      : @1391 [@dyn 739] (gas: 1)\n 37919: ra = 1480, jump @15\n      : @1392 [@dyn 740] (gas: 59)\n 37926: a1 = u64 [0x301b0]\n 37931: u64 [s1 + 0xa0] = a1\n 37935: a1 = u64 [0x301c0]\n 37940: u64 [s1 + 0x88] = a1\n 37944: a0 = u64 [0x301b8]\n 37949: u64 [s1 + 0x80] = a0\n 37953: ecalli 10 // 'ref_time_left'\n 37955: a1 = u64 [s1 + 0x80]\n 37959: a1 = reverse a1\n 37961: a2 = a1 << 0x20\n 37964: a3 = u64 [s1 + 0x88]\n 37968: a3 = reverse a3\n 37970: a3 = a3 >> 0x20\n 37973: a2 = a2 | a3\n 37976: a1 = a1 >> 0x20\n 37979: a3 = u64 [s1 + 0xa0]\n 37983: a3 = reverse a3\n 37985: a4 = 0x30190\n 37990: a5 = a3 << 0x20\n 37993: a1 = a1 | a5\n 37996: a3 = a3 >> 0x20\n 37999: u32 [0x301a0] = a3\n 38004: u64 [0x30198] = a1\n 38009: u64 [0x30190] = a2\n 38014: u64 [s1 + 1688] = 0\n 38018: u64 [s1 + 1680] = 0\n 38022: u64 [s1 + 1672] = 0\n 38026: a1 = u64 [s1 + 0x98]\n 38030: a2 = s1 + 0x600\n 38034: u64 [a2 + 0x80] = a1\n 38038: u32 [s1 + 1696] = 0\n 38042: a0 = a0 >u 0x8fc\n 38046: a1 = -a0\n 38048: u64 [a2 + 0xd8] = a1\n 38052: u64 [a2 + 0xd0] = a1\n 38056: u64 [a2 + 0xc8] = a1\n 38060: u64 [a2 + 0xc0] = a1\n 38064: a4 = a4 << 0x20\n 38067: a4 = a4 >> 0x20\n 38070: a0 = a0 << 0x23\n 38073: a0 = a0 | a4\n 38076: a1 = s1 + 0x680\n 38080: a1 = a1 << 0x20\n 38083: a1 = a1 >> 0x20\n 38086: a2 = s1 + 0x6c0\n 38090: a2 = a2 << 0x20\n 38093: a3 = a2 | a1\n 38096: a4 = u64 [s1 + 0x50]\n 38099: a4 = a4 << 0x20\n 38102: a4 = a4 >> 0x20\n 38105: a1 = s1 + 0x6a0\n 38109: a1 = a1 << 0x20\n 38112: a5 = a1 | a4\n 38115: a1 = 0xffffffffffffffff\n 38118: a2 = 0xffffffffffffffff\n 38121: ecalli 0 // 'call'\n 38122: u64 [s1 + 0xa0] = a0\n 38126: a0 = s1 + 0x260\n 38130: ra = 1482, jump @1281\n      : @1393 [@dyn 741] (gas: 2)\n 38136: a0 = u64 [s1 + 0xa0]\n 38140: jump @1419 if a0 != 0\n      : @1394 (gas: 3)\n 38144: a0 = s1 + 0x220\n 38148: a1 = 0x40\n 38151: ra = 1484, jump @22\n      : @1395 [@dyn 742] (gas: 6)\n 38158: a4 = s1 + 0x200\n 38162: a0 = u64 [a4 + 0x38]\n 38165: a1 = u64 [a4 + 0x30]\n 38168: a2 = u64 [a4 + 0x28]\n 38171: a3 = u64 [a4 + 0x20]\n 38174: t0 = 1486, jump @1450\n      : @1396 [@dyn 743] (gas: 1)\n 38180: jump @1400 if a0 != 0\n      : @1397 (gas: 9)\n 38184: u64 [s1 + 536] = 0\n 38188: u64 [s1 + 528] = 0\n 38192: u64 [s1 + 520] = 0\n 38196: a1 = s1 + 0x200\n 38200: a0 = u64 [s1 + 0x98]\n 38204: u64 [s1 + 0x200] = a0\n 38208: a0 = a3\n 38210: u64 [s1 + 0xb8] = a3\n 38214: ra = 1488, jump @24\n      : @1398 [@dyn 744] (gas: 32)\n 38221: u64 [s1 + 408] = 0\n 38225: u64 [s1 + 400] = 0\n 38229: u64 [s1 + 392] = 0\n 38233: a0 = u64 [s1 + 0x30]\n 38236: u64 [s1 + 0x180] = a0\n 38240: u64 [s1 + 440] = 0\n 38244: u64 [s1 + 432] = 0\n 38248: u64 [s1 + 424] = 0\n 38252: a0 = u64 [s1 + 0x90]\n 38256: u64 [s1 + 0x1a0] = a0\n 38260: u64 [s1 + 472] = 0\n 38264: a0 = u64 [s1 + 0xa8]\n 38268: u64 [s1 + 0x1d0] = a0\n 38272: a0 = u64 [s1 + 0x38]\n 38275: u64 [s1 + 0x1c8] = a0\n 38279: a0 = u64 [0x20158]\n 38284: a1 = u64 [0x20160]\n 38289: a2 = u64 [0x20168]\n 38294: a3 = u64 [s1 + 0x40]\n 38297: u64 [s1 + 0x1c0] = a3\n 38301: u64 [s1 + 0x1f8] = a0\n 38305: u64 [s1 + 0x1f0] = a1\n 38309: u64 [s1 + 0x1e8] = a2\n 38313: a0 = u64 [0x20170]\n 38318: a1 = 0x20\n 38321: a2 = s1 + 0x1e0\n 38325: a3 = s1 + 0x1c0\n 38329: a4 = s1 + 0x1a0\n 38333: a5 = s1 + 0x180\n 38337: u64 [s1 + 0x1e0] = a0\n 38341: a0 = u64 [s1 + 0xb8]\n 38345: ra = 1490, jump @34\n      : @1399 [@dyn 745] (gas: 7)\n 38352: sp = s0 + 0xfffffffffffff900\n 38356: a0 = sp + 0x600\n 38360: ra = u64 [a0 + 0xf8]\n 38364: s0 = u64 [a0 + 0xf0]\n 38368: s1 = u64 [a0 + 0xe8]\n 38372: sp = sp + 0x700\n 38376: ret\n      : @1400 (gas: 1)\n 38378: trap\n      : @1401 (gas: 8)\n 38379: u64 [s1 + 1552] = 0\n 38383: u64 [s1 + 1544] = 0\n 38387: u64 [s1 + 1536] = 0\n 38391: a0 = 0xcf114bd900000000\n 38401: a1 = s1 + 0x600\n 38405: u64 [s1 + 0x618] = a0\n 38409: a0 = 0\n 38411: ra = 1492, jump @24\n      : @1402 [@dyn 746] (gas: 2)\n 38418: a1 = i32 [0x20180]\n 38423: jump @1404 if a1 >u 31\n      : @1403 (gas: 2)\n 38427: u32 [0x20180] = 0x20\n 38433: fallthrough\n      : @1404 (gas: 6)\n 38434: a1 = 0x20190\n 38439: i32 a1 = a1 + 0\n 38441: a0 = 0x1\n 38444: a2 = 0x4\n 38447: ecalli 13 // 'seal_return'\n 38449: fallthrough\n      : @1405 (gas: 9)\n 38450: u64 [s1 + 208] = 0\n 38454: u64 [s1 + 200] = 0\n 38458: u64 [s1 + 192] = 0\n 38462: a0 = 0xa7a9536d00000000\n 38472: a1 = s1 + 0xc0\n 38476: u64 [s1 + 0xd8] = a0\n 38480: a0 = 0\n 38482: ra = 0x5e0\n 38486: jump @24\n      : @1406 (gas: 9)\n 38490: u64 [s1 + 240] = 0\n 38494: u64 [s1 + 232] = 0\n 38498: u64 [s1 + 224] = 0\n 38502: a0 = 0xafa4e2b600000000\n 38512: a1 = s1 + 0xe0\n 38516: u64 [s1 + 0xf8] = a0\n 38520: a0 = 0\n 38522: ra = 0x5e0\n 38526: jump @24\n      : @1407 (gas: 9)\n 38530: u64 [s1 + 1136] = 0\n 38534: u64 [s1 + 1128] = 0\n 38538: u64 [s1 + 1120] = 0\n 38542: a0 = 0x560ff90000000000\n 38552: a1 = s1 + 0x460\n 38556: u64 [s1 + 0x478] = a0\n 38560: a0 = 0\n 38562: ra = 0x5e0\n 38566: jump @24\n      : @1408 (gas: 8)\n 38570: u64 [s1 + 720] = 0\n 38574: u64 [s1 + 712] = 0\n 38578: u64 [s1 + 704] = 0\n 38582: a0 = 0x4e487b7100000000\n 38592: a1 = s1 + 0x2c0\n 38596: u64 [s1 + 0x2d8] = a0\n 38600: a0 = 0\n 38602: ra = 1494, jump @24\n      : @1409 [@dyn 747] (gas: 8)\n 38609: u64 [s1 + 696] = 0\n 38613: u64 [s1 + 688] = 0\n 38617: u64 [s1 + 672] = 0x11\n 38622: a0 = 0x4\n 38625: a1 = s1 + 0x2a0\n 38629: u64 [s1 + 680] = 0\n 38633: ra = 0x5de\n 38637: jump @24\n      : @1410 (gas: 8)\n 38641: u64 [s1 + 784] = 0\n 38645: u64 [s1 + 776] = 0\n 38649: u64 [s1 + 768] = 0\n 38653: a0 = 0x4e487b7100000000\n 38663: a1 = s1 + 0x300\n 38667: u64 [s1 + 0x318] = a0\n 38671: a0 = 0\n 38673: ra = 1496, jump @24\n      : @1411 [@dyn 748] (gas: 8)\n 38680: u64 [s1 + 760] = 0\n 38684: u64 [s1 + 752] = 0\n 38688: u64 [s1 + 736] = 0x11\n 38693: a0 = 0x4\n 38696: a1 = s1 + 0x2e0\n 38700: u64 [s1 + 744] = 0\n 38704: ra = 0x5de\n 38708: jump @24\n      : @1412 (gas: 8)\n 38712: u64 [s1 + 304] = 0\n 38716: u64 [s1 + 296] = 0\n 38720: u64 [s1 + 288] = 0\n 38724: a0 = 0x4e487b7100000000\n 38734: a1 = s1 + 0x120\n 38738: u64 [s1 + 0x138] = a0\n 38742: a0 = 0\n 38744: ra = 1498, jump @24\n      : @1413 [@dyn 749] (gas: 8)\n 38751: u64 [s1 + 280] = 0\n 38755: u64 [s1 + 272] = 0\n 38759: u64 [s1 + 256] = 0x11\n 38764: a0 = 0x4\n 38767: a1 = s1 + 0x100\n 38771: u64 [s1 + 264] = 0\n 38775: ra = 0x5de\n 38779: jump @24\n      : @1414 (gas: 8)\n 38783: u64 [s1 + 368] = 0\n 38787: u64 [s1 + 360] = 0\n 38791: u64 [s1 + 352] = 0\n 38795: a0 = 0x4e487b7100000000\n 38805: a1 = s1 + 0x160\n 38809: u64 [s1 + 0x178] = a0\n 38813: a0 = 0\n 38815: ra = 1500, jump @24\n      : @1415 [@dyn 750] (gas: 7)\n 38822: u64 [s1 + 344] = 0\n 38826: u64 [s1 + 336] = 0\n 38830: u64 [s1 + 320] = 0x11\n 38835: a0 = 0x4\n 38838: a1 = s1 + 0x140\n 38842: u64 [s1 + 328] = 0\n 38846: ra = 1502, jump @24\n      : @1416 [@dyn 751] (gas: 3)\n 38853: a0 = u64 [s1 + 0xb0]\n 38857: a0 = i32 [a0]\n 38859: jump @1418 if a0 >u 63\n      : @1417 (gas: 5)\n 38863: a1 = u64 [s1 + 0xb0]\n 38867: u32 [a1 + 0] = 0x40\n 38870: a0 = 0x1\n 38873: a2 = 0x24\n 38876: jump @1423\n      : @1418 (gas: 7)\n 38878: a0 = 0x1\n 38881: a2 = 0x24\n 38884: a1 = u64 [s1 + 0xb8]\n 38888: ecalli 13 // 'seal_return'\n 38890: a0 = 0\n 38892: ra = 0x5e2\n 38896: jump @43\n      : @1419 (gas: 8)\n 38900: u64 [s1 + 592] = 0\n 38904: u64 [s1 + 584] = 0\n 38908: u64 [s1 + 576] = 0\n 38912: a0 = 0x90b8ec1800000000\n 38922: a1 = s1 + 0x240\n 38926: u64 [s1 + 0x258] = a0\n 38930: a0 = 0\n 38932: ra = 1504, jump @24\n      : @1420 [@dyn 752] (gas: 3)\n 38939: a0 = u64 [s1 + 0xb0]\n 38943: a0 = i32 [a0]\n 38945: jump @1422 if a0 >u 31\n      : @1421 (gas: 5)\n 38949: a1 = u64 [s1 + 0xb0]\n 38953: u32 [a1 + 0] = 0x20\n 38956: a0 = 0x1\n 38959: a2 = 0x4\n 38962: jump @1423\n      : @1422 (gas: 7)\n 38964: a0 = 0x1\n 38967: a2 = 0x4\n 38970: a1 = u64 [s1 + 0xb8]\n 38974: ecalli 13 // 'seal_return'\n 38976: a0 = 0\n 38978: ra = 0x5e2\n 38982: jump @43\n      : @1423 (gas: 5)\n 38986: a1 = u64 [s1 + 0xb8]\n 38990: ecalli 13 // 'seal_return'\n 38992: a0 = 0\n 38994: ra = 0x5e2\n 38998: jump @43\n      : @1424 [export #0: 'call'] (gas: 2)\n 39002: a0 = 0\n 39004: ra = 1506, jump @43\n      : @1425 [@dyn 753] [export #1: 'deploy'] (gas: 2)\n 39011: a0 = 0x1\n 39014: ra = 1508, jump @43\n      : @1426 [@dyn 754] (gas: 15)\n 39021: a0 = u64 [a2 + 0x8]\n 39024: a1 = i32 [a2 + 0x10]\n 39027: a2 = u64 [a2]\n 39029: a0 = reverse a0\n 39031: a3 = a0 << 0x20\n 39034: a1 = reverse a1\n 39036: a1 = a1 >> 0x20\n 39039: a3 = a3 | a1\n 39042: a0 = a0 >> 0x20\n 39045: a1 = reverse a2\n 39047: a2 = a1 << 0x20\n 39050: a0 = a0 | a2\n 39053: a1 = a1 >> 0x20\n 39056: a2 = s1 + 0x1918\n 39060: jump [t0]\n      : @1427 (gas: 21)\n 39062: a3 = u64 [s1 + 0x168]\n 39066: a0 = u64 [a3 + 0x18]\n 39069: a1 = u64 [a3 + 0x10]\n 39072: a2 = u64 [a3 + 0x8]\n 39075: a3 = u64 [a3]\n 39077: a0 = reverse a0\n 39079: u64 [s1 + 0x160] = a0\n 39083: a0 = reverse a1\n 39085: u64 [s1 + 0x158] = a0\n 39089: a0 = reverse a2\n 39091: u64 [s1 + 0x150] = a0\n 39095: a0 = reverse a3\n 39097: u64 [s1 + 0x148] = a0\n 39101: a0 = sp + 0xffffffffffffffe0\n 39104: a0 = a0 & 0xffffffffffffffe0\n 39107: u64 [s1 + 0x168] = a0\n 39111: sp = a0\n 39113: a2 = s1 + 0x7ff\n 39117: a2 = a2 + 0x119\n 39121: a0 = u64 [s1 + 0x198]\n 39125: jump [t0]\n      : @1428 (gas: 17)\n 39127: a2 = u64 [s1 + 0x140]\n 39131: a0 = u64 [a2 + 0x8]\n 39134: a1 = i32 [a2 + 0x10]\n 39137: a2 = u64 [a2]\n 39139: a0 = reverse a0\n 39141: a3 = a0 << 0x20\n 39144: a1 = reverse a1\n 39146: a1 = a1 >> 0x20\n 39149: a3 = a3 | a1\n 39152: a0 = a0 >> 0x20\n 39155: a1 = reverse a2\n 39157: a2 = a1 << 0x20\n 39160: a0 = a0 | a2\n 39163: a1 = a1 >> 0x20\n 39166: a2 = s1 + 0x7ff\n 39170: a2 = a2 + 0x119\n 39174: jump [t0]\n      : @1429 (gas: 27)\n 39176: u64 [s1 + 0x168] = a0\n 39180: a0 = ra - a3\n 39183: a0 = a0 <u a5\n 39186: a1 = ra <u a3\n 39189: a5 = u64 [s1 + 0x138]\n 39193: a4 = ra - a5\n 39196: a4 = a4 - a1\n 39199: a4 = a4 - a0\n 39202: ra = a4 >>a 0x3f\n 39205: a0 = u64 [s1 + 0x130]\n 39209: a0 = ra & a0\n 39212: a1 = u64 [s1 + 0x140]\n 39216: t2 = a1 - a0\n 39219: a1 = a1 <u a0\n 39222: t1 = a2 - a1\n 39225: a1 = 0 if a2 != 0\n 39227: a0 = a3 - a1\n 39230: u64 [s1 + 0x148] = a0\n 39234: a1 = a3 <u a1\n 39237: a1 = a5 - a1\n 39240: a0 = s1 + 0x100\n 39244: a3 = u64 [a0 + 0x98]\n 39248: a5 = u64 [a0 + 0x90]\n 39252: a2 = a3 | a5\n 39255: a2 = a2 <u 0x1\n 39258: a4 = u64 [a0 + 0x80]\n 39262: jump [t0]\n      : @1430 (gas: 8)\n 39264: a0 = u64 [a2 + 0x8]\n 39267: a1 = i32 [a2 + 0x10]\n 39270: a2 = u64 [a2]\n 39272: a3 = reverse a0\n 39274: a0 = a3 << 0x20\n 39277: a1 = reverse a1\n 39279: a1 = a1 >> 0x20\n 39282: jump [t0]\n      : @1431 (gas: 24)\n 39284: a0 = a1 if a2 == 0\n 39287: a2 = u64 [s1 + 0x150]\n 39291: a3 = a2\n 39293: a1 = a2\n 39295: a2 = u64 [s1 + 0x160]\n 39299: a3 = a0 if a2 != 0\n 39302: u64 [s1 + 0x168] = a3\n 39306: a0 = u64 [s1 + 0x148]\n 39310: a3 = u64 [s1 + 0x130]\n 39314: a0 = a0 | a3\n 39317: a3 = u64 [s1 + 0x120]\n 39321: a0 = a3 if a5 == 0\n 39324: a4 = u64 [s1 + 0x158]\n 39328: a3 = a4\n 39330: a3 = a0 if a2 != 0\n 39333: u64 [s1 + 0x160] = a3\n 39337: a0 = u64 [s1 + 0x170]\n 39341: a0 = 0 if a5 == 0\n 39343: u64 [s1 + 0x170] = a0\n 39347: u64 [s1 + 304] = 0x15180\n 39354: a0 = u64 [s1 + 0x198]\n 39358: a2 = a0 + 0xffffffffffffff80\n 39361: a0 = a4\n 39363: jump [t0]\n      : @1432 (gas: 15)\n 39365: a0 = u64 [a2 + 0x8]\n 39368: a1 = i32 [a2 + 0x10]\n 39371: a2 = u64 [a2]\n 39373: a0 = reverse a0\n 39375: a3 = a0 << 0x20\n 39378: a1 = reverse a1\n 39380: a1 = a1 >> 0x20\n 39383: a3 = a3 | a1\n 39386: a0 = a0 >> 0x20\n 39389: a1 = reverse a2\n 39391: a2 = a1 << 0x20\n 39394: a0 = a0 | a2\n 39397: a1 = a1 >> 0x20\n 39400: a2 = s1 + 0x2118\n 39404: jump [t0]\n      : @1433 (gas: 13)\n 39406: a0 = u64 [a3 + 0x18]\n 39409: a1 = u64 [a3 + 0x10]\n 39412: a2 = u64 [a3 + 0x8]\n 39415: a3 = u64 [a3]\n 39417: a0 = reverse a0\n 39419: u64 [s1 + 0x168] = a0\n 39423: a0 = reverse a1\n 39425: u64 [s1 + 0x160] = a0\n 39429: a0 = reverse a2\n 39431: u64 [s1 + 0x158] = a0\n 39435: a0 = reverse a3\n 39437: u64 [s1 + 0x150] = a0\n 39441: jump [t0]\n      : @1434 (gas: 8)\n 39443: a0 = sp + 0xffffffffffffffe0\n 39446: a0 = a0 & 0xffffffffffffffe0\n 39449: u64 [s1 + 0x190] = a0\n 39453: sp = a0\n 39455: i32 a2 = a0 + 0\n 39457: a1 = 0x40\n 39460: a0 = u64 [s1 + 0x110]\n 39464: jump [t0]\n      : @1435 (gas: 18)\n 39466: a1 = a2 + 0x1\n 39469: u64 [s1 + 0x198] = a1\n 39473: a0 = a1 <u 0x1\n 39476: a0 = a0 + a3\n 39479: u64 [s1 + 0x190] = a0\n 39483: a0 = a0 | a1\n 39486: a0 = a0 <u 0x1\n 39489: a0 = a0 + t1\n 39492: u64 [s1 + 0x180] = a0\n 39496: a0 = a0 <u t1\n 39499: a0 = a0 + ra\n 39502: u64 [s1 + 0x188] = a0\n 39506: a1 = 0xff - a2\n 39510: u64 [s1 + 0x160] = a1\n 39514: a2 = 0x80 - a1\n 39518: a0 = u64 [s1 + 0x140]\n 39522: a1 = u64 [s1 + 0x138]\n 39526: jump [t0]\n      : @1436 (gas: 14)\n 39528: a0 = u64 [a2 + 0x8]\n 39531: a1 = i32 [a2 + 0x10]\n 39534: a2 = u64 [a2]\n 39536: a0 = reverse a0\n 39538: a3 = a0 << 0x20\n 39541: a1 = reverse a1\n 39543: a1 = a1 >> 0x20\n 39546: a3 = a3 | a1\n 39549: a0 = a0 >> 0x20\n 39552: a1 = reverse a2\n 39554: a2 = a1 << 0x20\n 39557: a0 = a0 | a2\n 39560: a1 = a1 >> 0x20\n 39563: jump [t0]\n      : @1437 (gas: 9)\n 39565: a0 = u64 [a3 + 0x18]\n 39568: a1 = u64 [a3 + 0x10]\n 39571: a2 = u64 [a3 + 0x8]\n 39574: a3 = u64 [a3]\n 39576: a0 = reverse a0\n 39578: a4 = reverse a1\n 39580: a2 = reverse a2\n 39582: a3 = reverse a3\n 39584: jump [t0]\n      : @1438 (gas: 18)\n 39586: a3 = u64 [s1 + 0x168]\n 39590: a0 = u64 [a3 + 0x18]\n 39593: a1 = u64 [a3 + 0x10]\n 39596: a2 = u64 [a3 + 0x8]\n 39599: a3 = u64 [a3]\n 39601: a0 = reverse a0\n 39603: u64 [s1 + 0x160] = a0\n 39607: a0 = reverse a1\n 39609: u64 [s1 + 0x158] = a0\n 39613: a0 = reverse a2\n 39615: u64 [s1 + 0x150] = a0\n 39619: a0 = reverse a3\n 39621: u64 [s1 + 0x148] = a0\n 39625: a0 = sp + 0xffffffffffffffe0\n 39628: a0 = a0 & 0xffffffffffffffe0\n 39631: u64 [s1 + 0x168] = a0\n 39635: sp = a0\n 39637: jump [t0]\n      : @1439 (gas: 8)\n 39639: a0 = sp + 0xffffffffffffffe0\n 39642: a0 = a0 & 0xffffffffffffffe0\n 39645: u64 [s1 + 0x168] = a0\n 39649: sp = a0\n 39651: i32 a2 = a0 + 0\n 39653: a1 = 0x40\n 39656: a0 = u64 [s1 + 0x178]\n 39660: jump [t0]\n      : @1440 (gas: 16)\n 39662: a3 = u64 [s1 + 0x190]\n 39666: a0 = u64 [a3 + 0x18]\n 39669: a1 = u64 [a3 + 0x10]\n 39672: a2 = u64 [a3 + 0x8]\n 39675: a3 = u64 [a3]\n 39677: a0 = reverse a0\n 39679: u64 [s1 + 0x190] = a0\n 39683: a0 = reverse a1\n 39685: u64 [s1 + 0x188] = a0\n 39689: a0 = reverse a2\n 39691: u64 [s1 + 0x180] = a0\n 39695: a0 = reverse a3\n 39697: u64 [s1 + 0x178] = a0\n 39701: a2 = s1 + 0x1918\n 39705: a0 = 0\n 39707: jump [t0]\n      : @1441 (gas: 8)\n 39709: a3 = a4 <u a3\n 39712: a5 = a2 + a3\n 39715: a2 = a5 <u a2\n 39718: a2 = a3 if a3 == 0\n 39721: a2 = a2 + a1\n 39724: a1 = a2 <u a1\n 39727: a0 = a0 + a1\n 39730: jump [t0]\n      : @1442 (gas: 16)\n 39732: t2 = u64 [s1 + 0x140]\n 39736: t1 = u64 [s1 + 0x138]\n 39740: u64 [s1 + 344] = 0\n 39744: u64 [s1 + 336] = 0\n 39748: a4 = s1 + 0x100\n 39752: a2 = u64 [a4 + 0x28]\n 39755: a1 = 0 if a2 == 0\n 39757: a0 = 0 if a2 == 0\n 39759: u64 [a4 + 0x48] = a0\n 39762: a3 = u64 [a4 + 0x30]\n 39765: a2 = a3 + 0xffffffffffffffff\n 39768: u64 [a4 + 0x28] = a2\n 39771: a2 = a3 >u 0\n 39773: a2 = a2 + 0xffffffffffffffff\n 39776: u64 [a4 + 0x20] = a2\n 39779: jump [t0]\n      : @1443 (gas: 15)\n 39781: a0 = u64 [a3 + 0x18]\n 39784: a1 = u64 [a3 + 0x10]\n 39787: a2 = u64 [a3 + 0x8]\n 39790: a3 = u64 [a3]\n 39792: a0 = reverse a0\n 39794: u64 [s1 + 0x188] = a0\n 39798: a0 = reverse a1\n 39800: u64 [s1 + 0x180] = a0\n 39804: a0 = reverse a2\n 39806: u64 [s1 + 0x178] = a0\n 39810: a0 = reverse a3\n 39812: u64 [s1 + 0x170] = a0\n 39816: a0 = sp + 0xffffffffffffffe0\n 39819: a0 = a0 & 0xffffffffffffffe0\n 39822: jump [t0]\n      : @1444 (gas: 18)\n 39824: a3 = u64 [s1 + 0xa0]\n 39828: a0 = u64 [a3 + 0x18]\n 39831: a1 = u64 [a3 + 0x10]\n 39834: a2 = u64 [a3 + 0x8]\n 39837: a3 = u64 [a3]\n 39839: a0 = reverse a0\n 39841: u64 [s1 + 0x98] = a0\n 39845: a0 = reverse a1\n 39847: u64 [s1 + 0x88] = a0\n 39851: a0 = reverse a2\n 39853: u64 [s1 + 0x80] = a0\n 39857: a0 = reverse a3\n 39859: u64 [s1 + 0x78] = a0\n 39862: a0 = sp + 0xffffffffffffffe0\n 39865: a0 = a0 & 0xffffffffffffffe0\n 39868: u64 [s1 + 0xa0] = a0\n 39872: sp = a0\n 39874: jump [t0]\n      : @1445 (gas: 5)\n 39876: sp = a0\n 39878: i32 a2 = a0 + 0\n 39880: a1 = 0x40\n 39883: a0 = u64 [s1 + 0x190]\n 39887: jump [t0]\n      : @1446 (gas: 16)\n 39889: a3 = u64 [s1 + 0x160]\n 39893: a0 = u64 [a3 + 0x18]\n 39896: a1 = u64 [a3 + 0x10]\n 39899: a2 = u64 [a3 + 0x8]\n 39902: a3 = u64 [a3]\n 39904: a0 = reverse a0\n 39906: a4 = reverse a1\n 39908: a2 = reverse a2\n 39910: a3 = reverse a3\n 39912: a1 = u64 [s1 + 0x168]\n 39916: u64 [a1 + 0x18] = a3\n 39919: u64 [a1 + 0x10] = a2\n 39922: u64 [a1 + 0x8] = a4\n 39925: u64 [a1] = a0\n 39927: a0 = s1 + 0x7ff\n 39931: jump [t0]\n      : @1447 (gas: 9)\n 39933: a0 = u64 [a3 + 0x18]\n 39936: a1 = u64 [a3 + 0x10]\n 39939: a2 = u64 [a3 + 0x8]\n 39942: a3 = u64 [a3]\n 39944: a0 = reverse a0\n 39946: a1 = reverse a1\n 39948: a2 = reverse a2\n 39950: a3 = reverse a3\n 39952: jump [t0]\n      : @1448 (gas: 13)\n 39954: a0 = u64 [a3 + 0x18]\n 39957: a1 = u64 [a3 + 0x10]\n 39960: a2 = u64 [a3 + 0x8]\n 39963: a3 = u64 [a3]\n 39965: a0 = reverse a0\n 39967: u64 [s1 + 0x178] = a0\n 39971: a0 = reverse a1\n 39973: u64 [s1 + 0x170] = a0\n 39977: a0 = reverse a2\n 39979: u64 [s1 + 0x168] = a0\n 39983: a0 = reverse a3\n 39985: u64 [s1 + 0x160] = a0\n 39989: jump [t0]\n      : @1449 (gas: 8)\n 39991: a0 = sp + 0xffffffffffffffe0\n 39994: a0 = a0 & 0xffffffffffffffe0\n 39997: u64 [s1 + 0x168] = a0\n 40001: sp = a0\n 40003: i32 a2 = a0 + 0\n 40005: a1 = 0x40\n 40008: a0 = u64 [s1 + 0x170]\n 40012: jump [t0]\n      : @1450 (gas: 8)\n 40014: a0 = a0 | a2\n 40017: a2 = a3 | a1\n 40020: a2 = a2 | a0\n 40023: a2 = a2 >> 0x20\n 40026: a0 = a0 | a1\n 40029: a0 = a0 << 0x20\n 40032: a0 = a0 | a2\n 40035: jump [t0]\n      : @1451 (gas: 12)\n 40037: a4 = 0\n 40039: a5 = 0\n 40041: a2 = u64 [s1 + 0x128]\n 40045: a1 = 0 if a2 == 0\n 40047: a0 = 0 if a2 == 0\n 40049: a3 = u64 [s1 + 0x138]\n 40053: a2 = a3 + 0xffffffffffffffff\n 40056: u64 [s1 + 0x130] = a2\n 40060: a2 = a3 >u 0\n 40062: a2 = a2 + 0xffffffffffffffff\n 40065: u64 [s1 + 0x128] = a2\n 40069: jump [t0]\n      : @1452 (gas: 11)\n 40071: a2 = u64 [s1 + 0x128]\n 40075: a1 = a1 | a2\n 40078: a2 = u64 [s1 + 0x198]\n 40082: a3 = a2 <u 0x80\n 40086: u64 [s1 + 0x128] = a3\n 40090: a4 = u64 [s1 + 0x120]\n 40094: a1 = a4 if a3 == 0\n 40097: a4 = u64 [s1 + 0x138]\n 40101: a4 = a1 if a2 != 0\n 40104: u64 [s1 + 0x138] = a4\n 40108: jump [t0]\n      : @1453 (gas: 12)\n 40110: a2 = t2 >> 0x3f\n 40113: a3 = t1 << 0x1\n 40116: a2 = a2 | a3\n 40119: a3 = t2 << 0x1\n 40122: t2 = u64 [s1 + 0x168]\n 40126: a4 = t2 >> 0x3f\n 40129: a3 = a3 | a4\n 40132: u64 [s1 + 0x140] = a3\n 40136: ra = u64 [s1 + 0x120]\n 40140: a0 = t1\n 40142: t1 = ra ^ a2\n 40145: jump [t0]\n      : @1454 (gas: 12)\n 40147: a1 = a1 << 0x1\n 40150: a4 = u64 [s1 + 0x148]\n 40154: a3 = a4 >> 0x3f\n 40157: a1 = a1 | a3\n 40160: u64 [s1 + 0x138] = a1\n 40164: a3 = a0 >> 0x3f\n 40167: a0 = a4 << 0x1\n 40170: a3 = a3 | a0\n 40173: a0 = t2 << 0x1\n 40176: a4 = u64 [s1 + 0x160]\n 40180: a1 = a4 >> 0x3f\n 40183: jump [t0]\n      : @1455 (gas: 11)\n 40185: a1 = u64 [s1 + 0x198]\n 40189: a2 = u64 [s1 + 0x150]\n 40193: u64 [a1 + 0x8] = a2\n 40196: a2 = u64 [s1 + 0x158]\n 40200: u64 [a1] = a2\n 40202: a2 = u64 [s1 + 0x170]\n 40206: u32 [a1 + 0x10] = a2\n 40209: a3 = a1\n 40211: a2 = s1 + 0x2918\n 40215: a1 = u64 [s1 + 0x180]\n 40219: jump [t0]\n      : @1456 (gas: 14)\n 40221: a0 = u64 [a3 + 0x18]\n 40224: a1 = u64 [a3 + 0x10]\n 40227: a2 = u64 [a3 + 0x8]\n 40230: a3 = u64 [a3]\n 40232: a0 = reverse a0\n 40234: a1 = reverse a1\n 40236: a2 = reverse a2\n 40238: a3 = reverse a3\n 40240: a4 = u64 [s1 + 0x198]\n 40244: u64 [a4 + 0x18] = a3\n 40247: u64 [a4 + 0x10] = a2\n 40250: u64 [a4 + 0x8] = a1\n 40253: u64 [a4] = a0\n 40255: jump [t0]\n      : @1457 (gas: 8)\n 40257: u64 [sp + 48] = 0\n 40260: u64 [sp + 40] = 0\n 40263: u64 [sp + 32] = 0\n 40266: a0 = 0x4e487b7100000000\n 40276: a1 = sp + 0x20\n 40279: u64 [sp + 0x38] = a0\n 40282: a0 = 0\n 40284: jump [t0]\n      : @1458 (gas: 15)\n 40286: a3 = u64 [s1 + 0x98]\n 40290: a0 = u64 [a3 + 0x18]\n 40293: a1 = u64 [a3 + 0x10]\n 40296: a2 = u64 [a3 + 0x8]\n 40299: a3 = u64 [a3]\n 40301: a0 = reverse a0\n 40303: a4 = reverse a1\n 40305: a2 = reverse a2\n 40307: a3 = reverse a3\n 40309: a1 = u64 [s1 + 0xa0]\n 40313: u64 [a1 + 0x18] = a3\n 40316: u64 [a1 + 0x10] = a2\n 40319: u64 [a1 + 0x8] = a4\n 40322: u64 [a1] = a0\n 40324: jump [t0]\n      : @1459 (gas: 9)\n 40326: u64 [s1 + 0x160] = a3\n 40330: a1 = 0 if a4 == 0\n 40332: u64 [s1 + 0x168] = a1\n 40336: u64 [s1 + 312] = 0x15180\n 40343: a0 = u64 [s1 + 0x190]\n 40347: a2 = a0 + 0xffffffffffffff80\n 40350: a0 = a5\n 40352: a1 = t1\n 40354: jump [t0]\n      : @1460 (gas: 10)\n 40356: a0 = u64 [a3 + 0x18]\n 40359: a1 = u64 [a3 + 0x10]\n 40362: a2 = u64 [a3 + 0x8]\n 40365: a3 = u64 [a3]\n 40367: a0 = reverse a0\n 40369: a1 = reverse a1\n 40371: a2 = reverse a2\n 40373: a3 = reverse a3\n 40375: a4 = s1 + 0x2918\n 40379: jump [t0]\n      : @1461 (gas: 10)\n 40381: u64 [s1] = a3\n 40383: u64 [s1 + 0x8] = a2\n 40386: u64 [s1 + 0x10] = a1\n 40389: u64 [s1 + 0x18] = a0\n 40392: sp = s0 + 0xffffffffffffffc0\n 40395: ra = u64 [sp + 0x38]\n 40398: s0 = u64 [sp + 0x30]\n 40401: s1 = u64 [sp + 0x28]\n 40404: sp = sp + 0x40\n 40407: jump [t0]\n      : @1462 (gas: 9)\n 40409: a0 = a0 | a1\n 40412: a1 = u64 [s1 + 0x148]\n 40416: a0 = a1 if a3 == 0\n 40419: a1 = u64 [s1 + 0x140]\n 40423: a1 = a0 if a2 != 0\n 40426: u64 [s1 + 0x140] = a1\n 40430: a0 = u64 [s1 + 0x158]\n 40434: a1 = u64 [s1 + 0x150]\n 40438: jump [t0]\n      : @1463 (gas: 16)\n 40440: a4 = u64 [a3]\n 40442: u64 [sp + 0x18] = a4\n 40445: a4 = u64 [a3 + 0x8]\n 40448: u64 [sp + 0x20] = a4\n 40451: a4 = u64 [a3 + 0x10]\n 40454: u64 [sp + 0x28] = a4\n 40457: a3 = u64 [a3 + 0x18]\n 40460: u64 [sp + 0x30] = a3\n 40463: s1 = u64 [a2]\n 40465: a3 = u64 [a2 + 0x8]\n 40468: u64 [sp] = a3\n 40470: a3 = u64 [a2 + 0x10]\n 40473: u64 [sp + 0x8] = a3\n 40476: a2 = u64 [a2 + 0x18]\n 40479: u64 [sp + 0x10] = a2\n 40482: jump [t0]\n      : @1464 (gas: 10)\n 40484: a3 = u64 [s1 + 0x190]\n 40488: a0 = u64 [a3]\n 40490: a1 = u64 [a3 + 0x8]\n 40493: a2 = u64 [a3 + 0x10]\n 40496: a3 = u64 [a3 + 0x18]\n 40499: a0 = reverse a0\n 40501: a1 = reverse a1\n 40503: a2 = reverse a2\n 40505: a3 = reverse a3\n 40507: jump [t0]\n      : @1465 (gas: 7)\n 40509: u64 [s1 + 0x110] = a0\n 40513: u64 [s1 + 0x128] = a1\n 40517: a1 = u64 [s1 + 0x190]\n 40521: a2 = 0x80 - a1\n 40525: a0 = u64 [s1 + 0x150]\n 40529: a1 = u64 [s1 + 0x140]\n 40533: jump [t0]\n      : @1466 (gas: 5)\n 40535: a0 = sp + 0xffffffffffffffe0\n 40538: a2 = a0 & 0xffffffffffffffe0\n 40541: u64 [s1 + 0x198] = a2\n 40545: sp = a2\n 40547: jump [t0]\n      : @1467 (gas: 8)\n 40549: a2 = u64 [s1 + 0x128]\n 40553: a1 = a1 | a2\n 40556: a3 = u64 [s1 + 0x190]\n 40560: a4 = a3 <u 0x80\n 40564: u64 [s1 + 0x128] = a4\n 40568: a2 = u64 [s1 + 0x118]\n 40572: a1 = a2 if a4 == 0\n 40575: jump [t0]\n      : @1468 (gas: 4)\n 40577: a0 = 0x2918\n 40581: a3 = s1 + a0\n 40584: a4 = a3 + 0x200\n 40588: jump [t0]\n      : @1469 (gas: 12)\n 40590: a0 = u64 [sp + 0x18]\n 40593: a1 = u64 [sp + 0x10]\n 40596: a2 = u64 [sp + 0x8]\n 40599: a3 = u64 [sp]\n 40601: a4 = a2 | a0\n 40604: a5 = a3 | a1\n 40607: a5 = a5 | a4\n 40610: a5 = a5 >> 0x20\n 40613: a4 = a4 | a1\n 40616: a4 = a4 << 0x20\n 40619: a4 = a4 | a5\n 40622: jump [t0]\n      : @1470 (gas: 5)\n 40624: sp = a0\n 40626: i32 a2 = a0 + 0\n 40628: a1 = 0x40\n 40631: a0 = u64 [s1 + 0xb8]\n 40635: jump [t0]\n      : @1471 (gas: 5)\n 40637: a0 = sp + 0xffffffffffffffe0\n 40640: a0 = a0 & 0xffffffffffffffe0\n 40643: u64 [s1 + 0x198] = a0\n 40647: sp = a0\n 40649: jump [t0]\n      : @1472 (gas: 8)\n 40651: a0 = sp + 0xffffffffffffffe0\n 40654: a0 = a0 & 0xffffffffffffffe0\n 40657: u64 [s1 + 0x160] = a0\n 40661: sp = a0\n 40663: i32 a2 = a0 + 0\n 40665: a1 = 0x40\n 40668: a0 = u64 [s1 + 0x170]\n 40672: jump [t0]\n      : @1473 (gas: 8)\n 40674: a0 = sp + 0xffffffffffffffe0\n 40677: a0 = a0 & 0xffffffffffffffe0\n 40680: u64 [s1 + 0x160] = a0\n 40684: sp = a0\n 40686: i32 a2 = a0 + 0\n 40688: a1 = 0x40\n 40691: a0 = u64 [s1 + 0x178]\n 40695: jump [t0]\n      : @1474 (gas: 9)\n 40697: a2 = a1 + 0x400\n 40701: u64 [a2 + 0x80] = a0\n 40705: a0 = u64 [s1 + 0x158]\n 40709: u64 [a2 + 0x78] = a0\n 40712: a0 = u64 [s1 + 0x160]\n 40716: u64 [a2 + 0x70] = a0\n 40719: a3 = a1\n 40721: a0 = 0x20\n 40724: jump [t0]\n      : @1475 (gas: 12)\n 40726: a0 = u64 [a5 + 0x20]\n 40729: a1 = u64 [a5 + 0x18]\n 40732: a2 = u64 [a5 + 0x10]\n 40735: a4 = u64 [a5 + 0x8]\n 40738: a0 = a0 | a2\n 40741: a2 = a4 | a1\n 40744: a2 = a2 | a0\n 40747: a2 = a2 >> 0x20\n 40750: a0 = a0 | a1\n 40753: a0 = a0 << 0x20\n 40756: a0 = a0 | a2\n 40759: jump [t0]\n      : @1476 (gas: 7)\n 40761: u64 [s1 + 0x130] = a0\n 40765: u64 [s1 + 0x128] = a1\n 40769: a0 = u64 [s1 + 0x160]\n 40773: a2 = a0 + 0xffffffffffffff80\n 40776: a0 = u64 [s1 + 0x140]\n 40780: a1 = u64 [s1 + 0x138]\n 40784: jump [t0]\n      : @1477 (gas: 4)\n 40786: a2 = a3 + a1\n 40789: a3 = a2 <u a3\n 40792: a3 = a1 if a1 == 0\n 40795: jump [t0]\n      : @1478 (gas: 8)\n 40797: a0 = u64 [s1 + 0x198]\n 40801: a2 = u64 [s1 + 0x128]\n 40805: a0 = a0 | a2\n 40808: a2 = u64 [s1 + 0x110]\n 40812: a0 = a2 if a4 == 0\n 40815: t1 = u64 [s1 + 0x140]\n 40819: a3 = t1\n 40821: jump [t0]\n      : @1479 (gas: 7)\n 40823: a4 = 0x100000000\n 40833: a0 = 0xffffffe0\n 40843: a0 = a1 <u a0\n 40846: a2 = u64 [a5 + 0x90]\n 40850: a0 = 0 if a2 != 0\n 40852: a0 = 0 if a3 != 0\n 40854: jump [t0]\n      : @1480 (gas: 6)\n 40856: u64 [s1 + 0x128] = a1\n 40860: a1 = u64 [s1 + 0x198]\n 40864: a2 = 0x80 - a1\n 40868: a0 = u64 [s1 + 0x158]\n 40872: a1 = u64 [s1 + 0x150]\n 40876: jump [t0]\n      : @1481 (gas: 9)\n 40878: u64 [a2 + 0x40] = a0\n 40881: a0 = u64 [s1 + 0x150]\n 40885: u64 [a2 + 0x38] = a0\n 40888: a0 = u64 [s1 + 0x158]\n 40892: u64 [a2 + 0x30] = a0\n 40895: a3 = a1\n 40897: a0 = 0x20\n 40900: a1 = s1 + 0x7ff\n 40904: jump [t0]\n      : @1482 (gas: 9)\n 40906: a0 = u64 [a2 + 0x8]\n 40909: a1 = i32 [a2 + 0x10]\n 40912: a2 = u64 [a2]\n 40914: a0 = reverse a0\n 40916: a3 = a0 << 0x20\n 40919: a1 = reverse a1\n 40921: a1 = a1 >> 0x20\n 40924: a1 = a1 | a3\n 40927: jump [t0]\n      : @1483 (gas: 9)\n 40929: a5 = s1 + 0x100\n 40933: u64 [a5 + 0x80] = a1\n 40937: u64 [a5 + 0x90] = a3\n 40941: a0 = a3 | a1\n 40944: u64 [a5 + 0x78] = a2\n 40947: u64 [a5 + 0x88] = a4\n 40951: a1 = a4 | a2\n 40954: a0 = a0 | a1\n 40957: jump [t0]\n      : @1484 (gas: 4)\n 40959: a0 = u64 [s1 + 0x198]\n 40963: a0 = i32 [a0]\n 40965: a1 = 0x23\n 40968: jump [t0]\n      : @1485 (gas: 8)\n 40970: a1 = u64 [s1 + 0x198]\n 40974: a0 = i32 [a1 + 0x10]\n 40977: u64 [s1 + 0x170] = a0\n 40981: a0 = u64 [a1]\n 40983: u64 [s1 + 0x158] = a0\n 40987: a0 = u64 [a1 + 0x8]\n 40990: u64 [s1 + 0x150] = a0\n 40994: jump [t0]\n      : @1486 (gas: 8)\n 40996: u64 [sp + 64] = 0\n 40999: u64 [sp + 56] = 0\n 41002: u64 [sp + 48] = 0\n 41005: a0 = 0x4e487b7100000000\n 41015: a1 = sp + 0x30\n 41018: u64 [sp + 0x48] = a0\n 41021: a0 = 0\n 41023: jump [t0]\n      : @1487 (gas: 10)\n 41025: sp = sp + 0xffffffffffffffc0\n 41028: u64 [sp + 0x38] = ra\n 41031: u64 [sp + 0x30] = s0\n 41034: u64 [sp + 0x28] = s1\n 41037: s0 = sp + 0x40\n 41040: sp = sp & 0xffffffffffffffe0\n 41043: s1 = a0\n 41045: i32 a0 = sp + 0\n 41047: a1 = 0x4\n 41050: jump [t0]\n      : @1488 (gas: 6)\n 41052: sp = s0 + 0xffffffffffffffa0\n 41055: ra = u64 [sp + 0x58]\n 41058: s0 = u64 [sp + 0x50]\n 41061: s1 = u64 [sp + 0x48]\n 41064: sp = sp + 0x60\n 41067: jump [t0]\n      : @1489 (gas: 8)\n 41069: a0 = u64 [a4 + 0x18]\n 41072: a1 = u64 [a4 + 0x20]\n 41075: a2 = u64 [a4 + 0x10]\n 41078: a3 = u64 [a4 + 0x8]\n 41081: a1 = a1 | a2\n 41084: a0 = a0 | a3\n 41087: a0 = a0 | a1\n 41090: jump [t0]\n      : @1490 (gas: 6)\n 41092: a3 = u64 [s1 + 0x190]\n 41096: ra = u64 [s1 + 0x180]\n 41100: a2 = a3 | ra\n 41103: a2 = a2 <u 0x1\n 41106: a4 = u64 [s1 + 0x170]\n 41110: jump [t0]\n      : @1491 (gas: 4)\n 41112: i32 a0 = a0 + 0xfffffffffffff918\n 41116: a3 = s1 + a0\n 41119: a4 = a3 + 0x700\n 41123: jump [t0]\n      : @1492 (gas: 4)\n 41125: a0 = 0x2918\n 41129: a3 = s1 + a0\n 41132: a4 = a3 + 0x300\n 41136: jump [t0]\n      : @1493 (gas: 4)\n 41138: a0 = 0x2918\n 41142: a3 = s1 + a0\n 41145: a4 = a3 + 0x400\n 41149: jump [t0]\n      : @1494 (gas: 10)\n 41151: a4 = s1 + 0x100\n 41155: u64 [a4 + 0x70] = a1\n 41158: a1 = u64 [a4 + 0x90]\n 41162: a2 = u64 [a4 + 0x88]\n 41166: a2 = a2 | a1\n 41169: a1 = u64 [a4 + 0x98]\n 41173: a3 = u64 [a4 + 0x80]\n 41177: a1 = a1 | a3\n 41180: a1 = a1 | a2\n 41183: jump [t0]\n      : @1495 (gas: 6)\n 41185: u64 [s1 + 0x148] = a0\n 41189: u64 [s1 + 0x120] = a1\n 41193: a0 = u64 [s1 + 0x140]\n 41197: a1 = u64 [s1 + 0x138]\n 41201: a2 = u64 [s1 + 0x198]\n 41205: jump [t0]\n      : @1496 (gas: 6)\n 41207: u64 [s1 + 0x148] = a0\n 41211: u64 [s1 + 0x168] = a1\n 41215: a0 = u64 [s1 + 0x158]\n 41219: a1 = u64 [s1 + 0x150]\n 41223: a2 = u64 [s1 + 0x160]\n 41227: jump [t0]\n      : @1497 (gas: 6)\n 41229: u64 [s1 + 0x160] = a0\n 41233: u64 [s1 + 0x198] = a1\n 41237: a0 = u64 [s1 + 0x150]\n 41241: a1 = u64 [s1 + 0x140]\n 41245: a2 = u64 [s1 + 0x168]\n 41249: jump [t0]\n      : @1498 (gas: 4)\n 41251: a2 = a0\n 41253: a0 = 0x4e487b7100000000\n 41263: a1 = 0x2000\n 41267: jump [t0]\n      : @1499 (gas: 6)\n 41269: u64 [s1 + 0x118] = a0\n 41273: u64 [s1 + 0x110] = a1\n 41277: a2 = u64 [s1 + 0x168]\n 41281: a0 = a2 <u 0x80\n 41285: u64 [s1 + 0x138] = a0\n 41289: jump [t0]\n      : @1500 (gas: 9)\n 41291: sp = sp + 0xffffffffffffffc0\n 41294: u64 [sp + 0x38] = ra\n 41297: u64 [sp + 0x30] = s0\n 41300: u64 [sp + 0x28] = s1\n 41303: s0 = sp + 0x40\n 41306: sp = sp & 0xffffffffffffffe0\n 41309: s1 = a0\n 41311: i32 a0 = sp + 0\n 41313: jump [t0]\n      : @1501 (gas: 2)\n 41315: a3 = a2 & 0x40\n 41318: jump @1505 if a3 != 0\n      : @1502 (gas: 1)\n 41321: jump @1504 if a2 == 0\n      : @1503 (gas: 6)\n 41324: i32 a3 = 0x40 - a2\n 41327: a3 = a1 << a3\n 41330: a1 = a1 >> a2\n 41333: a0 = a0 >> a2\n 41336: a0 = a0 | a3\n 41339: ret\n      : @1504 (gas: 1)\n 41341: ret\n      : @1505 (gas: 4)\n 41343: a0 = a2 + 0xffffffffffffffc0\n 41346: a0 = a1 >> a0\n 41349: a1 = 0\n 41351: ret\n      : @1506 (gas: 2)\n 41353: a3 = a2 & 0x40\n 41356: jump @1510 if a3 != 0\n      : @1507 (gas: 1)\n 41359: jump @1509 if a2 == 0\n      : @1508 (gas: 6)\n 41362: i32 a3 = 0x40 - a2\n 41365: a3 = a0 >> a3\n 41368: a0 = a0 << a2\n 41371: a1 = a1 << a2\n 41374: a1 = a1 | a3\n 41377: ret\n      : @1509 (gas: 1)\n 41379: ret\n      : @1510 (gas: 4)\n 41381: a1 = a2 + 0xffffffffffffffc0\n 41384: a1 = a0 << a1\n 41387: a0 = 0\n 41389: ret\n","bytecode":{"object":"50564d00009cbe000000000000010700c1d001c0008003817cf40443b2a766a42db9815a1e2efa877e5c0519ec4fe51c83c442ba392fca77e2116ca4777b81d4ea98e10c16c565173f400507b7679bbdc6b249bd00a16076687a96c0a237ac310730ce86cab6918a9cee1f20395b3b80e1e34a4eb67d08a74e0dc354af37bd04b03f2522518a6d9314cf35a01b6f25119782e62a75888f78d1b417406592b5dbd6886d772784123ca0859bbddc544b79277c562e79691cb8290000e8890423c78affffe7890423c78a00001876fbdc3875ffff1776fbdc3875975752f4e33b24c3dceff4c6a46dc4173eb68630b623f1b6b5ef1d0584397d33527c373f8a8f13d8dec2e4708e54ca59a13610a1f529f1946a422bba3c51695be6d8186647f5847091063f7d0def110bff283e79b8ad5546d505d5764c8d017f00001876fbdc38750000e8890423c78affff1776fbdc3875f2a8b439f25bd8ebdf119a7090238fa225717e85c68e190f0982ba0d5cabfde394247a18b5e26bbe1d817609543b3c0451c960f58acf6b97ba06c2c9ba61c0412000000004811b11000000000400000012000000200000002e0000003400000041000000530000005e0000006d000000700000007d0000008d0000009d000000a8000000ba000000c500000063616c6c63616c6c5f646174615f636f707963616c6c5f646174615f6c6f616463616c6c5f646174615f73697a6563616c6c65726465706f7369745f6576656e746765745f696d6d757461626c655f646174616765745f73746f72616765686173685f6b656363616b5f3235366e6f777265665f74696d655f6c65667472657475726e5f646174615f636f707972657475726e5f646174615f73697a657365616c5f72657475726e7365745f696d6d757461626c655f646174617365745f73746f7261676576616c75655f7472616e73666572726564051302c05a980463616c6cc06398066465706c6f7906c0cfbb82f202c0afa1da00220266031c04b104b9048b05930592069706180723073e078f079a0704082d0841086d088208c108e60886098c09c809950ac90ad70a140b4a0b500b560b620bcb0bd50bf80b000c1f0cc00c540d950da20d230e650e710ecf0ee30eed0e4a0f790fa40fbb0fd10ff60f00101b1038108d109710af102f115c116d1174118211891103121a1235126b1281128c1205132f1345136d138b13b71305146f14a414d814ff1443155815c315db151a166916b616c416f4161e1736175117781783179f17bd1709182a184318c818f9180b19121920192719a219b919d019061a1b1a251a7e1ab31ae11a001b071b261c2d1c341c521c591c681cc01cc71c031d2f1d4a1d7c1d851da11de71df11d101e491e671e781e821ebc1ef71e151f261f301f491f661fca1f39208d209a203a2154214a2264228122a322372351236f23bb2336253c256125f126fb261b273f2745278b279527ae27d42707285d285c296229682985298b299929fc29062a0c2a322a3c2a5c2a802a862ac32acd2a1c2b722ba82bb52b002c3a2c6b2c802c8a2cea2c242d2a2d652d112e1a2e3a2e7c2e822eb62ebf2ef02e0e2f502f592fce2f00304630b330233183318931c631f83164327832a432aa32c432ca32d032d6320a331033f93365346b348c34b834e534423548356c359835c835d935e3350536b836be36e2360e37283735373b3767377d378f37a937ba37c437123863389438d438da38fe382a39443955395f398b399d39b339cd39da39e0390c3a223a343a4e3a5b3a613a6b3a8d3afc3a703ba53b123c243c6d3cac3cec3c5e3dc03dd53ddf3d663ed53eab3f4340c140ed40f3400d41134119411f4153415941424296421c437f43fc432f446444c9442c45754501467046ba4605471a47244741476547a947d64706483a489f48bf48134921494f49a549fd49474a954ac74a414b254dbd4dd14d084e114e2e4e934eac4e0d4f504f5e4fd44f49505b506b50f3501c5148517651d651ed51f85236537f54bd54d554fb546455e6555d5678569e56295743576e578a57be57cb57fe57085849585e58685888589158b158b758e758ed58f6580f591859405972597c59d959e659ef594f5ac45a1a5ba45bb95bc35b505c5d5c6b5ca45cd05c675dac5d0b5ed25e3e5f0f6035605d608360d96050615661cc61f7610d6220622962496298629e62a462e662ec6248635563706386639963a26359649164b164e8641f658a65b165cc65f865026622662b664b66736694669e66d26609672767386742675767616786678b68916897689d68a368a968cb68d168f768fd6803690969136919691f6929692f6935693b694e699469576a5d6a776aa36aad6acd6ad66af66a3d6b476b816b8f6ba16bc36bd46bde6b026c0c6c316c896c936cb06cb96cd96cfb6c2d6d4d6d846da66df86d116e416ea36ead6eca6ed36ef36e116f1e6f246f446f776f956fa26fa86fb16fd36fe86f2e7054707270b970c370e570077139715f71d971ee71f87115721e723e726c7273729372ac72db721f7334733e73b573c77303740d7425742e744a74687475747b749774c574e374f474fe7428755f759775a175ba75117650768f7658775e7764776a777077767798779e77c477ca77d077d677e077e677ec77f677fc77027808781b786178b778ca78d378f3784979a379b879c279507ade7a0a7b3a7b5b7b657b8b7b3b7c677c857c927c987cc47cfc7c1a7d607d9e7dd77d1a7e497e677e787e827eb67ef77e157f227f287f687fa97fc77fd47fda7fe37fa880d68029818281d381fb815b82618283829e82a482b482ba82c382de82e482f182f7820083158385838d839483ac83d0839884b384ba84d484f884b585cf85f385508657866f869386db86058758879687d58766886d888588a9884e8955896f899389c18ad88af18a0f8b8e8ba48bbe8b018c7b8d9a8ddf8de58d0f8e408e5e8e6b8e718e7c8ebc8edb8ef98e428f748f928f9f8fa58fc68ff78f15902290289033908990a890c6901d917291eb9133929692a492be92e7928d93ac931f942694f8940e9524954d95d0951296d19618975f97a697c5971b9863986d98aa876e978a2098aa20977b2098bb20c89b0bc9ba0a979b019abbaeab20ae873751094ec87909647a017c8b95880195ac0178ab64caab9cf42836510934c87909647a017c8b95880195ac0178ab64caab9cf4281c51091a839aff01c8a80b7cbb9599ffc8a70c78cb83aaff5209f032009511e87b10107b15087b163306780102390578010251051c3307b00103837783680a060139077801022003780102ac5710821010821508821695111832000039087801025108b0073307b0010383770a0e28a3079511f07b10087b156489647533082064975010026e057c78017c797c7a027c7b03978808d4980897aa1097bb18d4ba0ad4a8087c79057c7a047c7b067c7c07979908d4a90997bb1097cc18d4cb0bd4b909979920d489027c79097c7a087c7b0a7c7c0b979908d4a90997bb1097cc18d4cb0bd4b9097c7a0d7c7b0c7c7c0e7c780f97aa08d4ba0a97cc10978818d4c808d4a808978820d498037c78117c7a107c7b127c7c13978808d4a80897bb1097cc18d4cb0bd4b8087c7a157c7b147c7c167c791797aa08d4ba0a97cc10979918d4c909d4a909979920d4890a7c78197c79187c7b1a7c7c1b978808d4980897bb1097cc18d4cb0bd4b8087c791d7c7b1c7c7c1e7c771f979908d4b90997cc10977718d4c707d49707977720d487076f776fa86f396f2a7b5a187b59107b58087b57821008821595111032009511d87b10207b15187b161082897b19088289087b1982851082861833082050100426046f686f59821a6faa821b086fbb787b18787a10787908787898bc38787c1f98bc30787c1e98bc28787c1d98bc20787c1c98bc18787c1b98bc10787c1a98bb08787b1998ab38787b1798ab30787b1698ab28787b1598ab20787b1498ab18787b1398ab10787b1298aa08787a11989a38787a0f989a30787a0e989a28787a0d989a20787a0c989a18787a0b989a10787a0a98990878790998893878790798893078790698892878790598892078790498891878790398891078790298880878780182102082151882161095112832009511a07b10587b15507b16489515608411e06476828718828910828a0882886f776f996faa6f887b18187b1a107b19087b17491138491130491128491120481140208318831a20831b403309ff33070a07821738821830821928821a206f776f886f996faa7b6a187b69107b68087b67501206fc9c0032009511a07b10587b15509515608411e08272827a08827b108277188283828908828c108288186f746fbb6faa6f276f826fcc6f996f387b17187b1a107b1b087b147b18387b19307b1c287b12208318831a203309ff330b2033070a0f9551a08210588215509511603200951160ff7b1098007b1590007b1688009515a0008411e082ab7b1b3882ab087b1b3082ab107b1b2882aa187b1a20829a7b1a18829a087b1a10829a107b1a088299187b1964865010082c0282186f888219086f99821a106faa821b186fbb7b1b587b1a507b19487b18408218206f888219286f99821a306faa821b386fbb7b1b787b1a707b19687b18608379836a8317403308020a05955160ff8210980082159000821688009511a0003200951120ff7b10d8007b15d0007b16c8009515e0008411e082bc7b1c4082bc087b1c4882bc107b1c5082bb187b1b5850120a4d99007b183850100c8f016f687b187882186f887b18708218086f887b18688218106f887b18608218186f887b1898008218206f887b1890008218286f887b1888008218306f887b1880008218406f887b18b8008218486f887b18b0008218506f887b18a8008218586f887b18a0008379811a388317603308030a05955120ff8210d8008215d0008216c8009511e00032009511e0fe7b1018017b1510017b160801951520018411e082c67b166082c6087b166882c6107b167082cc187b1c7882bc7b1c3882bc087b1c4082bc107b1c4882bb187b1b5050120e7398007b1858501010b5006f687b18980082186f887b1890008218086f887b1888008218106f887b1880008218186f887b18b8008218206f887b18b0008218286f887b18a8008218306f887b18a0008218386f887b18d8008218406f887b18d0008218486f887b18c8008218506f887b18c0008218606f887b18f8008218686f887b18f0008218706f887b18e8008218786f887b18e0008379811a58831780003308040a059551e0fe8210180182151001821608019511200132008b7910520931c8780883881f8488e05638000001253309800102390a800102ae8a093d088001020133089001028377c887073200009511f07b10087b158475010a03013d077c010251050750101209501014f001951100ff7b10f8007b15f0007b16e800951500018411e04921d8004921d0004921c8004921c0008317c0000a10018217d0008218d8008219c800821ac000d49808d4a707d487075207e10039067c010297672098772095771f8477e09578a000d878077b18a0007b17a80094777b17b0003307409518a0004921b800501016ebfa3307a000646850101825ff8377646833090a010154161fa000951780003308a00050101a8bf9821790008219980014080000000001000000d37808d49808987a2088aa01949a938a510a7982188000821a8800d4780bd49a0cd4cb0b510b727b18607b1a687b1770330780009518607b197850101c74fa95174033084050101e2ff9821758821850821948821640d49707d48609d47909989920d48707977720d49707510769003308900102838833070128b1003308900102838833070128a400330890010283883307012897004911104911084901140700000000c8f5bc1464187b17183307501020fff9390880010256181f0b20038001022001330890010283883307013309040a0d01646733085010221bfe8377330833090a019517203308800050102488f8821738821930821a28821b203e07c801033e09c001033e0ab801033e0bb00103284ef864673308501026dbfd8378330733093300280a0d280a33093300280a0d01951110fe7b10e8017b15e0017b16d8019515f001951130d18411e06416956918214929c0064929b8064929a80680003307409568c0274929b00650102a42f933077c01027b67980139077c010255170407285561956700208377e007330833002c0a0201956a182181a7e4065247871cb2880a28a11351476cd3238f2a02956918295247346662990a28f4235247e1ac83b60a28fc1b51472d16dfba0e015247b00de3d00a28a02051475f53cc0ebc09524786e72a220a28711751474d7d1a2e24065247f50796370a288a0d5247b836cc480a283f115147aef7914a0a28f5274929c0024929b8024929b0024929a802956700308377c0fb33002e0a1033023028ff9400501230fb940082b7b80082b8c00082b9b00082baa800d49808d4a707d48707510706284753826798018177561703072847539567ff079577a10733084050103201f7956aff0795aa190195ac000682cba00082c8980082c9900082c78800d49b0bd48709d4b909989920d4b808978820d498085108062873523a08a00002492a8006492a78067ba868069568ff0795888107492a70067b67980133003a28dbf74929e0064929d8064929d0064929c806956700308377e00a1001956a182995ab000682b7d80082b8e00082b9d00082bac800d49808d4a707d4870751070628a5528267980181775617030728a55295671829492700074927f8064927f0064927e806956740269568003050103460f89568182195890005829740956800017b8798008297387b8790008297307b8788008297287b8780009567202633084050103600f6956a182195ac0005501238459400510706289551956900018297800095a800047b87e800829788007b87f000829790007b87f80095680026829798007ba7000564b77b9b980050103aeff63308208267980133006a032824fb956718294927200349271803492710034927080395670030837720fc33003c0a1033023e285f950050123e5b95005012401d950051070628ca51501242a39400ac780628cb5195670030837740fc3308040a020195671829957c000382c84082c93882ca3082cb28956c00017bc8787bca9000d48a077bc998007bcb8800d49b08d4870752070628945133079001037b67700183777b6750013300440a048269700133024628a18e0082697001501246998e00956918114929a002959b00027bb898007bb790009568a0137bba880033075010480bf633024a9568181101492880024928780249286802016489330720956880134929700250104ce4f59517e08477e07b67800164713309800102390780010256173f0b200380010240017b6948019517e08479e07b69680164913307900102837783993308407b6758010a08826a680182a71882a81082a90882aa6f776f8c6f996fa2826b80017bb2187bb9107bbc087bb7951be084b8e06481957b02d87b07c87c0ad8ca0cda770cc89c0cd89c07c827077b8c107b8a087b8b7b8718956760137b68680150104e35f6956b181182bc600282b8500282b4580282b3480282607801d30c0782699001d39802d8980a82698801d89309db2a097b6c6001d80c0a82629801d8240cdb7a0cd3240ad47a0adbac09510906287a508267880195b900017b97e8007bb30802826790017b97f0007bb81002826798017b97f8007bb418027bb00002956740139568201395690013826a60017bba2002501050a977956718118277400295681811828838029569181182993002956a181182aa2802956b182995bc00037bc7607bc8587bc9507bca489568602c82676801501052d8f59567e0128268800150105453f595671811827ac801956718118277d001956818118288d801956918118299e001956b1811826c78017bbc8001956b1811826c98017bbc7801956b1811826c90017bbc7001956b1811826c88017bbc6801956b18117bb9a001956918117b989801956818117b8790019567c0129568a01295698012956b18117bba88015010568b7a956718118277c001956818118288b801956918118299b001956a181182aaa801956b182995bc00037bc780007bc8787bc9707bca689568802c8267800150105808f59567601233084050105a58f2956a181195ac000182c76082c85882c95082cb48d49707d48b09d47909989920d48707977720d4970751070628d24d8267880195a900017b9728826790017b9730826798017b973895684012826778017b974064b77b6b980150105c34f38267500133005e0a048269700133026028818a0082697001501260798a00d4780298aa206f99979820d4a8089899203a0a800002956718117b7a20013a0a8800023a0b9000023a0c9800027b7a18017b7b1001492700017b7c08017b79f8007b78f00033082095692012956a00127b72e800826798015010628cf433078268580133093300ce030a0d3302d00328a3900049094919f84919f04919e895670030837700f93300640a1001956a182995ab00ff82b7f80082a882b9f00082bae800d49808d4a707d4870751070628304e501266619000ac780628314e95670030837720f93308043300680a020195671829827820827918827a10827b0850126a16900052070628114e33079001037b67980183777b67680133006c0a048269980133026e28768a008269980150126e6e8a004926b8057b68b0057b67a8059568a0057b6aa0053307501070e8f1492698054926900549268005013307209568800549268805501072cbf19517e08477e07b67700164713309800102390780010256173f0b200380010240017b6940019517e08479e07b695801649133079001027b676001837783993308407b6748013300740a08826a580133027628048a00826a5801501276fc8900826870017b8a187b89107b8b087b879567600550107846f28262780582686805826470058263600582608001d3020782699001d3980cd8980a82698801d89309dbca09d8020a826b7801d8b40cdb7a0cd3b40ad47a0adbac0951090628374d826788017b6700057b632005826790017b6708057b6828057b6b10057b6430057b6018059567400595682005956900057b62380550107ace73956b000582b75882b85082b94882ba40956b18297bb7407bb8387bb9307bba28956840298267700150107c11f28267680133007e0a043302800028a18e00502280009d8e00330082000a0a33028400287b8b0050228400778b007b9860826878017b9858826890017b9850826888017b98484819688e77fc089a787b98a0007b9898007b9890007b98880097a820988820977723d48707956860299788209888209569a029979920d4890a826b600197bb2098bb2095688029978820d4b80c3308ff3309ff0a7b6770019567e0045020860096748267700151070628474c9567a00433084050208800b0ee956b000482b7b80082b8b00082b9a80082baa00050228a00208a0051070628374a826788017b678004826790017b678804826778017b67900495688004826780017b67980464a77b6a900150208c0099ef8267680133008e000a04826998013302900028e386008269980150229000db8600d4780298aa206f99979820d4a808989920492658043a0a0001023a0b0801023a0c1001023a071801027b6a7804956a00047bab707bac687ba7607ba9507ba84833082095696004956a40047b624004826790013300e60028eef0492a4007492a3807492a3007492a280795670030837740f8330092000a1001956a182195ab000782b73882b84082b93082ba28d49808d4a707d4870751070628534b50229400d78c00ac780628534b9567a003330096003302120528008d008267a0038268a8038069b003492698037b6990037b688803956880037b67800333075020980097ee49267803492670034926600301330720956860034926680350209a0079ee9517e08477e07b6778016471390880010256183f143308403d0880010233029c0028ab8a0050229c00a78a003307900102837783993308400a08826a980182a71882a81082a90882aa6f7c7b6c88016f8b7b6b90016f997b6980016fa77b679801826878017b87187b89107b8b087b8c9567400350209e00f1ee826758037b677801826750037b677001826748037b676801826740037b6760018267880195770188780182699001c8980895691821959a00077ba850d478087ba74888870182688001c887077ba758d8870782689801c887077ba76095672003956860285020a00087ee826738037b675801826730037b675001826728037b674801826720037b67400182688801958702d88708826a90015022a200b58a0082688001c88a0ad88a08826b9801c8b808956b182195bc00077bc880007bca787bc9707bc76895670003956880285020a4001eee956c000382c7187b67380182c7107b67300182688801958703d88708826a90015022a6005a8a0082c8087b68880182688001c88a0ad88a08826b9801c8b80882cb7b6b8001956b182195bc00077bc8a0007bca98007bc990007bc788009567e0029568a0285020a800b3ed8267e0027b6728019567c0023308405020aa0072eb95670002827bd800827cd000827ac8008279c000d4ba07d4c908d47808988820d4c707977720d4870751070628eb46826760017b67a002826768017b67a802826770017b67b0029568a002826778017b67b80264977b6998017b6a90017b6b78017b6c70015020ac0041ec956c000182c8980082c77882ca70d47a0a5022ae00a3890052070628914683872082684001956c00027bc88000826848017bc88800826850017bc8900095688002826958017bc998007b6a78017b6b70015020b000eaeb95690001829b78829a9000829898008297709577c0d8780794a794b752070628364683874082688001956a00027ba860826888017ba868826830017ba87095686002826938017ba9785020b2009beb956a000182a998001407a0ffffff00000000d8790782a89000948782a878948752070628e3458267280197772098782083976049265802492650027b68400295684002492648025020b4004eeb33088000826798015020b60085ef837833098000330733006c030a0d289e4c4929c0004929b8004929b0004929a800956700308377c0f93300b8000a1001956a182982a7b80082a8c00082a9b00082aaa800d49808d4a707d48707510706287e475022ba00e88800ac7806287e47956700308377e0f93308043300bc000a0201956718298278e0008279d800827ad000827bc8005022be0097880052070628584733079001037b67980183777b6768013300c0000a04826998013302c20028f48200826998015022c200ec8200492678077b6870077b676807956860077b6a600733075020c40065ea4926580749265007492640070133072095684007492648075020c60047ea9517e08477e07b67700164713309800102390780010256173f0b200380010240017b6940019517e08479e07b695801649133079001027b676001837783993308407b6748013300c8000a0801826a580182a782a80882a91082aa186f776f886f996faa95ab025022ca00fa8200826870017b8b7b8c087b89107b8718956720075020cc00b3ea8262380782682807826430078263200782608001d3020782699001d3980cd8980a82698801d89309dbca09d8020a826b7801d8b40cdb7a0cd3b40ad47a0adbac09510906286a4682678801956900067b97c0007b63e006826790017b97c8007b98e8007b9bd0007b64f0067b60d806956700079568e0069569c0067b62f8065020ce00366c956b000782b71882b81082b90882ba956b18297bb700017bb8f8007bb9f0007bbae8009568002a826770015020d00075ea826768013300d2000a043302d400280387005022d400ff86003300d6000a0a3302d80028dd83005022d800d98300959b00017bb820826878017bb818826890017bb810826888017bb808482928018e77fc089a787bb8607bb8587bb8507bb84897a820988820977723d487079568202a9788209888209569602a979920d4890a826b600197bb2098bb209568402a978820d4b80c3308ff3309ff0a7b6770019567a0065020da00f76c82677001510706286f45956760063308405020dc0011e7956b000682b77882b87082b96882ba605022de00858200510706289c42826788017b674006826790017b674806826778017b67500695684006826780017b67580664a77b6a90015020e000fee7826768013300e2000a04826998013302e40028487f826998015022e400417fd4780298aa206f99979820d4a808989920492618063a0ae000023a0be800023a0cf000023a07f800027b6a3806956a00067bab307bac287ba7207ba9107ba80833082095692006956a00067b620006826790015020e60059e933078268480133093300ce030a0d3302d003286f8500492900024929f8014929f0014929e80195670030837700fb3300e8000a1001956a182995ab000182b7f80082a8000282b9f00082bae800d49808d4a707d487075107062886445022ea00258500ac780628864495670030837720fb3308043300ec000a023302ee00288583005022ee0081830082b72082b81882b910d487078898019478520806285c4482a708027b67200195670030837740fb0a09019567182982744002827a38027b6a50018272300282702802684768a8958940db470968276808958840db270895878000d44a0adaa709d8870c94ac8ecb8897f000857a01daca0b88b7019577ff9ab89accc9ac0a9a93ef007b6898018e8c8e78da7c08883c000185cc018ea9dba90cdbb80c7b6440017b625801d4420882645001d44009d49808888801d4c808640b948b5108062877188538ff00826c9801d4c808d47a09d4980852080628601864029539017b699001889801c8a8087b688001d49808888801c8c8087b687001d8c808c887077b6778019a38ff007b6868019a89800064077b624801826858015020f0004485005022f200e784005020f4005c85007b6730017b6828018267680195798082674801826858015020f6003e85005022f800e3840082674801826858015020fa00288500826b380182627001826c780182698001d49c0c826a9001d42a0ad4ca0a93b77b678801510a0628e415330b289e1795671829492700034927f8024927f0024927e80295670030837700fc3300fc000a103302fe0028c581005022fe00c1810082b7f80082a8000382b9f00082bae800d49808d4a707d4870751070628a1428267980181775617630728a1429567a01133000001330212052842830095681811828788007b679801828790007b679001808798007b67780195678011330002013302160528208400956718118277687b678001956760113300040133021c052805840095691811829748956a00017ba7880049194082a7787b973882a790007b97309568401182a798007b972833075020060188e43302080195681811014918204918184918080464893307209568201149191050200a0163e43308800102390780010256173f0b200380010240019517e08479e07b69780164913307900102837783997b6898013308407b67900133000c010a08826a780133020e01282e7e826a780150220e01277e9567181149074917f8826880017b78e8956800114917f0330750201001f4e39569ff079599190182676001959b00077bb7e000826768017bb7d800826770017bb7d0003307209568e010826a78017bbac80050201201bbe382689801818756173f08480840019517e08477e07b67800150221401637d330016010a08826a800133021801289d7d826a800150221801967d9517e08477e07b6780016471826788019777209877209569ff07959919014929c0074929b8074929b0079568c0107b97a807330750201a0148e3826760019568ff0795881901958900077b97a000826768017b979800826770017b979000648a3307209568a010826978017ba9880750201c010de382689801818755174008480840019517e08477e07b67980150221e01b57c330020010a08826a980133022201286a7b826a980150222201637b826880017b8a187b89107b8b087b879567801050202401ade39567ff0795771901827768077b679801956760103308405020260164e19569ff07959919018292600795980007828c58828b50828748d42b0ad4c708d4a808988820d4ca0a97aa20d4a80851080628d83c7c6898018e8a492940074929380749293007956840107b9a28077b6790017b6b88017b6278017b6c8001502028013ae2956b000182ba880082b9900082b7800082b878d47808140b00000000010000001407e0ffffff00000000d8790794a7948752070628713c7b68800182689801848700ff008e788397209569ff079599190149292007492918077b98080795682010492910077b6b780150202a01cbe1956a000182a9900082a7789577c0d8790782a88800948782a88000948752070628163c8268980184870000ff008e78839740956aff0795aa1901492a0007492af8067ba8e80695680010492af00650202c0177e13308608267900150202e01afe58378330960330733006c030a0d28c942492ac007492ab807492ab007492aa807956700308377c0f80a1001956a182195ab000782b7b80082b8c00082b9b00082baa800d49808d4a707d4870751070628b53e8267980181775617030728b53e956700308377e0f80a0995671821957900078298e000956a00017ba8588298d8007ba8508298d0007ba898008297c8007ba790009567e0033308405020300190df956b000382b7f80082b8f00082b9e80082bae00050223201007b51070628183b7b6a1801826350016837957740826058016809da0709826490016847957740826298016828da270895878000d4030adaa709d8870c94ac8ecb8897f000857a01daca0b88b7019577ff9ab89accc9ac0a9a99ef007b6878018e8c8e78da7c088eac7b69680188990001859901dbac09dbb809d43408d4020bd4b808888801d49808644b948b510806284841826868018588ff0082697801d49808d47a09d49808520806282d41826b680195b9017b698801889801c8a8087b688001d49808888801826a7801c8a8087b687001d8a808c887077b6778019ab8ff007b6840019a8980008267900182689801502034011f7f7b6738017b684801826750018268580182694001502036012b7f7b6730017b682801826740019579808267900182689801502038010e7f7b6720017b68100182694001889780007b670801826790018268980150203a01ec7e956b00017bb86082b8800082b978d4890982b8880082ba70d4a808d4980882ba0893a77bb768520806284a4064a98267480182682801d4870764ac82681001da980782695801649a649882694001db970a7b6a480182673801826a3001d4a707826a2001daca07826b500164badb970a7b6a40018267600193c77b676001492630018051018267880195798064b750203c01327e7b6738017b68200182679001826898018269880150203e01187e7b6710017b682801826888019a898000826750018268580150204001207e82692801d4980882698801889a80007b6a2801826b2001daab08826b9801db980b7b6b980182681001d4870782683801daa80782689001db97087b689001826750018268580150204201ae7d82649001826398014926580149265001956b000182b928939893977bb73882ba3095a9ff7bb9288ea99599ff7bb9200198493f973a01d4a909974a0182644801984b3fd4ba0a7b6a9801826020016437d39003d89002826b2801d8ab0cdb320c978801826b380198ba3fd4a8087b689001987a3f97b701d47a0a974701826b400198b83fd4870297b801826b600198b33fd4380397b801826b680198b43fd4480897bb0182675801d47b0b7b6b680182675001d478087b686001d437087b684001d427077b674801c9a007d8c707d8a008826c9001c9c00bc98b0bc97b0b99b03f82673001d2700782689801c97804d87808c989039498c98a077b673801d88a08c98c0895670001827a8800827c8000d4ca09889901827b70d89b02c99b0988ab01c9bc0c827b78c92b0b95aaff7b7c80007b7b78d4bc027b7a8800d49a0bd42b0a840b017b7b587b797049265001520ae1fe280d3e492900054929f8044929f0044929e80495670030837700fe330044010a1033024601287f7b502246017c7b82b7f80082a8000582b9f00082bae800d49808d4a707d4870751070628603a50224801a47aac780628613a95670030837720fe3308040a0201956c182995c70005827a20827818827b10d4a80988b701949752070628413a7b69980082cc080582679801807395c723d8c709c89b027b6bd000d8b20bda990bc88b0b7b688001d88b097b6a8801c8a909d4b909d8370794279497520706280c3a83c80495670030837740fe7b6cc8000a0201956a182982a2400582a7380582a930057b67e800d427078898017b679001947852080628e13982a428058268c800958724d8870a8260d000c8a00bc847037b672001d8730cc89b08c8c808d3b8077b69e000d8b809da7c09d80b07daaa07826a8001c8a707d8a70a826b8801c82b0bc8ba0a826ce800c8c70bd87b07c8a707826a980180aac8b909d8b90bc8b707d83a0a888b0185aa01db8b0a887801889b01db780bd49707db7b0a520a062865398847038269e0009497826a900194a7510706285d3964cb8e977b64b800884865858801db97088ec78e297b62b000da2709daa80951090628863933079001037b67d80083777b67c00033004a010a048269d80033024c0128d7728269d80050224c01d0724929e004959b00047bb8d8007bb7d0009568e0257bbac800330750204e01e9da956818214928c0044928b8044928a8040364893307209568c0254929b00450205001c5da502252017e773309800102390780010256173f0b200380010240017b69a8009517e08479e07b69900164913307900102837783993308407b67a000330054010a08826a900133025601280573826a900150225601fe72826898017b8a187b89107b8b087b879567a0255020580148db956918218097880449296004492958047b97480495678025956860254929500450205a015b609567182195790004829880007b6808018298787b6800018298707b68f8008298687b68f000956740258268980150205c01efda956a182180a72c0497772095ab000482b83082b93882ba40826bf000d4b707826bf800d4b808826b0001d4b909826b0801d4ba0a956b182995bc00057bca607bc9587bc8507bc7489568602e8267980150205e0111db95670030837780fe0a09019567182982748005827a78057b6a50018273700582706805684768a8958940db470968376808958840db370895878000d44a0adaa709d8870c94ac8ecb8897f000857a01daca0b88b7019577ff9ab89accc9ac0a9a92ef007b6898018e8c8e78da7c08882c000185cc018ea9dba90cdbb80c7b644001d44308643482635001d43009d49808888801d4c8087b605801640b948b5108062887198528ff00826c9801d4c808d47a09d498085208062870199529017b699001889801c8a8087b688001d49808888801c8c8087b687001d8c808c887077b6778019a28ff007b6868019a8980008267580164487b644801502060010d7850226201b1775020640127787b6730017b682801826768019579808267580182684801502066010a7850226801b077826758018268480150206a01f677826b380182627001826c780182698001d49c0c826a9001d42a0ad4ca0a93b77b678801510a0628fc16330b28b6188267980181775617030728d136492920074929180749291007492908079567003083772033006c010a103307003033026e01289f763307003050226e01987650227001677652070628a03633079001037b67900183777b676801330072010a04826990013302740128966f82699001502274018f6f4929a006959b00067bb898007bb790009568a0277bba8800330750207601a8d79568182149288006492878064928680601648933072095688027492970065020780184d750227a013d74390880010256183f0b200380010240019517e08479e07b69880164913307900102837783993308407b67600133007c010a08826a880133027e01285d72826a880150227e0156729567182949274007492738074927300749272807956700308377400a1095671829957900078298287b6888018298307b6880018298387b6878018297407b677001956760278268980150208001dad7956b182182ba480682b7500682b8580682b96006826c70017bbc0006826c78017bbcf805826c80017bbcf005826c88017bbce80595bc00067bc9207bc8187bc7109567402795682027956900277bca08502082013d5d956a182195ab000682b74082b83882b93082ba28956b182995bc00077bc7607bc8587bc9507bca48956860308267980150208401c6d79567e0263308405020860115d595671821957900058298e0007b6888018298d8007b6880018298d0007b6878018297c8007b67980195671829492780074927780749277007492768079567003083778000330088010a1001956a000182a7880082a878d4870782a89800648c82a98000d49808d47808988820d49707977720d487075107062842303307003050228a01647482b76882b87082b97882ba8000956b18217bbac00595ba00057ba9b8007ba8b0009568c0267ba7a80064c750208c0199d58267680133008e010a04826990013302900128e36c8269900150229001dc6cd4780298aa206f99979820d4a8089899203a0a000002956718217b7aa0053a0a0800023a0b1000023a0c1800027b7a9805957a00057bab9000492780057bac88007ba9787ba8703308209569a026956a80267b7268058267980150209201edd633078268600133093300ce030a0d3302d0032803734929a003492998034929900349298803956700308377a0fc330094010a103302960128847350229601817382b7980082b8a00082b9900082ba8800d49808d4a707d4870751070628b2338267980181775617430728b23395670017330098013302120528df7295671811957900058298f8007b6868018298f0007b6898018297e8007b679001956700308377c0fc3308240a020195671829957c000382cbc00082cab80082c9b00082c8a800956c00017bc980007bcb70d4b9077bc88800d4a808d478089888207bca78d4a707977720d48707510706283d33956a000182a768977720987720956918114929e00582a89000959b00057bb8c80082a898007bb8d0009568e0167bb7d800330750209a01f3d333029c0195681811014928c0054928b8054928a8050264893307209568c0164929b00550209e01cad33308800102390780010256173f0b200380010240019517e08479e07b6968016491330790010283777b68980183993308407b6790013300a0010a083302a20128296c5022a201266c9569181182677001959a00057ba7a000826778017ba79800826780017ba790009568a016826788017ba7880033075020a4014ed33302a601956818110182674801958900057b978000826750017b9778826758017b9770648a33072095688016826960017ba968055020a80114d382689801818756173f08480840019517e08477e07b6788015022aa01bc6c0a08826a880182a71882a81082a90882aa6f7c7b6cd8006f8b7b6be0006f997b69f0006fa77b67e800826868017b87187b89107b8b087b8c956760165020ac01a6d33302ae019568181101958900058297587b67c8008297507b67c0008297487b67d0009517e0847be07b6b880164b18268d8009588018887018269e000c87909d49807887701826cf000c87c0ad8ca07826ce800c8c7077b6780017bb7187b6a68017bba107b6970017bb9087b6878017bb8956740163308405020b001fcd095671811957900058298407b6810018298387b68f8008298307b6800018298287b68080195672016826888015020b201f6d2956a181195ac000582c72082c81882c91082cb087b67600195ac00047bc7e0007b6830017bc8d8007b6928017bc9d000956700169568e0157b6b88017bcbc8005020b401d552826af800956b000182b81082b70882b9d48909d4a708d49808988820d4a909979920d4980851080628012c956c181182c2000582c3f80495ca000482a8f00082a9e8007b6940017ba9a8007b6850017ba8b0007b6348017bc3b8049568c0157b6258017bc2c0045020b60151d1826bf80082680801958720826c880184c901826a1001d4ba0a7b67380151090628a80d1409e0ffffff00000000d8980982680001948994a952090628812b7b6ab80084c900ff956a18118268280195ab00047bb8307bb928826830017bb83895684015826960017bb9405020b801e1d0956c18113304330349269001956a000182a74882a840d4870782a85882a950d49808d487078e779777057ba79800280a1c5147b327d0610a28c42f4929e0024929d8024929d0024929c802956700308377e0fb3300ba010a103302bc0128016d5022bc01fe6c82b7d80082b8e00082b9d00082bac800d49808d4a707d4870751070628db2f8267980181775617030728db2f9567ff079577e1073308405020be0104cf9567ff0795771901957900068298e0007b6898018298d8007b6890018298d0007b6880018297c8007b6788015020c0017ece956b000182b7980082b88000d4870782b88800648a82b99000d49808d47808988820d49707977720d4870751070628492a3a09b001033a08b801033807c00103956bff0795bb1901492bc00695bc00067bc7b8007bc8b0009568ff079588c1077bc9a80064a75020c201a0cf3308208267880133006a0328d4d35022c401eb6c82626801db270a7b6a98018267600182693001d4970782691801dab907826c500164cadb270a5022c601e86a5020c801bf6e7b6730017b6818018267480182685801826990015020ca01a56e5022cc01796b5020ce01bf6e5022d001956b82695801dba8097b69580182681001d4870782683001dab80782684801dba70864a97b68480182675001826840015020d2015f6e5022d4015b698263580182644801017b6b580198493f973a01d49a02974a01826b980198bb3fd4ba0a7b6a48018269280164847b625001d329086430d82903826b3001d8ab02db8302974801987a3fd4a8087b684001980a3f977701d47a0a82679801977701826b600198b83fd4870097b801826b680198b33fd4380397b801826b880198b43fd4480897bb0182675801d47b0b7b6b8801d4c8087b686801d43c087b686001d40c077b679801c9a907d82707d8a90882624001c9290bc98b0bc97b0b99bc3f82673801d2c70782684801c97804d8780882675001c987039478c98a07d88a08c982085022d601916cd89b02c99b0988ab01c9b000826b7801c92b0b95aaff7b6080017b6b7801d4b0027b6a9001d49a0bd42b0a84cb017b697001330c520aecfe82678801977701d47b0b0184b7ff82682001aa780628542d33079001037b67400183777b6738013300d8010a043302da012875645022da01726449294006959b00067bb8387bb7309568ff07958841077bba2833075020dc0178cd9568ff07958819014928200649281806492808060164893307209568ff0795882107492910065020de014ccd9517e08477e07b67180164713308800102390780010256173f112003800102403302e001287b695022e00178693307900102837783997b6870013308407b6778010a08826a980182a71882a81082a90882aa6f7c6f8b6f986fa9826718017b6990017b79187b6898017b78107b6b88017b7b087b6c80017b7c826738013300e2010a043302e4012898635022e401956349290006959b00057bb8f8007bb7f0009568ff07958801077bbae80033075020e60198cc9568ff07958819014928e0054928d8054928c8050364893307209568ff079588e1064929d0055020e8016ccc82687001818756173f0848084001140800000000ffffffff7b6828011407ffffffff000000007b67b0005022ea0115653300ec010a08826a68013302ee0128ce67826a68015022ee01c76795bc00027bca607bc9587bc8507bc7489567ff079577c1069568602b5020f001f1cc492608014926f0004926f80049260001492610014926e8004926e0004926d800330c330b330a8268800195880188870182698801c897077b68d0007b67c800d487078877019569000182989800c887077b67c000d8870782989000c887077b67b8009567ff07957719018077a8057b9730330201018eb78ea8daa70882673001d827078ec9dac709d4ab07db7809520948067b6280017b6c88017b6b90017b6a9801826738013300f2010a043302f4012822625022f4011f624929a005959b00057bb898007bb790009568ff079588a1067bba880033075020f60122cb9567ff0795771901492780054927780549277005647a3307209568ff0795888106492a6805025020f801f6ca82687001818756173f0e4808403302fa0128b8635022fa01b5633300fc010a083302fe012864615022fe016161959a00057ba760826790017ba758826788017ba7509568ff0795886106826780017ba7483307502000029dca826748019568ff07958819019589000550220202376895884106826960017ba928055020040275ca82687001818756173f0e48084033020602284267502206023f67330008020a08826a600133020a02284664826a600150220a023f64826b68017bba187bb9107bb8087bb7957b02d87b07c8780cd88c08da7708c89808d89807c8a70795691829959a00027bab687bac707ba8787ba780009567ff07957721069568802b50200c02e4ca956aff0795aa190182a710058477ff00510760956b000182b7800095ac00027bc7a80082b788007bc7b00082b790007bc7b8009567ff079577e1039568ff079588c10382b998007bc9c00050200e02cc4f9567ff079577190195780002828ae000828bd800828cd0008272c80228fbfd9567ff0795770106826868015020100262ca956aff0795aa190195ab000482b7f00082b8f80082b9e8008477ff8488ff826b2801d2b909d49808d48707510766ff82673801330012020a04330214022806605022140203604929e004959b00047bb8d8007bb7d0009568ff079588e1057bbac80033075020160206c99567ff07957719014927c0044927b8044927b004647a3307209568ff079588c105492aa8040450201802dac882687001818756173f0e48084033021a02289c6150221a02996133001c020a08826a680133021e02289c60826a680150221e0295609569ff07959919014929a00449299804492990049568ff079588a105826720017b97880433075020200279c8826750019568ff07958819015022220262659568ff0795888105826968017ba968045020240251c882687001818756173f0e48084033022602281361502226021061330028020a0833022a0228bf5e50222a02bc5e959a00047ba760826790017ba758826788017ba7509568ff0795886105826780017ba748330750202c02f8c7826748019568ff07958819019589000450222e02926595884105826960017ba9280450203002d0c782687001818756173f0e48084033023202289d64502232029a64330034020a083302360228796150223602766195772105502038028bc8956aff0795aa19017ca708045207aefd9567ff07957701058268180150203a0269c8956aff0795aa190182a7000482a3f80382a9f00382a2e8033a08a800028e7c8e3bdb7c0bd828088e9cda980cd47308db8b0c520c688267080195a800027b87e8008267f0007b87f0008267f8007b87f8009567ff07957721049568ff0795880104826900017ba9000350203c02334d956aff0795aa190195a800038287207b6700018287187b67f8008287107b67f0008287087b6708012801fd9518e08488e064813a0bb00002c82b0bd82b0cc8c90a95aaffd39a02d89a09da2c09953cffc8c909d8c902883c01c9c707c827077b8a087b8b7b89107b87188267180150203e02fec79517e08478e064818267b8007b87188267c0007b87108267c8007b87088267d0007b879567ff079577e1047b6860015020400251c79567ff07957719018272e0038273d8038279d003827bc8039518e08488e064813a0ca00002c8cb04d8b407c8790ad89a0cda770cc83c0cd83c077b8c103a0cb80002c827077b8a087b84d8bc0a959901949ad22309959901949a7b8718510a06286b2082676001502042025cc79567ff079577c1048268680150204402d2c6956aff0795aa190195ab000382b7a80082b8b00082b9c00082bab800847700ff867701956b182995bc00027bc9a0007bca98007bc890007bc788009568a02b826768015020460201c78267d800956aff0795aa190195ab00037bb780008267e0007bb7788267e8007bb7709567ff079577a1049568ff0795888104826910017bb96850204802834b956aff0795aa190195a800038287a0007b67d800828798007b67e000828790007b67e800828788007b671001284dfb9567ff079577a10333084050204a02dec39569ff07959919018292a00295970002827c9800827b9000827a8800d42b07d4ca08d47808988820d4c707977720d48707510706284f1f826710018268b000d287074929800249297802492970029568ff07958881037b97680264a77b6a98017b6b90017b6280017b6c880150204c02a6c4956b000182b9980082b7880082b88000d487071408e0ffffff00000000d8890882ba900094a8947852080628e61e826708018268b000d27808839720956aff0795aa1901492a6002492a58027ba848029568ff0795886103492a500250204e0244c482673801330050020a048269400133025202288e5b8269400150225202875bd4780298aa206f99979820d4a8039899203a0ac000023a0bc800023a0cd00002826720019568ff07958819017b87e801958700027b7a407b7b387b7c303a0ad80002492800024928f8014928f0017b7a287b79187b8310027b82080264873308409569ff0795994103956aff0795aa2103956bff0795bb01034927200282679801502054021dc633078268780133093300ce030a0d3302d0032887617b6ab800d8870782680001c878097b692801d88908da7708c8b8087b682001d8b8077b6788019567181182687801957a00047ba88800826870017ba89000826868017ba898009568a015826980017ba9a0003307502056022fc39517e08477e07b673001647182699801819756171f08480920018267100182688801c887077b6718019517e08477e07b67880164718379330820826790010a08492698013304330349269001826a880182a71882a81082a90882aa6f776f8b6f9c6fa982683001649a7b89187b6c60017b8c1064b07b8b0864797b8701956b00017bba687b6070017bb97882b74082b99800d8790782b950d3940ad89409daa70982b748d8730282ba5882bc9000d3ac0bd8ac0adab20ad37307d4b707da790a510ac10d956780157b6388017b648001502058024bc382609801826480018263880182683801c80807d88708826b2801c84b09c88909d3b90ad8b90bdaa80b826a2001c83a08d8a802826c1801826a9001c8ac0cc82c0ac88b0bd88b08c8a808d49808d4b709d48909d4b808989920978820d4980851080628621c956c181182c9800482c8780482ca700482cb68047bcb480495cb00047bba507bb858956860157bb9607b60980150205a02c1c1826c780195cc0188c701826a7001c87a0ad4ac0788770182686001c87804d8840882676801c8870782689801958320d8830982688001c89802d8820bda990b82688801c88b0bd88b0982689001c898087b68900164a0826830017b8a0864c97b8c7b8410647a7b87187b6460017b639801642464b3289afe50225c02a25e82626801db270a7b6a98018267600182693001d4970782691801dab907826c500164cadb270a50225e029f5c5020600276607b6730017b681801826758018268480182699001502062025c6050226402305d502066027660502268024c5d82694801dba8097b69480182681001d4870782683001dab80782685801dba70864a97b685801826750018268400150206a02166050226c02125b8263480182645801017b6b580198493f973a01d49a02974a01826b980198bb3fd4ba0a7b6a48018269280164847b625001d329086430d82903826b3001d8ab02db8302974801987a3fd4a8087b684001980a3f977701d47a0a82679801977701826b600198b83fd4870097b801826b680198b33fd4380397b801826b880198b43fd4480897bb0182675801d47b0b7b6b8801d4c8087b686801d43c087b686001d40c077b679801c9a907d82707d8a90882624001c9290bc98b0bc97b0b99bc3f82673801d2c70782684801c97804d8780882675001c987039478c98a07d88a08c9820850226e02485ed89b02c99b0988ab01c9b000826b7801c92b0b95aaff7b6080017b6b7801d4b0027b6a9001d49a0bd42b0a84cb017b697001330c520aecfe82678801977701d47b0b017b6b7001956720253308405020700234be956218218223200495270004827c18827a10827b088e378ec8db37088ea788b960ff859901dba709d43c077b677801db7809510906282c1f95b7a000d8b708c88a097b6a9801826a9801d8a90ada880ac8ca0ad8ca087b6b9001c8830b952800037b87e8007b89f0007b8af800330740956800257b2b00047b6c80017b63880150207202e8be956c000182c9900082ca8000d4a90782c8980082cb8800d4b808d48707987720d4a808978820d487075107062827198267f000956a182195ab00037bb7c8008267f8007bb7d000826700017bb7d8009568e024826708017bb7e00064975020740285be8267c0000a040195690001829b90001407e0ffffff00000000d87b07829898009487829878948752070628c6188269d80082970881981082996f77977a206f88988820d48a0a9877206f98978920d4790998882083b720956b1821492bc00395bc00037bc8b8007bc9b0009568c0247bcaa8007b6738015020760208be8267b000956a182195ab00037bb780008267e8007bb7788267e0007bb7709567a024956880248269b8007bb96850207802ca419567182195790003829888007b685801829890007b685001829898007b6848018298a0007b6840019567602433084050207a0266bc95671821827a60037b6a8801827858037b688001827c50037b6c6801827b48037b6b6001826940017b792003826948017b791803826950017b791003826958017b790803957900037b9a407b98387b9c30647995674024956820247b9b280350207c020d3f9569000182986882978800d48707829860648c829b8000d4b808d47808988820d4b707977720d48707510706287a17956718218268b800957900027b98e8008268e0007b98f0008268e8007b98f80095680024826bb0007b7b000364c750207e02d8bc82678801826a8001d4a707140be0ffffff00000000826c6001d8bc088269680194989478520806281c178268b80083877b679000816720017b67880083c7207b6b580150208002d4c0837782689000826988000a0101826b68018262b80082676001c87202d872088269e000c8b909c88909d3b90ad8b90bdaa80b8268e80082678001c87808d8780a826c88018267b000c87c0cc8ca0ac88b0bd88b08c8a808d4b80882675801d8720a949a948a520a06289216832720956918214929e0024929d8024929d0029568e0234929c8025020820203bc140a00000000010000001407c0ffffff00000000956b000182b89000d8780782b99800949782b9789497520706284116838740956818217b6a5801648a8268600195ab00027bb8a800826868017bb8b000826880017bb8b8009568c023826988017bb9c0007b6788015020840294bb956b000182b97882ba980082b8900082b7589577a0d8780794a7949752070628e015838760956b1821492ba002492b9802492b90029568a023826970017bb988027b6778502086024abb956a000182a89000140780ffffff00000000d8780782a99800949782a9789497520706289215838780009569182149298002492978024929700295688023492968027b672050208802ffba8267c00033008a020a048269d80033028c0228ae528269d80050228c02a75249296002959b00027bb8587bb750956860237bba48330750208e02c3ba956818214928400249283802492828020264893307209568402349293002502090029fba8268a800818756173f0848084001140800000000ffffffff7b68701407ffffffff000000007b67689517e08477e07b679801647183793308408267a000330092020a0801826a980182a71882a81082a90882aa6f777b6780016f877b6778016f977b6770016fa77b67680150229402ed569569182182670801959a00027ba720826700017ba7188267f8007ba710956820238267f0007ba708330750209602feb995681821956b000182b7687b87000282b7707b87f80182b7787b87f001648a3307209568002382b980007ba9e80150209802cab98268a800818756173f08480840019517e08477e07b678001647183793308408267a0000a08826a800182a71882a81082a90882aa6f7c7b6c486f8b7b6b506f987b68606fa77b6758826998017b97187b98107b9b087b9c9567e0228268900150209a022bb8956718218277c801826868d287077b6790019567c0228268980150209c0237ba956a182195ab000182b7b00082b8b80082b9c00082baa8008477ff8488ff8499ff826b70d2ba0a826b9001d4ba0a956b182995bc00057bc9a0007bc898007bc790007bca88009568a02e8267980150209e025bba9567a022826838015020a002a9b79567182195790001829898007b689001829890007b688001829888007b68780195678022826898015020a202a7b9956818218287800180886801826c780198c920826b800197ba20d4a90998ba20826b900197bb20d4ba0a97cb20d4b808956b182995bc00057bcab8007bc9b0007bc7c0007bc8a8009568c02e826798015020a402c9b99517e08478e06481826948959901889701826a50c87a0ad4a907887701826c60c87c0bd8cb07826c58c8c7077b6748017b87187b6b38017b8b107b6a40017b8a087b68387b6950017b8995676022826888015020a602cdb695671821957c000182ca6082cb5882c95082c848956c00017bc9307bca28d4a907d4b809d479099899207bcb20d4b707977720d49707510706283912956740227b6818015020a80283b69569182195970001827b40827a388278308eb78eacdbb70c7b68408e877b6a307b6b28d4ba0a7b67087b6c107b6a1001dbac0751070628f318829728017b678000956720228268385020aa0261b8956b182195bc000182c90882c71082c81882ca207bbae0007bb8d8007bb7d000956700229568e0217bb9c8005020ac02543895671821827a0001827bf800827cf0008279e8008ea78eb8dba7088ec77b6978018899208599017b6c8001dbc7097b6a88017b6b9001d4ab07db7809826780008877207b67185109740695671821956a000182a8507b78a80082a8407b78b00082a8387b78b8009568c02182a9487b79c00033075020ae02c3b68267a800817756171f0c8268a800480820019517e08477e07b676801647183793308208267a0000a088267800095781fd87807826c40c87c09d8c90ada770a826b30c8ba0a7b6a600197aa3b989b05d4ab0b8267680182731897993b827a10988805d498076f346fa982681894c8826a100194a8948b9487c87402d84207c8790cc8cb0b7b6b9801d39b0cd89b0adac70a7b6a58018267780195701fd8700b826a8001c8ba07d8a70cdabb0c82639001c8c303973b3b987a05d4ba0a97773b980b05d4b707c847077b677801d847076424c8790bc8ab0bd39b0a7b6b7001d89b09daa709826b6001826730d87b07826a28c8a70798ba05977b3bd4ba0a826b680182b282bb08987705948a94876fb86f2bc8b707c88a0ad88a0cc8c70782605801c8a000d8a00ac8a70282679001d87307826a8801c8a707983a05977c3bd4ca0a987705c8b707956c000182cb9800c88a0ad88a08c88707c8a9097bc968d8a908c887077bc7609517e08473e064317b6358010182677801d8740782697001d39b08d89b09da8709826c6801d8c007826a6001d3a208d8a20ada870ad3c007d48707da790a7b6490017b347b6b98017b3b087b6080017b30107b6288017b3218510a8004956718294927e0054927d8054927d0054927c8059568e02e64375020b00249b68263580182649001954401884701826b9801c87b0bd4b40788770182688001c88707d8870882628801c8820264702862ff956c18110182689801958720d88708c88409d8490ada880ac83a0ad83a08826b9001c88b0b826808017bc8080495c800037b87e800826700017bc710048267f8007bc718047b89f000826710017bc720047b8af80095672015956800157bcb00045020b20219368268d800958702d88708826ae0005022b40287518268f000c88a0ad88a08826be800c8b808956b182995bc00037bc8e0007bcad8007bc9d0007bc7c8009567e0149568e02c5020b602eeb43302b80295681811018287d0037b6778018287c8037b6770019567c0143308405020ba029cb2956b181182b2c00395b80003828ab800828cb0008287a800d42c09d4a708d49808988820d4a909979920d498085208140e8268d0009788207b6a8801988a20492ba003492b9803492b90039568a0147bba88037b6798017b6280017b6c90015020bc0271b3956c000182c8980082c7880082c98000d4970a5022be02d1505107c30d1402ffffffff000000008269d0009899207b6b6001826bc0007b6a680197ba20d4a90998ba20826cc80097cb20d4ba0a98cb2084aaff8499ffd22b0b838720956c1811492c80037bcb78037bc96803956880147bca70035020c002f7b2956a000182a8980082a7609577c0d8780782a99000949782a96894975107460d83874095691811492960034929580349294803a00095686014492950035020c202b4b295674014826808015020c4026cb1956c000182ca6882c89800140b0000000001000000140760ffffff00000000d8780782c99000949794a75107e70c956718117b6b6001647b8272400382733803827c3003827928038387a0007b6958017bb908037b6c40017bbc10037b6350017bb31803956820147b6248017bb220035020c60230b2956b000182ba900082b9980082b760957740ffd8790794a782b868948751077e0c1407e0ffffff0000000082680801d878078268000194878268b800948751075d0c82685801826c5001d4c8078262480182634001d4230bd4b707987720d4cb0b97bb20d4b7075207340c8397c0005020c80200b67b67680182673801826858015020ca02eeb5647882676801826958015020cc029baf8268580182679801c88707d88709826b400182689001c8b808c89808d3b80ad8b80bdaa90b82698001826a4801c8a909826a8801826c5001c8ca0ac8ab0bd8ca0cd8ab0ac8c909c8a909d4b909140a40ffffff000000007b6a9001d8a70a948a949a510aa20b8377c00095691811492900034929f8024929f002956800144929e8025020ce0211b182679801837760956918114929e0024929d802826870017b98c8029568e0134929d0025020d002e8b07c6778018e788267980183778000956918114929c0024929b8027b98a8029568c0134929b0025020d202bcb08267580195771f1408e0ffffff01000000d2870782689001ae870f0b8378c0007b689001826798015020d402d3b483783307826990010a0d01826718857701826840826908db890782681082691001db980751074e02826780008477e07b67100195671821826850017b7868826840017b7870826838017b787895688021826948017b79800033075020d6022eb09517e08477e07b677001647133082033075020d8025cb49518e08488e07b6868016481837783893308200a084926980120330c49269001492688014926780149268001826a680182a71882a81082a90882aa6f736f846f903309826b78016fa7330a6472826870017b87187b6050017b80107b84087b83017b626801826710017b6b7801d87b07857b017b6a580194ab017b69600182678001d49707947b018268180182679801c87808826a3001c8ca0a8269200182679001c879098267280164c0826c8801c8c707520b7601826b9801d8b80bc8ba0ad30a027b603801d80a0cda2b0cc89c0cd89c02826b9001d8b909c89707c82707d4c809d4a707d47909989920d4c707977720d497077b6348017b644001520785099567e01e5020da02d2ad956a181995ab000582b7e00082b8d80082b9d00082bac800956b18297bb7000695b700057b78f8007b79f0007b7ae8009568002f826770015020dc0238b08263480195330188370182644001c87404d4430788770182685001c87800d8800882676801c88707826898019589207b696801d8890a82683801c8a8097b694801d8890bdaaa0b82689001c8b80ad88a0b82688801c8b8087b68880182687801958b20d88b0c82695801c8c908d89809dacc09826c6001c8c909d8c90c82628001c8c2027b628001826c70017bc4087bc37bc01064727bc7187b605001826768017b679801826c48017b6a9001648a2869fe82678000826830d48707826840826928d49808d487075207af014926400149263801492648014926500128f9018264900182639801826b8000826c1001d3cb0b826c30d4cb02826c40826b28d4bc0cd4c20b510b2a01d8380bc8ba0ad30a02d80a0cda2b0cc89c0cd89c0bd84909c89707c8b707d4c809d4a707d47909989920d4c707977720d497075207fe07956760215020de024bac956718218278607b6890018278587b6888018278507b6880018277487b6778018267800097773b9878387b6898019a8980003307ff3308ff5020e002d24c7b6768017b6850013307ff3308ff826998015020e202944c7b6758017b68600182675001d487077b675001826798019579803307ff3308ff5020e4026e4c826b980188b98000826a5001db9a08826c5801826a6801d4ca0ada970a93b8ff93baff826b6001939b939c82677801e0a70782698001e0890882698801e0c909826a9001e0ba0a956b182995bc00067bca207bc9187bc8107bc7089568202f826770015020e6020aae82693098973f826828978801d48707826a4098a83f979901d49808826b800098b93f97aa01d4a90997ba0195aa01956b182995bc00067bca287bc9307bc8387bc7403307402f287301956a000182a72882a820d487071408e0ffffff0000000082a918d8890882a9309498947851089e06826718018378209567a0215020e802e4aa956718218278a000956900017b9850827898007b9848827890007b9838827788007b97400182694098973f826a3097a801d487077b67900198a73f826828978801d487077b678801826a800098a73f979801d487077b67800197a7017b67780197a8037b6898018d8980003307ff3308ff5020ea02324b7b6758017b687001826780008a79033307ff3308ff5020ec02f14a7b6768017b68600182685801d487077b675801826798018379803307ff3308ff5020ee02cb4a826b980188b98000826a5801db9a07826c6001826a7001d4ca0ada980a93b7ff93baff939c826b6801939b82683801e0a80882694001e0790782694801e0b909826a5001e0ca0a956c000182cb78d4b70782cb8000d4b80882cb8800d4ba0a82cb9000d4b909956b182995bc00067bc9587bca607bc8507bc7483307602f01c876088267385020f00245ac9517e0847ce064c1826848958702d88708826a505022f2021548826860c88a0ad88a08826b58c8b8087b6c98017bca107bc9087bc77bc818956740218268785020f4025ca9956718218277288477ff7b67900195672021826898015020f6026cab95691821829720829818829910956a1829826b900195ac00067bcb687bc780007bc8787bc9709568802f826798015020f802b0ab956700218268205020fa02ffa8956a182182a795ab00ff82b8f00082b9f80082bae800d48707d4a909d497078e777b6790019567e020826898015020fc02f8aa330700205022fe02964882b7d00082b8c80082b9e00082bad800847700ff826b9001d4b707956b182995bc00067bc9a0007bca98007bc888007bc790009568a02f826798015020000325ab8267c000330002030a048269d800330204032812408269d800502204030b404929c007959b00077bb8b8007bb7b0009568c0207bbaa8003307502006037ca93302080395681819014928a00749289807492888070164893307209568a0204929900750200a0353a950220c030c468269a800819756173f08480940019517e08477e07b679001647183793308408267a00033000e030a0833021003284045502210033d4595ab03502212032d42826898017b8b7b8c087b89107b87189567802050201403e7a933021603956918190182976807826868d2870749294007492938077b97280795676020956840204929300750201803ef2e95671819957900078298607b6890018298587b6888018298507b6880018298487b687801956720208268980150201a0384a93307002050221c03224782b72082b81882b91082ba088477ff8488ff8499ff826b70d2ba0a826b7801d4ba0a826b8001d4b909826b8801d4b808826b9001d4b707956b182995bc00067bc7c0007bc8b8007bc9b0007bcaa8009568c02f8267980150201e0395a99567002033084050202003e4a6330222039569181901829a0007959c000682cbf80082c7f00082c8e800956c00017bc790007bca8000d4a7077bc89800d4b808d478089888207bcb8800d4b707977720d48707520743024929e0064929d8064929d0069568e01f4929c806208267980150202403b5a7956a000182a7800082a88800d47808140700000000010000007ba7781407e0ffffff0000000082a99800d8790782a9900094977ba87094875107e80182679801837720956918198268b800959b00067bb8a8008268e0007bb8b0008268e8007bb8b8009568c01f826ab0007bbac0005020260340a7826778019577dc8268c800d878078268d0009487826898009487510791011408c0ffffff0000000095690001829798007b9878d88707829890009487829870948751076a018267980183774082689000502028032fab837782689000826988000a01018268b80082679801c88707d88708826be00082699001c8b909c88909d3b90ad8b90bdaa80b8268b000826a8001c8a808826ce800826a8801c8ca0ad8ca0cc8c808c8ab0bd8ab0ac8a808d4b808826a7801d8a70a949a948a510af000837740956918194929a00649299806492990069568a01f4929880650202a0360a68267c00033002c030a048269d80033022e0328aa3d8269d80050222e03a33dd4780298aa206f98978920d4a9039884208268b80095881f8488e0009588403a0b2000023a0c2800023a073000023a09380002956a18197bab800695ab00067bbc787bb7707bb968956c000182c7087bb74082c77bb7388267f8007bb7308267f0007bb7287ba458067ba350067ba2480664a79569801f956a601f956b401f4927600682c798005020300333a89567201f330840502032036da4956a181995ac000650223403b14251075807009567ff07957719014927580349275003492748036479140700000000717b484e9568ff07958861047b97600333075020360360a59568ff07958819014928400349283803492828031164893307049568ff0795884104492930035020380334a582677001817756173f0c8268700148084001330701330924826878010a0d0133089001028388330701284f0d3308900102838833070128420d3308900102838833070128350d3308900102838833070128280d33089001028388330701281b0d33089001028388330701280e0d956918114929b8004929b000140700000000c611522c7b97c0009568c0114929a800330750203a039da4390880010256181f122003800102203308900102286d043308900102286504492bd800492bd000140700000000b878d6f47bb7e0009568e011492bc800330750203c0358a482674801817756171f0c8268480148082001330701330904826858010a0d013308900102838833070128730c3308900102838833070128660c492610044926080449260004140700000000c611522c956800047b671804330750203e03f9a3390880010256181f12200380010220330890010228c903330890010228c103492630044926280449262004140700000000b878d6f4956820047b67380433073300420328b0a34926d0044926c8044926c00414070000000018ecb8909568c0047b67d8043307330042032889a33308900102838833070128c60b3308900102838833070128b90b3308900102838833070128ac0b33089001028388330701289f0b4926d0054926c8054926c005140700000000c611522c9568c0057b67d80533075020400332a3390880010256181f122003800102203308900102280203330890010228fa024926f0054926e8054926e005140700000000b878d6f49568e0057b67f80533073300420328e9a249269006492688064926800614070000000018ecb890956880067b679806330750204203c6a282674001817756171f0c8268400148082001330701330904826848010a0d013308900102838833070128e10a3308900102838833070128d40a3308900102838833070128c70a3308900102838833070128ba0a3308900102838833070128ad0a3308900102838833070128a00a3308900102838833070128930a3308900102838833070128860a3308900102838833070128790a33089001028388330701286c0a33089001028388330701285f0a3308900102838833070128520a3308900102838833070128450a3302440395691819014929180549291005140700000000969ee20b7b9720059568201e49290805330750204603cfa1390880010256181f122003800102203308900102289f01330890010228970133024803956918190149293805492930051407000000003bc167cc7b9740059568401e49292805330750204a0381a1390880010256181f122003800102203308900102285101330890010228490133089001028388330701289c09956918214929580549295005140700000000c611522c7b9760059568602649294805330750204c032ba1390880010256181f12200380010220330890010228fb00330890010228f300330890010283883307012846093308900102838833070128390933089001028388330701282c0952476eeb149c490195671829492700044927f8034927f0034927e80395670030837700fd33004e030a103302500328583f50225003553f82b7f80082a8000482b9f00082bae800d49808d4a707d4870751078f023308900102838833070128cb083308900102838833070128be083308900102838833070128b1089569ff07959919014929580649295006140700000000635bb2d57b9760069568ff07958861074929480633075020520338a0390880010256181f11200380010220330890010228083308900102018388330701330904330054030a0d0195671819492778054927700549276805502256031c3f838880fec868087b978005330750205803e49f33025a0395681819014928600549285805492848054164893307049568601e4929500550205c03bb9f8267a800817756173f0c8268a800480840013307013309248268a0000a0d015247275914a04d956718294927200449271804492710044927080495670030837720fd33005e030a1033026003281d3e502260031a3e50226203cf3d510772013308900102838833070128960752473a6750b67901956718294927a004492798044927900449278804956700308377a0fd330064030a103302660328cf3d50226603cc3d82b7980082b8a00082b9900082ba8800d49808d4a707d487075107860133089001028388330701283507492658010182676801977701826b5801d47b0b014926d8034926d0034926c8039568c0037b6bc0038267180150206803bc9e3308208267180150206a03f4a28378330920330733006c030a0d280e330920330733006c030a0d01956718194927b8054927b0054927a80550226e03a33d8388c0fec868087b97c0053307502070036b9e3302720395681819014928a00549289805492888054164893307049568a01e4929900533005c03283e9e64ba956718198268f000957900057b98e8008268f8007b98f000956c000182c87b98f8009568001f82c9087b79000664b77bca980033003a28039e8267980181775617639e0033089001028388330701283506826798018177561743860133089001028388330701281d0652474a45080ea60595671821492700074927f8064927f0064927e80695670030837700f8330074030a1001956a182195ab000682b7f80082a8000782b9f00082bae800d49808d4a707d487075107dd053308900102838833070128c00550227603743bac78d7053308900102838833070128a9059567c017330078033302120528933b95681811958900068297a8007b6798018297b0007b6790018297b8007b6788018297c0007b6780019567a01733007a033302160528663c9568181195890006829788007b677801829790007b677001829798007b6768018297a0007b6760019567801733007c0333021c05282f3c956b181195bc000682c76882c87082c97882ca80007bca207bc9187bc8107bc708956b000182b7607bc74082b7687bc73882b7707bc73082b7787bc72882b780007bc76082b788007bc75882b790007bc75095676017956840179569201782ba98007bca4850207e030f2433089001028388330733093300ce030a0d3302d00328603a9567401b330080033302260528933a95671819827728027b6790019567201b330082033302160528823b95671819827708027b67f00033079001037b67080183777b670001330084030a0482690801330286032878328269080150228603713249290002959b00017bb8f8007bb7f0009568001b7bbae800330750208803e29b33028a0395681819014928e0014928d8014928c8010264893307209568e01a4929d00150208c03b99b33078001027b671801390780010233083fac78118268180148084033028e0328ed3750228e03ea373307900102837783993308407b671001330090030a08826a98013302920328d434826a980150229203cd347b679801647182679001977720987920956718194927c0014927b8014927b0019568c01a7b69f8007b79a801330750209403329b8267700195681819958900017b97a000826778017b979800826780017b979000648a3307209568a01a826988017ba9880150209603fb9a82671801817756173f12826718014807403302980328f53250229803f23233009a030a08826a900133029c0328e835826a900150229c03e1358267000133009e030a04826908013302a003287638826908015022a0036f387b6890019877206f987b688801978820d487077b6780019567801a826898015020a203709b95691819018297700180986c0182997801977a20d4a808979a20987720d4a707956b000182ba8000d3a70782ba9000d3a80882ba8800d3a909989920d49808d487075207700695670030837740fd0a09019567182982724004827b38047b6b580182743004827a28047b6a4001682768b8958940db2709684768a8958840db470895878000d42b0adaa709d8870c94ac8ecb8897f000857a01daca0b88b7019570ff9ab39accc9ac0a9a99ef008e3c8e07da0c07889c000185cc018ea8dba80cdbb70c7b6438017b625001d42407826b400182685801d4b808d48707887701d4c70764b894787b689801520712068597ff00d43707d40a08d48707510701065022a403a5315020a603d8385022a80366385020aa03f2385022ac039c365020ae03e6387b6720017b68e80082696001889780007b67e00082674001826838015020b003c4385022b203f437826ae00093a77bb77851088e0564a98267680182682801d4870764ac8268e8005022b40383305020b6036c385022b803e4375020ba0360387b67e8005022bc038b365020be0376385022c0036e338268e8005022c203b6345020c4033a385022c60305325022c8037933d89002826b2801d8ab0cdb320c5022ca038b33d4870297b801826b700198b33fd4380397b801826b780198b43fd4480897bb0182675801d47b0b7b6b780182675001d478087b687001d437087b686001d427075022cc037a2fd89b02c99b0988ab01c9bc0c827b8800c92b0b95aaff7b7c90007b7b8800d4bc027b7a9800d49a0bd42b0a840b017b7b587b79800049265001520a68ff289c045247ce3c124554956718294927800149277801492770014927680195670030837780fa0a1001956a182995ab000182b77882b8800082b97082ba68d49808d4a707d487075107f405330890010283883307012822330890010283883307012816838833070133093300ce030a0d3302d00328ba3533093300ce030a0d3302d00328ab355022d003a835ac78c205330890010228ce9567001e3300d2033302260528cd35956718198277e8047b67700133079001037b67880183777b6780013300d4030a04826988013302d60328cd2d826988015022d603c62d4929e004959b00047bb8d8007bb7d0009568e01d7bbac80033075020d80337973302da0395681819014928c0044928b8044928a8040264893307209568c01d4929b0045020dc030e9733078001027b679801390780010256173f0c82689801480840019517e08479e07b69780164913307900102837783993308407b6790013300de030a08826a78013302e00328b42e826a78015022e003ad2e9517e08477e07b677801647182677001977720987920956718194927a00449279804492790049568a01d7b6970017b79880433075020e203839682675001956818195022e40370339568801d826968017ba968045020e603639682679801817756173f0c82679801480740019517e08477e07b6768015022e80307303300ea030a08826a68013302ec03282c30826a68015022ec032530826b78017bba187bb9107bb8087bb7826780013300ee030a04826988013302f00328cb33826988015022f003c4337b6868019877206f987b686001978820d487077b6758019567601d826878015020f203c59695691819018297500480984c0482995804977a20d4a808979a20987720d4a707956b000182ba58d3a70782ba68d3a80882ba60d3a909989920d49808d487075207c004826780013300f4030a04826988013302f60328e72b826988015022f603e02b49292004959b00047bb8187bb7109568201d7bba0833075020f80354953302fa039568181901492800044928f8034928e8030264893307209568001d4929f0035020fc032b9582679801817756173f0c82689801480840019517e08477e07b6778015022fe03cf2e0a08826a780182a71882a81082a90882aa6f777b6778016f877b6768016f977b6760016fa77b6758013302000495691819014929e0034929d8034929d0039568e01c826770017b97c803330750200204b7948267580195681819958900037b97c000826760017b97b800826768017b97b000648a3307209568c01c826978017ba9a80350200404809482679801817756173f0c82679801480740019517e08477e07b67780150220604242e0a08826a780182a782a80882a91082aa186f726f876f996faa951be084b8e0648195ab02d8ab0ac8a90cd89c09daaa09c87909d87907c827077b8c087b8b7b89107b87189567a01c7b68780150200804fe9495671819827790038478ff0051088a0333020a0495691819014929780349297003140700000000c884c1c17b9780039568801c49296803330733003e0428c99333020c0495691819014929580149295001140700000000dbf71c6f7b9760019568601a4929480133073300bc04289993492658010195690001829778977701829858d487077b979800018267f00082689801ab8734058267000133000e040a04826908013302100428cd298269080150221004c62949292001959b00017bb8187bb7109568201a7bba083307502012043a93330214049568181901492800014928f8004928e8000264893307209568001a4929f00050201604119382671801817756173f128268180148084033021804280b2b50221804082b33001a040a0833021c0428d32b50221c04d02b7b97e0007b97d8007b97d0009568e0198267f8007b97c800330750201e04c09282677801956818197b87c000826780017b87b800826788017b87b000648a3307209568c019826990017ba9a800502020048d9282671801817756173f12826718014807403302220428872a50222204842a330024040a083302260428852e50222604822e95ab0250222804722b95681829958a00047bab487bac507ba9587ba7609567a0199568602d50202a042393956718197c7790005107130433022c0495691819014919784919701407000000006d53a9a77b9780009568801949196833073300bc0428f591826798018177561763ec0533089001022818fa9567200233002e0433021205281630956a000282a72082a82880693002492618027ba9107ba808956800027ba7330750203004b0914926f8014926f0014926e001033307209568e0014926e80150203204929133078001027b679801390780010256173f0c82689801480840019517e08479e07b698801649133079001027b67900183778399330840330034040a08826a88013302360428472b826a880150223604402b956b182195bc00077bca207bc9187bc8107bc7089567c001956820285020380411928067c0014926b8014926b0017b67a001330780009568a0014926a80150203a04fd9082679801817756279f0018826898014808a00082679001837880002842f282679001837880002837f233023c0495691819014929380449293004140700000000dbf71c6f7b9740049568401d49292804330750203e04a59082679801817756171f1a82689801480820330701330904826890010a0d28a307330701330904826890010a0d2894071408ffffffff000000007b686801956a181995ab000382b8880082b9980082baa000867701956b182995bc00047bc8a8007bc9b8007bc7b0007bcac0009568c02d8267780150204004959182678001330042040a04826988013302440428822682698801502244047b2649296003959b00037bb8587bb7509568601c7bba48330750204604ef8f3302480495681819014928400349283803492828030164893307209568401c4929300350204a04c68f9517e08477e07b677801647182679801817756173f0c82689801480840019517e08477e07b67600150224c045e2933004e040a0801826a600182a782a80882a91082aa186f776f886f996faa95ab03502250049028826878017b8b7b8c087b89107b87189567201c502052044a90956718198277080382686801d278085108e60582686801c88707d287077b6798019567001c82687801502054041b90956a181980a7ec0297772082a8000382a9f80282aaf002826b9801d4b707956b182995bc00047bc8e0007bc9d8007bcad0007bc7c8009568e02d82677801502056044f9082678001330058040a048269880133025a04282f268269880150225a042826d4780298aa206f99979820d4a808989920826a7001956718197b7a88023a0a4000023a0b4800023a0c5000027b7ae0027b7bd8024927a002957b00027bbcd0003a0a58000249279802492790024927c0027bbac8007bb9b8007bb8b0009569e01b956ac01b956ba01b7b72a8023307330850205c04ce90330782689001288df633025e0495691819014929380149293001140700000000635bb2d57b9740019568401a4929280133073300bc0428138e82670001330060040a048269080133026204286d24826908015022620466244919607b98587b9750956860197b9a48330750206404df8d3302660495681819014918404918384918280464893307209568401949193050206804ba8d82671801817756173f128268180148084033026a0428b42550226a04b12533006c040a0833026e04287c2650226e0479267b97207b97187b971095682019826798017b97083307502070046d8d82677801956818197b87826780017b87f8826788017b87f0648a33072095680019826990017ba9e8502072043f8d82671801817756173f128267180148074033027404283925502274043625330076040a08826a900133027804287426826a9001502278046d267b6790016471956918114929e0074929d8074929d0079568e0188267f8007b97c807330750207a04dc8c8267700195681811958900077b97c000826778017b97b800826780017b97b000648a3307209568c018826988017ba9a80750207c04a58c8267180181775517400c82671801480740019517e08477e07b678801647183793308408267100133007e040a08826a88013302800428f924826a880150228004f224826890017b8a187b89107b8b087b879567a018502082043c8d95671811827788078478ff0051085903847800ff0051089903956918114929780749297007140700000000f08982c97b978007956880184929680733073300bc0428038c9567ff079577e102330084043302120528332a9568ff0795881901958900018297e0007b67d8008297d8007b67e0008297d0007b6718018297c8007b6710019567ff079577c102330086043302160528fe2a9568ff0795881901958900018297c0007b67d0008297b8007b67c8008297b0007b67c0008297a8007b6700019567ff079577a1023300880433021c0528bf2a9567ff0795771901827788017b670801956700308377a0fa0a0901956718298272a001827b98017b6b580182749001827a88017b6a4001682768b8958940db2709684768a8958840db470895878000d42b0adaa709d8870c94ac8ecb8897f000857a01daca0b88b7019570ff9ab39accc9ac0a9a99ef008e3c8e07da0c07889c000185cc018ea8dba80cdbb70c7b6438017b625001d42407826b400182685801d4b808d48707887701d4c707947b520730038597ff00d43707d40a08d4870751071f0350228a04d82250208c040b2a50228e04992950209004252a50229204cf2750209404192a7b6720017b68f80082696001889780007b67f000826740018268380150209604f729502298042729826af00093a77bb7785108b20264a98267680182682801d4870764ac8268f80050229a04b62150209c049f2950229e0417295020a00493297b67f8005022a204be275020a404a9295022a604a1248268f8005022a804e9255020aa046d295022ac0438235022ae04ac24d89002826b2801d8ab0cdb320c5022b004be24d4870297b801826b700198b33fd4380397b801826b780198b43fd4480897bb0182675801d47b0b7b6b780182675001d478087b687001d437087b686001d427075022b204ad20d89b02c99b0988ab01c9bc0c827b8800c92b0b95aaff7b7c90007b7b8800d4bc027b7a9800d49a0bd42b0a840b017b7b587b79800049265001520a68ff28c001956718194927780249277002492768025022b4047228838880fbc868087b97800233075020b6043a893302b80495681819014928600249285802492848021164893307049568601b492950025020ba04118982679801817756173f1982689801480840330701330924826890010a0d280f330701330924826890010a0d01956918114929d8064929d006140700000000b6e2a4af7b97e0069568e0174929c80633075020bc04bb8882671801817756171f0c8268180148082001330701330904826810010a0d01956a181195ab000782b8900082b9a00082ba980086770001956b182995bc00047bc8707bc7687bca787bc980009568802d826790015020be04cb89826700013300c0040a04826908013302c20428ab1f826908015022c204a41fd4870798aa206f99979820d4a808989920956c1811492c0007492cf806492cf006826a98017bcae806826af8007bca08073a0a6000023a0b680002492c2007492c18077bca60077bcb58073a0a7000023a0b780002492c1007492c40077bca500795ca00077bab487ba9387ba83064c895696018956a4018956b2018956c00187b872807330733085020c404f68a33078268100128f2ef492658010182677801977701826b5801d47b0b0182670001aeb7df06826708019777209878209587ff88773293877b6828019387510714071407ffffffff000000007b6730018267e000977720987920956aff0795aa1901492a40018267100195ab00017bb728826718017bb7309568ff07958841027b6938017bb93833075020c60426879568ff07958819014928200149281801492808010364893307209568ff0795882102492910015020c804fa8633078001027b677801390780010233083fac780b8268780148084001140700000000ffffffff7b6720015022ca0423233307900102837783993308407b6770013300cc040a08826a98013302ce04284c22826a98015022ce04452295bc00017bcac0007bc9b8007bc8b0007bc7a8009567ff07957701029568c02a5020d0046b879567ff07957719018277e800492640014926f8004926f0004926e80049268801492690014926980182683001d287077b670801330701017b678001826b90018eb7826a98018ea8daa7088267080182698001d89707826c88018ec9dac709d4ab07db78095209030695690001829730829840d28707829828ae87ef059569ff07959919014929e000826710017b97c800826718017b97d0009568ff079588e101826738017b97d80033075020d204c9859567ff07957719014927c0004927b8004927b000647a3307209568ff079588c101492aa800025020d4049d8582677801817756173f12826878014808403302d60428bb1f5022d604b81f3300d8040a083302da0428071c5022da04041c7b97a000826790017b979800826788017b9790009568ff079588a101826780017b97880033075020dc044085826748019568ff07958819017b878000826750017b8778826758017b8770648a3307209568ff0795888101826960017ba9685020de04088582677801817756173f12826778014807403302e00428ba215022e004b7210a08826a600182a71882a81082a90882aa6f7c6f8b6f976fa9826868017b6958017b89187b6760017b87107b6b50017b8b087b6c48017b8c9567ff07957761015020e20496859569ff07959919018297508298588299488477ff8488ff826a2001d2a909d49808d4870751077703956c000182c848958702d8870882ca505022e404ba2182c860c88a0ad88a0882cb58c8b808956b182995bc00017bc7c8007bc9d0007bcad8007bc8e0009567ff07957741019568e02a5020e6041f859567ff07957719018277308477ff00520715039569ff0795991901491920826710017b9708826718017b97109568ff0795882101826738017b971833075020e804ea839567ff079577190149074917f895670010492708f93307209568ff0795880101956a0010492a00f9045020ea04bb8382677801817756173f12826778014807403302ec0428d91d5022ec04d61d3300ee040a08826a68013302f00428791b826a68015022f004721b956700104927f8f8956700104927f0f8956700104927e8f89568ff079588e10082670001956900107b97e0f833075020f2044e8382675001956800107b87d8f882675801956800107b87d0f882676001956800107b87c8f83307209568ff079588c10082696801956a00107ba9c0f85020f4040d8382677801817756173f12826778014807403302f604282b1d5022f604281d3300f8040a083302fa0428831b5022fa04801b82679801956800107b87b8f882679001956800107b87b0f882678801956800107b87a8f89568ff079588a10082678001956900107b97a0f833075020fc049c8282674801956800107b8798f882675001956800107b8790f882675801956800107b8788f83307209568ff079588810082696001956a00107ba980f85020fe045b8282677801817756173f128267780148074033020005280d1f502200050a1f330002050a083302040528001c50220405fd1b95776150200605138395670010827760f88478ff0051080c0184770000ff005207020182678001956800107b8700f882670001956800107b8720f882671001956800107b8740f882678801956800107b8708f88267c000956800107b8728f882671801956800107b8748f882679001956800107b8710f88267c800956800107b8730f88267e000956800107b8750f882679801956800107b8718f88267d000956800107b8738f89567ff079577419568ff079588219569ff07959901826ad800956b00107bba58f850200805f1088267e8007b67d8078267f0007b67d0078267f8007b67c8079567e0079568c007826940017b69c00750200a055907956800078287f8007b67e8008287f0007b67f0008287e8007b67f8008287e0007b67400101826780017b678007826788017b678807826790017b6790079567a00795688007826998017b69980750200c050607956800078287b800956900017b9798008287b0007b9790008287a8007b9788008287a0002875fa9569ff07959919014929780149297001140700000000d94b11cf7b9780019568ff079588810249296801330750200e058280390880010256181f1220038001022033089001022852e03308900102284ae09569ff0795991901492958014929500114070000000059e962787b9760019568ff0795886102492948013307502010053180390880010256181f1220038001022033089001022801e0330890010228f9df3307826870012850e80a020182171082181814090000000001000000d37909d48909987a2088aa01948a939a510a248219821a087b697b6a087b67107b68189551c08210388215308216289511403200330890010283883307013309330014050a0d3302160528f31e50221605f01e3308240a0201821718821810821908d4780a889b0194ab510b0d821a50221805401b320033089001028388330701330933001a050a0d33021c0528b01e50221c05ad1e33084433001e050a023302200528dd1b50222005da1b520b0b50222205001b3200330890010283883307013309330024050a0d3302260528661d50222605631d330028050a0233022a0528a01b50222a059d1b520b0b50222c05c31a320033089001028388330701330933002e050a0d019511a07b10587b15507b16489515608411f0828910828c08828b82881897923f98ca01d42a02978a3f989901d49a0a97cc3f98b901d49c0c98830184bb019ab888b60184c97fd2a804d2280adbbc09d2380b88982094a8d4b40c94c8ab86167b797b7a087b74107b7b1850223005dd1c320050223205ba1950203405717eff491118491110490122330704641849110850203605597eff390880010256183f0b2003800102400133089001028388330701330924330038050a0d01951170ff7b1088007b1580007b1678951590008411f064728289827408828c088273959a1fd89a00c80c0984aae07b1308c8a303d8a30bc8490ac8ba0ad39a06d89a07da6b07822b18d8c90c828610822210828818da000cc86c0cd86c06c82c09c89707d8c90cd89709c8b808c86808c8c808c8980c8ec88e79dbc809d4c7088ea6db8906520658821808d88308d34a09d84a06da9806d82708d3bc09d8bc0bda980bd32708d49808da860b520b317b13507b1a587b17603307409518507b1c6850203a056d7dff955170ff821088008215800082167895119000320050223c05771b50203e054b7dff4911284911204911104133070495181049111850204005317dff390880010256183f0b2003800102400133089001028388330701330924330042050a0d019511807b10787b15707b1668951580008411f0829b828a829608828308829410828c10829918828818d363027b1608d863067b1b187b1a10d8ba0a7b1ada2a06d3980ad89800d84c02daa200d34c0bd4ba0adaa600520046c94c0ac99808c92808d86a09c99808c96a0a821908c99309821bc9b909821b18821c10c9bc0b7b7b7b79087b7a107b7818955180821078821570821668951180003200491150491148491140140700000000717b484e9518407b1758330750204405507cff4911384911304911201133070495182049112850204605367cff390880010256183f0b2003800102400133089001028388330701330924330048050a0d01828a18828b108282088eac8eb9dbac09d4ba0a8e2bdba90b520b30828895891fd88908c828088488018499e0959a20d89a09c8980bd88b08da99084917187b7a7b7b087b781032009511b07b10487b15409515508411f050224a05f71650204c05ae7bff491118491110490141330704641849110850204e05967bff390880010256183f0b2003800102400133089001028388330701330924330050050a0d019511c0fe7b1038017b1530017b162801951540018411e064760a0c0151074f017b16180a0c64794921f8004921f0004921e800951700019518e0007b19207b19e000502052051eff821700017b1740821708017b1738821710017b1730821718017b17289517c00033084050205405c679ff8217d8007b17588216d0008219c8007b1950821ac0007b1a488218287b1898008218307b1890008218387b1888008218407b1880007b17b8007b16b0007b19a8009517a000951880007b1aa000502056057efc821748821858821950d48909d46708d498089888207b1640d46909979920d49808520884004911784911704911689518608219207b1960502058056f7aff0a0c01821a48821840821958d498081409e0ffffff00000000d89a09821b5094b99489510944647698772052073c83a72083687b1838646850205a05757eff7a16200183778318200133090a0b01821b4881172001821618821858821940821a50821c38aec70e00330a33093308330b60017b6b7b6a087b69107b68189551c0fe82103801821530018216280195114001320080881409ffffffff00000000aa981c958801888901d4980a88aa014917187b787b79087b7a1032009511b07b10487b15409515508411f050225c05e11450205e059879ff4911184911104901113307046418491108502060058079ff390880010256183f0b2003800102400133089001028388330701330924330062050a0d019511907b10687b15607b16589515708411f0828a187b1a08829b1882847b14828a08829608829c828310829210c8a609c8c404d8c40cc8c909d36900d86906da0c06c83208821c08c8bc0cd8280bc8cb0bc8680cd88c08c88b00d3a90bd8a90a8218d88406dbba06d83c02821808d3800bd8800adab20ad33c08d4b808db8a0652061f7b747b79087b7c107b7018955190821068821560821658951170320050226405dc1650206605b078ff49112849112049111011330704951810491118502068059678ff390880010256183f0b200380010240013308900102838833070133092433006a050a0d01951100f9951a00067ba0f8007ba5f0007ba6e800951500078411e0641682997b692882887b68308278107b68208278087b683882777b6740836720060a0901826238068263300682672806826b20067b6b7868296838958a40db290a687968b8958840db7908958b8000d42309da9b0ad88b0c949c8ecb88a8f000858901dac90b88b4019540ff9ab49accc99c099aa8ef007b64a8008e4a8e0cda0a0c7b68b800888a000185aa018e98db980adbbc0a6474826778d42408d4370bd4b808888801d4a808647a948a5208e9028268b8008588ff00826ca800d4c808d4090bd4b8085108d002826bb80095ba017b6ab00088a801c898087b68a000d4a808888801c8c8087b689000d8c808c808087b6898009ab9ff007b6988009a99800064487b64707b62687b636050206c05a8167b6780007b68508267608268688269880050206e05b7167b67487b68188268b8009a897f826778826870502070059e167b67107b68b80082698800889780007b6758826778826870502072058016826c58826b9000826a98008269a000d4a909826ab000d4ba0ad49a0a93c77b67a800510a0502826750826918d497078269b800dac907826268642a82638800db370a7b6ab80082678000826948d49707826910dac907826b6064badb370a7b6a800093c87b6888004916588051018267b00095798064b7642850207405db157b67507b68188267788268708269b00050207605c5157b67107b68488268b0009a89800082676082686850207805d115826948d49808826ab00088ab80007b6b48826918dab908826970dba8097b6970826810d48707826850dab807826878dba70864a97b687882676082686850207a056815330c82694893989397826a5895a9ff7b69508ea99599ff7b6948826370826478017b6c7898493f973a01d49a0c974a01826bb80098bb3fd4ba0a7b6a688269487b6c706434d3c903d8c902826b50d8ab0cdb320c978801987a3fd4a8087b6860984a3f977701d47a0a8267b800977701826b800098b83fd4870297b801826b880098b33fd4380397b801826ba80098b43fd4480897bb01826778d47b0b7b6ba80086887b68880086387b68800086277b67b800c9a907d8c707d8a908826260c9290bc98b0bc97b0b99bc3f826758d2c707826868c97804d87808826770c987039478c98a07d88a08c98208826ab0008260a000d40a09889901826b9000d89b02c99b0988ab01c9b000826b9800c92b0b95aaff7b60a0007b6b9800d4b0027b6ab000d49a0bd42b0a84cc017b699000520af2fe2805330c018267a800977701d47c0a01826730aea7a4088267209777209879204926f8058267407b67e0058267387b67e8059568e0057b69a8007b69f005330750207c058a74ff4926d8054926d0054926c005023307209568c0054926c80550207e056b74ff3308800102390780010256173f0b200380010240019517e08479e07b69a000649133079001027b675083777b68b00083993308407b67b800330080050a083302820528b40d50228205b10d8267289777209877204926b8054926b0054926a8059568a0057b6790007b67a005330750208405f673ff826778956a00057ba79800826780007ba79000826788007ba7880033072095688005826998007ba9800050208605c573ff8268b000818756173f08480840019517e08477e07b67980050228805581033008a050a0833028c0528f60e50228c05f30e9567600550208e057b74ff806764058268680582697005977720d49808d487075107a107492658058267407b6740058267387b674805956840058267a8007b6750053307502090054973ff492638054926300549262005043307209568200549262805502092052a73ff8268b000818756173f08480840019517e08477e07b67a00050229405bd0f0a08826aa00082a71882a81082a90882aa6f777b67a0006f877b6798006f977b6788006fa77b678000492618054926100549260805956800058267307b670005330750209605c372ff82678000956a00047ba7f800826788007ba7f000826798007ba7e8003307209568e0048269a0007ba9e000502098059172ff8268b000818756173f08480840019517e08477e07b67a00050229a05240f33009c050a0833029e0528f40b50229e05f10b4926d8044926d0044926c8049568c004826790007b67c00433075020a0053f72ff826778956a00047ba7b800826780007ba7b000826788007ba7a8003307209568a004826998007ba9a0005020a2050e72ff8268b000818755174008480840019517e08477e07b6798005022a405a10e3300a6050a083302a805283f0d5022a8053c0d956780045020aa05c472ff826880048487ff0051071f067b68980084870000ff0052073906826798047b6758826790047b6760826788047b6768492658048267407b6740048267387b674804956840048267a8007b67500433075020ac057c71ff4926380449263004492620040133072095682004492628045020ae055d71ff8269b000819756173f08480940019517e08477e07b6788005022b005f00d0a08826a880082a782a80882a91082aa186f777b6788006f877b6780006f977b67786fa77b67709518e08488e064818269980086970000018269587b89188269607b89108269687b89087b878267a0005020b2055272ff82689800848700ff007b6798009517e08478e06481826770957701887901826b78c89b0bd4b709889901826a8000c8a909d8a90a826c8800c8ca0a7b8a187b89107b8b087b87956700047b68a0005020b4058571ff8262180482631004826a0804826400049518e08488e064813a0c200102c84c0cd84c09c89a079577ffd3a700d8a70bda090b9539ffc89b0bd89b00883901c99209c809097b87087b8c7b8b107b8918826798005107a6013a072801027b679800d8740794a7d4230994975207ce048267a0005020b6058471ff9517e08478e06481826970959702d8970b826a78c8ba09d8a90adabb0a826b8000c8ba0ad8ba0c826b8800c8cb0b7b8a107b89087b877b8b189567e0037b68a0005020b805c470ff8262f8038263f003826ae803826be0039518e08488e0648182649800c8b404d8b407c87a09d8a90cda770cc83c0cd83c077b8c103a0c300102c827077b89087b84d8bc0995aa0194a9d2230a95aa0194a97b871852096a048267a0005020ba05d970ff9567c0033308405020bc05276eff956b000382b7d80082b8d00082b9c80082bac0005022be05960952072c034926b8034926b0034926a8039568a003826798007b67a00364a77b6ab8005020c0051e6fff4926380349263003492628038267307b672003492658034926500349264803826790007b674003492678038267a8007b6770038267387b6768033a073801023a084001023a09480102826a407b6a60037b6798037b6890037b6988033a0750010233082095698003956a6003956b4003956c20037b6780038267b8003300d20528d971ff3a072801027b679800d8740794a7d4230994975207ba038267a0005020c205e26fff4926580649265006492648064926400695678002956840065020c4054b6fff8262980282639002826a8802826b80029518e08488e0648182649800c8b404d8b407c87a09d8a90cda770cc83c0cd83c077b8c103a0c300102c827077b89087b84d8bc0995aa0194a9d2230a95aa0194a97b871852097f0349267806492670064926680649266006956760065020c605506fff5020c805516cff3a08b001037b68a0003a08c001037b6888003a07b801037b6780000a0a826880006f88978920826a88006faa98aa20d4a909988820826aa0006faa330b90010397ac20d4c80898aa203d0aa001033e089801033e0990010349269806492690064926880682689800956900067b9880004826a0068e77fc089a787b98d8007b98d0007b98c8007b98c00097bb2098bb20977723d4b707956880069788209888209569c006979920d4890a826b5097bb2098bb209568a006978820d4b80c3308ff3309ff0a7b67a000956760025020ca05a1f18267a0005207f802956720023308405020cc05bd6bff956b000282b73882b83082b92882ba205022ce0530075207c60049261802492610024926080295680002826798007b67000264a77b6ab8005020d005b86cff4926980149269001492688018267307b6780014926b8014926b0014926a801826790007b67a0014926d8018267a8007b67d0018267387b67c8013a075801023a086001023a09680102826a407b6ac0017b67f8017b68f0017b69e8013a077001023308209569e001956ac001956ba001956c80017b67e0018267b8005020d205776fff955100f9951700068270f8008275f0008276e80095110007320000492610064926080649260006140700000000d94b11cf956800067b67180633075020d405f36bff390880010256181f0b20038001022001330890010283883307013309040a0d014926d0004926c8004926c0001407000000006d53a9a79568c0007b67d80033073300e00528a86bff4926f0004926e8004926e000140700000000b6e2a4af9568e0007b67f80033073300e00528806bff49267004492668044926600414070000000000f90f56956860047b67780433073300e00528586bff4926d0024926c8024926c002140700000000717b484e9568c0027b67d80233075020d605346bff4926b8024926b0024926a002113307049568a0024926a8023300de0528116bff492610034926080349260003140700000000717b484e956800037b67180333075020d805ed6aff4926f8024926f0024926e002113307049568e0024926e8023300de0528ca6aff492630014926280149262001140700000000717b484e956820017b67380133075020da05a66aff4926180149261001492600011133070495680001492608013300de0528836aff492670014926680149266001140700000000717b484e956860017b67780133075020dc055f6aff4926580149265001492640011133070495684001492648015020de05406aff8267b000817756173f138268b000480840330701330924286e3307013309248268b8000a0d33073300e20528886eff49265002492648024926400214070000000018ecb890956840027b67580233075020e005ea69ff8267b000817756171f138268b00048082033070133090428183307013309048268b8000a0d33073300e20528326eff8268b8000a0d33073300e20528226eff33075020e2051c6eff3307015020e405126eff82970881981082996f77977a206f88988820d48a0a9877206f98978920d49707988820956918193202826a680182a71882a81082a90882aa6f777b6760016f877b6758016f977b6750016fa77b6748019517e08477e07b67680164719569ff07959919018267980132028269400182970881981082996f77977a206f88988820d48a0a9877206f98978920d497079888209569ff079599190132027b676801c9a007d8c707d8a008826c3801c9c00bc98b0bc97b0b99b03f82673001d2700782684001c97804d87808c989039498c98a077b674801d88a08c98c0895670001827a9800827c9000d4ca09889901827b8000320282970881981082996f7a97a7206f889888203202da980782695001649a649882696001db970a7b6a680182674801826a3001d4a707826a2001daca07826b580164badb970a7b6a60018267700193c77b677001492630018051018267980195798064b7320282970881981082996f77977a206f88988820d48a0a9877206f98978920d4970798882095691821320282a71882a81082a90882aa6f777b6768016f877b6760016f977b6758016fa77b67500132029517e08477e07b679001647183793308408267100132029598017b689801888701c8a7077b679001d48707887701c837077b678001d83707c807077b6788019a98ff007b6860019a8980008267400182683801320282970881981082996f77977a206f88988820d48a0a9877206f98978920d49707988820320282a71882a81082a90882aa6f776f8b6f996faa3202826a680182a71882a81082a90882aa6f777b6760016f877b6758016f977b6750016fa77b6748019517e08477e07b676801647132029517e08477e07b67680164718379330840826778013202826a900182a71882a81082a90882aa6f777b6790016f877b6788016f977b6780016fa77b6778019569181933073202d8ab0ac8a90cd89c09daaa09c88909d88908c88707320282644001826338014926580149265001956b000182b928939893977bb74882ba3095a9ff7bb9288ea99599ff7bb920320282a71882a81082a90882aa6f777b6788016f877b6780016f977b6778016fa77b6770019517e08477e03202826aa00082a71882a81082a90882aa6f777b6798006f877b6788006f977b6780006fa77b67789517e08477e07b67a0006471320264718379330840826790013202826a600182a71882a81082a90882aa6f776f8b6f996faa826868017b8a187b89107b8b087b879567ff07320282a71882a81082a90882aa6f776f886f996faa320282a71882a81082a90882aa6f777b6778016f877b6770016f977b6768016fa77b67600132029517e08477e07b67680164718379330840826770013202d49707d48a09d47909989920d48707977720d497073202330b330c8269280193989397826a380195a9ff7b6930018ea99599ff7b692801320282692801d4980882699801889a80007b6a2801826b2001daab08826b3801db980b7b6b3801320298493f973a01d4a909974a0182646801984b3fd4ba0a7b6a4001826020016437d390033202978801826b480198ba3fd4a8087b683801987a3f97b701d47a0a974701826b600198b83f320282689801826950017b8908826958017b89826970017a8910648a9569182982688001320282a71882a81082a90882aa6f776f886f996faa826b98017bba187bb9107bb8087bb73202491130491128491120140700000000717b484e9518207b173833073202826a980082a71882a81082a90882aa6f776f8b6f996faa8268a0007b8a187b89107b8b087b8732027b6a600193b87b686801492638018051018267900195798064c76438320282a71882a81082a90882aa6f776f886f996faa956b182932027b6a7b69087b68107b67189551c08210388215308216289511403202d4870782684801daa80782684001db97087b6840018267580182685001320282ab7b1b1882ab087b1b2082ab107b1b2882aa187b1a308296829a087b1a829a107b1a088299187b19103202826a900182a782a80882a91082aa186f776f886f996faa32027b6710017b682801826890019a898000826750018268400132029517e08479e07b6998016491320282692801d49808826a900188ab80007b6b280182691801dab908320233071829c8760a95ab00023202821718821810821908821ad4790bd48a0cd4bc0c98cc20d48b0b97bb20d4cb0b3202647183793308408267b80032029517e08477e07b679801647132029517e08477e07b676001647183793308408267700132029517e08477e07b67600164718379330840826778013202958900047b978000826758017b9778826760017b9770648a330720320282c72082c81882c91082cb08d49707d48b09d47909989920d48707977720d4970732027b6730017b6828018267600195798082674001826838013202c88a09d8a90ada880a32028267980182692801d4970782691001dab90782634001643a3202140b00000000010000001407e0ffffff00000000d8780782c99000949794a732027b682801826898019a898000826758018268500132027b9740826750017b9738826758017b9730648a3307209568ff07320282970881981082996f77977a206f88988820d4a8083202956c00017bc880007bca9000d48a077bc9787bcb8800d49b08d4870732028267980181773308233202826898018187107b67700182877b6758018287087b6750013202491140491138491130140700000000717b484e9518307b1748330732029511c07b10387b15307b16289515408411e06476831733080432029551a0821058821550821648951160320282b71882b82082b91082ba08d49808d4a707d487073202826a900182608001d40a09889901826b70013202837718f9c8760a95ab0007320233071829c8760a95ab0003320233071829c8760a95ab00043202956b00017bb87082b8900082b98800d4890982b8980082ba8000d4a808d4980832027b6748017b68200182674001826838018269980132027b6748017b68680182675801826850018269600132027b6760017b68980182675001826840018269680132026479140700000000717b484e3308002032027b6718017b68100182696801889780007b67380132029511c07b10387b15307b16289515408411e0647683173202849a40520a195109148d9a40cfa80ad09808d09707d4a707320032009597c0d0780733083200849a40520a195109148d9a40d0a70acf9707cf9808d4a808320032009598c0cf87083307320049922425494b2a252da9944c4949490a21a11a4292d210a1925429a42449922449922449922449922449922449922449922449922449922449922449aa9294529294942454a5242549922449922449922449922449922449922449922449499294a4aa24254994a492a42a494149929294a4aa2a494952924a922222222549929224a95029a5244929a524a9a4888828222252922409124a252525458a142952a44891a22445444411119192244949922448282a52a4489122458a142952a4489122458a122922224a920421240ca5496948848888484444342222498424894414890851a81a2242440049528948922491842424499224c950124a42495200a51022184a5aa12a119224841052a14a95464444a4880812114284484469442001114820018104041210482081444444a44410119124892211091111119124499210111111494444a4111111499228121111112122118944221222822422222222228a9088444444444a04411224116944924422114912a2489188202222220a8911a14484240a21829144a1124592aa22494949922449890811111189249248244992888888888888888810111111119124112122444444444444444444444444444444448888888888882411211222922449922411894422528448918820294988082144444424222214451125894823a28824499044248d24099210458a4404111151880889084914420423894254224522824852848888482491249224494444444444448448924892881029221045041289441245442449249144124932228824124444442089888888882288282222909424420821224992888848444444342249922481242222222222a22022242248a21009118150299254144511498a202222222292484492449248228288888888482210492422924404914844128144249122222222228888041111912449928888888828222288481248121111111111114422925492884422110922024894924812111141445014252222221a11114992401291684444049210451411118888888288908820894288602451884a44a3245509444922888888441249224992444444444444440491a488888808228a08441181482412892849922492482289241911441209224902494444444414414411892029498410424492241111415114111111118d8888489204928844118124494944442322222aa9249254244925a212298948244925114992124924892422a288402010118908042202111189a4484a44444444118188882449148988888888888888484444442292442252103189120942886012858a44149108a244220511111111918808a2c82482282211245124111111511011111111252282283289208a480491a408222222414444922449924411111111114444240104904a2242898888880822924451124189888888201194a244444434222222491245228a8848242222124444449044942851a244928a24a944548a489224a92422922491482289441211111144444410118908222222228844124952922252242a121189448928029182888808222222824844442211894422228888885492944c9248224a2249249124912492449248442291481249128924259288489224492289244944222222a248101191240992883422495212112589249148524922a21111914449441249244924492491449228499224499244515291a4224942145144228888882888885022822084084612854a4411892092144144444444101191482422828844924824128948928820a2111111955412492a92a412518994448a24894a229224892492441211114510041191882088082222124991942812111189221241908428a28844101111511011a1440441886012854a4411892022222245241289444410111111111111912422124424494492440491202222222222222222a21149144992241124898888882888282211242509112184888848121111144591888888281244442449a248442422222222228d88888848224992249124222222220a22468412118410c1240a4589281244444444444441c48888444a44045164124191a4a2288a4852041123914824512491249248241289224144229148440411491211111111114144529224492222222222222222884824124900894a222222894424888a4892242512484444441409222292245124224144444444440411912892244942081111111151908804918848244a104444441004412422914811110411234922892852224912492291249244924824128924912491482225099224928844922822994842145124884822521011114a440449144204912054248a245545241289228a04111111511011114a44045164001140045144228824898820222222a28a2412914424128988485622258988888822414444441444444489084114890451248844221191828888202282281209a2884410494a9224894812111144442422222222222222888888884444101111914492882812444444444144449488104491481045248288888888288888202222882291208a049148242252101111444410452241140922888888882022222254529244444444444444101189442291a49024499224494904499148248a88202222222924499284a4a4a4241144441011111191888888882022222291888848101111111111894810111111499224894844444411114144440248541291444444440411452482a424218488884812222289281111111141511489442249242222222222a22089a2c888441295282a2249555122a54622892449924892242222888848224912494492244992241111119144228824924412892492441289229512510922119148942088888820088248442291222208224692441251a444922492442249248924914824124922492291444a1224492411892451443222414424a9144922492411491289884844441011894892248988888888888268440089521249a5242549444444441011118944448288888888884810111111111111111191a48808229114499224111111111151109100225149141189a0884644124992882422499248258988880802082022514a125144444444440491882495242222221244049028251111119120a288441091440a22229488208a0c200124894a4423494551144144241289484144229128111144914954a2485229a5449222828824228288888824492422222222880822222222228288884492489288888888202949922449229148a28820224922499224492282882495942489241191202249222222828888a814492422892422128944240aa2884ca2124592244924892449a5a89224924424912492244922258924922449945425492489449224114992244931124922912449148944222222a22022892491444a8c244912898888888888888820920822894444444404112322224144444492248948242222222288884810014422224924499288888820224994221111440411412402082051115144444444444444101189942280481445442292248908222228228848229224118948922401442a22222222884444444410454444440491001211114145932489442422128944444112a520892a8522222249555145226944249188242291884491882491249124499244440411111111111111412491249248241289249248441249228944a494888828912449444424222249924492244992244922824824128948229220228920221291248888442449542412894424494490244992489244244924920490a4221241442412894c924492442489442292202292041191882441442422498a229148249248241291243109929224489244522241241111449288482411412488222292141141041111118988888808228a4804111111051123428908822832894a44912041942482889144444404118944221111449024499248241289888888082241c4888888884492481211112182884800092012a588444444444444108944510410914429221114d188242249129188244912a94844444410514422484a1289841042442489a444221151444404912022881111510011511011114a4404514426d150124a4249280925a12422028888821041484844001151104564120d25a124220288280811848444440011452222808822a12494849250121101441484084242222280882211114044411491493494849250124a4249280925a12494849250124a4249c4880022a220441012123122808828081184848492880820220a42042121a124948492808888888822414444920825a124944444041011511022088525d188882012051123428908a2884ca28188888888224110a12420222222a2481011912442498c444644440489a01495a2111141240a2246841211292222228a48144914424914424940444444442322229244280922944444222222222222221111111111119188249124912449128944222212842a8a44442222221211218a28221144444414448c082522081192482408958822124114494444441444444444948808a28844822822114414910822451211418c8824494422912411d1888888a8a4924852912495a8444a2212912415114922088220082222222208a244112982200822088208822048244112492249242291489024914424922422128888888846249224114aa1548a22459120421191880851441189202222a220624428114188109149142a11452482248a242222220a22828808a2884c22882212412429a288441029928808624424492249922411514422884822051123428908a2884c22289254144511312222a220222222a2444410456412415192aaa42449929444041111112302888822112302888822319224464444118920228914448c08252288221209a2481011115110111111252282282291208a04092292242288888849001129128590884824114954101112118408119944212a514422884892882022222282284444242211230288888228224994244a001111118988888808228a48041149a42062442811411245119944108d9254258892441011894822228848444422222222828822124152928808214444448888888888a8a048c4880022a2484411892049a42062122512441189045124481291828822911291208a482488221241141111110511111111252282282293a84414910822491144448488880022a24844442222222222222222111111111111119188888846444444259544928a24a9442552129188242922490441100441444444044194282245100441044110411004892448224924894424120992249288449244442222824814448c0825228822924425d1880820220aa2884ca21111111149222288282211242589888888082122228488882445444405456224322292a428028848222222918848414444281111840849640011844a441189202222222288888888888844461425225192882489888888888828888888121182282291208a04111111115110111189948848104524121449aa8a48241245041149924812912441922422222222828844442412898814449488444408a2884482282211444444444444414444444424222282282291208a0411111111111111051111111191888808a288448228122488880822222222222222222222222222222222222291484404111111111141444444448c8888888808222222222211110144441484084242222202888828081184841469124092544a49922485521409d22449292894a248902812242894a248104582048552344992a424499224294992945292a0209024251022184aa211914825254992244992244992244925254992244992244902119128082491241022184aa24912a9244992242949922449922425494992244a1240522089248110c150124d524949499224494a4a92048124298110c150128d8888d44845444422884422914820129148229148444444044992244922499240932480a4529252208a9a48926495258988880a2049929292244120494a20443094449324495249499224499224494a92244952922449412089248110c150128d888848a52449894644a4924a2249459254222a11292949928a884812914822492411112509224904492409121149824444222922492445229224258a20524192449044244112912449922425094a2529492649224952922449924422492489244914459124499224494a129144924412914812512399481289444414880889088410c1240a294a449120494444448144444424220251641241140922101149221289882810111211882293088a241545514444240a444444442222104526114491202222a240222222121181283289208a0411888808221289442211110522422202516412415192a2282529429224452042242549924822498a084444248524499224494a2242a41411484a922491449212118888488a24499290949494884024101111414444441481884844444444244208898808898888880891524420222222101191144992242129292911111181408810218a122589429210424444444411114912492449224946041191402449101111114520221211111111891042222242222222021111118d8800220a84088692464400114544440011454444001145444400110522422222222280880211211111111140448188908888880820a240444844208a4852121511110144148822929444454445144820a994a4245124a9288a228922a2482a252949449124922412494a2411914449a594a84844241225a208442aa994a42451928aa2284aa212259248124944444449a5242529495545928aa22892a8242a5124a9288a222a4992141111a9242929494551144991a4a2284a12558922495591a428495525a9288aa2242a519224a9a22251a24844442251924412514a249124912212458a28495591a49204905424a92a925414814895a4aaa82449921289444425499252921425a92a2222a2242a1211912251929224499528894aa212255189222291529224499222221125292291a800024854111151229112259592222289a42845a248942480a49224a9942429499214914491281245a2484422922222a288882822222a802822224a92a44a9224a9a49224492a2900"},"methodIdentifiers":{"STAKE_PER_DAY()":"4a91f7ae","archiveHabit(uint32)":"b650673a","checkIn(uint32,uint64)":"a0145927","claim(uint256)":"379607f5","createHabit(string)":"b683ace1","dailyStatuses(address,uint64,uint32)":"88b21c87","deposit()":"d0e30db0","epochNow()":"222ae786","habits(address,uint32)":"99626634","prepareDay(uint64)":"48cc36b8","redepositFromClaimable(uint256)":"8f23d36c","settle(address,uint64,uint32)":"9c14eb6e","settleAll(address,uint64,uint32)":"45123cce","totalTreasuryReceived()":"badf162d","treasury()":"61d027b3","userHabitCounters(address)":"0e08454a","userStates(address)":"0ecc535f","withdraw(uint256)":"2e1a7d4d"}},"hash":"9f5b595553215b41a9b59a897b130fb10dd2d6556103dc480c423f14be2b7fe1","factoryDependencies":{}}}}