{"contracts/HabitTracker.sol":{"HabitTracker":{"abi":[{"inputs":[{"internalType":"address","name":"_treasury","type":"address"},{"internalType":"address","name":"_stakingAdapter","type":"address"}],"stateMutability":"nonpayable","type":"constructor"},{"inputs":[],"name":"AlreadyCheckedIn","type":"error"},{"inputs":[],"name":"AlreadySettled","type":"error"},{"inputs":[],"name":"CannotSettleCurrentDay","type":"error"},{"inputs":[],"name":"DayNotFunded","type":"error"},{"inputs":[],"name":"HabitAlreadyArchived","type":"error"},{"inputs":[],"name":"HabitIdTooLarge","type":"error"},{"inputs":[],"name":"HabitNotFound","type":"error"},{"inputs":[],"name":"HabitTextTooLong","type":"error"},{"inputs":[],"name":"InsufficientBalance","type":"error"},{"inputs":[],"name":"InvalidAmount","type":"error"},{"inputs":[],"name":"InvalidBalanceType","type":"error"},{"inputs":[],"name":"InvalidEpoch","type":"error"},{"inputs":[],"name":"InvalidStakingAdapter","type":"error"},{"inputs":[],"name":"InvalidTreasury","type":"error"},{"inputs":[],"name":"OnlyOwner","type":"error"},{"inputs":[],"name":"TransferFailed","type":"error"},{"anonymous":false,"inputs":[{"indexed":true,"internalType":"address","name":"user","type":"address"},{"indexed":true,"internalType":"uint8","name":"from","type":"uint8"},{"indexed":true,"internalType":"uint8","name":"to","type":"uint8"},{"indexed":false,"internalType":"uint256","name":"amount","type":"uint256"}],"name":"BalanceMoved","type":"event"},{"anonymous":false,"inputs":[{"indexed":true,"internalType":"address","name":"user","type":"address"},{"indexed":true,"internalType":"uint32","name":"habitId","type":"uint32"},{"indexed":true,"internalType":"uint64","name":"epoch","type":"uint64"}],"name":"CheckedIn","type":"event"},{"anonymous":false,"inputs":[{"indexed":true,"internalType":"address","name":"user","type":"address"},{"indexed":true,"internalType":"uint64","name":"epoch","type":"uint64"},{"indexed":false,"internalType":"uint32","name":"fundedCount","type":"uint32"},{"indexed":false,"internalType":"uint32","name":"insufficientCount","type":"uint32"}],"name":"DayPrepared","type":"event"},{"anonymous":false,"inputs":[{"indexed":true,"internalType":"address","name":"user","type":"address"},{"indexed":false,"internalType":"uint256","name":"amount","type":"uint256"}],"name":"Deposited","type":"event"},{"anonymous":false,"inputs":[{"indexed":true,"internalType":"address","name":"user","type":"address"},{"indexed":true,"internalType":"uint32","name":"habitId","type":"uint32"}],"name":"HabitArchived","type":"event"},{"anonymous":false,"inputs":[{"indexed":true,"internalType":"address","name":"user","type":"address"},{"indexed":true,"internalType":"uint32","name":"habitId","type":"uint32"},{"indexed":false,"internalType":"bytes32","name":"text","type":"bytes32"}],"name":"HabitCreated","type":"event"},{"anonymous":false,"inputs":[{"indexed":true,"internalType":"address","name":"user","type":"address"},{"indexed":true,"internalType":"uint32","name":"habitId","type":"uint32"},{"indexed":true,"internalType":"uint64","name":"epoch","type":"uint64"},{"indexed":false,"internalType":"uint256","name":"slashed","type":"uint256"}],"name":"SettledFail","type":"event"},{"anonymous":false,"inputs":[{"indexed":true,"internalType":"address","name":"user","type":"address"},{"indexed":true,"internalType":"uint32","name":"habitId","type":"uint32"},{"indexed":true,"internalType":"uint64","name":"epoch","type":"uint64"},{"indexed":false,"internalType":"uint256","name":"reward","type":"uint256"}],"name":"SettledSuccess","type":"event"},{"anonymous":false,"inputs":[{"indexed":true,"internalType":"address","name":"oldAdapter","type":"address"},{"indexed":true,"internalType":"address","name":"newAdapter","type":"address"}],"name":"StakingAdapterUpdated","type":"event"},{"inputs":[],"name":"STAKE_PER_DAY","outputs":[{"internalType":"uint256","name":"","type":"uint256"}],"stateMutability":"view","type":"function"},{"inputs":[{"internalType":"uint32","name":"habitId","type":"uint32"}],"name":"archiveHabit","outputs":[],"stateMutability":"nonpayable","type":"function"},{"inputs":[{"internalType":"uint32","name":"habitId","type":"uint32"},{"internalType":"uint64","name":"epoch","type":"uint64"}],"name":"checkIn","outputs":[],"stateMutability":"nonpayable","type":"function"},{"inputs":[{"internalType":"address","name":"","type":"address"},{"internalType":"uint64","name":"","type":"uint64"}],"name":"checked","outputs":[{"internalType":"uint256","name":"","type":"uint256"}],"stateMutability":"view","type":"function"},{"inputs":[],"name":"claimAll","outputs":[{"internalType":"uint256","name":"total","type":"uint256"}],"stateMutability":"nonpayable","type":"function"},{"inputs":[],"name":"claimYieldRewards","outputs":[{"internalType":"uint256","name":"claimed","type":"uint256"}],"stateMutability":"nonpayable","type":"function"},{"inputs":[{"internalType":"bytes32","name":"text","type":"bytes32"}],"name":"createHabit","outputs":[{"internalType":"uint32","name":"","type":"uint32"}],"stateMutability":"nonpayable","type":"function"},{"inputs":[],"name":"deposit","outputs":[],"stateMutability":"payable","type":"function"},{"inputs":[],"name":"epochNow","outputs":[{"internalType":"uint64","name":"","type":"uint64"}],"stateMutability":"view","type":"function"},{"inputs":[{"internalType":"address","name":"user","type":"address"},{"internalType":"uint64","name":"epoch","type":"uint64"},{"internalType":"uint32","name":"habitId","type":"uint32"}],"name":"forceSettle","outputs":[],"stateMutability":"nonpayable","type":"function"},{"inputs":[{"internalType":"address","name":"","type":"address"},{"internalType":"uint64","name":"","type":"uint64"}],"name":"funded","outputs":[{"internalType":"uint256","name":"","type":"uint256"}],"stateMutability":"view","type":"function"},{"inputs":[{"internalType":"address","name":"","type":"address"},{"internalType":"uint32","name":"","type":"uint32"}],"name":"habits","outputs":[{"internalType":"bytes32","name":"text","type":"bytes32"},{"internalType":"uint64","name":"createdAtEpoch","type":"uint64"},{"internalType":"bool","name":"archived","type":"bool"}],"stateMutability":"view","type":"function"},{"inputs":[{"internalType":"uint8","name":"from","type":"uint8"},{"internalType":"uint8","name":"to","type":"uint8"},{"internalType":"uint256","name":"amount","type":"uint256"}],"name":"move","outputs":[],"stateMutability":"nonpayable","type":"function"},{"inputs":[],"name":"owner","outputs":[{"internalType":"address","name":"","type":"address"}],"stateMutability":"view","type":"function"},{"inputs":[{"internalType":"uint64","name":"epoch","type":"uint64"}],"name":"prepareDay","outputs":[],"stateMutability":"nonpayable","type":"function"},{"inputs":[{"internalType":"address","name":"_newAdapter","type":"address"}],"name":"setStakingAdapter","outputs":[],"stateMutability":"nonpayable","type":"function"},{"inputs":[{"internalType":"address","name":"user","type":"address"},{"internalType":"uint64","name":"epoch","type":"uint64"},{"internalType":"uint32","name":"habitId","type":"uint32"}],"name":"settle","outputs":[],"stateMutability":"nonpayable","type":"function"},{"inputs":[{"internalType":"address","name":"","type":"address"},{"internalType":"uint64","name":"","type":"uint64"}],"name":"settled","outputs":[{"internalType":"uint256","name":"","type":"uint256"}],"stateMutability":"view","type":"function"},{"inputs":[],"name":"stakingAdapter","outputs":[{"internalType":"contract IStakingAdapter","name":"","type":"address"}],"stateMutability":"view","type":"function"},{"inputs":[{"internalType":"address","name":"newOwner","type":"address"}],"name":"transferOwnership","outputs":[],"stateMutability":"nonpayable","type":"function"},{"inputs":[],"name":"treasury","outputs":[{"internalType":"address","name":"","type":"address"}],"stateMutability":"view","type":"function"},{"inputs":[],"name":"unstakeAll","outputs":[{"internalType":"uint256","name":"unstaked","type":"uint256"}],"stateMutability":"nonpayable","type":"function"},{"inputs":[{"internalType":"address","name":"","type":"address"}],"name":"userHabitCounters","outputs":[{"internalType":"uint32","name":"","type":"uint32"}],"stateMutability":"view","type":"function"},{"inputs":[{"internalType":"address","name":"","type":"address"}],"name":"userStates","outputs":[{"internalType":"uint256","name":"depositBalance","type":"uint256"},{"internalType":"uint256","name":"blockedBalance","type":"uint256"},{"internalType":"uint256","name":"claimableBalance","type":"uint256"},{"internalType":"uint32","name":"activeHabitCount","type":"uint32"}],"stateMutability":"view","type":"function"},{"stateMutability":"payable","type":"receive"}],"evm":{"assembly":"// RO data = 0/0 bytes\n// RW data = 332/65952 bytes\n// Stack size = 32768 bytes\n\n// Instructions = 11965\n// Code size = 42275 bytes\n\n      : @0 (gas: 7)\n     0: sp = sp + 0xffffffffffffffe8\n     3: u64 [sp + 0x10] = ra\n     6: u64 [sp + 0x8] = s0\n     9: u64 [sp] = s1\n    11: s1 = 0x20148\n    16: s0 = i32 [0x20148]\n    21: jump @3 if s0 == 0\n      : @1 (gas: 5)\n    24: a0 = 0x30180\n    29: i32 a0 = a0 + 0\n    31: i32 a1 = s1 + 0\n    33: ecalli 7 // 'get_immutable_data'\n    35: fallthrough\n      : @2 (gas: 3)\n    36: a0 = i32 [0x20148]\n    41: u32 [0x20148] = 0\n    46: jump @4 if a0 <u s0\n      : @3 (gas: 5)\n    49: ra = u64 [sp + 0x10]\n    52: s0 = u64 [sp + 0x8]\n    55: s1 = u64 [sp]\n    57: sp = sp + 0x18\n    60: ret\n      : @4 (gas: 1)\n    62: trap\n      : @5 (gas: 2)\n    63: a1 = i32 [0x20148]\n    68: jump @59 if a1 == 0\n      : @6 (gas: 4)\n    72: a0 = 0x30180\n    77: i32 a0 = a0 + 0\n    79: ecalli 15 // 'set_immutable_data'\n    81: jump @59\n      : @7 (gas: 8)\n    84: sp = sp + 0xfffffffffffffff0\n    87: u64 [sp + 0x8] = ra\n    90: u64 [sp] = s0\n    92: a2 = a1\n    94: s0 = a0\n    96: a1 = 0x20\n    99: a0 = a2\n   101: ra = 2, jump @20\n      : @8 [@dyn 1] (gas: 100)\n   106: a1 = u8 [a0 + 0x1]\n   109: a2 = u8 [a0]\n   111: a3 = u8 [a0 + 0x2]\n   114: a4 = u8 [a0 + 0x3]\n   117: a1 = a1 << 0x8\n   120: a1 = a1 | a2\n   123: a3 = a3 << 0x10\n   126: a4 = a4 << 0x18\n   129: a3 = a3 | a4\n   132: a1 = a1 | a3\n   135: a2 = u8 [a0 + 0x5]\n   138: a3 = u8 [a0 + 0x4]\n   141: a4 = u8 [a0 + 0x6]\n   144: a5 = u8 [a0 + 0x7]\n   147: a2 = a2 << 0x8\n   150: a2 = a2 | a3\n   153: a4 = a4 << 0x10\n   156: a5 = a5 << 0x18\n   159: a4 = a4 | a5\n   162: a2 = a2 | a4\n   165: a2 = a2 << 0x20\n   168: t0 = a2 | a1\n   171: a2 = u8 [a0 + 0x9]\n   174: a3 = u8 [a0 + 0x8]\n   177: a4 = u8 [a0 + 0xa]\n   180: a5 = u8 [a0 + 0xb]\n   183: a2 = a2 << 0x8\n   186: a2 = a2 | a3\n   189: a4 = a4 << 0x10\n   192: a5 = a5 << 0x18\n   195: a4 = a4 | a5\n   198: a2 = a2 | a4\n   201: a3 = u8 [a0 + 0xd]\n   204: a4 = u8 [a0 + 0xc]\n   207: a5 = u8 [a0 + 0xe]\n   210: a1 = u8 [a0 + 0xf]\n   213: a3 = a3 << 0x8\n   216: a3 = a3 | a4\n   219: a5 = a5 << 0x10\n   222: a1 = a1 << 0x18\n   225: a1 = a1 | a5\n   228: a1 = a1 | a3\n   231: a1 = a1 << 0x20\n   234: t1 = a1 | a2\n   237: a1 = u8 [a0 + 0x11]\n   240: a3 = u8 [a0 + 0x10]\n   243: a4 = u8 [a0 + 0x12]\n   246: a5 = u8 [a0 + 0x13]\n   249: a1 = a1 << 0x8\n   252: a1 = a1 | a3\n   255: a4 = a4 << 0x10\n   258: a5 = a5 << 0x18\n   261: a4 = a4 | a5\n   264: a1 = a1 | a4\n   267: a3 = u8 [a0 + 0x15]\n   270: a4 = u8 [a0 + 0x14]\n   273: a5 = u8 [a0 + 0x16]\n   276: a2 = u8 [a0 + 0x17]\n   279: a3 = a3 << 0x8\n   282: a3 = a3 | a4\n   285: a5 = a5 << 0x10\n   288: a2 = a2 << 0x18\n   291: a2 = a2 | a5\n   294: a2 = a2 | a3\n   297: a2 = a2 << 0x20\n   300: a3 = a2 | a1\n   303: a1 = u8 [a0 + 0x19]\n   306: a2 = u8 [a0 + 0x18]\n   309: a4 = u8 [a0 + 0x1a]\n   312: a5 = u8 [a0 + 0x1b]\n   315: a1 = a1 << 0x8\n   318: a1 = a1 | a2\n   321: a4 = a4 << 0x10\n   324: a5 = a5 << 0x18\n   327: a4 = a4 | a5\n   330: a1 = a1 | a4\n   333: a2 = u8 [a0 + 0x1d]\n   336: a4 = u8 [a0 + 0x1c]\n   339: a5 = u8 [a0 + 0x1e]\n   342: a0 = u8 [a0 + 0x1f]\n   345: a2 = a2 << 0x8\n   348: a2 = a2 | a4\n   351: a5 = a5 << 0x10\n   354: a0 = a0 << 0x18\n   357: a0 = a0 | a5\n   360: a0 = a0 | a2\n   363: a0 = a0 << 0x20\n   366: a0 = a0 | a1\n   369: a0 = reverse a0\n   371: a1 = reverse a3\n   373: a2 = reverse t1\n   375: a3 = reverse t0\n   377: u64 [s0 + 0x18] = a3\n   380: u64 [s0 + 0x10] = a2\n   383: u64 [s0 + 0x8] = a1\n   386: u64 [s0] = a0\n   388: ra = u64 [sp + 0x8]\n   391: s0 = u64 [sp]\n   393: sp = sp + 0x10\n   396: ret\n      : @9 (gas: 12)\n   398: sp = sp + 0xffffffffffffffd8\n   401: u64 [sp + 0x20] = ra\n   404: u64 [sp + 0x18] = s0\n   407: u64 [sp + 0x10] = s1\n   410: a2 = u64 [a1]\n   412: u64 [sp + 0x8] = a2\n   415: a2 = u64 [a1 + 0x8]\n   418: u64 [sp] = a2\n   420: s0 = u64 [a1 + 0x10]\n   423: s1 = u64 [a1 + 0x18]\n   426: a1 = 0x20\n   429: ra = 4, jump @20\n      : @10 [@dyn 2] (gas: 71)\n   434: a1 = reverse s1\n   436: a2 = reverse s0\n   438: a3 = u64 [sp]\n   440: a3 = reverse a3\n   442: a4 = u64 [sp + 0x8]\n   445: a4 = reverse a4\n   447: u8 [a0 + 0x18] = a4\n   450: u8 [a0 + 0x10] = a3\n   453: u8 [a0 + 0x8] = a2\n   456: u8 [a0] = a1\n   458: a5 = a4 >> 0x38\n   461: u8 [a0 + 0x1f] = a5\n   464: a5 = a4 >> 0x30\n   467: u8 [a0 + 0x1e] = a5\n   470: a5 = a4 >> 0x28\n   473: u8 [a0 + 0x1d] = a5\n   476: a5 = a4 >> 0x20\n   479: u8 [a0 + 0x1c] = a5\n   482: a5 = a4 >> 0x18\n   485: u8 [a0 + 0x1b] = a5\n   488: a5 = a4 >> 0x10\n   491: u8 [a0 + 0x1a] = a5\n   494: a4 = a4 >> 0x8\n   497: u8 [a0 + 0x19] = a4\n   500: a4 = a3 >> 0x38\n   503: u8 [a0 + 0x17] = a4\n   506: a4 = a3 >> 0x30\n   509: u8 [a0 + 0x16] = a4\n   512: a4 = a3 >> 0x28\n   515: u8 [a0 + 0x15] = a4\n   518: a4 = a3 >> 0x20\n   521: u8 [a0 + 0x14] = a4\n   524: a4 = a3 >> 0x18\n   527: u8 [a0 + 0x13] = a4\n   530: a4 = a3 >> 0x10\n   533: u8 [a0 + 0x12] = a4\n   536: a3 = a3 >> 0x8\n   539: u8 [a0 + 0x11] = a3\n   542: a3 = a2 >> 0x38\n   545: u8 [a0 + 0xf] = a3\n   548: a3 = a2 >> 0x30\n   551: u8 [a0 + 0xe] = a3\n   554: a3 = a2 >> 0x28\n   557: u8 [a0 + 0xd] = a3\n   560: a3 = a2 >> 0x20\n   563: u8 [a0 + 0xc] = a3\n   566: a3 = a2 >> 0x18\n   569: u8 [a0 + 0xb] = a3\n   572: a3 = a2 >> 0x10\n   575: u8 [a0 + 0xa] = a3\n   578: a2 = a2 >> 0x8\n   581: u8 [a0 + 0x9] = a2\n   584: a2 = a1 >> 0x38\n   587: u8 [a0 + 0x7] = a2\n   590: a2 = a1 >> 0x30\n   593: u8 [a0 + 0x6] = a2\n   596: a2 = a1 >> 0x28\n   599: u8 [a0 + 0x5] = a2\n   602: a2 = a1 >> 0x20\n   605: u8 [a0 + 0x4] = a2\n   608: a2 = a1 >> 0x18\n   611: u8 [a0 + 0x3] = a2\n   614: a2 = a1 >> 0x10\n   617: u8 [a0 + 0x2] = a2\n   620: a1 = a1 >> 0x8\n   623: u8 [a0 + 0x1] = a1\n   626: ra = u64 [sp + 0x20]\n   629: s0 = u64 [sp + 0x18]\n   632: s1 = u64 [sp + 0x10]\n   635: sp = sp + 0x28\n   638: ret\n      : @11 (gas: 48)\n   640: sp = sp + 0xffffffffffffffa0\n   643: u64 [sp + 0x58] = ra\n   646: u64 [sp + 0x50] = s0\n   649: u64 [sp + 0x48] = s1\n   652: s0 = sp + 0x60\n   655: sp = sp & 0xffffffffffffffe0\n   658: s1 = a0\n   660: a0 = u64 [a1 + 0x18]\n   663: a2 = u64 [a1 + 0x10]\n   666: a3 = u64 [a1 + 0x8]\n   669: a1 = u64 [a1]\n   671: a0 = reverse a0\n   673: a2 = reverse a2\n   675: a3 = reverse a3\n   677: a1 = reverse a1\n   679: u64 [sp + 0x18] = a1\n   682: u64 [sp + 0x10] = a3\n   685: u64 [sp + 0x8] = a2\n   688: u64 [sp] = a0\n   690: u64 [sp + 56] = 0\n   693: u64 [sp + 48] = 0\n   696: u64 [sp + 40] = 0\n   699: u64 [sp + 32] = 0\n   702: u32 [sp + 64] = 0x20\n   706: i32 a1 = sp + 0\n   708: i32 a3 = sp + 0x20\n   711: i32 a4 = sp + 0x40\n   714: a2 = 0xffffffffffffffff\n   717: a0 = 0\n   719: ecalli 8 // 'get_storage'\n   721: a0 = u64 [sp + 0x38]\n   724: a1 = u64 [sp + 0x30]\n   727: a2 = u64 [sp + 0x28]\n   730: a3 = u64 [sp + 0x20]\n   733: a0 = reverse a0\n   735: a1 = reverse a1\n   737: a2 = reverse a2\n   739: a3 = reverse a3\n   741: u64 [s1 + 0x18] = a3\n   744: u64 [s1 + 0x10] = a2\n   747: u64 [s1 + 0x8] = a1\n   750: u64 [s1] = a0\n   752: sp = s0 + 0xffffffffffffffa0\n   755: ra = u64 [sp + 0x58]\n   758: s0 = u64 [sp + 0x50]\n   761: s1 = u64 [sp + 0x48]\n   764: sp = sp + 0x60\n   767: ret\n      : @12 (gas: 40)\n   769: sp = sp + 0xffffffffffffffa0\n   772: u64 [sp + 0x58] = ra\n   775: u64 [sp + 0x50] = s0\n   778: s0 = sp + 0x60\n   781: sp = sp & 0xffffffffffffffe0\n   784: t0 = u64 [a0]\n   786: a3 = u64 [a0 + 0x8]\n   789: a4 = u64 [a0 + 0x10]\n   792: a0 = u64 [a0 + 0x18]\n   795: t1 = u64 [a1]\n   797: a2 = u64 [a1 + 0x8]\n   800: a5 = u64 [a1 + 0x10]\n   803: a1 = u64 [a1 + 0x18]\n   806: t2 = reverse a0\n   808: a4 = reverse a4\n   810: a3 = reverse a3\n   812: a0 = reverse t0\n   814: t0 = reverse a1\n   816: a5 = reverse a5\n   818: a2 = reverse a2\n   820: a1 = reverse t1\n   822: u64 [sp + 0x18] = a0\n   825: u64 [sp + 0x10] = a3\n   828: u64 [sp + 0x8] = a4\n   831: u64 [sp] = t2\n   833: u64 [sp + 0x38] = a1\n   836: u64 [sp + 0x30] = a2\n   839: u64 [sp + 0x28] = a5\n   842: u64 [sp + 0x20] = t0\n   845: i32 a1 = sp + 0\n   847: i32 a3 = sp + 0x20\n   850: a2 = 0xffffffffffffffff\n   853: a4 = 0x20\n   856: a0 = 0\n   858: ecalli 16 // 'set_storage'\n   860: sp = s0 + 0xffffffffffffffa0\n   863: ra = u64 [sp + 0x58]\n   866: s0 = u64 [sp + 0x50]\n   869: sp = sp + 0x60\n   872: ret\n      : @13 [@dyn 3] (gas: 35)\n   874: a1 = u64 [sp]\n   876: a1 = reverse a1\n   878: a2 = u64 [sp + 0x8]\n   881: a2 = reverse a2\n   883: a3 = u64 [sp + 0x10]\n   886: a3 = reverse a3\n   888: a4 = u64 [sp + 0x18]\n   891: a4 = reverse a4\n   893: u64 [sp + 0x58] = a4\n   896: u64 [sp + 0x50] = a3\n   899: u64 [sp + 0x48] = a2\n   902: u64 [sp + 0x40] = a1\n   905: a1 = u64 [sp + 0x20]\n   908: a1 = reverse a1\n   910: a2 = u64 [sp + 0x28]\n   913: a2 = reverse a2\n   915: a3 = u64 [sp + 0x30]\n   918: a3 = reverse a3\n   920: a4 = u64 [sp + 0x38]\n   923: a4 = reverse a4\n   925: u64 [sp + 0x78] = a4\n   928: u64 [sp + 0x70] = a3\n   931: u64 [sp + 0x68] = a2\n   934: u64 [sp + 0x60] = a1\n   937: i32 a2 = a0 + 0\n   939: i32 a3 = s1 + 0\n   941: i32 a0 = sp + 0x40\n   944: a1 = 0x2\n   947: ecalli 6 // 'deposit_event'\n   949: sp = s0 + 0xffffffffffffff60\n   953: ra = u64 [sp + 0x98]\n   957: s0 = u64 [sp + 0x90]\n   961: s1 = u64 [sp + 0x88]\n   965: sp = sp + 0xa0\n   969: ret\n      : @14 (gas: 15)\n   971: sp = sp + 0xffffffffffffff20\n   975: u64 [sp + 0xd8] = ra\n   979: u64 [sp + 0xd0] = s0\n   983: u64 [sp + 0xc8] = s1\n   987: s0 = sp + 0xe0\n   991: sp = sp & 0xffffffffffffffe0\n   994: a5 = u64 [a4]\n   996: u64 [sp + 0x40] = a5\n   999: a5 = u64 [a4 + 0x8]\n  1002: u64 [sp + 0x48] = a5\n  1005: a5 = u64 [a4 + 0x10]\n  1008: u64 [sp + 0x50] = a5\n  1011: a4 = u64 [a4 + 0x18]\n  1014: u64 [sp + 0x58] = a4\n  1017: t0 = 8, jump @1574\n      : @15 [@dyn 4] (gas: 2)\n  1023: u64 [sp + 0x38] = a1\n  1026: ra = 10, jump @20\n      : @16 [@dyn 5] (gas: 46)\n  1031: a1 = reverse s1\n  1033: u64 [sp + 0x78] = a1\n  1036: a1 = u64 [sp]\n  1038: a1 = reverse a1\n  1040: u64 [sp + 0x70] = a1\n  1043: a1 = u64 [sp + 0x8]\n  1046: a1 = reverse a1\n  1048: u64 [sp + 0x68] = a1\n  1051: a1 = u64 [sp + 0x10]\n  1054: a1 = reverse a1\n  1056: u64 [sp + 0x60] = a1\n  1059: a1 = u64 [sp + 0x18]\n  1062: a1 = reverse a1\n  1064: u64 [sp + 0x98] = a1\n  1068: a1 = u64 [sp + 0x20]\n  1071: a1 = reverse a1\n  1073: u64 [sp + 0x90] = a1\n  1077: a1 = u64 [sp + 0x28]\n  1080: a1 = reverse a1\n  1082: u64 [sp + 0x88] = a1\n  1086: a1 = u64 [sp + 0x30]\n  1089: a1 = reverse a1\n  1091: u64 [sp + 0x80] = a1\n  1095: a1 = u64 [sp + 0x40]\n  1098: a1 = reverse a1\n  1100: u64 [sp + 0xb8] = a1\n  1104: a1 = u64 [sp + 0x48]\n  1107: a1 = reverse a1\n  1109: u64 [sp + 0xb0] = a1\n  1113: a1 = u64 [sp + 0x50]\n  1116: a1 = reverse a1\n  1118: u64 [sp + 0xa8] = a1\n  1122: a1 = u64 [sp + 0x58]\n  1125: a1 = reverse a1\n  1127: u64 [sp + 0xa0] = a1\n  1131: i32 a2 = a0 + 0\n  1133: a3 = i32 [sp + 0x38]\n  1136: i32 a0 = sp + 0x60\n  1139: a1 = 0x3\n  1142: ecalli 6 // 'deposit_event'\n  1144: sp = s0 + 0xffffffffffffff20\n  1148: ra = u64 [sp + 0xd8]\n  1152: s0 = u64 [sp + 0xd0]\n  1156: s1 = u64 [sp + 0xc8]\n  1160: sp = sp + 0xe0\n  1164: ret\n      : @17 (gas: 23)\n  1166: sp = sp + 0xfffffffffffffee0\n  1170: u64 [sp + 0x118] = ra\n  1174: u64 [sp + 0x110] = s0\n  1178: u64 [sp + 0x108] = s1\n  1182: s0 = sp + 0x120\n  1186: sp = sp & 0xffffffffffffffe0\n  1189: s1 = u64 [a5]\n  1191: u64 [sp + 0x60] = s1\n  1194: s1 = u64 [a5 + 0x8]\n  1197: u64 [sp + 0x68] = s1\n  1200: s1 = u64 [a5 + 0x10]\n  1203: u64 [sp + 0x70] = s1\n  1206: a5 = u64 [a5 + 0x18]\n  1209: u64 [sp + 0x78] = a5\n  1212: a5 = u64 [a4]\n  1214: u64 [sp + 0x38] = a5\n  1217: a5 = u64 [a4 + 0x8]\n  1220: u64 [sp + 0x40] = a5\n  1223: a5 = u64 [a4 + 0x10]\n  1226: u64 [sp + 0x48] = a5\n  1229: a4 = u64 [a4 + 0x18]\n  1232: u64 [sp + 0x50] = a4\n  1235: t0 = 12, jump @1574\n      : @18 [@dyn 6] (gas: 2)\n  1241: u64 [sp + 0x58] = a1\n  1244: ra = 14, jump @20\n      : @19 [@dyn 7] (gas: 58)\n  1249: a1 = reverse s1\n  1251: u64 [sp + 0x98] = a1\n  1255: a1 = u64 [sp]\n  1257: a1 = reverse a1\n  1259: u64 [sp + 0x90] = a1\n  1263: a1 = u64 [sp + 0x8]\n  1266: a1 = reverse a1\n  1268: u64 [sp + 0x88] = a1\n  1272: a1 = u64 [sp + 0x10]\n  1275: a1 = reverse a1\n  1277: u64 [sp + 0x80] = a1\n  1281: a1 = u64 [sp + 0x18]\n  1284: a1 = reverse a1\n  1286: u64 [sp + 0xb8] = a1\n  1290: a1 = u64 [sp + 0x20]\n  1293: a1 = reverse a1\n  1295: u64 [sp + 0xb0] = a1\n  1299: a1 = u64 [sp + 0x28]\n  1302: a1 = reverse a1\n  1304: u64 [sp + 0xa8] = a1\n  1308: a1 = u64 [sp + 0x30]\n  1311: a1 = reverse a1\n  1313: u64 [sp + 0xa0] = a1\n  1317: a1 = u64 [sp + 0x38]\n  1320: a1 = reverse a1\n  1322: u64 [sp + 0xd8] = a1\n  1326: a1 = u64 [sp + 0x40]\n  1329: a1 = reverse a1\n  1331: u64 [sp + 0xd0] = a1\n  1335: a1 = u64 [sp + 0x48]\n  1338: a1 = reverse a1\n  1340: u64 [sp + 0xc8] = a1\n  1344: a1 = u64 [sp + 0x50]\n  1347: a1 = reverse a1\n  1349: u64 [sp + 0xc0] = a1\n  1353: a1 = u64 [sp + 0x60]\n  1356: a1 = reverse a1\n  1358: u64 [sp + 0xf8] = a1\n  1362: a1 = u64 [sp + 0x68]\n  1365: a1 = reverse a1\n  1367: u64 [sp + 0xf0] = a1\n  1371: a1 = u64 [sp + 0x70]\n  1374: a1 = reverse a1\n  1376: u64 [sp + 0xe8] = a1\n  1380: a1 = u64 [sp + 0x78]\n  1383: a1 = reverse a1\n  1385: u64 [sp + 0xe0] = a1\n  1389: i32 a2 = a0 + 0\n  1391: a3 = i32 [sp + 0x58]\n  1394: i32 a0 = sp + 0x80\n  1398: a1 = 0x4\n  1401: ecalli 6 // 'deposit_event'\n  1403: sp = s0 + 0xfffffffffffffee0\n  1407: ra = u64 [sp + 0x118]\n  1411: s0 = u64 [sp + 0x110]\n  1415: s1 = u64 [sp + 0x108]\n  1419: sp = sp + 0x120\n  1423: ret\n      : @20 (gas: 2)\n  1425: i32 a2 = a0 >> 0x10\n  1428: jump @25 if a2 != 0\n      : @21 (gas: 4)\n  1431: a1 = a1 + a0\n  1434: i32 a1 = a1 + 0x1f\n  1437: a1 = a1 & 0xffffffffffffffe0\n  1440: jump @25 if a1 >u 65536\n      : @22 (gas: 3)\n  1446: a2 = 0x20150\n  1451: a3 = i32 [0x20150]\n  1456: jump @24 if a3 >=u a1\n      : @23 (gas: 2)\n  1459: u32 [0x20150] = a1\n  1464: fallthrough\n      : @24 (gas: 4)\n  1465: a1 = 0x20160\n  1470: i32 a0 = a0 + 0\n  1472: a0 = a0 + a1\n  1475: ret\n      : @25 (gas: 1)\n  1477: trap\n      : @26 (gas: 6)\n  1478: sp = sp + 0xfffffffffffffff0\n  1481: u64 [sp + 0x8] = ra\n  1484: u64 [sp] = s0\n  1486: s0 = a0 & 0x1\n  1489: ecalli 3 // 'call_data_size'\n  1491: fallthrough\n      : @27 (gas: 2)\n  1492: u32 [0x2014c] = a0\n  1497: jump @29 if s0 == 0\n      : @28 (gas: 1)\n  1500: ra = 16, jump @30\n      : @29 [@dyn 8] (gas: 1)\n  1504: ra = 18, jump @62\n      : @30 [@dyn 9] (gas: 14)\n  1509: sp = sp + 0xfffffffffffffd60\n  1513: a0 = sp + 0x200\n  1517: u64 [a0 + 0x98] = ra\n  1521: u64 [a0 + 0x90] = s0\n  1525: u64 [a0 + 0x88] = s1\n  1529: s0 = sp + 0x2a0\n  1533: sp = sp & 0xffffffffffffffe0\n  1536: u64 [sp + 440] = 0\n  1540: u64 [sp + 432] = 0\n  1544: u64 [sp + 424] = 0\n  1548: u64 [sp + 416] = 0\n  1552: i32 a0 = sp + 0x1a0\n  1556: ecalli 17 // 'value_transferred'\n  1558: fallthrough\n      : @31 (gas: 8)\n  1559: a0 = u64 [sp + 0x1b0]\n  1563: a1 = u64 [sp + 0x1b8]\n  1567: a2 = u64 [sp + 0x1a8]\n  1571: a3 = u64 [sp + 0x1a0]\n  1575: a1 = a1 | a2\n  1578: a0 = a0 | a3\n  1581: a0 = a0 | a1\n  1584: jump @50 if a0 != 0\n      : @32 (gas: 15)\n  1588: s1 = i32 [0x2014c]\n  1593: a0 = s1 << 0x20\n  1596: a0 = a0 >> 0x20\n  1599: a0 = a0 + 0x1f\n  1602: a0 = a0 & 0xffffffffffffffe0\n  1605: a1 = a0 + 0xa0\n  1609: a0 = a1 <u a0\n  1612: u64 [sp + 408] = 0\n  1616: u64 [sp + 0x180] = a1\n  1620: u64 [sp + 0x188] = a0\n  1624: a0 = 0 if a0 != 0\n  1626: u64 [sp + 0x190] = a0\n  1630: a0 = 0x40\n  1633: a1 = sp + 0x180\n  1637: ra = 20, jump @9\n      : @33 [@dyn 10] (gas: 3)\n  1642: a0 = 0xa0\n  1646: a1 = s1\n  1648: ra = 22, jump @20\n      : @34 [@dyn 11] (gas: 5)\n  1653: i32 a0 = a0 + 0\n  1655: a1 = s1\n  1657: a2 = 0\n  1659: ecalli 1 // 'call_data_copy'\n  1661: fallthrough\n      : @35 (gas: 1)\n  1662: jump @51 if s1 <u 64\n      : @36 (gas: 7)\n  1667: u64 [sp + 344] = 0\n  1671: u64 [sp + 336] = 0\n  1675: u64 [sp + 320] = 0xa0\n  1681: a0 = sp + 0x160\n  1685: a1 = sp + 0x140\n  1689: u64 [sp + 328] = 0\n  1693: ra = 24, jump @1232\n      : @37 [@dyn 12] (gas: 14)\n  1698: a0 = u64 [sp + 0x178]\n  1702: u64 [sp + 0x18] = a0\n  1705: a0 = u64 [sp + 0x170]\n  1709: u64 [sp + 0x10] = a0\n  1712: a0 = u64 [sp + 0x168]\n  1716: u64 [sp + 0x8] = a0\n  1719: s1 = u64 [sp + 0x160]\n  1723: u64 [sp + 280] = 0\n  1727: u64 [sp + 272] = 0\n  1731: u64 [sp + 256] = 0xc0\n  1737: a0 = sp + 0x120\n  1741: a1 = sp + 0x100\n  1745: u64 [sp + 264] = 0\n  1749: ra = 26, jump @1232\n      : @38 [@dyn 13] (gas: 7)\n  1754: a3 = u64 [sp + 0x8]\n  1757: a2 = u64 [sp + 0x10]\n  1760: a0 = a2 << 0x20\n  1763: a0 = a0 >> 0x20\n  1766: a1 = s1 | a3\n  1769: a0 = a0 | a1\n  1772: jump @52 if a0 == 0\n      : @39 (gas: 16)\n  1776: a0 = u64 [sp + 0x130]\n  1780: u64 [sp + 0x38] = a0\n  1783: a0 = u64 [sp + 0x128]\n  1787: u64 [sp + 0x28] = a0\n  1790: a0 = u64 [sp + 0x120]\n  1794: u64 [sp + 0x30] = a0\n  1797: a0 = 0xffffffff\n  1807: u64 [sp + 0x20] = a0\n  1810: u64 [sp + 0xe0] = s1\n  1814: u64 [sp + 0xe8] = a3\n  1818: u64 [sp + 0xf0] = a2\n  1822: a0 = 0x80\n  1826: a1 = sp + 0xe0\n  1830: a2 = u64 [sp + 0x18]\n  1833: u64 [sp + 0xf8] = a2\n  1837: ra = 28, jump @9\n      : @40 [@dyn 14] (gas: 6)\n  1842: s1 = 0x30160\n  1847: i32 a0 = s1 + 0\n  1849: ra = 0x1e\n  1852: ecalli 4 // 'caller'\n  1854: t0 = 0x20\n  1857: jump @1570\n      : @41 [@dyn 15] (gas: 1)\n  1861: t0 = 32, jump @1570\n      : @42 [@dyn 16] (gas: 15)\n  1867: a1 = a1 | a3\n  1870: u64 [sp + 0x18] = a1\n  1873: a0 = a0 >> 0x20\n  1876: a1 = reverse a2\n  1878: s1 = a1 << 0x20\n  1881: a0 = a0 | s1\n  1884: u64 [sp + 0x10] = a0\n  1887: s1 = a1 >> 0x20\n  1890: u64 [sp + 472] = 0\n  1894: u64 [sp + 464] = 0\n  1898: u64 [sp + 456] = 0\n  1902: u64 [sp + 448] = 0x1\n  1907: a0 = sp + 0xc0\n  1911: a1 = sp + 0x1c0\n  1915: ra = 34, jump @11\n      : @43 [@dyn 17] (gas: 18)\n  1920: a0 = u32 [sp + 0xd4]\n  1924: a0 = a0 << 0x20\n  1927: a1 = u64 [sp + 0xd8]\n  1931: a0 = a0 | s1\n  1934: u64 [sp + 504] = 0\n  1938: u64 [sp + 496] = 0\n  1942: u64 [sp + 488] = 0\n  1946: u64 [sp + 480] = 0x1\n  1951: a2 = sp + 0x200\n  1955: u64 [a2 + 0x18] = a1\n  1958: a1 = u64 [sp + 0x10]\n  1961: u64 [a2 + 0x8] = a1\n  1964: a1 = u64 [sp + 0x18]\n  1967: u64 [a2] = a1\n  1969: u64 [a2 + 0x10] = a0\n  1972: a0 = sp + 0x1e0\n  1976: a1 = sp + 0x200\n  1980: ra = 36, jump @12\n      : @44 [@dyn 18] (gas: 10)\n  1985: a0 = u64 [sp + 0x28]\n  1988: a2 = a0 & 0xffffffffffffffff\n  1991: a0 = u64 [sp + 0x30]\n  1994: a1 = a0 & 0xffffffffffffffff\n  1997: a0 = u64 [sp + 0x38]\n  2000: s1 = u64 [sp + 0x20]\n  2003: s1 = s1 & a0\n  2006: a0 = a1 | s1\n  2009: a0 = a0 | a2\n  2012: jump @47 if a0 == 0\n      : @45 (gas: 12)\n  2015: a0 = 0xffffffff00000000\n  2025: u64 [sp + 0x38] = a0\n  2028: a0 = sp + 0x200\n  2032: u64 [a0 + 56] = 0\n  2035: u64 [a0 + 48] = 0\n  2038: u64 [a0 + 40] = 0\n  2041: u64 [a0 + 32] = 0\n  2044: a0 = sp + 0xa0\n  2048: u64 [sp + 0x30] = a1\n  2051: a1 = sp + 0x220\n  2055: u64 [sp + 0x28] = a2\n  2058: ra = 38, jump @11\n      : @46 [@dyn 19] (gas: 20)\n  2063: a0 = u64 [sp + 0xb8]\n  2067: a1 = u64 [sp + 0xb0]\n  2071: a0 = a0 & 0xffffffffffffffff\n  2074: a2 = u64 [sp + 0x38]\n  2077: a1 = a1 & a2\n  2080: a1 = a1 | s1\n  2083: a3 = sp + 0x200\n  2087: u64 [a3 + 88] = 0\n  2090: u64 [a3 + 80] = 0\n  2093: u64 [a3 + 72] = 0\n  2096: u64 [a3 + 64] = 0\n  2099: a2 = u64 [sp + 0x28]\n  2102: u64 [a3 + 0x68] = a2\n  2105: a2 = u64 [sp + 0x30]\n  2108: u64 [a3 + 0x60] = a2\n  2111: u64 [a3 + 0x78] = a0\n  2114: u64 [a3 + 0x70] = a1\n  2117: a0 = sp + 0x240\n  2121: a1 = sp + 0x260\n  2125: ra = 40, jump @12\n      : @47 [@dyn 20] (gas: 3)\n  2130: a0 = sp + 0x80\n  2134: a1 = 0x40\n  2137: ra = 42, jump @7\n      : @48 [@dyn 21] (gas: 12)\n  2142: a0 = u64 [sp + 0x98]\n  2146: a1 = u64 [sp + 0x90]\n  2150: a2 = u64 [sp + 0x88]\n  2154: s1 = u64 [sp + 0x80]\n  2158: a0 = a0 | a2\n  2161: a2 = s1 | a1\n  2164: a2 = a2 | a0\n  2167: a2 = a2 >> 0x20\n  2170: a0 = a0 | a1\n  2173: a0 = a0 << 0x20\n  2176: a0 = a0 | a2\n  2179: jump @56 if a0 == 0\n      : @49 (gas: 1)\n  2182: trap\n      : @50 (gas: 4)\n  2183: a1 = 0x20160\n  2188: i32 a1 = a1 + 0\n  2190: a0 = 0x1\n  2193: jump @61\n      : @51 (gas: 4)\n  2196: a1 = 0x20160\n  2201: i32 a1 = a1 + 0\n  2203: a0 = 0x1\n  2206: jump @61\n      : @52 (gas: 8)\n  2209: u64 [sp + 80] = 0\n  2212: u64 [sp + 72] = 0\n  2215: u64 [sp + 64] = 0\n  2218: a0 = 0x14bcf5c800000000\n  2228: a1 = sp + 0x40\n  2231: u64 [sp + 0x58] = a0\n  2234: a0 = 0\n  2236: ra = 44, jump @9\n      : @53 [@dyn 22] (gas: 2)\n  2241: a1 = i32 [0x20150]\n  2246: jump @55 if a1 >u 31\n      : @54 (gas: 2)\n  2250: u32 [0x20150] = 0x20\n  2256: fallthrough\n      : @55 (gas: 6)\n  2257: a1 = 0x20160\n  2262: i32 a1 = a1 + 0\n  2264: a0 = 0x1\n  2267: a2 = 0x4\n  2270: ecalli 14 // 'seal_return'\n  2272: fallthrough\n      : @56 (gas: 3)\n  2273: a0 = s1\n  2275: a1 = 0\n  2277: ra = 46, jump @20\n      : @57 [@dyn 23] (gas: 7)\n  2282: i32 a0 = a0 + 0\n  2284: a1 = 0\n  2286: a2 = 0\n  2288: ecalli 1 // 'call_data_copy'\n  2290: a0 = sp + 0x60\n  2293: a1 = 0x80\n  2297: ra = 48, jump @7\n      : @58 [@dyn 24] (gas: 9)\n  2302: a0 = u64 [sp + 0x78]\n  2305: a2 = u64 [sp + 0x70]\n  2308: a3 = u64 [sp + 0x68]\n  2311: a4 = u64 [sp + 0x60]\n  2314: u64 [0x30198] = a0\n  2319: u64 [0x30190] = a2\n  2324: u64 [0x30188] = a3\n  2329: u64 [0x30180] = a4\n  2334: jump @5\n      : @59 (gas: 3)\n  2337: a0 = s1\n  2339: a1 = 0\n  2341: ra = 50, jump @20\n      : @60 [@dyn 25] (gas: 6)\n  2346: i32 a1 = a0 + 0\n  2348: a0 = 0\n  2350: a2 = 0\n  2352: ra = 0x34\n  2355: ecalli 14 // 'seal_return'\n  2357: jump @62\n      : @61 (gas: 4)\n  2359: a2 = 0\n  2361: ra = 0x34\n  2364: ecalli 14 // 'seal_return'\n  2366: fallthrough\n      : @62 [@dyn 26] (gas: 11)\n  2367: sp = sp + 0xfffffffffffffe10\n  2371: u64 [sp + 0x1e8] = ra\n  2375: u64 [sp + 0x1e0] = s0\n  2379: u64 [sp + 0x1d8] = s1\n  2383: s0 = sp + 0x1f0\n  2387: sp = sp + 0xffffffffffffd190\n  2391: sp = sp & 0xffffffffffffffe0\n  2394: s1 = sp\n  2396: t0 = 0x36\n  2399: a2 = s1 + 0x2078\n  2403: fallthrough\n      : @63 [@dyn 27] (gas: 7)\n  2404: u64 [a2 + 1248] = 0\n  2408: u64 [a2 + 1240] = 0\n  2412: u64 [a2 + 1224] = 0x80\n  2418: a0 = 0x40\n  2421: a1 = s1 + 0x2540\n  2425: u64 [a2 + 1232] = 0\n  2429: ra = 56, jump @9\n      : @64 [@dyn 28] (gas: 4)\n  2434: a0 = 0x2014c\n  2439: u64 [s1 + 0xf8] = a0\n  2443: a0 = i32 [0x2014c]\n  2448: jump @66 if a0 >=u 4\n      : @65 (gas: 1)\n  2452: jump @1202\n      : @66 (gas: 16)\n  2455: a0 = sp + 0xffffffffffffffe0\n  2458: a0 = a0 & 0xffffffffffffffe0\n  2461: sp = a0\n  2463: u64 [a0 + 24] = 0\n  2466: u64 [a0 + 16] = 0\n  2469: u64 [a0 + 8] = 0\n  2472: u64 [s1 + 0xf0] = a0\n  2476: u64 [a0 + 0] = 0\n  2478: a0 = s1 + 0x2000\n  2482: i32 a0 = a0 + 0x560\n  2486: a1 = 0\n  2488: ra = 0x3a\n  2491: ecalli 2 // 'call_data_load'\n  2493: t0 = 0x3c\n  2496: a2 = s1 + 0x2078\n  2500: jump @68\n      : @67 [@dyn 29] (gas: 3)\n  2502: t0 = 0x3c\n  2505: a2 = s1 + 0x2078\n  2509: fallthrough\n      : @68 [@dyn 30] (gas: 2)\n  2510: a0 = i32 [a2 + 0x504]\n  2514: jump @70 if a0 != 2376452955\n      : @69 (gas: 1)\n  2521: jump @284\n      : @70 (gas: 1)\n  2524: jump @130 if a0 == 2573362740\n      : @71 (gas: 1)\n  2532: jump @73 if a0 != 2822282762\n      : @72 (gas: 1)\n  2539: jump @423\n      : @73 (gas: 1)\n  2542: jump @75 if a0 != 3504541104\n      : @74 (gas: 1)\n  2549: jump @247\n      : @75 (gas: 1)\n  2552: jump @166 if a0 == 3506802265\n      : @76 (gas: 1)\n  2560: jump @207 if a0 == 3675214841\n      : @77 (gas: 1)\n  2568: jump @79 if a0 != 3916516871\n      : @78 (gas: 1)\n  2575: jump @490\n      : @79 (gas: 1)\n  2578: jump @81 if a0 != 248271711\n      : @80 (gas: 1)\n  2585: jump @457\n      : @81 (gas: 1)\n  2588: jump @83 if a0 != 573237126\n      : @82 (gas: 1)\n  2595: jump @296\n      : @83 (gas: 1)\n  2598: jump @85 if a0 != 832302164\n      : @84 (gas: 1)\n  2605: jump @395\n      : @85 (gas: 1)\n  2608: jump @87 if a0 != 892481335\n      : @86 (gas: 1)\n  2615: jump @355\n      : @87 (gas: 1)\n  2618: jump @89 if a0 != 969217301\n      : @88 (gas: 1)\n  2625: jump @367\n      : @89 (gas: 1)\n  2628: jump @91 if a0 != 1221342904\n      : @90 (gas: 1)\n  2635: jump @334\n      : @91 (gas: 1)\n  2638: jump @93 if a0 != 1251080110\n      : @92 (gas: 1)\n  2645: jump @274\n      : @93 (gas: 1)\n  2648: jump @95 if a0 != 1287362804\n      : @94 (gas: 1)\n  2655: jump @323\n      : @95 (gas: 1)\n  2658: jump @97 if a0 == 1326608131\n      : @96 (gas: 1)\n  2665: jump @527\n      : @97 (gas: 9)\n  2668: a0 = s1 + 0x2878\n  2672: u64 [a0 + 96] = 0\n  2675: u64 [a0 + 88] = 0\n  2678: u64 [a0 + 80] = 0\n  2681: u64 [a0 + 72] = 0\n  2684: a0 = s1 + 0x3000\n  2688: i32 a0 = a0 + 0xfffffffffffff8c0\n  2692: ecalli 17 // 'value_transferred'\n  2694: fallthrough\n      : @98 (gas: 9)\n  2695: a3 = s1 + 0x2878\n  2699: a0 = u64 [a3 + 0x58]\n  2702: a1 = u64 [a3 + 0x60]\n  2705: a2 = u64 [a3 + 0x50]\n  2708: a3 = u64 [a3 + 0x48]\n  2711: a1 = a1 | a2\n  2714: a0 = a0 | a3\n  2717: a0 = a0 | a1\n  2720: jump @100 if a0 == 0\n      : @99 (gas: 1)\n  2723: jump @848\n      : @100 (gas: 3)\n  2726: a0 = u64 [s1 + 0xf8]\n  2730: a0 = i32 [a0]\n  2732: jump @102 if a0 >u 99\n      : @101 (gas: 1)\n  2736: jump @849\n      : @102 (gas: 5)\n  2739: a0 = s1 + 0x3000\n  2743: i32 a0 = a0 + 0xfffffffffffff8e0\n  2747: a1 = 0x4\n  2750: ecalli 2 // 'call_data_load'\n  2752: fallthrough\n      : @103 (gas: 11)\n  2753: a2 = s1 + 0x2878\n  2757: a0 = u64 [a2 + 0x80]\n  2761: a1 = u64 [a2 + 0x78]\n  2764: a3 = u64 [a2 + 0x68]\n  2767: a2 = u64 [a2 + 0x70]\n  2770: a0 = a0 | a1\n  2773: u64 [s1 + 0xf8] = a3\n  2777: a1 = a3 <u 0x100\n  2781: a1 = 0 if a2 != 0\n  2783: a1 = 0 if a0 != 0\n  2785: jump @105 if a1 != 0\n      : @104 (gas: 1)\n  2788: jump @850\n      : @105 (gas: 5)\n  2791: a0 = s1 + 0x3000\n  2795: i32 a0 = a0 + 0xfffffffffffff900\n  2799: a1 = 0x24\n  2802: ecalli 2 // 'call_data_load'\n  2804: fallthrough\n      : @106 (gas: 11)\n  2805: a2 = s1 + 0x2878\n  2809: a0 = u64 [a2 + 0xa0]\n  2813: a1 = u64 [a2 + 0x98]\n  2817: a3 = u64 [a2 + 0x88]\n  2821: a2 = u64 [a2 + 0x90]\n  2825: a0 = a0 | a1\n  2828: u64 [s1 + 0xd0] = a3\n  2832: a1 = a3 <u 0x100\n  2836: a1 = 0 if a2 != 0\n  2838: a1 = 0 if a0 != 0\n  2840: jump @108 if a1 != 0\n      : @107 (gas: 1)\n  2843: jump @851\n      : @108 (gas: 5)\n  2846: a0 = s1 + 0x3000\n  2850: i32 a0 = a0 + 0xfffffffffffff920\n  2854: a1 = 0x44\n  2857: ecalli 2 // 'call_data_load'\n  2859: fallthrough\n      : @109 (gas: 9)\n  2860: a0 = s1 + 0x2878\n  2864: t0 = u64 [a0 + 0xc0]\n  2868: a4 = u64 [a0 + 0xb8]\n  2872: a5 = u64 [a0 + 0xb0]\n  2876: a3 = u64 [a0 + 0xa8]\n  2880: a0 = a5 | t0\n  2883: a1 = a3 | a4\n  2886: a0 = a0 | a1\n  2889: jump @111 if a0 != 0\n      : @110 (gas: 1)\n  2892: jump @852\n      : @111 (gas: 3)\n  2895: a1 = u8 [s1 + 0xf8]\n  2899: a2 = u8 [s1 + 0xd0]\n  2903: jump @113 if a1 != a2\n      : @112 (gas: 1)\n  2906: jump @856\n      : @113 (gas: 6)\n  2909: u64 [s1 + 0xf8] = a3\n  2913: u64 [s1 + 0xd8] = a5\n  2917: u64 [s1 + 0xe0] = a4\n  2921: u64 [s1 + 0xe8] = t0\n  2925: u64 [s1 + 0xc0] = a1\n  2929: jump @115 if a1 <=u 1\n      : @114 (gas: 1)\n  2933: jump @844\n      : @115 (gas: 1)\n  2936: jump @117 if a2 <u 3\n      : @116 (gas: 1)\n  2940: jump @844\n      : @117 (gas: 10)\n  2943: u64 [s1 + 0x80] = a2\n  2947: a0 = 0x30160\n  2952: u64 [s1 + 0xc8] = a0\n  2956: i32 a0 = a0 + 0\n  2958: u64 [s1 + 0xa0] = a0\n  2962: ra = 0x3e\n  2965: ecalli 4 // 'caller'\n  2967: a2 = u64 [s1 + 0xc8]\n  2971: t0 = 0x40\n  2974: jump @1537\n      : @118 [@dyn 31] (gas: 2)\n  2978: a2 = u64 [s1 + 0xc8]\n  2982: t0 = 64, jump @1537\n      : @119 [@dyn 32] (gas: 9)\n  2988: u64 [a2 + 1248] = 0\n  2992: a4 = a2 + 0x400\n  2996: u64 [a4 + 0xd8] = a1\n  3000: u64 [a4 + 0xd0] = a0\n  3004: a1 = s1 + 0x7ff\n  3008: a1 = a1 + 0x541\n  3012: u64 [a4 + 0xc8] = a3\n  3016: a0 = 0\n  3018: ra = 66, jump @9\n      : @120 [@dyn 33] (gas: 11)\n  3023: a1 = s1 + 0x7ff\n  3027: a1 = a1 + 0x79\n  3030: u64 [a1 + 1216] = 0\n  3034: u64 [a1 + 1208] = 0\n  3038: u64 [a1 + 1192] = 0x2\n  3043: a2 = a1\n  3045: a0 = 0x20\n  3048: a1 = s1 + 0x7ff\n  3052: a1 = a1 + 0x521\n  3056: u64 [a2 + 1200] = 0\n  3060: ra = 68, jump @9\n      : @121 [@dyn 34] (gas: 7)\n  3065: a0 = sp + 0xffffffffffffffe0\n  3068: a0 = a0 & 0xffffffffffffffe0\n  3071: u64 [s1 + 0xf0] = a0\n  3075: sp = a0\n  3077: a2 = 0x20150\n  3082: a0 = i32 [0x20150]\n  3087: jump @123 if a0 >u 63\n      : @122 (gas: 2)\n  3091: u32 [0x20150] = 0x40\n  3097: fallthrough\n      : @123 (gas: 12)\n  3098: u64 [s1 + 0x78] = a2\n  3101: a0 = sp + 0xffffffffffffffe0\n  3104: a2 = a0 & 0xffffffffffffffe0\n  3107: u64 [s1 + 0xb8] = a2\n  3111: sp = a2\n  3113: a0 = 0x20160\n  3118: i32 a0 = a0 + 0\n  3120: i32 a2 = a2 + 0\n  3122: a1 = 0x40\n  3125: u64 [s1 + 0x88] = a0\n  3129: ecalli 9 // 'hash_keccak_256'\n  3131: fallthrough\n      : @124 (gas: 22)\n  3132: a2 = u64 [s1 + 0xb8]\n  3136: a0 = u64 [a2 + 0x18]\n  3139: a1 = u64 [a2 + 0x10]\n  3142: a4 = u64 [a2 + 0x8]\n  3145: a3 = u64 [a2]\n  3147: a2 = reverse a0\n  3149: a5 = reverse a1\n  3151: a4 = reverse a4\n  3153: a3 = reverse a3\n  3155: a1 = u64 [s1 + 0xf0]\n  3159: u64 [a1 + 0x18] = a3\n  3162: u64 [a1 + 0x10] = a4\n  3165: u64 [a1 + 0x8] = a5\n  3168: u64 [a1] = a2\n  3170: t1 = a2 + 0x2\n  3173: a0 = u64 [s1 + 0xc0]\n  3177: u64 [s1 + 0xb8] = a4\n  3181: u64 [s1 + 0x98] = a3\n  3185: u64 [s1 + 0xb0] = a5\n  3189: u64 [s1 + 0x90] = t1\n  3193: u64 [s1 + 0xa8] = a2\n  3197: jump @126 if a0 == 0\n      : @125 (gas: 1)\n  3200: jump @592\n      : @126 (gas: 3)\n  3203: a0 = s1 + 0x7ff\n  3207: a0 = a0 + 0x4c1\n  3211: ra = 70, jump @11\n      : @127 [@dyn 35] (gas: 25)\n  3216: a0 = s1 + 0x7ff\n  3220: a0 = a0 + 0x79\n  3223: ra = u64 [a0 + 0x450]\n  3227: t0 = u64 [a0 + 0x460]\n  3231: a1 = u64 [a0 + 0x448]\n  3235: a5 = u64 [a0 + 0x458]\n  3239: t2 = u64 [s1 + 0xd8]\n  3243: a0 = ra ^ t2\n  3246: a4 = ra <u t2\n  3249: u64 [s1 + 0x70] = a1\n  3252: a2 = u64 [s1 + 0xf8]\n  3256: a1 = a1 <u a2\n  3259: u64 [s1 + 0x68] = a1\n  3262: a4 = a1 if a0 == 0\n  3265: t1 = u64 [s1 + 0xe0]\n  3269: a1 = a5 <u t1\n  3272: a2 = u64 [s1 + 0xe8]\n  3276: a3 = t0 ^ a2\n  3279: a0 = t0 <u a2\n  3282: u64 [s1 + 0x60] = a1\n  3285: a0 = a1 if a3 == 0\n  3288: a1 = a5 ^ t1\n  3291: a1 = a1 | a3\n  3294: a0 = a4 if a1 == 0\n  3297: jump @129 if a0 == 0\n      : @128 (gas: 1)\n  3300: jump @916\n      : @129 (gas: 22)\n  3303: a0 = a5 - t1\n  3306: a1 = t0 - a2\n  3309: a2 = u64 [s1 + 0x60]\n  3312: a1 = a1 - a2\n  3315: a2 = a0 <u a4\n  3318: a1 = a1 - a2\n  3321: a0 = a0 - a4\n  3324: a2 = ra - t2\n  3327: a3 = u64 [s1 + 0x68]\n  3330: a2 = a2 - a3\n  3333: a3 = u64 [s1 + 0x70]\n  3336: a4 = u64 [s1 + 0xf8]\n  3340: a3 = a3 - a4\n  3343: a4 = s1 + 0x2878\n  3347: u64 [a4 + 0xe8] = a3\n  3351: u64 [a4 + 0xf0] = a2\n  3355: u64 [a4 + 0xf8] = a0\n  3359: u64 [a4 + 0x100] = a1\n  3363: a1 = s1 + 0x2960\n  3367: a0 = u64 [s1 + 0xf0]\n  3371: ra = 0x212\n  3375: jump @12\n      : @130 (gas: 11)\n  3378: a0 = s1 + 0x2878\n  3382: u64 [a0 + 480] = 0\n  3386: u64 [a0 + 472] = 0\n  3390: u64 [a0 + 464] = 0\n  3394: u64 [a0 + 456] = 0\n  3398: a0 = s1 + 0x3000\n  3402: i32 a0 = a0 + 0xfffffffffffffa40\n  3406: ra = 0x48\n  3409: ecalli 17 // 'value_transferred'\n  3411: t0 = 0x4a\n  3414: jump @1579\n      : @131 [@dyn 36] (gas: 1)\n  3418: t0 = 74, jump @1579\n      : @132 [@dyn 37] (gas: 8)\n  3424: a0 = u64 [a4 + 0xd8]\n  3428: a1 = u64 [a4 + 0xe0]\n  3432: a2 = u64 [a4 + 0xd0]\n  3436: a3 = u64 [a4 + 0xc8]\n  3440: a1 = a1 | a2\n  3443: a0 = a0 | a3\n  3446: a0 = a0 | a1\n  3449: jump @134 if a0 == 0\n      : @133 (gas: 1)\n  3452: jump @860\n      : @134 (gas: 3)\n  3455: a0 = u64 [s1 + 0xf8]\n  3459: a0 = i32 [a0]\n  3461: jump @136 if a0 >u 67\n      : @135 (gas: 1)\n  3465: jump @861\n      : @136 (gas: 4)\n  3468: a0 = s1 + 0x1020\n  3472: ra = 0x4c\n  3475: t0 = 0x4fe\n  3479: jump @1590\n      : @137 [@dyn 38] (gas: 14)\n  3483: a0 = s1 + 0x7ff\n  3487: a0 = a0 + 0x79\n  3490: a2 = a0 + 0x700\n  3494: a1 = u64 [a2 + 0xb8]\n  3498: u64 [s1 + 0xc8] = a1\n  3502: a1 = u64 [a2 + 0xb0]\n  3506: u64 [s1 + 0xd8] = a1\n  3510: a0 = u64 [a2 + 0xa8]\n  3514: u64 [s1 + 0xd0] = a0\n  3518: a0 = s1 + 0x3000\n  3522: i32 a0 = a0 + 0xfffffffffffffa60\n  3526: a1 = 0x24\n  3529: ecalli 2 // 'call_data_load'\n  3531: fallthrough\n      : @138 (gas: 18)\n  3532: a0 = s1 + 0x2878\n  3536: a4 = u64 [a0 + 0x200]\n  3540: a5 = a0 + 0x100\n  3544: a3 = u64 [a5 + 0xf8]\n  3548: a2 = u64 [a5 + 0xf0]\n  3552: a1 = u64 [a5 + 0xe8]\n  3556: u64 [s1 + 0xf0] = a2\n  3560: u64 [s1 + 0xe0] = a4\n  3564: a0 = a2 | a4\n  3567: u64 [s1 + 0xf8] = a1\n  3571: a1 = a1 | a3\n  3574: a1 = a1 | a0\n  3577: a1 = a1 >> 0x20\n  3580: u64 [s1 + 0xe8] = a3\n  3584: a0 = a0 | a3\n  3587: a0 = a0 << 0x20\n  3590: a0 = a0 | a1\n  3593: jump @140 if a0 == 0\n      : @139 (gas: 1)\n  3596: jump @862\n      : @140 (gas: 15)\n  3599: a0 = u64 [s1 + 0xc8]\n  3603: a0 = a0 << 0x20\n  3606: a0 = a0 >> 0x20\n  3609: a2 = s1 + 0x7ff\n  3613: a2 = a2 + 0x79\n  3616: u64 [a2 + 1952] = 0\n  3620: a1 = u64 [s1 + 0xd0]\n  3624: a3 = a2 + 0x700\n  3628: u64 [a3 + 0x88] = a1\n  3632: a1 = u64 [s1 + 0xd8]\n  3636: u64 [a3 + 0x90] = a1\n  3640: a1 = s1 + 0x1000\n  3644: u64 [a3 + 0x98] = a0\n  3648: a0 = 0\n  3650: ra = 78, jump @9\n      : @141 [@dyn 39] (gas: 11)\n  3655: a1 = s1 + 0x7ff\n  3659: a1 = a1 + 0x79\n  3662: u64 [a1 + 1920] = 0\n  3666: u64 [a1 + 1912] = 0\n  3670: u64 [a1 + 1896] = 0x3\n  3675: a2 = a1\n  3677: a0 = 0x20\n  3680: a1 = s1 + 0x7ff\n  3684: a1 = a1 + 0x7e1\n  3688: u64 [a2 + 1904] = 0\n  3692: ra = 80, jump @9\n      : @142 [@dyn 40] (gas: 3)\n  3697: a1 = 0x20150\n  3702: a0 = i32 [0x20150]\n  3707: jump @144 if a0 >u 63\n      : @143 (gas: 2)\n  3711: u32 [0x20150] = 0x40\n  3717: fallthrough\n      : @144 (gas: 14)\n  3718: a0 = sp + 0xffffffffffffffe0\n  3721: a2 = a0 & 0xffffffffffffffe0\n  3724: u64 [s1 + 0xc8] = a2\n  3728: sp = a2\n  3730: a0 = 0x20160\n  3735: i32 a0 = a0 + 0\n  3737: i32 a2 = a2 + 0\n  3739: u64 [s1 + 0xd8] = a1\n  3743: a1 = 0x40\n  3746: u64 [s1 + 0xd0] = a0\n  3750: ra = 0x52\n  3753: ecalli 9 // 'hash_keccak_256'\n  3755: t0 = 0x54\n  3758: jump @1583\n      : @145 [@dyn 41] (gas: 1)\n  3762: t0 = 84, jump @1583\n      : @146 [@dyn 42] (gas: 22)\n  3768: u64 [s1 + 0xb0] = a0\n  3772: a0 = reverse a3\n  3774: u64 [s1 + 0xa8] = a0\n  3778: a0 = sp + 0xffffffffffffffe0\n  3781: a0 = a0 & 0xffffffffffffffe0\n  3784: u64 [s1 + 0xc8] = a0\n  3788: sp = a0\n  3790: a2 = s1 + 0x7ff\n  3794: a2 = a2 + 0x79\n  3797: a0 = u64 [s1 + 0xe0]\n  3801: a3 = a2 + 0x700\n  3805: u64 [a3 + 0x60] = a0\n  3808: a0 = u64 [s1 + 0xe8]\n  3812: u64 [a3 + 0x58] = a0\n  3815: a0 = u64 [s1 + 0xf0]\n  3819: u64 [a3 + 0x50] = a0\n  3822: a1 = s1 + 0x7ff\n  3826: a1 = a1 + 0x7c1\n  3830: a0 = u64 [s1 + 0xf8]\n  3834: u64 [a3 + 0x48] = a0\n  3837: a0 = 0\n  3839: ra = 86, jump @9\n      : @147 [@dyn 43] (gas: 16)\n  3844: a1 = s1 + 0x7ff\n  3848: a1 = a1 + 0x79\n  3851: a0 = u64 [s1 + 0xa8]\n  3855: a2 = a1 + 0x700\n  3859: u64 [a2 + 0x40] = a0\n  3862: a0 = u64 [s1 + 0xb0]\n  3866: u64 [a2 + 0x38] = a0\n  3869: a0 = u64 [s1 + 0xb8]\n  3873: u64 [a2 + 0x30] = a0\n  3876: a3 = a1\n  3878: a0 = 0x20\n  3881: a1 = s1 + 0x7ff\n  3885: a1 = a1 + 0x7a1\n  3889: a2 = u64 [s1 + 0xc0]\n  3893: u64 [a3 + 0x728] = a2\n  3897: ra = 88, jump @9\n      : @148 [@dyn 44] (gas: 3)\n  3902: a1 = u64 [s1 + 0xd8]\n  3906: a0 = i32 [a1]\n  3908: jump @150 if a0 >u 63\n      : @149 (gas: 2)\n  3912: u32 [a1 + 0] = 0x40\n  3915: fallthrough\n      : @150 (gas: 11)\n  3916: a0 = sp + 0xffffffffffffffe0\n  3919: a0 = a0 & 0xffffffffffffffe0\n  3922: u64 [s1 + 0xf8] = a0\n  3926: sp = a0\n  3928: i32 a2 = a0 + 0\n  3930: a1 = 0x40\n  3933: a0 = u64 [s1 + 0xd0]\n  3937: ra = 0x5a\n  3940: ecalli 9 // 'hash_keccak_256'\n  3942: t0 = 0x5c\n  3945: jump @1598\n      : @151 [@dyn 45] (gas: 1)\n  3949: t0 = 92, jump @1598\n      : @152 [@dyn 46] (gas: 15)\n  3955: u64 [s1 + 0xe0] = a5\n  3959: a4 = reverse a1\n  3961: u64 [s1 + 0xe8] = a4\n  3965: a2 = reverse a2\n  3967: u64 [s1 + 0xf0] = a2\n  3971: a0 = reverse a3\n  3973: u64 [s1 + 0xf8] = a0\n  3977: a1 = u64 [s1 + 0xc8]\n  3981: u64 [a1 + 0x18] = a0\n  3984: u64 [a1 + 0x10] = a2\n  3987: u64 [a1 + 0x8] = a4\n  3990: u64 [a1] = a5\n  3992: a0 = s1 + 0x7ff\n  3996: a0 = a0 + 0x781\n  4000: ra = 94, jump @11\n      : @153 [@dyn 47] (gas: 34)\n  4005: a1 = s1 + 0x7ff\n  4009: a1 = a1 + 0x79\n  4012: a2 = a1 + 0x700\n  4016: a0 = u64 [a2 + 0x20]\n  4019: u64 [s1 + 0xd8] = a0\n  4023: a0 = u64 [a2 + 0x18]\n  4026: u64 [s1 + 0xd0] = a0\n  4030: a0 = u64 [a2 + 0x10]\n  4033: a5 = a1\n  4035: u64 [s1 + 0xc8] = a0\n  4039: a0 = u64 [s1 + 0xe0]\n  4043: a0 = a0 + 0x1\n  4046: a1 = a0 <u 0x1\n  4049: a2 = u64 [s1 + 0xe8]\n  4053: a1 = a1 + a2\n  4056: a2 = a0 | a1\n  4059: a2 = a2 <u 0x1\n  4062: a3 = u64 [s1 + 0xf0]\n  4066: a2 = a2 + a3\n  4069: a3 = a2 <u a3\n  4072: a4 = u64 [s1 + 0xf8]\n  4076: a3 = a3 + a4\n  4079: a4 = u64 [a5 + 0x708]\n  4083: u64 [s1 + 0xf8] = a4\n  4087: a4 = s1 + 0x2878\n  4091: a5 = a4 + 0x200\n  4095: u64 [a5 + 0x10] = a1\n  4098: u64 [a5 + 0x8] = a0\n  4101: u64 [a5 + 0x18] = a2\n  4104: u64 [a5 + 0x20] = a3\n  4107: a0 = s1 + 0x7ff\n  4111: a0 = a0 + 0x761\n  4115: a1 = s1 + 0x2a80\n  4119: ra = 96, jump @11\n      : @154 [@dyn 48] (gas: 10)\n  4124: a1 = s1 + 0x7ff\n  4128: a1 = a1 + 0x79\n  4131: a0 = u64 [a1 + 0x6f0]\n  4135: u64 [s1 + 0xc0] = a0\n  4139: a0 = u64 [a1 + 0x6e8]\n  4143: u64 [s1 + 0xe0] = a0\n  4147: a0 = s1 + 0x7ff\n  4151: a0 = a0 + 0x741\n  4155: a1 = 0x40\n  4158: ra = 98, jump @7\n      : @155 [@dyn 49] (gas: 15)\n  4163: a2 = s1 + 0x7ff\n  4167: a2 = a2 + 0x79\n  4170: t0 = u64 [a2 + 0x6e0]\n  4174: a1 = a2 + 0x600\n  4178: a5 = u64 [a1 + 0xd8]\n  4182: a4 = u64 [a1 + 0xd0]\n  4186: a0 = u64 [a1 + 0xc8]\n  4190: a3 = a4 | t0\n  4193: a1 = a0 | a5\n  4196: a1 = a1 | a3\n  4199: a1 = a1 >> 0x20\n  4202: a3 = a3 | a5\n  4205: a3 = a3 << 0x20\n  4208: a1 = a1 | a3\n  4211: jump @157 if a1 == 0\n      : @156 (gas: 1)\n  4214: jump @843\n      : @157 (gas: 15)\n  4217: a1 = u64 [s1 + 0xf8]\n  4221: u64 [a2 + 0x6a8] = a1\n  4225: a1 = u64 [s1 + 0xc8]\n  4229: u64 [a2 + 0x6b0] = a1\n  4233: a1 = u64 [s1 + 0xd0]\n  4237: u64 [a2 + 0x6b8] = a1\n  4241: a1 = s1 + 0x7ff\n  4245: a1 = a1 + 0x721\n  4249: a3 = u64 [s1 + 0xd8]\n  4253: u64 [a2 + 0x6c0] = a3\n  4257: u64 [s1 + 0xf0] = a0\n  4261: u64 [s1 + 0xe8] = a4\n  4265: u64 [s1 + 0xd8] = t0\n  4269: u64 [s1 + 0xf8] = a5\n  4273: ra = 100, jump @9\n      : @158 [@dyn 50] (gas: 11)\n  4278: a2 = u64 [s1 + 0xe8]\n  4282: a1 = u64 [s1 + 0xf0]\n  4286: a0 = u64 [s1 + 0xf8]\n  4290: a3 = u64 [s1 + 0xd8]\n  4294: a3 = a3 | a0\n  4297: a4 = 0x100000000\n  4307: a0 = 0xffffffe0\n  4317: a0 = a1 <u a0\n  4320: a0 = 0 if a2 != 0\n  4322: a0 = 0 if a3 != 0\n  4324: jump @160 if a0 != 0\n      : @159 (gas: 1)\n  4327: jump @843\n      : @160 (gas: 14)\n  4330: i32 a0 = a1 + 0x20\n  4333: a1 = s1 + 0x7ff\n  4337: a1 = a1 + 0x79\n  4340: u64 [s1 + 0xf8] = a3\n  4344: a3 = a1\n  4346: u64 [a1 + 1696] = 0\n  4350: u64 [a1 + 1688] = 0\n  4354: a1 = u64 [s1 + 0xe0]\n  4358: u64 [a3 + 0x688] = a1\n  4362: a1 = s1 + 0x7ff\n  4366: a1 = a1 + 0x701\n  4370: u64 [a3 + 1680] = 0\n  4374: u64 [s1 + 0xe0] = a4\n  4378: ra = 102, jump @9\n      : @161 [@dyn 51] (gas: 9)\n  4383: a2 = u64 [s1 + 0xf0]\n  4387: a0 = u64 [s1 + 0xe0]\n  4391: a0 = a0 + 0xffffffffffffffc0\n  4394: a0 = a2 <u a0\n  4397: a1 = u64 [s1 + 0xe8]\n  4401: a0 = 0 if a1 != 0\n  4403: a1 = u64 [s1 + 0xf8]\n  4407: a0 = 0 if a1 != 0\n  4409: jump @163 if a0 != 0\n      : @162 (gas: 1)\n  4412: jump @843\n      : @163 (gas: 12)\n  4415: a0 = u8 [s1 + 0xc0]\n  4419: a1 = a0 >u 0\n  4421: i32 a0 = a2 + 0x40\n  4424: a3 = s1 + 0x7ff\n  4428: a3 = a3 + 0x79\n  4431: u64 [a3 + 1664] = 0\n  4435: u64 [a3 + 1656] = 0\n  4439: u64 [a3 + 0x668] = a1\n  4443: a1 = s1 + 0x7ff\n  4447: a1 = a1 + 0x6e1\n  4451: u64 [a3 + 1648] = 0\n  4455: ra = 104, jump @9\n      : @164 [@dyn 52] (gas: 3)\n  4460: a1 = 0x60\n  4463: a0 = u64 [s1 + 0xf0]\n  4467: ra = 106, jump @20\n      : @165 [@dyn 53] (gas: 5)\n  4472: i32 a1 = a0 + 0\n  4474: a2 = 0x60\n  4477: a0 = 0\n  4479: ecalli 14 // 'seal_return'\n  4481: jump @457\n      : @166 (gas: 11)\n  4484: a0 = s1 + 0x2878\n  4488: u64 [a0 + 1024] = 0\n  4492: u64 [a0 + 1016] = 0\n  4496: u64 [a0 + 1008] = 0\n  4500: u64 [a0 + 1000] = 0\n  4504: a0 = s1 + 0x3000\n  4508: i32 a0 = a0 + 0xfffffffffffffc60\n  4512: ra = 0x6c\n  4515: ecalli 17 // 'value_transferred'\n  4517: t0 = 0x6e\n  4520: jump @1580\n      : @167 [@dyn 54] (gas: 1)\n  4524: t0 = 110, jump @1580\n      : @168 [@dyn 55] (gas: 8)\n  4530: a0 = u64 [a4 + 0xf8]\n  4534: a1 = u64 [a3 + 0x400]\n  4538: a2 = u64 [a4 + 0xf0]\n  4542: a3 = u64 [a4 + 0xe8]\n  4546: a1 = a1 | a2\n  4549: a0 = a0 | a3\n  4552: a0 = a0 | a1\n  4555: jump @170 if a0 == 0\n      : @169 (gas: 1)\n  4558: jump @863\n      : @170 (gas: 3)\n  4561: a0 = u64 [s1 + 0xf8]\n  4565: a0 = i32 [a0]\n  4567: jump @172 if a0 >u 3\n      : @171 (gas: 1)\n  4571: jump @864\n      : @172 (gas: 9)\n  4574: a0 = 0x30160\n  4579: u64 [s1 + 0xf8] = a0\n  4583: i32 a0 = a0 + 0\n  4585: u64 [s1 + 0xe0] = a0\n  4589: ra = 0x70\n  4592: ecalli 4 // 'caller'\n  4594: a2 = u64 [s1 + 0xf8]\n  4598: t0 = 0x72\n  4601: jump @1542\n      : @173 [@dyn 56] (gas: 2)\n  4605: a2 = u64 [s1 + 0xf8]\n  4609: t0 = 114, jump @1542\n      : @174 [@dyn 57] (gas: 8)\n  4615: u64 [a2 + 1600] = 0\n  4619: a4 = a2 + 0x600\n  4623: u64 [a4 + 0x38] = a1\n  4626: u64 [a4 + 0x30] = a0\n  4629: a1 = s1 + 0x1ea0\n  4633: u64 [a4 + 0x28] = a3\n  4636: a0 = 0\n  4638: ra = 116, jump @9\n      : @175 [@dyn 58] (gas: 3)\n  4643: t0 = 0x76\n  4646: a1 = s1 + 0x1878\n  4650: fallthrough\n      : @176 [@dyn 59] (gas: 8)\n  4651: u64 [a1 + 1568] = 0\n  4655: u64 [a1 + 1560] = 0\n  4659: u64 [a1 + 1544] = 0x2\n  4664: a2 = a1\n  4666: a0 = 0x20\n  4669: a1 = s1 + 0x1e80\n  4673: u64 [a2 + 1552] = 0\n  4677: ra = 120, jump @9\n      : @177 [@dyn 60] (gas: 2)\n  4682: a1 = i32 [0x20150]\n  4687: jump @179 if a1 >u 63\n      : @178 (gas: 2)\n  4691: u32 [0x20150] = 0x40\n  4697: fallthrough\n      : @179 (gas: 27)\n  4698: a0 = sp + 0xffffffffffffffe0\n  4701: a2 = a0 & 0xffffffffffffffe0\n  4704: u64 [s1 + 0xe8] = a2\n  4708: sp = a2\n  4710: a0 = 0x20160\n  4715: i32 a0 = a0 + 0\n  4717: i32 a2 = a2 + 0\n  4719: a1 = 0x40\n  4722: u64 [s1 + 0xc0] = a0\n  4726: ecalli 9 // 'hash_keccak_256'\n  4728: a1 = u64 [s1 + 0xe8]\n  4732: a0 = u64 [a1 + 0x18]\n  4735: u64 [s1 + 0xd8] = a0\n  4739: a0 = u64 [a1 + 0x10]\n  4742: u64 [s1 + 0xd0] = a0\n  4746: a0 = u64 [a1 + 0x8]\n  4749: u64 [s1 + 0xc8] = a0\n  4753: a0 = u64 [a1]\n  4755: u64 [s1 + 0xe8] = a0\n  4759: a0 = s1 + 0x2878\n  4763: u64 [a0 + 1056] = 0\n  4767: u64 [a0 + 1048] = 0\n  4771: u64 [a0 + 1040] = 0\n  4775: u64 [a0 + 1032] = 0\n  4779: a0 = s1 + 0x1e60\n  4783: a1 = s1 + 0x2c80\n  4787: ra = 122, jump @11\n      : @180 [@dyn 61] (gas: 10)\n  4792: a0 = s1 + 0x1878\n  4796: a1 = a0 + 0x500\n  4800: a3 = u64 [a1 + 0xf8]\n  4804: a4 = u64 [a1 + 0xf0]\n  4808: a2 = u64 [a1 + 0xe8]\n  4812: a0 = a3 << 0x20\n  4815: a0 = a0 >> 0x20\n  4818: a1 = a2 | a4\n  4821: a0 = a0 | a1\n  4824: jump @182 if a0 == 0\n      : @181 (gas: 1)\n  4827: jump @542\n      : @182 (gas: 5)\n  4830: u64 [s1 + 168] = 0\n  4834: u64 [s1 + 176] = 0\n  4838: u64 [s1 + 184] = 0\n  4842: u64 [s1 + 192] = 0\n  4846: fallthrough\n      : @183 (gas: 26)\n  4847: a0 = u64 [s1 + 0xe8]\n  4851: t0 = reverse a0\n  4853: a1 = u64 [s1 + 0xc8]\n  4857: a0 = reverse a1\n  4859: a2 = u64 [s1 + 0xd0]\n  4863: a2 = reverse a2\n  4865: a3 = u64 [s1 + 0xd8]\n  4869: a3 = reverse a3\n  4871: a4 = sp + 0xffffffffffffffe0\n  4874: a1 = a4 & 0xffffffffffffffe0\n  4877: sp = a1\n  4879: a4 = a3 + 0x2\n  4882: a3 = a4 <u a3\n  4885: a5 = a2 + a3\n  4888: a2 = a5 <u a2\n  4891: a2 = a3 if a3 == 0\n  4894: a2 = a2 + a0\n  4897: a0 = a2 <u a0\n  4900: a0 = a0 + t0\n  4903: u64 [a1 + 0x8] = a5\n  4906: u64 [a1] = a4\n  4908: u64 [a1 + 0x10] = a2\n  4911: u64 [a1 + 0x18] = a0\n  4914: a0 = s1 + 0x1ae0\n  4918: u64 [s1 + 0xe8] = a1\n  4922: ra = 124, jump @11\n      : @184 [@dyn 62] (gas: 2)\n  4927: a3 = s1 + 0x1878\n  4931: fallthrough\n      : @185 (gas: 9)\n  4932: t0 = u64 [a3 + 0x280]\n  4936: a0 = a3 + 0x200\n  4940: a4 = u64 [a0 + 0x78]\n  4943: a5 = u64 [a0 + 0x70]\n  4946: a2 = u64 [a0 + 0x68]\n  4949: a0 = a5 | t0\n  4952: a1 = a2 | a4\n  4955: a0 = a0 | a1\n  4958: jump @196 if a0 == 0\n      : @186 (gas: 7)\n  4962: u64 [s1 + 0xa0] = a2\n  4966: u64 [s1 + 0xc8] = a5\n  4970: u64 [s1 + 0xd0] = a4\n  4974: u64 [s1 + 0xd8] = t0\n  4978: a0 = u64 [s1 + 0xe8]\n  4982: a1 = u64 [s1 + 0xf0]\n  4986: ra = 126, jump @12\n      : @187 [@dyn 63] (gas: 3)\n  4991: a0 = s1 + 0x1ac0\n  4995: a1 = 0x40\n  4998: ra = 128, jump @7\n      : @188 [@dyn 64] (gas: 7)\n  5004: a3 = s1 + 0x1878\n  5008: a5 = a3 + 0x200\n  5012: a4 = u64 [a5 + 0x60]\n  5015: a1 = u64 [a5 + 0x58]\n  5018: a2 = u64 [a5 + 0x50]\n  5021: a0 = u64 [a5 + 0x48]\n  5024: t0 = 130, jump @1569\n      : @189 [@dyn 65] (gas: 1)\n  5031: jump @191 if a1 == 0\n      : @190 (gas: 1)\n  5034: jump @843\n      : @191 (gas: 12)\n  5037: a1 = u64 [s1 + 0xa0]\n  5041: a4 = a3 + 0x200\n  5045: u64 [a4 + 0x28] = a1\n  5048: a1 = u64 [s1 + 0xc8]\n  5052: u64 [a4 + 0x30] = a1\n  5055: a1 = u64 [s1 + 0xd0]\n  5059: u64 [a4 + 0x38] = a1\n  5062: a1 = s1 + 0x1aa0\n  5066: a2 = u64 [s1 + 0xd8]\n  5070: u64 [a4 + 0x40] = a2\n  5073: u64 [s1 + 0xf0] = a0\n  5077: ra = 132, jump @9\n      : @192 [@dyn 66] (gas: 6)\n  5083: a0 = u64 [s1 + 0xe0]\n  5087: ra = 0x86\n  5091: ecalli 4 // 'caller'\n  5093: a2 = u64 [s1 + 0xf8]\n  5097: t0 = 0x88\n  5101: jump @1545\n      : @193 [@dyn 67] (gas: 2)\n  5105: a2 = u64 [s1 + 0xf8]\n  5109: t0 = 136, jump @1545\n      : @194 [@dyn 68] (gas: 43)\n  5116: a3 = s1 + 0x1878\n  5120: u64 [a3 + 448] = 0\n  5124: a3 = s1 + 0x1878\n  5128: u64 [a3 + 440] = 0\n  5132: a4 = s1 + 0x1878\n  5136: u64 [a4 + 424] = 0x2\n  5141: a4 = s1 + 0x1878\n  5145: u64 [a4 + 456] = 0x1\n  5150: a3 = u64 [0x20020]\n  5155: a4 = u64 [0x20028]\n  5160: a5 = s1 + 0x1878\n  5164: u64 [a5 + 432] = 0\n  5168: a5 = s1 + 0x1878\n  5172: u64 [a5 + 480] = 0\n  5176: a5 = s1 + 0x1878\n  5180: u64 [a5 + 0x220] = a3\n  5184: a3 = s1 + 0x1878\n  5188: u64 [a3 + 0x218] = a4\n  5192: a3 = u64 [0x20030]\n  5197: a4 = u64 [0x20038]\n  5202: a5 = s1 + 0x1878\n  5206: u64 [a5 + 472] = 0\n  5210: a5 = s1 + 0x1878\n  5214: u64 [a5 + 464] = 0\n  5218: a5 = s1 + 0x1878\n  5222: u64 [a5 + 0x210] = a3\n  5226: a3 = s1 + 0x1878\n  5230: u64 [a3 + 0x208] = a4\n  5234: a3 = s1 + 0x1878\n  5238: u64 [a3 + 0x1f8] = a2\n  5242: a2 = s1 + 0x1878\n  5246: u64 [a2 + 0x1f0] = a1\n  5250: a1 = s1 + 0x1878\n  5254: u64 [a1 + 0x1e8] = a0\n  5258: a1 = 0x20\n  5261: a2 = s1 + 0x1a80\n  5265: a3 = s1 + 0x1a60\n  5269: a4 = s1 + 0x1a40\n  5273: a5 = s1 + 0x1a20\n  5277: a0 = s1 + 0x1878\n  5281: u64 [a0 + 512] = 0\n  5285: a0 = u64 [s1 + 0xf0]\n  5289: ra = 138, jump @17\n      : @195 [@dyn 69] (gas: 6)\n  5295: a2 = u64 [s1 + 0xa0]\n  5299: a5 = u64 [s1 + 0xc8]\n  5303: a4 = u64 [s1 + 0xd0]\n  5307: t0 = u64 [s1 + 0xd8]\n  5311: a3 = s1 + 0x1878\n  5315: fallthrough\n      : @196 (gas: 17)\n  5316: u64 [a3 + 0x148] = a2\n  5320: a0 = u64 [s1 + 0xa8]\n  5324: u64 [a3 + 0x168] = a0\n  5328: u64 [a3 + 0x150] = a5\n  5332: a0 = u64 [s1 + 0xb0]\n  5336: a5 = a3 + 0x100\n  5340: u64 [a5 + 0x70] = a0\n  5343: u64 [a5 + 0x58] = a4\n  5346: a0 = u64 [s1 + 0xb8]\n  5350: u64 [a5 + 0x78] = a0\n  5353: u64 [a3 + 0x160] = t0\n  5357: a0 = s1 + 0x1a00\n  5361: a1 = s1 + 0x19e0\n  5365: a2 = s1 + 0x19c0\n  5369: a4 = u64 [s1 + 0xc0]\n  5373: u64 [a5 + 0x80] = a4\n  5377: ra = 140, jump @1348\n      : @197 [@dyn 70] (gas: 3)\n  5383: t0 = 0x8e\n  5387: a3 = s1 + 0x1878\n  5391: fallthrough\n      : @198 [@dyn 71] (gas: 13)\n  5392: a4 = a3 + 0x100\n  5396: a0 = u64 [a4 + 0xa0]\n  5400: a1 = u64 [a4 + 0x98]\n  5404: a2 = u64 [a4 + 0x90]\n  5408: a3 = u64 [a4 + 0x88]\n  5412: u64 [s1 + 0xf0] = a0\n  5416: u64 [s1 + 0xd8] = a2\n  5420: a0 = a0 | a2\n  5423: u64 [s1 + 0xe8] = a1\n  5427: u64 [s1 + 0xd0] = a3\n  5431: a1 = a1 | a3\n  5434: a0 = a0 | a1\n  5437: jump @202 if a0 == 0\n      : @199 (gas: 6)\n  5440: a0 = u64 [s1 + 0xe0]\n  5444: ra = 0x90\n  5448: ecalli 4 // 'caller'\n  5450: a2 = u64 [s1 + 0xf8]\n  5454: t0 = 0x92\n  5458: jump @1546\n      : @200 [@dyn 72] (gas: 2)\n  5462: a2 = u64 [s1 + 0xf8]\n  5466: t0 = 146, jump @1546\n      : @201 [@dyn 73] (gas: 17)\n  5473: a2 = u64 [s1 + 0xf0]\n  5477: a4 = s1 + 0x1878\n  5481: a5 = a4 + 0x100\n  5485: u64 [a5 + 0x20] = a2\n  5488: a2 = u64 [s1 + 0xe8]\n  5492: u64 [a5 + 0x18] = a2\n  5495: a2 = u64 [s1 + 0xd8]\n  5499: u64 [a5 + 0x10] = a2\n  5502: a2 = u64 [s1 + 0xd0]\n  5506: u64 [a5 + 0x8] = a2\n  5509: u64 [a4 + 320] = 0\n  5513: u64 [a5 + 0x38] = a1\n  5516: u64 [a5 + 0x30] = a0\n  5519: a0 = s1 + 0x19a0\n  5523: a1 = s1 + 0x1980\n  5527: u64 [a5 + 0x28] = a3\n  5530: ra = 148, jump @1356\n      : @202 [@dyn 74] (gas: 3)\n  5536: a0 = s1 + 0x1960\n  5540: a1 = 0x40\n  5543: ra = 150, jump @7\n      : @203 [@dyn 75] (gas: 6)\n  5549: a3 = s1 + 0x1878\n  5553: a0 = u64 [a3 + 0x100]\n  5557: a1 = u64 [a3 + 0xf8]\n  5561: a2 = u64 [a3 + 0xf0]\n  5565: a4 = u64 [a3 + 0xe8]\n  5569: t0 = 152, jump @1563\n      : @204 [@dyn 76] (gas: 1)\n  5576: jump @206 if a0 == 0\n      : @205 (gas: 1)\n  5579: jump @843\n      : @206 (gas: 13)\n  5582: a0 = u64 [s1 + 0xd0]\n  5586: u64 [a3 + 0xc8] = a0\n  5590: a0 = u64 [s1 + 0xd8]\n  5594: u64 [a3 + 0xd0] = a0\n  5598: a0 = u64 [s1 + 0xe8]\n  5602: u64 [a3 + 0xd8] = a0\n  5606: a1 = s1 + 0x1940\n  5610: a0 = u64 [s1 + 0xf0]\n  5614: u64 [a3 + 0xe0] = a0\n  5618: a0 = a4\n  5620: u64 [s1 + 0xf8] = a4\n  5624: ra = 0x18e\n  5628: jump @9\n      : @207 (gas: 9)\n  5631: a0 = s1 + 0x2878\n  5635: u64 [a0 + 1472] = 0\n  5639: u64 [a0 + 1464] = 0\n  5643: u64 [a0 + 1456] = 0\n  5647: u64 [a0 + 1448] = 0\n  5651: a0 = s1 + 0x3000\n  5655: i32 a0 = a0 + 0xfffffffffffffe20\n  5659: ecalli 17 // 'value_transferred'\n  5661: fallthrough\n      : @208 (gas: 10)\n  5662: a3 = s1 + 0x2878\n  5666: a4 = a3 + 0x500\n  5670: a0 = u64 [a4 + 0xb8]\n  5674: a1 = u64 [a4 + 0xc0]\n  5678: a2 = u64 [a4 + 0xb0]\n  5682: a3 = u64 [a4 + 0xa8]\n  5686: a1 = a1 | a2\n  5689: a0 = a0 | a3\n  5692: a0 = a0 | a1\n  5695: jump @210 if a0 == 0\n      : @209 (gas: 1)\n  5698: jump @974\n      : @210 (gas: 3)\n  5701: a0 = u64 [s1 + 0xf8]\n  5705: a0 = i32 [a0]\n  5707: jump @212 if a0 >u 3\n      : @211 (gas: 1)\n  5711: jump @974\n      : @212 (gas: 3)\n  5714: a0 = s1 + 0x2040\n  5718: a1 = u64 [s1 + 0xf0]\n  5722: ra = 154, jump @11\n      : @213 [@dyn 77] (gas: 3)\n  5728: t0 = 0x9c\n  5732: a1 = s1 + 0x1878\n  5736: fallthrough\n      : @214 [@dyn 78] (gas: 12)\n  5737: a3 = a1 + 0x700\n  5741: a0 = u64 [a3 + 0xd8]\n  5745: a2 = u64 [a3 + 0xd0]\n  5749: a1 = u64 [a3 + 0xc8]\n  5753: u64 [s1 + 0xe0] = a0\n  5757: a0 = a0 << 0x20\n  5760: a0 = a0 >> 0x20\n  5763: u64 [s1 + 0xe8] = a1\n  5767: u64 [s1 + 0xd8] = a2\n  5771: a1 = a1 | a2\n  5774: a0 = a0 | a1\n  5777: jump @216 if a0 != 0\n      : @215 (gas: 1)\n  5780: jump @865\n      : @216 (gas: 3)\n  5783: a0 = s1 + 0x2020\n  5787: a1 = 0x40\n  5790: ra = 158, jump @7\n      : @217 [@dyn 79] (gas: 14)\n  5796: a4 = s1 + 0x1878\n  5800: t1 = u64 [a4 + 0x7c0]\n  5804: a1 = a4 + 0x700\n  5808: a5 = u64 [a1 + 0xb8]\n  5812: a3 = u64 [a1 + 0xb0]\n  5816: a0 = u64 [a1 + 0xa8]\n  5820: a2 = a3 | t1\n  5823: a1 = a0 | a5\n  5826: a1 = a1 | a2\n  5829: a1 = a1 >> 0x20\n  5832: a2 = a2 | a5\n  5835: a2 = a2 << 0x20\n  5838: a1 = a1 | a2\n  5841: jump @219 if a1 == 0\n      : @218 (gas: 1)\n  5844: jump @843\n      : @219 (gas: 11)\n  5847: u64 [a4 + 1944] = 0\n  5851: u64 [a4 + 1936] = 0\n  5855: u64 [a4 + 1928] = 0\n  5859: t0 = 0xef5cfb8c00000000\n  5869: a1 = s1 + 0x2000\n  5873: u64 [a4 + 0x7a0] = t0\n  5877: u64 [s1 + 0xf8] = a0\n  5881: u64 [s1 + 0xd0] = t1\n  5885: u64 [s1 + 0xc8] = a5\n  5889: u64 [s1 + 0xc0] = a3\n  5893: ra = 160, jump @9\n      : @220 [@dyn 80] (gas: 7)\n  5899: a0 = 0x30160\n  5904: u64 [s1 + 0xf0] = a0\n  5908: i32 a0 = a0 + 0\n  5910: u64 [s1 + 0xb8] = a0\n  5914: ra = 0xa2\n  5918: ecalli 4 // 'caller'\n  5920: fallthrough\n      : @221 [@dyn 81] (gas: 10)\n  5921: a4 = u64 [s1 + 0xf8]\n  5925: a0 = u64 [s1 + 0xd0]\n  5929: a1 = u64 [s1 + 0xc8]\n  5933: a0 = a0 | a1\n  5936: a1 = 0xfffffffc\n  5946: a1 = a4 <u a1\n  5949: a2 = u64 [s1 + 0xc0]\n  5953: a1 = 0 if a2 != 0\n  5955: a1 = 0 if a0 != 0\n  5957: jump @223 if a1 != 0\n      : @222 (gas: 1)\n  5960: jump @843\n      : @223 (gas: 2)\n  5963: a2 = u64 [s1 + 0xf0]\n  5967: t0 = 164, jump @1557\n      : @224 [@dyn 82] (gas: 7)\n  5974: u64 [a5 + 1920] = 0\n  5978: a4 = a5 + 0x700\n  5982: u64 [a4 + 0x78] = a1\n  5985: u64 [a4 + 0x70] = a2\n  5988: a1 = s1 + 0x1fe0\n  5992: u64 [a4 + 0x68] = a3\n  5995: ra = 166, jump @9\n      : @225 [@dyn 83] (gas: 26)\n  6001: ecalli 11 // 'ref_time_left'\n  6003: a0 = u64 [s1 + 0xd8]\n  6007: a0 = reverse a0\n  6009: a1 = a0 << 0x20\n  6012: a2 = u64 [s1 + 0xe0]\n  6016: a2 = reverse a2\n  6018: a2 = a2 >> 0x20\n  6021: a1 = a1 | a2\n  6024: a2 = u64 [s1 + 0xe8]\n  6028: a2 = reverse a2\n  6030: a3 = a2 << 0x20\n  6033: a0 = a0 >> 0x20\n  6036: a0 = a0 | a3\n  6039: a2 = a2 >> 0x20\n  6042: a3 = u64 [s1 + 0xf0]\n  6046: u64 [a3 + 0x8] = a0\n  6049: u64 [a3] = a1\n  6051: u32 [a3 + 0x10] = a2\n  6054: a0 = s1 + 0x2878\n  6058: u64 [a0 + 1504] = 0\n  6062: u64 [a0 + 1496] = 0\n  6066: u64 [a0 + 1488] = 0\n  6070: u64 [a0 + 1480] = 0\n  6074: a1 = 0x24\n  6077: a0 = u64 [s1 + 0xf8]\n  6081: ra = 168, jump @20\n      : @226 [@dyn 84] (gas: 4)\n  6087: u64 [s1 + 0xe8] = a0\n  6091: a1 = 0x20\n  6094: a0 = u64 [s1 + 0xf8]\n  6098: ra = 170, jump @20\n      : @227 [@dyn 85] (gas: 33)\n  6104: a2 = s1 + 0x2878\n  6108: u32 [a2 + 1512] = 0x20\n  6113: a3 = a2 + 0x600\n  6117: u64 [a3 + 32] = 0xffffffffffffffff\n  6121: u64 [a3 + 24] = 0xffffffffffffffff\n  6125: u64 [a3 + 16] = 0xffffffffffffffff\n  6129: u64 [a3 + 8] = 0xffffffffffffffff\n  6133: a1 = u64 [s1 + 0xf0]\n  6137: a1 = a1 << 0x20\n  6140: a1 = a1 >> 0x20\n  6143: a2 = 0x800000000\n  6153: t0 = a1 | a2\n  6156: a1 = s1 + 0x2e40\n  6160: a1 = a1 << 0x20\n  6163: a1 = a1 >> 0x20\n  6166: a2 = s1 + 0x2e80\n  6170: a2 = a2 << 0x20\n  6173: a3 = a2 | a1\n  6176: a1 = u64 [s1 + 0xe8]\n  6180: a1 = a1 << 0x20\n  6183: a1 = a1 >> 0x20\n  6186: a2 = 0x2400000000\n  6196: a4 = a1 | a2\n  6199: a0 = a0 << 0x20\n  6202: a0 = a0 >> 0x20\n  6205: a1 = s1 + 0x2e60\n  6209: a1 = a1 << 0x20\n  6212: a5 = a1 | a0\n  6215: a1 = 0xffffffffffffffff\n  6218: a2 = 0xffffffffffffffff\n  6221: a0 = t0\n  6223: ecalli 0 // 'call'\n  6224: fallthrough\n      : @228 (gas: 1)\n  6225: jump @230 if a0 == 0\n      : @229 (gas: 1)\n  6228: jump @790\n      : @230 (gas: 2)\n  6231: ecalli 13 // 'return_data_size'\n  6233: fallthrough\n      : @231 (gas: 2)\n  6234: a5 = 0x20\n  6237: jump @233 if a0 >=u a5\n      : @232 (gas: 3)\n  6240: ecalli 13 // 'return_data_size'\n  6242: a5 = a0\n  6244: fallthrough\n      : @233 (gas: 19)\n  6245: a2 = s1 + 0x1878\n  6249: a3 = u64 [s1 + 0xf8]\n  6253: t0 = u64 [s1 + 0xd0]\n  6257: a0 = u64 [s1 + 0xc8]\n  6261: a1 = u64 [s1 + 0xc0]\n  6265: u64 [s1 + 224] = 0\n  6269: u64 [s1 + 0xe8] = a5\n  6273: a4 = a2 + 0x700\n  6277: u64 [a4 + 0x8] = a5\n  6280: u64 [a4 + 0x28] = a3\n  6283: u64 [a2 + 1808] = 0\n  6287: u64 [a4 + 0x30] = a1\n  6290: u64 [a2 + 1816] = 0\n  6294: u64 [a4 + 0x38] = a0\n  6297: u64 [a2 + 1824] = 0\n  6301: a0 = s1 + 0x1fa0\n  6305: a1 = s1 + 0x1f80\n  6309: u64 [a2 + 0x740] = t0\n  6313: ra = 172, jump @1267\n      : @234 [@dyn 86] (gas: 4)\n  6319: a3 = u64 [s1 + 0xe0]\n  6323: a0 = a3 >u 0\n  6325: a1 = u64 [s1 + 0xe8]\n  6329: t0 = 174, jump @1551\n      : @235 [@dyn 87] (gas: 1)\n  6336: jump @237 if a2 != 0\n      : @236 (gas: 1)\n  6339: jump @927\n      : @237 (gas: 3)\n  6342: a0 = s1 + 0x1f60\n  6346: a1 = u64 [s1 + 0xf8]\n  6350: ra = 176, jump @7\n      : @238 [@dyn 88] (gas: 14)\n  6356: a0 = s1 + 0x1878\n  6360: a1 = u64 [a0 + 0x700]\n  6364: a5 = a0 + 0x600\n  6368: a2 = u64 [a5 + 0xf8]\n  6372: a3 = u64 [a5 + 0xf0]\n  6376: a4 = u64 [a5 + 0xe8]\n  6380: u64 [s1 + 0xf8] = a1\n  6384: u64 [s1 + 0xe0] = a3\n  6388: a0 = a3 | a1\n  6391: u64 [s1 + 0xe8] = a2\n  6395: u64 [s1 + 0xd8] = a4\n  6399: a1 = a4 | a2\n  6402: a0 = a0 | a1\n  6405: jump @242 if a0 == 0\n      : @239 (gas: 6)\n  6408: a0 = u64 [s1 + 0xb8]\n  6412: ra = 0xb2\n  6416: ecalli 4 // 'caller'\n  6418: a2 = u64 [s1 + 0xf0]\n  6422: t0 = 0xb4\n  6426: jump @1542\n      : @240 [@dyn 89] (gas: 2)\n  6430: a2 = u64 [s1 + 0xf0]\n  6434: t0 = 180, jump @1542\n      : @241 [@dyn 90] (gas: 16)\n  6441: a4 = u64 [s1 + 0xf8]\n  6445: a5 = a2 + 0x600\n  6449: u64 [a5 + 0xc0] = a4\n  6453: a4 = u64 [s1 + 0xe8]\n  6457: u64 [a5 + 0xb8] = a4\n  6461: a4 = u64 [s1 + 0xe0]\n  6465: u64 [a5 + 0xb0] = a4\n  6469: a4 = u64 [s1 + 0xd8]\n  6473: u64 [a5 + 0xa8] = a4\n  6477: u64 [a2 + 1760] = 0\n  6481: u64 [a5 + 0xd8] = a1\n  6485: u64 [a5 + 0xd0] = a0\n  6489: a0 = s1 + 0x1f40\n  6493: a1 = s1 + 0x1f20\n  6497: u64 [a5 + 0xc8] = a3\n  6501: ra = 182, jump @1356\n      : @242 [@dyn 91] (gas: 3)\n  6507: a0 = s1 + 0x1f00\n  6511: a1 = 0x40\n  6514: ra = 184, jump @7\n      : @243 [@dyn 92] (gas: 7)\n  6520: a3 = s1 + 0x1878\n  6524: a5 = a3 + 0x600\n  6528: a0 = u64 [a5 + 0xa0]\n  6532: a1 = u64 [a5 + 0x98]\n  6536: a2 = u64 [a5 + 0x90]\n  6540: a4 = u64 [a5 + 0x88]\n  6544: t0 = 186, jump @1563\n      : @244 [@dyn 93] (gas: 1)\n  6551: jump @246 if a0 == 0\n      : @245 (gas: 1)\n  6554: jump @843\n      : @246 (gas: 14)\n  6557: a0 = u64 [s1 + 0xd8]\n  6561: a2 = a3 + 0x600\n  6565: u64 [a2 + 0x68] = a0\n  6568: a0 = u64 [s1 + 0xe0]\n  6572: u64 [a2 + 0x70] = a0\n  6575: a0 = u64 [s1 + 0xe8]\n  6579: u64 [a2 + 0x78] = a0\n  6582: a1 = s1 + 0x1ee0\n  6586: a0 = u64 [s1 + 0xf8]\n  6590: u64 [a2 + 0x80] = a0\n  6594: a0 = a4\n  6596: u64 [s1 + 0xf8] = a4\n  6600: ra = 0x18e\n  6604: jump @9\n      : @247 (gas: 3)\n  6607: a0 = u64 [s1 + 0xf8]\n  6611: a0 = i32 [a0]\n  6613: jump @249 if a0 >u 3\n      : @248 (gas: 1)\n  6617: jump @866\n      : @249 (gas: 11)\n  6620: a0 = s1 + 0x2878\n  6624: u64 [a0 + 896] = 0\n  6628: u64 [a0 + 888] = 0\n  6632: u64 [a0 + 880] = 0\n  6636: u64 [a0 + 872] = 0\n  6640: a0 = s1 + 0x3000\n  6644: i32 a0 = a0 + 0xfffffffffffffbe0\n  6648: ra = 0xbc\n  6652: ecalli 17 // 'value_transferred'\n  6654: t0 = 0xbe\n  6658: jump @1580\n      : @250 [@dyn 94] (gas: 1)\n  6662: t0 = 190, jump @1580\n      : @251 [@dyn 95] (gas: 1)\n  6669: t0 = 192, jump @1584\n      : @252 [@dyn 96] (gas: 1)\n  6676: jump @254 if a0 != 0\n      : @253 (gas: 1)\n  6679: jump @867\n      : @254 (gas: 9)\n  6682: a0 = 0x30160\n  6687: u64 [s1 + 0xf0] = a0\n  6691: i32 a0 = a0 + 0\n  6693: u64 [s1 + 0xc8] = a0\n  6697: ra = 0xc2\n  6701: ecalli 4 // 'caller'\n  6703: a2 = u64 [s1 + 0xf0]\n  6707: t0 = 0xc4\n  6711: jump @1542\n      : @255 [@dyn 97] (gas: 2)\n  6715: a2 = u64 [s1 + 0xf0]\n  6719: t0 = 196, jump @1542\n      : @256 [@dyn 98] (gas: 7)\n  6726: u64 [a2 + 192] = 0\n  6730: u64 [a2 + 0xb8] = a1\n  6734: u64 [a2 + 0xb0] = a0\n  6738: a1 = s1 + 0x1920\n  6742: u64 [a2 + 0xa8] = a3\n  6746: a0 = 0\n  6748: ra = 198, jump @9\n      : @257 [@dyn 99] (gas: 3)\n  6754: t0 = 0xc8\n  6758: a1 = s1 + 0x1878\n  6762: fallthrough\n      : @258 [@dyn 100] (gas: 8)\n  6763: u64 [a1 + 160] = 0\n  6767: u64 [a1 + 152] = 0\n  6771: u64 [a1 + 136] = 0x2\n  6776: a2 = a1\n  6778: a0 = 0x20\n  6781: a1 = s1 + 0x1900\n  6785: u64 [a2 + 144] = 0\n  6789: ra = 202, jump @9\n      : @259 [@dyn 101] (gas: 6)\n  6795: a0 = sp + 0xffffffffffffffe0\n  6798: a0 = a0 & 0xffffffffffffffe0\n  6801: u64 [s1 + 0xf8] = a0\n  6805: sp = a0\n  6807: a1 = i32 [0x20150]\n  6812: jump @261 if a1 >u 63\n      : @260 (gas: 2)\n  6816: u32 [0x20150] = 0x40\n  6822: fallthrough\n      : @261 (gas: 45)\n  6823: a0 = sp + 0xffffffffffffffe0\n  6826: a2 = a0 & 0xffffffffffffffe0\n  6829: u64 [s1 + 0xe8] = a2\n  6833: sp = a2\n  6835: a0 = 0x20160\n  6840: i32 a0 = a0 + 0\n  6842: i32 a2 = a2 + 0\n  6844: a1 = 0x40\n  6847: u64 [s1 + 0xc0] = a0\n  6851: ecalli 9 // 'hash_keccak_256'\n  6853: a3 = u64 [s1 + 0xe8]\n  6857: a0 = u64 [a3 + 0x18]\n  6860: a1 = u64 [a3 + 0x10]\n  6863: a2 = u64 [a3 + 0x8]\n  6866: a3 = u64 [a3]\n  6868: a0 = reverse a0\n  6870: a1 = reverse a1\n  6872: a2 = reverse a2\n  6874: a3 = reverse a3\n  6876: a4 = u64 [s1 + 0xf8]\n  6880: u64 [a4 + 0x18] = a3\n  6883: u64 [a4 + 0x10] = a2\n  6886: u64 [a4 + 0x8] = a1\n  6889: u64 [a4] = a0\n  6891: a0 = s1 + 0x2878\n  6895: u64 [a0 + 928] = 0\n  6899: u64 [a0 + 920] = 0\n  6903: u64 [a0 + 912] = 0\n  6907: u64 [a0 + 904] = 0\n  6911: a0 = s1 + 0x3000\n  6915: i32 a0 = a0 + 0xfffffffffffffc00\n  6919: ecalli 17 // 'value_transferred'\n  6921: a0 = s1 + 0x2878\n  6925: a2 = a0 + 0x300\n  6929: a1 = u64 [a2 + 0x88]\n  6933: u64 [s1 + 0xe8] = a1\n  6937: a1 = u64 [a2 + 0x90]\n  6941: u64 [s1 + 0xe0] = a1\n  6945: a1 = u64 [a2 + 0x98]\n  6949: u64 [s1 + 0xd8] = a1\n  6953: a0 = u64 [a2 + 0xa0]\n  6957: u64 [s1 + 0xd0] = a0\n  6961: a0 = s1 + 0x18e0\n  6965: a1 = u64 [s1 + 0xf8]\n  6969: ra = 204, jump @11\n      : @262 [@dyn 102] (gas: 21)\n  6975: a4 = s1 + 0x1878\n  6979: a3 = u64 [a4 + 0x68]\n  6982: a0 = u64 [a4 + 0x70]\n  6985: a1 = u64 [a4 + 0x78]\n  6988: a2 = u64 [a4 + 0x80]\n  6992: a5 = u64 [s1 + 0xd0]\n  6996: u64 [a4 + 0x20] = a5\n  6999: a5 = u64 [s1 + 0xd8]\n  7003: u64 [a4 + 0x18] = a5\n  7006: a5 = u64 [s1 + 0xe0]\n  7010: u64 [a4 + 0x10] = a5\n  7013: a5 = u64 [s1 + 0xe8]\n  7017: u64 [a4 + 0x8] = a5\n  7020: u64 [a4 + 0x40] = a2\n  7023: u64 [a4 + 0x38] = a1\n  7026: u64 [a4 + 0x30] = a0\n  7029: a0 = s1 + 0x18c0\n  7033: a1 = s1 + 0x18a0\n  7037: a2 = s1 + 0x1880\n  7041: u64 [a4 + 0x28] = a3\n  7044: ra = 206, jump @1348\n      : @263 [@dyn 103] (gas: 14)\n  7050: a3 = s1 + 0x1878\n  7054: a0 = u64 [a3 + 0x60]\n  7057: a1 = u64 [a3 + 0x58]\n  7060: a2 = u64 [a3 + 0x50]\n  7063: a3 = u64 [a3 + 0x48]\n  7066: a4 = s1 + 0x2878\n  7070: a5 = a4 + 0x300\n  7074: u64 [a5 + 0xc0] = a0\n  7078: u64 [a5 + 0xb8] = a1\n  7082: u64 [a5 + 0xb0] = a2\n  7086: u64 [a5 + 0xa8] = a3\n  7090: a1 = s1 + 0x2c20\n  7094: a0 = u64 [s1 + 0xf8]\n  7098: ra = 208, jump @12\n      : @264 [@dyn 104] (gas: 3)\n  7104: a0 = s1 + 0x1860\n  7108: a1 = 0x40\n  7111: ra = 210, jump @7\n      : @265 [@dyn 105] (gas: 20)\n  7117: a0 = s1 + 0x1878\n  7121: a1 = u64 [a0]\n  7123: u64 [s1 + 0xe8] = a1\n  7127: a2 = a0 + 0xffffffffffffff00\n  7131: a1 = u64 [a2 + 0xf8]\n  7135: u64 [s1 + 0xe0] = a1\n  7139: a1 = u64 [a2 + 0xf0]\n  7143: u64 [s1 + 0xd8] = a1\n  7147: a0 = u64 [a2 + 0xe8]\n  7151: u64 [s1 + 0xf8] = a0\n  7155: a0 = s1 + 0x2878\n  7159: u64 [a0 + 992] = 0\n  7163: u64 [a0 + 984] = 0\n  7167: u64 [a0 + 976] = 0\n  7171: u64 [a0 + 968] = 0\n  7175: a0 = s1 + 0x3000\n  7179: i32 a0 = a0 + 0xfffffffffffffc40\n  7183: ra = 0xd4\n  7187: ecalli 17 // 'value_transferred'\n  7189: fallthrough\n      : @266 [@dyn 106] (gas: 13)\n  7190: a0 = u64 [s1 + 0xe8]\n  7194: a1 = u64 [s1 + 0xd8]\n  7198: a0 = a0 | a1\n  7201: a1 = u64 [s1 + 0xf8]\n  7205: a5 = a1\n  7207: a2 = u64 [s1 + 0xe0]\n  7211: a1 = a1 | a2\n  7214: a1 = a1 | a0\n  7217: a1 = a1 >> 0x20\n  7220: a0 = a0 | a2\n  7223: a0 = a0 << 0x20\n  7226: a0 = a0 | a1\n  7229: jump @268 if a0 == 0\n      : @267 (gas: 1)\n  7232: jump @843\n      : @268 (gas: 1)\n  7235: t0 = 214, jump @1580\n      : @269 [@dyn 107] (gas: 13)\n  7242: a0 = u64 [a4 + 0xc8]\n  7246: a1 = u64 [a4 + 0xd0]\n  7250: a2 = u64 [a4 + 0xd8]\n  7254: a3 = u64 [a4 + 0xe0]\n  7258: a4 = s1 + 0x1078\n  7262: u64 [a4 + 0x7e0] = a3\n  7266: a3 = a4 + 0x700\n  7270: u64 [a3 + 0xd8] = a2\n  7274: u64 [a3 + 0xd0] = a1\n  7278: a1 = s1 + 0x1840\n  7282: u64 [a3 + 0xc8] = a0\n  7286: a0 = a5\n  7288: ra = 216, jump @9\n      : @270 [@dyn 108] (gas: 6)\n  7294: a0 = u64 [s1 + 0xc8]\n  7298: ra = 0xda\n  7302: ecalli 4 // 'caller'\n  7304: a2 = u64 [s1 + 0xf0]\n  7308: t0 = 0xdc\n  7312: jump @1552\n      : @271 [@dyn 109] (gas: 2)\n  7316: a2 = u64 [s1 + 0xf0]\n  7320: t0 = 220, jump @1552\n      : @272 [@dyn 110] (gas: 50)\n  7327: t0 = a1 | a0\n  7330: a3 = a3 >> 0x20\n  7333: a2 = reverse a2\n  7335: a1 = a2 << 0x20\n  7338: a1 = a1 | a3\n  7341: a2 = a2 >> 0x20\n  7344: a3 = u64 [0x20040]\n  7349: a0 = s1 + 0x1078\n  7353: u64 [a0 + 0x7c0] = a3\n  7357: a3 = u64 [0x20048]\n  7362: a4 = u64 [0x20050]\n  7367: a5 = u64 [0x20058]\n  7372: u64 [a0 + 0x7b8] = a3\n  7376: a3 = a0 + 0x700\n  7380: u64 [a3 + 0xb0] = a4\n  7384: u64 [a0 + 1952] = 0\n  7388: u64 [a3 + 0xa8] = a5\n  7392: u64 [a3 + 0x98] = a2\n  7396: u64 [a3 + 0x90] = a1\n  7400: a1 = 0x20\n  7403: a2 = s1 + 0x1820\n  7407: a3 = s1 + 0x1800\n  7411: u64 [a0 + 0x788] = t0\n  7415: a0 = u64 [s1 + 0xf8]\n  7419: ra = 0xde\n  7423: sp = sp + 0xffffffffffffff60\n  7427: u64 [sp + 0x98] = ra\n  7431: u64 [sp + 0x90] = s0\n  7435: u64 [sp + 0x88] = s1\n  7439: s0 = sp + 0xa0\n  7443: sp = sp & 0xffffffffffffffe0\n  7446: a4 = u64 [a3]\n  7448: u64 [sp + 0x38] = a4\n  7451: a4 = u64 [a3 + 0x8]\n  7454: u64 [sp + 0x30] = a4\n  7457: a4 = u64 [a3 + 0x10]\n  7460: u64 [sp + 0x28] = a4\n  7463: a3 = u64 [a3 + 0x18]\n  7466: u64 [sp + 0x20] = a3\n  7469: a3 = u64 [a2]\n  7471: u64 [sp + 0x18] = a3\n  7474: a3 = u64 [a2 + 0x8]\n  7477: u64 [sp + 0x10] = a3\n  7480: a3 = u64 [a2 + 0x10]\n  7483: u64 [sp + 0x8] = a3\n  7486: a2 = u64 [a2 + 0x18]\n  7489: u64 [sp] = a2\n  7491: s1 = a1\n  7493: ra = 0x6\n  7496: jump @20\n      : @273 [@dyn 111] (gas: 3)\n  7499: a0 = 0\n  7501: a1 = u64 [s1 + 0xc0]\n  7505: jump @1205\n      : @274 (gas: 9)\n  7508: a0 = s1 + 0x2878\n  7512: u64 [a0 + 0] = 0\n  7514: u64 [a0 + 4294967288] = 0\n  7517: u64 [a0 + 4294967280] = 0\n  7520: u64 [a0 + 4294967272] = 0\n  7523: a0 = s1 + 0x3000\n  7527: i32 a0 = a0 + 0xfffffffffffff860\n  7531: ecalli 17 // 'value_transferred'\n  7533: fallthrough\n      : @275 (gas: 10)\n  7534: a3 = s1 + 0x2878\n  7538: a4 = a3 + 0xffffffffffffff00\n  7542: a0 = u64 [a4 + 0xf8]\n  7546: a1 = u64 [a3]\n  7548: a2 = u64 [a4 + 0xf0]\n  7552: a3 = u64 [a4 + 0xe8]\n  7556: a1 = a1 | a2\n  7559: a0 = a0 | a3\n  7562: a0 = a0 | a1\n  7565: jump @277 if a0 == 0\n      : @276 (gas: 1)\n  7568: jump @872\n      : @277 (gas: 3)\n  7571: a0 = u64 [s1 + 0xf8]\n  7575: a0 = i32 [a0]\n  7577: jump @279 if a0 >u 3\n      : @278 (gas: 1)\n  7581: jump @873\n      : @279 (gas: 4)\n  7584: a0 = s1 + 0x7ff\n  7588: a0 = a0 + 0x2a1\n  7592: a1 = 0x40\n  7595: ra = 224, jump @7\n      : @280 [@dyn 112] (gas: 8)\n  7601: a3 = s1 + 0x7ff\n  7605: a3 = a3 + 0x79\n  7608: a5 = a3 + 0x200\n  7612: a4 = u64 [a5 + 0x40]\n  7615: a1 = u64 [a5 + 0x38]\n  7618: a2 = u64 [a5 + 0x30]\n  7621: a0 = u64 [a5 + 0x28]\n  7624: t0 = 226, jump @1569\n      : @281 [@dyn 113] (gas: 1)\n  7631: jump @283 if a1 == 0\n      : @282 (gas: 1)\n  7634: jump @843\n      : @283 (gas: 10)\n  7637: a1 = u64 [0x200a0]\n  7642: u64 [a3 + 544] = 0\n  7646: u64 [a3 + 536] = 0\n  7650: u64 [a3 + 0x208] = a1\n  7654: a1 = s1 + 0x7ff\n  7658: a1 = a1 + 0x281\n  7662: u64 [a3 + 528] = 0\n  7666: u64 [s1 + 0xf8] = a0\n  7670: ra = 0x18e\n  7674: jump @9\n      : @284 (gas: 11)\n  7677: a0 = s1 + 0x2878\n  7681: u64 [a0 + 416] = 0\n  7685: u64 [a0 + 408] = 0\n  7689: u64 [a0 + 400] = 0\n  7693: u64 [a0 + 392] = 0\n  7697: a0 = s1 + 0x3000\n  7701: i32 a0 = a0 + 0xfffffffffffffa00\n  7705: ra = 0xe4\n  7709: ecalli 17 // 'value_transferred'\n  7711: t0 = 0xe6\n  7715: jump @1579\n      : @285 [@dyn 114] (gas: 1)\n  7719: t0 = 230, jump @1579\n      : @286 [@dyn 115] (gas: 8)\n  7726: a0 = u64 [a4 + 0x98]\n  7730: a1 = u64 [a4 + 0xa0]\n  7734: a2 = u64 [a4 + 0x90]\n  7738: a3 = u64 [a4 + 0x88]\n  7742: a1 = a1 | a2\n  7745: a0 = a0 | a3\n  7748: a0 = a0 | a1\n  7751: jump @288 if a0 == 0\n      : @287 (gas: 1)\n  7754: jump @874\n      : @288 (gas: 3)\n  7757: a0 = u64 [s1 + 0xf8]\n  7761: a0 = i32 [a0]\n  7763: jump @290 if a0 >u 3\n      : @289 (gas: 1)\n  7767: jump @875\n      : @290 (gas: 9)\n  7770: a1 = s1 + 0x2878\n  7774: u64 [a1 + 448] = 0\n  7778: u64 [a1 + 440] = 0\n  7782: u64 [a1 + 432] = 0\n  7786: u64 [a1 + 424] = 0x1\n  7791: a0 = s1 + 0x7ff\n  7795: a0 = a0 + 0x6c1\n  7799: a1 = s1 + 0x2a20\n  7803: ra = 232, jump @11\n      : @291 [@dyn 116] (gas: 13)\n  7809: a1 = s1 + 0x7ff\n  7813: a1 = a1 + 0x79\n  7816: a2 = a1 + 0x600\n  7820: a0 = u64 [a2 + 0x58]\n  7823: u64 [s1 + 0xe8] = a0\n  7827: a0 = u64 [a2 + 0x50]\n  7830: u64 [s1 + 0xf8] = a0\n  7834: a0 = u64 [a2 + 0x48]\n  7837: u64 [s1 + 0xf0] = a0\n  7841: a0 = s1 + 0x7ff\n  7845: a0 = a0 + 0x6a1\n  7849: a1 = 0x40\n  7852: ra = 234, jump @7\n      : @292 [@dyn 117] (gas: 8)\n  7858: a3 = s1 + 0x7ff\n  7862: a3 = a3 + 0x79\n  7865: a5 = a3 + 0x600\n  7869: a4 = u64 [a5 + 0x40]\n  7872: a1 = u64 [a5 + 0x38]\n  7875: a2 = u64 [a5 + 0x30]\n  7878: a0 = u64 [a5 + 0x28]\n  7881: t0 = 236, jump @1569\n      : @293 [@dyn 118] (gas: 1)\n  7888: jump @295 if a1 == 0\n      : @294 (gas: 1)\n  7891: jump @843\n      : @295 (gas: 15)\n  7894: a1 = u64 [s1 + 0xe8]\n  7898: a1 = a1 << 0x20\n  7901: a2 = a1 >> 0x20\n  7904: u64 [a3 + 1568] = 0\n  7908: a1 = u64 [s1 + 0xf0]\n  7912: a4 = a3 + 0x600\n  7916: u64 [a4 + 0x8] = a1\n  7919: a1 = u64 [s1 + 0xf8]\n  7923: u64 [a4 + 0x10] = a1\n  7926: a1 = s1 + 0x7ff\n  7930: a1 = a1 + 0x681\n  7934: u64 [a4 + 0x18] = a2\n  7937: u64 [s1 + 0xf8] = a0\n  7941: ra = 0x18e\n  7945: jump @9\n      : @296 (gas: 10)\n  7948: u64 [a2 + 1504] = 0\n  7952: u64 [a2 + 1496] = 0\n  7956: u64 [a2 + 1488] = 0\n  7960: u64 [a2 + 1480] = 0\n  7964: a0 = s1 + 0x2000\n  7968: i32 a0 = a0 + 0x640\n  7972: ra = 0xee\n  7976: ecalli 17 // 'value_transferred'\n  7978: t0 = 0xf0\n  7982: jump @1594\n      : @297 [@dyn 119] (gas: 1)\n  7986: t0 = 240, jump @1594\n      : @298 [@dyn 120] (gas: 8)\n  7993: a0 = u64 [a4 + 0xd8]\n  7997: a1 = u64 [a4 + 0xe0]\n  8001: a2 = u64 [a4 + 0xd0]\n  8005: a3 = u64 [a4 + 0xc8]\n  8009: a1 = a1 | a2\n  8012: a0 = a0 | a3\n  8015: a0 = a0 | a1\n  8018: jump @300 if a0 == 0\n      : @299 (gas: 1)\n  8021: jump @876\n      : @300 (gas: 3)\n  8024: a0 = u64 [s1 + 0xf8]\n  8028: a0 = i32 [a0]\n  8030: jump @302 if a0 >u 3\n      : @301 (gas: 1)\n  8034: jump @877\n      : @302 (gas: 16)\n  8037: a0 = s1 + 0x2000\n  8041: i32 a0 = a0 + 0x660\n  8045: ecalli 10 // 'now'\n  8047: a0 = s1 + 0x2078\n  8051: a1 = u64 [a0 + 0x600]\n  8055: u64 [s1 + 0xb8] = a1\n  8059: a2 = a0 + 0x500\n  8063: a1 = u64 [a2 + 0xf8]\n  8067: u64 [s1 + 0xb0] = a1\n  8071: a1 = u64 [a2 + 0xf0]\n  8075: u64 [s1 + 0xf8] = a1\n  8079: a0 = u64 [a2 + 0xe8]\n  8083: u64 [s1 + 0xf0] = a0\n  8087: a0 = s1 + 0x340\n  8091: a1 = 0x40\n  8094: ra = 242, jump @7\n      : @303 [@dyn 121] (gas: 6)\n  8100: a4 = s1 + 0x300\n  8104: a0 = u64 [a4 + 0x58]\n  8107: a1 = u64 [a4 + 0x50]\n  8110: a2 = u64 [a4 + 0x48]\n  8113: a3 = u64 [a4 + 0x40]\n  8116: t0 = 244, jump @1553\n      : @304 [@dyn 122] (gas: 1)\n  8122: jump @306 if a0 == 0\n      : @305 (gas: 1)\n  8125: jump @843\n      : @306 (gas: 46)\n  8128: u64 [s1 + 0x78] = a3\n  8131: t1 = u64 [s1 + 0xb0]\n  8135: a0 = clz t1\n  8137: a0 = a0 + 0x40\n  8140: ra = u64 [s1 + 0xb8]\n  8144: a2 = clz ra\n  8146: a2 = a0 if ra == 0\n  8149: t2 = u64 [s1 + 0xf0]\n  8153: a0 = clz t2\n  8155: a0 = a0 + 0x40\n  8158: t0 = u64 [s1 + 0xf8]\n  8162: a1 = clz t0\n  8164: a1 = a0 if t0 == 0\n  8167: a0 = a1 + 0x80\n  8171: a3 = t1 | ra\n  8174: a2 = a0 if a3 == 0\n  8177: a5 = a0 <u a1\n  8180: a5 = 0 if a3 != 0\n  8182: a4 = a5 >u 0\n  8184: a0 = a2 <u 0xf0\n  8188: a3 = a0 ^ 0x1\n  8191: a4 = a3 if a5 == 0\n  8194: a0 = a4 <u 0x1\n  8197: a0 = a0 + 0xffffffffffffffff\n  8200: a1 = -a4\n  8202: a5 = -a5\n  8204: a3 = a5 - a3\n  8207: a2 = 0xef - a2\n  8211: u64 [s1 + 0xd8] = a1\n  8215: a5 = a1 >u 0\n  8217: a1 = a0 >u 0\n  8219: a1 = a5 if a0 == 0\n  8222: a5 = a3 >u 0\n  8224: u64 [s1 + 0xc8] = a2\n  8228: a2 = a2 <u 0x100\n  8232: a2 = a2 ^ 0x1\n  8235: a2 = a5 if a3 != 0\n  8238: a2 = a1 if a4 != 0\n  8241: a1 = t2 | t1\n  8244: a4 = t0 | ra\n  8247: a1 = a1 | a4\n  8250: a1 = a1 <u 0x1\n  8253: a1 = a1 | a2\n  8256: a4 = t2\n  8258: a4 = 0 if a1 != 0\n  8260: jump @308 if a1 == 0\n      : @307 (gas: 1)\n  8263: jump @930\n      : @308 (gas: 7)\n  8266: a1 = u64 [s1 + 0xc8]\n  8270: a1 = a1 ^ 0xff\n  8274: a2 = u64 [s1 + 0xd8]\n  8278: a1 = a1 | a2\n  8281: a2 = a3 | a0\n  8284: a1 = a1 | a2\n  8287: jump @310 if a1 != 0\n      : @309 (gas: 1)\n  8290: jump @930\n      : @310 (gas: 20)\n  8293: a4 = u64 [s1 + 0xc8]\n  8297: a2 = a4 + 0x1\n  8300: u64 [s1 + 0xe8] = a2\n  8304: a1 = a2 <u 0x1\n  8307: a1 = a1 + a3\n  8310: u64 [s1 + 0xe0] = a1\n  8314: a1 = a1 | a2\n  8317: a1 = a1 <u 0x1\n  8320: a3 = u64 [s1 + 0xd8]\n  8324: a1 = a1 + a3\n  8327: u64 [s1 + 0xd0] = a1\n  8331: a1 = a1 <u a3\n  8334: a0 = a0 + a1\n  8337: u64 [s1 + 0xd8] = a0\n  8341: a1 = 0xff - a4\n  8345: u64 [s1 + 0xa0] = a1\n  8349: a2 = 0x80 - a1\n  8353: a0 = u64 [s1 + 0xf0]\n  8357: a1 = u64 [s1 + 0xf8]\n  8361: ra = 246, jump @1601\n      : @311 [@dyn 123] (gas: 6)\n  8368: u64 [s1 + 0x90] = a0\n  8372: u64 [s1 + 0xa8] = a1\n  8376: a0 = u64 [s1 + 0xb0]\n  8380: a1 = u64 [s1 + 0xb8]\n  8384: a2 = u64 [s1 + 0xa0]\n  8388: ra = 248, jump @1606\n      : @312 [@dyn 124] (gas: 7)\n  8395: u64 [s1 + 0x88] = a0\n  8399: u64 [s1 + 0x80] = a1\n  8403: a0 = u64 [s1 + 0xa0]\n  8407: a2 = a0 + 0xffffffffffffff80\n  8410: a0 = u64 [s1 + 0xf0]\n  8414: a1 = u64 [s1 + 0xf8]\n  8418: ra = 250, jump @1606\n      : @313 [@dyn 125] (gas: 8)\n  8425: u64 [s1 + 0x70] = a0\n  8428: u64 [s1 + 0x68] = a1\n  8431: a2 = u64 [s1 + 0xa0]\n  8435: a0 = a2 <u 0x80\n  8439: u64 [s1 + 0x98] = a0\n  8443: a0 = u64 [s1 + 0xf0]\n  8447: a1 = u64 [s1 + 0xf8]\n  8451: ra = 252, jump @1606\n      : @314 [@dyn 126] (gas: 12)\n  8458: u64 [s1 + 0xc0] = a1\n  8462: a1 = u64 [s1 + 0xe0]\n  8466: a2 = u64 [s1 + 0xd8]\n  8470: a2 = a2 | a1\n  8473: a1 = u64 [s1 + 0xe8]\n  8477: a3 = u64 [s1 + 0xd0]\n  8481: a1 = a1 | a3\n  8484: a1 = a1 | a2\n  8487: a3 = u64 [s1 + 0x98]\n  8491: a0 = 0 if a3 == 0\n  8493: u64 [s1 + 0xc8] = a0\n  8497: jump @316 if a1 != 0\n      : @315 (gas: 1)\n  8500: jump @928\n      : @316 (gas: 30)\n  8503: a2 = a3\n  8505: a0 = u64 [s1 + 0xa8]\n  8509: a1 = u64 [s1 + 0x80]\n  8513: a0 = a0 | a1\n  8516: a5 = a3\n  8518: a1 = u64 [s1 + 0x68]\n  8521: a0 = a1 if a2 == 0\n  8524: a2 = u64 [s1 + 0xb8]\n  8528: a3 = a2\n  8530: a1 = a2\n  8532: a2 = u64 [s1 + 0xa0]\n  8536: a3 = a0 if a2 != 0\n  8539: u64 [s1 + 0xa8] = a3\n  8543: a0 = u64 [s1 + 0x90]\n  8547: a3 = u64 [s1 + 0x88]\n  8551: a0 = a0 | a3\n  8554: a3 = u64 [s1 + 0x70]\n  8557: a0 = a3 if a5 == 0\n  8560: a4 = u64 [s1 + 0xb0]\n  8564: a3 = a4\n  8566: a3 = a0 if a2 != 0\n  8569: u64 [s1 + 0xa0] = a3\n  8573: a0 = u64 [s1 + 0xc0]\n  8577: a0 = 0 if a5 == 0\n  8579: u64 [s1 + 0xc0] = a0\n  8583: u64 [s1 + 144] = 0x15180\n  8590: a0 = u64 [s1 + 0xe8]\n  8594: a2 = a0 + 0xffffffffffffff80\n  8597: a0 = a4\n  8599: ra = 254, jump @1601\n      : @317 [@dyn 127] (gas: 6)\n  8606: u64 [s1 + 0x98] = a0\n  8610: u64 [s1 + 0x80] = a1\n  8614: a0 = u64 [s1 + 0xf0]\n  8618: a1 = u64 [s1 + 0xf8]\n  8622: a2 = u64 [s1 + 0xe8]\n  8626: ra = 256, jump @1601\n      : @318 [@dyn 128] (gas: 7)\n  8633: u64 [s1 + 0x70] = a0\n  8636: u64 [s1 + 0x88] = a1\n  8640: a1 = u64 [s1 + 0xe8]\n  8644: a2 = 0x80 - a1\n  8648: a0 = u64 [s1 + 0xb0]\n  8652: a1 = u64 [s1 + 0xb8]\n  8656: ra = 258, jump @1606\n      : @319 [@dyn 129] (gas: 20)\n  8663: a2 = u64 [s1 + 0x88]\n  8667: a1 = a1 | a2\n  8670: a2 = u64 [s1 + 0xe8]\n  8674: a3 = a2 <u 0x80\n  8678: u64 [s1 + 0x88] = a3\n  8682: a4 = u64 [s1 + 0x80]\n  8686: a1 = a4 if a3 == 0\n  8689: a4 = u64 [s1 + 0xf8]\n  8693: a4 = a1 if a2 != 0\n  8696: u64 [s1 + 0xf8] = a4\n  8700: a1 = u64 [s1 + 0x70]\n  8703: a0 = a0 | a1\n  8706: a1 = u64 [s1 + 0x98]\n  8710: a0 = a1 if a3 == 0\n  8713: a1 = u64 [s1 + 0xf0]\n  8717: a1 = a0 if a2 != 0\n  8720: u64 [s1 + 0xf0] = a1\n  8724: a0 = u64 [s1 + 0xb0]\n  8728: a1 = u64 [s1 + 0xb8]\n  8732: ra = 260, jump @1601\n      : @320 [@dyn 130] (gas: 15)\n  8739: t2 = u64 [s1 + 0xf0]\n  8743: t1 = u64 [s1 + 0xf8]\n  8747: u64 [s1 + 184] = 0\n  8751: u64 [s1 + 176] = 0\n  8755: a2 = u64 [s1 + 0x88]\n  8759: a1 = 0 if a2 == 0\n  8761: a0 = 0 if a2 == 0\n  8763: u64 [s1 + 0x98] = a0\n  8767: a3 = u64 [s1 + 0x90]\n  8771: a2 = a3 + 0xffffffffffffffff\n  8774: u64 [s1 + 0x88] = a2\n  8778: a2 = a3 >u 0\n  8780: a2 = a2 + 0xffffffffffffffff\n  8783: u64 [s1 + 0x80] = a2\n  8787: fallthrough\n      : @321 (gas: 88)\n  8788: a2 = t2 >> 0x3f\n  8791: a3 = t1 << 0x1\n  8794: a2 = a2 | a3\n  8797: a3 = t2 << 0x1\n  8800: t2 = u64 [s1 + 0xa8]\n  8804: a4 = t2 >> 0x3f\n  8807: a3 = a3 | a4\n  8810: u64 [s1 + 0xf8] = a3\n  8814: ra = u64 [s1 + 0x80]\n  8818: a0 = t1\n  8820: t1 = ra ^ a2\n  8823: t0 = ra <u a2\n  8826: a4 = u64 [s1 + 0x88]\n  8830: a5 = a4 <u a3\n  8833: a5 = t0 if t1 != 0\n  8836: a1 = a1 << 0x1\n  8839: a4 = u64 [s1 + 0x98]\n  8843: a3 = a4 >> 0x3f\n  8846: a1 = a1 | a3\n  8849: u64 [s1 + 0xf0] = a1\n  8853: a3 = a0 >> 0x3f\n  8856: a0 = a4 << 0x1\n  8859: a3 = a3 | a0\n  8862: a0 = t2 << 0x1\n  8865: a4 = u64 [s1 + 0xa0]\n  8869: a1 = a4 >> 0x3f\n  8872: t0 = a0 | a1\n  8875: a1 = a4 << 0x1\n  8878: a4 = u64 [s1 + 0xc0]\n  8882: t1 = a4 >> 0x3f\n  8885: t1 = a1 | t1\n  8888: a1 = a4 << 0x1\n  8891: a4 = u64 [s1 + 0xc8]\n  8895: t2 = a4 >> 0x3f\n  8898: a1 = a1 | t2\n  8901: a4 = a4 << 0x1\n  8904: a0 = u64 [s1 + 0xb8]\n  8908: a4 = a4 | a0\n  8911: u64 [s1 + 0xc8] = a4\n  8915: a0 = u64 [s1 + 0xb0]\n  8919: a1 = a1 | a0\n  8922: u64 [s1 + 0xc0] = a1\n  8926: a1 = a0 | t1\n  8929: u64 [s1 + 0xa0] = a1\n  8933: a0 = a0 | t0\n  8936: u64 [s1 + 0xa8] = a0\n  8940: a0 = ra - a3\n  8943: a0 = a0 <u a5\n  8946: a1 = ra <u a3\n  8949: a5 = u64 [s1 + 0xf0]\n  8953: a4 = ra - a5\n  8956: a4 = a4 - a1\n  8959: a4 = a4 - a0\n  8962: ra = a4 >>a 0x3f\n  8965: a0 = u64 [s1 + 0x90]\n  8969: a0 = ra & a0\n  8972: a1 = u64 [s1 + 0xf8]\n  8976: t2 = a1 - a0\n  8979: a1 = a1 <u a0\n  8982: t1 = a2 - a1\n  8985: a1 = 0 if a2 != 0\n  8987: a0 = a3 - a1\n  8990: u64 [s1 + 0x98] = a0\n  8994: a1 = a3 <u a1\n  8997: a1 = a5 - a1\n  9000: a3 = u64 [s1 + 0xe8]\n  9004: a5 = u64 [s1 + 0xe0]\n  9008: a2 = a3 | a5\n  9011: a2 = a2 <u 0x1\n  9014: a4 = u64 [s1 + 0xd0]\n  9018: t0 = a4 <u a2\n  9021: a2 = a4 - a2\n  9024: a4 = a3 <u 0x1\n  9027: a5 = a5 - a4\n  9030: a4 = u64 [s1 + 0xd8]\n  9034: a4 = a4 - t0\n  9037: a3 = a3 + 0xffffffffffffffff\n  9040: u64 [s1 + 0xe0] = a5\n  9044: u64 [s1 + 0xd8] = a4\n  9048: t0 = a5 | a4\n  9051: u64 [s1 + 0xe8] = a3\n  9055: a4 = a3 | a2\n  9058: a3 = a4 | t0\n  9061: a4 = ra & 0x1\n  9064: u64 [s1 + 0xb8] = a4\n  9068: u64 [s1 + 0xd0] = a2\n  9072: u64 [s1 + 176] = 0\n  9076: jump @321 if a3 != 0\n      : @322 (gas: 1)\n  9080: jump @929\n      : @323 (gas: 9)\n  9083: a0 = s1 + 0x2878\n  9087: u64 [a0 + 32] = 0\n  9090: u64 [a0 + 24] = 0\n  9093: u64 [a0 + 16] = 0\n  9096: u64 [a0 + 8] = 0\n  9099: a0 = s1 + 0x3000\n  9103: i32 a0 = a0 + 0xfffffffffffff880\n  9107: ecalli 17 // 'value_transferred'\n  9109: fallthrough\n      : @324 (gas: 9)\n  9110: a3 = s1 + 0x2878\n  9114: a0 = u64 [a3 + 0x18]\n  9117: a1 = u64 [a3 + 0x20]\n  9120: a2 = u64 [a3 + 0x10]\n  9123: a3 = u64 [a3 + 0x8]\n  9126: a1 = a1 | a2\n  9129: a0 = a0 | a3\n  9132: a0 = a0 | a1\n  9135: jump @326 if a0 == 0\n      : @325 (gas: 1)\n  9138: jump @878\n      : @326 (gas: 3)\n  9141: a0 = u64 [s1 + 0xf8]\n  9145: a0 = i32 [a0]\n  9147: jump @328 if a0 >u 3\n      : @327 (gas: 1)\n  9151: jump @879\n      : @328 (gas: 9)\n  9154: a0 = s1 + 0x2878\n  9158: u64 [a0 + 64] = 0\n  9161: u64 [a0 + 56] = 0\n  9164: u64 [a0 + 48] = 0\n  9167: u64 [a0 + 40] = 0\n  9170: a0 = s1 + 0x7ff\n  9174: a0 = a0 + 0x301\n  9178: a1 = s1 + 0x28a0\n  9182: ra = 262, jump @11\n      : @329 [@dyn 131] (gas: 13)\n  9188: a1 = s1 + 0x7ff\n  9192: a1 = a1 + 0x79\n  9195: a2 = a1 + 0x200\n  9199: a0 = u64 [a2 + 0x98]\n  9203: u64 [s1 + 0xe8] = a0\n  9207: a0 = u64 [a2 + 0x90]\n  9211: u64 [s1 + 0xf8] = a0\n  9215: a0 = u64 [a2 + 0x88]\n  9219: u64 [s1 + 0xf0] = a0\n  9223: a0 = s1 + 0x7ff\n  9227: a0 = a0 + 0x2e1\n  9231: a1 = 0x40\n  9234: ra = 264, jump @7\n      : @330 [@dyn 132] (gas: 8)\n  9240: a3 = s1 + 0x7ff\n  9244: a3 = a3 + 0x79\n  9247: a5 = a3 + 0x200\n  9251: a4 = u64 [a5 + 0x80]\n  9255: a1 = u64 [a5 + 0x78]\n  9258: a2 = u64 [a5 + 0x70]\n  9261: a0 = u64 [a5 + 0x68]\n  9264: t0 = 266, jump @1569\n      : @331 [@dyn 133] (gas: 1)\n  9270: jump @333 if a1 == 0\n      : @332 (gas: 1)\n  9273: jump @843\n      : @333 (gas: 15)\n  9276: a1 = u64 [s1 + 0xe8]\n  9280: a1 = a1 << 0x20\n  9283: a2 = a1 >> 0x20\n  9286: u64 [a3 + 608] = 0\n  9290: a1 = u64 [s1 + 0xf0]\n  9294: a4 = a3 + 0x200\n  9298: u64 [a4 + 0x48] = a1\n  9301: a1 = u64 [s1 + 0xf8]\n  9305: u64 [a4 + 0x50] = a1\n  9308: a1 = s1 + 0x7ff\n  9312: a1 = a1 + 0x2c1\n  9316: u64 [a4 + 0x58] = a2\n  9319: u64 [s1 + 0xf8] = a0\n  9323: ra = 0x18e\n  9327: jump @9\n      : @334 (gas: 9)\n  9330: u64 [a2 + 1824] = 0\n  9334: u64 [a2 + 1816] = 0\n  9338: u64 [a2 + 1808] = 0\n  9342: u64 [a2 + 1800] = 0\n  9346: a0 = s1 + 0x2000\n  9350: i32 a0 = a0 + 0x780\n  9354: ra = 0x10c\n  9358: ecalli 17 // 'value_transferred'\n  9360: fallthrough\n      : @335 [@dyn 134] (gas: 3)\n  9361: a3 = s1 + 0x2078\n  9365: a4 = a3 + 0x700\n  9369: t0 = 270, jump @1577\n      : @336 [@dyn 135] (gas: 1)\n  9375: jump @338 if a0 == 0\n      : @337 (gas: 1)\n  9378: jump @880\n      : @338 (gas: 3)\n  9381: a0 = u64 [s1 + 0xf8]\n  9385: a0 = i32 [a0]\n  9387: jump @340 if a0 >u 35\n      : @339 (gas: 1)\n  9391: jump @881\n      : @340 (gas: 5)\n  9394: a0 = s1 + 0x2000\n  9398: i32 a0 = a0 + 0x7a0\n  9402: a1 = 0x4\n  9405: ecalli 2 // 'call_data_load'\n  9407: fallthrough\n      : @341 (gas: 9)\n  9408: a3 = s1 + 0x2078\n  9412: a4 = a3 + 0x700\n  9416: a0 = u64 [a4 + 0x40]\n  9419: a1 = u64 [a4 + 0x38]\n  9422: a2 = u64 [a4 + 0x30]\n  9425: a0 = a0 | a1\n  9428: a1 = a2 <u 0x1\n  9431: a1 = 0 if a0 != 0\n  9433: jump @343 if a1 != 0\n      : @342 (gas: 1)\n  9436: jump @882\n      : @343 (gas: 6)\n  9439: a0 = u64 [a3 + 0x728]\n  9443: u64 [s1 + 0x38] = a0\n  9446: a0 = s1 + 0x2000\n  9450: i32 a0 = a0 + 0x7c0\n  9454: ecalli 10 // 'now'\n  9456: fallthrough\n      : @344 (gas: 49)\n  9457: a0 = s1 + 0x2078\n  9461: t2 = u64 [a0 + 0x760]\n  9465: a3 = u64 [a0 + 0x758]\n  9469: u64 [s1 + 0xb0] = a3\n  9473: t0 = u64 [a0 + 0x750]\n  9477: ra = u64 [a0 + 0x748]\n  9481: a0 = clz t2\n  9483: a1 = clz a3\n  9485: a2 = a1 + 0x40\n  9488: a2 = a0 if t2 != 0\n  9491: a0 = clz t0\n  9493: a1 = clz ra\n  9495: a1 = a1 + 0x40\n  9498: a1 = a0 if t0 != 0\n  9501: a0 = a1 + 0x80\n  9505: a3 = a3 | t2\n  9508: a2 = a0 if a3 == 0\n  9511: a5 = a0 <u a1\n  9514: a5 = 0 if a3 != 0\n  9516: a4 = a5 >u 0\n  9518: a0 = a2 <u 0xf0\n  9522: a3 = a0 ^ 0x1\n  9525: a4 = a3 if a5 == 0\n  9528: a0 = a4 <u 0x1\n  9531: a0 = a0 + 0xffffffffffffffff\n  9534: a1 = -a4\n  9536: a5 = -a5\n  9538: a3 = a5 - a3\n  9541: t1 = 0xef - a2\n  9545: u64 [s1 + 0xf8] = a1\n  9549: a5 = a1 >u 0\n  9551: a1 = a0 >u 0\n  9553: a1 = a5 if a0 == 0\n  9556: a5 = t1 <u 0x100\n  9560: a5 = a5 ^ 0x1\n  9563: a2 = a3 >u 0\n  9565: a5 = a2 if a3 != 0\n  9568: a5 = a1 if a4 != 0\n  9571: u64 [s1 + 0xa0] = t2\n  9575: u64 [s1 + 0xb8] = t0\n  9579: a1 = t0 | t2\n  9582: t2 = u64 [s1 + 0xb0]\n  9586: a2 = ra | t2\n  9589: a1 = a1 | a2\n  9592: a1 = a1 <u 0x1\n  9595: a1 = a1 | a5\n  9598: a4 = ra\n  9600: a4 = 0 if a1 != 0\n  9602: jump @346 if a1 == 0\n      : @345 (gas: 1)\n  9605: jump @627\n      : @346 (gas: 6)\n  9608: a1 = t1 ^ 0xff\n  9612: a5 = u64 [s1 + 0xf8]\n  9616: a1 = a1 | a5\n  9619: a2 = a3 | a0\n  9622: a1 = a1 | a2\n  9625: jump @348 if a1 != 0\n      : @347 (gas: 1)\n  9628: jump @627\n      : @348 (gas: 20)\n  9631: t0 = ra\n  9633: a2 = t1 + 0x1\n  9636: u64 [s1 + 0xf0] = a2\n  9640: a1 = a2 <u 0x1\n  9643: a1 = a1 + a3\n  9646: u64 [s1 + 0xe0] = a1\n  9650: a1 = a1 | a2\n  9653: a1 = a1 <u 0x1\n  9656: a1 = a1 + a5\n  9659: u64 [s1 + 0xd0] = a1\n  9663: a1 = a1 <u a5\n  9666: a0 = a0 + a1\n  9669: u64 [s1 + 0xd8] = a0\n  9673: a1 = 0xff - t1\n  9677: u64 [s1 + 0xc8] = a1\n  9681: a2 = 0x80 - a1\n  9685: a0 = ra\n  9687: u64 [s1 + 0xa8] = t0\n  9691: a1 = u64 [s1 + 0xb8]\n  9695: ra = 272, jump @1601\n      : @349 [@dyn 136] (gas: 6)\n  9701: u64 [s1 + 0xc0] = a0\n  9705: u64 [s1 + 0xf8] = a1\n  9709: a0 = u64 [s1 + 0xb0]\n  9713: a1 = u64 [s1 + 0xa0]\n  9717: a2 = u64 [s1 + 0xc8]\n  9721: ra = 274, jump @1606\n      : @350 [@dyn 137] (gas: 7)\n  9727: u64 [s1 + 0x90] = a0\n  9731: u64 [s1 + 0x88] = a1\n  9735: a0 = u64 [s1 + 0xc8]\n  9739: a2 = a0 + 0xffffffffffffff80\n  9742: a0 = u64 [s1 + 0xa8]\n  9746: a1 = u64 [s1 + 0xb8]\n  9750: ra = 276, jump @1606\n      : @351 [@dyn 138] (gas: 8)\n  9756: u64 [s1 + 0x80] = a0\n  9760: u64 [s1 + 0x78] = a1\n  9763: a2 = u64 [s1 + 0xc8]\n  9767: a0 = a2 <u 0x80\n  9771: u64 [s1 + 0x98] = a0\n  9775: a0 = u64 [s1 + 0xa8]\n  9779: a1 = u64 [s1 + 0xb8]\n  9783: ra = 278, jump @1606\n      : @352 [@dyn 139] (gas: 11)\n  9789: a4 = u64 [s1 + 0x98]\n  9793: t0 = u64 [s1 + 0xd0]\n  9797: a5 = u64 [s1 + 0xd8]\n  9801: a2 = u64 [s1 + 0xe0]\n  9805: a5 = a5 | a2\n  9808: a3 = u64 [s1 + 0xf0]\n  9812: a3 = a3 | t0\n  9815: a3 = a3 | a5\n  9818: a0 = 0 if a4 == 0\n  9820: u64 [s1 + 0xe8] = a0\n  9824: jump @354 if a3 == 0\n      : @353 (gas: 1)\n  9827: jump @618\n      : @354 (gas: 2)\n  9830: a4 = 0\n  9832: jump @626\n      : @355 (gas: 10)\n  9835: u64 [a2 + 1600] = 0\n  9839: u64 [a2 + 1592] = 0\n  9843: u64 [a2 + 1584] = 0\n  9847: u64 [a2 + 1576] = 0\n  9851: a0 = s1 + 0x2000\n  9855: i32 a0 = a0 + 0x6a0\n  9859: ra = 0x118\n  9863: ecalli 17 // 'value_transferred'\n  9865: t0 = 0x11a\n  9869: jump @1578\n      : @356 [@dyn 140] (gas: 1)\n  9872: t0 = 282, jump @1578\n      : @357 [@dyn 141] (gas: 8)\n  9878: a0 = u64 [a4 + 0x38]\n  9881: a1 = u64 [a4 + 0x40]\n  9884: a2 = u64 [a4 + 0x30]\n  9887: a3 = u64 [a4 + 0x28]\n  9890: a1 = a1 | a2\n  9893: a0 = a0 | a3\n  9896: a0 = a0 | a1\n  9899: jump @359 if a0 == 0\n      : @358 (gas: 1)\n  9902: jump @883\n      : @359 (gas: 3)\n  9905: a0 = u64 [s1 + 0xf8]\n  9909: a0 = i32 [a0]\n  9911: jump @361 if a0 >u 3\n      : @360 (gas: 1)\n  9915: jump @884\n      : @361 (gas: 19)\n  9918: a0 = s1 + 0x4c0\n  9922: ra = 0x11c\n  9926: sp = sp + 0xfffffffffffffba0\n  9930: a1 = sp + 0x400\n  9934: u64 [a1 + 0x58] = ra\n  9937: u64 [a1 + 0x50] = s0\n  9940: u64 [a1 + 0x48] = s1\n  9943: s0 = sp + 0x460\n  9947: sp = sp & 0xffffffffffffffe0\n  9950: u64 [sp + 0x58] = a0\n  9953: a0 = sp + 0x300\n  9957: u64 [a0 + 88] = 0\n  9960: u64 [a0 + 80] = 0\n  9963: u64 [a0 + 72] = 0\n  9966: u64 [a0 + 64] = 0\n  9969: a0 = sp + 0x320\n  9973: a1 = sp + 0x340\n  9977: ra = 0x530\n  9981: jump @11\n      : @362 [@dyn 142] (gas: 11)\n  9984: a0 = u64 [s1 + 0x4d8]\n  9988: u64 [s1 + 0xf8] = a0\n  9992: a0 = u64 [s1 + 0x4d0]\n  9996: u64 [s1 + 0xf0] = a0\n 10000: a0 = u64 [s1 + 0x4c8]\n 10004: u64 [s1 + 0xe8] = a0\n 10008: a0 = u64 [s1 + 0x4c0]\n 10012: u64 [s1 + 0xe0] = a0\n 10016: a0 = s1 + 0x4a0\n 10020: a1 = 0x40\n 10023: ra = 286, jump @7\n      : @363 [@dyn 143] (gas: 6)\n 10029: a4 = s1 + 0x400\n 10033: a0 = u64 [a4 + 0xb8]\n 10037: a1 = u64 [a4 + 0xb0]\n 10041: a2 = u64 [a4 + 0xa8]\n 10045: a3 = u64 [a4 + 0xa0]\n 10049: t0 = 288, jump @1553\n      : @364 [@dyn 144] (gas: 1)\n 10055: jump @366 if a0 == 0\n      : @365 (gas: 1)\n 10058: jump @843\n      : @366 (gas: 14)\n 10061: a0 = u64 [s1 + 0xe0]\n 10065: a2 = s1 + 0x400\n 10069: u64 [a2 + 0x80] = a0\n 10073: a0 = u64 [s1 + 0xe8]\n 10077: u64 [a2 + 0x88] = a0\n 10081: a0 = u64 [s1 + 0xf0]\n 10085: u64 [a2 + 0x90] = a0\n 10089: a1 = s1 + 0x480\n 10093: a0 = u64 [s1 + 0xf8]\n 10097: u64 [a2 + 0x98] = a0\n 10101: a0 = a3\n 10103: u64 [s1 + 0xf8] = a3\n 10107: ra = 0x18e\n 10111: jump @9\n      : @367 (gas: 10)\n 10114: u64 [a2 + 1632] = 0\n 10118: u64 [a2 + 1624] = 0\n 10122: u64 [a2 + 1616] = 0\n 10126: u64 [a2 + 1608] = 0\n 10130: a0 = s1 + 0x2000\n 10134: i32 a0 = a0 + 0x6c0\n 10138: ra = 0x122\n 10142: ecalli 17 // 'value_transferred'\n 10144: t0 = 0x124\n 10148: jump @1578\n      : @368 [@dyn 145] (gas: 1)\n 10151: t0 = 292, jump @1578\n      : @369 [@dyn 146] (gas: 1)\n 10157: t0 = 294, jump @1572\n      : @370 [@dyn 147] (gas: 1)\n 10163: jump @372 if a0 == 0\n      : @371 (gas: 1)\n 10166: jump @885\n      : @372 (gas: 3)\n 10169: a0 = u64 [s1 + 0xf8]\n 10173: a0 = i32 [a0]\n 10175: jump @374 if a0 >u 67\n      : @373 (gas: 1)\n 10179: jump @886\n      : @374 (gas: 4)\n 10182: a0 = s1 + 0x5e0\n 10186: ra = 0x128\n 10190: t0 = 0x4fe\n 10194: jump @1590\n      : @375 [@dyn 148] (gas: 10)\n 10197: a0 = u64 [s1 + 0x5e0]\n 10201: u64 [s1 + 0xf0] = a0\n 10205: a0 = u64 [s1 + 0x5e8]\n 10209: u64 [s1 + 0xe8] = a0\n 10213: a0 = u32 [s1 + 0x5f0]\n 10217: u64 [s1 + 0xe0] = a0\n 10221: a0 = s1 + 0x5c0\n 10225: ra = 0x12a\n 10229: t0 = 0x508\n 10233: jump @1595\n      : @376 [@dyn 149] (gas: 12)\n 10236: a0 = u64 [s1 + 0x5c0]\n 10240: u64 [s1 + 0xf8] = a0\n 10244: u64 [s1 + 1464] = 0\n 10248: a0 = u64 [s1 + 0xe0]\n 10252: u64 [s1 + 0x5b0] = a0\n 10256: a0 = u64 [s1 + 0xe8]\n 10260: u64 [s1 + 0x5a8] = a0\n 10264: a1 = s1 + 0x5a0\n 10268: a0 = u64 [s1 + 0xf0]\n 10272: u64 [s1 + 0x5a0] = a0\n 10276: a0 = 0\n 10278: ra = 300, jump @9\n      : @377 [@dyn 150] (gas: 7)\n 10284: u64 [s1 + 1432] = 0\n 10288: u64 [s1 + 1424] = 0\n 10292: u64 [s1 + 1408] = 0x7\n 10297: a0 = 0x20\n 10300: a1 = s1 + 0x580\n 10304: u64 [s1 + 1416] = 0\n 10308: ra = 302, jump @9\n      : @378 [@dyn 151] (gas: 3)\n 10314: a1 = 0x20150\n 10319: a0 = i32 [0x20150]\n 10324: jump @380 if a0 >u 63\n      : @379 (gas: 2)\n 10328: u32 [0x20150] = 0x40\n 10334: fallthrough\n      : @380 (gas: 14)\n 10335: a0 = sp + 0xffffffffffffffe0\n 10338: a2 = a0 & 0xffffffffffffffe0\n 10341: u64 [s1 + 0xe0] = a2\n 10345: sp = a2\n 10347: a0 = 0x20160\n 10352: i32 a0 = a0 + 0\n 10354: i32 a2 = a2 + 0\n 10356: u64 [s1 + 0xf0] = a1\n 10360: a1 = 0x40\n 10363: u64 [s1 + 0xe8] = a0\n 10367: ra = 0x130\n 10371: ecalli 9 // 'hash_keccak_256'\n 10373: t0 = 0x132\n 10377: jump @1541\n      : @381 [@dyn 152] (gas: 1)\n 10380: t0 = 306, jump @1541\n      : @382 [@dyn 153] (gas: 8)\n 10386: u64 [s1 + 1400] = 0\n 10390: u64 [s1 + 1392] = 0\n 10394: u64 [s1 + 1384] = 0\n 10398: a1 = s1 + 0x560\n 10402: a0 = u64 [s1 + 0xf8]\n 10406: u64 [s1 + 0x560] = a0\n 10410: a0 = 0\n 10412: ra = 308, jump @9\n      : @383 [@dyn 154] (gas: 12)\n 10418: a0 = u64 [s1 + 0xc0]\n 10422: a3 = s1 + 0x500\n 10426: u64 [a3 + 0x58] = a0\n 10429: a0 = u64 [s1 + 0xc8]\n 10433: u64 [a3 + 0x50] = a0\n 10436: a0 = u64 [s1 + 0xd0]\n 10440: u64 [a3 + 0x48] = a0\n 10443: a0 = 0x20\n 10446: a1 = s1 + 0x540\n 10450: a2 = u64 [s1 + 0xd8]\n 10454: u64 [a3 + 0x40] = a2\n 10457: ra = 310, jump @9\n      : @384 [@dyn 155] (gas: 3)\n 10463: a1 = u64 [s1 + 0xf0]\n 10467: a0 = i32 [a1]\n 10469: jump @386 if a0 >u 63\n      : @385 (gas: 2)\n 10473: u32 [a1 + 0] = 0x40\n 10476: fallthrough\n      : @386 (gas: 4)\n 10477: a0 = sp + 0xffffffffffffffe0\n 10480: a0 = a0 & 0xffffffffffffffe0\n 10483: u64 [s1 + 0xf8] = a0\n 10487: t0 = 312, jump @1558\n      : @387 [@dyn 156] (gas: 4)\n 10493: ra = 0x13a\n 10497: ecalli 9 // 'hash_keccak_256'\n 10499: t0 = 0x13c\n 10503: jump @1548\n      : @388 [@dyn 157] (gas: 1)\n 10506: t0 = 316, jump @1548\n      : @389 [@dyn 158] (gas: 2)\n 10512: a0 = s1 + 0x520\n 10516: ra = 318, jump @11\n      : @390 [@dyn 159] (gas: 11)\n 10522: a0 = u64 [s1 + 0x538]\n 10526: u64 [s1 + 0xf8] = a0\n 10530: a0 = u64 [s1 + 0x530]\n 10534: u64 [s1 + 0xf0] = a0\n 10538: a0 = u64 [s1 + 0x528]\n 10542: u64 [s1 + 0xe8] = a0\n 10546: a0 = u64 [s1 + 0x520]\n 10550: u64 [s1 + 0xe0] = a0\n 10554: a0 = s1 + 0x500\n 10558: a1 = 0x40\n 10561: ra = 320, jump @7\n      : @391 [@dyn 160] (gas: 6)\n 10567: a4 = s1 + 0x500\n 10571: a0 = u64 [a4 + 0x18]\n 10574: a1 = u64 [a4 + 0x10]\n 10577: a2 = u64 [a4 + 0x8]\n 10580: a3 = u64 [a4]\n 10582: t0 = 322, jump @1553\n      : @392 [@dyn 161] (gas: 1)\n 10588: jump @394 if a0 == 0\n      : @393 (gas: 1)\n 10591: jump @843\n      : @394 (gas: 14)\n 10594: a0 = u64 [s1 + 0xe0]\n 10598: a2 = s1 + 0x400\n 10602: u64 [a2 + 0xe0] = a0\n 10606: a0 = u64 [s1 + 0xe8]\n 10610: u64 [a2 + 0xe8] = a0\n 10614: a0 = u64 [s1 + 0xf0]\n 10618: u64 [a2 + 0xf0] = a0\n 10622: a1 = s1 + 0x4e0\n 10626: a0 = u64 [s1 + 0xf8]\n 10630: u64 [a2 + 0xf8] = a0\n 10634: a0 = a3\n 10636: u64 [s1 + 0xf8] = a3\n 10640: ra = 0x18e\n 10644: jump @9\n      : @395 (gas: 10)\n 10647: u64 [a2 + 1568] = 0\n 10651: u64 [a2 + 1560] = 0\n 10655: u64 [a2 + 1552] = 0\n 10659: u64 [a2 + 1544] = 0\n 10663: a0 = s1 + 0x2000\n 10667: i32 a0 = a0 + 0x680\n 10671: ra = 0x144\n 10675: ecalli 17 // 'value_transferred'\n 10677: t0 = 0x146\n 10681: jump @1578\n      : @396 [@dyn 162] (gas: 1)\n 10684: t0 = 326, jump @1578\n      : @397 [@dyn 163] (gas: 1)\n 10690: t0 = 328, jump @1577\n      : @398 [@dyn 164] (gas: 1)\n 10696: jump @400 if a0 == 0\n      : @399 (gas: 1)\n 10699: jump @887\n      : @400 (gas: 3)\n 10702: a0 = u64 [s1 + 0xf8]\n 10706: a0 = i32 [a0]\n 10708: jump @402 if a0 >u 67\n      : @401 (gas: 1)\n 10712: jump @888\n      : @402 (gas: 4)\n 10715: a0 = s1 + 0x460\n 10719: ra = 0x14a\n 10723: t0 = 0x4fe\n 10727: jump @1590\n      : @403 [@dyn 165] (gas: 10)\n 10730: a0 = u64 [s1 + 0x460]\n 10734: u64 [s1 + 0xf0] = a0\n 10738: a0 = u64 [s1 + 0x468]\n 10742: u64 [s1 + 0xe8] = a0\n 10746: a0 = u32 [s1 + 0x470]\n 10750: u64 [s1 + 0xe0] = a0\n 10754: a0 = s1 + 0x440\n 10758: ra = 0x14c\n 10762: t0 = 0x508\n 10766: jump @1595\n      : @404 [@dyn 166] (gas: 12)\n 10769: a0 = u64 [s1 + 0x440]\n 10773: u64 [s1 + 0xf8] = a0\n 10777: u64 [s1 + 1080] = 0\n 10781: a0 = u64 [s1 + 0xe0]\n 10785: u64 [s1 + 0x430] = a0\n 10789: a0 = u64 [s1 + 0xe8]\n 10793: u64 [s1 + 0x428] = a0\n 10797: a1 = s1 + 0x420\n 10801: a0 = u64 [s1 + 0xf0]\n 10805: u64 [s1 + 0x420] = a0\n 10809: a0 = 0\n 10811: ra = 334, jump @9\n      : @405 [@dyn 167] (gas: 7)\n 10817: u64 [s1 + 1048] = 0\n 10821: u64 [s1 + 1040] = 0\n 10825: u64 [s1 + 1024] = 0x5\n 10830: a0 = 0x20\n 10833: a1 = s1 + 0x400\n 10837: u64 [s1 + 1032] = 0\n 10841: ra = 336, jump @9\n      : @406 [@dyn 168] (gas: 3)\n 10847: a1 = 0x20150\n 10852: a0 = i32 [0x20150]\n 10857: jump @408 if a0 >u 63\n      : @407 (gas: 2)\n 10861: u32 [0x20150] = 0x40\n 10867: fallthrough\n      : @408 (gas: 14)\n 10868: a0 = sp + 0xffffffffffffffe0\n 10871: a2 = a0 & 0xffffffffffffffe0\n 10874: u64 [s1 + 0xe0] = a2\n 10878: sp = a2\n 10880: a0 = 0x20160\n 10885: i32 a0 = a0 + 0\n 10887: i32 a2 = a2 + 0\n 10889: u64 [s1 + 0xf0] = a1\n 10893: a1 = 0x40\n 10896: u64 [s1 + 0xe8] = a0\n 10900: ra = 0x152\n 10904: ecalli 9 // 'hash_keccak_256'\n 10906: t0 = 0x154\n 10910: jump @1541\n      : @409 [@dyn 169] (gas: 1)\n 10913: t0 = 340, jump @1541\n      : @410 [@dyn 170] (gas: 8)\n 10919: u64 [s1 + 1016] = 0\n 10923: u64 [s1 + 1008] = 0\n 10927: u64 [s1 + 1000] = 0\n 10931: a1 = s1 + 0x3e0\n 10935: a0 = u64 [s1 + 0xf8]\n 10939: u64 [s1 + 0x3e0] = a0\n 10943: a0 = 0\n 10945: ra = 342, jump @9\n      : @411 [@dyn 171] (gas: 12)\n 10951: a0 = u64 [s1 + 0xc0]\n 10955: a3 = s1 + 0x300\n 10959: u64 [a3 + 0xd8] = a0\n 10963: a0 = u64 [s1 + 0xc8]\n 10967: u64 [a3 + 0xd0] = a0\n 10971: a0 = u64 [s1 + 0xd0]\n 10975: u64 [a3 + 0xc8] = a0\n 10979: a0 = 0x20\n 10982: a1 = s1 + 0x3c0\n 10986: a2 = u64 [s1 + 0xd8]\n 10990: u64 [a3 + 0xc0] = a2\n 10994: ra = 344, jump @9\n      : @412 [@dyn 172] (gas: 3)\n 11000: a1 = u64 [s1 + 0xf0]\n 11004: a0 = i32 [a1]\n 11006: jump @414 if a0 >u 63\n      : @413 (gas: 2)\n 11010: u32 [a1 + 0] = 0x40\n 11013: fallthrough\n      : @414 (gas: 4)\n 11014: a0 = sp + 0xffffffffffffffe0\n 11017: a0 = a0 & 0xffffffffffffffe0\n 11020: u64 [s1 + 0xf8] = a0\n 11024: t0 = 346, jump @1558\n      : @415 [@dyn 173] (gas: 4)\n 11030: ra = 0x15c\n 11034: ecalli 9 // 'hash_keccak_256'\n 11036: t0 = 0x15e\n 11040: jump @1548\n      : @416 [@dyn 174] (gas: 1)\n 11043: t0 = 350, jump @1548\n      : @417 [@dyn 175] (gas: 2)\n 11049: a0 = s1 + 0x3a0\n 11053: ra = 352, jump @11\n      : @418 [@dyn 176] (gas: 11)\n 11059: a0 = u64 [s1 + 0x3b8]\n 11063: u64 [s1 + 0xf8] = a0\n 11067: a0 = u64 [s1 + 0x3b0]\n 11071: u64 [s1 + 0xf0] = a0\n 11075: a0 = u64 [s1 + 0x3a8]\n 11079: u64 [s1 + 0xe8] = a0\n 11083: a0 = u64 [s1 + 0x3a0]\n 11087: u64 [s1 + 0xe0] = a0\n 11091: a0 = s1 + 0x380\n 11095: a1 = 0x40\n 11098: ra = 354, jump @7\n      : @419 [@dyn 177] (gas: 6)\n 11104: a4 = s1 + 0x300\n 11108: a0 = u64 [a4 + 0x98]\n 11112: a1 = u64 [a4 + 0x90]\n 11116: a2 = u64 [a4 + 0x88]\n 11120: a3 = u64 [a4 + 0x80]\n 11124: t0 = 356, jump @1553\n      : @420 [@dyn 178] (gas: 1)\n 11130: jump @422 if a0 == 0\n      : @421 (gas: 1)\n 11133: jump @843\n      : @422 (gas: 14)\n 11136: a0 = u64 [s1 + 0xe0]\n 11140: a2 = s1 + 0x300\n 11144: u64 [a2 + 0x60] = a0\n 11147: a0 = u64 [s1 + 0xe8]\n 11151: u64 [a2 + 0x68] = a0\n 11154: a0 = u64 [s1 + 0xf0]\n 11158: u64 [a2 + 0x70] = a0\n 11161: a1 = s1 + 0x360\n 11165: a0 = u64 [s1 + 0xf8]\n 11169: u64 [a2 + 0x78] = a0\n 11172: a0 = a3\n 11174: u64 [s1 + 0xf8] = a3\n 11178: ra = 0x18e\n 11182: jump @9\n      : @423 (gas: 11)\n 11185: a0 = s1 + 0x2878\n 11189: u64 [a0 + 768] = 0\n 11193: u64 [a0 + 760] = 0\n 11197: u64 [a0 + 752] = 0\n 11201: u64 [a0 + 744] = 0\n 11205: a0 = s1 + 0x3000\n 11209: i32 a0 = a0 + 0xfffffffffffffb60\n 11213: ra = 0x166\n 11217: ecalli 17 // 'value_transferred'\n 11219: t0 = 0x168\n 11223: jump @1596\n      : @424 [@dyn 179] (gas: 1)\n 11226: t0 = 360, jump @1596\n      : @425 [@dyn 180] (gas: 8)\n 11232: a0 = u64 [a4 + 0xf8]\n 11236: a1 = u64 [a3 + 0x300]\n 11240: a2 = u64 [a4 + 0xf0]\n 11244: a3 = u64 [a4 + 0xe8]\n 11248: a1 = a1 | a2\n 11251: a0 = a0 | a3\n 11254: a0 = a0 | a1\n 11257: jump @427 if a0 == 0\n      : @426 (gas: 1)\n 11260: jump @889\n      : @427 (gas: 3)\n 11263: a0 = u64 [s1 + 0xf8]\n 11267: a0 = i32 [a0]\n 11269: jump @429 if a0 >u 67\n      : @428 (gas: 1)\n 11273: jump @890\n      : @429 (gas: 4)\n 11276: a0 = s1 + 0x15e0\n 11280: ra = 0x16a\n 11284: t0 = 0x4fe\n 11288: jump @1590\n      : @430 [@dyn 181] (gas: 11)\n 11291: a1 = s1 + 0x1078\n 11295: a0 = u64 [a1 + 0x568]\n 11299: u64 [s1 + 0xf0] = a0\n 11303: a0 = u64 [a1 + 0x570]\n 11307: u64 [s1 + 0xe8] = a0\n 11311: a0 = u32 [a1 + 0x578]\n 11315: u64 [s1 + 0xe0] = a0\n 11319: a0 = s1 + 0x15c0\n 11323: ra = 0x16c\n 11327: t0 = 0x508\n 11331: jump @1595\n      : @431 [@dyn 182] (gas: 3)\n 11334: t0 = 0x16e\n 11338: a2 = s1 + 0x1078\n 11342: fallthrough\n      : @432 [@dyn 183] (gas: 13)\n 11343: a3 = a2 + 0x500\n 11347: a0 = u64 [a3 + 0x48]\n 11350: u64 [s1 + 0xf8] = a0\n 11354: u64 [a2 + 1344] = 0\n 11358: a0 = u64 [s1 + 0xe0]\n 11362: u64 [a3 + 0x38] = a0\n 11365: a0 = u64 [s1 + 0xe8]\n 11369: u64 [a3 + 0x30] = a0\n 11372: a1 = s1 + 0x15a0\n 11376: a0 = u64 [s1 + 0xf0]\n 11380: u64 [a3 + 0x28] = a0\n 11383: a0 = 0\n 11385: ra = 368, jump @9\n      : @433 [@dyn 184] (gas: 3)\n 11391: t0 = 0x172\n 11395: a1 = s1 + 0x1078\n 11399: fallthrough\n      : @434 [@dyn 185] (gas: 8)\n 11400: u64 [a1 + 1312] = 0\n 11404: u64 [a1 + 1304] = 0\n 11408: u64 [a1 + 1288] = 0x6\n 11413: a2 = a1\n 11415: a0 = 0x20\n 11418: a1 = s1 + 0x1580\n 11422: u64 [a2 + 1296] = 0\n 11426: ra = 372, jump @9\n      : @435 [@dyn 186] (gas: 3)\n 11432: a1 = 0x20150\n 11437: a0 = i32 [0x20150]\n 11442: jump @437 if a0 >u 63\n      : @436 (gas: 2)\n 11446: u32 [0x20150] = 0x40\n 11452: fallthrough\n      : @437 (gas: 14)\n 11453: a0 = sp + 0xffffffffffffffe0\n 11456: a2 = a0 & 0xffffffffffffffe0\n 11459: u64 [s1 + 0xe0] = a2\n 11463: sp = a2\n 11465: a0 = 0x20160\n 11470: i32 a0 = a0 + 0\n 11472: i32 a2 = a2 + 0\n 11474: u64 [s1 + 0xf0] = a1\n 11478: a1 = 0x40\n 11481: u64 [s1 + 0xe8] = a0\n 11485: ra = 0x176\n 11489: ecalli 9 // 'hash_keccak_256'\n 11491: t0 = 0x178\n 11495: jump @1541\n      : @438 [@dyn 187] (gas: 1)\n 11498: t0 = 376, jump @1541\n      : @439 [@dyn 188] (gas: 3)\n 11504: t0 = 0x17a\n 11508: a2 = s1 + 0x1078\n 11512: fallthrough\n      : @440 [@dyn 189] (gas: 8)\n 11513: u64 [a2 + 1280] = 0\n 11517: u64 [a2 + 1272] = 0\n 11521: u64 [a2 + 1264] = 0\n 11525: a1 = s1 + 0x1560\n 11529: a0 = u64 [s1 + 0xf8]\n 11533: u64 [a2 + 0x4e8] = a0\n 11537: a0 = 0\n 11539: ra = 380, jump @9\n      : @441 [@dyn 190] (gas: 14)\n 11545: a0 = u64 [s1 + 0xc0]\n 11549: a1 = s1 + 0x1078\n 11553: a2 = a1 + 0x400\n 11557: u64 [a2 + 0xe0] = a0\n 11561: a0 = u64 [s1 + 0xc8]\n 11565: u64 [a2 + 0xd8] = a0\n 11569: a0 = u64 [s1 + 0xd0]\n 11573: u64 [a2 + 0xd0] = a0\n 11577: a3 = a1\n 11579: a0 = 0x20\n 11582: a1 = s1 + 0x1540\n 11586: a2 = u64 [s1 + 0xd8]\n 11590: u64 [a3 + 0x4c8] = a2\n 11594: ra = 382, jump @9\n      : @442 [@dyn 191] (gas: 3)\n 11600: a1 = u64 [s1 + 0xf0]\n 11604: a0 = i32 [a1]\n 11606: jump @444 if a0 >u 63\n      : @443 (gas: 2)\n 11610: u32 [a1 + 0] = 0x40\n 11613: fallthrough\n      : @444 (gas: 4)\n 11614: a0 = sp + 0xffffffffffffffe0\n 11617: a0 = a0 & 0xffffffffffffffe0\n 11620: u64 [s1 + 0xf8] = a0\n 11624: t0 = 384, jump @1558\n      : @445 [@dyn 192] (gas: 4)\n 11630: ra = 0x182\n 11634: ecalli 9 // 'hash_keccak_256'\n 11636: t0 = 0x184\n 11640: jump @1548\n      : @446 [@dyn 193] (gas: 1)\n 11643: t0 = 388, jump @1548\n      : @447 [@dyn 194] (gas: 2)\n 11649: a0 = s1 + 0x1520\n 11653: ra = 390, jump @11\n      : @448 [@dyn 195] (gas: 3)\n 11659: t0 = 0x188\n 11663: a1 = s1 + 0x1078\n 11667: fallthrough\n      : @449 [@dyn 196] (gas: 12)\n 11668: a2 = a1 + 0x400\n 11672: a0 = u64 [a2 + 0xc0]\n 11676: u64 [s1 + 0xf8] = a0\n 11680: a0 = u64 [a2 + 0xb8]\n 11684: u64 [s1 + 0xf0] = a0\n 11688: a0 = u64 [a2 + 0xb0]\n 11692: u64 [s1 + 0xe8] = a0\n 11696: a0 = u64 [a2 + 0xa8]\n 11700: u64 [s1 + 0xe0] = a0\n 11704: a0 = s1 + 0x1500\n 11708: a1 = 0x40\n 11711: ra = 394, jump @7\n      : @450 [@dyn 197] (gas: 7)\n 11717: a3 = s1 + 0x1078\n 11721: a5 = a3 + 0x400\n 11725: a0 = u64 [a5 + 0xa0]\n 11729: a1 = u64 [a5 + 0x98]\n 11733: a2 = u64 [a5 + 0x90]\n 11737: a4 = u64 [a5 + 0x88]\n 11741: t0 = 396, jump @1563\n      : @451 [@dyn 198] (gas: 1)\n 11747: jump @453 if a0 == 0\n      : @452 (gas: 1)\n 11750: jump @843\n      : @453 (gas: 13)\n 11753: a0 = u64 [s1 + 0xe0]\n 11757: a2 = a3 + 0x400\n 11761: u64 [a2 + 0x68] = a0\n 11764: a0 = u64 [s1 + 0xe8]\n 11768: u64 [a2 + 0x70] = a0\n 11771: a0 = u64 [s1 + 0xf0]\n 11775: u64 [a2 + 0x78] = a0\n 11778: a1 = s1 + 0x14e0\n 11782: a0 = u64 [s1 + 0xf8]\n 11786: u64 [a2 + 0x80] = a0\n 11790: a0 = a4\n 11792: u64 [s1 + 0xf8] = a4\n 11796: ra = 398, jump @9\n      : @454 [@dyn 199] (gas: 3)\n 11802: a1 = 0x20\n 11805: a0 = u64 [s1 + 0xf8]\n 11809: ra = 400, jump @20\n      : @455 [@dyn 200] (gas: 5)\n 11815: i32 a1 = a0 + 0\n 11817: a2 = 0x20\n 11820: a0 = 0\n 11822: ecalli 14 // 'seal_return'\n 11824: jump @457\n      : @456 (gas: 4)\n 11826: a2 = 0x20\n 11829: a0 = 0\n 11831: ecalli 14 // 'seal_return'\n 11833: fallthrough\n      : @457 (gas: 10)\n 11834: u64 [a2 + 1376] = 0\n 11838: u64 [a2 + 1368] = 0\n 11842: u64 [a2 + 1360] = 0\n 11846: u64 [a2 + 1352] = 0\n 11850: a0 = s1 + 0x2000\n 11854: i32 a0 = a0 + 0x5c0\n 11858: ra = 0x192\n 11862: ecalli 17 // 'value_transferred'\n 11864: t0 = 0x194\n 11868: jump @1594\n      : @458 [@dyn 201] (gas: 1)\n 11871: t0 = 404, jump @1594\n      : @459 [@dyn 202] (gas: 1)\n 11877: t0 = 406, jump @1572\n      : @460 [@dyn 203] (gas: 1)\n 11883: jump @462 if a0 == 0\n      : @461 (gas: 1)\n 11886: jump @891\n      : @462 (gas: 3)\n 11889: a0 = u64 [s1 + 0xf8]\n 11893: a0 = i32 [a0]\n 11895: jump @464 if a0 >u 35\n      : @463 (gas: 1)\n 11899: jump @892\n      : @464 (gas: 4)\n 11902: a0 = s1 + 0x300\n 11906: ra = 0x198\n 11910: t0 = 0x4fe\n 11914: jump @1590\n      : @465 [@dyn 204] (gas: 10)\n 11917: a0 = u64 [s1 + 0x300]\n 11921: a1 = u64 [s1 + 0x308]\n 11925: a2 = u32 [s1 + 0x310]\n 11929: u64 [s1 + 760] = 0\n 11933: u64 [s1 + 0x2f0] = a2\n 11937: u64 [s1 + 0x2e8] = a1\n 11941: a1 = s1 + 0x2e0\n 11945: u64 [s1 + 0x2e0] = a0\n 11949: a0 = 0\n 11951: ra = 410, jump @9\n      : @466 [@dyn 205] (gas: 7)\n 11957: u64 [s1 + 728] = 0\n 11961: u64 [s1 + 720] = 0\n 11965: u64 [s1 + 704] = 0x2\n 11970: a0 = 0x20\n 11973: a1 = s1 + 0x2c0\n 11977: u64 [s1 + 712] = 0\n 11981: ra = 412, jump @9\n      : @467 [@dyn 206] (gas: 6)\n 11987: a0 = sp + 0xffffffffffffffe0\n 11990: a0 = a0 & 0xffffffffffffffe0\n 11993: u64 [s1 + 0xd8] = a0\n 11997: sp = a0\n 11999: a1 = i32 [0x20150]\n 12004: jump @469 if a1 >u 63\n      : @468 (gas: 2)\n 12008: u32 [0x20150] = 0x40\n 12014: fallthrough\n      : @469 (gas: 12)\n 12015: a0 = sp + 0xffffffffffffffe0\n 12018: a2 = a0 & 0xffffffffffffffe0\n 12021: u64 [s1 + 0xf8] = a2\n 12025: sp = a2\n 12027: a0 = 0x20160\n 12032: i32 a0 = a0 + 0\n 12034: i32 a2 = a2 + 0\n 12036: a1 = 0x40\n 12039: ra = 0x19e\n 12043: ecalli 9 // 'hash_keccak_256'\n 12045: t0 = 0x1a0\n 12049: jump @1598\n      : @470 [@dyn 207] (gas: 1)\n 12052: t0 = 416, jump @1598\n      : @471 [@dyn 208] (gas: 14)\n 12058: u64 [s1 + 0xe8] = a5\n 12062: a4 = reverse a1\n 12064: u64 [s1 + 0xf0] = a4\n 12068: a2 = reverse a2\n 12070: u64 [s1 + 0xe0] = a2\n 12074: a0 = reverse a3\n 12076: u64 [s1 + 0xf8] = a0\n 12080: a1 = u64 [s1 + 0xd8]\n 12084: u64 [a1 + 0x18] = a0\n 12087: u64 [a1 + 0x10] = a2\n 12090: u64 [a1 + 0x8] = a4\n 12093: u64 [a1] = a5\n 12095: a0 = s1 + 0x2a0\n 12099: ra = 418, jump @11\n      : @472 [@dyn 209] (gas: 29)\n 12105: a0 = u64 [s1 + 0x2b8]\n 12109: u64 [s1 + 0xd8] = a0\n 12113: a0 = u64 [s1 + 0x2b0]\n 12117: u64 [s1 + 0xd0] = a0\n 12121: a0 = u64 [s1 + 0x2a8]\n 12125: u64 [s1 + 0xc8] = a0\n 12129: a0 = u64 [s1 + 0x2a0]\n 12133: u64 [s1 + 0xc0] = a0\n 12137: a0 = u64 [s1 + 0xe8]\n 12141: a0 = a0 + 0x1\n 12144: a1 = a0 <u 0x1\n 12147: a2 = u64 [s1 + 0xf0]\n 12151: a1 = a1 + a2\n 12154: a2 = s1 + 0x2078\n 12158: a3 = a2 + 0x500\n 12162: u64 [a3 + 0x70] = a1\n 12165: a1 = a1 | a0\n 12168: u64 [a3 + 0x68] = a0\n 12171: a0 = a1 <u 0x1\n 12174: a1 = u64 [s1 + 0xe0]\n 12178: a0 = a0 + a1\n 12181: u64 [a3 + 0x78] = a0\n 12184: a0 = a0 <u a1\n 12187: a1 = u64 [s1 + 0xf8]\n 12191: a0 = a0 + a1\n 12194: u64 [a3 + 0x80] = a0\n 12198: a0 = s1 + 0x280\n 12202: a1 = s1 + 0x25e0\n 12206: ra = 420, jump @11\n      : @473 [@dyn 210] (gas: 29)\n 12212: a0 = u64 [s1 + 0x298]\n 12216: u64 [s1 + 0xb8] = a0\n 12220: a0 = u64 [s1 + 0x290]\n 12224: u64 [s1 + 0xb0] = a0\n 12228: a0 = u64 [s1 + 0x288]\n 12232: u64 [s1 + 0xa8] = a0\n 12236: a0 = u64 [s1 + 0x280]\n 12240: u64 [s1 + 0xa0] = a0\n 12244: a1 = u64 [s1 + 0xe8]\n 12248: a0 = a1 + 0x2\n 12251: a1 = a0 <u a1\n 12254: a3 = u64 [s1 + 0xf0]\n 12258: a2 = a3 + a1\n 12261: a3 = a2 <u a3\n 12264: a3 = a1 if a1 == 0\n 12267: a1 = u64 [s1 + 0xe0]\n 12271: a3 = a3 + a1\n 12274: a1 = a3 <u a1\n 12277: a4 = u64 [s1 + 0xf8]\n 12281: a1 = a1 + a4\n 12284: a4 = s1 + 0x2078\n 12288: a5 = a4 + 0x500\n 12292: u64 [a5 + 0xa0] = a1\n 12296: u64 [a5 + 0x98] = a3\n 12300: u64 [a5 + 0x90] = a2\n 12304: u64 [a5 + 0x88] = a0\n 12308: a0 = s1 + 0x260\n 12312: a1 = s1 + 0x2600\n 12316: ra = 422, jump @11\n      : @474 [@dyn 211] (gas: 29)\n 12322: a0 = u64 [s1 + 0x278]\n 12326: u64 [s1 + 0x98] = a0\n 12330: a0 = u64 [s1 + 0x270]\n 12334: u64 [s1 + 0x90] = a0\n 12338: a1 = u64 [s1 + 0xe8]\n 12342: a0 = a1 + 0x3\n 12345: a1 = a0 <u a1\n 12348: a3 = u64 [s1 + 0xf0]\n 12352: a2 = a3 + a1\n 12355: a3 = a2 <u a3\n 12358: a3 = a1 if a1 == 0\n 12361: a1 = u64 [s1 + 0x268]\n 12365: u64 [s1 + 0xe8] = a1\n 12369: a1 = u64 [s1 + 0xe0]\n 12373: a3 = a3 + a1\n 12376: a1 = a3 <u a1\n 12379: a4 = u64 [s1 + 0xf8]\n 12383: a1 = a1 + a4\n 12386: a4 = u64 [s1 + 0x260]\n 12390: u64 [s1 + 0xe0] = a4\n 12394: a4 = s1 + 0x2078\n 12398: a5 = a4 + 0x500\n 12402: u64 [a5 + 0xc0] = a1\n 12406: u64 [a5 + 0xb8] = a3\n 12410: u64 [a5 + 0xb0] = a2\n 12414: u64 [a5 + 0xa8] = a0\n 12418: a0 = s1 + 0x240\n 12422: a1 = s1 + 0x2620\n 12426: ra = 424, jump @11\n      : @475 [@dyn 212] (gas: 5)\n 12432: a0 = u64 [s1 + 0x240]\n 12436: u64 [s1 + 0x88] = a0\n 12440: a0 = s1 + 0x220\n 12444: a1 = 0x40\n 12447: ra = 426, jump @7\n      : @476 [@dyn 213] (gas: 13)\n 12453: a0 = s1 + 0x200\n 12457: a4 = u64 [a0 + 0x38]\n 12460: a5 = u64 [a0 + 0x30]\n 12463: a3 = u64 [a0 + 0x28]\n 12466: a2 = u64 [a0 + 0x20]\n 12469: a0 = a3 | a4\n 12472: a1 = a2 | a5\n 12475: a1 = a1 | a0\n 12478: a1 = a1 >> 0x20\n 12481: a0 = a0 | a5\n 12484: a0 = a0 << 0x20\n 12487: a0 = a0 | a1\n 12490: jump @478 if a0 == 0\n      : @477 (gas: 1)\n 12493: jump @843\n      : @478 (gas: 15)\n 12496: a0 = u64 [s1 + 0xc0]\n 12500: u64 [s1 + 0x200] = a0\n 12504: a0 = u64 [s1 + 0xc8]\n 12508: u64 [s1 + 0x208] = a0\n 12512: a0 = u64 [s1 + 0xd0]\n 12516: u64 [s1 + 0x210] = a0\n 12520: a1 = s1 + 0x200\n 12524: a0 = u64 [s1 + 0xd8]\n 12528: u64 [s1 + 0x218] = a0\n 12532: a0 = a2\n 12534: u64 [s1 + 0xf8] = a2\n 12538: u64 [s1 + 0xf0] = a3\n 12542: u64 [s1 + 0xd8] = a4\n 12546: u64 [s1 + 0xd0] = a5\n 12550: ra = 428, jump @9\n      : @479 [@dyn 214] (gas: 11)\n 12556: a1 = u64 [s1 + 0xf8]\n 12560: a0 = u64 [s1 + 0xd8]\n 12564: a3 = u64 [s1 + 0xd0]\n 12568: a3 = a3 | a0\n 12571: a4 = 0x100000000\n 12581: a0 = 0xffffffe0\n 12591: a0 = a1 <u a0\n 12594: a2 = u64 [s1 + 0xf0]\n 12598: a0 = 0 if a2 != 0\n 12600: a0 = 0 if a3 != 0\n 12602: jump @481 if a0 != 0\n      : @480 (gas: 1)\n 12605: jump @843\n      : @481 (gas: 14)\n 12608: i32 a0 = a1 + 0x20\n 12611: a1 = u64 [s1 + 0xa0]\n 12615: a5 = s1 + 0x100\n 12619: u64 [a5 + 0xe0] = a1\n 12623: a1 = u64 [s1 + 0xa8]\n 12627: u64 [a5 + 0xe8] = a1\n 12631: a1 = u64 [s1 + 0xb0]\n 12635: u64 [a5 + 0xf0] = a1\n 12639: a1 = s1 + 0x1e0\n 12643: a2 = u64 [s1 + 0xb8]\n 12647: u64 [a5 + 0xf8] = a2\n 12651: u64 [s1 + 0xd8] = a3\n 12655: u64 [s1 + 0xd0] = a4\n 12659: ra = 430, jump @9\n      : @482 [@dyn 215] (gas: 9)\n 12665: a4 = u64 [s1 + 0xd8]\n 12669: a3 = u64 [s1 + 0xf0]\n 12673: a1 = u64 [s1 + 0xf8]\n 12677: a0 = u64 [s1 + 0xd0]\n 12681: a0 = a0 + 0xffffffffffffffc0\n 12684: a0 = a1 <u a0\n 12687: a0 = 0 if a3 != 0\n 12689: a0 = 0 if a4 != 0\n 12691: jump @484 if a0 != 0\n      : @483 (gas: 1)\n 12694: jump @843\n      : @484 (gas: 12)\n 12697: i32 a0 = a1 + 0x40\n 12700: a1 = u64 [s1 + 0xe0]\n 12704: a3 = s1 + 0x100\n 12708: u64 [a3 + 0xc0] = a1\n 12712: a1 = u64 [s1 + 0xe8]\n 12716: u64 [a3 + 0xc8] = a1\n 12720: a1 = u64 [s1 + 0x90]\n 12724: u64 [a3 + 0xd0] = a1\n 12728: a1 = s1 + 0x1c0\n 12732: a2 = u64 [s1 + 0x98]\n 12736: u64 [a3 + 0xd8] = a2\n 12740: ra = 432, jump @9\n      : @485 [@dyn 216] (gas: 8)\n 12746: a2 = u64 [s1 + 0xf8]\n 12750: a0 = 0xffffffa0\n 12760: a0 = a2 <u a0\n 12763: a1 = u64 [s1 + 0xf0]\n 12767: a0 = 0 if a1 != 0\n 12769: a1 = u64 [s1 + 0xd8]\n 12773: a0 = 0 if a1 != 0\n 12775: jump @487 if a0 != 0\n      : @486 (gas: 1)\n 12778: jump @843\n      : @487 (gas: 10)\n 12781: a0 = u64 [s1 + 0x88]\n 12785: a0 = a0 << 0x20\n 12788: a1 = a0 >> 0x20\n 12791: i32 a0 = a2 + 0x60\n 12794: u64 [s1 + 440] = 0\n 12798: u64 [s1 + 432] = 0\n 12802: u64 [s1 + 0x1a0] = a1\n 12806: a1 = s1 + 0x1a0\n 12810: u64 [s1 + 424] = 0\n 12814: ra = 434, jump @9\n      : @488 [@dyn 217] (gas: 3)\n 12820: a1 = 0x80\n 12824: a0 = u64 [s1 + 0xf8]\n 12828: ra = 436, jump @20\n      : @489 [@dyn 218] (gas: 5)\n 12834: i32 a1 = a0 + 0\n 12836: a2 = 0x80\n 12840: a0 = 0\n 12842: ecalli 14 // 'seal_return'\n 12844: jump @457\n      : @490 (gas: 10)\n 12847: a0 = s1 + 0x2878\n 12851: u64 [a0 + 1632] = 0\n 12855: u64 [a0 + 1624] = 0\n 12859: u64 [a0 + 1616] = 0\n 12863: u64 [a0 + 1608] = 0\n 12867: a0 = s1 + 0x3000\n 12871: i32 a0 = a0 + 0xfffffffffffffec0\n 12875: ra = 0x1b6\n 12879: ecalli 17 // 'value_transferred'\n 12881: fallthrough\n      : @491 [@dyn 219] (gas: 3)\n 12882: a3 = s1 + 0x2878\n 12886: a4 = a3 + 0x600\n 12890: t0 = 440, jump @1572\n      : @492 [@dyn 220] (gas: 1)\n 12896: jump @494 if a0 == 0\n      : @493 (gas: 1)\n 12899: jump @974\n      : @494 (gas: 3)\n 12902: a0 = u64 [s1 + 0xf8]\n 12906: a0 = i32 [a0]\n 12908: jump @496 if a0 >u 35\n      : @495 (gas: 1)\n 12912: jump @974\n      : @496 (gas: 5)\n 12915: a0 = s1 + 0x3000\n 12919: i32 a0 = a0 + 0xfffffffffffffee0\n 12923: a1 = 0x4\n 12926: ecalli 2 // 'call_data_load'\n 12928: fallthrough\n      : @497 (gas: 14)\n 12929: a0 = s1 + 0x2878\n 12933: a5 = a0 + 0x600\n 12937: a1 = u64 [a5 + 0x80]\n 12941: a2 = u64 [a5 + 0x78]\n 12944: a3 = u64 [a5 + 0x70]\n 12947: a4 = u64 [a5 + 0x68]\n 12950: u64 [s1 + 0x58] = a1\n 12953: u64 [s1 + 0x48] = a3\n 12956: a0 = a3 | a1\n 12959: u64 [s1 + 0x50] = a2\n 12962: u64 [s1 + 0x40] = a4\n 12965: a1 = a4 | a2\n 12968: a0 = a0 | a1\n 12971: jump @499 if a0 != 0\n      : @498 (gas: 1)\n 12974: jump @893\n      : @499 (gas: 10)\n 12977: a0 = 0xffffffff\n 12987: u64 [s1 + 0x60] = a0\n 12990: a0 = 0x30160\n 12995: u64 [s1 + 0x80] = a0\n 12999: i32 a0 = a0 + 0\n 13001: u64 [s1 + 0x38] = a0\n 13004: ra = 0x1ba\n 13008: ecalli 4 // 'caller'\n 13010: t0 = 0x1bc\n 13014: jump @1540\n      : @500 [@dyn 221] (gas: 1)\n 13017: t0 = 444, jump @1540\n      : @501 [@dyn 222] (gas: 8)\n 13023: u64 [a2 + 1088] = 0\n 13027: a4 = a2 + 0x400\n 13031: u64 [a4 + 0x38] = a1\n 13034: u64 [a4 + 0x30] = a0\n 13037: a1 = s1 + 0x24a0\n 13041: u64 [a4 + 0x28] = a3\n 13044: a0 = 0\n 13046: ra = 446, jump @9\n      : @502 [@dyn 223] (gas: 3)\n 13052: t0 = 0x1c0\n 13056: a2 = s1 + 0x2078\n 13060: fallthrough\n      : @503 [@dyn 224] (gas: 7)\n 13061: u64 [a2 + 1056] = 0\n 13065: u64 [a2 + 1048] = 0\n 13069: u64 [a2 + 1032] = 0x4\n 13074: a0 = 0x20\n 13077: a1 = s1 + 0x2480\n 13081: u64 [a2 + 1040] = 0\n 13085: ra = 450, jump @9\n      : @504 [@dyn 225] (gas: 7)\n 13091: a0 = sp + 0xffffffffffffffe0\n 13094: a0 = a0 & 0xffffffffffffffe0\n 13097: u64 [s1 + 0xf8] = a0\n 13101: sp = a0\n 13103: a1 = 0x40\n 13106: a0 = 0\n 13108: ra = 452, jump @20\n      : @505 [@dyn 226] (gas: 1)\n 13114: t0 = 454, jump @1597\n      : @506 [@dyn 227] (gas: 5)\n 13120: ra = 0x1c8\n 13124: ecalli 9 // 'hash_keccak_256'\n 13126: a3 = u64 [s1 + 0xf0]\n 13130: t0 = 0x1ca\n 13134: jump @1562\n      : @507 [@dyn 228] (gas: 2)\n 13137: a3 = u64 [s1 + 0xf0]\n 13141: t0 = 458, jump @1562\n      : @508 [@dyn 229] (gas: 7)\n 13147: a1 = u64 [s1 + 0xf8]\n 13151: u64 [a1 + 0x18] = a3\n 13154: u64 [a1 + 0x10] = a2\n 13157: u64 [a1 + 0x8] = a4\n 13160: u64 [a1] = a0\n 13162: a0 = s1 + 0x2460\n 13166: ra = 460, jump @11\n      : @509 [@dyn 230] (gas: 4)\n 13172: a0 = s1 + 0x2078\n 13176: a2 = u32 [a0 + 0x3e8]\n 13180: a0 = u64 [s1 + 0x60]\n 13183: jump @511 if a2 != a0\n      : @510 (gas: 1)\n 13186: jump @894\n      : @511 (gas: 11)\n 13189: a1 = a2 + 0x1\n 13192: u64 [s1 + 0x70] = a1\n 13195: a0 = a1 <u 0x1\n 13198: u64 [s1 + 0x68] = a0\n 13201: a0 = a0 | a1\n 13204: a0 = a0 <u 0x1\n 13207: u64 [s1 + 0x78] = a0\n 13210: a0 = s1 + 0x2440\n 13214: u64 [s1 + 0xf0] = a2\n 13218: a1 = u64 [s1 + 0xf8]\n 13222: ra = 462, jump @11\n      : @512 [@dyn 231] (gas: 22)\n 13228: a3 = s1 + 0x2078\n 13232: a0 = u32 [a3 + 0x3cc]\n 13236: a4 = a3 + 0x300\n 13240: a1 = u64 [a4 + 0xd8]\n 13244: a0 = a0 << 0x20\n 13247: a2 = u64 [a4 + 0xd0]\n 13251: a3 = u64 [a4 + 0xe0]\n 13255: a4 = u64 [s1 + 0x78]\n 13258: a1 = a1 | a4\n 13261: a4 = u64 [s1 + 0x70]\n 13264: a0 = a0 | a4\n 13267: a4 = u64 [s1 + 0x68]\n 13270: a2 = a2 | a4\n 13273: a4 = s1 + 0x2878\n 13277: a5 = a4 + 0x600\n 13281: u64 [a5 + 0xa0] = a3\n 13285: u64 [a5 + 0x90] = a2\n 13289: u64 [a5 + 0x88] = a0\n 13293: u64 [a5 + 0x98] = a1\n 13297: a1 = s1 + 0x2f00\n 13301: a0 = u64 [s1 + 0xf8]\n 13305: ra = 464, jump @12\n      : @513 [@dyn 232] (gas: 2)\n 13311: a1 = u64 [s1 + 0xf0]\n 13315: jump @515 if a1 <=u 254\n      : @514 (gas: 1)\n 13320: jump @896\n      : @515 (gas: 4)\n 13323: a0 = s1 + 0x3000\n 13327: i32 a0 = a0 + 0xffffffffffffff20\n 13331: ecalli 10 // 'now'\n 13333: fallthrough\n      : @516 (gas: 49)\n 13334: a0 = s1 + 0x2878\n 13338: t2 = u64 [a0 + 0x6c0]\n 13342: a3 = u64 [a0 + 0x6b8]\n 13346: u64 [s1 + 0xb8] = a3\n 13350: t0 = u64 [a0 + 0x6b0]\n 13354: ra = u64 [a0 + 0x6a8]\n 13358: a0 = clz t2\n 13360: a1 = clz a3\n 13362: a2 = a1 + 0x40\n 13365: a2 = a0 if t2 != 0\n 13368: a0 = clz t0\n 13370: a1 = clz ra\n 13372: a1 = a1 + 0x40\n 13375: a1 = a0 if t0 != 0\n 13378: a0 = a1 + 0x80\n 13382: a3 = a3 | t2\n 13385: a2 = a0 if a3 == 0\n 13388: a5 = a0 <u a1\n 13391: a5 = 0 if a3 != 0\n 13393: a4 = a5 >u 0\n 13395: a0 = a2 <u 0xf0\n 13399: a3 = a0 ^ 0x1\n 13402: a4 = a3 if a5 == 0\n 13405: a0 = a4 <u 0x1\n 13408: a0 = a0 + 0xffffffffffffffff\n 13411: a1 = -a4\n 13413: a5 = -a5\n 13415: a3 = a5 - a3\n 13418: t1 = 0xef - a2\n 13422: u64 [s1 + 0xf8] = a1\n 13426: a5 = a1 >u 0\n 13428: a1 = a0 >u 0\n 13430: a1 = a5 if a0 == 0\n 13433: a5 = t1 <u 0x100\n 13437: a5 = a5 ^ 0x1\n 13440: a2 = a3 >u 0\n 13442: a5 = a2 if a3 != 0\n 13445: a5 = a1 if a4 != 0\n 13448: u64 [s1 + 0xa0] = t2\n 13452: a1 = t0 | t2\n 13455: t2 = t0\n 13457: a4 = u64 [s1 + 0xb8]\n 13461: a2 = ra | a4\n 13464: a1 = a1 | a2\n 13467: a1 = a1 <u 0x1\n 13470: a1 = a1 | a5\n 13473: t0 = ra\n 13475: ra = 0 if a1 != 0\n 13477: jump @518 if a1 == 0\n      : @517 (gas: 1)\n 13480: jump @733\n      : @518 (gas: 6)\n 13483: a1 = t1 ^ 0xff\n 13487: a5 = u64 [s1 + 0xf8]\n 13491: a1 = a1 | a5\n 13494: a2 = a3 | a0\n 13497: a1 = a1 | a2\n 13500: jump @520 if a1 != 0\n      : @519 (gas: 1)\n 13503: jump @733\n      : @520 (gas: 20)\n 13506: a2 = t1 + 0x1\n 13509: u64 [s1 + 0xf0] = a2\n 13513: a1 = a2 <u 0x1\n 13516: a1 = a1 + a3\n 13519: u64 [s1 + 0xe0] = a1\n 13523: a1 = a1 | a2\n 13526: a1 = a1 <u 0x1\n 13529: a1 = a1 + a5\n 13532: u64 [s1 + 0xd0] = a1\n 13536: a1 = a1 <u a5\n 13539: a0 = a0 + a1\n 13542: u64 [s1 + 0xd8] = a0\n 13546: a1 = 0xff - t1\n 13550: u64 [s1 + 0xc8] = a1\n 13554: a2 = 0x80 - a1\n 13558: a0 = t0\n 13560: u64 [s1 + 0xb0] = t0\n 13564: a1 = t2\n 13566: u64 [s1 + 0xa8] = t2\n 13570: ra = 466, jump @1601\n      : @521 [@dyn 233] (gas: 6)\n 13576: u64 [s1 + 0xc0] = a0\n 13580: u64 [s1 + 0xf8] = a1\n 13584: a0 = u64 [s1 + 0xb8]\n 13588: a1 = u64 [s1 + 0xa0]\n 13592: a2 = u64 [s1 + 0xc8]\n 13596: ra = 468, jump @1606\n      : @522 [@dyn 234] (gas: 7)\n 13602: u64 [s1 + 0x90] = a0\n 13606: u64 [s1 + 0x88] = a1\n 13610: a0 = u64 [s1 + 0xc8]\n 13614: a2 = a0 + 0xffffffffffffff80\n 13617: a0 = u64 [s1 + 0xb0]\n 13621: a1 = u64 [s1 + 0xa8]\n 13625: ra = 470, jump @1606\n      : @523 [@dyn 235] (gas: 8)\n 13631: u64 [s1 + 0x30] = a0\n 13634: u64 [s1 + 0x28] = a1\n 13637: a2 = u64 [s1 + 0xc8]\n 13641: a0 = a2 <u 0x80\n 13645: u64 [s1 + 0x98] = a0\n 13649: a0 = u64 [s1 + 0xb0]\n 13653: a1 = u64 [s1 + 0xa8]\n 13657: ra = 472, jump @1606\n      : @524 [@dyn 236] (gas: 11)\n 13663: a4 = u64 [s1 + 0x98]\n 13667: t0 = u64 [s1 + 0xd0]\n 13671: a5 = u64 [s1 + 0xd8]\n 13675: a2 = u64 [s1 + 0xe0]\n 13679: a5 = a5 | a2\n 13682: a3 = u64 [s1 + 0xf0]\n 13686: a3 = a3 | t0\n 13689: a3 = a3 | a5\n 13692: a0 = 0 if a4 == 0\n 13694: u64 [s1 + 0xe8] = a0\n 13698: jump @526 if a3 == 0\n      : @525 (gas: 1)\n 13701: jump @724\n      : @526 (gas: 2)\n 13704: a5 = 0\n 13706: jump @732\n      : @527 (gas: 1)\n 13709: jump @529 if a0 == 1641031603\n      : @528 (gas: 1)\n 13716: jump @909\n      : @529 (gas: 11)\n 13719: a0 = s1 + 0x2878\n 13723: u64 [a0 + 352] = 0\n 13727: u64 [a0 + 344] = 0\n 13731: u64 [a0 + 336] = 0\n 13735: u64 [a0 + 328] = 0\n 13739: a0 = s1 + 0x3000\n 13743: i32 a0 = a0 + 0xfffffffffffff9c0\n 13747: ra = 0x1da\n 13751: ecalli 17 // 'value_transferred'\n 13753: t0 = 0x1dc\n 13757: jump @1579\n      : @530 [@dyn 237] (gas: 1)\n 13760: t0 = 476, jump @1579\n      : @531 [@dyn 238] (gas: 1)\n 13766: t0 = 478, jump @1572\n      : @532 [@dyn 239] (gas: 1)\n 13772: jump @534 if a0 == 0\n      : @533 (gas: 1)\n 13775: jump @914\n      : @534 (gas: 3)\n 13778: a0 = u64 [s1 + 0xf8]\n 13782: a0 = i32 [a0]\n 13784: jump @536 if a0 >u 3\n      : @535 (gas: 1)\n 13788: jump @915\n      : @536 (gas: 4)\n 13791: a0 = s1 + 0x7ff\n 13795: a0 = a0 + 0x5a1\n 13799: a1 = 0x40\n 13802: ra = 480, jump @7\n      : @537 [@dyn 240] (gas: 12)\n 13808: a0 = s1 + 0x7ff\n 13812: a0 = a0 + 0x79\n 13815: a2 = a0 + 0x500\n 13819: a1 = u64 [a2 + 0x40]\n 13822: u64 [s1 + 0xf8] = a1\n 13826: a1 = u64 [a2 + 0x38]\n 13829: u64 [s1 + 0xf0] = a1\n 13833: a1 = u64 [a2 + 0x30]\n 13836: u64 [s1 + 0xe0] = a1\n 13840: a0 = u64 [a2 + 0x28]\n 13843: u64 [s1 + 0xe8] = a0\n 13847: ra = 482, jump @0\n      : @538 [@dyn 241] (gas: 13)\n 13853: a0 = u64 [s1 + 0xf8]\n 13857: a1 = u64 [s1 + 0xe0]\n 13861: a0 = a0 | a1\n 13864: a1 = u64 [s1 + 0xe8]\n 13868: a3 = a1\n 13870: a2 = u64 [s1 + 0xf0]\n 13874: a1 = a1 | a2\n 13877: a1 = a1 | a0\n 13880: a1 = a1 >> 0x20\n 13883: a0 = a0 | a2\n 13886: a0 = a0 << 0x20\n 13889: a0 = a0 | a1\n 13892: jump @540 if a0 == 0\n      : @539 (gas: 1)\n 13895: jump @843\n      : @540 (gas: 14)\n 13898: a2 = u64 [0x30180]\n 13903: a1 = u64 [0x30188]\n 13908: a0 = u32 [0x30190]\n 13913: a4 = s1 + 0x7ff\n 13917: a4 = a4 + 0x79\n 13920: u64 [a4 + 1312] = 0\n 13924: a5 = a4 + 0x500\n 13928: u64 [a5 + 0x18] = a0\n 13931: u64 [a5 + 0x10] = a1\n 13934: a1 = s1 + 0x7ff\n 13938: a1 = a1 + 0x581\n 13942: u64 [a5 + 0x8] = a2\n 13945: a0 = a3\n 13947: ra = 484, jump @9\n      : @541 [@dyn 242] (gas: 4)\n 13953: a1 = 0x20\n 13956: a0 = u64 [s1 + 0xe8]\n 13960: ra = 0x190\n 13964: jump @20\n      : @542 (gas: 6)\n 13967: u64 [s1 + 0xa0] = a4\n 13971: u64 [s1 + 0xa8] = a3\n 13975: u64 [s1 + 0xb0] = a2\n 13979: a0 = s1 + 0x1e40\n 13983: a1 = 0x40\n 13986: ra = 486, jump @7\n      : @543 [@dyn 243] (gas: 14)\n 13992: a2 = s1 + 0x1878\n 13996: t0 = u64 [a2 + 0x5e0]\n 14000: a1 = a2 + 0x500\n 14004: a5 = u64 [a1 + 0xd8]\n 14008: a4 = u64 [a1 + 0xd0]\n 14012: a0 = u64 [a1 + 0xc8]\n 14016: a3 = a4 | t0\n 14019: a1 = a0 | a5\n 14022: a1 = a1 | a3\n 14025: a1 = a1 >> 0x20\n 14028: a3 = a3 | a5\n 14031: a3 = a3 << 0x20\n 14034: a1 = a1 | a3\n 14037: jump @545 if a1 == 0\n      : @544 (gas: 1)\n 14040: jump @843\n      : @545 (gas: 11)\n 14043: u64 [a2 + 1464] = 0\n 14047: u64 [a2 + 1456] = 0\n 14051: u64 [a2 + 1448] = 0\n 14055: a3 = 0x4da6a55600000000\n 14065: a1 = s1 + 0x1e20\n 14069: u64 [a2 + 0x5c0] = a3\n 14073: u64 [s1 + 0xb8] = a0\n 14077: u64 [s1 + 0x98] = t0\n 14081: u64 [s1 + 0x90] = a5\n 14085: u64 [s1 + 0x88] = a4\n 14089: ra = 488, jump @9\n      : @546 [@dyn 244] (gas: 3)\n 14095: a0 = u64 [s1 + 0xe0]\n 14099: ecalli 4 // 'caller'\n 14101: fallthrough\n      : @547 (gas: 10)\n 14102: a4 = u64 [s1 + 0xb8]\n 14106: a0 = u64 [s1 + 0x98]\n 14110: a1 = u64 [s1 + 0x90]\n 14114: a0 = a0 | a1\n 14117: a1 = 0xfffffffc\n 14127: a1 = a4 <u a1\n 14130: a2 = u64 [s1 + 0x88]\n 14134: a1 = 0 if a2 != 0\n 14136: a1 = 0 if a0 != 0\n 14138: jump @549 if a1 != 0\n      : @548 (gas: 1)\n 14141: jump @843\n      : @549 (gas: 25)\n 14144: a2 = u64 [s1 + 0xf8]\n 14148: a1 = u64 [a2 + 0x8]\n 14151: a0 = 0x2400000000\n 14161: u64 [s1 + 0x80] = a0\n 14165: a0 = i32 [a2 + 0x10]\n 14168: a2 = u64 [a2]\n 14170: a1 = reverse a1\n 14172: a3 = a1 << 0x20\n 14175: a0 = reverse a0\n 14177: a0 = a0 >> 0x20\n 14180: a3 = a3 | a0\n 14183: a1 = a1 >> 0x20\n 14186: a0 = reverse a2\n 14188: a2 = a0 << 0x20\n 14191: a1 = a1 | a2\n 14194: a2 = a0 >> 0x20\n 14197: i32 a0 = a4 + 0x4\n 14200: a5 = s1 + 0x1878\n 14204: u64 [a5 + 1440] = 0\n 14208: a4 = a5 + 0x500\n 14212: u64 [a4 + 0x98] = a2\n 14216: u64 [a4 + 0x90] = a1\n 14220: a1 = s1 + 0x1e00\n 14224: u64 [a4 + 0x88] = a3\n 14228: ra = 490, jump @9\n      : @550 [@dyn 245] (gas: 29)\n 14234: ecalli 11 // 'ref_time_left'\n 14236: a0 = u64 [s1 + 0xa0]\n 14240: a0 = reverse a0\n 14242: a1 = a0 << 0x20\n 14245: a2 = u64 [s1 + 0xa8]\n 14249: a2 = reverse a2\n 14251: a2 = a2 >> 0x20\n 14254: a3 = a2 | a1\n 14257: a1 = u64 [s1 + 0xb0]\n 14261: a1 = reverse a1\n 14263: a2 = a1 << 0x20\n 14266: a0 = a0 >> 0x20\n 14269: a0 = a0 | a2\n 14272: a1 = a1 >> 0x20\n 14275: u64 [s1 + 0x78] = a0\n 14278: a2 = u64 [s1 + 0xf8]\n 14282: u64 [a2 + 0x8] = a0\n 14285: u64 [s1 + 0xa8] = a3\n 14289: u64 [a2] = a3\n 14291: u64 [s1 + 0xa0] = a1\n 14295: u32 [a2 + 0x10] = a1\n 14298: a0 = s1 + 0x2878\n 14302: u64 [a0 + 1088] = 0\n 14306: u64 [a0 + 1080] = 0\n 14310: u64 [a0 + 1072] = 0\n 14314: u64 [a0 + 1064] = 0\n 14318: a1 = 0x24\n 14321: a0 = u64 [s1 + 0xb8]\n 14325: ra = 492, jump @20\n      : @551 [@dyn 246] (gas: 4)\n 14331: u64 [s1 + 0xb0] = a0\n 14335: a1 = 0x20\n 14338: a0 = u64 [s1 + 0xb8]\n 14342: ra = 494, jump @20\n      : @552 [@dyn 247] (gas: 33)\n 14348: a1 = s1 + 0x2878\n 14352: u32 [a1 + 1096] = 0x20\n 14357: u64 [a1 + 1152] = 0\n 14361: u64 [a1 + 1144] = 0\n 14365: u64 [a1 + 1136] = 0\n 14369: u64 [a1 + 1128] = 0\n 14373: a1 = u64 [s1 + 0xf8]\n 14377: a1 = a1 << 0x20\n 14380: a2 = a1 >> 0x20\n 14383: a1 = 0x1800000000\n 14393: u64 [s1 + 0x70] = a2\n 14396: t0 = a2 | a1\n 14399: a1 = s1 + 0x2ca0\n 14403: a1 = a1 << 0x20\n 14406: a1 = a1 >> 0x20\n 14409: a2 = s1 + 0x2ce0\n 14413: a2 = a2 << 0x20\n 14416: a3 = a2 | a1\n 14419: a1 = u64 [s1 + 0xb0]\n 14423: a1 = a1 << 0x20\n 14426: a1 = a1 >> 0x20\n 14429: a4 = u64 [s1 + 0x80]\n 14433: a4 = a4 | a1\n 14436: a0 = a0 << 0x20\n 14439: a0 = a0 >> 0x20\n 14442: a1 = s1 + 0x2cc0\n 14446: a1 = a1 << 0x20\n 14449: a5 = a1 | a0\n 14452: a1 = 0xffffffffffffffff\n 14455: a2 = 0xffffffffffffffff\n 14458: a0 = t0\n 14460: ecalli 0 // 'call'\n 14461: fallthrough\n      : @553 (gas: 1)\n 14462: jump @555 if a0 == 0\n      : @554 (gas: 1)\n 14465: jump @798\n      : @555 (gas: 2)\n 14468: ecalli 13 // 'return_data_size'\n 14470: fallthrough\n      : @556 (gas: 2)\n 14471: a5 = 0x20\n 14474: jump @558 if a0 >=u a5\n      : @557 (gas: 3)\n 14477: ecalli 13 // 'return_data_size'\n 14479: a5 = a0\n 14481: fallthrough\n      : @558 (gas: 19)\n 14482: a2 = s1 + 0x1878\n 14486: a3 = u64 [s1 + 0xb8]\n 14490: t0 = u64 [s1 + 0x98]\n 14494: a0 = u64 [s1 + 0x90]\n 14498: a1 = u64 [s1 + 0x88]\n 14502: u64 [s1 + 152] = 0\n 14506: u64 [s1 + 0xb0] = a5\n 14510: a4 = a2 + 0x500\n 14514: u64 [a4 + 0x28] = a5\n 14517: u64 [a4 + 0x48] = a3\n 14520: u64 [a2 + 1328] = 0\n 14524: u64 [a4 + 0x50] = a1\n 14527: u64 [a2 + 1336] = 0\n 14531: u64 [a4 + 0x58] = a0\n 14534: u64 [a2 + 1344] = 0\n 14538: a0 = s1 + 0x1dc0\n 14542: a1 = s1 + 0x1da0\n 14546: u64 [a2 + 0x560] = t0\n 14550: ra = 496, jump @1267\n      : @559 [@dyn 248] (gas: 4)\n 14556: a3 = u64 [s1 + 0x98]\n 14560: a0 = a3 >u 0\n 14562: a1 = u64 [s1 + 0xb0]\n 14566: t0 = 498, jump @1551\n      : @560 [@dyn 249] (gas: 1)\n 14572: jump @562 if a2 != 0\n      : @561 (gas: 1)\n 14575: jump @932\n      : @562 (gas: 3)\n 14578: a0 = s1 + 0x1d80\n 14582: a1 = u64 [s1 + 0xb8]\n 14586: ra = 500, jump @7\n      : @563 [@dyn 250] (gas: 2)\n 14592: a1 = s1 + 0x1878\n 14596: fallthrough\n      : @564 (gas: 13)\n 14597: a4 = a1 + 0x500\n 14601: a3 = u64 [a4 + 0x20]\n 14604: a2 = u64 [a4 + 0x18]\n 14607: a0 = u64 [a4 + 0x10]\n 14610: a1 = u64 [a4 + 0x8]\n 14613: u64 [s1 + 0xb0] = a0\n 14617: u64 [s1 + 0x90] = a3\n 14621: a0 = a0 | a3\n 14624: u64 [s1 + 0xb8] = a1\n 14628: u64 [s1 + 0x98] = a2\n 14632: a1 = a1 | a2\n 14635: a0 = a0 | a1\n 14638: jump @566 if a0 == 0\n      : @565 (gas: 1)\n 14641: jump @811\n      : @566 (gas: 3)\n 14644: a0 = s1 + 0x1c40\n 14648: a1 = u64 [s1 + 0xf0]\n 14652: ra = 502, jump @11\n      : @567 [@dyn 251] (gas: 3)\n 14658: t0 = 0x1f8\n 14662: a1 = s1 + 0x1878\n 14666: fallthrough\n      : @568 [@dyn 252] (gas: 10)\n 14667: a2 = a1 + 0x300\n 14671: a0 = u64 [a2 + 0xd8]\n 14675: u64 [s1 + 0x88] = a0\n 14679: a0 = u64 [a2 + 0xd0]\n 14683: u64 [s1 + 0x78] = a0\n 14686: a0 = u64 [a2 + 0xc8]\n 14690: u64 [s1 + 0xa0] = a0\n 14694: a0 = s1 + 0x1c20\n 14698: a1 = 0x40\n 14701: ra = 506, jump @7\n      : @569 [@dyn 253] (gas: 14)\n 14707: t0 = s1 + 0x1878\n 14711: a1 = t0 + 0x300\n 14715: a3 = u64 [a1 + 0xc0]\n 14719: a4 = u64 [a1 + 0xb8]\n 14723: a5 = u64 [a1 + 0xb0]\n 14727: a0 = u64 [a1 + 0xa8]\n 14731: a2 = a5 | a3\n 14734: a1 = a0 | a4\n 14737: a1 = a1 | a2\n 14740: a1 = a1 >> 0x20\n 14743: a2 = a2 | a4\n 14746: a2 = a2 << 0x20\n 14749: a1 = a1 | a2\n 14752: jump @571 if a1 == 0\n      : @570 (gas: 1)\n 14755: jump @843\n      : @571 (gas: 11)\n 14758: u64 [t0 + 920] = 0\n 14762: u64 [t0 + 912] = 0\n 14766: u64 [t0 + 904] = 0\n 14770: u64 [s1 + 0x68] = a3\n 14773: a3 = 0xef5cfb8c00000000\n 14783: a1 = s1 + 0x1c00\n 14787: u64 [t0 + 0x3a0] = a3\n 14791: u64 [s1 + 0xa8] = a0\n 14795: u64 [s1 + 0x60] = a4\n 14798: u64 [s1 + 0x58] = a5\n 14801: ra = 508, jump @9\n      : @572 [@dyn 254] (gas: 4)\n 14807: a0 = u64 [s1 + 0xe0]\n 14811: ra = 0x1fe\n 14815: ecalli 4 // 'caller'\n 14817: fallthrough\n      : @573 [@dyn 255] (gas: 10)\n 14818: a4 = u64 [s1 + 0xa8]\n 14822: a0 = u64 [s1 + 0x68]\n 14825: a1 = u64 [s1 + 0x60]\n 14828: a0 = a0 | a1\n 14831: a1 = 0xfffffffc\n 14841: a1 = a4 <u a1\n 14844: a2 = u64 [s1 + 0x58]\n 14847: a1 = 0 if a2 != 0\n 14849: a1 = 0 if a0 != 0\n 14851: jump @575 if a1 != 0\n      : @574 (gas: 1)\n 14854: jump @843\n      : @575 (gas: 2)\n 14857: a2 = u64 [s1 + 0xf8]\n 14861: t0 = 512, jump @1557\n      : @576 [@dyn 256] (gas: 7)\n 14867: u64 [a5 + 896] = 0\n 14871: a4 = a5 + 0x300\n 14875: u64 [a4 + 0x78] = a1\n 14878: u64 [a4 + 0x70] = a2\n 14881: a1 = s1 + 0x1be0\n 14885: u64 [a4 + 0x68] = a3\n 14888: ra = 514, jump @9\n      : @577 [@dyn 257] (gas: 26)\n 14894: ecalli 11 // 'ref_time_left'\n 14896: a0 = u64 [s1 + 0x78]\n 14899: a0 = reverse a0\n 14901: a1 = a0 << 0x20\n 14904: a2 = u64 [s1 + 0x88]\n 14908: a2 = reverse a2\n 14910: a2 = a2 >> 0x20\n 14913: a1 = a1 | a2\n 14916: a2 = u64 [s1 + 0xa0]\n 14920: a2 = reverse a2\n 14922: a3 = a2 << 0x20\n 14925: a0 = a0 >> 0x20\n 14928: a0 = a0 | a3\n 14931: a2 = a2 >> 0x20\n 14934: a3 = u64 [s1 + 0xf8]\n 14938: u64 [a3 + 0x8] = a0\n 14941: u64 [a3] = a1\n 14943: u32 [a3 + 0x10] = a2\n 14946: a0 = s1 + 0x2878\n 14950: u64 [a0 + 1344] = 0\n 14954: u64 [a0 + 1336] = 0\n 14958: u64 [a0 + 1328] = 0\n 14962: u64 [a0 + 1320] = 0\n 14966: a1 = 0x24\n 14969: a0 = u64 [s1 + 0xa8]\n 14973: ra = 516, jump @20\n      : @578 [@dyn 258] (gas: 4)\n 14979: u64 [s1 + 0xa0] = a0\n 14983: a1 = 0x20\n 14986: a0 = u64 [s1 + 0xa8]\n 14990: ra = 518, jump @20\n      : @579 [@dyn 259] (gas: 31)\n 14996: a2 = s1 + 0x2878\n 15000: a3 = a2 + 0x500\n 15004: u32 [a3 + 72] = 0x20\n 15008: u64 [a3 + 128] = 0xffffffffffffffff\n 15013: u64 [a3 + 120] = 0xffffffffffffffff\n 15017: u64 [a3 + 112] = 0xffffffffffffffff\n 15021: u64 [a3 + 104] = 0xffffffffffffffff\n 15025: a1 = 0x800000000\n 15035: a2 = u64 [s1 + 0x70]\n 15038: t0 = a2 | a1\n 15041: a1 = s1 + 0x2da0\n 15045: a1 = a1 << 0x20\n 15048: a1 = a1 >> 0x20\n 15051: a2 = s1 + 0x2de0\n 15055: a2 = a2 << 0x20\n 15058: a3 = a2 | a1\n 15061: a1 = u64 [s1 + 0xa0]\n 15065: a1 = a1 << 0x20\n 15068: a1 = a1 >> 0x20\n 15071: a4 = u64 [s1 + 0x80]\n 15075: a4 = a4 | a1\n 15078: a0 = a0 << 0x20\n 15081: a0 = a0 >> 0x20\n 15084: a1 = s1 + 0x2dc0\n 15088: a1 = a1 << 0x20\n 15091: a5 = a1 | a0\n 15094: a1 = 0xffffffffffffffff\n 15097: a2 = 0xffffffffffffffff\n 15100: a0 = t0\n 15102: ecalli 0 // 'call'\n 15103: fallthrough\n      : @580 (gas: 1)\n 15104: jump @582 if a0 == 0\n      : @581 (gas: 1)\n 15107: jump @827\n      : @582 (gas: 2)\n 15110: ecalli 13 // 'return_data_size'\n 15112: fallthrough\n      : @583 (gas: 2)\n 15113: a4 = 0x20\n 15116: jump @585 if a0 >=u a4\n      : @584 (gas: 3)\n 15119: ecalli 13 // 'return_data_size'\n 15121: a4 = a0\n 15123: fallthrough\n      : @585 (gas: 19)\n 15124: a2 = s1 + 0x1878\n 15128: a3 = u64 [s1 + 0xa8]\n 15132: a0 = u64 [s1 + 0x60]\n 15135: a1 = u64 [s1 + 0x58]\n 15138: u64 [s1 + 136] = 0\n 15142: u64 [s1 + 0xa0] = a4\n 15146: a5 = a2 + 0x300\n 15150: u64 [a5 + 0x8] = a4\n 15153: u64 [a5 + 0x28] = a3\n 15156: u64 [a2 + 784] = 0\n 15160: u64 [a5 + 0x30] = a1\n 15163: u64 [a2 + 792] = 0\n 15167: u64 [a5 + 0x38] = a0\n 15170: u64 [a2 + 800] = 0\n 15174: a0 = s1 + 0x1ba0\n 15178: a1 = s1 + 0x1b80\n 15182: a4 = u64 [s1 + 0x68]\n 15185: u64 [a5 + 0x40] = a4\n 15188: ra = 520, jump @1267\n      : @586 [@dyn 260] (gas: 4)\n 15194: a3 = u64 [s1 + 0x88]\n 15198: a0 = a3 >u 0\n 15200: a1 = u64 [s1 + 0xa0]\n 15204: t0 = 522, jump @1551\n      : @587 [@dyn 261] (gas: 1)\n 15210: jump @589 if a2 != 0\n      : @588 (gas: 1)\n 15213: jump @932\n      : @589 (gas: 3)\n 15216: a0 = s1 + 0x1b60\n 15220: a1 = u64 [s1 + 0xa8]\n 15224: ra = 524, jump @7\n      : @590 [@dyn 262] (gas: 22)\n 15230: a4 = s1 + 0x1878\n 15234: a5 = a4 + 0x200\n 15238: a0 = u64 [a5 + 0xe8]\n 15242: a1 = u64 [a5 + 0xf0]\n 15246: a2 = u64 [a5 + 0xf8]\n 15250: a3 = u64 [a4 + 0x300]\n 15254: u64 [a5 + 0xa0] = a3\n 15258: u64 [a5 + 0x98] = a2\n 15262: u64 [a5 + 0x90] = a1\n 15266: u64 [a5 + 0x88] = a0\n 15270: a0 = u64 [s1 + 0x90]\n 15274: u64 [a5 + 0xc0] = a0\n 15278: a0 = u64 [s1 + 0x98]\n 15282: u64 [a5 + 0xb8] = a0\n 15286: a0 = u64 [s1 + 0xb0]\n 15290: u64 [a5 + 0xb0] = a0\n 15294: a0 = s1 + 0x1b40\n 15298: a1 = s1 + 0x1b20\n 15302: a2 = s1 + 0x1b00\n 15306: a3 = u64 [s1 + 0xb8]\n 15310: u64 [a5 + 0xa8] = a3\n 15314: ra = 526, jump @1348\n      : @591 [@dyn 263] (gas: 11)\n 15320: a1 = s1 + 0x1878\n 15324: a2 = a1 + 0x200\n 15328: a0 = u64 [a2 + 0xe0]\n 15332: u64 [s1 + 0xc0] = a0\n 15336: a0 = u64 [a2 + 0xd8]\n 15340: u64 [s1 + 0xb8] = a0\n 15344: a0 = u64 [a2 + 0xd0]\n 15348: u64 [s1 + 0xb0] = a0\n 15352: a0 = u64 [a2 + 0xc8]\n 15356: u64 [s1 + 0xa8] = a0\n 15360: jump @183\n      : @592 (gas: 18)\n 15363: a0 = sp + 0xffffffffffffffe0\n 15366: a1 = a0 & 0xffffffffffffffe0\n 15369: sp = a1\n 15371: a0 = t1 <u a2\n 15374: t0 = a5 + a0\n 15377: a2 = t0 <u a5\n 15380: a2 = a0 if a0 == 0\n 15383: a2 = a2 + a4\n 15386: a0 = a2 <u a4\n 15389: a0 = a0 + a3\n 15392: u64 [a1 + 0x8] = t0\n 15395: u64 [a1] = t1\n 15397: u64 [a1 + 0x10] = a2\n 15400: u64 [a1 + 0x18] = a0\n 15403: a0 = s1 + 0x7ff\n 15407: a0 = a0 + 0x501\n 15411: u64 [s1 + 0x70] = a1\n 15414: ra = 528, jump @11\n      : @593 [@dyn 264] (gas: 29)\n 15420: a0 = s1 + 0x7ff\n 15424: a0 = a0 + 0x79\n 15427: a4 = a0 + 0x400\n 15431: a5 = u64 [a4 + 0xa0]\n 15435: a3 = u64 [a4 + 0x98]\n 15439: a2 = u64 [a4 + 0x90]\n 15443: a1 = u64 [a4 + 0x88]\n 15447: a4 = u64 [s1 + 0xe8]\n 15451: ra = a5 ^ a4\n 15454: u64 [s1 + 0x58] = a5\n 15457: a5 = a5 <u a4\n 15460: t1 = u64 [s1 + 0xe0]\n 15464: a0 = a3 <u t1\n 15467: u64 [s1 + 0x50] = a0\n 15470: a5 = a0 if ra == 0\n 15473: t2 = u64 [s1 + 0xd8]\n 15477: a0 = a2 ^ t2\n 15480: u64 [s1 + 0x48] = a0\n 15483: u64 [s1 + 0x60] = a2\n 15486: a0 = a2 <u t2\n 15489: u64 [s1 + 0x68] = a1\n 15492: t0 = u64 [s1 + 0xf8]\n 15496: t0 = a1 <u t0\n 15499: a1 = u64 [s1 + 0x48]\n 15502: a0 = t0 if a1 == 0\n 15505: a1 = a3 ^ t1\n 15508: a1 = a1 | ra\n 15511: a5 = a0 if a1 == 0\n 15514: jump @595 if a5 == 0\n      : @594 (gas: 1)\n 15517: jump @917\n      : @595 (gas: 22)\n 15520: a1 = a3 - t1\n 15523: a2 = u64 [s1 + 0x58]\n 15526: a2 = a2 - a4\n 15529: a3 = u64 [s1 + 0x50]\n 15532: a2 = a2 - a3\n 15535: a3 = a1 <u a0\n 15538: a2 = a2 - a3\n 15541: a1 = a1 - a0\n 15544: a0 = u64 [s1 + 0x60]\n 15547: a0 = a0 - t2\n 15550: a0 = a0 - t0\n 15553: a3 = u64 [s1 + 0x68]\n 15556: a4 = u64 [s1 + 0xf8]\n 15560: a3 = a3 - a4\n 15563: a4 = s1 + 0x2878\n 15567: u64 [a4 + 0xc8] = a3\n 15571: u64 [a4 + 0xd0] = a0\n 15575: u64 [a4 + 0xd8] = a1\n 15579: u64 [a4 + 0xe0] = a2\n 15583: a1 = s1 + 0x2940\n 15587: a0 = u64 [s1 + 0x70]\n 15590: ra = 530, jump @12\n      : @596 [@dyn 265] (gas: 6)\n 15596: a0 = u64 [s1 + 0xd0]\n 15600: a0 = a0 & 0x3\n 15603: a3 = u64 [s1 + 0xb8]\n 15607: a2 = u64 [s1 + 0xb0]\n 15611: a5 = u64 [s1 + 0xa8]\n 15615: jump @601 if a0 == 0\n      : @597 (gas: 1)\n 15619: jump @606 if a0 != 1\n      : @598 (gas: 20)\n 15624: a0 = sp + 0xffffffffffffffe0\n 15627: a1 = a0 & 0xffffffffffffffe0\n 15630: sp = a1\n 15632: a4 = u64 [s1 + 0x90]\n 15636: a0 = a4 <u a5\n 15639: a5 = a2 + a0\n 15642: a2 = a5 <u a2\n 15645: a2 = a0 if a0 == 0\n 15648: a2 = a2 + a3\n 15651: a0 = a2 <u a3\n 15654: a3 = u64 [s1 + 0x98]\n 15658: a0 = a0 + a3\n 15661: u64 [s1 + 0xf0] = a1\n 15665: u64 [a1 + 0x8] = a5\n 15668: u64 [a1] = a4\n 15670: u64 [a1 + 0x10] = a2\n 15673: u64 [a1 + 0x18] = a0\n 15676: a0 = s1 + 0x7ff\n 15680: a0 = a0 + 0x4a1\n 15684: ra = 532, jump @11\n      : @599 [@dyn 266] (gas: 23)\n 15690: a2 = s1 + 0x7ff\n 15694: a2 = a2 + 0x79\n 15697: a4 = a2 + 0x400\n 15701: a0 = u64 [a4 + 0x30]\n 15704: a1 = u64 [a4 + 0x28]\n 15707: t0 = u64 [a2 + 0x440]\n 15711: a3 = u64 [a4 + 0x38]\n 15714: a4 = u64 [s1 + 0xd8]\n 15718: a4 = a4 + a0\n 15721: a5 = u64 [s1 + 0xf8]\n 15725: a5 = a5 + a1\n 15728: a1 = a5 <u a1\n 15731: a4 = a4 + a1\n 15734: a2 = a4 ^ a0\n 15737: a0 = a4 <u a0\n 15740: a0 = a1 if a2 == 0\n 15743: a1 = u64 [s1 + 0xe0]\n 15747: a1 = a1 + a3\n 15750: a2 = u64 [s1 + 0xe8]\n 15754: t0 = t0 + a2\n 15757: a2 = a1 <u a3\n 15760: a2 = a2 + t0\n 15763: t0 = 534, jump @1599\n      : @600 [@dyn 267] (gas: 6)\n 15769: u64 [a3 + 0x8] = a5\n 15772: u64 [a3 + 0x10] = a4\n 15775: u64 [a3 + 0x18] = a0\n 15778: u64 [a3 + 0x20] = a1\n 15781: a0 = 0x2980\n 15785: jump @604\n      : @601 (gas: 4)\n 15787: a0 = s1 + 0x7ff\n 15791: a0 = a0 + 0x481\n 15795: a1 = u64 [s1 + 0xf0]\n 15799: ra = 536, jump @11\n      : @602 [@dyn 268] (gas: 23)\n 15805: a2 = s1 + 0x7ff\n 15809: a2 = a2 + 0x79\n 15812: a4 = a2 + 0x400\n 15816: a0 = u64 [a4 + 0x10]\n 15819: a1 = u64 [a4 + 0x8]\n 15822: t0 = u64 [a2 + 0x420]\n 15826: a3 = u64 [a4 + 0x18]\n 15829: a4 = u64 [s1 + 0xd8]\n 15833: a4 = a4 + a0\n 15836: a5 = u64 [s1 + 0xf8]\n 15840: a5 = a5 + a1\n 15843: a1 = a5 <u a1\n 15846: a4 = a4 + a1\n 15849: a2 = a4 ^ a0\n 15852: a0 = a4 <u a0\n 15855: a0 = a1 if a2 == 0\n 15858: a1 = u64 [s1 + 0xe0]\n 15862: a1 = a1 + a3\n 15865: a2 = a1 <u a3\n 15868: a3 = u64 [s1 + 0xe8]\n 15872: t0 = t0 + a3\n 15875: a2 = a2 + t0\n 15878: t0 = 538, jump @1599\n      : @603 [@dyn 269] (gas: 6)\n 15884: u64 [a3 + 0x28] = a5\n 15887: u64 [a3 + 0x30] = a4\n 15890: u64 [a3 + 0x38] = a0\n 15893: u64 [a3 + 0x40] = a1\n 15896: a0 = 0x29a0\n 15900: fallthrough\n      : @604 (gas: 3)\n 15901: a1 = s1 + a0\n 15904: a0 = u64 [s1 + 0xf0]\n 15908: ra = 540, jump @12\n      : @605 [@dyn 270] (gas: 1)\n 15914: jump @609\n      : @606 (gas: 6)\n 15916: a0 = u64 [s1 + 0xa0]\n 15920: ra = 0x21e\n 15924: ecalli 4 // 'caller'\n 15926: a2 = u64 [s1 + 0xc8]\n 15930: t0 = 0x220\n 15934: jump @1546\n      : @607 [@dyn 271] (gas: 2)\n 15937: a2 = u64 [s1 + 0xc8]\n 15941: t0 = 544, jump @1546\n      : @608 [@dyn 272] (gas: 20)\n 15947: a4 = s1 + 0x7ff\n 15951: a4 = a4 + 0x79\n 15954: a2 = u64 [s1 + 0xe8]\n 15958: a5 = a4 + 0x300\n 15962: u64 [a5 + 0xe0] = a2\n 15966: a2 = u64 [s1 + 0xe0]\n 15970: u64 [a5 + 0xd8] = a2\n 15974: a2 = u64 [s1 + 0xd8]\n 15978: u64 [a5 + 0xd0] = a2\n 15982: a2 = u64 [s1 + 0xf8]\n 15986: u64 [a5 + 0xc8] = a2\n 15990: u64 [a4 + 1024] = 0\n 15994: u64 [a5 + 0xf8] = a1\n 15998: u64 [a5 + 0xf0] = a0\n 16002: a0 = s1 + 0x7ff\n 16006: a0 = a0 + 0x461\n 16010: a1 = s1 + 0x7ff\n 16014: a1 = a1 + 0x441\n 16018: u64 [a5 + 0xe8] = a3\n 16022: ra = 546, jump @1356\n      : @609 [@dyn 273] (gas: 4)\n 16028: a0 = s1 + 0x7ff\n 16032: a0 = a0 + 0x421\n 16036: a1 = 0x40\n 16039: ra = 548, jump @7\n      : @610 [@dyn 274] (gas: 8)\n 16045: a3 = s1 + 0x7ff\n 16049: a3 = a3 + 0x79\n 16052: a4 = a3 + 0x300\n 16056: a0 = u64 [a4 + 0xc0]\n 16060: a1 = u64 [a4 + 0xb8]\n 16064: a2 = u64 [a4 + 0xb0]\n 16068: a3 = u64 [a4 + 0xa8]\n 16072: t0 = 550, jump @1553\n      : @611 [@dyn 275] (gas: 1)\n 16078: jump @613 if a0 == 0\n      : @612 (gas: 1)\n 16081: jump @843\n      : @613 (gas: 16)\n 16084: a0 = u64 [s1 + 0xf8]\n 16088: a2 = s1 + 0x7ff\n 16092: a2 = a2 + 0x79\n 16095: a4 = a2 + 0x300\n 16099: u64 [a4 + 0x88] = a0\n 16103: a0 = u64 [s1 + 0xd8]\n 16107: u64 [a4 + 0x90] = a0\n 16111: a0 = u64 [s1 + 0xe0]\n 16115: u64 [a4 + 0x98] = a0\n 16119: a1 = s1 + 0x7ff\n 16123: a1 = a1 + 0x401\n 16127: a0 = u64 [s1 + 0xe8]\n 16131: u64 [a4 + 0xa0] = a0\n 16135: a0 = a3\n 16137: u64 [s1 + 0xf8] = a3\n 16141: ra = 552, jump @9\n      : @614 [@dyn 276] (gas: 6)\n 16147: a0 = u64 [s1 + 0xa0]\n 16151: ra = 0x22a\n 16155: ecalli 4 // 'caller'\n 16157: a2 = u64 [s1 + 0xc8]\n 16161: t0 = 0x22c\n 16165: jump @1545\n      : @615 [@dyn 277] (gas: 2)\n 16168: a2 = u64 [s1 + 0xc8]\n 16172: t0 = 556, jump @1545\n      : @616 [@dyn 278] (gas: 37)\n 16178: a5 = s1 + 0x7ff\n 16182: a5 = a5 + 0x79\n 16185: u64 [a5 + 800] = 0\n 16189: u64 [a5 + 792] = 0\n 16193: a3 = u64 [s1 + 0x80]\n 16197: u64 [a5 + 0x308] = a3\n 16201: a3 = u64 [s1 + 0xc0]\n 16205: u64 [a5 + 0x328] = a3\n 16209: a3 = u64 [0x20020]\n 16214: a4 = u64 [0x20028]\n 16219: u64 [a5 + 784] = 0\n 16223: u64 [a5 + 832] = 0\n 16227: u64 [a5 + 0x380] = a3\n 16231: u64 [a5 + 0x378] = a4\n 16235: a3 = u64 [0x20030]\n 16240: a4 = u64 [0x20038]\n 16245: u64 [a5 + 824] = 0\n 16249: u64 [a5 + 816] = 0\n 16253: u64 [a5 + 0x370] = a3\n 16257: a3 = a5 + 0x300\n 16261: u64 [a3 + 0x68] = a4\n 16264: u64 [a3 + 0x58] = a2\n 16267: u64 [a3 + 0x50] = a1\n 16270: u64 [a3 + 0x48] = a0\n 16273: a0 = a5\n 16275: a1 = 0x20\n 16278: a2 = s1 + 0x7ff\n 16282: a2 = a2 + 0x3e1\n 16286: a3 = s1 + 0x7ff\n 16290: a3 = a3 + 0x3c1\n 16294: a4 = s1 + 0x7ff\n 16298: a4 = a4 + 0x3a1\n 16302: a5 = s1 + 0x7ff\n 16306: a5 = a5 + 0x381\n 16310: u64 [a0 + 864] = 0\n 16314: a0 = u64 [s1 + 0xf8]\n 16318: ra = 558, jump @17\n      : @617 [@dyn 279] (gas: 8)\n 16324: a0 = 0\n 16326: a1 = u64 [s1 + 0x88]\n 16330: a2 = 0\n 16332: ecalli 14 // 'seal_return'\n 16334: a1 = 0x20160\n 16339: i32 a1 = a1 + 0\n 16341: a0 = 0\n 16343: jump @1205\n      : @618 (gas: 19)\n 16346: a0 = u64 [s1 + 0xf8]\n 16350: a2 = u64 [s1 + 0x88]\n 16354: a0 = a0 | a2\n 16357: a2 = u64 [s1 + 0x78]\n 16360: a0 = a2 if a4 == 0\n 16363: t1 = u64 [s1 + 0xa0]\n 16367: a3 = t1\n 16369: t0 = u64 [s1 + 0xc8]\n 16373: a3 = a0 if t0 != 0\n 16376: u64 [s1 + 0xf8] = a3\n 16380: a0 = u64 [s1 + 0xc0]\n 16384: a2 = u64 [s1 + 0x90]\n 16388: a0 = a0 | a2\n 16391: a2 = u64 [s1 + 0x80]\n 16395: a0 = a2 if a4 == 0\n 16398: a5 = u64 [s1 + 0xb0]\n 16402: a3 = a5\n 16404: a3 = a0 if t0 != 0\n 16407: t0 = 560, jump @1576\n      : @619 [@dyn 280] (gas: 1)\n 16413: ra = 562, jump @1601\n      : @620 [@dyn 281] (gas: 6)\n 16419: u64 [s1 + 0x90] = a0\n 16423: u64 [s1 + 0x80] = a1\n 16427: a0 = u64 [s1 + 0xa8]\n 16431: a1 = u64 [s1 + 0xb8]\n 16435: a2 = u64 [s1 + 0xf0]\n 16439: ra = 564, jump @1601\n      : @621 [@dyn 282] (gas: 7)\n 16445: u64 [s1 + 0x78] = a0\n 16448: u64 [s1 + 0x88] = a1\n 16452: a1 = u64 [s1 + 0xf0]\n 16456: a2 = 0x80 - a1\n 16460: a0 = u64 [s1 + 0xb0]\n 16464: a1 = u64 [s1 + 0xa0]\n 16468: ra = 566, jump @1606\n      : @622 [@dyn 283] (gas: 21)\n 16474: a2 = u64 [s1 + 0x88]\n 16478: a1 = a1 | a2\n 16481: a3 = u64 [s1 + 0xf0]\n 16485: a4 = a3 <u 0x80\n 16489: u64 [s1 + 0x88] = a4\n 16493: a2 = u64 [s1 + 0x80]\n 16497: a1 = a2 if a4 == 0\n 16500: a2 = u64 [s1 + 0xb8]\n 16504: a2 = a1 if a3 != 0\n 16507: u64 [s1 + 0xb8] = a2\n 16511: a1 = u64 [s1 + 0x78]\n 16514: a0 = a0 | a1\n 16517: a1 = u64 [s1 + 0x90]\n 16521: a0 = a1 if a4 == 0\n 16524: a1 = u64 [s1 + 0xa8]\n 16528: a1 = a0 if a3 != 0\n 16531: a2 = a3\n 16533: u64 [s1 + 0xa8] = a1\n 16537: a0 = u64 [s1 + 0xb0]\n 16541: a1 = u64 [s1 + 0xa0]\n 16545: ra = 568, jump @1601\n      : @623 [@dyn 284] (gas: 3)\n 16551: a4 = 0\n 16553: a5 = 0\n 16555: t0 = 570, jump @1582\n      : @624 [@dyn 285] (gas: 3)\n 16561: t1 = u64 [s1 + 0xb8]\n 16565: t2 = u64 [s1 + 0xa8]\n 16569: fallthrough\n      : @625 (gas: 89)\n 16570: u64 [s1 + 0xb8] = a4\n 16574: a2 = t2 >> 0x3f\n 16577: a3 = t1 << 0x1\n 16580: t0 = a3 | a2\n 16583: a3 = t2 << 0x1\n 16586: a4 = u64 [s1 + 0xf8]\n 16590: a4 = a4 >> 0x3f\n 16593: a3 = a3 | a4\n 16596: u64 [s1 + 0xa8] = a3\n 16600: a2 = u64 [s1 + 0x88]\n 16604: t2 = a1\n 16606: u64 [s1 + 0xb0] = t0\n 16610: a1 = a2 ^ t0\n 16613: ra = t1\n 16615: t1 = a2 <u t0\n 16618: a4 = u64 [s1 + 0x90]\n 16622: t0 = a4 <u a3\n 16625: t0 = t1 if a1 != 0\n 16628: a1 = t2 << 0x1\n 16631: a3 = a0 >> 0x3f\n 16634: a1 = a1 | a3\n 16637: u64 [s1 + 0xa0] = a1\n 16641: a3 = ra >> 0x3f\n 16644: a0 = a0 << 0x1\n 16647: a3 = a3 | a0\n 16650: a0 = u64 [s1 + 0xf8]\n 16654: a0 = a0 << 0x1\n 16657: a4 = u64 [s1 + 0xc0]\n 16661: a1 = a4 >> 0x3f\n 16664: ra = a0 | a1\n 16667: a1 = a4 << 0x1\n 16670: a4 = u64 [s1 + 0xc8]\n 16674: t1 = a4 >> 0x3f\n 16677: t1 = a1 | t1\n 16680: a1 = a4 << 0x1\n 16683: a4 = u64 [s1 + 0xe8]\n 16687: t2 = a4 >> 0x3f\n 16690: a1 = a1 | t2\n 16693: a4 = a4 << 0x1\n 16696: a0 = u64 [s1 + 0xb8]\n 16700: a4 = a4 | a0\n 16703: u64 [s1 + 0xe8] = a4\n 16707: a1 = a1 | a5\n 16710: u64 [s1 + 0xc8] = a1\n 16714: a1 = a5 | t1\n 16717: u64 [s1 + 0xc0] = a1\n 16721: a0 = a5 | ra\n 16724: u64 [s1 + 0xf8] = a0\n 16728: a0 = a2 - a3\n 16731: a0 = a0 <u t0\n 16734: a1 = a2 <u a3\n 16737: t0 = u64 [s1 + 0xa0]\n 16741: a4 = a2 - t0\n 16744: a4 = a4 - a1\n 16747: a4 = a4 - a0\n 16750: a5 = a4 >>a 0x3f\n 16753: a0 = u64 [s1 + 0x98]\n 16757: a0 = a0 & a5\n 16760: a1 = u64 [s1 + 0xa8]\n 16764: t2 = a1 - a0\n 16767: a1 = a1 <u a0\n 16770: a0 = u64 [s1 + 0xb0]\n 16774: t1 = a0 - a1\n 16777: a1 = 0 if a0 != 0\n 16779: a0 = a3 - a1\n 16782: a1 = a3 <u a1\n 16785: a1 = t0 - a1\n 16788: a3 = u64 [s1 + 0xf0]\n 16792: ra = u64 [s1 + 0xe0]\n 16796: a2 = a3 | ra\n 16799: a2 = a2 <u 0x1\n 16802: a4 = u64 [s1 + 0xd0]\n 16806: t0 = a4 <u a2\n 16809: a2 = a4 - a2\n 16812: a4 = a3 <u 0x1\n 16815: ra = ra - a4\n 16818: a4 = u64 [s1 + 0xd8]\n 16822: a4 = a4 - t0\n 16825: a3 = a3 + 0xffffffffffffffff\n 16828: u64 [s1 + 0xe0] = ra\n 16832: u64 [s1 + 0xd8] = a4\n 16836: t0 = ra | a4\n 16839: u64 [s1 + 0xf0] = a3\n 16843: a4 = a3 | a2\n 16846: a3 = a4 | t0\n 16849: a4 = a5 & 0x1\n 16852: u64 [s1 + 0xd0] = a2\n 16856: a5 = 0\n 16858: jump @625 if a3 != 0\n      : @626 (gas: 4)\n 16862: a0 = u64 [s1 + 0xe8]\n 16866: a0 = a0 << 0x1\n 16869: a4 = a4 | a0\n 16872: fallthrough\n      : @627 (gas: 3)\n 16873: a0 = a4 & 0xffffffffffffffff\n 16876: a1 = u64 [s1 + 0x38]\n 16879: jump @629 if a1 == a0\n      : @628 (gas: 1)\n 16882: jump @900\n      : @629 (gas: 9)\n 16885: a0 = 0x30160\n 16890: u64 [s1 + 0xb0] = a0\n 16894: i32 a0 = a0 + 0\n 16896: u64 [s1 + 0xa8] = a0\n 16900: ra = 0x23c\n 16904: ecalli 4 // 'caller'\n 16906: a2 = u64 [s1 + 0xb0]\n 16910: t0 = 0x23e\n 16914: jump @1537\n      : @630 [@dyn 286] (gas: 2)\n 16917: a2 = u64 [s1 + 0xb0]\n 16921: t0 = 574, jump @1537\n      : @631 [@dyn 287] (gas: 9)\n 16927: u64 [a2 + 480] = 0\n 16931: a4 = a2 + 0x100\n 16935: u64 [a4 + 0xd8] = a1\n 16939: u64 [a4 + 0xd0] = a0\n 16943: a1 = s1 + 0x7ff\n 16947: a1 = a1 + 0x241\n 16951: u64 [a4 + 0xc8] = a3\n 16955: a0 = 0\n 16957: ra = 576, jump @9\n      : @632 [@dyn 288] (gas: 11)\n 16963: a1 = s1 + 0x7ff\n 16967: a1 = a1 + 0x79\n 16970: u64 [a1 + 448] = 0\n 16974: u64 [a1 + 440] = 0\n 16978: u64 [a1 + 424] = 0x2\n 16983: a2 = a1\n 16985: a0 = 0x20\n 16988: a1 = s1 + 0x7ff\n 16992: a1 = a1 + 0x221\n 16996: u64 [a2 + 432] = 0\n 17000: ra = 578, jump @9\n      : @633 [@dyn 289] (gas: 7)\n 17006: a0 = sp + 0xffffffffffffffe0\n 17009: a0 = a0 & 0xffffffffffffffe0\n 17012: u64 [s1 + 0x70] = a0\n 17015: sp = a0\n 17017: a1 = 0x20150\n 17022: a0 = i32 [0x20150]\n 17027: jump @635 if a0 >u 63\n      : @634 (gas: 2)\n 17031: u32 [0x20150] = 0x40\n 17037: fallthrough\n      : @635 (gas: 14)\n 17038: a0 = sp + 0xffffffffffffffe0\n 17041: a2 = a0 & 0xffffffffffffffe0\n 17044: u64 [s1 + 0xf8] = a2\n 17048: sp = a2\n 17050: a0 = 0x20160\n 17055: i32 a0 = a0 + 0\n 17057: i32 a2 = a2 + 0\n 17059: u64 [s1 + 0xe0] = a1\n 17063: a1 = 0x40\n 17066: u64 [s1 + 0xe8] = a0\n 17070: ra = 0x244\n 17074: ecalli 9 // 'hash_keccak_256'\n 17076: t0 = 0x246\n 17080: jump @1598\n      : @636 [@dyn 290] (gas: 1)\n 17083: t0 = 582, jump @1598\n      : @637 [@dyn 291] (gas: 18)\n 17089: a4 = reverse a1\n 17091: a1 = reverse a2\n 17093: a2 = reverse a3\n 17095: a0 = u64 [s1 + 0x70]\n 17098: u64 [s1 + 0xf0] = a2\n 17102: u64 [a0 + 0x18] = a2\n 17105: u64 [s1 + 0xf8] = a1\n 17109: u64 [a0 + 0x10] = a1\n 17112: u64 [s1 + 0xd8] = a4\n 17116: u64 [a0 + 0x8] = a4\n 17119: u64 [s1 + 0xd0] = a5\n 17123: u64 [a0] = a5\n 17125: a0 = u64 [s1 + 0xa8]\n 17129: ra = 0x248\n 17133: ecalli 4 // 'caller'\n 17135: a2 = u64 [s1 + 0xb0]\n 17139: t0 = 0x24a\n 17143: jump @1537\n      : @638 [@dyn 292] (gas: 2)\n 17146: a2 = u64 [s1 + 0xb0]\n 17150: t0 = 586, jump @1537\n      : @639 [@dyn 293] (gas: 9)\n 17156: u64 [a2 + 416] = 0\n 17160: a4 = a2 + 0x100\n 17164: u64 [a4 + 0x98] = a1\n 17168: u64 [a4 + 0x90] = a0\n 17172: a1 = s1 + 0x7ff\n 17176: a1 = a1 + 0x201\n 17180: u64 [a4 + 0x88] = a3\n 17184: a0 = 0\n 17186: ra = 588, jump @9\n      : @640 [@dyn 294] (gas: 11)\n 17192: a1 = s1 + 0x7ff\n 17196: a1 = a1 + 0x79\n 17199: u64 [a1 + 384] = 0\n 17203: u64 [a1 + 376] = 0\n 17207: u64 [a1 + 360] = 0x4\n 17212: a2 = a1\n 17214: a0 = 0x20\n 17217: a1 = s1 + 0x7ff\n 17221: a1 = a1 + 0x1e1\n 17225: u64 [a2 + 368] = 0\n 17229: ra = 590, jump @9\n      : @641 [@dyn 295] (gas: 3)\n 17235: a1 = u64 [s1 + 0xe0]\n 17239: a0 = i32 [a1]\n 17241: jump @643 if a0 >u 63\n      : @642 (gas: 2)\n 17245: u32 [a1 + 0] = 0x40\n 17248: fallthrough\n      : @643 (gas: 4)\n 17249: a0 = sp + 0xffffffffffffffe0\n 17252: a0 = a0 & 0xffffffffffffffe0\n 17255: u64 [s1 + 0xc8] = a0\n 17259: t0 = 592, jump @1558\n      : @644 [@dyn 296] (gas: 5)\n 17265: ra = 0x252\n 17269: ecalli 9 // 'hash_keccak_256'\n 17271: a3 = u64 [s1 + 0xc8]\n 17275: t0 = 0x254\n 17279: jump @1573\n      : @645 [@dyn 297] (gas: 2)\n 17282: a3 = u64 [s1 + 0xc8]\n 17286: t0 = 596, jump @1573\n      : @646 [@dyn 298] (gas: 9)\n 17292: a5 = a4 + 0x700\n 17296: u64 [a5 + 0x80] = a3\n 17300: u64 [a5 + 0x78] = a2\n 17303: u64 [a5 + 0x70] = a1\n 17306: u64 [a5 + 0x68] = a0\n 17309: a0 = s1 + 0x7ff\n 17313: a0 = a0 + 0x1c1\n 17317: a1 = s1 + 0x27e0\n 17321: ra = 598, jump @11\n      : @647 [@dyn 299] (gas: 10)\n 17327: a0 = s1 + 0x7ff\n 17331: a0 = a0 + 0x79\n 17334: a0 = u32 [a0 + 0x148]\n 17338: u64 [s1 + 0xa0] = a0\n 17342: a0 = u64 [s1 + 0xa8]\n 17346: ra = 0x258\n 17350: ecalli 4 // 'caller'\n 17352: a2 = u64 [s1 + 0xb0]\n 17356: t0 = 0x25a\n 17360: jump @1537\n      : @648 [@dyn 300] (gas: 2)\n 17363: a2 = u64 [s1 + 0xb0]\n 17367: t0 = 602, jump @1537\n      : @649 [@dyn 301] (gas: 9)\n 17373: u64 [a2 + 320] = 0\n 17377: a4 = a2 + 0x100\n 17381: u64 [a4 + 0x38] = a1\n 17384: u64 [a4 + 0x30] = a0\n 17387: a1 = s1 + 0x7ff\n 17391: a1 = a1 + 0x1a1\n 17395: u64 [a4 + 0x28] = a3\n 17398: a0 = 0\n 17400: ra = 604, jump @9\n      : @650 [@dyn 302] (gas: 11)\n 17406: a1 = s1 + 0x7ff\n 17410: a1 = a1 + 0x79\n 17413: u64 [a1 + 288] = 0\n 17417: u64 [a1 + 280] = 0\n 17421: u64 [a1 + 264] = 0x5\n 17426: a2 = a1\n 17428: a0 = 0x20\n 17431: a1 = s1 + 0x7ff\n 17435: a1 = a1 + 0x181\n 17439: u64 [a2 + 272] = 0\n 17443: ra = 606, jump @9\n      : @651 [@dyn 303] (gas: 3)\n 17449: a1 = u64 [s1 + 0xe0]\n 17453: a0 = i32 [a1]\n 17455: jump @653 if a0 >u 63\n      : @652 (gas: 2)\n 17459: u32 [a1 + 0] = 0x40\n 17462: fallthrough\n      : @653 (gas: 4)\n 17463: a0 = sp + 0xffffffffffffffe0\n 17466: a0 = a0 & 0xffffffffffffffe0\n 17469: u64 [s1 + 0xc8] = a0\n 17473: t0 = 608, jump @1558\n      : @654 [@dyn 304] (gas: 4)\n 17479: ra = 0x262\n 17483: ecalli 9 // 'hash_keccak_256'\n 17485: t0 = 0x264\n 17489: jump @1583\n      : @655 [@dyn 305] (gas: 1)\n 17492: t0 = 612, jump @1583\n      : @656 [@dyn 306] (gas: 18)\n 17498: u64 [s1 + 0x98] = a0\n 17502: a0 = reverse a3\n 17504: u64 [s1 + 0x90] = a0\n 17508: a0 = sp + 0xffffffffffffffe0\n 17511: a0 = a0 & 0xffffffffffffffe0\n 17514: u64 [s1 + 0xc8] = a0\n 17518: sp = a0\n 17520: a2 = s1 + 0x7ff\n 17524: a2 = a2 + 0x79\n 17527: u64 [a2 + 256] = 0\n 17531: u64 [a2 + 248] = 0\n 17535: u64 [a2 + 240] = 0\n 17539: a1 = s1 + 0x7ff\n 17543: a1 = a1 + 0x161\n 17547: a0 = u64 [s1 + 0x38]\n 17550: u64 [a2 + 0xe8] = a0\n 17554: a0 = 0\n 17556: ra = 614, jump @9\n      : @657 [@dyn 307] (gas: 15)\n 17562: a0 = u64 [s1 + 0x90]\n 17566: a1 = s1 + 0x7ff\n 17570: a1 = a1 + 0x79\n 17573: u64 [a1 + 0xe0] = a0\n 17577: a0 = u64 [s1 + 0x98]\n 17581: u64 [a1 + 0xd8] = a0\n 17585: a0 = u64 [s1 + 0xb8]\n 17589: u64 [a1 + 0xd0] = a0\n 17593: a3 = a1\n 17595: a0 = 0x20\n 17598: a1 = s1 + 0x7ff\n 17602: a1 = a1 + 0x141\n 17606: a2 = u64 [s1 + 0xc0]\n 17610: u64 [a3 + 0xc8] = a2\n 17614: ra = 616, jump @9\n      : @658 [@dyn 308] (gas: 3)\n 17620: a1 = u64 [s1 + 0xe0]\n 17624: a0 = i32 [a1]\n 17626: jump @660 if a0 >u 63\n      : @659 (gas: 2)\n 17630: u32 [a1 + 0] = 0x40\n 17633: fallthrough\n      : @660 (gas: 6)\n 17634: a0 = 0xffffffff\n 17644: u64 [s1 + 0x98] = a0\n 17648: a0 = sp + 0xffffffffffffffe0\n 17651: a0 = a0 & 0xffffffffffffffe0\n 17654: u64 [s1 + 0xc0] = a0\n 17658: t0 = 618, jump @1558\n      : @661 [@dyn 309] (gas: 5)\n 17664: ra = 0x26c\n 17668: ecalli 9 // 'hash_keccak_256'\n 17670: a3 = u64 [s1 + 0xc0]\n 17674: t0 = 0x26e\n 17678: jump @1562\n      : @662 [@dyn 310] (gas: 2)\n 17681: a3 = u64 [s1 + 0xc0]\n 17685: t0 = 622, jump @1562\n      : @663 [@dyn 311] (gas: 12)\n 17691: a1 = u64 [s1 + 0xc8]\n 17695: u64 [a1 + 0x18] = a3\n 17698: u64 [a1 + 0x10] = a2\n 17701: u64 [a1 + 0x8] = a4\n 17704: u64 [a1] = a0\n 17706: a0 = sp + 0xffffffffffffffe0\n 17709: a0 = a0 & 0xffffffffffffffe0\n 17712: u64 [s1 + 0x30] = a0\n 17715: sp = a0\n 17717: a0 = s1 + 0x7ff\n 17721: a0 = a0 + 0x121\n 17725: ra = 624, jump @11\n      : @664 [@dyn 312] (gas: 31)\n 17731: a3 = 0x1\n 17734: u64 [s1 + 96] = 0\n 17737: u64 [s1 + 104] = 0\n 17740: a5 = 0\n 17742: a1 = s1 + 0x7ff\n 17746: a1 = a1 + 0x79\n 17749: a0 = u64 [a1 + 0xc0]\n 17753: u64 [s1 + 0x90] = a0\n 17757: a0 = u64 [a1 + 0xb8]\n 17761: u64 [s1 + 0x88] = a0\n 17765: a2 = u64 [s1 + 0xd0]\n 17769: a2 = a2 + a3\n 17772: a0 = a2 <u a3\n 17775: a4 = u64 [s1 + 0xd8]\n 17779: a0 = a0 + a4\n 17782: u64 [s1 + 0x58] = a2\n 17785: u64 [s1 + 0x50] = a0\n 17788: a0 = a0 | a2\n 17791: a0 = a0 <u a3\n 17794: a2 = u64 [s1 + 0xf8]\n 17798: a0 = a0 + a2\n 17801: u64 [s1 + 0x48] = a0\n 17804: a0 = a0 <u a2\n 17807: a2 = u64 [s1 + 0xf0]\n 17811: a0 = a0 + a2\n 17814: u64 [s1 + 0x40] = a0\n 17817: a0 = u64 [a1 + 0xb0]\n 17821: u64 [s1 + 0x80] = a0\n 17825: a0 = u64 [a1 + 0xa8]\n 17829: u64 [s1 + 0x78] = a0\n 17832: fallthrough\n      : @665 (gas: 10)\n 17833: a1 = 0x1\n 17836: a1 = a1 if a5 == 0\n 17839: a0 = u64 [s1 + 0xa0]\n 17843: a0 = a0 <u a3\n 17846: a0 = a0 ^ 0x1\n 17849: a2 = 0x1\n 17852: a2 = a0 if a5 == 0\n 17855: a0 = 0\n 17857: a2 = a1 if a0 != 0\n 17860: jump @700 if a2 == 0\n      : @666 (gas: 9)\n 17864: u64 [s1 + 184] = 0\n 17868: u64 [s1 + 240] = 0\n 17872: u64 [s1 + 0xf8] = a3\n 17876: a0 = u64 [s1 + 0xa8]\n 17880: ra = 0x272\n 17884: ecalli 4 // 'caller'\n 17886: a2 = u64 [s1 + 0xb0]\n 17890: t0 = 0x274\n 17894: jump @1537\n      : @667 [@dyn 313] (gas: 2)\n 17897: a2 = u64 [s1 + 0xb0]\n 17901: t0 = 628, jump @1537\n      : @668 [@dyn 314] (gas: 8)\n 17907: u64 [a2 + 160] = 0\n 17911: u64 [a2 + 0x98] = a1\n 17915: u64 [a2 + 0x90] = a0\n 17919: a1 = s1 + 0x7ff\n 17923: a1 = a1 + 0x101\n 17927: u64 [a2 + 0x88] = a3\n 17931: a0 = 0\n 17933: ra = 630, jump @9\n      : @669 [@dyn 315] (gas: 11)\n 17939: a0 = s1 + 0x7ff\n 17943: a0 = a0 + 0x79\n 17946: u64 [a0 + 128] = 0\n 17950: u64 [a0 + 120] = 0\n 17953: u64 [a0 + 112] = 0\n 17956: a3 = a0\n 17958: a0 = 0x20\n 17961: a1 = s1 + 0x7ff\n 17965: a1 = a1 + 0xe1\n 17969: u64 [a3 + 104] = 0x3\n 17973: ra = 632, jump @9\n      : @670 [@dyn 316] (gas: 3)\n 17979: a1 = u64 [s1 + 0xe0]\n 17983: a0 = i32 [a1]\n 17985: jump @672 if a0 >u 63\n      : @671 (gas: 2)\n 17989: u32 [a1 + 0] = 0x40\n 17992: fallthrough\n      : @672 (gas: 4)\n 17993: a0 = sp + 0xffffffffffffffe0\n 17996: a0 = a0 & 0xffffffffffffffe0\n 17999: u64 [s1 + 0xd8] = a0\n 18003: t0 = 634, jump @1558\n      : @673 [@dyn 317] (gas: 4)\n 18009: ra = 0x27c\n 18013: ecalli 9 // 'hash_keccak_256'\n 18015: t0 = 0x27e\n 18019: jump @1567\n      : @674 [@dyn 318] (gas: 1)\n 18022: t0 = 638, jump @1567\n      : @675 [@dyn 319] (gas: 12)\n 18028: a2 = s1 + 0x7ff\n 18032: a2 = a2 + 0x79\n 18035: a0 = u64 [s1 + 0xf0]\n 18039: u64 [a2 + 0x60] = a0\n 18042: u64 [a2 + 0x58] = a0\n 18045: u64 [a2 + 0x50] = a0\n 18048: a1 = s1 + 0x7ff\n 18052: a1 = a1 + 0xc1\n 18056: a0 = u64 [s1 + 0xf8]\n 18060: u64 [a2 + 0x48] = a0\n 18063: a0 = 0\n 18065: ra = 640, jump @9\n      : @676 [@dyn 320] (gas: 15)\n 18071: a0 = u64 [s1 + 0xc0]\n 18075: a1 = s1 + 0x7ff\n 18079: a1 = a1 + 0x79\n 18082: u64 [a1 + 0x40] = a0\n 18085: a0 = u64 [s1 + 0xc8]\n 18089: u64 [a1 + 0x38] = a0\n 18092: a0 = u64 [s1 + 0xd0]\n 18096: u64 [a1 + 0x30] = a0\n 18099: a3 = a1\n 18101: a0 = 0x20\n 18104: a1 = s1 + 0x7ff\n 18108: a1 = a1 + 0xa1\n 18112: a2 = u64 [s1 + 0xd8]\n 18116: u64 [a3 + 0x28] = a2\n 18119: ra = 642, jump @9\n      : @677 [@dyn 321] (gas: 3)\n 18125: a1 = u64 [s1 + 0xe0]\n 18129: a0 = i32 [a1]\n 18131: jump @679 if a0 >u 63\n      : @678 (gas: 2)\n 18135: u32 [a1 + 0] = 0x40\n 18138: fallthrough\n      : @679 (gas: 4)\n 18139: a0 = sp + 0xffffffffffffffe0\n 18142: a0 = a0 & 0xffffffffffffffe0\n 18145: u64 [s1 + 0xd8] = a0\n 18149: t0 = 644, jump @1558\n      : @680 [@dyn 322] (gas: 5)\n 18155: ra = 0x286\n 18159: ecalli 9 // 'hash_keccak_256'\n 18161: a3 = u64 [s1 + 0xd8]\n 18165: t0 = 0x288\n 18169: jump @1539\n      : @681 [@dyn 323] (gas: 2)\n 18172: a3 = u64 [s1 + 0xd8]\n 18176: t0 = 648, jump @1539\n      : @682 [@dyn 324] (gas: 10)\n 18182: a1 = s1 + 0x2078\n 18186: a5 = a1 + 0x700\n 18190: u64 [a5 + 0x88] = a3\n 18194: u64 [a5 + 0x90] = a2\n 18198: u64 [a5 + 0x98] = a4\n 18202: u64 [a5 + 0xa0] = a0\n 18206: a0 = s1 + 0x7ff\n 18210: a0 = a0 + 0x81\n 18214: a1 = s1 + 0x2800\n 18218: ra = 650, jump @11\n      : @683 [@dyn 325] (gas: 5)\n 18224: a1 = s1 + 0x7ff\n 18228: a1 = a1 + 0x79\n 18231: a0 = u64 [a1 + 0x10]\n 18234: a0 = a0 & 0xff\n 18238: jump @690 if a0 != 0\n      : @684 (gas: 4)\n 18242: a0 = u64 [a1 + 0x8]\n 18245: a0 = a0 & 0xffffffffffffffff\n 18248: a3 = u64 [s1 + 0xf8]\n 18252: jump @691 if a0 == 0\n      : @685 (gas: 15)\n 18256: a2 = u64 [s1 + 0xf0]\n 18260: a0 = a2 >u 0\n 18262: a1 = a3 <u 0x100\n 18266: a1 = a1 ^ 0x1\n 18269: a1 = a0 if a2 != 0\n 18272: a0 = a2 >u 0\n 18274: a4 = a2 >u 0\n 18276: a4 = a0 if a2 == 0\n 18279: a0 = u64 [s1 + 0xb8]\n 18283: a4 = a1 if a0 == 0\n 18286: u64 [s1 + 0xd0] = a4\n 18290: i32 a2 = a3 + 0xffffffffffffff80\n 18293: a0 = 0x1\n 18296: a1 = 0\n 18298: ra = 652, jump @1606\n      : @686 [@dyn 326] (gas: 7)\n 18304: u64 [s1 + 0xf0] = a0\n 18308: u64 [s1 + 0xd8] = a1\n 18312: a1 = u64 [s1 + 0xf8]\n 18316: i32 a2 = 0x80 - a1\n 18320: a0 = 0x1\n 18323: a1 = 0\n 18325: ra = 654, jump @1601\n      : @687 [@dyn 327] (gas: 7)\n 18331: u64 [s1 + 0xb8] = a0\n 18335: u64 [s1 + 0xc0] = a1\n 18339: a2 = i32 [s1 + 0xf8]\n 18343: u64 [s1 + 0xc8] = a2\n 18347: a0 = 0\n 18349: a1 = 0\n 18351: ra = 656, jump @1606\n      : @688 [@dyn 328] (gas: 19)\n 18357: a4 = u64 [s1 + 0xb8]\n 18361: a4 = a4 | a0\n 18364: a0 = u64 [s1 + 0xf8]\n 18368: a3 = a0 <u 0x80\n 18372: u64 [s1 + 0xb8] = a3\n 18376: a2 = u64 [s1 + 0xf0]\n 18380: a4 = a2 if a3 == 0\n 18383: a4 = 0 if a0 == 0\n 18385: u64 [s1 + 0xf0] = a4\n 18389: a2 = u64 [s1 + 0xc0]\n 18393: a2 = a2 | a1\n 18396: a1 = u64 [s1 + 0xd8]\n 18400: a2 = a1 if a3 == 0\n 18403: a2 = 0 if a0 == 0\n 18405: u64 [s1 + 0xd8] = a2\n 18409: a0 = 0x1\n 18412: a1 = 0\n 18414: a2 = u64 [s1 + 0xc8]\n 18418: ra = 658, jump @1606\n      : @689 [@dyn 329] (gas: 24)\n 18424: a4 = u64 [s1 + 0xd8]\n 18428: t0 = u64 [s1 + 0xf0]\n 18432: a5 = a0\n 18434: a3 = a1\n 18436: a0 = u64 [s1 + 0xb8]\n 18440: a5 = 0 if a0 == 0\n 18442: a3 = 0 if a0 == 0\n 18444: a0 = u64 [s1 + 0xd0]\n 18448: a4 = 0 if a0 != 0\n 18450: t0 = 0 if a0 != 0\n 18452: a3 = 0 if a0 != 0\n 18454: a5 = 0 if a0 != 0\n 18456: a0 = u64 [s1 + 0x88]\n 18460: a0 = a0 & t0\n 18463: a1 = u64 [s1 + 0x90]\n 18467: a1 = a1 & a4\n 18470: a2 = u64 [s1 + 0x80]\n 18474: a2 = a2 & a3\n 18477: a1 = a1 | a2\n 18480: a2 = u64 [s1 + 0x78]\n 18483: a2 = a2 & a5\n 18486: a0 = a0 | a2\n 18489: a0 = a0 | a1\n 18492: jump @693 if a0 == 0\n      : @690 (gas: 3)\n 18495: a1 = u64 [s1 + 0x98]\n 18499: a3 = u64 [s1 + 0xf8]\n 18503: jump @692\n      : @691 (gas: 2)\n 18505: a1 = u64 [s1 + 0x98]\n 18509: fallthrough\n      : @692 (gas: 4)\n 18510: a5 = 0\n 18512: a0 = a3 + 0x1\n 18515: a3 = a0 & a1\n 18518: jump @665\n      : @693 (gas: 8)\n 18521: u64 [s1 + 0xc8] = a3\n 18525: u64 [s1 + 0xd0] = a5\n 18529: u64 [s1 + 0xd8] = a4\n 18533: u64 [s1 + 0xf0] = t0\n 18537: a0 = s1 + 0x7ff\n 18541: a0 = a0 + 0x61\n 18544: a1 = u64 [s1 + 0x70]\n 18547: ra = 660, jump @11\n      : @694 [@dyn 330] (gas: 18)\n 18553: a1 = s1 + 0x7ff\n 18557: a1 = a1 + 0x79\n 18560: a0 = u64 [a1]\n 18562: a1 = u64 [a1 + 0xfffffffffffffff8]\n 18565: a2 = s1 + 0x1000\n 18569: a2 = u64 [a2 + 0xfffffffffffff868]\n 18573: a3 = s1 + 0x1000\n 18577: t0 = u64 [a3 + 0xfffffffffffff860]\n 18581: a4 = u64 [0x200a8]\n 18586: a5 = a0 >u 0\n 18588: a3 = a1 >u 0\n 18590: a3 = a5 if a0 != 0\n 18593: a4 = a4 <u t0\n 18596: a5 = a2 >u 0\n 18598: a5 = a4 if a2 == 0\n 18601: a4 = a1 | a0\n 18604: a5 = a3 if a4 != 0\n 18607: jump @696 if a5 != 0\n      : @695 (gas: 7)\n 18610: a0 = u64 [s1 + 0x60]\n 18613: a0 = a0 + 0x1\n 18616: a1 = u64 [s1 + 0x98]\n 18620: a0 = a0 & a1\n 18623: u64 [s1 + 0x60] = a0\n 18626: a3 = u64 [s1 + 0xf8]\n 18630: jump @692\n      : @696 (gas: 23)\n 18632: a3 = u64 [0x200b0]\n 18637: a3 = a3 + t0\n 18640: a4 = a3 <u t0\n 18643: a5 = a2 + a4\n 18646: a5 = a5 + 0xffffffffffffffff\n 18649: t0 = a5 ^ a2\n 18652: a2 = a5 <u a2\n 18655: a2 = a4 if t0 == 0\n 18658: a4 = a1 + 0xffffffffffffffff\n 18661: a2 = a2 + a4\n 18664: a4 = a2 <u a4\n 18667: a1 = a1 <u 0x1\n 18670: a0 = a0 - a1\n 18673: a0 = a0 + a4\n 18676: a1 = s1 + 0x2078\n 18680: a4 = a1 + 0x700\n 18684: u64 [a4 + 0xa8] = a3\n 18688: u64 [a4 + 0xb0] = a5\n 18692: u64 [a4 + 0xb8] = a2\n 18696: u64 [a4 + 0xc0] = a0\n 18700: a1 = s1 + 0x2820\n 18704: a0 = u64 [s1 + 0x70]\n 18707: ra = 662, jump @12\n      : @697 [@dyn 331] (gas: 15)\n 18713: a0 = sp + 0xffffffffffffffe0\n 18716: a1 = a0 & 0xffffffffffffffe0\n 18719: u64 [s1 + 0xc0] = a1\n 18723: sp = a1\n 18725: a0 = u64 [s1 + 0x40]\n 18728: u64 [a1 + 0x18] = a0\n 18731: a0 = u64 [s1 + 0x48]\n 18734: u64 [a1 + 0x10] = a0\n 18737: a0 = u64 [s1 + 0x50]\n 18740: u64 [a1 + 0x8] = a0\n 18743: a0 = u64 [s1 + 0x58]\n 18746: u64 [a1] = a0\n 18748: a0 = s1 + 0x7ff\n 18752: a0 = a0 + 0x41\n 18755: ra = 664, jump @11\n      : @698 [@dyn 332] (gas: 26)\n 18761: a0 = s1 + 0x1000\n 18765: a0 = u64 [a0 + 0xfffffffffffff840]\n 18769: a1 = u64 [0x200a0]\n 18774: a2 = s1 + 0x1000\n 18778: a2 = u64 [a2 + 0xfffffffffffff858]\n 18782: a3 = s1 + 0x1000\n 18786: a3 = u64 [a3 + 0xfffffffffffff848]\n 18790: a4 = s1 + 0x1000\n 18794: a4 = u64 [a4 + 0xfffffffffffff850]\n 18798: a1 = a1 + a0\n 18801: a0 = a1 <u a0\n 18804: a5 = a3 + a0\n 18807: a3 = a5 <u a3\n 18810: a3 = a0 if a0 == 0\n 18813: a3 = a3 + a4\n 18816: a0 = a3 <u a4\n 18819: a0 = a0 + a2\n 18822: a2 = s1 + 0x2078\n 18826: a4 = a2 + 0x700\n 18830: u64 [a4 + 0xc8] = a1\n 18834: u64 [a4 + 0xd0] = a5\n 18838: u64 [a4 + 0xd8] = a3\n 18842: u64 [a4 + 0xe0] = a0\n 18846: a1 = s1 + 0x2840\n 18850: a0 = u64 [s1 + 0xc0]\n 18854: ra = 666, jump @12\n      : @699 [@dyn 333] (gas: 23)\n 18860: a0 = u64 [s1 + 0x68]\n 18863: a0 = a0 + 0x1\n 18866: a1 = u64 [s1 + 0x98]\n 18870: a0 = a0 & a1\n 18873: u64 [s1 + 0x68] = a0\n 18876: a0 = u64 [s1 + 0x78]\n 18879: a2 = u64 [s1 + 0xd0]\n 18883: a0 = a0 | a2\n 18886: u64 [s1 + 0x78] = a0\n 18889: a0 = u64 [s1 + 0x80]\n 18893: a2 = u64 [s1 + 0xc8]\n 18897: a0 = a0 | a2\n 18900: u64 [s1 + 0x80] = a0\n 18904: a0 = u64 [s1 + 0x88]\n 18908: a2 = u64 [s1 + 0xf0]\n 18912: a0 = a0 | a2\n 18915: u64 [s1 + 0x88] = a0\n 18919: a0 = u64 [s1 + 0x90]\n 18923: a2 = u64 [s1 + 0xd8]\n 18927: a0 = a0 | a2\n 18930: u64 [s1 + 0x90] = a0\n 18934: a3 = u64 [s1 + 0xf8]\n 18938: jump @692\n      : @700 (gas: 37)\n 18941: a0 = u64 [s1 + 0x30]\n 18944: a1 = u64 [s1 + 0x78]\n 18947: u64 [a0] = a1\n 18949: a1 = u64 [s1 + 0x80]\n 18953: u64 [a0 + 0x8] = a1\n 18956: a1 = u64 [s1 + 0x88]\n 18960: u64 [a0 + 0x10] = a1\n 18963: a1 = u64 [s1 + 0x90]\n 18967: u64 [a0 + 0x18] = a1\n 18970: a0 = u64 [s1 + 0xa8]\n 18974: ecalli 4 // 'caller'\n 18976: a2 = u64 [s1 + 0xb0]\n 18980: a0 = u64 [a2 + 0x8]\n 18983: a1 = i32 [a2 + 0x10]\n 18986: a2 = u64 [a2]\n 18988: a0 = reverse a0\n 18990: a3 = a0 << 0x20\n 18993: a1 = reverse a1\n 18995: a1 = a1 >> 0x20\n 18998: a3 = a3 | a1\n 19001: a0 = a0 >> 0x20\n 19004: a1 = reverse a2\n 19006: a2 = a1 << 0x20\n 19009: a0 = a0 | a2\n 19012: a1 = a1 >> 0x20\n 19015: a2 = s1 + 0x1000\n 19019: u64 [a2 + 4294965304] = 0\n 19023: a2 = s1 + 0x1000\n 19027: u64 [a2 + 0xfffffffffffff830] = a1\n 19031: a1 = s1 + 0x1000\n 19035: u64 [a1 + 0xfffffffffffff828] = a0\n 19039: a1 = s1 + 0x7ff\n 19043: a1 = a1 + 0x21\n 19046: a0 = s1 + 0x1000\n 19050: u64 [a0 + 0xfffffffffffff820] = a3\n 19054: a0 = 0\n 19056: ra = 668, jump @9\n      : @701 [@dyn 334] (gas: 12)\n 19062: a0 = s1 + 0x1000\n 19066: u64 [a0 + 4294965272] = 0\n 19070: a0 = s1 + 0x1000\n 19074: u64 [a0 + 4294965264] = 0\n 19078: a1 = s1 + 0x1000\n 19082: u64 [a1 + 4294965248] = 0x5\n 19087: a0 = 0x20\n 19090: a1 = s1 + 0x7ff\n 19094: a1 = a1 + 0x1\n 19097: a2 = s1 + 0x1000\n 19101: u64 [a2 + 4294965256] = 0\n 19105: ra = 670, jump @9\n      : @702 [@dyn 335] (gas: 3)\n 19111: a1 = u64 [s1 + 0xe0]\n 19115: a0 = i32 [a1]\n 19117: jump @704 if a0 >u 63\n      : @703 (gas: 2)\n 19121: u32 [a1 + 0] = 0x40\n 19124: fallthrough\n      : @704 (gas: 4)\n 19125: a0 = sp + 0xffffffffffffffe0\n 19128: a0 = a0 & 0xffffffffffffffe0\n 19131: u64 [s1 + 0xf8] = a0\n 19135: t0 = 672, jump @1558\n      : @705 [@dyn 336] (gas: 5)\n 19141: ra = 0x2a2\n 19145: ecalli 9 // 'hash_keccak_256'\n 19147: a3 = u64 [s1 + 0xf8]\n 19151: t0 = 0x2a4\n 19155: jump @1588\n      : @706 [@dyn 337] (gas: 2)\n 19158: a3 = u64 [s1 + 0xf8]\n 19162: t0 = 676, jump @1588\n      : @707 [@dyn 338] (gas: 19)\n 19168: u64 [s1 + 0xf0] = a0\n 19172: a0 = reverse a1\n 19174: u64 [s1 + 0xd8] = a0\n 19178: a0 = reverse a2\n 19180: u64 [s1 + 0xd0] = a0\n 19184: a0 = reverse a3\n 19186: u64 [s1 + 0xc8] = a0\n 19190: a0 = sp + 0xffffffffffffffe0\n 19193: a0 = a0 & 0xffffffffffffffe0\n 19196: u64 [s1 + 0xf8] = a0\n 19200: sp = a0\n 19202: u64 [s1 + 2040] = 0\n 19206: u64 [s1 + 2032] = 0\n 19210: u64 [s1 + 2024] = 0\n 19214: a1 = s1 + 0x7e0\n 19218: a0 = u64 [s1 + 0x38]\n 19221: u64 [s1 + 0x7e0] = a0\n 19225: a0 = 0\n 19227: ra = 678, jump @9\n      : @708 [@dyn 339] (gas: 12)\n 19233: a0 = u64 [s1 + 0xc8]\n 19237: a3 = s1 + 0x700\n 19241: u64 [a3 + 0xd8] = a0\n 19245: a0 = u64 [s1 + 0xd0]\n 19249: u64 [a3 + 0xd0] = a0\n 19253: a0 = u64 [s1 + 0xd8]\n 19257: u64 [a3 + 0xc8] = a0\n 19261: a0 = 0x20\n 19264: a1 = s1 + 0x7c0\n 19268: a2 = u64 [s1 + 0xf0]\n 19272: u64 [a3 + 0xc0] = a2\n 19276: ra = 680, jump @9\n      : @709 [@dyn 340] (gas: 3)\n 19282: a1 = u64 [s1 + 0xe0]\n 19286: a0 = i32 [a1]\n 19288: jump @711 if a0 >u 63\n      : @710 (gas: 2)\n 19292: u32 [a1 + 0] = 0x40\n 19295: fallthrough\n      : @711 (gas: 4)\n 19296: a0 = sp + 0xffffffffffffffe0\n 19299: a0 = a0 & 0xffffffffffffffe0\n 19302: u64 [s1 + 0xf0] = a0\n 19306: t0 = 682, jump @1558\n      : @712 [@dyn 341] (gas: 17)\n 19312: ecalli 9 // 'hash_keccak_256'\n 19314: a3 = u64 [s1 + 0xf0]\n 19318: a0 = u64 [a3 + 0x18]\n 19321: a1 = u64 [a3 + 0x10]\n 19324: a2 = u64 [a3 + 0x8]\n 19327: a3 = u64 [a3]\n 19329: a4 = reverse a0\n 19331: a1 = reverse a1\n 19333: a2 = reverse a2\n 19335: a3 = reverse a3\n 19337: a0 = u64 [s1 + 0xf8]\n 19341: u64 [a0 + 0x18] = a3\n 19344: u64 [a0 + 0x10] = a2\n 19347: u64 [a0 + 0x8] = a1\n 19350: u64 [a0] = a4\n 19352: a1 = u64 [s1 + 0x30]\n 19355: ra = 684, jump @12\n      : @713 [@dyn 342] (gas: 3)\n 19361: a0 = s1 + 0x7a0\n 19365: a1 = 0x40\n 19368: ra = 686, jump @7\n      : @714 [@dyn 343] (gas: 13)\n 19374: a0 = s1 + 0x700\n 19378: a4 = u64 [a0 + 0xb8]\n 19382: a5 = u64 [a0 + 0xb0]\n 19386: a3 = u64 [a0 + 0xa8]\n 19390: a2 = u64 [a0 + 0xa0]\n 19394: a0 = a3 | a4\n 19397: a1 = a2 | a5\n 19400: a1 = a1 | a0\n 19403: a1 = a1 >> 0x20\n 19406: a0 = a0 | a5\n 19409: a0 = a0 << 0x20\n 19412: a0 = a0 | a1\n 19415: jump @716 if a0 == 0\n      : @715 (gas: 1)\n 19418: jump @843\n      : @716 (gas: 14)\n 19421: a0 = u64 [s1 + 0x68]\n 19424: a1 = u64 [s1 + 0x98]\n 19428: a0 = a0 & a1\n 19431: u64 [s1 + 1944] = 0\n 19435: u64 [s1 + 1936] = 0\n 19439: u64 [s1 + 1928] = 0\n 19443: a1 = s1 + 0x780\n 19447: u64 [s1 + 0x780] = a0\n 19451: a0 = a2\n 19453: u64 [s1 + 0xf8] = a2\n 19457: u64 [s1 + 0xf0] = a3\n 19461: u64 [s1 + 0xe0] = a4\n 19465: u64 [s1 + 0xd8] = a5\n 19469: ra = 688, jump @9\n      : @717 [@dyn 344] (gas: 10)\n 19475: a2 = u64 [s1 + 0xf8]\n 19479: a0 = u64 [s1 + 0xe0]\n 19483: a1 = u64 [s1 + 0xd8]\n 19487: a0 = a0 | a1\n 19490: a1 = 0xffffffe0\n 19500: a1 = a2 <u a1\n 19503: a3 = u64 [s1 + 0xf0]\n 19507: a1 = 0 if a3 != 0\n 19509: a1 = 0 if a0 != 0\n 19511: jump @719 if a1 != 0\n      : @718 (gas: 1)\n 19514: jump @843\n      : @719 (gas: 10)\n 19517: a0 = u64 [s1 + 0x60]\n 19520: a1 = u64 [s1 + 0x98]\n 19524: a1 = a1 & a0\n 19527: i32 a0 = a2 + 0x20\n 19530: u64 [s1 + 1912] = 0\n 19534: u64 [s1 + 1904] = 0\n 19538: u64 [s1 + 0x760] = a1\n 19542: a1 = s1 + 0x760\n 19546: u64 [s1 + 1896] = 0\n 19550: ra = 690, jump @9\n      : @720 [@dyn 345] (gas: 6)\n 19556: a0 = u64 [s1 + 0xa8]\n 19560: ra = 0x2b4\n 19564: ecalli 4 // 'caller'\n 19566: a2 = u64 [s1 + 0xb0]\n 19570: t0 = 0x2b6\n 19574: jump @1552\n      : @721 [@dyn 346] (gas: 2)\n 19577: a2 = u64 [s1 + 0xb0]\n 19581: t0 = 694, jump @1552\n      : @722 [@dyn 347] (gas: 30)\n 19587: t0 = a1 | a0\n 19590: a3 = a3 >> 0x20\n 19593: a2 = reverse a2\n 19595: a1 = a2 << 0x20\n 19598: a1 = a1 | a3\n 19601: a2 = a2 >> 0x20\n 19604: u64 [s1 + 1816] = 0\n 19608: u64 [s1 + 1808] = 0\n 19612: u64 [s1 + 1800] = 0\n 19616: a0 = u64 [s1 + 0x38]\n 19619: u64 [s1 + 0x700] = a0\n 19623: u64 [s1 + 1848] = 0\n 19627: a3 = u64 [0x200b8]\n 19632: a4 = u64 [0x200c0]\n 19637: a5 = u64 [0x200c8]\n 19642: a0 = u64 [0x200d0]\n 19647: u64 [s1 + 0x758] = a3\n 19651: a3 = s1 + 0x700\n 19655: u64 [a3 + 0x50] = a4\n 19658: u64 [a3 + 0x48] = a5\n 19661: u64 [a3 + 0x40] = a0\n 19664: u64 [a3 + 0x30] = a2\n 19667: u64 [a3 + 0x28] = a1\n 19670: a1 = 0x40\n 19673: a2 = s1 + 0x740\n 19677: a3 = s1 + 0x720\n 19681: a4 = s1 + 0x700\n 19685: u64 [s1 + 0x720] = t0\n 19689: a0 = u64 [s1 + 0xf8]\n 19693: ra = 696, jump @14\n      : @723 [@dyn 348] (gas: 8)\n 19699: a0 = 0\n 19701: a1 = u64 [s1 + 0xe8]\n 19705: a2 = 0\n 19707: ecalli 14 // 'seal_return'\n 19709: a1 = 0x20160\n 19714: i32 a1 = a1 + 0\n 19716: a0 = 0\n 19718: jump @1205\n      : @724 (gas: 19)\n 19721: a0 = u64 [s1 + 0xf8]\n 19725: a2 = u64 [s1 + 0x88]\n 19729: a0 = a0 | a2\n 19732: a2 = u64 [s1 + 0x28]\n 19735: a0 = a2 if a4 == 0\n 19738: t1 = u64 [s1 + 0xa0]\n 19742: a3 = t1\n 19744: t0 = u64 [s1 + 0xc8]\n 19748: a3 = a0 if t0 != 0\n 19751: u64 [s1 + 0xf8] = a3\n 19755: a0 = u64 [s1 + 0xc0]\n 19759: a2 = u64 [s1 + 0x90]\n 19763: a0 = a0 | a2\n 19766: a2 = u64 [s1 + 0x30]\n 19769: a0 = a2 if a4 == 0\n 19772: a5 = u64 [s1 + 0xb8]\n 19776: a3 = a5\n 19778: a3 = a0 if t0 != 0\n 19781: t0 = 698, jump @1576\n      : @725 [@dyn 349] (gas: 1)\n 19787: ra = 700, jump @1601\n      : @726 [@dyn 350] (gas: 6)\n 19793: u64 [s1 + 0x90] = a0\n 19797: u64 [s1 + 0x30] = a1\n 19800: a0 = u64 [s1 + 0xb0]\n 19804: a1 = u64 [s1 + 0xa8]\n 19808: a2 = u64 [s1 + 0xf0]\n 19812: ra = 702, jump @1601\n      : @727 [@dyn 351] (gas: 7)\n 19818: u64 [s1 + 0x28] = a0\n 19821: u64 [s1 + 0x88] = a1\n 19825: a1 = u64 [s1 + 0xf0]\n 19829: a2 = 0x80 - a1\n 19833: a0 = u64 [s1 + 0xb8]\n 19837: a1 = u64 [s1 + 0xa0]\n 19841: ra = 704, jump @1606\n      : @728 [@dyn 352] (gas: 21)\n 19847: a2 = u64 [s1 + 0x88]\n 19851: a1 = a1 | a2\n 19854: a3 = u64 [s1 + 0xf0]\n 19858: a4 = a3 <u 0x80\n 19862: u64 [s1 + 0x88] = a4\n 19866: a2 = u64 [s1 + 0x30]\n 19869: a1 = a2 if a4 == 0\n 19872: a2 = u64 [s1 + 0xa8]\n 19876: a2 = a1 if a3 != 0\n 19879: u64 [s1 + 0xa8] = a2\n 19883: a1 = u64 [s1 + 0x28]\n 19886: a0 = a0 | a1\n 19889: a1 = u64 [s1 + 0x90]\n 19893: a0 = a1 if a4 == 0\n 19896: a1 = u64 [s1 + 0xb0]\n 19900: a1 = a0 if a3 != 0\n 19903: a2 = a3\n 19905: u64 [s1 + 0xb0] = a1\n 19909: a0 = u64 [s1 + 0xb8]\n 19913: a1 = u64 [s1 + 0xa0]\n 19917: ra = 706, jump @1601\n      : @729 [@dyn 353] (gas: 3)\n 19923: a5 = 0\n 19925: ra = 0\n 19927: t0 = 708, jump @1582\n      : @730 [@dyn 354] (gas: 3)\n 19933: t1 = u64 [s1 + 0xa8]\n 19937: t2 = u64 [s1 + 0xb0]\n 19941: fallthrough\n      : @731 (gas: 88)\n 19942: u64 [s1 + 0xb8] = a5\n 19946: a2 = t2 >> 0x3f\n 19949: a3 = t1 << 0x1\n 19952: a5 = a3 | a2\n 19955: a3 = t2 << 0x1\n 19958: a4 = u64 [s1 + 0xf8]\n 19962: a4 = a4 >> 0x3f\n 19965: a3 = a3 | a4\n 19968: u64 [s1 + 0xa8] = a3\n 19972: a2 = u64 [s1 + 0x88]\n 19976: u64 [s1 + 0xb0] = a5\n 19980: t2 = t1\n 19982: t1 = a2 ^ a5\n 19985: t0 = a2 <u a5\n 19988: a4 = u64 [s1 + 0x90]\n 19992: a5 = a4 <u a3\n 19995: a5 = t0 if t1 != 0\n 19998: a1 = a1 << 0x1\n 20001: a3 = a0 >> 0x3f\n 20004: a1 = a1 | a3\n 20007: u64 [s1 + 0xa0] = a1\n 20011: a3 = t2 >> 0x3f\n 20014: a0 = a0 << 0x1\n 20017: a3 = a3 | a0\n 20020: a0 = u64 [s1 + 0xf8]\n 20024: a0 = a0 << 0x1\n 20027: a4 = u64 [s1 + 0xc0]\n 20031: a1 = a4 >> 0x3f\n 20034: t0 = a0 | a1\n 20037: a1 = a4 << 0x1\n 20040: a4 = u64 [s1 + 0xc8]\n 20044: t1 = a4 >> 0x3f\n 20047: t1 = a1 | t1\n 20050: a1 = a4 << 0x1\n 20053: a4 = u64 [s1 + 0xe8]\n 20057: t2 = a4 >> 0x3f\n 20060: a1 = a1 | t2\n 20063: a4 = a4 << 0x1\n 20066: a0 = u64 [s1 + 0xb8]\n 20070: a4 = a4 | a0\n 20073: u64 [s1 + 0xe8] = a4\n 20077: a1 = ra | a1\n 20080: u64 [s1 + 0xc8] = a1\n 20084: a1 = ra | t1\n 20087: u64 [s1 + 0xc0] = a1\n 20091: a0 = ra | t0\n 20094: u64 [s1 + 0xf8] = a0\n 20098: a0 = a2 - a3\n 20101: a0 = a0 <u a5\n 20104: a1 = a2 <u a3\n 20107: t0 = u64 [s1 + 0xa0]\n 20111: a4 = a2 - t0\n 20114: a4 = a4 - a1\n 20117: a4 = a4 - a0\n 20120: a5 = a4 >>a 0x3f\n 20123: a0 = u64 [s1 + 0x98]\n 20127: a0 = a0 & a5\n 20130: a1 = u64 [s1 + 0xa8]\n 20134: t2 = a1 - a0\n 20137: a1 = a1 <u a0\n 20140: a0 = u64 [s1 + 0xb0]\n 20144: t1 = a0 - a1\n 20147: a1 = 0 if a0 != 0\n 20149: a0 = a3 - a1\n 20152: a1 = a3 <u a1\n 20155: a1 = t0 - a1\n 20158: a3 = u64 [s1 + 0xf0]\n 20162: ra = u64 [s1 + 0xe0]\n 20166: a2 = a3 | ra\n 20169: a2 = a2 <u 0x1\n 20172: a4 = u64 [s1 + 0xd0]\n 20176: t0 = a4 <u a2\n 20179: a2 = a4 - a2\n 20182: a4 = a3 <u 0x1\n 20185: ra = ra - a4\n 20188: a4 = u64 [s1 + 0xd8]\n 20192: a4 = a4 - t0\n 20195: a3 = a3 + 0xffffffffffffffff\n 20198: u64 [s1 + 0xe0] = ra\n 20202: u64 [s1 + 0xd8] = a4\n 20206: t0 = ra | a4\n 20209: u64 [s1 + 0xf0] = a3\n 20213: a4 = a3 | a2\n 20216: a3 = a4 | t0\n 20219: a5 = a5 & 0x1\n 20222: u64 [s1 + 0xd0] = a2\n 20226: ra = 0\n 20228: jump @731 if a3 != 0\n      : @732 (gas: 4)\n 20232: a0 = u64 [s1 + 0xe8]\n 20236: a0 = a0 << 0x1\n 20239: ra = a5 | a0\n 20242: fallthrough\n      : @733 (gas: 4)\n 20243: u64 [s1 + 0xd0] = ra\n 20247: a0 = s1 + 0x2420\n 20251: a1 = 0x40\n 20254: ra = 710, jump @7\n      : @734 [@dyn 355] (gas: 18)\n 20260: t0 = s1 + 0x2078\n 20264: t1 = u64 [t0 + 0x3c0]\n 20268: a0 = t0 + 0x300\n 20272: a5 = u64 [a0 + 0xb8]\n 20276: a4 = u64 [a0 + 0xb0]\n 20280: a3 = u64 [a0 + 0xa8]\n 20284: a0 = t1 >u 0\n 20286: a1 = a5 >u 0\n 20288: a1 = a0 if t1 != 0\n 20291: a0 = a4 >u 0\n 20293: a2 = a3 <u 0xffffffffffffffa0\n 20296: a2 = a2 ^ 0x1\n 20299: u64 [s1 + 0xf8] = a4\n 20303: a2 = a0 if a4 != 0\n 20306: a0 = a5 | t1\n 20309: u64 [s1 + 0xd8] = a0\n 20313: a2 = a1 if a0 != 0\n 20316: jump @736 if a2 == 0\n      : @735 (gas: 1)\n 20319: jump @905\n      : @736 (gas: 19)\n 20322: a0 = a3 + 0x60\n 20325: a1 = a0 <u a3\n 20328: a4 = u64 [s1 + 0xf8]\n 20332: a2 = a4 + a1\n 20335: u64 [s1 + 0xf0] = a3\n 20339: a3 = a2 <u a4\n 20342: a3 = a1 if a1 == 0\n 20345: a3 = a3 + a5\n 20348: a1 = a3 <u a5\n 20351: a4 = t1 + a1\n 20354: u64 [t0 + 0x388] = a0\n 20358: u64 [t0 + 0x390] = a2\n 20362: u64 [t0 + 0x398] = a3\n 20366: a0 = 0x40\n 20369: a1 = s1 + 0x2400\n 20373: u64 [t0 + 0x3a0] = a4\n 20377: u64 [s1 + 0xe0] = a5\n 20381: u64 [s1 + 0xe8] = t1\n 20385: ra = 712, jump @9\n      : @737 [@dyn 356] (gas: 12)\n 20391: a2 = u64 [s1 + 0xf0]\n 20395: a3 = u64 [s1 + 0xe0]\n 20399: a0 = a2 | a3\n 20402: a1 = u64 [s1 + 0xf8]\n 20406: a4 = u64 [s1 + 0xe8]\n 20410: a1 = a1 | a4\n 20413: a0 = a0 | a1\n 20416: a0 = a0 >> 0x20\n 20419: a1 = a1 | a3\n 20422: a1 = a1 << 0x20\n 20425: a0 = a0 | a1\n 20428: jump @843 if a0 != 0\n      : @738 (gas: 13)\n 20432: a0 = u64 [s1 + 0x40]\n 20435: a3 = s1 + 0x2078\n 20439: a4 = a3 + 0x300\n 20443: u64 [a4 + 0x68] = a0\n 20446: a0 = u64 [s1 + 0x48]\n 20449: u64 [a4 + 0x70] = a0\n 20452: a0 = u64 [s1 + 0x50]\n 20455: u64 [a4 + 0x78] = a0\n 20458: a1 = s1 + 0x23e0\n 20462: a0 = u64 [s1 + 0x58]\n 20465: u64 [a4 + 0x80] = a0\n 20469: a0 = a2\n 20471: ra = 714, jump @9\n      : @739 [@dyn 357] (gas: 9)\n 20477: a1 = u64 [s1 + 0xf0]\n 20481: a3 = 0x100000000\n 20491: a0 = 0xffffffe0\n 20501: a0 = a1 <u a0\n 20504: a2 = u64 [s1 + 0xf8]\n 20508: a0 = 0 if a2 != 0\n 20510: a2 = u64 [s1 + 0xd8]\n 20514: a0 = 0 if a2 != 0\n 20516: jump @843 if a0 == 0\n      : @740 (gas: 12)\n 20520: i32 a2 = a1 + 0x20\n 20523: a0 = s1 + 0x2078\n 20527: u64 [a0 + 864] = 0\n 20531: u64 [a0 + 856] = 0\n 20535: u64 [a0 + 848] = 0\n 20539: a1 = s1 + 0x23c0\n 20543: u64 [s1 + 0xe8] = a3\n 20547: a3 = u64 [s1 + 0xd0]\n 20551: u64 [a0 + 0x348] = a3\n 20555: u64 [s1 + 0xe0] = a2\n 20559: a0 = a2\n 20561: ra = 716, jump @9\n      : @741 [@dyn 358] (gas: 9)\n 20567: a1 = u64 [s1 + 0xf0]\n 20571: a0 = u64 [s1 + 0xe8]\n 20575: a0 = a0 + 0xffffffffffffffc0\n 20578: a0 = a1 <u a0\n 20581: a2 = u64 [s1 + 0xf8]\n 20585: a0 = 0 if a2 != 0\n 20587: a2 = u64 [s1 + 0xd8]\n 20591: a0 = 0 if a2 != 0\n 20593: jump @843 if a0 == 0\n      : @742 (gas: 12)\n 20597: a0 = 0xffffffff00000000\n 20607: u64 [s1 + 0xe8] = a0\n 20611: i32 a2 = a1 + 0x40\n 20614: a0 = s1 + 0x2078\n 20618: u64 [a0 + 832] = 0\n 20622: u64 [a0 + 824] = 0\n 20626: u64 [a0 + 816] = 0\n 20630: a1 = s1 + 0x23a0\n 20634: u64 [a0 + 808] = 0\n 20638: u64 [s1 + 0xd8] = a2\n 20642: a0 = a2\n 20644: ra = 718, jump @9\n      : @743 [@dyn 359] (gas: 5)\n 20650: a0 = u64 [s1 + 0x38]\n 20653: ra = 0x2d0\n 20657: ecalli 4 // 'caller'\n 20659: t0 = 0x2d2\n 20663: jump @1540\n      : @744 [@dyn 360] (gas: 1)\n 20666: t0 = 722, jump @1540\n      : @745 [@dyn 361] (gas: 8)\n 20672: u64 [a2 + 800] = 0\n 20676: a4 = a2 + 0x300\n 20680: u64 [a4 + 0x18] = a1\n 20683: u64 [a4 + 0x10] = a0\n 20686: a1 = s1 + 0x2380\n 20690: u64 [a4 + 0x8] = a3\n 20693: a0 = 0\n 20695: ra = 724, jump @9\n      : @746 [@dyn 362] (gas: 3)\n 20701: t0 = 0x2d6\n 20705: a2 = s1 + 0x2078\n 20709: fallthrough\n      : @747 [@dyn 363] (gas: 7)\n 20710: u64 [a2 + 768] = 0\n 20714: u64 [a2 + 760] = 0\n 20718: u64 [a2 + 744] = 0x3\n 20723: a0 = 0x20\n 20726: a1 = s1 + 0x2360\n 20730: u64 [a2 + 752] = 0\n 20734: ra = 728, jump @9\n      : @748 [@dyn 364] (gas: 3)\n 20740: a1 = 0x40\n 20743: a0 = 0\n 20745: ra = 730, jump @20\n      : @749 [@dyn 365] (gas: 12)\n 20751: a1 = sp + 0xffffffffffffffe0\n 20754: a1 = a1 & 0xffffffffffffffe0\n 20757: u64 [s1 + 0xf8] = a1\n 20761: sp = a1\n 20763: i32 a0 = a0 + 0\n 20765: i32 a2 = a1 + 0\n 20767: a1 = 0x40\n 20770: ra = 0x2dc\n 20774: ecalli 9 // 'hash_keccak_256'\n 20776: a3 = u64 [s1 + 0xf8]\n 20780: t0 = 0x2de\n 20784: jump @1588\n      : @750 [@dyn 366] (gas: 2)\n 20787: a3 = u64 [s1 + 0xf8]\n 20791: t0 = 734, jump @1588\n      : @751 [@dyn 367] (gas: 14)\n 20797: u64 [s1 + 0xd0] = a0\n 20801: a0 = reverse a1\n 20803: u64 [s1 + 0xc8] = a0\n 20807: a0 = reverse a2\n 20809: u64 [s1 + 0xc0] = a0\n 20813: a0 = reverse a3\n 20815: u64 [s1 + 0xb8] = a0\n 20819: a0 = sp + 0xffffffffffffffe0\n 20822: a0 = a0 & 0xffffffffffffffe0\n 20825: u64 [s1 + 0xf8] = a0\n 20829: sp = a0\n 20831: t0 = 0x2e0\n 20835: a2 = s1 + 0x2078\n 20839: fallthrough\n      : @752 [@dyn 368] (gas: 11)\n 20840: u64 [a2 + 736] = 0\n 20844: a0 = u64 [s1 + 0x78]\n 20847: a3 = a2 + 0x200\n 20851: u64 [a3 + 0xd8] = a0\n 20855: a0 = u64 [s1 + 0x68]\n 20858: u64 [a3 + 0xd0] = a0\n 20862: a1 = s1 + 0x2340\n 20866: a0 = u64 [s1 + 0x70]\n 20869: u64 [a3 + 0xc8] = a0\n 20873: a0 = 0\n 20875: ra = 738, jump @9\n      : @753 [@dyn 369] (gas: 14)\n 20881: a0 = u64 [s1 + 0xb8]\n 20885: a1 = s1 + 0x2078\n 20889: a2 = a1 + 0x200\n 20893: u64 [a2 + 0xc0] = a0\n 20897: a0 = u64 [s1 + 0xc0]\n 20901: u64 [a2 + 0xb8] = a0\n 20905: a0 = u64 [s1 + 0xc8]\n 20909: u64 [a2 + 0xb0] = a0\n 20913: a3 = a1\n 20915: a0 = 0x20\n 20918: a1 = s1 + 0x2320\n 20922: a2 = u64 [s1 + 0xd0]\n 20926: u64 [a3 + 0x2a8] = a2\n 20930: ra = 740, jump @9\n      : @754 [@dyn 370] (gas: 2)\n 20936: a1 = i32 [0x20150]\n 20941: jump @756 if a1 >=u 64\n      : @755 (gas: 2)\n 20945: u32 [0x20150] = 0x40\n 20951: fallthrough\n      : @756 (gas: 30)\n 20952: a0 = sp + 0xffffffffffffffe0\n 20955: a2 = a0 & 0xffffffffffffffe0\n 20958: u64 [s1 + 0xd0] = a2\n 20962: sp = a2\n 20964: a0 = 0x20160\n 20969: i32 a0 = a0 + 0\n 20971: i32 a2 = a2 + 0\n 20973: a1 = 0x40\n 20976: ecalli 9 // 'hash_keccak_256'\n 20978: a3 = u64 [s1 + 0xd0]\n 20982: a0 = u64 [a3 + 0x18]\n 20985: a1 = u64 [a3 + 0x10]\n 20988: a2 = u64 [a3 + 0x8]\n 20991: a3 = u64 [a3]\n 20993: a5 = reverse a0\n 20995: u64 [s1 + 0xb8] = a5\n 20999: a4 = reverse a1\n 21001: u64 [s1 + 0xc0] = a4\n 21005: a1 = reverse a2\n 21007: u64 [s1 + 0xc8] = a1\n 21011: a0 = reverse a3\n 21013: u64 [s1 + 0xd0] = a0\n 21017: a2 = u64 [s1 + 0xf8]\n 21021: u64 [a2 + 0x18] = a0\n 21024: u64 [a2 + 0x10] = a1\n 21027: u64 [a2 + 0x8] = a4\n 21030: u64 [a2] = a5\n 21032: a0 = s1 + 0x2300\n 21036: a1 = u64 [s1 + 0xf0]\n 21040: ra = 742, jump @7\n      : @757 [@dyn 371] (gas: 2)\n 21046: a0 = 0x2000\n 21050: t0 = 744, jump @1586\n      : @758 [@dyn 372] (gas: 13)\n 21056: a0 = u64 [a4 + 0xa0]\n 21060: a1 = u64 [a4 + 0x98]\n 21064: a2 = u64 [a4 + 0x90]\n 21068: a3 = u64 [a4 + 0x88]\n 21072: a4 = s1 + 0x2878\n 21076: a5 = a4 + 0x600\n 21080: u64 [a5 + 0xe0] = a0\n 21084: u64 [a5 + 0xd8] = a1\n 21088: u64 [a5 + 0xd0] = a2\n 21092: u64 [a5 + 0xc8] = a3\n 21096: a1 = s1 + 0x2f40\n 21100: a0 = u64 [s1 + 0xf8]\n 21104: ra = 746, jump @12\n      : @759 [@dyn 373] (gas: 23)\n 21110: a0 = sp + 0xffffffffffffffe0\n 21113: a4 = a0 & 0xffffffffffffffe0\n 21116: u64 [s1 + 0xf8] = a4\n 21120: sp = a4\n 21122: a0 = u64 [s1 + 0xb8]\n 21126: a0 = a0 + 0x1\n 21129: a1 = a0 <u 0x1\n 21132: a2 = u64 [s1 + 0xc0]\n 21136: a1 = a1 + a2\n 21139: a2 = a0 | a1\n 21142: a2 = a2 <u 0x1\n 21145: a3 = u64 [s1 + 0xc8]\n 21149: a2 = a2 + a3\n 21152: a3 = a2 <u a3\n 21155: a5 = u64 [s1 + 0xd0]\n 21159: a3 = a3 + a5\n 21162: u64 [a4 + 0x18] = a3\n 21165: u64 [a4 + 0x10] = a2\n 21168: u64 [a4 + 0x8] = a1\n 21171: u64 [a4] = a0\n 21173: a0 = s1 + 0x22e0\n 21177: a1 = u64 [s1 + 0xe0]\n 21181: ra = 748, jump @7\n      : @760 [@dyn 374] (gas: 7)\n 21187: a0 = s1 + 0x2078\n 21191: a0 = u64 [a0 + 0x268]\n 21195: a0 = a0 & 0xffffffffffffffff\n 21198: u64 [s1 + 0xf0] = a0\n 21202: a0 = s1 + 0x22c0\n 21206: a1 = u64 [s1 + 0xf8]\n 21210: ra = 750, jump @11\n      : @761 [@dyn 375] (gas: 15)\n 21216: a2 = s1 + 0x2078\n 21220: a3 = a2 + 0x200\n 21224: a0 = u64 [a3 + 0x60]\n 21227: a1 = u64 [a3 + 0x58]\n 21230: a2 = u64 [a3 + 0x50]\n 21233: a3 = s1 + 0x2878\n 21237: a4 = u64 [s1 + 0xf0]\n 21241: a5 = a3 + 0x600\n 21245: u64 [a5 + 0xe8] = a4\n 21249: u64 [a3 + 0x700] = a0\n 21253: u64 [a5 + 0xf8] = a1\n 21257: u64 [a5 + 0xf0] = a2\n 21261: a1 = s1 + 0x2f60\n 21265: a0 = u64 [s1 + 0xf8]\n 21269: ra = 752, jump @12\n      : @762 [@dyn 376] (gas: 3)\n 21275: a0 = s1 + 0x22a0\n 21279: a1 = u64 [s1 + 0xd8]\n 21283: ra = 754, jump @7\n      : @763 [@dyn 377] (gas: 2)\n 21289: a0 = 0x2000\n 21293: t0 = 756, jump @1586\n      : @764 [@dyn 378] (gas: 12)\n 21299: a0 = u64 [a4 + 0x40]\n 21302: a1 = u64 [a4 + 0x30]\n 21305: a2 = u64 [a4 + 0x38]\n 21308: a3 = u64 [a4 + 0x28]\n 21311: a0 = a0 | a1\n 21314: a2 = a2 | a3\n 21317: a0 = a0 | a2\n 21320: a0 = a0 >u 0\n 21322: u64 [s1 + 0xf0] = a0\n 21326: a0 = s1 + 0x2280\n 21330: a1 = u64 [s1 + 0xf8]\n 21334: ra = 758, jump @11\n      : @765 [@dyn 379] (gas: 2)\n 21340: a0 = 0x2000\n 21344: t0 = 760, jump @1586\n      : @766 [@dyn 380] (gas: 16)\n 21350: a0 = u64 [a4 + 0x10]\n 21353: a1 = u64 [a4 + 0x8]\n 21356: a2 = u64 [a4 + 0x20]\n 21359: a3 = u64 [a4 + 0x18]\n 21362: a0 = a0 & 0xffffffffffffff00\n 21366: a4 = u64 [s1 + 0xf0]\n 21370: a0 = a0 | a4\n 21373: a4 = s1 + 0x2878\n 21377: a5 = a4 + 0x700\n 21381: u64 [a5 + 0x20] = a2\n 21384: u64 [a5 + 0x18] = a3\n 21387: u64 [a5 + 0x8] = a1\n 21390: u64 [a5 + 0x10] = a0\n 21393: a1 = s1 + 0x2f80\n 21397: a0 = u64 [s1 + 0xf8]\n 21401: ra = 762, jump @12\n      : @767 [@dyn 381] (gas: 5)\n 21407: a0 = u64 [s1 + 0x38]\n 21410: ra = 0x2fc\n 21414: ecalli 4 // 'caller'\n 21416: t0 = 0x2fe\n 21420: jump @1540\n      : @768 [@dyn 382] (gas: 1)\n 21423: t0 = 766, jump @1540\n      : @769 [@dyn 383] (gas: 8)\n 21429: u64 [a2 + 512] = 0\n 21433: a4 = a2 + 0x100\n 21437: u64 [a4 + 0xf8] = a1\n 21441: u64 [a4 + 0xf0] = a0\n 21445: a1 = s1 + 0x2260\n 21449: u64 [a4 + 0xe8] = a3\n 21453: a0 = 0\n 21455: ra = 768, jump @9\n      : @770 [@dyn 384] (gas: 3)\n 21461: t0 = 0x302\n 21465: a2 = s1 + 0x2078\n 21469: fallthrough\n      : @771 [@dyn 385] (gas: 7)\n 21470: u64 [a2 + 480] = 0\n 21474: u64 [a2 + 472] = 0\n 21478: u64 [a2 + 456] = 0x2\n 21483: a0 = 0x20\n 21486: a1 = s1 + 0x2240\n 21490: u64 [a2 + 464] = 0\n 21494: ra = 772, jump @9\n      : @772 [@dyn 386] (gas: 7)\n 21500: a0 = sp + 0xffffffffffffffe0\n 21503: a0 = a0 & 0xffffffffffffffe0\n 21506: u64 [s1 + 0xf8] = a0\n 21510: sp = a0\n 21512: a1 = 0x40\n 21515: a0 = 0\n 21517: ra = 774, jump @20\n      : @773 [@dyn 387] (gas: 1)\n 21523: t0 = 776, jump @1597\n      : @774 [@dyn 388] (gas: 5)\n 21529: ra = 0x30a\n 21533: ecalli 9 // 'hash_keccak_256'\n 21535: a3 = u64 [s1 + 0xf0]\n 21539: t0 = 0x30c\n 21543: jump @1555\n      : @775 [@dyn 389] (gas: 2)\n 21546: a3 = u64 [s1 + 0xf0]\n 21550: t0 = 780, jump @1555\n      : @776 [@dyn 390] (gas: 7)\n 21556: a1 = u64 [s1 + 0xf8]\n 21560: u64 [a1] = a4\n 21562: u64 [a1 + 0x8] = a5\n 21565: u64 [a1 + 0x10] = a2\n 21568: u64 [a1 + 0x18] = a0\n 21571: a0 = s1 + 0x2220\n 21575: ra = 782, jump @11\n      : @777 [@dyn 391] (gas: 9)\n 21581: a0 = s1 + 0x2078\n 21585: a0 = u64 [a0 + 0x1a8]\n 21589: a0 = a0 + 0x1\n 21592: a1 = u64 [s1 + 0x60]\n 21595: a0 = a0 & a1\n 21598: u64 [s1 + 0xf0] = a0\n 21602: a0 = s1 + 0x2200\n 21606: a1 = u64 [s1 + 0xf8]\n 21610: ra = 784, jump @11\n      : @778 [@dyn 392] (gas: 22)\n 21616: a3 = s1 + 0x2078\n 21620: a4 = a3 + 0x100\n 21624: a0 = u64 [a4 + 0x90]\n 21628: a1 = u64 [a4 + 0x98]\n 21632: a2 = u64 [a4 + 0xa0]\n 21636: a3 = u64 [a4 + 0x88]\n 21640: a0 = a0 & 0xffffffffffffffff\n 21643: a1 = a1 & 0xffffffffffffffff\n 21646: a2 = a2 & 0xffffffffffffffff\n 21649: a4 = u64 [s1 + 0xe8]\n 21653: a3 = a3 & a4\n 21656: a4 = u64 [s1 + 0xf0]\n 21660: a3 = a3 | a4\n 21663: a4 = s1 + 0x2878\n 21667: a5 = a4 + 0x700\n 21671: u64 [a5 + 0x40] = a2\n 21674: u64 [a5 + 0x38] = a1\n 21677: u64 [a5 + 0x30] = a0\n 21680: u64 [a5 + 0x28] = a3\n 21683: a1 = s1 + 0x2fa0\n 21687: a0 = u64 [s1 + 0xf8]\n 21691: ra = 786, jump @12\n      : @779 [@dyn 393] (gas: 3)\n 21697: a0 = s1 + 0x21e0\n 21701: a1 = 0x40\n 21704: ra = 788, jump @7\n      : @780 [@dyn 394] (gas: 7)\n 21710: a3 = s1 + 0x2078\n 21714: a5 = a3 + 0x100\n 21718: a0 = u64 [a5 + 0x80]\n 21722: a1 = u64 [a5 + 0x78]\n 21725: a2 = u64 [a5 + 0x70]\n 21728: a4 = u64 [a5 + 0x68]\n 21731: t0 = 790, jump @1563\n      : @781 [@dyn 395] (gas: 1)\n 21737: jump @843 if a0 != 0\n      : @782 (gas: 13)\n 21741: a0 = u64 [s1 + 0x40]\n 21744: a2 = a3 + 0x100\n 21748: u64 [a2 + 0x48] = a0\n 21751: a0 = u64 [s1 + 0x48]\n 21754: u64 [a2 + 0x50] = a0\n 21757: a0 = u64 [s1 + 0x50]\n 21760: u64 [a2 + 0x58] = a0\n 21763: a1 = s1 + 0x21c0\n 21767: a0 = u64 [s1 + 0x58]\n 21770: u64 [a2 + 0x60] = a0\n 21773: a0 = a4\n 21775: u64 [s1 + 0xf8] = a4\n 21779: ra = 792, jump @9\n      : @783 [@dyn 396] (gas: 6)\n 21785: a0 = u64 [s1 + 0x38]\n 21788: ra = 0x31a\n 21792: ecalli 4 // 'caller'\n 21794: a2 = u64 [s1 + 0x80]\n 21798: t0 = 0x31c\n 21802: jump @1552\n      : @784 [@dyn 397] (gas: 2)\n 21805: a2 = u64 [s1 + 0x80]\n 21809: t0 = 796, jump @1552\n      : @785 [@dyn 398] (gas: 43)\n 21815: t0 = a1 | a0\n 21818: a3 = a3 >> 0x20\n 21821: a2 = reverse a2\n 21823: a1 = a2 << 0x20\n 21826: a1 = a1 | a3\n 21829: a2 = a2 >> 0x20\n 21832: a3 = u64 [0x20000]\n 21837: a4 = u64 [0x20008]\n 21842: a5 = u64 [0x20010]\n 21847: a0 = s1 + 0x2078\n 21851: u64 [a0 + 0x140] = a3\n 21855: a0 = s1 + 0x2078\n 21859: u64 [a0 + 0x138] = a4\n 21863: a3 = s1 + 0x2078\n 21867: u64 [a3 + 256] = 0\n 21871: a0 = s1 + 0x2078\n 21875: u64 [a0 + 0x130] = a5\n 21879: a3 = u64 [0x20018]\n 21884: a4 = s1 + 0x2078\n 21888: a0 = u64 [s1 + 0x78]\n 21891: u64 [a4 + 0xf8] = a0\n 21895: a4 = s1 + 0x2078\n 21899: a0 = u64 [s1 + 0x68]\n 21902: u64 [a4 + 0xf0] = a0\n 21906: a4 = s1 + 0x2078\n 21910: a0 = u64 [s1 + 0x70]\n 21913: u64 [a4 + 0xe8] = a0\n 21917: a0 = s1 + 0x2078\n 21921: u64 [a0 + 0x128] = a3\n 21925: a3 = s1 + 0x2078\n 21929: u64 [a3 + 0x118] = a2\n 21933: a2 = s1 + 0x2078\n 21937: u64 [a2 + 0x110] = a1\n 21941: a1 = s1 + 0x2078\n 21945: u64 [a1 + 0x108] = t0\n 21949: a1 = 0x20\n 21952: a2 = s1 + 0x21a0\n 21956: a3 = s1 + 0x2180\n 21960: a4 = s1 + 0x2160\n 21964: a0 = s1 + 0x2078\n 21968: u64 [a0 + 288] = 0\n 21972: a0 = u64 [s1 + 0xf8]\n 21976: ra = 798, jump @14\n      : @786 [@dyn 399] (gas: 3)\n 21982: a0 = s1 + 0x2140\n 21986: a1 = 0x40\n 21989: ra = 800, jump @7\n      : @787 [@dyn 400] (gas: 6)\n 21995: a3 = s1 + 0x2078\n 21999: a0 = u64 [a3 + 0xe0]\n 22003: a1 = u64 [a3 + 0xd8]\n 22007: a2 = u64 [a3 + 0xd0]\n 22011: a4 = u64 [a3 + 0xc8]\n 22015: t0 = 802, jump @1563\n      : @788 [@dyn 401] (gas: 1)\n 22021: jump @843 if a0 != 0\n      : @789 (gas: 12)\n 22025: u64 [a3 + 192] = 0\n 22029: a0 = u64 [s1 + 0x70]\n 22032: u64 [a3 + 0xa8] = a0\n 22036: a0 = u64 [s1 + 0x68]\n 22039: u64 [a3 + 0xb0] = a0\n 22043: a1 = s1 + 0x2120\n 22047: a0 = u64 [s1 + 0x78]\n 22050: u64 [a3 + 0xb8] = a0\n 22054: a0 = a4\n 22056: u64 [s1 + 0xf8] = a4\n 22060: ra = 0x18e\n 22064: jump @9\n      : @790 (gas: 3)\n 22067: a0 = s1 + 0x1fc0\n 22071: a1 = 0x40\n 22074: ra = 804, jump @7\n      : @791 [@dyn 402] (gas: 14)\n 22080: a0 = s1 + 0x1878\n 22084: a2 = a0 + 0x700\n 22088: a1 = u64 [a2 + 0x60]\n 22091: u64 [s1 + 0xf0] = a1\n 22095: a1 = u64 [a2 + 0x58]\n 22098: u64 [s1 + 0xe8] = a1\n 22102: a1 = u64 [a2 + 0x50]\n 22105: u64 [s1 + 0xe0] = a1\n 22109: a0 = u64 [a2 + 0x48]\n 22112: u64 [s1 + 0xf8] = a0\n 22116: ra = 0x326\n 22120: ecalli 13 // 'return_data_size'\n 22122: t0 = 0x328\n 22126: jump @1556\n      : @792 [@dyn 403] (gas: 1)\n 22129: t0 = 808, jump @1556\n      : @793 [@dyn 404] (gas: 1)\n 22135: jump @843 if a1 != 0\n      : @794 (gas: 3)\n 22139: a2 = a0\n 22141: a0 = a0 >> 0x20\n 22144: jump @843 if a0 != 0\n      : @795 (gas: 1)\n 22148: t0 = 810, jump @1593\n      : @796 [@dyn 405] (gas: 1)\n 22154: ra = 812, jump @20\n      : @797 [@dyn 406] (gas: 11)\n 22160: a1 = s1 + 0x2878\n 22164: a2 = u64 [s1 + 0xe8]\n 22168: u32 [a1 + 0x628] = a2\n 22172: i32 a0 = a0 + 0\n 22174: a1 = s1 + 0x3000\n 22178: i32 a1 = a1 + 0xfffffffffffffea0\n 22182: a2 = 0\n 22184: ecalli 12 // 'return_data_copy'\n 22186: a0 = s1 + 0x2878\n 22190: a0 = i32 [a0 + 0x628]\n 22194: jump @806\n      : @798 (gas: 3)\n 22197: a0 = s1 + 0x1de0\n 22201: a1 = 0x40\n 22204: ra = 814, jump @7\n      : @799 [@dyn 407] (gas: 14)\n 22210: a0 = s1 + 0x1878\n 22214: a2 = a0 + 0x500\n 22218: a1 = u64 [a2 + 0x80]\n 22222: u64 [s1 + 0xf0] = a1\n 22226: a1 = u64 [a2 + 0x78]\n 22229: u64 [s1 + 0xe8] = a1\n 22233: a1 = u64 [a2 + 0x70]\n 22236: u64 [s1 + 0xe0] = a1\n 22240: a0 = u64 [a2 + 0x68]\n 22243: u64 [s1 + 0xf8] = a0\n 22247: ra = 0x330\n 22251: ecalli 13 // 'return_data_size'\n 22253: t0 = 0x332\n 22257: jump @1556\n      : @800 [@dyn 408] (gas: 1)\n 22260: t0 = 818, jump @1556\n      : @801 [@dyn 409] (gas: 1)\n 22266: jump @843 if a1 != 0\n      : @802 (gas: 3)\n 22270: a2 = a0\n 22272: a0 = a0 >> 0x20\n 22275: jump @843 if a0 != 0\n      : @803 (gas: 1)\n 22279: t0 = 820, jump @1593\n      : @804 [@dyn 410] (gas: 1)\n 22285: ra = 822, jump @20\n      : @805 [@dyn 411] (gas: 11)\n 22291: a1 = s1 + 0x2878\n 22295: a2 = u64 [s1 + 0xe8]\n 22299: u32 [a1 + 0x488] = a2\n 22303: i32 a0 = a0 + 0\n 22305: a1 = s1 + 0x3000\n 22309: i32 a1 = a1 + 0xfffffffffffffd00\n 22313: a2 = 0\n 22315: ecalli 12 // 'return_data_copy'\n 22317: a0 = s1 + 0x2878\n 22321: a0 = i32 [a0 + 0x488]\n 22325: fallthrough\n      : @806 (gas: 2)\n 22326: a1 = u64 [s1 + 0xf0]\n 22330: jump @843 if a0 <u a1\n      : @807 (gas: 2)\n 22334: ecalli 13 // 'return_data_size'\n 22336: fallthrough\n      : @808 (gas: 3)\n 22337: a1 = a0\n 22339: a0 = a0 >> 0x20\n 22342: jump @843 if a0 != 0\n      : @809 (gas: 3)\n 22346: a0 = u64 [s1 + 0xf8]\n 22350: u64 [s1 + 0xf0] = a1\n 22354: ra = 824, jump @20\n      : @810 [@dyn 412] (gas: 6)\n 22360: i32 a1 = a0 + 0\n 22362: a2 = i32 [s1 + 0xf0]\n 22366: a0 = 0x1\n 22369: ecalli 14 // 'seal_return'\n 22371: u64 [s1 + 184] = 0\n 22375: jump @929\n      : @811 (gas: 10)\n 22378: a0 = u64 [s1 + 0xf8]\n 22382: a1 = u64 [s1 + 0xa8]\n 22386: u64 [a0] = a1\n 22388: a1 = u64 [s1 + 0x78]\n 22391: u64 [a0 + 0x8] = a1\n 22394: a1 = u64 [s1 + 0xa0]\n 22398: u32 [a0 + 0x10] = a1\n 22401: a0 = u64 [s1 + 0xe0]\n 22405: ecalli 5 // 'code_size'\n 22407: fallthrough\n      : @812 (gas: 1)\n 22408: jump @933 if a0 == 0\n      : @813 (gas: 3)\n 22412: a0 = s1 + 0x1d60\n 22416: a1 = 0x40\n 22419: ra = 826, jump @7\n      : @814 [@dyn 413] (gas: 14)\n 22425: a2 = s1 + 0x1878\n 22429: t0 = u64 [a2 + 0x500]\n 22433: a1 = a2 + 0x400\n 22437: a4 = u64 [a1 + 0xf8]\n 22441: a5 = u64 [a1 + 0xf0]\n 22445: a0 = u64 [a1 + 0xe8]\n 22449: a3 = a5 | t0\n 22452: a1 = a0 | a4\n 22455: a1 = a1 | a3\n 22458: a1 = a1 >> 0x20\n 22461: a3 = a3 | a4\n 22464: a3 = a3 << 0x20\n 22467: a1 = a1 | a3\n 22470: jump @843 if a1 != 0\n      : @815 (gas: 11)\n 22474: u64 [a2 + 1240] = 0\n 22478: u64 [a2 + 1232] = 0\n 22482: u64 [a2 + 1224] = 0\n 22486: a3 = 0xc2a672e000000000\n 22496: a1 = s1 + 0x1d40\n 22500: u64 [a2 + 0x4e0] = a3\n 22504: u64 [s1 + 0x68] = t0\n 22507: u64 [s1 + 0x60] = a4\n 22510: u64 [s1 + 0x58] = a5\n 22513: u64 [s1 + 0x88] = a0\n 22517: ra = 828, jump @9\n      : @816 [@dyn 414] (gas: 6)\n 22523: a0 = u64 [s1 + 0xe0]\n 22527: ra = 0x33e\n 22531: ecalli 4 // 'caller'\n 22533: a2 = u64 [s1 + 0xf8]\n 22537: t0 = 0x340\n 22541: jump @1552\n      : @817 [@dyn 415] (gas: 2)\n 22544: a2 = u64 [s1 + 0xf8]\n 22548: t0 = 832, jump @1552\n      : @818 [@dyn 416] (gas: 42)\n 22554: t0 = a1 | a0\n 22557: a3 = a3 >> 0x20\n 22560: a2 = reverse a2\n 22562: a1 = a2 << 0x20\n 22565: t1 = a1 | a3\n 22568: a2 = a2 >> 0x20\n 22571: a0 = u64 [s1 + 0x88]\n 22575: a3 = a0 + 0x4\n 22578: a4 = a3 <u a0\n 22581: a0 = u64 [s1 + 0x58]\n 22584: a5 = a0 + a4\n 22587: a0 = a5 <u a0\n 22590: a0 = a4 if a4 == 0\n 22593: a1 = u64 [s1 + 0x60]\n 22596: a0 = a0 + a1\n 22599: a4 = a0 <u a1\n 22602: a1 = u64 [s1 + 0x68]\n 22605: a4 = a4 + a1\n 22608: a1 = s1 + 0x1878\n 22612: u64 [a1 + 0x4a0] = a4\n 22616: a4 = a1 + 0x400\n 22620: u64 [a4 + 0x98] = a0\n 22624: u64 [a4 + 0x90] = a5\n 22628: a0 = u64 [s1 + 0x90]\n 22632: u64 [a4 + 0x60] = a0\n 22635: a0 = u64 [s1 + 0x98]\n 22639: u64 [a4 + 0x58] = a0\n 22642: a0 = u64 [s1 + 0xb0]\n 22646: u64 [a4 + 0x50] = a0\n 22649: a0 = u64 [s1 + 0xb8]\n 22653: u64 [a4 + 0x48] = a0\n 22656: u64 [a4 + 0x88] = a3\n 22660: u64 [a4 + 0x78] = a2\n 22663: u64 [a1 + 0x470] = t1\n 22667: u64 [a1 + 0x468] = t0\n 22671: a4 = a1\n 22673: a0 = s1 + 0x1d20\n 22677: a1 = s1 + 0x1d00\n 22681: a2 = s1 + 0x1ce0\n 22685: a3 = s1 + 0x1cc0\n 22689: u64 [a4 + 1152] = 0\n 22693: ra = 834, jump @1277\n      : @819 [@dyn 417] (gas: 29)\n 22699: a1 = s1 + 0x1878\n 22703: a0 = u64 [a1 + 0x4b0]\n 22707: t0 = u64 [a1 + 0x4c0]\n 22711: t1 = u64 [a1 + 0x4a8]\n 22715: a3 = u64 [a1 + 0x4b8]\n 22719: a1 = u64 [s1 + 0x58]\n 22722: a4 = a0 ^ a1\n 22725: a5 = a0 <u a1\n 22728: ra = u64 [s1 + 0x88]\n 22732: t2 = t1 <u ra\n 22735: a5 = t2 if a4 == 0\n 22738: a2 = u64 [s1 + 0x60]\n 22741: a4 = a3 - a2\n 22744: a3 = a3 <u a2\n 22747: a2 = u64 [s1 + 0x68]\n 22750: a2 = t0 - a2\n 22753: a2 = a2 - a3\n 22756: a3 = a4 <u a5\n 22759: a2 = a2 - a3\n 22762: u64 [s1 + 0x48] = a2\n 22765: a4 = a4 - a5\n 22768: u64 [s1 + 0x40] = a4\n 22771: a0 = a0 - a1\n 22774: a0 = a0 - t2\n 22777: u64 [s1 + 0x38] = a0\n 22780: a0 = t1 - ra\n 22783: u64 [s1 + 0x50] = a0\n 22786: ecalli 11 // 'ref_time_left'\n 22788: fallthrough\n      : @820 (gas: 26)\n 22789: t0 = a0\n 22791: a0 = u64 [s1 + 0x78]\n 22794: a1 = u64 [s1 + 0xf8]\n 22798: u64 [a1 + 0x8] = a0\n 22801: a0 = u64 [s1 + 0xa8]\n 22805: u64 [a1] = a0\n 22807: a0 = u64 [s1 + 0xa0]\n 22811: u32 [a1 + 0x10] = a0\n 22814: a2 = s1 + 0x2878\n 22818: u64 [a2 + 1216] = 0\n 22822: u64 [a2 + 1208] = 0\n 22826: u64 [a2 + 1200] = 0\n 22830: a0 = u64 [s1 + 0x50]\n 22833: a3 = a0\n 22835: a5 = u64 [s1 + 0x40]\n 22838: a0 = a0 | a5\n 22841: a1 = u64 [s1 + 0x48]\n 22844: a4 = u64 [s1 + 0x38]\n 22847: a1 = a1 | a4\n 22850: a0 = a0 | a1\n 22853: a0 = a0 >> 0x20\n 22856: a1 = a1 | a5\n 22859: a1 = a1 << 0x20\n 22862: a0 = a0 | a1\n 22865: u64 [a2 + 1192] = 0\n 22869: jump @843 if a0 != 0\n      : @821 (gas: 6)\n 22873: i32 a0 = a3 + 0\n 22875: u64 [s1 + 0xa0] = a0\n 22879: a0 = u64 [s1 + 0x88]\n 22883: a1 = a3\n 22885: u64 [s1 + 0x78] = t0\n 22888: ra = 836, jump @20\n      : @822 [@dyn 418] (gas: 4)\n 22894: u64 [s1 + 0xa8] = a0\n 22898: a0 = u64 [s1 + 0x88]\n 22902: a1 = 0\n 22904: ra = 838, jump @20\n      : @823 [@dyn 419] (gas: 38)\n 22910: a3 = s1 + 0x2878\n 22914: u32 [a3 + 1224] = 0\n 22918: a1 = u64 [s1 + 0xa0]\n 22922: a1 = a1 >u 0\n 22924: a4 = u64 [s1 + 0x78]\n 22927: a2 = a4 >u 0x8fc\n 22931: a1 = a1 | a2\n 22934: a2 = -a1\n 22936: u64 [a3 + 0x500] = a2\n 22940: a4 = a3 + 0x400\n 22944: u64 [a4 + 0xf8] = a2\n 22948: u64 [a4 + 0xf0] = a2\n 22952: u64 [a4 + 0xe8] = a2\n 22956: a1 = a1 << 0x23\n 22959: a2 = u64 [s1 + 0x70]\n 22962: t0 = a1 | a2\n 22965: a1 = s1 + 0x2d20\n 22969: a1 = a1 << 0x20\n 22972: a1 = a1 >> 0x20\n 22975: a2 = s1 + 0x2d60\n 22979: a2 = a2 << 0x20\n 22982: a3 = a2 | a1\n 22985: a1 = u64 [s1 + 0xa8]\n 22989: a1 = a1 << 0x20\n 22992: a1 = a1 >> 0x20\n 22995: a4 = u64 [s1 + 0x50]\n 22998: a4 = a4 << 0x20\n 23001: a4 = a4 | a1\n 23004: a0 = a0 << 0x20\n 23007: a0 = a0 >> 0x20\n 23010: a1 = s1 + 0x2d40\n 23014: a1 = a1 << 0x20\n 23017: a5 = a1 | a0\n 23020: a1 = 0xffffffffffffffff\n 23023: a2 = 0xffffffffffffffff\n 23026: a0 = t0\n 23028: ecalli 0 // 'call'\n 23029: fallthrough\n      : @824 (gas: 1)\n 23030: jump @835 if a0 != 0\n      : @825 (gas: 17)\n 23034: a3 = s1 + 0x1878\n 23038: u64 [a3 + 1024] = 0\n 23042: u64 [a3 + 1016] = 0\n 23046: u64 [a3 + 1008] = 0\n 23050: u64 [a3 + 1000] = 0\n 23054: a0 = u64 [s1 + 0x88]\n 23058: a4 = a3 + 0x400\n 23062: u64 [a4 + 0x8] = a0\n 23065: a0 = u64 [s1 + 0x58]\n 23068: u64 [a4 + 0x10] = a0\n 23071: a0 = u64 [s1 + 0x60]\n 23074: u64 [a4 + 0x18] = a0\n 23077: a0 = s1 + 0x1c80\n 23081: a1 = s1 + 0x1c60\n 23085: a2 = u64 [s1 + 0x68]\n 23088: u64 [a4 + 0x20] = a2\n 23091: ra = 840, jump @1267\n      : @826 [@dyn 420] (gas: 6)\n 23097: a0 = u64 [s1 + 0xf0]\n 23101: u64 [a0 + 24] = 0\n 23104: u64 [a0 + 16] = 0\n 23107: u64 [a0 + 8] = 0\n 23110: u64 [a0 + 0] = 0\n 23112: jump @566\n      : @827 (gas: 3)\n 23115: a0 = s1 + 0x1bc0\n 23119: a1 = 0x40\n 23122: ra = 842, jump @7\n      : @828 [@dyn 421] (gas: 14)\n 23128: a0 = s1 + 0x1878\n 23132: a2 = a0 + 0x300\n 23136: a1 = u64 [a2 + 0x60]\n 23139: u64 [s1 + 0xf0] = a1\n 23143: a1 = u64 [a2 + 0x58]\n 23146: u64 [s1 + 0xe8] = a1\n 23150: a1 = u64 [a2 + 0x50]\n 23153: u64 [s1 + 0xe0] = a1\n 23157: a0 = u64 [a2 + 0x48]\n 23160: u64 [s1 + 0xf8] = a0\n 23164: ra = 0x34c\n 23168: ecalli 13 // 'return_data_size'\n 23170: t0 = 0x34e\n 23174: jump @1556\n      : @829 [@dyn 422] (gas: 1)\n 23177: t0 = 846, jump @1556\n      : @830 [@dyn 423] (gas: 1)\n 23183: jump @843 if a1 != 0\n      : @831 (gas: 3)\n 23187: a2 = a0\n 23189: a0 = a0 >> 0x20\n 23192: jump @843 if a0 != 0\n      : @832 (gas: 1)\n 23196: t0 = 848, jump @1593\n      : @833 [@dyn 424] (gas: 1)\n 23202: ra = 850, jump @20\n      : @834 [@dyn 425] (gas: 11)\n 23208: a1 = s1 + 0x2878\n 23212: a2 = u64 [s1 + 0xe8]\n 23216: u32 [a1 + 0x588] = a2\n 23220: i32 a0 = a0 + 0\n 23222: a1 = s1 + 0x3000\n 23226: i32 a1 = a1 + 0xfffffffffffffe00\n 23230: a2 = 0\n 23232: ecalli 12 // 'return_data_copy'\n 23234: a0 = s1 + 0x2878\n 23238: a0 = i32 [a0 + 0x588]\n 23242: jump @806\n      : @835 (gas: 3)\n 23245: a0 = s1 + 0x1ca0\n 23249: a1 = 0x40\n 23252: ra = 852, jump @7\n      : @836 [@dyn 426] (gas: 14)\n 23258: a0 = s1 + 0x1878\n 23262: a2 = a0 + 0x400\n 23266: a1 = u64 [a2 + 0x40]\n 23269: u64 [s1 + 0xf0] = a1\n 23273: a1 = u64 [a2 + 0x38]\n 23276: u64 [s1 + 0xe8] = a1\n 23280: a1 = u64 [a2 + 0x30]\n 23283: u64 [s1 + 0xe0] = a1\n 23287: a0 = u64 [a2 + 0x28]\n 23290: u64 [s1 + 0xf8] = a0\n 23294: ra = 0x356\n 23298: ecalli 13 // 'return_data_size'\n 23300: t0 = 0x358\n 23304: jump @1556\n      : @837 [@dyn 427] (gas: 1)\n 23307: t0 = 856, jump @1556\n      : @838 [@dyn 428] (gas: 1)\n 23313: jump @843 if a1 != 0\n      : @839 (gas: 3)\n 23316: a2 = a0\n 23318: a0 = a0 >> 0x20\n 23321: jump @843 if a0 != 0\n      : @840 (gas: 1)\n 23324: t0 = 858, jump @1593\n      : @841 [@dyn 429] (gas: 1)\n 23330: ra = 860, jump @20\n      : @842 [@dyn 430] (gas: 11)\n 23336: a1 = s1 + 0x2878\n 23340: a2 = u64 [s1 + 0xe8]\n 23344: u32 [a1 + 0x508] = a2\n 23348: i32 a0 = a0 + 0\n 23350: a1 = s1 + 0x3000\n 23354: i32 a1 = a1 + 0xfffffffffffffd80\n 23358: a2 = 0\n 23360: ecalli 12 // 'return_data_copy'\n 23362: a0 = s1 + 0x2878\n 23366: a0 = i32 [a0 + 0x508]\n 23370: jump @806\n      : @843 (gas: 1)\n 23373: trap\n      : @844 (gas: 11)\n 23374: a2 = s1 + 0x7ff\n 23378: a2 = a2 + 0x79\n 23381: u64 [a2 + 1272] = 0\n 23385: u64 [a2 + 1264] = 0\n 23389: a0 = 0xfcb63a2200000000\n 23399: u64 [a2 + 0x500] = a0\n 23403: a1 = s1 + 0x7ff\n 23407: a1 = a1 + 0x561\n 23411: u64 [a2 + 1256] = 0\n 23415: a0 = 0\n 23417: ra = 862, jump @9\n      : @845 [@dyn 431] (gas: 2)\n 23423: a1 = i32 [0x20150]\n 23428: jump @847 if a1 >u 31\n      : @846 (gas: 4)\n 23432: u32 [0x20150] = 0x20\n 23438: a1 = 0x20160\n 23443: i32 a1 = a1 + 0\n 23445: jump @904\n      : @847 (gas: 3)\n 23448: a1 = 0x20160\n 23453: i32 a1 = a1 + 0\n 23455: jump @904\n      : @848 (gas: 3)\n 23458: a1 = 0x20160\n 23463: i32 a1 = a1 + 0\n 23465: jump @1204\n      : @849 (gas: 3)\n 23468: a1 = 0x20160\n 23473: i32 a1 = a1 + 0\n 23475: jump @1204\n      : @850 (gas: 3)\n 23478: a1 = 0x20160\n 23483: i32 a1 = a1 + 0\n 23485: jump @1204\n      : @851 (gas: 3)\n 23488: a1 = 0x20160\n 23493: i32 a1 = a1 + 0\n 23495: jump @1204\n      : @852 (gas: 11)\n 23498: a2 = s1 + 0x7ff\n 23502: a2 = a2 + 0x79\n 23505: u64 [a2 + 696] = 0\n 23509: u64 [a2 + 688] = 0\n 23513: a0 = 0x2c5211c600000000\n 23523: u64 [a2 + 0x2c0] = a0\n 23527: a1 = s1 + 0x7ff\n 23531: a1 = a1 + 0x321\n 23535: u64 [a2 + 680] = 0\n 23539: a0 = 0\n 23541: ra = 864, jump @9\n      : @853 [@dyn 432] (gas: 2)\n 23547: a1 = i32 [0x20150]\n 23552: jump @855 if a1 >u 31\n      : @854 (gas: 4)\n 23556: u32 [0x20150] = 0x20\n 23562: a1 = 0x20160\n 23567: i32 a1 = a1 + 0\n 23569: jump @904\n      : @855 (gas: 3)\n 23572: a1 = 0x20160\n 23577: i32 a1 = a1 + 0\n 23579: jump @904\n      : @856 (gas: 11)\n 23582: a2 = s1 + 0x7ff\n 23586: a2 = a2 + 0x79\n 23589: u64 [a2 + 728] = 0\n 23593: u64 [a2 + 720] = 0\n 23597: a0 = 0xfcb63a2200000000\n 23607: u64 [a2 + 0x2e0] = a0\n 23611: a1 = s1 + 0x7ff\n 23615: a1 = a1 + 0x341\n 23619: u64 [a2 + 712] = 0\n 23623: a0 = 0\n 23625: ra = 866, jump @9\n      : @857 [@dyn 433] (gas: 2)\n 23631: a1 = i32 [0x20150]\n 23636: jump @859 if a1 >u 31\n      : @858 (gas: 4)\n 23640: u32 [0x20150] = 0x20\n 23646: a1 = 0x20160\n 23651: i32 a1 = a1 + 0\n 23653: jump @904\n      : @859 (gas: 3)\n 23656: a1 = 0x20160\n 23661: i32 a1 = a1 + 0\n 23663: jump @904\n      : @860 (gas: 3)\n 23666: a1 = 0x20160\n 23671: i32 a1 = a1 + 0\n 23673: jump @1204\n      : @861 (gas: 3)\n 23676: a1 = 0x20160\n 23681: i32 a1 = a1 + 0\n 23683: jump @1204\n      : @862 (gas: 3)\n 23686: a1 = 0x20160\n 23691: i32 a1 = a1 + 0\n 23693: jump @1204\n      : @863 (gas: 3)\n 23696: a1 = 0x20160\n 23701: i32 a1 = a1 + 0\n 23703: jump @1204\n      : @864 (gas: 3)\n 23706: a1 = 0x20160\n 23711: i32 a1 = a1 + 0\n 23713: jump @1204\n      : @865 (gas: 10)\n 23716: a2 = s1 + 0x1878\n 23720: u64 [a2 + 1624] = 0\n 23724: u64 [a2 + 1616] = 0\n 23728: a0 = 0xdd75059200000000\n 23738: u64 [a2 + 0x660] = a0\n 23742: a1 = s1 + 0x1ec0\n 23746: u64 [a2 + 1608] = 0\n 23750: a0 = 0\n 23752: ra = 0x36c\n 23756: jump @9\n      : @866 (gas: 3)\n 23759: a1 = 0x20160\n 23764: i32 a1 = a1 + 0\n 23766: jump @1204\n      : @867 (gas: 3)\n 23769: t0 = 0x364\n 23773: a2 = s1 + 0x1078\n 23777: fallthrough\n      : @868 [@dyn 434] (gas: 8)\n 23778: u64 [a2 + 1912] = 0\n 23782: u64 [a2 + 1904] = 0\n 23786: a0 = 0x2c5211c600000000\n 23796: u64 [a2 + 0x780] = a0\n 23800: a1 = s1 + 0x17e0\n 23804: u64 [a2 + 1896] = 0\n 23808: a0 = 0\n 23810: ra = 870, jump @9\n      : @869 [@dyn 435] (gas: 2)\n 23816: a1 = i32 [0x20150]\n 23821: jump @871 if a1 >u 31\n      : @870 (gas: 4)\n 23825: u32 [0x20150] = 0x20\n 23831: a1 = 0x20160\n 23836: i32 a1 = a1 + 0\n 23838: jump @904\n      : @871 (gas: 3)\n 23841: a1 = 0x20160\n 23846: i32 a1 = a1 + 0\n 23848: jump @904\n      : @872 (gas: 3)\n 23851: a1 = 0x20160\n 23856: i32 a1 = a1 + 0\n 23858: jump @1204\n      : @873 (gas: 3)\n 23861: a1 = 0x20160\n 23866: i32 a1 = a1 + 0\n 23868: jump @1204\n      : @874 (gas: 3)\n 23871: a1 = 0x20160\n 23876: i32 a1 = a1 + 0\n 23878: jump @1204\n      : @875 (gas: 3)\n 23881: a1 = 0x20160\n 23886: i32 a1 = a1 + 0\n 23888: jump @1204\n      : @876 (gas: 3)\n 23891: a1 = 0x20160\n 23896: i32 a1 = a1 + 0\n 23898: jump @1204\n      : @877 (gas: 3)\n 23901: a1 = 0x20160\n 23906: i32 a1 = a1 + 0\n 23908: jump @1204\n      : @878 (gas: 3)\n 23911: a1 = 0x20160\n 23916: i32 a1 = a1 + 0\n 23918: jump @1204\n      : @879 (gas: 3)\n 23921: a1 = 0x20160\n 23926: i32 a1 = a1 + 0\n 23928: jump @1204\n      : @880 (gas: 3)\n 23931: a1 = 0x20160\n 23936: i32 a1 = a1 + 0\n 23938: jump @1204\n      : @881 (gas: 3)\n 23941: a1 = 0x20160\n 23946: i32 a1 = a1 + 0\n 23948: jump @1204\n      : @882 (gas: 3)\n 23951: a1 = 0x20160\n 23956: i32 a1 = a1 + 0\n 23958: jump @1204\n      : @883 (gas: 3)\n 23961: a1 = 0x20160\n 23966: i32 a1 = a1 + 0\n 23968: jump @1204\n      : @884 (gas: 3)\n 23971: a1 = 0x20160\n 23976: i32 a1 = a1 + 0\n 23978: jump @1204\n      : @885 (gas: 3)\n 23981: a1 = 0x20160\n 23986: i32 a1 = a1 + 0\n 23988: jump @1204\n      : @886 (gas: 3)\n 23991: a1 = 0x20160\n 23996: i32 a1 = a1 + 0\n 23998: jump @1204\n      : @887 (gas: 3)\n 24001: a1 = 0x20160\n 24006: i32 a1 = a1 + 0\n 24008: jump @1204\n      : @888 (gas: 3)\n 24011: a1 = 0x20160\n 24016: i32 a1 = a1 + 0\n 24018: jump @1204\n      : @889 (gas: 3)\n 24021: a1 = 0x20160\n 24026: i32 a1 = a1 + 0\n 24028: jump @1204\n      : @890 (gas: 3)\n 24031: a1 = 0x20160\n 24036: i32 a1 = a1 + 0\n 24038: jump @1204\n      : @891 (gas: 3)\n 24041: a1 = 0x20160\n 24046: i32 a1 = a1 + 0\n 24048: jump @1204\n      : @892 (gas: 3)\n 24051: a1 = 0x20160\n 24056: i32 a1 = a1 + 0\n 24058: jump @1204\n      : @893 (gas: 11)\n 24061: a0 = s1 + 0x1878\n 24065: u64 [a0 + 2040] = 0\n 24069: u64 [a0 + 2032] = 0\n 24073: u64 [a0 + 2024] = 0\n 24077: a0 = 0xcc67c13b00000000\n 24087: a1 = s1 + 0x2060\n 24091: a2 = s1 + 0x2078\n 24095: u64 [a2] = a0\n 24097: a0 = 0\n 24099: ra = 0x36c\n 24103: jump @9\n      : @894 (gas: 10)\n 24106: a0 = s1 + 0x2078\n 24110: u64 [a0 + 56] = 0\n 24113: u64 [a0 + 48] = 0\n 24116: u64 [a0 + 40] = 0\n 24119: a2 = a0\n 24121: a0 = 0x4e487b7100000000\n 24131: a1 = s1 + 0x20a0\n 24135: u64 [a2 + 0x40] = a0\n 24138: a0 = 0\n 24140: ra = 872, jump @9\n      : @895 [@dyn 436] (gas: 10)\n 24146: a1 = s1 + 0x2078\n 24150: u64 [a1 + 32] = 0\n 24153: u64 [a1 + 24] = 0\n 24156: u64 [a1 + 8] = 0x11\n 24160: a2 = a1\n 24162: a0 = 0x4\n 24165: a1 = s1 + 0x2080\n 24169: u64 [a2 + 16] = 0\n 24172: ra = 0x374\n 24176: jump @9\n      : @896 (gas: 3)\n 24179: t0 = 0x36a\n 24183: a2 = s1 + 0x2078\n 24187: fallthrough\n      : @897 [@dyn 437] (gas: 8)\n 24188: u64 [a2 + 88] = 0\n 24191: u64 [a2 + 80] = 0\n 24194: a0 = 0xe9987cdd00000000\n 24204: u64 [a2 + 0x60] = a0\n 24207: a1 = s1 + 0x20c0\n 24211: u64 [a2 + 72] = 0\n 24214: a0 = 0\n 24216: ra = 876, jump @9\n      : @898 [@dyn 438] (gas: 3)\n 24222: a1 = 0x4\n 24225: a0 = 0\n 24227: ra = 878, jump @20\n      : @899 [@dyn 439] (gas: 2)\n 24233: i32 a1 = a0 + 0\n 24235: jump @904\n      : @900 (gas: 11)\n 24237: a2 = s1 + 0x7ff\n 24241: a2 = a2 + 0x79\n 24244: u64 [a2 + 504] = 0\n 24248: u64 [a2 + 496] = 0\n 24252: a0 = 0xd5b25b6300000000\n 24262: u64 [a2 + 0x200] = a0\n 24266: a1 = s1 + 0x7ff\n 24270: a1 = a1 + 0x261\n 24274: u64 [a2 + 488] = 0\n 24278: a0 = 0\n 24280: ra = 880, jump @9\n      : @901 [@dyn 440] (gas: 2)\n 24286: a1 = i32 [0x20150]\n 24291: jump @903 if a1 >u 31\n      : @902 (gas: 4)\n 24295: u32 [0x20150] = 0x20\n 24301: a1 = 0x20160\n 24306: i32 a1 = a1 + 0\n 24308: jump @904\n      : @903 (gas: 3)\n 24310: a1 = 0x20160\n 24315: i32 a1 = a1 + 0\n 24317: fallthrough\n      : @904 (gas: 4)\n 24318: a0 = 0x1\n 24321: a2 = 0x4\n 24324: ecalli 14 // 'seal_return'\n 24326: fallthrough\n      : @905 (gas: 8)\n 24327: u64 [t0 + 152] = 0\n 24331: u64 [t0 + 144] = 0\n 24335: u64 [t0 + 136] = 0\n 24339: a0 = 0x4e487b7100000000\n 24349: a1 = s1 + 0x2100\n 24353: u64 [t0 + 0xa0] = a0\n 24357: a0 = 0\n 24359: ra = 882, jump @9\n      : @906 [@dyn 441] (gas: 9)\n 24365: a1 = s1 + 0x2078\n 24369: u64 [a1 + 128] = 0\n 24373: u64 [a1 + 120] = 0\n 24376: u64 [a1 + 104] = 0x41\n 24380: a2 = a1\n 24382: a0 = 0x4\n 24385: a1 = s1 + 0x20e0\n 24389: u64 [a2 + 112] = 0\n 24392: ra = 884, jump @9\n      : @907 [@dyn 442] (gas: 3)\n 24398: a1 = 0x24\n 24401: a0 = 0\n 24403: ra = 886, jump @20\n      : @908 [@dyn 443] (gas: 6)\n 24409: i32 a1 = a0 + 0\n 24411: a0 = 0x1\n 24414: a2 = 0x24\n 24417: ra = 0x378\n 24421: ecalli 14 // 'seal_return'\n 24423: fallthrough\n      : @909 [@dyn 444] (gas: 1)\n 24424: jump @921 if a0 != 2618616686\n      : @910 (gas: 11)\n 24432: a0 = s1 + 0x2878\n 24436: u64 [a0 + 576] = 0\n 24440: u64 [a0 + 568] = 0\n 24444: u64 [a0 + 560] = 0\n 24448: u64 [a0 + 552] = 0\n 24452: a0 = s1 + 0x3000\n 24456: i32 a0 = a0 + 0xfffffffffffffaa0\n 24460: ra = 0x37a\n 24464: ecalli 17 // 'value_transferred'\n 24466: t0 = 0x37c\n 24470: jump @1596\n      : @911 [@dyn 445] (gas: 1)\n 24473: t0 = 892, jump @1596\n      : @912 [@dyn 446] (gas: 8)\n 24479: a0 = u64 [a4 + 0x38]\n 24482: a1 = u64 [a4 + 0x40]\n 24485: a2 = u64 [a4 + 0x30]\n 24488: a3 = u64 [a4 + 0x28]\n 24491: a1 = a1 | a2\n 24494: a0 = a0 | a3\n 24497: a0 = a0 | a1\n 24500: jump @934 if a0 == 0\n      : @913 (gas: 3)\n 24504: a1 = 0x20160\n 24509: i32 a1 = a1 + 0\n 24511: jump @1204\n      : @914 (gas: 3)\n 24514: a1 = 0x20160\n 24519: i32 a1 = a1 + 0\n 24521: jump @1204\n      : @915 (gas: 3)\n 24524: a1 = 0x20160\n 24529: i32 a1 = a1 + 0\n 24531: jump @1204\n      : @916 (gas: 12)\n 24534: a2 = s1 + 0x7ff\n 24538: a2 = a2 + 0x79\n 24541: u64 [a2 + 760] = 0\n 24545: u64 [a2 + 752] = 0\n 24549: a0 = 0xf4d678b800000000\n 24559: u64 [a2 + 0x300] = a0\n 24563: a1 = s1 + 0x7ff\n 24567: a1 = a1 + 0x361\n 24571: u64 [a2 + 744] = 0\n 24575: a0 = 0\n 24577: ra = 0x37e\n 24581: jump @9\n      : @917 (gas: 11)\n 24584: a2 = s1 + 0x7ff\n 24588: a2 = a2 + 0x79\n 24591: u64 [a2 + 1144] = 0\n 24595: u64 [a2 + 1136] = 0\n 24599: a0 = 0xf4d678b800000000\n 24609: u64 [a2 + 0x480] = a0\n 24613: a1 = s1 + 0x7ff\n 24617: a1 = a1 + 0x4e1\n 24621: u64 [a2 + 1128] = 0\n 24625: a0 = 0\n 24627: ra = 894, jump @9\n      : @918 [@dyn 447] (gas: 3)\n 24633: a0 = u64 [s1 + 0x78]\n 24636: a0 = i32 [a0]\n 24638: jump @920 if a0 >u 31\n      : @919 (gas: 3)\n 24642: a1 = u64 [s1 + 0x78]\n 24645: u32 [a1 + 0] = 0x20\n 24648: fallthrough\n      : @920 (gas: 6)\n 24649: a0 = 0x1\n 24652: a2 = 0x4\n 24655: a1 = u64 [s1 + 0x88]\n 24659: ra = 0x380\n 24663: ecalli 14 // 'seal_return'\n 24665: fallthrough\n      : @921 [@dyn 448] (gas: 1)\n 24666: jump @936 if a0 != 2685688103\n      : @922 (gas: 11)\n 24674: a0 = s1 + 0x2878\n 24678: u64 [a0 + 640] = 0\n 24682: u64 [a0 + 632] = 0\n 24686: u64 [a0 + 624] = 0\n 24690: u64 [a0 + 616] = 0\n 24694: a0 = s1 + 0x3000\n 24698: i32 a0 = a0 + 0xfffffffffffffae0\n 24702: ra = 0x382\n 24706: ecalli 17 // 'value_transferred'\n 24708: t0 = 0x384\n 24712: jump @1596\n      : @923 [@dyn 449] (gas: 1)\n 24715: t0 = 900, jump @1596\n      : @924 [@dyn 450] (gas: 1)\n 24721: t0 = 902, jump @1584\n      : @925 [@dyn 451] (gas: 1)\n 24727: jump @942 if a0 == 0\n      : @926 (gas: 3)\n 24731: a1 = 0x20160\n 24736: i32 a1 = a1 + 0\n 24738: jump @1204\n      : @927 (gas: 6)\n 24741: a1 = 0x20160\n 24746: i32 a1 = a1 + 0\n 24748: a0 = 0x1\n 24751: ecalli 14 // 'seal_return'\n 24753: u64 [s1 + 184] = 0\n 24757: jump @929\n      : @928 (gas: 2)\n 24759: u64 [s1 + 184] = 0\n 24763: fallthrough\n      : @929 (gas: 5)\n 24764: a0 = u64 [s1 + 0xc8]\n 24768: a0 = a0 << 0x1\n 24771: a4 = u64 [s1 + 0xb8]\n 24775: a4 = a4 | a0\n 24778: fallthrough\n      : @930 (gas: 7)\n 24779: u64 [s1 + 824] = 0\n 24783: u64 [s1 + 816] = 0\n 24787: u64 [s1 + 808] = 0\n 24791: a1 = s1 + 0x320\n 24795: u64 [s1 + 0x320] = a4\n 24799: a0 = u64 [s1 + 0x78]\n 24802: ra = 904, jump @9\n      : @931 [@dyn 452] (gas: 4)\n 24808: a1 = 0x20\n 24811: a0 = u64 [s1 + 0x78]\n 24814: ra = 0x190\n 24818: jump @20\n      : @932 (gas: 4)\n 24821: a0 = 0x1\n 24824: a1 = u64 [s1 + 0xc0]\n 24828: ecalli 14 // 'seal_return'\n 24830: fallthrough\n      : @933 (gas: 8)\n 24831: a0 = 0x1\n 24834: a1 = u64 [s1 + 0xc0]\n 24838: a2 = 0\n 24840: ecalli 14 // 'seal_return'\n 24842: a1 = 0x20160\n 24847: i32 a1 = a1 + 0\n 24849: a0 = 0\n 24851: jump @1205\n      : @934 (gas: 3)\n 24854: a0 = u64 [s1 + 0xf8]\n 24858: a0 = i32 [a0]\n 24860: jump @944 if a0 >u 99\n      : @935 (gas: 3)\n 24864: a1 = 0x20160\n 24869: i32 a1 = a1 + 0\n 24871: jump @1204\n      : @936 (gas: 1)\n 24874: jump @969 if a0 != 3058722618\n      : @937 (gas: 11)\n 24882: a0 = s1 + 0x2878\n 24886: u64 [a0 + 800] = 0\n 24890: u64 [a0 + 792] = 0\n 24894: u64 [a0 + 784] = 0\n 24898: u64 [a0 + 776] = 0\n 24902: a0 = s1 + 0x3000\n 24906: i32 a0 = a0 + 0xfffffffffffffb80\n 24910: ra = 0x38a\n 24914: ecalli 17 // 'value_transferred'\n 24916: t0 = 0x38c\n 24920: jump @1580\n      : @938 [@dyn 453] (gas: 1)\n 24923: t0 = 908, jump @1580\n      : @939 [@dyn 454] (gas: 1)\n 24929: t0 = 910, jump @1577\n      : @940 [@dyn 455] (gas: 1)\n 24935: jump @976 if a0 == 0\n      : @941 (gas: 3)\n 24939: a1 = 0x20160\n 24944: i32 a1 = a1 + 0\n 24946: jump @1204\n      : @942 (gas: 3)\n 24949: a0 = u64 [s1 + 0xf8]\n 24953: a0 = i32 [a0]\n 24955: jump @978 if a0 >u 67\n      : @943 (gas: 3)\n 24960: a1 = 0x20160\n 24965: i32 a1 = a1 + 0\n 24967: jump @1204\n      : @944 (gas: 4)\n 24970: a0 = s1 + 0x1100\n 24974: ra = 0x390\n 24978: t0 = 0x4fe\n 24982: jump @1590\n      : @945 [@dyn 456] (gas: 13)\n 24985: a1 = s1 + 0x1078\n 24989: a0 = u64 [a1 + 0xa0]\n 24993: u64 [s1 + 0x70] = a0\n 24996: a0 = u64 [a1 + 0x98]\n 25000: u64 [s1 + 0x68] = a0\n 25003: a0 = u64 [a1 + 0x90]\n 25007: u64 [s1 + 0x60] = a0\n 25010: a0 = u64 [a1 + 0x88]\n 25014: u64 [s1 + 0x50] = a0\n 25017: a0 = s1 + 0x10e0\n 25021: ra = 0x392\n 25025: t0 = 0x508\n 25029: jump @1595\n      : @946 [@dyn 457] (gas: 13)\n 25032: a1 = s1 + 0x1078\n 25036: a0 = u64 [a1 + 0x80]\n 25040: u64 [s1 + 0x58] = a0\n 25043: a0 = u64 [a1 + 0x78]\n 25046: u64 [s1 + 0x48] = a0\n 25049: a0 = u64 [a1 + 0x70]\n 25052: u64 [s1 + 0x40] = a0\n 25055: a0 = u64 [a1 + 0x68]\n 25058: u64 [s1 + 0x78] = a0\n 25061: a0 = s1 + 0x10c0\n 25065: ra = 0x394\n 25069: t0 = 0x50e\n 25073: jump @1595\n      : @947 [@dyn 458] (gas: 13)\n 25076: a1 = s1 + 0x1078\n 25080: a0 = u64 [a1 + 0x60]\n 25083: u64 [s1 + 0x38] = a0\n 25086: a0 = u64 [a1 + 0x58]\n 25089: u64 [s1 + 0x30] = a0\n 25092: a0 = u64 [a1 + 0x50]\n 25095: u64 [s1 + 0x28] = a0\n 25098: a0 = u64 [a1 + 0x48]\n 25101: u64 [s1 + 0x20] = a0\n 25104: a0 = s1 + 0x3000\n 25108: i32 a0 = a0 + 0xfffffffffffffac0\n 25112: ecalli 10 // 'now'\n 25114: fallthrough\n      : @948 (gas: 49)\n 25115: a0 = s1 + 0x2878\n 25119: t0 = u64 [a0 + 0x260]\n 25123: a4 = u64 [a0 + 0x258]\n 25127: u64 [s1 + 0xb8] = a4\n 25131: t2 = u64 [a0 + 0x250]\n 25135: a3 = u64 [a0 + 0x248]\n 25139: u64 [s1 + 0xa0] = a3\n 25143: a0 = clz t0\n 25145: a1 = clz a4\n 25147: a2 = a1 + 0x40\n 25150: a2 = a0 if t0 != 0\n 25153: a0 = clz t2\n 25155: a1 = clz a3\n 25157: a1 = a1 + 0x40\n 25160: a1 = a0 if t2 != 0\n 25163: a0 = a1 + 0x80\n 25167: a3 = a4 | t0\n 25170: a2 = a0 if a3 == 0\n 25173: a5 = a0 <u a1\n 25176: a5 = 0 if a3 != 0\n 25178: a4 = a5 >u 0\n 25180: a0 = a2 <u 0xf0\n 25184: a3 = a0 ^ 0x1\n 25187: a4 = a3 if a5 == 0\n 25190: a0 = a4 <u 0x1\n 25193: ra = a0 + 0xffffffffffffffff\n 25196: t1 = -a4\n 25198: a5 = -a5\n 25200: a3 = a5 - a3\n 25203: a2 = 0xef - a2\n 25207: a5 = t1 >u 0\n 25209: a0 = ra >u 0\n 25211: a0 = a5 if ra == 0\n 25214: a5 = a2 <u 0x100\n 25218: a5 = a5 ^ 0x1\n 25221: a1 = a3 >u 0\n 25223: a5 = a1 if a3 != 0\n 25226: a5 = a0 if a4 != 0\n 25229: u64 [s1 + 0x98] = t2\n 25233: u64 [s1 + 0xb0] = t0\n 25237: a0 = t2 | t0\n 25240: a4 = u64 [s1 + 0xa0]\n 25244: a1 = u64 [s1 + 0xb8]\n 25248: a1 = a1 | a4\n 25251: a0 = a0 | a1\n 25254: a0 = a0 <u 0x1\n 25257: a0 = a0 | a5\n 25260: a4 = 0 if a0 != 0\n 25262: jump @1004 if a0 != 0\n      : @949 (gas: 5)\n 25266: a0 = a2 ^ 0xff\n 25270: a0 = a0 | t1\n 25273: a1 = a3 | ra\n 25276: a0 = a0 | a1\n 25279: jump @1004 if a0 == 0\n      : @950 (gas: 1)\n 25283: t0 = 918, jump @1554\n      : @951 [@dyn 459] (gas: 1)\n 25289: ra = 920, jump @1601\n      : @952 [@dyn 460] (gas: 6)\n 25295: u64 [s1 + 0xa8] = a0\n 25299: u64 [s1 + 0xc8] = a1\n 25303: a0 = u64 [s1 + 0xb8]\n 25307: a1 = u64 [s1 + 0xb0]\n 25311: a2 = u64 [s1 + 0xc0]\n 25315: ra = 922, jump @1606\n      : @953 [@dyn 461] (gas: 7)\n 25321: u64 [s1 + 0x90] = a0\n 25325: u64 [s1 + 0x88] = a1\n 25329: a0 = u64 [s1 + 0xc0]\n 25333: a2 = a0 + 0xffffffffffffff80\n 25336: a0 = u64 [s1 + 0xa0]\n 25340: a1 = u64 [s1 + 0x98]\n 25344: ra = 924, jump @1606\n      : @954 [@dyn 462] (gas: 8)\n 25350: u64 [s1 + 0x80] = a0\n 25354: u64 [s1 + 0x18] = a1\n 25357: a2 = u64 [s1 + 0xc0]\n 25361: a0 = a2 <u 0x80\n 25365: u64 [s1 + 0x10] = a0\n 25368: a0 = u64 [s1 + 0xa0]\n 25372: a1 = u64 [s1 + 0x98]\n 25376: ra = 926, jump @1606\n      : @955 [@dyn 463] (gas: 12)\n 25382: u64 [s1 + 0xd0] = a1\n 25386: a1 = u64 [s1 + 0xf0]\n 25390: a2 = u64 [s1 + 0xe8]\n 25394: a2 = a2 | a1\n 25397: a1 = u64 [s1 + 0xf8]\n 25401: a3 = u64 [s1 + 0xe0]\n 25405: a1 = a1 | a3\n 25408: a1 = a1 | a2\n 25411: a3 = u64 [s1 + 0x10]\n 25414: a0 = 0 if a3 == 0\n 25416: u64 [s1 + 0xd8] = a0\n 25420: jump @1002 if a1 == 0\n      : @956 (gas: 7)\n 25424: a2 = a3\n 25426: a0 = u64 [s1 + 0xc8]\n 25430: a1 = u64 [s1 + 0x88]\n 25434: a0 = a0 | a1\n 25437: a5 = a3\n 25439: a1 = u64 [s1 + 0x18]\n 25442: t0 = 928, jump @1550\n      : @957 [@dyn 464] (gas: 1)\n 25448: ra = 930, jump @1601\n      : @958 [@dyn 465] (gas: 6)\n 25454: u64 [s1 + 0xa8] = a0\n 25458: u64 [s1 + 0x80] = a1\n 25462: a0 = u64 [s1 + 0xa0]\n 25466: a1 = u64 [s1 + 0x98]\n 25470: a2 = u64 [s1 + 0xf8]\n 25474: ra = 932, jump @1601\n      : @959 [@dyn 466] (gas: 7)\n 25480: u64 [s1 + 0x18] = a0\n 25483: u64 [s1 + 0x88] = a1\n 25487: a1 = u64 [s1 + 0xf8]\n 25491: a2 = 0x80 - a1\n 25495: a0 = u64 [s1 + 0xb8]\n 25499: a1 = u64 [s1 + 0xb0]\n 25503: ra = 934, jump @1606\n      : @960 [@dyn 467] (gas: 1)\n 25509: t0 = 936, jump @1581\n      : @961 [@dyn 468] (gas: 2)\n 25515: a1 = u64 [s1 + 0x18]\n 25518: t0 = 938, jump @1600\n      : @962 [@dyn 469] (gas: 1)\n 25524: ra = 940, jump @1601\n      : @963 [@dyn 470] (gas: 1)\n 25530: t0 = 942, jump @1560\n      : @964 [@dyn 471] (gas: 1)\n 25536: t0 = 944, jump @1566\n      : @965 [@dyn 472] (gas: 5)\n 25542: t0 = ra <u a2\n 25545: a4 = u64 [s1 + 0x88]\n 25549: a5 = a4 <u a3\n 25552: a5 = t0 if t1 != 0\n 25555: t0 = 946, jump @1571\n      : @966 [@dyn 473] (gas: 20)\n 25561: t0 = a0 | a1\n 25564: a1 = a4 << 0x1\n 25567: a4 = u64 [s1 + 0xd0]\n 25571: t1 = a4 >> 0x3f\n 25574: t1 = a1 | t1\n 25577: a1 = a4 << 0x1\n 25580: a4 = u64 [s1 + 0xd8]\n 25584: t2 = a4 >> 0x3f\n 25587: a1 = a1 | t2\n 25590: a4 = a4 << 0x1\n 25593: a0 = u64 [s1 + 0xb8]\n 25597: a4 = a4 | a0\n 25600: u64 [s1 + 0xd8] = a4\n 25604: a0 = u64 [s1 + 0xb0]\n 25608: a1 = a1 | a0\n 25611: u64 [s1 + 0xd0] = a1\n 25615: a1 = a0 | t1\n 25618: u64 [s1 + 0xc0] = a1\n 25622: a0 = a0 | t0\n 25625: t0 = 948, jump @1543\n      : @967 [@dyn 474] (gas: 18)\n 25631: t0 = a4 <u a2\n 25634: a2 = a4 - a2\n 25637: a4 = a3 <u 0x1\n 25640: a5 = a5 - a4\n 25643: a4 = u64 [s1 + 0xe8]\n 25647: a4 = a4 - t0\n 25650: a3 = a3 + 0xffffffffffffffff\n 25653: u64 [s1 + 0xf0] = a5\n 25657: u64 [s1 + 0xe8] = a4\n 25661: t0 = a5 | a4\n 25664: u64 [s1 + 0xf8] = a3\n 25668: a4 = a3 | a2\n 25671: a3 = a4 | t0\n 25674: a4 = ra & 0x1\n 25677: u64 [s1 + 0xb8] = a4\n 25681: u64 [s1 + 0xe0] = a2\n 25685: u64 [s1 + 176] = 0\n 25689: jump @964 if a3 != 0\n      : @968 (gas: 1)\n 25693: jump @1003\n      : @969 (gas: 1)\n 25696: jump @1007 if a0 != 4076725131\n      : @970 (gas: 10)\n 25704: a0 = s1 + 0x2878\n 25708: u64 [a0 + 1888] = 0\n 25712: u64 [a0 + 1880] = 0\n 25716: u64 [a0 + 1872] = 0\n 25720: u64 [a0 + 1864] = 0\n 25724: a0 = s1 + 0x3000\n 25728: i32 a0 = a0 + 0xffffffffffffffc0\n 25731: ra = 0x3b6\n 25735: ecalli 17 // 'value_transferred'\n 25737: fallthrough\n      : @971 [@dyn 475] (gas: 3)\n 25738: a3 = s1 + 0x2878\n 25742: a4 = a3 + 0x700\n 25746: t0 = 952, jump @1572\n      : @972 [@dyn 476] (gas: 1)\n 25752: jump @974 if a0 != 0\n      : @973 (gas: 3)\n 25755: a0 = u64 [s1 + 0xf8]\n 25759: a0 = i32 [a0]\n 25761: jump @1013 if a0 >u 35\n      : @974 (gas: 3)\n 25766: a0 = 0\n 25768: a1 = 0\n 25770: ra = 954, jump @20\n      : @975 [@dyn 477] (gas: 3)\n 25776: i32 a1 = a0 + 0\n 25778: a0 = 0x1\n 25781: jump @1205\n      : @976 (gas: 3)\n 25784: a0 = u64 [s1 + 0xf8]\n 25788: a0 = i32 [a0]\n 25790: jump @1022 if a0 >u 35\n      : @977 (gas: 3)\n 25795: a1 = 0x20160\n 25800: i32 a1 = a1 + 0\n 25802: jump @1204\n      : @978 (gas: 4)\n 25805: a0 = s1 + 0x14c0\n 25809: ra = 0x3bc\n 25813: t0 = 0x518\n 25817: jump @1590\n      : @979 [@dyn 478] (gas: 7)\n 25820: a0 = s1 + 0x1078\n 25824: a0 = u64 [a0 + 0x448]\n 25828: u64 [s1 + 0x78] = a0\n 25831: a0 = s1 + 0x14a0\n 25835: ra = 0x3be\n 25839: t0 = 0x508\n 25843: jump @1595\n      : @980 [@dyn 479] (gas: 7)\n 25846: a0 = s1 + 0x1078\n 25850: a0 = u64 [a0 + 0x428]\n 25854: u64 [s1 + 0x70] = a0\n 25857: a0 = s1 + 0x3000\n 25861: i32 a0 = a0 + 0xfffffffffffffb00\n 25865: ecalli 10 // 'now'\n 25867: fallthrough\n      : @981 (gas: 51)\n 25868: a0 = s1 + 0x2878\n 25872: t0 = u64 [a0 + 0x2a0]\n 25876: a4 = u64 [a0 + 0x298]\n 25880: u64 [s1 + 0xb8] = a4\n 25884: t2 = u64 [a0 + 0x290]\n 25888: a3 = u64 [a0 + 0x288]\n 25892: u64 [s1 + 0xa0] = a3\n 25896: a0 = clz t0\n 25898: a1 = clz a4\n 25900: a2 = a1 + 0x40\n 25903: a2 = a0 if t0 != 0\n 25906: a0 = clz t2\n 25908: a1 = clz a3\n 25910: a1 = a1 + 0x40\n 25913: a1 = a0 if t2 != 0\n 25916: a0 = a1 + 0x80\n 25920: a3 = a4 | t0\n 25923: a2 = a0 if a3 == 0\n 25926: a5 = a0 <u a1\n 25929: a5 = 0 if a3 != 0\n 25931: a4 = a5 >u 0\n 25933: a0 = a2 <u 0xf0\n 25937: a3 = a0 ^ 0x1\n 25940: a4 = a3 if a5 == 0\n 25943: a0 = a4 <u 0x1\n 25946: ra = a0 + 0xffffffffffffffff\n 25949: t1 = -a4\n 25951: a5 = -a5\n 25953: a3 = a5 - a3\n 25956: a2 = 0xef - a2\n 25960: a5 = t1 >u 0\n 25962: a0 = ra >u 0\n 25964: a0 = a5 if ra == 0\n 25967: a5 = a2 <u 0x100\n 25971: a5 = a5 ^ 0x1\n 25974: a1 = a3 >u 0\n 25976: a5 = a1 if a3 != 0\n 25979: a5 = a0 if a4 != 0\n 25982: u64 [s1 + 0x98] = t2\n 25986: u64 [s1 + 0xb0] = t0\n 25990: a0 = t2 | t0\n 25993: a4 = u64 [s1 + 0xa0]\n 25997: a1 = u64 [s1 + 0xb8]\n 26001: a1 = a1 | a4\n 26004: a0 = a0 | a1\n 26007: a0 = a0 <u 0x1\n 26010: a0 = a0 | a5\n 26013: a1 = a4\n 26015: a1 = 0 if a0 != 0\n 26017: u64 [s1 + 0xe8] = a1\n 26021: jump @1044 if a0 != 0\n      : @982 (gas: 5)\n 26025: a0 = a2 ^ 0xff\n 26029: a0 = a0 | t1\n 26032: a1 = a3 | ra\n 26035: a0 = a0 | a1\n 26038: jump @1044 if a0 == 0\n      : @983 (gas: 1)\n 26042: t0 = 960, jump @1554\n      : @984 [@dyn 480] (gas: 1)\n 26048: ra = 962, jump @1601\n      : @985 [@dyn 481] (gas: 6)\n 26054: u64 [s1 + 0xa8] = a0\n 26058: u64 [s1 + 0xc8] = a1\n 26062: a0 = u64 [s1 + 0xb8]\n 26066: a1 = u64 [s1 + 0xb0]\n 26070: a2 = u64 [s1 + 0xc0]\n 26074: ra = 964, jump @1606\n      : @986 [@dyn 482] (gas: 7)\n 26080: u64 [s1 + 0x90] = a0\n 26084: u64 [s1 + 0x88] = a1\n 26088: a0 = u64 [s1 + 0xc0]\n 26092: a2 = a0 + 0xffffffffffffff80\n 26095: a0 = u64 [s1 + 0xa0]\n 26099: a1 = u64 [s1 + 0x98]\n 26103: ra = 966, jump @1606\n      : @987 [@dyn 483] (gas: 8)\n 26109: u64 [s1 + 0x80] = a0\n 26113: u64 [s1 + 0x68] = a1\n 26116: a2 = u64 [s1 + 0xc0]\n 26120: a0 = a2 <u 0x80\n 26124: u64 [s1 + 0x60] = a0\n 26127: a0 = u64 [s1 + 0xa0]\n 26131: a1 = u64 [s1 + 0x98]\n 26135: ra = 968, jump @1606\n      : @988 [@dyn 484] (gas: 12)\n 26141: u64 [s1 + 0xd0] = a1\n 26145: a1 = u64 [s1 + 0xf0]\n 26149: a2 = u64 [s1 + 0xe8]\n 26153: a2 = a2 | a1\n 26156: a1 = u64 [s1 + 0xf8]\n 26160: a3 = u64 [s1 + 0xe0]\n 26164: a1 = a1 | a3\n 26167: a1 = a1 | a2\n 26170: a3 = u64 [s1 + 0x60]\n 26173: a0 = 0 if a3 == 0\n 26175: u64 [s1 + 0xd8] = a0\n 26179: jump @1042 if a1 == 0\n      : @989 (gas: 7)\n 26183: a2 = a3\n 26185: a0 = u64 [s1 + 0xc8]\n 26189: a1 = u64 [s1 + 0x88]\n 26193: a0 = a0 | a1\n 26196: a5 = a3\n 26198: a1 = u64 [s1 + 0x68]\n 26201: t0 = 970, jump @1550\n      : @990 [@dyn 485] (gas: 1)\n 26207: ra = 972, jump @1601\n      : @991 [@dyn 486] (gas: 6)\n 26213: u64 [s1 + 0xa8] = a0\n 26217: u64 [s1 + 0x80] = a1\n 26221: a0 = u64 [s1 + 0xa0]\n 26225: a1 = u64 [s1 + 0x98]\n 26229: a2 = u64 [s1 + 0xf8]\n 26233: ra = 974, jump @1601\n      : @992 [@dyn 487] (gas: 7)\n 26239: u64 [s1 + 0x68] = a0\n 26242: u64 [s1 + 0x88] = a1\n 26246: a1 = u64 [s1 + 0xf8]\n 26250: a2 = 0x80 - a1\n 26254: a0 = u64 [s1 + 0xb8]\n 26258: a1 = u64 [s1 + 0xb0]\n 26262: ra = 976, jump @1606\n      : @993 [@dyn 488] (gas: 1)\n 26268: t0 = 978, jump @1581\n      : @994 [@dyn 489] (gas: 2)\n 26274: a1 = u64 [s1 + 0x68]\n 26277: t0 = 980, jump @1600\n      : @995 [@dyn 490] (gas: 1)\n 26283: ra = 982, jump @1601\n      : @996 [@dyn 491] (gas: 1)\n 26289: t0 = 984, jump @1560\n      : @997 [@dyn 492] (gas: 1)\n 26295: t0 = 986, jump @1566\n      : @998 [@dyn 493] (gas: 5)\n 26301: t0 = ra <u a2\n 26304: a4 = u64 [s1 + 0x88]\n 26308: a5 = a4 <u a3\n 26311: a5 = t0 if t1 != 0\n 26314: t0 = 988, jump @1571\n      : @999 [@dyn 494] (gas: 20)\n 26320: t0 = a0 | a1\n 26323: a1 = a4 << 0x1\n 26326: a4 = u64 [s1 + 0xd0]\n 26330: t1 = a4 >> 0x3f\n 26333: t1 = a1 | t1\n 26336: a1 = a4 << 0x1\n 26339: a4 = u64 [s1 + 0xd8]\n 26343: t2 = a4 >> 0x3f\n 26346: a1 = a1 | t2\n 26349: a4 = a4 << 0x1\n 26352: a0 = u64 [s1 + 0xb8]\n 26356: a4 = a4 | a0\n 26359: u64 [s1 + 0xd8] = a4\n 26363: a0 = u64 [s1 + 0xb0]\n 26367: a1 = a1 | a0\n 26370: u64 [s1 + 0xd0] = a1\n 26374: a1 = a0 | t1\n 26377: u64 [s1 + 0xc0] = a1\n 26381: a0 = a0 | t0\n 26384: t0 = 990, jump @1543\n      : @1000 [@dyn 495] (gas: 18)\n 26390: t0 = a4 <u a2\n 26393: a2 = a4 - a2\n 26396: a4 = a3 <u 0x1\n 26399: a5 = a5 - a4\n 26402: a4 = u64 [s1 + 0xe8]\n 26406: a4 = a4 - t0\n 26409: a3 = a3 + 0xffffffffffffffff\n 26412: u64 [s1 + 0xf0] = a5\n 26416: u64 [s1 + 0xe8] = a4\n 26420: t0 = a5 | a4\n 26423: u64 [s1 + 0xf8] = a3\n 26427: a4 = a3 | a2\n 26430: a3 = a4 | t0\n 26433: a4 = ra & 0x1\n 26436: u64 [s1 + 0xb8] = a4\n 26440: u64 [s1 + 0xe0] = a2\n 26444: u64 [s1 + 176] = 0\n 26448: jump @997 if a3 != 0\n      : @1001 (gas: 1)\n 26452: jump @1043\n      : @1002 (gas: 2)\n 26455: u64 [s1 + 184] = 0\n 26459: fallthrough\n      : @1003 (gas: 5)\n 26460: a0 = u64 [s1 + 0xd8]\n 26464: a0 = a0 << 0x1\n 26467: a4 = u64 [s1 + 0xb8]\n 26471: a4 = a4 | a0\n 26474: fallthrough\n      : @1004 (gas: 2)\n 26475: a0 = u64 [s1 + 0x78]\n 26478: jump @1111 if a0 >=u a4\n      : @1005 (gas: 32)\n 26482: a0 = s1 + 0x7ff\n 26486: a0 = a0 + 0x79\n 26489: a1 = u64 [s1 + 0x20]\n 26492: a2 = a0 + 0x700\n 26496: u64 [a2 + 0xc8] = a1\n 26500: a1 = u64 [s1 + 0x78]\n 26503: u64 [a2 + 0xe8] = a1\n 26507: a3 = s1 + 0x1078\n 26511: a1 = u64 [s1 + 0x50]\n 26514: u64 [a3 + 0x8] = a1\n 26517: a1 = u64 [s1 + 0x28]\n 26520: u64 [a2 + 0xd0] = a1\n 26524: a1 = u64 [s1 + 0x40]\n 26527: u64 [a2 + 0xf0] = a1\n 26531: a1 = u64 [s1 + 0x60]\n 26534: u64 [a3 + 0x10] = a1\n 26537: a1 = u64 [s1 + 0x30]\n 26540: u64 [a2 + 0xd8] = a1\n 26544: a1 = u64 [s1 + 0x48]\n 26547: u64 [a2 + 0xf8] = a1\n 26551: a1 = u64 [s1 + 0x68]\n 26554: u64 [a3 + 0x18] = a1\n 26557: a1 = u64 [s1 + 0x38]\n 26560: u64 [a2 + 0xe0] = a1\n 26564: a0 = u64 [s1 + 0x58]\n 26567: u64 [a3] = a0\n 26569: a0 = s1 + 0x1080\n 26573: a1 = s1 + 0x1060\n 26577: a2 = s1 + 0x1040\n 26581: a4 = u64 [s1 + 0x70]\n 26584: u64 [a3 + 0x20] = a4\n 26587: ra = 992, jump @1375\n      : @1006 [@dyn 496] (gas: 4)\n 26593: a1 = 0x20160\n 26598: i32 a1 = a1 + 0\n 26600: a0 = 0\n 26602: jump @1205\n      : @1007 (gas: 1)\n 26605: jump @1115 if a0 != 235423050\n      : @1008 (gas: 11)\n 26613: a0 = s1 + 0x2078\n 26617: u64 [a0 + 1312] = 0\n 26621: u64 [a0 + 1304] = 0\n 26625: u64 [a0 + 1296] = 0\n 26629: u64 [a0 + 1288] = 0\n 26633: a0 = s1 + 0x2000\n 26637: i32 a0 = a0 + 0x580\n 26641: ra = 0x3e2\n 26645: ecalli 17 // 'value_transferred'\n 26647: t0 = 0x3e4\n 26651: jump @1594\n      : @1009 [@dyn 497] (gas: 1)\n 26654: t0 = 996, jump @1594\n      : @1010 [@dyn 498] (gas: 1)\n 26660: t0 = 998, jump @1577\n      : @1011 [@dyn 499] (gas: 1)\n 26666: jump @1121 if a0 == 0\n      : @1012 (gas: 3)\n 26670: a1 = 0x20160\n 26675: i32 a1 = a1 + 0\n 26677: jump @1204\n      : @1013 (gas: 4)\n 26680: a0 = s1 + 0x2520\n 26684: ra = 0x3e8\n 26688: t0 = 0x4fe\n 26692: jump @1590\n      : @1014 [@dyn 500] (gas: 16)\n 26695: a1 = s1 + 0x2078\n 26699: a2 = a1 + 0x400\n 26703: a0 = u64 [a2 + 0xb8]\n 26707: u64 [s1 + 0xe0] = a0\n 26711: a0 = u64 [a2 + 0xb0]\n 26715: u64 [s1 + 0xf8] = a0\n 26719: a0 = u64 [a2 + 0xa8]\n 26723: u64 [s1 + 0xf0] = a0\n 26727: a1 = s1 + 0x2878\n 26731: u64 [a1 + 1920] = 0\n 26735: u64 [a1 + 1912] = 0\n 26739: u64 [a1 + 1904] = 0\n 26743: u64 [a1 + 1896] = 0x1\n 26748: a0 = s1 + 0x2500\n 26752: a1 = s1 + 0x2fe0\n 26756: ra = 1002, jump @11\n      : @1015 [@dyn 501] (gas: 18)\n 26762: a1 = s1 + 0x2078\n 26766: a2 = a1 + 0x400\n 26770: a0 = u64 [a2 + 0xa0]\n 26774: u64 [s1 + 0xe8] = a0\n 26778: a0 = u64 [a2 + 0x98]\n 26782: u64 [s1 + 0xc8] = a0\n 26786: a0 = u64 [a2 + 0x90]\n 26790: u64 [s1 + 0xd8] = a0\n 26794: a0 = u64 [a2 + 0x88]\n 26798: u64 [s1 + 0xd0] = a0\n 26802: a0 = 0x30160\n 26807: u64 [s1 + 0xc0] = a0\n 26811: i32 a0 = a0 + 0\n 26813: ra = 0x3ec\n 26817: ecalli 4 // 'caller'\n 26819: a2 = u64 [s1 + 0xc0]\n 26823: t0 = 0x3ee\n 26827: jump @1564\n      : @1016 [@dyn 502] (gas: 2)\n 26830: a2 = u64 [s1 + 0xc0]\n 26834: t0 = 1006, jump @1564\n      : @1017 [@dyn 503] (gas: 12)\n 26840: a2 = u64 [s1 + 0xc8]\n 26844: a4 = a2\n 26846: a2 = a2 << 0x20\n 26849: a2 = a2 >> 0x20\n 26852: a1 = a1 ^ a2\n 26855: a2 = u64 [s1 + 0xd0]\n 26859: a0 = a0 ^ a2\n 26862: a0 = a0 | a1\n 26865: a1 = u64 [s1 + 0xd8]\n 26869: a1 = a1 ^ a3\n 26872: a0 = a0 | a1\n 26875: jump @1123 if a0 != 0\n      : @1018 (gas: 8)\n 26879: a0 = u64 [s1 + 0xe0]\n 26883: a0 = a0 << 0x20\n 26886: a0 = a0 >> 0x20\n 26889: a1 = u64 [s1 + 0xf8]\n 26893: a2 = u64 [s1 + 0xf0]\n 26897: a1 = a1 | a2\n 26900: a1 = a1 | a0\n 26903: jump @1125 if a1 == 0\n      : @1019 (gas: 19)\n 26907: a1 = a4 >> 0x20\n 26910: a1 = a1 << 0x20\n 26913: a0 = a0 | a1\n 26916: a2 = s1 + 0x2878\n 26920: u64 [a2 + 1952] = 0\n 26924: u64 [a2 + 1944] = 0\n 26928: u64 [a2 + 1936] = 0\n 26932: a3 = a2 + 0x700\n 26936: u64 [a3 + 136] = 0x1\n 26941: a1 = u64 [s1 + 0xf0]\n 26945: u64 [a3 + 0xa8] = a1\n 26949: a1 = u64 [s1 + 0xf8]\n 26953: u64 [a3 + 0xb0] = a1\n 26957: a1 = u64 [s1 + 0xe8]\n 26961: u64 [a3 + 0xc0] = a1\n 26965: u64 [a3 + 0xb8] = a0\n 26969: a0 = s1 + 0x3000\n 26973: a1 = s1 + 0x3020\n 26977: ra = 1008, jump @12\n      : @1020 [@dyn 504] (gas: 3)\n 26983: a0 = 0\n 26985: a1 = 0\n 26987: ra = 1010, jump @20\n      : @1021 [@dyn 505] (gas: 3)\n 26993: i32 a1 = a0 + 0\n 26995: a0 = 0\n 26997: jump @1205\n      : @1022 (gas: 4)\n 27000: a0 = s1 + 0x17c0\n 27004: ra = 0x3f4\n 27008: t0 = 0x518\n 27012: jump @1590\n      : @1023 [@dyn 506] (gas: 12)\n 27015: a0 = s1 + 0x1078\n 27019: a0 = u64 [a0 + 0x748]\n 27023: u64 [s1 + 0xe0] = a0\n 27027: a0 = 0x30160\n 27032: u64 [s1 + 0xe8] = a0\n 27036: i32 a0 = a0 + 0\n 27038: u64 [s1 + 0xd8] = a0\n 27042: ra = 0x3f6\n 27046: ecalli 4 // 'caller'\n 27048: a2 = u64 [s1 + 0xe8]\n 27052: t0 = 0x3f8\n 27056: jump @1536\n      : @1024 [@dyn 507] (gas: 2)\n 27059: a2 = u64 [s1 + 0xe8]\n 27063: t0 = 1016, jump @1536\n      : @1025 [@dyn 508] (gas: 8)\n 27069: u64 [a2 + 1856] = 0\n 27073: a4 = a2 + 0x700\n 27077: u64 [a4 + 0x38] = a1\n 27080: u64 [a4 + 0x30] = a0\n 27083: a1 = s1 + 0x17a0\n 27087: u64 [a4 + 0x28] = a3\n 27090: a0 = 0\n 27092: ra = 1018, jump @9\n      : @1026 [@dyn 509] (gas: 3)\n 27098: t0 = 0x3fc\n 27102: a1 = s1 + 0x1078\n 27106: fallthrough\n      : @1027 [@dyn 510] (gas: 8)\n 27107: u64 [a1 + 1824] = 0\n 27111: u64 [a1 + 1816] = 0\n 27115: u64 [a1 + 1800] = 0x3\n 27120: a2 = a1\n 27122: a0 = 0x20\n 27125: a1 = s1 + 0x1780\n 27129: u64 [a2 + 1808] = 0\n 27133: ra = 1022, jump @9\n      : @1028 [@dyn 511] (gas: 4)\n 27139: a0 = 0x20150\n 27144: u64 [s1 + 0xf8] = a0\n 27148: a0 = i32 [0x20150]\n 27153: jump @1030 if a0 >u 63\n      : @1029 (gas: 3)\n 27157: a1 = u64 [s1 + 0xf8]\n 27161: u32 [a1 + 0] = 0x40\n 27164: fallthrough\n      : @1030 (gas: 14)\n 27165: a0 = sp + 0xffffffffffffffe0\n 27168: a2 = a0 & 0xffffffffffffffe0\n 27171: u64 [s1 + 0xd0] = a2\n 27175: sp = a2\n 27177: a0 = 0x20160\n 27182: i32 a0 = a0 + 0\n 27184: i32 a2 = a2 + 0\n 27186: a1 = 0x40\n 27189: u64 [s1 + 0xf0] = a0\n 27193: ra = 0x400\n 27197: ecalli 9 // 'hash_keccak_256'\n 27199: a3 = u64 [s1 + 0xd0]\n 27203: t0 = 0x402\n 27207: jump @1588\n      : @1031 [@dyn 512] (gas: 2)\n 27210: a3 = u64 [s1 + 0xd0]\n 27214: t0 = 1026, jump @1588\n      : @1032 [@dyn 513] (gas: 19)\n 27220: u64 [s1 + 0xc8] = a0\n 27224: a0 = reverse a1\n 27226: u64 [s1 + 0xc0] = a0\n 27230: a0 = reverse a2\n 27232: u64 [s1 + 0xb8] = a0\n 27236: a0 = reverse a3\n 27238: u64 [s1 + 0xb0] = a0\n 27242: a0 = u64 [s1 + 0xe0]\n 27246: a0 = a0 << 0x20\n 27249: a2 = a0 >> 0x20\n 27252: a0 = s1 + 0x1078\n 27256: u64 [a0 + 1792] = 0\n 27260: u64 [a0 + 1784] = 0\n 27264: u64 [a0 + 1776] = 0\n 27268: a1 = s1 + 0x1760\n 27272: u64 [s1 + 0xd0] = a2\n 27276: u64 [a0 + 0x6e8] = a2\n 27280: a0 = 0\n 27282: ra = 1028, jump @9\n      : @1033 [@dyn 514] (gas: 14)\n 27288: a0 = u64 [s1 + 0xb0]\n 27292: a1 = s1 + 0x1078\n 27296: a2 = a1 + 0x600\n 27300: u64 [a2 + 0xe0] = a0\n 27304: a0 = u64 [s1 + 0xb8]\n 27308: u64 [a2 + 0xd8] = a0\n 27312: a0 = u64 [s1 + 0xc0]\n 27316: u64 [a2 + 0xd0] = a0\n 27320: a3 = a1\n 27322: a0 = 0x20\n 27325: a1 = s1 + 0x1740\n 27329: a2 = u64 [s1 + 0xc8]\n 27333: u64 [a3 + 0x6c8] = a2\n 27337: ra = 1030, jump @9\n      : @1034 [@dyn 515] (gas: 3)\n 27343: a0 = u64 [s1 + 0xf8]\n 27347: a0 = i32 [a0]\n 27349: jump @1036 if a0 >u 63\n      : @1035 (gas: 3)\n 27353: a0 = u64 [s1 + 0xf8]\n 27357: u32 [a0 + 0] = 0x40\n 27360: fallthrough\n      : @1036 (gas: 4)\n 27361: a0 = sp + 0xffffffffffffffe0\n 27364: a0 = a0 & 0xffffffffffffffe0\n 27367: u64 [s1 + 0xe0] = a0\n 27371: t0 = 1032, jump @1561\n      : @1037 [@dyn 516] (gas: 28)\n 27377: ecalli 9 // 'hash_keccak_256'\n 27379: a3 = u64 [s1 + 0xe0]\n 27383: a0 = u64 [a3]\n 27385: a1 = u64 [a3 + 0x8]\n 27388: a2 = u64 [a3 + 0x10]\n 27391: a3 = u64 [a3 + 0x18]\n 27394: a0 = reverse a0\n 27396: a5 = reverse a1\n 27398: a2 = reverse a2\n 27400: a3 = reverse a3\n 27402: a4 = sp + 0xffffffffffffffe0\n 27405: a1 = a4 & 0xffffffffffffffe0\n 27408: sp = a1\n 27410: a3 = a3 + 0x1\n 27413: a4 = a3 <u 0x1\n 27416: a2 = a2 + a4\n 27419: a4 = a3 | a2\n 27422: a4 = a4 <u 0x1\n 27425: a4 = a4 + a5\n 27428: a5 = a4 <u a5\n 27431: a0 = a0 + a5\n 27434: u64 [a1 + 0x8] = a2\n 27437: u64 [a1] = a3\n 27439: u64 [a1 + 0x10] = a4\n 27442: u64 [a1 + 0x18] = a0\n 27445: a0 = s1 + 0x1720\n 27449: u64 [s1 + 0xe0] = a1\n 27453: ra = 1034, jump @11\n      : @1038 [@dyn 517] (gas: 3)\n 27459: a0 = s1 + 0x1078\n 27463: a0 = u64 [a0 + 0x6a8]\n 27467: jump @1127 if a0 == 0\n      : @1039 (gas: 4)\n 27471: a1 = s1 + 0x1078\n 27475: a1 = u64 [a1 + 0x6b0]\n 27479: a2 = a1 & 0xff\n 27483: jump @1129 if a2 == 0\n      : @1040 (gas: 3)\n 27487: t0 = 0x40c\n 27491: a2 = s1 + 0x1078\n 27495: fallthrough\n      : @1041 [@dyn 518] (gas: 9)\n 27496: u64 [a2 + 1688] = 0\n 27500: u64 [a2 + 1680] = 0\n 27504: a0 = 0xc1c184c800000000\n 27514: u64 [a2 + 0x6a0] = a0\n 27518: a1 = s1 + 0x1700\n 27522: u64 [a2 + 1672] = 0\n 27526: a0 = 0\n 27528: ra = 0x4a2\n 27532: jump @9\n      : @1042 (gas: 2)\n 27535: u64 [s1 + 184] = 0\n 27539: fallthrough\n      : @1043 (gas: 6)\n 27540: a0 = u64 [s1 + 0xd8]\n 27544: a0 = a0 << 0x1\n 27547: a1 = u64 [s1 + 0xb8]\n 27551: a0 = a0 | a1\n 27554: u64 [s1 + 0xe8] = a0\n 27558: fallthrough\n      : @1044 (gas: 3)\n 27559: a0 = u64 [s1 + 0xe8]\n 27563: a1 = u64 [s1 + 0x70]\n 27566: jump @1147 if a1 != a0\n      : @1045 (gas: 9)\n 27570: a0 = 0x30160\n 27575: u64 [s1 + 0xe0] = a0\n 27579: i32 a0 = a0 + 0\n 27581: u64 [s1 + 0xb8] = a0\n 27585: ra = 0x40e\n 27589: ecalli 4 // 'caller'\n 27591: a2 = u64 [s1 + 0xe0]\n 27595: t0 = 0x410\n 27599: jump @1536\n      : @1046 [@dyn 519] (gas: 2)\n 27602: a2 = u64 [s1 + 0xe0]\n 27606: t0 = 1040, jump @1536\n      : @1047 [@dyn 520] (gas: 8)\n 27612: u64 [a2 + 1024] = 0\n 27616: a4 = a2 + 0x300\n 27620: u64 [a4 + 0xf8] = a1\n 27624: u64 [a4 + 0xf0] = a0\n 27628: a1 = s1 + 0x1460\n 27632: u64 [a4 + 0xe8] = a3\n 27636: a0 = 0\n 27638: ra = 1042, jump @9\n      : @1048 [@dyn 521] (gas: 3)\n 27644: t0 = 0x414\n 27648: a1 = s1 + 0x1078\n 27652: fallthrough\n      : @1049 [@dyn 522] (gas: 8)\n 27653: u64 [a1 + 992] = 0\n 27657: u64 [a1 + 984] = 0\n 27661: u64 [a1 + 968] = 0x3\n 27666: a2 = a1\n 27668: a0 = 0x20\n 27671: a1 = s1 + 0x1440\n 27675: u64 [a2 + 976] = 0\n 27679: ra = 1046, jump @9\n      : @1050 [@dyn 523] (gas: 4)\n 27685: a0 = 0x20150\n 27690: u64 [s1 + 0xf8] = a0\n 27694: a0 = i32 [0x20150]\n 27699: jump @1052 if a0 >u 63\n      : @1051 (gas: 3)\n 27703: a1 = u64 [s1 + 0xf8]\n 27707: u32 [a1 + 0] = 0x40\n 27710: fallthrough\n      : @1052 (gas: 13)\n 27711: a0 = sp + 0xffffffffffffffe0\n 27714: a2 = a0 & 0xffffffffffffffe0\n 27717: u64 [s1 + 0xd8] = a2\n 27721: sp = a2\n 27723: a0 = 0x20160\n 27728: i32 a0 = a0 + 0\n 27730: i32 a2 = a2 + 0\n 27732: a1 = 0x40\n 27735: u64 [s1 + 0xf0] = a0\n 27739: ra = 0x418\n 27743: ecalli 9 // 'hash_keccak_256'\n 27745: t0 = 0x41a\n 27749: jump @1567\n      : @1053 [@dyn 524] (gas: 1)\n 27752: t0 = 1050, jump @1567\n      : @1054 [@dyn 525] (gas: 12)\n 27758: a0 = u64 [s1 + 0x78]\n 27761: a0 = a0 << 0x20\n 27764: a2 = a0 >> 0x20\n 27767: a0 = s1 + 0x1078\n 27771: u64 [a0 + 960] = 0\n 27775: u64 [a0 + 952] = 0\n 27779: u64 [a0 + 944] = 0\n 27783: a1 = s1 + 0x1420\n 27787: u64 [s1 + 0xb0] = a2\n 27791: u64 [a0 + 0x3a8] = a2\n 27795: a0 = 0\n 27797: ra = 1052, jump @9\n      : @1055 [@dyn 526] (gas: 14)\n 27803: a0 = u64 [s1 + 0xc0]\n 27807: a1 = s1 + 0x1078\n 27811: a2 = a1 + 0x300\n 27815: u64 [a2 + 0xa0] = a0\n 27819: a0 = u64 [s1 + 0xc8]\n 27823: u64 [a2 + 0x98] = a0\n 27827: a0 = u64 [s1 + 0xd0]\n 27831: u64 [a2 + 0x90] = a0\n 27835: a3 = a1\n 27837: a0 = 0x20\n 27840: a1 = s1 + 0x1400\n 27844: a2 = u64 [s1 + 0xd8]\n 27848: u64 [a3 + 0x388] = a2\n 27852: ra = 1054, jump @9\n      : @1056 [@dyn 527] (gas: 3)\n 27858: a0 = u64 [s1 + 0xf8]\n 27862: a0 = i32 [a0]\n 27864: jump @1058 if a0 >u 63\n      : @1057 (gas: 3)\n 27868: a0 = u64 [s1 + 0xf8]\n 27872: u32 [a0 + 0] = 0x40\n 27875: fallthrough\n      : @1058 (gas: 4)\n 27876: a0 = sp + 0xffffffffffffffe0\n 27879: a0 = a0 & 0xffffffffffffffe0\n 27882: u64 [s1 + 0xd8] = a0\n 27886: t0 = 1056, jump @1561\n      : @1059 [@dyn 528] (gas: 5)\n 27892: ra = 0x422\n 27896: ecalli 9 // 'hash_keccak_256'\n 27898: a3 = u64 [s1 + 0xd8]\n 27902: t0 = 0x424\n 27906: jump @1539\n      : @1060 [@dyn 529] (gas: 2)\n 27909: a3 = u64 [s1 + 0xd8]\n 27913: t0 = 1060, jump @1539\n      : @1061 [@dyn 530] (gas: 9)\n 27919: a1 = s1 + 0x2878\n 27923: a5 = a1 + 0x200\n 27927: u64 [a5 + 0xa8] = a3\n 27931: u64 [a5 + 0xb0] = a2\n 27935: u64 [a5 + 0xb8] = a4\n 27939: u64 [a5 + 0xc0] = a0\n 27943: a0 = s1 + 0x13e0\n 27947: a1 = s1 + 0x2b20\n 27951: ra = 1062, jump @11\n      : @1062 [@dyn 531] (gas: 4)\n 27957: a0 = s1 + 0x1078\n 27961: a0 = u64 [a0 + 0x368]\n 27965: a0 = a0 & 0xffffffffffffffff\n 27968: jump @1152 if a0 == 0\n      : @1063 (gas: 3)\n 27972: a0 = s1 + 0x1078\n 27976: a0 = u8 [a0 + 0x370]\n 27980: jump @1152 if a0 != 0\n      : @1064 (gas: 7)\n 27984: a1 = u64 [s1 + 0xb0]\n 27988: a0 = a1 <u 0x100\n 27992: u64 [s1 + 0xa8] = a0\n 27996: i32 a2 = a1 + 0xffffffffffffff80\n 27999: a0 = 0x1\n 28002: a1 = 0\n 28004: ra = 1064, jump @1606\n      : @1065 [@dyn 532] (gas: 7)\n 28010: u64 [s1 + 0xd8] = a0\n 28014: u64 [s1 + 0xd0] = a1\n 28018: a1 = u64 [s1 + 0xb0]\n 28022: i32 a2 = 0x80 - a1\n 28026: a0 = 0x1\n 28029: a1 = 0\n 28031: ra = 1066, jump @1601\n      : @1066 [@dyn 533] (gas: 15)\n 28037: a2 = u64 [s1 + 0xb0]\n 28041: a3 = a2 <u 0x80\n 28045: u64 [s1 + 0xc0] = a3\n 28049: a4 = u64 [s1 + 0xd8]\n 28053: a0 = a4 if a3 == 0\n 28056: a0 = 0 if a2 == 0\n 28058: u64 [s1 + 0xd8] = a0\n 28062: a0 = u64 [s1 + 0xd0]\n 28066: a1 = a0 if a3 == 0\n 28069: a1 = 0 if a2 == 0\n 28071: u64 [s1 + 0xd0] = a1\n 28075: i32 a2 = a2 + 0\n 28077: a0 = 0x1\n 28080: a1 = 0\n 28082: ra = 1068, jump @1606\n      : @1067 [@dyn 534] (gas: 11)\n 28088: a2 = u64 [s1 + 0xc0]\n 28092: a0 = 0 if a2 == 0\n 28094: u64 [s1 + 0xc8] = a0\n 28098: a1 = 0 if a2 == 0\n 28100: u64 [s1 + 0xc0] = a1\n 28104: a0 = u64 [s1 + 0xb8]\n 28108: ra = 0x42e\n 28112: ecalli 4 // 'caller'\n 28114: a2 = u64 [s1 + 0xe0]\n 28118: t0 = 0x430\n 28122: jump @1536\n      : @1068 [@dyn 535] (gas: 2)\n 28125: a2 = u64 [s1 + 0xe0]\n 28129: t0 = 1072, jump @1536\n      : @1069 [@dyn 536] (gas: 8)\n 28135: u64 [a2 + 832] = 0\n 28139: a4 = a2 + 0x300\n 28143: u64 [a4 + 0x38] = a1\n 28146: u64 [a4 + 0x30] = a0\n 28149: a1 = s1 + 0x13a0\n 28153: u64 [a4 + 0x28] = a3\n 28156: a0 = 0\n 28158: ra = 1074, jump @9\n      : @1070 [@dyn 537] (gas: 3)\n 28164: t0 = 0x434\n 28168: a1 = s1 + 0x1078\n 28172: fallthrough\n      : @1071 [@dyn 538] (gas: 8)\n 28173: u64 [a1 + 800] = 0\n 28177: u64 [a1 + 792] = 0\n 28181: u64 [a1 + 776] = 0x5\n 28186: a2 = a1\n 28188: a0 = 0x20\n 28191: a1 = s1 + 0x1380\n 28195: u64 [a2 + 784] = 0\n 28199: ra = 1078, jump @9\n      : @1072 [@dyn 539] (gas: 3)\n 28205: a0 = u64 [s1 + 0xf8]\n 28209: a0 = i32 [a0]\n 28211: jump @1074 if a0 >u 63\n      : @1073 (gas: 3)\n 28215: a1 = u64 [s1 + 0xf8]\n 28219: u32 [a1 + 0] = 0x40\n 28222: fallthrough\n      : @1074 (gas: 17)\n 28223: a0 = u64 [s1 + 0xc0]\n 28227: a1 = u64 [s1 + 0xa8]\n 28231: a0 = 0 if a1 == 0\n 28233: u64 [s1 + 0xc0] = a0\n 28237: a0 = u64 [s1 + 0xc8]\n 28241: a0 = 0 if a1 == 0\n 28243: u64 [s1 + 0xc8] = a0\n 28247: a0 = u64 [s1 + 0xd0]\n 28251: a0 = 0 if a1 == 0\n 28253: u64 [s1 + 0xd0] = a0\n 28257: a0 = u64 [s1 + 0xd8]\n 28261: a0 = 0 if a1 == 0\n 28263: u64 [s1 + 0xd8] = a0\n 28267: a0 = sp + 0xffffffffffffffe0\n 28270: a0 = a0 & 0xffffffffffffffe0\n 28273: u64 [s1 + 0xa8] = a0\n 28277: t0 = 1080, jump @1561\n      : @1075 [@dyn 540] (gas: 4)\n 28283: ra = 0x43a\n 28287: ecalli 9 // 'hash_keccak_256'\n 28289: t0 = 0x43c\n 28293: jump @1538\n      : @1076 [@dyn 541] (gas: 1)\n 28296: t0 = 1084, jump @1538\n      : @1077 [@dyn 542] (gas: 8)\n 28302: u64 [a2 + 768] = 0\n 28306: u64 [a2 + 760] = 0\n 28310: u64 [a2 + 752] = 0\n 28314: a1 = s1 + 0x1360\n 28318: a0 = u64 [s1 + 0xe8]\n 28322: u64 [a2 + 0x2e8] = a0\n 28326: a0 = 0\n 28328: ra = 1086, jump @9\n      : @1078 [@dyn 543] (gas: 14)\n 28334: a0 = u64 [s1 + 0x88]\n 28338: a1 = s1 + 0x1078\n 28342: a2 = a1 + 0x200\n 28346: u64 [a2 + 0xe0] = a0\n 28350: a0 = u64 [s1 + 0x90]\n 28354: u64 [a2 + 0xd8] = a0\n 28358: a0 = u64 [s1 + 0x98]\n 28362: u64 [a2 + 0xd0] = a0\n 28366: a3 = a1\n 28368: a0 = 0x20\n 28371: a1 = s1 + 0x1340\n 28375: a2 = u64 [s1 + 0xa0]\n 28379: u64 [a3 + 0x2c8] = a2\n 28383: ra = 1088, jump @9\n      : @1079 [@dyn 544] (gas: 3)\n 28389: a0 = u64 [s1 + 0xf8]\n 28393: a0 = i32 [a0]\n 28395: jump @1081 if a0 >u 63\n      : @1080 (gas: 3)\n 28399: a0 = u64 [s1 + 0xf8]\n 28403: u32 [a0 + 0] = 0x40\n 28406: fallthrough\n      : @1081 (gas: 4)\n 28407: a0 = sp + 0xffffffffffffffe0\n 28410: a0 = a0 & 0xffffffffffffffe0\n 28413: u64 [s1 + 0xa0] = a0\n 28417: t0 = 1090, jump @1561\n      : @1082 [@dyn 545] (gas: 5)\n 28423: ra = 0x444\n 28427: ecalli 9 // 'hash_keccak_256'\n 28429: a3 = u64 [s1 + 0xa0]\n 28433: t0 = 0x446\n 28437: jump @1549\n      : @1083 [@dyn 546] (gas: 2)\n 28440: a3 = u64 [s1 + 0xa0]\n 28444: t0 = 1094, jump @1549\n      : @1084 [@dyn 547] (gas: 3)\n 28450: i32 a0 = a0 + 0x320\n 28454: a0 = a0 + s1\n 28457: ra = 1096, jump @11\n      : @1085 [@dyn 548] (gas: 2)\n 28463: a0 = 0x1000\n 28467: t0 = 1098, jump @1586\n      : @1086 [@dyn 549] (gas: 5)\n 28473: a0 = u64 [a4 + 0xb8]\n 28477: a1 = u64 [a4 + 0xa8]\n 28481: a2 = u64 [a4 + 0xc0]\n 28485: a3 = u64 [a4 + 0xb0]\n 28489: t0 = 1100, jump @1592\n      : @1087 [@dyn 550] (gas: 1)\n 28495: jump @1154 if a0 == 0\n      : @1088 (gas: 6)\n 28499: a0 = u64 [s1 + 0xb8]\n 28503: ra = 0x44e\n 28507: ecalli 4 // 'caller'\n 28509: a2 = u64 [s1 + 0xe0]\n 28513: t0 = 0x450\n 28517: jump @1536\n      : @1089 [@dyn 551] (gas: 2)\n 28520: a2 = u64 [s1 + 0xe0]\n 28524: t0 = 1104, jump @1536\n      : @1090 [@dyn 552] (gas: 8)\n 28530: u64 [a2 + 672] = 0\n 28534: a4 = a2 + 0x200\n 28538: u64 [a4 + 0x98] = a1\n 28542: u64 [a4 + 0x90] = a0\n 28546: a1 = s1 + 0x1300\n 28550: u64 [a4 + 0x88] = a3\n 28554: a0 = 0\n 28556: ra = 1106, jump @9\n      : @1091 [@dyn 553] (gas: 3)\n 28562: t0 = 0x454\n 28566: a1 = s1 + 0x1078\n 28570: fallthrough\n      : @1092 [@dyn 554] (gas: 8)\n 28571: u64 [a1 + 640] = 0\n 28575: u64 [a1 + 632] = 0\n 28579: u64 [a1 + 616] = 0x6\n 28584: a2 = a1\n 28586: a0 = 0x20\n 28589: a1 = s1 + 0x12e0\n 28593: u64 [a2 + 624] = 0\n 28597: ra = 1110, jump @9\n      : @1093 [@dyn 555] (gas: 3)\n 28603: a0 = u64 [s1 + 0xf8]\n 28607: a0 = i32 [a0]\n 28609: jump @1095 if a0 >u 63\n      : @1094 (gas: 3)\n 28613: a1 = u64 [s1 + 0xf8]\n 28617: u32 [a1 + 0] = 0x40\n 28620: fallthrough\n      : @1095 (gas: 4)\n 28621: a0 = sp + 0xffffffffffffffe0\n 28624: a0 = a0 & 0xffffffffffffffe0\n 28627: u64 [s1 + 0xa8] = a0\n 28631: t0 = 1112, jump @1561\n      : @1096 [@dyn 556] (gas: 4)\n 28637: ra = 0x45a\n 28641: ecalli 9 // 'hash_keccak_256'\n 28643: t0 = 0x45c\n 28647: jump @1538\n      : @1097 [@dyn 557] (gas: 1)\n 28650: t0 = 1116, jump @1538\n      : @1098 [@dyn 558] (gas: 8)\n 28656: u64 [a2 + 608] = 0\n 28660: u64 [a2 + 600] = 0\n 28664: u64 [a2 + 592] = 0\n 28668: a1 = s1 + 0x12c0\n 28672: a0 = u64 [s1 + 0xe8]\n 28676: u64 [a2 + 0x248] = a0\n 28680: a0 = 0\n 28682: ra = 1118, jump @9\n      : @1099 [@dyn 559] (gas: 14)\n 28688: a0 = u64 [s1 + 0x88]\n 28692: a1 = s1 + 0x1078\n 28696: a2 = a1 + 0x200\n 28700: u64 [a2 + 0x40] = a0\n 28703: a0 = u64 [s1 + 0x90]\n 28707: u64 [a2 + 0x38] = a0\n 28710: a0 = u64 [s1 + 0x98]\n 28714: u64 [a2 + 0x30] = a0\n 28717: a3 = a1\n 28719: a0 = 0x20\n 28722: a1 = s1 + 0x12a0\n 28726: a2 = u64 [s1 + 0xa0]\n 28730: u64 [a3 + 0x228] = a2\n 28734: ra = 1120, jump @9\n      : @1100 [@dyn 560] (gas: 3)\n 28740: a0 = u64 [s1 + 0xf8]\n 28744: a0 = i32 [a0]\n 28746: jump @1102 if a0 >u 63\n      : @1101 (gas: 3)\n 28750: a0 = u64 [s1 + 0xf8]\n 28754: u32 [a0 + 0] = 0x40\n 28757: fallthrough\n      : @1102 (gas: 4)\n 28758: a0 = sp + 0xffffffffffffffe0\n 28761: a0 = a0 & 0xffffffffffffffe0\n 28764: u64 [s1 + 0xa0] = a0\n 28768: t0 = 1122, jump @1561\n      : @1103 [@dyn 561] (gas: 5)\n 28774: ra = 0x464\n 28778: ecalli 9 // 'hash_keccak_256'\n 28780: a3 = u64 [s1 + 0xa0]\n 28784: t0 = 0x466\n 28788: jump @1549\n      : @1104 [@dyn 562] (gas: 2)\n 28791: a3 = u64 [s1 + 0xa0]\n 28795: t0 = 1126, jump @1549\n      : @1105 [@dyn 563] (gas: 3)\n 28801: i32 a0 = a0 + 0x280\n 28805: a0 = a0 + s1\n 28808: ra = 1128, jump @11\n      : @1106 [@dyn 564] (gas: 2)\n 28814: a0 = 0x1000\n 28818: t0 = 1130, jump @1586\n      : @1107 [@dyn 565] (gas: 5)\n 28824: a0 = u64 [a4 + 0x18]\n 28827: a1 = u64 [a4 + 0x8]\n 28830: a2 = u64 [a4 + 0x20]\n 28833: a3 = u64 [a4 + 0x10]\n 28836: t0 = 1132, jump @1592\n      : @1108 [@dyn 566] (gas: 1)\n 28842: jump @1158 if a0 == 0\n      : @1109 (gas: 3)\n 28846: t0 = 0x46e\n 28850: a2 = s1 + 0x1078\n 28854: fallthrough\n      : @1110 [@dyn 567] (gas: 9)\n 28855: u64 [a2 + 504] = 0\n 28859: u64 [a2 + 496] = 0\n 28863: a0 = 0xc98289f000000000\n 28873: u64 [a2 + 0x200] = a0\n 28877: a1 = s1 + 0x1260\n 28881: u64 [a2 + 488] = 0\n 28885: a0 = 0\n 28887: ra = 0x4a2\n 28891: jump @9\n      : @1111 (gas: 9)\n 28894: a2 = s1 + 0x1078\n 28898: u64 [a2 + 56] = 0\n 28901: u64 [a2 + 48] = 0\n 28904: a0 = 0xcf114bd900000000\n 28914: u64 [a2 + 0x40] = a0\n 28917: a1 = s1 + 0x10a0\n 28921: u64 [a2 + 40] = 0\n 28924: a0 = 0\n 28926: ra = 1136, jump @9\n      : @1112 [@dyn 568] (gas: 2)\n 28932: a1 = i32 [0x20150]\n 28937: jump @1114 if a1 >u 31\n      : @1113 (gas: 4)\n 28941: u32 [0x20150] = 0x20\n 28947: a1 = 0x20160\n 28952: i32 a1 = a1 + 0\n 28954: jump @904\n      : @1114 (gas: 3)\n 28957: a1 = 0x20160\n 28962: i32 a1 = a1 + 0\n 28964: jump @904\n      : @1115 (gas: 1)\n 28967: jump @1181 if a0 != 1081252952\n      : @1116 (gas: 11)\n 28975: a0 = s1 + 0x2078\n 28979: u64 [a0 + 1664] = 0\n 28983: u64 [a0 + 1656] = 0\n 28987: u64 [a0 + 1648] = 0\n 28991: u64 [a0 + 1640] = 0\n 28995: a0 = s1 + 0x2000\n 28999: i32 a0 = a0 + 0x6e0\n 29003: ra = 0x472\n 29007: ecalli 17 // 'value_transferred'\n 29009: t0 = 0x474\n 29013: jump @1578\n      : @1117 [@dyn 569] (gas: 1)\n 29016: t0 = 1140, jump @1578\n      : @1118 [@dyn 570] (gas: 1)\n 29022: t0 = 1142, jump @1584\n      : @1119 [@dyn 571] (gas: 1)\n 29028: jump @1187 if a0 == 0\n      : @1120 (gas: 3)\n 29032: a1 = 0x20160\n 29037: i32 a1 = a1 + 0\n 29039: jump @1204\n      : @1121 (gas: 3)\n 29042: a0 = u64 [s1 + 0xf8]\n 29046: a0 = i32 [a0]\n 29048: jump @1189 if a0 >u 35\n      : @1122 (gas: 3)\n 29053: a1 = 0x20160\n 29058: i32 a1 = a1 + 0\n 29060: jump @1204\n      : @1123 (gas: 3)\n 29063: t0 = 0x478\n 29067: a2 = s1 + 0x2078\n 29071: fallthrough\n      : @1124 [@dyn 572] (gas: 9)\n 29072: u64 [a2 + 1144] = 0\n 29076: u64 [a2 + 1136] = 0\n 29080: a0 = 0x5fc483c500000000\n 29090: u64 [a2 + 0x480] = a0\n 29094: a1 = s1 + 0x24e0\n 29098: u64 [a2 + 1128] = 0\n 29102: a0 = 0\n 29104: ra = 0x36c\n 29108: jump @9\n      : @1125 (gas: 3)\n 29111: t0 = 0x47a\n 29115: a2 = s1 + 0x2078\n 29119: fallthrough\n      : @1126 [@dyn 573] (gas: 9)\n 29120: u64 [a2 + 1112] = 0\n 29124: u64 [a2 + 1104] = 0\n 29128: a0 = 0x14bcf5c800000000\n 29138: u64 [a2 + 0x460] = a0\n 29142: a1 = s1 + 0x24c0\n 29146: u64 [a2 + 1096] = 0\n 29150: a0 = 0\n 29152: ra = 0x36c\n 29156: jump @9\n      : @1127 (gas: 3)\n 29159: t0 = 0x47c\n 29163: a2 = s1 + 0x1078\n 29167: fallthrough\n      : @1128 [@dyn 574] (gas: 9)\n 29168: u64 [a2 + 1432] = 0\n 29172: u64 [a2 + 1424] = 0\n 29176: a0 = 0xa7a9536d00000000\n 29186: u64 [a2 + 0x5a0] = a0\n 29190: a1 = s1 + 0x1600\n 29194: u64 [a2 + 1416] = 0\n 29198: a0 = 0\n 29200: ra = 0x4a2\n 29204: jump @9\n      : @1129 (gas: 15)\n 29207: a2 = 0xffffffff\n 29217: u64 [s1 + 0xc8] = a2\n 29221: a3 = s1 + 0x1078\n 29225: a2 = u64 [a3 + 0x6b8]\n 29229: a3 = u64 [a3 + 0x6c0]\n 29233: a1 = a1 | 0x1\n 29236: a4 = s1 + 0x2878\n 29240: a5 = a4 + 0x300\n 29244: u64 [a5 + 0x28] = a0\n 29247: u64 [a5 + 0x38] = a2\n 29250: u64 [a5 + 0x30] = a1\n 29253: u64 [a5 + 0x40] = a3\n 29256: a1 = s1 + 0x2ba0\n 29260: a0 = u64 [s1 + 0xe0]\n 29264: ra = 1150, jump @12\n      : @1130 [@dyn 575] (gas: 6)\n 29270: a0 = u64 [s1 + 0xd8]\n 29274: ra = 0x480\n 29278: ecalli 4 // 'caller'\n 29280: a2 = u64 [s1 + 0xe8]\n 29284: t0 = 0x482\n 29288: jump @1536\n      : @1131 [@dyn 576] (gas: 2)\n 29291: a2 = u64 [s1 + 0xe8]\n 29295: t0 = 1154, jump @1536\n      : @1132 [@dyn 577] (gas: 8)\n 29301: u64 [a2 + 1664] = 0\n 29305: a4 = a2 + 0x600\n 29309: u64 [a4 + 0x78] = a1\n 29312: u64 [a4 + 0x70] = a0\n 29315: a1 = s1 + 0x16e0\n 29319: u64 [a4 + 0x68] = a3\n 29322: a0 = 0\n 29324: ra = 1156, jump @9\n      : @1133 [@dyn 578] (gas: 3)\n 29330: t0 = 0x486\n 29334: a1 = s1 + 0x1078\n 29338: fallthrough\n      : @1134 [@dyn 579] (gas: 8)\n 29339: u64 [a1 + 1632] = 0\n 29343: u64 [a1 + 1624] = 0\n 29347: u64 [a1 + 1608] = 0x2\n 29352: a2 = a1\n 29354: a0 = 0x20\n 29357: a1 = s1 + 0x16c0\n 29361: u64 [a2 + 1616] = 0\n 29365: ra = 1160, jump @9\n      : @1135 [@dyn 580] (gas: 7)\n 29371: a0 = sp + 0xffffffffffffffe0\n 29374: a0 = a0 & 0xffffffffffffffe0\n 29377: u64 [s1 + 0xe0] = a0\n 29381: sp = a0\n 29383: a0 = u64 [s1 + 0xf8]\n 29387: a0 = i32 [a0]\n 29389: jump @1137 if a0 >u 63\n      : @1136 (gas: 3)\n 29393: a1 = u64 [s1 + 0xf8]\n 29397: u32 [a1 + 0] = 0x40\n 29400: fallthrough\n      : @1137 (gas: 4)\n 29401: a0 = sp + 0xffffffffffffffe0\n 29404: a0 = a0 & 0xffffffffffffffe0\n 29407: u64 [s1 + 0xf8] = a0\n 29411: t0 = 1162, jump @1561\n      : @1138 [@dyn 581] (gas: 5)\n 29417: ra = 0x48c\n 29421: ecalli 9 // 'hash_keccak_256'\n 29423: a3 = u64 [s1 + 0xf8]\n 29427: t0 = 0x48e\n 29431: jump @1555\n      : @1139 [@dyn 582] (gas: 2)\n 29434: a3 = u64 [s1 + 0xf8]\n 29438: t0 = 1166, jump @1555\n      : @1140 [@dyn 583] (gas: 7)\n 29444: a1 = u64 [s1 + 0xe0]\n 29448: u64 [a1] = a4\n 29450: u64 [a1 + 0x8] = a5\n 29453: u64 [a1 + 0x10] = a2\n 29456: u64 [a1 + 0x18] = a0\n 29459: a0 = s1 + 0x16a0\n 29463: ra = 1168, jump @11\n      : @1141 [@dyn 584] (gas: 9)\n 29469: a0 = s1 + 0x1078\n 29473: a0 = u64 [a0 + 0x628]\n 29477: a1 = u64 [s1 + 0xc8]\n 29481: a0 = a0 + a1\n 29484: a0 = a0 & a1\n 29487: u64 [s1 + 0xf8] = a0\n 29491: a0 = s1 + 0x1680\n 29495: a1 = u64 [s1 + 0xe0]\n 29499: ra = 1170, jump @11\n      : @1142 [@dyn 585] (gas: 18)\n 29505: a3 = s1 + 0x1078\n 29509: a0 = u32 [a3 + 0x60c]\n 29513: a0 = a0 << 0x20\n 29516: a4 = a3 + 0x600\n 29520: a1 = u64 [a4 + 0x20]\n 29523: a2 = u64 [a4 + 0x18]\n 29526: a3 = u64 [a4 + 0x10]\n 29529: a4 = u64 [s1 + 0xf8]\n 29533: a0 = a0 | a4\n 29536: a4 = s1 + 0x2878\n 29540: a5 = a4 + 0x300\n 29544: u64 [a5 + 0x60] = a1\n 29547: u64 [a5 + 0x58] = a2\n 29550: u64 [a5 + 0x50] = a3\n 29553: u64 [a5 + 0x48] = a0\n 29556: a1 = s1 + 0x2bc0\n 29560: a0 = u64 [s1 + 0xe0]\n 29564: ra = 1172, jump @12\n      : @1143 [@dyn 586] (gas: 6)\n 29570: a0 = u64 [s1 + 0xd8]\n 29574: ra = 0x496\n 29578: ecalli 4 // 'caller'\n 29580: a2 = u64 [s1 + 0xe8]\n 29584: t0 = 0x498\n 29588: jump @1552\n      : @1144 [@dyn 587] (gas: 2)\n 29591: a2 = u64 [s1 + 0xe8]\n 29595: t0 = 1176, jump @1552\n      : @1145 [@dyn 588] (gas: 31)\n 29601: t0 = a1 | a0\n 29604: a3 = a3 >> 0x20\n 29607: a2 = reverse a2\n 29609: a1 = a2 << 0x20\n 29612: a1 = a1 | a3\n 29615: a2 = a2 >> 0x20\n 29618: a3 = u64 [s1 + 0xd0]\n 29622: a0 = s1 + 0x1078\n 29626: u64 [a0 + 0x5a8] = a3\n 29630: a3 = u64 [0x20060]\n 29635: a4 = u64 [0x20068]\n 29640: a5 = u64 [0x20070]\n 29645: u64 [a0 + 0x600] = a3\n 29649: u64 [a0 + 0x5f8] = a4\n 29653: u64 [a0 + 1472] = 0\n 29657: a4 = a0 + 0x500\n 29661: u64 [a4 + 0xf0] = a5\n 29665: a3 = u64 [0x20078]\n 29670: u64 [a0 + 1464] = 0\n 29674: u64 [a0 + 1456] = 0\n 29678: u64 [a0 + 1504] = 0\n 29682: u64 [a4 + 0xe8] = a3\n 29686: u64 [a4 + 0xd8] = a2\n 29690: u64 [a4 + 0xd0] = a1\n 29694: a2 = s1 + 0x1660\n 29698: a3 = s1 + 0x1640\n 29702: a4 = s1 + 0x1620\n 29706: u64 [a0 + 0x5c8] = t0\n 29710: a0 = 0\n 29712: a1 = 0\n 29714: ra = 1178, jump @14\n      : @1146 [@dyn 589] (gas: 1)\n 29720: jump @1180\n      : @1147 (gas: 3)\n 29723: t0 = 0x49c\n 29727: a2 = s1 + 0x1078\n 29731: fallthrough\n      : @1148 [@dyn 590] (gas: 8)\n 29732: u64 [a2 + 1048] = 0\n 29736: u64 [a2 + 1040] = 0\n 29740: a0 = 0xd5b25b6300000000\n 29750: u64 [a2 + 0x420] = a0\n 29754: a1 = s1 + 0x1480\n 29758: u64 [a2 + 1032] = 0\n 29762: a0 = 0\n 29764: ra = 1182, jump @9\n      : @1149 [@dyn 591] (gas: 2)\n 29770: a1 = i32 [0x20150]\n 29775: jump @1151 if a1 >u 31\n      : @1150 (gas: 4)\n 29779: u32 [0x20150] = 0x20\n 29785: a1 = 0x20160\n 29790: i32 a1 = a1 + 0\n 29792: jump @904\n      : @1151 (gas: 3)\n 29795: a1 = 0x20160\n 29800: i32 a1 = a1 + 0\n 29802: jump @904\n      : @1152 (gas: 3)\n 29805: t0 = 0x4a0\n 29809: a2 = s1 + 0x1078\n 29813: fallthrough\n      : @1153 [@dyn 592] (gas: 9)\n 29814: u64 [a2 + 856] = 0\n 29818: u64 [a2 + 848] = 0\n 29822: a0 = 0xa7a9536d00000000\n 29832: u64 [a2 + 0x360] = a0\n 29836: a1 = s1 + 0x13c0\n 29840: u64 [a2 + 840] = 0\n 29844: a0 = 0\n 29846: ra = 0x4a2\n 29850: jump @9\n      : @1154 (gas: 9)\n 29853: a2 = s1 + 0x1078\n 29857: u64 [a2 + 184] = 0\n 29861: u64 [a2 + 176] = 0\n 29865: a0 = 0xafa4e2b600000000\n 29875: u64 [a2 + 0xc0] = a0\n 29879: a1 = s1 + 0x1120\n 29883: u64 [a2 + 168] = 0\n 29887: a0 = 0\n 29889: ra = 1186, jump @9\n      : @1155 [@dyn 593] (gas: 3)\n 29895: a0 = u64 [s1 + 0xf8]\n 29899: a0 = i32 [a0]\n 29901: jump @1157 if a0 >u 31\n      : @1156 (gas: 3)\n 29905: a1 = u64 [s1 + 0xf8]\n 29909: u32 [a1 + 0] = 0x20\n 29912: fallthrough\n      : @1157 (gas: 5)\n 29913: a0 = 0x1\n 29916: a2 = 0x4\n 29919: a1 = u64 [s1 + 0xf0]\n 29923: ecalli 14 // 'seal_return'\n 29925: fallthrough\n      : @1158 (gas: 6)\n 29926: a0 = u64 [s1 + 0xb8]\n 29930: ra = 0x4a4\n 29934: ecalli 4 // 'caller'\n 29936: a2 = u64 [s1 + 0xe0]\n 29940: t0 = 0x4a6\n 29944: jump @1536\n      : @1159 [@dyn 594] (gas: 2)\n 29947: a2 = u64 [s1 + 0xe0]\n 29951: t0 = 1190, jump @1536\n      : @1160 [@dyn 595] (gas: 8)\n 29957: u64 [a2 + 480] = 0\n 29961: a4 = a2 + 0x100\n 29965: u64 [a4 + 0xd8] = a1\n 29969: u64 [a4 + 0xd0] = a0\n 29973: a1 = s1 + 0x1240\n 29977: u64 [a4 + 0xc8] = a3\n 29981: a0 = 0\n 29983: ra = 1192, jump @9\n      : @1161 [@dyn 596] (gas: 3)\n 29989: t0 = 0x4aa\n 29993: a1 = s1 + 0x1078\n 29997: fallthrough\n      : @1162 [@dyn 597] (gas: 8)\n 29998: u64 [a1 + 448] = 0\n 30002: u64 [a1 + 440] = 0\n 30006: u64 [a1 + 424] = 0x6\n 30011: a2 = a1\n 30013: a0 = 0x20\n 30016: a1 = s1 + 0x1220\n 30020: u64 [a2 + 432] = 0\n 30024: ra = 1196, jump @9\n      : @1163 [@dyn 598] (gas: 3)\n 30030: a0 = u64 [s1 + 0xf8]\n 30034: a0 = i32 [a0]\n 30036: jump @1165 if a0 >u 63\n      : @1164 (gas: 3)\n 30040: a1 = u64 [s1 + 0xf8]\n 30044: u32 [a1 + 0] = 0x40\n 30047: fallthrough\n      : @1165 (gas: 4)\n 30048: a0 = sp + 0xffffffffffffffe0\n 30051: a0 = a0 & 0xffffffffffffffe0\n 30054: u64 [s1 + 0xa8] = a0\n 30058: t0 = 1198, jump @1561\n      : @1166 [@dyn 599] (gas: 4)\n 30064: ra = 0x4b0\n 30068: ecalli 9 // 'hash_keccak_256'\n 30070: t0 = 0x4b2\n 30074: jump @1538\n      : @1167 [@dyn 600] (gas: 1)\n 30077: t0 = 1202, jump @1538\n      : @1168 [@dyn 601] (gas: 8)\n 30083: u64 [a2 + 416] = 0\n 30087: u64 [a2 + 408] = 0\n 30091: u64 [a2 + 400] = 0\n 30095: a1 = s1 + 0x1200\n 30099: a0 = u64 [s1 + 0xe8]\n 30103: u64 [a2 + 0x188] = a0\n 30107: a0 = 0\n 30109: ra = 1204, jump @9\n      : @1169 [@dyn 602] (gas: 14)\n 30115: a0 = u64 [s1 + 0x88]\n 30119: a1 = s1 + 0x1078\n 30123: a2 = a1 + 0x100\n 30127: u64 [a2 + 0x80] = a0\n 30131: a0 = u64 [s1 + 0x90]\n 30135: u64 [a2 + 0x78] = a0\n 30138: a0 = u64 [s1 + 0x98]\n 30142: u64 [a2 + 0x70] = a0\n 30145: a3 = a1\n 30147: a0 = 0x20\n 30150: a1 = s1 + 0x11e0\n 30154: a2 = u64 [s1 + 0xa0]\n 30158: u64 [a3 + 0x168] = a2\n 30162: ra = 1206, jump @9\n      : @1170 [@dyn 603] (gas: 3)\n 30168: a0 = u64 [s1 + 0xf8]\n 30172: a0 = i32 [a0]\n 30174: jump @1172 if a0 >u 63\n      : @1171 (gas: 3)\n 30178: a0 = u64 [s1 + 0xf8]\n 30182: u32 [a0 + 0] = 0x40\n 30185: fallthrough\n      : @1172 (gas: 4)\n 30186: a0 = sp + 0xffffffffffffffe0\n 30189: a0 = a0 & 0xffffffffffffffe0\n 30192: u64 [s1 + 0xf8] = a0\n 30196: t0 = 1208, jump @1561\n      : @1173 [@dyn 604] (gas: 5)\n 30202: ra = 0x4ba\n 30206: ecalli 9 // 'hash_keccak_256'\n 30208: a3 = u64 [s1 + 0xf8]\n 30212: t0 = 0x4bc\n 30216: jump @1549\n      : @1174 [@dyn 605] (gas: 2)\n 30219: a3 = u64 [s1 + 0xf8]\n 30223: t0 = 1212, jump @1549\n      : @1175 [@dyn 606] (gas: 3)\n 30229: i32 a0 = a0 + 0x1c0\n 30233: a0 = a0 + s1\n 30236: ra = 1214, jump @11\n      : @1176 [@dyn 607] (gas: 23)\n 30242: a3 = s1 + 0x1078\n 30246: a4 = a3 + 0x100\n 30250: a0 = u64 [a4 + 0x48]\n 30253: a1 = u64 [a4 + 0x50]\n 30256: a2 = u64 [a4 + 0x58]\n 30259: a3 = u64 [a4 + 0x60]\n 30262: a4 = u64 [s1 + 0xc8]\n 30266: a0 = a0 | a4\n 30269: a4 = u64 [s1 + 0xc0]\n 30273: a1 = a1 | a4\n 30276: a4 = u64 [s1 + 0xd8]\n 30280: a2 = a2 | a4\n 30283: a4 = u64 [s1 + 0xd0]\n 30287: a3 = a3 | a4\n 30290: a4 = s1 + 0x2878\n 30294: a5 = a4 + 0x200\n 30298: u64 [a5 + 0xe0] = a3\n 30302: u64 [a5 + 0xd8] = a2\n 30306: u64 [a5 + 0xd0] = a1\n 30310: u64 [a5 + 0xc8] = a0\n 30314: a1 = s1 + 0x2b40\n 30318: a0 = u64 [s1 + 0xa8]\n 30322: ra = 1216, jump @12\n      : @1177 [@dyn 608] (gas: 6)\n 30328: a0 = u64 [s1 + 0xb8]\n 30332: ra = 0x4c2\n 30336: ecalli 4 // 'caller'\n 30338: a2 = u64 [s1 + 0xe0]\n 30342: t0 = 0x4c4\n 30346: jump @1545\n      : @1178 [@dyn 609] (gas: 2)\n 30349: a2 = u64 [s1 + 0xe0]\n 30353: t0 = 1220, jump @1545\n      : @1179 [@dyn 610] (gas: 32)\n 30359: a5 = s1 + 0x1078\n 30363: u64 [a5 + 224] = 0\n 30367: u64 [a5 + 216] = 0\n 30371: u64 [a5 + 208] = 0\n 30375: a3 = u64 [s1 + 0xe8]\n 30379: u64 [a5 + 0xc8] = a3\n 30383: a3 = u64 [s1 + 0xb0]\n 30387: u64 [a5 + 0xe8] = a3\n 30391: a3 = u64 [0x20080]\n 30396: a4 = u64 [0x20088]\n 30401: u64 [a5 + 256] = 0\n 30405: u64 [a5 + 248] = 0\n 30409: u64 [a5 + 0x140] = a3\n 30413: u64 [a5 + 0x138] = a4\n 30417: a3 = u64 [0x20090]\n 30422: a4 = u64 [0x20098]\n 30427: u64 [a5 + 240] = 0\n 30431: u64 [a5 + 288] = 0\n 30435: u64 [a5 + 0x130] = a3\n 30439: a3 = a5 + 0x100\n 30443: u64 [a3 + 0x28] = a4\n 30446: u64 [a3 + 0x18] = a2\n 30449: u64 [a3 + 0x10] = a1\n 30452: a1 = a5\n 30454: a2 = s1 + 0x11a0\n 30458: a3 = s1 + 0x1180\n 30462: a4 = s1 + 0x1160\n 30466: a5 = s1 + 0x1140\n 30470: u64 [a1 + 0x108] = a0\n 30474: a0 = 0\n 30476: a1 = 0\n 30478: ra = 1222, jump @17\n      : @1180 [@dyn 611] (gas: 8)\n 30484: a0 = 0\n 30486: a1 = u64 [s1 + 0xf0]\n 30490: a2 = 0\n 30492: ecalli 14 // 'seal_return'\n 30494: a1 = 0x20160\n 30499: i32 a1 = a1 + 0\n 30501: a0 = 0\n 30503: jump @1205\n      : @1181 (gas: 1)\n 30506: jump @1201 if a0 != 1746437986\n      : @1182 (gas: 11)\n 30514: a0 = s1 + 0x2878\n 30518: u64 [a0 + 384] = 0\n 30522: u64 [a0 + 376] = 0\n 30526: u64 [a0 + 368] = 0\n 30530: u64 [a0 + 360] = 0\n 30534: a0 = s1 + 0x3000\n 30538: i32 a0 = a0 + 0xfffffffffffff9e0\n 30542: ra = 0x4c8\n 30546: ecalli 17 // 'value_transferred'\n 30548: t0 = 0x4ca\n 30552: jump @1579\n      : @1183 [@dyn 612] (gas: 1)\n 30555: t0 = 1226, jump @1579\n      : @1184 [@dyn 613] (gas: 1)\n 30561: t0 = 1228, jump @1584\n      : @1185 [@dyn 614] (gas: 1)\n 30567: jump @1207 if a0 == 0\n      : @1186 (gas: 3)\n 30571: a1 = 0x20160\n 30576: i32 a1 = a1 + 0\n 30578: jump @1204\n      : @1187 (gas: 3)\n 30581: a0 = u64 [s1 + 0xf8]\n 30585: a0 = i32 [a0]\n 30587: jump @1209 if a0 >u 35\n      : @1188 (gas: 3)\n 30592: a1 = 0x20160\n 30597: i32 a1 = a1 + 0\n 30599: jump @1204\n      : @1189 (gas: 4)\n 30602: a0 = s1 + 0x180\n 30606: ra = 0x4ce\n 30610: t0 = 0x4fe\n 30614: jump @1590\n      : @1190 [@dyn 615] (gas: 10)\n 30617: a0 = u64 [s1 + 0x180]\n 30621: a1 = u64 [s1 + 0x188]\n 30625: a2 = u32 [s1 + 0x190]\n 30629: u64 [s1 + 376] = 0\n 30633: u64 [s1 + 0x170] = a2\n 30637: u64 [s1 + 0x168] = a1\n 30641: a1 = s1 + 0x160\n 30645: u64 [s1 + 0x160] = a0\n 30649: a0 = 0\n 30651: ra = 1232, jump @9\n      : @1191 [@dyn 616] (gas: 7)\n 30657: u64 [s1 + 344] = 0\n 30661: u64 [s1 + 336] = 0\n 30665: u64 [s1 + 320] = 0x4\n 30670: a0 = 0x20\n 30673: a1 = s1 + 0x140\n 30677: u64 [s1 + 328] = 0\n 30681: ra = 1234, jump @9\n      : @1192 [@dyn 617] (gas: 4)\n 30687: a0 = 0x20150\n 30692: u64 [s1 + 0xf8] = a0\n 30696: a0 = i32 [0x20150]\n 30701: jump @1194 if a0 >u 63\n      : @1193 (gas: 3)\n 30705: a1 = u64 [s1 + 0xf8]\n 30709: u32 [a1 + 0] = 0x40\n 30712: fallthrough\n      : @1194 (gas: 14)\n 30713: a0 = sp + 0xffffffffffffffe0\n 30716: a2 = a0 & 0xffffffffffffffe0\n 30719: u64 [s1 + 0xe8] = a2\n 30723: sp = a2\n 30725: a0 = 0x20160\n 30730: u64 [s1 + 0xf0] = a0\n 30734: i32 a0 = a0 + 0\n 30736: i32 a2 = a2 + 0\n 30738: a1 = 0x40\n 30741: ra = 0x4d4\n 30745: ecalli 9 // 'hash_keccak_256'\n 30747: a3 = u64 [s1 + 0xe8]\n 30751: t0 = 0x4d6\n 30755: jump @1573\n      : @1195 [@dyn 618] (gas: 2)\n 30758: a3 = u64 [s1 + 0xe8]\n 30762: t0 = 1238, jump @1573\n      : @1196 [@dyn 619] (gas: 8)\n 30768: a5 = a4 + 0x500\n 30772: u64 [a5 + 0x40] = a3\n 30775: u64 [a5 + 0x38] = a2\n 30778: u64 [a5 + 0x30] = a1\n 30781: u64 [a5 + 0x28] = a0\n 30784: a0 = s1 + 0x120\n 30788: a1 = s1 + 0x25a0\n 30792: ra = 1240, jump @11\n      : @1197 [@dyn 620] (gas: 8)\n 30798: a0 = u32 [s1 + 0x120]\n 30802: u64 [s1 + 280] = 0\n 30806: u64 [s1 + 272] = 0\n 30810: u64 [s1 + 0x100] = a0\n 30814: a0 = 0x80\n 30818: a1 = s1 + 0x100\n 30822: u64 [s1 + 264] = 0\n 30826: ra = 1242, jump @9\n      : @1198 [@dyn 621] (gas: 3)\n 30832: a0 = u64 [s1 + 0xf8]\n 30836: a0 = i32 [a0]\n 30838: jump @1200 if a0 >u 159\n      : @1199 (gas: 5)\n 30843: a1 = u64 [s1 + 0xf8]\n 30847: u32 [a1 + 0] = 0xa0\n 30851: a0 = u64 [s1 + 0xf0]\n 30855: i32 a1 = a0 + 0x80\n 30859: jump @456\n      : @1200 (gas: 3)\n 30862: a0 = u64 [s1 + 0xf0]\n 30866: i32 a1 = a0 + 0x80\n 30870: jump @456\n      : @1201 (gas: 3)\n 30873: a0 = u64 [s1 + 0xf8]\n 30877: a0 = i32 [a0]\n 30879: fallthrough\n      : @1202 (gas: 1)\n 30880: jump @1206 if a0 == 0\n      : @1203 (gas: 3)\n 30883: a1 = 0x20160\n 30888: i32 a1 = a1 + 0\n 30890: fallthrough\n      : @1204 (gas: 7)\n 30891: a0 = 0x1\n 30894: a2 = 0\n 30896: ecalli 14 // 'seal_return'\n 30898: a1 = 0x20160\n 30903: i32 a1 = a1 + 0\n 30905: a0 = 0\n 30907: fallthrough\n      : @1205 (gas: 6)\n 30908: a2 = 0\n 30910: ecalli 14 // 'seal_return'\n 30912: a1 = 0x20160\n 30917: i32 a1 = a1 + 0\n 30919: a0 = 0\n 30921: jump @1205\n      : @1206 (gas: 4)\n 30923: a1 = 0x20160\n 30928: i32 a1 = a1 + 0\n 30930: a0 = 0\n 30932: jump @1205\n      : @1207 (gas: 3)\n 30934: a0 = u64 [s1 + 0xf8]\n 30938: a0 = i32 [a0]\n 30940: jump @1219 if a0 >u 99\n      : @1208 (gas: 4)\n 30945: a1 = 0x20160\n 30950: i32 a1 = a1 + 0\n 30952: a0 = 0x1\n 30955: jump @1205\n      : @1209 (gas: 4)\n 30957: a0 = s1 + 0x6e0\n 30961: ra = 0x4dc\n 30965: t0 = 0x4fe\n 30969: jump @1590\n      : @1210 [@dyn 622] (gas: 14)\n 30972: a0 = u64 [s1 + 0x6f0]\n 30976: u64 [s1 + 0xe8] = a0\n 30980: a0 = u64 [s1 + 0x6e8]\n 30984: u64 [s1 + 0xf0] = a0\n 30988: a0 = u64 [s1 + 0x6e0]\n 30992: u64 [s1 + 0xf8] = a0\n 30996: a1 = s1 + 0x2078\n 31000: u64 [a1 + 1696] = 0\n 31004: u64 [a1 + 1688] = 0\n 31008: u64 [a1 + 1680] = 0\n 31012: u64 [a1 + 1672] = 0x1\n 31017: a0 = s1 + 0x6c0\n 31021: a1 = s1 + 0x2700\n 31025: ra = 1246, jump @11\n      : @1211 [@dyn 623] (gas: 14)\n 31031: a0 = u64 [s1 + 0x6c8]\n 31035: u64 [s1 + 0xe0] = a0\n 31039: a0 = u64 [s1 + 0x6c0]\n 31043: u64 [s1 + 0xd8] = a0\n 31047: a0 = u32 [s1 + 0x6d0]\n 31051: u64 [s1 + 0xd0] = a0\n 31055: a0 = 0x30160\n 31060: u64 [s1 + 0xc8] = a0\n 31064: i32 a0 = a0 + 0\n 31066: ra = 0x4e0\n 31070: ecalli 4 // 'caller'\n 31072: a2 = u64 [s1 + 0xc8]\n 31076: t0 = 0x4e2\n 31080: jump @1564\n      : @1212 [@dyn 624] (gas: 2)\n 31083: a2 = u64 [s1 + 0xc8]\n 31087: t0 = 1250, jump @1564\n      : @1213 [@dyn 625] (gas: 9)\n 31093: a2 = u64 [s1 + 0xd0]\n 31097: a1 = a1 ^ a2\n 31100: a2 = u64 [s1 + 0xd8]\n 31104: a0 = a0 ^ a2\n 31107: a0 = a0 | a1\n 31110: a1 = u64 [s1 + 0xe0]\n 31114: a1 = a1 ^ a3\n 31117: a0 = a0 | a1\n 31120: jump @1224 if a0 != 0\n      : @1214 (gas: 9)\n 31124: a0 = u64 [s1 + 0xe8]\n 31128: a0 = a0 << 0x20\n 31131: a2 = a0 >> 0x20\n 31134: a0 = u64 [s1 + 0xf8]\n 31138: a1 = u64 [s1 + 0xf0]\n 31142: a0 = a0 | a1\n 31145: u64 [s1 + 0xe8] = a2\n 31149: a0 = a0 | a2\n 31152: jump @1228 if a0 == 0\n      : @1215 (gas: 10)\n 31156: a0 = 0xffffffff\n 31166: u64 [s1 + 0xe0] = a0\n 31170: a0 = s1 + 0x2078\n 31174: u64 [a0 + 1728] = 0\n 31178: u64 [a0 + 1720] = 0\n 31182: u64 [a0 + 1712] = 0\n 31186: u64 [a0 + 1704] = 0\n 31190: a0 = s1 + 0x680\n 31194: a1 = s1 + 0x2720\n 31198: ra = 1252, jump @11\n      : @1216 [@dyn 626] (gas: 26)\n 31204: a1 = u64 [s1 + 0x690]\n 31208: u64 [s1 + 0xc8] = a1\n 31212: a0 = u64 [s1 + 0x688]\n 31216: u64 [s1 + 0xd8] = a0\n 31220: a0 = u64 [s1 + 0x680]\n 31224: u64 [s1 + 0xd0] = a0\n 31228: a0 = u64 [s1 + 0x698]\n 31232: a1 = a1 >> 0x20\n 31235: a1 = a1 << 0x20\n 31238: a2 = u64 [s1 + 0xe8]\n 31242: a1 = a1 | a2\n 31245: a2 = s1 + 0x2078\n 31249: u64 [a2 + 1760] = 0\n 31253: u64 [a2 + 1752] = 0\n 31257: u64 [a2 + 1744] = 0\n 31261: u64 [a2 + 1736] = 0\n 31265: a3 = u64 [s1 + 0xf0]\n 31269: a4 = a2 + 0x600\n 31273: u64 [a4 + 0xf0] = a3\n 31277: a3 = u64 [s1 + 0xf8]\n 31281: u64 [a4 + 0xe8] = a3\n 31285: u64 [a2 + 0x700] = a0\n 31289: u64 [a4 + 0xf8] = a1\n 31293: a0 = s1 + 0x2740\n 31297: a1 = s1 + 0x2760\n 31301: ra = 1254, jump @12\n      : @1217 [@dyn 627] (gas: 33)\n 31307: a0 = u64 [s1 + 0xd0]\n 31311: a0 = a0 & 0xffffffffffffffff\n 31314: a2 = u64 [s1 + 0xd8]\n 31318: a1 = a2 & 0xffffffffffffffff\n 31321: a2 = u64 [s1 + 0xe0]\n 31325: a3 = u64 [s1 + 0xc8]\n 31329: a2 = a2 & a3\n 31332: u64 [s1 + 1592] = 0\n 31336: a3 = u64 [s1 + 0xe8]\n 31340: a5 = s1 + 0x600\n 31344: u64 [a5 + 0x30] = a3\n 31347: a3 = u64 [s1 + 0xf0]\n 31351: u64 [a5 + 0x28] = a3\n 31354: a3 = u64 [s1 + 0xf8]\n 31358: u64 [a5 + 0x20] = a3\n 31361: u64 [s1 + 1624] = 0\n 31365: u64 [a5 + 0x50] = a2\n 31368: u64 [a5 + 0x48] = a1\n 31371: a1 = u64 [0x200d8]\n 31376: a2 = u64 [0x200e0]\n 31381: a3 = u64 [0x200e8]\n 31386: u64 [a5 + 0x40] = a0\n 31389: u64 [a5 + 0x78] = a1\n 31392: u64 [a5 + 0x70] = a2\n 31395: u64 [a5 + 0x68] = a3\n 31398: a0 = u64 [0x200f0]\n 31403: a2 = s1 + 0x660\n 31407: a3 = s1 + 0x640\n 31411: a4 = s1 + 0x620\n 31415: u64 [a5 + 0x60] = a0\n 31418: a0 = 0\n 31420: a1 = 0\n 31422: ra = 1256, jump @14\n      : @1218 [@dyn 628] (gas: 4)\n 31428: a1 = 0x20160\n 31433: i32 a1 = a1 + 0\n 31435: a0 = 0\n 31437: jump @1205\n      : @1219 (gas: 5)\n 31440: a0 = s1 + 0x7ff\n 31444: a0 = a0 + 0x661\n 31448: ra = 0x4ea\n 31452: t0 = 0x4fe\n 31456: jump @1590\n      : @1220 [@dyn 629] (gas: 16)\n 31459: a1 = s1 + 0x7ff\n 31463: a1 = a1 + 0x79\n 31466: a2 = a1 + 0x500\n 31470: a0 = u64 [a2 + 0xe8]\n 31474: u64 [s1 + 0xf8] = a0\n 31478: a0 = u64 [a2 + 0xf0]\n 31482: u64 [s1 + 0xf0] = a0\n 31486: a0 = u64 [a2 + 0xf8]\n 31490: u64 [s1 + 0xe8] = a0\n 31494: a0 = u64 [a1 + 0x600]\n 31498: u64 [s1 + 0xe0] = a0\n 31502: a0 = s1 + 0x7ff\n 31506: a0 = a0 + 0x641\n 31510: ra = 0x4ec\n 31514: t0 = 0x508\n 31518: jump @1595\n      : @1221 [@dyn 630] (gas: 16)\n 31521: a1 = s1 + 0x7ff\n 31525: a1 = a1 + 0x79\n 31528: a2 = a1 + 0x500\n 31532: a0 = u64 [a2 + 0xc8]\n 31536: u64 [s1 + 0xd8] = a0\n 31540: a0 = u64 [a2 + 0xd0]\n 31544: u64 [s1 + 0xd0] = a0\n 31548: a0 = u64 [a2 + 0xd8]\n 31552: u64 [s1 + 0xc8] = a0\n 31556: a0 = u64 [a2 + 0xe0]\n 31560: u64 [s1 + 0xc0] = a0\n 31564: a0 = s1 + 0x7ff\n 31568: a0 = a0 + 0x621\n 31572: ra = 0x4ee\n 31576: t0 = 0x50e\n 31580: jump @1595\n      : @1222 [@dyn 631] (gas: 34)\n 31583: a4 = s1 + 0x7ff\n 31587: a4 = a4 + 0x79\n 31590: a5 = a4 + 0x500\n 31594: a0 = u64 [a5 + 0xa8]\n 31598: a1 = u64 [a5 + 0xb0]\n 31602: a2 = u64 [a5 + 0xb8]\n 31606: a3 = u64 [a5 + 0xc0]\n 31610: u64 [a5 + 0x60] = a3\n 31613: u64 [a5 + 0x58] = a2\n 31616: u64 [a5 + 0x50] = a1\n 31619: u64 [a5 + 0x48] = a0\n 31622: a0 = u64 [s1 + 0xc0]\n 31626: u64 [a5 + 0x80] = a0\n 31630: a0 = u64 [s1 + 0xc8]\n 31634: u64 [a5 + 0x78] = a0\n 31637: a0 = u64 [s1 + 0xd0]\n 31641: u64 [a5 + 0x70] = a0\n 31644: a0 = u64 [s1 + 0xd8]\n 31648: u64 [a5 + 0x68] = a0\n 31651: a0 = u64 [s1 + 0xe0]\n 31655: u64 [a5 + 0xa0] = a0\n 31659: a0 = u64 [s1 + 0xe8]\n 31663: u64 [a5 + 0x98] = a0\n 31667: a0 = u64 [s1 + 0xf0]\n 31671: u64 [a5 + 0x90] = a0\n 31675: a0 = s1 + 0x7ff\n 31679: a0 = a0 + 0x601\n 31683: a1 = s1 + 0x7ff\n 31687: a1 = a1 + 0x5e1\n 31691: a2 = s1 + 0x7ff\n 31695: a2 = a2 + 0x5c1\n 31699: a3 = u64 [s1 + 0xf8]\n 31703: u64 [a5 + 0x88] = a3\n 31707: ra = 1264, jump @1375\n      : @1223 [@dyn 632] (gas: 4)\n 31713: a1 = 0x20160\n 31718: i32 a1 = a1 + 0\n 31720: a0 = 0\n 31722: jump @1205\n      : @1224 (gas: 8)\n 31725: u64 [s1 + 1712] = 0\n 31729: u64 [s1 + 1704] = 0\n 31733: u64 [s1 + 1696] = 0\n 31737: a0 = 0x5fc483c500000000\n 31747: a1 = s1 + 0x6a0\n 31751: u64 [s1 + 0x6b8] = a0\n 31755: a0 = 0\n 31757: ra = 1266, jump @9\n      : @1225 [@dyn 633] (gas: 2)\n 31763: a1 = i32 [0x20150]\n 31768: jump @1227 if a1 >u 31\n      : @1226 (gas: 4)\n 31772: u32 [0x20150] = 0x20\n 31778: a1 = 0x20160\n 31783: i32 a1 = a1 + 0\n 31785: jump @904\n      : @1227 (gas: 3)\n 31788: a1 = 0x20160\n 31793: i32 a1 = a1 + 0\n 31795: jump @904\n      : @1228 (gas: 8)\n 31798: u64 [s1 + 1552] = 0\n 31802: u64 [s1 + 1544] = 0\n 31806: u64 [s1 + 1536] = 0\n 31810: a0 = 0xdd75059200000000\n 31820: a1 = s1 + 0x600\n 31824: u64 [s1 + 0x618] = a0\n 31828: a0 = 0\n 31830: ra = 1268, jump @9\n      : @1229 [@dyn 634] (gas: 2)\n 31836: a1 = i32 [0x20150]\n 31841: jump @1231 if a1 >u 31\n      : @1230 (gas: 4)\n 31845: u32 [0x20150] = 0x20\n 31851: a1 = 0x20160\n 31856: i32 a1 = a1 + 0\n 31858: jump @904\n      : @1231 (gas: 3)\n 31861: a1 = 0x20160\n 31866: i32 a1 = a1 + 0\n 31868: jump @904\n      : @1232 (gas: 18)\n 31871: sp = sp + 0xffffffffffffffc0\n 31874: u64 [sp + 0x38] = ra\n 31877: u64 [sp + 0x30] = s0\n 31880: u64 [sp + 0x28] = s1\n 31883: s0 = sp + 0x40\n 31886: sp = sp & 0xfffffffffffffff0\n 31889: a2 = u64 [a1 + 0x10]\n 31892: a3 = u64 [a1 + 0x18]\n 31895: a4 = u64 [a1 + 0x8]\n 31898: a1 = u64 [a1]\n 31900: a3 = a3 | a4\n 31903: a4 = a1 | a2\n 31906: a4 = a4 | a3\n 31909: a4 = a4 >> 0x20\n 31912: a2 = a2 | a3\n 31915: a2 = a2 << 0x20\n 31918: a2 = a2 | a4\n 31921: jump @1238 if a2 != 0\n      : @1233 (gas: 3)\n 31924: s1 = a0\n 31926: a0 = sp\n 31928: ra = 1270, jump @7\n      : @1234 [@dyn 635] (gas: 1)\n 31934: t0 = 1272, jump @1575\n      : @1235 [@dyn 636] (gas: 1)\n 31940: jump @1239 if a3 == 0\n      : @1236 (gas: 1)\n 31943: t0 = 1274, jump @1589\n      : @1237 [@dyn 637] (gas: 1)\n 31949: ret\n      : @1238 (gas: 1)\n 31951: trap\n      : @1239 (gas: 8)\n 31952: a1 = 0x20160\n 31957: i32 a1 = a1 + 0\n 31959: a0 = 0x1\n 31962: a2 = 0\n 31964: ra = 0x4fc\n 31968: ecalli 14 // 'seal_return'\n 31970: t0 = 0x4fe\n 31974: jump @1590\n      : @1240 [@dyn 638] (gas: 1)\n 31977: t0 = 1278, jump @1590\n      : @1241 [@dyn 639] (gas: 4)\n 31983: ra = 0x500\n 31987: ecalli 2 // 'call_data_load'\n 31989: t0 = 0x502\n 31993: jump @1575\n      : @1242 [@dyn 640] (gas: 1)\n 31996: t0 = 1282, jump @1575\n      : @1243 [@dyn 641] (gas: 1)\n 32002: jump @1246 if a3 == 0\n      : @1244 (gas: 1)\n 32005: t0 = 1284, jump @1589\n      : @1245 [@dyn 642] (gas: 1)\n 32011: ret\n      : @1246 (gas: 8)\n 32013: a1 = 0x20160\n 32018: i32 a1 = a1 + 0\n 32020: a0 = 0x1\n 32023: a2 = 0\n 32025: ra = 0x506\n 32029: ecalli 14 // 'seal_return'\n 32031: t0 = 0x508\n 32035: jump @1595\n      : @1247 [@dyn 643] (gas: 1)\n 32038: t0 = 1288, jump @1595\n      : @1248 [@dyn 644] (gas: 3)\n 32044: a1 = 0x24\n 32047: ecalli 2 // 'call_data_load'\n 32049: fallthrough\n      : @1249 (gas: 7)\n 32050: a0 = u64 [sp + 0x18]\n 32053: a1 = u64 [sp + 0x10]\n 32056: a2 = u64 [sp + 0x8]\n 32059: a3 = a1 | a0\n 32062: a4 = a2 <u 0x1\n 32065: a4 = 0 if a3 != 0\n 32067: jump @1252 if a4 == 0\n      : @1250 (gas: 2)\n 32070: a3 = u64 [sp]\n 32072: t0 = 1290, jump @1568\n      : @1251 [@dyn 645] (gas: 1)\n 32078: ret\n      : @1252 (gas: 8)\n 32080: a1 = 0x20160\n 32085: i32 a1 = a1 + 0\n 32087: a0 = 0x1\n 32090: a2 = 0\n 32092: ra = 0x50c\n 32096: ecalli 14 // 'seal_return'\n 32098: t0 = 0x50e\n 32102: jump @1595\n      : @1253 [@dyn 646] (gas: 1)\n 32105: t0 = 1294, jump @1595\n      : @1254 [@dyn 647] (gas: 5)\n 32111: a1 = 0x44\n 32114: ra = 0x510\n 32118: ecalli 2 // 'call_data_load'\n 32120: t0 = 0x512\n 32124: jump @1585\n      : @1255 [@dyn 648] (gas: 1)\n 32127: t0 = 1298, jump @1585\n      : @1256 [@dyn 649] (gas: 1)\n 32133: jump @1259 if a4 != 0\n      : @1257 (gas: 1)\n 32136: t0 = 1300, jump @1568\n      : @1258 [@dyn 650] (gas: 1)\n 32142: ret\n      : @1259 (gas: 8)\n 32144: a1 = 0x20160\n 32149: i32 a1 = a1 + 0\n 32151: a0 = 0x1\n 32154: a2 = 0\n 32156: ra = 0x516\n 32160: ecalli 14 // 'seal_return'\n 32162: t0 = 0x518\n 32166: jump @1590\n      : @1260 [@dyn 651] (gas: 1)\n 32169: t0 = 1304, jump @1590\n      : @1261 [@dyn 652] (gas: 4)\n 32175: ra = 0x51a\n 32179: ecalli 2 // 'call_data_load'\n 32181: t0 = 0x51c\n 32185: jump @1585\n      : @1262 [@dyn 653] (gas: 1)\n 32188: t0 = 1308, jump @1585\n      : @1263 [@dyn 654] (gas: 1)\n 32194: jump @1266 if a4 != 0\n      : @1264 (gas: 1)\n 32197: t0 = 1310, jump @1568\n      : @1265 [@dyn 655] (gas: 1)\n 32203: ret\n      : @1266 (gas: 7)\n 32205: a1 = 0x20160\n 32210: i32 a1 = a1 + 0\n 32212: a0 = 0x1\n 32215: a2 = 0\n 32217: ra = 0x520\n 32221: ecalli 14 // 'seal_return'\n 32223: fallthrough\n      : @1267 [@dyn 656] (gas: 46)\n 32224: sp = sp + 0xffffffffffffff70\n 32228: u64 [sp + 0x88] = ra\n 32232: u64 [sp + 0x80] = s0\n 32236: u64 [sp + 0x78] = s1\n 32239: s0 = sp + 0x90\n 32243: sp = sp & 0xfffffffffffffff0\n 32246: t0 = a0\n 32248: a2 = u64 [a1]\n 32250: t2 = u64 [a0 + 0x8]\n 32253: a5 = u64 [a1 + 0x8]\n 32256: t1 = u64 [a0]\n 32258: a3 = a2 + 0x1f\n 32261: ra = a3 <u a2\n 32264: a2 = a5 + ra\n 32267: a3 = a3 & 0xffffffffffffffe0\n 32270: u64 [sp + 0x8] = t1\n 32273: t1 = t1 + a3\n 32276: a4 = t1 <u a3\n 32279: a3 = a2 + t2\n 32282: a3 = a3 + a4\n 32285: s1 = a3 ^ a2\n 32288: a0 = a3 <u a2\n 32291: a0 = a4 if s1 == 0\n 32294: a4 = u64 [t0 + 0x18]\n 32297: a5 = a2 <u a5\n 32300: s1 = u64 [a1 + 0x10]\n 32303: t0 = u64 [t0 + 0x10]\n 32306: a1 = u64 [a1 + 0x18]\n 32309: a5 = ra if ra == 0\n 32312: a5 = a5 + s1\n 32315: s1 = a5 <u s1\n 32318: a2 = a5 + t0\n 32321: a0 = a0 + a2\n 32324: a5 = a2 <u a5\n 32327: a2 = a0 <u a2\n 32330: a1 = a1 + a4\n 32333: a1 = a1 + s1\n 32336: a1 = a1 + a5\n 32339: a5 = a1 + a2\n 32342: a1 = a5 >u 0\n 32344: a2 = a0 >u 0\n 32346: a2 = a1 if a5 != 0\n 32349: a1 = a0 | a5\n 32352: s1 = a3 >u 0\n 32354: s1 = a2 if a1 != 0\n 32357: jump @1271 if s1 != 0\n      : @1268 (gas: 13)\n 32360: a1 = u64 [sp + 0x8]\n 32363: a1 = t1 <u a1\n 32366: a2 = a3 ^ t2\n 32369: s1 = a3 <u t2\n 32372: s1 = a1 if a2 == 0\n 32375: a1 = a0 <u t0\n 32378: a2 = a5 ^ a4\n 32381: a4 = a5 <u a4\n 32384: a4 = a1 if a2 == 0\n 32387: a1 = a0 ^ t0\n 32390: a1 = a1 | a2\n 32393: a4 = s1 if a1 == 0\n 32396: jump @1271 if a4 != 0\n      : @1269 (gas: 7)\n 32399: u64 [sp + 0x50] = t1\n 32402: u64 [sp + 0x58] = a3\n 32405: u64 [sp + 0x60] = a0\n 32408: a0 = 0x40\n 32411: a1 = sp + 0x50\n 32414: u64 [sp + 0x68] = a5\n 32417: ra = 1314, jump @9\n      : @1270 [@dyn 657] (gas: 6)\n 32423: sp = s0 + 0xffffffffffffff70\n 32427: ra = u64 [sp + 0x88]\n 32431: s0 = u64 [sp + 0x80]\n 32435: s1 = u64 [sp + 0x78]\n 32438: sp = sp + 0x90\n 32442: ret\n      : @1271 (gas: 1)\n 32444: t0 = 1316, jump @1591\n      : @1272 [@dyn 658] (gas: 1)\n 32450: ra = 1318, jump @9\n      : @1273 [@dyn 659] (gas: 7)\n 32456: u64 [sp + 40] = 0\n 32459: u64 [sp + 32] = 0\n 32462: u64 [sp + 16] = 0x41\n 32466: a0 = 0x4\n 32469: a1 = sp + 0x10\n 32472: u64 [sp + 24] = 0\n 32475: ra = 1320, jump @9\n      : @1274 [@dyn 660] (gas: 2)\n 32481: a1 = i32 [0x20150]\n 32486: jump @1276 if a1 >u 63\n      : @1275 (gas: 2)\n 32490: u32 [0x20150] = 0x40\n 32496: fallthrough\n      : @1276 (gas: 7)\n 32497: a1 = 0x20160\n 32502: i32 a1 = a1 + 0\n 32504: a0 = 0x1\n 32507: a2 = 0x24\n 32510: ra = 0x52a\n 32514: ecalli 14 // 'seal_return'\n 32516: fallthrough\n      : @1277 [@dyn 661] (gas: 22)\n 32517: sp = sp + 0xffffffffffffff50\n 32521: u64 [sp + 0xa8] = ra\n 32525: u64 [sp + 0xa0] = s0\n 32529: u64 [sp + 0x98] = s1\n 32533: s0 = sp + 0xb0\n 32537: sp = sp & 0xfffffffffffffff0\n 32540: a5 = u64 [a1 + 0x10]\n 32543: a4 = u64 [a1 + 0x18]\n 32546: s1 = u64 [a1 + 0x8]\n 32549: t0 = u64 [a1]\n 32551: u64 [sp + 0x40] = a4\n 32554: u64 [sp + 0x38] = s1\n 32557: a1 = s1 | a4\n 32560: a4 = t0 | a5\n 32563: a4 = a4 | a1\n 32566: a4 = a4 >> 0x20\n 32569: u64 [sp + 0x48] = a5\n 32572: a1 = a1 | a5\n 32575: a1 = a1 << 0x20\n 32578: a1 = a1 | a4\n 32581: u64 [sp + 0x30] = a0\n 32584: jump @1282 if a1 != 0\n      : @1278 (gas: 21)\n 32588: s1 = t0\n 32590: a0 = u64 [a3 + 0x18]\n 32593: u64 [sp + 0x28] = a0\n 32596: a0 = u64 [a3 + 0x10]\n 32599: u64 [sp + 0x20] = a0\n 32602: a0 = u64 [a3 + 0x8]\n 32605: u64 [sp + 0x18] = a0\n 32608: a0 = u64 [a3]\n 32610: u64 [sp + 0x10] = a0\n 32613: a0 = u64 [a2 + 0x10]\n 32616: a1 = u64 [a2 + 0x8]\n 32619: a2 = u64 [a2]\n 32621: a0 = a0 << 0x20\n 32624: a0 = a0 >> 0x20\n 32627: u64 [sp + 136] = 0\n 32631: u64 [sp + 0x70] = a2\n 32634: u64 [sp + 0x78] = a1\n 32637: a1 = sp + 0x70\n 32640: u64 [sp + 0x80] = a0\n 32644: a0 = t0\n 32646: ra = 1324, jump @9\n      : @1279 [@dyn 662] (gas: 9)\n 32652: a2 = u64 [sp + 0x48]\n 32655: a3 = u64 [sp + 0x40]\n 32658: a0 = a2 | a3\n 32661: a1 = 0xffffffe0\n 32671: a1 = s1 <u a1\n 32674: a4 = u64 [sp + 0x38]\n 32677: a1 = 0 if a4 != 0\n 32679: a1 = 0 if a0 != 0\n 32681: jump @1282 if a1 == 0\n      : @1280 (gas: 23)\n 32684: a0 = s1 + 0x40\n 32687: u64 [sp + 0x8] = a0\n 32690: a0 = a0 <u s1\n 32693: a1 = a4 + a0\n 32696: u64 [sp] = a1\n 32698: a1 = a1 <u a4\n 32701: a1 = a0 if a0 == 0\n 32704: a1 = a1 + a2\n 32707: u64 [sp + 0x38] = a1\n 32710: a0 = a1 <u a2\n 32713: a0 = a0 + a3\n 32716: u64 [sp + 0x48] = a0\n 32719: i32 a0 = s1 + 0x20\n 32722: a1 = u64 [sp + 0x10]\n 32725: u64 [sp + 0x50] = a1\n 32728: a1 = u64 [sp + 0x18]\n 32731: u64 [sp + 0x58] = a1\n 32734: a1 = u64 [sp + 0x20]\n 32737: u64 [sp + 0x60] = a1\n 32740: a1 = sp + 0x50\n 32743: a2 = u64 [sp + 0x28]\n 32746: u64 [sp + 0x68] = a2\n 32749: ra = 1326, jump @9\n      : @1281 [@dyn 663] (gas: 15)\n 32755: a0 = u64 [sp + 0x30]\n 32758: a1 = u64 [sp + 0x38]\n 32761: u64 [a0 + 0x10] = a1\n 32764: a1 = u64 [sp]\n 32766: u64 [a0 + 0x8] = a1\n 32769: a1 = u64 [sp + 0x8]\n 32772: u64 [a0] = a1\n 32774: a1 = u64 [sp + 0x48]\n 32777: u64 [a0 + 0x18] = a1\n 32780: sp = s0 + 0xffffffffffffff50\n 32784: ra = u64 [sp + 0xa8]\n 32788: s0 = u64 [sp + 0xa0]\n 32792: s1 = u64 [sp + 0x98]\n 32796: sp = sp + 0xb0\n 32800: ret\n      : @1282 (gas: 1)\n 32802: trap\n      : @1283 [@dyn 664] (gas: 12)\n 32803: a3 = sp + 0x300\n 32807: a0 = u64 [a3 + 0x30]\n 32810: a2 = u64 [a3 + 0x28]\n 32813: a1 = u64 [a3 + 0x20]\n 32816: u64 [sp + 0x88] = a0\n 32820: a0 = a0 << 0x20\n 32823: a0 = a0 >> 0x20\n 32826: u64 [sp + 0x90] = a1\n 32830: u64 [sp + 0x80] = a2\n 32834: a1 = a1 | a2\n 32837: a0 = a0 | a1\n 32840: jump @1340 if a0 == 0\n      : @1284 (gas: 3)\n 32844: a0 = sp + 0x300\n 32848: a1 = 0x40\n 32851: ra = 1330, jump @7\n      : @1285 [@dyn 665] (gas: 15)\n 32857: a3 = sp + 0x300\n 32861: a2 = u64 [a3 + 0x18]\n 32864: s1 = u64 [a3 + 0x10]\n 32867: a1 = u64 [a3 + 0x8]\n 32870: a0 = u64 [a3]\n 32872: u64 [sp + 0xa0] = a1\n 32876: u64 [sp + 0xa8] = a2\n 32880: a2 = a2 | a1\n 32883: a1 = a0 | s1\n 32886: a1 = a1 | a2\n 32889: a1 = a1 >> 0x20\n 32892: a2 = a2 | s1\n 32895: a2 = a2 << 0x20\n 32898: a1 = a1 | a2\n 32901: jump @1339 if a1 != 0\n      : @1286 (gas: 9)\n 32905: a3 = sp + 0x200\n 32909: u64 [a3 + 240] = 0\n 32913: u64 [a3 + 232] = 0\n 32917: u64 [a3 + 224] = 0\n 32921: a2 = 0x4da6a55600000000\n 32931: a1 = sp + 0x2e0\n 32935: u64 [a3 + 0xf8] = a2\n 32939: u64 [sp + 0xb0] = a0\n 32943: ra = 1332, jump @9\n      : @1287 [@dyn 666] (gas: 7)\n 32949: a0 = 0x30160\n 32954: u64 [sp + 0xb8] = a0\n 32958: i32 a0 = a0 + 0\n 32960: u64 [sp + 0x98] = a0\n 32964: ra = 0x536\n 32968: ecalli 4 // 'caller'\n 32970: fallthrough\n      : @1288 [@dyn 667] (gas: 10)\n 32971: a4 = u64 [sp + 0xb0]\n 32975: u64 [sp + 0x78] = s1\n 32978: a0 = u64 [sp + 0xa8]\n 32982: a0 = a0 | s1\n 32985: a1 = 0xfffffffc\n 32995: a1 = a4 <u a1\n 32998: a2 = u64 [sp + 0xa0]\n 33002: a1 = 0 if a2 != 0\n 33004: a1 = 0 if a0 != 0\n 33006: jump @1339 if a1 == 0\n      : @1289 (gas: 2)\n 33010: s1 = u64 [sp + 0xb8]\n 33014: t0 = 1336, jump @1570\n      : @1290 [@dyn 668] (gas: 14)\n 33020: a3 = a3 | a1\n 33023: a0 = a0 >> 0x20\n 33026: a1 = reverse a2\n 33028: a2 = a1 << 0x20\n 33031: a2 = a2 | a0\n 33034: a1 = a1 >> 0x20\n 33037: i32 a0 = a4 + 0x4\n 33040: a4 = sp + 0x200\n 33044: u64 [a4 + 216] = 0\n 33048: u64 [a4 + 0xd0] = a1\n 33052: u64 [a4 + 0xc8] = a2\n 33056: a1 = sp + 0x2c0\n 33060: u64 [a4 + 0xc0] = a3\n 33064: ra = 1338, jump @9\n      : @1291 [@dyn 669] (gas: 29)\n 33070: ecalli 11 // 'ref_time_left'\n 33072: a0 = u64 [sp + 0x80]\n 33076: a0 = reverse a0\n 33078: a1 = a0 << 0x20\n 33081: a2 = u64 [sp + 0x88]\n 33085: a2 = reverse a2\n 33087: a2 = a2 >> 0x20\n 33090: a3 = a2 | a1\n 33093: a1 = u64 [sp + 0x90]\n 33097: a1 = reverse a1\n 33099: a2 = a1 << 0x20\n 33102: a0 = a0 >> 0x20\n 33105: a0 = a0 | a2\n 33108: a1 = a1 >> 0x20\n 33111: u64 [sp + 0x60] = a0\n 33114: u64 [s1 + 0x8] = a0\n 33117: u64 [sp + 0x70] = a3\n 33120: u64 [s1] = a3\n 33122: u64 [sp + 0x68] = a1\n 33125: u32 [s1 + 0x10] = a1\n 33128: a0 = sp + 0x300\n 33132: u64 [a0 + 120] = 0\n 33135: u64 [a0 + 112] = 0\n 33138: u64 [a0 + 104] = 0\n 33141: u64 [a0 + 96] = 0\n 33144: a1 = 0x24\n 33147: s1 = u64 [sp + 0xb0]\n 33151: a0 = s1\n 33153: ra = 1340, jump @20\n      : @1292 [@dyn 670] (gas: 4)\n 33159: u64 [sp + 0x90] = a0\n 33163: a1 = 0x20\n 33166: a0 = s1\n 33168: ra = 1342, jump @20\n      : @1293 [@dyn 671] (gas: 33)\n 33174: u32 [sp + 896] = 0x20\n 33179: a1 = sp + 0x300\n 33183: u64 [a1 + 184] = 0\n 33187: u64 [a1 + 176] = 0\n 33191: u64 [a1 + 168] = 0\n 33195: u64 [a1 + 160] = 0\n 33199: a1 = u64 [sp + 0xb8]\n 33203: a1 = a1 << 0x20\n 33206: a2 = a1 >> 0x20\n 33209: a1 = 0x1800000000\n 33219: u64 [sp + 0x48] = a2\n 33222: t0 = a2 | a1\n 33225: a1 = sp + 0x360\n 33229: a1 = a1 << 0x20\n 33232: a1 = a1 >> 0x20\n 33235: a2 = sp + 0x3a0\n 33239: a2 = a2 << 0x20\n 33242: a3 = a2 | a1\n 33245: a1 = u64 [sp + 0x90]\n 33249: a1 = a1 << 0x20\n 33252: a1 = a1 >> 0x20\n 33255: a2 = 0x2400000000\n 33265: a4 = a1 | a2\n 33268: a0 = a0 << 0x20\n 33271: a0 = a0 >> 0x20\n 33274: a1 = sp + 0x380\n 33278: a1 = a1 << 0x20\n 33281: a5 = a1 | a0\n 33284: a1 = 0xffffffffffffffff\n 33287: a2 = 0xffffffffffffffff\n 33290: a0 = t0\n 33292: ecalli 0 // 'call'\n 33293: fallthrough\n      : @1294 (gas: 1)\n 33294: jump @1322 if a0 != 0\n      : @1295 (gas: 2)\n 33298: ecalli 13 // 'return_data_size'\n 33300: fallthrough\n      : @1296 (gas: 2)\n 33301: a4 = 0x20\n 33304: jump @1298 if a0 >=u a4\n      : @1297 (gas: 3)\n 33307: ecalli 13 // 'return_data_size'\n 33309: a4 = a0\n 33311: fallthrough\n      : @1298 (gas: 18)\n 33312: s1 = 0\n 33314: a2 = u64 [sp + 0xb0]\n 33318: a3 = u64 [sp + 0xa8]\n 33322: a0 = u64 [sp + 0x78]\n 33325: a1 = u64 [sp + 0xa0]\n 33329: u64 [sp + 0xa8] = a4\n 33333: a5 = sp + 0x200\n 33337: u64 [a5 + 0x60] = a4\n 33340: u64 [a5 + 0x80] = a2\n 33344: u64 [a5 + 104] = 0\n 33347: u64 [a5 + 0x88] = a1\n 33351: u64 [a5 + 112] = 0\n 33354: u64 [a5 + 0x90] = a0\n 33358: u64 [a5 + 120] = 0\n 33361: a0 = sp + 0x280\n 33365: a1 = sp + 0x260\n 33369: u64 [a5 + 0x98] = a3\n 33373: ra = 1344, jump @1267\n      : @1299 [@dyn 672] (gas: 8)\n 33379: a1 = u64 [sp + 0xa8]\n 33383: a1 = a1 <u 0x20\n 33386: a1 = a1 ^ 0x1\n 33389: a0 = 0\n 33391: a2 = a0\n 33393: s1 = 0\n 33395: a2 = a1 if s1 == 0\n 33398: jump @1344 if a2 == 0\n      : @1300 (gas: 3)\n 33402: a0 = sp + 0x240\n 33406: a1 = u64 [sp + 0xb0]\n 33410: ra = 1346, jump @7\n      : @1301 [@dyn 673] (gas: 10)\n 33417: a0 = sp + 0x200\n 33421: a2 = u64 [a0 + 0x58]\n 33424: a3 = u64 [a0 + 0x50]\n 33427: a4 = u64 [a0 + 0x48]\n 33430: a5 = u64 [a0 + 0x40]\n 33433: a0 = a4 | a2\n 33436: a1 = a5 | a3\n 33439: a0 = a0 | a1\n 33442: s1 = u64 [sp + 0xb8]\n 33446: jump @1321 if a0 == 0\n      : @1302 (gas: 13)\n 33450: u64 [sp + 0x50] = a5\n 33453: u64 [sp + 0x78] = a4\n 33456: u64 [sp + 0x80] = a3\n 33460: u64 [sp + 0x88] = a2\n 33464: a0 = u64 [sp + 0x70]\n 33467: u64 [s1] = a0\n 33469: a0 = u64 [sp + 0x60]\n 33472: u64 [s1 + 0x8] = a0\n 33475: a0 = u64 [sp + 0x68]\n 33478: u32 [s1 + 0x10] = a0\n 33481: a0 = u64 [sp + 0x98]\n 33485: ecalli 5 // 'code_size'\n 33487: fallthrough\n      : @1303 (gas: 1)\n 33488: jump @1345 if a0 == 0\n      : @1304 (gas: 3)\n 33492: a0 = sp + 0x220\n 33496: a1 = 0x40\n 33499: ra = 1348, jump @7\n      : @1305 [@dyn 674] (gas: 17)\n 33506: a4 = sp + 0x200\n 33510: a2 = u64 [a4 + 0x38]\n 33513: a3 = u64 [a4 + 0x30]\n 33516: a0 = u64 [a4 + 0x28]\n 33519: a1 = u64 [a4 + 0x20]\n 33522: u64 [sp + 0x90] = a0\n 33526: u64 [sp + 0xa8] = a2\n 33530: a0 = a0 | a2\n 33533: u64 [sp + 0xb0] = a1\n 33537: a1 = a1 | a3\n 33540: a1 = a1 | a0\n 33543: a1 = a1 >> 0x20\n 33546: u64 [sp + 0xa0] = a3\n 33550: a0 = a0 | a3\n 33553: a0 = a0 << 0x20\n 33556: a0 = a0 | a1\n 33559: jump @1339 if a0 != 0\n      : @1306 (gas: 9)\n 33563: a2 = sp + 0x200\n 33567: u64 [a2 + 16] = 0\n 33570: u64 [a2 + 8] = 0\n 33573: u64 [a2 + 0] = 0\n 33575: a0 = 0xc2a672e000000000\n 33585: a1 = sp + 0x200\n 33589: u64 [a2 + 0x18] = a0\n 33592: a0 = u64 [sp + 0xb0]\n 33596: ra = 1350, jump @9\n      : @1307 [@dyn 675] (gas: 5)\n 33603: a0 = u64 [sp + 0x98]\n 33607: ra = 0x548\n 33611: ecalli 4 // 'caller'\n 33613: t0 = 0x54a\n 33617: jump @1570\n      : @1308 [@dyn 676] (gas: 1)\n 33620: t0 = 1354, jump @1570\n      : @1309 [@dyn 677] (gas: 39)\n 33626: t0 = a1 | a3\n 33629: a0 = a0 >> 0x20\n 33632: a1 = reverse a2\n 33634: a2 = a1 << 0x20\n 33637: a0 = a0 | a2\n 33640: a1 = a1 >> 0x20\n 33643: a3 = u64 [sp + 0xb0]\n 33647: a2 = a3 + 0x4\n 33650: a3 = a2 <u a3\n 33653: a4 = u64 [sp + 0x90]\n 33657: a5 = a4 + a3\n 33660: s1 = a5 <u a4\n 33663: s1 = a3 if a3 == 0\n 33666: a3 = u64 [sp + 0xa0]\n 33670: s1 = s1 + a3\n 33673: a3 = s1 <u a3\n 33676: a4 = u64 [sp + 0xa8]\n 33680: a3 = a3 + a4\n 33683: a4 = u64 [sp + 0x88]\n 33687: u64 [sp + 0x198] = a4\n 33691: a4 = u64 [sp + 0x80]\n 33695: u64 [sp + 0x190] = a4\n 33699: a4 = u64 [sp + 0x78]\n 33702: u64 [sp + 0x188] = a4\n 33706: a4 = u64 [sp + 0x50]\n 33709: u64 [sp + 0x180] = a4\n 33713: u64 [sp + 440] = 0\n 33717: u64 [sp + 0x1d8] = a3\n 33721: u64 [sp + 0x1d0] = s1\n 33725: u64 [sp + 0x1c8] = a5\n 33729: u64 [sp + 0x1c0] = a2\n 33733: u64 [sp + 0x1b0] = a1\n 33737: u64 [sp + 0x1a8] = a0\n 33741: a0 = sp + 0x1e0\n 33745: a1 = sp + 0x1c0\n 33749: a2 = sp + 0x1a0\n 33753: a3 = sp + 0x180\n 33757: u64 [sp + 0x1a0] = t0\n 33761: ra = 1356, jump @1277\n      : @1310 [@dyn 678] (gas: 28)\n 33767: a0 = u64 [sp + 0x1e8]\n 33771: t2 = u64 [sp + 0x1f8]\n 33775: t0 = u64 [sp + 0x1e0]\n 33779: a3 = u64 [sp + 0x1f0]\n 33783: a2 = u64 [sp + 0x90]\n 33787: a4 = a0 ^ a2\n 33790: a5 = a0 <u a2\n 33793: t1 = a2\n 33795: a2 = u64 [sp + 0xb0]\n 33799: s1 = t0 <u a2\n 33802: a5 = s1 if a4 == 0\n 33805: a1 = u64 [sp + 0xa0]\n 33809: a4 = a3 - a1\n 33812: a3 = a3 <u a1\n 33815: a1 = u64 [sp + 0xa8]\n 33819: a1 = t2 - a1\n 33822: a1 = a1 - a3\n 33825: a3 = a4 <u a5\n 33828: a1 = a1 - a3\n 33831: u64 [sp + 0x40] = a1\n 33834: a4 = a4 - a5\n 33837: u64 [sp + 0x38] = a4\n 33840: a0 = a0 - t1\n 33843: a0 = a0 - s1\n 33846: u64 [sp + 0x30] = a0\n 33849: s1 = t0 - a2\n 33852: ecalli 11 // 'ref_time_left'\n 33854: fallthrough\n      : @1311 (gas: 25)\n 33855: u64 [sp + 0x28] = a0\n 33858: a0 = u64 [sp + 0x60]\n 33861: a1 = u64 [sp + 0xb8]\n 33865: u64 [a1 + 0x8] = a0\n 33868: a0 = u64 [sp + 0x70]\n 33871: u64 [a1] = a0\n 33873: a0 = u64 [sp + 0x68]\n 33876: u32 [a1 + 0x10] = a0\n 33879: a4 = sp + 0x300\n 33883: u64 [a4 + 248] = 0\n 33887: a5 = 0\n 33889: u64 [a4 + 240] = 0\n 33893: u64 [a4 + 232] = 0\n 33897: a2 = u64 [sp + 0x38]\n 33900: a0 = s1 | a2\n 33903: a1 = u64 [sp + 0x40]\n 33906: a3 = u64 [sp + 0x30]\n 33909: a1 = a1 | a3\n 33912: a0 = a0 | a1\n 33915: a0 = a0 >> 0x20\n 33918: a1 = a1 | a2\n 33921: a1 = a1 << 0x20\n 33924: a0 = a0 | a1\n 33927: u64 [a4 + 224] = 0\n 33931: jump @1339 if a0 != 0\n      : @1312 (gas: 7)\n 33935: i32 a0 = s1 + 0\n 33937: u64 [sp + 0x68] = a0\n 33940: a1 = s1\n 33942: u64 [sp + 0x20] = s1\n 33945: s1 = u64 [sp + 0xb0]\n 33949: a0 = s1\n 33951: ra = 1358, jump @20\n      : @1313 [@dyn 679] (gas: 4)\n 33957: u64 [sp + 0x70] = a0\n 33960: a0 = s1\n 33962: a1 = 0\n 33964: ra = 1360, jump @20\n      : @1314 [@dyn 680] (gas: 37)\n 33970: a4 = sp + 0x400\n 33974: u32 [a4 + 0] = 0\n 33976: a1 = u64 [sp + 0x68]\n 33979: a1 = a1 >u 0\n 33981: a3 = u64 [sp + 0x28]\n 33984: a2 = a3 >u 0x8fc\n 33988: a1 = a1 | a2\n 33991: a2 = -a1\n 33993: u64 [a4 + 0x38] = a2\n 33996: u64 [a4 + 0x30] = a2\n 33999: u64 [a4 + 0x28] = a2\n 34002: u64 [a4 + 0x20] = a2\n 34005: a1 = a1 << 0x23\n 34008: a2 = u64 [sp + 0x48]\n 34011: t0 = a1 | a2\n 34014: a1 = sp + 0x3e0\n 34018: a1 = a1 << 0x20\n 34021: a1 = a1 >> 0x20\n 34024: a2 = sp + 0x420\n 34028: a2 = a2 << 0x20\n 34031: a3 = a2 | a1\n 34034: a1 = u64 [sp + 0x70]\n 34037: a1 = a1 << 0x20\n 34040: a1 = a1 >> 0x20\n 34043: a4 = u64 [sp + 0x20]\n 34046: a4 = a4 << 0x20\n 34049: a4 = a4 | a1\n 34052: a0 = a0 << 0x20\n 34055: a0 = a0 >> 0x20\n 34058: a1 = sp + 0x400\n 34062: a1 = a1 << 0x20\n 34065: a5 = a1 | a0\n 34068: a1 = 0xffffffffffffffff\n 34071: a2 = 0xffffffffffffffff\n 34074: a0 = t0\n 34076: ecalli 0 // 'call'\n 34077: fallthrough\n      : @1315 (gas: 1)\n 34078: jump @1329 if a0 != 0\n      : @1316 (gas: 15)\n 34082: u64 [sp + 312] = 0\n 34086: u64 [sp + 304] = 0\n 34090: u64 [sp + 296] = 0\n 34094: u64 [sp + 288] = 0\n 34098: a0 = u64 [sp + 0xb0]\n 34102: u64 [sp + 0x140] = a0\n 34106: a0 = u64 [sp + 0x90]\n 34110: u64 [sp + 0x148] = a0\n 34114: a0 = u64 [sp + 0xa0]\n 34118: u64 [sp + 0x150] = a0\n 34122: a0 = sp + 0x140\n 34126: a1 = sp + 0x120\n 34130: a2 = u64 [sp + 0xa8]\n 34134: u64 [sp + 0x158] = a2\n 34138: ra = 1362, jump @1267\n      : @1317 [@dyn 681] (gas: 6)\n 34144: a0 = u64 [sp + 0x98]\n 34148: ra = 0x554\n 34152: ecalli 4 // 'caller'\n 34154: a2 = u64 [sp + 0xb8]\n 34158: t0 = 0x556\n 34162: jump @1546\n      : @1318 [@dyn 682] (gas: 2)\n 34165: a2 = u64 [sp + 0xb8]\n 34169: t0 = 1366, jump @1546\n      : @1319 [@dyn 683] (gas: 15)\n 34175: a2 = u64 [sp + 0x88]\n 34179: u64 [sp + 0xf8] = a2\n 34183: a2 = u64 [sp + 0x80]\n 34187: u64 [sp + 0xf0] = a2\n 34191: a2 = u64 [sp + 0x78]\n 34194: u64 [sp + 0xe8] = a2\n 34198: s1 = u64 [sp + 0x50]\n 34201: u64 [sp + 0xe0] = s1\n 34205: u64 [sp + 280] = 0\n 34209: u64 [sp + 0x110] = a1\n 34213: u64 [sp + 0x108] = a0\n 34217: a0 = sp + 0x100\n 34221: a1 = sp + 0xe0\n 34225: u64 [sp + 0x100] = a3\n 34229: ra = 1368, jump @1356\n      : @1320 [@dyn 684] (gas: 5)\n 34235: a5 = s1\n 34237: a4 = u64 [sp + 0x78]\n 34240: a3 = u64 [sp + 0x80]\n 34244: a2 = u64 [sp + 0x88]\n 34248: fallthrough\n      : @1321 (gas: 12)\n 34249: a0 = u64 [sp + 0x58]\n 34252: u64 [a0] = a5\n 34254: u64 [a0 + 0x8] = a4\n 34257: u64 [a0 + 0x10] = a3\n 34260: u64 [a0 + 0x18] = a2\n 34263: sp = s0 + 0xfffffffffffffba0\n 34267: a0 = sp + 0x400\n 34271: ra = u64 [a0 + 0x58]\n 34274: s0 = u64 [a0 + 0x50]\n 34277: s1 = u64 [a0 + 0x48]\n 34280: sp = sp + 0x460\n 34284: ret\n      : @1322 (gas: 3)\n 34286: a0 = sp + 0x2a0\n 34290: a1 = 0x40\n 34293: ra = 1370, jump @7\n      : @1323 [@dyn 685] (gas: 12)\n 34300: a1 = sp + 0x200\n 34304: a0 = u64 [a1 + 0xb8]\n 34308: u64 [sp + 0xb8] = a0\n 34312: a0 = u64 [a1 + 0xb0]\n 34316: u64 [sp + 0xb0] = a0\n 34320: a0 = u64 [a1 + 0xa8]\n 34324: u64 [sp + 0xa8] = a0\n 34328: s1 = u64 [a1 + 0xa0]\n 34332: ra = 0x55c\n 34336: ecalli 13 // 'return_data_size'\n 34338: t0 = 0x55e\n 34342: jump @1587\n      : @1324 [@dyn 686] (gas: 1)\n 34345: t0 = 1374, jump @1587\n      : @1325 [@dyn 687] (gas: 1)\n 34351: jump @1339 if a1 != 0\n      : @1326 (gas: 3)\n 34355: s1 = a0\n 34357: a0 = a0 >> 0x20\n 34360: jump @1339 if a0 != 0\n      : @1327 (gas: 5)\n 34364: i32 a0 = s1 + 0\n 34366: u64 [sp + 0xb0] = a0\n 34370: a0 = u64 [sp + 0xb8]\n 34374: a1 = s1\n 34376: ra = 1376, jump @20\n      : @1328 [@dyn 688] (gas: 7)\n 34383: u32 [sp + 0x3c0] = s1\n 34387: i32 a0 = a0 + 0\n 34389: i32 a1 = sp + 0x3c0\n 34393: a2 = 0\n 34395: ecalli 12 // 'return_data_copy'\n 34397: a0 = i32 [sp + 0x3c0]\n 34401: jump @1336\n      : @1329 (gas: 3)\n 34403: a0 = sp + 0x160\n 34407: a1 = 0x40\n 34410: ra = 1378, jump @7\n      : @1330 [@dyn 689] (gas: 11)\n 34417: a0 = u64 [sp + 0x178]\n 34421: u64 [sp + 0xb8] = a0\n 34425: a0 = u64 [sp + 0x170]\n 34429: u64 [sp + 0xb0] = a0\n 34433: a0 = u64 [sp + 0x168]\n 34437: u64 [sp + 0xa8] = a0\n 34441: s1 = u64 [sp + 0x160]\n 34445: ra = 0x564\n 34449: ecalli 13 // 'return_data_size'\n 34451: t0 = 0x566\n 34455: jump @1587\n      : @1331 [@dyn 690] (gas: 1)\n 34458: t0 = 1382, jump @1587\n      : @1332 [@dyn 691] (gas: 1)\n 34464: jump @1339 if a1 != 0\n      : @1333 (gas: 3)\n 34467: s1 = a0\n 34469: a0 = a0 >> 0x20\n 34472: jump @1339 if a0 != 0\n      : @1334 (gas: 5)\n 34475: i32 a0 = s1 + 0\n 34477: u64 [sp + 0xb0] = a0\n 34481: a0 = u64 [sp + 0xb8]\n 34485: a1 = s1\n 34487: ra = 1384, jump @20\n      : @1335 [@dyn 692] (gas: 7)\n 34494: u32 [sp + 0x440] = s1\n 34498: i32 a0 = a0 + 0\n 34500: i32 a1 = sp + 0x440\n 34504: a2 = 0\n 34506: ecalli 12 // 'return_data_copy'\n 34508: a0 = i32 [sp + 0x440]\n 34512: fallthrough\n      : @1336 (gas: 2)\n 34513: a1 = u64 [sp + 0xb0]\n 34517: jump @1339 if a0 <u a1\n      : @1337 (gas: 2)\n 34520: ecalli 13 // 'return_data_size'\n 34522: fallthrough\n      : @1338 (gas: 3)\n 34523: s1 = a0\n 34525: a0 = a0 >> 0x20\n 34528: jump @1346 if a0 == 0\n      : @1339 (gas: 1)\n 34531: trap\n      : @1340 (gas: 8)\n 34532: u64 [sp + 208] = 0\n 34536: u64 [sp + 200] = 0\n 34540: u64 [sp + 192] = 0\n 34544: a0 = 0xdd75059200000000\n 34554: a1 = sp + 0xc0\n 34558: u64 [sp + 0xd8] = a0\n 34562: a0 = 0\n 34564: ra = 1386, jump @9\n      : @1341 [@dyn 693] (gas: 2)\n 34571: a1 = i32 [0x20150]\n 34576: jump @1343 if a1 >u 31\n      : @1342 (gas: 2)\n 34580: u32 [0x20150] = 0x20\n 34586: fallthrough\n      : @1343 (gas: 6)\n 34587: a1 = 0x20160\n 34592: i32 a1 = a1 + 0\n 34594: a0 = 0x1\n 34597: a2 = 0x4\n 34600: ecalli 14 // 'seal_return'\n 34602: fallthrough\n      : @1344 (gas: 5)\n 34603: a1 = 0x20160\n 34608: i32 a1 = a1 + 0\n 34610: a0 = 0x1\n 34613: ecalli 14 // 'seal_return'\n 34615: fallthrough\n      : @1345 (gas: 6)\n 34616: a1 = 0x20160\n 34621: i32 a1 = a1 + 0\n 34623: a0 = 0x1\n 34626: a2 = 0\n 34628: ecalli 14 // 'seal_return'\n 34630: fallthrough\n      : @1346 (gas: 3)\n 34631: a0 = u64 [sp + 0xb8]\n 34635: a1 = s1\n 34637: ra = 1388, jump @20\n      : @1347 [@dyn 694] (gas: 5)\n 34644: i32 a1 = a0 + 0\n 34646: i32 a2 = s1 + 0\n 34648: a0 = 0x1\n 34651: ecalli 14 // 'seal_return'\n 34653: jump @1345\n      : @1348 (gas: 45)\n 34655: sp = sp + 0xffffffffffffff90\n 34658: u64 [sp + 0x68] = ra\n 34661: u64 [sp + 0x60] = s0\n 34664: u64 [sp + 0x58] = s1\n 34667: s0 = sp + 0x70\n 34670: sp = sp & 0xfffffffffffffff0\n 34673: a3 = u64 [a1 + 0x18]\n 34676: u64 [sp + 0x8] = a3\n 34679: a4 = u64 [a2 + 0x18]\n 34682: t2 = u64 [a1]\n 34684: u64 [sp] = t2\n 34686: a3 = u64 [a1 + 0x8]\n 34689: s1 = u64 [a2 + 0x8]\n 34692: a5 = u64 [a2]\n 34694: t1 = u64 [a1 + 0x10]\n 34697: t0 = u64 [a2 + 0x10]\n 34700: a2 = s1 + a3\n 34703: t2 = t2 + a5\n 34706: a5 = t2 <u a5\n 34709: a2 = a2 + a5\n 34712: ra = a2 ^ s1\n 34715: s1 = a2 <u s1\n 34718: s1 = a5 if ra == 0\n 34721: a1 = t0 + t1\n 34724: a5 = u64 [sp + 0x8]\n 34727: a5 = a5 + a4\n 34730: a4 = a1 <u t0\n 34733: a4 = a4 + a5\n 34736: a5 = a1 + s1\n 34739: a1 = a5 <u a1\n 34742: ra = a4 + a1\n 34745: a4 = a2 ^ a3\n 34748: a3 = a2 <u a3\n 34751: a1 = u64 [sp]\n 34753: s1 = t2 <u a1\n 34756: s1 = a3 if a4 != 0\n 34759: t0 = a5 <u t1\n 34762: a1 = u64 [sp + 0x8]\n 34765: a4 = ra ^ a1\n 34768: a3 = ra <u a1\n 34771: a3 = t0 if a4 == 0\n 34774: a1 = a5 ^ t1\n 34777: a1 = a1 | a4\n 34780: s1 = a3 if a1 != 0\n 34783: jump @1350 if s1 != 0\n      : @1349 (gas: 10)\n 34786: u64 [a0] = t2\n 34788: u64 [a0 + 0x8] = a2\n 34791: u64 [a0 + 0x10] = a5\n 34794: u64 [a0 + 0x18] = ra\n 34797: sp = s0 + 0xffffffffffffff90\n 34800: ra = u64 [sp + 0x68]\n 34803: s0 = u64 [sp + 0x60]\n 34806: s1 = u64 [sp + 0x58]\n 34809: sp = sp + 0x70\n 34812: ret\n      : @1350 (gas: 1)\n 34814: t0 = 1390, jump @1591\n      : @1351 [@dyn 695] (gas: 1)\n 34820: ra = 1392, jump @9\n      : @1352 [@dyn 696] (gas: 7)\n 34827: u64 [sp + 40] = 0\n 34830: u64 [sp + 32] = 0\n 34833: u64 [sp + 16] = 0x11\n 34837: a0 = 0x4\n 34840: a1 = sp + 0x10\n 34843: u64 [sp + 24] = 0\n 34846: ra = 1394, jump @9\n      : @1353 [@dyn 697] (gas: 2)\n 34853: a1 = i32 [0x20150]\n 34858: jump @1355 if a1 >u 63\n      : @1354 (gas: 2)\n 34862: u32 [0x20150] = 0x40\n 34868: fallthrough\n      : @1355 (gas: 7)\n 34869: a1 = 0x20160\n 34874: i32 a1 = a1 + 0\n 34876: a0 = 0x1\n 34879: a2 = 0x24\n 34882: ra = 0x574\n 34886: ecalli 14 // 'seal_return'\n 34888: fallthrough\n      : @1356 [@dyn 698] (gas: 74)\n 34889: sp = sp + 0xfffffffffffffea0\n 34893: u64 [sp + 0x158] = ra\n 34897: u64 [sp + 0x150] = s0\n 34901: u64 [sp + 0x148] = s1\n 34905: s0 = sp + 0x160\n 34909: sp = sp & 0xffffffffffffffe0\n 34912: a2 = u64 [a1]\n 34914: u64 [sp + 0x38] = a2\n 34917: a2 = u64 [a1 + 0x8]\n 34920: u64 [sp + 0x30] = a2\n 34923: a2 = u64 [a1 + 0x10]\n 34926: u64 [sp + 0x28] = a2\n 34929: a1 = u64 [a1 + 0x18]\n 34932: u64 [sp + 0x20] = a1\n 34935: a1 = u64 [a0]\n 34937: u64 [sp + 0x18] = a1\n 34940: a1 = u64 [a0 + 0x10]\n 34943: u64 [sp + 0x10] = a1\n 34946: s1 = u64 [a0 + 0x8]\n 34949: ecalli 11 // 'ref_time_left'\n 34951: a1 = reverse s1\n 34953: a2 = a1 << 0x20\n 34956: a3 = u64 [sp + 0x10]\n 34959: a3 = reverse a3\n 34961: a3 = a3 >> 0x20\n 34964: a2 = a2 | a3\n 34967: a1 = a1 >> 0x20\n 34970: a3 = u64 [sp + 0x18]\n 34973: a3 = reverse a3\n 34975: a4 = 0x30160\n 34980: a5 = a3 << 0x20\n 34983: a1 = a1 | a5\n 34986: a3 = a3 >> 0x20\n 34989: u32 [0x30170] = a3\n 34994: u64 [0x30168] = a1\n 34999: u64 [0x30160] = a2\n 35004: a1 = u64 [sp + 0x20]\n 35007: u64 [sp + 0xf8] = a1\n 35011: a1 = u64 [sp + 0x28]\n 35014: u64 [sp + 0xf0] = a1\n 35018: a1 = u64 [sp + 0x30]\n 35021: u64 [sp + 0xe8] = a1\n 35025: a1 = u64 [sp + 0x38]\n 35028: u64 [sp + 0xe0] = a1\n 35032: u32 [sp + 256] = 0\n 35036: a0 = a0 >u 0x8fc\n 35040: a1 = -a0\n 35042: u64 [sp + 0x138] = a1\n 35046: u64 [sp + 0x130] = a1\n 35050: u64 [sp + 0x128] = a1\n 35054: u64 [sp + 0x120] = a1\n 35058: a4 = a4 << 0x20\n 35061: a4 = a4 >> 0x20\n 35064: a0 = a0 << 0x23\n 35067: a0 = a0 | a4\n 35070: a1 = sp + 0xe0\n 35074: a1 = a1 << 0x20\n 35077: a1 = a1 >> 0x20\n 35080: a4 = 0x20160\n 35085: a2 = sp + 0x120\n 35089: a2 = a2 << 0x20\n 35092: a3 = a2 | a1\n 35095: u64 [sp + 0x8] = a4\n 35098: a4 = a4 << 0x20\n 35101: a4 = a4 >> 0x20\n 35104: a1 = sp + 0x100\n 35108: a1 = a1 << 0x20\n 35111: a5 = a1 | a4\n 35114: a1 = 0xffffffffffffffff\n 35117: a2 = 0xffffffffffffffff\n 35120: ecalli 0 // 'call'\n 35121: s1 = a0\n 35123: ecalli 13 // 'return_data_size'\n 35125: fallthrough\n      : @1357 (gas: 1)\n 35126: jump @1368 if a0 == 0\n      : @1358 (gas: 6)\n 35130: u64 [sp + 0x10] = s1\n 35133: ecalli 13 // 'return_data_size'\n 35135: s1 = a0\n 35137: a0 = sp + 0xc0\n 35141: a1 = 0x40\n 35144: ra = 1398, jump @7\n      : @1359 [@dyn 699] (gas: 28)\n 35151: t0 = u64 [sp + 0xd8]\n 35155: a5 = u64 [sp + 0xd0]\n 35159: u64 [sp + 0x30] = a5\n 35162: t1 = u64 [sp + 0xc8]\n 35166: u64 [sp + 0x38] = t1\n 35169: t2 = u64 [sp + 0xc0]\n 35173: u64 [sp + 0x28] = t2\n 35176: a0 = s1 + 0x1f\n 35179: u64 [sp + 0x18] = s1\n 35182: a1 = a0 <u s1\n 35185: a0 = a0 & 0xffffffffffffffe0\n 35188: a2 = a0 + 0x20\n 35191: a0 = a2 <u a0\n 35194: a3 = a1 + a0\n 35197: a4 = a3 <u a1\n 35200: a4 = a0 if a0 == 0\n 35203: u64 [sp + 152] = 0\n 35207: u64 [sp + 0x80] = a2\n 35211: s1 = t0\n 35213: u64 [sp + 0xb8] = t0\n 35217: u64 [sp + 0xb0] = a5\n 35221: u64 [sp + 0xa8] = t1\n 35225: u64 [sp + 0xa0] = t2\n 35229: u64 [sp + 0x88] = a3\n 35233: a0 = sp + 0xa0\n 35237: a1 = sp + 0x80\n 35241: u64 [sp + 0x90] = a4\n 35245: ra = 1400, jump @1267\n      : @1360 [@dyn 700] (gas: 12)\n 35251: a0 = u64 [sp + 0x28]\n 35254: u64 [sp + 0x20] = s1\n 35257: a2 = u64 [sp + 0x38]\n 35260: a2 = a2 | s1\n 35263: a3 = u64 [sp + 0x30]\n 35266: a1 = a0 | a3\n 35269: a1 = a1 | a2\n 35272: a1 = a1 >> 0x20\n 35275: a2 = a2 | a3\n 35278: a2 = a2 << 0x20\n 35281: a1 = a1 | a2\n 35284: jump @1370 if a1 != 0\n      : @1361 (gas: 8)\n 35288: u64 [sp + 120] = 0\n 35291: u64 [sp + 112] = 0\n 35294: u64 [sp + 104] = 0\n 35297: a1 = sp + 0x60\n 35300: a2 = u64 [sp + 0x18]\n 35303: u64 [sp + 0x60] = a2\n 35306: s1 = a0\n 35308: ra = 1402, jump @9\n      : @1362 [@dyn 701] (gas: 2)\n 35315: ecalli 13 // 'return_data_size'\n 35317: fallthrough\n      : @1363 (gas: 9)\n 35318: a1 = u64 [sp + 0x20]\n 35321: a2 = u64 [sp + 0x30]\n 35324: a1 = a1 | a2\n 35327: a2 = 0xffffffe0\n 35337: a2 = s1 <u a2\n 35340: a4 = u64 [sp + 0x38]\n 35343: a2 = 0 if a4 != 0\n 35345: a2 = 0 if a1 != 0\n 35347: jump @1370 if a2 == 0\n      : @1364 (gas: 4)\n 35350: a3 = s1\n 35352: s1 = a0\n 35354: a0 = a0 >> 0x20\n 35357: jump @1370 if a0 != 0\n      : @1365 (gas: 5)\n 35360: i32 a0 = a3 + 0x20\n 35363: i32 a1 = s1 + 0\n 35365: u64 [sp + 0x38] = a1\n 35368: a1 = s1\n 35370: ra = 1404, jump @20\n      : @1366 [@dyn 702] (gas: 6)\n 35377: u32 [sp + 0x140] = s1\n 35381: i32 a0 = a0 + 0\n 35383: i32 a1 = sp + 0x140\n 35387: a2 = 0\n 35389: ecalli 12 // 'return_data_copy'\n 35391: fallthrough\n      : @1367 (gas: 4)\n 35392: a0 = i32 [sp + 0x140]\n 35396: s1 = u64 [sp + 0x10]\n 35399: a1 = u64 [sp + 0x38]\n 35402: jump @1370 if a0 <u a1\n      : @1368 (gas: 1)\n 35405: jump @1371 if s1 != 0\n      : @1369 (gas: 6)\n 35408: sp = s0 + 0xfffffffffffffea0\n 35412: ra = u64 [sp + 0x158]\n 35416: s0 = u64 [sp + 0x150]\n 35420: s1 = u64 [sp + 0x148]\n 35424: sp = sp + 0x160\n 35428: ret\n      : @1370 (gas: 1)\n 35430: trap\n      : @1371 (gas: 8)\n 35431: u64 [sp + 80] = 0\n 35434: u64 [sp + 72] = 0\n 35437: u64 [sp + 64] = 0\n 35440: a0 = 0x90b8ec1800000000\n 35450: a1 = sp + 0x40\n 35453: u64 [sp + 0x58] = a0\n 35456: a0 = 0\n 35458: ra = 1406, jump @9\n      : @1372 [@dyn 703] (gas: 2)\n 35465: a1 = i32 [0x20150]\n 35470: jump @1374 if a1 >u 31\n      : @1373 (gas: 2)\n 35474: u32 [0x20150] = 0x20\n 35480: fallthrough\n      : @1374 (gas: 6)\n 35481: a1 = i32 [sp + 0x8]\n 35484: a0 = 0x1\n 35487: a2 = 0x4\n 35490: ra = 0x580\n 35494: ecalli 14 // 'seal_return'\n 35496: fallthrough\n      : @1375 [@dyn 704] (gas: 31)\n 35497: sp = sp + 0xfffffffffffff808\n 35501: a3 = sp + 0x700\n 35505: u64 [a3 + 0xf0] = ra\n 35509: u64 [a3 + 0xe8] = s0\n 35513: u64 [a3 + 0xe0] = s1\n 35517: s0 = sp + 0x7f8\n 35521: sp = sp + 0xfffffffffffffdf8\n 35525: sp = sp & 0xffffffffffffffe0\n 35528: s1 = sp\n 35530: a2 = u64 [a2]\n 35532: u64 [s1 + 0x90] = a2\n 35536: a1 = u64 [a1]\n 35538: u64 [s1 + 0x68] = a1\n 35541: a2 = u64 [a0]\n 35543: a1 = u64 [a0 + 0x8]\n 35546: a0 = u32 [a0 + 0x10]\n 35549: a3 = s1 + 0x1000\n 35553: u64 [a3 + 4294965272] = 0\n 35557: u64 [s1 + 0x98] = a0\n 35561: a3 = s1 + 0x1000\n 35565: u64 [a3 + 0xfffffffffffff810] = a0\n 35569: u64 [s1 + 0xa0] = a1\n 35573: a0 = s1 + 0x1000\n 35577: u64 [a0 + 0xfffffffffffff808] = a1\n 35581: a1 = s1 + 0x7ff\n 35585: a1 = a1 + 0x1\n 35588: u64 [s1 + 0xa8] = a2\n 35592: a0 = s1 + 0x1000\n 35596: u64 [a0 + 0xfffffffffffff800] = a2\n 35600: a0 = 0\n 35602: ra = 1410, jump @9\n      : @1376 [@dyn 705] (gas: 7)\n 35609: u64 [s1 + 2040] = 0\n 35613: u64 [s1 + 2032] = 0\n 35617: u64 [s1 + 2016] = 0x3\n 35622: a0 = 0x20\n 35625: a1 = s1 + 0x7e0\n 35629: u64 [s1 + 2024] = 0\n 35633: ra = 1412, jump @9\n      : @1377 [@dyn 706] (gas: 3)\n 35640: a1 = 0x20150\n 35645: a0 = i32 [0x20150]\n 35650: jump @1379 if a0 >u 63\n      : @1378 (gas: 2)\n 35654: u32 [0x20150] = 0x40\n 35660: fallthrough\n      : @1379 (gas: 16)\n 35661: a0 = sp + 0xffffffffffffffe0\n 35664: a2 = a0 & 0xffffffffffffffe0\n 35667: u64 [s1 + 0x88] = a2\n 35671: sp = a2\n 35673: a0 = 0x20160\n 35678: u64 [s1 + 0x30] = a0\n 35681: i32 a0 = a0 + 0\n 35683: i32 a2 = a2 + 0\n 35685: u64 [s1 + 0xb0] = a1\n 35689: a1 = 0x40\n 35692: u64 [s1 + 0xb8] = a0\n 35696: ra = 0x586\n 35700: ecalli 9 // 'hash_keccak_256'\n 35702: a3 = u64 [s1 + 0x88]\n 35706: t0 = 0x588\n 35710: jump @1588\n      : @1380 [@dyn 707] (gas: 2)\n 35713: a3 = u64 [s1 + 0x88]\n 35717: t0 = 1416, jump @1588\n      : @1381 [@dyn 708] (gas: 18)\n 35723: u64 [s1 + 0x88] = a0\n 35727: a0 = reverse a1\n 35729: u64 [s1 + 0x80] = a0\n 35733: a0 = reverse a2\n 35735: u64 [s1 + 0x78] = a0\n 35738: a0 = reverse a3\n 35740: u64 [s1 + 0x60] = a0\n 35743: a0 = u64 [s1 + 0x90]\n 35747: a0 = a0 << 0x20\n 35750: a0 = a0 >> 0x20\n 35753: u64 [s1 + 2008] = 0\n 35757: u64 [s1 + 2000] = 0\n 35761: u64 [s1 + 1992] = 0\n 35765: a1 = s1 + 0x7c0\n 35769: u64 [s1 + 0x70] = a0\n 35772: u64 [s1 + 0x7c0] = a0\n 35776: a0 = 0\n 35778: ra = 1418, jump @9\n      : @1382 [@dyn 709] (gas: 12)\n 35785: a0 = u64 [s1 + 0x60]\n 35788: a3 = s1 + 0x700\n 35792: u64 [a3 + 0xb8] = a0\n 35796: a0 = u64 [s1 + 0x78]\n 35799: u64 [a3 + 0xb0] = a0\n 35803: a0 = u64 [s1 + 0x80]\n 35807: u64 [a3 + 0xa8] = a0\n 35811: a0 = 0x20\n 35814: a1 = s1 + 0x7a0\n 35818: a2 = u64 [s1 + 0x88]\n 35822: u64 [a3 + 0xa0] = a2\n 35826: ra = 1420, jump @9\n      : @1383 [@dyn 710] (gas: 3)\n 35833: a1 = u64 [s1 + 0xb0]\n 35837: a0 = i32 [a1]\n 35839: jump @1385 if a0 >u 63\n      : @1384 (gas: 2)\n 35843: u32 [a1 + 0] = 0x40\n 35846: fallthrough\n      : @1385 (gas: 4)\n 35847: a0 = sp + 0xffffffffffffffe0\n 35850: a0 = a0 & 0xffffffffffffffe0\n 35853: u64 [s1 + 0x90] = a0\n 35857: t0 = 1422, jump @1559\n      : @1386 [@dyn 711] (gas: 5)\n 35863: ra = 0x590\n 35867: ecalli 9 // 'hash_keccak_256'\n 35869: a3 = u64 [s1 + 0x90]\n 35873: t0 = 0x592\n 35877: jump @1539\n      : @1387 [@dyn 712] (gas: 2)\n 35880: a3 = u64 [s1 + 0x90]\n 35884: t0 = 1426, jump @1539\n      : @1388 [@dyn 713] (gas: 12)\n 35890: a1 = s1 + 0x1000\n 35894: u64 [a1 + 0xfffffffffffff820] = a3\n 35898: a1 = s1 + 0x1000\n 35902: u64 [a1 + 0xfffffffffffff828] = a2\n 35906: a1 = s1 + 0x7ff\n 35910: a1 = a1 + 0x31\n 35913: u64 [a1] = a4\n 35915: u64 [a1 + 0x8] = a0\n 35918: a0 = s1 + 0x780\n 35922: a1 = s1 + 0x7ff\n 35926: a1 = a1 + 0x21\n 35929: ra = 1428, jump @11\n      : @1389 [@dyn 714] (gas: 2)\n 35936: a0 = u64 [s1 + 0x780]\n 35940: jump @1523 if a0 == 0\n      : @1390 (gas: 7)\n 35944: a1 = u64 [s1 + 0x70]\n 35947: a0 = a1 <u 0x100\n 35951: u64 [s1 + 0x60] = a0\n 35954: i32 a2 = a1 + 0xffffffffffffff80\n 35957: a0 = 0x1\n 35960: a1 = 0\n 35962: ra = 1430, jump @1606\n      : @1391 [@dyn 715] (gas: 7)\n 35968: u64 [s1 + 0x88] = a0\n 35972: u64 [s1 + 0x90] = a1\n 35976: a1 = u64 [s1 + 0x70]\n 35979: i32 a2 = 0x80 - a1\n 35983: a0 = 0x1\n 35986: a1 = 0\n 35988: ra = 1432, jump @1601\n      : @1392 [@dyn 716] (gas: 15)\n 35994: a2 = u64 [s1 + 0x70]\n 35997: a3 = a2 <u 0x80\n 36001: u64 [s1 + 0x80] = a3\n 36005: a4 = u64 [s1 + 0x88]\n 36009: a0 = a4 if a3 == 0\n 36012: a0 = 0 if a2 == 0\n 36014: u64 [s1 + 0x88] = a0\n 36018: a0 = u64 [s1 + 0x90]\n 36022: a1 = a0 if a3 == 0\n 36025: a1 = 0 if a2 == 0\n 36027: u64 [s1 + 0x90] = a1\n 36031: i32 a2 = a2 + 0\n 36033: a0 = 0x1\n 36036: a1 = 0\n 36038: ra = 1434, jump @1606\n      : @1393 [@dyn 717] (gas: 15)\n 36044: a2 = u64 [s1 + 0x80]\n 36048: a0 = 0 if a2 == 0\n 36050: u64 [s1 + 0x78] = a0\n 36053: a1 = 0 if a2 == 0\n 36055: u64 [s1 + 0x80] = a1\n 36059: u64 [s1 + 1912] = 0\n 36063: a0 = u64 [s1 + 0xa8]\n 36067: u64 [s1 + 0x760] = a0\n 36071: a0 = u64 [s1 + 0xa0]\n 36075: u64 [s1 + 0x768] = a0\n 36079: a1 = s1 + 0x760\n 36083: a0 = u64 [s1 + 0x98]\n 36087: u64 [s1 + 0x770] = a0\n 36091: a0 = 0\n 36093: ra = 1436, jump @9\n      : @1394 [@dyn 718] (gas: 7)\n 36100: u64 [s1 + 1880] = 0\n 36104: u64 [s1 + 1872] = 0\n 36108: u64 [s1 + 1856] = 0x5\n 36113: a0 = 0x20\n 36116: a1 = s1 + 0x740\n 36120: u64 [s1 + 1864] = 0\n 36124: ra = 1438, jump @9\n      : @1395 [@dyn 719] (gas: 3)\n 36131: a1 = u64 [s1 + 0xb0]\n 36135: a0 = i32 [a1]\n 36137: jump @1397 if a0 >u 63\n      : @1396 (gas: 2)\n 36141: u32 [a1 + 0] = 0x40\n 36144: fallthrough\n      : @1397 (gas: 17)\n 36145: a0 = u64 [s1 + 0x80]\n 36149: a1 = u64 [s1 + 0x60]\n 36152: a0 = 0 if a1 == 0\n 36154: u64 [s1 + 0x80] = a0\n 36158: a0 = u64 [s1 + 0x78]\n 36161: a0 = 0 if a1 == 0\n 36163: u64 [s1 + 0x78] = a0\n 36166: a0 = u64 [s1 + 0x90]\n 36170: a0 = 0 if a1 == 0\n 36172: u64 [s1 + 0x90] = a0\n 36176: a0 = u64 [s1 + 0x88]\n 36180: a0 = 0 if a1 == 0\n 36182: u64 [s1 + 0x88] = a0\n 36186: a0 = sp + 0xffffffffffffffe0\n 36189: a0 = a0 & 0xffffffffffffffe0\n 36192: u64 [s1 + 0x60] = a0\n 36195: t0 = 1440, jump @1559\n      : @1398 [@dyn 720] (gas: 4)\n 36201: ra = 0x5a2\n 36205: ecalli 9 // 'hash_keccak_256'\n 36207: t0 = 0x5a4\n 36211: jump @1544\n      : @1399 [@dyn 721] (gas: 1)\n 36214: t0 = 1444, jump @1544\n      : @1400 [@dyn 722] (gas: 10)\n 36220: a0 = u64 [s1 + 0x68]\n 36223: a0 = a0 & 0xffffffffffffffff\n 36226: u64 [s1 + 1848] = 0\n 36230: u64 [s1 + 1840] = 0\n 36234: u64 [s1 + 1832] = 0\n 36238: a1 = s1 + 0x720\n 36242: u64 [s1 + 0x68] = a0\n 36245: u64 [s1 + 0x720] = a0\n 36249: a0 = 0\n 36251: ra = 1446, jump @9\n      : @1401 [@dyn 723] (gas: 12)\n 36258: a0 = u64 [s1 + 0x40]\n 36261: a3 = s1 + 0x700\n 36265: u64 [a3 + 0x18] = a0\n 36268: a0 = u64 [s1 + 0x48]\n 36271: u64 [a3 + 0x10] = a0\n 36274: a0 = u64 [s1 + 0x50]\n 36277: u64 [a3 + 0x8] = a0\n 36280: a0 = 0x20\n 36283: a1 = s1 + 0x700\n 36287: a2 = u64 [s1 + 0x58]\n 36290: u64 [a3] = a2\n 36292: ra = 1448, jump @9\n      : @1402 [@dyn 724] (gas: 3)\n 36299: a1 = u64 [s1 + 0xb0]\n 36303: a0 = i32 [a1]\n 36305: jump @1404 if a0 >u 63\n      : @1403 (gas: 2)\n 36309: u32 [a1 + 0] = 0x40\n 36312: fallthrough\n      : @1404 (gas: 4)\n 36313: a0 = sp + 0xffffffffffffffe0\n 36316: a0 = a0 & 0xffffffffffffffe0\n 36319: u64 [s1 + 0x58] = a0\n 36322: t0 = 1450, jump @1559\n      : @1405 [@dyn 725] (gas: 4)\n 36328: ra = 0x5ac\n 36332: ecalli 9 // 'hash_keccak_256'\n 36334: t0 = 0x5ae\n 36338: jump @1547\n      : @1406 [@dyn 726] (gas: 1)\n 36341: t0 = 1454, jump @1547\n      : @1407 [@dyn 727] (gas: 2)\n 36347: a0 = s1 + 0x6e0\n 36351: ra = 1456, jump @11\n      : @1408 [@dyn 728] (gas: 6)\n 36358: a4 = s1 + 0x600\n 36362: a0 = u64 [a4 + 0xf0]\n 36366: a1 = u64 [a4 + 0xe0]\n 36370: a2 = u64 [a4 + 0xf8]\n 36374: a3 = u64 [a4 + 0xe8]\n 36378: t0 = 1458, jump @1565\n      : @1409 [@dyn 729] (gas: 1)\n 36384: jump @1524 if a0 == 0\n      : @1410 (gas: 10)\n 36388: u64 [s1 + 1752] = 0\n 36392: a0 = u64 [s1 + 0xa8]\n 36396: u64 [s1 + 0x6c0] = a0\n 36400: a0 = u64 [s1 + 0xa0]\n 36404: u64 [s1 + 0x6c8] = a0\n 36408: a1 = s1 + 0x6c0\n 36412: a0 = u64 [s1 + 0x98]\n 36416: u64 [s1 + 0x6d0] = a0\n 36420: a0 = 0\n 36422: ra = 1460, jump @9\n      : @1411 [@dyn 730] (gas: 7)\n 36429: u64 [s1 + 1720] = 0\n 36433: u64 [s1 + 1712] = 0\n 36437: u64 [s1 + 1696] = 0x7\n 36442: a0 = 0x20\n 36445: a1 = s1 + 0x6a0\n 36449: u64 [s1 + 1704] = 0\n 36453: ra = 1462, jump @9\n      : @1412 [@dyn 731] (gas: 3)\n 36460: a1 = u64 [s1 + 0xb0]\n 36464: a0 = i32 [a1]\n 36466: jump @1414 if a0 >u 63\n      : @1413 (gas: 2)\n 36470: u32 [a1 + 0] = 0x40\n 36473: fallthrough\n      : @1414 (gas: 4)\n 36474: a0 = sp + 0xffffffffffffffe0\n 36477: a0 = a0 & 0xffffffffffffffe0\n 36480: u64 [s1 + 0x60] = a0\n 36483: t0 = 1464, jump @1559\n      : @1415 [@dyn 732] (gas: 4)\n 36489: ra = 0x5ba\n 36493: ecalli 9 // 'hash_keccak_256'\n 36495: t0 = 0x5bc\n 36499: jump @1544\n      : @1416 [@dyn 733] (gas: 1)\n 36502: t0 = 1468, jump @1544\n      : @1417 [@dyn 734] (gas: 8)\n 36508: u64 [s1 + 1688] = 0\n 36512: u64 [s1 + 1680] = 0\n 36516: u64 [s1 + 1672] = 0\n 36520: a1 = s1 + 0x680\n 36524: a0 = u64 [s1 + 0x68]\n 36527: u64 [s1 + 0x680] = a0\n 36531: a0 = 0\n 36533: ra = 1470, jump @9\n      : @1418 [@dyn 735] (gas: 12)\n 36540: a0 = u64 [s1 + 0x40]\n 36543: a3 = s1 + 0x600\n 36547: u64 [a3 + 0x78] = a0\n 36550: a0 = u64 [s1 + 0x48]\n 36553: u64 [a3 + 0x70] = a0\n 36556: a0 = u64 [s1 + 0x50]\n 36559: u64 [a3 + 0x68] = a0\n 36562: a0 = 0x20\n 36565: a1 = s1 + 0x660\n 36569: a2 = u64 [s1 + 0x58]\n 36572: u64 [a3 + 0x60] = a2\n 36575: ra = 1472, jump @9\n      : @1419 [@dyn 736] (gas: 3)\n 36582: a1 = u64 [s1 + 0xb0]\n 36586: a0 = i32 [a1]\n 36588: jump @1421 if a0 >u 63\n      : @1420 (gas: 2)\n 36592: u32 [a1 + 0] = 0x40\n 36595: fallthrough\n      : @1421 (gas: 4)\n 36596: a0 = sp + 0xffffffffffffffe0\n 36599: a0 = a0 & 0xffffffffffffffe0\n 36602: u64 [s1 + 0x58] = a0\n 36605: t0 = 1474, jump @1559\n      : @1422 [@dyn 737] (gas: 4)\n 36611: ra = 0x5c4\n 36615: ecalli 9 // 'hash_keccak_256'\n 36617: t0 = 0x5c6\n 36621: jump @1547\n      : @1423 [@dyn 738] (gas: 1)\n 36624: t0 = 1478, jump @1547\n      : @1424 [@dyn 739] (gas: 2)\n 36630: a0 = s1 + 0x640\n 36634: ra = 1480, jump @11\n      : @1425 [@dyn 740] (gas: 6)\n 36641: a4 = s1 + 0x600\n 36645: a0 = u64 [a4 + 0x50]\n 36648: a1 = u64 [a4 + 0x40]\n 36651: a2 = u64 [a4 + 0x58]\n 36654: a3 = u64 [a4 + 0x48]\n 36657: t0 = 1482, jump @1565\n      : @1426 [@dyn 741] (gas: 1)\n 36663: jump @1525 if a0 != 0\n      : @1427 (gas: 11)\n 36667: u64 [s1 + 1560] = 0\n 36671: a0 = u64 [s1 + 0xa8]\n 36675: a2 = s1 + 0x600\n 36679: u64 [a2] = a0\n 36681: a0 = u64 [s1 + 0xa0]\n 36685: u64 [a2 + 0x8] = a0\n 36688: a1 = s1 + 0x600\n 36692: a0 = u64 [s1 + 0x98]\n 36696: u64 [a2 + 0x10] = a0\n 36699: a0 = 0\n 36701: ra = 1484, jump @9\n      : @1428 [@dyn 742] (gas: 7)\n 36708: u64 [s1 + 1528] = 0\n 36712: u64 [s1 + 1520] = 0\n 36716: u64 [s1 + 1504] = 0x7\n 36721: a0 = 0x20\n 36724: a1 = s1 + 0x5e0\n 36728: u64 [s1 + 1512] = 0\n 36732: ra = 1486, jump @9\n      : @1429 [@dyn 743] (gas: 3)\n 36739: a1 = u64 [s1 + 0xb0]\n 36743: a0 = i32 [a1]\n 36745: jump @1431 if a0 >u 63\n      : @1430 (gas: 2)\n 36749: u32 [a1 + 0] = 0x40\n 36752: fallthrough\n      : @1431 (gas: 4)\n 36753: a0 = sp + 0xffffffffffffffe0\n 36756: a0 = a0 & 0xffffffffffffffe0\n 36759: u64 [s1 + 0x60] = a0\n 36762: t0 = 1488, jump @1559\n      : @1432 [@dyn 744] (gas: 4)\n 36768: ra = 0x5d2\n 36772: ecalli 9 // 'hash_keccak_256'\n 36774: t0 = 0x5d4\n 36778: jump @1544\n      : @1433 [@dyn 745] (gas: 1)\n 36781: t0 = 1492, jump @1544\n      : @1434 [@dyn 746] (gas: 8)\n 36787: u64 [s1 + 1496] = 0\n 36791: u64 [s1 + 1488] = 0\n 36795: u64 [s1 + 1480] = 0\n 36799: a1 = s1 + 0x5c0\n 36803: a0 = u64 [s1 + 0x68]\n 36806: u64 [s1 + 0x5c0] = a0\n 36810: a0 = 0\n 36812: ra = 1494, jump @9\n      : @1435 [@dyn 747] (gas: 12)\n 36819: a0 = u64 [s1 + 0x40]\n 36822: a3 = s1 + 0x500\n 36826: u64 [a3 + 0xb8] = a0\n 36830: a0 = u64 [s1 + 0x48]\n 36833: u64 [a3 + 0xb0] = a0\n 36837: a0 = u64 [s1 + 0x50]\n 36840: u64 [a3 + 0xa8] = a0\n 36844: a0 = 0x20\n 36847: a1 = s1 + 0x5a0\n 36851: a2 = u64 [s1 + 0x58]\n 36854: u64 [a3 + 0xa0] = a2\n 36858: ra = 1496, jump @9\n      : @1436 [@dyn 748] (gas: 3)\n 36865: a1 = u64 [s1 + 0xb0]\n 36869: a0 = i32 [a1]\n 36871: jump @1438 if a0 >u 63\n      : @1437 (gas: 2)\n 36875: u32 [a1 + 0] = 0x40\n 36878: fallthrough\n      : @1438 (gas: 4)\n 36879: a0 = sp + 0xffffffffffffffe0\n 36882: a0 = a0 & 0xffffffffffffffe0\n 36885: u64 [s1 + 0x58] = a0\n 36888: t0 = 1498, jump @1559\n      : @1439 [@dyn 749] (gas: 4)\n 36894: ra = 0x5dc\n 36898: ecalli 9 // 'hash_keccak_256'\n 36900: t0 = 0x5de\n 36904: jump @1547\n      : @1440 [@dyn 750] (gas: 1)\n 36907: t0 = 1502, jump @1547\n      : @1441 [@dyn 751] (gas: 2)\n 36913: a0 = s1 + 0x580\n 36917: ra = 1504, jump @11\n      : @1442 [@dyn 752] (gas: 22)\n 36924: a0 = u64 [s1 + 0x580]\n 36928: a1 = u64 [s1 + 0x588]\n 36932: a2 = u64 [s1 + 0x590]\n 36936: a3 = u64 [s1 + 0x598]\n 36940: a4 = u64 [s1 + 0x78]\n 36943: a0 = a0 | a4\n 36946: a4 = u64 [s1 + 0x80]\n 36950: a1 = a1 | a4\n 36953: a4 = u64 [s1 + 0x88]\n 36957: a2 = a2 | a4\n 36960: a4 = u64 [s1 + 0x90]\n 36964: a3 = a3 | a4\n 36967: a4 = s1 + 0x7ff\n 36971: a4 = a4 + 0x31\n 36974: u64 [a4 + 0x28] = a3\n 36977: u64 [a4 + 0x20] = a2\n 36980: u64 [a4 + 0x18] = a1\n 36983: u64 [a4 + 0x10] = a0\n 36986: a1 = s1 + 0x7ff\n 36990: a1 = a1 + 0x41\n 36993: a0 = u64 [s1 + 0x60]\n 36996: ra = 1506, jump @12\n      : @1443 [@dyn 753] (gas: 10)\n 37003: u64 [s1 + 1400] = 0\n 37007: a0 = u64 [s1 + 0x98]\n 37011: u64 [s1 + 0x570] = a0\n 37015: a0 = u64 [s1 + 0xa0]\n 37019: u64 [s1 + 0x568] = a0\n 37023: a1 = s1 + 0x560\n 37027: a0 = u64 [s1 + 0xa8]\n 37031: u64 [s1 + 0x560] = a0\n 37035: a0 = 0\n 37037: ra = 1508, jump @9\n      : @1444 [@dyn 754] (gas: 7)\n 37044: u64 [s1 + 1368] = 0\n 37048: u64 [s1 + 1360] = 0\n 37052: u64 [s1 + 1344] = 0x2\n 37057: a0 = 0x20\n 37060: a1 = s1 + 0x540\n 37064: u64 [s1 + 1352] = 0\n 37068: ra = 1510, jump @9\n      : @1445 [@dyn 755] (gas: 3)\n 37075: a1 = u64 [s1 + 0xb0]\n 37079: a0 = i32 [a1]\n 37081: jump @1447 if a0 >=u 64\n      : @1446 (gas: 2)\n 37085: u32 [a1 + 0] = 0x40\n 37088: fallthrough\n      : @1447 (gas: 4)\n 37089: a0 = sp + 0xffffffffffffffe0\n 37092: a0 = a0 & 0xffffffffffffffe0\n 37095: u64 [s1 + 0x60] = a0\n 37098: t0 = 1512, jump @1559\n      : @1448 [@dyn 756] (gas: 32)\n 37104: ecalli 9 // 'hash_keccak_256'\n 37106: a3 = u64 [s1 + 0x60]\n 37109: a0 = u64 [a3]\n 37111: a1 = u64 [a3 + 0x8]\n 37114: a2 = u64 [a3 + 0x10]\n 37117: a3 = u64 [a3 + 0x18]\n 37120: t0 = reverse a0\n 37122: a5 = reverse a1\n 37124: a2 = reverse a2\n 37126: a3 = reverse a3\n 37128: a0 = sp + 0xffffffffffffffe0\n 37131: a1 = a0 & 0xffffffffffffffe0\n 37134: sp = a1\n 37136: u64 [s1 + 0x10] = a3\n 37139: a0 = a3 + 0x1\n 37142: a3 = a0 <u 0x1\n 37145: u64 [s1 + 0x18] = a2\n 37148: a4 = a2 + a3\n 37151: a2 = a0 | a4\n 37154: a2 = a2 <u 0x1\n 37157: a2 = a2 + a5\n 37160: u64 [s1 + 0x20] = a5\n 37163: a3 = a2 <u a5\n 37166: u64 [s1 + 0x28] = t0\n 37169: a3 = a3 + t0\n 37172: u64 [a1 + 0x8] = a4\n 37175: u64 [a1] = a0\n 37177: u64 [a1 + 0x10] = a2\n 37180: u64 [a1 + 0x18] = a3\n 37183: a0 = s1 + 0x520\n 37187: u64 [s1 + 0x58] = a1\n 37190: ra = 1514, jump @11\n      : @1449 [@dyn 757] (gas: 12)\n 37197: t0 = u64 [s1 + 0x538]\n 37201: a4 = s1 + 0x500\n 37205: a1 = u64 [a4 + 0x30]\n 37208: a2 = u64 [a4 + 0x20]\n 37211: a0 = u64 [0x200f8]\n 37216: a3 = u64 [a4 + 0x28]\n 37219: a4 = a1 | t0\n 37222: u64 [s1 + 0x60] = a0\n 37225: a5 = a2 <u a0\n 37228: a5 = 0 if a3 != 0\n 37230: a5 = 0 if a4 != 0\n 37232: jump @1526 if a5 != 0\n      : @1450 (gas: 24)\n 37236: a4 = u64 [0x20100]\n 37241: a4 = a4 + a2\n 37244: a2 = a4 <u a2\n 37247: a5 = a3 + a2\n 37250: a5 = a5 + 0xffffffffffffffff\n 37253: a0 = a5 ^ a3\n 37256: a3 = a5 <u a3\n 37259: a3 = a2 if a0 == 0\n 37262: a0 = a1 + 0xffffffffffffffff\n 37265: a3 = a3 + a0\n 37268: a0 = a3 <u a0\n 37271: a1 = a1 <u 0x1\n 37274: a1 = t0 - a1\n 37277: a0 = a0 + a1\n 37280: a1 = s1 + 0x7ff\n 37284: a1 = a1 + 0x31\n 37287: u64 [a1 + 0x30] = a4\n 37290: u64 [a1 + 0x38] = a5\n 37293: u64 [a1 + 0x40] = a3\n 37296: u64 [a1 + 0x48] = a0\n 37299: a1 = s1 + 0x7ff\n 37303: a1 = a1 + 0x61\n 37306: a0 = u64 [s1 + 0x58]\n 37309: ra = 1516, jump @12\n      : @1451 [@dyn 758] (gas: 11)\n 37316: u64 [s1 + 1304] = 0\n 37320: a0 = u64 [s1 + 0x98]\n 37324: a2 = s1 + 0x500\n 37328: u64 [a2 + 0x10] = a0\n 37331: a0 = u64 [s1 + 0xa0]\n 37335: u64 [a2 + 0x8] = a0\n 37338: a1 = s1 + 0x500\n 37342: a0 = u64 [s1 + 0xa8]\n 37346: u64 [a2] = a0\n 37348: a0 = 0\n 37350: ra = 1518, jump @9\n      : @1452 [@dyn 759] (gas: 7)\n 37357: u64 [s1 + 1272] = 0\n 37361: u64 [s1 + 1264] = 0\n 37365: u64 [s1 + 1248] = 0x6\n 37370: a0 = 0x20\n 37373: a1 = s1 + 0x4e0\n 37377: u64 [s1 + 1256] = 0\n 37381: ra = 1520, jump @9\n      : @1453 [@dyn 760] (gas: 3)\n 37388: a1 = u64 [s1 + 0xb0]\n 37392: a0 = i32 [a1]\n 37394: jump @1455 if a0 >u 63\n      : @1454 (gas: 2)\n 37398: u32 [a1 + 0] = 0x40\n 37401: fallthrough\n      : @1455 (gas: 4)\n 37402: a0 = sp + 0xffffffffffffffe0\n 37405: a0 = a0 & 0xffffffffffffffe0\n 37408: u64 [s1 + 0x58] = a0\n 37411: t0 = 1522, jump @1559\n      : @1456 [@dyn 761] (gas: 5)\n 37417: ra = 0x5f4\n 37421: ecalli 9 // 'hash_keccak_256'\n 37423: a3 = u64 [s1 + 0x58]\n 37426: t0 = 0x5f6\n 37430: jump @1588\n      : @1457 [@dyn 762] (gas: 2)\n 37433: a3 = u64 [s1 + 0x58]\n 37436: t0 = 1526, jump @1588\n      : @1458 [@dyn 763] (gas: 19)\n 37442: u64 [s1 + 0x50] = a0\n 37445: a0 = reverse a1\n 37447: u64 [s1 + 0x48] = a0\n 37450: a0 = reverse a2\n 37452: u64 [s1 + 0x40] = a0\n 37455: a0 = reverse a3\n 37457: u64 [s1 + 0x38] = a0\n 37460: a0 = sp + 0xffffffffffffffe0\n 37463: a0 = a0 & 0xffffffffffffffe0\n 37466: u64 [s1 + 0x58] = a0\n 37469: sp = a0\n 37471: u64 [s1 + 1240] = 0\n 37475: u64 [s1 + 1232] = 0\n 37479: u64 [s1 + 1224] = 0\n 37483: a1 = s1 + 0x4c0\n 37487: a0 = u64 [s1 + 0x68]\n 37490: u64 [s1 + 0x4c0] = a0\n 37494: a0 = 0\n 37496: ra = 1528, jump @9\n      : @1459 [@dyn 764] (gas: 12)\n 37503: a0 = u64 [s1 + 0x38]\n 37506: a3 = s1 + 0x400\n 37510: u64 [a3 + 0xb8] = a0\n 37514: a0 = u64 [s1 + 0x40]\n 37517: u64 [a3 + 0xb0] = a0\n 37521: a0 = u64 [s1 + 0x48]\n 37524: u64 [a3 + 0xa8] = a0\n 37528: a0 = 0x20\n 37531: a1 = s1 + 0x4a0\n 37535: a2 = u64 [s1 + 0x50]\n 37538: u64 [a3 + 0xa0] = a2\n 37542: ra = 1530, jump @9\n      : @1460 [@dyn 765] (gas: 3)\n 37549: a1 = u64 [s1 + 0xb0]\n 37553: a0 = i32 [a1]\n 37555: jump @1462 if a0 >u 63\n      : @1461 (gas: 2)\n 37559: u32 [a1 + 0] = 0x40\n 37562: fallthrough\n      : @1462 (gas: 4)\n 37563: a0 = sp + 0xffffffffffffffe0\n 37566: a0 = a0 & 0xffffffffffffffe0\n 37569: u64 [s1 + 0x50] = a0\n 37572: t0 = 1532, jump @1559\n      : @1463 [@dyn 766] (gas: 5)\n 37578: ra = 0x5fe\n 37582: ecalli 9 // 'hash_keccak_256'\n 37584: a3 = u64 [s1 + 0x50]\n 37587: t0 = 0x600\n 37591: jump @1562\n      : @1464 [@dyn 767] (gas: 2)\n 37594: a3 = u64 [s1 + 0x50]\n 37597: t0 = 1536, jump @1562\n      : @1465 [@dyn 768] (gas: 7)\n 37603: a1 = u64 [s1 + 0x58]\n 37606: u64 [a1 + 0x18] = a3\n 37609: u64 [a1 + 0x10] = a2\n 37612: u64 [a1 + 0x8] = a4\n 37615: u64 [a1] = a0\n 37617: a0 = s1 + 0x480\n 37621: ra = 1538, jump @11\n      : @1466 [@dyn 769] (gas: 6)\n 37628: a4 = s1 + 0x400\n 37632: a0 = u64 [a4 + 0x90]\n 37636: a1 = u64 [a4 + 0x80]\n 37640: a2 = u64 [a4 + 0x98]\n 37644: a3 = u64 [a4 + 0x88]\n 37648: t0 = 1540, jump @1565\n      : @1467 [@dyn 770] (gas: 1)\n 37654: jump @1486 if a0 == 0\n      : @1468 (gas: 12)\n 37658: a0 = 0xffffffff\n 37668: u64 [s1 + 0xb0] = a0\n 37672: a0 = s1 + 0x7ff\n 37676: a0 = a0 + 0x31\n 37679: u64 [a0 + 232] = 0\n 37683: u64 [a0 + 224] = 0\n 37687: u64 [a0 + 216] = 0\n 37691: u64 [a0 + 208] = 0\n 37695: a0 = s1 + 0x460\n 37699: a1 = s1 + 0x7ff\n 37703: a1 = a1 + 0x101\n 37707: ra = 1542, jump @11\n      : @1469 [@dyn 771] (gas: 11)\n 37714: a3 = s1 + 0x400\n 37718: a0 = u64 [a3 + 0x68]\n 37721: a1 = u64 [a3 + 0x70]\n 37724: a2 = u64 [a3 + 0x60]\n 37727: a0 = a0 & 0xffffffffffffffff\n 37730: a4 = u64 [s1 + 0xb0]\n 37734: a1 = a1 & a4\n 37737: a2 = a2 & 0xffffffffffffffff\n 37740: a1 = a1 | a2\n 37743: a0 = a0 | a1\n 37746: jump @1505 if a0 == 0\n      : @1470 (gas: 10)\n 37750: a0 = s1 + 0x7ff\n 37754: a0 = a0 + 0x31\n 37757: u64 [a0 + 296] = 0\n 37761: u64 [a0 + 288] = 0\n 37765: u64 [a0 + 280] = 0\n 37769: u64 [a0 + 272] = 0\n 37773: a0 = s1 + 0x440\n 37777: a1 = s1 + 0x7ff\n 37781: a1 = a1 + 0x141\n 37785: ra = 1544, jump @11\n      : @1471 [@dyn 772] (gas: 25)\n 37792: a3 = s1 + 0x400\n 37796: a0 = u64 [a3 + 0x48]\n 37799: a1 = u64 [a3 + 0x50]\n 37802: a2 = u64 [a3 + 0x40]\n 37805: a0 = reverse a0\n 37807: a3 = a0 << 0x20\n 37810: a1 = reverse a1\n 37812: a1 = a1 >> 0x20\n 37815: a4 = a1 | a3\n 37818: a0 = a0 >> 0x20\n 37821: a1 = reverse a2\n 37823: a3 = 0x30160\n 37828: a2 = a1 << 0x20\n 37831: a0 = a0 | a2\n 37834: a1 = a1 >> 0x20\n 37837: u64 [s1 + 0x58] = a1\n 37840: u32 [0x30170] = a1\n 37845: u64 [s1 + 0x50] = a0\n 37848: u64 [0x30168] = a0\n 37853: u64 [s1 + 0x78] = a4\n 37856: u64 [0x30160] = a4\n 37861: u64 [s1 + 0x80] = a3\n 37865: i32 a0 = a3 + 0\n 37867: ecalli 5 // 'code_size'\n 37869: fallthrough\n      : @1472 (gas: 1)\n 37870: jump @1527 if a0 == 0\n      : @1473 (gas: 3)\n 37874: a0 = s1 + 0x420\n 37878: a1 = 0x40\n 37881: ra = 1546, jump @7\n      : @1474 [@dyn 773] (gas: 17)\n 37888: a4 = s1 + 0x400\n 37892: a2 = u64 [a4 + 0x38]\n 37895: a3 = u64 [a4 + 0x30]\n 37898: a0 = u64 [a4 + 0x28]\n 37901: a1 = u64 [a4 + 0x20]\n 37904: u64 [s1 + 0xb0] = a0\n 37908: u64 [s1 + 0x90] = a2\n 37912: a0 = a0 | a2\n 37915: u64 [s1 + 0xb8] = a1\n 37919: a1 = a1 | a3\n 37922: a1 = a1 | a0\n 37925: a1 = a1 >> 0x20\n 37928: u64 [s1 + 0x88] = a3\n 37932: a0 = a0 | a3\n 37935: a0 = a0 << 0x20\n 37938: a0 = a0 | a1\n 37941: jump @1522 if a0 != 0\n      : @1475 (gas: 8)\n 37945: u64 [s1 + 1040] = 0\n 37949: u64 [s1 + 1032] = 0\n 37953: u64 [s1 + 1024] = 0\n 37957: a0 = 0xadc9772e00000000\n 37967: a1 = s1 + 0x400\n 37971: u64 [s1 + 0x418] = a0\n 37975: a0 = u64 [s1 + 0xb8]\n 37979: ra = 1548, jump @9\n      : @1476 [@dyn 774] (gas: 13)\n 37986: a0 = u64 [s1 + 0x90]\n 37990: a2 = u64 [s1 + 0x88]\n 37994: a2 = a2 | a0\n 37997: a0 = 0x100000000\n 38007: u64 [s1 + 0x40] = a0\n 38010: a0 = 0xfffffffc\n 38020: a1 = u64 [s1 + 0xb8]\n 38024: a0 = a1 <u a0\n 38027: a1 = u64 [s1 + 0xb0]\n 38031: a0 = 0 if a1 != 0\n 38033: u64 [s1 + 0x48] = a2\n 38036: a0 = 0 if a2 != 0\n 38038: jump @1522 if a0 == 0\n      : @1477 (gas: 12)\n 38042: a0 = u64 [s1 + 0xb8]\n 38046: i32 a0 = a0 + 0x4\n 38049: u64 [s1 + 1016] = 0\n 38053: a1 = u64 [s1 + 0xa8]\n 38057: a3 = s1 + 0x300\n 38061: u64 [a3 + 0xe0] = a1\n 38065: a1 = u64 [s1 + 0xa0]\n 38069: u64 [a3 + 0xe8] = a1\n 38073: a1 = s1 + 0x3e0\n 38077: a2 = u64 [s1 + 0x98]\n 38081: u64 [a3 + 0xf0] = a2\n 38085: ra = 1550, jump @9\n      : @1478 [@dyn 775] (gas: 9)\n 38092: a0 = u64 [s1 + 0x40]\n 38095: a0 = a0 + 0xffffffffffffffdc\n 38098: a1 = u64 [s1 + 0xb8]\n 38102: a0 = a1 <u a0\n 38105: a1 = u64 [s1 + 0xb0]\n 38109: a0 = 0 if a1 != 0\n 38111: a1 = u64 [s1 + 0x48]\n 38114: a0 = 0 if a1 != 0\n 38116: jump @1522 if a0 == 0\n      : @1479 (gas: 9)\n 38120: a0 = u64 [s1 + 0xb8]\n 38124: i32 a0 = a0 + 0x24\n 38127: u64 [s1 + 984] = 0\n 38131: u64 [s1 + 976] = 0\n 38135: u64 [s1 + 968] = 0\n 38139: a1 = s1 + 0x3c0\n 38143: a2 = u64 [s1 + 0x60]\n 38146: u64 [s1 + 0x3c0] = a2\n 38150: ra = 1552, jump @9\n      : @1480 [@dyn 776] (gas: 18)\n 38157: ecalli 11 // 'ref_time_left'\n 38159: a1 = u64 [s1 + 0x80]\n 38163: a0 = u64 [s1 + 0x50]\n 38166: u64 [a1 + 0x8] = a0\n 38169: a0 = u64 [s1 + 0x78]\n 38172: u64 [a1] = a0\n 38174: a0 = u64 [s1 + 0x58]\n 38177: u32 [a1 + 0x10] = a0\n 38180: a0 = s1 + 0x7ff\n 38184: a0 = a0 + 0x31\n 38187: u64 [a0 + 328] = 0\n 38191: u64 [a0 + 320] = 0\n 38195: u64 [a0 + 312] = 0\n 38199: a1 = u64 [s1 + 0x60]\n 38202: u64 [a0 + 0x130] = a1\n 38206: a1 = 0x44\n 38209: a0 = u64 [s1 + 0xb8]\n 38213: ra = 1554, jump @20\n      : @1481 [@dyn 777] (gas: 4)\n 38220: u64 [s1 + 0x78] = a0\n 38223: a0 = u64 [s1 + 0xb8]\n 38227: a1 = 0\n 38229: ra = 1556, jump @20\n      : @1482 [@dyn 778] (gas: 37)\n 38236: a2 = s1 + 0x7ff\n 38240: a2 = a2 + 0x31\n 38243: u32 [a2 + 336] = 0\n 38247: a3 = a2 + 0x100\n 38251: u64 [a3 + 136] = 0xffffffffffffffff\n 38256: u64 [a3 + 128] = 0xffffffffffffffff\n 38261: u64 [a3 + 120] = 0xffffffffffffffff\n 38265: u64 [a3 + 112] = 0xffffffffffffffff\n 38269: a1 = u64 [s1 + 0x80]\n 38273: a1 = a1 << 0x20\n 38276: a1 = a1 >> 0x20\n 38279: a2 = 0x800000000\n 38289: t0 = a1 | a2\n 38292: a1 = s1 + 0x7ff\n 38296: a1 = a1 + 0x161\n 38300: a1 = a1 << 0x20\n 38303: a1 = a1 >> 0x20\n 38306: a2 = s1 + 0x7ff\n 38310: a2 = a2 + 0x1a1\n 38314: a2 = a2 << 0x20\n 38317: a3 = a2 | a1\n 38320: a1 = u64 [s1 + 0x78]\n 38323: a1 = a1 << 0x20\n 38326: a1 = a1 >> 0x20\n 38329: a2 = 0x4400000000\n 38339: a4 = a1 | a2\n 38342: a0 = a0 << 0x20\n 38345: a0 = a0 >> 0x20\n 38348: a1 = s1 + 0x7ff\n 38352: a1 = a1 + 0x181\n 38356: a1 = a1 << 0x20\n 38359: a5 = a1 | a0\n 38362: a1 = 0xffffffffffffffff\n 38365: a2 = 0xffffffffffffffff\n 38368: a0 = t0\n 38370: ecalli 0 // 'call'\n 38371: fallthrough\n      : @1483 (gas: 1)\n 38372: jump @1513 if a0 != 0\n      : @1484 (gas: 16)\n 38376: u64 [s1 + 888] = 0\n 38380: u64 [s1 + 880] = 0\n 38384: u64 [s1 + 872] = 0\n 38388: u64 [s1 + 864] = 0\n 38392: a0 = u64 [s1 + 0xb8]\n 38396: a3 = s1 + 0x300\n 38400: u64 [a3 + 0x80] = a0\n 38404: a0 = u64 [s1 + 0xb0]\n 38408: u64 [a3 + 0x88] = a0\n 38412: a0 = u64 [s1 + 0x88]\n 38416: u64 [a3 + 0x90] = a0\n 38420: a0 = s1 + 0x380\n 38424: a1 = s1 + 0x360\n 38428: a2 = u64 [s1 + 0x90]\n 38432: u64 [a3 + 0x98] = a2\n 38436: ra = 1558, jump @1267\n      : @1485 [@dyn 779] (gas: 1)\n 38442: jump @1507\n      : @1486 (gas: 1)\n 38445: ra = 1560, jump @0\n      : @1487 [@dyn 780] (gas: 63)\n 38452: a1 = u64 [0x30180]\n 38457: u64 [s1 + 0x90] = a1\n 38461: a1 = u64 [0x30190]\n 38466: u64 [s1 + 0x88] = a1\n 38470: a0 = u64 [0x30188]\n 38475: u64 [s1 + 0x80] = a0\n 38479: ecalli 11 // 'ref_time_left'\n 38481: a1 = u64 [s1 + 0x80]\n 38485: a1 = reverse a1\n 38487: a2 = a1 << 0x20\n 38490: a3 = u64 [s1 + 0x88]\n 38494: a3 = reverse a3\n 38496: a3 = a3 >> 0x20\n 38499: a2 = a2 | a3\n 38502: a3 = a1 >> 0x20\n 38505: a1 = u64 [s1 + 0x90]\n 38509: a4 = reverse a1\n 38511: a1 = 0x30160\n 38516: a5 = a4 << 0x20\n 38519: a3 = a3 | a5\n 38522: a4 = a4 >> 0x20\n 38525: u32 [0x30170] = a4\n 38530: u64 [0x30168] = a3\n 38535: u64 [0x30160] = a2\n 38540: a3 = s1 + 0x7ff\n 38544: a3 = a3 + 0x31\n 38547: u64 [a3 + 104] = 0\n 38550: u64 [a3 + 96] = 0\n 38553: u64 [a3 + 88] = 0\n 38556: a2 = u64 [s1 + 0x60]\n 38559: u64 [a3 + 0x50] = a2\n 38562: u32 [a3 + 112] = 0\n 38565: a0 = a0 >u 0x8fc\n 38569: a2 = -a0\n 38571: u64 [a3 + 0xa8] = a2\n 38575: u64 [a3 + 0xa0] = a2\n 38579: u64 [a3 + 0x98] = a2\n 38583: u64 [a3 + 0x90] = a2\n 38587: a1 = a1 << 0x20\n 38590: a1 = a1 >> 0x20\n 38593: a0 = a0 << 0x23\n 38596: a0 = a0 | a1\n 38599: a1 = s1 + 0x7ff\n 38603: a1 = a1 + 0x81\n 38607: a1 = a1 << 0x20\n 38610: a1 = a1 >> 0x20\n 38613: a2 = s1 + 0x7ff\n 38617: a2 = a2 + 0xc1\n 38621: a2 = a2 << 0x20\n 38624: a3 = a2 | a1\n 38627: a4 = u64 [s1 + 0x30]\n 38630: a4 = a4 << 0x20\n 38633: a4 = a4 >> 0x20\n 38636: a1 = s1 + 0x7ff\n 38640: a1 = a1 + 0xa1\n 38644: a1 = a1 << 0x20\n 38647: a5 = a1 | a4\n 38650: a1 = 0xffffffffffffffff\n 38653: a2 = 0xffffffffffffffff\n 38656: ecalli 0 // 'call'\n 38657: u64 [s1 + 0x90] = a0\n 38661: ecalli 13 // 'return_data_size'\n 38663: fallthrough\n      : @1488 (gas: 1)\n 38664: jump @1499 if a0 == 0\n      : @1489 (gas: 5)\n 38668: ecalli 13 // 'return_data_size'\n 38670: u64 [s1 + 0x58] = a0\n 38673: a0 = s1 + 0x260\n 38677: a1 = 0x40\n 38680: ra = 1562, jump @7\n      : @1490 [@dyn 781] (gas: 29)\n 38687: a5 = u64 [s1 + 0x278]\n 38691: u64 [s1 + 0x78] = a5\n 38694: t0 = u64 [s1 + 0x270]\n 38698: u64 [s1 + 0x50] = t0\n 38701: t1 = u64 [s1 + 0x268]\n 38705: u64 [s1 + 0x80] = t1\n 38709: t2 = u64 [s1 + 0x260]\n 38713: u64 [s1 + 0x88] = t2\n 38717: a1 = u64 [s1 + 0x58]\n 38720: a0 = a1 + 0x1f\n 38723: a1 = a0 <u a1\n 38726: a0 = a0 & 0xffffffffffffffe0\n 38729: a2 = a0 + 0x20\n 38732: a0 = a2 <u a0\n 38735: a3 = a1 + a0\n 38738: a4 = a3 <u a1\n 38741: a4 = a0 if a0 == 0\n 38744: u64 [s1 + 568] = 0\n 38748: u64 [s1 + 0x220] = a2\n 38752: a2 = s1 + 0x200\n 38756: u64 [a2 + 0x58] = a5\n 38759: u64 [s1 + 0x250] = t0\n 38763: u64 [s1 + 0x248] = t1\n 38767: u64 [s1 + 0x240] = t2\n 38771: u64 [a2 + 0x28] = a3\n 38774: a0 = s1 + 0x240\n 38778: a1 = s1 + 0x220\n 38782: u64 [a2 + 0x30] = a4\n 38785: ra = 1564, jump @1267\n      : @1491 [@dyn 782] (gas: 12)\n 38791: a0 = u64 [s1 + 0x88]\n 38795: a1 = u64 [s1 + 0x78]\n 38798: a2 = u64 [s1 + 0x80]\n 38802: a2 = a2 | a1\n 38805: a3 = u64 [s1 + 0x50]\n 38808: a1 = a0 | a3\n 38811: a1 = a1 | a2\n 38814: a1 = a1 >> 0x20\n 38817: a2 = a2 | a3\n 38820: a2 = a2 << 0x20\n 38823: a1 = a1 | a2\n 38826: jump @1522 if a1 != 0\n      : @1492 (gas: 7)\n 38830: u64 [s1 + 536] = 0\n 38834: u64 [s1 + 528] = 0\n 38838: u64 [s1 + 520] = 0\n 38842: a1 = s1 + 0x200\n 38846: a2 = u64 [s1 + 0x58]\n 38849: u64 [s1 + 0x200] = a2\n 38853: ra = 1566, jump @9\n      : @1493 [@dyn 783] (gas: 2)\n 38860: ecalli 13 // 'return_data_size'\n 38862: fallthrough\n      : @1494 (gas: 10)\n 38863: a3 = u64 [s1 + 0x88]\n 38867: a1 = u64 [s1 + 0x78]\n 38870: a2 = u64 [s1 + 0x50]\n 38873: a1 = a1 | a2\n 38876: a2 = 0xffffffe0\n 38886: a2 = a3 <u a2\n 38889: a4 = u64 [s1 + 0x80]\n 38893: a2 = 0 if a4 != 0\n 38895: a2 = 0 if a1 != 0\n 38897: jump @1522 if a2 == 0\n      : @1495 (gas: 3)\n 38901: a1 = a0\n 38903: a0 = a0 >> 0x20\n 38906: jump @1522 if a0 != 0\n      : @1496 (gas: 7)\n 38910: i32 a0 = a3 + 0x20\n 38913: a2 = a1\n 38915: u64 [s1 + 0x80] = a1\n 38919: i32 a1 = a1 + 0\n 38921: u64 [s1 + 0x88] = a1\n 38925: a1 = a2\n 38927: ra = 1568, jump @20\n      : @1497 [@dyn 784] (gas: 10)\n 38934: a1 = s1 + 0x7ff\n 38938: a1 = a1 + 0x31\n 38941: a2 = u64 [s1 + 0x80]\n 38945: u32 [a1 + 0xb0] = a2\n 38949: i32 a0 = a0 + 0\n 38951: a1 = s1 + 0x1000\n 38955: i32 a1 = a1 + 0xfffffffffffff8e0\n 38959: a2 = 0\n 38961: ecalli 12 // 'return_data_copy'\n 38963: fallthrough\n      : @1498 (gas: 5)\n 38964: a0 = s1 + 0x7ff\n 38968: a0 = a0 + 0x31\n 38971: a0 = i32 [a0 + 0xb0]\n 38975: a1 = u64 [s1 + 0x88]\n 38979: jump @1522 if a0 <u a1\n      : @1499 (gas: 2)\n 38983: a0 = u64 [s1 + 0x90]\n 38987: jump @1528 if a0 != 0\n      : @1500 (gas: 3)\n 38991: a0 = s1 + 0x1c0\n 38995: a1 = 0x40\n 38998: ra = 1570, jump @7\n      : @1501 [@dyn 785] (gas: 6)\n 39005: a4 = s1 + 0x100\n 39009: a0 = u64 [a4 + 0xd8]\n 39013: a1 = u64 [a4 + 0xd0]\n 39017: a2 = u64 [a4 + 0xc8]\n 39021: a3 = u64 [a4 + 0xc0]\n 39025: t0 = 1572, jump @1553\n      : @1502 [@dyn 786] (gas: 1)\n 39031: jump @1522 if a0 != 0\n      : @1503 (gas: 9)\n 39035: u64 [s1 + 440] = 0\n 39039: u64 [s1 + 432] = 0\n 39043: u64 [s1 + 424] = 0\n 39047: a1 = s1 + 0x1a0\n 39051: a0 = u64 [s1 + 0x60]\n 39054: u64 [s1 + 0x1a0] = a0\n 39058: a0 = a3\n 39060: u64 [s1 + 0xb8] = a3\n 39064: ra = 1574, jump @9\n      : @1504 [@dyn 787] (gas: 33)\n 39071: u64 [s1 + 312] = 0\n 39075: u64 [s1 + 304] = 0\n 39079: u64 [s1 + 296] = 0\n 39083: a0 = u64 [s1 + 0x68]\n 39086: u64 [s1 + 0x120] = a0\n 39090: u64 [s1 + 344] = 0\n 39094: u64 [s1 + 336] = 0\n 39098: u64 [s1 + 328] = 0\n 39102: a0 = u64 [s1 + 0x70]\n 39105: u64 [s1 + 0x140] = a0\n 39109: u64 [s1 + 376] = 0\n 39113: a0 = u64 [s1 + 0x98]\n 39117: u64 [s1 + 0x170] = a0\n 39121: a0 = u64 [s1 + 0xa0]\n 39125: u64 [s1 + 0x168] = a0\n 39129: a0 = u64 [0x20128]\n 39134: a1 = u64 [0x20130]\n 39139: a2 = u64 [0x20138]\n 39144: a3 = u64 [s1 + 0xa8]\n 39148: u64 [s1 + 0x160] = a3\n 39152: u64 [s1 + 0x198] = a0\n 39156: u64 [s1 + 0x190] = a1\n 39160: u64 [s1 + 0x188] = a2\n 39164: a0 = u64 [0x20140]\n 39169: a1 = 0x20\n 39172: a2 = s1 + 0x180\n 39176: a3 = s1 + 0x160\n 39180: a4 = s1 + 0x140\n 39184: a5 = s1 + 0x120\n 39188: u64 [s1 + 0x180] = a0\n 39192: a0 = u64 [s1 + 0xb8]\n 39196: ra = 0x632\n 39200: jump @17\n      : @1505 (gas: 23)\n 39204: a0 = sp + 0xffffffffffffffe0\n 39207: a5 = a0 & 0xffffffffffffffe0\n 39210: sp = a5\n 39212: a1 = u64 [s1 + 0x10]\n 39215: a0 = a1 + 0x2\n 39218: a1 = a0 <u a1\n 39221: a3 = u64 [s1 + 0x18]\n 39224: a2 = a3 + a1\n 39227: a3 = a2 <u a3\n 39230: a3 = a1 if a1 == 0\n 39233: a1 = u64 [s1 + 0x20]\n 39236: a3 = a3 + a1\n 39239: a1 = a3 <u a1\n 39242: a4 = u64 [s1 + 0x28]\n 39245: a4 = a4 + a1\n 39248: a1 = a5\n 39250: u64 [s1 + 0xb8] = a5\n 39254: u64 [a5 + 0x8] = a2\n 39257: u64 [a5] = a0\n 39259: u64 [a5 + 0x10] = a3\n 39262: u64 [a5 + 0x18] = a4\n 39265: a0 = s1 + 0x340\n 39269: ra = 1576, jump @11\n      : @1506 [@dyn 788] (gas: 24)\n 39276: a4 = s1 + 0x300\n 39280: a0 = u64 [a4 + 0x40]\n 39283: a1 = u64 [a4 + 0x58]\n 39286: a2 = u64 [a4 + 0x48]\n 39289: a3 = u64 [a4 + 0x50]\n 39292: a4 = u64 [s1 + 0x60]\n 39295: a4 = a4 + a0\n 39298: a0 = a4 <u a0\n 39301: a5 = a2 + a0\n 39304: a2 = a5 <u a2\n 39307: a2 = a0 if a0 == 0\n 39310: a2 = a2 + a3\n 39313: a0 = a2 <u a3\n 39316: a0 = a0 + a1\n 39319: a1 = s1 + 0x7ff\n 39323: a1 = a1 + 0x31\n 39326: u64 [a1 + 0xf0] = a4\n 39330: u64 [a1 + 0xf8] = a5\n 39334: u64 [a1 + 0x100] = a2\n 39338: u64 [a1 + 0x108] = a0\n 39342: a1 = s1 + 0x7ff\n 39346: a1 = a1 + 0x121\n 39350: a0 = u64 [s1 + 0xb8]\n 39354: ra = 1578, jump @12\n      : @1507 [@dyn 789] (gas: 3)\n 39361: a0 = s1 + 0x320\n 39365: a1 = 0x40\n 39368: ra = 1580, jump @7\n      : @1508 [@dyn 790] (gas: 6)\n 39375: a4 = s1 + 0x300\n 39379: a0 = u64 [a4 + 0x38]\n 39382: a1 = u64 [a4 + 0x30]\n 39385: a2 = u64 [a4 + 0x28]\n 39388: a3 = u64 [a4 + 0x20]\n 39391: t0 = 1582, jump @1553\n      : @1509 [@dyn 791] (gas: 1)\n 39397: jump @1522 if a0 != 0\n      : @1510 (gas: 9)\n 39401: u64 [s1 + 792] = 0\n 39405: u64 [s1 + 784] = 0\n 39409: u64 [s1 + 776] = 0\n 39413: a1 = s1 + 0x300\n 39417: a0 = u64 [s1 + 0x60]\n 39420: u64 [s1 + 0x300] = a0\n 39424: a0 = a3\n 39426: u64 [s1 + 0xb8] = a3\n 39430: ra = 1584, jump @9\n      : @1511 [@dyn 792] (gas: 32)\n 39437: u64 [s1 + 664] = 0\n 39441: u64 [s1 + 656] = 0\n 39445: u64 [s1 + 648] = 0\n 39449: a0 = u64 [s1 + 0x68]\n 39452: u64 [s1 + 0x280] = a0\n 39456: u64 [s1 + 696] = 0\n 39460: u64 [s1 + 688] = 0\n 39464: u64 [s1 + 680] = 0\n 39468: a0 = u64 [s1 + 0x70]\n 39471: u64 [s1 + 0x2a0] = a0\n 39475: u64 [s1 + 728] = 0\n 39479: a0 = u64 [s1 + 0x98]\n 39483: u64 [s1 + 0x2d0] = a0\n 39487: a0 = u64 [s1 + 0xa0]\n 39491: u64 [s1 + 0x2c8] = a0\n 39495: a0 = u64 [0x20108]\n 39500: a1 = u64 [0x20110]\n 39505: a2 = u64 [0x20118]\n 39510: a3 = u64 [s1 + 0xa8]\n 39514: u64 [s1 + 0x2c0] = a3\n 39518: u64 [s1 + 0x2f8] = a0\n 39522: u64 [s1 + 0x2f0] = a1\n 39526: u64 [s1 + 0x2e8] = a2\n 39530: a0 = u64 [0x20120]\n 39535: a1 = 0x20\n 39538: a2 = s1 + 0x2e0\n 39542: a3 = s1 + 0x2c0\n 39546: a4 = s1 + 0x2a0\n 39550: a5 = s1 + 0x280\n 39554: u64 [s1 + 0x2e0] = a0\n 39558: a0 = u64 [s1 + 0xb8]\n 39562: ra = 1586, jump @17\n      : @1512 [@dyn 793] (gas: 9)\n 39569: sp = s0 + 0xfffffffffffff800\n 39573: sp = sp + 0xfffffffffffffe00\n 39577: sp = sp + 0x208\n 39581: a0 = sp + 0x700\n 39585: ra = u64 [a0 + 0xf0]\n 39589: s0 = u64 [a0 + 0xe8]\n 39593: s1 = u64 [a0 + 0xe0]\n 39597: sp = sp + 0x7f8\n 39601: ret\n      : @1513 (gas: 3)\n 39603: a0 = s1 + 0x3a0\n 39607: a1 = 0x40\n 39610: ra = 1588, jump @7\n      : @1514 [@dyn 794] (gas: 11)\n 39617: a1 = s1 + 0x300\n 39621: a0 = u64 [a1 + 0xb8]\n 39625: u64 [s1 + 0xb0] = a0\n 39629: a0 = u64 [a1 + 0xb0]\n 39633: u64 [s1 + 0xa8] = a0\n 39637: a0 = u64 [a1 + 0xa8]\n 39641: u64 [s1 + 0xa0] = a0\n 39645: a0 = u64 [a1 + 0xa0]\n 39649: u64 [s1 + 0xb8] = a0\n 39653: ecalli 13 // 'return_data_size'\n 39655: fallthrough\n      : @1515 (gas: 12)\n 39656: a1 = u64 [s1 + 0xb0]\n 39660: a2 = u64 [s1 + 0xa0]\n 39664: a1 = a1 | a2\n 39667: a3 = u64 [s1 + 0xa8]\n 39671: a2 = u64 [s1 + 0xb8]\n 39675: a2 = a2 | a3\n 39678: a2 = a2 | a1\n 39681: a2 = a2 >> 0x20\n 39684: a1 = a1 | a3\n 39687: a1 = a1 << 0x20\n 39690: a1 = a1 | a2\n 39693: jump @1522 if a1 != 0\n      : @1516 (gas: 2)\n 39696: a1 = a0 >> 0x20\n 39699: jump @1522 if a1 != 0\n      : @1517 (gas: 6)\n 39702: a1 = a0\n 39704: u64 [s1 + 0xa8] = a0\n 39708: i32 a0 = a0 + 0\n 39710: u64 [s1 + 0xb0] = a0\n 39714: a0 = u64 [s1 + 0xb8]\n 39718: ra = 1590, jump @20\n      : @1518 [@dyn 795] (gas: 10)\n 39725: a1 = s1 + 0x7ff\n 39729: a1 = a1 + 0x31\n 39732: a2 = u64 [s1 + 0xa8]\n 39736: u32 [a1 + 0x190] = a2\n 39740: i32 a0 = a0 + 0\n 39742: a1 = s1 + 0x1000\n 39746: i32 a1 = a1 + 0xfffffffffffff9c0\n 39750: a2 = 0\n 39752: ecalli 12 // 'return_data_copy'\n 39754: fallthrough\n      : @1519 (gas: 5)\n 39755: a0 = s1 + 0x7ff\n 39759: a0 = a0 + 0x31\n 39762: a0 = i32 [a0 + 0x190]\n 39766: a1 = u64 [s1 + 0xb0]\n 39770: jump @1522 if a0 <u a1\n      : @1520 (gas: 2)\n 39773: ecalli 13 // 'return_data_size'\n 39775: fallthrough\n      : @1521 (gas: 3)\n 39776: a1 = a0\n 39778: a0 = a0 >> 0x20\n 39781: jump @1532 if a0 == 0\n      : @1522 (gas: 1)\n 39785: trap\n      : @1523 (gas: 9)\n 39786: u64 [s1 + 208] = 0\n 39790: u64 [s1 + 200] = 0\n 39794: u64 [s1 + 192] = 0\n 39798: a0 = 0xa7a9536d00000000\n 39808: a1 = s1 + 0xc0\n 39812: u64 [s1 + 0xd8] = a0\n 39816: a0 = 0\n 39818: ra = 0x638\n 39822: jump @9\n      : @1524 (gas: 9)\n 39826: u64 [s1 + 240] = 0\n 39830: u64 [s1 + 232] = 0\n 39834: u64 [s1 + 224] = 0\n 39838: a0 = 0xafa4e2b600000000\n 39848: a1 = s1 + 0xe0\n 39852: u64 [s1 + 0xf8] = a0\n 39856: a0 = 0\n 39858: ra = 0x638\n 39862: jump @9\n      : @1525 (gas: 9)\n 39866: u64 [s1 + 1584] = 0\n 39870: u64 [s1 + 1576] = 0\n 39874: u64 [s1 + 1568] = 0\n 39878: a0 = 0x560ff90000000000\n 39888: a1 = s1 + 0x620\n 39892: u64 [s1 + 0x638] = a0\n 39896: a0 = 0\n 39898: ra = 0x638\n 39902: jump @9\n      : @1526 (gas: 9)\n 39906: u64 [s1 + 272] = 0\n 39910: u64 [s1 + 264] = 0\n 39914: u64 [s1 + 256] = 0\n 39918: a0 = 0xf4d678b800000000\n 39928: a1 = s1 + 0x100\n 39932: u64 [s1 + 0x118] = a0\n 39936: a0 = 0\n 39938: ra = 0x638\n 39942: jump @9\n      : @1527 (gas: 5)\n 39946: a0 = 0x1\n 39949: a1 = u64 [s1 + 0xb8]\n 39953: a2 = 0\n 39955: ecalli 14 // 'seal_return'\n 39957: fallthrough\n      : @1528 (gas: 8)\n 39958: u64 [s1 + 496] = 0\n 39962: u64 [s1 + 488] = 0\n 39966: u64 [s1 + 480] = 0\n 39970: a0 = 0x90b8ec1800000000\n 39980: a1 = s1 + 0x1e0\n 39984: u64 [s1 + 0x1f8] = a0\n 39988: a0 = 0\n 39990: ra = 1592, jump @9\n      : @1529 [@dyn 796] (gas: 3)\n 39997: a0 = u64 [s1 + 0xb0]\n 40001: a0 = i32 [a0]\n 40003: jump @1531 if a0 >u 31\n      : @1530 (gas: 3)\n 40007: a1 = u64 [s1 + 0xb0]\n 40011: u32 [a1 + 0] = 0x20\n 40014: fallthrough\n      : @1531 (gas: 5)\n 40015: a0 = 0x1\n 40018: a2 = 0x4\n 40021: a1 = u64 [s1 + 0xb8]\n 40025: ecalli 14 // 'seal_return'\n 40027: fallthrough\n      : @1532 (gas: 3)\n 40028: a0 = u64 [s1 + 0xb8]\n 40032: u64 [s1 + 0xb0] = a1\n 40036: ra = 1594, jump @20\n      : @1533 [@dyn 797] (gas: 7)\n 40043: i32 a1 = a0 + 0\n 40045: a2 = i32 [s1 + 0xb0]\n 40049: a0 = 0x1\n 40052: ecalli 14 // 'seal_return'\n 40054: a0 = 0\n 40056: ra = 0x63c\n 40060: jump @26\n      : @1534 [export #0: 'call'] (gas: 2)\n 40064: a0 = 0\n 40066: ra = 1596, jump @26\n      : @1535 [@dyn 798] [export #1: 'deploy'] (gas: 2)\n 40073: a0 = 0x1\n 40076: ra = 1598, jump @26\n      : @1536 [@dyn 799] (gas: 15)\n 40083: a0 = u64 [a2 + 0x8]\n 40086: a1 = i32 [a2 + 0x10]\n 40089: a2 = u64 [a2]\n 40091: a0 = reverse a0\n 40093: a3 = a0 << 0x20\n 40096: a1 = reverse a1\n 40098: a1 = a1 >> 0x20\n 40101: a3 = a3 | a1\n 40104: a0 = a0 >> 0x20\n 40107: a1 = reverse a2\n 40109: a2 = a1 << 0x20\n 40112: a0 = a0 | a2\n 40115: a1 = a1 >> 0x20\n 40118: a2 = s1 + 0x1078\n 40122: jump [t0]\n      : @1537 (gas: 16)\n 40124: a0 = u64 [a2 + 0x8]\n 40127: a1 = i32 [a2 + 0x10]\n 40130: a2 = u64 [a2]\n 40132: a0 = reverse a0\n 40134: a3 = a0 << 0x20\n 40137: a1 = reverse a1\n 40139: a1 = a1 >> 0x20\n 40142: a3 = a3 | a1\n 40145: a0 = a0 >> 0x20\n 40148: a1 = reverse a2\n 40150: a2 = a1 << 0x20\n 40153: a0 = a0 | a2\n 40156: a1 = a1 >> 0x20\n 40159: a2 = s1 + 0x7ff\n 40163: a2 = a2 + 0x79\n 40166: jump [t0]\n      : @1538 (gas: 20)\n 40168: a3 = u64 [s1 + 0xa8]\n 40172: a0 = u64 [a3 + 0x18]\n 40175: a1 = u64 [a3 + 0x10]\n 40178: a2 = u64 [a3 + 0x8]\n 40181: a3 = u64 [a3]\n 40183: a0 = reverse a0\n 40185: u64 [s1 + 0xa0] = a0\n 40189: a0 = reverse a1\n 40191: u64 [s1 + 0x98] = a0\n 40195: a0 = reverse a2\n 40197: u64 [s1 + 0x90] = a0\n 40201: a0 = reverse a3\n 40203: u64 [s1 + 0x88] = a0\n 40207: a0 = sp + 0xffffffffffffffe0\n 40210: a0 = a0 & 0xffffffffffffffe0\n 40213: u64 [s1 + 0xa8] = a0\n 40217: sp = a0\n 40219: a0 = 0x1078\n 40223: a2 = s1 + a0\n 40226: jump [t0]\n      : @1539 (gas: 17)\n 40228: a0 = u64 [a3]\n 40230: a1 = u64 [a3 + 0x8]\n 40233: a2 = u64 [a3 + 0x10]\n 40236: a3 = u64 [a3 + 0x18]\n 40239: a0 = reverse a0\n 40241: a1 = reverse a1\n 40243: a2 = reverse a2\n 40245: a3 = reverse a3\n 40247: a3 = a3 + 0x1\n 40250: a4 = a3 <u 0x1\n 40253: a2 = a2 + a4\n 40256: a4 = a3 | a2\n 40259: a4 = a4 <u 0x1\n 40262: a4 = a4 + a1\n 40265: a1 = a4 <u a1\n 40268: a0 = a0 + a1\n 40271: jump [t0]\n      : @1540 (gas: 16)\n 40273: a2 = u64 [s1 + 0x80]\n 40277: a0 = u64 [a2 + 0x8]\n 40280: a1 = i32 [a2 + 0x10]\n 40283: a2 = u64 [a2]\n 40285: a0 = reverse a0\n 40287: a3 = a0 << 0x20\n 40290: a1 = reverse a1\n 40292: a1 = a1 >> 0x20\n 40295: a3 = a3 | a1\n 40298: a0 = a0 >> 0x20\n 40301: a1 = reverse a2\n 40303: a2 = a1 << 0x20\n 40306: a0 = a0 | a2\n 40309: a1 = a1 >> 0x20\n 40312: a2 = s1 + 0x2078\n 40316: jump [t0]\n      : @1541 (gas: 18)\n 40318: a3 = u64 [s1 + 0xe0]\n 40322: a0 = u64 [a3 + 0x18]\n 40325: a1 = u64 [a3 + 0x10]\n 40328: a2 = u64 [a3 + 0x8]\n 40331: a3 = u64 [a3]\n 40333: a0 = reverse a0\n 40335: u64 [s1 + 0xd8] = a0\n 40339: a0 = reverse a1\n 40341: u64 [s1 + 0xd0] = a0\n 40345: a0 = reverse a2\n 40347: u64 [s1 + 0xc8] = a0\n 40351: a0 = reverse a3\n 40353: u64 [s1 + 0xc0] = a0\n 40357: a0 = sp + 0xffffffffffffffe0\n 40360: a0 = a0 & 0xffffffffffffffe0\n 40363: u64 [s1 + 0xe0] = a0\n 40367: sp = a0\n 40369: jump [t0]\n      : @1542 (gas: 15)\n 40371: a0 = u64 [a2 + 0x8]\n 40374: a1 = i32 [a2 + 0x10]\n 40377: a2 = u64 [a2]\n 40379: a0 = reverse a0\n 40381: a3 = a0 << 0x20\n 40384: a1 = reverse a1\n 40386: a1 = a1 >> 0x20\n 40389: a3 = a3 | a1\n 40392: a0 = a0 >> 0x20\n 40395: a1 = reverse a2\n 40397: a2 = a1 << 0x20\n 40400: a0 = a0 | a2\n 40403: a1 = a1 >> 0x20\n 40406: a2 = s1 + 0x1878\n 40410: jump [t0]\n      : @1543 (gas: 26)\n 40412: u64 [s1 + 0xc8] = a0\n 40416: a0 = ra - a3\n 40419: a0 = a0 <u a5\n 40422: a1 = ra <u a3\n 40425: a5 = u64 [s1 + 0x98]\n 40429: a4 = ra - a5\n 40432: a4 = a4 - a1\n 40435: a4 = a4 - a0\n 40438: ra = a4 >>a 0x3f\n 40441: a0 = u64 [s1 + 0x90]\n 40445: a0 = ra & a0\n 40448: a1 = u64 [s1 + 0xa0]\n 40452: t2 = a1 - a0\n 40455: a1 = a1 <u a0\n 40458: t1 = a2 - a1\n 40461: a1 = 0 if a2 != 0\n 40463: a0 = a3 - a1\n 40466: u64 [s1 + 0xa8] = a0\n 40470: a1 = a3 <u a1\n 40473: a1 = a5 - a1\n 40476: a3 = u64 [s1 + 0xf8]\n 40480: a5 = u64 [s1 + 0xf0]\n 40484: a2 = a3 | a5\n 40487: a2 = a2 <u 0x1\n 40490: a4 = u64 [s1 + 0xe0]\n 40494: jump [t0]\n      : @1544 (gas: 18)\n 40496: a3 = u64 [s1 + 0x60]\n 40499: a0 = u64 [a3 + 0x18]\n 40502: a1 = u64 [a3 + 0x10]\n 40505: a2 = u64 [a3 + 0x8]\n 40508: a3 = u64 [a3]\n 40510: a0 = reverse a0\n 40512: u64 [s1 + 0x58] = a0\n 40515: a0 = reverse a1\n 40517: u64 [s1 + 0x50] = a0\n 40520: a0 = reverse a2\n 40522: u64 [s1 + 0x48] = a0\n 40525: a0 = reverse a3\n 40527: u64 [s1 + 0x40] = a0\n 40530: a0 = sp + 0xffffffffffffffe0\n 40533: a0 = a0 & 0xffffffffffffffe0\n 40536: u64 [s1 + 0x60] = a0\n 40539: sp = a0\n 40541: jump [t0]\n      : @1545 (gas: 14)\n 40543: a0 = u64 [a2 + 0x8]\n 40546: a1 = i32 [a2 + 0x10]\n 40549: a2 = u64 [a2]\n 40551: a3 = reverse a0\n 40553: a0 = a3 << 0x20\n 40556: a1 = reverse a1\n 40558: a1 = a1 >> 0x20\n 40561: a0 = a0 | a1\n 40564: a3 = a3 >> 0x20\n 40567: a2 = reverse a2\n 40569: a1 = a2 << 0x20\n 40572: a1 = a1 | a3\n 40575: a2 = a2 >> 0x20\n 40578: jump [t0]\n      : @1546 (gas: 14)\n 40580: a0 = u64 [a2 + 0x8]\n 40583: a1 = i32 [a2 + 0x10]\n 40586: a2 = u64 [a2]\n 40588: a0 = reverse a0\n 40590: a3 = a0 << 0x20\n 40593: a1 = reverse a1\n 40595: a1 = a1 >> 0x20\n 40598: a3 = a3 | a1\n 40601: a0 = a0 >> 0x20\n 40604: a1 = reverse a2\n 40606: a2 = a1 << 0x20\n 40609: a0 = a0 | a2\n 40612: a1 = a1 >> 0x20\n 40615: jump [t0]\n      : @1547 (gas: 15)\n 40617: a3 = u64 [s1 + 0x58]\n 40620: a0 = u64 [a3 + 0x18]\n 40623: a1 = u64 [a3 + 0x10]\n 40626: a2 = u64 [a3 + 0x8]\n 40629: a3 = u64 [a3]\n 40631: a0 = reverse a0\n 40633: a4 = reverse a1\n 40635: a2 = reverse a2\n 40637: a3 = reverse a3\n 40639: a1 = u64 [s1 + 0x60]\n 40642: u64 [a1 + 0x18] = a3\n 40645: u64 [a1 + 0x10] = a2\n 40648: u64 [a1 + 0x8] = a4\n 40651: u64 [a1] = a0\n 40653: jump [t0]\n      : @1548 (gas: 15)\n 40655: a3 = u64 [s1 + 0xf8]\n 40659: a0 = u64 [a3 + 0x18]\n 40662: a1 = u64 [a3 + 0x10]\n 40665: a2 = u64 [a3 + 0x8]\n 40668: a3 = u64 [a3]\n 40670: a0 = reverse a0\n 40672: a4 = reverse a1\n 40674: a2 = reverse a2\n 40676: a3 = reverse a3\n 40678: a1 = u64 [s1 + 0xe0]\n 40682: u64 [a1 + 0x18] = a3\n 40685: u64 [a1 + 0x10] = a2\n 40688: u64 [a1 + 0x8] = a4\n 40691: u64 [a1] = a0\n 40693: jump [t0]\n      : @1549 (gas: 15)\n 40695: a0 = u64 [a3 + 0x18]\n 40698: a1 = u64 [a3 + 0x10]\n 40701: a2 = u64 [a3 + 0x8]\n 40704: a3 = u64 [a3]\n 40706: a0 = reverse a0\n 40708: a4 = reverse a1\n 40710: a2 = reverse a2\n 40712: a3 = reverse a3\n 40714: a1 = u64 [s1 + 0xa8]\n 40718: u64 [a1 + 0x18] = a3\n 40721: u64 [a1 + 0x10] = a2\n 40724: u64 [a1 + 0x8] = a4\n 40727: u64 [a1] = a0\n 40729: a0 = 0x1000\n 40733: jump [t0]\n      : @1550 (gas: 24)\n 40735: a0 = a1 if a2 == 0\n 40738: a2 = u64 [s1 + 0xb0]\n 40742: a3 = a2\n 40744: a1 = a2\n 40746: a2 = u64 [s1 + 0xc0]\n 40750: a3 = a0 if a2 != 0\n 40753: u64 [s1 + 0xc8] = a3\n 40757: a0 = u64 [s1 + 0xa8]\n 40761: a3 = u64 [s1 + 0x90]\n 40765: a0 = a0 | a3\n 40768: a3 = u64 [s1 + 0x80]\n 40772: a0 = a3 if a5 == 0\n 40775: a4 = u64 [s1 + 0xb8]\n 40779: a3 = a4\n 40781: a3 = a0 if a2 != 0\n 40784: u64 [s1 + 0xc0] = a3\n 40788: a0 = u64 [s1 + 0xd0]\n 40792: a0 = 0 if a5 == 0\n 40794: u64 [s1 + 0xd0] = a0\n 40798: u64 [s1 + 144] = 0x15180\n 40805: a0 = u64 [s1 + 0xf8]\n 40809: a2 = a0 + 0xffffffffffffff80\n 40812: a0 = a4\n 40814: jump [t0]\n      : @1551 (gas: 9)\n 40816: a1 = a1 <u 0x20\n 40819: a1 = a1 ^ 0x1\n 40822: a1 = a0 if a3 != 0\n 40825: a0 = a3 >u 0\n 40827: a2 = a3 >u 0\n 40829: a2 = a0 if a3 == 0\n 40832: a0 = a3 | a3\n 40835: a2 = a1 if a0 == 0\n 40838: jump [t0]\n      : @1552 (gas: 8)\n 40840: a0 = u64 [a2 + 0x8]\n 40843: a1 = i32 [a2 + 0x10]\n 40846: a2 = u64 [a2]\n 40848: a3 = reverse a0\n 40850: a0 = a3 << 0x20\n 40853: a1 = reverse a1\n 40855: a1 = a1 >> 0x20\n 40858: jump [t0]\n      : @1553 (gas: 8)\n 40860: a0 = a0 | a2\n 40863: a2 = a3 | a1\n 40866: a2 = a2 | a0\n 40869: a2 = a2 >> 0x20\n 40872: a0 = a0 | a1\n 40875: a0 = a0 << 0x20\n 40878: a0 = a0 | a2\n 40881: jump [t0]\n      : @1554 (gas: 18)\n 40883: a1 = a2 + 0x1\n 40886: u64 [s1 + 0xf8] = a1\n 40890: a0 = a1 <u 0x1\n 40893: a0 = a0 + a3\n 40896: u64 [s1 + 0xf0] = a0\n 40900: a0 = a0 | a1\n 40903: a0 = a0 <u 0x1\n 40906: a0 = a0 + t1\n 40909: u64 [s1 + 0xe0] = a0\n 40913: a0 = a0 <u t1\n 40916: a0 = a0 + ra\n 40919: u64 [s1 + 0xe8] = a0\n 40923: a1 = 0xff - a2\n 40927: u64 [s1 + 0xc0] = a1\n 40931: a2 = 0x80 - a1\n 40935: a0 = u64 [s1 + 0xa0]\n 40939: a1 = u64 [s1 + 0x98]\n 40943: jump [t0]\n      : @1555 (gas: 17)\n 40945: a0 = u64 [a3]\n 40947: a1 = u64 [a3 + 0x8]\n 40950: a2 = u64 [a3 + 0x10]\n 40953: a3 = u64 [a3 + 0x18]\n 40956: a0 = reverse a0\n 40958: a1 = reverse a1\n 40960: a2 = reverse a2\n 40962: a3 = reverse a3\n 40964: a4 = a3 + 0x3\n 40967: a3 = a4 <u a3\n 40970: a5 = a2 + a3\n 40973: a2 = a5 <u a2\n 40976: a2 = a3 if a3 == 0\n 40979: a2 = a2 + a1\n 40982: a1 = a2 <u a1\n 40985: a0 = a0 + a1\n 40988: jump [t0]\n      : @1556 (gas: 12)\n 40990: a1 = u64 [s1 + 0xf0]\n 40994: a2 = u64 [s1 + 0xe0]\n 40998: a1 = a1 | a2\n 41001: a3 = u64 [s1 + 0xe8]\n 41005: a2 = u64 [s1 + 0xf8]\n 41009: a2 = a2 | a3\n 41012: a2 = a2 | a1\n 41015: a2 = a2 >> 0x20\n 41018: a1 = a1 | a3\n 41021: a1 = a1 << 0x20\n 41024: a1 = a1 | a2\n 41027: jump [t0]\n      : @1557 (gas: 17)\n 41029: a0 = u64 [a2 + 0x8]\n 41032: a1 = i32 [a2 + 0x10]\n 41035: a2 = u64 [a2]\n 41037: a0 = reverse a0\n 41039: a3 = a0 << 0x20\n 41042: a1 = reverse a1\n 41044: a1 = a1 >> 0x20\n 41047: a3 = a3 | a1\n 41050: a0 = a0 >> 0x20\n 41053: a1 = reverse a2\n 41055: a2 = a1 << 0x20\n 41058: a2 = a2 | a0\n 41061: a1 = a1 >> 0x20\n 41064: i32 a0 = a4 + 0x4\n 41067: a4 = 0x1878\n 41071: a5 = s1 + a4\n 41074: jump [t0]\n      : @1558 (gas: 5)\n 41076: sp = a0\n 41078: i32 a2 = a0 + 0\n 41080: a1 = 0x40\n 41083: a0 = u64 [s1 + 0xe8]\n 41087: jump [t0]\n      : @1559 (gas: 5)\n 41089: sp = a0\n 41091: i32 a2 = a0 + 0\n 41093: a1 = 0x40\n 41096: a0 = u64 [s1 + 0xb8]\n 41100: jump [t0]\n      : @1560 (gas: 15)\n 41102: t2 = u64 [s1 + 0xa0]\n 41106: t1 = u64 [s1 + 0x98]\n 41110: u64 [s1 + 184] = 0\n 41114: u64 [s1 + 176] = 0\n 41118: a2 = u64 [s1 + 0x88]\n 41122: a1 = 0 if a2 == 0\n 41124: a0 = 0 if a2 == 0\n 41126: u64 [s1 + 0xa8] = a0\n 41130: a3 = u64 [s1 + 0x90]\n 41134: a2 = a3 + 0xffffffffffffffff\n 41137: u64 [s1 + 0x88] = a2\n 41141: a2 = a3 >u 0\n 41143: a2 = a2 + 0xffffffffffffffff\n 41146: u64 [s1 + 0x80] = a2\n 41150: jump [t0]\n      : @1561 (gas: 5)\n 41152: sp = a0\n 41154: i32 a2 = a0 + 0\n 41156: a1 = 0x40\n 41159: a0 = u64 [s1 + 0xf0]\n 41163: jump [t0]\n      : @1562 (gas: 9)\n 41165: a0 = u64 [a3 + 0x18]\n 41168: a1 = u64 [a3 + 0x10]\n 41171: a2 = u64 [a3 + 0x8]\n 41174: a3 = u64 [a3]\n 41176: a0 = reverse a0\n 41178: a4 = reverse a1\n 41180: a2 = reverse a2\n 41182: a3 = reverse a3\n 41184: jump [t0]\n      : @1563 (gas: 8)\n 41186: a0 = a0 | a2\n 41189: a2 = a4 | a1\n 41192: a2 = a2 | a0\n 41195: a2 = a2 >> 0x20\n 41198: a0 = a0 | a1\n 41201: a0 = a0 << 0x20\n 41204: a0 = a0 | a2\n 41207: jump [t0]\n      : @1564 (gas: 14)\n 41209: a0 = u64 [a2 + 0x8]\n 41212: a1 = u64 [a2]\n 41214: a2 = i32 [a2 + 0x10]\n 41217: a0 = reverse a0\n 41219: a3 = a0 >> 0x20\n 41222: a1 = reverse a1\n 41224: a4 = a1 << 0x20\n 41227: a3 = a3 | a4\n 41230: a0 = a0 << 0x20\n 41233: a2 = reverse a2\n 41235: a2 = a2 >> 0x20\n 41238: a0 = a0 | a2\n 41241: a1 = a1 >> 0x20\n 41244: jump [t0]\n      : @1565 (gas: 12)\n 41246: a4 = u64 [s1 + 0x88]\n 41250: a0 = a0 & a4\n 41253: a4 = u64 [s1 + 0x78]\n 41256: a1 = a1 & a4\n 41259: a4 = u64 [s1 + 0x90]\n 41263: a2 = a2 & a4\n 41266: a4 = u64 [s1 + 0x80]\n 41270: a3 = a3 & a4\n 41273: a2 = a2 | a3\n 41276: a0 = a0 | a1\n 41279: a0 = a0 | a2\n 41282: jump [t0]\n      : @1566 (gas: 12)\n 41284: a2 = t2 >> 0x3f\n 41287: a3 = t1 << 0x1\n 41290: a2 = a2 | a3\n 41293: a3 = t2 << 0x1\n 41296: t2 = u64 [s1 + 0xc8]\n 41300: a4 = t2 >> 0x3f\n 41303: a3 = a3 | a4\n 41306: u64 [s1 + 0xa0] = a3\n 41310: ra = u64 [s1 + 0x80]\n 41314: a0 = t1\n 41316: t1 = ra ^ a2\n 41319: jump [t0]\n      : @1567 (gas: 14)\n 41321: a3 = u64 [s1 + 0xd8]\n 41325: a0 = u64 [a3 + 0x18]\n 41328: a1 = u64 [a3 + 0x10]\n 41331: a2 = u64 [a3 + 0x8]\n 41334: a3 = u64 [a3]\n 41336: a0 = reverse a0\n 41338: u64 [s1 + 0xd8] = a0\n 41342: a0 = reverse a1\n 41344: u64 [s1 + 0xd0] = a0\n 41348: a0 = reverse a2\n 41350: u64 [s1 + 0xc8] = a0\n 41354: a0 = reverse a3\n 41356: u64 [s1 + 0xc0] = a0\n 41360: jump [t0]\n      : @1568 (gas: 10)\n 41362: u64 [s1] = a3\n 41364: u64 [s1 + 0x8] = a2\n 41367: u64 [s1 + 0x10] = a1\n 41370: u64 [s1 + 0x18] = a0\n 41373: sp = s0 + 0xffffffffffffffc0\n 41376: ra = u64 [sp + 0x38]\n 41379: s0 = u64 [sp + 0x30]\n 41382: s1 = u64 [sp + 0x28]\n 41385: sp = sp + 0x40\n 41388: jump [t0]\n      : @1569 (gas: 8)\n 41390: a4 = a4 | a2\n 41393: a2 = a0 | a1\n 41396: a2 = a2 | a4\n 41399: a2 = a2 >> 0x20\n 41402: a1 = a1 | a4\n 41405: a1 = a1 << 0x20\n 41408: a1 = a1 | a2\n 41411: jump [t0]\n      : @1570 (gas: 8)\n 41413: a0 = u64 [s1 + 0x8]\n 41416: a1 = i32 [s1 + 0x10]\n 41419: a2 = u64 [s1]\n 41421: a0 = reverse a0\n 41423: a3 = a0 << 0x20\n 41426: a1 = reverse a1\n 41428: a1 = a1 >> 0x20\n 41431: jump [t0]\n      : @1571 (gas: 12)\n 41433: a1 = a1 << 0x1\n 41436: a4 = u64 [s1 + 0xa8]\n 41440: a3 = a4 >> 0x3f\n 41443: a1 = a1 | a3\n 41446: u64 [s1 + 0x98] = a1\n 41450: a3 = a0 >> 0x3f\n 41453: a0 = a4 << 0x1\n 41456: a3 = a3 | a0\n 41459: a0 = t2 << 0x1\n 41462: a4 = u64 [s1 + 0xc0]\n 41466: a1 = a4 >> 0x3f\n 41469: jump [t0]\n      : @1572 (gas: 8)\n 41471: a0 = u64 [a4 + 0x58]\n 41474: a1 = u64 [a4 + 0x60]\n 41477: a2 = u64 [a4 + 0x50]\n 41480: a3 = u64 [a4 + 0x48]\n 41483: a1 = a1 | a2\n 41486: a0 = a0 | a3\n 41489: a0 = a0 | a1\n 41492: jump [t0]\n      : @1573 (gas: 10)\n 41494: a0 = u64 [a3 + 0x18]\n 41497: a1 = u64 [a3 + 0x10]\n 41500: a2 = u64 [a3 + 0x8]\n 41503: a3 = u64 [a3]\n 41505: a0 = reverse a0\n 41507: a1 = reverse a1\n 41509: a2 = reverse a2\n 41511: a3 = reverse a3\n 41513: a4 = s1 + 0x2078\n 41517: jump [t0]\n      : @1574 (gas: 16)\n 41519: a4 = u64 [a3]\n 41521: u64 [sp + 0x18] = a4\n 41524: a4 = u64 [a3 + 0x8]\n 41527: u64 [sp + 0x20] = a4\n 41530: a4 = u64 [a3 + 0x10]\n 41533: u64 [sp + 0x28] = a4\n 41536: a3 = u64 [a3 + 0x18]\n 41539: u64 [sp + 0x30] = a3\n 41542: s1 = u64 [a2]\n 41544: a3 = u64 [a2 + 0x8]\n 41547: u64 [sp] = a3\n 41549: a3 = u64 [a2 + 0x10]\n 41552: u64 [sp + 0x8] = a3\n 41555: a2 = u64 [a2 + 0x18]\n 41558: u64 [sp + 0x10] = a2\n 41561: jump [t0]\n      : @1575 (gas: 10)\n 41563: a0 = u64 [sp + 0x10]\n 41566: a1 = u64 [sp + 0x18]\n 41569: a2 = 0x100000000\n 41579: a2 = a2 ^ a0\n 41582: a2 = a2 | a1\n 41585: a3 = a0 >> 0x20\n 41588: a3 = a3 <u 0x1\n 41591: a3 = 0 if a1 != 0\n 41593: a3 = 0 if a2 == 0\n 41595: jump [t0]\n      : @1576 (gas: 9)\n 41597: u64 [s1 + 0xc0] = a3\n 41601: a1 = 0 if a4 == 0\n 41603: u64 [s1 + 0xc8] = a1\n 41607: u64 [s1 + 152] = 0x15180\n 41614: a0 = u64 [s1 + 0xf0]\n 41618: a2 = a0 + 0xffffffffffffff80\n 41621: a0 = a5\n 41623: a1 = t1\n 41625: jump [t0]\n      : @1577 (gas: 8)\n 41627: a0 = u64 [a4 + 0x18]\n 41630: a1 = u64 [a4 + 0x20]\n 41633: a2 = u64 [a4 + 0x10]\n 41636: a3 = u64 [a4 + 0x8]\n 41639: a1 = a1 | a2\n 41642: a0 = a0 | a3\n 41645: a0 = a0 | a1\n 41648: jump [t0]\n      : @1578 (gas: 4)\n 41650: a0 = 0x2078\n 41654: a3 = s1 + a0\n 41657: a4 = a3 + 0x600\n 41661: jump [t0]\n      : @1579 (gas: 4)\n 41663: a0 = 0x2878\n 41667: a3 = s1 + a0\n 41670: a4 = a3 + 0x100\n 41674: jump [t0]\n      : @1580 (gas: 4)\n 41676: a0 = 0x2878\n 41680: a3 = s1 + a0\n 41683: a4 = a3 + 0x300\n 41687: jump [t0]\n      : @1581 (gas: 11)\n 41689: a2 = u64 [s1 + 0x88]\n 41693: a1 = a1 | a2\n 41696: a2 = u64 [s1 + 0xf8]\n 41700: a3 = a2 <u 0x80\n 41704: u64 [s1 + 0x88] = a3\n 41708: a4 = u64 [s1 + 0x80]\n 41712: a1 = a4 if a3 == 0\n 41715: a4 = u64 [s1 + 0x98]\n 41719: a4 = a1 if a2 != 0\n 41722: u64 [s1 + 0x98] = a4\n 41726: jump [t0]\n      : @1582 (gas: 10)\n 41728: a2 = u64 [s1 + 0x88]\n 41732: a1 = 0 if a2 == 0\n 41734: a0 = 0 if a2 == 0\n 41736: a3 = u64 [s1 + 0x98]\n 41740: a2 = a3 + 0xffffffffffffffff\n 41743: u64 [s1 + 0x90] = a2\n 41747: a2 = a3 >u 0\n 41749: a2 = a2 + 0xffffffffffffffff\n 41752: u64 [s1 + 0x88] = a2\n 41756: jump [t0]\n      : @1583 (gas: 11)\n 41758: a3 = u64 [s1 + 0xc8]\n 41762: a0 = u64 [a3 + 0x18]\n 41765: a1 = u64 [a3 + 0x10]\n 41768: a2 = u64 [a3 + 0x8]\n 41771: a3 = u64 [a3]\n 41773: a0 = reverse a0\n 41775: u64 [s1 + 0xc0] = a0\n 41779: a0 = reverse a1\n 41781: u64 [s1 + 0xb8] = a0\n 41785: a0 = reverse a2\n 41787: jump [t0]\n      : @1584 (gas: 8)\n 41789: a0 = u64 [a4 + 0x78]\n 41792: a1 = u64 [a4 + 0x80]\n 41796: a2 = u64 [a4 + 0x70]\n 41799: a3 = u64 [a4 + 0x68]\n 41802: a1 = a1 | a2\n 41805: a0 = a0 | a3\n 41808: a0 = a0 | a1\n 41811: jump [t0]\n      : @1585 (gas: 12)\n 41813: a0 = u64 [sp + 0x18]\n 41816: a1 = u64 [sp + 0x10]\n 41819: a2 = u64 [sp + 0x8]\n 41822: a3 = u64 [sp]\n 41824: a4 = a2 | a0\n 41827: a5 = a3 | a1\n 41830: a5 = a5 | a4\n 41833: a5 = a5 >> 0x20\n 41836: a4 = a4 | a1\n 41839: a4 = a4 << 0x20\n 41842: a4 = a4 | a5\n 41845: jump [t0]\n      : @1586 (gas: 4)\n 41847: i32 a0 = a0 + 0x78\n 41850: a3 = s1 + a0\n 41853: a4 = a3 + 0x200\n 41857: jump [t0]\n      : @1587 (gas: 12)\n 41859: a1 = u64 [sp + 0xb8]\n 41863: a2 = u64 [sp + 0xa8]\n 41867: a1 = a1 | a2\n 41870: u64 [sp + 0xb8] = s1\n 41874: a3 = u64 [sp + 0xb0]\n 41878: a2 = s1 | a3\n 41881: a2 = a2 | a1\n 41884: a2 = a2 >> 0x20\n 41887: a1 = a1 | a3\n 41890: a1 = a1 << 0x20\n 41893: a1 = a1 | a2\n 41896: jump [t0]\n      : @1588 (gas: 6)\n 41898: a0 = u64 [a3 + 0x18]\n 41901: a1 = u64 [a3 + 0x10]\n 41904: a2 = u64 [a3 + 0x8]\n 41907: a3 = u64 [a3]\n 41909: a0 = reverse a0\n 41911: jump [t0]\n      : @1589 (gas: 12)\n 41913: a2 = u64 [sp]\n 41915: a3 = u64 [sp + 0x8]\n 41918: u64 [s1] = a2\n 41920: u64 [s1 + 0x8] = a3\n 41923: u64 [s1 + 0x10] = a0\n 41926: u64 [s1 + 0x18] = a1\n 41929: sp = s0 + 0xffffffffffffffc0\n 41932: ra = u64 [sp + 0x38]\n 41935: s0 = u64 [sp + 0x30]\n 41938: s1 = u64 [sp + 0x28]\n 41941: sp = sp + 0x40\n 41944: jump [t0]\n      : @1590 (gas: 10)\n 41946: sp = sp + 0xffffffffffffffc0\n 41949: u64 [sp + 0x38] = ra\n 41952: u64 [sp + 0x30] = s0\n 41955: u64 [sp + 0x28] = s1\n 41958: s0 = sp + 0x40\n 41961: sp = sp & 0xffffffffffffffe0\n 41964: s1 = a0\n 41966: i32 a0 = sp + 0\n 41968: a1 = 0x4\n 41971: jump [t0]\n      : @1591 (gas: 8)\n 41973: u64 [sp + 64] = 0\n 41976: u64 [sp + 56] = 0\n 41979: u64 [sp + 48] = 0\n 41982: a0 = 0x4e487b7100000000\n 41992: a1 = sp + 0x30\n 41995: u64 [sp + 0x48] = a0\n 41998: a0 = 0\n 42000: jump [t0]\n      : @1592 (gas: 12)\n 42002: a4 = u64 [s1 + 0xd8]\n 42006: a0 = a0 & a4\n 42009: a4 = u64 [s1 + 0xc8]\n 42013: a1 = a1 & a4\n 42016: a4 = u64 [s1 + 0xd0]\n 42020: a2 = a2 & a4\n 42023: a4 = u64 [s1 + 0xc0]\n 42027: a3 = a3 & a4\n 42030: a2 = a2 | a3\n 42033: a0 = a0 | a1\n 42036: a0 = a0 | a2\n 42039: jump [t0]\n      : @1593 (gas: 6)\n 42041: i32 a0 = a2 + 0\n 42043: u64 [s1 + 0xf0] = a0\n 42047: a0 = u64 [s1 + 0xf8]\n 42051: a1 = a2\n 42053: u64 [s1 + 0xe8] = a2\n 42057: jump [t0]\n      : @1594 (gas: 4)\n 42059: a0 = 0x2078\n 42063: a3 = s1 + a0\n 42066: a4 = a3 + 0x500\n 42070: jump [t0]\n      : @1595 (gas: 9)\n 42072: sp = sp + 0xffffffffffffffc0\n 42075: u64 [sp + 0x38] = ra\n 42078: u64 [sp + 0x30] = s0\n 42081: u64 [sp + 0x28] = s1\n 42084: s0 = sp + 0x40\n 42087: sp = sp & 0xffffffffffffffe0\n 42090: s1 = a0\n 42092: i32 a0 = sp + 0\n 42094: jump [t0]\n      : @1596 (gas: 4)\n 42096: a0 = 0x2878\n 42100: a3 = s1 + a0\n 42103: a4 = a3 + 0x200\n 42107: jump [t0]\n      : @1597 (gas: 8)\n 42109: a1 = sp + 0xffffffffffffffe0\n 42112: a1 = a1 & 0xffffffffffffffe0\n 42115: u64 [s1 + 0xf0] = a1\n 42119: sp = a1\n 42121: i32 a0 = a0 + 0\n 42123: i32 a2 = a1 + 0\n 42125: a1 = 0x40\n 42128: jump [t0]\n      : @1598 (gas: 7)\n 42130: a3 = u64 [s1 + 0xf8]\n 42134: a0 = u64 [a3 + 0x18]\n 42137: a1 = u64 [a3 + 0x10]\n 42140: a2 = u64 [a3 + 0x8]\n 42143: a3 = u64 [a3]\n 42145: a5 = reverse a0\n 42147: jump [t0]\n      : @1599 (gas: 6)\n 42149: a0 = a0 + a1\n 42152: a1 = a0 <u a1\n 42155: a1 = a1 + a2\n 42158: a2 = s1 + 0x2878\n 42162: a3 = a2 + 0x100\n 42166: jump [t0]\n      : @1600 (gas: 9)\n 42168: a0 = a0 | a1\n 42171: a1 = u64 [s1 + 0xa8]\n 42175: a0 = a1 if a3 == 0\n 42178: a1 = u64 [s1 + 0xa0]\n 42182: a1 = a0 if a2 != 0\n 42185: u64 [s1 + 0xa0] = a1\n 42189: a0 = u64 [s1 + 0xb8]\n 42193: a1 = u64 [s1 + 0xb0]\n 42197: jump [t0]\n      : @1601 (gas: 2)\n 42199: a3 = a2 & 0x40\n 42202: jump @1605 if a3 != 0\n      : @1602 (gas: 1)\n 42205: jump @1604 if a2 == 0\n      : @1603 (gas: 6)\n 42208: i32 a3 = 0x40 - a2\n 42211: a3 = a1 << a3\n 42214: a1 = a1 >> a2\n 42217: a0 = a0 >> a2\n 42220: a0 = a0 | a3\n 42223: ret\n      : @1604 (gas: 1)\n 42225: ret\n      : @1605 (gas: 4)\n 42227: a0 = a2 + 0xffffffffffffffc0\n 42230: a0 = a1 >> a0\n 42233: a1 = 0\n 42235: ret\n      : @1606 (gas: 2)\n 42237: a3 = a2 & 0x40\n 42240: jump @1610 if a3 != 0\n      : @1607 (gas: 1)\n 42243: jump @1609 if a2 == 0\n      : @1608 (gas: 6)\n 42246: i32 a3 = 0x40 - a2\n 42249: a3 = a0 >> a3\n 42252: a0 = a0 << a2\n 42255: a1 = a1 << a2\n 42258: a1 = a1 | a3\n 42261: ret\n      : @1609 (gas: 1)\n 42263: ret\n      : @1610 (gas: 4)\n 42265: a1 = a2 + 0xffffffffffffffc0\n 42268: a1 = a0 << a1\n 42271: a0 = 0\n 42273: ret\n","bytecode":{"object":"50564d0000b6c2000000000000010700c1a001c0008003814c8c5429eea693f81e976c2a47cb5638031d6e7e460a43c54553b4e6a10ec9d36bbe28982eecaa761aff97e6ce55d5613eea1ab831552409f8051f0b480298fcabf40443b2a766a42db9815a1e2efa877e5c0519ec4fe51c83c442ba392fca77e27a96c0a237ac310730ce86cab6918a9cee1f20395b3b80e1e34a4eb67d08a74e0dc354af37bd04b03f2522518a6d9314cf35a01b6f25119782e62a75888f78d10000e8890423c78affffe7890423c78a00001876fbdc3875975752f4e33b24c3dceff4c6a46dc4173eb68630b623f1b6b5ef1d0584397d3391535eb615f58f25f5e154f9d3ae7110504aede2dc37ca8e481016d0c9006f760000e8890423c78a00001876fbdc3875f2a8b439f25bd8ebdf119a7090238fa225717e85c68e190f0982ba0d5cabfde394247a18b5e26bbe1d817609543b3c0451c960f58acf6b97ba06c2c9ba61c0412000000004812812000000000400000012000000200000002e000000340000003d0000004a0000005c0000006700000076000000790000008600000096000000a6000000b1000000c3000000ce00000063616c6c63616c6c5f646174615f636f707963616c6c5f646174615f6c6f616463616c6c5f646174615f73697a6563616c6c6572636f64655f73697a656465706f7369745f6576656e746765745f696d6d757461626c655f646174616765745f73746f72616765686173685f6b656363616b5f3235366e6f777265665f74696d655f6c65667472657475726e5f646174615f636f707972657475726e5f646174615f73697a657365616c5f72657475726e7365745f696d6d757461626c655f646174617365745f73746f7261676576616c75655f7472616e73666572726564051302c0809c0463616c6cc0899c066465706c6f7906c00cc0831f02c023a56a00b2016a03ff030704d904e104e005e5056a067506a206da06320745074b078007c1070f0852085e08c108ea08fe082a093f0964098209c609ce09a20bac0bcf0bf90b900c5a0d600d9b0d470e710eb20eb80e040f3e0f6d0f730fa50f1c104310b6101f116c117811ac11b211fd11071223122b124a12b8123f137f138c13a713db13f113fc13af140715101556156115a015ad15c81560166916a4160b17211756177117c717d817af18c018d4181e1929196b1978199719061a0d1a141a3b1a461a621a6b1a8b1a3f1b8a1bc01bcd1b161c4a1c7e1c941c9f1c4b1db11dcf1d271e2e1e811eb21ed01e321f391fa41fba1fb020cb20e9200a219e21b921d7212322e4231824362491249f24e525ff251c263d269026962600272d274727a727ad27b327d527fc272c284a288c289228b228df28fd280a2910291a2947295c29bc29c229c829ea29112a412a5f2aa12aa72ac72af82a162b232b292b332b602b7a2bda2be02b1b2c462c4f2c7f2c882ca82cea2cf02cf92c192d502d6e2d7b2d812d8b2d942dc52de32d1a2e272e5f2e652e6b2e8d2eb52ed32e142f1a2f492fb42f22309030a5300c317931ca311432223252326032d932df32fc32053323333a33403351335b337433ac33ff33083522353f355f35c035c635cc35f0351d368136a8360f379a37fb370c38dc38ec38003942394b397339d739e239133a2e3a833a943a5a3b6a3b7e3bd83b3c3cec3c4a3d993dbd3d0c3e2a3e413e4b3e9c3ead3ece3e133f283f323fc43f1d4023403d405a40a740b14015421f4243426e42bb42c142fa42044328435343714382438c43af43d343dd43fe432944474454445a449a44d444004511451b454345e945f34513463b46594666466c469746cd46eb46fc460647304780479b47b547f847794819494949ac49764aa74ac54ad64ae04a214b524b704ba14bae4b134c644c794c834cf34c4b4d514d6a4d874dd34ddd4d244fa74ffd4f5750aa50ba50c050dd50e65004510f5133513d5168519151c851365240527652c352e0521b53295333535c5366539f53af53b553d553de53fc53135419542a5434544d547054c154ce54e95419552d553755de55eb5505564056715677568a569056c256f456fa560d57135758579957fb5710581a58ab586e597e59395a585a895a8f5aa25aa85ada5a0b5b115b225b285b7f5bfb5b4f5ce25c085d525e7c5e9e5ea95ede5e2d5f4e5f595f685f995f9f5f39605a608b6091609760e8605b61616167619961c861f461c962cf62e9620663266368636e638863a563ab63b463ba63c063c663d9631f648a649864b064dc64f664c065c665e065fd651d665f6665667f669c66a266ab66b166b766bd66d0661667e1671e6824682a6847688a68ce68d868676971698769b369bd69da69e369036a4a6a546a986acf6af16a436b686bd26bdc6bfc6b056c256c686c6e6c9b6cd26cf46c056d0f6d356d6a6d856db86ddd6de76d046e0d6e2d6e7b6e886e8e6eae6ee56e076f186f226f2f6f396f4f6f686f726f926f9b6fbb6fdd6fea6ff06f107044706670777081708e709870aa70b770047158715e7164719071c071f07156726b72757292729b72bb72e972fa7204731d73417382739773a173187424744a747674c774fb74057525752e754e7570757d758375a375d875fa750b761576227678768d76977614775b77617767779977c177df77267830784e787078fc7837796b797579e4794b7ac47ae37a217b5f7be17b137c5c7cbe7cc47ccd7ce97cef7cfc7c027d0b7d267d2c7d4e7d697d6f7d7f7d857d8e7da97daf7dbc7dc27dcb7de07da77ec27ec87ee17e057f8c7ff37f23805980b580cb80fc802e818781968163828982e282438354835a83e783a584b284608575857f85bb85fc8529862f864f8671869a86a086be860b87548704880b88258849884f89b389f389318a898aa98a198b388b818b8b8bc98bf98b178c288c328c608c808c9a8ccc8c048d238d698d768d7c8da28dcb8de88df58dfb8d068e208e4d8e6c8e898e968e9c8ebc8ee68e038f108f168f218f378f648f838fa08fad8fb38fd38f01901e902b9031903c908b90b490d390f0904d91c491ed910c922992399242927f92ad92ca92da92e392fc9216935293a09300946294cc940d954c955c952a9634961f978797cc9716985d9877989f986c99c199cf99e5990d9a919ac19a2d9b3d9c6b9c899c939c9511e87b10107b15087b163306480102390548010251051c3307800103837783680a070139074801022003480102ac5710821010821508821695111832000039084801025108dd08330780010383770a0f28d0089511f07b10087b156489647533082064975010022c057c78017c797c7a027c7b03978808d4980897aa1097bb18d4ba0ad4a8087c79057c7a047c7b067c7c07979908d4a90997bb1097cc18d4cb0bd4b909979920d489027c79097c7a087c7b0a7c7c0b979908d4a90997bb1097cc18d4cb0bd4b9097c7a0d7c7b0c7c7c0e7c780f97aa08d4ba0a97cc10978818d4c808d4a808978820d498037c78117c7a107c7b127c7c13978808d4a80897bb1097cc18d4cb0bd4b8087c7a157c7b147c7c167c791797aa08d4ba0a97cc10979918d4c909d4a909979920d4890a7c78197c79187c7b1a7c7c1b978808d4980897bb1097cc18d4cb0bd4b8087c791d7c7b1c7c7c1e7c771f979908d4b90997cc10977718d4c707d49707977720d487076f776fa86f396f2a7b5a187b59107b58087b57821008821595111032009511d87b10207b15187b161082897b19088289087b19828510828618330820501004e4036f686f59821a6faa821b086fbb787b18787a10787908787898bc38787c1f98bc30787c1e98bc28787c1d98bc20787c1c98bc18787c1b98bc10787c1a98bb08787b1998ab38787b1798ab30787b1698ab28787b1598ab20787b1498ab18787b1398ab10787b1298aa08787a11989a38787a0f989a30787a0e989a28787a0d989a20787a0c989a18787a0b989a10787a0a98990878790998893878790798893078790698892878790598892078790498891878790398891078790298880878780182102082151882161095112832009511a07b10587b15507b16489515608411e06476828718828910828a0882886f776f996faa6f887b18187b1a107b19087b17491138491130491128491120481140208318831a20831b403309ff33070a08821738821830821928821a206f776f886f996faa7b6a187b69107b68087b679551a082105882155082164895116032009511a07b10587b15509515608411e08272827a08827b108277188283828908828c108288186f746fbb6faa6f276f826fcc6f996f387b17187b1a107b1b087b147b18387b19307b1c287b12208318831a203309ff330b2033070a109551a0821058821550951160320082186f888219086f99821a106faa821b186fbb7b1b587b1a507b19487b18408218206f888219286f99821a306faa821b386fbb7b1b787b1a707b19687b18608379836a8317403308020a06955160ff8210980082159000821688009511a0003200951120ff7b10d8007b15d0007b16c8009515e0008411e082bc7b1c4082bc087b1c4882bc107b1c5082bb187b1b58501208369e007b183850100a8f016f687b187882186f887b18708218086f887b18688218106f887b18608218186f887b1898008218206f887b1890008218286f887b1888008218306f887b1880008218406f887b18b8008218486f887b18b0008218506f887b18a8008218586f887b18a0008379811a388317603308030a06955120ff8210d8008215d0008216c8009511e00032009511e0fe7b1018017b1510017b160801951520018411e082c67b166082c6087b166882c6107b167082cc187b1c7882bc7b1c3882bc087b1c4082bc107b1c4882bb187b1b5050120c5c9d007b185850100eb5006f687b18980082186f887b1890008218086f887b1888008218106f887b1880008218186f887b18b8008218206f887b18b0008218286f887b18a8008218306f887b18a0008218386f887b18d8008218406f887b18d0008218486f887b18c8008218506f887b18c0008218606f887b18f8008218686f887b18f0008218706f887b18e8008218786f887b18e0008379811a58831780003308040a069551e0fe8210180182151001821608019511200132008b7910520931c8780883881f8488e05638000001253309500102390a500102ae8a093d085001020133086001028377c887073200009511f07b10087b158475010a03013d074c0102510507501010095010125f03951160fd951700027b7098007b7590007b7688009515a0028411e04921b8014921b0014921a8014921a0018317a0010a11018217b0018218b8018219a801821aa001d49808d4a707d487075207570239064c010297672098772095771f8477e09578a000d87807492198017b1880017b17880194777b1790013307409518800150101429fb3307a000646850101621ff8377646833090a01015316401602492158014921500149214001a000951760019518400149214801501018e275821778017b1718821770017b1710821768017b170882166001492118014921100149210001c00095172001951800014921080150101aaa75821a08821910979720987720d4a608d487075107b501821730017b1738821728017b1728821720017b17301407ffffffff000000007b17207b16e0007b1ae8007b19f000330780009518e0008219187b19f80050101c61fa3306600103836733001e0a0433022028849a00501220809a00d4a8087b18189877206f98978620d467077b17109886204921d8014921d0014921c8014921c001019517c0009518c00150102205fb8017d4009777208218d800d467074921f8014921f0014921e8014921e00101951900027b98188218107b98088218187b987b97109517e0019518000250102445fb8217288479ff8217308478ff821738821620d27606d46807d49707510776140700000000ffffffff7b1738951700024917384917304917284917209517a0007b1830951820027b192850102676fa8217b8008218b0008477ff821938d29808d46808951a0002491a58491a50491a48491a408219287ba9688219307ba9607ba7787ba8709517400295186002501028b4fa9517800033084050102afbf782179800821890008219880082168000d49707d48609d47909989920d48707977720d4970751075e003308600102838833070128a60033086001028388330701289900491150491148491140140700000000c8f5bc149518407b1758330750102cd2f8390850010256181f0b20035001022001330860010283883307013309040a0e016467330850102eacfc8377330833090a01951760330880005010305bf7821778821970821a68821b603e079801033e099001033e0a8801033e0b8001032821f7646733085010326cfc8378330733093300340a0e280a33093300340a0e01951110fe7b10e8017b15e0017b16d8019515f001951190d18411e0641633023695697820014929e0044929d8044929c8048000330740956840254929d00450103811f833074c01027b67f80039074c010255170407280c6f9517e08477e064714917184917104917087b67f00049079567002083776005330833003a0a0233023c95697820280a33023c95697820018197040552475bcba58d0a282414514734666299560352470a9e38a80a28c6215247b00de3d00a28da0f5147598e05d18c075147f9530fdbff0b5247074e71e90a28202852475f53cc0e0a282124524786e72a220a28e914524754ec9b310a286a1f5247372f32350a28341c52471515c5390a28411d5247b836cc480a28271a5247aef7914a0a28ff125247f498bb4c0a281c195147036f124f0a28242b95677828491760491758491750491748956700308377c0f80a1101956a782882a75882a86082a95082aa48d49808d4a707d4870751070628ff508267f80081775617630728fc50956700308377e0f83308040a02019569782882978000829878829a68829970d487077b6af80088a800019498947852080628d25095670030837700f93308240a0201956978288297a00082989800829a880082999000d487077b6ad00088a800019498947852080628a55095670030837720f93308440a0201956778288272c000827bb800827cb000827aa800d42c07d4ba08d48707520706287e507c68f8007c69d000ab980628c4507b6af8007b6cd8007b6be0007b62e8007b68c0005418010728d94f5319030728d24f7b69800033076001037b67c80083777b67a00033003e0a048269c800330240281e91008269c8005012401691004929e004959b00047bb8d8007bb7d0009568ff07958841057bbac8003307501042c4f59568ff079588794928c0044928b8044928a8040264893307209568ff07958821054929b0045010449af59517e08477e07b67f00064713309500102390750010256173f0b200350010240017b69789517e08479e07b69b80064913307600102837783993308407b6788000a09018269b800829718829810829b08829a6f796f8c6fbb6faa8268f0007b8a187b8b107b8c087b899593028267c0007b6bb8007b6a98007b6cb0007b6390007b69a80051070628832f9567ff079577c104501046f5f59567ff07957779827050048272600482784804827c58048264d800d34007d8400b7b68708269f800d898087b6868da780b8263e000d83c088269e800d3920ad892077b6860daa807d33c08d4a808da8b0751070628f252c93c07c99208826960c99808d8b709c99808c9b707c94009826a68c9a909826a70826bf800c9ba0a956b78287bbae8007bb9f0007bb7f8007bb80001956860298267f0003300120228d2f5956778284927e0014927d8014927d0014927c80195670030837740fa3300480a1133024a2869950050124a65950082b7d80082b8e00082b9d00082bac800d49808d4a707d4870751070628f64e8267f80081775617430728f34e9567201033004c3302fe04284396009567ff07957779957900078298b8007b68c8008298b0007b68d8008297a8007b67d00095670030837760fa3308240a020195677828827b0002957c000182caf80082c9f00082c8e8007b69f0007b6be000d4b9077b68f800d4a808d478089888207b6ae800d4a707977720d48707510706287a4e8267c8009777209877209569ff079599794929a0078268d000959a00077ba888008268d8007ba89000956800107ba79800330750104e4cf39568ff079588794928800749287807492868070364893307209568ff079588e1074929700750105022f33308500102390750010256173f0b200350010240019517e08479e07b69c80064913307600102837783997b68d8003308407b67d0003300520a09330254287094005012546c94007b67b0006fa77b67a8009517e08477e07b67c80064719569ff079599798267e000959a00077ba7608267e8007ba7588267f0007ba7509568ff079588c1078267f8007ba74833075010568ff29568ff079588798267a800958900077b97408267b0007b97388267b8007b9730648a3307209568ff079588a1078269c0007ba9280750105855f28268d800818756173f08480840019517e08477e07b67f800647183793308408267d00033005a0a0933025c2829950050125c2595007b6ce0006f8b7b6be8006f997b69f0006fa77b67f8008268c8007b87187b89107b8b087b8c9567ff079577810750105ee0f29568ff07958879958900078297207b67d8008297187b67d000829710648c7b67c8008267e0009577018878018269e800c89808d48709889901826af000c8a909d8a90a826bf800c8ba0a82cb08077b6bf800956b782895bc00027bc8107bc7087bc9187bca209567ff07957761079568802a50106069f29568ff079588798287f0067b67c0008287e8067b67e0009567ff079577410733084050106216f09569ff079599798292e00695980006828cd800828bd0008287c800d42b0ad4c708d4a808988820d4ca0a97aa20d4a80851080628d74a8268f8007b98a8068268c8007b98b0068268d0007b98b8069568ff0795882107826ad8007b9ac0067b67f0007b6be8007b62d8007b6cf800501064ddf08269e8008268f0008267f800826ad800d47a0a140b00000000010000001407e0ffffff00000000d87807949794a752070628664a8387209568ff079588797b6af800648a4928a006492898068268e0007ba888069568ff0795880107492a90067b6be00050106674f08269f0008267e0009577c0d879078268e80094878268f800948752070628114a7c67c0008e78839740956aff0795aa79492a8006492a78067ba868069568ff079588e106492a700650106827f03308608267f00050106a1ef4837833096033070a0e28b91c95677828492700044927f8034927f0034927e80395670030837760fc33006c0a1133026e2824910050126e20910082b7f80082a8000482b9f00082bae800d49808d4a707d4870751070628c24a8267f80081775617030728bf4a33076001037b67f80083777b67e0003300700a048269f80033027228ba8b008269f800501272b28b0049294006959b00067bb8387bb7309568a01e7bba28330750107470ef33027695687818014928200649281806492808060264893307209568801e4929100650107849ef390850010256183f0b200350010240019517e08479e07b69e80064913307600102837783993308407b67c0000a098268e8008287187b67d8008287107b67d0008287087b67c80082877b67e80095677828492720044927180449271004492708049567601e9568802c50107acdef9567781895780005828af800828bf0008289e80097a720987720d4b908d4870751070628b4234926a8004926b0004926b8004926c000018267e8006f728268c8006f878269d0006f99826ad8006faa951be084b8e0648195ab02d8ab0ac8a90cd89c09daaa09c87909d87907c827077b8c087b8b7b89107b87189567e01a7b68e80050107c46ef956a78180182a2800295a70002827b78827c70827968d42c07d4b908d48707510766017b69a0007b6cc8007b6bd0007b62d8008267e8008268f00050107e87ef9567c01a33084050208000ceec956a781895ac000282cb6082c85882c95082c748502282000e8e0051080628a3478268a00095ab00027bb8288268c8007bb8308268d0007bb8389568a01a8269d8007bb9407b67f00050208400b9ed8267e000330086000a048269f8003302880028728a008269f800502288006a8a00956a7818492ac001956a7818492ab801956b7818492ba80102956b7818492bc801013a0a2000023a0b280002956c7818492cb001956c7818492ce001956c78187bca2002956a78187bab18023a0a3000023a0b380002956c7818492cd801956c7818492cd001956c78187bca1002956a78187bab0802956a78187ba9f801956978187b98f001956878187b87e8013308209569801a956a601a956b401a956c201a95677818492700028267f00050208a00e5ef8269a000826cc800826bd0008262d800956a7818017ba948018267a8007ba768017bac50018267b00095ac00017bc7707bcb588267b8007bc7787ba260019567001a9568e0199569c019826bc0007bcb800050208c005e7233028e00956a78180195ab000182b7a00082b8980082b9900082ba88007b67f0007b69d800d497077b68e8007b6ad000d4a808d487075107638267e000330090000a048269f80033029200283289008269f800502292002a89008269f000956b781895bc00017bc9208269e8007bc9188269d8007bc9108269d0007bc908492b40017bc8387bc7309567a019956880197bca2850209400af729567601933084050209600adea956a781882a7000182a8f80082a9f00082abe80050229800218b005107062882458267d0007ba7c8008267d8007ba7d0008267e8007ba7d800956840198267f0007ba7e00064b77b6bf80033008e012892eb956778284927c0054927b8054927b0054927a80595670030837720fe0a1101956a782895ab000582b7b80082b8c00082b9b00082baa800d49808d4a707d4870751070628644e8267f80081775617030728574e956740208268f00050209a0026ec33029c009568781801958a000782a7d80082a9d00082a8c8007b67e0009777209877207b68e8007b69d800d49808d487075207062810469567202033084050209e00b6e9956b781882b3c00795b80007828cb800828ab0008287a800d43a09d4c708d49808988820d4c909979920d49808510806287944492b9807492b9007492b88071402000000008cfb5cef956800207bb2a0077b67f8007b63d0007b6cc8007b6ac0005020a00089ea33076001037b67f00083777b67b8003300a2000a0401826bf8008267d0008268c800d487071408fcffffff00000000d88b088269c000949894785208062805448269f0005022a400f68800492c800795cb00077bb8787bb9709568e01f7bba685020a60023ea0a0b8267d8006f779778208269e0006f99989920d498088269e8006f99979a20987720d4a707989920826af0007ba7087ba87aa910956778284927e0054927d8054927d0054927c8053308248267f8005020a800d0ed7b67e8003308208267f8005020aa00bfed956978284829e80520959a0006491a20ff491a18ff491a10ff491a08ff8268f00097882098882014090000000008000000d498029568402e9788209888209569802e979920d4890a8268e80097882098882014090000000024000000d4980b9777209877209568602e978820d4780c3308ff3309ff64270a0151070628df3d0a0d01330c20aec7080a0d647c0195697818826af8008262d0008267c8008268c0004926e0007b6ce800959b00077bbc087bba28492910077bb830492918077bb738492920079567a01f9568801f7b9240075020ac003765826ae0008ea78268e8005022ae00b7860052090628e2479567601f8268f8005020b00086e79567781882780007957c000682c9f80082caf00082cbe8007b68f8007b6ae000d48a077b69e8007b6bd800d49b08d487075107668267b8003300b2000a048269f0003302b400289984008269f0005022b400918400826bf800959c00067bcbc000826be8007bcbb800826be0007bcbb000826bd8007bcba8004929e0067bc8d8007bc7d0009567401f9568201f7bcac8005020b600e46e9567001f3308405020b800e2e6956a781895ac000682c7a00082c8980082c9900082cb88005022ba0052870051070628b3418267d80095a900067b97688267e0007b97708267e8007b97789568e01e8267f8007b97800064b77b6bf80033008e0128c2e78267f80081775617030728f6429567782849278003492778034927700349276803956700308377e0fb3300bc000a113302be0028ca88005022be00c688005022c00030890052070628c24233076001037b67f00083777b67c8003300c2000a048269f0003302c400287c83008269f0005022c4007483004929c0007b98b8007b97b000956820197b9aa80033075020c60032e73302c80095687818014928a000492898004928880002648933072095680019492990005020ca0009e79517e08477e07b67f8006471390850010256183f0b200350010240019517e08479e07b69e80064913307600102837783993308407b67c0000a09826ae80082a71882a81082a90882aa6f776f886f996faa826bf8007bba187bb9107bb8087bb7956778284927a00349279803492790034927880395670030837700fc0a119567782895790003829888007b68e800829890007b68e000829898007b68d8008297a0007b67d0009567e0188268f8005020cc0047e7956b781882ba6882b77082b87882b98000826cd0007bbc20826cd8007bbc18826ce0007bbc10826ce8007bbc087bb9407bb8387bb7309567c0189568a018956980187bba285020ce00db6b956a781882a76082a85882a95082aa48956b782895bc00037bc7c0007bc8b8007bc9b0007bcaa8009568202c8267f8005020d00047e7956760183308405020d2008de49567781882787b68e800957900ff8298f8007b68e0008298f0007b68d8008297e8007b67f800956778284927e0034927d8034927d0034927c80395670030837740fc3300d4000a11018267e8008268d800d487078268f800648c8269e000d49808d47808988820d49707977720d48707510706280d3f5022d60089860082b7c80082b8d00082b9d80082bae000956b78107bbae00795ba00077ba9d8007ba8d000956840187ba7c80064c75020d80016e58267c8003300da000a048269f0003302dc0028f882008269f0005022dc00f08200d4780298aa206f99979820d4a8089899203a0a400002956778107b7ac0073a0a4800023a0b5000023a0c5800027b7ab807957a00077babb0004927a0077baca8007ba998007ba8900033082095692018956a00187b7288078267f8003300de00951160ff7b1098007b1590007b1688009515a0008411e082ab7b1b3882ab087b1b3082ab107b1b2882aa187b1a20829a7b1a18829a087b1a10829a107b1a088299187b1964863300062849e833078268c000286b5b9567782849074917f84917f04917e895670030837760f80a1101956a782895ab00ff82b7f80082a882b9f00082bae800d49808d4a707d48707510706289b3f8267f80081775617030728983f9567ff079577a1023308405020e000a9e2956aff0795aa7995ac000282cb4082c83882c93082c7285022e200e68300510806287b3d3a08a00002492a2002492a18027ba808029568ff0795888102492a10027b67f80033008e012894e3956778284927a00149279801492790014927880195670030837700fa3300e4000a113302e600289c84005022e60098840082b7980082b8a00082b9900082ba8800d49808d4a707d4870751070628f53e8267f80081775617030728f23e956878284928c0014928b8014928b0014928a801019567ff079577c1069568202a5020e80005e49568ff07958879958900068297587b67e8008297507b67f8008297487b67f0009567ff079577a1063308405020ea00a8e1956aff0795aa7995ac000682cb4082c83882c93082c7285022ec00e58200510806287a3c8268e800978820988920492a20068268f00095ab00067bb8088268f8007bb8109568ff07958881067bb9187b67f80033008e012885e24929e0054929d8054929d0054929c80595670020837740063300ee000a113302f000281d85005022f00019850082b7d80082b8e00082b9d00082bac800d49808d4a707d4870751070628fe3d8267f80081775617030728fb3d95670020837760060a0a95677820827800067b68b800957900058298f8007b68b0008298f0007b68f8008297e8007b67f000956740033308405020f200b6e0956b000382b75882b85082b94882ba405022f400e87f51070628903b7b6a788263b00068379577408260b8006809da07098264f00068479577408262f8006828da270895878000d4030adaa709d8870c94ac8ecb8897f000857a01daca0b88b7019577ff9ab89accc9ac0a9a99ef007b68d8008e8c8e78da7c088eac7b69c80088990001859901dbac09dbb809d43408d4020bd4b808888801d49808644b948b5108062884408268c8008588ff008269d800d49808d47a09d49808520806286940826bc80095b9017b69e800889801c8a8087b68e000d49808888801826ad800c8a8087b68d000d8a808c887077b67d8009ab8ff007b68a0009a8980008267f0008268f8005020f6002e84007b6790007b68a8008267b0008268b8008269a0005020f8003984007b6788007b6880008267a0009579808267f0008268f8005020fa001b84007b67707b68688269a000889780007b6798008267f0008268f8005020fc00fa83007b68c0008268e0008269d800d489098268e800826ad000d4a808d49808826a980093a77b67c80052080628833f64a98267a80082688000d4870764ac826868da98078269b800649a64988269a000db970a7b6aa80082679000826a8800d4a707826a70daca07826bb00064badb970a7b6aa0008267c00093c77b67c000492690008051018267e80095798064b75020fe004083007b6798007b6880008267f0008268f8008269e800502000012583007b67707b6888008268e8009a8980008267b0008268b800502002012d830082698800d498088269e800889a80007b6a8800826b8000daab08826bf800db980b7b6bf800826870d4870782689800daa8078268f000db97087b68f0008267b0008268b80050200401bb82008264f0008263f8004926b8004926b00082698800939893977b679800826a900095a9ff7b6988008ea99599ff7b6980000198493f973a01d4a909974a018264a800984b3fd4ba0a7b6af800826080006437d39003d89002826b8800d8ab0cdb320c978801826b980098ba3fd4a8087b68f000987a3f97b701d47a0a974701826ba00098b83fd4870297b801826bc00098b33fd4380397b801826bc80098b43fd4480897bb018267b800d47b0b7b6bc8008267b000d478087b68c000d437087b68a000d427077b67a800c9a007d8c707d8a008826cf000c9c00bc98b0bc97b0b99b03f82679000d270078268f800c97804d87808c989039498c98a077b679800d88a08c98c08826ae800826ce000d4ca09889901826bd000d89b02c99b0988ab01c9bc0c826bd800c92b0b95aaff7b6ce0007b6bd800d4bc027b6ae800d49a0bd42b0a840b017b6bb8007b69d0004926b000520ae0fe28443d9567782849172049171849171049170895670030837780f80a1101956a782882a71882a82082a91082aa08d49808d4a707d4870751070628b5398267f80081775617030728b239956778284917404917384917304917289567ff07957701039568a02850200601a2de9568ff0795887995890002829798007b67e800829790007b67f800829788007b67f0009567ff079577e1023308405020080142dc956aff0795aa7995ac000282cb800082c87882c97082c76850220a017e7d5108062814378268e800978820988920492a60028268f00095ab00027bb8488268f8007bb8509568ff079588c1027bb9587b67f80033008e01281fdd49292007492918074929100749290807956700208377800733000c010a1101956a782095ab000750220e01027e51070628d9388267f80081775617230728d638956700208377a0073308040a0201956a782095ab000782b74082b83882b930d48707889801947852080628b33882a728077b6738956700208377c0070a0a019567782082746007827a58077b6ab0008272500782704807684768a8958940db470968276808958840db270895878000d44a0adaa709d8870c94ac8ecb8897f000857a01daca0b88b7019577ff9ab89accc9ac0a9a93ef007b68f8008e8c8e78da7c08883c000185cc018ea9dba90cdbb80c7b64a0007b62b800d442088264b000d44009d49808888801d4c808640b948b51080628641c8538ff00826cf800d4c808d47a09d49808520806284d1c64029539017b69f000889801c8a8087b68e000d49808888801c8c8087b68d000d8c808c887077b67d8009a38ff007b68c8009a89800064077b62a8008268b80050201001f87e7b67c0007b68f8008267b0008268a0008269c80050201201047f7b6790007b6888008267c8009579808267a8008268b80050201401e77e7b6780007b68788269c800889780007b6798008267a8008268b80050201601c67e826b98008262d000826cd8008269e000d49c0c826af000d42a0ad4ca0a93b77b67e800510a06287719330b28761b49294006492938064929300649292806956700208377a006330018010a1133021a0128257c50221a01227c82b73882b84082b93082ba28d49808d4a707d4870751070628eb368267f80081775617030728e8369567c00433001c019511a0fb951800047b80587b85507b8648951560048411e07b1758951700034917584917504917484917409517200395184003330030052883db8267d8047b67f8008267d0047b67f0008267c8047b67e8008267c0047b67e0009567a00433084050201e012dd9956b000482b7b80082b8b00082b9a80082baa000502220015b785107062803348267e000956900047b9780008267e8007b9788008267f0007b979000956880048267f8007b97980064a77b6af80033008e01280fda49296006492958064929500649294806956700208377c006330022010a1133022401280e7b502224010b7b50222601527a51070628f7358267f80081775617430728f4359567e005330028013302fe0428087c8267e0057b67f0008267e8057b67e8008067f0057b67e0009567c00533002a0133020805285f7c8267c0057b67f8004926b8058267e0007b67b0058267e8007b67a8059568a0058267f0007b67a005330750202c0168d949269805492690054926800507330720956880054926880550202e014ad93308500102390750010256173f0b200350010240019517e08479e07b69e00064913307600102837783997b68f0003308407b67e800330030010a093302320128f57450223201f274492678054926700549266805956860058267f8007b676005330750203401e2d88267c000956a00057ba7588267c8007ba7508267d0007ba748330720956840058269d8007ba94050203601b5d88268f000818756173f08480840019517e08477e07b67f800502238017d7733003a010a0933023c0128c87550223c01c5759567200550203e016cd9826738057b67f800826730057b67f000826728057b67e800826720057b67e000956700053308405020400113d7956b000582b71882b81082b90882ba50224201467651070628ee318267e000956900047b97e0008267e8007b97e8008267f0007b97f0009568e0048267f8007b97f80064a77b6af80033008e0128fad7492920064929180649291006492908069567002083778006330044010a113302460128f97850224601f67850224801d97851070628f6338267f80081775617430728f3339567600433004a013302fe0428f379826760047b67f000826768047b67e800806770047b67e0009567400433004c0133020805284a7a826740047b67f800492638048267e0007b6730048267e8007b672804956820048267f0007b672004330750204e0153d74926180449261004492600040533072095680004492608045020500135d73308500102390750010256173f0b200350010240019517e08479e07b69e00064913307600102837783997b68f0003308407b67e800330052010a093302540128e07250225401dd724926f8034926f0034926e8039568e0038267f8007b67e003330750205601cdd68267c000956a00037ba7d8008267c8007ba7d0008267d0007ba7c8003307209568c0038269d8007ba9c000502058019cd68268f000818756173f08480840019517e08477e07b67f80050225a01647533005c010a0933025e0128af7350225e01ac739567a0035020600153d78267b8037b67f8008267b0037b67f0008267a8037b67e8008267a0037b67e0009567800333084050206201fad4956b000382b7980082b8900082b9880082ba800050226401287451070628d02f8267e000956900037b97608267e8007b97688267f0007b9770956860038267f8007b977864a77b6af80033008e0128e0d595677828492700034927f8024927f0024927e80295670030837760fb330066010a113302680128997850226801967882b7f80082a8000382b9f00082bae800d49808d4a707d4870751070628d9318267f80081775617430728d6319567e01533006a013302fe0428c27795687810828768057b67f000828770057b67e800808778057b67e0009567c01533006c013302080528157833026e019569781001959a000582a7487b67f800492940058267e0007ba7388267e8007ba7309568a0158267f0007ba72833075020700115d5330272019568781001492820054928180549280805066489330720956880154929100550207401ecd43308500102390750010256173f0b200350010240019517e08479e07b69e00064913307600102837783997b68f0003308407b67e800330076010a093302780128977050227801947033027a019569781001492900054929f8044929f004956860158267f8007b97e804330750207c017bd48267c00095687810958900047b97e0008267c8007b97d8008267d0007b97d000648a330720956840158269d8007ba9c80450207e0144d48268f000818756173f08480840019517e08477e07b67f800502280010c73330082010a09330284012857715022840154719567201550208601fbd4330288019568781001958900048297c0007b67f8008297b8007b67f0008297b0007b67e8008297a8007b67e0009567001533084050208a0195d2956a781095ac000482c7a00082c8980082c9900082cb880050228c01057351070628672d8267e00095a900047b97688267e8007b97708267f0007b97789568e0148267f8007b97800064b77b6bf80050208e017ad33308208267f8005020900170d7837833092033070a0e280a33092033070a0e0149296005492958054929500549294805956700208377c005330092010a113302940128ef7550229401ec75502296019a73510706287b2f8267f80081775617230728782f95670003330098013302fe042850758267000382680803806910034926f8027b69f0027b68e8029568e0027b67e002330750209a01dfd24926d8024926d0024926c002023307209568c0024926c80250209c01c1d29517e08477e07b67d8006471390850010256183f0b200350010240019517e08479e07b69f800649133076001028377839933084033009e010a093302a0012881755022a0017e757b6ce8006f8b7b6bf0006f997b69e0006fa77b67f8008268d8007b87187b89107b8b087b8c9567a0025020a2013dd38267b8027b67d8008267b0027b67d0008267a8027b67c8008267a0027b67c0008267e8009577018878018269f000c8980895697820959a00057ba870d478087ba7688887018268e000c887077ba778d887078268f800c887077ba78000956780029568e0255020a401d2d2826798027b67b800826790027b67b000826788027b67a800826780027b67a0008268e800958702d88708826af000c88a09d8a90ada880a8268e000c88a0ad88a08826bf800c8b808956b782095bc00057bc8a0007bca98007bc990007bc7880095676002956800265020a60164d2826778027b679800826770027b6790008268e800958703d88708826af000c88a09d8a90ada880a826868027b68e8008268e000c88a0ad88a08826bf800c8b808826b60027b6be000956b782095bc00057bc8c0007bcab8007bc9b0007bc7a80095674002956820265020a801f6d1826740027b678800956720023308405020aa01b5cf95670002827b38827c30827a28827920d4ba07d4c908d47808988820d4c707977720d4870751070628802a8267c0007b6700028267c8007b6708028267d0007b671002956800028267d8007b67180264977b69f8007b6af0007b6bd8007b6cd0005020ac0188d08268f8008267d800826ad000d47a0a140b00000000010000001407e0ffffff00000000d878078269f000949794a752070628102a8387208268a000956c00017bc8e0008268a8007bc8e8008268b0007bc8f0009568e0018269b8007bc9f8007b6ad8007b6bd0005020ae011bd0826bd800826af0008268f8008267d0009577c0d8780794a794b752070628b7298387408268e000956a00017ba8c0008268e8007ba8c800826890007ba8d0009568c001826998007ba9d8005020b001cacf8269f8001407a0ffffff00000000d879078268f00094878268d8009487520706286329826788009777209878208397604926b8014926b0017b68a0019568a0014926a8015020b20180cf330880008267f8005020b40175d383783309800033070a0e280efc9567782849276006492758064927500649274806956700308377c0fe3300b6010a1101956a782895ab00065022b801a56f5107062843328267f800817756172307283632956700308377e0fe3308040a020195677828957c000682c8800082c97882ca7082cb687b68587b6a48d48a077b69507b6b40d49b08d48707520706284f2b1407ffffffff000000007b676033076001037b67800083777b67383300ba010a043302bc01287b6a5022bc01786a49294004959b00047bb8387bb7309568a0247bba2833075020be0198ce3302c00195697820014929200449291804492908040433072095688024492910045020c20171ce9517e08477e07b67f800647133084033075020c4015dd25022c60143713300c8010a09826af0003302ca01287f6d826af0005022ca01786d8268f8007b8a187b89107b8b087b87956760245020cc0112cf956778208079e803826760ab790628a82a9598017b68708887017b6768d487078877017b6778956740247b69f0008268f8005020ce01dace956a782080a7cc0395ab000382b8d80097772082b9d00082bae000826b78d4b808826b70d4b707826b68d4b909956b782895bc00067bcaa0007bc990007bc788007bc898009568002f8267f8005020d00108cf8268f0005428fe0008286b2a95670030837720ff0a0a01956778288274c006827ab8067b6ab8008272b0068270a806684768a8958940db470968276808958840db270895878000d44a0adaa709d8870c94ac8ecb8897f000857a01daca0b88b7019577ff9ab89accc9ac0a9a93ef007b68f8008e8c8e78da7c08883c000185cc018ea9dba90cdbb80c7b64a000d442086424826bb800d4b009d49808888801d4c80864029480510806286b1a8538ff00826cf800d4c808d47a09d4980852080628541a9539017b69f000889801c8a8087b68e000d49808888801c8c8087b68d000d8c808c887077b67d8009a38ff007b68c8009a89800064277b62b00064487b64a8005020d201d56f7b67c0007b68f8008267b8008268a0008269c8005020d401e16f7b6790007b6888008267c8009579808267b0008268a8005020d601c46f7b67307b68288269c800889780007b6798008267b0008268a8005020d801a46f826b98008262d000826cd8008269e000d49c0c826af000d42a0ad4ca0a93b77b67e800510a06288417330c287e195147b327d0610a28d4299567782849276001492758014927500149274801956700308377c0f93300da010a113302dc0128026d5022dc01ff6c5022de01396c51070628f3298267f80081775617030728f0299567ff079577a1053308405020e0016aca9567ff07957779957900058298407b68f8008298387b68f0008298307b68e0008297287b67e8005020e201e9c98267f8008268e000d487078268e800648a8269f000d49808d47808988820d49707977720d487075107062806253a098001033a088801033807900103956bff0795bb79492b200595bc00057bc7187bc8109568ff07958881057bc90864a75020e40113cb3308208267e800330090012805cf7b6ba0007b6aa8007b69b0009567401e3308405020e601b2c9956978188292e00595980005828cd800828bd0008287c800d42b0ad4c708d4a808988820d4ca0a97aa20d4a8085108062875244929b8054929b0054929a805140a0000000056a5a64d9568201e7b9ac0057b67b8007b6298007b6c90007b6b88005020e80185ca8267e0000a0401826bb8008267980082689000d487071408fcffffff00000000d88b0882698800949894785208062810248269f800829808140700000000240000007b67800081971082996f88978a206f77987720d47a0a9888206f97977920d4980898792083b704956c7818492ca00595cb00057bb998007bb890009568001e7bba88005020ea01fac90a0b8267a0006f779778208269a8006f99989920d4890a8268b0006f88978920987720d497079888207b67788269f8007b97087b6aa8007b9a7b68a0007a981095677828492740044927380449273004492728043308248267b8005020ec019ccd7b67b0003308208267b8005020ee018bcd956878284828480420492880044928780449287004492868048268f800978820988920140800000000180000007b6970d489029568a02c9788209888209569e02c979920d4890a8268b000978820988820826b8000d48b0b9777209877209568c02c978820d4780c3308ff3309ff64270a0151070628341e0a0d01330c20aec7080a0d647c0195697818826ab800826298008267900082688800492698007b6cb000959b00057bbc287bba48492930057bb850492938057bb758492940059567c01d9568a01d7b9260055020f0010a45826a98008ea78268b0005022f2018a665209062806289567801d8268b8005020f4015ac79568781801958b000582ba2082b91882b71082b8087b67b0007b6a9000d4a7077b68b8007b699800d49808d4870751070628391e9567401c8268f0005020f60144c93302f8019568781801958900038297d8007b6788008297d0007b67788297c8007b67a0009567201c3308405020fa01e7c69562781895280003828ac000828bb800828cb0008287a800d4ac09d4b708d49808988820d4b909979920d4980851080628aa214922980349229003492288037b6a68140a000000008cfb5cef9568001c7b2aa0037b67a8007b6b607b6c585020fc01bdc78267e0003300fe010a0401826ba800826768826860d487071408fcffffff00000000d88b08826958949894785208062847218269f800502200023866492c800395cb00037bb8787bb9709568e01b7bba685020020266c70a0b8267786f77977820826988006f99989920d498088269a0006f99979a20987720d4a707989920826af8007ba7087ba87aa91095677828492740054927380549273005492728053308248267a8005020040214cb7b67a0003308208267a8005020060203cb95697828959a0005481a4820492a8000ff491a78ff491a70ff491a68ff14080000000008000000826970d489029568a02d9788209888209569e02d979920d4890a8268a000978820988820826b8000d48b0b9777209877209568c02d978820d4780c3308ff3309ff64270a0151070628481f0a0d01330b20aeb7080a0d647b0195697818826aa800826760826858492688007b6ba000959c00037bcb087bca28492910037bc830492918037bc738492920039567a01b9568801b826b687bcb40502008028c42826a88008ea78268a00050220a020c645209062888259567601b8268a80050200c02dcc4956b781895bc000282c7e80082c8f00082c9f80082ba00037bcaa0007bc998007bc890007bc78800826790007bc7c000826798007bc7b8008267b0007bc7b0009567401b9568201b9569001b826ab8007bcaa80050200e028d4b95687818958900028297e0007b67c0008297d8007b67b8008297d0007b67b0008297c8007b67a80028efd69517e08478e06481d89307c87c02d8c209da7709c8b909d8b907c8a7077b82087b837b89107b87189567ff07957701057b6870502010024ac69567ff07957779957b000482bca00082ba980082b9900082b88800826be800d3bc007b6c58d8bc0c8263e000d83a077b6750da070c8264d800d349077b67487b6960d849077b68688262f800d82802826848da8207d33a08d40808da870c510c06286b23c93a08826958c9b909826a50c9a909d8780ac9a909c97808826760c94707c92707826a68826bf800c9ba0a956b78287bbac8007bb7d0007bb8d8007bb9e00095684029826770502012021bc68267d000847703826ab8008269b000826ca8005107ac0052170129019517e08478e06481826b9000d8cb07c8790cd89c09da7709c8a909d8a907826a9800c8a7077b68f0007b8c087b8b7b89107b87189567ff079577a104502014023cc59569ff07959979959b000482b73082b8288292400482ba38826bd800c87b0b826cf800c88c0cd88c08c88b0bd37b09d87b07da98078268e000c8a8088269e800c89202d8a809c829095022160212677bac087bab107ba7187ba8203307802928749567ff07957781048268f00050201802c9c49569ff07959979959b000482b71082b8088292200482ba18826bd800c87b0b826cf800c88c0cd88c08c88b0bd37b09d87b07da98078268e000c8a808d8a809826ae800c8a202c8290950221a029f667bac287bab307ba7387ba8403307a02901c876088267f00050201c02ddc428728267a00033001e020a048269c800330220022846608269c800502220023f60956bff0795bb798269e80095bc00037bc9e0008269e0007bc9d8008269d8007bc9d0008269f8007bc9c800492b00047bc8f8007bc7f0009567ff07957761049568ff07958841047bcae80050202202b3499567ff079577210433084050202402adc1956aff0795aa7995ab000382b7c00082b8b80082b9b00082baa80050222602d460510706287c1c8267f8009569ff07959979959b00037bb788008267d8007bb790008267e0007bb798009568ff07958801048267e8007bb7a00064a77b6af8005020280281c28267a00033002a020a048269c80033022c02283a5f8269c80050222c02335f956cff0795cc79492c2003492c1803826a80007bca0803826ac0007bca28033a0a2000023a0b280002492c1003492c40037bca80037bcb78033a0a3000023a0b380002492c3803492c30037bca700395ca00037bab687ba9587ba8507ba74864c73308209569ff079599e103956aff0795aac103956bff0795bba103956cff0795cc8103492760038267f80050202e02d0c433078268880033090a0e33086001028388330728e5388267f80082698800d49707826978dab9078263a000643a8262c800db270a7b6af8008267c00082699000d4970782698000dab907826cb00064cadb270a50223002666250203202ba647b6790007b6880008267a8008268b8008269f00050203402a0647b67787b6888008268f0009a8980008267b0008268a00050203602a96482698800d49808826af00088ab80007b6b880082698000dab9088269b800dba8097b69b800826878d4870782689000dab8078268a800dba70864a97b68a8008267b0008268a000502038023664330b330c50223a0255628263b8008264a800017b6bb80098493f973a01d49a02974a01826bf80098bb3fd4ba0a7b6aa8008269880064847b62b000d329086430d82903826b9000d8ab02db8302974801987a3fd4a8087b68a000980a3f977701d47a0a8267f800977701826bc00098b83fd4870097b801826bc80098b33fd4380397b801826be80098b43fd4480897bb018267b800d47b0b7b6be800d4c8087b68c800d43c087b68c000d40c077b67f800c9a907d82707d8a9088262a000c9290bc98b0bc97b0b99bc3f82679800d2c7078268a800c97804d878088267b000c987039478c98a07d88a08c98208826af0008260e000d40a09889901826bd000d89b02c99b0988ab01c9b000826bd800c92b0b95aaff7b60e0007b6bd800d4b0027b6af000d49a0bd42b0a84cb017b69d000330c520ae0fe8267e800977701d47b0b0184b7ff826838aa780628bb1c33076001037b67b00083777b67a80033003c020a048269b00033023e0228aa5a8269b00050223e02a35a4929e001959b00017bb8d8007bb7d0009568ff07958841027bbac80033075020400251bf9568ff079588794928c0014928b8014928a8010264893307209568ff07958821024929b0015020420226bf9517e08477e07b677064713308500102390750010256173f0b200350010240019517e08479e07b69f80064913307600102837783997b68e0003308407b67e800330044020a093302460228da6150224602d7616f8b6f986fa98267707b69f0007b79187b68f8007b78107b6bd8007b7b087b6cd0007b7c8267a800330048020a048269b00033024a0228c5598269b00050224a02be594929a001959b00017bb898007bb790009568ff07958801027bba8800330750204c026cbe9568ff079588794928800149287801492868010464893307209568ff079588e1014929700150204e0241be8268e000818756173f08480840019517e08477e07b67c80050225002095d330052020a09826ac8003302540228975e826ac80050225402905e95bc00077bca80007bc9787bc8707bc7689567ff079577c1019568e02750205602d7be9567ff07957779807748017b67a0008267a800330058020a048269b00033025a0228ec588269b00050225a02e55849294001959b00017bb8387bb7309568ff079588a1017bba28330750205c0296bd9568ff079588794928200149281801492808010564893307209568ff07958881014929100150205e026bbd8268e000818756173f08480840019517e08477e07b67c80050226002335c330062020a093302640228cd5e50226402ca5e7b6798006fa77b6790009517e08477e07b67c80064719569ff07959979492900014929f8004929f0009568ff07958861018267387b97e800330750206602fabc826790009568ff079588797b87e000826798007b87d8008267b8007b87d000648a3307209568ff07958841018269c0007ba9c80050206802c0bc8268e000818756173f08480840011407ffffffff000000007b6798009517e08477e07b67c00050226a027a5b33006c020a09826ac00033026e0228bf5b826ac00050226e02b85b8268c8007b8a187b89107b8b087b879517e08477e07b673064719567ff07957721015020700243bd330a01491660491668330c9568ff079588798287c0007b6790008287b8007b6788008269d000c8a909d8a907826bd800c8b7077b69587b6750d49707d8a7078269f800c897077b6748d897078269f000c897077b67408287b0007b6780008287a8007b677801330801dac8088267a000d8a707857701330901dac7093307db7809510939044926b8004926f0007b6af8008267a800330072020a048269b0003302740228d6568269b00050227402cf564929a0007b9898007b9790009568ff07958801017b9a880033075020760281bb9567ff0795777949278000491778491770647a3307209568ff079588e100491a68035020780259bb8268e000818756173f08480840019517e08477e07b67d80050227a02215a33007c020a0933027e0228065b50227e02035b9569ff079599798267f0007b97607b97587b97509568ff079588c1008267f8007b9748330750208002fdba8267c0009568ff079588797b87408267c8007b87388267d0007b8730648a3307209568ff079588a1008269d8007ba92850208202c7ba8268e000818756173f08480840019517e08477e07b67d800502284028f59330086020a09826ad80033028802282b56826ad80050228802245695687820958c00077bca88007bc990007bcb98007bc7a0009567ff07957781009568002850208a0256bb9568ff079588798287108477ff00520701018287088477ff826af8005107fd008269f0008e9788a80001858801db97088e978e9bda970b8267b800da780b7b6bd00083a980330701330850208c02835d7b67f0007b68d8008268f8008d898000330701330850208e02425d7b67b8007b68c0008169f8007b69c80033073308502090024e5d826bb800d47b0b8267f800887a80007b6ab8008269f000daa90b937b7b6bf0008269c000d489098268d800daa80993797b69d80033070133088269c800502092020b5d826bd8008262f000647c648a8267b800937c937a8267d000947b9472947a947c82678800d2270782689000d2b80882698000d2a909d49808826978d2c909d49707d4870751071d82689800826af80028078268980001330c95a701d2870a2853fd7b6ac8007b6cd0007b6bd8007b62f0009567ff07957761826870502094020dba9568ff0795887982878288f895690010829968f8956a001082a260f83a0ba800028e7c8e8adb7c0ad82b0b8e9cda9b0cd4780bdbba0c520c1982676095770182689800d287077b6760826af80028883a0ab00002c82a0ad82a0bc8b90c95ccffd39c02d89c09da2b09958bffc8b909d8b90b888801c98707c8b70795687820958b00077bbaa8007bbcb0007bb9b8007bb7c0009568202882677050209602eeb99517e08478e07b68c00064818267407b87188267487b87108267507b87088267587b879567ff07957741502098023db995670010827740f83a08a0000295690010829958f8956a001082aa48f8956b001082bb50f8c87808d87807c87a0cd8ac0ada770ac8ba0ad8ba07c8970795697820959b00077bb8c8007bbcd0007bbad8007bb7e000956840288267c00050209a025bb982676895770182689800d287077b67688267788269d000d497077b6778826780008269c800d497077b678000826788008269f000d497077b678800826790008269d800d497077b679000826af8002854fe8267308268787b78826880007b7808826888007b7810826890007b78188267a8000a048269b00082970881981082996f77977a206f88988820d48a0a9877206f98978920d4970798882095690010492938f8956900107b9830f8956800107b8728f89568ff07958821956700107b7a20f8330750209c021eb795670010492718f895670010492710f895680010492800f8053307209568ff0795880195690010492908f850209e02edb68268e000818756173f08480840019517e08477e07b67f8005022a002b5553300a2020a09826af8003302a40228d758826af8005022a402d0587b67f0006f877b67d8006f977b67d0006fa77b67c8009517e08477e07b67f80064714926f8074926f0074926e8079568e0078267387b67e00733075020a60273b68267c800956a00077ba7d8008267d0007ba7d0008267d8007ba7c8003307209568c0078269f0007ba9c0005020a80242b68268e000818756173f08480840019517e08477e07b67f0005022aa020a550a09826af00082a71882a81082a90882aa6f7b6f886f996faa8267f8007b7a187b79107b78087b7b8268305020ac0266b79567a0073308405020ae02acb495670007827bb800827cb000827aa8008279a000d4ba07d4c908d47808988820d4c707977720d4870751070628730f82676882689800d28707492698074926900749268807956880077b67800764977b69f8007b6af0007b6be0007b6cd8005020b00281b58269f8008267e0008268d800d487071408e0ffffff00000000d88908826af00094a8947852080628130f82676082689800d2780883972049267807492670077b68600795686007492668075020b20230b58267a8003300b4020a048269b0003302b6022812538269b0005022b6020b53d4780298aa206f99979820d4a8089899204926180749261007492608078267387b670007492638073a0ab800023a0bc000023a0cc800023a07d000027b6a5807956a00077bab507bac487ba7407ba9307ba82833084095694007956a2007956b00077b6220078267f8005020b802deb633078268e80033090a0e33086001028388330728b62b8267f80082698800d49707826928dab9078263a000643a8262c800db270a7b6af8008267c00082699000d49707826930dab907826cb80064cadb270a5022ba0238555020bc028c577b6790007b68308267b0008268a8008269f0005020be0273577b67287b6888008268f0009a8980008267b8008268a0005020c0027c5782698800d49808826af00088ab80007b6b8800826930dab9088269a800dba8097b69a800826828d4870782689000dab8078268b000dba70864a97b68b0008267b8008268a0005020c2020a57330c33005022c40229558263a8008264b000017b6cb80098493f973a01d49a0c974a01826bf80098bb3fd4ba0a7b6aa800826988007b6cb0006434d3c903d8c902826b9000d8ab0cdb320c978801987a3fd4a8087b68a000984a3f977701d47a0a8267f800977701826bc00098b83fd4870297b801826bc80098b33fd4380397b801826be80098b43fd4480897bb018267b800d47b0b7b6be800d480087b68c800d430087b68c000d420077b67f800c9a907d8c707d8a9088262a000c9290bc98b0bc97b0b99bc3f82679800d2c7078268a800c97804d878088267b000c987039478c98a07d88a08c98208826af0008260e000d40a09889901826bd000d89b02c99b0988ab01c9b000826bd800c92b0b95aaff7b60e0007b6bd800d4b0027b6af000d49a0bd42b0a84cc017b69d0003300520ae2fe8267e800977701d47c00017b60d000956720243308405020c60236b1956278208223c00395270003827cb800827bb000827aa8008e378ec8db37088eb788a9a08599017b6bf800dbb709d43c077b67d800db780951090628a80f95a760d8a708826bf800c88b097b6af000d8b90ada880ac8ca0ad8ca08c8830b7b2788037b2990037b2a9803330740956800247b2ba0037b6ce0007b63e8005020c802edb18269f000826ae000d4a9078268f800826be800d4b808d48707987720d4a808978820d487075207810b826740956a782095ab00037bb7688267487bb7708267507bb7789568e0238267587bb7800064975020ca0297b18268f000140a00000000010000001407e0ffffff00000000d878078269f80094978269d80094975107290b838920956778204927600349275803492750039568c0237b6ae800826ad0007b7a48037b69e00064975020cc023db18268f0008267e8009577c0d878078269f80094978269d80094975107dc0a140700000000ffffffff7b67e800838940956778204927400349273803492730039568a023492728037b69d80064975020ce02eab08267383300d0020a043302d202289a4c5022d202974c49292003959b00037bb8187bb710956880237bba0833075020d402b7b03302d6029569782001492900034929f8024929e80203330720956860234929f0025020d80290b033084033075020da0288b49518e08488e07b68f8006481837783893308403300dc020a09826af8003302de02287a52826af8005022de0273527b67d0006f877b67c8006f977b67c0006fa77b67b8009517e08477e07b67f80064713302e00295697820014929e002826778959a00027ba7d8008267687ba7d000956840238267707ba7c80033075020e20203b08267b80095687820958900027b97c0008267c0007b97b8008267c8007b97b000648a330720956820238269d0007ba9a8025020e402ccaf39085001025518400b200350010240019517e08479e07b69d00064913307600102837783993308400a09826ad00082a71882a81082a90882aa6f7c7b6cb8006f8b7b6bc0006f987b68c8006fa77b67d0008269f8007b97187b98107b9b087b9c956700238268f0005020e60224ae330700205022e8023d5182b7a00082b8980082b9900082ba8800956b782895bc00067bc7e0007bc8d8007bc9d0007bcac8009568402f8267f8005020ea0291b09517e0847be07b6bf80064b18267b8009577018878018269c000c89808d48709889901826ac800c8a909d8a90a826cd000c8ca0a7bba187bb9107bb8087bb79567e0228268e0005020ec0297ad95677820827768028477ff7b67f0009567c0228268f8005020ee02a6af95697820959a000282a76082a85882a950956a7828826bf00095ac00067bcbe8007ba700077bc8f8007bc9f0009568602f8267f8005020f002ecaf9567a0228268d8005020f20231ad330700205022f4024a5082b74082b83082b93882ba28d48707d4a909d497078e777b67f000956780228268f8005020f6022aaf330700205022f802175082b71082b80882b92082ba18847700ff826bf000d4b707956b782895bc00077bc9207bca187bc8087bc7109568802f8267f8005020fa0268af8267383300fc020a043302fe0228a5495022fe02a24949290002959b00017bb8f8007bb7f000956860227bbae800330750200003bfad3302020395697820014929e0014929d8014929c80102330720956840224929d0015020040398ad9517e08477e07b67f800647133084033075020060384b1502208036a5033000a030a09826af00033020c0328ca4b826af00050220c03c34b8268f8007b8b7b8c087b89107b87189567202250200e0339ae956778208277a801957701826860d287077b67f000956700228268f8005020100316ae956a782095ab000182b7900082b8980082b9a00082ba88008477ff8488ff8499ff826be800d2ba0a826bf000d4ba0a956b782895bc00077bc9407bc8387bc7307bca289568a02f8267f8005020120346ae9567e021330840502014038cab956a782095ac000182c7800082c87882c97082cb6850221603ff4b5207640682674095a900017b97488267487b97508267507b97589568c0218267587b976064b77b6bf800502018037bac82673833001a030a048269800033021c03285e4a8269800050221c03574ad4780298aa206f99979820d4a8089899203a0a0000023a0b0800023a0c100002956778207b7a4001956778207b7b3801956a7820492a0001956778207b7c30013a0a180002956b78208267787bb7f800956b78208267687bb7f000956b78208267707bb7e800956778207b7a2801956a78207ba91801956978207b981001956878207b8208013308209569a021956a8021956b602195677820492720018267f80050201e03f3ad95674021330840502020036faa956a782082a7e00082a8d80082a9d00082abc80050222203e34a52074805492ac0008267707ba7a8008267687ba7b000956820218267787ba7b80064b77b6bf80033008e01285eab9567c01f330840502024031aaa95677818957900078298607b68f0008298587b68e8008298507b68e0008297487b67f800330026030a0d3302280328b04950222803ad495208d60464799877205207cd0450222a03b54d50202c0307af956878288269e8007a8928068377956800308388a0fe33090a0c95677828817728062884009567e01d33084050202e0398a99567781895790005829880007b68f0008298787b68e8008298707b68e0008297687b67f800330030030a0d33023203282d49502232032a4952085304647998772052074a0450223403324d5020360384ae956878288269e8007a898804837795680030838800fd33090a0c9567782881778804018268f000ac8713040a0d016478987720520707048267f8007b68f000502038033fae83788169f0003307010a0e4926b8002855098267f8008268a8007b788268787b78088268a0007a78108267e0000a0501510777099567601d33084050203a03c1a8956978188292000595980004828bf800828cf0008287e800d42c0ad4b708d4a808988820d4ba0a97aa20d4a808520887034929d8044929d0044929c804140a00000000e072a6c29568401d7b9ae0047b62687b6b607b6c587b67880050203c0399a98267e00033003e030a048269f80033024003287b478269f800502240037447d4780298aa206f99979820d4a80398992082678800957a04d87a0b826758c8b70cd87c07dabb07826860c88707d8870b826868c88b0b956878187b8ba004958b00047bb798007bbc9000826790007bb760826798007bb7588267b0007bb7508267b8007bb7487bba88007bb9787b8370047b826804648b9567201d9568001d9569e01c956ac01c492b8004502042036026956878188287b0048282c0048283a804828ab804826858d3870bd8870c82608800d80304dab40c826960c99a0bd89a0a826968c99209c9a909d8cb0ac9a9097b6948c9cb0b7b6b40c98707c947077b6738c903077b67500a0b0164728267788268f8007b87088267a8007b878267a0007a8710956978284929c0044929b8044929b004826750647a826c40d4c707826848826b38d4b808d48707987720d4c808978820d487074929a8045207f80183a77b67a0008267880064a87b62785020440329ac7b67a8008267880033085020460319ac956a7828482ac8048268a0008e88826b788eb9fc08d498089a897ba9000595ab00047bb9f8007bb9f0007bb9e800978823826970d498029568202d9788209888209569602d979920d4890a8268a800978820988820826b5097bb20d48b0b9777209877209568402d978820d4780c3308ff3309ff64270a015207d700956a7818492a0004492af803492af003492ae8038267880095ab00047bb7088267587bb7108267607bb7189567801c9568601c8269687bb92050204803ad238267f000491718491710491708490728ecde9567c01b33084050204a0302a695677818957900038298607b68f0008298587b68e8008298507b68e0008297487b67f80033004c030a0d33024e0328984550224e0395455208be0064799877205207b500502250039d4950205203efaa956878288269e8007a898805837795680030838800fe33090a0c9567782881778805286cfc9567a01c3308405020540380a595677818957900048298407b68f0008298387b68e8008298307b68e0008297287b67f800330056030a0d3302580328164550225803134552083c647998772052073450225a031d4950205c036faa956878288269e8007a890805837795680030838880fd33090a0c956778288177080528ecfb009569ff079599794929f8044929f004140700000000223ab6fc7b9700059568ff07958861054929e804330750205e0315a6390850010256181f142003500102203308600102838828690333086001028388285f033308600102838828021d3308600102838828f81c3308600102838828ee1c3308600102838828e41c9569ff079599794929b8024929b002140700000000c611522c7b97c0029568ff07958821034929a80233075020600399a5390850010256181f142003500102203308600102838828ed023308600102838828e3029569ff079599794929d8024929d002140700000000223ab6fc7b97e0029568ff07958841034929c80233075020620345a5390850010256181f142003500102203308600102838828990233086001028388288f023308600102838828321c3308600102838828281c33086001028388281e1c3308600102838828141c33086001028388280a1c956978184929580649295006140700000000920575dd7b9760069568c01e49294806330733006c0328c2a43308600102838828d51b3302640395697810014929780749297007140700000000c611522c7b9780079568e017492968073307502066038ca4390850010256181f142003500102203308600102838828e0013308600102838828d6013308600102838828791b33086001028388286f1b3308600102838828651b33086001028388285b1b3308600102838828511b3308600102838828471b33086001028388283d1b3308600102838828331b3308600102838828291b33086001028388281f1b3308600102838828151b33086001028388280b1b3308600102838828011b3308600102838828f71a3308600102838828ed1a3308600102838828e31a3308600102838828d91a3308600102838828cf1a3308600102838828c51a3308600102838828bb1a3308600102838828b11a956778184927f8074927f0074927e8071407000000003bc167cc95686020956978207b97330733006c032867a3956778204917384917304917286479140700000000717b484e9568a0207b974033075020680342a3956878204918204918184918081164893307049568802049191033007403281ea333026a039569782001491958491950140700000000dd7c98e97b97609568c020491948330750206c03f6a2330804330750206e03eea6837828539569ff079599794929f8014929f001140700000000635bb2d57b9700029568ff07958861024929e801330750207003b6a2390850010256181f1320035001022033086001028388280a33086001028388013307013309040a0e01492298004922900049228800140700000000717b484e956800217b27a00033075020720367a295687820492880004918784918684164893307049568e0204919705020740346a23308243307502076033ea68378330701330924330078030a0e0152476eeb149cf2009567782849274002492738024927300249272802956700308377a0fa33007a030a1133027c0328da4450227c03d74482b73882b84082b93082ba28d49808d4a707d48707510762013308600102838828ec183308600102838828e2183308600102838828d8189569ff079599794929f8024929f002140700000000b878d6f47b9700039568ff07958861034929e802330733007e032889a19569ff079599794929780449297004140700000000b878d6f47b9780049568ff079588e10449296804330750207e035ba1826778817756171f0b8268784808200133070133090482688800330080030a0e015247275914a0d0009567782849278002492778024927700249276802956700308377e0fa330082030a113302840328e84350228403e54350228603ac425107de0033086001028388280918330860010283883307010a0e4926b80028074926b800018267c800977701826bb800d47b0b01492638034926300349262803956820037b6b200382677850208803aca033082082677833009001289fa43307018268c0000a0e013307018268c00033090a0e33086001028388330728a9178267f80081775617636e3308600102838828841752473a6750b63603956778284927200349271803492710034927080395670030837780fb33008a030a1133028c0328744150228c03714150228e033a4151075103330860010283882839178267f800817756174352033308600102838828241795670011330090033302fe04284442956878108287a0007b6770828798007b6768828790007b6760828788007b67509567e010330092033302080528934295687810828780007b67588287787b67488287707b67408287687b67789567c0103300940333020e05286742956878108287607b67388287587b67308287507b67288287487b6720956700308377c0fa0a0a019567782882726002827b58027b6bb80082745002827a48027b6aa000682768b8958940db2709684768a8958840db470895878000d42b0adaa709d8870c94ac8ecb8897f000857a01daca0b88b7019570ff9ab39accc9ac0a9a99ef008e3c8e07da0c07889c000185cc018ea8dba80cdbb70c7b6498007b62b000d42407826ba0008268b800d4b808d48707887701d4c707947b5207bd048597ff00d43707d40a08d487075107ac0450229603f03c502098030e427b67a8007b68c8008267b8008268b0008269c00050209a031a427b6790007b6888008267c0009579808267a0008268980050209c03fd417b6780007b68188269c000889780007b67108267a0008268980050209e03dd417b68d0008268f0008269e800d489098268f800826ae000d4a808d49808826a1093a77b67d80051080b0464a98267c80082688800d4870764ac8268185022a003bd3b5020a2036f417b67a8007b6880008267a000826898008269f8005020a40355417b67187b6888008268f8009a8980008267b8008268b0005020a6035e415022a803343f8268185022aa030a415020ac0323415022ae03d43c5022b003843dd89002826b8800d8ab0cdb320c5022b203063ed4870297b801826bd00098b33fd4380397b801826bd80098b43fd4480897bb018267b800d47b0b7b6bd8008267b000d478087b68d000d437087b68c000d427075022b403c339d89b02c99b0988ab01c9bc0c826be800c92b0b95aaff7b6cf0007b6be800d4bc027b6af800d49a0bd42b0a840b017b6bb8007b69e0004926b000520a67ff28ff0252478be3fdf28d039567782849276007492758074927500749274807956700308377c03300b6030a1101956a782895ab00075022b8036d3d52070e8267f80081775617239703330733085020ba03e7a083783307012807148267f8008177561723ba043308600102838828e1139567c0143300bc033302180528013f95677810827748047b67789567a0143300be033302080528653f95677810827728047b677095670030837700fb0a0a01956778288272a002827b98027b6bb80082749002827a88027b6aa000682768b8958940db2709684768a8958840db470895878000d42b0adaa709d8870c94ac8ecb8897f000857a01daca0b88b7019570ff9ab39accc9ac0a9a99ef008e3c8e07da0c07889c000185cc018ea8dba80cdbb70c7b6498007b62b000d42407826ba0008268b800d4b808d48707887701d4c70764b894787b68e800520702068597ff00d43707d40a08d487075107f1055022c003f9395020c203173f7b67a8007b68c8008267b8008268b0008269c0005020c403233f7b6790007b6888008267c0009579808267a000826898005020c603063f7b6780007b68688269c000889780007b67608267a000826898005020c803e63e7b68d0008268f0008269e800d489098268f800826ae000d4a808d49808826a6093a77b67d80051084c0564a98267c80082688800d4870764ac8268685022ca03c6385020cc03783e7b67a8007b6880008267a000826898008269f8005020ce035e3e7b67687b6888008268f8009a8980008267b8008268b0005020d003673e5022d2033d3c8268685022d403133e5020d6032c3e5022d803dd395022da038d3ad89002826b8800d8ab0cdb320c5022dc030f3bd4870297b801826bd00098b33fd4380397b801826bd80098b43fd4480897bb018267b800d47b0b7b6bd8008267b000d478087b68d000d437087b68c000d427075022de03cc36d89b02c99b0988ab01c9bc0c826be800c92b0b95aaff7b6cf0007b6be800d4bc027b6af800d49a0bd42b0a840b017b6bb8007b69e0004926b000520a67ff2840044926b800018267d800977701826bb800d47b0b01826778aeb770099567ff07957779826820957900077b98c8008268787b98e800956a78108268507ba8088268287b98d0008268407b98f0008268607ba8108268307b98d8008268487b98f8008268687ba8188268387b98e0008267587ba7956780109568601095694010826b707bab205020e003ce2233086001028388330728d21052474a45080e3a09956778204927200549271805492710054927080595670020837780053300e2030a113302e40328303c5022e4032d3c5022e603773a5107480933086001028388287610956720253300e8033302fe0428963b95687820958900048297b8007b67e0008297b0007b67f8008297a8007b67f000956878284928800749287807492870074928680701956700259568e02f5020ea03fc9995687820958900048297a0007b67e800829798007b67c800829790007b67d800829788007b67d00033076001037b67c00083773300ec030a048269c0003302ee03282e388269c0005022ee0327388269c800649b979920989920d398088269d000d39707d487078268d800d3a808d4870752078c088267e0009777209877208268f8008269f000d49808d478085108a00898b820978820d48707956978284929a0074929980749299007959a0007492a8800018268f0007ba8a8008268f8007ba8b0008268e8007ba8c0007ba7b80095670030956820305020f003a099330733085020f203269c8378330728470f9567c0173300f4033302180528563a95677810827748077b67e00033076001037b67e80083777b67d8003300f6030a048269e8003302f80328e3328269e8005022f803dc3249294007959b00077bb8387bb7309568a0177bba2833075020fa03ba973302fc03956878100149282007492818074928080703648933072095688017492910075020fe03919733075001027b67f800390750010256173f0c8268f800480840019517e08479e07b69d00064913307600102837783993308407b67f000330000040a09826ad00033020204286339826ad000502202045c397b67c8006f877b67c0006f977b67b8006fa77b67b0008267e00097772098792095677810492700074927f8064927f006956860177b69d0007b79e806330750200404fc968267b00095687810958900067b97e0008267b8007b97d8008267c0007b97d000648a330720956840178269c8007ba9c80650200604c5968267f800817756173f0c8267f800480740019517e08477e07b67e00050220804d5350a09826ae00082a782a80882a91082aa186f776f8c6f996faa951be084b8e0648195aa0188ab01c8b909d49a0b88bb01c8cb0bd8cb0cc8c7077b89087b8a7b8b107b8718956720177b68e00050200a044397956778108277a80651079c06956878108288b0068489ff005109bc0633020c0495697810014929980649299006140700000000c884c1c17b97a006956800174929880633073300a2042802964926b800018267d8009777018268b800d487077b67e800018267e800826870ab786d0833076001037b67e00083777b67b80033000e040a048269e0003302100428c4308269e00050221004bd3049290004959b00037bb8f8007bb7f000956860147bbae80033075020120498953302140495687810014928e0034928d8034928c803036489330720956840144929d003502016046f9533075001027b67f800390750010256173f0c8268f800480840019517e08479e07b69d80064913307600102837783993308407b67f000330018040a0933021a0428043550221a040135826778977720987920956778104927c0034927b8034927b003956820147b69b0007b79a803330750201c04f9948267c00095687810958900037b97a0008267c8007b9798008267d0007b979000648a330720956800148269d8007ba9880350201e04c2948267f800817756173f0c8267f800480740019517e08477e07b67d80050222004d233330022040a09826ad80033022404282230826ad800502224041b3095687828958c00027bcaa8007bc9b0007bcbb8007bc7c0009567e0139568202b50202604519595677810827768038477ff51072d07956778107c777003520721078268b000888700017b67a80083898033070133085020280499377b67d8007b68d0008268b0008d898000330701330850202a0458378269b000889a80007b6ac000826bd800daab0793977b67d8008267d000daa70893987b68d0008399330701330850202c044b378269c00093977b67c80093987b68c0008267b80033002e040a048269e0003302300428b92e8269e00050223004b22e49294003959b00037bb8387bb7309568a0137bba28330750203204909333023404956878100149282003492818034928080305648933072095688013492910035020360467938267f800817756173f0c8268f800480840018267c0008268a80093877b67c0008267c80093877b67c8008267d00093877b67d0008267d80093877b67d8009517e08477e07b67a800502238044b3233003a040a0933023c0428632e50223c04602e492900034929f8024929f002956860138267e8007b97e802330750203e04e6928267880095687810958900027b97e000826790007b97d800826798007b97d000648a330720956840138269a0007ba9c80250204004af928267f800817756173f0c8267f800480740019517e08477e07b67a00050224204bf31330044040a09826aa0003302460428e22f826aa00050224604db2f83772003c867075020480457933307001050224a04443482b7b80082b8a80082b9c00082bab00050224c04c93451074e058267b80033004e040a048269e00033025004282e2d8269e00050225004272d4929a002959b00027bb898007bb79000956800137bba880033075020520402923302540495687810014928800249287802492868020664893307209568e0124929700250205604d9918267f800817756173f0c8268f800480840019517e08477e07b67a80050225804e93033005a040a0933025c0428012d50225c04fe2c4929600249295802492950029568c0128267e8007b974802330750205e0484918267880095687810958900027b9740826790007b9738826798007b9730648a3307209568a0128269a0007ba928025020600450918267f800817756173f0c8267f800480740019517e08477e07b67a000502262046030330064040a09826aa0003302660428832e826aa000502266047c2e83778002c8670750206804f8913307001050226a04e53282b71882b80882b92082ba1050226c046e3351073c0433026e0495697810014929f8014929f001140700000000f08982c97b970002956860124929e80133073300a20428b39095697810491938491930140700000000d94b11cf7b97409568a0104919283307502070049090390850010256181f142003500102203308600102838828e4ed3308600102838828daed5247589c724003069567782049278006492778064927700649276806956700208377e006330072040a1133027404285d31502274045a3150227604df315107110633086001028388283c078267f80081775617231206330860010283882827073302780495697820014929780449297004140700000000c583c45f7b9780049568e02449296804330733006c0328da8f33027a0495697820014929580449295004140700000000c8f5bc147b9760049568c02449294804330733006c0328aa8f33027c04956978100149299805492990051407000000006d53a9a77b97a005956800164929880533073300a204287a8f1409ffffffff000000007b69c800956a781082a9b80682aac006868801956b782895bc00037bc7287bc9387bc8307bca409568a02b8267e00050207e04b1908267d800330080040a048269e80033028204282b2a8269e80050228204242a49298006959b00067bb8787bb7709568e0167bba68330750208404028f3302860495687810014928600649285806492848060264893307209568c0164929500650208804d98e9517e08477e07b67e00064718267f800817756173f0c8268f800480840019517e08477e07b67f80050228a04dd2d33008c040a09826af80033028e0428fa2c826af80050228e04f32c8268e0007b8b7b8c087b89107b87189567a01650209004698f95677810827728068268c800c88707d287077b67f800956780168268e00050209204458f956a781080a70c0697772095ab000682b82082b91882ba10826bf800d4b707956b782895bc00037bc8607bc9587bca507bc7489568c02b8267e00050209404858f8267d800330096040a048269e8003302980428f42b8269e80050229804ed2bd4780298aa206f99979820d4a808989920826ad000956778107b7aa8053a0a6000023a0b6800023a0c7000027b7a00067b7bf8054927c005957b00057bbcf0003a0a7800024927b8054927b0054927e0057bbae8007bb9d8007bb8d00095696016956a4016956b20167b72c8053307330850209a04b98f28fc0233029c0495697810014929180449291004140700000000635bb2d57b9720049568801449290804330750209e044a8d390850010256181f1420035001022033086001028388289eea330860010283882894ea3302a004956978100149295803492950031407000000006d53a9a77b9760039568c0134929480333073300a20428f48c956978104929b8004929b000140700000000b6e2a4af7b97c000956820114929a80033075020a204cd8c8267f800817756171f0c8268f800480820013307013309048268f0000a0e018267b8003300a4040a048269e0003302a604289b278269e0005022a60494274929e001959b00017bb8d8007bb7d000956840127bbac80033075020a8046f8c3302aa0495687810014928c0014928b8014928a801066489330720956820124929b0015020ac04468c8267f800817756173f0c8268f800480840019517e08477e07b67a8005022ae04562b3300b0040a093302b204286e275022b2046b274929a0014929980149299001956800128267e8007b97880133075020b404f18b8267880095687810958900017b978000826790007b9778826798007b9770648a3307209568e0118269a0007ba968015020b604bc8b8267f800817756173f0c8267f800480740019517e08477e07b67f8005022b804cc2a3300ba040a09826af8003302bc0428ef28826af8005022bc04e8288377c001c867075020be04648c956a781095ab000182b74882b85082b95882ba60826bc800d4b707826bc000d4b808826bd800d4b909826bd000d4ba0a956b782895bc00027bcae0007bc9d8007bc8d0007bc7c8009568402b8267a8005020c0048f8c8267b8003300c2040a048269e0003302c40428d5278269e0005022c404ce27956c7810492ce000492cd800492cd000826ae8007bcac800826ab0007bcae8003a0a8000023a0b880002492c0001492cf8007bca40017bcb38013a0a9000023a0b980002492cf000492c20017bca300195ca00017bab287ba9187ba81064c89569a011956a8011956b6011956c40117b870801330733085020c604808d33078268f00033090a0e3308600102838833072895015247628718686f019567782849278001492778014927700149276801956700308377e0f93300c8040a113302ca0428672b5022ca04642b5022cc04dc2b51076f01330860010283882839018267f8008177561723720133086001028388282401956780013300ce043302fe0428442c826780018268880180699001492678017b6970017b686801956860017b67600133075020d004d3894926580149265001492640010433072095684001492648015020d204b58933075001027b67f800390750010256173f0c8268f800480840019517e08479e07b69e800649133076001027b67f000837783993308403300d4040a09826ae8003302d60428f329826ae8005022d604ec2995bc00057bca407bc9387bc8307bc728956720019568a0255020d804388a8067200149261801492610017b6700013307800095680001492608015020da0424898267f800817756279f00188268f8004808a0008267f0008378800028a7b58267f00083788000289cb58267f80081770151072b330860010283880133070133090a0e3308600102838833070133090a0e33086001028388330728f333086001028388330728e88267f8008177561763f4013308600102838833070128d19567e0063300dc043302fe0428e12a8267f0067b67e8008267e8067b67f0008267e0067b67f800956878204928a006492898064928900649288806019567c006956800275020de044f898267c8067b67e0008267c0067b67d8008067d0067b67d00033076001037b67c80083773300e0040a048269c8003302e2042891278269c8005022e2048a278269d000d398088269d800d39707d487078268e000d3a808d4870752075d028267e8009777209879208267f8008268f000d487077b69e800d49707510786021407ffffffff000000007b67e000956778204927c0064927b8064927b0064927a80695678006956820275020e404a288826890067b68c800826788067b67d800826780067b67d000826798069888209788208269e800d49808956978204929e0064929d8064929d0064929c806826af000959b00067bbaf000826af8007bbae8007b9700077bb8f80095674027956860275020e604bc888267d0008477ff8269d8008498ff8269e000826ac800d2a90949263806826ae800956c00067bca30826af0007bca28826af8007bca20492658067bc9507bc8483a08d800023a09e000023a0ae800027bc7407bc8787bc9707bca683a07f0000295696006956a4006956b20067bc760330733085020e8040d8933086001028388330728effd9567ff07957761063300ea043302fe0428fa289568ff07958879958900058297e8007b67f8008297f0007b67f0008297f8007b67e800828700067b67e0009567ff07957741063300ec0433020805283a299568ff07958879958900058297c8007b67d8008297d0007b67d0008297d8007b67c8008297e0007b67c0009567ff07957721063300ee0433020e0528fc28956bff0795bb7995bc000582c7a80082c8b00082c9b80082cac0007bca607bc9587bc8507bc7488267c0007bc780008267c8007bc7788267d0007bc7708267d8007bc7688267e0007bc7a0008267e8007bc798008267f0007bc790009567ff07957701069568ff079588e1059569ff079599c105826af8007bca88005020f004ce0e33086001028388330728d2fc4926b0064926a8064926a006140700000000c583c45f9568a0067b67b80633075020f2048185390850010256181f142003500102203308600102838828d5e23308600102838828cbe2492610064926080649260006140700000000920575dd956800067b67180633075020f4043885390850010256181f1420035001022033086001028388288ce2330860010283882882e29511c07b10387b15307b16289515408411f0828910828a18828b088288d4ba0ad4980bd4ab0b98bb20d4a909979920d4b90952091e647664175020f6049c835022f8049d25510a0c5022fa04f2263200003308600102838833070133093300fc040a0e3302fe0428f4265022fe04f126330000050a0233020205286225502202055f25510a0b50220405b4263200330860010283883307013309330006050a0e330208052835275022080532273308240a0201821718821810821908d4780a889b0194ab510b0d821a50220a054a24320033086001028388330701330933000c050a0e33020e0528f22650220e05ef26330844330010050a023302120528d92550221205d625520b0b502214050a243200330860010283883307013309330016050a0e3302180528342650221805312633001a050a0233021c05289c2550221c059925520b0b50221e05cd233200330860010283883307013309330020050a0e01951170ff7b1088007b1580007b1678951590008411f064728289827408828c088273959a1fd89a00c80c0984aae07b1308c8a303d8a30bc8490ac8ba0ad39a06d89a07da6b07822b18d8c90c828610822210828818da000cc86c0cd86c06c82c09c89707d8c90cd89709c8b808c86808c8c808c8980c8ec88e79dbc809d4c7088ea6db8906520657821808d88308d34a09d84a06da9806d82708d3bc09d8bc0bda980bd32708d49808da860b520b307b13507b1a587b17603307409518507b1c6850202205ed82955170ff821088008215800082167895119000320050222405392550202605cc824911284911204911104133070495181049111850202805b382390850010256183f0b200350010240013308600102838833070133092433002a050a0e01951150ff7b10a8007b15a0007b1698009515b0008411f0828c10828b1882860882827b1b407b1638d4b608d4c20bd48b0b98bb207b1c48d4c808978820d4b8087b17305208da00642682a7187b172882a7107b172082a7087b171882a77b17108297108298088299977720987720492188007b19707b18789518707b178000642750202c050882821948821a40d4a9071408e0ffffff00000000d88608821b3894b894785108799567407b1708d86707c87b087b18d8b808da7708c898087b1838d89807c8a7077b17488367208218107b18508218187b18588218207b18609518508219287b196850202e05a1818217308218387b781082187b78088218087b788218487b7818955150ff8210a8008215a000821698009511b000320000951a000382a73082a92882a8207b1788009777209877207b1890007b198000d49808d4870751079c0695170003330840502032050180951a000382a91882a61082a80882a77b18a0007b19a800d48909d46708d49808988820d46909979920d4980852085e06951a0002492af000492ae800492ae00014090000000056a5a64d9518e0027ba9f8007b17b00050203405df8033076001037b17b80083777b179800330036050a0401821bb0007b16788217a800d467071408fcffffff00000000d88b088219a000949894785108f5058216b80050223805cf20d48a0a9877206f98978920d4790998882083b704951b0002492bd8007bb8d0007bb9c8009518c0027bbac00050203a0566800a0b821780006f77977820821988006f99989920d4890a821890006f88978920987720d497079888207b17607b67087b1a707b6a7b18687a6810951700034917784917704917684917603308248216b000646750203c0510847b179000330820646750203e0501844821800320951800034928b8004928b0004928a8004928a0008218b800978820988920140800000000180000007b1948d48902951860039788209888209519a003979920d4890a8218900097882098882014090000000024000000d4980b97772098772095188003978820d4780c3308ff3309ff64270a015207e0030a0d01330b20aeb7080a0d647b0133068219b000821aa8008217788218a0007b1ba800951c00027bcb607bc98000491c687bc88800491c707bc79000491c7895178002951860027bca98005020400583fb8218a800888820858801330764793306da68095109b504951740028218b00050204205d27dff95170002827958827a50827b48827c40d49b07d4ac08d487078216b800510723037b1c507b1b787b1a80007b1988008217707b678217607b67088217687a6710821798000a0501510768049517200233084050204405797dff951b000282b93882ba3082b72882b8207b1790007b19a800d497077b18b000d4a808d478089888207b1aa000d4a707977720d487075207cc03951900024919104919084909140700000000e072a6c2951800027b97188217b00050204605527eff82179800330048050a0433024a0528741e50224a05711ed4a8029877206f98978920d49707988820821ab00095a904d8a90a821b9000c8ab0cd8bc06daaa06821aa000c8a606d8a60a821ba800c8ba0a821b88007b1b9801821b80007b1b9001821b787b1b8801821b507b1b80014921b8017b1ad8017b16d0017b1cc8017b19c0017b18b0017b17a8019517e0019518c0019519a001951a80017b12a00150204c0524fb8217e8018214f8018212e001821af00182199000d3970bd8970c64938219b000d89206dab60c8218a000c98a0bd88a0a8218a800c98408c9a808d8cb0ac9a8087b1840c9cb0b7b1b38c93707c967077b1730c992060a0b017b17288217608218b8007b87088217707b878217687a8710951b0003492bf800330c492bf000492be800821938d49607821840821a30d4a808d48707987720d49808978820d48707492be0005207580283677b176864687b16208216b000646750204e05f2807b17706467330850205005e580951b0004480b8218688e88821a288ea9fc08d498089a897bb9387bb9307bb9287bb920978823821948d498029518e00397882098882095192004979920d4890a821870978820988820821b2097bb20d48b0b97772098772095180004978820d4780c3308ff3309ff64270a0152074501492138014921300149212801492120018217b0007b174001821790007b1748018217a0007b17500195174001951820018219a8007b1958015020520586f882179800330054050a048219b800330256052812198219b800502256050b19821988007b19f800821980007b19f0008219787b19e8008216507b16e000492118017b1810017b170801951700019518e0007b1a0001502058059402646c821b78821a800082198800018217587b7c7b7b087b7a107b79189551a0fb951700048270588275508276489511600432009517a00233084050205a055f7aff951800028287b8007b17b8008287b0007b17b0008287a8007b17a8008286a00033005c050a0d33025e05285d1d50225e055a1d5208b40064769877205207ab0083677b17b0008217b800646850206005497fff7a16c00383778318c00333090a0c8117c00328709517600133084050206205ea79ff821778017b17b800821770017b17b000821768017b17a80082166001330064050a0d3302660528ec1c50226605e91c520843647698772052073b83677b17b0008217b800646850206805da7eff7a16400483778318400433090a0c81174004018218b000ac870e0a0d016476987720510767004921d0004921c8004921c000140700000000920575dd9518c0007b17d800330750206a058a7aff390850010256181f0b20035001022001330860010283883307013309040a0e01330860010283883307010a0e013308600102838833070133090a0e018217b800646850206c05447eff837883693307010a0e28db9511907b10687b15607b16589515708411f0828a187b1a08829b1882847b14828a08829608829c828310829210c8a609c8c404d8c40cc8c909d36900d86906da0c06c83208821c08c8bc0cd8280bc8cb0bc8680cd88c08c88b00d3a90bd8a90a8218d88406dbba06d83c02821808d3800bd8800adab20ad33c08d4b808db8a0652061f7b747b79087b7c107b7018955190821068821560821658951170320050226e05f71b502070058a79ff49112849112049111011330704951810491118502072057079ff390850010256183f0b2003500102400133086001028388330701330924330074050a0e019511a0fe7b1058017b1550017b164801951560018411e082897b19388289087b19308289107b19288288187b182082787b18188278107b18108276080a0b6f68978920821a106faa98aa20d4a909988820821a186faa330b60010397ac20d4c80898aa203d0a7001033e086801033e096001038218207b18f8008218287b18f0008218307b18e8008218387b18e000482100018e77fc089a787b1838017b1830017b1828017b18200197bb2098bb20977723d4b7079518e000978820988820330b60010295192001979920d4890a7b1b0897bb2098bb2095180001978820d4b80c3308ff3309ff0a64760a0d01510717017b16100a0d64769517c000330840502076050c77ff8212d800821cd0007b1c308213c8007b13388214c0007b142895671f7b1618d867088477e0957920d87907c8780ad88a0bda770b492198007b19800064267b12b8007b1cb0007b13a8007b14a0007b1a88009517a000951880007b1b90005020780533f48217287b1620821938d46909821a30d4a708d49808988820d4a909979920d49808520892004911784911704911689518608219187b1960647650207a05a277ff0a0d01821820821930d498081409e0ffffff00000000d89609821b3894b99489510953646a647698772052074983a72083687b1838646850207c05677bff7a16400183778318400133090a0c0181174001821610821838ac871c52061a9551a0fe8210580182155001821648019511600132000049115049114849114014070000000018ecb8909518407b1758330750207e050c77ff390850010256181f0b20035001022001811808330701330904330080050a0e01951108f8951a00077ba0f0007ba5e8007ba6e0009515f8079511f8fd8411e0641682997b69900082887b68688279827808807710956a0010492a18f87b679800956a00107ba710f87b68a000956700107b7808f89568ff079588017b69a800956700107b7900f83307502082057c76ff4926f8074926f0074926e007033307209568e0074926e807502084055d76ff3308500102390750010256173f0b200350010240019517e08479e07b698800649133076001027b6730837783997b68b0003308407b67b800330086050a09826a880033028805282c18826a88005022880525187b6788006f877b6780006f977b67786fa77b6760826790009777209877204926d8074926d0074926c8079568c0077b67707b67c007330750208a05cc75ff826760956a00077ba7b8008267787ba7b000826780007ba7a8003307209568a007826988007ba9a00050208c059c75ff8268b000818756173f08480840019517e08477e07b67900050228e057014330090050a09826a90003302920528ff10826a900050229205f810956800107b8a20f8956800107b8928f89568ff079588317b8b7b8708956780079568ff07958821502094052776ff826780075107060f826870888700017b676083898033070133085020960583187b6788007b6890008268708d8980003307013308502098054318826970889a80007b6a8000826b8800daab0793977b67880082679000daa70893987b6890008399330701330850209a0537188269800093977b677893987b688000492678078267a8007b6760078267a0007b67680795686007826798007b677007330750209c059174ff49265807492650074926400705330720956840074926480750209e057274ff8268b000818756173f08480840018267800082686093877b67800082677893877b67788267900093877b6790008267880093877b6788009517e08477e07b67605022a0051e133300a2050a093302a40528bd105022a405ba108267688477ff492638074926300749262807956820077b67687b67200733075020a605f373ff826740956a00077ba7188267487ba7108267507ba708330720956800078269587ba95020a805ca73ff8268b000818756173f08480840019517e08477e07b67585022aa059f123300ac050a093302ae0528b7105022ae05b4109567e0065020b0058174ff956b000682b7f00082b8e00082b9f80082bae8005022b20504135107720d4926d8068267a8007b67c0068267a0007b67c8069568c006826798007b67d00633075020b4054873ff4926b8064926b0064926a006073307209568a0064926a8065020b6052973ff8268b000818756173f08480840019517e08477e07b67605022b805fe113300ba050a093302bc05289d0f5022bc059a0f492698064926900649268806956880068267687b67800633075020be05d972ff826740956a00067ba7788267487ba7708267507ba768330720956860068269587ba9605020c005af72ff8268b000818756173f08480840019517e08477e07b67585022c20584113300c4050a093302c605289c0f5022c605990f956740065020c8056673ff956b000682b75082b84082b95882ba485022ca05ed115207830c492618068267a800956900067b978267a0007b970895680006826798007b971033075020cc053172ff4926f8054926f0054926e005073307209568e0054926e8055020ce051272ff8268b000818756173f08480840019517e08477e07b67605022d005e7103300d2050a093302d40528860e5022d405830e4926d8054926d0054926c8059568c0058267687b67c00533075020d605c271ff826740956a00057ba7b8008267487ba7b0008267507ba7a8003307209568a0058269587ba9a0005020d8059471ff8268b000818756173f08480840019517e08477e07b67585022da0569103300dc050a093302de0528810e5022de057e0e956780055020e0054b72ff826780058268880582699005826a9805826b78d4b707826b8000d4b808826b8800d4b909826b9000d4ba0a956bff0795bb317bba287bb9207bb8187bb7109568ff079588418267605020e2057d72ff49267805826798007b6770058267a0007b676805956860058267a8007b67600533075020e405e170ff4926580549265005492640050233072095684005492648055020e605c270ff8268b000818755174008480840019517e08477e07b67605022e805970f0a09826a6082a782a80882a91082aa186f726f8c6f996faa9517e08478e064817b6a1095a701887a017b6918c8a90bd4b709889901c8c9097b6c20d8c90a7b6228c82a0a7b8b087b877b89107b8a18956720057b68585020ea053a71ff82623805956b000582b83082b9203a07f8000282ba28d4280b7b6760d8790c94ac94bc520c720a3a0b000102c89b0bd89b09c89a0c95ccffd3ac07d8ac0ada790a9587ffc87a0ad87a07888801c98208c887079568ff079588317b8b307b8c387b8a407b87489568ff079588618267585020ec054471ff4926180582679800956900057b97108267a0007b9708956800058267a8007b9733075020ee05a86fff4926f8044926f0044926e004063307209568e0044926e8045020f005896fff8268b000818756173f08480840019517e08477e07b67585022f2055e0e3300f4050a09826a583302f605287411826a585022f6056e117b67506f877b67486f977b67406fa77b67389517e08477e07b675864714926d8044926d0044926c8049568c0048267687b67c00433075020f805166fff826738956a00047ba7b8008267407ba7b0008267487ba7a8003307209568a0048269507ba9a0005020fa05e86eff8268b000818756173f08480840019517e08477e07b67505022fc05bd0d3300fe050a09826a503302000628f60d826a5050220006f00d8268587b8a187b89107b8b087b8795678004502002068b6fff956b000482b7900082b8800082b9980082ba8800502204060e0e510717031407ffffffff000000007b67b0009567ff079577314927e8004927e0004927d8004927d000956760049568ff079588010150200606356fff956a000482a76882a87082a9608477ff826bb000d2b8088499ffd49808d487075107b2059567ff0795773149272801492720014927180149271001956740049568ff079588410150200806e76eff956a000482a74882a85082a9406f77977a206f88988820d4a80b9877206f98330a600103978920d497079888207b68583d087001037b67503e076801037b6b783e0b6001037b6a800083a70a050151071c089567200433084050200a065b6cff956b000482b93882ba3082b72882b8207b67b0007b699000d497077b68b800d4a808d478089888207b6a8800d4a707977720d48707520734074926100449260804492600041407000000002e77c9ad956800047b6718048267b80050200c06336dff8267900082698800d47909140700000000010000007b67401407fcffffff000000008268b800d878078268b00094877b694894975107d3068267b8008377044926f8038268a800956a00037ba8e0008268a0007ba8e8009568e003826998007ba9f00050200e06c96cff8267409577dc8268b800d878078268b00094878268489487510785068267b8008377244926d8034926d0034926c8039568c0038269607b69c00350201006886cff0a0b826880008267507b87088267787b878267587a87109567ff079577314927480149274001492738018268607b7830013308448267b800502012064c70ff7b67788267b8003308502014063c70ff9569ff0795993148295001959a0001492a8800ff492a8000ff491a78ff491a70ff8268800097882098882014090000000008000000d498029568ff07958861019788209888209569ff079599a101979920d4890a82687897882098882014090000000044000000d4980b9777209877209568ff0795888101978820d4780c3308ff3309ff64270a015207cf04492678034926700349266803492660038267b800956a00037ba780008267b0007ba78800826788007ba790009567800395686003826990007ba9980050201606bce728970350201806d369ff3a088001037b6890003a089001037b6888003a078801037b6780000a0b826880006f88978920826a88006faa98aa20d4a909988a20826890006f8b330860010397bc20d4ca0a98bb203d0b7001033e0a6801033e09600103956aff0795aa31491a68491a60491a588269607ba950481a708e77fc089a797ba9a8007ba9a0007ba998007ba99000978820988820977723d487079568ff07958881009788209888209569ff079599c100979920d4890a826b3097bb2098bb209568ff079588a100978820d4b80c3308ff3309ff0a7b6790000a0d0151073f010a0d7b67589567600233084050201a063c69ff826c78027b6c78826270027b6250826368027b638000826460027b64880082685895871fd887088477e0957920d87907c8780ad88a0bda770b492638027b692002956900027b9c587b6250027b6348027b6440027b9a2895674002956820027b9b3050201c065fe68267880082687882698000d48909826a50d4a708d49808988820d4a909979920d498085208bf03492618024926100249260802956800028269587b69000250201e06c969ff0a0d01826a8800826878826950d498081409e0ffffff00000000d89a09826b800094b9948951097803647898772052076f0383a72064897b68800083887b688800649850202006826dff9568ff07958831826980007a89b0008377956800108388e0f833090a0c019567ff079577318177b00082688800ac872603826790005207cb039567c00133084050202206fe67ff956b000182b7d80082b8d00082b9c80082bac000502224062b075207f2024926b8014926b0014926a8019568a0018267607b67a00164a77b6ab80050202606f668ff4926380149263001492628018267687b6720014926580149265001492648018267707b67400149267801826798007b6770018267a0007b6768013a072801023a083001023a09380102826aa8007b6a60017b6798017b6890017b6988013a0740010233082095698001956a6001956b4001956c20017b6780018267b80033003206286e6bff9517e0847ce064c1826810958702d88708826a18c88a09d8a90ada880a826820c88a0ad88a08826b28c88b0b64c87b6cb8007bc9087bc77bca107bcb1895674003502028061b69ff956b000382b74082b85882b94882ba50826b60c87b0bd87b07c8790cd89c09da7709c8a909d8a907c887079568ff079588317b8bf0007b8cf8007b8900017b8708019568ff07958821018267b80050202a064769ff9567200333084050202c068c66ff956b000382b73882b83082b92882ba2050222e06bd0552078401492618034926100349260803956800038267607b67000364a77b6ab800502030068867ff4926980249269002492688028267687b6780024926b8024926b0024926a8028267707b67a0024926d802826798007b67d0028267a0007b67c8023a070801023a081001023a09180102826aa8007b6ac0027b67f8027b68f0027b69e8023a072001023308209569e002956ac002956ba002956c80027b67e0028267b80050203206046aff955100f8951100fe95110802951700078270f0008275e8008276e0009511f80732009567a003330840502034069a65ff956800038287b8007b67b0008287b0007b67a8008287a8007b67a0008287a0007b67b8000a0d018268b0008269a000d49808826aa8008269b800d4a909d48909989920d4a808978820d4980852085c98782052085664787b67a80083777b67b0008267b800502036066b6aff9568ff079588318269a8007a8990018377956800108388c0f933090a0c019567ff07957731817790018268b000ac870f0a0d0164789877205107f700004926d0004926c8004926c0001407000000006d53a9a79568c0007b67d800330733003806280066ff4926f0004926e8004926e000140700000000b6e2a4af9568e0007b67f80033073300380628d865ff49263006492628064926200614070000000000f90f56956820067b67380633073300380628b065ff492610014926080149260001140700000000b878d6f4956800017b671801330733003806288865ff3307018268b80033090a0e014926f0014926e8014926e00114070000000018ecb8909568e0017b67f8013307502038065865ff8267b000817756171f0c8268b000480820013307013309048268b8000a0e018267b8007b68b00050203a062d69ff83788169b0003307010a0e330733003c06284a69ff330750203c064469ff33070150203e063a69ff82970881981082996f77977a206f88988820d48a0a9877206f98978920d4970798882095697810320282970881981082996f77977a206f88988820d48a0a9877206f98978920d497079888209569ff079599793202826aa80082a71882a81082a90882aa6f777b67a0006f877b6798006f977b6790006fa77b6788009517e08477e07b67a800647133077810c87609320282a782a80882a91082aa186f776f886f996faa95aa0188ab01c8b909d49a0b88bb01c88b0bd88b08c8870732028269800082970881981082996f77977a206f88988820d48a0a9877206f98978920d49707988820956978203202826ae00082a71882a81082a90882aa6f777b67d8006f877b67d0006f977b67c8006fa77b67c0009517e08477e07b67e0006471320282970881981082996f77977a206f88988820d48a0a9877206f98978920d497079888209569781832027b67c800c9a007d8c707d8a008826c9800c9c00bc98b0bc97b0b99b03f82679000d270078268a000c97804d87808c989039498c98a077b67a800d88a08c98c08826af800826cf000d4ca09889901826be0003202826a6082a71882a81082a90882aa6f777b67586f877b67506f977b67486fa77b67409517e08477e07b67606471320282970881981082996f7a97a7206f88988820d4870798aa206f99979820d4a808989920320282970881981082996f77977a206f88988820d48a0a9877206f98978920d497079888203202826a5882a71882a81082a90882aa6f776f8b6f996faa8268607b8a187b89107b8b087b873202826af80082a71882a81082a90882aa6f776f8b6f996faa8268e0007b8a187b89107b8b087b87320282a71882a81082a90882aa6f776f8b6f996faa8268a8007b8a187b89107b8b087b87330700103202da98078269b000649a64988269c000db970a7b6ac8008267a800826a9000d4a707826a8000daca07826bb80064badb970a7b6ac0008267d00093c77b67d000492690008051018267f80095798064b73202888820858801dba7088ea78ea9daa709d4aa07da7809320282970881981082996f7a97a7206f889888203202d49707d48a09d47909989920d48707977720d4970732029598017b68f800888701c8a7077b67f000d48707887701c837077b67e000d83707c807077b67e8009a98ff007b68c0009a8980008267a00082689800320282a782a80882a91082aa186f776f886f996faa95ab03d8ab0ac8a90cd89c09daaa09c88909d88908c8870732028268f0008269e000d49808826ae8008269f800d4a909d48909989920d4a808978820d49808320282970881981082996f77977a206f88988820d48a0a9877206f98978920d4790998882083b704330b7818c8b60c3202647183793308408267e8003202647183793308408267b80032028264a000826398004926b8004926b00082698800939893977b67a800826a900095a9ff7b6988008ea99599ff7b6980003202647183793308408267f000320282a71882a81082a90882aa6f776f8b6f996faa3202d49707d48b09d47909989920d48707977720d49707320282970882988199106f77987a206f88978b20d4ba0a9777206f99989920d497079888203202826b8800d2b707826b78d2b808826b9000d2b909826b8000d2ba0ad4a909d48707d49707320298493f973a01d4a909974a018264c800984b3fd4ba0a7b6aa000826080006437d390033202826ad80082a71882a81082a90882aa6f777b67d8006f877b67d0006f977b67c8006fa77b67c00032027b6a7b69087b68107b67189551c08210388215308216289511403202d49b0bd48709d4b909989920d4b808978820d49808320282670881681082696f77977a206f889888203202978801826ba80098ba3fd4a8087b689800987a3f97b701d47a0a974701826bc00098b83f320282b75882b86082b95082ba48d49808d4a707d48707320282a71882a81082a90882aa6f776f886f996faa956b7820320282ab7b1b1882ab087b1b2082ab107b1b2882aa187b1a308296829a087b1a829a107b1a088299187b1910320282171082181814090000000001000000d37909d48909987a2088aa01948a939a32027b6ac00093b87b68c800492698008051018267f00095798064c76438320282b71882b82082b91082ba08d49808d4a707d48707320233077820c8760a95ab0006320233077828c8760a95ab0001320233077828c8760a95ab0003320282698800d498088269f800889a80007b6a8800826b8000daab08826b9800db980b7b6b980032028269880093989397826a980095a9ff7b6990008ea99599ff7b6988003202826ac80082a71882a81082a90882aa6f777b67c0006f877b67b8006f97320282b77882b8800082b97082ba68d49808d4a707d487073202821718821810821908821ad4790bd48a0cd4bc0c98cc20d48b0b97bb20d4cb0b3202837778c8760a95ab000232028218b8008219a800d498087b16b800821ab000d4a609d48909989920d4a808978820d49808320282a71882a81082a90882aa6f7732028219821a087b697b6a087b67107b68189551c082103882153082162895114032029511c07b10387b15307b16289515408411e0647683173308043202491140491138491130140700000000717b484e9518307b174833073202826bd800d2b707826bc800d2b808826bd000d2b909826bc000d2ba0ad4a909d48707d49707320283977b67f0008267f80064987b69e800320233077820c8760a95ab000532029511c07b10387b15307b16289515408411e064768317320233077828c8760a95ab000232029518e08488e07b68f0006481837783893308403202826af80082a71882a81082a90882aa6f7c3202c88707d88708c8980895697828959a00013202d487078268a800daa8078268a000db97087b68a0008267b8008268b0003202849a40520a195109148d9a40cfa80ad09808d09707d4a707320032009597c0d0780733083200849a40520a195109148d9a40d0a70acf9707cf9808d4a808320032009598c0cf870833073200490a21a11a4292d210a1925429a42449922449922449922449922449922449922449922449922449922449922449aa9294529294942454a5242549922449922449922449922449922449922449922449499294a4aa24254994a492a42a494992922425294955559292a4249524554a2949524a29492a2922228a88889424498284524949499122458a142952a428491111514444a4244952922409128a8a142952a4489122458a142952a44891a2448a888892244108094369521a12212222221111d18888241192241211452244a16a88082222442291880822222449129148248044444422845222485292444488089148448448921211922449920012491289848824892449922422444244449224c950124a92049014420443492b542542928410422a54a9d28888889418112422840891a424514429516204121048200101810412482081041248208104124912d148922449148948239224a29288342222125149441a111149928824222222910851a448441011111185484428111192288408268942251a49aa8a242522222289089188884812492291244992244992249188888888444444444a04111149922812898844444444441a111111914812499248221111111185484428111142886012858a444a045124512422914844a4108948245222224214994425522288a228224911211289448a4822492491888824898810898888488844444492244922222222222222424444020820952412454444448488248a9228918888889008a512111111291144442449a2488822452282882452488c08252284082651a8449148248a88888808111191244944c4288aa2a4244992944484189124494444448448109124812422914844228828222210111121420811111111214444444444444424222222828888181111914422222282881111119188241145440422229148249288049120222202494444444414918888886844444492248a4404112322228948924810111191244992880820222222085144232201242a89404412098a12255192444a4444248248041122222292001249249104902492a49326352222222289442222822802494410111111918824114544042222222222222222880411111181242291484414912812111111514420908428a2888840444414448c08252248a210c1240a9528925415498a888888222222222222824812914824922422124492444444440491208a888888888888886844a2489224094444444444444144111181a424212284101111118988888888484992a424492a2912258968441491248922110922912481244444444424222222a28840444492248a44448488082291482422124422490249241191484422121111114504222292245124a2888888888848104912248912254a944852912495884a11499224954444922412492491482222220211111188884404928888084444229228922252121589882451228a40a440444404121111814844442291442211118888888a4894982491449444924822492249248924918844229124922412494a241149244924118924111189248968244992248a44924444108988888888049188244112494424129188444444442382248a44a41149929248442322222aa9249254244925a212298948244925114992124924892422a2882022228288484410898888202222911449898888882241922449a24844449248224922221111111191202222822422222222a28844444444912048a248442422222222121111111151101112118410c1240a1589281244444414442412494482283289208a04114444444444824852904444444444149188888828120449148988444444444422222222220a2242228210229844a122114582888888828888884844045164124114092288888888880411111124118944225244222222228a0411114992281211898888888848c44844241291828811a14404214430894245228a04112322220a222222224a440451641241140922881811111111912022222248221289444411248252a546444444912048a2484424222222a22022242248a210c1240a95281244511491a408222222222289442449248944441011111111492489241211111111444444124922228944444444440411912092244992241111111151444410110920804425898888888888082222924a121111111111440089a224924444441011149588888888460449148948232249922449024888124582882452103122242248a21404514422882445109124499244441011918824492222222282088968444444259544928a24a9445422259122492a894892249248124944445104111111444422822422228288884452242590888888882241904491880491482412892022512449928410221149440a129188880411111149922489880022222282684424804425910022959294241111111114254aa22449248a444444228844102122229200924822892492449274d2a446444444249148444410459044043192242211491211448c884844248888884892244944248088488288469200924a22884822412951122549a444444422884410112122024822892492481249d249931a9144441289444412441124114144444444444444444444041111111111494a9224298948108988884812492249124992244992244912898888481089880849912449245212114422894422499248240992248a8820124924124992441249902431111451442288444444444444444444109120121111411291888888888822882822114422222242888808212222494a44444444445054a844248922119148942088888820111111442222128924122922820a224692441251a444922492442249248924914824124922492291444a129144924412914812452493244411452482888888288844841211419242886012858a441409aa44229128a288441011111105918850222288229308a288441091242282484444118920228948412422948808a2c8248228124491449188884814442422224a444410450610490451442288242529224852242222924892449248222293489212111151442288888828884452222288229308a248108924119182882412291191208a4c22882212414444444404914424115124954824051111298888a820121191221229520411151555914824499288624922222209222522225452922491442149922449121111110992284992140922424444449224494444444490449248221211898844242912894491544a5292888888484441444484442282283289208a4804511445124544240a222222221111449149044592aa224909224144442449922491888828222288880490a8249144444410514422484a121189082184882449222222282a5422924491884812250822111124222282484424914822912222a82062244924115112499248128924912492442291482489248944122949441249124944224914918c481011115129892492249148924444222282884424491289489244a220020820511489888888888288248a22804844444414248a041149a42062444844908224aa441189208aa248a288918844240a222222224a4404218249142a45928aa228224911410411111111111141124512492289242922884844041149222222222288082248922445441041924424224922824491202222a2206244484490442908a28844102589202249440411111149229188248908224144240922912489a40812452482a4242184888888881089484422222222221111114124888888202291884411890411894422114582281104115144452412444424128928124489208888222a62444b4404458a449444a21109222222922449444400114922882822112425892449922411111189442291882222228888882491244992244992b444a24844444a922449228a2841444144944811119124924822499244927444444444922422092249890411894422114582281104115144452412442412894414095212041151444564242280888882104128a184124a28a1442202888828081184124a242280888882104128a184124a28a1841211014444915022460410110521825042092594504209259450420925945042092594504209259450420925222280888a4492028814441225128998049048410a2a12114044444188205468d2880820a220225122410a4aa201111111114582244912a184124a24228088882291880022220a522493880644444444140982082594a218898c8888044924d144854a14a1044444444414098208250aa14444221289442222114992242212499224118d8888884a2a8924154952894aa42422114952449208828888082222114124221141442422491145a404414444048988882048100441220992481249221189448224892422912422220111111189460489420525510825221291884844221a111111955412492a92a412954849442292a422224904414444041191882012918820221291a4882252822022228244444410240882209104492489249188442241924412914812119118894c4412918824914812892491222209422520222222a24810442811918888888888881011444444444484288a48045192482289482292481211112122222222820a2a119188085144118920228914448c08252208112232894225a2884410455144121111110511111111252282282293088a925425254992a42422888888888811014444911889c4488428a28844101111511031229488204488c8240a95882241928888882888888888281111441199441045248288888888202211111191144444a420222245a428055114114524828824521031229488208ac888228a28a2482288224144444441444444448988208ac824822822114482082222828828221144444414448c08252288223289208a0411111105119148a444441045641241149108224104491244c4880022a2482401245210220825948088888888224110a1442194881101444491881101444491881101444491002222129124114144118920228914448c08252248a228229308a2884410258920229288082212492211491211441491089292444408212222424444444444058918114044148408420925624400115124220288888228229368441189202222a220624428114114914904512488888828888888444a44045144261144118920124424492412894444444404114524828888888810222242888848524444545054a8044444444414098208250aa14444222222220a22422282102122932844258a480491241141444444045188884844a2094d855aa10a5514422922121111111111228288888810451189201249241149442211404444444410111111492422222222222222884422121189442209212449888854102a11118944444444444444221111111111119148444424494424128988888888888808422522028828081184124a440410511022082594244992942449524190a0a11445822812242894a2489026494a41a114458244912041a11445822812242894a211914825254992244992244992244925254992244992244982884814044924094204434934222292a4244992245192242529892451902480a49224254992244992244852521211118d24914424110922491149922422220288882044118d44024854449094241111114151a2244a92242591248982484188888848024822892492009244927434a9452422128944222288a44a44042249924424112949a211094492442492449288a40022118828122425892492441289884824222222222222828888488a249248922449d22492928822922449928852a2201544299192244924912449924492744444444444444404114524828888442222222228115392882451241011111111458228514481282a8a04222222228a042929a2401415232d191101441408110c250da5a1d42850a9244992545292244992244992922449929424495210482249204430944423222225499292a49292a49024849048241211454424492421922491246ba422818844224992248928222222224892244912499214689200924a252905a2a891241111d124012405420493442322222215a524222222221211052242220221443089422a1251442288a2944822221205129188484404a2c824822822114444444a440211892405118914242252448a5210a5888888882810111211882223454a14512409a248904444240a2492248914882293045124884044440411111111512022242210452609a248101191289048922492401499248822410422498288882211291011121188229304512488884814484422914804a2c824411409221011914422914892441288888888281011121188229304a52455494992244992924820220949521192244992249124892410118944542022242210452609a24412a49492a4888844814424128944208a4c1244892448922210111141041091888888084492449244242222220291a494a490242121216a4402912411892491242222808808442480041089524422222222229044a21491888844a048521289884422902810890821229200129144244902481291241d11111111111111112410224488a24449a2902484104992248a88489288242249129124a3512281482422224992241191884844824824499244444422d0481240a2a2448aa24024a2881a8988884820222282888848148188484444222222420811111112111111919424499224454a2210499224499248444444042281489220222212452022121191888888104244448444444404222222228a0422222222a21189489224495144201251448d44a4254644001145444400114544440011454444001145246a44041051208ac8241a112852110512482a25294994544a52924891a4a2288a248a5492aa24499222a994a4245124a9288a22894a2a252949144922492291a444129144495229a524a9a452929294544a529292a4aa24a948525524a924554592a244452222912811452052492a4949a59424494a249124928888884a52952449524422922429a994a4248954892a5144445444a24495284955254992524a494a52248944929424914494224945511495244952922429a99412492449a424495292aaa292244929494a0248922a8a40a44a922445a248148922111189445191285124a9282a912429494992a4248a4844922425a94a4992242549522949004945229148928a288a444992549128892a45922a4944894422a22449924a2a4992a4920200"},"methodIdentifiers":{"STAKE_PER_DAY()":"4a91f7ae","archiveHabit(uint32)":"b650673a","checkIn(uint32,uint64)":"a0145927","checked(address,uint64)":"a8389e0a","claimAll()":"d1058e59","claimYieldRewards()":"db0f53f9","createHabit(bytes32)":"e9714e07","deposit()":"d0e30db0","epochNow()":"222ae786","forceSettle(address,uint64,uint32)":"68188762","funded(address,uint64)":"319bec54","habits(address,uint32)":"99626634","move(uint8,uint8,uint256)":"4f126f03","owner()":"8da5cb5b","prepareDay(uint64)":"48cc36b8","setStakingAdapter(address)":"40729c58","settle(address,uint64,uint32)":"9c14eb6e","settled(address,uint64)":"39c51515","stakingAdapter()":"4cbb98f4","transferOwnership(address)":"f2fde38b","treasury()":"61d027b3","unstakeAll()":"35322f37","userHabitCounters(address)":"0e08454a","userStates(address)":"0ecc535f"}},"hash":"84275966feea3f316d217c190be7aa66ad08545b67703613402d414eb981011f","factoryDependencies":{}}}}