{"contracts/HabitTracker.sol":{"HabitTracker":{"abi":[{"inputs":[{"internalType":"address","name":"_treasury","type":"address"}],"stateMutability":"nonpayable","type":"constructor"},{"inputs":[],"name":"AlreadyCheckedIn","type":"error"},{"inputs":[],"name":"AlreadySettled","type":"error"},{"inputs":[],"name":"CannotSettleCurrentDay","type":"error"},{"inputs":[],"name":"DayNotFunded","type":"error"},{"inputs":[],"name":"HabitAlreadyArchived","type":"error"},{"inputs":[],"name":"HabitNotFound","type":"error"},{"inputs":[],"name":"HabitTextTooLong","type":"error"},{"inputs":[],"name":"InsufficientBalance","type":"error"},{"inputs":[],"name":"InvalidAmount","type":"error"},{"inputs":[],"name":"InvalidBatchSize","type":"error"},{"inputs":[],"name":"InvalidEpoch","type":"error"},{"inputs":[],"name":"InvalidTreasury","type":"error"},{"inputs":[],"name":"NotHabitOwner","type":"error"},{"inputs":[],"name":"TransferFailed","type":"error"},{"anonymous":false,"inputs":[{"indexed":true,"internalType":"address","name":"user","type":"address"},{"indexed":true,"internalType":"uint32","name":"habitId","type":"uint32"},{"indexed":true,"internalType":"uint64","name":"epoch","type":"uint64"}],"name":"CheckedIn","type":"event"},{"anonymous":false,"inputs":[{"indexed":true,"internalType":"address","name":"user","type":"address"},{"indexed":false,"internalType":"uint256","name":"amount","type":"uint256"}],"name":"Claimed","type":"event"},{"anonymous":false,"inputs":[{"indexed":true,"internalType":"address","name":"user","type":"address"},{"indexed":true,"internalType":"uint64","name":"epoch","type":"uint64"},{"indexed":false,"internalType":"uint32","name":"fundedCount","type":"uint32"},{"indexed":false,"internalType":"uint32","name":"insufficientCount","type":"uint32"}],"name":"DayPrepared","type":"event"},{"anonymous":false,"inputs":[{"indexed":true,"internalType":"address","name":"user","type":"address"},{"indexed":false,"internalType":"uint256","name":"amount","type":"uint256"}],"name":"Deposited","type":"event"},{"anonymous":false,"inputs":[{"indexed":true,"internalType":"address","name":"user","type":"address"},{"indexed":true,"internalType":"uint32","name":"habitId","type":"uint32"}],"name":"HabitArchived","type":"event"},{"anonymous":false,"inputs":[{"indexed":true,"internalType":"address","name":"user","type":"address"},{"indexed":true,"internalType":"uint32","name":"habitId","type":"uint32"},{"indexed":false,"internalType":"bytes32","name":"text","type":"bytes32"}],"name":"HabitCreated","type":"event"},{"anonymous":false,"inputs":[{"indexed":true,"internalType":"address","name":"user","type":"address"},{"indexed":false,"internalType":"uint256","name":"amount","type":"uint256"}],"name":"RedepositedFromClaimable","type":"event"},{"anonymous":false,"inputs":[{"indexed":true,"internalType":"address","name":"user","type":"address"},{"indexed":true,"internalType":"uint32","name":"habitId","type":"uint32"},{"indexed":true,"internalType":"uint64","name":"epoch","type":"uint64"},{"indexed":false,"internalType":"uint256","name":"slashed","type":"uint256"}],"name":"SettledFail","type":"event"},{"anonymous":false,"inputs":[{"indexed":true,"internalType":"address","name":"user","type":"address"},{"indexed":true,"internalType":"uint32","name":"habitId","type":"uint32"},{"indexed":true,"internalType":"uint64","name":"epoch","type":"uint64"},{"indexed":false,"internalType":"uint256","name":"reward","type":"uint256"}],"name":"SettledSuccess","type":"event"},{"anonymous":false,"inputs":[{"indexed":true,"internalType":"address","name":"user","type":"address"},{"indexed":false,"internalType":"uint256","name":"amount","type":"uint256"}],"name":"Withdrawn","type":"event"},{"inputs":[],"name":"STAKE_PER_DAY","outputs":[{"internalType":"uint256","name":"","type":"uint256"}],"stateMutability":"view","type":"function"},{"inputs":[{"internalType":"uint32","name":"habitId","type":"uint32"}],"name":"archiveHabit","outputs":[],"stateMutability":"nonpayable","type":"function"},{"inputs":[{"internalType":"uint32","name":"habitId","type":"uint32"},{"internalType":"uint64","name":"epoch","type":"uint64"}],"name":"checkIn","outputs":[],"stateMutability":"nonpayable","type":"function"},{"inputs":[{"internalType":"uint256","name":"amount","type":"uint256"}],"name":"claim","outputs":[],"stateMutability":"nonpayable","type":"function"},{"inputs":[{"internalType":"bytes32","name":"text","type":"bytes32"}],"name":"createHabit","outputs":[{"internalType":"uint32","name":"","type":"uint32"}],"stateMutability":"nonpayable","type":"function"},{"inputs":[{"internalType":"address","name":"","type":"address"},{"internalType":"uint64","name":"","type":"uint64"},{"internalType":"uint32","name":"","type":"uint32"}],"name":"dailyStatuses","outputs":[{"internalType":"uint8","name":"flags","type":"uint8"}],"stateMutability":"view","type":"function"},{"inputs":[],"name":"deposit","outputs":[],"stateMutability":"payable","type":"function"},{"inputs":[],"name":"epochNow","outputs":[{"internalType":"uint64","name":"","type":"uint64"}],"stateMutability":"view","type":"function"},{"inputs":[{"internalType":"address","name":"user","type":"address"},{"internalType":"uint64","name":"startEpoch","type":"uint64"},{"internalType":"uint32","name":"maxSettlements","type":"uint32"}],"name":"forceSettleAllEpochs","outputs":[],"stateMutability":"nonpayable","type":"function"},{"inputs":[{"internalType":"address","name":"","type":"address"},{"internalType":"uint32","name":"","type":"uint32"}],"name":"habits","outputs":[{"internalType":"uint32","name":"id","type":"uint32"},{"internalType":"address","name":"owner","type":"address"},{"internalType":"bytes32","name":"text","type":"bytes32"},{"internalType":"uint64","name":"createdAtEpoch","type":"uint64"},{"internalType":"bool","name":"archived","type":"bool"}],"stateMutability":"view","type":"function"},{"inputs":[{"internalType":"uint64","name":"epoch","type":"uint64"}],"name":"prepareDay","outputs":[],"stateMutability":"nonpayable","type":"function"},{"inputs":[{"internalType":"uint256","name":"amount","type":"uint256"}],"name":"redepositFromClaimable","outputs":[],"stateMutability":"nonpayable","type":"function"},{"inputs":[{"internalType":"address","name":"user","type":"address"},{"internalType":"uint64","name":"epoch","type":"uint64"},{"internalType":"uint32","name":"habitId","type":"uint32"}],"name":"settle","outputs":[],"stateMutability":"nonpayable","type":"function"},{"inputs":[{"internalType":"address","name":"user","type":"address"},{"internalType":"uint64","name":"epoch","type":"uint64"},{"internalType":"uint32","name":"maxCount","type":"uint32"}],"name":"settleAll","outputs":[],"stateMutability":"nonpayable","type":"function"},{"inputs":[],"name":"treasury","outputs":[{"internalType":"address","name":"","type":"address"}],"stateMutability":"view","type":"function"},{"inputs":[{"internalType":"address","name":"","type":"address"}],"name":"userHabitCounters","outputs":[{"internalType":"uint32","name":"","type":"uint32"}],"stateMutability":"view","type":"function"},{"inputs":[{"internalType":"address","name":"","type":"address"}],"name":"userStates","outputs":[{"internalType":"uint256","name":"depositBalance","type":"uint256"},{"internalType":"uint256","name":"blockedBalance","type":"uint256"},{"internalType":"uint256","name":"claimableBalance","type":"uint256"},{"internalType":"uint32","name":"activeHabitCount","type":"uint32"}],"stateMutability":"view","type":"function"},{"inputs":[{"internalType":"uint256","name":"amount","type":"uint256"}],"name":"withdraw","outputs":[],"stateMutability":"nonpayable","type":"function"}],"evm":{"assembly":"// RO data = 0/0 bytes\n// RW data = 364/65984 bytes\n// Stack size = 32768 bytes\n\n// Instructions = 10352\n// Code size = 36355 bytes\n\n      : @0 (gas: 7)\n     0: sp = sp + 0xffffffffffffffe8\n     3: u64 [sp + 0x10] = ra\n     6: u64 [sp + 0x8] = s0\n     9: u64 [sp] = s1\n    11: s1 = 0x20168\n    16: s0 = i32 [0x20168]\n    21: jump @3 if s0 == 0\n      : @1 (gas: 5)\n    24: a0 = 0x301a0\n    29: i32 a0 = a0 + 0\n    31: i32 a1 = s1 + 0\n    33: ecalli 6 // 'get_immutable_data'\n    35: fallthrough\n      : @2 (gas: 3)\n    36: a0 = i32 [0x20168]\n    41: u32 [0x20168] = 0\n    46: jump @4 if a0 <u s0\n      : @3 (gas: 5)\n    49: ra = u64 [sp + 0x10]\n    52: s0 = u64 [sp + 0x8]\n    55: s1 = u64 [sp]\n    57: sp = sp + 0x18\n    60: ret\n      : @4 (gas: 1)\n    62: trap\n      : @5 (gas: 2)\n    63: a1 = i32 [0x20168]\n    68: jump @54 if a1 == 0\n      : @6 (gas: 4)\n    72: a0 = 0x301a0\n    77: i32 a0 = a0 + 0\n    79: ecalli 14 // 'set_immutable_data'\n    81: jump @54\n      : @7 (gas: 8)\n    84: sp = sp + 0xfffffffffffffff0\n    87: u64 [sp + 0x8] = ra\n    90: u64 [sp] = s0\n    92: a2 = a1\n    94: s0 = a0\n    96: a1 = 0x20\n    99: a0 = a2\n   101: ra = 2, jump @21\n      : @8 [@dyn 1] (gas: 100)\n   106: a1 = u8 [a0 + 0x1]\n   109: a2 = u8 [a0]\n   111: a3 = u8 [a0 + 0x2]\n   114: a4 = u8 [a0 + 0x3]\n   117: a1 = a1 << 0x8\n   120: a1 = a1 | a2\n   123: a3 = a3 << 0x10\n   126: a4 = a4 << 0x18\n   129: a3 = a3 | a4\n   132: a1 = a1 | a3\n   135: a2 = u8 [a0 + 0x5]\n   138: a3 = u8 [a0 + 0x4]\n   141: a4 = u8 [a0 + 0x6]\n   144: a5 = u8 [a0 + 0x7]\n   147: a2 = a2 << 0x8\n   150: a2 = a2 | a3\n   153: a4 = a4 << 0x10\n   156: a5 = a5 << 0x18\n   159: a4 = a4 | a5\n   162: a2 = a2 | a4\n   165: a2 = a2 << 0x20\n   168: t0 = a2 | a1\n   171: a2 = u8 [a0 + 0x9]\n   174: a3 = u8 [a0 + 0x8]\n   177: a4 = u8 [a0 + 0xa]\n   180: a5 = u8 [a0 + 0xb]\n   183: a2 = a2 << 0x8\n   186: a2 = a2 | a3\n   189: a4 = a4 << 0x10\n   192: a5 = a5 << 0x18\n   195: a4 = a4 | a5\n   198: a2 = a2 | a4\n   201: a3 = u8 [a0 + 0xd]\n   204: a4 = u8 [a0 + 0xc]\n   207: a5 = u8 [a0 + 0xe]\n   210: a1 = u8 [a0 + 0xf]\n   213: a3 = a3 << 0x8\n   216: a3 = a3 | a4\n   219: a5 = a5 << 0x10\n   222: a1 = a1 << 0x18\n   225: a1 = a1 | a5\n   228: a1 = a1 | a3\n   231: a1 = a1 << 0x20\n   234: t1 = a1 | a2\n   237: a1 = u8 [a0 + 0x11]\n   240: a3 = u8 [a0 + 0x10]\n   243: a4 = u8 [a0 + 0x12]\n   246: a5 = u8 [a0 + 0x13]\n   249: a1 = a1 << 0x8\n   252: a1 = a1 | a3\n   255: a4 = a4 << 0x10\n   258: a5 = a5 << 0x18\n   261: a4 = a4 | a5\n   264: a1 = a1 | a4\n   267: a3 = u8 [a0 + 0x15]\n   270: a4 = u8 [a0 + 0x14]\n   273: a5 = u8 [a0 + 0x16]\n   276: a2 = u8 [a0 + 0x17]\n   279: a3 = a3 << 0x8\n   282: a3 = a3 | a4\n   285: a5 = a5 << 0x10\n   288: a2 = a2 << 0x18\n   291: a2 = a2 | a5\n   294: a2 = a2 | a3\n   297: a2 = a2 << 0x20\n   300: a3 = a2 | a1\n   303: a1 = u8 [a0 + 0x19]\n   306: a2 = u8 [a0 + 0x18]\n   309: a4 = u8 [a0 + 0x1a]\n   312: a5 = u8 [a0 + 0x1b]\n   315: a1 = a1 << 0x8\n   318: a1 = a1 | a2\n   321: a4 = a4 << 0x10\n   324: a5 = a5 << 0x18\n   327: a4 = a4 | a5\n   330: a1 = a1 | a4\n   333: a2 = u8 [a0 + 0x1d]\n   336: a4 = u8 [a0 + 0x1c]\n   339: a5 = u8 [a0 + 0x1e]\n   342: a0 = u8 [a0 + 0x1f]\n   345: a2 = a2 << 0x8\n   348: a2 = a2 | a4\n   351: a5 = a5 << 0x10\n   354: a0 = a0 << 0x18\n   357: a0 = a0 | a5\n   360: a0 = a0 | a2\n   363: a0 = a0 << 0x20\n   366: a0 = a0 | a1\n   369: a0 = reverse a0\n   371: a1 = reverse a3\n   373: a2 = reverse t1\n   375: a3 = reverse t0\n   377: u64 [s0 + 0x18] = a3\n   380: u64 [s0 + 0x10] = a2\n   383: u64 [s0 + 0x8] = a1\n   386: u64 [s0] = a0\n   388: ra = u64 [sp + 0x8]\n   391: s0 = u64 [sp]\n   393: sp = sp + 0x10\n   396: ret\n      : @9 (gas: 12)\n   398: sp = sp + 0xffffffffffffffd8\n   401: u64 [sp + 0x20] = ra\n   404: u64 [sp + 0x18] = s0\n   407: u64 [sp + 0x10] = s1\n   410: a2 = u64 [a1]\n   412: u64 [sp + 0x8] = a2\n   415: a2 = u64 [a1 + 0x8]\n   418: u64 [sp] = a2\n   420: s0 = u64 [a1 + 0x10]\n   423: s1 = u64 [a1 + 0x18]\n   426: a1 = 0x20\n   429: ra = 4, jump @21\n      : @10 [@dyn 2] (gas: 71)\n   434: a1 = reverse s1\n   436: a2 = reverse s0\n   438: a3 = u64 [sp]\n   440: a3 = reverse a3\n   442: a4 = u64 [sp + 0x8]\n   445: a4 = reverse a4\n   447: u8 [a0 + 0x18] = a4\n   450: u8 [a0 + 0x10] = a3\n   453: u8 [a0 + 0x8] = a2\n   456: u8 [a0] = a1\n   458: a5 = a4 >> 0x38\n   461: u8 [a0 + 0x1f] = a5\n   464: a5 = a4 >> 0x30\n   467: u8 [a0 + 0x1e] = a5\n   470: a5 = a4 >> 0x28\n   473: u8 [a0 + 0x1d] = a5\n   476: a5 = a4 >> 0x20\n   479: u8 [a0 + 0x1c] = a5\n   482: a5 = a4 >> 0x18\n   485: u8 [a0 + 0x1b] = a5\n   488: a5 = a4 >> 0x10\n   491: u8 [a0 + 0x1a] = a5\n   494: a4 = a4 >> 0x8\n   497: u8 [a0 + 0x19] = a4\n   500: a4 = a3 >> 0x38\n   503: u8 [a0 + 0x17] = a4\n   506: a4 = a3 >> 0x30\n   509: u8 [a0 + 0x16] = a4\n   512: a4 = a3 >> 0x28\n   515: u8 [a0 + 0x15] = a4\n   518: a4 = a3 >> 0x20\n   521: u8 [a0 + 0x14] = a4\n   524: a4 = a3 >> 0x18\n   527: u8 [a0 + 0x13] = a4\n   530: a4 = a3 >> 0x10\n   533: u8 [a0 + 0x12] = a4\n   536: a3 = a3 >> 0x8\n   539: u8 [a0 + 0x11] = a3\n   542: a3 = a2 >> 0x38\n   545: u8 [a0 + 0xf] = a3\n   548: a3 = a2 >> 0x30\n   551: u8 [a0 + 0xe] = a3\n   554: a3 = a2 >> 0x28\n   557: u8 [a0 + 0xd] = a3\n   560: a3 = a2 >> 0x20\n   563: u8 [a0 + 0xc] = a3\n   566: a3 = a2 >> 0x18\n   569: u8 [a0 + 0xb] = a3\n   572: a3 = a2 >> 0x10\n   575: u8 [a0 + 0xa] = a3\n   578: a2 = a2 >> 0x8\n   581: u8 [a0 + 0x9] = a2\n   584: a2 = a1 >> 0x38\n   587: u8 [a0 + 0x7] = a2\n   590: a2 = a1 >> 0x30\n   593: u8 [a0 + 0x6] = a2\n   596: a2 = a1 >> 0x28\n   599: u8 [a0 + 0x5] = a2\n   602: a2 = a1 >> 0x20\n   605: u8 [a0 + 0x4] = a2\n   608: a2 = a1 >> 0x18\n   611: u8 [a0 + 0x3] = a2\n   614: a2 = a1 >> 0x10\n   617: u8 [a0 + 0x2] = a2\n   620: a1 = a1 >> 0x8\n   623: u8 [a0 + 0x1] = a1\n   626: ra = u64 [sp + 0x20]\n   629: s0 = u64 [sp + 0x18]\n   632: s1 = u64 [sp + 0x10]\n   635: sp = sp + 0x28\n   638: ret\n      : @11 (gas: 48)\n   640: sp = sp + 0xffffffffffffffa0\n   643: u64 [sp + 0x58] = ra\n   646: u64 [sp + 0x50] = s0\n   649: u64 [sp + 0x48] = s1\n   652: s0 = sp + 0x60\n   655: sp = sp & 0xffffffffffffffe0\n   658: s1 = a0\n   660: a0 = u64 [a1 + 0x18]\n   663: a2 = u64 [a1 + 0x10]\n   666: a3 = u64 [a1 + 0x8]\n   669: a1 = u64 [a1]\n   671: a0 = reverse a0\n   673: a2 = reverse a2\n   675: a3 = reverse a3\n   677: a1 = reverse a1\n   679: u64 [sp + 0x18] = a1\n   682: u64 [sp + 0x10] = a3\n   685: u64 [sp + 0x8] = a2\n   688: u64 [sp] = a0\n   690: u64 [sp + 56] = 0\n   693: u64 [sp + 48] = 0\n   696: u64 [sp + 40] = 0\n   699: u64 [sp + 32] = 0\n   702: u32 [sp + 64] = 0x20\n   706: i32 a1 = sp + 0\n   708: i32 a3 = sp + 0x20\n   711: i32 a4 = sp + 0x40\n   714: a2 = 0xffffffffffffffff\n   717: a0 = 0\n   719: ecalli 7 // 'get_storage'\n   721: a0 = u64 [sp + 0x38]\n   724: a1 = u64 [sp + 0x30]\n   727: a2 = u64 [sp + 0x28]\n   730: a3 = u64 [sp + 0x20]\n   733: a0 = reverse a0\n   735: a1 = reverse a1\n   737: a2 = reverse a2\n   739: a3 = reverse a3\n   741: u64 [s1 + 0x18] = a3\n   744: u64 [s1 + 0x10] = a2\n   747: u64 [s1 + 0x8] = a1\n   750: u64 [s1] = a0\n   752: sp = s0 + 0xffffffffffffffa0\n   755: ra = u64 [sp + 0x58]\n   758: s0 = u64 [sp + 0x50]\n   761: s1 = u64 [sp + 0x48]\n   764: sp = sp + 0x60\n   767: ret\n      : @12 (gas: 40)\n   769: sp = sp + 0xffffffffffffffa0\n   772: u64 [sp + 0x58] = ra\n   775: u64 [sp + 0x50] = s0\n   778: s0 = sp + 0x60\n   781: sp = sp & 0xffffffffffffffe0\n   784: t0 = u64 [a0]\n   786: a3 = u64 [a0 + 0x8]\n   789: a4 = u64 [a0 + 0x10]\n   792: a0 = u64 [a0 + 0x18]\n   795: t1 = u64 [a1]\n   797: a2 = u64 [a1 + 0x8]\n   800: a5 = u64 [a1 + 0x10]\n   803: a1 = u64 [a1 + 0x18]\n   806: t2 = reverse a0\n   808: a4 = reverse a4\n   810: a3 = reverse a3\n   812: a0 = reverse t0\n   814: t0 = reverse a1\n   816: a5 = reverse a5\n   818: a2 = reverse a2\n   820: a1 = reverse t1\n   822: u64 [sp + 0x18] = a0\n   825: u64 [sp + 0x10] = a3\n   828: u64 [sp + 0x8] = a4\n   831: u64 [sp] = t2\n   833: u64 [sp + 0x38] = a1\n   836: u64 [sp + 0x30] = a2\n   839: u64 [sp + 0x28] = a5\n   842: u64 [sp + 0x20] = t0\n   845: i32 a1 = sp + 0\n   847: i32 a3 = sp + 0x20\n   850: a2 = 0xffffffffffffffff\n   853: a4 = 0x20\n   856: a0 = 0\n   858: ecalli 15 // 'set_storage'\n   860: sp = s0 + 0xffffffffffffffa0\n   863: ra = u64 [sp + 0x58]\n   866: s0 = u64 [sp + 0x50]\n   869: sp = sp + 0x60\n   872: ret\n      : @13 (gas: 24)\n   874: sp = sp + 0xffffffffffffff60\n   878: u64 [sp + 0x98] = ra\n   882: u64 [sp + 0x90] = s0\n   886: u64 [sp + 0x88] = s1\n   890: s0 = sp + 0xa0\n   894: sp = sp & 0xffffffffffffffe0\n   897: a4 = u64 [a3]\n   899: u64 [sp + 0x38] = a4\n   902: a4 = u64 [a3 + 0x8]\n   905: u64 [sp + 0x30] = a4\n   908: a4 = u64 [a3 + 0x10]\n   911: u64 [sp + 0x28] = a4\n   914: a3 = u64 [a3 + 0x18]\n   917: u64 [sp + 0x20] = a3\n   920: a3 = u64 [a2]\n   922: u64 [sp + 0x18] = a3\n   925: a3 = u64 [a2 + 0x8]\n   928: u64 [sp + 0x10] = a3\n   931: a3 = u64 [a2 + 0x10]\n   934: u64 [sp + 0x8] = a3\n   937: a2 = u64 [a2 + 0x18]\n   940: u64 [sp] = a2\n   942: s1 = a1\n   944: ra = 6, jump @21\n      : @14 [@dyn 3] (gas: 35)\n   949: a1 = u64 [sp]\n   951: a1 = reverse a1\n   953: a2 = u64 [sp + 0x8]\n   956: a2 = reverse a2\n   958: a3 = u64 [sp + 0x10]\n   961: a3 = reverse a3\n   963: a4 = u64 [sp + 0x18]\n   966: a4 = reverse a4\n   968: u64 [sp + 0x58] = a4\n   971: u64 [sp + 0x50] = a3\n   974: u64 [sp + 0x48] = a2\n   977: u64 [sp + 0x40] = a1\n   980: a1 = u64 [sp + 0x20]\n   983: a1 = reverse a1\n   985: a2 = u64 [sp + 0x28]\n   988: a2 = reverse a2\n   990: a3 = u64 [sp + 0x30]\n   993: a3 = reverse a3\n   995: a4 = u64 [sp + 0x38]\n   998: a4 = reverse a4\n  1000: u64 [sp + 0x78] = a4\n  1003: u64 [sp + 0x70] = a3\n  1006: u64 [sp + 0x68] = a2\n  1009: u64 [sp + 0x60] = a1\n  1012: i32 a2 = a0 + 0\n  1014: i32 a3 = s1 + 0\n  1016: i32 a0 = sp + 0x40\n  1019: a1 = 0x2\n  1022: ecalli 5 // 'deposit_event'\n  1024: sp = s0 + 0xffffffffffffff60\n  1028: ra = u64 [sp + 0x98]\n  1032: s0 = u64 [sp + 0x90]\n  1036: s1 = u64 [sp + 0x88]\n  1040: sp = sp + 0xa0\n  1044: ret\n      : @15 (gas: 15)\n  1046: sp = sp + 0xffffffffffffff20\n  1050: u64 [sp + 0xd8] = ra\n  1054: u64 [sp + 0xd0] = s0\n  1058: u64 [sp + 0xc8] = s1\n  1062: s0 = sp + 0xe0\n  1066: sp = sp & 0xffffffffffffffe0\n  1069: a5 = u64 [a4]\n  1071: u64 [sp + 0x40] = a5\n  1074: a5 = u64 [a4 + 0x8]\n  1077: u64 [sp + 0x48] = a5\n  1080: a5 = u64 [a4 + 0x10]\n  1083: u64 [sp + 0x50] = a5\n  1086: a4 = u64 [a4 + 0x18]\n  1089: u64 [sp + 0x58] = a4\n  1092: t0 = 8, jump @1345\n      : @16 [@dyn 4] (gas: 2)\n  1098: u64 [sp + 0x38] = a1\n  1101: ra = 10, jump @21\n      : @17 [@dyn 5] (gas: 46)\n  1106: a1 = reverse s1\n  1108: u64 [sp + 0x78] = a1\n  1111: a1 = u64 [sp]\n  1113: a1 = reverse a1\n  1115: u64 [sp + 0x70] = a1\n  1118: a1 = u64 [sp + 0x8]\n  1121: a1 = reverse a1\n  1123: u64 [sp + 0x68] = a1\n  1126: a1 = u64 [sp + 0x10]\n  1129: a1 = reverse a1\n  1131: u64 [sp + 0x60] = a1\n  1134: a1 = u64 [sp + 0x18]\n  1137: a1 = reverse a1\n  1139: u64 [sp + 0x98] = a1\n  1143: a1 = u64 [sp + 0x20]\n  1146: a1 = reverse a1\n  1148: u64 [sp + 0x90] = a1\n  1152: a1 = u64 [sp + 0x28]\n  1155: a1 = reverse a1\n  1157: u64 [sp + 0x88] = a1\n  1161: a1 = u64 [sp + 0x30]\n  1164: a1 = reverse a1\n  1166: u64 [sp + 0x80] = a1\n  1170: a1 = u64 [sp + 0x40]\n  1173: a1 = reverse a1\n  1175: u64 [sp + 0xb8] = a1\n  1179: a1 = u64 [sp + 0x48]\n  1182: a1 = reverse a1\n  1184: u64 [sp + 0xb0] = a1\n  1188: a1 = u64 [sp + 0x50]\n  1191: a1 = reverse a1\n  1193: u64 [sp + 0xa8] = a1\n  1197: a1 = u64 [sp + 0x58]\n  1200: a1 = reverse a1\n  1202: u64 [sp + 0xa0] = a1\n  1206: i32 a2 = a0 + 0\n  1208: a3 = i32 [sp + 0x38]\n  1211: i32 a0 = sp + 0x60\n  1214: a1 = 0x3\n  1217: ecalli 5 // 'deposit_event'\n  1219: sp = s0 + 0xffffffffffffff20\n  1223: ra = u64 [sp + 0xd8]\n  1227: s0 = u64 [sp + 0xd0]\n  1231: s1 = u64 [sp + 0xc8]\n  1235: sp = sp + 0xe0\n  1239: ret\n      : @18 (gas: 23)\n  1241: sp = sp + 0xfffffffffffffee0\n  1245: u64 [sp + 0x118] = ra\n  1249: u64 [sp + 0x110] = s0\n  1253: u64 [sp + 0x108] = s1\n  1257: s0 = sp + 0x120\n  1261: sp = sp & 0xffffffffffffffe0\n  1264: s1 = u64 [a5]\n  1266: u64 [sp + 0x60] = s1\n  1269: s1 = u64 [a5 + 0x8]\n  1272: u64 [sp + 0x68] = s1\n  1275: s1 = u64 [a5 + 0x10]\n  1278: u64 [sp + 0x70] = s1\n  1281: a5 = u64 [a5 + 0x18]\n  1284: u64 [sp + 0x78] = a5\n  1287: a5 = u64 [a4]\n  1289: u64 [sp + 0x38] = a5\n  1292: a5 = u64 [a4 + 0x8]\n  1295: u64 [sp + 0x40] = a5\n  1298: a5 = u64 [a4 + 0x10]\n  1301: u64 [sp + 0x48] = a5\n  1304: a4 = u64 [a4 + 0x18]\n  1307: u64 [sp + 0x50] = a4\n  1310: t0 = 12, jump @1345\n      : @19 [@dyn 6] (gas: 2)\n  1316: u64 [sp + 0x58] = a1\n  1319: ra = 14, jump @21\n      : @20 [@dyn 7] (gas: 58)\n  1324: a1 = reverse s1\n  1326: u64 [sp + 0x98] = a1\n  1330: a1 = u64 [sp]\n  1332: a1 = reverse a1\n  1334: u64 [sp + 0x90] = a1\n  1338: a1 = u64 [sp + 0x8]\n  1341: a1 = reverse a1\n  1343: u64 [sp + 0x88] = a1\n  1347: a1 = u64 [sp + 0x10]\n  1350: a1 = reverse a1\n  1352: u64 [sp + 0x80] = a1\n  1356: a1 = u64 [sp + 0x18]\n  1359: a1 = reverse a1\n  1361: u64 [sp + 0xb8] = a1\n  1365: a1 = u64 [sp + 0x20]\n  1368: a1 = reverse a1\n  1370: u64 [sp + 0xb0] = a1\n  1374: a1 = u64 [sp + 0x28]\n  1377: a1 = reverse a1\n  1379: u64 [sp + 0xa8] = a1\n  1383: a1 = u64 [sp + 0x30]\n  1386: a1 = reverse a1\n  1388: u64 [sp + 0xa0] = a1\n  1392: a1 = u64 [sp + 0x38]\n  1395: a1 = reverse a1\n  1397: u64 [sp + 0xd8] = a1\n  1401: a1 = u64 [sp + 0x40]\n  1404: a1 = reverse a1\n  1406: u64 [sp + 0xd0] = a1\n  1410: a1 = u64 [sp + 0x48]\n  1413: a1 = reverse a1\n  1415: u64 [sp + 0xc8] = a1\n  1419: a1 = u64 [sp + 0x50]\n  1422: a1 = reverse a1\n  1424: u64 [sp + 0xc0] = a1\n  1428: a1 = u64 [sp + 0x60]\n  1431: a1 = reverse a1\n  1433: u64 [sp + 0xf8] = a1\n  1437: a1 = u64 [sp + 0x68]\n  1440: a1 = reverse a1\n  1442: u64 [sp + 0xf0] = a1\n  1446: a1 = u64 [sp + 0x70]\n  1449: a1 = reverse a1\n  1451: u64 [sp + 0xe8] = a1\n  1455: a1 = u64 [sp + 0x78]\n  1458: a1 = reverse a1\n  1460: u64 [sp + 0xe0] = a1\n  1464: i32 a2 = a0 + 0\n  1466: a3 = i32 [sp + 0x58]\n  1469: i32 a0 = sp + 0x80\n  1473: a1 = 0x4\n  1476: ecalli 5 // 'deposit_event'\n  1478: sp = s0 + 0xfffffffffffffee0\n  1482: ra = u64 [sp + 0x118]\n  1486: s0 = u64 [sp + 0x110]\n  1490: s1 = u64 [sp + 0x108]\n  1494: sp = sp + 0x120\n  1498: ret\n      : @21 (gas: 2)\n  1500: i32 a2 = a0 >> 0x10\n  1503: jump @26 if a2 != 0\n      : @22 (gas: 4)\n  1506: a1 = a1 + a0\n  1509: i32 a1 = a1 + 0x1f\n  1512: a1 = a1 & 0xffffffffffffffe0\n  1515: jump @26 if a1 >u 65536\n      : @23 (gas: 3)\n  1521: a2 = 0x20170\n  1526: a3 = i32 [0x20170]\n  1531: jump @25 if a3 >=u a1\n      : @24 (gas: 2)\n  1534: u32 [0x20170] = a1\n  1539: fallthrough\n      : @25 (gas: 4)\n  1540: a1 = 0x20180\n  1545: i32 a0 = a0 + 0\n  1547: a0 = a0 + a1\n  1550: ret\n      : @26 (gas: 1)\n  1552: trap\n      : @27 (gas: 6)\n  1553: sp = sp + 0xfffffffffffffff0\n  1556: u64 [sp + 0x8] = ra\n  1559: u64 [sp] = s0\n  1561: s0 = a0 & 0x1\n  1564: ecalli 3 // 'call_data_size'\n  1566: fallthrough\n      : @28 (gas: 2)\n  1567: u32 [0x2016c] = a0\n  1572: jump @30 if s0 == 0\n      : @29 (gas: 1)\n  1575: ra = 16, jump @31\n      : @30 [@dyn 8] (gas: 1)\n  1579: ra = 18, jump @57\n      : @31 [@dyn 9] (gas: 13)\n  1584: sp = sp + 0xffffffffffffff00\n  1588: u64 [sp + 0xf8] = ra\n  1592: u64 [sp + 0xf0] = s0\n  1596: u64 [sp + 0xe8] = s1\n  1600: s0 = sp + 0x100\n  1604: sp = sp & 0xffffffffffffffe0\n  1607: u64 [sp + 216] = 0\n  1611: u64 [sp + 208] = 0\n  1615: u64 [sp + 200] = 0\n  1619: u64 [sp + 192] = 0\n  1623: i32 a0 = sp + 0xc0\n  1627: ecalli 16 // 'value_transferred'\n  1629: fallthrough\n      : @32 (gas: 8)\n  1630: a0 = u64 [sp + 0xd0]\n  1634: a1 = u64 [sp + 0xd8]\n  1638: a2 = u64 [sp + 0xc8]\n  1642: a3 = u64 [sp + 0xc0]\n  1646: a1 = a1 | a2\n  1649: a0 = a0 | a3\n  1652: a0 = a0 | a1\n  1655: jump @44 if a0 != 0\n      : @33 (gas: 15)\n  1659: s1 = i32 [0x2016c]\n  1664: a0 = s1 << 0x20\n  1667: a0 = a0 >> 0x20\n  1670: a0 = a0 + 0x1f\n  1673: a0 = a0 & 0xffffffffffffffe0\n  1676: a1 = a0 + 0xa0\n  1680: a0 = a1 <u a0\n  1683: u64 [sp + 0xa0] = a1\n  1687: u64 [sp + 0xa8] = a0\n  1691: a0 = 0 if a0 != 0\n  1693: u64 [sp + 0xb0] = a0\n  1697: a0 = 0x40\n  1700: a1 = sp + 0xa0\n  1704: u64 [sp + 184] = 0\n  1708: ra = 20, jump @9\n      : @34 [@dyn 10] (gas: 3)\n  1713: a0 = 0xa0\n  1717: a1 = s1\n  1719: ra = 22, jump @21\n      : @35 [@dyn 11] (gas: 5)\n  1724: i32 a0 = a0 + 0\n  1726: a1 = s1\n  1728: a2 = 0\n  1730: ecalli 1 // 'call_data_copy'\n  1732: fallthrough\n      : @36 (gas: 1)\n  1733: jump @45 if s1 <=u 31\n      : @37 (gas: 3)\n  1738: a0 = sp + 0x80\n  1742: a1 = 0xa0\n  1746: ra = 24, jump @7\n      : @38 [@dyn 12] (gas: 10)\n  1751: a0 = u64 [sp + 0x90]\n  1755: a2 = u64 [sp + 0x98]\n  1759: a1 = 0x100000000\n  1769: a1 = a1 ^ a0\n  1772: a1 = a1 | a2\n  1775: a3 = a0 >> 0x20\n  1778: a3 = a3 <u 0x1\n  1781: a3 = 0 if a2 != 0\n  1783: a3 = 0 if a1 == 0\n  1785: jump @46 if a3 == 0\n      : @39 (gas: 6)\n  1788: a1 = u64 [sp + 0x80]\n  1792: a3 = u64 [sp + 0x88]\n  1796: a4 = a1 | a0\n  1799: a5 = a3 | a2\n  1802: a4 = a4 | a5\n  1805: jump @47 if a4 == 0\n      : @40 (gas: 7)\n  1808: u64 [sp + 0x60] = a1\n  1811: u64 [sp + 0x68] = a3\n  1814: u64 [sp + 0x70] = a0\n  1817: a0 = 0x80\n  1821: a1 = sp + 0x60\n  1824: u64 [sp + 0x78] = a2\n  1827: ra = 26, jump @9\n      : @41 [@dyn 13] (gas: 3)\n  1832: a0 = sp + 0x40\n  1835: a1 = 0x40\n  1838: ra = 28, jump @7\n      : @42 [@dyn 14] (gas: 12)\n  1843: a0 = u64 [sp + 0x58]\n  1846: a1 = u64 [sp + 0x50]\n  1849: a2 = u64 [sp + 0x48]\n  1852: s1 = u64 [sp + 0x40]\n  1855: a0 = a0 | a2\n  1858: a2 = s1 | a1\n  1861: a2 = a2 | a0\n  1864: a2 = a2 >> 0x20\n  1867: a0 = a0 | a1\n  1870: a0 = a0 << 0x20\n  1873: a0 = a0 | a2\n  1876: jump @51 if a0 == 0\n      : @43 (gas: 1)\n  1879: trap\n      : @44 (gas: 4)\n  1880: a1 = 0x20180\n  1885: i32 a1 = a1 + 0\n  1887: a0 = 0x1\n  1890: jump @56\n      : @45 (gas: 4)\n  1893: a1 = 0x20180\n  1898: i32 a1 = a1 + 0\n  1900: a0 = 0x1\n  1903: jump @56\n      : @46 (gas: 4)\n  1906: a1 = 0x20180\n  1911: i32 a1 = a1 + 0\n  1913: a0 = 0x1\n  1916: jump @56\n      : @47 (gas: 8)\n  1919: u64 [sp + 16] = 0\n  1922: u64 [sp + 8] = 0\n  1925: u64 [sp + 0] = 0\n  1927: a0 = 0x14bcf5c800000000\n  1937: a1 = sp\n  1939: u64 [sp + 0x18] = a0\n  1942: a0 = 0\n  1944: ra = 30, jump @9\n      : @48 [@dyn 15] (gas: 2)\n  1949: a1 = i32 [0x20170]\n  1954: jump @50 if a1 >u 31\n      : @49 (gas: 2)\n  1958: u32 [0x20170] = 0x20\n  1964: fallthrough\n      : @50 (gas: 6)\n  1965: a1 = 0x20180\n  1970: i32 a1 = a1 + 0\n  1972: a0 = 0x1\n  1975: a2 = 0x4\n  1978: ecalli 13 // 'seal_return'\n  1980: fallthrough\n      : @51 (gas: 3)\n  1981: a0 = s1\n  1983: a1 = 0\n  1985: ra = 32, jump @21\n      : @52 [@dyn 16] (gas: 7)\n  1990: i32 a0 = a0 + 0\n  1992: a1 = 0\n  1994: a2 = 0\n  1996: ecalli 1 // 'call_data_copy'\n  1998: a0 = sp + 0x20\n  2001: a1 = 0x80\n  2005: ra = 34, jump @7\n      : @53 [@dyn 17] (gas: 9)\n  2010: a0 = u64 [sp + 0x38]\n  2013: a2 = u64 [sp + 0x30]\n  2016: a3 = u64 [sp + 0x28]\n  2019: a4 = u64 [sp + 0x20]\n  2022: u64 [0x301b8] = a0\n  2027: u64 [0x301b0] = a2\n  2032: u64 [0x301a8] = a3\n  2037: u64 [0x301a0] = a4\n  2042: jump @5\n      : @54 (gas: 3)\n  2045: a0 = s1\n  2047: a1 = 0\n  2049: ra = 36, jump @21\n      : @55 [@dyn 18] (gas: 6)\n  2054: i32 a1 = a0 + 0\n  2056: a0 = 0\n  2058: a2 = 0\n  2060: ra = 0x26\n  2063: ecalli 13 // 'seal_return'\n  2065: jump @57\n      : @56 (gas: 4)\n  2067: a2 = 0\n  2069: ra = 0x26\n  2072: ecalli 13 // 'seal_return'\n  2074: fallthrough\n      : @57 [@dyn 19] (gas: 16)\n  2075: sp = sp + 0xfffffffffffffe10\n  2079: u64 [sp + 0x1e8] = ra\n  2083: u64 [sp + 0x1e0] = s0\n  2087: u64 [sp + 0x1d8] = s1\n  2091: s0 = sp + 0x1f0\n  2095: sp = sp + 0xffffffffffffd790\n  2099: sp = sp & 0xffffffffffffffe0\n  2102: s1 = sp\n  2104: a2 = s1 + 0x2098\n  2108: u64 [a2 + 384] = 0\n  2112: u64 [a2 + 376] = 0\n  2116: u64 [a2 + 360] = 0x80\n  2122: a0 = 0x40\n  2125: a1 = s1 + 0x2200\n  2129: u64 [a2 + 368] = 0\n  2133: ra = 40, jump @9\n      : @58 [@dyn 20] (gas: 4)\n  2138: a0 = 0x2016c\n  2143: u64 [s1 + 0x118] = a0\n  2147: a0 = i32 [0x2016c]\n  2152: jump @60 if a0 >=u 4\n      : @59 (gas: 1)\n  2156: jump @872\n      : @60 (gas: 6)\n  2159: a0 = s1 + 0x2000\n  2163: i32 a0 = a0 + 0x220\n  2167: a1 = 0\n  2169: ra = 0x2a\n  2172: ecalli 2 // 'call_data_load'\n  2174: fallthrough\n      : @61 [@dyn 21] (gas: 3)\n  2175: a2 = s1 + 0x2098\n  2179: a0 = i32 [a2 + 0x1a4]\n  2183: jump @63 if a0 != 2293374087\n      : @62 (gas: 1)\n  2190: jump @247\n      : @63 (gas: 1)\n  2193: jump @89 if a0 == 2401489772\n      : @64 (gas: 1)\n  2201: jump @66 if a0 != 2573362740\n      : @65 (gas: 1)\n  2208: jump @379\n      : @66 (gas: 2)\n  2211: a3 = s1 + 0x2898\n  2215: jump @68 if a0 != 3504541104\n      : @67 (gas: 1)\n  2222: jump @219\n      : @68 (gas: 1)\n  2225: jump @184 if a0 == 3916516871\n      : @69 (gas: 1)\n  2233: jump @71 if a0 != 248271711\n      : @70 (gas: 1)\n  2240: jump @343\n      : @71 (gas: 1)\n  2243: jump @122 if a0 == 573237126\n      : @72 (gas: 1)\n  2251: jump @149 if a0 == 773487949\n      : @73 (gas: 1)\n  2259: jump @75 if a0 != 932579317\n      : @74 (gas: 1)\n  2266: jump @285\n      : @75 (gas: 1)\n  2269: jump @77 if a0 != 1221342904\n      : @76 (gas: 1)\n  2276: jump @321\n      : @77 (gas: 1)\n  2279: jump @79 if a0 == 1251080110\n      : @78 (gas: 1)\n  2286: jump @430\n      : @79 (gas: 10)\n  2289: u64 [a2 + 1440] = 0\n  2293: u64 [a2 + 1432] = 0\n  2297: u64 [a2 + 1424] = 0\n  2301: u64 [a2 + 1416] = 0\n  2305: a0 = s1 + 0x2000\n  2309: i32 a0 = a0 + 0x620\n  2313: ra = 0x2c\n  2316: ecalli 16 // 'value_transferred'\n  2318: t0 = 0x2e\n  2321: jump @1352\n      : @80 [@dyn 22] (gas: 1)\n  2325: t0 = 46, jump @1352\n      : @81 [@dyn 23] (gas: 8)\n  2331: a0 = u64 [a4 + 0x98]\n  2335: a1 = u64 [a4 + 0xa0]\n  2339: a2 = u64 [a4 + 0x90]\n  2343: a3 = u64 [a4 + 0x88]\n  2347: a1 = a1 | a2\n  2350: a0 = a0 | a3\n  2353: a0 = a0 | a1\n  2356: jump @83 if a0 == 0\n      : @82 (gas: 1)\n  2359: jump @620\n      : @83 (gas: 3)\n  2362: a0 = u64 [s1 + 0x118]\n  2366: a0 = i32 [a0]\n  2368: jump @85 if a0 >u 3\n      : @84 (gas: 1)\n  2372: jump @621\n      : @85 (gas: 3)\n  2375: a0 = s1 + 0x1000\n  2379: a1 = 0x40\n  2382: ra = 48, jump @7\n      : @86 [@dyn 24] (gas: 15)\n  2387: a3 = s1 + 0x7ff\n  2391: a3 = a3 + 0x99\n  2395: a5 = a3 + 0x700\n  2399: a4 = u64 [a5 + 0x80]\n  2403: a1 = u64 [a5 + 0x78]\n  2406: a2 = u64 [a5 + 0x70]\n  2409: a0 = u64 [a5 + 0x68]\n  2412: a4 = a4 | a2\n  2415: a2 = a0 | a1\n  2418: a2 = a2 | a4\n  2421: a2 = a2 >> 0x20\n  2424: a1 = a1 | a4\n  2427: a1 = a1 << 0x20\n  2430: a1 = a1 | a2\n  2433: jump @88 if a1 == 0\n      : @87 (gas: 1)\n  2436: jump @619\n      : @88 (gas: 10)\n  2439: a1 = u64 [0x200a0]\n  2444: u64 [a3 + 1888] = 0\n  2448: u64 [a3 + 1880] = 0\n  2452: u64 [a3 + 0x748] = a1\n  2456: a1 = s1 + 0x7ff\n  2460: a1 = a1 + 0x7e1\n  2464: u64 [a3 + 1872] = 0\n  2468: u64 [s1 + 0x118] = a0\n  2472: ra = 0x10a\n  2476: jump @9\n      : @89 (gas: 10)\n  2479: u64 [a2 + 1536] = 0\n  2483: u64 [a2 + 1528] = 0\n  2487: u64 [a2 + 1520] = 0\n  2491: u64 [a2 + 1512] = 0\n  2495: a0 = s1 + 0x2000\n  2499: i32 a0 = a0 + 0x680\n  2503: ra = 0x32\n  2506: ecalli 16 // 'value_transferred'\n  2508: t0 = 0x34\n  2511: jump @1352\n      : @90 [@dyn 25] (gas: 1)\n  2515: t0 = 52, jump @1352\n      : @91 [@dyn 26] (gas: 8)\n  2521: a0 = u64 [a4 + 0xf8]\n  2525: a1 = u64 [a3 + 0x600]\n  2529: a2 = u64 [a4 + 0xf0]\n  2533: a3 = u64 [a4 + 0xe8]\n  2537: a1 = a1 | a2\n  2540: a0 = a0 | a3\n  2543: a0 = a0 | a1\n  2546: jump @93 if a0 == 0\n      : @92 (gas: 1)\n  2549: jump @622\n      : @93 (gas: 1)\n  2552: t0 = 54, jump @1362\n      : @94 [@dyn 27] (gas: 1)\n  2558: jump @96 if a1 <u a0\n      : @95 (gas: 1)\n  2561: jump @623\n      : @96 (gas: 6)\n  2564: a0 = s1 + 0x2000\n  2568: i32 a0 = a0 + 0x6a0\n  2572: a1 = 0x4\n  2575: ra = 0x38\n  2578: ecalli 2 // 'call_data_load'\n  2580: fallthrough\n      : @97 [@dyn 28] (gas: 7)\n  2581: a0 = s1 + 0x2098\n  2585: a5 = a0 + 0x600\n  2589: a1 = u64 [a5 + 0x20]\n  2592: a2 = u64 [a5 + 0x18]\n  2595: a3 = u64 [a5 + 0x10]\n  2598: a4 = u64 [a5 + 0x8]\n  2601: t0 = 58, jump @1336\n      : @98 [@dyn 29] (gas: 1)\n  2606: jump @100 if a0 != 0\n      : @99 (gas: 1)\n  2609: jump @624\n      : @100 (gas: 9)\n  2612: a0 = 0x30180\n  2617: u64 [s1 + 0xf0] = a0\n  2621: i32 a0 = a0 + 0\n  2623: u64 [s1 + 0xc0] = a0\n  2627: ra = 0x3c\n  2630: ecalli 4 // 'caller'\n  2632: a2 = u64 [s1 + 0xf0]\n  2636: t0 = 0x3e\n  2639: jump @1314\n      : @101 [@dyn 30] (gas: 2)\n  2642: a2 = u64 [s1 + 0xf0]\n  2646: t0 = 62, jump @1314\n      : @102 [@dyn 31] (gas: 8)\n  2651: u64 [a2 + 640] = 0\n  2655: a4 = a2 + 0x200\n  2659: u64 [a4 + 0x78] = a1\n  2662: u64 [a4 + 0x70] = a0\n  2665: a1 = s1 + 0x1300\n  2669: u64 [a4 + 0x68] = a3\n  2672: a0 = 0\n  2674: ra = 64, jump @9\n      : @103 [@dyn 32] (gas: 9)\n  2679: a0 = s1 + 0x1098\n  2683: u64 [a0 + 608] = 0\n  2687: u64 [a0 + 600] = 0\n  2691: u64 [a0 + 592] = 0\n  2695: a2 = a0\n  2697: a0 = 0x20\n  2700: a1 = s1 + 0x12e0\n  2704: u64 [a2 + 584] = 0\n  2708: ra = 66, jump @9\n      : @104 [@dyn 33] (gas: 7)\n  2713: a0 = sp + 0xffffffffffffffe0\n  2716: a0 = a0 & 0xffffffffffffffe0\n  2719: u64 [s1 + 0x100] = a0\n  2723: sp = a0\n  2725: a2 = 0x20170\n  2730: a0 = i32 [0x20170]\n  2735: jump @106 if a0 >u 63\n      : @105 (gas: 2)\n  2739: u32 [0x20170] = 0x40\n  2745: fallthrough\n      : @106 (gas: 15)\n  2746: u64 [s1 + 0xb8] = a2\n  2750: a0 = sp + 0xffffffffffffffe0\n  2753: a2 = a0 & 0xffffffffffffffe0\n  2756: u64 [s1 + 0xe8] = a2\n  2760: sp = a2\n  2762: a0 = 0x20180\n  2767: i32 a0 = a0 + 0\n  2769: i32 a2 = a2 + 0\n  2771: a1 = 0x40\n  2774: u64 [s1 + 0xc8] = a0\n  2778: ra = 0x44\n  2781: ecalli 8 // 'hash_keccak_256'\n  2783: a3 = u64 [s1 + 0xe8]\n  2787: t0 = 0x46\n  2790: jump @1365\n      : @107 [@dyn 34] (gas: 2)\n  2794: a3 = u64 [s1 + 0xe8]\n  2798: t0 = 70, jump @1365\n      : @108 [@dyn 35] (gas: 26)\n  2804: a5 = reverse a1\n  2806: a2 = reverse a2\n  2808: t0 = reverse a3\n  2810: a4 = u64 [s1 + 0x100]\n  2814: u64 [a4 + 0x18] = t0\n  2817: u64 [a4 + 0x10] = a2\n  2820: u64 [a4 + 0x8] = a5\n  2823: u64 [a4] = a0\n  2825: a4 = sp + 0xffffffffffffffe0\n  2828: a1 = a4 & 0xffffffffffffffe0\n  2831: sp = a1\n  2833: a4 = a0 + 0x2\n  2836: a0 = a4 <u a0\n  2839: a3 = a5 + a0\n  2842: a5 = a3 <u a5\n  2845: a5 = a0 if a0 == 0\n  2848: a5 = a5 + a2\n  2851: a0 = a5 <u a2\n  2854: a0 = a0 + t0\n  2857: u64 [a1 + 0x10] = a5\n  2860: u64 [a1 + 0x8] = a3\n  2863: u64 [a1] = a4\n  2865: u64 [a1 + 0x18] = a0\n  2868: a0 = s1 + 0x12c0\n  2872: u64 [s1 + 0xe8] = a1\n  2876: ra = 72, jump @11\n      : @109 [@dyn 36] (gas: 25)\n  2881: a0 = s1 + 0x1098\n  2885: t1 = u64 [a0 + 0x240]\n  2889: t2 = u64 [a0 + 0x238]\n  2893: t0 = u64 [a0 + 0x230]\n  2897: a3 = u64 [a0 + 0x228]\n  2901: a0 = u64 [s1 + 0x118]\n  2905: a4 = t1 ^ a0\n  2908: a5 = t1 <u a0\n  2911: a1 = u64 [s1 + 0xf8]\n  2915: a0 = t2 <u a1\n  2918: u64 [s1 + 0xd8] = a0\n  2922: a5 = a0 if a4 == 0\n  2925: a0 = u64 [s1 + 0x110]\n  2929: ra = t0 ^ a0\n  2932: a0 = t0 <u a0\n  2935: a2 = u64 [s1 + 0x108]\n  2939: u64 [s1 + 0xe0] = a3\n  2943: a2 = a3 <u a2\n  2946: u64 [s1 + 0xd0] = a2\n  2950: a0 = a2 if ra == 0\n  2953: ra = a1\n  2955: a1 = t2 ^ a1\n  2958: a1 = a1 | a4\n  2961: a5 = a0 if a1 == 0\n  2964: jump @111 if a5 == 0\n      : @110 (gas: 1)\n  2967: jump @629\n      : @111 (gas: 24)\n  2970: a1 = t2 - ra\n  2973: a2 = u64 [s1 + 0x118]\n  2977: a2 = t1 - a2\n  2980: a3 = u64 [s1 + 0xd8]\n  2984: a2 = a2 - a3\n  2987: a3 = a1 <u a0\n  2990: a2 = a2 - a3\n  2993: a1 = a1 - a0\n  2996: a0 = u64 [s1 + 0x110]\n  3000: a0 = t0 - a0\n  3003: a3 = u64 [s1 + 0xd0]\n  3007: a0 = a0 - a3\n  3010: a3 = u64 [s1 + 0xe0]\n  3014: a4 = u64 [s1 + 0x108]\n  3018: a3 = a3 - a4\n  3021: a4 = s1 + 0x2098\n  3025: a5 = a4 + 0x600\n  3029: u64 [a5 + 0x28] = a3\n  3032: u64 [a5 + 0x30] = a0\n  3035: u64 [a5 + 0x38] = a1\n  3038: u64 [a5 + 0x40] = a2\n  3041: a1 = s1 + 0x26c0\n  3045: a0 = u64 [s1 + 0xe8]\n  3049: ra = 74, jump @12\n      : @112 [@dyn 37] (gas: 3)\n  3054: a0 = s1 + 0x12a0\n  3058: a1 = u64 [s1 + 0x100]\n  3062: ra = 76, jump @11\n      : @113 [@dyn 38] (gas: 33)\n  3067: a2 = s1 + 0x1098\n  3071: a4 = a2 + 0x200\n  3075: a0 = u64 [a4 + 0x10]\n  3078: a1 = u64 [a4 + 0x8]\n  3081: t0 = u64 [a2 + 0x220]\n  3085: a3 = u64 [a4 + 0x18]\n  3088: a4 = u64 [s1 + 0x110]\n  3092: a4 = a4 + a0\n  3095: a5 = u64 [s1 + 0x108]\n  3099: a5 = a5 + a1\n  3102: a1 = a5 <u a1\n  3105: a4 = a4 + a1\n  3108: a2 = a4 ^ a0\n  3111: a0 = a4 <u a0\n  3114: a0 = a1 if a2 == 0\n  3117: a1 = u64 [s1 + 0xf8]\n  3121: a1 = a1 + a3\n  3124: a2 = u64 [s1 + 0x118]\n  3128: t0 = t0 + a2\n  3131: a2 = a1 <u a3\n  3134: a2 = a2 + t0\n  3137: a0 = a0 + a1\n  3140: a1 = a0 <u a1\n  3143: a1 = a1 + a2\n  3146: a2 = s1 + 0x2098\n  3150: a3 = a2 + 0x600\n  3154: u64 [a3 + 0x48] = a5\n  3157: u64 [a3 + 0x50] = a4\n  3160: u64 [a3 + 0x58] = a0\n  3163: u64 [a3 + 0x60] = a1\n  3166: a1 = s1 + 0x26e0\n  3170: a0 = u64 [s1 + 0x100]\n  3174: ra = 78, jump @12\n      : @114 [@dyn 39] (gas: 3)\n  3179: a0 = s1 + 0x1280\n  3183: a1 = 0x40\n  3186: ra = 80, jump @7\n      : @115 [@dyn 40] (gas: 7)\n  3191: a4 = s1 + 0x1098\n  3195: a0 = u64 [a4 + 0x200]\n  3199: a5 = a4 + 0x100\n  3203: a1 = u64 [a5 + 0xf8]\n  3207: a2 = u64 [a5 + 0xf0]\n  3211: a3 = u64 [a5 + 0xe8]\n  3215: t0 = 82, jump @1331\n      : @116 [@dyn 41] (gas: 1)\n  3220: jump @118 if a0 == 0\n      : @117 (gas: 1)\n  3223: jump @619\n      : @118 (gas: 14)\n  3226: a2 = s1 + 0x100\n  3230: a0 = u64 [a2 + 0x8]\n  3233: a5 = a4 + 0x100\n  3237: u64 [a5 + 0xc8] = a0\n  3241: a0 = u64 [a2 + 0x10]\n  3244: u64 [a5 + 0xd0] = a0\n  3248: a0 = u64 [s1 + 0xf8]\n  3252: u64 [a5 + 0xd8] = a0\n  3256: a1 = s1 + 0x1260\n  3260: a0 = u64 [a2 + 0x18]\n  3263: u64 [a5 + 0xe0] = a0\n  3267: a0 = a3\n  3269: u64 [a2 + 0x18] = a3\n  3272: ra = 84, jump @9\n      : @119 [@dyn 42] (gas: 6)\n  3277: a0 = u64 [s1 + 0xc0]\n  3281: ra = 0x56\n  3284: ecalli 4 // 'caller'\n  3286: a2 = u64 [s1 + 0xf0]\n  3290: t0 = 0x58\n  3293: jump @1311\n      : @120 [@dyn 43] (gas: 2)\n  3296: a2 = u64 [s1 + 0xf0]\n  3300: t0 = 88, jump @1311\n      : @121 [@dyn 44] (gas: 26)\n  3305: t0 = a1 | a0\n  3308: a3 = a3 >> 0x20\n  3311: a2 = reverse a2\n  3313: a1 = a2 << 0x20\n  3316: a1 = a1 | a3\n  3319: a2 = a2 >> 0x20\n  3322: a3 = u64 [0x20080]\n  3327: a0 = s1 + 0x1098\n  3331: u64 [a0 + 0x1c0] = a3\n  3335: a3 = u64 [0x20088]\n  3340: a4 = u64 [0x20090]\n  3345: a5 = u64 [0x20098]\n  3350: u64 [a0 + 0x1b8] = a3\n  3354: a3 = a0 + 0x100\n  3358: u64 [a3 + 0xb0] = a4\n  3362: u64 [a0 + 416] = 0\n  3366: u64 [a3 + 0xa8] = a5\n  3370: u64 [a3 + 0x98] = a2\n  3374: u64 [a3 + 0x90] = a1\n  3378: a1 = 0x20\n  3381: a2 = s1 + 0x1240\n  3385: a3 = s1 + 0x1220\n  3389: u64 [a0 + 0x188] = t0\n  3393: a0 = u64 [s1 + 0x118]\n  3397: ra = 0x138\n  3401: jump @13\n      : @122 (gas: 9)\n  3404: u64 [a2 + 640] = 0\n  3408: u64 [a2 + 632] = 0\n  3412: u64 [a2 + 624] = 0\n  3416: u64 [a2 + 616] = 0\n  3420: a0 = s1 + 0x2000\n  3424: i32 a0 = a0 + 0x300\n  3428: ra = 0x5a\n  3431: ecalli 16 // 'value_transferred'\n  3433: fallthrough\n      : @123 [@dyn 45] (gas: 3)\n  3434: a3 = s1 + 0x2098\n  3438: a4 = a3 + 0x200\n  3442: t0 = 92, jump @1378\n      : @124 [@dyn 46] (gas: 1)\n  3448: jump @126 if a0 == 0\n      : @125 (gas: 1)\n  3451: jump @633\n      : @126 (gas: 3)\n  3454: a0 = u64 [s1 + 0x118]\n  3458: a0 = i32 [a0]\n  3460: jump @128 if a0 >u 3\n      : @127 (gas: 1)\n  3464: jump @634\n      : @128 (gas: 16)\n  3467: a0 = s1 + 0x2000\n  3471: i32 a0 = a0 + 0x320\n  3475: ecalli 9 // 'now'\n  3477: a0 = s1 + 0x2098\n  3481: a2 = a0 + 0x200\n  3485: a1 = u64 [a2 + 0xa0]\n  3489: u64 [s1 + 0xd8] = a1\n  3493: a1 = u64 [a2 + 0x98]\n  3497: u64 [s1 + 0xd0] = a1\n  3501: a1 = u64 [a2 + 0x90]\n  3505: u64 [s1 + 0x118] = a1\n  3509: a0 = u64 [a2 + 0x88]\n  3513: u64 [s1 + 0x110] = a0\n  3517: a0 = s1 + 0x360\n  3521: a1 = 0x40\n  3524: ra = 94, jump @7\n      : @129 [@dyn 47] (gas: 6)\n  3529: a4 = s1 + 0x300\n  3533: a0 = u64 [a4 + 0x78]\n  3536: a1 = u64 [a4 + 0x70]\n  3539: a2 = u64 [a4 + 0x68]\n  3542: a3 = u64 [a4 + 0x60]\n  3545: t0 = 96, jump @1331\n      : @130 [@dyn 48] (gas: 1)\n  3550: jump @132 if a0 == 0\n      : @131 (gas: 1)\n  3553: jump @619\n      : @132 (gas: 46)\n  3556: u64 [s1 + 0x98] = a3\n  3560: t1 = u64 [s1 + 0xd0]\n  3564: a0 = clz t1\n  3566: a0 = a0 + 0x40\n  3569: ra = u64 [s1 + 0xd8]\n  3573: a2 = clz ra\n  3575: a2 = a0 if ra == 0\n  3578: t2 = u64 [s1 + 0x110]\n  3582: a0 = clz t2\n  3584: a0 = a0 + 0x40\n  3587: t0 = u64 [s1 + 0x118]\n  3591: a1 = clz t0\n  3593: a1 = a0 if t0 == 0\n  3596: a0 = a1 + 0x80\n  3600: a3 = t1 | ra\n  3603: a2 = a0 if a3 == 0\n  3606: a5 = a0 <u a1\n  3609: a5 = 0 if a3 != 0\n  3611: a4 = a5 >u 0\n  3613: a0 = a2 <u 0xf0\n  3617: a3 = a0 ^ 0x1\n  3620: a4 = a3 if a5 == 0\n  3623: a0 = a4 <u 0x1\n  3626: a0 = a0 + 0xffffffffffffffff\n  3629: a1 = -a4\n  3631: a5 = -a5\n  3633: a3 = a5 - a3\n  3636: a2 = 0xef - a2\n  3640: u64 [s1 + 0xf8] = a1\n  3644: a5 = a1 >u 0\n  3646: a1 = a0 >u 0\n  3648: a1 = a5 if a0 == 0\n  3651: a5 = a3 >u 0\n  3653: u64 [s1 + 0xe8] = a2\n  3657: a2 = a2 <u 0x100\n  3661: a2 = a2 ^ 0x1\n  3664: a2 = a5 if a3 != 0\n  3667: a2 = a1 if a4 != 0\n  3670: a1 = t2 | t1\n  3673: a4 = t0 | ra\n  3676: a1 = a1 | a4\n  3679: a1 = a1 <u 0x1\n  3682: a1 = a1 | a2\n  3685: a4 = t2\n  3687: a4 = 0 if a1 != 0\n  3689: jump @134 if a1 == 0\n      : @133 (gas: 1)\n  3692: jump @714\n      : @134 (gas: 7)\n  3695: a1 = u64 [s1 + 0xe8]\n  3699: a1 = a1 ^ 0xff\n  3703: a2 = u64 [s1 + 0xf8]\n  3707: a1 = a1 | a2\n  3710: a2 = a3 | a0\n  3713: a1 = a1 | a2\n  3716: jump @136 if a1 != 0\n      : @135 (gas: 1)\n  3719: jump @714\n      : @136 (gas: 20)\n  3722: a4 = u64 [s1 + 0xe8]\n  3726: a2 = a4 + 0x1\n  3729: u64 [s1 + 0x108] = a2\n  3733: a1 = a2 <u 0x1\n  3736: a1 = a1 + a3\n  3739: u64 [s1 + 0x100] = a1\n  3743: a1 = a1 | a2\n  3746: a1 = a1 <u 0x1\n  3749: a3 = u64 [s1 + 0xf8]\n  3753: a1 = a1 + a3\n  3756: u64 [s1 + 0xf0] = a1\n  3760: a1 = a1 <u a3\n  3763: a0 = a0 + a1\n  3766: u64 [s1 + 0xf8] = a0\n  3770: a1 = 0xff - a4\n  3774: u64 [s1 + 0xc0] = a1\n  3778: a2 = 0x80 - a1\n  3782: a0 = u64 [s1 + 0x110]\n  3786: a1 = u64 [s1 + 0x118]\n  3790: ra = 98, jump @1380\n      : @137 [@dyn 49] (gas: 6)\n  3795: u64 [s1 + 0xb8] = a0\n  3799: u64 [s1 + 0xc8] = a1\n  3803: a0 = u64 [s1 + 0xd0]\n  3807: a1 = u64 [s1 + 0xd8]\n  3811: a2 = u64 [s1 + 0xc0]\n  3815: ra = 100, jump @1385\n      : @138 [@dyn 50] (gas: 7)\n  3820: u64 [s1 + 0xb0] = a0\n  3824: u64 [s1 + 0xa8] = a1\n  3828: a0 = u64 [s1 + 0xc0]\n  3832: a2 = a0 + 0xffffffffffffff80\n  3835: a0 = u64 [s1 + 0x110]\n  3839: a1 = u64 [s1 + 0x118]\n  3843: ra = 102, jump @1385\n      : @139 [@dyn 51] (gas: 8)\n  3848: u64 [s1 + 0xa0] = a0\n  3852: u64 [s1 + 0x90] = a1\n  3856: a2 = u64 [s1 + 0xc0]\n  3860: a0 = a2 <u 0x80\n  3864: u64 [s1 + 0x88] = a0\n  3868: a0 = u64 [s1 + 0x110]\n  3872: a1 = u64 [s1 + 0x118]\n  3876: ra = 104, jump @1385\n      : @140 [@dyn 52] (gas: 12)\n  3881: u64 [s1 + 0xe0] = a1\n  3885: a1 = u64 [s1 + 0x100]\n  3889: a2 = u64 [s1 + 0xf8]\n  3893: a2 = a2 | a1\n  3896: a1 = u64 [s1 + 0x108]\n  3900: a3 = u64 [s1 + 0xf0]\n  3904: a1 = a1 | a3\n  3907: a1 = a1 | a2\n  3910: a3 = u64 [s1 + 0x88]\n  3914: a0 = 0 if a3 == 0\n  3916: u64 [s1 + 0xe8] = a0\n  3920: jump @142 if a1 != 0\n      : @141 (gas: 1)\n  3923: jump @712\n      : @142 (gas: 30)\n  3926: a2 = a3\n  3928: a0 = u64 [s1 + 0xc8]\n  3932: a1 = u64 [s1 + 0xa8]\n  3936: a0 = a0 | a1\n  3939: a5 = a3\n  3941: a1 = u64 [s1 + 0x90]\n  3945: a0 = a1 if a2 == 0\n  3948: a2 = u64 [s1 + 0xd8]\n  3952: a3 = a2\n  3954: a1 = a2\n  3956: a2 = u64 [s1 + 0xc0]\n  3960: a3 = a0 if a2 != 0\n  3963: u64 [s1 + 0xc8] = a3\n  3967: a0 = u64 [s1 + 0xb8]\n  3971: a3 = u64 [s1 + 0xb0]\n  3975: a0 = a0 | a3\n  3978: a3 = u64 [s1 + 0xa0]\n  3982: a0 = a3 if a5 == 0\n  3985: a4 = u64 [s1 + 0xd0]\n  3989: a3 = a4\n  3991: a3 = a0 if a2 != 0\n  3994: u64 [s1 + 0xc0] = a3\n  3998: a0 = u64 [s1 + 0xe0]\n  4002: a0 = 0 if a5 == 0\n  4004: u64 [s1 + 0xe0] = a0\n  4008: u64 [s1 + 176] = 0x15180\n  4015: a0 = u64 [s1 + 0x108]\n  4019: a2 = a0 + 0xffffffffffffff80\n  4022: a0 = a4\n  4024: ra = 106, jump @1380\n      : @143 [@dyn 53] (gas: 6)\n  4029: u64 [s1 + 0xb8] = a0\n  4033: u64 [s1 + 0xa0] = a1\n  4037: a0 = u64 [s1 + 0x110]\n  4041: a1 = u64 [s1 + 0x118]\n  4045: a2 = u64 [s1 + 0x108]\n  4049: ra = 108, jump @1380\n      : @144 [@dyn 54] (gas: 7)\n  4054: u64 [s1 + 0x90] = a0\n  4058: u64 [s1 + 0xa8] = a1\n  4062: a1 = u64 [s1 + 0x108]\n  4066: a2 = 0x80 - a1\n  4070: a0 = u64 [s1 + 0xd0]\n  4074: a1 = u64 [s1 + 0xd8]\n  4078: ra = 110, jump @1385\n      : @145 [@dyn 55] (gas: 21)\n  4083: a2 = u64 [s1 + 0xa8]\n  4087: a1 = a1 | a2\n  4090: a5 = s1 + 0x100\n  4094: a2 = u64 [a5 + 0x8]\n  4097: a3 = a2 <u 0x80\n  4101: u64 [s1 + 0xa8] = a3\n  4105: a4 = u64 [s1 + 0xa0]\n  4109: a1 = a4 if a3 == 0\n  4112: a4 = u64 [a5 + 0x18]\n  4115: a4 = a1 if a2 != 0\n  4118: u64 [a5 + 0x18] = a4\n  4121: a1 = u64 [s1 + 0x90]\n  4125: a0 = a0 | a1\n  4128: a1 = u64 [s1 + 0xb8]\n  4132: a0 = a1 if a3 == 0\n  4135: a1 = u64 [a5 + 0x10]\n  4138: a1 = a0 if a2 != 0\n  4141: u64 [a5 + 0x10] = a1\n  4144: a0 = u64 [s1 + 0xd0]\n  4148: a1 = u64 [s1 + 0xd8]\n  4152: ra = 112, jump @1380\n      : @146 [@dyn 56] (gas: 15)\n  4157: t2 = u64 [s1 + 0x110]\n  4161: t1 = u64 [s1 + 0x118]\n  4165: u64 [s1 + 216] = 0\n  4169: u64 [s1 + 208] = 0\n  4173: a2 = u64 [s1 + 0xa8]\n  4177: a1 = 0 if a2 == 0\n  4179: a0 = 0 if a2 == 0\n  4181: u64 [s1 + 0xb8] = a0\n  4185: a3 = u64 [s1 + 0xb0]\n  4189: a2 = a3 + 0xffffffffffffffff\n  4192: u64 [s1 + 0xa8] = a2\n  4196: a2 = a3 >u 0\n  4198: a2 = a2 + 0xffffffffffffffff\n  4201: u64 [s1 + 0xa0] = a2\n  4205: fallthrough\n      : @147 (gas: 89)\n  4206: a2 = t2 >> 0x3f\n  4209: a3 = t1 << 0x1\n  4212: a2 = a2 | a3\n  4215: a3 = t2 << 0x1\n  4218: t2 = u64 [s1 + 0xc8]\n  4222: a4 = t2 >> 0x3f\n  4225: a3 = a3 | a4\n  4228: u64 [s1 + 0x118] = a3\n  4232: ra = u64 [s1 + 0xa0]\n  4236: a0 = t1\n  4238: t1 = ra ^ a2\n  4241: t0 = ra <u a2\n  4244: a4 = u64 [s1 + 0xa8]\n  4248: a5 = a4 <u a3\n  4251: a5 = t0 if t1 != 0\n  4254: a1 = a1 << 0x1\n  4257: a4 = u64 [s1 + 0xb8]\n  4261: a3 = a4 >> 0x3f\n  4264: a1 = a1 | a3\n  4267: u64 [s1 + 0x110] = a1\n  4271: a3 = a0 >> 0x3f\n  4274: a0 = a4 << 0x1\n  4277: a3 = a3 | a0\n  4280: a0 = t2 << 0x1\n  4283: a4 = u64 [s1 + 0xc0]\n  4287: a1 = a4 >> 0x3f\n  4290: t0 = a0 | a1\n  4293: a1 = a4 << 0x1\n  4296: a4 = u64 [s1 + 0xe0]\n  4300: t1 = a4 >> 0x3f\n  4303: t1 = a1 | t1\n  4306: a1 = a4 << 0x1\n  4309: a4 = u64 [s1 + 0xe8]\n  4313: t2 = a4 >> 0x3f\n  4316: a1 = a1 | t2\n  4319: a4 = a4 << 0x1\n  4322: a0 = u64 [s1 + 0xd8]\n  4326: a4 = a4 | a0\n  4329: u64 [s1 + 0xe8] = a4\n  4333: a0 = u64 [s1 + 0xd0]\n  4337: a1 = a1 | a0\n  4340: u64 [s1 + 0xe0] = a1\n  4344: a1 = a0 | t1\n  4347: u64 [s1 + 0xc0] = a1\n  4351: a0 = a0 | t0\n  4354: u64 [s1 + 0xc8] = a0\n  4358: a0 = ra - a3\n  4361: a0 = a0 <u a5\n  4364: a1 = ra <u a3\n  4367: a5 = u64 [s1 + 0x110]\n  4371: a4 = ra - a5\n  4374: a4 = a4 - a1\n  4377: a4 = a4 - a0\n  4380: ra = a4 >>a 0x3f\n  4383: a0 = u64 [s1 + 0xb0]\n  4387: a0 = ra & a0\n  4390: a1 = u64 [s1 + 0x118]\n  4394: t2 = a1 - a0\n  4397: a1 = a1 <u a0\n  4400: t1 = a2 - a1\n  4403: a1 = 0 if a2 != 0\n  4405: a0 = a3 - a1\n  4408: u64 [s1 + 0xb8] = a0\n  4412: a1 = a3 <u a1\n  4415: a1 = a5 - a1\n  4418: a0 = s1 + 0x100\n  4422: a3 = u64 [a0 + 0x8]\n  4425: a5 = u64 [a0]\n  4427: a2 = a3 | a5\n  4430: a2 = a2 <u 0x1\n  4433: a4 = u64 [s1 + 0xf0]\n  4437: t0 = a4 <u a2\n  4440: a2 = a4 - a2\n  4443: a4 = a3 <u 0x1\n  4446: a5 = a5 - a4\n  4449: a4 = u64 [s1 + 0xf8]\n  4453: a4 = a4 - t0\n  4456: a3 = a3 + 0xffffffffffffffff\n  4459: u64 [a0] = a5\n  4461: u64 [s1 + 0xf8] = a4\n  4465: t0 = a5 | a4\n  4468: u64 [a0 + 0x8] = a3\n  4471: a4 = a3 | a2\n  4474: a3 = a4 | t0\n  4477: a4 = ra & 0x1\n  4480: u64 [s1 + 0xd8] = a4\n  4484: u64 [s1 + 0xf0] = a2\n  4488: u64 [s1 + 208] = 0\n  4492: jump @147 if a3 != 0\n      : @148 (gas: 1)\n  4496: jump @713\n      : @149 (gas: 9)\n  4499: u64 [a2 + 704] = 0\n  4503: u64 [a2 + 696] = 0\n  4507: u64 [a2 + 688] = 0\n  4511: u64 [a2 + 680] = 0\n  4515: a0 = s1 + 0x2000\n  4519: i32 a0 = a0 + 0x340\n  4523: ra = 0x72\n  4526: ecalli 16 // 'value_transferred'\n  4528: fallthrough\n      : @150 [@dyn 57] (gas: 3)\n  4529: a3 = s1 + 0x2098\n  4533: a4 = a3 + 0x200\n  4537: t0 = 116, jump @1373\n      : @151 [@dyn 58] (gas: 1)\n  4542: jump @153 if a0 == 0\n      : @152 (gas: 1)\n  4545: jump @635\n      : @153 (gas: 1)\n  4548: t0 = 118, jump @1362\n      : @154 [@dyn 59] (gas: 1)\n  4553: jump @156 if a1 <u a0\n      : @155 (gas: 1)\n  4556: jump @636\n      : @156 (gas: 6)\n  4559: a0 = s1 + 0x2000\n  4563: i32 a0 = a0 + 0x360\n  4567: a1 = 0x4\n  4570: ra = 0x78\n  4573: ecalli 2 // 'call_data_load'\n  4575: fallthrough\n      : @157 [@dyn 60] (gas: 7)\n  4576: a0 = s1 + 0x2098\n  4580: a5 = a0 + 0x200\n  4584: a1 = u64 [a5 + 0xe0]\n  4588: a2 = u64 [a5 + 0xd8]\n  4592: a3 = u64 [a5 + 0xd0]\n  4596: a4 = u64 [a5 + 0xc8]\n  4600: t0 = 122, jump @1336\n      : @158 [@dyn 61] (gas: 1)\n  4605: jump @160 if a0 != 0\n      : @159 (gas: 1)\n  4608: jump @637\n      : @160 (gas: 8)\n  4611: a0 = 0x30180\n  4616: u64 [s1 + 0x100] = a0\n  4620: i32 a0 = a0 + 0\n  4622: u64 [s1 + 0xe8] = a0\n  4626: ra = 0x7c\n  4629: ecalli 4 // 'caller'\n  4631: t0 = 0x7e\n  4634: jump @1315\n      : @161 [@dyn 62] (gas: 1)\n  4637: t0 = 126, jump @1315\n      : @162 [@dyn 63] (gas: 8)\n  4642: u64 [s1 + 1240] = 0\n  4646: a2 = s1 + 0x400\n  4650: u64 [a2 + 0xd0] = a1\n  4654: u64 [a2 + 0xc8] = a0\n  4658: a1 = s1 + 0x4c0\n  4662: u64 [a2 + 0xc0] = a3\n  4666: a0 = 0\n  4668: ra = 128, jump @9\n      : @163 [@dyn 64] (gas: 7)\n  4674: u64 [s1 + 1208] = 0\n  4678: u64 [s1 + 1200] = 0\n  4682: u64 [s1 + 1192] = 0\n  4686: a0 = 0x20\n  4689: a1 = s1 + 0x4a0\n  4693: u64 [s1 + 1184] = 0\n  4697: ra = 130, jump @9\n      : @164 [@dyn 65] (gas: 7)\n  4703: a0 = sp + 0xffffffffffffffe0\n  4706: a0 = a0 & 0xffffffffffffffe0\n  4709: u64 [s1 + 0xf0] = a0\n  4713: sp = a0\n  4715: a2 = 0x20170\n  4720: a0 = i32 [0x20170]\n  4725: jump @166 if a0 >u 63\n      : @165 (gas: 2)\n  4729: u32 [0x20170] = 0x40\n  4735: fallthrough\n      : @166 (gas: 15)\n  4736: u64 [s1 + 0xc0] = a2\n  4740: a0 = sp + 0xffffffffffffffe0\n  4743: a2 = a0 & 0xffffffffffffffe0\n  4746: u64 [s1 + 0xe0] = a2\n  4750: sp = a2\n  4752: a0 = 0x20180\n  4757: i32 a0 = a0 + 0\n  4759: i32 a2 = a2 + 0\n  4761: a1 = 0x40\n  4764: u64 [s1 + 0xc8] = a0\n  4768: ra = 0x84\n  4772: ecalli 8 // 'hash_keccak_256'\n  4774: a3 = u64 [s1 + 0xe0]\n  4778: t0 = 0x86\n  4782: jump @1339\n      : @167 [@dyn 66] (gas: 2)\n  4785: a3 = u64 [s1 + 0xe0]\n  4789: t0 = 134, jump @1339\n      : @168 [@dyn 67] (gas: 2)\n  4795: a0 = s1 + 0x480\n  4799: ra = 136, jump @11\n      : @169 [@dyn 68] (gas: 24)\n  4805: t1 = u64 [s1 + 0x498]\n  4809: t2 = u64 [s1 + 0x490]\n  4813: t0 = u64 [s1 + 0x488]\n  4817: a3 = u64 [s1 + 0x480]\n  4821: a0 = u64 [s1 + 0x118]\n  4825: a4 = t1 ^ a0\n  4828: a5 = t1 <u a0\n  4831: a1 = u64 [s1 + 0xf8]\n  4835: a0 = t2 <u a1\n  4838: u64 [s1 + 0xd8] = a0\n  4842: a5 = a0 if a4 == 0\n  4845: a0 = u64 [s1 + 0x110]\n  4849: ra = t0 ^ a0\n  4852: a0 = t0 <u a0\n  4855: a2 = u64 [s1 + 0x108]\n  4859: u64 [s1 + 0xe0] = a3\n  4863: a2 = a3 <u a2\n  4866: u64 [s1 + 0xd0] = a2\n  4870: a0 = a2 if ra == 0\n  4873: ra = a1\n  4875: a1 = t2 ^ a1\n  4878: a1 = a1 | a4\n  4881: a5 = a0 if a1 == 0\n  4884: jump @171 if a5 == 0\n      : @170 (gas: 1)\n  4887: jump @641\n      : @171 (gas: 11)\n  4890: a1 = t2 - ra\n  4893: a2 = u64 [s1 + 0x118]\n  4897: a2 = t1 - a2\n  4900: a3 = u64 [s1 + 0xd8]\n  4904: a2 = a2 - a3\n  4907: a3 = a1 <u a0\n  4910: a2 = a2 - a3\n  4913: a1 = a1 - a0\n  4916: a0 = u64 [s1 + 0x110]\n  4920: a0 = t0 - a0\n  4923: t0 = 138, jump @1359\n      : @172 [@dyn 69] (gas: 8)\n  4929: a5 = a4 + 0x200\n  4933: u64 [a5 + 0xe8] = a3\n  4937: u64 [a5 + 0xf0] = a0\n  4941: u64 [a5 + 0xf8] = a1\n  4945: u64 [a4 + 0x300] = a2\n  4949: a1 = s1 + 0x2380\n  4953: a0 = u64 [s1 + 0xf0]\n  4957: ra = 140, jump @12\n      : @173 [@dyn 70] (gas: 5)\n  4963: a0 = u64 [s1 + 0xe8]\n  4967: ra = 0x8e\n  4971: ecalli 4 // 'caller'\n  4973: t0 = 0x90\n  4977: jump @1324\n      : @174 [@dyn 71] (gas: 1)\n  4980: t0 = 144, jump @1324\n      : @175 [@dyn 72] (gas: 14)\n  4986: u64 [s1 + 0x458] = a2\n  4990: a2 = u64 [s1 + 0xf8]\n  4994: u64 [s1 + 0x450] = a2\n  4998: a2 = u64 [a4 + 0x10]\n  5001: u64 [s1 + 0x448] = a2\n  5005: a2 = u64 [a4 + 0x8]\n  5008: u64 [s1 + 0x440] = a2\n  5012: u64 [s1 + 1144] = 0\n  5016: u64 [s1 + 0x470] = a1\n  5020: u64 [s1 + 0x468] = a0\n  5024: a0 = s1 + 0x460\n  5028: a1 = s1 + 0x440\n  5032: u64 [s1 + 0x460] = a3\n  5036: ra = 146, jump @1286\n      : @176 [@dyn 73] (gas: 3)\n  5042: a0 = s1 + 0x420\n  5046: a1 = 0x40\n  5049: ra = 148, jump @7\n      : @177 [@dyn 74] (gas: 6)\n  5055: a4 = s1 + 0x400\n  5059: a0 = u64 [a4 + 0x38]\n  5062: a1 = u64 [a4 + 0x30]\n  5065: a2 = u64 [a4 + 0x28]\n  5068: a3 = u64 [a4 + 0x20]\n  5071: t0 = 150, jump @1331\n      : @178 [@dyn 75] (gas: 1)\n  5077: jump @180 if a0 == 0\n      : @179 (gas: 1)\n  5080: jump @619\n      : @180 (gas: 13)\n  5083: a0 = u64 [s1 + 0x108]\n  5087: a2 = s1 + 0x400\n  5091: u64 [a2] = a0\n  5093: a0 = u64 [s1 + 0x110]\n  5097: u64 [a2 + 0x8] = a0\n  5100: a0 = u64 [s1 + 0xf8]\n  5104: u64 [a2 + 0x10] = a0\n  5107: a1 = s1 + 0x400\n  5111: a0 = u64 [s1 + 0x118]\n  5115: u64 [a2 + 0x18] = a0\n  5118: a0 = a3\n  5120: u64 [s1 + 0x118] = a3\n  5124: ra = 152, jump @9\n      : @181 [@dyn 76] (gas: 6)\n  5130: a0 = u64 [s1 + 0xe8]\n  5134: ra = 0x9a\n  5138: ecalli 4 // 'caller'\n  5140: a2 = u64 [s1 + 0x100]\n  5144: t0 = 0x9c\n  5148: jump @1311\n      : @182 [@dyn 77] (gas: 2)\n  5151: a2 = u64 [s1 + 0x100]\n  5155: t0 = 156, jump @1311\n      : @183 [@dyn 78] (gas: 25)\n  5161: t0 = a1 | a0\n  5164: a3 = a3 >> 0x20\n  5167: a2 = reverse a2\n  5169: a1 = a2 << 0x20\n  5172: a1 = a1 | a3\n  5175: a2 = a2 >> 0x20\n  5178: u64 [s1 + 984] = 0\n  5182: a3 = u64 [0x200f8]\n  5187: a4 = u64 [0x20100]\n  5192: a5 = u64 [0x20108]\n  5197: a0 = u64 [0x20110]\n  5202: u64 [s1 + 0x3f8] = a3\n  5206: a3 = s1 + 0x300\n  5210: u64 [a3 + 0xf0] = a4\n  5214: u64 [a3 + 0xe8] = a5\n  5218: u64 [a3 + 0xe0] = a0\n  5222: u64 [a3 + 0xd0] = a2\n  5226: u64 [a3 + 0xc8] = a1\n  5230: a1 = 0x20\n  5233: a2 = s1 + 0x3e0\n  5237: a3 = s1 + 0x3c0\n  5241: u64 [s1 + 0x3c0] = t0\n  5245: a0 = u64 [s1 + 0x118]\n  5249: ra = 0x138\n  5253: jump @13\n      : @184 (gas: 9)\n  5256: u64 [a3 + 96] = 0\n  5259: u64 [a3 + 88] = 0\n  5262: u64 [a3 + 80] = 0\n  5265: u64 [a3 + 72] = 0\n  5268: a0 = s1 + 0x3000\n  5272: i32 a0 = a0 + 0xfffffffffffff8e0\n  5276: ra = 0x9e\n  5280: ecalli 16 // 'value_transferred'\n  5282: fallthrough\n      : @185 [@dyn 79] (gas: 9)\n  5283: a3 = s1 + 0x2898\n  5287: a0 = u64 [a3 + 0x58]\n  5290: a1 = u64 [a3 + 0x60]\n  5293: a2 = u64 [a3 + 0x50]\n  5296: a3 = u64 [a3 + 0x48]\n  5299: a1 = a1 | a2\n  5302: a0 = a0 | a3\n  5305: a0 = a0 | a1\n  5308: jump @187 if a0 == 0\n      : @186 (gas: 1)\n  5311: jump @642\n      : @187 (gas: 1)\n  5314: t0 = 160, jump @1362\n      : @188 [@dyn 80] (gas: 1)\n  5320: jump @190 if a1 <u a0\n      : @189 (gas: 1)\n  5323: jump @643\n      : @190 (gas: 5)\n  5326: a0 = s1 + 0x3000\n  5330: i32 a0 = a0 + 0xfffffffffffff900\n  5334: a1 = 0x4\n  5337: ecalli 2 // 'call_data_load'\n  5339: fallthrough\n      : @191 (gas: 13)\n  5340: a0 = s1 + 0x2898\n  5344: a1 = u64 [a0 + 0x80]\n  5348: a2 = u64 [a0 + 0x78]\n  5351: a3 = u64 [a0 + 0x70]\n  5354: a4 = u64 [a0 + 0x68]\n  5357: u64 [s1 + 0x70] = a1\n  5360: u64 [s1 + 0x60] = a3\n  5363: a0 = a3 | a1\n  5366: u64 [s1 + 0x68] = a2\n  5369: u64 [s1 + 0x58] = a4\n  5372: a1 = a4 | a2\n  5375: a0 = a0 | a1\n  5378: jump @193 if a0 != 0\n      : @192 (gas: 1)\n  5381: jump @644\n      : @193 (gas: 8)\n  5384: a0 = 0x30180\n  5389: u64 [s1 + 0x88] = a0\n  5393: i32 a0 = a0 + 0\n  5395: u64 [s1 + 0x78] = a0\n  5398: ra = 0xa2\n  5402: ecalli 4 // 'caller'\n  5404: t0 = 0xa4\n  5408: jump @1323\n      : @194 [@dyn 81] (gas: 1)\n  5411: t0 = 164, jump @1323\n      : @195 [@dyn 82] (gas: 8)\n  5417: u64 [a2 + 352] = 0\n  5421: a4 = a2 + 0x100\n  5425: u64 [a4 + 0x58] = a1\n  5428: u64 [a4 + 0x50] = a0\n  5431: a1 = s1 + 0x21e0\n  5435: u64 [a4 + 0x48] = a3\n  5438: a0 = 0\n  5440: ra = 166, jump @9\n      : @196 [@dyn 83] (gas: 9)\n  5446: a1 = s1 + 0x2098\n  5450: u64 [a1 + 320] = 0\n  5454: u64 [a1 + 312] = 0\n  5458: u64 [a1 + 296] = 0x2\n  5463: a2 = a1\n  5465: a0 = 0x20\n  5468: a1 = s1 + 0x21c0\n  5472: u64 [a2 + 304] = 0\n  5476: ra = 168, jump @9\n      : @197 [@dyn 84] (gas: 8)\n  5482: a0 = sp + 0xffffffffffffffe0\n  5485: a0 = a0 & 0xffffffffffffffe0\n  5488: u64 [s1 + 0x118] = a0\n  5492: sp = a0\n  5494: a2 = 0x20170\n  5499: a0 = i32 [0x20170]\n  5504: a1 = 0x3f\n  5507: jump @199 if a1 <u a0\n      : @198 (gas: 2)\n  5510: u32 [0x20170] = 0x40\n  5516: fallthrough\n      : @199 (gas: 4)\n  5517: u64 [s1 + 0x48] = a2\n  5520: a0 = 0xffffffff\n  5530: u64 [s1 + 0x80] = a0\n  5534: t0 = 170, jump @1369\n      : @200 [@dyn 85] (gas: 9)\n  5540: a0 = 0x20180\n  5545: i32 a0 = a0 + 0\n  5547: i32 a2 = a2 + 0\n  5549: a1 = 0x40\n  5552: u64 [s1 + 0x50] = a0\n  5555: ra = 0xac\n  5559: ecalli 8 // 'hash_keccak_256'\n  5561: t0 = 0xae\n  5565: jump @1329\n      : @201 [@dyn 86] (gas: 1)\n  5568: t0 = 174, jump @1329\n      : @202 [@dyn 87] (gas: 3)\n  5574: i32 a0 = a0 + 0x1a0\n  5578: a0 = a0 + s1\n  5581: ra = 176, jump @11\n      : @203 [@dyn 88] (gas: 4)\n  5587: a0 = s1 + 0x2098\n  5591: a0 = u32 [a0 + 0x108]\n  5595: a1 = u64 [s1 + 0x80]\n  5599: jump @205 if a0 != a1\n      : @204 (gas: 1)\n  5602: jump @649\n      : @205 (gas: 10)\n  5605: a1 = a0 + 0x1\n  5608: u64 [s1 + 0x98] = a1\n  5612: a0 = a1 <u 0x1\n  5615: u64 [s1 + 0x90] = a0\n  5619: a0 = a0 | a1\n  5622: a0 = a0 <u 0x1\n  5625: u64 [s1 + 0xa0] = a0\n  5629: a0 = s1 + 0x2180\n  5633: a1 = u64 [s1 + 0x118]\n  5637: ra = 178, jump @11\n      : @206 [@dyn 89] (gas: 20)\n  5643: a3 = s1 + 0x2098\n  5647: a0 = u32 [a3 + 0xec]\n  5651: a1 = u64 [a3 + 0xf8]\n  5655: a0 = a0 << 0x20\n  5658: a2 = u64 [a3 + 0xf0]\n  5662: a3 = u64 [a3 + 0x100]\n  5666: a4 = u64 [s1 + 0xa0]\n  5670: a1 = a1 | a4\n  5673: a4 = u64 [s1 + 0x98]\n  5677: a0 = a0 | a4\n  5680: a4 = u64 [s1 + 0x90]\n  5684: a2 = a2 | a4\n  5687: a4 = s1 + 0x2898\n  5691: u64 [a4 + 0xa0] = a3\n  5695: u64 [a4 + 0x90] = a2\n  5699: u64 [a4 + 0x88] = a0\n  5703: u64 [a4 + 0x98] = a1\n  5707: a1 = s1 + 0x2920\n  5711: a0 = u64 [s1 + 0x118]\n  5715: ra = 180, jump @12\n      : @207 [@dyn 90] (gas: 4)\n  5721: a0 = s1 + 0x3000\n  5725: i32 a0 = a0 + 0xfffffffffffff940\n  5729: ecalli 9 // 'now'\n  5731: fallthrough\n      : @208 (gas: 48)\n  5732: a0 = s1 + 0x2898\n  5736: t2 = u64 [a0 + 0xc0]\n  5740: a3 = u64 [a0 + 0xb8]\n  5744: u64 [s1 + 0xd8] = a3\n  5748: t1 = u64 [a0 + 0xb0]\n  5752: ra = u64 [a0 + 0xa8]\n  5756: a0 = clz t2\n  5758: a1 = clz a3\n  5760: a2 = a1 + 0x40\n  5763: a2 = a0 if t2 != 0\n  5766: a0 = clz t1\n  5768: a1 = clz ra\n  5770: a1 = a1 + 0x40\n  5773: a1 = a0 if t1 != 0\n  5776: a0 = a1 + 0x80\n  5780: a3 = a3 | t2\n  5783: a2 = a0 if a3 == 0\n  5786: a5 = a0 <u a1\n  5789: a5 = 0 if a3 != 0\n  5791: a4 = a5 >u 0\n  5793: a0 = a2 <u 0xf0\n  5797: a3 = a0 ^ 0x1\n  5800: a4 = a3 if a5 == 0\n  5803: a0 = a4 <u 0x1\n  5806: a0 = a0 + 0xffffffffffffffff\n  5809: a1 = -a4\n  5811: a5 = -a5\n  5813: a3 = a5 - a3\n  5816: t0 = 0xef - a2\n  5820: u64 [s1 + 0x118] = a1\n  5824: a5 = a1 >u 0\n  5826: a1 = a0 >u 0\n  5828: a1 = a5 if a0 == 0\n  5831: a5 = t0 <u 0x100\n  5835: a5 = a5 ^ 0x1\n  5838: a2 = a3 >u 0\n  5840: a5 = a2 if a3 != 0\n  5843: a5 = a1 if a4 != 0\n  5846: u64 [s1 + 0xc0] = t2\n  5850: a1 = t1 | t2\n  5853: a4 = u64 [s1 + 0xd8]\n  5857: a2 = ra | a4\n  5860: a1 = a1 | a2\n  5863: a1 = a1 <u 0x1\n  5866: a1 = a1 | a5\n  5869: t2 = ra\n  5871: ra = 0 if a1 != 0\n  5873: jump @210 if a1 == 0\n      : @209 (gas: 1)\n  5876: jump @454\n      : @210 (gas: 6)\n  5879: a1 = t0 ^ 0xff\n  5883: a5 = u64 [s1 + 0x118]\n  5887: a1 = a1 | a5\n  5890: a2 = a3 | a0\n  5893: a1 = a1 | a2\n  5896: jump @212 if a1 != 0\n      : @211 (gas: 1)\n  5899: jump @454\n      : @212 (gas: 20)\n  5902: a2 = t0 + 0x1\n  5905: u64 [s1 + 0x110] = a2\n  5909: a1 = a2 <u 0x1\n  5912: a1 = a1 + a3\n  5915: u64 [s1 + 0x100] = a1\n  5919: a1 = a1 | a2\n  5922: a1 = a1 <u 0x1\n  5925: a1 = a1 + a5\n  5928: u64 [s1 + 0xf0] = a1\n  5932: a1 = a1 <u a5\n  5935: a0 = a0 + a1\n  5938: u64 [s1 + 0xf8] = a0\n  5942: a1 = 0xff - t0\n  5946: u64 [s1 + 0xe8] = a1\n  5950: a2 = 0x80 - a1\n  5954: a0 = t2\n  5956: u64 [s1 + 0xd0] = t2\n  5960: a1 = t1\n  5962: u64 [s1 + 0xc8] = t1\n  5966: ra = 182, jump @1380\n      : @213 [@dyn 91] (gas: 6)\n  5972: u64 [s1 + 0xe0] = a0\n  5976: u64 [s1 + 0x118] = a1\n  5980: a0 = u64 [s1 + 0xd8]\n  5984: a1 = u64 [s1 + 0xc0]\n  5988: a2 = u64 [s1 + 0xe8]\n  5992: ra = 184, jump @1385\n      : @214 [@dyn 92] (gas: 7)\n  5998: u64 [s1 + 0xb0] = a0\n  6002: u64 [s1 + 0xa8] = a1\n  6006: a0 = u64 [s1 + 0xe8]\n  6010: a2 = a0 + 0xffffffffffffff80\n  6013: a0 = u64 [s1 + 0xd0]\n  6017: a1 = u64 [s1 + 0xc8]\n  6021: ra = 186, jump @1385\n      : @215 [@dyn 93] (gas: 8)\n  6027: u64 [s1 + 0x40] = a0\n  6030: u64 [s1 + 0x38] = a1\n  6033: a2 = u64 [s1 + 0xe8]\n  6037: a0 = a2 <u 0x80\n  6041: u64 [s1 + 0xb8] = a0\n  6045: a0 = u64 [s1 + 0xd0]\n  6049: a1 = u64 [s1 + 0xc8]\n  6053: ra = 188, jump @1385\n      : @216 [@dyn 94] (gas: 11)\n  6059: a4 = u64 [s1 + 0xb8]\n  6063: t0 = u64 [s1 + 0xf0]\n  6067: a5 = u64 [s1 + 0xf8]\n  6071: a2 = u64 [s1 + 0x100]\n  6075: a5 = a5 | a2\n  6078: a3 = u64 [s1 + 0x110]\n  6082: a3 = a3 | t0\n  6085: a3 = a3 | a5\n  6088: a0 = 0 if a4 == 0\n  6090: u64 [s1 + 0x108] = a0\n  6094: jump @218 if a3 == 0\n      : @217 (gas: 1)\n  6097: jump @445\n      : @218 (gas: 2)\n  6100: a5 = 0\n  6102: jump @453\n      : @219 (gas: 3)\n  6105: a0 = u64 [s1 + 0x118]\n  6109: a0 = i32 [a0]\n  6111: jump @221 if a0 >u 3\n      : @220 (gas: 1)\n  6115: jump @653\n      : @221 (gas: 8)\n  6118: u64 [a3 + 0] = 0\n  6120: u64 [a3 + 4294967288] = 0\n  6123: u64 [a3 + 4294967280] = 0\n  6126: u64 [a3 + 4294967272] = 0\n  6129: a0 = s1 + 0x3000\n  6133: i32 a0 = a0 + 0xfffffffffffff880\n  6137: ecalli 16 // 'value_transferred'\n  6139: fallthrough\n      : @222 (gas: 10)\n  6140: a3 = s1 + 0x2898\n  6144: a4 = a3 + 0xffffffffffffff00\n  6148: a0 = u64 [a4 + 0xf8]\n  6152: a1 = u64 [a3]\n  6154: a2 = u64 [a4 + 0xf0]\n  6158: a3 = u64 [a4 + 0xe8]\n  6162: a1 = a1 | a2\n  6165: a0 = a0 | a3\n  6168: a0 = a0 | a1\n  6171: jump @224 if a0 != 0\n      : @223 (gas: 1)\n  6174: jump @654\n      : @224 (gas: 9)\n  6177: a0 = 0x30180\n  6182: u64 [s1 + 0x100] = a0\n  6186: i32 a0 = a0 + 0\n  6188: u64 [s1 + 0xd8] = a0\n  6192: ra = 0xbe\n  6196: ecalli 4 // 'caller'\n  6198: a2 = u64 [s1 + 0x100]\n  6202: t0 = 0xc0\n  6206: jump @1308\n      : @225 [@dyn 95] (gas: 2)\n  6209: a2 = u64 [s1 + 0x100]\n  6213: t0 = 192, jump @1308\n      : @226 [@dyn 96] (gas: 8)\n  6219: u64 [a2 + 1120] = 0\n  6223: a4 = a2 + 0x400\n  6227: u64 [a4 + 0x58] = a1\n  6230: u64 [a4 + 0x50] = a0\n  6233: a1 = s1 + 0x1ce0\n  6237: u64 [a4 + 0x48] = a3\n  6240: a0 = 0\n  6242: ra = 194, jump @9\n      : @227 [@dyn 97] (gas: 9)\n  6248: a0 = s1 + 0x1898\n  6252: u64 [a0 + 1088] = 0\n  6256: u64 [a0 + 1080] = 0\n  6260: u64 [a0 + 1072] = 0\n  6264: a2 = a0\n  6266: a0 = 0x20\n  6269: a1 = s1 + 0x1cc0\n  6273: u64 [a2 + 1064] = 0\n  6277: ra = 196, jump @9\n      : @228 [@dyn 98] (gas: 8)\n  6283: a0 = sp + 0xffffffffffffffe0\n  6286: a0 = a0 & 0xffffffffffffffe0\n  6289: u64 [s1 + 0x118] = a0\n  6293: sp = a0\n  6295: a2 = 0x20170\n  6300: a0 = i32 [0x20170]\n  6305: a1 = 0x3f\n  6308: jump @230 if a1 <u a0\n      : @229 (gas: 4)\n  6311: u32 [0x20170] = 0x40\n  6317: u64 [s1 + 0xd0] = a2\n  6321: t0 = 0xc6\n  6325: jump @1369\n      : @230 (gas: 2)\n  6328: u64 [s1 + 0xd0] = a2\n  6332: t0 = 198, jump @1369\n      : @231 [@dyn 99] (gas: 9)\n  6338: a0 = 0x20180\n  6343: i32 a0 = a0 + 0\n  6345: i32 a2 = a2 + 0\n  6347: a1 = 0x40\n  6350: u64 [s1 + 0xe0] = a0\n  6354: ra = 0xc8\n  6358: ecalli 8 // 'hash_keccak_256'\n  6360: t0 = 0xca\n  6364: jump @1329\n      : @232 [@dyn 100] (gas: 1)\n  6367: t0 = 202, jump @1329\n      : @233 [@dyn 101] (gas: 3)\n  6373: i32 a0 = a0 + 0xfffffffffffffca0\n  6377: a0 = a0 + s1\n  6380: ra = 204, jump @11\n      : @234 [@dyn 102] (gas: 23)\n  6386: a0 = s1 + 0x1898\n  6390: a2 = a0 + 0x400\n  6394: a1 = u64 [a2 + 0x20]\n  6397: u64 [s1 + 0xf0] = a1\n  6401: a1 = u64 [a2 + 0x18]\n  6404: u64 [s1 + 0x110] = a1\n  6408: a1 = u64 [a2 + 0x8]\n  6411: u64 [s1 + 0xe8] = a1\n  6415: a0 = u64 [a2 + 0x10]\n  6418: u64 [s1 + 0x108] = a0\n  6422: a0 = sp + 0xffffffffffffffe0\n  6425: a0 = a0 & 0xffffffffffffffe0\n  6428: u64 [s1 + 0xf8] = a0\n  6432: sp = a0\n  6434: a0 = s1 + 0x2898\n  6438: u64 [a0 + 32] = 0\n  6441: u64 [a0 + 24] = 0\n  6444: u64 [a0 + 16] = 0\n  6447: u64 [a0 + 8] = 0\n  6450: a0 = s1 + 0x3000\n  6454: i32 a0 = a0 + 0xfffffffffffff8a0\n  6458: ecalli 16 // 'value_transferred'\n  6460: fallthrough\n      : @235 (gas: 42)\n  6461: a0 = s1 + 0x2898\n  6465: a2 = u64 [a0 + 0x10]\n  6468: a1 = u64 [a0 + 0x8]\n  6471: t0 = u64 [a0 + 0x20]\n  6474: a4 = u64 [a0 + 0x18]\n  6477: a5 = u64 [s1 + 0x108]\n  6481: a5 = a5 + a2\n  6484: a0 = u64 [s1 + 0xe8]\n  6488: t1 = a1 + a0\n  6491: a1 = t1 <u a1\n  6494: a5 = a5 + a1\n  6497: a3 = a5 ^ a2\n  6500: a2 = a5 <u a2\n  6503: a2 = a1 if a3 == 0\n  6506: a1 = u64 [s1 + 0x110]\n  6510: a1 = a1 + a4\n  6513: ra = u64 [s1 + 0xf0]\n  6517: t0 = t0 + ra\n  6520: a3 = a1 <u a4\n  6523: a3 = a3 + t0\n  6526: a2 = a2 + a1\n  6529: a1 = a2 <u a1\n  6532: t2 = a3 + a1\n  6535: a3 = u64 [s1 + 0x108]\n  6539: a1 = a3 ^ a5\n  6542: a4 = a5 <u a3\n  6545: a0 = t1 <u a0\n  6548: a0 = a4 if a1 != 0\n  6551: a3 = u64 [s1 + 0x110]\n  6555: t0 = a2 <u a3\n  6558: a4 = ra ^ t2\n  6561: a1 = t2 <u ra\n  6564: a1 = t0 if a4 == 0\n  6567: a3 = a3 ^ a2\n  6570: a3 = a3 | a4\n  6573: a0 = a1 if a3 != 0\n  6576: a1 = u64 [s1 + 0xf8]\n  6580: u64 [a1] = t1\n  6582: u64 [a1 + 0x8] = a5\n  6585: u64 [a1 + 0x10] = a2\n  6588: u64 [a1 + 0x18] = t2\n  6591: jump @237 if a0 == 0\n      : @236 (gas: 1)\n  6594: jump @659\n      : @237 (gas: 2)\n  6597: a0 = u64 [s1 + 0x118]\n  6601: ra = 206, jump @12\n      : @238 [@dyn 103] (gas: 3)\n  6607: a0 = s1 + 0x1c80\n  6611: a1 = 0x40\n  6614: ra = 208, jump @7\n      : @239 [@dyn 104] (gas: 19)\n  6620: a0 = s1 + 0x1898\n  6624: a1 = u64 [a0 + 0x400]\n  6628: u64 [s1 + 0x110] = a1\n  6632: a2 = a0 + 0x300\n  6636: a1 = u64 [a2 + 0xf8]\n  6640: u64 [s1 + 0x108] = a1\n  6644: a1 = u64 [a2 + 0xf0]\n  6648: u64 [s1 + 0xf8] = a1\n  6652: a0 = u64 [a2 + 0xe8]\n  6656: u64 [s1 + 0x118] = a0\n  6660: a0 = s1 + 0x2898\n  6664: u64 [a0 + 64] = 0\n  6667: u64 [a0 + 56] = 0\n  6670: u64 [a0 + 48] = 0\n  6673: u64 [a0 + 40] = 0\n  6676: a0 = s1 + 0x3000\n  6680: i32 a0 = a0 + 0xfffffffffffff8c0\n  6684: ecalli 16 // 'value_transferred'\n  6686: fallthrough\n      : @240 (gas: 14)\n  6687: a3 = s1 + 0x100\n  6691: a0 = u64 [a3 + 0x10]\n  6694: a1 = u64 [s1 + 0xf8]\n  6698: a0 = a0 | a1\n  6701: a1 = u64 [a3 + 0x18]\n  6704: a5 = a1\n  6706: a2 = u64 [a3 + 0x8]\n  6709: a1 = a1 | a2\n  6712: a1 = a1 | a0\n  6715: a1 = a1 >> 0x20\n  6718: a0 = a0 | a2\n  6721: a0 = a0 << 0x20\n  6724: a0 = a0 | a1\n  6727: jump @242 if a0 == 0\n      : @241 (gas: 1)\n  6730: jump @619\n      : @242 (gas: 14)\n  6733: a3 = s1 + 0x2898\n  6737: a0 = u64 [a3 + 0x28]\n  6740: a1 = u64 [a3 + 0x30]\n  6743: a2 = u64 [a3 + 0x38]\n  6746: a3 = u64 [a3 + 0x40]\n  6749: a4 = s1 + 0x1898\n  6753: u64 [a4 + 0x3e0] = a3\n  6757: a3 = a4 + 0x300\n  6761: u64 [a3 + 0xd8] = a2\n  6765: u64 [a3 + 0xd0] = a1\n  6769: a1 = s1 + 0x1c60\n  6773: u64 [a3 + 0xc8] = a0\n  6777: a0 = a5\n  6779: ra = 210, jump @9\n      : @243 [@dyn 105] (gas: 6)\n  6785: a0 = u64 [s1 + 0xd8]\n  6789: ra = 0xd4\n  6793: ecalli 4 // 'caller'\n  6795: a2 = u64 [s1 + 0x100]\n  6799: t0 = 0xd6\n  6803: jump @1311\n      : @244 [@dyn 106] (gas: 2)\n  6806: a2 = u64 [s1 + 0x100]\n  6810: t0 = 214, jump @1311\n      : @245 [@dyn 107] (gas: 25)\n  6816: t0 = a1 | a0\n  6819: a3 = a3 >> 0x20\n  6822: a2 = reverse a2\n  6824: a1 = a2 << 0x20\n  6827: a1 = a1 | a3\n  6830: a2 = a2 >> 0x20\n  6833: a3 = u64 [0x20020]\n  6838: a0 = s1 + 0x1898\n  6842: u64 [a0 + 0x3c0] = a3\n  6846: a3 = u64 [0x20028]\n  6851: a4 = u64 [0x20030]\n  6856: a5 = u64 [0x20038]\n  6861: u64 [a0 + 0x3b8] = a3\n  6865: a3 = a0 + 0x300\n  6869: u64 [a3 + 0xb0] = a4\n  6873: u64 [a0 + 928] = 0\n  6877: u64 [a3 + 0xa8] = a5\n  6881: u64 [a3 + 0x98] = a2\n  6885: u64 [a3 + 0x90] = a1\n  6889: a1 = 0x20\n  6892: a2 = s1 + 0x1c40\n  6896: a3 = s1 + 0x1c20\n  6900: u64 [a0 + 0x388] = t0\n  6904: a0 = u64 [s1 + 0x118]\n  6908: ra = 216, jump @13\n      : @246 [@dyn 108] (gas: 5)\n  6914: a0 = 0\n  6916: a1 = u64 [s1 + 0xe0]\n  6920: a2 = 0\n  6922: ecalli 13 // 'seal_return'\n  6924: jump @874\n      : @247 (gas: 10)\n  6927: u64 [a2 + 1504] = 0\n  6931: u64 [a2 + 1496] = 0\n  6935: u64 [a2 + 1488] = 0\n  6939: u64 [a2 + 1480] = 0\n  6943: a0 = s1 + 0x2000\n  6947: i32 a0 = a0 + 0x660\n  6951: ra = 0xda\n  6955: ecalli 16 // 'value_transferred'\n  6957: t0 = 0xdc\n  6961: jump @1352\n      : @248 [@dyn 109] (gas: 1)\n  6964: t0 = 220, jump @1352\n      : @249 [@dyn 110] (gas: 8)\n  6970: a0 = u64 [a4 + 0xd8]\n  6974: a1 = u64 [a4 + 0xe0]\n  6978: a2 = u64 [a4 + 0xd0]\n  6982: a3 = u64 [a4 + 0xc8]\n  6986: a1 = a1 | a2\n  6989: a0 = a0 | a3\n  6992: a0 = a0 | a1\n  6995: jump @251 if a0 == 0\n      : @250 (gas: 1)\n  6998: jump @666\n      : @251 (gas: 3)\n  7001: a0 = u64 [s1 + 0x118]\n  7005: a0 = i32 [a0]\n  7007: jump @253 if a0 >u 99\n      : @252 (gas: 1)\n  7011: jump @667\n      : @253 (gas: 4)\n  7014: a0 = s1 + 0x11c0\n  7018: ra = 0xde\n  7022: t0 = 0x50a\n  7026: jump @1364\n      : @254 [@dyn 111] (gas: 11)\n  7029: a1 = s1 + 0x1098\n  7033: a0 = u64 [a1 + 0x128]\n  7037: u64 [s1 + 0x118] = a0\n  7041: a0 = u64 [a1 + 0x130]\n  7045: u64 [s1 + 0x110] = a0\n  7049: a0 = u32 [a1 + 0x138]\n  7053: u64 [s1 + 0xf8] = a0\n  7057: a0 = s1 + 0x11a0\n  7061: ra = 0xe0\n  7065: t0 = 0x50e\n  7069: jump @1379\n      : @255 [@dyn 112] (gas: 7)\n  7072: a0 = s1 + 0x1098\n  7076: a0 = u64 [a0 + 0x108]\n  7080: u64 [s1 + 0x100] = a0\n  7084: a0 = s1 + 0x1180\n  7088: ra = 0xe2\n  7092: t0 = 0x514\n  7096: jump @1379\n      : @256 [@dyn 113] (gas: 3)\n  7099: t0 = 0xe4\n  7103: a2 = s1 + 0x1098\n  7107: fallthrough\n      : @257 [@dyn 114] (gas: 13)\n  7108: a0 = u64 [a2 + 0xe8]\n  7112: a3 = s1 + 0x100\n  7116: u64 [a3 + 0x8] = a0\n  7119: u64 [a2 + 224] = 0\n  7123: a0 = u64 [s1 + 0xf8]\n  7127: u64 [a2 + 0xd8] = a0\n  7131: a0 = u64 [a3 + 0x10]\n  7134: u64 [a2 + 0xd0] = a0\n  7138: a1 = s1 + 0x1160\n  7142: a0 = u64 [a3 + 0x18]\n  7145: u64 [a2 + 0xc8] = a0\n  7149: a0 = 0\n  7151: ra = 230, jump @9\n      : @258 [@dyn 115] (gas: 3)\n  7157: t0 = 0xe8\n  7161: a1 = s1 + 0x1098\n  7165: fallthrough\n      : @259 [@dyn 116] (gas: 8)\n  7166: u64 [a1 + 192] = 0\n  7170: u64 [a1 + 184] = 0\n  7174: u64 [a1 + 168] = 0x3\n  7179: a2 = a1\n  7181: a0 = 0x20\n  7184: a1 = s1 + 0x1140\n  7188: u64 [a2 + 176] = 0\n  7192: ra = 234, jump @9\n      : @260 [@dyn 117] (gas: 3)\n  7198: a1 = 0x20170\n  7203: a0 = i32 [0x20170]\n  7208: jump @262 if a0 >u 63\n      : @261 (gas: 2)\n  7212: u32 [0x20170] = 0x40\n  7218: fallthrough\n      : @262 (gas: 14)\n  7219: a0 = sp + 0xffffffffffffffe0\n  7222: a2 = a0 & 0xffffffffffffffe0\n  7225: u64 [s1 + 0xf8] = a2\n  7229: sp = a2\n  7231: a0 = 0x20180\n  7236: i32 a0 = a0 + 0\n  7238: i32 a2 = a2 + 0\n  7240: u64 [s1 + 0x118] = a1\n  7244: a1 = 0x40\n  7247: u64 [s1 + 0x110] = a0\n  7251: ra = 0xec\n  7255: ecalli 8 // 'hash_keccak_256'\n  7257: t0 = 0xee\n  7261: jump @1376\n      : @263 [@dyn 118] (gas: 1)\n  7264: t0 = 238, jump @1376\n      : @264 [@dyn 119] (gas: 8)\n  7270: u64 [s1 + 0xf0] = a0\n  7274: a0 = reverse a2\n  7276: u64 [s1 + 0xe8] = a0\n  7280: a0 = reverse a3\n  7282: u64 [s1 + 0xe0] = a0\n  7286: t0 = 0xf0\n  7290: a2 = s1 + 0x1098\n  7294: fallthrough\n      : @265 [@dyn 120] (gas: 8)\n  7295: u64 [a2 + 160] = 0\n  7299: u64 [a2 + 152] = 0\n  7303: u64 [a2 + 144] = 0\n  7307: a1 = s1 + 0x1120\n  7311: a0 = u64 [s1 + 0x100]\n  7315: u64 [a2 + 0x88] = a0\n  7319: a0 = 0\n  7321: ra = 242, jump @9\n      : @266 [@dyn 121] (gas: 13)\n  7327: a0 = u64 [s1 + 0xe0]\n  7331: a1 = s1 + 0x1098\n  7335: u64 [a1 + 0x80] = a0\n  7339: a0 = u64 [s1 + 0xe8]\n  7343: u64 [a1 + 0x78] = a0\n  7346: a0 = u64 [s1 + 0xf0]\n  7350: u64 [a1 + 0x70] = a0\n  7353: a3 = a1\n  7355: a0 = 0x20\n  7358: a1 = s1 + 0x1100\n  7362: a2 = u64 [s1 + 0xf8]\n  7366: u64 [a3 + 0x68] = a2\n  7369: ra = 244, jump @9\n      : @267 [@dyn 122] (gas: 3)\n  7375: a1 = u64 [s1 + 0x118]\n  7379: a0 = i32 [a1]\n  7381: jump @269 if a0 >u 63\n      : @268 (gas: 2)\n  7385: u32 [a1 + 0] = 0x40\n  7388: fallthrough\n      : @269 (gas: 4)\n  7389: a0 = sp + 0xffffffffffffffe0\n  7392: a0 = a0 & 0xffffffffffffffe0\n  7395: u64 [s1 + 0x100] = a0\n  7399: t0 = 246, jump @1310\n      : @270 [@dyn 123] (gas: 5)\n  7405: ra = 0xf8\n  7409: ecalli 8 // 'hash_keccak_256'\n  7411: a3 = u64 [s1 + 0x100]\n  7415: t0 = 0xfa\n  7419: jump @1333\n      : @271 [@dyn 124] (gas: 2)\n  7422: a3 = u64 [s1 + 0x100]\n  7426: t0 = 250, jump @1333\n      : @272 [@dyn 125] (gas: 13)\n  7432: u64 [s1 + 0x100] = a0\n  7436: sp = a0\n  7438: a0 = u64 [s1 + 0x108]\n  7442: a0 = a0 << 0x20\n  7445: a0 = a0 >> 0x20\n  7448: a2 = s1 + 0x1098\n  7452: u64 [a2 + 96] = 0\n  7455: u64 [a2 + 88] = 0\n  7458: u64 [a2 + 80] = 0\n  7461: a1 = s1 + 0x10e0\n  7465: u64 [a2 + 0x48] = a0\n  7468: a0 = 0\n  7470: ra = 252, jump @9\n      : @273 [@dyn 126] (gas: 13)\n  7476: a0 = u64 [s1 + 0xe0]\n  7480: a1 = s1 + 0x1098\n  7484: u64 [a1 + 0x40] = a0\n  7487: a0 = u64 [s1 + 0xe8]\n  7491: u64 [a1 + 0x38] = a0\n  7494: a0 = u64 [s1 + 0xf0]\n  7498: u64 [a1 + 0x30] = a0\n  7501: a3 = a1\n  7503: a0 = 0x20\n  7506: a1 = s1 + 0x10c0\n  7510: a2 = u64 [s1 + 0xf8]\n  7514: u64 [a3 + 0x28] = a2\n  7517: ra = 254, jump @9\n      : @274 [@dyn 127] (gas: 3)\n  7523: a1 = u64 [s1 + 0x118]\n  7527: a0 = i32 [a1]\n  7529: jump @276 if a0 >=u 64\n      : @275 (gas: 2)\n  7533: u32 [a1 + 0] = 0x40\n  7536: fallthrough\n      : @276 (gas: 4)\n  7537: a0 = sp + 0xffffffffffffffe0\n  7540: a0 = a0 & 0xffffffffffffffe0\n  7543: u64 [s1 + 0x118] = a0\n  7547: t0 = 256, jump @1310\n      : @277 [@dyn 128] (gas: 5)\n  7553: ra = 0x102\n  7557: ecalli 8 // 'hash_keccak_256'\n  7559: a3 = u64 [s1 + 0x118]\n  7563: t0 = 0x104\n  7567: jump @1334\n      : @278 [@dyn 129] (gas: 2)\n  7570: a3 = u64 [s1 + 0x118]\n  7574: t0 = 260, jump @1334\n      : @279 [@dyn 130] (gas: 2)\n  7580: a0 = s1 + 0x10a0\n  7584: ra = 262, jump @11\n      : @280 [@dyn 131] (gas: 6)\n  7590: a0 = s1 + 0x1098\n  7594: a0 = u64 [a0 + 0x8]\n  7597: u64 [s1 + 0x118] = a0\n  7601: a0 = s1 + 0x1080\n  7605: a1 = 0x40\n  7608: ra = 264, jump @7\n      : @281 [@dyn 132] (gas: 14)\n  7614: a0 = s1 + 0x1098\n  7618: a3 = u64 [a0]\n  7620: a4 = a0 + 0xffffffffffffff00\n  7624: a1 = u64 [a4 + 0xf8]\n  7628: a2 = u64 [a4 + 0xf0]\n  7632: a0 = u64 [a4 + 0xe8]\n  7636: a3 = a3 | a2\n  7639: a2 = a0 | a1\n  7642: a2 = a2 | a3\n  7645: a2 = a2 >> 0x20\n  7648: a1 = a1 | a3\n  7651: a1 = a1 << 0x20\n  7654: a1 = a1 | a2\n  7657: jump @283 if a1 == 0\n      : @282 (gas: 1)\n  7660: jump @619\n      : @283 (gas: 10)\n  7663: a3 = u8 [s1 + 0x118]\n  7667: a2 = s1 + 0x7ff\n  7671: a2 = a2 + 0x99\n  7675: u64 [a2 + 2016] = 0\n  7679: u64 [a2 + 2008] = 0\n  7683: u64 [a2 + 0x7c8] = a3\n  7687: a1 = s1 + 0x1060\n  7691: u64 [a2 + 2000] = 0\n  7695: u64 [s1 + 0x118] = a0\n  7699: ra = 266, jump @9\n      : @284 [@dyn 133] (gas: 4)\n  7705: a1 = 0x20\n  7708: a0 = u64 [s1 + 0x118]\n  7712: ra = 0x2dc\n  7716: jump @21\n      : @285 (gas: 10)\n  7719: u64 [a2 + 800] = 0\n  7723: u64 [a2 + 792] = 0\n  7727: u64 [a2 + 784] = 0\n  7731: u64 [a2 + 776] = 0\n  7735: a0 = s1 + 0x2000\n  7739: i32 a0 = a0 + 0x3a0\n  7743: ra = 0x10c\n  7747: ecalli 16 // 'value_transferred'\n  7749: t0 = 0x10e\n  7753: jump @1372\n      : @286 [@dyn 134] (gas: 1)\n  7756: t0 = 270, jump @1372\n      : @287 [@dyn 135] (gas: 8)\n  7762: a0 = u64 [a4 + 0x18]\n  7765: a1 = u64 [a4 + 0x20]\n  7768: a2 = u64 [a4 + 0x10]\n  7771: a3 = u64 [a4 + 0x8]\n  7774: a1 = a1 | a2\n  7777: a0 = a0 | a3\n  7780: a0 = a0 | a1\n  7783: jump @289 if a0 == 0\n      : @288 (gas: 1)\n  7786: jump @668\n      : @289 (gas: 1)\n  7789: t0 = 272, jump @1362\n      : @290 [@dyn 136] (gas: 1)\n  7795: jump @292 if a1 <u a0\n      : @291 (gas: 1)\n  7798: jump @669\n      : @292 (gas: 6)\n  7801: a0 = s1 + 0x2000\n  7805: i32 a0 = a0 + 0x3c0\n  7809: a1 = 0x4\n  7812: ra = 0x112\n  7816: ecalli 2 // 'call_data_load'\n  7818: fallthrough\n      : @293 [@dyn 137] (gas: 7)\n  7819: a0 = s1 + 0x2098\n  7823: a5 = a0 + 0x300\n  7827: a1 = u64 [a5 + 0x40]\n  7830: a2 = u64 [a5 + 0x38]\n  7833: a3 = u64 [a5 + 0x30]\n  7836: a4 = u64 [a5 + 0x28]\n  7839: t0 = 276, jump @1336\n      : @294 [@dyn 138] (gas: 1)\n  7845: jump @296 if a0 != 0\n      : @295 (gas: 1)\n  7848: jump @670\n      : @296 (gas: 8)\n  7851: a0 = 0x30180\n  7856: u64 [s1 + 0x100] = a0\n  7860: i32 a0 = a0 + 0\n  7862: u64 [s1 + 0xe8] = a0\n  7866: ra = 0x116\n  7870: ecalli 4 // 'caller'\n  7872: t0 = 0x118\n  7876: jump @1315\n      : @297 [@dyn 139] (gas: 1)\n  7879: t0 = 280, jump @1315\n      : @298 [@dyn 140] (gas: 8)\n  7885: u64 [s1 + 1592] = 0\n  7889: a2 = s1 + 0x600\n  7893: u64 [a2 + 0x30] = a1\n  7896: u64 [a2 + 0x28] = a0\n  7899: a1 = s1 + 0x620\n  7903: u64 [a2 + 0x20] = a3\n  7906: a0 = 0\n  7908: ra = 282, jump @9\n      : @299 [@dyn 141] (gas: 7)\n  7914: u64 [s1 + 1560] = 0\n  7918: u64 [s1 + 1552] = 0\n  7922: u64 [s1 + 1544] = 0\n  7926: a0 = 0x20\n  7929: a1 = s1 + 0x600\n  7933: u64 [s1 + 1536] = 0\n  7937: ra = 284, jump @9\n      : @300 [@dyn 142] (gas: 7)\n  7943: a0 = sp + 0xffffffffffffffe0\n  7946: a0 = a0 & 0xffffffffffffffe0\n  7949: u64 [s1 + 0xf0] = a0\n  7953: sp = a0\n  7955: a2 = 0x20170\n  7960: a0 = i32 [0x20170]\n  7965: jump @302 if a0 >u 63\n      : @301 (gas: 2)\n  7969: u32 [0x20170] = 0x40\n  7975: fallthrough\n      : @302 (gas: 13)\n  7976: u64 [s1 + 0xc0] = a2\n  7980: a0 = sp + 0xffffffffffffffe0\n  7983: a2 = a0 & 0xffffffffffffffe0\n  7986: u64 [s1 + 0xe0] = a2\n  7990: sp = a2\n  7992: a0 = 0x20180\n  7997: i32 a0 = a0 + 0\n  7999: i32 a2 = a2 + 0\n  8001: a1 = 0x40\n  8004: u64 [s1 + 0xc8] = a0\n  8008: ra = 0x11e\n  8012: ecalli 8 // 'hash_keccak_256'\n  8014: fallthrough\n      : @303 [@dyn 143] (gas: 11)\n  8015: a3 = u64 [s1 + 0xe0]\n  8019: a0 = u64 [a3]\n  8021: a1 = u64 [a3 + 0x8]\n  8024: a2 = u64 [a3 + 0x10]\n  8027: a3 = u64 [a3 + 0x18]\n  8030: a0 = reverse a0\n  8032: a1 = reverse a1\n  8034: a2 = reverse a2\n  8036: a3 = reverse a3\n  8038: a4 = a3 + 0x2\n  8041: t0 = 288, jump @1320\n      : @304 [@dyn 144] (gas: 7)\n  8047: a1 = u64 [s1 + 0xf0]\n  8051: u64 [a1] = a4\n  8053: u64 [a1 + 0x8] = a5\n  8056: u64 [a1 + 0x10] = a2\n  8059: u64 [a1 + 0x18] = a0\n  8062: a0 = s1 + 0x5e0\n  8066: ra = 290, jump @11\n      : @305 [@dyn 145] (gas: 24)\n  8072: t1 = u64 [s1 + 0x5f8]\n  8076: t2 = u64 [s1 + 0x5f0]\n  8080: t0 = u64 [s1 + 0x5e8]\n  8084: a3 = u64 [s1 + 0x5e0]\n  8088: a0 = u64 [s1 + 0x118]\n  8092: a4 = t1 ^ a0\n  8095: a5 = t1 <u a0\n  8098: a1 = u64 [s1 + 0xf8]\n  8102: a0 = t2 <u a1\n  8105: u64 [s1 + 0xd8] = a0\n  8109: a5 = a0 if a4 == 0\n  8112: a0 = u64 [s1 + 0x110]\n  8116: ra = t0 ^ a0\n  8119: a0 = t0 <u a0\n  8122: a2 = u64 [s1 + 0x108]\n  8126: u64 [s1 + 0xe0] = a3\n  8130: a2 = a3 <u a2\n  8133: u64 [s1 + 0xd0] = a2\n  8137: a0 = a2 if ra == 0\n  8140: ra = a1\n  8142: a1 = t2 ^ a1\n  8145: a1 = a1 | a4\n  8148: a5 = a0 if a1 == 0\n  8151: jump @307 if a5 == 0\n      : @306 (gas: 1)\n  8154: jump @674\n      : @307 (gas: 11)\n  8157: a1 = t2 - ra\n  8160: a2 = u64 [s1 + 0x118]\n  8164: a2 = t1 - a2\n  8167: a3 = u64 [s1 + 0xd8]\n  8171: a2 = a2 - a3\n  8174: a3 = a1 <u a0\n  8177: a2 = a2 - a3\n  8180: a1 = a1 - a0\n  8183: a0 = u64 [s1 + 0x110]\n  8187: a0 = t0 - a0\n  8190: t0 = 292, jump @1359\n      : @308 [@dyn 146] (gas: 8)\n  8196: a5 = a4 + 0x300\n  8200: u64 [a5 + 0x48] = a3\n  8203: u64 [a5 + 0x50] = a0\n  8206: u64 [a5 + 0x58] = a1\n  8209: u64 [a5 + 0x60] = a2\n  8212: a1 = s1 + 0x23e0\n  8216: a0 = u64 [s1 + 0xf0]\n  8220: ra = 294, jump @12\n      : @309 [@dyn 147] (gas: 5)\n  8226: a0 = u64 [s1 + 0xe8]\n  8230: ra = 0x128\n  8234: ecalli 4 // 'caller'\n  8236: t0 = 0x12a\n  8240: jump @1324\n      : @310 [@dyn 148] (gas: 1)\n  8243: t0 = 298, jump @1324\n      : @311 [@dyn 149] (gas: 14)\n  8249: u64 [s1 + 0x5b8] = a2\n  8253: a2 = u64 [s1 + 0xf8]\n  8257: u64 [s1 + 0x5b0] = a2\n  8261: a2 = u64 [a4 + 0x10]\n  8264: u64 [s1 + 0x5a8] = a2\n  8268: a2 = u64 [a4 + 0x8]\n  8271: u64 [s1 + 0x5a0] = a2\n  8275: u64 [s1 + 1496] = 0\n  8279: u64 [s1 + 0x5d0] = a1\n  8283: u64 [s1 + 0x5c8] = a0\n  8287: a0 = s1 + 0x5c0\n  8291: a1 = s1 + 0x5a0\n  8295: u64 [s1 + 0x5c0] = a3\n  8299: ra = 300, jump @1286\n      : @312 [@dyn 150] (gas: 3)\n  8305: a0 = s1 + 0x580\n  8309: a1 = 0x40\n  8312: ra = 302, jump @7\n      : @313 [@dyn 151] (gas: 6)\n  8318: a4 = s1 + 0x500\n  8322: a0 = u64 [a4 + 0x98]\n  8326: a1 = u64 [a4 + 0x90]\n  8330: a2 = u64 [a4 + 0x88]\n  8334: a3 = u64 [a4 + 0x80]\n  8338: t0 = 304, jump @1331\n      : @314 [@dyn 152] (gas: 1)\n  8344: jump @316 if a0 == 0\n      : @315 (gas: 1)\n  8347: jump @619\n      : @316 (gas: 12)\n  8350: a0 = u64 [s1 + 0x108]\n  8354: u64 [s1 + 0x560] = a0\n  8358: a0 = u64 [s1 + 0x110]\n  8362: u64 [s1 + 0x568] = a0\n  8366: a0 = u64 [s1 + 0xf8]\n  8370: u64 [s1 + 0x570] = a0\n  8374: a1 = s1 + 0x560\n  8378: a0 = u64 [s1 + 0x118]\n  8382: u64 [s1 + 0x578] = a0\n  8386: a0 = a3\n  8388: u64 [s1 + 0x118] = a3\n  8392: ra = 306, jump @9\n      : @317 [@dyn 153] (gas: 6)\n  8398: a0 = u64 [s1 + 0xe8]\n  8402: ra = 0x134\n  8406: ecalli 4 // 'caller'\n  8408: a2 = u64 [s1 + 0x100]\n  8412: t0 = 0x136\n  8416: jump @1311\n      : @318 [@dyn 154] (gas: 2)\n  8419: a2 = u64 [s1 + 0x100]\n  8423: t0 = 310, jump @1311\n      : @319 [@dyn 155] (gas: 24)\n  8429: t0 = a1 | a0\n  8432: a3 = a3 >> 0x20\n  8435: a2 = reverse a2\n  8437: a1 = a2 << 0x20\n  8440: a1 = a1 | a3\n  8443: a2 = a2 >> 0x20\n  8446: u64 [s1 + 1336] = 0\n  8450: a3 = u64 [0x200d8]\n  8455: a4 = u64 [0x200e0]\n  8460: a5 = u64 [0x200e8]\n  8465: a0 = u64 [0x200f0]\n  8470: u64 [s1 + 0x558] = a3\n  8474: a3 = s1 + 0x500\n  8478: u64 [a3 + 0x50] = a4\n  8481: u64 [a3 + 0x48] = a5\n  8484: u64 [a3 + 0x40] = a0\n  8487: u64 [a3 + 0x30] = a2\n  8490: u64 [a3 + 0x28] = a1\n  8493: a1 = 0x20\n  8496: a2 = s1 + 0x540\n  8500: a3 = s1 + 0x520\n  8504: u64 [s1 + 0x520] = t0\n  8508: a0 = u64 [s1 + 0x118]\n  8512: ra = 312, jump @13\n      : @320 [@dyn 156] (gas: 5)\n  8518: a0 = 0\n  8520: a1 = u64 [s1 + 0xc8]\n  8524: a2 = 0\n  8526: ecalli 13 // 'seal_return'\n  8528: jump @874\n      : @321 (gas: 10)\n  8531: u64 [a2 + 1024] = 0\n  8535: u64 [a2 + 1016] = 0\n  8539: u64 [a2 + 1008] = 0\n  8543: u64 [a2 + 1000] = 0\n  8547: a0 = s1 + 0x2000\n  8551: i32 a0 = a0 + 0x480\n  8555: ra = 0x13a\n  8559: ecalli 16 // 'value_transferred'\n  8561: t0 = 0x13c\n  8565: jump @1372\n      : @322 [@dyn 157] (gas: 1)\n  8568: t0 = 316, jump @1372\n      : @323 [@dyn 158] (gas: 8)\n  8574: a0 = u64 [a4 + 0xf8]\n  8578: a1 = u64 [a3 + 0x400]\n  8582: a2 = u64 [a4 + 0xf0]\n  8586: a3 = u64 [a4 + 0xe8]\n  8590: a1 = a1 | a2\n  8593: a0 = a0 | a3\n  8596: a0 = a0 | a1\n  8599: jump @325 if a0 == 0\n      : @324 (gas: 1)\n  8602: jump @678\n      : @325 (gas: 1)\n  8605: t0 = 318, jump @1362\n      : @326 [@dyn 159] (gas: 1)\n  8611: jump @328 if a1 <u a0\n      : @327 (gas: 1)\n  8614: jump @679\n      : @328 (gas: 5)\n  8617: a0 = s1 + 0x2000\n  8621: i32 a0 = a0 + 0x4a0\n  8625: a1 = 0x4\n  8628: ecalli 2 // 'call_data_load'\n  8630: fallthrough\n      : @329 (gas: 9)\n  8631: a3 = s1 + 0x2098\n  8635: a4 = a3 + 0x400\n  8639: a0 = u64 [a4 + 0x20]\n  8642: a1 = u64 [a4 + 0x18]\n  8645: a2 = u64 [a4 + 0x10]\n  8648: a0 = a0 | a1\n  8651: a1 = a2 <u 0x1\n  8654: a1 = 0 if a0 != 0\n  8656: jump @331 if a1 != 0\n      : @330 (gas: 1)\n  8659: jump @680\n      : @331 (gas: 6)\n  8662: a0 = u64 [a3 + 0x408]\n  8666: u64 [s1 + 0xa0] = a0\n  8670: a0 = s1 + 0x2000\n  8674: i32 a0 = a0 + 0x4c0\n  8678: ecalli 9 // 'now'\n  8680: fallthrough\n      : @332 (gas: 49)\n  8681: a0 = s1 + 0x2098\n  8685: t2 = u64 [a0 + 0x440]\n  8689: a3 = u64 [a0 + 0x438]\n  8693: u64 [s1 + 0xd0] = a3\n  8697: t0 = u64 [a0 + 0x430]\n  8701: ra = u64 [a0 + 0x428]\n  8705: a0 = clz t2\n  8707: a1 = clz a3\n  8709: a2 = a1 + 0x40\n  8712: a2 = a0 if t2 != 0\n  8715: a0 = clz t0\n  8717: a1 = clz ra\n  8719: a1 = a1 + 0x40\n  8722: a1 = a0 if t0 != 0\n  8725: a0 = a1 + 0x80\n  8729: a3 = a3 | t2\n  8732: a2 = a0 if a3 == 0\n  8735: a5 = a0 <u a1\n  8738: a5 = 0 if a3 != 0\n  8740: a4 = a5 >u 0\n  8742: a0 = a2 <u 0xf0\n  8746: a3 = a0 ^ 0x1\n  8749: a4 = a3 if a5 == 0\n  8752: a0 = a4 <u 0x1\n  8755: a0 = a0 + 0xffffffffffffffff\n  8758: a1 = -a4\n  8760: a5 = -a5\n  8762: a3 = a5 - a3\n  8765: t1 = 0xef - a2\n  8769: u64 [s1 + 0x118] = a1\n  8773: a5 = a1 >u 0\n  8775: a1 = a0 >u 0\n  8777: a1 = a5 if a0 == 0\n  8780: a5 = t1 <u 0x100\n  8784: a5 = a5 ^ 0x1\n  8787: a2 = a3 >u 0\n  8789: a5 = a2 if a3 != 0\n  8792: a5 = a1 if a4 != 0\n  8795: u64 [s1 + 0xc0] = t2\n  8799: u64 [s1 + 0xd8] = t0\n  8803: a1 = t0 | t2\n  8806: t2 = u64 [s1 + 0xd0]\n  8810: a2 = ra | t2\n  8813: a1 = a1 | a2\n  8816: a1 = a1 <u 0x1\n  8819: a1 = a1 | a5\n  8822: a4 = ra\n  8824: a4 = 0 if a1 != 0\n  8826: jump @334 if a1 == 0\n      : @333 (gas: 1)\n  8829: jump @536\n      : @334 (gas: 6)\n  8832: a1 = t1 ^ 0xff\n  8836: a5 = u64 [s1 + 0x118]\n  8840: a1 = a1 | a5\n  8843: a2 = a3 | a0\n  8846: a1 = a1 | a2\n  8849: jump @336 if a1 != 0\n      : @335 (gas: 1)\n  8852: jump @536\n      : @336 (gas: 20)\n  8855: t0 = ra\n  8857: a2 = t1 + 0x1\n  8860: u64 [s1 + 0x110] = a2\n  8864: a1 = a2 <u 0x1\n  8867: a1 = a1 + a3\n  8870: u64 [s1 + 0x100] = a1\n  8874: a1 = a1 | a2\n  8877: a1 = a1 <u 0x1\n  8880: a1 = a1 + a5\n  8883: u64 [s1 + 0xf0] = a1\n  8887: a1 = a1 <u a5\n  8890: a0 = a0 + a1\n  8893: u64 [s1 + 0xf8] = a0\n  8897: a1 = 0xff - t1\n  8901: u64 [s1 + 0xe8] = a1\n  8905: a2 = 0x80 - a1\n  8909: a0 = ra\n  8911: u64 [s1 + 0xc8] = t0\n  8915: a1 = u64 [s1 + 0xd8]\n  8919: ra = 320, jump @1380\n      : @337 [@dyn 160] (gas: 6)\n  8925: u64 [s1 + 0xe0] = a0\n  8929: u64 [s1 + 0x118] = a1\n  8933: a0 = u64 [s1 + 0xd0]\n  8937: a1 = u64 [s1 + 0xc0]\n  8941: a2 = u64 [s1 + 0xe8]\n  8945: ra = 322, jump @1385\n      : @338 [@dyn 161] (gas: 7)\n  8951: u64 [s1 + 0xb0] = a0\n  8955: u64 [s1 + 0xa8] = a1\n  8959: a0 = u64 [s1 + 0xe8]\n  8963: a2 = a0 + 0xffffffffffffff80\n  8966: a0 = u64 [s1 + 0xc8]\n  8970: a1 = u64 [s1 + 0xd8]\n  8974: ra = 324, jump @1385\n      : @339 [@dyn 162] (gas: 8)\n  8980: u64 [s1 + 0x98] = a0\n  8984: u64 [s1 + 0x90] = a1\n  8988: a2 = u64 [s1 + 0xe8]\n  8992: a0 = a2 <u 0x80\n  8996: u64 [s1 + 0xb8] = a0\n  9000: a0 = u64 [s1 + 0xc8]\n  9004: a1 = u64 [s1 + 0xd8]\n  9008: ra = 326, jump @1385\n      : @340 [@dyn 163] (gas: 11)\n  9014: a4 = u64 [s1 + 0xb8]\n  9018: t0 = u64 [s1 + 0xf0]\n  9022: a5 = u64 [s1 + 0xf8]\n  9026: a2 = u64 [s1 + 0x100]\n  9030: a5 = a5 | a2\n  9033: a3 = u64 [s1 + 0x110]\n  9037: a3 = a3 | t0\n  9040: a3 = a3 | a5\n  9043: a0 = 0 if a4 == 0\n  9045: u64 [s1 + 0x108] = a0\n  9049: jump @342 if a3 == 0\n      : @341 (gas: 1)\n  9052: jump @527\n      : @342 (gas: 2)\n  9055: a4 = 0\n  9057: jump @535\n      : @343 (gas: 9)\n  9060: u64 [a2 + 512] = 0\n  9064: u64 [a2 + 504] = 0\n  9068: u64 [a2 + 496] = 0\n  9072: u64 [a2 + 488] = 0\n  9076: a0 = s1 + 0x2000\n  9080: i32 a0 = a0 + 0x280\n  9084: ra = 0x148\n  9088: ecalli 16 // 'value_transferred'\n  9090: fallthrough\n      : @344 [@dyn 164] (gas: 10)\n  9091: a3 = s1 + 0x2098\n  9095: a4 = a3 + 0x100\n  9099: a0 = u64 [a4 + 0xf8]\n  9103: a1 = u64 [a3 + 0x200]\n  9107: a2 = u64 [a4 + 0xf0]\n  9111: a3 = u64 [a4 + 0xe8]\n  9115: a1 = a1 | a2\n  9118: a0 = a0 | a3\n  9121: a0 = a0 | a1\n  9124: jump @346 if a0 == 0\n      : @345 (gas: 1)\n  9127: jump @681\n      : @346 (gas: 1)\n  9130: t0 = 330, jump @1362\n      : @347 [@dyn 165] (gas: 1)\n  9136: jump @349 if a1 <u a0\n      : @348 (gas: 1)\n  9139: jump @682\n      : @349 (gas: 4)\n  9142: a0 = s1 + 0x320\n  9146: ra = 0x14c\n  9150: t0 = 0x50a\n  9154: jump @1364\n      : @350 [@dyn 166] (gas: 11)\n  9157: a3 = s1 + 0x300\n  9161: a0 = u64 [a3 + 0x20]\n  9164: a1 = u64 [a3 + 0x28]\n  9167: a2 = u32 [s1 + 0x330]\n  9171: u64 [s1 + 792] = 0\n  9175: u64 [a3 + 0x10] = a2\n  9178: u64 [a3 + 0x8] = a1\n  9181: a1 = s1 + 0x300\n  9185: u64 [a3] = a0\n  9187: a0 = 0\n  9189: ra = 334, jump @9\n      : @351 [@dyn 167] (gas: 7)\n  9195: u64 [s1 + 760] = 0\n  9199: u64 [s1 + 752] = 0\n  9203: u64 [s1 + 744] = 0\n  9207: a0 = 0x20\n  9210: a1 = s1 + 0x2e0\n  9214: u64 [s1 + 736] = 0\n  9218: ra = 336, jump @9\n      : @352 [@dyn 168] (gas: 6)\n  9224: a0 = sp + 0xffffffffffffffe0\n  9227: a0 = a0 & 0xffffffffffffffe0\n  9230: u64 [s1 + 0xf8] = a0\n  9234: sp = a0\n  9236: a1 = i32 [0x20170]\n  9241: jump @354 if a1 >u 63\n      : @353 (gas: 4)\n  9245: a1 = 0x40\n  9248: u32 [0x20170] = a1\n  9253: t0 = 0x152\n  9257: jump @1368\n      : @354 (gas: 1)\n  9260: t0 = 338, jump @1368\n      : @355 [@dyn 169] (gas: 8)\n  9266: a0 = 0x20180\n  9271: i32 a0 = a0 + 0\n  9273: i32 a2 = a2 + 0\n  9275: a1 = 0x40\n  9278: ra = 0x154\n  9282: ecalli 8 // 'hash_keccak_256'\n  9284: t0 = 0x156\n  9288: jump @1326\n      : @356 [@dyn 170] (gas: 1)\n  9291: t0 = 342, jump @1326\n      : @357 [@dyn 171] (gas: 7)\n  9297: a1 = u64 [s1 + 0xf8]\n  9301: u64 [a1 + 0x18] = a0\n  9304: u64 [a1 + 0x10] = a2\n  9307: u64 [a1 + 0x8] = a4\n  9310: u64 [a1] = a5\n  9312: a0 = s1 + 0x2c0\n  9316: ra = 344, jump @11\n      : @358 [@dyn 172] (gas: 9)\n  9322: a0 = u64 [s1 + 0x2d8]\n  9326: u64 [s1 + 0xf8] = a0\n  9330: a0 = u64 [s1 + 0x2d0]\n  9334: u64 [s1 + 0xf0] = a0\n  9338: a0 = u64 [s1 + 0x2c8]\n  9342: u64 [s1 + 0xe8] = a0\n  9346: a0 = u64 [s1 + 0x2c0]\n  9350: u64 [s1 + 0xe0] = a0\n  9354: t0 = 346, jump @1358\n      : @359 [@dyn 173] (gas: 15)\n  9360: a3 = a2 + 0x200\n  9364: u64 [a3 + 0x10] = a1\n  9367: a1 = a1 | a0\n  9370: u64 [a3 + 0x8] = a0\n  9373: a0 = a1 <u 0x1\n  9376: a1 = u64 [s1 + 0x100]\n  9380: a0 = a0 + a1\n  9383: u64 [a3 + 0x18] = a0\n  9386: a0 = a0 <u a1\n  9389: a1 = u64 [s1 + 0x118]\n  9393: a0 = a0 + a1\n  9396: u64 [a3 + 0x20] = a0\n  9399: a0 = s1 + 0x2a0\n  9403: a1 = s1 + 0x22a0\n  9407: ra = 348, jump @11\n      : @360 [@dyn 174] (gas: 13)\n  9413: a0 = u64 [s1 + 0x2b8]\n  9417: u64 [s1 + 0xd8] = a0\n  9421: a0 = u64 [s1 + 0x2b0]\n  9425: u64 [s1 + 0xd0] = a0\n  9429: a0 = u64 [s1 + 0x2a8]\n  9433: u64 [s1 + 0xc8] = a0\n  9437: a0 = u64 [s1 + 0x2a0]\n  9441: u64 [s1 + 0xc0] = a0\n  9445: a1 = u64 [s1 + 0x108]\n  9449: a0 = a1 + 0x2\n  9452: a1 = a0 <u a1\n  9455: a3 = u64 [s1 + 0x110]\n  9459: t0 = 350, jump @1349\n      : @361 [@dyn 175] (gas: 14)\n  9465: a1 = u64 [s1 + 0x100]\n  9469: a3 = a3 + a1\n  9472: a1 = a3 <u a1\n  9475: a4 = u64 [s1 + 0x118]\n  9479: a1 = a1 + a4\n  9482: a4 = s1 + 0x2098\n  9486: a5 = a4 + 0x200\n  9490: u64 [a5 + 0x40] = a1\n  9493: u64 [a5 + 0x38] = a3\n  9496: u64 [a5 + 0x30] = a2\n  9499: u64 [a5 + 0x28] = a0\n  9502: a0 = s1 + 0x280\n  9506: a1 = s1 + 0x22c0\n  9510: ra = 352, jump @11\n      : @362 [@dyn 176] (gas: 10)\n  9516: a0 = u64 [s1 + 0x298]\n  9520: u64 [s1 + 0xb8] = a0\n  9524: a0 = u64 [s1 + 0x290]\n  9528: u64 [s1 + 0xb0] = a0\n  9532: a5 = s1 + 0x100\n  9536: a1 = u64 [a5 + 0x8]\n  9539: a0 = a1 + 0x3\n  9542: a1 = a0 <u a1\n  9545: a3 = u64 [a5 + 0x10]\n  9548: t0 = 354, jump @1349\n      : @363 [@dyn 177] (gas: 18)\n  9554: a1 = u64 [s1 + 0x288]\n  9558: u64 [a5 + 0x8] = a1\n  9561: a1 = u64 [a5]\n  9563: a3 = a3 + a1\n  9566: a1 = a3 <u a1\n  9569: a4 = u64 [a5 + 0x18]\n  9572: a1 = a1 + a4\n  9575: a4 = u64 [s1 + 0x280]\n  9579: u64 [a5] = a4\n  9581: a4 = s1 + 0x2098\n  9585: a5 = a4 + 0x200\n  9589: u64 [a5 + 0x60] = a1\n  9592: u64 [a5 + 0x58] = a3\n  9595: u64 [a5 + 0x50] = a2\n  9598: u64 [a5 + 0x48] = a0\n  9601: a0 = s1 + 0x260\n  9605: a1 = s1 + 0x22e0\n  9609: ra = 356, jump @11\n      : @364 [@dyn 178] (gas: 5)\n  9615: a0 = u64 [s1 + 0x260]\n  9619: u64 [s1 + 0xa8] = a0\n  9623: a0 = s1 + 0x240\n  9627: a1 = 0x40\n  9630: ra = 358, jump @7\n      : @365 [@dyn 179] (gas: 13)\n  9636: a0 = s1 + 0x200\n  9640: a4 = u64 [a0 + 0x58]\n  9643: a5 = u64 [a0 + 0x50]\n  9646: a3 = u64 [a0 + 0x48]\n  9649: a2 = u64 [a0 + 0x40]\n  9652: a0 = a3 | a4\n  9655: a1 = a2 | a5\n  9658: a1 = a1 | a0\n  9661: a1 = a1 >> 0x20\n  9664: a0 = a0 | a5\n  9667: a0 = a0 << 0x20\n  9670: a0 = a0 | a1\n  9673: jump @367 if a0 == 0\n      : @366 (gas: 1)\n  9676: jump @619\n      : @367 (gas: 15)\n  9679: a0 = u64 [s1 + 0xe0]\n  9683: u64 [s1 + 0x220] = a0\n  9687: a0 = u64 [s1 + 0xe8]\n  9691: u64 [s1 + 0x228] = a0\n  9695: a0 = u64 [s1 + 0xf0]\n  9699: u64 [s1 + 0x230] = a0\n  9703: a1 = s1 + 0x220\n  9707: a0 = u64 [s1 + 0xf8]\n  9711: u64 [s1 + 0x238] = a0\n  9715: a0 = a2\n  9717: u64 [s1 + 0x118] = a2\n  9721: u64 [s1 + 0x110] = a3\n  9725: u64 [s1 + 0xf8] = a4\n  9729: u64 [s1 + 0xf0] = a5\n  9733: ra = 360, jump @9\n      : @368 [@dyn 180] (gas: 11)\n  9739: a1 = u64 [s1 + 0x118]\n  9743: a0 = u64 [s1 + 0xf8]\n  9747: a3 = u64 [s1 + 0xf0]\n  9751: a3 = a3 | a0\n  9754: a4 = 0x100000000\n  9764: a0 = 0xffffffe0\n  9774: a0 = a1 <u a0\n  9777: a2 = u64 [s1 + 0x110]\n  9781: a0 = 0 if a2 != 0\n  9783: a0 = 0 if a3 != 0\n  9785: jump @370 if a0 != 0\n      : @369 (gas: 1)\n  9788: jump @619\n      : @370 (gas: 14)\n  9791: i32 a0 = a1 + 0x20\n  9794: a1 = u64 [s1 + 0xc0]\n  9798: a5 = s1 + 0x200\n  9802: u64 [a5] = a1\n  9804: a1 = u64 [s1 + 0xc8]\n  9808: u64 [a5 + 0x8] = a1\n  9811: a1 = u64 [s1 + 0xd0]\n  9815: u64 [a5 + 0x10] = a1\n  9818: a1 = s1 + 0x200\n  9822: a2 = u64 [s1 + 0xd8]\n  9826: u64 [a5 + 0x18] = a2\n  9829: u64 [s1 + 0xf8] = a3\n  9833: u64 [s1 + 0xf0] = a4\n  9837: ra = 362, jump @9\n      : @371 [@dyn 181] (gas: 9)\n  9843: a4 = u64 [s1 + 0xf8]\n  9847: a3 = u64 [s1 + 0x110]\n  9851: a1 = u64 [s1 + 0x118]\n  9855: a0 = u64 [s1 + 0xf0]\n  9859: a0 = a0 + 0xffffffffffffffc0\n  9862: a0 = a1 <u a0\n  9865: a0 = 0 if a3 != 0\n  9867: a0 = 0 if a4 != 0\n  9869: jump @373 if a0 != 0\n      : @372 (gas: 1)\n  9872: jump @619\n      : @373 (gas: 11)\n  9875: i32 a0 = a1 + 0x40\n  9878: a1 = u64 [s1 + 0x100]\n  9882: u64 [s1 + 0x1e0] = a1\n  9886: a1 = u64 [s1 + 0x108]\n  9890: u64 [s1 + 0x1e8] = a1\n  9894: a1 = u64 [s1 + 0xb0]\n  9898: u64 [s1 + 0x1f0] = a1\n  9902: a1 = s1 + 0x1e0\n  9906: a2 = u64 [s1 + 0xb8]\n  9910: u64 [s1 + 0x1f8] = a2\n  9914: ra = 364, jump @9\n      : @374 [@dyn 182] (gas: 8)\n  9920: a2 = u64 [s1 + 0x118]\n  9924: a0 = 0xffffffa0\n  9934: a0 = a2 <u a0\n  9937: a1 = u64 [s1 + 0x110]\n  9941: a0 = 0 if a1 != 0\n  9943: a1 = u64 [s1 + 0xf8]\n  9947: a0 = 0 if a1 != 0\n  9949: jump @376 if a0 != 0\n      : @375 (gas: 1)\n  9952: jump @619\n      : @376 (gas: 10)\n  9955: a0 = u64 [s1 + 0xa8]\n  9959: a0 = a0 << 0x20\n  9962: a1 = a0 >> 0x20\n  9965: i32 a0 = a2 + 0x60\n  9968: u64 [s1 + 472] = 0\n  9972: u64 [s1 + 464] = 0\n  9976: u64 [s1 + 0x1c0] = a1\n  9980: a1 = s1 + 0x1c0\n  9984: u64 [s1 + 456] = 0\n  9988: ra = 366, jump @9\n      : @377 [@dyn 183] (gas: 3)\n  9994: a1 = 0x80\n  9998: a0 = u64 [s1 + 0x118]\n 10002: ra = 368, jump @21\n      : @378 [@dyn 184] (gas: 5)\n 10008: i32 a1 = a0 + 0\n 10010: a2 = 0x80\n 10014: a0 = 0\n 10016: ecalli 13 // 'seal_return'\n 10018: jump @718\n      : @379 (gas: 9)\n 10021: u64 [a2 + 1664] = 0\n 10025: u64 [a2 + 1656] = 0\n 10029: u64 [a2 + 1648] = 0\n 10033: u64 [a2 + 1640] = 0\n 10037: a0 = s1 + 0x2000\n 10041: i32 a0 = a0 + 0x700\n 10045: ra = 0x172\n 10049: ecalli 16 // 'value_transferred'\n 10051: fallthrough\n      : @380 [@dyn 185] (gas: 3)\n 10052: a3 = s1 + 0x2098\n 10056: a4 = a3 + 0x600\n 10060: t0 = 372, jump @1378\n      : @381 [@dyn 186] (gas: 1)\n 10066: jump @383 if a0 == 0\n      : @382 (gas: 1)\n 10069: jump @683\n      : @383 (gas: 3)\n 10072: a0 = u64 [s1 + 0x118]\n 10076: a0 = i32 [a0]\n 10078: jump @385 if a0 >u 67\n      : @384 (gas: 1)\n 10082: jump @684\n      : @385 (gas: 4)\n 10085: a0 = s1 + 0x14c0\n 10089: ra = 0x176\n 10093: t0 = 0x50a\n 10097: jump @1364\n      : @386 [@dyn 187] (gas: 13)\n 10100: a0 = s1 + 0x1098\n 10104: a2 = a0 + 0x400\n 10108: a1 = u64 [a2 + 0x38]\n 10111: u64 [s1 + 0xe8] = a1\n 10115: a1 = u64 [a2 + 0x30]\n 10118: u64 [s1 + 0xf8] = a1\n 10122: a0 = u64 [a2 + 0x28]\n 10125: u64 [s1 + 0xf0] = a0\n 10129: a0 = s1 + 0x2000\n 10133: i32 a0 = a0 + 0x720\n 10137: a1 = 0x24\n 10140: ecalli 2 // 'call_data_load'\n 10142: fallthrough\n      : @387 (gas: 19)\n 10143: a0 = s1 + 0x2098\n 10147: a5 = a0 + 0x600\n 10151: a4 = u64 [a5 + 0xa0]\n 10155: a3 = u64 [a5 + 0x98]\n 10159: a2 = u64 [a5 + 0x90]\n 10163: a1 = u64 [a5 + 0x88]\n 10167: a5 = s1 + 0x100\n 10171: u64 [a5 + 0x10] = a2\n 10174: u64 [a5] = a4\n 10176: a0 = a2 | a4\n 10179: u64 [a5 + 0x18] = a1\n 10182: a1 = a1 | a3\n 10185: a1 = a1 | a0\n 10188: a1 = a1 >> 0x20\n 10191: u64 [a5 + 0x8] = a3\n 10194: a0 = a0 | a3\n 10197: a0 = a0 << 0x20\n 10200: a0 = a0 | a1\n 10203: jump @389 if a0 == 0\n      : @388 (gas: 1)\n 10206: jump @685\n      : @389 (gas: 14)\n 10209: a0 = u64 [s1 + 0xe8]\n 10213: a0 = a0 << 0x20\n 10216: a0 = a0 >> 0x20\n 10219: a2 = s1 + 0x1098\n 10223: u64 [a2 + 1056] = 0\n 10227: a1 = u64 [s1 + 0xf0]\n 10231: a3 = a2 + 0x400\n 10235: u64 [a3 + 0x8] = a1\n 10238: a1 = u64 [s1 + 0xf8]\n 10242: u64 [a3 + 0x10] = a1\n 10245: a1 = s1 + 0x14a0\n 10249: u64 [a3 + 0x18] = a0\n 10252: a0 = 0\n 10254: ra = 376, jump @9\n      : @390 [@dyn 188] (gas: 3)\n 10260: t0 = 0x17a\n 10264: a1 = s1 + 0x1098\n 10268: fallthrough\n      : @391 [@dyn 189] (gas: 8)\n 10269: u64 [a1 + 1024] = 0\n 10273: u64 [a1 + 1016] = 0\n 10277: u64 [a1 + 1000] = 0x1\n 10282: a2 = a1\n 10284: a0 = 0x20\n 10287: a1 = s1 + 0x1480\n 10291: u64 [a2 + 1008] = 0\n 10295: ra = 380, jump @9\n      : @392 [@dyn 190] (gas: 3)\n 10301: a1 = 0x20170\n 10306: a0 = i32 [0x20170]\n 10311: jump @394 if a0 >u 63\n      : @393 (gas: 2)\n 10315: u32 [0x20170] = 0x40\n 10321: fallthrough\n      : @394 (gas: 15)\n 10322: a0 = sp + 0xffffffffffffffe0\n 10325: a2 = a0 & 0xffffffffffffffe0\n 10328: u64 [s1 + 0xe8] = a2\n 10332: sp = a2\n 10334: a0 = 0x20180\n 10339: i32 a0 = a0 + 0\n 10341: i32 a2 = a2 + 0\n 10343: u64 [s1 + 0xf8] = a1\n 10347: a1 = 0x40\n 10350: u64 [s1 + 0xf0] = a0\n 10354: ra = 0x17e\n 10358: ecalli 8 // 'hash_keccak_256'\n 10360: a3 = u64 [s1 + 0xe8]\n 10364: t0 = 0x180\n 10368: jump @1365\n      : @395 [@dyn 191] (gas: 2)\n 10371: a3 = u64 [s1 + 0xe8]\n 10375: t0 = 384, jump @1365\n      : @396 [@dyn 192] (gas: 14)\n 10381: u64 [s1 + 0xe0] = a0\n 10385: a0 = reverse a1\n 10387: u64 [s1 + 0xd8] = a0\n 10391: a0 = reverse a2\n 10393: u64 [s1 + 0xd0] = a0\n 10397: a0 = reverse a3\n 10399: u64 [s1 + 0xc8] = a0\n 10403: a0 = sp + 0xffffffffffffffe0\n 10406: a0 = a0 & 0xffffffffffffffe0\n 10409: u64 [s1 + 0xe8] = a0\n 10413: sp = a0\n 10415: t0 = 0x182\n 10419: a2 = s1 + 0x1098\n 10423: fallthrough\n      : @397 [@dyn 193] (gas: 13)\n 10424: a3 = s1 + 0x100\n 10428: a0 = u64 [a3]\n 10430: a4 = a2 + 0x300\n 10434: u64 [a4 + 0xe0] = a0\n 10438: a0 = u64 [a3 + 0x8]\n 10441: u64 [a4 + 0xd8] = a0\n 10445: a0 = u64 [a3 + 0x10]\n 10448: u64 [a4 + 0xd0] = a0\n 10452: a1 = s1 + 0x1460\n 10456: a0 = u64 [a3 + 0x18]\n 10459: u64 [a4 + 0xc8] = a0\n 10463: a0 = 0\n 10465: ra = 388, jump @9\n      : @398 [@dyn 194] (gas: 3)\n 10471: t0 = 0x186\n 10475: a1 = s1 + 0x1098\n 10479: fallthrough\n      : @399 [@dyn 195] (gas: 13)\n 10480: a0 = u64 [s1 + 0xc8]\n 10484: a2 = a1 + 0x300\n 10488: u64 [a2 + 0xc0] = a0\n 10492: a0 = u64 [s1 + 0xd0]\n 10496: u64 [a2 + 0xb8] = a0\n 10500: a0 = u64 [s1 + 0xd8]\n 10504: u64 [a2 + 0xb0] = a0\n 10508: a3 = a1\n 10510: a0 = 0x20\n 10513: a1 = s1 + 0x1440\n 10517: a2 = u64 [s1 + 0xe0]\n 10521: u64 [a3 + 0x3a8] = a2\n 10525: ra = 392, jump @9\n      : @400 [@dyn 196] (gas: 3)\n 10531: a1 = u64 [s1 + 0xf8]\n 10535: a0 = i32 [a1]\n 10537: jump @402 if a0 >u 63\n      : @401 (gas: 3)\n 10541: u32 [a1 + 0] = 0x40\n 10544: t0 = 0x18a\n 10548: jump @1366\n      : @402 (gas: 1)\n 10551: t0 = 394, jump @1366\n      : @403 [@dyn 197] (gas: 5)\n 10557: a0 = u64 [s1 + 0xf0]\n 10561: ra = 0x18c\n 10565: ecalli 8 // 'hash_keccak_256'\n 10567: t0 = 0x18e\n 10571: jump @1326\n      : @404 [@dyn 198] (gas: 1)\n 10574: t0 = 398, jump @1326\n      : @405 [@dyn 199] (gas: 7)\n 10580: a1 = u64 [s1 + 0xe8]\n 10584: u64 [a1 + 0x18] = a0\n 10587: u64 [a1 + 0x10] = a2\n 10590: u64 [a1 + 0x8] = a4\n 10593: u64 [a1] = a5\n 10595: a0 = s1 + 0x1420\n 10599: ra = 400, jump @11\n      : @406 [@dyn 200] (gas: 9)\n 10605: a1 = s1 + 0x1098\n 10609: a2 = a1 + 0x300\n 10613: a0 = u64 [a2 + 0x98]\n 10617: u64 [s1 + 0xf0] = a0\n 10621: a0 = u64 [a2 + 0x90]\n 10625: u64 [s1 + 0xe8] = a0\n 10629: a0 = u64 [a2 + 0x88]\n 10633: u64 [s1 + 0xf8] = a0\n 10637: t0 = 402, jump @1358\n      : @407 [@dyn 201] (gas: 15)\n 10643: a3 = a2 + 0x600\n 10647: u64 [a3 + 0xb0] = a1\n 10651: a1 = a1 | a0\n 10654: u64 [a3 + 0xa8] = a0\n 10658: a0 = a1 <u 0x1\n 10661: a1 = u64 [s1 + 0x100]\n 10665: a0 = a0 + a1\n 10668: u64 [a3 + 0xb8] = a0\n 10672: a0 = a0 <u a1\n 10675: a1 = u64 [s1 + 0x118]\n 10679: a0 = a0 + a1\n 10682: u64 [a3 + 0xc0] = a0\n 10686: a0 = s1 + 0x1400\n 10690: a1 = s1 + 0x2740\n 10694: ra = 404, jump @11\n      : @408 [@dyn 202] (gas: 10)\n 10700: a5 = s1 + 0x1098\n 10704: a0 = u64 [a5 + 0x380]\n 10708: u64 [s1 + 0xe0] = a0\n 10712: a0 = u64 [a5 + 0x378]\n 10716: u64 [s1 + 0xd8] = a0\n 10720: a1 = u64 [s1 + 0x108]\n 10724: a0 = a1 + 0x2\n 10727: a1 = a0 <u a1\n 10730: a3 = u64 [s1 + 0x110]\n 10734: t0 = 406, jump @1349\n      : @409 [@dyn 203] (gas: 18)\n 10740: a1 = u64 [a5 + 0x370]\n 10744: u64 [s1 + 0x108] = a1\n 10748: a1 = u64 [s1 + 0x100]\n 10752: a3 = a3 + a1\n 10755: a1 = a3 <u a1\n 10758: a4 = u64 [s1 + 0x118]\n 10762: a1 = a1 + a4\n 10765: a4 = u64 [a5 + 0x368]\n 10769: u64 [s1 + 0x100] = a4\n 10773: a4 = s1 + 0x2098\n 10777: a5 = a4 + 0x600\n 10781: u64 [a5 + 0xe0] = a1\n 10785: u64 [a5 + 0xd8] = a3\n 10789: u64 [a5 + 0xd0] = a2\n 10793: u64 [a5 + 0xc8] = a0\n 10797: a0 = s1 + 0x13e0\n 10801: a1 = s1 + 0x2760\n 10805: ra = 408, jump @11\n      : @410 [@dyn 204] (gas: 3)\n 10811: t0 = 0x19a\n 10815: a1 = s1 + 0x1098\n 10819: fallthrough\n      : @411 [@dyn 205] (gas: 7)\n 10820: a0 = u64 [a1 + 0x350]\n 10824: u64 [s1 + 0xc8] = a0\n 10828: a0 = u64 [a1 + 0x348]\n 10832: u64 [s1 + 0xd0] = a0\n 10836: a0 = s1 + 0x13c0\n 10840: a1 = 0x40\n 10843: ra = 412, jump @7\n      : @412 [@dyn 206] (gas: 2)\n 10849: a2 = s1 + 0x1098\n 10853: fallthrough\n      : @413 (gas: 13)\n 10854: t0 = u64 [a2 + 0x340]\n 10858: a1 = a2 + 0x300\n 10862: a5 = u64 [a1 + 0x38]\n 10865: a4 = u64 [a1 + 0x30]\n 10868: a0 = u64 [a1 + 0x28]\n 10871: a3 = a4 | t0\n 10874: a1 = a0 | a5\n 10877: a1 = a1 | a3\n 10880: a1 = a1 >> 0x20\n 10883: a3 = a3 | a5\n 10886: a3 = a3 << 0x20\n 10889: a1 = a1 | a3\n 10892: jump @415 if a1 == 0\n      : @414 (gas: 1)\n 10895: jump @619\n      : @415 (gas: 13)\n 10898: a1 = u64 [s1 + 0xf8]\n 10902: a1 = a1 << 0x20\n 10905: a3 = a1 >> 0x20\n 10908: u64 [a2 + 800] = 0\n 10912: u64 [a2 + 792] = 0\n 10916: u64 [a2 + 784] = 0\n 10920: a1 = s1 + 0x13a0\n 10924: u64 [a2 + 0x308] = a3\n 10928: u64 [s1 + 0x118] = a0\n 10932: u64 [s1 + 0x110] = a4\n 10936: u64 [s1 + 0xb8] = t0\n 10940: u64 [s1 + 0xc0] = a5\n 10944: ra = 414, jump @9\n      : @416 [@dyn 207] (gas: 11)\n 10950: a5 = u64 [s1 + 0x118]\n 10954: a0 = u64 [s1 + 0xc0]\n 10958: a3 = u64 [s1 + 0xb8]\n 10962: a3 = a3 | a0\n 10965: a2 = 0x100000000\n 10975: a0 = 0xffffffe0\n 10985: a0 = a5 <u a0\n 10988: a1 = u64 [s1 + 0x110]\n 10992: a0 = 0 if a1 != 0\n 10994: a0 = 0 if a3 != 0\n 10996: jump @418 if a0 != 0\n      : @417 (gas: 1)\n 10999: jump @619\n      : @418 (gas: 26)\n 11002: t0 = 0xffffffffffffffff\n 11005: a1 = 0xffffffff\n 11015: u64 [s1 + 0xb8] = a2\n 11019: a2 = u64 [s1 + 0xf8]\n 11023: a2 = a2 >> 0x20\n 11026: a0 = u64 [s1 + 0xe8]\n 11030: u64 [s1 + 0xc0] = a3\n 11034: a3 = a0 << 0x20\n 11037: a2 = a2 | a3\n 11040: a3 = a0 >> 0x20\n 11043: a0 = u64 [s1 + 0xf0]\n 11047: a4 = a0 << 0x20\n 11050: a3 = a3 | a4\n 11053: a4 = a0 >> 0x20\n 11056: a3 = a3 & t0\n 11059: a2 = a2 & t0\n 11062: a1 = a1 & a4\n 11065: i32 a0 = a5 + 0x20\n 11068: a4 = s1 + 0x1098\n 11072: u64 [a4 + 768] = 0\n 11076: a5 = a4 + 0x200\n 11080: u64 [a5 + 0xf8] = a1\n 11084: u64 [a5 + 0xe8] = a2\n 11088: a1 = s1 + 0x1380\n 11092: u64 [a5 + 0xf0] = a3\n 11096: ra = 416, jump @9\n      : @419 [@dyn 208] (gas: 9)\n 11102: a1 = u64 [s1 + 0x118]\n 11106: a0 = u64 [s1 + 0xb8]\n 11110: a0 = a0 + 0xffffffffffffffc0\n 11113: a0 = a1 <u a0\n 11116: a2 = u64 [s1 + 0x110]\n 11120: a0 = 0 if a2 != 0\n 11122: a2 = u64 [s1 + 0xc0]\n 11126: a0 = 0 if a2 != 0\n 11128: jump @421 if a0 != 0\n      : @420 (gas: 1)\n 11131: jump @619\n      : @421 (gas: 13)\n 11134: i32 a0 = a1 + 0x40\n 11137: a3 = s1 + 0x1098\n 11141: a1 = u64 [s1 + 0x100]\n 11145: a4 = a3 + 0x200\n 11149: u64 [a4 + 0xc8] = a1\n 11153: a1 = u64 [s1 + 0x108]\n 11157: u64 [a4 + 0xd0] = a1\n 11161: a1 = u64 [s1 + 0xd8]\n 11165: u64 [a4 + 0xd8] = a1\n 11169: a1 = s1 + 0x1360\n 11173: a2 = u64 [s1 + 0xe0]\n 11177: u64 [a4 + 0xe0] = a2\n 11181: ra = 418, jump @9\n      : @422 [@dyn 209] (gas: 9)\n 11187: a3 = u64 [s1 + 0xc0]\n 11191: a2 = u64 [s1 + 0x110]\n 11195: a1 = u64 [s1 + 0x118]\n 11199: a4 = 0x100000000\n 11209: a0 = 0xffffffa0\n 11219: a0 = a1 <u a0\n 11222: a0 = 0 if a2 != 0\n 11224: a0 = 0 if a3 != 0\n 11226: jump @424 if a0 != 0\n      : @423 (gas: 1)\n 11229: jump @619\n      : @424 (gas: 10)\n 11232: i32 a0 = a1 + 0x60\n 11235: a3 = s1 + 0x1098\n 11239: u64 [a3 + 704] = 0\n 11243: u64 [a3 + 696] = 0\n 11247: a1 = u64 [s1 + 0xd0]\n 11251: u64 [a3 + 0x2a8] = a1\n 11255: a1 = s1 + 0x1340\n 11259: u64 [a3 + 688] = 0\n 11263: u64 [s1 + 0x108] = a4\n 11267: ra = 420, jump @9\n      : @425 [@dyn 210] (gas: 10)\n 11273: a3 = s1 + 0x100\n 11277: a2 = u64 [a3 + 0x18]\n 11280: a0 = u64 [a3 + 0x8]\n 11283: a0 = a0 + 0xffffffffffffff80\n 11286: a0 = a2 <u a0\n 11289: a1 = u64 [a3 + 0x10]\n 11292: a0 = 0 if a1 != 0\n 11294: a1 = u64 [s1 + 0xc0]\n 11298: a0 = 0 if a1 != 0\n 11300: jump @427 if a0 != 0\n      : @426 (gas: 1)\n 11303: jump @619\n      : @427 (gas: 10)\n 11306: a0 = u8 [s1 + 0xc8]\n 11310: a1 = a0 >u 0\n 11312: i32 a0 = a2 + 0x80\n 11316: a3 = s1 + 0x1098\n 11320: u64 [a3 + 672] = 0\n 11324: u64 [a3 + 664] = 0\n 11328: u64 [a3 + 0x288] = a1\n 11332: a1 = s1 + 0x1320\n 11336: u64 [a3 + 656] = 0\n 11340: ra = 422, jump @9\n      : @428 [@dyn 211] (gas: 3)\n 11346: a1 = 0xa0\n 11350: a0 = u64 [s1 + 0x118]\n 11354: ra = 424, jump @21\n      : @429 [@dyn 212] (gas: 5)\n 11360: i32 a1 = a0 + 0\n 11362: a2 = 0xa0\n 11366: a0 = 0\n 11368: ecalli 13 // 'seal_return'\n 11370: jump @718\n      : @430 (gas: 1)\n 11373: jump @432 if a0 == 1641031603\n      : @431 (gas: 1)\n 11380: jump @698\n      : @432 (gas: 10)\n 11383: u64 [a2 + 1472] = 0\n 11387: u64 [a2 + 1464] = 0\n 11391: u64 [a2 + 1456] = 0\n 11395: u64 [a2 + 1448] = 0\n 11399: a0 = s1 + 0x2000\n 11403: i32 a0 = a0 + 0x640\n 11407: ra = 0x1aa\n 11411: ecalli 16 // 'value_transferred'\n 11413: t0 = 0x1ac\n 11417: jump @1352\n      : @433 [@dyn 213] (gas: 1)\n 11420: t0 = 428, jump @1352\n      : @434 [@dyn 214] (gas: 1)\n 11426: t0 = 430, jump @1373\n      : @435 [@dyn 215] (gas: 1)\n 11432: jump @437 if a0 == 0\n      : @436 (gas: 1)\n 11435: jump @702\n      : @437 (gas: 3)\n 11438: a0 = u64 [s1 + 0x118]\n 11442: a0 = i32 [a0]\n 11444: jump @439 if a0 >u 3\n      : @438 (gas: 1)\n 11448: jump @703\n      : @439 (gas: 3)\n 11451: a0 = s1 + 0x1040\n 11455: a1 = 0x40\n 11458: ra = 432, jump @7\n      : @440 [@dyn 216] (gas: 12)\n 11464: a0 = s1 + 0x7ff\n 11468: a0 = a0 + 0x99\n 11472: a2 = a0 + 0x700\n 11476: a1 = u64 [a2 + 0xc0]\n 11480: u64 [s1 + 0x118] = a1\n 11484: a1 = u64 [a2 + 0xb8]\n 11488: u64 [s1 + 0x110] = a1\n 11492: a1 = u64 [a2 + 0xb0]\n 11496: u64 [s1 + 0x100] = a1\n 11500: a0 = u64 [a2 + 0xa8]\n 11504: u64 [s1 + 0x108] = a0\n 11508: ra = 434, jump @0\n      : @441 [@dyn 217] (gas: 14)\n 11514: a4 = s1 + 0x100\n 11518: a0 = u64 [a4 + 0x18]\n 11521: a1 = u64 [a4]\n 11523: a0 = a0 | a1\n 11526: a1 = u64 [a4 + 0x8]\n 11529: a3 = a1\n 11531: a2 = u64 [a4 + 0x10]\n 11534: a1 = a1 | a2\n 11537: a1 = a1 | a0\n 11540: a1 = a1 >> 0x20\n 11543: a0 = a0 | a2\n 11546: a0 = a0 << 0x20\n 11549: a0 = a0 | a1\n 11552: jump @443 if a0 == 0\n      : @442 (gas: 1)\n 11555: jump @619\n      : @443 (gas: 13)\n 11558: a2 = u64 [0x301a0]\n 11563: a1 = u64 [0x301a8]\n 11568: a0 = u32 [0x301b0]\n 11573: a4 = s1 + 0x7ff\n 11577: a4 = a4 + 0x99\n 11581: u64 [a4 + 1952] = 0\n 11585: a5 = a4 + 0x700\n 11589: u64 [a5 + 0x98] = a0\n 11593: u64 [a5 + 0x90] = a1\n 11597: a1 = s1 + 0x1020\n 11601: u64 [a5 + 0x88] = a2\n 11605: a0 = a3\n 11607: ra = 436, jump @9\n      : @444 [@dyn 218] (gas: 4)\n 11613: a1 = 0x20\n 11616: a0 = u64 [s1 + 0x108]\n 11620: ra = 0x2dc\n 11624: jump @21\n      : @445 (gas: 19)\n 11627: a0 = u64 [s1 + 0x118]\n 11631: a2 = u64 [s1 + 0xa8]\n 11635: a0 = a0 | a2\n 11638: a2 = u64 [s1 + 0x38]\n 11641: a0 = a2 if a4 == 0\n 11644: t1 = u64 [s1 + 0xc0]\n 11648: a3 = t1\n 11650: t0 = u64 [s1 + 0xe8]\n 11654: a3 = a0 if t0 != 0\n 11657: u64 [s1 + 0x118] = a3\n 11661: a0 = u64 [s1 + 0xe0]\n 11665: a2 = u64 [s1 + 0xb0]\n 11669: a0 = a0 | a2\n 11672: a2 = u64 [s1 + 0x40]\n 11675: a0 = a2 if a4 == 0\n 11678: a5 = u64 [s1 + 0xd8]\n 11682: a3 = a5\n 11684: a3 = a0 if t0 != 0\n 11687: t0 = 438, jump @1346\n      : @446 [@dyn 219] (gas: 1)\n 11693: ra = 440, jump @1380\n      : @447 [@dyn 220] (gas: 6)\n 11699: u64 [s1 + 0xb0] = a0\n 11703: u64 [s1 + 0x40] = a1\n 11706: a0 = u64 [s1 + 0xd0]\n 11710: a1 = u64 [s1 + 0xc8]\n 11714: a2 = u64 [s1 + 0x110]\n 11718: ra = 442, jump @1380\n      : @448 [@dyn 221] (gas: 7)\n 11724: u64 [s1 + 0x38] = a0\n 11727: u64 [s1 + 0xa8] = a1\n 11731: a1 = u64 [s1 + 0x110]\n 11735: a2 = 0x80 - a1\n 11739: a0 = u64 [s1 + 0xd8]\n 11743: a1 = u64 [s1 + 0xc0]\n 11747: ra = 444, jump @1385\n      : @449 [@dyn 222] (gas: 21)\n 11753: a2 = u64 [s1 + 0xa8]\n 11757: a1 = a1 | a2\n 11760: a3 = u64 [s1 + 0x110]\n 11764: a4 = a3 <u 0x80\n 11768: u64 [s1 + 0xa8] = a4\n 11772: a2 = u64 [s1 + 0x40]\n 11775: a1 = a2 if a4 == 0\n 11778: a2 = u64 [s1 + 0xc8]\n 11782: a2 = a1 if a3 != 0\n 11785: u64 [s1 + 0xc8] = a2\n 11789: a1 = u64 [s1 + 0x38]\n 11792: a0 = a0 | a1\n 11795: a1 = u64 [s1 + 0xb0]\n 11799: a0 = a1 if a4 == 0\n 11802: a1 = u64 [s1 + 0xd0]\n 11806: a1 = a0 if a3 != 0\n 11809: a2 = a3\n 11811: u64 [s1 + 0xd0] = a1\n 11815: a0 = u64 [s1 + 0xd8]\n 11819: a1 = u64 [s1 + 0xc0]\n 11823: ra = 446, jump @1380\n      : @450 [@dyn 223] (gas: 3)\n 11829: a5 = 0\n 11831: ra = 0\n 11833: t0 = 448, jump @1353\n      : @451 [@dyn 224] (gas: 3)\n 11839: t1 = u64 [s1 + 0xc8]\n 11843: t2 = u64 [s1 + 0xd0]\n 11847: fallthrough\n      : @452 (gas: 88)\n 11848: u64 [s1 + 0xd8] = a5\n 11852: a2 = t2 >> 0x3f\n 11855: a3 = t1 << 0x1\n 11858: a5 = a3 | a2\n 11861: a3 = t2 << 0x1\n 11864: a4 = u64 [s1 + 0x118]\n 11868: a4 = a4 >> 0x3f\n 11871: a3 = a3 | a4\n 11874: u64 [s1 + 0xc8] = a3\n 11878: a2 = u64 [s1 + 0xa8]\n 11882: u64 [s1 + 0xd0] = a5\n 11886: t2 = t1\n 11888: t1 = a2 ^ a5\n 11891: t0 = a2 <u a5\n 11894: a4 = u64 [s1 + 0xb0]\n 11898: a5 = a4 <u a3\n 11901: a5 = t0 if t1 != 0\n 11904: a1 = a1 << 0x1\n 11907: a3 = a0 >> 0x3f\n 11910: a1 = a1 | a3\n 11913: u64 [s1 + 0xc0] = a1\n 11917: a3 = t2 >> 0x3f\n 11920: a0 = a0 << 0x1\n 11923: a3 = a3 | a0\n 11926: a0 = u64 [s1 + 0x118]\n 11930: a0 = a0 << 0x1\n 11933: a4 = u64 [s1 + 0xe0]\n 11937: a1 = a4 >> 0x3f\n 11940: t0 = a0 | a1\n 11943: a1 = a4 << 0x1\n 11946: a4 = u64 [s1 + 0xe8]\n 11950: t1 = a4 >> 0x3f\n 11953: t1 = a1 | t1\n 11956: a1 = a4 << 0x1\n 11959: a4 = u64 [s1 + 0x108]\n 11963: t2 = a4 >> 0x3f\n 11966: a1 = a1 | t2\n 11969: a4 = a4 << 0x1\n 11972: a0 = u64 [s1 + 0xd8]\n 11976: a4 = a4 | a0\n 11979: u64 [s1 + 0x108] = a4\n 11983: a1 = ra | a1\n 11986: u64 [s1 + 0xe8] = a1\n 11990: a1 = ra | t1\n 11993: u64 [s1 + 0xe0] = a1\n 11997: a0 = ra | t0\n 12000: u64 [s1 + 0x118] = a0\n 12004: a0 = a2 - a3\n 12007: a0 = a0 <u a5\n 12010: a1 = a2 <u a3\n 12013: t0 = u64 [s1 + 0xc0]\n 12017: a4 = a2 - t0\n 12020: a4 = a4 - a1\n 12023: a4 = a4 - a0\n 12026: a5 = a4 >>a 0x3f\n 12029: a0 = u64 [s1 + 0xb8]\n 12033: a0 = a0 & a5\n 12036: a1 = u64 [s1 + 0xc8]\n 12040: t2 = a1 - a0\n 12043: a1 = a1 <u a0\n 12046: a0 = u64 [s1 + 0xd0]\n 12050: t1 = a0 - a1\n 12053: a1 = 0 if a0 != 0\n 12055: a0 = a3 - a1\n 12058: a1 = a3 <u a1\n 12061: a1 = t0 - a1\n 12064: a3 = u64 [s1 + 0x110]\n 12068: ra = u64 [s1 + 0x100]\n 12072: a2 = a3 | ra\n 12075: a2 = a2 <u 0x1\n 12078: a4 = u64 [s1 + 0xf0]\n 12082: t0 = a4 <u a2\n 12085: a2 = a4 - a2\n 12088: a4 = a3 <u 0x1\n 12091: ra = ra - a4\n 12094: a4 = u64 [s1 + 0xf8]\n 12098: a4 = a4 - t0\n 12101: a3 = a3 + 0xffffffffffffffff\n 12104: u64 [s1 + 0x100] = ra\n 12108: u64 [s1 + 0xf8] = a4\n 12112: t0 = ra | a4\n 12115: u64 [s1 + 0x110] = a3\n 12119: a4 = a3 | a2\n 12122: a3 = a4 | t0\n 12125: a5 = a5 & 0x1\n 12128: u64 [s1 + 0xf0] = a2\n 12132: ra = 0\n 12134: jump @452 if a3 != 0\n      : @453 (gas: 4)\n 12138: a0 = u64 [s1 + 0x108]\n 12142: a0 = a0 << 0x1\n 12145: ra = a5 | a0\n 12148: fallthrough\n      : @454 (gas: 4)\n 12149: u64 [s1 + 0xf0] = ra\n 12153: a0 = s1 + 0x2160\n 12157: a1 = 0x40\n 12160: ra = 450, jump @7\n      : @455 [@dyn 225] (gas: 18)\n 12166: t0 = s1 + 0x2098\n 12170: t1 = u64 [t0 + 0xe0]\n 12174: a0 = t0\n 12176: a5 = u64 [a0 + 0xd8]\n 12180: a3 = u64 [a0 + 0xd0]\n 12184: a4 = u64 [a0 + 0xc8]\n 12188: a0 = t1 >u 0\n 12190: a1 = a5 >u 0\n 12192: a1 = a0 if t1 != 0\n 12195: a0 = a3 >u 0\n 12197: a2 = a4 <u 0xffffffffffffff60\n 12201: a2 = a2 ^ 0x1\n 12204: u64 [s1 + 0x118] = a3\n 12208: a2 = a0 if a3 != 0\n 12211: a0 = a5 | t1\n 12214: u64 [s1 + 0xf8] = a0\n 12218: a2 = a1 if a0 != 0\n 12221: jump @457 if a2 == 0\n      : @456 (gas: 1)\n 12224: jump @686\n      : @457 (gas: 20)\n 12227: t2 = a4 + 0xa0\n 12231: a1 = t2 <u a4\n 12234: a2 = u64 [s1 + 0x118]\n 12238: a0 = a2 + a1\n 12241: a3 = a0 <u a2\n 12244: a3 = a1 if a1 == 0\n 12247: a3 = a3 + a5\n 12250: a1 = a3 <u a5\n 12253: u64 [s1 + 0x110] = a4\n 12257: a4 = t1 + a1\n 12260: u64 [t0 + 0xa8] = t2\n 12264: a2 = t0\n 12266: u64 [a2 + 0xb0] = a0\n 12270: u64 [a2 + 0xb8] = a3\n 12274: a0 = 0x40\n 12277: a1 = s1 + 0x2140\n 12281: u64 [a2 + 0xc0] = a4\n 12285: u64 [s1 + 0x100] = a5\n 12289: u64 [s1 + 0x108] = t1\n 12293: ra = 452, jump @9\n      : @458 [@dyn 226] (gas: 13)\n 12299: a5 = s1 + 0x100\n 12303: a2 = u64 [a5 + 0x10]\n 12306: a3 = u64 [a5]\n 12308: a0 = a2 | a3\n 12311: a1 = u64 [a5 + 0x18]\n 12314: a4 = u64 [a5 + 0x8]\n 12317: a1 = a1 | a4\n 12320: a0 = a0 | a1\n 12323: a0 = a0 >> 0x20\n 12326: a1 = a1 | a3\n 12329: a1 = a1 << 0x20\n 12332: a0 = a0 | a1\n 12335: jump @460 if a0 == 0\n      : @459 (gas: 1)\n 12338: jump @619\n      : @460 (gas: 11)\n 12341: a3 = s1 + 0x2098\n 12345: u64 [a3 + 160] = 0\n 12349: a0 = u64 [s1 + 0x98]\n 12353: u64 [a3 + 0x88] = a0\n 12357: a0 = u64 [s1 + 0x90]\n 12361: u64 [a3 + 0x90] = a0\n 12365: a1 = s1 + 0x2120\n 12369: a0 = u64 [s1 + 0xa0]\n 12373: u64 [a3 + 0x98] = a0\n 12377: a0 = a2\n 12379: ra = 454, jump @9\n      : @461 [@dyn 227] (gas: 3)\n 12385: a0 = u64 [s1 + 0x78]\n 12388: ecalli 4 // 'caller'\n 12390: fallthrough\n      : @462 (gas: 9)\n 12391: a4 = u64 [s1 + 0x110]\n 12395: a2 = 0x100000000\n 12405: a0 = 0xffffffe0\n 12415: a0 = a4 <u a0\n 12418: a1 = u64 [s1 + 0x118]\n 12422: a0 = 0 if a1 != 0\n 12424: a1 = u64 [s1 + 0xf8]\n 12428: a0 = 0 if a1 != 0\n 12430: jump @464 if a0 != 0\n      : @463 (gas: 1)\n 12433: jump @619\n      : @464 (gas: 24)\n 12436: u64 [s1 + 0x108] = a2\n 12440: a2 = u64 [s1 + 0x88]\n 12444: a0 = u64 [a2 + 0x8]\n 12447: a1 = i32 [a2 + 0x10]\n 12450: a2 = u64 [a2]\n 12452: a0 = reverse a0\n 12454: a3 = a0 << 0x20\n 12457: a1 = reverse a1\n 12459: a1 = a1 >> 0x20\n 12462: a3 = a3 | a1\n 12465: a0 = a0 >> 0x20\n 12468: a1 = reverse a2\n 12470: a2 = a1 << 0x20\n 12473: a2 = a2 | a0\n 12476: a1 = a1 >> 0x20\n 12479: i32 a0 = a4 + 0x20\n 12482: a4 = s1 + 0x2098\n 12486: u64 [a4 + 128] = 0\n 12490: u64 [a4 + 0x78] = a1\n 12493: u64 [a4 + 0x70] = a2\n 12496: a1 = s1 + 0x2100\n 12500: u64 [a4 + 0x68] = a3\n 12503: u64 [s1 + 0x100] = a0\n 12507: ra = 456, jump @9\n      : @465 [@dyn 228] (gas: 10)\n 12513: a3 = s1 + 0x100\n 12517: a1 = u64 [a3 + 0x10]\n 12520: a0 = u64 [a3 + 0x8]\n 12523: a0 = a0 + 0xffffffffffffffc0\n 12526: a0 = a1 <u a0\n 12529: a2 = u64 [a3 + 0x18]\n 12532: a0 = 0 if a2 != 0\n 12534: a2 = u64 [s1 + 0xf8]\n 12538: a0 = 0 if a2 != 0\n 12540: jump @467 if a0 != 0\n      : @466 (gas: 1)\n 12543: jump @619\n      : @467 (gas: 14)\n 12546: i32 a2 = a1 + 0x40\n 12549: a0 = u64 [s1 + 0x58]\n 12552: a3 = s1 + 0x2098\n 12556: u64 [a3 + 0x48] = a0\n 12559: a0 = u64 [s1 + 0x60]\n 12562: u64 [a3 + 0x50] = a0\n 12565: a0 = u64 [s1 + 0x68]\n 12568: u64 [a3 + 0x58] = a0\n 12571: a1 = s1 + 0x20e0\n 12575: a0 = u64 [s1 + 0x70]\n 12578: u64 [a3 + 0x60] = a0\n 12581: u64 [s1 + 0x108] = a2\n 12585: a0 = a2\n 12587: ra = 458, jump @9\n      : @468 [@dyn 229] (gas: 9)\n 12593: a1 = u64 [s1 + 0x110]\n 12597: a3 = 0x100000000\n 12607: a0 = 0xffffffa0\n 12617: a0 = a1 <u a0\n 12620: a2 = u64 [s1 + 0x118]\n 12624: a0 = 0 if a2 != 0\n 12626: a2 = u64 [s1 + 0xf8]\n 12630: a0 = 0 if a2 != 0\n 12632: jump @470 if a0 != 0\n      : @469 (gas: 1)\n 12635: jump @619\n      : @470 (gas: 11)\n 12638: i32 a0 = a1 + 0x60\n 12641: a2 = s1 + 0x2098\n 12645: u64 [a2 + 64] = 0\n 12648: u64 [a2 + 56] = 0\n 12651: u64 [a2 + 48] = 0\n 12654: a1 = s1 + 0x20c0\n 12658: u64 [s1 + 0xe8] = a3\n 12662: a3 = u64 [s1 + 0xf0]\n 12666: u64 [a2 + 0x28] = a3\n 12669: u64 [s1 + 0xf0] = a0\n 12673: ra = 460, jump @9\n      : @471 [@dyn 230] (gas: 9)\n 12679: a1 = u64 [s1 + 0x110]\n 12683: a0 = u64 [s1 + 0xe8]\n 12687: a0 = a0 + 0xffffffffffffff80\n 12690: a0 = a1 <u a0\n 12693: a2 = u64 [s1 + 0x118]\n 12697: a0 = 0 if a2 != 0\n 12699: a2 = u64 [s1 + 0xf8]\n 12703: a0 = 0 if a2 != 0\n 12705: jump @473 if a0 != 0\n      : @472 (gas: 1)\n 12708: jump @619\n      : @473 (gas: 9)\n 12711: i32 a0 = a1 + 0x80\n 12715: a2 = s1 + 0x2098\n 12719: u64 [a2 + 32] = 0\n 12722: u64 [a2 + 24] = 0\n 12725: u64 [a2 + 16] = 0\n 12728: a1 = s1 + 0x20a0\n 12732: u64 [a2 + 8] = 0\n 12735: u64 [s1 + 0xc8] = a0\n 12739: ra = 462, jump @9\n      : @474 [@dyn 231] (gas: 5)\n 12745: a0 = u64 [s1 + 0x78]\n 12748: ra = 0x1d0\n 12752: ecalli 4 // 'caller'\n 12754: t0 = 0x1d2\n 12758: jump @1323\n      : @475 [@dyn 232] (gas: 1)\n 12761: t0 = 466, jump @1323\n      : @476 [@dyn 233] (gas: 8)\n 12767: u64 [a2 + 0] = 0\n 12769: a4 = a2 + 0xffffffffffffff00\n 12773: u64 [a4 + 0xf8] = a1\n 12777: u64 [a4 + 0xf0] = a0\n 12781: a1 = s1 + 0x2080\n 12785: u64 [a4 + 0xe8] = a3\n 12789: a0 = 0\n 12791: ra = 468, jump @9\n      : @477 [@dyn 234] (gas: 3)\n 12797: t0 = 0x1d6\n 12801: a2 = s1 + 0x1898\n 12805: fallthrough\n      : @478 [@dyn 235] (gas: 7)\n 12806: u64 [a2 + 2016] = 0\n 12810: u64 [a2 + 2008] = 0\n 12814: u64 [a2 + 1992] = 0x1\n 12819: a0 = 0x20\n 12822: a1 = s1 + 0x2060\n 12826: u64 [a2 + 2000] = 0\n 12830: ra = 472, jump @9\n      : @479 [@dyn 236] (gas: 3)\n 12836: a1 = u64 [s1 + 0x48]\n 12839: a0 = i32 [a1]\n 12841: jump @481 if a0 >u 63\n      : @480 (gas: 2)\n 12845: u32 [a1 + 0] = 0x40\n 12848: fallthrough\n      : @481 (gas: 3)\n 12849: a0 = 0xffffffff00000000\n 12859: u64 [s1 + 0xf8] = a0\n 12863: t0 = 474, jump @1366\n      : @482 [@dyn 237] (gas: 6)\n 12869: a0 = u64 [s1 + 0x50]\n 12872: ra = 0x1dc\n 12876: ecalli 8 // 'hash_keccak_256'\n 12878: a3 = u64 [s1 + 0x118]\n 12882: t0 = 0x1de\n 12886: jump @1332\n      : @483 [@dyn 238] (gas: 2)\n 12889: a3 = u64 [s1 + 0x118]\n 12893: t0 = 478, jump @1332\n      : @484 [@dyn 239] (gas: 5)\n 12899: u64 [s1 + 0x118] = a0\n 12903: sp = a0\n 12905: t0 = 0x1e0\n 12909: a2 = s1 + 0x1898\n 12913: fallthrough\n      : @485 [@dyn 240] (gas: 11)\n 12914: u64 [a2 + 1984] = 0\n 12918: a0 = u64 [s1 + 0xa0]\n 12922: a3 = a2 + 0x700\n 12926: u64 [a3 + 0xb8] = a0\n 12930: a0 = u64 [s1 + 0x90]\n 12934: u64 [a3 + 0xb0] = a0\n 12938: a1 = s1 + 0x2040\n 12942: a0 = u64 [s1 + 0x98]\n 12946: u64 [a3 + 0xa8] = a0\n 12950: a0 = 0\n 12952: ra = 482, jump @9\n      : @486 [@dyn 241] (gas: 14)\n 12958: a0 = u64 [s1 + 0xd0]\n 12962: a1 = s1 + 0x1898\n 12966: a2 = a1 + 0x700\n 12970: u64 [a2 + 0xa0] = a0\n 12974: a0 = u64 [s1 + 0xd8]\n 12978: u64 [a2 + 0x98] = a0\n 12982: a0 = u64 [s1 + 0xe0]\n 12986: u64 [a2 + 0x90] = a0\n 12990: a3 = a1\n 12992: a0 = 0x20\n 12995: a1 = s1 + 0x2020\n 12999: a2 = u64 [s1 + 0xe8]\n 13003: u64 [a3 + 0x788] = a2\n 13007: ra = 484, jump @9\n      : @487 [@dyn 242] (gas: 3)\n 13013: a1 = u64 [s1 + 0x48]\n 13016: a0 = i32 [a1]\n 13018: jump @489 if a0 >u 63\n      : @488 (gas: 2)\n 13022: u32 [a1 + 0] = 0x40\n 13025: fallthrough\n      : @489 (gas: 29)\n 13026: a0 = sp + 0xffffffffffffffe0\n 13029: a0 = a0 & 0xffffffffffffffe0\n 13032: u64 [s1 + 0xe8] = a0\n 13036: sp = a0\n 13038: i32 a2 = a0 + 0\n 13040: a1 = 0x40\n 13043: a0 = u64 [s1 + 0x50]\n 13046: ecalli 8 // 'hash_keccak_256'\n 13048: a3 = u64 [s1 + 0xe8]\n 13052: a0 = u64 [a3 + 0x18]\n 13055: a1 = u64 [a3 + 0x10]\n 13058: a2 = u64 [a3 + 0x8]\n 13061: a3 = u64 [a3]\n 13063: a4 = reverse a0\n 13065: u64 [s1 + 0xd8] = a4\n 13069: a1 = reverse a1\n 13071: u64 [s1 + 0xe0] = a1\n 13075: a2 = reverse a2\n 13077: u64 [s1 + 0xd0] = a2\n 13081: a0 = reverse a3\n 13083: u64 [s1 + 0xe8] = a0\n 13087: a3 = u64 [s1 + 0x118]\n 13091: u64 [a3 + 0x18] = a0\n 13094: u64 [a3 + 0x10] = a2\n 13097: u64 [a3 + 0x8] = a1\n 13100: u64 [a3] = a4\n 13102: a0 = s1 + 0x2000\n 13106: a1 = u64 [s1 + 0x110]\n 13110: ra = 486, jump @7\n      : @490 [@dyn 243] (gas: 8)\n 13116: a0 = s1 + 0x1898\n 13120: a0 = u64 [a0 + 0x768]\n 13124: a1 = u64 [s1 + 0x80]\n 13128: a0 = a0 & a1\n 13131: u64 [s1 + 0x110] = a0\n 13135: a0 = s1 + 0x1fe0\n 13139: a1 = u64 [s1 + 0x118]\n 13143: ra = 488, jump @11\n      : @491 [@dyn 244] (gas: 7)\n 13149: a3 = s1 + 0x1898\n 13153: a4 = a3 + 0x700\n 13157: a0 = u64 [a4 + 0x50]\n 13160: a1 = u64 [a4 + 0x58]\n 13163: a2 = u64 [a4 + 0x60]\n 13166: a3 = u64 [a4 + 0x48]\n 13169: t0 = 490, jump @1354\n      : @492 [@dyn 245] (gas: 7)\n 13175: u64 [a4 + 0xe0] = a2\n 13179: u64 [a4 + 0xd8] = a1\n 13183: u64 [a4 + 0xd0] = a0\n 13187: u64 [a4 + 0xc8] = a3\n 13191: a1 = s1 + 0x2960\n 13195: a0 = u64 [s1 + 0x118]\n 13199: ra = 492, jump @12\n      : @493 [@dyn 246] (gas: 3)\n 13205: a0 = s1 + 0x1fc0\n 13209: a1 = u64 [s1 + 0x100]\n 13213: ra = 494, jump @7\n      : @494 [@dyn 247] (gas: 11)\n 13219: a0 = s1 + 0x1898\n 13223: a2 = a0 + 0x700\n 13227: a1 = u64 [a2 + 0x38]\n 13230: u64 [s1 + 0x110] = a1\n 13234: a1 = u64 [a2 + 0x30]\n 13237: u64 [s1 + 0x100] = a1\n 13241: a1 = u64 [a2 + 0x28]\n 13244: u64 [s1 + 0xc0] = a1\n 13248: a0 = s1 + 0x1fa0\n 13252: a1 = u64 [s1 + 0x118]\n 13256: ra = 496, jump @11\n      : @495 [@dyn 248] (gas: 22)\n 13262: a1 = s1 + 0x1898\n 13266: a0 = u64 [a1 + 0x720]\n 13270: a1 = u32 [a1 + 0x708]\n 13274: a5 = u64 [s1 + 0xc0]\n 13278: a2 = a5 >> 0x20\n 13281: a4 = u64 [s1 + 0x100]\n 13285: a3 = a4 << 0x20\n 13288: a2 = a2 | a3\n 13291: a3 = a4 >> 0x20\n 13294: a4 = u64 [s1 + 0x110]\n 13298: a4 = a4 << 0x20\n 13301: a3 = a3 | a4\n 13304: a4 = a5 << 0x20\n 13307: a1 = a1 | a4\n 13310: a4 = s1 + 0x2898\n 13314: u64 [a4 + 0xf8] = a3\n 13318: u64 [a4 + 0xf0] = a2\n 13322: u64 [a4 + 0x100] = a0\n 13326: u64 [a4 + 0xe8] = a1\n 13330: a1 = s1 + 0x2980\n 13334: a0 = u64 [s1 + 0x118]\n 13338: ra = 498, jump @12\n      : @496 [@dyn 249] (gas: 3)\n 13344: a0 = s1 + 0x1f80\n 13348: a1 = u64 [s1 + 0x108]\n 13352: ra = 500, jump @7\n      : @497 [@dyn 250] (gas: 30)\n 13358: a0 = s1 + 0x1898\n 13362: t0 = u64 [a0 + 0x6e8]\n 13366: t1 = u64 [a0 + 0x6f0]\n 13370: t2 = u64 [a0 + 0x6f8]\n 13374: a3 = u64 [a0 + 0x700]\n 13378: a0 = u64 [s1 + 0xd8]\n 13382: a0 = a0 + 0x1\n 13385: a5 = a0 <u 0x1\n 13388: a1 = u64 [s1 + 0xe0]\n 13392: a5 = a5 + a1\n 13395: a4 = a0 | a5\n 13398: a4 = a4 <u 0x1\n 13401: a1 = u64 [s1 + 0xd0]\n 13405: a4 = a4 + a1\n 13408: a1 = a4 <u a1\n 13411: a2 = u64 [s1 + 0xe8]\n 13415: a1 = a1 + a2\n 13418: a2 = s1 + 0x2898\n 13422: u64 [a2 + 0x120] = a1\n 13426: a1 = a2 + 0x100\n 13430: u64 [a1 + 0x18] = a4\n 13433: u64 [a1 + 0x10] = a5\n 13436: u64 [a1 + 0x8] = a0\n 13439: u64 [a1 + 0x40] = a3\n 13442: u64 [a2 + 0x138] = t2\n 13446: u64 [a2 + 0x130] = t1\n 13450: u64 [a2 + 0x128] = t0\n 13454: a0 = s1 + 0x29a0\n 13458: a1 = s1 + 0x29c0\n 13462: ra = 502, jump @12\n      : @498 [@dyn 251] (gas: 8)\n 13468: a0 = sp + 0xffffffffffffffe0\n 13471: a5 = a0 & 0xffffffffffffffe0\n 13474: sp = a5\n 13476: a1 = u64 [s1 + 0xd8]\n 13480: a0 = a1 + 0x2\n 13483: a1 = a0 <u a1\n 13486: a3 = u64 [s1 + 0xe0]\n 13490: t0 = 504, jump @1349\n      : @499 [@dyn 252] (gas: 13)\n 13496: a1 = u64 [s1 + 0xd0]\n 13500: a3 = a3 + a1\n 13503: a1 = a3 <u a1\n 13506: a4 = u64 [s1 + 0xe8]\n 13510: a1 = a1 + a4\n 13513: u64 [s1 + 0x118] = a5\n 13517: u64 [a5 + 0x18] = a1\n 13520: u64 [a5 + 0x10] = a3\n 13523: u64 [a5 + 0x8] = a2\n 13526: u64 [a5] = a0\n 13528: a0 = s1 + 0x1f60\n 13532: a1 = u64 [s1 + 0xf0]\n 13536: ra = 506, jump @7\n      : @500 [@dyn 253] (gas: 7)\n 13542: a0 = s1 + 0x1898\n 13546: a0 = u64 [a0 + 0x6c8]\n 13550: a0 = a0 & 0xffffffffffffffff\n 13553: u64 [s1 + 0x110] = a0\n 13557: a0 = s1 + 0x1f40\n 13561: a1 = u64 [s1 + 0x118]\n 13565: ra = 508, jump @11\n      : @501 [@dyn 254] (gas: 15)\n 13571: a2 = s1 + 0x1898\n 13575: a3 = a2 + 0x600\n 13579: a0 = u64 [a3 + 0xc0]\n 13583: a1 = u64 [a3 + 0xb8]\n 13587: a2 = u64 [a3 + 0xb0]\n 13591: a3 = s1 + 0x2898\n 13595: a4 = u64 [s1 + 0x110]\n 13599: a5 = a3 + 0x100\n 13603: u64 [a5 + 0x48] = a4\n 13606: u64 [a5 + 0x60] = a0\n 13609: u64 [a5 + 0x58] = a1\n 13612: u64 [a5 + 0x50] = a2\n 13615: a1 = s1 + 0x29e0\n 13619: a0 = u64 [s1 + 0x118]\n 13623: ra = 510, jump @12\n      : @502 [@dyn 255] (gas: 3)\n 13629: a0 = s1 + 0x1f20\n 13633: a1 = u64 [s1 + 0xc8]\n 13637: ra = 512, jump @7\n      : @503 [@dyn 256] (gas: 14)\n 13643: a3 = s1 + 0x1898\n 13647: a4 = a3 + 0x600\n 13651: a0 = u64 [a4 + 0xa0]\n 13655: a1 = u64 [a4 + 0x90]\n 13659: a2 = u64 [a4 + 0x98]\n 13663: a3 = u64 [a4 + 0x88]\n 13667: a0 = a0 | a1\n 13670: a2 = a2 | a3\n 13673: a0 = a0 | a2\n 13676: a0 = a0 >u 0\n 13678: u64 [s1 + 0x110] = a0\n 13682: a0 = s1 + 0x1f00\n 13686: a1 = u64 [s1 + 0x118]\n 13690: ra = 514, jump @11\n      : @504 [@dyn 257] (gas: 18)\n 13696: a3 = s1 + 0x1898\n 13700: a4 = a3 + 0x600\n 13704: a0 = u64 [a4 + 0x70]\n 13707: a1 = u64 [a4 + 0x68]\n 13710: a2 = u64 [a4 + 0x80]\n 13714: a3 = u64 [a4 + 0x78]\n 13717: a0 = a0 & 0xffffffffffffff00\n 13721: a4 = u64 [s1 + 0x110]\n 13725: a0 = a0 | a4\n 13728: a4 = s1 + 0x2898\n 13732: a5 = a4 + 0x100\n 13736: u64 [a5 + 0x80] = a2\n 13740: u64 [a5 + 0x78] = a3\n 13743: u64 [a5 + 0x68] = a1\n 13746: u64 [a5 + 0x70] = a0\n 13749: a1 = s1 + 0x2a00\n 13753: a0 = u64 [s1 + 0x118]\n 13757: ra = 516, jump @12\n      : @505 [@dyn 258] (gas: 6)\n 13763: a0 = u64 [s1 + 0x78]\n 13766: ra = 0x206\n 13770: ecalli 4 // 'caller'\n 13772: a2 = u64 [s1 + 0x88]\n 13776: t0 = 0x208\n 13780: jump @1308\n      : @506 [@dyn 259] (gas: 2)\n 13783: a2 = u64 [s1 + 0x88]\n 13787: t0 = 520, jump @1308\n      : @507 [@dyn 260] (gas: 8)\n 13793: u64 [a2 + 1632] = 0\n 13797: a4 = a2 + 0x600\n 13801: u64 [a4 + 0x58] = a1\n 13804: u64 [a4 + 0x50] = a0\n 13807: a1 = s1 + 0x1ee0\n 13811: u64 [a4 + 0x48] = a3\n 13814: a0 = 0\n 13816: ra = 522, jump @9\n      : @508 [@dyn 261] (gas: 9)\n 13822: a0 = s1 + 0x1898\n 13826: u64 [a0 + 1600] = 0\n 13830: u64 [a0 + 1592] = 0\n 13834: u64 [a0 + 1584] = 0\n 13838: a2 = a0\n 13840: a0 = 0x20\n 13843: a1 = s1 + 0x1ec0\n 13847: u64 [a2 + 1576] = 0\n 13851: ra = 524, jump @9\n      : @509 [@dyn 262] (gas: 7)\n 13857: a1 = u64 [s1 + 0x48]\n 13860: a0 = sp + 0xffffffffffffffe0\n 13863: a0 = a0 & 0xffffffffffffffe0\n 13866: u64 [s1 + 0x118] = a0\n 13870: sp = a0\n 13872: a0 = i32 [a1]\n 13874: jump @511 if a0 >=u 64\n      : @510 (gas: 2)\n 13878: u32 [a1 + 0] = 0x40\n 13881: fallthrough\n      : @511 (gas: 11)\n 13882: a0 = sp + 0xffffffffffffffe0\n 13885: a0 = a0 & 0xffffffffffffffe0\n 13888: u64 [s1 + 0x110] = a0\n 13892: sp = a0\n 13894: i32 a2 = a0 + 0\n 13896: a1 = 0x40\n 13899: a0 = u64 [s1 + 0x50]\n 13902: ra = 0x20e\n 13906: ecalli 8 // 'hash_keccak_256'\n 13908: t0 = 0x210\n 13912: jump @1347\n      : @512 [@dyn 263] (gas: 1)\n 13915: t0 = 528, jump @1347\n      : @513 [@dyn 264] (gas: 2)\n 13921: a4 = a3 + 0x3\n 13924: t0 = 530, jump @1320\n      : @514 [@dyn 265] (gas: 7)\n 13930: a1 = u64 [s1 + 0x118]\n 13934: u64 [a1] = a4\n 13936: u64 [a1 + 0x8] = a5\n 13939: u64 [a1 + 0x10] = a2\n 13942: u64 [a1 + 0x18] = a0\n 13945: a0 = s1 + 0x1ea0\n 13949: ra = 532, jump @11\n      : @515 [@dyn 266] (gas: 9)\n 13955: a0 = s1 + 0x1898\n 13959: a0 = u64 [a0 + 0x608]\n 13963: a0 = a0 + 0x1\n 13966: a1 = u64 [s1 + 0x80]\n 13970: a0 = a0 & a1\n 13973: u64 [s1 + 0x110] = a0\n 13977: a0 = s1 + 0x1e80\n 13981: a1 = u64 [s1 + 0x118]\n 13985: ra = 534, jump @11\n      : @516 [@dyn 267] (gas: 7)\n 13991: a3 = s1 + 0x1898\n 13995: a4 = a3 + 0x500\n 13999: a0 = u64 [a4 + 0xf0]\n 14003: a1 = u64 [a4 + 0xf8]\n 14007: a2 = u64 [a3 + 0x600]\n 14011: a3 = u64 [a4 + 0xe8]\n 14015: t0 = 536, jump @1354\n      : @517 [@dyn 268] (gas: 8)\n 14021: a5 = a4 + 0x100\n 14025: u64 [a5 + 0xa0] = a2\n 14029: u64 [a5 + 0x98] = a1\n 14033: u64 [a5 + 0x90] = a0\n 14037: u64 [a5 + 0x88] = a3\n 14041: a1 = s1 + 0x2a20\n 14045: a0 = u64 [s1 + 0x118]\n 14049: ra = 538, jump @12\n      : @518 [@dyn 269] (gas: 3)\n 14055: a0 = s1 + 0x1e60\n 14059: a1 = 0x40\n 14062: ra = 540, jump @7\n      : @519 [@dyn 270] (gas: 14)\n 14068: a3 = s1 + 0x1898\n 14072: a5 = a3 + 0x500\n 14076: a0 = u64 [a5 + 0xe0]\n 14080: a1 = u64 [a5 + 0xd8]\n 14084: a2 = u64 [a5 + 0xd0]\n 14088: a4 = u64 [a5 + 0xc8]\n 14092: a0 = a0 | a2\n 14095: a2 = a4 | a1\n 14098: a2 = a2 | a0\n 14101: a2 = a2 >> 0x20\n 14104: a0 = a0 | a1\n 14107: a0 = a0 << 0x20\n 14110: a0 = a0 | a2\n 14113: jump @619 if a0 != 0\n      : @520 (gas: 13)\n 14117: a0 = u64 [s1 + 0x58]\n 14120: a2 = a3 + 0x500\n 14124: u64 [a2 + 0xa8] = a0\n 14128: a0 = u64 [s1 + 0x60]\n 14131: u64 [a2 + 0xb0] = a0\n 14135: a0 = u64 [s1 + 0x68]\n 14138: u64 [a2 + 0xb8] = a0\n 14142: a1 = s1 + 0x1e40\n 14146: a0 = u64 [s1 + 0x70]\n 14149: u64 [a2 + 0xc0] = a0\n 14153: a0 = a4\n 14155: u64 [s1 + 0x118] = a4\n 14159: ra = 542, jump @9\n      : @521 [@dyn 271] (gas: 6)\n 14165: a0 = u64 [s1 + 0x78]\n 14168: ra = 0x220\n 14172: ecalli 4 // 'caller'\n 14174: a2 = u64 [s1 + 0x88]\n 14178: t0 = 0x222\n 14182: jump @1311\n      : @522 [@dyn 272] (gas: 2)\n 14185: a2 = u64 [s1 + 0x88]\n 14189: t0 = 546, jump @1311\n      : @523 [@dyn 273] (gas: 43)\n 14195: t0 = a1 | a0\n 14198: a3 = a3 >> 0x20\n 14201: a2 = reverse a2\n 14203: a1 = a2 << 0x20\n 14206: a1 = a1 | a3\n 14209: a2 = a2 >> 0x20\n 14212: a3 = u64 [0x20000]\n 14217: a4 = u64 [0x20008]\n 14222: a5 = u64 [0x20010]\n 14227: a0 = s1 + 0x1898\n 14231: u64 [a0 + 0x5a0] = a3\n 14235: a0 = s1 + 0x1898\n 14239: u64 [a0 + 0x598] = a4\n 14243: a3 = s1 + 0x1898\n 14247: u64 [a3 + 1376] = 0\n 14251: a0 = s1 + 0x1898\n 14255: u64 [a0 + 0x590] = a5\n 14259: a3 = u64 [0x20018]\n 14264: a4 = s1 + 0x1898\n 14268: a0 = u64 [s1 + 0xa0]\n 14272: u64 [a4 + 0x558] = a0\n 14276: a4 = s1 + 0x1898\n 14280: a0 = u64 [s1 + 0x90]\n 14284: u64 [a4 + 0x550] = a0\n 14288: a4 = s1 + 0x1898\n 14292: a0 = u64 [s1 + 0x98]\n 14296: u64 [a4 + 0x548] = a0\n 14300: a0 = s1 + 0x1898\n 14304: u64 [a0 + 0x588] = a3\n 14308: a3 = s1 + 0x1898\n 14312: u64 [a3 + 0x578] = a2\n 14316: a2 = s1 + 0x1898\n 14320: u64 [a2 + 0x570] = a1\n 14324: a1 = s1 + 0x1898\n 14328: u64 [a1 + 0x568] = t0\n 14332: a1 = 0x20\n 14335: a2 = s1 + 0x1e20\n 14339: a3 = s1 + 0x1e00\n 14343: a4 = s1 + 0x1de0\n 14347: a0 = s1 + 0x1898\n 14351: u64 [a0 + 1408] = 0\n 14355: a0 = u64 [s1 + 0x118]\n 14359: ra = 548, jump @15\n      : @524 [@dyn 274] (gas: 3)\n 14365: a0 = s1 + 0x1dc0\n 14369: a1 = 0x40\n 14372: ra = 550, jump @7\n      : @525 [@dyn 275] (gas: 14)\n 14378: a3 = s1 + 0x1898\n 14382: a5 = a3 + 0x500\n 14386: a0 = u64 [a5 + 0x40]\n 14389: a1 = u64 [a5 + 0x38]\n 14392: a2 = u64 [a5 + 0x30]\n 14395: a4 = u64 [a5 + 0x28]\n 14398: a0 = a0 | a2\n 14401: a2 = a4 | a1\n 14404: a2 = a2 | a0\n 14407: a2 = a2 >> 0x20\n 14410: a0 = a0 | a1\n 14413: a0 = a0 << 0x20\n 14416: a0 = a0 | a2\n 14419: jump @619 if a0 != 0\n      : @526 (gas: 13)\n 14423: u64 [a3 + 1312] = 0\n 14427: a0 = u64 [s1 + 0x98]\n 14431: a2 = a3 + 0x500\n 14435: u64 [a2 + 0x8] = a0\n 14438: a0 = u64 [s1 + 0x90]\n 14442: u64 [a2 + 0x10] = a0\n 14445: a1 = s1 + 0x1da0\n 14449: a0 = u64 [s1 + 0xa0]\n 14453: u64 [a2 + 0x18] = a0\n 14456: a0 = a4\n 14458: u64 [s1 + 0x118] = a4\n 14462: ra = 0x10a\n 14466: jump @9\n      : @527 (gas: 19)\n 14469: a0 = u64 [s1 + 0x118]\n 14473: a2 = u64 [s1 + 0xa8]\n 14477: a0 = a0 | a2\n 14480: a2 = u64 [s1 + 0x90]\n 14484: a0 = a2 if a4 == 0\n 14487: t1 = u64 [s1 + 0xc0]\n 14491: a3 = t1\n 14493: t0 = u64 [s1 + 0xe8]\n 14497: a3 = a0 if t0 != 0\n 14500: u64 [s1 + 0x118] = a3\n 14504: a0 = u64 [s1 + 0xe0]\n 14508: a2 = u64 [s1 + 0xb0]\n 14512: a0 = a0 | a2\n 14515: a2 = u64 [s1 + 0x98]\n 14519: a0 = a2 if a4 == 0\n 14522: a5 = u64 [s1 + 0xd0]\n 14526: a3 = a5\n 14528: a3 = a0 if t0 != 0\n 14531: t0 = 552, jump @1346\n      : @528 [@dyn 276] (gas: 1)\n 14537: ra = 554, jump @1380\n      : @529 [@dyn 277] (gas: 6)\n 14543: u64 [s1 + 0xb0] = a0\n 14547: u64 [s1 + 0x98] = a1\n 14551: a0 = u64 [s1 + 0xc8]\n 14555: a1 = u64 [s1 + 0xd8]\n 14559: a2 = u64 [s1 + 0x110]\n 14563: ra = 556, jump @1380\n      : @530 [@dyn 278] (gas: 7)\n 14569: u64 [s1 + 0x90] = a0\n 14573: u64 [s1 + 0xa8] = a1\n 14577: a1 = u64 [s1 + 0x110]\n 14581: a2 = 0x80 - a1\n 14585: a0 = u64 [s1 + 0xd0]\n 14589: a1 = u64 [s1 + 0xc0]\n 14593: ra = 558, jump @1385\n      : @531 [@dyn 279] (gas: 21)\n 14599: a2 = u64 [s1 + 0xa8]\n 14603: a1 = a1 | a2\n 14606: a3 = u64 [s1 + 0x110]\n 14610: a4 = a3 <u 0x80\n 14614: u64 [s1 + 0xa8] = a4\n 14618: a2 = u64 [s1 + 0x98]\n 14622: a1 = a2 if a4 == 0\n 14625: a2 = u64 [s1 + 0xd8]\n 14629: a2 = a1 if a3 != 0\n 14632: u64 [s1 + 0xd8] = a2\n 14636: a1 = u64 [s1 + 0x90]\n 14640: a0 = a0 | a1\n 14643: a1 = u64 [s1 + 0xb0]\n 14647: a0 = a1 if a4 == 0\n 14650: a1 = u64 [s1 + 0xc8]\n 14654: a1 = a0 if a3 != 0\n 14657: a2 = a3\n 14659: u64 [s1 + 0xc8] = a1\n 14663: a0 = u64 [s1 + 0xd0]\n 14667: a1 = u64 [s1 + 0xc0]\n 14671: ra = 560, jump @1380\n      : @532 [@dyn 280] (gas: 3)\n 14677: a4 = 0\n 14679: a5 = 0\n 14681: t0 = 562, jump @1353\n      : @533 [@dyn 281] (gas: 3)\n 14687: t1 = u64 [s1 + 0xd8]\n 14691: t2 = u64 [s1 + 0xc8]\n 14695: fallthrough\n      : @534 (gas: 89)\n 14696: u64 [s1 + 0xd8] = a4\n 14700: a2 = t2 >> 0x3f\n 14703: a3 = t1 << 0x1\n 14706: t0 = a3 | a2\n 14709: a3 = t2 << 0x1\n 14712: a4 = u64 [s1 + 0x118]\n 14716: a4 = a4 >> 0x3f\n 14719: a3 = a3 | a4\n 14722: u64 [s1 + 0xc8] = a3\n 14726: a2 = u64 [s1 + 0xa8]\n 14730: t2 = a1\n 14732: u64 [s1 + 0xd0] = t0\n 14736: a1 = a2 ^ t0\n 14739: ra = t1\n 14741: t1 = a2 <u t0\n 14744: a4 = u64 [s1 + 0xb0]\n 14748: t0 = a4 <u a3\n 14751: t0 = t1 if a1 != 0\n 14754: a1 = t2 << 0x1\n 14757: a3 = a0 >> 0x3f\n 14760: a1 = a1 | a3\n 14763: u64 [s1 + 0xc0] = a1\n 14767: a3 = ra >> 0x3f\n 14770: a0 = a0 << 0x1\n 14773: a3 = a3 | a0\n 14776: a0 = u64 [s1 + 0x118]\n 14780: a0 = a0 << 0x1\n 14783: a4 = u64 [s1 + 0xe0]\n 14787: a1 = a4 >> 0x3f\n 14790: ra = a0 | a1\n 14793: a1 = a4 << 0x1\n 14796: a4 = u64 [s1 + 0xe8]\n 14800: t1 = a4 >> 0x3f\n 14803: t1 = a1 | t1\n 14806: a1 = a4 << 0x1\n 14809: a4 = u64 [s1 + 0x108]\n 14813: t2 = a4 >> 0x3f\n 14816: a1 = a1 | t2\n 14819: a4 = a4 << 0x1\n 14822: a0 = u64 [s1 + 0xd8]\n 14826: a4 = a4 | a0\n 14829: u64 [s1 + 0x108] = a4\n 14833: a1 = a1 | a5\n 14836: u64 [s1 + 0xe8] = a1\n 14840: a1 = a5 | t1\n 14843: u64 [s1 + 0xe0] = a1\n 14847: a0 = a5 | ra\n 14850: u64 [s1 + 0x118] = a0\n 14854: a0 = a2 - a3\n 14857: a0 = a0 <u t0\n 14860: a1 = a2 <u a3\n 14863: t0 = u64 [s1 + 0xc0]\n 14867: a4 = a2 - t0\n 14870: a4 = a4 - a1\n 14873: a4 = a4 - a0\n 14876: a5 = a4 >>a 0x3f\n 14879: a0 = u64 [s1 + 0xb8]\n 14883: a0 = a0 & a5\n 14886: a1 = u64 [s1 + 0xc8]\n 14890: t2 = a1 - a0\n 14893: a1 = a1 <u a0\n 14896: a0 = u64 [s1 + 0xd0]\n 14900: t1 = a0 - a1\n 14903: a1 = 0 if a0 != 0\n 14905: a0 = a3 - a1\n 14908: a1 = a3 <u a1\n 14911: a1 = t0 - a1\n 14914: a3 = u64 [s1 + 0x110]\n 14918: ra = u64 [s1 + 0x100]\n 14922: a2 = a3 | ra\n 14925: a2 = a2 <u 0x1\n 14928: a4 = u64 [s1 + 0xf0]\n 14932: t0 = a4 <u a2\n 14935: a2 = a4 - a2\n 14938: a4 = a3 <u 0x1\n 14941: ra = ra - a4\n 14944: a4 = u64 [s1 + 0xf8]\n 14948: a4 = a4 - t0\n 14951: a3 = a3 + 0xffffffffffffffff\n 14954: u64 [s1 + 0x100] = ra\n 14958: u64 [s1 + 0xf8] = a4\n 14962: t0 = ra | a4\n 14965: u64 [s1 + 0x110] = a3\n 14969: a4 = a3 | a2\n 14972: a3 = a4 | t0\n 14975: a4 = a5 & 0x1\n 14978: u64 [s1 + 0xf0] = a2\n 14982: a5 = 0\n 14984: jump @534 if a3 != 0\n      : @535 (gas: 4)\n 14988: a0 = u64 [s1 + 0x108]\n 14992: a0 = a0 << 0x1\n 14995: a4 = a4 | a0\n 14998: fallthrough\n      : @536 (gas: 3)\n 14999: a0 = a4 & 0xffffffffffffffff\n 15002: a1 = u64 [s1 + 0xa0]\n 15006: jump @693 if a1 != a0\n      : @537 (gas: 8)\n 15010: a0 = 0x30180\n 15015: u64 [s1 + 0xd0] = a0\n 15019: i32 a0 = a0 + 0\n 15021: u64 [s1 + 0xc8] = a0\n 15025: ra = 0x234\n 15029: ecalli 4 // 'caller'\n 15031: t0 = 0x236\n 15035: jump @1309\n      : @538 [@dyn 282] (gas: 1)\n 15038: t0 = 566, jump @1309\n      : @539 [@dyn 283] (gas: 9)\n 15044: u64 [a2 + 1056] = 0\n 15048: a4 = a2 + 0x400\n 15052: u64 [a4 + 0x18] = a1\n 15055: u64 [a4 + 0x10] = a0\n 15058: a1 = s1 + 0x7ff\n 15062: a1 = a1 + 0x4a1\n 15066: u64 [a4 + 0x8] = a3\n 15069: a0 = 0\n 15071: ra = 568, jump @9\n      : @540 [@dyn 284] (gas: 11)\n 15077: a0 = s1 + 0x7ff\n 15081: a0 = a0 + 0x99\n 15085: u64 [a0 + 1024] = 0\n 15089: u64 [a0 + 1016] = 0\n 15093: u64 [a0 + 1008] = 0\n 15097: a2 = a0\n 15099: a0 = 0x20\n 15102: a1 = s1 + 0x7ff\n 15106: a1 = a1 + 0x481\n 15110: u64 [a2 + 1000] = 0\n 15114: ra = 570, jump @9\n      : @541 [@dyn 285] (gas: 7)\n 15120: a0 = sp + 0xffffffffffffffe0\n 15123: a0 = a0 & 0xffffffffffffffe0\n 15126: u64 [s1 + 0xa8] = a0\n 15130: sp = a0\n 15132: a1 = 0x20170\n 15137: a0 = i32 [0x20170]\n 15142: jump @543 if a0 >u 63\n      : @542 (gas: 3)\n 15146: u32 [0x20170] = 0x40\n 15152: t0 = 0x23c\n 15156: jump @1368\n      : @543 (gas: 1)\n 15159: t0 = 572, jump @1368\n      : @544 [@dyn 286] (gas: 30)\n 15165: a0 = 0x20180\n 15170: i32 a0 = a0 + 0\n 15172: i32 a2 = a2 + 0\n 15174: u64 [s1 + 0x108] = a1\n 15178: a1 = 0x40\n 15181: u64 [s1 + 0x110] = a0\n 15185: ecalli 8 // 'hash_keccak_256'\n 15187: a3 = u64 [s1 + 0x118]\n 15191: a0 = u64 [a3 + 0x18]\n 15194: a1 = u64 [a3 + 0x10]\n 15197: a2 = u64 [a3 + 0x8]\n 15200: a3 = u64 [a3]\n 15202: a5 = reverse a0\n 15204: a4 = reverse a1\n 15206: a1 = reverse a2\n 15208: a2 = reverse a3\n 15210: a0 = u64 [s1 + 0xa8]\n 15214: u64 [s1 + 0x100] = a2\n 15218: u64 [a0 + 0x18] = a2\n 15221: u64 [s1 + 0x118] = a1\n 15225: u64 [a0 + 0x10] = a1\n 15228: u64 [s1 + 0xf8] = a4\n 15232: u64 [a0 + 0x8] = a4\n 15235: u64 [s1 + 0xf0] = a5\n 15239: u64 [a0] = a5\n 15241: a0 = u64 [s1 + 0xc8]\n 15245: ra = 0x23e\n 15249: ecalli 4 // 'caller'\n 15251: t0 = 0x240\n 15255: jump @1309\n      : @545 [@dyn 287] (gas: 1)\n 15258: t0 = 576, jump @1309\n      : @546 [@dyn 288] (gas: 9)\n 15264: u64 [a2 + 992] = 0\n 15268: a4 = a2 + 0x300\n 15272: u64 [a4 + 0xd8] = a1\n 15276: u64 [a4 + 0xd0] = a0\n 15280: a1 = s1 + 0x7ff\n 15284: a1 = a1 + 0x461\n 15288: u64 [a4 + 0xc8] = a3\n 15292: a0 = 0\n 15294: ra = 578, jump @9\n      : @547 [@dyn 289] (gas: 11)\n 15300: a1 = s1 + 0x7ff\n 15304: a1 = a1 + 0x99\n 15308: u64 [a1 + 960] = 0\n 15312: u64 [a1 + 952] = 0\n 15316: u64 [a1 + 936] = 0x2\n 15321: a2 = a1\n 15323: a0 = 0x20\n 15326: a1 = s1 + 0x7ff\n 15330: a1 = a1 + 0x441\n 15334: u64 [a2 + 944] = 0\n 15338: ra = 580, jump @9\n      : @548 [@dyn 290] (gas: 3)\n 15344: a1 = u64 [s1 + 0x108]\n 15348: a0 = i32 [a1]\n 15350: jump @550 if a0 >u 63\n      : @549 (gas: 2)\n 15354: u32 [a1 + 0] = 0x40\n 15357: fallthrough\n      : @550 (gas: 8)\n 15358: a1 = 0xffffffff00000000\n 15368: u64 [s1 + 0xb0] = a1\n 15372: a0 = 0xffffffff\n 15382: u64 [s1 + 0xc0] = a0\n 15386: a0 = sp + 0xffffffffffffffe0\n 15389: a0 = a0 & 0xffffffffffffffe0\n 15392: u64 [s1 + 0xe8] = a0\n 15396: t0 = 582, jump @1310\n      : @551 [@dyn 291] (gas: 5)\n 15402: ra = 0x248\n 15406: ecalli 8 // 'hash_keccak_256'\n 15408: a3 = u64 [s1 + 0xe8]\n 15412: t0 = 0x24a\n 15416: jump @1313\n      : @552 [@dyn 292] (gas: 2)\n 15419: a3 = u64 [s1 + 0xe8]\n 15423: t0 = 586, jump @1313\n      : @553 [@dyn 293] (gas: 9)\n 15429: a5 = a4 + 0x400\n 15433: u64 [a5 + 0x60] = a3\n 15436: u64 [a5 + 0x58] = a2\n 15439: u64 [a5 + 0x50] = a1\n 15442: u64 [a5 + 0x48] = a0\n 15445: a0 = s1 + 0x7ff\n 15449: a0 = a0 + 0x421\n 15453: a1 = s1 + 0x24e0\n 15457: ra = 588, jump @11\n      : @554 [@dyn 294] (gas: 25)\n 15463: u64 [s1 + 144] = 0\n 15467: u64 [s1 + 152] = 0\n 15471: a4 = 0\n 15473: a0 = s1 + 0x7ff\n 15477: a0 = a0 + 0x99\n 15481: a0 = u32 [a0 + 0x388]\n 15485: u64 [s1 + 0xb8] = a0\n 15489: a1 = u64 [s1 + 0xf0]\n 15493: a1 = a1 + 0x1\n 15496: a0 = a1 <u 0x1\n 15499: a2 = u64 [s1 + 0xf8]\n 15503: a0 = a0 + a2\n 15506: u64 [s1 + 0x88] = a1\n 15510: u64 [s1 + 0x80] = a0\n 15514: a0 = a0 | a1\n 15517: a0 = a0 <u 0x1\n 15520: a1 = u64 [s1 + 0x118]\n 15524: a0 = a0 + a1\n 15527: u64 [s1 + 0x78] = a0\n 15530: a0 = a0 <u a1\n 15533: a1 = u64 [s1 + 0x100]\n 15537: a0 = a0 + a1\n 15540: u64 [s1 + 0x70] = a0\n 15543: a3 = 0x1\n 15546: fallthrough\n      : @555 (gas: 9)\n 15547: a1 = 0\n 15549: a1 = 0 if a4 == 0\n 15551: a0 = u64 [s1 + 0xb8]\n 15555: a0 = a0 <u a3\n 15558: a2 = 0\n 15560: a2 = a0 if a4 == 0\n 15563: a0 = 0\n 15565: a2 = a1 if a0 != 0\n 15568: jump @615 if a2 != 0\n      : @556 (gas: 7)\n 15572: u64 [s1 + 248] = 0\n 15576: u64 [s1 + 0x118] = a3\n 15580: a0 = u64 [s1 + 0xc8]\n 15584: ra = 0x24e\n 15588: ecalli 4 // 'caller'\n 15590: t0 = 0x250\n 15594: jump @1309\n      : @557 [@dyn 295] (gas: 1)\n 15597: t0 = 592, jump @1309\n      : @558 [@dyn 296] (gas: 9)\n 15603: u64 [a2 + 896] = 0\n 15607: a4 = a2 + 0x300\n 15611: u64 [a4 + 0x78] = a1\n 15614: u64 [a4 + 0x70] = a0\n 15617: a1 = s1 + 0x7ff\n 15621: a1 = a1 + 0x401\n 15625: u64 [a4 + 0x68] = a3\n 15628: a0 = 0\n 15630: ra = 594, jump @9\n      : @559 [@dyn 297] (gas: 11)\n 15636: a0 = s1 + 0x7ff\n 15640: a0 = a0 + 0x99\n 15644: u64 [a0 + 864] = 0\n 15648: u64 [a0 + 856] = 0\n 15652: u64 [a0 + 848] = 0\n 15656: a3 = a0\n 15658: a0 = 0x20\n 15661: a1 = s1 + 0x7ff\n 15665: a1 = a1 + 0x3e1\n 15669: u64 [a3 + 840] = 0x1\n 15674: ra = 596, jump @9\n      : @560 [@dyn 298] (gas: 3)\n 15680: a1 = u64 [s1 + 0x108]\n 15684: a0 = i32 [a1]\n 15686: jump @562 if a0 >u 63\n      : @561 (gas: 2)\n 15690: u32 [a1 + 0] = 0x40\n 15693: fallthrough\n      : @562 (gas: 4)\n 15694: a0 = sp + 0xffffffffffffffe0\n 15697: a0 = a0 & 0xffffffffffffffe0\n 15700: u64 [s1 + 0x100] = a0\n 15704: t0 = 598, jump @1310\n      : @563 [@dyn 299] (gas: 4)\n 15710: ra = 0x258\n 15714: ecalli 8 // 'hash_keccak_256'\n 15716: t0 = 0x25a\n 15720: jump @1319\n      : @564 [@dyn 300] (gas: 1)\n 15723: t0 = 602, jump @1319\n      : @565 [@dyn 301] (gas: 10)\n 15729: a3 = a2 + 0x300\n 15733: u64 [a3 + 0x40] = a0\n 15736: u64 [a3 + 0x38] = a0\n 15739: u64 [a3 + 0x30] = a0\n 15742: a1 = s1 + 0x7ff\n 15746: a1 = a1 + 0x3c1\n 15750: a0 = u64 [s1 + 0x118]\n 15754: u64 [a3 + 0x28] = a0\n 15757: a0 = 0\n 15759: ra = 604, jump @9\n      : @566 [@dyn 302] (gas: 5)\n 15765: a0 = u64 [s1 + 0xd8]\n 15769: a1 = s1 + 0x7ff\n 15773: a1 = a1 + 0x99\n 15777: a2 = a1 + 0x300\n 15781: t0 = 606, jump @1342\n      : @567 [@dyn 303] (gas: 4)\n 15787: a1 = a1 + 0x3a1\n 15791: a2 = u64 [s1 + 0xf0]\n 15795: u64 [a3 + 0x308] = a2\n 15799: ra = 608, jump @9\n      : @568 [@dyn 304] (gas: 3)\n 15805: a1 = u64 [s1 + 0x108]\n 15809: a0 = i32 [a1]\n 15811: jump @570 if a0 >u 63\n      : @569 (gas: 2)\n 15815: u32 [a1 + 0] = 0x40\n 15818: fallthrough\n      : @570 (gas: 4)\n 15819: a0 = sp + 0xffffffffffffffe0\n 15822: a0 = a0 & 0xffffffffffffffe0\n 15825: u64 [s1 + 0xf0] = a0\n 15829: t0 = 610, jump @1310\n      : @571 [@dyn 305] (gas: 5)\n 15835: ra = 0x264\n 15839: ecalli 8 // 'hash_keccak_256'\n 15841: a3 = u64 [s1 + 0xf0]\n 15845: t0 = 0x266\n 15849: jump @1330\n      : @572 [@dyn 306] (gas: 2)\n 15852: a3 = u64 [s1 + 0xf0]\n 15856: t0 = 614, jump @1330\n      : @573 [@dyn 307] (gas: 23)\n 15862: a4 = u64 [s1 + 0x100]\n 15866: u64 [a4 + 0x18] = a3\n 15869: u64 [a4 + 0x10] = a2\n 15872: u64 [a4 + 0x8] = a1\n 15875: u64 [a4] = a0\n 15877: a4 = a0 + 0x2\n 15880: a0 = a4 <u a0\n 15883: a5 = a1 + a0\n 15886: a1 = a5 <u a1\n 15889: a1 = a0 if a0 == 0\n 15892: a1 = a1 + a2\n 15895: a0 = a1 <u a2\n 15898: a0 = a0 + a3\n 15901: a2 = s1 + 0x2098\n 15905: a3 = a2 + 0x400\n 15909: u64 [a3 + 0x68] = a4\n 15912: u64 [a3 + 0x70] = a5\n 15915: u64 [a3 + 0x78] = a1\n 15918: u64 [a3 + 0x80] = a0\n 15922: a0 = s1 + 0x7ff\n 15926: a0 = a0 + 0x381\n 15930: a1 = s1 + 0x2500\n 15934: ra = 616, jump @11\n      : @574 [@dyn 308] (gas: 5)\n 15940: a0 = s1 + 0x7ff\n 15944: a0 = a0 + 0x99\n 15948: a0 = u64 [a0 + 0x2f0]\n 15952: a0 = a0 & 0xff\n 15956: jump @577 if a0 == 0\n      : @575 (gas: 2)\n 15959: a1 = u64 [s1 + 0xc0]\n 15963: fallthrough\n      : @576 (gas: 5)\n 15964: a4 = 0\n 15966: a0 = u64 [s1 + 0x118]\n 15970: a0 = a0 + 0x1\n 15973: a3 = a0 & a1\n 15976: jump @555\n      : @577 (gas: 4)\n 15979: a0 = s1 + 0x7ff\n 15983: a0 = a0 + 0x361\n 15987: a1 = u64 [s1 + 0x100]\n 15991: ra = 618, jump @11\n      : @578 [@dyn 309] (gas: 13)\n 15997: a2 = s1 + 0x7ff\n 16001: a2 = a2 + 0x99\n 16005: a3 = a2 + 0x200\n 16009: a0 = u64 [a3 + 0xd0]\n 16013: a1 = u64 [a3 + 0xd8]\n 16017: a2 = u64 [a3 + 0xc8]\n 16021: a0 = a0 & 0xffffffffffffffff\n 16024: a1 = a1 & 0xffffffffffffffff\n 16027: a4 = u64 [s1 + 0xb0]\n 16031: a2 = a2 & a4\n 16034: a1 = a1 | a2\n 16037: a0 = a0 | a1\n 16040: jump @575 if a0 == 0\n      : @579 (gas: 5)\n 16043: a0 = u64 [s1 + 0xc8]\n 16047: ra = 0x26c\n 16051: ecalli 4 // 'caller'\n 16053: t0 = 0x26e\n 16057: jump @1309\n      : @580 [@dyn 310] (gas: 1)\n 16060: t0 = 622, jump @1309\n      : @581 [@dyn 311] (gas: 9)\n 16066: u64 [a2 + 704] = 0\n 16070: a4 = a2 + 0x200\n 16074: u64 [a4 + 0xb8] = a1\n 16078: u64 [a4 + 0xb0] = a0\n 16082: a1 = s1 + 0x7ff\n 16086: a1 = a1 + 0x341\n 16090: u64 [a4 + 0xa8] = a3\n 16094: a0 = 0\n 16096: ra = 624, jump @9\n      : @582 [@dyn 312] (gas: 11)\n 16102: a0 = s1 + 0x7ff\n 16106: a0 = a0 + 0x99\n 16110: u64 [a0 + 672] = 0\n 16114: u64 [a0 + 664] = 0\n 16118: u64 [a0 + 656] = 0\n 16122: a3 = a0\n 16124: a0 = 0x20\n 16127: a1 = s1 + 0x7ff\n 16131: a1 = a1 + 0x321\n 16135: u64 [a3 + 648] = 0x3\n 16140: ra = 626, jump @9\n      : @583 [@dyn 313] (gas: 3)\n 16146: a1 = u64 [s1 + 0x108]\n 16150: a0 = i32 [a1]\n 16152: jump @585 if a0 >u 63\n      : @584 (gas: 2)\n 16156: u32 [a1 + 0] = 0x40\n 16159: fallthrough\n      : @585 (gas: 4)\n 16160: a0 = sp + 0xffffffffffffffe0\n 16163: a0 = a0 & 0xffffffffffffffe0\n 16166: u64 [s1 + 0x100] = a0\n 16170: t0 = 628, jump @1310\n      : @586 [@dyn 314] (gas: 5)\n 16176: ra = 0x276\n 16180: ecalli 8 // 'hash_keccak_256'\n 16182: a3 = u64 [s1 + 0x100]\n 16186: t0 = 0x278\n 16190: jump @1365\n      : @587 [@dyn 315] (gas: 2)\n 16193: a3 = u64 [s1 + 0x100]\n 16197: t0 = 632, jump @1365\n      : @588 [@dyn 316] (gas: 18)\n 16203: u64 [s1 + 0x100] = a0\n 16207: a0 = reverse a1\n 16209: u64 [s1 + 0xf0] = a0\n 16213: a0 = reverse a2\n 16215: u64 [s1 + 0xe8] = a0\n 16219: a0 = reverse a3\n 16221: u64 [s1 + 0xe0] = a0\n 16225: a2 = s1 + 0x7ff\n 16229: a2 = a2 + 0x99\n 16233: u64 [a2 + 640] = 0\n 16237: u64 [a2 + 632] = 0\n 16241: u64 [a2 + 624] = 0\n 16245: a1 = s1 + 0x7ff\n 16249: a1 = a1 + 0x301\n 16253: a0 = u64 [s1 + 0xa0]\n 16257: u64 [a2 + 0x268] = a0\n 16261: a0 = 0\n 16263: ra = 634, jump @9\n      : @589 [@dyn 317] (gas: 16)\n 16269: a0 = u64 [s1 + 0xe0]\n 16273: a1 = s1 + 0x7ff\n 16277: a1 = a1 + 0x99\n 16281: a2 = a1 + 0x200\n 16285: u64 [a2 + 0x60] = a0\n 16288: a0 = u64 [s1 + 0xe8]\n 16292: u64 [a2 + 0x58] = a0\n 16295: a0 = u64 [s1 + 0xf0]\n 16299: u64 [a2 + 0x50] = a0\n 16302: a3 = a1\n 16304: a0 = 0x20\n 16307: a1 = s1 + 0x7ff\n 16311: a1 = a1 + 0x2e1\n 16315: a2 = u64 [s1 + 0x100]\n 16319: u64 [a3 + 0x248] = a2\n 16323: ra = 636, jump @9\n      : @590 [@dyn 318] (gas: 3)\n 16329: a1 = u64 [s1 + 0x108]\n 16333: a0 = i32 [a1]\n 16335: jump @592 if a0 >u 63\n      : @591 (gas: 2)\n 16339: u32 [a1 + 0] = 0x40\n 16342: fallthrough\n      : @592 (gas: 4)\n 16343: a0 = sp + 0xffffffffffffffe0\n 16346: a0 = a0 & 0xffffffffffffffe0\n 16349: u64 [s1 + 0x100] = a0\n 16353: t0 = 638, jump @1310\n      : @593 [@dyn 319] (gas: 4)\n 16359: ra = 0x280\n 16363: ecalli 8 // 'hash_keccak_256'\n 16365: t0 = 0x282\n 16369: jump @1319\n      : @594 [@dyn 320] (gas: 1)\n 16372: t0 = 642, jump @1319\n      : @595 [@dyn 321] (gas: 10)\n 16378: a3 = a2 + 0x200\n 16382: u64 [a3 + 0x40] = a0\n 16385: u64 [a3 + 0x38] = a0\n 16388: u64 [a3 + 0x30] = a0\n 16391: a1 = s1 + 0x7ff\n 16395: a1 = a1 + 0x2c1\n 16399: a0 = u64 [s1 + 0x118]\n 16403: u64 [a3 + 0x28] = a0\n 16406: a0 = 0\n 16408: ra = 644, jump @9\n      : @596 [@dyn 322] (gas: 5)\n 16414: a0 = u64 [s1 + 0xd8]\n 16418: a1 = s1 + 0x7ff\n 16422: a1 = a1 + 0x99\n 16426: a2 = a1 + 0x200\n 16430: t0 = 646, jump @1342\n      : @597 [@dyn 323] (gas: 4)\n 16436: a1 = a1 + 0x2a1\n 16440: a2 = u64 [s1 + 0xf0]\n 16444: u64 [a3 + 0x208] = a2\n 16448: ra = 648, jump @9\n      : @598 [@dyn 324] (gas: 3)\n 16454: a1 = u64 [s1 + 0x108]\n 16458: a0 = i32 [a1]\n 16460: jump @600 if a0 >u 63\n      : @599 (gas: 2)\n 16464: u32 [a1 + 0] = 0x40\n 16467: fallthrough\n      : @600 (gas: 4)\n 16468: a0 = sp + 0xffffffffffffffe0\n 16471: a0 = a0 & 0xffffffffffffffe0\n 16474: u64 [s1 + 0xf8] = a0\n 16478: t0 = 650, jump @1310\n      : @601 [@dyn 325] (gas: 5)\n 16484: ra = 0x28c\n 16488: ecalli 8 // 'hash_keccak_256'\n 16490: a3 = u64 [s1 + 0xf8]\n 16494: t0 = 0x28e\n 16498: jump @1334\n      : @602 [@dyn 326] (gas: 2)\n 16501: a3 = u64 [s1 + 0xf8]\n 16505: t0 = 654, jump @1334\n      : @603 [@dyn 327] (gas: 3)\n 16511: a0 = s1 + 0x7ff\n 16515: a0 = a0 + 0x281\n 16519: ra = 656, jump @11\n      : @604 [@dyn 328] (gas: 5)\n 16525: a0 = s1 + 0x7ff\n 16529: a0 = a0 + 0x99\n 16533: a0 = u64 [a0 + 0x1e8]\n 16537: a0 = a0 & 0x1\n 16540: jump @575 if a0 != 0\n      : @605 (gas: 4)\n 16544: a0 = s1 + 0x7ff\n 16548: a0 = a0 + 0x261\n 16552: a1 = u64 [s1 + 0xa8]\n 16556: ra = 658, jump @11\n      : @606 [@dyn 329] (gas: 17)\n 16562: a3 = s1 + 0x7ff\n 16566: a3 = a3 + 0x99\n 16570: a4 = a3 + 0x100\n 16574: a0 = u64 [a4 + 0xe0]\n 16578: a1 = u64 [a4 + 0xd8]\n 16582: a2 = u64 [a4 + 0xd0]\n 16586: t0 = u64 [a3 + 0x1c8]\n 16590: a4 = u64 [0x200a8]\n 16595: a5 = a0 >u 0\n 16597: a3 = a1 >u 0\n 16599: a3 = a5 if a0 != 0\n 16602: a4 = a4 <u t0\n 16605: a5 = a2 >u 0\n 16607: a5 = a4 if a2 == 0\n 16610: a4 = a1 | a0\n 16613: a5 = a3 if a4 != 0\n 16616: jump @608 if a5 != 0\n      : @607 (gas: 6)\n 16619: a0 = u64 [s1 + 0x90]\n 16623: a0 = a0 + 0x1\n 16626: a1 = u64 [s1 + 0xc0]\n 16630: a0 = a0 & a1\n 16633: u64 [s1 + 0x90] = a0\n 16637: jump @576\n      : @608 (gas: 23)\n 16640: a3 = u64 [0x200b0]\n 16645: a3 = a3 + t0\n 16648: a4 = a3 <u t0\n 16651: a5 = a2 + a4\n 16654: a5 = a5 + 0xffffffffffffffff\n 16657: t0 = a5 ^ a2\n 16660: a2 = a5 <u a2\n 16663: a2 = a4 if t0 == 0\n 16666: a4 = a1 + 0xffffffffffffffff\n 16669: a2 = a2 + a4\n 16672: a4 = a2 <u a4\n 16675: a1 = a1 <u 0x1\n 16678: a0 = a0 - a1\n 16681: a0 = a0 + a4\n 16684: a1 = s1 + 0x2098\n 16688: a4 = a1 + 0x400\n 16692: u64 [a4 + 0x88] = a3\n 16696: u64 [a4 + 0x90] = a5\n 16700: u64 [a4 + 0x98] = a2\n 16704: u64 [a4 + 0xa0] = a0\n 16708: a1 = s1 + 0x2520\n 16712: a0 = u64 [s1 + 0xa8]\n 16716: ra = 660, jump @12\n      : @609 [@dyn 330] (gas: 15)\n 16722: a0 = sp + 0xffffffffffffffe0\n 16725: a1 = a0 & 0xffffffffffffffe0\n 16728: u64 [s1 + 0xf8] = a1\n 16732: sp = a1\n 16734: a0 = u64 [s1 + 0x70]\n 16737: u64 [a1 + 0x18] = a0\n 16740: a0 = u64 [s1 + 0x78]\n 16743: u64 [a1 + 0x10] = a0\n 16746: a0 = u64 [s1 + 0x80]\n 16750: u64 [a1 + 0x8] = a0\n 16753: a0 = u64 [s1 + 0x88]\n 16757: u64 [a1] = a0\n 16759: a0 = s1 + 0x7ff\n 16763: a0 = a0 + 0x241\n 16767: ra = 662, jump @11\n      : @610 [@dyn 331] (gas: 30)\n 16773: a0 = s1 + 0x7ff\n 16777: a0 = a0 + 0x99\n 16781: a0 = u64 [a0 + 0x1a8]\n 16785: a1 = u64 [0x200a0]\n 16790: a2 = s1 + 0x7ff\n 16794: a2 = a2 + 0x99\n 16798: a2 = u64 [a2 + 0x1c0]\n 16802: a3 = s1 + 0x7ff\n 16806: a3 = a3 + 0x99\n 16810: a3 = u64 [a3 + 0x1b0]\n 16814: a4 = s1 + 0x7ff\n 16818: a4 = a4 + 0x99\n 16822: a4 = u64 [a4 + 0x1b8]\n 16826: a1 = a1 + a0\n 16829: a0 = a1 <u a0\n 16832: a5 = a3 + a0\n 16835: a3 = a5 <u a3\n 16838: a3 = a0 if a0 == 0\n 16841: a3 = a3 + a4\n 16844: a0 = a3 <u a4\n 16847: a0 = a0 + a2\n 16850: a2 = s1 + 0x2098\n 16854: a4 = a2 + 0x400\n 16858: u64 [a4 + 0xa8] = a1\n 16862: u64 [a4 + 0xb0] = a5\n 16866: u64 [a4 + 0xb8] = a3\n 16870: u64 [a4 + 0xc0] = a0\n 16874: a1 = s1 + 0x2540\n 16878: a0 = u64 [s1 + 0xf8]\n 16882: ra = 664, jump @12\n      : @611 [@dyn 332] (gas: 9)\n 16888: a0 = u64 [s1 + 0x98]\n 16892: a0 = a0 + 0x1\n 16895: a1 = u64 [s1 + 0xc0]\n 16899: a0 = a0 & a1\n 16902: u64 [s1 + 0x98] = a0\n 16906: a0 = s1 + 0x7ff\n 16910: a0 = a0 + 0x221\n 16914: a1 = u64 [s1 + 0x100]\n 16918: ra = 666, jump @11\n      : @612 [@dyn 333] (gas: 9)\n 16924: a0 = s1 + 0x7ff\n 16928: a0 = a0 + 0x99\n 16932: a0 = u64 [a0 + 0x188]\n 16936: a0 = a0 & 0xfe\n 16940: u64 [s1 + 0xf8] = a0\n 16944: a0 = s1 + 0x7ff\n 16948: a0 = a0 + 0x201\n 16952: a1 = u64 [s1 + 0x100]\n 16956: ra = 668, jump @11\n      : @613 [@dyn 334] (gas: 25)\n 16962: a0 = s1 + 0x7ff\n 16966: a0 = a0 + 0x99\n 16970: a0 = u64 [a0 + 0x168]\n 16974: a1 = s1 + 0x7ff\n 16978: a1 = a1 + 0x99\n 16982: a1 = u64 [a1 + 0x170]\n 16986: a2 = s1 + 0x7ff\n 16990: a2 = a2 + 0x99\n 16994: a2 = u64 [a2 + 0x178]\n 16998: a3 = s1 + 0x7ff\n 17002: a3 = a3 + 0x99\n 17006: a3 = u64 [a3 + 0x180]\n 17010: a0 = a0 & 0xffffffffffffff00\n 17014: a4 = u64 [s1 + 0xf8]\n 17018: a0 = a0 | a4\n 17021: a0 = a0 + 0x1\n 17024: a4 = s1 + 0x2098\n 17028: a5 = a4 + 0x400\n 17032: u64 [a5 + 0xe0] = a3\n 17036: u64 [a5 + 0xd8] = a2\n 17040: u64 [a5 + 0xd0] = a1\n 17044: u64 [a5 + 0xc8] = a0\n 17048: a1 = s1 + 0x2560\n 17052: a0 = u64 [s1 + 0x100]\n 17056: ra = 670, jump @12\n      : @614 [@dyn 335] (gas: 1)\n 17062: jump @575\n      : @615 (gas: 4)\n 17065: a0 = s1 + 0x7ff\n 17069: a0 = a0 + 0x1e1\n 17073: a1 = 0x40\n 17076: ra = 672, jump @7\n      : @616 [@dyn 336] (gas: 15)\n 17082: a2 = s1 + 0x7ff\n 17086: a2 = a2 + 0x99\n 17090: t0 = u64 [a2 + 0x160]\n 17094: a0 = a2 + 0x100\n 17098: a5 = u64 [a0 + 0x58]\n 17101: a4 = u64 [a0 + 0x50]\n 17104: a3 = u64 [a0 + 0x48]\n 17107: a0 = a4 | t0\n 17110: a1 = a3 | a5\n 17113: a1 = a1 | a0\n 17116: a1 = a1 >> 0x20\n 17119: a0 = a0 | a5\n 17122: a0 = a0 << 0x20\n 17125: a0 = a0 | a1\n 17128: jump @619 if a0 != 0\n      : @617 (gas: 15)\n 17131: a0 = u64 [s1 + 0x98]\n 17135: a1 = u64 [s1 + 0xc0]\n 17139: a0 = a0 & a1\n 17142: u64 [a2 + 320] = 0\n 17146: u64 [a2 + 312] = 0\n 17150: u64 [a2 + 304] = 0\n 17154: a1 = s1 + 0x7ff\n 17158: a1 = a1 + 0x1c1\n 17162: u64 [a2 + 0x128] = a0\n 17166: a0 = a3\n 17168: u64 [s1 + 0x118] = a3\n 17172: u64 [s1 + 0x108] = a4\n 17176: u64 [s1 + 0xf8] = t0\n 17180: u64 [s1 + 0x100] = a5\n 17184: ra = 674, jump @9\n      : @618 [@dyn 337] (gas: 11)\n 17190: a4 = s1 + 0x100\n 17194: a2 = u64 [a4 + 0x18]\n 17197: a0 = u64 [a4]\n 17199: a1 = u64 [s1 + 0xf8]\n 17203: a0 = a0 | a1\n 17206: a1 = 0xffffffe0\n 17216: a1 = a2 <u a1\n 17219: a3 = u64 [a4 + 0x8]\n 17222: a1 = 0 if a3 != 0\n 17224: a1 = 0 if a0 != 0\n 17226: jump @704 if a1 != 0\n      : @619 (gas: 1)\n 17230: trap\n      : @620 (gas: 6)\n 17231: a1 = 0x20180\n 17236: i32 a1 = a1 + 0\n 17238: a0 = 0x1\n 17241: a2 = 0\n 17243: ecalli 13 // 'seal_return'\n 17245: jump @874\n      : @621 (gas: 6)\n 17248: a1 = 0x20180\n 17253: i32 a1 = a1 + 0\n 17255: a0 = 0x1\n 17258: a2 = 0\n 17260: ecalli 13 // 'seal_return'\n 17262: jump @874\n      : @622 (gas: 6)\n 17265: a1 = 0x20180\n 17270: i32 a1 = a1 + 0\n 17272: a0 = 0x1\n 17275: a2 = 0\n 17277: ecalli 13 // 'seal_return'\n 17279: jump @874\n      : @623 (gas: 6)\n 17282: a1 = 0x20180\n 17287: i32 a1 = a1 + 0\n 17289: a0 = 0x1\n 17292: a2 = 0\n 17294: ecalli 13 // 'seal_return'\n 17296: jump @874\n      : @624 (gas: 3)\n 17299: t0 = 0x2a4\n 17303: a2 = s1 + 0x1098\n 17307: fallthrough\n      : @625 [@dyn 338] (gas: 8)\n 17308: u64 [a2 + 344] = 0\n 17312: u64 [a2 + 336] = 0\n 17316: a0 = 0x2c5211c600000000\n 17326: u64 [a2 + 0x160] = a0\n 17330: a1 = s1 + 0x11e0\n 17334: u64 [a2 + 328] = 0\n 17338: a0 = 0\n 17340: ra = 678, jump @9\n      : @626 [@dyn 339] (gas: 2)\n 17346: a1 = i32 [0x20170]\n 17351: jump @628 if a1 >u 31\n      : @627 (gas: 3)\n 17355: u32 [0x20170] = 0x20\n 17361: a1 = 0x20180\n 17366: jump @697\n      : @628 (gas: 2)\n 17369: a1 = 0x20180\n 17374: jump @697\n      : @629 (gas: 3)\n 17377: t0 = 0x2a8\n 17381: a2 = s1 + 0x1098\n 17385: fallthrough\n      : @630 [@dyn 340] (gas: 8)\n 17386: u64 [a2 + 376] = 0\n 17390: u64 [a2 + 368] = 0\n 17394: a0 = 0xf4d678b800000000\n 17404: u64 [a2 + 0x180] = a0\n 17408: a1 = s1 + 0x1200\n 17412: u64 [a2 + 360] = 0\n 17416: a0 = 0\n 17418: ra = 682, jump @9\n      : @631 [@dyn 341] (gas: 3)\n 17424: a0 = u64 [s1 + 0xb8]\n 17428: a0 = i32 [a0]\n 17430: jump @677 if a0 >u 31\n      : @632 (gas: 3)\n 17435: a1 = u64 [s1 + 0xb8]\n 17439: u32 [a1 + 0] = 0x20\n 17442: jump @677\n      : @633 (gas: 6)\n 17445: a1 = 0x20180\n 17450: i32 a1 = a1 + 0\n 17452: a0 = 0x1\n 17455: a2 = 0\n 17457: ecalli 13 // 'seal_return'\n 17459: jump @874\n      : @634 (gas: 6)\n 17462: a1 = 0x20180\n 17467: i32 a1 = a1 + 0\n 17469: a0 = 0x1\n 17472: a2 = 0\n 17474: ecalli 13 // 'seal_return'\n 17476: jump @874\n      : @635 (gas: 6)\n 17479: a1 = 0x20180\n 17484: i32 a1 = a1 + 0\n 17486: a0 = 0x1\n 17489: a2 = 0\n 17491: ecalli 13 // 'seal_return'\n 17493: jump @874\n      : @636 (gas: 6)\n 17496: a1 = 0x20180\n 17501: i32 a1 = a1 + 0\n 17503: a0 = 0x1\n 17506: a2 = 0\n 17508: ecalli 13 // 'seal_return'\n 17510: jump @874\n      : @637 (gas: 8)\n 17513: u64 [s1 + 912] = 0\n 17517: u64 [s1 + 904] = 0\n 17521: u64 [s1 + 896] = 0\n 17525: a0 = 0x2c5211c600000000\n 17535: a1 = s1 + 0x380\n 17539: u64 [s1 + 0x398] = a0\n 17543: a0 = 0\n 17545: ra = 684, jump @9\n      : @638 [@dyn 342] (gas: 2)\n 17551: a1 = i32 [0x20170]\n 17556: jump @640 if a1 >u 31\n      : @639 (gas: 3)\n 17560: u32 [0x20170] = 0x20\n 17566: a1 = 0x20180\n 17571: jump @697\n      : @640 (gas: 2)\n 17574: a1 = 0x20180\n 17579: jump @697\n      : @641 (gas: 9)\n 17582: u64 [s1 + 944] = 0\n 17586: u64 [s1 + 936] = 0\n 17590: u64 [s1 + 928] = 0\n 17594: a0 = 0xf4d678b800000000\n 17604: a1 = s1 + 0x3a0\n 17608: u64 [s1 + 0x3b8] = a0\n 17612: a0 = 0\n 17614: ra = 0x2c6\n 17618: jump @9\n      : @642 (gas: 6)\n 17621: a1 = 0x20180\n 17626: i32 a1 = a1 + 0\n 17628: a0 = 0x1\n 17631: a2 = 0\n 17633: ecalli 13 // 'seal_return'\n 17635: jump @874\n      : @643 (gas: 6)\n 17638: a1 = 0x20180\n 17643: i32 a1 = a1 + 0\n 17645: a0 = 0x1\n 17648: a2 = 0\n 17650: ecalli 13 // 'seal_return'\n 17652: jump @874\n      : @644 (gas: 3)\n 17655: t0 = 0x2ae\n 17659: a2 = s1 + 0x1898\n 17663: fallthrough\n      : @645 [@dyn 343] (gas: 8)\n 17664: u64 [a2 + 1144] = 0\n 17668: u64 [a2 + 1136] = 0\n 17672: a0 = 0xcc67c13b00000000\n 17682: u64 [a2 + 0x480] = a0\n 17686: a1 = s1 + 0x1d00\n 17690: u64 [a2 + 1128] = 0\n 17694: a0 = 0\n 17696: ra = 688, jump @9\n      : @646 [@dyn 344] (gas: 2)\n 17702: a1 = i32 [0x20170]\n 17707: jump @648 if a1 >u 31\n      : @647 (gas: 3)\n 17711: u32 [0x20170] = 0x20\n 17717: a1 = 0x20180\n 17722: jump @697\n      : @648 (gas: 2)\n 17725: a1 = 0x20180\n 17730: jump @697\n      : @649 (gas: 5)\n 17733: a0 = s1 + 0x1898\n 17737: u64 [a0 + 1208] = 0\n 17741: u64 [a0 + 1200] = 0\n 17745: u64 [a0 + 1192] = 0\n 17749: t0 = 690, jump @1374\n      : @650 [@dyn 345] (gas: 5)\n 17755: i32 a1 = a1 + 0xfffffffffffffd40\n 17759: a1 = a1 + s1\n 17762: u64 [a2 + 0x4c0] = a0\n 17766: a0 = 0\n 17768: ra = 692, jump @9\n      : @651 [@dyn 346] (gas: 3)\n 17774: t0 = 0x2b6\n 17778: a1 = s1 + 0x1898\n 17782: fallthrough\n      : @652 [@dyn 347] (gas: 9)\n 17783: u64 [a1 + 1184] = 0\n 17787: u64 [a1 + 1176] = 0\n 17791: u64 [a1 + 1160] = 0x11\n 17796: a2 = a1\n 17798: a0 = 0x4\n 17801: a1 = s1 + 0x1d20\n 17805: u64 [a2 + 1168] = 0\n 17809: ra = 0x2ce\n 17813: jump @9\n      : @653 (gas: 6)\n 17816: a1 = 0x20180\n 17821: i32 a1 = a1 + 0\n 17823: a0 = 0x1\n 17826: a2 = 0\n 17828: ecalli 13 // 'seal_return'\n 17830: jump @874\n      : @654 (gas: 3)\n 17833: t0 = 0x2b8\n 17837: a2 = s1 + 0x1898\n 17841: fallthrough\n      : @655 [@dyn 348] (gas: 8)\n 17842: u64 [a2 + 824] = 0\n 17846: u64 [a2 + 816] = 0\n 17850: a0 = 0x2c5211c600000000\n 17860: u64 [a2 + 0x340] = a0\n 17864: a1 = s1 + 0x1bc0\n 17868: u64 [a2 + 808] = 0\n 17872: a0 = 0\n 17874: ra = 698, jump @9\n      : @656 [@dyn 349] (gas: 2)\n 17880: a1 = i32 [0x20170]\n 17885: jump @658 if a1 >u 31\n      : @657 (gas: 3)\n 17889: u32 [0x20170] = 0x20\n 17895: a1 = 0x20180\n 17900: jump @697\n      : @658 (gas: 2)\n 17903: a1 = 0x20180\n 17908: jump @697\n      : @659 (gas: 5)\n 17911: a0 = s1 + 0x1898\n 17915: u64 [a0 + 888] = 0\n 17919: u64 [a0 + 880] = 0\n 17923: u64 [a0 + 872] = 0\n 17927: t0 = 700, jump @1374\n      : @660 [@dyn 350] (gas: 5)\n 17933: i32 a1 = a1 + 0xfffffffffffffc00\n 17937: a1 = a1 + s1\n 17940: u64 [a2 + 0x380] = a0\n 17944: a0 = 0\n 17946: ra = 702, jump @9\n      : @661 [@dyn 351] (gas: 3)\n 17952: t0 = 0x2c0\n 17956: a1 = s1 + 0x1898\n 17960: fallthrough\n      : @662 [@dyn 352] (gas: 8)\n 17961: u64 [a1 + 864] = 0\n 17965: u64 [a1 + 856] = 0\n 17969: u64 [a1 + 840] = 0x11\n 17974: a2 = a1\n 17976: a0 = 0x4\n 17979: a1 = s1 + 0x1be0\n 17983: u64 [a2 + 848] = 0\n 17987: ra = 706, jump @9\n      : @663 [@dyn 353] (gas: 3)\n 17993: a0 = u64 [s1 + 0xd0]\n 17997: a0 = i32 [a0]\n 17999: jump @665 if a0 >u 63\n      : @664 (gas: 3)\n 18003: a1 = u64 [s1 + 0xd0]\n 18007: u32 [a1 + 0] = 0x40\n 18010: fallthrough\n      : @665 (gas: 5)\n 18011: a0 = 0x1\n 18014: a2 = 0x24\n 18017: a1 = u64 [s1 + 0xe0]\n 18021: ecalli 13 // 'seal_return'\n 18023: fallthrough\n      : @666 (gas: 6)\n 18024: a1 = 0x20180\n 18029: i32 a1 = a1 + 0\n 18031: a0 = 0x1\n 18034: a2 = 0\n 18036: ecalli 13 // 'seal_return'\n 18038: jump @874\n      : @667 (gas: 6)\n 18041: a1 = 0x20180\n 18046: i32 a1 = a1 + 0\n 18048: a0 = 0x1\n 18051: a2 = 0\n 18053: ecalli 13 // 'seal_return'\n 18055: jump @874\n      : @668 (gas: 6)\n 18058: a1 = 0x20180\n 18063: i32 a1 = a1 + 0\n 18065: a0 = 0x1\n 18068: a2 = 0\n 18070: ecalli 13 // 'seal_return'\n 18072: jump @874\n      : @669 (gas: 6)\n 18075: a1 = 0x20180\n 18080: i32 a1 = a1 + 0\n 18082: a0 = 0x1\n 18085: a2 = 0\n 18087: ecalli 13 // 'seal_return'\n 18089: jump @874\n      : @670 (gas: 8)\n 18092: u64 [s1 + 1264] = 0\n 18096: u64 [s1 + 1256] = 0\n 18100: u64 [s1 + 1248] = 0\n 18104: a0 = 0x2c5211c600000000\n 18114: a1 = s1 + 0x4e0\n 18118: u64 [s1 + 0x4f8] = a0\n 18122: a0 = 0\n 18124: ra = 708, jump @9\n      : @671 [@dyn 354] (gas: 2)\n 18130: a1 = i32 [0x20170]\n 18135: jump @673 if a1 >u 31\n      : @672 (gas: 3)\n 18139: u32 [0x20170] = 0x20\n 18145: a1 = 0x20180\n 18150: jump @697\n      : @673 (gas: 2)\n 18153: a1 = 0x20180\n 18158: jump @697\n      : @674 (gas: 8)\n 18161: u64 [s1 + 1296] = 0\n 18165: u64 [s1 + 1288] = 0\n 18169: u64 [s1 + 1280] = 0\n 18173: a0 = 0xf4d678b800000000\n 18183: a1 = s1 + 0x500\n 18187: u64 [s1 + 0x518] = a0\n 18191: a0 = 0\n 18193: ra = 710, jump @9\n      : @675 [@dyn 355] (gas: 3)\n 18199: a0 = u64 [s1 + 0xc0]\n 18203: a0 = i32 [a0]\n 18205: jump @677 if a0 >u 31\n      : @676 (gas: 3)\n 18209: a1 = u64 [s1 + 0xc0]\n 18213: u32 [a1 + 0] = 0x20\n 18216: fallthrough\n      : @677 (gas: 5)\n 18217: a0 = 0x1\n 18220: a2 = 0x4\n 18223: a1 = u64 [s1 + 0xc8]\n 18227: ecalli 13 // 'seal_return'\n 18229: fallthrough\n      : @678 (gas: 6)\n 18230: a1 = 0x20180\n 18235: i32 a1 = a1 + 0\n 18237: a0 = 0x1\n 18240: a2 = 0\n 18242: ecalli 13 // 'seal_return'\n 18244: jump @874\n      : @679 (gas: 6)\n 18247: a1 = 0x20180\n 18252: i32 a1 = a1 + 0\n 18254: a0 = 0x1\n 18257: a2 = 0\n 18259: ecalli 13 // 'seal_return'\n 18261: jump @874\n      : @680 (gas: 6)\n 18264: a1 = 0x20180\n 18269: i32 a1 = a1 + 0\n 18271: a0 = 0x1\n 18274: a2 = 0\n 18276: ecalli 13 // 'seal_return'\n 18278: jump @874\n      : @681 (gas: 6)\n 18281: a1 = 0x20180\n 18286: i32 a1 = a1 + 0\n 18288: a0 = 0x1\n 18291: a2 = 0\n 18293: ecalli 13 // 'seal_return'\n 18295: jump @874\n      : @682 (gas: 6)\n 18298: a1 = 0x20180\n 18303: i32 a1 = a1 + 0\n 18305: a0 = 0x1\n 18308: a2 = 0\n 18310: ecalli 13 // 'seal_return'\n 18312: jump @874\n      : @683 (gas: 6)\n 18315: a1 = 0x20180\n 18320: i32 a1 = a1 + 0\n 18322: a0 = 0x1\n 18325: a2 = 0\n 18327: ecalli 13 // 'seal_return'\n 18329: jump @874\n      : @684 (gas: 6)\n 18332: a1 = 0x20180\n 18337: i32 a1 = a1 + 0\n 18339: a0 = 0x1\n 18342: a2 = 0\n 18344: ecalli 13 // 'seal_return'\n 18346: jump @874\n      : @685 (gas: 6)\n 18349: a1 = 0x20180\n 18354: i32 a1 = a1 + 0\n 18356: a0 = 0x1\n 18359: a2 = 0\n 18361: ecalli 13 // 'seal_return'\n 18363: jump @874\n      : @686 (gas: 5)\n 18366: a0 = s1 + 0x1898\n 18370: u64 [a0 + 1272] = 0\n 18374: u64 [a0 + 1264] = 0\n 18378: u64 [a0 + 1256] = 0\n 18382: t0 = 712, jump @1374\n      : @687 [@dyn 356] (gas: 5)\n 18388: i32 a1 = a1 + 0xfffffffffffffd80\n 18392: a1 = a1 + s1\n 18395: u64 [a2 + 0x500] = a0\n 18399: a0 = 0\n 18401: ra = 714, jump @9\n      : @688 [@dyn 357] (gas: 3)\n 18407: t0 = 0x2cc\n 18411: a1 = s1 + 0x1898\n 18415: fallthrough\n      : @689 [@dyn 358] (gas: 8)\n 18416: u64 [a1 + 1248] = 0\n 18420: u64 [a1 + 1240] = 0\n 18424: u64 [a1 + 1224] = 0x41\n 18429: a2 = a1\n 18431: a0 = 0x4\n 18434: a1 = s1 + 0x1d60\n 18438: u64 [a2 + 1232] = 0\n 18442: ra = 718, jump @9\n      : @690 [@dyn 359] (gas: 3)\n 18448: a0 = u64 [s1 + 0x48]\n 18451: a0 = i32 [a0]\n 18453: jump @692 if a0 >u 63\n      : @691 (gas: 3)\n 18457: a1 = u64 [s1 + 0x48]\n 18460: u32 [a1 + 0] = 0x40\n 18463: fallthrough\n      : @692 (gas: 5)\n 18464: a0 = 0x1\n 18467: a2 = 0x24\n 18470: a1 = u64 [s1 + 0x50]\n 18473: ecalli 13 // 'seal_return'\n 18475: fallthrough\n      : @693 (gas: 11)\n 18476: a2 = s1 + 0x7ff\n 18480: a2 = a2 + 0x99\n 18484: u64 [a2 + 1080] = 0\n 18488: u64 [a2 + 1072] = 0\n 18492: a0 = 0xd5b25b6300000000\n 18502: u64 [a2 + 0x440] = a0\n 18506: a1 = s1 + 0x7ff\n 18510: a1 = a1 + 0x4c1\n 18514: u64 [a2 + 1064] = 0\n 18518: a0 = 0\n 18520: ra = 720, jump @9\n      : @694 [@dyn 360] (gas: 2)\n 18526: a1 = i32 [0x20170]\n 18531: jump @696 if a1 >u 31\n      : @695 (gas: 3)\n 18535: u32 [0x20170] = 0x20\n 18541: a1 = 0x20180\n 18546: jump @697\n      : @696 (gas: 2)\n 18548: a1 = 0x20180\n 18553: fallthrough\n      : @697 (gas: 6)\n 18554: i32 a1 = a1 + 0\n 18556: a0 = 0x1\n 18559: a2 = 0x4\n 18562: ra = 0x2d2\n 18566: ecalli 13 // 'seal_return'\n 18568: fallthrough\n      : @698 [@dyn 361] (gas: 1)\n 18569: jump @708 if a0 != 2618616686\n      : @699 (gas: 9)\n 18577: a0 = s1 + 0x2098\n 18581: u64 [a0 + 1792] = 0\n 18585: u64 [a0 + 1784] = 0\n 18589: u64 [a0 + 1776] = 0\n 18593: u64 [a0 + 1768] = 0\n 18597: a0 = s1 + 0x2000\n 18601: i32 a0 = a0 + 0x780\n 18605: ecalli 16 // 'value_transferred'\n 18607: fallthrough\n      : @700 (gas: 10)\n 18608: a3 = s1 + 0x2098\n 18612: a4 = a3 + 0x600\n 18616: a0 = u64 [a4 + 0xf8]\n 18620: a1 = u64 [a3 + 0x700]\n 18624: a2 = u64 [a4 + 0xf0]\n 18628: a3 = u64 [a4 + 0xe8]\n 18632: a1 = a1 | a2\n 18635: a0 = a0 | a3\n 18638: a0 = a0 | a1\n 18641: jump @718 if a0 == 0\n      : @701 (gas: 6)\n 18645: a1 = 0x20180\n 18650: i32 a1 = a1 + 0\n 18652: a0 = 0x1\n 18655: a2 = 0\n 18657: ecalli 13 // 'seal_return'\n 18659: jump @874\n      : @702 (gas: 6)\n 18662: a1 = 0x20180\n 18667: i32 a1 = a1 + 0\n 18669: a0 = 0x1\n 18672: a2 = 0\n 18674: ecalli 13 // 'seal_return'\n 18676: jump @874\n      : @703 (gas: 6)\n 18679: a1 = 0x20180\n 18684: i32 a1 = a1 + 0\n 18686: a0 = 0x1\n 18689: a2 = 0\n 18691: ecalli 13 // 'seal_return'\n 18693: jump @874\n      : @704 (gas: 13)\n 18696: a0 = u64 [s1 + 0x90]\n 18700: a1 = u64 [s1 + 0xc0]\n 18704: a1 = a1 & a0\n 18707: i32 a0 = a2 + 0x20\n 18710: a3 = s1 + 0x7ff\n 18714: a3 = a3 + 0x99\n 18718: u64 [a3 + 288] = 0\n 18722: u64 [a3 + 280] = 0\n 18726: u64 [a3 + 0x108] = a1\n 18730: a1 = s1 + 0x7ff\n 18734: a1 = a1 + 0x1a1\n 18738: u64 [a3 + 272] = 0\n 18742: ra = 724, jump @9\n      : @705 [@dyn 362] (gas: 6)\n 18748: a0 = u64 [s1 + 0xc8]\n 18752: ra = 0x2d6\n 18756: ecalli 4 // 'caller'\n 18758: a2 = u64 [s1 + 0xd0]\n 18762: t0 = 0x2d8\n 18766: jump @1311\n      : @706 [@dyn 363] (gas: 2)\n 18769: a2 = u64 [s1 + 0xd0]\n 18773: t0 = 728, jump @1311\n      : @707 [@dyn 364] (gas: 36)\n 18779: t0 = a1 | a0\n 18782: a3 = a3 >> 0x20\n 18785: a2 = reverse a2\n 18787: a1 = a2 << 0x20\n 18790: t1 = a1 | a3\n 18793: a2 = a2 >> 0x20\n 18796: a3 = u64 [0x200b8]\n 18801: a4 = u64 [0x200c0]\n 18806: a5 = u64 [0x200c8]\n 18811: a0 = u64 [s1 + 0xa0]\n 18815: a1 = s1 + 0x7ff\n 18819: a1 = a1 + 0x99\n 18823: u64 [a1 + 0xa8] = a0\n 18827: u64 [a1 + 0x100] = a3\n 18831: u64 [a1 + 0xf8] = a4\n 18835: u64 [a1 + 0xf0] = a5\n 18839: a3 = u64 [0x200d0]\n 18844: u64 [a1 + 192] = 0\n 18848: u64 [a1 + 184] = 0\n 18852: u64 [a1 + 176] = 0\n 18856: u64 [a1 + 0xe8] = a3\n 18860: u64 [a1 + 0xd8] = a2\n 18864: u64 [a1 + 0xd0] = t1\n 18868: u64 [a1 + 0xc8] = t0\n 18872: a0 = a1\n 18874: a1 = 0x40\n 18877: a2 = s1 + 0x7ff\n 18881: a2 = a2 + 0x181\n 18885: a3 = s1 + 0x7ff\n 18889: a3 = a3 + 0x161\n 18893: a4 = s1 + 0x7ff\n 18897: a4 = a4 + 0x141\n 18901: u64 [a0 + 224] = 0\n 18905: a0 = u64 [s1 + 0x118]\n 18909: ra = 0x3dc\n 18913: jump @15\n      : @708 (gas: 1)\n 18916: jump @720 if a0 != 2685688103\n      : @709 (gas: 9)\n 18924: a0 = s1 + 0x2098\n 18928: u64 [a0 + 1824] = 0\n 18932: u64 [a0 + 1816] = 0\n 18936: u64 [a0 + 1808] = 0\n 18940: u64 [a0 + 1800] = 0\n 18944: a0 = s1 + 0x2000\n 18948: i32 a0 = a0 + 0x7a0\n 18952: ecalli 16 // 'value_transferred'\n 18954: fallthrough\n      : @710 (gas: 10)\n 18955: a3 = s1 + 0x2098\n 18959: a4 = a3 + 0x700\n 18963: a0 = u64 [a4 + 0x18]\n 18966: a1 = u64 [a4 + 0x20]\n 18969: a2 = u64 [a4 + 0x10]\n 18972: a3 = u64 [a4 + 0x8]\n 18975: a1 = a1 | a2\n 18978: a0 = a0 | a3\n 18981: a0 = a0 | a1\n 18984: jump @724 if a0 == 0\n      : @711 (gas: 6)\n 18988: a1 = 0x20180\n 18993: i32 a1 = a1 + 0\n 18995: a0 = 0x1\n 18998: a2 = 0\n 19000: ecalli 13 // 'seal_return'\n 19002: jump @874\n      : @712 (gas: 2)\n 19005: u64 [s1 + 216] = 0\n 19009: fallthrough\n      : @713 (gas: 5)\n 19010: a0 = u64 [s1 + 0xe8]\n 19014: a0 = a0 << 0x1\n 19017: a4 = u64 [s1 + 0xd8]\n 19021: a4 = a4 | a0\n 19024: fallthrough\n      : @714 (gas: 7)\n 19025: u64 [s1 + 856] = 0\n 19029: u64 [s1 + 848] = 0\n 19033: u64 [s1 + 840] = 0\n 19037: a1 = s1 + 0x340\n 19041: u64 [s1 + 0x340] = a4\n 19045: a0 = u64 [s1 + 0x98]\n 19049: ra = 730, jump @9\n      : @715 [@dyn 365] (gas: 3)\n 19055: a1 = 0x20\n 19058: a0 = u64 [s1 + 0x98]\n 19062: ra = 732, jump @21\n      : @716 [@dyn 366] (gas: 5)\n 19068: i32 a1 = a0 + 0\n 19070: a2 = 0x20\n 19073: a0 = 0\n 19075: ecalli 13 // 'seal_return'\n 19077: jump @718\n      : @717 (gas: 4)\n 19079: a2 = 0x20\n 19082: a0 = 0\n 19084: ecalli 13 // 'seal_return'\n 19086: fallthrough\n      : @718 (gas: 3)\n 19087: a0 = u64 [s1 + 0x118]\n 19091: a0 = i32 [a0]\n 19093: jump @726 if a0 >u 99\n      : @719 (gas: 6)\n 19098: a1 = 0x20180\n 19103: i32 a1 = a1 + 0\n 19105: a0 = 0x1\n 19108: a2 = 0\n 19110: ecalli 13 // 'seal_return'\n 19112: jump @874\n      : @720 (gas: 1)\n 19115: jump @731 if a0 != 3058722618\n      : @721 (gas: 10)\n 19123: a0 = s1 + 0x2098\n 19127: u64 [a0 + 1952] = 0\n 19131: u64 [a0 + 1944] = 0\n 19135: u64 [a0 + 1936] = 0\n 19139: u64 [a0 + 1928] = 0\n 19143: a0 = s1 + 0x3000\n 19147: i32 a0 = a0 + 0xfffffffffffff820\n 19151: ra = 0x2de\n 19155: ecalli 16 // 'value_transferred'\n 19157: fallthrough\n      : @722 [@dyn 367] (gas: 10)\n 19158: a3 = s1 + 0x2098\n 19162: a4 = a3 + 0x700\n 19166: a0 = u64 [a4 + 0x98]\n 19170: a1 = u64 [a4 + 0xa0]\n 19174: a2 = u64 [a4 + 0x90]\n 19178: a3 = u64 [a4 + 0x88]\n 19182: a1 = a1 | a2\n 19185: a0 = a0 | a3\n 19188: a0 = a0 | a1\n 19191: jump @736 if a0 == 0\n      : @723 (gas: 6)\n 19195: a1 = 0x20180\n 19200: i32 a1 = a1 + 0\n 19202: a0 = 0x1\n 19205: a2 = 0\n 19207: ecalli 13 // 'seal_return'\n 19209: jump @874\n      : @724 (gas: 3)\n 19212: a0 = u64 [s1 + 0x118]\n 19216: a0 = i32 [a0]\n 19218: jump @739 if a0 >u 67\n      : @725 (gas: 6)\n 19223: a1 = 0x20180\n 19228: i32 a1 = a1 + 0\n 19230: a0 = 0x1\n 19233: a2 = 0\n 19235: ecalli 13 // 'seal_return'\n 19237: jump @874\n      : @726 (gas: 4)\n 19240: a0 = s1 + 0x1580\n 19244: ra = 0x2e0\n 19248: t0 = 0x50a\n 19252: jump @1364\n      : @727 [@dyn 368] (gas: 14)\n 19255: a1 = s1 + 0x1098\n 19259: a2 = a1 + 0x400\n 19263: a0 = u64 [a2 + 0xe8]\n 19267: u64 [s1 + 0x118] = a0\n 19271: a0 = u64 [a2 + 0xf0]\n 19275: u64 [s1 + 0x110] = a0\n 19279: a0 = u64 [a2 + 0xf8]\n 19283: u64 [s1 + 0x108] = a0\n 19287: a0 = u64 [a1 + 0x500]\n 19291: u64 [s1 + 0x100] = a0\n 19295: a0 = s1 + 0x1560\n 19299: ra = 0x2e2\n 19303: t0 = 0x50e\n 19307: jump @1379\n      : @728 [@dyn 369] (gas: 14)\n 19310: a1 = s1 + 0x1098\n 19314: a2 = a1 + 0x400\n 19318: a0 = u64 [a2 + 0xc8]\n 19322: u64 [s1 + 0xf8] = a0\n 19326: a0 = u64 [a2 + 0xd0]\n 19330: u64 [s1 + 0xf0] = a0\n 19334: a0 = u64 [a2 + 0xd8]\n 19338: u64 [s1 + 0xe8] = a0\n 19342: a0 = u64 [a2 + 0xe0]\n 19346: u64 [s1 + 0xe0] = a0\n 19350: a0 = s1 + 0x1540\n 19354: ra = 0x2e4\n 19358: t0 = 0x514\n 19362: jump @1379\n      : @729 [@dyn 370] (gas: 31)\n 19365: a4 = s1 + 0x1098\n 19369: a5 = a4 + 0x400\n 19373: a0 = u64 [a5 + 0xa8]\n 19377: a1 = u64 [a5 + 0xb0]\n 19381: a2 = u64 [a5 + 0xb8]\n 19385: a3 = u64 [a5 + 0xc0]\n 19389: u64 [a5 + 0x60] = a3\n 19392: u64 [a5 + 0x58] = a2\n 19395: u64 [a5 + 0x50] = a1\n 19398: u64 [a5 + 0x48] = a0\n 19401: a0 = u64 [s1 + 0xe0]\n 19405: u64 [a5 + 0x80] = a0\n 19409: a0 = u64 [s1 + 0xe8]\n 19413: u64 [a5 + 0x78] = a0\n 19416: a0 = u64 [s1 + 0xf0]\n 19420: u64 [a5 + 0x70] = a0\n 19423: a0 = u64 [s1 + 0xf8]\n 19427: u64 [a5 + 0x68] = a0\n 19430: a4 = s1 + 0x100\n 19434: a0 = u64 [a4]\n 19436: u64 [a5 + 0xa0] = a0\n 19440: a0 = u64 [a4 + 0x8]\n 19443: u64 [a5 + 0x98] = a0\n 19447: a0 = u64 [a4 + 0x10]\n 19450: u64 [a5 + 0x90] = a0\n 19454: a0 = s1 + 0x1520\n 19458: a1 = s1 + 0x1500\n 19462: a2 = s1 + 0x14e0\n 19466: a3 = u64 [a4 + 0x18]\n 19469: u64 [a5 + 0x88] = a3\n 19473: ra = 742, jump @1169\n      : @730 [@dyn 371] (gas: 6)\n 19479: a1 = 0x20180\n 19484: i32 a1 = a1 + 0\n 19486: a0 = 0\n 19488: a2 = 0\n 19490: ecalli 13 // 'seal_return'\n 19492: jump @874\n      : @731 (gas: 1)\n 19495: jump @787 if a0 != 235423050\n      : @732 (gas: 10)\n 19503: a0 = s1 + 0x2098\n 19507: u64 [a0 + 448] = 0\n 19511: u64 [a0 + 440] = 0\n 19515: u64 [a0 + 432] = 0\n 19519: u64 [a0 + 424] = 0\n 19523: a0 = s1 + 0x2000\n 19527: i32 a0 = a0 + 0x240\n 19531: ra = 0x2e8\n 19535: ecalli 16 // 'value_transferred'\n 19537: fallthrough\n      : @733 [@dyn 372] (gas: 3)\n 19538: a3 = s1 + 0x2098\n 19542: a4 = a3 + 0x100\n 19546: t0 = 746, jump @1373\n      : @734 [@dyn 373] (gas: 1)\n 19552: jump @793 if a0 == 0\n      : @735 (gas: 6)\n 19556: a1 = 0x20180\n 19561: i32 a1 = a1 + 0\n 19563: a0 = 0x1\n 19566: a2 = 0\n 19568: ecalli 13 // 'seal_return'\n 19570: jump @874\n      : @736 (gas: 1)\n 19573: t0 = 748, jump @1362\n      : @737 [@dyn 374] (gas: 1)\n 19579: jump @796 if a1 <u a0\n      : @738 (gas: 6)\n 19583: a1 = 0x20180\n 19588: i32 a1 = a1 + 0\n 19590: a0 = 0x1\n 19593: a2 = 0\n 19595: ecalli 13 // 'seal_return'\n 19597: jump @874\n      : @739 (gas: 4)\n 19600: a0 = s1 + 0x1920\n 19604: ra = 0x2ee\n 19608: t0 = 0x51e\n 19612: jump @1364\n      : @740 [@dyn 375] (gas: 7)\n 19615: a0 = s1 + 0x1898\n 19619: a0 = u64 [a0 + 0x88]\n 19623: u64 [s1 + 0x110] = a0\n 19627: a0 = s1 + 0x1900\n 19631: ra = 0x2f0\n 19635: t0 = 0x50e\n 19639: jump @1379\n      : @741 [@dyn 376] (gas: 12)\n 19642: a0 = s1 + 0x1898\n 19646: a0 = u64 [a0 + 0x68]\n 19649: u64 [s1 + 0x70] = a0\n 19652: a0 = 0x30180\n 19657: u64 [s1 + 0x88] = a0\n 19661: i32 a0 = a0 + 0\n 19663: u64 [s1 + 0x80] = a0\n 19667: ra = 0x2f2\n 19671: ecalli 4 // 'caller'\n 19673: a2 = u64 [s1 + 0x88]\n 19677: t0 = 0x2f4\n 19681: jump @1308\n      : @742 [@dyn 377] (gas: 2)\n 19684: a2 = u64 [s1 + 0x88]\n 19688: t0 = 756, jump @1308\n      : @743 [@dyn 378] (gas: 7)\n 19694: u64 [a2 + 96] = 0\n 19697: u64 [a2 + 0x58] = a1\n 19700: u64 [a2 + 0x50] = a0\n 19703: a1 = s1 + 0x18e0\n 19707: u64 [a2 + 0x48] = a3\n 19710: a0 = 0\n 19712: ra = 758, jump @9\n      : @744 [@dyn 379] (gas: 3)\n 19718: t0 = 0x2f8\n 19722: a1 = s1 + 0x1898\n 19726: fallthrough\n      : @745 [@dyn 380] (gas: 8)\n 19727: u64 [a1 + 64] = 0\n 19730: u64 [a1 + 56] = 0\n 19733: u64 [a1 + 40] = 0x1\n 19737: a2 = a1\n 19739: a0 = 0x20\n 19742: a1 = s1 + 0x18c0\n 19746: u64 [a2 + 48] = 0\n 19749: ra = 762, jump @9\n      : @746 [@dyn 381] (gas: 5)\n 19755: a0 = 0x20170\n 19760: u64 [s1 + 0x98] = a0\n 19764: a0 = i32 [0x20170]\n 19769: a1 = 0x3f\n 19772: jump @748 if a1 <u a0\n      : @747 (gas: 4)\n 19775: a1 = u64 [s1 + 0x98]\n 19779: u32 [a1 + 0] = 0x40\n 19782: t0 = 0x2fc\n 19786: jump @1368\n      : @748 (gas: 1)\n 19789: t0 = 764, jump @1368\n      : @749 [@dyn 382] (gas: 10)\n 19795: a0 = 0x20180\n 19800: i32 a0 = a0 + 0\n 19802: i32 a2 = a2 + 0\n 19804: a1 = 0x40\n 19807: u64 [s1 + 0x90] = a0\n 19811: ra = 0x2fe\n 19815: ecalli 8 // 'hash_keccak_256'\n 19817: a3 = u64 [s1 + 0x118]\n 19821: t0 = 0x300\n 19825: jump @1327\n      : @750 [@dyn 383] (gas: 2)\n 19828: a3 = u64 [s1 + 0x118]\n 19832: t0 = 768, jump @1327\n      : @751 [@dyn 384] (gas: 14)\n 19838: u64 [s1 + 0x118] = a0\n 19842: sp = a0\n 19844: a0 = u64 [s1 + 0x110]\n 19848: a0 = a0 << 0x20\n 19851: a2 = a0 >> 0x20\n 19854: a0 = s1 + 0x1898\n 19858: u64 [a0 + 32] = 0\n 19861: u64 [a0 + 24] = 0\n 19864: u64 [a0 + 16] = 0\n 19867: a1 = s1 + 0x18a0\n 19871: u64 [s1 + 0x78] = a2\n 19874: u64 [a0 + 0x8] = a2\n 19877: a0 = 0\n 19879: ra = 770, jump @9\n      : @752 [@dyn 385] (gas: 13)\n 19885: a0 = u64 [s1 + 0xf0]\n 19889: a1 = s1 + 0x1898\n 19893: u64 [a1] = a0\n 19895: a0 = u64 [s1 + 0xf8]\n 19899: u64 [a1 + 0xfffffffffffffff8] = a0\n 19902: a0 = u64 [s1 + 0x100]\n 19906: u64 [a1 + 0xfffffffffffffff0] = a0\n 19909: a3 = a1\n 19911: a0 = 0x20\n 19914: a1 = s1 + 0x1880\n 19918: a2 = u64 [s1 + 0x108]\n 19922: u64 [a3 + 0xffffffffffffffe8] = a2\n 19925: ra = 772, jump @9\n      : @753 [@dyn 386] (gas: 3)\n 19931: a0 = u64 [s1 + 0x98]\n 19935: a0 = i32 [a0]\n 19937: jump @755 if a0 >u 63\n      : @754 (gas: 4)\n 19941: a0 = u64 [s1 + 0x98]\n 19945: u32 [a0 + 0] = 0x40\n 19948: t0 = 0x306\n 19952: jump @1317\n      : @755 (gas: 1)\n 19955: t0 = 774, jump @1317\n      : @756 [@dyn 387] (gas: 5)\n 19961: ra = 0x308\n 19965: ecalli 8 // 'hash_keccak_256'\n 19967: a3 = u64 [s1 + 0x110]\n 19971: t0 = 0x30a\n 19975: jump @1330\n      : @757 [@dyn 388] (gas: 2)\n 19978: a3 = u64 [s1 + 0x110]\n 19982: t0 = 778, jump @1330\n      : @758 [@dyn 389] (gas: 11)\n 19988: a4 = u64 [s1 + 0x118]\n 19992: u64 [a4 + 0x18] = a3\n 19995: u64 [a4 + 0x10] = a2\n 19998: u64 [a4 + 0x8] = a1\n 20001: u64 [a4] = a0\n 20003: a0 = u64 [s1 + 0x80]\n 20007: ra = 0x30c\n 20011: ecalli 4 // 'caller'\n 20013: a2 = u64 [s1 + 0x88]\n 20017: t0 = 0x30e\n 20021: jump @1361\n      : @759 [@dyn 390] (gas: 2)\n 20024: a2 = u64 [s1 + 0x88]\n 20028: t0 = 782, jump @1361\n      : @760 [@dyn 391] (gas: 10)\n 20034: u64 [s1 + 0x110] = a1\n 20038: a0 = a0 >> 0x20\n 20041: a1 = reverse a2\n 20043: u64 [s1 + 0x108] = a1\n 20047: a1 = a1 << 0x20\n 20050: a0 = a0 | a1\n 20053: u64 [s1 + 0x100] = a0\n 20057: a0 = s1 + 0x1860\n 20061: a1 = u64 [s1 + 0x118]\n 20065: ra = 784, jump @11\n      : @761 [@dyn 392] (gas: 2)\n 20071: a2 = s1 + 0x1098\n 20075: fallthrough\n      : @762 (gas: 19)\n 20076: a0 = u64 [a2 + 0x7d0]\n 20080: a1 = u32 [a2 + 0x7cc]\n 20084: a2 = u64 [a2 + 0x7d8]\n 20088: a3 = a0 << 0x20\n 20091: a1 = a1 | a3\n 20094: a3 = a2 << 0x20\n 20097: a0 = a0 >> 0x20\n 20100: a0 = a0 | a3\n 20103: a4 = s1 + 0x100\n 20107: a3 = u64 [a4]\n 20109: a0 = a0 ^ a3\n 20112: a3 = u64 [a4 + 0x10]\n 20115: a1 = a1 ^ a3\n 20118: a3 = u64 [a4 + 0x8]\n 20121: a2 = a2 ^ a3\n 20124: a2 = a2 >> 0x20\n 20127: a1 = a1 | a2\n 20130: a0 = a0 | a1\n 20133: jump @841 if a0 != 0\n      : @763 (gas: 4)\n 20137: a0 = s1 + 0x2000\n 20141: i32 a0 = a0 + 0x7c0\n 20145: ecalli 9 // 'now'\n 20147: fallthrough\n      : @764 (gas: 51)\n 20148: a0 = s1 + 0x2098\n 20152: t0 = u64 [a0 + 0x740]\n 20156: a4 = u64 [a0 + 0x738]\n 20160: u64 [s1 + 0xd8] = a4\n 20164: t2 = u64 [a0 + 0x730]\n 20168: a3 = u64 [a0 + 0x728]\n 20172: u64 [s1 + 0xc0] = a3\n 20176: a0 = clz t0\n 20178: a1 = clz a4\n 20180: a2 = a1 + 0x40\n 20183: a2 = a0 if t0 != 0\n 20186: a0 = clz t2\n 20188: a1 = clz a3\n 20190: a1 = a1 + 0x40\n 20193: a1 = a0 if t2 != 0\n 20196: a0 = a1 + 0x80\n 20200: a3 = a4 | t0\n 20203: a2 = a0 if a3 == 0\n 20206: a5 = a0 <u a1\n 20209: a5 = 0 if a3 != 0\n 20211: a4 = a5 >u 0\n 20213: a0 = a2 <u 0xf0\n 20217: a3 = a0 ^ 0x1\n 20220: a4 = a3 if a5 == 0\n 20223: a0 = a4 <u 0x1\n 20226: ra = a0 + 0xffffffffffffffff\n 20229: t1 = -a4\n 20231: a5 = -a5\n 20233: a3 = a5 - a3\n 20236: a2 = 0xef - a2\n 20240: a5 = t1 >u 0\n 20242: a0 = ra >u 0\n 20244: a0 = a5 if ra == 0\n 20247: a5 = a2 <u 0x100\n 20251: a5 = a5 ^ 0x1\n 20254: a1 = a3 >u 0\n 20256: a5 = a1 if a3 != 0\n 20259: a5 = a0 if a4 != 0\n 20262: u64 [s1 + 0xb8] = t2\n 20266: u64 [s1 + 0xd0] = t0\n 20270: a0 = t2 | t0\n 20273: a4 = u64 [s1 + 0xc0]\n 20277: a1 = u64 [s1 + 0xd8]\n 20281: a1 = a1 | a4\n 20284: a0 = a0 | a1\n 20287: a0 = a0 <u 0x1\n 20290: a0 = a0 | a5\n 20293: a1 = a4\n 20295: a1 = 0 if a0 != 0\n 20297: u64 [s1 + 0x118] = a1\n 20301: jump @845 if a0 != 0\n      : @765 (gas: 1)\n 20305: t0 = 786, jump @1370\n      : @766 [@dyn 393] (gas: 1)\n 20311: jump @845 if a0 == 0\n      : @767 (gas: 1)\n 20315: t0 = 788, jump @1318\n      : @768 [@dyn 394] (gas: 1)\n 20321: ra = 790, jump @1380\n      : @769 [@dyn 395] (gas: 6)\n 20327: u64 [s1 + 0xc8] = a0\n 20331: u64 [s1 + 0xe8] = a1\n 20335: a0 = u64 [s1 + 0xd8]\n 20339: a1 = u64 [s1 + 0xd0]\n 20343: a2 = u64 [s1 + 0xe0]\n 20347: ra = 792, jump @1385\n      : @770 [@dyn 396] (gas: 7)\n 20353: u64 [s1 + 0xb0] = a0\n 20357: u64 [s1 + 0xa8] = a1\n 20361: a0 = u64 [s1 + 0xe0]\n 20365: a2 = a0 + 0xffffffffffffff80\n 20368: a0 = u64 [s1 + 0xc0]\n 20372: a1 = u64 [s1 + 0xb8]\n 20376: ra = 794, jump @1385\n      : @771 [@dyn 397] (gas: 8)\n 20382: u64 [s1 + 0xa0] = a0\n 20386: u64 [s1 + 0x68] = a1\n 20389: a2 = u64 [s1 + 0xe0]\n 20393: a0 = a2 <u 0x80\n 20397: u64 [s1 + 0x60] = a0\n 20400: a0 = u64 [s1 + 0xc0]\n 20404: a1 = u64 [s1 + 0xb8]\n 20408: ra = 796, jump @1385\n      : @772 [@dyn 398] (gas: 1)\n 20414: t0 = 798, jump @1375\n      : @773 [@dyn 399] (gas: 4)\n 20420: a3 = u64 [s1 + 0x60]\n 20423: a0 = 0 if a3 == 0\n 20425: u64 [s1 + 0xf8] = a0\n 20429: jump @843 if a1 == 0\n      : @774 (gas: 7)\n 20433: a2 = a3\n 20435: a0 = u64 [s1 + 0xe8]\n 20439: a1 = u64 [s1 + 0xa8]\n 20443: a0 = a0 | a1\n 20446: a5 = a3\n 20448: a1 = u64 [s1 + 0x68]\n 20451: t0 = 800, jump @1316\n      : @775 [@dyn 400] (gas: 1)\n 20457: ra = 802, jump @1380\n      : @776 [@dyn 401] (gas: 6)\n 20463: u64 [s1 + 0xc8] = a0\n 20467: u64 [s1 + 0xa0] = a1\n 20471: a0 = u64 [s1 + 0xc0]\n 20475: a1 = u64 [s1 + 0xb8]\n 20479: a2 = u64 [s1 + 0x118]\n 20483: ra = 804, jump @1380\n      : @777 [@dyn 402] (gas: 7)\n 20489: u64 [s1 + 0x68] = a0\n 20492: u64 [s1 + 0xa8] = a1\n 20496: a1 = u64 [s1 + 0x118]\n 20500: a2 = 0x80 - a1\n 20504: a0 = u64 [s1 + 0xd8]\n 20508: a1 = u64 [s1 + 0xd0]\n 20512: ra = 806, jump @1385\n      : @778 [@dyn 403] (gas: 1)\n 20518: t0 = 808, jump @1351\n      : @779 [@dyn 404] (gas: 2)\n 20524: a1 = u64 [s1 + 0x68]\n 20527: t0 = 810, jump @1377\n      : @780 [@dyn 405] (gas: 1)\n 20533: ra = 812, jump @1380\n      : @781 [@dyn 406] (gas: 1)\n 20539: t0 = 814, jump @1328\n      : @782 [@dyn 407] (gas: 1)\n 20545: t0 = 816, jump @1337\n      : @783 [@dyn 408] (gas: 5)\n 20551: t0 = ra <u a2\n 20554: a4 = u64 [s1 + 0xa8]\n 20558: a5 = a4 <u a3\n 20561: a5 = t0 if t1 != 0\n 20564: t0 = 818, jump @1344\n      : @784 [@dyn 409] (gas: 20)\n 20570: t0 = a0 | a1\n 20573: a1 = a4 << 0x1\n 20576: a4 = u64 [s1 + 0xf0]\n 20580: t1 = a4 >> 0x3f\n 20583: t1 = a1 | t1\n 20586: a1 = a4 << 0x1\n 20589: a4 = u64 [s1 + 0xf8]\n 20593: t2 = a4 >> 0x3f\n 20596: a1 = a1 | t2\n 20599: a4 = a4 << 0x1\n 20602: a0 = u64 [s1 + 0xd8]\n 20606: a4 = a4 | a0\n 20609: u64 [s1 + 0xf8] = a4\n 20613: a0 = u64 [s1 + 0xd0]\n 20617: a1 = a1 | a0\n 20620: u64 [s1 + 0xf0] = a1\n 20624: a1 = a0 | t1\n 20627: u64 [s1 + 0xe0] = a1\n 20631: a0 = a0 | t0\n 20634: t0 = 820, jump @1312\n      : @785 [@dyn 410] (gas: 18)\n 20640: t0 = a4 <u a2\n 20643: a2 = a4 - a2\n 20646: a4 = a3 <u 0x1\n 20649: a5 = a5 - a4\n 20652: a4 = u64 [a0 + 0x8]\n 20655: a4 = a4 - t0\n 20658: a3 = a3 + 0xffffffffffffffff\n 20661: u64 [a0 + 0x10] = a5\n 20664: u64 [a0 + 0x8] = a4\n 20667: t0 = a5 | a4\n 20670: u64 [a0 + 0x18] = a3\n 20673: a4 = a3 | a2\n 20676: a3 = a4 | t0\n 20679: a4 = ra & 0x1\n 20682: u64 [s1 + 0xd8] = a4\n 20686: u64 [a0] = a2\n 20688: u64 [s1 + 208] = 0\n 20692: jump @782 if a3 != 0\n      : @786 (gas: 1)\n 20696: jump @844\n      : @787 (gas: 1)\n 20699: jump @868 if a0 != 1158823118\n      : @788 (gas: 11)\n 20707: a0 = s1 + 0x2098\n 20711: u64 [a0 + 896] = 0\n 20715: u64 [a0 + 888] = 0\n 20719: u64 [a0 + 880] = 0\n 20723: u64 [a0 + 872] = 0\n 20727: a0 = s1 + 0x2000\n 20731: i32 a0 = a0 + 0x400\n 20735: ra = 0x336\n 20739: ecalli 16 // 'value_transferred'\n 20741: t0 = 0x338\n 20745: jump @1372\n      : @789 [@dyn 411] (gas: 1)\n 20748: t0 = 824, jump @1372\n      : @790 [@dyn 412] (gas: 1)\n 20754: t0 = 826, jump @1378\n      : @791 [@dyn 413] (gas: 1)\n 20760: jump @874 if a0 == 0\n      : @792 (gas: 6)\n 20764: a1 = 0x20180\n 20769: i32 a1 = a1 + 0\n 20771: a0 = 0x1\n 20774: a2 = 0\n 20776: ecalli 13 // 'seal_return'\n 20778: jump @874\n      : @793 (gas: 1)\n 20781: t0 = 828, jump @1362\n      : @794 [@dyn 414] (gas: 1)\n 20787: jump @876 if a1 <u a0\n      : @795 (gas: 6)\n 20791: a1 = 0x20180\n 20796: i32 a1 = a1 + 0\n 20798: a0 = 0x1\n 20801: a2 = 0\n 20803: ecalli 13 // 'seal_return'\n 20805: jump @874\n      : @796 (gas: 4)\n 20808: a0 = s1 + 0x1ba0\n 20812: ra = 0x33e\n 20816: t0 = 0x51e\n 20820: jump @1364\n      : @797 [@dyn 415] (gas: 12)\n 20823: a0 = s1 + 0x1898\n 20827: a0 = u64 [a0 + 0x308]\n 20831: u64 [s1 + 0xf0] = a0\n 20835: a0 = 0x30180\n 20840: u64 [s1 + 0x108] = a0\n 20844: i32 a0 = a0 + 0\n 20846: u64 [s1 + 0x100] = a0\n 20850: ra = 0x340\n 20854: ecalli 4 // 'caller'\n 20856: a2 = u64 [s1 + 0x108]\n 20860: t0 = 0x342\n 20864: jump @1308\n      : @798 [@dyn 416] (gas: 2)\n 20867: a2 = u64 [s1 + 0x108]\n 20871: t0 = 834, jump @1308\n      : @799 [@dyn 417] (gas: 8)\n 20877: u64 [a2 + 768] = 0\n 20881: a4 = a2 + 0x200\n 20885: u64 [a4 + 0xf8] = a1\n 20889: u64 [a4 + 0xf0] = a0\n 20893: a1 = s1 + 0x1b80\n 20897: u64 [a4 + 0xe8] = a3\n 20901: a0 = 0\n 20903: ra = 836, jump @9\n      : @800 [@dyn 418] (gas: 3)\n 20909: t0 = 0x346\n 20913: a1 = s1 + 0x1898\n 20917: fallthrough\n      : @801 [@dyn 419] (gas: 8)\n 20918: u64 [a1 + 736] = 0\n 20922: u64 [a1 + 728] = 0\n 20926: u64 [a1 + 712] = 0x1\n 20931: a2 = a1\n 20933: a0 = 0x20\n 20936: a1 = s1 + 0x1b60\n 20940: u64 [a2 + 720] = 0\n 20944: ra = 840, jump @9\n      : @802 [@dyn 420] (gas: 4)\n 20950: a0 = 0x20170\n 20955: u64 [s1 + 0x118] = a0\n 20959: a0 = i32 [0x20170]\n 20964: jump @804 if a0 >u 63\n      : @803 (gas: 1)\n 20968: t0 = 842, jump @1363\n      : @804 [@dyn 421] (gas: 14)\n 20974: a0 = sp + 0xffffffffffffffe0\n 20977: a2 = a0 & 0xffffffffffffffe0\n 20980: u64 [s1 + 0xf8] = a2\n 20984: sp = a2\n 20986: a0 = 0x20180\n 20991: i32 a0 = a0 + 0\n 20993: i32 a2 = a2 + 0\n 20995: a1 = 0x40\n 20998: u64 [s1 + 0x110] = a0\n 21002: ra = 0x34c\n 21006: ecalli 8 // 'hash_keccak_256'\n 21008: a3 = u64 [s1 + 0xf8]\n 21012: t0 = 0x34e\n 21016: jump @1332\n      : @805 [@dyn 422] (gas: 2)\n 21019: a3 = u64 [s1 + 0xf8]\n 21023: t0 = 846, jump @1332\n      : @806 [@dyn 423] (gas: 14)\n 21029: u64 [s1 + 0xf8] = a0\n 21033: sp = a0\n 21035: a0 = u64 [s1 + 0xf0]\n 21039: a0 = a0 << 0x20\n 21042: a2 = a0 >> 0x20\n 21045: a0 = s1 + 0x1898\n 21049: u64 [a0 + 704] = 0\n 21053: u64 [a0 + 696] = 0\n 21057: u64 [a0 + 688] = 0\n 21061: a1 = s1 + 0x1b40\n 21065: u64 [s1 + 0xf0] = a2\n 21069: u64 [a0 + 0x2a8] = a2\n 21073: a0 = 0\n 21075: ra = 848, jump @9\n      : @807 [@dyn 424] (gas: 14)\n 21081: a0 = u64 [s1 + 0xd0]\n 21085: a1 = s1 + 0x1898\n 21089: a2 = a1 + 0x200\n 21093: u64 [a2 + 0xa0] = a0\n 21097: a0 = u64 [s1 + 0xd8]\n 21101: u64 [a2 + 0x98] = a0\n 21105: a0 = u64 [s1 + 0xe0]\n 21109: u64 [a2 + 0x90] = a0\n 21113: a3 = a1\n 21115: a0 = 0x20\n 21118: a1 = s1 + 0x1b20\n 21122: a2 = u64 [s1 + 0xe8]\n 21126: u64 [a3 + 0x288] = a2\n 21130: ra = 850, jump @9\n      : @808 [@dyn 425] (gas: 1)\n 21136: t0 = 852, jump @1348\n      : @809 [@dyn 426] (gas: 1)\n 21142: jump @811 if a1 <u a0\n      : @810 (gas: 1)\n 21145: t0 = 854, jump @1371\n      : @811 [@dyn 427] (gas: 4)\n 21151: a0 = sp + 0xffffffffffffffe0\n 21154: a0 = a0 & 0xffffffffffffffe0\n 21157: u64 [s1 + 0xe8] = a0\n 21161: t0 = 856, jump @1310\n      : @812 [@dyn 428] (gas: 5)\n 21167: ra = 0x35a\n 21171: ecalli 8 // 'hash_keccak_256'\n 21173: a3 = u64 [s1 + 0xe8]\n 21177: t0 = 0x35c\n 21181: jump @1330\n      : @813 [@dyn 429] (gas: 2)\n 21184: a3 = u64 [s1 + 0xe8]\n 21188: t0 = 860, jump @1330\n      : @814 [@dyn 430] (gas: 11)\n 21194: a4 = u64 [s1 + 0xf8]\n 21198: u64 [a4 + 0x18] = a3\n 21201: u64 [a4 + 0x10] = a2\n 21204: u64 [a4 + 0x8] = a1\n 21207: u64 [a4] = a0\n 21209: a0 = u64 [s1 + 0x100]\n 21213: ra = 0x35e\n 21217: ecalli 4 // 'caller'\n 21219: a2 = u64 [s1 + 0x108]\n 21223: t0 = 0x360\n 21227: jump @1361\n      : @815 [@dyn 431] (gas: 2)\n 21230: a2 = u64 [s1 + 0x108]\n 21234: t0 = 864, jump @1361\n      : @816 [@dyn 432] (gas: 10)\n 21240: u64 [s1 + 0xe8] = a1\n 21244: a0 = a0 >> 0x20\n 21247: a1 = reverse a2\n 21249: u64 [s1 + 0xe0] = a1\n 21253: a1 = a1 << 0x20\n 21256: a0 = a0 | a1\n 21259: u64 [s1 + 0xd8] = a0\n 21263: a0 = s1 + 0x1b00\n 21267: a1 = u64 [s1 + 0xf8]\n 21271: ra = 866, jump @11\n      : @817 [@dyn 433] (gas: 2)\n 21277: a2 = s1 + 0x1898\n 21281: fallthrough\n      : @818 (gas: 18)\n 21282: a0 = u64 [a2 + 0x270]\n 21286: a1 = u32 [a2 + 0x26c]\n 21290: a2 = u64 [a2 + 0x278]\n 21294: a3 = a0 << 0x20\n 21297: a1 = a1 | a3\n 21300: a3 = a2 << 0x20\n 21303: a0 = a0 >> 0x20\n 21306: a0 = a0 | a3\n 21309: a3 = u64 [s1 + 0xd8]\n 21313: a0 = a0 ^ a3\n 21316: a3 = u64 [s1 + 0xe8]\n 21320: a1 = a1 ^ a3\n 21323: a3 = u64 [s1 + 0xe0]\n 21327: a2 = a2 ^ a3\n 21330: a2 = a2 >> 0x20\n 21333: a1 = a1 | a2\n 21336: a0 = a0 | a1\n 21339: jump @888 if a0 != 0\n      : @819 (gas: 6)\n 21343: a0 = u64 [s1 + 0x100]\n 21347: ra = 0x364\n 21351: ecalli 4 // 'caller'\n 21353: a2 = u64 [s1 + 0x108]\n 21357: t0 = 0x366\n 21361: jump @1308\n      : @820 [@dyn 434] (gas: 2)\n 21364: a2 = u64 [s1 + 0x108]\n 21368: t0 = 870, jump @1308\n      : @821 [@dyn 435] (gas: 8)\n 21374: u64 [a2 + 576] = 0\n 21378: a4 = a2 + 0x200\n 21382: u64 [a4 + 0x38] = a1\n 21385: u64 [a4 + 0x30] = a0\n 21388: a1 = s1 + 0x1ac0\n 21392: u64 [a4 + 0x28] = a3\n 21395: a0 = 0\n 21397: ra = 872, jump @9\n      : @822 [@dyn 436] (gas: 3)\n 21403: t0 = 0x36a\n 21407: a1 = s1 + 0x1898\n 21411: fallthrough\n      : @823 [@dyn 437] (gas: 8)\n 21412: u64 [a1 + 544] = 0\n 21416: u64 [a1 + 536] = 0\n 21420: u64 [a1 + 520] = 0x1\n 21425: a2 = a1\n 21427: a0 = 0x20\n 21430: a1 = s1 + 0x1aa0\n 21434: u64 [a2 + 528] = 0\n 21438: ra = 876, jump @9\n      : @824 [@dyn 438] (gas: 1)\n 21444: t0 = 878, jump @1348\n      : @825 [@dyn 439] (gas: 1)\n 21450: jump @827 if a1 <u a0\n      : @826 (gas: 1)\n 21453: t0 = 880, jump @1363\n      : @827 [@dyn 440] (gas: 4)\n 21459: a0 = sp + 0xffffffffffffffe0\n 21462: a0 = a0 & 0xffffffffffffffe0\n 21465: u64 [s1 + 0xf8] = a0\n 21469: t0 = 882, jump @1310\n      : @828 [@dyn 441] (gas: 4)\n 21475: ra = 0x374\n 21479: ecalli 8 // 'hash_keccak_256'\n 21481: t0 = 0x376\n 21485: jump @1376\n      : @829 [@dyn 442] (gas: 1)\n 21488: t0 = 886, jump @1376\n      : @830 [@dyn 443] (gas: 8)\n 21494: u64 [s1 + 0xe8] = a0\n 21498: a0 = reverse a2\n 21500: u64 [s1 + 0xe0] = a0\n 21504: a0 = reverse a3\n 21506: u64 [s1 + 0xd8] = a0\n 21510: t0 = 0x378\n 21514: a2 = s1 + 0x1898\n 21518: fallthrough\n      : @831 [@dyn 444] (gas: 8)\n 21519: u64 [a2 + 512] = 0\n 21523: u64 [a2 + 504] = 0\n 21527: u64 [a2 + 496] = 0\n 21531: a1 = s1 + 0x1a80\n 21535: a0 = u64 [s1 + 0xf0]\n 21539: u64 [a2 + 0x1e8] = a0\n 21543: a0 = 0\n 21545: ra = 890, jump @9\n      : @832 [@dyn 445] (gas: 14)\n 21551: a0 = u64 [s1 + 0xd8]\n 21555: a1 = s1 + 0x1898\n 21559: a2 = a1 + 0x100\n 21563: u64 [a2 + 0xe0] = a0\n 21567: a0 = u64 [s1 + 0xe0]\n 21571: u64 [a2 + 0xd8] = a0\n 21575: a0 = u64 [s1 + 0xe8]\n 21579: u64 [a2 + 0xd0] = a0\n 21583: a3 = a1\n 21585: a0 = 0x20\n 21588: a1 = s1 + 0x1a60\n 21592: a2 = u64 [s1 + 0xf8]\n 21596: u64 [a3 + 0x1c8] = a2\n 21600: ra = 892, jump @9\n      : @833 [@dyn 446] (gas: 1)\n 21606: t0 = 894, jump @1348\n      : @834 [@dyn 447] (gas: 1)\n 21612: jump @836 if a1 <u a0\n      : @835 (gas: 1)\n 21615: t0 = 896, jump @1371\n      : @836 [@dyn 448] (gas: 4)\n 21621: a0 = sp + 0xffffffffffffffe0\n 21624: a0 = a0 & 0xffffffffffffffe0\n 21627: u64 [s1 + 0xf8] = a0\n 21631: t0 = 898, jump @1310\n      : @837 [@dyn 449] (gas: 28)\n 21637: ecalli 8 // 'hash_keccak_256'\n 21639: a3 = u64 [s1 + 0xf8]\n 21643: a0 = u64 [a3]\n 21645: a1 = u64 [a3 + 0x8]\n 21648: a2 = u64 [a3 + 0x10]\n 21651: a3 = u64 [a3 + 0x18]\n 21654: t0 = reverse a0\n 21656: a0 = reverse a1\n 21658: a2 = reverse a2\n 21660: a3 = reverse a3\n 21662: a4 = sp + 0xffffffffffffffe0\n 21665: a1 = a4 & 0xffffffffffffffe0\n 21668: sp = a1\n 21670: a4 = a3 + 0x2\n 21673: a3 = a4 <u a3\n 21676: a5 = a2 + a3\n 21679: a2 = a5 <u a2\n 21682: a2 = a3 if a3 == 0\n 21685: a2 = a2 + a0\n 21688: a0 = a2 <u a0\n 21691: a0 = a0 + t0\n 21694: u64 [a1 + 0x8] = a5\n 21697: u64 [a1] = a4\n 21699: u64 [a1 + 0x10] = a2\n 21702: u64 [a1 + 0x18] = a0\n 21705: a0 = s1 + 0x1a40\n 21709: u64 [s1 + 0xf8] = a1\n 21713: ra = 900, jump @11\n      : @838 [@dyn 450] (gas: 4)\n 21719: a0 = s1 + 0x1898\n 21723: a0 = u64 [a0 + 0x1b0]\n 21727: a1 = a0 & 0xff\n 21731: jump @893 if a1 == 0\n      : @839 (gas: 3)\n 21735: t0 = 0x386\n 21739: a2 = s1 + 0x1898\n 21743: fallthrough\n      : @840 [@dyn 451] (gas: 9)\n 21744: u64 [a2 + 408] = 0\n 21748: u64 [a2 + 400] = 0\n 21752: a0 = 0xc1c184c800000000\n 21762: u64 [a2 + 0x1a0] = a0\n 21766: a1 = s1 + 0x1a20\n 21770: u64 [a2 + 392] = 0\n 21774: a0 = 0\n 21776: ra = 0x3bc\n 21780: jump @9\n      : @841 (gas: 3)\n 21783: t0 = 0x388\n 21787: a2 = s1 + 0x1098\n 21791: fallthrough\n      : @842 [@dyn 452] (gas: 9)\n 21792: u64 [a2 + 1976] = 0\n 21796: u64 [a2 + 1968] = 0\n 21800: a0 = 0x6f1cf7db00000000\n 21810: u64 [a2 + 0x7c0] = a0\n 21814: a1 = s1 + 0x1840\n 21818: u64 [a2 + 1960] = 0\n 21822: a0 = 0\n 21824: ra = 0x4c0\n 21828: jump @9\n      : @843 (gas: 2)\n 21831: u64 [s1 + 216] = 0\n 21835: fallthrough\n      : @844 (gas: 6)\n 21836: a0 = u64 [s1 + 0xf8]\n 21840: a0 = a0 << 0x1\n 21843: a1 = u64 [s1 + 0xd8]\n 21847: a0 = a0 | a1\n 21850: u64 [s1 + 0x118] = a0\n 21854: fallthrough\n      : @845 (gas: 3)\n 21855: a0 = u64 [s1 + 0x70]\n 21858: a1 = u64 [s1 + 0x118]\n 21862: jump @911 if a0 != a1\n      : @846 (gas: 6)\n 21866: a0 = u64 [s1 + 0x80]\n 21870: ra = 0x38a\n 21874: ecalli 4 // 'caller'\n 21876: a2 = u64 [s1 + 0x88]\n 21880: t0 = 0x38c\n 21884: jump @1314\n      : @847 [@dyn 453] (gas: 2)\n 21887: a2 = u64 [s1 + 0x88]\n 21891: t0 = 908, jump @1314\n      : @848 [@dyn 454] (gas: 8)\n 21897: u64 [a2 + 1920] = 0\n 21901: a4 = a2 + 0x700\n 21905: u64 [a4 + 0x78] = a1\n 21908: u64 [a4 + 0x70] = a0\n 21911: a1 = s1 + 0x1800\n 21915: u64 [a4 + 0x68] = a3\n 21918: a0 = 0\n 21920: ra = 910, jump @9\n      : @849 [@dyn 455] (gas: 3)\n 21926: t0 = 0x390\n 21930: a1 = s1 + 0x1098\n 21934: fallthrough\n      : @850 [@dyn 456] (gas: 8)\n 21935: u64 [a1 + 1888] = 0\n 21939: u64 [a1 + 1880] = 0\n 21943: u64 [a1 + 1864] = 0x1\n 21948: a2 = a1\n 21950: a0 = 0x20\n 21953: a1 = s1 + 0x17e0\n 21957: u64 [a2 + 1872] = 0\n 21961: ra = 914, jump @9\n      : @851 [@dyn 457] (gas: 3)\n 21967: a0 = u64 [s1 + 0x98]\n 21971: a0 = i32 [a0]\n 21973: jump @853 if a0 >u 63\n      : @852 (gas: 4)\n 21977: a1 = u64 [s1 + 0x98]\n 21981: u32 [a1 + 0] = 0x40\n 21984: t0 = 0x394\n 21988: jump @1317\n      : @853 (gas: 1)\n 21991: t0 = 916, jump @1317\n      : @854 [@dyn 458] (gas: 4)\n 21997: ra = 0x396\n 22001: ecalli 8 // 'hash_keccak_256'\n 22003: t0 = 0x398\n 22007: jump @1321\n      : @855 [@dyn 459] (gas: 1)\n 22010: t0 = 920, jump @1321\n      : @856 [@dyn 460] (gas: 8)\n 22016: u64 [a2 + 1856] = 0\n 22020: u64 [a2 + 1848] = 0\n 22024: u64 [a2 + 1840] = 0\n 22028: a1 = s1 + 0x17c0\n 22032: a0 = u64 [s1 + 0x78]\n 22035: u64 [a2 + 0x728] = a0\n 22039: a0 = 0\n 22041: ra = 922, jump @9\n      : @857 [@dyn 461] (gas: 15)\n 22047: a0 = u64 [s1 + 0xf8]\n 22051: a1 = s1 + 0x1098\n 22055: a2 = a1 + 0x700\n 22059: u64 [a2 + 0x20] = a0\n 22062: a4 = s1 + 0x100\n 22066: a0 = u64 [a4]\n 22068: u64 [a2 + 0x18] = a0\n 22071: a0 = u64 [a4 + 0x8]\n 22074: u64 [a2 + 0x10] = a0\n 22077: a3 = a1\n 22079: a0 = 0x20\n 22082: a1 = s1 + 0x17a0\n 22086: a2 = u64 [a4 + 0x10]\n 22089: u64 [a3 + 0x708] = a2\n 22093: ra = 924, jump @9\n      : @858 [@dyn 462] (gas: 3)\n 22099: a0 = u64 [s1 + 0x98]\n 22103: a0 = i32 [a0]\n 22105: jump @860 if a0 >u 63\n      : @859 (gas: 4)\n 22109: a0 = u64 [s1 + 0x98]\n 22113: u32 [a0 + 0] = 0x40\n 22116: t0 = 0x39e\n 22120: jump @1317\n      : @860 (gas: 1)\n 22123: t0 = 926, jump @1317\n      : @861 [@dyn 463] (gas: 4)\n 22129: ra = 0x3a0\n 22133: ecalli 8 // 'hash_keccak_256'\n 22135: t0 = 0x3a2\n 22139: jump @1347\n      : @862 [@dyn 464] (gas: 1)\n 22142: t0 = 930, jump @1347\n      : @863 [@dyn 465] (gas: 2)\n 22148: a4 = a3 + 0x2\n 22151: t0 = 932, jump @1320\n      : @864 [@dyn 466] (gas: 9)\n 22157: a1 = s1 + 0x2098\n 22161: a3 = a1 + 0x700\n 22165: u64 [a3 + 0x48] = a4\n 22168: u64 [a3 + 0x50] = a5\n 22171: u64 [a3 + 0x58] = a2\n 22174: u64 [a3 + 0x60] = a0\n 22177: a0 = s1 + 0x1780\n 22181: a1 = s1 + 0x27e0\n 22185: ra = 934, jump @11\n      : @865 [@dyn 467] (gas: 3)\n 22191: a0 = s1 + 0x1098\n 22195: a0 = u8 [a0 + 0x6f0]\n 22199: jump @913 if a0 == 0\n      : @866 (gas: 3)\n 22203: t0 = 0x3a8\n 22207: a2 = s1 + 0x1098\n 22211: fallthrough\n      : @867 [@dyn 468] (gas: 9)\n 22212: u64 [a2 + 1752] = 0\n 22216: u64 [a2 + 1744] = 0\n 22220: a0 = 0xa7a9536d00000000\n 22230: u64 [a2 + 0x6e0] = a0\n 22234: a1 = s1 + 0x1760\n 22238: u64 [a2 + 1736] = 0\n 22242: a0 = 0\n 22244: ra = 0x4c0\n 22248: jump @9\n      : @868 (gas: 2)\n 22251: a2 = s1 + 0x2098\n 22255: jump @872 if a0 != 1229702701\n      : @869 (gas: 8)\n 22262: u64 [a2 + 1280] = 0\n 22266: u64 [a2 + 1272] = 0\n 22270: u64 [a2 + 1264] = 0\n 22274: u64 [a2 + 1256] = 0\n 22278: a0 = s1 + 0x2000\n 22282: i32 a0 = a0 + 0x580\n 22286: ecalli 16 // 'value_transferred'\n 22288: fallthrough\n      : @870 (gas: 10)\n 22289: a3 = s1 + 0x2098\n 22293: a4 = a3 + 0x400\n 22297: a0 = u64 [a4 + 0xf8]\n 22301: a1 = u64 [a3 + 0x500]\n 22305: a2 = u64 [a4 + 0xf0]\n 22309: a3 = u64 [a4 + 0xe8]\n 22313: a1 = a1 | a2\n 22316: a0 = a0 | a3\n 22319: a0 = a0 | a1\n 22322: jump @941 if a0 == 0\n      : @871 (gas: 6)\n 22326: a1 = 0x20180\n 22331: i32 a1 = a1 + 0\n 22333: a0 = 0x1\n 22336: a2 = 0\n 22338: ecalli 13 // 'seal_return'\n 22340: jump @874\n      : @872 (gas: 6)\n 22342: a1 = 0x20180\n 22347: i32 a1 = a1 + 0\n 22349: a0 = 0x1\n 22352: a2 = 0\n 22354: ecalli 13 // 'seal_return'\n 22356: jump @874\n      : @873 (gas: 5)\n 22358: i32 a1 = a1 + 0\n 22360: a0 = 0x1\n 22363: a2 = 0\n 22365: ecalli 13 // 'seal_return'\n 22367: fallthrough\n      : @874 (gas: 3)\n 22368: a0 = u64 [s1 + 0x118]\n 22372: a0 = i32 [a0]\n 22374: jump @943 if a0 >u 99\n      : @875 (gas: 2)\n 22379: a1 = 0x20180\n 22384: jump @873\n      : @876 (gas: 4)\n 22386: a0 = s1 + 0x1a0\n 22390: ra = 0x3aa\n 22394: t0 = 0x50a\n 22398: jump @1364\n      : @877 [@dyn 469] (gas: 10)\n 22401: a0 = u64 [s1 + 0x1a0]\n 22405: a1 = u64 [s1 + 0x1a8]\n 22409: a2 = u32 [s1 + 0x1b0]\n 22413: u64 [s1 + 408] = 0\n 22417: u64 [s1 + 0x190] = a2\n 22421: u64 [s1 + 0x188] = a1\n 22425: a1 = s1 + 0x180\n 22429: u64 [s1 + 0x180] = a0\n 22433: a0 = 0\n 22435: ra = 940, jump @9\n      : @878 [@dyn 470] (gas: 7)\n 22441: u64 [s1 + 376] = 0\n 22445: u64 [s1 + 368] = 0\n 22449: u64 [s1 + 352] = 0x2\n 22454: a0 = 0x20\n 22457: a1 = s1 + 0x160\n 22461: u64 [s1 + 360] = 0\n 22465: ra = 942, jump @9\n      : @879 [@dyn 471] (gas: 4)\n 22471: a0 = 0x20170\n 22476: u64 [s1 + 0x118] = a0\n 22480: a0 = i32 [0x20170]\n 22485: jump @881 if a0 >u 63\n      : @880 (gas: 1)\n 22489: t0 = 944, jump @1363\n      : @881 [@dyn 472] (gas: 14)\n 22495: a0 = sp + 0xffffffffffffffe0\n 22498: a2 = a0 & 0xffffffffffffffe0\n 22501: u64 [s1 + 0x108] = a2\n 22505: sp = a2\n 22507: a0 = 0x20180\n 22512: u64 [s1 + 0x110] = a0\n 22516: i32 a0 = a0 + 0\n 22518: i32 a2 = a2 + 0\n 22520: a1 = 0x40\n 22523: ra = 0x3b2\n 22527: ecalli 8 // 'hash_keccak_256'\n 22529: a3 = u64 [s1 + 0x108]\n 22533: t0 = 0x3b4\n 22537: jump @1313\n      : @882 [@dyn 473] (gas: 2)\n 22540: a3 = u64 [s1 + 0x108]\n 22544: t0 = 948, jump @1313\n      : @883 [@dyn 474] (gas: 8)\n 22550: a5 = a4 + 0x100\n 22554: u64 [a5 + 0xe0] = a3\n 22558: u64 [a5 + 0xd8] = a2\n 22562: u64 [a5 + 0xd0] = a1\n 22566: u64 [a5 + 0xc8] = a0\n 22570: a0 = s1 + 0x140\n 22574: a1 = s1 + 0x2260\n 22578: ra = 950, jump @11\n      : @884 [@dyn 475] (gas: 8)\n 22584: a0 = u32 [s1 + 0x140]\n 22588: u64 [s1 + 312] = 0\n 22592: u64 [s1 + 304] = 0\n 22596: u64 [s1 + 0x120] = a0\n 22600: a0 = 0x80\n 22604: a1 = s1 + 0x120\n 22608: u64 [s1 + 296] = 0\n 22612: ra = 952, jump @9\n      : @885 [@dyn 476] (gas: 3)\n 22618: a0 = u64 [s1 + 0x118]\n 22622: a0 = i32 [a0]\n 22624: jump @887 if a0 >u 159\n      : @886 (gas: 5)\n 22629: a1 = u64 [s1 + 0x118]\n 22633: u32 [a1 + 0] = 0xa0\n 22637: a0 = u64 [s1 + 0x110]\n 22641: i32 a1 = a0 + 0x80\n 22645: jump @717\n      : @887 (gas: 3)\n 22648: a0 = u64 [s1 + 0x110]\n 22652: i32 a1 = a0 + 0x80\n 22656: jump @717\n      : @888 (gas: 3)\n 22659: t0 = 0x3ba\n 22663: a2 = s1 + 0x1898\n 22667: fallthrough\n      : @889 [@dyn 477] (gas: 8)\n 22668: u64 [a2 + 600] = 0\n 22672: u64 [a2 + 592] = 0\n 22676: a0 = 0x6f1cf7db00000000\n 22686: u64 [a2 + 0x260] = a0\n 22690: a1 = s1 + 0x1ae0\n 22694: u64 [a2 + 584] = 0\n 22698: a0 = 0\n 22700: ra = 956, jump @9\n      : @890 [@dyn 478] (gas: 3)\n 22706: a0 = u64 [s1 + 0x118]\n 22710: a0 = i32 [a0]\n 22712: jump @892 if a0 >u 31\n      : @891 (gas: 3)\n 22716: a1 = u64 [s1 + 0x118]\n 22720: u32 [a1 + 0] = 0x20\n 22723: fallthrough\n      : @892 (gas: 5)\n 22724: a0 = 0x1\n 22727: a2 = 0x4\n 22730: a1 = u64 [s1 + 0x110]\n 22734: ecalli 13 // 'seal_return'\n 22736: fallthrough\n      : @893 (gas: 17)\n 22737: a1 = 0xffffffff\n 22747: u64 [s1 + 0xe8] = a1\n 22751: a3 = s1 + 0x1898\n 22755: a4 = a3 + 0x100\n 22759: a1 = u64 [a4 + 0xa8]\n 22763: a2 = u64 [a4 + 0xb8]\n 22767: a3 = u64 [a4 + 0xc0]\n 22771: a0 = a0 | 0x1\n 22774: a4 = s1 + 0x2098\n 22778: a5 = a4 + 0x700\n 22782: u64 [a5 + 0xa8] = a1\n 22786: u64 [a5 + 0xb8] = a2\n 22790: u64 [a5 + 0xb0] = a0\n 22794: u64 [a5 + 0xc0] = a3\n 22798: a1 = s1 + 0x2840\n 22802: a0 = u64 [s1 + 0xf8]\n 22806: ra = 958, jump @12\n      : @894 [@dyn 479] (gas: 6)\n 22812: a0 = u64 [s1 + 0x100]\n 22816: ra = 0x3c0\n 22820: ecalli 4 // 'caller'\n 22822: a2 = u64 [s1 + 0x108]\n 22826: t0 = 0x3c2\n 22830: jump @1308\n      : @895 [@dyn 480] (gas: 2)\n 22833: a2 = u64 [s1 + 0x108]\n 22837: t0 = 962, jump @1308\n      : @896 [@dyn 481] (gas: 8)\n 22843: u64 [a2 + 384] = 0\n 22847: a4 = a2 + 0x100\n 22851: u64 [a4 + 0x78] = a1\n 22854: u64 [a4 + 0x70] = a0\n 22857: a1 = s1 + 0x1a00\n 22861: u64 [a4 + 0x68] = a3\n 22864: a0 = 0\n 22866: ra = 964, jump @9\n      : @897 [@dyn 482] (gas: 9)\n 22872: a0 = s1 + 0x1898\n 22876: u64 [a0 + 352] = 0\n 22880: u64 [a0 + 344] = 0\n 22884: u64 [a0 + 336] = 0\n 22888: a2 = a0\n 22890: a0 = 0x20\n 22893: a1 = s1 + 0x19e0\n 22897: u64 [a2 + 328] = 0\n 22901: ra = 966, jump @9\n      : @898 [@dyn 483] (gas: 5)\n 22907: a0 = sp + 0xffffffffffffffe0\n 22910: a0 = a0 & 0xffffffffffffffe0\n 22913: u64 [s1 + 0xf8] = a0\n 22917: sp = a0\n 22919: t0 = 968, jump @1348\n      : @899 [@dyn 484] (gas: 1)\n 22925: jump @901 if a1 <u a0\n      : @900 (gas: 1)\n 22928: t0 = 970, jump @1363\n      : @901 [@dyn 485] (gas: 4)\n 22934: a0 = sp + 0xffffffffffffffe0\n 22937: a0 = a0 & 0xffffffffffffffe0\n 22940: u64 [s1 + 0x118] = a0\n 22944: t0 = 972, jump @1310\n      : @902 [@dyn 486] (gas: 3)\n 22950: ra = 0x3ce\n 22954: ecalli 8 // 'hash_keccak_256'\n 22956: fallthrough\n      : @903 [@dyn 487] (gas: 11)\n 22957: a3 = u64 [s1 + 0x118]\n 22961: a0 = u64 [a3]\n 22963: a1 = u64 [a3 + 0x8]\n 22966: a2 = u64 [a3 + 0x10]\n 22969: a3 = u64 [a3 + 0x18]\n 22972: a0 = reverse a0\n 22974: a1 = reverse a1\n 22976: a2 = reverse a2\n 22978: a3 = reverse a3\n 22980: a4 = a3 + 0x3\n 22983: t0 = 976, jump @1320\n      : @904 [@dyn 488] (gas: 7)\n 22989: a1 = u64 [s1 + 0xf8]\n 22993: u64 [a1] = a4\n 22995: u64 [a1 + 0x8] = a5\n 22998: u64 [a1 + 0x10] = a2\n 23001: u64 [a1 + 0x18] = a0\n 23004: a0 = s1 + 0x19c0\n 23008: ra = 978, jump @11\n      : @905 [@dyn 489] (gas: 9)\n 23014: a0 = s1 + 0x1898\n 23018: a0 = u64 [a0 + 0x128]\n 23022: a1 = u64 [s1 + 0xe8]\n 23026: a0 = a0 + a1\n 23029: a0 = a0 & a1\n 23032: u64 [s1 + 0x118] = a0\n 23036: a0 = s1 + 0x19a0\n 23040: a1 = u64 [s1 + 0xf8]\n 23044: ra = 980, jump @11\n      : @906 [@dyn 490] (gas: 18)\n 23050: a3 = s1 + 0x1898\n 23054: a0 = u32 [a3 + 0x10c]\n 23058: a0 = a0 << 0x20\n 23061: a4 = a3 + 0x100\n 23065: a1 = u64 [a4 + 0x20]\n 23068: a2 = u64 [a4 + 0x18]\n 23071: a3 = u64 [a4 + 0x10]\n 23074: a4 = u64 [s1 + 0x118]\n 23078: a0 = a0 | a4\n 23081: a4 = s1 + 0x2098\n 23085: a5 = a4 + 0x700\n 23089: u64 [a5 + 0xe0] = a1\n 23093: u64 [a5 + 0xd8] = a2\n 23097: u64 [a5 + 0xd0] = a3\n 23101: u64 [a5 + 0xc8] = a0\n 23105: a1 = s1 + 0x2860\n 23109: a0 = u64 [s1 + 0xf8]\n 23113: ra = 982, jump @12\n      : @907 [@dyn 491] (gas: 6)\n 23119: a0 = u64 [s1 + 0x100]\n 23123: ra = 0x3d8\n 23127: ecalli 4 // 'caller'\n 23129: a2 = u64 [s1 + 0x108]\n 23133: t0 = 0x3da\n 23137: jump @1311\n      : @908 [@dyn 492] (gas: 2)\n 23140: a2 = u64 [s1 + 0x108]\n 23144: t0 = 986, jump @1311\n      : @909 [@dyn 493] (gas: 30)\n 23150: t0 = a1 | a0\n 23153: a3 = a3 >> 0x20\n 23156: a2 = reverse a2\n 23158: a1 = a2 << 0x20\n 23161: a1 = a1 | a3\n 23164: a2 = a2 >> 0x20\n 23167: a3 = u64 [s1 + 0xf0]\n 23171: a0 = s1 + 0x1898\n 23175: u64 [a0 + 0xa8] = a3\n 23179: a3 = u64 [0x20040]\n 23184: a4 = u64 [0x20048]\n 23189: a5 = u64 [0x20050]\n 23194: u64 [a0 + 0x100] = a3\n 23198: u64 [a0 + 0xf8] = a4\n 23202: u64 [a0 + 192] = 0\n 23206: u64 [a0 + 0xf0] = a5\n 23210: a3 = u64 [0x20058]\n 23215: u64 [a0 + 184] = 0\n 23219: u64 [a0 + 176] = 0\n 23223: u64 [a0 + 224] = 0\n 23227: u64 [a0 + 0xe8] = a3\n 23231: u64 [a0 + 0xd8] = a2\n 23235: u64 [a0 + 0xd0] = a1\n 23239: a2 = s1 + 0x1980\n 23243: a3 = s1 + 0x1960\n 23247: a4 = s1 + 0x1940\n 23251: u64 [a0 + 0xc8] = t0\n 23255: a0 = 0\n 23257: a1 = 0\n 23259: ra = 988, jump @15\n      : @910 [@dyn 494] (gas: 5)\n 23265: a0 = 0\n 23267: a1 = u64 [s1 + 0x110]\n 23271: a2 = 0\n 23273: ecalli 13 // 'seal_return'\n 23275: jump @874\n      : @911 (gas: 3)\n 23278: t0 = 0x3de\n 23282: a2 = s1 + 0x1098\n 23286: fallthrough\n      : @912 [@dyn 495] (gas: 9)\n 23287: u64 [a2 + 1944] = 0\n 23291: u64 [a2 + 1936] = 0\n 23295: a0 = 0xd5b25b6300000000\n 23305: u64 [a2 + 0x7a0] = a0\n 23309: a1 = s1 + 0x1820\n 23313: u64 [a2 + 1928] = 0\n 23317: a0 = 0\n 23319: ra = 0x4c0\n 23323: jump @9\n      : @913 (gas: 6)\n 23326: a0 = u64 [s1 + 0x80]\n 23330: ra = 0x3e0\n 23334: ecalli 4 // 'caller'\n 23336: a2 = u64 [s1 + 0x88]\n 23340: t0 = 0x3e2\n 23344: jump @1314\n      : @914 [@dyn 496] (gas: 2)\n 23347: a2 = u64 [s1 + 0x88]\n 23351: t0 = 994, jump @1314\n      : @915 [@dyn 497] (gas: 8)\n 23357: u64 [a2 + 1728] = 0\n 23361: a4 = a2 + 0x600\n 23365: u64 [a4 + 0xb8] = a1\n 23369: u64 [a4 + 0xb0] = a0\n 23373: a1 = s1 + 0x1740\n 23377: u64 [a4 + 0xa8] = a3\n 23381: a0 = 0\n 23383: ra = 996, jump @9\n      : @916 [@dyn 498] (gas: 3)\n 23389: t0 = 0x3e6\n 23393: a1 = s1 + 0x1098\n 23397: fallthrough\n      : @917 [@dyn 499] (gas: 8)\n 23398: u64 [a1 + 1696] = 0\n 23402: u64 [a1 + 1688] = 0\n 23406: u64 [a1 + 1672] = 0x3\n 23411: a2 = a1\n 23413: a0 = 0x20\n 23416: a1 = s1 + 0x1720\n 23420: u64 [a2 + 1680] = 0\n 23424: ra = 1000, jump @9\n      : @918 [@dyn 500] (gas: 3)\n 23430: a0 = u64 [s1 + 0x98]\n 23434: a0 = i32 [a0]\n 23436: jump @920 if a0 >u 63\n      : @919 (gas: 4)\n 23440: a1 = u64 [s1 + 0x98]\n 23444: u32 [a1 + 0] = 0x40\n 23447: t0 = 0x3ea\n 23451: jump @1317\n      : @920 (gas: 1)\n 23454: t0 = 1002, jump @1317\n      : @921 [@dyn 501] (gas: 4)\n 23460: ra = 0x3ec\n 23464: ecalli 8 // 'hash_keccak_256'\n 23466: t0 = 0x3ee\n 23470: jump @1321\n      : @922 [@dyn 502] (gas: 1)\n 23473: t0 = 1006, jump @1321\n      : @923 [@dyn 503] (gas: 8)\n 23479: u64 [a2 + 1664] = 0\n 23483: u64 [a2 + 1656] = 0\n 23487: u64 [a2 + 1648] = 0\n 23491: a1 = s1 + 0x1700\n 23495: a0 = u64 [s1 + 0x118]\n 23499: u64 [a2 + 0x668] = a0\n 23503: a0 = 0\n 23505: ra = 1008, jump @9\n      : @924 [@dyn 504] (gas: 15)\n 23511: a0 = u64 [s1 + 0xf8]\n 23515: a1 = s1 + 0x1098\n 23519: a2 = a1 + 0x600\n 23523: u64 [a2 + 0x60] = a0\n 23526: a4 = s1 + 0x100\n 23530: a0 = u64 [a4]\n 23532: u64 [a2 + 0x58] = a0\n 23535: a0 = u64 [a4 + 0x8]\n 23538: u64 [a2 + 0x50] = a0\n 23541: a3 = a1\n 23543: a0 = 0x20\n 23546: a1 = s1 + 0x16e0\n 23550: a2 = u64 [a4 + 0x10]\n 23553: u64 [a3 + 0x648] = a2\n 23557: ra = 1010, jump @9\n      : @925 [@dyn 505] (gas: 3)\n 23563: a0 = u64 [s1 + 0x98]\n 23567: a0 = i32 [a0]\n 23569: jump @927 if a0 >u 63\n      : @926 (gas: 4)\n 23573: a0 = u64 [s1 + 0x98]\n 23577: u32 [a0 + 0] = 0x40\n 23580: t0 = 0x3f4\n 23584: jump @1317\n      : @927 (gas: 1)\n 23587: t0 = 1012, jump @1317\n      : @928 [@dyn 506] (gas: 5)\n 23593: ra = 0x3f6\n 23597: ecalli 8 // 'hash_keccak_256'\n 23599: a3 = u64 [s1 + 0x110]\n 23603: t0 = 0x3f8\n 23607: jump @1327\n      : @929 [@dyn 507] (gas: 2)\n 23610: a3 = u64 [s1 + 0x110]\n 23614: t0 = 1016, jump @1327\n      : @930 [@dyn 508] (gas: 5)\n 23620: u64 [s1 + 0x110] = a0\n 23624: sp = a0\n 23626: t0 = 0x3fa\n 23630: a2 = s1 + 0x1098\n 23634: fallthrough\n      : @931 [@dyn 509] (gas: 8)\n 23635: u64 [a2 + 1600] = 0\n 23639: u64 [a2 + 1592] = 0\n 23643: u64 [a2 + 1584] = 0\n 23647: a1 = s1 + 0x16c0\n 23651: a0 = u64 [s1 + 0x78]\n 23654: u64 [a2 + 0x628] = a0\n 23658: a0 = 0\n 23660: ra = 1020, jump @9\n      : @932 [@dyn 510] (gas: 14)\n 23666: a0 = u64 [s1 + 0xf0]\n 23670: a1 = s1 + 0x1098\n 23674: a2 = a1 + 0x600\n 23678: u64 [a2 + 0x20] = a0\n 23681: a0 = u64 [s1 + 0xf8]\n 23685: u64 [a2 + 0x18] = a0\n 23688: a0 = u64 [s1 + 0x100]\n 23692: u64 [a2 + 0x10] = a0\n 23695: a3 = a1\n 23697: a0 = 0x20\n 23700: a1 = s1 + 0x16a0\n 23704: a2 = u64 [s1 + 0x108]\n 23708: u64 [a3 + 0x608] = a2\n 23712: ra = 1022, jump @9\n      : @933 [@dyn 511] (gas: 3)\n 23718: a0 = u64 [s1 + 0x98]\n 23722: a0 = i32 [a0]\n 23724: jump @935 if a0 >=u 64\n      : @934 (gas: 3)\n 23728: a0 = u64 [s1 + 0x98]\n 23732: u32 [a0 + 0] = 0x40\n 23735: fallthrough\n      : @935 (gas: 12)\n 23736: a0 = sp + 0xffffffffffffffe0\n 23739: a0 = a0 & 0xffffffffffffffe0\n 23742: u64 [s1 + 0x108] = a0\n 23746: sp = a0\n 23748: i32 a2 = a0 + 0\n 23750: a1 = 0x40\n 23753: a0 = u64 [s1 + 0x90]\n 23757: ra = 0x400\n 23761: ecalli 8 // 'hash_keccak_256'\n 23763: a3 = u64 [s1 + 0x108]\n 23767: t0 = 0x402\n 23771: jump @1356\n      : @936 [@dyn 512] (gas: 2)\n 23774: a3 = u64 [s1 + 0x108]\n 23778: t0 = 1026, jump @1356\n      : @937 [@dyn 513] (gas: 7)\n 23784: a1 = u64 [s1 + 0x110]\n 23788: u64 [a1 + 0x18] = a3\n 23791: u64 [a1 + 0x10] = a2\n 23794: u64 [a1 + 0x8] = a4\n 23797: u64 [a1] = a0\n 23799: a0 = s1 + 0x1680\n 23803: ra = 1028, jump @11\n      : @938 [@dyn 514] (gas: 4)\n 23809: a0 = s1 + 0x1098\n 23813: a0 = u64 [a0 + 0x5e8]\n 23817: a1 = a0 & 0x1\n 23820: jump @970 if a1 != 0\n      : @939 (gas: 3)\n 23824: t0 = 0x406\n 23828: a2 = s1 + 0x1098\n 23832: fallthrough\n      : @940 [@dyn 515] (gas: 9)\n 23833: u64 [a2 + 1304] = 0\n 23837: u64 [a2 + 1296] = 0\n 23841: a0 = 0xafa4e2b600000000\n 23851: u64 [a2 + 0x520] = a0\n 23855: a1 = s1 + 0x15a0\n 23859: u64 [a2 + 1288] = 0\n 23863: a0 = 0\n 23865: ra = 0x4c0\n 23869: jump @9\n      : @941 (gas: 3)\n 23872: a0 = u64 [s1 + 0x118]\n 23876: a0 = i32 [a0]\n 23878: jump @977 if a0 >u 99\n      : @942 (gas: 2)\n 23883: a1 = 0x20180\n 23888: jump @873\n      : @943 (gas: 5)\n 23891: a0 = s1 + 0x7ff\n 23895: a0 = a0 + 0x121\n 23899: ra = 0x408\n 23903: t0 = 0x50a\n 23907: jump @1364\n      : @944 [@dyn 516] (gas: 15)\n 23910: a1 = s1 + 0x7ff\n 23914: a1 = a1 + 0x99\n 23918: a0 = u64 [a1 + 0xa0]\n 23922: u64 [s1 + 0x78] = a0\n 23925: a0 = u64 [a1 + 0x98]\n 23929: u64 [s1 + 0x80] = a0\n 23933: a0 = u64 [a1 + 0x90]\n 23937: u64 [s1 + 0x98] = a0\n 23941: a0 = u64 [a1 + 0x88]\n 23945: u64 [s1 + 0x90] = a0\n 23949: a0 = s1 + 0x7ff\n 23953: a0 = a0 + 0x101\n 23957: ra = 0x40a\n 23961: t0 = 0x50e\n 23965: jump @1379\n      : @945 [@dyn 517] (gas: 15)\n 23968: a1 = s1 + 0x7ff\n 23972: a1 = a1 + 0x99\n 23976: a0 = u64 [a1 + 0x80]\n 23980: u64 [s1 + 0x70] = a0\n 23983: a0 = u64 [a1 + 0x78]\n 23986: u64 [s1 + 0x68] = a0\n 23989: a0 = u64 [a1 + 0x70]\n 23992: u64 [s1 + 0x60] = a0\n 23995: a0 = u64 [a1 + 0x68]\n 23998: u64 [s1 + 0x88] = a0\n 24002: a0 = s1 + 0x7ff\n 24006: a0 = a0 + 0xe1\n 24010: ra = 0x40c\n 24014: t0 = 0x514\n 24018: jump @1379\n      : @946 [@dyn 518] (gas: 8)\n 24021: a0 = s1 + 0x7ff\n 24025: a0 = a0 + 0x99\n 24029: a0 = u64 [a0 + 0x48]\n 24032: u64 [s1 + 0x58] = a0\n 24035: a0 = s1 + 0x2000\n 24039: i32 a0 = a0 + 0x420\n 24043: ecalli 9 // 'now'\n 24045: fallthrough\n      : @947 (gas: 49)\n 24046: a0 = s1 + 0x2098\n 24050: t0 = u64 [a0 + 0x3a0]\n 24054: a4 = u64 [a0 + 0x398]\n 24058: u64 [s1 + 0xd8] = a4\n 24062: t2 = u64 [a0 + 0x390]\n 24066: a3 = u64 [a0 + 0x388]\n 24070: u64 [s1 + 0xc0] = a3\n 24074: a0 = clz t0\n 24076: a1 = clz a4\n 24078: a2 = a1 + 0x40\n 24081: a2 = a0 if t0 != 0\n 24084: a0 = clz t2\n 24086: a1 = clz a3\n 24088: a1 = a1 + 0x40\n 24091: a1 = a0 if t2 != 0\n 24094: a0 = a1 + 0x80\n 24098: a3 = a4 | t0\n 24101: a2 = a0 if a3 == 0\n 24104: a5 = a0 <u a1\n 24107: a5 = 0 if a3 != 0\n 24109: a4 = a5 >u 0\n 24111: a0 = a2 <u 0xf0\n 24115: a3 = a0 ^ 0x1\n 24118: a4 = a3 if a5 == 0\n 24121: a0 = a4 <u 0x1\n 24124: ra = a0 + 0xffffffffffffffff\n 24127: t1 = -a4\n 24129: a5 = -a5\n 24131: a3 = a5 - a3\n 24134: a2 = 0xef - a2\n 24138: a5 = t1 >u 0\n 24140: a0 = ra >u 0\n 24142: a0 = a5 if ra == 0\n 24145: a5 = a2 <u 0x100\n 24149: a5 = a5 ^ 0x1\n 24152: a1 = a3 >u 0\n 24154: a5 = a1 if a3 != 0\n 24157: a5 = a0 if a4 != 0\n 24160: u64 [s1 + 0xb8] = t2\n 24164: u64 [s1 + 0xd0] = t0\n 24168: a0 = t2 | t0\n 24171: a4 = u64 [s1 + 0xc0]\n 24175: a1 = u64 [s1 + 0xd8]\n 24179: a1 = a1 | a4\n 24182: a0 = a0 | a1\n 24185: a0 = a0 <u 0x1\n 24188: a0 = a0 | a5\n 24191: a4 = 0 if a0 != 0\n 24193: jump @1006 if a0 != 0\n      : @948 (gas: 1)\n 24197: t0 = 1038, jump @1370\n      : @949 [@dyn 519] (gas: 1)\n 24203: jump @1006 if a0 == 0\n      : @950 (gas: 1)\n 24207: t0 = 1040, jump @1318\n      : @951 [@dyn 520] (gas: 1)\n 24213: ra = 1042, jump @1380\n      : @952 [@dyn 521] (gas: 6)\n 24219: u64 [s1 + 0xc8] = a0\n 24223: u64 [s1 + 0xe8] = a1\n 24227: a0 = u64 [s1 + 0xd8]\n 24231: a1 = u64 [s1 + 0xd0]\n 24235: a2 = u64 [s1 + 0xe0]\n 24239: ra = 1044, jump @1385\n      : @953 [@dyn 522] (gas: 7)\n 24245: u64 [s1 + 0xb0] = a0\n 24249: u64 [s1 + 0xa8] = a1\n 24253: a0 = u64 [s1 + 0xe0]\n 24257: a2 = a0 + 0xffffffffffffff80\n 24260: a0 = u64 [s1 + 0xc0]\n 24264: a1 = u64 [s1 + 0xb8]\n 24268: ra = 1046, jump @1385\n      : @954 [@dyn 523] (gas: 8)\n 24274: u64 [s1 + 0xa0] = a0\n 24278: u64 [s1 + 0x50] = a1\n 24281: a2 = u64 [s1 + 0xe0]\n 24285: a0 = a2 <u 0x80\n 24289: u64 [s1 + 0x48] = a0\n 24292: a0 = u64 [s1 + 0xc0]\n 24296: a1 = u64 [s1 + 0xb8]\n 24300: ra = 1048, jump @1385\n      : @955 [@dyn 524] (gas: 1)\n 24306: t0 = 1050, jump @1375\n      : @956 [@dyn 525] (gas: 4)\n 24312: a3 = u64 [s1 + 0x48]\n 24315: a0 = 0 if a3 == 0\n 24317: u64 [s1 + 0xf8] = a0\n 24321: jump @1004 if a1 == 0\n      : @957 (gas: 7)\n 24325: a2 = a3\n 24327: a0 = u64 [s1 + 0xe8]\n 24331: a1 = u64 [s1 + 0xa8]\n 24335: a0 = a0 | a1\n 24338: a5 = a3\n 24340: a1 = u64 [s1 + 0x50]\n 24343: t0 = 1052, jump @1316\n      : @958 [@dyn 526] (gas: 1)\n 24349: ra = 1054, jump @1380\n      : @959 [@dyn 527] (gas: 6)\n 24355: u64 [s1 + 0xc8] = a0\n 24359: u64 [s1 + 0xa0] = a1\n 24363: a0 = u64 [s1 + 0xc0]\n 24367: a1 = u64 [s1 + 0xb8]\n 24371: a2 = u64 [s1 + 0x118]\n 24375: ra = 1056, jump @1380\n      : @960 [@dyn 528] (gas: 7)\n 24381: u64 [s1 + 0x50] = a0\n 24384: u64 [s1 + 0xa8] = a1\n 24388: a1 = u64 [s1 + 0x118]\n 24392: a2 = 0x80 - a1\n 24396: a0 = u64 [s1 + 0xd8]\n 24400: a1 = u64 [s1 + 0xd0]\n 24404: ra = 1058, jump @1385\n      : @961 [@dyn 529] (gas: 1)\n 24410: t0 = 1060, jump @1351\n      : @962 [@dyn 530] (gas: 2)\n 24416: a1 = u64 [s1 + 0x50]\n 24419: t0 = 1062, jump @1377\n      : @963 [@dyn 531] (gas: 1)\n 24425: ra = 1064, jump @1380\n      : @964 [@dyn 532] (gas: 1)\n 24431: t0 = 1066, jump @1328\n      : @965 [@dyn 533] (gas: 1)\n 24437: t0 = 1068, jump @1337\n      : @966 [@dyn 534] (gas: 5)\n 24443: t0 = ra <u a2\n 24446: a4 = u64 [s1 + 0xa8]\n 24450: a5 = a4 <u a3\n 24453: a5 = t0 if t1 != 0\n 24456: t0 = 1070, jump @1344\n      : @967 [@dyn 535] (gas: 20)\n 24462: t0 = a0 | a1\n 24465: a1 = a4 << 0x1\n 24468: a4 = u64 [s1 + 0xf0]\n 24472: t1 = a4 >> 0x3f\n 24475: t1 = a1 | t1\n 24478: a1 = a4 << 0x1\n 24481: a4 = u64 [s1 + 0xf8]\n 24485: t2 = a4 >> 0x3f\n 24488: a1 = a1 | t2\n 24491: a4 = a4 << 0x1\n 24494: a0 = u64 [s1 + 0xd8]\n 24498: a4 = a4 | a0\n 24501: u64 [s1 + 0xf8] = a4\n 24505: a0 = u64 [s1 + 0xd0]\n 24509: a1 = a1 | a0\n 24512: u64 [s1 + 0xf0] = a1\n 24516: a1 = a0 | t1\n 24519: u64 [s1 + 0xe0] = a1\n 24523: a0 = a0 | t0\n 24526: t0 = 1072, jump @1312\n      : @968 [@dyn 536] (gas: 18)\n 24532: t0 = a4 <u a2\n 24535: a2 = a4 - a2\n 24538: a4 = a3 <u 0x1\n 24541: a5 = a5 - a4\n 24544: a4 = u64 [a0 + 0x8]\n 24547: a4 = a4 - t0\n 24550: a3 = a3 + 0xffffffffffffffff\n 24553: u64 [a0 + 0x10] = a5\n 24556: u64 [a0 + 0x8] = a4\n 24559: t0 = a5 | a4\n 24562: u64 [a0 + 0x18] = a3\n 24565: a4 = a3 | a2\n 24568: a3 = a4 | t0\n 24571: a4 = ra & 0x1\n 24574: u64 [s1 + 0xd8] = a4\n 24578: u64 [a0] = a2\n 24580: u64 [s1 + 208] = 0\n 24584: jump @965 if a3 != 0\n      : @969 (gas: 1)\n 24588: jump @1005\n      : @970 (gas: 2)\n 24591: a1 = a0 & 0x2\n 24594: jump @1069 if a1 != 0\n      : @971 (gas: 5)\n 24598: a0 = a0 & 0xfd\n 24602: u64 [s1 + 0x108] = a0\n 24606: a0 = s1 + 0x1640\n 24610: a1 = u64 [s1 + 0x110]\n 24614: ra = 1074, jump @11\n      : @972 [@dyn 537] (gas: 19)\n 24620: a3 = s1 + 0x1098\n 24624: a4 = a3 + 0x500\n 24628: a0 = u64 [a4 + 0xa8]\n 24632: a1 = u64 [a4 + 0xb0]\n 24636: a2 = u64 [a4 + 0xb8]\n 24640: a3 = u64 [a4 + 0xc0]\n 24644: a0 = a0 & 0xffffffffffffff00\n 24648: a4 = u64 [s1 + 0x108]\n 24652: a0 = a0 | a4\n 24655: a0 = a0 + 0x2\n 24658: a4 = s1 + 0x2098\n 24662: a5 = a4 + 0x700\n 24666: u64 [a5 + 0x80] = a3\n 24670: u64 [a5 + 0x78] = a2\n 24673: u64 [a5 + 0x70] = a1\n 24676: u64 [a5 + 0x68] = a0\n 24679: a1 = s1 + 0x2800\n 24683: a0 = u64 [s1 + 0x110]\n 24687: ra = 1076, jump @12\n      : @973 [@dyn 538] (gas: 6)\n 24693: a0 = u64 [s1 + 0x80]\n 24697: ra = 0x436\n 24701: ecalli 4 // 'caller'\n 24703: a2 = u64 [s1 + 0x88]\n 24707: t0 = 0x438\n 24711: jump @1311\n      : @974 [@dyn 539] (gas: 2)\n 24714: a2 = u64 [s1 + 0x88]\n 24718: t0 = 1080, jump @1311\n      : @975 [@dyn 540] (gas: 38)\n 24724: a0 = a0 | a1\n 24727: a3 = a3 >> 0x20\n 24730: a2 = reverse a2\n 24732: a1 = a2 << 0x20\n 24735: a1 = a1 | a3\n 24738: a2 = a2 >> 0x20\n 24741: a5 = s1 + 0x1098\n 24745: u64 [a5 + 1344] = 0\n 24749: u64 [a5 + 1336] = 0\n 24753: u64 [a5 + 1328] = 0\n 24757: a3 = u64 [s1 + 0x118]\n 24761: u64 [a5 + 0x528] = a3\n 24765: a3 = u64 [s1 + 0x78]\n 24768: u64 [a5 + 0x548] = a3\n 24772: a3 = u64 [0x20060]\n 24777: a4 = u64 [0x20068]\n 24782: u64 [a5 + 1376] = 0\n 24786: u64 [a5 + 1368] = 0\n 24790: u64 [a5 + 0x5a0] = a3\n 24794: u64 [a5 + 0x598] = a4\n 24798: a3 = u64 [0x20070]\n 24803: a4 = u64 [0x20078]\n 24808: u64 [a5 + 1360] = 0\n 24812: u64 [a5 + 1408] = 0\n 24816: u64 [a5 + 0x590] = a3\n 24820: a3 = a5 + 0x500\n 24824: u64 [a3 + 0x88] = a4\n 24828: u64 [a3 + 0x78] = a2\n 24831: u64 [a3 + 0x70] = a1\n 24834: a1 = a5\n 24836: a2 = s1 + 0x1620\n 24840: a3 = s1 + 0x1600\n 24844: a4 = s1 + 0x15e0\n 24848: a5 = s1 + 0x15c0\n 24852: u64 [a1 + 0x568] = a0\n 24856: a0 = 0\n 24858: a1 = 0\n 24860: ra = 1082, jump @18\n      : @976 [@dyn 541] (gas: 5)\n 24866: a0 = 0\n 24868: a1 = u64 [s1 + 0x90]\n 24872: a2 = 0\n 24874: ecalli 13 // 'seal_return'\n 24876: jump @874\n      : @977 (gas: 5)\n 24879: a0 = s1 + 0x7ff\n 24883: a0 = a0 + 0x7c1\n 24887: ra = 0x43c\n 24891: t0 = 0x50a\n 24895: jump @1364\n      : @978 [@dyn 542] (gas: 16)\n 24898: a1 = s1 + 0x7ff\n 24902: a1 = a1 + 0x99\n 24906: a2 = a1 + 0x700\n 24910: a0 = u64 [a2 + 0x40]\n 24913: u64 [s1 + 0x70] = a0\n 24916: a0 = u64 [a2 + 0x38]\n 24919: u64 [s1 + 0x78] = a0\n 24922: a0 = u64 [a2 + 0x30]\n 24925: u64 [s1 + 0xb8] = a0\n 24929: a0 = u64 [a2 + 0x28]\n 24932: u64 [s1 + 0xb0] = a0\n 24936: a0 = s1 + 0x7ff\n 24940: a0 = a0 + 0x7a1\n 24944: ra = 0x43e\n 24948: t0 = 0x50e\n 24952: jump @1379\n      : @979 [@dyn 543] (gas: 16)\n 24955: a1 = s1 + 0x7ff\n 24959: a1 = a1 + 0x99\n 24963: a2 = a1 + 0x700\n 24967: a0 = u64 [a2 + 0x20]\n 24970: u64 [s1 + 0x48] = a0\n 24973: a0 = u64 [a2 + 0x18]\n 24976: u64 [s1 + 0x40] = a0\n 24979: a0 = u64 [a2 + 0x10]\n 24982: u64 [s1 + 0x38] = a0\n 24985: a0 = u64 [a2 + 0x8]\n 24988: u64 [s1 + 0x30] = a0\n 24991: a0 = s1 + 0x7ff\n 24995: a0 = a0 + 0x781\n 24999: ra = 0x440\n 25003: t0 = 0x514\n 25007: jump @1379\n      : @980 [@dyn 544] (gas: 11)\n 25010: a0 = s1 + 0x7ff\n 25014: a0 = a0 + 0x99\n 25018: a2 = u32 [a0 + 0x6e8]\n 25022: a0 = a2 <u 0x1\n 25025: a1 = a2 + 0xffffffffffffffff\n 25028: a1 = a1 <u 0x32\n 25031: a1 = a1 ^ 0x1\n 25034: a1 = a0 if a2 == 0\n 25037: u64 [s1 + 0x90] = a2\n 25041: a1 = a0 if a2 == 0\n 25044: jump @1074 if a1 != 0\n      : @981 (gas: 17)\n 25048: a0 = u64 [s1 + 0x78]\n 25051: a0 = a0 << 0x20\n 25054: a2 = a0 >> 0x20\n 25057: a3 = s1 + 0x7ff\n 25061: a3 = a3 + 0x99\n 25065: u64 [a3 + 1728] = 0\n 25069: a0 = u64 [s1 + 0xb0]\n 25073: a4 = a3 + 0x600\n 25077: u64 [a4 + 0xa8] = a0\n 25081: a0 = u64 [s1 + 0xb8]\n 25085: u64 [a4 + 0xb0] = a0\n 25089: a1 = s1 + 0x7ff\n 25093: a1 = a1 + 0x741\n 25097: u64 [s1 + 0x88] = a2\n 25101: u64 [a4 + 0xb8] = a2\n 25105: a0 = 0\n 25107: ra = 1090, jump @9\n      : @982 [@dyn 545] (gas: 11)\n 25113: a1 = s1 + 0x7ff\n 25117: a1 = a1 + 0x99\n 25121: u64 [a1 + 1696] = 0\n 25125: u64 [a1 + 1688] = 0\n 25129: u64 [a1 + 1672] = 0x2\n 25134: a2 = a1\n 25136: a0 = 0x20\n 25139: a1 = s1 + 0x7ff\n 25143: a1 = a1 + 0x721\n 25147: u64 [a2 + 1680] = 0\n 25151: ra = 1092, jump @9\n      : @983 [@dyn 546] (gas: 4)\n 25157: a0 = 0x20170\n 25162: u64 [s1 + 0x118] = a0\n 25166: a0 = i32 [0x20170]\n 25171: jump @985 if a0 >u 63\n      : @984 (gas: 1)\n 25175: t0 = 1094, jump @1363\n      : @985 [@dyn 547] (gas: 16)\n 25181: a0 = 0xffffffff\n 25191: u64 [s1 + 0xc8] = a0\n 25195: a0 = sp + 0xffffffffffffffe0\n 25198: a2 = a0 & 0xffffffffffffffe0\n 25201: u64 [s1 + 0x108] = a2\n 25205: sp = a2\n 25207: a0 = 0x20180\n 25212: i32 a0 = a0 + 0\n 25214: i32 a2 = a2 + 0\n 25216: a1 = 0x40\n 25219: u64 [s1 + 0x110] = a0\n 25223: ra = 0x448\n 25227: ecalli 8 // 'hash_keccak_256'\n 25229: a3 = u64 [s1 + 0x108]\n 25233: t0 = 0x44a\n 25237: jump @1313\n      : @986 [@dyn 548] (gas: 2)\n 25240: a3 = u64 [s1 + 0x108]\n 25244: t0 = 1098, jump @1313\n      : @987 [@dyn 549] (gas: 9)\n 25250: a5 = a4 + 0x500\n 25254: u64 [a5 + 0x20] = a3\n 25257: u64 [a5 + 0x18] = a2\n 25260: u64 [a5 + 0x10] = a1\n 25263: u64 [a5 + 0x8] = a0\n 25266: a0 = s1 + 0x7ff\n 25270: a0 = a0 + 0x701\n 25274: a1 = s1 + 0x25a0\n 25278: ra = 1100, jump @11\n      : @988 [@dyn 550] (gas: 8)\n 25284: a0 = s1 + 0x7ff\n 25288: a0 = a0 + 0x99\n 25292: a0 = u64 [a0 + 0x668]\n 25296: u64 [s1 + 0x28] = a0\n 25299: a0 = s1 + 0x2000\n 25303: i32 a0 = a0 + 0x5c0\n 25307: ecalli 9 // 'now'\n 25309: fallthrough\n      : @989 (gas: 51)\n 25310: a0 = s1 + 0x2098\n 25314: t0 = u64 [a0 + 0x540]\n 25318: a4 = u64 [a0 + 0x538]\n 25322: u64 [s1 + 0xd0] = a4\n 25326: t2 = u64 [a0 + 0x530]\n 25330: a3 = u64 [a0 + 0x528]\n 25334: u64 [s1 + 0x108] = a3\n 25338: a0 = clz t0\n 25340: a1 = clz a4\n 25342: a2 = a1 + 0x40\n 25345: a2 = a0 if t0 != 0\n 25348: a0 = clz t2\n 25350: a1 = clz a3\n 25352: a1 = a1 + 0x40\n 25355: a1 = a0 if t2 != 0\n 25358: a0 = a1 + 0x80\n 25362: a3 = a4 | t0\n 25365: a2 = a0 if a3 == 0\n 25368: a5 = a0 <u a1\n 25371: a5 = 0 if a3 != 0\n 25373: a4 = a5 >u 0\n 25375: a0 = a2 <u 0xf0\n 25379: a3 = a0 ^ 0x1\n 25382: a4 = a3 if a5 == 0\n 25385: a0 = a4 <u 0x1\n 25388: ra = a0 + 0xffffffffffffffff\n 25391: t1 = -a4\n 25393: a5 = -a5\n 25395: a3 = a5 - a3\n 25398: a2 = 0xef - a2\n 25402: a5 = t1 >u 0\n 25404: a0 = ra >u 0\n 25406: a0 = a5 if ra == 0\n 25409: a5 = a2 <u 0x100\n 25413: a5 = a5 ^ 0x1\n 25416: a1 = a3 >u 0\n 25418: a5 = a1 if a3 != 0\n 25421: a5 = a0 if a4 != 0\n 25424: u64 [s1 + 0x100] = t2\n 25428: u64 [s1 + 0x98] = t0\n 25432: a0 = t2 | t0\n 25435: a4 = u64 [s1 + 0x108]\n 25439: a1 = u64 [s1 + 0xd0]\n 25443: a1 = a1 | a4\n 25446: a0 = a0 | a1\n 25449: a0 = a0 <u 0x1\n 25452: a0 = a0 | a5\n 25455: a1 = a4\n 25457: a1 = 0 if a0 != 0\n 25459: u64 [s1 + 0x80] = a1\n 25463: jump @1080 if a0 != 0\n      : @990 (gas: 1)\n 25467: t0 = 1102, jump @1370\n      : @991 [@dyn 551] (gas: 1)\n 25473: jump @1080 if a0 == 0\n      : @992 (gas: 18)\n 25477: a1 = a2 + 0x1\n 25480: u64 [s1 + 0xf8] = a1\n 25484: a0 = a1 <u 0x1\n 25487: a0 = a0 + a3\n 25490: u64 [s1 + 0xe8] = a0\n 25494: a0 = a0 | a1\n 25497: a0 = a0 <u 0x1\n 25500: a0 = a0 + t1\n 25503: u64 [s1 + 0xd8] = a0\n 25507: a0 = a0 <u t1\n 25510: a0 = a0 + ra\n 25513: u64 [s1 + 0xe0] = a0\n 25517: a1 = 0xff - a2\n 25521: u64 [s1 + 0xa0] = a1\n 25525: a2 = 0x80 - a1\n 25529: a0 = u64 [s1 + 0x108]\n 25533: a1 = u64 [s1 + 0x100]\n 25537: ra = 1104, jump @1380\n      : @993 [@dyn 552] (gas: 6)\n 25543: u64 [s1 + 0x80] = a0\n 25547: u64 [s1 + 0xa8] = a1\n 25551: a0 = u64 [s1 + 0xd0]\n 25555: a1 = u64 [s1 + 0x98]\n 25559: a2 = u64 [s1 + 0xa0]\n 25563: ra = 1106, jump @1385\n      : @994 [@dyn 553] (gas: 7)\n 25569: u64 [s1 + 0x68] = a0\n 25572: u64 [s1 + 0x60] = a1\n 25575: a0 = u64 [s1 + 0xa0]\n 25579: a2 = a0 + 0xffffffffffffff80\n 25582: a0 = u64 [s1 + 0x108]\n 25586: a1 = u64 [s1 + 0x100]\n 25590: ra = 1108, jump @1385\n      : @995 [@dyn 554] (gas: 8)\n 25596: u64 [s1 + 0x58] = a0\n 25599: u64 [s1 + 0x50] = a1\n 25602: a2 = u64 [s1 + 0xa0]\n 25606: a0 = a2 <u 0x80\n 25610: u64 [s1 + 0x20] = a0\n 25613: a0 = u64 [s1 + 0x108]\n 25617: a1 = u64 [s1 + 0x100]\n 25621: ra = 1110, jump @1385\n      : @996 [@dyn 555] (gas: 12)\n 25627: u64 [s1 + 0xf0] = a1\n 25631: a1 = u64 [s1 + 0xe8]\n 25635: a2 = u64 [s1 + 0xe0]\n 25639: a2 = a2 | a1\n 25642: a1 = u64 [s1 + 0xf8]\n 25646: a3 = u64 [s1 + 0xd8]\n 25650: a1 = a1 | a3\n 25653: a1 = a1 | a2\n 25656: a3 = u64 [s1 + 0x20]\n 25659: a0 = 0 if a3 == 0\n 25661: u64 [s1 + 0xc0] = a0\n 25665: jump @1078 if a1 == 0\n      : @997 (gas: 30)\n 25669: a2 = a3\n 25671: a0 = u64 [s1 + 0xa8]\n 25675: a1 = u64 [s1 + 0x60]\n 25678: a0 = a0 | a1\n 25681: a5 = a3\n 25683: a1 = u64 [s1 + 0x50]\n 25686: a0 = a1 if a2 == 0\n 25689: a2 = u64 [s1 + 0x98]\n 25693: a3 = a2\n 25695: a1 = a2\n 25697: a2 = u64 [s1 + 0xa0]\n 25701: a3 = a0 if a2 != 0\n 25704: u64 [s1 + 0xa8] = a3\n 25708: a0 = u64 [s1 + 0x80]\n 25712: a3 = u64 [s1 + 0x68]\n 25715: a0 = a0 | a3\n 25718: a3 = u64 [s1 + 0x58]\n 25721: a0 = a3 if a5 == 0\n 25724: a4 = u64 [s1 + 0xd0]\n 25728: a3 = a4\n 25730: a3 = a0 if a2 != 0\n 25733: u64 [s1 + 0xa0] = a3\n 25737: a0 = u64 [s1 + 0xf0]\n 25741: a0 = 0 if a5 == 0\n 25743: u64 [s1 + 0xf0] = a0\n 25747: u64 [s1 + 96] = 0x15180\n 25753: a0 = u64 [s1 + 0xf8]\n 25757: a2 = a0 + 0xffffffffffffff80\n 25760: a0 = a4\n 25762: ra = 1112, jump @1380\n      : @998 [@dyn 556] (gas: 6)\n 25768: u64 [s1 + 0x80] = a0\n 25772: u64 [s1 + 0x68] = a1\n 25775: a0 = u64 [s1 + 0x108]\n 25779: a1 = u64 [s1 + 0x100]\n 25783: a2 = u64 [s1 + 0xf8]\n 25787: ra = 1114, jump @1380\n      : @999 [@dyn 557] (gas: 7)\n 25793: u64 [s1 + 0x50] = a0\n 25796: u64 [s1 + 0x58] = a1\n 25799: a1 = u64 [s1 + 0xf8]\n 25803: a2 = 0x80 - a1\n 25807: a0 = u64 [s1 + 0xd0]\n 25811: a1 = u64 [s1 + 0x98]\n 25815: ra = 1116, jump @1385\n      : @1000 [@dyn 558] (gas: 21)\n 25821: a2 = u64 [s1 + 0x58]\n 25824: a1 = a1 | a2\n 25827: a2 = u64 [s1 + 0xf8]\n 25831: a3 = a2 <u 0x80\n 25835: u64 [s1 + 0x58] = a3\n 25838: a4 = u64 [s1 + 0x68]\n 25841: a1 = a4 if a3 == 0\n 25844: a5 = s1 + 0x100\n 25848: a4 = u64 [a5]\n 25850: a4 = a1 if a2 != 0\n 25853: u64 [a5] = a4\n 25855: a1 = u64 [s1 + 0x50]\n 25858: a0 = a0 | a1\n 25861: a1 = u64 [s1 + 0x80]\n 25865: a0 = a1 if a3 == 0\n 25868: a1 = u64 [a5 + 0x8]\n 25871: a1 = a0 if a2 != 0\n 25874: u64 [a5 + 0x8] = a1\n 25877: a0 = u64 [s1 + 0xd0]\n 25881: a1 = u64 [s1 + 0x98]\n 25885: ra = 1118, jump @1380\n      : @1001 [@dyn 559] (gas: 13)\n 25891: u64 [s1 + 208] = 0\n 25895: u64 [s1 + 152] = 0\n 25899: a2 = u64 [s1 + 0x58]\n 25902: a1 = 0 if a2 == 0\n 25904: u64 [s1 + 0x80] = a1\n 25908: a0 = 0 if a2 == 0\n 25910: a3 = u64 [s1 + 0x60]\n 25913: a2 = a3 + 0xffffffffffffffff\n 25916: u64 [s1 + 0x58] = a2\n 25919: a2 = a3 >u 0\n 25921: a2 = a2 + 0xffffffffffffffff\n 25924: u64 [s1 + 0x50] = a2\n 25927: fallthrough\n      : @1002 (gas: 91)\n 25928: a4 = u64 [s1 + 0x108]\n 25932: a2 = a4 >> 0x3f\n 25935: t1 = u64 [s1 + 0x100]\n 25939: a3 = t1 << 0x1\n 25942: ra = a3 | a2\n 25945: a3 = a4 << 0x1\n 25948: t2 = u64 [s1 + 0xa8]\n 25952: a4 = t2 >> 0x3f\n 25955: a3 = a3 | a4\n 25958: u64 [s1 + 0x68] = a3\n 25961: a2 = u64 [s1 + 0x50]\n 25964: a1 = a2 ^ ra\n 25967: t0 = a2 <u ra\n 25970: a4 = u64 [s1 + 0x58]\n 25973: a5 = a4 <u a3\n 25976: a5 = t0 if a1 != 0\n 25979: a1 = u64 [s1 + 0x80]\n 25983: a1 = a1 << 0x1\n 25986: a3 = a0 >> 0x3f\n 25989: a1 = a1 | a3\n 25992: u64 [s1 + 0x80] = a1\n 25996: a3 = t1 >> 0x3f\n 25999: a0 = a0 << 0x1\n 26002: a3 = a3 | a0\n 26005: a0 = t2 << 0x1\n 26008: a4 = u64 [s1 + 0xa0]\n 26012: a1 = a4 >> 0x3f\n 26015: t0 = a0 | a1\n 26018: a1 = a4 << 0x1\n 26021: a4 = u64 [s1 + 0xf0]\n 26025: t1 = a4 >> 0x3f\n 26028: t1 = a1 | t1\n 26031: a1 = a4 << 0x1\n 26034: a4 = u64 [s1 + 0xc0]\n 26038: t2 = a4 >> 0x3f\n 26041: a1 = a1 | t2\n 26044: a4 = a4 << 0x1\n 26047: a0 = u64 [s1 + 0xd0]\n 26051: a4 = a4 | a0\n 26054: u64 [s1 + 0xc0] = a4\n 26058: a0 = u64 [s1 + 0x98]\n 26062: a1 = a1 | a0\n 26065: u64 [s1 + 0xf0] = a1\n 26069: a1 = a0 | t1\n 26072: u64 [s1 + 0xa0] = a1\n 26076: a0 = a0 | t0\n 26079: u64 [s1 + 0xa8] = a0\n 26083: a0 = a2 - a3\n 26086: a0 = a0 <u a5\n 26089: a1 = a2 <u a3\n 26092: a5 = u64 [s1 + 0x80]\n 26096: a4 = a2 - a5\n 26099: a4 = a4 - a1\n 26102: a4 = a4 - a0\n 26105: t1 = a4 >>a 0x3f\n 26108: a0 = u64 [s1 + 0x60]\n 26111: a0 = t1 & a0\n 26114: a2 = u64 [s1 + 0x68]\n 26117: a1 = a2 - a0\n 26120: u64 [s1 + 0x108] = a1\n 26124: a1 = a2 <u a0\n 26127: a0 = ra - a1\n 26130: u64 [s1 + 0x100] = a0\n 26134: a1 = 0 if ra != 0\n 26136: a0 = a3 - a1\n 26139: a1 = a3 <u a1\n 26142: a1 = a5 - a1\n 26145: u64 [s1 + 0x80] = a1\n 26149: a5 = u64 [s1 + 0xf8]\n 26153: a3 = u64 [s1 + 0xe8]\n 26157: a2 = a5 | a3\n 26160: a2 = a2 <u 0x1\n 26163: a4 = u64 [s1 + 0xd8]\n 26167: t0 = a4 <u a2\n 26170: a2 = a4 - a2\n 26173: a4 = a5 <u 0x1\n 26176: a3 = a3 - a4\n 26179: a4 = u64 [s1 + 0xe0]\n 26183: a4 = a4 - t0\n 26186: a5 = a5 + 0xffffffffffffffff\n 26189: u64 [s1 + 0xe8] = a3\n 26193: u64 [s1 + 0xe0] = a4\n 26197: a3 = a3 | a4\n 26200: u64 [s1 + 0xf8] = a5\n 26204: a4 = a5 | a2\n 26207: a3 = a3 | a4\n 26210: a4 = t1 & 0x1\n 26213: u64 [s1 + 0xd0] = a4\n 26217: u64 [s1 + 0xd8] = a2\n 26221: u64 [s1 + 152] = 0\n 26225: jump @1002 if a3 != 0\n      : @1003 (gas: 1)\n 26229: jump @1079\n      : @1004 (gas: 2)\n 26232: u64 [s1 + 216] = 0\n 26236: fallthrough\n      : @1005 (gas: 5)\n 26237: a0 = u64 [s1 + 0xf8]\n 26241: a0 = a0 << 0x1\n 26244: a4 = u64 [s1 + 0xd8]\n 26248: a4 = a4 | a0\n 26251: fallthrough\n      : @1006 (gas: 2)\n 26252: a0 = u64 [s1 + 0x88]\n 26256: jump @1136 if a0 >=u a4\n      : @1007 (gas: 9)\n 26260: a0 = u64 [s1 + 0x58]\n 26263: a0 = a0 << 0x20\n 26266: a1 = a0 >> 0x20\n 26269: a0 = a1 + 0xffffffffffffffff\n 26272: a0 = a0 <u 0x32\n 26275: a0 = 0 if a1 == 0\n 26277: u64 [s1 + 0xb8] = a1\n 26281: a0 = 0 if a1 == 0\n 26283: jump @1140 if a0 == 0\n      : @1008 (gas: 20)\n 26287: a0 = 0xffffffff\n 26297: u64 [s1 + 0xf8] = a0\n 26301: a0 = u64 [s1 + 0x80]\n 26305: a0 = a0 << 0x20\n 26308: a2 = a0 >> 0x20\n 26311: a0 = s1 + 0x7ff\n 26315: a0 = a0 + 0x99\n 26319: u64 [a0 + 0] = 0\n 26321: a1 = u64 [s1 + 0x90]\n 26325: a3 = s1 + 0x1000\n 26329: u64 [a3 + 0xfffffffffffff880] = a1\n 26333: a1 = u64 [s1 + 0x98]\n 26337: a3 = s1 + 0x1000\n 26341: u64 [a3 + 0xfffffffffffff888] = a1\n 26345: a1 = s1 + 0x7ff\n 26349: a1 = a1 + 0x81\n 26353: u64 [s1 + 0xc0] = a2\n 26357: u64 [a0 + 0xfffffffffffffff8] = a2\n 26360: a0 = 0\n 26362: ra = 1120, jump @9\n      : @1009 [@dyn 560] (gas: 12)\n 26368: a0 = s1 + 0x1000\n 26372: u64 [a0 + 4294965368] = 0\n 26376: a0 = s1 + 0x1000\n 26380: u64 [a0 + 4294965360] = 0\n 26384: a1 = s1 + 0x1000\n 26388: u64 [a1 + 4294965344] = 0x2\n 26393: a0 = 0x20\n 26396: a1 = s1 + 0x7ff\n 26400: a1 = a1 + 0x61\n 26403: a2 = s1 + 0x1000\n 26407: u64 [a2 + 4294965352] = 0\n 26411: ra = 1122, jump @9\n      : @1010 [@dyn 561] (gas: 5)\n 26417: a0 = 0x20170\n 26422: u64 [s1 + 0x118] = a0\n 26426: a0 = i32 [0x20170]\n 26431: a1 = 0x3f\n 26434: jump @1012 if a1 <u a0\n      : @1011 (gas: 1)\n 26437: t0 = 1124, jump @1363\n      : @1012 [@dyn 562] (gas: 3)\n 26443: a0 = 0xffffffff00000000\n 26453: u64 [s1 + 0xb0] = a0\n 26457: t0 = 1126, jump @1369\n      : @1013 [@dyn 563] (gas: 10)\n 26463: a0 = 0x20180\n 26468: i32 a0 = a0 + 0\n 26470: i32 a2 = a2 + 0\n 26472: a1 = 0x40\n 26475: u64 [s1 + 0x108] = a0\n 26479: ra = 0x468\n 26483: ecalli 8 // 'hash_keccak_256'\n 26485: a3 = u64 [s1 + 0x110]\n 26489: t0 = 0x46a\n 26493: jump @1313\n      : @1014 [@dyn 564] (gas: 2)\n 26496: a3 = u64 [s1 + 0x110]\n 26500: t0 = 1130, jump @1313\n      : @1015 [@dyn 565] (gas: 9)\n 26506: a5 = a4 + 0x300\n 26510: u64 [a5 + 0xc0] = a3\n 26514: u64 [a5 + 0xb8] = a2\n 26518: u64 [a5 + 0xb0] = a1\n 26522: u64 [a5 + 0xa8] = a0\n 26526: a0 = s1 + 0x7ff\n 26530: a0 = a0 + 0x41\n 26533: a1 = s1 + 0x2440\n 26537: ra = 1132, jump @11\n      : @1016 [@dyn 566] (gas: 9)\n 26543: a0 = s1 + 0x1000\n 26547: a0 = u64 [a0 + 0xfffffffffffff840]\n 26551: u64 [s1 + 200] = 0\n 26555: a3 = 0\n 26557: a1 = u64 [s1 + 0xf8]\n 26561: a0 = a0 & a1\n 26564: u64 [s1 + 0xa8] = a0\n 26568: a2 = 0x1\n 26571: fallthrough\n      : @1017 (gas: 11)\n 26572: a1 = 0\n 26574: a1 = 0 if a3 == 0\n 26576: a0 = u64 [s1 + 0xa8]\n 26580: u64 [s1 + 0x110] = a2\n 26584: a0 = a0 <u a2\n 26587: a2 = 0\n 26589: a2 = a0 if a3 == 0\n 26592: u64 [s1 + 256] = 0\n 26596: a0 = 0\n 26598: a2 = a1 if a0 != 0\n 26601: jump @1144 if a2 != 0\n      : @1018 (gas: 5)\n 26605: a0 = u64 [s1 + 0xf8]\n 26609: a1 = u64 [s1 + 0xc8]\n 26613: a0 = a0 & a1\n 26616: a1 = u64 [s1 + 0xb8]\n 26620: jump @1144 if a0 >=u a1\n      : @1019 (gas: 15)\n 26624: a0 = s1 + 0x1000\n 26628: u64 [a0 + 4294965304] = 0\n 26632: a0 = u64 [s1 + 0x90]\n 26636: a1 = s1 + 0x1000\n 26640: u64 [a1 + 0xfffffffffffff820] = a0\n 26644: a0 = u64 [s1 + 0x98]\n 26648: a1 = s1 + 0x1000\n 26652: u64 [a1 + 0xfffffffffffff828] = a0\n 26656: a1 = s1 + 0x7ff\n 26660: a1 = a1 + 0x21\n 26663: a0 = u64 [s1 + 0xc0]\n 26667: a2 = s1 + 0x1000\n 26671: u64 [a2 + 0xfffffffffffff830] = a0\n 26675: a0 = 0\n 26677: ra = 1134, jump @9\n      : @1020 [@dyn 567] (gas: 12)\n 26683: a0 = s1 + 0x1000\n 26687: u64 [a0 + 4294965272] = 0\n 26691: a0 = s1 + 0x1000\n 26695: u64 [a0 + 4294965264] = 0\n 26699: a0 = s1 + 0x1000\n 26703: u64 [a0 + 4294965256] = 0\n 26707: a0 = 0x20\n 26710: a1 = s1 + 0x7ff\n 26714: a1 = a1 + 0x1\n 26717: a3 = s1 + 0x1000\n 26721: u64 [a3 + 4294965248] = 0x1\n 26726: ra = 1136, jump @9\n      : @1021 [@dyn 568] (gas: 1)\n 26732: t0 = 1138, jump @1348\n      : @1022 [@dyn 569] (gas: 1)\n 26738: jump @1024 if a1 <u a0\n      : @1023 (gas: 1)\n 26741: t0 = 1140, jump @1363\n      : @1024 [@dyn 570] (gas: 1)\n 26747: t0 = 1142, jump @1335\n      : @1025 [@dyn 571] (gas: 4)\n 26753: ra = 0x478\n 26757: ecalli 8 // 'hash_keccak_256'\n 26759: t0 = 0x47a\n 26763: jump @1322\n      : @1026 [@dyn 572] (gas: 1)\n 26766: t0 = 1146, jump @1322\n      : @1027 [@dyn 573] (gas: 8)\n 26772: u64 [s1 + 0x7f8] = a0\n 26776: u64 [s1 + 0x7f0] = a0\n 26780: u64 [s1 + 0x7e8] = a0\n 26784: a1 = s1 + 0x7e0\n 26788: a0 = u64 [s1 + 0x110]\n 26792: u64 [s1 + 0x7e0] = a0\n 26796: a0 = 0\n 26798: ra = 1148, jump @9\n      : @1028 [@dyn 574] (gas: 12)\n 26804: a0 = u64 [s1 + 0xd0]\n 26808: a3 = s1 + 0x700\n 26812: u64 [a3 + 0xd8] = a0\n 26816: a0 = u64 [s1 + 0xd8]\n 26820: u64 [a3 + 0xd0] = a0\n 26824: a0 = u64 [s1 + 0xe0]\n 26828: u64 [a3 + 0xc8] = a0\n 26832: a0 = 0x20\n 26835: a1 = s1 + 0x7c0\n 26839: a2 = u64 [s1 + 0xe8]\n 26843: u64 [a3 + 0xc0] = a2\n 26847: ra = 1150, jump @9\n      : @1029 [@dyn 575] (gas: 1)\n 26853: t0 = 1152, jump @1348\n      : @1030 [@dyn 576] (gas: 1)\n 26859: jump @1032 if a1 <u a0\n      : @1031 (gas: 1)\n 26862: t0 = 1154, jump @1371\n      : @1032 [@dyn 577] (gas: 1)\n 26868: t0 = 1156, jump @1360\n      : @1033 [@dyn 578] (gas: 5)\n 26874: ra = 0x486\n 26878: ecalli 8 // 'hash_keccak_256'\n 26880: a3 = u64 [s1 + 0xe8]\n 26884: t0 = 0x488\n 26888: jump @1357\n      : @1034 [@dyn 579] (gas: 2)\n 26891: a3 = u64 [s1 + 0xe8]\n 26895: t0 = 1160, jump @1357\n      : @1035 [@dyn 580] (gas: 11)\n 26901: a1 = u64 [s1 + 0xf0]\n 26905: u64 [s1 + 0xe0] = a2\n 26909: u64 [a1 + 0x18] = a2\n 26912: u64 [s1 + 0xe8] = a0\n 26916: u64 [a1 + 0x10] = a0\n 26919: u64 [s1 + 0xd8] = a4\n 26923: u64 [a1 + 0x8] = a4\n 26926: u64 [s1 + 0xd0] = a5\n 26930: u64 [a1] = a5\n 26932: a0 = s1 + 0x7a0\n 26936: ra = 1162, jump @11\n      : @1036 [@dyn 581] (gas: 11)\n 26942: a3 = s1 + 0x700\n 26946: a0 = u64 [a3 + 0xa8]\n 26950: a1 = u64 [a3 + 0xb0]\n 26954: a2 = u64 [a3 + 0xa0]\n 26958: a0 = a0 & 0xffffffffffffffff\n 26961: a1 = a1 & 0xffffffffffffffff\n 26964: a3 = u64 [s1 + 0xb0]\n 26968: a2 = a2 & a3\n 26971: a1 = a1 | a2\n 26974: a0 = a0 | a1\n 26977: jump @1068 if a0 == 0\n      : @1037 (gas: 5)\n 26981: a1 = u64 [s1 + 0xd0]\n 26985: a0 = a1 + 0x2\n 26988: a1 = a0 <u a1\n 26991: a3 = u64 [s1 + 0xd8]\n 26995: t0 = 1164, jump @1349\n      : @1038 [@dyn 582] (gas: 14)\n 27001: a1 = u64 [s1 + 0xe8]\n 27005: a3 = a3 + a1\n 27008: a1 = a3 <u a1\n 27011: a4 = u64 [s1 + 0xe0]\n 27015: a1 = a1 + a4\n 27018: a4 = s1 + 0x2098\n 27022: a5 = a4 + 0x300\n 27026: u64 [a5 + 0xc8] = a0\n 27030: u64 [a5 + 0xd0] = a2\n 27034: u64 [a5 + 0xd8] = a3\n 27038: u64 [a5 + 0xe0] = a1\n 27042: a0 = s1 + 0x780\n 27046: a1 = s1 + 0x2460\n 27050: ra = 1166, jump @11\n      : @1039 [@dyn 583] (gas: 3)\n 27056: a0 = u64 [s1 + 0x788]\n 27060: a0 = a0 & 0xff\n 27064: jump @1068 if a0 != 0\n      : @1040 (gas: 10)\n 27068: u64 [s1 + 1912] = 0\n 27072: a0 = u64 [s1 + 0x90]\n 27076: u64 [s1 + 0x760] = a0\n 27080: a0 = u64 [s1 + 0x98]\n 27084: u64 [s1 + 0x768] = a0\n 27088: a1 = s1 + 0x760\n 27092: a0 = u64 [s1 + 0xc0]\n 27096: u64 [s1 + 0x770] = a0\n 27100: a0 = 0\n 27102: ra = 1168, jump @9\n      : @1041 [@dyn 584] (gas: 7)\n 27108: u64 [s1 + 1880] = 0\n 27112: u64 [s1 + 1872] = 0\n 27116: u64 [s1 + 1864] = 0\n 27120: a0 = 0x20\n 27123: a1 = s1 + 0x740\n 27127: u64 [s1 + 1856] = 0x3\n 27132: ra = 1170, jump @9\n      : @1042 [@dyn 585] (gas: 1)\n 27138: t0 = 1172, jump @1348\n      : @1043 [@dyn 586] (gas: 1)\n 27144: jump @1045 if a1 <u a0\n      : @1044 (gas: 1)\n 27147: t0 = 1174, jump @1371\n      : @1045 [@dyn 587] (gas: 1)\n 27153: t0 = 1176, jump @1335\n      : @1046 [@dyn 588] (gas: 4)\n 27159: ra = 0x49a\n 27163: ecalli 8 // 'hash_keccak_256'\n 27165: t0 = 0x49c\n 27169: jump @1340\n      : @1047 [@dyn 589] (gas: 1)\n 27172: t0 = 1180, jump @1340\n      : @1048 [@dyn 590] (gas: 8)\n 27178: u64 [s1 + 1848] = 0\n 27182: u64 [s1 + 1840] = 0\n 27186: u64 [s1 + 1832] = 0\n 27190: a1 = s1 + 0x720\n 27194: a0 = u64 [s1 + 0x88]\n 27198: u64 [s1 + 0x720] = a0\n 27202: a0 = 0\n 27204: ra = 1182, jump @9\n      : @1049 [@dyn 591] (gas: 12)\n 27210: a0 = u64 [s1 + 0xd8]\n 27214: a3 = s1 + 0x700\n 27218: u64 [a3 + 0x18] = a0\n 27221: a0 = u64 [s1 + 0xe0]\n 27225: u64 [a3 + 0x10] = a0\n 27228: a0 = u64 [s1 + 0xe8]\n 27232: u64 [a3 + 0x8] = a0\n 27235: a0 = 0x20\n 27238: a1 = s1 + 0x700\n 27242: a2 = u64 [s1 + 0xf0]\n 27246: u64 [a3] = a2\n 27248: ra = 1184, jump @9\n      : @1050 [@dyn 592] (gas: 1)\n 27254: t0 = 1186, jump @1348\n      : @1051 [@dyn 593] (gas: 1)\n 27260: jump @1053 if a1 <u a0\n      : @1052 (gas: 1)\n 27263: t0 = 1188, jump @1371\n      : @1053 [@dyn 594] (gas: 1)\n 27269: t0 = 1190, jump @1335\n      : @1054 [@dyn 595] (gas: 4)\n 27275: ra = 0x4a8\n 27279: ecalli 8 // 'hash_keccak_256'\n 27281: t0 = 0x4aa\n 27285: jump @1322\n      : @1055 [@dyn 596] (gas: 1)\n 27288: t0 = 1194, jump @1322\n      : @1056 [@dyn 597] (gas: 8)\n 27294: u64 [s1 + 0x6f8] = a0\n 27298: u64 [s1 + 0x6f0] = a0\n 27302: u64 [s1 + 0x6e8] = a0\n 27306: a1 = s1 + 0x6e0\n 27310: a0 = u64 [s1 + 0x110]\n 27314: u64 [s1 + 0x6e0] = a0\n 27318: a0 = 0\n 27320: ra = 1196, jump @9\n      : @1057 [@dyn 598] (gas: 12)\n 27326: a0 = u64 [s1 + 0xd0]\n 27330: a3 = s1 + 0x600\n 27334: u64 [a3 + 0xd8] = a0\n 27338: a0 = u64 [s1 + 0xd8]\n 27342: u64 [a3 + 0xd0] = a0\n 27346: a0 = u64 [s1 + 0xe0]\n 27350: u64 [a3 + 0xc8] = a0\n 27354: a0 = 0x20\n 27357: a1 = s1 + 0x6c0\n 27361: a2 = u64 [s1 + 0xe8]\n 27365: u64 [a3 + 0xc0] = a2\n 27369: ra = 1198, jump @9\n      : @1058 [@dyn 599] (gas: 1)\n 27375: t0 = 1200, jump @1348\n      : @1059 [@dyn 600] (gas: 1)\n 27381: jump @1061 if a1 <u a0\n      : @1060 (gas: 1)\n 27384: t0 = 1202, jump @1371\n      : @1061 [@dyn 601] (gas: 1)\n 27390: t0 = 1204, jump @1360\n      : @1062 [@dyn 602] (gas: 5)\n 27396: ra = 0x4b6\n 27400: ecalli 8 // 'hash_keccak_256'\n 27402: a3 = u64 [s1 + 0xe8]\n 27406: t0 = 0x4b8\n 27410: jump @1339\n      : @1063 [@dyn 603] (gas: 2)\n 27413: a3 = u64 [s1 + 0xe8]\n 27417: t0 = 1208, jump @1339\n      : @1064 [@dyn 604] (gas: 2)\n 27423: a0 = s1 + 0x6a0\n 27427: ra = 1210, jump @11\n      : @1065 [@dyn 605] (gas: 3)\n 27433: a0 = u64 [s1 + 0x6a0]\n 27437: a0 = a0 & 0x5\n 27440: jump @1068 if a0 != 1\n      : @1066 (gas: 27)\n 27444: a0 = u64 [s1 + 0x110]\n 27448: a4 = s1 + 0x600\n 27452: u64 [a4 + 0x40] = a0\n 27455: a0 = u64 [s1 + 0x88]\n 27459: u64 [a4 + 0x60] = a0\n 27462: a0 = u64 [s1 + 0x90]\n 27466: u64 [a4 + 0x80] = a0\n 27470: a1 = u64 [s1 + 0x100]\n 27474: u64 [a4 + 0x48] = a1\n 27477: a0 = u64 [s1 + 0x60]\n 27480: u64 [a4 + 0x68] = a0\n 27483: a0 = u64 [s1 + 0x98]\n 27487: u64 [a4 + 0x88] = a0\n 27491: u64 [a4 + 0x50] = a1\n 27494: a0 = u64 [s1 + 0x68]\n 27497: u64 [a4 + 0x70] = a0\n 27500: a0 = u64 [s1 + 0x80]\n 27504: u64 [a4 + 0x90] = a0\n 27508: u64 [a4 + 0x58] = a1\n 27511: a0 = u64 [s1 + 0x70]\n 27514: u64 [a4 + 0x78] = a0\n 27517: a0 = s1 + 0x680\n 27521: a1 = s1 + 0x660\n 27525: a2 = s1 + 0x640\n 27529: a3 = u64 [s1 + 0x78]\n 27532: u64 [a4 + 0x98] = a3\n 27536: ra = 1212, jump @1169\n      : @1067 [@dyn 606] (gas: 6)\n 27542: a0 = u64 [s1 + 0xc8]\n 27546: a0 = a0 + 0x1\n 27549: a1 = u64 [s1 + 0xf8]\n 27553: a0 = a0 & a1\n 27556: u64 [s1 + 0xc8] = a0\n 27560: fallthrough\n      : @1068 (gas: 6)\n 27561: a3 = 0\n 27563: a0 = u64 [s1 + 0x110]\n 27567: a0 = a0 + 0x1\n 27570: a1 = u64 [s1 + 0xf8]\n 27574: a2 = a0 & a1\n 27577: jump @1017\n      : @1069 (gas: 3)\n 27580: t0 = 0x4be\n 27584: a2 = s1 + 0x1098\n 27588: fallthrough\n      : @1070 [@dyn 607] (gas: 8)\n 27589: u64 [a2 + 1496] = 0\n 27593: u64 [a2 + 1488] = 0\n 27597: a0 = 0xc98289f000000000\n 27607: u64 [a2 + 0x5e0] = a0\n 27611: a1 = s1 + 0x1660\n 27615: u64 [a2 + 1480] = 0\n 27619: a0 = 0\n 27621: ra = 1216, jump @9\n      : @1071 [@dyn 608] (gas: 3)\n 27627: a0 = u64 [s1 + 0x98]\n 27631: a0 = i32 [a0]\n 27633: jump @1073 if a0 >u 31\n      : @1072 (gas: 3)\n 27637: a1 = u64 [s1 + 0x98]\n 27641: u32 [a1 + 0] = 0x20\n 27644: fallthrough\n      : @1073 (gas: 5)\n 27645: a0 = 0x1\n 27648: a2 = 0x4\n 27651: a1 = u64 [s1 + 0x90]\n 27655: ecalli 13 // 'seal_return'\n 27657: fallthrough\n      : @1074 (gas: 11)\n 27658: a2 = s1 + 0x7ff\n 27662: a2 = a2 + 0x99\n 27666: u64 [a2 + 1752] = 0\n 27670: u64 [a2 + 1744] = 0\n 27674: a0 = 0x7862e95900000000\n 27684: u64 [a2 + 0x6e0] = a0\n 27688: a1 = s1 + 0x7ff\n 27692: a1 = a1 + 0x761\n 27696: u64 [a2 + 1736] = 0\n 27700: a0 = 0\n 27702: ra = 1218, jump @9\n      : @1075 [@dyn 609] (gas: 2)\n 27708: a1 = i32 [0x20170]\n 27713: jump @1077 if a1 >u 31\n      : @1076 (gas: 3)\n 27717: u32 [0x20170] = 0x20\n 27723: a1 = 0x20180\n 27728: jump @697\n      : @1077 (gas: 2)\n 27731: a1 = 0x20180\n 27736: jump @697\n      : @1078 (gas: 2)\n 27739: u64 [s1 + 208] = 0\n 27743: fallthrough\n      : @1079 (gas: 6)\n 27744: a0 = u64 [s1 + 0xc0]\n 27748: a0 = a0 << 0x1\n 27751: a1 = u64 [s1 + 0xd0]\n 27755: a0 = a0 | a1\n 27758: u64 [s1 + 0x80] = a0\n 27762: fallthrough\n      : @1080 (gas: 10)\n 27763: u64 [s1 + 256] = 0\n 27767: a3 = 0\n 27769: a0 = u64 [s1 + 0xc8]\n 27773: a1 = u64 [s1 + 0x28]\n 27776: a0 = a0 & a1\n 27779: u64 [s1 + 0x68] = a0\n 27782: a0 = 0xffffffff00000000\n 27792: u64 [s1 + 0x60] = a0\n 27795: a2 = 0x1\n 27798: fallthrough\n      : @1081 (gas: 11)\n 27799: a1 = 0\n 27801: a1 = 0 if a3 == 0\n 27803: a0 = u64 [s1 + 0x68]\n 27806: u64 [s1 + 0xd0] = a2\n 27810: a0 = a0 <u a2\n 27813: a2 = 0\n 27815: a2 = a0 if a3 == 0\n 27818: u64 [s1 + 192] = 0\n 27822: a0 = 0\n 27824: a2 = a1 if a0 != 0\n 27827: jump @1083 if a2 == 0\n      : @1082 (gas: 1)\n 27830: jump @910\n      : @1083 (gas: 5)\n 27833: a0 = u64 [s1 + 0xc8]\n 27837: a1 = u64 [s1 + 0x100]\n 27841: a0 = a0 & a1\n 27844: a1 = u64 [s1 + 0x90]\n 27848: jump @1085 if a0 <u a1\n      : @1084 (gas: 1)\n 27851: jump @910\n      : @1085 (gas: 14)\n 27854: a2 = s1 + 0x7ff\n 27858: a2 = a2 + 0x99\n 27862: u64 [a2 + 1632] = 0\n 27866: a0 = u64 [s1 + 0xb0]\n 27870: a3 = a2 + 0x600\n 27874: u64 [a3 + 0x48] = a0\n 27877: a0 = u64 [s1 + 0xb8]\n 27881: u64 [a3 + 0x50] = a0\n 27884: a1 = s1 + 0x7ff\n 27888: a1 = a1 + 0x6e1\n 27892: a0 = u64 [s1 + 0x88]\n 27896: u64 [a3 + 0x58] = a0\n 27899: a0 = 0\n 27901: ra = 1220, jump @9\n      : @1086 [@dyn 610] (gas: 11)\n 27907: a0 = s1 + 0x7ff\n 27911: a0 = a0 + 0x99\n 27915: u64 [a0 + 1600] = 0\n 27919: u64 [a0 + 1592] = 0\n 27923: u64 [a0 + 1584] = 0\n 27927: a3 = a0\n 27929: a0 = 0x20\n 27932: a1 = s1 + 0x7ff\n 27936: a1 = a1 + 0x6c1\n 27940: u64 [a3 + 1576] = 0x1\n 27945: ra = 1222, jump @9\n      : @1087 [@dyn 611] (gas: 1)\n 27951: t0 = 1224, jump @1348\n      : @1088 [@dyn 612] (gas: 1)\n 27957: jump @1090 if a1 <u a0\n      : @1089 (gas: 1)\n 27960: t0 = 1226, jump @1363\n      : @1090 [@dyn 613] (gas: 4)\n 27966: a0 = sp + 0xffffffffffffffe0\n 27969: a0 = a0 & 0xffffffffffffffe0\n 27972: u64 [s1 + 0x108] = a0\n 27976: t0 = 1228, jump @1310\n      : @1091 [@dyn 614] (gas: 5)\n 27982: ra = 0x4ce\n 27986: ecalli 8 // 'hash_keccak_256'\n 27988: a3 = u64 [s1 + 0x108]\n 27992: t0 = 0x4d0\n 27996: jump @1333\n      : @1092 [@dyn 615] (gas: 2)\n 27999: a3 = u64 [s1 + 0x108]\n 28003: t0 = 1232, jump @1333\n      : @1093 [@dyn 616] (gas: 15)\n 28009: u64 [s1 + 0x108] = a0\n 28013: sp = a0\n 28015: a2 = s1 + 0x7ff\n 28019: a2 = a2 + 0x99\n 28023: a0 = u64 [s1 + 0xc0]\n 28027: a3 = a2 + 0x600\n 28031: u64 [a3 + 0x20] = a0\n 28034: u64 [a3 + 0x18] = a0\n 28037: u64 [a3 + 0x10] = a0\n 28040: a1 = s1 + 0x7ff\n 28044: a1 = a1 + 0x6a1\n 28048: a0 = u64 [s1 + 0xd0]\n 28052: u64 [a3 + 0x8] = a0\n 28055: a0 = 0\n 28057: ra = 1234, jump @9\n      : @1094 [@dyn 617] (gas: 15)\n 28063: a0 = u64 [s1 + 0xe0]\n 28067: a1 = s1 + 0x7ff\n 28071: a1 = a1 + 0x99\n 28075: u64 [a1 + 0x600] = a0\n 28079: a0 = u64 [s1 + 0xe8]\n 28083: u64 [a1 + 0x5f8] = a0\n 28087: a0 = u64 [s1 + 0xf0]\n 28091: u64 [a1 + 0x5f0] = a0\n 28095: a3 = a1\n 28097: a0 = 0x20\n 28100: a1 = s1 + 0x7ff\n 28104: a1 = a1 + 0x681\n 28108: a2 = u64 [s1 + 0xf8]\n 28112: u64 [a3 + 0x5e8] = a2\n 28116: ra = 1236, jump @9\n      : @1095 [@dyn 618] (gas: 1)\n 28122: t0 = 1238, jump @1348\n      : @1096 [@dyn 619] (gas: 1)\n 28128: jump @1098 if a1 <u a0\n      : @1097 (gas: 1)\n 28131: t0 = 1240, jump @1371\n      : @1098 [@dyn 620] (gas: 4)\n 28137: a0 = sp + 0xffffffffffffffe0\n 28140: a0 = a0 & 0xffffffffffffffe0\n 28143: u64 [s1 + 0xf8] = a0\n 28147: t0 = 1242, jump @1310\n      : @1099 [@dyn 621] (gas: 5)\n 28153: ra = 0x4dc\n 28157: ecalli 8 // 'hash_keccak_256'\n 28159: a3 = u64 [s1 + 0xf8]\n 28163: t0 = 0x4de\n 28167: jump @1357\n      : @1100 [@dyn 622] (gas: 2)\n 28170: a3 = u64 [s1 + 0xf8]\n 28174: t0 = 1246, jump @1357\n      : @1101 [@dyn 623] (gas: 12)\n 28180: a1 = u64 [s1 + 0x108]\n 28184: u64 [s1 + 0xf0] = a2\n 28188: u64 [a1 + 0x18] = a2\n 28191: u64 [s1 + 0xf8] = a0\n 28195: u64 [a1 + 0x10] = a0\n 28198: u64 [s1 + 0xe8] = a4\n 28202: u64 [a1 + 0x8] = a4\n 28205: u64 [s1 + 0xe0] = a5\n 28209: u64 [a1] = a5\n 28211: a0 = s1 + 0x7ff\n 28215: a0 = a0 + 0x661\n 28219: ra = 1248, jump @11\n      : @1102 [@dyn 624] (gas: 13)\n 28225: a2 = s1 + 0x7ff\n 28229: a2 = a2 + 0x99\n 28233: a3 = a2 + 0x500\n 28237: a0 = u64 [a3 + 0xd0]\n 28241: a1 = u64 [a3 + 0xd8]\n 28245: a2 = u64 [a3 + 0xc8]\n 28249: a0 = a0 & 0xffffffffffffffff\n 28252: a1 = a1 & 0xffffffffffffffff\n 28255: a3 = u64 [s1 + 0x60]\n 28258: a2 = a2 & a3\n 28261: a1 = a1 | a2\n 28264: a0 = a0 | a1\n 28267: jump @1105 if a0 == 0\n      : @1103 (gas: 26)\n 28270: a0 = u64 [s1 + 0xe0]\n 28274: a2 = a0 + 0x2\n 28277: a0 = a2 <u a0\n 28280: a1 = u64 [s1 + 0xe8]\n 28284: a3 = a1 + a0\n 28287: a1 = a3 <u a1\n 28290: a1 = a0 if a0 == 0\n 28293: a0 = u64 [s1 + 0xf8]\n 28297: a4 = a0 + a1\n 28300: a0 = a4 <u a0\n 28303: a1 = u64 [s1 + 0xf0]\n 28307: a1 = a1 + a0\n 28310: a0 = s1 + 0x2098\n 28314: u64 [s1 + 0x108] = a2\n 28318: a5 = a0 + 0x500\n 28322: u64 [a5 + 0x48] = a2\n 28325: u64 [s1 + 0xf8] = a3\n 28329: u64 [a5 + 0x50] = a3\n 28332: u64 [s1 + 0xf0] = a4\n 28336: u64 [a5 + 0x58] = a4\n 28339: u64 [s1 + 0xe8] = a1\n 28343: u64 [a5 + 0x60] = a1\n 28346: a0 = s1 + 0x7ff\n 28350: a0 = a0 + 0x641\n 28354: a1 = s1 + 0x25e0\n 28358: ra = 1250, jump @11\n      : @1104 [@dyn 625] (gas: 5)\n 28364: a0 = s1 + 0x7ff\n 28368: a0 = a0 + 0x99\n 28372: a0 = u64 [a0 + 0x5b0]\n 28376: a0 = a0 & 0xff\n 28380: jump @1106 if a0 == 0\n      : @1105 (gas: 6)\n 28383: a3 = 0\n 28385: a0 = u64 [s1 + 0xd0]\n 28389: a0 = a0 + 0x1\n 28392: a1 = u64 [s1 + 0xc8]\n 28396: a2 = a0 & a1\n 28399: jump @1081\n      : @1106 (gas: 14)\n 28402: a0 = s1 + 0x2098\n 28406: a1 = u64 [s1 + 0x108]\n 28410: a2 = a0 + 0x500\n 28414: u64 [a2 + 0x68] = a1\n 28417: a1 = u64 [s1 + 0xf8]\n 28421: u64 [a2 + 0x70] = a1\n 28424: a1 = u64 [s1 + 0xf0]\n 28428: u64 [a2 + 0x78] = a1\n 28431: a1 = u64 [s1 + 0xe8]\n 28435: u64 [a2 + 0x80] = a1\n 28439: a0 = s1 + 0x7ff\n 28443: a0 = a0 + 0x621\n 28447: a1 = s1 + 0x2600\n 28451: ra = 1252, jump @11\n      : @1107 [@dyn 626] (gas: 14)\n 28457: a3 = s1 + 0x7ff\n 28461: a3 = a3 + 0x99\n 28465: a0 = u64 [a3 + 0x588]\n 28469: a4 = a0 & 0xffffffffffffffff\n 28472: a1 = u64 [s1 + 0x30]\n 28475: a0 = a4 <u a1\n 28478: a4 = a1 if a0 != 0\n 28481: t0 = u64 [s1 + 0x48]\n 28484: t0 = 0 if a0 == 0\n 28486: a5 = u64 [s1 + 0x40]\n 28489: a5 = 0 if a0 == 0\n 28491: a1 = u64 [s1 + 0x38]\n 28494: a1 = 0 if a0 == 0\n 28496: fallthrough\n      : @1108 (gas: 3)\n 28497: a2 = a4 & 0xffffffffffffffff\n 28500: a0 = u64 [s1 + 0x80]\n 28504: jump @1105 if a2 >=u a0\n      : @1109 (gas: 10)\n 28507: u64 [s1 + 0xf8] = a2\n 28511: u64 [s1 + 0x98] = a1\n 28515: u64 [s1 + 0xa0] = a5\n 28519: u64 [s1 + 0xa8] = t0\n 28523: u64 [s1 + 0x108] = a4\n 28527: a0 = u64 [s1 + 0xc8]\n 28531: a1 = u64 [s1 + 0x100]\n 28535: a0 = a0 & a1\n 28538: a1 = u64 [s1 + 0x90]\n 28542: jump @1105 if a0 >=u a1\n      : @1110 (gas: 12)\n 28546: u64 [a3 + 1408] = 0\n 28550: a0 = u64 [s1 + 0xb0]\n 28554: a2 = a3 + 0x500\n 28558: u64 [a2 + 0x68] = a0\n 28561: a0 = u64 [s1 + 0xb8]\n 28565: u64 [a2 + 0x70] = a0\n 28568: a1 = s1 + 0x7ff\n 28572: a1 = a1 + 0x601\n 28576: a0 = u64 [s1 + 0x88]\n 28580: u64 [a2 + 0x78] = a0\n 28583: a0 = 0\n 28585: ra = 1254, jump @9\n      : @1111 [@dyn 627] (gas: 11)\n 28591: a0 = s1 + 0x7ff\n 28595: a0 = a0 + 0x99\n 28599: u64 [a0 + 1376] = 0\n 28603: u64 [a0 + 1368] = 0\n 28607: u64 [a0 + 1360] = 0\n 28611: a3 = a0\n 28613: a0 = 0x20\n 28616: a1 = s1 + 0x7ff\n 28620: a1 = a1 + 0x5e1\n 28624: u64 [a3 + 1352] = 0x3\n 28629: ra = 1256, jump @9\n      : @1112 [@dyn 628] (gas: 3)\n 28635: a1 = u64 [s1 + 0x118]\n 28639: a0 = i32 [a1]\n 28641: jump @1114 if a0 >u 63\n      : @1113 (gas: 2)\n 28645: u32 [a1 + 0] = 0x40\n 28648: fallthrough\n      : @1114 (gas: 4)\n 28649: a0 = sp + 0xffffffffffffffe0\n 28652: a0 = a0 & 0xffffffffffffffe0\n 28655: u64 [s1 + 0xf0] = a0\n 28659: t0 = 1258, jump @1310\n      : @1115 [@dyn 629] (gas: 4)\n 28665: ra = 0x4ec\n 28669: ecalli 8 // 'hash_keccak_256'\n 28671: t0 = 0x4ee\n 28675: jump @1340\n      : @1116 [@dyn 630] (gas: 1)\n 28678: t0 = 1262, jump @1340\n      : @1117 [@dyn 631] (gas: 11)\n 28684: a2 = s1 + 0x7ff\n 28688: a2 = a2 + 0x99\n 28692: u64 [a2 + 1344] = 0\n 28696: u64 [a2 + 1336] = 0\n 28700: u64 [a2 + 1328] = 0\n 28704: a1 = s1 + 0x7ff\n 28708: a1 = a1 + 0x5c1\n 28712: a0 = u64 [s1 + 0xf8]\n 28716: u64 [a2 + 0x528] = a0\n 28720: a0 = 0\n 28722: ra = 1264, jump @9\n      : @1118 [@dyn 632] (gas: 5)\n 28728: a0 = u64 [s1 + 0xd8]\n 28732: a1 = s1 + 0x7ff\n 28736: a1 = a1 + 0x99\n 28740: a2 = a1 + 0x500\n 28744: t0 = 1266, jump @1342\n      : @1119 [@dyn 633] (gas: 4)\n 28750: a1 = a1 + 0x5a1\n 28754: a2 = u64 [s1 + 0xf0]\n 28758: u64 [a3 + 0x508] = a2\n 28762: ra = 1268, jump @9\n      : @1120 [@dyn 634] (gas: 3)\n 28768: a1 = u64 [s1 + 0x118]\n 28772: a0 = i32 [a1]\n 28774: jump @1122 if a0 >u 63\n      : @1121 (gas: 2)\n 28778: u32 [a1 + 0] = 0x40\n 28781: fallthrough\n      : @1122 (gas: 4)\n 28782: a0 = sp + 0xffffffffffffffe0\n 28785: a0 = a0 & 0xffffffffffffffe0\n 28788: u64 [s1 + 0xf8] = a0\n 28792: t0 = 1270, jump @1310\n      : @1123 [@dyn 635] (gas: 31)\n 28798: ecalli 8 // 'hash_keccak_256'\n 28800: a3 = u64 [s1 + 0xf8]\n 28804: a0 = u64 [a3 + 0x18]\n 28807: a1 = u64 [a3 + 0x10]\n 28810: a2 = u64 [a3 + 0x8]\n 28813: a3 = u64 [a3]\n 28815: a0 = reverse a0\n 28817: u64 [s1 + 0xf0] = a0\n 28821: a0 = reverse a1\n 28823: u64 [s1 + 0xe8] = a0\n 28827: a0 = reverse a2\n 28829: u64 [s1 + 0xe0] = a0\n 28833: a0 = reverse a3\n 28835: u64 [s1 + 0xd8] = a0\n 28839: a0 = sp + 0xffffffffffffffe0\n 28842: a0 = a0 & 0xffffffffffffffe0\n 28845: u64 [s1 + 0xf8] = a0\n 28849: sp = a0\n 28851: a2 = s1 + 0x7ff\n 28855: a2 = a2 + 0x99\n 28859: a0 = u64 [s1 + 0xc0]\n 28863: u64 [a2 + 0x500] = a0\n 28867: a3 = a2 + 0x400\n 28871: u64 [a3 + 0xf8] = a0\n 28875: u64 [a3 + 0xf0] = a0\n 28879: a1 = s1 + 0x7ff\n 28883: a1 = a1 + 0x581\n 28887: a0 = u64 [s1 + 0xd0]\n 28891: u64 [a3 + 0xe8] = a0\n 28895: a0 = 0\n 28897: ra = 1272, jump @9\n      : @1124 [@dyn 636] (gas: 16)\n 28903: a0 = u64 [s1 + 0xd8]\n 28907: a1 = s1 + 0x7ff\n 28911: a1 = a1 + 0x99\n 28915: a2 = a1 + 0x400\n 28919: u64 [a2 + 0xe0] = a0\n 28923: a0 = u64 [s1 + 0xe0]\n 28927: u64 [a2 + 0xd8] = a0\n 28931: a0 = u64 [s1 + 0xe8]\n 28935: u64 [a2 + 0xd0] = a0\n 28939: a3 = a1\n 28941: a0 = 0x20\n 28944: a1 = s1 + 0x7ff\n 28948: a1 = a1 + 0x561\n 28952: a2 = u64 [s1 + 0xf0]\n 28956: u64 [a3 + 0x4c8] = a2\n 28960: ra = 1274, jump @9\n      : @1125 [@dyn 637] (gas: 3)\n 28966: a1 = u64 [s1 + 0x118]\n 28970: a0 = i32 [a1]\n 28972: jump @1127 if a0 >u 63\n      : @1126 (gas: 2)\n 28976: u32 [a1 + 0] = 0x40\n 28979: fallthrough\n      : @1127 (gas: 4)\n 28980: a0 = sp + 0xffffffffffffffe0\n 28983: a0 = a0 & 0xffffffffffffffe0\n 28986: u64 [s1 + 0xf0] = a0\n 28990: t0 = 1276, jump @1310\n      : @1128 [@dyn 638] (gas: 5)\n 28996: ra = 0x4fe\n 29000: ecalli 8 // 'hash_keccak_256'\n 29002: a3 = u64 [s1 + 0xf0]\n 29006: t0 = 0x500\n 29010: jump @1356\n      : @1129 [@dyn 639] (gas: 2)\n 29013: a3 = u64 [s1 + 0xf0]\n 29017: t0 = 1280, jump @1356\n      : @1130 [@dyn 640] (gas: 8)\n 29023: a1 = u64 [s1 + 0xf8]\n 29027: u64 [a1 + 0x18] = a3\n 29030: u64 [a1 + 0x10] = a2\n 29033: u64 [a1 + 0x8] = a4\n 29036: u64 [a1] = a0\n 29038: a0 = s1 + 0x7ff\n 29042: a0 = a0 + 0x541\n 29046: ra = 1282, jump @11\n      : @1131 [@dyn 641] (gas: 5)\n 29052: a3 = s1 + 0x7ff\n 29056: a3 = a3 + 0x99\n 29060: a0 = u64 [a3 + 0x4a8]\n 29064: a0 = a0 & 0x5\n 29067: jump @1134 if a0 != 1\n      : @1132 (gas: 30)\n 29072: a0 = u64 [s1 + 0xd0]\n 29076: a5 = a3 + 0x400\n 29080: u64 [a5 + 0x48] = a0\n 29083: a0 = u64 [s1 + 0x108]\n 29087: u64 [a5 + 0x68] = a0\n 29090: a0 = u64 [s1 + 0xb0]\n 29094: u64 [a5 + 0x88] = a0\n 29098: a1 = u64 [s1 + 0xc0]\n 29102: u64 [a5 + 0x50] = a1\n 29105: a0 = u64 [s1 + 0x98]\n 29109: u64 [a5 + 0x70] = a0\n 29112: a0 = u64 [s1 + 0xb8]\n 29116: u64 [a5 + 0x90] = a0\n 29120: u64 [a5 + 0x58] = a1\n 29123: a0 = u64 [s1 + 0xa0]\n 29127: u64 [a5 + 0x78] = a0\n 29130: a0 = u64 [s1 + 0x78]\n 29133: u64 [a5 + 0x98] = a0\n 29137: u64 [a5 + 0x60] = a1\n 29140: a0 = u64 [s1 + 0xa8]\n 29144: u64 [a5 + 0x80] = a0\n 29148: a0 = s1 + 0x7ff\n 29152: a0 = a0 + 0x521\n 29156: a1 = s1 + 0x7ff\n 29160: a1 = a1 + 0x501\n 29164: a2 = s1 + 0x7ff\n 29168: a2 = a2 + 0x4e1\n 29172: a4 = u64 [s1 + 0x70]\n 29175: u64 [a5 + 0xa0] = a4\n 29179: ra = 1284, jump @1169\n      : @1133 [@dyn 642] (gas: 10)\n 29185: a2 = s1 + 0x100\n 29189: a4 = u64 [a2 + 0x8]\n 29192: a3 = s1 + 0x7ff\n 29196: a3 = a3 + 0x99\n 29200: a0 = u64 [a2]\n 29202: a0 = a0 + 0x1\n 29205: a1 = u64 [s1 + 0xc8]\n 29209: a0 = a0 & a1\n 29212: u64 [a2] = a0\n 29214: jump @1135\n      : @1134 (gas: 2)\n 29216: a4 = u64 [s1 + 0x108]\n 29220: fallthrough\n      : @1135 (gas: 6)\n 29221: a1 = 0\n 29223: a5 = 0\n 29225: t0 = 0\n 29227: a0 = a4 + 0x1\n 29230: a4 = a0 & 0xffffffffffffffff\n 29233: jump @1108\n      : @1136 (gas: 11)\n 29236: a2 = s1 + 0x7ff\n 29240: a2 = a2 + 0x99\n 29244: u64 [a2 + 56] = 0\n 29247: u64 [a2 + 48] = 0\n 29250: a0 = 0xcf114bd900000000\n 29260: u64 [a2 + 0x40] = a0\n 29263: a1 = s1 + 0x7ff\n 29267: a1 = a1 + 0xc1\n 29271: u64 [a2 + 40] = 0\n 29274: a0 = 0\n 29276: ra = 1286, jump @9\n      : @1137 [@dyn 643] (gas: 2)\n 29282: a1 = i32 [0x20170]\n 29287: jump @1139 if a1 >u 31\n      : @1138 (gas: 3)\n 29291: u32 [0x20170] = 0x20\n 29297: a1 = 0x20180\n 29302: jump @697\n      : @1139 (gas: 2)\n 29305: a1 = 0x20180\n 29310: jump @697\n      : @1140 (gas: 11)\n 29313: a2 = s1 + 0x7ff\n 29317: a2 = a2 + 0x99\n 29321: u64 [a2 + 24] = 0\n 29324: u64 [a2 + 16] = 0\n 29327: a0 = 0x7862e95900000000\n 29337: u64 [a2 + 0x20] = a0\n 29340: a1 = s1 + 0x7ff\n 29344: a1 = a1 + 0xa1\n 29348: u64 [a2 + 8] = 0\n 29351: a0 = 0\n 29353: ra = 1288, jump @9\n      : @1141 [@dyn 644] (gas: 2)\n 29359: a1 = i32 [0x20170]\n 29364: jump @1143 if a1 >u 31\n      : @1142 (gas: 3)\n 29368: u32 [0x20170] = 0x20\n 29374: a1 = 0x20180\n 29379: jump @697\n      : @1143 (gas: 2)\n 29382: a1 = 0x20180\n 29387: jump @697\n      : @1144 (gas: 5)\n 29390: a0 = 0\n 29392: a1 = u64 [s1 + 0x108]\n 29396: a2 = 0\n 29398: ecalli 13 // 'seal_return'\n 29400: jump @874\n      : @1145 [@dyn 645] (gas: 2)\n 29403: ecalli 2 // 'call_data_load'\n 29405: fallthrough\n      : @1146 (gas: 10)\n 29406: a0 = u64 [sp + 0x10]\n 29409: a1 = u64 [sp + 0x18]\n 29412: a2 = 0x100000000\n 29422: a2 = a2 ^ a0\n 29425: a2 = a2 | a1\n 29428: a3 = a0 >> 0x20\n 29431: a3 = a3 <u 0x1\n 29434: a3 = 0 if a1 != 0\n 29436: a3 = 0 if a2 == 0\n 29438: jump @1148 if a3 == 0\n      : @1147 (gas: 12)\n 29441: a2 = u64 [sp]\n 29443: a3 = u64 [sp + 0x8]\n 29446: u64 [s1] = a2\n 29448: u64 [s1 + 0x8] = a3\n 29451: u64 [s1 + 0x10] = a0\n 29454: u64 [s1 + 0x18] = a1\n 29457: sp = s0 + 0xffffffffffffffc0\n 29460: ra = u64 [sp + 0x38]\n 29463: s0 = u64 [sp + 0x30]\n 29466: s1 = u64 [sp + 0x28]\n 29469: sp = sp + 0x40\n 29472: ret\n      : @1148 (gas: 8)\n 29474: a1 = 0x20180\n 29479: i32 a1 = a1 + 0\n 29481: a0 = 0x1\n 29484: a2 = 0\n 29486: ra = 0x50c\n 29490: ecalli 13 // 'seal_return'\n 29492: t0 = 0x50e\n 29496: jump @1379\n      : @1149 [@dyn 646] (gas: 1)\n 29499: t0 = 1294, jump @1379\n      : @1150 [@dyn 647] (gas: 3)\n 29505: a1 = 0x24\n 29508: ecalli 2 // 'call_data_load'\n 29510: fallthrough\n      : @1151 (gas: 7)\n 29511: a0 = u64 [sp + 0x18]\n 29514: a1 = u64 [sp + 0x10]\n 29517: a2 = u64 [sp + 0x8]\n 29520: a3 = a1 | a0\n 29523: a4 = a2 <u 0x1\n 29526: a4 = 0 if a3 != 0\n 29528: jump @1154 if a4 == 0\n      : @1152 (gas: 2)\n 29531: a3 = u64 [sp]\n 29533: t0 = 1296, jump @1341\n      : @1153 [@dyn 648] (gas: 1)\n 29539: ret\n      : @1154 (gas: 8)\n 29541: a1 = 0x20180\n 29546: i32 a1 = a1 + 0\n 29548: a0 = 0x1\n 29551: a2 = 0\n 29553: ra = 0x512\n 29557: ecalli 13 // 'seal_return'\n 29559: t0 = 0x514\n 29563: jump @1379\n      : @1155 [@dyn 649] (gas: 1)\n 29566: t0 = 1300, jump @1379\n      : @1156 [@dyn 650] (gas: 5)\n 29572: a1 = 0x44\n 29575: ra = 0x516\n 29579: ecalli 2 // 'call_data_load'\n 29581: t0 = 0x518\n 29585: jump @1355\n      : @1157 [@dyn 651] (gas: 1)\n 29588: t0 = 1304, jump @1355\n      : @1158 [@dyn 652] (gas: 1)\n 29594: jump @1161 if a4 != 0\n      : @1159 (gas: 1)\n 29597: t0 = 1306, jump @1341\n      : @1160 [@dyn 653] (gas: 1)\n 29603: ret\n      : @1161 (gas: 8)\n 29605: a1 = 0x20180\n 29610: i32 a1 = a1 + 0\n 29612: a0 = 0x1\n 29615: a2 = 0\n 29617: ra = 0x51c\n 29621: ecalli 13 // 'seal_return'\n 29623: t0 = 0x51e\n 29627: jump @1364\n      : @1162 [@dyn 654] (gas: 1)\n 29630: t0 = 1310, jump @1364\n      : @1163 [@dyn 655] (gas: 4)\n 29636: ra = 0x520\n 29640: ecalli 2 // 'call_data_load'\n 29642: t0 = 0x522\n 29646: jump @1355\n      : @1164 [@dyn 656] (gas: 1)\n 29649: t0 = 1314, jump @1355\n      : @1165 [@dyn 657] (gas: 1)\n 29655: jump @1168 if a4 != 0\n      : @1166 (gas: 1)\n 29658: t0 = 1316, jump @1341\n      : @1167 [@dyn 658] (gas: 1)\n 29664: ret\n      : @1168 (gas: 7)\n 29666: a1 = 0x20180\n 29671: i32 a1 = a1 + 0\n 29673: a0 = 0x1\n 29676: a2 = 0\n 29678: ra = 0x526\n 29682: ecalli 13 // 'seal_return'\n 29684: fallthrough\n      : @1169 [@dyn 659] (gas: 21)\n 29685: sp = sp + 0xfffffffffffff980\n 29689: a3 = sp + 0x600\n 29693: u64 [a3 + 0x78] = ra\n 29696: u64 [a3 + 0x70] = s0\n 29699: u64 [a3 + 0x68] = s1\n 29702: s0 = sp + 0x680\n 29706: sp = sp & 0xffffffffffffffe0\n 29709: s1 = sp\n 29711: a2 = u64 [a2]\n 29713: u64 [s1 + 0x28] = a2\n 29716: a1 = u64 [a1]\n 29718: u64 [s1 + 0x30] = a1\n 29721: a1 = u64 [a0 + 0x10]\n 29724: u64 [s1 + 0x20] = a1\n 29727: a1 = u64 [a0 + 0x8]\n 29730: u64 [s1 + 0x38] = a1\n 29733: a0 = u64 [a0]\n 29735: u64 [s1 + 0x40] = a0\n 29738: i32 a0 = s1 + 0x560\n 29742: ecalli 9 // 'now'\n 29744: fallthrough\n      : @1170 (gas: 48)\n 29745: t0 = u64 [s1 + 0x578]\n 29749: t1 = u64 [s1 + 0x570]\n 29753: a0 = u64 [s1 + 0x568]\n 29757: a4 = u64 [s1 + 0x560]\n 29761: u64 [s1 + 0x78] = a4\n 29764: a2 = clz t0\n 29766: a1 = clz t1\n 29768: a3 = a1 + 0x40\n 29771: a3 = a2 if t0 != 0\n 29774: a2 = clz a0\n 29776: a1 = clz a4\n 29778: a1 = a1 + 0x40\n 29781: a1 = a2 if a0 != 0\n 29784: a4 = a1 + 0x80\n 29788: a2 = t1 | t0\n 29791: a3 = a4 if a2 == 0\n 29794: a5 = a4 <u a1\n 29797: a5 = 0 if a2 != 0\n 29799: a4 = a5 >u 0\n 29801: a1 = a3 <u 0xf0\n 29805: a2 = a1 ^ 0x1\n 29808: a4 = a2 if a5 == 0\n 29811: t2 = a4 <u 0x1\n 29814: ra = t2 + 0xffffffffffffffff\n 29817: t2 = -a4\n 29819: a5 = -a5\n 29821: a2 = a5 - a2\n 29824: a1 = 0xef - a3\n 29828: u64 [s1 + 0xa8] = t2\n 29832: a3 = t2 >u 0\n 29834: a5 = ra >u 0\n 29836: a5 = a3 if ra == 0\n 29839: u64 [s1 + 0xb8] = a1\n 29843: a3 = a1 <u 0x100\n 29847: a3 = a3 ^ 0x1\n 29850: a1 = a2 >u 0\n 29852: a3 = a1 if a2 != 0\n 29855: a3 = a5 if a4 != 0\n 29858: t2 = a0\n 29860: a0 = u64 [s1 + 0x78]\n 29863: a1 = t2 | t0\n 29866: a4 = a0 | t1\n 29869: a1 = a1 | a4\n 29872: a1 = a1 <u 0x1\n 29875: a1 = a1 | a3\n 29878: a3 = a0\n 29880: a3 = 0 if a1 != 0\n 29882: jump @1186 if a1 != 0\n      : @1171 (gas: 7)\n 29886: a1 = u64 [s1 + 0xb8]\n 29890: a1 = a1 ^ 0xff\n 29894: a5 = u64 [s1 + 0xa8]\n 29898: a1 = a1 | a5\n 29901: a4 = a2 | ra\n 29904: a1 = a1 | a4\n 29907: jump @1186 if a1 == 0\n      : @1172 (gas: 21)\n 29911: a4 = u64 [s1 + 0xb8]\n 29915: a3 = a4 + 0x1\n 29918: u64 [s1 + 0xb0] = a3\n 29922: a1 = a3 <u 0x1\n 29925: a1 = a1 + a2\n 29928: u64 [s1 + 0xa0] = a1\n 29932: a1 = a1 | a3\n 29935: a1 = a1 <u 0x1\n 29938: a1 = a1 + a5\n 29941: u64 [s1 + 0x90] = a1\n 29945: a1 = a1 <u a5\n 29948: a1 = a1 + ra\n 29951: u64 [s1 + 0x98] = a1\n 29955: a2 = 0xff - a4\n 29959: u64 [s1 + 0x88] = a2\n 29963: a2 = 0x80 - a2\n 29967: a1 = t2\n 29969: u64 [s1 + 0x70] = t2\n 29972: u64 [s1 + 0x68] = t0\n 29975: u64 [s1 + 0x60] = t1\n 29978: ra = 1320, jump @1380\n      : @1173 [@dyn 660] (gas: 6)\n 29984: u64 [s1 + 0x80] = a0\n 29988: u64 [s1 + 0x50] = a1\n 29991: a0 = u64 [s1 + 0x60]\n 29994: a1 = u64 [s1 + 0x68]\n 29997: a2 = u64 [s1 + 0x88]\n 30001: ra = 1322, jump @1385\n      : @1174 [@dyn 661] (gas: 7)\n 30007: u64 [s1 + 0x48] = a0\n 30010: u64 [s1 + 0x18] = a1\n 30013: a1 = u64 [s1 + 0xb8]\n 30017: a2 = 0x7f - a1\n 30020: a0 = u64 [s1 + 0x78]\n 30023: a1 = u64 [s1 + 0x70]\n 30026: ra = 1324, jump @1385\n      : @1175 [@dyn 662] (gas: 8)\n 30032: u64 [s1 + 0x10] = a0\n 30035: u64 [s1 + 0xb8] = a1\n 30039: a2 = u64 [s1 + 0x88]\n 30043: a0 = a2 <u 0x80\n 30047: u64 [s1 + 0x58] = a0\n 30050: a0 = u64 [s1 + 0x78]\n 30053: a1 = u64 [s1 + 0x70]\n 30056: ra = 1326, jump @1385\n      : @1176 [@dyn 663] (gas: 11)\n 30062: a5 = u64 [s1 + 0x58]\n 30065: a4 = u64 [s1 + 0x90]\n 30069: a3 = u64 [s1 + 0x98]\n 30073: a2 = u64 [s1 + 0xa0]\n 30077: a2 = a2 | a3\n 30080: a3 = u64 [s1 + 0xb0]\n 30084: a3 = a3 | a4\n 30087: a3 = a3 | a2\n 30090: a0 = 0 if a5 == 0\n 30092: u64 [s1 + 0xa8] = a0\n 30096: jump @1184 if a3 == 0\n      : @1177 (gas: 27)\n 30100: a0 = u64 [s1 + 0x50]\n 30103: a2 = u64 [s1 + 0x18]\n 30106: a0 = a0 | a2\n 30109: a2 = u64 [s1 + 0xb8]\n 30113: a0 = a2 if a5 == 0\n 30116: t0 = u64 [s1 + 0x68]\n 30119: a3 = t0\n 30121: t1 = u64 [s1 + 0x88]\n 30125: a3 = a0 if t1 != 0\n 30128: u64 [s1 + 0xb8] = a3\n 30132: a0 = u64 [s1 + 0x80]\n 30136: a2 = u64 [s1 + 0x48]\n 30139: a0 = a0 | a2\n 30142: a2 = u64 [s1 + 0x10]\n 30145: a0 = a2 if a5 == 0\n 30148: a4 = u64 [s1 + 0x60]\n 30151: a3 = a4\n 30153: a3 = a0 if t1 != 0\n 30156: u64 [s1 + 0x80] = a3\n 30160: a1 = 0 if a5 == 0\n 30162: u64 [s1 + 0x88] = a1\n 30166: u64 [s1 + 88] = 0x15180\n 30172: a0 = u64 [s1 + 0xb0]\n 30176: a2 = a0 + 0xffffffffffffff80\n 30179: a0 = a4\n 30181: a1 = t0\n 30183: ra = 1328, jump @1380\n      : @1178 [@dyn 664] (gas: 6)\n 30189: u64 [s1 + 0x50] = a0\n 30192: u64 [s1 + 0x18] = a1\n 30195: a0 = u64 [s1 + 0x78]\n 30198: a1 = u64 [s1 + 0x70]\n 30201: a2 = u64 [s1 + 0xb0]\n 30205: ra = 1330, jump @1380\n      : @1179 [@dyn 665] (gas: 7)\n 30211: u64 [s1 + 0x10] = a0\n 30214: u64 [s1 + 0x48] = a1\n 30217: a1 = u64 [s1 + 0xb0]\n 30221: a2 = 0x80 - a1\n 30225: a0 = u64 [s1 + 0x60]\n 30228: a1 = u64 [s1 + 0x68]\n 30231: ra = 1332, jump @1385\n      : @1180 [@dyn 666] (gas: 21)\n 30237: a2 = u64 [s1 + 0x48]\n 30240: a1 = a1 | a2\n 30243: a3 = u64 [s1 + 0xb0]\n 30247: a4 = a3 <u 0x80\n 30251: u64 [s1 + 0x48] = a4\n 30254: a2 = u64 [s1 + 0x18]\n 30257: a1 = a2 if a4 == 0\n 30260: a2 = u64 [s1 + 0x70]\n 30263: a2 = a1 if a3 != 0\n 30266: u64 [s1 + 0x70] = a2\n 30269: a1 = u64 [s1 + 0x10]\n 30272: a0 = a0 | a1\n 30275: a1 = u64 [s1 + 0x50]\n 30278: a0 = a1 if a4 == 0\n 30281: a1 = u64 [s1 + 0x78]\n 30284: a1 = a0 if a3 != 0\n 30287: a2 = a3\n 30289: u64 [s1 + 0x78] = a1\n 30292: a0 = u64 [s1 + 0x60]\n 30295: a1 = u64 [s1 + 0x68]\n 30298: ra = 1334, jump @1380\n      : @1181 [@dyn 667] (gas: 13)\n 30304: a5 = 0\n 30306: a2 = u64 [s1 + 0x48]\n 30309: a1 = 0 if a2 == 0\n 30311: a0 = 0 if a2 == 0\n 30313: a3 = u64 [s1 + 0x58]\n 30316: a2 = a3 + 0xffffffffffffffff\n 30319: u64 [s1 + 0x50] = a2\n 30322: a2 = a3 >u 0\n 30324: a2 = a2 + 0xffffffffffffffff\n 30327: u64 [s1 + 0x48] = a2\n 30330: t1 = u64 [s1 + 0x70]\n 30333: t2 = u64 [s1 + 0x78]\n 30336: fallthrough\n      : @1182 (gas: 87)\n 30337: u64 [s1 + 0x78] = a5\n 30340: a2 = t2 >> 0x3f\n 30343: a3 = t1 << 0x1\n 30346: a5 = a3 | a2\n 30349: a3 = t2 << 0x1\n 30352: a4 = u64 [s1 + 0xb8]\n 30356: a4 = a4 >> 0x3f\n 30359: a3 = a3 | a4\n 30362: u64 [s1 + 0x68] = a3\n 30365: a2 = u64 [s1 + 0x48]\n 30368: u64 [s1 + 0x70] = a5\n 30371: t2 = t1\n 30373: t1 = a2 ^ a5\n 30376: t0 = a2 <u a5\n 30379: a4 = u64 [s1 + 0x50]\n 30382: a5 = a4 <u a3\n 30385: a5 = t0 if t1 != 0\n 30388: a1 = a1 << 0x1\n 30391: a3 = a0 >> 0x3f\n 30394: a1 = a1 | a3\n 30397: u64 [s1 + 0x60] = a1\n 30400: a3 = t2 >> 0x3f\n 30403: a0 = a0 << 0x1\n 30406: a3 = a3 | a0\n 30409: a0 = u64 [s1 + 0xb8]\n 30413: a0 = a0 << 0x1\n 30416: a4 = u64 [s1 + 0x80]\n 30420: a1 = a4 >> 0x3f\n 30423: t0 = a0 | a1\n 30426: a1 = a4 << 0x1\n 30429: a4 = u64 [s1 + 0x88]\n 30433: t1 = a4 >> 0x3f\n 30436: t1 = a1 | t1\n 30439: a1 = a4 << 0x1\n 30442: a4 = u64 [s1 + 0xa8]\n 30446: t2 = a4 >> 0x3f\n 30449: a1 = a1 | t2\n 30452: a4 = a4 << 0x1\n 30455: a0 = u64 [s1 + 0x78]\n 30458: a4 = a4 | a0\n 30461: u64 [s1 + 0xa8] = a4\n 30465: a1 = a1 | 0\n 30467: u64 [s1 + 0x88] = a1\n 30471: a1 = t1 | 0\n 30473: u64 [s1 + 0x80] = a1\n 30477: a0 = t0 | 0\n 30479: u64 [s1 + 0xb8] = a0\n 30483: a0 = a2 - a3\n 30486: a0 = a0 <u a5\n 30489: a1 = a2 <u a3\n 30492: t0 = u64 [s1 + 0x60]\n 30495: a4 = a2 - t0\n 30498: a4 = a4 - a1\n 30501: a4 = a4 - a0\n 30504: a5 = a4 >>a 0x3f\n 30507: a0 = u64 [s1 + 0x58]\n 30510: a0 = a0 & a5\n 30513: a1 = u64 [s1 + 0x68]\n 30516: t2 = a1 - a0\n 30519: a1 = a1 <u a0\n 30522: a0 = u64 [s1 + 0x70]\n 30525: t1 = a0 - a1\n 30528: a1 = 0 if a0 != 0\n 30530: a0 = a3 - a1\n 30533: a1 = a3 <u a1\n 30536: a1 = t0 - a1\n 30539: a3 = u64 [s1 + 0xb0]\n 30543: ra = u64 [s1 + 0xa0]\n 30547: a2 = a3 | ra\n 30550: a2 = a2 <u 0x1\n 30553: a4 = u64 [s1 + 0x90]\n 30557: t0 = a4 <u a2\n 30560: a2 = a4 - a2\n 30563: a4 = a3 <u 0x1\n 30566: ra = ra - a4\n 30569: a4 = u64 [s1 + 0x98]\n 30573: a4 = a4 - t0\n 30576: a3 = a3 + 0xffffffffffffffff\n 30579: u64 [s1 + 0xa0] = ra\n 30583: u64 [s1 + 0x98] = a4\n 30587: t0 = ra | a4\n 30590: u64 [s1 + 0xb0] = a3\n 30594: a4 = a3 | a2\n 30597: a3 = a4 | t0\n 30600: a5 = a5 & 0x1\n 30603: u64 [s1 + 0x90] = a2\n 30607: jump @1182 if a3 != 0\n      : @1183 (gas: 1)\n 30611: jump @1185\n      : @1184 (gas: 2)\n 30613: a5 = 0\n 30615: fallthrough\n      : @1185 (gas: 4)\n 30616: a0 = u64 [s1 + 0xa8]\n 30620: a0 = a0 << 0x1\n 30623: a3 = a5 | a0\n 30626: fallthrough\n      : @1186 (gas: 2)\n 30627: a0 = u64 [s1 + 0x30]\n 30630: jump @1265 if a0 >=u a3\n      : @1187 (gas: 13)\n 30634: a0 = u64 [s1 + 0x20]\n 30637: a0 = a0 << 0x20\n 30640: a2 = a0 >> 0x20\n 30643: u64 [s1 + 1336] = 0\n 30647: a0 = u64 [s1 + 0x40]\n 30650: u64 [s1 + 0x520] = a0\n 30654: a0 = u64 [s1 + 0x38]\n 30657: u64 [s1 + 0x528] = a0\n 30661: a1 = s1 + 0x520\n 30665: u64 [s1 + 0xa0] = a2\n 30669: u64 [s1 + 0x530] = a2\n 30673: a0 = 0\n 30675: ra = 1336, jump @9\n      : @1188 [@dyn 668] (gas: 7)\n 30681: u64 [s1 + 1304] = 0\n 30685: u64 [s1 + 1296] = 0\n 30689: u64 [s1 + 1280] = 0x1\n 30694: a0 = 0x20\n 30697: a1 = s1 + 0x500\n 30701: u64 [s1 + 1288] = 0\n 30705: ra = 1338, jump @9\n      : @1189 [@dyn 669] (gas: 3)\n 30711: a1 = 0x20170\n 30716: a0 = i32 [0x20170]\n 30721: jump @1191 if a0 >u 63\n      : @1190 (gas: 2)\n 30725: u32 [0x20170] = 0x40\n 30731: fallthrough\n      : @1191 (gas: 15)\n 30732: a0 = sp + 0xffffffffffffffe0\n 30735: a2 = a0 & 0xffffffffffffffe0\n 30738: u64 [s1 + 0xa8] = a2\n 30742: sp = a2\n 30744: a0 = 0x20180\n 30749: u64 [s1 + 0x70] = a0\n 30752: i32 a0 = a0 + 0\n 30754: u64 [s1 + 0xb0] = a1\n 30758: i32 a2 = a2 + 0\n 30760: a1 = 0x40\n 30763: u64 [s1 + 0xb8] = a0\n 30767: ra = 0x53c\n 30771: ecalli 8 // 'hash_keccak_256'\n 30773: t0 = 0x53e\n 30777: jump @1325\n      : @1192 [@dyn 670] (gas: 1)\n 30780: t0 = 1342, jump @1325\n      : @1193 [@dyn 671] (gas: 11)\n 30786: a0 = u64 [s1 + 0x28]\n 30789: a0 = a0 << 0x20\n 30792: a0 = a0 >> 0x20\n 30795: u64 [s1 + 1272] = 0\n 30799: u64 [s1 + 1264] = 0\n 30803: u64 [s1 + 1256] = 0\n 30807: a1 = s1 + 0x4e0\n 30811: u64 [s1 + 0x98] = a0\n 30815: u64 [s1 + 0x4e0] = a0\n 30819: a0 = 0\n 30821: ra = 1344, jump @9\n      : @1194 [@dyn 672] (gas: 12)\n 30827: a0 = u64 [s1 + 0x78]\n 30830: a3 = s1 + 0x400\n 30834: u64 [a3 + 0xd8] = a0\n 30838: a0 = u64 [s1 + 0x80]\n 30842: u64 [a3 + 0xd0] = a0\n 30846: a0 = u64 [s1 + 0x88]\n 30850: u64 [a3 + 0xc8] = a0\n 30854: a0 = 0x20\n 30857: a1 = s1 + 0x4c0\n 30861: a2 = u64 [s1 + 0x90]\n 30865: u64 [a3 + 0xc0] = a2\n 30869: ra = 1346, jump @9\n      : @1195 [@dyn 673] (gas: 3)\n 30875: a1 = u64 [s1 + 0xb0]\n 30879: a0 = i32 [a1]\n 30881: jump @1197 if a0 >u 63\n      : @1196 (gas: 3)\n 30885: u32 [a1 + 0] = 0x40\n 30888: t0 = 0x544\n 30892: jump @1367\n      : @1197 (gas: 1)\n 30895: t0 = 1348, jump @1367\n      : @1198 [@dyn 674] (gas: 4)\n 30901: ra = 0x546\n 30905: ecalli 8 // 'hash_keccak_256'\n 30907: t0 = 0x548\n 30911: jump @1338\n      : @1199 [@dyn 675] (gas: 1)\n 30914: t0 = 1352, jump @1338\n      : @1200 [@dyn 676] (gas: 2)\n 30920: a0 = s1 + 0x4a0\n 30924: ra = 1354, jump @11\n      : @1201 [@dyn 677] (gas: 7)\n 30930: a0 = u32 [s1 + 0x4a4]\n 30934: a1 = u64 [s1 + 0x4a8]\n 30938: a2 = u64 [s1 + 0x4b0]\n 30942: a0 = a0 << 0x20\n 30945: a1 = a1 | a2\n 30948: a0 = a0 | a1\n 30951: jump @1269 if a0 == 0\n      : @1202 (gas: 10)\n 30955: u64 [s1 + 1176] = 0\n 30959: a0 = u64 [s1 + 0x40]\n 30962: u64 [s1 + 0x480] = a0\n 30966: a0 = u64 [s1 + 0x38]\n 30969: u64 [s1 + 0x488] = a0\n 30973: a1 = s1 + 0x480\n 30977: a0 = u64 [s1 + 0xa0]\n 30981: u64 [s1 + 0x490] = a0\n 30985: a0 = 0\n 30987: ra = 1356, jump @9\n      : @1203 [@dyn 678] (gas: 7)\n 30993: u64 [s1 + 1144] = 0\n 30997: u64 [s1 + 1136] = 0\n 31001: u64 [s1 + 1120] = 0x3\n 31006: a0 = 0x20\n 31009: a1 = s1 + 0x460\n 31013: u64 [s1 + 1128] = 0\n 31017: ra = 1358, jump @9\n      : @1204 [@dyn 679] (gas: 3)\n 31023: a1 = u64 [s1 + 0xb0]\n 31027: a0 = i32 [a1]\n 31029: jump @1206 if a0 >u 63\n      : @1205 (gas: 3)\n 31033: u32 [a1 + 0] = 0x40\n 31036: t0 = 0x550\n 31040: jump @1343\n      : @1206 (gas: 1)\n 31043: t0 = 1360, jump @1343\n      : @1207 [@dyn 680] (gas: 5)\n 31049: ra = 0x552\n 31053: ecalli 8 // 'hash_keccak_256'\n 31055: a3 = u64 [s1 + 0xa8]\n 31059: t0 = 0x554\n 31063: jump @1365\n      : @1208 [@dyn 681] (gas: 2)\n 31066: a3 = u64 [s1 + 0xa8]\n 31070: t0 = 1364, jump @1365\n      : @1209 [@dyn 682] (gas: 15)\n 31076: u64 [s1 + 0xa8] = a0\n 31080: a0 = reverse a1\n 31082: u64 [s1 + 0x90] = a0\n 31086: a0 = reverse a2\n 31088: u64 [s1 + 0x88] = a0\n 31092: a0 = reverse a3\n 31094: u64 [s1 + 0x80] = a0\n 31098: u64 [s1 + 1112] = 0\n 31102: u64 [s1 + 1104] = 0\n 31106: u64 [s1 + 1096] = 0\n 31110: a1 = s1 + 0x440\n 31114: a0 = u64 [s1 + 0x30]\n 31117: u64 [s1 + 0x440] = a0\n 31121: a0 = 0\n 31123: ra = 1366, jump @9\n      : @1210 [@dyn 683] (gas: 12)\n 31129: a0 = u64 [s1 + 0x80]\n 31133: a3 = s1 + 0x400\n 31137: u64 [a3 + 0x38] = a0\n 31140: a0 = u64 [s1 + 0x88]\n 31144: u64 [a3 + 0x30] = a0\n 31147: a0 = u64 [s1 + 0x90]\n 31151: u64 [a3 + 0x28] = a0\n 31154: a0 = 0x20\n 31157: a1 = s1 + 0x420\n 31161: a2 = u64 [s1 + 0xa8]\n 31165: u64 [a3 + 0x20] = a2\n 31168: ra = 1368, jump @9\n      : @1211 [@dyn 684] (gas: 3)\n 31174: a1 = u64 [s1 + 0xb0]\n 31178: a0 = i32 [a1]\n 31180: jump @1213 if a0 >u 63\n      : @1212 (gas: 3)\n 31184: u32 [a1 + 0] = 0x40\n 31187: t0 = 0x55a\n 31191: jump @1343\n      : @1213 (gas: 1)\n 31194: t0 = 1370, jump @1343\n      : @1214 [@dyn 685] (gas: 4)\n 31200: ra = 0x55c\n 31204: ecalli 8 // 'hash_keccak_256'\n 31206: t0 = 0x55e\n 31210: jump @1325\n      : @1215 [@dyn 686] (gas: 1)\n 31213: t0 = 1374, jump @1325\n      : @1216 [@dyn 687] (gas: 8)\n 31219: u64 [s1 + 1048] = 0\n 31223: u64 [s1 + 1040] = 0\n 31227: u64 [s1 + 1032] = 0\n 31231: a1 = s1 + 0x400\n 31235: a0 = u64 [s1 + 0x98]\n 31239: u64 [s1 + 0x400] = a0\n 31243: a0 = 0\n 31245: ra = 1376, jump @9\n      : @1217 [@dyn 688] (gas: 12)\n 31251: a0 = u64 [s1 + 0x78]\n 31254: a3 = s1 + 0x300\n 31258: u64 [a3 + 0xf8] = a0\n 31262: a0 = u64 [s1 + 0x80]\n 31266: u64 [a3 + 0xf0] = a0\n 31270: a0 = u64 [s1 + 0x88]\n 31274: u64 [a3 + 0xe8] = a0\n 31278: a0 = 0x20\n 31281: a1 = s1 + 0x3e0\n 31285: a2 = u64 [s1 + 0x90]\n 31289: u64 [a3 + 0xe0] = a2\n 31293: ra = 1378, jump @9\n      : @1218 [@dyn 689] (gas: 3)\n 31299: a1 = u64 [s1 + 0xb0]\n 31303: a0 = i32 [a1]\n 31305: jump @1220 if a0 >=u 64\n      : @1219 (gas: 3)\n 31309: u32 [a1 + 0] = 0x40\n 31312: t0 = 0x564\n 31316: jump @1367\n      : @1220 (gas: 1)\n 31319: t0 = 1380, jump @1367\n      : @1221 [@dyn 690] (gas: 4)\n 31325: ra = 0x566\n 31329: ecalli 8 // 'hash_keccak_256'\n 31331: t0 = 0x568\n 31335: jump @1338\n      : @1222 [@dyn 691] (gas: 1)\n 31338: t0 = 1384, jump @1338\n      : @1223 [@dyn 692] (gas: 2)\n 31344: a0 = s1 + 0x3c0\n 31348: ra = 1386, jump @11\n      : @1224 [@dyn 693] (gas: 3)\n 31354: a1 = u64 [s1 + 0x3c0]\n 31358: a0 = a1 & 0x1\n 31361: jump @1270 if a0 == 0\n      : @1225 (gas: 2)\n 31365: a0 = a1 & 0x4\n 31368: jump @1271 if a0 != 0\n      : @1226 (gas: 6)\n 31372: u64 [s1 + 0x90] = a1\n 31376: a0 = a1 & 0xfb\n 31380: u64 [s1 + 0x88] = a0\n 31384: a0 = s1 + 0x380\n 31388: a1 = u64 [s1 + 0xa8]\n 31392: ra = 1388, jump @11\n      : @1227 [@dyn 694] (gas: 16)\n 31398: a0 = u64 [s1 + 0x380]\n 31402: a1 = u64 [s1 + 0x388]\n 31406: a2 = u64 [s1 + 0x390]\n 31410: a3 = u64 [s1 + 0x398]\n 31414: a0 = a0 & 0xffffffffffffff00\n 31418: a4 = u64 [s1 + 0x88]\n 31422: a0 = a0 | a4\n 31425: a0 = a0 + 0x4\n 31428: a4 = s1 + 0x500\n 31432: u64 [a4 + 0x98] = a3\n 31436: u64 [a4 + 0x90] = a2\n 31440: u64 [a4 + 0x88] = a1\n 31444: u64 [a4 + 0x80] = a0\n 31448: a1 = s1 + 0x580\n 31452: a0 = u64 [s1 + 0xa8]\n 31456: ra = 1390, jump @12\n      : @1228 [@dyn 695] (gas: 11)\n 31462: u64 [s1 + 888] = 0\n 31466: a0 = u64 [s1 + 0xa0]\n 31470: a2 = s1 + 0x300\n 31474: u64 [a2 + 0x70] = a0\n 31477: a0 = u64 [s1 + 0x38]\n 31480: u64 [a2 + 0x68] = a0\n 31483: a1 = s1 + 0x360\n 31487: a0 = u64 [s1 + 0x40]\n 31490: u64 [a2 + 0x60] = a0\n 31493: a0 = 0\n 31495: ra = 1392, jump @9\n      : @1229 [@dyn 696] (gas: 7)\n 31501: u64 [s1 + 856] = 0\n 31505: u64 [s1 + 848] = 0\n 31509: u64 [s1 + 840] = 0\n 31513: a0 = 0x20\n 31516: a1 = s1 + 0x340\n 31520: u64 [s1 + 832] = 0\n 31524: ra = 1394, jump @9\n      : @1230 [@dyn 697] (gas: 3)\n 31530: a2 = u64 [s1 + 0xb0]\n 31534: a0 = i32 [a2]\n 31536: jump @1232 if a0 >u 63\n      : @1231 (gas: 3)\n 31540: u32 [a2 + 0] = 0x40\n 31543: t0 = 0x574\n 31547: jump @1343\n      : @1232 (gas: 1)\n 31550: t0 = 1396, jump @1343\n      : @1233 [@dyn 698] (gas: 32)\n 31556: ecalli 8 // 'hash_keccak_256'\n 31558: a3 = u64 [s1 + 0xa8]\n 31562: a0 = u64 [a3]\n 31564: a1 = u64 [a3 + 0x8]\n 31567: a2 = u64 [a3 + 0x10]\n 31570: a3 = u64 [a3 + 0x18]\n 31573: t0 = reverse a0\n 31575: a5 = reverse a1\n 31577: a2 = reverse a2\n 31579: a3 = reverse a3\n 31581: a0 = sp + 0xffffffffffffffe0\n 31584: a1 = a0 & 0xffffffffffffffe0\n 31587: u64 [s1 + 0xa8] = a1\n 31591: sp = a1\n 31593: u64 [s1 + 0x68] = a3\n 31596: a0 = a3 + 0x1\n 31599: a3 = a0 <u 0x1\n 31602: u64 [s1 + 0x78] = a2\n 31605: a4 = a2 + a3\n 31608: a2 = a0 | a4\n 31611: a2 = a2 <u 0x1\n 31614: a2 = a2 + a5\n 31617: u64 [s1 + 0x80] = a5\n 31621: a3 = a2 <u a5\n 31624: u64 [s1 + 0x88] = t0\n 31628: a3 = a3 + t0\n 31631: u64 [a1 + 0x8] = a4\n 31634: u64 [a1] = a0\n 31636: u64 [a1 + 0x10] = a2\n 31639: u64 [a1 + 0x18] = a3\n 31642: a0 = s1 + 0x320\n 31646: ra = 1398, jump @11\n      : @1234 [@dyn 699] (gas: 27)\n 31652: a2 = s1 + 0x300\n 31656: a0 = u64 [a2 + 0x20]\n 31659: a1 = u64 [0x20118]\n 31664: t0 = u64 [s1 + 0x338]\n 31668: a3 = u64 [a2 + 0x28]\n 31671: a4 = u64 [a2 + 0x30]\n 31674: a1 = a1 + a0\n 31677: a0 = a1 <u a0\n 31680: a5 = a3 + a0\n 31683: a5 = a5 + 0xffffffffffffffff\n 31686: a2 = a5 ^ a3\n 31689: a3 = a5 <u a3\n 31692: a3 = a0 if a2 == 0\n 31695: a0 = a4 + 0xffffffffffffffff\n 31698: a3 = a3 + a0\n 31701: a0 = a3 <u a0\n 31704: a2 = a4 <u 0x1\n 31707: a2 = t0 - a2\n 31710: a0 = a0 + a2\n 31713: a2 = s1 + 0x500\n 31717: u64 [a2 + 0xa0] = a1\n 31721: u64 [a2 + 0xa8] = a5\n 31725: u64 [a2 + 0xb0] = a3\n 31729: u64 [a2 + 0xb8] = a0\n 31733: a1 = s1 + 0x5a0\n 31737: a0 = u64 [s1 + 0xa8]\n 31741: ra = 1400, jump @12\n      : @1235 [@dyn 700] (gas: 3)\n 31747: a0 = u64 [s1 + 0x90]\n 31751: a0 = a0 & 0x2\n 31754: jump @1256 if a0 != 0\n      : @1236 (gas: 1)\n 31758: ra = 1402, jump @0\n      : @1237 [@dyn 701] (gas: 60)\n 31764: a1 = u64 [0x301a0]\n 31769: u64 [s1 + 0xa8] = a1\n 31773: a1 = u64 [0x301b0]\n 31778: u64 [s1 + 0x90] = a1\n 31782: a0 = u64 [0x301a8]\n 31787: u64 [s1 + 0x88] = a0\n 31791: ecalli 10 // 'ref_time_left'\n 31793: a1 = u64 [s1 + 0x88]\n 31797: a1 = reverse a1\n 31799: a2 = a1 << 0x20\n 31802: a3 = u64 [s1 + 0x90]\n 31806: a3 = reverse a3\n 31808: a3 = a3 >> 0x20\n 31811: a2 = a2 | a3\n 31814: a3 = a1 >> 0x20\n 31817: a1 = u64 [s1 + 0xa8]\n 31821: a4 = reverse a1\n 31823: a1 = 0x30180\n 31828: a5 = a4 << 0x20\n 31831: a3 = a3 | a5\n 31834: a4 = a4 >> 0x20\n 31837: u32 [0x30190] = a4\n 31842: u64 [0x30188] = a3\n 31847: u64 [0x30180] = a2\n 31852: a2 = u64 [0x20120]\n 31857: u64 [s1 + 1496] = 0\n 31861: u64 [s1 + 1488] = 0\n 31865: u64 [s1 + 1480] = 0\n 31869: u64 [s1 + 0x90] = a2\n 31873: u64 [s1 + 0x5c0] = a2\n 31877: u32 [s1 + 1504] = 0\n 31881: a0 = a0 >u 0x8fc\n 31885: a2 = -a0\n 31887: a3 = s1 + 0x600\n 31891: u64 [a3 + 0x18] = a2\n 31894: u64 [a3 + 0x10] = a2\n 31897: u64 [a3 + 0x8] = a2\n 31900: u64 [a3] = a2\n 31902: a1 = a1 << 0x20\n 31905: a1 = a1 >> 0x20\n 31908: a0 = a0 << 0x23\n 31911: a0 = a0 | a1\n 31914: a1 = s1 + 0x5c0\n 31918: a1 = a1 << 0x20\n 31921: a1 = a1 >> 0x20\n 31924: a2 = s1 + 0x600\n 31928: a2 = a2 << 0x20\n 31931: a3 = a2 | a1\n 31934: a4 = u64 [s1 + 0x70]\n 31937: a4 = a4 << 0x20\n 31940: a4 = a4 >> 0x20\n 31943: a1 = s1 + 0x5e0\n 31947: a1 = a1 << 0x20\n 31950: a5 = a1 | a4\n 31953: a1 = 0xffffffffffffffff\n 31956: a2 = 0xffffffffffffffff\n 31959: ecalli 0 // 'call'\n 31960: u64 [s1 + 0xa8] = a0\n 31964: ecalli 12 // 'return_data_size'\n 31966: fallthrough\n      : @1238 (gas: 1)\n 31967: jump @1250 if a0 == 0\n      : @1239 (gas: 3)\n 31971: ra = 0x57c\n 31975: ecalli 12 // 'return_data_size'\n 31977: fallthrough\n      : @1240 [@dyn 702] (gas: 3)\n 31978: a2 = a0 + 0x1f\n 31981: u64 [s1 + 0x88] = a0\n 31985: t0 = 1406, jump @1350\n      : @1241 [@dyn 703] (gas: 7)\n 31991: u64 [s1 + 536] = 0\n 31995: u64 [s1 + 0x200] = a2\n 31999: u64 [s1 + 0x208] = a3\n 32003: a0 = s1 + 0x220\n 32007: a1 = s1 + 0x200\n 32011: u64 [s1 + 0x210] = a4\n 32015: ra = 1408, jump @1276\n      : @1242 [@dyn 704] (gas: 16)\n 32021: a4 = s1 + 0x200\n 32025: a2 = u64 [a4 + 0x38]\n 32028: a3 = u64 [a4 + 0x30]\n 32031: a1 = u64 [a4 + 0x28]\n 32034: a0 = u64 [a4 + 0x20]\n 32037: u64 [s1 + 0x80] = a1\n 32041: u64 [s1 + 0x78] = a2\n 32044: a2 = a2 | a1\n 32047: a1 = a0 | a3\n 32050: a1 = a1 | a2\n 32053: a1 = a1 >> 0x20\n 32056: u64 [s1 + 0x70] = a3\n 32059: a2 = a2 | a3\n 32062: a2 = a2 << 0x20\n 32065: a1 = a1 | a2\n 32068: jump @1264 if a1 != 0\n      : @1243 (gas: 8)\n 32072: u64 [s1 + 504] = 0\n 32076: u64 [s1 + 496] = 0\n 32080: u64 [s1 + 488] = 0\n 32084: a1 = s1 + 0x1e0\n 32088: a2 = u64 [s1 + 0x88]\n 32092: u64 [s1 + 0x1e0] = a2\n 32096: u64 [s1 + 0x88] = a0\n 32100: ra = 1410, jump @9\n      : @1244 [@dyn 705] (gas: 2)\n 32106: ecalli 12 // 'return_data_size'\n 32108: fallthrough\n      : @1245 (gas: 10)\n 32109: a3 = u64 [s1 + 0x88]\n 32113: a1 = u64 [s1 + 0x78]\n 32116: a2 = u64 [s1 + 0x70]\n 32119: a1 = a1 | a2\n 32122: a2 = 0xffffffe0\n 32132: a2 = a3 <u a2\n 32135: a4 = u64 [s1 + 0x80]\n 32139: a2 = 0 if a4 != 0\n 32141: a2 = 0 if a1 != 0\n 32143: jump @1264 if a2 == 0\n      : @1246 (gas: 3)\n 32147: a1 = a0\n 32149: a0 = a0 >> 0x20\n 32152: jump @1264 if a0 != 0\n      : @1247 (gas: 7)\n 32156: i32 a0 = a3 + 0x20\n 32159: a2 = a1\n 32161: u64 [s1 + 0x80] = a1\n 32165: i32 a1 = a1 + 0\n 32167: u64 [s1 + 0x88] = a1\n 32171: a1 = a2\n 32173: ra = 1412, jump @21\n      : @1248 [@dyn 706] (gas: 7)\n 32179: a1 = u64 [s1 + 0x80]\n 32183: u32 [s1 + 0x620] = a1\n 32187: i32 a0 = a0 + 0\n 32189: i32 a1 = s1 + 0x620\n 32193: a2 = 0\n 32195: ecalli 11 // 'return_data_copy'\n 32197: fallthrough\n      : @1249 (gas: 3)\n 32198: a0 = i32 [s1 + 0x620]\n 32202: a1 = u64 [s1 + 0x88]\n 32206: jump @1264 if a0 <u a1\n      : @1250 (gas: 2)\n 32210: a0 = u64 [s1 + 0xa8]\n 32214: jump @1272 if a0 != 0\n      : @1251 (gas: 3)\n 32218: a0 = s1 + 0x1a0\n 32222: a1 = 0x40\n 32225: ra = 1414, jump @7\n      : @1252 [@dyn 707] (gas: 6)\n 32231: a4 = s1 + 0x100\n 32235: a0 = u64 [a4 + 0xb8]\n 32239: a1 = u64 [a4 + 0xb0]\n 32243: a2 = u64 [a4 + 0xa8]\n 32247: a3 = u64 [a4 + 0xa0]\n 32251: t0 = 1416, jump @1331\n      : @1253 [@dyn 708] (gas: 1)\n 32257: jump @1264 if a0 != 0\n      : @1254 (gas: 9)\n 32261: u64 [s1 + 408] = 0\n 32265: u64 [s1 + 400] = 0\n 32269: u64 [s1 + 392] = 0\n 32273: a1 = s1 + 0x180\n 32277: a0 = u64 [s1 + 0x90]\n 32281: u64 [s1 + 0x180] = a0\n 32285: a0 = a3\n 32287: u64 [s1 + 0xb8] = a3\n 32291: ra = 1418, jump @9\n      : @1255 [@dyn 709] (gas: 33)\n 32297: u64 [s1 + 280] = 0\n 32301: u64 [s1 + 272] = 0\n 32305: u64 [s1 + 264] = 0\n 32309: a0 = u64 [s1 + 0x30]\n 32312: u64 [s1 + 0x100] = a0\n 32316: u64 [s1 + 312] = 0\n 32320: u64 [s1 + 304] = 0\n 32324: u64 [s1 + 296] = 0\n 32328: a0 = u64 [s1 + 0x98]\n 32332: u64 [s1 + 0x120] = a0\n 32336: u64 [s1 + 344] = 0\n 32340: a0 = u64 [s1 + 0xa0]\n 32344: u64 [s1 + 0x150] = a0\n 32348: a0 = u64 [s1 + 0x38]\n 32351: u64 [s1 + 0x148] = a0\n 32355: a0 = u64 [0x20148]\n 32360: a1 = u64 [0x20150]\n 32365: a2 = u64 [0x20158]\n 32370: a3 = u64 [s1 + 0x40]\n 32373: u64 [s1 + 0x140] = a3\n 32377: u64 [s1 + 0x178] = a0\n 32381: u64 [s1 + 0x170] = a1\n 32385: u64 [s1 + 0x168] = a2\n 32389: a0 = u64 [0x20160]\n 32394: a1 = 0x20\n 32397: a2 = s1 + 0x160\n 32401: a3 = s1 + 0x140\n 32405: a4 = s1 + 0x120\n 32409: a5 = s1 + 0x100\n 32413: u64 [s1 + 0x160] = a0\n 32417: a0 = u64 [s1 + 0xb8]\n 32421: ra = 0x596\n 32425: jump @18\n      : @1256 (gas: 8)\n 32428: a0 = sp + 0xffffffffffffffe0\n 32431: a5 = a0 & 0xffffffffffffffe0\n 32434: sp = a5\n 32436: a1 = u64 [s1 + 0x68]\n 32439: a0 = a1 + 0x2\n 32442: a1 = a0 <u a1\n 32445: a3 = u64 [s1 + 0x78]\n 32448: t0 = 1420, jump @1349\n      : @1257 [@dyn 710] (gas: 13)\n 32454: a1 = u64 [s1 + 0x80]\n 32458: a3 = a3 + a1\n 32461: a1 = a3 <u a1\n 32464: a4 = u64 [s1 + 0x88]\n 32468: a4 = a4 + a1\n 32471: a1 = a5\n 32473: u64 [s1 + 0xb8] = a5\n 32477: u64 [a5 + 0x8] = a2\n 32480: u64 [a5] = a0\n 32482: u64 [a5 + 0x10] = a3\n 32485: u64 [a5 + 0x18] = a4\n 32488: a0 = s1 + 0x300\n 32492: ra = 1422, jump @11\n      : @1258 [@dyn 711] (gas: 23)\n 32498: a5 = s1 + 0x300\n 32502: a0 = u64 [a5]\n 32504: a4 = u64 [0x20120]\n 32509: a1 = u64 [a5 + 0x18]\n 32512: a2 = u64 [a5 + 0x8]\n 32515: a3 = u64 [a5 + 0x10]\n 32518: u64 [s1 + 0xb0] = a4\n 32522: a4 = a4 + a0\n 32525: a0 = a4 <u a0\n 32528: a5 = a2 + a0\n 32531: a2 = a5 <u a2\n 32534: a2 = a0 if a0 == 0\n 32537: a2 = a2 + a3\n 32540: a0 = a2 <u a3\n 32543: a0 = a0 + a1\n 32546: a1 = s1 + 0x600\n 32550: u64 [a1 + 0x40] = a4\n 32553: u64 [a1 + 0x48] = a5\n 32556: u64 [a1 + 0x50] = a2\n 32559: u64 [a1 + 0x58] = a0\n 32562: a1 = s1 + 0x640\n 32566: a0 = u64 [s1 + 0xb8]\n 32570: ra = 1424, jump @12\n      : @1259 [@dyn 712] (gas: 3)\n 32576: a0 = s1 + 0x2e0\n 32580: a1 = 0x40\n 32583: ra = 1426, jump @7\n      : @1260 [@dyn 713] (gas: 13)\n 32589: a4 = s1 + 0x200\n 32593: a3 = u64 [a4 + 0xf8]\n 32597: a1 = u64 [a4 + 0xf0]\n 32601: a2 = u64 [a4 + 0xe8]\n 32605: a0 = u64 [a4 + 0xe0]\n 32609: a3 = a3 | a2\n 32612: a2 = a0 | a1\n 32615: a2 = a2 | a3\n 32618: a2 = a2 >> 0x20\n 32621: a1 = a1 | a3\n 32624: a1 = a1 << 0x20\n 32627: a1 = a1 | a2\n 32630: jump @1264 if a1 != 0\n      : @1261 (gas: 8)\n 32634: u64 [s1 + 728] = 0\n 32638: u64 [s1 + 720] = 0\n 32642: u64 [s1 + 712] = 0\n 32646: a1 = s1 + 0x2c0\n 32650: a2 = u64 [s1 + 0xb0]\n 32654: u64 [s1 + 0x2c0] = a2\n 32658: u64 [s1 + 0xb8] = a0\n 32662: ra = 1428, jump @9\n      : @1262 [@dyn 714] (gas: 32)\n 32668: u64 [s1 + 600] = 0\n 32672: u64 [s1 + 592] = 0\n 32676: u64 [s1 + 584] = 0\n 32680: a0 = u64 [s1 + 0x30]\n 32683: u64 [s1 + 0x240] = a0\n 32687: u64 [s1 + 632] = 0\n 32691: u64 [s1 + 624] = 0\n 32695: u64 [s1 + 616] = 0\n 32699: a0 = u64 [s1 + 0x98]\n 32703: u64 [s1 + 0x260] = a0\n 32707: u64 [s1 + 664] = 0\n 32711: a0 = u64 [s1 + 0xa0]\n 32715: u64 [s1 + 0x290] = a0\n 32719: a0 = u64 [s1 + 0x38]\n 32722: u64 [s1 + 0x288] = a0\n 32726: a0 = u64 [0x20128]\n 32731: a1 = u64 [0x20130]\n 32736: a2 = u64 [0x20138]\n 32741: a3 = u64 [s1 + 0x40]\n 32744: u64 [s1 + 0x280] = a3\n 32748: u64 [s1 + 0x2b8] = a0\n 32752: u64 [s1 + 0x2b0] = a1\n 32756: u64 [s1 + 0x2a8] = a2\n 32760: a0 = u64 [0x20140]\n 32765: a1 = 0x20\n 32768: a2 = s1 + 0x2a0\n 32772: a3 = s1 + 0x280\n 32776: a4 = s1 + 0x260\n 32780: a5 = s1 + 0x240\n 32784: u64 [s1 + 0x2a0] = a0\n 32788: a0 = u64 [s1 + 0xb8]\n 32792: ra = 1430, jump @18\n      : @1263 [@dyn 715] (gas: 7)\n 32798: sp = s0 + 0xfffffffffffff980\n 32802: a0 = sp + 0x600\n 32806: ra = u64 [a0 + 0x78]\n 32809: s0 = u64 [a0 + 0x70]\n 32812: s1 = u64 [a0 + 0x68]\n 32815: sp = sp + 0x680\n 32819: ret\n      : @1264 (gas: 1)\n 32821: trap\n      : @1265 (gas: 8)\n 32822: u64 [s1 + 1360] = 0\n 32826: u64 [s1 + 1352] = 0\n 32830: u64 [s1 + 1344] = 0\n 32834: a0 = 0xcf114bd900000000\n 32844: a1 = s1 + 0x540\n 32848: u64 [s1 + 0x558] = a0\n 32852: a0 = 0\n 32854: ra = 1432, jump @9\n      : @1266 [@dyn 716] (gas: 2)\n 32860: a1 = i32 [0x20170]\n 32865: jump @1268 if a1 >u 31\n      : @1267 (gas: 2)\n 32869: u32 [0x20170] = 0x20\n 32875: fallthrough\n      : @1268 (gas: 6)\n 32876: a1 = 0x20180\n 32881: i32 a1 = a1 + 0\n 32883: a0 = 0x1\n 32886: a2 = 0x4\n 32889: ecalli 13 // 'seal_return'\n 32891: fallthrough\n      : @1269 (gas: 9)\n 32892: u64 [s1 + 208] = 0\n 32896: u64 [s1 + 200] = 0\n 32900: u64 [s1 + 192] = 0\n 32904: a0 = 0xa7a9536d00000000\n 32914: a1 = s1 + 0xc0\n 32918: u64 [s1 + 0xd8] = a0\n 32922: a0 = 0\n 32924: ra = 0x59a\n 32928: jump @9\n      : @1270 (gas: 9)\n 32931: u64 [s1 + 240] = 0\n 32935: u64 [s1 + 232] = 0\n 32939: u64 [s1 + 224] = 0\n 32943: a0 = 0xafa4e2b600000000\n 32953: a1 = s1 + 0xe0\n 32957: u64 [s1 + 0xf8] = a0\n 32961: a0 = 0\n 32963: ra = 0x59a\n 32967: jump @9\n      : @1271 (gas: 9)\n 32970: u64 [s1 + 944] = 0\n 32974: u64 [s1 + 936] = 0\n 32978: u64 [s1 + 928] = 0\n 32982: a0 = 0x560ff90000000000\n 32992: a1 = s1 + 0x3a0\n 32996: u64 [s1 + 0x3b8] = a0\n 33000: a0 = 0\n 33002: ra = 0x59a\n 33006: jump @9\n      : @1272 (gas: 8)\n 33009: u64 [s1 + 464] = 0\n 33013: u64 [s1 + 456] = 0\n 33017: u64 [s1 + 448] = 0\n 33021: a0 = 0x90b8ec1800000000\n 33031: a1 = s1 + 0x1c0\n 33035: u64 [s1 + 0x1d8] = a0\n 33039: a0 = 0\n 33041: ra = 1434, jump @9\n      : @1273 [@dyn 717] (gas: 3)\n 33047: a0 = u64 [s1 + 0xb0]\n 33051: a0 = i32 [a0]\n 33053: jump @1275 if a0 >u 31\n      : @1274 (gas: 3)\n 33057: a1 = u64 [s1 + 0xb0]\n 33061: u32 [a1 + 0] = 0x20\n 33064: fallthrough\n      : @1275 (gas: 6)\n 33065: a0 = 0x1\n 33068: a2 = 0x4\n 33071: a1 = u64 [s1 + 0xb8]\n 33075: ra = 0x59c\n 33079: ecalli 13 // 'seal_return'\n 33081: fallthrough\n      : @1276 [@dyn 718] (gas: 17)\n 33082: sp = sp + 0xffffffffffffff30\n 33086: u64 [sp + 0xc8] = ra\n 33090: u64 [sp + 0xc0] = s0\n 33094: u64 [sp + 0xb8] = s1\n 33098: s0 = sp + 0xd0\n 33102: sp = sp & 0xfffffffffffffff0\n 33105: a2 = u64 [a1 + 0x18]\n 33108: u64 [sp + 0x10] = a2\n 33111: a2 = u64 [a1 + 0x10]\n 33114: u64 [sp + 0x8] = a2\n 33117: a2 = u64 [a1 + 0x8]\n 33120: u64 [sp] = a2\n 33122: s1 = u64 [a1]\n 33124: u64 [sp + 0x28] = a0\n 33127: a0 = sp + 0x90\n 33131: a1 = 0x40\n 33134: ra = 1438, jump @7\n      : @1277 [@dyn 719] (gas: 39)\n 33141: a1 = u64 [sp + 0x98]\n 33145: a2 = u64 [sp + 0x90]\n 33149: a0 = s1 + 0x1f\n 33152: ra = a0 <u s1\n 33155: a3 = u64 [sp]\n 33157: a4 = a3 + ra\n 33160: a0 = a0 & 0xffffffffffffffe0\n 33163: t1 = a1 + a4\n 33166: t0 = a2 + a0\n 33169: u64 [sp + 0x20] = a2\n 33172: a5 = t0 <u a2\n 33175: t1 = t1 + a5\n 33178: s1 = t1 ^ a1\n 33181: u64 [sp + 0x18] = a1\n 33184: a2 = t1 <u a1\n 33187: a2 = a5 if s1 == 0\n 33190: t2 = u64 [sp + 0xa8]\n 33194: a4 = a4 <u a3\n 33197: s1 = u64 [sp + 0xa0]\n 33201: a4 = ra if ra == 0\n 33204: a0 = u64 [sp + 0x8]\n 33207: a4 = a4 + a0\n 33210: a5 = a4 <u a0\n 33213: a4 = a4 + s1\n 33216: a3 = a4 + a2\n 33219: a0 = u64 [sp + 0x10]\n 33222: a0 = a0 + t2\n 33225: a0 = a0 + a5\n 33228: a5 = a3 <u a4\n 33231: a4 = a4 <u s1\n 33234: a0 = a0 + a4\n 33237: a4 = a0 + a5\n 33240: a0 = a4 >u 0\n 33242: a5 = a3 >u 0\n 33244: a5 = a0 if a4 != 0\n 33247: a0 = a3 | a4\n 33250: a1 = t1 >u 0\n 33252: a1 = a5 if a0 != 0\n 33255: jump @1281 if a1 != 0\n      : @1278 (gas: 8)\n 33258: a0 = a3 <u s1\n 33261: a1 = a4 ^ t2\n 33264: a5 = a4 <u t2\n 33267: a5 = a0 if a1 == 0\n 33270: a0 = a3 ^ s1\n 33273: a0 = a0 | a1\n 33276: a2 = a5 if a0 != 0\n 33279: jump @1281 if a2 != 0\n      : @1279 (gas: 8)\n 33282: u64 [sp + 0x70] = t0\n 33285: u64 [sp + 0x78] = t1\n 33288: u64 [sp + 0x80] = a3\n 33292: a0 = 0x40\n 33295: a1 = sp + 0x70\n 33298: u64 [sp + 0x88] = a4\n 33302: u64 [sp + 0x10] = t2\n 33305: ra = 1440, jump @9\n      : @1280 [@dyn 720] (gas: 14)\n 33312: a0 = u64 [sp + 0x28]\n 33315: a1 = u64 [sp + 0x10]\n 33318: u64 [a0 + 0x18] = a1\n 33321: u64 [a0 + 0x10] = s1\n 33324: a1 = u64 [sp + 0x18]\n 33327: u64 [a0 + 0x8] = a1\n 33330: a1 = u64 [sp + 0x20]\n 33333: u64 [a0] = a1\n 33335: sp = s0 + 0xffffffffffffff30\n 33339: ra = u64 [sp + 0xc8]\n 33343: s0 = u64 [sp + 0xc0]\n 33347: s1 = u64 [sp + 0xb8]\n 33351: sp = sp + 0xd0\n 33355: ret\n      : @1281 (gas: 8)\n 33357: u64 [sp + 96] = 0\n 33360: u64 [sp + 88] = 0\n 33363: u64 [sp + 80] = 0\n 33366: a0 = 0x4e487b7100000000\n 33376: a1 = sp + 0x50\n 33379: u64 [sp + 0x68] = a0\n 33382: a0 = 0\n 33384: ra = 1442, jump @9\n      : @1282 [@dyn 721] (gas: 7)\n 33391: u64 [sp + 72] = 0\n 33394: u64 [sp + 64] = 0\n 33397: u64 [sp + 48] = 0x41\n 33401: a0 = 0x4\n 33404: a1 = sp + 0x30\n 33407: u64 [sp + 56] = 0\n 33410: ra = 1444, jump @9\n      : @1283 [@dyn 722] (gas: 2)\n 33417: a1 = i32 [0x20170]\n 33422: jump @1285 if a1 >u 63\n      : @1284 (gas: 2)\n 33426: u32 [0x20170] = 0x40\n 33432: fallthrough\n      : @1285 (gas: 7)\n 33433: a1 = 0x20180\n 33438: i32 a1 = a1 + 0\n 33440: a0 = 0x1\n 33443: a2 = 0x24\n 33446: ra = 0x5a6\n 33450: ecalli 13 // 'seal_return'\n 33452: fallthrough\n      : @1286 [@dyn 723] (gas: 74)\n 33453: sp = sp + 0xfffffffffffffec0\n 33457: u64 [sp + 0x138] = ra\n 33461: u64 [sp + 0x130] = s0\n 33465: u64 [sp + 0x128] = s1\n 33469: s0 = sp + 0x140\n 33473: sp = sp & 0xffffffffffffffe0\n 33476: a2 = u64 [a1]\n 33478: u64 [sp + 0x38] = a2\n 33481: a2 = u64 [a1 + 0x8]\n 33484: u64 [sp + 0x30] = a2\n 33487: a2 = u64 [a1 + 0x10]\n 33490: u64 [sp + 0x28] = a2\n 33493: a1 = u64 [a1 + 0x18]\n 33496: u64 [sp + 0x20] = a1\n 33499: a1 = u64 [a0]\n 33501: u64 [sp + 0x18] = a1\n 33504: a1 = u64 [a0 + 0x10]\n 33507: u64 [sp + 0x10] = a1\n 33510: s1 = u64 [a0 + 0x8]\n 33513: ecalli 10 // 'ref_time_left'\n 33515: a1 = reverse s1\n 33517: a2 = a1 << 0x20\n 33520: a3 = u64 [sp + 0x10]\n 33523: a3 = reverse a3\n 33525: a3 = a3 >> 0x20\n 33528: a2 = a2 | a3\n 33531: a1 = a1 >> 0x20\n 33534: a3 = u64 [sp + 0x18]\n 33537: a3 = reverse a3\n 33539: a4 = 0x30180\n 33544: a5 = a3 << 0x20\n 33547: a1 = a1 | a5\n 33550: a3 = a3 >> 0x20\n 33553: u32 [0x30190] = a3\n 33558: u64 [0x30188] = a1\n 33563: u64 [0x30180] = a2\n 33568: a1 = u64 [sp + 0x20]\n 33571: u64 [sp + 0xd8] = a1\n 33575: a1 = u64 [sp + 0x28]\n 33578: u64 [sp + 0xd0] = a1\n 33582: a1 = u64 [sp + 0x30]\n 33585: u64 [sp + 0xc8] = a1\n 33589: a1 = u64 [sp + 0x38]\n 33592: u64 [sp + 0xc0] = a1\n 33596: u32 [sp + 224] = 0\n 33600: a0 = a0 >u 0x8fc\n 33604: a1 = -a0\n 33606: u64 [sp + 0x118] = a1\n 33610: u64 [sp + 0x110] = a1\n 33614: u64 [sp + 0x108] = a1\n 33618: u64 [sp + 0x100] = a1\n 33622: a4 = a4 << 0x20\n 33625: a4 = a4 >> 0x20\n 33628: a0 = a0 << 0x23\n 33631: a0 = a0 | a4\n 33634: a1 = sp + 0xc0\n 33638: a1 = a1 << 0x20\n 33641: a1 = a1 >> 0x20\n 33644: a4 = 0x20180\n 33649: a2 = sp + 0x100\n 33653: a2 = a2 << 0x20\n 33656: a3 = a2 | a1\n 33659: u64 [sp + 0x18] = a4\n 33662: a4 = a4 << 0x20\n 33665: a4 = a4 >> 0x20\n 33668: a1 = sp + 0xe0\n 33672: a1 = a1 << 0x20\n 33675: a5 = a1 | a4\n 33678: a1 = 0xffffffffffffffff\n 33681: a2 = 0xffffffffffffffff\n 33684: ecalli 0 // 'call'\n 33685: s1 = a0\n 33687: ecalli 12 // 'return_data_size'\n 33689: fallthrough\n      : @1287 (gas: 1)\n 33690: jump @1299 if a0 == 0\n      : @1288 (gas: 4)\n 33694: u64 [sp + 0x20] = s1\n 33697: ra = 0x5a8\n 33701: ecalli 12 // 'return_data_size'\n 33703: fallthrough\n      : @1289 [@dyn 724] (gas: 3)\n 33704: a2 = a0 + 0x1f\n 33707: u64 [sp + 0x38] = a0\n 33710: t0 = 1450, jump @1350\n      : @1290 [@dyn 725] (gas: 7)\n 33716: u64 [sp + 152] = 0\n 33720: u64 [sp + 0x80] = a2\n 33724: u64 [sp + 0x88] = a3\n 33728: a0 = sp + 0xa0\n 33732: a1 = sp + 0x80\n 33736: u64 [sp + 0x90] = a4\n 33740: ra = 1452, jump @1276\n      : @1291 [@dyn 726] (gas: 14)\n 33746: a2 = u64 [sp + 0xb8]\n 33750: s1 = u64 [sp + 0xb0]\n 33754: a1 = u64 [sp + 0xa8]\n 33758: a0 = u64 [sp + 0xa0]\n 33762: u64 [sp + 0x30] = a1\n 33765: u64 [sp + 0x28] = a2\n 33768: a2 = a2 | a1\n 33771: a1 = a0 | s1\n 33774: a1 = a1 | a2\n 33777: a1 = a1 >> 0x20\n 33780: a2 = a2 | s1\n 33783: a2 = a2 << 0x20\n 33786: a1 = a1 | a2\n 33789: jump @1301 if a1 != 0\n      : @1292 (gas: 8)\n 33793: u64 [sp + 120] = 0\n 33796: u64 [sp + 112] = 0\n 33799: u64 [sp + 104] = 0\n 33802: a1 = sp + 0x60\n 33805: a2 = u64 [sp + 0x38]\n 33808: u64 [sp + 0x60] = a2\n 33811: u64 [sp + 0x38] = a0\n 33814: ra = 1454, jump @9\n      : @1293 [@dyn 727] (gas: 2)\n 33821: ecalli 12 // 'return_data_size'\n 33823: fallthrough\n      : @1294 (gas: 9)\n 33824: a3 = u64 [sp + 0x38]\n 33827: a1 = u64 [sp + 0x28]\n 33830: a1 = a1 | s1\n 33833: a2 = 0xffffffe0\n 33843: a2 = a3 <u a2\n 33846: a4 = u64 [sp + 0x30]\n 33849: a2 = 0 if a4 != 0\n 33851: a2 = 0 if a1 != 0\n 33853: jump @1301 if a2 == 0\n      : @1295 (gas: 3)\n 33856: s1 = a0\n 33858: a0 = a0 >> 0x20\n 33861: jump @1301 if a0 != 0\n      : @1296 (gas: 5)\n 33864: i32 a0 = a3 + 0x20\n 33867: i32 a1 = s1 + 0\n 33869: u64 [sp + 0x38] = a1\n 33872: a1 = s1\n 33874: ra = 1456, jump @21\n      : @1297 [@dyn 728] (gas: 6)\n 33880: u32 [sp + 0x120] = s1\n 33884: i32 a0 = a0 + 0\n 33886: i32 a1 = sp + 0x120\n 33890: a2 = 0\n 33892: ecalli 11 // 'return_data_copy'\n 33894: fallthrough\n      : @1298 (gas: 4)\n 33895: a0 = i32 [sp + 0x120]\n 33899: s1 = u64 [sp + 0x20]\n 33902: a1 = u64 [sp + 0x38]\n 33905: jump @1301 if a0 <u a1\n      : @1299 (gas: 1)\n 33908: jump @1302 if s1 != 0\n      : @1300 (gas: 6)\n 33911: sp = s0 + 0xfffffffffffffec0\n 33915: ra = u64 [sp + 0x138]\n 33919: s0 = u64 [sp + 0x130]\n 33923: s1 = u64 [sp + 0x128]\n 33927: sp = sp + 0x140\n 33931: ret\n      : @1301 (gas: 1)\n 33933: trap\n      : @1302 (gas: 8)\n 33934: u64 [sp + 80] = 0\n 33937: u64 [sp + 72] = 0\n 33940: u64 [sp + 64] = 0\n 33943: a0 = 0x90b8ec1800000000\n 33953: a1 = sp + 0x40\n 33956: u64 [sp + 0x58] = a0\n 33959: a0 = 0\n 33961: ra = 1458, jump @9\n      : @1303 [@dyn 729] (gas: 2)\n 33968: a1 = i32 [0x20170]\n 33973: jump @1305 if a1 >u 31\n      : @1304 (gas: 2)\n 33977: u32 [0x20170] = 0x20\n 33983: fallthrough\n      : @1305 (gas: 7)\n 33984: a1 = i32 [sp + 0x18]\n 33987: a0 = 0x1\n 33990: a2 = 0x4\n 33993: ecalli 13 // 'seal_return'\n 33995: a0 = 0\n 33997: ra = 0x5b4\n 34001: jump @27\n      : @1306 [export #0: 'call'] (gas: 2)\n 34004: a0 = 0\n 34006: ra = 1460, jump @27\n      : @1307 [@dyn 730] [export #1: 'deploy'] (gas: 2)\n 34012: a0 = 0x1\n 34015: ra = 1462, jump @27\n      : @1308 [@dyn 731] (gas: 15)\n 34021: a0 = u64 [a2 + 0x8]\n 34024: a1 = i32 [a2 + 0x10]\n 34027: a2 = u64 [a2]\n 34029: a0 = reverse a0\n 34031: a3 = a0 << 0x20\n 34034: a1 = reverse a1\n 34036: a1 = a1 >> 0x20\n 34039: a3 = a3 | a1\n 34042: a0 = a0 >> 0x20\n 34045: a1 = reverse a2\n 34047: a2 = a1 << 0x20\n 34050: a0 = a0 | a2\n 34053: a1 = a1 >> 0x20\n 34056: a2 = s1 + 0x1898\n 34060: jump [t0]\n      : @1309 (gas: 17)\n 34062: a2 = u64 [s1 + 0xd0]\n 34066: a0 = u64 [a2 + 0x8]\n 34069: a1 = i32 [a2 + 0x10]\n 34072: a2 = u64 [a2]\n 34074: a0 = reverse a0\n 34076: a3 = a0 << 0x20\n 34079: a1 = reverse a1\n 34081: a1 = a1 >> 0x20\n 34084: a3 = a3 | a1\n 34087: a0 = a0 >> 0x20\n 34090: a1 = reverse a2\n 34092: a2 = a1 << 0x20\n 34095: a0 = a0 | a2\n 34098: a1 = a1 >> 0x20\n 34101: a2 = s1 + 0x7ff\n 34105: a2 = a2 + 0x99\n 34109: jump [t0]\n      : @1310 (gas: 5)\n 34111: sp = a0\n 34113: i32 a2 = a0 + 0\n 34115: a1 = 0x40\n 34118: a0 = u64 [s1 + 0x110]\n 34122: jump [t0]\n      : @1311 (gas: 8)\n 34124: a0 = u64 [a2 + 0x8]\n 34127: a1 = i32 [a2 + 0x10]\n 34130: a2 = u64 [a2]\n 34132: a3 = reverse a0\n 34134: a0 = a3 << 0x20\n 34137: a1 = reverse a1\n 34139: a1 = a1 >> 0x20\n 34142: jump [t0]\n      : @1312 (gas: 27)\n 34144: u64 [s1 + 0xe8] = a0\n 34148: a0 = ra - a3\n 34151: a0 = a0 <u a5\n 34154: a1 = ra <u a3\n 34157: a5 = u64 [s1 + 0xb8]\n 34161: a4 = ra - a5\n 34164: a4 = a4 - a1\n 34167: a4 = a4 - a0\n 34170: ra = a4 >>a 0x3f\n 34173: a0 = u64 [s1 + 0xb0]\n 34177: a0 = ra & a0\n 34180: a1 = u64 [s1 + 0xc0]\n 34184: t2 = a1 - a0\n 34187: a1 = a1 <u a0\n 34190: t1 = a2 - a1\n 34193: a1 = 0 if a2 != 0\n 34195: a0 = a3 - a1\n 34198: u64 [s1 + 0xc8] = a0\n 34202: a1 = a3 <u a1\n 34205: a1 = a5 - a1\n 34208: a0 = s1 + 0x100\n 34212: a3 = u64 [a0 + 0x18]\n 34215: a5 = u64 [a0 + 0x10]\n 34218: a2 = a3 | a5\n 34221: a2 = a2 <u 0x1\n 34224: a4 = u64 [a0]\n 34226: jump [t0]\n      : @1313 (gas: 10)\n 34228: a0 = u64 [a3 + 0x18]\n 34231: a1 = u64 [a3 + 0x10]\n 34234: a2 = u64 [a3 + 0x8]\n 34237: a3 = u64 [a3]\n 34239: a0 = reverse a0\n 34241: a1 = reverse a1\n 34243: a2 = reverse a2\n 34245: a3 = reverse a3\n 34247: a4 = s1 + 0x2098\n 34251: jump [t0]\n      : @1314 (gas: 15)\n 34253: a0 = u64 [a2 + 0x8]\n 34256: a1 = i32 [a2 + 0x10]\n 34259: a2 = u64 [a2]\n 34261: a0 = reverse a0\n 34263: a3 = a0 << 0x20\n 34266: a1 = reverse a1\n 34268: a1 = a1 >> 0x20\n 34271: a3 = a3 | a1\n 34274: a0 = a0 >> 0x20\n 34277: a1 = reverse a2\n 34279: a2 = a1 << 0x20\n 34282: a0 = a0 | a2\n 34285: a1 = a1 >> 0x20\n 34288: a2 = s1 + 0x1098\n 34292: jump [t0]\n      : @1315 (gas: 15)\n 34294: a2 = u64 [s1 + 0x100]\n 34298: a0 = u64 [a2 + 0x8]\n 34301: a1 = i32 [a2 + 0x10]\n 34304: a2 = u64 [a2]\n 34306: a0 = reverse a0\n 34308: a3 = a0 << 0x20\n 34311: a1 = reverse a1\n 34313: a1 = a1 >> 0x20\n 34316: a3 = a3 | a1\n 34319: a0 = a0 >> 0x20\n 34322: a1 = reverse a2\n 34324: a2 = a1 << 0x20\n 34327: a0 = a0 | a2\n 34330: a1 = a1 >> 0x20\n 34333: jump [t0]\n      : @1316 (gas: 24)\n 34335: a0 = a1 if a2 == 0\n 34338: a2 = u64 [s1 + 0xd0]\n 34342: a3 = a2\n 34344: a1 = a2\n 34346: a2 = u64 [s1 + 0xe0]\n 34350: a3 = a0 if a2 != 0\n 34353: u64 [s1 + 0xe8] = a3\n 34357: a0 = u64 [s1 + 0xc8]\n 34361: a3 = u64 [s1 + 0xb0]\n 34365: a0 = a0 | a3\n 34368: a3 = u64 [s1 + 0xa0]\n 34372: a0 = a3 if a5 == 0\n 34375: a4 = u64 [s1 + 0xd8]\n 34379: a3 = a4\n 34381: a3 = a0 if a2 != 0\n 34384: u64 [s1 + 0xe0] = a3\n 34388: a0 = u64 [s1 + 0xf0]\n 34392: a0 = 0 if a5 == 0\n 34394: u64 [s1 + 0xf0] = a0\n 34398: u64 [s1 + 176] = 0x15180\n 34405: a0 = u64 [s1 + 0x118]\n 34409: a2 = a0 + 0xffffffffffffff80\n 34412: a0 = a4\n 34414: jump [t0]\n      : @1317 (gas: 8)\n 34416: a0 = sp + 0xffffffffffffffe0\n 34419: a0 = a0 & 0xffffffffffffffe0\n 34422: u64 [s1 + 0x110] = a0\n 34426: sp = a0\n 34428: i32 a2 = a0 + 0\n 34430: a1 = 0x40\n 34433: a0 = u64 [s1 + 0x90]\n 34437: jump [t0]\n      : @1318 (gas: 18)\n 34439: a1 = a2 + 0x1\n 34442: u64 [s1 + 0x118] = a1\n 34446: a0 = a1 <u 0x1\n 34449: a0 = a0 + a3\n 34452: u64 [s1 + 0x110] = a0\n 34456: a0 = a0 | a1\n 34459: a0 = a0 <u 0x1\n 34462: a0 = a0 + t1\n 34465: u64 [s1 + 0x100] = a0\n 34469: a0 = a0 <u t1\n 34472: a0 = a0 + ra\n 34475: u64 [s1 + 0x108] = a0\n 34479: a1 = 0xff - a2\n 34483: u64 [s1 + 0xe0] = a1\n 34487: a2 = 0x80 - a1\n 34491: a0 = u64 [s1 + 0xc0]\n 34495: a1 = u64 [s1 + 0xb8]\n 34499: jump [t0]\n      : @1319 (gas: 21)\n 34501: a3 = u64 [s1 + 0x100]\n 34505: a0 = u64 [a3 + 0x18]\n 34508: a1 = u64 [a3 + 0x10]\n 34511: a2 = u64 [a3 + 0x8]\n 34514: a3 = u64 [a3]\n 34516: a0 = reverse a0\n 34518: u64 [s1 + 0xf0] = a0\n 34522: a0 = reverse a1\n 34524: u64 [s1 + 0xe8] = a0\n 34528: a0 = reverse a2\n 34530: u64 [s1 + 0xe0] = a0\n 34534: a0 = reverse a3\n 34536: u64 [s1 + 0xd8] = a0\n 34540: a0 = sp + 0xffffffffffffffe0\n 34543: a0 = a0 & 0xffffffffffffffe0\n 34546: u64 [s1 + 0x100] = a0\n 34550: sp = a0\n 34552: a2 = s1 + 0x7ff\n 34556: a2 = a2 + 0x99\n 34560: a0 = u64 [s1 + 0xf8]\n 34564: jump [t0]\n      : @1320 (gas: 8)\n 34566: a3 = a4 <u a3\n 34569: a5 = a2 + a3\n 34572: a2 = a5 <u a2\n 34575: a2 = a3 if a3 == 0\n 34578: a2 = a2 + a1\n 34581: a1 = a2 <u a1\n 34584: a0 = a0 + a1\n 34587: jump [t0]\n      : @1321 (gas: 16)\n 34589: a3 = u64 [s1 + 0x110]\n 34593: a0 = u64 [a3 + 0x18]\n 34596: a1 = u64 [a3 + 0x10]\n 34599: a2 = u64 [a3 + 0x8]\n 34602: a3 = u64 [a3]\n 34604: a0 = reverse a0\n 34606: u64 [s1 + 0x110] = a0\n 34610: a0 = reverse a1\n 34612: u64 [s1 + 0x108] = a0\n 34616: a0 = reverse a2\n 34618: u64 [s1 + 0x100] = a0\n 34622: a0 = reverse a3\n 34624: u64 [s1 + 0xf8] = a0\n 34628: a0 = 0x1098\n 34632: a2 = s1 + a0\n 34635: jump [t0]\n      : @1322 (gas: 19)\n 34637: a3 = u64 [s1 + 0xf0]\n 34641: a0 = u64 [a3 + 0x18]\n 34644: a1 = u64 [a3 + 0x10]\n 34647: a2 = u64 [a3 + 0x8]\n 34650: a3 = u64 [a3]\n 34652: a0 = reverse a0\n 34654: u64 [s1 + 0xe8] = a0\n 34658: a0 = reverse a1\n 34660: u64 [s1 + 0xe0] = a0\n 34664: a0 = reverse a2\n 34666: u64 [s1 + 0xd8] = a0\n 34670: a0 = reverse a3\n 34672: u64 [s1 + 0xd0] = a0\n 34676: a0 = sp + 0xffffffffffffffe0\n 34679: a0 = a0 & 0xffffffffffffffe0\n 34682: u64 [s1 + 0xf0] = a0\n 34686: sp = a0\n 34688: a0 = u64 [s1 + 0x100]\n 34692: jump [t0]\n      : @1323 (gas: 16)\n 34694: a2 = u64 [s1 + 0x88]\n 34698: a0 = u64 [a2 + 0x8]\n 34701: a1 = i32 [a2 + 0x10]\n 34704: a2 = u64 [a2]\n 34706: a0 = reverse a0\n 34708: a3 = a0 << 0x20\n 34711: a1 = reverse a1\n 34713: a1 = a1 >> 0x20\n 34716: a3 = a3 | a1\n 34719: a0 = a0 >> 0x20\n 34722: a1 = reverse a2\n 34724: a2 = a1 << 0x20\n 34727: a0 = a0 | a2\n 34730: a1 = a1 >> 0x20\n 34733: a2 = s1 + 0x2098\n 34737: jump [t0]\n      : @1324 (gas: 17)\n 34739: a4 = s1 + 0x100\n 34743: a2 = u64 [a4]\n 34745: a0 = u64 [a2 + 0x8]\n 34748: a1 = i32 [a2 + 0x10]\n 34751: a2 = u64 [a2]\n 34753: a0 = reverse a0\n 34755: a3 = a0 << 0x20\n 34758: a1 = reverse a1\n 34760: a1 = a1 >> 0x20\n 34763: a3 = a3 | a1\n 34766: a0 = a0 >> 0x20\n 34769: a1 = reverse a2\n 34771: a2 = a1 << 0x20\n 34774: a0 = a0 | a2\n 34777: a1 = a1 >> 0x20\n 34780: a2 = u64 [a4 + 0x18]\n 34783: jump [t0]\n      : @1325 (gas: 18)\n 34785: a3 = u64 [s1 + 0xa8]\n 34789: a0 = u64 [a3 + 0x18]\n 34792: a1 = u64 [a3 + 0x10]\n 34795: a2 = u64 [a3 + 0x8]\n 34798: a3 = u64 [a3]\n 34800: a0 = reverse a0\n 34802: u64 [s1 + 0x90] = a0\n 34806: a0 = reverse a1\n 34808: u64 [s1 + 0x88] = a0\n 34812: a0 = reverse a2\n 34814: u64 [s1 + 0x80] = a0\n 34818: a0 = reverse a3\n 34820: u64 [s1 + 0x78] = a0\n 34823: a0 = sp + 0xffffffffffffffe0\n 34826: a0 = a0 & 0xffffffffffffffe0\n 34829: u64 [s1 + 0xa8] = a0\n 34833: sp = a0\n 34835: jump [t0]\n      : @1326 (gas: 14)\n 34837: a3 = u64 [s1 + 0x118]\n 34841: a0 = u64 [a3 + 0x18]\n 34844: a1 = u64 [a3 + 0x10]\n 34847: a2 = u64 [a3 + 0x8]\n 34850: a3 = u64 [a3]\n 34852: a5 = reverse a0\n 34854: u64 [s1 + 0x108] = a5\n 34858: a4 = reverse a1\n 34860: u64 [s1 + 0x110] = a4\n 34864: a2 = reverse a2\n 34866: u64 [s1 + 0x100] = a2\n 34870: a0 = reverse a3\n 34872: u64 [s1 + 0x118] = a0\n 34876: jump [t0]\n      : @1327 (gas: 15)\n 34878: a0 = u64 [a3 + 0x18]\n 34881: a1 = u64 [a3 + 0x10]\n 34884: a2 = u64 [a3 + 0x8]\n 34887: a3 = u64 [a3]\n 34889: a0 = reverse a0\n 34891: u64 [s1 + 0x108] = a0\n 34895: a0 = reverse a1\n 34897: u64 [s1 + 0x100] = a0\n 34901: a0 = reverse a2\n 34903: u64 [s1 + 0xf8] = a0\n 34907: a0 = reverse a3\n 34909: u64 [s1 + 0xf0] = a0\n 34913: a0 = sp + 0xffffffffffffffe0\n 34916: a0 = a0 & 0xffffffffffffffe0\n 34919: jump [t0]\n      : @1328 (gas: 15)\n 34921: t2 = u64 [s1 + 0xc0]\n 34925: t1 = u64 [s1 + 0xb8]\n 34929: u64 [s1 + 216] = 0\n 34933: u64 [s1 + 208] = 0\n 34937: a2 = u64 [s1 + 0xa8]\n 34941: a1 = 0 if a2 == 0\n 34943: a0 = 0 if a2 == 0\n 34945: u64 [s1 + 0xc8] = a0\n 34949: a3 = u64 [s1 + 0xb0]\n 34953: a2 = a3 + 0xffffffffffffffff\n 34956: u64 [s1 + 0xa8] = a2\n 34960: a2 = a3 >u 0\n 34962: a2 = a2 + 0xffffffffffffffff\n 34965: u64 [s1 + 0xa0] = a2\n 34969: jump [t0]\n      : @1329 (gas: 16)\n 34971: a3 = u64 [s1 + 0x110]\n 34975: a0 = u64 [a3 + 0x18]\n 34978: a1 = u64 [a3 + 0x10]\n 34981: a2 = u64 [a3 + 0x8]\n 34984: a3 = u64 [a3]\n 34986: a0 = reverse a0\n 34988: a4 = reverse a1\n 34990: a2 = reverse a2\n 34992: a3 = reverse a3\n 34994: a1 = u64 [s1 + 0x118]\n 34998: u64 [a1 + 0x18] = a3\n 35001: u64 [a1 + 0x10] = a2\n 35004: u64 [a1 + 0x8] = a4\n 35007: u64 [a1] = a0\n 35009: a0 = 0x2000\n 35013: jump [t0]\n      : @1330 (gas: 9)\n 35015: a0 = u64 [a3 + 0x18]\n 35018: a1 = u64 [a3 + 0x10]\n 35021: a2 = u64 [a3 + 0x8]\n 35024: a3 = u64 [a3]\n 35026: a0 = reverse a0\n 35028: a1 = reverse a1\n 35030: a2 = reverse a2\n 35032: a3 = reverse a3\n 35034: jump [t0]\n      : @1331 (gas: 8)\n 35036: a0 = a0 | a2\n 35039: a2 = a3 | a1\n 35042: a2 = a2 | a0\n 35045: a2 = a2 >> 0x20\n 35048: a0 = a0 | a1\n 35051: a0 = a0 << 0x20\n 35054: a0 = a0 | a2\n 35057: jump [t0]\n      : @1332 (gas: 15)\n 35059: a0 = u64 [a3 + 0x18]\n 35062: a1 = u64 [a3 + 0x10]\n 35065: a2 = u64 [a3 + 0x8]\n 35068: a3 = u64 [a3]\n 35070: a0 = reverse a0\n 35072: u64 [s1 + 0xe8] = a0\n 35076: a0 = reverse a1\n 35078: u64 [s1 + 0xe0] = a0\n 35082: a0 = reverse a2\n 35084: u64 [s1 + 0xd8] = a0\n 35088: a0 = reverse a3\n 35090: u64 [s1 + 0xd0] = a0\n 35094: a0 = sp + 0xffffffffffffffe0\n 35097: a0 = a0 & 0xffffffffffffffe0\n 35100: jump [t0]\n      : @1333 (gas: 15)\n 35102: a0 = u64 [a3 + 0x18]\n 35105: a1 = u64 [a3 + 0x10]\n 35108: a2 = u64 [a3 + 0x8]\n 35111: a3 = u64 [a3]\n 35113: a0 = reverse a0\n 35115: u64 [s1 + 0xf8] = a0\n 35119: a0 = reverse a1\n 35121: u64 [s1 + 0xf0] = a0\n 35125: a0 = reverse a2\n 35127: u64 [s1 + 0xe8] = a0\n 35131: a0 = reverse a3\n 35133: u64 [s1 + 0xe0] = a0\n 35137: a0 = sp + 0xffffffffffffffe0\n 35140: a0 = a0 & 0xffffffffffffffe0\n 35143: jump [t0]\n      : @1334 (gas: 14)\n 35145: a0 = u64 [a3 + 0x18]\n 35148: a1 = u64 [a3 + 0x10]\n 35151: a2 = u64 [a3 + 0x8]\n 35154: a3 = u64 [a3]\n 35156: a0 = reverse a0\n 35158: a4 = reverse a1\n 35160: a2 = reverse a2\n 35162: a3 = reverse a3\n 35164: a1 = u64 [s1 + 0x100]\n 35168: u64 [a1 + 0x18] = a3\n 35171: u64 [a1 + 0x10] = a2\n 35174: u64 [a1 + 0x8] = a4\n 35177: u64 [a1] = a0\n 35179: jump [t0]\n      : @1335 (gas: 8)\n 35181: a0 = sp + 0xffffffffffffffe0\n 35184: a0 = a0 & 0xffffffffffffffe0\n 35187: u64 [s1 + 0xf0] = a0\n 35191: sp = a0\n 35193: i32 a2 = a0 + 0\n 35195: a1 = 0x40\n 35198: a0 = u64 [s1 + 0x108]\n 35202: jump [t0]\n      : @1336 (gas: 9)\n 35204: a5 = s1 + 0x100\n 35208: u64 [a5 + 0x18] = a1\n 35211: u64 [a5 + 0x10] = a3\n 35214: a0 = a3 | a1\n 35217: u64 [s1 + 0xf8] = a2\n 35221: u64 [a5 + 0x8] = a4\n 35224: a1 = a4 | a2\n 35227: a0 = a0 | a1\n 35230: jump [t0]\n      : @1337 (gas: 12)\n 35232: a2 = t2 >> 0x3f\n 35235: a3 = t1 << 0x1\n 35238: a2 = a2 | a3\n 35241: a3 = t2 << 0x1\n 35244: t2 = u64 [s1 + 0xe8]\n 35248: a4 = t2 >> 0x3f\n 35251: a3 = a3 | a4\n 35254: u64 [s1 + 0xc0] = a3\n 35258: ra = u64 [s1 + 0xa0]\n 35262: a0 = t1\n 35264: t1 = ra ^ a2\n 35267: jump [t0]\n      : @1338 (gas: 15)\n 35269: a3 = u64 [s1 + 0x90]\n 35273: a0 = u64 [a3 + 0x18]\n 35276: a1 = u64 [a3 + 0x10]\n 35279: a2 = u64 [a3 + 0x8]\n 35282: a3 = u64 [a3]\n 35284: a0 = reverse a0\n 35286: a4 = reverse a1\n 35288: a2 = reverse a2\n 35290: a3 = reverse a3\n 35292: a1 = u64 [s1 + 0xa8]\n 35296: u64 [a1 + 0x18] = a3\n 35299: u64 [a1 + 0x10] = a2\n 35302: u64 [a1 + 0x8] = a4\n 35305: u64 [a1] = a0\n 35307: jump [t0]\n      : @1339 (gas: 14)\n 35309: a0 = u64 [a3 + 0x18]\n 35312: a1 = u64 [a3 + 0x10]\n 35315: a2 = u64 [a3 + 0x8]\n 35318: a3 = u64 [a3]\n 35320: a0 = reverse a0\n 35322: a4 = reverse a1\n 35324: a2 = reverse a2\n 35326: a3 = reverse a3\n 35328: a1 = u64 [s1 + 0xf0]\n 35332: u64 [a1 + 0x18] = a3\n 35335: u64 [a1 + 0x10] = a2\n 35338: u64 [a1 + 0x8] = a4\n 35341: u64 [a1] = a0\n 35343: jump [t0]\n      : @1340 (gas: 14)\n 35345: a3 = u64 [s1 + 0xf0]\n 35349: a0 = u64 [a3 + 0x18]\n 35352: a1 = u64 [a3 + 0x10]\n 35355: a2 = u64 [a3 + 0x8]\n 35358: a3 = u64 [a3]\n 35360: a0 = reverse a0\n 35362: u64 [s1 + 0xf0] = a0\n 35366: a0 = reverse a1\n 35368: u64 [s1 + 0xe8] = a0\n 35372: a0 = reverse a2\n 35374: u64 [s1 + 0xe0] = a0\n 35378: a0 = reverse a3\n 35380: u64 [s1 + 0xd8] = a0\n 35384: jump [t0]\n      : @1341 (gas: 10)\n 35386: u64 [s1] = a3\n 35388: u64 [s1 + 0x8] = a2\n 35391: u64 [s1 + 0x10] = a1\n 35394: u64 [s1 + 0x18] = a0\n 35397: sp = s0 + 0xffffffffffffffc0\n 35400: ra = u64 [sp + 0x38]\n 35403: s0 = u64 [sp + 0x30]\n 35406: s1 = u64 [sp + 0x28]\n 35409: sp = sp + 0x40\n 35412: jump [t0]\n      : @1342 (gas: 9)\n 35414: u64 [a2 + 0x20] = a0\n 35417: a0 = u64 [s1 + 0xe0]\n 35421: u64 [a2 + 0x18] = a0\n 35424: a0 = u64 [s1 + 0xe8]\n 35428: u64 [a2 + 0x10] = a0\n 35431: a3 = a1\n 35433: a0 = 0x20\n 35436: a1 = s1 + 0x7ff\n 35440: jump [t0]\n      : @1343 (gas: 8)\n 35442: a0 = sp + 0xffffffffffffffe0\n 35445: a0 = a0 & 0xffffffffffffffe0\n 35448: u64 [s1 + 0xa8] = a0\n 35452: sp = a0\n 35454: i32 a2 = a0 + 0\n 35456: a1 = 0x40\n 35459: a0 = u64 [s1 + 0xb8]\n 35463: jump [t0]\n      : @1344 (gas: 12)\n 35465: a1 = a1 << 0x1\n 35468: a4 = u64 [s1 + 0xc8]\n 35472: a3 = a4 >> 0x3f\n 35475: a1 = a1 | a3\n 35478: u64 [s1 + 0xb8] = a1\n 35482: a3 = a0 >> 0x3f\n 35485: a0 = a4 << 0x1\n 35488: a3 = a3 | a0\n 35491: a0 = t2 << 0x1\n 35494: a4 = u64 [s1 + 0xe0]\n 35498: a1 = a4 >> 0x3f\n 35501: jump [t0]\n      : @1345 (gas: 16)\n 35503: a4 = u64 [a3]\n 35505: u64 [sp + 0x18] = a4\n 35508: a4 = u64 [a3 + 0x8]\n 35511: u64 [sp + 0x20] = a4\n 35514: a4 = u64 [a3 + 0x10]\n 35517: u64 [sp + 0x28] = a4\n 35520: a3 = u64 [a3 + 0x18]\n 35523: u64 [sp + 0x30] = a3\n 35526: s1 = u64 [a2]\n 35528: a3 = u64 [a2 + 0x8]\n 35531: u64 [sp] = a3\n 35533: a3 = u64 [a2 + 0x10]\n 35536: u64 [sp + 0x8] = a3\n 35539: a2 = u64 [a2 + 0x18]\n 35542: u64 [sp + 0x10] = a2\n 35545: jump [t0]\n      : @1346 (gas: 9)\n 35547: u64 [s1 + 0xe0] = a3\n 35551: a1 = 0 if a4 == 0\n 35553: u64 [s1 + 0xe8] = a1\n 35557: u64 [s1 + 184] = 0x15180\n 35564: a0 = u64 [s1 + 0x110]\n 35568: a2 = a0 + 0xffffffffffffff80\n 35571: a0 = a5\n 35573: a1 = t1\n 35575: jump [t0]\n      : @1347 (gas: 10)\n 35577: a3 = u64 [s1 + 0x110]\n 35581: a0 = u64 [a3]\n 35583: a1 = u64 [a3 + 0x8]\n 35586: a2 = u64 [a3 + 0x10]\n 35589: a3 = u64 [a3 + 0x18]\n 35592: a0 = reverse a0\n 35594: a1 = reverse a1\n 35596: a2 = reverse a2\n 35598: a3 = reverse a3\n 35600: jump [t0]\n      : @1348 (gas: 4)\n 35602: a0 = u64 [s1 + 0x118]\n 35606: a0 = i32 [a0]\n 35608: a1 = 0x3f\n 35611: jump [t0]\n      : @1349 (gas: 4)\n 35613: a2 = a3 + a1\n 35616: a3 = a2 <u a3\n 35619: a3 = a1 if a1 == 0\n 35622: jump [t0]\n      : @1350 (gas: 8)\n 35624: a1 = a2 <u a0\n 35627: a0 = a2 & 0xffffffffffffffe0\n 35630: a2 = a0 + 0x20\n 35633: a0 = a2 <u a0\n 35636: a3 = a1 + a0\n 35639: a4 = a3 <u a1\n 35642: a4 = a0 if a0 == 0\n 35645: jump [t0]\n      : @1351 (gas: 11)\n 35647: a2 = u64 [s1 + 0xa8]\n 35651: a1 = a1 | a2\n 35654: a2 = u64 [s1 + 0x118]\n 35658: a3 = a2 <u 0x80\n 35662: u64 [s1 + 0xa8] = a3\n 35666: a4 = u64 [s1 + 0xa0]\n 35670: a1 = a4 if a3 == 0\n 35673: a4 = u64 [s1 + 0xb8]\n 35677: a4 = a1 if a2 != 0\n 35680: u64 [s1 + 0xb8] = a4\n 35684: jump [t0]\n      : @1352 (gas: 4)\n 35686: a0 = 0x2098\n 35690: a3 = s1 + a0\n 35693: a4 = a3 + 0x500\n 35697: jump [t0]\n      : @1353 (gas: 10)\n 35699: a2 = u64 [s1 + 0xa8]\n 35703: a1 = 0 if a2 == 0\n 35705: a0 = 0 if a2 == 0\n 35707: a3 = u64 [s1 + 0xb8]\n 35711: a2 = a3 + 0xffffffffffffffff\n 35714: u64 [s1 + 0xb0] = a2\n 35718: a2 = a3 >u 0\n 35720: a2 = a2 + 0xffffffffffffffff\n 35723: u64 [s1 + 0xa8] = a2\n 35727: jump [t0]\n      : @1354 (gas: 9)\n 35729: a0 = a0 & 0xffffffffffffffff\n 35732: a1 = a1 & 0xffffffffffffffff\n 35735: a2 = a2 & 0xffffffffffffffff\n 35738: a4 = u64 [s1 + 0xf8]\n 35742: a3 = a3 & a4\n 35745: a4 = u64 [s1 + 0x110]\n 35749: a3 = a3 | a4\n 35752: a4 = s1 + 0x2898\n 35756: jump [t0]\n      : @1355 (gas: 12)\n 35758: a0 = u64 [sp + 0x18]\n 35761: a1 = u64 [sp + 0x10]\n 35764: a2 = u64 [sp + 0x8]\n 35767: a3 = u64 [sp]\n 35769: a4 = a2 | a0\n 35772: a5 = a3 | a1\n 35775: a5 = a5 | a4\n 35778: a5 = a5 >> 0x20\n 35781: a4 = a4 | a1\n 35784: a4 = a4 << 0x20\n 35787: a4 = a4 | a5\n 35790: jump [t0]\n      : @1356 (gas: 9)\n 35792: a0 = u64 [a3 + 0x18]\n 35795: a1 = u64 [a3 + 0x10]\n 35798: a2 = u64 [a3 + 0x8]\n 35801: a3 = u64 [a3]\n 35803: a0 = reverse a0\n 35805: a4 = reverse a1\n 35807: a2 = reverse a2\n 35809: a3 = reverse a3\n 35811: jump [t0]\n      : @1357 (gas: 9)\n 35813: a0 = u64 [a3 + 0x18]\n 35816: a1 = u64 [a3 + 0x10]\n 35819: a2 = u64 [a3 + 0x8]\n 35822: a3 = u64 [a3]\n 35824: a5 = reverse a0\n 35826: a4 = reverse a1\n 35828: a0 = reverse a2\n 35830: a2 = reverse a3\n 35832: jump [t0]\n      : @1358 (gas: 7)\n 35834: a0 = u64 [s1 + 0x108]\n 35838: a0 = a0 + 0x1\n 35841: a1 = a0 <u 0x1\n 35844: a2 = u64 [s1 + 0x110]\n 35848: a1 = a1 + a2\n 35851: a2 = s1 + 0x2098\n 35855: jump [t0]\n      : @1359 (gas: 7)\n 35857: a3 = u64 [s1 + 0xd0]\n 35861: a0 = a0 - a3\n 35864: a3 = u64 [s1 + 0x108]\n 35868: a4 = u64 [s1 + 0xe0]\n 35872: a3 = a4 - a3\n 35875: a4 = s1 + 0x2098\n 35879: jump [t0]\n      : @1360 (gas: 8)\n 35881: a0 = sp + 0xffffffffffffffe0\n 35884: a0 = a0 & 0xffffffffffffffe0\n 35887: u64 [s1 + 0xe8] = a0\n 35891: sp = a0\n 35893: i32 a2 = a0 + 0\n 35895: a1 = 0x40\n 35898: a0 = u64 [s1 + 0x108]\n 35902: jump [t0]\n      : @1361 (gas: 9)\n 35904: a0 = u64 [a2 + 0x8]\n 35907: a1 = i32 [a2 + 0x10]\n 35910: a2 = u64 [a2]\n 35912: a0 = reverse a0\n 35914: a3 = a0 << 0x20\n 35917: a1 = reverse a1\n 35919: a1 = a1 >> 0x20\n 35922: a1 = a1 | a3\n 35925: jump [t0]\n      : @1362 (gas: 4)\n 35927: a0 = u64 [s1 + 0x118]\n 35931: a0 = i32 [a0]\n 35933: a1 = 0x23\n 35936: jump [t0]\n      : @1363 (gas: 4)\n 35938: a0 = 0x40\n 35941: a1 = u64 [s1 + 0x118]\n 35945: u32 [a1] = a0\n 35947: jump [t0]\n      : @1364 (gas: 10)\n 35949: sp = sp + 0xffffffffffffffc0\n 35952: u64 [sp + 0x38] = ra\n 35955: u64 [sp + 0x30] = s0\n 35958: u64 [sp + 0x28] = s1\n 35961: s0 = sp + 0x40\n 35964: sp = sp & 0xffffffffffffffe0\n 35967: s1 = a0\n 35969: i32 a0 = sp + 0\n 35971: a1 = 0x4\n 35974: jump [t0]\n      : @1365 (gas: 6)\n 35976: a0 = u64 [a3 + 0x18]\n 35979: a1 = u64 [a3 + 0x10]\n 35982: a2 = u64 [a3 + 0x8]\n 35985: a3 = u64 [a3]\n 35987: a0 = reverse a0\n 35989: jump [t0]\n      : @1366 (gas: 7)\n 35991: a0 = sp + 0xffffffffffffffe0\n 35994: a0 = a0 & 0xffffffffffffffe0\n 35997: u64 [s1 + 0x118] = a0\n 36001: sp = a0\n 36003: i32 a2 = a0 + 0\n 36005: a1 = 0x40\n 36008: jump [t0]\n      : @1367 (gas: 8)\n 36010: a0 = sp + 0xffffffffffffffe0\n 36013: a0 = a0 & 0xffffffffffffffe0\n 36016: u64 [s1 + 0x90] = a0\n 36020: sp = a0\n 36022: i32 a2 = a0 + 0\n 36024: a1 = 0x40\n 36027: a0 = u64 [s1 + 0xb8]\n 36031: jump [t0]\n      : @1368 (gas: 5)\n 36033: a0 = sp + 0xffffffffffffffe0\n 36036: a2 = a0 & 0xffffffffffffffe0\n 36039: u64 [s1 + 0x118] = a2\n 36043: sp = a2\n 36045: jump [t0]\n      : @1369 (gas: 5)\n 36047: a0 = sp + 0xffffffffffffffe0\n 36050: a2 = a0 & 0xffffffffffffffe0\n 36053: u64 [s1 + 0x110] = a2\n 36057: sp = a2\n 36059: jump [t0]\n      : @1370 (gas: 5)\n 36061: a0 = a2 ^ 0xff\n 36065: a0 = a0 | t1\n 36068: a1 = a3 | ra\n 36071: a0 = a0 | a1\n 36074: jump [t0]\n      : @1371 (gas: 4)\n 36076: a0 = u64 [s1 + 0x118]\n 36080: a1 = 0x40\n 36083: u32 [a0] = a1\n 36085: jump [t0]\n      : @1372 (gas: 4)\n 36087: a0 = 0x2098\n 36091: a3 = s1 + a0\n 36094: a4 = a3 + 0x300\n 36098: jump [t0]\n      : @1373 (gas: 8)\n 36100: a0 = u64 [a4 + 0xb8]\n 36104: a1 = u64 [a4 + 0xc0]\n 36108: a2 = u64 [a4 + 0xb0]\n 36112: a3 = u64 [a4 + 0xa8]\n 36116: a1 = a1 | a2\n 36119: a0 = a0 | a3\n 36122: a0 = a0 | a1\n 36125: jump [t0]\n      : @1374 (gas: 4)\n 36127: a2 = a0\n 36129: a0 = 0x4e487b7100000000\n 36139: a1 = 0x2000\n 36143: jump [t0]\n      : @1375 (gas: 10)\n 36145: u64 [s1 + 0xf0] = a1\n 36149: a4 = s1 + 0x100\n 36153: a1 = u64 [a4 + 0x10]\n 36156: a2 = u64 [a4 + 0x8]\n 36159: a2 = a2 | a1\n 36162: a1 = u64 [a4 + 0x18]\n 36165: a3 = u64 [a4]\n 36167: a1 = a1 | a3\n 36170: a1 = a1 | a2\n 36173: jump [t0]\n      : @1376 (gas: 9)\n 36175: a3 = u64 [s1 + 0xf8]\n 36179: a0 = u64 [a3 + 0x18]\n 36182: a1 = u64 [a3 + 0x10]\n 36185: a2 = u64 [a3 + 0x8]\n 36188: a3 = u64 [a3]\n 36190: a0 = reverse a0\n 36192: u64 [s1 + 0xf8] = a0\n 36196: a0 = reverse a1\n 36198: jump [t0]\n      : @1377 (gas: 9)\n 36200: a0 = a0 | a1\n 36203: a1 = u64 [s1 + 0xc8]\n 36207: a0 = a1 if a3 == 0\n 36210: a1 = u64 [s1 + 0xc0]\n 36214: a1 = a0 if a2 != 0\n 36217: u64 [s1 + 0xc0] = a1\n 36221: a0 = u64 [s1 + 0xd8]\n 36225: a1 = u64 [s1 + 0xd0]\n 36229: jump [t0]\n      : @1378 (gas: 8)\n 36231: a0 = u64 [a4 + 0x78]\n 36234: a1 = u64 [a4 + 0x80]\n 36238: a2 = u64 [a4 + 0x70]\n 36241: a3 = u64 [a4 + 0x68]\n 36244: a1 = a1 | a2\n 36247: a0 = a0 | a3\n 36250: a0 = a0 | a1\n 36253: jump [t0]\n      : @1379 (gas: 9)\n 36255: sp = sp + 0xffffffffffffffc0\n 36258: u64 [sp + 0x38] = ra\n 36261: u64 [sp + 0x30] = s0\n 36264: u64 [sp + 0x28] = s1\n 36267: s0 = sp + 0x40\n 36270: sp = sp & 0xffffffffffffffe0\n 36273: s1 = a0\n 36275: i32 a0 = sp + 0\n 36277: jump [t0]\n      : @1380 (gas: 2)\n 36279: a3 = a2 & 0x40\n 36282: jump @1384 if a3 != 0\n      : @1381 (gas: 1)\n 36285: jump @1383 if a2 == 0\n      : @1382 (gas: 6)\n 36288: i32 a3 = 0x40 - a2\n 36291: a3 = a1 << a3\n 36294: a1 = a1 >> a2\n 36297: a0 = a0 >> a2\n 36300: a0 = a0 | a3\n 36303: ret\n      : @1383 (gas: 1)\n 36305: ret\n      : @1384 (gas: 4)\n 36307: a0 = a2 + 0xffffffffffffffc0\n 36310: a0 = a1 >> a0\n 36313: a1 = 0\n 36315: ret\n      : @1385 (gas: 2)\n 36317: a3 = a2 & 0x40\n 36320: jump @1389 if a3 != 0\n      : @1386 (gas: 1)\n 36323: jump @1388 if a2 == 0\n      : @1387 (gas: 6)\n 36326: i32 a3 = 0x40 - a2\n 36329: a3 = a0 >> a3\n 36332: a0 = a0 << a2\n 36335: a1 = a1 << a2\n 36338: a1 = a1 | a3\n 36341: ret\n      : @1388 (gas: 1)\n 36343: ret\n      : @1389 (gas: 4)\n 36345: a1 = a2 + 0xffffffffffffffc0\n 36348: a1 = a0 << a1\n 36351: a0 = 0\n 36353: ret\n","bytecode":{"object":"50564d00003da8000000000000010700c1c001c0008003816c8c5429eea693f81e976c2a47cb5638031d6e7e460a43c54553b4e6a10ec9d36bf40443b2a766a42db9815a1e2efa877e5c0519ec4fe51c83c442ba392fca77e27a96c0a237ac310730ce86cab6918a9cee1f20395b3b80e1e34a4eb67d08a74e0dc354af37bd04b03f2522518a6d9314cf35a01b6f25119782e62a75888f78d1b417406592b5dbd6886d772784123ca0859bbddc544b79277c562e79691cb8290000e8890423c78affffe7890423c78a00001876fbdc3875975752f4e33b24c3dceff4c6a46dc4173eb68630b623f1b6b5ef1d0584397d33527c373f8a8f13d8dec2e4708e54ca59a13610a1f529f1946a422bba3c51695be6d8186647f5847091063f7d0def110bff283e79b8ad5546d505d5764c8d017f00001876fbdc38750000e8890423c78af2a8b439f25bd8ebdf119a7090238fa225717e85c68e190f0982ba0d5cabfde394247a18b5e26bbe1d817609543b3c0451c960f58acf6b97ba06c2c9ba61c0412000000004811b11000000000400000012000000200000002e0000003400000041000000530000005e0000006d000000700000007d0000008d0000009d000000a8000000ba000000c500000063616c6c63616c6c5f646174615f636f707963616c6c5f646174615f6c6f616463616c6c5f646174615f73697a6563616c6c65726465706f7369745f6576656e746765745f696d6d757461626c655f646174616765745f73746f72616765686173685f6b656363616b5f3235366e6f777265665f74696d655f6c65667472657475726e5f646174615f636f707972657475726e5f646174615f73697a657365616c5f72657475726e7365745f696d6d757461626c655f646174617365745f73746f7261676576616c75655f7472616e73666572726564051302c0d4840463616c6cc0dc84066465706c6f7906c080a582db02c0038e6a00b201b5034a04520424052c052b063006b106bc06d706280733079d07c607da0706081b085a087f0815091b095309d309d909fe09150a2e0a520a5b0a770a990aea0af40a410bee0bfb0b6b0c770c940ccd0ce00ce90c6a0d780dc90dde0dd30eec0e080f290fbd0fd60ff30f3d10b111be11c911e011fd111d12221242125f12b112bb12c5124113631374137a13b213bf13d5130a141f142914a314c8142315291546156a15a415c015c615d3150b16591654176e178b17ab1741184b1868188b18c218df18e518f218cf19dc19811a961aa01a021b341b3a1b751ba01bbb1bc41bf51bfe1b1e1c601c661c7f1c9f1ccf1ced1cfe1c081d341d631d811d921d9c1da61dbe1d191e4c1e521e731e8b1ea51ec71ecd1eea1e071f4f1f6f1f881f042022203320392071207e209820ce20e320ed20462178217e21a321dd22f722142336238323b023c523eb23082432244b2451246a249024c524f9242c2552258f25a4250b267326c0260a27182744275227742714281d283d2883288d28b828e728f02823293d294e2954296d299329cc29f4293b2a442a612ac62a5e2bb32b092c522c602c9c2ca22ca82cc82cfa2c5d2dad2db32dcc2de92d352e3f2e862f0b306130e13031318731c931d931df31fd310632243245325932633272329e32d5323c335d3377339533a333ce3320342e349c34b834e63403353d354b358035c335d735e135fe3521365b3661366a368336a736c536e736f4365537693773371d382a38c938cf38e938073955395f39be3ac43ae53a103b3d3b9a3ba03bc43bf03b2a3c3b3c453c673ced3cf33c143d403d5e3d6b3d713d953dab3dbd3ddb3dec3df63d443e7d3ebc3ec23ee63e123f303f413f4b3f8d3fc93fe73ff43ffa3f1e4034404640644075407f408d40b24052418541f8411c424242a642ba4226439c43c243ea4310448f44004526455b456e457745b245d8450d46204629464946d2461747d447e747f04710485e4889483c4951495b496f4a7c4ad64a374b6e4ba54b174c524c604c7b4c9f4cba4ce44cee4c064d0f4d2b4d534d744d7e4dad4ddb4df94d0a4e144e384e424e674e574f614f674f814f9e4fbe4fc44fe94fef4f095026502c5035503b50415047505a50a0500c51125118513351575183518d51ad51b651d651ee511b5225525952905296529f52af52c052ca52ee52f8521d5374537e539b53a453c453ca53d353e353f053f6530f542f5466546c5475548554d754f05420557f558955a655af55cf55ed55fa5500561f56535671567e5684568d56af56c4568157a957c757df570c58165838585a588c58b2581c5931593b5958597b598d599659a659ad59cd59e6590a5a4f5a645a6e5ae15af75a335b3d5b5d5b665b865ba45bb15bb75bd75b0b5c295c3a5c445c535c725ca65cde5ce85c015d195d665da05dd55d8b5e955e9b5eb55ed25ef25ef85e1d5f235f3d5f5a5f605f695f6f5f755f7b5f8e5fd45f2c6075608a609460226142617b61b261196245625d629862a262c4628163c763e163fc631b64a864c164dd642365006731674b675f6780678a67af673b686c6872687b6881688e689468b468e568eb68f468fa680b6915693e697969b069e469026a086a116a176a246a2a6a4a6a766a7c6a856a8b6a986a9e6abe6aef6af56afe6a046b156b1f6b296b966bc56beb6b3c6c036d2f6d356d3e6d4e6d5f6d696d9f6dda6de06de96df96d0a6e146e416ecc6e296faf6fdb6ff96f06700c7038704e7060707e70e7702671447155715f717c7101726272af72db723b73417363737e73847394739a73a373be73c473d173d773e073f5732075377550756e75ed7503761d766076d977f7773c7842786b789b78b578c278c878d27811792f7949795a7964799979c679e079ed79f379137a437a5d7a6a7a707a7a7aa67ae67a0d7b2a7b447ba47b037c147cea7cf77c157d6a7db37de77d017e297ec67ef27e407f4d7f9c7f1e805c8017813a81758120826f828982ad82a883b483d2831d845884b084dc84e5849511e87b10107b15087b163306680102390568010251051c3307a00103837783680a060139076801022003680102ac5710821010821508821695111832000039086801025108b9073307a0010383770a0e28ac079511f07b10087b1564896475330820649750100277057c78017c797c7a027c7b03978808d4980897aa1097bb18d4ba0ad4a8087c79057c7a047c7b067c7c07979908d4a90997bb1097cc18d4cb0bd4b909979920d489027c79097c7a087c7b0a7c7c0b979908d4a90997bb1097cc18d4cb0bd4b9097c7a0d7c7b0c7c7c0e7c780f97aa08d4ba0a97cc10978818d4c808d4a808978820d498037c78117c7a107c7b127c7c13978808d4a80897bb1097cc18d4cb0bd4b8087c7a157c7b147c7c167c791797aa08d4ba0a97cc10979918d4c909d4a909979920d4890a7c78197c79187c7b1a7c7c1b978808d4980897bb1097cc18d4cb0bd4b8087c791d7c7b1c7c7c1e7c771f979908d4b90997cc10977718d4c707d49707977720d487076f776fa86f396f2a7b5a187b59107b58087b57821008821595111032009511d87b10207b15187b161082897b19088289087b198285108286183308205010042f046f686f59821a6faa821b086fbb787b18787a10787908787898bc38787c1f98bc30787c1e98bc28787c1d98bc20787c1c98bc18787c1b98bc10787c1a98bb08787b1998ab38787b1798ab30787b1698ab28787b1598ab20787b1498ab18787b1398ab10787b1298aa08787a11989a38787a0f989a30787a0e989a28787a0d989a20787a0c989a18787a0b989a10787a0a98990878790998893878790798893078790698892878790598892078790498891878790398891078790298880878780182102082151882161095112832009511a07b10587b15507b16489515608411e06476828718828910828a0882886f776f996faa6f887b18187b1a107b19087b17491138491130491128491120481140208318831a20831b403309ff33070a07821738821830821928821a206f776f886f996faa7b6a187b69107b68087b679551a082105882155082164895116032009511a07b10587b15509515608411e08272827a08827b108277188283828908828c108288186f746fbb6faa6f276f826fcc6f996f387b17187b1a107b1b087b147b18387b19307b1c287b12208318831a203309ff330b2033070a0f9551a08210588215509511603200951160ff7b1098007b1590007b1688009515a0008411e082ab7b1b3882ab087b1b3082ab107b1b2882aa187b1a20829a7b1a18829a087b1a10829a107b1a088299187b1964865010062c0282186f888219086f99821a106faa821b186fbb7b1b587b1a507b19487b18408218206f888219286f99821a306faa821b386fbb7b1b787b1a707b19687b18608379836a8317403308020a05955160ff8210980082159000821688009511a0003200951120ff7b10d8007b15d0007b16c8009515e0008411e082bc7b1c4082bc087b1c4882bc107b1c5082bb187b1b585012086b86007b183850100a8f016f687b187882186f887b18708218086f887b18688218106f887b18608218186f887b1898008218206f887b1890008218286f887b1888008218306f887b1880008218406f887b18b8008218486f887b18b0008218506f887b18a8008218586f887b18a0008379811a388317603308030a05955120ff8210d8008215d0008216c8009511e00032009511e0fe7b1018017b1510017b160801951520018411e082c67b166082c6087b166882c6107b167082cc187b1c7882bc7b1c3882bc087b1c4082bc107b1c4882bb187b1b5050120c9185007b185850100eb5006f687b18980082186f887b1890008218086f887b1888008218106f887b1880008218186f887b18b8008218206f887b18b0008218286f887b18a8008218306f887b18a0008218386f887b18d8008218406f887b18d0008218486f887b18c8008218506f887b18c0008218606f887b18f8008218686f887b18f0008218706f887b18e8008218786f887b18e0008379811a58831780003308040a059551e0fe8210180182151001821608019511200132008b7910520931c8780883881f8488e05638000001253309700102390a700102ae8a093d087001020133088001028377c887073200009511f07b10087b158475010a03013d076c010251050750101009501012f001951100ff7b10f8007b15f0007b16e800951500018411e04921d8004921d0004921c8004921c0008317c0000a10018217d0008218d8008219c800821ac000d49808d4a707d487075207e10039066c010297672098772095771f8477e09578a000d878077b18a0007b17a80094777b17b0003307409518a0004921b800501014e2fa3307a000646850101625ff8377646833090a010154161fa000951780003308a00050101882f9821790008219980014080000000001000000d37808d49808987a2088aa01949a938a510a7982188000821a8800d4780bd49a0cd4cb0b510b727b18607b1a687b1770330780009518607b197850101a6bfa95174033084050101c26f9821758821850821948821640d49707d48609d47909989920d48707977720d49707510769003308800102838833070128b1003308800102838833070128a400330880010283883307012897004911104911084901140700000000c8f5bc1464187b1718330750101ef6f9390870010256181f0b20037001022001330880010283883307013309040a0d01646733085010201bfe8377330833090a01951720330880005010227ff8821738821930821a28821b203e07b801033e09b001033e0aa801033e0ba001032845f864673308501024dbfd8378330733093300260a0d280a33093300260a0d01951110fe7b10e8017b15e0017b16d8019515f001951190d78411e06416956998204929800149297801492968018000330740956800224929700150102839f933076c01027b67180139076c01025517040728da4e9567002083772002330833002a0a0201956998208197a4015247871cb2880a28811251476cd3238f1e015247346662990a28851e956a98285247b00de3d00a282b0f5147074e71e9d70b52475f53cc0e0a28a41a514786e72a22890451474d7d1a2ec8085247f50796370a284d155247b836cc480a286f185147aef7914a0a287f234929a005492998054929900549298805956700208377200633002c0a1033022e2855820050122e51820082b7980082b8a00082b9900082ba8800d49808d4a707d4870751070628183a82671801817756170307281c3a9567001033084050103006f7956aff0795aa990095ac000782cb800082c87882c97082c768d49b0bd48709d4b909989920d4b808978820d4980851080628ca393a08a00002492a6007492a58077ba848079568ff079588e107492a50077b67180133000a0128e2f7492900064929f8054929f0054929e80595670020837780063300320a103302342897810050123493810082b7f80082a8000682b9f00082bae800d49808d4a707d48707510706287c395012365f8200ac7806288139956700208377a0063308043300380a020195679820957c000682c82082c91882ca1082cb0850123a5b7f52070628623933078001037b67f00083777b67c00033003c0a048269f00033023e287e7b8269f00050123e777b49298002959b00027bb8787bb770956800137bba6833075010401cf79567981049276002492758024927500264793307209568e01249294802501042faf69517e08477e07b67000164713309700102390770010256173f0b200370010240017b69b8009517e08479e07b69e80064913307800102837783993308407b67c8003300440a08826ae80033024628a28100826ae8005012469a81006f8c6f996fa2826b00017bb2187bb9107bbc087bb7951be084b8e06481957b02d87b07c87c0ad8ca0cda770cc89c0cd89c07c827077b8c107b8a087b8b7b87189567c0127b68e80050104844f795679810827340028274380282723002827a280282671801d3730bd8730c8268f800d884077b67d800dab70c82671001d37200d87207826908017b6ae000d89a097b69d000da09076480d38408d4b808da870c510c06284a38c9040882691801c99309826ad800c9a909d8780ac9a909c9780882671001c97207826ad000c9a707826ae000826b0801c9ba0a956b982095bc00067bca287bc7307bc8387bc9409568c0268267e80050104a18f79567a0128268000150104c8af695699810959b000282b71082b8088292200282ba18826b1001c87b0b826c0801c88c0cd88c08c88b0bd37b09d87b07da98078268f800c8a80882691801c89202d8a809c82909c88707d88708c8980895699820959a00067bac487bab507ba7587ba8609568e0268267000150104e9bf695678012330840501050e2f3956b981082b7000295bc000182c8f80082c9f00082cae8005012524d7c51070628b7369569000182970895bc00017bc7c8008297107bc7d0008267f8007bc7d800956860128297187bc7e00064a77b9a18501054c6f48267c0003300560a048269f000330258286f788269f0005012586878d4780298aa206f99979820d4a8089899203a0a800002956798107b7ac0013a0a8800023a0b9000023a0c9800027b7ab801957a00017babb0004927a0017baca8007ba998007ba8900033082095694012956a20127b72880182671801330038012821f649298002492978024929700249296802956700208377000333005a0a1001956a982095ab000250125c15800051070628aa368267180181775617030728ae3695670020837720030a0995679820957900028298a0007b68d800829898007b68d000829890007b681801829788007b6710019567600333084050105e90f2956b000382b77882b87082b96882ba60501260037b510706286d357b6a98008263d00068379577408260d8006809da0709826410016847957740826218016828da270895878000d4030adaa709d8870c94ac8ecb8897f000857a01daca0b88b7019577ff9ab89accc9ac0a9a99ef007b68f8008e8c8e78da7c088eac7b69e80088990001859901dbac09dbb809d43408d4020bd4b808888801d49808644b948b51080628e53b8268e8008588ff008269f800d49808d47a09d4980852080628ca3b826be80095b9017b690801889801c8a8087b680001d49808888801826af800c8a8087b68f000d8a808c887077b67f8009ab8ff007b68c0009a8980008267100182681801501062e97e7b67b8007b68c8008267d0008268d8008269c000501064f67e7b67b0007b68a8008267c0009579808267100182681801501066da7e7b67a0007b6890008269c000889780007b6788008267100182681801501068b97e7b68e000826800018269f800d4890982680801826af000d4a808d49808826a880093a77b67e80052080628ea3a64a98267c8008268a800d4870764ac82689000da98078269d800649a64988269c000db970a7b6ac8008267b800826ab000d4a707826aa000daca07826bd00064badb970a7b6ac0008267e00093c77b67e0004926b0008051018267080195798064b750106aff7d7b67b8007b68a00082671001826818018269080150106ce67d7b6790007b68a800826808019a8980008267d0008268d80050106eef7d8269a800d49808956c000182c908889a80007b6aa800826ba000daab0882cb18db980b7bcb1882689000d487078268b800daa80782c810db97087bc8108267d0008268d8005010707f7d82641001826318014926d8004926d0008269a800939893977b67b800826ab00095a9ff7b69a8008ea99599ff7b69a0000198493f973a01d4a909974a018264c800984b3fd4ba0a7b6a18018260a0006437d39003d89002826ba800d8ab0cdb320c978801826bb80098ba3fd4a8087b681001987a3f97b701d47a0a974701826bc00098b83fd4870297b801826be00098b33fd4380397b801826be80098b43fd4480897bb018267d800d47b0b7b6be8008267d000d478087b68e000d437087b68c000d427077b67c800c9a007d8c707d8a008826c1001c9c00bc98b0bc97b0b99b03f8267b000d2700782681801c97804d87808c989039498c98a077b67b800d88a08c98c0895670001827a08827cd4ca09889901826bf000d89b02c99b0988ab01c9bc0c826bf800c92b0b95aaff7b7c7b6bf800d4bc027b7a08d49a0bd42b0a840b017b6bd8007b69f0004926d000520ae2fe28b2384929c0024929b8024929b0024929a80295670020837740033300720a1001956a982095ab00025012744b7b510706288632501276937aac7806288c3295670020837760033308043300780a020195679820957c000282c8e00082c9d80082cad00082cbc80050127a8c7752070628693233078001037b67000183777b67e80033007c0a0433027e28dc7350127ed9734926d804956900047b98d0007b97c8009568c0047b9ac00033075020800052ef4926b8044926b0044926a8043307209568a0044926a0045020820035ef9517e08477e07b67f00064713309700102390770010256173f0b200370010240017b69c0009517e08479e07b69e00064913307800102837783993308407b67c800330084000a08826ae00033028600283f77826ae0005022860038779567800450208800c1ef826398048264900482628804826a800482671801d3730bd8730c8268f800d884077b67d800dab70c82671001d37200d87207826908017b6ae000d89a097b69d000da09076480d38408d4b808da870c510c06289731c9040882691801c99309826ad800c9a909d8780ac9a909c9780882671001c9720750228a00d67895bc00027bcae8007bc7f0007bc8f8007bb90003956880238267f00050208c00a4ef8267e80033008e000a0433029000284274502290003f747b6958048269f8007b69500482b9107b69480482b9087b694004492678047b6870047b67680495676004956840047b6a600450209200016f95672004330840502094009bec956b000482b73882b83082b92882ba20502296000d7551070628762f82670801956900047b97826710017b97088267f8007b971095680004826718017b971864a77b6a1801502098008aed8267e80033009a000a048269000133029c002830718269000150229c002971d4780298aa206f99979820d4a8089899204926d8033a0af800023a0b0001023a0c0801023a071001027b6af803956a00037babf0007bace8007ba7e0007ba9d0007ba8c8003308209569e003956ac0037b62c003826718013300380128e5ee491a60491a58491a50491a48956700308377e0f833009e000a1001956a982882a75882a86082a95082aa48d49808d4a707d487075107062816305022a0009577ac7806281b3095670030837700f93308040a02019567982882788000827978827a70827b687b68707b6a60d48a077b69687b6b58d49b08d4870752070628f22f33078001037b67880083777b67783300a2000a043302a4002866725022a400637249296001959b00017bb8587bb7509568e0217bba4833075020a6004eec956898204928400149283801492828010264893307209568c021492930015020a8002aec9517e08477e07b67180164713309700102390770010233083fac780a200370010240017b69481407ffffffff000000007b6780005022aa0031773307800102837783993308407b67503300ac000a083302ae0028de725022ae00db728377a001c867075020b000b3ec956798208077080182688000ab870628632f9578017b6898008887017b679000d487078877017b67a00095678021826818015020b2007bec956a982080a7ec0082a8f80097772082a9f00082aa0001826ba000d4b808826b9800d4b707826b9000d4b909956b98287bbaa0007bb990007bb788007bb8980095682029826718015020b400aeec95670030837740f90a0901956798288274c000827ab8007b6ad8008273b0008270a800684768a8958940db470968376808958840db370895878000d44a0adaa709d8870c94ac8ecb8897f000857a01daca0b88b7019577ff9ab89accc9ac0a9a92ef007b6818018e8c8e78da7c08882c000185cc018ea9dba90cdbb80c7b64c000d44308826bd800d4b009d49808888801d4c808640494805108062881188528ff00826c1801d4c808d47a09d49808520806286a189529017b691001889801c8a8087b680001d49808888801c8c8087b68f000d8c808c887077b67f8009a28ff007b68e8009a89800064477b64d00064387b63c8005020b60069767b67e0007b6818018267d8008268c0008269e8005020b80075767b67b0007b68a8008267e8009579808267d0008268c8005020ba0058767b67407b68388269e800889780007b67b8008267d0008268c8005020bc003876826bb8008262f000826cf80082690001d49c0c826a1001d42a0ad4ca0a93b77b670801510a06289a15330c2894178267180181775617030728b52d490a491af8491af0491ae895670030837780f80a1001956a982895ab00ff82b7f80082a882b9f00082bae800d49808d4a707d48707520706288b2d33078001037b67000183777b67d8003300be000a04826900013302c00028a76c826900015022c000a06c49296004959b00047bb8587bb7509568e01c7bba4833075020c2002ce99567981849274004492738044927300464793307209568c01c492928045020c40009e99517e08477e07b67180164713309700102390770010233083fac78142003700102407b69d0003302c600281a747b69d0005022c60013743307800102837783993308407b67e0003300c8000a083302ca0028bf6f5022ca00bc6f8377a0fcc867075020cc0094e995679818957900048298207b68f0008298187b6810018298087b68e8008297107b6708019517e08477e07b67f800647195679828491720491718491710491708956700308377a0f80a100195679828827910827808827220827b18826c0801c89c0c8267e800c87803d88308c88c0cd39c0ad89c09daa80982681001c8b8088260f000c80202d8b80ac82a0ac88909d88908c88a04826a0801d3ca08d8ac0bd87307db8b07826a1001d8a902d3400bd80408dab208d39a0ad4ba0adba8078268f8007b837b8c087b89107b841851070628352c826718015020ce0038e99567801c3308405020d0007ee695679818827800047b681001957900038298f8007b6808018298f0007b68f8008297e8007b67180195679828491740491738491730491728956700308377c0f80a1001956a000182a7108268f800d4870782a818648c82a908d49808d47808988820d49707977720d48707510706280429956a982882a72882a83082a93882aa40956b98187bbae00395ba00037ba9d8007ba8d0009568601c7ba7c80064c75020d20013e78267d8003300d4000a04826900013302d60028b96a826900015022d600b26ad4780298aa206f99979820d4a8089899203a0a200002956798187b7ac0033a0a2800023a0b3000023a0c3800027b7ab803957a00037babb0004927a0037baca8007ba998007ba890003308209569401c956a201c7b728803826718015020d8006ee833078268e00033090a0d28543c4929e0054929d8054929d0054929c80595670020837760063300da000a103302dc002835705022dc00327082b7d80082b8e00082b9d00082bac800d49808d4a707d4870751070628122b8267180181775617630728162b9567c0113300de0033020a0528fb7095689810828728017b671801828730017b671001808738017b67f8009567a0113300e00033020e0528027295679810827708017b670001956780113300e2003302140528e7713302e40095699810018297e800956a00017ba7084929e0008267f8007b97d80082a7107b97d0009568601182a7187b97c80033075020e6009fe53302e80095689810014928c0004928b8004928a800036489330720956840114929b0005020ea0076e53308700102390770010256173f0b200370010240019517e08479e07b69f80064913307800102837783997b6818013308407b6710013300ec000a083302ee0028f2705022ee00ef707b67f0006f977b67e8006fa77b67e0003302f00095699810014929a000492998004929900095682011826700017b97880033075020f200f5e48267e000956898107b8780008267e8007b87788267f0007b8770648a330720956800118269f8007ba9685020f400c5e482681801818756173f08480840019517e08477e07b6700015022f60058683300f8000a08826a00013302fa0028236c826a00015022fa001c6c7b670001647182670801977720987720956998104919604919584919509568e0107b974833075020fc0060e48267e000956898107b87408267e8007b87388267f0007b8730648a3307209568c0108269f8007ba9285020fe0031e482681801818755174008480840019517e08477e07b67180150220001c467330002010a08826a18013302040128ba6b826a180150220401b36b9567a01050200601e0e4956798108277087b67180195678010330840502008019ce295679810827a957b00ff82b8f80082b9f00082b7e800d49a0ad48709d4a909989920d4a808978820d498085108062862257c6a18019569ff07959999004929e0074929d8077b9ac807956860104929d0077b67180150200a017be3330820826718013300dc0228b8e749292003492918034929100349290803956700208377a00333000c010a1033020e0128ae6e50220e01ab6e82b71882b82082b91082ba08d49808d4a707d4870751070628202850221001ea6dac7806282528956700208377c003330804330012010a020195679820957c000382c84082c93882ca3082cb2850221401e56a52070628042833078001037b67000183777b67e800330016010a0433021801283267502218012f6749263806956900067b98307b9728956820067b9a20330750201a01aae2492618064926100649260806330720956800064926000650201c018de29517e08477e07b67f00064713309700102390770010256173f0b200370010240017b69c0009517e08479e07b69e00064913307800102837783993308407b67c80033001e010a0801826ae00082a782a80882a91082aa186f776f886f996faa95ab02502220019d678268f0007b8b7b8c087b89107b87189567e00550202201fee28263f8058264f0058262e805826ae00582671801d3730bd8730c8268f800d884077b67d800dab70c82671001d37200d87207826908017b6ae000d89a097b69d000da09076480d38408d4b808da870c510c06281727c9040882691801c99309826ad800c9a909d8780ac9a909c9780882671001c9720750222401136c95bc00037bca487bc7507bc8587bc9609568e0238267f00050202601e5e28267e800330028010a0433022a0128836750222a0180677b69b8058269f8007b69b00582b9107b69a80582b9087b69a0054926d8057b68d0057b67c8059567c0059568a0057b6ac00550202c0142629567800533084050202e01dcdf956b000582b7980082b8900082b9880082ba8000502230014a6851070628b322826708017b676005826710017b6768058267f8007b67700595686005826718017b67780564a77b6a180150203201c6e08267e800330034010a048269000133023601286c6482690001502236016564d4780298aa206f99979820d4a808989920492638053a0ad800023a0be000023a0ce800023a07f000027b6a5805956a00057bab507bac487ba7407ba9307ba82833082095694005956a20057b62200582671801502038012ae233078268c80033090a0d281036492900044929f8034929f0034929e803956700208377800433003a010a1033023c0128826b50223c017f6b82b7f80082a8000482b9f00082bae800d49808d4a707d48707510706289c2550223e01ba6aac780628a125956700208377a0043308040a0201956a982095ab000482b72082b81882b910d48707889801947852080628852582a708047b67a000956700208377c0040a09019567982082744004827a38047b6ad0008272300482702804684768a8958940db470968276808958840db270895878000d44a0adaa709d8870c94ac8ecb8897f000857a01daca0b88b7019577ff9ab89accc9ac0a9a93ef007b6818018e8c8e78da7c08883c000185cc018ea9dba90cdbb80c7b64c0007b62d800d442088264d000d44009d49808888801d4c808640b948b510806281a188538ff00826c1801d4c808d47a09d4980852080628031864029539017b691001889801c8a8087b680001d49808888801c8c8087b68f000d8c808c887077b67f8009a38ff007b68e8009a89800064077b62c8008268d80050204001e06a7b67e0007b6818018267d0008268c0008269e80050204201ec6a7b67b0007b68a8008267e8009579808267c8008268d80050204401cf6a7b6798007b6890008269e800889780007b67b8008267c8008268d80050204601ad6a826bb8008262f000826cf80082690001d49c0c826a1001d42a0ad4ca0a93b77b670801510a06282915330b282b17492900024929f8014929f0014929e8019567002083778002330048010a1001956a982095ab000182b7f80082a8000282b9f00082bae800d49808d4a707d4870751070628c22350224a01ad68ac780628c7239567200333004c0133020a0528ab68956a000382a72082a82880693003492618037ba9107ba808956800037ba7330750204e01a9dd4926f8024926f0024926e8023307209568e0024926e002502050018cdd9517e08477e07b67f8006471390870010256183f133308403d0870010233025201289868502252019568330780010283778399330840330054010a083302560128cd6350225601ca638268f8007b87187b89107b8b087b8c9567c002502058011cde8267d8027b67f8008267d0027b67f0008267c8027b67e8008267c0027b67e00050225a017067959a00027ba810d478087ba70888870182680001c887077ba718d8870782681801c887077ba7209567a0029568a02250205c01c1dd8267b8027b67d8008267b0027b67d0008267a8027b67c8008267a0027b67c00082680801958702d88708826a100150225e012a6682680001c88a0ad88a08826b1801c8b808956b982095bc00027bc8407bca387bc9307bc728956780029568c022502060015add826798027b67b800826790027b67b000956c000182c808958703d8870882ca1050226201d165826888027bc80882c8c88a0ad88a0882cb18c8b808826b80027bcb956b982095bc00027bc8607bca587bc9507bc748956760029568e02250206401f7dc826760027b67a8009567400233084050206601b6da95670002827b58827c50827a48827940d4ba07d4c908d47808988820d4c707977720d4870751070628821d8267e0007b6720028267e8007b6728028267f0007b673002956820028267f8007b67380264977b6918017b6a10017b6bf8007b6cf0005020680189db826818018267f800826af000d47a0a140b00000000010000001407e0ffffff00000000d8780782691001949794a752070628121d8387208268c000956c00027bc88268c8007bc8088268d0007bc810956800028269d8007bc9187b6af8007b6bf00050206a0121db826bf800826a1001826818018267f0009577c0d8780794a794b752070628be1c838740826800017b68e001826808017b68e8018268b0007b68f0019568e0018269b8007b69f80150206c01d4da826918011407a0ffffff00000000d879078268100194878268f8009487520706286e1c8267a8009777209878208397604926d8014926d0017b68c0019568c0014926c80150206e018ada330880008267180150207001cade83783309800033070a0d286d23492980064929780649297006492968069567002083770007330072010a1001956a982095ab0006502274013b6651070628362082671801817756174307283a209567c0143300760133020a0528fc6495679810957900048298387b68e8008298307b68f8008297287b67f00095670020837720073308240a020195679820957c000682cba00082ca980082c9900082c88800956c00017bc9107bcbd4b9077bc818d4a808d478089888207bca08d4a707977720d4870751070628cf1f8267e80097772098772095699810492920048268f000959a00047ba8088268f8007ba8109568a0147ba71833075020780180d933027a019568981001492800044928f8034928e803016489330720956880144929f00350207c0157d93308700102390770010256173f0b200370010240019517e08479e07b69e80064913307800102837783997b68f8003308407b67f00033007e010a08826ae80033028001280864826ae8005022800101647b67e0006f877b67d8006f977b67d0006fa77b67c8009517e08477e07b67e8006471330282019569981001956a000182a7959b00037bb7e00082a7087bb7d80082a7107bb7d0009568601482a7187bb7c800330750208401add83302860195689810018267c800958900037b97c0008267d0007b97b8008267d8007b97b000648a330720956840148269e0007ba9a8035020880171d88268f800818756173f0e48084033028a0128636350228a0160638267f00033008c010a0833028e0128ca5e50228e01c75e8268e8007b87187b89107b8b087b8c956720145020900119d99568981095890003829798007b67f000829790007b67e800829788007b67f800502292016d62959a00067ba8b000d478087ba7a80088870182680001c887077ba7b800d8870782681801c887077ba7c000956700149568402750209401bad8956c981082c780037b67e00082c778037b67d80082680801958702d88708826a1001502296012f6182c870037b68080182680001c88a0ad88a08826b1801c8b80882cb68037b6b0001956b982095bc00067bc8e0007bcad8007bc9d0007bc7c8009567e01395686027502098014bd833029a019568981001828750037b67c800828748037b67d0009567c01333084050209c01f9d595699810018292400395980003828c38828b30828728d42b0ad4c708d4a808988820d4ca0a97aa20d4a80851080628bf188268f800978820988a204929200349291803492910039568a0137b9a08037b6718017b6b10017b62b8007b6cc00050209e01ced6826c18018267c000826ab800d47a0a140900000000010000001407e0ffffff00000000d87c0782681001948794a75207062857183302ff1408ffffffff000000007b69b8008269f8009899208267e8007b6ac000977a20d4a909987a208267f000977b20d4ba0a987b20d22a0ad22909d2b80883c720956b9810492b000395bc00027bc8f8007bc9e800956880137bcaf0005020a00136d6826818018267b8009577c0d878078269100194978269c000949752070628d317838740956a98108268000195ab00027bb8c800826808017bb8d0008268d8007bb8d800956860138269e0007bb9e0005020a201e1d5826ac0008269100182681801140b00000000010000001407a0ffffff00000000d87807949794a7520706287117838760956a9810492ac002492ab8028268d0007ba8a80295684013492ab0027b6b08015020a4018bd5956a000182a91882a708957780d8790782a81094878268c00094875207062827177c67c8008e7883978000956a9810492aa002492a98027ba8880295682013492a90025020a60142d53308a000826718015020a80182d983783309a00033070a0d28251e5147b327d0610a28151c4929c0054929b8054929b0054929a80595670020837740063300aa010a103302ac0128cd5e5022ac01ca5e5022ae016260510706283b1c82671801817756170307283f1c956740103308405020b00192d39567ff0795779900957900078298c0007b6818018298b8007b6810018298b0007b6800018297a8007b6708015020b2010cd3956b000182b71882b8d4870782b808648a82b910d49808d47808988820d49707977720d48707510706282b163a09a001033a08a801033807b00103956bff0795bb9900492ba00795bc00077bc798007bc89000956820107bc9880064a75020b40137d4330820826708013300dc022874d8826718018269a800d49707826938dab9078263c000643a8262e800db270a7b6a18018267e0008269b000d49707826940dab907826cd80064cadb270a5022b601345d5020b8010a607b67b0007b68408267d0008268c800826910015020ba01f15f7b67387b68a800826810019a8980008267d8008268c0005020bc01fa5f8269a800d49808826a100188ab80007b6ba800826940dab9088269c800dba8097b69c800826838d487078268b000dab8078268d000dba70864a97b68d0008267d8008268c0005020be01885f330c33005022c0013a5d8263c8008264d000017b6cd80098493f973a01d49a0c974a01826b180198bb3fd4ba0a7b6ac8008269a8007b6cd0006434d3c903d8c902826bb000d8ab0cdb320c978801987a3fd4a8087b68c000984a3f977701d47a0a82671801977701826be00098b83fd4870297b801826be80098b33fd4380397b801826b080198b43fd4480897bb018267d800d47b0b7b6b0801d480087b68e800d430087b68e000d420077b671801c9a907d8c707d8a9088262c000c9290bc98b0bc97b0b99bc3f8267b800d2c7078268c800c97804d878088267d000c987039478c98a07d88a08c98208826a100182600001d40a09889901826bf000d89b02c99b0988ab01c9b000826bf800c92b0b95aaff7b6000017b6bf800d4b0027b6a1001d49a0bd42b0a84cc017b69f0003300520ae2fe82670801977701d47c00017b60f000956760213308405020c201d4d0956298208223e0006427827cd800827ad000827bc8008e378ec8db37088ea788b960ff8599017b6a1801dba709d43c077b67f800db780951090628fe1795b4a000d8b40882691801c88907d8970ada880ac8ca0ad8ca087b6b1001c8830b7b24a80064297b97b0007b9ab800330740956840217b9bc0007b6c00017b6308015020c40189d1956c000182c91082cad4a90782c81882cb08d4b808d48707987720d4a808978820d48707510706281c13956a9820492aa000826798007ba78800826790007ba79000956820218267a0007ba7980064975020c60133d18267780a0401826b1001140900000000010000001407e0ffffff00000000d87b078268180194878268f800948752070628bd127b6908018269880082970881981082996f77977a206f88988820d48a0a9877206f98978920d4790998882083b720956b9820492b80007bb8787bb970956800217bba687b6700015020c801b3d0956a000182a81082a7089577c0d8780782a91894978269f8009497520706284f12838940826758956a98207ba7488267607ba7508267687ba7589568e0208267707ba7607b69080164975020ca0163d082681001140a00000000010000001407a0ffffff00000000d878078269180194978269f800949752070628f311838760956998204919404919384919309568c0207b6ae800826af0007b9a287b67f0005020cc010dd0826810018267e800957780d878078269180194978269f800949752070628aa1183878000956998204919204919184919109568a0204919087b67c8005020ce01cbcf8267783300d0010a043302d20128b0555022d201ad554909959b00ff7bb8f8007bb7f000956880207bbae80033075020d40197cf3302d60195699818014929e0074929d8074929c80701330720956860204929d0075020d80170cf826848818756173f0848084001140700000000ffffffff7b67f8005022da01585a8267503300dc010a08826a18013302de01289d56826a18015022de0196567b67180164713302e00195699818014929c0078267a000959a00077ba7b800826790007ba7b00095684020826798007ba7a80033075020e201f6ce8267d00095689818958900077b97a0008267d8007b9798008267e0007b979000648a330720956820208269e8007ba988075020e401bfce826848818756173f08480840019517e08477e07b67e800647183793308408267500a08826ae80082a71882a81082a90882aa6f7b7b6bd8006f887b68e0006f997b69d0006fa77b67e800826a18017ba7187ba9107ba8087bab95670020826810015020e6011ecd956798188277680782688000d287077b6710019567e01f826818015020e80129cf956a981895ab000782b75082b85882b96082ba485022ea0120587bb9e0007bb8d8007bb7d0007bbac80095686029826718015020ec0172cf9567c01f826800015020ee01b7cc95679818957900078298387b6810018298307b6800018298287b68c0009567a01f826818015020f001b8ce956898188287200780880807826cc00098c920826b000197ba20d4a90998ba20826b100197bb20d4ba0a97cb20d4b808956b98287bbaf8007bb9f0007bb700017bb8e80095688029826718015020f201e7ce9567801f826808015020f4012ccc956798188272e8068273f0068274f806827a00078267d800957701887c018268e000c88c0cd4c70b88bb018268d000c88b0bd88b088269e800c89808956998287b982001959800017b8b187b8c107b87087b8a407b9438017b9330017b9228019567a0299568c0295020f6016bce9517e0847ce064c18268d800958702d88708826ae0005022f8016b568268d000c88a0ad88a08826be800c8b8087b6c18017bc8187bca107bc9087bc79567601f8268f0005020fa0174cb956798188277c8068477ff7b6710019567401f826818015020fc0183cd95699818959a000682a7c00082a8b80082a9b000956a9828826b100195ac00017bcb487bc7607bc8587bc9509568e029826718015020fe01cacd9567201f8268c800502000020fcb956a981895ab000682b7a00082b8900082b9980082ba8800d48707d4a909d497078e777b6710019567001f826818015020020206cd956a981895ab000682b77082b86882b9800082ba78847700ff826b1001d4b707956b982895bc00017bc980007bca787bc8687bc7709568002a826718015020040244cd826778330006020a04826988003302080228114f82698800502208020a4f49296006959b00067bb8587bb7509568e01e7bba48330750200a0296cb9567981849274006492738064927300664793307209568c01e4929280650200c0273cb8268489517e08477e07b6718016471818755174008480840019517e08477e07b6710016471837933084082675033000e020a083302100228a154502210029e5495ab0350221202a250826818017b8b7b8c087b89107b87189567a01e5020140203cc956798188277080695770182688000d287077b6710019567801e8268180150201602dfcb956a981895ab000582b7f00082b8f80082a9000682bae80050221802d25495bc00017bc9a0007bc898007bc790007bca88009568202a8267180150201a0220cc9567601e33084050201c0266c9956a981895ac000582c7e00082c8d80082c9d00082cbc800d49707d48b09d47909989920d48707977720d4970752072d0c82675895a900057b97a8008267607b97b0008267687b97b8009568401e8267707b97c00064b77b6b180150201e023fca826778330020020a04826988003302220228e64d8269880050222202df4dd4780298aa206f99979820d4a8089899203a0a0000023a0b0800023a0c100002956798187b7aa005956798187b7b9805956a9818492a6005956798187b7c90053a0a180002956b98188267a0007bb75805956b9818826790007bb75005956b9818826798007bb74805956798187b7a8805956a98187ba97805956998187b987005956898187b8268053308209569201e956a001e956be01d95679818492780058267180150202402ffcb9567c01d3308405020260230c8956a981895ac000582c74082c83882c93082cb28d49707d48b09d47909989920d48707977720d497075207fb0a492a20058267980095a900057b9708826790007b97109568a01d8267a0007b971864b77b6b180133000a01280cc9826718018269a800d4970782699000dab9078263c000643a8262e800db270a7b6a18018267e0008269b000d4970782699800dab907826cd00064cadb270a50222802185250202a02ee547b67b0007b6898008267c8008268d8008269100150202c02d4547b6790007b68a800826810019a8980008267d0008268c00050202e02dc548269a800d49808826a100188ab80007b6ba80082699800dab9088269d800dba8097b69d80082689000d487078268b000dab8078268c800dba70864a97b68c8008267d0008268c000502030026854330b330c502232021a528263d8008264c800017b6bd80098493f973a01d49a02974a01826b180198bb3fd4ba0a7b6ac8008269a80064847b62d000d329086430d82903826bb000d8ab02db8302974801987a3fd4a8087b68c000980a3f977701d47a0a82671801977701826be00098b83fd4870097b801826be80098b33fd4380397b801826b080198b43fd4480897bb018267d800d47b0b7b6b0801d4c8087b68e800d43c087b68e000d40c077b671801c9a907d82707d8a9088262c000c9290bc98b0bc97b0b99bc3f8267b800d2c7078268c800c97804d878088267d000c987039478c98a07d88a08c98208826a100182600001d40a09889901826bf000d89b02c99b0988ab01c9b000826bf800c92b0b95aaff7b6000017b6bf800d4b0027b6a1001d49a0bd42b0a84cb017b69f000330c520ae0fe82670801977701d47b0b0184b7ff8268a000ab788e0d33078001037b67d00083777b67c800330034020a043302360228534a50223602504a49292004959b00047bb8187bb7109568ff079588a1047bba08330750203802afc69567ff0795779900492700044927f8034927f00364793307209568ff07958881044929e80350203a0284c69517e08477e07b67a80064713308700102390770010256173f1120037001024033023c02288d5150223c028a513307800102837783997b6808013308407b6710010a08826a180182a71882a81082a90882aa6f7c6f8b6f986fa98267a8007b6900017b79187b6818017b78107b6bf8007b7b087b6cf0007b7c8267c80033003e020a04330240022877495022400274494929e003959b00037bb8d8007bb7d0009568ff07958861047bbac800330750204202d0c59568ff07958899004928c0034928b8034928a8030264893307209568ff07958841044929b00350204402a4c582680801818756173f0848084001140800000000ffffffff7b68b0001407ffffffff000000007b67c0009517e08477e07b67e800502246021b49330048020a08826ae80033024a02287c49826ae80050224a02754995bc00047bca607bc9587bc8507bc7489567ff07957721049568e02450204c021fc64926900049269800330b9567ff0795779900807788037b67b8008268f0009588018887018269f800c897077b6888007b678000d4870788770182681801c887077b6778d8870782680001c887077b6770330a0101330893b88267b800d8a7073309dab7093307db78095209d9054926f8007b6a18018267c80033004e020a043302500228244850225002214849298003959b00037bb8787bb7709568ff07958801047bba6833075020520280c49567ff0795779900492760034927580349275003647a3307209568ff079588e103492a4803015020540254c482680801818756173f08480840019517e08477e07b67000150225602e747330058020a0833025a02285d4950225a025a49959a00037ba7407ba7387ba7309568ff079588c103826718017ba728330750205c02ffc38267d8009568ff07958899009589000350225e02b14c9588a1038269f0007ba9080350206002d7c382680801818756173f08480840019517e08477e07b67f000502262026a47330064020a08826af0003302660228de4a826af00050226602d74a826b00017bba187bb9107bb8087bb7957b02d87b07c8780cd88c08da7708c89808d89807c8a70795699820959a00047bab687bac707ba8787ba780009567ff0795778103956800255020680242c49567ff07957799008277f0028477ff005107178268c00001330b82671801957701d2870a2853fe9567ff07957761038268000150206a0209c49569ff0795999900959a000282a7d00082a8d80082a9c8008477ff8488ff826bb000d2b909d49808d487075107af8267c80033006c020a0433026e0228554650226e0252464929c002959b00027bb8b8007bb7b0009568ff07958841037bbaa800330750207002aec29567ff07957799004927a0024927980249279002647a3307209568ff0795882103492a8802035020720282c282680801818756173f08480840019517e08477e07b670001502274021546330076020a08826a000133027802284a4d826a000150227802434d7b6700016f877b67f0006f977b67e8006fa77b67e0009569ff07959999004929800249297802492970029568ff07958801038267a0007b976802330750207a0207c28267e0009568ff0795889900958900027b97608267e8007b97588267f0007b9750648a3307209568ff079588e102826900017ba9480250207c02cbc182680801818756173f08480840019517e08477e07b67000150227e025e45330080020a083302820228d44650228202d146959a00027ba7407ba7387ba7309568ff079588c102826718017ba72833075020840276c18267d8009568ff07958899009589000250228602284a9588a1028269f0007ba90802502088024ec182680801818756173f08480840019517e08477e07b67f80050228a02e14433008c020a08826af80033028e0228d748826af80050228e02d0489567ff079577810250209002f9c19567ff07957799008277e8018477015207bbfd9567ff07957761028268a80050209202d4c1956aff0795aa990095ab000182b7e00082b8d80082b9d00082a2c8013a0ba800028e7c8e8adb7c0ad82b0b8e9cda9b0cd4780bdbba0c520c18826790009577018268c000d287077b679000285ffd3a0ab00002c82a0ad82a0bc8b90c95ccffd39c02d89c09da2b09958bffc8b909d8b90b888801c98707c8b70795689820958b00047bba88007bbc90007bb998007bb7a000956820258267a80050209402b5c19517e08478e07b68f80064818267707b87188267787b8710826780007b8708826788007b879567ff07957741025020960201c19567ff07957799008277a8013a08a000029569ff07959999008299c001956aff0795aa990082aab001956bff0795bb990082bbb801c87808d87807c87a0cd8ac0ada770ac8ba0ad8ba07c8970795699820959b00047bb8a8007bbcb0007bbab8007bb7c000956840258267f800502098020fc1826798009577018268c000d287077b6798009567ff07957721028268000150209a026ac09567ff0795779900827788018477fe007b67f8009567ff07957701028268000150209c0244c09567ff0795779900827768019568ff0795889900828870019569ff079599990082997801956aff0795aa990082aa8001847700ff826bf800d4b707957701956b982095bc00047bcae0007bc9d8007bc8d0007bc7c800956860258267000150209e0261c028b1fb9567ff079577e1013308405020a002a0bd9569ff07959999008292600195970001827c58827b50827a48d42b07d4ca08d47808988820d4c707977720d48707520766826798008268c000d287074929400149293801492930019568ff079588c1017b97280164a77b6a18017b6b08017b62f8007b6c00015020a2026ebe956b000182b91882b78268f800d487071408e0ffffff00000000d8890882ba0894a894785208be05003308800102838833070133090a0d2803143308800102838833070133090a0d28f2133308800102838833070133090a0d28e1133308800102838833070133090a0d28d0133302a40295699810014929580149295001140700000000c611522c7b9760019568e0114929480133075020a602d2bd390870010256181f12200370010220330880010228a4043308800102289c043302a80295699810014929780149297001140700000000b878d6f47b978001956800124929680133075020aa0284bd8267b800817756171f13038268b8004808202807033308800102838833070133090a0d282d133308800102838833070133090a0d281c133308800102838833070133090a0d280b133308800102838833070133090a0d28fa12492690034926880349268003140700000000c611522c956880037b67980333075020ac0205bd390870010256181f12200370010220330880010228d703330880010228cf034926b0034926a8034926a003140700000000b878d6f49568a0037b67b80333073300c60228bcbc3308800102838833070133090a0d287d123308800102838833070133090a0d286c123302ae02956998180149297804492970041407000000003bc167cc7b9780049568001d4929680433075020b0026ebc390870010256181f1220037001022033088001022840033308800102283803956798184927b8044927b0044927a8045022b202ca47838840fdc868087b97c00433075020b40226bc3302b60295689818014928a00449289804492888041164893307049568201d492990043300ce0228f9bb3308800102838833070133090a0d28ba113302b80295699818014929380349293003140700000000c611522c7b9740039568c01b4929280333075020ba02bcbb390870010256181f122003700102203308800102288e023308800102288602956798184927780349277003492768035022bc021847838800fcc868087b97800333075020be0274bb3302c00295689818014928600349285803492848031164893307049568e01b492950035020c2024bbb8267d000817756173f0c8268d000480840013307013309248268e0000a0d013308800102838833070133090a0d28ea103308800102838833070133090a0d28d9103308800102838833070133090a0d28c8103308800102838833070133090a0d28b7104926f0044926e8044926e004140700000000c611522c9568e0047b67f80433075020c402c2ba390870010256181f1220037001022033088001022894013308800102288c01492610054926080549260005140700000000b878d6f4956800057b67180533075020c6027dba8267c000817756171f0c8268c000480820013307013309048268c8000a0d013308800102838833070133090a0d281c103308800102838833070133090a0d280b103308800102838833070133090a0d28fa0f3308800102838833070133090a0d28e90f3308800102838833070133090a0d28d80f3308800102838833070133090a0d28c70f3308800102838833070133090a0d28b60f3308800102838833070133090a0d28a50f956798184927f8044927f0044927e8045022c8025145838880fdc868087b97000533075020ca02adb93302cc0295689818014928e0044928d8044928c8044164893307049568601d4929d0045020ce0284b9826748817756173f0b826848480840013307013309248268500a0d019569ff07959999004929380449293004140700000000635bb2d57b9740049568ff079588c1044929280433075020d00236b9390870010256181f112003700102203308800102280833088001020183883307013309043300d2020a0d0152476eeb149c5b0195679820492700074927f8064927f0064927e80695670020837780070a1001956a982095ab000682b7f80082a8000782b9f00082bae800d49808d4a707d487075107be013308800102838833070133090a0d287d0e3308800102838833070133090a0d286c0e3308800102838833070133090a0d285b0e826790008268c000d27808839720956aff0795aa9900492a2001492a18017ba808019568ff079588a101492a10015020d40258b88267c8003300d6020a048269d0003302d80228fe3b8269d0005022d802f73bd4780298aa206f99979820d4a8039899203a0ab800023a0bc000023a0cc800028267a0009568ff07958899007b87a8007b8a00017b8bf8007b8cf0003a0ad000024928c0004928b8004928b0007b8ae8007b89d8007b83d0007b82c80064873308409569ff0795998101956aff0795aa6101956bff0795bb41014927e000826718013300dc032835ba5247275914a0c7009567982049272007492718074927100749270807956700208377a0070a1001956a982095ab000782b71882b82082b91082ba08d49808d4a707d487075107e4003308800102838833070133090a0d28260d4926d800018267e800977701826bd800d47b0b01492658034926500349264803956840037b6b4003826798005020da0225b7330820826798005020dc0266bb837833092033070a0d280a33092033070a0d0182671801817756176393003308800102838833070133090a0d28b80c52473a6750b67c01956798204927a00749279807492790074927880795670030837720f83300de020a1001956a982095ab000782b7980082b8a00082b9900082ba8800d49808d4a707d4870751077e013308800102838833070133090a0d28570c8267180181775617437e013308800102838833070133090a0d283b0c956780153300e00233020a0528394195689810958900048297e8007b6718018297f0007b6710018297f8007b670801828700057b670001956760153300e20233020e0528344295689810958900048297c8007b67f8008297d0007b67f0008297d8007b67e8008297e0007b67e000956740153300e4023302140528fd41956b981095bc000482c7a80082c8b00082c9b80082cac0007bca607bc9587bc8507bc7488267e0007bc780008267e8007bc7788267f0007bc7708267f8007bc768956b000182b77bc7a00082b7087bc7980082b7107bc7900095672015956800159569e01482ba187bca88005020e602e42733088001028388330733090a0d283c0b52474a45080eb404956798204927c0014927b8014927b0014927a80195670020837740023300e8020a1001956a982095ab00015022ea02aa405107cd043308800102838833070133090a0d28ee0a5022ec02e23fac78cd043308800102838833070133090a0d28d30a956720193300ee0233021e0528d13f95679818827788007b671001956700193300f00233020e0528e840956798188277687b677033078001037b67880083777b6780003300f2020a04826988003302f402280438826988005022f402fd374919607b98587b97509568e0187b9a4833075020f6028eb43302f80295689818014918404918384918280164893307209568c0184919305020fa0269b433077001027b679800390770010233083fac7811826898004808403302fc0228773f5022fc02743f3307800102837783993308407b6790003300fe020a08826a18013302000328cd3a826a180150220003c63a7b671801647182671001977720987920956798184917204917184917109568a0187b69787b7908330750200203e7b38267f000956898187b878267f8007b87f8826700017b87f0648a33072095688018826908017ba9e850200403b9b382679800817756173f128267980048074033020603288038502206037d38330008030a08826a100133020a0328c03a826a100150220a03b93a826b18017bba187bb9107bb8087bb78267800033000c030a048269880033020e03280b3e8269880050220e03043e7b6810019877206f987b680801978820d487077b6700019567601882681801502010031fb495699810018297d0078098cc078299d807977a20d4a808979a20987720d4a707956b000182bad3a70782ba10d3a80882ba08d3a909989920d49808d4870752077206956700208377c0070a09019567982082724007827b38077b6bd80082743007827a28077b6ac000682768b8958940db2709684768a8958840db470895878000d42b0adaa709d8870c94ac8ecb8897f000857a01daca0b88b7019570ff9ab39accc9ac0a9a99ef008e3c8e07da0c07889c000185cc018ea8dba80cdbb70c7b64b8007b62d000d42407826bc0008268d800d4b808d48707887701d4c70764b894787b68180152071206502212038c3d51070806502214032c3750201603563e7b67c8007b68e8008267d8008268d0008269e00050201803623e7b67b0007b68a8008267e0009579808267c0008268b80050201a03453e7b67a0007b68688269e000889780007b67608267c0008268b80050201c03253e50221e03733d826a6093a77b67f80051087a0564a98267e8008268a800d4870764ac826868502220033c3650202203ce3d7b67c8007b68a0008267c0008268b8008269180150202403b43d7b67687b68a800826818019a8980008267d8008268d00050202603bd3d50222803193b82686850222a03393d50202c03823d50222e032e38502230035f39d89002826ba800d8ab0cdb320c50223203353ad4870297b801826bf00098b33fd4380397b801826bf80098b43fd4480897bb018267d800d47b0b7b6bf8008267d000d478087b68f000d437087b68e000d4270750223403c634d89b02c99b0988ab01c9bc0c827b08c92b0b95aaff7b7c107b7b08d4bc027b7a18d49a0bd42b0a840b017b6bd8007b794926d000520a6dff2874045247ce3c1245100695679820492780034927780349277003492768039567002083770004330036030a103302380328ee3b50223803eb3b50223a03753c510748063308800102838833070133090a0d28360650223c032a3bac783f063308800102838833070133090a0d281b069567a01b33003e0333021e0528193b95679818827708037b67f00033078001037b67080183777b670001330040030a04826908013302420328653382690801502242035e3349290003959b00027bb8f8007bb7f0009568801b7bbae800330750204403e7af3302460395689818014928e0024928d8024928c8020164893307209568601b4929d00250204803beaf33077001027b671801390770010256173f0a50224a037a3a9517e08479e07b69f80064913307800102837783993308407b67100133004c030a08826af80033024e0328db36826af80050224e03d4367b67f80064718267f000977720987920956798184927c0024927b8024927b0029568401b7b69f0007b79a8023307502050033baf8267d00095689818958900027b97a0008267d8007b9798008267e0007b979000648a3307209568201b8269e8007ba988025020520304af502254038238ac780950225603533a9517e08477e07b67e80050225803963233005a030a08826ae80033025c03280a36826ae80050225c030336826bf8007bba187bb9107bb8087bb78267000133005e030a04826908013302600328553982690801502260034e397b68e8009877206f987b68e000978820d487077b67d8009567001b8268f8005020620369af95699818018297700280986c0282997802977a20d4a808979a20987720d4a707826ad800d3a707826ae800d3a808826ae000d3a909989920d49808d487075207280582670001330064030a04826908013302660328743182690801502266036d3149294002959b00027bb8387bb7309568c01a7bba28330750206803f9ad33026a0395689818014928200249281802492808020164893307209568a01a4929100250206c03d0ad50226e034e37ac78095022700395389517e08477e07b67f800502272036231330074030a0833027603286239502276035f397b67e8006f977b67e0006fa77b67d800330278039569981801492900024929f8014929f0019568801a8267f0007b97e801330750207a0365ad8267d80095689818958900017b97e0008267e0007b97d8008267e8007b97d000648a3307209568601a8269f8007ba9c80150207c032ead50227e03ac36ac7809502280037d389517e08477e07b67f80050228203c0300a08826af80082a782a80882a91082aa186f726f876f996faa951be084b8e0648195ab02d8ab0ac8a90cd89c09daaa09c87909d87907c827077b8c087b8b7b89107b87189567401a7b68f80050208403afad956798188277b0018478ff005108ee033302860395699818014929980149299001140700000000c884c1c17b97a0019568201a4929880133073300bc03287aac3302880395699810014929b8074929b007140700000000dbf71c6f7b97c007956840184929a80733073300c004284aac4926d800018267f8009777018268d800d487077b6718010182677082681801ab8788058267800033008a030a048269880033028c032851308269880050228c034a3049298007959b00077bb8787bb770956800187bba68330750208e03eeab3302900395689810014928600749285807492848070164893307209568e0174929500750209203c5ab82679800817756173f128268980048084033029403288c30502294038930330096030a08330298032826315022980323314929400749293807492930079568c0178267787b972807330750209a0375ab8267f80095689810958900077b9720956b000182b77b971882b7087b9710648a3307209568a01782b9107ba9080750209c0341ab82679800817756173f128267980048074033029e0328083050229e0305303300a0030a083302a203287e345022a2037b3495ab025022a4037f3095689820958a00077bab487bac507ba9587ba760956780179568e0275020a603d7ab956798107c77f006510767043302a80395699810014929d8064929d0061407000000006d53a9a77b97e006956860174929c80633073300c00428a6aa9569982052472dc64b4957492900054929f8044929f0044929e80495670020837780050a1001956a982095ab000482b7f80082a8000582b9f00082bae800d49808d4a707d4870751070e063308800102838833070133090a0d281c3308800102838833070133090a0d280c838833070133090a0d01826718018177561763ed05330880010228e69567a0013300aa0333020a0528ef348267a0018268a8018069b001492698017b6990017b688801956880017b67800133075020ac03eba94926780149267001492660010233072095686001492668015020ae03cda933077001027b671801390770010256173f0a5022b00389349517e08479e07b690801649133078001027b671001837783993308403300b2030a08826a08013302b40328ab2d826a08015022b403a42d95bc00017bcae0007bc9d8007bc8d0007bc7c80095674001956860225020b6034eaa8067400149263801492630017b6720013307800095682001492628015020b8033aa982671801817756279f0018826818014808a00082671001837880002812f282671001837880002807f23302ba0395699818014929580249295002140700000000dbf71c6f7b9760029568e01a4929480233075020bc03e2a882671801817756171f0c8268180148082001330701330904826810010a0d011408ffffffff000000007b68e800956a981895ab000182b8a80082b9b80082bac000867701956b982095bc00077bc8a8007bc9b8007bc7b0007bcac000956840288267f8005020be03eba9826700013300c0030a04826908013302c20328b72b826908015022c203b02b49298001959b00017bb8787bb7709568001a7bba6833075020c4033ca89567981849276001492758014927500164793307209568e019492948015020c60319a89517e08477e07b67f80064715022c8038b31ac78095022ca03d2329517e08477e07b6718015022cc039f2b3300ce030a0801826a180182a782a80882a91082aa186f776f886f996faa95ab035022d0033f2d8268f8007b8b7b8c087b89107b87189567c0195020d203a0a895679818827728018268e800c88707d287077b6718019567a0198268f8005020d4037ca8956a981880a70c0197772095ab000182b82082b91882ba10826b1801d4b707956b982095bc00077bc8e0007bc9d8007bcad0007bc7c800956860288267f8005020d603b8a8826700013300d8030a04826908013302da0328eb2a826908015022da03e42ad4780298aa206f99979820d4a808989920826af000956798187b7aa8003a0a4000023a0b4800023a0c5000027b7a00017b7bf8004927c0007b7cf0003a0a5800024927b8004927b0004927e0007b7ae8007b79d8007b78d00095698019956a6019956b40197b72c800330733085020dc033ba933078268100133090a0d2875fc3302de0395699810014929980749299007140700000000635bb2d57b97a007956820184929880733073300c0042873a6826780003300e0030a04826988003302e203289d2a826988005022e203962a4929c006959b00067bb8b8007bb7b000956840177bbaa80033075020e40337a63302e60395689810014928a006492898064928880603648933072095682017492990065020e8030ea682679800817756173f12826898004808403302ea0328d52a5022ea03d22a3300ec030a083302ee03286f2b5022ee036c2b49298006492978064929700695680017826718017b97680633075020f003bda58267f80095689810958900067b9760956b000182b77b975882b7087b9750648a3307209568e01682b9107ba948065020f20389a582679800817756173f12826798004807403302f40328502a5022f4034d2a3300f6030a08826a10013302f80328072c826a10015022f803002c7b67100164713302fa0395699810014929400649293806492930069568c0168267787b97280633075020fc0322a58267f00095689810958900067b97208267f8007b9718826700017b9710648a3307209568a016826908017ba908065020fe03eea48267980081775517400c82679800480740019517e08477e07b6708016471837933084082679000330000040a08826a08013302020428f52e826a080150220204ee2e826810017b8a187b89107b8b087b87956780165020040485a5956798108277e805847801520803033302060495699810014929180549291005140700000000b6e2a4af7b9720059568a0154929080533073300c0042851a4826718018177561763e90333088001022806fa9567ff07957721013300080433020a05280a2f9568ff07958899008287a0007b6778828798007b678000828790007b679800828788007b6790009567ff079577010133000a0433020e052802309568ff0795889900828780007b67708287787b67688287707b67608287687b6788009567ff079577e10033000c043302140528cd2f9567ff07957799008277487b675895670020837720040a0901956798208272a003827b98037b6bd80082749003827a88037b6ac000682768b8958940db2709684768a8958840db470895878000d42b0adaa709d8870c94ac8ecb8897f000857a01daca0b88b7019570ff9ab39accc9ac0a9a99ef008e3c8e07da0c07889c000185cc018ea8dba80cdbb70c7b64b8007b62d000d42407826bc0008268d800d4b808d48707887701d4c707947b52070b0850220e04582e5107010850221004f82750201204222f7b67c8007b68e8008267d8008268d0008269e000502014042e2f7b67b0007b68a8008267e0009579808267c0008268b80050201604112f7b67a0007b68508269e000889780007b67488267c0008268b80050201804f12e50221a043f2e826a4893a77b67f8005108770764a98267e8008268a800d4870764ac82685050221c04082750201e049a2e7b67c8007b68a0008267c0008268b8008269180150202004802e7b67507b68a800826818019a8980008267d8008268d00050202204892e50222404e52b82685050222604052e502028044e2e50222a04fa2850222c042b2ad89002826ba800d8ab0cdb320c50222e04012bd4870297b801826bf00098b33fd4380397b801826bf80098b43fd4480897bb018267d800d47b0b7b6bf8008267d000d478087b68f000d437087b68e000d42707502230049225d89b02c99b0988ab01c9bc0c827b08c92b0b95aaff7b7c107b7b08d4bc027b7a18d49a0bd42b0a840b017b6bd8007b794926d000520a6dff2871068478025208aa0b8477fd007b6708019567401682681001502032045aa2956a981095ab000582b7a80082b8b00082b9b80082bac000847700ff826b0801d4b707957702956b982095bc00077bca80007bc9787bc8707bc76895680028826710015020340492a282678000330036040a04826988003302380428c5248269880050223804be24d4870798aa206f99979820d4a808989920956c9810492c4005492c3805492c3005826a18017bca2805826a787bca48053a0a6000023a0b680002492c6005492c58057bcaa0057bcb98053a0a7000023a0b780002492c5005492c80057bca900595ca00057bab88007ba9787ba87064c895692016956a0016956be015956cc0157b8768053307330850203a04bda333078268900033090a0d2834f69567ff079577c10733003c0433020a05282e2b9568ff0795889900958900078297407b67708297387b67788297307b67b8008297287b67b0009567ff079577a10733003e0433020e0528272c9568ff0795889900958900078297207b67488297187b67408297107b67388297087b67309567ff0795778107330040043302140528f02b9567ff07957799008079e8068897019598ff888832858801da97087b699000da97085208360a826778977720987920956aff0795aa9900492ac0068267b00095ab00067bb7a8008267b8007bb7b0009568ff07958841077b6988007bb9b8003307502042047b9f9568ff07958899004928a00649289806492888060264893307209568ff079588210749299006502044044f9f33077001027b671801390770010256173f0a502246040b2a1407ffffffff000000007b67c8009517e08479e07b69080164913307800102837783993308407b671001330048040a08826a080133024a04281f23826a080150224a04182395bc00057bca207bc9187bc8107bc7089567ff07957701079568a02550204c04c29f9567ff0795779900827768067b6728956700208377c0050a09019567982082724005827b38057b6bd00082743005827a28057b6a0801682768b8958940db2709684768a8958840db470895878000d42b0adaa709d8870c94ac8ecb8897f000857a01daca0b88b7019570ff9ab39accc9ac0a9a99ef008e3c8e07da0c07889c000185cc018ea8dba80cdbb70c7b6400017b629800d42407826b08018268d000d4b808d48707887701d4c70764b894787b6880005207fc0850224e0462295107f2089598017b68f800888701c8a7077b67e800d48707887701c837077b67d800d83707c807077b67e0009a98ff007b68a0009a898000826708018268000150205004f6297b6780007b68a8008267d000826898008269a00050205204022a7b67687b68608267a000957980826708018268000150205404e7297b67587b68508269a000889780007b6720826708018268000150205604c8297b68f0008268e8008269e000d489098268f800826ad800d4a808d49808826a2093a77b67c00051081a0864a98267a800826860d4870764ac826850da980782699800649a64988269a000db970a7b6aa80082678000826a68d4a707826a58daca07826bd00064badb970a7b6aa0008267f00093c77b67f0004916608051018267f80095798064b75020580415297b6780007b686882670801826800018269f80050205a04fc287b67507b68588268f8009a8980008267d0008268980050205c040629826958d498088269f800889a80007b6a58826b68daab08956c000182cbdb980b7bcb826850d4870782688000daa80782c808db97087bc8088267d0008268980050205e049a284926d0004926980082695893987b6880009397826a6095a9ff7b69588ea99599ff7b695001826b080198b93f82630001973a01d49a0097ba018264a800984b3fd4ba0a7b6a68826950d30908d80902826b58d8ab0cdb820c82688000978801987a3fd4a8087b688000983a3f977701d47a0a974701826ba00098b83fd4870297b801826bf00098b33fd4380397b801826bc00098b43fd4480897bb018267d000d47b0b7b6bc00082679800d478087b68f000d437087b68a000d427077b67a800c9a907d8c707d8a908826c8000c9c90bc98b0bc97b0b99b33f826760d27307826968c979087b680801d87908c980077b6700019408c98a07d88a08c98c087b688000826cf800826ae800d4ac09889901826bd800d89b02c99b0988cb01c9ba0a826be000c92b0b95ccff7b6ae8007b6be000d4ba0a7b6cf800d49c0bd4ba0a843b017b6bd0007b69d80049269800520ad7fe28eb054926d800018267f800977701826bd800d47b0b0182678800aeb7a40b8267589777209878209587ff88773293877b68b80093875107d60b1407ffffffff000000007b67f800826780009777209879209567ff0795779900490782689000956a00107ba880f882689800956a00107ba888f89568ff07958881007b69c0007b79f8330750206004949a95670010492778f895670010492770f895680010492860f8023307209568ff0795886195690010492968f850206204639a33077001027b671801390770010233083fac7809502264041d25140700000000ffffffff7b67b0005022660476253307800102837783993308407b670801330068040a08826a100133026a0428371e826a100150226a04301e95bc00037bcac0007bc9b8007bc8b0007bc7a8009567ff079577419568402450206c04d79a95670010827740f84926c800330a8268f800d287077b67a80033090101330893a88267a8007b691001d897073309daa709492600013307db78095209e50a8267f8008268c800d287078268b800ae87d20a95670010492738f882679000956800107b8720f882679800956800107b8728f89568ff079588218267c000956900107b9730f8330750206e04599995670010492718f895670010492710f895670010492708f83307209568ff07958801956a0010492a00f80150207004289950227204a622ac780950227404ed2350227604f220330078040a0833027a0428c21e50227a04bf1e7b67f8077b67f0077b67e8079568e007826710017b67e007330750207c04e0988267d000956a00077ba7d8008267d8007ba7d0008267e0007ba7c8003307209568c0078269e8007ba9c00050207e04af98502280042d22ac780950228204fe23502284043523330086040a08826ae8003302880428dd22826ae80050228804d6228268f0007b69e0007b89187b67e8007b87107b6bd8007b8b087b6cd0007b8c9567a00750208a044899956a000782a7a80082a8b00082a9a0008477ff8488ff826ab000d2a909d49808d48707510748028268d000958702d88708826ad80050228c04aa218268e800c88a0ad88a08826be000c8b808956b982095bc00037bc7c8007bc9d0007bcad8007bc8e000956780079568602450208e04d698826788078477ff005207f10149267807826790007b676007826798007b676807956860078267c0007b677007330750209004b097492658074926500749264807330720956840074926400703502092049297502294041021ac780950229604e122502298045c1f33009a040a0833029c0428f01f50229c04ed1f49263807492630074926280795682007826788007b672007330750209e044a978267d800956a00077ba7188267e0007ba7108267e8007ba708330720956800078269f0007ba95020a0041e975022a2049c20ac78095022a4046d225022a604e81e3300a8040a083302aa0428b81c5022aa04b51c7b67f8067b67f0067b67e8069568e006826710017b67e00633075020ac04d6968267d000956a00067ba7d8008267d8007ba7d0008267e0007ba7c8003307209568c0068269e8007ba9c0005020ae04a5965022b0042320ac78095022b204f4215022b4042b213300b6040a08826ae8003302b80428db1e826ae8005022b804d41e9567a0065020ba045d978267a0068477055217017982671001956b00067bb740826788007bb760826790007bb78000826800017bb8488267607bb768826798007bb788007bb8508267687bb770826780007bb790007bb8588267707bb778956780069568600695694006826a787bba98005020bc0465088267c8009577018268f800d287077b67c80001330a826710019577018268f800d287092813fc3302be0495699810014929d8054929d005140700000000f08982c97b97e005956860164929c80533075020c004a99582679800817756171f0c8268980048082001330701330904826890000a0d019569ff07959999004929d8064929d00614070000000059e962787b97e0069568ff07958861074929c80633075020c2045895390870010256181f122003700102203308800102282adc33088001022822dc4926d000018267c0009777018268d000d487077b6780000149260001330a8267c800826828d287077b6768140700000000ffffffff7b676033090101330893a88267687b69d000d897073309daa7094926c0003307db7809510906282bee8267c80082680001d2870782689000ac87062816ee9569ff0795999900492960068267b000959a00067ba7488267b8007ba7509568ff079588e106826788007ba75833075020c40491949567ff0795779900492740064927380649273006647a3307209568ff079588c106492a2806015020c60465945022c804e31dac78095022ca042a1f9517e08477e07b6708015022cc04f7173300ce040a08826a08013302d00428c21b826a08015022d004bb1b7b67080164719569ff07959999008267c000959a00067ba7207ba7187ba7109568ff079588a1068267d0007ba70833075020d204f5938267e0009568ff07958899007b8700068267e8007b87f8058267f0007b87f005648a3307209568ff07958881068269f8007ba9e8055020d404ba935022d604381dac78095022d804091f9517e08477e07b67f8005022da044c173300dc040a08826af8003302de0428de1d826af8005022de04d71d826808017b69f0007b89187b67f8007b87107b6be8007b8b087b6ce0007b8c9567ff07957761065020e00445949569ff0795999900959a000582a7d00082a8d80082a9c8008477ff8488ff826a60d2a909d49808d487075107748267e000957902d879078268e800c8780ad88a08da77088267f800c8870bd87b078268f000c87808956798207b690801957c00057bc9487b6af8007bca507b6bf0007bcb587b68e8007bc8609567ff07957741069568e0255020e204ba939567ff07957799008277b0058477ff00510716330a8267d0009577018268c800d2870928a8fd9567982082680801957900057b98688268f8007b98708268f0007b98788268e8007b9880009567ff0795772106956800265020e4045d93956aff0795aa990082a78805847bff826830d88b07db780b8262489372826c40937c82683893780184b9ff82678000ae79877b69f8007b6898007b6ca0007b62a8007b6b08018267c80082680001d2870782689000ae8761ff492a80058267b00095a900057b97688267b8007b97709568ff0795880106826788007b977833075020e604e5919567ff0795779900492760054927580549275005647a3307209568ff079588e105492a4805035020e804b99182681801818756173f08480840019517e08477e07b67f0005022ea044c153300ec040a083302ee04280e1a5022ee040b1a9569ff07959999004929400549293805492930059568ff079588c1058267f8007b97280533075020f0045c918267d8009568ff0795889900958900055022f2040e1a9588a1058269f0007ba908055020f404349182681801818756173f08480840019517e08477e07b67f8005022f604c7140a08826af80082a71882a81082a90882aa6f777b67f0006f877b67e8006f977b67e0006fa77b67d8009517e08477e07b67f80064719569ff07959999008267c0007b970005959a00047ba7f8007ba7f0009568ff07958881058267d0007ba7e80033075020f804ad908267d8009568ff0795889900958900047b97e0008267e0007b97d8008267e8007b97d000648a3307209568ff07958861058269f0007ba9c8045020fa046e9082681801818756173f08480840019517e08477e07b67f0005022fc0401143300fe040a08826af00033020005287e1a826af00050220005771a8268f8007b8a187b89107b8b087b879567ff0795774105502002050a91956aff0795aa990082a7a80484770552170195008267d00095ac00047bc748826708017bc7688267b0007bc788008268c0007bc850826798007bc7708267b8007bc790007bc8588267a0007bc7788267787bc798007bc8608267a8007bc780009567ff07957721059568ff07958801059569ff079599e104826b707bcba00050200405fa0195690001829b08956aff0795aa990082979577018268c800d287077b972807826b0801013308330c330295b701847bff2820fd9569ff0795999900491938491930140700000000d94b11cf7b97409568ff079588c100491928330750200605328f390870010256181f1220037001022033088001022804d6330880010228fcd59569ff079599990049191849191014070000000059e962787b97209568ff079588a100491908330750200805e58e390870010256181f12200370010220330880010228b7d5330880010228afd533078268080133090a0d2888e40a020182171082181814090000000001000000d37909d48909987a2088aa01948a939a510a248219821a087b697b6a087b67107b68189551c0821038821530821628951140320033088001028388330701330933000c050a0d33020e0528671a50220e05641a3308240a0201821718821810821908d4780a889b0194ab510b0d821a50221005dd163200330880010283883307013309330012050a0d3302140528241a50221405211a330844330016050a0233021805281d18502218051a18520b0b50221a059d16320033088001028388330701330933001c050a0d33021e0528b21850221e05af18330020050a023302220528e01750222205dd17520b0b5022240560163200330880010283883307013309330026050a0d01951180f9951a00067ba0787ba5707ba668951580068411e0641682997b692882887b68308278107b68208278087b683882777b6740836760050a0901826278058263700582676805826b60057b6b7868296838958a40db290a687968b8958840db7908958b8000d42309da9b0ad88b0c949c8ecb88a8f000858901dac90b88b4019540ff9ab49accc99c099aa8ef007b64a8008e4a8e0cda0a0c7b68b800888a000185aa018e98db980adbbc0a6474826778d42408d4370bd4b808888801d4a808647a948a5208e9028268b8008588ff00826ca800d4c808d4090bd4b8085108d002826bb80095ba017b6ab00088a801c898087b68a000d4a808888801c8c8087b689000d8c808c808087b6898009ab9ff007b6988009a99800064487b64707b62687b6360502028059d187b6780007b68508267608268688269880050202a05ac187b67487b68188268b8009a897f82677882687050202c0593187b67107b68b80082698800889780007b675882677882687050202e057518826c58826b9000826a98008269a000d4a909826ab000d4ba0ad49a0a93c77b67a800510a0502826750826918d497078269b800dac907826268642a82638800db370a7b6ab80082678000826948d49707826910dac907826b6064badb370a7b6a800093c87b6888004916588051018267b00095798064b7642850203005d0177b67507b68188267788268708269b00050203205ba177b67107b68488268b0009a89800082676082686850203405c617826948d49808826ab00088ab80007b6b48826918dab908826970dba8097b6970826810d48707826850dab807826878dba70864a97b6878826760826868502036055d17330c82694893989397826a5895a9ff7b69508ea99599ff7b6948826370826478017b6c7898493f973a01d49a0c974a01826bb80098bb3fd4ba0a7b6a688269487b6c706434d3c903d8c902826b50d8ab0cdb320c978801987a3fd4a8087b6860984a3f977701d47a0a8267b800977701826b800098b83fd4870297b801826b880098b33fd4380397b801826ba80098b43fd4480897bb01826778d47b0b7b6ba80086887b68880086387b68800086277b67b800c9a907d8c707d8a908826260c9290bc98b0bc97b0b99bc3f826758d2c707826868c97804d87808826770c987039478c98a07d88a08c98208826ab0008260a000d40a09889901826b9000d89b02c99b0988ab01c9b000826b9800c92b0b95aaff7b60a0007b6b9800d4b0027b6ab000d49a0bd42b0a84cc017b699000520af2fe2805330c018267a800977701d47c0a01826730aea79008826720977720987920492638058267407b6720058267387b672805956820057b69a0007b693005330750203805bb8949261805492610054926000501330720956800054926080550203a059d893308700102390770010256173f0b200370010240019517e08479e07b69a800649133078001027b677083777b68b00083993308407b67b80033003c050a0833023e0528a80f50223e05a50f8267289777209877204926f8044926f0044926e8049568e0047b6798007b67e0043307502040052989826778956a00047ba7d800826780007ba7d000826788007ba7c8003307209568c004826990007ba9c00050204205f9888268b000818756173f0e4808403302440528fe1350224405fb13330046050a08330248052806115022480503119567a00450204a05b4898067a4048268a8048269b004977720d49808d4870751079507492698048267407b6780048267387b678804956880048267a0007b679004330750204c05838849267804492670044926600403330720956860044926680450204e0565888268b000818756173f0e48084033025005283211502250052f11330052050a08826aa80033025405283113826aa800502254052a137b67a8006f877b6790006f977b6788006fa77b678000492658044926500449264804956840048267307b674004330750205605fb8782678000956a00047ba738826788007ba730826790007ba728330720956820048269a8007ba92050205805ce878268b000818756173f0e48084033025a05289b1050225a05981033005c050a0833025e0528f70d50225e05f40d49261804492610044926080495680004826798007b6700043307502060058187826778956a00037ba7f800826780007ba7f000826788007ba7e8003307209568e003826990007ba9e0005020620551878268b00081875517400e48084033026405285612502264055312330066050a0833026805285e0f502268055b0f9567c00350206a050c888268c00384870151072206848704520742067b6890008487fb007b678800956780038268a80050206c05e087826780038268880382699003826a9803847700ff826b8800d4b707957704956b00057bba98007bb990007bb888007bb78000956880058267a80050206e052188492678038267a000956900037b97708267387b9768956860038267407b976033075020700587864926580349265003492648033307209568400349264003502072056a868269b000819756173f0e4809403302740528370f50227405340f0a08826aa80082a782a80882a91082aa186f726f8c6f996faa9517e08478e07b68a80064817b6a6895a701887a017b6978c8a90bd4b709889901c8c9097b6c8000d8c90a7b628800c82a0a7b8b087b877b89107b8a189567200350207605e286956900038297203a0818010282623803829a28829b30c87808d87807c87a0c95ccffd3ac09d8ac0ada970a95b7ffc87a0ad87a0788b901c99209c89707956900057b98a0007b9ca8007b9ab0007b97b8009568a0058267a800502078050487826790008477025207a20250207a05f2833a08a001037b68a8003a08b001037b6890003a07a801037b6788000a0a826888006f88978920826a90006faa98aa20d4a909988a208268a8006f8b330880010397bc20d4ca0a98bb203d0b9001033e0a8801033e098001033a092001024926d8054926d0054926c8057b6990007b69c0054826e0058e77fc089a79956a00067ba9187ba9107ba9087ba9978820988820977723d487079568c00597882098882095690006979920d4890a826b7097bb2098bb209568e005978820d4b80c3308ff3309ff0a7b67a8000a0c015107f30033007c050a0c0195791f7b67880050227e05370e492618027b6900027b6a080295672002956800027b6b1002502080052b04956b000282b93882ba3082b82882b7207b6880007b6978d48909d4a708d498089888207b6a70d4a909979920d498085208f1024926f8014926f0014926e8019568e001826988007b69e0017b678800502082052a840a0c01826a8800826878826970d498081409e0ffffff00000000d89a09826b800094b994895109a602647898772052079d0283a72064897b68800083887b6888006498502084052f88826880007a68200683778368200633090a0b018167200682688800ac8767028267a80052071b039567a001330840502086057382956b000182b7b80082b8b00082b9a80082baa00050228805e10a5207340249269801492690014926880195688001826790007b67800164a77b6ab80050208a056b834926180149261001492608018267307b670001492638014926300149262801826798007b672001492658018267a0007b6750018267387b6748013a074801023a085001023a09580102826a407b6a40017b6778017b6870017b6968013a0760010233082095696001956a4001956b2001956c00017b6760018267b800330096052830869517e0847ce064c1826868958702d88708826a7850228c055d0c82688000c88a0ad88a08826b8800c88b0b64c87b6cb8007bc9087bc77bca107bcb189567000350208e059483956c000382c73a0b20010282c81882c90882ca107b6bb000c87b0bd87b07c8790cd89c09da7709c8a909d8a907c88707956800067b8b407b8c487b89507b8758956840068267b80050209005c7839567e002330840502092050d81956b000282baf80082b8f00082b9e80082b7e000d49a0ad48709d4a909989920d4a808978820d498085208bf004926d8024926d0024926c8029568c0028269b0007b69c0027b67b80050209405f8814926580249265002492648028267307b674002492678024926700249266802826798007b676002492698028267a0007b6790028267387b6788023a072801023a083001023a09380102826a407b6a80027b67b8027b68b0027b69a8023a074001023308209569a002956a8002956b6002956c40027b67a0028267b80050209605c184955180f99517000682707882757082766895118006320000492650054926480549264005140700000000d94b11cf956840057b6758053307502098053881390870010256181f0b20037001022001330880010283883307013309040a0d014926d0004926c8004926c0001407000000006d53a9a79568c0007b67d800330733009a0528ee804926f0004926e8004926e000140700000000b6e2a4af9568e0007b67f800330733009a0528c7804926b0034926a8034926a00314070000000000f90f569568a0037b67b803330733009a0528a0804926d0014926c8014926c00114070000000018ecb8909568c0017b67d801330750209a057d808267b000817756171f0c8268b000480820013307013309048268b80033009c050a0d01951130ff7b10c8007b15c0007b16b8009515d0008411f08289187b19108289107b19088289087b1982867b17289517900033084050209e05e67eff821898008219900095671fd86700821ac80a0b8477e0c8b803c879027b1920d8920cc8c303d383067b1818d88309da6c098214a800d8ab0b8216a000da000b821708c87b0bd87b0cc86b0bc89b0a821710c84707c8c707d8ba0cd86b0bc8b707c8c70b8eb78eacdbb70cd4ba078e38db7c08520866d86a07d34b08d84b0cda870cd36a07d48707db7c0952094e7b12707b13787b1a80003307409518707b1b88007b14105020a005757fff8217288218107b78187b76108218187b78088218207b78955130ff8210c8008215c0008216b8009511d0003200491160491158491150140700000000717b484e9518507b176833075020a205267fff491148491140491130413307049518304911385020a4050c7fff390870010256183f0b20037001024001330880010283883307013309243300a6050a0d019511c0fe7b1038017b1530017b162801951540018411e082897b19388289087b19308289107b19288288187b182082787b18188278107b18108276080a0a6f68978920821a106faa98aa20d4a909988820821a186faa330b80010397ac20d4c80898aa203d0a9001033e088801033e098001038218207b18d8008218287b18d0008218307b18c8008218387b18c0004821e0008e77fc089a787b1818017b1810017b1808017b18000197bb2098bb20977723d4b7079518c000978820988820330b80010295190001979920d4890a7b1b1897bb2098bb209518e000978820d4b80c3308ff3309ff0a64760a0c015107da007b16203300a8050a0c0195791f7b17385022aa057a07492198007b1980007b1a88009517a000951880007b1b90005020ac056efd8219b8008216b0008218a8008217a0007b18307b1928d48909d46708d49808988820d46909979920d49808520890004911784911704911689518608219387b19607b17385020ae05787dff0a0c01821a38821828d468081409e0ffffff00000000d89a09821b3094b99489510950647698772052074883a72083687b183864685020b0058a817a16200183778318200133090a0b0181172001821620821838ac871c52061a9551c0fe8210380182153001821628019511400132000049115049114849114014070000000018ecb8909518407b175833075020b205e57cff390870010256181f0b200370010220018118183307013309040a0d33073300b40528408133075020b4053b813307015020b605328182970881981082996f77977a206f88988820d48a0a9877206f98978920d497079888209569981832028269d00082970881981082996f77977a206f88988820d48a0a9877206f98978920d497079888209569ff079599990032026471837933084082671001320282970881981082996f7a97a7206f8898882032027b67e800c9a007d8c707d8a008826cb800c9c00bc98b0bc97b0b99b03f8267b000d270078268c000c97804d87808c989039498c98a077b67c800d88a08c98c0895670001827a18827c10d4ca09889901827b320282a71882a81082a90882aa6f776f886f996faa956b9820320282970881981082996f77977a206f88988820d48a0a9877206f98978920d497079888209569981032028269000182970881981082996f77977a206f88988820d48a0a9877206f98978920d497079888203202da98078269d000649a64988269e000db970a7b6ae8008267c800826ab000d4a707826aa000daca07826bd80064badb970a7b6ae0008267f00093c77b67f0004926b0008051018267180195798064b732029517e08477e07b671001647183793308408267900032029598017b681801888701c8a7077b671001d48707887701c837077b670001d83707c807077b6708019a98ff007b68e0009a8980008267c0008268b8003202826a000182a71882a81082a90882aa6f777b67f0006f877b67e8006f977b67e0006fa77b67d8009517e08477e07b67000164719569ff07959999008267f8003202d8ab0ac8a90cd89c09daaa09c88909d88908c887073202826a100182a71882a81082a90882aa6f777b6710016f877b6708016f977b6700016fa77b67f80033079810c876093202826af00082a71882a81082a90882aa6f777b67e8006f877b67e0006f977b67d8006fa77b67d0009517e08477e07b67f00064718267000132028269880082970881981082996f77977a206f88988820d48a0a9877206f98978920d49707988820956998203202956b000182b982970881981082996f77977a206f88988820d48a0a9877206f98978920d4970798882082b9183202826aa80082a71882a81082a90882aa6f777b6790006f877b6788006f977b6780006fa77b67789517e08477e07b67a80064713202826a180182a71882a81082a90882aa6f7c7b6c08016f8b7b6b10016f997b6900016fa77b671801320282a71882a81082a90882aa6f777b6708016f877b6700016f977b67f8006fa77b67f0009517e08477e032028264c0008263b8004926d8004926d0008269a800939893977b67c800826ab00095a9ff7b69a8008ea99599ff7b69a0003202826a100182a71882a81082a90882aa6f776f8b6f996faa826818017b8a187b89107b8b087b8733070020320282a71882a81082a90882aa6f776f886f996faa3202d49707d48a09d47909989920d48707977720d49707320282a71882a81082a90882aa6f777b67e8006f877b67e0006f977b67d8006fa77b67d0009517e08477e0320282a71882a81082a90882aa6f777b67f8006f877b67f0006f977b67e8006fa77b67e0009517e08477e0320282a71882a81082a90882aa6f776f8b6f996faa826800017b8a187b89107b8b087b8732029517e08477e07b67f00064718379330840826708013202956c00017bc8187bca10d48a077b69f8007bcb08d49b08d48707320298493f973a01d4a909974a018264e800984b3fd4ba0a7b6ac0008260a0006437d390033202826a900082a71882a81082a90882aa6f776f8b6f996faa8268a8007b8a187b89107b8b087b87320282a71882a81082a90882aa6f776f8b6f996faa8268f0007b8a187b89107b8b087b873202826af00082a71882a81082a90882aa6f777b67f0006f877b67e8006f977b67e0006fa77b67d80032027b6a7b69087b68107b67189551c082103882153082162895114032027b97208267e0007b97188267e8007b9710648a3307209568ff0732029517e08477e07b67a800647183793308408267b8003202978801826bc80098ba3fd4a8087b68b800987a3f97b701d47a0a974701826be00098b83f320282ab7b1b1882ab087b1b2082ab107b1b2882aa187b1a308296829a087b1a829a107b1a088299187b191032027b6ae00093b87b68e8004926b8008051018267100195798064c764383202826a100182a782a80882a91082aa186f776f886f996faa320282671801817733083f3202c88a09d8a90ada880a3202d879088497e0957920d87907c8780ad88a0bda770b32028269a800d4980882691801889a80007b6aa800826ba000daab08826bb800db980b7b6bb800320233079820c8760a95ab000532028269a80093989397826ab80095a9ff7b69b0008ea99599ff7b69a80032028477ff8488ff8499ff826bf800d2ba0a826b1001d4ba0a956b98283202821718821810821908821ad4790bd48a0cd4bc0c98cc20d48b0b97bb20d4cb0b320282a71882a81082a90882aa6f776f8b6f996faa320282a71882a81082a90882aa6f7c6f8b6f976fa932028267080195770188780182691001c89808956998203202826ad000c9a707826a0801826be000c9ab0a956b982032029517e08477e07b67e8006471837933084082670801320282970881981082996f77977a206f88988820d4a80832028267180181773308233202330740826818017a8732029511c07b10387b15307b16289515408411e064768317330804320282a71882a81082a90882aa6f7732029517e08477e07b6718016471837933084032029517e08477e07b679000647183793308408267b80032029517e08479e07b691801649132029517e08479e07b691001649132028597ff00d43707d40a08d487073202826718013308407a78320233079820c8760a95ab0003320282b7b80082b8c00082b9b00082baa800d49808d4a707d4870732026479140700000000717b484e3308002032027b68f000956b000182b81082b908d4890982b81882bad4a808d498083202826af80082a71882a81082a90882aa6f777b67f8006f873202d487078268c800daa8078268c000db97087b68c0008267d8008268d000320282b77882b8800082b97082ba68d49808d4a707d4870732029511c07b10387b15307b16289515408411e0647683173202849a40520a195109148d9a40cfa80ad09808d09707d4a707320032009597c0d0780733083200849a40520a195109148d9a40d0a70acf9707cf9808d4a808320032009598c0cf870833073200490a21a11a4292d210a1925429a42449922449922449922449922449922449922449922449922449922449922449aa9294529294942454a5242549922449922449922449922449922449922449922449499294a4aa24254994a492a42a494992922425294955559292a42495244544444a9224254952a1524a4992524a4952491111514444a424491224944a4a4a8a142952a448912245498a8888222222254992922449905054a4489122458a142952a4489122458a14255244449424094248184a93d2900811119188886844449208491289281211a250354484880092a4129124492209494892244992a124948492a4004a21443094b442552224490821a442952a8d8888481111242284089188d288400202894002020908082490402222225222888848924491488888489224499210111111918888889408222292244112913422494212a24891448848228588881211922884084612854aa44844504592929224499212112222229248249288444a92241249128944242249224244884822914892241249924424494488848888889044221211912821522411929284881042444444242222121111914604491489282222222222122249421251a2448912492a92a4125129224992a492884892442289241249444444888888101189081111111122221149144911291215898844a244148148212222424444448844222249229124112122222a2251629244125112492289248924912492442212894492489248242991444a2249222992241111898888482342129288a4111111210951a4244444441444442282240a21829144a112514422882022229248249288444a92241249120922222222882812444422111111114482489220892812894811441491089292440821444444442222224912118d2449920449441a9124499224214a1409229248414484121124510849300144102a892241248888249148222288884444229188888808221a111151492591a422492a119548492492a49288244922892491444414451011114144242248222222888848244552a24849221a114524494214514422884822051111252248a21092202211844a4491201244241289441245924434922412499244224992489248922451922482481011111111114912d148242549922492242222220a228a48044949424408212222221211111495888888281244442449a24844242222222222111111891891884844a220624428114108114ca250918822411445c4888888828888444a4482283289208a48045124912452109148a4442488229308a288441041242241141191244992888888880812918888882812244992244822128d489220095144912022891444442282240a21829144a112d128495582284904111191442291442452922491489248104912114414092222918888880822414444044944444444144144118920294984104244922411114151898888882241444492244822d28824494944442322222aa9249254244925a212298948244925114992124924892422a2882022228288484410111111414444222992121111118d88884892044944249288242a888844044914222112844a14092249114444444404912491249288202222222292082289442449441011114912444a9228224922828848104992244992888888882822228888041040a2924414894424228888482a4944444444041140a2288924111111440445252222221a11245124221291482422d2888888484992244922898848245210312294882084082651a848441189208aa248a2885144221189828811111151222288229120a24810498a202222222288482412894444101111914410114924222222222288181111096244922449924412111111114144248000129524808844248924491211111141441245492222222222228888000248258988888808224952944411111111440445259088888828120449148904111111111111444a4a9224490821222222a2201189481245222249942088444490888808221191442289448a88a0828891249144444924492249249244924812894422912492241249a4241149244924118924514432224144115129124924894492241245242222889424499224222222220ad208208044511291544a5292442491082249529424912489240a228000124549224944248288248a92882491081245822222a2206244484490220388205144228822464444444441444444448988204526514991a4a2288a485244101189882022498288888820228848241211414444224924494444440411414444441249228944449244444490144904914422491141442222888888884892882022888888485244041149242211912422481491082292484144448908924445265149140912444922884824228288888820222222824810111191244922118944248a20514422484a12428888888808111111111111111191888888201244244992248988482422452422912812118944098288880822222282484444221189448a88a0828891249144142991248924914812492249241289449248924824919244249124914424924411c9448428a248109144a42022224a440449144204912054248a245545241289228a04111111511011114a440451640011402411441189209224228288222222894424912492ac48291111512488482252101111252204516412411409224944a42022228888208a4c228822124124294992242249444410119158248988202222228924892812444444444144449488104491490451442288a22822222222a22022229148898808a2c824822812449288484144441011411499441045248288202212111144444444a8a4248944222149922449121111111124519244a2882022424444444424499244444444049148444410111111114444444444444424111111114122124444244992248948444444111141a4480049c5502aa15442a9845289181140441484084242224604101105518824944a2895502aa1542222808882104148484404105124944a2895881101444441882024242222884441c488502222a1542246041011052182909088882012051123428908a2884ca2a15442a9845209a51211014414840842422222808882282293682895502aa15442a9845209a5124a25944a44441089828811a144042992491a111140444441882014964403222222a21111114922944a2895502a11494444444410514422484a12428888888810111111252222222212101111118d489224114a254622232222824450aad42884520988888888684444449208a51285502a119188888888888848444444444444242222224922229148148944442482509580888888884604114a2588502a11918888884412a288221241924841c4244a24081192482408958822124114492489a420a248a4442488221209a2884410498a282211448a2422821811499228499224221a111111955412492a92a412954849442292a422820882888808222211412422114190228a48098288880812111141902008824412249124924422128904499224499244110988888888281204114a2588502a1191880851441189202222a220624428114188104112854a441189208a242222220a222222224a4404418224822822114492228a480491228988204644922412892489882212414412298818114a44102448228822411445c48888888288888888121141902089a0284955529224494a228288888811014444918811014444911889c4444414910822924841c488502282282291208a0411118982884894a4442288221209a248902022492282888818114044148940444444232222924428552855a951084544222222220a22422282102182240a5189221241444444041111111144212222118918114044144411994403888888484444444410514422884822051111252248a220411241344a5295204a12414424111144249244222222228288221241529288082144448488888888880a8a4ac4880022a248441189202222a220624428114114914810458288888882884894a4442288221209a2884410458c8848144444229112114114914954228a480491a40822121123028888225108898848442422222222221191244944442422896844444454524924a948924a5422251189489222882088888820221211442212110429a288942088888820111111040982204824411249224924229148902449922449149144444410111111914444928820a288449094242222221142444408111191141111151495888844449224121111898824499288884444922412492222222222220a2222428988204488208048a25089282211449244441011896844444454524924a948924a542225118948928a08229144924822222282888808924844904424228888442429a2484aa22211491225a208220591880892888820894812a524922422884851929291481249922489249124912492449248442291481249922491444922228924892422912422223112199124298a00229288222222222205111111128908428424082082508928221144444424828828125911295122221111111111918828888888482442102408a2481011115110111111898820481044118920229148144144441249229208228944444444041111111111511011891004098228124444441444241249444190208822414444444144444424228220411045248208221191484424894812912422124124128b4412312280882888223289464404101151102208098991488c224900c94aa4444922124944442412112988888812118220411241149108a28888241191828888888812111104099208a28844109148248a082222229224492491249248442412894444101191229144442291888808222249524a138988888844444422119182888828112188229308a24810111111110511114144045164124191a4a2288a248a888888888882888888882811114114994410452482485244101109118944442211892412111111910822112552b14a12910490881484084242229200129182104148485169124092544a49922485521409d22449292894a248902812242894a248104582048552342249a45292a444232252492591a422492a1195889494244945442489482491249288889204912482249204898824412222911491249222114992124510a9204922482292208948922449929204a5929424932491242949922449229124924492248aa248922449922425894822492289482489a8914c24894422220a224222821022984421458928122489888828484444442222882291208a0411444492884422220a22422282281209a288441045514444240a221289242241148904512488888828484444442222882291208a04114422111111414444441211111141442489a4202212114491485094a42a8992244922919444100991244992244922222222884410224488a24449a290248410222222a2485292441249924892d1882682888888209224922449121111111134920490a82891a22888286a44444482888808222222a208222211111111910821242222242222229294244124912225114421492449924492440491202222922449444444441011898888888844082111112111111141449268440410511022184a1a11014414898800228a444400114522228088822822938846444492249548202229499224492492244992249594244992249144024992a4888828490049812492044204434934222252922429492a29490a4942088944221151444492441222491249b246a24910111111444424499224922449a04902482a25290551d44892888868920092022182492a529020a994a424512495929424a24a94544a9124922412494a24912495a4aa28a994a4245124959294a4444522229128114520524954a2441249228988882892541445914411519224299254144511299254144591445124959294248a924a494a922249455194242a9254144551928aa228922222a22212258a24554592a224559524494a5251144552928aa22892925415492a894a144922494912494429925415492a495591a422494551149524495222911225518912492449a492244929498a2210a9a224554529494992a44844442251248a8a4489924422519292244949aa2a495545128922118992a84449a5a428252a49924a49aa242a25518992a8242a9214a948141191a402882292a4a4485251894422a24492a42449aa2449924a2a4992a4920200"},"methodIdentifiers":{"STAKE_PER_DAY()":"4a91f7ae","archiveHabit(uint32)":"b650673a","checkIn(uint32,uint64)":"a0145927","claim(uint256)":"379607f5","createHabit(bytes32)":"e9714e07","dailyStatuses(address,uint64,uint32)":"88b21c87","deposit()":"d0e30db0","epochNow()":"222ae786","forceSettleAllEpochs(address,uint64,uint32)":"494bc62d","habits(address,uint32)":"99626634","prepareDay(uint64)":"48cc36b8","redepositFromClaimable(uint256)":"8f23d36c","settle(address,uint64,uint32)":"9c14eb6e","settleAll(address,uint64,uint32)":"45123cce","treasury()":"61d027b3","userHabitCounters(address)":"0e08454a","userStates(address)":"0ecc535f","withdraw(uint256)":"2e1a7d4d"}},"hash":"3506481859e2f0a39589c20860160278bbebdad4e40ce697142339a4e8914af8","factoryDependencies":{}}}}