{"contracts/HabitTracker.sol":{"HabitTracker":{"abi":[{"inputs":[{"internalType":"address","name":"_treasury","type":"address"}],"stateMutability":"nonpayable","type":"constructor"},{"inputs":[],"name":"AlreadyCheckedIn","type":"error"},{"inputs":[],"name":"AlreadySettled","type":"error"},{"inputs":[],"name":"CannotSettleCurrentDay","type":"error"},{"inputs":[],"name":"DayNotFunded","type":"error"},{"inputs":[],"name":"HabitAlreadyArchived","type":"error"},{"inputs":[],"name":"HabitNotFound","type":"error"},{"inputs":[],"name":"HabitTextTooLong","type":"error"},{"inputs":[],"name":"InsufficientBalance","type":"error"},{"inputs":[],"name":"InvalidAmount","type":"error"},{"inputs":[],"name":"InvalidBatchSize","type":"error"},{"inputs":[],"name":"InvalidEpoch","type":"error"},{"inputs":[],"name":"InvalidTreasury","type":"error"},{"inputs":[],"name":"NotHabitOwner","type":"error"},{"inputs":[],"name":"TransferFailed","type":"error"},{"anonymous":false,"inputs":[{"indexed":true,"internalType":"address","name":"user","type":"address"},{"indexed":true,"internalType":"uint32","name":"habitId","type":"uint32"},{"indexed":true,"internalType":"uint64","name":"epoch","type":"uint64"}],"name":"CheckedIn","type":"event"},{"anonymous":false,"inputs":[{"indexed":true,"internalType":"address","name":"user","type":"address"},{"indexed":false,"internalType":"uint256","name":"amount","type":"uint256"}],"name":"Claimed","type":"event"},{"anonymous":false,"inputs":[{"indexed":true,"internalType":"address","name":"user","type":"address"},{"indexed":true,"internalType":"uint64","name":"epoch","type":"uint64"},{"indexed":false,"internalType":"uint32","name":"fundedCount","type":"uint32"},{"indexed":false,"internalType":"uint32","name":"insufficientCount","type":"uint32"}],"name":"DayPrepared","type":"event"},{"anonymous":false,"inputs":[{"indexed":true,"internalType":"address","name":"user","type":"address"},{"indexed":false,"internalType":"uint256","name":"amount","type":"uint256"}],"name":"Deposited","type":"event"},{"anonymous":false,"inputs":[{"indexed":true,"internalType":"address","name":"user","type":"address"},{"indexed":true,"internalType":"uint32","name":"habitId","type":"uint32"}],"name":"HabitArchived","type":"event"},{"anonymous":false,"inputs":[{"indexed":true,"internalType":"address","name":"user","type":"address"},{"indexed":true,"internalType":"uint32","name":"habitId","type":"uint32"},{"indexed":false,"internalType":"string","name":"text","type":"string"}],"name":"HabitCreated","type":"event"},{"anonymous":false,"inputs":[{"indexed":true,"internalType":"address","name":"user","type":"address"},{"indexed":false,"internalType":"uint256","name":"amount","type":"uint256"}],"name":"RedepositedFromClaimable","type":"event"},{"anonymous":false,"inputs":[{"indexed":true,"internalType":"address","name":"user","type":"address"},{"indexed":true,"internalType":"uint32","name":"habitId","type":"uint32"},{"indexed":true,"internalType":"uint64","name":"epoch","type":"uint64"},{"indexed":false,"internalType":"uint256","name":"slashed","type":"uint256"}],"name":"SettledFail","type":"event"},{"anonymous":false,"inputs":[{"indexed":true,"internalType":"address","name":"user","type":"address"},{"indexed":true,"internalType":"uint32","name":"habitId","type":"uint32"},{"indexed":true,"internalType":"uint64","name":"epoch","type":"uint64"},{"indexed":false,"internalType":"uint256","name":"reward","type":"uint256"}],"name":"SettledSuccess","type":"event"},{"anonymous":false,"inputs":[{"indexed":true,"internalType":"address","name":"user","type":"address"},{"indexed":false,"internalType":"uint256","name":"amount","type":"uint256"}],"name":"Withdrawn","type":"event"},{"inputs":[],"name":"STAKE_PER_DAY","outputs":[{"internalType":"uint256","name":"","type":"uint256"}],"stateMutability":"view","type":"function"},{"inputs":[{"internalType":"uint32","name":"habitId","type":"uint32"}],"name":"archiveHabit","outputs":[],"stateMutability":"nonpayable","type":"function"},{"inputs":[{"internalType":"uint32","name":"habitId","type":"uint32"},{"internalType":"uint64","name":"epoch","type":"uint64"}],"name":"checkIn","outputs":[],"stateMutability":"nonpayable","type":"function"},{"inputs":[{"internalType":"uint256","name":"amount","type":"uint256"}],"name":"claim","outputs":[],"stateMutability":"nonpayable","type":"function"},{"inputs":[{"internalType":"string","name":"text","type":"string"}],"name":"createHabit","outputs":[{"internalType":"uint32","name":"","type":"uint32"}],"stateMutability":"nonpayable","type":"function"},{"inputs":[{"internalType":"address","name":"","type":"address"},{"internalType":"uint64","name":"","type":"uint64"},{"internalType":"uint32","name":"","type":"uint32"}],"name":"dailyStatuses","outputs":[{"internalType":"uint8","name":"flags","type":"uint8"}],"stateMutability":"view","type":"function"},{"inputs":[],"name":"deposit","outputs":[],"stateMutability":"payable","type":"function"},{"inputs":[],"name":"epochNow","outputs":[{"internalType":"uint64","name":"","type":"uint64"}],"stateMutability":"view","type":"function"},{"inputs":[{"internalType":"address","name":"user","type":"address"},{"internalType":"uint64","name":"startEpoch","type":"uint64"},{"internalType":"uint32","name":"maxSettlements","type":"uint32"}],"name":"forceSettleAllEpochs","outputs":[],"stateMutability":"nonpayable","type":"function"},{"inputs":[{"internalType":"address","name":"","type":"address"},{"internalType":"uint32","name":"","type":"uint32"}],"name":"habits","outputs":[{"internalType":"uint32","name":"id","type":"uint32"},{"internalType":"address","name":"owner","type":"address"},{"internalType":"string","name":"text","type":"string"},{"internalType":"uint64","name":"createdAtEpoch","type":"uint64"},{"internalType":"bool","name":"archived","type":"bool"}],"stateMutability":"view","type":"function"},{"inputs":[{"internalType":"uint64","name":"epoch","type":"uint64"}],"name":"prepareDay","outputs":[],"stateMutability":"nonpayable","type":"function"},{"inputs":[{"internalType":"uint256","name":"amount","type":"uint256"}],"name":"redepositFromClaimable","outputs":[],"stateMutability":"nonpayable","type":"function"},{"inputs":[{"internalType":"address","name":"user","type":"address"},{"internalType":"uint64","name":"epoch","type":"uint64"},{"internalType":"uint32","name":"habitId","type":"uint32"}],"name":"settle","outputs":[],"stateMutability":"nonpayable","type":"function"},{"inputs":[{"internalType":"address","name":"user","type":"address"},{"internalType":"uint64","name":"epoch","type":"uint64"},{"internalType":"uint32","name":"maxCount","type":"uint32"}],"name":"settleAll","outputs":[],"stateMutability":"nonpayable","type":"function"},{"inputs":[],"name":"treasury","outputs":[{"internalType":"address","name":"","type":"address"}],"stateMutability":"view","type":"function"},{"inputs":[{"internalType":"address","name":"","type":"address"}],"name":"userHabitCounters","outputs":[{"internalType":"uint32","name":"","type":"uint32"}],"stateMutability":"view","type":"function"},{"inputs":[{"internalType":"address","name":"","type":"address"}],"name":"userStates","outputs":[{"internalType":"uint256","name":"depositBalance","type":"uint256"},{"internalType":"uint256","name":"blockedBalance","type":"uint256"},{"internalType":"uint256","name":"claimableBalance","type":"uint256"},{"internalType":"uint32","name":"activeHabitCount","type":"uint32"}],"stateMutability":"view","type":"function"},{"inputs":[{"internalType":"uint256","name":"amount","type":"uint256"}],"name":"withdraw","outputs":[],"stateMutability":"nonpayable","type":"function"}],"evm":{"assembly":"// RO data = 0/0 bytes\n// RW data = 364/65984 bytes\n// Stack size = 32768 bytes\n\n// Instructions = 11990\n// Code size = 42191 bytes\n\n      : @0 (gas: 1)\n     0: jump @14 if a0 == a1\n      : @1 (gas: 9)\n     3: a3 = a1 << 0x20\n     6: a3 = a3 >> 0x20\n     9: a4 = a0 << 0x20\n    12: a4 = a4 >> 0x20\n    15: a4 = a4 + a2\n    18: a3 = a3 - a4\n    21: a4 = a2 << 0x1\n    24: a4 = -a4\n    26: jump @7 if a4 >=u a3\n      : @2 (gas: 1)\n    29: jump @11 if a0 >=u a1\n      : @3 (gas: 1)\n    32: jump @14 if a2 == 0\n      : @4 (gas: 3)\n    35: a2 = a2 + a0\n    38: a3 = a0\n    40: fallthrough\n      : @5 (gas: 6)\n    41: a4 = u8 [a1]\n    43: a1 = a1 + 0x1\n    46: a5 = a3 + 0x1\n    49: u8 [a3] = a4\n    51: a3 = a5\n    53: jump @5 if a5 != a2\n      : @6 (gas: 1)\n    56: jump @14\n      : @7 (gas: 1)\n    58: jump @14 if a2 == 0\n      : @8 (gas: 3)\n    61: a2 = a2 + a0\n    64: a3 = a0\n    66: fallthrough\n      : @9 (gas: 6)\n    67: a4 = u8 [a1]\n    69: a1 = a1 + 0x1\n    72: a5 = a3 + 0x1\n    75: u8 [a3] = a4\n    77: a3 = a5\n    79: jump @9 if a5 != a2\n      : @10 (gas: 1)\n    82: jump @14\n      : @11 (gas: 1)\n    84: jump @14 if a2 == 0\n      : @12 (gas: 2)\n    87: i32 a3 = a2 + 0xffffffffffffffff\n    90: fallthrough\n      : @13 (gas: 7)\n    91: a4 = a1 + a3\n    94: a4 = u8 [a4]\n    96: a2 = a2 + 0xffffffffffffffff\n    99: a5 = a0 + a3\n   102: u8 [a5] = a4\n   104: i32 a3 = a3 + 0xffffffffffffffff\n   107: jump @13 if a2 != 0\n      : @14 (gas: 1)\n   110: ret\n      : @15 (gas: 7)\n   112: sp = sp + 0xffffffffffffffe8\n   115: u64 [sp + 0x10] = ra\n   118: u64 [sp + 0x8] = s0\n   121: u64 [sp] = s1\n   123: s1 = 0x20168\n   128: s0 = i32 [0x20168]\n   133: jump @18 if s0 == 0\n      : @16 (gas: 5)\n   136: a0 = 0x301a0\n   141: i32 a0 = a0 + 0\n   143: i32 a1 = s1 + 0\n   145: ecalli 6 // 'get_immutable_data'\n   147: fallthrough\n      : @17 (gas: 3)\n   148: a0 = i32 [0x20168]\n   153: u32 [0x20168] = 0\n   158: jump @19 if a0 <u s0\n      : @18 (gas: 5)\n   161: ra = u64 [sp + 0x10]\n   164: s0 = u64 [sp + 0x8]\n   167: s1 = u64 [sp]\n   169: sp = sp + 0x18\n   172: ret\n      : @19 (gas: 1)\n   174: trap\n      : @20 (gas: 2)\n   175: a1 = i32 [0x20168]\n   180: jump @70 if a1 == 0\n      : @21 (gas: 4)\n   184: a0 = 0x301a0\n   189: i32 a0 = a0 + 0\n   191: ecalli 14 // 'set_immutable_data'\n   193: jump @70\n      : @22 (gas: 8)\n   196: sp = sp + 0xfffffffffffffff0\n   199: u64 [sp + 0x8] = ra\n   202: u64 [sp] = s0\n   204: a2 = a1\n   206: s0 = a0\n   208: a1 = 0x20\n   211: a0 = a2\n   213: ra = 2, jump @37\n      : @23 [@dyn 1] (gas: 100)\n   218: a1 = u8 [a0 + 0x1]\n   221: a2 = u8 [a0]\n   223: a3 = u8 [a0 + 0x2]\n   226: a4 = u8 [a0 + 0x3]\n   229: a1 = a1 << 0x8\n   232: a1 = a1 | a2\n   235: a3 = a3 << 0x10\n   238: a4 = a4 << 0x18\n   241: a3 = a3 | a4\n   244: a1 = a1 | a3\n   247: a2 = u8 [a0 + 0x5]\n   250: a3 = u8 [a0 + 0x4]\n   253: a4 = u8 [a0 + 0x6]\n   256: a5 = u8 [a0 + 0x7]\n   259: a2 = a2 << 0x8\n   262: a2 = a2 | a3\n   265: a4 = a4 << 0x10\n   268: a5 = a5 << 0x18\n   271: a4 = a4 | a5\n   274: a2 = a2 | a4\n   277: a2 = a2 << 0x20\n   280: t0 = a2 | a1\n   283: a2 = u8 [a0 + 0x9]\n   286: a3 = u8 [a0 + 0x8]\n   289: a4 = u8 [a0 + 0xa]\n   292: a5 = u8 [a0 + 0xb]\n   295: a2 = a2 << 0x8\n   298: a2 = a2 | a3\n   301: a4 = a4 << 0x10\n   304: a5 = a5 << 0x18\n   307: a4 = a4 | a5\n   310: a2 = a2 | a4\n   313: a3 = u8 [a0 + 0xd]\n   316: a4 = u8 [a0 + 0xc]\n   319: a5 = u8 [a0 + 0xe]\n   322: a1 = u8 [a0 + 0xf]\n   325: a3 = a3 << 0x8\n   328: a3 = a3 | a4\n   331: a5 = a5 << 0x10\n   334: a1 = a1 << 0x18\n   337: a1 = a1 | a5\n   340: a1 = a1 | a3\n   343: a1 = a1 << 0x20\n   346: t1 = a1 | a2\n   349: a1 = u8 [a0 + 0x11]\n   352: a3 = u8 [a0 + 0x10]\n   355: a4 = u8 [a0 + 0x12]\n   358: a5 = u8 [a0 + 0x13]\n   361: a1 = a1 << 0x8\n   364: a1 = a1 | a3\n   367: a4 = a4 << 0x10\n   370: a5 = a5 << 0x18\n   373: a4 = a4 | a5\n   376: a1 = a1 | a4\n   379: a3 = u8 [a0 + 0x15]\n   382: a4 = u8 [a0 + 0x14]\n   385: a5 = u8 [a0 + 0x16]\n   388: a2 = u8 [a0 + 0x17]\n   391: a3 = a3 << 0x8\n   394: a3 = a3 | a4\n   397: a5 = a5 << 0x10\n   400: a2 = a2 << 0x18\n   403: a2 = a2 | a5\n   406: a2 = a2 | a3\n   409: a2 = a2 << 0x20\n   412: a3 = a2 | a1\n   415: a1 = u8 [a0 + 0x19]\n   418: a2 = u8 [a0 + 0x18]\n   421: a4 = u8 [a0 + 0x1a]\n   424: a5 = u8 [a0 + 0x1b]\n   427: a1 = a1 << 0x8\n   430: a1 = a1 | a2\n   433: a4 = a4 << 0x10\n   436: a5 = a5 << 0x18\n   439: a4 = a4 | a5\n   442: a1 = a1 | a4\n   445: a2 = u8 [a0 + 0x1d]\n   448: a4 = u8 [a0 + 0x1c]\n   451: a5 = u8 [a0 + 0x1e]\n   454: a0 = u8 [a0 + 0x1f]\n   457: a2 = a2 << 0x8\n   460: a2 = a2 | a4\n   463: a5 = a5 << 0x10\n   466: a0 = a0 << 0x18\n   469: a0 = a0 | a5\n   472: a0 = a0 | a2\n   475: a0 = a0 << 0x20\n   478: a0 = a0 | a1\n   481: a0 = reverse a0\n   483: a1 = reverse a3\n   485: a2 = reverse t1\n   487: a3 = reverse t0\n   489: u64 [s0 + 0x18] = a3\n   492: u64 [s0 + 0x10] = a2\n   495: u64 [s0 + 0x8] = a1\n   498: u64 [s0] = a0\n   500: ra = u64 [sp + 0x8]\n   503: s0 = u64 [sp]\n   505: sp = sp + 0x10\n   508: ret\n      : @24 (gas: 12)\n   510: sp = sp + 0xffffffffffffffd8\n   513: u64 [sp + 0x20] = ra\n   516: u64 [sp + 0x18] = s0\n   519: u64 [sp + 0x10] = s1\n   522: a2 = u64 [a1]\n   524: u64 [sp + 0x8] = a2\n   527: a2 = u64 [a1 + 0x8]\n   530: u64 [sp] = a2\n   532: s0 = u64 [a1 + 0x10]\n   535: s1 = u64 [a1 + 0x18]\n   538: a1 = 0x20\n   541: ra = 4, jump @37\n      : @25 [@dyn 2] (gas: 71)\n   546: a1 = reverse s1\n   548: a2 = reverse s0\n   550: a3 = u64 [sp]\n   552: a3 = reverse a3\n   554: a4 = u64 [sp + 0x8]\n   557: a4 = reverse a4\n   559: u8 [a0 + 0x18] = a4\n   562: u8 [a0 + 0x10] = a3\n   565: u8 [a0 + 0x8] = a2\n   568: u8 [a0] = a1\n   570: a5 = a4 >> 0x38\n   573: u8 [a0 + 0x1f] = a5\n   576: a5 = a4 >> 0x30\n   579: u8 [a0 + 0x1e] = a5\n   582: a5 = a4 >> 0x28\n   585: u8 [a0 + 0x1d] = a5\n   588: a5 = a4 >> 0x20\n   591: u8 [a0 + 0x1c] = a5\n   594: a5 = a4 >> 0x18\n   597: u8 [a0 + 0x1b] = a5\n   600: a5 = a4 >> 0x10\n   603: u8 [a0 + 0x1a] = a5\n   606: a4 = a4 >> 0x8\n   609: u8 [a0 + 0x19] = a4\n   612: a4 = a3 >> 0x38\n   615: u8 [a0 + 0x17] = a4\n   618: a4 = a3 >> 0x30\n   621: u8 [a0 + 0x16] = a4\n   624: a4 = a3 >> 0x28\n   627: u8 [a0 + 0x15] = a4\n   630: a4 = a3 >> 0x20\n   633: u8 [a0 + 0x14] = a4\n   636: a4 = a3 >> 0x18\n   639: u8 [a0 + 0x13] = a4\n   642: a4 = a3 >> 0x10\n   645: u8 [a0 + 0x12] = a4\n   648: a3 = a3 >> 0x8\n   651: u8 [a0 + 0x11] = a3\n   654: a3 = a2 >> 0x38\n   657: u8 [a0 + 0xf] = a3\n   660: a3 = a2 >> 0x30\n   663: u8 [a0 + 0xe] = a3\n   666: a3 = a2 >> 0x28\n   669: u8 [a0 + 0xd] = a3\n   672: a3 = a2 >> 0x20\n   675: u8 [a0 + 0xc] = a3\n   678: a3 = a2 >> 0x18\n   681: u8 [a0 + 0xb] = a3\n   684: a3 = a2 >> 0x10\n   687: u8 [a0 + 0xa] = a3\n   690: a2 = a2 >> 0x8\n   693: u8 [a0 + 0x9] = a2\n   696: a2 = a1 >> 0x38\n   699: u8 [a0 + 0x7] = a2\n   702: a2 = a1 >> 0x30\n   705: u8 [a0 + 0x6] = a2\n   708: a2 = a1 >> 0x28\n   711: u8 [a0 + 0x5] = a2\n   714: a2 = a1 >> 0x20\n   717: u8 [a0 + 0x4] = a2\n   720: a2 = a1 >> 0x18\n   723: u8 [a0 + 0x3] = a2\n   726: a2 = a1 >> 0x10\n   729: u8 [a0 + 0x2] = a2\n   732: a1 = a1 >> 0x8\n   735: u8 [a0 + 0x1] = a1\n   738: ra = u64 [sp + 0x20]\n   741: s0 = u64 [sp + 0x18]\n   744: s1 = u64 [sp + 0x10]\n   747: sp = sp + 0x28\n   750: ret\n      : @26 (gas: 43)\n   752: sp = sp + 0xffffffffffffffa0\n   755: u64 [sp + 0x58] = ra\n   758: u64 [sp + 0x50] = s0\n   761: u64 [sp + 0x48] = s1\n   764: s0 = sp + 0x60\n   767: sp = sp & 0xffffffffffffffe0\n   770: s1 = a0\n   772: a0 = u64 [a1 + 0x18]\n   775: a2 = u64 [a1 + 0x10]\n   778: a3 = u64 [a1 + 0x8]\n   781: a1 = u64 [a1]\n   783: a0 = reverse a0\n   785: a2 = reverse a2\n   787: a3 = reverse a3\n   789: a1 = reverse a1\n   791: u64 [sp + 0x18] = a1\n   794: u64 [sp + 0x10] = a3\n   797: u64 [sp + 0x8] = a2\n   800: u64 [sp] = a0\n   802: u64 [sp + 56] = 0\n   805: u64 [sp + 48] = 0\n   808: u64 [sp + 40] = 0\n   811: u64 [sp + 32] = 0\n   814: u32 [sp + 64] = 0x20\n   818: i32 a1 = sp + 0\n   820: i32 a3 = sp + 0x20\n   823: i32 a4 = sp + 0x40\n   826: a2 = 0xffffffffffffffff\n   829: a0 = 0\n   831: ecalli 7 // 'get_storage'\n   833: a0 = u64 [sp + 0x38]\n   836: a1 = u64 [sp + 0x30]\n   839: a2 = u64 [sp + 0x28]\n   842: a3 = u64 [sp + 0x20]\n   845: a0 = reverse a0\n   847: a1 = reverse a1\n   849: a2 = reverse a2\n   851: a3 = reverse a3\n   853: u64 [s1 + 0x18] = a3\n   856: u64 [s1 + 0x10] = a2\n   859: u64 [s1 + 0x8] = a1\n   862: u64 [s1] = a0\n   864: t0 = 6, jump @1535\n      : @27 [@dyn 3] (gas: 1)\n   870: ret\n      : @28 (gas: 40)\n   872: sp = sp + 0xffffffffffffffa0\n   875: u64 [sp + 0x58] = ra\n   878: u64 [sp + 0x50] = s0\n   881: s0 = sp + 0x60\n   884: sp = sp & 0xffffffffffffffe0\n   887: t0 = u64 [a0]\n   889: a3 = u64 [a0 + 0x8]\n   892: a4 = u64 [a0 + 0x10]\n   895: a0 = u64 [a0 + 0x18]\n   898: t1 = u64 [a1]\n   900: a2 = u64 [a1 + 0x8]\n   903: a5 = u64 [a1 + 0x10]\n   906: a1 = u64 [a1 + 0x18]\n   909: t2 = reverse a0\n   911: a4 = reverse a4\n   913: a3 = reverse a3\n   915: a0 = reverse t0\n   917: t0 = reverse a1\n   919: a5 = reverse a5\n   921: a2 = reverse a2\n   923: a1 = reverse t1\n   925: u64 [sp + 0x18] = a0\n   928: u64 [sp + 0x10] = a3\n   931: u64 [sp + 0x8] = a4\n   934: u64 [sp] = t2\n   936: u64 [sp + 0x38] = a1\n   939: u64 [sp + 0x30] = a2\n   942: u64 [sp + 0x28] = a5\n   945: u64 [sp + 0x20] = t0\n   948: i32 a1 = sp + 0\n   950: i32 a3 = sp + 0x20\n   953: a2 = 0xffffffffffffffff\n   956: a4 = 0x20\n   959: a0 = 0\n   961: ecalli 15 // 'set_storage'\n   963: sp = s0 + 0xffffffffffffffa0\n   966: ra = u64 [sp + 0x58]\n   969: s0 = u64 [sp + 0x50]\n   972: sp = sp + 0x60\n   975: ret\n      : @29 (gas: 24)\n   977: sp = sp + 0xffffffffffffff60\n   981: u64 [sp + 0x98] = ra\n   985: u64 [sp + 0x90] = s0\n   989: u64 [sp + 0x88] = s1\n   993: s0 = sp + 0xa0\n   997: sp = sp & 0xffffffffffffffe0\n  1000: a4 = u64 [a3]\n  1002: u64 [sp + 0x38] = a4\n  1005: a4 = u64 [a3 + 0x8]\n  1008: u64 [sp + 0x30] = a4\n  1011: a4 = u64 [a3 + 0x10]\n  1014: u64 [sp + 0x28] = a4\n  1017: a3 = u64 [a3 + 0x18]\n  1020: u64 [sp + 0x20] = a3\n  1023: a3 = u64 [a2]\n  1025: u64 [sp + 0x18] = a3\n  1028: a3 = u64 [a2 + 0x8]\n  1031: u64 [sp + 0x10] = a3\n  1034: a3 = u64 [a2 + 0x10]\n  1037: u64 [sp + 0x8] = a3\n  1040: a2 = u64 [a2 + 0x18]\n  1043: u64 [sp] = a2\n  1045: s1 = a1\n  1047: ra = 8, jump @37\n      : @30 [@dyn 4] (gas: 35)\n  1052: a1 = u64 [sp]\n  1054: a1 = reverse a1\n  1056: a2 = u64 [sp + 0x8]\n  1059: a2 = reverse a2\n  1061: a3 = u64 [sp + 0x10]\n  1064: a3 = reverse a3\n  1066: a4 = u64 [sp + 0x18]\n  1069: a4 = reverse a4\n  1071: u64 [sp + 0x58] = a4\n  1074: u64 [sp + 0x50] = a3\n  1077: u64 [sp + 0x48] = a2\n  1080: u64 [sp + 0x40] = a1\n  1083: a1 = u64 [sp + 0x20]\n  1086: a1 = reverse a1\n  1088: a2 = u64 [sp + 0x28]\n  1091: a2 = reverse a2\n  1093: a3 = u64 [sp + 0x30]\n  1096: a3 = reverse a3\n  1098: a4 = u64 [sp + 0x38]\n  1101: a4 = reverse a4\n  1103: u64 [sp + 0x78] = a4\n  1106: u64 [sp + 0x70] = a3\n  1109: u64 [sp + 0x68] = a2\n  1112: u64 [sp + 0x60] = a1\n  1115: i32 a2 = a0 + 0\n  1117: i32 a3 = s1 + 0\n  1119: i32 a0 = sp + 0x40\n  1122: a1 = 0x2\n  1125: ecalli 5 // 'deposit_event'\n  1127: sp = s0 + 0xffffffffffffff60\n  1131: ra = u64 [sp + 0x98]\n  1135: s0 = u64 [sp + 0x90]\n  1139: s1 = u64 [sp + 0x88]\n  1143: sp = sp + 0xa0\n  1147: ret\n      : @31 (gas: 15)\n  1149: sp = sp + 0xffffffffffffff20\n  1153: u64 [sp + 0xd8] = ra\n  1157: u64 [sp + 0xd0] = s0\n  1161: u64 [sp + 0xc8] = s1\n  1165: s0 = sp + 0xe0\n  1169: sp = sp & 0xffffffffffffffe0\n  1172: a5 = u64 [a4]\n  1174: u64 [sp + 0x40] = a5\n  1177: a5 = u64 [a4 + 0x8]\n  1180: u64 [sp + 0x48] = a5\n  1183: a5 = u64 [a4 + 0x10]\n  1186: u64 [sp + 0x50] = a5\n  1189: a4 = u64 [a4 + 0x18]\n  1192: u64 [sp + 0x58] = a4\n  1195: t0 = 10, jump @1507\n      : @32 [@dyn 5] (gas: 2)\n  1201: u64 [sp + 0x38] = a1\n  1204: ra = 12, jump @37\n      : @33 [@dyn 6] (gas: 46)\n  1209: a1 = reverse s1\n  1211: u64 [sp + 0x78] = a1\n  1214: a1 = u64 [sp]\n  1216: a1 = reverse a1\n  1218: u64 [sp + 0x70] = a1\n  1221: a1 = u64 [sp + 0x8]\n  1224: a1 = reverse a1\n  1226: u64 [sp + 0x68] = a1\n  1229: a1 = u64 [sp + 0x10]\n  1232: a1 = reverse a1\n  1234: u64 [sp + 0x60] = a1\n  1237: a1 = u64 [sp + 0x18]\n  1240: a1 = reverse a1\n  1242: u64 [sp + 0x98] = a1\n  1246: a1 = u64 [sp + 0x20]\n  1249: a1 = reverse a1\n  1251: u64 [sp + 0x90] = a1\n  1255: a1 = u64 [sp + 0x28]\n  1258: a1 = reverse a1\n  1260: u64 [sp + 0x88] = a1\n  1264: a1 = u64 [sp + 0x30]\n  1267: a1 = reverse a1\n  1269: u64 [sp + 0x80] = a1\n  1273: a1 = u64 [sp + 0x40]\n  1276: a1 = reverse a1\n  1278: u64 [sp + 0xb8] = a1\n  1282: a1 = u64 [sp + 0x48]\n  1285: a1 = reverse a1\n  1287: u64 [sp + 0xb0] = a1\n  1291: a1 = u64 [sp + 0x50]\n  1294: a1 = reverse a1\n  1296: u64 [sp + 0xa8] = a1\n  1300: a1 = u64 [sp + 0x58]\n  1303: a1 = reverse a1\n  1305: u64 [sp + 0xa0] = a1\n  1309: i32 a2 = a0 + 0\n  1311: a3 = i32 [sp + 0x38]\n  1314: i32 a0 = sp + 0x60\n  1317: a1 = 0x3\n  1320: ecalli 5 // 'deposit_event'\n  1322: sp = s0 + 0xffffffffffffff20\n  1326: ra = u64 [sp + 0xd8]\n  1330: s0 = u64 [sp + 0xd0]\n  1334: s1 = u64 [sp + 0xc8]\n  1338: sp = sp + 0xe0\n  1342: ret\n      : @34 (gas: 23)\n  1344: sp = sp + 0xfffffffffffffee0\n  1348: u64 [sp + 0x118] = ra\n  1352: u64 [sp + 0x110] = s0\n  1356: u64 [sp + 0x108] = s1\n  1360: s0 = sp + 0x120\n  1364: sp = sp & 0xffffffffffffffe0\n  1367: s1 = u64 [a5]\n  1369: u64 [sp + 0x60] = s1\n  1372: s1 = u64 [a5 + 0x8]\n  1375: u64 [sp + 0x68] = s1\n  1378: s1 = u64 [a5 + 0x10]\n  1381: u64 [sp + 0x70] = s1\n  1384: a5 = u64 [a5 + 0x18]\n  1387: u64 [sp + 0x78] = a5\n  1390: a5 = u64 [a4]\n  1392: u64 [sp + 0x38] = a5\n  1395: a5 = u64 [a4 + 0x8]\n  1398: u64 [sp + 0x40] = a5\n  1401: a5 = u64 [a4 + 0x10]\n  1404: u64 [sp + 0x48] = a5\n  1407: a4 = u64 [a4 + 0x18]\n  1410: u64 [sp + 0x50] = a4\n  1413: t0 = 14, jump @1507\n      : @35 [@dyn 7] (gas: 2)\n  1419: u64 [sp + 0x58] = a1\n  1422: ra = 16, jump @37\n      : @36 [@dyn 8] (gas: 58)\n  1427: a1 = reverse s1\n  1429: u64 [sp + 0x98] = a1\n  1433: a1 = u64 [sp]\n  1435: a1 = reverse a1\n  1437: u64 [sp + 0x90] = a1\n  1441: a1 = u64 [sp + 0x8]\n  1444: a1 = reverse a1\n  1446: u64 [sp + 0x88] = a1\n  1450: a1 = u64 [sp + 0x10]\n  1453: a1 = reverse a1\n  1455: u64 [sp + 0x80] = a1\n  1459: a1 = u64 [sp + 0x18]\n  1462: a1 = reverse a1\n  1464: u64 [sp + 0xb8] = a1\n  1468: a1 = u64 [sp + 0x20]\n  1471: a1 = reverse a1\n  1473: u64 [sp + 0xb0] = a1\n  1477: a1 = u64 [sp + 0x28]\n  1480: a1 = reverse a1\n  1482: u64 [sp + 0xa8] = a1\n  1486: a1 = u64 [sp + 0x30]\n  1489: a1 = reverse a1\n  1491: u64 [sp + 0xa0] = a1\n  1495: a1 = u64 [sp + 0x38]\n  1498: a1 = reverse a1\n  1500: u64 [sp + 0xd8] = a1\n  1504: a1 = u64 [sp + 0x40]\n  1507: a1 = reverse a1\n  1509: u64 [sp + 0xd0] = a1\n  1513: a1 = u64 [sp + 0x48]\n  1516: a1 = reverse a1\n  1518: u64 [sp + 0xc8] = a1\n  1522: a1 = u64 [sp + 0x50]\n  1525: a1 = reverse a1\n  1527: u64 [sp + 0xc0] = a1\n  1531: a1 = u64 [sp + 0x60]\n  1534: a1 = reverse a1\n  1536: u64 [sp + 0xf8] = a1\n  1540: a1 = u64 [sp + 0x68]\n  1543: a1 = reverse a1\n  1545: u64 [sp + 0xf0] = a1\n  1549: a1 = u64 [sp + 0x70]\n  1552: a1 = reverse a1\n  1554: u64 [sp + 0xe8] = a1\n  1558: a1 = u64 [sp + 0x78]\n  1561: a1 = reverse a1\n  1563: u64 [sp + 0xe0] = a1\n  1567: i32 a2 = a0 + 0\n  1569: a3 = i32 [sp + 0x58]\n  1572: i32 a0 = sp + 0x80\n  1576: a1 = 0x4\n  1579: ecalli 5 // 'deposit_event'\n  1581: sp = s0 + 0xfffffffffffffee0\n  1585: ra = u64 [sp + 0x118]\n  1589: s0 = u64 [sp + 0x110]\n  1593: s1 = u64 [sp + 0x108]\n  1597: sp = sp + 0x120\n  1601: ret\n      : @37 (gas: 2)\n  1603: i32 a2 = a0 >> 0x10\n  1606: jump @42 if a2 != 0\n      : @38 (gas: 4)\n  1609: a1 = a1 + a0\n  1612: i32 a1 = a1 + 0x1f\n  1615: a1 = a1 & 0xffffffffffffffe0\n  1618: jump @42 if a1 >u 65536\n      : @39 (gas: 3)\n  1624: a2 = 0x20170\n  1629: a3 = i32 [0x20170]\n  1634: jump @41 if a3 >=u a1\n      : @40 (gas: 2)\n  1637: u32 [0x20170] = a1\n  1642: fallthrough\n      : @41 (gas: 4)\n  1643: a1 = 0x20180\n  1648: i32 a0 = a0 + 0\n  1650: a0 = a0 + a1\n  1653: ret\n      : @42 (gas: 1)\n  1655: trap\n      : @43 (gas: 6)\n  1656: sp = sp + 0xfffffffffffffff0\n  1659: u64 [sp + 0x8] = ra\n  1662: u64 [sp] = s0\n  1664: s0 = a0 & 0x1\n  1667: ecalli 3 // 'call_data_size'\n  1669: fallthrough\n      : @44 (gas: 2)\n  1670: u32 [0x2016c] = a0\n  1675: jump @46 if s0 == 0\n      : @45 (gas: 1)\n  1678: ra = 18, jump @47\n      : @46 [@dyn 9] (gas: 1)\n  1682: ra = 20, jump @73\n      : @47 [@dyn 10] (gas: 13)\n  1687: sp = sp + 0xffffffffffffff00\n  1691: u64 [sp + 0xf8] = ra\n  1695: u64 [sp + 0xf0] = s0\n  1699: u64 [sp + 0xe8] = s1\n  1703: s0 = sp + 0x100\n  1707: sp = sp & 0xffffffffffffffe0\n  1710: u64 [sp + 216] = 0\n  1714: u64 [sp + 208] = 0\n  1718: u64 [sp + 200] = 0\n  1722: u64 [sp + 192] = 0\n  1726: i32 a0 = sp + 0xc0\n  1730: ecalli 16 // 'value_transferred'\n  1732: fallthrough\n      : @48 (gas: 8)\n  1733: a0 = u64 [sp + 0xd0]\n  1737: a1 = u64 [sp + 0xd8]\n  1741: a2 = u64 [sp + 0xc8]\n  1745: a3 = u64 [sp + 0xc0]\n  1749: a1 = a1 | a2\n  1752: a0 = a0 | a3\n  1755: a0 = a0 | a1\n  1758: jump @60 if a0 != 0\n      : @49 (gas: 15)\n  1762: s1 = i32 [0x2016c]\n  1767: a0 = s1 << 0x20\n  1770: a0 = a0 >> 0x20\n  1773: a0 = a0 + 0x1f\n  1776: a0 = a0 & 0xffffffffffffffe0\n  1779: a1 = a0 + 0xa0\n  1783: a0 = a1 <u a0\n  1786: u64 [sp + 0xa0] = a1\n  1790: u64 [sp + 0xa8] = a0\n  1794: a0 = 0 if a0 != 0\n  1796: u64 [sp + 0xb0] = a0\n  1800: a0 = 0x40\n  1803: a1 = sp + 0xa0\n  1807: u64 [sp + 184] = 0\n  1811: ra = 22, jump @24\n      : @50 [@dyn 11] (gas: 3)\n  1816: a0 = 0xa0\n  1820: a1 = s1\n  1822: ra = 24, jump @37\n      : @51 [@dyn 12] (gas: 5)\n  1827: i32 a0 = a0 + 0\n  1829: a1 = s1\n  1831: a2 = 0\n  1833: ecalli 1 // 'call_data_copy'\n  1835: fallthrough\n      : @52 (gas: 1)\n  1836: jump @61 if s1 <=u 31\n      : @53 (gas: 3)\n  1841: a0 = sp + 0x80\n  1845: a1 = 0xa0\n  1849: ra = 26, jump @22\n      : @54 [@dyn 13] (gas: 10)\n  1854: a0 = u64 [sp + 0x90]\n  1858: a2 = u64 [sp + 0x98]\n  1862: a1 = 0x100000000\n  1872: a1 = a1 ^ a0\n  1875: a1 = a1 | a2\n  1878: a3 = a0 >> 0x20\n  1881: a3 = a3 <u 0x1\n  1884: a3 = 0 if a2 != 0\n  1886: a3 = 0 if a1 == 0\n  1888: jump @62 if a3 == 0\n      : @55 (gas: 6)\n  1891: a1 = u64 [sp + 0x80]\n  1895: a3 = u64 [sp + 0x88]\n  1899: a4 = a1 | a0\n  1902: a5 = a3 | a2\n  1905: a4 = a4 | a5\n  1908: jump @63 if a4 == 0\n      : @56 (gas: 7)\n  1911: u64 [sp + 0x60] = a1\n  1914: u64 [sp + 0x68] = a3\n  1917: u64 [sp + 0x70] = a0\n  1920: a0 = 0x80\n  1924: a1 = sp + 0x60\n  1927: u64 [sp + 0x78] = a2\n  1930: ra = 28, jump @24\n      : @57 [@dyn 14] (gas: 3)\n  1935: a0 = sp + 0x40\n  1938: a1 = 0x40\n  1941: ra = 30, jump @22\n      : @58 [@dyn 15] (gas: 12)\n  1946: a0 = u64 [sp + 0x58]\n  1949: a1 = u64 [sp + 0x50]\n  1952: a2 = u64 [sp + 0x48]\n  1955: s1 = u64 [sp + 0x40]\n  1958: a0 = a0 | a2\n  1961: a2 = s1 | a1\n  1964: a2 = a2 | a0\n  1967: a2 = a2 >> 0x20\n  1970: a0 = a0 | a1\n  1973: a0 = a0 << 0x20\n  1976: a0 = a0 | a2\n  1979: jump @67 if a0 == 0\n      : @59 (gas: 1)\n  1982: trap\n      : @60 (gas: 4)\n  1983: a1 = 0x20180\n  1988: i32 a1 = a1 + 0\n  1990: a0 = 0x1\n  1993: jump @72\n      : @61 (gas: 4)\n  1996: a1 = 0x20180\n  2001: i32 a1 = a1 + 0\n  2003: a0 = 0x1\n  2006: jump @72\n      : @62 (gas: 4)\n  2009: a1 = 0x20180\n  2014: i32 a1 = a1 + 0\n  2016: a0 = 0x1\n  2019: jump @72\n      : @63 (gas: 8)\n  2022: u64 [sp + 16] = 0\n  2025: u64 [sp + 8] = 0\n  2028: u64 [sp + 0] = 0\n  2030: a0 = 0x14bcf5c800000000\n  2040: a1 = sp\n  2042: u64 [sp + 0x18] = a0\n  2045: a0 = 0\n  2047: ra = 32, jump @24\n      : @64 [@dyn 16] (gas: 2)\n  2052: a1 = i32 [0x20170]\n  2057: jump @66 if a1 >u 31\n      : @65 (gas: 2)\n  2061: u32 [0x20170] = 0x20\n  2067: fallthrough\n      : @66 (gas: 6)\n  2068: a1 = 0x20180\n  2073: i32 a1 = a1 + 0\n  2075: a0 = 0x1\n  2078: a2 = 0x4\n  2081: ecalli 13 // 'seal_return'\n  2083: fallthrough\n      : @67 (gas: 3)\n  2084: a0 = s1\n  2086: a1 = 0\n  2088: ra = 34, jump @37\n      : @68 [@dyn 17] (gas: 7)\n  2093: i32 a0 = a0 + 0\n  2095: a1 = 0\n  2097: a2 = 0\n  2099: ecalli 1 // 'call_data_copy'\n  2101: a0 = sp + 0x20\n  2104: a1 = 0x80\n  2108: ra = 36, jump @22\n      : @69 [@dyn 18] (gas: 9)\n  2113: a0 = u64 [sp + 0x38]\n  2116: a2 = u64 [sp + 0x30]\n  2119: a3 = u64 [sp + 0x28]\n  2122: a4 = u64 [sp + 0x20]\n  2125: u64 [0x301b8] = a0\n  2130: u64 [0x301b0] = a2\n  2135: u64 [0x301a8] = a3\n  2140: u64 [0x301a0] = a4\n  2145: jump @20\n      : @70 (gas: 3)\n  2148: a0 = s1\n  2150: a1 = 0\n  2152: ra = 38, jump @37\n      : @71 [@dyn 19] (gas: 6)\n  2157: i32 a1 = a0 + 0\n  2159: a0 = 0\n  2161: a2 = 0\n  2163: ra = 0x28\n  2166: ecalli 13 // 'seal_return'\n  2168: jump @73\n      : @72 (gas: 4)\n  2170: a2 = 0\n  2172: ra = 0x28\n  2175: ecalli 13 // 'seal_return'\n  2177: fallthrough\n      : @73 [@dyn 20] (gas: 16)\n  2178: sp = sp + 0xfffffffffffffe10\n  2182: u64 [sp + 0x1e8] = ra\n  2186: u64 [sp + 0x1e0] = s0\n  2190: u64 [sp + 0x1d8] = s1\n  2194: s0 = sp + 0x1f0\n  2198: sp = sp + 0xffffffffffffd290\n  2202: sp = sp & 0xffffffffffffffe0\n  2205: s1 = sp\n  2207: a2 = s1 + 0x2118\n  2211: u64 [a2 + 1440] = 0\n  2215: u64 [a2 + 1432] = 0\n  2219: u64 [a2 + 1416] = 0x80\n  2225: a0 = 0x40\n  2228: a1 = s1 + 0x26a0\n  2232: u64 [a2 + 1424] = 0\n  2236: ra = 42, jump @24\n      : @74 [@dyn 21] (gas: 4)\n  2241: a0 = 0x2016c\n  2246: u64 [s1 + 0x198] = a0\n  2250: a0 = i32 [0x2016c]\n  2255: jump @76 if a0 >=u 4\n      : @75 (gas: 1)\n  2259: jump @1008\n      : @76 (gas: 6)\n  2262: a0 = s1 + 0x2000\n  2266: i32 a0 = a0 + 0x6c0\n  2270: a1 = 0\n  2272: ra = 0x2c\n  2275: ecalli 2 // 'call_data_load'\n  2277: fallthrough\n      : @77 [@dyn 22] (gas: 3)\n  2278: a2 = s1 + 0x2118\n  2282: a0 = i32 [a2 + 0x5c4]\n  2286: jump @79 if a0 != 2293374087\n      : @78 (gas: 1)\n  2293: jump @278\n      : @79 (gas: 1)\n  2296: jump @105 if a0 == 2401489772\n      : @80 (gas: 1)\n  2304: jump @82 if a0 != 2573362740\n      : @81 (gas: 1)\n  2311: jump @407\n      : @82 (gas: 1)\n  2314: jump @84 if a0 != 3062082785\n      : @83 (gas: 1)\n  2321: jump @230\n      : @84 (gas: 1)\n  2324: jump @199 if a0 == 3504541104\n      : @85 (gas: 1)\n  2332: jump @87 if a0 != 248271711\n      : @86 (gas: 1)\n  2339: jump @370\n      : @87 (gas: 1)\n  2342: jump @135 if a0 == 573237126\n      : @88 (gas: 1)\n  2350: jump @163 if a0 == 773487949\n      : @89 (gas: 1)\n  2358: jump @91 if a0 != 932579317\n      : @90 (gas: 1)\n  2365: jump @315\n      : @91 (gas: 1)\n  2368: jump @93 if a0 != 1221342904\n      : @92 (gas: 1)\n  2375: jump @350\n      : @93 (gas: 1)\n  2378: jump @95 if a0 == 1251080110\n      : @94 (gas: 1)\n  2385: jump @440\n      : @95 (gas: 11)\n  2388: a0 = s1 + 0x2918\n  2392: u64 [a0 + 448] = 0\n  2396: u64 [a0 + 440] = 0\n  2400: u64 [a0 + 432] = 0\n  2404: u64 [a0 + 424] = 0\n  2408: a0 = s1 + 0x3000\n  2412: i32 a0 = a0 + 0xfffffffffffffac0\n  2416: ra = 0x2e\n  2419: ecalli 16 // 'value_transferred'\n  2421: t0 = 0x30\n  2424: jump @1513\n      : @96 [@dyn 23] (gas: 1)\n  2428: t0 = 48, jump @1513\n      : @97 [@dyn 24] (gas: 8)\n  2434: a0 = u64 [a4 + 0xb8]\n  2438: a1 = u64 [a4 + 0xc0]\n  2442: a2 = u64 [a4 + 0xb0]\n  2446: a3 = u64 [a4 + 0xa8]\n  2450: a1 = a1 | a2\n  2453: a0 = a0 | a3\n  2456: a0 = a0 | a1\n  2459: jump @99 if a0 == 0\n      : @98 (gas: 1)\n  2462: jump @746\n      : @99 (gas: 3)\n  2465: a0 = u64 [s1 + 0x198]\n  2469: a0 = i32 [a0]\n  2471: jump @101 if a0 >u 3\n      : @100 (gas: 1)\n  2475: jump @747\n      : @101 (gas: 3)\n  2478: a0 = s1 + 0x1080\n  2482: a1 = 0x40\n  2485: ra = 50, jump @22\n      : @102 [@dyn 25] (gas: 15)\n  2490: a3 = s1 + 0x7ff\n  2494: a3 = a3 + 0x119\n  2498: a5 = a3 + 0x700\n  2502: a4 = u64 [a5 + 0x80]\n  2506: a1 = u64 [a5 + 0x78]\n  2509: a2 = u64 [a5 + 0x70]\n  2512: a0 = u64 [a5 + 0x68]\n  2515: a4 = a4 | a2\n  2518: a2 = a0 | a1\n  2521: a2 = a2 | a4\n  2524: a2 = a2 >> 0x20\n  2527: a1 = a1 | a4\n  2530: a1 = a1 << 0x20\n  2533: a1 = a1 | a2\n  2536: jump @104 if a1 == 0\n      : @103 (gas: 1)\n  2539: jump @745\n      : @104 (gas: 9)\n  2542: a1 = u64 [0x200a0]\n  2547: u64 [a3 + 1888] = 0\n  2551: u64 [a3 + 1880] = 0\n  2555: u64 [a3 + 0x748] = a1\n  2559: a1 = s1 + 0x1060\n  2563: u64 [a3 + 1872] = 0\n  2567: u64 [s1 + 0x198] = a0\n  2571: ra = 0x118\n  2575: jump @24\n      : @105 (gas: 11)\n  2578: a0 = s1 + 0x2918\n  2582: u64 [a0 + 544] = 0\n  2586: u64 [a0 + 536] = 0\n  2590: u64 [a0 + 528] = 0\n  2594: u64 [a0 + 520] = 0\n  2598: a0 = s1 + 0x3000\n  2602: i32 a0 = a0 + 0xfffffffffffffb20\n  2606: ra = 0x34\n  2609: ecalli 16 // 'value_transferred'\n  2611: t0 = 0x36\n  2614: jump @1545\n      : @106 [@dyn 26] (gas: 1)\n  2618: t0 = 54, jump @1545\n      : @107 [@dyn 27] (gas: 1)\n  2624: t0 = 56, jump @1512\n      : @108 [@dyn 28] (gas: 1)\n  2630: jump @110 if a0 == 0\n      : @109 (gas: 1)\n  2633: jump @748\n      : @110 (gas: 1)\n  2636: t0 = 58, jump @1532\n      : @111 [@dyn 29] (gas: 1)\n  2642: jump @113 if a1 <u a0\n      : @112 (gas: 1)\n  2645: jump @749\n      : @113 (gas: 6)\n  2648: a0 = s1 + 0x3000\n  2652: i32 a0 = a0 + 0xfffffffffffffb40\n  2656: a1 = 0x4\n  2659: ra = 0x3c\n  2662: ecalli 2 // 'call_data_load'\n  2664: fallthrough\n      : @114 [@dyn 30] (gas: 7)\n  2665: a0 = s1 + 0x2918\n  2669: a5 = a0 + 0x200\n  2673: a1 = u64 [a5 + 0x40]\n  2676: a2 = u64 [a5 + 0x38]\n  2679: a3 = u64 [a5 + 0x30]\n  2682: a4 = u64 [a5 + 0x28]\n  2685: t0 = 62, jump @1499\n      : @115 [@dyn 31] (gas: 1)\n  2691: jump @117 if a0 != 0\n      : @116 (gas: 1)\n  2694: jump @750\n      : @117 (gas: 28)\n  2697: a0 = 0x30180\n  2702: u64 [s1 + 0x170] = a0\n  2706: i32 a0 = a0 + 0\n  2708: u64 [s1 + 0x140] = a0\n  2712: ecalli 4 // 'caller'\n  2714: a2 = u64 [s1 + 0x170]\n  2718: a0 = u64 [a2 + 0x8]\n  2721: a1 = i32 [a2 + 0x10]\n  2724: a2 = u64 [a2]\n  2726: a0 = reverse a0\n  2728: a3 = a0 << 0x20\n  2731: a1 = reverse a1\n  2733: a1 = a1 >> 0x20\n  2736: a3 = a3 | a1\n  2739: a0 = a0 >> 0x20\n  2742: a1 = reverse a2\n  2744: a2 = a1 << 0x20\n  2747: a0 = a0 | a2\n  2750: a1 = a1 >> 0x20\n  2753: a2 = s1 + 0x1118\n  2757: u64 [a2 + 640] = 0\n  2761: a4 = a2 + 0x200\n  2765: u64 [a4 + 0x78] = a1\n  2768: u64 [a4 + 0x70] = a0\n  2771: a1 = s1 + 0x1380\n  2775: u64 [a4 + 0x68] = a3\n  2778: a0 = 0\n  2780: ra = 64, jump @24\n      : @118 [@dyn 32] (gas: 9)\n  2785: a0 = s1 + 0x1118\n  2789: u64 [a0 + 608] = 0\n  2793: u64 [a0 + 600] = 0\n  2797: u64 [a0 + 592] = 0\n  2801: a2 = a0\n  2803: a0 = 0x20\n  2806: a1 = s1 + 0x1360\n  2810: u64 [a2 + 584] = 0\n  2814: ra = 66, jump @24\n      : @119 [@dyn 33] (gas: 7)\n  2819: a0 = sp + 0xffffffffffffffe0\n  2822: a0 = a0 & 0xffffffffffffffe0\n  2825: u64 [s1 + 0x180] = a0\n  2829: sp = a0\n  2831: a2 = 0x20170\n  2836: a0 = i32 [0x20170]\n  2841: jump @121 if a0 >u 63\n      : @120 (gas: 2)\n  2845: u32 [0x20170] = 0x40\n  2851: fallthrough\n      : @121 (gas: 43)\n  2852: u64 [s1 + 0x138] = a2\n  2856: a0 = sp + 0xffffffffffffffe0\n  2859: a2 = a0 & 0xffffffffffffffe0\n  2862: u64 [s1 + 0x168] = a2\n  2866: sp = a2\n  2868: a0 = 0x20180\n  2873: i32 a0 = a0 + 0\n  2875: i32 a2 = a2 + 0\n  2877: a1 = 0x40\n  2880: u64 [s1 + 0x148] = a0\n  2884: ecalli 8 // 'hash_keccak_256'\n  2886: a3 = u64 [s1 + 0x168]\n  2890: a0 = u64 [a3 + 0x18]\n  2893: a1 = u64 [a3 + 0x10]\n  2896: a2 = u64 [a3 + 0x8]\n  2899: a3 = u64 [a3]\n  2901: a0 = reverse a0\n  2903: a5 = reverse a1\n  2905: a2 = reverse a2\n  2907: t0 = reverse a3\n  2909: a4 = u64 [s1 + 0x180]\n  2913: u64 [a4 + 0x18] = t0\n  2916: u64 [a4 + 0x10] = a2\n  2919: u64 [a4 + 0x8] = a5\n  2922: u64 [a4] = a0\n  2924: a4 = sp + 0xffffffffffffffe0\n  2927: a1 = a4 & 0xffffffffffffffe0\n  2930: sp = a1\n  2932: a4 = a0 + 0x2\n  2935: a0 = a4 <u a0\n  2938: a3 = a5 + a0\n  2941: a5 = a3 <u a5\n  2944: a5 = a0 if a0 == 0\n  2947: a5 = a5 + a2\n  2950: a0 = a5 <u a2\n  2953: a0 = a0 + t0\n  2956: u64 [a1 + 0x10] = a5\n  2959: u64 [a1 + 0x8] = a3\n  2962: u64 [a1] = a4\n  2964: u64 [a1 + 0x18] = a0\n  2967: a0 = s1 + 0x1340\n  2971: u64 [s1 + 0x168] = a1\n  2975: ra = 68, jump @26\n      : @122 [@dyn 34] (gas: 25)\n  2980: a0 = s1 + 0x1118\n  2984: t1 = u64 [a0 + 0x240]\n  2988: t2 = u64 [a0 + 0x238]\n  2992: t0 = u64 [a0 + 0x230]\n  2996: a3 = u64 [a0 + 0x228]\n  3000: a0 = u64 [s1 + 0x198]\n  3004: a4 = t1 ^ a0\n  3007: a5 = t1 <u a0\n  3010: a1 = u64 [s1 + 0x178]\n  3014: a0 = t2 <u a1\n  3017: u64 [s1 + 0x158] = a0\n  3021: a5 = a0 if a4 == 0\n  3024: a0 = u64 [s1 + 0x190]\n  3028: ra = t0 ^ a0\n  3031: a0 = t0 <u a0\n  3034: a2 = u64 [s1 + 0x188]\n  3038: u64 [s1 + 0x160] = a3\n  3042: a2 = a3 <u a2\n  3045: u64 [s1 + 0x150] = a2\n  3049: a0 = a2 if ra == 0\n  3052: ra = a1\n  3054: a1 = t2 ^ a1\n  3057: a1 = a1 | a4\n  3060: a5 = a0 if a1 == 0\n  3063: jump @124 if a5 == 0\n      : @123 (gas: 1)\n  3066: jump @755\n      : @124 (gas: 24)\n  3069: a1 = t2 - ra\n  3072: a2 = u64 [s1 + 0x198]\n  3076: a2 = t1 - a2\n  3079: a3 = u64 [s1 + 0x158]\n  3083: a2 = a2 - a3\n  3086: a3 = a1 <u a0\n  3089: a2 = a2 - a3\n  3092: a1 = a1 - a0\n  3095: a0 = u64 [s1 + 0x190]\n  3099: a0 = t0 - a0\n  3102: a3 = u64 [s1 + 0x150]\n  3106: a0 = a0 - a3\n  3109: a3 = u64 [s1 + 0x160]\n  3113: a4 = u64 [s1 + 0x188]\n  3117: a3 = a3 - a4\n  3120: a4 = s1 + 0x2918\n  3124: a5 = a4 + 0x200\n  3128: u64 [a5 + 0x48] = a3\n  3131: u64 [a5 + 0x50] = a0\n  3134: u64 [a5 + 0x58] = a1\n  3137: u64 [a5 + 0x60] = a2\n  3140: a1 = s1 + 0x2b60\n  3144: a0 = u64 [s1 + 0x168]\n  3148: ra = 70, jump @28\n      : @125 [@dyn 35] (gas: 3)\n  3153: a0 = s1 + 0x1320\n  3157: a1 = u64 [s1 + 0x180]\n  3161: ra = 72, jump @26\n      : @126 [@dyn 36] (gas: 33)\n  3166: a2 = s1 + 0x1118\n  3170: a4 = a2 + 0x200\n  3174: a0 = u64 [a4 + 0x10]\n  3177: a1 = u64 [a4 + 0x8]\n  3180: t0 = u64 [a2 + 0x220]\n  3184: a3 = u64 [a4 + 0x18]\n  3187: a4 = u64 [s1 + 0x190]\n  3191: a4 = a4 + a0\n  3194: a5 = u64 [s1 + 0x188]\n  3198: a5 = a5 + a1\n  3201: a1 = a5 <u a1\n  3204: a4 = a4 + a1\n  3207: a2 = a4 ^ a0\n  3210: a0 = a4 <u a0\n  3213: a0 = a1 if a2 == 0\n  3216: a1 = u64 [s1 + 0x178]\n  3220: a1 = a1 + a3\n  3223: a2 = u64 [s1 + 0x198]\n  3227: t0 = t0 + a2\n  3230: a2 = a1 <u a3\n  3233: a2 = a2 + t0\n  3236: a0 = a0 + a1\n  3239: a1 = a0 <u a1\n  3242: a1 = a1 + a2\n  3245: a2 = s1 + 0x2918\n  3249: a3 = a2 + 0x200\n  3253: u64 [a3 + 0x68] = a5\n  3256: u64 [a3 + 0x70] = a4\n  3259: u64 [a3 + 0x78] = a0\n  3262: u64 [a3 + 0x80] = a1\n  3266: a1 = s1 + 0x2b80\n  3270: a0 = u64 [s1 + 0x180]\n  3274: ra = 74, jump @28\n      : @127 [@dyn 37] (gas: 3)\n  3279: a0 = s1 + 0x1300\n  3283: a1 = 0x40\n  3286: ra = 76, jump @22\n      : @128 [@dyn 38] (gas: 7)\n  3291: a4 = s1 + 0x1118\n  3295: a0 = u64 [a4 + 0x200]\n  3299: a5 = a4 + 0x100\n  3303: a1 = u64 [a5 + 0xf8]\n  3307: a2 = u64 [a5 + 0xf0]\n  3311: a3 = u64 [a5 + 0xe8]\n  3315: t0 = 78, jump @1491\n      : @129 [@dyn 39] (gas: 1)\n  3321: jump @131 if a0 == 0\n      : @130 (gas: 1)\n  3324: jump @745\n      : @131 (gas: 13)\n  3327: a0 = u64 [s1 + 0x188]\n  3331: a2 = a4 + 0x100\n  3335: u64 [a2 + 0xc8] = a0\n  3339: a0 = u64 [s1 + 0x190]\n  3343: u64 [a2 + 0xd0] = a0\n  3347: a0 = u64 [s1 + 0x178]\n  3351: u64 [a2 + 0xd8] = a0\n  3355: a1 = s1 + 0x12e0\n  3359: a0 = u64 [s1 + 0x198]\n  3363: u64 [a2 + 0xe0] = a0\n  3367: a0 = a3\n  3369: u64 [s1 + 0x198] = a3\n  3373: ra = 80, jump @24\n      : @132 [@dyn 40] (gas: 6)\n  3378: a0 = u64 [s1 + 0x140]\n  3382: ra = 0x52\n  3385: ecalli 4 // 'caller'\n  3387: a2 = u64 [s1 + 0x170]\n  3391: t0 = 0x54\n  3394: jump @1471\n      : @133 [@dyn 41] (gas: 2)\n  3398: a2 = u64 [s1 + 0x170]\n  3402: t0 = 84, jump @1471\n      : @134 [@dyn 42] (gas: 26)\n  3408: t0 = a1 | a0\n  3411: a3 = a3 >> 0x20\n  3414: a2 = reverse a2\n  3416: a1 = a2 << 0x20\n  3419: a1 = a1 | a3\n  3422: a2 = a2 >> 0x20\n  3425: a3 = u64 [0x20080]\n  3430: a0 = s1 + 0x1118\n  3434: u64 [a0 + 0x1c0] = a3\n  3438: a3 = u64 [0x20088]\n  3443: a4 = u64 [0x20090]\n  3448: a5 = u64 [0x20098]\n  3453: u64 [a0 + 0x1b8] = a3\n  3457: a3 = a0 + 0x100\n  3461: u64 [a3 + 0xb0] = a4\n  3465: u64 [a0 + 416] = 0\n  3469: u64 [a3 + 0xa8] = a5\n  3473: u64 [a3 + 0x98] = a2\n  3477: u64 [a3 + 0x90] = a1\n  3481: a1 = 0x20\n  3484: a2 = s1 + 0x12c0\n  3488: a3 = s1 + 0x12a0\n  3492: u64 [a0 + 0x188] = t0\n  3496: a0 = u64 [s1 + 0x198]\n  3500: ra = 0x144\n  3504: jump @29\n      : @135 (gas: 10)\n  3507: u64 [a2 + 1696] = 0\n  3511: u64 [a2 + 1688] = 0\n  3515: u64 [a2 + 1680] = 0\n  3519: u64 [a2 + 1672] = 0\n  3523: a0 = s1 + 0x2000\n  3527: i32 a0 = a0 + 0x7a0\n  3531: ra = 0x56\n  3534: ecalli 16 // 'value_transferred'\n  3536: t0 = 0x58\n  3539: jump @1543\n      : @136 [@dyn 43] (gas: 1)\n  3543: t0 = 88, jump @1543\n      : @137 [@dyn 44] (gas: 1)\n  3549: t0 = 90, jump @1518\n      : @138 [@dyn 45] (gas: 1)\n  3555: jump @140 if a0 == 0\n      : @139 (gas: 1)\n  3558: jump @759\n      : @140 (gas: 3)\n  3561: a0 = u64 [s1 + 0x198]\n  3565: a0 = i32 [a0]\n  3567: jump @142 if a0 >u 3\n      : @141 (gas: 1)\n  3571: jump @760\n      : @142 (gas: 17)\n  3574: a0 = s1 + 0x2000\n  3578: i32 a0 = a0 + 0x7c0\n  3582: ecalli 9 // 'now'\n  3584: a0 = s1 + 0x2118\n  3588: a2 = a0 + 0x600\n  3592: a1 = u64 [a2 + 0xc0]\n  3596: a3 = s1 + 0x100\n  3600: u64 [a3 + 0x58] = a1\n  3603: a1 = u64 [a2 + 0xb8]\n  3607: u64 [a3 + 0x50] = a1\n  3610: a1 = u64 [a2 + 0xb0]\n  3614: u64 [a3 + 0x98] = a1\n  3618: a0 = u64 [a2 + 0xa8]\n  3622: u64 [a3 + 0x90] = a0\n  3626: a0 = s1 + 0x3e0\n  3630: a1 = 0x40\n  3633: ra = 92, jump @22\n      : @143 [@dyn 46] (gas: 6)\n  3638: a4 = s1 + 0x300\n  3642: a0 = u64 [a4 + 0xf8]\n  3646: a1 = u64 [a4 + 0xf0]\n  3650: a2 = u64 [a4 + 0xe8]\n  3654: a3 = u64 [a4 + 0xe0]\n  3658: t0 = 94, jump @1491\n      : @144 [@dyn 47] (gas: 1)\n  3664: jump @146 if a0 == 0\n      : @145 (gas: 1)\n  3667: jump @745\n      : @146 (gas: 46)\n  3670: u64 [s1 + 0x118] = a3\n  3674: t1 = u64 [s1 + 0x150]\n  3678: a0 = clz t1\n  3680: a0 = a0 + 0x40\n  3683: ra = u64 [s1 + 0x158]\n  3687: a2 = clz ra\n  3689: a2 = a0 if ra == 0\n  3692: t2 = u64 [s1 + 0x190]\n  3696: a0 = clz t2\n  3698: a0 = a0 + 0x40\n  3701: t0 = u64 [s1 + 0x198]\n  3705: a1 = clz t0\n  3707: a1 = a0 if t0 == 0\n  3710: a0 = a1 + 0x80\n  3714: a3 = t1 | ra\n  3717: a2 = a0 if a3 == 0\n  3720: a5 = a0 <u a1\n  3723: a5 = 0 if a3 != 0\n  3725: a4 = a5 >u 0\n  3727: a0 = a2 <u 0xf0\n  3731: a3 = a0 ^ 0x1\n  3734: a4 = a3 if a5 == 0\n  3737: a0 = a4 <u 0x1\n  3740: a0 = a0 + 0xffffffffffffffff\n  3743: a1 = -a4\n  3745: a5 = -a5\n  3747: a3 = a5 - a3\n  3750: a2 = 0xef - a2\n  3754: u64 [s1 + 0x178] = a1\n  3758: a5 = a1 >u 0\n  3760: a1 = a0 >u 0\n  3762: a1 = a5 if a0 == 0\n  3765: a5 = a3 >u 0\n  3767: u64 [s1 + 0x168] = a2\n  3771: a2 = a2 <u 0x100\n  3775: a2 = a2 ^ 0x1\n  3778: a2 = a5 if a3 != 0\n  3781: a2 = a1 if a4 != 0\n  3784: a1 = t2 | t1\n  3787: a4 = t0 | ra\n  3790: a1 = a1 | a4\n  3793: a1 = a1 <u 0x1\n  3796: a1 = a1 | a2\n  3799: a4 = t2\n  3801: a4 = 0 if a1 != 0\n  3803: jump @148 if a1 == 0\n      : @147 (gas: 1)\n  3806: jump @840\n      : @148 (gas: 7)\n  3809: a1 = u64 [s1 + 0x168]\n  3813: a1 = a1 ^ 0xff\n  3817: a2 = u64 [s1 + 0x178]\n  3821: a1 = a1 | a2\n  3824: a2 = a3 | a0\n  3827: a1 = a1 | a2\n  3830: jump @150 if a1 != 0\n      : @149 (gas: 1)\n  3833: jump @840\n      : @150 (gas: 20)\n  3836: a4 = u64 [s1 + 0x168]\n  3840: a2 = a4 + 0x1\n  3843: u64 [s1 + 0x188] = a2\n  3847: a1 = a2 <u 0x1\n  3850: a1 = a1 + a3\n  3853: u64 [s1 + 0x180] = a1\n  3857: a1 = a1 | a2\n  3860: a1 = a1 <u 0x1\n  3863: a3 = u64 [s1 + 0x178]\n  3867: a1 = a1 + a3\n  3870: u64 [s1 + 0x170] = a1\n  3874: a1 = a1 <u a3\n  3877: a0 = a0 + a1\n  3880: u64 [s1 + 0x178] = a0\n  3884: a1 = 0xff - a4\n  3888: u64 [s1 + 0x140] = a1\n  3892: a2 = 0x80 - a1\n  3896: a0 = u64 [s1 + 0x190]\n  3900: a1 = u64 [s1 + 0x198]\n  3904: ra = 96, jump @1552\n      : @151 [@dyn 48] (gas: 6)\n  3910: u64 [s1 + 0x138] = a0\n  3914: u64 [s1 + 0x148] = a1\n  3918: a0 = u64 [s1 + 0x150]\n  3922: a1 = u64 [s1 + 0x158]\n  3926: a2 = u64 [s1 + 0x140]\n  3930: ra = 98, jump @1557\n      : @152 [@dyn 49] (gas: 7)\n  3936: u64 [s1 + 0x130] = a0\n  3940: u64 [s1 + 0x128] = a1\n  3944: a0 = u64 [s1 + 0x140]\n  3948: a2 = a0 + 0xffffffffffffff80\n  3951: a0 = u64 [s1 + 0x190]\n  3955: a1 = u64 [s1 + 0x198]\n  3959: ra = 100, jump @1557\n      : @153 [@dyn 50] (gas: 8)\n  3965: u64 [s1 + 0x120] = a0\n  3969: u64 [s1 + 0x110] = a1\n  3973: a2 = u64 [s1 + 0x140]\n  3977: a0 = a2 <u 0x80\n  3981: u64 [s1 + 0x108] = a0\n  3985: a0 = u64 [s1 + 0x190]\n  3989: a1 = u64 [s1 + 0x198]\n  3993: ra = 102, jump @1557\n      : @154 [@dyn 51] (gas: 13)\n  3999: a4 = s1 + 0x100\n  4003: u64 [a4 + 0x60] = a1\n  4006: a1 = u64 [a4 + 0x80]\n  4010: a2 = u64 [a4 + 0x78]\n  4013: a2 = a2 | a1\n  4016: a1 = u64 [a4 + 0x88]\n  4020: a3 = u64 [a4 + 0x70]\n  4023: a1 = a1 | a3\n  4026: a1 = a1 | a2\n  4029: a3 = u64 [a4 + 0x8]\n  4032: a0 = 0 if a3 == 0\n  4034: u64 [a4 + 0x68] = a0\n  4037: jump @156 if a1 != 0\n      : @155 (gas: 1)\n  4040: jump @838\n      : @156 (gas: 30)\n  4043: a2 = a3\n  4045: a0 = u64 [s1 + 0x148]\n  4049: a1 = u64 [s1 + 0x128]\n  4053: a0 = a0 | a1\n  4056: a5 = a3\n  4058: a1 = u64 [s1 + 0x110]\n  4062: a0 = a1 if a2 == 0\n  4065: a2 = u64 [s1 + 0x158]\n  4069: a3 = a2\n  4071: a1 = a2\n  4073: a2 = u64 [s1 + 0x140]\n  4077: a3 = a0 if a2 != 0\n  4080: u64 [s1 + 0x148] = a3\n  4084: a0 = u64 [s1 + 0x138]\n  4088: a3 = u64 [s1 + 0x130]\n  4092: a0 = a0 | a3\n  4095: a3 = u64 [s1 + 0x120]\n  4099: a0 = a3 if a5 == 0\n  4102: a4 = u64 [s1 + 0x150]\n  4106: a3 = a4\n  4108: a3 = a0 if a2 != 0\n  4111: u64 [s1 + 0x140] = a3\n  4115: a0 = u64 [s1 + 0x160]\n  4119: a0 = 0 if a5 == 0\n  4121: u64 [s1 + 0x160] = a0\n  4125: u64 [s1 + 304] = 0x15180\n  4132: a0 = u64 [s1 + 0x188]\n  4136: a2 = a0 + 0xffffffffffffff80\n  4139: a0 = a4\n  4141: ra = 104, jump @1552\n      : @157 [@dyn 52] (gas: 6)\n  4147: u64 [s1 + 0x138] = a0\n  4151: u64 [s1 + 0x120] = a1\n  4155: a0 = u64 [s1 + 0x190]\n  4159: a1 = u64 [s1 + 0x198]\n  4163: a2 = u64 [s1 + 0x188]\n  4167: ra = 106, jump @1552\n      : @158 [@dyn 53] (gas: 7)\n  4173: u64 [s1 + 0x110] = a0\n  4177: u64 [s1 + 0x128] = a1\n  4181: a1 = u64 [s1 + 0x188]\n  4185: a2 = 0x80 - a1\n  4189: a0 = u64 [s1 + 0x150]\n  4193: a1 = u64 [s1 + 0x158]\n  4197: ra = 108, jump @1557\n      : @159 [@dyn 54] (gas: 20)\n  4203: a2 = u64 [s1 + 0x128]\n  4207: a1 = a1 | a2\n  4210: a2 = u64 [s1 + 0x188]\n  4214: a3 = a2 <u 0x80\n  4218: u64 [s1 + 0x128] = a3\n  4222: a4 = u64 [s1 + 0x120]\n  4226: a1 = a4 if a3 == 0\n  4229: a4 = u64 [s1 + 0x198]\n  4233: a4 = a1 if a2 != 0\n  4236: u64 [s1 + 0x198] = a4\n  4240: a1 = u64 [s1 + 0x110]\n  4244: a0 = a0 | a1\n  4247: a1 = u64 [s1 + 0x138]\n  4251: a0 = a1 if a3 == 0\n  4254: a1 = u64 [s1 + 0x190]\n  4258: a1 = a0 if a2 != 0\n  4261: u64 [s1 + 0x190] = a1\n  4265: a0 = u64 [s1 + 0x150]\n  4269: a1 = u64 [s1 + 0x158]\n  4273: ra = 110, jump @1552\n      : @160 [@dyn 55] (gas: 16)\n  4279: t2 = u64 [s1 + 0x190]\n  4283: t1 = u64 [s1 + 0x198]\n  4287: u64 [s1 + 344] = 0\n  4291: u64 [s1 + 336] = 0\n  4295: a4 = s1 + 0x100\n  4299: a2 = u64 [a4 + 0x28]\n  4302: a1 = 0 if a2 == 0\n  4304: a0 = 0 if a2 == 0\n  4306: u64 [a4 + 0x38] = a0\n  4309: a3 = u64 [a4 + 0x30]\n  4312: a2 = a3 + 0xffffffffffffffff\n  4315: u64 [a4 + 0x28] = a2\n  4318: a2 = a3 >u 0\n  4320: a2 = a2 + 0xffffffffffffffff\n  4323: u64 [a4 + 0x20] = a2\n  4326: fallthrough\n      : @161 (gas: 89)\n  4327: a2 = t2 >> 0x3f\n  4330: a3 = t1 << 0x1\n  4333: a2 = a2 | a3\n  4336: a3 = t2 << 0x1\n  4339: t2 = u64 [s1 + 0x148]\n  4343: a4 = t2 >> 0x3f\n  4346: a3 = a3 | a4\n  4349: u64 [s1 + 0x198] = a3\n  4353: ra = u64 [s1 + 0x120]\n  4357: a0 = t1\n  4359: t1 = ra ^ a2\n  4362: t0 = ra <u a2\n  4365: a4 = u64 [s1 + 0x128]\n  4369: a5 = a4 <u a3\n  4372: a5 = t0 if t1 != 0\n  4375: a1 = a1 << 0x1\n  4378: a4 = u64 [s1 + 0x138]\n  4382: a3 = a4 >> 0x3f\n  4385: a1 = a1 | a3\n  4388: u64 [s1 + 0x190] = a1\n  4392: a3 = a0 >> 0x3f\n  4395: a0 = a4 << 0x1\n  4398: a3 = a3 | a0\n  4401: a0 = t2 << 0x1\n  4404: a4 = u64 [s1 + 0x140]\n  4408: a1 = a4 >> 0x3f\n  4411: t0 = a0 | a1\n  4414: a1 = a4 << 0x1\n  4417: a4 = u64 [s1 + 0x160]\n  4421: t1 = a4 >> 0x3f\n  4424: t1 = a1 | t1\n  4427: a1 = a4 << 0x1\n  4430: a4 = u64 [s1 + 0x168]\n  4434: t2 = a4 >> 0x3f\n  4437: a1 = a1 | t2\n  4440: a4 = a4 << 0x1\n  4443: a0 = u64 [s1 + 0x158]\n  4447: a4 = a4 | a0\n  4450: u64 [s1 + 0x168] = a4\n  4454: a0 = u64 [s1 + 0x150]\n  4458: a1 = a1 | a0\n  4461: u64 [s1 + 0x160] = a1\n  4465: a1 = a0 | t1\n  4468: u64 [s1 + 0x140] = a1\n  4472: a0 = a0 | t0\n  4475: u64 [s1 + 0x148] = a0\n  4479: a0 = ra - a3\n  4482: a0 = a0 <u a5\n  4485: a1 = ra <u a3\n  4488: a5 = u64 [s1 + 0x190]\n  4492: a4 = ra - a5\n  4495: a4 = a4 - a1\n  4498: a4 = a4 - a0\n  4501: ra = a4 >>a 0x3f\n  4504: a0 = u64 [s1 + 0x130]\n  4508: a0 = ra & a0\n  4511: a1 = u64 [s1 + 0x198]\n  4515: t2 = a1 - a0\n  4518: a1 = a1 <u a0\n  4521: t1 = a2 - a1\n  4524: a1 = 0 if a2 != 0\n  4526: a0 = a3 - a1\n  4529: u64 [s1 + 0x138] = a0\n  4533: a1 = a3 <u a1\n  4536: a1 = a5 - a1\n  4539: a0 = s1 + 0x100\n  4543: a3 = u64 [a0 + 0x88]\n  4547: a5 = u64 [a0 + 0x80]\n  4551: a2 = a3 | a5\n  4554: a2 = a2 <u 0x1\n  4557: a4 = u64 [a0 + 0x70]\n  4560: t0 = a4 <u a2\n  4563: a2 = a4 - a2\n  4566: a4 = a3 <u 0x1\n  4569: a5 = a5 - a4\n  4572: a4 = u64 [a0 + 0x78]\n  4575: a4 = a4 - t0\n  4578: a3 = a3 + 0xffffffffffffffff\n  4581: u64 [a0 + 0x80] = a5\n  4585: u64 [a0 + 0x78] = a4\n  4588: t0 = a5 | a4\n  4591: u64 [a0 + 0x88] = a3\n  4595: a4 = a3 | a2\n  4598: a3 = a4 | t0\n  4601: a4 = ra & 0x1\n  4604: u64 [a0 + 0x58] = a4\n  4607: u64 [a0 + 0x70] = a2\n  4610: u64 [s1 + 336] = 0\n  4614: jump @161 if a3 != 0\n      : @162 (gas: 1)\n  4618: jump @839\n      : @163 (gas: 10)\n  4621: u64 [a2 + 1760] = 0\n  4625: u64 [a2 + 1752] = 0\n  4629: u64 [a2 + 1744] = 0\n  4633: u64 [a2 + 1736] = 0\n  4637: a0 = s1 + 0x2000\n  4641: i32 a0 = a0 + 0x7e0\n  4645: ra = 0x70\n  4648: ecalli 16 // 'value_transferred'\n  4650: t0 = 0x72\n  4653: jump @1543\n      : @164 [@dyn 56] (gas: 1)\n  4657: t0 = 114, jump @1543\n      : @165 [@dyn 57] (gas: 1)\n  4663: t0 = 116, jump @1514\n      : @166 [@dyn 58] (gas: 1)\n  4669: jump @168 if a0 == 0\n      : @167 (gas: 1)\n  4672: jump @761\n      : @168 (gas: 1)\n  4675: t0 = 118, jump @1532\n      : @169 [@dyn 59] (gas: 1)\n  4681: jump @171 if a1 <u a0\n      : @170 (gas: 1)\n  4684: jump @762\n      : @171 (gas: 6)\n  4687: a0 = s1 + 0x3000\n  4691: i32 a0 = a0 + 0xfffffffffffff800\n  4695: a1 = 0x4\n  4698: ra = 0x78\n  4701: ecalli 2 // 'call_data_load'\n  4703: fallthrough\n      : @172 [@dyn 60] (gas: 7)\n  4704: a0 = s1 + 0x2118\n  4708: a1 = u64 [a0 + 0x700]\n  4712: a5 = a0 + 0x600\n  4716: a2 = u64 [a5 + 0xf8]\n  4720: a3 = u64 [a5 + 0xf0]\n  4724: a4 = u64 [a5 + 0xe8]\n  4728: t0 = 122, jump @1499\n      : @173 [@dyn 61] (gas: 1)\n  4734: jump @175 if a0 != 0\n      : @174 (gas: 1)\n  4737: jump @763\n      : @175 (gas: 8)\n  4740: a0 = 0x30180\n  4745: u64 [s1 + 0x180] = a0\n  4749: i32 a0 = a0 + 0\n  4751: u64 [s1 + 0x168] = a0\n  4755: ra = 0x7c\n  4758: ecalli 4 // 'caller'\n  4760: t0 = 0x7e\n  4763: jump @1475\n      : @176 [@dyn 62] (gas: 1)\n  4767: t0 = 126, jump @1475\n      : @177 [@dyn 63] (gas: 8)\n  4773: u64 [s1 + 1368] = 0\n  4777: a2 = s1 + 0x500\n  4781: u64 [a2 + 0x50] = a1\n  4784: u64 [a2 + 0x48] = a0\n  4787: a1 = s1 + 0x540\n  4791: u64 [a2 + 0x40] = a3\n  4794: a0 = 0\n  4796: ra = 128, jump @24\n      : @178 [@dyn 64] (gas: 7)\n  4802: u64 [s1 + 1336] = 0\n  4806: u64 [s1 + 1328] = 0\n  4810: u64 [s1 + 1320] = 0\n  4814: a0 = 0x20\n  4817: a1 = s1 + 0x520\n  4821: u64 [s1 + 1312] = 0\n  4825: ra = 130, jump @24\n      : @179 [@dyn 65] (gas: 7)\n  4831: a0 = sp + 0xffffffffffffffe0\n  4834: a0 = a0 & 0xffffffffffffffe0\n  4837: u64 [s1 + 0x170] = a0\n  4841: sp = a0\n  4843: a2 = 0x20170\n  4848: a0 = i32 [0x20170]\n  4853: jump @181 if a0 >u 63\n      : @180 (gas: 2)\n  4857: u32 [0x20170] = 0x40\n  4863: fallthrough\n      : @181 (gas: 15)\n  4864: u64 [s1 + 0x140] = a2\n  4868: a0 = sp + 0xffffffffffffffe0\n  4871: a2 = a0 & 0xffffffffffffffe0\n  4874: u64 [s1 + 0x160] = a2\n  4878: sp = a2\n  4880: a0 = 0x20180\n  4885: i32 a0 = a0 + 0\n  4887: i32 a2 = a2 + 0\n  4889: a1 = 0x40\n  4892: u64 [s1 + 0x148] = a0\n  4896: ra = 0x84\n  4900: ecalli 8 // 'hash_keccak_256'\n  4902: a3 = u64 [s1 + 0x160]\n  4906: t0 = 0x86\n  4910: jump @1496\n      : @182 [@dyn 66] (gas: 2)\n  4914: a3 = u64 [s1 + 0x160]\n  4918: t0 = 134, jump @1496\n      : @183 [@dyn 67] (gas: 2)\n  4925: a0 = s1 + 0x500\n  4929: ra = 136, jump @26\n      : @184 [@dyn 68] (gas: 24)\n  4935: t1 = u64 [s1 + 0x518]\n  4939: t2 = u64 [s1 + 0x510]\n  4943: t0 = u64 [s1 + 0x508]\n  4947: a3 = u64 [s1 + 0x500]\n  4951: a0 = u64 [s1 + 0x198]\n  4955: a4 = t1 ^ a0\n  4958: a5 = t1 <u a0\n  4961: a1 = u64 [s1 + 0x178]\n  4965: a0 = t2 <u a1\n  4968: u64 [s1 + 0x158] = a0\n  4972: a5 = a0 if a4 == 0\n  4975: a0 = u64 [s1 + 0x190]\n  4979: ra = t0 ^ a0\n  4982: a0 = t0 <u a0\n  4985: a2 = u64 [s1 + 0x188]\n  4989: u64 [s1 + 0x160] = a3\n  4993: a2 = a3 <u a2\n  4996: u64 [s1 + 0x150] = a2\n  5000: a0 = a2 if ra == 0\n  5003: ra = a1\n  5005: a1 = t2 ^ a1\n  5008: a1 = a1 | a4\n  5011: a5 = a0 if a1 == 0\n  5014: jump @186 if a5 == 0\n      : @185 (gas: 1)\n  5017: jump @767\n      : @186 (gas: 11)\n  5020: a1 = t2 - ra\n  5023: a2 = u64 [s1 + 0x198]\n  5027: a2 = t1 - a2\n  5030: a3 = u64 [s1 + 0x158]\n  5034: a2 = a2 - a3\n  5037: a3 = a1 <u a0\n  5040: a2 = a2 - a3\n  5043: a1 = a1 - a0\n  5046: a0 = u64 [s1 + 0x190]\n  5050: a0 = t0 - a0\n  5053: t0 = 138, jump @1505\n      : @187 [@dyn 69] (gas: 7)\n  5060: u64 [a5 + 0x8] = a3\n  5063: u64 [a5 + 0x10] = a0\n  5066: u64 [a5 + 0x18] = a1\n  5069: u64 [a5 + 0x20] = a2\n  5072: a1 = s1 + 0x2820\n  5076: a0 = u64 [s1 + 0x170]\n  5080: ra = 140, jump @28\n      : @188 [@dyn 70] (gas: 5)\n  5086: a0 = u64 [s1 + 0x168]\n  5090: ra = 0x8e\n  5094: ecalli 4 // 'caller'\n  5096: t0 = 0x90\n  5100: jump @1486\n      : @189 [@dyn 71] (gas: 1)\n  5104: t0 = 144, jump @1486\n      : @190 [@dyn 72] (gas: 14)\n  5111: u64 [s1 + 0x4d8] = a2\n  5115: a2 = u64 [a4 + 0x78]\n  5118: u64 [s1 + 0x4d0] = a2\n  5122: a2 = u64 [a4 + 0x90]\n  5126: u64 [s1 + 0x4c8] = a2\n  5130: a2 = u64 [a4 + 0x88]\n  5134: u64 [s1 + 0x4c0] = a2\n  5138: u64 [s1 + 1272] = 0\n  5142: u64 [s1 + 0x4f0] = a1\n  5146: u64 [s1 + 0x4e8] = a0\n  5150: a0 = s1 + 0x4e0\n  5154: a1 = s1 + 0x4c0\n  5158: u64 [s1 + 0x4e0] = a3\n  5162: ra = 146, jump @1445\n      : @191 [@dyn 73] (gas: 3)\n  5169: a0 = s1 + 0x4a0\n  5173: a1 = 0x40\n  5176: ra = 148, jump @22\n      : @192 [@dyn 74] (gas: 6)\n  5182: a4 = s1 + 0x400\n  5186: a0 = u64 [a4 + 0xb8]\n  5190: a1 = u64 [a4 + 0xb0]\n  5194: a2 = u64 [a4 + 0xa8]\n  5198: a3 = u64 [a4 + 0xa0]\n  5202: t0 = 150, jump @1491\n      : @193 [@dyn 75] (gas: 1)\n  5209: jump @195 if a0 == 0\n      : @194 (gas: 1)\n  5212: jump @745\n      : @195 (gas: 12)\n  5215: a0 = u64 [s1 + 0x188]\n  5219: u64 [s1 + 0x480] = a0\n  5223: a0 = u64 [s1 + 0x190]\n  5227: u64 [s1 + 0x488] = a0\n  5231: a0 = u64 [s1 + 0x178]\n  5235: u64 [s1 + 0x490] = a0\n  5239: a1 = s1 + 0x480\n  5243: a0 = u64 [s1 + 0x198]\n  5247: u64 [s1 + 0x498] = a0\n  5251: a0 = a3\n  5253: u64 [s1 + 0x198] = a3\n  5257: ra = 152, jump @24\n      : @196 [@dyn 76] (gas: 6)\n  5263: a0 = u64 [s1 + 0x168]\n  5267: ra = 0x9a\n  5271: ecalli 4 // 'caller'\n  5273: a2 = u64 [s1 + 0x180]\n  5277: t0 = 0x9c\n  5281: jump @1471\n      : @197 [@dyn 77] (gas: 2)\n  5285: a2 = u64 [s1 + 0x180]\n  5289: t0 = 156, jump @1471\n      : @198 [@dyn 78] (gas: 25)\n  5296: t0 = a1 | a0\n  5299: a3 = a3 >> 0x20\n  5302: a2 = reverse a2\n  5304: a1 = a2 << 0x20\n  5307: a1 = a1 | a3\n  5310: a2 = a2 >> 0x20\n  5313: u64 [s1 + 1112] = 0\n  5317: a3 = u64 [0x200f8]\n  5322: a4 = u64 [0x20100]\n  5327: a5 = u64 [0x20108]\n  5332: a0 = u64 [0x20110]\n  5337: u64 [s1 + 0x478] = a3\n  5341: a3 = s1 + 0x400\n  5345: u64 [a3 + 0x70] = a4\n  5348: u64 [a3 + 0x68] = a5\n  5351: u64 [a3 + 0x60] = a0\n  5354: u64 [a3 + 0x50] = a2\n  5357: u64 [a3 + 0x48] = a1\n  5360: a1 = 0x20\n  5363: a2 = s1 + 0x460\n  5367: a3 = s1 + 0x440\n  5371: u64 [s1 + 0x440] = t0\n  5375: a0 = u64 [s1 + 0x198]\n  5379: ra = 0x144\n  5383: jump @29\n      : @199 (gas: 3)\n  5386: a0 = u64 [s1 + 0x198]\n  5390: a0 = i32 [a0]\n  5392: jump @201 if a0 >u 3\n      : @200 (gas: 1)\n  5396: jump @768\n      : @201 (gas: 10)\n  5399: a0 = s1 + 0x2918\n  5403: u64 [a0 + 1504] = 0\n  5407: u64 [a0 + 1496] = 0\n  5411: u64 [a0 + 1488] = 0\n  5415: u64 [a0 + 1480] = 0\n  5419: a0 = s1 + 0x3000\n  5423: i32 a0 = a0 + 0xfffffffffffffee0\n  5427: ra = 0x9e\n  5431: ecalli 16 // 'value_transferred'\n  5433: fallthrough\n      : @202 [@dyn 79] (gas: 3)\n  5434: a3 = s1 + 0x2918\n  5438: a4 = a3 + 0x500\n  5442: t0 = 160, jump @1514\n      : @203 [@dyn 80] (gas: 1)\n  5449: jump @205 if a0 != 0\n      : @204 (gas: 1)\n  5452: jump @769\n      : @205 (gas: 9)\n  5455: a0 = 0x30180\n  5460: u64 [s1 + 0x180] = a0\n  5464: i32 a0 = a0 + 0\n  5466: u64 [s1 + 0x158] = a0\n  5470: ra = 0xa2\n  5474: ecalli 4 // 'caller'\n  5476: a2 = u64 [s1 + 0x180]\n  5480: t0 = 0xa4\n  5484: jump @1473\n      : @206 [@dyn 81] (gas: 2)\n  5488: a2 = u64 [s1 + 0x180]\n  5492: t0 = 164, jump @1473\n      : @207 [@dyn 82] (gas: 8)\n  5499: u64 [a2 + 1408] = 0\n  5503: a4 = a2 + 0x500\n  5507: u64 [a4 + 0x78] = a1\n  5510: u64 [a4 + 0x70] = a0\n  5513: a1 = s1 + 0x2680\n  5517: u64 [a4 + 0x68] = a3\n  5520: a0 = 0\n  5522: ra = 166, jump @24\n      : @208 [@dyn 83] (gas: 9)\n  5528: a0 = s1 + 0x2118\n  5532: u64 [a0 + 1376] = 0\n  5536: u64 [a0 + 1368] = 0\n  5540: u64 [a0 + 1360] = 0\n  5544: a2 = a0\n  5546: a0 = 0x20\n  5549: a1 = s1 + 0x2660\n  5553: u64 [a2 + 1352] = 0\n  5557: ra = 168, jump @24\n      : @209 [@dyn 84] (gas: 1)\n  5563: t0 = 170, jump @1522\n      : @210 [@dyn 85] (gas: 4)\n  5570: a2 = 0x20170\n  5575: a0 = i32 [0x20170]\n  5580: a1 = 0x3f\n  5583: jump @212 if a1 <u a0\n      : @211 (gas: 4)\n  5586: u32 [0x20170] = 0x40\n  5592: u64 [s1 + 0x150] = a2\n  5596: t0 = 0xac\n  5600: jump @1540\n      : @212 (gas: 2)\n  5604: u64 [s1 + 0x150] = a2\n  5608: t0 = 172, jump @1540\n      : @213 [@dyn 86] (gas: 9)\n  5615: a0 = 0x20180\n  5620: i32 a0 = a0 + 0\n  5622: i32 a2 = a2 + 0\n  5624: a1 = 0x40\n  5627: u64 [s1 + 0x160] = a0\n  5631: ra = 0xae\n  5635: ecalli 8 // 'hash_keccak_256'\n  5637: t0 = 0xb0\n  5641: jump @1487\n      : @214 [@dyn 87] (gas: 1)\n  5645: t0 = 176, jump @1487\n      : @215 [@dyn 88] (gas: 3)\n  5652: i32 a0 = a0 + 0x640\n  5656: a0 = a0 + s1\n  5659: ra = 178, jump @26\n      : @216 [@dyn 89] (gas: 11)\n  5665: a0 = s1 + 0x2118\n  5669: a2 = a0 + 0x500\n  5673: a1 = u64 [a2 + 0x40]\n  5676: u64 [s1 + 0x170] = a1\n  5680: a1 = u64 [a2 + 0x38]\n  5683: u64 [s1 + 0x190] = a1\n  5687: a1 = u64 [a2 + 0x28]\n  5690: u64 [s1 + 0x168] = a1\n  5694: a0 = u64 [a2 + 0x30]\n  5697: u64 [s1 + 0x188] = a0\n  5701: t0 = 180, jump @1523\n      : @217 [@dyn 90] (gas: 9)\n  5708: a0 = s1 + 0x2918\n  5712: u64 [a0 + 1536] = 0\n  5716: u64 [a0 + 1528] = 0\n  5720: u64 [a0 + 1520] = 0\n  5724: u64 [a0 + 1512] = 0\n  5728: a0 = s1 + 0x3000\n  5732: i32 a0 = a0 + 0xffffffffffffff00\n  5736: ecalli 16 // 'value_transferred'\n  5738: fallthrough\n      : @218 (gas: 43)\n  5739: a0 = s1 + 0x2918\n  5743: a3 = a0 + 0x500\n  5747: a2 = u64 [a3 + 0xf0]\n  5751: a1 = u64 [a3 + 0xe8]\n  5755: t0 = u64 [a0 + 0x600]\n  5759: a4 = u64 [a3 + 0xf8]\n  5763: a5 = u64 [s1 + 0x188]\n  5767: a5 = a5 + a2\n  5770: a0 = u64 [s1 + 0x168]\n  5774: t1 = a1 + a0\n  5777: a1 = t1 <u a1\n  5780: a5 = a5 + a1\n  5783: a3 = a5 ^ a2\n  5786: a2 = a5 <u a2\n  5789: a2 = a1 if a3 == 0\n  5792: a1 = u64 [s1 + 0x190]\n  5796: a1 = a1 + a4\n  5799: ra = u64 [s1 + 0x170]\n  5803: t0 = t0 + ra\n  5806: a3 = a1 <u a4\n  5809: a3 = a3 + t0\n  5812: a2 = a2 + a1\n  5815: a1 = a2 <u a1\n  5818: t2 = a3 + a1\n  5821: a3 = u64 [s1 + 0x188]\n  5825: a1 = a3 ^ a5\n  5828: a4 = a5 <u a3\n  5831: a0 = t1 <u a0\n  5834: a0 = a4 if a1 != 0\n  5837: a3 = u64 [s1 + 0x190]\n  5841: t0 = a2 <u a3\n  5844: a4 = ra ^ t2\n  5847: a1 = t2 <u ra\n  5850: a1 = t0 if a4 == 0\n  5853: a3 = a3 ^ a2\n  5856: a3 = a3 | a4\n  5859: a0 = a1 if a3 != 0\n  5862: a1 = u64 [s1 + 0x178]\n  5866: u64 [a1] = t1\n  5868: u64 [a1 + 0x8] = a5\n  5871: u64 [a1 + 0x10] = a2\n  5874: u64 [a1 + 0x18] = t2\n  5877: jump @220 if a0 == 0\n      : @219 (gas: 1)\n  5880: jump @773\n      : @220 (gas: 2)\n  5883: a0 = u64 [s1 + 0x198]\n  5887: ra = 182, jump @28\n      : @221 [@dyn 91] (gas: 3)\n  5893: a0 = s1 + 0x2620\n  5897: a1 = 0x40\n  5900: ra = 184, jump @22\n      : @222 [@dyn 92] (gas: 19)\n  5906: a0 = s1 + 0x2118\n  5910: a2 = a0 + 0x500\n  5914: a1 = u64 [a2 + 0x20]\n  5917: u64 [s1 + 0x190] = a1\n  5921: a1 = u64 [a2 + 0x18]\n  5924: u64 [s1 + 0x188] = a1\n  5928: a1 = u64 [a2 + 0x10]\n  5931: u64 [s1 + 0x178] = a1\n  5935: a0 = u64 [a2 + 0x8]\n  5938: u64 [s1 + 0x198] = a0\n  5942: a0 = s1 + 0x2918\n  5946: u64 [a0 + 1568] = 0\n  5950: u64 [a0 + 1560] = 0\n  5954: u64 [a0 + 1552] = 0\n  5958: u64 [a0 + 1544] = 0\n  5962: a0 = s1 + 0x3000\n  5966: i32 a0 = a0 + 0xffffffffffffff20\n  5970: ecalli 16 // 'value_transferred'\n  5972: fallthrough\n      : @223 (gas: 14)\n  5973: a3 = s1 + 0x100\n  5977: a0 = u64 [a3 + 0x90]\n  5981: a1 = u64 [a3 + 0x78]\n  5984: a0 = a0 | a1\n  5987: a1 = u64 [a3 + 0x98]\n  5991: a5 = a1\n  5993: a2 = u64 [a3 + 0x88]\n  5997: a1 = a1 | a2\n  6000: a1 = a1 | a0\n  6003: a1 = a1 >> 0x20\n  6006: a0 = a0 | a2\n  6009: a0 = a0 << 0x20\n  6012: a0 = a0 | a1\n  6015: jump @225 if a0 == 0\n      : @224 (gas: 1)\n  6018: jump @745\n      : @225 (gas: 15)\n  6021: a3 = s1 + 0x2918\n  6025: a4 = a3 + 0x600\n  6029: a0 = u64 [a4 + 0x8]\n  6032: a1 = u64 [a4 + 0x10]\n  6035: a2 = u64 [a4 + 0x18]\n  6038: a3 = u64 [a4 + 0x20]\n  6041: a4 = s1 + 0x2118\n  6045: u64 [a4 + 0x500] = a3\n  6049: a3 = a4 + 0x400\n  6053: u64 [a3 + 0xf8] = a2\n  6057: u64 [a3 + 0xf0] = a1\n  6061: a1 = s1 + 0x2600\n  6065: u64 [a3 + 0xe8] = a0\n  6069: a0 = a5\n  6071: ra = 186, jump @24\n      : @226 [@dyn 93] (gas: 6)\n  6077: a0 = u64 [s1 + 0x158]\n  6081: ra = 0xbc\n  6085: ecalli 4 // 'caller'\n  6087: a2 = u64 [s1 + 0x180]\n  6091: t0 = 0xbe\n  6095: jump @1471\n      : @227 [@dyn 94] (gas: 2)\n  6099: a2 = u64 [s1 + 0x180]\n  6103: t0 = 190, jump @1471\n      : @228 [@dyn 95] (gas: 25)\n  6110: t0 = a1 | a0\n  6113: a3 = a3 >> 0x20\n  6116: a2 = reverse a2\n  6118: a1 = a2 << 0x20\n  6121: a1 = a1 | a3\n  6124: a2 = a2 >> 0x20\n  6127: a3 = u64 [0x20000]\n  6132: a0 = s1 + 0x2118\n  6136: u64 [a0 + 0x4e0] = a3\n  6140: a3 = u64 [0x20008]\n  6145: a4 = u64 [0x20010]\n  6150: a5 = u64 [0x20018]\n  6155: u64 [a0 + 0x4d8] = a3\n  6159: a3 = a0 + 0x400\n  6163: u64 [a3 + 0xd0] = a4\n  6167: u64 [a0 + 1216] = 0\n  6171: u64 [a3 + 0xc8] = a5\n  6175: u64 [a3 + 0xb8] = a2\n  6179: u64 [a3 + 0xb0] = a1\n  6183: a1 = 0x20\n  6186: a2 = s1 + 0x25e0\n  6190: a3 = s1 + 0x25c0\n  6194: u64 [a0 + 0x4a8] = t0\n  6198: a0 = u64 [s1 + 0x198]\n  6202: ra = 192, jump @29\n      : @229 [@dyn 96] (gas: 5)\n  6208: a0 = 0\n  6210: a1 = u64 [s1 + 0x160]\n  6214: a2 = 0\n  6216: ecalli 13 // 'seal_return'\n  6218: jump @1010\n      : @230 (gas: 11)\n  6221: a0 = s1 + 0x2918\n  6225: u64 [a0 + 1024] = 0\n  6229: u64 [a0 + 1016] = 0\n  6233: u64 [a0 + 1008] = 0\n  6237: u64 [a0 + 1000] = 0\n  6241: a0 = s1 + 0x3000\n  6245: i32 a0 = a0 + 0xfffffffffffffd00\n  6249: ra = 0xc2\n  6253: ecalli 16 // 'value_transferred'\n  6255: t0 = 0xc4\n  6259: jump @1544\n      : @231 [@dyn 97] (gas: 1)\n  6263: t0 = 196, jump @1544\n      : @232 [@dyn 98] (gas: 8)\n  6270: a0 = u64 [a4 + 0xf8]\n  6274: a1 = u64 [a3 + 0x400]\n  6278: a2 = u64 [a4 + 0xf0]\n  6282: a3 = u64 [a4 + 0xe8]\n  6286: a1 = a1 | a2\n  6289: a0 = a0 | a3\n  6292: a0 = a0 | a1\n  6295: jump @234 if a0 == 0\n      : @233 (gas: 1)\n  6298: jump @779\n      : @234 (gas: 1)\n  6301: t0 = 198, jump @1532\n      : @235 [@dyn 99] (gas: 1)\n  6308: jump @237 if a1 <u a0\n      : @236 (gas: 1)\n  6311: jump @780\n      : @237 (gas: 5)\n  6314: a0 = s1 + 0x3000\n  6318: i32 a0 = a0 + 0xfffffffffffffd20\n  6322: a1 = 0x4\n  6325: ecalli 2 // 'call_data_load'\n  6327: fallthrough\n      : @238 (gas: 9)\n  6328: a3 = s1 + 0x2918\n  6332: a0 = a3 + 0x400\n  6336: a1 = u64 [a0 + 0x20]\n  6339: a2 = u64 [a0 + 0x18]\n  6342: a4 = u64 [a0 + 0x10]\n  6345: a5 = a2 | a1\n  6348: a0 = a4 <u 0x1\n  6351: a0 = 0 if a5 != 0\n  6353: jump @240 if a0 != 0\n      : @239 (gas: 1)\n  6356: jump @781\n      : @240 (gas: 20)\n  6359: u64 [s1 + 0x98] = a5\n  6363: a5 = u64 [a3 + 0x408]\n  6367: a0 = u64 [s1 + 0x198]\n  6371: t0 = u32 [a0]\n  6373: a0 = a5 + 0x23\n  6376: a3 = a0 <u a5\n  6379: t1 = a4 + a3\n  6382: u64 [s1 + 0xd8] = a4\n  6386: a4 = t1 <u a4\n  6389: a4 = a3 if a3 == 0\n  6392: a4 = a4 + a2\n  6395: u64 [s1 + 0x188] = a2\n  6399: a2 = a4 <u a2\n  6402: u64 [s1 + 0x190] = a1\n  6406: a2 = a2 + a1\n  6409: a2 = a2 | a4\n  6412: a0 = a0 <u t0\n  6415: a0 = 0 if t1 != 0\n  6417: a0 = 0 if a2 != 0\n  6419: jump @242 if a0 != 0\n      : @241 (gas: 1)\n  6422: jump @782\n      : @242 (gas: 6)\n  6425: i32 a1 = a5 + 0x4\n  6428: a0 = s1 + 0x3000\n  6432: i32 a0 = a0 + 0xfffffffffffffd40\n  6436: u64 [s1 + 0xd0] = a5\n  6440: ecalli 2 // 'call_data_load'\n  6442: fallthrough\n      : @243 (gas: 9)\n  6443: a2 = s1 + 0x2918\n  6447: a0 = u64 [a2 + 0x440]\n  6451: t0 = u64 [a2 + 0x438]\n  6455: ra = u64 [a2 + 0x430]\n  6459: u64 [s1 + 0xf0] = a0\n  6463: a0 = t0 | a0\n  6466: a1 = ra <u 0x1\n  6469: a1 = 0 if a0 != 0\n  6471: jump @245 if a1 != 0\n      : @244 (gas: 1)\n  6474: jump @783\n      : @245 (gas: 43)\n  6477: t1 = u64 [a2 + 0x428]\n  6481: a1 = u64 [s1 + 0xd0]\n  6485: a0 = a1 + 0x24\n  6488: a2 = a0 <u a1\n  6491: t2 = u64 [s1 + 0xd8]\n  6495: a3 = t2 + a2\n  6498: a1 = a0 + t1\n  6501: u64 [s1 + 0x180] = a1\n  6505: u64 [s1 + 0x120] = a0\n  6509: a4 = a1 <u a0\n  6512: a0 = a3 + ra\n  6515: a0 = a0 + a4\n  6518: a5 = a0 ^ a3\n  6521: a1 = a0 <u a3\n  6524: a1 = a4 if a5 == 0\n  6527: a3 = a3 <u t2\n  6530: a3 = a2 if a2 == 0\n  6533: a2 = u64 [s1 + 0x188]\n  6537: a3 = a3 + a2\n  6540: a2 = a3 <u a2\n  6543: a5 = u64 [s1 + 0xf0]\n  6547: a4 = u64 [s1 + 0x190]\n  6551: a4 = a4 + a5\n  6554: a2 = a2 + a4\n  6557: a4 = a3 + t0\n  6560: a3 = a4 <u a3\n  6563: a2 = a2 + a3\n  6566: a3 = u64 [s1 + 0x198]\n  6570: a3 = u32 [a3]\n  6572: a1 = a1 + a4\n  6575: a4 = a1 <u a4\n  6578: a2 = a2 + a4\n  6581: a4 = u64 [s1 + 0x180]\n  6585: a3 = a3 <u a4\n  6588: a4 = a0 <u 0x1\n  6591: a3 = a3 ^ 0x1\n  6594: a3 = a4 if a0 != 0\n  6597: a0 = a2 <u 0x1\n  6600: a4 = a1 <u 0x1\n  6603: a4 = a0 if a2 != 0\n  6606: a1 = a1 | a2\n  6609: a3 = a4 if a1 != 0\n  6612: jump @247 if a3 != 0\n      : @246 (gas: 1)\n  6615: jump @784\n      : @247 (gas: 26)\n  6618: a0 = t1 + 0xfffffffffffffffd\n  6621: u64 [s1 + 0xc0] = t1\n  6625: a1 = a0 <u t1\n  6628: a2 = ra + a1\n  6631: a2 = a2 + 0xffffffffffffffff\n  6634: a3 = a2 ^ ra\n  6637: u64 [s1 + 0xb0] = ra\n  6641: a4 = a2 <u ra\n  6644: a4 = a1 if a3 == 0\n  6647: a1 = t0 + 0xffffffffffffffff\n  6650: a4 = a4 + a1\n  6653: a1 = a4 <u a1\n  6656: u64 [s1 + 0xb8] = t0\n  6660: a3 = t0 <u 0x1\n  6663: a3 = a5 - a3\n  6666: a1 = a1 + a3\n  6669: a3 = a4 >u 0\n  6671: a5 = a1 >u 0\n  6673: a5 = a3 if a1 == 0\n  6676: a1 = a1 | a4\n  6679: a3 = a2 >u 0\n  6681: a0 = a0 <u 0x62\n  6684: a0 = a0 ^ 0x1\n  6687: a0 = a3 if a2 != 0\n  6690: a0 = a5 if a1 != 0\n  6693: jump @249 if a0 == 0\n      : @248 (gas: 1)\n  6696: jump @785\n      : @249 (gas: 9)\n  6699: a0 = 0x30180\n  6704: u64 [s1 + 0xe8] = a0\n  6708: i32 a0 = a0 + 0\n  6710: u64 [s1 + 0xc8] = a0\n  6714: ra = 0xc8\n  6718: ecalli 4 // 'caller'\n  6720: a2 = u64 [s1 + 0xe8]\n  6724: t0 = 0xca\n  6728: jump @1473\n      : @250 [@dyn 100] (gas: 2)\n  6732: a2 = u64 [s1 + 0xe8]\n  6736: t0 = 202, jump @1473\n      : @251 [@dyn 101] (gas: 8)\n  6743: u64 [a2 + 1056] = 0\n  6747: a4 = a2 + 0x400\n  6751: u64 [a4 + 0x18] = a1\n  6754: u64 [a4 + 0x10] = a0\n  6757: a1 = s1 + 0x2520\n  6761: u64 [a4 + 0x8] = a3\n  6764: a0 = 0\n  6766: ra = 204, jump @24\n      : @252 [@dyn 102] (gas: 9)\n  6772: a1 = s1 + 0x2118\n  6776: u64 [a1 + 1024] = 0\n  6780: u64 [a1 + 1016] = 0\n  6784: u64 [a1 + 1000] = 0x2\n  6789: a2 = a1\n  6791: a0 = 0x20\n  6794: a1 = s1 + 0x2500\n  6798: u64 [a2 + 1008] = 0\n  6802: ra = 206, jump @24\n      : @253 [@dyn 103] (gas: 1)\n  6808: t0 = 208, jump @1522\n      : @254 [@dyn 104] (gas: 4)\n  6815: a2 = 0x20170\n  6820: a0 = i32 [0x20170]\n  6825: a1 = 0x3f\n  6828: jump @256 if a1 <u a0\n      : @255 (gas: 2)\n  6831: u32 [0x20170] = 0x40\n  6837: fallthrough\n      : @256 (gas: 4)\n  6838: u64 [s1 + 0xa8] = a2\n  6842: a0 = 0xffffffff\n  6852: u64 [s1 + 0xe0] = a0\n  6856: t0 = 210, jump @1540\n      : @257 [@dyn 105] (gas: 9)\n  6863: a0 = 0x20180\n  6868: i32 a0 = a0 + 0\n  6870: i32 a2 = a2 + 0\n  6872: a1 = 0x40\n  6875: u64 [s1 + 0xa0] = a0\n  6879: ra = 0xd4\n  6883: ecalli 8 // 'hash_keccak_256'\n  6885: t0 = 0xd6\n  6889: jump @1487\n      : @258 [@dyn 106] (gas: 1)\n  6893: t0 = 214, jump @1487\n      : @259 [@dyn 107] (gas: 3)\n  6900: i32 a0 = a0 + 0x4e0\n  6904: a0 = a0 + s1\n  6907: ra = 216, jump @26\n      : @260 [@dyn 108] (gas: 4)\n  6913: a0 = s1 + 0x2118\n  6917: a0 = u32 [a0 + 0x3c8]\n  6921: a1 = u64 [s1 + 0xe0]\n  6925: jump @262 if a0 != a1\n      : @261 (gas: 1)\n  6928: jump @789\n      : @262 (gas: 10)\n  6931: a1 = a0 + 0x1\n  6934: u64 [s1 + 0x100] = a1\n  6938: a0 = a1 <u 0x1\n  6941: u64 [s1 + 0xf8] = a0\n  6945: a0 = a0 | a1\n  6948: a0 = a0 <u 0x1\n  6951: u64 [s1 + 0x108] = a0\n  6955: a0 = s1 + 0x24c0\n  6959: a1 = u64 [s1 + 0x198]\n  6963: ra = 218, jump @26\n      : @263 [@dyn 109] (gas: 22)\n  6969: a3 = s1 + 0x2118\n  6973: a0 = u32 [a3 + 0x3ac]\n  6977: a4 = a3 + 0x300\n  6981: a1 = u64 [a4 + 0xb8]\n  6985: a0 = a0 << 0x20\n  6988: a2 = u64 [a4 + 0xb0]\n  6992: a3 = u64 [a4 + 0xc0]\n  6996: a4 = u64 [s1 + 0x108]\n  7000: a1 = a1 | a4\n  7003: a4 = u64 [s1 + 0x100]\n  7007: a0 = a0 | a4\n  7010: a4 = u64 [s1 + 0xf8]\n  7014: a2 = a2 | a4\n  7017: a4 = s1 + 0x2918\n  7021: a5 = a4 + 0x400\n  7025: u64 [a5 + 0x60] = a3\n  7028: u64 [a5 + 0x50] = a2\n  7031: u64 [a5 + 0x48] = a0\n  7034: u64 [a5 + 0x58] = a1\n  7037: a1 = s1 + 0x2d60\n  7041: a0 = u64 [s1 + 0x198]\n  7045: ra = 220, jump @28\n      : @264 [@dyn 110] (gas: 4)\n  7051: a0 = s1 + 0x3000\n  7055: i32 a0 = a0 + 0xfffffffffffffd80\n  7059: ecalli 9 // 'now'\n  7061: fallthrough\n      : @265 (gas: 50)\n  7062: a0 = s1 + 0x2918\n  7066: t2 = u64 [a0 + 0x480]\n  7070: a3 = u64 [a0 + 0x478]\n  7074: u64 [s1 + 0x150] = a3\n  7078: t1 = u64 [a0 + 0x470]\n  7082: ra = u64 [a0 + 0x468]\n  7086: a0 = clz t2\n  7088: a1 = clz a3\n  7090: a2 = a1 + 0x40\n  7093: a2 = a0 if t2 != 0\n  7096: a0 = clz t1\n  7098: a1 = clz ra\n  7100: a1 = a1 + 0x40\n  7103: a1 = a0 if t1 != 0\n  7106: a0 = a1 + 0x80\n  7110: a3 = a3 | t2\n  7113: a2 = a0 if a3 == 0\n  7116: a5 = a0 <u a1\n  7119: a5 = 0 if a3 != 0\n  7121: a4 = a5 >u 0\n  7123: a0 = a2 <u 0xf0\n  7127: a3 = a0 ^ 0x1\n  7130: a4 = a3 if a5 == 0\n  7133: a0 = a4 <u 0x1\n  7136: a0 = a0 + 0xffffffffffffffff\n  7139: a1 = -a4\n  7141: a5 = -a5\n  7143: a3 = a5 - a3\n  7146: t0 = 0xef - a2\n  7150: u64 [s1 + 0x198] = a1\n  7154: a5 = a1 >u 0\n  7156: a1 = a0 >u 0\n  7158: a1 = a5 if a0 == 0\n  7161: a5 = t0 <u 0x100\n  7165: a5 = a5 ^ 0x1\n  7168: a2 = a3 >u 0\n  7170: a5 = a2 if a3 != 0\n  7173: a5 = a1 if a4 != 0\n  7176: u64 [s1 + 0x140] = t2\n  7180: a1 = t1 | t2\n  7183: t2 = t1\n  7185: t1 = u64 [s1 + 0x150]\n  7189: a2 = ra | t1\n  7192: a1 = a1 | a2\n  7195: a1 = a1 <u 0x1\n  7198: a1 = a1 | a5\n  7201: u64 [s1 + 0x158] = ra\n  7205: a4 = ra\n  7207: a4 = 0 if a1 != 0\n  7209: jump @267 if a1 == 0\n      : @266 (gas: 1)\n  7212: jump @583\n      : @267 (gas: 6)\n  7215: a1 = t0 ^ 0xff\n  7219: a5 = u64 [s1 + 0x198]\n  7223: a1 = a1 | a5\n  7226: a2 = a3 | a0\n  7229: a1 = a1 | a2\n  7232: jump @269 if a1 != 0\n      : @268 (gas: 1)\n  7235: jump @583\n      : @269 (gas: 19)\n  7238: a2 = t0 + 0x1\n  7241: u64 [s1 + 0x190] = a2\n  7245: a1 = a2 <u 0x1\n  7248: a1 = a1 + a3\n  7251: u64 [s1 + 0x180] = a1\n  7255: a1 = a1 | a2\n  7258: a1 = a1 <u 0x1\n  7261: a1 = a1 + a5\n  7264: u64 [s1 + 0x170] = a1\n  7268: a1 = a1 <u a5\n  7271: a0 = a0 + a1\n  7274: u64 [s1 + 0x178] = a0\n  7278: a1 = 0xff - t0\n  7282: u64 [s1 + 0x168] = a1\n  7286: a2 = 0x80 - a1\n  7290: a0 = u64 [s1 + 0x158]\n  7294: a1 = t2\n  7296: u64 [s1 + 0x148] = t2\n  7300: ra = 222, jump @1552\n      : @270 [@dyn 111] (gas: 1)\n  7307: t0 = 224, jump @1547\n      : @271 [@dyn 112] (gas: 1)\n  7314: ra = 226, jump @1557\n      : @272 [@dyn 113] (gas: 7)\n  7321: u64 [s1 + 0x130] = a0\n  7325: u64 [s1 + 0x128] = a1\n  7329: a0 = u64 [s1 + 0x168]\n  7333: a2 = a0 + 0xffffffffffffff80\n  7336: a0 = u64 [s1 + 0x158]\n  7340: a1 = u64 [s1 + 0x148]\n  7344: ra = 228, jump @1557\n      : @273 [@dyn 114] (gas: 1)\n  7351: t0 = 230, jump @1550\n      : @274 [@dyn 115] (gas: 3)\n  7358: a0 = u64 [s1 + 0x158]\n  7362: a1 = u64 [s1 + 0x148]\n  7366: ra = 232, jump @1557\n      : @275 [@dyn 116] (gas: 11)\n  7373: a4 = u64 [s1 + 0x138]\n  7377: t0 = u64 [s1 + 0x170]\n  7381: a5 = u64 [s1 + 0x178]\n  7385: a2 = u64 [s1 + 0x180]\n  7389: a5 = a5 | a2\n  7392: a3 = u64 [s1 + 0x190]\n  7396: a3 = a3 | t0\n  7399: a3 = a3 | a5\n  7402: a0 = 0 if a4 == 0\n  7404: u64 [s1 + 0x188] = a0\n  7408: jump @277 if a3 == 0\n      : @276 (gas: 1)\n  7411: jump @570\n      : @277 (gas: 2)\n  7414: a4 = 0\n  7416: jump @582\n      : @278 (gas: 11)\n  7419: a0 = s1 + 0x2918\n  7423: u64 [a0 + 512] = 0\n  7427: u64 [a0 + 504] = 0\n  7431: u64 [a0 + 496] = 0\n  7435: u64 [a0 + 488] = 0\n  7439: a0 = s1 + 0x3000\n  7443: i32 a0 = a0 + 0xfffffffffffffb00\n  7447: ra = 0xea\n  7451: ecalli 16 // 'value_transferred'\n  7453: t0 = 0xec\n  7457: jump @1513\n      : @279 [@dyn 117] (gas: 1)\n  7461: t0 = 236, jump @1513\n      : @280 [@dyn 118] (gas: 8)\n  7468: a0 = u64 [a4 + 0xf8]\n  7472: a1 = u64 [a3 + 0x200]\n  7476: a2 = u64 [a4 + 0xf0]\n  7480: a3 = u64 [a4 + 0xe8]\n  7484: a1 = a1 | a2\n  7487: a0 = a0 | a3\n  7490: a0 = a0 | a1\n  7493: jump @282 if a0 == 0\n      : @281 (gas: 1)\n  7496: jump @793\n      : @282 (gas: 3)\n  7499: a0 = u64 [s1 + 0x198]\n  7503: a0 = i32 [a0]\n  7505: jump @284 if a0 >u 99\n      : @283 (gas: 1)\n  7509: jump @794\n      : @284 (gas: 4)\n  7512: a0 = s1 + 0x1240\n  7516: ra = 0xee\n  7520: t0 = 0x59e\n  7524: jump @1534\n      : @285 [@dyn 119] (gas: 11)\n  7528: a1 = s1 + 0x1118\n  7532: a0 = u64 [a1 + 0x128]\n  7536: u64 [s1 + 0x198] = a0\n  7540: a0 = u64 [a1 + 0x130]\n  7544: u64 [s1 + 0x190] = a0\n  7548: a0 = u32 [a1 + 0x138]\n  7552: u64 [s1 + 0x178] = a0\n  7556: a0 = s1 + 0x1220\n  7560: ra = 0xf0\n  7564: t0 = 0x5a2\n  7568: jump @1548\n      : @286 [@dyn 120] (gas: 7)\n  7572: a0 = s1 + 0x1118\n  7576: a0 = u64 [a0 + 0x108]\n  7580: u64 [s1 + 0x180] = a0\n  7584: a0 = s1 + 0x1200\n  7588: ra = 0xf2\n  7592: t0 = 0x5a8\n  7596: jump @1548\n      : @287 [@dyn 121] (gas: 3)\n  7600: t0 = 0xf4\n  7604: a2 = s1 + 0x1118\n  7608: fallthrough\n      : @288 [@dyn 122] (gas: 13)\n  7609: a0 = u64 [a2 + 0xe8]\n  7613: a3 = s1 + 0x100\n  7617: u64 [a3 + 0x88] = a0\n  7621: u64 [a2 + 224] = 0\n  7625: a0 = u64 [a3 + 0x78]\n  7628: u64 [a2 + 0xd8] = a0\n  7632: a0 = u64 [a3 + 0x90]\n  7636: u64 [a2 + 0xd0] = a0\n  7640: a1 = s1 + 0x11e0\n  7644: a0 = u64 [a3 + 0x98]\n  7648: u64 [a2 + 0xc8] = a0\n  7652: a0 = 0\n  7654: ra = 246, jump @24\n      : @289 [@dyn 123] (gas: 9)\n  7660: a1 = s1 + 0x1118\n  7664: u64 [a1 + 192] = 0\n  7668: u64 [a1 + 184] = 0\n  7672: u64 [a1 + 168] = 0x3\n  7677: a2 = a1\n  7679: a0 = 0x20\n  7682: a1 = s1 + 0x11c0\n  7686: u64 [a2 + 176] = 0\n  7690: ra = 248, jump @24\n      : @290 [@dyn 124] (gas: 3)\n  7696: a1 = 0x20170\n  7701: a0 = i32 [0x20170]\n  7706: jump @292 if a0 >u 63\n      : @291 (gas: 2)\n  7710: u32 [0x20170] = 0x40\n  7716: fallthrough\n      : @292 (gas: 13)\n  7717: a0 = sp + 0xffffffffffffffe0\n  7720: a2 = a0 & 0xffffffffffffffe0\n  7723: u64 [s1 + 0x178] = a2\n  7727: sp = a2\n  7729: a0 = 0x20180\n  7734: i32 a0 = a0 + 0\n  7736: i32 a2 = a2 + 0\n  7738: u64 [s1 + 0x198] = a1\n  7742: a1 = 0x40\n  7745: u64 [s1 + 0x190] = a0\n  7749: ra = 0xfa\n  7753: ecalli 8 // 'hash_keccak_256'\n  7755: fallthrough\n      : @293 [@dyn 125] (gas: 8)\n  7756: a3 = u64 [s1 + 0x178]\n  7760: a0 = u64 [a3 + 0x18]\n  7763: a1 = u64 [a3 + 0x10]\n  7766: a2 = u64 [a3 + 0x8]\n  7769: a3 = u64 [a3]\n  7771: a0 = reverse a0\n  7773: u64 [s1 + 0x178] = a0\n  7777: t0 = 252, jump @1527\n      : @294 [@dyn 126] (gas: 3)\n  7784: t0 = 0xfe\n  7788: a2 = s1 + 0x1118\n  7792: fallthrough\n      : @295 [@dyn 127] (gas: 8)\n  7793: u64 [a2 + 160] = 0\n  7797: u64 [a2 + 152] = 0\n  7801: u64 [a2 + 144] = 0\n  7805: a1 = s1 + 0x11a0\n  7809: a0 = u64 [s1 + 0x180]\n  7813: u64 [a2 + 0x88] = a0\n  7817: a0 = 0\n  7819: ra = 256, jump @24\n      : @296 [@dyn 128] (gas: 13)\n  7825: a0 = u64 [s1 + 0x160]\n  7829: a1 = s1 + 0x1118\n  7833: u64 [a1 + 0x80] = a0\n  7837: a0 = u64 [s1 + 0x168]\n  7841: u64 [a1 + 0x78] = a0\n  7844: a0 = u64 [s1 + 0x170]\n  7848: u64 [a1 + 0x70] = a0\n  7851: a3 = a1\n  7853: a0 = 0x20\n  7856: a1 = s1 + 0x1180\n  7860: a2 = u64 [s1 + 0x178]\n  7864: u64 [a3 + 0x68] = a2\n  7867: ra = 258, jump @24\n      : @297 [@dyn 129] (gas: 3)\n  7873: a1 = u64 [s1 + 0x198]\n  7877: a0 = i32 [a1]\n  7879: jump @299 if a0 >u 63\n      : @298 (gas: 2)\n  7883: u32 [a1 + 0] = 0x40\n  7886: fallthrough\n      : @299 (gas: 4)\n  7887: a0 = sp + 0xffffffffffffffe0\n  7890: a0 = a0 & 0xffffffffffffffe0\n  7893: u64 [s1 + 0x180] = a0\n  7897: t0 = 260, jump @1469\n      : @300 [@dyn 130] (gas: 5)\n  7903: ra = 0x106\n  7907: ecalli 8 // 'hash_keccak_256'\n  7909: a3 = u64 [s1 + 0x180]\n  7913: t0 = 0x108\n  7917: jump @1483\n      : @301 [@dyn 131] (gas: 2)\n  7920: a3 = u64 [s1 + 0x180]\n  7924: t0 = 264, jump @1483\n      : @302 [@dyn 132] (gas: 13)\n  7930: u64 [s1 + 0x180] = a0\n  7934: sp = a0\n  7936: a0 = u64 [s1 + 0x188]\n  7940: a0 = a0 << 0x20\n  7943: a0 = a0 >> 0x20\n  7946: a2 = s1 + 0x1118\n  7950: u64 [a2 + 96] = 0\n  7953: u64 [a2 + 88] = 0\n  7956: u64 [a2 + 80] = 0\n  7959: a1 = s1 + 0x1160\n  7963: u64 [a2 + 0x48] = a0\n  7966: a0 = 0\n  7968: ra = 266, jump @24\n      : @303 [@dyn 133] (gas: 13)\n  7974: a0 = u64 [s1 + 0x160]\n  7978: a1 = s1 + 0x1118\n  7982: u64 [a1 + 0x40] = a0\n  7985: a0 = u64 [s1 + 0x168]\n  7989: u64 [a1 + 0x38] = a0\n  7992: a0 = u64 [s1 + 0x170]\n  7996: u64 [a1 + 0x30] = a0\n  7999: a3 = a1\n  8001: a0 = 0x20\n  8004: a1 = s1 + 0x1140\n  8008: a2 = u64 [s1 + 0x178]\n  8012: u64 [a3 + 0x28] = a2\n  8015: ra = 268, jump @24\n      : @304 [@dyn 134] (gas: 3)\n  8021: a1 = u64 [s1 + 0x198]\n  8025: a0 = i32 [a1]\n  8027: jump @306 if a0 >=u 64\n      : @305 (gas: 2)\n  8031: u32 [a1 + 0] = 0x40\n  8034: fallthrough\n      : @306 (gas: 4)\n  8035: a0 = sp + 0xffffffffffffffe0\n  8038: a0 = a0 & 0xffffffffffffffe0\n  8041: u64 [s1 + 0x198] = a0\n  8045: t0 = 270, jump @1469\n      : @307 [@dyn 135] (gas: 5)\n  8051: ra = 0x110\n  8055: ecalli 8 // 'hash_keccak_256'\n  8057: a3 = u64 [s1 + 0x198]\n  8061: t0 = 0x112\n  8065: jump @1497\n      : @308 [@dyn 136] (gas: 2)\n  8069: a3 = u64 [s1 + 0x198]\n  8073: t0 = 274, jump @1497\n      : @309 [@dyn 137] (gas: 2)\n  8080: a0 = s1 + 0x1120\n  8084: ra = 276, jump @26\n      : @310 [@dyn 138] (gas: 6)\n  8090: a0 = s1 + 0x1118\n  8094: a0 = u64 [a0 + 0x8]\n  8097: u64 [s1 + 0x198] = a0\n  8101: a0 = s1 + 0x1100\n  8105: a1 = 0x40\n  8108: ra = 278, jump @22\n      : @311 [@dyn 139] (gas: 14)\n  8114: a0 = s1 + 0x1118\n  8118: a3 = u64 [a0]\n  8120: a4 = a0 + 0xffffffffffffff00\n  8124: a1 = u64 [a4 + 0xf8]\n  8128: a2 = u64 [a4 + 0xf0]\n  8132: a0 = u64 [a4 + 0xe8]\n  8136: a3 = a3 | a2\n  8139: a2 = a0 | a1\n  8142: a2 = a2 | a3\n  8145: a2 = a2 >> 0x20\n  8148: a1 = a1 | a3\n  8151: a1 = a1 << 0x20\n  8154: a1 = a1 | a2\n  8157: jump @313 if a1 == 0\n      : @312 (gas: 1)\n  8160: jump @745\n      : @313 (gas: 10)\n  8163: a3 = u8 [s1 + 0x198]\n  8167: a2 = s1 + 0x7ff\n  8171: a2 = a2 + 0x119\n  8175: u64 [a2 + 2016] = 0\n  8179: u64 [a2 + 2008] = 0\n  8183: u64 [a2 + 0x7c8] = a3\n  8187: a1 = s1 + 0x10e0\n  8191: u64 [a2 + 2000] = 0\n  8195: u64 [s1 + 0x198] = a0\n  8199: ra = 280, jump @24\n      : @314 [@dyn 140] (gas: 4)\n  8205: a1 = 0x20\n  8208: a0 = u64 [s1 + 0x198]\n  8212: ra = 0x34a\n  8216: jump @37\n      : @315 (gas: 9)\n  8219: u64 [a2 + 1856] = 0\n  8223: u64 [a2 + 1848] = 0\n  8227: u64 [a2 + 1840] = 0\n  8231: u64 [a2 + 1832] = 0\n  8235: a0 = s1 + 0x3000\n  8239: i32 a0 = a0 + 0xfffffffffffff840\n  8243: ra = 0x11a\n  8247: ecalli 16 // 'value_transferred'\n  8249: fallthrough\n      : @316 [@dyn 141] (gas: 10)\n  8250: a3 = s1 + 0x2118\n  8254: a4 = a3 + 0x700\n  8258: a0 = u64 [a4 + 0x38]\n  8261: a1 = u64 [a4 + 0x40]\n  8264: a2 = u64 [a4 + 0x30]\n  8267: a3 = u64 [a4 + 0x28]\n  8270: a1 = a1 | a2\n  8273: a0 = a0 | a3\n  8276: a0 = a0 | a1\n  8279: jump @318 if a0 == 0\n      : @317 (gas: 1)\n  8282: jump @795\n      : @318 (gas: 1)\n  8285: t0 = 284, jump @1532\n      : @319 [@dyn 142] (gas: 1)\n  8292: jump @321 if a1 <u a0\n      : @320 (gas: 1)\n  8295: jump @796\n      : @321 (gas: 6)\n  8298: a0 = s1 + 0x3000\n  8302: i32 a0 = a0 + 0xfffffffffffff860\n  8306: a1 = 0x4\n  8309: ra = 0x11e\n  8313: ecalli 2 // 'call_data_load'\n  8315: fallthrough\n      : @322 [@dyn 143] (gas: 7)\n  8316: a0 = s1 + 0x2118\n  8320: a5 = a0 + 0x700\n  8324: a1 = u64 [a5 + 0x60]\n  8327: a2 = u64 [a5 + 0x58]\n  8330: a3 = u64 [a5 + 0x50]\n  8333: a4 = u64 [a5 + 0x48]\n  8336: t0 = 288, jump @1499\n      : @323 [@dyn 144] (gas: 1)\n  8342: jump @325 if a0 != 0\n      : @324 (gas: 1)\n  8345: jump @797\n      : @325 (gas: 8)\n  8348: a0 = 0x30180\n  8353: u64 [s1 + 0x180] = a0\n  8357: i32 a0 = a0 + 0\n  8359: u64 [s1 + 0x168] = a0\n  8363: ra = 0x122\n  8367: ecalli 4 // 'caller'\n  8369: t0 = 0x124\n  8373: jump @1475\n      : @326 [@dyn 145] (gas: 1)\n  8376: t0 = 292, jump @1475\n      : @327 [@dyn 146] (gas: 8)\n  8382: u64 [s1 + 1720] = 0\n  8386: a2 = s1 + 0x600\n  8390: u64 [a2 + 0xb0] = a1\n  8394: u64 [a2 + 0xa8] = a0\n  8398: a1 = s1 + 0x6a0\n  8402: u64 [a2 + 0xa0] = a3\n  8406: a0 = 0\n  8408: ra = 294, jump @24\n      : @328 [@dyn 147] (gas: 7)\n  8414: u64 [s1 + 1688] = 0\n  8418: u64 [s1 + 1680] = 0\n  8422: u64 [s1 + 1672] = 0\n  8426: a0 = 0x20\n  8429: a1 = s1 + 0x680\n  8433: u64 [s1 + 1664] = 0\n  8437: ra = 296, jump @24\n      : @329 [@dyn 148] (gas: 7)\n  8443: a0 = sp + 0xffffffffffffffe0\n  8446: a0 = a0 & 0xffffffffffffffe0\n  8449: u64 [s1 + 0x170] = a0\n  8453: sp = a0\n  8455: a2 = 0x20170\n  8460: a0 = i32 [0x20170]\n  8465: jump @331 if a0 >u 63\n      : @330 (gas: 2)\n  8469: u32 [0x20170] = 0x40\n  8475: fallthrough\n      : @331 (gas: 13)\n  8476: u64 [s1 + 0x140] = a2\n  8480: a0 = sp + 0xffffffffffffffe0\n  8483: a2 = a0 & 0xffffffffffffffe0\n  8486: u64 [s1 + 0x160] = a2\n  8490: sp = a2\n  8492: a0 = 0x20180\n  8497: i32 a0 = a0 + 0\n  8499: i32 a2 = a2 + 0\n  8501: a1 = 0x40\n  8504: u64 [s1 + 0x148] = a0\n  8508: ra = 0x12a\n  8512: ecalli 8 // 'hash_keccak_256'\n  8514: fallthrough\n      : @332 [@dyn 149] (gas: 11)\n  8515: a3 = u64 [s1 + 0x160]\n  8519: a0 = u64 [a3]\n  8521: a1 = u64 [a3 + 0x8]\n  8524: a2 = u64 [a3 + 0x10]\n  8527: a3 = u64 [a3 + 0x18]\n  8530: a0 = reverse a0\n  8532: a1 = reverse a1\n  8534: a2 = reverse a2\n  8536: a3 = reverse a3\n  8538: a4 = a3 + 0x2\n  8541: t0 = 300, jump @1480\n      : @333 [@dyn 150] (gas: 7)\n  8547: a1 = u64 [s1 + 0x170]\n  8551: u64 [a1] = a4\n  8553: u64 [a1 + 0x8] = a5\n  8556: u64 [a1 + 0x10] = a2\n  8559: u64 [a1 + 0x18] = a0\n  8562: a0 = s1 + 0x660\n  8566: ra = 302, jump @26\n      : @334 [@dyn 151] (gas: 24)\n  8572: t1 = u64 [s1 + 0x678]\n  8576: t2 = u64 [s1 + 0x670]\n  8580: t0 = u64 [s1 + 0x668]\n  8584: a3 = u64 [s1 + 0x660]\n  8588: a0 = u64 [s1 + 0x198]\n  8592: a4 = t1 ^ a0\n  8595: a5 = t1 <u a0\n  8598: a1 = u64 [s1 + 0x178]\n  8602: a0 = t2 <u a1\n  8605: u64 [s1 + 0x158] = a0\n  8609: a5 = a0 if a4 == 0\n  8612: a0 = u64 [s1 + 0x190]\n  8616: ra = t0 ^ a0\n  8619: a0 = t0 <u a0\n  8622: a2 = u64 [s1 + 0x188]\n  8626: u64 [s1 + 0x160] = a3\n  8630: a2 = a3 <u a2\n  8633: u64 [s1 + 0x150] = a2\n  8637: a0 = a2 if ra == 0\n  8640: ra = a1\n  8642: a1 = t2 ^ a1\n  8645: a1 = a1 | a4\n  8648: a5 = a0 if a1 == 0\n  8651: jump @336 if a5 == 0\n      : @335 (gas: 1)\n  8654: jump @801\n      : @336 (gas: 11)\n  8657: a1 = t2 - ra\n  8660: a2 = u64 [s1 + 0x198]\n  8664: a2 = t1 - a2\n  8667: a3 = u64 [s1 + 0x158]\n  8671: a2 = a2 - a3\n  8674: a3 = a1 <u a0\n  8677: a2 = a2 - a3\n  8680: a1 = a1 - a0\n  8683: a0 = u64 [s1 + 0x190]\n  8687: a0 = t0 - a0\n  8690: t0 = 304, jump @1505\n      : @337 [@dyn 152] (gas: 7)\n  8696: u64 [a5 + 0x68] = a3\n  8699: u64 [a5 + 0x70] = a0\n  8702: u64 [a5 + 0x78] = a1\n  8705: u64 [a5 + 0x80] = a2\n  8709: a1 = s1 + 0x2880\n  8713: a0 = u64 [s1 + 0x170]\n  8717: ra = 306, jump @28\n      : @338 [@dyn 153] (gas: 5)\n  8723: a0 = u64 [s1 + 0x168]\n  8727: ra = 0x134\n  8731: ecalli 4 // 'caller'\n  8733: t0 = 0x136\n  8737: jump @1486\n      : @339 [@dyn 154] (gas: 1)\n  8740: t0 = 310, jump @1486\n      : @340 [@dyn 155] (gas: 14)\n  8746: u64 [s1 + 0x638] = a2\n  8750: a2 = u64 [a4 + 0x78]\n  8753: u64 [s1 + 0x630] = a2\n  8757: a2 = u64 [a4 + 0x90]\n  8761: u64 [s1 + 0x628] = a2\n  8765: a2 = u64 [a4 + 0x88]\n  8769: u64 [s1 + 0x620] = a2\n  8773: u64 [s1 + 1624] = 0\n  8777: u64 [s1 + 0x650] = a1\n  8781: u64 [s1 + 0x648] = a0\n  8785: a0 = s1 + 0x640\n  8789: a1 = s1 + 0x620\n  8793: u64 [s1 + 0x640] = a3\n  8797: ra = 312, jump @1445\n      : @341 [@dyn 156] (gas: 3)\n  8803: a0 = s1 + 0x600\n  8807: a1 = 0x40\n  8810: ra = 314, jump @22\n      : @342 [@dyn 157] (gas: 6)\n  8816: a4 = s1 + 0x600\n  8820: a0 = u64 [a4 + 0x18]\n  8823: a1 = u64 [a4 + 0x10]\n  8826: a2 = u64 [a4 + 0x8]\n  8829: a3 = u64 [a4]\n  8831: t0 = 316, jump @1491\n      : @343 [@dyn 158] (gas: 1)\n  8837: jump @345 if a0 == 0\n      : @344 (gas: 1)\n  8840: jump @745\n      : @345 (gas: 12)\n  8843: a0 = u64 [s1 + 0x188]\n  8847: u64 [s1 + 0x5e0] = a0\n  8851: a0 = u64 [s1 + 0x190]\n  8855: u64 [s1 + 0x5e8] = a0\n  8859: a0 = u64 [s1 + 0x178]\n  8863: u64 [s1 + 0x5f0] = a0\n  8867: a1 = s1 + 0x5e0\n  8871: a0 = u64 [s1 + 0x198]\n  8875: u64 [s1 + 0x5f8] = a0\n  8879: a0 = a3\n  8881: u64 [s1 + 0x198] = a3\n  8885: ra = 318, jump @24\n      : @346 [@dyn 159] (gas: 6)\n  8891: a0 = u64 [s1 + 0x168]\n  8895: ra = 0x140\n  8899: ecalli 4 // 'caller'\n  8901: a2 = u64 [s1 + 0x180]\n  8905: t0 = 0x142\n  8909: jump @1471\n      : @347 [@dyn 160] (gas: 2)\n  8912: a2 = u64 [s1 + 0x180]\n  8916: t0 = 322, jump @1471\n      : @348 [@dyn 161] (gas: 24)\n  8922: t0 = a1 | a0\n  8925: a3 = a3 >> 0x20\n  8928: a2 = reverse a2\n  8930: a1 = a2 << 0x20\n  8933: a1 = a1 | a3\n  8936: a2 = a2 >> 0x20\n  8939: u64 [s1 + 1464] = 0\n  8943: a3 = u64 [0x200d8]\n  8948: a4 = u64 [0x200e0]\n  8953: a5 = u64 [0x200e8]\n  8958: a0 = u64 [0x200f0]\n  8963: u64 [s1 + 0x5d8] = a3\n  8967: a3 = s1 + 0x500\n  8971: u64 [a3 + 0xd0] = a4\n  8975: u64 [a3 + 0xc8] = a5\n  8979: u64 [a3 + 0xc0] = a0\n  8983: u64 [a3 + 0xb0] = a2\n  8987: u64 [a3 + 0xa8] = a1\n  8991: a1 = 0x20\n  8994: a2 = s1 + 0x5c0\n  8998: a3 = s1 + 0x5a0\n  9002: u64 [s1 + 0x5a0] = t0\n  9006: a0 = u64 [s1 + 0x198]\n  9010: ra = 324, jump @29\n      : @349 [@dyn 162] (gas: 5)\n  9016: a0 = 0\n  9018: a1 = u64 [s1 + 0x148]\n  9022: a2 = 0\n  9024: ecalli 13 // 'seal_return'\n  9026: jump @1010\n      : @350 (gas: 10)\n  9029: a0 = s1 + 0x2918\n  9033: u64 [a0 + 32] = 0\n  9036: u64 [a0 + 24] = 0\n  9039: u64 [a0 + 16] = 0\n  9042: u64 [a0 + 8] = 0\n  9045: a0 = s1 + 0x3000\n  9049: i32 a0 = a0 + 0xfffffffffffff920\n  9053: ra = 0x146\n  9057: ecalli 16 // 'value_transferred'\n  9059: fallthrough\n      : @351 [@dyn 163] (gas: 9)\n  9060: a3 = s1 + 0x2918\n  9064: a0 = u64 [a3 + 0x18]\n  9067: a1 = u64 [a3 + 0x20]\n  9070: a2 = u64 [a3 + 0x10]\n  9073: a3 = u64 [a3 + 0x8]\n  9076: a1 = a1 | a2\n  9079: a0 = a0 | a3\n  9082: a0 = a0 | a1\n  9085: jump @353 if a0 == 0\n      : @352 (gas: 1)\n  9088: jump @805\n      : @353 (gas: 1)\n  9091: t0 = 328, jump @1532\n      : @354 [@dyn 164] (gas: 1)\n  9097: jump @356 if a1 <u a0\n      : @355 (gas: 1)\n  9100: jump @806\n      : @356 (gas: 5)\n  9103: a0 = s1 + 0x3000\n  9107: i32 a0 = a0 + 0xfffffffffffff940\n  9111: a1 = 0x4\n  9114: ecalli 2 // 'call_data_load'\n  9116: fallthrough\n      : @357 (gas: 8)\n  9117: a3 = s1 + 0x2918\n  9121: a0 = u64 [a3 + 0x40]\n  9124: a1 = u64 [a3 + 0x38]\n  9127: a2 = u64 [a3 + 0x30]\n  9130: a0 = a0 | a1\n  9133: a1 = a2 <u 0x1\n  9136: a1 = 0 if a0 != 0\n  9138: jump @359 if a1 != 0\n      : @358 (gas: 1)\n  9141: jump @807\n      : @359 (gas: 6)\n  9144: a0 = u64 [a3 + 0x28]\n  9147: u64 [s1 + 0x120] = a0\n  9151: a0 = s1 + 0x3000\n  9155: i32 a0 = a0 + 0xfffffffffffff960\n  9159: ecalli 9 // 'now'\n  9161: fallthrough\n      : @360 (gas: 49)\n  9162: a0 = s1 + 0x2918\n  9166: t2 = u64 [a0 + 0x60]\n  9169: a3 = u64 [a0 + 0x58]\n  9172: u64 [s1 + 0x150] = a3\n  9176: t0 = u64 [a0 + 0x50]\n  9179: ra = u64 [a0 + 0x48]\n  9182: a0 = clz t2\n  9184: a1 = clz a3\n  9186: a2 = a1 + 0x40\n  9189: a2 = a0 if t2 != 0\n  9192: a0 = clz t0\n  9194: a1 = clz ra\n  9196: a1 = a1 + 0x40\n  9199: a1 = a0 if t0 != 0\n  9202: a0 = a1 + 0x80\n  9206: a3 = a3 | t2\n  9209: a2 = a0 if a3 == 0\n  9212: a5 = a0 <u a1\n  9215: a5 = 0 if a3 != 0\n  9217: a4 = a5 >u 0\n  9219: a0 = a2 <u 0xf0\n  9223: a3 = a0 ^ 0x1\n  9226: a4 = a3 if a5 == 0\n  9229: a0 = a4 <u 0x1\n  9232: a0 = a0 + 0xffffffffffffffff\n  9235: a1 = -a4\n  9237: a5 = -a5\n  9239: a3 = a5 - a3\n  9242: t1 = 0xef - a2\n  9246: u64 [s1 + 0x198] = a1\n  9250: a5 = a1 >u 0\n  9252: a1 = a0 >u 0\n  9254: a1 = a5 if a0 == 0\n  9257: a5 = t1 <u 0x100\n  9261: a5 = a5 ^ 0x1\n  9264: a2 = a3 >u 0\n  9266: a5 = a2 if a3 != 0\n  9269: a5 = a1 if a4 != 0\n  9272: u64 [s1 + 0x140] = t2\n  9276: u64 [s1 + 0x158] = t0\n  9280: a1 = t0 | t2\n  9283: t2 = u64 [s1 + 0x150]\n  9287: a2 = ra | t2\n  9290: a1 = a1 | a2\n  9293: a1 = a1 <u 0x1\n  9296: a1 = a1 | a5\n  9299: a4 = ra\n  9301: a4 = 0 if a1 != 0\n  9303: jump @468 if a1 != 0\n      : @361 (gas: 6)\n  9307: a1 = t1 ^ 0xff\n  9311: a5 = u64 [s1 + 0x198]\n  9315: a1 = a1 | a5\n  9318: a2 = a3 | a0\n  9321: a1 = a1 | a2\n  9324: jump @468 if a1 == 0\n      : @362 (gas: 20)\n  9328: t0 = ra\n  9330: a2 = t1 + 0x1\n  9333: u64 [s1 + 0x190] = a2\n  9337: a1 = a2 <u 0x1\n  9340: a1 = a1 + a3\n  9343: u64 [s1 + 0x180] = a1\n  9347: a1 = a1 | a2\n  9350: a1 = a1 <u 0x1\n  9353: a1 = a1 + a5\n  9356: u64 [s1 + 0x170] = a1\n  9360: a1 = a1 <u a5\n  9363: a0 = a0 + a1\n  9366: u64 [s1 + 0x178] = a0\n  9370: a1 = 0xff - t1\n  9374: u64 [s1 + 0x168] = a1\n  9378: a2 = 0x80 - a1\n  9382: a0 = ra\n  9384: u64 [s1 + 0x148] = t0\n  9388: a1 = u64 [s1 + 0x158]\n  9392: ra = 330, jump @1552\n      : @363 [@dyn 165] (gas: 1)\n  9398: t0 = 332, jump @1547\n      : @364 [@dyn 166] (gas: 1)\n  9404: ra = 334, jump @1557\n      : @365 [@dyn 167] (gas: 7)\n  9410: u64 [s1 + 0x130] = a0\n  9414: u64 [s1 + 0x128] = a1\n  9418: a0 = u64 [s1 + 0x168]\n  9422: a2 = a0 + 0xffffffffffffff80\n  9425: a0 = u64 [s1 + 0x148]\n  9429: a1 = u64 [s1 + 0x158]\n  9433: ra = 336, jump @1557\n      : @366 [@dyn 168] (gas: 1)\n  9439: t0 = 338, jump @1550\n      : @367 [@dyn 169] (gas: 3)\n  9445: a0 = u64 [s1 + 0x148]\n  9449: a1 = u64 [s1 + 0x158]\n  9453: ra = 340, jump @1557\n      : @368 [@dyn 170] (gas: 11)\n  9459: a4 = u64 [s1 + 0x138]\n  9463: t0 = u64 [s1 + 0x170]\n  9467: a5 = u64 [s1 + 0x178]\n  9471: a2 = u64 [s1 + 0x180]\n  9475: a5 = a5 | a2\n  9478: a3 = u64 [s1 + 0x190]\n  9482: a3 = a3 | t0\n  9485: a3 = a3 | a5\n  9488: a0 = 0 if a4 == 0\n  9490: u64 [s1 + 0x188] = a0\n  9494: jump @455 if a3 != 0\n      : @369 (gas: 2)\n  9498: a4 = 0\n  9500: jump @467\n      : @370 (gas: 10)\n  9503: u64 [a2 + 1568] = 0\n  9507: u64 [a2 + 1560] = 0\n  9511: u64 [a2 + 1552] = 0\n  9515: u64 [a2 + 1544] = 0\n  9519: a0 = s1 + 0x2000\n  9523: i32 a0 = a0 + 0x720\n  9527: ra = 0x156\n  9531: ecalli 16 // 'value_transferred'\n  9533: t0 = 0x158\n  9537: jump @1543\n      : @371 [@dyn 171] (gas: 1)\n  9540: t0 = 344, jump @1543\n      : @372 [@dyn 172] (gas: 1)\n  9546: t0 = 346, jump @1512\n      : @373 [@dyn 173] (gas: 1)\n  9552: jump @375 if a0 == 0\n      : @374 (gas: 1)\n  9555: jump @808\n      : @375 (gas: 1)\n  9558: t0 = 348, jump @1532\n      : @376 [@dyn 174] (gas: 1)\n  9564: jump @378 if a1 <u a0\n      : @377 (gas: 1)\n  9567: jump @809\n      : @378 (gas: 4)\n  9570: a0 = s1 + 0x3a0\n  9574: ra = 0x15e\n  9578: t0 = 0x59e\n  9582: jump @1534\n      : @379 [@dyn 175] (gas: 11)\n  9585: a3 = s1 + 0x300\n  9589: a0 = u64 [a3 + 0xa0]\n  9593: a1 = u64 [a3 + 0xa8]\n  9597: a2 = u32 [s1 + 0x3b0]\n  9601: u64 [s1 + 920] = 0\n  9605: u64 [a3 + 0x90] = a2\n  9609: u64 [a3 + 0x88] = a1\n  9613: a1 = s1 + 0x380\n  9617: u64 [a3 + 0x80] = a0\n  9621: a0 = 0\n  9623: ra = 352, jump @24\n      : @380 [@dyn 176] (gas: 7)\n  9629: u64 [s1 + 888] = 0\n  9633: u64 [s1 + 880] = 0\n  9637: u64 [s1 + 872] = 0\n  9641: a0 = 0x20\n  9644: a1 = s1 + 0x360\n  9648: u64 [s1 + 864] = 0\n  9652: ra = 354, jump @24\n      : @381 [@dyn 177] (gas: 1)\n  9658: t0 = 356, jump @1523\n      : @382 [@dyn 178] (gas: 2)\n  9664: a1 = i32 [0x20170]\n  9669: jump @384 if a1 >u 63\n      : @383 (gas: 4)\n  9673: a1 = 0x40\n  9676: u32 [0x20170] = a1\n  9681: t0 = 0x166\n  9685: jump @1539\n      : @384 (gas: 1)\n  9688: t0 = 358, jump @1539\n      : @385 [@dyn 179] (gas: 25)\n  9694: a0 = 0x20180\n  9699: i32 a0 = a0 + 0\n  9701: i32 a2 = a2 + 0\n  9703: a1 = 0x40\n  9706: ecalli 8 // 'hash_keccak_256'\n  9708: a3 = u64 [s1 + 0x198]\n  9712: a0 = u64 [a3 + 0x18]\n  9715: a1 = u64 [a3 + 0x10]\n  9718: a2 = u64 [a3 + 0x8]\n  9721: a3 = u64 [a3]\n  9723: a5 = reverse a0\n  9725: u64 [s1 + 0x188] = a5\n  9729: a4 = reverse a1\n  9731: u64 [s1 + 0x190] = a4\n  9735: a2 = reverse a2\n  9737: u64 [s1 + 0x180] = a2\n  9741: a0 = reverse a3\n  9743: u64 [s1 + 0x198] = a0\n  9747: a1 = u64 [s1 + 0x178]\n  9751: u64 [a1 + 0x18] = a0\n  9754: u64 [a1 + 0x10] = a2\n  9757: u64 [a1 + 0x8] = a4\n  9760: u64 [a1] = a5\n  9762: a0 = s1 + 0x340\n  9766: ra = 360, jump @26\n      : @386 [@dyn 180] (gas: 29)\n  9772: a0 = u64 [s1 + 0x358]\n  9776: u64 [s1 + 0x178] = a0\n  9780: a0 = u64 [s1 + 0x350]\n  9784: u64 [s1 + 0x170] = a0\n  9788: a0 = u64 [s1 + 0x348]\n  9792: u64 [s1 + 0x168] = a0\n  9796: a0 = u64 [s1 + 0x340]\n  9800: u64 [s1 + 0x160] = a0\n  9804: a0 = u64 [s1 + 0x188]\n  9808: a0 = a0 + 0x1\n  9811: a1 = a0 <u 0x1\n  9814: a2 = u64 [s1 + 0x190]\n  9818: a1 = a1 + a2\n  9821: a2 = s1 + 0x2118\n  9825: a3 = a2 + 0x600\n  9829: u64 [a3 + 0x30] = a1\n  9832: a1 = a1 | a0\n  9835: u64 [a3 + 0x28] = a0\n  9838: a0 = a1 <u 0x1\n  9841: a1 = u64 [s1 + 0x180]\n  9845: a0 = a0 + a1\n  9848: u64 [a3 + 0x38] = a0\n  9851: a0 = a0 <u a1\n  9854: a1 = u64 [s1 + 0x198]\n  9858: a0 = a0 + a1\n  9861: u64 [a3 + 0x40] = a0\n  9864: a0 = s1 + 0x320\n  9868: a1 = s1 + 0x2740\n  9872: ra = 362, jump @26\n      : @387 [@dyn 181] (gas: 13)\n  9878: a0 = u64 [s1 + 0x338]\n  9882: u64 [s1 + 0x158] = a0\n  9886: a0 = u64 [s1 + 0x330]\n  9890: u64 [s1 + 0x150] = a0\n  9894: a0 = u64 [s1 + 0x328]\n  9898: u64 [s1 + 0x148] = a0\n  9902: a0 = u64 [s1 + 0x320]\n  9906: u64 [s1 + 0x140] = a0\n  9910: a1 = u64 [s1 + 0x188]\n  9914: a0 = a1 + 0x2\n  9917: a1 = a0 <u a1\n  9920: a3 = u64 [s1 + 0x190]\n  9924: t0 = 364, jump @1509\n      : @388 [@dyn 182] (gas: 14)\n  9930: a1 = u64 [s1 + 0x180]\n  9934: a3 = a3 + a1\n  9937: a1 = a3 <u a1\n  9940: a4 = u64 [s1 + 0x198]\n  9944: a1 = a1 + a4\n  9947: a4 = s1 + 0x2118\n  9951: a5 = a4 + 0x600\n  9955: u64 [a5 + 0x60] = a1\n  9958: u64 [a5 + 0x58] = a3\n  9961: u64 [a5 + 0x50] = a2\n  9964: u64 [a5 + 0x48] = a0\n  9967: a0 = s1 + 0x300\n  9971: a1 = s1 + 0x2760\n  9975: ra = 366, jump @26\n      : @389 [@dyn 183] (gas: 10)\n  9981: a5 = s1 + 0x300\n  9985: a0 = u64 [a5 + 0x18]\n  9988: u64 [s1 + 0x138] = a0\n  9992: a0 = u64 [a5 + 0x10]\n  9995: u64 [s1 + 0x130] = a0\n  9999: a1 = u64 [s1 + 0x188]\n 10003: a0 = a1 + 0x3\n 10006: a1 = a0 <u a1\n 10009: a3 = u64 [s1 + 0x190]\n 10013: t0 = 368, jump @1509\n      : @390 [@dyn 184] (gas: 18)\n 10019: a1 = u64 [a5 + 0x8]\n 10022: u64 [s1 + 0x188] = a1\n 10026: a1 = u64 [s1 + 0x180]\n 10030: a3 = a3 + a1\n 10033: a1 = a3 <u a1\n 10036: a4 = u64 [s1 + 0x198]\n 10040: a1 = a1 + a4\n 10043: a4 = u64 [a5]\n 10045: u64 [s1 + 0x180] = a4\n 10049: a4 = s1 + 0x2118\n 10053: a5 = a4 + 0x600\n 10057: u64 [a5 + 0x80] = a1\n 10061: u64 [a5 + 0x78] = a3\n 10064: u64 [a5 + 0x70] = a2\n 10067: u64 [a5 + 0x68] = a0\n 10070: a0 = s1 + 0x2e0\n 10074: a1 = s1 + 0x2780\n 10078: ra = 370, jump @26\n      : @391 [@dyn 185] (gas: 5)\n 10084: a0 = u64 [s1 + 0x2e0]\n 10088: u64 [s1 + 0x128] = a0\n 10092: a0 = s1 + 0x2c0\n 10096: a1 = 0x40\n 10099: ra = 372, jump @22\n      : @392 [@dyn 186] (gas: 13)\n 10105: a0 = s1 + 0x200\n 10109: a4 = u64 [a0 + 0xd8]\n 10113: a5 = u64 [a0 + 0xd0]\n 10117: a3 = u64 [a0 + 0xc8]\n 10121: a2 = u64 [a0 + 0xc0]\n 10125: a0 = a3 | a4\n 10128: a1 = a2 | a5\n 10131: a1 = a1 | a0\n 10134: a1 = a1 >> 0x20\n 10137: a0 = a0 | a5\n 10140: a0 = a0 << 0x20\n 10143: a0 = a0 | a1\n 10146: jump @394 if a0 == 0\n      : @393 (gas: 1)\n 10149: jump @745\n      : @394 (gas: 15)\n 10152: a0 = u64 [s1 + 0x160]\n 10156: u64 [s1 + 0x2a0] = a0\n 10160: a0 = u64 [s1 + 0x168]\n 10164: u64 [s1 + 0x2a8] = a0\n 10168: a0 = u64 [s1 + 0x170]\n 10172: u64 [s1 + 0x2b0] = a0\n 10176: a1 = s1 + 0x2a0\n 10180: a0 = u64 [s1 + 0x178]\n 10184: u64 [s1 + 0x2b8] = a0\n 10188: a0 = a2\n 10190: u64 [s1 + 0x198] = a2\n 10194: u64 [s1 + 0x190] = a3\n 10198: u64 [s1 + 0x178] = a4\n 10202: u64 [s1 + 0x170] = a5\n 10206: ra = 374, jump @24\n      : @395 [@dyn 187] (gas: 6)\n 10212: a5 = s1 + 0x100\n 10216: a1 = u64 [a5 + 0x98]\n 10220: a0 = u64 [a5 + 0x78]\n 10223: a3 = u64 [a5 + 0x70]\n 10226: a3 = a3 | a0\n 10229: t0 = 376, jump @1526\n      : @396 [@dyn 188] (gas: 1)\n 10235: jump @398 if a0 != 0\n      : @397 (gas: 1)\n 10238: jump @745\n      : @398 (gas: 14)\n 10241: i32 a0 = a1 + 0x20\n 10244: a1 = u64 [s1 + 0x140]\n 10248: a5 = s1 + 0x200\n 10252: u64 [a5 + 0x80] = a1\n 10256: a1 = u64 [s1 + 0x148]\n 10260: u64 [a5 + 0x88] = a1\n 10264: a1 = u64 [s1 + 0x150]\n 10268: u64 [a5 + 0x90] = a1\n 10272: a1 = s1 + 0x280\n 10276: a2 = u64 [s1 + 0x158]\n 10280: u64 [a5 + 0x98] = a2\n 10284: u64 [s1 + 0x178] = a3\n 10288: u64 [s1 + 0x170] = a4\n 10292: ra = 378, jump @24\n      : @399 [@dyn 189] (gas: 10)\n 10298: a2 = s1 + 0x100\n 10302: a4 = u64 [a2 + 0x78]\n 10305: a3 = u64 [a2 + 0x90]\n 10309: a1 = u64 [a2 + 0x98]\n 10313: a0 = u64 [a2 + 0x70]\n 10316: a0 = a0 + 0xffffffffffffffc0\n 10319: a0 = a1 <u a0\n 10322: a0 = 0 if a3 != 0\n 10324: a0 = 0 if a4 != 0\n 10326: jump @401 if a0 != 0\n      : @400 (gas: 1)\n 10329: jump @745\n      : @401 (gas: 12)\n 10332: i32 a0 = a1 + 0x40\n 10335: a1 = u64 [s1 + 0x180]\n 10339: a3 = s1 + 0x200\n 10343: u64 [a3 + 0x60] = a1\n 10346: a1 = u64 [s1 + 0x188]\n 10350: u64 [a3 + 0x68] = a1\n 10353: a1 = u64 [s1 + 0x130]\n 10357: u64 [a3 + 0x70] = a1\n 10360: a1 = s1 + 0x260\n 10364: a2 = u64 [s1 + 0x138]\n 10368: u64 [a3 + 0x78] = a2\n 10371: ra = 380, jump @24\n      : @402 [@dyn 190] (gas: 9)\n 10377: a3 = s1 + 0x100\n 10381: a2 = u64 [a3 + 0x98]\n 10385: a0 = 0xffffffa0\n 10395: a0 = a2 <u a0\n 10398: a1 = u64 [a3 + 0x90]\n 10402: a0 = 0 if a1 != 0\n 10404: a1 = u64 [a3 + 0x78]\n 10407: a0 = 0 if a1 != 0\n 10409: jump @404 if a0 != 0\n      : @403 (gas: 1)\n 10412: jump @745\n      : @404 (gas: 10)\n 10415: a0 = u64 [s1 + 0x128]\n 10419: a0 = a0 << 0x20\n 10422: a1 = a0 >> 0x20\n 10425: i32 a0 = a2 + 0x60\n 10428: u64 [s1 + 600] = 0\n 10432: u64 [s1 + 592] = 0\n 10436: u64 [s1 + 0x240] = a1\n 10440: a1 = s1 + 0x240\n 10444: u64 [s1 + 584] = 0\n 10448: ra = 382, jump @24\n      : @405 [@dyn 191] (gas: 3)\n 10454: a1 = 0x80\n 10458: a0 = u64 [s1 + 0x198]\n 10462: ra = 384, jump @37\n      : @406 [@dyn 192] (gas: 6)\n 10468: i32 a1 = a0 + 0\n 10470: a2 = 0x80\n 10474: a0 = 0\n 10476: ra = 0x34c\n 10480: ecalli 13 // 'seal_return'\n 10482: jump @844\n      : @407 (gas: 11)\n 10485: a0 = s1 + 0x2918\n 10489: u64 [a0 + 672] = 0\n 10493: u64 [a0 + 664] = 0\n 10497: u64 [a0 + 656] = 0\n 10501: u64 [a0 + 648] = 0\n 10505: a0 = s1 + 0x3000\n 10509: i32 a0 = a0 + 0xfffffffffffffba0\n 10513: ra = 0x182\n 10517: ecalli 16 // 'value_transferred'\n 10519: t0 = 0x184\n 10523: jump @1545\n      : @408 [@dyn 193] (gas: 1)\n 10526: t0 = 388, jump @1545\n      : @409 [@dyn 194] (gas: 1)\n 10532: t0 = 390, jump @1518\n      : @410 [@dyn 195] (gas: 1)\n 10538: jump @412 if a0 == 0\n      : @411 (gas: 1)\n 10541: jump @810\n      : @412 (gas: 3)\n 10544: a0 = u64 [s1 + 0x198]\n 10548: a0 = i32 [a0]\n 10550: jump @414 if a0 >u 67\n      : @413 (gas: 1)\n 10554: jump @811\n      : @414 (gas: 4)\n 10557: a0 = s1 + 0x16e0\n 10561: ra = 0x188\n 10565: t0 = 0x59e\n 10569: jump @1534\n      : @415 [@dyn 196] (gas: 13)\n 10572: a0 = s1 + 0x1118\n 10576: a2 = a0 + 0x500\n 10580: a1 = u64 [a2 + 0xd8]\n 10584: u64 [s1 + 0x168] = a1\n 10588: a1 = u64 [a2 + 0xd0]\n 10592: u64 [s1 + 0x198] = a1\n 10596: a0 = u64 [a2 + 0xc8]\n 10600: u64 [s1 + 0x190] = a0\n 10604: a0 = s1 + 0x3000\n 10608: i32 a0 = a0 + 0xfffffffffffffbc0\n 10612: a1 = 0x24\n 10615: ecalli 2 // 'call_data_load'\n 10617: fallthrough\n      : @416 (gas: 19)\n 10618: a0 = s1 + 0x2918\n 10622: a5 = a0 + 0x200\n 10626: a4 = u64 [a5 + 0xc0]\n 10630: a3 = u64 [a5 + 0xb8]\n 10634: a2 = u64 [a5 + 0xb0]\n 10638: a1 = u64 [a5 + 0xa8]\n 10642: a5 = s1 + 0x100\n 10646: u64 [a5 + 0x80] = a2\n 10650: u64 [a5 + 0x70] = a4\n 10653: a0 = a2 | a4\n 10656: u64 [a5 + 0x88] = a1\n 10660: a1 = a1 | a3\n 10663: a1 = a1 | a0\n 10666: a1 = a1 >> 0x20\n 10669: u64 [a5 + 0x78] = a3\n 10672: a0 = a0 | a3\n 10675: a0 = a0 << 0x20\n 10678: a0 = a0 | a1\n 10681: jump @418 if a0 == 0\n      : @417 (gas: 1)\n 10684: jump @812\n      : @418 (gas: 15)\n 10687: a3 = s1 + 0x100\n 10691: a0 = u64 [a3 + 0x68]\n 10694: a0 = a0 << 0x20\n 10697: a0 = a0 >> 0x20\n 10700: a2 = s1 + 0x1118\n 10704: u64 [a2 + 1472] = 0\n 10708: a1 = u64 [a3 + 0x90]\n 10712: a4 = a2 + 0x500\n 10716: u64 [a4 + 0xa8] = a1\n 10720: a1 = u64 [a3 + 0x98]\n 10724: u64 [a4 + 0xb0] = a1\n 10728: a1 = s1 + 0x16c0\n 10732: u64 [a4 + 0xb8] = a0\n 10736: a0 = 0\n 10738: ra = 394, jump @24\n      : @419 [@dyn 197] (gas: 9)\n 10744: a1 = s1 + 0x1118\n 10748: u64 [a1 + 1440] = 0\n 10752: u64 [a1 + 1432] = 0\n 10756: u64 [a1 + 1416] = 0x1\n 10761: a2 = a1\n 10763: a0 = 0x20\n 10766: a1 = s1 + 0x16a0\n 10770: u64 [a2 + 1424] = 0\n 10774: ra = 396, jump @24\n      : @420 [@dyn 198] (gas: 3)\n 10780: a1 = 0x20170\n 10785: a0 = i32 [0x20170]\n 10790: jump @422 if a0 >u 63\n      : @421 (gas: 2)\n 10794: u32 [0x20170] = 0x40\n 10800: fallthrough\n      : @422 (gas: 31)\n 10801: a0 = sp + 0xffffffffffffffe0\n 10804: a2 = a0 & 0xffffffffffffffe0\n 10807: u64 [s1 + 0x168] = a2\n 10811: sp = a2\n 10813: a0 = 0x20180\n 10818: i32 a0 = a0 + 0\n 10820: u64 [s1 + 0x198] = a1\n 10824: i32 a2 = a2 + 0\n 10826: a1 = 0x40\n 10829: u64 [s1 + 0x190] = a0\n 10833: ecalli 8 // 'hash_keccak_256'\n 10835: a3 = u64 [s1 + 0x168]\n 10839: a0 = u64 [a3 + 0x18]\n 10842: a1 = u64 [a3 + 0x10]\n 10845: a2 = u64 [a3 + 0x8]\n 10848: a3 = u64 [a3]\n 10850: a0 = reverse a0\n 10852: u64 [s1 + 0x160] = a0\n 10856: a0 = reverse a1\n 10858: u64 [s1 + 0x158] = a0\n 10862: a0 = reverse a2\n 10864: u64 [s1 + 0x150] = a0\n 10868: a0 = reverse a3\n 10870: u64 [s1 + 0x148] = a0\n 10874: a0 = sp + 0xffffffffffffffe0\n 10877: a0 = a0 & 0xffffffffffffffe0\n 10880: u64 [s1 + 0x168] = a0\n 10884: sp = a0\n 10886: t0 = 0x18e\n 10890: a2 = s1 + 0x1118\n 10894: fallthrough\n      : @423 [@dyn 199] (gas: 12)\n 10895: a0 = u64 [s1 + 0x170]\n 10899: a3 = a2 + 0x500\n 10903: u64 [a3 + 0x80] = a0\n 10907: a0 = u64 [s1 + 0x178]\n 10911: u64 [a3 + 0x78] = a0\n 10914: a0 = u64 [s1 + 0x180]\n 10918: u64 [a3 + 0x70] = a0\n 10921: a1 = s1 + 0x1680\n 10925: a0 = u64 [s1 + 0x188]\n 10929: u64 [a3 + 0x68] = a0\n 10932: a0 = 0\n 10934: ra = 400, jump @24\n      : @424 [@dyn 200] (gas: 14)\n 10940: a1 = s1 + 0x1118\n 10944: a0 = u64 [s1 + 0x148]\n 10948: a2 = a1 + 0x500\n 10952: u64 [a2 + 0x60] = a0\n 10955: a0 = u64 [s1 + 0x150]\n 10959: u64 [a2 + 0x58] = a0\n 10962: a0 = u64 [s1 + 0x158]\n 10966: u64 [a2 + 0x50] = a0\n 10969: a3 = a1\n 10971: a0 = 0x20\n 10974: a1 = s1 + 0x1660\n 10978: a2 = u64 [s1 + 0x160]\n 10982: u64 [a3 + 0x548] = a2\n 10986: ra = 402, jump @24\n      : @425 [@dyn 201] (gas: 3)\n 10992: a1 = u64 [s1 + 0x198]\n 10996: a0 = i32 [a1]\n 10998: jump @427 if a0 >u 63\n      : @426 (gas: 2)\n 11002: u32 [a1 + 0] = 0x40\n 11005: fallthrough\n      : @427 (gas: 4)\n 11006: a0 = sp + 0xffffffffffffffe0\n 11009: a0 = a0 & 0xffffffffffffffe0\n 11012: u64 [s1 + 0x188] = a0\n 11016: t0 = 404, jump @1469\n      : @428 [@dyn 202] (gas: 21)\n 11022: ecalli 8 // 'hash_keccak_256'\n 11024: a3 = u64 [s1 + 0x188]\n 11028: a0 = u64 [a3 + 0x18]\n 11031: a1 = u64 [a3 + 0x10]\n 11034: a2 = u64 [a3 + 0x8]\n 11037: a3 = u64 [a3]\n 11039: a5 = reverse a0\n 11041: u64 [s1 + 0xd8] = a5\n 11045: a4 = reverse a1\n 11047: u64 [s1 + 0xe0] = a4\n 11051: a2 = reverse a2\n 11053: u64 [s1 + 0xf0] = a2\n 11057: a0 = reverse a3\n 11059: u64 [s1 + 0xe8] = a0\n 11063: a1 = u64 [s1 + 0x168]\n 11067: u64 [a1 + 0x18] = a0\n 11070: u64 [a1 + 0x10] = a2\n 11073: u64 [a1 + 0x8] = a4\n 11076: u64 [a1] = a5\n 11078: a0 = s1 + 0x1640\n 11082: ra = 406, jump @26\n      : @429 [@dyn 203] (gas: 35)\n 11088: a1 = s1 + 0x1118\n 11092: a2 = a1 + 0x500\n 11096: a0 = u64 [a2 + 0x38]\n 11099: u64 [s1 + 0xc8] = a0\n 11103: a0 = u64 [a2 + 0x30]\n 11106: u64 [s1 + 0xc0] = a0\n 11110: a0 = u64 [a2 + 0x28]\n 11113: u64 [s1 + 0xd0] = a0\n 11117: a0 = sp + 0xffffffffffffffe0\n 11120: a4 = a0 & 0xffffffffffffffe0\n 11123: u64 [s1 + 0x188] = a4\n 11127: sp = a4\n 11129: a1 = u64 [s1 + 0xd8]\n 11133: a1 = a1 + 0x1\n 11136: a0 = a1 <u 0x1\n 11139: a2 = u64 [s1 + 0xe0]\n 11143: a2 = a2 + a0\n 11146: a0 = a1 | a2\n 11149: a0 = a0 <u 0x1\n 11152: a5 = u64 [s1 + 0xf0]\n 11156: a3 = a5 + a0\n 11159: a0 = a3 <u a5\n 11162: a5 = u64 [s1 + 0xe8]\n 11166: a0 = a0 + a5\n 11169: u64 [s1 + 0x180] = a0\n 11173: u64 [a4 + 0x18] = a0\n 11176: u64 [s1 + 0x168] = a3\n 11180: u64 [a4 + 0x10] = a3\n 11183: u64 [s1 + 0x170] = a2\n 11187: u64 [a4 + 0x8] = a2\n 11190: u64 [s1 + 0x178] = a1\n 11194: u64 [a4] = a1\n 11196: a0 = s1 + 0x1620\n 11200: a1 = 0x40\n 11203: ra = 408, jump @22\n      : @430 [@dyn 204] (gas: 13)\n 11209: a0 = s1 + 0x1118\n 11213: a2 = a0 + 0x500\n 11217: a1 = u64 [a2 + 0x20]\n 11220: u64 [s1 + 0x110] = a1\n 11224: a1 = u64 [a2 + 0x18]\n 11227: u64 [s1 + 0xf8] = a1\n 11231: a1 = u64 [a2 + 0x10]\n 11234: u64 [s1 + 0x100] = a1\n 11238: a1 = u64 [a2 + 0x8]\n 11241: u64 [s1 + 0x108] = a1\n 11245: a0 = s1 + 0x1600\n 11249: a1 = u64 [s1 + 0x188]\n 11253: ra = 410, jump @26\n      : @431 [@dyn 205] (gas: 17)\n 11259: a3 = s1 + 0x1118\n 11263: a0 = u64 [a3 + 0x500]\n 11267: a5 = a3 + 0x400\n 11271: a1 = u64 [a5 + 0xf8]\n 11275: a2 = u64 [a5 + 0xf0]\n 11279: a4 = u64 [a5 + 0xe8]\n 11283: u64 [s1 + 0x160] = a0\n 11287: u64 [a5 + 0xc0] = a0\n 11291: u64 [s1 + 0x130] = a1\n 11295: u64 [a5 + 0xb8] = a1\n 11299: u64 [s1 + 0x128] = a2\n 11303: u64 [a5 + 0xb0] = a2\n 11307: a0 = s1 + 0x15e0\n 11311: a1 = s1 + 0x15c0\n 11315: u64 [s1 + 0x188] = a4\n 11319: u64 [a5 + 0xa8] = a4\n 11323: ra = 412, jump @1314\n      : @432 [@dyn 206] (gas: 13)\n 11329: a3 = u64 [s1 + 0xf8]\n 11333: a4 = s1 + 0x100\n 11337: a1 = u64 [a4 + 0x10]\n 11340: a0 = u64 [a4 + 0x8]\n 11343: a2 = u64 [a4]\n 11345: a2 = a2 | a1\n 11348: a1 = a0 | a3\n 11351: a1 = a1 | a2\n 11354: a1 = a1 >> 0x20\n 11357: a2 = a2 | a3\n 11360: a2 = a2 << 0x20\n 11363: a1 = a1 | a2\n 11366: jump @434 if a1 == 0\n      : @433 (gas: 1)\n 11369: jump @745\n      : @434 (gas: 16)\n 11372: a5 = s1 + 0x1118\n 11376: t0 = u64 [a5 + 0x4e0]\n 11380: t1 = u64 [a5 + 0x4d8]\n 11384: a3 = a5 + 0x400\n 11388: a1 = u64 [a3 + 0xd0]\n 11392: a2 = u64 [a3 + 0xc8]\n 11396: u64 [s1 + 0x140] = a2\n 11400: u64 [a3 + 0x88] = a2\n 11404: u64 [s1 + 0x150] = a1\n 11408: u64 [a3 + 0x90] = a1\n 11412: u64 [s1 + 0x148] = t1\n 11416: u64 [a5 + 0x498] = t1\n 11420: a1 = s1 + 0x15a0\n 11424: u64 [s1 + 0x158] = t0\n 11428: u64 [a5 + 0x4a0] = t0\n 11432: ra = 414, jump @24\n      : @435 [@dyn 207] (gas: 9)\n 11438: a4 = u64 [s1 + 0xf8]\n 11442: a1 = u64 [s1 + 0x108]\n 11446: a0 = a1 + 0x20\n 11449: a5 = u64 [s1 + 0x188]\n 11453: a2 = a5 & 0x1\n 11456: a3 = u64 [s1 + 0x110]\n 11460: a3 = a3 | a4\n 11463: u64 [s1 + 0x138] = a0\n 11467: jump @560 if a2 != 0\n      : @436 (gas: 6)\n 11471: a2 = 0xffffffe0\n 11481: a2 = a1 <u a2\n 11484: a1 = u64 [s1 + 0x100]\n 11488: a2 = 0 if a1 != 0\n 11490: a2 = 0 if a3 != 0\n 11492: jump @438 if a2 != 0\n      : @437 (gas: 1)\n 11495: jump @745\n      : @438 (gas: 13)\n 11498: u64 [s1 + 0xb8] = a3\n 11502: a2 = a5 & 0xffffffffffffff00\n 11506: a3 = s1 + 0x1118\n 11510: a1 = u64 [s1 + 0x128]\n 11514: a4 = a3 + 0x400\n 11518: u64 [a4 + 0x10] = a1\n 11521: u64 [a4 + 0x8] = a2\n 11524: a1 = u64 [s1 + 0x130]\n 11528: u64 [a4 + 0x18] = a1\n 11531: a1 = s1 + 0x1520\n 11535: a2 = u64 [s1 + 0x160]\n 11539: u64 [a4 + 0x20] = a2\n 11542: ra = 416, jump @24\n      : @439 [@dyn 208] (gas: 16)\n 11548: a5 = s1 + 0x1118\n 11552: t2 = 0\n 11554: t1 = 0\n 11556: u64 [s1 + 400] = 0\n 11560: a3 = s1 + 0x100\n 11564: a0 = u64 [a3 + 0x48]\n 11567: a1 = u64 [a3 + 0x40]\n 11570: a0 = a0 | a1\n 11573: a1 = u64 [a3 + 0x58]\n 11576: a2 = u64 [a3 + 0x50]\n 11579: a1 = a1 | a2\n 11582: a0 = a0 | a1\n 11585: a0 = a0 >u 0\n 11587: a0 = a0 << 0x5\n 11590: u64 [a3 + 0x98] = a0\n 11594: jump @652\n      : @440 (gas: 1)\n 11597: jump @442 if a0 == 1641031603\n      : @441 (gas: 1)\n 11604: jump @825\n      : @442 (gas: 11)\n 11607: a0 = s1 + 0x2918\n 11611: u64 [a0 + 480] = 0\n 11615: u64 [a0 + 472] = 0\n 11619: u64 [a0 + 464] = 0\n 11623: u64 [a0 + 456] = 0\n 11627: a0 = s1 + 0x3000\n 11631: i32 a0 = a0 + 0xfffffffffffffae0\n 11635: ra = 0x1a2\n 11639: ecalli 16 // 'value_transferred'\n 11641: t0 = 0x1a4\n 11645: jump @1513\n      : @443 [@dyn 209] (gas: 1)\n 11648: t0 = 420, jump @1513\n      : @444 [@dyn 210] (gas: 1)\n 11654: t0 = 422, jump @1514\n      : @445 [@dyn 211] (gas: 1)\n 11660: jump @447 if a0 == 0\n      : @446 (gas: 1)\n 11663: jump @830\n      : @447 (gas: 3)\n 11666: a0 = u64 [s1 + 0x198]\n 11670: a0 = i32 [a0]\n 11672: jump @449 if a0 >u 3\n      : @448 (gas: 1)\n 11676: jump @831\n      : @449 (gas: 3)\n 11679: a0 = s1 + 0x10c0\n 11683: a1 = 0x40\n 11686: ra = 424, jump @22\n      : @450 [@dyn 212] (gas: 12)\n 11692: a0 = s1 + 0x7ff\n 11696: a0 = a0 + 0x119\n 11700: a2 = a0 + 0x700\n 11704: a1 = u64 [a2 + 0xc0]\n 11708: u64 [s1 + 0x198] = a1\n 11712: a1 = u64 [a2 + 0xb8]\n 11716: u64 [s1 + 0x190] = a1\n 11720: a1 = u64 [a2 + 0xb0]\n 11724: u64 [s1 + 0x180] = a1\n 11728: a0 = u64 [a2 + 0xa8]\n 11732: u64 [s1 + 0x188] = a0\n 11736: ra = 426, jump @15\n      : @451 [@dyn 213] (gas: 14)\n 11742: a4 = s1 + 0x100\n 11746: a0 = u64 [a4 + 0x98]\n 11750: a1 = u64 [a4 + 0x80]\n 11754: a0 = a0 | a1\n 11757: a1 = u64 [a4 + 0x88]\n 11761: a3 = a1\n 11763: a2 = u64 [a4 + 0x90]\n 11767: a1 = a1 | a2\n 11770: a1 = a1 | a0\n 11773: a1 = a1 >> 0x20\n 11776: a0 = a0 | a2\n 11779: a0 = a0 << 0x20\n 11782: a0 = a0 | a1\n 11785: jump @453 if a0 == 0\n      : @452 (gas: 1)\n 11788: jump @745\n      : @453 (gas: 13)\n 11791: a2 = u64 [0x301a0]\n 11796: a1 = u64 [0x301a8]\n 11801: a0 = u32 [0x301b0]\n 11806: a4 = s1 + 0x7ff\n 11810: a4 = a4 + 0x119\n 11814: u64 [a4 + 1952] = 0\n 11818: a5 = a4 + 0x700\n 11822: u64 [a5 + 0x98] = a0\n 11826: u64 [a5 + 0x90] = a1\n 11830: a1 = s1 + 0x10a0\n 11834: u64 [a5 + 0x88] = a2\n 11838: a0 = a3\n 11840: ra = 428, jump @24\n      : @454 [@dyn 214] (gas: 4)\n 11846: a1 = 0x20\n 11849: a0 = u64 [s1 + 0x188]\n 11853: ra = 0x34a\n 11857: jump @37\n      : @455 (gas: 1)\n 11860: t0 = 430, jump @1525\n      : @456 [@dyn 215] (gas: 12)\n 11866: t0 = u64 [s1 + 0x168]\n 11870: a3 = a0 if t0 != 0\n 11873: u64 [s1 + 0x198] = a3\n 11877: a0 = u64 [s1 + 0x160]\n 11881: a2 = u64 [s1 + 0x130]\n 11885: a0 = a0 | a2\n 11888: a2 = u64 [s1 + 0x118]\n 11892: a0 = a2 if a4 == 0\n 11895: a5 = u64 [s1 + 0x150]\n 11899: a3 = a5\n 11901: a3 = a0 if t0 != 0\n 11904: t0 = 432, jump @1500\n      : @457 [@dyn 216] (gas: 1)\n 11910: ra = 434, jump @1552\n      : @458 [@dyn 217] (gas: 6)\n 11916: u64 [s1 + 0x130] = a0\n 11920: u64 [s1 + 0x118] = a1\n 11924: a0 = u64 [s1 + 0x148]\n 11928: a1 = u64 [s1 + 0x158]\n 11932: a2 = u64 [s1 + 0x190]\n 11936: ra = 436, jump @1552\n      : @459 [@dyn 218] (gas: 1)\n 11942: t0 = 438, jump @1511\n      : @460 [@dyn 219] (gas: 1)\n 11948: ra = 440, jump @1557\n      : @461 [@dyn 220] (gas: 1)\n 11954: t0 = 442, jump @1515\n      : @462 [@dyn 221] (gas: 14)\n 11960: a2 = u64 [s1 + 0x158]\n 11964: a2 = a1 if a3 != 0\n 11967: u64 [s1 + 0x158] = a2\n 11971: a1 = u64 [s1 + 0x110]\n 11975: a0 = a0 | a1\n 11978: a1 = u64 [s1 + 0x130]\n 11982: a0 = a1 if a4 == 0\n 11985: a1 = u64 [s1 + 0x148]\n 11989: a1 = a0 if a3 != 0\n 11992: a2 = a3\n 11994: u64 [s1 + 0x148] = a1\n 11998: a0 = u64 [s1 + 0x150]\n 12002: a1 = u64 [s1 + 0x140]\n 12006: ra = 444, jump @1552\n      : @463 [@dyn 222] (gas: 1)\n 12012: t0 = 446, jump @1492\n      : @464 [@dyn 223] (gas: 3)\n 12018: t1 = u64 [s1 + 0x158]\n 12022: t2 = u64 [s1 + 0x148]\n 12026: fallthrough\n      : @465 (gas: 68)\n 12027: u64 [s1 + 0x158] = a4\n 12031: a2 = t2 >> 0x3f\n 12034: a3 = t1 << 0x1\n 12037: t0 = a3 | a2\n 12040: a3 = t2 << 0x1\n 12043: a4 = u64 [s1 + 0x198]\n 12047: a4 = a4 >> 0x3f\n 12050: a3 = a3 | a4\n 12053: u64 [s1 + 0x148] = a3\n 12057: a2 = u64 [s1 + 0x128]\n 12061: t2 = a1\n 12063: u64 [s1 + 0x150] = t0\n 12067: a1 = a2 ^ t0\n 12070: ra = t1\n 12072: t1 = a2 <u t0\n 12075: a4 = u64 [s1 + 0x130]\n 12079: t0 = a4 <u a3\n 12082: t0 = t1 if a1 != 0\n 12085: a1 = t2 << 0x1\n 12088: a3 = a0 >> 0x3f\n 12091: a1 = a1 | a3\n 12094: u64 [s1 + 0x140] = a1\n 12098: a3 = ra >> 0x3f\n 12101: a0 = a0 << 0x1\n 12104: a3 = a3 | a0\n 12107: a0 = u64 [s1 + 0x198]\n 12111: a0 = a0 << 0x1\n 12114: a4 = u64 [s1 + 0x160]\n 12118: a1 = a4 >> 0x3f\n 12121: ra = a0 | a1\n 12124: a1 = a4 << 0x1\n 12127: a4 = u64 [s1 + 0x168]\n 12131: t1 = a4 >> 0x3f\n 12134: t1 = a1 | t1\n 12137: a1 = a4 << 0x1\n 12140: a4 = u64 [s1 + 0x188]\n 12144: t2 = a4 >> 0x3f\n 12147: a1 = a1 | t2\n 12150: a4 = a4 << 0x1\n 12153: a0 = u64 [s1 + 0x158]\n 12157: a4 = a4 | a0\n 12160: u64 [s1 + 0x188] = a4\n 12164: a1 = a1 | a5\n 12167: u64 [s1 + 0x168] = a1\n 12171: a1 = a5 | t1\n 12174: u64 [s1 + 0x160] = a1\n 12178: a0 = a5 | ra\n 12181: u64 [s1 + 0x198] = a0\n 12185: a0 = a2 - a3\n 12188: a0 = a0 <u t0\n 12191: a1 = a2 <u a3\n 12194: t0 = u64 [s1 + 0x140]\n 12198: a4 = a2 - t0\n 12201: a4 = a4 - a1\n 12204: a4 = a4 - a0\n 12207: a5 = a4 >>a 0x3f\n 12210: a0 = u64 [s1 + 0x138]\n 12214: a0 = a0 & a5\n 12217: a1 = u64 [s1 + 0x148]\n 12221: t2 = a1 - a0\n 12224: a1 = a1 <u a0\n 12227: a0 = u64 [s1 + 0x150]\n 12231: t1 = a0 - a1\n 12234: a1 = 0 if a0 != 0\n 12236: a0 = a3 - a1\n 12239: a1 = a3 <u a1\n 12242: a1 = t0 - a1\n 12245: t0 = 448, jump @1541\n      : @466 [@dyn 224] (gas: 17)\n 12251: t0 = a4 <u a2\n 12254: a2 = a4 - a2\n 12257: a4 = a3 <u 0x1\n 12260: ra = ra - a4\n 12263: a4 = u64 [s1 + 0x178]\n 12267: a4 = a4 - t0\n 12270: a3 = a3 + 0xffffffffffffffff\n 12273: u64 [s1 + 0x180] = ra\n 12277: u64 [s1 + 0x178] = a4\n 12281: t0 = ra | a4\n 12284: u64 [s1 + 0x190] = a3\n 12288: a4 = a3 | a2\n 12291: a3 = a4 | t0\n 12294: a4 = a5 & 0x1\n 12297: u64 [s1 + 0x170] = a2\n 12301: a5 = 0\n 12303: jump @465 if a3 != 0\n      : @467 (gas: 4)\n 12307: a0 = u64 [s1 + 0x188]\n 12311: a0 = a0 << 0x1\n 12314: a4 = a4 | a0\n 12317: fallthrough\n      : @468 (gas: 3)\n 12318: a0 = a4 & 0xffffffffffffffff\n 12321: a1 = u64 [s1 + 0x120]\n 12325: jump @470 if a1 == a0\n      : @469 (gas: 1)\n 12328: jump @813\n      : @470 (gas: 8)\n 12331: a0 = 0x30180\n 12336: u64 [s1 + 0x150] = a0\n 12340: i32 a0 = a0 + 0\n 12342: u64 [s1 + 0x148] = a0\n 12346: ra = 0x1c2\n 12350: ecalli 4 // 'caller'\n 12352: t0 = 0x1c4\n 12356: jump @1468\n      : @471 [@dyn 225] (gas: 1)\n 12359: t0 = 452, jump @1468\n      : @472 [@dyn 226] (gas: 9)\n 12365: u64 [a2 + 1056] = 0\n 12369: a4 = a2 + 0x400\n 12373: u64 [a4 + 0x18] = a1\n 12376: u64 [a4 + 0x10] = a0\n 12379: a1 = s1 + 0x7ff\n 12383: a1 = a1 + 0x521\n 12387: u64 [a4 + 0x8] = a3\n 12390: a0 = 0\n 12392: ra = 454, jump @24\n      : @473 [@dyn 227] (gas: 11)\n 12398: a0 = s1 + 0x7ff\n 12402: a0 = a0 + 0x119\n 12406: u64 [a0 + 1024] = 0\n 12410: u64 [a0 + 1016] = 0\n 12414: u64 [a0 + 1008] = 0\n 12418: a2 = a0\n 12420: a0 = 0x20\n 12423: a1 = s1 + 0x7ff\n 12427: a1 = a1 + 0x501\n 12431: u64 [a2 + 1000] = 0\n 12435: ra = 456, jump @24\n      : @474 [@dyn 228] (gas: 7)\n 12441: a0 = sp + 0xffffffffffffffe0\n 12444: a0 = a0 & 0xffffffffffffffe0\n 12447: u64 [s1 + 0x128] = a0\n 12451: sp = a0\n 12453: a1 = 0x20170\n 12458: a0 = i32 [0x20170]\n 12463: jump @476 if a0 >u 63\n      : @475 (gas: 3)\n 12467: u32 [0x20170] = 0x40\n 12473: t0 = 0x1ca\n 12477: jump @1539\n      : @476 (gas: 1)\n 12480: t0 = 458, jump @1539\n      : @477 [@dyn 229] (gas: 30)\n 12486: a0 = 0x20180\n 12491: i32 a0 = a0 + 0\n 12493: i32 a2 = a2 + 0\n 12495: u64 [s1 + 0x188] = a1\n 12499: a1 = 0x40\n 12502: u64 [s1 + 0x190] = a0\n 12506: ecalli 8 // 'hash_keccak_256'\n 12508: a3 = u64 [s1 + 0x198]\n 12512: a0 = u64 [a3 + 0x18]\n 12515: a1 = u64 [a3 + 0x10]\n 12518: a2 = u64 [a3 + 0x8]\n 12521: a3 = u64 [a3]\n 12523: a5 = reverse a0\n 12525: a4 = reverse a1\n 12527: a1 = reverse a2\n 12529: a2 = reverse a3\n 12531: a0 = u64 [s1 + 0x128]\n 12535: u64 [s1 + 0x180] = a2\n 12539: u64 [a0 + 0x18] = a2\n 12542: u64 [s1 + 0x198] = a1\n 12546: u64 [a0 + 0x10] = a1\n 12549: u64 [s1 + 0x178] = a4\n 12553: u64 [a0 + 0x8] = a4\n 12556: u64 [s1 + 0x170] = a5\n 12560: u64 [a0] = a5\n 12562: a0 = u64 [s1 + 0x148]\n 12566: ra = 0x1cc\n 12570: ecalli 4 // 'caller'\n 12572: t0 = 0x1ce\n 12576: jump @1468\n      : @478 [@dyn 230] (gas: 1)\n 12579: t0 = 462, jump @1468\n      : @479 [@dyn 231] (gas: 9)\n 12585: u64 [a2 + 992] = 0\n 12589: a4 = a2 + 0x300\n 12593: u64 [a4 + 0xd8] = a1\n 12597: u64 [a4 + 0xd0] = a0\n 12601: a1 = s1 + 0x7ff\n 12605: a1 = a1 + 0x4e1\n 12609: u64 [a4 + 0xc8] = a3\n 12613: a0 = 0\n 12615: ra = 464, jump @24\n      : @480 [@dyn 232] (gas: 11)\n 12621: a1 = s1 + 0x7ff\n 12625: a1 = a1 + 0x119\n 12629: u64 [a1 + 960] = 0\n 12633: u64 [a1 + 952] = 0\n 12637: u64 [a1 + 936] = 0x2\n 12642: a2 = a1\n 12644: a0 = 0x20\n 12647: a1 = s1 + 0x7ff\n 12651: a1 = a1 + 0x4c1\n 12655: u64 [a2 + 944] = 0\n 12659: ra = 466, jump @24\n      : @481 [@dyn 233] (gas: 3)\n 12665: a1 = u64 [s1 + 0x188]\n 12669: a0 = i32 [a1]\n 12671: jump @483 if a0 >u 63\n      : @482 (gas: 2)\n 12675: u32 [a1 + 0] = 0x40\n 12678: fallthrough\n      : @483 (gas: 8)\n 12679: a1 = 0xffffffff00000000\n 12689: u64 [s1 + 0x130] = a1\n 12693: a0 = 0xffffffff\n 12703: u64 [s1 + 0x140] = a0\n 12707: a0 = sp + 0xffffffffffffffe0\n 12710: a0 = a0 & 0xffffffffffffffe0\n 12713: u64 [s1 + 0x168] = a0\n 12717: t0 = 468, jump @1469\n      : @484 [@dyn 234] (gas: 5)\n 12723: ra = 0x1d6\n 12727: ecalli 8 // 'hash_keccak_256'\n 12729: a3 = u64 [s1 + 0x168]\n 12733: t0 = 0x1d8\n 12737: jump @1502\n      : @485 [@dyn 235] (gas: 2)\n 12740: a3 = u64 [s1 + 0x168]\n 12744: t0 = 472, jump @1502\n      : @486 [@dyn 236] (gas: 8)\n 12750: u64 [a4 + 0x80] = a3\n 12754: u64 [a4 + 0x78] = a2\n 12757: u64 [a4 + 0x70] = a1\n 12760: u64 [a4 + 0x68] = a0\n 12763: a0 = s1 + 0x7ff\n 12767: a0 = a0 + 0x4a1\n 12771: a1 = s1 + 0x2980\n 12775: ra = 474, jump @26\n      : @487 [@dyn 237] (gas: 26)\n 12781: u64 [s1 + 272] = 0\n 12785: u64 [s1 + 280] = 0\n 12789: a4 = 0\n 12791: a0 = s1 + 0x7ff\n 12795: a0 = a0 + 0x119\n 12799: a0 = u32 [a0 + 0x388]\n 12803: a3 = s1 + 0x100\n 12807: u64 [a3 + 0x38] = a0\n 12810: a1 = u64 [a3 + 0x70]\n 12813: a1 = a1 + 0x1\n 12816: a0 = a1 <u 0x1\n 12819: a2 = u64 [a3 + 0x78]\n 12822: a0 = a0 + a2\n 12825: u64 [a3 + 0x8] = a1\n 12828: u64 [a3] = a0\n 12830: a0 = a0 | a1\n 12833: a0 = a0 <u 0x1\n 12836: a1 = u64 [a3 + 0x98]\n 12840: a0 = a0 + a1\n 12843: u64 [s1 + 0xf8] = a0\n 12847: a0 = a0 <u a1\n 12850: a1 = u64 [a3 + 0x80]\n 12854: a0 = a0 + a1\n 12857: u64 [s1 + 0xf0] = a0\n 12861: a3 = 0x1\n 12864: fallthrough\n      : @488 (gas: 9)\n 12865: a1 = 0\n 12867: a1 = 0 if a4 == 0\n 12869: a0 = u64 [s1 + 0x138]\n 12873: a0 = a0 <u a3\n 12876: a2 = 0\n 12878: a2 = a0 if a4 == 0\n 12881: a0 = 0\n 12883: a2 = a1 if a0 != 0\n 12886: jump @550 if a2 != 0\n      : @489 (gas: 7)\n 12890: u64 [s1 + 376] = 0\n 12894: u64 [s1 + 0x198] = a3\n 12898: a0 = u64 [s1 + 0x148]\n 12902: ra = 0x1dc\n 12906: ecalli 4 // 'caller'\n 12908: t0 = 0x1de\n 12912: jump @1468\n      : @490 [@dyn 238] (gas: 1)\n 12915: t0 = 478, jump @1468\n      : @491 [@dyn 239] (gas: 9)\n 12921: u64 [a2 + 896] = 0\n 12925: a4 = a2 + 0x300\n 12929: u64 [a4 + 0x78] = a1\n 12932: u64 [a4 + 0x70] = a0\n 12935: a1 = s1 + 0x7ff\n 12939: a1 = a1 + 0x481\n 12943: u64 [a4 + 0x68] = a3\n 12946: a0 = 0\n 12948: ra = 480, jump @24\n      : @492 [@dyn 240] (gas: 11)\n 12954: a0 = s1 + 0x7ff\n 12958: a0 = a0 + 0x119\n 12962: u64 [a0 + 864] = 0\n 12966: u64 [a0 + 856] = 0\n 12970: u64 [a0 + 848] = 0\n 12974: a3 = a0\n 12976: a0 = 0x20\n 12979: a1 = s1 + 0x7ff\n 12983: a1 = a1 + 0x461\n 12987: u64 [a3 + 840] = 0x1\n 12992: ra = 482, jump @24\n      : @493 [@dyn 241] (gas: 3)\n 12998: a1 = u64 [s1 + 0x188]\n 13002: a0 = i32 [a1]\n 13004: jump @495 if a0 >u 63\n      : @494 (gas: 2)\n 13008: u32 [a1 + 0] = 0x40\n 13011: fallthrough\n      : @495 (gas: 4)\n 13012: a0 = sp + 0xffffffffffffffe0\n 13015: a0 = a0 & 0xffffffffffffffe0\n 13018: u64 [s1 + 0x180] = a0\n 13022: t0 = 484, jump @1469\n      : @496 [@dyn 242] (gas: 4)\n 13028: ra = 0x1e6\n 13032: ecalli 8 // 'hash_keccak_256'\n 13034: t0 = 0x1e8\n 13038: jump @1477\n      : @497 [@dyn 243] (gas: 1)\n 13041: t0 = 488, jump @1477\n      : @498 [@dyn 244] (gas: 10)\n 13047: a3 = a2 + 0x300\n 13051: u64 [a3 + 0x40] = a0\n 13054: u64 [a3 + 0x38] = a0\n 13057: u64 [a3 + 0x30] = a0\n 13060: a1 = s1 + 0x7ff\n 13064: a1 = a1 + 0x441\n 13068: a0 = u64 [s1 + 0x198]\n 13072: u64 [a3 + 0x28] = a0\n 13075: a0 = 0\n 13077: ra = 490, jump @24\n      : @499 [@dyn 245] (gas: 1)\n 13083: t0 = 492, jump @1546\n      : @500 [@dyn 246] (gas: 2)\n 13089: a2 = a1 + 0x300\n 13093: t0 = 494, jump @1490\n      : @501 [@dyn 247] (gas: 4)\n 13099: a1 = a1 + 0x421\n 13103: a2 = u64 [s1 + 0x170]\n 13107: u64 [a3 + 0x308] = a2\n 13111: ra = 496, jump @24\n      : @502 [@dyn 248] (gas: 3)\n 13117: a1 = u64 [s1 + 0x188]\n 13121: a0 = i32 [a1]\n 13123: jump @504 if a0 >u 63\n      : @503 (gas: 2)\n 13127: u32 [a1 + 0] = 0x40\n 13130: fallthrough\n      : @504 (gas: 4)\n 13131: a0 = sp + 0xffffffffffffffe0\n 13134: a0 = a0 & 0xffffffffffffffe0\n 13137: u64 [s1 + 0x170] = a0\n 13141: t0 = 498, jump @1469\n      : @505 [@dyn 249] (gas: 5)\n 13147: ra = 0x1f4\n 13151: ecalli 8 // 'hash_keccak_256'\n 13153: a3 = u64 [s1 + 0x170]\n 13157: t0 = 0x1f6\n 13161: jump @1488\n      : @506 [@dyn 250] (gas: 2)\n 13164: a3 = u64 [s1 + 0x170]\n 13168: t0 = 502, jump @1488\n      : @507 [@dyn 251] (gas: 22)\n 13174: a4 = u64 [s1 + 0x180]\n 13178: u64 [a4 + 0x18] = a3\n 13181: u64 [a4 + 0x10] = a2\n 13184: u64 [a4 + 0x8] = a1\n 13187: u64 [a4] = a0\n 13189: a4 = a0 + 0x2\n 13192: a0 = a4 <u a0\n 13195: a5 = a1 + a0\n 13198: a1 = a5 <u a1\n 13201: a1 = a0 if a0 == 0\n 13204: a1 = a1 + a2\n 13207: a0 = a1 <u a2\n 13210: a0 = a0 + a3\n 13213: a2 = s1 + 0x2918\n 13217: u64 [a2 + 0x88] = a4\n 13221: u64 [a2 + 0x90] = a5\n 13225: u64 [a2 + 0x98] = a1\n 13229: u64 [a2 + 0xa0] = a0\n 13233: a0 = s1 + 0x7ff\n 13237: a0 = a0 + 0x401\n 13241: a1 = s1 + 0x29a0\n 13245: ra = 504, jump @26\n      : @508 [@dyn 252] (gas: 5)\n 13251: a0 = s1 + 0x7ff\n 13255: a0 = a0 + 0x119\n 13259: a0 = u64 [a0 + 0x2f0]\n 13263: a0 = a0 & 0xff\n 13267: jump @511 if a0 == 0\n      : @509 (gas: 2)\n 13270: a1 = u64 [s1 + 0x140]\n 13274: fallthrough\n      : @510 (gas: 5)\n 13275: a4 = 0\n 13277: a0 = u64 [s1 + 0x198]\n 13281: a0 = a0 + 0x1\n 13284: a3 = a0 & a1\n 13287: jump @488\n      : @511 (gas: 4)\n 13290: a0 = s1 + 0x7ff\n 13294: a0 = a0 + 0x3e1\n 13298: a1 = u64 [s1 + 0x180]\n 13302: ra = 506, jump @26\n      : @512 [@dyn 253] (gas: 13)\n 13308: a2 = s1 + 0x7ff\n 13312: a2 = a2 + 0x119\n 13316: a3 = a2 + 0x200\n 13320: a0 = u64 [a3 + 0xd0]\n 13324: a1 = u64 [a3 + 0xd8]\n 13328: a2 = u64 [a3 + 0xc8]\n 13332: a0 = a0 & 0xffffffffffffffff\n 13335: a1 = a1 & 0xffffffffffffffff\n 13338: a4 = u64 [s1 + 0x130]\n 13342: a2 = a2 & a4\n 13345: a1 = a1 | a2\n 13348: a0 = a0 | a1\n 13351: jump @509 if a0 == 0\n      : @513 (gas: 5)\n 13354: a0 = u64 [s1 + 0x148]\n 13358: ra = 0x1fc\n 13362: ecalli 4 // 'caller'\n 13364: t0 = 0x1fe\n 13368: jump @1468\n      : @514 [@dyn 254] (gas: 1)\n 13371: t0 = 510, jump @1468\n      : @515 [@dyn 255] (gas: 9)\n 13377: u64 [a2 + 704] = 0\n 13381: a4 = a2 + 0x200\n 13385: u64 [a4 + 0xb8] = a1\n 13389: u64 [a4 + 0xb0] = a0\n 13393: a1 = s1 + 0x7ff\n 13397: a1 = a1 + 0x3c1\n 13401: u64 [a4 + 0xa8] = a3\n 13405: a0 = 0\n 13407: ra = 512, jump @24\n      : @516 [@dyn 256] (gas: 11)\n 13413: a0 = s1 + 0x7ff\n 13417: a0 = a0 + 0x119\n 13421: u64 [a0 + 672] = 0\n 13425: u64 [a0 + 664] = 0\n 13429: u64 [a0 + 656] = 0\n 13433: a3 = a0\n 13435: a0 = 0x20\n 13438: a1 = s1 + 0x7ff\n 13442: a1 = a1 + 0x3a1\n 13446: u64 [a3 + 648] = 0x3\n 13451: ra = 514, jump @24\n      : @517 [@dyn 257] (gas: 3)\n 13457: a1 = u64 [s1 + 0x188]\n 13461: a0 = i32 [a1]\n 13463: jump @519 if a0 >u 63\n      : @518 (gas: 2)\n 13467: u32 [a1 + 0] = 0x40\n 13470: fallthrough\n      : @519 (gas: 4)\n 13471: a0 = sp + 0xffffffffffffffe0\n 13474: a0 = a0 & 0xffffffffffffffe0\n 13477: u64 [s1 + 0x180] = a0\n 13481: t0 = 516, jump @1469\n      : @520 [@dyn 258] (gas: 3)\n 13487: ra = 0x206\n 13491: ecalli 8 // 'hash_keccak_256'\n 13493: fallthrough\n      : @521 [@dyn 259] (gas: 8)\n 13494: a3 = u64 [s1 + 0x180]\n 13498: a0 = u64 [a3 + 0x18]\n 13501: a1 = u64 [a3 + 0x10]\n 13504: a2 = u64 [a3 + 0x8]\n 13507: a3 = u64 [a3]\n 13509: a0 = reverse a0\n 13511: u64 [s1 + 0x180] = a0\n 13515: t0 = 520, jump @1527\n      : @522 [@dyn 260] (gas: 11)\n 13521: a2 = s1 + 0x7ff\n 13525: a2 = a2 + 0x119\n 13529: u64 [a2 + 640] = 0\n 13533: u64 [a2 + 632] = 0\n 13537: u64 [a2 + 624] = 0\n 13541: a1 = s1 + 0x7ff\n 13545: a1 = a1 + 0x381\n 13549: a0 = u64 [s1 + 0x120]\n 13553: u64 [a2 + 0x268] = a0\n 13557: a0 = 0\n 13559: ra = 522, jump @24\n      : @523 [@dyn 261] (gas: 16)\n 13565: a0 = u64 [s1 + 0x160]\n 13569: a1 = s1 + 0x7ff\n 13573: a1 = a1 + 0x119\n 13577: a2 = a1 + 0x200\n 13581: u64 [a2 + 0x60] = a0\n 13584: a0 = u64 [s1 + 0x168]\n 13588: u64 [a2 + 0x58] = a0\n 13591: a0 = u64 [s1 + 0x170]\n 13595: u64 [a2 + 0x50] = a0\n 13598: a3 = a1\n 13600: a0 = 0x20\n 13603: a1 = s1 + 0x7ff\n 13607: a1 = a1 + 0x361\n 13611: a2 = u64 [s1 + 0x180]\n 13615: u64 [a3 + 0x248] = a2\n 13619: ra = 524, jump @24\n      : @524 [@dyn 262] (gas: 3)\n 13625: a1 = u64 [s1 + 0x188]\n 13629: a0 = i32 [a1]\n 13631: jump @526 if a0 >u 63\n      : @525 (gas: 2)\n 13635: u32 [a1 + 0] = 0x40\n 13638: fallthrough\n      : @526 (gas: 4)\n 13639: a0 = sp + 0xffffffffffffffe0\n 13642: a0 = a0 & 0xffffffffffffffe0\n 13645: u64 [s1 + 0x180] = a0\n 13649: t0 = 526, jump @1469\n      : @527 [@dyn 263] (gas: 4)\n 13655: ra = 0x210\n 13659: ecalli 8 // 'hash_keccak_256'\n 13661: t0 = 0x212\n 13665: jump @1477\n      : @528 [@dyn 264] (gas: 1)\n 13668: t0 = 530, jump @1477\n      : @529 [@dyn 265] (gas: 10)\n 13674: a3 = a2 + 0x200\n 13678: u64 [a3 + 0x40] = a0\n 13681: u64 [a3 + 0x38] = a0\n 13684: u64 [a3 + 0x30] = a0\n 13687: a1 = s1 + 0x7ff\n 13691: a1 = a1 + 0x341\n 13695: a0 = u64 [s1 + 0x198]\n 13699: u64 [a3 + 0x28] = a0\n 13702: a0 = 0\n 13704: ra = 532, jump @24\n      : @530 [@dyn 266] (gas: 1)\n 13710: t0 = 534, jump @1546\n      : @531 [@dyn 267] (gas: 2)\n 13716: a2 = a1 + 0x200\n 13720: t0 = 536, jump @1490\n      : @532 [@dyn 268] (gas: 4)\n 13726: a1 = a1 + 0x321\n 13730: a2 = u64 [s1 + 0x170]\n 13734: u64 [a3 + 0x208] = a2\n 13738: ra = 538, jump @24\n      : @533 [@dyn 269] (gas: 3)\n 13744: a1 = u64 [s1 + 0x188]\n 13748: a0 = i32 [a1]\n 13750: jump @535 if a0 >u 63\n      : @534 (gas: 2)\n 13754: u32 [a1 + 0] = 0x40\n 13757: fallthrough\n      : @535 (gas: 4)\n 13758: a0 = sp + 0xffffffffffffffe0\n 13761: a0 = a0 & 0xffffffffffffffe0\n 13764: u64 [s1 + 0x178] = a0\n 13768: t0 = 540, jump @1469\n      : @536 [@dyn 270] (gas: 5)\n 13774: ra = 0x21e\n 13778: ecalli 8 // 'hash_keccak_256'\n 13780: a3 = u64 [s1 + 0x178]\n 13784: t0 = 0x220\n 13788: jump @1497\n      : @537 [@dyn 271] (gas: 2)\n 13791: a3 = u64 [s1 + 0x178]\n 13795: t0 = 544, jump @1497\n      : @538 [@dyn 272] (gas: 3)\n 13801: a0 = s1 + 0x7ff\n 13805: a0 = a0 + 0x301\n 13809: ra = 546, jump @26\n      : @539 [@dyn 273] (gas: 5)\n 13815: a0 = s1 + 0x7ff\n 13819: a0 = a0 + 0x119\n 13823: a0 = u64 [a0 + 0x1e8]\n 13827: a0 = a0 & 0x1\n 13830: jump @509 if a0 != 0\n      : @540 (gas: 4)\n 13834: a0 = s1 + 0x7ff\n 13838: a0 = a0 + 0x2e1\n 13842: a1 = u64 [s1 + 0x128]\n 13846: ra = 548, jump @26\n      : @541 [@dyn 274] (gas: 17)\n 13852: a3 = s1 + 0x7ff\n 13856: a3 = a3 + 0x119\n 13860: a4 = a3 + 0x100\n 13864: a0 = u64 [a4 + 0xe0]\n 13868: a1 = u64 [a4 + 0xd8]\n 13872: a2 = u64 [a4 + 0xd0]\n 13876: t0 = u64 [a3 + 0x1c8]\n 13880: a4 = u64 [0x200a8]\n 13885: a5 = a0 >u 0\n 13887: a3 = a1 >u 0\n 13889: a3 = a5 if a0 != 0\n 13892: a4 = a4 <u t0\n 13895: a5 = a2 >u 0\n 13897: a5 = a4 if a2 == 0\n 13900: a4 = a1 | a0\n 13903: a5 = a3 if a4 != 0\n 13906: jump @543 if a5 != 0\n      : @542 (gas: 7)\n 13909: a2 = s1 + 0x100\n 13913: a0 = u64 [a2 + 0x10]\n 13916: a0 = a0 + 0x1\n 13919: a1 = u64 [a2 + 0x40]\n 13922: a0 = a0 & a1\n 13925: u64 [a2 + 0x10] = a0\n 13928: jump @510\n      : @543 (gas: 22)\n 13931: a3 = u64 [0x200b0]\n 13936: a3 = a3 + t0\n 13939: a4 = a3 <u t0\n 13942: a5 = a2 + a4\n 13945: a5 = a5 + 0xffffffffffffffff\n 13948: t0 = a5 ^ a2\n 13951: a2 = a5 <u a2\n 13954: a2 = a4 if t0 == 0\n 13957: a4 = a1 + 0xffffffffffffffff\n 13960: a2 = a2 + a4\n 13963: a4 = a2 <u a4\n 13966: a1 = a1 <u 0x1\n 13969: a0 = a0 - a1\n 13972: a0 = a0 + a4\n 13975: a1 = s1 + 0x2918\n 13979: u64 [a1 + 0xa8] = a3\n 13983: u64 [a1 + 0xb0] = a5\n 13987: u64 [a1 + 0xb8] = a2\n 13991: u64 [a1 + 0xc0] = a0\n 13995: a1 = s1 + 0x29c0\n 13999: a0 = u64 [s1 + 0x128]\n 14003: ra = 550, jump @28\n      : @544 [@dyn 275] (gas: 15)\n 14009: a0 = sp + 0xffffffffffffffe0\n 14012: a1 = a0 & 0xffffffffffffffe0\n 14015: u64 [s1 + 0x178] = a1\n 14019: sp = a1\n 14021: a0 = u64 [s1 + 0xf0]\n 14025: u64 [a1 + 0x18] = a0\n 14028: a0 = u64 [s1 + 0xf8]\n 14032: u64 [a1 + 0x10] = a0\n 14035: a0 = u64 [s1 + 0x100]\n 14039: u64 [a1 + 0x8] = a0\n 14042: a0 = u64 [s1 + 0x108]\n 14046: u64 [a1] = a0\n 14048: a0 = s1 + 0x7ff\n 14052: a0 = a0 + 0x2c1\n 14056: ra = 552, jump @26\n      : @545 [@dyn 276] (gas: 29)\n 14062: a0 = s1 + 0x7ff\n 14066: a0 = a0 + 0x119\n 14070: a0 = u64 [a0 + 0x1a8]\n 14074: a1 = u64 [0x200a0]\n 14079: a2 = s1 + 0x7ff\n 14083: a2 = a2 + 0x119\n 14087: a2 = u64 [a2 + 0x1c0]\n 14091: a3 = s1 + 0x7ff\n 14095: a3 = a3 + 0x119\n 14099: a3 = u64 [a3 + 0x1b0]\n 14103: a4 = s1 + 0x7ff\n 14107: a4 = a4 + 0x119\n 14111: a4 = u64 [a4 + 0x1b8]\n 14115: a1 = a1 + a0\n 14118: a0 = a1 <u a0\n 14121: a5 = a3 + a0\n 14124: a3 = a5 <u a3\n 14127: a3 = a0 if a0 == 0\n 14130: a3 = a3 + a4\n 14133: a0 = a3 <u a4\n 14136: a0 = a0 + a2\n 14139: a2 = s1 + 0x2918\n 14143: u64 [a2 + 0xc8] = a1\n 14147: u64 [a2 + 0xd0] = a5\n 14151: u64 [a2 + 0xd8] = a3\n 14155: u64 [a2 + 0xe0] = a0\n 14159: a1 = s1 + 0x29e0\n 14163: a0 = u64 [s1 + 0x178]\n 14167: ra = 554, jump @28\n      : @546 [@dyn 277] (gas: 9)\n 14173: a0 = u64 [s1 + 0x118]\n 14177: a0 = a0 + 0x1\n 14180: a1 = u64 [s1 + 0x140]\n 14184: a0 = a0 & a1\n 14187: u64 [s1 + 0x118] = a0\n 14191: a0 = s1 + 0x7ff\n 14195: a0 = a0 + 0x2a1\n 14199: a1 = u64 [s1 + 0x180]\n 14203: ra = 556, jump @26\n      : @547 [@dyn 278] (gas: 9)\n 14209: a0 = s1 + 0x7ff\n 14213: a0 = a0 + 0x119\n 14217: a0 = u64 [a0 + 0x188]\n 14221: a0 = a0 & 0xfe\n 14225: u64 [s1 + 0x178] = a0\n 14229: a0 = s1 + 0x7ff\n 14233: a0 = a0 + 0x281\n 14237: a1 = u64 [s1 + 0x180]\n 14241: ra = 558, jump @26\n      : @548 [@dyn 279] (gas: 24)\n 14247: a0 = s1 + 0x7ff\n 14251: a0 = a0 + 0x119\n 14255: a0 = u64 [a0 + 0x168]\n 14259: a1 = s1 + 0x7ff\n 14263: a1 = a1 + 0x119\n 14267: a1 = u64 [a1 + 0x170]\n 14271: a2 = s1 + 0x7ff\n 14275: a2 = a2 + 0x119\n 14279: a2 = u64 [a2 + 0x178]\n 14283: a3 = s1 + 0x7ff\n 14287: a3 = a3 + 0x119\n 14291: a3 = u64 [a3 + 0x180]\n 14295: a0 = a0 & 0xffffffffffffff00\n 14299: a4 = u64 [s1 + 0x178]\n 14303: a0 = a0 | a4\n 14306: a0 = a0 + 0x1\n 14309: a4 = s1 + 0x2918\n 14313: u64 [a4 + 0x100] = a3\n 14317: u64 [a4 + 0xf8] = a2\n 14321: u64 [a4 + 0xf0] = a1\n 14325: u64 [a4 + 0xe8] = a0\n 14329: a1 = s1 + 0x2a00\n 14333: a0 = u64 [s1 + 0x180]\n 14337: ra = 560, jump @28\n      : @549 [@dyn 280] (gas: 1)\n 14343: jump @509\n      : @550 (gas: 4)\n 14346: a0 = s1 + 0x7ff\n 14350: a0 = a0 + 0x261\n 14354: a1 = 0x40\n 14357: ra = 562, jump @22\n      : @551 [@dyn 281] (gas: 15)\n 14363: a2 = s1 + 0x7ff\n 14367: a2 = a2 + 0x119\n 14371: t0 = u64 [a2 + 0x160]\n 14375: a0 = a2 + 0x100\n 14379: a5 = u64 [a0 + 0x58]\n 14382: a4 = u64 [a0 + 0x50]\n 14385: a3 = u64 [a0 + 0x48]\n 14388: a0 = a4 | t0\n 14391: a1 = a3 | a5\n 14394: a1 = a1 | a0\n 14397: a1 = a1 >> 0x20\n 14400: a0 = a0 | a5\n 14403: a0 = a0 << 0x20\n 14406: a0 = a0 | a1\n 14409: jump @553 if a0 == 0\n      : @552 (gas: 1)\n 14412: jump @745\n      : @553 (gas: 15)\n 14415: a0 = u64 [s1 + 0x118]\n 14419: a1 = u64 [s1 + 0x140]\n 14423: a0 = a0 & a1\n 14426: u64 [a2 + 320] = 0\n 14430: u64 [a2 + 312] = 0\n 14434: u64 [a2 + 304] = 0\n 14438: a1 = s1 + 0x7ff\n 14442: a1 = a1 + 0x241\n 14446: u64 [a2 + 0x128] = a0\n 14450: a0 = a3\n 14452: u64 [s1 + 0x198] = a3\n 14456: u64 [s1 + 0x188] = a4\n 14460: u64 [s1 + 0x178] = t0\n 14464: u64 [s1 + 0x180] = a5\n 14468: ra = 564, jump @24\n      : @554 [@dyn 282] (gas: 11)\n 14474: a4 = s1 + 0x100\n 14478: a2 = u64 [a4 + 0x98]\n 14482: a0 = u64 [a4 + 0x80]\n 14486: a1 = u64 [a4 + 0x78]\n 14489: a0 = a0 | a1\n 14492: a1 = 0xffffffe0\n 14502: a1 = a2 <u a1\n 14505: a3 = u64 [a4 + 0x88]\n 14509: a1 = 0 if a3 != 0\n 14511: a1 = 0 if a0 != 0\n 14513: jump @556 if a1 != 0\n      : @555 (gas: 1)\n 14516: jump @745\n      : @556 (gas: 13)\n 14519: a0 = u64 [s1 + 0x110]\n 14523: a1 = u64 [s1 + 0x140]\n 14527: a1 = a1 & a0\n 14530: i32 a0 = a2 + 0x20\n 14533: a3 = s1 + 0x7ff\n 14537: a3 = a3 + 0x119\n 14541: u64 [a3 + 288] = 0\n 14545: u64 [a3 + 280] = 0\n 14549: u64 [a3 + 0x108] = a1\n 14553: a1 = s1 + 0x7ff\n 14557: a1 = a1 + 0x221\n 14561: u64 [a3 + 272] = 0\n 14565: ra = 566, jump @24\n      : @557 [@dyn 283] (gas: 6)\n 14571: a0 = u64 [s1 + 0x148]\n 14575: ra = 0x238\n 14579: ecalli 4 // 'caller'\n 14581: a2 = u64 [s1 + 0x150]\n 14585: t0 = 0x23a\n 14589: jump @1471\n      : @558 [@dyn 284] (gas: 2)\n 14592: a2 = u64 [s1 + 0x150]\n 14596: t0 = 570, jump @1471\n      : @559 [@dyn 285] (gas: 36)\n 14602: t0 = a1 | a0\n 14605: a3 = a3 >> 0x20\n 14608: a2 = reverse a2\n 14610: a1 = a2 << 0x20\n 14613: t1 = a1 | a3\n 14616: a2 = a2 >> 0x20\n 14619: a3 = u64 [0x200b8]\n 14624: a4 = u64 [0x200c0]\n 14629: a5 = u64 [0x200c8]\n 14634: a0 = u64 [s1 + 0x120]\n 14638: a1 = s1 + 0x7ff\n 14642: a1 = a1 + 0x119\n 14646: u64 [a1 + 0xa8] = a0\n 14650: u64 [a1 + 0x100] = a3\n 14654: u64 [a1 + 0xf8] = a4\n 14658: u64 [a1 + 0xf0] = a5\n 14662: a3 = u64 [0x200d0]\n 14667: u64 [a1 + 192] = 0\n 14671: u64 [a1 + 184] = 0\n 14675: u64 [a1 + 176] = 0\n 14679: u64 [a1 + 0xe8] = a3\n 14683: u64 [a1 + 0xd8] = a2\n 14687: u64 [a1 + 0xd0] = t1\n 14691: u64 [a1 + 0xc8] = t0\n 14695: a0 = a1\n 14697: a1 = 0x40\n 14700: a2 = s1 + 0x7ff\n 14704: a2 = a2 + 0x201\n 14708: a3 = s1 + 0x7ff\n 14712: a3 = a3 + 0x1e1\n 14716: a4 = s1 + 0x7ff\n 14720: a4 = a4 + 0x1c1\n 14724: u64 [a0 + 224] = 0\n 14728: a0 = u64 [s1 + 0x198]\n 14732: ra = 0x460\n 14736: jump @31\n      : @560 (gas: 24)\n 14739: u64 [s1 + 0xb8] = a3\n 14743: a0 = a0 <u a1\n 14746: a1 = u64 [s1 + 0x100]\n 14750: a2 = a1 + a0\n 14753: u64 [s1 + 0x128] = a2\n 14757: a1 = a2 <u a1\n 14760: a1 = a0 if a0 == 0\n 14763: a1 = a1 + a4\n 14766: u64 [s1 + 0x120] = a1\n 14770: a0 = a1 <u a4\n 14773: u64 [s1 + 0x188] = a0\n 14777: a0 = s1 + 0x1118\n 14781: a1 = u64 [s1 + 0x178]\n 14785: a3 = a0 + 0x400\n 14789: u64 [a3 + 0x68] = a1\n 14792: a1 = u64 [s1 + 0x170]\n 14796: u64 [a3 + 0x70] = a1\n 14799: a1 = u64 [s1 + 0x168]\n 14803: u64 [a3 + 0x78] = a1\n 14806: a1 = s1 + 0x1580\n 14810: a2 = u64 [s1 + 0x180]\n 14814: u64 [a3 + 0x80] = a2\n 14818: a0 = 0\n 14820: ra = 572, jump @24\n      : @561 [@dyn 286] (gas: 7)\n 14826: a0 = sp + 0xffffffffffffffe0\n 14829: a0 = a0 & 0xffffffffffffffe0\n 14832: u64 [s1 + 0x130] = a0\n 14836: sp = a0\n 14838: a2 = u64 [s1 + 0x198]\n 14842: a0 = i32 [a2]\n 14844: jump @563 if a0 >u 31\n      : @562 (gas: 2)\n 14848: u32 [a2 + 0] = 0x20\n 14851: fallthrough\n      : @563 (gas: 35)\n 14852: a0 = u64 [s1 + 0x110]\n 14856: a1 = u64 [s1 + 0x188]\n 14860: a0 = a0 + a1\n 14863: u64 [s1 + 0x118] = a0\n 14867: a0 = sp + 0xffffffffffffffe0\n 14870: a0 = a0 & 0xffffffffffffffe0\n 14873: u64 [s1 + 0x188] = a0\n 14877: sp = a0\n 14879: i32 a2 = a0 + 0\n 14881: a1 = 0x20\n 14884: a0 = u64 [s1 + 0x190]\n 14888: ecalli 8 // 'hash_keccak_256'\n 14890: u64 [s1 + 408] = 0\n 14894: t2 = 0\n 14896: t1 = 0\n 14898: u64 [s1 + 400] = 0\n 14902: a3 = u64 [s1 + 0x188]\n 14906: a0 = u64 [a3 + 0x18]\n 14909: a1 = u64 [a3 + 0x10]\n 14912: a2 = u64 [a3 + 0x8]\n 14915: a3 = u64 [a3]\n 14917: a0 = reverse a0\n 14919: a4 = reverse a1\n 14921: a5 = reverse a2\n 14923: a2 = reverse a3\n 14925: a1 = u64 [s1 + 0x130]\n 14929: a3 = a2\n 14931: u64 [a1 + 0x18] = a2\n 14934: u64 [s1 + 0x160] = a5\n 14938: u64 [a1 + 0x10] = a5\n 14941: ra = a4\n 14943: u64 [a1 + 0x8] = a4\n 14946: a2 = a0\n 14948: u64 [a1] = a0\n 14950: fallthrough\n      : @564 (gas: 22)\n 14951: a4 = s1 + 0x100\n 14955: u64 [a4 + 0x68] = a3\n 14958: u64 [s1 + 0x170] = ra\n 14962: u64 [a4 + 0x78] = a2\n 14965: a0 = u64 [a4 + 0x40]\n 14968: a2 = u64 [a4 + 0x98]\n 14972: a0 = a2 <u a0\n 14975: a2 = u64 [a4 + 0x50]\n 14978: a3 = t2 ^ a2\n 14981: a2 = t2 <u a2\n 14984: a2 = a0 if a3 == 0\n 14987: a0 = u64 [a4 + 0x48]\n 14990: t0 = t1 <u a0\n 14993: a3 = u64 [a4 + 0x58]\n 14996: a5 = u64 [a4 + 0x90]\n 15000: a4 = a5 ^ a3\n 15003: a3 = a5 <u a3\n 15006: a3 = t0 if a4 == 0\n 15009: a0 = t1 ^ a0\n 15012: a0 = a0 | a4\n 15015: a3 = a2 if a0 == 0\n 15018: jump @651 if a3 == 0\n      : @565 (gas: 4)\n 15022: a0 = s1 + 0x1560\n 15026: u64 [s1 + 0x188] = t1\n 15030: u64 [s1 + 0x180] = t2\n 15034: ra = 574, jump @26\n      : @566 [@dyn 287] (gas: 30)\n 15040: ra = u64 [s1 + 0x198]\n 15044: t2 = u64 [s1 + 0x180]\n 15048: t1 = u64 [s1 + 0x188]\n 15052: a1 = u64 [s1 + 0x138]\n 15056: a0 = a1 + ra\n 15059: a1 = a0 <u a1\n 15062: a4 = u64 [s1 + 0x128]\n 15066: a2 = a4 + t2\n 15069: a2 = a2 + a1\n 15072: a3 = a2 ^ a4\n 15075: a4 = a2 <u a4\n 15078: a4 = a1 if a3 == 0\n 15081: a3 = u64 [s1 + 0x120]\n 15085: a1 = a3 + t1\n 15088: t0 = a1 <u a3\n 15091: a5 = u64 [s1 + 0x118]\n 15095: a3 = u64 [s1 + 0x190]\n 15099: a5 = a5 + a3\n 15102: a3 = a5 + t0\n 15105: a4 = a4 + a1\n 15108: a1 = a4 <u a1\n 15111: a1 = a1 + a3\n 15114: a1 = a1 | a2\n 15117: a2 = a0 | a4\n 15120: a2 = a2 | a1\n 15123: a1 = a1 | a4\n 15126: a2 = a2 >> 0x20\n 15129: a1 = a1 << 0x20\n 15132: a1 = a1 | a2\n 15135: jump @568 if a1 == 0\n      : @567 (gas: 1)\n 15138: jump @745\n      : @568 (gas: 13)\n 15141: a5 = s1 + 0x1118\n 15145: a2 = u64 [a5 + 0x460]\n 15149: a1 = u64 [a5 + 0x458]\n 15153: a3 = u64 [a5 + 0x450]\n 15157: a4 = u64 [a5 + 0x448]\n 15161: u64 [a5 + 0x428] = a4\n 15165: a4 = a5 + 0x400\n 15169: u64 [a4 + 0x30] = a3\n 15172: u64 [a4 + 0x38] = a1\n 15175: a1 = s1 + 0x1540\n 15179: u64 [a4 + 0x40] = a2\n 15182: u64 [s1 + 0x198] = ra\n 15186: ra = 576, jump @24\n      : @569 [@dyn 288] (gas: 38)\n 15192: a5 = u64 [s1 + 0x178]\n 15196: a5 = a5 + 0x1\n 15199: a0 = a5 <u 0x1\n 15202: a3 = u64 [s1 + 0x170]\n 15206: a3 = a3 + a0\n 15209: a0 = a5 | a3\n 15212: a0 = a0 <u 0x1\n 15215: a1 = u64 [s1 + 0x160]\n 15219: t2 = a1 + a0\n 15222: a1 = t2 <u a1\n 15225: a0 = u64 [s1 + 0x168]\n 15229: a0 = a0 + a1\n 15232: a1 = u64 [s1 + 0x198]\n 15236: t1 = a1 + 0x20\n 15239: a2 = t1 <u a1\n 15242: a1 = u64 [s1 + 0x180]\n 15246: t0 = a1 + a2\n 15249: a4 = t0 <u a1\n 15252: a4 = a2 if a2 == 0\n 15255: a1 = u64 [s1 + 0x188]\n 15259: a4 = a4 + a1\n 15262: a2 = a4 <u a1\n 15265: a1 = u64 [s1 + 0x190]\n 15269: a1 = a1 + a2\n 15272: u64 [s1 + 0x190] = a1\n 15276: ra = a3\n 15278: a1 = u64 [s1 + 0x130]\n 15282: u64 [a1 + 0x8] = a3\n 15285: a2 = a5\n 15287: u64 [a1] = a5\n 15289: u64 [a1 + 0x10] = t2\n 15292: a3 = a0\n 15294: u64 [a1 + 0x18] = a0\n 15297: u64 [s1 + 0x160] = t2\n 15301: u64 [s1 + 0x198] = t1\n 15305: t2 = t0\n 15307: t1 = a4\n 15309: jump @564\n      : @570 (gas: 1)\n 15312: t0 = 578, jump @1525\n      : @571 [@dyn 289] (gas: 12)\n 15318: t0 = u64 [s1 + 0x168]\n 15322: a3 = a0 if t0 != 0\n 15325: u64 [s1 + 0x198] = a3\n 15329: a0 = u64 [s1 + 0x160]\n 15333: a2 = u64 [s1 + 0x130]\n 15337: a0 = a0 | a2\n 15340: a2 = u64 [s1 + 0x118]\n 15344: a0 = a2 if a4 == 0\n 15347: a5 = u64 [s1 + 0x150]\n 15351: a3 = a5\n 15353: a3 = a0 if t0 != 0\n 15356: t0 = 580, jump @1500\n      : @572 [@dyn 290] (gas: 1)\n 15362: ra = 582, jump @1552\n      : @573 [@dyn 291] (gas: 6)\n 15368: u64 [s1 + 0x130] = a0\n 15372: u64 [s1 + 0x118] = a1\n 15376: a0 = u64 [s1 + 0x158]\n 15380: a1 = u64 [s1 + 0x148]\n 15384: a2 = u64 [s1 + 0x190]\n 15388: ra = 584, jump @1552\n      : @574 [@dyn 292] (gas: 1)\n 15394: t0 = 586, jump @1511\n      : @575 [@dyn 293] (gas: 1)\n 15400: ra = 588, jump @1557\n      : @576 [@dyn 294] (gas: 1)\n 15406: t0 = 590, jump @1515\n      : @577 [@dyn 295] (gas: 14)\n 15412: a2 = u64 [s1 + 0x148]\n 15416: a2 = a1 if a3 != 0\n 15419: u64 [s1 + 0x148] = a2\n 15423: a1 = u64 [s1 + 0x110]\n 15427: a0 = a0 | a1\n 15430: a1 = u64 [s1 + 0x130]\n 15434: a0 = a1 if a4 == 0\n 15437: a1 = u64 [s1 + 0x158]\n 15441: a1 = a0 if a3 != 0\n 15444: a2 = a3\n 15446: u64 [s1 + 0x158] = a1\n 15450: a0 = u64 [s1 + 0x150]\n 15454: a1 = u64 [s1 + 0x140]\n 15458: ra = 592, jump @1552\n      : @578 [@dyn 296] (gas: 1)\n 15464: t0 = 594, jump @1492\n      : @579 [@dyn 297] (gas: 3)\n 15470: t1 = u64 [s1 + 0x148]\n 15474: t2 = u64 [s1 + 0x158]\n 15478: fallthrough\n      : @580 (gas: 68)\n 15479: u64 [s1 + 0x158] = a4\n 15483: a2 = t2 >> 0x3f\n 15486: a3 = t1 << 0x1\n 15489: t0 = a3 | a2\n 15492: a3 = t2 << 0x1\n 15495: a4 = u64 [s1 + 0x198]\n 15499: a4 = a4 >> 0x3f\n 15502: a3 = a3 | a4\n 15505: u64 [s1 + 0x148] = a3\n 15509: a2 = u64 [s1 + 0x128]\n 15513: t2 = a1\n 15515: u64 [s1 + 0x150] = t0\n 15519: a1 = a2 ^ t0\n 15522: ra = t1\n 15524: t1 = a2 <u t0\n 15527: a4 = u64 [s1 + 0x130]\n 15531: t0 = a4 <u a3\n 15534: t0 = t1 if a1 != 0\n 15537: a1 = t2 << 0x1\n 15540: a3 = a0 >> 0x3f\n 15543: a1 = a1 | a3\n 15546: u64 [s1 + 0x140] = a1\n 15550: a3 = ra >> 0x3f\n 15553: a0 = a0 << 0x1\n 15556: a3 = a3 | a0\n 15559: a0 = u64 [s1 + 0x198]\n 15563: a0 = a0 << 0x1\n 15566: a4 = u64 [s1 + 0x160]\n 15570: a1 = a4 >> 0x3f\n 15573: ra = a0 | a1\n 15576: a1 = a4 << 0x1\n 15579: a4 = u64 [s1 + 0x168]\n 15583: t1 = a4 >> 0x3f\n 15586: t1 = a1 | t1\n 15589: a1 = a4 << 0x1\n 15592: a4 = u64 [s1 + 0x188]\n 15596: t2 = a4 >> 0x3f\n 15599: a1 = a1 | t2\n 15602: a4 = a4 << 0x1\n 15605: a0 = u64 [s1 + 0x158]\n 15609: a4 = a4 | a0\n 15612: u64 [s1 + 0x188] = a4\n 15616: a1 = a1 | a5\n 15619: u64 [s1 + 0x168] = a1\n 15623: a1 = a5 | t1\n 15626: u64 [s1 + 0x160] = a1\n 15630: a0 = a5 | ra\n 15633: u64 [s1 + 0x198] = a0\n 15637: a0 = a2 - a3\n 15640: a0 = a0 <u t0\n 15643: a1 = a2 <u a3\n 15646: t0 = u64 [s1 + 0x140]\n 15650: a4 = a2 - t0\n 15653: a4 = a4 - a1\n 15656: a4 = a4 - a0\n 15659: a5 = a4 >>a 0x3f\n 15662: a0 = u64 [s1 + 0x138]\n 15666: a0 = a0 & a5\n 15669: a1 = u64 [s1 + 0x148]\n 15673: t2 = a1 - a0\n 15676: a1 = a1 <u a0\n 15679: a0 = u64 [s1 + 0x150]\n 15683: t1 = a0 - a1\n 15686: a1 = 0 if a0 != 0\n 15688: a0 = a3 - a1\n 15691: a1 = a3 <u a1\n 15694: a1 = t0 - a1\n 15697: t0 = 596, jump @1541\n      : @581 [@dyn 298] (gas: 17)\n 15703: t0 = a4 <u a2\n 15706: a2 = a4 - a2\n 15709: a4 = a3 <u 0x1\n 15712: ra = ra - a4\n 15715: a4 = u64 [s1 + 0x178]\n 15719: a4 = a4 - t0\n 15722: a3 = a3 + 0xffffffffffffffff\n 15725: u64 [s1 + 0x180] = ra\n 15729: u64 [s1 + 0x178] = a4\n 15733: t0 = ra | a4\n 15736: u64 [s1 + 0x190] = a3\n 15740: a4 = a3 | a2\n 15743: a3 = a4 | t0\n 15746: a4 = a5 & 0x1\n 15749: u64 [s1 + 0x170] = a2\n 15753: a5 = 0\n 15755: jump @580 if a3 != 0\n      : @582 (gas: 4)\n 15759: a0 = u64 [s1 + 0x188]\n 15763: a0 = a0 << 0x1\n 15766: a4 = a4 | a0\n 15769: fallthrough\n      : @583 (gas: 4)\n 15770: u64 [s1 + 0x170] = a4\n 15774: a0 = s1 + 0x24a0\n 15778: a1 = 0x40\n 15781: ra = 598, jump @22\n      : @584 [@dyn 299] (gas: 17)\n 15787: t0 = s1 + 0x2118\n 15791: t1 = u64 [t0 + 0x3a0]\n 15795: a0 = t0 + 0x300\n 15799: a5 = u64 [a0 + 0x98]\n 15803: a3 = u64 [a0 + 0x90]\n 15807: a4 = u64 [a0 + 0x88]\n 15811: a0 = t1 >u 0\n 15813: a1 = a5 >u 0\n 15815: a1 = a0 if t1 != 0\n 15818: a0 = a3 >u 0\n 15820: a2 = a4 <u 0xffffffffffffff60\n 15824: a2 = a2 ^ 0x1\n 15827: a2 = a0 if a3 != 0\n 15830: a0 = a5 | t1\n 15833: u64 [s1 + 0x178] = a0\n 15837: a2 = a1 if a0 != 0\n 15840: jump @586 if a2 == 0\n      : @585 (gas: 1)\n 15843: jump @818\n      : @586 (gas: 20)\n 15846: a0 = a4 + 0xa0\n 15850: a1 = a0 <u a4\n 15853: a2 = a3 + a1\n 15856: u64 [s1 + 0x198] = a3\n 15860: a3 = u64 [s1 + 0x198]\n 15864: a3 = a2 <u a3\n 15867: a3 = a1 if a1 == 0\n 15870: a3 = a3 + a5\n 15873: a1 = a3 <u a5\n 15876: u64 [s1 + 0x190] = a4\n 15880: a4 = t1 + a1\n 15883: u64 [t0 + 0x368] = a0\n 15887: u64 [t0 + 0x370] = a2\n 15891: u64 [t0 + 0x378] = a3\n 15895: a0 = 0x40\n 15898: a1 = s1 + 0x2480\n 15902: u64 [t0 + 0x380] = a4\n 15906: u64 [s1 + 0x180] = a5\n 15910: u64 [s1 + 0x188] = t1\n 15914: ra = 600, jump @24\n      : @587 [@dyn 300] (gas: 13)\n 15920: a5 = s1 + 0x100\n 15924: a2 = u64 [a5 + 0x90]\n 15928: a3 = u64 [a5 + 0x80]\n 15932: a0 = a2 | a3\n 15935: a1 = u64 [a5 + 0x98]\n 15939: a4 = u64 [a5 + 0x88]\n 15943: a1 = a1 | a4\n 15946: a0 = a0 | a1\n 15949: a0 = a0 >> 0x20\n 15952: a1 = a1 | a3\n 15955: a1 = a1 << 0x20\n 15958: a0 = a0 | a1\n 15961: jump @589 if a0 == 0\n      : @588 (gas: 1)\n 15964: jump @745\n      : @589 (gas: 12)\n 15967: a3 = s1 + 0x2118\n 15971: u64 [a3 + 864] = 0\n 15975: a0 = u64 [s1 + 0x100]\n 15979: a4 = a3 + 0x300\n 15983: u64 [a4 + 0x48] = a0\n 15986: a0 = u64 [s1 + 0xf8]\n 15990: u64 [a4 + 0x50] = a0\n 15993: a1 = s1 + 0x2460\n 15997: a0 = u64 [s1 + 0x108]\n 16001: u64 [a4 + 0x58] = a0\n 16004: a0 = a2\n 16006: ra = 602, jump @24\n      : @590 [@dyn 301] (gas: 3)\n 16012: a0 = u64 [s1 + 0xc8]\n 16016: ecalli 4 // 'caller'\n 16018: fallthrough\n      : @591 (gas: 9)\n 16019: a2 = s1 + 0x100\n 16023: a4 = u64 [a2 + 0x90]\n 16027: a0 = 0xffffffe0\n 16037: a0 = a4 <u a0\n 16040: a1 = u64 [a2 + 0x98]\n 16044: a0 = 0 if a1 != 0\n 16046: a1 = u64 [a2 + 0x78]\n 16049: a0 = 0 if a1 != 0\n 16051: jump @593 if a0 != 0\n      : @592 (gas: 1)\n 16054: jump @745\n      : @593 (gas: 24)\n 16057: a2 = u64 [s1 + 0xe8]\n 16061: a0 = u64 [a2 + 0x8]\n 16064: a1 = i32 [a2 + 0x10]\n 16067: a2 = u64 [a2]\n 16069: a0 = reverse a0\n 16071: a3 = a0 << 0x20\n 16074: a1 = reverse a1\n 16076: a1 = a1 >> 0x20\n 16079: a3 = a3 | a1\n 16082: a0 = a0 >> 0x20\n 16085: a1 = reverse a2\n 16087: a2 = a1 << 0x20\n 16090: a2 = a2 | a0\n 16093: a1 = a1 >> 0x20\n 16096: i32 a0 = a4 + 0x20\n 16099: a4 = s1 + 0x2118\n 16103: u64 [a4 + 832] = 0\n 16107: a5 = a4 + 0x300\n 16111: u64 [a5 + 0x38] = a1\n 16114: u64 [a5 + 0x30] = a2\n 16117: a1 = s1 + 0x2440\n 16121: u64 [a5 + 0x28] = a3\n 16124: u64 [s1 + 0x138] = a0\n 16128: ra = 604, jump @24\n      : @594 [@dyn 302] (gas: 13)\n 16134: a0 = u64 [s1 + 0xf0]\n 16138: a3 = s1 + 0x2118\n 16142: u64 [a3 + 0x300] = a0\n 16146: a0 = u64 [s1 + 0xb8]\n 16150: a4 = a3 + 0x200\n 16154: u64 [a4 + 0xf8] = a0\n 16158: a0 = u64 [s1 + 0xb0]\n 16162: u64 [a4 + 0xf0] = a0\n 16166: a0 = s1 + 0x2420\n 16170: a1 = s1 + 0x2400\n 16174: a2 = u64 [s1 + 0xc0]\n 16178: u64 [a4 + 0xe8] = a2\n 16182: ra = 606, jump @1437\n      : @595 [@dyn 303] (gas: 13)\n 16188: a0 = s1 + 0x2118\n 16192: a2 = a0 + 0x300\n 16196: a1 = u64 [a2 + 0x8]\n 16199: u64 [s1 + 0x158] = a1\n 16203: a1 = u64 [a2 + 0x10]\n 16206: u64 [s1 + 0x150] = a1\n 16210: a1 = u64 [a2 + 0x18]\n 16213: u64 [s1 + 0x148] = a1\n 16217: a1 = u64 [a2 + 0x20]\n 16220: u64 [s1 + 0x140] = a1\n 16224: a0 = s1 + 0x23e0\n 16228: a1 = 0x40\n 16231: ra = 608, jump @22\n      : @596 [@dyn 304] (gas: 26)\n 16237: a0 = s1 + 0x2118\n 16241: a3 = u64 [a0 + 0x2e0]\n 16245: u64 [s1 + 0x188] = a3\n 16249: a1 = u64 [a0 + 0x2d8]\n 16253: u64 [s1 + 0x180] = a1\n 16257: a5 = u64 [a0 + 0x2d0]\n 16261: u64 [s1 + 0x168] = a5\n 16265: a4 = u64 [a0 + 0x2c8]\n 16269: u64 [s1 + 0x160] = a4\n 16273: a2 = u64 [s1 + 0x140]\n 16277: u64 [a0 + 0x2a0] = a2\n 16281: a2 = u64 [s1 + 0x148]\n 16285: u64 [a0 + 0x298] = a2\n 16289: a2 = u64 [s1 + 0x150]\n 16293: u64 [a0 + 0x290] = a2\n 16297: a2 = u64 [s1 + 0x158]\n 16301: u64 [a0 + 0x288] = a2\n 16305: a2 = a0 + 0x200\n 16309: u64 [a2 + 0xc0] = a3\n 16313: u64 [a2 + 0xb8] = a1\n 16317: u64 [a2 + 0xb0] = a5\n 16321: a2 = a0\n 16323: a0 = s1 + 0x23c0\n 16327: a1 = s1 + 0x23a0\n 16331: u64 [a2 + 0x2a8] = a4\n 16335: ra = 610, jump @1323\n      : @597 [@dyn 305] (gas: 14)\n 16341: a2 = s1 + 0x100\n 16345: a1 = u64 [a2 + 0x68]\n 16348: a0 = u64 [a2 + 0x88]\n 16352: a0 = a0 | a1\n 16355: a1 = u64 [a2 + 0x60]\n 16358: a5 = a1\n 16360: a4 = u64 [a2 + 0x80]\n 16364: a1 = a1 | a4\n 16367: a1 = a1 | a0\n 16370: a1 = a1 >> 0x20\n 16373: a0 = a0 | a4\n 16376: a0 = a0 << 0x20\n 16379: a0 = a0 | a1\n 16382: jump @599 if a0 == 0\n      : @598 (gas: 1)\n 16385: jump @745\n      : @599 (gas: 13)\n 16388: a0 = s1 + 0x2118\n 16392: a1 = u64 [s1 + 0xc0]\n 16396: a2 = a0 + 0x200\n 16400: u64 [a2 + 0x68] = a1\n 16403: a1 = u64 [s1 + 0xb0]\n 16407: u64 [a2 + 0x70] = a1\n 16410: a1 = u64 [s1 + 0xb8]\n 16414: u64 [a2 + 0x78] = a1\n 16417: a1 = s1 + 0x2380\n 16421: a4 = u64 [s1 + 0xf0]\n 16425: u64 [a2 + 0x80] = a4\n 16429: a0 = a5\n 16431: ra = 612, jump @24\n      : @600 [@dyn 306] (gas: 10)\n 16437: a0 = u64 [s1 + 0x188]\n 16441: a3 = u64 [s1 + 0x180]\n 16445: a0 = a0 | a3\n 16448: a4 = 0xffffffe0\n 16458: a5 = u64 [s1 + 0x160]\n 16462: a1 = a5 <u a4\n 16465: a2 = u64 [s1 + 0x168]\n 16469: a1 = 0 if a2 != 0\n 16471: a1 = 0 if a0 != 0\n 16473: jump @602 if a1 != 0\n      : @601 (gas: 1)\n 16476: jump @745\n      : @602 (gas: 8)\n 16479: a0 = i32 [s1 + 0x120]\n 16483: u64 [s1 + 0x88] = a0\n 16487: a1 = u64 [s1 + 0xc0]\n 16491: i32 a0 = a1 + 0\n 16493: u64 [s1 + 0x90] = a0\n 16497: i32 a0 = a5 + 0x20\n 16500: u64 [s1 + 0x158] = a4\n 16504: ra = 614, jump @37\n      : @603 [@dyn 307] (gas: 5)\n 16510: i32 a0 = a0 + 0\n 16512: a1 = u64 [s1 + 0x90]\n 16516: a2 = u64 [s1 + 0x88]\n 16520: ecalli 1 // 'call_data_copy'\n 16522: fallthrough\n      : @604 (gas: 28)\n 16523: a4 = u64 [s1 + 0x168]\n 16527: t0 = u64 [s1 + 0xc0]\n 16531: a0 = u64 [s1 + 0x160]\n 16535: t0 = t0 + a0\n 16538: a1 = t0 <u a0\n 16541: a2 = u64 [s1 + 0xb0]\n 16545: a2 = a2 + a4\n 16548: a2 = a2 + a1\n 16551: a3 = a2 ^ a4\n 16554: a4 = a2 <u a4\n 16557: a4 = a1 if a3 == 0\n 16560: a1 = u64 [s1 + 0xb8]\n 16564: a0 = u64 [s1 + 0x180]\n 16568: a1 = a1 + a0\n 16571: a3 = a1 <u a0\n 16574: a5 = u64 [s1 + 0x188]\n 16578: a0 = u64 [s1 + 0xf0]\n 16582: a5 = a5 + a0\n 16585: a3 = a3 + a5\n 16588: a4 = a4 + a1\n 16591: a1 = a4 <u a1\n 16594: a1 = a1 + a3\n 16597: a1 = a1 | a4\n 16600: a0 = u64 [s1 + 0x158]\n 16604: a3 = t0 <u a0\n 16607: a3 = 0 if a2 != 0\n 16609: a3 = 0 if a1 != 0\n 16611: jump @606 if a3 != 0\n      : @605 (gas: 1)\n 16614: jump @745\n      : @606 (gas: 8)\n 16617: i32 a0 = t0 + 0x20\n 16620: a2 = s1 + 0x2118\n 16624: u64 [a2 + 608] = 0\n 16628: u64 [a2 + 600] = 0\n 16632: u64 [a2 + 592] = 0\n 16636: a1 = s1 + 0x2360\n 16640: u64 [a2 + 584] = 0\n 16644: ra = 616, jump @24\n      : @607 [@dyn 308] (gas: 10)\n 16650: a3 = 0x100000000\n 16660: a0 = 0xffffffc0\n 16670: a4 = s1 + 0x100\n 16674: a1 = u64 [a4 + 0x90]\n 16678: a0 = a1 <u a0\n 16681: a2 = u64 [a4 + 0x98]\n 16685: a0 = 0 if a2 != 0\n 16687: a2 = u64 [a4 + 0x78]\n 16690: a0 = 0 if a2 != 0\n 16692: jump @609 if a0 != 0\n      : @608 (gas: 1)\n 16695: jump @745\n      : @609 (gas: 16)\n 16698: i32 a0 = a1 + 0x40\n 16701: a1 = s1 + 0x2118\n 16705: u64 [s1 + 0x158] = a3\n 16709: a3 = a1\n 16711: a1 = u64 [s1 + 0x160]\n 16715: a4 = a3 + 0x200\n 16719: u64 [a4 + 0x28] = a1\n 16722: a1 = u64 [s1 + 0x168]\n 16726: u64 [a4 + 0x30] = a1\n 16729: a1 = u64 [s1 + 0x180]\n 16733: u64 [a4 + 0x38] = a1\n 16736: a1 = s1 + 0x2340\n 16740: a2 = u64 [s1 + 0x188]\n 16744: u64 [a4 + 0x40] = a2\n 16747: u64 [s1 + 0x188] = a0\n 16751: ra = 618, jump @24\n      : @610 [@dyn 309] (gas: 10)\n 16757: a4 = s1 + 0x100\n 16761: a2 = u64 [a4 + 0x78]\n 16764: a3 = u64 [a4 + 0x98]\n 16768: a1 = u64 [a4 + 0x90]\n 16772: a0 = u64 [a4 + 0x58]\n 16775: a0 = a0 + 0xffffffffffffffa0\n 16778: a0 = a1 <u a0\n 16781: a0 = 0 if a3 != 0\n 16783: a0 = 0 if a2 != 0\n 16785: jump @612 if a0 != 0\n      : @611 (gas: 1)\n 16788: jump @745\n      : @612 (gas: 10)\n 16791: i32 a0 = a1 + 0x60\n 16794: a4 = s1 + 0x2118\n 16798: u64 [a4 + 544] = 0\n 16802: u64 [a4 + 536] = 0\n 16806: u64 [a4 + 528] = 0\n 16810: a1 = s1 + 0x2320\n 16814: a2 = u64 [s1 + 0x170]\n 16818: u64 [a4 + 0x208] = a2\n 16822: u64 [s1 + 0x78] = a0\n 16825: ra = 620, jump @24\n      : @613 [@dyn 310] (gas: 9)\n 16831: a3 = s1 + 0x100\n 16835: a1 = u64 [a3 + 0x90]\n 16839: a0 = 0xffffff80\n 16849: a0 = a1 <u a0\n 16852: a2 = u64 [a3 + 0x98]\n 16856: a0 = 0 if a2 != 0\n 16858: a2 = u64 [a3 + 0x78]\n 16861: a0 = 0 if a2 != 0\n 16863: jump @615 if a0 != 0\n      : @614 (gas: 1)\n 16866: jump @745\n      : @615 (gas: 9)\n 16869: i32 a0 = a1 + 0x80\n 16873: a2 = s1 + 0x2118\n 16877: u64 [a2 + 512] = 0\n 16881: u64 [a2 + 504] = 0\n 16885: u64 [a2 + 496] = 0\n 16889: a1 = s1 + 0x2300\n 16893: u64 [a2 + 488] = 0\n 16897: u64 [s1 + 0x28] = a0\n 16900: ra = 622, jump @24\n      : @616 [@dyn 311] (gas: 6)\n 16906: a0 = u64 [s1 + 0xc8]\n 16910: ra = 0x270\n 16914: ecalli 4 // 'caller'\n 16916: a2 = u64 [s1 + 0xe8]\n 16920: t0 = 0x272\n 16924: jump @1473\n      : @617 [@dyn 312] (gas: 2)\n 16927: a2 = u64 [s1 + 0xe8]\n 16931: t0 = 626, jump @1473\n      : @618 [@dyn 313] (gas: 8)\n 16937: u64 [a2 + 480] = 0\n 16941: a4 = a2 + 0x100\n 16945: u64 [a4 + 0xd8] = a1\n 16949: u64 [a4 + 0xd0] = a0\n 16953: a1 = s1 + 0x22e0\n 16957: u64 [a4 + 0xc8] = a3\n 16961: a0 = 0\n 16963: ra = 628, jump @24\n      : @619 [@dyn 314] (gas: 9)\n 16969: a1 = s1 + 0x2118\n 16973: u64 [a1 + 448] = 0\n 16977: u64 [a1 + 440] = 0\n 16981: u64 [a1 + 424] = 0x1\n 16986: a2 = a1\n 16988: a0 = 0x20\n 16991: a1 = s1 + 0x22c0\n 16995: u64 [a2 + 432] = 0\n 16999: ra = 630, jump @24\n      : @620 [@dyn 315] (gas: 3)\n 17005: a1 = u64 [s1 + 0xa8]\n 17009: a0 = i32 [a1]\n 17011: jump @622 if a0 >u 63\n      : @621 (gas: 2)\n 17015: u32 [a1 + 0] = 0x40\n 17018: fallthrough\n      : @622 (gas: 12)\n 17019: a0 = 0xffffffff00000000\n 17029: u64 [s1 + 0x70] = a0\n 17032: a0 = sp + 0xffffffffffffffe0\n 17035: a0 = a0 & 0xffffffffffffffe0\n 17038: u64 [s1 + 0x198] = a0\n 17042: sp = a0\n 17044: i32 a2 = a0 + 0\n 17046: a1 = 0x40\n 17049: a0 = u64 [s1 + 0xa0]\n 17053: ra = 0x278\n 17057: ecalli 8 // 'hash_keccak_256'\n 17059: fallthrough\n      : @623 [@dyn 316] (gas: 14)\n 17060: a3 = u64 [s1 + 0x198]\n 17064: a0 = u64 [a3 + 0x18]\n 17067: a1 = u64 [a3 + 0x10]\n 17070: a2 = u64 [a3 + 0x8]\n 17073: a3 = u64 [a3]\n 17075: a0 = reverse a0\n 17077: u64 [s1 + 0x180] = a0\n 17081: a0 = reverse a1\n 17083: u64 [s1 + 0x178] = a0\n 17087: a0 = reverse a2\n 17089: u64 [s1 + 0x170] = a0\n 17093: a0 = reverse a3\n 17095: u64 [s1 + 0x168] = a0\n 17099: t0 = 634, jump @1522\n      : @624 [@dyn 317] (gas: 12)\n 17105: a2 = s1 + 0x2118\n 17109: u64 [a2 + 416] = 0\n 17113: a0 = u64 [s1 + 0x108]\n 17117: a3 = a2 + 0x100\n 17121: u64 [a3 + 0x98] = a0\n 17125: a0 = u64 [s1 + 0xf8]\n 17129: u64 [a3 + 0x90] = a0\n 17133: a1 = s1 + 0x22a0\n 17137: a0 = u64 [s1 + 0x100]\n 17141: u64 [a3 + 0x88] = a0\n 17145: a0 = 0\n 17147: ra = 636, jump @24\n      : @625 [@dyn 318] (gas: 15)\n 17153: a4 = s1 + 0x100\n 17157: a0 = u64 [a4 + 0x68]\n 17160: a1 = s1 + 0x2118\n 17164: a2 = a1 + 0x100\n 17168: u64 [a2 + 0x80] = a0\n 17172: a0 = u64 [a4 + 0x70]\n 17175: u64 [a2 + 0x78] = a0\n 17178: a0 = u64 [a4 + 0x78]\n 17181: u64 [a2 + 0x70] = a0\n 17184: a3 = a1\n 17186: a0 = 0x20\n 17189: a1 = s1 + 0x2280\n 17193: a2 = u64 [a4 + 0x80]\n 17197: u64 [a3 + 0x168] = a2\n 17201: ra = 638, jump @24\n      : @626 [@dyn 319] (gas: 3)\n 17207: a1 = u64 [s1 + 0xa8]\n 17211: a0 = i32 [a1]\n 17213: jump @628 if a0 >u 63\n      : @627 (gas: 2)\n 17217: u32 [a1 + 0] = 0x40\n 17220: fallthrough\n      : @628 (gas: 29)\n 17221: a0 = sp + 0xffffffffffffffe0\n 17224: a0 = a0 & 0xffffffffffffffe0\n 17227: u64 [s1 + 0x180] = a0\n 17231: sp = a0\n 17233: i32 a2 = a0 + 0\n 17235: a1 = 0x40\n 17238: a0 = u64 [s1 + 0xa0]\n 17242: ecalli 8 // 'hash_keccak_256'\n 17244: a3 = u64 [s1 + 0x180]\n 17248: a0 = u64 [a3 + 0x18]\n 17251: a1 = u64 [a3 + 0x10]\n 17254: a2 = u64 [a3 + 0x8]\n 17257: a3 = u64 [a3]\n 17259: a5 = reverse a0\n 17261: u64 [s1 + 0x50] = a5\n 17264: a4 = reverse a1\n 17266: u64 [s1 + 0x58] = a4\n 17269: a1 = reverse a2\n 17271: u64 [s1 + 0x68] = a1\n 17274: a0 = reverse a3\n 17276: u64 [s1 + 0x60] = a0\n 17279: a2 = u64 [s1 + 0x198]\n 17283: u64 [a2 + 0x18] = a0\n 17286: u64 [a2 + 0x10] = a1\n 17289: u64 [a2 + 0x8] = a4\n 17292: u64 [a2] = a5\n 17294: a0 = s1 + 0x2260\n 17298: a1 = u64 [s1 + 0x190]\n 17302: ra = 640, jump @22\n      : @629 [@dyn 320] (gas: 8)\n 17308: a0 = s1 + 0x2118\n 17312: a0 = u64 [a0 + 0x148]\n 17316: a1 = u64 [s1 + 0xe0]\n 17320: a0 = a0 & a1\n 17323: u64 [s1 + 0x190] = a0\n 17327: a0 = s1 + 0x2240\n 17331: a1 = u64 [s1 + 0x198]\n 17335: ra = 642, jump @26\n      : @630 [@dyn 321] (gas: 7)\n 17341: a3 = s1 + 0x2118\n 17345: a4 = a3 + 0x100\n 17349: a0 = u64 [a4 + 0x30]\n 17352: a1 = u64 [a4 + 0x38]\n 17355: a2 = u64 [a4 + 0x40]\n 17358: a3 = u64 [a4 + 0x28]\n 17361: t0 = 644, jump @1517\n      : @631 [@dyn 322] (gas: 8)\n 17367: a5 = a4 + 0x400\n 17371: u64 [a5 + 0xa0] = a2\n 17375: u64 [a5 + 0x98] = a1\n 17379: u64 [a5 + 0x90] = a0\n 17383: u64 [a5 + 0x88] = a3\n 17387: a1 = s1 + 0x2da0\n 17391: a0 = u64 [s1 + 0x198]\n 17395: ra = 646, jump @28\n      : @632 [@dyn 323] (gas: 3)\n 17401: a0 = s1 + 0x2220\n 17405: a1 = u64 [s1 + 0x138]\n 17409: ra = 648, jump @22\n      : @633 [@dyn 324] (gas: 11)\n 17415: a0 = s1 + 0x2118\n 17419: a2 = a0 + 0x100\n 17423: a1 = u64 [a2 + 0x18]\n 17426: u64 [s1 + 0x190] = a1\n 17430: a1 = u64 [a2 + 0x10]\n 17433: u64 [s1 + 0x180] = a1\n 17437: a1 = u64 [a2 + 0x8]\n 17440: u64 [s1 + 0x178] = a1\n 17444: a0 = s1 + 0x2200\n 17448: a1 = u64 [s1 + 0x198]\n 17452: ra = 650, jump @26\n      : @634 [@dyn 325] (gas: 23)\n 17458: a1 = s1 + 0x2118\n 17462: a0 = u64 [a1 + 0x100]\n 17466: a1 = u32 [a1 + 0xe8]\n 17470: a5 = u64 [s1 + 0x178]\n 17474: a2 = a5 >> 0x20\n 17477: a4 = u64 [s1 + 0x180]\n 17481: a3 = a4 << 0x20\n 17484: a2 = a2 | a3\n 17487: a3 = a4 >> 0x20\n 17490: a4 = u64 [s1 + 0x190]\n 17494: a4 = a4 << 0x20\n 17497: a3 = a3 | a4\n 17500: a4 = a5 << 0x20\n 17503: a1 = a1 | a4\n 17506: a4 = s1 + 0x2918\n 17510: a5 = a4 + 0x400\n 17514: u64 [a5 + 0xb8] = a3\n 17518: u64 [a5 + 0xb0] = a2\n 17522: u64 [a5 + 0xc0] = a0\n 17526: u64 [a5 + 0xa8] = a1\n 17530: a1 = s1 + 0x2dc0\n 17534: a0 = u64 [s1 + 0x198]\n 17538: ra = 652, jump @28\n      : @635 [@dyn 326] (gas: 27)\n 17544: a0 = sp + 0xffffffffffffffe0\n 17547: a1 = a0 & 0xffffffffffffffe0\n 17550: sp = a1\n 17552: a2 = u64 [s1 + 0x50]\n 17555: a2 = a2 + 0x1\n 17558: a0 = a2 <u 0x1\n 17561: a3 = u64 [s1 + 0x58]\n 17564: a3 = a3 + a0\n 17567: a0 = a2 | a3\n 17570: a0 = a0 <u 0x1\n 17573: a5 = u64 [s1 + 0x68]\n 17576: a4 = a5 + a0\n 17579: a0 = a4 <u a5\n 17582: a5 = u64 [s1 + 0x60]\n 17585: a0 = a0 + a5\n 17588: u64 [s1 + 0x148] = a0\n 17592: u64 [a1 + 0x18] = a0\n 17595: u64 [s1 + 0x138] = a4\n 17599: u64 [a1 + 0x10] = a4\n 17602: u64 [s1 + 0x140] = a3\n 17606: u64 [a1 + 0x8] = a3\n 17609: u64 [s1 + 0x40] = a1\n 17612: u64 [s1 + 0x150] = a2\n 17616: u64 [a1] = a2\n 17618: a0 = s1 + 0x21e0\n 17622: a1 = u64 [s1 + 0x188]\n 17626: ra = 654, jump @22\n      : @636 [@dyn 327] (gas: 17)\n 17632: a0 = s1 + 0x2118\n 17636: a3 = u64 [a0 + 0xe0]\n 17640: a4 = u64 [a0 + 0xd8]\n 17644: a2 = u64 [a0 + 0xd0]\n 17648: a1 = u64 [a0 + 0xc8]\n 17652: a5 = s1 + 0x100\n 17656: u64 [a5 + 0x30] = a2\n 17659: u64 [a5 + 0x28] = a3\n 17662: a0 = a2 | a3\n 17665: a2 = a1 | a4\n 17668: a2 = a2 | a0\n 17671: a2 = a2 >> 0x20\n 17674: u64 [a5 + 0x20] = a4\n 17677: a0 = a0 | a4\n 17680: a0 = a0 << 0x20\n 17683: a0 = a0 | a2\n 17686: jump @638 if a0 == 0\n      : @637 (gas: 1)\n 17689: jump @745\n      : @638 (gas: 3)\n 17692: a0 = s1 + 0x21c0\n 17696: u64 [s1 + 0x118] = a1\n 17700: ra = 656, jump @22\n      : @639 [@dyn 328] (gas: 17)\n 17706: a2 = s1 + 0x2118\n 17710: a4 = u64 [a2 + 0xc0]\n 17714: a3 = u64 [a2 + 0xb8]\n 17718: a1 = u64 [a2 + 0xb0]\n 17722: a0 = a4 >u 0\n 17724: a5 = a3 >u 0\n 17726: a5 = a0 if a4 != 0\n 17729: u64 [s1 + 0x48] = a1\n 17732: a0 = a1 >u 0\n 17734: u64 [s1 + 0x38] = a3\n 17737: u64 [s1 + 0x30] = a4\n 17740: a3 = a3 | a4\n 17743: u64 [s1 + 0x10] = a0\n 17746: u64 [s1 + 0x18] = a5\n 17749: u64 [s1 + 0x110] = a3\n 17753: a0 = a5 if a3 != 0\n 17756: jump @641 if a0 == 0\n      : @640 (gas: 1)\n 17759: jump @844\n      : @641 (gas: 5)\n 17762: a0 = u64 [a2 + 0xa8]\n 17766: u64 [s1 + 0x80] = a0\n 17770: a0 = s1 + 0x21a0\n 17774: a1 = u64 [s1 + 0x40]\n 17777: ra = 658, jump @26\n      : @642 [@dyn 329] (gas: 12)\n 17783: a4 = s1 + 0x2118\n 17787: a2 = u64 [a4 + 0x88]\n 17791: a0 = u64 [a4 + 0x90]\n 17795: a1 = u64 [a4 + 0x98]\n 17799: a3 = u64 [a4 + 0xa0]\n 17803: u64 [a4 + 0x60] = a3\n 17806: u64 [a4 + 0x58] = a1\n 17809: u64 [a4 + 0x50] = a0\n 17812: a0 = s1 + 0x2180\n 17816: a1 = s1 + 0x2160\n 17820: u64 [a4 + 0x48] = a2\n 17823: ra = 660, jump @1314\n      : @643 [@dyn 330] (gas: 22)\n 17829: a0 = s1 + 0x2118\n 17833: a3 = u64 [a0 + 0x80]\n 17837: a4 = u64 [a0 + 0x78]\n 17840: a5 = u64 [a0 + 0x70]\n 17843: a2 = u64 [a0 + 0x68]\n 17846: a0 = a3 >u 0\n 17848: a1 = a4 >u 0\n 17850: a1 = a0 if a3 != 0\n 17853: a0 = a5 >u 0\n 17855: u64 [s1 + 0x178] = a2\n 17859: a2 = a2 <u 0x20\n 17862: a2 = a2 ^ 0x1\n 17865: u64 [s1 + 0x180] = a5\n 17869: a2 = a0 if a5 != 0\n 17872: u64 [s1 + 0x188] = a3\n 17876: u64 [s1 + 0x190] = a4\n 17880: a0 = a4 | a3\n 17883: a2 = a1 if a0 != 0\n 17886: a0 = u64 [s1 + 0x80]\n 17890: a0 = a0 <u 0x20\n 17893: u64 [s1 + 0x20] = a0\n 17896: jump @679 if a2 == 0\n      : @644 (gas: 13)\n 17900: a0 = s1 + 0x2118\n 17904: a3 = s1 + 0x100\n 17908: a1 = u64 [a3 + 0x50]\n 17911: u64 [a0 + 0x28] = a1\n 17914: a1 = u64 [a3 + 0x40]\n 17917: u64 [a0 + 0x30] = a1\n 17920: a1 = u64 [a3 + 0x38]\n 17923: u64 [a0 + 0x38] = a1\n 17926: a1 = s1 + 0x2140\n 17930: a2 = u64 [a3 + 0x48]\n 17933: u64 [a0 + 0x40] = a2\n 17936: a0 = 0\n 17938: ra = 662, jump @24\n      : @645 [@dyn 331] (gas: 3)\n 17944: a0 = u64 [s1 + 0xa8]\n 17948: a0 = i32 [a0]\n 17950: jump @647 if a0 >u 31\n      : @646 (gas: 3)\n 17954: a1 = u64 [s1 + 0xa8]\n 17958: u32 [a1 + 0] = 0x20\n 17961: fallthrough\n      : @647 (gas: 117)\n 17962: a0 = sp + 0xffffffffffffffe0\n 17965: a0 = a0 & 0xffffffffffffffe0\n 17968: u64 [s1 + 0x168] = a0\n 17972: sp = a0\n 17974: i32 a2 = a0 + 0\n 17976: a1 = 0x20\n 17979: a0 = u64 [s1 + 0xa0]\n 17983: ecalli 8 // 'hash_keccak_256'\n 17985: a0 = u64 [s1 + 0x80]\n 17989: a1 = a0 + 0x1f\n 17992: a0 = a1 <u a0\n 17995: a5 = u64 [s1 + 0x48]\n 17998: a2 = a5 + a0\n 18001: a3 = a2 <u a5\n 18004: a3 = a0 if a0 == 0\n 18007: a4 = u64 [s1 + 0x38]\n 18010: a3 = a3 + a4\n 18013: u64 [s1 + 0x160] = a3\n 18017: a3 = a3 << 0x3b\n 18020: a4 = a2 >> 0x5\n 18023: a4 = a4 | a3\n 18026: a0 = u64 [s1 + 0x168]\n 18030: t0 = u64 [a0 + 0x18]\n 18033: a2 = a2 << 0x3b\n 18036: a0 = u64 [a0 + 0x10]\n 18039: a1 = a1 >> 0x5\n 18042: a2 = a2 | a1\n 18045: t2 = reverse t0\n 18047: a0 = reverse a0\n 18049: a1 = u64 [s1 + 0x20]\n 18052: a1 = 0 if a5 != 0\n 18054: a3 = u64 [s1 + 0x110]\n 18058: a1 = 0 if a3 != 0\n 18060: a4 = 0 if a1 != 0\n 18062: a2 = 0 if a1 != 0\n 18064: t0 = t2 + a2\n 18067: a2 = t0 <u t2\n 18070: a5 = a0 + a2\n 18073: a4 = a4 + a5\n 18076: u64 [s1 + 0x198] = a4\n 18080: a5 = a4 ^ a0\n 18083: a3 = a4 <u a0\n 18086: a3 = a2 if a5 == 0\n 18089: u64 [s1 + 0x158] = a3\n 18093: a2 = u64 [s1 + 0x178]\n 18097: ra = a2 + 0x1f\n 18100: a4 = ra <u a2\n 18103: a3 = u64 [s1 + 0x180]\n 18107: a2 = a3 + a4\n 18110: a5 = a2 <u a3\n 18113: a5 = a4 if a4 == 0\n 18116: t1 = u64 [s1 + 0x190]\n 18120: t1 = t1 + a5\n 18123: a4 = t1 << 0x3b\n 18126: a3 = a2 >> 0x5\n 18129: a3 = a3 | a4\n 18132: a2 = a2 << 0x3b\n 18135: a4 = ra >> 0x5\n 18138: a2 = a2 | a4\n 18141: a2 = a2 + t2\n 18144: u64 [s1 + 0x178] = a2\n 18148: a4 = a2 <u t2\n 18151: t2 = t0\n 18153: a2 = a0 + a4\n 18156: a2 = a2 + a3\n 18159: a3 = a2 ^ a0\n 18162: u64 [s1 + 0x170] = a2\n 18166: a2 = a2 <u a0\n 18169: a2 = a4 if a3 == 0\n 18172: a4 = u64 [s1 + 0x160]\n 18176: a0 = u64 [s1 + 0x38]\n 18179: a0 = a4 <u a0\n 18182: a3 = u64 [s1 + 0x30]\n 18185: a0 = a0 + a3\n 18188: a3 = a4 >> 0x5\n 18191: a4 = a0 << 0x3b\n 18194: a3 = a3 | a4\n 18197: a4 = u64 [s1 + 0x168]\n 18201: t0 = u64 [a4]\n 18203: a4 = u64 [a4 + 0x8]\n 18206: a0 = a0 >> 0x5\n 18209: a3 = 0 if a1 != 0\n 18211: a0 = 0 if a1 != 0\n 18213: a1 = reverse a4\n 18215: a4 = reverse t0\n 18217: a0 = a0 + a4\n 18220: a3 = a3 + a1\n 18223: a5 = a3 <u a1\n 18226: a0 = a0 + a5\n 18229: ra = u64 [s1 + 0x158]\n 18233: ra = ra + a3\n 18236: a3 = ra <u a3\n 18239: t0 = a0 + a3\n 18242: a0 = u64 [s1 + 0x190]\n 18246: a0 = t1 <u a0\n 18249: a3 = u64 [s1 + 0x188]\n 18253: a0 = a0 + a3\n 18256: a3 = t1 >> 0x5\n 18259: a5 = a0 << 0x3b\n 18262: a3 = a3 | a5\n 18265: a0 = a0 >> 0x5\n 18268: a0 = a0 + a4\n 18271: a5 = s1 + 0x100\n 18275: a4 = u64 [a5 + 0x98]\n 18279: a3 = a3 + a1\n 18282: a1 = a3 <u a1\n 18285: a0 = a0 + a1\n 18288: a2 = a2 + a3\n 18291: u64 [a5 + 0x68] = a2\n 18294: a1 = a2 <u a3\n 18297: a0 = a0 + a1\n 18300: u64 [a5 + 0x60] = a0\n 18303: a0 = sp + 0xffffffffffffffe0\n 18306: t1 = a0 & 0xffffffffffffffe0\n 18309: sp = t1\n 18311: u64 [s1 + 0x158] = t1\n 18315: fallthrough\n      : @648 (gas: 24)\n 18316: a0 = u64 [s1 + 0x178]\n 18320: a0 = t2 <u a0\n 18323: a2 = u64 [s1 + 0x170]\n 18327: a1 = a4 ^ a2\n 18330: a2 = a4 <u a2\n 18333: a2 = a0 if a1 == 0\n 18336: a5 = u64 [s1 + 0x168]\n 18340: a0 = ra <u a5\n 18343: a3 = u64 [s1 + 0x160]\n 18347: a1 = t0 ^ a3\n 18350: a3 = t0 <u a3\n 18353: a3 = a0 if a1 == 0\n 18356: a0 = ra ^ a5\n 18359: a0 = a0 | a1\n 18362: a3 = a2 if a0 == 0\n 18365: u64 [s1 + 0x190] = t2\n 18369: u64 [t1] = t2\n 18371: u64 [s1 + 0x198] = a4\n 18375: u64 [t1 + 0x8] = a4\n 18378: u64 [s1 + 0x180] = ra\n 18382: u64 [t1 + 0x10] = ra\n 18385: u64 [s1 + 0x188] = t0\n 18389: u64 [t1 + 0x18] = t0\n 18392: jump @679 if a3 == 0\n      : @649 (gas: 8)\n 18396: a0 = s1 + 0x2918\n 18400: u64 [a0 + 1248] = 0\n 18404: u64 [a0 + 1240] = 0\n 18408: u64 [a0 + 1232] = 0\n 18412: u64 [a0 + 1224] = 0\n 18416: a1 = s1 + 0x2de0\n 18420: a0 = t1\n 18422: ra = 664, jump @28\n      : @650 [@dyn 332] (gas: 15)\n 18428: t1 = u64 [s1 + 0x158]\n 18432: t2 = u64 [s1 + 0x190]\n 18436: t2 = t2 + 0x1\n 18439: a0 = t2 <u 0x1\n 18442: a4 = u64 [s1 + 0x198]\n 18446: a4 = a4 + a0\n 18449: a0 = t2 | a4\n 18452: a0 = a0 <u 0x1\n 18455: a1 = u64 [s1 + 0x180]\n 18459: a0 = a0 + a1\n 18462: a1 = a0 <u a1\n 18465: t0 = u64 [s1 + 0x188]\n 18469: t0 = t0 + a1\n 18472: ra = a0\n 18474: jump @648\n      : @651 (gas: 2)\n 18477: a5 = s1 + 0x1118\n 18481: fallthrough\n      : @652 (gas: 25)\n 18482: a1 = u64 [s1 + 0x198]\n 18486: a0 = a1 + 0x20\n 18489: a1 = a0 <u a1\n 18492: a2 = t2 + a1\n 18495: a3 = a2 <u t2\n 18498: a3 = a1 if a1 == 0\n 18501: a3 = a3 + t1\n 18504: a1 = a3 <u t1\n 18507: a4 = u64 [s1 + 0x190]\n 18511: a4 = a4 + a1\n 18514: a1 = u64 [s1 + 0x108]\n 18518: u64 [a5 + 0x3e8] = a1\n 18522: u64 [a5 + 0x3c8] = a0\n 18526: a0 = u64 [s1 + 0x100]\n 18530: u64 [a5 + 0x3f0] = a0\n 18534: a0 = u64 [s1 + 0xf8]\n 18538: u64 [a5 + 0x3f8] = a0\n 18542: u64 [a5 + 0x3d0] = a2\n 18546: a0 = u64 [s1 + 0x110]\n 18550: u64 [a5 + 0x400] = a0\n 18554: u64 [a5 + 0x3d8] = a3\n 18558: a0 = s1 + 0x1500\n 18562: a1 = s1 + 0x14e0\n 18566: u64 [a5 + 0x3e0] = a4\n 18570: ra = 666, jump @1323\n      : @653 [@dyn 333] (gas: 5)\n 18576: a1 = u64 [s1 + 0xd8]\n 18580: a0 = a1 + 0x2\n 18583: a1 = a0 <u a1\n 18586: a3 = u64 [s1 + 0xe0]\n 18590: t0 = 668, jump @1509\n      : @654 [@dyn 334] (gas: 14)\n 18596: a1 = u64 [s1 + 0xf0]\n 18600: a3 = a3 + a1\n 18603: a1 = a3 <u a1\n 18606: a4 = u64 [s1 + 0xe8]\n 18610: a1 = a1 + a4\n 18613: a4 = s1 + 0x2918\n 18617: a5 = a4 + 0x200\n 18621: u64 [a5 + 0xe0] = a1\n 18625: u64 [a5 + 0xd8] = a3\n 18629: u64 [a5 + 0xd0] = a2\n 18633: u64 [a5 + 0xc8] = a0\n 18637: a0 = s1 + 0x14c0\n 18641: a1 = s1 + 0x2be0\n 18645: ra = 670, jump @26\n      : @655 [@dyn 335] (gas: 8)\n 18651: a1 = s1 + 0x1118\n 18655: a0 = u64 [a1 + 0x3b0]\n 18659: u64 [s1 + 0x178] = a0\n 18663: a0 = u64 [a1 + 0x3a8]\n 18667: u64 [s1 + 0x170] = a0\n 18671: a0 = s1 + 0x14a0\n 18675: a1 = 0x40\n 18678: ra = 672, jump @22\n      : @656 [@dyn 336] (gas: 14)\n 18684: a4 = s1 + 0x1118\n 18688: t0 = u64 [a4 + 0x3a0]\n 18692: a1 = a4 + 0x300\n 18696: a3 = u64 [a1 + 0x98]\n 18700: a5 = u64 [a1 + 0x90]\n 18704: a0 = u64 [a1 + 0x88]\n 18708: a2 = a5 | t0\n 18711: a1 = a0 | a3\n 18714: a1 = a1 | a2\n 18717: a1 = a1 >> 0x20\n 18720: a2 = a2 | a3\n 18723: a2 = a2 << 0x20\n 18726: a1 = a1 | a2\n 18729: jump @745 if a1 != 0\n      : @657 (gas: 13)\n 18733: a1 = u64 [s1 + 0xd0]\n 18737: a1 = a1 << 0x20\n 18740: u64 [s1 + 0x188] = a3\n 18744: a3 = a1 >> 0x20\n 18747: u64 [a4 + 896] = 0\n 18751: u64 [a4 + 888] = 0\n 18755: u64 [a4 + 880] = 0\n 18759: a1 = s1 + 0x1480\n 18763: u64 [a4 + 0x368] = a3\n 18767: u64 [s1 + 0x198] = a0\n 18771: u64 [s1 + 0x180] = t0\n 18775: u64 [s1 + 0x190] = a5\n 18779: ra = 674, jump @24\n      : @658 [@dyn 337] (gas: 6)\n 18785: a5 = s1 + 0x100\n 18789: a1 = u64 [a5 + 0x98]\n 18793: a0 = u64 [a5 + 0x88]\n 18797: a2 = u64 [a5 + 0x80]\n 18801: a3 = a0 | a2\n 18804: t0 = 676, jump @1526\n      : @659 [@dyn 338] (gas: 1)\n 18810: jump @745 if a0 == 0\n      : @660 (gas: 24)\n 18814: t0 = 0xffffffff\n 18824: a2 = u64 [s1 + 0xd0]\n 18828: a2 = a2 >> 0x20\n 18831: u64 [s1 + 0x160] = a4\n 18835: a4 = u64 [s1 + 0xc0]\n 18839: u64 [s1 + 0x168] = a3\n 18843: a3 = a4 << 0x20\n 18846: a2 = a2 | a3\n 18849: a3 = a4 >> 0x20\n 18852: a5 = u64 [s1 + 0xc8]\n 18856: a4 = a5 << 0x20\n 18859: a3 = a3 | a4\n 18862: a4 = a5 >> 0x20\n 18865: a3 = a3 & 0xffffffffffffffff\n 18868: a2 = a2 & 0xffffffffffffffff\n 18871: a4 = a4 & t0\n 18874: i32 a0 = a1 + 0x20\n 18877: a5 = s1 + 0x1118\n 18881: u64 [a5 + 864] = 0\n 18885: u64 [a5 + 0x358] = a4\n 18889: u64 [a5 + 0x348] = a2\n 18893: a1 = s1 + 0x1460\n 18897: u64 [a5 + 0x350] = a3\n 18901: ra = 678, jump @24\n      : @661 [@dyn 339] (gas: 10)\n 18907: a3 = s1 + 0x100\n 18911: a1 = u64 [a3 + 0x98]\n 18915: a0 = u64 [a3 + 0x60]\n 18918: a0 = a0 + 0xffffffffffffffc0\n 18921: a0 = a1 <u a0\n 18924: a2 = u64 [a3 + 0x90]\n 18928: a0 = 0 if a2 != 0\n 18930: a2 = u64 [a3 + 0x68]\n 18933: a0 = 0 if a2 != 0\n 18935: jump @745 if a0 == 0\n      : @662 (gas: 8)\n 18939: i32 a0 = a1 + 0x40\n 18942: a2 = s1 + 0x1118\n 18946: u64 [a2 + 832] = 0\n 18950: u64 [a2 + 824] = 0\n 18954: u64 [a2 + 808] = 0xa0\n 18960: a1 = s1 + 0x1440\n 18964: u64 [a2 + 816] = 0\n 18968: ra = 680, jump @24\n      : @663 [@dyn 340] (gas: 3)\n 18974: a0 = s1 + 0x1420\n 18978: a1 = u64 [s1 + 0x108]\n 18982: ra = 682, jump @22\n      : @664 [@dyn 341] (gas: 10)\n 18988: a5 = s1 + 0x100\n 18992: a3 = u64 [a5 + 0x68]\n 18995: a1 = u64 [a5 + 0x98]\n 18999: a4 = 0x100000000\n 19009: a0 = 0xffffff60\n 19019: a0 = a1 <u a0\n 19022: a2 = u64 [a5 + 0x90]\n 19026: a0 = 0 if a2 != 0\n 19028: a0 = 0 if a3 != 0\n 19030: jump @745 if a0 == 0\n      : @665 (gas: 18)\n 19034: a0 = s1 + 0x1118\n 19038: u64 [s1 + 0x160] = a4\n 19042: a4 = a0\n 19044: t0 = u64 [a0 + 0x320]\n 19048: t1 = u64 [a0 + 0x318]\n 19052: a5 = u64 [a0 + 0x310]\n 19056: a2 = u64 [a0 + 0x308]\n 19060: i32 a0 = a1 + 0xa0\n 19064: u64 [s1 + 0x158] = a2\n 19068: u64 [a4 + 0x2e8] = a2\n 19072: u64 [s1 + 0x140] = a5\n 19076: u64 [a4 + 0x2f0] = a5\n 19080: u64 [s1 + 0x150] = t1\n 19084: u64 [a4 + 0x2f8] = t1\n 19088: a1 = s1 + 0x1400\n 19092: u64 [s1 + 0x148] = t0\n 19096: u64 [a4 + 0x300] = t0\n 19100: ra = 684, jump @24\n      : @666 [@dyn 342] (gas: 10)\n 19106: a4 = s1 + 0x100\n 19110: a3 = u64 [a4 + 0x90]\n 19114: a2 = u64 [a4 + 0x98]\n 19118: a0 = u64 [a4 + 0x60]\n 19121: a0 = a0 + 0xffffffffffffff40\n 19125: a0 = a2 <u a0\n 19128: a0 = 0 if a3 != 0\n 19130: a1 = u64 [a4 + 0x68]\n 19133: a0 = 0 if a1 != 0\n 19135: jump @745 if a0 == 0\n      : @667 (gas: 8)\n 19139: a0 = 0xffffffe0\n 19149: a1 = u64 [s1 + 0x108]\n 19153: a0 = a1 <u a0\n 19156: a1 = u64 [s1 + 0x100]\n 19160: a0 = 0 if a1 != 0\n 19162: a1 = u64 [s1 + 0xb8]\n 19166: a0 = 0 if a1 != 0\n 19168: jump @745 if a0 == 0\n      : @668 (gas: 12)\n 19172: a1 = u64 [s1 + 0x158]\n 19176: a5 = u64 [s1 + 0x150]\n 19180: a0 = a1 | a5\n 19183: t0 = u64 [s1 + 0x148]\n 19187: t1 = u64 [s1 + 0x140]\n 19191: a4 = t1 | t0\n 19194: a0 = a0 | a4\n 19197: a0 = a0 >> 0x20\n 19200: a4 = a4 | a5\n 19203: a4 = a4 << 0x20\n 19206: a0 = a0 | a4\n 19209: jump @745 if a0 != 0\n      : @669 (gas: 2)\n 19213: i32 a0 = a2 + 0xc0\n 19217: ra = 686, jump @37\n      : @670 [@dyn 343] (gas: 4)\n 19223: u64 [s1 + 0x168] = a0\n 19227: a0 = u64 [s1 + 0x138]\n 19231: a1 = u64 [s1 + 0x158]\n 19235: ra = 688, jump @37\n      : @671 [@dyn 344] (gas: 4)\n 19241: a1 = a0\n 19243: a0 = u64 [s1 + 0x168]\n 19247: a2 = u64 [s1 + 0x158]\n 19251: ra = 690, jump @0\n      : @672 [@dyn 345] (gas: 29)\n 19257: a1 = u64 [s1 + 0x158]\n 19261: a0 = u64 [s1 + 0x198]\n 19265: a0 = a0 + a1\n 19268: a2 = a0 <u a1\n 19271: a4 = u64 [s1 + 0x140]\n 19275: a1 = u64 [s1 + 0x190]\n 19279: a1 = a1 + a4\n 19282: a1 = a1 + a2\n 19285: a3 = a1 ^ a4\n 19288: a4 = a1 <u a4\n 19291: a4 = a2 if a3 == 0\n 19294: a2 = u64 [s1 + 0x180]\n 19298: a3 = u64 [s1 + 0x148]\n 19302: a2 = a2 + a3\n 19305: a3 = u64 [s1 + 0x188]\n 19309: a5 = u64 [s1 + 0x150]\n 19313: a3 = a3 + a5\n 19316: a4 = a4 + a3\n 19319: a5 = a3 <u a5\n 19322: a3 = a4 <u a3\n 19325: a2 = a2 + a5\n 19328: a2 = a2 + a3\n 19331: a2 = a2 | a4\n 19334: a3 = 0xffffff40\n 19344: u64 [s1 + 0x190] = a3\n 19348: a3 = a0 <u a3\n 19351: a3 = 0 if a1 != 0\n 19353: a3 = 0 if a2 != 0\n 19355: jump @745 if a3 == 0\n      : @673 (gas: 8)\n 19359: i32 a0 = a0 + 0xc0\n 19363: a2 = s1 + 0x1118\n 19367: u64 [a2 + 736] = 0\n 19371: u64 [a2 + 728] = 0\n 19375: u64 [a2 + 720] = 0\n 19379: a1 = s1 + 0x13e0\n 19383: u64 [a2 + 712] = 0\n 19387: ra = 692, jump @24\n      : @674 [@dyn 346] (gas: 10)\n 19393: a0 = u64 [s1 + 0x198]\n 19397: i32 a0 = a0 + 0x60\n 19400: a2 = s1 + 0x1118\n 19404: u64 [a2 + 704] = 0\n 19408: u64 [a2 + 696] = 0\n 19412: a1 = u64 [s1 + 0x170]\n 19416: u64 [a2 + 0x2a8] = a1\n 19420: a1 = s1 + 0x13c0\n 19424: u64 [a2 + 688] = 0\n 19428: ra = 694, jump @24\n      : @675 [@dyn 347] (gas: 11)\n 19434: a0 = u8 [s1 + 0x178]\n 19438: a1 = a0 >u 0\n 19440: a0 = u64 [s1 + 0x198]\n 19444: i32 a0 = a0 + 0x80\n 19448: a2 = s1 + 0x1118\n 19452: u64 [a2 + 672] = 0\n 19456: u64 [a2 + 664] = 0\n 19460: u64 [a2 + 0x288] = a1\n 19464: a1 = s1 + 0x13a0\n 19468: u64 [a2 + 656] = 0\n 19472: ra = 696, jump @24\n      : @676 [@dyn 348] (gas: 6)\n 19478: a0 = u64 [s1 + 0x158]\n 19482: a0 = a0 + 0x1f\n 19485: a1 = 0x1ffffffe0\n 19495: a0 = a0 & a1\n 19498: a1 = u64 [s1 + 0x190]\n 19502: jump @745 if a0 >=u a1\n      : @677 (gas: 4)\n 19506: i32 a1 = a0 + 0xc0\n 19510: u64 [s1 + 0x190] = a1\n 19514: a0 = u64 [s1 + 0x198]\n 19518: ra = 698, jump @37\n      : @678 [@dyn 349] (gas: 5)\n 19524: i32 a1 = a0 + 0\n 19526: a0 = 0\n 19528: a2 = u64 [s1 + 0x190]\n 19532: ecalli 13 // 'seal_return'\n 19534: fallthrough\n      : @679 (gas: 9)\n 19535: a0 = u64 [s1 + 0x20]\n 19538: a0 = a0 ^ 0x1\n 19541: a1 = u64 [s1 + 0x48]\n 19544: a2 = u64 [s1 + 0x10]\n 19547: a0 = a2 if a1 != 0\n 19550: a1 = u64 [s1 + 0x18]\n 19553: a2 = u64 [s1 + 0x110]\n 19557: a0 = a1 if a2 != 0\n 19560: jump @688 if a0 == 0\n      : @680 (gas: 17)\n 19564: a0 = u64 [s1 + 0x80]\n 19568: a0 = a0 & 0xffffffffffffffe0\n 19571: u64 [s1 + 0x110] = a0\n 19575: a0 = s1 + 0x1918\n 19579: a1 = u64 [s1 + 0x150]\n 19583: a2 = a0 + 0x700\n 19587: u64 [a2 + 0xe8] = a1\n 19591: a1 = u64 [s1 + 0x140]\n 19595: u64 [a2 + 0xf0] = a1\n 19599: a1 = u64 [s1 + 0x138]\n 19603: u64 [a2 + 0xf8] = a1\n 19607: a1 = s1 + 0x2100\n 19611: a0 = s1 + 0x2118\n 19615: a2 = u64 [s1 + 0x148]\n 19619: u64 [a0] = a2\n 19621: a0 = 0\n 19623: ra = 700, jump @24\n      : @681 [@dyn 350] (gas: 7)\n 19629: a0 = sp + 0xffffffffffffffe0\n 19632: a0 = a0 & 0xffffffffffffffe0\n 19635: u64 [s1 + 0x170] = a0\n 19639: sp = a0\n 19641: a1 = 0x20\n 19644: a0 = 0\n 19646: ra = 702, jump @37\n      : @682 [@dyn 351] (gas: 34)\n 19652: a1 = sp + 0xffffffffffffffe0\n 19655: a1 = a1 & 0xffffffffffffffe0\n 19658: u64 [s1 + 0x168] = a1\n 19662: sp = a1\n 19664: i32 a0 = a0 + 0\n 19666: i32 a2 = a1 + 0\n 19668: a1 = 0x20\n 19671: ecalli 8 // 'hash_keccak_256'\n 19673: u64 [s1 + 408] = 0x20\n 19678: a5 = 0\n 19680: u64 [s1 + 400] = 0\n 19684: u64 [s1 + 392] = 0\n 19688: u64 [s1 + 376] = 0\n 19692: u64 [s1 + 384] = 0\n 19696: a3 = u64 [s1 + 0x168]\n 19700: a0 = u64 [a3 + 0x18]\n 19703: a1 = u64 [a3 + 0x10]\n 19706: a2 = u64 [a3 + 0x8]\n 19709: a3 = u64 [a3]\n 19711: t1 = reverse a0\n 19713: t2 = reverse a1\n 19715: ra = reverse a2\n 19717: a2 = 0\n 19719: a4 = u64 [s1 + 0x178]\n 19723: a0 = reverse a3\n 19725: a3 = 0\n 19727: t0 = a0\n 19729: a1 = u64 [s1 + 0x170]\n 19733: u64 [a1 + 0x18] = a0\n 19736: u64 [s1 + 0x150] = ra\n 19740: u64 [a1 + 0x10] = ra\n 19743: u64 [a1 + 0x8] = t2\n 19746: u64 [a1] = t1\n 19748: fallthrough\n      : @683 (gas: 24)\n 19749: u64 [s1 + 0x168] = t0\n 19753: a0 = u64 [s1 + 0x110]\n 19757: u64 [s1 + 0x178] = a4\n 19761: a0 = a4 <u a0\n 19764: a4 = a0 ^ 0x1\n 19767: u64 [s1 + 0x158] = a3\n 19771: a4 = 0x1 if a3 != 0\n 19774: u64 [s1 + 0x160] = a2\n 19778: a0 = u64 [s1 + 0x180]\n 19782: a0 = a0 | a2\n 19785: a4 = 0x1 if a0 != 0\n 19788: a1 = u64 [s1 + 0x118]\n 19792: a0 = u64 [s1 + 0x198]\n 19796: a1 = a1 + a0\n 19799: a3 = u64 [s1 + 0x130]\n 19803: a3 = a3 + a5\n 19806: a2 = u64 [s1 + 0x120]\n 19810: a0 = u64 [s1 + 0x190]\n 19814: a2 = a2 + a0\n 19817: a0 = u64 [s1 + 0x128]\n 19821: ra = a5\n 19823: a5 = u64 [s1 + 0x188]\n 19827: a0 = a0 + a5\n 19830: jump @690 if a4 != 0\n      : @684 (gas: 23)\n 19834: a4 = u64 [s1 + 0x198]\n 19838: a4 = a1 <u a4\n 19841: a3 = a3 + a4\n 19844: t0 = a3 ^ ra\n 19847: u64 [s1 + 0x138] = ra\n 19851: a5 = a3 <u ra\n 19854: a5 = a4 if t0 == 0\n 19857: a5 = a5 + a2\n 19860: t0 = a5 <u a2\n 19863: a4 = u64 [s1 + 0x190]\n 19867: a2 = a2 <u a4\n 19870: a0 = a0 + a2\n 19873: a0 = a0 + t0\n 19876: a2 = a1 | a5\n 19879: a0 = a0 | a3\n 19882: a2 = a2 | a0\n 19885: a2 = a2 >> 0x20\n 19888: a0 = a0 | a5\n 19891: a0 = a0 << 0x20\n 19894: a0 = a0 | a2\n 19897: u64 [s1 + 0x148] = t1\n 19901: u64 [s1 + 0x140] = t2\n 19905: jump @745 if a0 != 0\n      : @685 (gas: 2)\n 19909: a0 = s1 + 0x1ea0\n 19913: ra = 704, jump @22\n      : @686 [@dyn 352] (gas: 15)\n 19919: a3 = s1 + 0x1918\n 19923: a4 = a3 + 0x500\n 19927: a0 = u64 [a4 + 0xa0]\n 19931: a1 = u64 [a4 + 0x98]\n 19935: a2 = u64 [a4 + 0x90]\n 19939: a3 = u64 [a4 + 0x88]\n 19943: a4 = s1 + 0x2918\n 19947: u64 [a4 + 0x500] = a0\n 19951: a0 = a4 + 0x400\n 19955: u64 [a0 + 0xf8] = a1\n 19959: u64 [a0 + 0xf0] = a2\n 19963: u64 [a0 + 0xe8] = a3\n 19967: a1 = s1 + 0x2e00\n 19971: a0 = u64 [s1 + 0x170]\n 19975: ra = 706, jump @28\n      : @687 [@dyn 353] (gas: 53)\n 19981: t1 = u64 [s1 + 0x148]\n 19985: t1 = t1 + 0x1\n 19988: a0 = t1 <u 0x1\n 19991: t2 = u64 [s1 + 0x140]\n 19995: t2 = t2 + a0\n 19998: a0 = t1 | t2\n 20001: a0 = a0 <u 0x1\n 20004: a1 = u64 [s1 + 0x150]\n 20008: ra = a1 + a0\n 20011: a1 = ra <u a1\n 20014: a0 = u64 [s1 + 0x168]\n 20018: a0 = a0 + a1\n 20021: a1 = u64 [s1 + 0x198]\n 20025: a2 = a1 + 0x20\n 20028: u64 [s1 + 0x168] = a2\n 20032: a3 = a2 <u a1\n 20035: a1 = u64 [s1 + 0x138]\n 20039: a2 = a1 + a3\n 20042: u64 [s1 + 0x148] = a2\n 20046: a4 = a2 <u a1\n 20049: a4 = a3 if a3 == 0\n 20052: a1 = u64 [s1 + 0x190]\n 20056: a3 = a1 + a4\n 20059: a4 = a3 <u a1\n 20062: a1 = u64 [s1 + 0x188]\n 20066: a1 = a1 + a4\n 20069: u64 [s1 + 0x188] = a1\n 20073: a1 = u64 [s1 + 0x178]\n 20077: a4 = a1 + 0x20\n 20080: a5 = a4 <u a1\n 20083: a2 = u64 [s1 + 0x158]\n 20087: a1 = a2 + a5\n 20090: a2 = a1 <u a2\n 20093: a2 = a5 if a5 == 0\n 20096: a5 = u64 [s1 + 0x160]\n 20100: a2 = a2 + a5\n 20103: a5 = a2 <u a5\n 20106: t0 = u64 [s1 + 0x180]\n 20110: t0 = t0 + a5\n 20113: u64 [s1 + 0x180] = t0\n 20117: a5 = u64 [s1 + 0x170]\n 20121: u64 [a5 + 0x8] = t2\n 20124: u64 [a5] = t1\n 20126: u64 [a5 + 0x10] = ra\n 20129: t0 = a0\n 20131: u64 [a5 + 0x18] = a0\n 20134: u64 [s1 + 0x150] = ra\n 20138: a0 = u64 [s1 + 0x168]\n 20142: u64 [s1 + 0x198] = a0\n 20146: a5 = u64 [s1 + 0x148]\n 20150: u64 [s1 + 0x190] = a3\n 20154: a3 = a1\n 20156: jump @683\n      : @688 (gas: 8)\n 20159: a0 = u64 [s1 + 0x80]\n 20163: a1 = u64 [s1 + 0x38]\n 20166: a0 = a0 | a1\n 20169: a1 = u64 [s1 + 0x48]\n 20172: a2 = u64 [s1 + 0x30]\n 20175: a1 = a1 | a2\n 20178: a0 = a0 | a1\n 20181: jump @698 if a0 != 0\n      : @689 (gas: 5)\n 20185: u64 [s1 + 320] = 0\n 20189: u64 [s1 + 312] = 0\n 20193: u64 [s1 + 328] = 0\n 20197: u64 [s1 + 336] = 0\n 20201: jump @701\n      : @690 (gas: 12)\n 20204: t2 = u64 [s1 + 0x190]\n 20208: t1 = u64 [s1 + 0x198]\n 20212: a4 = u64 [s1 + 0x80]\n 20216: a5 = u64 [s1 + 0x110]\n 20220: a4 = a4 ^ a5\n 20223: a5 = u64 [s1 + 0x38]\n 20226: t0 = a4 | a5\n 20229: a5 = u64 [s1 + 0x48]\n 20232: a4 = u64 [s1 + 0x30]\n 20235: a5 = a5 | a4\n 20238: a4 = t0 | a5\n 20241: jump @697 if a4 == 0\n      : @691 (gas: 18)\n 20245: a4 = a1 <u t1\n 20248: a3 = a3 + a4\n 20251: t0 = a3 ^ ra\n 20254: a5 = a3 <u ra\n 20257: a5 = a4 if t0 == 0\n 20260: a5 = a5 + a2\n 20263: a4 = a5 <u a2\n 20266: a2 = a2 <u t2\n 20269: a0 = a0 + a2\n 20272: a0 = a0 + a4\n 20275: a2 = a1 | a5\n 20278: a0 = a0 | a3\n 20281: a2 = a2 | a0\n 20284: a2 = a2 >> 0x20\n 20287: a0 = a0 | a5\n 20290: a0 = a0 << 0x20\n 20293: a0 = a0 | a2\n 20296: jump @745 if a0 != 0\n      : @692 (gas: 2)\n 20300: a0 = s1 + 0x20e0\n 20304: ra = 708, jump @22\n      : @693 [@dyn 354] (gas: 18)\n 20310: a0 = s1 + 0x1918\n 20314: a2 = a0 + 0x700\n 20318: a1 = u64 [a2 + 0xe0]\n 20322: u64 [s1 + 0x190] = a1\n 20326: a1 = u64 [a2 + 0xd8]\n 20330: u64 [s1 + 0x188] = a1\n 20334: a1 = u64 [a2 + 0xd0]\n 20338: u64 [s1 + 0x180] = a1\n 20342: a0 = u64 [a2 + 0xc8]\n 20346: u64 [s1 + 0x178] = a0\n 20350: a0 = u64 [s1 + 0x80]\n 20354: a0 = a0 << 0x3b\n 20357: a1 = a0 >> 0x38\n 20360: u64 [s1 + 0x198] = a1\n 20364: a2 = 0x80 - a1\n 20368: a0 = 0xffffffffffffffff\n 20371: a1 = 0xffffffffffffffff\n 20374: ra = 710, jump @1557\n      : @694 [@dyn 355] (gas: 6)\n 20380: u64 [s1 + 0x168] = a0\n 20384: u64 [s1 + 0x150] = a1\n 20388: a0 = 0xffffffffffffffff\n 20391: a1 = 0xffffffffffffffff\n 20394: a2 = u64 [s1 + 0x198]\n 20398: ra = 712, jump @1552\n      : @695 [@dyn 356] (gas: 10)\n 20404: u64 [s1 + 0x158] = a0\n 20408: u64 [s1 + 0x160] = a1\n 20412: a0 = u64 [s1 + 0x150]\n 20416: a0 = a0 | a1\n 20419: u64 [s1 + 0x150] = a0\n 20423: a0 = u64 [s1 + 0x198]\n 20427: a2 = a0 + 0xffffffffffffff80\n 20430: a0 = 0xffffffffffffffff\n 20433: a1 = 0xffffffffffffffff\n 20436: ra = 714, jump @1552\n      : @696 [@dyn 357] (gas: 30)\n 20442: a4 = u64 [s1 + 0x198]\n 20446: a2 = a4 <u 0x80\n 20450: a3 = u64 [s1 + 0x150]\n 20454: a1 = a3 if a2 != 0\n 20457: a5 = u64 [s1 + 0x158]\n 20461: a3 = u64 [s1 + 0x168]\n 20465: a3 = a3 | a5\n 20468: a3 = a0 if a2 == 0\n 20471: a1 = 0xffffffffffffffff if a4 == 0\n 20474: a3 = 0xffffffffffffffff if a4 == 0\n 20477: a4 = u64 [s1 + 0x160]\n 20481: a4 = 0 if a2 == 0\n 20483: a5 = 0 if a2 == 0\n 20485: a0 = u64 [s1 + 0x178]\n 20489: a0 = a0 & ~a3\n 20492: a2 = u64 [s1 + 0x180]\n 20496: a1 = a2 & ~a1\n 20499: a2 = u64 [s1 + 0x188]\n 20503: a2 = a2 & ~a5\n 20506: a3 = u64 [s1 + 0x190]\n 20510: a3 = a3 & ~a4\n 20513: a4 = s1 + 0x2918\n 20517: a5 = a4 + 0x500\n 20521: u64 [a5 + 0x20] = a3\n 20524: u64 [a5 + 0x18] = a2\n 20527: u64 [a5 + 0x10] = a1\n 20530: u64 [a5 + 0x8] = a0\n 20533: a1 = s1 + 0x2e20\n 20537: a0 = u64 [s1 + 0x170]\n 20541: ra = 716, jump @28\n      : @697 [@dyn 358] (gas: 23)\n 20547: a2 = u64 [s1 + 0x38]\n 20550: a0 = a2 >> 0x3f\n 20553: a1 = u64 [s1 + 0x30]\n 20556: a1 = a1 << 0x1\n 20559: a0 = a0 | a1\n 20562: a3 = u64 [s1 + 0x48]\n 20565: a1 = a3 >> 0x3f\n 20568: a2 = a2 << 0x1\n 20571: a1 = a1 | a2\n 20574: a4 = u64 [s1 + 0x80]\n 20578: a2 = a4 >> 0x3f\n 20581: a3 = a3 << 0x1\n 20584: a2 = a2 | a3\n 20587: a3 = a4 << 0x1\n 20590: a3 = a3 + 0x1\n 20593: a4 = s1 + 0x2918\n 20597: a5 = a4 + 0x500\n 20601: u64 [a5 + 0x28] = a3\n 20604: u64 [a5 + 0x30] = a2\n 20607: u64 [a5 + 0x38] = a1\n 20610: u64 [a5 + 0x40] = a0\n 20613: a0 = 0x2e40\n 20617: jump @705\n      : @698 (gas: 11)\n 20620: a3 = s1 + 0x100\n 20624: a0 = u64 [a3 + 0x28]\n 20627: a1 = u64 [a3 + 0x20]\n 20630: a0 = a0 | a1\n 20633: a1 = 0xffffffe0\n 20643: a2 = u64 [a3 + 0x18]\n 20646: a1 = a2 <u a1\n 20649: a2 = u64 [a3 + 0x30]\n 20652: a1 = 0 if a2 != 0\n 20654: a1 = 0 if a0 != 0\n 20656: jump @745 if a1 == 0\n      : @699 (gas: 4)\n 20660: a0 = u64 [s1 + 0x118]\n 20664: i32 a1 = a0 + 0x20\n 20667: a0 = s1 + 0x2120\n 20671: ra = 718, jump @22\n      : @700 [@dyn 359] (gas: 11)\n 20677: a0 = s1 + 0x2118\n 20681: a1 = u64 [a0 + 0x20]\n 20684: a2 = s1 + 0x100\n 20688: u64 [a2 + 0x50] = a1\n 20691: a1 = u64 [a0 + 0x18]\n 20694: u64 [a2 + 0x48] = a1\n 20697: a1 = u64 [a0 + 0x10]\n 20700: u64 [a2 + 0x38] = a1\n 20703: a0 = u64 [a0 + 0x8]\n 20706: u64 [a2 + 0x40] = a0\n 20709: fallthrough\n      : @701 (gas: 24)\n 20710: a2 = u64 [s1 + 0x48]\n 20713: a0 = a2 >> 0x3f\n 20716: a3 = u64 [s1 + 0x38]\n 20719: a1 = a3 << 0x1\n 20722: a0 = a0 | a1\n 20725: u64 [s1 + 0x190] = a0\n 20729: a0 = a3 >> 0x3f\n 20732: a1 = u64 [s1 + 0x30]\n 20735: a1 = a1 << 0x1\n 20738: a0 = a0 | a1\n 20741: u64 [s1 + 0x188] = a0\n 20745: a3 = u64 [s1 + 0x80]\n 20749: a0 = a3 >> 0x3f\n 20752: a1 = a2 << 0x1\n 20755: a0 = a0 | a1\n 20758: u64 [s1 + 0x180] = a0\n 20762: a0 = a3 << 0x1\n 20765: u64 [s1 + 0x178] = a0\n 20769: a1 = a3 << 0x3\n 20772: u64 [s1 + 0x198] = a1\n 20776: i32 a2 = 0x80 - a1\n 20780: a0 = 0xffffffffffffffff\n 20783: a1 = 0xffffffffffffffff\n 20786: ra = 720, jump @1557\n      : @702 [@dyn 360] (gas: 7)\n 20792: u64 [s1 + 0x158] = a0\n 20796: u64 [s1 + 0x170] = a1\n 20800: a0 = u64 [s1 + 0x80]\n 20804: i32 a2 = a0 << 0x3\n 20807: a0 = 0xffffffffffffffff\n 20810: a1 = 0xffffffffffffffff\n 20813: ra = 722, jump @1552\n      : @703 [@dyn 361] (gas: 10)\n 20819: u64 [s1 + 0x168] = a0\n 20823: u64 [s1 + 0x160] = a1\n 20827: a1 = u64 [s1 + 0x158]\n 20831: a0 = a0 | a1\n 20834: u64 [s1 + 0x158] = a0\n 20838: a0 = u64 [s1 + 0x198]\n 20842: i32 a2 = a0 + 0xffffffffffffff80\n 20845: a0 = 0xffffffffffffffff\n 20848: a1 = 0xffffffffffffffff\n 20851: ra = 724, jump @1552\n      : @704 [@dyn 362] (gas: 38)\n 20857: a4 = u64 [s1 + 0x198]\n 20861: a2 = a4 <u 0x80\n 20865: a3 = u64 [s1 + 0x158]\n 20869: a0 = a3 if a2 != 0\n 20872: a5 = u64 [s1 + 0x160]\n 20876: a3 = u64 [s1 + 0x170]\n 20880: a3 = a3 | a5\n 20883: a3 = a1 if a2 == 0\n 20886: a0 = 0xffffffffffffffff if a4 == 0\n 20889: a3 = 0xffffffffffffffff if a4 == 0\n 20892: a5 = 0 if a2 == 0\n 20894: a4 = u64 [s1 + 0x168]\n 20898: a4 = 0 if a2 == 0\n 20900: a1 = u64 [s1 + 0x138]\n 20904: a1 = a1 & ~a3\n 20907: a2 = u64 [s1 + 0x140]\n 20911: a0 = a2 & ~a0\n 20914: a2 = u64 [s1 + 0x148]\n 20918: a2 = a2 & ~a4\n 20921: a3 = u64 [s1 + 0x150]\n 20925: a3 = a3 & ~a5\n 20928: a5 = s1 + 0x100\n 20932: a4 = u64 [a5 + 0x78]\n 20935: a0 = a0 | a4\n 20938: a4 = u64 [a5 + 0x80]\n 20942: a1 = a1 | a4\n 20945: a4 = u64 [a5 + 0x88]\n 20949: a3 = a3 | a4\n 20952: a4 = u64 [a5 + 0x90]\n 20956: a2 = a2 | a4\n 20959: a4 = s1 + 0x2918\n 20963: a5 = a4 + 0x500\n 20967: u64 [a5 + 0x58] = a2\n 20970: u64 [a5 + 0x60] = a3\n 20973: u64 [a5 + 0x50] = a1\n 20976: u64 [a5 + 0x48] = a0\n 20979: a0 = 0x2e60\n 20983: fallthrough\n      : @705 (gas: 3)\n 20984: a1 = s1 + a0\n 20987: a0 = u64 [s1 + 0x40]\n 20990: ra = 726, jump @28\n      : @706 [@dyn 363] (gas: 8)\n 20996: a0 = sp + 0xffffffffffffffe0\n 20999: a5 = a0 & 0xffffffffffffffe0\n 21002: sp = a5\n 21004: a1 = u64 [s1 + 0x50]\n 21007: a0 = a1 + 0x2\n 21010: a1 = a0 <u a1\n 21013: a3 = u64 [s1 + 0x58]\n 21016: t0 = 728, jump @1509\n      : @707 [@dyn 364] (gas: 13)\n 21022: a1 = u64 [s1 + 0x68]\n 21025: a3 = a3 + a1\n 21028: a1 = a3 <u a1\n 21031: a4 = u64 [s1 + 0x60]\n 21034: a1 = a1 + a4\n 21037: u64 [s1 + 0x198] = a5\n 21041: u64 [a5 + 0x10] = a3\n 21044: u64 [a5 + 0x8] = a2\n 21047: u64 [a5] = a0\n 21049: u64 [a5 + 0x18] = a1\n 21052: a0 = s1 + 0x20c0\n 21056: a1 = u64 [s1 + 0x78]\n 21059: ra = 730, jump @22\n      : @708 [@dyn 365] (gas: 7)\n 21065: a0 = s1 + 0x1918\n 21069: a0 = u64 [a0 + 0x7a8]\n 21073: a0 = a0 & 0xffffffffffffffff\n 21076: u64 [s1 + 0x190] = a0\n 21080: a0 = s1 + 0x20a0\n 21084: a1 = u64 [s1 + 0x198]\n 21088: ra = 732, jump @26\n      : @709 [@dyn 366] (gas: 15)\n 21094: a2 = s1 + 0x1918\n 21098: a3 = a2 + 0x700\n 21102: a0 = u64 [a3 + 0xa0]\n 21106: a1 = u64 [a3 + 0x98]\n 21110: a2 = u64 [a3 + 0x90]\n 21114: a3 = s1 + 0x2918\n 21118: a4 = u64 [s1 + 0x190]\n 21122: a5 = a3 + 0x500\n 21126: u64 [a5 + 0x68] = a4\n 21129: u64 [a5 + 0x80] = a0\n 21133: u64 [a5 + 0x78] = a1\n 21136: u64 [a5 + 0x70] = a2\n 21139: a1 = s1 + 0x2e80\n 21143: a0 = u64 [s1 + 0x198]\n 21147: ra = 734, jump @28\n      : @710 [@dyn 367] (gas: 3)\n 21153: a0 = s1 + 0x2080\n 21157: a1 = u64 [s1 + 0x28]\n 21160: ra = 736, jump @22\n      : @711 [@dyn 368] (gas: 14)\n 21166: a3 = s1 + 0x1918\n 21170: a4 = a3 + 0x700\n 21174: a0 = u64 [a4 + 0x80]\n 21178: a1 = u64 [a4 + 0x70]\n 21181: a2 = u64 [a4 + 0x78]\n 21184: a3 = u64 [a4 + 0x68]\n 21187: a0 = a0 | a1\n 21190: a2 = a2 | a3\n 21193: a0 = a0 | a2\n 21196: a0 = a0 >u 0\n 21198: u64 [s1 + 0x190] = a0\n 21202: a0 = s1 + 0x2060\n 21206: a1 = u64 [s1 + 0x198]\n 21210: ra = 738, jump @26\n      : @712 [@dyn 369] (gas: 18)\n 21216: a3 = s1 + 0x1918\n 21220: a4 = a3 + 0x700\n 21224: a0 = u64 [a4 + 0x50]\n 21227: a1 = u64 [a4 + 0x48]\n 21230: a2 = u64 [a4 + 0x60]\n 21233: a3 = u64 [a4 + 0x58]\n 21236: a0 = a0 & 0xffffffffffffff00\n 21240: a4 = u64 [s1 + 0x190]\n 21244: a0 = a0 | a4\n 21247: a4 = s1 + 0x2918\n 21251: a5 = a4 + 0x500\n 21255: u64 [a5 + 0xa0] = a2\n 21259: u64 [a5 + 0x98] = a3\n 21263: u64 [a5 + 0x88] = a1\n 21267: u64 [a5 + 0x90] = a0\n 21271: a1 = s1 + 0x2ea0\n 21275: a0 = u64 [s1 + 0x198]\n 21279: ra = 740, jump @28\n      : @713 [@dyn 370] (gas: 6)\n 21285: a0 = u64 [s1 + 0xc8]\n 21289: ra = 0x2e6\n 21293: ecalli 4 // 'caller'\n 21295: a2 = u64 [s1 + 0xe8]\n 21299: t0 = 0x2e8\n 21303: jump @1467\n      : @714 [@dyn 371] (gas: 2)\n 21306: a2 = u64 [s1 + 0xe8]\n 21310: t0 = 744, jump @1467\n      : @715 [@dyn 372] (gas: 8)\n 21316: u64 [a2 + 1856] = 0\n 21320: a4 = a2 + 0x700\n 21324: u64 [a4 + 0x38] = a1\n 21327: u64 [a4 + 0x30] = a0\n 21330: a1 = s1 + 0x2040\n 21334: u64 [a4 + 0x28] = a3\n 21337: a0 = 0\n 21339: ra = 746, jump @24\n      : @716 [@dyn 373] (gas: 9)\n 21345: a0 = s1 + 0x1918\n 21349: u64 [a0 + 1824] = 0\n 21353: u64 [a0 + 1816] = 0\n 21357: u64 [a0 + 1808] = 0\n 21361: a2 = a0\n 21363: a0 = 0x20\n 21366: a1 = s1 + 0x2020\n 21370: u64 [a2 + 1800] = 0\n 21374: ra = 748, jump @24\n      : @717 [@dyn 374] (gas: 1)\n 21380: t0 = 750, jump @1522\n      : @718 [@dyn 375] (gas: 3)\n 21386: a2 = u64 [s1 + 0xa8]\n 21390: a0 = i32 [a2]\n 21392: jump @720 if a0 >u 63\n      : @719 (gas: 2)\n 21396: u32 [a2 + 0] = 0x40\n 21399: fallthrough\n      : @720 (gas: 11)\n 21400: a0 = sp + 0xffffffffffffffe0\n 21403: a0 = a0 & 0xffffffffffffffe0\n 21406: u64 [s1 + 0x190] = a0\n 21410: sp = a0\n 21412: i32 a2 = a0 + 0\n 21414: a1 = 0x40\n 21417: a0 = u64 [s1 + 0xa0]\n 21421: ra = 0x2f0\n 21425: ecalli 8 // 'hash_keccak_256'\n 21427: t0 = 0x2f2\n 21431: jump @1508\n      : @721 [@dyn 376] (gas: 1)\n 21434: t0 = 754, jump @1508\n      : @722 [@dyn 377] (gas: 2)\n 21440: a4 = a3 + 0x3\n 21443: t0 = 756, jump @1480\n      : @723 [@dyn 378] (gas: 7)\n 21449: a1 = u64 [s1 + 0x198]\n 21453: u64 [a1] = a4\n 21455: u64 [a1 + 0x8] = a5\n 21458: u64 [a1 + 0x10] = a2\n 21461: u64 [a1 + 0x18] = a0\n 21464: a0 = s1 + 0x2000\n 21468: ra = 758, jump @26\n      : @724 [@dyn 379] (gas: 9)\n 21474: a0 = s1 + 0x1918\n 21478: a0 = u64 [a0 + 0x6e8]\n 21482: a0 = a0 + 0x1\n 21485: a1 = u64 [s1 + 0xe0]\n 21489: a0 = a0 & a1\n 21492: u64 [s1 + 0x190] = a0\n 21496: a0 = s1 + 0x1fe0\n 21500: a1 = u64 [s1 + 0x198]\n 21504: ra = 760, jump @26\n      : @725 [@dyn 380] (gas: 7)\n 21510: a3 = s1 + 0x1918\n 21514: a4 = a3 + 0x600\n 21518: a0 = u64 [a4 + 0xd0]\n 21522: a1 = u64 [a4 + 0xd8]\n 21526: a2 = u64 [a4 + 0xe0]\n 21530: a3 = u64 [a4 + 0xc8]\n 21534: t0 = 762, jump @1517\n      : @726 [@dyn 381] (gas: 8)\n 21540: a5 = a4 + 0x500\n 21544: u64 [a5 + 0xc0] = a2\n 21548: u64 [a5 + 0xb8] = a1\n 21552: u64 [a5 + 0xb0] = a0\n 21556: u64 [a5 + 0xa8] = a3\n 21560: a1 = s1 + 0x2ec0\n 21564: a0 = u64 [s1 + 0x198]\n 21568: ra = 764, jump @28\n      : @727 [@dyn 382] (gas: 3)\n 21574: a0 = s1 + 0x1fc0\n 21578: a1 = 0x40\n 21581: ra = 766, jump @22\n      : @728 [@dyn 383] (gas: 3)\n 21587: t0 = 0x300\n 21591: a2 = s1 + 0x1918\n 21595: fallthrough\n      : @729 [@dyn 384] (gas: 17)\n 21596: a5 = a2 + 0x600\n 21600: a3 = u64 [a5 + 0xc0]\n 21604: a4 = u64 [a5 + 0xb8]\n 21608: a1 = u64 [a5 + 0xb0]\n 21612: a0 = u64 [a5 + 0xa8]\n 21616: a5 = s1 + 0x100\n 21620: u64 [a5 + 0x98] = a1\n 21624: u64 [a5 + 0x88] = a3\n 21628: a3 = a3 | a1\n 21631: a1 = a0 | a4\n 21634: a1 = a1 | a3\n 21637: a1 = a1 >> 0x20\n 21640: u64 [a5 + 0x90] = a4\n 21644: a3 = a3 | a4\n 21647: a3 = a3 << 0x20\n 21650: a1 = a1 | a3\n 21653: jump @745 if a1 != 0\n      : @730 (gas: 7)\n 21657: u64 [a2 + 1696] = 0\n 21661: u64 [a2 + 1688] = 0\n 21665: u64 [a2 + 1680] = 0\n 21669: a1 = s1 + 0x1fa0\n 21673: u64 [a2 + 1672] = 0x20\n 21678: u64 [s1 + 0x180] = a0\n 21682: ra = 770, jump @24\n      : @731 [@dyn 385] (gas: 14)\n 21688: a3 = s1 + 0x100\n 21692: a0 = u64 [a3 + 0x88]\n 21696: a1 = u64 [a3 + 0x90]\n 21700: a1 = a1 | a0\n 21703: a0 = 0x100000000\n 21713: u64 [a3 + 0x78] = a0\n 21716: a0 = 0xffffffe0\n 21726: a2 = u64 [a3 + 0x80]\n 21730: a0 = a2 <u a0\n 21733: a2 = u64 [a3 + 0x98]\n 21737: a0 = 0 if a2 != 0\n 21739: u64 [a3 + 0x70] = a1\n 21742: a0 = 0 if a1 != 0\n 21744: jump @745 if a0 == 0\n      : @732 (gas: 14)\n 21748: a0 = u64 [s1 + 0x180]\n 21752: i32 a0 = a0 + 0x20\n 21755: a2 = s1 + 0x1918\n 21759: a1 = u64 [s1 + 0xc0]\n 21763: a4 = a2 + 0x600\n 21767: u64 [a4 + 0x68] = a1\n 21770: a1 = u64 [s1 + 0xb0]\n 21774: u64 [a4 + 0x70] = a1\n 21777: a1 = u64 [s1 + 0xb8]\n 21781: u64 [a4 + 0x78] = a1\n 21784: a1 = s1 + 0x1f80\n 21788: a3 = u64 [s1 + 0xf0]\n 21792: u64 [a4 + 0x80] = a3\n 21796: ra = 772, jump @24\n      : @733 [@dyn 386] (gas: 9)\n 21802: a0 = u64 [s1 + 0x178]\n 21806: a0 = a0 + 0xffffffffffffffdc\n 21809: a1 = u64 [s1 + 0xd0]\n 21813: a0 = a1 <u a0\n 21816: a1 = u64 [s1 + 0xd8]\n 21820: a0 = 0 if a1 != 0\n 21822: a1 = u64 [s1 + 0x98]\n 21826: a0 = 0 if a1 != 0\n 21828: jump @745 if a0 == 0\n      : @734 (gas: 12)\n 21832: a0 = u64 [s1 + 0xc0]\n 21836: a2 = u64 [s1 + 0xb8]\n 21840: a0 = a0 | a2\n 21843: a1 = u64 [s1 + 0xf0]\n 21847: a3 = u64 [s1 + 0xb0]\n 21851: a1 = a1 | a3\n 21854: a0 = a0 | a1\n 21857: a0 = a0 >> 0x20\n 21860: a1 = a1 | a2\n 21863: a1 = a1 << 0x20\n 21866: a0 = a0 | a1\n 21869: jump @745 if a0 != 0\n      : @735 (gas: 10)\n 21873: a1 = 0xffffffc0\n 21883: a2 = s1 + 0x100\n 21887: a0 = u64 [a2 + 0x80]\n 21891: u64 [a2 + 0x78] = a1\n 21894: a0 = a0 <u a1\n 21897: a1 = u64 [a2 + 0x98]\n 21901: a0 = 0 if a1 != 0\n 21903: a1 = u64 [a2 + 0x70]\n 21906: a0 = 0 if a1 != 0\n 21908: jump @745 if a0 == 0\n      : @736 (gas: 4)\n 21912: a0 = u64 [s1 + 0x180]\n 21916: i32 a0 = a0 + 0x40\n 21919: a1 = u64 [s1 + 0x90]\n 21923: ra = 774, jump @37\n      : @737 [@dyn 387] (gas: 5)\n 21929: i32 a0 = a0 + 0\n 21931: a1 = u64 [s1 + 0x90]\n 21935: a2 = u64 [s1 + 0x88]\n 21939: ecalli 1 // 'call_data_copy'\n 21941: fallthrough\n      : @738 (gas: 28)\n 21942: a1 = u64 [s1 + 0xc0]\n 21946: a0 = u64 [s1 + 0x180]\n 21950: a0 = a0 + a1\n 21953: a1 = a0 <u a1\n 21956: a4 = u64 [s1 + 0xb0]\n 21960: a2 = u64 [s1 + 0x198]\n 21964: a2 = a2 + a4\n 21967: a2 = a2 + a1\n 21970: a3 = a2 ^ a4\n 21973: a4 = a2 <u a4\n 21976: a4 = a1 if a3 == 0\n 21979: a1 = u64 [s1 + 0xf0]\n 21983: a3 = u64 [s1 + 0x188]\n 21987: a1 = a1 + a3\n 21990: a5 = u64 [s1 + 0xb8]\n 21994: a3 = u64 [s1 + 0x190]\n 21998: a3 = a3 + a5\n 22001: a5 = a3 <u a5\n 22004: a1 = a1 + a5\n 22007: a4 = a4 + a3\n 22010: a3 = a4 <u a3\n 22013: a1 = a1 + a3\n 22016: a1 = a1 | a4\n 22019: a3 = u64 [s1 + 0x178]\n 22023: a3 = a0 <u a3\n 22026: a3 = 0 if a2 != 0\n 22028: a3 = 0 if a1 != 0\n 22030: jump @745 if a3 == 0\n      : @739 (gas: 8)\n 22034: i32 a0 = a0 + 0x40\n 22037: a2 = s1 + 0x1918\n 22041: u64 [a2 + 1632] = 0\n 22045: u64 [a2 + 1624] = 0\n 22049: u64 [a2 + 1616] = 0\n 22053: a1 = s1 + 0x1f60\n 22057: u64 [a2 + 1608] = 0\n 22061: ra = 776, jump @24\n      : @740 [@dyn 388] (gas: 6)\n 22067: a0 = u64 [s1 + 0xc8]\n 22071: ra = 0x30a\n 22075: ecalli 4 // 'caller'\n 22077: a2 = u64 [s1 + 0xe8]\n 22081: t0 = 0x30c\n 22085: jump @1471\n      : @741 [@dyn 389] (gas: 2)\n 22088: a2 = u64 [s1 + 0xe8]\n 22092: t0 = 780, jump @1471\n      : @742 [@dyn 390] (gas: 36)\n 22098: t0 = a1 | a0\n 22101: a3 = a3 >> 0x20\n 22104: a1 = reverse a2\n 22106: a2 = a1 << 0x20\n 22109: a2 = a2 | a3\n 22112: a3 = a1 >> 0x20\n 22115: a1 = u64 [s1 + 0xc0]\n 22119: a1 = a1 + 0x1f\n 22122: a1 = a1 & 0xe0\n 22126: a1 = a1 + 0x40\n 22129: a4 = u64 [0x20020]\n 22134: a5 = u64 [0x20028]\n 22139: a0 = s1 + 0x1918\n 22143: u64 [a0 + 0x640] = a4\n 22147: a4 = u64 [0x20030]\n 22152: u64 [a0 + 0x638] = a5\n 22156: u64 [a0 + 1536] = 0\n 22160: a5 = u64 [s1 + 0x108]\n 22164: u64 [a0 + 0x5f8] = a5\n 22168: u64 [a0 + 0x630] = a4\n 22172: a4 = u64 [0x20038]\n 22177: a5 = u64 [s1 + 0xf8]\n 22181: u64 [a0 + 0x5f0] = a5\n 22185: a5 = u64 [s1 + 0x100]\n 22189: u64 [a0 + 0x5e8] = a5\n 22193: u64 [a0 + 1568] = 0\n 22197: a5 = a0 + 0x600\n 22201: u64 [a5 + 0x28] = a4\n 22204: u64 [a5 + 0x18] = a3\n 22207: u64 [a5 + 0x10] = a2\n 22210: a2 = s1 + 0x1f40\n 22214: a3 = s1 + 0x1f20\n 22218: a4 = s1 + 0x1f00\n 22222: u64 [a0 + 0x608] = t0\n 22226: a0 = u64 [s1 + 0x180]\n 22230: ra = 782, jump @31\n      : @743 [@dyn 391] (gas: 3)\n 22236: a0 = s1 + 0x1ee0\n 22240: a1 = 0x40\n 22243: ra = 784, jump @22\n      : @744 [@dyn 392] (gas: 14)\n 22249: a3 = s1 + 0x1918\n 22253: a5 = a3 + 0x500\n 22257: a0 = u64 [a5 + 0xe0]\n 22261: a1 = u64 [a5 + 0xd8]\n 22265: a2 = u64 [a5 + 0xd0]\n 22269: a4 = u64 [a5 + 0xc8]\n 22273: a0 = a0 | a2\n 22276: a2 = a4 | a1\n 22279: a2 = a2 | a0\n 22282: a2 = a2 >> 0x20\n 22285: a0 = a0 | a1\n 22288: a0 = a0 << 0x20\n 22291: a0 = a0 | a2\n 22294: jump @848 if a0 == 0\n      : @745 (gas: 1)\n 22298: trap\n      : @746 (gas: 6)\n 22299: a1 = 0x20180\n 22304: i32 a1 = a1 + 0\n 22306: a0 = 0x1\n 22309: a2 = 0\n 22311: ecalli 13 // 'seal_return'\n 22313: jump @1010\n      : @747 (gas: 6)\n 22316: a1 = 0x20180\n 22321: i32 a1 = a1 + 0\n 22323: a0 = 0x1\n 22326: a2 = 0\n 22328: ecalli 13 // 'seal_return'\n 22330: jump @1010\n      : @748 (gas: 6)\n 22333: a1 = 0x20180\n 22338: i32 a1 = a1 + 0\n 22340: a0 = 0x1\n 22343: a2 = 0\n 22345: ecalli 13 // 'seal_return'\n 22347: jump @1010\n      : @749 (gas: 6)\n 22350: a1 = 0x20180\n 22355: i32 a1 = a1 + 0\n 22357: a0 = 0x1\n 22360: a2 = 0\n 22362: ecalli 13 // 'seal_return'\n 22364: jump @1010\n      : @750 (gas: 3)\n 22367: t0 = 0x312\n 22371: a2 = s1 + 0x1118\n 22375: fallthrough\n      : @751 [@dyn 393] (gas: 8)\n 22376: u64 [a2 + 344] = 0\n 22380: u64 [a2 + 336] = 0\n 22384: a0 = 0x2c5211c600000000\n 22394: u64 [a2 + 0x160] = a0\n 22398: a1 = s1 + 0x1260\n 22402: u64 [a2 + 328] = 0\n 22406: a0 = 0\n 22408: ra = 788, jump @24\n      : @752 [@dyn 394] (gas: 2)\n 22414: a1 = i32 [0x20170]\n 22419: jump @754 if a1 >u 31\n      : @753 (gas: 3)\n 22423: u32 [0x20170] = 0x20\n 22429: a1 = 0x20180\n 22434: jump @817\n      : @754 (gas: 2)\n 22437: a1 = 0x20180\n 22442: jump @817\n      : @755 (gas: 3)\n 22445: t0 = 0x316\n 22449: a2 = s1 + 0x1118\n 22453: fallthrough\n      : @756 [@dyn 395] (gas: 8)\n 22454: u64 [a2 + 376] = 0\n 22458: u64 [a2 + 368] = 0\n 22462: a0 = 0xf4d678b800000000\n 22472: u64 [a2 + 0x180] = a0\n 22476: a1 = s1 + 0x1280\n 22480: u64 [a2 + 360] = 0\n 22484: a0 = 0\n 22486: ra = 792, jump @24\n      : @757 [@dyn 396] (gas: 3)\n 22492: a0 = u64 [s1 + 0x138]\n 22496: a0 = i32 [a0]\n 22498: jump @804 if a0 >u 31\n      : @758 (gas: 3)\n 22503: a1 = u64 [s1 + 0x138]\n 22507: u32 [a1 + 0] = 0x20\n 22510: jump @804\n      : @759 (gas: 6)\n 22513: a1 = 0x20180\n 22518: i32 a1 = a1 + 0\n 22520: a0 = 0x1\n 22523: a2 = 0\n 22525: ecalli 13 // 'seal_return'\n 22527: jump @1010\n      : @760 (gas: 6)\n 22530: a1 = 0x20180\n 22535: i32 a1 = a1 + 0\n 22537: a0 = 0x1\n 22540: a2 = 0\n 22542: ecalli 13 // 'seal_return'\n 22544: jump @1010\n      : @761 (gas: 6)\n 22547: a1 = 0x20180\n 22552: i32 a1 = a1 + 0\n 22554: a0 = 0x1\n 22557: a2 = 0\n 22559: ecalli 13 // 'seal_return'\n 22561: jump @1010\n      : @762 (gas: 6)\n 22564: a1 = 0x20180\n 22569: i32 a1 = a1 + 0\n 22571: a0 = 0x1\n 22574: a2 = 0\n 22576: ecalli 13 // 'seal_return'\n 22578: jump @1010\n      : @763 (gas: 8)\n 22581: u64 [s1 + 1040] = 0\n 22585: u64 [s1 + 1032] = 0\n 22589: u64 [s1 + 1024] = 0\n 22593: a0 = 0x2c5211c600000000\n 22603: a1 = s1 + 0x400\n 22607: u64 [s1 + 0x418] = a0\n 22611: a0 = 0\n 22613: ra = 794, jump @24\n      : @764 [@dyn 397] (gas: 2)\n 22619: a1 = i32 [0x20170]\n 22624: jump @766 if a1 >u 31\n      : @765 (gas: 3)\n 22628: u32 [0x20170] = 0x20\n 22634: a1 = 0x20180\n 22639: jump @817\n      : @766 (gas: 2)\n 22642: a1 = 0x20180\n 22647: jump @817\n      : @767 (gas: 9)\n 22650: u64 [s1 + 1072] = 0\n 22654: u64 [s1 + 1064] = 0\n 22658: u64 [s1 + 1056] = 0\n 22662: a0 = 0xf4d678b800000000\n 22672: a1 = s1 + 0x420\n 22676: u64 [s1 + 0x438] = a0\n 22680: a0 = 0\n 22682: ra = 0x32e\n 22686: jump @24\n      : @768 (gas: 6)\n 22689: a1 = 0x20180\n 22694: i32 a1 = a1 + 0\n 22696: a0 = 0x1\n 22699: a2 = 0\n 22701: ecalli 13 // 'seal_return'\n 22703: jump @1010\n      : @769 (gas: 9)\n 22706: a2 = s1 + 0x2118\n 22710: u64 [a2 + 1112] = 0\n 22714: u64 [a2 + 1104] = 0\n 22718: a0 = 0x2c5211c600000000\n 22728: u64 [a2 + 0x460] = a0\n 22732: a1 = s1 + 0x2560\n 22736: u64 [a2 + 1096] = 0\n 22740: a0 = 0\n 22742: ra = 796, jump @24\n      : @770 [@dyn 398] (gas: 2)\n 22748: a1 = i32 [0x20170]\n 22753: jump @772 if a1 >u 31\n      : @771 (gas: 3)\n 22757: u32 [0x20170] = 0x20\n 22763: a1 = 0x20180\n 22768: jump @817\n      : @772 (gas: 2)\n 22771: a1 = 0x20180\n 22776: jump @817\n      : @773 (gas: 5)\n 22779: a0 = s1 + 0x2118\n 22783: u64 [a0 + 1176] = 0\n 22787: u64 [a0 + 1168] = 0\n 22791: u64 [a0 + 1160] = 0\n 22795: t0 = 798, jump @1516\n      : @774 [@dyn 399] (gas: 5)\n 22801: i32 a1 = a1 + 0x5a0\n 22805: a1 = a1 + s1\n 22808: u64 [a2 + 0x4a0] = a0\n 22812: a0 = 0\n 22814: ra = 800, jump @24\n      : @775 [@dyn 400] (gas: 9)\n 22820: a1 = s1 + 0x2118\n 22824: u64 [a1 + 1152] = 0\n 22828: u64 [a1 + 1144] = 0\n 22832: u64 [a1 + 1128] = 0x11\n 22837: a2 = a1\n 22839: a0 = 0x4\n 22842: a1 = s1 + 0x2580\n 22846: u64 [a2 + 1136] = 0\n 22850: ra = 802, jump @24\n      : @776 [@dyn 401] (gas: 3)\n 22856: a0 = u64 [s1 + 0x150]\n 22860: a0 = i32 [a0]\n 22862: jump @778 if a0 >u 63\n      : @777 (gas: 3)\n 22866: a1 = u64 [s1 + 0x150]\n 22870: u32 [a1 + 0] = 0x40\n 22873: fallthrough\n      : @778 (gas: 5)\n 22874: a0 = 0x1\n 22877: a2 = 0x24\n 22880: a1 = u64 [s1 + 0x160]\n 22884: ecalli 13 // 'seal_return'\n 22886: fallthrough\n      : @779 (gas: 6)\n 22887: a1 = 0x20180\n 22892: i32 a1 = a1 + 0\n 22894: a0 = 0x1\n 22897: a2 = 0\n 22899: ecalli 13 // 'seal_return'\n 22901: jump @1010\n      : @780 (gas: 6)\n 22904: a1 = 0x20180\n 22909: i32 a1 = a1 + 0\n 22911: a0 = 0x1\n 22914: a2 = 0\n 22916: ecalli 13 // 'seal_return'\n 22918: jump @1010\n      : @781 (gas: 6)\n 22921: a1 = 0x20180\n 22926: i32 a1 = a1 + 0\n 22928: a0 = 0x1\n 22931: a2 = 0\n 22933: ecalli 13 // 'seal_return'\n 22935: jump @1010\n      : @782 (gas: 6)\n 22938: a1 = 0x20180\n 22943: i32 a1 = a1 + 0\n 22945: a0 = 0x1\n 22948: a2 = 0\n 22950: ecalli 13 // 'seal_return'\n 22952: jump @1010\n      : @783 (gas: 6)\n 22955: a1 = 0x20180\n 22960: i32 a1 = a1 + 0\n 22962: a0 = 0x1\n 22965: a2 = 0\n 22967: ecalli 13 // 'seal_return'\n 22969: jump @1010\n      : @784 (gas: 6)\n 22972: a1 = 0x20180\n 22977: i32 a1 = a1 + 0\n 22979: a0 = 0x1\n 22982: a2 = 0\n 22984: ecalli 13 // 'seal_return'\n 22986: jump @1010\n      : @785 (gas: 9)\n 22989: a2 = s1 + 0x2118\n 22993: u64 [a2 + 1080] = 0\n 22997: u64 [a2 + 1072] = 0\n 23001: a0 = 0xcc67c13b00000000\n 23011: u64 [a2 + 0x440] = a0\n 23015: a1 = s1 + 0x2540\n 23019: u64 [a2 + 1064] = 0\n 23023: a0 = 0\n 23025: ra = 804, jump @24\n      : @786 [@dyn 402] (gas: 2)\n 23031: a1 = i32 [0x20170]\n 23036: jump @788 if a1 >u 31\n      : @787 (gas: 3)\n 23040: u32 [0x20170] = 0x20\n 23046: a1 = 0x20180\n 23051: jump @817\n      : @788 (gas: 2)\n 23054: a1 = 0x20180\n 23059: jump @817\n      : @789 (gas: 5)\n 23062: a0 = s1 + 0x1918\n 23066: u64 [a0 + 1272] = 0\n 23070: u64 [a0 + 1264] = 0\n 23074: u64 [a0 + 1256] = 0\n 23078: t0 = 806, jump @1516\n      : @790 [@dyn 403] (gas: 5)\n 23084: i32 a1 = a1 + 0xfffffffffffffe00\n 23088: a1 = a1 + s1\n 23091: u64 [a2 + 0x500] = a0\n 23095: a0 = 0\n 23097: ra = 808, jump @24\n      : @791 [@dyn 404] (gas: 3)\n 23103: t0 = 0x32a\n 23107: a1 = s1 + 0x1918\n 23111: fallthrough\n      : @792 [@dyn 405] (gas: 9)\n 23112: u64 [a1 + 1248] = 0\n 23116: u64 [a1 + 1240] = 0\n 23120: u64 [a1 + 1224] = 0x11\n 23125: a2 = a1\n 23127: a0 = 0x4\n 23130: a1 = s1 + 0x1de0\n 23134: u64 [a2 + 1232] = 0\n 23138: ra = 0x33a\n 23142: jump @24\n      : @793 (gas: 6)\n 23145: a1 = 0x20180\n 23150: i32 a1 = a1 + 0\n 23152: a0 = 0x1\n 23155: a2 = 0\n 23157: ecalli 13 // 'seal_return'\n 23159: jump @1010\n      : @794 (gas: 6)\n 23162: a1 = 0x20180\n 23167: i32 a1 = a1 + 0\n 23169: a0 = 0x1\n 23172: a2 = 0\n 23174: ecalli 13 // 'seal_return'\n 23176: jump @1010\n      : @795 (gas: 6)\n 23179: a1 = 0x20180\n 23184: i32 a1 = a1 + 0\n 23186: a0 = 0x1\n 23189: a2 = 0\n 23191: ecalli 13 // 'seal_return'\n 23193: jump @1010\n      : @796 (gas: 6)\n 23196: a1 = 0x20180\n 23201: i32 a1 = a1 + 0\n 23203: a0 = 0x1\n 23206: a2 = 0\n 23208: ecalli 13 // 'seal_return'\n 23210: jump @1010\n      : @797 (gas: 8)\n 23213: u64 [s1 + 1392] = 0\n 23217: u64 [s1 + 1384] = 0\n 23221: u64 [s1 + 1376] = 0\n 23225: a0 = 0x2c5211c600000000\n 23235: a1 = s1 + 0x560\n 23239: u64 [s1 + 0x578] = a0\n 23243: a0 = 0\n 23245: ra = 812, jump @24\n      : @798 [@dyn 406] (gas: 2)\n 23251: a1 = i32 [0x20170]\n 23256: jump @800 if a1 >u 31\n      : @799 (gas: 3)\n 23260: u32 [0x20170] = 0x20\n 23266: a1 = 0x20180\n 23271: jump @817\n      : @800 (gas: 2)\n 23274: a1 = 0x20180\n 23279: jump @817\n      : @801 (gas: 8)\n 23282: u64 [s1 + 1424] = 0\n 23286: u64 [s1 + 1416] = 0\n 23290: u64 [s1 + 1408] = 0\n 23294: a0 = 0xf4d678b800000000\n 23304: a1 = s1 + 0x580\n 23308: u64 [s1 + 0x598] = a0\n 23312: a0 = 0\n 23314: ra = 814, jump @24\n      : @802 [@dyn 407] (gas: 3)\n 23320: a0 = u64 [s1 + 0x140]\n 23324: a0 = i32 [a0]\n 23326: jump @804 if a0 >u 31\n      : @803 (gas: 3)\n 23330: a1 = u64 [s1 + 0x140]\n 23334: u32 [a1 + 0] = 0x20\n 23337: fallthrough\n      : @804 (gas: 5)\n 23338: a0 = 0x1\n 23341: a2 = 0x4\n 23344: a1 = u64 [s1 + 0x148]\n 23348: ecalli 13 // 'seal_return'\n 23350: fallthrough\n      : @805 (gas: 6)\n 23351: a1 = 0x20180\n 23356: i32 a1 = a1 + 0\n 23358: a0 = 0x1\n 23361: a2 = 0\n 23363: ecalli 13 // 'seal_return'\n 23365: jump @1010\n      : @806 (gas: 6)\n 23368: a1 = 0x20180\n 23373: i32 a1 = a1 + 0\n 23375: a0 = 0x1\n 23378: a2 = 0\n 23380: ecalli 13 // 'seal_return'\n 23382: jump @1010\n      : @807 (gas: 6)\n 23385: a1 = 0x20180\n 23390: i32 a1 = a1 + 0\n 23392: a0 = 0x1\n 23395: a2 = 0\n 23397: ecalli 13 // 'seal_return'\n 23399: jump @1010\n      : @808 (gas: 6)\n 23402: a1 = 0x20180\n 23407: i32 a1 = a1 + 0\n 23409: a0 = 0x1\n 23412: a2 = 0\n 23414: ecalli 13 // 'seal_return'\n 23416: jump @1010\n      : @809 (gas: 6)\n 23419: a1 = 0x20180\n 23424: i32 a1 = a1 + 0\n 23426: a0 = 0x1\n 23429: a2 = 0\n 23431: ecalli 13 // 'seal_return'\n 23433: jump @1010\n      : @810 (gas: 6)\n 23436: a1 = 0x20180\n 23441: i32 a1 = a1 + 0\n 23443: a0 = 0x1\n 23446: a2 = 0\n 23448: ecalli 13 // 'seal_return'\n 23450: jump @1010\n      : @811 (gas: 6)\n 23453: a1 = 0x20180\n 23458: i32 a1 = a1 + 0\n 23460: a0 = 0x1\n 23463: a2 = 0\n 23465: ecalli 13 // 'seal_return'\n 23467: jump @1010\n      : @812 (gas: 6)\n 23470: a1 = 0x20180\n 23475: i32 a1 = a1 + 0\n 23477: a0 = 0x1\n 23480: a2 = 0\n 23482: ecalli 13 // 'seal_return'\n 23484: jump @1010\n      : @813 (gas: 11)\n 23487: a2 = s1 + 0x7ff\n 23491: a2 = a2 + 0x119\n 23495: u64 [a2 + 1080] = 0\n 23499: u64 [a2 + 1072] = 0\n 23503: a0 = 0xd5b25b6300000000\n 23513: u64 [a2 + 0x440] = a0\n 23517: a1 = s1 + 0x7ff\n 23521: a1 = a1 + 0x541\n 23525: u64 [a2 + 1064] = 0\n 23529: a0 = 0\n 23531: ra = 816, jump @24\n      : @814 [@dyn 408] (gas: 2)\n 23537: a1 = i32 [0x20170]\n 23542: jump @816 if a1 >u 31\n      : @815 (gas: 3)\n 23546: u32 [0x20170] = 0x20\n 23552: a1 = 0x20180\n 23557: jump @817\n      : @816 (gas: 2)\n 23559: a1 = 0x20180\n 23564: fallthrough\n      : @817 (gas: 6)\n 23565: i32 a1 = a1 + 0\n 23567: a0 = 0x1\n 23570: a2 = 0x4\n 23573: ra = 0x332\n 23577: ecalli 13 // 'seal_return'\n 23579: fallthrough\n      : @818 [@dyn 409] (gas: 5)\n 23580: a0 = s1 + 0x1918\n 23584: u64 [a0 + 1336] = 0\n 23588: u64 [a0 + 1328] = 0\n 23592: u64 [a0 + 1320] = 0\n 23596: t0 = 820, jump @1516\n      : @819 [@dyn 410] (gas: 5)\n 23602: i32 a1 = a1 + 0xfffffffffffffe40\n 23606: a1 = a1 + s1\n 23609: u64 [a2 + 0x540] = a0\n 23613: a0 = 0\n 23615: ra = 822, jump @24\n      : @820 [@dyn 411] (gas: 3)\n 23621: t0 = 0x338\n 23625: a1 = s1 + 0x1918\n 23629: fallthrough\n      : @821 [@dyn 412] (gas: 8)\n 23630: u64 [a1 + 1312] = 0\n 23634: u64 [a1 + 1304] = 0\n 23638: u64 [a1 + 1288] = 0x41\n 23643: a2 = a1\n 23645: a0 = 0x4\n 23648: a1 = s1 + 0x1e20\n 23652: u64 [a2 + 1296] = 0\n 23656: ra = 826, jump @24\n      : @822 [@dyn 413] (gas: 3)\n 23662: a0 = u64 [s1 + 0xa8]\n 23666: a0 = i32 [a0]\n 23668: jump @824 if a0 >u 63\n      : @823 (gas: 3)\n 23672: a1 = u64 [s1 + 0xa8]\n 23676: u32 [a1 + 0] = 0x40\n 23679: fallthrough\n      : @824 (gas: 6)\n 23680: a0 = 0x1\n 23683: a2 = 0x24\n 23686: a1 = u64 [s1 + 0xa0]\n 23690: ra = 0x33c\n 23694: ecalli 13 // 'seal_return'\n 23696: fallthrough\n      : @825 [@dyn 414] (gas: 1)\n 23697: jump @832 if a0 != 2618616686\n      : @826 (gas: 11)\n 23705: a0 = s1 + 0x2918\n 23709: u64 [a0 + 768] = 0\n 23713: u64 [a0 + 760] = 0\n 23717: u64 [a0 + 752] = 0\n 23721: u64 [a0 + 744] = 0\n 23725: a0 = s1 + 0x3000\n 23729: i32 a0 = a0 + 0xfffffffffffffc00\n 23733: ra = 0x33e\n 23737: ecalli 16 // 'value_transferred'\n 23739: t0 = 0x340\n 23743: jump @1545\n      : @827 [@dyn 415] (gas: 1)\n 23746: t0 = 832, jump @1545\n      : @828 [@dyn 416] (gas: 8)\n 23752: a0 = u64 [a4 + 0xf8]\n 23756: a1 = u64 [a3 + 0x300]\n 23760: a2 = u64 [a4 + 0xf0]\n 23764: a3 = u64 [a4 + 0xe8]\n 23768: a1 = a1 | a2\n 23771: a0 = a0 | a3\n 23774: a0 = a0 | a1\n 23777: jump @849 if a0 == 0\n      : @829 (gas: 6)\n 23781: a1 = 0x20180\n 23786: i32 a1 = a1 + 0\n 23788: a0 = 0x1\n 23791: a2 = 0\n 23793: ecalli 13 // 'seal_return'\n 23795: jump @1010\n      : @830 (gas: 6)\n 23798: a1 = 0x20180\n 23803: i32 a1 = a1 + 0\n 23805: a0 = 0x1\n 23808: a2 = 0\n 23810: ecalli 13 // 'seal_return'\n 23812: jump @1010\n      : @831 (gas: 6)\n 23815: a1 = 0x20180\n 23820: i32 a1 = a1 + 0\n 23822: a0 = 0x1\n 23825: a2 = 0\n 23827: ecalli 13 // 'seal_return'\n 23829: jump @1010\n      : @832 (gas: 1)\n 23832: jump @851 if a0 != 2685688103\n      : @833 (gas: 11)\n 23840: a0 = s1 + 0x2918\n 23844: u64 [a0 + 800] = 0\n 23848: u64 [a0 + 792] = 0\n 23852: u64 [a0 + 784] = 0\n 23856: u64 [a0 + 776] = 0\n 23860: a0 = s1 + 0x3000\n 23864: i32 a0 = a0 + 0xfffffffffffffc20\n 23868: ra = 0x342\n 23872: ecalli 16 // 'value_transferred'\n 23874: t0 = 0x344\n 23878: jump @1544\n      : @834 [@dyn 417] (gas: 1)\n 23881: t0 = 836, jump @1544\n      : @835 [@dyn 418] (gas: 1)\n 23887: t0 = 838, jump @1512\n      : @836 [@dyn 419] (gas: 1)\n 23893: jump @857 if a0 == 0\n      : @837 (gas: 6)\n 23897: a1 = 0x20180\n 23902: i32 a1 = a1 + 0\n 23904: a0 = 0x1\n 23907: a2 = 0\n 23909: ecalli 13 // 'seal_return'\n 23911: jump @1010\n      : @838 (gas: 2)\n 23914: u64 [s1 + 344] = 0\n 23918: fallthrough\n      : @839 (gas: 5)\n 23919: a0 = u64 [s1 + 0x168]\n 23923: a0 = a0 << 0x1\n 23926: a4 = u64 [s1 + 0x158]\n 23930: a4 = a4 | a0\n 23933: fallthrough\n      : @840 (gas: 7)\n 23934: u64 [s1 + 984] = 0\n 23938: u64 [s1 + 976] = 0\n 23942: u64 [s1 + 968] = 0\n 23946: a1 = s1 + 0x3c0\n 23950: u64 [s1 + 0x3c0] = a4\n 23954: a0 = u64 [s1 + 0x118]\n 23958: ra = 840, jump @24\n      : @841 [@dyn 420] (gas: 3)\n 23964: a1 = 0x20\n 23967: a0 = u64 [s1 + 0x118]\n 23971: ra = 842, jump @37\n      : @842 [@dyn 421] (gas: 6)\n 23977: i32 a1 = a0 + 0\n 23979: a2 = 0x20\n 23982: a0 = 0\n 23984: ra = 0x34c\n 23988: ecalli 13 // 'seal_return'\n 23990: jump @844\n      : @843 (gas: 5)\n 23992: a2 = 0x20\n 23995: a0 = 0\n 23997: ra = 0x34c\n 24001: ecalli 13 // 'seal_return'\n 24003: fallthrough\n      : @844 [@dyn 422] (gas: 5)\n 24004: a0 = s1 + 0x1918\n 24008: u64 [a0 + 1400] = 0\n 24012: u64 [a0 + 1392] = 0\n 24016: u64 [a0 + 1384] = 0\n 24020: t0 = 846, jump @1516\n      : @845 [@dyn 423] (gas: 5)\n 24026: i32 a1 = a1 + 0xfffffffffffffe80\n 24030: a1 = a1 + s1\n 24033: u64 [a2 + 0x580] = a0\n 24037: a0 = 0\n 24039: ra = 848, jump @24\n      : @846 [@dyn 424] (gas: 3)\n 24045: t0 = 0x352\n 24049: a1 = s1 + 0x1918\n 24053: fallthrough\n      : @847 [@dyn 425] (gas: 9)\n 24054: u64 [a1 + 1376] = 0\n 24058: u64 [a1 + 1368] = 0\n 24062: u64 [a1 + 1352] = 0x41\n 24067: a2 = a1\n 24069: a0 = 0x4\n 24072: a1 = s1 + 0x1e60\n 24076: u64 [a2 + 1360] = 0\n 24080: ra = 0x33a\n 24084: jump @24\n      : @848 (gas: 15)\n 24087: a3 = a4\n 24089: a0 = s1 + 0x1918\n 24093: u64 [a0 + 1472] = 0\n 24097: a5 = s1 + 0x100\n 24101: a1 = u64 [a5]\n 24103: u64 [a0 + 0x5a8] = a1\n 24107: a1 = u64 [s1 + 0xf8]\n 24111: u64 [a0 + 0x5b0] = a1\n 24115: a1 = s1 + 0x1ec0\n 24119: a2 = u64 [a5 + 0x8]\n 24122: u64 [a0 + 0x5b8] = a2\n 24126: a0 = a4\n 24128: u64 [a5 + 0x98] = a3\n 24132: ra = 0x118\n 24136: jump @24\n      : @849 (gas: 3)\n 24139: a0 = u64 [s1 + 0x198]\n 24143: a0 = i32 [a0]\n 24145: jump @859 if a0 >u 99\n      : @850 (gas: 6)\n 24150: a1 = 0x20180\n 24155: i32 a1 = a1 + 0\n 24157: a0 = 0x1\n 24160: a2 = 0\n 24162: ecalli 13 // 'seal_return'\n 24164: jump @1010\n      : @851 (gas: 1)\n 24167: jump @864 if a0 != 3058722618\n      : @852 (gas: 11)\n 24175: a0 = s1 + 0x2918\n 24179: u64 [a0 + 928] = 0\n 24183: u64 [a0 + 920] = 0\n 24187: u64 [a0 + 912] = 0\n 24191: u64 [a0 + 904] = 0\n 24195: a0 = s1 + 0x3000\n 24199: i32 a0 = a0 + 0xfffffffffffffca0\n 24203: ra = 0x354\n 24207: ecalli 16 // 'value_transferred'\n 24209: t0 = 0x356\n 24213: jump @1544\n      : @853 [@dyn 426] (gas: 1)\n 24216: t0 = 854, jump @1544\n      : @854 [@dyn 427] (gas: 1)\n 24222: t0 = 856, jump @1518\n      : @855 [@dyn 428] (gas: 1)\n 24228: jump @869 if a0 == 0\n      : @856 (gas: 6)\n 24232: a1 = 0x20180\n 24237: i32 a1 = a1 + 0\n 24239: a0 = 0x1\n 24242: a2 = 0\n 24244: ecalli 13 // 'seal_return'\n 24246: jump @1010\n      : @857 (gas: 3)\n 24249: a0 = u64 [s1 + 0x198]\n 24253: a0 = i32 [a0]\n 24255: jump @872 if a0 >u 67\n      : @858 (gas: 6)\n 24260: a1 = 0x20180\n 24265: i32 a1 = a1 + 0\n 24267: a0 = 0x1\n 24270: a2 = 0\n 24272: ecalli 13 // 'seal_return'\n 24274: jump @1010\n      : @859 (gas: 4)\n 24277: a0 = s1 + 0x17a0\n 24281: ra = 0x35a\n 24285: t0 = 0x59e\n 24289: jump @1534\n      : @860 [@dyn 429] (gas: 14)\n 24292: a1 = s1 + 0x1118\n 24296: a2 = a1 + 0x600\n 24300: a0 = u64 [a2 + 0x88]\n 24304: u64 [s1 + 0x198] = a0\n 24308: a0 = u64 [a2 + 0x90]\n 24312: u64 [s1 + 0x190] = a0\n 24316: a0 = u64 [a2 + 0x98]\n 24320: u64 [s1 + 0x188] = a0\n 24324: a0 = u64 [a2 + 0xa0]\n 24328: u64 [s1 + 0x180] = a0\n 24332: a0 = s1 + 0x1780\n 24336: ra = 0x35c\n 24340: t0 = 0x5a2\n 24344: jump @1548\n      : @861 [@dyn 430] (gas: 14)\n 24347: a1 = s1 + 0x1118\n 24351: a2 = a1 + 0x600\n 24355: a0 = u64 [a2 + 0x68]\n 24358: u64 [s1 + 0x178] = a0\n 24362: a0 = u64 [a2 + 0x70]\n 24365: u64 [s1 + 0x170] = a0\n 24369: a0 = u64 [a2 + 0x78]\n 24372: u64 [s1 + 0x168] = a0\n 24376: a0 = u64 [a2 + 0x80]\n 24380: u64 [s1 + 0x160] = a0\n 24384: a0 = s1 + 0x1760\n 24388: ra = 0x35e\n 24392: t0 = 0x5a8\n 24396: jump @1548\n      : @862 [@dyn 431] (gas: 32)\n 24399: a4 = s1 + 0x1118\n 24403: a5 = a4 + 0x600\n 24407: a0 = u64 [a5 + 0x48]\n 24410: a1 = u64 [a5 + 0x50]\n 24413: a2 = u64 [a5 + 0x58]\n 24416: a3 = u64 [a5 + 0x60]\n 24419: u64 [a5] = a3\n 24421: a3 = a4 + 0x500\n 24425: u64 [a3 + 0xf8] = a2\n 24429: u64 [a3 + 0xf0] = a1\n 24433: u64 [a3 + 0xe8] = a0\n 24437: a4 = s1 + 0x100\n 24441: a0 = u64 [a4 + 0x60]\n 24444: u64 [a5 + 0x20] = a0\n 24447: a0 = u64 [a4 + 0x68]\n 24450: u64 [a5 + 0x18] = a0\n 24453: a0 = u64 [a4 + 0x70]\n 24456: u64 [a5 + 0x10] = a0\n 24459: a0 = u64 [a4 + 0x78]\n 24462: u64 [a5 + 0x8] = a0\n 24465: a0 = u64 [a4 + 0x80]\n 24469: u64 [a5 + 0x40] = a0\n 24472: a0 = u64 [a4 + 0x88]\n 24476: u64 [a5 + 0x38] = a0\n 24479: a0 = u64 [a4 + 0x90]\n 24483: u64 [a5 + 0x30] = a0\n 24486: a0 = s1 + 0x1740\n 24490: a1 = s1 + 0x1720\n 24494: a2 = s1 + 0x1700\n 24498: a3 = u64 [a4 + 0x98]\n 24502: u64 [a5 + 0x28] = a3\n 24505: ra = 864, jump @1332\n      : @863 [@dyn 432] (gas: 6)\n 24511: a1 = 0x20180\n 24516: i32 a1 = a1 + 0\n 24518: a0 = 0\n 24520: a2 = 0\n 24522: ecalli 13 // 'seal_return'\n 24524: jump @1010\n      : @864 (gas: 1)\n 24527: jump @924 if a0 != 235423050\n      : @865 (gas: 10)\n 24535: a0 = s1 + 0x2118\n 24539: u64 [a0 + 1504] = 0\n 24543: u64 [a0 + 1496] = 0\n 24547: u64 [a0 + 1488] = 0\n 24551: u64 [a0 + 1480] = 0\n 24555: a0 = s1 + 0x2000\n 24559: i32 a0 = a0 + 0x6e0\n 24563: ra = 0x362\n 24567: ecalli 16 // 'value_transferred'\n 24569: fallthrough\n      : @866 [@dyn 433] (gas: 3)\n 24570: a3 = s1 + 0x2118\n 24574: a4 = a3 + 0x500\n 24578: t0 = 868, jump @1514\n      : @867 [@dyn 434] (gas: 1)\n 24584: jump @929 if a0 == 0\n      : @868 (gas: 6)\n 24588: a1 = 0x20180\n 24593: i32 a1 = a1 + 0\n 24595: a0 = 0x1\n 24598: a2 = 0\n 24600: ecalli 13 // 'seal_return'\n 24602: jump @1010\n      : @869 (gas: 1)\n 24605: t0 = 870, jump @1532\n      : @870 [@dyn 435] (gas: 1)\n 24611: jump @932 if a1 <u a0\n      : @871 (gas: 6)\n 24615: a1 = 0x20180\n 24620: i32 a1 = a1 + 0\n 24622: a0 = 0x1\n 24625: a2 = 0\n 24627: ecalli 13 // 'seal_return'\n 24629: jump @1010\n      : @872 (gas: 4)\n 24632: a0 = s1 + 0x1b40\n 24636: ra = 0x368\n 24640: t0 = 0x5b2\n 24644: jump @1534\n      : @873 [@dyn 436] (gas: 7)\n 24647: a0 = s1 + 0x1918\n 24651: a0 = u64 [a0 + 0x228]\n 24655: u64 [s1 + 0x190] = a0\n 24659: a0 = s1 + 0x1b20\n 24663: ra = 0x36a\n 24667: t0 = 0x5a2\n 24671: jump @1548\n      : @874 [@dyn 437] (gas: 12)\n 24674: a0 = s1 + 0x1918\n 24678: a0 = u64 [a0 + 0x208]\n 24682: u64 [s1 + 0xf0] = a0\n 24686: a0 = 0x30180\n 24691: u64 [s1 + 0x108] = a0\n 24695: i32 a0 = a0 + 0\n 24697: u64 [s1 + 0x100] = a0\n 24701: ra = 0x36c\n 24705: ecalli 4 // 'caller'\n 24707: a2 = u64 [s1 + 0x108]\n 24711: t0 = 0x36e\n 24715: jump @1467\n      : @875 [@dyn 438] (gas: 2)\n 24718: a2 = u64 [s1 + 0x108]\n 24722: t0 = 878, jump @1467\n      : @876 [@dyn 439] (gas: 8)\n 24728: u64 [a2 + 512] = 0\n 24732: a4 = a2 + 0x100\n 24736: u64 [a4 + 0xf8] = a1\n 24740: u64 [a4 + 0xf0] = a0\n 24744: a1 = s1 + 0x1b00\n 24748: u64 [a4 + 0xe8] = a3\n 24752: a0 = 0\n 24754: ra = 880, jump @24\n      : @877 [@dyn 440] (gas: 3)\n 24760: t0 = 0x372\n 24764: a1 = s1 + 0x1918\n 24768: fallthrough\n      : @878 [@dyn 441] (gas: 8)\n 24769: u64 [a1 + 480] = 0\n 24773: u64 [a1 + 472] = 0\n 24777: u64 [a1 + 456] = 0x1\n 24782: a2 = a1\n 24784: a0 = 0x20\n 24787: a1 = s1 + 0x1ae0\n 24791: u64 [a2 + 464] = 0\n 24795: ra = 884, jump @24\n      : @879 [@dyn 442] (gas: 5)\n 24801: a0 = 0x20170\n 24806: u64 [s1 + 0x118] = a0\n 24810: a0 = i32 [0x20170]\n 24815: a1 = 0x3f\n 24818: jump @881 if a1 <u a0\n      : @880 (gas: 4)\n 24821: a1 = u64 [s1 + 0x118]\n 24825: u32 [a1 + 0] = 0x40\n 24828: t0 = 0x376\n 24832: jump @1539\n      : @881 (gas: 1)\n 24835: t0 = 886, jump @1539\n      : @882 [@dyn 443] (gas: 10)\n 24841: a0 = 0x20180\n 24846: i32 a0 = a0 + 0\n 24848: i32 a2 = a2 + 0\n 24850: a1 = 0x40\n 24853: u64 [s1 + 0x110] = a0\n 24857: ra = 0x378\n 24861: ecalli 8 // 'hash_keccak_256'\n 24863: a3 = u64 [s1 + 0x198]\n 24867: t0 = 0x37a\n 24871: jump @1482\n      : @883 [@dyn 444] (gas: 2)\n 24874: a3 = u64 [s1 + 0x198]\n 24878: t0 = 890, jump @1482\n      : @884 [@dyn 445] (gas: 14)\n 24884: u64 [s1 + 0x198] = a0\n 24888: sp = a0\n 24890: a0 = u64 [s1 + 0x190]\n 24894: a0 = a0 << 0x20\n 24897: a2 = a0 >> 0x20\n 24900: a0 = s1 + 0x1918\n 24904: u64 [a0 + 448] = 0\n 24908: u64 [a0 + 440] = 0\n 24912: u64 [a0 + 432] = 0\n 24916: a1 = s1 + 0x1ac0\n 24920: u64 [s1 + 0xf8] = a2\n 24924: u64 [a0 + 0x1a8] = a2\n 24928: a0 = 0\n 24930: ra = 892, jump @24\n      : @885 [@dyn 446] (gas: 14)\n 24936: a0 = u64 [s1 + 0x170]\n 24940: a1 = s1 + 0x1918\n 24944: a2 = a1 + 0x100\n 24948: u64 [a2 + 0xa0] = a0\n 24952: a0 = u64 [s1 + 0x178]\n 24956: u64 [a2 + 0x98] = a0\n 24960: a0 = u64 [s1 + 0x180]\n 24964: u64 [a2 + 0x90] = a0\n 24968: a3 = a1\n 24970: a0 = 0x20\n 24973: a1 = s1 + 0x1aa0\n 24977: a2 = u64 [s1 + 0x188]\n 24981: u64 [a3 + 0x188] = a2\n 24985: ra = 894, jump @24\n      : @886 [@dyn 447] (gas: 3)\n 24991: a0 = u64 [s1 + 0x118]\n 24995: a0 = i32 [a0]\n 24997: jump @888 if a0 >u 63\n      : @887 (gas: 4)\n 25001: a0 = u64 [s1 + 0x118]\n 25005: u32 [a0 + 0] = 0x40\n 25008: t0 = 0x380\n 25012: jump @1474\n      : @888 (gas: 1)\n 25015: t0 = 896, jump @1474\n      : @889 [@dyn 448] (gas: 5)\n 25021: ra = 0x382\n 25025: ecalli 8 // 'hash_keccak_256'\n 25027: a3 = u64 [s1 + 0x190]\n 25031: t0 = 0x384\n 25035: jump @1488\n      : @890 [@dyn 449] (gas: 2)\n 25038: a3 = u64 [s1 + 0x190]\n 25042: t0 = 900, jump @1488\n      : @891 [@dyn 450] (gas: 11)\n 25048: a4 = u64 [s1 + 0x198]\n 25052: u64 [a4 + 0x18] = a3\n 25055: u64 [a4 + 0x10] = a2\n 25058: u64 [a4 + 0x8] = a1\n 25061: u64 [a4] = a0\n 25063: a0 = u64 [s1 + 0x100]\n 25067: ra = 0x386\n 25071: ecalli 4 // 'caller'\n 25073: a2 = u64 [s1 + 0x108]\n 25077: t0 = 0x388\n 25081: jump @1531\n      : @892 [@dyn 451] (gas: 2)\n 25084: a2 = u64 [s1 + 0x108]\n 25088: t0 = 904, jump @1531\n      : @893 [@dyn 452] (gas: 10)\n 25094: u64 [s1 + 0x190] = a1\n 25098: a0 = a0 >> 0x20\n 25101: a1 = reverse a2\n 25103: u64 [s1 + 0x188] = a1\n 25107: a1 = a1 << 0x20\n 25110: a0 = a0 | a1\n 25113: u64 [s1 + 0x180] = a0\n 25117: a0 = s1 + 0x1a80\n 25121: a1 = u64 [s1 + 0x198]\n 25125: ra = 906, jump @26\n      : @894 [@dyn 453] (gas: 2)\n 25131: a2 = s1 + 0x1918\n 25135: fallthrough\n      : @895 (gas: 19)\n 25136: a0 = u64 [a2 + 0x170]\n 25140: a1 = u32 [a2 + 0x16c]\n 25144: a2 = u64 [a2 + 0x178]\n 25148: a3 = a0 << 0x20\n 25151: a1 = a1 | a3\n 25154: a3 = a2 << 0x20\n 25157: a0 = a0 >> 0x20\n 25160: a0 = a0 | a3\n 25163: a4 = s1 + 0x100\n 25167: a3 = u64 [a4 + 0x80]\n 25171: a0 = a0 ^ a3\n 25174: a3 = u64 [a4 + 0x90]\n 25178: a1 = a1 ^ a3\n 25181: a3 = u64 [a4 + 0x88]\n 25185: a2 = a2 ^ a3\n 25188: a2 = a2 >> 0x20\n 25191: a1 = a1 | a2\n 25194: a0 = a0 | a1\n 25197: jump @975 if a0 != 0\n      : @896 (gas: 4)\n 25201: a0 = s1 + 0x3000\n 25205: i32 a0 = a0 + 0xfffffffffffffc40\n 25209: ecalli 9 // 'now'\n 25211: fallthrough\n      : @897 (gas: 51)\n 25212: a0 = s1 + 0x2918\n 25216: t0 = u64 [a0 + 0x340]\n 25220: a4 = u64 [a0 + 0x338]\n 25224: u64 [s1 + 0x158] = a4\n 25228: t2 = u64 [a0 + 0x330]\n 25232: a3 = u64 [a0 + 0x328]\n 25236: u64 [s1 + 0x140] = a3\n 25240: a0 = clz t0\n 25242: a1 = clz a4\n 25244: a2 = a1 + 0x40\n 25247: a2 = a0 if t0 != 0\n 25250: a0 = clz t2\n 25252: a1 = clz a3\n 25254: a1 = a1 + 0x40\n 25257: a1 = a0 if t2 != 0\n 25260: a0 = a1 + 0x80\n 25264: a3 = a4 | t0\n 25267: a2 = a0 if a3 == 0\n 25270: a5 = a0 <u a1\n 25273: a5 = 0 if a3 != 0\n 25275: a4 = a5 >u 0\n 25277: a0 = a2 <u 0xf0\n 25281: a3 = a0 ^ 0x1\n 25284: a4 = a3 if a5 == 0\n 25287: a0 = a4 <u 0x1\n 25290: ra = a0 + 0xffffffffffffffff\n 25293: t1 = -a4\n 25295: a5 = -a5\n 25297: a3 = a5 - a3\n 25300: a2 = 0xef - a2\n 25304: a5 = t1 >u 0\n 25306: a0 = ra >u 0\n 25308: a0 = a5 if ra == 0\n 25311: a5 = a2 <u 0x100\n 25315: a5 = a5 ^ 0x1\n 25318: a1 = a3 >u 0\n 25320: a5 = a1 if a3 != 0\n 25323: a5 = a0 if a4 != 0\n 25326: u64 [s1 + 0x138] = t2\n 25330: u64 [s1 + 0x150] = t0\n 25334: a0 = t2 | t0\n 25337: a4 = u64 [s1 + 0x140]\n 25341: a1 = u64 [s1 + 0x158]\n 25345: a1 = a1 | a4\n 25348: a0 = a0 | a1\n 25351: a0 = a0 <u 0x1\n 25354: a0 = a0 | a5\n 25357: a1 = a4\n 25359: a1 = 0 if a0 != 0\n 25361: u64 [s1 + 0x198] = a1\n 25365: jump @979 if a0 != 0\n      : @898 (gas: 1)\n 25369: t0 = 908, jump @1551\n      : @899 [@dyn 454] (gas: 1)\n 25375: jump @979 if a0 == 0\n      : @900 (gas: 1)\n 25379: t0 = 910, jump @1476\n      : @901 [@dyn 455] (gas: 1)\n 25385: ra = 912, jump @1552\n      : @902 [@dyn 456] (gas: 1)\n 25391: t0 = 914, jump @1537\n      : @903 [@dyn 457] (gas: 1)\n 25397: ra = 916, jump @1557\n      : @904 [@dyn 458] (gas: 1)\n 25403: t0 = 918, jump @1529\n      : @905 [@dyn 459] (gas: 1)\n 25409: ra = 920, jump @1557\n      : @906 [@dyn 460] (gas: 8)\n 25415: u64 [s1 + 0x120] = a0\n 25419: u64 [s1 + 0xe8] = a1\n 25423: a2 = u64 [s1 + 0x160]\n 25427: a0 = a2 <u 0x80\n 25431: u64 [s1 + 0xe0] = a0\n 25435: a0 = u64 [s1 + 0x140]\n 25439: a1 = u64 [s1 + 0x138]\n 25443: ra = 922, jump @1557\n      : @907 [@dyn 461] (gas: 1)\n 25449: t0 = 924, jump @1549\n      : @908 [@dyn 462] (gas: 4)\n 25455: a3 = u64 [s1 + 0xe0]\n 25459: a0 = 0 if a3 == 0\n 25461: u64 [a4 + 0x78] = a0\n 25464: jump @977 if a1 == 0\n      : @909 (gas: 7)\n 25468: a2 = a3\n 25470: a0 = u64 [s1 + 0x168]\n 25474: a1 = u64 [s1 + 0x128]\n 25478: a0 = a0 | a1\n 25481: a5 = a3\n 25483: a1 = u64 [s1 + 0xe8]\n 25487: t0 = 926, jump @1472\n      : @910 [@dyn 463] (gas: 1)\n 25493: ra = 928, jump @1552\n      : @911 [@dyn 464] (gas: 1)\n 25499: t0 = 930, jump @1536\n      : @912 [@dyn 465] (gas: 1)\n 25505: ra = 932, jump @1552\n      : @913 [@dyn 466] (gas: 2)\n 25511: u64 [s1 + 0xe8] = a0\n 25515: t0 = 934, jump @1528\n      : @914 [@dyn 467] (gas: 1)\n 25521: ra = 936, jump @1557\n      : @915 [@dyn 468] (gas: 1)\n 25527: t0 = 938, jump @1495\n      : @916 [@dyn 469] (gas: 2)\n 25533: a1 = u64 [s1 + 0xe8]\n 25537: t0 = 940, jump @1506\n      : @917 [@dyn 470] (gas: 1)\n 25543: ra = 942, jump @1552\n      : @918 [@dyn 471] (gas: 1)\n 25549: t0 = 944, jump @1481\n      : @919 [@dyn 472] (gas: 1)\n 25555: t0 = 946, jump @1493\n      : @920 [@dyn 473] (gas: 5)\n 25561: t0 = ra <u a2\n 25564: a4 = u64 [s1 + 0x128]\n 25568: a5 = a4 <u a3\n 25571: a5 = t0 if t1 != 0\n 25574: t0 = 948, jump @1494\n      : @921 [@dyn 474] (gas: 20)\n 25580: t0 = a0 | a1\n 25583: a1 = a4 << 0x1\n 25586: a4 = u64 [s1 + 0x170]\n 25590: t1 = a4 >> 0x3f\n 25593: t1 = a1 | t1\n 25596: a1 = a4 << 0x1\n 25599: a4 = u64 [s1 + 0x178]\n 25603: t2 = a4 >> 0x3f\n 25606: a1 = a1 | t2\n 25609: a4 = a4 << 0x1\n 25612: a0 = u64 [s1 + 0x158]\n 25616: a4 = a4 | a0\n 25619: u64 [s1 + 0x178] = a4\n 25623: a0 = u64 [s1 + 0x150]\n 25627: a1 = a1 | a0\n 25630: u64 [s1 + 0x170] = a1\n 25634: a1 = a0 | t1\n 25637: u64 [s1 + 0x160] = a1\n 25641: a0 = a0 | t0\n 25644: t0 = 950, jump @1470\n      : @922 [@dyn 475] (gas: 18)\n 25650: t0 = a4 <u a2\n 25653: a2 = a4 - a2\n 25656: a4 = a3 <u 0x1\n 25659: a5 = a5 - a4\n 25662: a4 = u64 [a0 + 0x88]\n 25666: a4 = a4 - t0\n 25669: a3 = a3 + 0xffffffffffffffff\n 25672: u64 [a0 + 0x90] = a5\n 25676: u64 [a0 + 0x88] = a4\n 25680: t0 = a5 | a4\n 25683: u64 [a0 + 0x98] = a3\n 25687: a4 = a3 | a2\n 25690: a3 = a4 | t0\n 25693: a4 = ra & 0x1\n 25696: u64 [a0 + 0x58] = a4\n 25699: u64 [a0 + 0x80] = a2\n 25703: u64 [s1 + 336] = 0\n 25707: jump @919 if a3 != 0\n      : @923 (gas: 1)\n 25711: jump @978\n      : @924 (gas: 1)\n 25714: jump @1002 if a0 != 1158823118\n      : @925 (gas: 10)\n 25722: a0 = s1 + 0x2118\n 25726: u64 [a0 + 1952] = 0\n 25730: u64 [a0 + 1944] = 0\n 25734: u64 [a0 + 1936] = 0\n 25738: u64 [a0 + 1928] = 0\n 25742: a0 = s1 + 0x3000\n 25746: i32 a0 = a0 + 0xfffffffffffff8a0\n 25750: ra = 0x3b8\n 25754: ecalli 16 // 'value_transferred'\n 25756: fallthrough\n      : @926 [@dyn 476] (gas: 3)\n 25757: a3 = s1 + 0x2118\n 25761: a4 = a3 + 0x700\n 25765: t0 = 954, jump @1518\n      : @927 [@dyn 477] (gas: 1)\n 25771: jump @1010 if a0 == 0\n      : @928 (gas: 6)\n 25775: a1 = 0x20180\n 25780: i32 a1 = a1 + 0\n 25782: a0 = 0x1\n 25785: a2 = 0\n 25787: ecalli 13 // 'seal_return'\n 25789: jump @1010\n      : @929 (gas: 1)\n 25792: t0 = 956, jump @1532\n      : @930 [@dyn 478] (gas: 1)\n 25798: jump @1012 if a1 <u a0\n      : @931 (gas: 6)\n 25802: a1 = 0x20180\n 25807: i32 a1 = a1 + 0\n 25809: a0 = 0x1\n 25812: a2 = 0\n 25814: ecalli 13 // 'seal_return'\n 25816: jump @1010\n      : @932 (gas: 4)\n 25819: a0 = s1 + 0x1dc0\n 25823: ra = 0x3be\n 25827: t0 = 0x5b2\n 25831: jump @1534\n      : @933 [@dyn 479] (gas: 12)\n 25834: a0 = s1 + 0x1918\n 25838: a0 = u64 [a0 + 0x4a8]\n 25842: u64 [s1 + 0x170] = a0\n 25846: a0 = 0x30180\n 25851: u64 [s1 + 0x188] = a0\n 25855: i32 a0 = a0 + 0\n 25857: u64 [s1 + 0x180] = a0\n 25861: ra = 0x3c0\n 25865: ecalli 4 // 'caller'\n 25867: a2 = u64 [s1 + 0x188]\n 25871: t0 = 0x3c2\n 25875: jump @1467\n      : @934 [@dyn 480] (gas: 2)\n 25878: a2 = u64 [s1 + 0x188]\n 25882: t0 = 962, jump @1467\n      : @935 [@dyn 481] (gas: 8)\n 25888: u64 [a2 + 1184] = 0\n 25892: a4 = a2 + 0x400\n 25896: u64 [a4 + 0x98] = a1\n 25900: u64 [a4 + 0x90] = a0\n 25904: a1 = s1 + 0x1da0\n 25908: u64 [a4 + 0x88] = a3\n 25912: a0 = 0\n 25914: ra = 964, jump @24\n      : @936 [@dyn 482] (gas: 3)\n 25920: t0 = 0x3c6\n 25924: a1 = s1 + 0x1918\n 25928: fallthrough\n      : @937 [@dyn 483] (gas: 8)\n 25929: u64 [a1 + 1152] = 0\n 25933: u64 [a1 + 1144] = 0\n 25937: u64 [a1 + 1128] = 0x1\n 25942: a2 = a1\n 25944: a0 = 0x20\n 25947: a1 = s1 + 0x1d80\n 25951: u64 [a2 + 1136] = 0\n 25955: ra = 968, jump @24\n      : @938 [@dyn 484] (gas: 4)\n 25961: a0 = 0x20170\n 25966: u64 [s1 + 0x198] = a0\n 25970: a0 = i32 [0x20170]\n 25975: jump @940 if a0 >u 63\n      : @939 (gas: 1)\n 25979: t0 = 970, jump @1533\n      : @940 [@dyn 485] (gas: 12)\n 25985: a0 = sp + 0xffffffffffffffe0\n 25988: a2 = a0 & 0xffffffffffffffe0\n 25991: u64 [s1 + 0x178] = a2\n 25995: sp = a2\n 25997: a0 = 0x20180\n 26002: i32 a0 = a0 + 0\n 26004: i32 a2 = a2 + 0\n 26006: a1 = 0x40\n 26009: u64 [s1 + 0x190] = a0\n 26013: ra = 0x3cc\n 26017: ecalli 8 // 'hash_keccak_256'\n 26019: fallthrough\n      : @941 [@dyn 486] (gas: 14)\n 26020: a3 = u64 [s1 + 0x178]\n 26024: a0 = u64 [a3 + 0x18]\n 26027: a1 = u64 [a3 + 0x10]\n 26030: a2 = u64 [a3 + 0x8]\n 26033: a3 = u64 [a3]\n 26035: a0 = reverse a0\n 26037: u64 [s1 + 0x168] = a0\n 26041: a0 = reverse a1\n 26043: u64 [s1 + 0x160] = a0\n 26047: a0 = reverse a2\n 26049: u64 [s1 + 0x158] = a0\n 26053: a0 = reverse a3\n 26055: u64 [s1 + 0x150] = a0\n 26059: t0 = 974, jump @1523\n      : @942 [@dyn 487] (gas: 12)\n 26065: a0 = u64 [s1 + 0x170]\n 26069: a0 = a0 << 0x20\n 26072: a2 = a0 >> 0x20\n 26075: a0 = s1 + 0x1918\n 26079: u64 [a0 + 1120] = 0\n 26083: u64 [a0 + 1112] = 0\n 26087: u64 [a0 + 1104] = 0\n 26091: a1 = s1 + 0x1d60\n 26095: u64 [s1 + 0x170] = a2\n 26099: u64 [a0 + 0x448] = a2\n 26103: a0 = 0\n 26105: ra = 976, jump @24\n      : @943 [@dyn 488] (gas: 14)\n 26111: a0 = u64 [s1 + 0x150]\n 26115: a1 = s1 + 0x1918\n 26119: a2 = a1 + 0x400\n 26123: u64 [a2 + 0x40] = a0\n 26126: a0 = u64 [s1 + 0x158]\n 26130: u64 [a2 + 0x38] = a0\n 26133: a0 = u64 [s1 + 0x160]\n 26137: u64 [a2 + 0x30] = a0\n 26140: a3 = a1\n 26142: a0 = 0x20\n 26145: a1 = s1 + 0x1d40\n 26149: a2 = u64 [s1 + 0x168]\n 26153: u64 [a3 + 0x428] = a2\n 26157: ra = 978, jump @24\n      : @944 [@dyn 489] (gas: 1)\n 26163: t0 = 980, jump @1510\n      : @945 [@dyn 490] (gas: 1)\n 26169: jump @947 if a1 <u a0\n      : @946 (gas: 1)\n 26172: t0 = 982, jump @1542\n      : @947 [@dyn 491] (gas: 4)\n 26178: a0 = sp + 0xffffffffffffffe0\n 26181: a0 = a0 & 0xffffffffffffffe0\n 26184: u64 [s1 + 0x168] = a0\n 26188: t0 = 984, jump @1469\n      : @948 [@dyn 492] (gas: 5)\n 26194: ra = 0x3da\n 26198: ecalli 8 // 'hash_keccak_256'\n 26200: a3 = u64 [s1 + 0x168]\n 26204: t0 = 0x3dc\n 26208: jump @1488\n      : @949 [@dyn 493] (gas: 2)\n 26211: a3 = u64 [s1 + 0x168]\n 26215: t0 = 988, jump @1488\n      : @950 [@dyn 494] (gas: 11)\n 26221: a4 = u64 [s1 + 0x178]\n 26225: u64 [a4 + 0x18] = a3\n 26228: u64 [a4 + 0x10] = a2\n 26231: u64 [a4 + 0x8] = a1\n 26234: u64 [a4] = a0\n 26236: a0 = u64 [s1 + 0x180]\n 26240: ra = 0x3de\n 26244: ecalli 4 // 'caller'\n 26246: a2 = u64 [s1 + 0x188]\n 26250: t0 = 0x3e0\n 26254: jump @1531\n      : @951 [@dyn 495] (gas: 2)\n 26257: a2 = u64 [s1 + 0x188]\n 26261: t0 = 992, jump @1531\n      : @952 [@dyn 496] (gas: 10)\n 26267: u64 [s1 + 0x168] = a1\n 26271: a0 = a0 >> 0x20\n 26274: a1 = reverse a2\n 26276: u64 [s1 + 0x160] = a1\n 26280: a1 = a1 << 0x20\n 26283: a0 = a0 | a1\n 26286: u64 [s1 + 0x158] = a0\n 26290: a0 = s1 + 0x1d20\n 26294: a1 = u64 [s1 + 0x178]\n 26298: ra = 994, jump @26\n      : @953 [@dyn 497] (gas: 2)\n 26304: a2 = s1 + 0x1918\n 26308: fallthrough\n      : @954 (gas: 19)\n 26309: a0 = u64 [a2 + 0x410]\n 26313: a1 = u32 [a2 + 0x40c]\n 26317: a2 = u64 [a2 + 0x418]\n 26321: a3 = a0 << 0x20\n 26324: a1 = a1 | a3\n 26327: a3 = a2 << 0x20\n 26330: a0 = a0 >> 0x20\n 26333: a0 = a0 | a3\n 26336: a4 = s1 + 0x100\n 26340: a3 = u64 [a4 + 0x58]\n 26343: a0 = a0 ^ a3\n 26346: a3 = u64 [a4 + 0x68]\n 26349: a1 = a1 ^ a3\n 26352: a3 = u64 [a4 + 0x60]\n 26355: a2 = a2 ^ a3\n 26358: a2 = a2 >> 0x20\n 26361: a1 = a1 | a2\n 26364: a0 = a0 | a1\n 26367: jump @1024 if a0 != 0\n      : @955 (gas: 6)\n 26371: a0 = u64 [s1 + 0x180]\n 26375: ra = 0x3e4\n 26379: ecalli 4 // 'caller'\n 26381: a2 = u64 [s1 + 0x188]\n 26385: t0 = 0x3e6\n 26389: jump @1467\n      : @956 [@dyn 498] (gas: 2)\n 26392: a2 = u64 [s1 + 0x188]\n 26396: t0 = 998, jump @1467\n      : @957 [@dyn 499] (gas: 8)\n 26402: u64 [a2 + 992] = 0\n 26406: a4 = a2 + 0x300\n 26410: u64 [a4 + 0xd8] = a1\n 26414: u64 [a4 + 0xd0] = a0\n 26418: a1 = s1 + 0x1ce0\n 26422: u64 [a4 + 0xc8] = a3\n 26426: a0 = 0\n 26428: ra = 1000, jump @24\n      : @958 [@dyn 500] (gas: 3)\n 26434: t0 = 0x3ea\n 26438: a1 = s1 + 0x1918\n 26442: fallthrough\n      : @959 [@dyn 501] (gas: 8)\n 26443: u64 [a1 + 960] = 0\n 26447: u64 [a1 + 952] = 0\n 26451: u64 [a1 + 936] = 0x1\n 26456: a2 = a1\n 26458: a0 = 0x20\n 26461: a1 = s1 + 0x1cc0\n 26465: u64 [a2 + 944] = 0\n 26469: ra = 1004, jump @24\n      : @960 [@dyn 502] (gas: 1)\n 26475: t0 = 1006, jump @1510\n      : @961 [@dyn 503] (gas: 1)\n 26481: jump @963 if a1 <u a0\n      : @962 (gas: 1)\n 26484: t0 = 1008, jump @1533\n      : @963 [@dyn 504] (gas: 4)\n 26490: a0 = sp + 0xffffffffffffffe0\n 26493: a0 = a0 & 0xffffffffffffffe0\n 26496: u64 [s1 + 0x178] = a0\n 26500: t0 = 1010, jump @1469\n      : @964 [@dyn 505] (gas: 17)\n 26506: ecalli 8 // 'hash_keccak_256'\n 26508: a3 = u64 [s1 + 0x178]\n 26512: a0 = u64 [a3 + 0x18]\n 26515: a1 = u64 [a3 + 0x10]\n 26518: a2 = u64 [a3 + 0x8]\n 26521: a3 = u64 [a3]\n 26523: a0 = reverse a0\n 26525: u64 [s1 + 0x178] = a0\n 26529: a0 = reverse a1\n 26531: u64 [s1 + 0x168] = a0\n 26535: a0 = reverse a2\n 26537: u64 [s1 + 0x160] = a0\n 26541: a0 = reverse a3\n 26543: u64 [s1 + 0x158] = a0\n 26547: t0 = 0x3f4\n 26551: a2 = s1 + 0x1918\n 26555: fallthrough\n      : @965 [@dyn 506] (gas: 8)\n 26556: u64 [a2 + 928] = 0\n 26560: u64 [a2 + 920] = 0\n 26564: u64 [a2 + 912] = 0\n 26568: a1 = s1 + 0x1ca0\n 26572: a0 = u64 [s1 + 0x170]\n 26576: u64 [a2 + 0x388] = a0\n 26580: a0 = 0\n 26582: ra = 1014, jump @24\n      : @966 [@dyn 507] (gas: 14)\n 26588: a0 = u64 [s1 + 0x158]\n 26592: a1 = s1 + 0x1918\n 26596: a2 = a1 + 0x300\n 26600: u64 [a2 + 0x80] = a0\n 26604: a0 = u64 [s1 + 0x160]\n 26608: u64 [a2 + 0x78] = a0\n 26611: a0 = u64 [s1 + 0x168]\n 26615: u64 [a2 + 0x70] = a0\n 26618: a3 = a1\n 26620: a0 = 0x20\n 26623: a1 = s1 + 0x1c80\n 26627: a2 = u64 [s1 + 0x178]\n 26631: u64 [a3 + 0x368] = a2\n 26635: ra = 1016, jump @24\n      : @967 [@dyn 508] (gas: 1)\n 26641: t0 = 1018, jump @1510\n      : @968 [@dyn 509] (gas: 1)\n 26647: jump @970 if a1 <u a0\n      : @969 (gas: 1)\n 26650: t0 = 1020, jump @1542\n      : @970 [@dyn 510] (gas: 4)\n 26656: a0 = sp + 0xffffffffffffffe0\n 26659: a0 = a0 & 0xffffffffffffffe0\n 26662: u64 [s1 + 0x178] = a0\n 26666: t0 = 1022, jump @1469\n      : @971 [@dyn 511] (gas: 28)\n 26672: ecalli 8 // 'hash_keccak_256'\n 26674: a3 = u64 [s1 + 0x178]\n 26678: a0 = u64 [a3]\n 26680: a1 = u64 [a3 + 0x8]\n 26683: a2 = u64 [a3 + 0x10]\n 26686: a3 = u64 [a3 + 0x18]\n 26689: t0 = reverse a0\n 26691: a0 = reverse a1\n 26693: a2 = reverse a2\n 26695: a3 = reverse a3\n 26697: a4 = sp + 0xffffffffffffffe0\n 26700: a1 = a4 & 0xffffffffffffffe0\n 26703: sp = a1\n 26705: a4 = a3 + 0x2\n 26708: a3 = a4 <u a3\n 26711: a5 = a2 + a3\n 26714: a2 = a5 <u a2\n 26717: a2 = a3 if a3 == 0\n 26720: a2 = a2 + a0\n 26723: a0 = a2 <u a0\n 26726: a0 = a0 + t0\n 26729: u64 [a1 + 0x8] = a5\n 26732: u64 [a1] = a4\n 26734: u64 [a1 + 0x10] = a2\n 26737: u64 [a1 + 0x18] = a0\n 26740: a0 = s1 + 0x1c60\n 26744: u64 [s1 + 0x178] = a1\n 26748: ra = 1024, jump @26\n      : @972 [@dyn 512] (gas: 4)\n 26754: a0 = s1 + 0x1918\n 26758: a0 = u64 [a0 + 0x350]\n 26762: a1 = a0 & 0xff\n 26766: jump @1029 if a1 == 0\n      : @973 (gas: 3)\n 26770: t0 = 0x402\n 26774: a2 = s1 + 0x1918\n 26778: fallthrough\n      : @974 [@dyn 513] (gas: 9)\n 26779: u64 [a2 + 824] = 0\n 26783: u64 [a2 + 816] = 0\n 26787: a0 = 0xc1c184c800000000\n 26797: u64 [a2 + 0x340] = a0\n 26801: a1 = s1 + 0x1c40\n 26805: u64 [a2 + 808] = 0\n 26809: a0 = 0\n 26811: ra = 0x43e\n 26815: jump @24\n      : @975 (gas: 3)\n 26818: t0 = 0x404\n 26822: a2 = s1 + 0x1918\n 26826: fallthrough\n      : @976 [@dyn 514] (gas: 9)\n 26827: u64 [a2 + 344] = 0\n 26831: u64 [a2 + 336] = 0\n 26835: a0 = 0x6f1cf7db00000000\n 26845: u64 [a2 + 0x160] = a0\n 26849: a1 = s1 + 0x1a60\n 26853: u64 [a2 + 328] = 0\n 26857: a0 = 0\n 26859: ra = 0x54c\n 26863: jump @24\n      : @977 (gas: 2)\n 26866: u64 [s1 + 344] = 0\n 26870: fallthrough\n      : @978 (gas: 7)\n 26871: a2 = s1 + 0x100\n 26875: a0 = u64 [a2 + 0x78]\n 26878: a0 = a0 << 0x1\n 26881: a1 = u64 [a2 + 0x58]\n 26884: a0 = a0 | a1\n 26887: u64 [a2 + 0x98] = a0\n 26891: fallthrough\n      : @979 (gas: 3)\n 26892: a0 = u64 [s1 + 0xf0]\n 26896: a1 = u64 [s1 + 0x198]\n 26900: jump @1048 if a0 != a1\n      : @980 (gas: 6)\n 26904: a0 = u64 [s1 + 0x100]\n 26908: ra = 0x406\n 26912: ecalli 4 // 'caller'\n 26914: a2 = u64 [s1 + 0x108]\n 26918: t0 = 0x408\n 26922: jump @1467\n      : @981 [@dyn 515] (gas: 2)\n 26925: a2 = u64 [s1 + 0x108]\n 26929: t0 = 1032, jump @1467\n      : @982 [@dyn 516] (gas: 8)\n 26935: u64 [a2 + 288] = 0\n 26939: a4 = a2 + 0x100\n 26943: u64 [a4 + 0x18] = a1\n 26946: u64 [a4 + 0x10] = a0\n 26949: a1 = s1 + 0x1a20\n 26953: u64 [a4 + 0x8] = a3\n 26956: a0 = 0\n 26958: ra = 1034, jump @24\n      : @983 [@dyn 517] (gas: 3)\n 26964: t0 = 0x40c\n 26968: a1 = s1 + 0x1918\n 26972: fallthrough\n      : @984 [@dyn 518] (gas: 8)\n 26973: u64 [a1 + 256] = 0\n 26977: u64 [a1 + 248] = 0\n 26981: u64 [a1 + 232] = 0x1\n 26986: a2 = a1\n 26988: a0 = 0x20\n 26991: a1 = s1 + 0x1a00\n 26995: u64 [a2 + 240] = 0\n 26999: ra = 1038, jump @24\n      : @985 [@dyn 519] (gas: 3)\n 27005: a0 = u64 [s1 + 0x118]\n 27009: a0 = i32 [a0]\n 27011: jump @987 if a0 >u 63\n      : @986 (gas: 4)\n 27015: a1 = u64 [s1 + 0x118]\n 27019: u32 [a1 + 0] = 0x40\n 27022: t0 = 0x410\n 27026: jump @1474\n      : @987 (gas: 1)\n 27029: t0 = 1040, jump @1474\n      : @988 [@dyn 520] (gas: 4)\n 27035: ra = 0x412\n 27039: ecalli 8 // 'hash_keccak_256'\n 27041: t0 = 0x414\n 27045: jump @1479\n      : @989 [@dyn 521] (gas: 1)\n 27048: t0 = 1044, jump @1479\n      : @990 [@dyn 522] (gas: 8)\n 27054: u64 [a2 + 0xe0] = a0\n 27058: u64 [a2 + 0xd8] = a0\n 27062: u64 [a2 + 0xd0] = a0\n 27066: a1 = s1 + 0x19e0\n 27070: a0 = u64 [s1 + 0xf8]\n 27074: u64 [a2 + 0xc8] = a0\n 27078: a0 = 0\n 27080: ra = 1046, jump @24\n      : @991 [@dyn 523] (gas: 13)\n 27086: a0 = u64 [s1 + 0x178]\n 27090: a1 = s1 + 0x1918\n 27094: u64 [a1 + 0xc0] = a0\n 27098: a0 = u64 [s1 + 0x180]\n 27102: u64 [a1 + 0xb8] = a0\n 27106: a0 = u64 [s1 + 0x188]\n 27110: u64 [a1 + 0xb0] = a0\n 27114: a3 = a1\n 27116: a0 = 0x20\n 27119: a1 = s1 + 0x19c0\n 27123: a2 = u64 [s1 + 0x190]\n 27127: u64 [a3 + 0xa8] = a2\n 27131: ra = 1048, jump @24\n      : @992 [@dyn 524] (gas: 3)\n 27137: a0 = u64 [s1 + 0x118]\n 27141: a0 = i32 [a0]\n 27143: jump @994 if a0 >u 63\n      : @993 (gas: 4)\n 27147: a0 = u64 [s1 + 0x118]\n 27151: u32 [a0 + 0] = 0x40\n 27154: t0 = 0x41a\n 27158: jump @1474\n      : @994 (gas: 1)\n 27161: t0 = 1050, jump @1474\n      : @995 [@dyn 525] (gas: 4)\n 27167: ra = 0x41c\n 27171: ecalli 8 // 'hash_keccak_256'\n 27173: t0 = 0x41e\n 27177: jump @1508\n      : @996 [@dyn 526] (gas: 1)\n 27180: t0 = 1054, jump @1508\n      : @997 [@dyn 527] (gas: 2)\n 27186: a4 = a3 + 0x2\n 27189: t0 = 1056, jump @1480\n      : @998 [@dyn 528] (gas: 9)\n 27195: a1 = s1 + 0x2918\n 27199: a3 = a1 + 0x300\n 27203: u64 [a3 + 0x48] = a4\n 27206: u64 [a3 + 0x50] = a5\n 27209: u64 [a3 + 0x58] = a2\n 27212: u64 [a3 + 0x60] = a0\n 27215: a0 = s1 + 0x19a0\n 27219: a1 = s1 + 0x2c60\n 27223: ra = 1058, jump @26\n      : @999 [@dyn 529] (gas: 3)\n 27229: a0 = s1 + 0x1918\n 27233: a0 = u8 [a0 + 0x90]\n 27237: jump @1050 if a0 == 0\n      : @1000 (gas: 3)\n 27241: t0 = 0x424\n 27245: a2 = s1 + 0x1918\n 27249: fallthrough\n      : @1001 [@dyn 530] (gas: 9)\n 27250: u64 [a2 + 120] = 0\n 27253: u64 [a2 + 112] = 0\n 27256: a0 = 0xa7a9536d00000000\n 27266: u64 [a2 + 0x80] = a0\n 27270: a1 = s1 + 0x1980\n 27274: u64 [a2 + 104] = 0\n 27277: a0 = 0\n 27279: ra = 0x54c\n 27283: jump @24\n      : @1002 (gas: 1)\n 27286: jump @1008 if a0 != 1229702701\n      : @1003 (gas: 11)\n 27293: a0 = s1 + 0x2918\n 27297: u64 [a0 + 288] = 0\n 27301: u64 [a0 + 280] = 0\n 27305: u64 [a0 + 272] = 0\n 27309: u64 [a0 + 264] = 0\n 27313: a0 = s1 + 0x3000\n 27317: i32 a0 = a0 + 0xfffffffffffffa20\n 27321: ra = 0x426\n 27325: ecalli 16 // 'value_transferred'\n 27327: t0 = 0x428\n 27331: jump @1513\n      : @1004 [@dyn 531] (gas: 1)\n 27334: t0 = 1064, jump @1513\n      : @1005 [@dyn 532] (gas: 1)\n 27340: t0 = 1066, jump @1512\n      : @1006 [@dyn 533] (gas: 1)\n 27346: jump @1078 if a0 == 0\n      : @1007 (gas: 6)\n 27350: a1 = 0x20180\n 27355: i32 a1 = a1 + 0\n 27357: a0 = 0x1\n 27360: a2 = 0\n 27362: ecalli 13 // 'seal_return'\n 27364: jump @1010\n      : @1008 (gas: 6)\n 27366: a1 = 0x20180\n 27371: i32 a1 = a1 + 0\n 27373: a0 = 0x1\n 27376: a2 = 0\n 27378: ecalli 13 // 'seal_return'\n 27380: jump @1010\n      : @1009 (gas: 5)\n 27382: i32 a1 = a1 + 0\n 27384: a0 = 0x1\n 27387: a2 = 0\n 27389: ecalli 13 // 'seal_return'\n 27391: fallthrough\n      : @1010 (gas: 3)\n 27392: a0 = u64 [s1 + 0x198]\n 27396: a0 = i32 [a0]\n 27398: jump @1080 if a0 >u 99\n      : @1011 (gas: 2)\n 27403: a1 = 0x20180\n 27408: jump @1009\n      : @1012 (gas: 4)\n 27410: a0 = s1 + 0x220\n 27414: ra = 0x42c\n 27418: t0 = 0x59e\n 27422: jump @1534\n      : @1013 [@dyn 534] (gas: 11)\n 27425: a3 = s1 + 0x200\n 27429: a0 = u64 [a3 + 0x20]\n 27432: a1 = u64 [a3 + 0x28]\n 27435: a2 = u32 [s1 + 0x230]\n 27439: u64 [s1 + 536] = 0\n 27443: u64 [a3 + 0x10] = a2\n 27446: u64 [a3 + 0x8] = a1\n 27449: a1 = s1 + 0x200\n 27453: u64 [a3] = a0\n 27455: a0 = 0\n 27457: ra = 1070, jump @24\n      : @1014 [@dyn 535] (gas: 7)\n 27463: u64 [s1 + 504] = 0\n 27467: u64 [s1 + 496] = 0\n 27471: u64 [s1 + 480] = 0x2\n 27476: a0 = 0x20\n 27479: a1 = s1 + 0x1e0\n 27483: u64 [s1 + 488] = 0\n 27487: ra = 1072, jump @24\n      : @1015 [@dyn 536] (gas: 4)\n 27493: a0 = 0x20170\n 27498: u64 [s1 + 0x198] = a0\n 27502: a0 = i32 [0x20170]\n 27507: jump @1017 if a0 >u 63\n      : @1016 (gas: 1)\n 27511: t0 = 1074, jump @1533\n      : @1017 [@dyn 537] (gas: 14)\n 27517: a0 = sp + 0xffffffffffffffe0\n 27520: a2 = a0 & 0xffffffffffffffe0\n 27523: u64 [s1 + 0x188] = a2\n 27527: sp = a2\n 27529: a0 = 0x20180\n 27534: u64 [s1 + 0x190] = a0\n 27538: i32 a0 = a0 + 0\n 27540: i32 a2 = a2 + 0\n 27542: a1 = 0x40\n 27545: ra = 0x434\n 27549: ecalli 8 // 'hash_keccak_256'\n 27551: a3 = u64 [s1 + 0x188]\n 27555: t0 = 0x436\n 27559: jump @1503\n      : @1018 [@dyn 538] (gas: 2)\n 27562: a3 = u64 [s1 + 0x188]\n 27566: t0 = 1078, jump @1503\n      : @1019 [@dyn 539] (gas: 8)\n 27572: u64 [a4 + 0x600] = a3\n 27576: a3 = a4 + 0x500\n 27580: u64 [a3 + 0xf8] = a2\n 27584: u64 [a3 + 0xf0] = a1\n 27588: u64 [a3 + 0xe8] = a0\n 27592: a0 = s1 + 0x1c0\n 27596: a1 = s1 + 0x2700\n 27600: ra = 1080, jump @26\n      : @1020 [@dyn 540] (gas: 8)\n 27606: a0 = u32 [s1 + 0x1c0]\n 27610: u64 [s1 + 440] = 0\n 27614: u64 [s1 + 432] = 0\n 27618: u64 [s1 + 0x1a0] = a0\n 27622: a0 = 0x80\n 27626: a1 = s1 + 0x1a0\n 27630: u64 [s1 + 424] = 0\n 27634: ra = 1082, jump @24\n      : @1021 [@dyn 541] (gas: 3)\n 27640: a0 = u64 [s1 + 0x198]\n 27644: a0 = i32 [a0]\n 27646: jump @1023 if a0 >u 159\n      : @1022 (gas: 5)\n 27651: a1 = u64 [s1 + 0x198]\n 27655: u32 [a1 + 0] = 0xa0\n 27659: a0 = u64 [s1 + 0x190]\n 27663: i32 a1 = a0 + 0x80\n 27667: jump @843\n      : @1023 (gas: 3)\n 27670: a0 = u64 [s1 + 0x190]\n 27674: i32 a1 = a0 + 0x80\n 27678: jump @843\n      : @1024 (gas: 3)\n 27681: t0 = 0x43c\n 27685: a2 = s1 + 0x1918\n 27689: fallthrough\n      : @1025 [@dyn 542] (gas: 8)\n 27690: u64 [a2 + 1016] = 0\n 27694: u64 [a2 + 1008] = 0\n 27698: a0 = 0x6f1cf7db00000000\n 27708: u64 [a2 + 0x400] = a0\n 27712: a1 = s1 + 0x1d00\n 27716: u64 [a2 + 1000] = 0\n 27720: a0 = 0\n 27722: ra = 1086, jump @24\n      : @1026 [@dyn 543] (gas: 3)\n 27728: a0 = u64 [s1 + 0x198]\n 27732: a0 = i32 [a0]\n 27734: jump @1028 if a0 >u 31\n      : @1027 (gas: 3)\n 27738: a1 = u64 [s1 + 0x198]\n 27742: u32 [a1 + 0] = 0x20\n 27745: fallthrough\n      : @1028 (gas: 5)\n 27746: a0 = 0x1\n 27749: a2 = 0x4\n 27752: a1 = u64 [s1 + 0x190]\n 27756: ecalli 13 // 'seal_return'\n 27758: fallthrough\n      : @1029 (gas: 17)\n 27759: a1 = 0xffffffff\n 27769: u64 [s1 + 0x168] = a1\n 27773: a3 = s1 + 0x1918\n 27777: a4 = a3 + 0x300\n 27781: a1 = u64 [a4 + 0x48]\n 27784: a2 = u64 [a4 + 0x58]\n 27787: a3 = u64 [a4 + 0x60]\n 27790: a0 = a0 | 0x1\n 27793: a4 = s1 + 0x2918\n 27797: a5 = a4 + 0x300\n 27801: u64 [a5 + 0xa8] = a1\n 27805: u64 [a5 + 0xb8] = a2\n 27809: u64 [a5 + 0xb0] = a0\n 27813: u64 [a5 + 0xc0] = a3\n 27817: a1 = s1 + 0x2cc0\n 27821: a0 = u64 [s1 + 0x178]\n 27825: ra = 1088, jump @28\n      : @1030 [@dyn 544] (gas: 6)\n 27831: a0 = u64 [s1 + 0x180]\n 27835: ra = 0x442\n 27839: ecalli 4 // 'caller'\n 27841: a2 = u64 [s1 + 0x188]\n 27845: t0 = 0x444\n 27849: jump @1467\n      : @1031 [@dyn 545] (gas: 2)\n 27852: a2 = u64 [s1 + 0x188]\n 27856: t0 = 1092, jump @1467\n      : @1032 [@dyn 546] (gas: 8)\n 27862: u64 [a2 + 800] = 0\n 27866: a4 = a2 + 0x300\n 27870: u64 [a4 + 0x18] = a1\n 27873: u64 [a4 + 0x10] = a0\n 27876: a1 = s1 + 0x1c20\n 27880: u64 [a4 + 0x8] = a3\n 27883: a0 = 0\n 27885: ra = 1094, jump @24\n      : @1033 [@dyn 547] (gas: 9)\n 27891: a0 = s1 + 0x1918\n 27895: u64 [a0 + 768] = 0\n 27899: u64 [a0 + 760] = 0\n 27903: u64 [a0 + 752] = 0\n 27907: a2 = a0\n 27909: a0 = 0x20\n 27912: a1 = s1 + 0x1c00\n 27916: u64 [a2 + 744] = 0\n 27920: ra = 1096, jump @24\n      : @1034 [@dyn 548] (gas: 1)\n 27926: t0 = 1098, jump @1523\n      : @1035 [@dyn 549] (gas: 1)\n 27932: t0 = 1100, jump @1510\n      : @1036 [@dyn 550] (gas: 1)\n 27938: jump @1038 if a1 <u a0\n      : @1037 (gas: 1)\n 27941: t0 = 1102, jump @1533\n      : @1038 [@dyn 551] (gas: 4)\n 27947: a0 = sp + 0xffffffffffffffe0\n 27950: a0 = a0 & 0xffffffffffffffe0\n 27953: u64 [s1 + 0x198] = a0\n 27957: t0 = 1104, jump @1469\n      : @1039 [@dyn 552] (gas: 3)\n 27963: ra = 0x452\n 27967: ecalli 8 // 'hash_keccak_256'\n 27969: fallthrough\n      : @1040 [@dyn 553] (gas: 11)\n 27970: a3 = u64 [s1 + 0x198]\n 27974: a0 = u64 [a3]\n 27976: a1 = u64 [a3 + 0x8]\n 27979: a2 = u64 [a3 + 0x10]\n 27982: a3 = u64 [a3 + 0x18]\n 27985: a0 = reverse a0\n 27987: a1 = reverse a1\n 27989: a2 = reverse a2\n 27991: a3 = reverse a3\n 27993: a4 = a3 + 0x3\n 27996: t0 = 1108, jump @1480\n      : @1041 [@dyn 554] (gas: 7)\n 28002: a1 = u64 [s1 + 0x178]\n 28006: u64 [a1] = a4\n 28008: u64 [a1 + 0x8] = a5\n 28011: u64 [a1 + 0x10] = a2\n 28014: u64 [a1 + 0x18] = a0\n 28017: a0 = s1 + 0x1be0\n 28021: ra = 1110, jump @26\n      : @1042 [@dyn 555] (gas: 9)\n 28027: a0 = s1 + 0x1918\n 28031: a0 = u64 [a0 + 0x2c8]\n 28035: a1 = u64 [s1 + 0x168]\n 28039: a0 = a0 + a1\n 28042: a0 = a0 & a1\n 28045: u64 [s1 + 0x198] = a0\n 28049: a0 = s1 + 0x1bc0\n 28053: a1 = u64 [s1 + 0x178]\n 28057: ra = 1112, jump @26\n      : @1043 [@dyn 556] (gas: 18)\n 28063: a3 = s1 + 0x1918\n 28067: a0 = u32 [a3 + 0x2ac]\n 28071: a0 = a0 << 0x20\n 28074: a4 = a3 + 0x200\n 28078: a1 = u64 [a4 + 0xc0]\n 28082: a2 = u64 [a4 + 0xb8]\n 28086: a3 = u64 [a4 + 0xb0]\n 28090: a4 = u64 [s1 + 0x198]\n 28094: a0 = a0 | a4\n 28097: a4 = s1 + 0x2918\n 28101: a5 = a4 + 0x300\n 28105: u64 [a5 + 0xe0] = a1\n 28109: u64 [a5 + 0xd8] = a2\n 28113: u64 [a5 + 0xd0] = a3\n 28117: u64 [a5 + 0xc8] = a0\n 28121: a1 = s1 + 0x2ce0\n 28125: a0 = u64 [s1 + 0x178]\n 28129: ra = 1114, jump @28\n      : @1044 [@dyn 557] (gas: 6)\n 28135: a0 = u64 [s1 + 0x180]\n 28139: ra = 0x45c\n 28143: ecalli 4 // 'caller'\n 28145: a2 = u64 [s1 + 0x188]\n 28149: t0 = 0x45e\n 28153: jump @1471\n      : @1045 [@dyn 558] (gas: 2)\n 28156: a2 = u64 [s1 + 0x188]\n 28160: t0 = 1118, jump @1471\n      : @1046 [@dyn 559] (gas: 31)\n 28166: t0 = a1 | a0\n 28169: a3 = a3 >> 0x20\n 28172: a2 = reverse a2\n 28174: a1 = a2 << 0x20\n 28177: a1 = a1 | a3\n 28180: a2 = a2 >> 0x20\n 28183: a3 = u64 [s1 + 0x170]\n 28187: a0 = s1 + 0x1918\n 28191: u64 [a0 + 0x248] = a3\n 28195: a3 = u64 [0x20040]\n 28200: a4 = u64 [0x20048]\n 28205: a5 = u64 [0x20050]\n 28210: u64 [a0 + 0x2a0] = a3\n 28214: u64 [a0 + 0x298] = a4\n 28218: u64 [a0 + 608] = 0\n 28222: a4 = a0 + 0x200\n 28226: u64 [a4 + 0x90] = a5\n 28230: a3 = u64 [0x20058]\n 28235: u64 [a0 + 600] = 0\n 28239: u64 [a0 + 592] = 0\n 28243: u64 [a0 + 640] = 0\n 28247: u64 [a4 + 0x88] = a3\n 28251: u64 [a4 + 0x78] = a2\n 28254: u64 [a4 + 0x70] = a1\n 28257: a2 = s1 + 0x1ba0\n 28261: a3 = s1 + 0x1b80\n 28265: a4 = s1 + 0x1b60\n 28269: u64 [a0 + 0x268] = t0\n 28273: a0 = 0\n 28275: a1 = 0\n 28277: ra = 1120, jump @31\n      : @1047 [@dyn 560] (gas: 5)\n 28283: a0 = 0\n 28285: a1 = u64 [s1 + 0x190]\n 28289: a2 = 0\n 28291: ecalli 13 // 'seal_return'\n 28293: jump @1010\n      : @1048 (gas: 3)\n 28296: t0 = 0x462\n 28300: a2 = s1 + 0x1918\n 28304: fallthrough\n      : @1049 [@dyn 561] (gas: 9)\n 28305: u64 [a2 + 312] = 0\n 28309: u64 [a2 + 304] = 0\n 28313: a0 = 0xd5b25b6300000000\n 28323: u64 [a2 + 0x140] = a0\n 28327: a1 = s1 + 0x1a40\n 28331: u64 [a2 + 296] = 0\n 28335: a0 = 0\n 28337: ra = 0x54c\n 28341: jump @24\n      : @1050 (gas: 6)\n 28344: a0 = u64 [s1 + 0x100]\n 28348: ra = 0x464\n 28352: ecalli 4 // 'caller'\n 28354: a2 = u64 [s1 + 0x108]\n 28358: t0 = 0x466\n 28362: jump @1467\n      : @1051 [@dyn 562] (gas: 2)\n 28365: a2 = u64 [s1 + 0x108]\n 28369: t0 = 1126, jump @1467\n      : @1052 [@dyn 563] (gas: 7)\n 28375: u64 [a2 + 96] = 0\n 28378: u64 [a2 + 0x58] = a1\n 28381: u64 [a2 + 0x50] = a0\n 28384: a1 = s1 + 0x1960\n 28388: u64 [a2 + 0x48] = a3\n 28391: a0 = 0\n 28393: ra = 1128, jump @24\n      : @1053 [@dyn 564] (gas: 3)\n 28399: t0 = 0x46a\n 28403: a1 = s1 + 0x1918\n 28407: fallthrough\n      : @1054 [@dyn 565] (gas: 8)\n 28408: u64 [a1 + 64] = 0\n 28411: u64 [a1 + 56] = 0\n 28414: u64 [a1 + 40] = 0x3\n 28418: a2 = a1\n 28420: a0 = 0x20\n 28423: a1 = s1 + 0x1940\n 28427: u64 [a2 + 48] = 0\n 28430: ra = 1132, jump @24\n      : @1055 [@dyn 566] (gas: 3)\n 28436: a0 = u64 [s1 + 0x118]\n 28440: a0 = i32 [a0]\n 28442: jump @1057 if a0 >u 63\n      : @1056 (gas: 4)\n 28446: a1 = u64 [s1 + 0x118]\n 28450: u32 [a1 + 0] = 0x40\n 28453: t0 = 0x46e\n 28457: jump @1474\n      : @1057 (gas: 1)\n 28460: t0 = 1134, jump @1474\n      : @1058 [@dyn 567] (gas: 4)\n 28466: ra = 0x470\n 28470: ecalli 8 // 'hash_keccak_256'\n 28472: t0 = 0x472\n 28476: jump @1479\n      : @1059 [@dyn 568] (gas: 1)\n 28479: t0 = 1138, jump @1479\n      : @1060 [@dyn 569] (gas: 8)\n 28485: u64 [a2 + 0x20] = a0\n 28488: u64 [a2 + 0x18] = a0\n 28491: u64 [a2 + 0x10] = a0\n 28494: a1 = s1 + 0x1920\n 28498: a0 = u64 [s1 + 0x198]\n 28502: u64 [a2 + 0x8] = a0\n 28505: a0 = 0\n 28507: ra = 1140, jump @24\n      : @1061 [@dyn 570] (gas: 13)\n 28513: a0 = u64 [s1 + 0x178]\n 28517: a1 = s1 + 0x1918\n 28521: u64 [a1] = a0\n 28523: a0 = u64 [s1 + 0x180]\n 28527: u64 [a1 + 0xfffffffffffffff8] = a0\n 28530: a0 = u64 [s1 + 0x188]\n 28534: u64 [a1 + 0xfffffffffffffff0] = a0\n 28537: a3 = a1\n 28539: a0 = 0x20\n 28542: a1 = s1 + 0x1900\n 28546: a2 = u64 [s1 + 0x190]\n 28550: u64 [a3 + 0xffffffffffffffe8] = a2\n 28553: ra = 1142, jump @24\n      : @1062 [@dyn 571] (gas: 3)\n 28559: a0 = u64 [s1 + 0x118]\n 28563: a0 = i32 [a0]\n 28565: jump @1064 if a0 >u 63\n      : @1063 (gas: 4)\n 28569: a0 = u64 [s1 + 0x118]\n 28573: u32 [a0 + 0] = 0x40\n 28576: t0 = 0x478\n 28580: jump @1474\n      : @1064 (gas: 1)\n 28583: t0 = 1144, jump @1474\n      : @1065 [@dyn 572] (gas: 5)\n 28589: ra = 0x47a\n 28593: ecalli 8 // 'hash_keccak_256'\n 28595: a3 = u64 [s1 + 0x190]\n 28599: t0 = 0x47c\n 28603: jump @1482\n      : @1066 [@dyn 573] (gas: 2)\n 28606: a3 = u64 [s1 + 0x190]\n 28610: t0 = 1148, jump @1482\n      : @1067 [@dyn 574] (gas: 5)\n 28616: u64 [s1 + 0x190] = a0\n 28620: sp = a0\n 28622: t0 = 0x47e\n 28626: a2 = s1 + 0x1118\n 28630: fallthrough\n      : @1068 [@dyn 575] (gas: 8)\n 28631: u64 [a2 + 2016] = 0\n 28635: u64 [a2 + 2008] = 0\n 28639: u64 [a2 + 2000] = 0\n 28643: a1 = s1 + 0x18e0\n 28647: a0 = u64 [s1 + 0xf8]\n 28651: u64 [a2 + 0x7c8] = a0\n 28655: a0 = 0\n 28657: ra = 1152, jump @24\n      : @1069 [@dyn 576] (gas: 14)\n 28663: a0 = u64 [s1 + 0x170]\n 28667: a1 = s1 + 0x1118\n 28671: a2 = a1 + 0x700\n 28675: u64 [a2 + 0xc0] = a0\n 28679: a0 = u64 [s1 + 0x178]\n 28683: u64 [a2 + 0xb8] = a0\n 28687: a0 = u64 [s1 + 0x180]\n 28691: u64 [a2 + 0xb0] = a0\n 28695: a3 = a1\n 28697: a0 = 0x20\n 28700: a1 = s1 + 0x18c0\n 28704: a2 = u64 [s1 + 0x188]\n 28708: u64 [a3 + 0x7a8] = a2\n 28712: ra = 1154, jump @24\n      : @1070 [@dyn 577] (gas: 3)\n 28718: a0 = u64 [s1 + 0x118]\n 28722: a0 = i32 [a0]\n 28724: jump @1072 if a0 >=u 64\n      : @1071 (gas: 3)\n 28728: a0 = u64 [s1 + 0x118]\n 28732: u32 [a0 + 0] = 0x40\n 28735: fallthrough\n      : @1072 (gas: 12)\n 28736: a0 = sp + 0xffffffffffffffe0\n 28739: a0 = a0 & 0xffffffffffffffe0\n 28742: u64 [s1 + 0x188] = a0\n 28746: sp = a0\n 28748: i32 a2 = a0 + 0\n 28750: a1 = 0x40\n 28753: a0 = u64 [s1 + 0x110]\n 28757: ra = 0x484\n 28761: ecalli 8 // 'hash_keccak_256'\n 28763: a3 = u64 [s1 + 0x188]\n 28767: t0 = 0x486\n 28771: jump @1520\n      : @1073 [@dyn 578] (gas: 2)\n 28774: a3 = u64 [s1 + 0x188]\n 28778: t0 = 1158, jump @1520\n      : @1074 [@dyn 579] (gas: 7)\n 28784: a1 = u64 [s1 + 0x190]\n 28788: u64 [a1 + 0x18] = a3\n 28791: u64 [a1 + 0x10] = a2\n 28794: u64 [a1 + 0x8] = a4\n 28797: u64 [a1] = a0\n 28799: a0 = s1 + 0x18a0\n 28803: ra = 1160, jump @26\n      : @1075 [@dyn 580] (gas: 4)\n 28809: a0 = s1 + 0x1118\n 28813: a0 = u64 [a0 + 0x788]\n 28817: a1 = a0 & 0x1\n 28820: jump @1111 if a1 != 0\n      : @1076 (gas: 3)\n 28824: t0 = 0x48a\n 28828: a2 = s1 + 0x1118\n 28832: fallthrough\n      : @1077 [@dyn 581] (gas: 9)\n 28833: u64 [a2 + 1720] = 0\n 28837: u64 [a2 + 1712] = 0\n 28841: a0 = 0xafa4e2b600000000\n 28851: u64 [a2 + 0x6c0] = a0\n 28855: a1 = s1 + 0x17c0\n 28859: u64 [a2 + 1704] = 0\n 28863: a0 = 0\n 28865: ra = 0x54c\n 28869: jump @24\n      : @1078 (gas: 3)\n 28872: a0 = u64 [s1 + 0x198]\n 28876: a0 = i32 [a0]\n 28878: jump @1118 if a0 >u 99\n      : @1079 (gas: 2)\n 28883: a1 = 0x20180\n 28888: jump @1009\n      : @1080 (gas: 5)\n 28891: a0 = s1 + 0x7ff\n 28895: a0 = a0 + 0x1a1\n 28899: ra = 0x48c\n 28903: t0 = 0x59e\n 28907: jump @1534\n      : @1081 [@dyn 582] (gas: 15)\n 28910: a1 = s1 + 0x7ff\n 28914: a1 = a1 + 0x119\n 28918: a0 = u64 [a1 + 0xa0]\n 28922: u64 [s1 + 0xf8] = a0\n 28926: a0 = u64 [a1 + 0x98]\n 28930: u64 [s1 + 0x100] = a0\n 28934: a0 = u64 [a1 + 0x90]\n 28938: u64 [s1 + 0x118] = a0\n 28942: a0 = u64 [a1 + 0x88]\n 28946: u64 [s1 + 0x110] = a0\n 28950: a0 = s1 + 0x7ff\n 28954: a0 = a0 + 0x181\n 28958: ra = 0x48e\n 28962: t0 = 0x5a2\n 28966: jump @1548\n      : @1082 [@dyn 583] (gas: 15)\n 28969: a1 = s1 + 0x7ff\n 28973: a1 = a1 + 0x119\n 28977: a0 = u64 [a1 + 0x80]\n 28981: u64 [s1 + 0xf0] = a0\n 28985: a0 = u64 [a1 + 0x78]\n 28988: u64 [s1 + 0xe8] = a0\n 28992: a0 = u64 [a1 + 0x70]\n 28995: u64 [s1 + 0xe0] = a0\n 28999: a0 = u64 [a1 + 0x68]\n 29002: u64 [s1 + 0x108] = a0\n 29006: a0 = s1 + 0x7ff\n 29010: a0 = a0 + 0x161\n 29014: ra = 0x490\n 29018: t0 = 0x5a8\n 29022: jump @1548\n      : @1083 [@dyn 584] (gas: 8)\n 29025: a0 = s1 + 0x7ff\n 29029: a0 = a0 + 0x119\n 29033: a0 = u64 [a0 + 0x48]\n 29036: u64 [s1 + 0xd8] = a0\n 29040: a0 = s1 + 0x3000\n 29044: i32 a0 = a0 + 0xfffffffffffff8c0\n 29048: ecalli 9 // 'now'\n 29050: fallthrough\n      : @1084 (gas: 49)\n 29051: a0 = s1 + 0x2118\n 29055: t0 = u64 [a0 + 0x7c0]\n 29059: a4 = u64 [a0 + 0x7b8]\n 29063: u64 [s1 + 0x158] = a4\n 29067: t2 = u64 [a0 + 0x7b0]\n 29071: a3 = u64 [a0 + 0x7a8]\n 29075: u64 [s1 + 0x140] = a3\n 29079: a0 = clz t0\n 29081: a1 = clz a4\n 29083: a2 = a1 + 0x40\n 29086: a2 = a0 if t0 != 0\n 29089: a0 = clz t2\n 29091: a1 = clz a3\n 29093: a1 = a1 + 0x40\n 29096: a1 = a0 if t2 != 0\n 29099: a0 = a1 + 0x80\n 29103: a3 = a4 | t0\n 29106: a2 = a0 if a3 == 0\n 29109: a5 = a0 <u a1\n 29112: a5 = 0 if a3 != 0\n 29114: a4 = a5 >u 0\n 29116: a0 = a2 <u 0xf0\n 29120: a3 = a0 ^ 0x1\n 29123: a4 = a3 if a5 == 0\n 29126: a0 = a4 <u 0x1\n 29129: ra = a0 + 0xffffffffffffffff\n 29132: t1 = -a4\n 29134: a5 = -a5\n 29136: a3 = a5 - a3\n 29139: a2 = 0xef - a2\n 29143: a5 = t1 >u 0\n 29145: a0 = ra >u 0\n 29147: a0 = a5 if ra == 0\n 29150: a5 = a2 <u 0x100\n 29154: a5 = a5 ^ 0x1\n 29157: a1 = a3 >u 0\n 29159: a5 = a1 if a3 != 0\n 29162: a5 = a0 if a4 != 0\n 29165: u64 [s1 + 0x138] = t2\n 29169: u64 [s1 + 0x150] = t0\n 29173: a0 = t2 | t0\n 29176: a4 = u64 [s1 + 0x140]\n 29180: a1 = u64 [s1 + 0x158]\n 29184: a1 = a1 | a4\n 29187: a0 = a0 | a1\n 29190: a0 = a0 <u 0x1\n 29193: a0 = a0 | a5\n 29196: a4 = 0 if a0 != 0\n 29198: jump @1147 if a0 != 0\n      : @1085 (gas: 1)\n 29202: t0 = 1170, jump @1551\n      : @1086 [@dyn 585] (gas: 1)\n 29208: jump @1147 if a0 == 0\n      : @1087 (gas: 1)\n 29212: t0 = 1172, jump @1476\n      : @1088 [@dyn 586] (gas: 1)\n 29218: ra = 1174, jump @1552\n      : @1089 [@dyn 587] (gas: 1)\n 29224: t0 = 1176, jump @1537\n      : @1090 [@dyn 588] (gas: 1)\n 29230: ra = 1178, jump @1557\n      : @1091 [@dyn 589] (gas: 1)\n 29236: t0 = 1180, jump @1529\n      : @1092 [@dyn 590] (gas: 1)\n 29242: ra = 1182, jump @1557\n      : @1093 [@dyn 591] (gas: 8)\n 29248: u64 [s1 + 0x120] = a0\n 29252: u64 [s1 + 0xd0] = a1\n 29256: a2 = u64 [s1 + 0x160]\n 29260: a0 = a2 <u 0x80\n 29264: u64 [s1 + 0xc8] = a0\n 29268: a0 = u64 [s1 + 0x140]\n 29272: a1 = u64 [s1 + 0x138]\n 29276: ra = 1184, jump @1557\n      : @1094 [@dyn 592] (gas: 1)\n 29282: t0 = 1186, jump @1549\n      : @1095 [@dyn 593] (gas: 4)\n 29288: a3 = u64 [s1 + 0xc8]\n 29292: a0 = 0 if a3 == 0\n 29294: u64 [a4 + 0x78] = a0\n 29297: jump @1145 if a1 == 0\n      : @1096 (gas: 7)\n 29301: a2 = a3\n 29303: a0 = u64 [s1 + 0x168]\n 29307: a1 = u64 [s1 + 0x128]\n 29311: a0 = a0 | a1\n 29314: a5 = a3\n 29316: a1 = u64 [s1 + 0xd0]\n 29320: t0 = 1188, jump @1472\n      : @1097 [@dyn 594] (gas: 1)\n 29326: ra = 1190, jump @1552\n      : @1098 [@dyn 595] (gas: 1)\n 29332: t0 = 1192, jump @1536\n      : @1099 [@dyn 596] (gas: 1)\n 29338: ra = 1194, jump @1552\n      : @1100 [@dyn 597] (gas: 2)\n 29344: u64 [s1 + 0xd0] = a0\n 29348: t0 = 1196, jump @1528\n      : @1101 [@dyn 598] (gas: 1)\n 29354: ra = 1198, jump @1557\n      : @1102 [@dyn 599] (gas: 1)\n 29360: t0 = 1200, jump @1495\n      : @1103 [@dyn 600] (gas: 2)\n 29366: a1 = u64 [s1 + 0xd0]\n 29370: t0 = 1202, jump @1506\n      : @1104 [@dyn 601] (gas: 1)\n 29376: ra = 1204, jump @1552\n      : @1105 [@dyn 602] (gas: 1)\n 29382: t0 = 1206, jump @1481\n      : @1106 [@dyn 603] (gas: 1)\n 29388: t0 = 1208, jump @1493\n      : @1107 [@dyn 604] (gas: 5)\n 29394: t0 = ra <u a2\n 29397: a4 = u64 [s1 + 0x128]\n 29401: a5 = a4 <u a3\n 29404: a5 = t0 if t1 != 0\n 29407: t0 = 1210, jump @1494\n      : @1108 [@dyn 605] (gas: 20)\n 29413: t0 = a0 | a1\n 29416: a1 = a4 << 0x1\n 29419: a4 = u64 [s1 + 0x170]\n 29423: t1 = a4 >> 0x3f\n 29426: t1 = a1 | t1\n 29429: a1 = a4 << 0x1\n 29432: a4 = u64 [s1 + 0x178]\n 29436: t2 = a4 >> 0x3f\n 29439: a1 = a1 | t2\n 29442: a4 = a4 << 0x1\n 29445: a0 = u64 [s1 + 0x158]\n 29449: a4 = a4 | a0\n 29452: u64 [s1 + 0x178] = a4\n 29456: a0 = u64 [s1 + 0x150]\n 29460: a1 = a1 | a0\n 29463: u64 [s1 + 0x170] = a1\n 29467: a1 = a0 | t1\n 29470: u64 [s1 + 0x160] = a1\n 29474: a0 = a0 | t0\n 29477: t0 = 1212, jump @1470\n      : @1109 [@dyn 606] (gas: 18)\n 29483: t0 = a4 <u a2\n 29486: a2 = a4 - a2\n 29489: a4 = a3 <u 0x1\n 29492: a5 = a5 - a4\n 29495: a4 = u64 [a0 + 0x88]\n 29499: a4 = a4 - t0\n 29502: a3 = a3 + 0xffffffffffffffff\n 29505: u64 [a0 + 0x90] = a5\n 29509: u64 [a0 + 0x88] = a4\n 29513: t0 = a5 | a4\n 29516: u64 [a0 + 0x98] = a3\n 29520: a4 = a3 | a2\n 29523: a3 = a4 | t0\n 29526: a4 = ra & 0x1\n 29529: u64 [a0 + 0x58] = a4\n 29532: u64 [a0 + 0x80] = a2\n 29536: u64 [s1 + 336] = 0\n 29540: jump @1106 if a3 != 0\n      : @1110 (gas: 1)\n 29544: jump @1146\n      : @1111 (gas: 2)\n 29547: a1 = a0 & 0x2\n 29550: jump @1210 if a1 != 0\n      : @1112 (gas: 5)\n 29554: a0 = a0 & 0xfd\n 29558: u64 [s1 + 0x188] = a0\n 29562: a0 = s1 + 0x1860\n 29566: a1 = u64 [s1 + 0x190]\n 29570: ra = 1214, jump @26\n      : @1113 [@dyn 607] (gas: 19)\n 29576: a3 = s1 + 0x1118\n 29580: a4 = a3 + 0x700\n 29584: a0 = u64 [a4 + 0x48]\n 29587: a1 = u64 [a4 + 0x50]\n 29590: a2 = u64 [a4 + 0x58]\n 29593: a3 = u64 [a4 + 0x60]\n 29596: a0 = a0 & 0xffffffffffffff00\n 29600: a4 = u64 [s1 + 0x188]\n 29604: a0 = a0 | a4\n 29607: a0 = a0 + 0x2\n 29610: a4 = s1 + 0x2918\n 29614: a5 = a4 + 0x300\n 29618: u64 [a5 + 0x80] = a3\n 29622: u64 [a5 + 0x78] = a2\n 29625: u64 [a5 + 0x70] = a1\n 29628: u64 [a5 + 0x68] = a0\n 29631: a1 = s1 + 0x2c80\n 29635: a0 = u64 [s1 + 0x190]\n 29639: ra = 1216, jump @28\n      : @1114 [@dyn 608] (gas: 6)\n 29645: a0 = u64 [s1 + 0x100]\n 29649: ra = 0x4c2\n 29653: ecalli 4 // 'caller'\n 29655: a2 = u64 [s1 + 0x108]\n 29659: t0 = 0x4c4\n 29663: jump @1471\n      : @1115 [@dyn 609] (gas: 2)\n 29666: a2 = u64 [s1 + 0x108]\n 29670: t0 = 1220, jump @1471\n      : @1116 [@dyn 610] (gas: 38)\n 29676: a0 = a0 | a1\n 29679: a3 = a3 >> 0x20\n 29682: a2 = reverse a2\n 29684: a1 = a2 << 0x20\n 29687: a1 = a1 | a3\n 29690: a2 = a2 >> 0x20\n 29693: a5 = s1 + 0x1118\n 29697: u64 [a5 + 1760] = 0\n 29701: u64 [a5 + 1752] = 0\n 29705: u64 [a5 + 1744] = 0\n 29709: a3 = u64 [s1 + 0x198]\n 29713: u64 [a5 + 0x6c8] = a3\n 29717: a3 = u64 [s1 + 0xf8]\n 29721: u64 [a5 + 0x6e8] = a3\n 29725: a3 = u64 [0x20060]\n 29730: a4 = u64 [0x20068]\n 29735: u64 [a5 + 1792] = 0\n 29739: u64 [a5 + 1784] = 0\n 29743: u64 [a5 + 0x740] = a3\n 29747: u64 [a5 + 0x738] = a4\n 29751: a3 = u64 [0x20070]\n 29756: a4 = u64 [0x20078]\n 29761: u64 [a5 + 1776] = 0\n 29765: u64 [a5 + 1824] = 0\n 29769: u64 [a5 + 0x730] = a3\n 29773: a3 = a5 + 0x700\n 29777: u64 [a3 + 0x28] = a4\n 29780: u64 [a3 + 0x18] = a2\n 29783: u64 [a3 + 0x10] = a1\n 29786: a1 = a5\n 29788: a2 = s1 + 0x1840\n 29792: a3 = s1 + 0x1820\n 29796: a4 = s1 + 0x1800\n 29800: a5 = s1 + 0x17e0\n 29804: u64 [a1 + 0x708] = a0\n 29808: a0 = 0\n 29810: a1 = 0\n 29812: ra = 1222, jump @34\n      : @1117 [@dyn 611] (gas: 5)\n 29818: a0 = 0\n 29820: a1 = u64 [s1 + 0x110]\n 29824: a2 = 0\n 29826: ecalli 13 // 'seal_return'\n 29828: jump @1010\n      : @1118 (gas: 4)\n 29831: a0 = s1 + 0x1040\n 29835: ra = 0x4c8\n 29839: t0 = 0x59e\n 29843: jump @1534\n      : @1119 [@dyn 612] (gas: 15)\n 29846: a1 = s1 + 0x7ff\n 29850: a1 = a1 + 0x119\n 29854: a2 = a1 + 0x700\n 29858: a0 = u64 [a2 + 0x40]\n 29861: u64 [s1 + 0xf0] = a0\n 29865: a0 = u64 [a2 + 0x38]\n 29868: u64 [s1 + 0xf8] = a0\n 29872: a0 = u64 [a2 + 0x30]\n 29875: u64 [s1 + 0x138] = a0\n 29879: a0 = u64 [a2 + 0x28]\n 29882: u64 [s1 + 0x130] = a0\n 29886: a0 = s1 + 0x1020\n 29890: ra = 0x4ca\n 29894: t0 = 0x5a2\n 29898: jump @1548\n      : @1120 [@dyn 613] (gas: 15)\n 29901: a1 = s1 + 0x7ff\n 29905: a1 = a1 + 0x119\n 29909: a2 = a1 + 0x700\n 29913: a0 = u64 [a2 + 0x20]\n 29916: u64 [s1 + 0xc8] = a0\n 29920: a0 = u64 [a2 + 0x18]\n 29923: u64 [s1 + 0xc0] = a0\n 29927: a0 = u64 [a2 + 0x10]\n 29930: u64 [s1 + 0xb8] = a0\n 29934: a0 = u64 [a2 + 0x8]\n 29937: u64 [s1 + 0xb0] = a0\n 29941: a0 = s1 + 0x1000\n 29945: ra = 0x4cc\n 29949: t0 = 0x5a8\n 29953: jump @1548\n      : @1121 [@dyn 614] (gas: 11)\n 29956: a0 = s1 + 0x7ff\n 29960: a0 = a0 + 0x119\n 29964: a2 = u32 [a0 + 0x6e8]\n 29968: a0 = a2 <u 0x1\n 29971: a1 = a2 + 0xffffffffffffffff\n 29974: a1 = a1 <u 0x32\n 29977: a1 = a1 ^ 0x1\n 29980: a1 = a0 if a2 == 0\n 29983: u64 [s1 + 0x110] = a2\n 29987: a1 = a0 if a2 == 0\n 29990: jump @1215 if a1 != 0\n      : @1122 (gas: 17)\n 29994: a0 = u64 [s1 + 0xf8]\n 29998: a0 = a0 << 0x20\n 30001: a2 = a0 >> 0x20\n 30004: a3 = s1 + 0x7ff\n 30008: a3 = a3 + 0x119\n 30012: u64 [a3 + 1728] = 0\n 30016: a0 = u64 [s1 + 0x130]\n 30020: a4 = a3 + 0x600\n 30024: u64 [a4 + 0xa8] = a0\n 30028: a0 = u64 [s1 + 0x138]\n 30032: u64 [a4 + 0xb0] = a0\n 30036: a1 = s1 + 0x7ff\n 30040: a1 = a1 + 0x7c1\n 30044: u64 [s1 + 0x108] = a2\n 30048: u64 [a4 + 0xb8] = a2\n 30052: a0 = 0\n 30054: ra = 1230, jump @24\n      : @1123 [@dyn 615] (gas: 11)\n 30060: a1 = s1 + 0x7ff\n 30064: a1 = a1 + 0x119\n 30068: u64 [a1 + 1696] = 0\n 30072: u64 [a1 + 1688] = 0\n 30076: u64 [a1 + 1672] = 0x2\n 30081: a2 = a1\n 30083: a0 = 0x20\n 30086: a1 = s1 + 0x7ff\n 30090: a1 = a1 + 0x7a1\n 30094: u64 [a2 + 1680] = 0\n 30098: ra = 1232, jump @24\n      : @1124 [@dyn 616] (gas: 4)\n 30104: a0 = 0x20170\n 30109: u64 [s1 + 0x198] = a0\n 30113: a0 = i32 [0x20170]\n 30118: jump @1126 if a0 >u 63\n      : @1125 (gas: 1)\n 30122: t0 = 1234, jump @1533\n      : @1126 [@dyn 617] (gas: 16)\n 30128: a0 = 0xffffffff\n 30138: u64 [s1 + 0x148] = a0\n 30142: a0 = sp + 0xffffffffffffffe0\n 30145: a2 = a0 & 0xffffffffffffffe0\n 30148: u64 [s1 + 0x188] = a2\n 30152: sp = a2\n 30154: a0 = 0x20180\n 30159: i32 a0 = a0 + 0\n 30161: i32 a2 = a2 + 0\n 30163: a1 = 0x40\n 30166: u64 [s1 + 0x190] = a0\n 30170: ra = 0x4d4\n 30174: ecalli 8 // 'hash_keccak_256'\n 30176: a3 = u64 [s1 + 0x188]\n 30180: t0 = 0x4d6\n 30184: jump @1502\n      : @1127 [@dyn 618] (gas: 2)\n 30187: a3 = u64 [s1 + 0x188]\n 30191: t0 = 1238, jump @1502\n      : @1128 [@dyn 619] (gas: 9)\n 30197: a5 = a4 + 0x100\n 30201: u64 [a5 + 0x40] = a3\n 30204: u64 [a5 + 0x38] = a2\n 30207: u64 [a5 + 0x30] = a1\n 30210: u64 [a5 + 0x28] = a0\n 30213: a0 = s1 + 0x7ff\n 30217: a0 = a0 + 0x781\n 30221: a1 = s1 + 0x2a40\n 30225: ra = 1240, jump @26\n      : @1129 [@dyn 620] (gas: 8)\n 30231: a0 = s1 + 0x7ff\n 30235: a0 = a0 + 0x119\n 30239: a0 = u64 [a0 + 0x668]\n 30243: u64 [s1 + 0xa8] = a0\n 30247: a0 = s1 + 0x3000\n 30251: i32 a0 = a0 + 0xfffffffffffffa60\n 30255: ecalli 9 // 'now'\n 30257: fallthrough\n      : @1130 (gas: 51)\n 30258: a0 = s1 + 0x2918\n 30262: t0 = u64 [a0 + 0x160]\n 30266: a4 = u64 [a0 + 0x158]\n 30270: u64 [s1 + 0x150] = a4\n 30274: t2 = u64 [a0 + 0x150]\n 30278: a3 = u64 [a0 + 0x148]\n 30282: u64 [s1 + 0x188] = a3\n 30286: a0 = clz t0\n 30288: a1 = clz a4\n 30290: a2 = a1 + 0x40\n 30293: a2 = a0 if t0 != 0\n 30296: a0 = clz t2\n 30298: a1 = clz a3\n 30300: a1 = a1 + 0x40\n 30303: a1 = a0 if t2 != 0\n 30306: a0 = a1 + 0x80\n 30310: a3 = a4 | t0\n 30313: a2 = a0 if a3 == 0\n 30316: a5 = a0 <u a1\n 30319: a5 = 0 if a3 != 0\n 30321: a4 = a5 >u 0\n 30323: a0 = a2 <u 0xf0\n 30327: a3 = a0 ^ 0x1\n 30330: a4 = a3 if a5 == 0\n 30333: a0 = a4 <u 0x1\n 30336: ra = a0 + 0xffffffffffffffff\n 30339: t1 = -a4\n 30341: a5 = -a5\n 30343: a3 = a5 - a3\n 30346: a2 = 0xef - a2\n 30350: a5 = t1 >u 0\n 30352: a0 = ra >u 0\n 30354: a0 = a5 if ra == 0\n 30357: a5 = a2 <u 0x100\n 30361: a5 = a5 ^ 0x1\n 30364: a1 = a3 >u 0\n 30366: a5 = a1 if a3 != 0\n 30369: a5 = a0 if a4 != 0\n 30372: u64 [s1 + 0x180] = t2\n 30376: u64 [s1 + 0x118] = t0\n 30380: a0 = t2 | t0\n 30383: a4 = u64 [s1 + 0x188]\n 30387: a1 = u64 [s1 + 0x150]\n 30391: a1 = a1 | a4\n 30394: a0 = a0 | a1\n 30397: a0 = a0 <u 0x1\n 30400: a0 = a0 | a5\n 30403: a1 = a4\n 30405: a1 = 0 if a0 != 0\n 30407: u64 [s1 + 0x100] = a1\n 30411: jump @1221 if a0 != 0\n      : @1131 (gas: 1)\n 30415: t0 = 1242, jump @1551\n      : @1132 [@dyn 621] (gas: 1)\n 30421: jump @1221 if a0 == 0\n      : @1133 (gas: 18)\n 30425: a1 = a2 + 0x1\n 30428: u64 [s1 + 0x178] = a1\n 30432: a0 = a1 <u 0x1\n 30435: a0 = a0 + a3\n 30438: u64 [s1 + 0x168] = a0\n 30442: a0 = a0 | a1\n 30445: a0 = a0 <u 0x1\n 30448: a0 = a0 + t1\n 30451: u64 [s1 + 0x158] = a0\n 30455: a0 = a0 <u t1\n 30458: a0 = a0 + ra\n 30461: u64 [s1 + 0x160] = a0\n 30465: a1 = 0xff - a2\n 30469: u64 [s1 + 0x120] = a1\n 30473: a2 = 0x80 - a1\n 30477: a0 = u64 [s1 + 0x188]\n 30481: a1 = u64 [s1 + 0x180]\n 30485: ra = 1244, jump @1552\n      : @1134 [@dyn 622] (gas: 6)\n 30491: u64 [s1 + 0x100] = a0\n 30495: u64 [s1 + 0x128] = a1\n 30499: a0 = u64 [s1 + 0x150]\n 30503: a1 = u64 [s1 + 0x118]\n 30507: a2 = u64 [s1 + 0x120]\n 30511: ra = 1246, jump @1557\n      : @1135 [@dyn 623] (gas: 7)\n 30517: u64 [s1 + 0xe8] = a0\n 30521: u64 [s1 + 0xe0] = a1\n 30525: a0 = u64 [s1 + 0x120]\n 30529: a2 = a0 + 0xffffffffffffff80\n 30532: a0 = u64 [s1 + 0x188]\n 30536: a1 = u64 [s1 + 0x180]\n 30540: ra = 1248, jump @1557\n      : @1136 [@dyn 624] (gas: 8)\n 30546: u64 [s1 + 0xd8] = a0\n 30550: u64 [s1 + 0xd0] = a1\n 30554: a2 = u64 [s1 + 0x120]\n 30558: a0 = a2 <u 0x80\n 30562: u64 [s1 + 0xa0] = a0\n 30566: a0 = u64 [s1 + 0x188]\n 30570: a1 = u64 [s1 + 0x180]\n 30574: ra = 1250, jump @1557\n      : @1137 [@dyn 625] (gas: 13)\n 30580: a4 = s1 + 0x100\n 30584: u64 [a4 + 0x70] = a1\n 30587: a1 = u64 [a4 + 0x68]\n 30590: a2 = u64 [a4 + 0x60]\n 30593: a2 = a2 | a1\n 30596: a1 = u64 [a4 + 0x78]\n 30599: a3 = u64 [a4 + 0x58]\n 30602: a1 = a1 | a3\n 30605: a1 = a1 | a2\n 30608: a3 = u64 [s1 + 0xa0]\n 30612: a0 = 0 if a3 == 0\n 30614: u64 [a4 + 0x40] = a0\n 30617: jump @1219 if a1 == 0\n      : @1138 (gas: 30)\n 30621: a2 = a3\n 30623: a0 = u64 [s1 + 0x128]\n 30627: a1 = u64 [s1 + 0xe0]\n 30631: a0 = a0 | a1\n 30634: a5 = a3\n 30636: a1 = u64 [s1 + 0xd0]\n 30640: a0 = a1 if a2 == 0\n 30643: a2 = u64 [s1 + 0x118]\n 30647: a3 = a2\n 30649: a1 = a2\n 30651: a2 = u64 [s1 + 0x120]\n 30655: a3 = a0 if a2 != 0\n 30658: u64 [s1 + 0x128] = a3\n 30662: a0 = u64 [s1 + 0x100]\n 30666: a3 = u64 [s1 + 0xe8]\n 30670: a0 = a0 | a3\n 30673: a3 = u64 [s1 + 0xd8]\n 30677: a0 = a3 if a5 == 0\n 30680: a4 = u64 [s1 + 0x150]\n 30684: a3 = a4\n 30686: a3 = a0 if a2 != 0\n 30689: u64 [s1 + 0x120] = a3\n 30693: a0 = u64 [s1 + 0x170]\n 30697: a0 = 0 if a5 == 0\n 30699: u64 [s1 + 0x170] = a0\n 30703: u64 [s1 + 224] = 0x15180\n 30710: a0 = u64 [s1 + 0x178]\n 30714: a2 = a0 + 0xffffffffffffff80\n 30717: a0 = a4\n 30719: ra = 1252, jump @1552\n      : @1139 [@dyn 626] (gas: 6)\n 30725: u64 [s1 + 0x100] = a0\n 30729: u64 [s1 + 0xe8] = a1\n 30733: a0 = u64 [s1 + 0x188]\n 30737: a1 = u64 [s1 + 0x180]\n 30741: a2 = u64 [s1 + 0x178]\n 30745: ra = 1254, jump @1552\n      : @1140 [@dyn 627] (gas: 7)\n 30751: u64 [s1 + 0xd0] = a0\n 30755: u64 [s1 + 0xd8] = a1\n 30759: a1 = u64 [s1 + 0x178]\n 30763: a2 = 0x80 - a1\n 30767: a0 = u64 [s1 + 0x150]\n 30771: a1 = u64 [s1 + 0x118]\n 30775: ra = 1256, jump @1557\n      : @1141 [@dyn 628] (gas: 20)\n 30781: a2 = u64 [s1 + 0xd8]\n 30785: a1 = a1 | a2\n 30788: a2 = u64 [s1 + 0x178]\n 30792: a3 = a2 <u 0x80\n 30796: u64 [s1 + 0xd8] = a3\n 30800: a4 = u64 [s1 + 0xe8]\n 30804: a1 = a4 if a3 == 0\n 30807: a4 = u64 [s1 + 0x180]\n 30811: a4 = a1 if a2 != 0\n 30814: u64 [s1 + 0x180] = a4\n 30818: a1 = u64 [s1 + 0xd0]\n 30822: a0 = a0 | a1\n 30825: a1 = u64 [s1 + 0x100]\n 30829: a0 = a1 if a3 == 0\n 30832: a1 = u64 [s1 + 0x188]\n 30836: a1 = a0 if a2 != 0\n 30839: u64 [s1 + 0x188] = a1\n 30843: a0 = u64 [s1 + 0x150]\n 30847: a1 = u64 [s1 + 0x118]\n 30851: ra = 1258, jump @1552\n      : @1142 [@dyn 629] (gas: 13)\n 30857: u64 [s1 + 336] = 0\n 30861: u64 [s1 + 280] = 0\n 30865: a2 = u64 [s1 + 0xd8]\n 30869: a1 = 0 if a2 == 0\n 30871: u64 [s1 + 0x100] = a1\n 30875: a0 = 0 if a2 == 0\n 30877: a3 = u64 [s1 + 0xe0]\n 30881: a2 = a3 + 0xffffffffffffffff\n 30884: u64 [s1 + 0xd8] = a2\n 30888: a2 = a3 >u 0\n 30890: a2 = a2 + 0xffffffffffffffff\n 30893: u64 [s1 + 0xd0] = a2\n 30897: fallthrough\n      : @1143 (gas: 92)\n 30898: a4 = u64 [s1 + 0x188]\n 30902: a2 = a4 >> 0x3f\n 30905: t1 = u64 [s1 + 0x180]\n 30909: a3 = t1 << 0x1\n 30912: ra = a3 | a2\n 30915: a3 = a4 << 0x1\n 30918: t2 = u64 [s1 + 0x128]\n 30922: a4 = t2 >> 0x3f\n 30925: a3 = a3 | a4\n 30928: u64 [s1 + 0xe8] = a3\n 30932: a2 = u64 [s1 + 0xd0]\n 30936: a1 = a2 ^ ra\n 30939: t0 = a2 <u ra\n 30942: a4 = u64 [s1 + 0xd8]\n 30946: a5 = a4 <u a3\n 30949: a5 = t0 if a1 != 0\n 30952: a1 = u64 [s1 + 0x100]\n 30956: a1 = a1 << 0x1\n 30959: a3 = a0 >> 0x3f\n 30962: a1 = a1 | a3\n 30965: u64 [s1 + 0x100] = a1\n 30969: a3 = t1 >> 0x3f\n 30972: a0 = a0 << 0x1\n 30975: a3 = a3 | a0\n 30978: a0 = t2 << 0x1\n 30981: a4 = u64 [s1 + 0x120]\n 30985: a1 = a4 >> 0x3f\n 30988: t0 = a0 | a1\n 30991: a1 = a4 << 0x1\n 30994: a4 = u64 [s1 + 0x170]\n 30998: t1 = a4 >> 0x3f\n 31001: t1 = a1 | t1\n 31004: a1 = a4 << 0x1\n 31007: a4 = u64 [s1 + 0x140]\n 31011: t2 = a4 >> 0x3f\n 31014: a1 = a1 | t2\n 31017: a4 = a4 << 0x1\n 31020: a0 = u64 [s1 + 0x150]\n 31024: a4 = a4 | a0\n 31027: u64 [s1 + 0x140] = a4\n 31031: a0 = u64 [s1 + 0x118]\n 31035: a1 = a1 | a0\n 31038: u64 [s1 + 0x170] = a1\n 31042: a1 = a0 | t1\n 31045: u64 [s1 + 0x120] = a1\n 31049: a0 = a0 | t0\n 31052: u64 [s1 + 0x128] = a0\n 31056: a0 = a2 - a3\n 31059: a0 = a0 <u a5\n 31062: a1 = a2 <u a3\n 31065: a5 = u64 [s1 + 0x100]\n 31069: a4 = a2 - a5\n 31072: a4 = a4 - a1\n 31075: a4 = a4 - a0\n 31078: t1 = a4 >>a 0x3f\n 31081: a0 = u64 [s1 + 0xe0]\n 31085: a0 = t1 & a0\n 31088: a2 = u64 [s1 + 0xe8]\n 31092: a1 = a2 - a0\n 31095: u64 [s1 + 0x188] = a1\n 31099: a1 = a2 <u a0\n 31102: a0 = ra - a1\n 31105: u64 [s1 + 0x180] = a0\n 31109: a1 = 0 if ra != 0\n 31111: a0 = a3 - a1\n 31114: a1 = a3 <u a1\n 31117: a1 = a5 - a1\n 31120: u64 [s1 + 0x100] = a1\n 31124: a1 = s1 + 0x100\n 31128: a5 = u64 [a1 + 0x78]\n 31131: a3 = u64 [a1 + 0x68]\n 31134: a2 = a5 | a3\n 31137: a2 = a2 <u 0x1\n 31140: a4 = u64 [a1 + 0x58]\n 31143: t0 = a4 <u a2\n 31146: a2 = a4 - a2\n 31149: a4 = a5 <u 0x1\n 31152: a3 = a3 - a4\n 31155: a4 = u64 [a1 + 0x60]\n 31158: a4 = a4 - t0\n 31161: a5 = a5 + 0xffffffffffffffff\n 31164: u64 [a1 + 0x68] = a3\n 31167: u64 [a1 + 0x60] = a4\n 31170: a3 = a3 | a4\n 31173: u64 [a1 + 0x78] = a5\n 31176: a4 = a5 | a2\n 31179: a3 = a3 | a4\n 31182: a4 = t1 & 0x1\n 31185: u64 [a1 + 0x50] = a4\n 31188: u64 [a1 + 0x58] = a2\n 31191: u64 [s1 + 280] = 0\n 31195: jump @1143 if a3 != 0\n      : @1144 (gas: 1)\n 31199: jump @1220\n      : @1145 (gas: 2)\n 31202: u64 [s1 + 344] = 0\n 31206: fallthrough\n      : @1146 (gas: 5)\n 31207: a0 = u64 [s1 + 0x178]\n 31211: a0 = a0 << 0x1\n 31214: a4 = u64 [s1 + 0x158]\n 31218: a4 = a4 | a0\n 31221: fallthrough\n      : @1147 (gas: 2)\n 31222: a0 = u64 [s1 + 0x108]\n 31226: jump @1281 if a0 >=u a4\n      : @1148 (gas: 9)\n 31230: a0 = u64 [s1 + 0xd8]\n 31234: a0 = a0 << 0x20\n 31237: a1 = a0 >> 0x20\n 31240: a0 = a1 + 0xffffffffffffffff\n 31243: a0 = a0 <u 0x32\n 31246: a0 = 0 if a1 == 0\n 31248: u64 [s1 + 0x138] = a1\n 31252: a0 = 0 if a1 == 0\n 31254: jump @1285 if a0 == 0\n      : @1149 (gas: 20)\n 31258: a0 = 0xffffffff\n 31268: u64 [s1 + 0x178] = a0\n 31272: a0 = u64 [s1 + 0x100]\n 31276: a0 = a0 << 0x20\n 31279: a2 = a0 >> 0x20\n 31282: a0 = s1 + 0x7ff\n 31286: a0 = a0 + 0x119\n 31290: u64 [a0 + 0] = 0\n 31292: a1 = u64 [s1 + 0x110]\n 31296: a3 = s1 + 0x1000\n 31300: u64 [a3 + 0xfffffffffffff900] = a1\n 31304: a1 = u64 [s1 + 0x118]\n 31308: a3 = s1 + 0x1000\n 31312: u64 [a3 + 0xfffffffffffff908] = a1\n 31316: a1 = s1 + 0x7ff\n 31320: a1 = a1 + 0x101\n 31324: u64 [s1 + 0x140] = a2\n 31328: u64 [a0 + 0xfffffffffffffff8] = a2\n 31331: a0 = 0\n 31333: ra = 1260, jump @24\n      : @1150 [@dyn 630] (gas: 12)\n 31339: a0 = s1 + 0x1000\n 31343: u64 [a0 + 4294965496] = 0\n 31347: a0 = s1 + 0x1000\n 31351: u64 [a0 + 4294965488] = 0\n 31355: a1 = s1 + 0x1000\n 31359: u64 [a1 + 4294965472] = 0x2\n 31364: a0 = 0x20\n 31367: a1 = s1 + 0x7ff\n 31371: a1 = a1 + 0xe1\n 31375: a2 = s1 + 0x1000\n 31379: u64 [a2 + 4294965480] = 0\n 31383: ra = 1262, jump @24\n      : @1151 [@dyn 631] (gas: 5)\n 31389: a0 = 0x20170\n 31394: u64 [s1 + 0x198] = a0\n 31398: a0 = i32 [0x20170]\n 31403: a1 = 0x3f\n 31406: jump @1153 if a1 <u a0\n      : @1152 (gas: 1)\n 31409: t0 = 1264, jump @1533\n      : @1153 [@dyn 632] (gas: 3)\n 31415: a0 = 0xffffffff00000000\n 31425: u64 [s1 + 0x130] = a0\n 31429: t0 = 1266, jump @1540\n      : @1154 [@dyn 633] (gas: 10)\n 31435: a0 = 0x20180\n 31440: i32 a0 = a0 + 0\n 31442: i32 a2 = a2 + 0\n 31444: a1 = 0x40\n 31447: u64 [s1 + 0x188] = a0\n 31451: ra = 0x4f4\n 31455: ecalli 8 // 'hash_keccak_256'\n 31457: a3 = u64 [s1 + 0x190]\n 31461: t0 = 0x4f6\n 31465: jump @1503\n      : @1155 [@dyn 634] (gas: 2)\n 31468: a3 = u64 [s1 + 0x190]\n 31472: t0 = 1270, jump @1503\n      : @1156 [@dyn 635] (gas: 9)\n 31478: a5 = a4 + 0x700\n 31482: u64 [a5 + 0xe0] = a3\n 31486: u64 [a5 + 0xd8] = a2\n 31490: u64 [a5 + 0xd0] = a1\n 31494: u64 [a5 + 0xc8] = a0\n 31498: a0 = s1 + 0x7ff\n 31502: a0 = a0 + 0xc1\n 31506: a1 = s1 + 0x28e0\n 31510: ra = 1272, jump @26\n      : @1157 [@dyn 636] (gas: 9)\n 31516: a0 = s1 + 0x1000\n 31520: a0 = u64 [a0 + 0xfffffffffffff8c0]\n 31524: u64 [s1 + 328] = 0\n 31528: a3 = 0\n 31530: a1 = u64 [s1 + 0x178]\n 31534: a0 = a0 & a1\n 31537: u64 [s1 + 0x128] = a0\n 31541: a2 = 0x1\n 31544: fallthrough\n      : @1158 (gas: 12)\n 31545: a1 = 0\n 31547: a1 = 0 if a3 == 0\n 31549: a4 = s1 + 0x100\n 31553: a0 = u64 [a4 + 0x28]\n 31556: u64 [a4 + 0x90] = a2\n 31560: a0 = a0 <u a2\n 31563: a2 = 0\n 31565: a2 = a0 if a3 == 0\n 31568: u64 [a4 + 128] = 0\n 31572: a0 = 0\n 31574: a2 = a1 if a0 != 0\n 31577: jump @1289 if a2 != 0\n      : @1159 (gas: 6)\n 31581: a2 = s1 + 0x100\n 31585: a0 = u64 [a2 + 0x78]\n 31588: a1 = u64 [a2 + 0x48]\n 31591: a0 = a0 & a1\n 31594: a1 = u64 [a2 + 0x38]\n 31597: jump @1289 if a0 >=u a1\n      : @1160 (gas: 15)\n 31601: a0 = s1 + 0x1000\n 31605: u64 [a0 + 4294965432] = 0\n 31609: a0 = u64 [s1 + 0x110]\n 31613: a1 = s1 + 0x1000\n 31617: u64 [a1 + 0xfffffffffffff8a0] = a0\n 31621: a0 = u64 [s1 + 0x118]\n 31625: a1 = s1 + 0x1000\n 31629: u64 [a1 + 0xfffffffffffff8a8] = a0\n 31633: a1 = s1 + 0x7ff\n 31637: a1 = a1 + 0xa1\n 31641: a0 = u64 [s1 + 0x140]\n 31645: a2 = s1 + 0x1000\n 31649: u64 [a2 + 0xfffffffffffff8b0] = a0\n 31653: a0 = 0\n 31655: ra = 1274, jump @24\n      : @1161 [@dyn 637] (gas: 12)\n 31661: a0 = s1 + 0x1000\n 31665: u64 [a0 + 4294965400] = 0\n 31669: a0 = s1 + 0x1000\n 31673: u64 [a0 + 4294965392] = 0\n 31677: a0 = s1 + 0x1000\n 31681: u64 [a0 + 4294965384] = 0\n 31685: a0 = 0x20\n 31688: a1 = s1 + 0x7ff\n 31692: a1 = a1 + 0x81\n 31696: a3 = s1 + 0x1000\n 31700: u64 [a3 + 4294965376] = 0x1\n 31705: ra = 1276, jump @24\n      : @1162 [@dyn 638] (gas: 1)\n 31711: t0 = 1278, jump @1510\n      : @1163 [@dyn 639] (gas: 1)\n 31717: jump @1165 if a1 <u a0\n      : @1164 (gas: 1)\n 31720: t0 = 1280, jump @1533\n      : @1165 [@dyn 640] (gas: 1)\n 31726: t0 = 1282, jump @1489\n      : @1166 [@dyn 641] (gas: 4)\n 31732: ra = 0x504\n 31736: ecalli 8 // 'hash_keccak_256'\n 31738: t0 = 0x506\n 31742: jump @1478\n      : @1167 [@dyn 642] (gas: 1)\n 31745: t0 = 1286, jump @1478\n      : @1168 [@dyn 643] (gas: 13)\n 31751: a1 = s1 + 0x1000\n 31755: u64 [a1 + 0xfffffffffffff878] = a0\n 31759: a1 = s1 + 0x1000\n 31763: u64 [a1 + 0xfffffffffffff870] = a0\n 31767: a1 = s1 + 0x1000\n 31771: u64 [a1 + 0xfffffffffffff868] = a0\n 31775: a1 = s1 + 0x7ff\n 31779: a1 = a1 + 0x61\n 31782: a0 = u64 [s1 + 0x190]\n 31786: a2 = s1 + 0x1000\n 31790: u64 [a2 + 0xfffffffffffff860] = a0\n 31794: a0 = 0\n 31796: ra = 1288, jump @24\n      : @1169 [@dyn 644] (gas: 16)\n 31802: a0 = u64 [s1 + 0x150]\n 31806: a1 = s1 + 0x1000\n 31810: u64 [a1 + 0xfffffffffffff858] = a0\n 31814: a0 = u64 [s1 + 0x158]\n 31818: a1 = s1 + 0x1000\n 31822: u64 [a1 + 0xfffffffffffff850] = a0\n 31826: a0 = u64 [s1 + 0x160]\n 31830: a1 = s1 + 0x1000\n 31834: u64 [a1 + 0xfffffffffffff848] = a0\n 31838: a0 = 0x20\n 31841: a1 = s1 + 0x7ff\n 31845: a1 = a1 + 0x41\n 31848: a2 = u64 [s1 + 0x168]\n 31852: a3 = s1 + 0x1000\n 31856: u64 [a3 + 0xfffffffffffff840] = a2\n 31860: ra = 1290, jump @24\n      : @1170 [@dyn 645] (gas: 1)\n 31866: t0 = 1292, jump @1510\n      : @1171 [@dyn 646] (gas: 1)\n 31872: jump @1173 if a1 <u a0\n      : @1172 (gas: 1)\n 31875: t0 = 1294, jump @1542\n      : @1173 [@dyn 647] (gas: 1)\n 31881: t0 = 1296, jump @1524\n      : @1174 [@dyn 648] (gas: 5)\n 31887: ra = 0x512\n 31891: ecalli 8 // 'hash_keccak_256'\n 31893: a3 = u64 [s1 + 0x168]\n 31897: t0 = 0x514\n 31901: jump @1521\n      : @1175 [@dyn 649] (gas: 2)\n 31904: a3 = u64 [s1 + 0x168]\n 31908: t0 = 1300, jump @1521\n      : @1176 [@dyn 650] (gas: 12)\n 31914: a1 = u64 [s1 + 0x170]\n 31918: u64 [s1 + 0x160] = a2\n 31922: u64 [a1 + 0x18] = a2\n 31925: u64 [s1 + 0x168] = a0\n 31929: u64 [a1 + 0x10] = a0\n 31932: u64 [s1 + 0x158] = a4\n 31936: u64 [a1 + 0x8] = a4\n 31939: u64 [s1 + 0x150] = a5\n 31943: u64 [a1] = a5\n 31945: a0 = s1 + 0x7ff\n 31949: a0 = a0 + 0x21\n 31952: ra = 1302, jump @26\n      : @1177 [@dyn 651] (gas: 13)\n 31958: a0 = s1 + 0x1000\n 31962: a0 = u64 [a0 + 0xfffffffffffff828]\n 31966: a1 = s1 + 0x1000\n 31970: a1 = u64 [a1 + 0xfffffffffffff830]\n 31974: a2 = s1 + 0x1000\n 31978: a2 = u64 [a2 + 0xfffffffffffff820]\n 31982: a0 = a0 & 0xffffffffffffffff\n 31985: a1 = a1 & 0xffffffffffffffff\n 31988: a3 = u64 [s1 + 0x130]\n 31992: a2 = a2 & a3\n 31995: a1 = a1 | a2\n 31998: a0 = a0 | a1\n 32001: jump @1209 if a0 == 0\n      : @1178 (gas: 6)\n 32005: a5 = s1 + 0x100\n 32009: a1 = u64 [a5 + 0x50]\n 32012: a0 = a1 + 0x2\n 32015: a1 = a0 <u a1\n 32018: a3 = u64 [a5 + 0x58]\n 32021: t0 = 1304, jump @1509\n      : @1179 [@dyn 652] (gas: 16)\n 32027: a1 = u64 [a5 + 0x68]\n 32030: a3 = a3 + a1\n 32033: a1 = a3 <u a1\n 32036: a4 = u64 [a5 + 0x60]\n 32039: a1 = a1 + a4\n 32042: a4 = s1 + 0x2118\n 32046: a5 = a4 + 0x700\n 32050: u64 [a5 + 0xe8] = a0\n 32054: u64 [a5 + 0xf0] = a2\n 32058: u64 [a5 + 0xf8] = a3\n 32062: a0 = s1 + 0x2918\n 32066: u64 [a0] = a1\n 32068: a0 = s1 + 0x7ff\n 32072: a0 = a0 + 0x1\n 32075: a1 = s1 + 0x2900\n 32079: ra = 1306, jump @26\n      : @1180 [@dyn 653] (gas: 4)\n 32085: a0 = s1 + 0x1000\n 32089: a0 = u64 [a0 + 0xfffffffffffff808]\n 32093: a0 = a0 & 0xff\n 32097: jump @1209 if a0 != 0\n      : @1181 (gas: 10)\n 32101: u64 [s1 + 2040] = 0\n 32105: a0 = u64 [s1 + 0x110]\n 32109: u64 [s1 + 0x7e0] = a0\n 32113: a0 = u64 [s1 + 0x118]\n 32117: u64 [s1 + 0x7e8] = a0\n 32121: a1 = s1 + 0x7e0\n 32125: a0 = u64 [s1 + 0x140]\n 32129: u64 [s1 + 0x7f0] = a0\n 32133: a0 = 0\n 32135: ra = 1308, jump @24\n      : @1182 [@dyn 654] (gas: 7)\n 32141: u64 [s1 + 2008] = 0\n 32145: u64 [s1 + 2000] = 0\n 32149: u64 [s1 + 1992] = 0\n 32153: a0 = 0x20\n 32156: a1 = s1 + 0x7c0\n 32160: u64 [s1 + 1984] = 0x3\n 32165: ra = 1310, jump @24\n      : @1183 [@dyn 655] (gas: 1)\n 32171: t0 = 1312, jump @1510\n      : @1184 [@dyn 656] (gas: 1)\n 32177: jump @1186 if a1 <u a0\n      : @1185 (gas: 1)\n 32180: t0 = 1314, jump @1542\n      : @1186 [@dyn 657] (gas: 1)\n 32186: t0 = 1316, jump @1489\n      : @1187 [@dyn 658] (gas: 4)\n 32192: ra = 0x526\n 32196: ecalli 8 // 'hash_keccak_256'\n 32198: t0 = 0x528\n 32202: jump @1485\n      : @1188 [@dyn 659] (gas: 1)\n 32205: t0 = 1320, jump @1485\n      : @1189 [@dyn 660] (gas: 8)\n 32211: u64 [s1 + 1976] = 0\n 32215: u64 [s1 + 1968] = 0\n 32219: u64 [s1 + 1960] = 0\n 32223: a1 = s1 + 0x7a0\n 32227: a0 = u64 [s1 + 0x108]\n 32231: u64 [s1 + 0x7a0] = a0\n 32235: a0 = 0\n 32237: ra = 1322, jump @24\n      : @1190 [@dyn 661] (gas: 12)\n 32243: a0 = u64 [s1 + 0x158]\n 32247: a3 = s1 + 0x700\n 32251: u64 [a3 + 0x98] = a0\n 32255: a0 = u64 [s1 + 0x160]\n 32259: u64 [a3 + 0x90] = a0\n 32263: a0 = u64 [s1 + 0x168]\n 32267: u64 [a3 + 0x88] = a0\n 32271: a0 = 0x20\n 32274: a1 = s1 + 0x780\n 32278: a2 = u64 [s1 + 0x170]\n 32282: u64 [a3 + 0x80] = a2\n 32286: ra = 1324, jump @24\n      : @1191 [@dyn 662] (gas: 1)\n 32292: t0 = 1326, jump @1510\n      : @1192 [@dyn 663] (gas: 1)\n 32298: jump @1194 if a1 <u a0\n      : @1193 (gas: 1)\n 32301: t0 = 1328, jump @1542\n      : @1194 [@dyn 664] (gas: 1)\n 32307: t0 = 1330, jump @1489\n      : @1195 [@dyn 665] (gas: 4)\n 32313: ra = 0x534\n 32317: ecalli 8 // 'hash_keccak_256'\n 32319: t0 = 0x536\n 32323: jump @1478\n      : @1196 [@dyn 666] (gas: 1)\n 32326: t0 = 1334, jump @1478\n      : @1197 [@dyn 667] (gas: 8)\n 32332: u64 [s1 + 0x778] = a0\n 32336: u64 [s1 + 0x770] = a0\n 32340: u64 [s1 + 0x768] = a0\n 32344: a1 = s1 + 0x760\n 32348: a0 = u64 [s1 + 0x190]\n 32352: u64 [s1 + 0x760] = a0\n 32356: a0 = 0\n 32358: ra = 1336, jump @24\n      : @1198 [@dyn 668] (gas: 12)\n 32364: a0 = u64 [s1 + 0x150]\n 32368: a3 = s1 + 0x700\n 32372: u64 [a3 + 0x58] = a0\n 32375: a0 = u64 [s1 + 0x158]\n 32379: u64 [a3 + 0x50] = a0\n 32382: a0 = u64 [s1 + 0x160]\n 32386: u64 [a3 + 0x48] = a0\n 32389: a0 = 0x20\n 32392: a1 = s1 + 0x740\n 32396: a2 = u64 [s1 + 0x168]\n 32400: u64 [a3 + 0x40] = a2\n 32403: ra = 1338, jump @24\n      : @1199 [@dyn 669] (gas: 1)\n 32409: t0 = 1340, jump @1510\n      : @1200 [@dyn 670] (gas: 1)\n 32415: jump @1202 if a1 <u a0\n      : @1201 (gas: 1)\n 32418: t0 = 1342, jump @1542\n      : @1202 [@dyn 671] (gas: 1)\n 32424: t0 = 1344, jump @1524\n      : @1203 [@dyn 672] (gas: 5)\n 32430: ra = 0x542\n 32434: ecalli 8 // 'hash_keccak_256'\n 32436: a3 = u64 [s1 + 0x168]\n 32440: t0 = 0x544\n 32444: jump @1496\n      : @1204 [@dyn 673] (gas: 2)\n 32447: a3 = u64 [s1 + 0x168]\n 32451: t0 = 1348, jump @1496\n      : @1205 [@dyn 674] (gas: 2)\n 32457: a0 = s1 + 0x720\n 32461: ra = 1350, jump @26\n      : @1206 [@dyn 675] (gas: 3)\n 32467: a0 = u64 [s1 + 0x720]\n 32471: a0 = a0 & 0x5\n 32474: jump @1209 if a0 != 1\n      : @1207 (gas: 28)\n 32479: a0 = u64 [s1 + 0x190]\n 32483: a2 = s1 + 0x600\n 32487: u64 [a2 + 0xc0] = a0\n 32491: a0 = u64 [s1 + 0x108]\n 32495: u64 [a2 + 0xe0] = a0\n 32499: a0 = u64 [s1 + 0x110]\n 32503: a4 = s1 + 0x700\n 32507: u64 [a4] = a0\n 32509: a1 = u64 [s1 + 0x180]\n 32513: u64 [a2 + 0xc8] = a1\n 32517: a0 = u64 [s1 + 0xe0]\n 32521: u64 [a2 + 0xe8] = a0\n 32525: a0 = u64 [s1 + 0x118]\n 32529: u64 [a4 + 0x8] = a0\n 32532: u64 [a2 + 0xd0] = a1\n 32536: a0 = u64 [s1 + 0xe8]\n 32540: u64 [a2 + 0xf0] = a0\n 32544: a0 = u64 [s1 + 0x100]\n 32548: u64 [a4 + 0x10] = a0\n 32551: u64 [a2 + 0xd8] = a1\n 32555: a0 = u64 [s1 + 0xf0]\n 32559: u64 [a2 + 0xf8] = a0\n 32563: a0 = s1 + 0x700\n 32567: a1 = s1 + 0x6e0\n 32571: a2 = s1 + 0x6c0\n 32575: a3 = u64 [s1 + 0xf8]\n 32579: u64 [a4 + 0x18] = a3\n 32582: ra = 1352, jump @1332\n      : @1208 [@dyn 676] (gas: 7)\n 32588: a2 = s1 + 0x100\n 32592: a0 = u64 [a2 + 0x48]\n 32595: a0 = a0 + 0x1\n 32598: a1 = u64 [a2 + 0x78]\n 32601: a0 = a0 & a1\n 32604: u64 [a2 + 0x48] = a0\n 32607: fallthrough\n      : @1209 (gas: 6)\n 32608: a3 = 0\n 32610: a0 = u64 [s1 + 0x190]\n 32614: a0 = a0 + 0x1\n 32617: a1 = u64 [s1 + 0x178]\n 32621: a2 = a0 & a1\n 32624: jump @1158\n      : @1210 (gas: 3)\n 32627: t0 = 0x54a\n 32631: a2 = s1 + 0x1118\n 32635: fallthrough\n      : @1211 [@dyn 677] (gas: 8)\n 32636: u64 [a2 + 1912] = 0\n 32640: u64 [a2 + 1904] = 0\n 32644: a0 = 0xc98289f000000000\n 32654: u64 [a2 + 0x780] = a0\n 32658: a1 = s1 + 0x1880\n 32662: u64 [a2 + 1896] = 0\n 32666: a0 = 0\n 32668: ra = 1356, jump @24\n      : @1212 [@dyn 678] (gas: 3)\n 32674: a0 = u64 [s1 + 0x118]\n 32678: a0 = i32 [a0]\n 32680: jump @1214 if a0 >u 31\n      : @1213 (gas: 3)\n 32684: a1 = u64 [s1 + 0x118]\n 32688: u32 [a1 + 0] = 0x20\n 32691: fallthrough\n      : @1214 (gas: 5)\n 32692: a0 = 0x1\n 32695: a2 = 0x4\n 32698: a1 = u64 [s1 + 0x110]\n 32702: ecalli 13 // 'seal_return'\n 32704: fallthrough\n      : @1215 (gas: 11)\n 32705: a2 = s1 + 0x7ff\n 32709: a2 = a2 + 0x119\n 32713: u64 [a2 + 1752] = 0\n 32717: u64 [a2 + 1744] = 0\n 32721: a0 = 0x7862e95900000000\n 32731: u64 [a2 + 0x6e0] = a0\n 32735: a1 = s1 + 0x7ff\n 32739: a1 = a1 + 0x7e1\n 32743: u64 [a2 + 1736] = 0\n 32747: a0 = 0\n 32749: ra = 1358, jump @24\n      : @1216 [@dyn 679] (gas: 2)\n 32755: a1 = i32 [0x20170]\n 32760: jump @1218 if a1 >u 31\n      : @1217 (gas: 3)\n 32764: u32 [0x20170] = 0x20\n 32770: a1 = 0x20180\n 32775: jump @817\n      : @1218 (gas: 2)\n 32778: a1 = 0x20180\n 32783: jump @817\n      : @1219 (gas: 2)\n 32786: u64 [s1 + 336] = 0\n 32790: fallthrough\n      : @1220 (gas: 7)\n 32791: a2 = s1 + 0x100\n 32795: a0 = u64 [a2 + 0x40]\n 32798: a0 = a0 << 0x1\n 32801: a1 = u64 [a2 + 0x50]\n 32804: a0 = a0 | a1\n 32807: u64 [a2] = a0\n 32809: fallthrough\n      : @1221 (gas: 10)\n 32810: u64 [s1 + 384] = 0\n 32814: a3 = 0\n 32816: a0 = u64 [s1 + 0x148]\n 32820: a1 = u64 [s1 + 0xa8]\n 32824: a0 = a0 & a1\n 32827: u64 [s1 + 0xe8] = a0\n 32831: a0 = 0xffffffff00000000\n 32841: u64 [s1 + 0xe0] = a0\n 32845: a2 = 0x1\n 32848: fallthrough\n      : @1222 (gas: 11)\n 32849: a1 = 0\n 32851: a1 = 0 if a3 == 0\n 32853: a0 = u64 [s1 + 0xe8]\n 32857: u64 [s1 + 0x150] = a2\n 32861: a0 = a0 <u a2\n 32864: a2 = 0\n 32866: a2 = a0 if a3 == 0\n 32869: u64 [s1 + 320] = 0\n 32873: a0 = 0\n 32875: a2 = a1 if a0 != 0\n 32878: jump @1224 if a2 == 0\n      : @1223 (gas: 1)\n 32881: jump @1047\n      : @1224 (gas: 6)\n 32884: a2 = s1 + 0x100\n 32888: a0 = u64 [a2 + 0x48]\n 32891: a1 = u64 [a2 + 0x80]\n 32895: a0 = a0 & a1\n 32898: a1 = u64 [a2 + 0x10]\n 32901: jump @1226 if a0 <u a1\n      : @1225 (gas: 1)\n 32904: jump @1047\n      : @1226 (gas: 14)\n 32907: a2 = s1 + 0x7ff\n 32911: a2 = a2 + 0x119\n 32915: u64 [a2 + 1632] = 0\n 32919: a0 = u64 [s1 + 0x130]\n 32923: a3 = a2 + 0x600\n 32927: u64 [a3 + 0x48] = a0\n 32930: a0 = u64 [s1 + 0x138]\n 32934: u64 [a3 + 0x50] = a0\n 32937: a1 = s1 + 0x7ff\n 32941: a1 = a1 + 0x761\n 32945: a0 = u64 [s1 + 0x108]\n 32949: u64 [a3 + 0x58] = a0\n 32952: a0 = 0\n 32954: ra = 1360, jump @24\n      : @1227 [@dyn 680] (gas: 11)\n 32960: a0 = s1 + 0x7ff\n 32964: a0 = a0 + 0x119\n 32968: u64 [a0 + 1600] = 0\n 32972: u64 [a0 + 1592] = 0\n 32976: u64 [a0 + 1584] = 0\n 32980: a3 = a0\n 32982: a0 = 0x20\n 32985: a1 = s1 + 0x7ff\n 32989: a1 = a1 + 0x741\n 32993: u64 [a3 + 1576] = 0x1\n 32998: ra = 1362, jump @24\n      : @1228 [@dyn 681] (gas: 1)\n 33004: t0 = 1364, jump @1510\n      : @1229 [@dyn 682] (gas: 1)\n 33010: jump @1231 if a1 <u a0\n      : @1230 (gas: 1)\n 33013: t0 = 1366, jump @1533\n      : @1231 [@dyn 683] (gas: 4)\n 33019: a0 = sp + 0xffffffffffffffe0\n 33022: a0 = a0 & 0xffffffffffffffe0\n 33025: u64 [s1 + 0x188] = a0\n 33029: t0 = 1368, jump @1469\n      : @1232 [@dyn 684] (gas: 5)\n 33035: ra = 0x55a\n 33039: ecalli 8 // 'hash_keccak_256'\n 33041: a3 = u64 [s1 + 0x188]\n 33045: t0 = 0x55c\n 33049: jump @1483\n      : @1233 [@dyn 685] (gas: 2)\n 33052: a3 = u64 [s1 + 0x188]\n 33056: t0 = 1372, jump @1483\n      : @1234 [@dyn 686] (gas: 15)\n 33062: u64 [s1 + 0x188] = a0\n 33066: sp = a0\n 33068: a2 = s1 + 0x7ff\n 33072: a2 = a2 + 0x119\n 33076: a0 = u64 [s1 + 0x140]\n 33080: a3 = a2 + 0x600\n 33084: u64 [a3 + 0x20] = a0\n 33087: u64 [a3 + 0x18] = a0\n 33090: u64 [a3 + 0x10] = a0\n 33093: a1 = s1 + 0x7ff\n 33097: a1 = a1 + 0x721\n 33101: a0 = u64 [s1 + 0x150]\n 33105: u64 [a3 + 0x8] = a0\n 33108: a0 = 0\n 33110: ra = 1374, jump @24\n      : @1235 [@dyn 687] (gas: 15)\n 33116: a0 = u64 [s1 + 0x160]\n 33120: a1 = s1 + 0x7ff\n 33124: a1 = a1 + 0x119\n 33128: u64 [a1 + 0x600] = a0\n 33132: a0 = u64 [s1 + 0x168]\n 33136: u64 [a1 + 0x5f8] = a0\n 33140: a0 = u64 [s1 + 0x170]\n 33144: u64 [a1 + 0x5f0] = a0\n 33148: a3 = a1\n 33150: a0 = 0x20\n 33153: a1 = s1 + 0x7ff\n 33157: a1 = a1 + 0x701\n 33161: a2 = u64 [s1 + 0x178]\n 33165: u64 [a3 + 0x5e8] = a2\n 33169: ra = 1376, jump @24\n      : @1236 [@dyn 688] (gas: 1)\n 33175: t0 = 1378, jump @1510\n      : @1237 [@dyn 689] (gas: 1)\n 33181: jump @1239 if a1 <u a0\n      : @1238 (gas: 1)\n 33184: t0 = 1380, jump @1542\n      : @1239 [@dyn 690] (gas: 4)\n 33190: a0 = sp + 0xffffffffffffffe0\n 33193: a0 = a0 & 0xffffffffffffffe0\n 33196: u64 [s1 + 0x178] = a0\n 33200: t0 = 1382, jump @1469\n      : @1240 [@dyn 691] (gas: 5)\n 33206: ra = 0x568\n 33210: ecalli 8 // 'hash_keccak_256'\n 33212: a3 = u64 [s1 + 0x178]\n 33216: t0 = 0x56a\n 33220: jump @1521\n      : @1241 [@dyn 692] (gas: 2)\n 33223: a3 = u64 [s1 + 0x178]\n 33227: t0 = 1386, jump @1521\n      : @1242 [@dyn 693] (gas: 13)\n 33233: a3 = s1 + 0x100\n 33237: a1 = u64 [a3 + 0x88]\n 33241: u64 [a3 + 0x70] = a2\n 33244: u64 [a1 + 0x18] = a2\n 33247: u64 [a3 + 0x78] = a0\n 33250: u64 [a1 + 0x10] = a0\n 33253: u64 [a3 + 0x68] = a4\n 33256: u64 [a1 + 0x8] = a4\n 33259: u64 [a3 + 0x60] = a5\n 33262: u64 [a1] = a5\n 33264: a0 = s1 + 0x7ff\n 33268: a0 = a0 + 0x6e1\n 33272: ra = 1388, jump @26\n      : @1243 [@dyn 694] (gas: 13)\n 33278: a2 = s1 + 0x7ff\n 33282: a2 = a2 + 0x119\n 33286: a3 = a2 + 0x500\n 33290: a0 = u64 [a3 + 0xd0]\n 33294: a1 = u64 [a3 + 0xd8]\n 33298: a2 = u64 [a3 + 0xc8]\n 33302: a0 = a0 & 0xffffffffffffffff\n 33305: a1 = a1 & 0xffffffffffffffff\n 33308: a3 = u64 [s1 + 0xe0]\n 33312: a2 = a2 & a3\n 33315: a1 = a1 | a2\n 33318: a0 = a0 | a1\n 33321: jump @1246 if a0 == 0\n      : @1244 (gas: 27)\n 33324: a5 = s1 + 0x100\n 33328: a0 = u64 [a5 + 0x60]\n 33331: a2 = a0 + 0x2\n 33334: a0 = a2 <u a0\n 33337: a1 = u64 [a5 + 0x68]\n 33340: a3 = a1 + a0\n 33343: a1 = a3 <u a1\n 33346: a1 = a0 if a0 == 0\n 33349: a0 = u64 [a5 + 0x78]\n 33352: a4 = a0 + a1\n 33355: a0 = a4 <u a0\n 33358: a1 = u64 [a5 + 0x70]\n 33361: a1 = a1 + a0\n 33364: a0 = s1 + 0x2918\n 33368: u64 [a5 + 0x88] = a2\n 33372: u64 [a0 + 0x168] = a2\n 33376: u64 [a5 + 0x78] = a3\n 33379: a2 = a0 + 0x100\n 33383: u64 [a2 + 0x70] = a3\n 33386: u64 [a5 + 0x70] = a4\n 33389: u64 [a2 + 0x78] = a4\n 33392: u64 [a5 + 0x68] = a1\n 33395: u64 [a2 + 0x80] = a1\n 33399: a0 = s1 + 0x7ff\n 33403: a0 = a0 + 0x6c1\n 33407: a1 = s1 + 0x2a80\n 33411: ra = 1390, jump @26\n      : @1245 [@dyn 695] (gas: 5)\n 33417: a0 = s1 + 0x7ff\n 33421: a0 = a0 + 0x119\n 33425: a0 = u64 [a0 + 0x5b0]\n 33429: a0 = a0 & 0xff\n 33433: jump @1247 if a0 == 0\n      : @1246 (gas: 6)\n 33436: a3 = 0\n 33438: a0 = u64 [s1 + 0x150]\n 33442: a0 = a0 + 0x1\n 33445: a1 = u64 [s1 + 0x148]\n 33449: a2 = a0 & a1\n 33452: jump @1222\n      : @1247 (gas: 15)\n 33455: a0 = s1 + 0x2918\n 33459: a2 = s1 + 0x100\n 33463: a1 = u64 [a2 + 0x88]\n 33467: a3 = a0 + 0x100\n 33471: u64 [a3 + 0x88] = a1\n 33475: a1 = u64 [a2 + 0x78]\n 33478: u64 [a3 + 0x90] = a1\n 33482: a1 = u64 [a2 + 0x70]\n 33485: u64 [a3 + 0x98] = a1\n 33489: a1 = u64 [a2 + 0x68]\n 33492: u64 [a3 + 0xa0] = a1\n 33496: a0 = s1 + 0x7ff\n 33500: a0 = a0 + 0x6a1\n 33504: a1 = s1 + 0x2aa0\n 33508: ra = 1392, jump @26\n      : @1248 [@dyn 696] (gas: 14)\n 33514: a3 = s1 + 0x7ff\n 33518: a3 = a3 + 0x119\n 33522: a0 = u64 [a3 + 0x588]\n 33526: a4 = a0 & 0xffffffffffffffff\n 33529: a1 = u64 [s1 + 0xb0]\n 33533: a0 = a4 <u a1\n 33536: a4 = a1 if a0 != 0\n 33539: t0 = u64 [s1 + 0xc8]\n 33543: t0 = 0 if a0 == 0\n 33545: a5 = u64 [s1 + 0xc0]\n 33549: a5 = 0 if a0 == 0\n 33551: a1 = u64 [s1 + 0xb8]\n 33555: a1 = 0 if a0 == 0\n 33557: fallthrough\n      : @1249 (gas: 3)\n 33558: a2 = a4 & 0xffffffffffffffff\n 33561: a0 = u64 [s1 + 0x100]\n 33565: jump @1246 if a2 >=u a0\n      : @1250 (gas: 11)\n 33569: u64 [s1 + 0x178] = a2\n 33573: a2 = s1 + 0x100\n 33577: u64 [a2 + 0x18] = a1\n 33580: u64 [a2 + 0x20] = a5\n 33583: u64 [s1 + 0x128] = t0\n 33587: u64 [a2 + 0x88] = a4\n 33591: a0 = u64 [a2 + 0x48]\n 33594: a1 = u64 [a2 + 0x80]\n 33598: a0 = a0 & a1\n 33601: a1 = u64 [a2 + 0x10]\n 33604: jump @1246 if a0 >=u a1\n      : @1251 (gas: 12)\n 33608: u64 [a3 + 1408] = 0\n 33612: a0 = u64 [s1 + 0x130]\n 33616: a2 = a3 + 0x500\n 33620: u64 [a2 + 0x68] = a0\n 33623: a0 = u64 [s1 + 0x138]\n 33627: u64 [a2 + 0x70] = a0\n 33630: a1 = s1 + 0x7ff\n 33634: a1 = a1 + 0x681\n 33638: a0 = u64 [s1 + 0x108]\n 33642: u64 [a2 + 0x78] = a0\n 33645: a0 = 0\n 33647: ra = 1394, jump @24\n      : @1252 [@dyn 697] (gas: 11)\n 33654: a0 = s1 + 0x7ff\n 33658: a0 = a0 + 0x119\n 33662: u64 [a0 + 1376] = 0\n 33666: u64 [a0 + 1368] = 0\n 33670: u64 [a0 + 1360] = 0\n 33674: a3 = a0\n 33676: a0 = 0x20\n 33679: a1 = s1 + 0x7ff\n 33683: a1 = a1 + 0x661\n 33687: u64 [a3 + 1352] = 0x3\n 33692: ra = 1396, jump @24\n      : @1253 [@dyn 698] (gas: 3)\n 33699: a1 = u64 [s1 + 0x198]\n 33703: a0 = i32 [a1]\n 33705: jump @1255 if a0 >u 63\n      : @1254 (gas: 2)\n 33709: u32 [a1 + 0] = 0x40\n 33712: fallthrough\n      : @1255 (gas: 4)\n 33713: a0 = sp + 0xffffffffffffffe0\n 33716: a0 = a0 & 0xffffffffffffffe0\n 33719: u64 [s1 + 0x170] = a0\n 33723: t0 = 1398, jump @1469\n      : @1256 [@dyn 699] (gas: 4)\n 33729: ra = 0x578\n 33733: ecalli 8 // 'hash_keccak_256'\n 33735: t0 = 0x57a\n 33739: jump @1485\n      : @1257 [@dyn 700] (gas: 1)\n 33742: t0 = 1402, jump @1485\n      : @1258 [@dyn 701] (gas: 11)\n 33748: a2 = s1 + 0x7ff\n 33752: a2 = a2 + 0x119\n 33756: u64 [a2 + 1344] = 0\n 33760: u64 [a2 + 1336] = 0\n 33764: u64 [a2 + 1328] = 0\n 33768: a1 = s1 + 0x7ff\n 33772: a1 = a1 + 0x641\n 33776: a0 = u64 [s1 + 0x178]\n 33780: u64 [a2 + 0x528] = a0\n 33784: a0 = 0\n 33786: ra = 1404, jump @24\n      : @1259 [@dyn 702] (gas: 1)\n 33793: t0 = 1406, jump @1546\n      : @1260 [@dyn 703] (gas: 2)\n 33799: a2 = a1 + 0x500\n 33803: t0 = 1408, jump @1490\n      : @1261 [@dyn 704] (gas: 4)\n 33809: a1 = a1 + 0x621\n 33813: a2 = u64 [s1 + 0x170]\n 33817: u64 [a3 + 0x508] = a2\n 33821: ra = 1410, jump @24\n      : @1262 [@dyn 705] (gas: 3)\n 33828: a1 = u64 [s1 + 0x198]\n 33832: a0 = i32 [a1]\n 33834: jump @1264 if a0 >u 63\n      : @1263 (gas: 2)\n 33838: u32 [a1 + 0] = 0x40\n 33841: fallthrough\n      : @1264 (gas: 4)\n 33842: a0 = sp + 0xffffffffffffffe0\n 33845: a0 = a0 & 0xffffffffffffffe0\n 33848: u64 [s1 + 0x178] = a0\n 33852: t0 = 1412, jump @1469\n      : @1265 [@dyn 706] (gas: 3)\n 33858: ra = 0x586\n 33862: ecalli 8 // 'hash_keccak_256'\n 33864: fallthrough\n      : @1266 [@dyn 707] (gas: 14)\n 33865: a3 = u64 [s1 + 0x178]\n 33869: a0 = u64 [a3 + 0x18]\n 33872: a1 = u64 [a3 + 0x10]\n 33875: a2 = u64 [a3 + 0x8]\n 33878: a3 = u64 [a3]\n 33880: a0 = reverse a0\n 33882: u64 [s1 + 0x170] = a0\n 33886: a0 = reverse a1\n 33888: u64 [s1 + 0x168] = a0\n 33892: a0 = reverse a2\n 33894: u64 [s1 + 0x160] = a0\n 33898: a0 = reverse a3\n 33900: u64 [s1 + 0x158] = a0\n 33904: t0 = 1416, jump @1523\n      : @1267 [@dyn 708] (gas: 13)\n 33910: a2 = s1 + 0x7ff\n 33914: a2 = a2 + 0x119\n 33918: a0 = u64 [s1 + 0x140]\n 33922: u64 [a2 + 0x500] = a0\n 33926: a3 = a2 + 0x400\n 33930: u64 [a3 + 0xf8] = a0\n 33934: u64 [a3 + 0xf0] = a0\n 33938: a1 = s1 + 0x7ff\n 33942: a1 = a1 + 0x601\n 33946: a0 = u64 [s1 + 0x150]\n 33950: u64 [a3 + 0xe8] = a0\n 33954: a0 = 0\n 33956: ra = 1418, jump @24\n      : @1268 [@dyn 709] (gas: 1)\n 33963: t0 = 1420, jump @1546\n      : @1269 [@dyn 710] (gas: 13)\n 33969: a2 = a1 + 0x400\n 33973: u64 [a2 + 0xe0] = a0\n 33977: a0 = u64 [s1 + 0x160]\n 33981: u64 [a2 + 0xd8] = a0\n 33985: a0 = u64 [s1 + 0x168]\n 33989: u64 [a2 + 0xd0] = a0\n 33993: a3 = a1\n 33995: a0 = 0x20\n 33998: a1 = s1 + 0x7ff\n 34002: a1 = a1 + 0x5e1\n 34006: a2 = u64 [s1 + 0x170]\n 34010: u64 [a3 + 0x4c8] = a2\n 34014: ra = 1422, jump @24\n      : @1270 [@dyn 711] (gas: 3)\n 34021: a1 = u64 [s1 + 0x198]\n 34025: a0 = i32 [a1]\n 34027: jump @1272 if a0 >u 63\n      : @1271 (gas: 2)\n 34031: u32 [a1 + 0] = 0x40\n 34034: fallthrough\n      : @1272 (gas: 4)\n 34035: a0 = sp + 0xffffffffffffffe0\n 34038: a0 = a0 & 0xffffffffffffffe0\n 34041: u64 [s1 + 0x170] = a0\n 34045: t0 = 1424, jump @1469\n      : @1273 [@dyn 712] (gas: 5)\n 34051: ra = 0x592\n 34055: ecalli 8 // 'hash_keccak_256'\n 34057: a3 = u64 [s1 + 0x170]\n 34061: t0 = 0x594\n 34065: jump @1520\n      : @1274 [@dyn 713] (gas: 2)\n 34068: a3 = u64 [s1 + 0x170]\n 34072: t0 = 1428, jump @1520\n      : @1275 [@dyn 714] (gas: 8)\n 34078: a1 = u64 [s1 + 0x178]\n 34082: u64 [a1 + 0x18] = a3\n 34085: u64 [a1 + 0x10] = a2\n 34088: u64 [a1 + 0x8] = a4\n 34091: u64 [a1] = a0\n 34093: a0 = s1 + 0x7ff\n 34097: a0 = a0 + 0x5c1\n 34101: ra = 1430, jump @26\n      : @1276 [@dyn 715] (gas: 5)\n 34108: a3 = s1 + 0x7ff\n 34112: a3 = a3 + 0x119\n 34116: a0 = u64 [a3 + 0x4a8]\n 34120: a0 = a0 & 0x5\n 34123: jump @1279 if a0 != 1\n      : @1277 (gas: 30)\n 34128: a0 = u64 [s1 + 0x150]\n 34132: a5 = a3 + 0x400\n 34136: u64 [a5 + 0x48] = a0\n 34139: a0 = u64 [s1 + 0x188]\n 34143: u64 [a5 + 0x68] = a0\n 34146: a0 = u64 [s1 + 0x130]\n 34150: u64 [a5 + 0x88] = a0\n 34154: a1 = u64 [s1 + 0x140]\n 34158: u64 [a5 + 0x50] = a1\n 34161: a0 = u64 [s1 + 0x118]\n 34165: u64 [a5 + 0x70] = a0\n 34168: a0 = u64 [s1 + 0x138]\n 34172: u64 [a5 + 0x90] = a0\n 34176: u64 [a5 + 0x58] = a1\n 34179: a0 = u64 [s1 + 0x120]\n 34183: u64 [a5 + 0x78] = a0\n 34186: a0 = u64 [s1 + 0xf8]\n 34190: u64 [a5 + 0x98] = a0\n 34194: u64 [a5 + 0x60] = a1\n 34197: a0 = u64 [s1 + 0x128]\n 34201: u64 [a5 + 0x80] = a0\n 34205: a0 = s1 + 0x7ff\n 34209: a0 = a0 + 0x5a1\n 34213: a1 = s1 + 0x7ff\n 34217: a1 = a1 + 0x581\n 34221: a2 = s1 + 0x7ff\n 34225: a2 = a2 + 0x561\n 34229: a4 = u64 [s1 + 0xf0]\n 34233: u64 [a5 + 0xa0] = a4\n 34237: ra = 1432, jump @1332\n      : @1278 [@dyn 716] (gas: 10)\n 34243: a2 = s1 + 0x100\n 34247: a4 = u64 [a2 + 0x88]\n 34251: a3 = s1 + 0x7ff\n 34255: a3 = a3 + 0x119\n 34259: a0 = u64 [a2 + 0x80]\n 34263: a0 = a0 + 0x1\n 34266: a1 = u64 [a2 + 0x48]\n 34269: a0 = a0 & a1\n 34272: u64 [a2 + 0x80] = a0\n 34276: jump @1280\n      : @1279 (gas: 2)\n 34278: a4 = u64 [s1 + 0x188]\n 34282: fallthrough\n      : @1280 (gas: 6)\n 34283: a1 = 0\n 34285: a5 = 0\n 34287: t0 = 0\n 34289: a0 = a4 + 0x1\n 34292: a4 = a0 & 0xffffffffffffffff\n 34295: jump @1249\n      : @1281 (gas: 11)\n 34298: a2 = s1 + 0x7ff\n 34302: a2 = a2 + 0x119\n 34306: u64 [a2 + 56] = 0\n 34309: u64 [a2 + 48] = 0\n 34312: a0 = 0xcf114bd900000000\n 34322: u64 [a2 + 0x40] = a0\n 34325: a1 = s1 + 0x7ff\n 34329: a1 = a1 + 0x141\n 34333: u64 [a2 + 40] = 0\n 34336: a0 = 0\n 34338: ra = 1434, jump @24\n      : @1282 [@dyn 717] (gas: 2)\n 34345: a1 = i32 [0x20170]\n 34350: jump @1284 if a1 >u 31\n      : @1283 (gas: 3)\n 34354: u32 [0x20170] = 0x20\n 34360: a1 = 0x20180\n 34365: jump @817\n      : @1284 (gas: 2)\n 34368: a1 = 0x20180\n 34373: jump @817\n      : @1285 (gas: 11)\n 34376: a2 = s1 + 0x7ff\n 34380: a2 = a2 + 0x119\n 34384: u64 [a2 + 24] = 0\n 34387: u64 [a2 + 16] = 0\n 34390: a0 = 0x7862e95900000000\n 34400: u64 [a2 + 0x20] = a0\n 34403: a1 = s1 + 0x7ff\n 34407: a1 = a1 + 0x121\n 34411: u64 [a2 + 8] = 0\n 34414: a0 = 0\n 34416: ra = 1436, jump @24\n      : @1286 [@dyn 718] (gas: 2)\n 34423: a1 = i32 [0x20170]\n 34428: jump @1288 if a1 >u 31\n      : @1287 (gas: 3)\n 34432: u32 [0x20170] = 0x20\n 34438: a1 = 0x20180\n 34443: jump @817\n      : @1288 (gas: 2)\n 34446: a1 = 0x20180\n 34451: jump @817\n      : @1289 (gas: 5)\n 34454: a0 = 0\n 34456: a1 = u64 [s1 + 0x188]\n 34460: a2 = 0\n 34462: ecalli 13 // 'seal_return'\n 34464: jump @1010\n      : @1290 [@dyn 719] (gas: 2)\n 34467: ecalli 2 // 'call_data_load'\n 34469: fallthrough\n      : @1291 (gas: 10)\n 34470: a0 = u64 [sp + 0x10]\n 34473: a1 = u64 [sp + 0x18]\n 34476: a2 = 0x100000000\n 34486: a2 = a2 ^ a0\n 34489: a2 = a2 | a1\n 34492: a3 = a0 >> 0x20\n 34495: a3 = a3 <u 0x1\n 34498: a3 = 0 if a1 != 0\n 34500: a3 = 0 if a2 == 0\n 34502: jump @1293 if a3 == 0\n      : @1292 (gas: 12)\n 34505: a2 = u64 [sp]\n 34507: a3 = u64 [sp + 0x8]\n 34510: u64 [s1] = a2\n 34512: u64 [s1 + 0x8] = a3\n 34515: u64 [s1 + 0x10] = a0\n 34518: u64 [s1 + 0x18] = a1\n 34521: sp = s0 + 0xffffffffffffffc0\n 34524: ra = u64 [sp + 0x38]\n 34527: s0 = u64 [sp + 0x30]\n 34530: s1 = u64 [sp + 0x28]\n 34533: sp = sp + 0x40\n 34536: ret\n      : @1293 (gas: 8)\n 34538: a1 = 0x20180\n 34543: i32 a1 = a1 + 0\n 34545: a0 = 0x1\n 34548: a2 = 0\n 34550: ra = 0x5a0\n 34554: ecalli 13 // 'seal_return'\n 34556: t0 = 0x5a2\n 34560: jump @1548\n      : @1294 [@dyn 720] (gas: 1)\n 34563: t0 = 1442, jump @1548\n      : @1295 [@dyn 721] (gas: 3)\n 34569: a1 = 0x24\n 34572: ecalli 2 // 'call_data_load'\n 34574: fallthrough\n      : @1296 (gas: 7)\n 34575: a0 = u64 [sp + 0x18]\n 34578: a1 = u64 [sp + 0x10]\n 34581: a2 = u64 [sp + 0x8]\n 34584: a3 = a1 | a0\n 34587: a4 = a2 <u 0x1\n 34590: a4 = 0 if a3 != 0\n 34592: jump @1299 if a4 == 0\n      : @1297 (gas: 2)\n 34595: a3 = u64 [sp]\n 34597: t0 = 1444, jump @1501\n      : @1298 [@dyn 722] (gas: 1)\n 34603: ret\n      : @1299 (gas: 8)\n 34605: a1 = 0x20180\n 34610: i32 a1 = a1 + 0\n 34612: a0 = 0x1\n 34615: a2 = 0\n 34617: ra = 0x5a6\n 34621: ecalli 13 // 'seal_return'\n 34623: t0 = 0x5a8\n 34627: jump @1548\n      : @1300 [@dyn 723] (gas: 1)\n 34630: t0 = 1448, jump @1548\n      : @1301 [@dyn 724] (gas: 5)\n 34636: a1 = 0x44\n 34639: ra = 0x5aa\n 34643: ecalli 2 // 'call_data_load'\n 34645: t0 = 0x5ac\n 34649: jump @1519\n      : @1302 [@dyn 725] (gas: 1)\n 34652: t0 = 1452, jump @1519\n      : @1303 [@dyn 726] (gas: 1)\n 34658: jump @1306 if a4 != 0\n      : @1304 (gas: 1)\n 34661: t0 = 1454, jump @1501\n      : @1305 [@dyn 727] (gas: 1)\n 34667: ret\n      : @1306 (gas: 8)\n 34669: a1 = 0x20180\n 34674: i32 a1 = a1 + 0\n 34676: a0 = 0x1\n 34679: a2 = 0\n 34681: ra = 0x5b0\n 34685: ecalli 13 // 'seal_return'\n 34687: t0 = 0x5b2\n 34691: jump @1534\n      : @1307 [@dyn 728] (gas: 1)\n 34694: t0 = 1458, jump @1534\n      : @1308 [@dyn 729] (gas: 4)\n 34700: ra = 0x5b4\n 34704: ecalli 2 // 'call_data_load'\n 34706: t0 = 0x5b6\n 34710: jump @1519\n      : @1309 [@dyn 730] (gas: 1)\n 34713: t0 = 1462, jump @1519\n      : @1310 [@dyn 731] (gas: 1)\n 34719: jump @1313 if a4 != 0\n      : @1311 (gas: 1)\n 34722: t0 = 1464, jump @1501\n      : @1312 [@dyn 732] (gas: 1)\n 34728: ret\n      : @1313 (gas: 7)\n 34730: a1 = 0x20180\n 34735: i32 a1 = a1 + 0\n 34737: a0 = 0x1\n 34740: a2 = 0\n 34742: ra = 0x5ba\n 34746: ecalli 13 // 'seal_return'\n 34748: fallthrough\n      : @1314 [@dyn 733] (gas: 33)\n 34749: sp = sp + 0xffffffffffffffa0\n 34752: u64 [sp + 0x58] = ra\n 34755: u64 [sp + 0x50] = s0\n 34758: u64 [sp + 0x48] = s1\n 34761: s0 = sp + 0x60\n 34764: sp = sp & 0xfffffffffffffff0\n 34767: a2 = u64 [a1 + 0x10]\n 34770: a5 = u64 [a1 + 0x8]\n 34773: a4 = u64 [a1]\n 34775: a1 = u64 [a1 + 0x18]\n 34778: t0 = a2 << 0x3f\n 34781: a3 = a5 >> 0x1\n 34784: t0 = a3 | t0\n 34787: a3 = a1 << 0x3f\n 34790: a2 = a2 >> 0x1\n 34793: a3 = a3 | a2\n 34796: a5 = a5 << 0x3f\n 34799: a2 = a4 >> 0x1\n 34802: a5 = a5 | a2\n 34805: t1 = a1 >> 0x1\n 34808: a4 = a4 & 0x1\n 34811: a1 = -a4\n 34813: s1 = a4 <u 0x1\n 34816: a2 = a5 & 0x7f\n 34819: t2 = a1 & a3\n 34822: a3 = a1 & t0\n 34825: a2 = a5 if a4 != 0\n 34828: a4 = a1 & t1\n 34831: a1 = a2 <u 0x20\n 34834: a1 = 0 if a3 != 0\n 34836: a5 = t2 | a4\n 34839: a1 = 0 if a5 != 0\n 34841: jump @1317 if s1 != a1\n      : @1315 (gas: 5)\n 34844: u64 [a0] = a2\n 34846: u64 [a0 + 0x8] = a3\n 34849: u64 [a0 + 0x10] = t2\n 34852: u64 [a0 + 0x18] = a4\n 34855: t0 = 1468, jump @1535\n      : @1316 [@dyn 734] (gas: 1)\n 34861: ret\n      : @1317 (gas: 1)\n 34863: t0 = 1470, jump @1530\n      : @1318 [@dyn 735] (gas: 1)\n 34869: ra = 1472, jump @24\n      : @1319 [@dyn 736] (gas: 7)\n 34876: u64 [sp + 24] = 0\n 34879: u64 [sp + 16] = 0\n 34882: u64 [sp + 0] = 0x22\n 34885: a0 = 0x4\n 34888: a1 = sp\n 34890: u64 [sp + 8] = 0\n 34893: ra = 1474, jump @24\n      : @1320 [@dyn 737] (gas: 2)\n 34900: a1 = i32 [0x20170]\n 34905: jump @1322 if a1 >u 63\n      : @1321 (gas: 2)\n 34909: u32 [0x20170] = 0x40\n 34915: fallthrough\n      : @1322 (gas: 7)\n 34916: a1 = 0x20180\n 34921: i32 a1 = a1 + 0\n 34923: a0 = 0x1\n 34926: a2 = 0x24\n 34929: ra = 0x5c4\n 34933: ecalli 13 // 'seal_return'\n 34935: fallthrough\n      : @1323 [@dyn 738] (gas: 46)\n 34936: sp = sp + 0xffffffffffffff70\n 34940: u64 [sp + 0x88] = ra\n 34944: u64 [sp + 0x80] = s0\n 34948: u64 [sp + 0x78] = s1\n 34951: s0 = sp + 0x90\n 34955: sp = sp & 0xfffffffffffffff0\n 34958: t0 = a0\n 34960: a2 = u64 [a1]\n 34962: t2 = u64 [a0 + 0x8]\n 34965: a5 = u64 [a1 + 0x8]\n 34968: t1 = u64 [a0]\n 34970: a3 = a2 + 0x1f\n 34973: ra = a3 <u a2\n 34976: a2 = a5 + ra\n 34979: a3 = a3 & 0xffffffffffffffe0\n 34982: u64 [sp + 0x8] = t1\n 34985: t1 = t1 + a3\n 34988: a4 = t1 <u a3\n 34991: a3 = a2 + t2\n 34994: a3 = a3 + a4\n 34997: s1 = a3 ^ a2\n 35000: a0 = a3 <u a2\n 35003: a0 = a4 if s1 == 0\n 35006: a4 = u64 [t0 + 0x18]\n 35009: a5 = a2 <u a5\n 35012: s1 = u64 [a1 + 0x10]\n 35015: t0 = u64 [t0 + 0x10]\n 35018: a1 = u64 [a1 + 0x18]\n 35021: a5 = ra if ra == 0\n 35024: a5 = a5 + s1\n 35027: s1 = a5 <u s1\n 35030: a2 = a5 + t0\n 35033: a0 = a0 + a2\n 35036: a5 = a2 <u a5\n 35039: a2 = a0 <u a2\n 35042: a1 = a1 + a4\n 35045: a1 = a1 + s1\n 35048: a1 = a1 + a5\n 35051: a5 = a1 + a2\n 35054: a1 = a5 >u 0\n 35056: a2 = a0 >u 0\n 35058: a2 = a1 if a5 != 0\n 35061: a1 = a0 | a5\n 35064: s1 = a3 >u 0\n 35066: s1 = a2 if a1 != 0\n 35069: jump @1327 if s1 != 0\n      : @1324 (gas: 13)\n 35072: a1 = u64 [sp + 0x8]\n 35075: a1 = t1 <u a1\n 35078: a2 = a3 ^ t2\n 35081: s1 = a3 <u t2\n 35084: s1 = a1 if a2 == 0\n 35087: a1 = a0 <u t0\n 35090: a2 = a5 ^ a4\n 35093: a4 = a5 <u a4\n 35096: a4 = a1 if a2 == 0\n 35099: a1 = a0 ^ t0\n 35102: a1 = a1 | a2\n 35105: a4 = s1 if a1 == 0\n 35108: jump @1327 if a4 != 0\n      : @1325 (gas: 7)\n 35111: u64 [sp + 0x50] = t1\n 35114: u64 [sp + 0x58] = a3\n 35117: u64 [sp + 0x60] = a0\n 35120: a0 = 0x40\n 35123: a1 = sp + 0x50\n 35126: u64 [sp + 0x68] = a5\n 35129: ra = 1478, jump @24\n      : @1326 [@dyn 739] (gas: 6)\n 35136: sp = s0 + 0xffffffffffffff70\n 35140: ra = u64 [sp + 0x88]\n 35144: s0 = u64 [sp + 0x80]\n 35148: s1 = u64 [sp + 0x78]\n 35151: sp = sp + 0x90\n 35155: ret\n      : @1327 (gas: 8)\n 35157: u64 [sp + 64] = 0\n 35160: u64 [sp + 56] = 0\n 35163: u64 [sp + 48] = 0\n 35166: a0 = 0x4e487b7100000000\n 35176: a1 = sp + 0x30\n 35179: u64 [sp + 0x48] = a0\n 35182: a0 = 0\n 35184: ra = 1480, jump @24\n      : @1328 [@dyn 740] (gas: 7)\n 35191: u64 [sp + 40] = 0\n 35194: u64 [sp + 32] = 0\n 35197: u64 [sp + 16] = 0x41\n 35201: a0 = 0x4\n 35204: a1 = sp + 0x10\n 35207: u64 [sp + 24] = 0\n 35210: ra = 1482, jump @24\n      : @1329 [@dyn 741] (gas: 2)\n 35217: a1 = i32 [0x20170]\n 35222: jump @1331 if a1 >u 63\n      : @1330 (gas: 2)\n 35226: u32 [0x20170] = 0x40\n 35232: fallthrough\n      : @1331 (gas: 7)\n 35233: a1 = 0x20180\n 35238: i32 a1 = a1 + 0\n 35240: a0 = 0x1\n 35243: a2 = 0x24\n 35246: ra = 0x5cc\n 35250: ecalli 13 // 'seal_return'\n 35252: fallthrough\n      : @1332 [@dyn 742] (gas: 21)\n 35253: sp = sp + 0xfffffffffffff920\n 35257: a3 = sp + 0x600\n 35261: u64 [a3 + 0xd8] = ra\n 35265: u64 [a3 + 0xd0] = s0\n 35269: u64 [a3 + 0xc8] = s1\n 35273: s0 = sp + 0x6e0\n 35277: sp = sp & 0xffffffffffffffe0\n 35280: s1 = sp\n 35282: a2 = u64 [a2]\n 35284: u64 [s1 + 0x28] = a2\n 35287: a1 = u64 [a1]\n 35289: u64 [s1 + 0x30] = a1\n 35292: a1 = u64 [a0 + 0x10]\n 35295: u64 [s1 + 0x20] = a1\n 35298: a1 = u64 [a0 + 0x8]\n 35301: u64 [s1 + 0x38] = a1\n 35304: a0 = u64 [a0]\n 35306: u64 [s1 + 0x40] = a0\n 35309: i32 a0 = s1 + 0x5c0\n 35313: ecalli 9 // 'now'\n 35315: fallthrough\n      : @1333 (gas: 48)\n 35316: t0 = u64 [s1 + 0x5d8]\n 35320: t1 = u64 [s1 + 0x5d0]\n 35324: a0 = u64 [s1 + 0x5c8]\n 35328: a4 = u64 [s1 + 0x5c0]\n 35332: u64 [s1 + 0x78] = a4\n 35335: a2 = clz t0\n 35337: a1 = clz t1\n 35339: a3 = a1 + 0x40\n 35342: a3 = a2 if t0 != 0\n 35345: a2 = clz a0\n 35347: a1 = clz a4\n 35349: a1 = a1 + 0x40\n 35352: a1 = a2 if a0 != 0\n 35355: a4 = a1 + 0x80\n 35359: a2 = t1 | t0\n 35362: a3 = a4 if a2 == 0\n 35365: a5 = a4 <u a1\n 35368: a5 = 0 if a2 != 0\n 35370: a4 = a5 >u 0\n 35372: a1 = a3 <u 0xf0\n 35376: a2 = a1 ^ 0x1\n 35379: a4 = a2 if a5 == 0\n 35382: t2 = a4 <u 0x1\n 35385: ra = t2 + 0xffffffffffffffff\n 35388: t2 = -a4\n 35390: a5 = -a5\n 35392: a2 = a5 - a2\n 35395: a1 = 0xef - a3\n 35399: u64 [s1 + 0xa8] = t2\n 35403: a3 = t2 >u 0\n 35405: a5 = ra >u 0\n 35407: a5 = a3 if ra == 0\n 35410: u64 [s1 + 0xb8] = a1\n 35414: a3 = a1 <u 0x100\n 35418: a3 = a3 ^ 0x1\n 35421: a1 = a2 >u 0\n 35423: a3 = a1 if a2 != 0\n 35426: a3 = a5 if a4 != 0\n 35429: t2 = a0\n 35431: a0 = u64 [s1 + 0x78]\n 35434: a1 = t2 | t0\n 35437: a4 = a0 | t1\n 35440: a1 = a1 | a4\n 35443: a1 = a1 <u 0x1\n 35446: a1 = a1 | a3\n 35449: a3 = a0\n 35451: a3 = 0 if a1 != 0\n 35453: jump @1349 if a1 != 0\n      : @1334 (gas: 7)\n 35457: a1 = u64 [s1 + 0xb8]\n 35461: a1 = a1 ^ 0xff\n 35465: a5 = u64 [s1 + 0xa8]\n 35469: a1 = a1 | a5\n 35472: a4 = a2 | ra\n 35475: a1 = a1 | a4\n 35478: jump @1349 if a1 == 0\n      : @1335 (gas: 21)\n 35482: a4 = u64 [s1 + 0xb8]\n 35486: a3 = a4 + 0x1\n 35489: u64 [s1 + 0xb0] = a3\n 35493: a1 = a3 <u 0x1\n 35496: a1 = a1 + a2\n 35499: u64 [s1 + 0xa0] = a1\n 35503: a1 = a1 | a3\n 35506: a1 = a1 <u 0x1\n 35509: a1 = a1 + a5\n 35512: u64 [s1 + 0x90] = a1\n 35516: a1 = a1 <u a5\n 35519: a1 = a1 + ra\n 35522: u64 [s1 + 0x98] = a1\n 35526: a2 = 0xff - a4\n 35530: u64 [s1 + 0x88] = a2\n 35534: a2 = 0x80 - a2\n 35538: a1 = t2\n 35540: u64 [s1 + 0x70] = t2\n 35543: u64 [s1 + 0x68] = t0\n 35546: u64 [s1 + 0x60] = t1\n 35549: ra = 1486, jump @1552\n      : @1336 [@dyn 743] (gas: 6)\n 35555: u64 [s1 + 0x80] = a0\n 35559: u64 [s1 + 0x50] = a1\n 35562: a0 = u64 [s1 + 0x60]\n 35565: a1 = u64 [s1 + 0x68]\n 35568: a2 = u64 [s1 + 0x88]\n 35572: ra = 1488, jump @1557\n      : @1337 [@dyn 744] (gas: 7)\n 35578: u64 [s1 + 0x48] = a0\n 35581: u64 [s1 + 0x18] = a1\n 35584: a1 = u64 [s1 + 0xb8]\n 35588: a2 = 0x7f - a1\n 35591: a0 = u64 [s1 + 0x78]\n 35594: a1 = u64 [s1 + 0x70]\n 35597: ra = 1490, jump @1557\n      : @1338 [@dyn 745] (gas: 8)\n 35603: u64 [s1 + 0x10] = a0\n 35606: u64 [s1 + 0xb8] = a1\n 35610: a2 = u64 [s1 + 0x88]\n 35614: a0 = a2 <u 0x80\n 35618: u64 [s1 + 0x58] = a0\n 35621: a0 = u64 [s1 + 0x78]\n 35624: a1 = u64 [s1 + 0x70]\n 35627: ra = 1492, jump @1557\n      : @1339 [@dyn 746] (gas: 11)\n 35633: a5 = u64 [s1 + 0x58]\n 35636: a4 = u64 [s1 + 0x90]\n 35640: a3 = u64 [s1 + 0x98]\n 35644: a2 = u64 [s1 + 0xa0]\n 35648: a2 = a2 | a3\n 35651: a3 = u64 [s1 + 0xb0]\n 35655: a3 = a3 | a4\n 35658: a3 = a3 | a2\n 35661: a0 = 0 if a5 == 0\n 35663: u64 [s1 + 0xa8] = a0\n 35667: jump @1347 if a3 == 0\n      : @1340 (gas: 27)\n 35671: a0 = u64 [s1 + 0x50]\n 35674: a2 = u64 [s1 + 0x18]\n 35677: a0 = a0 | a2\n 35680: a2 = u64 [s1 + 0xb8]\n 35684: a0 = a2 if a5 == 0\n 35687: t0 = u64 [s1 + 0x68]\n 35690: a3 = t0\n 35692: t1 = u64 [s1 + 0x88]\n 35696: a3 = a0 if t1 != 0\n 35699: u64 [s1 + 0xb8] = a3\n 35703: a0 = u64 [s1 + 0x80]\n 35707: a2 = u64 [s1 + 0x48]\n 35710: a0 = a0 | a2\n 35713: a2 = u64 [s1 + 0x10]\n 35716: a0 = a2 if a5 == 0\n 35719: a4 = u64 [s1 + 0x60]\n 35722: a3 = a4\n 35724: a3 = a0 if t1 != 0\n 35727: u64 [s1 + 0x80] = a3\n 35731: a1 = 0 if a5 == 0\n 35733: u64 [s1 + 0x88] = a1\n 35737: u64 [s1 + 88] = 0x15180\n 35743: a0 = u64 [s1 + 0xb0]\n 35747: a2 = a0 + 0xffffffffffffff80\n 35750: a0 = a4\n 35752: a1 = t0\n 35754: ra = 1494, jump @1552\n      : @1341 [@dyn 747] (gas: 6)\n 35760: u64 [s1 + 0x50] = a0\n 35763: u64 [s1 + 0x18] = a1\n 35766: a0 = u64 [s1 + 0x78]\n 35769: a1 = u64 [s1 + 0x70]\n 35772: a2 = u64 [s1 + 0xb0]\n 35776: ra = 1496, jump @1552\n      : @1342 [@dyn 748] (gas: 7)\n 35782: u64 [s1 + 0x10] = a0\n 35785: u64 [s1 + 0x48] = a1\n 35788: a1 = u64 [s1 + 0xb0]\n 35792: a2 = 0x80 - a1\n 35796: a0 = u64 [s1 + 0x60]\n 35799: a1 = u64 [s1 + 0x68]\n 35802: ra = 1498, jump @1557\n      : @1343 [@dyn 749] (gas: 21)\n 35808: a2 = u64 [s1 + 0x48]\n 35811: a1 = a1 | a2\n 35814: a3 = u64 [s1 + 0xb0]\n 35818: a4 = a3 <u 0x80\n 35822: u64 [s1 + 0x48] = a4\n 35825: a2 = u64 [s1 + 0x18]\n 35828: a1 = a2 if a4 == 0\n 35831: a2 = u64 [s1 + 0x70]\n 35834: a2 = a1 if a3 != 0\n 35837: u64 [s1 + 0x70] = a2\n 35840: a1 = u64 [s1 + 0x10]\n 35843: a0 = a0 | a1\n 35846: a1 = u64 [s1 + 0x50]\n 35849: a0 = a1 if a4 == 0\n 35852: a1 = u64 [s1 + 0x78]\n 35855: a1 = a0 if a3 != 0\n 35858: a2 = a3\n 35860: u64 [s1 + 0x78] = a1\n 35863: a0 = u64 [s1 + 0x60]\n 35866: a1 = u64 [s1 + 0x68]\n 35869: ra = 1500, jump @1552\n      : @1344 [@dyn 750] (gas: 13)\n 35875: a5 = 0\n 35877: a2 = u64 [s1 + 0x48]\n 35880: a1 = 0 if a2 == 0\n 35882: a0 = 0 if a2 == 0\n 35884: a3 = u64 [s1 + 0x58]\n 35887: a2 = a3 + 0xffffffffffffffff\n 35890: u64 [s1 + 0x50] = a2\n 35893: a2 = a3 >u 0\n 35895: a2 = a2 + 0xffffffffffffffff\n 35898: u64 [s1 + 0x48] = a2\n 35901: t1 = u64 [s1 + 0x70]\n 35904: t2 = u64 [s1 + 0x78]\n 35907: fallthrough\n      : @1345 (gas: 87)\n 35908: u64 [s1 + 0x78] = a5\n 35911: a2 = t2 >> 0x3f\n 35914: a3 = t1 << 0x1\n 35917: a5 = a3 | a2\n 35920: a3 = t2 << 0x1\n 35923: a4 = u64 [s1 + 0xb8]\n 35927: a4 = a4 >> 0x3f\n 35930: a3 = a3 | a4\n 35933: u64 [s1 + 0x68] = a3\n 35936: a2 = u64 [s1 + 0x48]\n 35939: u64 [s1 + 0x70] = a5\n 35942: t2 = t1\n 35944: t1 = a2 ^ a5\n 35947: t0 = a2 <u a5\n 35950: a4 = u64 [s1 + 0x50]\n 35953: a5 = a4 <u a3\n 35956: a5 = t0 if t1 != 0\n 35959: a1 = a1 << 0x1\n 35962: a3 = a0 >> 0x3f\n 35965: a1 = a1 | a3\n 35968: u64 [s1 + 0x60] = a1\n 35971: a3 = t2 >> 0x3f\n 35974: a0 = a0 << 0x1\n 35977: a3 = a3 | a0\n 35980: a0 = u64 [s1 + 0xb8]\n 35984: a0 = a0 << 0x1\n 35987: a4 = u64 [s1 + 0x80]\n 35991: a1 = a4 >> 0x3f\n 35994: t0 = a0 | a1\n 35997: a1 = a4 << 0x1\n 36000: a4 = u64 [s1 + 0x88]\n 36004: t1 = a4 >> 0x3f\n 36007: t1 = a1 | t1\n 36010: a1 = a4 << 0x1\n 36013: a4 = u64 [s1 + 0xa8]\n 36017: t2 = a4 >> 0x3f\n 36020: a1 = a1 | t2\n 36023: a4 = a4 << 0x1\n 36026: a0 = u64 [s1 + 0x78]\n 36029: a4 = a4 | a0\n 36032: u64 [s1 + 0xa8] = a4\n 36036: a1 = a1 | 0\n 36038: u64 [s1 + 0x88] = a1\n 36042: a1 = t1 | 0\n 36044: u64 [s1 + 0x80] = a1\n 36048: a0 = t0 | 0\n 36050: u64 [s1 + 0xb8] = a0\n 36054: a0 = a2 - a3\n 36057: a0 = a0 <u a5\n 36060: a1 = a2 <u a3\n 36063: t0 = u64 [s1 + 0x60]\n 36066: a4 = a2 - t0\n 36069: a4 = a4 - a1\n 36072: a4 = a4 - a0\n 36075: a5 = a4 >>a 0x3f\n 36078: a0 = u64 [s1 + 0x58]\n 36081: a0 = a0 & a5\n 36084: a1 = u64 [s1 + 0x68]\n 36087: t2 = a1 - a0\n 36090: a1 = a1 <u a0\n 36093: a0 = u64 [s1 + 0x70]\n 36096: t1 = a0 - a1\n 36099: a1 = 0 if a0 != 0\n 36101: a0 = a3 - a1\n 36104: a1 = a3 <u a1\n 36107: a1 = t0 - a1\n 36110: a3 = u64 [s1 + 0xb0]\n 36114: ra = u64 [s1 + 0xa0]\n 36118: a2 = a3 | ra\n 36121: a2 = a2 <u 0x1\n 36124: a4 = u64 [s1 + 0x90]\n 36128: t0 = a4 <u a2\n 36131: a2 = a4 - a2\n 36134: a4 = a3 <u 0x1\n 36137: ra = ra - a4\n 36140: a4 = u64 [s1 + 0x98]\n 36144: a4 = a4 - t0\n 36147: a3 = a3 + 0xffffffffffffffff\n 36150: u64 [s1 + 0xa0] = ra\n 36154: u64 [s1 + 0x98] = a4\n 36158: t0 = ra | a4\n 36161: u64 [s1 + 0xb0] = a3\n 36165: a4 = a3 | a2\n 36168: a3 = a4 | t0\n 36171: a5 = a5 & 0x1\n 36174: u64 [s1 + 0x90] = a2\n 36178: jump @1345 if a3 != 0\n      : @1346 (gas: 1)\n 36182: jump @1348\n      : @1347 (gas: 2)\n 36184: a5 = 0\n 36186: fallthrough\n      : @1348 (gas: 4)\n 36187: a0 = u64 [s1 + 0xa8]\n 36191: a0 = a0 << 0x1\n 36194: a3 = a5 | a0\n 36197: fallthrough\n      : @1349 (gas: 2)\n 36198: a0 = u64 [s1 + 0x30]\n 36201: jump @1426 if a0 >=u a3\n      : @1350 (gas: 13)\n 36205: a0 = u64 [s1 + 0x20]\n 36208: a0 = a0 << 0x20\n 36211: a2 = a0 >> 0x20\n 36214: u64 [s1 + 1432] = 0\n 36218: a0 = u64 [s1 + 0x40]\n 36221: u64 [s1 + 0x580] = a0\n 36225: a0 = u64 [s1 + 0x38]\n 36228: u64 [s1 + 0x588] = a0\n 36232: a1 = s1 + 0x580\n 36236: u64 [s1 + 0xa0] = a2\n 36240: u64 [s1 + 0x590] = a2\n 36244: a0 = 0\n 36246: ra = 1502, jump @24\n      : @1351 [@dyn 751] (gas: 7)\n 36253: u64 [s1 + 1400] = 0\n 36257: u64 [s1 + 1392] = 0\n 36261: u64 [s1 + 1376] = 0x1\n 36266: a0 = 0x20\n 36269: a1 = s1 + 0x560\n 36273: u64 [s1 + 1384] = 0\n 36277: ra = 1504, jump @24\n      : @1352 [@dyn 752] (gas: 3)\n 36284: a1 = 0x20170\n 36289: a0 = i32 [0x20170]\n 36294: jump @1354 if a0 >u 63\n      : @1353 (gas: 2)\n 36298: u32 [0x20170] = 0x40\n 36304: fallthrough\n      : @1354 (gas: 15)\n 36305: a0 = sp + 0xffffffffffffffe0\n 36308: a2 = a0 & 0xffffffffffffffe0\n 36311: u64 [s1 + 0xa8] = a2\n 36315: sp = a2\n 36317: a0 = 0x20180\n 36322: u64 [s1 + 0x70] = a0\n 36325: i32 a0 = a0 + 0\n 36327: u64 [s1 + 0xb0] = a1\n 36331: i32 a2 = a2 + 0\n 36333: a1 = 0x40\n 36336: u64 [s1 + 0xb8] = a0\n 36340: ra = 0x5e2\n 36344: ecalli 8 // 'hash_keccak_256'\n 36346: t0 = 0x5e4\n 36350: jump @1484\n      : @1355 [@dyn 753] (gas: 1)\n 36353: t0 = 1508, jump @1484\n      : @1356 [@dyn 754] (gas: 11)\n 36359: a0 = u64 [s1 + 0x28]\n 36362: a0 = a0 << 0x20\n 36365: a0 = a0 >> 0x20\n 36368: u64 [s1 + 1368] = 0\n 36372: u64 [s1 + 1360] = 0\n 36376: u64 [s1 + 1352] = 0\n 36380: a1 = s1 + 0x540\n 36384: u64 [s1 + 0x98] = a0\n 36388: u64 [s1 + 0x540] = a0\n 36392: a0 = 0\n 36394: ra = 1510, jump @24\n      : @1357 [@dyn 755] (gas: 12)\n 36401: a0 = u64 [s1 + 0x78]\n 36404: a3 = s1 + 0x500\n 36408: u64 [a3 + 0x38] = a0\n 36411: a0 = u64 [s1 + 0x80]\n 36415: u64 [a3 + 0x30] = a0\n 36418: a0 = u64 [s1 + 0x88]\n 36422: u64 [a3 + 0x28] = a0\n 36425: a0 = 0x20\n 36428: a1 = s1 + 0x520\n 36432: a2 = u64 [s1 + 0x90]\n 36436: u64 [a3 + 0x20] = a2\n 36439: ra = 1512, jump @24\n      : @1358 [@dyn 756] (gas: 3)\n 36446: a1 = u64 [s1 + 0xb0]\n 36450: a0 = i32 [a1]\n 36452: jump @1360 if a0 >u 63\n      : @1359 (gas: 3)\n 36456: u32 [a1 + 0] = 0x40\n 36459: t0 = 0x5ea\n 36463: jump @1538\n      : @1360 (gas: 1)\n 36466: t0 = 1514, jump @1538\n      : @1361 [@dyn 757] (gas: 4)\n 36472: ra = 0x5ec\n 36476: ecalli 8 // 'hash_keccak_256'\n 36478: t0 = 0x5ee\n 36482: jump @1498\n      : @1362 [@dyn 758] (gas: 1)\n 36485: t0 = 1518, jump @1498\n      : @1363 [@dyn 759] (gas: 2)\n 36491: a0 = s1 + 0x500\n 36495: ra = 1520, jump @26\n      : @1364 [@dyn 760] (gas: 7)\n 36502: a0 = u32 [s1 + 0x504]\n 36506: a1 = u64 [s1 + 0x508]\n 36510: a2 = u64 [s1 + 0x510]\n 36514: a0 = a0 << 0x20\n 36517: a1 = a1 | a2\n 36520: a0 = a0 | a1\n 36523: jump @1430 if a0 == 0\n      : @1365 (gas: 10)\n 36527: u64 [s1 + 1272] = 0\n 36531: a0 = u64 [s1 + 0x40]\n 36534: u64 [s1 + 0x4e0] = a0\n 36538: a0 = u64 [s1 + 0x38]\n 36541: u64 [s1 + 0x4e8] = a0\n 36545: a1 = s1 + 0x4e0\n 36549: a0 = u64 [s1 + 0xa0]\n 36553: u64 [s1 + 0x4f0] = a0\n 36557: a0 = 0\n 36559: ra = 1522, jump @24\n      : @1366 [@dyn 761] (gas: 7)\n 36566: u64 [s1 + 1240] = 0\n 36570: u64 [s1 + 1232] = 0\n 36574: u64 [s1 + 1216] = 0x3\n 36579: a0 = 0x20\n 36582: a1 = s1 + 0x4c0\n 36586: u64 [s1 + 1224] = 0\n 36590: ra = 1524, jump @24\n      : @1367 [@dyn 762] (gas: 3)\n 36597: a1 = u64 [s1 + 0xb0]\n 36601: a0 = i32 [a1]\n 36603: jump @1369 if a0 >u 63\n      : @1368 (gas: 3)\n 36607: u32 [a1 + 0] = 0x40\n 36610: t0 = 0x5f6\n 36614: jump @1504\n      : @1369 (gas: 1)\n 36617: t0 = 1526, jump @1504\n      : @1370 [@dyn 763] (gas: 22)\n 36623: ecalli 8 // 'hash_keccak_256'\n 36625: a3 = u64 [s1 + 0xa8]\n 36629: a0 = u64 [a3 + 0x18]\n 36632: a1 = u64 [a3 + 0x10]\n 36635: a2 = u64 [a3 + 0x8]\n 36638: a3 = u64 [a3]\n 36640: a0 = reverse a0\n 36642: u64 [s1 + 0xa8] = a0\n 36646: a0 = reverse a1\n 36648: u64 [s1 + 0x90] = a0\n 36652: a0 = reverse a2\n 36654: u64 [s1 + 0x88] = a0\n 36658: a0 = reverse a3\n 36660: u64 [s1 + 0x80] = a0\n 36664: u64 [s1 + 1208] = 0\n 36668: u64 [s1 + 1200] = 0\n 36672: u64 [s1 + 1192] = 0\n 36676: a1 = s1 + 0x4a0\n 36680: a0 = u64 [s1 + 0x30]\n 36683: u64 [s1 + 0x4a0] = a0\n 36687: a0 = 0\n 36689: ra = 1528, jump @24\n      : @1371 [@dyn 764] (gas: 12)\n 36696: a0 = u64 [s1 + 0x80]\n 36700: a3 = s1 + 0x400\n 36704: u64 [a3 + 0x98] = a0\n 36708: a0 = u64 [s1 + 0x88]\n 36712: u64 [a3 + 0x90] = a0\n 36716: a0 = u64 [s1 + 0x90]\n 36720: u64 [a3 + 0x88] = a0\n 36724: a0 = 0x20\n 36727: a1 = s1 + 0x480\n 36731: a2 = u64 [s1 + 0xa8]\n 36735: u64 [a3 + 0x80] = a2\n 36739: ra = 1530, jump @24\n      : @1372 [@dyn 765] (gas: 3)\n 36746: a1 = u64 [s1 + 0xb0]\n 36750: a0 = i32 [a1]\n 36752: jump @1374 if a0 >u 63\n      : @1373 (gas: 3)\n 36756: u32 [a1 + 0] = 0x40\n 36759: t0 = 0x5fc\n 36763: jump @1504\n      : @1374 (gas: 1)\n 36766: t0 = 1532, jump @1504\n      : @1375 [@dyn 766] (gas: 4)\n 36772: ra = 0x5fe\n 36776: ecalli 8 // 'hash_keccak_256'\n 36778: t0 = 0x600\n 36782: jump @1484\n      : @1376 [@dyn 767] (gas: 1)\n 36785: t0 = 1536, jump @1484\n      : @1377 [@dyn 768] (gas: 8)\n 36791: u64 [s1 + 1144] = 0\n 36795: u64 [s1 + 1136] = 0\n 36799: u64 [s1 + 1128] = 0\n 36803: a1 = s1 + 0x460\n 36807: a0 = u64 [s1 + 0x98]\n 36811: u64 [s1 + 0x460] = a0\n 36815: a0 = 0\n 36817: ra = 1538, jump @24\n      : @1378 [@dyn 769] (gas: 12)\n 36824: a0 = u64 [s1 + 0x78]\n 36827: a3 = s1 + 0x400\n 36831: u64 [a3 + 0x58] = a0\n 36834: a0 = u64 [s1 + 0x80]\n 36838: u64 [a3 + 0x50] = a0\n 36841: a0 = u64 [s1 + 0x88]\n 36845: u64 [a3 + 0x48] = a0\n 36848: a0 = 0x20\n 36851: a1 = s1 + 0x440\n 36855: a2 = u64 [s1 + 0x90]\n 36859: u64 [a3 + 0x40] = a2\n 36862: ra = 1540, jump @24\n      : @1379 [@dyn 770] (gas: 3)\n 36869: a1 = u64 [s1 + 0xb0]\n 36873: a0 = i32 [a1]\n 36875: jump @1381 if a0 >=u 64\n      : @1380 (gas: 3)\n 36879: u32 [a1 + 0] = 0x40\n 36882: t0 = 0x606\n 36886: jump @1538\n      : @1381 (gas: 1)\n 36889: t0 = 1542, jump @1538\n      : @1382 [@dyn 771] (gas: 4)\n 36895: ra = 0x608\n 36899: ecalli 8 // 'hash_keccak_256'\n 36901: t0 = 0x60a\n 36905: jump @1498\n      : @1383 [@dyn 772] (gas: 1)\n 36908: t0 = 1546, jump @1498\n      : @1384 [@dyn 773] (gas: 2)\n 36914: a0 = s1 + 0x420\n 36918: ra = 1548, jump @26\n      : @1385 [@dyn 774] (gas: 3)\n 36925: a1 = u64 [s1 + 0x420]\n 36929: a0 = a1 & 0x1\n 36932: jump @1431 if a0 == 0\n      : @1386 (gas: 2)\n 36936: a0 = a1 & 0x4\n 36939: jump @1432 if a0 != 0\n      : @1387 (gas: 6)\n 36943: u64 [s1 + 0x90] = a1\n 36947: a0 = a1 & 0xfb\n 36951: u64 [s1 + 0x88] = a0\n 36955: a0 = s1 + 0x3e0\n 36959: a1 = u64 [s1 + 0xa8]\n 36963: ra = 1550, jump @26\n      : @1388 [@dyn 775] (gas: 16)\n 36970: a0 = u64 [s1 + 0x3e0]\n 36974: a1 = u64 [s1 + 0x3e8]\n 36978: a2 = u64 [s1 + 0x3f0]\n 36982: a3 = u64 [s1 + 0x3f8]\n 36986: a0 = a0 & 0xffffffffffffff00\n 36990: a4 = u64 [s1 + 0x88]\n 36994: a0 = a0 | a4\n 36997: a0 = a0 + 0x4\n 37000: a4 = s1 + 0x500\n 37004: u64 [a4 + 0xf8] = a3\n 37008: u64 [a4 + 0xf0] = a2\n 37012: u64 [a4 + 0xe8] = a1\n 37016: u64 [a4 + 0xe0] = a0\n 37020: a1 = s1 + 0x5e0\n 37024: a0 = u64 [s1 + 0xa8]\n 37028: ra = 1552, jump @28\n      : @1389 [@dyn 776] (gas: 11)\n 37035: u64 [s1 + 984] = 0\n 37039: a0 = u64 [s1 + 0xa0]\n 37043: a2 = s1 + 0x300\n 37047: u64 [a2 + 0xd0] = a0\n 37051: a0 = u64 [s1 + 0x38]\n 37054: u64 [a2 + 0xc8] = a0\n 37058: a1 = s1 + 0x3c0\n 37062: a0 = u64 [s1 + 0x40]\n 37065: u64 [a2 + 0xc0] = a0\n 37069: a0 = 0\n 37071: ra = 1554, jump @24\n      : @1390 [@dyn 777] (gas: 7)\n 37078: u64 [s1 + 952] = 0\n 37082: u64 [s1 + 944] = 0\n 37086: u64 [s1 + 936] = 0\n 37090: a0 = 0x20\n 37093: a1 = s1 + 0x3a0\n 37097: u64 [s1 + 928] = 0\n 37101: ra = 1556, jump @24\n      : @1391 [@dyn 778] (gas: 3)\n 37108: a2 = u64 [s1 + 0xb0]\n 37112: a0 = i32 [a2]\n 37114: jump @1393 if a0 >u 63\n      : @1392 (gas: 3)\n 37118: u32 [a2 + 0] = 0x40\n 37121: t0 = 0x616\n 37125: jump @1504\n      : @1393 (gas: 1)\n 37128: t0 = 1558, jump @1504\n      : @1394 [@dyn 779] (gas: 32)\n 37134: ecalli 8 // 'hash_keccak_256'\n 37136: a3 = u64 [s1 + 0xa8]\n 37140: a0 = u64 [a3]\n 37142: a1 = u64 [a3 + 0x8]\n 37145: a2 = u64 [a3 + 0x10]\n 37148: a3 = u64 [a3 + 0x18]\n 37151: t0 = reverse a0\n 37153: a5 = reverse a1\n 37155: a2 = reverse a2\n 37157: a3 = reverse a3\n 37159: a0 = sp + 0xffffffffffffffe0\n 37162: a1 = a0 & 0xffffffffffffffe0\n 37165: u64 [s1 + 0xa8] = a1\n 37169: sp = a1\n 37171: u64 [s1 + 0x68] = a3\n 37174: a0 = a3 + 0x1\n 37177: a3 = a0 <u 0x1\n 37180: u64 [s1 + 0x78] = a2\n 37183: a4 = a2 + a3\n 37186: a2 = a0 | a4\n 37189: a2 = a2 <u 0x1\n 37192: a2 = a2 + a5\n 37195: u64 [s1 + 0x80] = a5\n 37199: a3 = a2 <u a5\n 37202: u64 [s1 + 0x88] = t0\n 37206: a3 = a3 + t0\n 37209: u64 [a1 + 0x8] = a4\n 37212: u64 [a1] = a0\n 37214: u64 [a1 + 0x10] = a2\n 37217: u64 [a1 + 0x18] = a3\n 37220: a0 = s1 + 0x380\n 37224: ra = 1560, jump @26\n      : @1395 [@dyn 780] (gas: 27)\n 37231: a2 = s1 + 0x300\n 37235: a0 = u64 [a2 + 0x80]\n 37239: a1 = u64 [0x20118]\n 37244: t0 = u64 [s1 + 0x398]\n 37248: a3 = u64 [a2 + 0x88]\n 37252: a4 = u64 [a2 + 0x90]\n 37256: a1 = a1 + a0\n 37259: a0 = a1 <u a0\n 37262: a5 = a3 + a0\n 37265: a5 = a5 + 0xffffffffffffffff\n 37268: a2 = a5 ^ a3\n 37271: a3 = a5 <u a3\n 37274: a3 = a0 if a2 == 0\n 37277: a0 = a4 + 0xffffffffffffffff\n 37280: a3 = a3 + a0\n 37283: a0 = a3 <u a0\n 37286: a2 = a4 <u 0x1\n 37289: a2 = t0 - a2\n 37292: a0 = a0 + a2\n 37295: a2 = s1 + 0x600\n 37299: u64 [a2] = a1\n 37301: u64 [a2 + 0x8] = a5\n 37304: u64 [a2 + 0x10] = a3\n 37307: u64 [a2 + 0x18] = a0\n 37310: a1 = s1 + 0x600\n 37314: a0 = u64 [s1 + 0xa8]\n 37318: ra = 1562, jump @28\n      : @1396 [@dyn 781] (gas: 3)\n 37325: a0 = u64 [s1 + 0x90]\n 37329: a0 = a0 & 0x2\n 37332: jump @1417 if a0 != 0\n      : @1397 (gas: 1)\n 37336: ra = 1564, jump @15\n      : @1398 [@dyn 782] (gas: 60)\n 37343: a1 = u64 [0x301a0]\n 37348: u64 [s1 + 0xa8] = a1\n 37352: a1 = u64 [0x301b0]\n 37357: u64 [s1 + 0x90] = a1\n 37361: a0 = u64 [0x301a8]\n 37366: u64 [s1 + 0x88] = a0\n 37370: ecalli 10 // 'ref_time_left'\n 37372: a1 = u64 [s1 + 0x88]\n 37376: a1 = reverse a1\n 37378: a2 = a1 << 0x20\n 37381: a3 = u64 [s1 + 0x90]\n 37385: a3 = reverse a3\n 37387: a3 = a3 >> 0x20\n 37390: a2 = a2 | a3\n 37393: a3 = a1 >> 0x20\n 37396: a1 = u64 [s1 + 0xa8]\n 37400: a4 = reverse a1\n 37402: a1 = 0x30180\n 37407: a5 = a4 << 0x20\n 37410: a3 = a3 | a5\n 37413: a4 = a4 >> 0x20\n 37416: u32 [0x30190] = a4\n 37421: u64 [0x30188] = a3\n 37426: u64 [0x30180] = a2\n 37431: a2 = u64 [0x20120]\n 37436: u64 [s1 + 1592] = 0\n 37440: u64 [s1 + 1584] = 0\n 37444: u64 [s1 + 1576] = 0\n 37448: u64 [s1 + 0x90] = a2\n 37452: a3 = s1 + 0x600\n 37456: u64 [a3 + 0x20] = a2\n 37459: u32 [s1 + 1600] = 0\n 37463: a0 = a0 >u 0x8fc\n 37467: a2 = -a0\n 37469: u64 [a3 + 0x78] = a2\n 37472: u64 [a3 + 0x70] = a2\n 37475: u64 [a3 + 0x68] = a2\n 37478: u64 [a3 + 0x60] = a2\n 37481: a1 = a1 << 0x20\n 37484: a1 = a1 >> 0x20\n 37487: a0 = a0 << 0x23\n 37490: a0 = a0 | a1\n 37493: a1 = s1 + 0x620\n 37497: a1 = a1 << 0x20\n 37500: a1 = a1 >> 0x20\n 37503: a2 = s1 + 0x660\n 37507: a2 = a2 << 0x20\n 37510: a3 = a2 | a1\n 37513: a4 = u64 [s1 + 0x70]\n 37516: a4 = a4 << 0x20\n 37519: a4 = a4 >> 0x20\n 37522: a1 = s1 + 0x640\n 37526: a1 = a1 << 0x20\n 37529: a5 = a1 | a4\n 37532: a1 = 0xffffffffffffffff\n 37535: a2 = 0xffffffffffffffff\n 37538: ecalli 0 // 'call'\n 37539: u64 [s1 + 0xa8] = a0\n 37543: ecalli 12 // 'return_data_size'\n 37545: fallthrough\n      : @1399 (gas: 1)\n 37546: jump @1411 if a0 == 0\n      : @1400 (gas: 10)\n 37550: ecalli 12 // 'return_data_size'\n 37552: a2 = a0\n 37554: u64 [s1 + 632] = 0\n 37558: u64 [s1 + 624] = 0\n 37562: u64 [s1 + 616] = 0\n 37566: a0 = s1 + 0x280\n 37570: a1 = s1 + 0x260\n 37574: u64 [s1 + 0x48] = a2\n 37577: u64 [s1 + 0x260] = a2\n 37581: ra = 1566, jump @1437\n      : @1401 [@dyn 783] (gas: 11)\n 37587: a0 = u64 [s1 + 0x280]\n 37591: u64 [s1 + 0x68] = a0\n 37594: a0 = u64 [s1 + 0x288]\n 37598: u64 [s1 + 0x60] = a0\n 37601: a0 = u64 [s1 + 0x290]\n 37605: u64 [s1 + 0x58] = a0\n 37608: a0 = u64 [s1 + 0x298]\n 37612: u64 [s1 + 0x50] = a0\n 37615: a0 = s1 + 0x240\n 37619: a1 = 0x40\n 37622: ra = 1568, jump @22\n      : @1402 [@dyn 784] (gas: 24)\n 37629: a5 = s1 + 0x200\n 37633: a0 = u64 [a5 + 0x58]\n 37636: u64 [s1 + 0x78] = a0\n 37639: a1 = u64 [a5 + 0x50]\n 37642: u64 [s1 + 0x70] = a1\n 37645: a3 = u64 [a5 + 0x48]\n 37648: u64 [s1 + 0x80] = a3\n 37652: a4 = u64 [a5 + 0x40]\n 37655: u64 [s1 + 0x88] = a4\n 37659: a2 = u64 [s1 + 0x50]\n 37662: u64 [a5 + 0x18] = a2\n 37665: a2 = u64 [s1 + 0x58]\n 37668: u64 [a5 + 0x10] = a2\n 37671: a2 = u64 [s1 + 0x60]\n 37674: u64 [a5 + 0x8] = a2\n 37677: a2 = u64 [s1 + 0x68]\n 37680: u64 [a5] = a2\n 37682: u64 [a5 + 0x38] = a0\n 37685: u64 [a5 + 0x30] = a1\n 37688: u64 [a5 + 0x28] = a3\n 37691: a0 = s1 + 0x220\n 37695: a1 = s1 + 0x200\n 37699: u64 [a5 + 0x20] = a4\n 37702: ra = 1570, jump @1323\n      : @1403 [@dyn 785] (gas: 12)\n 37708: a2 = u64 [s1 + 0x88]\n 37712: a0 = u64 [s1 + 0x78]\n 37715: a1 = u64 [s1 + 0x80]\n 37719: a0 = a0 | a1\n 37722: a3 = u64 [s1 + 0x70]\n 37725: a1 = a2 | a3\n 37728: a1 = a1 | a0\n 37731: a1 = a1 >> 0x20\n 37734: a0 = a0 | a3\n 37737: a0 = a0 << 0x20\n 37740: a0 = a0 | a1\n 37743: jump @1425 if a0 != 0\n      : @1404 (gas: 8)\n 37747: u64 [s1 + 504] = 0\n 37751: u64 [s1 + 496] = 0\n 37755: u64 [s1 + 488] = 0\n 37759: a1 = s1 + 0x1e0\n 37763: a0 = u64 [s1 + 0x48]\n 37766: u64 [s1 + 0x1e0] = a0\n 37770: a0 = a2\n 37772: ra = 1572, jump @24\n      : @1405 [@dyn 786] (gas: 2)\n 37779: ecalli 12 // 'return_data_size'\n 37781: fallthrough\n      : @1406 (gas: 10)\n 37782: a3 = u64 [s1 + 0x88]\n 37786: a1 = u64 [s1 + 0x78]\n 37789: a2 = u64 [s1 + 0x70]\n 37792: a1 = a1 | a2\n 37795: a2 = 0xffffffe0\n 37805: a2 = a3 <u a2\n 37808: a4 = u64 [s1 + 0x80]\n 37812: a2 = 0 if a4 != 0\n 37814: a2 = 0 if a1 != 0\n 37816: jump @1425 if a2 == 0\n      : @1407 (gas: 3)\n 37820: a1 = a0\n 37822: a0 = a0 >> 0x20\n 37825: jump @1425 if a0 != 0\n      : @1408 (gas: 7)\n 37829: i32 a0 = a3 + 0x20\n 37832: a2 = a1\n 37834: u64 [s1 + 0x80] = a1\n 37838: i32 a1 = a1 + 0\n 37840: u64 [s1 + 0x88] = a1\n 37844: a1 = a2\n 37846: ra = 1574, jump @37\n      : @1409 [@dyn 787] (gas: 7)\n 37853: a1 = u64 [s1 + 0x80]\n 37857: u32 [s1 + 0x680] = a1\n 37861: i32 a0 = a0 + 0\n 37863: i32 a1 = s1 + 0x680\n 37867: a2 = 0\n 37869: ecalli 11 // 'return_data_copy'\n 37871: fallthrough\n      : @1410 (gas: 3)\n 37872: a0 = i32 [s1 + 0x680]\n 37876: a1 = u64 [s1 + 0x88]\n 37880: jump @1425 if a0 <u a1\n      : @1411 (gas: 2)\n 37884: a0 = u64 [s1 + 0xa8]\n 37888: jump @1433 if a0 != 0\n      : @1412 (gas: 3)\n 37892: a0 = s1 + 0x1a0\n 37896: a1 = 0x40\n 37899: ra = 1576, jump @22\n      : @1413 [@dyn 788] (gas: 6)\n 37906: a4 = s1 + 0x100\n 37910: a0 = u64 [a4 + 0xb8]\n 37914: a1 = u64 [a4 + 0xb0]\n 37918: a2 = u64 [a4 + 0xa8]\n 37922: a3 = u64 [a4 + 0xa0]\n 37926: t0 = 1578, jump @1491\n      : @1414 [@dyn 789] (gas: 1)\n 37932: jump @1425 if a0 != 0\n      : @1415 (gas: 9)\n 37936: u64 [s1 + 408] = 0\n 37940: u64 [s1 + 400] = 0\n 37944: u64 [s1 + 392] = 0\n 37948: a1 = s1 + 0x180\n 37952: a0 = u64 [s1 + 0x90]\n 37956: u64 [s1 + 0x180] = a0\n 37960: a0 = a3\n 37962: u64 [s1 + 0xb8] = a3\n 37966: ra = 1580, jump @24\n      : @1416 [@dyn 790] (gas: 33)\n 37973: u64 [s1 + 280] = 0\n 37977: u64 [s1 + 272] = 0\n 37981: u64 [s1 + 264] = 0\n 37985: a0 = u64 [s1 + 0x30]\n 37988: u64 [s1 + 0x100] = a0\n 37992: u64 [s1 + 312] = 0\n 37996: u64 [s1 + 304] = 0\n 38000: u64 [s1 + 296] = 0\n 38004: a0 = u64 [s1 + 0x98]\n 38008: u64 [s1 + 0x120] = a0\n 38012: u64 [s1 + 344] = 0\n 38016: a0 = u64 [s1 + 0xa0]\n 38020: u64 [s1 + 0x150] = a0\n 38024: a0 = u64 [s1 + 0x38]\n 38027: u64 [s1 + 0x148] = a0\n 38031: a0 = u64 [0x20148]\n 38036: a1 = u64 [0x20150]\n 38041: a2 = u64 [0x20158]\n 38046: a3 = u64 [s1 + 0x40]\n 38049: u64 [s1 + 0x140] = a3\n 38053: u64 [s1 + 0x178] = a0\n 38057: u64 [s1 + 0x170] = a1\n 38061: u64 [s1 + 0x168] = a2\n 38065: a0 = u64 [0x20160]\n 38070: a1 = 0x20\n 38073: a2 = s1 + 0x160\n 38077: a3 = s1 + 0x140\n 38081: a4 = s1 + 0x120\n 38085: a5 = s1 + 0x100\n 38089: u64 [s1 + 0x160] = a0\n 38093: a0 = u64 [s1 + 0xb8]\n 38097: ra = 0x638\n 38101: jump @34\n      : @1417 (gas: 8)\n 38105: a0 = sp + 0xffffffffffffffe0\n 38108: a5 = a0 & 0xffffffffffffffe0\n 38111: sp = a5\n 38113: a1 = u64 [s1 + 0x68]\n 38116: a0 = a1 + 0x2\n 38119: a1 = a0 <u a1\n 38122: a3 = u64 [s1 + 0x78]\n 38125: t0 = 1582, jump @1509\n      : @1418 [@dyn 791] (gas: 13)\n 38131: a1 = u64 [s1 + 0x80]\n 38135: a3 = a3 + a1\n 38138: a1 = a3 <u a1\n 38141: a4 = u64 [s1 + 0x88]\n 38145: a4 = a4 + a1\n 38148: a1 = a5\n 38150: u64 [s1 + 0xb8] = a5\n 38154: u64 [a5 + 0x8] = a2\n 38157: u64 [a5] = a0\n 38159: u64 [a5 + 0x10] = a3\n 38162: u64 [a5 + 0x18] = a4\n 38165: a0 = s1 + 0x360\n 38169: ra = 1584, jump @26\n      : @1419 [@dyn 792] (gas: 22)\n 38176: a0 = u64 [s1 + 0x360]\n 38180: a4 = u64 [0x20120]\n 38185: a1 = u64 [s1 + 0x378]\n 38189: a2 = u64 [s1 + 0x368]\n 38193: a3 = u64 [s1 + 0x370]\n 38197: u64 [s1 + 0xb0] = a4\n 38201: a4 = a4 + a0\n 38204: a0 = a4 <u a0\n 38207: a5 = a2 + a0\n 38210: a2 = a5 <u a2\n 38213: a2 = a0 if a0 == 0\n 38216: a2 = a2 + a3\n 38219: a0 = a2 <u a3\n 38222: a0 = a0 + a1\n 38225: a1 = s1 + 0x600\n 38229: u64 [a1 + 0xa0] = a4\n 38233: u64 [a1 + 0xa8] = a5\n 38237: u64 [a1 + 0xb0] = a2\n 38241: u64 [a1 + 0xb8] = a0\n 38245: a1 = s1 + 0x6a0\n 38249: a0 = u64 [s1 + 0xb8]\n 38253: ra = 1586, jump @28\n      : @1420 [@dyn 793] (gas: 3)\n 38260: a0 = s1 + 0x340\n 38264: a1 = 0x40\n 38267: ra = 1588, jump @22\n      : @1421 [@dyn 794] (gas: 13)\n 38274: a4 = s1 + 0x300\n 38278: a3 = u64 [a4 + 0x58]\n 38281: a1 = u64 [a4 + 0x50]\n 38284: a2 = u64 [a4 + 0x48]\n 38287: a0 = u64 [a4 + 0x40]\n 38290: a3 = a3 | a2\n 38293: a2 = a0 | a1\n 38296: a2 = a2 | a3\n 38299: a2 = a2 >> 0x20\n 38302: a1 = a1 | a3\n 38305: a1 = a1 << 0x20\n 38308: a1 = a1 | a2\n 38311: jump @1425 if a1 != 0\n      : @1422 (gas: 8)\n 38315: u64 [s1 + 824] = 0\n 38319: u64 [s1 + 816] = 0\n 38323: u64 [s1 + 808] = 0\n 38327: a1 = s1 + 0x320\n 38331: a2 = u64 [s1 + 0xb0]\n 38335: u64 [s1 + 0x320] = a2\n 38339: u64 [s1 + 0xb8] = a0\n 38343: ra = 1590, jump @24\n      : @1423 [@dyn 795] (gas: 33)\n 38350: u64 [s1 + 696] = 0\n 38354: u64 [s1 + 688] = 0\n 38358: u64 [s1 + 680] = 0\n 38362: a0 = u64 [s1 + 0x30]\n 38365: a4 = s1 + 0x200\n 38369: u64 [a4 + 0xa0] = a0\n 38373: u64 [s1 + 728] = 0\n 38377: u64 [s1 + 720] = 0\n 38381: u64 [s1 + 712] = 0\n 38385: a0 = u64 [s1 + 0x98]\n 38389: u64 [a4 + 0xc0] = a0\n 38393: u64 [s1 + 760] = 0\n 38397: a0 = u64 [s1 + 0xa0]\n 38401: u64 [a4 + 0xf0] = a0\n 38405: a0 = u64 [s1 + 0x38]\n 38408: u64 [a4 + 0xe8] = a0\n 38412: a0 = u64 [0x20128]\n 38417: a1 = u64 [0x20130]\n 38422: a2 = u64 [0x20138]\n 38427: a3 = u64 [s1 + 0x40]\n 38430: u64 [a4 + 0xe0] = a3\n 38434: u64 [s1 + 0x318] = a0\n 38438: u64 [s1 + 0x310] = a1\n 38442: u64 [s1 + 0x308] = a2\n 38446: a0 = u64 [0x20140]\n 38451: a1 = 0x20\n 38454: a2 = s1 + 0x300\n 38458: a3 = s1 + 0x2e0\n 38462: a4 = s1 + 0x2c0\n 38466: a5 = s1 + 0x2a0\n 38470: u64 [s1 + 0x300] = a0\n 38474: a0 = u64 [s1 + 0xb8]\n 38478: ra = 1592, jump @34\n      : @1424 [@dyn 796] (gas: 7)\n 38485: sp = s0 + 0xfffffffffffff920\n 38489: a0 = sp + 0x600\n 38493: ra = u64 [a0 + 0xd8]\n 38497: s0 = u64 [a0 + 0xd0]\n 38501: s1 = u64 [a0 + 0xc8]\n 38505: sp = sp + 0x6e0\n 38509: ret\n      : @1425 (gas: 1)\n 38511: trap\n      : @1426 (gas: 8)\n 38512: u64 [s1 + 1456] = 0\n 38516: u64 [s1 + 1448] = 0\n 38520: u64 [s1 + 1440] = 0\n 38524: a0 = 0xcf114bd900000000\n 38534: a1 = s1 + 0x5a0\n 38538: u64 [s1 + 0x5b8] = a0\n 38542: a0 = 0\n 38544: ra = 1594, jump @24\n      : @1427 [@dyn 797] (gas: 2)\n 38551: a1 = i32 [0x20170]\n 38556: jump @1429 if a1 >u 31\n      : @1428 (gas: 2)\n 38560: u32 [0x20170] = 0x20\n 38566: fallthrough\n      : @1429 (gas: 6)\n 38567: a1 = 0x20180\n 38572: i32 a1 = a1 + 0\n 38574: a0 = 0x1\n 38577: a2 = 0x4\n 38580: ecalli 13 // 'seal_return'\n 38582: fallthrough\n      : @1430 (gas: 9)\n 38583: u64 [s1 + 208] = 0\n 38587: u64 [s1 + 200] = 0\n 38591: u64 [s1 + 192] = 0\n 38595: a0 = 0xa7a9536d00000000\n 38605: a1 = s1 + 0xc0\n 38609: u64 [s1 + 0xd8] = a0\n 38613: a0 = 0\n 38615: ra = 0x63c\n 38619: jump @24\n      : @1431 (gas: 9)\n 38623: u64 [s1 + 240] = 0\n 38627: u64 [s1 + 232] = 0\n 38631: u64 [s1 + 224] = 0\n 38635: a0 = 0xafa4e2b600000000\n 38645: a1 = s1 + 0xe0\n 38649: u64 [s1 + 0xf8] = a0\n 38653: a0 = 0\n 38655: ra = 0x63c\n 38659: jump @24\n      : @1432 (gas: 9)\n 38663: u64 [s1 + 1040] = 0\n 38667: u64 [s1 + 1032] = 0\n 38671: u64 [s1 + 1024] = 0\n 38675: a0 = 0x560ff90000000000\n 38685: a1 = s1 + 0x400\n 38689: u64 [s1 + 0x418] = a0\n 38693: a0 = 0\n 38695: ra = 0x63c\n 38699: jump @24\n      : @1433 (gas: 8)\n 38703: u64 [s1 + 464] = 0\n 38707: u64 [s1 + 456] = 0\n 38711: u64 [s1 + 448] = 0\n 38715: a0 = 0x90b8ec1800000000\n 38725: a1 = s1 + 0x1c0\n 38729: u64 [s1 + 0x1d8] = a0\n 38733: a0 = 0\n 38735: ra = 1596, jump @24\n      : @1434 [@dyn 798] (gas: 3)\n 38742: a0 = u64 [s1 + 0xb0]\n 38746: a0 = i32 [a0]\n 38748: jump @1436 if a0 >u 31\n      : @1435 (gas: 3)\n 38752: a1 = u64 [s1 + 0xb0]\n 38756: u32 [a1 + 0] = 0x20\n 38759: fallthrough\n      : @1436 (gas: 6)\n 38760: a0 = 0x1\n 38763: a2 = 0x4\n 38766: a1 = u64 [s1 + 0xb8]\n 38770: ra = 0x63e\n 38774: ecalli 13 // 'seal_return'\n 38776: fallthrough\n      : @1437 [@dyn 799] (gas: 10)\n 38777: a3 = u64 [a1 + 0x18]\n 38780: a4 = u64 [a1 + 0x10]\n 38783: t0 = u64 [a1 + 0x8]\n 38786: a5 = a3 >u 0\n 38788: a2 = a4 >u 0\n 38790: a2 = a5 if a3 != 0\n 38793: a3 = a3 | a4\n 38796: a4 = t0 >u 0\n 38798: a4 = a2 if a3 != 0\n 38801: jump @1439 if a4 != 0\n      : @1438 (gas: 16)\n 38804: a1 = u64 [a1]\n 38806: a2 = a1 + 0x1f\n 38809: a1 = a2 <u a1\n 38812: a1 = a1 + t0\n 38815: a1 = a1 & 0x1\n 38818: a2 = a2 & 0xffffffffffffffe0\n 38821: a3 = a2 + 0x20\n 38824: a2 = a3 <u a2\n 38827: a4 = a1 + a2\n 38830: a1 = a4 <u a1\n 38833: a1 = a2 if a2 == 0\n 38836: u64 [a0 + 24] = 0\n 38839: u64 [a0] = a3\n 38841: u64 [a0 + 0x8] = a4\n 38844: u64 [a0 + 0x10] = a1\n 38847: ret\n      : @1439 (gas: 6)\n 38849: sp = sp + 0xffffffffffffffb0\n 38852: u64 [sp + 0x48] = ra\n 38855: u64 [sp + 0x40] = s0\n 38858: s0 = sp + 0x50\n 38861: sp = sp & 0xfffffffffffffff0\n 38864: t0 = 1600, jump @1530\n      : @1440 [@dyn 800] (gas: 1)\n 38870: ra = 1602, jump @24\n      : @1441 [@dyn 801] (gas: 7)\n 38877: u64 [sp + 24] = 0\n 38880: u64 [sp + 16] = 0\n 38883: u64 [sp + 0] = 0x41\n 38886: a0 = 0x4\n 38889: a1 = sp\n 38891: u64 [sp + 8] = 0\n 38894: ra = 1604, jump @24\n      : @1442 [@dyn 802] (gas: 2)\n 38901: a1 = i32 [0x20170]\n 38906: jump @1444 if a1 >u 63\n      : @1443 (gas: 2)\n 38910: u32 [0x20170] = 0x40\n 38916: fallthrough\n      : @1444 (gas: 7)\n 38917: a1 = 0x20180\n 38922: i32 a1 = a1 + 0\n 38924: a0 = 0x1\n 38927: a2 = 0x24\n 38930: ra = 0x646\n 38934: ecalli 13 // 'seal_return'\n 38936: fallthrough\n      : @1445 [@dyn 803] (gas: 74)\n 38937: sp = sp + 0xfffffffffffffe40\n 38941: u64 [sp + 0x1b8] = ra\n 38945: u64 [sp + 0x1b0] = s0\n 38949: u64 [sp + 0x1a8] = s1\n 38953: s0 = sp + 0x1c0\n 38957: sp = sp & 0xffffffffffffffe0\n 38960: a2 = u64 [a1]\n 38962: u64 [sp + 0x58] = a2\n 38965: a2 = u64 [a1 + 0x8]\n 38968: u64 [sp + 0x50] = a2\n 38971: a2 = u64 [a1 + 0x10]\n 38974: u64 [sp + 0x48] = a2\n 38977: a1 = u64 [a1 + 0x18]\n 38980: u64 [sp + 0x40] = a1\n 38983: a1 = u64 [a0]\n 38985: u64 [sp + 0x38] = a1\n 38988: a1 = u64 [a0 + 0x10]\n 38991: u64 [sp + 0x30] = a1\n 38994: s1 = u64 [a0 + 0x8]\n 38997: ecalli 10 // 'ref_time_left'\n 38999: a1 = reverse s1\n 39001: a2 = a1 << 0x20\n 39004: a3 = u64 [sp + 0x30]\n 39007: a3 = reverse a3\n 39009: a3 = a3 >> 0x20\n 39012: a2 = a2 | a3\n 39015: a1 = a1 >> 0x20\n 39018: a3 = u64 [sp + 0x38]\n 39021: a3 = reverse a3\n 39023: a4 = 0x30180\n 39028: a5 = a3 << 0x20\n 39031: a1 = a1 | a5\n 39034: a3 = a3 >> 0x20\n 39037: u32 [0x30190] = a3\n 39042: u64 [0x30188] = a1\n 39047: u64 [0x30180] = a2\n 39052: a1 = u64 [sp + 0x40]\n 39055: u64 [sp + 0x158] = a1\n 39059: a1 = u64 [sp + 0x48]\n 39062: u64 [sp + 0x150] = a1\n 39066: a1 = u64 [sp + 0x50]\n 39069: u64 [sp + 0x148] = a1\n 39073: a1 = u64 [sp + 0x58]\n 39076: u64 [sp + 0x140] = a1\n 39080: u32 [sp + 352] = 0\n 39084: a0 = a0 >u 0x8fc\n 39088: a1 = -a0\n 39090: u64 [sp + 0x198] = a1\n 39094: u64 [sp + 0x190] = a1\n 39098: u64 [sp + 0x188] = a1\n 39102: u64 [sp + 0x180] = a1\n 39106: a4 = a4 << 0x20\n 39109: a4 = a4 >> 0x20\n 39112: a0 = a0 << 0x23\n 39115: a0 = a0 | a4\n 39118: a1 = sp + 0x140\n 39122: a1 = a1 << 0x20\n 39125: a1 = a1 >> 0x20\n 39128: a4 = 0x20180\n 39133: a2 = sp + 0x180\n 39137: a2 = a2 << 0x20\n 39140: a3 = a2 | a1\n 39143: u64 [sp + 0x10] = a4\n 39146: a4 = a4 << 0x20\n 39149: a4 = a4 >> 0x20\n 39152: a1 = sp + 0x160\n 39156: a1 = a1 << 0x20\n 39159: a5 = a1 | a4\n 39162: a1 = 0xffffffffffffffff\n 39165: a2 = 0xffffffffffffffff\n 39168: ecalli 0 // 'call'\n 39169: s1 = a0\n 39171: ecalli 12 // 'return_data_size'\n 39173: fallthrough\n      : @1446 (gas: 1)\n 39174: jump @1458 if a0 == 0\n      : @1447 (gas: 11)\n 39178: u64 [sp + 0x18] = s1\n 39181: ecalli 12 // 'return_data_size'\n 39183: a2 = a0\n 39185: u64 [sp + 280] = 0\n 39189: u64 [sp + 272] = 0\n 39193: u64 [sp + 264] = 0\n 39197: a0 = sp + 0x120\n 39201: a1 = sp + 0x100\n 39205: u64 [sp + 0x20] = a2\n 39208: u64 [sp + 0x100] = a2\n 39212: ra = 1608, jump @1437\n      : @1448 [@dyn 804] (gas: 11)\n 39218: a0 = u64 [sp + 0x120]\n 39222: u64 [sp + 0x48] = a0\n 39225: a0 = u64 [sp + 0x128]\n 39229: u64 [sp + 0x40] = a0\n 39232: a0 = u64 [sp + 0x130]\n 39236: u64 [sp + 0x38] = a0\n 39239: a0 = u64 [sp + 0x138]\n 39243: u64 [sp + 0x30] = a0\n 39246: a0 = sp + 0xe0\n 39250: a1 = 0x40\n 39253: ra = 1610, jump @22\n      : @1449 [@dyn 805] (gas: 22)\n 39260: a0 = u64 [sp + 0xf8]\n 39264: u64 [sp + 0x50] = a0\n 39267: s1 = u64 [sp + 0xf0]\n 39271: a2 = u64 [sp + 0xe8]\n 39275: u64 [sp + 0x58] = a2\n 39278: a3 = u64 [sp + 0xe0]\n 39282: u64 [sp + 0x28] = a3\n 39285: a1 = u64 [sp + 0x30]\n 39288: u64 [sp + 0xb8] = a1\n 39292: a1 = u64 [sp + 0x38]\n 39295: u64 [sp + 0xb0] = a1\n 39299: a1 = u64 [sp + 0x40]\n 39302: u64 [sp + 0xa8] = a1\n 39306: a1 = u64 [sp + 0x48]\n 39309: u64 [sp + 0xa0] = a1\n 39313: u64 [sp + 0xd8] = a0\n 39317: u64 [sp + 0xd0] = s1\n 39321: u64 [sp + 0xc8] = a2\n 39325: a0 = sp + 0xc0\n 39329: a1 = sp + 0xa0\n 39333: u64 [sp + 0xc0] = a3\n 39337: ra = 1612, jump @1323\n      : @1450 [@dyn 806] (gas: 12)\n 39343: a2 = u64 [sp + 0x28]\n 39346: a0 = u64 [sp + 0x50]\n 39349: a1 = u64 [sp + 0x58]\n 39352: a0 = a0 | a1\n 39355: a1 = a2 | s1\n 39358: a1 = a1 | a0\n 39361: a1 = a1 >> 0x20\n 39364: u64 [sp + 0x48] = s1\n 39367: a0 = a0 | s1\n 39370: a0 = a0 << 0x20\n 39373: a0 = a0 | a1\n 39376: jump @1460 if a0 != 0\n      : @1451 (gas: 9)\n 39380: u64 [sp + 152] = 0\n 39384: u64 [sp + 144] = 0\n 39388: u64 [sp + 136] = 0\n 39392: a1 = sp + 0x80\n 39396: a0 = u64 [sp + 0x20]\n 39399: u64 [sp + 0x80] = a0\n 39403: a0 = a2\n 39405: s1 = a2\n 39407: ra = 1614, jump @24\n      : @1452 [@dyn 807] (gas: 2)\n 39414: ecalli 12 // 'return_data_size'\n 39416: fallthrough\n      : @1453 (gas: 9)\n 39417: a1 = u64 [sp + 0x50]\n 39420: a2 = u64 [sp + 0x48]\n 39423: a1 = a1 | a2\n 39426: a2 = 0xffffffe0\n 39436: a2 = s1 <u a2\n 39439: a4 = u64 [sp + 0x58]\n 39442: a2 = 0 if a4 != 0\n 39444: a2 = 0 if a1 != 0\n 39446: jump @1460 if a2 == 0\n      : @1454 (gas: 4)\n 39449: a3 = s1\n 39451: s1 = a0\n 39453: a0 = a0 >> 0x20\n 39456: jump @1460 if a0 != 0\n      : @1455 (gas: 5)\n 39459: i32 a0 = a3 + 0x20\n 39462: i32 a1 = s1 + 0\n 39464: u64 [sp + 0x58] = a1\n 39467: a1 = s1\n 39469: ra = 1616, jump @37\n      : @1456 [@dyn 808] (gas: 6)\n 39476: u32 [sp + 0x1a0] = s1\n 39480: i32 a0 = a0 + 0\n 39482: i32 a1 = sp + 0x1a0\n 39486: a2 = 0\n 39488: ecalli 11 // 'return_data_copy'\n 39490: fallthrough\n      : @1457 (gas: 4)\n 39491: a0 = i32 [sp + 0x1a0]\n 39495: s1 = u64 [sp + 0x18]\n 39498: a1 = u64 [sp + 0x58]\n 39501: jump @1460 if a0 <u a1\n      : @1458 (gas: 1)\n 39504: jump @1461 if s1 != 0\n      : @1459 (gas: 6)\n 39507: sp = s0 + 0xfffffffffffffe40\n 39511: ra = u64 [sp + 0x1b8]\n 39515: s0 = u64 [sp + 0x1b0]\n 39519: s1 = u64 [sp + 0x1a8]\n 39523: sp = sp + 0x1c0\n 39527: ret\n      : @1460 (gas: 1)\n 39529: trap\n      : @1461 (gas: 8)\n 39530: u64 [sp + 112] = 0\n 39533: u64 [sp + 104] = 0\n 39536: u64 [sp + 96] = 0\n 39539: a0 = 0x90b8ec1800000000\n 39549: a1 = sp + 0x60\n 39552: u64 [sp + 0x78] = a0\n 39555: a0 = 0\n 39557: ra = 1618, jump @24\n      : @1462 [@dyn 809] (gas: 2)\n 39564: a1 = i32 [0x20170]\n 39569: jump @1464 if a1 >u 31\n      : @1463 (gas: 2)\n 39573: u32 [0x20170] = 0x20\n 39579: fallthrough\n      : @1464 (gas: 7)\n 39580: a1 = i32 [sp + 0x10]\n 39583: a0 = 0x1\n 39586: a2 = 0x4\n 39589: ecalli 13 // 'seal_return'\n 39591: a0 = 0\n 39593: ra = 0x654\n 39597: jump @43\n      : @1465 [export #0: 'call'] (gas: 2)\n 39601: a0 = 0\n 39603: ra = 1620, jump @43\n      : @1466 [@dyn 810] [export #1: 'deploy'] (gas: 2)\n 39610: a0 = 0x1\n 39613: ra = 1622, jump @43\n      : @1467 [@dyn 811] (gas: 15)\n 39620: a0 = u64 [a2 + 0x8]\n 39623: a1 = i32 [a2 + 0x10]\n 39626: a2 = u64 [a2]\n 39628: a0 = reverse a0\n 39630: a3 = a0 << 0x20\n 39633: a1 = reverse a1\n 39635: a1 = a1 >> 0x20\n 39638: a3 = a3 | a1\n 39641: a0 = a0 >> 0x20\n 39644: a1 = reverse a2\n 39646: a2 = a1 << 0x20\n 39649: a0 = a0 | a2\n 39652: a1 = a1 >> 0x20\n 39655: a2 = s1 + 0x1918\n 39659: jump [t0]\n      : @1468 (gas: 17)\n 39661: a2 = u64 [s1 + 0x150]\n 39665: a0 = u64 [a2 + 0x8]\n 39668: a1 = i32 [a2 + 0x10]\n 39671: a2 = u64 [a2]\n 39673: a0 = reverse a0\n 39675: a3 = a0 << 0x20\n 39678: a1 = reverse a1\n 39680: a1 = a1 >> 0x20\n 39683: a3 = a3 | a1\n 39686: a0 = a0 >> 0x20\n 39689: a1 = reverse a2\n 39691: a2 = a1 << 0x20\n 39694: a0 = a0 | a2\n 39697: a1 = a1 >> 0x20\n 39700: a2 = s1 + 0x7ff\n 39704: a2 = a2 + 0x119\n 39708: jump [t0]\n      : @1469 (gas: 5)\n 39710: sp = a0\n 39712: i32 a2 = a0 + 0\n 39714: a1 = 0x40\n 39717: a0 = u64 [s1 + 0x190]\n 39721: jump [t0]\n      : @1470 (gas: 27)\n 39723: u64 [s1 + 0x168] = a0\n 39727: a0 = ra - a3\n 39730: a0 = a0 <u a5\n 39733: a1 = ra <u a3\n 39736: a5 = u64 [s1 + 0x138]\n 39740: a4 = ra - a5\n 39743: a4 = a4 - a1\n 39746: a4 = a4 - a0\n 39749: ra = a4 >>a 0x3f\n 39752: a0 = u64 [s1 + 0x130]\n 39756: a0 = ra & a0\n 39759: a1 = u64 [s1 + 0x140]\n 39763: t2 = a1 - a0\n 39766: a1 = a1 <u a0\n 39769: t1 = a2 - a1\n 39772: a1 = 0 if a2 != 0\n 39774: a0 = a3 - a1\n 39777: u64 [s1 + 0x148] = a0\n 39781: a1 = a3 <u a1\n 39784: a1 = a5 - a1\n 39787: a0 = s1 + 0x100\n 39791: a3 = u64 [a0 + 0x98]\n 39795: a5 = u64 [a0 + 0x90]\n 39799: a2 = a3 | a5\n 39802: a2 = a2 <u 0x1\n 39805: a4 = u64 [a0 + 0x80]\n 39809: jump [t0]\n      : @1471 (gas: 8)\n 39811: a0 = u64 [a2 + 0x8]\n 39814: a1 = i32 [a2 + 0x10]\n 39817: a2 = u64 [a2]\n 39819: a3 = reverse a0\n 39821: a0 = a3 << 0x20\n 39824: a1 = reverse a1\n 39826: a1 = a1 >> 0x20\n 39829: jump [t0]\n      : @1472 (gas: 24)\n 39831: a0 = a1 if a2 == 0\n 39834: a2 = u64 [s1 + 0x150]\n 39838: a3 = a2\n 39840: a1 = a2\n 39842: a2 = u64 [s1 + 0x160]\n 39846: a3 = a0 if a2 != 0\n 39849: u64 [s1 + 0x168] = a3\n 39853: a0 = u64 [s1 + 0x148]\n 39857: a3 = u64 [s1 + 0x130]\n 39861: a0 = a0 | a3\n 39864: a3 = u64 [s1 + 0x120]\n 39868: a0 = a3 if a5 == 0\n 39871: a4 = u64 [s1 + 0x158]\n 39875: a3 = a4\n 39877: a3 = a0 if a2 != 0\n 39880: u64 [s1 + 0x160] = a3\n 39884: a0 = u64 [s1 + 0x170]\n 39888: a0 = 0 if a5 == 0\n 39890: u64 [s1 + 0x170] = a0\n 39894: u64 [s1 + 304] = 0x15180\n 39901: a0 = u64 [s1 + 0x198]\n 39905: a2 = a0 + 0xffffffffffffff80\n 39908: a0 = a4\n 39910: jump [t0]\n      : @1473 (gas: 15)\n 39912: a0 = u64 [a2 + 0x8]\n 39915: a1 = i32 [a2 + 0x10]\n 39918: a2 = u64 [a2]\n 39920: a0 = reverse a0\n 39922: a3 = a0 << 0x20\n 39925: a1 = reverse a1\n 39927: a1 = a1 >> 0x20\n 39930: a3 = a3 | a1\n 39933: a0 = a0 >> 0x20\n 39936: a1 = reverse a2\n 39938: a2 = a1 << 0x20\n 39941: a0 = a0 | a2\n 39944: a1 = a1 >> 0x20\n 39947: a2 = s1 + 0x2118\n 39951: jump [t0]\n      : @1474 (gas: 8)\n 39953: a0 = sp + 0xffffffffffffffe0\n 39956: a0 = a0 & 0xffffffffffffffe0\n 39959: u64 [s1 + 0x190] = a0\n 39963: sp = a0\n 39965: i32 a2 = a0 + 0\n 39967: a1 = 0x40\n 39970: a0 = u64 [s1 + 0x110]\n 39974: jump [t0]\n      : @1475 (gas: 15)\n 39976: a2 = u64 [s1 + 0x180]\n 39980: a0 = u64 [a2 + 0x8]\n 39983: a1 = i32 [a2 + 0x10]\n 39986: a2 = u64 [a2]\n 39988: a0 = reverse a0\n 39990: a3 = a0 << 0x20\n 39993: a1 = reverse a1\n 39995: a1 = a1 >> 0x20\n 39998: a3 = a3 | a1\n 40001: a0 = a0 >> 0x20\n 40004: a1 = reverse a2\n 40006: a2 = a1 << 0x20\n 40009: a0 = a0 | a2\n 40012: a1 = a1 >> 0x20\n 40015: jump [t0]\n      : @1476 (gas: 18)\n 40017: a1 = a2 + 0x1\n 40020: u64 [s1 + 0x198] = a1\n 40024: a0 = a1 <u 0x1\n 40027: a0 = a0 + a3\n 40030: u64 [s1 + 0x190] = a0\n 40034: a0 = a0 | a1\n 40037: a0 = a0 <u 0x1\n 40040: a0 = a0 + t1\n 40043: u64 [s1 + 0x180] = a0\n 40047: a0 = a0 <u t1\n 40050: a0 = a0 + ra\n 40053: u64 [s1 + 0x188] = a0\n 40057: a1 = 0xff - a2\n 40061: u64 [s1 + 0x160] = a1\n 40065: a2 = 0x80 - a1\n 40069: a0 = u64 [s1 + 0x140]\n 40073: a1 = u64 [s1 + 0x138]\n 40077: jump [t0]\n      : @1477 (gas: 21)\n 40079: a3 = u64 [s1 + 0x180]\n 40083: a0 = u64 [a3 + 0x18]\n 40086: a1 = u64 [a3 + 0x10]\n 40089: a2 = u64 [a3 + 0x8]\n 40092: a3 = u64 [a3]\n 40094: a0 = reverse a0\n 40096: u64 [s1 + 0x170] = a0\n 40100: a0 = reverse a1\n 40102: u64 [s1 + 0x168] = a0\n 40106: a0 = reverse a2\n 40108: u64 [s1 + 0x160] = a0\n 40112: a0 = reverse a3\n 40114: u64 [s1 + 0x158] = a0\n 40118: a0 = sp + 0xffffffffffffffe0\n 40121: a0 = a0 & 0xffffffffffffffe0\n 40124: u64 [s1 + 0x180] = a0\n 40128: sp = a0\n 40130: a2 = s1 + 0x7ff\n 40134: a2 = a2 + 0x119\n 40138: a0 = u64 [s1 + 0x178]\n 40142: jump [t0]\n      : @1478 (gas: 19)\n 40144: a3 = u64 [s1 + 0x170]\n 40148: a0 = u64 [a3 + 0x18]\n 40151: a1 = u64 [a3 + 0x10]\n 40154: a2 = u64 [a3 + 0x8]\n 40157: a3 = u64 [a3]\n 40159: a0 = reverse a0\n 40161: u64 [s1 + 0x168] = a0\n 40165: a0 = reverse a1\n 40167: u64 [s1 + 0x160] = a0\n 40171: a0 = reverse a2\n 40173: u64 [s1 + 0x158] = a0\n 40177: a0 = reverse a3\n 40179: u64 [s1 + 0x150] = a0\n 40183: a0 = sp + 0xffffffffffffffe0\n 40186: a0 = a0 & 0xffffffffffffffe0\n 40189: u64 [s1 + 0x170] = a0\n 40193: sp = a0\n 40195: a0 = u64 [s1 + 0x180]\n 40199: jump [t0]\n      : @1479 (gas: 16)\n 40201: a3 = u64 [s1 + 0x190]\n 40205: a0 = u64 [a3 + 0x18]\n 40208: a1 = u64 [a3 + 0x10]\n 40211: a2 = u64 [a3 + 0x8]\n 40214: a3 = u64 [a3]\n 40216: a0 = reverse a0\n 40218: u64 [s1 + 0x190] = a0\n 40222: a0 = reverse a1\n 40224: u64 [s1 + 0x188] = a0\n 40228: a0 = reverse a2\n 40230: u64 [s1 + 0x180] = a0\n 40234: a0 = reverse a3\n 40236: u64 [s1 + 0x178] = a0\n 40240: a2 = s1 + 0x1918\n 40244: a0 = 0\n 40246: jump [t0]\n      : @1480 (gas: 8)\n 40248: a3 = a4 <u a3\n 40251: a5 = a2 + a3\n 40254: a2 = a5 <u a2\n 40257: a2 = a3 if a3 == 0\n 40260: a2 = a2 + a1\n 40263: a1 = a2 <u a1\n 40266: a0 = a0 + a1\n 40269: jump [t0]\n      : @1481 (gas: 16)\n 40271: t2 = u64 [s1 + 0x140]\n 40275: t1 = u64 [s1 + 0x138]\n 40279: u64 [s1 + 344] = 0\n 40283: u64 [s1 + 336] = 0\n 40287: a4 = s1 + 0x100\n 40291: a2 = u64 [a4 + 0x28]\n 40294: a1 = 0 if a2 == 0\n 40296: a0 = 0 if a2 == 0\n 40298: u64 [a4 + 0x48] = a0\n 40301: a3 = u64 [a4 + 0x30]\n 40304: a2 = a3 + 0xffffffffffffffff\n 40307: u64 [a4 + 0x28] = a2\n 40310: a2 = a3 >u 0\n 40312: a2 = a2 + 0xffffffffffffffff\n 40315: u64 [a4 + 0x20] = a2\n 40318: jump [t0]\n      : @1482 (gas: 15)\n 40320: a0 = u64 [a3 + 0x18]\n 40323: a1 = u64 [a3 + 0x10]\n 40326: a2 = u64 [a3 + 0x8]\n 40329: a3 = u64 [a3]\n 40331: a0 = reverse a0\n 40333: u64 [s1 + 0x188] = a0\n 40337: a0 = reverse a1\n 40339: u64 [s1 + 0x180] = a0\n 40343: a0 = reverse a2\n 40345: u64 [s1 + 0x178] = a0\n 40349: a0 = reverse a3\n 40351: u64 [s1 + 0x170] = a0\n 40355: a0 = sp + 0xffffffffffffffe0\n 40358: a0 = a0 & 0xffffffffffffffe0\n 40361: jump [t0]\n      : @1483 (gas: 15)\n 40363: a0 = u64 [a3 + 0x18]\n 40366: a1 = u64 [a3 + 0x10]\n 40369: a2 = u64 [a3 + 0x8]\n 40372: a3 = u64 [a3]\n 40374: a0 = reverse a0\n 40376: u64 [s1 + 0x178] = a0\n 40380: a0 = reverse a1\n 40382: u64 [s1 + 0x170] = a0\n 40386: a0 = reverse a2\n 40388: u64 [s1 + 0x168] = a0\n 40392: a0 = reverse a3\n 40394: u64 [s1 + 0x160] = a0\n 40398: a0 = sp + 0xffffffffffffffe0\n 40401: a0 = a0 & 0xffffffffffffffe0\n 40404: jump [t0]\n      : @1484 (gas: 18)\n 40406: a3 = u64 [s1 + 0xa8]\n 40410: a0 = u64 [a3 + 0x18]\n 40413: a1 = u64 [a3 + 0x10]\n 40416: a2 = u64 [a3 + 0x8]\n 40419: a3 = u64 [a3]\n 40421: a0 = reverse a0\n 40423: u64 [s1 + 0x90] = a0\n 40427: a0 = reverse a1\n 40429: u64 [s1 + 0x88] = a0\n 40433: a0 = reverse a2\n 40435: u64 [s1 + 0x80] = a0\n 40439: a0 = reverse a3\n 40441: u64 [s1 + 0x78] = a0\n 40444: a0 = sp + 0xffffffffffffffe0\n 40447: a0 = a0 & 0xffffffffffffffe0\n 40450: u64 [s1 + 0xa8] = a0\n 40454: sp = a0\n 40456: jump [t0]\n      : @1485 (gas: 14)\n 40458: a3 = u64 [s1 + 0x170]\n 40462: a0 = u64 [a3 + 0x18]\n 40465: a1 = u64 [a3 + 0x10]\n 40468: a2 = u64 [a3 + 0x8]\n 40471: a3 = u64 [a3]\n 40473: a0 = reverse a0\n 40475: u64 [s1 + 0x170] = a0\n 40479: a0 = reverse a1\n 40481: u64 [s1 + 0x168] = a0\n 40485: a0 = reverse a2\n 40487: u64 [s1 + 0x160] = a0\n 40491: a0 = reverse a3\n 40493: u64 [s1 + 0x158] = a0\n 40497: jump [t0]\n      : @1486 (gas: 17)\n 40499: a4 = s1 + 0x100\n 40503: a2 = u64 [a4 + 0x80]\n 40507: a0 = u64 [a2 + 0x8]\n 40510: a1 = i32 [a2 + 0x10]\n 40513: a2 = u64 [a2]\n 40515: a0 = reverse a0\n 40517: a3 = a0 << 0x20\n 40520: a1 = reverse a1\n 40522: a1 = a1 >> 0x20\n 40525: a3 = a3 | a1\n 40528: a0 = a0 >> 0x20\n 40531: a1 = reverse a2\n 40533: a2 = a1 << 0x20\n 40536: a0 = a0 | a2\n 40539: a1 = a1 >> 0x20\n 40542: a2 = u64 [a4 + 0x98]\n 40546: jump [t0]\n      : @1487 (gas: 16)\n 40548: a3 = u64 [s1 + 0x190]\n 40552: a0 = u64 [a3 + 0x18]\n 40555: a1 = u64 [a3 + 0x10]\n 40558: a2 = u64 [a3 + 0x8]\n 40561: a3 = u64 [a3]\n 40563: a0 = reverse a0\n 40565: a4 = reverse a1\n 40567: a2 = reverse a2\n 40569: a3 = reverse a3\n 40571: a1 = u64 [s1 + 0x198]\n 40575: u64 [a1 + 0x18] = a3\n 40578: u64 [a1 + 0x10] = a2\n 40581: u64 [a1 + 0x8] = a4\n 40584: u64 [a1] = a0\n 40586: a0 = 0x2000\n 40590: jump [t0]\n      : @1488 (gas: 9)\n 40592: a0 = u64 [a3 + 0x18]\n 40595: a1 = u64 [a3 + 0x10]\n 40598: a2 = u64 [a3 + 0x8]\n 40601: a3 = u64 [a3]\n 40603: a0 = reverse a0\n 40605: a1 = reverse a1\n 40607: a2 = reverse a2\n 40609: a3 = reverse a3\n 40611: jump [t0]\n      : @1489 (gas: 8)\n 40613: a0 = sp + 0xffffffffffffffe0\n 40616: a0 = a0 & 0xffffffffffffffe0\n 40619: u64 [s1 + 0x170] = a0\n 40623: sp = a0\n 40625: i32 a2 = a0 + 0\n 40627: a1 = 0x40\n 40630: a0 = u64 [s1 + 0x188]\n 40634: jump [t0]\n      : @1490 (gas: 9)\n 40636: u64 [a2 + 0x20] = a0\n 40639: a0 = u64 [s1 + 0x160]\n 40643: u64 [a2 + 0x18] = a0\n 40646: a0 = u64 [s1 + 0x168]\n 40650: u64 [a2 + 0x10] = a0\n 40653: a3 = a1\n 40655: a0 = 0x20\n 40658: a1 = s1 + 0x7ff\n 40662: jump [t0]\n      : @1491 (gas: 8)\n 40664: a0 = a0 | a2\n 40667: a2 = a3 | a1\n 40670: a2 = a2 | a0\n 40673: a2 = a2 >> 0x20\n 40676: a0 = a0 | a1\n 40679: a0 = a0 << 0x20\n 40682: a0 = a0 | a2\n 40685: jump [t0]\n      : @1492 (gas: 12)\n 40687: a4 = 0\n 40689: a5 = 0\n 40691: a2 = u64 [s1 + 0x128]\n 40695: a1 = 0 if a2 == 0\n 40697: a0 = 0 if a2 == 0\n 40699: a3 = u64 [s1 + 0x138]\n 40703: a2 = a3 + 0xffffffffffffffff\n 40706: u64 [s1 + 0x130] = a2\n 40710: a2 = a3 >u 0\n 40712: a2 = a2 + 0xffffffffffffffff\n 40715: u64 [s1 + 0x128] = a2\n 40719: jump [t0]\n      : @1493 (gas: 12)\n 40721: a2 = t2 >> 0x3f\n 40724: a3 = t1 << 0x1\n 40727: a2 = a2 | a3\n 40730: a3 = t2 << 0x1\n 40733: t2 = u64 [s1 + 0x168]\n 40737: a4 = t2 >> 0x3f\n 40740: a3 = a3 | a4\n 40743: u64 [s1 + 0x140] = a3\n 40747: ra = u64 [s1 + 0x120]\n 40751: a0 = t1\n 40753: t1 = ra ^ a2\n 40756: jump [t0]\n      : @1494 (gas: 12)\n 40758: a1 = a1 << 0x1\n 40761: a4 = u64 [s1 + 0x148]\n 40765: a3 = a4 >> 0x3f\n 40768: a1 = a1 | a3\n 40771: u64 [s1 + 0x138] = a1\n 40775: a3 = a0 >> 0x3f\n 40778: a0 = a4 << 0x1\n 40781: a3 = a3 | a0\n 40784: a0 = t2 << 0x1\n 40787: a4 = u64 [s1 + 0x160]\n 40791: a1 = a4 >> 0x3f\n 40794: jump [t0]\n      : @1495 (gas: 11)\n 40796: a2 = u64 [s1 + 0x128]\n 40800: a1 = a1 | a2\n 40803: a2 = u64 [s1 + 0x198]\n 40807: a3 = a2 <u 0x80\n 40811: u64 [s1 + 0x128] = a3\n 40815: a4 = u64 [s1 + 0x120]\n 40819: a1 = a4 if a3 == 0\n 40822: a4 = u64 [s1 + 0x138]\n 40826: a4 = a1 if a2 != 0\n 40829: u64 [s1 + 0x138] = a4\n 40833: jump [t0]\n      : @1496 (gas: 14)\n 40835: a0 = u64 [a3 + 0x18]\n 40838: a1 = u64 [a3 + 0x10]\n 40841: a2 = u64 [a3 + 0x8]\n 40844: a3 = u64 [a3]\n 40846: a0 = reverse a0\n 40848: a4 = reverse a1\n 40850: a2 = reverse a2\n 40852: a3 = reverse a3\n 40854: a1 = u64 [s1 + 0x170]\n 40858: u64 [a1 + 0x18] = a3\n 40861: u64 [a1 + 0x10] = a2\n 40864: u64 [a1 + 0x8] = a4\n 40867: u64 [a1] = a0\n 40869: jump [t0]\n      : @1497 (gas: 14)\n 40871: a0 = u64 [a3 + 0x18]\n 40874: a1 = u64 [a3 + 0x10]\n 40877: a2 = u64 [a3 + 0x8]\n 40880: a3 = u64 [a3]\n 40882: a0 = reverse a0\n 40884: a4 = reverse a1\n 40886: a2 = reverse a2\n 40888: a3 = reverse a3\n 40890: a1 = u64 [s1 + 0x180]\n 40894: u64 [a1 + 0x18] = a3\n 40897: u64 [a1 + 0x10] = a2\n 40900: u64 [a1 + 0x8] = a4\n 40903: u64 [a1] = a0\n 40905: jump [t0]\n      : @1498 (gas: 15)\n 40907: a3 = u64 [s1 + 0x90]\n 40911: a0 = u64 [a3 + 0x18]\n 40914: a1 = u64 [a3 + 0x10]\n 40917: a2 = u64 [a3 + 0x8]\n 40920: a3 = u64 [a3]\n 40922: a0 = reverse a0\n 40924: a4 = reverse a1\n 40926: a2 = reverse a2\n 40928: a3 = reverse a3\n 40930: a1 = u64 [s1 + 0xa8]\n 40934: u64 [a1 + 0x18] = a3\n 40937: u64 [a1 + 0x10] = a2\n 40940: u64 [a1 + 0x8] = a4\n 40943: u64 [a1] = a0\n 40945: jump [t0]\n      : @1499 (gas: 9)\n 40947: a5 = s1 + 0x100\n 40951: u64 [a5 + 0x98] = a1\n 40955: u64 [a5 + 0x90] = a3\n 40959: a0 = a3 | a1\n 40962: u64 [a5 + 0x78] = a2\n 40965: u64 [a5 + 0x88] = a4\n 40969: a1 = a4 | a2\n 40972: a0 = a0 | a1\n 40975: jump [t0]\n      : @1500 (gas: 9)\n 40977: u64 [s1 + 0x160] = a3\n 40981: a1 = 0 if a4 == 0\n 40983: u64 [s1 + 0x168] = a1\n 40987: u64 [s1 + 312] = 0x15180\n 40994: a0 = u64 [s1 + 0x190]\n 40998: a2 = a0 + 0xffffffffffffff80\n 41001: a0 = a5\n 41003: a1 = t1\n 41005: jump [t0]\n      : @1501 (gas: 10)\n 41007: u64 [s1] = a3\n 41009: u64 [s1 + 0x8] = a2\n 41012: u64 [s1 + 0x10] = a1\n 41015: u64 [s1 + 0x18] = a0\n 41018: sp = s0 + 0xffffffffffffffc0\n 41021: ra = u64 [sp + 0x38]\n 41024: s0 = u64 [sp + 0x30]\n 41027: s1 = u64 [sp + 0x28]\n 41030: sp = sp + 0x40\n 41033: jump [t0]\n      : @1502 (gas: 10)\n 41035: a0 = u64 [a3 + 0x18]\n 41038: a1 = u64 [a3 + 0x10]\n 41041: a2 = u64 [a3 + 0x8]\n 41044: a3 = u64 [a3]\n 41046: a0 = reverse a0\n 41048: a1 = reverse a1\n 41050: a2 = reverse a2\n 41052: a3 = reverse a3\n 41054: a4 = s1 + 0x2918\n 41058: jump [t0]\n      : @1503 (gas: 10)\n 41060: a0 = u64 [a3 + 0x18]\n 41063: a1 = u64 [a3 + 0x10]\n 41066: a2 = u64 [a3 + 0x8]\n 41069: a3 = u64 [a3]\n 41071: a0 = reverse a0\n 41073: a1 = reverse a1\n 41075: a2 = reverse a2\n 41077: a3 = reverse a3\n 41079: a4 = s1 + 0x2118\n 41083: jump [t0]\n      : @1504 (gas: 8)\n 41085: a0 = sp + 0xffffffffffffffe0\n 41088: a0 = a0 & 0xffffffffffffffe0\n 41091: u64 [s1 + 0xa8] = a0\n 41095: sp = a0\n 41097: i32 a2 = a0 + 0\n 41099: a1 = 0x40\n 41102: a0 = u64 [s1 + 0xb8]\n 41106: jump [t0]\n      : @1505 (gas: 8)\n 41108: a3 = u64 [s1 + 0x150]\n 41112: a0 = a0 - a3\n 41115: a3 = u64 [s1 + 0x188]\n 41119: a4 = u64 [s1 + 0x160]\n 41123: a3 = a4 - a3\n 41126: a4 = s1 + 0x2118\n 41130: a5 = a4 + 0x700\n 41134: jump [t0]\n      : @1506 (gas: 9)\n 41136: a0 = a0 | a1\n 41139: a1 = u64 [s1 + 0x148]\n 41143: a0 = a1 if a3 == 0\n 41146: a1 = u64 [s1 + 0x140]\n 41150: a1 = a0 if a2 != 0\n 41153: u64 [s1 + 0x140] = a1\n 41157: a0 = u64 [s1 + 0x158]\n 41161: a1 = u64 [s1 + 0x150]\n 41165: jump [t0]\n      : @1507 (gas: 16)\n 41167: a4 = u64 [a3]\n 41169: u64 [sp + 0x18] = a4\n 41172: a4 = u64 [a3 + 0x8]\n 41175: u64 [sp + 0x20] = a4\n 41178: a4 = u64 [a3 + 0x10]\n 41181: u64 [sp + 0x28] = a4\n 41184: a3 = u64 [a3 + 0x18]\n 41187: u64 [sp + 0x30] = a3\n 41190: s1 = u64 [a2]\n 41192: a3 = u64 [a2 + 0x8]\n 41195: u64 [sp] = a3\n 41197: a3 = u64 [a2 + 0x10]\n 41200: u64 [sp + 0x8] = a3\n 41203: a2 = u64 [a2 + 0x18]\n 41206: u64 [sp + 0x10] = a2\n 41209: jump [t0]\n      : @1508 (gas: 10)\n 41211: a3 = u64 [s1 + 0x190]\n 41215: a0 = u64 [a3]\n 41217: a1 = u64 [a3 + 0x8]\n 41220: a2 = u64 [a3 + 0x10]\n 41223: a3 = u64 [a3 + 0x18]\n 41226: a0 = reverse a0\n 41228: a1 = reverse a1\n 41230: a2 = reverse a2\n 41232: a3 = reverse a3\n 41234: jump [t0]\n      : @1509 (gas: 4)\n 41236: a2 = a3 + a1\n 41239: a3 = a2 <u a3\n 41242: a3 = a1 if a1 == 0\n 41245: jump [t0]\n      : @1510 (gas: 4)\n 41247: a0 = u64 [s1 + 0x198]\n 41251: a0 = i32 [a0]\n 41253: a1 = 0x3f\n 41256: jump [t0]\n      : @1511 (gas: 7)\n 41258: u64 [s1 + 0x110] = a0\n 41262: u64 [s1 + 0x128] = a1\n 41266: a1 = u64 [s1 + 0x190]\n 41270: a2 = 0x80 - a1\n 41274: a0 = u64 [s1 + 0x150]\n 41278: a1 = u64 [s1 + 0x140]\n 41282: jump [t0]\n      : @1512 (gas: 8)\n 41284: a0 = u64 [a4 + 0x18]\n 41287: a1 = u64 [a4 + 0x20]\n 41290: a2 = u64 [a4 + 0x10]\n 41293: a3 = u64 [a4 + 0x8]\n 41296: a1 = a1 | a2\n 41299: a0 = a0 | a3\n 41302: a0 = a0 | a1\n 41305: jump [t0]\n      : @1513 (gas: 4)\n 41307: a0 = 0x2918\n 41311: a3 = s1 + a0\n 41314: a4 = a3 + 0x100\n 41318: jump [t0]\n      : @1514 (gas: 8)\n 41320: a0 = u64 [a4 + 0xd8]\n 41324: a1 = u64 [a4 + 0xe0]\n 41328: a2 = u64 [a4 + 0xd0]\n 41332: a3 = u64 [a4 + 0xc8]\n 41336: a1 = a1 | a2\n 41339: a0 = a0 | a3\n 41342: a0 = a0 | a1\n 41345: jump [t0]\n      : @1515 (gas: 8)\n 41347: a2 = u64 [s1 + 0x128]\n 41351: a1 = a1 | a2\n 41354: a3 = u64 [s1 + 0x190]\n 41358: a4 = a3 <u 0x80\n 41362: u64 [s1 + 0x128] = a4\n 41366: a2 = u64 [s1 + 0x118]\n 41370: a1 = a2 if a4 == 0\n 41373: jump [t0]\n      : @1516 (gas: 4)\n 41375: a2 = a0\n 41377: a0 = 0x4e487b7100000000\n 41387: a1 = 0x2000\n 41391: jump [t0]\n      : @1517 (gas: 9)\n 41393: a0 = a0 & 0xffffffffffffffff\n 41396: a1 = a1 & 0xffffffffffffffff\n 41399: a2 = a2 & 0xffffffffffffffff\n 41402: a4 = u64 [s1 + 0x70]\n 41405: a3 = a3 & a4\n 41408: a4 = u64 [s1 + 0x190]\n 41412: a3 = a3 | a4\n 41415: a4 = s1 + 0x2918\n 41419: jump [t0]\n      : @1518 (gas: 8)\n 41421: a0 = u64 [a4 + 0x98]\n 41425: a1 = u64 [a4 + 0xa0]\n 41429: a2 = u64 [a4 + 0x90]\n 41433: a3 = u64 [a4 + 0x88]\n 41437: a1 = a1 | a2\n 41440: a0 = a0 | a3\n 41443: a0 = a0 | a1\n 41446: jump [t0]\n      : @1519 (gas: 12)\n 41448: a0 = u64 [sp + 0x18]\n 41451: a1 = u64 [sp + 0x10]\n 41454: a2 = u64 [sp + 0x8]\n 41457: a3 = u64 [sp]\n 41459: a4 = a2 | a0\n 41462: a5 = a3 | a1\n 41465: a5 = a5 | a4\n 41468: a5 = a5 >> 0x20\n 41471: a4 = a4 | a1\n 41474: a4 = a4 << 0x20\n 41477: a4 = a4 | a5\n 41480: jump [t0]\n      : @1520 (gas: 9)\n 41482: a0 = u64 [a3 + 0x18]\n 41485: a1 = u64 [a3 + 0x10]\n 41488: a2 = u64 [a3 + 0x8]\n 41491: a3 = u64 [a3]\n 41493: a0 = reverse a0\n 41495: a4 = reverse a1\n 41497: a2 = reverse a2\n 41499: a3 = reverse a3\n 41501: jump [t0]\n      : @1521 (gas: 9)\n 41503: a0 = u64 [a3 + 0x18]\n 41506: a1 = u64 [a3 + 0x10]\n 41509: a2 = u64 [a3 + 0x8]\n 41512: a3 = u64 [a3]\n 41514: a5 = reverse a0\n 41516: a4 = reverse a1\n 41518: a0 = reverse a2\n 41520: a2 = reverse a3\n 41522: jump [t0]\n      : @1522 (gas: 5)\n 41524: a0 = sp + 0xffffffffffffffe0\n 41527: a0 = a0 & 0xffffffffffffffe0\n 41530: u64 [s1 + 0x198] = a0\n 41534: sp = a0\n 41536: jump [t0]\n      : @1523 (gas: 5)\n 41538: a0 = sp + 0xffffffffffffffe0\n 41541: a0 = a0 & 0xffffffffffffffe0\n 41544: u64 [s1 + 0x178] = a0\n 41548: sp = a0\n 41550: jump [t0]\n      : @1524 (gas: 8)\n 41552: a0 = sp + 0xffffffffffffffe0\n 41555: a0 = a0 & 0xffffffffffffffe0\n 41558: u64 [s1 + 0x168] = a0\n 41562: sp = a0\n 41564: i32 a2 = a0 + 0\n 41566: a1 = 0x40\n 41569: a0 = u64 [s1 + 0x188]\n 41573: jump [t0]\n      : @1525 (gas: 8)\n 41575: a0 = u64 [s1 + 0x198]\n 41579: a2 = u64 [s1 + 0x128]\n 41583: a0 = a0 | a2\n 41586: a2 = u64 [s1 + 0x110]\n 41590: a0 = a2 if a4 == 0\n 41593: t1 = u64 [s1 + 0x140]\n 41597: a3 = t1\n 41599: jump [t0]\n      : @1526 (gas: 7)\n 41601: a4 = 0x100000000\n 41611: a0 = 0xffffffe0\n 41621: a0 = a1 <u a0\n 41624: a2 = u64 [a5 + 0x90]\n 41628: a0 = 0 if a2 != 0\n 41630: a0 = 0 if a3 != 0\n 41632: jump [t0]\n      : @1527 (gas: 7)\n 41634: a0 = reverse a1\n 41636: u64 [s1 + 0x170] = a0\n 41640: a0 = reverse a2\n 41642: u64 [s1 + 0x168] = a0\n 41646: a0 = reverse a3\n 41648: u64 [s1 + 0x160] = a0\n 41652: jump [t0]\n      : @1528 (gas: 6)\n 41654: u64 [s1 + 0x128] = a1\n 41658: a1 = u64 [s1 + 0x198]\n 41662: a2 = 0x80 - a1\n 41666: a0 = u64 [s1 + 0x158]\n 41670: a1 = u64 [s1 + 0x150]\n 41674: jump [t0]\n      : @1529 (gas: 7)\n 41676: u64 [s1 + 0x130] = a0\n 41680: u64 [s1 + 0x128] = a1\n 41684: a0 = u64 [s1 + 0x160]\n 41688: a2 = a0 + 0xffffffffffffff80\n 41691: a0 = u64 [s1 + 0x140]\n 41695: a1 = u64 [s1 + 0x138]\n 41699: jump [t0]\n      : @1530 (gas: 8)\n 41701: u64 [sp + 48] = 0\n 41704: u64 [sp + 40] = 0\n 41707: u64 [sp + 32] = 0\n 41710: a0 = 0x4e487b7100000000\n 41720: a1 = sp + 0x20\n 41723: u64 [sp + 0x38] = a0\n 41726: a0 = 0\n 41728: jump [t0]\n      : @1531 (gas: 9)\n 41730: a0 = u64 [a2 + 0x8]\n 41733: a1 = i32 [a2 + 0x10]\n 41736: a2 = u64 [a2]\n 41738: a0 = reverse a0\n 41740: a3 = a0 << 0x20\n 41743: a1 = reverse a1\n 41745: a1 = a1 >> 0x20\n 41748: a1 = a1 | a3\n 41751: jump [t0]\n      : @1532 (gas: 4)\n 41753: a0 = u64 [s1 + 0x198]\n 41757: a0 = i32 [a0]\n 41759: a1 = 0x23\n 41762: jump [t0]\n      : @1533 (gas: 4)\n 41764: a0 = 0x40\n 41767: a1 = u64 [s1 + 0x198]\n 41771: u32 [a1] = a0\n 41773: jump [t0]\n      : @1534 (gas: 10)\n 41775: sp = sp + 0xffffffffffffffc0\n 41778: u64 [sp + 0x38] = ra\n 41781: u64 [sp + 0x30] = s0\n 41784: u64 [sp + 0x28] = s1\n 41787: s0 = sp + 0x40\n 41790: sp = sp & 0xffffffffffffffe0\n 41793: s1 = a0\n 41795: i32 a0 = sp + 0\n 41797: a1 = 0x4\n 41800: jump [t0]\n      : @1535 (gas: 6)\n 41802: sp = s0 + 0xffffffffffffffa0\n 41805: ra = u64 [sp + 0x58]\n 41808: s0 = u64 [sp + 0x50]\n 41811: s1 = u64 [sp + 0x48]\n 41814: sp = sp + 0x60\n 41817: jump [t0]\n      : @1536 (gas: 6)\n 41819: u64 [s1 + 0x148] = a0\n 41823: u64 [s1 + 0x120] = a1\n 41827: a0 = u64 [s1 + 0x140]\n 41831: a1 = u64 [s1 + 0x138]\n 41835: a2 = u64 [s1 + 0x198]\n 41839: jump [t0]\n      : @1537 (gas: 6)\n 41841: u64 [s1 + 0x148] = a0\n 41845: u64 [s1 + 0x168] = a1\n 41849: a0 = u64 [s1 + 0x158]\n 41853: a1 = u64 [s1 + 0x150]\n 41857: a2 = u64 [s1 + 0x160]\n 41861: jump [t0]\n      : @1538 (gas: 8)\n 41863: a0 = sp + 0xffffffffffffffe0\n 41866: a0 = a0 & 0xffffffffffffffe0\n 41869: u64 [s1 + 0x90] = a0\n 41873: sp = a0\n 41875: i32 a2 = a0 + 0\n 41877: a1 = 0x40\n 41880: a0 = u64 [s1 + 0xb8]\n 41884: jump [t0]\n      : @1539 (gas: 5)\n 41886: a0 = sp + 0xffffffffffffffe0\n 41889: a2 = a0 & 0xffffffffffffffe0\n 41892: u64 [s1 + 0x198] = a2\n 41896: sp = a2\n 41898: jump [t0]\n      : @1540 (gas: 5)\n 41900: a0 = sp + 0xffffffffffffffe0\n 41903: a2 = a0 & 0xffffffffffffffe0\n 41906: u64 [s1 + 0x190] = a2\n 41910: sp = a2\n 41912: jump [t0]\n      : @1541 (gas: 6)\n 41914: a3 = u64 [s1 + 0x190]\n 41918: ra = u64 [s1 + 0x180]\n 41922: a2 = a3 | ra\n 41925: a2 = a2 <u 0x1\n 41928: a4 = u64 [s1 + 0x170]\n 41932: jump [t0]\n      : @1542 (gas: 4)\n 41934: a0 = u64 [s1 + 0x198]\n 41938: a1 = 0x40\n 41941: u32 [a0] = a1\n 41943: jump [t0]\n      : @1543 (gas: 4)\n 41945: a0 = 0x2118\n 41949: a3 = s1 + a0\n 41952: a4 = a3 + 0x600\n 41956: jump [t0]\n      : @1544 (gas: 4)\n 41958: a0 = 0x2918\n 41962: a3 = s1 + a0\n 41965: a4 = a3 + 0x300\n 41969: jump [t0]\n      : @1545 (gas: 4)\n 41971: a0 = 0x2918\n 41975: a3 = s1 + a0\n 41978: a4 = a3 + 0x200\n 41982: jump [t0]\n      : @1546 (gas: 4)\n 41984: a0 = u64 [s1 + 0x158]\n 41988: a1 = s1 + 0x7ff\n 41992: a1 = a1 + 0x119\n 41996: jump [t0]\n      : @1547 (gas: 6)\n 41998: u64 [s1 + 0x160] = a0\n 42002: u64 [s1 + 0x198] = a1\n 42006: a0 = u64 [s1 + 0x150]\n 42010: a1 = u64 [s1 + 0x140]\n 42014: a2 = u64 [s1 + 0x168]\n 42018: jump [t0]\n      : @1548 (gas: 9)\n 42020: sp = sp + 0xffffffffffffffc0\n 42023: u64 [sp + 0x38] = ra\n 42026: u64 [sp + 0x30] = s0\n 42029: u64 [sp + 0x28] = s1\n 42032: s0 = sp + 0x40\n 42035: sp = sp & 0xffffffffffffffe0\n 42038: s1 = a0\n 42040: i32 a0 = sp + 0\n 42042: jump [t0]\n      : @1549 (gas: 10)\n 42044: a4 = s1 + 0x100\n 42048: u64 [a4 + 0x70] = a1\n 42051: a1 = u64 [a4 + 0x90]\n 42055: a2 = u64 [a4 + 0x88]\n 42059: a2 = a2 | a1\n 42062: a1 = u64 [a4 + 0x98]\n 42066: a3 = u64 [a4 + 0x80]\n 42070: a1 = a1 | a3\n 42073: a1 = a1 | a2\n 42076: jump [t0]\n      : @1550 (gas: 6)\n 42078: u64 [s1 + 0x118] = a0\n 42082: u64 [s1 + 0x110] = a1\n 42086: a2 = u64 [s1 + 0x168]\n 42090: a0 = a2 <u 0x80\n 42094: u64 [s1 + 0x138] = a0\n 42098: jump [t0]\n      : @1551 (gas: 5)\n 42100: a0 = a2 ^ 0xff\n 42104: a0 = a0 | t1\n 42107: a1 = a3 | ra\n 42110: a0 = a0 | a1\n 42113: jump [t0]\n      : @1552 (gas: 2)\n 42115: a3 = a2 & 0x40\n 42118: jump @1556 if a3 != 0\n      : @1553 (gas: 1)\n 42121: jump @1555 if a2 == 0\n      : @1554 (gas: 6)\n 42124: i32 a3 = 0x40 - a2\n 42127: a3 = a1 << a3\n 42130: a1 = a1 >> a2\n 42133: a0 = a0 >> a2\n 42136: a0 = a0 | a3\n 42139: ret\n      : @1555 (gas: 1)\n 42141: ret\n      : @1556 (gas: 4)\n 42143: a0 = a2 + 0xffffffffffffffc0\n 42146: a0 = a1 >> a0\n 42149: a1 = 0\n 42151: ret\n      : @1557 (gas: 2)\n 42153: a3 = a2 & 0x40\n 42156: jump @1561 if a3 != 0\n      : @1558 (gas: 1)\n 42159: jump @1560 if a2 == 0\n      : @1559 (gas: 6)\n 42162: i32 a3 = 0x40 - a2\n 42165: a3 = a0 >> a3\n 42168: a0 = a0 << a2\n 42171: a1 = a1 << a2\n 42174: a1 = a1 | a3\n 42177: ret\n      : @1560 (gas: 1)\n 42179: ret\n      : @1561 (gas: 4)\n 42181: a1 = a2 + 0xffffffffffffffc0\n 42184: a1 = a0 << a1\n 42187: a0 = 0\n 42189: ret\n","bytecode":{"object":"50564d000082c2000000000000010700c1c001c0008003816cf40443b2a766a42db9815a1e2efa877e5c0519ec4fe51c83c442ba392fca77e2116ca4777b81d4ea98e10c16c565173f400507b7679bbdc6b249bd00a16076687a96c0a237ac310730ce86cab6918a9cee1f20395b3b80e1e34a4eb67d08a74e0dc354af37bd04b03f2522518a6d9314cf35a01b6f25119782e62a75888f78d1b417406592b5dbd6886d772784123ca0859bbddc544b79277c562e79691cb8290000e8890423c78affffe7890423c78a00001876fbdc3875975752f4e33b24c3dceff4c6a46dc4173eb68630b623f1b6b5ef1d0584397d33527c373f8a8f13d8dec2e4708e54ca59a13610a1f529f1946a422bba3c51695be6d8186647f5847091063f7d0def110bff283e79b8ad5546d505d5764c8d017f00001876fbdc38750000e8890423c78af2a8b439f25bd8ebdf119a7090238fa225717e85c68e190f0982ba0d5cabfde394247a18b5e26bbe1d817609543b3c0451c960f58acf6b97ba06c2c9ba61c0412000000004811b11000000000400000012000000200000002e0000003400000041000000530000005e0000006d000000700000007d0000008d0000009d000000a8000000ba000000c500000063616c6c63616c6c5f646174615f636f707963616c6c5f646174615f6c6f616463616c6c5f646174615f73697a6563616c6c65726465706f7369745f6576656e746765745f696d6d757461626c655f646174616765745f73746f72616765686173685f6b656363616b5f3235366e6f777265665f74696d655f6c65667472657475726e5f646174615f636f707972657475726e5f646174615f73697a657365616c5f72657475726e7365745f696d6d757461626c655f646174617365745f73746f7261676576616c75655f7472616e73666572726564051302c0b19a0463616c6cc0ba9a066465706c6f7906c0c5bf832b02c0cfa4da00220266031c04b104b9048b05930592069706180723073e078f079a0704082d0841086d088208c108e6087c098209ba093a0a400a460a520a690a830ae10a030ba40b510c5e0ccf0cdb0cf90c320d460d500dd70ddd0de30d360e500e460f600f7d0f9f0f33104d106b10b710311237123d12491260127e129f12a512c212df1232133d134713c413de13f013f71331143e1459148f14a514b0143a15491570157b159815bb15c215ef150d16141621164c1605171217bd17d317de17401877187e18a4184c1a571a741a981a9f1acf1aed1af41a011b391b8b1b8b1c921c991cb71cbe1ccd1c251d2c1d681d941db01db91dec1d101e4c1e681e711e911ec11edf1ef01efa1e261f551f731f851f901f9a1fb21f0d203a2064207c209620b820be20de20fb20432163217c21f821132224222a22632270228522bb22d022da22382364238923b624bc24c224df24e524f32444254a2550255c2571259d25ba25c025de252c269626ca26fd26232764277927e427fb273a288928d628e4281e2924292a294c29f8291c2a8f2abc2af02a0e2b502bc92bfb2b412cae2c1c2d802d862d8c2dac2dde2d462e5a2e862e8c2ea62eac2eb22eb82eec2ef22edb2f47304d306e309930c630233129314d317931b331c431ce31ed31733279329a32c632e432f132f7321b3321332b333d335b336c337633c333fc333b34413465349134af34b634d134fd343935573564356a358e3594359e35b035ce35df35e935f7351c36b936ee365d378137a73707381b388a38eb3800390a39ea39c03a583bd63b023c083c223c283c2e3c343c683c6e3c573dab3d303e8c3e063f3c3f6d3fd53f35407e400a417541bf410a421f42294249426d42a442d142014337439c43bd43d743f943074432448844e0442a457745a5451846fc479048a448db48fc4861497a49db491e4a2c4aa24a174b294b394bc14bea4b164c444cad4cc44ccf4d0d4e564f9c4fb44fda4f4350c55038515351795104521e5249526652a152ae52e05225533a534453615384538a53ba53c053c953e25306542454465453545c54b8542a55a955335648565256dc56e95668578e57b657dc575b58dc58115924594859f7592c5a3f5a485ad35a185bf15b1c5c325c455c4e5c6e5c915cc25cc85c495d4f5d555d9c5da95dc45dda5ded5df65d985e9e5ea45ee45e1b5f4f5fbf5ffa5f08602360476062608e609860b860c160e16009612a61346168619f61bd61ce61d861fc6106622b621f6329632f6335633b634163476369636f6395639b63a163a763b163b763bd63c763cd63d363d963ec6332649d64ab64c664ea64166520654065496569658165a465d165ff65336639664266526663666d6691669b66c0661867226742674b676b6771677a678a67bc67dc67116817682068306882689b68cb682d69376954695d697d699b69a869ae69ce69016a1f6a2c6a326a3b6a5d6a726ac66acc6ad26a216b476b656b7d6baa6bb46bd66bf86b2a6c506cb76ccc6cd66cf36c166d1c6d226d2b6d3b6d426d626d7b6d9f6de76dfc6d066e7b6e916ecd6ed76eef6ef86e146f326f3f6f456f616f8f6fad6fbe6fc86fd76ff76f2e70667070708970a170ee70297161711872227228722e7234723a724072627268728e7294729a72a072aa72b072b672c072c672cc72d272e5722b738873cd73e273ec737a749674cd7404756c759875b075eb75f5751776d5761b7735775277747705781f783d7889786b7a9d7ab77acb7aec7af67a1c7bad7bdf7be57bee7bf47b017c077c3a7c7a7c807c897c8f7ca07caa7cd67c1b7d557d8d7dab7db17dba7dc07dcd7dd37df37d247e2a7e337e397e467e4c7e6c7e997e9f7ea87eae7ebf7ec97ed37e4c7f7c7fa27ff37fc080ec80f280fb800b811c8126815c8197819d81a681b681c781d181fe818982ea827683a383c183ce83d4830184078411842484428449847684ab84b184e584038514851e853c85c38529867786a386038709872b8746874c875c8762876b8786878c8799879f87a887bd872d8835883c8854887888408977899189b589e38afa8a138b318bb08bc68be08b238c9d8dbc8d018e078e318e5e8e788e858e8b8e968ed68ef58e0f8f588f8a8fa48fb18fb78fd88f05901f902c9032903d906a90ab90d690f4900e916f91cd91df91d392fd924c939393dd9312942c945594f394209574958295ce955596979656977997d697dd97f597199832995c99af99f699349a8c9aba9ac49aaa876e978a2098aa20977b2098bb20c89b0bc9ba0a979b019abbaeab20ae873751094ec87909647a017c8b95880195ac0178ab64caab9cf42836510934c87909647a017c8b95880195ac0178ab64caab9cf4281c51091a839aff01c8a80b7cbb9599ffc8a70c78cb83aaff5209f032009511e87b10107b15087b163306680102390568010251051c3307a00103837783680a060139076801022003680102ac5710821010821508821695111832000039086801025108b0073307a0010383770a0e28a3079511f07b10087b156489647533082064975010026e057c78017c797c7a027c7b03978808d4980897aa1097bb18d4ba0ad4a8087c79057c7a047c7b067c7c07979908d4a90997bb1097cc18d4cb0bd4b909979920d489027c79097c7a087c7b0a7c7c0b979908d4a90997bb1097cc18d4cb0bd4b9097c7a0d7c7b0c7c7c0e7c780f97aa08d4ba0a97cc10978818d4c808d4a808978820d498037c78117c7a107c7b127c7c13978808d4a80897bb1097cc18d4cb0bd4b8087c7a157c7b147c7c167c791797aa08d4ba0a97cc10979918d4c909d4a909979920d4890a7c78197c79187c7b1a7c7c1b978808d4980897bb1097cc18d4cb0bd4b8087c791d7c7b1c7c7c1e7c771f979908d4b90997cc10977718d4c707d49707977720d487076f776fa86f396f2a7b5a187b59107b58087b57821008821595111032009511d87b10207b15187b161082897b19088289087b1982851082861833082050100426046f686f59821a6faa821b086fbb787b18787a10787908787898bc38787c1f98bc30787c1e98bc28787c1d98bc20787c1c98bc18787c1b98bc10787c1a98bb08787b1998ab38787b1798ab30787b1698ab28787b1598ab20787b1498ab18787b1398ab10787b1298aa08787a11989a38787a0f989a30787a0e989a28787a0d989a20787a0c989a18787a0b989a10787a0a98990878790998893878790798893078790698892878790598892078790498891878790398891078790298880878780182102082151882161095112832009511a07b10587b15507b16489515608411e06476828718828910828a0882886f776f996faa6f887b18187b1a107b19087b17491138491130491128491120481140208318831a20831b403309ff33070a07821738821830821928821a206f776f886f996faa7b6a187b69107b68087b67501206ea9f0032009511a07b10587b15509515608411e08272827a08827b108277188283828908828c108288186f746fbb6faa6f276f826fcc6f996f387b17187b1a107b1b087b147b18387b19307b1c287b12208318831a203309ff330b2033070a0f9551a08210588215509511603200951160ff7b1098007b1590007b1688009515a0008411e082ab7b1b3882ab087b1b3082ab107b1b2882aa187b1a20829a7b1a18829a087b1a10829a107b1a088299187b1964865010082c0282186f888219086f99821a106faa821b186fbb7b1b587b1a507b19487b18408218206f888219286f99821a306faa821b386fbb7b1b787b1a707b19687b18608379836a8317403308020a05955160ff8210980082159000821688009511a0003200951120ff7b10d8007b15d0007b16c8009515e0008411e082bc7b1c4082bc087b1c4882bc107b1c5082bb187b1b5850120a249c007b183850100c8f016f687b187882186f887b18708218086f887b18688218106f887b18608218186f887b1898008218206f887b1890008218286f887b1888008218306f887b1880008218406f887b18b8008218486f887b18b0008218506f887b18a8008218586f887b18a0008379811a388317603308030a05955120ff8210d8008215d0008216c8009511e00032009511e0fe7b1018017b1510017b160801951520018411e082c67b166082c6087b166882c6107b167082cc187b1c7882bc7b1c3882bc087b1c4082bc107b1c4882bb187b1b5050120e4a9b007b1858501010b5006f687b18980082186f887b1890008218086f887b1888008218106f887b1880008218186f887b18b8008218206f887b18b0008218286f887b18a8008218306f887b18a0008218386f887b18d8008218406f887b18d0008218486f887b18c8008218506f887b18c0008218606f887b18f8008218686f887b18f0008218706f887b18e8008218786f887b18e0008379811a58831780003308040a059551e0fe8210180182151001821608019511200132008b7910520931c8780883881f8488e05638000001253309700102390a700102ae8a093d087001020133088001028377c887073200009511f07b10087b158475010a03013d076c010251050750101209501014f001951100ff7b10f8007b15f0007b16e800951500018411e04921d8004921d0004921c8004921c0008317c0000a10018217d0008218d8008219c800821ac000d49808d4a707d487075207e10039066c010297672098772095771f8477e09578a000d878077b18a0007b17a80094777b17b0003307409518a0004921b800501016ebfa3307a000646850101825ff8377646833090a010154161fa000951780003308a00050101a8bf9821790008219980014080000000001000000d37808d49808987a2088aa01949a938a510a7982188000821a8800d4780bd49a0cd4cb0b510b727b18607b1a687b1770330780009518607b197850101c74fa95174033084050101e2ff9821758821850821948821640d49707d48609d47909989920d48707977720d49707510769003308800102838833070128b1003308800102838833070128a400330880010283883307012897004911104911084901140700000000c8f5bc1464187b17183307501020fff9390870010256181f0b20037001022001330880010283883307013309040a0d01646733085010221bfe8377330833090a019517203308800050102488f8821738821930821a28821b203e07b801033e09b001033e0aa801033e0ba00103284ef864673308501026dbfd8378330733093300280a0d280a33093300280a0d01951110fe7b10e8017b15e0017b16d8019515f001951190d28411e06416956918214929a005492998054929880580003307409568a0264929900550102a42f933076c01027b67980139076c010255170407281362956700208377c006330833002c0a0201956918218197c4055247871cb2880a28061451476cd3238f1a015247346662990a28ee1f5247e1ac83b60a283c0f5147b00de3d0f60b52475f53cc0e0a28fc1b514786e72a228d0451474d7d1a2edf085247f50796370a28de165247b836cc480a28fe195147aef7914a0a28fc23956718294927c0014927b8014927b0014927a801956700308377c0fa33002e0a1033023028e39700501230df970082b7b80082b8c00082b9b00082baa800d49808d4a707d48707510706287d4d8267980181775617030728814d956780103308405010320ff7956aff0795aa190195ac000782cb800082c87882c97082c768d49b0bd48709d4b909989920d4b808978820d49808510806282f4d3a08a00002492a6007492a58077ba8480795686010492a50077b6798013300180128eff7956718294927200249271802492710024927080295670030837720fb3300340a1033023628bd9900501236b9990050123804970051070628f44c50123acd9800ac780628f94c95670030837740fb33080433003c0a020195671829957c000282c84082c93882ca3082cb2850123e76950052070628d94c33078001037b67700183777b6740010a048269700182970881981082996f77977a206f88988820d48a0a9877206f98978920d497079888209569181149298002959b00027bb8787bb770956880137bba68330750104022f7956718114927600249275802492750026479330720956860134929480250104200f79517e08477e07b67800164713309700102390770010256173f0b200370010240017b6938019517e08479e07b69680164913307800102837783993308407b6748010a08826a680182a71882a81082a90882aa6f776f8c6f996fa2826b80017bb2187bb9107bbc087bb7951be084b8e06481957b02d87b07c87c0ad8ca0cda770cc89c0cd89c07c827077b8c107b8a087b8b7b8718956740137b68680150104451f795671811827340028274380282723002827a280282679801d3730bd8730c82687801d884077b675801dab70c82679001d37200d87207826988017b6a6001d89a097b695001da09076480d38408d4b808da870c510c0628b34bc9040882699801c99309826a5801c9a909d8780ac9a909c9780882679001c97207826a5001c9a707826a6001826b8801c9ba0a956b182995bc00027bca487bc7507bc8587bc9609568602b826768015010461cf7956720138268800150104897f695691811959b000282b71082b8088292200282ba18826b9001c87b0b826c8801c88c0cd88c08c88b0bd37b09d87b07da980782687801c8a80882699801c89202d8a809c82909c88707d88708c8980895691829959a00027bac687bab707ba7787ba880009568802b8267800150104a9ef69567001333084050104ceef3956b181182b7000295bc000182c8f80082c9f00082cae80050124ee59100510706281e4a8267880195b900017b97c800826790017b97d000826778017b97d8009568e012826798017b97e00064a77b6a9801501050d1f4826740013300520a048269700133025428418e0082697001501254398e00d4780298aa206f99979820d4a8089899203a0a800002956718117b7ac0013a0a8800023a0b9000023a0c9800027b7ab801957a00017babb0004927a0017baca8007ba998007ba890003308209569c012956aa0127b72880182679801330044012821f64929a006492998064929900649298806956700208377a0073300560a103302582806960050125802960050125af09300510706280b4a82679801817756170307280f4a956700208377c0070a0995671821957900068298c000956a00017ba8588298b8007ba8508298b0007ba898008297a8007ba790009567e00333084050105c93f2956b000382b7f80082b8f00082b9e80082bae00050125e8e900051070628c7487b6a1801826350016837957740826058016809da0709826490016847957740826298016828da270895878000d4030adaa709d8870c94ac8ecb8897f000857a01daca0b88b7019577ff9ab89accc9ac0a9a99ef007b6878018e8c8e78da7c088eac7b69680188990001859901dbac09dbb809d43408d4020bd4b808888801d49808644b948b51080628a04e826868018588ff0082697801d49808d47a09d4980852080628854e826b680195b9017b698801889801c8a8087b688001d49808888801826a7801c8a8087b687001d8a808c887077b6778019ab8ff007b6840019a89800082679001826898015010604395007b6738017b6848018267500182685801826940015010624f95007b6730017b6828018267400195798082679001826898015010643295007b6720017b68100182694001889780007b6708018267900182689801501066109500956b00017bb86082b8800082b978d4890982b8880082ba70d4a808d4980882ba0893a77bb76852080628a24d64a98267480182682801d4870764ac82681001da980782695801649a649882694001db970a7b6a480182673801826a3001d4a707826a2001daca07826b500164badb970a7b6a40018267600193c77b676001492630018051018267880195798064b75010685694007b6738017b68200182679001826898018269880150106a3c94007b6710017b682801826888019a898000826750018268580150106c44940082692801d4980882698801889a80007b6a2801826b2001daab08826b9801db980b7b6b980182681001d4870782683801daa80782689001db97087b689001826750018268580150106ed2930082649001826398014926580149265001956b000182b928939893977bb73882ba3095a9ff7bb9288ea99599ff7bb9200198493f973a01d4a909974a0182644801984b3fd4ba0a7b6a9801826020016437d39003d89002826b2801d8ab0cdb320c978801826b380198ba3fd4a8087b689001987a3f97b701d47a0a974701826b400198b83fd4870297b801826b600198b33fd4380397b801826b680198b43fd4480897bb0182675801d47b0b7b6b680182675001d478087b686001d437087b684001d427077b674801c9a007d8c707d8a008826c9001c9c00bc98b0bc97b0b99b03f82673001d2700782689801c97804d87808c989039498c98a077b673801d88a08c98c0895670001827a8800827c8000d4ca09889901827b70d89b02c99b0988ab01c9bc0c827b78c92b0b95aaff7b7c80007b7b78d4bc027b7a8800d49a0bd42b0a840b017b7b587b797049265001520ae1fe28654b4929e0064929d8064929d0064929c806956700208377e0073300700a1033027228ac9100501272a89100501274318f0051070628d345501276d69000ac780628d84595670030837700f83308043300780a02019567182182780007957c000682c9f80082caf00082cbe80050127a7b8d0052070628b44533078001037b67800183777b67680133007c0a0433027e288d890050127e89890049265805956900057b98507b9748956840057b9a4033075020800042ef49263805492630054926280533072095682005492620055020820025ef9517e08477e07b67700164713309700102390770010256173f0b200370010240017b6940019517e08479e07b69600164913307800102837783993308407b674801330084000a08826a60013302860028558c00826a6001502286004d8c009567000550208800afef826318058264100582620805826a000582679801d3730bd8730c82687801d884077b675801dab70c82679001d37200d87207826988017b6a6001d89a097b695001da09076480d38408d4b808da870c510c0628e144c9040882699801c99309826a5801c9a909d8780ac9a909c9780882679001c9720750228a00d78c007bca087bc7107bc8187bc920956820288267700150208c0090ef8267680133008e000a043302900028478a0050229000438a007b69d80482b9787b69d00482b990007b69c80482b988007b69c0044926f8047b68f0047b67e8049567e0049568c0047b6ae00450209200ef83009567a004330840502094008cec956b000482b7b80082b8b00082b9a80082baa00050229600868a0051070628be42826788017b678004826790017b678804826778017b67900495688004826798017b67980464a77b6a98015020980075ed8267680133009a000a048269800133029c0028e286008269800150229c00da8600d4780298aa206f99979820d4a808989920492658043a0af800023a0b0001023a0c0801023a071001027b6a7804956a00047bab707bac687ba7607ba9507ba84833082095696004956a40047b624004826798013300440128caee82679801817756170307288d43956718294927e0054927d8054927d0054927c805956700308377e0fe33009e000a1001956a182995ab00055022a000268c0052070628664333078001037b67800183777b6758013300a2000a04826980013302a400287c8600826980015022a40074860049298005959b00057bb8787bb770956880267bba6833075020a6006cec95671821492760054927580549275005647933072095686026492948055020a80049ec5022aa00798c003309700102390770010233083fac78152003700102407b6950013302ac0028cc8d007b6950015022ac00c48d003307800102837783993308407b6760013300ae000a083302b000285b88005022b00057880083774006c867075020b200d5ec95671821957900058298407b6870018298387b6890018298287b6868018297307b6788015022b400fd8b0095671829492700064927f8054927f0054927e80595670030837700ff0a100195671829957a000582a9f00082a8e8008272000682abf800826c8801c89c0c82676801c87803d88308c88c0cd39c0ad89c09daa80982689001c8b80882607001c80202d8b80ac82a0ac88909d88908c88a04826a8801d3ca08d8ac0bd87307db8b07826a9001d8a902d3400bd80408dab208d39a0ad4ba0adba807826878017b837b8c087b89107b8418510706280342826798015020b60069ec956720263308405020b800b8e995671821957900058298207b6890018298187b6888018298107b6878018297087b679801956718294927200649271806492710064927080695670030837720ff0a1001956a000182a7900082a878d4870782a89800648c82a98800d49808d47808988820d49707977720d4870751070628983f956a182995ab000682b70882b81082b91882ba20956b18217bba000595ba00047ba9f8007ba8f000956800267ba7e80064c75020ba0047ea826758013300bc000a04826980013302be0028b48300826980015022be00ac8300d4780298aa206f99979820d4a8089899203a0a000002956718217b7ae0043a0a0800023a0b1000023a0c1800027b7ad804957a00047babd0004927c0047bacc8007ba9b8007ba8b0003308209569e025956ac0257b72a804826798015020c00097eb33078268600133090a0d28b65295671829492700044927f8034927f0034927e80395670030837700fd3300c2000a103302c40028738b005022c4006f8b0082b7f80082a8000482b9f00082bae800d49808d4a707d4870751070628cd405022c6007c8a00ac780628d14095670030837720fd3308040a0201956a182995a70004827820827918827b10d4890c88b70194c752070628b5407b6c980082ac080482679801807295c723d8c70ac8ab037b6bd800d8b30bdaaa0bc89b0b7b698801d89b097b689001c88909d4b909d827079437949752070628844083c80495670030837740fd7b6cd0000a0201956918298297400482923804829030047b67f000d472078808019478520806286140829328048268d000958724d887098264d800c8940ac837087b6880017b672001d8780bc80a07c8b707d3a70cd8a708dacb08d84a0ada990a82698801c89a0ad89a09826cf000826b9001c8cb0bc8b909c82a0bd8ab0ac8a909826a980180aac8b808d8b80bc8b909826b8001d8ba0a887b0185aa01db7b0a889701888b01db970bd49808db8b0a520a0628e53f9537fd7b63c000d83708c880099599ffd3090a7b60b000d8090bdaa80b9528ffc88b0bd88b087b62b800882a01c9ac0ac8a8088eba8e8cda8a0cd4b8088e9a887762857701db9a07db8c0751070628a53f33078001037b67e80083777b67c8003300c8000a048269e8003302ca0028a081008269e8005022ca0098810049292004959b00047bb8187bb710956820257bba0833075020cc0090e795681821492800044928f8034928e803026489330720956800254929f0035020ce006ce75022d0009c87003309700102390770010233083fac780a200370010240017b69a8001407ffffffff000000007b67e0005022d200e488003307800102837783993308407b67a0003300d4000a083302d600287b83005022d6007783008377e004c867075020d800f5e7956718218077c8038268e000ab870628063f9578017b6800018887017b67f800d487078877017b6708019567c024826898015020da00bde7956a182180a7ac0395ab000382b8b80097772082b9b00082bac000826b0801d4b808826b0001d4b707826bf800d4b909956b182995bc00047bca607bc9507bc7487bc8589568602d826798015020dc00e3e795670030837780fd0a09019567182982748004827a78047b6a50018273700482706804684768a8958940db470968376808958840db370895878000d44a0adaa709d8870c94ac8ecb8897f000857a01daca0b88b7019577ff9ab89accc9ac0a9a92ef007b6898018e8c8e78da7c08882c000185cc018ea9dba90cdbb80c7b644001d44308643482635001d43009d49808888801d4c8087b605801640b948b510806286e218528ff00826c9801d4c808d47a09d498085208062857219529017b699001889801c8a8087b688001d49808888801c8c8087b687001d8c808c887077b6778019a28ff007b6868019a8980008267580164487b6448015020de00ff87005022e0008387005020e2001788007b6730017b6828018267680195798082675801826848015020e400f987005022e600a7870082675801826848015020e800e38700826b380182627001826c780182698001d49c0c826a9001d42a0ad4ca0a93b77b678801510a0628dd1e330b28972095671829492700024927f8014927f0014927e80195670030837700fb3300ea000a103302ec00283a84005022ec0036840082b7f80082a8000282b9f00082bae800d49808d4a707d4870751070628213d8267980181775617630728253d956740123300ee0033029e0528cb850095681811828728017b679801828730017b679001808738017b677801956720123300f0003302a2052894860095671811827708017b678001956700123300f2003302a805287886003302f40095691811018297e800956a00017ba788004929e00082a7787b97d80082a790007b97d0009568e01182a798007b97c80033075020f60018e4956818114928c0004928b8004928a8000364893307209568c0114929b0005020f800f4e33308700102390770010256173f0b200370010240019517e08479e07b69780164913307800102837783997b6898013308407b6790013300fa000a0801826a780182a71882a81082a90882aa6f777b6778015022fc004184003302fe0095691811014929a00049299800492990009568a011826780017b97880033075020000173e382676001956818117b878000826768017b8778826770017b8770648a33072095688011826978017ba9685020020143e382689801818756173f08480840019517e08477e07b67800150220401457c330006010a08826a80013302080128be7e826a800150220801b77e7b67800164718267880197772098772095691811491960491958491950956860117b9748330750200a01dee282676001956818117b8740826768017b8738826770017b8730648a33072095684011826978017ba92850200c01afe282689801818755174008480840019517e08477e07b67980150220e01b17b330010010a08826a98013302120128268000826a9801502212011e800095672011502014015ce3956718118277087b679801956700113308405020160118e195671811827a957b00ff82b8f80082b9f00082b7e800d49a0ad48709d4a909989920d4a808978820d49808510806283a377c6a98019569ff07959919014929e0074929d8077b9ac8079568e0104929d0077b67980150201801f7e13308208267980133004a03282be64929400749293807492930074929280795670030837740f833001a010a1001956a182195ab000782b73882b84082b93082ba28d49808d4a707d4870751070628313a50221c01bc8200ac780628353a95670030837760f833080433001e010a020195671821957c000782c86082c95882ca5082cb4850222001637f52070628143a33078001037b67800183777b676801330022010a043302240128737b50222401707b4926b806956900067b98b0007b97a8009568a0067b9aa00033075020260126e149269806492690064926880633072095688006492680065020280109e19517e08477e07b67700164713309700102390770010256173f0b200370010240017b6940019517e08479e07b69600164913307800102837783993308407b67480133002a010a0801826a600182a782a80882a91082aa186f776f886f996faa95ab0250222c01db7b826870017b8b7b8c087b89107b87189567600650202e017ae1826378068264700682626806826a600682679801d3730bd8730c82687801d884077b675801dab70c82679001d37200d87207826988017b6a6001d89a097b695001da09076480d38408d4b808da870c510c06282439c9040882699801c99309826a5801c9a909d8780ac9a909c9780882679001c9720750223001a27e7bca687bc7707bc8787bc980009568802882677001502032015be182676801330034010a043302360128127c502236010f7c7b69380682b9787b69300682b990007b69280682b988007b692006492658067b6850067b67480695674006956820067b6a400650203801bc759567000633084050203a015ade956b000682b71882b81082b90882ba50223c01597c510706289234826788017b67e005826790017b67e805826778017b67f0059568e005826798017b67f80564a77b6a980150203e0149df82676801330040010a04826980013302420128b6788269800150224201af78d4780298aa206f99979820d4a8089899204926b8053a0ad800023a0be000023a0ce800023a07f000027b6ad805956a00057babd0007bacc8007ba7c0007ba9b0007ba8a8003308209569c005956aa0057b62a00582679801502044019fe033078268480133090a0d28be479567182949172049171849171049170895670030837720f9330046010a1001956a182982a71882a82082a91082aa08d49808d4a707d4870751070628b73750224801967fac780628bc3795670030837740f93308040a0201956a182982a74082a83882a930d48707889801947852080628a43782a7287b67200195670030837760f90a090195671829827460827a587b6a5001827250827048684768a8958940db470968276808958840db270895878000d44a0adaa709d8870c94ac8ecb8897f000857a01daca0b88b7019577ff9ab89accc9ac0a9a93ef007b6898018e8c8e78da7c08883c000185cc018ea9dba90cdbb80c7b6440017b625801d4420882645001d44009d49808888801d4c808640b948b5208c70b8538ff00826c9801d4c808d47a09d498085108b20b64029539017b699001889801c8a8087b688001d49808888801c8c8087b687001d8c808c887077b6778019a38ff007b6868019a89800064077b6248018268580150204a01d37f50224c01587f50204e01ed7f7b6730017b68280182676801957980826748018268580150205001d07f502252017f7f826748018268580150205401bc7f826b380182627001826c780182698001d49c0c826a9001d42a0ad4ca0a93b77b678801520a3e09330b28f70a492920064929180649291006492908069567002083772007330056010a103302580128987e50225801957e50225a01fa7b51070628173650225c01c37dac7806281c369567a00333005e0133029e0528c17d956a000382a7a00082a8a8008069b003492698037ba990007ba88800956880037ba7800033075020600167dc4926780349267003492668033307209568600349266003502062014adc50226401887c390870010256183f133308403d087001023302660128c97d50226601c67d3307800102837783993308400a08826a980182a71882a81082a90882aa6f7c7b6c88016f8b7b6b90016f997b6980016fa77b679801826878017b87187b89107b8b087b8c9567400350206801cadc826758037b677801826750037b677001826748037b676801826740037b6760018267880195770188780182699001c8980895691821959a00067ba830d478087ba72888870182688001c887077ba738d8870782689801c887077ba740956720039568402750206a0160dc826738037b675801826730037b675001826728037b674801826720037b67400182688801958702d88708826a900150226c01507a82688001c88a0ad88a08826b9801c8b808956b182195bc00067bc8607bca587bc9507bc748956700039568602750206e01f9db956c000382c7187b67380182c7107b67300182688801958703d88708826a900150227001f77982c8087b68880182688001c88a0ad88a08826b9801c8b80882cb7b6b8001956b182195bc00067bc880007bca787bc9707bc7689567e002956880275020720192db8267e0027b6728019567c0023308405020740151d995670002827bd800827cd000827ac8008279c000d4ba07d4c908d47808988820d4c707977720d4870751070628752f826760017b67a002826768017b67a802826770017b67b0029568a002826778017b67b80264977b6998017b6a90017b6b78017b6c70015020760120da956c000182c8980082c77882ca70d47a0a502278018c7a520706281c2f83872082684001956c00027bc88000826848017bc88800826850017bc8900095688002826958017bc998007b6a78017b6b700150207a01cad995690001829b78829a9000829898008297709577c0d8780794a794b752070628c12e83874082688001956a00027ba860826888017ba868826830017ba87095686002826938017ba97850207c017bd9956a000182a998001407a0ffffff00000000d8790782a89000948782a8789487520706286e2e8267280197772098782083976049265802492650027b684002956840024926480250207e012ed933088000826798015020800165dd837833098000330733004c030a0d28d234956718294927a002492798024927900249278802956700308377a0fb330082010a103302840128d87a50228401d57a50228601a978510706285f32826798018177561743072863329567e0163300880133029e0528e67995671811957900058298d8007b6868018298d0007b6898018297c8007b679001956700308377c0fb3308240a020195671829957c000282cbc00082cab80082c9b00082c8a800956c00017bc980007bcb70d4b9077bc88800d4a808d478089888207bca78d4a707977720d4870751070628f231956a000182a768977720987720956918114929c00582a89000959b00057bb8a80082a898007bb8b0009568c0167bb7b800330750208a010cd8956818114928a00549289805492888050164893307209568a0164929900550208c01e8d73308700102390770010256173f0b200370010240019517e08479e07b6968016491330780010283777b68980183993308407b6790010a08826a680182a71882a81082a90882aa6f777b6760016f877b6758016f977b6750016fa77b6748019517e08477e07b676801647133028e01956918110182677001959a00057ba78000826778017ba778826780017ba77095688016826788017ba76833075020900148d79568181182674801958900057b9760826750017b9758826758017b9750648a33072095686016826960017ba948055020920114d782689801818756173f08480840019517e08477e07b6788015022940116700a08826a880182a71882a81082a90882aa6f7c7b6cd8006f8b7b6be0006f997b69f0006fa77b67e800826868017b87187b89107b8b087b8c9567401650209601a6d795681811958900058297387b67c8008297307b67c0008297287b67d0009517e0847be07b6b880164b18268d8009588018887018269e000c87909d49807887701826cf000c87c0ad8ca07826ce800c8c7077b6780017bb7187b6a68017bba107b6970017bb9087b6878017bb8956720163308405020980101d595671811957900058298207b6810018298187b68f8008298107b6800018298087b680801956700168268880150209a01fbd6956a181182a7000595ac000482c8f80082c9f00082cbe8007b6760017bc7c0007b6830017bc8b8007b6928017bc9b0009567e0159568c0157b6b88017bcba80050209c01825b826af800956b000182b81082b70882b9d48909d4a708d49808988820d4a909979920d4980851080628b12a956c181182c2e00482c3d80495ca000482a8d00082a9c8007b6940017ba988007b6850017ba890007b6348017bc398049568a0157b6258017bc2a00450209e0156d5826bf80082680801958720826c880184c901826a1001d4ba0a7b6738015209c80c1409e0ffffff00000000d8980982680001948994a952090628332a7b6ab80084c900ff956a18118268280195ab00047bb8107bb908826830017bb81895682015826960017bb9205020a001e8d4956c18113304330349269001956a000182a74882a840d4870782a85882a950d49808d487078e779777057ba7980028e81a5147b327d0610a283d2f956718294927e0014927d8014927d0014927c801956700308377e0fa3300a2010a103302a40128de735022a401db735022a601e27351070628672f82679801817756170307286b2f9567c0103308405020a8011ed39567ff0795771901957900078298c0007b6898018298b8007b6890018298b0007b6880018297a8007b6788015020aa0198d2956b000182b7980082b88000d4870782b88800648a82b99000d49808d47808988820d49707977720d48707510706280e293a09a001033a08a801033807b00103956bff0795bb1901492ba00795bc00077bc798007bc890009568a0107bc9880064a75020ac01bed33308208267880133004a0328f2d75022ae01137482626801db270a7b6a98018267600182693001d4970782691801dab907826c500164cadb270a5022b00191715020b201fd757b6730017b6818018267480182685801826990015020b401e3755022b60184725020b801fd755022ba01d17282695801dba8097b69580182681001d4870782683001dab80782684801dba70864a97b68480182675001826840015020bc019d755022be0103708263580182644801017b6b580198493f973a01d49a02974a01826b980198bb3fd4ba0a7b6a48018269280164847b625001d329086430d82903826b3001d8ab02db8302974801987a3fd4a8087b684001980a3f977701d47a0a82679801977701826b600198b83fd4870097b801826b680198b33fd4380397b801826b880198b43fd4480897bb0182675801d47b0b7b6b8801d4c8087b686801d43c087b686001d40c077b679801c9a907d82707d8a90882624001c9290bc98b0bc97b0b99bc3f82673801d2c70782684801c97804d8780882675001c987039478c98a07d88a08c982085022c001e573d89b02c99b0988ab01c9b000826b7801c92b0b95aaff7b6080017b6b7801d4b0027b6a9001d49a0bd42b0a84cb017b697001330c520aecfe82678801977701d47b0b0184b7ff82682001aa780628972b33078001037b67500183777b6748013300c2010a043302c40128a96a5022c401a66a49292004959b00047bb8187bb7109568ff07958821057bba0833075020c60196d19567ff0795771901492700044927f8034927f00364793307209568ff07958801054929e8035020c8016bd19517e08477e07b67280164713308700102390770010256173f112003700102403302ca0128e1725022ca01de723307800102837783997b6888013308407b6790010a08826a980182a71882a81082a90882aa6f7c6f8b6f986fa9826728017b6980017b79187b6898017b78107b6b78017b7b087b6c70017b7c826748013300cc010a043302ce0128cd695022ce01ca694929e003959b00037bb8d8007bb7d0009568ff079588e1047bbac80033075020d001b7d09568ff07958819014928c0034928b8034928a8030264893307209568ff079588c1044929b0035020d2018bd082688801818756173f0848084001140800000000ffffffff7b6830011407ffffffff000000007b6740019517e08477e07b6768015022d40171693300d6010a08826a68013302d801288a6e826a68015022d801836e7bba80007bb9787bb8707bb7689567ff079577a104956880295020da0109d14926100149261801330b9567ff079577190180778803956a00017ba73882a87095880188870182a978c897077ba8087ba7d4870788770182a89800c887077b67f800d8870782a88000c887077b67f000330a0101330893b882673801d8a7073309dab7093307db78095209b405492678017b6a9801826748013300dc010a043302de01287d685022de017a6849298003959b00037bb8787bb7709568ff07958881047bba6833075020e0016acf9567ff0795771901492760034927580349275003647a3307209568ff0795886104492a4803015020e2013ecf82688801818756173f08480840019517e08477e07b6780015022e40140683300e6010a083302e80128a1695022e8019e69959a00037ba7407ba7387ba7309568ff0795884104826798017ba72833075020ea01e9ce5022ec01e570958900035022ee01976b95882104826970017ba908035020f001c7ce82688801818756173f08480840019517e08477e07b6770015022f201c9673300f4010a08826a70013302f60128276b826a70015022f601206b826b80017bba187bb9107bb8087bb7957b02d87b07c8780cd88c08da7708c89808d89807c8a707956918297b9b88007b9c90007b9898007b97a0009567ff07957701049568a0295020f80133cf9567ff07957719018277f0028477ff005107178268400101330b82679801957701d2870a285afe9567ff079577e103826880015020fa01face9569ff0795991901959a000282a7d00082a8d80082a9c8008477ff8488ff826b3001d2b909d49808d487075107af826748013300fc010a043302fe0128b5665022fe01b2664929c002959b00027bb8b8007bb7b0009568ff079588c1037bbaa8003307502000029fcd9567ff07957719014927a0024927980249279002647a3307209568ff079588a103492a8802035020020273cd82688801818756173f08480840019517e08477e07b678001502204027566330006020a0801826a800182a71882a81082a90882aa6f777b67800150220802d76d9569ff07959919014929800249297802492970029568ff0795888103826720017b976802330750200a0207cd826760019568ff0795881901958900027b9760826768017b9758826770017b9750648a3307209568ff0795886103826980017ba9480250200c02cbcc82688801818756173f08480840019517e08477e07b67800150220e02cd65330010020a0833021202282e67502212022b67959a00027ba7407ba7387ba7309568ff0795884103826798017ba72833075020140276cc50221602726e9589000250221802246995882103826970017ba9080250201a0254cc82688801818756173f08480840019517e08477e07b67780150221c02566533001e020a08826a78013302200228cb69826a780150222002c4699567ff079577010350202202ffcc9567ff07957719018277e8018477015207d0fd9567ff079577e1028268280150202402dacc956aff0795aa190195ab000182b7e00082b8d80082b9d00082a2c8013a0ba800028e7c8e8adb7c0ad82b0b8e9cda9b0cd4780bdbba0c520c1995690001829710957701829840d287077b97102873fd3a0ab00002c82a0ad82a0bc8b90c95ccffd39c02d89c09da2b09958bffc8b909d8b90b888801c98707c8b707956818297b8aa8007b8cb0007b89b8007b87c0009568c0298267280150202602b5cc9517e08478e07b68780164818267f0007b87188267f8007b8710826700017b8708826708017b879567ff079577c1025020280208cc9567ff07957719018277a8013a08a000029569ff07959919018299c001956aff0795aa190182aab001956bff0795bb190182bbb801c87808d87807c87a0cd8ac0ada770ac8ba0ad8ba07c89707956918297b98c8007b9cd0007b9ad8007b97e0009568e0298267780150202a0211cc8267180195770182684001d287077b6718019567ff079577a1028268800150202c0275cb9567ff0795771901827788018477fe007b6778019567ff07957781028268800150202e024fcb9567ff0795771901827768019568ff0795881901828870019569ff079599190182997801956aff0795aa190182aa8001847700ff826b7801d4b707957701956b18297bba00017bb9f8007bb8f0007bb7e8009568002a826780015020300267cb28cffb9567ff079577610233084050203202afc89569ff07959919018292600195970001827c58827b50827a48d42b07d4ca08d47808988820d4c707977720d4870751070628ce1e8267180182684001d287074929400149293801492930019568ff07958841027b97280164a77b6a98017b6b88017b6278017b6c8001502034027ac9956b000182b9980082b7800082b878d487071408e0ffffff00000000d8890882ba880094a8947852080628661e8267100182684001d27808839720956aff0795aa1901492a2001492a18017ba808019568ff0795882102492a10015020360219c982674801330038020a048269500133023a022886628269500150223a027f62d4780298aa206f99979820d4a8039899203a0ab800023a0bc000023a0cc80002826720019568ff07958819017b87a8007b8a00017b8bf8007b8cf0003a0ad000024928c0004928b8004928b0007b8ae8007b89d8007b83d0007b82c80064873308409569ff0795990102956aff0795aae101956bff0795bbc1014927e000826798013300600428edca7b6ab800d8870782680001c878097b692801d88908da7708c8b8087b682001d8b8077b6788019567181182687801957a00047ba868826870017ba870826868017ba87895688015826980017ba98000330750203c021ac89517e08477e07b673001647182699801819756171f08480920018267100182688801c887077b6718019517e08477e07b67880164718379330820826790010a08492698013304330349269001826a880182a71882a81082a90882aa6f776f8b6f9c6fa982683001649a7b89187b6c60017b8c1064b07b8b0864797b8701956b00017bba687b6070017bb97882b74082b99800d8790782b950d3940ad89409daa70982b748d8730282ba5882bc9000d3ac0bd8ac0adab20ad37307d4b707da790a510a830d956760157b6388017b64800150203e0236c882609801826480018263880182683801c80807d88708826b2801c84b09c88909d3b90ad8b90bdaa80b826a2001c83a08d8a802826c1801826a9001c8ac0cc82c0ac88b0bd88b08c8a808d49808d4b709d48909d4b808989920978820d4980851080628f81b956c181182c9600482c8580482ca500482cb48047bcb280495cb00047bba307bb838956840157bb9407b60980150204002acc6826c780195cc0188c701826a7001c87a0ad4ac0788770182686001c87804d8840882676801c8870782689801958320d8830982688001c89802d8820bda990b82688801c88b0bd88b0982689001c898087b68900164a0826830017b8a0864c97b8c7b8410647a7b87187b6460017b639801642464b3289afe50224202976682626801db270a7b6a98018267600182693001d4970782691801dab907826c500164cadb270a5022440215645020460281687b6730017b68180182675801826848018269900150204802676850224a02086550204c02816850224e02556582694801dba8097b69480182681001d4870782683001dab80782685801dba70864a97b68580182675001826840015020500221685022520287628263480182645801017b6b580198493f973a01d49a02974a01826b980198bb3fd4ba0a7b6a48018269280164847b625001d329086430d82903826b3001d8ab02db8302974801987a3fd4a8087b684001980a3f977701d47a0a82679801977701826b600198b83fd4870097b801826b680198b33fd4380397b801826b880198b43fd4480897bb0182675801d47b0b7b6b8801d4c8087b686801d43c087b686001d40c077b679801c9a907d82707d8a90882624001c9290bc98b0bc97b0b99bc3f82673801d2c70782684801c97804d8780882675001c987039478c98a07d88a08c98208502254026966d89b02c99b0988ab01c9b000826b7801c92b0b95aaff7b6080017b6b7801d4b0027b6a9001d49a0bd42b0a84cb017b697001330c520aecfe82678801977701d47b0b017b6b70019567a024330840502056021fc3956218218223a00395270003827c9800827a9000827b88008e378ec8db37088ea788b960ff859901dba709d43c077b677801db780951090628391e95b7a000d8b708c88a097b6a9801826a9801d8a90ada880ac8ca0ad8ca087b6b9001c8830b7b2768037b2970037b2a7803330740956880247b2b80037b6c80017b63880150205802d4c3956c000182c9900082ca8000d4a90782c8980082cb8800d4b808d48707987720d4a808978820d4870751070628be18956a1821492a60038267000195ab00037bb7488267f8007bb75095686024826708017bb758649750205a0278c38267c8000a040195690001829b90001407e0ffffff00000000d87b0782989800948782987894875207062864188269e80082970881981082996f77977a206f88988820d48a0a9877206f98978920d4790998882083b720956b1821492b400395bc00037bc8387bc930956840247bca287b67380150205c02fec28267f000956a18217ba700038267b80095ab00027bb7f8008267b0007bb7f00095672024956800248269c0007bb9e80050205e02435895671821957900038298087b6858018298107b6850018298187b6848018298207b6840019567e023330840502060025dc195671821827ae0027b6a88018278d8027b688001827cd0027b6c6801827bc8027b6b6001826940017b79a002826948017b799802826950017b799002826958017b798802957900027b9ac0007b98b8007b9cb00064799567c0239568a0237b9ba80250206202a9489569000182986882978800d48707829860648c829b8000d4b808d47808988820d4b707977720d48707510706281917956718218268c000957900027b98688268b0007b98708268b8007b987895688023826bf0007b9b800064c750206402cfc182678801826a8001d4a707140be0ffffff00000000826c6001d8bc08826968019498947852080628be16816720017b6788008268c00083877b67900083c7207b6b580150206602cbc5837782689000826988000a0101826b68018262c00082676001c87202d872088269b000c8b909c88909d3b90ad8b90bdaa80b8268b80082678001c87808d8780a826c88018267f000c87c0cc8ca0ac88b0bd88b08c8a808d4b80882675801d8720a949a948a520a0628341683272095691821492960024929580249295002956860234929480250206802fac0140a00000000010000001407c0ffffff00000000956b000182b89000d8780782b99800949782b978949752070628e315838740956818217b6a5801648a8268600195ab00027bb828826868017bb830826880017bb83895684023826988017bb9407b67880150206a028fc0956b000182b97882ba980082b8900082b7589577a0d8780794a79497520706288615838760956b1821492b2002492b1802492b100295682023826970017bb908027b677850206c0245c0956a000182a89000140780ffffff00000000d8780782a99800949782a97894975207062838158387800095691821492900024929f8014929f001956800234929e8017b672850206e02fabf8267c800330070020a048269e8003302720228cc598269e80050227202c5594929e001959b00017bb8d8007bb7d0009568e0227bbac800330750207402bbbf956818214928c0014928b8014928a8010164893307209568c0224929b0015020760297bf8268a800818756173f0848084001140700000000ffffffff7b67709517e08477e07b679801647183793308408267a000330078020a0801826a980182a71882a81082a90882aa6f777b6780016f877b6778016f977b6770016fa77b67680150227a02695f956918214929a00182670801959a00017ba798008267f8007ba790009568a022826700017ba78800330750207c0203bf956b000182b76895681821958900017b97800082b7707b977882b7787b9770648a3307209568802282b980007ba9680150207e02cdbe8268a800818756173f08480840019517e08477e07b678001647183793308408267a0000a08826a800182a71882a81082a90882aa6f7c7b6c506f8b7b6b586f987b68686fa77b6760826998017b97187b98107b9b087b9c9567602282689001502080022ebd95671821827748018268e000d287077b67900195674022826898015020820239bf956a182195ab000182b73082b83882b94082ba2850228402e05d95bc00047bc9a0007bc898007bc790007bca88009568a02d826798015020860275bf956720228268380150208802c3bc95671821957900018298187b6890018298107b6880018298087b687801956700228268980150208a02c4be95681821828700018088e800826c780198c920826b800197ba20d4a90998ba20826b900197bb20d4ba0a97cb20d4b808956b182995bc00047bcab8007bc9b0007bc7c0007bc8a8009568c02d8267980150208c02e6be9517e08478e06481826950959901889701826a58c87a0ad4a907887701826c68c87c0bd8cb07826c60c8c7077b6748017b87187b6b38017b8b107b6a40017b8a087b68407b6950017b899567e0218268880150208e02eabb95671821827ae000827bd8008279d0008278c800956c00017bc9307bca28d4a907d4b809d479099899207bcb20d4b707977720d497075107062801129567c0217b68180150209002a0bb95691821829bc000829ab8008298b0008eb78eacdbb70c7b68488e877b6a387b6b30d4ba0a7b67107b6c187b6a1001dbac075107062865188297a8007b6780009567a021826840502092027fbd956b182182b9880082b7900082b8980082baa0007bba607bb8587bb75095678021956860217bb948502094021e4295671821827a8000827b78827c708279688ea78eb8dba7088ec77b6978018899208599017b6c8001dbc7097b6a88017b6b9001d4ab07db7809826780008877207b67205109670695671821956a000182a8507b782882a8407b783082a8387b78389568402182a9487b7940330750209602ecbb8267a800817756171f0c8268a800480820019517e08477e07b676801647183793308208267a0000a088267800095781fd87807826c48c87c09d8c90ada770a826b38c8ba0a7b6a600197aa3b989b05d4ab0b8267680182721897993b827710988805d489096f246f7782682094c8826a100194a8948b9489c89402d84209c8970cc8cb0b7b6b9801d37b0cd87b0adac90a7b6a58018269780195901fd8900b826a8001c8ba09d8a90cdabb0c82639001c8c303973b3b989a05d4ba0a97993b980b05d4b909c849097b697801d8490b6424c8b709c8a909d3790a7b697001d87909daab09826b6001826738d87b07826a30c8a70798ba05977b3bd4ba0a826b680182b282bb08987705948a94876fb86f2bc8b707c88a0ad88a0cc8c70782605801c8a000d8a00ac8a70282679001d87307826a8801c8a707983a05977c3bd4ca0a987705c8b707956c000182cb9800c88a0ad88a08c88707c8a9097bc968d8a908c887077bc7609517e08473e064317b6358010182677801d8740782697001d39b08d89b09da8709826c6801d8c007826a6001d3a208d8a20ada870ad3c007d48707da790a7b6490017b347b6b98017b3b087b6080017b30107b6288017b3218510a7704956718294927e0044927d8044927d0044927c8049568e02d64375020980272bb8263580182649001954401884701826b9801c87b0bd4b40788770182688001c88707d8870882628801c8820264702862ff956c18110182689801958720d88708c88409d8490ada880ac83a0ad83a08826b9001c88b0b826808017bc8e8037bc7c803826700017bc7f0038267f8007bc7f8037bc9d003826710017bc700047bcad803956700159568e0147bcbe00350209a02ee3f8268d800958702d88708826ae00050229c0276588268f000c88a0ad88a08826be800c8b808956b182995bc00027bc8e0007bcad8007bc9d0007bc7c8009567c0149568e02b50209e021bba956818118287b0037b6778018287a8037b6770019567a0143308405020a002ceb7956b181182b2a00395b80003828a9800828c900082878800d42c09d4a708d49808988820d4a909979920d498085208f10d8268d0009788207b6a8801988a20492b8003492b7803492b7003956880147bba68037b6798017b6280017b6c90015020a202a3b8956c000182c8980082c7880082c98000d4970a5022a4020d595107a00d1402ffffffff000000008269d0009899207b6b6001826bc0007b6a680197ba20d4a90998ba20826cc80097cb20d4ba0a98cb2084aaff8499ffd22b0b838720956c1811492c60037bcb58037bc94803956860147bca50035020a60229b8956a000182a8980082a7609577c0d8780782a99000949782a96894975107230d83874095691811492940034929380349292803a00095684014492930035020a802e6b795672014826808015020aa029eb6956c000182ca6882c89800140b0000000001000000140760ffffff00000000d8780782c99000949794a75107c40c956718117b6b6001647b8272200382731803827c1003827908038387a0007b6958017bb9e8027b6c40017bbcf0027b6350017bb3f802956800147b6248017bb200035020ac0262b7956b000182ba900082b9980082b760957740ffd8790794a782b868948751075b0c1407e0ffffff0000000082680801d878078268000194878268b800948751073a0c82685801826c5001d4c8078262480182634001d4230bd4b707987720d4cb0b97bb20d4b7075207110c8397c0005020ae0232bb7b67680182673801826858015020b00220bb647882676801826958015020b202cdb48268580182679801c88707d88709826b400182689001c8b808c89808d3b80ad8b80bdaa90b82698001826a4801c8a909826a8801826c5001c8ca0ac8ab0bd8ca0cd8ab0ac8c909c8a909d4b909140a40ffffff000000007b6a9001d8a70a948a949a510a7f0b8377c000956918114929e0024929d8024929d0029568e0134929c8025020b40243b682679801837760956918114929c0024929b802826870017b98a8029568c0134929b0025020b6021ab67c6778018e788267980183778000956918114929a002492998027b9888029568a013492990025020b802eeb58267580195771f1408e0ffffff01000000d2870782689001ae87ec0a8378c0007b689001826798015020ba0205ba83783307826990010a0d01826720857701826848826910db890782681882691001db980751075702826780008477e07b6710019567181982685001957900077b98e800826840017b98f000826838017b98f8009568002195671821826948017b7933075020bc0257b59517e08477e07b677001647133082033075020be0285b99518e08488e07b6868016481837783893308200a084926980120330c49269001492688014926780149268001826a680182a71882a81082a90882aa6f736f846f903309826b78016fa7330a6472826870017b87187b6050017b80107b84087b83017b626801826710017b6b7801d87b07857b017b6a580194ab017b69600182678001d49707947b018268180182679801c87808826a3001c8ca0a8269200182679001c879098267280164c0826c8801c8c707520b7601826b9801d8b80bc8ba0ad30a027b603801d80a0cda2b0cc89c0cd89c02826b9001d8b909c89707c82707d4c809d4a707d47909989920d4c707977720d497077b6348017b644001520759099567a01e5020c002fbb2956a181995ab000582b7a00082b8980082b9900082ba8800956b18297bb7000595b700047b78f8007b79f0007b7ae8009568002e826770015020c20261b58263480195330188370182644001c87404d4430788770182685001c87800d8800882676801c88707826898019589207b696801d8890a82683801c8a8097b694801d8890bdaaa0b82689001c8b80ad88a0b82688801c8b8087b68880182687801958b20d88b0c82695801c8c908d89809dacc09826c6001c8c909d8c90c82628001c8c2027b628001826c70017bc4087bc37bc01064727bc7187b605001826768017b679801826c48017b6a9001648a2869fe82678000826838d48707826848826930d49808d487075207b7014926400149263801492648014926500128fd018264900182639801826b8000826c1001d3cb0b826c38d4cb02826c48826b30d4bc0cd4c20b510b3201d8380bc8ba0ad30a02d80a0cda2b0cc89c0cd89c0bd84909c89707c8b707d4c809d4a707d47909989920d4c707977720d497075207d2079567e0205020c40274b195671819957900078298e0007b6890018298d8007b6888018298d0007b6880018297c8007b6778018267800097773b9878387b6898019a8980003307ff3308ff5020c60213557b6768017b6850013307ff3308ff826998015020c802d5547b6758017b68600182675001d487077b675001826798019579803307ff3308ff5020ca02af54826b980188b98000826a5001db9a08826c5801826a6801d4ca0ada970a93b8ff93baff826b6001939b939c82677801e0a70782698001e0890882698801e0c909826a9001e0ba0a956b182995bc00057bca207bc9187bc8107bc7089568202e826770015020cc022bb382693898973f826830978801d48707826a4898a83f979901d49808826b800098b93f97aa01d4a90997ba0195aa01956b182995bc00057bca287bc9307bc8387bc7403307402e286f01956a000182a72882a820d487071408e0ffffff0000000082a918d8890882a9309498947851086a0682671801837820956720215020ce0205b095671821827820956900017b98508278187b98488278107b98388277087b97400182694898973f826a3897a801d487077b67900198a73f826830978801d487077b678801826a800098a73f979801d487077b67800197a7017b67780197a8037b6898018d8980003307ff3308ff5020d00277537b6758017b687001826780008a79033307ff3308ff5020d20236537b6768017b68600182685801d487077b675801826798018379803307ff3308ff5020d4021053826b980188b98000826a5801db9a07826c6001826a7001d4ca0ada980a93b7ff93baff939c826b6801939b82683801e0a80882694001e0790782694801e0b909826a5001e0ca0a956c000182cb78d4b70782cb8000d4b80882cb8800d4ba0a82cb9000d4b909956b182995bc00057bc9587bca607bc8507bc7483307602e01c876088267405020d6026ab19517e0847ce064c1826850958702d88708826a585022d802fc4e826868c88a0ad88a08826b60c8b8087b6c98017bca107bc9087bc77bc8189567c0208268785020da0281ae956718198277a8078477ff7b6790019567a020826898015020dc0290b095691819959a000782a7a00082a8980082a99000956a1829826b900195ac00057bcb687bc780007bc8787bc9709568802e826798015020de02cdb0956780208268285020e0021cae956a181995ab000782b7800082b87082b97882ba68d48707d4a909d497078e777b67900195676020826898015020e20216b0956a181995ab000782b75082b84882b96082ba58847700ff826b9001d4b707956b182995bc00057bc9a0007bca98007bc888007bc790009568a02e826798015020e40249b08267c8003300e6020a048269e8003302e802288d478269e8005022e802864749294007959b00077bb8387bb730956840207bba2833075020ea02a3ae95671819492720074927180749271007647933072095682020492908075020ec0280ae5022ee02b04e8269a800819756173f08480940019517e08477e07b679001647183793308408267a0003300f0020a083302f20228444d5022f202414d95ab035022f4027549826898017b8b7b8c087b89107b8718956700205020f60214af956718198277e8069577018268e000d287077b6790019567e01f826898015020f802f0ae956a181995ab000682b7d00082b8d80082b9e00082bac8005022fa02934d95bc00057bc9c0007bc8b8007bc7b0007bcaa8009568c02e826798015020fc0228af9567c01f3308405020fe0277ac330200039569181901959c000682cac00082cbb80082c8b00082c7a800956c00017bc898007bca8800d48a0ad4b708d4a8089888207bcb9000d4ba0a97aa20d4a808520885024929a00649299806492990069568a01f49298806207b678001502002034cad956a000182a7880082a89000d47808140700000000010000007ba7781407e0ffffff0000000082a98000d8790782a9980094977ba870948751072a0282678001837720956918198268c000959b00067bb8688268b0007bb8708268b8007bb8789568801f826af0007bba800050200403daac826778019577dc8268d000d878078268d80094878268980094875107d6018267c0008269b800d497078268f000826ab000d4a808d48707987720d49808978820d487075207ad011408c0ffffff0000000095690001829780007b9878d88707829898009487829870948751078601826780018377408268900050200603a0b0837782689000826988000a01018268c00082678001c88707d88708826bb00082699801c8b909c88909d3b90ad8b90bdaa80b8268f000826a8801c8a808826cb800826a9001c8ca0ad8ca0cc8c808c8ab0bd8ab0ac8a808d4b808826a7801d8a70a949a948a510a0c01837740956918194929600649295806492950069568601f4929480650200803d1ab8267c80033000a030a048269e80033020c03283e458269e80050220c033745d4780298aa206f98978920d4a909988a208268c00095881f8488e0009588403a0b2000023a0c280002956718197b7b40063a0b3000027b7c380649270006826c08017b7cf8057b7b30063a0b380002826cf8007b7cf005826c00017b7ce80549272006957c00067bcb287bca187bc9109569401f956a201f956b001f7b7208068267800150200e03a7ad9567e01e33084050201003e1a9956a181995ac000582c7e00082c8d80082c9d00082cbc800d49707d48b09d47909989920d48707977720d4970751070107003308800102838833070133090a0d28d7133308800102838833070133090a0d28c6133308800102838833070133090a0d28b5133308800102838833070133090a0d28a4133302120395691811014929580149295001140700000000c611522c7b976001956860124929480133075020140376aa390870010256181f122003700102203308800102286b0433088001022863043302160395691811014929780149297001140700000000b878d6f47b978001956880124929680133075020180328aa82673801817756171f480382683801480820283c033308800102838833070133090a0d2801133308800102838833070133090a0d28f0123308800102838833070133090a0d28df123308800102838833070133090a0d28ce12492610044926080449260004140700000000c611522c956800047b671804330750201a03a9a9390870010256181f122003700102203308800102289e033308800102289603492630044926280449262004140700000000b878d6f4956820047b673804330733002e032860a93308800102838833070133090a0d285112956918214929580449295004140700000000c611522c7b9760049568602549294804330750201c0328a9390870010256181f122003700102203308800102281d0333088001022815039567182149279804492790044927880450221e0394488388a005c868087b97a004330750202003e0a895681821492880044928780449286804116489330704956880254929700450202203bca882675001817756173f0c8268500148084001330701330924826860010a0d013308800102838833070133090a0d288b113308800102838833070133090a0d287a113308800102838833070133090a0d2869113308800102838833070133090a0d2858113308800102838833070133090a0d2847113308800102838833070133090a0d2836119569182149293804492930041407000000003bc167cc7b97400495684025492928043307502024030da8390870010256181f122003700102203308800102280202330880010228fa01956718194927f8044927f0044927e804502226037947838800fec868087b970005330750202803c5a733022a0395681819014928e0044928d8044928c8041164893307049568e01d4929d00433003a032898a73308800102838833070133090a0d2889103308800102838833070133090a0d2878103308800102838833070133090a0d2867103308800102838833070133090a0d285610492670054926680549266005140700000000c611522c956860057b677805330750202c0331a7390870010256181f1220037001022033088001022826013308800102281e01492690054926880549268005140700000000b878d6f4956880057b679805330750202e03eca682674001817756171f0c8268400148082001330701330904826848010a0d013308800102838833070133090a0d28bb0f3308800102838833070133090a0d28aa0f3308800102838833070133090a0d28990f3308800102838833070133090a0d28880f3308800102838833070133090a0d28770f3308800102838833070133090a0d28660f3308800102838833070133090a0d28550f3308800102838833070133090a0d28440f9569ff07959919014929380449293004140700000000635bb2d57b9740049568ff07958841054929280433075020300313a6390870010256181f11200370010220330880010228083308800102018388330701330904330032030a0d0195671819492738054927300549272805502234037345838840fec868087b974005330750203603bfa53302380395681819014928200549281805492808054164893307049568201e4929100550203a0396a58267a800817756173f0c8268a800480840013307013309248268a00033003c030a0d0152476eeb149c870095671829492700034927f8024927f0024927e80295670030837700fc33003e030a103302400328344750224003314782b7f80082a8000382b9f00082bae800d49808d4a707d4870751076a013308800102838833070133090a0d280d0e3308800102838833070133090a0d28fc0d3308800102838833070133090a0d28eb0d5247275914a04f01956718294927200349271803492710034927080395670030837720fc330042030a103302440328a046502244039d4650224603f543510764013308800102838833070133090a0d28990d492658010182676801977701826b5801d47b0b014926d8034926d0034926c8039568c0037b6bc003826718015020480368a43308208267180150204a03a0a88378330920330733004c030a0d280e330920330733004c030a0d019567181949277805492770054927680550224e03cb43838880fec868087b97800533075020500317a43302520395681819014928600549285805492848054164893307049568601e4929500533003a0328eaa364ba956718194927c005956c000182c87b78a8058268f8007b78b0059568c01e82c9087b79b80564b77bca98003300180128b6a382679801817756176384003308800102838833070133090a0d289c0c52473a6750b66801956718294927a003492798034927900349278803956700308377a0fc330054030a1033025603285145502256034e45502258032f43510779013308800102838833070133090a0d284a0c82679801817756174379013308800102838833070133090a0d282e0c9567a01733005a0333029e05284e449568181195890006829788007b679801829790007b679001829798007b6788018297a0007b6780019567801733005c033302a205280c4595681811958900068297687b6778018297707b6770018297787b676801829780007b6760019567601733005e033302a80528d844956b181195bc000682c74882c85082c95882ca607bca95ba00057ba9f8007ba8f0007ba7e800956b000182b7607bc72082b7687bc71882b7707bc71082b7787bc70882b780007bc74082b788007bc73882b790007bc73095674017956820179569001782ba98007bca2850206003fc2933088001028388330733090a0d28340b52474a45080ea304956718214927e0054927d8054927d0054927c805956700208377e006330062030a1001956a182195ab00055022640366415107b8043308800102838833070133090a0d28e60a50226603fc42ac78b8043308800102838833070133090a0d28cb0a9567401b330068033302b20528eb4295671819827728027b6790019567201b33006a033302a20528c54395671819827708027b67f00033078001037b67080183777b67000133006c030a048269080133026e0328393a8269080150226e03323a49290002959b00017bb8f8007bb7f0009568001b7bbae8003307502070034ca13302720395681819014928e0014928d8014928c8010164893307209568e01a4929d0015020740323a133077001027b671801390770010233083fac78118268180148084033027603289e42502276039b423307800102837783993308407b671001330078030a08826a980133027a0328593c826a980150227a03523c7b679801647182679001977720987920956718194927c0014927b8014927b0019568c01a7b69f8007b79a801330750207c039ca08267700195681819958900017b97a000826778017b979800826780017b979000648a3307209568a01a826988017ba9880150207e0365a082671801817756173f128267180148074033028003285d3a502280035a3a330082030a08826a90013302840328c53c826a900150228403be3c826b98017bba187bb9107bb8087bb782670001330086030a048269080133028803280941826908015022880302417b6890019877206f987b688801978820d487077b6780019567801a8268980150208a03cba095691819018297700180986c0182997801977a20d4a808979a20987720d4a707956b000182ba8000d3a70782ba9000d3a80882ba8800d3a909989920d49808d487075207550695670030837740fc0a09019567182982724003827b38037b6b580182743003827a28037b6a4001682768b8958940db2709684768a8958840db470895878000d42b0adaa709d8870c94ac8ecb8897f000857a01daca0b88b7019570ff9ab39accc9ac0a9a99ef008e3c8e07da0c07889c000185cc018ea8dba80cdbb70c7b6438017b625001d42407826b400182685801d4b808d48707887701d4c70764b894787b6898015207f70550228c035b415107ed0550228e032e39502090035a4150229203424050209403744150229603913f5020980368417b6720017b68e80082696001889780007b67e000826740018268380150209a03464150229c03d340826ae00093a77bb77851087a0564a98267680182682801d4870764ac8268e80050229e0308385020a003ee405022a203c03f5020a403e2407b67e8005022a6030b3f5020a803f8405022aa03a53b8268e8005022ac03ef3c5020ae03bc405022b00382395022b2033e3bd89002826b2801d8ab0cdb320c5022b403503bd4870297b801826b700198b33fd4380397b801826b780198b43fd4480897bb0182675801d47b0b7b6b780182675001d478087b687001d437087b686001d427075022b603ff36d89b02c99b0988ab01c9bc0c827b8800c92b0b95aaff7b7c90007b7b8800d4bc027b7a9800d49a0bd42b0a840b017b7b587b79800049265001520a68ff2888045247ce3c12452406956718214927a007492798074927900749278807956700308377a0f83300b8030a1001956a182195ab00075022ba03283d510755063308800102838833070133090a0d2843065022bc03593eac784c063308800102838833070133090a0d2828069567c01d3300be033302b20528483e956718198277a8047b67700133078001037b67880183777b6780013300c0030a04826988013302c20328b135826988015022c203aa354929a004959b00047bb898007bb790009568a01d7bba880033075020c403c49c3302c60395681819014928800449287804492868040164893307209568801d492970045020c8039b9c33077001027b679801390770010256173f0a5022ca03a93d9517e08479e07b69780164913307800102837783993308407b6790013300cc030a0801826a780182a71882a81082a90882aa6f777b6768016f877b6760016f977b6758016fa77b6750015022ce03773c82677001977720987920956718194927600449275804492750049568601d7b6970017b79480433075020d003059c8267500195681819958900047b9740826758017b9738826760017b9730648a3307209568401d826968017ba928045020d203d19b5022d403ec3aac78095022d603923d9517e08477e07b6768015022d803d2343300da030a08826a68013302dc03283038826a68015022dc032938826b78017bba187bb9107bb8087bb7826780013300de030a04826988013302e00328743c826988015022e0036d3c7b6868019877206f987b686001978820d487077b6758019567201d826878015020e203369c95691819018297100480980c0482991804977a20d4a808979a20987720d4a707956b000182ba58d3a70782ba68d3a80882ba60d3a909989920d49808d4870752072205826780013300e4030a04826988013302e60328af33826988015022e603a8334929e003959b00037bb8d8007bb7d0009568e01c7bbac80033075020e803c29a3302ea0395681819014928c0034928b8034928a8030164893307209568c01c4929b0035020ec03999a5022ee03b439ac78095022f003b03b9517e08477e07b6778015022f2039a330a08826a780182a71882a81082a90882aa6f777b6778016f877b6768016f977b6760016fa77b6758013302f40395691819014929a00349299803492990039568a01c826770017b97880333075020f603289a8267580195681819958900037b978000826760017b9778826768017b9770648a3307209568801c826978017ba968035020f803f3995022fa030e39ac78095022fc03b43b9517e08477e07b6778015022fe03f4320a08826a780182a782a80882a91082aa186f726f876f996faa951be084b8e0648195ab02d8ab0ac8a90cd89c09daaa09c87909d87907c827077b8c087b8b7b89107b87189567601c7b68780150200004749a95671819827750038478ff005108e1033302020495691819014929380349293003140700000000c884c1c17b9740039568401c49292803330733003e04283f993302040495691819014929580149295001140700000000dbf71c6f7b9760019568601a49294801330733004c05280f99492658010195690001829778977701829858d487077b979800018267f00082689801ab87740582670001330006040a048269080133020804289a318269080150220804933149292001959b00017bb8187bb7109568201a7bba08330750200a04b09833020c049568181901492800014928f8004928e8000164893307209568001a4929f00050200e04879882671801817756173f128268180148084033021004287f32502210047c32330012040a08330214042864335022140461337b97e0007b97d8007b97d0009568e0198267f8007b97c800330750201604369882677801956818197b87c000826780017b87b800826788017b87b000648a3307209568c019826990017ba9a80050201804039882671801817756173f128267180148074033021a0428fb3150221a04f83133001c040a0833021e0428d23650221e04cf3695ab0250222004033395681829958a00037bab487bac507ba9587ba7609567a0199568602c502022049998956718197c779000510753043302240495691819014919784919701407000000006d53a9a77b97800095688019491968330733004c05286b9752472dc64b4950956718294927200149271801492710014927080195670030837720fa330026040a103302280428983650222804953650222a0478365107f6053308800102838833070133090a0d281c3308800102838833070133090a0d280c838833070133090a0d01826798018177561763d505330880010228e69567200233002c0433029e05281138956a000282a72082a82880693002492618027ba9107ba808956800027ba7330750202e04bd964926f8014926f0014926e001023307209568e0014926e801502030049f9633077001027b679801390770010256173f0a50223204ad379517e08479e07b698801649133078001027b67900183778399330840330034040a08826a88013302360428bd34826a880150223604b6347bba000695ba00057ba9f8007ba8f0007ba7e8009567c001956800275020380420978067c0014926b8014926b0017b67a001330780009568a0014926a80150203a040c9682679801817756279f0018826898014808a000826790018378800028a5f18267900183788000289af133023c0495691819014929f8034929f003140700000000dbf71c6f7b9700049568001d4929e803330750203e04b49582679801817756171f0c8268980148082001330701330904826890010a0d011408ffffffff000000007b686801956a181995ab000382b84882b95882ba60867701956b182995bc00037bc8a8007bc9b8007bc7b0007bcac0009568c02c8267780150204004b79682678001330042040a04826988013302440428fb2d8269880150224404f42d49292003959b00037bb8187bb7109568201c7bba08330750204604119595671819492700034927f8024927f00264793307209568001c4929e80250204804ee9450224a042c3550224c040334ac780950224e04ff359517e08477e07b67980150225004e92d330052040a0801826a980182a782a80882a91082aa186f776f886f996faa95ab0350225404dc2f826878017b8b7b8c087b89107b87189567e01b502056047b95956718198277c80282686801c88707d287077b6798019567c01b82687801502058045795956a181980a7ac0297772095ab000282b8c00082b9b80082bab000826b9801d4b707956b182995bc00037bc8e0007bc9d8007bcad0007bc7c8009568e02c8267780150205a0487958267800133005c040a048269880133025e04288a2d8269880150225e04832dd4780298aa206f99979820d4a808989920826a7001956718197b7a48023a0a4000023a0b4800023a0c5000027b7aa0027b7b980249276002957b00027bbc90003a0a5800024927580249275002492780027bba88007bb9787bb8709569a01b956a801b956b601b7b7268023307330850206004089633078268900133090a0d287bfc3302620495691819014929380149293001140700000000635bb2d57b9740019568401a49292801330733004c0528499382670001330064040a04826908013302660428fa2b8269080150226604f32b4919607b98587b9750956860197b9a48330750206804159333026a0495681819014918404918384918280364893307209568401949193050206c04f09282671801817756173f128268180148084033026e0428e82c50226e04e52c330070040a083302720428cd2d50227204ca2d7b97207b97187b971095682019826798017b9708330750207404a39282677801956818197b87826780017b87f8826788017b87f0648a33072095680019826990017ba9e850207604759282671801817756173f128267180148074033027804286d2c502278046a2c33007a040a08826a900133027c0428c52d826a900150227c04be2d7b679001647133027e0495691811014929e0074929d8074929d0079568e0188267f8007b97c8073307502080040d928267700195681811958900077b97c000826778017b97b800826780017b97b000648a3307209568c018826988017ba9a80750208204d6918267180181775517400c82671801480740019517e08477e07b6788016471837933084082671001330084040a08826a88013302860428a731826a880150228604a031826890017b8a187b89107b8b087b879567a018502088046d9295671811827788078478015208d70233028a0495691811014929b8064929b006140700000000b6e2a4af7b97c0069568c0174929a806330733004c05283991826798018177561763b9033308800102281efa9567ff079577a10133008c0433029e052844329568ff07958819018287a0007b67f800828798007b670001828790007b671801828788007b6710019567ff079577810133008e043302a20528fe329568ff0795881901828780007b67f0008287787b67e8008287707b67e0008287687b6708019567ff0795776101330090043302a80528c6329567ff07957719018277487b67d800956700308377c0f80a0901956718218272c007827bb8077b6b58018274b007827aa8077b6a4001682768b8958940db2709684768a8958840db470895878000d42b0adaa709d8870c94ac8ecb8897f000857a01daca0b88b7019570ff9ab39accc9ac0a9a99ef008e3c8e07da0c07889c000185cc018ea8dba80cdbb70c7b6438017b625001d42407826b400182685801d4b808d48707887701d4c707947b5207e8075022920462325107de0750229404352a50209604613250229804493150209a047b3250229c04983050209e046f327b6720017b68d00082696001889780007b67c80082674001826838015020a0044d325022a204da31826ac80093a77bb7785108710764a98267680182682801d4870764ac8268d0005022a4040f295020a604f5315022a804c7305020aa04e9317b67d0005022ac0412305020ae04ff315022b004ac2c8268d0005022b204f62d5020b404c3315022b604892a5022b804452cd89002826b2801d8ab0cdb320c5022ba04572cd4870297b801826b700198b33fd4380397b801826b780198b43fd4480897bb0182675801d47b0b7b6b780182675001d478087b687001d437087b686001d427075022bc040628d89b02c99b0988ab01c9bc0c827b8800c92b0b95aaff7b7c90007b7b8800d4bc027b7a9800d49a0bd42b0a840b017b7b587b79800049265001520a68ff287f068478025208050c8477fd007b67880195676018826890015020be046e8f956a181195ab000782b74882b85082b95882ba60847700ff826b8801d4b707957702956b182995bc00037bca80007bc9787bc8707bc7689568802c826790015020c004a18f826700013300c2040a04826908013302c40428a427826908015022c4049d27d4870798aa206f99979820d4a808989920956c1811492ce006492cd806492cd006826a98017bcac806826af8007bcae8063a0a6000023a0b680002492c0007492cf8067bca40077bcb38073a0a7000023a0b780002492cf006492c20077bca300795ca00077bab287ba9187ba81064c895694018956a2018956b0018956ce0177b870807330733085020c604cc9033078268100133090a0d287cf6956740103300c80433029e05289c2e9568ff0795881901958900078297407b67f0008297387b67f8008297307b6738018297287b673001956720103300ca043302a205285a2f9568ff0795881901958900078297207b67c8008297187b67c0008297107b67b8008297087b67b000956700103300cc043302a80528232f9567ff07957719018079e8068897019598ff888832858801da97087b691001da970852089b0a8267f800977720987920956aff0795aa1901492ac0068267300195ab00067bb7a800826738017bb7b0009568ff079588c1077b6908017bb9b80033075020ce04988c9568ff07958819014928a00649289806492888060264893307209568ff079588a107492990065020d0046c8c33077001027b679801390770010256173f0a5022d2047a2d1407ffffffff000000007b6748019517e08479e07b69880164913307800102837783993308407b6790013300d4040a08826a88013302d60428632a826a88015022d6045c2a95bc00017bca407bc9387bc8307bc7289567ff07957781079568402a5020d804df8c9567ff0795771901827768067b67a80095670030837760fa0a09019567182982726001827b58017b6b500182745001827a48017b6a8801682768b8958940db2709684768a8958840db470895878000d42b0adaa709d8870c94ac8ecb8897f000857a01daca0b88b7019570ff9ab39accc9ac0a9a99ef008e3c8e07da0c07889c000185cc018ea8dba80cdbb70c7b6480017b621801d42407826b880182685001d4b808d48707887701d4c70764b894787b68000152075f095022da04a52d510755099598017b687801888701c8a7077b676801d48707887701c837077b675801d83707c807077b6760019a98ff007b6820019a89800082678801826880015020dc046e2d7b6700017b6828018267500182681801826920015020de047a2d7b67e8007b68e0008267200195798082678801826880015020e0045d2d7b67d8007b68d00082692001889780007b67a00082678801826880015020e2043b2d956b00017bb87082b86882b960d4890982b87882ba58d4a808d49808826aa00093a77bb7405108790864a9826728018268e000d4870764ac8268d000da980782691801649a649882692001db970a7b6a280182670001826ae800d4a707826ad800daca07826b500164badb970a7b6a20018267700193c77b6770014926e0008051018267780195798064b75020e404842c7b6700017b68e8008267880182688001826978015020e6046a2c7b67d0007b68d800826878019a89800082675001826818015020e804722c8269d800d4980882697801889a80007b6ad800826be800daab08826b8001db980b7b6b80018268d000d4870782680001daa80782688801db97087b68880182675001826818015020ea04002c49265001492618018269d80093987b6800019397826ae00095a9ff7b69d8008ea99599ff7b69d00001826b880198b93f82638001973a01d49a0097ba0182642801984b3fd4ba0a7b6ae8008269d000d30908d80902826bd800d8ab0cdb820c82680001978801987a3fd4a8087b680001983a3f977701d47a0a974701826b200198b83fd4870297b801826b700198b33fd4380397b801826b400198b43fd4480897bb0182675001d47b0b7b6b400182671801d478087b687001d437087b682001d427077b672801c9a907d8c707d8a908826c0001c9c90bc98b0bc97b0b99b33f8267e000d273078269e800c979087b688801d87908c980077b6780019408c98a07d88a08c98c087b68000195680001828c78828a68d4ac09889901828b58d89b02c99b0988cb01c9ba0a828b60c92b0b95ccff7b8a687b8b60d4ba0a7b8c78d49c0bd4ba0a843b017b8b507b895849261801520ad7fe283806492658010182677801977701826b5801d47b0b0182670801aeb7000c8267d8009777209878209587ff88773293877b68380193875107320c1407ffffffff000000007b677801826700019777209879209567ff0795771901490782681001956a00107ba800f982681801956a00107ba808f99568ff07958801017b6940017b79f833075020ec049987956700104927f8f8956700104927f0f8956800104928e0f8023307209568ff079588e100956900104929e8f85020ee04678733077001027b679801390770010233083fac78095022f0047328140700000000ffffffff7b6730015022f204e7283307800102837783993308407b6788013300f4040a08826a90013302f604287b25826a90015022f604742595bc00077bcae0007bc9d8007bc8d0007bc7c8009567ff079577c1009568e0285020f804da87956700108277c0f849264801330a82687801d287077b67280133090101330893a8956b000182b7287bb99000d897073309daa709492b80003307db780952093d0b95690001829778829848d28707829838ae87290b956700104927b8f882671001956800107b87a0f882671801956800107b87a8f89568ff079588a10082674001956900107b97b0f833075020fa04578695670010492798f895670010492790f895670010492788f83307209568ff0795888100956a0010492a80f8015020fc0425865022fe044025ac7809502200053c2750220205b722330004050a083302060528d22050220605cf20956800107b8778f8956800107b8770f8956800107b8768f89568ff0795886182679001956900107b9760f8330750200805ca8582675001956800107b8758f882675801956800107b8750f882676001956800107b8748f83307209568ff0795884182696801956a00107ba940f850200a058a8550220c05a524ac780950220e054b2750221005c725330012050a08826a680133021405288225826a6801502214057b25826870017b6960017b89187b6768017b87107b6b58017b8b087b6c50017b8c9567ff0795772150201605208695670010827728f895680010828830f895690010829920f88477ff8488ff826a3001d2a909d49808d4870751075f02956c000182c850958702d8870882ca5850221805ff2382c868c88a0ad88a0882cb60c8b808956b182195bc00077bc7e8007bc9f0007bcaf800956718297b789567ff079577019568002950201a05a18595670010827708f88477ff005207ff014926f807826710017b67e007826718017b67e8079568e007826740017b67f007330750201c0577844926d8074926d0074926c8073307209568c0074926c0070350201e055984502220057423ac7809502222051a2650222405eb20330026050a0833022805284020502228053d204926b8074926b0074926a8079568a007826708017b67a007330750202a05118482675801956a00077ba79800826760017ba79000826768017ba7880033072095688007826970017ba9800050202c05e08350222e05fb22ac780950223005a125502232057220330034050a0833023605288d1e502236058a1e7b6778077b6770077b67680795686007826790017b676007330750203805988382675001956a00077ba758826758017ba750826760017ba74833072095684007826968017ba94050203a056b8350223c058622ac780950223e052c2550224005a823330042050a08826a68013302440528c720826a680150224405c0209567200750204605238482672007847705521701860082679001956900067b97c000826708017b97e00082671001956b00077bb7826880017b98c8008267e0007b97e800826718017bb7087b98d0008267e8007b97f000826700017bb7107b98d8008267f0007b97f800956700079568e0069569c006826af8007bba18502048056f0a95690001829748957701829878d287077b974801330a8267900195770182687801d2870928c9fb33024a0595691811014929780749297007140700000000f08982c97b9780079568801849296807330750204c05628282671801817756171f0c8268180148082001330701330904826810010a0d019569ff07959919014929d8064929d00614070000000059e962787b97e0069568ff079588e1074929c806330750204e051182390870010256181f1220037001022033088001022806dc330880010228fedb492650010195690001829740977701829850d487077b970149268001330a826748018268a800d287077b67e800140700000000ffffffff7b67e00033090101330893a88267e8007b695001d897073309daa709492640013307db7809510906280aee9569000182974882988000d28707829810ac870628f3ed9569ff07959919014929600682673001959a00067ba748826738017ba7509568ff0795886107826708017ba75833075020500544819567ff0795771901492740064927380649273006647a3307209568ff0795884107492a280601502052051881502254053320ac7809502256052f229517e08477e07b67880150225805191a33005a050a08826a880133025c0528921c826a880150225c058b1c7b67880164719569ff079599190182674001959a00067ba7207ba7187ba7109568ff0795882107826750017ba708330750205e05a880826760019568ff07958819017b870006826768017b87f805826770017b87f005648a3307209568ff0795880107826978017ba9e805502060056d8050226205881fac7809502264052e229517e08477e07b677801502266056e19330068050a08826a780133026a05285b20826a780150226a055420956a000182a888007ba9707b89187ba7787b87107bab687b8b087bac607b8c9567ff079577e10650206c05f8809569ff0795991901959a000582a7d00082a8d80082a9c8008477ff8488ff826ae000d2a909d49808d48707510773956c000182c760957902d8790782c868c8780ad88a08da770882c778c8870bd87b0782c870c87808956718297bc988007b7968017bca78957900017b9a707bcb707b9b787bc8687b9880009567ff079577c1069568802a50206e056d809567ff07957719018277b0058477ff00510716330a8267500195770182684801d2870928a5fd956718299569000182988800957a00017ba888008298787ba890008298707ba898008298687ba8a0009567ff079577a1069568a02a502070050c80956aff0795aa190182a78805847bff8268b000d88b07db780b8262c8009372826cc000937c8268b80093780184b9ff82670001ae797fff7b697801956900017b98187b9c207b6228017b9b880082974882988000d28707829810ae8758ff492a80058267300195a900057b9768826738017b97709568ff0795888106826708017b97783307502072058f7eff9567ff0795771901492760054927580549275005647a3307209568ff0795886106492a48050350207405627eff82689801818756173f08480840019517e08477e07b677001502276056317330078050a0833027a05283f1a50227a053c1a9569ff07959919014929400549293805492930059568ff0795884106826778017b972805330750207c05047eff50227e05ff1f9589000550228005b11a95882106826970017ba9080550208205e17dff82689801818756173f08480840019517e08477e07b67780150228405e216330086050a0801826a780182a71882a81082a90882aa6f777b6770016f877b6768016f977b6760016fa77b67580150228805d21d9569ff0795991901826740017b970005959a00047ba7f8007ba7f0009568ff0795880106826750017ba7e800330750208a055a7dff50228c05551f958900047b97e000826760017b97d800826768017b97d000648a3307209568ff079588e105826970017ba9c80450208e05207dff82689801818756173f08480840019517e08477e07b677001502290052116330092050a08826a70013302940528f91c826a700150229405f21c826878017b8a187b89107b8b087b879567ff079577c10550209605bb7dff956aff0795aa190182a7a8048477055217019b008267500195ac00047bc748826788017bc768826730017bc78800826840017bc850826718017bc770826738017bc790007bc858826720017bc7788267f8007bc798007bc860826728017bc780009567ff079577a1059568ff07958881059569ff0795996105826bf0007bcba00050209805f80395690001829b8800956aff0795aa190182978000957701829848d287077b9780002807826b8801013308330c330295b701847bff281ffd9569ff0795991901491938491930140700000000d94b11cf7b97409568ff0795884101491928330750209a05dc7bff390870010256181f12200370010220330880010228d0d5330880010228c8d59569ff079599190149191849191014070000000059e962787b97209568ff0795882101491908330750209c058e7bff390870010256181f1220037001022033088001022882d53308800102287ad533078268880133090a0d2860e40a020182171082181814090000000001000000d37909d48909987a2088aa01948a939a510a248219821a087b697b6a087b67107b68189551c082103882153082162895114032003308800102838833070133093300a0050a0d3302a20528241d5022a205211d3308240a0201821718821810821908d4780a889b0194ab510b0d821a5022a4050a1932003308800102838833070133093300a6050a0d3302a80528e11c5022a805de1c3308443300aa050a023302ac05288f1a5022ac058c1a520b0b5022ae05ca1832003308800102838833070133093300b0050a0d3302b20528ac1b5022b205a91b3300b4050a023302b60528521a5022b6054f1a520b0b5022b8058d1832003308800102838833070133093300ba050a0d019511a07b10587b15507b16489515608411f0828910828c08828b82881897923f98ca01d42a02978a3f989901d49a0a97cc3f98b901d49c0c98830184bb019ab888b60184c97fd2a804d2280adbbc09d2380b88982094a8d4b40c94c8ab86167b797b7a087b74107b7b185022bc05231b32005022be05b61a5020c005c979ff49111849111049012233070464184911085020c205b179ff390870010256183f0b20037001024001330880010283883307013309243300c4050a0d01951170ff7b1088007b1580007b1678951590008411f064728289827408828c088273959a1fd89a00c80c0984aae07b1308c8a303d8a30bc8490ac8ba0ad39a06d89a07da6b07822b18d8c90c828610822210828818da000cc86c0cd86c06c82c09c89707d8c90cd89709c8b808c86808c8c808c8980c8ec88e79dbc809d4c7088ea6db8906520658821808d88308d34a09d84a06da9806d82708d3bc09d8bc0bda980bd32708d49808da860b520b317b13507b1a587b17603307409518507b1c685020c605c578ff955170ff8210880082158000821678951190003200491140491138491130140700000000717b484e9518307b174833075020c8058e78ff491128491120491110413307049518104911185020ca057478ff390870010256183f0b20037001024001330880010283883307013309243300cc050a0d01951120f9951a00067ba0d8007ba5d0007ba6c8009515e0068411e0641682997b692882887b68308278107b68208278087b683882777b67408367c0050a09018262d8058263d0058267c805826bc0057b6b7868296838958a40db290a687968b8958840db7908958b8000d42309da9b0ad88b0c949c8ecb88a8f000858901dac90b88b4019540ff9ab49accc99c099aa8ef007b64a8008e4a8e0cda0a0c7b68b800888a000185aa018e98db980adbbc0a6474826778d42408d4370bd4b808888801d4a808647a948a5208e9028268b8008588ff00826ca800d4c808d4090bd4b8085108d002826bb80095ba017b6ab00088a801c898087b68a000d4a808888801c8c8087b689000d8c808c808087b6898009ab9ff007b6988009a99800064487b64707b62687b63605020ce05a6197b6780007b6850826760826868826988005020d005b5197b67487b68188268b8009a897f8267788268705020d2059c197b67107b68b80082698800889780007b67588267788268705020d4057e19826c58826b9000826a98008269a000d4a909826ab000d4ba0ad49a0a93c77b67a800510a0502826750826918d497078269b800dac907826268642a82638800db370a7b6ab80082678000826948d49707826910dac907826b6064badb370a7b6a800093c87b6888004916588051018267b00095798064b764285020d605d9187b67507b68188267788268708269b0005020d805c3187b67107b68488268b0009a8980008267608268685020da05cf18826948d49808826ab00088ab80007b6b48826918dab908826970dba8097b6970826810d48707826850dab807826878dba70864a97b68788267608268685020dc056618330c82694893989397826a5895a9ff7b69508ea99599ff7b6948826370826478017b6c7898493f973a01d49a0c974a01826bb80098bb3fd4ba0a7b6a688269487b6c706434d3c903d8c902826b50d8ab0cdb320c978801987a3fd4a8087b6860984a3f977701d47a0a8267b800977701826b800098b83fd4870297b801826b880098b33fd4380397b801826ba80098b43fd4480897bb01826778d47b0b7b6ba80086887b68880086387b68800086277b67b800c9a907d8c707d8a908826260c9290bc98b0bc97b0b99bc3f826758d2c707826868c97804d87808826770c987039478c98a07d88a08c98208826ab0008260a000d40a09889901826b9000d89b02c99b0988ab01c9b000826b9800c92b0b95aaff7b60a0007b6b9800d4b0027b6ab000d49a0bd42b0a84cc017b699000520af2fe2805330c018267a800977701d47c0a01826730aea70709826720977720987920492698058267407b6780058267387b678805956880057b69a0007b69900533075020de056874ff4926780549267005492660050133072095686005492668055020e0054974ff3308700102390770010256173f0b200370010240019517e08479e07b69a800649133078001027b677083777b68b00083993308407b67b8003300e2050a083302e40528d80f5022e405d50f826728977720987720492658054926500549264805956840057b6798007b67400533075020e605d473ff826778956a00057ba738826780007ba730826788007ba72833072095682005826990007ba9205020e805a773ff8268b000818756173f0e4808403302ea052818155022ea0515153300ec050a083302ee052849115022ee054611956700055020f0056174ff806704058268080582691005977720d49808d4870751070c084926f8048267407b67e0048267387b67e8049568e0048267a0007b67f00433075020f2052f73ff4926d8044926d0044926c004033307209568c0044926c8045020f4051073ff8268b000818756173f0e4808403302f6052877115022f60574110a08826aa80082a71882a81082a90882aa6f777b67a8006f877b6790006f977b6788006fa77b6780004926b8044926b0044926a8049568a0048267307b67a00433075020f805ad72ff82678000956a00047ba79800826788007ba79000826790007ba78800330720956880048269a8007ba980005020fa057b72ff8268b000818756173f0e4808403302fc0528e2105022fc05df103300fe050a083302000628280e50220006250e49267804492670044926680495686004826798007b6760043307502002062d72ff826778956a00047ba758826780007ba750826788007ba74833072095684004826990007ba940502004060072ff8268b00081875517400e48084033020606287113502206066e13330008060a0833020a0628a20f50220a069f0f9567200450200c06ba72ff8268200484870151079b068487045207bc067b6890008487fb007b6788009567e0038268a80050200e068d72ff8267e0038268e8038269f003826af803847700ff826b8800d4b707957704956b00057bbaf8007bb9f0007bb8e8007bb7e0009568e0058267a80050201006c472ff4926d8038267a000956900037b97d0008267387b97c8009568c0038267407b97c0003307502012062f71ff4926b8034926b0034926a8033307209568a0034926a003502014061171ff8269b000819756173f0e4809403302160628780f50221606750f0a08826aa80082a782a80882a91082aa186f726f8c6f996faa9517e08478e07b68a80064817b6a6895a701887a017b6978c8a90bd4b709889901c8c9097b6c8000d8c90a7b628800c82a0a7b8b087b877b89107b8a1895678003502018068871ff95690003829780003a0818010282629803829a8800829b9000c87808d87807c87a0c95ccffd3ac09d8ac0ada970a95b7ffc87a0ad87a0788b901c99209c89707956900067b987b9c087b9a107b9718956800068267a80050201a06a271ff826790008477025207050350201c06986eff3a08a001037b68a8003a08b001037b6890003a07a801037b6788000a0a826888006f88978920826a90006faa98aa20d4a909988a208268a8006f8b330880010397bc20d4ca0a98bb203d0b9001033e0a8801033e098001033a092001024926380649263006492628067b699000956a00067ba920482640068e77fc089a797ba9787ba9707ba9687ba960978820988820977723d487079568200697882098882095696006979920d4890a826b7097bb2098bb2095684006978820d4b80c3308ff3309ff0a7b67a8000a0c01510752010a0c647949267802492670024926680295678002956860027b69487b69600250201e06ac04826780027b6768826788027b6760826790027b6758826798027b67509567400233084050202006ce6dff956c000282c7587b677882c8507b687082ca487b6a800082cb407b6b88008269507bc9188269587bc9108269607bc9088269687bc97bc7387bc8307bca2895672002956800027bcb205020220632f58269880082677882688000d48707826a70d4a908d47808988820d4a707977720d48707520700034926f8014926f0014926e8019568e0018267487b67e001649750202406726eff0a0c01826a8800826878826970d498081409e0ffffff00000000d89a09826b800094b994895109b70264789877205207ae0283a72064897b68800083887b6888006498502026066d72ff826880007a68800683778368800633090a0b018167800682688800ac8777028267a80052072f039567a00133084050202806b96cff956b000182b7b80082b8b00082b9a80082baa00050222a06b20a5207430249269801492690014926880195688001826790007b67800164a77b6ab80050202c06b06dff4926180149261001492608018267307b670001492638014926300149262801826798007b672001492658018267a0007b6750018267387b6748013a074801023a085001023a09580102826a407b6a40017b6778017b6870017b6968013a0760010233082095696001956a4001956b2001956c00017b6760018267b80033003806286b70ff9517e0847ce064c1826868958702d88708826a7850222e06270c82688000c88a0ad88a08826b8800c88b0b64c87b6cb8007bc9087bc77bca107bcb189567600350203006d76dff826760033a0b2001028268780382696803826a70037b6bb000c87b0bd87b07c8790cd89c09da7709c8a909d8a907c88707956800067b8ba0007b8ca8007b89b0007b87b8009568a0068267b80050203206fb6dff9567400333084050203406496bff956b000382ba5882b85082b94882b740d49a0ad48709d4a909989920d4a808978820d498085208c800492638034926300349262803956820038269b0007b6920037b67b80050203606376cff4926b8024926b0024926a802826730956b00027bb7a0004926d8024926d0024926c802826798007bb7c0004926f8028267a0007bb7f0008267387bb7e8003a072801023a083001023a09380102826a407bbae0007b6718037b6810037b6908033a0740010233082095690003956ae002956bc002956ca0027b6700038267b80050203806f26eff955120f9951700068270d8008275d0008276c8009511e0063200004926b0054926a8054926a005140700000000d94b11cf9568a0057b67b805330750203a066e6bff390870010256181f0b20037001022001330880010283883307013309040a0d014926d0004926c8004926c0001407000000006d53a9a79568c0007b67d800330733003c0628236bff4926f0004926e8004926e000140700000000b6e2a4af9568e0007b67f800330733003c0628fb6aff49261004492608044926000414070000000000f90f56956800047b671804330733003c0628d36aff4926d0014926c8014926c00114070000000018ecb8909568c0017b67d801330750203c06af6aff8267b000817756171f0c8268b000480820013307013309048268b80033003e060a0d01828a18828b108282088eac8eb9dbac09d4ba0a8e2bdba90b520b30828895891fd88908c828088488018499e0959a20d89a09c8980bd88b08da99084917187b7a7b7b087b781032009511b07b10487b15409515508411f050224006150b50204206286aff491118491110490141330704641849110850204406106aff390870010256183f0b2003700102400133088001028388330701330924330046060a0d01951140fe7b10b8017b15b0017b16a8019515c0018411e082897b19588289087b19508289107b19488288187b184082787b18388278107b18308276080a0a6f68978920821a306faa98aa20d4a909988820821a386faa330b80010397ac20d4c80898aa203d0a9001033e088801033e098001038218407b1858018218487b1850018218507b1848018218587b184001482160018e77fc089a787b1898017b1890017b1888017b18800197bb2098bb20977723d4b70795184001978820988820330b80010295198001979920d4890a7b1b1097bb2098bb2095186001978820d4b80c3308ff3309ff0a64760a0c0151074a017b16180a0c647949211801492110014921080195172001951800017b19207b190001502048064dfe821720017b1748821728017b1740821730017b1738821738017b17309517e00033084050204a066f67ff8217f8007b17508216f0008219e8007b1958821ae0007b1a288218307b18b8008218387b18b0008218407b18a8008218487b18a0007b17d8007b16d0007b19c8009517c0009518a0007b1ac00050204c06cfee821928821750821858d48707d46908d478089888207b1648d46707977720d4870752079900492198004921900049218800951880008217207b1780006497649650204e060f68ff0a0c01821850821948d498081409e0ffffff00000000d89609821b5894b99489510953646a647698772052074983a72083687b1858646850205006166cff7a16a00183778318a00133090a0b018117a001821618821858ac871c52061a955140fe8210b8018215b0018216a8019511c00132000049117049116849116014070000000018ecb8909518607b17783307502052067967ff390870010256181f0b200370010220018118103307013309040a0d33073300540628cb6bff330750205406c56bff33070150205606bb6bff82970881981082996f77977a206f88988820d48a0a9877206f98978920d497079888209569181932028269500182970881981082996f77977a206f88988820d48a0a9877206f98978920d497079888209569ff07959919013202647183793308408267900132027b676801c9a007d8c707d8a008826c3801c9c00bc98b0bc97b0b99b03f82673001d2700782684001c97804d87808c989039498c98a077b674801d88a08c98c0895670001827a9800827c9000d4ca09889901827b8000320282970881981082996f7a97a7206f889888203202da980782695001649a649882696001db970a7b6a680182674801826a3001d4a707826a2001daca07826b580164badb970a7b6a60018267700193c77b677001492630018051018267980195798064b7320282970881981082996f77977a206f88988820d48a0a9877206f98978920d497079888209569182132029517e08477e07b679001647183793308408267100132028269800182970881981082996f77977a206f88988820d48a0a9877206f98978920d4970798882032029598017b689801888701c8a7077b679001d48707887701c837077b678001d83707c807077b6788019a98ff007b6860019a89800082674001826838013202826a800182a71882a81082a90882aa6f777b6770016f877b6768016f977b6760016fa77b6758019517e08477e07b67800164719569ff0795991901826778013202826a700182a71882a81082a90882aa6f777b6768016f877b6760016f977b6758016fa77b6750019517e08477e07b6770016471826780013202826a900182a71882a81082a90882aa6f777b6790016f877b6788016f977b6780016fa77b6778019569181933073202d8ab0ac8a90cd89c09daaa09c88909d88908c88707320282644001826338014926580149265001956b000182b928939893977bb74882ba3095a9ff7bb9288ea99599ff7bb920320282a71882a81082a90882aa6f777b6788016f877b6780016f977b6778016fa77b6770019517e08477e0320282a71882a81082a90882aa6f777b6778016f877b6770016f977b6768016fa77b6760019517e08477e03202826aa80082a71882a81082a90882aa6f777b6790006f877b6788006f977b6780006fa77b67789517e08477e07b67a80064713202826a700182a71882a81082a90882aa6f777b6770016f877b6768016f977b6760016fa77b6758013202956b000182b9800082970881981082996f77977a206f88988820d48a0a9877206f98978920d4970798882082b998003202826a900182a71882a81082a90882aa6f776f8b6f996faa826898017b8a187b89107b8b087b8733070020320282a71882a81082a90882aa6f776f886f996faa32029517e08477e07b677001647183793308408267880132027b9720826760017b9718826768017b9710648a3307209568ff073202d49707d48a09d47909989920d48707977720d497073202330b330c8269280193989397826a380195a9ff7b6930018ea99599ff7b692801320298493f973a01d4a909974a0182646801984b3fd4ba0a7b6a4001826020016437d390033202978801826b480198ba3fd4a8087b683801987a3f97b701d47a0a974701826b600198b83f320282692801d4980882699801889a80007b6a2801826b2001daab08826b3801db980b7b6b3801320282a71882a81082a90882aa6f776f8b6f996faa826870017b8a187b89107b8b087b87320282a71882a81082a90882aa6f776f8b6f996faa826880017b8a187b89107b8b087b873202826a900082a71882a81082a90882aa6f776f8b6f996faa8268a8007b8a187b89107b8b087b873202956c00017bc898007bca9000d48a077bc9787bcb8800d49b08d4870732027b6a600193b87b686801492638018051018267900195798064c7643832027b6a7b69087b68107b67189551c0821038821530821628951140320282a71882a81082a90882aa6f776f886f996faa956b1829320282a71882a81082a90882aa6f776f886f996faa956b182132029517e08477e07b67a800647183793308408267b8003202826a5001c9a707826a8801826b6001c9ab0a956b182195bc00073202d4870782684801daa80782684001db97087b6840018267580182685001320282ab7b1b1882ab087b1b2082ab107b1b2882aa187b1a308296829a087b1a829a107b1a088299187b19103202826a900182a782a80882a91082aa186f776f886f996faa3202c88a09d8a90ada880a320282679801817733083f32027b6710017b682801826890019a8980008267500182684001320282b71882b82082b91082ba08d49808d4a707d48707320233071829c8760a95ab0001320282b7d80082b8e00082b9d00082bac800d49808d4a707d48707320282692801d49808826a900188ab80007b6b280182691801dab90832026479140700000000717b484e3308002032028477ff8488ff8499ff826b70d2ba0a826b9001d4ba0a956b1829320282b7980082b8a00082b9900082ba8800d49808d4a707d487073202821718821810821908821ad4790bd48a0cd4bc0c98cc20d48b0b97bb20d4cb0b320282a71882a81082a90882aa6f776f8b6f996faa320282a71882a81082a90882aa6f7c6f8b6f976fa932029517e08477e07b679801647132029517e08477e07b677801647132029517e08477e07b676801647183793308408267880132028267980182692801d4970782691001dab90782634001643a3202140b00000000010000001407e0ffffff00000000d8780782c99000949794a732026f877b6770016f977b6768016fa77b67600132027b682801826898019a898000826758018268500132027b6730017b6828018267600195798082674001826838013202491130491128491120140700000000717b484e9518207b17383307320282970881981082996f77977a206f88988820d4a80832028267980181773308233202330740826898017a8732029511c07b10387b15307b16289515408411e06476831733080432029551a082105882155082164895116032027b6748017b68200182674001826838018269980132027b6748017b68680182675801826850018269600132029517e08477e07b679000647183793308408267b80032029517e08479e07b699801649132029517e08479e07b69900164913202826a900182608001d40a09889901826b70013202826798013308407a78320233071821c8760a95ab0006320233071829c8760a95ab0003320233071829c8760a95ab00023202826758019568ff079588190132027b6760017b68980182675001826840018269680132029511c07b10387b15307b16289515408411e0647683173202956b00017bb87082b8900082b98800d4890982b8980082ba8000d4a808d4980832027b6718017b68100182696801889780007b67380132028597ff00d43707d40a08d487073202849a40520a195109148d9a40cfa80ad09808d09707d4a707320032009597c0d0780733083200849a40520a195109148d9a40d0a70acf9707cf9808d4a808320032009598c0cf87083307320049922425494b2a252da9944c4949490a21a11a4292d210a1925429a42449922449922449922449922449922449922449922449922449922449922449aa9294529294942454a5242549922449922449922449922449922449922449922449499294a4aa24254994a492a42a494149929294a4aa2a494952924a922222222549929224a95029a5244929a524a9a4888828222252922409124a252525458a142952a44891a22445444411119192244949922448282a52a4489122458a142952a4489122458a122922224a920421240ca5496948848888484444342222498424894414890851a81a2242440049528948922491842424499224c950124a42495200a51022184a5aa12a119224841052a14a95464444a48808121142844844694420018104121048404020810412111111291144442449a248244444244992244988888888444444444a04411224114923922448421445522949492222891422224a4448a210221849142a5124a92a92949424499294881011119144229144245292249148924824221149121122424412894492249148922422494484488888880892888888888822448a440449494244082122222212111189888848892048a248441111894444444244440449448912254a24a948924a44a5882449924a2222491289249248241111114144440411918820222222824824912425292245a222119148948822102988888820222222884444241291482422828888482549c9248924a2249244124912492249248944241289249124914852228988244992249248924424222222258220099288a41111114112a248892022891444442282240a21829144a1125144442082888848229148221229499248244924902411414411814844444444440422414444049288888888288288222202494922841022922489888844918888888846049210451411118848220511112522088490041111815089282210092212894422101111118d88888844922491489224922492244994248920124424128944444444342289224992242249222222a220a28888405292101142888888884444044525222222a28840444492249044a411499292882849248944924a12118d8888a4242289242249922492882449942492244992249224922491a49292240951441111818824521011a144048110926004108150892822100922224924928808222212118944229224228868444444259544928a24a944542225912249a292882449228924914444441108042222118140442022229114498988888828221011912489221111111111111111111111112322121111511011a14404214430894245221a492a02112322220a222212291109a2c824822822114491449248414422911291208a4c228822220211442212441111499224898888888820118988888846244992249044241a91244112a28822414444444144242248a210221849142a118d9254258892441011114924124944222549128924890449222288281244222222222222880491a4208988888888228828221124258910428888888844440445259224221a499224099288349224258988461249259544928a24a944542225118924a9884812259248124944441141104444228220228888482445948888882812044990444422222222a2202212110421122241a814492a8aa2882445101111111149242249224924114144444444241144128948928820128948224844122922224944101109222222499224111111115144441091244812111111111111442292549288442211092202489492481211114144501425222222a24810245124221211111111914644444424912449924812111111110511114a44104204932814258a241545512451c48888442252101189444a44045164124191a4a2288a48520411894422892289249144229148140922128944222288888888888888880822929224491211111111111111414422918800129544444412894810159124494a2490888888882241904491481011111111114144248a24499210424444444441221244222291284110111141100491884422454410448c248924a24889244924894492481249229148249244924422899424489248221249a28864220951449120228948414444948808922884082241a8481449aa8a482412451409222222a2202222948808a2c800228048228822124124898820a28888244952128944222b524a44441409229288144444448908411499441045824812112908228888208a4c22882212412429499224222222228888482c924444101111914492441409222222a22022224a4408a2c824826824a90822222222a22022229148898808a2c8248228124492884841104144045164124114910822828848444410111111a19292249224094992244992888888089228128944114144848888888848922489888888201289880822222222828888888888888824222222824424888848922449928844444414111144441240a2928824222222228828221124250921444444448888888812111111118944224924222291484414245114199148a212454524a92a4aa4d44824912449124992444404111149244922894892244992242222229248049144924822914492482251a452222a4124221289120411111104411089482452440441c4489248228a94489244924824892491241289442249244924924849822489242291248a484624888888a8144922492411491289884444041191882449928888442252108d0820514a22a994a424898824124144444444444410914824129120222222222222222222228a882012499124491211894422a220220144a29288281241118d882492241149449224914a1211111104104044a29424a28844221189201291a4924444444482880012a52422222212441491082222220a22229488208a0c204954221a492a8aa20822222222220a221191242522822832894a14492aa5944852441011898820224982888888082282884422111144442492449244444444044949922449128944124504111111499224491211444454529224924444828888481291202249a54822114924119124492405514426518922499224924492a4525449124922924812499224919244124992244aaa9224924422499288244992a4188924914892248a442211111151109144924822254692248944444444444444049144104924222222228888884810111191244922128988888808222212440091884812499224222222884812a5484404114144108900024854441411111111111111444422a5082012451191882449228288088a082292882449442292244900918a888888082211111111441111111141248044444450d124492211898888888888a820895290449542111191a4aaa82291342292484412914844a248449248924892244922228288888888888888209248124924128944124924228924914422524a444494489224222212119124492249922449922411414444444444241149109144101189481244442292242a12894422922422489224492449229224124902485211892012499264922492242249241291041191248888442409222211495214894422914422918824894990942441922492120922121141444444442289082241442449524404114912918888888820a288441091440a22224a441044914954228a0409a224114424121141444444101111114124881811111191249124222242041191001240244a11898844221111442251141189489224028848a21491088a6844129124894844922489542422222288282211242589444288081111112222229244444410092222229224490ca5124a25944a289588110144444188202424624400115110854842a9845209a5124a252202882808118484444400114542a944440011511022080989880822511011a14404514426d1502aa15442a9845209a5124a2522028888821041484844441089828811a1444442a9845209a5124a2522028828081184844444001105514426d1502aa15442a9845209a5124a25944a289588880022220a4204a1b0241a111144a22062442811411491494403222222228a0411114922944a2895502a011111111145822042a9c4486444444490084a51291a111144a220624428119122a288884411894228958088888888224110a154a2104a252212111111111111894824121111918824292222922449229148444482509580888888884604114a2588502a1191888888444488228a480411111105112342890842842412094225a288441045121111110511111111252282282291208a480491a488221241a4482222881191248948249224221a111111955412492a92a412954849442292a42282088220088288888808822851448a200882088220822008124990449248128948241224492411892489880444444444342288502a4184528988444488228a4804111111051123428908428408922854221a492a8aa20822898888888288482452222208122411441189209214514422881449440431229224912449928828221144444414448c0825220812241114492a8aa2881811115110111189948808820449044549aa929224495212114444448c0820228a448c0820228ac448921811114524828824521031229488208a482488224144444441444444948808a288448228122488489288202222260144a44820222222a248104428552855a951084544228948a28288908820448820894254a288441011111141444444045188884844224604101105514426d100222249222222228288221241441229888828114110244822884649aa12444922888824228288444444222222228288221241529288082144444488884822222a282a11230288882211452482249182884994481045241244912049440a228a444a4482282291208a480451c4888888828888888812114114914954228a480491a4082212112302888822510889884844444444444444222212894444442212118d8888884a2a8924154952894aa42422114952041104411004111111110451a288144110041104410441102492208924912412914824489248221249121149444404114912914444928820a288449094242222222284888810222292141111151495884844241289444424221289442222121149924844121111111111511011114a4404214204014412854a441189209224228288888846444444259544928a24a944255212918824a98820124924892422222288888820221211444444441049922451a28814898a44442251228a40a4202222828888882012119148442291880822a22812254622492411492491249224924492481289482412492249229148a22411499224499224499288c44864442449510410914414111111112988888890888820444882002208958822124144444444101145222b122951229224222222222222a22022222211118220411045828888884844144444444444221111040982282211442412892241444444124922922448924444441489202222222222a220221221081204512488888828888888884444102408a248101111511091482411098204411491082288848888882822221211918888884810499245228918114044144411994423220288882808118484c4489246118900222b22254a1289248988884422220511115122421024482288221241141191242252101111115122228220411241149108229224491141444444124912499224491211892489880822225224928888482412111144442289a26822229288441211914844a440444494881088229308a248101111111105820822221045261144234945511441444444444414082222224a4444208a4c228822124124292210110911894444221189442422222222228888882451ac9244240124220542042121114900894881104148485169124092544a49922485521409d22449292894a248902812242894a248104582048552344992a424499224294992945292a0209024251022184aa211914825254992244992244992244925254992244992244902119128490049812492044204434934222222959224251a11914a2a892415495289a844a4a424492a22224944228924914444942488241124912448442409121189a488249114894892942882480549124112910449449224499294242895a42499248924494992244912892491249224511445922449922429494412491249442249448d64224924121151202224221042049328a428114582241111110512894412914014890451248840442489482422a240444844208a4482224945511411118902111111918808449148104582888888028944228948208a4482281244201289888808444444241111111188884844a240442422104522415192aa244a92248944521281881011499224499228494420128110214214254a1285242184101111892849922492489244928c464544442288442291482092249148922425894810892449928888481468240920515122455120a2a81111110944444410111111452022121111111189104222224222222222929224882452a424021122229224492222222210094492244992888888884044242222222222114248444448444444202222a2111140448110c150d2880820a288880820a288880820a288880820a2401491494493545252922449929292244120494a204430944423222225499292a49292a49024849048241211454424492421922491246ba4222222114422914824108948249148242222228224499224111191a840930490542a492910458d2489888826092029102298a4220a2490544a529228924a494a1251258a249124914852228988244a2aa54445222291281145205249a524258992a84491544a529212492489242222a2485251144512454491a4a2288a248a2249455114514992a4888848254949492a8aa2484a525114455224a9288a924445928aa2288a482a2529491449aa8a244549aa2a894a9448a4444992a48a8a448992249288522289248914898848244a525524a9245545928a245545928a882492a20844aa9224494a525594a4aa28894a14894844894422a292244929498a925495a4284544449424498a441111498a4444a4028892249128222249494a922425a9aa2455954425514954a28844a202082051154551444414118928490049259592a294a824492a25498a88882222a2242a51129544452451a42251248a44115144449424491589484452444414494a9224a9a49224492a2900"},"methodIdentifiers":{"STAKE_PER_DAY()":"4a91f7ae","archiveHabit(uint32)":"b650673a","checkIn(uint32,uint64)":"a0145927","claim(uint256)":"379607f5","createHabit(string)":"b683ace1","dailyStatuses(address,uint64,uint32)":"88b21c87","deposit()":"d0e30db0","epochNow()":"222ae786","forceSettleAllEpochs(address,uint64,uint32)":"494bc62d","habits(address,uint32)":"99626634","prepareDay(uint64)":"48cc36b8","redepositFromClaimable(uint256)":"8f23d36c","settle(address,uint64,uint32)":"9c14eb6e","settleAll(address,uint64,uint32)":"45123cce","treasury()":"61d027b3","userHabitCounters(address)":"0e08454a","userStates(address)":"0ecc535f","withdraw(uint256)":"2e1a7d4d"}},"hash":"0ad631909070fbf3273b71c0ca99bf69c8252b29e5d9aa246e59fa92ea68e773","factoryDependencies":{}}}}