{"contracts/HabitTracker.sol":{"HabitTracker":{"abi":[{"inputs":[{"internalType":"address","name":"_treasury","type":"address"},{"internalType":"address","name":"_stakingAdapter","type":"address"}],"stateMutability":"nonpayable","type":"constructor"},{"inputs":[],"name":"AlreadyCheckedIn","type":"error"},{"inputs":[],"name":"AlreadySettled","type":"error"},{"inputs":[],"name":"CannotSettleCurrentDay","type":"error"},{"inputs":[],"name":"DayNotFunded","type":"error"},{"inputs":[],"name":"HabitAlreadyArchived","type":"error"},{"inputs":[],"name":"HabitIdTooLarge","type":"error"},{"inputs":[],"name":"HabitNotFound","type":"error"},{"inputs":[],"name":"HabitTextTooLong","type":"error"},{"inputs":[],"name":"InsufficientBalance","type":"error"},{"inputs":[],"name":"InvalidAmount","type":"error"},{"inputs":[],"name":"InvalidBalanceType","type":"error"},{"inputs":[],"name":"InvalidEpoch","type":"error"},{"inputs":[],"name":"InvalidStakingAdapter","type":"error"},{"inputs":[],"name":"InvalidTreasury","type":"error"},{"inputs":[],"name":"OnlyOwner","type":"error"},{"inputs":[],"name":"TransferFailed","type":"error"},{"anonymous":false,"inputs":[{"indexed":true,"internalType":"address","name":"user","type":"address"},{"indexed":true,"internalType":"uint8","name":"from","type":"uint8"},{"indexed":true,"internalType":"uint8","name":"to","type":"uint8"},{"indexed":false,"internalType":"uint256","name":"amount","type":"uint256"}],"name":"BalanceMoved","type":"event"},{"anonymous":false,"inputs":[{"indexed":true,"internalType":"address","name":"user","type":"address"},{"indexed":true,"internalType":"uint32","name":"habitId","type":"uint32"},{"indexed":true,"internalType":"uint64","name":"epoch","type":"uint64"}],"name":"CheckedIn","type":"event"},{"anonymous":false,"inputs":[{"indexed":true,"internalType":"address","name":"user","type":"address"},{"indexed":true,"internalType":"uint64","name":"epoch","type":"uint64"},{"indexed":false,"internalType":"uint32","name":"fundedCount","type":"uint32"},{"indexed":false,"internalType":"uint32","name":"insufficientCount","type":"uint32"}],"name":"DayPrepared","type":"event"},{"anonymous":false,"inputs":[{"indexed":true,"internalType":"address","name":"user","type":"address"},{"indexed":false,"internalType":"uint256","name":"amount","type":"uint256"}],"name":"Deposited","type":"event"},{"anonymous":false,"inputs":[{"indexed":true,"internalType":"address","name":"user","type":"address"},{"indexed":true,"internalType":"uint32","name":"habitId","type":"uint32"}],"name":"HabitArchived","type":"event"},{"anonymous":false,"inputs":[{"indexed":true,"internalType":"address","name":"user","type":"address"},{"indexed":true,"internalType":"uint32","name":"habitId","type":"uint32"},{"indexed":false,"internalType":"bytes32","name":"text","type":"bytes32"}],"name":"HabitCreated","type":"event"},{"anonymous":false,"inputs":[{"indexed":true,"internalType":"address","name":"user","type":"address"},{"indexed":true,"internalType":"uint32","name":"habitId","type":"uint32"},{"indexed":true,"internalType":"uint64","name":"epoch","type":"uint64"},{"indexed":false,"internalType":"uint256","name":"slashed","type":"uint256"}],"name":"SettledFail","type":"event"},{"anonymous":false,"inputs":[{"indexed":true,"internalType":"address","name":"user","type":"address"},{"indexed":true,"internalType":"uint32","name":"habitId","type":"uint32"},{"indexed":true,"internalType":"uint64","name":"epoch","type":"uint64"},{"indexed":false,"internalType":"uint256","name":"reward","type":"uint256"}],"name":"SettledSuccess","type":"event"},{"anonymous":false,"inputs":[{"indexed":true,"internalType":"address","name":"oldAdapter","type":"address"},{"indexed":true,"internalType":"address","name":"newAdapter","type":"address"}],"name":"StakingAdapterUpdated","type":"event"},{"inputs":[],"name":"STAKE_PER_DAY","outputs":[{"internalType":"uint256","name":"","type":"uint256"}],"stateMutability":"view","type":"function"},{"inputs":[{"internalType":"uint32","name":"habitId","type":"uint32"}],"name":"archiveHabit","outputs":[],"stateMutability":"nonpayable","type":"function"},{"inputs":[{"internalType":"uint32","name":"habitId","type":"uint32"},{"internalType":"uint64","name":"epoch","type":"uint64"}],"name":"checkIn","outputs":[],"stateMutability":"nonpayable","type":"function"},{"inputs":[{"internalType":"address","name":"","type":"address"},{"internalType":"uint64","name":"","type":"uint64"}],"name":"checked","outputs":[{"internalType":"uint256","name":"","type":"uint256"}],"stateMutability":"view","type":"function"},{"inputs":[{"internalType":"bytes32","name":"text","type":"bytes32"}],"name":"createHabit","outputs":[{"internalType":"uint32","name":"","type":"uint32"}],"stateMutability":"nonpayable","type":"function"},{"inputs":[],"name":"deposit","outputs":[],"stateMutability":"payable","type":"function"},{"inputs":[],"name":"epochNow","outputs":[{"internalType":"uint64","name":"","type":"uint64"}],"stateMutability":"view","type":"function"},{"inputs":[{"internalType":"address","name":"user","type":"address"},{"internalType":"uint64","name":"epoch","type":"uint64"},{"internalType":"uint32","name":"habitId","type":"uint32"}],"name":"forceSettle","outputs":[],"stateMutability":"nonpayable","type":"function"},{"inputs":[{"internalType":"address","name":"","type":"address"},{"internalType":"uint64","name":"","type":"uint64"}],"name":"funded","outputs":[{"internalType":"uint256","name":"","type":"uint256"}],"stateMutability":"view","type":"function"},{"inputs":[{"internalType":"address","name":"","type":"address"},{"internalType":"uint32","name":"","type":"uint32"}],"name":"habits","outputs":[{"internalType":"bytes32","name":"text","type":"bytes32"},{"internalType":"uint64","name":"createdAtEpoch","type":"uint64"},{"internalType":"bool","name":"archived","type":"bool"}],"stateMutability":"view","type":"function"},{"inputs":[{"internalType":"uint8","name":"from","type":"uint8"},{"internalType":"uint8","name":"to","type":"uint8"},{"internalType":"uint256","name":"amount","type":"uint256"}],"name":"move","outputs":[],"stateMutability":"nonpayable","type":"function"},{"inputs":[],"name":"owner","outputs":[{"internalType":"address","name":"","type":"address"}],"stateMutability":"view","type":"function"},{"inputs":[{"internalType":"uint64","name":"epoch","type":"uint64"}],"name":"prepareDay","outputs":[],"stateMutability":"nonpayable","type":"function"},{"inputs":[{"internalType":"address","name":"_newAdapter","type":"address"}],"name":"setStakingAdapter","outputs":[],"stateMutability":"nonpayable","type":"function"},{"inputs":[{"internalType":"address","name":"user","type":"address"},{"internalType":"uint64","name":"epoch","type":"uint64"},{"internalType":"uint32","name":"habitId","type":"uint32"}],"name":"settle","outputs":[],"stateMutability":"nonpayable","type":"function"},{"inputs":[{"internalType":"address","name":"","type":"address"},{"internalType":"uint64","name":"","type":"uint64"}],"name":"settled","outputs":[{"internalType":"uint256","name":"","type":"uint256"}],"stateMutability":"view","type":"function"},{"inputs":[],"name":"stakingAdapter","outputs":[{"internalType":"contract IStakingAdapter","name":"","type":"address"}],"stateMutability":"view","type":"function"},{"inputs":[{"internalType":"address","name":"newOwner","type":"address"}],"name":"transferOwnership","outputs":[],"stateMutability":"nonpayable","type":"function"},{"inputs":[],"name":"treasury","outputs":[{"internalType":"address","name":"","type":"address"}],"stateMutability":"view","type":"function"},{"inputs":[{"internalType":"address","name":"","type":"address"}],"name":"userHabitCounters","outputs":[{"internalType":"uint32","name":"","type":"uint32"}],"stateMutability":"view","type":"function"},{"inputs":[{"internalType":"address","name":"","type":"address"}],"name":"userStates","outputs":[{"internalType":"uint256","name":"depositBalance","type":"uint256"},{"internalType":"uint256","name":"blockedBalance","type":"uint256"},{"internalType":"uint256","name":"claimableBalance","type":"uint256"},{"internalType":"uint32","name":"activeHabitCount","type":"uint32"}],"stateMutability":"view","type":"function"},{"stateMutability":"payable","type":"receive"}],"evm":{"assembly":"// RO data = 0/0 bytes\n// RW data = 332/65952 bytes\n// Stack size = 32768 bytes\n\n// Instructions = 9887\n// Code size = 34695 bytes\n\n      : @0 (gas: 7)\n     0: sp = sp + 0xffffffffffffffe8\n     3: u64 [sp + 0x10] = ra\n     6: u64 [sp + 0x8] = s0\n     9: u64 [sp] = s1\n    11: s1 = 0x20148\n    16: s0 = i32 [0x20148]\n    21: jump @3 if s0 == 0\n      : @1 (gas: 5)\n    24: a0 = 0x30180\n    29: i32 a0 = a0 + 0\n    31: i32 a1 = s1 + 0\n    33: ecalli 7 // 'get_immutable_data'\n    35: fallthrough\n      : @2 (gas: 3)\n    36: a0 = i32 [0x20148]\n    41: u32 [0x20148] = 0\n    46: jump @4 if a0 <u s0\n      : @3 (gas: 5)\n    49: ra = u64 [sp + 0x10]\n    52: s0 = u64 [sp + 0x8]\n    55: s1 = u64 [sp]\n    57: sp = sp + 0x18\n    60: ret\n      : @4 (gas: 1)\n    62: trap\n      : @5 (gas: 2)\n    63: a1 = i32 [0x20148]\n    68: jump @57 if a1 == 0\n      : @6 (gas: 4)\n    72: a0 = 0x30180\n    77: i32 a0 = a0 + 0\n    79: ecalli 15 // 'set_immutable_data'\n    81: jump @57\n      : @7 (gas: 8)\n    84: sp = sp + 0xfffffffffffffff0\n    87: u64 [sp + 0x8] = ra\n    90: u64 [sp] = s0\n    92: a2 = a1\n    94: s0 = a0\n    96: a1 = 0x20\n    99: a0 = a2\n   101: ra = 2, jump @20\n      : @8 [@dyn 1] (gas: 100)\n   106: a1 = u8 [a0 + 0x1]\n   109: a2 = u8 [a0]\n   111: a3 = u8 [a0 + 0x2]\n   114: a4 = u8 [a0 + 0x3]\n   117: a1 = a1 << 0x8\n   120: a1 = a1 | a2\n   123: a3 = a3 << 0x10\n   126: a4 = a4 << 0x18\n   129: a3 = a3 | a4\n   132: a1 = a1 | a3\n   135: a2 = u8 [a0 + 0x5]\n   138: a3 = u8 [a0 + 0x4]\n   141: a4 = u8 [a0 + 0x6]\n   144: a5 = u8 [a0 + 0x7]\n   147: a2 = a2 << 0x8\n   150: a2 = a2 | a3\n   153: a4 = a4 << 0x10\n   156: a5 = a5 << 0x18\n   159: a4 = a4 | a5\n   162: a2 = a2 | a4\n   165: a2 = a2 << 0x20\n   168: t0 = a2 | a1\n   171: a2 = u8 [a0 + 0x9]\n   174: a3 = u8 [a0 + 0x8]\n   177: a4 = u8 [a0 + 0xa]\n   180: a5 = u8 [a0 + 0xb]\n   183: a2 = a2 << 0x8\n   186: a2 = a2 | a3\n   189: a4 = a4 << 0x10\n   192: a5 = a5 << 0x18\n   195: a4 = a4 | a5\n   198: a2 = a2 | a4\n   201: a3 = u8 [a0 + 0xd]\n   204: a4 = u8 [a0 + 0xc]\n   207: a5 = u8 [a0 + 0xe]\n   210: a1 = u8 [a0 + 0xf]\n   213: a3 = a3 << 0x8\n   216: a3 = a3 | a4\n   219: a5 = a5 << 0x10\n   222: a1 = a1 << 0x18\n   225: a1 = a1 | a5\n   228: a1 = a1 | a3\n   231: a1 = a1 << 0x20\n   234: t1 = a1 | a2\n   237: a1 = u8 [a0 + 0x11]\n   240: a3 = u8 [a0 + 0x10]\n   243: a4 = u8 [a0 + 0x12]\n   246: a5 = u8 [a0 + 0x13]\n   249: a1 = a1 << 0x8\n   252: a1 = a1 | a3\n   255: a4 = a4 << 0x10\n   258: a5 = a5 << 0x18\n   261: a4 = a4 | a5\n   264: a1 = a1 | a4\n   267: a3 = u8 [a0 + 0x15]\n   270: a4 = u8 [a0 + 0x14]\n   273: a5 = u8 [a0 + 0x16]\n   276: a2 = u8 [a0 + 0x17]\n   279: a3 = a3 << 0x8\n   282: a3 = a3 | a4\n   285: a5 = a5 << 0x10\n   288: a2 = a2 << 0x18\n   291: a2 = a2 | a5\n   294: a2 = a2 | a3\n   297: a2 = a2 << 0x20\n   300: a3 = a2 | a1\n   303: a1 = u8 [a0 + 0x19]\n   306: a2 = u8 [a0 + 0x18]\n   309: a4 = u8 [a0 + 0x1a]\n   312: a5 = u8 [a0 + 0x1b]\n   315: a1 = a1 << 0x8\n   318: a1 = a1 | a2\n   321: a4 = a4 << 0x10\n   324: a5 = a5 << 0x18\n   327: a4 = a4 | a5\n   330: a1 = a1 | a4\n   333: a2 = u8 [a0 + 0x1d]\n   336: a4 = u8 [a0 + 0x1c]\n   339: a5 = u8 [a0 + 0x1e]\n   342: a0 = u8 [a0 + 0x1f]\n   345: a2 = a2 << 0x8\n   348: a2 = a2 | a4\n   351: a5 = a5 << 0x10\n   354: a0 = a0 << 0x18\n   357: a0 = a0 | a5\n   360: a0 = a0 | a2\n   363: a0 = a0 << 0x20\n   366: a0 = a0 | a1\n   369: a0 = reverse a0\n   371: a1 = reverse a3\n   373: a2 = reverse t1\n   375: a3 = reverse t0\n   377: u64 [s0 + 0x18] = a3\n   380: u64 [s0 + 0x10] = a2\n   383: u64 [s0 + 0x8] = a1\n   386: u64 [s0] = a0\n   388: ra = u64 [sp + 0x8]\n   391: s0 = u64 [sp]\n   393: sp = sp + 0x10\n   396: ret\n      : @9 (gas: 12)\n   398: sp = sp + 0xffffffffffffffd8\n   401: u64 [sp + 0x20] = ra\n   404: u64 [sp + 0x18] = s0\n   407: u64 [sp + 0x10] = s1\n   410: a2 = u64 [a1]\n   412: u64 [sp + 0x8] = a2\n   415: a2 = u64 [a1 + 0x8]\n   418: u64 [sp] = a2\n   420: s0 = u64 [a1 + 0x10]\n   423: s1 = u64 [a1 + 0x18]\n   426: a1 = 0x20\n   429: ra = 4, jump @20\n      : @10 [@dyn 2] (gas: 71)\n   434: a1 = reverse s1\n   436: a2 = reverse s0\n   438: a3 = u64 [sp]\n   440: a3 = reverse a3\n   442: a4 = u64 [sp + 0x8]\n   445: a4 = reverse a4\n   447: u8 [a0 + 0x18] = a4\n   450: u8 [a0 + 0x10] = a3\n   453: u8 [a0 + 0x8] = a2\n   456: u8 [a0] = a1\n   458: a5 = a4 >> 0x38\n   461: u8 [a0 + 0x1f] = a5\n   464: a5 = a4 >> 0x30\n   467: u8 [a0 + 0x1e] = a5\n   470: a5 = a4 >> 0x28\n   473: u8 [a0 + 0x1d] = a5\n   476: a5 = a4 >> 0x20\n   479: u8 [a0 + 0x1c] = a5\n   482: a5 = a4 >> 0x18\n   485: u8 [a0 + 0x1b] = a5\n   488: a5 = a4 >> 0x10\n   491: u8 [a0 + 0x1a] = a5\n   494: a4 = a4 >> 0x8\n   497: u8 [a0 + 0x19] = a4\n   500: a4 = a3 >> 0x38\n   503: u8 [a0 + 0x17] = a4\n   506: a4 = a3 >> 0x30\n   509: u8 [a0 + 0x16] = a4\n   512: a4 = a3 >> 0x28\n   515: u8 [a0 + 0x15] = a4\n   518: a4 = a3 >> 0x20\n   521: u8 [a0 + 0x14] = a4\n   524: a4 = a3 >> 0x18\n   527: u8 [a0 + 0x13] = a4\n   530: a4 = a3 >> 0x10\n   533: u8 [a0 + 0x12] = a4\n   536: a3 = a3 >> 0x8\n   539: u8 [a0 + 0x11] = a3\n   542: a3 = a2 >> 0x38\n   545: u8 [a0 + 0xf] = a3\n   548: a3 = a2 >> 0x30\n   551: u8 [a0 + 0xe] = a3\n   554: a3 = a2 >> 0x28\n   557: u8 [a0 + 0xd] = a3\n   560: a3 = a2 >> 0x20\n   563: u8 [a0 + 0xc] = a3\n   566: a3 = a2 >> 0x18\n   569: u8 [a0 + 0xb] = a3\n   572: a3 = a2 >> 0x10\n   575: u8 [a0 + 0xa] = a3\n   578: a2 = a2 >> 0x8\n   581: u8 [a0 + 0x9] = a2\n   584: a2 = a1 >> 0x38\n   587: u8 [a0 + 0x7] = a2\n   590: a2 = a1 >> 0x30\n   593: u8 [a0 + 0x6] = a2\n   596: a2 = a1 >> 0x28\n   599: u8 [a0 + 0x5] = a2\n   602: a2 = a1 >> 0x20\n   605: u8 [a0 + 0x4] = a2\n   608: a2 = a1 >> 0x18\n   611: u8 [a0 + 0x3] = a2\n   614: a2 = a1 >> 0x10\n   617: u8 [a0 + 0x2] = a2\n   620: a1 = a1 >> 0x8\n   623: u8 [a0 + 0x1] = a1\n   626: ra = u64 [sp + 0x20]\n   629: s0 = u64 [sp + 0x18]\n   632: s1 = u64 [sp + 0x10]\n   635: sp = sp + 0x28\n   638: ret\n      : @11 (gas: 48)\n   640: sp = sp + 0xffffffffffffffa0\n   643: u64 [sp + 0x58] = ra\n   646: u64 [sp + 0x50] = s0\n   649: u64 [sp + 0x48] = s1\n   652: s0 = sp + 0x60\n   655: sp = sp & 0xffffffffffffffe0\n   658: s1 = a0\n   660: a0 = u64 [a1 + 0x18]\n   663: a2 = u64 [a1 + 0x10]\n   666: a3 = u64 [a1 + 0x8]\n   669: a1 = u64 [a1]\n   671: a0 = reverse a0\n   673: a2 = reverse a2\n   675: a3 = reverse a3\n   677: a1 = reverse a1\n   679: u64 [sp + 0x18] = a1\n   682: u64 [sp + 0x10] = a3\n   685: u64 [sp + 0x8] = a2\n   688: u64 [sp] = a0\n   690: u64 [sp + 56] = 0\n   693: u64 [sp + 48] = 0\n   696: u64 [sp + 40] = 0\n   699: u64 [sp + 32] = 0\n   702: u32 [sp + 64] = 0x20\n   706: i32 a1 = sp + 0\n   708: i32 a3 = sp + 0x20\n   711: i32 a4 = sp + 0x40\n   714: a2 = 0xffffffffffffffff\n   717: a0 = 0\n   719: ecalli 8 // 'get_storage'\n   721: a0 = u64 [sp + 0x38]\n   724: a1 = u64 [sp + 0x30]\n   727: a2 = u64 [sp + 0x28]\n   730: a3 = u64 [sp + 0x20]\n   733: a0 = reverse a0\n   735: a1 = reverse a1\n   737: a2 = reverse a2\n   739: a3 = reverse a3\n   741: u64 [s1 + 0x18] = a3\n   744: u64 [s1 + 0x10] = a2\n   747: u64 [s1 + 0x8] = a1\n   750: u64 [s1] = a0\n   752: sp = s0 + 0xffffffffffffffa0\n   755: ra = u64 [sp + 0x58]\n   758: s0 = u64 [sp + 0x50]\n   761: s1 = u64 [sp + 0x48]\n   764: sp = sp + 0x60\n   767: ret\n      : @12 (gas: 40)\n   769: sp = sp + 0xffffffffffffffa0\n   772: u64 [sp + 0x58] = ra\n   775: u64 [sp + 0x50] = s0\n   778: s0 = sp + 0x60\n   781: sp = sp & 0xffffffffffffffe0\n   784: t0 = u64 [a0]\n   786: a3 = u64 [a0 + 0x8]\n   789: a4 = u64 [a0 + 0x10]\n   792: a0 = u64 [a0 + 0x18]\n   795: t1 = u64 [a1]\n   797: a2 = u64 [a1 + 0x8]\n   800: a5 = u64 [a1 + 0x10]\n   803: a1 = u64 [a1 + 0x18]\n   806: t2 = reverse a0\n   808: a4 = reverse a4\n   810: a3 = reverse a3\n   812: a0 = reverse t0\n   814: t0 = reverse a1\n   816: a5 = reverse a5\n   818: a2 = reverse a2\n   820: a1 = reverse t1\n   822: u64 [sp + 0x18] = a0\n   825: u64 [sp + 0x10] = a3\n   828: u64 [sp + 0x8] = a4\n   831: u64 [sp] = t2\n   833: u64 [sp + 0x38] = a1\n   836: u64 [sp + 0x30] = a2\n   839: u64 [sp + 0x28] = a5\n   842: u64 [sp + 0x20] = t0\n   845: i32 a1 = sp + 0\n   847: i32 a3 = sp + 0x20\n   850: a2 = 0xffffffffffffffff\n   853: a4 = 0x20\n   856: a0 = 0\n   858: ecalli 16 // 'set_storage'\n   860: sp = s0 + 0xffffffffffffffa0\n   863: ra = u64 [sp + 0x58]\n   866: s0 = u64 [sp + 0x50]\n   869: sp = sp + 0x60\n   872: ret\n      : @13 [@dyn 3] (gas: 35)\n   874: a1 = u64 [sp]\n   876: a1 = reverse a1\n   878: a2 = u64 [sp + 0x8]\n   881: a2 = reverse a2\n   883: a3 = u64 [sp + 0x10]\n   886: a3 = reverse a3\n   888: a4 = u64 [sp + 0x18]\n   891: a4 = reverse a4\n   893: u64 [sp + 0x58] = a4\n   896: u64 [sp + 0x50] = a3\n   899: u64 [sp + 0x48] = a2\n   902: u64 [sp + 0x40] = a1\n   905: a1 = u64 [sp + 0x20]\n   908: a1 = reverse a1\n   910: a2 = u64 [sp + 0x28]\n   913: a2 = reverse a2\n   915: a3 = u64 [sp + 0x30]\n   918: a3 = reverse a3\n   920: a4 = u64 [sp + 0x38]\n   923: a4 = reverse a4\n   925: u64 [sp + 0x78] = a4\n   928: u64 [sp + 0x70] = a3\n   931: u64 [sp + 0x68] = a2\n   934: u64 [sp + 0x60] = a1\n   937: i32 a2 = a0 + 0\n   939: i32 a3 = s1 + 0\n   941: i32 a0 = sp + 0x40\n   944: a1 = 0x2\n   947: ecalli 6 // 'deposit_event'\n   949: sp = s0 + 0xffffffffffffff60\n   953: ra = u64 [sp + 0x98]\n   957: s0 = u64 [sp + 0x90]\n   961: s1 = u64 [sp + 0x88]\n   965: sp = sp + 0xa0\n   969: ret\n      : @14 (gas: 15)\n   971: sp = sp + 0xffffffffffffff20\n   975: u64 [sp + 0xd8] = ra\n   979: u64 [sp + 0xd0] = s0\n   983: u64 [sp + 0xc8] = s1\n   987: s0 = sp + 0xe0\n   991: sp = sp & 0xffffffffffffffe0\n   994: a5 = u64 [a4]\n   996: u64 [sp + 0x40] = a5\n   999: a5 = u64 [a4 + 0x8]\n  1002: u64 [sp + 0x48] = a5\n  1005: a5 = u64 [a4 + 0x10]\n  1008: u64 [sp + 0x50] = a5\n  1011: a4 = u64 [a4 + 0x18]\n  1014: u64 [sp + 0x58] = a4\n  1017: t0 = 8, jump @1269\n      : @15 [@dyn 4] (gas: 2)\n  1023: u64 [sp + 0x38] = a1\n  1026: ra = 10, jump @20\n      : @16 [@dyn 5] (gas: 46)\n  1031: a1 = reverse s1\n  1033: u64 [sp + 0x78] = a1\n  1036: a1 = u64 [sp]\n  1038: a1 = reverse a1\n  1040: u64 [sp + 0x70] = a1\n  1043: a1 = u64 [sp + 0x8]\n  1046: a1 = reverse a1\n  1048: u64 [sp + 0x68] = a1\n  1051: a1 = u64 [sp + 0x10]\n  1054: a1 = reverse a1\n  1056: u64 [sp + 0x60] = a1\n  1059: a1 = u64 [sp + 0x18]\n  1062: a1 = reverse a1\n  1064: u64 [sp + 0x98] = a1\n  1068: a1 = u64 [sp + 0x20]\n  1071: a1 = reverse a1\n  1073: u64 [sp + 0x90] = a1\n  1077: a1 = u64 [sp + 0x28]\n  1080: a1 = reverse a1\n  1082: u64 [sp + 0x88] = a1\n  1086: a1 = u64 [sp + 0x30]\n  1089: a1 = reverse a1\n  1091: u64 [sp + 0x80] = a1\n  1095: a1 = u64 [sp + 0x40]\n  1098: a1 = reverse a1\n  1100: u64 [sp + 0xb8] = a1\n  1104: a1 = u64 [sp + 0x48]\n  1107: a1 = reverse a1\n  1109: u64 [sp + 0xb0] = a1\n  1113: a1 = u64 [sp + 0x50]\n  1116: a1 = reverse a1\n  1118: u64 [sp + 0xa8] = a1\n  1122: a1 = u64 [sp + 0x58]\n  1125: a1 = reverse a1\n  1127: u64 [sp + 0xa0] = a1\n  1131: i32 a2 = a0 + 0\n  1133: a3 = i32 [sp + 0x38]\n  1136: i32 a0 = sp + 0x60\n  1139: a1 = 0x3\n  1142: ecalli 6 // 'deposit_event'\n  1144: sp = s0 + 0xffffffffffffff20\n  1148: ra = u64 [sp + 0xd8]\n  1152: s0 = u64 [sp + 0xd0]\n  1156: s1 = u64 [sp + 0xc8]\n  1160: sp = sp + 0xe0\n  1164: ret\n      : @17 (gas: 23)\n  1166: sp = sp + 0xfffffffffffffee0\n  1170: u64 [sp + 0x118] = ra\n  1174: u64 [sp + 0x110] = s0\n  1178: u64 [sp + 0x108] = s1\n  1182: s0 = sp + 0x120\n  1186: sp = sp & 0xffffffffffffffe0\n  1189: s1 = u64 [a5]\n  1191: u64 [sp + 0x60] = s1\n  1194: s1 = u64 [a5 + 0x8]\n  1197: u64 [sp + 0x68] = s1\n  1200: s1 = u64 [a5 + 0x10]\n  1203: u64 [sp + 0x70] = s1\n  1206: a5 = u64 [a5 + 0x18]\n  1209: u64 [sp + 0x78] = a5\n  1212: a5 = u64 [a4]\n  1214: u64 [sp + 0x38] = a5\n  1217: a5 = u64 [a4 + 0x8]\n  1220: u64 [sp + 0x40] = a5\n  1223: a5 = u64 [a4 + 0x10]\n  1226: u64 [sp + 0x48] = a5\n  1229: a4 = u64 [a4 + 0x18]\n  1232: u64 [sp + 0x50] = a4\n  1235: t0 = 12, jump @1269\n      : @18 [@dyn 6] (gas: 2)\n  1240: u64 [sp + 0x58] = a1\n  1243: ra = 14, jump @20\n      : @19 [@dyn 7] (gas: 58)\n  1248: a1 = reverse s1\n  1250: u64 [sp + 0x98] = a1\n  1254: a1 = u64 [sp]\n  1256: a1 = reverse a1\n  1258: u64 [sp + 0x90] = a1\n  1262: a1 = u64 [sp + 0x8]\n  1265: a1 = reverse a1\n  1267: u64 [sp + 0x88] = a1\n  1271: a1 = u64 [sp + 0x10]\n  1274: a1 = reverse a1\n  1276: u64 [sp + 0x80] = a1\n  1280: a1 = u64 [sp + 0x18]\n  1283: a1 = reverse a1\n  1285: u64 [sp + 0xb8] = a1\n  1289: a1 = u64 [sp + 0x20]\n  1292: a1 = reverse a1\n  1294: u64 [sp + 0xb0] = a1\n  1298: a1 = u64 [sp + 0x28]\n  1301: a1 = reverse a1\n  1303: u64 [sp + 0xa8] = a1\n  1307: a1 = u64 [sp + 0x30]\n  1310: a1 = reverse a1\n  1312: u64 [sp + 0xa0] = a1\n  1316: a1 = u64 [sp + 0x38]\n  1319: a1 = reverse a1\n  1321: u64 [sp + 0xd8] = a1\n  1325: a1 = u64 [sp + 0x40]\n  1328: a1 = reverse a1\n  1330: u64 [sp + 0xd0] = a1\n  1334: a1 = u64 [sp + 0x48]\n  1337: a1 = reverse a1\n  1339: u64 [sp + 0xc8] = a1\n  1343: a1 = u64 [sp + 0x50]\n  1346: a1 = reverse a1\n  1348: u64 [sp + 0xc0] = a1\n  1352: a1 = u64 [sp + 0x60]\n  1355: a1 = reverse a1\n  1357: u64 [sp + 0xf8] = a1\n  1361: a1 = u64 [sp + 0x68]\n  1364: a1 = reverse a1\n  1366: u64 [sp + 0xf0] = a1\n  1370: a1 = u64 [sp + 0x70]\n  1373: a1 = reverse a1\n  1375: u64 [sp + 0xe8] = a1\n  1379: a1 = u64 [sp + 0x78]\n  1382: a1 = reverse a1\n  1384: u64 [sp + 0xe0] = a1\n  1388: i32 a2 = a0 + 0\n  1390: a3 = i32 [sp + 0x58]\n  1393: i32 a0 = sp + 0x80\n  1397: a1 = 0x4\n  1400: ecalli 6 // 'deposit_event'\n  1402: sp = s0 + 0xfffffffffffffee0\n  1406: ra = u64 [sp + 0x118]\n  1410: s0 = u64 [sp + 0x110]\n  1414: s1 = u64 [sp + 0x108]\n  1418: sp = sp + 0x120\n  1422: ret\n      : @20 (gas: 2)\n  1424: i32 a2 = a0 >> 0x10\n  1427: jump @25 if a2 != 0\n      : @21 (gas: 4)\n  1430: a1 = a1 + a0\n  1433: i32 a1 = a1 + 0x1f\n  1436: a1 = a1 & 0xffffffffffffffe0\n  1439: jump @25 if a1 >u 65536\n      : @22 (gas: 3)\n  1445: a2 = 0x20150\n  1450: a3 = i32 [0x20150]\n  1455: jump @24 if a3 >=u a1\n      : @23 (gas: 2)\n  1458: u32 [0x20150] = a1\n  1463: fallthrough\n      : @24 (gas: 4)\n  1464: a1 = 0x20160\n  1469: i32 a0 = a0 + 0\n  1471: a0 = a0 + a1\n  1474: ret\n      : @25 (gas: 1)\n  1476: trap\n      : @26 (gas: 6)\n  1477: sp = sp + 0xfffffffffffffff0\n  1480: u64 [sp + 0x8] = ra\n  1483: u64 [sp] = s0\n  1485: s0 = a0 & 0x1\n  1488: ecalli 3 // 'call_data_size'\n  1490: fallthrough\n      : @27 (gas: 2)\n  1491: u32 [0x2014c] = a0\n  1496: jump @29 if s0 == 0\n      : @28 (gas: 1)\n  1499: ra = 16, jump @30\n      : @29 [@dyn 8] (gas: 1)\n  1503: ra = 18, jump @60\n      : @30 [@dyn 9] (gas: 14)\n  1508: sp = sp + 0xfffffffffffffd60\n  1512: a0 = sp + 0x200\n  1516: u64 [a0 + 0x98] = ra\n  1520: u64 [a0 + 0x90] = s0\n  1524: u64 [a0 + 0x88] = s1\n  1528: s0 = sp + 0x2a0\n  1532: sp = sp & 0xffffffffffffffe0\n  1535: u64 [sp + 440] = 0\n  1539: u64 [sp + 432] = 0\n  1543: u64 [sp + 424] = 0\n  1547: u64 [sp + 416] = 0\n  1551: i32 a0 = sp + 0x1a0\n  1555: ecalli 17 // 'value_transferred'\n  1557: fallthrough\n      : @31 (gas: 8)\n  1558: a0 = u64 [sp + 0x1b0]\n  1562: a1 = u64 [sp + 0x1b8]\n  1566: a2 = u64 [sp + 0x1a8]\n  1570: a3 = u64 [sp + 0x1a0]\n  1574: a1 = a1 | a2\n  1577: a0 = a0 | a3\n  1580: a0 = a0 | a1\n  1583: jump @48 if a0 != 0\n      : @32 (gas: 15)\n  1587: s1 = i32 [0x2014c]\n  1592: a0 = s1 << 0x20\n  1595: a0 = a0 >> 0x20\n  1598: a0 = a0 + 0x1f\n  1601: a0 = a0 & 0xffffffffffffffe0\n  1604: a1 = a0 + 0xa0\n  1608: a0 = a1 <u a0\n  1611: u64 [sp + 408] = 0\n  1615: u64 [sp + 0x180] = a1\n  1619: u64 [sp + 0x188] = a0\n  1623: a0 = 0 if a0 != 0\n  1625: u64 [sp + 0x190] = a0\n  1629: a0 = 0x40\n  1632: a1 = sp + 0x180\n  1636: ra = 20, jump @9\n      : @33 [@dyn 10] (gas: 3)\n  1641: a0 = 0xa0\n  1645: a1 = s1\n  1647: ra = 22, jump @20\n      : @34 [@dyn 11] (gas: 5)\n  1652: i32 a0 = a0 + 0\n  1654: a1 = s1\n  1656: a2 = 0\n  1658: ecalli 1 // 'call_data_copy'\n  1660: fallthrough\n      : @35 (gas: 1)\n  1661: jump @49 if s1 <u 64\n      : @36 (gas: 7)\n  1666: u64 [sp + 344] = 0\n  1670: u64 [sp + 336] = 0\n  1674: u64 [sp + 320] = 0xa0\n  1680: a0 = sp + 0x160\n  1684: a1 = sp + 0x140\n  1688: u64 [sp + 328] = 0\n  1692: ra = 24, jump @1037\n      : @37 [@dyn 12] (gas: 14)\n  1697: a0 = u64 [sp + 0x178]\n  1701: u64 [sp + 0x18] = a0\n  1704: a0 = u64 [sp + 0x170]\n  1708: u64 [sp + 0x10] = a0\n  1711: a0 = u64 [sp + 0x168]\n  1715: u64 [sp + 0x8] = a0\n  1718: s1 = u64 [sp + 0x160]\n  1722: u64 [sp + 280] = 0\n  1726: u64 [sp + 272] = 0\n  1730: u64 [sp + 256] = 0xc0\n  1736: a0 = sp + 0x120\n  1740: a1 = sp + 0x100\n  1744: u64 [sp + 264] = 0\n  1748: ra = 26, jump @1037\n      : @38 [@dyn 13] (gas: 7)\n  1753: a3 = u64 [sp + 0x8]\n  1756: a2 = u64 [sp + 0x10]\n  1759: a0 = a2 << 0x20\n  1762: a0 = a0 >> 0x20\n  1765: a1 = s1 | a3\n  1768: a0 = a0 | a1\n  1771: jump @50 if a0 == 0\n      : @39 (gas: 16)\n  1775: a0 = u64 [sp + 0x130]\n  1779: u64 [sp + 0x38] = a0\n  1782: a0 = u64 [sp + 0x128]\n  1786: u64 [sp + 0x28] = a0\n  1789: a0 = u64 [sp + 0x120]\n  1793: u64 [sp + 0x30] = a0\n  1796: a0 = 0xffffffff\n  1806: u64 [sp + 0x20] = a0\n  1809: u64 [sp + 0xe0] = s1\n  1813: u64 [sp + 0xe8] = a3\n  1817: u64 [sp + 0xf0] = a2\n  1821: a0 = 0x80\n  1825: a1 = sp + 0xe0\n  1829: a2 = u64 [sp + 0x18]\n  1832: u64 [sp + 0xf8] = a2\n  1836: ra = 28, jump @9\n      : @40 [@dyn 14] (gas: 25)\n  1841: s1 = 0x30160\n  1846: i32 a0 = s1 + 0\n  1848: ecalli 4 // 'caller'\n  1850: a0 = u64 [0x30168]\n  1855: a1 = i32 [0x30170]\n  1860: a2 = u64 [0x30160]\n  1865: a0 = reverse a0\n  1867: a3 = a0 << 0x20\n  1870: a1 = reverse a1\n  1872: a1 = a1 >> 0x20\n  1875: a1 = a1 | a3\n  1878: u64 [sp + 0x18] = a1\n  1881: a0 = a0 >> 0x20\n  1884: a1 = reverse a2\n  1886: s1 = a1 << 0x20\n  1889: a0 = a0 | s1\n  1892: u64 [sp + 0x10] = a0\n  1895: s1 = a1 >> 0x20\n  1898: u64 [sp + 472] = 0\n  1902: u64 [sp + 464] = 0\n  1906: u64 [sp + 456] = 0\n  1910: u64 [sp + 448] = 0x1\n  1915: a0 = sp + 0xc0\n  1919: a1 = sp + 0x1c0\n  1923: ra = 30, jump @11\n      : @41 [@dyn 15] (gas: 18)\n  1928: a0 = u32 [sp + 0xd4]\n  1932: a0 = a0 << 0x20\n  1935: a1 = u64 [sp + 0xd8]\n  1939: a0 = a0 | s1\n  1942: u64 [sp + 504] = 0\n  1946: u64 [sp + 496] = 0\n  1950: u64 [sp + 488] = 0\n  1954: u64 [sp + 480] = 0x1\n  1959: a2 = sp + 0x200\n  1963: u64 [a2 + 0x18] = a1\n  1966: a1 = u64 [sp + 0x10]\n  1969: u64 [a2 + 0x8] = a1\n  1972: a1 = u64 [sp + 0x18]\n  1975: u64 [a2] = a1\n  1977: u64 [a2 + 0x10] = a0\n  1980: a0 = sp + 0x1e0\n  1984: a1 = sp + 0x200\n  1988: ra = 32, jump @12\n      : @42 [@dyn 16] (gas: 10)\n  1993: a0 = u64 [sp + 0x28]\n  1996: a2 = a0 & 0xffffffffffffffff\n  1999: a0 = u64 [sp + 0x30]\n  2002: a1 = a0 & 0xffffffffffffffff\n  2005: a0 = u64 [sp + 0x38]\n  2008: s1 = u64 [sp + 0x20]\n  2011: s1 = s1 & a0\n  2014: a0 = a1 | s1\n  2017: a0 = a0 | a2\n  2020: jump @45 if a0 == 0\n      : @43 (gas: 12)\n  2023: a0 = 0xffffffff00000000\n  2033: u64 [sp + 0x38] = a0\n  2036: a0 = sp + 0x200\n  2040: u64 [a0 + 56] = 0\n  2043: u64 [a0 + 48] = 0\n  2046: u64 [a0 + 40] = 0\n  2049: u64 [a0 + 32] = 0\n  2052: a0 = sp + 0xa0\n  2056: u64 [sp + 0x30] = a1\n  2059: a1 = sp + 0x220\n  2063: u64 [sp + 0x28] = a2\n  2066: ra = 34, jump @11\n      : @44 [@dyn 17] (gas: 20)\n  2071: a0 = u64 [sp + 0xb8]\n  2075: a1 = u64 [sp + 0xb0]\n  2079: a0 = a0 & 0xffffffffffffffff\n  2082: a2 = u64 [sp + 0x38]\n  2085: a1 = a1 & a2\n  2088: a1 = a1 | s1\n  2091: a3 = sp + 0x200\n  2095: u64 [a3 + 88] = 0\n  2098: u64 [a3 + 80] = 0\n  2101: u64 [a3 + 72] = 0\n  2104: u64 [a3 + 64] = 0\n  2107: a2 = u64 [sp + 0x28]\n  2110: u64 [a3 + 0x68] = a2\n  2113: a2 = u64 [sp + 0x30]\n  2116: u64 [a3 + 0x60] = a2\n  2119: u64 [a3 + 0x78] = a0\n  2122: u64 [a3 + 0x70] = a1\n  2125: a0 = sp + 0x240\n  2129: a1 = sp + 0x260\n  2133: ra = 36, jump @12\n      : @45 [@dyn 18] (gas: 3)\n  2138: a0 = sp + 0x80\n  2142: a1 = 0x40\n  2145: ra = 38, jump @7\n      : @46 [@dyn 19] (gas: 12)\n  2150: a0 = u64 [sp + 0x98]\n  2154: a1 = u64 [sp + 0x90]\n  2158: a2 = u64 [sp + 0x88]\n  2162: s1 = u64 [sp + 0x80]\n  2166: a0 = a0 | a2\n  2169: a2 = s1 | a1\n  2172: a2 = a2 | a0\n  2175: a2 = a2 >> 0x20\n  2178: a0 = a0 | a1\n  2181: a0 = a0 << 0x20\n  2184: a0 = a0 | a2\n  2187: jump @54 if a0 == 0\n      : @47 (gas: 1)\n  2190: trap\n      : @48 (gas: 4)\n  2191: a1 = 0x20160\n  2196: i32 a1 = a1 + 0\n  2198: a0 = 0x1\n  2201: jump @59\n      : @49 (gas: 4)\n  2204: a1 = 0x20160\n  2209: i32 a1 = a1 + 0\n  2211: a0 = 0x1\n  2214: jump @59\n      : @50 (gas: 8)\n  2217: u64 [sp + 80] = 0\n  2220: u64 [sp + 72] = 0\n  2223: u64 [sp + 64] = 0\n  2226: a0 = 0x14bcf5c800000000\n  2236: a1 = sp + 0x40\n  2239: u64 [sp + 0x58] = a0\n  2242: a0 = 0\n  2244: ra = 40, jump @9\n      : @51 [@dyn 20] (gas: 2)\n  2249: a1 = i32 [0x20150]\n  2254: jump @53 if a1 >u 31\n      : @52 (gas: 2)\n  2258: u32 [0x20150] = 0x20\n  2264: fallthrough\n      : @53 (gas: 6)\n  2265: a1 = 0x20160\n  2270: i32 a1 = a1 + 0\n  2272: a0 = 0x1\n  2275: a2 = 0x4\n  2278: ecalli 14 // 'seal_return'\n  2280: fallthrough\n      : @54 (gas: 3)\n  2281: a0 = s1\n  2283: a1 = 0\n  2285: ra = 42, jump @20\n      : @55 [@dyn 21] (gas: 7)\n  2290: i32 a0 = a0 + 0\n  2292: a1 = 0\n  2294: a2 = 0\n  2296: ecalli 1 // 'call_data_copy'\n  2298: a0 = sp + 0x60\n  2301: a1 = 0x80\n  2305: ra = 44, jump @7\n      : @56 [@dyn 22] (gas: 9)\n  2310: a0 = u64 [sp + 0x78]\n  2313: a2 = u64 [sp + 0x70]\n  2316: a3 = u64 [sp + 0x68]\n  2319: a4 = u64 [sp + 0x60]\n  2322: u64 [0x30198] = a0\n  2327: u64 [0x30190] = a2\n  2332: u64 [0x30188] = a3\n  2337: u64 [0x30180] = a4\n  2342: jump @5\n      : @57 (gas: 3)\n  2345: a0 = s1\n  2347: a1 = 0\n  2349: ra = 46, jump @20\n      : @58 [@dyn 23] (gas: 6)\n  2354: i32 a1 = a0 + 0\n  2356: a0 = 0\n  2358: a2 = 0\n  2360: ra = 0x30\n  2363: ecalli 14 // 'seal_return'\n  2365: jump @60\n      : @59 (gas: 4)\n  2367: a2 = 0\n  2369: ra = 0x30\n  2372: ecalli 14 // 'seal_return'\n  2374: fallthrough\n      : @60 [@dyn 24] (gas: 11)\n  2375: sp = sp + 0xfffffffffffffe10\n  2379: u64 [sp + 0x1e8] = ra\n  2383: u64 [sp + 0x1e0] = s0\n  2387: u64 [sp + 0x1d8] = s1\n  2391: s0 = sp + 0x1f0\n  2395: sp = sp + 0xffffffffffffdaf0\n  2399: sp = sp & 0xffffffffffffffe0\n  2402: s1 = sp\n  2404: t0 = 0x32\n  2407: a2 = s1 + 0x1878\n  2411: fallthrough\n      : @61 [@dyn 25] (gas: 7)\n  2412: u64 [a2 + 1440] = 0\n  2416: u64 [a2 + 1432] = 0\n  2420: u64 [a2 + 1416] = 0x80\n  2426: a0 = 0x40\n  2429: a1 = s1 + 0x1e00\n  2433: u64 [a2 + 1424] = 0\n  2437: ra = 52, jump @9\n      : @62 [@dyn 26] (gas: 4)\n  2442: a0 = 0x2014c\n  2447: u64 [s1 + 0xf8] = a0\n  2451: a0 = i32 [0x2014c]\n  2456: jump @64 if a0 >=u 4\n      : @63 (gas: 1)\n  2460: jump @1009\n      : @64 (gas: 8)\n  2463: a0 = s1 + 0x2000\n  2467: i32 a0 = a0 + 0xfffffffffffffe20\n  2471: a1 = 0\n  2473: ra = 0x36\n  2476: ecalli 2 // 'call_data_load'\n  2478: t0 = 0x38\n  2481: a3 = s1 + 0x1878\n  2485: jump @66\n      : @65 [@dyn 27] (gas: 3)\n  2487: t0 = 0x38\n  2490: a3 = s1 + 0x1878\n  2494: fallthrough\n      : @66 [@dyn 28] (gas: 2)\n  2495: a0 = i32 [a3 + 0x5c4]\n  2499: jump @68 if a0 != 2376452955\n      : @67 (gas: 1)\n  2506: jump @337\n      : @68 (gas: 1)\n  2509: jump @175 if a0 == 2573362740\n      : @69 (gas: 2)\n  2517: a2 = s1 + 0x2078\n  2521: jump @121 if a0 == 2822282762\n      : @70 (gas: 1)\n  2529: jump @72 if a0 != 3504541104\n      : @71 (gas: 1)\n  2536: jump @379\n      : @72 (gas: 1)\n  2539: jump @211 if a0 == 3916516871\n      : @73 (gas: 1)\n  2547: jump @75 if a0 != 248271711\n      : @74 (gas: 1)\n  2554: jump @409\n      : @75 (gas: 1)\n  2557: jump @77 if a0 != 573237126\n      : @76 (gas: 1)\n  2564: jump @268\n      : @77 (gas: 1)\n  2567: jump @79 if a0 != 832302164\n      : @78 (gas: 1)\n  2574: jump @349\n      : @79 (gas: 1)\n  2577: jump @81 if a0 != 969217301\n      : @80 (gas: 1)\n  2584: jump @310\n      : @81 (gas: 1)\n  2587: jump @153 if a0 == 1221342904\n      : @82 (gas: 1)\n  2595: jump @84 if a0 != 1251080110\n      : @83 (gas: 1)\n  2602: jump @258\n      : @84 (gas: 1)\n  2605: jump @86 if a0 != 1287362804\n      : @85 (gas: 1)\n  2612: jump @247\n      : @86 (gas: 1)\n  2615: jump @88 if a0 == 1326608131\n      : @87 (gas: 1)\n  2622: jump @296\n      : @88 (gas: 8)\n  2625: u64 [a2 + 256] = 0\n  2629: u64 [a2 + 248] = 0\n  2633: u64 [a2 + 240] = 0\n  2637: u64 [a2 + 232] = 0\n  2641: a0 = s1 + 0x2000\n  2645: i32 a0 = a0 + 0x160\n  2649: ecalli 17 // 'value_transferred'\n  2651: fallthrough\n      : @89 (gas: 9)\n  2652: a3 = s1 + 0x2078\n  2656: a0 = u64 [a3 + 0xf8]\n  2660: a1 = u64 [a3 + 0x100]\n  2664: a2 = u64 [a3 + 0xf0]\n  2668: a3 = u64 [a3 + 0xe8]\n  2672: a1 = a1 | a2\n  2675: a0 = a0 | a3\n  2678: a0 = a0 | a1\n  2681: jump @91 if a0 == 0\n      : @90 (gas: 1)\n  2684: jump @651\n      : @91 (gas: 3)\n  2687: a0 = u64 [s1 + 0xf8]\n  2691: a0 = i32 [a0]\n  2693: jump @93 if a0 >u 99\n      : @92 (gas: 1)\n  2697: jump @652\n      : @93 (gas: 5)\n  2700: a0 = s1 + 0x2000\n  2704: i32 a0 = a0 + 0x180\n  2708: a1 = 0x4\n  2711: ecalli 2 // 'call_data_load'\n  2713: fallthrough\n      : @94 (gas: 12)\n  2714: a2 = s1 + 0x2078\n  2718: a4 = a2 + 0x100\n  2722: a0 = u64 [a4 + 0x20]\n  2725: a1 = u64 [a4 + 0x18]\n  2728: a3 = u64 [a4 + 0x8]\n  2731: a2 = u64 [a4 + 0x10]\n  2734: a0 = a0 | a1\n  2737: u64 [s1 + 0xf8] = a3\n  2741: a1 = a3 <u 0x100\n  2745: a1 = 0 if a2 != 0\n  2747: a1 = 0 if a0 != 0\n  2749: jump @96 if a1 != 0\n      : @95 (gas: 1)\n  2752: jump @653\n      : @96 (gas: 5)\n  2755: a0 = s1 + 0x2000\n  2759: i32 a0 = a0 + 0x1a0\n  2763: a1 = 0x24\n  2766: ecalli 2 // 'call_data_load'\n  2768: fallthrough\n      : @97 (gas: 12)\n  2769: a2 = s1 + 0x2078\n  2773: a4 = a2 + 0x100\n  2777: a0 = u64 [a4 + 0x40]\n  2780: a1 = u64 [a4 + 0x38]\n  2783: a3 = u64 [a4 + 0x28]\n  2786: a2 = u64 [a4 + 0x30]\n  2789: a0 = a0 | a1\n  2792: u64 [s1 + 0xe8] = a3\n  2796: a1 = a3 <u 0x100\n  2800: a1 = 0 if a2 != 0\n  2802: a1 = 0 if a0 != 0\n  2804: jump @99 if a1 != 0\n      : @98 (gas: 1)\n  2807: jump @654\n      : @99 (gas: 5)\n  2810: a0 = s1 + 0x2000\n  2814: i32 a0 = a0 + 0x1c0\n  2818: a1 = 0x44\n  2821: ecalli 2 // 'call_data_load'\n  2823: fallthrough\n      : @100 (gas: 10)\n  2824: a0 = s1 + 0x2078\n  2828: t0 = u64 [a0 + 0x160]\n  2832: a1 = a0 + 0x100\n  2836: a4 = u64 [a1 + 0x58]\n  2839: a5 = u64 [a1 + 0x50]\n  2842: a3 = u64 [a1 + 0x48]\n  2845: a0 = a5 | t0\n  2848: a1 = a3 | a4\n  2851: a0 = a0 | a1\n  2854: jump @102 if a0 != 0\n      : @101 (gas: 1)\n  2857: jump @655\n      : @102 (gas: 3)\n  2860: a1 = u8 [s1 + 0xf8]\n  2864: a2 = u8 [s1 + 0xe8]\n  2868: jump @104 if a1 != a2\n      : @103 (gas: 1)\n  2871: jump @659\n      : @104 (gas: 6)\n  2874: u64 [s1 + 0xf8] = a3\n  2878: u64 [s1 + 0xd0] = a5\n  2882: u64 [s1 + 0xd8] = a4\n  2886: u64 [s1 + 0xe0] = t0\n  2890: u64 [s1 + 0xc0] = a1\n  2894: jump @106 if a1 <=u 1\n      : @105 (gas: 1)\n  2898: jump @647\n      : @106 (gas: 1)\n  2901: jump @108 if a2 <u 3\n      : @107 (gas: 1)\n  2905: jump @647\n      : @108 (gas: 10)\n  2908: u64 [s1 + 0x78] = a2\n  2911: a0 = 0x30160\n  2916: u64 [s1 + 0xc8] = a0\n  2920: i32 a0 = a0 + 0\n  2922: u64 [s1 + 0xa0] = a0\n  2926: ra = 0x3a\n  2929: ecalli 4 // 'caller'\n  2931: a2 = u64 [s1 + 0xc8]\n  2935: t0 = 0x3c\n  2938: jump @1241\n      : @109 [@dyn 29] (gas: 2)\n  2941: a2 = u64 [s1 + 0xc8]\n  2945: t0 = 60, jump @1241\n      : @110 [@dyn 30] (gas: 9)\n  2950: u64 [a2 + 1248] = 0\n  2954: a4 = a2 + 0x400\n  2958: u64 [a4 + 0xd8] = a1\n  2962: u64 [a4 + 0xd0] = a0\n  2966: a1 = s1 + 0x7ff\n  2970: a1 = a1 + 0x541\n  2974: u64 [a4 + 0xc8] = a3\n  2978: a0 = 0\n  2980: ra = 62, jump @9\n      : @111 [@dyn 31] (gas: 11)\n  2985: a1 = s1 + 0x7ff\n  2989: a1 = a1 + 0x79\n  2992: u64 [a1 + 1216] = 0\n  2996: u64 [a1 + 1208] = 0\n  3000: u64 [a1 + 1192] = 0x2\n  3005: a2 = a1\n  3007: a0 = 0x20\n  3010: a1 = s1 + 0x7ff\n  3014: a1 = a1 + 0x521\n  3018: u64 [a2 + 1200] = 0\n  3022: ra = 64, jump @9\n      : @112 [@dyn 32] (gas: 7)\n  3027: a0 = sp + 0xffffffffffffffe0\n  3030: a0 = a0 & 0xffffffffffffffe0\n  3033: u64 [s1 + 0xf0] = a0\n  3037: sp = a0\n  3039: a2 = 0x20150\n  3044: a0 = i32 [0x20150]\n  3049: jump @114 if a0 >u 63\n      : @113 (gas: 2)\n  3053: u32 [0x20150] = 0x40\n  3059: fallthrough\n      : @114 (gas: 13)\n  3060: u64 [s1 + 0x70] = a2\n  3063: a0 = sp + 0xffffffffffffffe0\n  3066: a2 = a0 & 0xffffffffffffffe0\n  3069: u64 [s1 + 0xb8] = a2\n  3073: sp = a2\n  3075: a0 = 0x20160\n  3080: u64 [s1 + 0x98] = a0\n  3084: i32 a0 = a0 + 0\n  3086: i32 a2 = a2 + 0\n  3088: a1 = 0x40\n  3091: u64 [s1 + 0x80] = a0\n  3095: ecalli 9 // 'hash_keccak_256'\n  3097: fallthrough\n      : @115 (gas: 22)\n  3098: a2 = u64 [s1 + 0xb8]\n  3102: a0 = u64 [a2 + 0x18]\n  3105: a1 = u64 [a2 + 0x10]\n  3108: a4 = u64 [a2 + 0x8]\n  3111: a3 = u64 [a2]\n  3113: a2 = reverse a0\n  3115: a5 = reverse a1\n  3117: a4 = reverse a4\n  3119: a3 = reverse a3\n  3121: a1 = u64 [s1 + 0xf0]\n  3125: u64 [a1 + 0x18] = a3\n  3128: u64 [a1 + 0x10] = a4\n  3131: u64 [a1 + 0x8] = a5\n  3134: u64 [a1] = a2\n  3136: t1 = a2 + 0x2\n  3139: a0 = u64 [s1 + 0xc0]\n  3143: u64 [s1 + 0xb8] = a4\n  3147: u64 [s1 + 0x90] = a3\n  3151: u64 [s1 + 0xb0] = a5\n  3155: u64 [s1 + 0x88] = t1\n  3159: u64 [s1 + 0xa8] = a2\n  3163: jump @117 if a0 == 0\n      : @116 (gas: 1)\n  3166: jump @442\n      : @117 (gas: 3)\n  3169: a0 = s1 + 0x7ff\n  3173: a0 = a0 + 0x4c1\n  3177: ra = 66, jump @11\n      : @118 [@dyn 33] (gas: 25)\n  3182: a0 = s1 + 0x7ff\n  3186: a0 = a0 + 0x79\n  3189: ra = u64 [a0 + 0x450]\n  3193: t0 = u64 [a0 + 0x460]\n  3197: a1 = u64 [a0 + 0x448]\n  3201: a5 = u64 [a0 + 0x458]\n  3205: t2 = u64 [s1 + 0xd0]\n  3209: a0 = ra ^ t2\n  3212: a4 = ra <u t2\n  3215: u64 [s1 + 0x68] = a1\n  3218: a2 = u64 [s1 + 0xf8]\n  3222: a1 = a1 <u a2\n  3225: u64 [s1 + 0x60] = a1\n  3228: a4 = a1 if a0 == 0\n  3231: t1 = u64 [s1 + 0xd8]\n  3235: a1 = a5 <u t1\n  3238: a2 = u64 [s1 + 0xe0]\n  3242: a3 = t0 ^ a2\n  3245: a0 = t0 <u a2\n  3248: u64 [s1 + 0x58] = a1\n  3251: a0 = a1 if a3 == 0\n  3254: a1 = a5 ^ t1\n  3257: a1 = a1 | a3\n  3260: a0 = a4 if a1 == 0\n  3263: jump @120 if a0 == 0\n      : @119 (gas: 1)\n  3266: jump @727\n      : @120 (gas: 23)\n  3269: a0 = a5 - t1\n  3272: a1 = t0 - a2\n  3275: a2 = u64 [s1 + 0x58]\n  3278: a1 = a1 - a2\n  3281: a2 = a0 <u a4\n  3284: a1 = a1 - a2\n  3287: a0 = a0 - a4\n  3290: a2 = ra - t2\n  3293: a3 = u64 [s1 + 0x60]\n  3296: a2 = a2 - a3\n  3299: a3 = u64 [s1 + 0x68]\n  3302: a4 = u64 [s1 + 0xf8]\n  3306: a3 = a3 - a4\n  3309: a4 = s1 + 0x2078\n  3313: a5 = a4 + 0x100\n  3317: u64 [a5 + 0x88] = a3\n  3321: u64 [a5 + 0x90] = a2\n  3325: u64 [a5 + 0x98] = a0\n  3329: u64 [a5 + 0xa0] = a1\n  3333: a1 = s1 + 0x2200\n  3337: a0 = u64 [s1 + 0xf0]\n  3341: ra = 0x186\n  3345: jump @12\n      : @121 (gas: 10)\n  3348: u64 [a2 + 1056] = 0\n  3352: u64 [a2 + 1048] = 0\n  3356: u64 [a2 + 1040] = 0\n  3360: u64 [a2 + 1032] = 0\n  3364: a0 = s1 + 0x2000\n  3368: i32 a0 = a0 + 0x480\n  3372: ra = 0x44\n  3375: ecalli 17 // 'value_transferred'\n  3377: t0 = 0x46\n  3380: jump @1267\n      : @122 [@dyn 34] (gas: 1)\n  3383: t0 = 70, jump @1267\n      : @123 [@dyn 35] (gas: 1)\n  3388: t0 = 72, jump @1291\n      : @124 [@dyn 36] (gas: 1)\n  3393: jump @126 if a0 == 0\n      : @125 (gas: 1)\n  3396: jump @663\n      : @126 (gas: 3)\n  3399: a0 = u64 [s1 + 0xf8]\n  3403: a0 = i32 [a0]\n  3405: jump @128 if a0 >u 67\n      : @127 (gas: 1)\n  3409: jump @664\n      : @128 (gas: 4)\n  3412: a0 = s1 + 0x15e0\n  3416: ra = 0x4a\n  3419: t0 = 0x416\n  3423: jump @1286\n      : @129 [@dyn 37] (gas: 11)\n  3426: a1 = s1 + 0x1078\n  3430: a0 = u64 [a1 + 0x568]\n  3434: u64 [s1 + 0xf0] = a0\n  3438: a0 = u64 [a1 + 0x570]\n  3442: u64 [s1 + 0xe8] = a0\n  3446: a0 = u32 [a1 + 0x578]\n  3450: u64 [s1 + 0xe0] = a0\n  3454: a0 = s1 + 0x15c0\n  3458: ra = 0x4c\n  3461: t0 = 0x420\n  3465: jump @1292\n      : @130 [@dyn 38] (gas: 3)\n  3468: t0 = 0x4e\n  3471: a2 = s1 + 0x1078\n  3475: fallthrough\n      : @131 [@dyn 39] (gas: 13)\n  3476: a3 = a2 + 0x500\n  3480: a0 = u64 [a3 + 0x48]\n  3483: u64 [s1 + 0xf8] = a0\n  3487: u64 [a2 + 1344] = 0\n  3491: a0 = u64 [s1 + 0xe0]\n  3495: u64 [a3 + 0x38] = a0\n  3498: a0 = u64 [s1 + 0xe8]\n  3502: u64 [a3 + 0x30] = a0\n  3505: a1 = s1 + 0x15a0\n  3509: a0 = u64 [s1 + 0xf0]\n  3513: u64 [a3 + 0x28] = a0\n  3516: a0 = 0\n  3518: ra = 80, jump @9\n      : @132 [@dyn 40] (gas: 3)\n  3523: t0 = 0x52\n  3526: a1 = s1 + 0x1078\n  3530: fallthrough\n      : @133 [@dyn 41] (gas: 8)\n  3531: u64 [a1 + 1312] = 0\n  3535: u64 [a1 + 1304] = 0\n  3539: u64 [a1 + 1288] = 0x6\n  3544: a2 = a1\n  3546: a0 = 0x20\n  3549: a1 = s1 + 0x1580\n  3553: u64 [a2 + 1296] = 0\n  3557: ra = 84, jump @9\n      : @134 [@dyn 42] (gas: 3)\n  3562: a1 = 0x20150\n  3567: a0 = i32 [0x20150]\n  3572: jump @136 if a0 >u 63\n      : @135 (gas: 2)\n  3576: u32 [0x20150] = 0x40\n  3582: fallthrough\n      : @136 (gas: 14)\n  3583: a0 = sp + 0xffffffffffffffe0\n  3586: a2 = a0 & 0xffffffffffffffe0\n  3589: u64 [s1 + 0xe0] = a2\n  3593: sp = a2\n  3595: a0 = 0x20160\n  3600: i32 a0 = a0 + 0\n  3602: i32 a2 = a2 + 0\n  3604: u64 [s1 + 0xf0] = a1\n  3608: a1 = 0x40\n  3611: u64 [s1 + 0xe8] = a0\n  3615: ra = 0x56\n  3618: ecalli 9 // 'hash_keccak_256'\n  3620: t0 = 0x58\n  3623: jump @1245\n      : @137 [@dyn 43] (gas: 1)\n  3626: t0 = 88, jump @1245\n      : @138 [@dyn 44] (gas: 3)\n  3631: t0 = 0x5a\n  3634: a2 = s1 + 0x1078\n  3638: fallthrough\n      : @139 [@dyn 45] (gas: 8)\n  3639: u64 [a2 + 1280] = 0\n  3643: u64 [a2 + 1272] = 0\n  3647: u64 [a2 + 1264] = 0\n  3651: a1 = s1 + 0x1560\n  3655: a0 = u64 [s1 + 0xf8]\n  3659: u64 [a2 + 0x4e8] = a0\n  3663: a0 = 0\n  3665: ra = 92, jump @9\n      : @140 [@dyn 46] (gas: 14)\n  3670: a0 = u64 [s1 + 0xc0]\n  3674: a1 = s1 + 0x1078\n  3678: a2 = a1 + 0x400\n  3682: u64 [a2 + 0xe0] = a0\n  3686: a0 = u64 [s1 + 0xc8]\n  3690: u64 [a2 + 0xd8] = a0\n  3694: a0 = u64 [s1 + 0xd0]\n  3698: u64 [a2 + 0xd0] = a0\n  3702: a3 = a1\n  3704: a0 = 0x20\n  3707: a1 = s1 + 0x1540\n  3711: a2 = u64 [s1 + 0xd8]\n  3715: u64 [a3 + 0x4c8] = a2\n  3719: ra = 94, jump @9\n      : @141 [@dyn 47] (gas: 3)\n  3724: a1 = u64 [s1 + 0xf0]\n  3728: a0 = i32 [a1]\n  3730: jump @143 if a0 >u 63\n      : @142 (gas: 2)\n  3734: u32 [a1 + 0] = 0x40\n  3737: fallthrough\n      : @143 (gas: 4)\n  3738: a0 = sp + 0xffffffffffffffe0\n  3741: a0 = a0 & 0xffffffffffffffe0\n  3744: u64 [s1 + 0xf8] = a0\n  3748: t0 = 96, jump @1256\n      : @144 [@dyn 48] (gas: 4)\n  3753: ra = 0x62\n  3756: ecalli 9 // 'hash_keccak_256'\n  3758: t0 = 0x64\n  3761: jump @1248\n      : @145 [@dyn 49] (gas: 1)\n  3764: t0 = 100, jump @1248\n      : @146 [@dyn 50] (gas: 2)\n  3769: a0 = s1 + 0x1520\n  3773: ra = 102, jump @11\n      : @147 [@dyn 51] (gas: 3)\n  3778: t0 = 0x68\n  3781: a1 = s1 + 0x1078\n  3785: fallthrough\n      : @148 [@dyn 52] (gas: 12)\n  3786: a2 = a1 + 0x400\n  3790: a0 = u64 [a2 + 0xc0]\n  3794: u64 [s1 + 0xf8] = a0\n  3798: a0 = u64 [a2 + 0xb8]\n  3802: u64 [s1 + 0xf0] = a0\n  3806: a0 = u64 [a2 + 0xb0]\n  3810: u64 [s1 + 0xe8] = a0\n  3814: a0 = u64 [a2 + 0xa8]\n  3818: u64 [s1 + 0xe0] = a0\n  3822: a0 = s1 + 0x1500\n  3826: a1 = 0x40\n  3829: ra = 106, jump @7\n      : @149 [@dyn 53] (gas: 3)\n  3834: a3 = s1 + 0x1078\n  3838: a5 = a3 + 0x400\n  3842: t0 = 108, jump @1281\n      : @150 [@dyn 54] (gas: 1)\n  3847: jump @152 if a0 == 0\n      : @151 (gas: 1)\n  3850: jump @646\n      : @152 (gas: 14)\n  3853: a0 = u64 [s1 + 0xe0]\n  3857: a2 = a3 + 0x400\n  3861: u64 [a2 + 0x68] = a0\n  3864: a0 = u64 [s1 + 0xe8]\n  3868: u64 [a2 + 0x70] = a0\n  3871: a0 = u64 [s1 + 0xf0]\n  3875: u64 [a2 + 0x78] = a0\n  3878: a1 = s1 + 0x14e0\n  3882: a0 = u64 [s1 + 0xf8]\n  3886: u64 [a2 + 0x80] = a0\n  3890: a0 = a4\n  3892: u64 [s1 + 0xf8] = a4\n  3896: ra = 0x138\n  3900: jump @9\n      : @153 (gas: 10)\n  3903: u64 [a3 + 1984] = 0\n  3907: u64 [a3 + 1976] = 0\n  3911: u64 [a3 + 1968] = 0\n  3915: u64 [a3 + 1960] = 0\n  3919: a0 = s1 + 0x2000\n  3923: i32 a0 = a0 + 0x20\n  3926: ra = 0x6e\n  3929: ecalli 17 // 'value_transferred'\n  3931: t0 = 0x70\n  3934: jump @1287\n      : @154 [@dyn 55] (gas: 1)\n  3937: t0 = 112, jump @1287\n      : @155 [@dyn 56] (gas: 8)\n  3942: a0 = u64 [a4 + 0xb8]\n  3946: a1 = u64 [a4 + 0xc0]\n  3950: a2 = u64 [a4 + 0xb0]\n  3954: a3 = u64 [a4 + 0xa8]\n  3958: a1 = a1 | a2\n  3961: a0 = a0 | a3\n  3964: a0 = a0 | a1\n  3967: jump @157 if a0 == 0\n      : @156 (gas: 1)\n  3970: jump @665\n      : @157 (gas: 3)\n  3973: a0 = u64 [s1 + 0xf8]\n  3977: a0 = i32 [a0]\n  3979: jump @159 if a0 >u 35\n      : @158 (gas: 1)\n  3983: jump @666\n      : @159 (gas: 7)\n  3986: a0 = s1 + 0x2000\n  3990: i32 a0 = a0 + 0x40\n  3993: a1 = 0x4\n  3996: ra = 0x72\n  3999: ecalli 2 // 'call_data_load'\n  4001: t0 = 0x74\n  4004: jump @1287\n      : @160 [@dyn 57] (gas: 1)\n  4007: t0 = 116, jump @1287\n      : @161 [@dyn 58] (gas: 7)\n  4012: a0 = u64 [a4 + 0xe0]\n  4016: a1 = u64 [a4 + 0xd8]\n  4020: a2 = u64 [a4 + 0xd0]\n  4024: a0 = a0 | a1\n  4027: a1 = a2 <u 0x1\n  4030: a1 = 0 if a0 != 0\n  4032: jump @163 if a1 != 0\n      : @162 (gas: 1)\n  4035: jump @667\n      : @163 (gas: 6)\n  4038: a0 = u64 [a3 + 0x7c8]\n  4042: u64 [s1 + 0x38] = a0\n  4045: a0 = s1 + 0x2000\n  4049: i32 a0 = a0 + 0x60\n  4052: ecalli 10 // 'now'\n  4054: fallthrough\n      : @164 (gas: 50)\n  4055: a0 = s1 + 0x2078\n  4059: t2 = u64 [a0]\n  4061: a3 = u64 [a0 + 0xfffffffffffffff8]\n  4064: u64 [s1 + 0xb0] = a3\n  4068: a1 = s1 + 0x1878\n  4072: t0 = u64 [a1 + 0x7f0]\n  4076: ra = u64 [a0 + 0xffffffffffffffe8]\n  4079: a0 = clz t2\n  4081: a1 = clz a3\n  4083: a2 = a1 + 0x40\n  4086: a2 = a0 if t2 != 0\n  4089: a0 = clz t0\n  4091: a1 = clz ra\n  4093: a1 = a1 + 0x40\n  4096: a1 = a0 if t0 != 0\n  4099: a0 = a1 + 0x80\n  4103: a3 = a3 | t2\n  4106: a2 = a0 if a3 == 0\n  4109: a5 = a0 <u a1\n  4112: a5 = 0 if a3 != 0\n  4114: a4 = a5 >u 0\n  4116: a0 = a2 <u 0xf0\n  4120: a3 = a0 ^ 0x1\n  4123: a4 = a3 if a5 == 0\n  4126: a0 = a4 <u 0x1\n  4129: a0 = a0 + 0xffffffffffffffff\n  4132: a1 = -a4\n  4134: a5 = -a5\n  4136: a3 = a5 - a3\n  4139: t1 = 0xef - a2\n  4143: u64 [s1 + 0xf8] = a1\n  4147: a5 = a1 >u 0\n  4149: a1 = a0 >u 0\n  4151: a1 = a5 if a0 == 0\n  4154: a5 = t1 <u 0x100\n  4158: a5 = a5 ^ 0x1\n  4161: a2 = a3 >u 0\n  4163: a5 = a2 if a3 != 0\n  4166: a5 = a1 if a4 != 0\n  4169: u64 [s1 + 0xa0] = t2\n  4173: u64 [s1 + 0xb8] = t0\n  4177: a1 = t0 | t2\n  4180: t2 = u64 [s1 + 0xb0]\n  4184: a2 = ra | t2\n  4187: a1 = a1 | a2\n  4190: a1 = a1 <u 0x1\n  4193: a1 = a1 | a5\n  4196: a4 = ra\n  4198: a4 = 0 if a1 != 0\n  4200: jump @166 if a1 == 0\n      : @165 (gas: 1)\n  4203: jump @479\n      : @166 (gas: 6)\n  4206: a1 = t1 ^ 0xff\n  4210: a5 = u64 [s1 + 0xf8]\n  4214: a1 = a1 | a5\n  4217: a2 = a3 | a0\n  4220: a1 = a1 | a2\n  4223: jump @168 if a1 != 0\n      : @167 (gas: 1)\n  4226: jump @479\n      : @168 (gas: 20)\n  4229: t0 = ra\n  4231: a2 = t1 + 0x1\n  4234: u64 [s1 + 0xf0] = a2\n  4238: a1 = a2 <u 0x1\n  4241: a1 = a1 + a3\n  4244: u64 [s1 + 0xe0] = a1\n  4248: a1 = a1 | a2\n  4251: a1 = a1 <u 0x1\n  4254: a1 = a1 + a5\n  4257: u64 [s1 + 0xd0] = a1\n  4261: a1 = a1 <u a5\n  4264: a0 = a0 + a1\n  4267: u64 [s1 + 0xd8] = a0\n  4271: a1 = 0xff - t1\n  4275: u64 [s1 + 0xc8] = a1\n  4279: a2 = 0x80 - a1\n  4283: a0 = ra\n  4285: u64 [s1 + 0xa8] = t0\n  4289: a1 = u64 [s1 + 0xb8]\n  4293: ra = 118, jump @1293\n      : @169 [@dyn 59] (gas: 6)\n  4298: u64 [s1 + 0xc0] = a0\n  4302: u64 [s1 + 0xf8] = a1\n  4306: a0 = u64 [s1 + 0xb0]\n  4310: a1 = u64 [s1 + 0xa0]\n  4314: a2 = u64 [s1 + 0xc8]\n  4318: ra = 120, jump @1298\n      : @170 [@dyn 60] (gas: 7)\n  4323: u64 [s1 + 0x90] = a0\n  4327: u64 [s1 + 0x88] = a1\n  4331: a0 = u64 [s1 + 0xc8]\n  4335: a2 = a0 + 0xffffffffffffff80\n  4338: a0 = u64 [s1 + 0xa8]\n  4342: a1 = u64 [s1 + 0xb8]\n  4346: ra = 122, jump @1298\n      : @171 [@dyn 61] (gas: 8)\n  4351: u64 [s1 + 0x80] = a0\n  4355: u64 [s1 + 0x78] = a1\n  4358: a2 = u64 [s1 + 0xc8]\n  4362: a0 = a2 <u 0x80\n  4366: u64 [s1 + 0x98] = a0\n  4370: a0 = u64 [s1 + 0xa8]\n  4374: a1 = u64 [s1 + 0xb8]\n  4378: ra = 124, jump @1298\n      : @172 [@dyn 62] (gas: 11)\n  4383: a4 = u64 [s1 + 0x98]\n  4387: t0 = u64 [s1 + 0xd0]\n  4391: a5 = u64 [s1 + 0xd8]\n  4395: a2 = u64 [s1 + 0xe0]\n  4399: a5 = a5 | a2\n  4402: a3 = u64 [s1 + 0xf0]\n  4406: a3 = a3 | t0\n  4409: a3 = a3 | a5\n  4412: a0 = 0 if a4 == 0\n  4414: u64 [s1 + 0xe8] = a0\n  4418: jump @174 if a3 == 0\n      : @173 (gas: 1)\n  4421: jump @470\n      : @174 (gas: 2)\n  4424: a4 = 0\n  4426: jump @478\n      : @175 (gas: 11)\n  4429: a0 = s1 + 0x2078\n  4433: u64 [a0 + 768] = 0\n  4437: u64 [a0 + 760] = 0\n  4441: u64 [a0 + 752] = 0\n  4445: u64 [a0 + 744] = 0\n  4449: a0 = s1 + 0x2000\n  4453: i32 a0 = a0 + 0x360\n  4457: ra = 0x7e\n  4460: ecalli 17 // 'value_transferred'\n  4462: t0 = 0x80\n  4466: jump @1272\n      : @176 [@dyn 63] (gas: 1)\n  4469: t0 = 128, jump @1272\n      : @177 [@dyn 64] (gas: 8)\n  4475: a0 = u64 [a4 + 0xf8]\n  4479: a1 = u64 [a3 + 0x300]\n  4483: a2 = u64 [a4 + 0xf0]\n  4487: a3 = u64 [a4 + 0xe8]\n  4491: a1 = a1 | a2\n  4494: a0 = a0 | a3\n  4497: a0 = a0 | a1\n  4500: jump @179 if a0 == 0\n      : @178 (gas: 1)\n  4503: jump @668\n      : @179 (gas: 3)\n  4506: a0 = u64 [s1 + 0xf8]\n  4510: a0 = i32 [a0]\n  4512: jump @181 if a0 >u 67\n      : @180 (gas: 1)\n  4516: jump @669\n      : @181 (gas: 4)\n  4519: a0 = s1 + 0x1020\n  4523: ra = 0x82\n  4527: t0 = 0x416\n  4531: jump @1286\n      : @182 [@dyn 65] (gas: 14)\n  4534: a0 = s1 + 0x7ff\n  4538: a0 = a0 + 0x79\n  4541: a2 = a0 + 0x700\n  4545: a1 = u64 [a2 + 0xb8]\n  4549: u64 [s1 + 0xc8] = a1\n  4553: a1 = u64 [a2 + 0xb0]\n  4557: u64 [s1 + 0xd8] = a1\n  4561: a0 = u64 [a2 + 0xa8]\n  4565: u64 [s1 + 0xd0] = a0\n  4569: a0 = s1 + 0x2000\n  4573: i32 a0 = a0 + 0x380\n  4577: a1 = 0x24\n  4580: ecalli 2 // 'call_data_load'\n  4582: fallthrough\n      : @183 (gas: 18)\n  4583: a0 = s1 + 0x2078\n  4587: a5 = a0 + 0x300\n  4591: a4 = u64 [a5 + 0x20]\n  4594: a3 = u64 [a5 + 0x18]\n  4597: a2 = u64 [a5 + 0x10]\n  4600: a1 = u64 [a5 + 0x8]\n  4603: u64 [s1 + 0xf0] = a2\n  4607: u64 [s1 + 0xe0] = a4\n  4611: a0 = a2 | a4\n  4614: u64 [s1 + 0xf8] = a1\n  4618: a1 = a1 | a3\n  4621: a1 = a1 | a0\n  4624: a1 = a1 >> 0x20\n  4627: u64 [s1 + 0xe8] = a3\n  4631: a0 = a0 | a3\n  4634: a0 = a0 << 0x20\n  4637: a0 = a0 | a1\n  4640: jump @185 if a0 == 0\n      : @184 (gas: 1)\n  4643: jump @670\n      : @185 (gas: 15)\n  4646: a0 = u64 [s1 + 0xc8]\n  4650: a0 = a0 << 0x20\n  4653: a0 = a0 >> 0x20\n  4656: a2 = s1 + 0x7ff\n  4660: a2 = a2 + 0x79\n  4663: u64 [a2 + 1952] = 0\n  4667: a1 = u64 [s1 + 0xd0]\n  4671: a3 = a2 + 0x700\n  4675: u64 [a3 + 0x88] = a1\n  4679: a1 = u64 [s1 + 0xd8]\n  4683: u64 [a3 + 0x90] = a1\n  4687: a1 = s1 + 0x1000\n  4691: u64 [a3 + 0x98] = a0\n  4695: a0 = 0\n  4697: ra = 132, jump @9\n      : @186 [@dyn 66] (gas: 11)\n  4703: a1 = s1 + 0x7ff\n  4707: a1 = a1 + 0x79\n  4710: u64 [a1 + 1920] = 0\n  4714: u64 [a1 + 1912] = 0\n  4718: u64 [a1 + 1896] = 0x3\n  4723: a2 = a1\n  4725: a0 = 0x20\n  4728: a1 = s1 + 0x7ff\n  4732: a1 = a1 + 0x7e1\n  4736: u64 [a2 + 1904] = 0\n  4740: ra = 134, jump @9\n      : @187 [@dyn 67] (gas: 3)\n  4746: a1 = 0x20150\n  4751: a0 = i32 [0x20150]\n  4756: jump @189 if a0 >u 63\n      : @188 (gas: 2)\n  4760: u32 [0x20150] = 0x40\n  4766: fallthrough\n      : @189 (gas: 14)\n  4767: a0 = sp + 0xffffffffffffffe0\n  4770: a2 = a0 & 0xffffffffffffffe0\n  4773: u64 [s1 + 0xc8] = a2\n  4777: sp = a2\n  4779: a0 = 0x20160\n  4784: i32 a0 = a0 + 0\n  4786: i32 a2 = a2 + 0\n  4788: u64 [s1 + 0xd8] = a1\n  4792: a1 = 0x40\n  4795: u64 [s1 + 0xd0] = a0\n  4799: ra = 0x88\n  4803: ecalli 9 // 'hash_keccak_256'\n  4805: t0 = 0x8a\n  4809: jump @1273\n      : @190 [@dyn 68] (gas: 1)\n  4812: t0 = 138, jump @1273\n      : @191 [@dyn 69] (gas: 22)\n  4818: u64 [s1 + 0xb0] = a0\n  4822: a0 = reverse a3\n  4824: u64 [s1 + 0xa8] = a0\n  4828: a0 = sp + 0xffffffffffffffe0\n  4831: a0 = a0 & 0xffffffffffffffe0\n  4834: u64 [s1 + 0xc8] = a0\n  4838: sp = a0\n  4840: a2 = s1 + 0x7ff\n  4844: a2 = a2 + 0x79\n  4847: a0 = u64 [s1 + 0xe0]\n  4851: a3 = a2 + 0x700\n  4855: u64 [a3 + 0x60] = a0\n  4858: a0 = u64 [s1 + 0xe8]\n  4862: u64 [a3 + 0x58] = a0\n  4865: a0 = u64 [s1 + 0xf0]\n  4869: u64 [a3 + 0x50] = a0\n  4872: a1 = s1 + 0x7ff\n  4876: a1 = a1 + 0x7c1\n  4880: a0 = u64 [s1 + 0xf8]\n  4884: u64 [a3 + 0x48] = a0\n  4887: a0 = 0\n  4889: ra = 140, jump @9\n      : @192 [@dyn 70] (gas: 16)\n  4895: a1 = s1 + 0x7ff\n  4899: a1 = a1 + 0x79\n  4902: a0 = u64 [s1 + 0xa8]\n  4906: a2 = a1 + 0x700\n  4910: u64 [a2 + 0x40] = a0\n  4913: a0 = u64 [s1 + 0xb0]\n  4917: u64 [a2 + 0x38] = a0\n  4920: a0 = u64 [s1 + 0xb8]\n  4924: u64 [a2 + 0x30] = a0\n  4927: a3 = a1\n  4929: a0 = 0x20\n  4932: a1 = s1 + 0x7ff\n  4936: a1 = a1 + 0x7a1\n  4940: a2 = u64 [s1 + 0xc0]\n  4944: u64 [a3 + 0x728] = a2\n  4948: ra = 142, jump @9\n      : @193 [@dyn 71] (gas: 3)\n  4954: a1 = u64 [s1 + 0xd8]\n  4958: a0 = i32 [a1]\n  4960: jump @195 if a0 >u 63\n      : @194 (gas: 2)\n  4964: u32 [a1 + 0] = 0x40\n  4967: fallthrough\n      : @195 (gas: 11)\n  4968: a0 = sp + 0xffffffffffffffe0\n  4971: a0 = a0 & 0xffffffffffffffe0\n  4974: u64 [s1 + 0xf8] = a0\n  4978: sp = a0\n  4980: i32 a2 = a0 + 0\n  4982: a1 = 0x40\n  4985: a0 = u64 [s1 + 0xd0]\n  4989: ra = 0x90\n  4993: ecalli 9 // 'hash_keccak_256'\n  4995: t0 = 0x92\n  4999: jump @1288\n      : @196 [@dyn 72] (gas: 1)\n  5002: t0 = 146, jump @1288\n      : @197 [@dyn 73] (gas: 15)\n  5008: u64 [s1 + 0xe0] = a5\n  5012: a4 = reverse a1\n  5014: u64 [s1 + 0xe8] = a4\n  5018: a2 = reverse a2\n  5020: u64 [s1 + 0xf0] = a2\n  5024: a0 = reverse a3\n  5026: u64 [s1 + 0xf8] = a0\n  5030: a1 = u64 [s1 + 0xc8]\n  5034: u64 [a1 + 0x18] = a0\n  5037: u64 [a1 + 0x10] = a2\n  5040: u64 [a1 + 0x8] = a4\n  5043: u64 [a1] = a5\n  5045: a0 = s1 + 0x7ff\n  5049: a0 = a0 + 0x781\n  5053: ra = 148, jump @11\n      : @198 [@dyn 74] (gas: 34)\n  5059: a1 = s1 + 0x7ff\n  5063: a1 = a1 + 0x79\n  5066: a2 = a1 + 0x700\n  5070: a0 = u64 [a2 + 0x20]\n  5073: u64 [s1 + 0xd8] = a0\n  5077: a0 = u64 [a2 + 0x18]\n  5080: u64 [s1 + 0xd0] = a0\n  5084: a0 = u64 [a2 + 0x10]\n  5087: a5 = a1\n  5089: u64 [s1 + 0xc8] = a0\n  5093: a0 = u64 [s1 + 0xe0]\n  5097: a0 = a0 + 0x1\n  5100: a1 = a0 <u 0x1\n  5103: a2 = u64 [s1 + 0xe8]\n  5107: a1 = a1 + a2\n  5110: a2 = a0 | a1\n  5113: a2 = a2 <u 0x1\n  5116: a3 = u64 [s1 + 0xf0]\n  5120: a2 = a2 + a3\n  5123: a3 = a2 <u a3\n  5126: a4 = u64 [s1 + 0xf8]\n  5130: a3 = a3 + a4\n  5133: a4 = u64 [a5 + 0x708]\n  5137: u64 [s1 + 0xf8] = a4\n  5141: a4 = s1 + 0x2078\n  5145: a5 = a4 + 0x300\n  5149: u64 [a5 + 0x30] = a1\n  5152: u64 [a5 + 0x28] = a0\n  5155: u64 [a5 + 0x38] = a2\n  5158: u64 [a5 + 0x40] = a3\n  5161: a0 = s1 + 0x7ff\n  5165: a0 = a0 + 0x761\n  5169: a1 = s1 + 0x23a0\n  5173: ra = 150, jump @11\n      : @199 [@dyn 75] (gas: 10)\n  5179: a1 = s1 + 0x7ff\n  5183: a1 = a1 + 0x79\n  5186: a0 = u64 [a1 + 0x6f0]\n  5190: u64 [s1 + 0xc0] = a0\n  5194: a0 = u64 [a1 + 0x6e8]\n  5198: u64 [s1 + 0xe0] = a0\n  5202: a0 = s1 + 0x7ff\n  5206: a0 = a0 + 0x741\n  5210: a1 = 0x40\n  5213: ra = 152, jump @7\n      : @200 [@dyn 76] (gas: 15)\n  5219: a2 = s1 + 0x7ff\n  5223: a2 = a2 + 0x79\n  5226: t0 = u64 [a2 + 0x6e0]\n  5230: a1 = a2 + 0x600\n  5234: a5 = u64 [a1 + 0xd8]\n  5238: a4 = u64 [a1 + 0xd0]\n  5242: a0 = u64 [a1 + 0xc8]\n  5246: a3 = a4 | t0\n  5249: a1 = a0 | a5\n  5252: a1 = a1 | a3\n  5255: a1 = a1 >> 0x20\n  5258: a3 = a3 | a5\n  5261: a3 = a3 << 0x20\n  5264: a1 = a1 | a3\n  5267: jump @202 if a1 == 0\n      : @201 (gas: 1)\n  5270: jump @646\n      : @202 (gas: 15)\n  5273: a1 = u64 [s1 + 0xf8]\n  5277: u64 [a2 + 0x6a8] = a1\n  5281: a1 = u64 [s1 + 0xc8]\n  5285: u64 [a2 + 0x6b0] = a1\n  5289: a1 = u64 [s1 + 0xd0]\n  5293: u64 [a2 + 0x6b8] = a1\n  5297: a1 = s1 + 0x7ff\n  5301: a1 = a1 + 0x721\n  5305: a3 = u64 [s1 + 0xd8]\n  5309: u64 [a2 + 0x6c0] = a3\n  5313: u64 [s1 + 0xf0] = a0\n  5317: u64 [s1 + 0xe8] = a4\n  5321: u64 [s1 + 0xd8] = t0\n  5325: u64 [s1 + 0xf8] = a5\n  5329: ra = 154, jump @9\n      : @203 [@dyn 77] (gas: 11)\n  5335: a2 = u64 [s1 + 0xe8]\n  5339: a1 = u64 [s1 + 0xf0]\n  5343: a0 = u64 [s1 + 0xf8]\n  5347: a3 = u64 [s1 + 0xd8]\n  5351: a3 = a3 | a0\n  5354: a4 = 0x100000000\n  5364: a0 = 0xffffffe0\n  5374: a0 = a1 <u a0\n  5377: a0 = 0 if a2 != 0\n  5379: a0 = 0 if a3 != 0\n  5381: jump @205 if a0 != 0\n      : @204 (gas: 1)\n  5384: jump @646\n      : @205 (gas: 14)\n  5387: i32 a0 = a1 + 0x20\n  5390: a1 = s1 + 0x7ff\n  5394: a1 = a1 + 0x79\n  5397: u64 [s1 + 0xf8] = a3\n  5401: a3 = a1\n  5403: u64 [a1 + 1696] = 0\n  5407: u64 [a1 + 1688] = 0\n  5411: a1 = u64 [s1 + 0xe0]\n  5415: u64 [a3 + 0x688] = a1\n  5419: a1 = s1 + 0x7ff\n  5423: a1 = a1 + 0x701\n  5427: u64 [a3 + 1680] = 0\n  5431: u64 [s1 + 0xe0] = a4\n  5435: ra = 156, jump @9\n      : @206 [@dyn 78] (gas: 9)\n  5441: a2 = u64 [s1 + 0xf0]\n  5445: a0 = u64 [s1 + 0xe0]\n  5449: a0 = a0 + 0xffffffffffffffc0\n  5452: a0 = a2 <u a0\n  5455: a1 = u64 [s1 + 0xe8]\n  5459: a0 = 0 if a1 != 0\n  5461: a1 = u64 [s1 + 0xf8]\n  5465: a0 = 0 if a1 != 0\n  5467: jump @208 if a0 != 0\n      : @207 (gas: 1)\n  5470: jump @646\n      : @208 (gas: 12)\n  5473: a0 = u8 [s1 + 0xc0]\n  5477: a1 = a0 >u 0\n  5479: i32 a0 = a2 + 0x40\n  5482: a3 = s1 + 0x7ff\n  5486: a3 = a3 + 0x79\n  5489: u64 [a3 + 1664] = 0\n  5493: u64 [a3 + 1656] = 0\n  5497: u64 [a3 + 0x668] = a1\n  5501: a1 = s1 + 0x7ff\n  5505: a1 = a1 + 0x6e1\n  5509: u64 [a3 + 1648] = 0\n  5513: ra = 158, jump @9\n      : @209 [@dyn 79] (gas: 3)\n  5519: a1 = 0x60\n  5522: a0 = u64 [s1 + 0xf0]\n  5526: ra = 160, jump @20\n      : @210 [@dyn 80] (gas: 5)\n  5532: i32 a1 = a0 + 0\n  5534: a2 = 0x60\n  5537: a0 = 0\n  5539: ecalli 14 // 'seal_return'\n  5541: jump @379\n      : @211 (gas: 10)\n  5544: u64 [a2 + 1280] = 0\n  5548: u64 [a2 + 1272] = 0\n  5552: u64 [a2 + 1264] = 0\n  5556: u64 [a2 + 1256] = 0\n  5560: a0 = s1 + 0x2000\n  5564: i32 a0 = a0 + 0x560\n  5568: ra = 0xa2\n  5572: ecalli 17 // 'value_transferred'\n  5574: t0 = 0xa4\n  5578: jump @1267\n      : @212 [@dyn 81] (gas: 1)\n  5581: t0 = 164, jump @1267\n      : @213 [@dyn 82] (gas: 8)\n  5587: a0 = u64 [a4 + 0xf8]\n  5591: a1 = u64 [a3 + 0x500]\n  5595: a2 = u64 [a4 + 0xf0]\n  5599: a3 = u64 [a4 + 0xe8]\n  5603: a1 = a1 | a2\n  5606: a0 = a0 | a3\n  5609: a0 = a0 | a1\n  5612: jump @215 if a0 == 0\n      : @214 (gas: 1)\n  5615: jump @671\n      : @215 (gas: 3)\n  5618: a0 = u64 [s1 + 0xf8]\n  5622: a0 = i32 [a0]\n  5624: jump @217 if a0 >u 35\n      : @216 (gas: 1)\n  5628: jump @672\n      : @217 (gas: 5)\n  5631: a0 = s1 + 0x2000\n  5635: i32 a0 = a0 + 0x580\n  5639: a1 = 0x4\n  5642: ecalli 2 // 'call_data_load'\n  5644: fallthrough\n      : @218 (gas: 14)\n  5645: a0 = s1 + 0x2078\n  5649: a5 = a0 + 0x500\n  5653: a1 = u64 [a5 + 0x20]\n  5656: a2 = u64 [a5 + 0x18]\n  5659: a3 = u64 [a5 + 0x10]\n  5662: a4 = u64 [a5 + 0x8]\n  5665: u64 [s1 + 0x58] = a1\n  5668: u64 [s1 + 0x48] = a3\n  5671: a0 = a3 | a1\n  5674: u64 [s1 + 0x50] = a2\n  5677: u64 [s1 + 0x40] = a4\n  5680: a1 = a4 | a2\n  5683: a0 = a0 | a1\n  5686: jump @220 if a0 != 0\n      : @219 (gas: 1)\n  5689: jump @673\n      : @220 (gas: 9)\n  5692: a0 = 0x30160\n  5697: u64 [s1 + 0x80] = a0\n  5701: i32 a0 = a0 + 0\n  5703: u64 [s1 + 0x28] = a0\n  5706: ra = 0xa6\n  5710: ecalli 4 // 'caller'\n  5712: a2 = u64 [s1 + 0x80]\n  5716: t0 = 0xa8\n  5720: jump @1242\n      : @221 [@dyn 83] (gas: 2)\n  5723: a2 = u64 [s1 + 0x80]\n  5727: t0 = 168, jump @1242\n      : @222 [@dyn 84] (gas: 8)\n  5733: u64 [a2 + 1280] = 0\n  5737: a4 = a2 + 0x400\n  5741: u64 [a4 + 0xf8] = a1\n  5745: u64 [a4 + 0xf0] = a0\n  5749: a1 = s1 + 0x1d60\n  5753: u64 [a4 + 0xe8] = a3\n  5757: a0 = 0\n  5759: ra = 170, jump @9\n      : @223 [@dyn 85] (gas: 9)\n  5765: a1 = s1 + 0x1878\n  5769: u64 [a1 + 1248] = 0\n  5773: u64 [a1 + 1240] = 0\n  5777: u64 [a1 + 1224] = 0x4\n  5782: a2 = a1\n  5784: a0 = 0x20\n  5787: a1 = s1 + 0x1d40\n  5791: u64 [a2 + 1232] = 0\n  5795: ra = 172, jump @9\n      : @224 [@dyn 86] (gas: 7)\n  5801: a0 = sp + 0xffffffffffffffe0\n  5804: a0 = a0 & 0xffffffffffffffe0\n  5807: u64 [s1 + 0xf8] = a0\n  5811: sp = a0\n  5813: a2 = 0x20150\n  5818: a0 = i32 [0x20150]\n  5823: jump @226 if a0 >u 63\n      : @225 (gas: 2)\n  5827: u32 [0x20150] = 0x40\n  5833: fallthrough\n      : @226 (gas: 16)\n  5834: u64 [s1 + 0x30] = a2\n  5837: a0 = 0xffffffff\n  5847: u64 [s1 + 0x60] = a0\n  5850: a0 = sp + 0xffffffffffffffe0\n  5853: a2 = a0 & 0xffffffffffffffe0\n  5856: u64 [s1 + 0xf0] = a2\n  5860: sp = a2\n  5862: a0 = 0x20160\n  5867: i32 a0 = a0 + 0\n  5869: i32 a2 = a2 + 0\n  5871: a1 = 0x40\n  5874: u64 [s1 + 0x38] = a0\n  5877: ra = 0xae\n  5881: ecalli 9 // 'hash_keccak_256'\n  5883: t0 = 0xb0\n  5887: jump @1260\n      : @227 [@dyn 87] (gas: 1)\n  5890: t0 = 176, jump @1260\n      : @228 [@dyn 88] (gas: 3)\n  5896: i32 a0 = a0 + 0xfffffffffffffd20\n  5900: a0 = a0 + s1\n  5903: ra = 178, jump @11\n      : @229 [@dyn 89] (gas: 4)\n  5909: a0 = s1 + 0x1878\n  5913: a2 = u32 [a0 + 0x4a8]\n  5917: a0 = u64 [s1 + 0x60]\n  5920: jump @231 if a2 != a0\n      : @230 (gas: 1)\n  5923: jump @678\n      : @231 (gas: 11)\n  5926: a1 = a2 + 0x1\n  5929: u64 [s1 + 0x70] = a1\n  5932: a0 = a1 <u 0x1\n  5935: u64 [s1 + 0x68] = a0\n  5938: a0 = a0 | a1\n  5941: a0 = a0 <u 0x1\n  5944: u64 [s1 + 0x78] = a0\n  5947: a0 = s1 + 0x1d00\n  5951: u64 [s1 + 0xf0] = a2\n  5955: a1 = u64 [s1 + 0xf8]\n  5959: ra = 180, jump @11\n      : @232 [@dyn 90] (gas: 22)\n  5965: a3 = s1 + 0x1878\n  5969: a0 = u32 [a3 + 0x48c]\n  5973: a4 = a3 + 0x400\n  5977: a1 = u64 [a4 + 0x98]\n  5981: a0 = a0 << 0x20\n  5984: a2 = u64 [a4 + 0x90]\n  5988: a3 = u64 [a4 + 0xa0]\n  5992: a4 = u64 [s1 + 0x78]\n  5995: a1 = a1 | a4\n  5998: a4 = u64 [s1 + 0x70]\n  6001: a0 = a0 | a4\n  6004: a4 = u64 [s1 + 0x68]\n  6007: a2 = a2 | a4\n  6010: a4 = s1 + 0x2078\n  6014: a5 = a4 + 0x500\n  6018: u64 [a5 + 0x40] = a3\n  6021: u64 [a5 + 0x30] = a2\n  6024: u64 [a5 + 0x28] = a0\n  6027: u64 [a5 + 0x38] = a1\n  6030: a1 = s1 + 0x25a0\n  6034: a0 = u64 [s1 + 0xf8]\n  6038: ra = 182, jump @12\n      : @233 [@dyn 91] (gas: 2)\n  6044: a1 = u64 [s1 + 0xf0]\n  6048: jump @235 if a1 <=u 254\n      : @234 (gas: 1)\n  6053: jump @680\n      : @235 (gas: 4)\n  6056: a0 = s1 + 0x2000\n  6060: i32 a0 = a0 + 0x5c0\n  6064: ecalli 10 // 'now'\n  6066: fallthrough\n      : @236 (gas: 49)\n  6067: a0 = s1 + 0x2078\n  6071: t2 = u64 [a0 + 0x560]\n  6075: a3 = u64 [a0 + 0x558]\n  6079: u64 [s1 + 0xb8] = a3\n  6083: t0 = u64 [a0 + 0x550]\n  6087: ra = u64 [a0 + 0x548]\n  6091: a0 = clz t2\n  6093: a1 = clz a3\n  6095: a2 = a1 + 0x40\n  6098: a2 = a0 if t2 != 0\n  6101: a0 = clz t0\n  6103: a1 = clz ra\n  6105: a1 = a1 + 0x40\n  6108: a1 = a0 if t0 != 0\n  6111: a0 = a1 + 0x80\n  6115: a3 = a3 | t2\n  6118: a2 = a0 if a3 == 0\n  6121: a5 = a0 <u a1\n  6124: a5 = 0 if a3 != 0\n  6126: a4 = a5 >u 0\n  6128: a0 = a2 <u 0xf0\n  6132: a3 = a0 ^ 0x1\n  6135: a4 = a3 if a5 == 0\n  6138: a0 = a4 <u 0x1\n  6141: a0 = a0 + 0xffffffffffffffff\n  6144: a1 = -a4\n  6146: a5 = -a5\n  6148: a3 = a5 - a3\n  6151: t1 = 0xef - a2\n  6155: u64 [s1 + 0xf8] = a1\n  6159: a5 = a1 >u 0\n  6161: a1 = a0 >u 0\n  6163: a1 = a5 if a0 == 0\n  6166: a5 = t1 <u 0x100\n  6170: a5 = a5 ^ 0x1\n  6173: a2 = a3 >u 0\n  6175: a5 = a2 if a3 != 0\n  6178: a5 = a1 if a4 != 0\n  6181: u64 [s1 + 0xa0] = t2\n  6185: a1 = t0 | t2\n  6188: t2 = t0\n  6190: a4 = u64 [s1 + 0xb8]\n  6194: a2 = ra | a4\n  6197: a1 = a1 | a2\n  6200: a1 = a1 <u 0x1\n  6203: a1 = a1 | a5\n  6206: t0 = ra\n  6208: ra = 0 if a1 != 0\n  6210: jump @238 if a1 == 0\n      : @237 (gas: 1)\n  6213: jump @583\n      : @238 (gas: 6)\n  6216: a1 = t1 ^ 0xff\n  6220: a5 = u64 [s1 + 0xf8]\n  6224: a1 = a1 | a5\n  6227: a2 = a3 | a0\n  6230: a1 = a1 | a2\n  6233: jump @240 if a1 != 0\n      : @239 (gas: 1)\n  6236: jump @583\n      : @240 (gas: 20)\n  6239: a2 = t1 + 0x1\n  6242: u64 [s1 + 0xf0] = a2\n  6246: a1 = a2 <u 0x1\n  6249: a1 = a1 + a3\n  6252: u64 [s1 + 0xe0] = a1\n  6256: a1 = a1 | a2\n  6259: a1 = a1 <u 0x1\n  6262: a1 = a1 + a5\n  6265: u64 [s1 + 0xd0] = a1\n  6269: a1 = a1 <u a5\n  6272: a0 = a0 + a1\n  6275: u64 [s1 + 0xd8] = a0\n  6279: a1 = 0xff - t1\n  6283: u64 [s1 + 0xc8] = a1\n  6287: a2 = 0x80 - a1\n  6291: a0 = t0\n  6293: u64 [s1 + 0xb0] = t0\n  6297: a1 = t2\n  6299: u64 [s1 + 0xa8] = t2\n  6303: ra = 184, jump @1293\n      : @241 [@dyn 92] (gas: 6)\n  6309: u64 [s1 + 0xc0] = a0\n  6313: u64 [s1 + 0xf8] = a1\n  6317: a0 = u64 [s1 + 0xb8]\n  6321: a1 = u64 [s1 + 0xa0]\n  6325: a2 = u64 [s1 + 0xc8]\n  6329: ra = 186, jump @1298\n      : @242 [@dyn 93] (gas: 7)\n  6335: u64 [s1 + 0x90] = a0\n  6339: u64 [s1 + 0x88] = a1\n  6343: a0 = u64 [s1 + 0xc8]\n  6347: a2 = a0 + 0xffffffffffffff80\n  6350: a0 = u64 [s1 + 0xb0]\n  6354: a1 = u64 [s1 + 0xa8]\n  6358: ra = 188, jump @1298\n      : @243 [@dyn 94] (gas: 8)\n  6364: u64 [s1 + 0x20] = a0\n  6367: u64 [s1 + 0x18] = a1\n  6370: a2 = u64 [s1 + 0xc8]\n  6374: a0 = a2 <u 0x80\n  6378: u64 [s1 + 0x98] = a0\n  6382: a0 = u64 [s1 + 0xb0]\n  6386: a1 = u64 [s1 + 0xa8]\n  6390: ra = 190, jump @1298\n      : @244 [@dyn 95] (gas: 11)\n  6396: a4 = u64 [s1 + 0x98]\n  6400: t0 = u64 [s1 + 0xd0]\n  6404: a5 = u64 [s1 + 0xd8]\n  6408: a2 = u64 [s1 + 0xe0]\n  6412: a5 = a5 | a2\n  6415: a3 = u64 [s1 + 0xf0]\n  6419: a3 = a3 | t0\n  6422: a3 = a3 | a5\n  6425: a0 = 0 if a4 == 0\n  6427: u64 [s1 + 0xe8] = a0\n  6431: jump @246 if a3 == 0\n      : @245 (gas: 1)\n  6434: jump @574\n      : @246 (gas: 2)\n  6437: a5 = 0\n  6439: jump @582\n      : @247 (gas: 8)\n  6442: u64 [a2 + 192] = 0\n  6446: u64 [a2 + 184] = 0\n  6450: u64 [a2 + 176] = 0\n  6454: u64 [a2 + 168] = 0\n  6458: a0 = s1 + 0x2000\n  6462: i32 a0 = a0 + 0x120\n  6466: ecalli 17 // 'value_transferred'\n  6468: fallthrough\n      : @248 (gas: 9)\n  6469: a3 = s1 + 0x2078\n  6473: a0 = u64 [a3 + 0xb8]\n  6477: a1 = u64 [a3 + 0xc0]\n  6481: a2 = u64 [a3 + 0xb0]\n  6485: a3 = u64 [a3 + 0xa8]\n  6489: a1 = a1 | a2\n  6492: a0 = a0 | a3\n  6495: a0 = a0 | a1\n  6498: jump @250 if a0 == 0\n      : @249 (gas: 1)\n  6501: jump @685\n      : @250 (gas: 3)\n  6504: a0 = u64 [s1 + 0xf8]\n  6508: a0 = i32 [a0]\n  6510: jump @252 if a0 >u 3\n      : @251 (gas: 1)\n  6514: jump @686\n      : @252 (gas: 9)\n  6517: a0 = s1 + 0x2078\n  6521: u64 [a0 + 224] = 0\n  6525: u64 [a0 + 216] = 0\n  6529: u64 [a0 + 208] = 0\n  6533: u64 [a0 + 200] = 0\n  6537: a0 = s1 + 0x7ff\n  6541: a0 = a0 + 0x2a1\n  6545: a1 = s1 + 0x2140\n  6549: ra = 192, jump @11\n      : @253 [@dyn 96] (gas: 13)\n  6555: a1 = s1 + 0x7ff\n  6559: a1 = a1 + 0x79\n  6562: a2 = a1 + 0x200\n  6566: a0 = u64 [a2 + 0x38]\n  6569: u64 [s1 + 0xe8] = a0\n  6573: a0 = u64 [a2 + 0x30]\n  6576: u64 [s1 + 0xf8] = a0\n  6580: a0 = u64 [a2 + 0x28]\n  6583: u64 [s1 + 0xf0] = a0\n  6587: a0 = s1 + 0x7ff\n  6591: a0 = a0 + 0x281\n  6595: a1 = 0x40\n  6598: ra = 194, jump @7\n      : @254 [@dyn 97] (gas: 8)\n  6604: a3 = s1 + 0x7ff\n  6608: a3 = a3 + 0x79\n  6611: a5 = a3 + 0x200\n  6615: a4 = u64 [a5 + 0x20]\n  6618: a1 = u64 [a5 + 0x18]\n  6621: a2 = u64 [a5 + 0x10]\n  6624: a0 = u64 [a5 + 0x8]\n  6627: t0 = 196, jump @1280\n      : @255 [@dyn 98] (gas: 1)\n  6633: jump @257 if a1 == 0\n      : @256 (gas: 1)\n  6636: jump @646\n      : @257 (gas: 15)\n  6639: a1 = u64 [s1 + 0xe8]\n  6643: a1 = a1 << 0x20\n  6646: a2 = a1 >> 0x20\n  6649: u64 [a3 + 512] = 0\n  6653: a1 = u64 [s1 + 0xf0]\n  6657: a4 = a3 + 0x100\n  6661: u64 [a4 + 0xe8] = a1\n  6665: a1 = u64 [s1 + 0xf8]\n  6669: u64 [a4 + 0xf0] = a1\n  6673: a1 = s1 + 0x7ff\n  6677: a1 = a1 + 0x261\n  6681: u64 [a4 + 0xf8] = a2\n  6685: u64 [s1 + 0xf8] = a0\n  6689: ra = 0x138\n  6693: jump @9\n      : @258 (gas: 8)\n  6696: u64 [a2 + 160] = 0\n  6700: u64 [a2 + 152] = 0\n  6704: u64 [a2 + 144] = 0\n  6708: u64 [a2 + 136] = 0\n  6712: a0 = s1 + 0x2000\n  6716: i32 a0 = a0 + 0x100\n  6720: ecalli 17 // 'value_transferred'\n  6722: fallthrough\n      : @259 (gas: 9)\n  6723: a3 = s1 + 0x2078\n  6727: a0 = u64 [a3 + 0x98]\n  6731: a1 = u64 [a3 + 0xa0]\n  6735: a2 = u64 [a3 + 0x90]\n  6739: a3 = u64 [a3 + 0x88]\n  6743: a1 = a1 | a2\n  6746: a0 = a0 | a3\n  6749: a0 = a0 | a1\n  6752: jump @261 if a0 == 0\n      : @260 (gas: 1)\n  6755: jump @687\n      : @261 (gas: 3)\n  6758: a0 = u64 [s1 + 0xf8]\n  6762: a0 = i32 [a0]\n  6764: jump @263 if a0 >u 3\n      : @262 (gas: 1)\n  6768: jump @688\n      : @263 (gas: 4)\n  6771: a0 = s1 + 0x7ff\n  6775: a0 = a0 + 0x241\n  6779: a1 = 0x40\n  6782: ra = 198, jump @7\n      : @264 [@dyn 99] (gas: 8)\n  6788: a3 = s1 + 0x7ff\n  6792: a3 = a3 + 0x79\n  6795: a5 = a3 + 0x100\n  6799: a4 = u64 [a5 + 0xe0]\n  6803: a1 = u64 [a5 + 0xd8]\n  6807: a2 = u64 [a5 + 0xd0]\n  6811: a0 = u64 [a5 + 0xc8]\n  6815: t0 = 200, jump @1280\n      : @265 [@dyn 100] (gas: 1)\n  6821: jump @267 if a1 == 0\n      : @266 (gas: 1)\n  6824: jump @646\n      : @267 (gas: 10)\n  6827: a1 = u64 [0x200a0]\n  6832: u64 [a3 + 448] = 0\n  6836: u64 [a3 + 440] = 0\n  6840: u64 [a3 + 0x1a8] = a1\n  6844: a1 = s1 + 0x7ff\n  6848: a1 = a1 + 0x221\n  6852: u64 [a3 + 432] = 0\n  6856: u64 [s1 + 0xf8] = a0\n  6860: ra = 0x138\n  6864: jump @9\n      : @268 (gas: 10)\n  6867: u64 [a3 + 1696] = 0\n  6871: u64 [a3 + 1688] = 0\n  6875: u64 [a3 + 1680] = 0\n  6879: u64 [a3 + 1672] = 0\n  6883: a0 = s1 + 0x2000\n  6887: i32 a0 = a0 + 0xffffffffffffff00\n  6891: ra = 0xca\n  6895: ecalli 17 // 'value_transferred'\n  6897: t0 = 0xcc\n  6901: jump @1271\n      : @269 [@dyn 101] (gas: 1)\n  6904: t0 = 204, jump @1271\n      : @270 [@dyn 102] (gas: 1)\n  6910: t0 = 206, jump @1279\n      : @271 [@dyn 103] (gas: 1)\n  6916: jump @273 if a0 == 0\n      : @272 (gas: 1)\n  6919: jump @689\n      : @273 (gas: 3)\n  6922: a0 = u64 [s1 + 0xf8]\n  6926: a0 = i32 [a0]\n  6928: jump @275 if a0 >u 3\n      : @274 (gas: 1)\n  6932: jump @690\n      : @275 (gas: 16)\n  6935: a0 = s1 + 0x2000\n  6939: i32 a0 = a0 + 0xffffffffffffff20\n  6943: ecalli 10 // 'now'\n  6945: a0 = s1 + 0x1878\n  6949: a2 = a0 + 0x600\n  6953: a1 = u64 [a2 + 0xc0]\n  6957: u64 [s1 + 0xb8] = a1\n  6961: a1 = u64 [a2 + 0xb8]\n  6965: u64 [s1 + 0xb0] = a1\n  6969: a1 = u64 [a2 + 0xb0]\n  6973: u64 [s1 + 0xf8] = a1\n  6977: a0 = u64 [a2 + 0xa8]\n  6981: u64 [s1 + 0xf0] = a0\n  6985: a0 = s1 + 0x340\n  6989: a1 = 0x40\n  6992: ra = 208, jump @7\n      : @276 [@dyn 104] (gas: 6)\n  6998: a4 = s1 + 0x300\n  7002: a0 = u64 [a4 + 0x58]\n  7005: a1 = u64 [a4 + 0x50]\n  7008: a2 = u64 [a4 + 0x48]\n  7011: a3 = u64 [a4 + 0x40]\n  7014: t0 = 210, jump @1254\n      : @277 [@dyn 105] (gas: 1)\n  7020: jump @279 if a0 == 0\n      : @278 (gas: 1)\n  7023: jump @646\n      : @279 (gas: 46)\n  7026: u64 [s1 + 0x78] = a3\n  7029: t1 = u64 [s1 + 0xb0]\n  7033: a0 = clz t1\n  7035: a0 = a0 + 0x40\n  7038: ra = u64 [s1 + 0xb8]\n  7042: a2 = clz ra\n  7044: a2 = a0 if ra == 0\n  7047: t2 = u64 [s1 + 0xf0]\n  7051: a0 = clz t2\n  7053: a0 = a0 + 0x40\n  7056: t0 = u64 [s1 + 0xf8]\n  7060: a1 = clz t0\n  7062: a1 = a0 if t0 == 0\n  7065: a0 = a1 + 0x80\n  7069: a3 = t1 | ra\n  7072: a2 = a0 if a3 == 0\n  7075: a5 = a0 <u a1\n  7078: a5 = 0 if a3 != 0\n  7080: a4 = a5 >u 0\n  7082: a0 = a2 <u 0xf0\n  7086: a3 = a0 ^ 0x1\n  7089: a4 = a3 if a5 == 0\n  7092: a0 = a4 <u 0x1\n  7095: a0 = a0 + 0xffffffffffffffff\n  7098: a1 = -a4\n  7100: a5 = -a5\n  7102: a3 = a5 - a3\n  7105: a2 = 0xef - a2\n  7109: u64 [s1 + 0xd8] = a1\n  7113: a5 = a1 >u 0\n  7115: a1 = a0 >u 0\n  7117: a1 = a5 if a0 == 0\n  7120: a5 = a3 >u 0\n  7122: u64 [s1 + 0xc8] = a2\n  7126: a2 = a2 <u 0x100\n  7130: a2 = a2 ^ 0x1\n  7133: a2 = a5 if a3 != 0\n  7136: a2 = a1 if a4 != 0\n  7139: a1 = t2 | t1\n  7142: a4 = t0 | ra\n  7145: a1 = a1 | a4\n  7148: a1 = a1 <u 0x1\n  7151: a1 = a1 | a2\n  7154: a4 = t2\n  7156: a4 = 0 if a1 != 0\n  7158: jump @281 if a1 == 0\n      : @280 (gas: 1)\n  7161: jump @741\n      : @281 (gas: 7)\n  7164: a1 = u64 [s1 + 0xc8]\n  7168: a1 = a1 ^ 0xff\n  7172: a2 = u64 [s1 + 0xd8]\n  7176: a1 = a1 | a2\n  7179: a2 = a3 | a0\n  7182: a1 = a1 | a2\n  7185: jump @283 if a1 != 0\n      : @282 (gas: 1)\n  7188: jump @741\n      : @283 (gas: 20)\n  7191: a4 = u64 [s1 + 0xc8]\n  7195: a2 = a4 + 0x1\n  7198: u64 [s1 + 0xe8] = a2\n  7202: a1 = a2 <u 0x1\n  7205: a1 = a1 + a3\n  7208: u64 [s1 + 0xe0] = a1\n  7212: a1 = a1 | a2\n  7215: a1 = a1 <u 0x1\n  7218: a3 = u64 [s1 + 0xd8]\n  7222: a1 = a1 + a3\n  7225: u64 [s1 + 0xd0] = a1\n  7229: a1 = a1 <u a3\n  7232: a0 = a0 + a1\n  7235: u64 [s1 + 0xd8] = a0\n  7239: a1 = 0xff - a4\n  7243: u64 [s1 + 0xa0] = a1\n  7247: a2 = 0x80 - a1\n  7251: a0 = u64 [s1 + 0xf0]\n  7255: a1 = u64 [s1 + 0xf8]\n  7259: ra = 212, jump @1293\n      : @284 [@dyn 106] (gas: 6)\n  7265: u64 [s1 + 0x90] = a0\n  7269: u64 [s1 + 0xa8] = a1\n  7273: a0 = u64 [s1 + 0xb0]\n  7277: a1 = u64 [s1 + 0xb8]\n  7281: a2 = u64 [s1 + 0xa0]\n  7285: ra = 214, jump @1298\n      : @285 [@dyn 107] (gas: 7)\n  7291: u64 [s1 + 0x88] = a0\n  7295: u64 [s1 + 0x80] = a1\n  7299: a0 = u64 [s1 + 0xa0]\n  7303: a2 = a0 + 0xffffffffffffff80\n  7306: a0 = u64 [s1 + 0xf0]\n  7310: a1 = u64 [s1 + 0xf8]\n  7314: ra = 216, jump @1298\n      : @286 [@dyn 108] (gas: 8)\n  7320: u64 [s1 + 0x70] = a0\n  7323: u64 [s1 + 0x68] = a1\n  7326: a2 = u64 [s1 + 0xa0]\n  7330: a0 = a2 <u 0x80\n  7334: u64 [s1 + 0x98] = a0\n  7338: a0 = u64 [s1 + 0xf0]\n  7342: a1 = u64 [s1 + 0xf8]\n  7346: ra = 218, jump @1298\n      : @287 [@dyn 109] (gas: 12)\n  7352: u64 [s1 + 0xc0] = a1\n  7356: a1 = u64 [s1 + 0xe0]\n  7360: a2 = u64 [s1 + 0xd8]\n  7364: a2 = a2 | a1\n  7367: a1 = u64 [s1 + 0xe8]\n  7371: a3 = u64 [s1 + 0xd0]\n  7375: a1 = a1 | a3\n  7378: a1 = a1 | a2\n  7381: a3 = u64 [s1 + 0x98]\n  7385: a0 = 0 if a3 == 0\n  7387: u64 [s1 + 0xc8] = a0\n  7391: jump @289 if a1 != 0\n      : @288 (gas: 1)\n  7394: jump @739\n      : @289 (gas: 30)\n  7397: a2 = a3\n  7399: a0 = u64 [s1 + 0xa8]\n  7403: a1 = u64 [s1 + 0x80]\n  7407: a0 = a0 | a1\n  7410: a5 = a3\n  7412: a1 = u64 [s1 + 0x68]\n  7415: a0 = a1 if a2 == 0\n  7418: a2 = u64 [s1 + 0xb8]\n  7422: a3 = a2\n  7424: a1 = a2\n  7426: a2 = u64 [s1 + 0xa0]\n  7430: a3 = a0 if a2 != 0\n  7433: u64 [s1 + 0xa8] = a3\n  7437: a0 = u64 [s1 + 0x90]\n  7441: a3 = u64 [s1 + 0x88]\n  7445: a0 = a0 | a3\n  7448: a3 = u64 [s1 + 0x70]\n  7451: a0 = a3 if a5 == 0\n  7454: a4 = u64 [s1 + 0xb0]\n  7458: a3 = a4\n  7460: a3 = a0 if a2 != 0\n  7463: u64 [s1 + 0xa0] = a3\n  7467: a0 = u64 [s1 + 0xc0]\n  7471: a0 = 0 if a5 == 0\n  7473: u64 [s1 + 0xc0] = a0\n  7477: u64 [s1 + 144] = 0x15180\n  7484: a0 = u64 [s1 + 0xe8]\n  7488: a2 = a0 + 0xffffffffffffff80\n  7491: a0 = a4\n  7493: ra = 220, jump @1293\n      : @290 [@dyn 110] (gas: 6)\n  7499: u64 [s1 + 0x98] = a0\n  7503: u64 [s1 + 0x80] = a1\n  7507: a0 = u64 [s1 + 0xf0]\n  7511: a1 = u64 [s1 + 0xf8]\n  7515: a2 = u64 [s1 + 0xe8]\n  7519: ra = 222, jump @1293\n      : @291 [@dyn 111] (gas: 7)\n  7525: u64 [s1 + 0x70] = a0\n  7528: u64 [s1 + 0x88] = a1\n  7532: a1 = u64 [s1 + 0xe8]\n  7536: a2 = 0x80 - a1\n  7540: a0 = u64 [s1 + 0xb0]\n  7544: a1 = u64 [s1 + 0xb8]\n  7548: ra = 224, jump @1298\n      : @292 [@dyn 112] (gas: 20)\n  7554: a2 = u64 [s1 + 0x88]\n  7558: a1 = a1 | a2\n  7561: a2 = u64 [s1 + 0xe8]\n  7565: a3 = a2 <u 0x80\n  7569: u64 [s1 + 0x88] = a3\n  7573: a4 = u64 [s1 + 0x80]\n  7577: a1 = a4 if a3 == 0\n  7580: a4 = u64 [s1 + 0xf8]\n  7584: a4 = a1 if a2 != 0\n  7587: u64 [s1 + 0xf8] = a4\n  7591: a1 = u64 [s1 + 0x70]\n  7594: a0 = a0 | a1\n  7597: a1 = u64 [s1 + 0x98]\n  7601: a0 = a1 if a3 == 0\n  7604: a1 = u64 [s1 + 0xf0]\n  7608: a1 = a0 if a2 != 0\n  7611: u64 [s1 + 0xf0] = a1\n  7615: a0 = u64 [s1 + 0xb0]\n  7619: a1 = u64 [s1 + 0xb8]\n  7623: ra = 226, jump @1293\n      : @293 [@dyn 113] (gas: 15)\n  7629: t2 = u64 [s1 + 0xf0]\n  7633: t1 = u64 [s1 + 0xf8]\n  7637: u64 [s1 + 184] = 0\n  7641: u64 [s1 + 176] = 0\n  7645: a2 = u64 [s1 + 0x88]\n  7649: a1 = 0 if a2 == 0\n  7651: a0 = 0 if a2 == 0\n  7653: u64 [s1 + 0x98] = a0\n  7657: a3 = u64 [s1 + 0x90]\n  7661: a2 = a3 + 0xffffffffffffffff\n  7664: u64 [s1 + 0x88] = a2\n  7668: a2 = a3 >u 0\n  7670: a2 = a2 + 0xffffffffffffffff\n  7673: u64 [s1 + 0x80] = a2\n  7677: fallthrough\n      : @294 (gas: 88)\n  7678: a2 = t2 >> 0x3f\n  7681: a3 = t1 << 0x1\n  7684: a2 = a2 | a3\n  7687: a3 = t2 << 0x1\n  7690: t2 = u64 [s1 + 0xa8]\n  7694: a4 = t2 >> 0x3f\n  7697: a3 = a3 | a4\n  7700: u64 [s1 + 0xf8] = a3\n  7704: ra = u64 [s1 + 0x80]\n  7708: a0 = t1\n  7710: t1 = ra ^ a2\n  7713: t0 = ra <u a2\n  7716: a4 = u64 [s1 + 0x88]\n  7720: a5 = a4 <u a3\n  7723: a5 = t0 if t1 != 0\n  7726: a1 = a1 << 0x1\n  7729: a4 = u64 [s1 + 0x98]\n  7733: a3 = a4 >> 0x3f\n  7736: a1 = a1 | a3\n  7739: u64 [s1 + 0xf0] = a1\n  7743: a3 = a0 >> 0x3f\n  7746: a0 = a4 << 0x1\n  7749: a3 = a3 | a0\n  7752: a0 = t2 << 0x1\n  7755: a4 = u64 [s1 + 0xa0]\n  7759: a1 = a4 >> 0x3f\n  7762: t0 = a0 | a1\n  7765: a1 = a4 << 0x1\n  7768: a4 = u64 [s1 + 0xc0]\n  7772: t1 = a4 >> 0x3f\n  7775: t1 = a1 | t1\n  7778: a1 = a4 << 0x1\n  7781: a4 = u64 [s1 + 0xc8]\n  7785: t2 = a4 >> 0x3f\n  7788: a1 = a1 | t2\n  7791: a4 = a4 << 0x1\n  7794: a0 = u64 [s1 + 0xb8]\n  7798: a4 = a4 | a0\n  7801: u64 [s1 + 0xc8] = a4\n  7805: a0 = u64 [s1 + 0xb0]\n  7809: a1 = a1 | a0\n  7812: u64 [s1 + 0xc0] = a1\n  7816: a1 = a0 | t1\n  7819: u64 [s1 + 0xa0] = a1\n  7823: a0 = a0 | t0\n  7826: u64 [s1 + 0xa8] = a0\n  7830: a0 = ra - a3\n  7833: a0 = a0 <u a5\n  7836: a1 = ra <u a3\n  7839: a5 = u64 [s1 + 0xf0]\n  7843: a4 = ra - a5\n  7846: a4 = a4 - a1\n  7849: a4 = a4 - a0\n  7852: ra = a4 >>a 0x3f\n  7855: a0 = u64 [s1 + 0x90]\n  7859: a0 = ra & a0\n  7862: a1 = u64 [s1 + 0xf8]\n  7866: t2 = a1 - a0\n  7869: a1 = a1 <u a0\n  7872: t1 = a2 - a1\n  7875: a1 = 0 if a2 != 0\n  7877: a0 = a3 - a1\n  7880: u64 [s1 + 0x98] = a0\n  7884: a1 = a3 <u a1\n  7887: a1 = a5 - a1\n  7890: a3 = u64 [s1 + 0xe8]\n  7894: a5 = u64 [s1 + 0xe0]\n  7898: a2 = a3 | a5\n  7901: a2 = a2 <u 0x1\n  7904: a4 = u64 [s1 + 0xd0]\n  7908: t0 = a4 <u a2\n  7911: a2 = a4 - a2\n  7914: a4 = a3 <u 0x1\n  7917: a5 = a5 - a4\n  7920: a4 = u64 [s1 + 0xd8]\n  7924: a4 = a4 - t0\n  7927: a3 = a3 + 0xffffffffffffffff\n  7930: u64 [s1 + 0xe0] = a5\n  7934: u64 [s1 + 0xd8] = a4\n  7938: t0 = a5 | a4\n  7941: u64 [s1 + 0xe8] = a3\n  7945: a4 = a3 | a2\n  7948: a3 = a4 | t0\n  7951: a4 = ra & 0x1\n  7954: u64 [s1 + 0xb8] = a4\n  7958: u64 [s1 + 0xd0] = a2\n  7962: u64 [s1 + 176] = 0\n  7966: jump @294 if a3 != 0\n      : @295 (gas: 1)\n  7970: jump @740\n      : @296 (gas: 1)\n  7973: jump @298 if a0 == 1641031603\n      : @297 (gas: 1)\n  7980: jump @691\n      : @298 (gas: 10)\n  7983: u64 [a2 + 640] = 0\n  7987: u64 [a2 + 632] = 0\n  7991: u64 [a2 + 624] = 0\n  7995: u64 [a2 + 616] = 0\n  7999: a0 = s1 + 0x2000\n  8003: i32 a0 = a0 + 0x2e0\n  8007: ra = 0xe4\n  8011: ecalli 17 // 'value_transferred'\n  8013: t0 = 0xe6\n  8017: jump @1272\n      : @299 [@dyn 114] (gas: 1)\n  8020: t0 = 230, jump @1272\n      : @300 [@dyn 115] (gas: 8)\n  8026: a0 = u64 [a4 + 0x78]\n  8029: a1 = u64 [a4 + 0x80]\n  8033: a2 = u64 [a4 + 0x70]\n  8036: a3 = u64 [a4 + 0x68]\n  8039: a1 = a1 | a2\n  8042: a0 = a0 | a3\n  8045: a0 = a0 | a1\n  8048: jump @302 if a0 == 0\n      : @301 (gas: 1)\n  8051: jump @695\n      : @302 (gas: 3)\n  8054: a0 = u64 [s1 + 0xf8]\n  8058: a0 = i32 [a0]\n  8060: jump @304 if a0 >u 3\n      : @303 (gas: 1)\n  8064: jump @696\n      : @304 (gas: 4)\n  8067: a0 = s1 + 0x7ff\n  8071: a0 = a0 + 0x5a1\n  8075: a1 = 0x40\n  8078: ra = 232, jump @7\n      : @305 [@dyn 116] (gas: 12)\n  8084: a0 = s1 + 0x7ff\n  8088: a0 = a0 + 0x79\n  8091: a2 = a0 + 0x500\n  8095: a1 = u64 [a2 + 0x40]\n  8098: u64 [s1 + 0xf8] = a1\n  8102: a1 = u64 [a2 + 0x38]\n  8105: u64 [s1 + 0xf0] = a1\n  8109: a1 = u64 [a2 + 0x30]\n  8112: u64 [s1 + 0xe0] = a1\n  8116: a0 = u64 [a2 + 0x28]\n  8119: u64 [s1 + 0xe8] = a0\n  8123: ra = 234, jump @0\n      : @306 [@dyn 117] (gas: 13)\n  8129: a0 = u64 [s1 + 0xf8]\n  8133: a1 = u64 [s1 + 0xe0]\n  8137: a0 = a0 | a1\n  8140: a1 = u64 [s1 + 0xe8]\n  8144: a3 = a1\n  8146: a2 = u64 [s1 + 0xf0]\n  8150: a1 = a1 | a2\n  8153: a1 = a1 | a0\n  8156: a1 = a1 >> 0x20\n  8159: a0 = a0 | a2\n  8162: a0 = a0 << 0x20\n  8165: a0 = a0 | a1\n  8168: jump @308 if a0 == 0\n      : @307 (gas: 1)\n  8171: jump @646\n      : @308 (gas: 14)\n  8174: a2 = u64 [0x30180]\n  8179: a1 = u64 [0x30188]\n  8184: a0 = u32 [0x30190]\n  8189: a4 = s1 + 0x7ff\n  8193: a4 = a4 + 0x79\n  8196: u64 [a4 + 1312] = 0\n  8200: a5 = a4 + 0x500\n  8204: u64 [a5 + 0x18] = a0\n  8207: u64 [a5 + 0x10] = a1\n  8210: a1 = s1 + 0x7ff\n  8214: a1 = a1 + 0x581\n  8218: u64 [a5 + 0x8] = a2\n  8221: a0 = a3\n  8223: ra = 236, jump @9\n      : @309 [@dyn 118] (gas: 4)\n  8229: a1 = 0x20\n  8232: a0 = u64 [s1 + 0xe8]\n  8236: ra = 0x13a\n  8240: jump @20\n      : @310 (gas: 10)\n  8243: u64 [a3 + 1792] = 0\n  8247: u64 [a3 + 1784] = 0\n  8251: u64 [a3 + 1776] = 0\n  8255: u64 [a3 + 1768] = 0\n  8259: a0 = s1 + 0x2000\n  8263: i32 a0 = a0 + 0xffffffffffffff60\n  8267: ra = 0xee\n  8271: ecalli 17 // 'value_transferred'\n  8273: t0 = 0xf0\n  8277: jump @1271\n      : @311 [@dyn 119] (gas: 1)\n  8280: t0 = 240, jump @1271\n      : @312 [@dyn 120] (gas: 8)\n  8286: a0 = u64 [a4 + 0xf8]\n  8290: a1 = u64 [a3 + 0x700]\n  8294: a2 = u64 [a4 + 0xf0]\n  8298: a3 = u64 [a4 + 0xe8]\n  8302: a1 = a1 | a2\n  8305: a0 = a0 | a3\n  8308: a0 = a0 | a1\n  8311: jump @314 if a0 == 0\n      : @313 (gas: 1)\n  8314: jump @697\n      : @314 (gas: 3)\n  8317: a0 = u64 [s1 + 0xf8]\n  8321: a0 = i32 [a0]\n  8323: jump @316 if a0 >u 67\n      : @315 (gas: 1)\n  8327: jump @698\n      : @316 (gas: 4)\n  8330: a0 = s1 + 0x580\n  8334: ra = 0xf2\n  8338: t0 = 0x416\n  8342: jump @1286\n      : @317 [@dyn 121] (gas: 10)\n  8345: a0 = u64 [s1 + 0x580]\n  8349: u64 [s1 + 0xf0] = a0\n  8353: a0 = u64 [s1 + 0x588]\n  8357: u64 [s1 + 0xe8] = a0\n  8361: a0 = u32 [s1 + 0x590]\n  8365: u64 [s1 + 0xe0] = a0\n  8369: a0 = s1 + 0x560\n  8373: ra = 0xf4\n  8377: t0 = 0x420\n  8381: jump @1292\n      : @318 [@dyn 122] (gas: 12)\n  8384: a0 = u64 [s1 + 0x560]\n  8388: u64 [s1 + 0xf8] = a0\n  8392: u64 [s1 + 1368] = 0\n  8396: a0 = u64 [s1 + 0xe0]\n  8400: u64 [s1 + 0x550] = a0\n  8404: a0 = u64 [s1 + 0xe8]\n  8408: u64 [s1 + 0x548] = a0\n  8412: a1 = s1 + 0x540\n  8416: a0 = u64 [s1 + 0xf0]\n  8420: u64 [s1 + 0x540] = a0\n  8424: a0 = 0\n  8426: ra = 246, jump @9\n      : @319 [@dyn 123] (gas: 7)\n  8432: u64 [s1 + 1336] = 0\n  8436: u64 [s1 + 1328] = 0\n  8440: u64 [s1 + 1312] = 0x7\n  8445: a0 = 0x20\n  8448: a1 = s1 + 0x520\n  8452: u64 [s1 + 1320] = 0\n  8456: ra = 248, jump @9\n      : @320 [@dyn 124] (gas: 3)\n  8462: a1 = 0x20150\n  8467: a0 = i32 [0x20150]\n  8472: jump @322 if a0 >u 63\n      : @321 (gas: 2)\n  8476: u32 [0x20150] = 0x40\n  8482: fallthrough\n      : @322 (gas: 14)\n  8483: a0 = sp + 0xffffffffffffffe0\n  8486: a2 = a0 & 0xffffffffffffffe0\n  8489: u64 [s1 + 0xe0] = a2\n  8493: sp = a2\n  8495: a0 = 0x20160\n  8500: i32 a0 = a0 + 0\n  8502: i32 a2 = a2 + 0\n  8504: u64 [s1 + 0xf0] = a1\n  8508: a1 = 0x40\n  8511: u64 [s1 + 0xe8] = a0\n  8515: ra = 0xfa\n  8519: ecalli 9 // 'hash_keccak_256'\n  8521: t0 = 0xfc\n  8525: jump @1245\n      : @323 [@dyn 125] (gas: 1)\n  8528: t0 = 252, jump @1245\n      : @324 [@dyn 126] (gas: 8)\n  8534: u64 [s1 + 1304] = 0\n  8538: u64 [s1 + 1296] = 0\n  8542: u64 [s1 + 1288] = 0\n  8546: a1 = s1 + 0x500\n  8550: a0 = u64 [s1 + 0xf8]\n  8554: u64 [s1 + 0x500] = a0\n  8558: a0 = 0\n  8560: ra = 254, jump @9\n      : @325 [@dyn 127] (gas: 12)\n  8566: a0 = u64 [s1 + 0xc0]\n  8570: a3 = s1 + 0x400\n  8574: u64 [a3 + 0xf8] = a0\n  8578: a0 = u64 [s1 + 0xc8]\n  8582: u64 [a3 + 0xf0] = a0\n  8586: a0 = u64 [s1 + 0xd0]\n  8590: u64 [a3 + 0xe8] = a0\n  8594: a0 = 0x20\n  8597: a1 = s1 + 0x4e0\n  8601: a2 = u64 [s1 + 0xd8]\n  8605: u64 [a3 + 0xe0] = a2\n  8609: ra = 256, jump @9\n      : @326 [@dyn 128] (gas: 3)\n  8615: a1 = u64 [s1 + 0xf0]\n  8619: a0 = i32 [a1]\n  8621: jump @328 if a0 >u 63\n      : @327 (gas: 2)\n  8625: u32 [a1 + 0] = 0x40\n  8628: fallthrough\n      : @328 (gas: 4)\n  8629: a0 = sp + 0xffffffffffffffe0\n  8632: a0 = a0 & 0xffffffffffffffe0\n  8635: u64 [s1 + 0xf8] = a0\n  8639: t0 = 258, jump @1256\n      : @329 [@dyn 129] (gas: 4)\n  8645: ra = 0x104\n  8649: ecalli 9 // 'hash_keccak_256'\n  8651: t0 = 0x106\n  8655: jump @1248\n      : @330 [@dyn 130] (gas: 1)\n  8658: t0 = 262, jump @1248\n      : @331 [@dyn 131] (gas: 2)\n  8664: a0 = s1 + 0x4c0\n  8668: ra = 264, jump @11\n      : @332 [@dyn 132] (gas: 11)\n  8674: a0 = u64 [s1 + 0x4d8]\n  8678: u64 [s1 + 0xf8] = a0\n  8682: a0 = u64 [s1 + 0x4d0]\n  8686: u64 [s1 + 0xf0] = a0\n  8690: a0 = u64 [s1 + 0x4c8]\n  8694: u64 [s1 + 0xe8] = a0\n  8698: a0 = u64 [s1 + 0x4c0]\n  8702: u64 [s1 + 0xe0] = a0\n  8706: a0 = s1 + 0x4a0\n  8710: a1 = 0x40\n  8713: ra = 266, jump @7\n      : @333 [@dyn 133] (gas: 6)\n  8719: a4 = s1 + 0x400\n  8723: a0 = u64 [a4 + 0xb8]\n  8727: a1 = u64 [a4 + 0xb0]\n  8731: a2 = u64 [a4 + 0xa8]\n  8735: a3 = u64 [a4 + 0xa0]\n  8739: t0 = 268, jump @1254\n      : @334 [@dyn 134] (gas: 1)\n  8745: jump @336 if a0 == 0\n      : @335 (gas: 1)\n  8748: jump @646\n      : @336 (gas: 14)\n  8751: a0 = u64 [s1 + 0xe0]\n  8755: a2 = s1 + 0x400\n  8759: u64 [a2 + 0x80] = a0\n  8763: a0 = u64 [s1 + 0xe8]\n  8767: u64 [a2 + 0x88] = a0\n  8771: a0 = u64 [s1 + 0xf0]\n  8775: u64 [a2 + 0x90] = a0\n  8779: a1 = s1 + 0x480\n  8783: a0 = u64 [s1 + 0xf8]\n  8787: u64 [a2 + 0x98] = a0\n  8791: a0 = a3\n  8793: u64 [s1 + 0xf8] = a3\n  8797: ra = 0x138\n  8801: jump @9\n      : @337 (gas: 11)\n  8804: a0 = s1 + 0x2078\n  8808: u64 [a0 + 704] = 0\n  8812: u64 [a0 + 696] = 0\n  8816: u64 [a0 + 688] = 0\n  8820: u64 [a0 + 680] = 0\n  8824: a0 = s1 + 0x2000\n  8828: i32 a0 = a0 + 0x320\n  8832: ra = 0x10e\n  8836: ecalli 17 // 'value_transferred'\n  8838: t0 = 0x110\n  8842: jump @1272\n      : @338 [@dyn 135] (gas: 1)\n  8845: t0 = 272, jump @1272\n      : @339 [@dyn 136] (gas: 8)\n  8851: a0 = u64 [a4 + 0xb8]\n  8855: a1 = u64 [a4 + 0xc0]\n  8859: a2 = u64 [a4 + 0xb0]\n  8863: a3 = u64 [a4 + 0xa8]\n  8867: a1 = a1 | a2\n  8870: a0 = a0 | a3\n  8873: a0 = a0 | a1\n  8876: jump @341 if a0 == 0\n      : @340 (gas: 1)\n  8879: jump @699\n      : @341 (gas: 3)\n  8882: a0 = u64 [s1 + 0xf8]\n  8886: a0 = i32 [a0]\n  8888: jump @343 if a0 >u 3\n      : @342 (gas: 1)\n  8892: jump @700\n      : @343 (gas: 9)\n  8895: a1 = s1 + 0x2078\n  8899: u64 [a1 + 736] = 0\n  8903: u64 [a1 + 728] = 0\n  8907: u64 [a1 + 720] = 0\n  8911: u64 [a1 + 712] = 0x1\n  8916: a0 = s1 + 0x7ff\n  8920: a0 = a0 + 0x6c1\n  8924: a1 = s1 + 0x2340\n  8928: ra = 274, jump @11\n      : @344 [@dyn 137] (gas: 13)\n  8934: a1 = s1 + 0x7ff\n  8938: a1 = a1 + 0x79\n  8941: a2 = a1 + 0x600\n  8945: a0 = u64 [a2 + 0x58]\n  8948: u64 [s1 + 0xe8] = a0\n  8952: a0 = u64 [a2 + 0x50]\n  8955: u64 [s1 + 0xf8] = a0\n  8959: a0 = u64 [a2 + 0x48]\n  8962: u64 [s1 + 0xf0] = a0\n  8966: a0 = s1 + 0x7ff\n  8970: a0 = a0 + 0x6a1\n  8974: a1 = 0x40\n  8977: ra = 276, jump @7\n      : @345 [@dyn 138] (gas: 8)\n  8983: a3 = s1 + 0x7ff\n  8987: a3 = a3 + 0x79\n  8990: a5 = a3 + 0x600\n  8994: a4 = u64 [a5 + 0x40]\n  8997: a1 = u64 [a5 + 0x38]\n  9000: a2 = u64 [a5 + 0x30]\n  9003: a0 = u64 [a5 + 0x28]\n  9006: t0 = 278, jump @1280\n      : @346 [@dyn 139] (gas: 1)\n  9012: jump @348 if a1 == 0\n      : @347 (gas: 1)\n  9015: jump @646\n      : @348 (gas: 15)\n  9018: a1 = u64 [s1 + 0xe8]\n  9022: a1 = a1 << 0x20\n  9025: a2 = a1 >> 0x20\n  9028: u64 [a3 + 1568] = 0\n  9032: a1 = u64 [s1 + 0xf0]\n  9036: a4 = a3 + 0x600\n  9040: u64 [a4 + 0x8] = a1\n  9043: a1 = u64 [s1 + 0xf8]\n  9047: u64 [a4 + 0x10] = a1\n  9050: a1 = s1 + 0x7ff\n  9054: a1 = a1 + 0x681\n  9058: u64 [a4 + 0x18] = a2\n  9061: u64 [s1 + 0xf8] = a0\n  9065: ra = 0x138\n  9069: jump @9\n      : @349 (gas: 10)\n  9072: u64 [a3 + 1760] = 0\n  9076: u64 [a3 + 1752] = 0\n  9080: u64 [a3 + 1744] = 0\n  9084: u64 [a3 + 1736] = 0\n  9088: a0 = s1 + 0x2000\n  9092: i32 a0 = a0 + 0xffffffffffffff40\n  9096: ra = 0x118\n  9100: ecalli 17 // 'value_transferred'\n  9102: t0 = 0x11a\n  9106: jump @1271\n      : @350 [@dyn 140] (gas: 1)\n  9109: t0 = 282, jump @1271\n      : @351 [@dyn 141] (gas: 8)\n  9115: a0 = u64 [a4 + 0xd8]\n  9119: a1 = u64 [a4 + 0xe0]\n  9123: a2 = u64 [a4 + 0xd0]\n  9127: a3 = u64 [a4 + 0xc8]\n  9131: a1 = a1 | a2\n  9134: a0 = a0 | a3\n  9137: a0 = a0 | a1\n  9140: jump @353 if a0 == 0\n      : @352 (gas: 1)\n  9143: jump @701\n      : @353 (gas: 3)\n  9146: a0 = u64 [s1 + 0xf8]\n  9150: a0 = i32 [a0]\n  9152: jump @355 if a0 >u 67\n      : @354 (gas: 1)\n  9156: jump @702\n      : @355 (gas: 4)\n  9159: a0 = s1 + 0x460\n  9163: ra = 0x11c\n  9167: t0 = 0x416\n  9171: jump @1286\n      : @356 [@dyn 142] (gas: 10)\n  9174: a0 = u64 [s1 + 0x460]\n  9178: u64 [s1 + 0xf0] = a0\n  9182: a0 = u64 [s1 + 0x468]\n  9186: u64 [s1 + 0xe8] = a0\n  9190: a0 = u32 [s1 + 0x470]\n  9194: u64 [s1 + 0xe0] = a0\n  9198: a0 = s1 + 0x440\n  9202: ra = 0x11e\n  9206: t0 = 0x420\n  9210: jump @1292\n      : @357 [@dyn 143] (gas: 12)\n  9213: a0 = u64 [s1 + 0x440]\n  9217: u64 [s1 + 0xf8] = a0\n  9221: u64 [s1 + 1080] = 0\n  9225: a0 = u64 [s1 + 0xe0]\n  9229: u64 [s1 + 0x430] = a0\n  9233: a0 = u64 [s1 + 0xe8]\n  9237: u64 [s1 + 0x428] = a0\n  9241: a1 = s1 + 0x420\n  9245: a0 = u64 [s1 + 0xf0]\n  9249: u64 [s1 + 0x420] = a0\n  9253: a0 = 0\n  9255: ra = 288, jump @9\n      : @358 [@dyn 144] (gas: 7)\n  9261: u64 [s1 + 1048] = 0\n  9265: u64 [s1 + 1040] = 0\n  9269: u64 [s1 + 1024] = 0x5\n  9274: a0 = 0x20\n  9277: a1 = s1 + 0x400\n  9281: u64 [s1 + 1032] = 0\n  9285: ra = 290, jump @9\n      : @359 [@dyn 145] (gas: 3)\n  9291: a1 = 0x20150\n  9296: a0 = i32 [0x20150]\n  9301: jump @361 if a0 >u 63\n      : @360 (gas: 2)\n  9305: u32 [0x20150] = 0x40\n  9311: fallthrough\n      : @361 (gas: 14)\n  9312: a0 = sp + 0xffffffffffffffe0\n  9315: a2 = a0 & 0xffffffffffffffe0\n  9318: u64 [s1 + 0xe0] = a2\n  9322: sp = a2\n  9324: a0 = 0x20160\n  9329: i32 a0 = a0 + 0\n  9331: i32 a2 = a2 + 0\n  9333: u64 [s1 + 0xf0] = a1\n  9337: a1 = 0x40\n  9340: u64 [s1 + 0xe8] = a0\n  9344: ra = 0x124\n  9348: ecalli 9 // 'hash_keccak_256'\n  9350: t0 = 0x126\n  9354: jump @1245\n      : @362 [@dyn 146] (gas: 1)\n  9357: t0 = 294, jump @1245\n      : @363 [@dyn 147] (gas: 8)\n  9363: u64 [s1 + 1016] = 0\n  9367: u64 [s1 + 1008] = 0\n  9371: u64 [s1 + 1000] = 0\n  9375: a1 = s1 + 0x3e0\n  9379: a0 = u64 [s1 + 0xf8]\n  9383: u64 [s1 + 0x3e0] = a0\n  9387: a0 = 0\n  9389: ra = 296, jump @9\n      : @364 [@dyn 148] (gas: 12)\n  9395: a0 = u64 [s1 + 0xc0]\n  9399: a3 = s1 + 0x300\n  9403: u64 [a3 + 0xd8] = a0\n  9407: a0 = u64 [s1 + 0xc8]\n  9411: u64 [a3 + 0xd0] = a0\n  9415: a0 = u64 [s1 + 0xd0]\n  9419: u64 [a3 + 0xc8] = a0\n  9423: a0 = 0x20\n  9426: a1 = s1 + 0x3c0\n  9430: a2 = u64 [s1 + 0xd8]\n  9434: u64 [a3 + 0xc0] = a2\n  9438: ra = 298, jump @9\n      : @365 [@dyn 149] (gas: 3)\n  9444: a1 = u64 [s1 + 0xf0]\n  9448: a0 = i32 [a1]\n  9450: jump @367 if a0 >u 63\n      : @366 (gas: 2)\n  9454: u32 [a1 + 0] = 0x40\n  9457: fallthrough\n      : @367 (gas: 4)\n  9458: a0 = sp + 0xffffffffffffffe0\n  9461: a0 = a0 & 0xffffffffffffffe0\n  9464: u64 [s1 + 0xf8] = a0\n  9468: t0 = 300, jump @1256\n      : @368 [@dyn 150] (gas: 4)\n  9474: ra = 0x12e\n  9478: ecalli 9 // 'hash_keccak_256'\n  9480: t0 = 0x130\n  9484: jump @1248\n      : @369 [@dyn 151] (gas: 1)\n  9487: t0 = 304, jump @1248\n      : @370 [@dyn 152] (gas: 2)\n  9493: a0 = s1 + 0x3a0\n  9497: ra = 306, jump @11\n      : @371 [@dyn 153] (gas: 11)\n  9503: a0 = u64 [s1 + 0x3b8]\n  9507: u64 [s1 + 0xf8] = a0\n  9511: a0 = u64 [s1 + 0x3b0]\n  9515: u64 [s1 + 0xf0] = a0\n  9519: a0 = u64 [s1 + 0x3a8]\n  9523: u64 [s1 + 0xe8] = a0\n  9527: a0 = u64 [s1 + 0x3a0]\n  9531: u64 [s1 + 0xe0] = a0\n  9535: a0 = s1 + 0x380\n  9539: a1 = 0x40\n  9542: ra = 308, jump @7\n      : @372 [@dyn 154] (gas: 6)\n  9548: a4 = s1 + 0x300\n  9552: a0 = u64 [a4 + 0x98]\n  9556: a1 = u64 [a4 + 0x90]\n  9560: a2 = u64 [a4 + 0x88]\n  9564: a3 = u64 [a4 + 0x80]\n  9568: t0 = 310, jump @1254\n      : @373 [@dyn 155] (gas: 1)\n  9574: jump @375 if a0 == 0\n      : @374 (gas: 1)\n  9577: jump @646\n      : @375 (gas: 13)\n  9580: a0 = u64 [s1 + 0xe0]\n  9584: a2 = s1 + 0x300\n  9588: u64 [a2 + 0x60] = a0\n  9591: a0 = u64 [s1 + 0xe8]\n  9595: u64 [a2 + 0x68] = a0\n  9598: a0 = u64 [s1 + 0xf0]\n  9602: u64 [a2 + 0x70] = a0\n  9605: a1 = s1 + 0x360\n  9609: a0 = u64 [s1 + 0xf8]\n  9613: u64 [a2 + 0x78] = a0\n  9616: a0 = a3\n  9618: u64 [s1 + 0xf8] = a3\n  9622: ra = 312, jump @9\n      : @376 [@dyn 156] (gas: 3)\n  9628: a1 = 0x20\n  9631: a0 = u64 [s1 + 0xf8]\n  9635: ra = 314, jump @20\n      : @377 [@dyn 157] (gas: 5)\n  9641: i32 a1 = a0 + 0\n  9643: a2 = 0x20\n  9646: a0 = 0\n  9648: ecalli 14 // 'seal_return'\n  9650: jump @379\n      : @378 (gas: 4)\n  9652: a2 = 0x20\n  9655: a0 = 0\n  9657: ecalli 14 // 'seal_return'\n  9659: fallthrough\n      : @379 (gas: 3)\n  9660: a0 = u64 [s1 + 0xf8]\n  9664: a0 = i32 [a0]\n  9666: jump @381 if a0 >u 3\n      : @380 (gas: 1)\n  9670: jump @703\n      : @381 (gas: 10)\n  9673: u64 [a2 + 1184] = 0\n  9677: u64 [a2 + 1176] = 0\n  9681: u64 [a2 + 1168] = 0\n  9685: u64 [a2 + 1160] = 0\n  9689: a0 = s1 + 0x2000\n  9693: i32 a0 = a0 + 0x500\n  9697: ra = 0x13c\n  9701: ecalli 17 // 'value_transferred'\n  9703: t0 = 0x13e\n  9707: jump @1267\n      : @382 [@dyn 158] (gas: 1)\n  9710: t0 = 318, jump @1267\n      : @383 [@dyn 159] (gas: 1)\n  9716: t0 = 320, jump @1279\n      : @384 [@dyn 160] (gas: 1)\n  9722: jump @386 if a0 != 0\n      : @385 (gas: 1)\n  9725: jump @704\n      : @386 (gas: 9)\n  9728: a0 = 0x30160\n  9733: u64 [s1 + 0xe0] = a0\n  9737: i32 a0 = a0 + 0\n  9739: u64 [s1 + 0xb8] = a0\n  9743: ra = 0x142\n  9747: ecalli 4 // 'caller'\n  9749: a2 = u64 [s1 + 0xe0]\n  9753: t0 = 0x144\n  9757: jump @1242\n      : @387 [@dyn 161] (gas: 2)\n  9760: a2 = u64 [s1 + 0xe0]\n  9764: t0 = 324, jump @1242\n      : @388 [@dyn 162] (gas: 7)\n  9770: u64 [a2 + 160] = 0\n  9774: u64 [a2 + 0x98] = a1\n  9778: u64 [a2 + 0x90] = a0\n  9782: a1 = s1 + 0x1900\n  9786: u64 [a2 + 0x88] = a3\n  9790: a0 = 0\n  9792: ra = 326, jump @9\n      : @389 [@dyn 163] (gas: 9)\n  9798: a1 = s1 + 0x1878\n  9802: u64 [a1 + 128] = 0\n  9806: u64 [a1 + 120] = 0\n  9809: u64 [a1 + 104] = 0x2\n  9813: a2 = a1\n  9815: a0 = 0x20\n  9818: a1 = s1 + 0x18e0\n  9822: u64 [a2 + 112] = 0\n  9825: ra = 328, jump @9\n      : @390 [@dyn 164] (gas: 7)\n  9831: a0 = sp + 0xffffffffffffffe0\n  9834: a0 = a0 & 0xffffffffffffffe0\n  9837: u64 [s1 + 0xf8] = a0\n  9841: sp = a0\n  9843: a2 = 0x20150\n  9848: a0 = i32 [0x20150]\n  9853: jump @392 if a0 >u 63\n      : @391 (gas: 2)\n  9857: u32 [0x20150] = 0x40\n  9863: fallthrough\n      : @392 (gas: 14)\n  9864: u64 [s1 + 0xb0] = a2\n  9868: a0 = sp + 0xffffffffffffffe0\n  9871: a2 = a0 & 0xffffffffffffffe0\n  9874: u64 [s1 + 0xf0] = a2\n  9878: sp = a2\n  9880: a0 = 0x20160\n  9885: i32 a0 = a0 + 0\n  9887: i32 a2 = a2 + 0\n  9889: a1 = 0x40\n  9892: u64 [s1 + 0xc0] = a0\n  9896: ra = 0x14a\n  9900: ecalli 9 // 'hash_keccak_256'\n  9902: t0 = 0x14c\n  9906: jump @1260\n      : @393 [@dyn 165] (gas: 1)\n  9909: t0 = 332, jump @1260\n      : @394 [@dyn 166] (gas: 3)\n  9915: i32 a0 = a0 + 0xfffffffffffff8c0\n  9919: a0 = a0 + s1\n  9922: ra = 334, jump @11\n      : @395 [@dyn 167] (gas: 22)\n  9928: a0 = s1 + 0x1878\n  9932: a1 = u64 [a0 + 0x60]\n  9935: u64 [s1 + 0xd0] = a1\n  9939: a1 = u64 [a0 + 0x58]\n  9942: u64 [s1 + 0xf0] = a1\n  9946: a1 = u64 [a0 + 0x48]\n  9949: u64 [s1 + 0xc8] = a1\n  9953: a0 = u64 [a0 + 0x50]\n  9956: u64 [s1 + 0xe8] = a0\n  9960: a0 = sp + 0xffffffffffffffe0\n  9963: a0 = a0 & 0xffffffffffffffe0\n  9966: u64 [s1 + 0xd8] = a0\n  9970: sp = a0\n  9972: a0 = s1 + 0x2078\n  9976: u64 [a0 + 1216] = 0\n  9980: u64 [a0 + 1208] = 0\n  9984: u64 [a0 + 1200] = 0\n  9988: u64 [a0 + 1192] = 0\n  9992: a0 = s1 + 0x2000\n  9996: i32 a0 = a0 + 0x520\n 10000: ecalli 17 // 'value_transferred'\n 10002: fallthrough\n      : @396 (gas: 43)\n 10003: a0 = s1 + 0x2078\n 10007: a3 = a0 + 0x400\n 10011: a2 = u64 [a3 + 0xb0]\n 10015: a1 = u64 [a3 + 0xa8]\n 10019: t0 = u64 [a0 + 0x4c0]\n 10023: a4 = u64 [a3 + 0xb8]\n 10027: a5 = u64 [s1 + 0xe8]\n 10031: a5 = a5 + a2\n 10034: a0 = u64 [s1 + 0xc8]\n 10038: t1 = a1 + a0\n 10041: a1 = t1 <u a1\n 10044: a5 = a5 + a1\n 10047: a3 = a5 ^ a2\n 10050: a2 = a5 <u a2\n 10053: a2 = a1 if a3 == 0\n 10056: a1 = u64 [s1 + 0xf0]\n 10060: a1 = a1 + a4\n 10063: ra = u64 [s1 + 0xd0]\n 10067: t0 = t0 + ra\n 10070: a3 = a1 <u a4\n 10073: a3 = a3 + t0\n 10076: a2 = a2 + a1\n 10079: a1 = a2 <u a1\n 10082: t2 = a3 + a1\n 10085: a3 = u64 [s1 + 0xe8]\n 10089: a1 = a3 ^ a5\n 10092: a4 = a5 <u a3\n 10095: a0 = t1 <u a0\n 10098: a0 = a4 if a1 != 0\n 10101: a3 = u64 [s1 + 0xf0]\n 10105: t0 = a2 <u a3\n 10108: a4 = ra ^ t2\n 10111: a1 = t2 <u ra\n 10114: a1 = t0 if a4 == 0\n 10117: a3 = a3 ^ a2\n 10120: a3 = a3 | a4\n 10123: a0 = a1 if a3 != 0\n 10126: a1 = u64 [s1 + 0xd8]\n 10130: u64 [a1] = t1\n 10132: u64 [a1 + 0x8] = a5\n 10135: u64 [a1 + 0x10] = a2\n 10138: u64 [a1 + 0x18] = t2\n 10141: jump @398 if a0 == 0\n      : @397 (gas: 1)\n 10144: jump @709\n      : @398 (gas: 2)\n 10147: a0 = u64 [s1 + 0xf8]\n 10151: ra = 336, jump @12\n      : @399 [@dyn 168] (gas: 3)\n 10157: a0 = s1 + 0x18a0\n 10161: a1 = 0x40\n 10164: ra = 338, jump @7\n      : @400 [@dyn 169] (gas: 19)\n 10170: a0 = s1 + 0x1878\n 10174: a1 = u64 [a0 + 0x40]\n 10177: u64 [s1 + 0xf0] = a1\n 10181: a1 = u64 [a0 + 0x38]\n 10184: u64 [s1 + 0xe8] = a1\n 10188: a1 = u64 [a0 + 0x30]\n 10191: u64 [s1 + 0xd8] = a1\n 10195: a0 = u64 [a0 + 0x28]\n 10198: u64 [s1 + 0xf8] = a0\n 10202: a0 = s1 + 0x2078\n 10206: u64 [a0 + 1248] = 0\n 10210: u64 [a0 + 1240] = 0\n 10214: u64 [a0 + 1232] = 0\n 10218: u64 [a0 + 1224] = 0\n 10222: a0 = s1 + 0x2000\n 10226: i32 a0 = a0 + 0x540\n 10230: ra = 0x154\n 10234: ecalli 17 // 'value_transferred'\n 10236: fallthrough\n      : @401 [@dyn 170] (gas: 13)\n 10237: a0 = u64 [s1 + 0xf0]\n 10241: a1 = u64 [s1 + 0xd8]\n 10245: a0 = a0 | a1\n 10248: a1 = u64 [s1 + 0xf8]\n 10252: a5 = a1\n 10254: a2 = u64 [s1 + 0xe8]\n 10258: a1 = a1 | a2\n 10261: a1 = a1 | a0\n 10264: a1 = a1 >> 0x20\n 10267: a0 = a0 | a2\n 10270: a0 = a0 << 0x20\n 10273: a0 = a0 | a1\n 10276: jump @403 if a0 == 0\n      : @402 (gas: 1)\n 10279: jump @646\n      : @403 (gas: 1)\n 10282: t0 = 342, jump @1267\n      : @404 [@dyn 171] (gas: 12)\n 10288: a0 = u64 [a4 + 0xc8]\n 10292: a1 = u64 [a4 + 0xd0]\n 10296: a2 = u64 [a4 + 0xd8]\n 10300: a3 = u64 [a4 + 0xe0]\n 10304: a4 = s1 + 0x1878\n 10308: u64 [a4 + 0x20] = a3\n 10311: u64 [a4 + 0x18] = a2\n 10314: u64 [a4 + 0x10] = a1\n 10317: a1 = s1 + 0x1880\n 10321: u64 [a4 + 0x8] = a0\n 10324: a0 = a5\n 10326: ra = 344, jump @9\n      : @405 [@dyn 172] (gas: 6)\n 10332: a0 = u64 [s1 + 0xb8]\n 10336: ra = 0x15a\n 10340: ecalli 4 // 'caller'\n 10342: a2 = u64 [s1 + 0xe0]\n 10346: t0 = 0x15c\n 10350: jump @1257\n      : @406 [@dyn 173] (gas: 2)\n 10353: a2 = u64 [s1 + 0xe0]\n 10357: t0 = 348, jump @1257\n      : @407 [@dyn 174] (gas: 51)\n 10363: t0 = a1 | a0\n 10366: a3 = a3 >> 0x20\n 10369: a2 = reverse a2\n 10371: a1 = a2 << 0x20\n 10374: t2 = a1 | a3\n 10377: a2 = a2 >> 0x20\n 10380: t1 = s1 + 0x1078\n 10384: u64 [t1 + 2016] = 0\n 10388: a3 = u64 [0x20020]\n 10393: a4 = u64 [0x20028]\n 10398: a5 = u64 [0x20030]\n 10403: a0 = u64 [0x20038]\n 10408: a1 = s1 + 0x1878\n 10412: u64 [a1] = a3\n 10414: a3 = a1 + 0xffffffffffffff00\n 10418: u64 [a3 + 0xf8] = a4\n 10422: u64 [a3 + 0xf0] = a5\n 10426: u64 [a3 + 0xe8] = a0\n 10430: u64 [t1 + 0x7d8] = a2\n 10434: u64 [t1 + 0x7d0] = t2\n 10438: a1 = 0x20\n 10441: a2 = s1 + 0x1860\n 10445: a3 = s1 + 0x1840\n 10449: u64 [t1 + 0x7c8] = t0\n 10453: a0 = u64 [s1 + 0xf8]\n 10457: ra = 0x15e\n 10461: sp = sp + 0xffffffffffffff60\n 10465: u64 [sp + 0x98] = ra\n 10469: u64 [sp + 0x90] = s0\n 10473: u64 [sp + 0x88] = s1\n 10477: s0 = sp + 0xa0\n 10481: sp = sp & 0xffffffffffffffe0\n 10484: a4 = u64 [a3]\n 10486: u64 [sp + 0x38] = a4\n 10489: a4 = u64 [a3 + 0x8]\n 10492: u64 [sp + 0x30] = a4\n 10495: a4 = u64 [a3 + 0x10]\n 10498: u64 [sp + 0x28] = a4\n 10501: a3 = u64 [a3 + 0x18]\n 10504: u64 [sp + 0x20] = a3\n 10507: a3 = u64 [a2]\n 10509: u64 [sp + 0x18] = a3\n 10512: a3 = u64 [a2 + 0x8]\n 10515: u64 [sp + 0x10] = a3\n 10518: a3 = u64 [a2 + 0x10]\n 10521: u64 [sp + 0x8] = a3\n 10524: a2 = u64 [a2 + 0x18]\n 10527: u64 [sp] = a2\n 10529: s1 = a1\n 10531: ra = 0x6\n 10534: jump @20\n      : @408 [@dyn 175] (gas: 5)\n 10537: a0 = 0\n 10539: a1 = u64 [s1 + 0xc0]\n 10543: a2 = 0\n 10545: ecalli 14 // 'seal_return'\n 10547: jump @1011\n      : @409 (gas: 10)\n 10550: u64 [a3 + 1568] = 0\n 10554: u64 [a3 + 1560] = 0\n 10558: u64 [a3 + 1552] = 0\n 10562: u64 [a3 + 1544] = 0\n 10566: a0 = s1 + 0x2000\n 10570: i32 a0 = a0 + 0xfffffffffffffe80\n 10574: ra = 0x160\n 10578: ecalli 17 // 'value_transferred'\n 10580: t0 = 0x162\n 10584: jump @1271\n      : @410 [@dyn 176] (gas: 1)\n 10587: t0 = 354, jump @1271\n      : @411 [@dyn 177] (gas: 1)\n 10593: t0 = 356, jump @1291\n      : @412 [@dyn 178] (gas: 1)\n 10599: jump @414 if a0 == 0\n      : @413 (gas: 1)\n 10602: jump @715\n      : @414 (gas: 3)\n 10605: a0 = u64 [s1 + 0xf8]\n 10609: a0 = i32 [a0]\n 10611: jump @416 if a0 >u 35\n      : @415 (gas: 1)\n 10615: jump @716\n      : @416 (gas: 4)\n 10618: a0 = s1 + 0x300\n 10622: ra = 0x166\n 10626: t0 = 0x416\n 10630: jump @1286\n      : @417 [@dyn 179] (gas: 10)\n 10633: a0 = u64 [s1 + 0x300]\n 10637: a1 = u64 [s1 + 0x308]\n 10641: a2 = u32 [s1 + 0x310]\n 10645: u64 [s1 + 760] = 0\n 10649: u64 [s1 + 0x2f0] = a2\n 10653: u64 [s1 + 0x2e8] = a1\n 10657: a1 = s1 + 0x2e0\n 10661: u64 [s1 + 0x2e0] = a0\n 10665: a0 = 0\n 10667: ra = 360, jump @9\n      : @418 [@dyn 180] (gas: 7)\n 10673: u64 [s1 + 728] = 0\n 10677: u64 [s1 + 720] = 0\n 10681: u64 [s1 + 704] = 0x2\n 10686: a0 = 0x20\n 10689: a1 = s1 + 0x2c0\n 10693: u64 [s1 + 712] = 0\n 10697: ra = 362, jump @9\n      : @419 [@dyn 181] (gas: 6)\n 10703: a0 = sp + 0xffffffffffffffe0\n 10706: a0 = a0 & 0xffffffffffffffe0\n 10709: u64 [s1 + 0xd8] = a0\n 10713: sp = a0\n 10715: a1 = i32 [0x20150]\n 10720: jump @421 if a1 >u 63\n      : @420 (gas: 2)\n 10724: u32 [0x20150] = 0x40\n 10730: fallthrough\n      : @421 (gas: 12)\n 10731: a0 = sp + 0xffffffffffffffe0\n 10734: a2 = a0 & 0xffffffffffffffe0\n 10737: u64 [s1 + 0xf8] = a2\n 10741: sp = a2\n 10743: a0 = 0x20160\n 10748: i32 a0 = a0 + 0\n 10750: i32 a2 = a2 + 0\n 10752: a1 = 0x40\n 10755: ra = 0x16c\n 10759: ecalli 9 // 'hash_keccak_256'\n 10761: t0 = 0x16e\n 10765: jump @1288\n      : @422 [@dyn 182] (gas: 1)\n 10768: t0 = 366, jump @1288\n      : @423 [@dyn 183] (gas: 14)\n 10774: u64 [s1 + 0xe8] = a5\n 10778: a4 = reverse a1\n 10780: u64 [s1 + 0xf0] = a4\n 10784: a2 = reverse a2\n 10786: u64 [s1 + 0xe0] = a2\n 10790: a0 = reverse a3\n 10792: u64 [s1 + 0xf8] = a0\n 10796: a1 = u64 [s1 + 0xd8]\n 10800: u64 [a1 + 0x18] = a0\n 10803: u64 [a1 + 0x10] = a2\n 10806: u64 [a1 + 0x8] = a4\n 10809: u64 [a1] = a5\n 10811: a0 = s1 + 0x2a0\n 10815: ra = 368, jump @11\n      : @424 [@dyn 184] (gas: 29)\n 10821: a0 = u64 [s1 + 0x2b8]\n 10825: u64 [s1 + 0xd8] = a0\n 10829: a0 = u64 [s1 + 0x2b0]\n 10833: u64 [s1 + 0xd0] = a0\n 10837: a0 = u64 [s1 + 0x2a8]\n 10841: u64 [s1 + 0xc8] = a0\n 10845: a0 = u64 [s1 + 0x2a0]\n 10849: u64 [s1 + 0xc0] = a0\n 10853: a0 = u64 [s1 + 0xe8]\n 10857: a0 = a0 + 0x1\n 10860: a1 = a0 <u 0x1\n 10863: a2 = u64 [s1 + 0xf0]\n 10867: a1 = a1 + a2\n 10870: a2 = s1 + 0x1878\n 10874: a3 = a2 + 0x600\n 10878: u64 [a3 + 0x30] = a1\n 10881: a1 = a1 | a0\n 10884: u64 [a3 + 0x28] = a0\n 10887: a0 = a1 <u 0x1\n 10890: a1 = u64 [s1 + 0xe0]\n 10894: a0 = a0 + a1\n 10897: u64 [a3 + 0x38] = a0\n 10900: a0 = a0 <u a1\n 10903: a1 = u64 [s1 + 0xf8]\n 10907: a0 = a0 + a1\n 10910: u64 [a3 + 0x40] = a0\n 10913: a0 = s1 + 0x280\n 10917: a1 = s1 + 0x1ea0\n 10921: ra = 370, jump @11\n      : @425 [@dyn 185] (gas: 29)\n 10927: a0 = u64 [s1 + 0x298]\n 10931: u64 [s1 + 0xb8] = a0\n 10935: a0 = u64 [s1 + 0x290]\n 10939: u64 [s1 + 0xb0] = a0\n 10943: a0 = u64 [s1 + 0x288]\n 10947: u64 [s1 + 0xa8] = a0\n 10951: a0 = u64 [s1 + 0x280]\n 10955: u64 [s1 + 0xa0] = a0\n 10959: a1 = u64 [s1 + 0xe8]\n 10963: a0 = a1 + 0x2\n 10966: a1 = a0 <u a1\n 10969: a3 = u64 [s1 + 0xf0]\n 10973: a2 = a3 + a1\n 10976: a3 = a2 <u a3\n 10979: a3 = a1 if a1 == 0\n 10982: a1 = u64 [s1 + 0xe0]\n 10986: a3 = a3 + a1\n 10989: a1 = a3 <u a1\n 10992: a4 = u64 [s1 + 0xf8]\n 10996: a1 = a1 + a4\n 10999: a4 = s1 + 0x1878\n 11003: a5 = a4 + 0x600\n 11007: u64 [a5 + 0x60] = a1\n 11010: u64 [a5 + 0x58] = a3\n 11013: u64 [a5 + 0x50] = a2\n 11016: u64 [a5 + 0x48] = a0\n 11019: a0 = s1 + 0x260\n 11023: a1 = s1 + 0x1ec0\n 11027: ra = 372, jump @11\n      : @426 [@dyn 186] (gas: 29)\n 11033: a0 = u64 [s1 + 0x278]\n 11037: u64 [s1 + 0x98] = a0\n 11041: a0 = u64 [s1 + 0x270]\n 11045: u64 [s1 + 0x90] = a0\n 11049: a1 = u64 [s1 + 0xe8]\n 11053: a0 = a1 + 0x3\n 11056: a1 = a0 <u a1\n 11059: a3 = u64 [s1 + 0xf0]\n 11063: a2 = a3 + a1\n 11066: a3 = a2 <u a3\n 11069: a3 = a1 if a1 == 0\n 11072: a1 = u64 [s1 + 0x268]\n 11076: u64 [s1 + 0xe8] = a1\n 11080: a1 = u64 [s1 + 0xe0]\n 11084: a3 = a3 + a1\n 11087: a1 = a3 <u a1\n 11090: a4 = u64 [s1 + 0xf8]\n 11094: a1 = a1 + a4\n 11097: a4 = u64 [s1 + 0x260]\n 11101: u64 [s1 + 0xe0] = a4\n 11105: a4 = s1 + 0x1878\n 11109: a5 = a4 + 0x600\n 11113: u64 [a5 + 0x80] = a1\n 11117: u64 [a5 + 0x78] = a3\n 11120: u64 [a5 + 0x70] = a2\n 11123: u64 [a5 + 0x68] = a0\n 11126: a0 = s1 + 0x240\n 11130: a1 = s1 + 0x1ee0\n 11134: ra = 374, jump @11\n      : @427 [@dyn 187] (gas: 5)\n 11140: a0 = u64 [s1 + 0x240]\n 11144: u64 [s1 + 0x88] = a0\n 11148: a0 = s1 + 0x220\n 11152: a1 = 0x40\n 11155: ra = 376, jump @7\n      : @428 [@dyn 188] (gas: 13)\n 11161: a0 = s1 + 0x200\n 11165: a4 = u64 [a0 + 0x38]\n 11168: a5 = u64 [a0 + 0x30]\n 11171: a3 = u64 [a0 + 0x28]\n 11174: a2 = u64 [a0 + 0x20]\n 11177: a0 = a3 | a4\n 11180: a1 = a2 | a5\n 11183: a1 = a1 | a0\n 11186: a1 = a1 >> 0x20\n 11189: a0 = a0 | a5\n 11192: a0 = a0 << 0x20\n 11195: a0 = a0 | a1\n 11198: jump @430 if a0 == 0\n      : @429 (gas: 1)\n 11201: jump @646\n      : @430 (gas: 15)\n 11204: a0 = u64 [s1 + 0xc0]\n 11208: u64 [s1 + 0x200] = a0\n 11212: a0 = u64 [s1 + 0xc8]\n 11216: u64 [s1 + 0x208] = a0\n 11220: a0 = u64 [s1 + 0xd0]\n 11224: u64 [s1 + 0x210] = a0\n 11228: a1 = s1 + 0x200\n 11232: a0 = u64 [s1 + 0xd8]\n 11236: u64 [s1 + 0x218] = a0\n 11240: a0 = a2\n 11242: u64 [s1 + 0xf8] = a2\n 11246: u64 [s1 + 0xf0] = a3\n 11250: u64 [s1 + 0xd8] = a4\n 11254: u64 [s1 + 0xd0] = a5\n 11258: ra = 378, jump @9\n      : @431 [@dyn 189] (gas: 11)\n 11264: a1 = u64 [s1 + 0xf8]\n 11268: a0 = u64 [s1 + 0xd8]\n 11272: a3 = u64 [s1 + 0xd0]\n 11276: a3 = a3 | a0\n 11279: a4 = 0x100000000\n 11289: a0 = 0xffffffe0\n 11299: a0 = a1 <u a0\n 11302: a2 = u64 [s1 + 0xf0]\n 11306: a0 = 0 if a2 != 0\n 11308: a0 = 0 if a3 != 0\n 11310: jump @433 if a0 != 0\n      : @432 (gas: 1)\n 11313: jump @646\n      : @433 (gas: 14)\n 11316: i32 a0 = a1 + 0x20\n 11319: a1 = u64 [s1 + 0xa0]\n 11323: a5 = s1 + 0x100\n 11327: u64 [a5 + 0xe0] = a1\n 11331: a1 = u64 [s1 + 0xa8]\n 11335: u64 [a5 + 0xe8] = a1\n 11339: a1 = u64 [s1 + 0xb0]\n 11343: u64 [a5 + 0xf0] = a1\n 11347: a1 = s1 + 0x1e0\n 11351: a2 = u64 [s1 + 0xb8]\n 11355: u64 [a5 + 0xf8] = a2\n 11359: u64 [s1 + 0xd8] = a3\n 11363: u64 [s1 + 0xd0] = a4\n 11367: ra = 380, jump @9\n      : @434 [@dyn 190] (gas: 9)\n 11373: a4 = u64 [s1 + 0xd8]\n 11377: a3 = u64 [s1 + 0xf0]\n 11381: a1 = u64 [s1 + 0xf8]\n 11385: a0 = u64 [s1 + 0xd0]\n 11389: a0 = a0 + 0xffffffffffffffc0\n 11392: a0 = a1 <u a0\n 11395: a0 = 0 if a3 != 0\n 11397: a0 = 0 if a4 != 0\n 11399: jump @436 if a0 != 0\n      : @435 (gas: 1)\n 11402: jump @646\n      : @436 (gas: 12)\n 11405: i32 a0 = a1 + 0x40\n 11408: a1 = u64 [s1 + 0xe0]\n 11412: a3 = s1 + 0x100\n 11416: u64 [a3 + 0xc0] = a1\n 11420: a1 = u64 [s1 + 0xe8]\n 11424: u64 [a3 + 0xc8] = a1\n 11428: a1 = u64 [s1 + 0x90]\n 11432: u64 [a3 + 0xd0] = a1\n 11436: a1 = s1 + 0x1c0\n 11440: a2 = u64 [s1 + 0x98]\n 11444: u64 [a3 + 0xd8] = a2\n 11448: ra = 382, jump @9\n      : @437 [@dyn 191] (gas: 8)\n 11454: a2 = u64 [s1 + 0xf8]\n 11458: a0 = 0xffffffa0\n 11468: a0 = a2 <u a0\n 11471: a1 = u64 [s1 + 0xf0]\n 11475: a0 = 0 if a1 != 0\n 11477: a1 = u64 [s1 + 0xd8]\n 11481: a0 = 0 if a1 != 0\n 11483: jump @439 if a0 != 0\n      : @438 (gas: 1)\n 11486: jump @646\n      : @439 (gas: 10)\n 11489: a0 = u64 [s1 + 0x88]\n 11493: a0 = a0 << 0x20\n 11496: a1 = a0 >> 0x20\n 11499: i32 a0 = a2 + 0x60\n 11502: u64 [s1 + 440] = 0\n 11506: u64 [s1 + 432] = 0\n 11510: u64 [s1 + 0x1a0] = a1\n 11514: a1 = s1 + 0x1a0\n 11518: u64 [s1 + 424] = 0\n 11522: ra = 384, jump @9\n      : @440 [@dyn 192] (gas: 3)\n 11528: a1 = 0x80\n 11532: a0 = u64 [s1 + 0xf8]\n 11536: ra = 386, jump @20\n      : @441 [@dyn 193] (gas: 5)\n 11542: i32 a1 = a0 + 0\n 11544: a2 = 0x80\n 11548: a0 = 0\n 11550: ecalli 14 // 'seal_return'\n 11552: jump @379\n      : @442 (gas: 18)\n 11555: a0 = sp + 0xffffffffffffffe0\n 11558: a1 = a0 & 0xffffffffffffffe0\n 11561: sp = a1\n 11563: a0 = t1 <u a2\n 11566: t0 = a5 + a0\n 11569: a2 = t0 <u a5\n 11572: a2 = a0 if a0 == 0\n 11575: a2 = a2 + a4\n 11578: a0 = a2 <u a4\n 11581: a0 = a0 + a3\n 11584: u64 [a1 + 0x8] = t0\n 11587: u64 [a1] = t1\n 11589: u64 [a1 + 0x10] = a2\n 11592: u64 [a1 + 0x18] = a0\n 11595: a0 = s1 + 0x7ff\n 11599: a0 = a0 + 0x501\n 11603: u64 [s1 + 0x68] = a1\n 11606: ra = 388, jump @11\n      : @443 [@dyn 194] (gas: 27)\n 11612: a1 = s1 + 0x7ff\n 11616: a1 = a1 + 0x79\n 11619: a2 = a1 + 0x400\n 11623: a3 = u64 [a2 + 0xa0]\n 11627: ra = u64 [a1 + 0x498]\n 11631: a0 = u64 [a2 + 0x90]\n 11635: a1 = u64 [a2 + 0x88]\n 11639: a4 = u64 [s1 + 0xe0]\n 11643: a2 = a3 ^ a4\n 11646: u64 [s1 + 0x48] = a3\n 11649: a5 = a3 <u a4\n 11652: t1 = u64 [s1 + 0xd8]\n 11656: a3 = ra <u t1\n 11659: u64 [s1 + 0x50] = a3\n 11662: a5 = a3 if a2 == 0\n 11665: t2 = u64 [s1 + 0xd0]\n 11669: a3 = a0 ^ t2\n 11672: u64 [s1 + 0x58] = a0\n 11675: a0 = a0 <u t2\n 11678: u64 [s1 + 0x60] = a1\n 11681: t0 = u64 [s1 + 0xf8]\n 11685: t0 = a1 <u t0\n 11688: a0 = t0 if a3 == 0\n 11691: a1 = ra ^ t1\n 11694: a1 = a1 | a2\n 11697: a5 = a0 if a1 == 0\n 11700: jump @445 if a5 == 0\n      : @444 (gas: 1)\n 11703: jump @728\n      : @445 (gas: 23)\n 11706: a1 = ra - t1\n 11709: a2 = u64 [s1 + 0x48]\n 11712: a2 = a2 - a4\n 11715: a3 = u64 [s1 + 0x50]\n 11718: a2 = a2 - a3\n 11721: a3 = a1 <u a0\n 11724: a2 = a2 - a3\n 11727: a1 = a1 - a0\n 11730: a0 = u64 [s1 + 0x58]\n 11733: a0 = a0 - t2\n 11736: a0 = a0 - t0\n 11739: a3 = u64 [s1 + 0x60]\n 11742: a4 = u64 [s1 + 0xf8]\n 11746: a3 = a3 - a4\n 11749: a4 = s1 + 0x2078\n 11753: a5 = a4 + 0x100\n 11757: u64 [a5 + 0x68] = a3\n 11760: u64 [a5 + 0x70] = a0\n 11763: u64 [a5 + 0x78] = a1\n 11766: u64 [a5 + 0x80] = a2\n 11770: a1 = s1 + 0x21e0\n 11774: a0 = u64 [s1 + 0x68]\n 11777: ra = 390, jump @12\n      : @446 [@dyn 195] (gas: 6)\n 11783: a0 = u64 [s1 + 0xe8]\n 11787: a0 = a0 & 0x3\n 11790: a3 = u64 [s1 + 0xb8]\n 11794: a2 = u64 [s1 + 0xb0]\n 11798: a5 = u64 [s1 + 0xa8]\n 11802: jump @451 if a0 == 0\n      : @447 (gas: 1)\n 11806: jump @456 if a0 != 1\n      : @448 (gas: 20)\n 11811: a0 = sp + 0xffffffffffffffe0\n 11814: a1 = a0 & 0xffffffffffffffe0\n 11817: sp = a1\n 11819: a4 = u64 [s1 + 0x88]\n 11823: a0 = a4 <u a5\n 11826: a5 = a2 + a0\n 11829: a2 = a5 <u a2\n 11832: a2 = a0 if a0 == 0\n 11835: a2 = a2 + a3\n 11838: a0 = a2 <u a3\n 11841: a3 = u64 [s1 + 0x90]\n 11845: a0 = a0 + a3\n 11848: u64 [s1 + 0xf0] = a1\n 11852: u64 [a1 + 0x8] = a5\n 11855: u64 [a1] = a4\n 11857: u64 [a1 + 0x10] = a2\n 11860: u64 [a1 + 0x18] = a0\n 11863: a0 = s1 + 0x7ff\n 11867: a0 = a0 + 0x4a1\n 11871: ra = 392, jump @11\n      : @449 [@dyn 196] (gas: 23)\n 11877: a2 = s1 + 0x7ff\n 11881: a2 = a2 + 0x79\n 11884: a4 = a2 + 0x400\n 11888: a0 = u64 [a4 + 0x30]\n 11891: a1 = u64 [a4 + 0x28]\n 11894: t0 = u64 [a2 + 0x440]\n 11898: a3 = u64 [a4 + 0x38]\n 11901: a4 = u64 [s1 + 0xd0]\n 11905: a4 = a4 + a0\n 11908: a5 = u64 [s1 + 0xf8]\n 11912: a5 = a5 + a1\n 11915: a1 = a5 <u a1\n 11918: a4 = a4 + a1\n 11921: a2 = a4 ^ a0\n 11924: a0 = a4 <u a0\n 11927: a0 = a1 if a2 == 0\n 11930: a1 = u64 [s1 + 0xd8]\n 11934: a1 = a1 + a3\n 11937: a2 = u64 [s1 + 0xe0]\n 11941: t0 = t0 + a2\n 11944: a2 = a1 <u a3\n 11947: a2 = a2 + t0\n 11950: t0 = 394, jump @1289\n      : @450 [@dyn 197] (gas: 6)\n 11956: u64 [a3 + 0x28] = a5\n 11959: u64 [a3 + 0x30] = a4\n 11962: u64 [a3 + 0x38] = a0\n 11965: u64 [a3 + 0x40] = a1\n 11968: a0 = 0x22a0\n 11972: jump @454\n      : @451 (gas: 4)\n 11974: a0 = s1 + 0x7ff\n 11978: a0 = a0 + 0x481\n 11982: a1 = u64 [s1 + 0xf0]\n 11986: ra = 396, jump @11\n      : @452 [@dyn 198] (gas: 23)\n 11992: a2 = s1 + 0x7ff\n 11996: a2 = a2 + 0x79\n 11999: a4 = a2 + 0x400\n 12003: a0 = u64 [a4 + 0x10]\n 12006: a1 = u64 [a4 + 0x8]\n 12009: t0 = u64 [a2 + 0x420]\n 12013: a3 = u64 [a4 + 0x18]\n 12016: a4 = u64 [s1 + 0xd0]\n 12020: a4 = a4 + a0\n 12023: a5 = u64 [s1 + 0xf8]\n 12027: a5 = a5 + a1\n 12030: a1 = a5 <u a1\n 12033: a4 = a4 + a1\n 12036: a2 = a4 ^ a0\n 12039: a0 = a4 <u a0\n 12042: a0 = a1 if a2 == 0\n 12045: a1 = u64 [s1 + 0xd8]\n 12049: a1 = a1 + a3\n 12052: a2 = a1 <u a3\n 12055: a3 = u64 [s1 + 0xe0]\n 12059: t0 = t0 + a3\n 12062: a2 = a2 + t0\n 12065: t0 = 398, jump @1289\n      : @453 [@dyn 199] (gas: 6)\n 12071: u64 [a3 + 0x48] = a5\n 12074: u64 [a3 + 0x50] = a4\n 12077: u64 [a3 + 0x58] = a0\n 12080: u64 [a3 + 0x60] = a1\n 12083: a0 = 0x22c0\n 12087: fallthrough\n      : @454 (gas: 3)\n 12088: a1 = s1 + a0\n 12091: a0 = u64 [s1 + 0xf0]\n 12095: ra = 400, jump @12\n      : @455 [@dyn 200] (gas: 1)\n 12101: jump @461\n      : @456 (gas: 57)\n 12104: a0 = u64 [s1 + 0xa0]\n 12108: ecalli 4 // 'caller'\n 12110: a1 = u64 [s1 + 0xc8]\n 12114: a0 = i32 [a1 + 0x10]\n 12117: u64 [s1 + 0xf0] = a0\n 12121: a0 = u64 [a1]\n 12123: u64 [s1 + 0xe8] = a0\n 12127: a0 = u64 [a1 + 0x8]\n 12130: u64 [s1 + 0xb8] = a0\n 12134: ecalli 11 // 'ref_time_left'\n 12136: a1 = u64 [s1 + 0xc8]\n 12140: a2 = u64 [s1 + 0xb8]\n 12144: u64 [a1 + 0x8] = a2\n 12147: a2 = u64 [s1 + 0xe8]\n 12151: u64 [a1] = a2\n 12153: a2 = u64 [s1 + 0xf0]\n 12157: u32 [a1 + 0x10] = a2\n 12160: a3 = a1\n 12162: a2 = s1 + 0x2078\n 12166: a1 = u64 [s1 + 0xe0]\n 12170: a4 = a2 + 0x100\n 12174: u64 [a4 + 0xc0] = a1\n 12178: a1 = u64 [s1 + 0xd8]\n 12182: u64 [a4 + 0xb8] = a1\n 12186: a1 = u64 [s1 + 0xd0]\n 12190: u64 [a4 + 0xb0] = a1\n 12194: a1 = u64 [s1 + 0xf8]\n 12198: u64 [a4 + 0xa8] = a1\n 12202: u32 [a2 + 456] = 0\n 12206: a0 = a0 >u 0x8fc\n 12210: a1 = -a0\n 12212: u64 [a2 + 0x200] = a1\n 12216: u64 [a4 + 0xf8] = a1\n 12220: u64 [a4 + 0xf0] = a1\n 12224: u64 [a4 + 0xe8] = a1\n 12228: a1 = a3 << 0x20\n 12231: a1 = a1 >> 0x20\n 12234: a0 = a0 << 0x23\n 12237: a0 = a0 | a1\n 12240: a1 = s1 + 0x2220\n 12244: a1 = a1 << 0x20\n 12247: a1 = a1 >> 0x20\n 12250: a2 = s1 + 0x2260\n 12254: a2 = a2 << 0x20\n 12257: a3 = a2 | a1\n 12260: a4 = u64 [s1 + 0x98]\n 12264: a4 = a4 << 0x20\n 12267: a4 = a4 >> 0x20\n 12270: a1 = s1 + 0x2240\n 12274: a1 = a1 << 0x20\n 12277: a5 = a1 | a4\n 12280: a1 = 0xffffffffffffffff\n 12283: a2 = 0xffffffffffffffff\n 12286: ecalli 0 // 'call'\n 12287: u64 [s1 + 0xf0] = a0\n 12291: ecalli 13 // 'return_data_size'\n 12293: fallthrough\n      : @457 (gas: 2)\n 12294: a2 = u64 [s1 + 0xf0]\n 12298: jump @459 if a0 == 0\n      : @458 (gas: 1)\n 12301: jump @635\n      : @459 (gas: 1)\n 12304: jump @461 if a2 == 0\n      : @460 (gas: 1)\n 12307: jump @743\n      : @461 (gas: 4)\n 12310: a0 = s1 + 0x7ff\n 12314: a0 = a0 + 0x3c1\n 12318: a1 = 0x40\n 12321: ra = 402, jump @7\n      : @462 [@dyn 201] (gas: 8)\n 12327: a3 = s1 + 0x7ff\n 12331: a3 = a3 + 0x79\n 12334: a4 = a3 + 0x300\n 12338: a0 = u64 [a4 + 0x60]\n 12341: a1 = u64 [a4 + 0x58]\n 12344: a2 = u64 [a4 + 0x50]\n 12347: a3 = u64 [a4 + 0x48]\n 12350: t0 = 404, jump @1254\n      : @463 [@dyn 202] (gas: 1)\n 12356: jump @465 if a0 == 0\n      : @464 (gas: 1)\n 12359: jump @646\n      : @465 (gas: 16)\n 12362: a0 = u64 [s1 + 0xf8]\n 12366: a2 = s1 + 0x7ff\n 12370: a2 = a2 + 0x79\n 12373: a4 = a2 + 0x300\n 12377: u64 [a4 + 0x28] = a0\n 12380: a0 = u64 [s1 + 0xd0]\n 12384: u64 [a4 + 0x30] = a0\n 12387: a0 = u64 [s1 + 0xd8]\n 12391: u64 [a4 + 0x38] = a0\n 12394: a1 = s1 + 0x7ff\n 12398: a1 = a1 + 0x3a1\n 12402: a0 = u64 [s1 + 0xe0]\n 12406: u64 [a4 + 0x40] = a0\n 12409: a0 = a3\n 12411: u64 [s1 + 0xf8] = a3\n 12415: ra = 406, jump @9\n      : @466 [@dyn 203] (gas: 6)\n 12421: a0 = u64 [s1 + 0xa0]\n 12425: ra = 0x198\n 12429: ecalli 4 // 'caller'\n 12431: a2 = u64 [s1 + 0xc8]\n 12435: t0 = 0x19a\n 12439: jump @1262\n      : @467 [@dyn 204] (gas: 2)\n 12442: a2 = u64 [s1 + 0xc8]\n 12446: t0 = 410, jump @1262\n      : @468 [@dyn 205] (gas: 37)\n 12452: a5 = s1 + 0x7ff\n 12456: a5 = a5 + 0x79\n 12459: u64 [a5 + 704] = 0\n 12463: u64 [a5 + 696] = 0\n 12467: a3 = u64 [s1 + 0x78]\n 12470: u64 [a5 + 0x2a8] = a3\n 12474: a3 = u64 [s1 + 0xc0]\n 12478: u64 [a5 + 0x2c8] = a3\n 12482: a3 = u64 [0x20080]\n 12487: a4 = u64 [0x20088]\n 12492: u64 [a5 + 688] = 0\n 12496: u64 [a5 + 736] = 0\n 12500: u64 [a5 + 0x320] = a3\n 12504: u64 [a5 + 0x318] = a4\n 12508: a3 = u64 [0x20090]\n 12513: a4 = u64 [0x20098]\n 12518: u64 [a5 + 728] = 0\n 12522: u64 [a5 + 720] = 0\n 12526: u64 [a5 + 0x310] = a3\n 12530: u64 [a5 + 0x308] = a4\n 12534: a3 = a5 + 0x200\n 12538: u64 [a3 + 0xf8] = a2\n 12542: u64 [a3 + 0xf0] = a1\n 12546: u64 [a3 + 0xe8] = a0\n 12550: a0 = a5\n 12552: a1 = 0x20\n 12555: a2 = s1 + 0x7ff\n 12559: a2 = a2 + 0x381\n 12563: a3 = s1 + 0x7ff\n 12567: a3 = a3 + 0x361\n 12571: a4 = s1 + 0x7ff\n 12575: a4 = a4 + 0x341\n 12579: a5 = s1 + 0x7ff\n 12583: a5 = a5 + 0x321\n 12587: u64 [a0 + 768] = 0\n 12591: a0 = u64 [s1 + 0xf8]\n 12595: ra = 412, jump @17\n      : @469 [@dyn 206] (gas: 5)\n 12601: a0 = 0\n 12603: a1 = u64 [s1 + 0x80]\n 12607: a2 = 0\n 12609: ecalli 14 // 'seal_return'\n 12611: jump @1011\n      : @470 (gas: 19)\n 12614: a0 = u64 [s1 + 0xf8]\n 12618: a2 = u64 [s1 + 0x88]\n 12622: a0 = a0 | a2\n 12625: a2 = u64 [s1 + 0x78]\n 12628: a0 = a2 if a4 == 0\n 12631: t1 = u64 [s1 + 0xa0]\n 12635: a3 = t1\n 12637: t0 = u64 [s1 + 0xc8]\n 12641: a3 = a0 if t0 != 0\n 12644: u64 [s1 + 0xf8] = a3\n 12648: a0 = u64 [s1 + 0xc0]\n 12652: a2 = u64 [s1 + 0x90]\n 12656: a0 = a0 | a2\n 12659: a2 = u64 [s1 + 0x80]\n 12663: a0 = a2 if a4 == 0\n 12666: a5 = u64 [s1 + 0xb0]\n 12670: a3 = a5\n 12672: a3 = a0 if t0 != 0\n 12675: t0 = 414, jump @1274\n      : @471 [@dyn 207] (gas: 1)\n 12681: ra = 416, jump @1293\n      : @472 [@dyn 208] (gas: 6)\n 12687: u64 [s1 + 0x90] = a0\n 12691: u64 [s1 + 0x80] = a1\n 12695: a0 = u64 [s1 + 0xa8]\n 12699: a1 = u64 [s1 + 0xb8]\n 12703: a2 = u64 [s1 + 0xf0]\n 12707: ra = 418, jump @1293\n      : @473 [@dyn 209] (gas: 7)\n 12713: u64 [s1 + 0x78] = a0\n 12716: u64 [s1 + 0x88] = a1\n 12720: a1 = u64 [s1 + 0xf0]\n 12724: a2 = 0x80 - a1\n 12728: a0 = u64 [s1 + 0xb0]\n 12732: a1 = u64 [s1 + 0xa0]\n 12736: ra = 420, jump @1298\n      : @474 [@dyn 210] (gas: 21)\n 12742: a2 = u64 [s1 + 0x88]\n 12746: a1 = a1 | a2\n 12749: a3 = u64 [s1 + 0xf0]\n 12753: a4 = a3 <u 0x80\n 12757: u64 [s1 + 0x88] = a4\n 12761: a2 = u64 [s1 + 0x80]\n 12765: a1 = a2 if a4 == 0\n 12768: a2 = u64 [s1 + 0xb8]\n 12772: a2 = a1 if a3 != 0\n 12775: u64 [s1 + 0xb8] = a2\n 12779: a1 = u64 [s1 + 0x78]\n 12782: a0 = a0 | a1\n 12785: a1 = u64 [s1 + 0x90]\n 12789: a0 = a1 if a4 == 0\n 12792: a1 = u64 [s1 + 0xa8]\n 12796: a1 = a0 if a3 != 0\n 12799: a2 = a3\n 12801: u64 [s1 + 0xa8] = a1\n 12805: a0 = u64 [s1 + 0xb0]\n 12809: a1 = u64 [s1 + 0xa0]\n 12813: ra = 422, jump @1293\n      : @475 [@dyn 211] (gas: 3)\n 12819: a4 = 0\n 12821: a5 = 0\n 12823: t0 = 424, jump @1277\n      : @476 [@dyn 212] (gas: 3)\n 12829: t1 = u64 [s1 + 0xb8]\n 12833: t2 = u64 [s1 + 0xa8]\n 12837: fallthrough\n      : @477 (gas: 89)\n 12838: u64 [s1 + 0xb8] = a4\n 12842: a2 = t2 >> 0x3f\n 12845: a3 = t1 << 0x1\n 12848: t0 = a3 | a2\n 12851: a3 = t2 << 0x1\n 12854: a4 = u64 [s1 + 0xf8]\n 12858: a4 = a4 >> 0x3f\n 12861: a3 = a3 | a4\n 12864: u64 [s1 + 0xa8] = a3\n 12868: a2 = u64 [s1 + 0x88]\n 12872: t2 = a1\n 12874: u64 [s1 + 0xb0] = t0\n 12878: a1 = a2 ^ t0\n 12881: ra = t1\n 12883: t1 = a2 <u t0\n 12886: a4 = u64 [s1 + 0x90]\n 12890: t0 = a4 <u a3\n 12893: t0 = t1 if a1 != 0\n 12896: a1 = t2 << 0x1\n 12899: a3 = a0 >> 0x3f\n 12902: a1 = a1 | a3\n 12905: u64 [s1 + 0xa0] = a1\n 12909: a3 = ra >> 0x3f\n 12912: a0 = a0 << 0x1\n 12915: a3 = a3 | a0\n 12918: a0 = u64 [s1 + 0xf8]\n 12922: a0 = a0 << 0x1\n 12925: a4 = u64 [s1 + 0xc0]\n 12929: a1 = a4 >> 0x3f\n 12932: ra = a0 | a1\n 12935: a1 = a4 << 0x1\n 12938: a4 = u64 [s1 + 0xc8]\n 12942: t1 = a4 >> 0x3f\n 12945: t1 = a1 | t1\n 12948: a1 = a4 << 0x1\n 12951: a4 = u64 [s1 + 0xe8]\n 12955: t2 = a4 >> 0x3f\n 12958: a1 = a1 | t2\n 12961: a4 = a4 << 0x1\n 12964: a0 = u64 [s1 + 0xb8]\n 12968: a4 = a4 | a0\n 12971: u64 [s1 + 0xe8] = a4\n 12975: a1 = a1 | a5\n 12978: u64 [s1 + 0xc8] = a1\n 12982: a1 = a5 | t1\n 12985: u64 [s1 + 0xc0] = a1\n 12989: a0 = a5 | ra\n 12992: u64 [s1 + 0xf8] = a0\n 12996: a0 = a2 - a3\n 12999: a0 = a0 <u t0\n 13002: a1 = a2 <u a3\n 13005: t0 = u64 [s1 + 0xa0]\n 13009: a4 = a2 - t0\n 13012: a4 = a4 - a1\n 13015: a4 = a4 - a0\n 13018: a5 = a4 >>a 0x3f\n 13021: a0 = u64 [s1 + 0x98]\n 13025: a0 = a0 & a5\n 13028: a1 = u64 [s1 + 0xa8]\n 13032: t2 = a1 - a0\n 13035: a1 = a1 <u a0\n 13038: a0 = u64 [s1 + 0xb0]\n 13042: t1 = a0 - a1\n 13045: a1 = 0 if a0 != 0\n 13047: a0 = a3 - a1\n 13050: a1 = a3 <u a1\n 13053: a1 = t0 - a1\n 13056: a3 = u64 [s1 + 0xf0]\n 13060: ra = u64 [s1 + 0xe0]\n 13064: a2 = a3 | ra\n 13067: a2 = a2 <u 0x1\n 13070: a4 = u64 [s1 + 0xd0]\n 13074: t0 = a4 <u a2\n 13077: a2 = a4 - a2\n 13080: a4 = a3 <u 0x1\n 13083: ra = ra - a4\n 13086: a4 = u64 [s1 + 0xd8]\n 13090: a4 = a4 - t0\n 13093: a3 = a3 + 0xffffffffffffffff\n 13096: u64 [s1 + 0xe0] = ra\n 13100: u64 [s1 + 0xd8] = a4\n 13104: t0 = ra | a4\n 13107: u64 [s1 + 0xf0] = a3\n 13111: a4 = a3 | a2\n 13114: a3 = a4 | t0\n 13117: a4 = a5 & 0x1\n 13120: u64 [s1 + 0xd0] = a2\n 13124: a5 = 0\n 13126: jump @477 if a3 != 0\n      : @478 (gas: 4)\n 13130: a0 = u64 [s1 + 0xe8]\n 13134: a0 = a0 << 0x1\n 13137: a4 = a4 | a0\n 13140: fallthrough\n      : @479 (gas: 3)\n 13141: a0 = a4 & 0xffffffffffffffff\n 13144: a1 = u64 [s1 + 0x38]\n 13147: jump @481 if a1 == a0\n      : @480 (gas: 1)\n 13150: jump @717\n      : @481 (gas: 9)\n 13153: a0 = 0x30160\n 13158: u64 [s1 + 0xb0] = a0\n 13162: i32 a0 = a0 + 0\n 13164: u64 [s1 + 0xa8] = a0\n 13168: ra = 0x1aa\n 13172: ecalli 4 // 'caller'\n 13174: a2 = u64 [s1 + 0xb0]\n 13178: t0 = 0x1ac\n 13182: jump @1241\n      : @482 [@dyn 213] (gas: 2)\n 13185: a2 = u64 [s1 + 0xb0]\n 13189: t0 = 428, jump @1241\n      : @483 [@dyn 214] (gas: 9)\n 13195: u64 [a2 + 384] = 0\n 13199: a4 = a2 + 0x100\n 13203: u64 [a4 + 0x78] = a1\n 13206: u64 [a4 + 0x70] = a0\n 13209: a1 = s1 + 0x7ff\n 13213: a1 = a1 + 0x1e1\n 13217: u64 [a4 + 0x68] = a3\n 13220: a0 = 0\n 13222: ra = 430, jump @9\n      : @484 [@dyn 215] (gas: 11)\n 13228: a1 = s1 + 0x7ff\n 13232: a1 = a1 + 0x79\n 13235: u64 [a1 + 352] = 0\n 13239: u64 [a1 + 344] = 0\n 13243: u64 [a1 + 328] = 0x2\n 13248: a2 = a1\n 13250: a0 = 0x20\n 13253: a1 = s1 + 0x7ff\n 13257: a1 = a1 + 0x1c1\n 13261: u64 [a2 + 336] = 0\n 13265: ra = 432, jump @9\n      : @485 [@dyn 216] (gas: 7)\n 13271: a0 = sp + 0xffffffffffffffe0\n 13274: a0 = a0 & 0xffffffffffffffe0\n 13277: u64 [s1 + 0x70] = a0\n 13280: sp = a0\n 13282: a1 = 0x20150\n 13287: a0 = i32 [0x20150]\n 13292: jump @487 if a0 >u 63\n      : @486 (gas: 2)\n 13296: u32 [0x20150] = 0x40\n 13302: fallthrough\n      : @487 (gas: 14)\n 13303: a0 = sp + 0xffffffffffffffe0\n 13306: a2 = a0 & 0xffffffffffffffe0\n 13309: u64 [s1 + 0xf8] = a2\n 13313: sp = a2\n 13315: a0 = 0x20160\n 13320: i32 a0 = a0 + 0\n 13322: i32 a2 = a2 + 0\n 13324: u64 [s1 + 0xe0] = a1\n 13328: a1 = 0x40\n 13331: u64 [s1 + 0xe8] = a0\n 13335: ra = 0x1b2\n 13339: ecalli 9 // 'hash_keccak_256'\n 13341: t0 = 0x1b4\n 13345: jump @1288\n      : @488 [@dyn 217] (gas: 1)\n 13348: t0 = 436, jump @1288\n      : @489 [@dyn 218] (gas: 18)\n 13354: a4 = reverse a1\n 13356: a1 = reverse a2\n 13358: a2 = reverse a3\n 13360: a0 = u64 [s1 + 0x70]\n 13363: u64 [s1 + 0xf0] = a2\n 13367: u64 [a0 + 0x18] = a2\n 13370: u64 [s1 + 0xf8] = a1\n 13374: u64 [a0 + 0x10] = a1\n 13377: u64 [s1 + 0xd8] = a4\n 13381: u64 [a0 + 0x8] = a4\n 13384: u64 [s1 + 0xd0] = a5\n 13388: u64 [a0] = a5\n 13390: a0 = u64 [s1 + 0xa8]\n 13394: ra = 0x1b6\n 13398: ecalli 4 // 'caller'\n 13400: a2 = u64 [s1 + 0xb0]\n 13404: t0 = 0x1b8\n 13408: jump @1241\n      : @490 [@dyn 219] (gas: 2)\n 13411: a2 = u64 [s1 + 0xb0]\n 13415: t0 = 440, jump @1241\n      : @491 [@dyn 220] (gas: 9)\n 13421: u64 [a2 + 320] = 0\n 13425: a4 = a2 + 0x100\n 13429: u64 [a4 + 0x38] = a1\n 13432: u64 [a4 + 0x30] = a0\n 13435: a1 = s1 + 0x7ff\n 13439: a1 = a1 + 0x1a1\n 13443: u64 [a4 + 0x28] = a3\n 13446: a0 = 0\n 13448: ra = 442, jump @9\n      : @492 [@dyn 221] (gas: 11)\n 13454: a1 = s1 + 0x7ff\n 13458: a1 = a1 + 0x79\n 13461: u64 [a1 + 288] = 0\n 13465: u64 [a1 + 280] = 0\n 13469: u64 [a1 + 264] = 0x4\n 13474: a2 = a1\n 13476: a0 = 0x20\n 13479: a1 = s1 + 0x7ff\n 13483: a1 = a1 + 0x181\n 13487: u64 [a2 + 272] = 0\n 13491: ra = 444, jump @9\n      : @493 [@dyn 222] (gas: 3)\n 13497: a1 = u64 [s1 + 0xe0]\n 13501: a0 = i32 [a1]\n 13503: jump @495 if a0 >u 63\n      : @494 (gas: 2)\n 13507: u32 [a1 + 0] = 0x40\n 13510: fallthrough\n      : @495 (gas: 4)\n 13511: a0 = sp + 0xffffffffffffffe0\n 13514: a0 = a0 & 0xffffffffffffffe0\n 13517: u64 [s1 + 0xc8] = a0\n 13521: t0 = 446, jump @1256\n      : @496 [@dyn 223] (gas: 5)\n 13527: ra = 0x1c0\n 13531: ecalli 9 // 'hash_keccak_256'\n 13533: a3 = u64 [s1 + 0xc8]\n 13537: t0 = 0x1c2\n 13541: jump @1275\n      : @497 [@dyn 224] (gas: 2)\n 13544: a3 = u64 [s1 + 0xc8]\n 13548: t0 = 450, jump @1275\n      : @498 [@dyn 225] (gas: 10)\n 13554: i32 a4 = a4 + 0x78\n 13557: a4 = a4 + s1\n 13560: u64 [a4 + 0x20] = a3\n 13563: u64 [a4 + 0x18] = a2\n 13566: u64 [a4 + 0x10] = a1\n 13569: u64 [a4 + 0x8] = a0\n 13572: a0 = s1 + 0x7ff\n 13576: a0 = a0 + 0x161\n 13580: a1 = s1 + 0x2080\n 13584: ra = 452, jump @11\n      : @499 [@dyn 226] (gas: 10)\n 13590: a0 = s1 + 0x7ff\n 13594: a0 = a0 + 0x79\n 13597: a0 = u32 [a0 + 0xe8]\n 13601: u64 [s1 + 0xa0] = a0\n 13605: a0 = u64 [s1 + 0xa8]\n 13609: ra = 0x1c6\n 13613: ecalli 4 // 'caller'\n 13615: a2 = u64 [s1 + 0xb0]\n 13619: t0 = 0x1c8\n 13623: jump @1241\n      : @500 [@dyn 227] (gas: 2)\n 13626: a2 = u64 [s1 + 0xb0]\n 13630: t0 = 456, jump @1241\n      : @501 [@dyn 228] (gas: 8)\n 13636: u64 [a2 + 224] = 0\n 13640: u64 [a2 + 0xd8] = a1\n 13644: u64 [a2 + 0xd0] = a0\n 13648: a1 = s1 + 0x7ff\n 13652: a1 = a1 + 0x141\n 13656: u64 [a2 + 0xc8] = a3\n 13660: a0 = 0\n 13662: ra = 458, jump @9\n      : @502 [@dyn 229] (gas: 11)\n 13668: a1 = s1 + 0x7ff\n 13672: a1 = a1 + 0x79\n 13675: u64 [a1 + 192] = 0\n 13679: u64 [a1 + 184] = 0\n 13683: u64 [a1 + 168] = 0x5\n 13688: a2 = a1\n 13690: a0 = 0x20\n 13693: a1 = s1 + 0x7ff\n 13697: a1 = a1 + 0x121\n 13701: u64 [a2 + 176] = 0\n 13705: ra = 460, jump @9\n      : @503 [@dyn 230] (gas: 3)\n 13711: a1 = u64 [s1 + 0xe0]\n 13715: a0 = i32 [a1]\n 13717: jump @505 if a0 >u 63\n      : @504 (gas: 2)\n 13721: u32 [a1 + 0] = 0x40\n 13724: fallthrough\n      : @505 (gas: 4)\n 13725: a0 = sp + 0xffffffffffffffe0\n 13728: a0 = a0 & 0xffffffffffffffe0\n 13731: u64 [s1 + 0xc8] = a0\n 13735: t0 = 462, jump @1256\n      : @506 [@dyn 231] (gas: 4)\n 13741: ra = 0x1d0\n 13745: ecalli 9 // 'hash_keccak_256'\n 13747: t0 = 0x1d2\n 13751: jump @1273\n      : @507 [@dyn 232] (gas: 1)\n 13754: t0 = 466, jump @1273\n      : @508 [@dyn 233] (gas: 18)\n 13760: u64 [s1 + 0x98] = a0\n 13764: a0 = reverse a3\n 13766: u64 [s1 + 0x90] = a0\n 13770: a0 = sp + 0xffffffffffffffe0\n 13773: a0 = a0 & 0xffffffffffffffe0\n 13776: u64 [s1 + 0xc8] = a0\n 13780: sp = a0\n 13782: a2 = s1 + 0x7ff\n 13786: a2 = a2 + 0x79\n 13789: u64 [a2 + 160] = 0\n 13793: u64 [a2 + 152] = 0\n 13797: u64 [a2 + 144] = 0\n 13801: a1 = s1 + 0x7ff\n 13805: a1 = a1 + 0x101\n 13809: a0 = u64 [s1 + 0x38]\n 13812: u64 [a2 + 0x88] = a0\n 13816: a0 = 0\n 13818: ra = 468, jump @9\n      : @509 [@dyn 234] (gas: 15)\n 13824: a0 = u64 [s1 + 0x90]\n 13828: a1 = s1 + 0x7ff\n 13832: a1 = a1 + 0x79\n 13835: u64 [a1 + 0x80] = a0\n 13839: a0 = u64 [s1 + 0x98]\n 13843: u64 [a1 + 0x78] = a0\n 13846: a0 = u64 [s1 + 0xb8]\n 13850: u64 [a1 + 0x70] = a0\n 13853: a3 = a1\n 13855: a0 = 0x20\n 13858: a1 = s1 + 0x7ff\n 13862: a1 = a1 + 0xe1\n 13866: a2 = u64 [s1 + 0xc0]\n 13870: u64 [a3 + 0x68] = a2\n 13873: ra = 470, jump @9\n      : @510 [@dyn 235] (gas: 3)\n 13879: a1 = u64 [s1 + 0xe0]\n 13883: a0 = i32 [a1]\n 13885: jump @512 if a0 >u 63\n      : @511 (gas: 2)\n 13889: u32 [a1 + 0] = 0x40\n 13892: fallthrough\n      : @512 (gas: 6)\n 13893: a0 = 0xffffffff\n 13903: u64 [s1 + 0x98] = a0\n 13907: a0 = sp + 0xffffffffffffffe0\n 13910: a0 = a0 & 0xffffffffffffffe0\n 13913: u64 [s1 + 0xc0] = a0\n 13917: t0 = 472, jump @1256\n      : @513 [@dyn 236] (gas: 5)\n 13923: ra = 0x1da\n 13927: ecalli 9 // 'hash_keccak_256'\n 13929: a3 = u64 [s1 + 0xc0]\n 13933: t0 = 0x1dc\n 13937: jump @1283\n      : @514 [@dyn 237] (gas: 2)\n 13940: a3 = u64 [s1 + 0xc0]\n 13944: t0 = 476, jump @1283\n      : @515 [@dyn 238] (gas: 12)\n 13950: a1 = u64 [s1 + 0xc8]\n 13954: u64 [a1 + 0x18] = a3\n 13957: u64 [a1 + 0x10] = a2\n 13960: u64 [a1 + 0x8] = a4\n 13963: u64 [a1] = a0\n 13965: a0 = sp + 0xffffffffffffffe0\n 13968: a0 = a0 & 0xffffffffffffffe0\n 13971: u64 [s1 + 0x30] = a0\n 13974: sp = a0\n 13976: a0 = s1 + 0x7ff\n 13980: a0 = a0 + 0xc1\n 13984: ra = 478, jump @11\n      : @516 [@dyn 239] (gas: 31)\n 13990: a3 = 0x1\n 13993: u64 [s1 + 96] = 0\n 13996: u64 [s1 + 104] = 0\n 13999: a5 = 0\n 14001: a1 = s1 + 0x7ff\n 14005: a1 = a1 + 0x79\n 14008: a0 = u64 [a1 + 0x60]\n 14011: u64 [s1 + 0x90] = a0\n 14015: a0 = u64 [a1 + 0x58]\n 14018: u64 [s1 + 0x88] = a0\n 14022: a2 = u64 [s1 + 0xd0]\n 14026: a2 = a2 + a3\n 14029: a0 = a2 <u a3\n 14032: a4 = u64 [s1 + 0xd8]\n 14036: a0 = a0 + a4\n 14039: u64 [s1 + 0x58] = a2\n 14042: u64 [s1 + 0x50] = a0\n 14045: a0 = a0 | a2\n 14048: a0 = a0 <u a3\n 14051: a2 = u64 [s1 + 0xf8]\n 14055: a0 = a0 + a2\n 14058: u64 [s1 + 0x48] = a0\n 14061: a0 = a0 <u a2\n 14064: a2 = u64 [s1 + 0xf0]\n 14068: a0 = a0 + a2\n 14071: u64 [s1 + 0x40] = a0\n 14074: a0 = u64 [a1 + 0x50]\n 14077: u64 [s1 + 0x80] = a0\n 14081: a0 = u64 [a1 + 0x48]\n 14084: u64 [s1 + 0x78] = a0\n 14087: fallthrough\n      : @517 (gas: 10)\n 14088: a1 = 0x1\n 14091: a1 = a1 if a5 == 0\n 14094: a0 = u64 [s1 + 0xa0]\n 14098: a0 = a0 <u a3\n 14101: a0 = a0 ^ 0x1\n 14104: a2 = 0x1\n 14107: a2 = a0 if a5 == 0\n 14110: a0 = 0\n 14112: a2 = a1 if a0 != 0\n 14115: jump @552 if a2 == 0\n      : @518 (gas: 9)\n 14119: u64 [s1 + 184] = 0\n 14123: u64 [s1 + 240] = 0\n 14127: u64 [s1 + 0xf8] = a3\n 14131: a0 = u64 [s1 + 0xa8]\n 14135: ra = 0x1e0\n 14139: ecalli 4 // 'caller'\n 14141: a2 = u64 [s1 + 0xb0]\n 14145: t0 = 0x1e2\n 14149: jump @1241\n      : @519 [@dyn 240] (gas: 2)\n 14152: a2 = u64 [s1 + 0xb0]\n 14156: t0 = 482, jump @1241\n      : @520 [@dyn 241] (gas: 8)\n 14162: u64 [a2 + 64] = 0\n 14165: u64 [a2 + 0x38] = a1\n 14168: u64 [a2 + 0x30] = a0\n 14171: a1 = s1 + 0x7ff\n 14175: a1 = a1 + 0xa1\n 14179: u64 [a2 + 0x28] = a3\n 14182: a0 = 0\n 14184: ra = 484, jump @9\n      : @521 [@dyn 242] (gas: 11)\n 14190: a0 = s1 + 0x7ff\n 14194: a0 = a0 + 0x79\n 14197: u64 [a0 + 32] = 0\n 14200: u64 [a0 + 24] = 0\n 14203: u64 [a0 + 16] = 0\n 14206: a3 = a0\n 14208: a0 = 0x20\n 14211: a1 = s1 + 0x7ff\n 14215: a1 = a1 + 0x81\n 14219: u64 [a3 + 8] = 0x3\n 14223: ra = 486, jump @9\n      : @522 [@dyn 243] (gas: 3)\n 14229: a1 = u64 [s1 + 0xe0]\n 14233: a0 = i32 [a1]\n 14235: jump @524 if a0 >u 63\n      : @523 (gas: 2)\n 14239: u32 [a1 + 0] = 0x40\n 14242: fallthrough\n      : @524 (gas: 4)\n 14243: a0 = sp + 0xffffffffffffffe0\n 14246: a0 = a0 & 0xffffffffffffffe0\n 14249: u64 [s1 + 0xd8] = a0\n 14253: t0 = 488, jump @1256\n      : @525 [@dyn 244] (gas: 4)\n 14259: ra = 0x1ea\n 14263: ecalli 9 // 'hash_keccak_256'\n 14265: t0 = 0x1ec\n 14269: jump @1265\n      : @526 [@dyn 245] (gas: 1)\n 14272: t0 = 492, jump @1265\n      : @527 [@dyn 246] (gas: 14)\n 14278: a0 = s1 + 0x7ff\n 14282: a0 = a0 + 0x79\n 14285: a1 = u64 [s1 + 0xf0]\n 14289: u64 [a0] = a1\n 14291: u64 [a0 + 0xfffffffffffffff8] = a1\n 14294: a0 = s1 + 0x1000\n 14298: u64 [a0 + 0xfffffffffffff868] = a1\n 14302: a1 = s1 + 0x7ff\n 14306: a1 = a1 + 0x61\n 14309: a0 = u64 [s1 + 0xf8]\n 14313: a2 = s1 + 0x1000\n 14317: u64 [a2 + 0xfffffffffffff860] = a0\n 14321: a0 = 0\n 14323: ra = 494, jump @9\n      : @528 [@dyn 247] (gas: 16)\n 14329: a0 = u64 [s1 + 0xc0]\n 14333: a1 = s1 + 0x1000\n 14337: u64 [a1 + 0xfffffffffffff858] = a0\n 14341: a0 = u64 [s1 + 0xc8]\n 14345: a1 = s1 + 0x1000\n 14349: u64 [a1 + 0xfffffffffffff850] = a0\n 14353: a0 = u64 [s1 + 0xd0]\n 14357: a1 = s1 + 0x1000\n 14361: u64 [a1 + 0xfffffffffffff848] = a0\n 14365: a0 = 0x20\n 14368: a1 = s1 + 0x7ff\n 14372: a1 = a1 + 0x41\n 14375: a2 = u64 [s1 + 0xd8]\n 14379: a3 = s1 + 0x1000\n 14383: u64 [a3 + 0xfffffffffffff840] = a2\n 14387: ra = 496, jump @9\n      : @529 [@dyn 248] (gas: 3)\n 14393: a1 = u64 [s1 + 0xe0]\n 14397: a0 = i32 [a1]\n 14399: jump @531 if a0 >u 63\n      : @530 (gas: 2)\n 14403: u32 [a1 + 0] = 0x40\n 14406: fallthrough\n      : @531 (gas: 4)\n 14407: a0 = sp + 0xffffffffffffffe0\n 14410: a0 = a0 & 0xffffffffffffffe0\n 14413: u64 [s1 + 0xd8] = a0\n 14417: t0 = 498, jump @1256\n      : @532 [@dyn 249] (gas: 4)\n 14423: ra = 0x1f4\n 14427: ecalli 9 // 'hash_keccak_256'\n 14429: t0 = 0x1f6\n 14433: jump @1251\n      : @533 [@dyn 250] (gas: 1)\n 14436: t0 = 502, jump @1251\n      : @534 [@dyn 251] (gas: 8)\n 14442: u64 [a1 + 0x28] = a3\n 14445: u64 [a1 + 0x30] = a2\n 14448: u64 [a1 + 0x38] = a4\n 14451: u64 [a1 + 0x40] = a0\n 14454: a0 = s1 + 0x7ff\n 14458: a0 = a0 + 0x21\n 14461: a1 = s1 + 0x20a0\n 14465: ra = 504, jump @11\n      : @535 [@dyn 252] (gas: 4)\n 14471: a0 = s1 + 0x1000\n 14475: a0 = u64 [a0 + 0xfffffffffffff828]\n 14479: a0 = a0 & 0xff\n 14483: jump @542 if a0 != 0\n      : @536 (gas: 5)\n 14487: a0 = s1 + 0x1000\n 14491: a0 = u64 [a0 + 0xfffffffffffff820]\n 14495: a0 = a0 & 0xffffffffffffffff\n 14498: a3 = u64 [s1 + 0xf8]\n 14502: jump @543 if a0 == 0\n      : @537 (gas: 15)\n 14506: a2 = u64 [s1 + 0xf0]\n 14510: a0 = a2 >u 0\n 14512: a1 = a3 <u 0x100\n 14516: a1 = a1 ^ 0x1\n 14519: a1 = a0 if a2 != 0\n 14522: a0 = a2 >u 0\n 14524: a4 = a2 >u 0\n 14526: a4 = a0 if a2 == 0\n 14529: a0 = u64 [s1 + 0xb8]\n 14533: a4 = a1 if a0 == 0\n 14536: u64 [s1 + 0xd0] = a4\n 14540: i32 a2 = a3 + 0xffffffffffffff80\n 14543: a0 = 0x1\n 14546: a1 = 0\n 14548: ra = 506, jump @1298\n      : @538 [@dyn 253] (gas: 7)\n 14554: u64 [s1 + 0xf0] = a0\n 14558: u64 [s1 + 0xd8] = a1\n 14562: a1 = u64 [s1 + 0xf8]\n 14566: i32 a2 = 0x80 - a1\n 14570: a0 = 0x1\n 14573: a1 = 0\n 14575: ra = 508, jump @1293\n      : @539 [@dyn 254] (gas: 7)\n 14581: u64 [s1 + 0xb8] = a0\n 14585: u64 [s1 + 0xc0] = a1\n 14589: a2 = i32 [s1 + 0xf8]\n 14593: u64 [s1 + 0xc8] = a2\n 14597: a0 = 0\n 14599: a1 = 0\n 14601: ra = 510, jump @1298\n      : @540 [@dyn 255] (gas: 19)\n 14607: a4 = u64 [s1 + 0xb8]\n 14611: a4 = a4 | a0\n 14614: a0 = u64 [s1 + 0xf8]\n 14618: a3 = a0 <u 0x80\n 14622: u64 [s1 + 0xb8] = a3\n 14626: a2 = u64 [s1 + 0xf0]\n 14630: a4 = a2 if a3 == 0\n 14633: a4 = 0 if a0 == 0\n 14635: u64 [s1 + 0xf0] = a4\n 14639: a2 = u64 [s1 + 0xc0]\n 14643: a2 = a2 | a1\n 14646: a1 = u64 [s1 + 0xd8]\n 14650: a2 = a1 if a3 == 0\n 14653: a2 = 0 if a0 == 0\n 14655: u64 [s1 + 0xd8] = a2\n 14659: a0 = 0x1\n 14662: a1 = 0\n 14664: a2 = u64 [s1 + 0xc8]\n 14668: ra = 512, jump @1298\n      : @541 [@dyn 256] (gas: 24)\n 14674: a4 = u64 [s1 + 0xd8]\n 14678: t0 = u64 [s1 + 0xf0]\n 14682: a5 = a0\n 14684: a3 = a1\n 14686: a0 = u64 [s1 + 0xb8]\n 14690: a5 = 0 if a0 == 0\n 14692: a3 = 0 if a0 == 0\n 14694: a0 = u64 [s1 + 0xd0]\n 14698: a4 = 0 if a0 != 0\n 14700: t0 = 0 if a0 != 0\n 14702: a3 = 0 if a0 != 0\n 14704: a5 = 0 if a0 != 0\n 14706: a0 = u64 [s1 + 0x88]\n 14710: a0 = a0 & t0\n 14713: a1 = u64 [s1 + 0x90]\n 14717: a1 = a1 & a4\n 14720: a2 = u64 [s1 + 0x80]\n 14724: a2 = a2 & a3\n 14727: a1 = a1 | a2\n 14730: a2 = u64 [s1 + 0x78]\n 14733: a2 = a2 & a5\n 14736: a0 = a0 | a2\n 14739: a0 = a0 | a1\n 14742: jump @545 if a0 == 0\n      : @542 (gas: 3)\n 14745: a1 = u64 [s1 + 0x98]\n 14749: a3 = u64 [s1 + 0xf8]\n 14753: jump @544\n      : @543 (gas: 2)\n 14755: a1 = u64 [s1 + 0x98]\n 14759: fallthrough\n      : @544 (gas: 4)\n 14760: a5 = 0\n 14762: a0 = a3 + 0x1\n 14765: a3 = a0 & a1\n 14768: jump @517\n      : @545 (gas: 8)\n 14771: u64 [s1 + 0xc8] = a3\n 14775: u64 [s1 + 0xd0] = a5\n 14779: u64 [s1 + 0xd8] = a4\n 14783: u64 [s1 + 0xf0] = t0\n 14787: a0 = s1 + 0x7ff\n 14791: a0 = a0 + 0x1\n 14794: a1 = u64 [s1 + 0x70]\n 14797: ra = 514, jump @11\n      : @546 [@dyn 257] (gas: 18)\n 14803: a0 = s1 + 0x1000\n 14807: a0 = u64 [a0 + 0xfffffffffffff818]\n 14811: a1 = s1 + 0x1000\n 14815: a1 = u64 [a1 + 0xfffffffffffff810]\n 14819: a2 = s1 + 0x1000\n 14823: a2 = u64 [a2 + 0xfffffffffffff808]\n 14827: a3 = s1 + 0x1000\n 14831: t0 = u64 [a3 + 0xfffffffffffff800]\n 14835: a4 = u64 [0x200a8]\n 14840: a5 = a0 >u 0\n 14842: a3 = a1 >u 0\n 14844: a3 = a5 if a0 != 0\n 14847: a4 = a4 <u t0\n 14850: a5 = a2 >u 0\n 14852: a5 = a4 if a2 == 0\n 14855: a4 = a1 | a0\n 14858: a5 = a3 if a4 != 0\n 14861: jump @548 if a5 != 0\n      : @547 (gas: 7)\n 14864: a0 = u64 [s1 + 0x60]\n 14867: a0 = a0 + 0x1\n 14870: a1 = u64 [s1 + 0x98]\n 14874: a0 = a0 & a1\n 14877: u64 [s1 + 0x60] = a0\n 14880: a3 = u64 [s1 + 0xf8]\n 14884: jump @544\n      : @548 (gas: 22)\n 14886: a3 = u64 [0x200b0]\n 14891: a3 = a3 + t0\n 14894: a4 = a3 <u t0\n 14897: a5 = a2 + a4\n 14900: a5 = a5 + 0xffffffffffffffff\n 14903: t0 = a5 ^ a2\n 14906: a2 = a5 <u a2\n 14909: a2 = a4 if t0 == 0\n 14912: a4 = a1 + 0xffffffffffffffff\n 14915: a2 = a2 + a4\n 14918: a4 = a2 <u a4\n 14921: a1 = a1 <u 0x1\n 14924: a0 = a0 - a1\n 14927: a0 = a0 + a4\n 14930: a1 = s1 + 0x2078\n 14934: u64 [a1 + 0x48] = a3\n 14937: u64 [a1 + 0x50] = a5\n 14940: u64 [a1 + 0x58] = a2\n 14943: u64 [a1 + 0x60] = a0\n 14946: a1 = s1 + 0x20c0\n 14950: a0 = u64 [s1 + 0x70]\n 14953: ra = 516, jump @12\n      : @549 [@dyn 258] (gas: 14)\n 14959: a0 = sp + 0xffffffffffffffe0\n 14962: a1 = a0 & 0xffffffffffffffe0\n 14965: u64 [s1 + 0xc0] = a1\n 14969: sp = a1\n 14971: a0 = u64 [s1 + 0x40]\n 14974: u64 [a1 + 0x18] = a0\n 14977: a0 = u64 [s1 + 0x48]\n 14980: u64 [a1 + 0x10] = a0\n 14983: a0 = u64 [s1 + 0x50]\n 14986: u64 [a1 + 0x8] = a0\n 14989: a0 = u64 [s1 + 0x58]\n 14992: u64 [a1] = a0\n 14994: a0 = s1 + 0x7e0\n 14998: ra = 518, jump @11\n      : @550 [@dyn 259] (gas: 22)\n 15004: a5 = s1 + 0x700\n 15008: a0 = u64 [a5 + 0xe0]\n 15012: a1 = u64 [0x200a0]\n 15017: a2 = u64 [a5 + 0xf8]\n 15021: a3 = u64 [a5 + 0xe8]\n 15025: a4 = u64 [a5 + 0xf0]\n 15029: a1 = a1 + a0\n 15032: a0 = a1 <u a0\n 15035: a5 = a3 + a0\n 15038: a3 = a5 <u a3\n 15041: a3 = a0 if a0 == 0\n 15044: a3 = a3 + a4\n 15047: a0 = a3 <u a4\n 15050: a0 = a0 + a2\n 15053: a2 = s1 + 0x2078\n 15057: u64 [a2 + 0x68] = a1\n 15060: u64 [a2 + 0x70] = a5\n 15063: u64 [a2 + 0x78] = a3\n 15066: u64 [a2 + 0x80] = a0\n 15070: a1 = s1 + 0x20e0\n 15074: a0 = u64 [s1 + 0xc0]\n 15078: ra = 520, jump @12\n      : @551 [@dyn 260] (gas: 23)\n 15084: a0 = u64 [s1 + 0x68]\n 15087: a0 = a0 + 0x1\n 15090: a1 = u64 [s1 + 0x98]\n 15094: a0 = a0 & a1\n 15097: u64 [s1 + 0x68] = a0\n 15100: a0 = u64 [s1 + 0x78]\n 15103: a2 = u64 [s1 + 0xd0]\n 15107: a0 = a0 | a2\n 15110: u64 [s1 + 0x78] = a0\n 15113: a0 = u64 [s1 + 0x80]\n 15117: a2 = u64 [s1 + 0xc8]\n 15121: a0 = a0 | a2\n 15124: u64 [s1 + 0x80] = a0\n 15128: a0 = u64 [s1 + 0x88]\n 15132: a2 = u64 [s1 + 0xf0]\n 15136: a0 = a0 | a2\n 15139: u64 [s1 + 0x88] = a0\n 15143: a0 = u64 [s1 + 0x90]\n 15147: a2 = u64 [s1 + 0xd8]\n 15151: a0 = a0 | a2\n 15154: u64 [s1 + 0x90] = a0\n 15158: a3 = u64 [s1 + 0xf8]\n 15162: jump @544\n      : @552 (gas: 32)\n 15165: a0 = u64 [s1 + 0x30]\n 15168: a1 = u64 [s1 + 0x78]\n 15171: u64 [a0] = a1\n 15173: a1 = u64 [s1 + 0x80]\n 15177: u64 [a0 + 0x8] = a1\n 15180: a1 = u64 [s1 + 0x88]\n 15184: u64 [a0 + 0x10] = a1\n 15187: a1 = u64 [s1 + 0x90]\n 15191: u64 [a0 + 0x18] = a1\n 15194: a0 = u64 [s1 + 0xa8]\n 15198: ecalli 4 // 'caller'\n 15200: a2 = u64 [s1 + 0xb0]\n 15204: a0 = u64 [a2 + 0x8]\n 15207: a1 = i32 [a2 + 0x10]\n 15210: a2 = u64 [a2]\n 15212: a0 = reverse a0\n 15214: a3 = a0 << 0x20\n 15217: a1 = reverse a1\n 15219: a1 = a1 >> 0x20\n 15222: a3 = a3 | a1\n 15225: a0 = a0 >> 0x20\n 15228: a1 = reverse a2\n 15230: a2 = a1 << 0x20\n 15233: a0 = a0 | a2\n 15236: a1 = a1 >> 0x20\n 15239: u64 [s1 + 2008] = 0\n 15243: u64 [s1 + 0x7d0] = a1\n 15247: u64 [s1 + 0x7c8] = a0\n 15251: a1 = s1 + 0x7c0\n 15255: u64 [s1 + 0x7c0] = a3\n 15259: a0 = 0\n 15261: ra = 522, jump @9\n      : @553 [@dyn 261] (gas: 7)\n 15267: u64 [s1 + 1976] = 0\n 15271: u64 [s1 + 1968] = 0\n 15275: u64 [s1 + 1952] = 0x5\n 15280: a0 = 0x20\n 15283: a1 = s1 + 0x7a0\n 15287: u64 [s1 + 1960] = 0\n 15291: ra = 524, jump @9\n      : @554 [@dyn 262] (gas: 3)\n 15297: a1 = u64 [s1 + 0xe0]\n 15301: a0 = i32 [a1]\n 15303: jump @556 if a0 >u 63\n      : @555 (gas: 2)\n 15307: u32 [a1 + 0] = 0x40\n 15310: fallthrough\n      : @556 (gas: 4)\n 15311: a0 = sp + 0xffffffffffffffe0\n 15314: a0 = a0 & 0xffffffffffffffe0\n 15317: u64 [s1 + 0xf8] = a0\n 15321: t0 = 526, jump @1256\n      : @557 [@dyn 263] (gas: 5)\n 15327: ra = 0x210\n 15331: ecalli 9 // 'hash_keccak_256'\n 15333: a3 = u64 [s1 + 0xf8]\n 15337: t0 = 0x212\n 15341: jump @1282\n      : @558 [@dyn 264] (gas: 2)\n 15344: a3 = u64 [s1 + 0xf8]\n 15348: t0 = 530, jump @1282\n      : @559 [@dyn 265] (gas: 19)\n 15354: u64 [s1 + 0xf0] = a0\n 15358: a0 = reverse a1\n 15360: u64 [s1 + 0xd8] = a0\n 15364: a0 = reverse a2\n 15366: u64 [s1 + 0xd0] = a0\n 15370: a0 = reverse a3\n 15372: u64 [s1 + 0xc8] = a0\n 15376: a0 = sp + 0xffffffffffffffe0\n 15379: a0 = a0 & 0xffffffffffffffe0\n 15382: u64 [s1 + 0xf8] = a0\n 15386: sp = a0\n 15388: u64 [s1 + 1944] = 0\n 15392: u64 [s1 + 1936] = 0\n 15396: u64 [s1 + 1928] = 0\n 15400: a1 = s1 + 0x780\n 15404: a0 = u64 [s1 + 0x38]\n 15407: u64 [s1 + 0x780] = a0\n 15411: a0 = 0\n 15413: ra = 532, jump @9\n      : @560 [@dyn 266] (gas: 12)\n 15419: a0 = u64 [s1 + 0xc8]\n 15423: a3 = s1 + 0x700\n 15427: u64 [a3 + 0x78] = a0\n 15430: a0 = u64 [s1 + 0xd0]\n 15434: u64 [a3 + 0x70] = a0\n 15437: a0 = u64 [s1 + 0xd8]\n 15441: u64 [a3 + 0x68] = a0\n 15444: a0 = 0x20\n 15447: a1 = s1 + 0x760\n 15451: a2 = u64 [s1 + 0xf0]\n 15455: u64 [a3 + 0x60] = a2\n 15458: ra = 534, jump @9\n      : @561 [@dyn 267] (gas: 3)\n 15464: a1 = u64 [s1 + 0xe0]\n 15468: a0 = i32 [a1]\n 15470: jump @563 if a0 >u 63\n      : @562 (gas: 2)\n 15474: u32 [a1 + 0] = 0x40\n 15477: fallthrough\n      : @563 (gas: 4)\n 15478: a0 = sp + 0xffffffffffffffe0\n 15481: a0 = a0 & 0xffffffffffffffe0\n 15484: u64 [s1 + 0xf0] = a0\n 15488: t0 = 536, jump @1256\n      : @564 [@dyn 268] (gas: 17)\n 15494: ecalli 9 // 'hash_keccak_256'\n 15496: a3 = u64 [s1 + 0xf0]\n 15500: a0 = u64 [a3 + 0x18]\n 15503: a1 = u64 [a3 + 0x10]\n 15506: a2 = u64 [a3 + 0x8]\n 15509: a3 = u64 [a3]\n 15511: a4 = reverse a0\n 15513: a1 = reverse a1\n 15515: a2 = reverse a2\n 15517: a3 = reverse a3\n 15519: a0 = u64 [s1 + 0xf8]\n 15523: u64 [a0 + 0x18] = a3\n 15526: u64 [a0 + 0x10] = a2\n 15529: u64 [a0 + 0x8] = a1\n 15532: u64 [a0] = a4\n 15534: a1 = u64 [s1 + 0x30]\n 15537: ra = 538, jump @12\n      : @565 [@dyn 269] (gas: 3)\n 15543: a0 = s1 + 0x740\n 15547: a1 = 0x40\n 15550: ra = 540, jump @7\n      : @566 [@dyn 270] (gas: 13)\n 15556: a0 = s1 + 0x700\n 15560: a4 = u64 [a0 + 0x58]\n 15563: a5 = u64 [a0 + 0x50]\n 15566: a3 = u64 [a0 + 0x48]\n 15569: a2 = u64 [a0 + 0x40]\n 15572: a0 = a3 | a4\n 15575: a1 = a2 | a5\n 15578: a1 = a1 | a0\n 15581: a1 = a1 >> 0x20\n 15584: a0 = a0 | a5\n 15587: a0 = a0 << 0x20\n 15590: a0 = a0 | a1\n 15593: jump @646 if a0 != 0\n      : @567 (gas: 14)\n 15597: a0 = u64 [s1 + 0x68]\n 15600: a1 = u64 [s1 + 0x98]\n 15604: a0 = a0 & a1\n 15607: u64 [s1 + 1848] = 0\n 15611: u64 [s1 + 1840] = 0\n 15615: u64 [s1 + 1832] = 0\n 15619: a1 = s1 + 0x720\n 15623: u64 [s1 + 0x720] = a0\n 15627: a0 = a2\n 15629: u64 [s1 + 0xf8] = a2\n 15633: u64 [s1 + 0xf0] = a3\n 15637: u64 [s1 + 0xe0] = a4\n 15641: u64 [s1 + 0xd8] = a5\n 15645: ra = 542, jump @9\n      : @568 [@dyn 271] (gas: 10)\n 15651: a2 = u64 [s1 + 0xf8]\n 15655: a0 = u64 [s1 + 0xe0]\n 15659: a1 = u64 [s1 + 0xd8]\n 15663: a0 = a0 | a1\n 15666: a1 = 0xffffffe0\n 15676: a1 = a2 <u a1\n 15679: a3 = u64 [s1 + 0xf0]\n 15683: a1 = 0 if a3 != 0\n 15685: a1 = 0 if a0 != 0\n 15687: jump @646 if a1 == 0\n      : @569 (gas: 10)\n 15691: a0 = u64 [s1 + 0x60]\n 15694: a1 = u64 [s1 + 0x98]\n 15698: a1 = a1 & a0\n 15701: i32 a0 = a2 + 0x20\n 15704: u64 [s1 + 1816] = 0\n 15708: u64 [s1 + 1808] = 0\n 15712: u64 [s1 + 0x700] = a1\n 15716: a1 = s1 + 0x700\n 15720: u64 [s1 + 1800] = 0\n 15724: ra = 544, jump @9\n      : @570 [@dyn 272] (gas: 6)\n 15730: a0 = u64 [s1 + 0xa8]\n 15734: ra = 0x222\n 15738: ecalli 4 // 'caller'\n 15740: a2 = u64 [s1 + 0xb0]\n 15744: t0 = 0x224\n 15748: jump @1257\n      : @571 [@dyn 273] (gas: 2)\n 15751: a2 = u64 [s1 + 0xb0]\n 15755: t0 = 548, jump @1257\n      : @572 [@dyn 274] (gas: 30)\n 15761: t0 = a1 | a0\n 15764: a3 = a3 >> 0x20\n 15767: a2 = reverse a2\n 15769: a1 = a2 << 0x20\n 15772: a1 = a1 | a3\n 15775: a2 = a2 >> 0x20\n 15778: u64 [s1 + 1720] = 0\n 15782: u64 [s1 + 1712] = 0\n 15786: u64 [s1 + 1704] = 0\n 15790: a0 = u64 [s1 + 0x38]\n 15793: u64 [s1 + 0x6a0] = a0\n 15797: u64 [s1 + 1752] = 0\n 15801: a3 = u64 [0x200b8]\n 15806: a4 = u64 [0x200c0]\n 15811: a5 = u64 [0x200c8]\n 15816: a0 = u64 [0x200d0]\n 15821: u64 [s1 + 0x6f8] = a3\n 15825: a3 = s1 + 0x600\n 15829: u64 [a3 + 0xf0] = a4\n 15833: u64 [a3 + 0xe8] = a5\n 15837: u64 [a3 + 0xe0] = a0\n 15841: u64 [a3 + 0xd0] = a2\n 15845: u64 [a3 + 0xc8] = a1\n 15849: a1 = 0x40\n 15852: a2 = s1 + 0x6e0\n 15856: a3 = s1 + 0x6c0\n 15860: a4 = s1 + 0x6a0\n 15864: u64 [s1 + 0x6c0] = t0\n 15868: a0 = u64 [s1 + 0xf8]\n 15872: ra = 550, jump @14\n      : @573 [@dyn 275] (gas: 5)\n 15878: a0 = 0\n 15880: a1 = u64 [s1 + 0xe8]\n 15884: a2 = 0\n 15886: ecalli 14 // 'seal_return'\n 15888: jump @1011\n      : @574 (gas: 19)\n 15891: a0 = u64 [s1 + 0xf8]\n 15895: a2 = u64 [s1 + 0x88]\n 15899: a0 = a0 | a2\n 15902: a2 = u64 [s1 + 0x18]\n 15905: a0 = a2 if a4 == 0\n 15908: t1 = u64 [s1 + 0xa0]\n 15912: a3 = t1\n 15914: t0 = u64 [s1 + 0xc8]\n 15918: a3 = a0 if t0 != 0\n 15921: u64 [s1 + 0xf8] = a3\n 15925: a0 = u64 [s1 + 0xc0]\n 15929: a2 = u64 [s1 + 0x90]\n 15933: a0 = a0 | a2\n 15936: a2 = u64 [s1 + 0x20]\n 15939: a0 = a2 if a4 == 0\n 15942: a5 = u64 [s1 + 0xb8]\n 15946: a3 = a5\n 15948: a3 = a0 if t0 != 0\n 15951: t0 = 552, jump @1274\n      : @575 [@dyn 276] (gas: 1)\n 15957: ra = 554, jump @1293\n      : @576 [@dyn 277] (gas: 6)\n 15963: u64 [s1 + 0x90] = a0\n 15967: u64 [s1 + 0x20] = a1\n 15970: a0 = u64 [s1 + 0xb0]\n 15974: a1 = u64 [s1 + 0xa8]\n 15978: a2 = u64 [s1 + 0xf0]\n 15982: ra = 556, jump @1293\n      : @577 [@dyn 278] (gas: 7)\n 15988: u64 [s1 + 0x18] = a0\n 15991: u64 [s1 + 0x88] = a1\n 15995: a1 = u64 [s1 + 0xf0]\n 15999: a2 = 0x80 - a1\n 16003: a0 = u64 [s1 + 0xb8]\n 16007: a1 = u64 [s1 + 0xa0]\n 16011: ra = 558, jump @1298\n      : @578 [@dyn 279] (gas: 21)\n 16017: a2 = u64 [s1 + 0x88]\n 16021: a1 = a1 | a2\n 16024: a3 = u64 [s1 + 0xf0]\n 16028: a4 = a3 <u 0x80\n 16032: u64 [s1 + 0x88] = a4\n 16036: a2 = u64 [s1 + 0x20]\n 16039: a1 = a2 if a4 == 0\n 16042: a2 = u64 [s1 + 0xa8]\n 16046: a2 = a1 if a3 != 0\n 16049: u64 [s1 + 0xa8] = a2\n 16053: a1 = u64 [s1 + 0x18]\n 16056: a0 = a0 | a1\n 16059: a1 = u64 [s1 + 0x90]\n 16063: a0 = a1 if a4 == 0\n 16066: a1 = u64 [s1 + 0xb0]\n 16070: a1 = a0 if a3 != 0\n 16073: a2 = a3\n 16075: u64 [s1 + 0xb0] = a1\n 16079: a0 = u64 [s1 + 0xb8]\n 16083: a1 = u64 [s1 + 0xa0]\n 16087: ra = 560, jump @1293\n      : @579 [@dyn 280] (gas: 3)\n 16093: a5 = 0\n 16095: ra = 0\n 16097: t0 = 562, jump @1277\n      : @580 [@dyn 281] (gas: 3)\n 16103: t1 = u64 [s1 + 0xa8]\n 16107: t2 = u64 [s1 + 0xb0]\n 16111: fallthrough\n      : @581 (gas: 88)\n 16112: u64 [s1 + 0xb8] = a5\n 16116: a2 = t2 >> 0x3f\n 16119: a3 = t1 << 0x1\n 16122: a5 = a3 | a2\n 16125: a3 = t2 << 0x1\n 16128: a4 = u64 [s1 + 0xf8]\n 16132: a4 = a4 >> 0x3f\n 16135: a3 = a3 | a4\n 16138: u64 [s1 + 0xa8] = a3\n 16142: a2 = u64 [s1 + 0x88]\n 16146: u64 [s1 + 0xb0] = a5\n 16150: t2 = t1\n 16152: t1 = a2 ^ a5\n 16155: t0 = a2 <u a5\n 16158: a4 = u64 [s1 + 0x90]\n 16162: a5 = a4 <u a3\n 16165: a5 = t0 if t1 != 0\n 16168: a1 = a1 << 0x1\n 16171: a3 = a0 >> 0x3f\n 16174: a1 = a1 | a3\n 16177: u64 [s1 + 0xa0] = a1\n 16181: a3 = t2 >> 0x3f\n 16184: a0 = a0 << 0x1\n 16187: a3 = a3 | a0\n 16190: a0 = u64 [s1 + 0xf8]\n 16194: a0 = a0 << 0x1\n 16197: a4 = u64 [s1 + 0xc0]\n 16201: a1 = a4 >> 0x3f\n 16204: t0 = a0 | a1\n 16207: a1 = a4 << 0x1\n 16210: a4 = u64 [s1 + 0xc8]\n 16214: t1 = a4 >> 0x3f\n 16217: t1 = a1 | t1\n 16220: a1 = a4 << 0x1\n 16223: a4 = u64 [s1 + 0xe8]\n 16227: t2 = a4 >> 0x3f\n 16230: a1 = a1 | t2\n 16233: a4 = a4 << 0x1\n 16236: a0 = u64 [s1 + 0xb8]\n 16240: a4 = a4 | a0\n 16243: u64 [s1 + 0xe8] = a4\n 16247: a1 = ra | a1\n 16250: u64 [s1 + 0xc8] = a1\n 16254: a1 = ra | t1\n 16257: u64 [s1 + 0xc0] = a1\n 16261: a0 = ra | t0\n 16264: u64 [s1 + 0xf8] = a0\n 16268: a0 = a2 - a3\n 16271: a0 = a0 <u a5\n 16274: a1 = a2 <u a3\n 16277: t0 = u64 [s1 + 0xa0]\n 16281: a4 = a2 - t0\n 16284: a4 = a4 - a1\n 16287: a4 = a4 - a0\n 16290: a5 = a4 >>a 0x3f\n 16293: a0 = u64 [s1 + 0x98]\n 16297: a0 = a0 & a5\n 16300: a1 = u64 [s1 + 0xa8]\n 16304: t2 = a1 - a0\n 16307: a1 = a1 <u a0\n 16310: a0 = u64 [s1 + 0xb0]\n 16314: t1 = a0 - a1\n 16317: a1 = 0 if a0 != 0\n 16319: a0 = a3 - a1\n 16322: a1 = a3 <u a1\n 16325: a1 = t0 - a1\n 16328: a3 = u64 [s1 + 0xf0]\n 16332: ra = u64 [s1 + 0xe0]\n 16336: a2 = a3 | ra\n 16339: a2 = a2 <u 0x1\n 16342: a4 = u64 [s1 + 0xd0]\n 16346: t0 = a4 <u a2\n 16349: a2 = a4 - a2\n 16352: a4 = a3 <u 0x1\n 16355: ra = ra - a4\n 16358: a4 = u64 [s1 + 0xd8]\n 16362: a4 = a4 - t0\n 16365: a3 = a3 + 0xffffffffffffffff\n 16368: u64 [s1 + 0xe0] = ra\n 16372: u64 [s1 + 0xd8] = a4\n 16376: t0 = ra | a4\n 16379: u64 [s1 + 0xf0] = a3\n 16383: a4 = a3 | a2\n 16386: a3 = a4 | t0\n 16389: a5 = a5 & 0x1\n 16392: u64 [s1 + 0xd0] = a2\n 16396: ra = 0\n 16398: jump @581 if a3 != 0\n      : @582 (gas: 4)\n 16402: a0 = u64 [s1 + 0xe8]\n 16406: a0 = a0 << 0x1\n 16409: ra = a5 | a0\n 16412: fallthrough\n      : @583 (gas: 4)\n 16413: u64 [s1 + 0xd0] = ra\n 16417: a0 = s1 + 0x1ce0\n 16421: a1 = 0x40\n 16424: ra = 564, jump @7\n      : @584 [@dyn 282] (gas: 18)\n 16430: t0 = s1 + 0x1878\n 16434: t1 = u64 [t0 + 0x480]\n 16438: a0 = t0 + 0x400\n 16442: a5 = u64 [a0 + 0x78]\n 16445: a4 = u64 [a0 + 0x70]\n 16448: a3 = u64 [a0 + 0x68]\n 16451: a0 = t1 >u 0\n 16453: a1 = a5 >u 0\n 16455: a1 = a0 if t1 != 0\n 16458: a0 = a4 >u 0\n 16460: a2 = a3 <u 0xffffffffffffffa0\n 16463: a2 = a2 ^ 0x1\n 16466: u64 [s1 + 0xf8] = a4\n 16470: a2 = a0 if a4 != 0\n 16473: a0 = a5 | t1\n 16476: u64 [s1 + 0xd8] = a0\n 16480: a2 = a1 if a0 != 0\n 16483: jump @722 if a2 != 0\n      : @585 (gas: 19)\n 16487: a0 = a3 + 0x60\n 16490: a1 = a0 <u a3\n 16493: a4 = u64 [s1 + 0xf8]\n 16497: a2 = a4 + a1\n 16500: u64 [s1 + 0xf0] = a3\n 16504: a3 = a2 <u a4\n 16507: a3 = a1 if a1 == 0\n 16510: a3 = a3 + a5\n 16513: a1 = a3 <u a5\n 16516: a4 = t1 + a1\n 16519: u64 [t0 + 0x448] = a0\n 16523: u64 [t0 + 0x450] = a2\n 16527: u64 [t0 + 0x458] = a3\n 16531: a0 = 0x40\n 16534: a1 = s1 + 0x1cc0\n 16538: u64 [t0 + 0x460] = a4\n 16542: u64 [s1 + 0xe0] = a5\n 16546: u64 [s1 + 0xe8] = t1\n 16550: ra = 566, jump @9\n      : @586 [@dyn 283] (gas: 12)\n 16556: a2 = u64 [s1 + 0xf0]\n 16560: a3 = u64 [s1 + 0xe0]\n 16564: a0 = a2 | a3\n 16567: a1 = u64 [s1 + 0xf8]\n 16571: a4 = u64 [s1 + 0xe8]\n 16575: a1 = a1 | a4\n 16578: a0 = a0 | a1\n 16581: a0 = a0 >> 0x20\n 16584: a1 = a1 | a3\n 16587: a1 = a1 << 0x20\n 16590: a0 = a0 | a1\n 16593: jump @646 if a0 != 0\n      : @587 (gas: 13)\n 16597: a0 = u64 [s1 + 0x40]\n 16600: a3 = s1 + 0x1878\n 16604: a4 = a3 + 0x400\n 16608: u64 [a4 + 0x28] = a0\n 16611: a0 = u64 [s1 + 0x48]\n 16614: u64 [a4 + 0x30] = a0\n 16617: a0 = u64 [s1 + 0x50]\n 16620: u64 [a4 + 0x38] = a0\n 16623: a1 = s1 + 0x1ca0\n 16627: a0 = u64 [s1 + 0x58]\n 16630: u64 [a4 + 0x40] = a0\n 16633: a0 = a2\n 16635: ra = 568, jump @9\n      : @588 [@dyn 284] (gas: 9)\n 16641: a1 = u64 [s1 + 0xf0]\n 16645: a3 = 0x100000000\n 16655: a0 = 0xffffffe0\n 16665: a0 = a1 <u a0\n 16668: a2 = u64 [s1 + 0xf8]\n 16672: a0 = 0 if a2 != 0\n 16674: a2 = u64 [s1 + 0xd8]\n 16678: a0 = 0 if a2 != 0\n 16680: jump @646 if a0 == 0\n      : @589 (gas: 11)\n 16684: i32 a0 = a1 + 0x20\n 16687: a2 = s1 + 0x1878\n 16691: u64 [a2 + 1056] = 0\n 16695: u64 [a2 + 1048] = 0\n 16699: u64 [a2 + 1040] = 0\n 16703: a1 = s1 + 0x1c80\n 16707: u64 [s1 + 0xe8] = a3\n 16711: a3 = u64 [s1 + 0xd0]\n 16715: u64 [a2 + 0x408] = a3\n 16719: u64 [s1 + 0xe0] = a0\n 16723: ra = 570, jump @9\n      : @590 [@dyn 285] (gas: 9)\n 16729: a1 = u64 [s1 + 0xf0]\n 16733: a0 = u64 [s1 + 0xe8]\n 16737: a0 = a0 + 0xffffffffffffffc0\n 16740: a0 = a1 <u a0\n 16743: a2 = u64 [s1 + 0xf8]\n 16747: a0 = 0 if a2 != 0\n 16749: a2 = u64 [s1 + 0xd8]\n 16753: a0 = 0 if a2 != 0\n 16755: jump @646 if a0 == 0\n      : @591 (gas: 9)\n 16759: i32 a0 = a1 + 0x40\n 16762: a2 = s1 + 0x1878\n 16766: u64 [a2 + 1024] = 0\n 16770: u64 [a2 + 1016] = 0\n 16774: u64 [a2 + 1008] = 0\n 16778: a1 = s1 + 0x1c60\n 16782: u64 [a2 + 1000] = 0\n 16786: u64 [s1 + 0xd8] = a0\n 16790: ra = 572, jump @9\n      : @592 [@dyn 286] (gas: 6)\n 16796: a0 = u64 [s1 + 0x28]\n 16799: ra = 0x23e\n 16803: ecalli 4 // 'caller'\n 16805: a2 = u64 [s1 + 0x80]\n 16809: t0 = 0x240\n 16813: jump @1242\n      : @593 [@dyn 287] (gas: 2)\n 16816: a2 = u64 [s1 + 0x80]\n 16820: t0 = 576, jump @1242\n      : @594 [@dyn 288] (gas: 8)\n 16826: u64 [a2 + 992] = 0\n 16830: a4 = a2 + 0x300\n 16834: u64 [a4 + 0xd8] = a1\n 16838: u64 [a4 + 0xd0] = a0\n 16842: a1 = s1 + 0x1c40\n 16846: u64 [a4 + 0xc8] = a3\n 16850: a0 = 0\n 16852: ra = 578, jump @9\n      : @595 [@dyn 289] (gas: 9)\n 16858: a1 = s1 + 0x1878\n 16862: u64 [a1 + 960] = 0\n 16866: u64 [a1 + 952] = 0\n 16870: u64 [a1 + 936] = 0x3\n 16875: a2 = a1\n 16877: a0 = 0x20\n 16880: a1 = s1 + 0x1c20\n 16884: u64 [a2 + 944] = 0\n 16888: ra = 580, jump @9\n      : @596 [@dyn 290] (gas: 3)\n 16894: a1 = u64 [s1 + 0x30]\n 16897: a0 = i32 [a1]\n 16899: jump @598 if a0 >u 63\n      : @597 (gas: 2)\n 16903: u32 [a1 + 0] = 0x40\n 16906: fallthrough\n      : @598 (gas: 12)\n 16907: a0 = sp + 0xffffffffffffffe0\n 16910: a0 = a0 & 0xffffffffffffffe0\n 16913: u64 [s1 + 0xf8] = a0\n 16917: sp = a0\n 16919: i32 a2 = a0 + 0\n 16921: a1 = 0x40\n 16924: a0 = u64 [s1 + 0x38]\n 16927: ra = 0x246\n 16931: ecalli 9 // 'hash_keccak_256'\n 16933: a3 = u64 [s1 + 0xf8]\n 16937: t0 = 0x248\n 16941: jump @1282\n      : @599 [@dyn 291] (gas: 2)\n 16944: a3 = u64 [s1 + 0xf8]\n 16948: t0 = 584, jump @1282\n      : @600 [@dyn 292] (gas: 14)\n 16954: u64 [s1 + 0xe8] = a0\n 16958: a0 = reverse a1\n 16960: u64 [s1 + 0xd0] = a0\n 16964: a0 = reverse a2\n 16966: u64 [s1 + 0xc8] = a0\n 16970: a0 = reverse a3\n 16972: u64 [s1 + 0xc0] = a0\n 16976: a0 = sp + 0xffffffffffffffe0\n 16979: a0 = a0 & 0xffffffffffffffe0\n 16982: u64 [s1 + 0xf8] = a0\n 16986: sp = a0\n 16988: t0 = 0x24a\n 16992: a2 = s1 + 0x1878\n 16996: fallthrough\n      : @601 [@dyn 293] (gas: 11)\n 16997: u64 [a2 + 928] = 0\n 17001: a0 = u64 [s1 + 0x78]\n 17004: a3 = a2 + 0x300\n 17008: u64 [a3 + 0x98] = a0\n 17012: a0 = u64 [s1 + 0x68]\n 17015: u64 [a3 + 0x90] = a0\n 17019: a1 = s1 + 0x1c00\n 17023: a0 = u64 [s1 + 0x70]\n 17026: u64 [a3 + 0x88] = a0\n 17030: a0 = 0\n 17032: ra = 588, jump @9\n      : @602 [@dyn 294] (gas: 14)\n 17038: a0 = u64 [s1 + 0xc0]\n 17042: a1 = s1 + 0x1878\n 17046: a2 = a1 + 0x300\n 17050: u64 [a2 + 0x80] = a0\n 17054: a0 = u64 [s1 + 0xc8]\n 17058: u64 [a2 + 0x78] = a0\n 17061: a0 = u64 [s1 + 0xd0]\n 17065: u64 [a2 + 0x70] = a0\n 17068: a3 = a1\n 17070: a0 = 0x20\n 17073: a1 = s1 + 0x1be0\n 17077: a2 = u64 [s1 + 0xe8]\n 17081: u64 [a3 + 0x368] = a2\n 17085: ra = 590, jump @9\n      : @603 [@dyn 295] (gas: 3)\n 17091: a1 = u64 [s1 + 0x30]\n 17094: a0 = i32 [a1]\n 17096: jump @605 if a0 >u 63\n      : @604 (gas: 2)\n 17100: u32 [a1 + 0] = 0x40\n 17103: fallthrough\n      : @605 (gas: 31)\n 17104: a0 = 0xffffffff00000000\n 17114: u64 [s1 + 0xe8] = a0\n 17118: a0 = sp + 0xffffffffffffffe0\n 17121: a0 = a0 & 0xffffffffffffffe0\n 17124: u64 [s1 + 0xd0] = a0\n 17128: sp = a0\n 17130: i32 a2 = a0 + 0\n 17132: a1 = 0x40\n 17135: a0 = u64 [s1 + 0x38]\n 17138: ecalli 9 // 'hash_keccak_256'\n 17140: a3 = u64 [s1 + 0xd0]\n 17144: a0 = u64 [a3 + 0x18]\n 17147: a1 = u64 [a3 + 0x10]\n 17150: a2 = u64 [a3 + 0x8]\n 17153: a3 = u64 [a3]\n 17155: a5 = reverse a0\n 17157: u64 [s1 + 0xb8] = a5\n 17161: a4 = reverse a1\n 17163: u64 [s1 + 0xc0] = a4\n 17167: a1 = reverse a2\n 17169: u64 [s1 + 0xc8] = a1\n 17173: a0 = reverse a3\n 17175: u64 [s1 + 0xd0] = a0\n 17179: a2 = u64 [s1 + 0xf8]\n 17183: u64 [a2 + 0x18] = a0\n 17186: u64 [a2 + 0x10] = a1\n 17189: u64 [a2 + 0x8] = a4\n 17192: u64 [a2] = a5\n 17194: a0 = s1 + 0x1bc0\n 17198: a1 = u64 [s1 + 0xf0]\n 17202: ra = 592, jump @7\n      : @606 [@dyn 296] (gas: 15)\n 17208: a3 = s1 + 0x1878\n 17212: a4 = a3 + 0x300\n 17216: a0 = u64 [a4 + 0x60]\n 17219: a1 = u64 [a4 + 0x58]\n 17222: a2 = u64 [a4 + 0x50]\n 17225: a3 = u64 [a4 + 0x48]\n 17228: a4 = s1 + 0x2078\n 17232: a5 = a4 + 0x500\n 17236: u64 [a5 + 0x80] = a0\n 17240: u64 [a5 + 0x78] = a1\n 17243: u64 [a5 + 0x70] = a2\n 17246: u64 [a5 + 0x68] = a3\n 17249: a1 = s1 + 0x25e0\n 17253: a0 = u64 [s1 + 0xf8]\n 17257: ra = 594, jump @12\n      : @607 [@dyn 297] (gas: 23)\n 17263: a0 = sp + 0xffffffffffffffe0\n 17266: a4 = a0 & 0xffffffffffffffe0\n 17269: u64 [s1 + 0xf8] = a4\n 17273: sp = a4\n 17275: a0 = u64 [s1 + 0xb8]\n 17279: a0 = a0 + 0x1\n 17282: a1 = a0 <u 0x1\n 17285: a2 = u64 [s1 + 0xc0]\n 17289: a1 = a1 + a2\n 17292: a2 = a0 | a1\n 17295: a2 = a2 <u 0x1\n 17298: a3 = u64 [s1 + 0xc8]\n 17302: a2 = a2 + a3\n 17305: a3 = a2 <u a3\n 17308: a5 = u64 [s1 + 0xd0]\n 17312: a3 = a3 + a5\n 17315: u64 [a4 + 0x18] = a3\n 17318: u64 [a4 + 0x10] = a2\n 17321: u64 [a4 + 0x8] = a1\n 17324: u64 [a4] = a0\n 17326: a0 = s1 + 0x1ba0\n 17330: a1 = u64 [s1 + 0xe0]\n 17334: ra = 596, jump @7\n      : @608 [@dyn 298] (gas: 7)\n 17340: a0 = s1 + 0x1878\n 17344: a0 = u64 [a0 + 0x328]\n 17348: a0 = a0 & 0xffffffffffffffff\n 17351: u64 [s1 + 0xf0] = a0\n 17355: a0 = s1 + 0x1b80\n 17359: a1 = u64 [s1 + 0xf8]\n 17363: ra = 598, jump @11\n      : @609 [@dyn 299] (gas: 15)\n 17369: a2 = s1 + 0x1878\n 17373: a3 = a2 + 0x300\n 17377: a0 = u64 [a3 + 0x20]\n 17380: a1 = u64 [a3 + 0x18]\n 17383: a2 = u64 [a3 + 0x10]\n 17386: a3 = s1 + 0x2078\n 17390: a4 = u64 [s1 + 0xf0]\n 17394: a5 = a3 + 0x500\n 17398: u64 [a5 + 0x88] = a4\n 17402: u64 [a5 + 0xa0] = a0\n 17406: u64 [a5 + 0x98] = a1\n 17410: u64 [a5 + 0x90] = a2\n 17414: a1 = s1 + 0x2600\n 17418: a0 = u64 [s1 + 0xf8]\n 17422: ra = 600, jump @12\n      : @610 [@dyn 300] (gas: 3)\n 17428: a0 = s1 + 0x1b60\n 17432: a1 = u64 [s1 + 0xd8]\n 17436: ra = 602, jump @7\n      : @611 [@dyn 301] (gas: 14)\n 17442: a3 = s1 + 0x1878\n 17446: a0 = u64 [a3 + 0x300]\n 17450: a4 = a3 + 0x200\n 17454: a1 = u64 [a4 + 0xf0]\n 17458: a2 = u64 [a4 + 0xf8]\n 17462: a3 = u64 [a4 + 0xe8]\n 17466: a0 = a0 | a1\n 17469: a2 = a2 | a3\n 17472: a0 = a0 | a2\n 17475: a0 = a0 >u 0\n 17477: u64 [s1 + 0xf0] = a0\n 17481: a0 = s1 + 0x1b40\n 17485: a1 = u64 [s1 + 0xf8]\n 17489: ra = 604, jump @11\n      : @612 [@dyn 302] (gas: 18)\n 17495: a3 = s1 + 0x1878\n 17499: a4 = a3 + 0x200\n 17503: a0 = u64 [a4 + 0xd0]\n 17507: a1 = u64 [a4 + 0xc8]\n 17511: a2 = u64 [a4 + 0xe0]\n 17515: a3 = u64 [a4 + 0xd8]\n 17519: a0 = a0 & 0xffffffffffffff00\n 17523: a4 = u64 [s1 + 0xf0]\n 17527: a0 = a0 | a4\n 17530: a4 = s1 + 0x2078\n 17534: a5 = a4 + 0x500\n 17538: u64 [a5 + 0xc0] = a2\n 17542: u64 [a5 + 0xb8] = a3\n 17546: u64 [a5 + 0xa8] = a1\n 17550: u64 [a5 + 0xb0] = a0\n 17554: a1 = s1 + 0x2620\n 17558: a0 = u64 [s1 + 0xf8]\n 17562: ra = 606, jump @12\n      : @613 [@dyn 303] (gas: 6)\n 17568: a0 = u64 [s1 + 0x28]\n 17571: ra = 0x260\n 17575: ecalli 4 // 'caller'\n 17577: a2 = u64 [s1 + 0x80]\n 17581: t0 = 0x262\n 17585: jump @1242\n      : @614 [@dyn 304] (gas: 2)\n 17588: a2 = u64 [s1 + 0x80]\n 17592: t0 = 610, jump @1242\n      : @615 [@dyn 305] (gas: 8)\n 17598: u64 [a2 + 704] = 0\n 17602: a4 = a2 + 0x200\n 17606: u64 [a4 + 0xb8] = a1\n 17610: u64 [a4 + 0xb0] = a0\n 17614: a1 = s1 + 0x1b20\n 17618: u64 [a4 + 0xa8] = a3\n 17622: a0 = 0\n 17624: ra = 612, jump @9\n      : @616 [@dyn 306] (gas: 9)\n 17630: a1 = s1 + 0x1878\n 17634: u64 [a1 + 672] = 0\n 17638: u64 [a1 + 664] = 0\n 17642: u64 [a1 + 648] = 0x2\n 17647: a2 = a1\n 17649: a0 = 0x20\n 17652: a1 = s1 + 0x1b00\n 17656: u64 [a2 + 656] = 0\n 17660: ra = 614, jump @9\n      : @617 [@dyn 307] (gas: 7)\n 17666: a1 = u64 [s1 + 0x30]\n 17669: a0 = sp + 0xffffffffffffffe0\n 17672: a0 = a0 & 0xffffffffffffffe0\n 17675: u64 [s1 + 0xf8] = a0\n 17679: sp = a0\n 17681: a0 = i32 [a1]\n 17683: jump @619 if a0 >=u 64\n      : @618 (gas: 2)\n 17687: u32 [a1 + 0] = 0x40\n 17690: fallthrough\n      : @619 (gas: 12)\n 17691: a0 = sp + 0xffffffffffffffe0\n 17694: a0 = a0 & 0xffffffffffffffe0\n 17697: u64 [s1 + 0xf0] = a0\n 17701: sp = a0\n 17703: i32 a2 = a0 + 0\n 17705: a1 = 0x40\n 17708: a0 = u64 [s1 + 0x38]\n 17711: ra = 0x268\n 17715: ecalli 9 // 'hash_keccak_256'\n 17717: a3 = u64 [s1 + 0xf0]\n 17721: t0 = 0x26a\n 17725: jump @1253\n      : @620 [@dyn 308] (gas: 2)\n 17728: a3 = u64 [s1 + 0xf0]\n 17732: t0 = 618, jump @1253\n      : @621 [@dyn 309] (gas: 7)\n 17738: a1 = u64 [s1 + 0xf8]\n 17742: u64 [a1] = a4\n 17744: u64 [a1 + 0x8] = a5\n 17747: u64 [a1 + 0x10] = a2\n 17750: u64 [a1 + 0x18] = a0\n 17753: a0 = s1 + 0x1ae0\n 17757: ra = 620, jump @11\n      : @622 [@dyn 310] (gas: 9)\n 17763: a0 = s1 + 0x1878\n 17767: a0 = u64 [a0 + 0x268]\n 17771: a0 = a0 + 0x1\n 17774: a1 = u64 [s1 + 0x60]\n 17777: a0 = a0 & a1\n 17780: u64 [s1 + 0xf0] = a0\n 17784: a0 = s1 + 0x1ac0\n 17788: a1 = u64 [s1 + 0xf8]\n 17792: ra = 622, jump @11\n      : @623 [@dyn 311] (gas: 22)\n 17798: a3 = s1 + 0x1878\n 17802: a4 = a3 + 0x200\n 17806: a0 = u64 [a4 + 0x50]\n 17809: a1 = u64 [a4 + 0x58]\n 17812: a2 = u64 [a4 + 0x60]\n 17815: a3 = u64 [a4 + 0x48]\n 17818: a0 = a0 & 0xffffffffffffffff\n 17821: a1 = a1 & 0xffffffffffffffff\n 17824: a2 = a2 & 0xffffffffffffffff\n 17827: a4 = u64 [s1 + 0xe8]\n 17831: a3 = a3 & a4\n 17834: a4 = u64 [s1 + 0xf0]\n 17838: a3 = a3 | a4\n 17841: a4 = s1 + 0x2078\n 17845: a5 = a4 + 0x500\n 17849: u64 [a5 + 0xe0] = a2\n 17853: u64 [a5 + 0xd8] = a1\n 17857: u64 [a5 + 0xd0] = a0\n 17861: u64 [a5 + 0xc8] = a3\n 17865: a1 = s1 + 0x2640\n 17869: a0 = u64 [s1 + 0xf8]\n 17873: ra = 624, jump @12\n      : @624 [@dyn 312] (gas: 3)\n 17879: a0 = s1 + 0x1aa0\n 17883: a1 = 0x40\n 17886: ra = 626, jump @7\n      : @625 [@dyn 313] (gas: 3)\n 17892: t0 = 0x274\n 17896: a3 = s1 + 0x1878\n 17900: fallthrough\n      : @626 [@dyn 314] (gas: 13)\n 17901: a5 = a3 + 0x200\n 17905: a0 = u64 [a5 + 0x40]\n 17908: a1 = u64 [a5 + 0x38]\n 17911: a2 = u64 [a5 + 0x30]\n 17914: a4 = u64 [a5 + 0x28]\n 17917: a0 = a0 | a2\n 17920: a2 = a4 | a1\n 17923: a2 = a2 | a0\n 17926: a2 = a2 >> 0x20\n 17929: a0 = a0 | a1\n 17932: a0 = a0 << 0x20\n 17935: a0 = a0 | a2\n 17938: jump @646 if a0 != 0\n      : @627 (gas: 13)\n 17942: a0 = u64 [s1 + 0x40]\n 17945: a2 = a3 + 0x200\n 17949: u64 [a2 + 0x8] = a0\n 17952: a0 = u64 [s1 + 0x48]\n 17955: u64 [a2 + 0x10] = a0\n 17958: a0 = u64 [s1 + 0x50]\n 17961: u64 [a2 + 0x18] = a0\n 17964: a1 = s1 + 0x1a80\n 17968: a0 = u64 [s1 + 0x58]\n 17971: u64 [a2 + 0x20] = a0\n 17974: a0 = a4\n 17976: u64 [s1 + 0xf8] = a4\n 17980: ra = 630, jump @9\n      : @628 [@dyn 315] (gas: 6)\n 17986: a0 = u64 [s1 + 0x28]\n 17989: ra = 0x278\n 17993: ecalli 4 // 'caller'\n 17995: a2 = u64 [s1 + 0x80]\n 17999: t0 = 0x27a\n 18003: jump @1257\n      : @629 [@dyn 316] (gas: 2)\n 18006: a2 = u64 [s1 + 0x80]\n 18010: t0 = 634, jump @1257\n      : @630 [@dyn 317] (gas: 43)\n 18016: t0 = a1 | a0\n 18019: a3 = a3 >> 0x20\n 18022: a2 = reverse a2\n 18024: a1 = a2 << 0x20\n 18027: a1 = a1 | a3\n 18030: a2 = a2 >> 0x20\n 18033: a3 = u64 [0x20000]\n 18038: a4 = u64 [0x20008]\n 18043: a5 = u64 [0x20010]\n 18048: a0 = s1 + 0x1878\n 18052: u64 [a0 + 0x200] = a3\n 18056: a0 = s1 + 0x1878\n 18060: u64 [a0 + 0x1f8] = a4\n 18064: a3 = s1 + 0x1878\n 18068: u64 [a3 + 448] = 0\n 18072: a0 = s1 + 0x1878\n 18076: u64 [a0 + 0x1f0] = a5\n 18080: a3 = u64 [0x20018]\n 18085: a4 = s1 + 0x1878\n 18089: a0 = u64 [s1 + 0x78]\n 18092: u64 [a4 + 0x1b8] = a0\n 18096: a4 = s1 + 0x1878\n 18100: a0 = u64 [s1 + 0x68]\n 18103: u64 [a4 + 0x1b0] = a0\n 18107: a4 = s1 + 0x1878\n 18111: a0 = u64 [s1 + 0x70]\n 18114: u64 [a4 + 0x1a8] = a0\n 18118: a0 = s1 + 0x1878\n 18122: u64 [a0 + 0x1e8] = a3\n 18126: a3 = s1 + 0x1878\n 18130: u64 [a3 + 0x1d8] = a2\n 18134: a2 = s1 + 0x1878\n 18138: u64 [a2 + 0x1d0] = a1\n 18142: a1 = s1 + 0x1878\n 18146: u64 [a1 + 0x1c8] = t0\n 18150: a1 = 0x20\n 18153: a2 = s1 + 0x1a60\n 18157: a3 = s1 + 0x1a40\n 18161: a4 = s1 + 0x1a20\n 18165: a0 = s1 + 0x1878\n 18169: u64 [a0 + 480] = 0\n 18173: a0 = u64 [s1 + 0xf8]\n 18177: ra = 636, jump @14\n      : @631 [@dyn 318] (gas: 3)\n 18183: a0 = s1 + 0x1a00\n 18187: a1 = 0x40\n 18190: ra = 638, jump @7\n      : @632 [@dyn 319] (gas: 3)\n 18196: a3 = s1 + 0x1878\n 18200: a5 = a3 + 0x100\n 18204: t0 = 640, jump @1281\n      : @633 [@dyn 320] (gas: 1)\n 18210: jump @646 if a0 != 0\n      : @634 (gas: 13)\n 18214: u64 [a3 + 384] = 0\n 18218: a0 = u64 [s1 + 0x70]\n 18221: a2 = a3 + 0x100\n 18225: u64 [a2 + 0x68] = a0\n 18228: a0 = u64 [s1 + 0x68]\n 18231: u64 [a2 + 0x70] = a0\n 18234: a1 = s1 + 0x19e0\n 18238: a0 = u64 [s1 + 0x78]\n 18241: u64 [a2 + 0x78] = a0\n 18244: a0 = a4\n 18246: u64 [s1 + 0xf8] = a4\n 18250: ra = 0x138\n 18254: jump @9\n      : @635 (gas: 6)\n 18257: ecalli 13 // 'return_data_size'\n 18259: u64 [s1 + 0xa8] = a0\n 18263: a0 = s1 + 0x7ff\n 18267: a0 = a0 + 0x461\n 18271: a1 = 0x40\n 18274: ra = 642, jump @7\n      : @636 [@dyn 321] (gas: 32)\n 18280: a5 = s1 + 0x7ff\n 18284: a5 = a5 + 0x79\n 18287: t0 = u64 [a5 + 0x400]\n 18291: u64 [s1 + 0xb0] = t0\n 18295: t1 = u64 [a5 + 0x3f8]\n 18299: u64 [s1 + 0x98] = t1\n 18303: t2 = u64 [a5 + 0x3f0]\n 18307: u64 [s1 + 0xb8] = t2\n 18311: ra = u64 [a5 + 0x3e8]\n 18315: u64 [s1 + 0xe8] = ra\n 18319: a1 = u64 [s1 + 0xa8]\n 18323: a0 = a1 + 0x1f\n 18326: a1 = a0 <u a1\n 18329: a0 = a0 & 0xffffffffffffffe0\n 18332: a2 = a0 + 0x20\n 18335: a0 = a2 <u a0\n 18338: a3 = a1 + a0\n 18341: a4 = a3 <u a1\n 18344: a4 = a0 if a0 == 0\n 18347: u64 [a5 + 960] = 0\n 18351: u64 [a5 + 0x3a8] = a2\n 18355: u64 [a5 + 0x3e0] = t0\n 18359: u64 [a5 + 0x3d8] = t1\n 18363: u64 [a5 + 0x3d0] = t2\n 18367: u64 [a5 + 0x3c8] = ra\n 18371: u64 [a5 + 0x3b0] = a3\n 18375: a0 = s1 + 0x7ff\n 18379: a0 = a0 + 0x441\n 18383: a1 = s1 + 0x7ff\n 18387: a1 = a1 + 0x421\n 18391: u64 [a5 + 0x3b8] = a4\n 18395: ra = 644, jump @1072\n      : @637 [@dyn 322] (gas: 12)\n 18401: a0 = u64 [s1 + 0xe8]\n 18405: a1 = u64 [s1 + 0xb0]\n 18409: a2 = u64 [s1 + 0xb8]\n 18413: a2 = a2 | a1\n 18416: a3 = u64 [s1 + 0x98]\n 18420: a1 = a0 | a3\n 18423: a1 = a1 | a2\n 18426: a1 = a1 >> 0x20\n 18429: a2 = a2 | a3\n 18432: a2 = a2 << 0x20\n 18435: a1 = a1 | a2\n 18438: jump @646 if a1 != 0\n      : @638 (gas: 10)\n 18442: a3 = s1 + 0x7ff\n 18446: a3 = a3 + 0x79\n 18449: u64 [a3 + 928] = 0\n 18453: u64 [a3 + 920] = 0\n 18457: u64 [a3 + 912] = 0\n 18461: a1 = s1 + 0x7ff\n 18465: a1 = a1 + 0x401\n 18469: a2 = u64 [s1 + 0xa8]\n 18473: u64 [a3 + 0x388] = a2\n 18477: ra = 646, jump @9\n      : @639 [@dyn 323] (gas: 2)\n 18483: ecalli 13 // 'return_data_size'\n 18485: fallthrough\n      : @640 (gas: 10)\n 18486: a3 = u64 [s1 + 0xe8]\n 18490: a1 = u64 [s1 + 0xb0]\n 18494: a2 = u64 [s1 + 0x98]\n 18498: a1 = a1 | a2\n 18501: a2 = 0xffffffe0\n 18511: a2 = a3 <u a2\n 18514: a4 = u64 [s1 + 0xb8]\n 18518: a2 = 0 if a4 != 0\n 18520: a2 = 0 if a1 != 0\n 18522: jump @646 if a2 == 0\n      : @641 (gas: 3)\n 18525: a1 = a0\n 18527: a0 = a0 >> 0x20\n 18530: jump @646 if a0 != 0\n      : @642 (gas: 7)\n 18533: i32 a0 = a3 + 0x20\n 18536: a2 = a1\n 18538: u64 [s1 + 0xb8] = a1\n 18542: i32 a1 = a1 + 0\n 18544: u64 [s1 + 0xe8] = a1\n 18548: a1 = a2\n 18550: ra = 648, jump @20\n      : @643 [@dyn 324] (gas: 9)\n 18556: a1 = s1 + 0x2078\n 18560: a2 = u64 [s1 + 0xb8]\n 18564: u32 [a1 + 0x208] = a2\n 18568: i32 a0 = a0 + 0\n 18570: a1 = s1 + 0x2000\n 18574: i32 a1 = a1 + 0x280\n 18578: a2 = 0\n 18580: ecalli 12 // 'return_data_copy'\n 18582: fallthrough\n      : @644 (gas: 5)\n 18583: a0 = s1 + 0x2078\n 18587: a0 = i32 [a0 + 0x208]\n 18591: a2 = u64 [s1 + 0xf0]\n 18595: a1 = u64 [s1 + 0xe8]\n 18599: jump @646 if a0 <u a1\n      : @645 (gas: 1)\n 18602: jump @459\n      : @646 (gas: 1)\n 18605: trap\n      : @647 (gas: 11)\n 18606: a2 = s1 + 0x7ff\n 18610: a2 = a2 + 0x79\n 18613: u64 [a2 + 1272] = 0\n 18617: u64 [a2 + 1264] = 0\n 18621: a0 = 0xfcb63a2200000000\n 18631: u64 [a2 + 0x500] = a0\n 18635: a1 = s1 + 0x7ff\n 18639: a1 = a1 + 0x561\n 18643: u64 [a2 + 1256] = 0\n 18647: a0 = 0\n 18649: ra = 650, jump @9\n      : @648 [@dyn 325] (gas: 2)\n 18655: a1 = i32 [0x20150]\n 18660: jump @650 if a1 >u 31\n      : @649 (gas: 3)\n 18664: u32 [0x20150] = 0x20\n 18670: a1 = 0x20160\n 18675: jump @721\n      : @650 (gas: 2)\n 18678: a1 = 0x20160\n 18683: jump @721\n      : @651 (gas: 6)\n 18686: a1 = 0x20160\n 18691: i32 a1 = a1 + 0\n 18693: a0 = 0x1\n 18696: a2 = 0\n 18698: ecalli 14 // 'seal_return'\n 18700: jump @1011\n      : @652 (gas: 6)\n 18703: a1 = 0x20160\n 18708: i32 a1 = a1 + 0\n 18710: a0 = 0x1\n 18713: a2 = 0\n 18715: ecalli 14 // 'seal_return'\n 18717: jump @1011\n      : @653 (gas: 6)\n 18720: a1 = 0x20160\n 18725: i32 a1 = a1 + 0\n 18727: a0 = 0x1\n 18730: a2 = 0\n 18732: ecalli 14 // 'seal_return'\n 18734: jump @1011\n      : @654 (gas: 6)\n 18737: a1 = 0x20160\n 18742: i32 a1 = a1 + 0\n 18744: a0 = 0x1\n 18747: a2 = 0\n 18749: ecalli 14 // 'seal_return'\n 18751: jump @1011\n      : @655 (gas: 11)\n 18754: a2 = s1 + 0x7ff\n 18758: a2 = a2 + 0x79\n 18761: u64 [a2 + 600] = 0\n 18765: u64 [a2 + 592] = 0\n 18769: a0 = 0x2c5211c600000000\n 18779: u64 [a2 + 0x260] = a0\n 18783: a1 = s1 + 0x7ff\n 18787: a1 = a1 + 0x2c1\n 18791: u64 [a2 + 584] = 0\n 18795: a0 = 0\n 18797: ra = 652, jump @9\n      : @656 [@dyn 326] (gas: 2)\n 18803: a1 = i32 [0x20150]\n 18808: jump @658 if a1 >u 31\n      : @657 (gas: 3)\n 18812: u32 [0x20150] = 0x20\n 18818: a1 = 0x20160\n 18823: jump @721\n      : @658 (gas: 2)\n 18826: a1 = 0x20160\n 18831: jump @721\n      : @659 (gas: 11)\n 18834: a2 = s1 + 0x7ff\n 18838: a2 = a2 + 0x79\n 18841: u64 [a2 + 632] = 0\n 18845: u64 [a2 + 624] = 0\n 18849: a0 = 0xfcb63a2200000000\n 18859: u64 [a2 + 0x280] = a0\n 18863: a1 = s1 + 0x7ff\n 18867: a1 = a1 + 0x2e1\n 18871: u64 [a2 + 616] = 0\n 18875: a0 = 0\n 18877: ra = 654, jump @9\n      : @660 [@dyn 327] (gas: 2)\n 18883: a1 = i32 [0x20150]\n 18888: jump @662 if a1 >u 31\n      : @661 (gas: 3)\n 18892: u32 [0x20150] = 0x20\n 18898: a1 = 0x20160\n 18903: jump @721\n      : @662 (gas: 2)\n 18906: a1 = 0x20160\n 18911: jump @721\n      : @663 (gas: 6)\n 18914: a1 = 0x20160\n 18919: i32 a1 = a1 + 0\n 18921: a0 = 0x1\n 18924: a2 = 0\n 18926: ecalli 14 // 'seal_return'\n 18928: jump @1011\n      : @664 (gas: 6)\n 18931: a1 = 0x20160\n 18936: i32 a1 = a1 + 0\n 18938: a0 = 0x1\n 18941: a2 = 0\n 18943: ecalli 14 // 'seal_return'\n 18945: jump @1011\n      : @665 (gas: 6)\n 18948: a1 = 0x20160\n 18953: i32 a1 = a1 + 0\n 18955: a0 = 0x1\n 18958: a2 = 0\n 18960: ecalli 14 // 'seal_return'\n 18962: jump @1011\n      : @666 (gas: 6)\n 18965: a1 = 0x20160\n 18970: i32 a1 = a1 + 0\n 18972: a0 = 0x1\n 18975: a2 = 0\n 18977: ecalli 14 // 'seal_return'\n 18979: jump @1011\n      : @667 (gas: 6)\n 18982: a1 = 0x20160\n 18987: i32 a1 = a1 + 0\n 18989: a0 = 0x1\n 18992: a2 = 0\n 18994: ecalli 14 // 'seal_return'\n 18996: jump @1011\n      : @668 (gas: 6)\n 18999: a1 = 0x20160\n 19004: i32 a1 = a1 + 0\n 19006: a0 = 0x1\n 19009: a2 = 0\n 19011: ecalli 14 // 'seal_return'\n 19013: jump @1011\n      : @669 (gas: 6)\n 19016: a1 = 0x20160\n 19021: i32 a1 = a1 + 0\n 19023: a0 = 0x1\n 19026: a2 = 0\n 19028: ecalli 14 // 'seal_return'\n 19030: jump @1011\n      : @670 (gas: 6)\n 19033: a1 = 0x20160\n 19038: i32 a1 = a1 + 0\n 19040: a0 = 0x1\n 19043: a2 = 0\n 19045: ecalli 14 // 'seal_return'\n 19047: jump @1011\n      : @671 (gas: 6)\n 19050: a1 = 0x20160\n 19055: i32 a1 = a1 + 0\n 19057: a0 = 0x1\n 19060: a2 = 0\n 19062: ecalli 14 // 'seal_return'\n 19064: jump @1011\n      : @672 (gas: 6)\n 19067: a1 = 0x20160\n 19072: i32 a1 = a1 + 0\n 19074: a0 = 0x1\n 19077: a2 = 0\n 19079: ecalli 14 // 'seal_return'\n 19081: jump @1011\n      : @673 (gas: 3)\n 19084: t0 = 0x290\n 19088: a2 = s1 + 0x1878\n 19092: fallthrough\n      : @674 [@dyn 328] (gas: 8)\n 19093: u64 [a2 + 184] = 0\n 19097: u64 [a2 + 176] = 0\n 19101: a0 = 0xcc67c13b00000000\n 19111: u64 [a2 + 0xc0] = a0\n 19115: a1 = s1 + 0x1920\n 19119: u64 [a2 + 168] = 0\n 19123: a0 = 0\n 19125: ra = 658, jump @9\n      : @675 [@dyn 329] (gas: 2)\n 19131: a1 = i32 [0x20150]\n 19136: jump @677 if a1 >u 31\n      : @676 (gas: 3)\n 19140: u32 [0x20150] = 0x20\n 19146: a1 = 0x20160\n 19151: jump @721\n      : @677 (gas: 2)\n 19154: a1 = 0x20160\n 19159: jump @721\n      : @678 (gas: 10)\n 19162: a0 = s1 + 0x1878\n 19166: u64 [a0 + 248] = 0\n 19170: u64 [a0 + 240] = 0\n 19174: u64 [a0 + 232] = 0\n 19178: a2 = a0\n 19180: a0 = 0x4e487b7100000000\n 19190: a1 = s1 + 0x1960\n 19194: u64 [a2 + 0x100] = a0\n 19198: a0 = 0\n 19200: ra = 660, jump @9\n      : @679 [@dyn 330] (gas: 10)\n 19206: a1 = s1 + 0x1878\n 19210: u64 [a1 + 224] = 0\n 19214: u64 [a1 + 216] = 0\n 19218: u64 [a1 + 200] = 0x11\n 19223: a2 = a1\n 19225: a0 = 0x4\n 19228: a1 = s1 + 0x1940\n 19232: u64 [a2 + 208] = 0\n 19236: ra = 0x2a8\n 19240: jump @9\n      : @680 (gas: 3)\n 19243: t0 = 0x296\n 19247: a2 = s1 + 0x1878\n 19251: fallthrough\n      : @681 [@dyn 331] (gas: 8)\n 19252: u64 [a2 + 280] = 0\n 19256: u64 [a2 + 272] = 0\n 19260: a0 = 0xe9987cdd00000000\n 19270: u64 [a2 + 0x120] = a0\n 19274: a1 = s1 + 0x1980\n 19278: u64 [a2 + 264] = 0\n 19282: a0 = 0\n 19284: ra = 664, jump @9\n      : @682 [@dyn 332] (gas: 3)\n 19290: a0 = u64 [s1 + 0x30]\n 19293: a0 = i32 [a0]\n 19295: jump @684 if a0 >u 31\n      : @683 (gas: 7)\n 19299: a1 = u64 [s1 + 0x30]\n 19302: u32 [a1 + 0] = 0x20\n 19305: a0 = 0x1\n 19308: a2 = 0x4\n 19311: a1 = u64 [s1 + 0x38]\n 19314: ecalli 14 // 'seal_return'\n 19316: jump @727\n      : @684 (gas: 5)\n 19319: a0 = 0x1\n 19322: a2 = 0x4\n 19325: a1 = u64 [s1 + 0x38]\n 19328: ecalli 14 // 'seal_return'\n 19330: jump @727\n      : @685 (gas: 6)\n 19333: a1 = 0x20160\n 19338: i32 a1 = a1 + 0\n 19340: a0 = 0x1\n 19343: a2 = 0\n 19345: ecalli 14 // 'seal_return'\n 19347: jump @1011\n      : @686 (gas: 6)\n 19350: a1 = 0x20160\n 19355: i32 a1 = a1 + 0\n 19357: a0 = 0x1\n 19360: a2 = 0\n 19362: ecalli 14 // 'seal_return'\n 19364: jump @1011\n      : @687 (gas: 6)\n 19367: a1 = 0x20160\n 19372: i32 a1 = a1 + 0\n 19374: a0 = 0x1\n 19377: a2 = 0\n 19379: ecalli 14 // 'seal_return'\n 19381: jump @1011\n      : @688 (gas: 6)\n 19384: a1 = 0x20160\n 19389: i32 a1 = a1 + 0\n 19391: a0 = 0x1\n 19394: a2 = 0\n 19396: ecalli 14 // 'seal_return'\n 19398: jump @1011\n      : @689 (gas: 6)\n 19401: a1 = 0x20160\n 19406: i32 a1 = a1 + 0\n 19408: a0 = 0x1\n 19411: a2 = 0\n 19413: ecalli 14 // 'seal_return'\n 19415: jump @1011\n      : @690 (gas: 6)\n 19418: a1 = 0x20160\n 19423: i32 a1 = a1 + 0\n 19425: a0 = 0x1\n 19428: a2 = 0\n 19430: ecalli 14 // 'seal_return'\n 19432: jump @1011\n      : @691 (gas: 1)\n 19435: jump @729 if a0 != 2618616686\n      : @692 (gas: 9)\n 19443: a0 = s1 + 0x2078\n 19447: u64 [a0 + 864] = 0\n 19451: u64 [a0 + 856] = 0\n 19455: u64 [a0 + 848] = 0\n 19459: u64 [a0 + 840] = 0\n 19463: a0 = s1 + 0x2000\n 19467: i32 a0 = a0 + 0x3c0\n 19471: ecalli 17 // 'value_transferred'\n 19473: fallthrough\n      : @693 (gas: 10)\n 19474: a3 = s1 + 0x2078\n 19478: a4 = a3 + 0x300\n 19482: a0 = u64 [a4 + 0x58]\n 19485: a1 = u64 [a4 + 0x60]\n 19488: a2 = u64 [a4 + 0x50]\n 19491: a3 = u64 [a4 + 0x48]\n 19494: a1 = a1 | a2\n 19497: a0 = a0 | a3\n 19500: a0 = a0 | a1\n 19503: jump @747 if a0 == 0\n      : @694 (gas: 6)\n 19507: a1 = 0x20160\n 19512: i32 a1 = a1 + 0\n 19514: a0 = 0x1\n 19517: a2 = 0\n 19519: ecalli 14 // 'seal_return'\n 19521: jump @1011\n      : @695 (gas: 6)\n 19524: a1 = 0x20160\n 19529: i32 a1 = a1 + 0\n 19531: a0 = 0x1\n 19534: a2 = 0\n 19536: ecalli 14 // 'seal_return'\n 19538: jump @1011\n      : @696 (gas: 6)\n 19541: a1 = 0x20160\n 19546: i32 a1 = a1 + 0\n 19548: a0 = 0x1\n 19551: a2 = 0\n 19553: ecalli 14 // 'seal_return'\n 19555: jump @1011\n      : @697 (gas: 6)\n 19558: a1 = 0x20160\n 19563: i32 a1 = a1 + 0\n 19565: a0 = 0x1\n 19568: a2 = 0\n 19570: ecalli 14 // 'seal_return'\n 19572: jump @1011\n      : @698 (gas: 6)\n 19575: a1 = 0x20160\n 19580: i32 a1 = a1 + 0\n 19582: a0 = 0x1\n 19585: a2 = 0\n 19587: ecalli 14 // 'seal_return'\n 19589: jump @1011\n      : @699 (gas: 6)\n 19592: a1 = 0x20160\n 19597: i32 a1 = a1 + 0\n 19599: a0 = 0x1\n 19602: a2 = 0\n 19604: ecalli 14 // 'seal_return'\n 19606: jump @1011\n      : @700 (gas: 6)\n 19609: a1 = 0x20160\n 19614: i32 a1 = a1 + 0\n 19616: a0 = 0x1\n 19619: a2 = 0\n 19621: ecalli 14 // 'seal_return'\n 19623: jump @1011\n      : @701 (gas: 6)\n 19626: a1 = 0x20160\n 19631: i32 a1 = a1 + 0\n 19633: a0 = 0x1\n 19636: a2 = 0\n 19638: ecalli 14 // 'seal_return'\n 19640: jump @1011\n      : @702 (gas: 6)\n 19643: a1 = 0x20160\n 19648: i32 a1 = a1 + 0\n 19650: a0 = 0x1\n 19653: a2 = 0\n 19655: ecalli 14 // 'seal_return'\n 19657: jump @1011\n      : @703 (gas: 6)\n 19660: a1 = 0x20160\n 19665: i32 a1 = a1 + 0\n 19667: a0 = 0x1\n 19670: a2 = 0\n 19672: ecalli 14 // 'seal_return'\n 19674: jump @1011\n      : @704 (gas: 3)\n 19677: t0 = 0x29a\n 19681: a2 = s1 + 0x1078\n 19685: fallthrough\n      : @705 [@dyn 333] (gas: 8)\n 19686: u64 [a2 + 1912] = 0\n 19690: u64 [a2 + 1904] = 0\n 19694: a0 = 0x2c5211c600000000\n 19704: u64 [a2 + 0x780] = a0\n 19708: a1 = s1 + 0x17e0\n 19712: u64 [a2 + 1896] = 0\n 19716: a0 = 0\n 19718: ra = 668, jump @9\n      : @706 [@dyn 334] (gas: 2)\n 19724: a1 = i32 [0x20150]\n 19729: jump @708 if a1 >u 31\n      : @707 (gas: 3)\n 19733: u32 [0x20150] = 0x20\n 19739: a1 = 0x20160\n 19744: jump @721\n      : @708 (gas: 2)\n 19747: a1 = 0x20160\n 19752: jump @721\n      : @709 (gas: 10)\n 19755: a0 = s1 + 0x1078\n 19759: u64 [a0 + 1976] = 0\n 19763: u64 [a0 + 1968] = 0\n 19767: u64 [a0 + 1960] = 0\n 19771: a2 = a0\n 19773: a0 = 0x4e487b7100000000\n 19783: a1 = s1 + 0x1820\n 19787: u64 [a2 + 0x7c0] = a0\n 19791: a0 = 0\n 19793: ra = 670, jump @9\n      : @710 [@dyn 335] (gas: 3)\n 19799: t0 = 0x2a0\n 19803: a1 = s1 + 0x1078\n 19807: fallthrough\n      : @711 [@dyn 336] (gas: 8)\n 19808: u64 [a1 + 1952] = 0\n 19812: u64 [a1 + 1944] = 0\n 19816: u64 [a1 + 1928] = 0x11\n 19821: a2 = a1\n 19823: a0 = 0x4\n 19826: a1 = s1 + 0x1800\n 19830: u64 [a2 + 1936] = 0\n 19834: ra = 674, jump @9\n      : @712 [@dyn 337] (gas: 3)\n 19840: a0 = u64 [s1 + 0xb0]\n 19844: a0 = i32 [a0]\n 19846: jump @714 if a0 >u 63\n      : @713 (gas: 3)\n 19850: a1 = u64 [s1 + 0xb0]\n 19854: u32 [a1 + 0] = 0x40\n 19857: fallthrough\n      : @714 (gas: 5)\n 19858: a0 = 0x1\n 19861: a2 = 0x24\n 19864: a1 = u64 [s1 + 0xc0]\n 19868: ecalli 14 // 'seal_return'\n 19870: fallthrough\n      : @715 (gas: 6)\n 19871: a1 = 0x20160\n 19876: i32 a1 = a1 + 0\n 19878: a0 = 0x1\n 19881: a2 = 0\n 19883: ecalli 14 // 'seal_return'\n 19885: jump @1011\n      : @716 (gas: 6)\n 19888: a1 = 0x20160\n 19893: i32 a1 = a1 + 0\n 19895: a0 = 0x1\n 19898: a2 = 0\n 19900: ecalli 14 // 'seal_return'\n 19902: jump @1011\n      : @717 (gas: 11)\n 19905: a2 = s1 + 0x7ff\n 19909: a2 = a2 + 0x79\n 19912: u64 [a2 + 408] = 0\n 19916: u64 [a2 + 400] = 0\n 19920: a0 = 0xd5b25b6300000000\n 19930: u64 [a2 + 0x1a0] = a0\n 19934: a1 = s1 + 0x7ff\n 19938: a1 = a1 + 0x201\n 19942: u64 [a2 + 392] = 0\n 19946: a0 = 0\n 19948: ra = 676, jump @9\n      : @718 [@dyn 338] (gas: 2)\n 19954: a1 = i32 [0x20150]\n 19959: jump @720 if a1 >u 31\n      : @719 (gas: 3)\n 19963: u32 [0x20150] = 0x20\n 19969: a1 = 0x20160\n 19974: jump @721\n      : @720 (gas: 2)\n 19976: a1 = 0x20160\n 19981: fallthrough\n      : @721 (gas: 5)\n 19982: i32 a1 = a1 + 0\n 19984: a0 = 0x1\n 19987: a2 = 0x4\n 19990: ecalli 14 // 'seal_return'\n 19992: fallthrough\n      : @722 (gas: 8)\n 19993: u64 [t0 + 344] = 0\n 19997: u64 [t0 + 336] = 0\n 20001: u64 [t0 + 328] = 0\n 20005: a0 = 0x4e487b7100000000\n 20015: a1 = s1 + 0x19c0\n 20019: u64 [t0 + 0x160] = a0\n 20023: a0 = 0\n 20025: ra = 678, jump @9\n      : @723 [@dyn 339] (gas: 9)\n 20031: a1 = s1 + 0x1878\n 20035: u64 [a1 + 320] = 0\n 20039: u64 [a1 + 312] = 0\n 20043: u64 [a1 + 296] = 0x41\n 20048: a2 = a1\n 20050: a0 = 0x4\n 20053: a1 = s1 + 0x19a0\n 20057: u64 [a2 + 304] = 0\n 20061: ra = 680, jump @9\n      : @724 [@dyn 340] (gas: 3)\n 20067: a0 = u64 [s1 + 0x30]\n 20070: a0 = i32 [a0]\n 20072: jump @726 if a0 >u 63\n      : @725 (gas: 7)\n 20076: a1 = u64 [s1 + 0x30]\n 20079: u32 [a1 + 0] = 0x40\n 20082: a0 = 0x1\n 20085: a2 = 0x24\n 20088: a1 = u64 [s1 + 0x38]\n 20091: ecalli 14 // 'seal_return'\n 20093: jump @727\n      : @726 (gas: 5)\n 20095: a0 = 0x1\n 20098: a2 = 0x24\n 20101: a1 = u64 [s1 + 0x38]\n 20104: ecalli 14 // 'seal_return'\n 20106: fallthrough\n      : @727 (gas: 12)\n 20107: a2 = s1 + 0x7ff\n 20111: a2 = a2 + 0x79\n 20114: u64 [a2 + 664] = 0\n 20118: u64 [a2 + 656] = 0\n 20122: a0 = 0xf4d678b800000000\n 20132: u64 [a2 + 0x2a0] = a0\n 20136: a1 = s1 + 0x7ff\n 20140: a1 = a1 + 0x301\n 20144: u64 [a2 + 648] = 0\n 20148: a0 = 0\n 20150: ra = 0x2b4\n 20154: jump @9\n      : @728 (gas: 12)\n 20157: a2 = s1 + 0x7ff\n 20161: a2 = a2 + 0x79\n 20164: u64 [a2 + 1144] = 0\n 20168: u64 [a2 + 1136] = 0\n 20172: a0 = 0xf4d678b800000000\n 20182: u64 [a2 + 0x480] = a0\n 20186: a1 = s1 + 0x7ff\n 20190: a1 = a1 + 0x4e1\n 20194: u64 [a2 + 1128] = 0\n 20198: a0 = 0\n 20200: ra = 0x2b4\n 20204: jump @9\n      : @729 (gas: 1)\n 20207: jump @734 if a0 != 2685688103\n      : @730 (gas: 10)\n 20214: a0 = s1 + 0x2078\n 20218: u64 [a0 + 928] = 0\n 20222: u64 [a0 + 920] = 0\n 20226: u64 [a0 + 912] = 0\n 20230: u64 [a0 + 904] = 0\n 20234: a0 = s1 + 0x2000\n 20238: i32 a0 = a0 + 0x400\n 20242: ra = 0x2aa\n 20246: ecalli 17 // 'value_transferred'\n 20248: fallthrough\n      : @731 [@dyn 341] (gas: 3)\n 20249: a3 = s1 + 0x2078\n 20253: a4 = a3 + 0x300\n 20257: t0 = 684, jump @1279\n      : @732 [@dyn 342] (gas: 1)\n 20263: jump @749 if a0 == 0\n      : @733 (gas: 6)\n 20267: a1 = 0x20160\n 20272: i32 a1 = a1 + 0\n 20274: a0 = 0x1\n 20277: a2 = 0\n 20279: ecalli 14 // 'seal_return'\n 20281: jump @1011\n      : @734 (gas: 1)\n 20284: jump @751 if a0 != 3058722618\n      : @735 (gas: 11)\n 20292: a0 = s1 + 0x2078\n 20296: u64 [a0 + 1088] = 0\n 20300: u64 [a0 + 1080] = 0\n 20304: u64 [a0 + 1072] = 0\n 20308: u64 [a0 + 1064] = 0\n 20312: a0 = s1 + 0x2000\n 20316: i32 a0 = a0 + 0x4a0\n 20320: ra = 0x2ae\n 20324: ecalli 17 // 'value_transferred'\n 20326: t0 = 0x2b0\n 20330: jump @1267\n      : @736 [@dyn 343] (gas: 1)\n 20333: t0 = 688, jump @1267\n      : @737 [@dyn 344] (gas: 8)\n 20339: a0 = u64 [a4 + 0x38]\n 20342: a1 = u64 [a4 + 0x40]\n 20345: a2 = u64 [a4 + 0x30]\n 20348: a3 = u64 [a4 + 0x28]\n 20351: a1 = a1 | a2\n 20354: a0 = a0 | a3\n 20357: a0 = a0 | a1\n 20360: jump @755 if a0 == 0\n      : @738 (gas: 6)\n 20364: a1 = 0x20160\n 20369: i32 a1 = a1 + 0\n 20371: a0 = 0x1\n 20374: a2 = 0\n 20376: ecalli 14 // 'seal_return'\n 20378: jump @1011\n      : @739 (gas: 2)\n 20381: u64 [s1 + 184] = 0\n 20385: fallthrough\n      : @740 (gas: 5)\n 20386: a0 = u64 [s1 + 0xc8]\n 20390: a0 = a0 << 0x1\n 20393: a4 = u64 [s1 + 0xb8]\n 20397: a4 = a4 | a0\n 20400: fallthrough\n      : @741 (gas: 7)\n 20401: u64 [s1 + 824] = 0\n 20405: u64 [s1 + 816] = 0\n 20409: u64 [s1 + 808] = 0\n 20413: a1 = s1 + 0x320\n 20417: u64 [s1 + 0x320] = a4\n 20421: a0 = u64 [s1 + 0x78]\n 20424: ra = 690, jump @9\n      : @742 [@dyn 345] (gas: 4)\n 20430: a1 = 0x20\n 20433: a0 = u64 [s1 + 0x78]\n 20436: ra = 0x13a\n 20440: jump @20\n      : @743 (gas: 11)\n 20443: a2 = s1 + 0x7ff\n 20447: a2 = a2 + 0x79\n 20450: u64 [a2 + 888] = 0\n 20454: u64 [a2 + 880] = 0\n 20458: a0 = 0x90b8ec1800000000\n 20468: u64 [a2 + 0x380] = a0\n 20472: a1 = s1 + 0x7ff\n 20476: a1 = a1 + 0x3e1\n 20480: u64 [a2 + 872] = 0\n 20484: a0 = 0\n 20486: ra = 692, jump @9\n      : @744 [@dyn 346] (gas: 3)\n 20492: a0 = u64 [s1 + 0x70]\n 20495: a0 = i32 [a0]\n 20497: jump @746 if a0 >u 31\n      : @745 (gas: 3)\n 20501: a1 = u64 [s1 + 0x70]\n 20504: u32 [a1 + 0] = 0x20\n 20507: fallthrough\n      : @746 (gas: 5)\n 20508: a0 = 0x1\n 20511: a2 = 0x4\n 20514: a1 = u64 [s1 + 0x80]\n 20518: ecalli 14 // 'seal_return'\n 20520: fallthrough\n      : @747 (gas: 3)\n 20521: a0 = u64 [s1 + 0xf8]\n 20525: a0 = i32 [a0]\n 20527: jump @757 if a0 >u 99\n      : @748 (gas: 6)\n 20532: a1 = 0x20160\n 20537: i32 a1 = a1 + 0\n 20539: a0 = 0x1\n 20542: a2 = 0\n 20544: ecalli 14 // 'seal_return'\n 20546: jump @1011\n      : @749 (gas: 3)\n 20549: a0 = u64 [s1 + 0xf8]\n 20553: a0 = i32 [a0]\n 20555: jump @782 if a0 >u 67\n      : @750 (gas: 6)\n 20560: a1 = 0x20160\n 20565: i32 a1 = a1 + 0\n 20567: a0 = 0x1\n 20570: a2 = 0\n 20572: ecalli 14 // 'seal_return'\n 20574: jump @1011\n      : @751 (gas: 1)\n 20577: jump @806 if a0 != 4076725131\n      : @752 (gas: 9)\n 20585: a0 = s1 + 0x2078\n 20589: u64 [a0 + 1536] = 0\n 20593: u64 [a0 + 1528] = 0\n 20597: u64 [a0 + 1520] = 0\n 20601: u64 [a0 + 1512] = 0\n 20605: a0 = s1 + 0x2000\n 20609: i32 a0 = a0 + 0x660\n 20613: ecalli 17 // 'value_transferred'\n 20615: fallthrough\n      : @753 (gas: 10)\n 20616: a3 = s1 + 0x2078\n 20620: a4 = a3 + 0x500\n 20624: a0 = u64 [a4 + 0xf8]\n 20628: a1 = u64 [a3 + 0x600]\n 20632: a2 = u64 [a4 + 0xf0]\n 20636: a3 = u64 [a4 + 0xe8]\n 20640: a1 = a1 | a2\n 20643: a0 = a0 | a3\n 20646: a0 = a0 | a1\n 20649: jump @810 if a0 == 0\n      : @754 (gas: 6)\n 20653: a1 = 0x20160\n 20658: i32 a1 = a1 + 0\n 20660: a0 = 0x1\n 20663: a2 = 0\n 20665: ecalli 14 // 'seal_return'\n 20667: jump @1011\n      : @755 (gas: 3)\n 20670: a0 = u64 [s1 + 0xf8]\n 20674: a0 = i32 [a0]\n 20676: jump @812 if a0 >u 35\n      : @756 (gas: 6)\n 20681: a1 = 0x20160\n 20686: i32 a1 = a1 + 0\n 20688: a0 = 0x1\n 20691: a2 = 0\n 20693: ecalli 14 // 'seal_return'\n 20695: jump @1011\n      : @757 (gas: 4)\n 20698: a0 = s1 + 0x1100\n 20702: ra = 0x2b6\n 20706: t0 = 0x416\n 20710: jump @1286\n      : @758 [@dyn 347] (gas: 13)\n 20713: a1 = s1 + 0x1078\n 20717: a0 = u64 [a1 + 0xa0]\n 20721: u64 [s1 + 0x70] = a0\n 20724: a0 = u64 [a1 + 0x98]\n 20728: u64 [s1 + 0x68] = a0\n 20731: a0 = u64 [a1 + 0x90]\n 20735: u64 [s1 + 0x60] = a0\n 20738: a0 = u64 [a1 + 0x88]\n 20742: u64 [s1 + 0x50] = a0\n 20745: a0 = s1 + 0x10e0\n 20749: ra = 0x2b8\n 20753: t0 = 0x420\n 20757: jump @1292\n      : @759 [@dyn 348] (gas: 13)\n 20760: a1 = s1 + 0x1078\n 20764: a0 = u64 [a1 + 0x80]\n 20768: u64 [s1 + 0x58] = a0\n 20771: a0 = u64 [a1 + 0x78]\n 20774: u64 [s1 + 0x48] = a0\n 20777: a0 = u64 [a1 + 0x70]\n 20780: u64 [s1 + 0x40] = a0\n 20783: a0 = u64 [a1 + 0x68]\n 20786: u64 [s1 + 0x78] = a0\n 20789: a0 = s1 + 0x10c0\n 20793: ra = 0x2ba\n 20797: t0 = 0x426\n 20801: jump @1292\n      : @760 [@dyn 349] (gas: 13)\n 20804: a1 = s1 + 0x1078\n 20808: a0 = u64 [a1 + 0x60]\n 20811: u64 [s1 + 0x38] = a0\n 20814: a0 = u64 [a1 + 0x58]\n 20817: u64 [s1 + 0x30] = a0\n 20820: a0 = u64 [a1 + 0x50]\n 20823: u64 [s1 + 0x28] = a0\n 20826: a0 = u64 [a1 + 0x48]\n 20829: u64 [s1 + 0x20] = a0\n 20832: a0 = s1 + 0x2000\n 20836: i32 a0 = a0 + 0x3e0\n 20840: ecalli 10 // 'now'\n 20842: fallthrough\n      : @761 (gas: 49)\n 20843: a0 = s1 + 0x2078\n 20847: t0 = u64 [a0 + 0x380]\n 20851: a4 = u64 [a0 + 0x378]\n 20855: u64 [s1 + 0xb8] = a4\n 20859: t2 = u64 [a0 + 0x370]\n 20863: a3 = u64 [a0 + 0x368]\n 20867: u64 [s1 + 0xa0] = a3\n 20871: a0 = clz t0\n 20873: a1 = clz a4\n 20875: a2 = a1 + 0x40\n 20878: a2 = a0 if t0 != 0\n 20881: a0 = clz t2\n 20883: a1 = clz a3\n 20885: a1 = a1 + 0x40\n 20888: a1 = a0 if t2 != 0\n 20891: a0 = a1 + 0x80\n 20895: a3 = a4 | t0\n 20898: a2 = a0 if a3 == 0\n 20901: a5 = a0 <u a1\n 20904: a5 = 0 if a3 != 0\n 20906: a4 = a5 >u 0\n 20908: a0 = a2 <u 0xf0\n 20912: a3 = a0 ^ 0x1\n 20915: a4 = a3 if a5 == 0\n 20918: a0 = a4 <u 0x1\n 20921: ra = a0 + 0xffffffffffffffff\n 20924: t1 = -a4\n 20926: a5 = -a5\n 20928: a3 = a5 - a3\n 20931: a2 = 0xef - a2\n 20935: a5 = t1 >u 0\n 20937: a0 = ra >u 0\n 20939: a0 = a5 if ra == 0\n 20942: a5 = a2 <u 0x100\n 20946: a5 = a5 ^ 0x1\n 20949: a1 = a3 >u 0\n 20951: a5 = a1 if a3 != 0\n 20954: a5 = a0 if a4 != 0\n 20957: u64 [s1 + 0x98] = t2\n 20961: u64 [s1 + 0xb0] = t0\n 20965: a0 = t2 | t0\n 20968: a4 = u64 [s1 + 0xa0]\n 20972: a1 = u64 [s1 + 0xb8]\n 20976: a1 = a1 | a4\n 20979: a0 = a0 | a1\n 20982: a0 = a0 <u 0x1\n 20985: a0 = a0 | a5\n 20988: a4 = 0 if a0 != 0\n 20990: jump @834 if a0 != 0\n      : @762 (gas: 5)\n 20994: a0 = a2 ^ 0xff\n 20998: a0 = a0 | t1\n 21001: a1 = a3 | ra\n 21004: a0 = a0 | a1\n 21007: jump @834 if a0 == 0\n      : @763 (gas: 1)\n 21011: t0 = 700, jump @1252\n      : @764 [@dyn 350] (gas: 1)\n 21017: ra = 702, jump @1293\n      : @765 [@dyn 351] (gas: 6)\n 21023: u64 [s1 + 0xa8] = a0\n 21027: u64 [s1 + 0xc8] = a1\n 21031: a0 = u64 [s1 + 0xb8]\n 21035: a1 = u64 [s1 + 0xb0]\n 21039: a2 = u64 [s1 + 0xc0]\n 21043: ra = 704, jump @1298\n      : @766 [@dyn 352] (gas: 7)\n 21049: u64 [s1 + 0x90] = a0\n 21053: u64 [s1 + 0x88] = a1\n 21057: a0 = u64 [s1 + 0xc0]\n 21061: a2 = a0 + 0xffffffffffffff80\n 21064: a0 = u64 [s1 + 0xa0]\n 21068: a1 = u64 [s1 + 0x98]\n 21072: ra = 706, jump @1298\n      : @767 [@dyn 353] (gas: 8)\n 21078: u64 [s1 + 0x80] = a0\n 21082: u64 [s1 + 0x18] = a1\n 21085: a2 = u64 [s1 + 0xc0]\n 21089: a0 = a2 <u 0x80\n 21093: u64 [s1 + 0x10] = a0\n 21096: a0 = u64 [s1 + 0xa0]\n 21100: a1 = u64 [s1 + 0x98]\n 21104: ra = 708, jump @1298\n      : @768 [@dyn 354] (gas: 12)\n 21110: u64 [s1 + 0xd0] = a1\n 21114: a1 = u64 [s1 + 0xf0]\n 21118: a2 = u64 [s1 + 0xe8]\n 21122: a2 = a2 | a1\n 21125: a1 = u64 [s1 + 0xf8]\n 21129: a3 = u64 [s1 + 0xe0]\n 21133: a1 = a1 | a3\n 21136: a1 = a1 | a2\n 21139: a3 = u64 [s1 + 0x10]\n 21142: a0 = 0 if a3 == 0\n 21144: u64 [s1 + 0xd8] = a0\n 21148: jump @832 if a1 == 0\n      : @769 (gas: 7)\n 21152: a2 = a3\n 21154: a0 = u64 [s1 + 0xc8]\n 21158: a1 = u64 [s1 + 0x88]\n 21162: a0 = a0 | a1\n 21165: a5 = a3\n 21167: a1 = u64 [s1 + 0x18]\n 21170: t0 = 710, jump @1250\n      : @770 [@dyn 355] (gas: 1)\n 21176: ra = 712, jump @1293\n      : @771 [@dyn 356] (gas: 6)\n 21182: u64 [s1 + 0xa8] = a0\n 21186: u64 [s1 + 0x80] = a1\n 21190: a0 = u64 [s1 + 0xa0]\n 21194: a1 = u64 [s1 + 0x98]\n 21198: a2 = u64 [s1 + 0xf8]\n 21202: ra = 714, jump @1293\n      : @772 [@dyn 357] (gas: 7)\n 21208: u64 [s1 + 0x18] = a0\n 21211: u64 [s1 + 0x88] = a1\n 21215: a1 = u64 [s1 + 0xf8]\n 21219: a2 = 0x80 - a1\n 21223: a0 = u64 [s1 + 0xb8]\n 21227: a1 = u64 [s1 + 0xb0]\n 21231: ra = 716, jump @1298\n      : @773 [@dyn 358] (gas: 1)\n 21237: t0 = 718, jump @1276\n      : @774 [@dyn 359] (gas: 2)\n 21243: a1 = u64 [s1 + 0x18]\n 21246: t0 = 720, jump @1290\n      : @775 [@dyn 360] (gas: 1)\n 21252: ra = 722, jump @1293\n      : @776 [@dyn 361] (gas: 1)\n 21258: t0 = 724, jump @1258\n      : @777 [@dyn 362] (gas: 1)\n 21264: t0 = 726, jump @1263\n      : @778 [@dyn 363] (gas: 5)\n 21270: t0 = ra <u a2\n 21273: a4 = u64 [s1 + 0x88]\n 21277: a5 = a4 <u a3\n 21280: a5 = t0 if t1 != 0\n 21283: t0 = 728, jump @1268\n      : @779 [@dyn 364] (gas: 20)\n 21289: t0 = a0 | a1\n 21292: a1 = a4 << 0x1\n 21295: a4 = u64 [s1 + 0xd0]\n 21299: t1 = a4 >> 0x3f\n 21302: t1 = a1 | t1\n 21305: a1 = a4 << 0x1\n 21308: a4 = u64 [s1 + 0xd8]\n 21312: t2 = a4 >> 0x3f\n 21315: a1 = a1 | t2\n 21318: a4 = a4 << 0x1\n 21321: a0 = u64 [s1 + 0xb8]\n 21325: a4 = a4 | a0\n 21328: u64 [s1 + 0xd8] = a4\n 21332: a0 = u64 [s1 + 0xb0]\n 21336: a1 = a1 | a0\n 21339: u64 [s1 + 0xd0] = a1\n 21343: a1 = a0 | t1\n 21346: u64 [s1 + 0xc0] = a1\n 21350: a0 = a0 | t0\n 21353: t0 = 730, jump @1244\n      : @780 [@dyn 365] (gas: 18)\n 21359: t0 = a4 <u a2\n 21362: a2 = a4 - a2\n 21365: a4 = a3 <u 0x1\n 21368: a5 = a5 - a4\n 21371: a4 = u64 [s1 + 0xe8]\n 21375: a4 = a4 - t0\n 21378: a3 = a3 + 0xffffffffffffffff\n 21381: u64 [s1 + 0xf0] = a5\n 21385: u64 [s1 + 0xe8] = a4\n 21389: t0 = a5 | a4\n 21392: u64 [s1 + 0xf8] = a3\n 21396: a4 = a3 | a2\n 21399: a3 = a4 | t0\n 21402: a4 = ra & 0x1\n 21405: u64 [s1 + 0xb8] = a4\n 21409: u64 [s1 + 0xe0] = a2\n 21413: u64 [s1 + 176] = 0\n 21417: jump @777 if a3 != 0\n      : @781 (gas: 1)\n 21421: jump @833\n      : @782 (gas: 4)\n 21424: a0 = s1 + 0x14c0\n 21428: ra = 0x2dc\n 21432: t0 = 0x430\n 21436: jump @1286\n      : @783 [@dyn 366] (gas: 7)\n 21439: a0 = s1 + 0x1078\n 21443: a0 = u64 [a0 + 0x448]\n 21447: u64 [s1 + 0x78] = a0\n 21450: a0 = s1 + 0x14a0\n 21454: ra = 0x2de\n 21458: t0 = 0x420\n 21462: jump @1292\n      : @784 [@dyn 367] (gas: 7)\n 21465: a0 = s1 + 0x1078\n 21469: a0 = u64 [a0 + 0x428]\n 21473: u64 [s1 + 0x70] = a0\n 21476: a0 = s1 + 0x2000\n 21480: i32 a0 = a0 + 0x420\n 21484: ecalli 10 // 'now'\n 21486: fallthrough\n      : @785 (gas: 51)\n 21487: a0 = s1 + 0x2078\n 21491: t0 = u64 [a0 + 0x3c0]\n 21495: a4 = u64 [a0 + 0x3b8]\n 21499: u64 [s1 + 0xb8] = a4\n 21503: t2 = u64 [a0 + 0x3b0]\n 21507: a3 = u64 [a0 + 0x3a8]\n 21511: u64 [s1 + 0xa0] = a3\n 21515: a0 = clz t0\n 21517: a1 = clz a4\n 21519: a2 = a1 + 0x40\n 21522: a2 = a0 if t0 != 0\n 21525: a0 = clz t2\n 21527: a1 = clz a3\n 21529: a1 = a1 + 0x40\n 21532: a1 = a0 if t2 != 0\n 21535: a0 = a1 + 0x80\n 21539: a3 = a4 | t0\n 21542: a2 = a0 if a3 == 0\n 21545: a5 = a0 <u a1\n 21548: a5 = 0 if a3 != 0\n 21550: a4 = a5 >u 0\n 21552: a0 = a2 <u 0xf0\n 21556: a3 = a0 ^ 0x1\n 21559: a4 = a3 if a5 == 0\n 21562: a0 = a4 <u 0x1\n 21565: ra = a0 + 0xffffffffffffffff\n 21568: t1 = -a4\n 21570: a5 = -a5\n 21572: a3 = a5 - a3\n 21575: a2 = 0xef - a2\n 21579: a5 = t1 >u 0\n 21581: a0 = ra >u 0\n 21583: a0 = a5 if ra == 0\n 21586: a5 = a2 <u 0x100\n 21590: a5 = a5 ^ 0x1\n 21593: a1 = a3 >u 0\n 21595: a5 = a1 if a3 != 0\n 21598: a5 = a0 if a4 != 0\n 21601: u64 [s1 + 0x98] = t2\n 21605: u64 [s1 + 0xb0] = t0\n 21609: a0 = t2 | t0\n 21612: a4 = u64 [s1 + 0xa0]\n 21616: a1 = u64 [s1 + 0xb8]\n 21620: a1 = a1 | a4\n 21623: a0 = a0 | a1\n 21626: a0 = a0 <u 0x1\n 21629: a0 = a0 | a5\n 21632: a1 = a4\n 21634: a1 = 0 if a0 != 0\n 21636: u64 [s1 + 0xe8] = a1\n 21640: jump @839 if a0 != 0\n      : @786 (gas: 5)\n 21644: a0 = a2 ^ 0xff\n 21648: a0 = a0 | t1\n 21651: a1 = a3 | ra\n 21654: a0 = a0 | a1\n 21657: jump @839 if a0 == 0\n      : @787 (gas: 1)\n 21661: t0 = 736, jump @1252\n      : @788 [@dyn 368] (gas: 1)\n 21667: ra = 738, jump @1293\n      : @789 [@dyn 369] (gas: 6)\n 21673: u64 [s1 + 0xa8] = a0\n 21677: u64 [s1 + 0xc8] = a1\n 21681: a0 = u64 [s1 + 0xb8]\n 21685: a1 = u64 [s1 + 0xb0]\n 21689: a2 = u64 [s1 + 0xc0]\n 21693: ra = 740, jump @1298\n      : @790 [@dyn 370] (gas: 7)\n 21699: u64 [s1 + 0x90] = a0\n 21703: u64 [s1 + 0x88] = a1\n 21707: a0 = u64 [s1 + 0xc0]\n 21711: a2 = a0 + 0xffffffffffffff80\n 21714: a0 = u64 [s1 + 0xa0]\n 21718: a1 = u64 [s1 + 0x98]\n 21722: ra = 742, jump @1298\n      : @791 [@dyn 371] (gas: 8)\n 21728: u64 [s1 + 0x80] = a0\n 21732: u64 [s1 + 0x68] = a1\n 21735: a2 = u64 [s1 + 0xc0]\n 21739: a0 = a2 <u 0x80\n 21743: u64 [s1 + 0x60] = a0\n 21746: a0 = u64 [s1 + 0xa0]\n 21750: a1 = u64 [s1 + 0x98]\n 21754: ra = 744, jump @1298\n      : @792 [@dyn 372] (gas: 12)\n 21760: u64 [s1 + 0xd0] = a1\n 21764: a1 = u64 [s1 + 0xf0]\n 21768: a2 = u64 [s1 + 0xe8]\n 21772: a2 = a2 | a1\n 21775: a1 = u64 [s1 + 0xf8]\n 21779: a3 = u64 [s1 + 0xe0]\n 21783: a1 = a1 | a3\n 21786: a1 = a1 | a2\n 21789: a3 = u64 [s1 + 0x60]\n 21792: a0 = 0 if a3 == 0\n 21794: u64 [s1 + 0xd8] = a0\n 21798: jump @837 if a1 == 0\n      : @793 (gas: 7)\n 21802: a2 = a3\n 21804: a0 = u64 [s1 + 0xc8]\n 21808: a1 = u64 [s1 + 0x88]\n 21812: a0 = a0 | a1\n 21815: a5 = a3\n 21817: a1 = u64 [s1 + 0x68]\n 21820: t0 = 746, jump @1250\n      : @794 [@dyn 373] (gas: 1)\n 21826: ra = 748, jump @1293\n      : @795 [@dyn 374] (gas: 6)\n 21832: u64 [s1 + 0xa8] = a0\n 21836: u64 [s1 + 0x80] = a1\n 21840: a0 = u64 [s1 + 0xa0]\n 21844: a1 = u64 [s1 + 0x98]\n 21848: a2 = u64 [s1 + 0xf8]\n 21852: ra = 750, jump @1293\n      : @796 [@dyn 375] (gas: 7)\n 21858: u64 [s1 + 0x68] = a0\n 21861: u64 [s1 + 0x88] = a1\n 21865: a1 = u64 [s1 + 0xf8]\n 21869: a2 = 0x80 - a1\n 21873: a0 = u64 [s1 + 0xb8]\n 21877: a1 = u64 [s1 + 0xb0]\n 21881: ra = 752, jump @1298\n      : @797 [@dyn 376] (gas: 1)\n 21887: t0 = 754, jump @1276\n      : @798 [@dyn 377] (gas: 2)\n 21893: a1 = u64 [s1 + 0x68]\n 21896: t0 = 756, jump @1290\n      : @799 [@dyn 378] (gas: 1)\n 21902: ra = 758, jump @1293\n      : @800 [@dyn 379] (gas: 1)\n 21908: t0 = 760, jump @1258\n      : @801 [@dyn 380] (gas: 1)\n 21914: t0 = 762, jump @1263\n      : @802 [@dyn 381] (gas: 5)\n 21920: t0 = ra <u a2\n 21923: a4 = u64 [s1 + 0x88]\n 21927: a5 = a4 <u a3\n 21930: a5 = t0 if t1 != 0\n 21933: t0 = 764, jump @1268\n      : @803 [@dyn 382] (gas: 20)\n 21939: t0 = a0 | a1\n 21942: a1 = a4 << 0x1\n 21945: a4 = u64 [s1 + 0xd0]\n 21949: t1 = a4 >> 0x3f\n 21952: t1 = a1 | t1\n 21955: a1 = a4 << 0x1\n 21958: a4 = u64 [s1 + 0xd8]\n 21962: t2 = a4 >> 0x3f\n 21965: a1 = a1 | t2\n 21968: a4 = a4 << 0x1\n 21971: a0 = u64 [s1 + 0xb8]\n 21975: a4 = a4 | a0\n 21978: u64 [s1 + 0xd8] = a4\n 21982: a0 = u64 [s1 + 0xb0]\n 21986: a1 = a1 | a0\n 21989: u64 [s1 + 0xd0] = a1\n 21993: a1 = a0 | t1\n 21996: u64 [s1 + 0xc0] = a1\n 22000: a0 = a0 | t0\n 22003: t0 = 766, jump @1244\n      : @804 [@dyn 383] (gas: 18)\n 22009: t0 = a4 <u a2\n 22012: a2 = a4 - a2\n 22015: a4 = a3 <u 0x1\n 22018: a5 = a5 - a4\n 22021: a4 = u64 [s1 + 0xe8]\n 22025: a4 = a4 - t0\n 22028: a3 = a3 + 0xffffffffffffffff\n 22031: u64 [s1 + 0xf0] = a5\n 22035: u64 [s1 + 0xe8] = a4\n 22039: t0 = a5 | a4\n 22042: u64 [s1 + 0xf8] = a3\n 22046: a4 = a3 | a2\n 22049: a3 = a4 | t0\n 22052: a4 = ra & 0x1\n 22055: u64 [s1 + 0xb8] = a4\n 22059: u64 [s1 + 0xe0] = a2\n 22063: u64 [s1 + 176] = 0\n 22067: jump @801 if a3 != 0\n      : @805 (gas: 1)\n 22071: jump @838\n      : @806 (gas: 1)\n 22074: jump @904 if a0 != 235423050\n      : @807 (gas: 10)\n 22082: a0 = s1 + 0x1878\n 22086: u64 [a0 + 1504] = 0\n 22090: u64 [a0 + 1496] = 0\n 22094: u64 [a0 + 1488] = 0\n 22098: u64 [a0 + 1480] = 0\n 22102: a0 = s1 + 0x2000\n 22106: i32 a0 = a0 + 0xfffffffffffffe40\n 22110: ecalli 17 // 'value_transferred'\n 22112: a3 = s1 + 0x1878\n 22116: fallthrough\n      : @808 (gas: 9)\n 22117: a4 = a3 + 0x500\n 22121: a0 = u64 [a4 + 0xd8]\n 22125: a1 = u64 [a4 + 0xe0]\n 22129: a2 = u64 [a4 + 0xd0]\n 22133: a3 = u64 [a4 + 0xc8]\n 22137: a1 = a1 | a2\n 22140: a0 = a0 | a3\n 22143: a0 = a0 | a1\n 22146: jump @910 if a0 == 0\n      : @809 (gas: 6)\n 22150: a1 = 0x20160\n 22155: i32 a1 = a1 + 0\n 22157: a0 = 0x1\n 22160: a2 = 0\n 22162: ecalli 14 // 'seal_return'\n 22164: jump @1011\n      : @810 (gas: 3)\n 22167: a0 = u64 [s1 + 0xf8]\n 22171: a0 = i32 [a0]\n 22173: jump @912 if a0 >u 35\n      : @811 (gas: 6)\n 22178: a1 = 0x20160\n 22183: i32 a1 = a1 + 0\n 22185: a0 = 0x1\n 22188: a2 = 0\n 22190: ecalli 14 // 'seal_return'\n 22192: jump @1011\n      : @812 (gas: 4)\n 22195: a0 = s1 + 0x17c0\n 22199: ra = 0x300\n 22203: t0 = 0x430\n 22207: jump @1286\n      : @813 [@dyn 384] (gas: 12)\n 22210: a0 = s1 + 0x1078\n 22214: a0 = u64 [a0 + 0x748]\n 22218: u64 [s1 + 0xe0] = a0\n 22222: a0 = 0x30160\n 22227: u64 [s1 + 0xe8] = a0\n 22231: i32 a0 = a0 + 0\n 22233: u64 [s1 + 0xd8] = a0\n 22237: ra = 0x302\n 22241: ecalli 4 // 'caller'\n 22243: a2 = u64 [s1 + 0xe8]\n 22247: t0 = 0x304\n 22251: jump @1240\n      : @814 [@dyn 385] (gas: 2)\n 22254: a2 = u64 [s1 + 0xe8]\n 22258: t0 = 772, jump @1240\n      : @815 [@dyn 386] (gas: 8)\n 22264: u64 [a2 + 1856] = 0\n 22268: a4 = a2 + 0x700\n 22272: u64 [a4 + 0x38] = a1\n 22275: u64 [a4 + 0x30] = a0\n 22278: a1 = s1 + 0x17a0\n 22282: u64 [a4 + 0x28] = a3\n 22285: a0 = 0\n 22287: ra = 774, jump @9\n      : @816 [@dyn 387] (gas: 3)\n 22293: t0 = 0x308\n 22297: a1 = s1 + 0x1078\n 22301: fallthrough\n      : @817 [@dyn 388] (gas: 8)\n 22302: u64 [a1 + 1824] = 0\n 22306: u64 [a1 + 1816] = 0\n 22310: u64 [a1 + 1800] = 0x3\n 22315: a2 = a1\n 22317: a0 = 0x20\n 22320: a1 = s1 + 0x1780\n 22324: u64 [a2 + 1808] = 0\n 22328: ra = 778, jump @9\n      : @818 [@dyn 389] (gas: 4)\n 22334: a0 = 0x20150\n 22339: u64 [s1 + 0xf8] = a0\n 22343: a0 = i32 [0x20150]\n 22348: jump @820 if a0 >u 63\n      : @819 (gas: 3)\n 22352: a1 = u64 [s1 + 0xf8]\n 22356: u32 [a1 + 0] = 0x40\n 22359: fallthrough\n      : @820 (gas: 14)\n 22360: a0 = sp + 0xffffffffffffffe0\n 22363: a2 = a0 & 0xffffffffffffffe0\n 22366: u64 [s1 + 0xd0] = a2\n 22370: sp = a2\n 22372: a0 = 0x20160\n 22377: i32 a0 = a0 + 0\n 22379: i32 a2 = a2 + 0\n 22381: a1 = 0x40\n 22384: u64 [s1 + 0xf0] = a0\n 22388: ra = 0x30c\n 22392: ecalli 9 // 'hash_keccak_256'\n 22394: a3 = u64 [s1 + 0xd0]\n 22398: t0 = 0x30e\n 22402: jump @1282\n      : @821 [@dyn 390] (gas: 2)\n 22405: a3 = u64 [s1 + 0xd0]\n 22409: t0 = 782, jump @1282\n      : @822 [@dyn 391] (gas: 19)\n 22415: u64 [s1 + 0xc8] = a0\n 22419: a0 = reverse a1\n 22421: u64 [s1 + 0xc0] = a0\n 22425: a0 = reverse a2\n 22427: u64 [s1 + 0xb8] = a0\n 22431: a0 = reverse a3\n 22433: u64 [s1 + 0xb0] = a0\n 22437: a0 = u64 [s1 + 0xe0]\n 22441: a0 = a0 << 0x20\n 22444: a2 = a0 >> 0x20\n 22447: a0 = s1 + 0x1078\n 22451: u64 [a0 + 1792] = 0\n 22455: u64 [a0 + 1784] = 0\n 22459: u64 [a0 + 1776] = 0\n 22463: a1 = s1 + 0x1760\n 22467: u64 [s1 + 0xd0] = a2\n 22471: u64 [a0 + 0x6e8] = a2\n 22475: a0 = 0\n 22477: ra = 784, jump @9\n      : @823 [@dyn 392] (gas: 14)\n 22483: a0 = u64 [s1 + 0xb0]\n 22487: a1 = s1 + 0x1078\n 22491: a2 = a1 + 0x600\n 22495: u64 [a2 + 0xe0] = a0\n 22499: a0 = u64 [s1 + 0xb8]\n 22503: u64 [a2 + 0xd8] = a0\n 22507: a0 = u64 [s1 + 0xc0]\n 22511: u64 [a2 + 0xd0] = a0\n 22515: a3 = a1\n 22517: a0 = 0x20\n 22520: a1 = s1 + 0x1740\n 22524: a2 = u64 [s1 + 0xc8]\n 22528: u64 [a3 + 0x6c8] = a2\n 22532: ra = 786, jump @9\n      : @824 [@dyn 393] (gas: 3)\n 22538: a0 = u64 [s1 + 0xf8]\n 22542: a0 = i32 [a0]\n 22544: jump @826 if a0 >u 63\n      : @825 (gas: 3)\n 22548: a0 = u64 [s1 + 0xf8]\n 22552: u32 [a0 + 0] = 0x40\n 22555: fallthrough\n      : @826 (gas: 4)\n 22556: a0 = sp + 0xffffffffffffffe0\n 22559: a0 = a0 & 0xffffffffffffffe0\n 22562: u64 [s1 + 0xe0] = a0\n 22566: t0 = 788, jump @1259\n      : @827 [@dyn 394] (gas: 28)\n 22572: ecalli 9 // 'hash_keccak_256'\n 22574: a3 = u64 [s1 + 0xe0]\n 22578: a0 = u64 [a3]\n 22580: a1 = u64 [a3 + 0x8]\n 22583: a2 = u64 [a3 + 0x10]\n 22586: a3 = u64 [a3 + 0x18]\n 22589: a0 = reverse a0\n 22591: a5 = reverse a1\n 22593: a2 = reverse a2\n 22595: a3 = reverse a3\n 22597: a4 = sp + 0xffffffffffffffe0\n 22600: a1 = a4 & 0xffffffffffffffe0\n 22603: sp = a1\n 22605: a3 = a3 + 0x1\n 22608: a4 = a3 <u 0x1\n 22611: a2 = a2 + a4\n 22614: a4 = a3 | a2\n 22617: a4 = a4 <u 0x1\n 22620: a4 = a4 + a5\n 22623: a5 = a4 <u a5\n 22626: a0 = a0 + a5\n 22629: u64 [a1 + 0x8] = a2\n 22632: u64 [a1] = a3\n 22634: u64 [a1 + 0x10] = a4\n 22637: u64 [a1 + 0x18] = a0\n 22640: a0 = s1 + 0x1720\n 22644: u64 [s1 + 0xe0] = a1\n 22648: ra = 790, jump @11\n      : @828 [@dyn 395] (gas: 3)\n 22654: a0 = s1 + 0x1078\n 22658: a0 = u64 [a0 + 0x6a8]\n 22662: jump @920 if a0 == 0\n      : @829 (gas: 4)\n 22666: a1 = s1 + 0x1078\n 22670: a1 = u64 [a1 + 0x6b0]\n 22674: a2 = a1 & 0xff\n 22678: jump @922 if a2 == 0\n      : @830 (gas: 3)\n 22682: t0 = 0x318\n 22686: a2 = s1 + 0x1078\n 22690: fallthrough\n      : @831 [@dyn 396] (gas: 9)\n 22691: u64 [a2 + 1688] = 0\n 22695: u64 [a2 + 1680] = 0\n 22699: a0 = 0xc1c184c800000000\n 22709: u64 [a2 + 0x6a0] = a0\n 22713: a1 = s1 + 0x1700\n 22717: u64 [a2 + 1672] = 0\n 22721: a0 = 0\n 22723: ra = 0x3b2\n 22727: jump @9\n      : @832 (gas: 2)\n 22730: u64 [s1 + 184] = 0\n 22734: fallthrough\n      : @833 (gas: 5)\n 22735: a0 = u64 [s1 + 0xd8]\n 22739: a0 = a0 << 0x1\n 22742: a4 = u64 [s1 + 0xb8]\n 22746: a4 = a4 | a0\n 22749: fallthrough\n      : @834 (gas: 2)\n 22750: a0 = u64 [s1 + 0x78]\n 22753: jump @940 if a0 >=u a4\n      : @835 (gas: 32)\n 22757: a0 = s1 + 0x7ff\n 22761: a0 = a0 + 0x79\n 22764: a1 = u64 [s1 + 0x20]\n 22767: a2 = a0 + 0x700\n 22771: u64 [a2 + 0xc8] = a1\n 22775: a1 = u64 [s1 + 0x78]\n 22778: u64 [a2 + 0xe8] = a1\n 22782: a3 = s1 + 0x1078\n 22786: a1 = u64 [s1 + 0x50]\n 22789: u64 [a3 + 0x8] = a1\n 22792: a1 = u64 [s1 + 0x28]\n 22795: u64 [a2 + 0xd0] = a1\n 22799: a1 = u64 [s1 + 0x40]\n 22802: u64 [a2 + 0xf0] = a1\n 22806: a1 = u64 [s1 + 0x60]\n 22809: u64 [a3 + 0x10] = a1\n 22812: a1 = u64 [s1 + 0x30]\n 22815: u64 [a2 + 0xd8] = a1\n 22819: a1 = u64 [s1 + 0x48]\n 22822: u64 [a2 + 0xf8] = a1\n 22826: a1 = u64 [s1 + 0x68]\n 22829: u64 [a3 + 0x18] = a1\n 22832: a1 = u64 [s1 + 0x38]\n 22835: u64 [a2 + 0xe0] = a1\n 22839: a0 = u64 [s1 + 0x58]\n 22842: u64 [a3] = a0\n 22844: a0 = s1 + 0x1080\n 22848: a1 = s1 + 0x1060\n 22852: a2 = s1 + 0x1040\n 22856: a4 = u64 [s1 + 0x70]\n 22859: u64 [a3 + 0x20] = a4\n 22862: ra = 794, jump @1081\n      : @836 [@dyn 397] (gas: 6)\n 22868: a1 = 0x20160\n 22873: i32 a1 = a1 + 0\n 22875: a0 = 0\n 22877: a2 = 0\n 22879: ecalli 14 // 'seal_return'\n 22881: jump @1011\n      : @837 (gas: 2)\n 22884: u64 [s1 + 184] = 0\n 22888: fallthrough\n      : @838 (gas: 6)\n 22889: a0 = u64 [s1 + 0xd8]\n 22893: a0 = a0 << 0x1\n 22896: a1 = u64 [s1 + 0xb8]\n 22900: a0 = a0 | a1\n 22903: u64 [s1 + 0xe8] = a0\n 22907: fallthrough\n      : @839 (gas: 3)\n 22908: a0 = u64 [s1 + 0xe8]\n 22912: a1 = u64 [s1 + 0x70]\n 22915: jump @944 if a1 != a0\n      : @840 (gas: 9)\n 22919: a0 = 0x30160\n 22924: u64 [s1 + 0xe0] = a0\n 22928: i32 a0 = a0 + 0\n 22930: u64 [s1 + 0xb8] = a0\n 22934: ra = 0x31c\n 22938: ecalli 4 // 'caller'\n 22940: a2 = u64 [s1 + 0xe0]\n 22944: t0 = 0x31e\n 22948: jump @1240\n      : @841 [@dyn 398] (gas: 2)\n 22951: a2 = u64 [s1 + 0xe0]\n 22955: t0 = 798, jump @1240\n      : @842 [@dyn 399] (gas: 8)\n 22961: u64 [a2 + 1024] = 0\n 22965: a4 = a2 + 0x300\n 22969: u64 [a4 + 0xf8] = a1\n 22973: u64 [a4 + 0xf0] = a0\n 22977: a1 = s1 + 0x1460\n 22981: u64 [a4 + 0xe8] = a3\n 22985: a0 = 0\n 22987: ra = 800, jump @9\n      : @843 [@dyn 400] (gas: 3)\n 22993: t0 = 0x322\n 22997: a1 = s1 + 0x1078\n 23001: fallthrough\n      : @844 [@dyn 401] (gas: 8)\n 23002: u64 [a1 + 992] = 0\n 23006: u64 [a1 + 984] = 0\n 23010: u64 [a1 + 968] = 0x3\n 23015: a2 = a1\n 23017: a0 = 0x20\n 23020: a1 = s1 + 0x1440\n 23024: u64 [a2 + 976] = 0\n 23028: ra = 804, jump @9\n      : @845 [@dyn 402] (gas: 4)\n 23034: a0 = 0x20150\n 23039: u64 [s1 + 0xf8] = a0\n 23043: a0 = i32 [0x20150]\n 23048: jump @847 if a0 >u 63\n      : @846 (gas: 3)\n 23052: a1 = u64 [s1 + 0xf8]\n 23056: u32 [a1 + 0] = 0x40\n 23059: fallthrough\n      : @847 (gas: 13)\n 23060: a0 = sp + 0xffffffffffffffe0\n 23063: a2 = a0 & 0xffffffffffffffe0\n 23066: u64 [s1 + 0xd8] = a2\n 23070: sp = a2\n 23072: a0 = 0x20160\n 23077: i32 a0 = a0 + 0\n 23079: i32 a2 = a2 + 0\n 23081: a1 = 0x40\n 23084: u64 [s1 + 0xf0] = a0\n 23088: ra = 0x326\n 23092: ecalli 9 // 'hash_keccak_256'\n 23094: t0 = 0x328\n 23098: jump @1265\n      : @848 [@dyn 403] (gas: 1)\n 23101: t0 = 808, jump @1265\n      : @849 [@dyn 404] (gas: 12)\n 23107: a0 = u64 [s1 + 0x78]\n 23110: a0 = a0 << 0x20\n 23113: a2 = a0 >> 0x20\n 23116: a0 = s1 + 0x1078\n 23120: u64 [a0 + 960] = 0\n 23124: u64 [a0 + 952] = 0\n 23128: u64 [a0 + 944] = 0\n 23132: a1 = s1 + 0x1420\n 23136: u64 [s1 + 0xb0] = a2\n 23140: u64 [a0 + 0x3a8] = a2\n 23144: a0 = 0\n 23146: ra = 810, jump @9\n      : @850 [@dyn 405] (gas: 14)\n 23152: a0 = u64 [s1 + 0xc0]\n 23156: a1 = s1 + 0x1078\n 23160: a2 = a1 + 0x300\n 23164: u64 [a2 + 0xa0] = a0\n 23168: a0 = u64 [s1 + 0xc8]\n 23172: u64 [a2 + 0x98] = a0\n 23176: a0 = u64 [s1 + 0xd0]\n 23180: u64 [a2 + 0x90] = a0\n 23184: a3 = a1\n 23186: a0 = 0x20\n 23189: a1 = s1 + 0x1400\n 23193: a2 = u64 [s1 + 0xd8]\n 23197: u64 [a3 + 0x388] = a2\n 23201: ra = 812, jump @9\n      : @851 [@dyn 406] (gas: 3)\n 23207: a0 = u64 [s1 + 0xf8]\n 23211: a0 = i32 [a0]\n 23213: jump @853 if a0 >u 63\n      : @852 (gas: 3)\n 23217: a0 = u64 [s1 + 0xf8]\n 23221: u32 [a0 + 0] = 0x40\n 23224: fallthrough\n      : @853 (gas: 4)\n 23225: a0 = sp + 0xffffffffffffffe0\n 23228: a0 = a0 & 0xffffffffffffffe0\n 23231: u64 [s1 + 0xd8] = a0\n 23235: t0 = 814, jump @1259\n      : @854 [@dyn 407] (gas: 4)\n 23241: ra = 0x330\n 23245: ecalli 9 // 'hash_keccak_256'\n 23247: t0 = 0x332\n 23251: jump @1251\n      : @855 [@dyn 408] (gas: 1)\n 23254: t0 = 818, jump @1251\n      : @856 [@dyn 409] (gas: 8)\n 23260: a5 = a1 + 0x300\n 23264: u64 [a5 + 0xc8] = a3\n 23268: u64 [a5 + 0xd0] = a2\n 23272: u64 [a5 + 0xd8] = a4\n 23276: u64 [a5 + 0xe0] = a0\n 23280: a0 = s1 + 0x13e0\n 23284: a1 = s1 + 0x2440\n 23288: ra = 820, jump @11\n      : @857 [@dyn 410] (gas: 4)\n 23294: a0 = s1 + 0x1078\n 23298: a0 = u64 [a0 + 0x368]\n 23302: a0 = a0 & 0xffffffffffffffff\n 23305: jump @949 if a0 == 0\n      : @858 (gas: 3)\n 23309: a0 = s1 + 0x1078\n 23313: a0 = u8 [a0 + 0x370]\n 23317: jump @949 if a0 != 0\n      : @859 (gas: 7)\n 23321: a1 = u64 [s1 + 0xb0]\n 23325: a0 = a1 <u 0x100\n 23329: u64 [s1 + 0xa8] = a0\n 23333: i32 a2 = a1 + 0xffffffffffffff80\n 23336: a0 = 0x1\n 23339: a1 = 0\n 23341: ra = 822, jump @1298\n      : @860 [@dyn 411] (gas: 7)\n 23347: u64 [s1 + 0xd8] = a0\n 23351: u64 [s1 + 0xd0] = a1\n 23355: a1 = u64 [s1 + 0xb0]\n 23359: i32 a2 = 0x80 - a1\n 23363: a0 = 0x1\n 23366: a1 = 0\n 23368: ra = 824, jump @1293\n      : @861 [@dyn 412] (gas: 15)\n 23374: a2 = u64 [s1 + 0xb0]\n 23378: a3 = a2 <u 0x80\n 23382: u64 [s1 + 0xc0] = a3\n 23386: a4 = u64 [s1 + 0xd8]\n 23390: a0 = a4 if a3 == 0\n 23393: a0 = 0 if a2 == 0\n 23395: u64 [s1 + 0xd8] = a0\n 23399: a0 = u64 [s1 + 0xd0]\n 23403: a1 = a0 if a3 == 0\n 23406: a1 = 0 if a2 == 0\n 23408: u64 [s1 + 0xd0] = a1\n 23412: i32 a2 = a2 + 0\n 23414: a0 = 0x1\n 23417: a1 = 0\n 23419: ra = 826, jump @1298\n      : @862 [@dyn 413] (gas: 11)\n 23425: a2 = u64 [s1 + 0xc0]\n 23429: a0 = 0 if a2 == 0\n 23431: u64 [s1 + 0xc8] = a0\n 23435: a1 = 0 if a2 == 0\n 23437: u64 [s1 + 0xc0] = a1\n 23441: a0 = u64 [s1 + 0xb8]\n 23445: ra = 0x33c\n 23449: ecalli 4 // 'caller'\n 23451: a2 = u64 [s1 + 0xe0]\n 23455: t0 = 0x33e\n 23459: jump @1240\n      : @863 [@dyn 414] (gas: 2)\n 23462: a2 = u64 [s1 + 0xe0]\n 23466: t0 = 830, jump @1240\n      : @864 [@dyn 415] (gas: 8)\n 23472: u64 [a2 + 832] = 0\n 23476: a4 = a2 + 0x300\n 23480: u64 [a4 + 0x38] = a1\n 23483: u64 [a4 + 0x30] = a0\n 23486: a1 = s1 + 0x13a0\n 23490: u64 [a4 + 0x28] = a3\n 23493: a0 = 0\n 23495: ra = 832, jump @9\n      : @865 [@dyn 416] (gas: 3)\n 23501: t0 = 0x342\n 23505: a1 = s1 + 0x1078\n 23509: fallthrough\n      : @866 [@dyn 417] (gas: 8)\n 23510: u64 [a1 + 800] = 0\n 23514: u64 [a1 + 792] = 0\n 23518: u64 [a1 + 776] = 0x5\n 23523: a2 = a1\n 23525: a0 = 0x20\n 23528: a1 = s1 + 0x1380\n 23532: u64 [a2 + 784] = 0\n 23536: ra = 836, jump @9\n      : @867 [@dyn 418] (gas: 3)\n 23542: a0 = u64 [s1 + 0xf8]\n 23546: a0 = i32 [a0]\n 23548: jump @869 if a0 >u 63\n      : @868 (gas: 3)\n 23552: a1 = u64 [s1 + 0xf8]\n 23556: u32 [a1 + 0] = 0x40\n 23559: fallthrough\n      : @869 (gas: 17)\n 23560: a0 = u64 [s1 + 0xc0]\n 23564: a1 = u64 [s1 + 0xa8]\n 23568: a0 = 0 if a1 == 0\n 23570: u64 [s1 + 0xc0] = a0\n 23574: a0 = u64 [s1 + 0xc8]\n 23578: a0 = 0 if a1 == 0\n 23580: u64 [s1 + 0xc8] = a0\n 23584: a0 = u64 [s1 + 0xd0]\n 23588: a0 = 0 if a1 == 0\n 23590: u64 [s1 + 0xd0] = a0\n 23594: a0 = u64 [s1 + 0xd8]\n 23598: a0 = 0 if a1 == 0\n 23600: u64 [s1 + 0xd8] = a0\n 23604: a0 = sp + 0xffffffffffffffe0\n 23607: a0 = a0 & 0xffffffffffffffe0\n 23610: u64 [s1 + 0xa8] = a0\n 23614: t0 = 838, jump @1259\n      : @870 [@dyn 419] (gas: 4)\n 23620: ra = 0x348\n 23624: ecalli 9 // 'hash_keccak_256'\n 23626: t0 = 0x34a\n 23630: jump @1243\n      : @871 [@dyn 420] (gas: 1)\n 23633: t0 = 842, jump @1243\n      : @872 [@dyn 421] (gas: 8)\n 23639: u64 [a2 + 768] = 0\n 23643: u64 [a2 + 760] = 0\n 23647: u64 [a2 + 752] = 0\n 23651: a1 = s1 + 0x1360\n 23655: a0 = u64 [s1 + 0xe8]\n 23659: u64 [a2 + 0x2e8] = a0\n 23663: a0 = 0\n 23665: ra = 844, jump @9\n      : @873 [@dyn 422] (gas: 14)\n 23671: a0 = u64 [s1 + 0x88]\n 23675: a1 = s1 + 0x1078\n 23679: a2 = a1 + 0x200\n 23683: u64 [a2 + 0xe0] = a0\n 23687: a0 = u64 [s1 + 0x90]\n 23691: u64 [a2 + 0xd8] = a0\n 23695: a0 = u64 [s1 + 0x98]\n 23699: u64 [a2 + 0xd0] = a0\n 23703: a3 = a1\n 23705: a0 = 0x20\n 23708: a1 = s1 + 0x1340\n 23712: a2 = u64 [s1 + 0xa0]\n 23716: u64 [a3 + 0x2c8] = a2\n 23720: ra = 846, jump @9\n      : @874 [@dyn 423] (gas: 3)\n 23726: a0 = u64 [s1 + 0xf8]\n 23730: a0 = i32 [a0]\n 23732: jump @876 if a0 >u 63\n      : @875 (gas: 3)\n 23736: a0 = u64 [s1 + 0xf8]\n 23740: u32 [a0 + 0] = 0x40\n 23743: fallthrough\n      : @876 (gas: 4)\n 23744: a0 = sp + 0xffffffffffffffe0\n 23747: a0 = a0 & 0xffffffffffffffe0\n 23750: u64 [s1 + 0xa0] = a0\n 23754: t0 = 848, jump @1259\n      : @877 [@dyn 424] (gas: 5)\n 23760: ra = 0x352\n 23764: ecalli 9 // 'hash_keccak_256'\n 23766: a3 = u64 [s1 + 0xa0]\n 23770: t0 = 0x354\n 23774: jump @1249\n      : @878 [@dyn 425] (gas: 2)\n 23777: a3 = u64 [s1 + 0xa0]\n 23781: t0 = 852, jump @1249\n      : @879 [@dyn 426] (gas: 3)\n 23787: i32 a0 = a0 + 0x320\n 23791: a0 = a0 + s1\n 23794: ra = 854, jump @11\n      : @880 [@dyn 427] (gas: 7)\n 23800: a3 = s1 + 0x1078\n 23804: a4 = a3 + 0x200\n 23808: a0 = u64 [a4 + 0xb8]\n 23812: a1 = u64 [a4 + 0xa8]\n 23816: a2 = u64 [a4 + 0xc0]\n 23820: a3 = u64 [a4 + 0xb0]\n 23824: t0 = 856, jump @1285\n      : @881 [@dyn 428] (gas: 1)\n 23830: jump @951 if a0 == 0\n      : @882 (gas: 6)\n 23834: a0 = u64 [s1 + 0xb8]\n 23838: ra = 0x35a\n 23842: ecalli 4 // 'caller'\n 23844: a2 = u64 [s1 + 0xe0]\n 23848: t0 = 0x35c\n 23852: jump @1240\n      : @883 [@dyn 429] (gas: 2)\n 23855: a2 = u64 [s1 + 0xe0]\n 23859: t0 = 860, jump @1240\n      : @884 [@dyn 430] (gas: 8)\n 23865: u64 [a2 + 672] = 0\n 23869: a4 = a2 + 0x200\n 23873: u64 [a4 + 0x98] = a1\n 23877: u64 [a4 + 0x90] = a0\n 23881: a1 = s1 + 0x1300\n 23885: u64 [a4 + 0x88] = a3\n 23889: a0 = 0\n 23891: ra = 862, jump @9\n      : @885 [@dyn 431] (gas: 3)\n 23897: t0 = 0x360\n 23901: a1 = s1 + 0x1078\n 23905: fallthrough\n      : @886 [@dyn 432] (gas: 8)\n 23906: u64 [a1 + 640] = 0\n 23910: u64 [a1 + 632] = 0\n 23914: u64 [a1 + 616] = 0x6\n 23919: a2 = a1\n 23921: a0 = 0x20\n 23924: a1 = s1 + 0x12e0\n 23928: u64 [a2 + 624] = 0\n 23932: ra = 866, jump @9\n      : @887 [@dyn 433] (gas: 3)\n 23938: a0 = u64 [s1 + 0xf8]\n 23942: a0 = i32 [a0]\n 23944: jump @889 if a0 >u 63\n      : @888 (gas: 3)\n 23948: a1 = u64 [s1 + 0xf8]\n 23952: u32 [a1 + 0] = 0x40\n 23955: fallthrough\n      : @889 (gas: 4)\n 23956: a0 = sp + 0xffffffffffffffe0\n 23959: a0 = a0 & 0xffffffffffffffe0\n 23962: u64 [s1 + 0xa8] = a0\n 23966: t0 = 868, jump @1259\n      : @890 [@dyn 434] (gas: 4)\n 23972: ra = 0x366\n 23976: ecalli 9 // 'hash_keccak_256'\n 23978: t0 = 0x368\n 23982: jump @1243\n      : @891 [@dyn 435] (gas: 1)\n 23985: t0 = 872, jump @1243\n      : @892 [@dyn 436] (gas: 8)\n 23991: u64 [a2 + 608] = 0\n 23995: u64 [a2 + 600] = 0\n 23999: u64 [a2 + 592] = 0\n 24003: a1 = s1 + 0x12c0\n 24007: a0 = u64 [s1 + 0xe8]\n 24011: u64 [a2 + 0x248] = a0\n 24015: a0 = 0\n 24017: ra = 874, jump @9\n      : @893 [@dyn 437] (gas: 14)\n 24023: a0 = u64 [s1 + 0x88]\n 24027: a1 = s1 + 0x1078\n 24031: a2 = a1 + 0x200\n 24035: u64 [a2 + 0x40] = a0\n 24038: a0 = u64 [s1 + 0x90]\n 24042: u64 [a2 + 0x38] = a0\n 24045: a0 = u64 [s1 + 0x98]\n 24049: u64 [a2 + 0x30] = a0\n 24052: a3 = a1\n 24054: a0 = 0x20\n 24057: a1 = s1 + 0x12a0\n 24061: a2 = u64 [s1 + 0xa0]\n 24065: u64 [a3 + 0x228] = a2\n 24069: ra = 876, jump @9\n      : @894 [@dyn 438] (gas: 3)\n 24075: a0 = u64 [s1 + 0xf8]\n 24079: a0 = i32 [a0]\n 24081: jump @896 if a0 >u 63\n      : @895 (gas: 3)\n 24085: a0 = u64 [s1 + 0xf8]\n 24089: u32 [a0 + 0] = 0x40\n 24092: fallthrough\n      : @896 (gas: 4)\n 24093: a0 = sp + 0xffffffffffffffe0\n 24096: a0 = a0 & 0xffffffffffffffe0\n 24099: u64 [s1 + 0xa0] = a0\n 24103: t0 = 878, jump @1259\n      : @897 [@dyn 439] (gas: 5)\n 24109: ra = 0x370\n 24113: ecalli 9 // 'hash_keccak_256'\n 24115: a3 = u64 [s1 + 0xa0]\n 24119: t0 = 0x372\n 24123: jump @1249\n      : @898 [@dyn 440] (gas: 2)\n 24126: a3 = u64 [s1 + 0xa0]\n 24130: t0 = 882, jump @1249\n      : @899 [@dyn 441] (gas: 3)\n 24136: i32 a0 = a0 + 0x280\n 24140: a0 = a0 + s1\n 24143: ra = 884, jump @11\n      : @900 [@dyn 442] (gas: 7)\n 24149: a3 = s1 + 0x1078\n 24153: a4 = a3 + 0x200\n 24157: a0 = u64 [a4 + 0x18]\n 24160: a1 = u64 [a4 + 0x8]\n 24163: a2 = u64 [a4 + 0x20]\n 24166: a3 = u64 [a4 + 0x10]\n 24169: t0 = 886, jump @1285\n      : @901 [@dyn 443] (gas: 1)\n 24175: jump @955 if a0 == 0\n      : @902 (gas: 3)\n 24179: t0 = 0x378\n 24183: a2 = s1 + 0x1078\n 24187: fallthrough\n      : @903 [@dyn 444] (gas: 9)\n 24188: u64 [a2 + 504] = 0\n 24192: u64 [a2 + 496] = 0\n 24196: a0 = 0xc98289f000000000\n 24206: u64 [a2 + 0x200] = a0\n 24210: a1 = s1 + 0x1260\n 24214: u64 [a2 + 488] = 0\n 24218: a0 = 0\n 24220: ra = 0x3b2\n 24224: jump @9\n      : @904 (gas: 1)\n 24227: jump @978 if a0 != 1081252952\n      : @905 (gas: 11)\n 24235: a0 = s1 + 0x1878\n 24239: u64 [a0 + 1824] = 0\n 24243: u64 [a0 + 1816] = 0\n 24247: u64 [a0 + 1808] = 0\n 24251: u64 [a0 + 1800] = 0\n 24255: a0 = s1 + 0x2000\n 24259: i32 a0 = a0 + 0xffffffffffffff80\n 24262: ra = 0x37a\n 24266: ecalli 17 // 'value_transferred'\n 24268: t0 = 0x37c\n 24272: jump @1287\n      : @906 [@dyn 445] (gas: 1)\n 24275: t0 = 892, jump @1287\n      : @907 [@dyn 446] (gas: 1)\n 24281: t0 = 894, jump @1291\n      : @908 [@dyn 447] (gas: 1)\n 24287: jump @984 if a0 == 0\n      : @909 (gas: 6)\n 24291: a1 = 0x20160\n 24296: i32 a1 = a1 + 0\n 24298: a0 = 0x1\n 24301: a2 = 0\n 24303: ecalli 14 // 'seal_return'\n 24305: jump @1011\n      : @910 (gas: 3)\n 24308: a0 = u64 [s1 + 0xf8]\n 24312: a0 = i32 [a0]\n 24314: jump @986 if a0 >u 35\n      : @911 (gas: 6)\n 24319: a1 = 0x20160\n 24324: i32 a1 = a1 + 0\n 24326: a0 = 0x1\n 24329: a2 = 0\n 24331: ecalli 14 // 'seal_return'\n 24333: jump @1011\n      : @912 (gas: 4)\n 24336: a0 = s1 + 0x1de0\n 24340: ra = 0x380\n 24344: t0 = 0x416\n 24348: jump @1286\n      : @913 [@dyn 448] (gas: 16)\n 24351: a1 = s1 + 0x1878\n 24355: a2 = a1 + 0x500\n 24359: a0 = u64 [a2 + 0x78]\n 24362: u64 [s1 + 0xe0] = a0\n 24366: a0 = u64 [a2 + 0x70]\n 24369: u64 [s1 + 0xf8] = a0\n 24373: a0 = u64 [a2 + 0x68]\n 24376: u64 [s1 + 0xf0] = a0\n 24380: a1 = s1 + 0x2078\n 24384: u64 [a1 + 1568] = 0\n 24388: u64 [a1 + 1560] = 0\n 24392: u64 [a1 + 1552] = 0\n 24396: u64 [a1 + 1544] = 0x1\n 24401: a0 = s1 + 0x1dc0\n 24405: a1 = s1 + 0x2680\n 24409: ra = 898, jump @11\n      : @914 [@dyn 449] (gas: 18)\n 24415: a1 = s1 + 0x1878\n 24419: a2 = a1 + 0x500\n 24423: a0 = u64 [a2 + 0x60]\n 24426: u64 [s1 + 0xe8] = a0\n 24430: a0 = u64 [a2 + 0x58]\n 24433: u64 [s1 + 0xc8] = a0\n 24437: a0 = u64 [a2 + 0x50]\n 24440: u64 [s1 + 0xd8] = a0\n 24444: a0 = u64 [a2 + 0x48]\n 24447: u64 [s1 + 0xd0] = a0\n 24451: a0 = 0x30160\n 24456: u64 [s1 + 0xc0] = a0\n 24460: i32 a0 = a0 + 0\n 24462: ra = 0x384\n 24466: ecalli 4 // 'caller'\n 24468: a2 = u64 [s1 + 0xc0]\n 24472: t0 = 0x386\n 24476: jump @1261\n      : @915 [@dyn 450] (gas: 2)\n 24479: a2 = u64 [s1 + 0xc0]\n 24483: t0 = 902, jump @1261\n      : @916 [@dyn 451] (gas: 12)\n 24489: a2 = u64 [s1 + 0xc8]\n 24493: a4 = a2\n 24495: a2 = a2 << 0x20\n 24498: a2 = a2 >> 0x20\n 24501: a1 = a1 ^ a2\n 24504: a2 = u64 [s1 + 0xd0]\n 24508: a0 = a0 ^ a2\n 24511: a0 = a0 | a1\n 24514: a1 = u64 [s1 + 0xd8]\n 24518: a1 = a1 ^ a3\n 24521: a0 = a0 | a1\n 24524: jump @998 if a0 != 0\n      : @917 (gas: 8)\n 24528: a0 = u64 [s1 + 0xe0]\n 24532: a0 = a0 << 0x20\n 24535: a0 = a0 >> 0x20\n 24538: a1 = u64 [s1 + 0xf8]\n 24542: a2 = u64 [s1 + 0xf0]\n 24546: a1 = a1 | a2\n 24549: a1 = a1 | a0\n 24552: jump @1003 if a1 == 0\n      : @918 (gas: 19)\n 24556: a1 = a4 >> 0x20\n 24559: a1 = a1 << 0x20\n 24562: a0 = a0 | a1\n 24565: a2 = s1 + 0x2078\n 24569: u64 [a2 + 1600] = 0\n 24573: u64 [a2 + 1592] = 0\n 24577: u64 [a2 + 1584] = 0\n 24581: a3 = a2 + 0x600\n 24585: u64 [a3 + 40] = 0x1\n 24589: a1 = u64 [s1 + 0xf0]\n 24593: u64 [a3 + 0x48] = a1\n 24596: a1 = u64 [s1 + 0xf8]\n 24600: u64 [a3 + 0x50] = a1\n 24603: a1 = u64 [s1 + 0xe8]\n 24607: u64 [a3 + 0x60] = a1\n 24610: u64 [a3 + 0x58] = a0\n 24613: a0 = s1 + 0x26a0\n 24617: a1 = s1 + 0x26c0\n 24621: ra = 904, jump @12\n      : @919 [@dyn 452] (gas: 6)\n 24627: a1 = 0x20160\n 24632: i32 a1 = a1 + 0\n 24634: a0 = 0\n 24636: a2 = 0\n 24638: ecalli 14 // 'seal_return'\n 24640: jump @1011\n      : @920 (gas: 3)\n 24643: t0 = 0x38a\n 24647: a2 = s1 + 0x1078\n 24651: fallthrough\n      : @921 [@dyn 453] (gas: 9)\n 24652: u64 [a2 + 1432] = 0\n 24656: u64 [a2 + 1424] = 0\n 24660: a0 = 0xa7a9536d00000000\n 24670: u64 [a2 + 0x5a0] = a0\n 24674: a1 = s1 + 0x1600\n 24678: u64 [a2 + 1416] = 0\n 24682: a0 = 0\n 24684: ra = 0x3b2\n 24688: jump @9\n      : @922 (gas: 15)\n 24691: a2 = 0xffffffff\n 24701: u64 [s1 + 0xc8] = a2\n 24705: a3 = s1 + 0x1078\n 24709: a2 = u64 [a3 + 0x6b8]\n 24713: a3 = u64 [a3 + 0x6c0]\n 24717: a1 = a1 | 0x1\n 24720: a4 = s1 + 0x2078\n 24724: a5 = a4 + 0x400\n 24728: u64 [a5 + 0x48] = a0\n 24731: u64 [a5 + 0x58] = a2\n 24734: u64 [a5 + 0x50] = a1\n 24737: u64 [a5 + 0x60] = a3\n 24740: a1 = s1 + 0x24c0\n 24744: a0 = u64 [s1 + 0xe0]\n 24748: ra = 908, jump @12\n      : @923 [@dyn 454] (gas: 6)\n 24754: a0 = u64 [s1 + 0xd8]\n 24758: ra = 0x38e\n 24762: ecalli 4 // 'caller'\n 24764: a2 = u64 [s1 + 0xe8]\n 24768: t0 = 0x390\n 24772: jump @1240\n      : @924 [@dyn 455] (gas: 2)\n 24775: a2 = u64 [s1 + 0xe8]\n 24779: t0 = 912, jump @1240\n      : @925 [@dyn 456] (gas: 8)\n 24785: u64 [a2 + 1664] = 0\n 24789: a4 = a2 + 0x600\n 24793: u64 [a4 + 0x78] = a1\n 24796: u64 [a4 + 0x70] = a0\n 24799: a1 = s1 + 0x16e0\n 24803: u64 [a4 + 0x68] = a3\n 24806: a0 = 0\n 24808: ra = 914, jump @9\n      : @926 [@dyn 457] (gas: 3)\n 24814: t0 = 0x394\n 24818: a1 = s1 + 0x1078\n 24822: fallthrough\n      : @927 [@dyn 458] (gas: 8)\n 24823: u64 [a1 + 1632] = 0\n 24827: u64 [a1 + 1624] = 0\n 24831: u64 [a1 + 1608] = 0x2\n 24836: a2 = a1\n 24838: a0 = 0x20\n 24841: a1 = s1 + 0x16c0\n 24845: u64 [a2 + 1616] = 0\n 24849: ra = 918, jump @9\n      : @928 [@dyn 459] (gas: 7)\n 24855: a0 = sp + 0xffffffffffffffe0\n 24858: a0 = a0 & 0xffffffffffffffe0\n 24861: u64 [s1 + 0xe0] = a0\n 24865: sp = a0\n 24867: a0 = u64 [s1 + 0xf8]\n 24871: a0 = i32 [a0]\n 24873: jump @930 if a0 >u 63\n      : @929 (gas: 3)\n 24877: a1 = u64 [s1 + 0xf8]\n 24881: u32 [a1 + 0] = 0x40\n 24884: fallthrough\n      : @930 (gas: 4)\n 24885: a0 = sp + 0xffffffffffffffe0\n 24888: a0 = a0 & 0xffffffffffffffe0\n 24891: u64 [s1 + 0xf8] = a0\n 24895: t0 = 920, jump @1259\n      : @931 [@dyn 460] (gas: 5)\n 24901: ra = 0x39a\n 24905: ecalli 9 // 'hash_keccak_256'\n 24907: a3 = u64 [s1 + 0xf8]\n 24911: t0 = 0x39c\n 24915: jump @1253\n      : @932 [@dyn 461] (gas: 2)\n 24918: a3 = u64 [s1 + 0xf8]\n 24922: t0 = 924, jump @1253\n      : @933 [@dyn 462] (gas: 7)\n 24928: a1 = u64 [s1 + 0xe0]\n 24932: u64 [a1] = a4\n 24934: u64 [a1 + 0x8] = a5\n 24937: u64 [a1 + 0x10] = a2\n 24940: u64 [a1 + 0x18] = a0\n 24943: a0 = s1 + 0x16a0\n 24947: ra = 926, jump @11\n      : @934 [@dyn 463] (gas: 9)\n 24953: a0 = s1 + 0x1078\n 24957: a0 = u64 [a0 + 0x628]\n 24961: a1 = u64 [s1 + 0xc8]\n 24965: a0 = a0 + a1\n 24968: a0 = a0 & a1\n 24971: u64 [s1 + 0xf8] = a0\n 24975: a0 = s1 + 0x1680\n 24979: a1 = u64 [s1 + 0xe0]\n 24983: ra = 928, jump @11\n      : @935 [@dyn 464] (gas: 18)\n 24989: a3 = s1 + 0x1078\n 24993: a0 = u32 [a3 + 0x60c]\n 24997: a0 = a0 << 0x20\n 25000: a4 = a3 + 0x600\n 25004: a1 = u64 [a4 + 0x20]\n 25007: a2 = u64 [a4 + 0x18]\n 25010: a3 = u64 [a4 + 0x10]\n 25013: a4 = u64 [s1 + 0xf8]\n 25017: a0 = a0 | a4\n 25020: a4 = s1 + 0x2078\n 25024: a5 = a4 + 0x400\n 25028: u64 [a5 + 0x80] = a1\n 25032: u64 [a5 + 0x78] = a2\n 25035: u64 [a5 + 0x70] = a3\n 25038: u64 [a5 + 0x68] = a0\n 25041: a1 = s1 + 0x24e0\n 25045: a0 = u64 [s1 + 0xe0]\n 25049: ra = 930, jump @12\n      : @936 [@dyn 465] (gas: 6)\n 25055: a0 = u64 [s1 + 0xd8]\n 25059: ra = 0x3a4\n 25063: ecalli 4 // 'caller'\n 25065: a2 = u64 [s1 + 0xe8]\n 25069: t0 = 0x3a6\n 25073: jump @1257\n      : @937 [@dyn 466] (gas: 2)\n 25076: a2 = u64 [s1 + 0xe8]\n 25080: t0 = 934, jump @1257\n      : @938 [@dyn 467] (gas: 31)\n 25086: t0 = a1 | a0\n 25089: a3 = a3 >> 0x20\n 25092: a2 = reverse a2\n 25094: a1 = a2 << 0x20\n 25097: a1 = a1 | a3\n 25100: a2 = a2 >> 0x20\n 25103: a3 = u64 [s1 + 0xd0]\n 25107: a0 = s1 + 0x1078\n 25111: u64 [a0 + 0x5a8] = a3\n 25115: a3 = u64 [0x20040]\n 25120: a4 = u64 [0x20048]\n 25125: a5 = u64 [0x20050]\n 25130: u64 [a0 + 0x600] = a3\n 25134: u64 [a0 + 0x5f8] = a4\n 25138: u64 [a0 + 1472] = 0\n 25142: a4 = a0 + 0x500\n 25146: u64 [a4 + 0xf0] = a5\n 25150: a3 = u64 [0x20058]\n 25155: u64 [a0 + 1464] = 0\n 25159: u64 [a0 + 1456] = 0\n 25163: u64 [a0 + 1504] = 0\n 25167: u64 [a4 + 0xe8] = a3\n 25171: u64 [a4 + 0xd8] = a2\n 25175: u64 [a4 + 0xd0] = a1\n 25179: a2 = s1 + 0x1660\n 25183: a3 = s1 + 0x1640\n 25187: a4 = s1 + 0x1620\n 25191: u64 [a0 + 0x5c8] = t0\n 25195: a0 = 0\n 25197: a1 = 0\n 25199: ra = 936, jump @14\n      : @939 [@dyn 468] (gas: 1)\n 25205: jump @977\n      : @940 (gas: 9)\n 25208: a2 = s1 + 0x1078\n 25212: u64 [a2 + 56] = 0\n 25215: u64 [a2 + 48] = 0\n 25218: a0 = 0xcf114bd900000000\n 25228: u64 [a2 + 0x40] = a0\n 25231: a1 = s1 + 0x10a0\n 25235: u64 [a2 + 40] = 0\n 25238: a0 = 0\n 25240: ra = 938, jump @9\n      : @941 [@dyn 469] (gas: 2)\n 25246: a1 = i32 [0x20150]\n 25251: jump @943 if a1 >u 31\n      : @942 (gas: 3)\n 25255: u32 [0x20150] = 0x20\n 25261: a1 = 0x20160\n 25266: jump @721\n      : @943 (gas: 2)\n 25269: a1 = 0x20160\n 25274: jump @721\n      : @944 (gas: 3)\n 25277: t0 = 0x3ac\n 25281: a2 = s1 + 0x1078\n 25285: fallthrough\n      : @945 [@dyn 470] (gas: 8)\n 25286: u64 [a2 + 1048] = 0\n 25290: u64 [a2 + 1040] = 0\n 25294: a0 = 0xd5b25b6300000000\n 25304: u64 [a2 + 0x420] = a0\n 25308: a1 = s1 + 0x1480\n 25312: u64 [a2 + 1032] = 0\n 25316: a0 = 0\n 25318: ra = 942, jump @9\n      : @946 [@dyn 471] (gas: 2)\n 25324: a1 = i32 [0x20150]\n 25329: jump @948 if a1 >u 31\n      : @947 (gas: 3)\n 25333: u32 [0x20150] = 0x20\n 25339: a1 = 0x20160\n 25344: jump @721\n      : @948 (gas: 2)\n 25347: a1 = 0x20160\n 25352: jump @721\n      : @949 (gas: 3)\n 25355: t0 = 0x3b0\n 25359: a2 = s1 + 0x1078\n 25363: fallthrough\n      : @950 [@dyn 472] (gas: 9)\n 25364: u64 [a2 + 856] = 0\n 25368: u64 [a2 + 848] = 0\n 25372: a0 = 0xa7a9536d00000000\n 25382: u64 [a2 + 0x360] = a0\n 25386: a1 = s1 + 0x13c0\n 25390: u64 [a2 + 840] = 0\n 25394: a0 = 0\n 25396: ra = 0x3b2\n 25400: jump @9\n      : @951 (gas: 9)\n 25403: a2 = s1 + 0x1078\n 25407: u64 [a2 + 184] = 0\n 25411: u64 [a2 + 176] = 0\n 25415: a0 = 0xafa4e2b600000000\n 25425: u64 [a2 + 0xc0] = a0\n 25429: a1 = s1 + 0x1120\n 25433: u64 [a2 + 168] = 0\n 25437: a0 = 0\n 25439: ra = 946, jump @9\n      : @952 [@dyn 473] (gas: 3)\n 25445: a0 = u64 [s1 + 0xf8]\n 25449: a0 = i32 [a0]\n 25451: jump @954 if a0 >u 31\n      : @953 (gas: 3)\n 25455: a1 = u64 [s1 + 0xf8]\n 25459: u32 [a1 + 0] = 0x20\n 25462: fallthrough\n      : @954 (gas: 5)\n 25463: a0 = 0x1\n 25466: a2 = 0x4\n 25469: a1 = u64 [s1 + 0xf0]\n 25473: ecalli 14 // 'seal_return'\n 25475: fallthrough\n      : @955 (gas: 6)\n 25476: a0 = u64 [s1 + 0xb8]\n 25480: ra = 0x3b4\n 25484: ecalli 4 // 'caller'\n 25486: a2 = u64 [s1 + 0xe0]\n 25490: t0 = 0x3b6\n 25494: jump @1240\n      : @956 [@dyn 474] (gas: 2)\n 25497: a2 = u64 [s1 + 0xe0]\n 25501: t0 = 950, jump @1240\n      : @957 [@dyn 475] (gas: 8)\n 25507: u64 [a2 + 480] = 0\n 25511: a4 = a2 + 0x100\n 25515: u64 [a4 + 0xd8] = a1\n 25519: u64 [a4 + 0xd0] = a0\n 25523: a1 = s1 + 0x1240\n 25527: u64 [a4 + 0xc8] = a3\n 25531: a0 = 0\n 25533: ra = 952, jump @9\n      : @958 [@dyn 476] (gas: 3)\n 25539: t0 = 0x3ba\n 25543: a1 = s1 + 0x1078\n 25547: fallthrough\n      : @959 [@dyn 477] (gas: 8)\n 25548: u64 [a1 + 448] = 0\n 25552: u64 [a1 + 440] = 0\n 25556: u64 [a1 + 424] = 0x6\n 25561: a2 = a1\n 25563: a0 = 0x20\n 25566: a1 = s1 + 0x1220\n 25570: u64 [a2 + 432] = 0\n 25574: ra = 956, jump @9\n      : @960 [@dyn 478] (gas: 3)\n 25580: a0 = u64 [s1 + 0xf8]\n 25584: a0 = i32 [a0]\n 25586: jump @962 if a0 >u 63\n      : @961 (gas: 3)\n 25590: a1 = u64 [s1 + 0xf8]\n 25594: u32 [a1 + 0] = 0x40\n 25597: fallthrough\n      : @962 (gas: 4)\n 25598: a0 = sp + 0xffffffffffffffe0\n 25601: a0 = a0 & 0xffffffffffffffe0\n 25604: u64 [s1 + 0xa8] = a0\n 25608: t0 = 958, jump @1259\n      : @963 [@dyn 479] (gas: 4)\n 25614: ra = 0x3c0\n 25618: ecalli 9 // 'hash_keccak_256'\n 25620: t0 = 0x3c2\n 25624: jump @1243\n      : @964 [@dyn 480] (gas: 1)\n 25627: t0 = 962, jump @1243\n      : @965 [@dyn 481] (gas: 8)\n 25633: u64 [a2 + 416] = 0\n 25637: u64 [a2 + 408] = 0\n 25641: u64 [a2 + 400] = 0\n 25645: a1 = s1 + 0x1200\n 25649: a0 = u64 [s1 + 0xe8]\n 25653: u64 [a2 + 0x188] = a0\n 25657: a0 = 0\n 25659: ra = 964, jump @9\n      : @966 [@dyn 482] (gas: 14)\n 25665: a0 = u64 [s1 + 0x88]\n 25669: a1 = s1 + 0x1078\n 25673: a2 = a1 + 0x100\n 25677: u64 [a2 + 0x80] = a0\n 25681: a0 = u64 [s1 + 0x90]\n 25685: u64 [a2 + 0x78] = a0\n 25688: a0 = u64 [s1 + 0x98]\n 25692: u64 [a2 + 0x70] = a0\n 25695: a3 = a1\n 25697: a0 = 0x20\n 25700: a1 = s1 + 0x11e0\n 25704: a2 = u64 [s1 + 0xa0]\n 25708: u64 [a3 + 0x168] = a2\n 25712: ra = 966, jump @9\n      : @967 [@dyn 483] (gas: 3)\n 25718: a0 = u64 [s1 + 0xf8]\n 25722: a0 = i32 [a0]\n 25724: jump @969 if a0 >u 63\n      : @968 (gas: 3)\n 25728: a0 = u64 [s1 + 0xf8]\n 25732: u32 [a0 + 0] = 0x40\n 25735: fallthrough\n      : @969 (gas: 4)\n 25736: a0 = sp + 0xffffffffffffffe0\n 25739: a0 = a0 & 0xffffffffffffffe0\n 25742: u64 [s1 + 0xf8] = a0\n 25746: t0 = 968, jump @1259\n      : @970 [@dyn 484] (gas: 5)\n 25752: ra = 0x3ca\n 25756: ecalli 9 // 'hash_keccak_256'\n 25758: a3 = u64 [s1 + 0xf8]\n 25762: t0 = 0x3cc\n 25766: jump @1249\n      : @971 [@dyn 485] (gas: 2)\n 25769: a3 = u64 [s1 + 0xf8]\n 25773: t0 = 972, jump @1249\n      : @972 [@dyn 486] (gas: 3)\n 25779: i32 a0 = a0 + 0x1c0\n 25783: a0 = a0 + s1\n 25786: ra = 974, jump @11\n      : @973 [@dyn 487] (gas: 23)\n 25792: a3 = s1 + 0x1078\n 25796: a4 = a3 + 0x100\n 25800: a0 = u64 [a4 + 0x48]\n 25803: a1 = u64 [a4 + 0x50]\n 25806: a2 = u64 [a4 + 0x58]\n 25809: a3 = u64 [a4 + 0x60]\n 25812: a4 = u64 [s1 + 0xc8]\n 25816: a0 = a0 | a4\n 25819: a4 = u64 [s1 + 0xc0]\n 25823: a1 = a1 | a4\n 25826: a4 = u64 [s1 + 0xd8]\n 25830: a2 = a2 | a4\n 25833: a4 = u64 [s1 + 0xd0]\n 25837: a3 = a3 | a4\n 25840: a4 = s1 + 0x2078\n 25844: u64 [a4 + 0x400] = a3\n 25848: a3 = a4 + 0x300\n 25852: u64 [a3 + 0xf8] = a2\n 25856: u64 [a3 + 0xf0] = a1\n 25860: u64 [a3 + 0xe8] = a0\n 25864: a1 = s1 + 0x2460\n 25868: a0 = u64 [s1 + 0xa8]\n 25872: ra = 976, jump @12\n      : @974 [@dyn 488] (gas: 6)\n 25878: a0 = u64 [s1 + 0xb8]\n 25882: ra = 0x3d2\n 25886: ecalli 4 // 'caller'\n 25888: a2 = u64 [s1 + 0xe0]\n 25892: t0 = 0x3d4\n 25896: jump @1262\n      : @975 [@dyn 489] (gas: 2)\n 25899: a2 = u64 [s1 + 0xe0]\n 25903: t0 = 980, jump @1262\n      : @976 [@dyn 490] (gas: 32)\n 25909: a5 = s1 + 0x1078\n 25913: u64 [a5 + 224] = 0\n 25917: u64 [a5 + 216] = 0\n 25921: u64 [a5 + 208] = 0\n 25925: a3 = u64 [s1 + 0xe8]\n 25929: u64 [a5 + 0xc8] = a3\n 25933: a3 = u64 [s1 + 0xb0]\n 25937: u64 [a5 + 0xe8] = a3\n 25941: a3 = u64 [0x20060]\n 25946: a4 = u64 [0x20068]\n 25951: u64 [a5 + 256] = 0\n 25955: u64 [a5 + 248] = 0\n 25959: u64 [a5 + 0x140] = a3\n 25963: u64 [a5 + 0x138] = a4\n 25967: a3 = u64 [0x20070]\n 25972: a4 = u64 [0x20078]\n 25977: u64 [a5 + 240] = 0\n 25981: u64 [a5 + 288] = 0\n 25985: u64 [a5 + 0x130] = a3\n 25989: a3 = a5 + 0x100\n 25993: u64 [a3 + 0x28] = a4\n 25996: u64 [a3 + 0x18] = a2\n 25999: u64 [a3 + 0x10] = a1\n 26002: a1 = a5\n 26004: a2 = s1 + 0x11a0\n 26008: a3 = s1 + 0x1180\n 26012: a4 = s1 + 0x1160\n 26016: a5 = s1 + 0x1140\n 26020: u64 [a1 + 0x108] = a0\n 26024: a0 = 0\n 26026: a1 = 0\n 26028: ra = 982, jump @17\n      : @977 [@dyn 491] (gas: 5)\n 26034: a0 = 0\n 26036: a1 = u64 [s1 + 0xf0]\n 26040: a2 = 0\n 26042: ecalli 14 // 'seal_return'\n 26044: jump @1011\n      : @978 (gas: 1)\n 26047: jump @1008 if a0 != 1746437986\n      : @979 (gas: 11)\n 26055: a0 = s1 + 0x2078\n 26059: u64 [a0 + 672] = 0\n 26063: u64 [a0 + 664] = 0\n 26067: u64 [a0 + 656] = 0\n 26071: u64 [a0 + 648] = 0\n 26075: a0 = s1 + 0x2000\n 26079: i32 a0 = a0 + 0x300\n 26083: ra = 0x3d8\n 26087: ecalli 17 // 'value_transferred'\n 26089: t0 = 0x3da\n 26093: jump @1272\n      : @980 [@dyn 492] (gas: 1)\n 26096: t0 = 986, jump @1272\n      : @981 [@dyn 493] (gas: 1)\n 26102: t0 = 988, jump @1279\n      : @982 [@dyn 494] (gas: 1)\n 26108: jump @1012 if a0 == 0\n      : @983 (gas: 6)\n 26112: a1 = 0x20160\n 26117: i32 a1 = a1 + 0\n 26119: a0 = 0x1\n 26122: a2 = 0\n 26124: ecalli 14 // 'seal_return'\n 26126: jump @1011\n      : @984 (gas: 3)\n 26129: a0 = u64 [s1 + 0xf8]\n 26133: a0 = i32 [a0]\n 26135: jump @1014 if a0 >u 35\n      : @985 (gas: 6)\n 26140: a1 = 0x20160\n 26145: i32 a1 = a1 + 0\n 26147: a0 = 0x1\n 26150: a2 = 0\n 26152: ecalli 14 // 'seal_return'\n 26154: jump @1011\n      : @986 (gas: 4)\n 26157: a0 = s1 + 0x180\n 26161: ra = 0x3de\n 26165: t0 = 0x416\n 26169: jump @1286\n      : @987 [@dyn 495] (gas: 10)\n 26172: a0 = u64 [s1 + 0x180]\n 26176: a1 = u64 [s1 + 0x188]\n 26180: a2 = u32 [s1 + 0x190]\n 26184: u64 [s1 + 376] = 0\n 26188: u64 [s1 + 0x170] = a2\n 26192: u64 [s1 + 0x168] = a1\n 26196: a1 = s1 + 0x160\n 26200: u64 [s1 + 0x160] = a0\n 26204: a0 = 0\n 26206: ra = 992, jump @9\n      : @988 [@dyn 496] (gas: 7)\n 26212: u64 [s1 + 344] = 0\n 26216: u64 [s1 + 336] = 0\n 26220: u64 [s1 + 320] = 0x4\n 26225: a0 = 0x20\n 26228: a1 = s1 + 0x140\n 26232: u64 [s1 + 328] = 0\n 26236: ra = 994, jump @9\n      : @989 [@dyn 497] (gas: 4)\n 26242: a0 = 0x20150\n 26247: u64 [s1 + 0xf8] = a0\n 26251: a0 = i32 [0x20150]\n 26256: jump @991 if a0 >u 63\n      : @990 (gas: 3)\n 26260: a1 = u64 [s1 + 0xf8]\n 26264: u32 [a1 + 0] = 0x40\n 26267: fallthrough\n      : @991 (gas: 14)\n 26268: a0 = sp + 0xffffffffffffffe0\n 26271: a2 = a0 & 0xffffffffffffffe0\n 26274: u64 [s1 + 0xe8] = a2\n 26278: sp = a2\n 26280: a0 = 0x20160\n 26285: u64 [s1 + 0xf0] = a0\n 26289: i32 a0 = a0 + 0\n 26291: i32 a2 = a2 + 0\n 26293: a1 = 0x40\n 26296: ra = 0x3e4\n 26300: ecalli 9 // 'hash_keccak_256'\n 26302: a3 = u64 [s1 + 0xe8]\n 26306: t0 = 0x3e6\n 26310: jump @1275\n      : @992 [@dyn 498] (gas: 2)\n 26313: a3 = u64 [s1 + 0xe8]\n 26317: t0 = 998, jump @1275\n      : @993 [@dyn 499] (gas: 10)\n 26323: i32 a4 = a4 + 0xfffffffffffff878\n 26327: a4 = a4 + s1\n 26330: u64 [a4 + 0x600] = a3\n 26334: a3 = a4 + 0x500\n 26338: u64 [a3 + 0xf8] = a2\n 26342: u64 [a3 + 0xf0] = a1\n 26346: u64 [a3 + 0xe8] = a0\n 26350: a0 = s1 + 0x120\n 26354: a1 = s1 + 0x1e60\n 26358: ra = 1000, jump @11\n      : @994 [@dyn 500] (gas: 8)\n 26364: a0 = u32 [s1 + 0x120]\n 26368: u64 [s1 + 280] = 0\n 26372: u64 [s1 + 272] = 0\n 26376: u64 [s1 + 0x100] = a0\n 26380: a0 = 0x80\n 26384: a1 = s1 + 0x100\n 26388: u64 [s1 + 264] = 0\n 26392: ra = 1002, jump @9\n      : @995 [@dyn 501] (gas: 3)\n 26398: a0 = u64 [s1 + 0xf8]\n 26402: a0 = i32 [a0]\n 26404: jump @997 if a0 >u 159\n      : @996 (gas: 5)\n 26409: a1 = u64 [s1 + 0xf8]\n 26413: u32 [a1 + 0] = 0xa0\n 26417: a0 = u64 [s1 + 0xf0]\n 26421: i32 a1 = a0 + 0x80\n 26425: jump @378\n      : @997 (gas: 3)\n 26428: a0 = u64 [s1 + 0xf0]\n 26432: i32 a1 = a0 + 0x80\n 26436: jump @378\n      : @998 (gas: 3)\n 26439: t0 = 0x3ec\n 26443: a2 = s1 + 0x1878\n 26447: fallthrough\n      : @999 [@dyn 502] (gas: 8)\n 26448: u64 [a2 + 1336] = 0\n 26452: u64 [a2 + 1328] = 0\n 26456: a0 = 0x5fc483c500000000\n 26466: u64 [a2 + 0x540] = a0\n 26470: a1 = s1 + 0x1da0\n 26474: u64 [a2 + 1320] = 0\n 26478: a0 = 0\n 26480: ra = 1006, jump @9\n      : @1000 [@dyn 503] (gas: 2)\n 26486: a1 = i32 [0x20150]\n 26491: jump @1002 if a1 >u 31\n      : @1001 (gas: 3)\n 26495: u32 [0x20150] = 0x20\n 26501: a1 = 0x20160\n 26506: jump @721\n      : @1002 (gas: 2)\n 26509: a1 = 0x20160\n 26514: jump @721\n      : @1003 (gas: 3)\n 26517: t0 = 0x3f0\n 26521: a2 = s1 + 0x1878\n 26525: fallthrough\n      : @1004 [@dyn 504] (gas: 8)\n 26526: u64 [a2 + 1304] = 0\n 26530: u64 [a2 + 1296] = 0\n 26534: a0 = 0x14bcf5c800000000\n 26544: u64 [a2 + 0x520] = a0\n 26548: a1 = s1 + 0x1d80\n 26552: u64 [a2 + 1288] = 0\n 26556: a0 = 0\n 26558: ra = 1010, jump @9\n      : @1005 [@dyn 505] (gas: 2)\n 26564: a1 = i32 [0x20150]\n 26569: jump @1007 if a1 >u 31\n      : @1006 (gas: 3)\n 26573: u32 [0x20150] = 0x20\n 26579: a1 = 0x20160\n 26584: jump @721\n      : @1007 (gas: 2)\n 26587: a1 = 0x20160\n 26592: jump @721\n      : @1008 (gas: 3)\n 26595: a0 = u64 [s1 + 0xf8]\n 26599: a0 = i32 [a0]\n 26601: fallthrough\n      : @1009 (gas: 1)\n 26602: jump @1011 if a0 == 0\n      : @1010 (gas: 6)\n 26605: a1 = 0x20160\n 26610: i32 a1 = a1 + 0\n 26612: a0 = 0x1\n 26615: a2 = 0\n 26617: ecalli 14 // 'seal_return'\n 26619: fallthrough\n      : @1011 (gas: 6)\n 26620: a1 = 0x20160\n 26625: i32 a1 = a1 + 0\n 26627: a0 = 0\n 26629: a2 = 0\n 26631: ecalli 14 // 'seal_return'\n 26633: jump @1011\n      : @1012 (gas: 3)\n 26635: a0 = u64 [s1 + 0xf8]\n 26639: a0 = i32 [a0]\n 26641: jump @1024 if a0 >u 99\n      : @1013 (gas: 6)\n 26646: a1 = 0x20160\n 26651: i32 a1 = a1 + 0\n 26653: a0 = 0x1\n 26656: a2 = 0\n 26658: ecalli 14 // 'seal_return'\n 26660: jump @1011\n      : @1014 (gas: 4)\n 26662: a0 = s1 + 0x680\n 26666: ra = 0x3f4\n 26670: t0 = 0x416\n 26674: jump @1286\n      : @1015 [@dyn 506] (gas: 14)\n 26677: a0 = u64 [s1 + 0x690]\n 26681: u64 [s1 + 0xe8] = a0\n 26685: a0 = u64 [s1 + 0x688]\n 26689: u64 [s1 + 0xf0] = a0\n 26693: a0 = u64 [s1 + 0x680]\n 26697: u64 [s1 + 0xf8] = a0\n 26701: a1 = s1 + 0x1878\n 26705: u64 [a1 + 1856] = 0\n 26709: u64 [a1 + 1848] = 0\n 26713: u64 [a1 + 1840] = 0\n 26717: u64 [a1 + 1832] = 0x1\n 26722: a0 = s1 + 0x660\n 26726: a1 = s1 + 0x1fa0\n 26730: ra = 1014, jump @11\n      : @1016 [@dyn 507] (gas: 14)\n 26736: a0 = u64 [s1 + 0x668]\n 26740: u64 [s1 + 0xe0] = a0\n 26744: a0 = u64 [s1 + 0x660]\n 26748: u64 [s1 + 0xd8] = a0\n 26752: a0 = u32 [s1 + 0x670]\n 26756: u64 [s1 + 0xd0] = a0\n 26760: a0 = 0x30160\n 26765: u64 [s1 + 0xc8] = a0\n 26769: i32 a0 = a0 + 0\n 26771: ra = 0x3f8\n 26775: ecalli 4 // 'caller'\n 26777: a2 = u64 [s1 + 0xc8]\n 26781: t0 = 0x3fa\n 26785: jump @1261\n      : @1017 [@dyn 508] (gas: 2)\n 26788: a2 = u64 [s1 + 0xc8]\n 26792: t0 = 1018, jump @1261\n      : @1018 [@dyn 509] (gas: 9)\n 26798: a2 = u64 [s1 + 0xd0]\n 26802: a1 = a1 ^ a2\n 26805: a2 = u64 [s1 + 0xd8]\n 26809: a0 = a0 ^ a2\n 26812: a0 = a0 | a1\n 26815: a1 = u64 [s1 + 0xe0]\n 26819: a1 = a1 ^ a3\n 26822: a0 = a0 | a1\n 26825: jump @1029 if a0 != 0\n      : @1019 (gas: 9)\n 26829: a0 = u64 [s1 + 0xe8]\n 26833: a0 = a0 << 0x20\n 26836: a2 = a0 >> 0x20\n 26839: a0 = u64 [s1 + 0xf8]\n 26843: a1 = u64 [s1 + 0xf0]\n 26847: a0 = a0 | a1\n 26850: u64 [s1 + 0xe8] = a2\n 26854: a0 = a0 | a2\n 26857: jump @1033 if a0 == 0\n      : @1020 (gas: 10)\n 26861: a0 = 0xffffffff\n 26871: u64 [s1 + 0xe0] = a0\n 26875: a0 = s1 + 0x1878\n 26879: u64 [a0 + 1888] = 0\n 26883: u64 [a0 + 1880] = 0\n 26887: u64 [a0 + 1872] = 0\n 26891: u64 [a0 + 1864] = 0\n 26895: a0 = s1 + 0x620\n 26899: a1 = s1 + 0x1fc0\n 26903: ra = 1020, jump @11\n      : @1021 [@dyn 510] (gas: 26)\n 26909: a1 = u64 [s1 + 0x630]\n 26913: u64 [s1 + 0xc8] = a1\n 26917: a0 = u64 [s1 + 0x628]\n 26921: u64 [s1 + 0xd8] = a0\n 26925: a0 = u64 [s1 + 0x620]\n 26929: u64 [s1 + 0xd0] = a0\n 26933: a0 = u64 [s1 + 0x638]\n 26937: a1 = a1 >> 0x20\n 26940: a1 = a1 << 0x20\n 26943: a2 = u64 [s1 + 0xe8]\n 26947: a1 = a1 | a2\n 26950: a2 = s1 + 0x1878\n 26954: u64 [a2 + 1920] = 0\n 26958: u64 [a2 + 1912] = 0\n 26962: u64 [a2 + 1904] = 0\n 26966: u64 [a2 + 1896] = 0\n 26970: a3 = u64 [s1 + 0xf0]\n 26974: a4 = a2 + 0x700\n 26978: u64 [a4 + 0x90] = a3\n 26982: a3 = u64 [s1 + 0xf8]\n 26986: u64 [a4 + 0x88] = a3\n 26990: u64 [a4 + 0xa0] = a0\n 26994: u64 [a4 + 0x98] = a1\n 26998: a0 = s1 + 0x1fe0\n 27002: a1 = s1 + 0x2000\n 27006: ra = 1022, jump @12\n      : @1022 [@dyn 511] (gas: 34)\n 27012: a0 = u64 [s1 + 0xd0]\n 27016: a0 = a0 & 0xffffffffffffffff\n 27019: a2 = u64 [s1 + 0xd8]\n 27023: a1 = a2 & 0xffffffffffffffff\n 27026: a2 = u64 [s1 + 0xe0]\n 27030: a3 = u64 [s1 + 0xc8]\n 27034: a2 = a2 & a3\n 27037: u64 [s1 + 1496] = 0\n 27041: a3 = u64 [s1 + 0xe8]\n 27045: a4 = s1 + 0x500\n 27049: u64 [a4 + 0xd0] = a3\n 27053: a3 = u64 [s1 + 0xf0]\n 27057: u64 [a4 + 0xc8] = a3\n 27061: a3 = u64 [s1 + 0xf8]\n 27065: u64 [a4 + 0xc0] = a3\n 27069: u64 [s1 + 1528] = 0\n 27073: u64 [a4 + 0xf0] = a2\n 27077: u64 [a4 + 0xe8] = a1\n 27081: a1 = u64 [0x200d8]\n 27086: a2 = u64 [0x200e0]\n 27091: a3 = u64 [0x200e8]\n 27096: u64 [a4 + 0xe0] = a0\n 27100: a5 = s1 + 0x600\n 27104: u64 [a5 + 0x18] = a1\n 27107: u64 [a5 + 0x10] = a2\n 27110: u64 [a5 + 0x8] = a3\n 27113: a0 = u64 [0x200f0]\n 27118: a2 = s1 + 0x600\n 27122: a3 = s1 + 0x5e0\n 27126: a4 = s1 + 0x5c0\n 27130: u64 [a5] = a0\n 27132: a0 = 0\n 27134: a1 = 0\n 27136: ra = 1024, jump @14\n      : @1023 [@dyn 512] (gas: 6)\n 27142: a1 = 0x20160\n 27147: i32 a1 = a1 + 0\n 27149: a0 = 0\n 27151: a2 = 0\n 27153: ecalli 14 // 'seal_return'\n 27155: jump @1011\n      : @1024 (gas: 5)\n 27158: a0 = s1 + 0x7ff\n 27162: a0 = a0 + 0x661\n 27166: ra = 0x402\n 27170: t0 = 0x416\n 27174: jump @1286\n      : @1025 [@dyn 513] (gas: 16)\n 27177: a1 = s1 + 0x7ff\n 27181: a1 = a1 + 0x79\n 27184: a2 = a1 + 0x500\n 27188: a0 = u64 [a2 + 0xe8]\n 27192: u64 [s1 + 0xf8] = a0\n 27196: a0 = u64 [a2 + 0xf0]\n 27200: u64 [s1 + 0xf0] = a0\n 27204: a0 = u64 [a2 + 0xf8]\n 27208: u64 [s1 + 0xe8] = a0\n 27212: a0 = u64 [a1 + 0x600]\n 27216: u64 [s1 + 0xe0] = a0\n 27220: a0 = s1 + 0x7ff\n 27224: a0 = a0 + 0x641\n 27228: ra = 0x404\n 27232: t0 = 0x420\n 27236: jump @1292\n      : @1026 [@dyn 514] (gas: 16)\n 27239: a1 = s1 + 0x7ff\n 27243: a1 = a1 + 0x79\n 27246: a2 = a1 + 0x500\n 27250: a0 = u64 [a2 + 0xc8]\n 27254: u64 [s1 + 0xd8] = a0\n 27258: a0 = u64 [a2 + 0xd0]\n 27262: u64 [s1 + 0xd0] = a0\n 27266: a0 = u64 [a2 + 0xd8]\n 27270: u64 [s1 + 0xc8] = a0\n 27274: a0 = u64 [a2 + 0xe0]\n 27278: u64 [s1 + 0xc0] = a0\n 27282: a0 = s1 + 0x7ff\n 27286: a0 = a0 + 0x621\n 27290: ra = 0x406\n 27294: t0 = 0x426\n 27298: jump @1292\n      : @1027 [@dyn 515] (gas: 34)\n 27301: a4 = s1 + 0x7ff\n 27305: a4 = a4 + 0x79\n 27308: a5 = a4 + 0x500\n 27312: a0 = u64 [a5 + 0xa8]\n 27316: a1 = u64 [a5 + 0xb0]\n 27320: a2 = u64 [a5 + 0xb8]\n 27324: a3 = u64 [a5 + 0xc0]\n 27328: u64 [a5 + 0x60] = a3\n 27331: u64 [a5 + 0x58] = a2\n 27334: u64 [a5 + 0x50] = a1\n 27337: u64 [a5 + 0x48] = a0\n 27340: a0 = u64 [s1 + 0xc0]\n 27344: u64 [a5 + 0x80] = a0\n 27348: a0 = u64 [s1 + 0xc8]\n 27352: u64 [a5 + 0x78] = a0\n 27355: a0 = u64 [s1 + 0xd0]\n 27359: u64 [a5 + 0x70] = a0\n 27362: a0 = u64 [s1 + 0xd8]\n 27366: u64 [a5 + 0x68] = a0\n 27369: a0 = u64 [s1 + 0xe0]\n 27373: u64 [a5 + 0xa0] = a0\n 27377: a0 = u64 [s1 + 0xe8]\n 27381: u64 [a5 + 0x98] = a0\n 27385: a0 = u64 [s1 + 0xf0]\n 27389: u64 [a5 + 0x90] = a0\n 27393: a0 = s1 + 0x7ff\n 27397: a0 = a0 + 0x601\n 27401: a1 = s1 + 0x7ff\n 27405: a1 = a1 + 0x5e1\n 27409: a2 = s1 + 0x7ff\n 27413: a2 = a2 + 0x5c1\n 27417: a3 = u64 [s1 + 0xf8]\n 27421: u64 [a5 + 0x88] = a3\n 27425: ra = 1032, jump @1081\n      : @1028 [@dyn 516] (gas: 6)\n 27431: a1 = 0x20160\n 27436: i32 a1 = a1 + 0\n 27438: a0 = 0\n 27440: a2 = 0\n 27442: ecalli 14 // 'seal_return'\n 27444: jump @1011\n      : @1029 (gas: 8)\n 27447: u64 [s1 + 1616] = 0\n 27451: u64 [s1 + 1608] = 0\n 27455: u64 [s1 + 1600] = 0\n 27459: a0 = 0x5fc483c500000000\n 27469: a1 = s1 + 0x640\n 27473: u64 [s1 + 0x658] = a0\n 27477: a0 = 0\n 27479: ra = 1034, jump @9\n      : @1030 [@dyn 517] (gas: 2)\n 27485: a1 = i32 [0x20150]\n 27490: jump @1032 if a1 >u 31\n      : @1031 (gas: 3)\n 27494: u32 [0x20150] = 0x20\n 27500: a1 = 0x20160\n 27505: jump @721\n      : @1032 (gas: 2)\n 27508: a1 = 0x20160\n 27513: jump @721\n      : @1033 (gas: 8)\n 27516: u64 [s1 + 1456] = 0\n 27520: u64 [s1 + 1448] = 0\n 27524: u64 [s1 + 1440] = 0\n 27528: a0 = 0xdd75059200000000\n 27538: a1 = s1 + 0x5a0\n 27542: u64 [s1 + 0x5b8] = a0\n 27546: a0 = 0\n 27548: ra = 1036, jump @9\n      : @1034 [@dyn 518] (gas: 2)\n 27554: a1 = i32 [0x20150]\n 27559: jump @1036 if a1 >u 31\n      : @1035 (gas: 3)\n 27563: u32 [0x20150] = 0x20\n 27569: a1 = 0x20160\n 27574: jump @721\n      : @1036 (gas: 2)\n 27577: a1 = 0x20160\n 27582: jump @721\n      : @1037 (gas: 18)\n 27585: sp = sp + 0xffffffffffffffc0\n 27588: u64 [sp + 0x38] = ra\n 27591: u64 [sp + 0x30] = s0\n 27594: u64 [sp + 0x28] = s1\n 27597: s0 = sp + 0x40\n 27600: sp = sp & 0xfffffffffffffff0\n 27603: a2 = u64 [a1 + 0x10]\n 27606: a3 = u64 [a1 + 0x18]\n 27609: a4 = u64 [a1 + 0x8]\n 27612: a1 = u64 [a1]\n 27614: a3 = a3 | a4\n 27617: a4 = a1 | a2\n 27620: a4 = a4 | a3\n 27623: a4 = a4 >> 0x20\n 27626: a2 = a2 | a3\n 27629: a2 = a2 << 0x20\n 27632: a2 = a2 | a4\n 27635: jump @1043 if a2 != 0\n      : @1038 (gas: 3)\n 27638: s1 = a0\n 27640: a0 = sp\n 27642: ra = 1038, jump @7\n      : @1039 [@dyn 519] (gas: 1)\n 27648: t0 = 1040, jump @1270\n      : @1040 [@dyn 520] (gas: 1)\n 27654: jump @1044 if a3 == 0\n      : @1041 (gas: 1)\n 27657: t0 = 1042, jump @1284\n      : @1042 [@dyn 521] (gas: 1)\n 27663: ret\n      : @1043 (gas: 1)\n 27665: trap\n      : @1044 (gas: 8)\n 27666: a1 = 0x20160\n 27671: i32 a1 = a1 + 0\n 27673: a0 = 0x1\n 27676: a2 = 0\n 27678: ra = 0x414\n 27682: ecalli 14 // 'seal_return'\n 27684: t0 = 0x416\n 27688: jump @1286\n      : @1045 [@dyn 522] (gas: 1)\n 27691: t0 = 1046, jump @1286\n      : @1046 [@dyn 523] (gas: 4)\n 27697: ra = 0x418\n 27701: ecalli 2 // 'call_data_load'\n 27703: t0 = 0x41a\n 27707: jump @1270\n      : @1047 [@dyn 524] (gas: 1)\n 27710: t0 = 1050, jump @1270\n      : @1048 [@dyn 525] (gas: 1)\n 27716: jump @1051 if a3 == 0\n      : @1049 (gas: 1)\n 27719: t0 = 1052, jump @1284\n      : @1050 [@dyn 526] (gas: 1)\n 27725: ret\n      : @1051 (gas: 8)\n 27727: a1 = 0x20160\n 27732: i32 a1 = a1 + 0\n 27734: a0 = 0x1\n 27737: a2 = 0\n 27739: ra = 0x41e\n 27743: ecalli 14 // 'seal_return'\n 27745: t0 = 0x420\n 27749: jump @1292\n      : @1052 [@dyn 527] (gas: 1)\n 27752: t0 = 1056, jump @1292\n      : @1053 [@dyn 528] (gas: 3)\n 27758: a1 = 0x24\n 27761: ecalli 2 // 'call_data_load'\n 27763: fallthrough\n      : @1054 (gas: 7)\n 27764: a0 = u64 [sp + 0x18]\n 27767: a1 = u64 [sp + 0x10]\n 27770: a2 = u64 [sp + 0x8]\n 27773: a3 = a1 | a0\n 27776: a4 = a2 <u 0x1\n 27779: a4 = 0 if a3 != 0\n 27781: jump @1057 if a4 == 0\n      : @1055 (gas: 2)\n 27784: a3 = u64 [sp]\n 27786: t0 = 1058, jump @1266\n      : @1056 [@dyn 529] (gas: 1)\n 27792: ret\n      : @1057 (gas: 8)\n 27794: a1 = 0x20160\n 27799: i32 a1 = a1 + 0\n 27801: a0 = 0x1\n 27804: a2 = 0\n 27806: ra = 0x424\n 27810: ecalli 14 // 'seal_return'\n 27812: t0 = 0x426\n 27816: jump @1292\n      : @1058 [@dyn 530] (gas: 1)\n 27819: t0 = 1062, jump @1292\n      : @1059 [@dyn 531] (gas: 5)\n 27825: a1 = 0x44\n 27828: ra = 0x428\n 27832: ecalli 2 // 'call_data_load'\n 27834: t0 = 0x42a\n 27838: jump @1278\n      : @1060 [@dyn 532] (gas: 1)\n 27841: t0 = 1066, jump @1278\n      : @1061 [@dyn 533] (gas: 1)\n 27847: jump @1064 if a4 != 0\n      : @1062 (gas: 1)\n 27850: t0 = 1068, jump @1266\n      : @1063 [@dyn 534] (gas: 1)\n 27856: ret\n      : @1064 (gas: 8)\n 27858: a1 = 0x20160\n 27863: i32 a1 = a1 + 0\n 27865: a0 = 0x1\n 27868: a2 = 0\n 27870: ra = 0x42e\n 27874: ecalli 14 // 'seal_return'\n 27876: t0 = 0x430\n 27880: jump @1286\n      : @1065 [@dyn 535] (gas: 1)\n 27883: t0 = 1072, jump @1286\n      : @1066 [@dyn 536] (gas: 4)\n 27889: ra = 0x432\n 27893: ecalli 2 // 'call_data_load'\n 27895: t0 = 0x434\n 27899: jump @1278\n      : @1067 [@dyn 537] (gas: 1)\n 27902: t0 = 1076, jump @1278\n      : @1068 [@dyn 538] (gas: 1)\n 27908: jump @1071 if a4 != 0\n      : @1069 (gas: 1)\n 27911: t0 = 1078, jump @1266\n      : @1070 [@dyn 539] (gas: 1)\n 27917: ret\n      : @1071 (gas: 7)\n 27919: a1 = 0x20160\n 27924: i32 a1 = a1 + 0\n 27926: a0 = 0x1\n 27929: a2 = 0\n 27931: ra = 0x438\n 27935: ecalli 14 // 'seal_return'\n 27937: fallthrough\n      : @1072 [@dyn 540] (gas: 46)\n 27938: sp = sp + 0xffffffffffffff70\n 27942: u64 [sp + 0x88] = ra\n 27946: u64 [sp + 0x80] = s0\n 27950: u64 [sp + 0x78] = s1\n 27953: s0 = sp + 0x90\n 27957: sp = sp & 0xfffffffffffffff0\n 27960: t0 = a0\n 27962: a2 = u64 [a1]\n 27964: t2 = u64 [a0 + 0x8]\n 27967: a5 = u64 [a1 + 0x8]\n 27970: t1 = u64 [a0]\n 27972: a3 = a2 + 0x1f\n 27975: ra = a3 <u a2\n 27978: a2 = a5 + ra\n 27981: a3 = a3 & 0xffffffffffffffe0\n 27984: u64 [sp + 0x8] = t1\n 27987: t1 = t1 + a3\n 27990: a4 = t1 <u a3\n 27993: a3 = a2 + t2\n 27996: a3 = a3 + a4\n 27999: s1 = a3 ^ a2\n 28002: a0 = a3 <u a2\n 28005: a0 = a4 if s1 == 0\n 28008: a4 = u64 [t0 + 0x18]\n 28011: a5 = a2 <u a5\n 28014: s1 = u64 [a1 + 0x10]\n 28017: t0 = u64 [t0 + 0x10]\n 28020: a1 = u64 [a1 + 0x18]\n 28023: a5 = ra if ra == 0\n 28026: a5 = a5 + s1\n 28029: s1 = a5 <u s1\n 28032: a2 = a5 + t0\n 28035: a0 = a0 + a2\n 28038: a5 = a2 <u a5\n 28041: a2 = a0 <u a2\n 28044: a1 = a1 + a4\n 28047: a1 = a1 + s1\n 28050: a1 = a1 + a5\n 28053: a5 = a1 + a2\n 28056: a1 = a5 >u 0\n 28058: a2 = a0 >u 0\n 28060: a2 = a1 if a5 != 0\n 28063: a1 = a0 | a5\n 28066: s1 = a3 >u 0\n 28068: s1 = a2 if a1 != 0\n 28071: jump @1076 if s1 != 0\n      : @1073 (gas: 13)\n 28074: a1 = u64 [sp + 0x8]\n 28077: a1 = t1 <u a1\n 28080: a2 = a3 ^ t2\n 28083: s1 = a3 <u t2\n 28086: s1 = a1 if a2 == 0\n 28089: a1 = a0 <u t0\n 28092: a2 = a5 ^ a4\n 28095: a4 = a5 <u a4\n 28098: a4 = a1 if a2 == 0\n 28101: a1 = a0 ^ t0\n 28104: a1 = a1 | a2\n 28107: a4 = s1 if a1 == 0\n 28110: jump @1076 if a4 != 0\n      : @1074 (gas: 7)\n 28113: u64 [sp + 0x50] = t1\n 28116: u64 [sp + 0x58] = a3\n 28119: u64 [sp + 0x60] = a0\n 28122: a0 = 0x40\n 28125: a1 = sp + 0x50\n 28128: u64 [sp + 0x68] = a5\n 28131: ra = 1082, jump @9\n      : @1075 [@dyn 541] (gas: 6)\n 28137: sp = s0 + 0xffffffffffffff70\n 28141: ra = u64 [sp + 0x88]\n 28145: s0 = u64 [sp + 0x80]\n 28149: s1 = u64 [sp + 0x78]\n 28152: sp = sp + 0x90\n 28156: ret\n      : @1076 (gas: 8)\n 28158: u64 [sp + 64] = 0\n 28161: u64 [sp + 56] = 0\n 28164: u64 [sp + 48] = 0\n 28167: a0 = 0x4e487b7100000000\n 28177: a1 = sp + 0x30\n 28180: u64 [sp + 0x48] = a0\n 28183: a0 = 0\n 28185: ra = 1084, jump @9\n      : @1077 [@dyn 542] (gas: 7)\n 28191: u64 [sp + 40] = 0\n 28194: u64 [sp + 32] = 0\n 28197: u64 [sp + 16] = 0x41\n 28201: a0 = 0x4\n 28204: a1 = sp + 0x10\n 28207: u64 [sp + 24] = 0\n 28210: ra = 1086, jump @9\n      : @1078 [@dyn 543] (gas: 2)\n 28216: a1 = i32 [0x20150]\n 28221: jump @1080 if a1 >u 63\n      : @1079 (gas: 2)\n 28225: u32 [0x20150] = 0x40\n 28231: fallthrough\n      : @1080 (gas: 7)\n 28232: a1 = 0x20160\n 28237: i32 a1 = a1 + 0\n 28239: a0 = 0x1\n 28242: a2 = 0x24\n 28245: ra = 0x440\n 28249: ecalli 14 // 'seal_return'\n 28251: fallthrough\n      : @1081 [@dyn 544] (gas: 31)\n 28252: sp = sp + 0xfffffffffffff808\n 28256: a3 = sp + 0x700\n 28260: u64 [a3 + 0xf0] = ra\n 28264: u64 [a3 + 0xe8] = s0\n 28268: u64 [a3 + 0xe0] = s1\n 28272: s0 = sp + 0x7f8\n 28276: sp = sp + 0xfffffffffffffdf8\n 28280: sp = sp & 0xffffffffffffffe0\n 28283: s1 = sp\n 28285: a2 = u64 [a2]\n 28287: u64 [s1 + 0x90] = a2\n 28291: a1 = u64 [a1]\n 28293: u64 [s1 + 0x68] = a1\n 28296: a2 = u64 [a0]\n 28298: a1 = u64 [a0 + 0x8]\n 28301: a0 = u32 [a0 + 0x10]\n 28304: a3 = s1 + 0x1000\n 28308: u64 [a3 + 4294965272] = 0\n 28312: u64 [s1 + 0x98] = a0\n 28316: a3 = s1 + 0x1000\n 28320: u64 [a3 + 0xfffffffffffff810] = a0\n 28324: u64 [s1 + 0xa0] = a1\n 28328: a0 = s1 + 0x1000\n 28332: u64 [a0 + 0xfffffffffffff808] = a1\n 28336: a1 = s1 + 0x7ff\n 28340: a1 = a1 + 0x1\n 28343: u64 [s1 + 0xa8] = a2\n 28347: a0 = s1 + 0x1000\n 28351: u64 [a0 + 0xfffffffffffff800] = a2\n 28355: a0 = 0\n 28357: ra = 1090, jump @9\n      : @1082 [@dyn 545] (gas: 7)\n 28363: u64 [s1 + 2040] = 0\n 28367: u64 [s1 + 2032] = 0\n 28371: u64 [s1 + 2016] = 0x3\n 28376: a0 = 0x20\n 28379: a1 = s1 + 0x7e0\n 28383: u64 [s1 + 2024] = 0\n 28387: ra = 1092, jump @9\n      : @1083 [@dyn 546] (gas: 3)\n 28393: a1 = 0x20150\n 28398: a0 = i32 [0x20150]\n 28403: jump @1085 if a0 >u 63\n      : @1084 (gas: 2)\n 28407: u32 [0x20150] = 0x40\n 28413: fallthrough\n      : @1085 (gas: 16)\n 28414: a0 = sp + 0xffffffffffffffe0\n 28417: a2 = a0 & 0xffffffffffffffe0\n 28420: u64 [s1 + 0x88] = a2\n 28424: sp = a2\n 28426: a0 = 0x20160\n 28431: u64 [s1 + 0x30] = a0\n 28434: i32 a0 = a0 + 0\n 28436: i32 a2 = a2 + 0\n 28438: u64 [s1 + 0xb0] = a1\n 28442: a1 = 0x40\n 28445: u64 [s1 + 0xb8] = a0\n 28449: ra = 0x446\n 28453: ecalli 9 // 'hash_keccak_256'\n 28455: a3 = u64 [s1 + 0x88]\n 28459: t0 = 0x448\n 28463: jump @1282\n      : @1086 [@dyn 547] (gas: 2)\n 28466: a3 = u64 [s1 + 0x88]\n 28470: t0 = 1096, jump @1282\n      : @1087 [@dyn 548] (gas: 18)\n 28476: u64 [s1 + 0x88] = a0\n 28480: a0 = reverse a1\n 28482: u64 [s1 + 0x80] = a0\n 28486: a0 = reverse a2\n 28488: u64 [s1 + 0x78] = a0\n 28491: a0 = reverse a3\n 28493: u64 [s1 + 0x60] = a0\n 28496: a0 = u64 [s1 + 0x90]\n 28500: a0 = a0 << 0x20\n 28503: a0 = a0 >> 0x20\n 28506: u64 [s1 + 2008] = 0\n 28510: u64 [s1 + 2000] = 0\n 28514: u64 [s1 + 1992] = 0\n 28518: a1 = s1 + 0x7c0\n 28522: u64 [s1 + 0x70] = a0\n 28525: u64 [s1 + 0x7c0] = a0\n 28529: a0 = 0\n 28531: ra = 1098, jump @9\n      : @1088 [@dyn 549] (gas: 12)\n 28537: a0 = u64 [s1 + 0x60]\n 28540: a3 = s1 + 0x700\n 28544: u64 [a3 + 0xb8] = a0\n 28548: a0 = u64 [s1 + 0x78]\n 28551: u64 [a3 + 0xb0] = a0\n 28555: a0 = u64 [s1 + 0x80]\n 28559: u64 [a3 + 0xa8] = a0\n 28563: a0 = 0x20\n 28566: a1 = s1 + 0x7a0\n 28570: a2 = u64 [s1 + 0x88]\n 28574: u64 [a3 + 0xa0] = a2\n 28578: ra = 1100, jump @9\n      : @1089 [@dyn 550] (gas: 3)\n 28584: a1 = u64 [s1 + 0xb0]\n 28588: a0 = i32 [a1]\n 28590: jump @1091 if a0 >u 63\n      : @1090 (gas: 2)\n 28594: u32 [a1 + 0] = 0x40\n 28597: fallthrough\n      : @1091 (gas: 4)\n 28598: a0 = sp + 0xffffffffffffffe0\n 28601: a0 = a0 & 0xffffffffffffffe0\n 28604: u64 [s1 + 0x90] = a0\n 28608: t0 = 1102, jump @1255\n      : @1092 [@dyn 551] (gas: 30)\n 28614: ecalli 9 // 'hash_keccak_256'\n 28616: a3 = u64 [s1 + 0x90]\n 28620: a0 = u64 [a3]\n 28622: a1 = u64 [a3 + 0x8]\n 28625: a2 = u64 [a3 + 0x10]\n 28628: a3 = u64 [a3 + 0x18]\n 28631: a0 = reverse a0\n 28633: a1 = reverse a1\n 28635: a2 = reverse a2\n 28637: a3 = reverse a3\n 28639: a3 = a3 + 0x1\n 28642: a4 = a3 <u 0x1\n 28645: a2 = a2 + a4\n 28648: a4 = a3 | a2\n 28651: a4 = a4 <u 0x1\n 28654: a4 = a4 + a1\n 28657: a1 = a4 <u a1\n 28660: a0 = a0 + a1\n 28663: a1 = s1 + 0x1000\n 28667: u64 [a1 + 0xfffffffffffff820] = a3\n 28671: a1 = s1 + 0x1000\n 28675: u64 [a1 + 0xfffffffffffff828] = a2\n 28679: a1 = s1 + 0x7ff\n 28683: a1 = a1 + 0x31\n 28686: u64 [a1] = a4\n 28688: u64 [a1 + 0x8] = a0\n 28691: a0 = s1 + 0x780\n 28695: a1 = s1 + 0x7ff\n 28699: a1 = a1 + 0x21\n 28702: ra = 1104, jump @11\n      : @1093 [@dyn 552] (gas: 2)\n 28708: a0 = u64 [s1 + 0x780]\n 28712: jump @1227 if a0 == 0\n      : @1094 (gas: 7)\n 28716: a1 = u64 [s1 + 0x70]\n 28719: a0 = a1 <u 0x100\n 28723: u64 [s1 + 0x60] = a0\n 28726: i32 a2 = a1 + 0xffffffffffffff80\n 28729: a0 = 0x1\n 28732: a1 = 0\n 28734: ra = 1106, jump @1298\n      : @1095 [@dyn 553] (gas: 7)\n 28740: u64 [s1 + 0x88] = a0\n 28744: u64 [s1 + 0x90] = a1\n 28748: a1 = u64 [s1 + 0x70]\n 28751: i32 a2 = 0x80 - a1\n 28755: a0 = 0x1\n 28758: a1 = 0\n 28760: ra = 1108, jump @1293\n      : @1096 [@dyn 554] (gas: 15)\n 28766: a2 = u64 [s1 + 0x70]\n 28769: a3 = a2 <u 0x80\n 28773: u64 [s1 + 0x80] = a3\n 28777: a4 = u64 [s1 + 0x88]\n 28781: a0 = a4 if a3 == 0\n 28784: a0 = 0 if a2 == 0\n 28786: u64 [s1 + 0x88] = a0\n 28790: a0 = u64 [s1 + 0x90]\n 28794: a1 = a0 if a3 == 0\n 28797: a1 = 0 if a2 == 0\n 28799: u64 [s1 + 0x90] = a1\n 28803: i32 a2 = a2 + 0\n 28805: a0 = 0x1\n 28808: a1 = 0\n 28810: ra = 1110, jump @1298\n      : @1097 [@dyn 555] (gas: 15)\n 28816: a2 = u64 [s1 + 0x80]\n 28820: a0 = 0 if a2 == 0\n 28822: u64 [s1 + 0x78] = a0\n 28825: a1 = 0 if a2 == 0\n 28827: u64 [s1 + 0x80] = a1\n 28831: u64 [s1 + 1912] = 0\n 28835: a0 = u64 [s1 + 0xa8]\n 28839: u64 [s1 + 0x760] = a0\n 28843: a0 = u64 [s1 + 0xa0]\n 28847: u64 [s1 + 0x768] = a0\n 28851: a1 = s1 + 0x760\n 28855: a0 = u64 [s1 + 0x98]\n 28859: u64 [s1 + 0x770] = a0\n 28863: a0 = 0\n 28865: ra = 1112, jump @9\n      : @1098 [@dyn 556] (gas: 7)\n 28871: u64 [s1 + 1880] = 0\n 28875: u64 [s1 + 1872] = 0\n 28879: u64 [s1 + 1856] = 0x5\n 28884: a0 = 0x20\n 28887: a1 = s1 + 0x740\n 28891: u64 [s1 + 1864] = 0\n 28895: ra = 1114, jump @9\n      : @1099 [@dyn 557] (gas: 3)\n 28901: a1 = u64 [s1 + 0xb0]\n 28905: a0 = i32 [a1]\n 28907: jump @1101 if a0 >u 63\n      : @1100 (gas: 2)\n 28911: u32 [a1 + 0] = 0x40\n 28914: fallthrough\n      : @1101 (gas: 17)\n 28915: a0 = u64 [s1 + 0x80]\n 28919: a1 = u64 [s1 + 0x60]\n 28922: a0 = 0 if a1 == 0\n 28924: u64 [s1 + 0x80] = a0\n 28928: a0 = u64 [s1 + 0x78]\n 28931: a0 = 0 if a1 == 0\n 28933: u64 [s1 + 0x78] = a0\n 28936: a0 = u64 [s1 + 0x90]\n 28940: a0 = 0 if a1 == 0\n 28942: u64 [s1 + 0x90] = a0\n 28946: a0 = u64 [s1 + 0x88]\n 28950: a0 = 0 if a1 == 0\n 28952: u64 [s1 + 0x88] = a0\n 28956: a0 = sp + 0xffffffffffffffe0\n 28959: a0 = a0 & 0xffffffffffffffe0\n 28962: u64 [s1 + 0x60] = a0\n 28965: t0 = 1116, jump @1255\n      : @1102 [@dyn 558] (gas: 4)\n 28971: ra = 0x45e\n 28975: ecalli 9 // 'hash_keccak_256'\n 28977: t0 = 0x460\n 28981: jump @1246\n      : @1103 [@dyn 559] (gas: 1)\n 28984: t0 = 1120, jump @1246\n      : @1104 [@dyn 560] (gas: 10)\n 28990: a0 = u64 [s1 + 0x68]\n 28993: a0 = a0 & 0xffffffffffffffff\n 28996: u64 [s1 + 1848] = 0\n 29000: u64 [s1 + 1840] = 0\n 29004: u64 [s1 + 1832] = 0\n 29008: a1 = s1 + 0x720\n 29012: u64 [s1 + 0x68] = a0\n 29015: u64 [s1 + 0x720] = a0\n 29019: a0 = 0\n 29021: ra = 1122, jump @9\n      : @1105 [@dyn 561] (gas: 12)\n 29027: a0 = u64 [s1 + 0x40]\n 29030: a3 = s1 + 0x700\n 29034: u64 [a3 + 0x18] = a0\n 29037: a0 = u64 [s1 + 0x48]\n 29040: u64 [a3 + 0x10] = a0\n 29043: a0 = u64 [s1 + 0x50]\n 29046: u64 [a3 + 0x8] = a0\n 29049: a0 = 0x20\n 29052: a1 = s1 + 0x700\n 29056: a2 = u64 [s1 + 0x58]\n 29059: u64 [a3] = a2\n 29061: ra = 1124, jump @9\n      : @1106 [@dyn 562] (gas: 3)\n 29067: a1 = u64 [s1 + 0xb0]\n 29071: a0 = i32 [a1]\n 29073: jump @1108 if a0 >u 63\n      : @1107 (gas: 2)\n 29077: u32 [a1 + 0] = 0x40\n 29080: fallthrough\n      : @1108 (gas: 4)\n 29081: a0 = sp + 0xffffffffffffffe0\n 29084: a0 = a0 & 0xffffffffffffffe0\n 29087: u64 [s1 + 0x58] = a0\n 29090: t0 = 1126, jump @1255\n      : @1109 [@dyn 563] (gas: 4)\n 29096: ra = 0x468\n 29100: ecalli 9 // 'hash_keccak_256'\n 29102: t0 = 0x46a\n 29106: jump @1247\n      : @1110 [@dyn 564] (gas: 1)\n 29109: t0 = 1130, jump @1247\n      : @1111 [@dyn 565] (gas: 2)\n 29115: a0 = s1 + 0x6e0\n 29119: ra = 1132, jump @11\n      : @1112 [@dyn 566] (gas: 6)\n 29125: a4 = s1 + 0x600\n 29129: a0 = u64 [a4 + 0xf0]\n 29133: a1 = u64 [a4 + 0xe0]\n 29137: a2 = u64 [a4 + 0xf8]\n 29141: a3 = u64 [a4 + 0xe8]\n 29145: t0 = 1134, jump @1264\n      : @1113 [@dyn 567] (gas: 1)\n 29151: jump @1228 if a0 == 0\n      : @1114 (gas: 10)\n 29155: u64 [s1 + 1752] = 0\n 29159: a0 = u64 [s1 + 0xa8]\n 29163: u64 [s1 + 0x6c0] = a0\n 29167: a0 = u64 [s1 + 0xa0]\n 29171: u64 [s1 + 0x6c8] = a0\n 29175: a1 = s1 + 0x6c0\n 29179: a0 = u64 [s1 + 0x98]\n 29183: u64 [s1 + 0x6d0] = a0\n 29187: a0 = 0\n 29189: ra = 1136, jump @9\n      : @1115 [@dyn 568] (gas: 7)\n 29195: u64 [s1 + 1720] = 0\n 29199: u64 [s1 + 1712] = 0\n 29203: u64 [s1 + 1696] = 0x7\n 29208: a0 = 0x20\n 29211: a1 = s1 + 0x6a0\n 29215: u64 [s1 + 1704] = 0\n 29219: ra = 1138, jump @9\n      : @1116 [@dyn 569] (gas: 3)\n 29225: a1 = u64 [s1 + 0xb0]\n 29229: a0 = i32 [a1]\n 29231: jump @1118 if a0 >u 63\n      : @1117 (gas: 2)\n 29235: u32 [a1 + 0] = 0x40\n 29238: fallthrough\n      : @1118 (gas: 4)\n 29239: a0 = sp + 0xffffffffffffffe0\n 29242: a0 = a0 & 0xffffffffffffffe0\n 29245: u64 [s1 + 0x60] = a0\n 29248: t0 = 1140, jump @1255\n      : @1119 [@dyn 570] (gas: 4)\n 29254: ra = 0x476\n 29258: ecalli 9 // 'hash_keccak_256'\n 29260: t0 = 0x478\n 29264: jump @1246\n      : @1120 [@dyn 571] (gas: 1)\n 29267: t0 = 1144, jump @1246\n      : @1121 [@dyn 572] (gas: 8)\n 29273: u64 [s1 + 1688] = 0\n 29277: u64 [s1 + 1680] = 0\n 29281: u64 [s1 + 1672] = 0\n 29285: a1 = s1 + 0x680\n 29289: a0 = u64 [s1 + 0x68]\n 29292: u64 [s1 + 0x680] = a0\n 29296: a0 = 0\n 29298: ra = 1146, jump @9\n      : @1122 [@dyn 573] (gas: 12)\n 29304: a0 = u64 [s1 + 0x40]\n 29307: a3 = s1 + 0x600\n 29311: u64 [a3 + 0x78] = a0\n 29314: a0 = u64 [s1 + 0x48]\n 29317: u64 [a3 + 0x70] = a0\n 29320: a0 = u64 [s1 + 0x50]\n 29323: u64 [a3 + 0x68] = a0\n 29326: a0 = 0x20\n 29329: a1 = s1 + 0x660\n 29333: a2 = u64 [s1 + 0x58]\n 29336: u64 [a3 + 0x60] = a2\n 29339: ra = 1148, jump @9\n      : @1123 [@dyn 574] (gas: 3)\n 29345: a1 = u64 [s1 + 0xb0]\n 29349: a0 = i32 [a1]\n 29351: jump @1125 if a0 >u 63\n      : @1124 (gas: 2)\n 29355: u32 [a1 + 0] = 0x40\n 29358: fallthrough\n      : @1125 (gas: 4)\n 29359: a0 = sp + 0xffffffffffffffe0\n 29362: a0 = a0 & 0xffffffffffffffe0\n 29365: u64 [s1 + 0x58] = a0\n 29368: t0 = 1150, jump @1255\n      : @1126 [@dyn 575] (gas: 4)\n 29374: ra = 0x480\n 29378: ecalli 9 // 'hash_keccak_256'\n 29380: t0 = 0x482\n 29384: jump @1247\n      : @1127 [@dyn 576] (gas: 1)\n 29387: t0 = 1154, jump @1247\n      : @1128 [@dyn 577] (gas: 2)\n 29393: a0 = s1 + 0x640\n 29397: ra = 1156, jump @11\n      : @1129 [@dyn 578] (gas: 6)\n 29403: a4 = s1 + 0x600\n 29407: a0 = u64 [a4 + 0x50]\n 29410: a1 = u64 [a4 + 0x40]\n 29413: a2 = u64 [a4 + 0x58]\n 29416: a3 = u64 [a4 + 0x48]\n 29419: t0 = 1158, jump @1264\n      : @1130 [@dyn 579] (gas: 1)\n 29425: jump @1229 if a0 != 0\n      : @1131 (gas: 11)\n 29429: u64 [s1 + 1560] = 0\n 29433: a0 = u64 [s1 + 0xa8]\n 29437: a2 = s1 + 0x600\n 29441: u64 [a2] = a0\n 29443: a0 = u64 [s1 + 0xa0]\n 29447: u64 [a2 + 0x8] = a0\n 29450: a1 = s1 + 0x600\n 29454: a0 = u64 [s1 + 0x98]\n 29458: u64 [a2 + 0x10] = a0\n 29461: a0 = 0\n 29463: ra = 1160, jump @9\n      : @1132 [@dyn 580] (gas: 7)\n 29469: u64 [s1 + 1528] = 0\n 29473: u64 [s1 + 1520] = 0\n 29477: u64 [s1 + 1504] = 0x7\n 29482: a0 = 0x20\n 29485: a1 = s1 + 0x5e0\n 29489: u64 [s1 + 1512] = 0\n 29493: ra = 1162, jump @9\n      : @1133 [@dyn 581] (gas: 3)\n 29499: a1 = u64 [s1 + 0xb0]\n 29503: a0 = i32 [a1]\n 29505: jump @1135 if a0 >u 63\n      : @1134 (gas: 2)\n 29509: u32 [a1 + 0] = 0x40\n 29512: fallthrough\n      : @1135 (gas: 4)\n 29513: a0 = sp + 0xffffffffffffffe0\n 29516: a0 = a0 & 0xffffffffffffffe0\n 29519: u64 [s1 + 0x60] = a0\n 29522: t0 = 1164, jump @1255\n      : @1136 [@dyn 582] (gas: 4)\n 29528: ra = 0x48e\n 29532: ecalli 9 // 'hash_keccak_256'\n 29534: t0 = 0x490\n 29538: jump @1246\n      : @1137 [@dyn 583] (gas: 1)\n 29541: t0 = 1168, jump @1246\n      : @1138 [@dyn 584] (gas: 8)\n 29547: u64 [s1 + 1496] = 0\n 29551: u64 [s1 + 1488] = 0\n 29555: u64 [s1 + 1480] = 0\n 29559: a1 = s1 + 0x5c0\n 29563: a0 = u64 [s1 + 0x68]\n 29566: u64 [s1 + 0x5c0] = a0\n 29570: a0 = 0\n 29572: ra = 1170, jump @9\n      : @1139 [@dyn 585] (gas: 12)\n 29578: a0 = u64 [s1 + 0x40]\n 29581: a3 = s1 + 0x500\n 29585: u64 [a3 + 0xb8] = a0\n 29589: a0 = u64 [s1 + 0x48]\n 29592: u64 [a3 + 0xb0] = a0\n 29596: a0 = u64 [s1 + 0x50]\n 29599: u64 [a3 + 0xa8] = a0\n 29603: a0 = 0x20\n 29606: a1 = s1 + 0x5a0\n 29610: a2 = u64 [s1 + 0x58]\n 29613: u64 [a3 + 0xa0] = a2\n 29617: ra = 1172, jump @9\n      : @1140 [@dyn 586] (gas: 3)\n 29623: a1 = u64 [s1 + 0xb0]\n 29627: a0 = i32 [a1]\n 29629: jump @1142 if a0 >u 63\n      : @1141 (gas: 2)\n 29633: u32 [a1 + 0] = 0x40\n 29636: fallthrough\n      : @1142 (gas: 4)\n 29637: a0 = sp + 0xffffffffffffffe0\n 29640: a0 = a0 & 0xffffffffffffffe0\n 29643: u64 [s1 + 0x58] = a0\n 29646: t0 = 1174, jump @1255\n      : @1143 [@dyn 587] (gas: 4)\n 29652: ra = 0x498\n 29656: ecalli 9 // 'hash_keccak_256'\n 29658: t0 = 0x49a\n 29662: jump @1247\n      : @1144 [@dyn 588] (gas: 1)\n 29665: t0 = 1178, jump @1247\n      : @1145 [@dyn 589] (gas: 2)\n 29671: a0 = s1 + 0x580\n 29675: ra = 1180, jump @11\n      : @1146 [@dyn 590] (gas: 22)\n 29681: a0 = u64 [s1 + 0x580]\n 29685: a1 = u64 [s1 + 0x588]\n 29689: a2 = u64 [s1 + 0x590]\n 29693: a3 = u64 [s1 + 0x598]\n 29697: a4 = u64 [s1 + 0x78]\n 29700: a0 = a0 | a4\n 29703: a4 = u64 [s1 + 0x80]\n 29707: a1 = a1 | a4\n 29710: a4 = u64 [s1 + 0x88]\n 29714: a2 = a2 | a4\n 29717: a4 = u64 [s1 + 0x90]\n 29721: a3 = a3 | a4\n 29724: a4 = s1 + 0x7ff\n 29728: a4 = a4 + 0x31\n 29731: u64 [a4 + 0x28] = a3\n 29734: u64 [a4 + 0x20] = a2\n 29737: u64 [a4 + 0x18] = a1\n 29740: u64 [a4 + 0x10] = a0\n 29743: a1 = s1 + 0x7ff\n 29747: a1 = a1 + 0x41\n 29750: a0 = u64 [s1 + 0x60]\n 29753: ra = 1182, jump @12\n      : @1147 [@dyn 591] (gas: 10)\n 29759: u64 [s1 + 1400] = 0\n 29763: a0 = u64 [s1 + 0x98]\n 29767: u64 [s1 + 0x570] = a0\n 29771: a0 = u64 [s1 + 0xa0]\n 29775: u64 [s1 + 0x568] = a0\n 29779: a1 = s1 + 0x560\n 29783: a0 = u64 [s1 + 0xa8]\n 29787: u64 [s1 + 0x560] = a0\n 29791: a0 = 0\n 29793: ra = 1184, jump @9\n      : @1148 [@dyn 592] (gas: 7)\n 29799: u64 [s1 + 1368] = 0\n 29803: u64 [s1 + 1360] = 0\n 29807: u64 [s1 + 1344] = 0x2\n 29812: a0 = 0x20\n 29815: a1 = s1 + 0x540\n 29819: u64 [s1 + 1352] = 0\n 29823: ra = 1186, jump @9\n      : @1149 [@dyn 593] (gas: 3)\n 29829: a1 = u64 [s1 + 0xb0]\n 29833: a0 = i32 [a1]\n 29835: jump @1151 if a0 >=u 64\n      : @1150 (gas: 2)\n 29839: u32 [a1 + 0] = 0x40\n 29842: fallthrough\n      : @1151 (gas: 4)\n 29843: a0 = sp + 0xffffffffffffffe0\n 29846: a0 = a0 & 0xffffffffffffffe0\n 29849: u64 [s1 + 0x60] = a0\n 29852: t0 = 1188, jump @1255\n      : @1152 [@dyn 594] (gas: 32)\n 29858: ecalli 9 // 'hash_keccak_256'\n 29860: a3 = u64 [s1 + 0x60]\n 29863: a0 = u64 [a3]\n 29865: a1 = u64 [a3 + 0x8]\n 29868: a2 = u64 [a3 + 0x10]\n 29871: a3 = u64 [a3 + 0x18]\n 29874: t0 = reverse a0\n 29876: a5 = reverse a1\n 29878: a2 = reverse a2\n 29880: a3 = reverse a3\n 29882: a0 = sp + 0xffffffffffffffe0\n 29885: a1 = a0 & 0xffffffffffffffe0\n 29888: sp = a1\n 29890: u64 [s1 + 0x10] = a3\n 29893: a0 = a3 + 0x1\n 29896: a3 = a0 <u 0x1\n 29899: u64 [s1 + 0x18] = a2\n 29902: a4 = a2 + a3\n 29905: a2 = a0 | a4\n 29908: a2 = a2 <u 0x1\n 29911: a2 = a2 + a5\n 29914: u64 [s1 + 0x20] = a5\n 29917: a3 = a2 <u a5\n 29920: u64 [s1 + 0x28] = t0\n 29923: a3 = a3 + t0\n 29926: u64 [a1 + 0x8] = a4\n 29929: u64 [a1] = a0\n 29931: u64 [a1 + 0x10] = a2\n 29934: u64 [a1 + 0x18] = a3\n 29937: a0 = s1 + 0x520\n 29941: u64 [s1 + 0x58] = a1\n 29944: ra = 1190, jump @11\n      : @1153 [@dyn 595] (gas: 12)\n 29950: t0 = u64 [s1 + 0x538]\n 29954: a4 = s1 + 0x500\n 29958: a1 = u64 [a4 + 0x30]\n 29961: a2 = u64 [a4 + 0x20]\n 29964: a0 = u64 [0x200f8]\n 29969: a3 = u64 [a4 + 0x28]\n 29972: a4 = a1 | t0\n 29975: u64 [s1 + 0x60] = a0\n 29978: a5 = a2 <u a0\n 29981: a5 = 0 if a3 != 0\n 29983: a5 = 0 if a4 != 0\n 29985: jump @1230 if a5 != 0\n      : @1154 (gas: 24)\n 29989: a4 = u64 [0x20100]\n 29994: a4 = a4 + a2\n 29997: a2 = a4 <u a2\n 30000: a5 = a3 + a2\n 30003: a5 = a5 + 0xffffffffffffffff\n 30006: a0 = a5 ^ a3\n 30009: a3 = a5 <u a3\n 30012: a3 = a2 if a0 == 0\n 30015: a0 = a1 + 0xffffffffffffffff\n 30018: a3 = a3 + a0\n 30021: a0 = a3 <u a0\n 30024: a1 = a1 <u 0x1\n 30027: a1 = t0 - a1\n 30030: a0 = a0 + a1\n 30033: a1 = s1 + 0x7ff\n 30037: a1 = a1 + 0x31\n 30040: u64 [a1 + 0x30] = a4\n 30043: u64 [a1 + 0x38] = a5\n 30046: u64 [a1 + 0x40] = a3\n 30049: u64 [a1 + 0x48] = a0\n 30052: a1 = s1 + 0x7ff\n 30056: a1 = a1 + 0x61\n 30059: a0 = u64 [s1 + 0x58]\n 30062: ra = 1192, jump @12\n      : @1155 [@dyn 596] (gas: 11)\n 30068: u64 [s1 + 1304] = 0\n 30072: a0 = u64 [s1 + 0x98]\n 30076: a2 = s1 + 0x500\n 30080: u64 [a2 + 0x10] = a0\n 30083: a0 = u64 [s1 + 0xa0]\n 30087: u64 [a2 + 0x8] = a0\n 30090: a1 = s1 + 0x500\n 30094: a0 = u64 [s1 + 0xa8]\n 30098: u64 [a2] = a0\n 30100: a0 = 0\n 30102: ra = 1194, jump @9\n      : @1156 [@dyn 597] (gas: 7)\n 30108: u64 [s1 + 1272] = 0\n 30112: u64 [s1 + 1264] = 0\n 30116: u64 [s1 + 1248] = 0x6\n 30121: a0 = 0x20\n 30124: a1 = s1 + 0x4e0\n 30128: u64 [s1 + 1256] = 0\n 30132: ra = 1196, jump @9\n      : @1157 [@dyn 598] (gas: 3)\n 30138: a1 = u64 [s1 + 0xb0]\n 30142: a0 = i32 [a1]\n 30144: jump @1159 if a0 >u 63\n      : @1158 (gas: 2)\n 30148: u32 [a1 + 0] = 0x40\n 30151: fallthrough\n      : @1159 (gas: 4)\n 30152: a0 = sp + 0xffffffffffffffe0\n 30155: a0 = a0 & 0xffffffffffffffe0\n 30158: u64 [s1 + 0x58] = a0\n 30161: t0 = 1198, jump @1255\n      : @1160 [@dyn 599] (gas: 5)\n 30167: ra = 0x4b0\n 30171: ecalli 9 // 'hash_keccak_256'\n 30173: a3 = u64 [s1 + 0x58]\n 30176: t0 = 0x4b2\n 30180: jump @1282\n      : @1161 [@dyn 600] (gas: 2)\n 30183: a3 = u64 [s1 + 0x58]\n 30186: t0 = 1202, jump @1282\n      : @1162 [@dyn 601] (gas: 19)\n 30192: u64 [s1 + 0x50] = a0\n 30195: a0 = reverse a1\n 30197: u64 [s1 + 0x48] = a0\n 30200: a0 = reverse a2\n 30202: u64 [s1 + 0x40] = a0\n 30205: a0 = reverse a3\n 30207: u64 [s1 + 0x38] = a0\n 30210: a0 = sp + 0xffffffffffffffe0\n 30213: a0 = a0 & 0xffffffffffffffe0\n 30216: u64 [s1 + 0x58] = a0\n 30219: sp = a0\n 30221: u64 [s1 + 1240] = 0\n 30225: u64 [s1 + 1232] = 0\n 30229: u64 [s1 + 1224] = 0\n 30233: a1 = s1 + 0x4c0\n 30237: a0 = u64 [s1 + 0x68]\n 30240: u64 [s1 + 0x4c0] = a0\n 30244: a0 = 0\n 30246: ra = 1204, jump @9\n      : @1163 [@dyn 602] (gas: 12)\n 30252: a0 = u64 [s1 + 0x38]\n 30255: a3 = s1 + 0x400\n 30259: u64 [a3 + 0xb8] = a0\n 30263: a0 = u64 [s1 + 0x40]\n 30266: u64 [a3 + 0xb0] = a0\n 30270: a0 = u64 [s1 + 0x48]\n 30273: u64 [a3 + 0xa8] = a0\n 30277: a0 = 0x20\n 30280: a1 = s1 + 0x4a0\n 30284: a2 = u64 [s1 + 0x50]\n 30287: u64 [a3 + 0xa0] = a2\n 30291: ra = 1206, jump @9\n      : @1164 [@dyn 603] (gas: 3)\n 30297: a1 = u64 [s1 + 0xb0]\n 30301: a0 = i32 [a1]\n 30303: jump @1166 if a0 >u 63\n      : @1165 (gas: 2)\n 30307: u32 [a1 + 0] = 0x40\n 30310: fallthrough\n      : @1166 (gas: 4)\n 30311: a0 = sp + 0xffffffffffffffe0\n 30314: a0 = a0 & 0xffffffffffffffe0\n 30317: u64 [s1 + 0x50] = a0\n 30320: t0 = 1208, jump @1255\n      : @1167 [@dyn 604] (gas: 5)\n 30326: ra = 0x4ba\n 30330: ecalli 9 // 'hash_keccak_256'\n 30332: a3 = u64 [s1 + 0x50]\n 30335: t0 = 0x4bc\n 30339: jump @1283\n      : @1168 [@dyn 605] (gas: 2)\n 30342: a3 = u64 [s1 + 0x50]\n 30345: t0 = 1212, jump @1283\n      : @1169 [@dyn 606] (gas: 7)\n 30351: a1 = u64 [s1 + 0x58]\n 30354: u64 [a1 + 0x18] = a3\n 30357: u64 [a1 + 0x10] = a2\n 30360: u64 [a1 + 0x8] = a4\n 30363: u64 [a1] = a0\n 30365: a0 = s1 + 0x480\n 30369: ra = 1214, jump @11\n      : @1170 [@dyn 607] (gas: 6)\n 30375: a4 = s1 + 0x400\n 30379: a0 = u64 [a4 + 0x90]\n 30383: a1 = u64 [a4 + 0x80]\n 30387: a2 = u64 [a4 + 0x98]\n 30391: a3 = u64 [a4 + 0x88]\n 30395: t0 = 1216, jump @1264\n      : @1171 [@dyn 608] (gas: 1)\n 30401: jump @1190 if a0 == 0\n      : @1172 (gas: 12)\n 30405: a0 = 0xffffffff\n 30415: u64 [s1 + 0xb0] = a0\n 30419: a0 = s1 + 0x7ff\n 30423: a0 = a0 + 0x31\n 30426: u64 [a0 + 232] = 0\n 30430: u64 [a0 + 224] = 0\n 30434: u64 [a0 + 216] = 0\n 30438: u64 [a0 + 208] = 0\n 30442: a0 = s1 + 0x460\n 30446: a1 = s1 + 0x7ff\n 30450: a1 = a1 + 0x101\n 30454: ra = 1218, jump @11\n      : @1173 [@dyn 609] (gas: 11)\n 30460: a3 = s1 + 0x400\n 30464: a0 = u64 [a3 + 0x68]\n 30467: a1 = u64 [a3 + 0x70]\n 30470: a2 = u64 [a3 + 0x60]\n 30473: a0 = a0 & 0xffffffffffffffff\n 30476: a4 = u64 [s1 + 0xb0]\n 30480: a1 = a1 & a4\n 30483: a2 = a2 & 0xffffffffffffffff\n 30486: a1 = a1 | a2\n 30489: a0 = a0 | a1\n 30492: jump @1209 if a0 == 0\n      : @1174 (gas: 10)\n 30496: a0 = s1 + 0x7ff\n 30500: a0 = a0 + 0x31\n 30503: u64 [a0 + 296] = 0\n 30507: u64 [a0 + 288] = 0\n 30511: u64 [a0 + 280] = 0\n 30515: u64 [a0 + 272] = 0\n 30519: a0 = s1 + 0x440\n 30523: a1 = s1 + 0x7ff\n 30527: a1 = a1 + 0x141\n 30531: ra = 1220, jump @11\n      : @1175 [@dyn 610] (gas: 25)\n 30537: a3 = s1 + 0x400\n 30541: a0 = u64 [a3 + 0x48]\n 30544: a1 = u64 [a3 + 0x50]\n 30547: a2 = u64 [a3 + 0x40]\n 30550: a0 = reverse a0\n 30552: a3 = a0 << 0x20\n 30555: a1 = reverse a1\n 30557: a1 = a1 >> 0x20\n 30560: a4 = a1 | a3\n 30563: a0 = a0 >> 0x20\n 30566: a1 = reverse a2\n 30568: a3 = 0x30160\n 30573: a2 = a1 << 0x20\n 30576: a0 = a0 | a2\n 30579: a1 = a1 >> 0x20\n 30582: u64 [s1 + 0x58] = a1\n 30585: u32 [0x30170] = a1\n 30590: u64 [s1 + 0x50] = a0\n 30593: u64 [0x30168] = a0\n 30598: u64 [s1 + 0x78] = a4\n 30601: u64 [0x30160] = a4\n 30606: u64 [s1 + 0x80] = a3\n 30610: i32 a0 = a3 + 0\n 30612: ecalli 5 // 'code_size'\n 30614: fallthrough\n      : @1176 (gas: 1)\n 30615: jump @1231 if a0 == 0\n      : @1177 (gas: 3)\n 30619: a0 = s1 + 0x420\n 30623: a1 = 0x40\n 30626: ra = 1222, jump @7\n      : @1178 [@dyn 611] (gas: 17)\n 30632: a4 = s1 + 0x400\n 30636: a2 = u64 [a4 + 0x38]\n 30639: a3 = u64 [a4 + 0x30]\n 30642: a0 = u64 [a4 + 0x28]\n 30645: a1 = u64 [a4 + 0x20]\n 30648: u64 [s1 + 0xb0] = a0\n 30652: u64 [s1 + 0x90] = a2\n 30656: a0 = a0 | a2\n 30659: u64 [s1 + 0xb8] = a1\n 30663: a1 = a1 | a3\n 30666: a1 = a1 | a0\n 30669: a1 = a1 >> 0x20\n 30672: u64 [s1 + 0x88] = a3\n 30676: a0 = a0 | a3\n 30679: a0 = a0 << 0x20\n 30682: a0 = a0 | a1\n 30685: jump @1226 if a0 != 0\n      : @1179 (gas: 8)\n 30689: u64 [s1 + 1040] = 0\n 30693: u64 [s1 + 1032] = 0\n 30697: u64 [s1 + 1024] = 0\n 30701: a0 = 0xadc9772e00000000\n 30711: a1 = s1 + 0x400\n 30715: u64 [s1 + 0x418] = a0\n 30719: a0 = u64 [s1 + 0xb8]\n 30723: ra = 1224, jump @9\n      : @1180 [@dyn 612] (gas: 13)\n 30729: a0 = u64 [s1 + 0x90]\n 30733: a2 = u64 [s1 + 0x88]\n 30737: a2 = a2 | a0\n 30740: a0 = 0x100000000\n 30750: u64 [s1 + 0x40] = a0\n 30753: a0 = 0xfffffffc\n 30763: a1 = u64 [s1 + 0xb8]\n 30767: a0 = a1 <u a0\n 30770: a1 = u64 [s1 + 0xb0]\n 30774: a0 = 0 if a1 != 0\n 30776: u64 [s1 + 0x48] = a2\n 30779: a0 = 0 if a2 != 0\n 30781: jump @1226 if a0 == 0\n      : @1181 (gas: 12)\n 30785: a0 = u64 [s1 + 0xb8]\n 30789: i32 a0 = a0 + 0x4\n 30792: u64 [s1 + 1016] = 0\n 30796: a1 = u64 [s1 + 0xa8]\n 30800: a3 = s1 + 0x300\n 30804: u64 [a3 + 0xe0] = a1\n 30808: a1 = u64 [s1 + 0xa0]\n 30812: u64 [a3 + 0xe8] = a1\n 30816: a1 = s1 + 0x3e0\n 30820: a2 = u64 [s1 + 0x98]\n 30824: u64 [a3 + 0xf0] = a2\n 30828: ra = 1226, jump @9\n      : @1182 [@dyn 613] (gas: 9)\n 30834: a0 = u64 [s1 + 0x40]\n 30837: a0 = a0 + 0xffffffffffffffdc\n 30840: a1 = u64 [s1 + 0xb8]\n 30844: a0 = a1 <u a0\n 30847: a1 = u64 [s1 + 0xb0]\n 30851: a0 = 0 if a1 != 0\n 30853: a1 = u64 [s1 + 0x48]\n 30856: a0 = 0 if a1 != 0\n 30858: jump @1226 if a0 == 0\n      : @1183 (gas: 9)\n 30862: a0 = u64 [s1 + 0xb8]\n 30866: i32 a0 = a0 + 0x24\n 30869: u64 [s1 + 984] = 0\n 30873: u64 [s1 + 976] = 0\n 30877: u64 [s1 + 968] = 0\n 30881: a1 = s1 + 0x3c0\n 30885: a2 = u64 [s1 + 0x60]\n 30888: u64 [s1 + 0x3c0] = a2\n 30892: ra = 1228, jump @9\n      : @1184 [@dyn 614] (gas: 18)\n 30898: ecalli 11 // 'ref_time_left'\n 30900: a1 = u64 [s1 + 0x80]\n 30904: a0 = u64 [s1 + 0x50]\n 30907: u64 [a1 + 0x8] = a0\n 30910: a0 = u64 [s1 + 0x78]\n 30913: u64 [a1] = a0\n 30915: a0 = u64 [s1 + 0x58]\n 30918: u32 [a1 + 0x10] = a0\n 30921: a0 = s1 + 0x7ff\n 30925: a0 = a0 + 0x31\n 30928: u64 [a0 + 328] = 0\n 30932: u64 [a0 + 320] = 0\n 30936: u64 [a0 + 312] = 0\n 30940: a1 = u64 [s1 + 0x60]\n 30943: u64 [a0 + 0x130] = a1\n 30947: a1 = 0x44\n 30950: a0 = u64 [s1 + 0xb8]\n 30954: ra = 1230, jump @20\n      : @1185 [@dyn 615] (gas: 4)\n 30960: u64 [s1 + 0x78] = a0\n 30963: a0 = u64 [s1 + 0xb8]\n 30967: a1 = 0\n 30969: ra = 1232, jump @20\n      : @1186 [@dyn 616] (gas: 37)\n 30975: a2 = s1 + 0x7ff\n 30979: a2 = a2 + 0x31\n 30982: u32 [a2 + 336] = 0\n 30986: a3 = a2 + 0x100\n 30990: u64 [a3 + 136] = 0xffffffffffffffff\n 30995: u64 [a3 + 128] = 0xffffffffffffffff\n 31000: u64 [a3 + 120] = 0xffffffffffffffff\n 31004: u64 [a3 + 112] = 0xffffffffffffffff\n 31008: a1 = u64 [s1 + 0x80]\n 31012: a1 = a1 << 0x20\n 31015: a1 = a1 >> 0x20\n 31018: a2 = 0x800000000\n 31028: t0 = a1 | a2\n 31031: a1 = s1 + 0x7ff\n 31035: a1 = a1 + 0x161\n 31039: a1 = a1 << 0x20\n 31042: a1 = a1 >> 0x20\n 31045: a2 = s1 + 0x7ff\n 31049: a2 = a2 + 0x1a1\n 31053: a2 = a2 << 0x20\n 31056: a3 = a2 | a1\n 31059: a1 = u64 [s1 + 0x78]\n 31062: a1 = a1 << 0x20\n 31065: a1 = a1 >> 0x20\n 31068: a2 = 0x4400000000\n 31078: a4 = a1 | a2\n 31081: a0 = a0 << 0x20\n 31084: a0 = a0 >> 0x20\n 31087: a1 = s1 + 0x7ff\n 31091: a1 = a1 + 0x181\n 31095: a1 = a1 << 0x20\n 31098: a5 = a1 | a0\n 31101: a1 = 0xffffffffffffffff\n 31104: a2 = 0xffffffffffffffff\n 31107: a0 = t0\n 31109: ecalli 0 // 'call'\n 31110: fallthrough\n      : @1187 (gas: 1)\n 31111: jump @1217 if a0 != 0\n      : @1188 (gas: 16)\n 31115: u64 [s1 + 888] = 0\n 31119: u64 [s1 + 880] = 0\n 31123: u64 [s1 + 872] = 0\n 31127: u64 [s1 + 864] = 0\n 31131: a0 = u64 [s1 + 0xb8]\n 31135: a3 = s1 + 0x300\n 31139: u64 [a3 + 0x80] = a0\n 31143: a0 = u64 [s1 + 0xb0]\n 31147: u64 [a3 + 0x88] = a0\n 31151: a0 = u64 [s1 + 0x88]\n 31155: u64 [a3 + 0x90] = a0\n 31159: a0 = s1 + 0x380\n 31163: a1 = s1 + 0x360\n 31167: a2 = u64 [s1 + 0x90]\n 31171: u64 [a3 + 0x98] = a2\n 31175: ra = 1234, jump @1072\n      : @1189 [@dyn 617] (gas: 1)\n 31181: jump @1211\n      : @1190 (gas: 1)\n 31184: ra = 1236, jump @0\n      : @1191 [@dyn 618] (gas: 63)\n 31190: a1 = u64 [0x30180]\n 31195: u64 [s1 + 0x90] = a1\n 31199: a1 = u64 [0x30190]\n 31204: u64 [s1 + 0x88] = a1\n 31208: a0 = u64 [0x30188]\n 31213: u64 [s1 + 0x80] = a0\n 31217: ecalli 11 // 'ref_time_left'\n 31219: a1 = u64 [s1 + 0x80]\n 31223: a1 = reverse a1\n 31225: a2 = a1 << 0x20\n 31228: a3 = u64 [s1 + 0x88]\n 31232: a3 = reverse a3\n 31234: a3 = a3 >> 0x20\n 31237: a2 = a2 | a3\n 31240: a3 = a1 >> 0x20\n 31243: a1 = u64 [s1 + 0x90]\n 31247: a4 = reverse a1\n 31249: a1 = 0x30160\n 31254: a5 = a4 << 0x20\n 31257: a3 = a3 | a5\n 31260: a4 = a4 >> 0x20\n 31263: u32 [0x30170] = a4\n 31268: u64 [0x30168] = a3\n 31273: u64 [0x30160] = a2\n 31278: a3 = s1 + 0x7ff\n 31282: a3 = a3 + 0x31\n 31285: u64 [a3 + 104] = 0\n 31288: u64 [a3 + 96] = 0\n 31291: u64 [a3 + 88] = 0\n 31294: a2 = u64 [s1 + 0x60]\n 31297: u64 [a3 + 0x50] = a2\n 31300: u32 [a3 + 112] = 0\n 31303: a0 = a0 >u 0x8fc\n 31307: a2 = -a0\n 31309: u64 [a3 + 0xa8] = a2\n 31313: u64 [a3 + 0xa0] = a2\n 31317: u64 [a3 + 0x98] = a2\n 31321: u64 [a3 + 0x90] = a2\n 31325: a1 = a1 << 0x20\n 31328: a1 = a1 >> 0x20\n 31331: a0 = a0 << 0x23\n 31334: a0 = a0 | a1\n 31337: a1 = s1 + 0x7ff\n 31341: a1 = a1 + 0x81\n 31345: a1 = a1 << 0x20\n 31348: a1 = a1 >> 0x20\n 31351: a2 = s1 + 0x7ff\n 31355: a2 = a2 + 0xc1\n 31359: a2 = a2 << 0x20\n 31362: a3 = a2 | a1\n 31365: a4 = u64 [s1 + 0x30]\n 31368: a4 = a4 << 0x20\n 31371: a4 = a4 >> 0x20\n 31374: a1 = s1 + 0x7ff\n 31378: a1 = a1 + 0xa1\n 31382: a1 = a1 << 0x20\n 31385: a5 = a1 | a4\n 31388: a1 = 0xffffffffffffffff\n 31391: a2 = 0xffffffffffffffff\n 31394: ecalli 0 // 'call'\n 31395: u64 [s1 + 0x90] = a0\n 31399: ecalli 13 // 'return_data_size'\n 31401: fallthrough\n      : @1192 (gas: 1)\n 31402: jump @1203 if a0 == 0\n      : @1193 (gas: 5)\n 31406: ecalli 13 // 'return_data_size'\n 31408: u64 [s1 + 0x58] = a0\n 31411: a0 = s1 + 0x260\n 31415: a1 = 0x40\n 31418: ra = 1238, jump @7\n      : @1194 [@dyn 619] (gas: 29)\n 31424: a5 = u64 [s1 + 0x278]\n 31428: u64 [s1 + 0x78] = a5\n 31431: t0 = u64 [s1 + 0x270]\n 31435: u64 [s1 + 0x50] = t0\n 31438: t1 = u64 [s1 + 0x268]\n 31442: u64 [s1 + 0x80] = t1\n 31446: t2 = u64 [s1 + 0x260]\n 31450: u64 [s1 + 0x88] = t2\n 31454: a1 = u64 [s1 + 0x58]\n 31457: a0 = a1 + 0x1f\n 31460: a1 = a0 <u a1\n 31463: a0 = a0 & 0xffffffffffffffe0\n 31466: a2 = a0 + 0x20\n 31469: a0 = a2 <u a0\n 31472: a3 = a1 + a0\n 31475: a4 = a3 <u a1\n 31478: a4 = a0 if a0 == 0\n 31481: u64 [s1 + 568] = 0\n 31485: u64 [s1 + 0x220] = a2\n 31489: a2 = s1 + 0x200\n 31493: u64 [a2 + 0x58] = a5\n 31496: u64 [s1 + 0x250] = t0\n 31500: u64 [s1 + 0x248] = t1\n 31504: u64 [s1 + 0x240] = t2\n 31508: u64 [a2 + 0x28] = a3\n 31511: a0 = s1 + 0x240\n 31515: a1 = s1 + 0x220\n 31519: u64 [a2 + 0x30] = a4\n 31522: ra = 1240, jump @1072\n      : @1195 [@dyn 620] (gas: 12)\n 31528: a0 = u64 [s1 + 0x88]\n 31532: a1 = u64 [s1 + 0x78]\n 31535: a2 = u64 [s1 + 0x80]\n 31539: a2 = a2 | a1\n 31542: a3 = u64 [s1 + 0x50]\n 31545: a1 = a0 | a3\n 31548: a1 = a1 | a2\n 31551: a1 = a1 >> 0x20\n 31554: a2 = a2 | a3\n 31557: a2 = a2 << 0x20\n 31560: a1 = a1 | a2\n 31563: jump @1226 if a1 != 0\n      : @1196 (gas: 7)\n 31567: u64 [s1 + 536] = 0\n 31571: u64 [s1 + 528] = 0\n 31575: u64 [s1 + 520] = 0\n 31579: a1 = s1 + 0x200\n 31583: a2 = u64 [s1 + 0x58]\n 31586: u64 [s1 + 0x200] = a2\n 31590: ra = 1242, jump @9\n      : @1197 [@dyn 621] (gas: 2)\n 31596: ecalli 13 // 'return_data_size'\n 31598: fallthrough\n      : @1198 (gas: 10)\n 31599: a3 = u64 [s1 + 0x88]\n 31603: a1 = u64 [s1 + 0x78]\n 31606: a2 = u64 [s1 + 0x50]\n 31609: a1 = a1 | a2\n 31612: a2 = 0xffffffe0\n 31622: a2 = a3 <u a2\n 31625: a4 = u64 [s1 + 0x80]\n 31629: a2 = 0 if a4 != 0\n 31631: a2 = 0 if a1 != 0\n 31633: jump @1226 if a2 == 0\n      : @1199 (gas: 3)\n 31637: a1 = a0\n 31639: a0 = a0 >> 0x20\n 31642: jump @1226 if a0 != 0\n      : @1200 (gas: 7)\n 31646: i32 a0 = a3 + 0x20\n 31649: a2 = a1\n 31651: u64 [s1 + 0x80] = a1\n 31655: i32 a1 = a1 + 0\n 31657: u64 [s1 + 0x88] = a1\n 31661: a1 = a2\n 31663: ra = 1244, jump @20\n      : @1201 [@dyn 622] (gas: 10)\n 31669: a1 = s1 + 0x7ff\n 31673: a1 = a1 + 0x31\n 31676: a2 = u64 [s1 + 0x80]\n 31680: u32 [a1 + 0xb0] = a2\n 31684: i32 a0 = a0 + 0\n 31686: a1 = s1 + 0x1000\n 31690: i32 a1 = a1 + 0xfffffffffffff8e0\n 31694: a2 = 0\n 31696: ecalli 12 // 'return_data_copy'\n 31698: fallthrough\n      : @1202 (gas: 5)\n 31699: a0 = s1 + 0x7ff\n 31703: a0 = a0 + 0x31\n 31706: a0 = i32 [a0 + 0xb0]\n 31710: a1 = u64 [s1 + 0x88]\n 31714: jump @1226 if a0 <u a1\n      : @1203 (gas: 2)\n 31718: a0 = u64 [s1 + 0x90]\n 31722: jump @1232 if a0 != 0\n      : @1204 (gas: 3)\n 31726: a0 = s1 + 0x1c0\n 31730: a1 = 0x40\n 31733: ra = 1246, jump @7\n      : @1205 [@dyn 623] (gas: 6)\n 31739: a4 = s1 + 0x100\n 31743: a0 = u64 [a4 + 0xd8]\n 31747: a1 = u64 [a4 + 0xd0]\n 31751: a2 = u64 [a4 + 0xc8]\n 31755: a3 = u64 [a4 + 0xc0]\n 31759: t0 = 1248, jump @1254\n      : @1206 [@dyn 624] (gas: 1)\n 31765: jump @1226 if a0 != 0\n      : @1207 (gas: 9)\n 31769: u64 [s1 + 440] = 0\n 31773: u64 [s1 + 432] = 0\n 31777: u64 [s1 + 424] = 0\n 31781: a1 = s1 + 0x1a0\n 31785: a0 = u64 [s1 + 0x60]\n 31788: u64 [s1 + 0x1a0] = a0\n 31792: a0 = a3\n 31794: u64 [s1 + 0xb8] = a3\n 31798: ra = 1250, jump @9\n      : @1208 [@dyn 625] (gas: 33)\n 31804: u64 [s1 + 312] = 0\n 31808: u64 [s1 + 304] = 0\n 31812: u64 [s1 + 296] = 0\n 31816: a0 = u64 [s1 + 0x68]\n 31819: u64 [s1 + 0x120] = a0\n 31823: u64 [s1 + 344] = 0\n 31827: u64 [s1 + 336] = 0\n 31831: u64 [s1 + 328] = 0\n 31835: a0 = u64 [s1 + 0x70]\n 31838: u64 [s1 + 0x140] = a0\n 31842: u64 [s1 + 376] = 0\n 31846: a0 = u64 [s1 + 0x98]\n 31850: u64 [s1 + 0x170] = a0\n 31854: a0 = u64 [s1 + 0xa0]\n 31858: u64 [s1 + 0x168] = a0\n 31862: a0 = u64 [0x20128]\n 31867: a1 = u64 [0x20130]\n 31872: a2 = u64 [0x20138]\n 31877: a3 = u64 [s1 + 0xa8]\n 31881: u64 [s1 + 0x160] = a3\n 31885: u64 [s1 + 0x198] = a0\n 31889: u64 [s1 + 0x190] = a1\n 31893: u64 [s1 + 0x188] = a2\n 31897: a0 = u64 [0x20140]\n 31902: a1 = 0x20\n 31905: a2 = s1 + 0x180\n 31909: a3 = s1 + 0x160\n 31913: a4 = s1 + 0x140\n 31917: a5 = s1 + 0x120\n 31921: u64 [s1 + 0x180] = a0\n 31925: a0 = u64 [s1 + 0xb8]\n 31929: ra = 0x4ee\n 31933: jump @17\n      : @1209 (gas: 23)\n 31936: a0 = sp + 0xffffffffffffffe0\n 31939: a5 = a0 & 0xffffffffffffffe0\n 31942: sp = a5\n 31944: a1 = u64 [s1 + 0x10]\n 31947: a0 = a1 + 0x2\n 31950: a1 = a0 <u a1\n 31953: a3 = u64 [s1 + 0x18]\n 31956: a2 = a3 + a1\n 31959: a3 = a2 <u a3\n 31962: a3 = a1 if a1 == 0\n 31965: a1 = u64 [s1 + 0x20]\n 31968: a3 = a3 + a1\n 31971: a1 = a3 <u a1\n 31974: a4 = u64 [s1 + 0x28]\n 31977: a4 = a4 + a1\n 31980: a1 = a5\n 31982: u64 [s1 + 0xb8] = a5\n 31986: u64 [a5 + 0x8] = a2\n 31989: u64 [a5] = a0\n 31991: u64 [a5 + 0x10] = a3\n 31994: u64 [a5 + 0x18] = a4\n 31997: a0 = s1 + 0x340\n 32001: ra = 1252, jump @11\n      : @1210 [@dyn 626] (gas: 24)\n 32007: a4 = s1 + 0x300\n 32011: a0 = u64 [a4 + 0x40]\n 32014: a1 = u64 [a4 + 0x58]\n 32017: a2 = u64 [a4 + 0x48]\n 32020: a3 = u64 [a4 + 0x50]\n 32023: a4 = u64 [s1 + 0x60]\n 32026: a4 = a4 + a0\n 32029: a0 = a4 <u a0\n 32032: a5 = a2 + a0\n 32035: a2 = a5 <u a2\n 32038: a2 = a0 if a0 == 0\n 32041: a2 = a2 + a3\n 32044: a0 = a2 <u a3\n 32047: a0 = a0 + a1\n 32050: a1 = s1 + 0x7ff\n 32054: a1 = a1 + 0x31\n 32057: u64 [a1 + 0xf0] = a4\n 32061: u64 [a1 + 0xf8] = a5\n 32065: u64 [a1 + 0x100] = a2\n 32069: u64 [a1 + 0x108] = a0\n 32073: a1 = s1 + 0x7ff\n 32077: a1 = a1 + 0x121\n 32081: a0 = u64 [s1 + 0xb8]\n 32085: ra = 1254, jump @12\n      : @1211 [@dyn 627] (gas: 3)\n 32091: a0 = s1 + 0x320\n 32095: a1 = 0x40\n 32098: ra = 1256, jump @7\n      : @1212 [@dyn 628] (gas: 6)\n 32104: a4 = s1 + 0x300\n 32108: a0 = u64 [a4 + 0x38]\n 32111: a1 = u64 [a4 + 0x30]\n 32114: a2 = u64 [a4 + 0x28]\n 32117: a3 = u64 [a4 + 0x20]\n 32120: t0 = 1258, jump @1254\n      : @1213 [@dyn 629] (gas: 1)\n 32126: jump @1226 if a0 != 0\n      : @1214 (gas: 9)\n 32130: u64 [s1 + 792] = 0\n 32134: u64 [s1 + 784] = 0\n 32138: u64 [s1 + 776] = 0\n 32142: a1 = s1 + 0x300\n 32146: a0 = u64 [s1 + 0x60]\n 32149: u64 [s1 + 0x300] = a0\n 32153: a0 = a3\n 32155: u64 [s1 + 0xb8] = a3\n 32159: ra = 1260, jump @9\n      : @1215 [@dyn 630] (gas: 32)\n 32165: u64 [s1 + 664] = 0\n 32169: u64 [s1 + 656] = 0\n 32173: u64 [s1 + 648] = 0\n 32177: a0 = u64 [s1 + 0x68]\n 32180: u64 [s1 + 0x280] = a0\n 32184: u64 [s1 + 696] = 0\n 32188: u64 [s1 + 688] = 0\n 32192: u64 [s1 + 680] = 0\n 32196: a0 = u64 [s1 + 0x70]\n 32199: u64 [s1 + 0x2a0] = a0\n 32203: u64 [s1 + 728] = 0\n 32207: a0 = u64 [s1 + 0x98]\n 32211: u64 [s1 + 0x2d0] = a0\n 32215: a0 = u64 [s1 + 0xa0]\n 32219: u64 [s1 + 0x2c8] = a0\n 32223: a0 = u64 [0x20108]\n 32228: a1 = u64 [0x20110]\n 32233: a2 = u64 [0x20118]\n 32238: a3 = u64 [s1 + 0xa8]\n 32242: u64 [s1 + 0x2c0] = a3\n 32246: u64 [s1 + 0x2f8] = a0\n 32250: u64 [s1 + 0x2f0] = a1\n 32254: u64 [s1 + 0x2e8] = a2\n 32258: a0 = u64 [0x20120]\n 32263: a1 = 0x20\n 32266: a2 = s1 + 0x2e0\n 32270: a3 = s1 + 0x2c0\n 32274: a4 = s1 + 0x2a0\n 32278: a5 = s1 + 0x280\n 32282: u64 [s1 + 0x2e0] = a0\n 32286: a0 = u64 [s1 + 0xb8]\n 32290: ra = 1262, jump @17\n      : @1216 [@dyn 631] (gas: 9)\n 32296: sp = s0 + 0xfffffffffffff800\n 32300: sp = sp + 0xfffffffffffffe00\n 32304: sp = sp + 0x208\n 32308: a0 = sp + 0x700\n 32312: ra = u64 [a0 + 0xf0]\n 32316: s0 = u64 [a0 + 0xe8]\n 32320: s1 = u64 [a0 + 0xe0]\n 32324: sp = sp + 0x7f8\n 32328: ret\n      : @1217 (gas: 3)\n 32330: a0 = s1 + 0x3a0\n 32334: a1 = 0x40\n 32337: ra = 1264, jump @7\n      : @1218 [@dyn 632] (gas: 11)\n 32343: a1 = s1 + 0x300\n 32347: a0 = u64 [a1 + 0xb8]\n 32351: u64 [s1 + 0xb0] = a0\n 32355: a0 = u64 [a1 + 0xb0]\n 32359: u64 [s1 + 0xa8] = a0\n 32363: a0 = u64 [a1 + 0xa8]\n 32367: u64 [s1 + 0xa0] = a0\n 32371: a0 = u64 [a1 + 0xa0]\n 32375: u64 [s1 + 0xb8] = a0\n 32379: ecalli 13 // 'return_data_size'\n 32381: fallthrough\n      : @1219 (gas: 12)\n 32382: a1 = u64 [s1 + 0xb0]\n 32386: a2 = u64 [s1 + 0xa0]\n 32390: a1 = a1 | a2\n 32393: a3 = u64 [s1 + 0xa8]\n 32397: a2 = u64 [s1 + 0xb8]\n 32401: a2 = a2 | a3\n 32404: a2 = a2 | a1\n 32407: a2 = a2 >> 0x20\n 32410: a1 = a1 | a3\n 32413: a1 = a1 << 0x20\n 32416: a1 = a1 | a2\n 32419: jump @1226 if a1 != 0\n      : @1220 (gas: 2)\n 32422: a1 = a0 >> 0x20\n 32425: jump @1226 if a1 != 0\n      : @1221 (gas: 6)\n 32428: a1 = a0\n 32430: u64 [s1 + 0xa8] = a0\n 32434: i32 a0 = a0 + 0\n 32436: u64 [s1 + 0xb0] = a0\n 32440: a0 = u64 [s1 + 0xb8]\n 32444: ra = 1266, jump @20\n      : @1222 [@dyn 633] (gas: 10)\n 32450: a1 = s1 + 0x7ff\n 32454: a1 = a1 + 0x31\n 32457: a2 = u64 [s1 + 0xa8]\n 32461: u32 [a1 + 0x190] = a2\n 32465: i32 a0 = a0 + 0\n 32467: a1 = s1 + 0x1000\n 32471: i32 a1 = a1 + 0xfffffffffffff9c0\n 32475: a2 = 0\n 32477: ecalli 12 // 'return_data_copy'\n 32479: fallthrough\n      : @1223 (gas: 5)\n 32480: a0 = s1 + 0x7ff\n 32484: a0 = a0 + 0x31\n 32487: a0 = i32 [a0 + 0x190]\n 32491: a1 = u64 [s1 + 0xb0]\n 32495: jump @1226 if a0 <u a1\n      : @1224 (gas: 2)\n 32498: ecalli 13 // 'return_data_size'\n 32500: fallthrough\n      : @1225 (gas: 3)\n 32501: a1 = a0\n 32503: a0 = a0 >> 0x20\n 32506: jump @1236 if a0 == 0\n      : @1226 (gas: 1)\n 32510: trap\n      : @1227 (gas: 9)\n 32511: u64 [s1 + 208] = 0\n 32515: u64 [s1 + 200] = 0\n 32519: u64 [s1 + 192] = 0\n 32523: a0 = 0xa7a9536d00000000\n 32533: a1 = s1 + 0xc0\n 32537: u64 [s1 + 0xd8] = a0\n 32541: a0 = 0\n 32543: ra = 0x4f4\n 32547: jump @9\n      : @1228 (gas: 9)\n 32550: u64 [s1 + 240] = 0\n 32554: u64 [s1 + 232] = 0\n 32558: u64 [s1 + 224] = 0\n 32562: a0 = 0xafa4e2b600000000\n 32572: a1 = s1 + 0xe0\n 32576: u64 [s1 + 0xf8] = a0\n 32580: a0 = 0\n 32582: ra = 0x4f4\n 32586: jump @9\n      : @1229 (gas: 9)\n 32589: u64 [s1 + 1584] = 0\n 32593: u64 [s1 + 1576] = 0\n 32597: u64 [s1 + 1568] = 0\n 32601: a0 = 0x560ff90000000000\n 32611: a1 = s1 + 0x620\n 32615: u64 [s1 + 0x638] = a0\n 32619: a0 = 0\n 32621: ra = 0x4f4\n 32625: jump @9\n      : @1230 (gas: 9)\n 32628: u64 [s1 + 272] = 0\n 32632: u64 [s1 + 264] = 0\n 32636: u64 [s1 + 256] = 0\n 32640: a0 = 0xf4d678b800000000\n 32650: a1 = s1 + 0x100\n 32654: u64 [s1 + 0x118] = a0\n 32658: a0 = 0\n 32660: ra = 0x4f4\n 32664: jump @9\n      : @1231 (gas: 5)\n 32667: a0 = 0x1\n 32670: a1 = u64 [s1 + 0xb8]\n 32674: a2 = 0\n 32676: ecalli 14 // 'seal_return'\n 32678: fallthrough\n      : @1232 (gas: 8)\n 32679: u64 [s1 + 496] = 0\n 32683: u64 [s1 + 488] = 0\n 32687: u64 [s1 + 480] = 0\n 32691: a0 = 0x90b8ec1800000000\n 32701: a1 = s1 + 0x1e0\n 32705: u64 [s1 + 0x1f8] = a0\n 32709: a0 = 0\n 32711: ra = 1268, jump @9\n      : @1233 [@dyn 634] (gas: 3)\n 32717: a0 = u64 [s1 + 0xb0]\n 32721: a0 = i32 [a0]\n 32723: jump @1235 if a0 >u 31\n      : @1234 (gas: 3)\n 32727: a1 = u64 [s1 + 0xb0]\n 32731: u32 [a1 + 0] = 0x20\n 32734: fallthrough\n      : @1235 (gas: 5)\n 32735: a0 = 0x1\n 32738: a2 = 0x4\n 32741: a1 = u64 [s1 + 0xb8]\n 32745: ecalli 14 // 'seal_return'\n 32747: fallthrough\n      : @1236 (gas: 3)\n 32748: a0 = u64 [s1 + 0xb8]\n 32752: u64 [s1 + 0xb0] = a1\n 32756: ra = 1270, jump @20\n      : @1237 [@dyn 635] (gas: 7)\n 32762: i32 a1 = a0 + 0\n 32764: a2 = i32 [s1 + 0xb0]\n 32768: a0 = 0x1\n 32771: ecalli 14 // 'seal_return'\n 32773: a0 = 0\n 32775: ra = 0x4f8\n 32779: jump @26\n      : @1238 [export #0: 'call'] (gas: 2)\n 32782: a0 = 0\n 32784: ra = 1272, jump @26\n      : @1239 [@dyn 636] [export #1: 'deploy'] (gas: 2)\n 32790: a0 = 0x1\n 32793: ra = 1274, jump @26\n      : @1240 [@dyn 637] (gas: 15)\n 32799: a0 = u64 [a2 + 0x8]\n 32802: a1 = i32 [a2 + 0x10]\n 32805: a2 = u64 [a2]\n 32807: a0 = reverse a0\n 32809: a3 = a0 << 0x20\n 32812: a1 = reverse a1\n 32814: a1 = a1 >> 0x20\n 32817: a3 = a3 | a1\n 32820: a0 = a0 >> 0x20\n 32823: a1 = reverse a2\n 32825: a2 = a1 << 0x20\n 32828: a0 = a0 | a2\n 32831: a1 = a1 >> 0x20\n 32834: a2 = s1 + 0x1078\n 32838: jump [t0]\n      : @1241 (gas: 16)\n 32840: a0 = u64 [a2 + 0x8]\n 32843: a1 = i32 [a2 + 0x10]\n 32846: a2 = u64 [a2]\n 32848: a0 = reverse a0\n 32850: a3 = a0 << 0x20\n 32853: a1 = reverse a1\n 32855: a1 = a1 >> 0x20\n 32858: a3 = a3 | a1\n 32861: a0 = a0 >> 0x20\n 32864: a1 = reverse a2\n 32866: a2 = a1 << 0x20\n 32869: a0 = a0 | a2\n 32872: a1 = a1 >> 0x20\n 32875: a2 = s1 + 0x7ff\n 32879: a2 = a2 + 0x79\n 32882: jump [t0]\n      : @1242 (gas: 15)\n 32884: a0 = u64 [a2 + 0x8]\n 32887: a1 = i32 [a2 + 0x10]\n 32890: a2 = u64 [a2]\n 32892: a0 = reverse a0\n 32894: a3 = a0 << 0x20\n 32897: a1 = reverse a1\n 32899: a1 = a1 >> 0x20\n 32902: a3 = a3 | a1\n 32905: a0 = a0 >> 0x20\n 32908: a1 = reverse a2\n 32910: a2 = a1 << 0x20\n 32913: a0 = a0 | a2\n 32916: a1 = a1 >> 0x20\n 32919: a2 = s1 + 0x1878\n 32923: jump [t0]\n      : @1243 (gas: 20)\n 32925: a3 = u64 [s1 + 0xa8]\n 32929: a0 = u64 [a3 + 0x18]\n 32932: a1 = u64 [a3 + 0x10]\n 32935: a2 = u64 [a3 + 0x8]\n 32938: a3 = u64 [a3]\n 32940: a0 = reverse a0\n 32942: u64 [s1 + 0xa0] = a0\n 32946: a0 = reverse a1\n 32948: u64 [s1 + 0x98] = a0\n 32952: a0 = reverse a2\n 32954: u64 [s1 + 0x90] = a0\n 32958: a0 = reverse a3\n 32960: u64 [s1 + 0x88] = a0\n 32964: a0 = sp + 0xffffffffffffffe0\n 32967: a0 = a0 & 0xffffffffffffffe0\n 32970: u64 [s1 + 0xa8] = a0\n 32974: sp = a0\n 32976: a0 = 0x1078\n 32980: a2 = s1 + a0\n 32983: jump [t0]\n      : @1244 (gas: 26)\n 32985: u64 [s1 + 0xc8] = a0\n 32989: a0 = ra - a3\n 32992: a0 = a0 <u a5\n 32995: a1 = ra <u a3\n 32998: a5 = u64 [s1 + 0x98]\n 33002: a4 = ra - a5\n 33005: a4 = a4 - a1\n 33008: a4 = a4 - a0\n 33011: ra = a4 >>a 0x3f\n 33014: a0 = u64 [s1 + 0x90]\n 33018: a0 = ra & a0\n 33021: a1 = u64 [s1 + 0xa0]\n 33025: t2 = a1 - a0\n 33028: a1 = a1 <u a0\n 33031: t1 = a2 - a1\n 33034: a1 = 0 if a2 != 0\n 33036: a0 = a3 - a1\n 33039: u64 [s1 + 0xa8] = a0\n 33043: a1 = a3 <u a1\n 33046: a1 = a5 - a1\n 33049: a3 = u64 [s1 + 0xf8]\n 33053: a5 = u64 [s1 + 0xf0]\n 33057: a2 = a3 | a5\n 33060: a2 = a2 <u 0x1\n 33063: a4 = u64 [s1 + 0xe0]\n 33067: jump [t0]\n      : @1245 (gas: 18)\n 33069: a3 = u64 [s1 + 0xe0]\n 33073: a0 = u64 [a3 + 0x18]\n 33076: a1 = u64 [a3 + 0x10]\n 33079: a2 = u64 [a3 + 0x8]\n 33082: a3 = u64 [a3]\n 33084: a0 = reverse a0\n 33086: u64 [s1 + 0xd8] = a0\n 33090: a0 = reverse a1\n 33092: u64 [s1 + 0xd0] = a0\n 33096: a0 = reverse a2\n 33098: u64 [s1 + 0xc8] = a0\n 33102: a0 = reverse a3\n 33104: u64 [s1 + 0xc0] = a0\n 33108: a0 = sp + 0xffffffffffffffe0\n 33111: a0 = a0 & 0xffffffffffffffe0\n 33114: u64 [s1 + 0xe0] = a0\n 33118: sp = a0\n 33120: jump [t0]\n      : @1246 (gas: 18)\n 33122: a3 = u64 [s1 + 0x60]\n 33125: a0 = u64 [a3 + 0x18]\n 33128: a1 = u64 [a3 + 0x10]\n 33131: a2 = u64 [a3 + 0x8]\n 33134: a3 = u64 [a3]\n 33136: a0 = reverse a0\n 33138: u64 [s1 + 0x58] = a0\n 33141: a0 = reverse a1\n 33143: u64 [s1 + 0x50] = a0\n 33146: a0 = reverse a2\n 33148: u64 [s1 + 0x48] = a0\n 33151: a0 = reverse a3\n 33153: u64 [s1 + 0x40] = a0\n 33156: a0 = sp + 0xffffffffffffffe0\n 33159: a0 = a0 & 0xffffffffffffffe0\n 33162: u64 [s1 + 0x60] = a0\n 33165: sp = a0\n 33167: jump [t0]\n      : @1247 (gas: 15)\n 33169: a3 = u64 [s1 + 0x58]\n 33172: a0 = u64 [a3 + 0x18]\n 33175: a1 = u64 [a3 + 0x10]\n 33178: a2 = u64 [a3 + 0x8]\n 33181: a3 = u64 [a3]\n 33183: a0 = reverse a0\n 33185: a4 = reverse a1\n 33187: a2 = reverse a2\n 33189: a3 = reverse a3\n 33191: a1 = u64 [s1 + 0x60]\n 33194: u64 [a1 + 0x18] = a3\n 33197: u64 [a1 + 0x10] = a2\n 33200: u64 [a1 + 0x8] = a4\n 33203: u64 [a1] = a0\n 33205: jump [t0]\n      : @1248 (gas: 15)\n 33207: a3 = u64 [s1 + 0xf8]\n 33211: a0 = u64 [a3 + 0x18]\n 33214: a1 = u64 [a3 + 0x10]\n 33217: a2 = u64 [a3 + 0x8]\n 33220: a3 = u64 [a3]\n 33222: a0 = reverse a0\n 33224: a4 = reverse a1\n 33226: a2 = reverse a2\n 33228: a3 = reverse a3\n 33230: a1 = u64 [s1 + 0xe0]\n 33234: u64 [a1 + 0x18] = a3\n 33237: u64 [a1 + 0x10] = a2\n 33240: u64 [a1 + 0x8] = a4\n 33243: u64 [a1] = a0\n 33245: jump [t0]\n      : @1249 (gas: 15)\n 33247: a0 = u64 [a3 + 0x18]\n 33250: a1 = u64 [a3 + 0x10]\n 33253: a2 = u64 [a3 + 0x8]\n 33256: a3 = u64 [a3]\n 33258: a0 = reverse a0\n 33260: a4 = reverse a1\n 33262: a2 = reverse a2\n 33264: a3 = reverse a3\n 33266: a1 = u64 [s1 + 0xa8]\n 33270: u64 [a1 + 0x18] = a3\n 33273: u64 [a1 + 0x10] = a2\n 33276: u64 [a1 + 0x8] = a4\n 33279: u64 [a1] = a0\n 33281: a0 = 0x1000\n 33285: jump [t0]\n      : @1250 (gas: 24)\n 33287: a0 = a1 if a2 == 0\n 33290: a2 = u64 [s1 + 0xb0]\n 33294: a3 = a2\n 33296: a1 = a2\n 33298: a2 = u64 [s1 + 0xc0]\n 33302: a3 = a0 if a2 != 0\n 33305: u64 [s1 + 0xc8] = a3\n 33309: a0 = u64 [s1 + 0xa8]\n 33313: a3 = u64 [s1 + 0x90]\n 33317: a0 = a0 | a3\n 33320: a3 = u64 [s1 + 0x80]\n 33324: a0 = a3 if a5 == 0\n 33327: a4 = u64 [s1 + 0xb8]\n 33331: a3 = a4\n 33333: a3 = a0 if a2 != 0\n 33336: u64 [s1 + 0xc0] = a3\n 33340: a0 = u64 [s1 + 0xd0]\n 33344: a0 = 0 if a5 == 0\n 33346: u64 [s1 + 0xd0] = a0\n 33350: u64 [s1 + 144] = 0x15180\n 33357: a0 = u64 [s1 + 0xf8]\n 33361: a2 = a0 + 0xffffffffffffff80\n 33364: a0 = a4\n 33366: jump [t0]\n      : @1251 (gas: 19)\n 33368: a3 = u64 [s1 + 0xd8]\n 33372: a0 = u64 [a3]\n 33374: a1 = u64 [a3 + 0x8]\n 33377: a2 = u64 [a3 + 0x10]\n 33380: a3 = u64 [a3 + 0x18]\n 33383: a0 = reverse a0\n 33385: a1 = reverse a1\n 33387: a2 = reverse a2\n 33389: a3 = reverse a3\n 33391: a3 = a3 + 0x1\n 33394: a4 = a3 <u 0x1\n 33397: a2 = a2 + a4\n 33400: a4 = a3 | a2\n 33403: a4 = a4 <u 0x1\n 33406: a4 = a4 + a1\n 33409: a1 = a4 <u a1\n 33412: a0 = a0 + a1\n 33415: a1 = s1 + 0x2078\n 33419: jump [t0]\n      : @1252 (gas: 18)\n 33421: a1 = a2 + 0x1\n 33424: u64 [s1 + 0xf8] = a1\n 33428: a0 = a1 <u 0x1\n 33431: a0 = a0 + a3\n 33434: u64 [s1 + 0xf0] = a0\n 33438: a0 = a0 | a1\n 33441: a0 = a0 <u 0x1\n 33444: a0 = a0 + t1\n 33447: u64 [s1 + 0xe0] = a0\n 33451: a0 = a0 <u t1\n 33454: a0 = a0 + ra\n 33457: u64 [s1 + 0xe8] = a0\n 33461: a1 = 0xff - a2\n 33465: u64 [s1 + 0xc0] = a1\n 33469: a2 = 0x80 - a1\n 33473: a0 = u64 [s1 + 0xa0]\n 33477: a1 = u64 [s1 + 0x98]\n 33481: jump [t0]\n      : @1253 (gas: 17)\n 33483: a0 = u64 [a3]\n 33485: a1 = u64 [a3 + 0x8]\n 33488: a2 = u64 [a3 + 0x10]\n 33491: a3 = u64 [a3 + 0x18]\n 33494: a0 = reverse a0\n 33496: a1 = reverse a1\n 33498: a2 = reverse a2\n 33500: a3 = reverse a3\n 33502: a4 = a3 + 0x3\n 33505: a3 = a4 <u a3\n 33508: a5 = a2 + a3\n 33511: a2 = a5 <u a2\n 33514: a2 = a3 if a3 == 0\n 33517: a2 = a2 + a1\n 33520: a1 = a2 <u a1\n 33523: a0 = a0 + a1\n 33526: jump [t0]\n      : @1254 (gas: 8)\n 33528: a0 = a0 | a2\n 33531: a2 = a3 | a1\n 33534: a2 = a2 | a0\n 33537: a2 = a2 >> 0x20\n 33540: a0 = a0 | a1\n 33543: a0 = a0 << 0x20\n 33546: a0 = a0 | a2\n 33549: jump [t0]\n      : @1255 (gas: 5)\n 33551: sp = a0\n 33553: i32 a2 = a0 + 0\n 33555: a1 = 0x40\n 33558: a0 = u64 [s1 + 0xb8]\n 33562: jump [t0]\n      : @1256 (gas: 5)\n 33564: sp = a0\n 33566: i32 a2 = a0 + 0\n 33568: a1 = 0x40\n 33571: a0 = u64 [s1 + 0xe8]\n 33575: jump [t0]\n      : @1257 (gas: 8)\n 33577: a0 = u64 [a2 + 0x8]\n 33580: a1 = i32 [a2 + 0x10]\n 33583: a2 = u64 [a2]\n 33585: a3 = reverse a0\n 33587: a0 = a3 << 0x20\n 33590: a1 = reverse a1\n 33592: a1 = a1 >> 0x20\n 33595: jump [t0]\n      : @1258 (gas: 15)\n 33597: t2 = u64 [s1 + 0xa0]\n 33601: t1 = u64 [s1 + 0x98]\n 33605: u64 [s1 + 184] = 0\n 33609: u64 [s1 + 176] = 0\n 33613: a2 = u64 [s1 + 0x88]\n 33617: a1 = 0 if a2 == 0\n 33619: a0 = 0 if a2 == 0\n 33621: u64 [s1 + 0xa8] = a0\n 33625: a3 = u64 [s1 + 0x90]\n 33629: a2 = a3 + 0xffffffffffffffff\n 33632: u64 [s1 + 0x88] = a2\n 33636: a2 = a3 >u 0\n 33638: a2 = a2 + 0xffffffffffffffff\n 33641: u64 [s1 + 0x80] = a2\n 33645: jump [t0]\n      : @1259 (gas: 5)\n 33647: sp = a0\n 33649: i32 a2 = a0 + 0\n 33651: a1 = 0x40\n 33654: a0 = u64 [s1 + 0xf0]\n 33658: jump [t0]\n      : @1260 (gas: 16)\n 33660: a3 = u64 [s1 + 0xf0]\n 33664: a0 = u64 [a3 + 0x18]\n 33667: a1 = u64 [a3 + 0x10]\n 33670: a2 = u64 [a3 + 0x8]\n 33673: a3 = u64 [a3]\n 33675: a0 = reverse a0\n 33677: a4 = reverse a1\n 33679: a2 = reverse a2\n 33681: a3 = reverse a3\n 33683: a1 = u64 [s1 + 0xf8]\n 33687: u64 [a1 + 0x18] = a3\n 33690: u64 [a1 + 0x10] = a2\n 33693: u64 [a1 + 0x8] = a4\n 33696: u64 [a1] = a0\n 33698: a0 = 0x2000\n 33702: jump [t0]\n      : @1261 (gas: 14)\n 33704: a0 = u64 [a2 + 0x8]\n 33707: a1 = u64 [a2]\n 33709: a2 = i32 [a2 + 0x10]\n 33712: a0 = reverse a0\n 33714: a3 = a0 >> 0x20\n 33717: a1 = reverse a1\n 33719: a4 = a1 << 0x20\n 33722: a3 = a3 | a4\n 33725: a0 = a0 << 0x20\n 33728: a2 = reverse a2\n 33730: a2 = a2 >> 0x20\n 33733: a0 = a0 | a2\n 33736: a1 = a1 >> 0x20\n 33739: jump [t0]\n      : @1262 (gas: 14)\n 33741: a0 = u64 [a2 + 0x8]\n 33744: a1 = i32 [a2 + 0x10]\n 33747: a2 = u64 [a2]\n 33749: a3 = reverse a0\n 33751: a0 = a3 << 0x20\n 33754: a1 = reverse a1\n 33756: a1 = a1 >> 0x20\n 33759: a0 = a0 | a1\n 33762: a3 = a3 >> 0x20\n 33765: a2 = reverse a2\n 33767: a1 = a2 << 0x20\n 33770: a1 = a1 | a3\n 33773: a2 = a2 >> 0x20\n 33776: jump [t0]\n      : @1263 (gas: 12)\n 33778: a2 = t2 >> 0x3f\n 33781: a3 = t1 << 0x1\n 33784: a2 = a2 | a3\n 33787: a3 = t2 << 0x1\n 33790: t2 = u64 [s1 + 0xc8]\n 33794: a4 = t2 >> 0x3f\n 33797: a3 = a3 | a4\n 33800: u64 [s1 + 0xa0] = a3\n 33804: ra = u64 [s1 + 0x80]\n 33808: a0 = t1\n 33810: t1 = ra ^ a2\n 33813: jump [t0]\n      : @1264 (gas: 12)\n 33815: a4 = u64 [s1 + 0x88]\n 33819: a0 = a0 & a4\n 33822: a4 = u64 [s1 + 0x78]\n 33825: a1 = a1 & a4\n 33828: a4 = u64 [s1 + 0x90]\n 33832: a2 = a2 & a4\n 33835: a4 = u64 [s1 + 0x80]\n 33839: a3 = a3 & a4\n 33842: a2 = a2 | a3\n 33845: a0 = a0 | a1\n 33848: a0 = a0 | a2\n 33851: jump [t0]\n      : @1265 (gas: 14)\n 33853: a3 = u64 [s1 + 0xd8]\n 33857: a0 = u64 [a3 + 0x18]\n 33860: a1 = u64 [a3 + 0x10]\n 33863: a2 = u64 [a3 + 0x8]\n 33866: a3 = u64 [a3]\n 33868: a0 = reverse a0\n 33870: u64 [s1 + 0xd8] = a0\n 33874: a0 = reverse a1\n 33876: u64 [s1 + 0xd0] = a0\n 33880: a0 = reverse a2\n 33882: u64 [s1 + 0xc8] = a0\n 33886: a0 = reverse a3\n 33888: u64 [s1 + 0xc0] = a0\n 33892: jump [t0]\n      : @1266 (gas: 10)\n 33894: u64 [s1] = a3\n 33896: u64 [s1 + 0x8] = a2\n 33899: u64 [s1 + 0x10] = a1\n 33902: u64 [s1 + 0x18] = a0\n 33905: sp = s0 + 0xffffffffffffffc0\n 33908: ra = u64 [sp + 0x38]\n 33911: s0 = u64 [sp + 0x30]\n 33914: s1 = u64 [sp + 0x28]\n 33917: sp = sp + 0x40\n 33920: jump [t0]\n      : @1267 (gas: 4)\n 33922: a0 = 0x2078\n 33926: a3 = s1 + a0\n 33929: a4 = a3 + 0x400\n 33933: jump [t0]\n      : @1268 (gas: 12)\n 33935: a1 = a1 << 0x1\n 33938: a4 = u64 [s1 + 0xa8]\n 33942: a3 = a4 >> 0x3f\n 33945: a1 = a1 | a3\n 33948: u64 [s1 + 0x98] = a1\n 33952: a3 = a0 >> 0x3f\n 33955: a0 = a4 << 0x1\n 33958: a3 = a3 | a0\n 33961: a0 = t2 << 0x1\n 33964: a4 = u64 [s1 + 0xc0]\n 33968: a1 = a4 >> 0x3f\n 33971: jump [t0]\n      : @1269 (gas: 16)\n 33973: a4 = u64 [a3]\n 33975: u64 [sp + 0x18] = a4\n 33978: a4 = u64 [a3 + 0x8]\n 33981: u64 [sp + 0x20] = a4\n 33984: a4 = u64 [a3 + 0x10]\n 33987: u64 [sp + 0x28] = a4\n 33990: a3 = u64 [a3 + 0x18]\n 33993: u64 [sp + 0x30] = a3\n 33996: s1 = u64 [a2]\n 33998: a3 = u64 [a2 + 0x8]\n 34001: u64 [sp] = a3\n 34003: a3 = u64 [a2 + 0x10]\n 34006: u64 [sp + 0x8] = a3\n 34009: a2 = u64 [a2 + 0x18]\n 34012: u64 [sp + 0x10] = a2\n 34015: jump [t0]\n      : @1270 (gas: 10)\n 34017: a0 = u64 [sp + 0x10]\n 34020: a1 = u64 [sp + 0x18]\n 34023: a2 = 0x100000000\n 34033: a2 = a2 ^ a0\n 34036: a2 = a2 | a1\n 34039: a3 = a0 >> 0x20\n 34042: a3 = a3 <u 0x1\n 34045: a3 = 0 if a1 != 0\n 34047: a3 = 0 if a2 == 0\n 34049: jump [t0]\n      : @1271 (gas: 4)\n 34051: a0 = 0x1878\n 34055: a3 = s1 + a0\n 34058: a4 = a3 + 0x600\n 34062: jump [t0]\n      : @1272 (gas: 4)\n 34064: a0 = 0x2078\n 34068: a3 = s1 + a0\n 34071: a4 = a3 + 0x200\n 34075: jump [t0]\n      : @1273 (gas: 11)\n 34077: a3 = u64 [s1 + 0xc8]\n 34081: a0 = u64 [a3 + 0x18]\n 34084: a1 = u64 [a3 + 0x10]\n 34087: a2 = u64 [a3 + 0x8]\n 34090: a3 = u64 [a3]\n 34092: a0 = reverse a0\n 34094: u64 [s1 + 0xc0] = a0\n 34098: a0 = reverse a1\n 34100: u64 [s1 + 0xb8] = a0\n 34104: a0 = reverse a2\n 34106: jump [t0]\n      : @1274 (gas: 9)\n 34108: u64 [s1 + 0xc0] = a3\n 34112: a1 = 0 if a4 == 0\n 34114: u64 [s1 + 0xc8] = a1\n 34118: u64 [s1 + 152] = 0x15180\n 34125: a0 = u64 [s1 + 0xf0]\n 34129: a2 = a0 + 0xffffffffffffff80\n 34132: a0 = a5\n 34134: a1 = t1\n 34136: jump [t0]\n      : @1275 (gas: 10)\n 34138: a0 = u64 [a3 + 0x18]\n 34141: a1 = u64 [a3 + 0x10]\n 34144: a2 = u64 [a3 + 0x8]\n 34147: a3 = u64 [a3]\n 34149: a0 = reverse a0\n 34151: a1 = reverse a1\n 34153: a2 = reverse a2\n 34155: a3 = reverse a3\n 34157: a4 = 0x2000\n 34161: jump [t0]\n      : @1276 (gas: 11)\n 34163: a2 = u64 [s1 + 0x88]\n 34167: a1 = a1 | a2\n 34170: a2 = u64 [s1 + 0xf8]\n 34174: a3 = a2 <u 0x80\n 34178: u64 [s1 + 0x88] = a3\n 34182: a4 = u64 [s1 + 0x80]\n 34186: a1 = a4 if a3 == 0\n 34189: a4 = u64 [s1 + 0x98]\n 34193: a4 = a1 if a2 != 0\n 34196: u64 [s1 + 0x98] = a4\n 34200: jump [t0]\n      : @1277 (gas: 10)\n 34202: a2 = u64 [s1 + 0x88]\n 34206: a1 = 0 if a2 == 0\n 34208: a0 = 0 if a2 == 0\n 34210: a3 = u64 [s1 + 0x98]\n 34214: a2 = a3 + 0xffffffffffffffff\n 34217: u64 [s1 + 0x90] = a2\n 34221: a2 = a3 >u 0\n 34223: a2 = a2 + 0xffffffffffffffff\n 34226: u64 [s1 + 0x88] = a2\n 34230: jump [t0]\n      : @1278 (gas: 12)\n 34232: a0 = u64 [sp + 0x18]\n 34235: a1 = u64 [sp + 0x10]\n 34238: a2 = u64 [sp + 0x8]\n 34241: a3 = u64 [sp]\n 34243: a4 = a2 | a0\n 34246: a5 = a3 | a1\n 34249: a5 = a5 | a4\n 34252: a5 = a5 >> 0x20\n 34255: a4 = a4 | a1\n 34258: a4 = a4 << 0x20\n 34261: a4 = a4 | a5\n 34264: jump [t0]\n      : @1279 (gas: 8)\n 34266: a0 = u64 [a4 + 0x98]\n 34270: a1 = u64 [a4 + 0xa0]\n 34274: a2 = u64 [a4 + 0x90]\n 34278: a3 = u64 [a4 + 0x88]\n 34282: a1 = a1 | a2\n 34285: a0 = a0 | a3\n 34288: a0 = a0 | a1\n 34291: jump [t0]\n      : @1280 (gas: 8)\n 34293: a4 = a4 | a2\n 34296: a2 = a0 | a1\n 34299: a2 = a2 | a4\n 34302: a2 = a2 >> 0x20\n 34305: a1 = a1 | a4\n 34308: a1 = a1 << 0x20\n 34311: a1 = a1 | a2\n 34314: jump [t0]\n      : @1281 (gas: 12)\n 34316: a0 = u64 [a5 + 0xa0]\n 34320: a1 = u64 [a5 + 0x98]\n 34324: a2 = u64 [a5 + 0x90]\n 34328: a4 = u64 [a5 + 0x88]\n 34332: a0 = a0 | a2\n 34335: a2 = a4 | a1\n 34338: a2 = a2 | a0\n 34341: a2 = a2 >> 0x20\n 34344: a0 = a0 | a1\n 34347: a0 = a0 << 0x20\n 34350: a0 = a0 | a2\n 34353: jump [t0]\n      : @1282 (gas: 6)\n 34355: a0 = u64 [a3 + 0x18]\n 34358: a1 = u64 [a3 + 0x10]\n 34361: a2 = u64 [a3 + 0x8]\n 34364: a3 = u64 [a3]\n 34366: a0 = reverse a0\n 34368: jump [t0]\n      : @1283 (gas: 9)\n 34370: a0 = u64 [a3 + 0x18]\n 34373: a1 = u64 [a3 + 0x10]\n 34376: a2 = u64 [a3 + 0x8]\n 34379: a3 = u64 [a3]\n 34381: a0 = reverse a0\n 34383: a4 = reverse a1\n 34385: a2 = reverse a2\n 34387: a3 = reverse a3\n 34389: jump [t0]\n      : @1284 (gas: 12)\n 34391: a2 = u64 [sp]\n 34393: a3 = u64 [sp + 0x8]\n 34396: u64 [s1] = a2\n 34398: u64 [s1 + 0x8] = a3\n 34401: u64 [s1 + 0x10] = a0\n 34404: u64 [s1 + 0x18] = a1\n 34407: sp = s0 + 0xffffffffffffffc0\n 34410: ra = u64 [sp + 0x38]\n 34413: s0 = u64 [sp + 0x30]\n 34416: s1 = u64 [sp + 0x28]\n 34419: sp = sp + 0x40\n 34422: jump [t0]\n      : @1285 (gas: 12)\n 34424: a4 = u64 [s1 + 0xd8]\n 34428: a0 = a0 & a4\n 34431: a4 = u64 [s1 + 0xc8]\n 34435: a1 = a1 & a4\n 34438: a4 = u64 [s1 + 0xd0]\n 34442: a2 = a2 & a4\n 34445: a4 = u64 [s1 + 0xc0]\n 34449: a3 = a3 & a4\n 34452: a2 = a2 | a3\n 34455: a0 = a0 | a1\n 34458: a0 = a0 | a2\n 34461: jump [t0]\n      : @1286 (gas: 10)\n 34463: sp = sp + 0xffffffffffffffc0\n 34466: u64 [sp + 0x38] = ra\n 34469: u64 [sp + 0x30] = s0\n 34472: u64 [sp + 0x28] = s1\n 34475: s0 = sp + 0x40\n 34478: sp = sp & 0xffffffffffffffe0\n 34481: s1 = a0\n 34483: i32 a0 = sp + 0\n 34485: a1 = 0x4\n 34488: jump [t0]\n      : @1287 (gas: 4)\n 34490: a0 = 0x1878\n 34494: a3 = s1 + a0\n 34497: a4 = a3 + 0x700\n 34501: jump [t0]\n      : @1288 (gas: 7)\n 34503: a3 = u64 [s1 + 0xf8]\n 34507: a0 = u64 [a3 + 0x18]\n 34510: a1 = u64 [a3 + 0x10]\n 34513: a2 = u64 [a3 + 0x8]\n 34516: a3 = u64 [a3]\n 34518: a5 = reverse a0\n 34520: jump [t0]\n      : @1289 (gas: 6)\n 34522: a0 = a0 + a1\n 34525: a1 = a0 <u a1\n 34528: a1 = a1 + a2\n 34531: a2 = s1 + 0x2078\n 34535: a3 = a2 + 0x200\n 34539: jump [t0]\n      : @1290 (gas: 9)\n 34541: a0 = a0 | a1\n 34544: a1 = u64 [s1 + 0xa8]\n 34548: a0 = a1 if a3 == 0\n 34551: a1 = u64 [s1 + 0xa0]\n 34555: a1 = a0 if a2 != 0\n 34558: u64 [s1 + 0xa0] = a1\n 34562: a0 = u64 [s1 + 0xb8]\n 34566: a1 = u64 [s1 + 0xb0]\n 34570: jump [t0]\n      : @1291 (gas: 8)\n 34572: a0 = u64 [a4 + 0x18]\n 34575: a1 = u64 [a4 + 0x20]\n 34578: a2 = u64 [a4 + 0x10]\n 34581: a3 = u64 [a4 + 0x8]\n 34584: a1 = a1 | a2\n 34587: a0 = a0 | a3\n 34590: a0 = a0 | a1\n 34593: jump [t0]\n      : @1292 (gas: 9)\n 34595: sp = sp + 0xffffffffffffffc0\n 34598: u64 [sp + 0x38] = ra\n 34601: u64 [sp + 0x30] = s0\n 34604: u64 [sp + 0x28] = s1\n 34607: s0 = sp + 0x40\n 34610: sp = sp & 0xffffffffffffffe0\n 34613: s1 = a0\n 34615: i32 a0 = sp + 0\n 34617: jump [t0]\n      : @1293 (gas: 2)\n 34619: a3 = a2 & 0x40\n 34622: jump @1297 if a3 != 0\n      : @1294 (gas: 1)\n 34625: jump @1296 if a2 == 0\n      : @1295 (gas: 6)\n 34628: i32 a3 = 0x40 - a2\n 34631: a3 = a1 << a3\n 34634: a1 = a1 >> a2\n 34637: a0 = a0 >> a2\n 34640: a0 = a0 | a3\n 34643: ret\n      : @1296 (gas: 1)\n 34645: ret\n      : @1297 (gas: 4)\n 34647: a0 = a2 + 0xffffffffffffffc0\n 34650: a0 = a1 >> a0\n 34653: a1 = 0\n 34655: ret\n      : @1298 (gas: 2)\n 34657: a3 = a2 & 0x40\n 34660: jump @1302 if a3 != 0\n      : @1299 (gas: 1)\n 34663: jump @1301 if a2 == 0\n      : @1300 (gas: 6)\n 34666: i32 a3 = 0x40 - a2\n 34669: a3 = a0 >> a3\n 34672: a0 = a0 << a2\n 34675: a1 = a1 << a2\n 34678: a1 = a1 | a3\n 34681: ret\n      : @1301 (gas: 1)\n 34683: ret\n      : @1302 (gas: 4)\n 34685: a1 = a2 + 0xffffffffffffffc0\n 34688: a1 = a0 << a1\n 34691: a0 = 0\n 34693: ret\n","bytecode":{"object":"50564d000022a0000000000000010700c1a001c0008003814c8c5429eea693f81e976c2a47cb5638031d6e7e460a43c54553b4e6a10ec9d36bf40443b2a766a42db9815a1e2efa877e5c0519ec4fe51c83c442ba392fca77e27a96c0a237ac310730ce86cab6918a9cee1f20395b3b80e1e34a4eb67d08a74e0dc354af37bd04b03f2522518a6d9314cf35a01b6f25119782e62a75888f78d1be28982eecaa761aff97e6ce55d5613eea1ab831552409f8051f0b480298fcab0000e8890423c78affffe7890423c78a00001876fbdc3875975752f4e33b24c3dceff4c6a46dc4173eb68630b623f1b6b5ef1d0584397d3391535eb615f58f25f5e154f9d3ae7110504aede2dc37ca8e481016d0c9006f760000e8890423c78a00001876fbdc3875f2a8b439f25bd8ebdf119a7090238fa225717e85c68e190f0982ba0d5cabfde394247a18b5e26bbe1d817609543b3c0451c960f58acf6b97ba06c2c9ba61c0412000000004812812000000000400000012000000200000002e000000340000003d0000004a0000005c0000006700000076000000790000008600000096000000a6000000b1000000c3000000ce00000063616c6c63616c6c5f646174615f636f707963616c6c5f646174615f6c6f616463616c6c5f646174615f73697a6563616c6c6572636f64655f73697a656465706f7369745f6576656e746765745f696d6d757461626c655f646174616765745f73746f72616765686173685f6b656363616b5f3235366e6f777265665f74696d655f6c65667472657475726e5f646174615f636f707972657475726e5f646174615f73697a657365616c5f72657475726e7365745f696d6d757461626c655f646174617365745f73746f7261676576616c75655f7472616e73666572726564051302c00e800463616c6cc01680066465706c6f7906c0789d827d02c087876a00b2016a03ff030704d804e004df05e40569067406a106d90631078807c90717085a086608c908f2080609320947096c098a09b709bf097d0b860ba90bd30b6e0c370d3c0d410d620d8c0d940dc30dcb0dea0d2a0e2f0e370e560e8c0ea90eb40eb90ec20eca0efa0e070f610f660fa70fac0fca10e310ff101f1175117b11b6115f128a12cc12d2121f135a138a139013c3133b146314d71441158f159c15cd15d3155b1665168516a9160217081715174d179c17a518bf18dc18fc189b19cc19e919841aa51af81afe1a041b561b6c1b611c7b1c981cb81c4b1d651d821dcd1d541f5a1f941fc11f252058205e209920c020f0200e21502156217621a721c521d221d821e2210f2229228d229322e6221723342395239b23d623fd232d244b248d249324b324e42402250f2515251f254c2566259c25a925ee25f425fa2520262a2646266726b526bb26c826ad27ba27fd2730285c2871287b2829295b29612967298929b129cf29102a162a452aaf2a192b842b992b002c6d2cbe2c082d162d5c2d072e652eb42ed82e272f452f2730443085309a30a430393189318f31a931c63113321d3281338b33ac33d73324342a3463346d348e34b934d734e834f23416353a35443564358f35ad35ba35c03500363736633674367e36a636483752376e379537b337c037c637f9373938573864386a388738da38f5380f395239d3396f3a9c3aec3aa33bc13bdf3bf03bfa3b3b3c683c863cb73cc43c233d723d873d913d063e553e5b3e743e913edd3ee73e2e40ac40014159419c41b041ba41da41fe4130423a4265428e42c34238436f43bc43d943144422445744a044b444be44de44024540454a4563458645d745e445ed454246564660460747144722476847e14733487c48df487349c349954abb4a064b344b5a4be64c0c4d574d604d804df24d3f4e634e194f274f6d4f734fce4f0c50e9501851445119521f52395256527652b852be52d852f552fb5204530a531053165329536f53bf53d953a354a954c354e05400554255485562557f5585558e5594559a55a055b355f955c256ee56f85615571e573e5785578f57d3570a582c587e58a3585459a759b159d159da59fa593d5a435a705aa75ac95ad65adc5afe5a335b4e5b815ba65bb05bcd5bd65bf65b445c515c575c775cae5cd05ce15ceb5cf85c165d2f5d395d595d625d825da45db15db75dd75d0b5e2d5e3e5e485e555e6f5e7c5ed35ed95edf5e1f5f5f5f9f5fa95f33604c60b260c760d160ee60f760176145615661606179619d61df61f461fe6175629e62c662ec62146365639963a363c363cc63ec630e641b642164416476649864a964b364c06416652b653565b265f065f665fc653c6664668266c966d366fc661e67506776679e67c46735687068a468ae681d698469066a296a676aa56a276b5d6ba26b006c066c0f6c2b6c316c3e6c446c4d6c686c6e6c906cab6cb16cc16cc76cd06ceb6cf16cfe6c046d0d6d226de96d1f6e386e5c6ecb6ee96e326f3c6f796fa86fc66f247044705e709070c770e5702b7138713e7163718b71a871b571bb71c571df710b7229724672537259727872a172be72cb72d172db72f1721d733b73587365736b738a73b773d473e173e773f1733f7467748574a274fe7474759c75ba75d775e775f0752c765976767686768f76a776c176fc764977a87709787278b278f078ff78cd79d679c07a287b6c7bb57bfb7b157c3c7c077d5b7d687d7e7da57d287e577ec27ecd7ffa7f16801f809511e87b10107b15087b163306480102390548010251051c3307800103837783680a070139074801022003480102ac5710821010821508821695111832000039084801025108e508330780010383770a0f28d8089511f07b10087b156489647533082064975010022b057c78017c797c7a027c7b03978808d4980897aa1097bb18d4ba0ad4a8087c79057c7a047c7b067c7c07979908d4a90997bb1097cc18d4cb0bd4b909979920d489027c79097c7a087c7b0a7c7c0b979908d4a90997bb1097cc18d4cb0bd4b9097c7a0d7c7b0c7c7c0e7c780f97aa08d4ba0a97cc10978818d4c808d4a808978820d498037c78117c7a107c7b127c7c13978808d4a80897bb1097cc18d4cb0bd4b8087c7a157c7b147c7c167c791797aa08d4ba0a97cc10979918d4c909d4a909979920d4890a7c78197c79187c7b1a7c7c1b978808d4980897bb1097cc18d4cb0bd4b8087c791d7c7b1c7c7c1e7c771f979908d4b90997cc10977718d4c707d49707977720d487076f776fa86f396f2a7b5a187b59107b58087b57821008821595111032009511d87b10207b15187b161082897b19088289087b19828510828618330820501004e3036f686f59821a6faa821b086fbb787b18787a10787908787898bc38787c1f98bc30787c1e98bc28787c1d98bc20787c1c98bc18787c1b98bc10787c1a98bb08787b1998ab38787b1798ab30787b1698ab28787b1598ab20787b1498ab18787b1398ab10787b1298aa08787a11989a38787a0f989a30787a0e989a28787a0d989a20787a0c989a18787a0b989a10787a0a98990878790998893878790798893078790698892878790598892078790498891878790398891078790298880878780182102082151882161095112832009511a07b10587b15507b16489515608411e06476828718828910828a0882886f776f996faa6f887b18187b1a107b19087b17491138491130491128491120481140208318831a20831b403309ff33070a08821738821830821928821a206f776f886f996faa7b6a187b69107b68087b679551a082105882155082164895116032009511a07b10587b15509515608411e08272827a08827b108277188283828908828c108288186f746fbb6faa6f276f826fcc6f996f387b17187b1a107b1b087b147b18387b19307b1c287b12208318831a203309ff330b2033070a109551a0821058821550951160320082186f888219086f99821a106faa821b186fbb7b1b587b1a507b19487b18408218206f888219286f99821a306faa821b386fbb7b1b787b1a707b19687b18608379836a8317403308020a06955160ff8210980082159000821688009511a0003200951120ff7b10d8007b15d0007b16c8009515e0008411e082bc7b1c4082bc087b1c4882bc107b1c5082bb187b1b58501208bc80007b183850100a8e016f687b187882186f887b18708218086f887b18688218106f887b18608218186f887b1898008218206f887b1890008218286f887b1888008218306f887b1880008218406f887b18b8008218486f887b18b0008218506f887b18a8008218586f887b18a0008379811a388317603308030a06955120ff8210d8008215d0008216c8009511e00032009511e0fe7b1018017b1510017b160801951520018411e082c67b166082c6087b166882c6107b167082cc187b1c7882bc7b1c3882bc087b1c4082bc107b1c4882bb187b1b5050120ce27f7b185850100eb5006f687b18980082186f887b1890008218086f887b1888008218106f887b1880008218186f887b18b8008218206f887b18b0008218286f887b18a8008218306f887b18a0008218386f887b18d8008218406f887b18d0008218486f887b18c8008218506f887b18c0008218606f887b18f8008218686f887b18f0008218706f887b18e8008218786f887b18e0008379811a58831780003308040a069551e0fe8210180182151001821608019511200132008b7910520931c8780883881f8488e05638000001253309500102390a500102ae8a093d085001020133086001028377c887073200009511f07b10087b158475010a03013d074c0102510507501010095010126803951160fd951700027b7098007b7590007b7688009515a0028411e04921b8014921b0014921a8014921a0018317a0010a11018217b0018218b8018219a801821aa001d49808d4a707d487075207600239064c010297672098772095771f8477e09578a000d87807492198017b1880017b17880194777b179001330740951880015010142afb3307a000646850101621ff8377646833090a01015316401f02492158014921500149214001a0009517600195184001492148015010182565821778017b1718821770017b1710821768017b170882166001492118014921100149210001c00095172001951800014921080150101aed64821a08821910979720987720d4a608d487075107be01821730017b1738821728017b1728821720017b17301407ffffffff000000007b17207b16e0007b1ae8007b19f000330780009518e0008219187b19f80050101c62fa330660010383670a043a0768010339087001033a096001036f77977a206f88988820d4a8087b18189877206f98978620d467077b17109886204921d8014921d0014921c8014921c001019517c0009518c00150101efdfa8017d4009777208218d800d467074921f8014921f0014921e8014921e00101951900027b98188218107b98088218187b987b97109517e001951800025010203dfb8217288479ff8217308478ff821738821620d27606d46807d49707510776140700000000ffffffff7b1738951700024917384917304917284917209517a0007b1830951820027b19285010226efa8217b8008218b0008477ff821938d29808d46808951a0002491a58491a50491a48491a408219287ba9688219307ba9607ba7787ba8709517400295186002501024acfa95178000330840501026f3f782179800821890008219880082168000d49707d48609d47909989920d48707977720d4970751075e003308600102838833070128a60033086001028388330701289900491150491148491140140700000000c8f5bc149518407b17583307501028caf8390850010256181f0b20035001022001330860010283883307013309040a0e016467330850102aa3fc8377330833090a019517603308800050102c53f7821778821970821a68821b603e079801033e099001033e0a8801033e0b8001032819f76467330850102e63fc8378330733093300300a0e280a33093300300a0e01951110fe7b10e8017b15e0017b16d8019515f0019511f0da8411e0641633023295697818014929a005492998054929880580003307409568001e4929900550103409f833074c01027b67f80039074c010255170407284e5e95670020837720fe33083300360a02330238956a7818280a330238956a78180181a7c40552475bcba58d0a289a1851473466629980079569782051470a9e38a83b035247b00de3d00a28d41b5147074e71e9bd0b52475f53cc0e0a283c1f524786e72a220a28cf10524754ec9b310a28621952471515c5390a281b165147b836cc4824055247aef7914a0a28fe0f5247f498bb4c0a28f60e5147036f124f0a28e714492900014929f8004929f0004929e80095670020837760010a1101956a782082a7f80082a8000182a9f00082aae800d49808d4a707d4870751070628823e8267f80081775617630728863e95670020837780013308040a020195697820959b000182b72082b81882ba0882b910d487077b6af80088a800019498947852080628603e956700208377a0013308240a020195697820959b000182b74082b83882ba2882b930d487077b6ae80088a8000194989478520806283a3e956700208377c0013308440a0201956778208272600195780001828b58828c50828a48d42c07d4ba08d4870752070628193e7c68f8007c69e800ab9806285b3e7b6af8007b6cd0007b6bd8007b62e0007b68c00054180107285c3d5319030728553d7b697833076001037b67c80083777b67a00033003a0a048269c80033023c28ce748269c80050123cc7744929e004959b00047bb8d8007bb7d0009568ff07958841057bbac800330750103eeaf59568ff079588794928c0044928b8044928a8040264893307209568ff07958821054929b004501040c0f59517e08477e07b67f00064713309500102390750010256173f0b200350010240017b69709517e08479e07b69b800649133076001027b679800837783993308407b6780000a09018269b800829718829810829b08829a6f796f8c6fbb6faa8268f0007b8a187b8b107b8c087b899593028267c0007b6bb8007b6a90007b6cb0007b6388007b69a80051070628c5209567ff079577c10450104217f69567ff07957779827050048272600482784804827c58048264d000d34007d8400b7b68688269f800d898087b6860da780b8263d800d83c088269e000d3920ad892077b6858daa807d33c08d4a808da8b0751070628c941c93c07c99208826958c99808d8b709c99808c9b707c94009826a60c9a909826a68826bf800c9ba0a956b782095bc00017bca88007bc990007bc798007bc8a000956800228267f0003300860128f0f54929200449291804492910044929080495670020837780043300440a11330246284e775012464b77501248d079510706289e3c8267f80081775617430728a23c9567e01533004a3302160428407995687810828768057b67f000828770057b67e800808778057b67e0009567c01533004c33022004289a7933024e9569781001959a000582a7487b67f800492940058267e0007ba7388267e8007ba7309568a0158267f0007ba7283307501050d0f333025295687810014928200549281805492808050664893307209568801549291005501054a9f33308500102390750010256173f0b200350010240019517e08479e07b69e00064913307600102837783997b68f0003308407b67e8003300560a09330258280673501258037333025a9569781001492900054929f8044929f004956860158267f8007b97e804330750105c3df38267c00095687810958900047b97e0008267c8007b97d8008267d0007b97d000648a330720956840158269d8007ba9c80450105e07f38268f000818756173f08480840019517e08477e07b67f80050126078743300620a09330264280673501264037395672015501066c3f33302689568781001958900048297c0007b67f8008297b8007b67f0008297b0007b67e8008297a8007b67e0009567001533084050106a5ff1956a781095ac000450126c0a7751070628a3398267e00095a900047b97688267e8007b97708267f0007b97789568e0148267f8007b97800064b77b6bf800330038012852f2492ac007492ab807492ab007492aa8079567002083772033006e0a11330270285c77501270597782b7b80082b8c00082b9b00082baa800d49808d4a707d4870751070628823a8267f80081775617230728863a956700208377403308043300720a02330274281677501274137782b7e00082b8d80082b9d000d48707889801947852080628633a82a7c8077b6738956700208377600a0a01956778208274827af87b6ab000956878188282f0078270e8684768a8958940db470968276808958840db270895878000d44a0adaa709d8870c94ac8ecb8897f000857a01daca0b88b7019577ff9ab89accc9ac0a9a93ef007b68f8008e8c8e78da7c08883c000185cc018ea9dba90cdbb80c7b64a0007b62b800d442088264b000d44009d49808888801d4c808640b948b51080628ea228538ff00826cf800d4c808d47a09d4980852080628d32264029539017b69f000889801c8a8087b68e000d49808888801c8c8087b68d000d8c808c887077b67d8009a38ff007b68c8009a89800064077b62a8008268b80050107676767b67c0007b68f8008267b0008268a0008269c80050107883767b6790007b6888008267c8009579808267a8008268b80050107a67767b6780007b68788269c800889780007b6798008267a8008268b80050107c4776826b98008262d000826cd8008269e000d49c0c826af000d42a0ad4ca0a93b77b67e800510a06280120330b28002295677820492700034927f8024927f0024927e802956700208377600333007e0a1133028000289e73502280009b7382b7f80082a8000382b9f00082bae800d49808d4a707d4870751070628a0388267f80081775617430728a43895672010330082003302160428ec749567ff07957779957900078298b8007b68c8008298b0007b68d8008297a8007b67d00095670020837780033308240a020195677820957c000382cb2082ca1882c91082c8087b69f0007b6be000d4b9077b68f800d4a808d478089888207b6ae800d4a707977720d487075107062836388267c8009777209877209569ff079599794929a0078268d000959a00077ba888008268d8007ba89000956800107ba7980033075020840035ef9568ff079588794928800749287807492868070364893307209568ff079588e10749297007502086000aef3308500102390750010256173f0b200350010240019517e08479e07b69c80064913307600102837783997b68d8003308407b67d000330088000a0933028a0028547250228a0051727b67b0006fa77b67a8009517e08477e07b67c80064719569ff079599798267e000959a00077ba7608267e8007ba7588267f0007ba7509568ff079588c1078267f8007ba748330750208c0075ee9568ff079588798267a800958900077b97408267b0007b97388267b8007b9730648a3307209568ff079588a1078269c0007ba9280750208e003aee8268d800818756173f08480840019517e08477e07b67f800647183793308408267d000330090000a0933029200284073502292003d737b6ce0006f8b7b6be8006f997b69f0006fa77b67f8008268c8007b87187b89107b8b087b8c9567ff079577810750209400c3ee9568ff07958879958900078297207b67d8008297187b67d000829710648c7b67c8008267e0009577018878018269e800c89808d48709889901826af000c8a909d8a90a826bf800c8ba0a82cb08077b6bf800956b782095bc00037bc8307bc7287bc9387bca409567ff07957761079568a023502096004bee9568ff079588798287f0067b67c0008287e8067b67e0009567ff079577410733084050209800f7eb9569ff079599798292e00695980006828cd800828bd0008287c800d42b0ad4c708d4a808988820d4ca0a97aa20d4a8085108062817348268f8007b98a8068268c8007b98b0068268d0007b98b8069568ff0795882107826ad8007b9ac0067b67f0007b6be8007b62d8007b6cf80050209a00bdec8269e8008268f0008267f800826ad800d47a0a140b00000000010000001407e0ffffff00000000d87807949794a752070628a5338387209568ff079588797b6af800648a4928a006492898068268e0007ba888069568ff0795880107492a90067b6be00050209c0053ec8269f0008267e0009577c0d879078268e80094878268f8009487520706284f337c67c0008e78839740956aff0795aa79492a8006492a78067ba868069568ff079588e106492a700650209e0005ec3308608267f0005020a000faef837833096033070a0e281710492900054929f8044929f0044929e80495670020837760053300a2000a113302a40028b86e5022a400b56e82b7f80082a8000582b9f00082bae800d49808d4a707d48707510706287b348267f800817756172307287f3495670020837780053308040a020195677820957c000582c82082c91882ca1082cb087b68587b6a48d48a077b69507b6b40d49b08d4870752070628533433076001037b67800083777b67283300a6000a04826980003302a800281c6a826980005022a800156a49290005959b00047bb8f8007bb7f0009568601d7bbae80033075020aa000feb956878184928e0044928d8044928c8040464893307209568401d4929d0045020ac00ebea9517e08477e07b67f80064713309500102390750010256173f0b200350010240017b69301407ffffffff000000007b67609517e08479e07b69f00064913307600102837783993308407b67383300ae000a093302b000287d6c5022b0007a6c837720fdc867075020b20071eb956778188079a804826760ab790628b7339598017b68708887017b6768d487078877017b67789567001d7b69f0008268f8005020b40039eb956a781880a78c0495ab000482b8980097772082b9900082baa000826b78d4b808826b70d4b707826b68d4b909956b782095bc00057bca407bc9307bc7287bc8389568a0258267f8005020b6006beb8268f0005428fe0008288633956700208377c0050a0a019567782082746005827a58057b6ab8008272500582704805684768a8958940db470968276808958840db270895878000d44a0adaa709d8870c94ac8ecb8897f000857a01daca0b88b7019577ff9ab89accc9ac0a9a93ef007b68f8008e8c8e78da7c08883c000185cc018ea9dba90cdbb80c7b64a000d442086424826bb800d4b009d49808888801d4c8086402948051080628d8278538ff00826cf800d4c808d47a09d4980852080628c1279539017b69f000889801c8a8087b68e000d49808888801c8c8087b68d000d8c808c887077b67d8009a38ff007b68c8009a89800064277b62b00064487b64a8005020b8009c6e7b67c0007b68f8008267b8008268a0008269c8005020ba00a86e7b6790007b6888008267c8009579808267b0008268a8005020bc008b6e7b67207b68188269c800889780007b6798008267b0008268a8005020be006b6e826b98008262d000826cd8008269e000d49c0c826af000d42a0ad4ca0a93b77b67e800510a0628f124330c28eb264929c0004929b8004929b0004929a80095670020837720010a1101956a782082a7b80082a8c00082a9b00082aaa800d49808d4a707d487075107062820328267f800817756170307282432956778204927e0004927d8004927d0004927c8009567ff079577a102956840215020c000ebe89568ff07958879958900028297387b67e8008297307b67f8008297287b67f0009567ff07957781023308405020c2008ee6956aff0795aa7995ac000282cb2082c81882c91082c7085022c400126c51080628c12e8268e800978820988920492a00028268f00095ab00017bb8e8008268f8007bb8f0009568ff07958861027bb9f8007b67f800330038012869e74929a00049299800492990004929880095670020837700010a1101956a782082a7980082a8a00082a9900082aa8800d49808d4a707d487075107062844318267f8008177561703072848319567ff07957741023308405020c600d6e5956aff0795aa7995ac000182cbe00082c8d80082c9d00082c7c8005022c800566b51080628052e3a08a00002492ac001492ab8017ba8a8019568ff0795882102492ab0017b67f8003300380128bee6492aa006492a9806492a9006492a880695670020837700ff3300ca000a113302cc00280e6a5022cc000b6a5022ce00dc6a51070628c2308267f80081775617030728c63095670020837720ff0a0a95677818957900068298c0007b68b8008298b8007b68b0008298b0007b68f8008297a8007b67f000956740033308405020d00004e5956b000382b75882b85082b94882ba405022d2009267510706283e2d7b6a788263b00068379577408260b8006809da07098264f00068479577408262f8006828da270895878000d4030adaa709d8870c94ac8ecb8897f000857a01daca0b88b7019577ff9ab89accc9ac0a9a99ef007b68d8008e8c8e78da7c088eac7b69c80088990001859901dbac09dbb809d43408d4020bd4b808888801d49808644b948b51080628b8338268c8008588ff008269d800d49808d47a09d49808520806289d33826bc80095b9017b69e800889801c8a8087b68e000d49808888801826ad800c8a8087b68d000d8a808c887077b67d8009ab8ff007b68a0009a8980008267f0008268f8005020d400e06a7b6790007b68a8008267b0008268b8008269a0005020d600ec6a7b6788007b6880008267a0009579808267f0008268f8005020d800cf6a7b67707b68688269a000889780007b6798008267f0008268f8005020da00af6a7b68c0008268e0008269d800d489098268e800826ad000d4a808d49808826a980093a77b67c80052080628bb3264a98267a80082688000d4870764ac826868da98078269b800649a64988269a000db970a7b6aa80082679000826a8800d4a707826a70daca07826bb00064badb970a7b6aa0008267c00093c77b67c000492690008051018267e80095798064b75020dc00f6697b6798007b6880008267f0008268f8008269e8005020de00dc697b67707b6888008268e8009a8980008267b0008268b8005020e000e56982698800d498088269e800889a80007b6a8800826b8000daab08826bf800db980b7b6bf800826870d4870782689800daa8078268f000db97087b68f0008267b0008268b8005020e20074698264f0008263f8004926b8004926b00082698800939893977b679800826a900095a9ff7b6988008ea99599ff7b6980000198493f973a01d4a909974a018264a800984b3fd4ba0a7b6af800826080006437d39003d89002826b8800d8ab0cdb320c978801826b980098ba3fd4a8087b68f000987a3f97b701d47a0a974701826ba00098b83fd4870297b801826bc00098b33fd4380397b801826bc80098b43fd4480897bb018267b800d47b0b7b6bc8008267b000d478087b68c000d437087b68a000d427077b67a800c9a007d8c707d8a008826cf000c9c00bc98b0bc97b0b99b03f82679000d270078268f800c97804d87808c989039498c98a077b679800d88a08c98c08826ae800826ce000d4ca09889901826bd000d89b02c99b0988ab01c9bc0c826bd800c92b0b95aaff7b6ce0007b6bd800d4bc027b6ae800d49a0bd42b0a840b017b6bb8007b69d0004926b000520ae0fe2880305147b327d0610a28bf2c49298002492978024929700249296802956700208377e0023300e4000a113302e60028bf655022e600bc6582b77882b8800082b97082ba68d49808d4a707d4870751070628d12c8267f80081775617030728d52c9567ff079577a1053308405020e800c6e09567ff07957779957900058298407b68f8008298387b68f0008298307b68e0008297287b67e8005020ea0045e08267f8008268e000d487078268e800648a8269f000d49808d47808988820d49707977720d4870751070628c2283a098001033a088801033807900103956bff0795bb79492b200595bc00057bc7187bc8109568ff07958881057bc90864a75020ec006fe13308208267e80033003a012860e5492a0007492af806492af006492ae80695670020837760ff3300ee000a113302f00028ae645022f000ab6482b7f80082a8000782b9f00082bae800d49808d4a707d4870751070628ec2b8267f80081775617430728f02b956780053300f20033021604280966826780057b67f000826788057b67e800806790057b67e000956760053300f40033022004286666826760057b67f800492658058267e0007b6750058267e8007b674805956840058267f0007b67400533075020f600a4e04926380549263005492620050733072095682005492628055020f80086e03308500102390750010256173f0b200350010240019517e08479e07b69e00064913307600102837783997b68f0003308407b67e8003300fa000a093302fc0028e05f5022fc00dd5f492618054926100549260805956800058267f8007b67000533075020fe001ee08267c000956a00047ba7f8008267c8007ba7f0008267d0007ba7e8003307209568e0048269d8007ba9e00050200001eddf8268f000818756173f08480840019517e08477e07b67f800502202015d61330004010a093302060128e85f50220601e55f9567c00450200801a4e08267d8047b67f8008267d0047b67f0008267c8047b67e8008267c0047b67e0009567a00433084050200a014bde956b000482b7b80082b8b00082b9a80082baa00050220c01d5605107062881268267e000956900047b9780008267e8007b9788008267f0007b979000956880048267f8007b97980064a77b6af80033003801282ddf956778204927c0024927b8024927b0024927a802956700208377200333000e010a113302100128866250221001836282b7b80082b8c00082b9b00082baa800d49808d4a707d4870751070628d9298267f80081775617030728dd29956878204928e0024928d8024928d0024928c802019567ff079577c1069568402350201201a0df9568ff07958879958900068297587b67e8008297507b67f8008297487b67f0009567ff079577a1063308405020140143dd956aff0795aa7995ac000682cb4082c83882c93082c72850221601c7625108062876258268e800978820988920492a20068268f00095ab00067bb8088268f8007bb8109568ff07958881067bb9187b67f800330038012821de492ae006492ad806492ad006492ac80695670020837740ff330018010a1133021a0128716150221a016e6182b7d80082b8e00082b9d00082bac800d49808d4a707d4870751070628f3288267f80081775617430728f7289567600433001c013302160428cc62826760047b67f000826768047b67e800806770047b67e0009567400433001e0133022004282963826740047b67f800492638048267e0007b6730048267e8007b672804956820048267f0007b67200433075020200167dd4926180449261004492600040533072095680004492608045020220149dd3308500102390750010256173f0b200350010240019517e08479e07b69e00064913307600102837783997b68f0003308407b67e800330024010a093302260128a35c50222601a05c4926f8034926f0034926e8039568e0038267f8007b67e003330750202801e1dc8267c000956a00037ba7d8008267c8007ba7d0008267d0007ba7c8003307209568c0038269d8007ba9c00050202a01b0dc8268f000818756173f08480840019517e08477e07b67f80050222c01205e33002e010a093302300128ab5c50223001a85c9567a0035020320167dd8267b8037b67f8008267b0037b67f0008267a8037b67e8008267a0037b67e00095678003330840502034010edb956b000382b7980082b8900082b9880082ba800050223601985d5107062844238267e000956900037b97608267e8007b97688267f0007b9770956860038267f8007b977864a77b6af80050203801f8db3308208267f80050203a01eddf837833092033070a0e280a33092033070a0e018267f8008177561703072806274929a004492998044929900449298804956700208377000533003c010a1133023e0128975e50223e01945e50224001e65f52070628e02633076001037b67e00083777b67b800330042010a048269e0003302440128575a8269e00050224401505a4929a0007b9898007b979000956800197b9a88003307502046014edb95687818492880004918784918680264893307209568e018491970502048012ddb9517e08477e07b67f80064713309500102390750010256173f0b200350010240017b69b0009517e08479e07b69f00064913307600102837783993308407b67c00033004a010a0933024c0128ca5c50224c01c75c8377c0f8c8670750204e01bedb956778188278607b68d0008278587b68f0008278487b68c8008277507b67e8009517e08477e07b67d8006471956778204927c0044927b8044927b0044927a80495670020837720050a110195677820957a000482a9b00082a8a8008272c00482abb800826ce800c89c0c8267c800c87803d88308c88c0cd39c0ad89c09daa8098268f000c8b8088260d000c80202d8b80ac82a0ac88909d88908c88a04826ae800d3ca08d8ac0bd87307db8b07826af000d8a902d3400bd80408dab208d39a0ad4ba0adba8078268d8007b837b8c087b89107b8418510706288b258267f800502050015adb9567a01833084050205201a0d8956778188278407b68f0008278387b68e8008278307b68d8008277287b67f800956778204927e0044927d8044927d0044927c8049567002083774005330054010a11018267f0008268d800d487078268f800648c8269e800d49808d47808988820d49707977720d4870751070628862050225601585c82b7c80082b8d00082b9d80082bae000956b78187bba207bb9187bb810956880187bb70864c75020580138d98267b80033005a010a048269e00033025c0128bb5a8269e00050225c01b45ad4780298aa206f99979820d4a804989920956378104923e0073a0a2000023a0b2800023a0c3000023a07380002956878187b8a958a00ff7babf8007bacf0007ba7e8007b39d8077b34d00733082095696018956a40187b32c8078267f80033005e01951160ff7b1098007b1590007b1688009515a0008411e082ab7b1b3882ab087b1b3082ab107b1b2882aa187b1a20829a7b1a18829a087b1a10829a107b1a088299187b196486330006286adc33078268c00033090a0e28c93e492a2006492a1806492a1006492a080695670020837780fe330060010a113302620128ab5b50226201a85b50226401ab5d5107062835248267f80081775617230728392495670003330066013302160428195d8267000382680803806910034926f8027b69f0027b68e8029568e0027b67e002330750206801e3d74926d8024926d0024926c002023307209568c0024926c80250206a01c5d79517e08477e07b67d8006471390850010256183f0b200350010240019517e08479e07b69f800649133076001028377839933084033006c010a0933026e0128ba5c50226e01b75c7b6ce8006f8b7b6bf0006f997b69e0006fa77b67f8008268d8007b87187b89107b8b087b8c9567a0025020700141d88267b8027b67d8008267b0027b67d0008267a8027b67c8008267a0027b67c0008267e8009577018878018269f000c8980895697818959a00067ba830d478087ba7288887018268e000c887077ba738d887078268f800c887077ba740956780029568a01e50207201d7d7826798027b67b800826790027b67b000826788027b67a800826780027b67a0008268e800958702d88708826af000c88a09d8a90ada880a8268e000c88a0ad88a08826bf800c8b808956b781895bc00067bc8607bca587bc9507bc748956760029568c01e502074016dd7826778027b679800826770027b6790008268e800958703d88708826af000c88a09d8a90ada880a826868027b68e8008268e000c88a0ad88a08826bf800c8b808826b60027b6be000956b781895bc00067bc880007bca787bc9707bc768956740029568e01e5020760102d7826740027b6788009567200233084050207801c1d495670002827b38827c30827a28827920d4ba07d4c908d47808988820d4c707977720d4870751070628ec1c8267c0007b6700028267c8007b6708028267d0007b671002956800028267d8007b67180264977b69f8007b6af0007b6bd8007b6cd00050207a0194d58268f8008267d800826ad000d47a0a140b00000000010000001407e0ffffff00000000d878078269f000949794a7520706287c1c8387208268a000956c00017bc8e0008268a8007bc8e8008268b0007bc8f0009568e0018269b8007bc9f8007b6ad8007b6bd00050207c0127d5826bd800826af0008268f8008267d0009577c0d8780794a794b752070628231c8387408268e000956a00017ba8c0008268e8007ba8c800826890007ba8d0009568c001826998007ba9d80050207e01d6d48269f8001407a0ffffff00000000d879078268f00094878268d800948752070628cf1b826788009777209878208397604926b8014926b0017b68a0019568a0014926a801502080018cd4330880008267f8005020820180d883783309800033070a0e289cf89517e08478e06481d89307c87c02d8c209da7709c8b909d8b907c8a7077b82087b837b89107b87189567ff07957701057b6868502084012ad59568ff0795887995890004829aa000828098048297900082988800826be000d3ba097b6a48d8ba0c8263d800d8300a7b6a50da9a0c8264d000d3470a7b6758d847077b68608262f800d82802daa207d33008d49808da870c510c06280621c93008826948c9b909826a50c9a909d8780ac9a909c97808826758c94707c92707826a60826bf800c9ba0a956b782095bc00017bca687bc7707bc8787bc980009568e0218267685020860100d58267e800847703826ab8008269b000826ca8005107ac005217012a019517e08478e06481826b8800d8cb07c8790cd89c09da7709c8a909d8a907826a9000c8a7077b68f0007b8c087b8b7b89107b87189567ff079577a1045020880121d49569ff07959979959b000482b73082b8288292400482ba38826bd000c87b0b826cf800c88c0cd88c08c88b0bd37b09d87b07da98078268d800c8a8088269e000c89202d8a809c8290950228a012c587bac287bab307ba7387ba8403307a02228749567ff07957781048268f00050208c01aed39569ff07959979959b000482b71082b8088292200482ba18826bd000c87b0b826cf800c88c0cd88c08c88b0bd37b09d87b07da98078268d800c8a808d8a809826ae000c8a202c8290950228e01b9577bac487bab507ba7587ba8603307c02201c876088267f00050209001c2d328d1008267a0000a048268c8008187107b67f00082877b67e8008287087b67b8000a0b8268c8008269b8007b89088269e8007b898269f0007a8910648a956978208268e000959b00017bb8c0008268d8007bb8b8008268d0007bb8b0008268f8007bb8a8004829c8018e77fc089a787b9800027bb8f8007bb8f0007bb8e80097a820988820977723d487079568202297882098882095696022979920d4890a826b980097bb2098bb2095684022978820d4b80c3308ff3309ff0a7b67f0000a0d018269f00051070628441751090628c81f9567ff079577c1033308405020920133d0956aff0795aa7995ab000382b76082b85882b95082ba4850229401ba525107062866188267f8009569ff07959979959b00037bb7288267d0007bb7308267d8007bb7389568ff079588a1038267e0007bb74064a77b6af800502096010fd18267a000330098010a048269c80033029a012836538269c80050229a012f53956cff0795cc79492cc002492cb802826a787bcaa802826ac0007bcac8023a0a8000023a0b880002492cb002492ce0027bca20037bcb18033a0a9000023a0b980002492cd802492cd0027bca10037bcb080395ca00027ba9f8007ba8f0007ba7e80064c73308209569ff0795998103956aff0795aa6103956bff0795bb4103956cff0795cc2103492700038267f80050209c015bd333078268800033090a0e28b9368267f80082698800d49707826978dab9078263a000643a8262c800db270a7b6af8008267c00082699000d4970782698000dab907826cb00064cadb270a50229e01b9535020a001b2557b6790007b6880008267a8008268b8008269f0005020a20198557b67787b6888008268f0009a8980008267b0008268a0005020a401a15582698800d49808826af00088ab80007b6b880082698000dab9088269b800dba8097b69b800826878d4870782689000dab8078268a800dba70864a97b68a8008267b0008268a0005020a6012e55330b330c5022a80183538263b8008264a800017b6bb80098493f973a01d49a02974a01826bf80098bb3fd4ba0a7b6aa8008269880064847b62b000d329086430d82903826b9000d8ab02db8302974801987a3fd4a8087b68a000980a3f977701d47a0a8267f800977701826bc00098b83fd4870097b801826bc80098b33fd4380397b801826be80098b43fd4480897bb018267b800d47b0b7b6be800d4c8087b68c800d43c087b68c000d40c077b67f800c9a907d82707d8a9088262a000c9290bc98b0bc97b0b99bc3f82679800d2c7078268a800c97804d878088267b000c987039478c98a07d88a08c98208826af0008260e000d40a09889901826bd000d89b02c99b0988ab01c9b000826bd800c92b0b95aaff7b60e0007b6bd800d4b0027b6af000d49a0bd42b0a84cb017b69d000330c520ae0fe8267e800977701d47b0b0184b7ff826838aa780628631a33076001037b67b00083777b67a8003300aa010a048269b0003302ac0128ca4c8269b0005022ac01c34c49298001959b00017bb8787bb7709568ff079588e1017bba6833075020ae01e8cd9568ff079588794928600149285801492848010264893307209568ff079588c101492950015020b001bdcd9517e08477e07b677064713308500102390750010256173f0b200350010240019517e08479e07b69f80064913307600102837783997b68e0003308407b67e8003300b2010a093302b40128a6525022b401a3526f8b6f986fa98267707b69f0007b79187b68f8007b78107b6bd8007b7b087b6cd0007b7c8267a8003300b6010a048269b0003302b80128e84b8269b0005022b801e14b49294001959b00017bb8387bb7309568ff079588a1017bba2833075020ba0106cd9568ff079588794928200149281801492808010464893307209568ff0795888101492910015020bc01dbcc8268e000818756173f08480840019517e08477e07b67c8005022be014b4e3300c0010a09826ac8003302c201287550826ac8005022c2016e5083bb78c86b0b7bba207bb9187bb8107bb7089567ff0795776101956880205020c40170cd9567ff079577798077e8007b67a0008267a8003300c6010a048269b0003302c80128114b8269b0005022c8010a4b4929e0007b98d8007b97d0009568ff07958841017b9ac80033075020ca0130cc9568ff079588794928c0004928b8004928a8000564893307209568ff07958821014929b0005020cc0105cc8268e000818756173f08480840019517e08477e07b67c8005022ce01754d3300d0010a093302d20128664f5022d201634f7b6798006fa77b6790009517e08477e07b67c80064719569ff079599794929a00049299800492990009568ff07958801018267387b97880033075020d40194cb826790009568ff079588797b878000826798007b87788267b8007b8770648a3307209568ff079588e1008269c0007ba9685020d6015dcb8268e000818756173f08480840011407ffffffff000000007b6798009517e08477e07b67c0005022d801bf4c3300da010a09826ac0003302dc0128d14f826ac0005022dc01ca4f8268c8007b8a187b89107b8b087b879517e08477e07b673064719567ff079577c1005020de01e0cb330a01491660491668330c9568ff079588798287607b6790008287587b6788008269d000c8a909d8a907826bd800c8b7077b69587b6750d49707d8a7078269f800c897077b6748d897078269f000c897077b67408287507b6780008287487b677801330801dac8088267a000d8a707857701330901dac7093307db780951091a044926b8004926f0007b6af8008267a8003300e0010a048269b0003302e2012803498269b0005022e201fc484919407b98387b97309568ff079588a1007b9a2833075020e40126ca9567ff07957779491720491718491710647a3307209568ff0795888100491a08035020e601ffc98268e000818756173f08480840019517e08477e07b67d8005022e8016f4b3300ea010a093302ec0128804c5022ec017d4c9567ff079577798268f0007b787b78f8956700107b7868f89568ff079588618267f800956900107b9760f833075020ee019bc98267c000956800107b8758f88267c800956800107b8750f88267d000956800107b8748f83307209568ff079588418269d800956a00107ba940f85020f0015bc98268e000818756173f08480840019517e08477e07b67d8005022f201cb4a3300f4010a093302f60128f7495022f601f4497b8a287b89307b8b387b87409567ff079577219568a0205020f801ffc995670010827728f88477ff005207060195670010827720f88477ff826af8005107fd008269f0008e9788a80001858801db97088e978e9bda970b8267b800da780b7b6bd00083a98033070133085020fa018d4e7b67f0007b68d8008268f8008d89800033070133085020fc014c4e7b67b8007b68c0008169f8007b69c800330733085020fe01584e826bb800d47b0b8267f800887a80007b6ab8008269f000daa90b937b7b6bf0008269c000d489098268d800daa80993797b69d80033070133088269c80050200002154e826bd8008262f000647c648a8267b800937c937a8267d000947b9472947a947c82678800d2270782689000d2b80882698000d2a909d49808826978d2c909d49707d4870751071d82689800826af80028078268980001330c95a701d2870a2858fd7b6ac8007b6cd0007b6bd8007b62f0009567ff0795770182687050200202b3c895670010827718f895680010828810f895690010829908f8956a001082a200f83a0ba800028e7c8e8adb7c0ad82b0b8e9cda9b0cd4780bdbba0c520c1982676095770182689800d287077b6760826af80028843a0ab00002c82a0ad82a0bc8b90c95ccffd39c02d89c09da2b09958bffc8b909d8b90b888801c98707c8b707956878207b8a487b8c507b89587b87609568c0208267705020040298c89517e08478e07b68c00064818267407b87188267487b87108267507b87088267587b879567e00750200602eac7956c000782c7e0003a08a0000282c9f80082cae80082cbf000c87808d87807c87a0cd8ac0ada770ac8ba0ad8ba07c89707956978207b98687b9c707b9a787b9780009568e0208267c000502008021bc882676895770182689800d287077b67688267788269d000d497077b6778826780008269c800d497077b678000826788008269f000d497077b678800826790008269d800d497077b679000826af800286efe8267308268787b78826880007b7808826888007b7810826890007b78188267a8000a048269b00082970881981082996f77977a206f88988820d48a0a9877206f98978920d497079888204926d8077b68d0077b67c8079568c0077b6ac007330750200a02f1c54926b8074926b0074926a007053307209568a0074926a80750200c02d3c58268e000818756173f08480840019517e08477e07b67f80050220e024347330010020a09826af8003302120228464a826af800502212023f4a7b67f0006f877b67d8006f977b67d0006fa77b67c8009517e08477e07b67f8006471492698074926900749268807956880078267387b67800733075020140259c58267c800956a00077ba7788267d0007ba7708267d8007ba768330720956860078269f0007ba960502016022cc58268e000818756173f08480840019517e08477e07b67f000502218029c460a09826af00082a71882a81082a90882aa6f7b6f886f996faa8267f8007b7a187b79107b78087b7b82683050201a0250c69567400733084050201c0296c395670007827b58827c50827a48827940d4ba07d4c908d47808988820d4c707977720d487075207c40b82676882689800d28707492638074926300749262807956820077b67200764977b69f8007b6af0007b6be0007b6cd80050201e0271c48269f8008267e0008268d800d487071408e0ffffff00000000d88908826af00094a894785108660b82676082689800d2780883972049261807492610077b68000795680007492608075020200222c48267a800330022020a048269b0003302240228a5458269b000502224029e45d4780298aa206f99979820d4a8089899204926b8064926b0064926a8068267387b67a0064926d8063a0ab800023a0bc000023a0cc800023a07d000027b6af806956a00067babf0007bace8007ba7e0007ba9d0007ba8c8003308409569e006956ac006956ba0067b62c0068267f80050202602cbc533078268e80033090a0e28ec298267f80082698800d49707826918dab9078263a000643a8262c800db270a7b6af8008267c00082699000d49707826920dab907826cb80064cadb270a50222802ed4650202a02e6487b6790007b68208267b0008268a8008269f00050202c02cd487b67187b6888008268f0009a8980008267b8008268a00050202e02d64882698800d49808826af00088ab80007b6b8800826920dab9088269a800dba8097b69a800826818d4870782689000dab8078268b000dba70864a97b68b0008267b8008268a000502030026448330c330050223202b9468263a8008264b000017b6cb80098493f973a01d49a0c974a01826bf80098bb3fd4ba0a7b6aa800826988007b6cb0006434d3c903d8c902826b9000d8ab0cdb320c978801987a3fd4a8087b68a000984a3f977701d47a0a8267f800977701826bc00098b83fd4870297b801826bc80098b33fd4380397b801826be80098b43fd4480897bb018267b800d47b0b7b6be800d480087b68c800d430087b68c000d420077b67f800c9a907d8c707d8a9088262a000c9290bc98b0bc97b0b99bc3f82679800d2c7078268a800c97804d878088267b000c987039478c98a07d88a08c98208826af0008260e000d40a09889901826bd000d89b02c99b0988ab01c9b000826bd800c92b0b95aaff7b60e0007b6bd800d4b0027b6af000d49a0bd42b0a84cc017b69d0003300520ae2fe8267e800977701d47c00017b60d0009567e01c330840502034022cc0956278188223800495270004827c78827b70827a688e378ec8db37088eb788a9a08599017b6bf800dbb709d43c077b67d800db78095209b60d95a760d8a708826bf800c88b097b6af000d8b90ada880ac8ca0ad8ca08c8830b7b2748047b2950047b2a58043307409568c01c7b2b60047b6ce0007b63e80050203602e8c08269f000826ae000d4a9078268f800826be800d4b808d48707987720d4a808978820d487075207dc07826740956a781895ab00047bb7288267487bb7308267507bb7389568a01c8267587bb74064975020380293c08268f000140a00000000010000001407e0ffffff00000000d878078269f80094978269d800949751078507838720956978184929200449291804492910049568801c7b6ae800826ad0007b9a08047b67e00050203a023bc08268f0008267e8009577c0d878078269f80094978269d800949751073a0783874095697818492900044929f8034929f0039568601c4929e8037b67d80050203c02f8bf82672833003e020a04826980003302400228c73e8269800050224002c03e4929e003959b00037bb8d8007bb7d0009568401c7bbac800330750204202babf956878184928c0034928b8034928a8030364893307209568201c4929b0035020440296bf826830818756173f08480840019517e08477e07b67f80064718379330840826738330046020a09826af80033024802280644826af80050224802ff437b67e8006f877b67d0006f977b67c8006fa77b67c0009517e08477e07b67f800647133024a0295697818014929a003826778959a00037ba798008267687ba790009568001c8267707ba78800330750204c0206bf8267c00095687818958900037b9780008267c8007b97788267d0007b9770648a3307209568e01b8269e8007ba9680350204e02d1be826830818756173f0848084001140700000000ffffffff7b67e8009517e08477e07b67d000647183793308408267380a09826ad00082a71882a81082a90882aa6f7c7b6cb8006f8b7b6bc0006f987b68c8006fa77b67d0008269f8007b97187b98107b9b087b9c9567c01b8268f0005020500222bd956a781895ab000382b76082b85882b95082ba48956b782095bc00057bc780007bc8787bc9707bca689568e0258267f8005020520298bf9517e0847be07b6bf80064b18267b8009577018878018269c000c89808d48709889901826ac800c8a909d8a90a826cd000c8ca0a7bba187bb9107bb8087bb79567a01b8268e000502054029ebc95677818827728038477ff7b67f0009567801b8268f80050205602adbe95697818959a000382a72082a81882a910956a7820826bf00095ac00057bcb88007bc7a0007bc898007bc99000956800268267f80050205802f3be9567601b8268d80050205a0238bc956a781882a7000395ab000282b8f00082b9f80082bae800d48707d4a909d497078e777b67f0009567401b8268f80050205c022fbe956a781895ab000282b7d00082b8c80082b9e00082bad800847700ff826bf000d4b707956b782095bc00057bc9c0007bcab8007bc8a8007bc7b000956820268267f80050205e0267be826728330060020a04826980003302620228c33b8269800050226202bc3b4929c002959b00027bb8b8007bb7b0009568201b7bbaa800330750206402b6bc956878184928a00249289802492888020264893307209568001b492990025020660292bc8268309517e08477e07b67f8006471818755174008480840019517e08477e07b67f00064718379330840826738330068020a09826af00033026a02288e3d826af00050226a02873d8268f8007b8b7b8c087b89107b87189567e01a50206c0223bd9567781882776802957701826860d287077b67f0009567c01a8268f80050206e0200bd956a781895ab000282b75082b85882b96082ba488477ff8488ff8499ff826be800d2ba0a826bf000d4ba0a956b782095bc00057bc9e0007bc8d8007bc7d0007bcac800956840268267f8005020700230bd9567a01a3308405020720276ba33027402956a78180195ac000282c74082c83882c93082cb28d49707d48b09d47909989920d48707977720d4970752079b0282674095a900027b97088267487b97108267507b97189568801a8267587b972064b77b6bf8005020760252bb826728330078020a048269800033027a0228d63c8269800050227a02cf3cd4780298aa206f99979820d4a8089899203a0a0000023a0b0800023a0c100002956778187b7a0002956778187b7bf801956a7818492ac001956778187b7cf0013a0a180002956b78188267787bb7b801956b78188267687bb7b001956b78188267707bb7a801956778187b7ae801956a78187ba9d801956978187b98d001956878187b82c8013308209569601a956a401a956b201a956778184927e0018267f80050207c02cabc9567001a33084050207e0246b9956a781895ac000150228002f03e52078b01492a800182677095a900017b97688267687b97709568e0198267787b977864b77b6bf800330038012840ba0a0d7b67a8009567ff079577610433084050208202f2b8956cff0795cc7982c200047b62b00082c3f8037b63980082c4f0037b64b80082c0e8037b60e8008268a80095871fd887088477e0957920d87907c8780ad88a0bda770b492cc0037bc9a8037bc2e0037bc3d8037bc4d0037bc0c8037bcab0039567ff07957741049568ff07958821047bcbb8035020840247258267e8008268b0008269b800d48909826a9800d4a708d49808988820d4a909979920d498085208a700956aff0795aa79492aa003492a9803492a90039568ff07958801048269a8007ba988035020860261b90a0d01826ae8008268b00082699800d498081409e0ffffff00000000d89a09826bb80094b99489510953647898772052074b83a72064897b68b80083887b68e8006498502088021abd956878208269b8007a8908028377956800208388800233090a0c0195677820817708028269f0008268e800ac87062866e7009569ff079599794929f8044929f004140700000000223ab6fc7b9700059568ff07958861054929e804330750208a02b5b8390850010256181f122003500102203308600102281b0533086001022813053308600102838833070133090a0e28f01e3308600102838833070133090a0e28df1e3308600102838833070133090a0e28ce1e3308600102838833070133090a0e28bd1e9569ff079599794929580249295002140700000000c611522c7b9760029568ff079588c10249294802330750208c0221b8390850010256181f1220035001022033086001022887043308600102287f049569ff079599794929780249297002140700000000223ab6fc7b9780029568ff079588e10249296802330750208e02d1b7390850010256181f1220035001022033086001022837043308600102282f043308600102838833070133090a0e280c1e3308600102838833070133090a0e28fb1d3308600102838833070133090a0e28ea1d3308600102838833070133090a0e28d91d3308600102838833070133090a0e28c81d3308600102838833070133090a0e28b71d3308600102838833070133090a0e28a61d3308600102838833070133090a0e28951d3308600102838833070133090a0e28841d3308600102838833070133090a0e28731d3302900295697818014929b8004929b0001407000000003bc167cc7b97c000956820194929a800330750209202d9b6390850010256181f122003500102203308600102283f033308600102283703956778184927f8004927f0004927e8006479140700000000717b484e956860197b9700013307502094028eb6956878184928e0004928d8004928c800116489330704956840194929d0003300a8022866b63302960295697818014929180149291001140700000000dd7c98e97b97200195688019492908013307502098023ab6826730817756171f188268304808203307013309048268380a0e2817033307013309048268380a0e2809033308600102838833070133090a0e28691c3308600102838833070133090a0e28581c3308600102838833070133090a0e28471c3308600102838833070133090a0e28361c3308600102838833070133090a0e28251c3308600102838833070133090a0e28141c52476eeb149c04039567782049276003492758034927500349274803956700208377c0030a1101956a782095ab000382b75882b86082b95082ba48d49808d4a707d487075107fa033308600102838833070133090a0e28bb1b3308600102838833070133090a0e28aa1b3308600102838833070133090a0e28991b3308600102838833070133090a0e28881b3308600102838833070133090a0e28771b3308600102838833070133090a0e28661b3308600102838833070133090a0e28551b3308600102838833070133090a0e28441b3308600102838833070133090a0e28331b3308600102838833070133090a0e28221b33029a0295697810014929780749297007140700000000c611522c7b9780079568e01749296807330750209c0288b4390850010256181f12200350010220330860010228ee00330860010228e600956778104927b8074927b0074927a8076479140700000000717b484e956820187b97c007330750209e023db43302a00295687810014928a007492898074928880711648933070495680018492990075020a20214b48267b000817756173f0c8268b000480840013307013309248268c0000a0e013308600102838833070133090a0e284f1a3308600102838833070133090a0e283e1a9569ff079599794929980149299001140700000000635bb2d57b97a0019568ff07958801024929880133075020a402a2b3390850010256181f112003500102203308600102280833086001020183883307013309040a0e01492258014922500149224801140700000000717b484e9568c0197b27600133075020a60255b3956878184928400149283801492828014164893307049568a019492930015020a80231b3826730817756173f178268304808403307013309248268380a0e280e3307013309248268380a0e019569ff079599794929980249299002140700000000b878d6f47b97a0029568ff07958801034929880233073300b40228d4b29569ff079599794929780449297004140700000000b878d6f47b9780049568ff079588e1044929680433073300b40228a2b25247275914a04d956778204927a00349279803492790034927880395670020837700043300aa020a1101956a782095ab00035022ac02b93651071e013308600102838833070133090a0e28c31852473a6750b625019567782049274004492738044927300449272804956700208377a0043300ae020a113302b0022818355022b002153582b73882b84082b93082ba28d49808d4a707d48707510736013308600102838833070133090a0e2862184926b800018267c800977701826bb800d47b0b01492638034926300349262803956820037b6b20038267785020b202c6b133082082677833003a0128b8b59569ff07959979492978034929700314070000000018ecb8907b9780039568ff079588e1034929680333075020b40288b1826770817756171f0b82687048082001330701330904826880000a0e018267f8008177561763ab003308600102838833070133090a0e28ba178267f800817756174365033308600102838833070133090a0e289e1752478be3fdf2d90595677820492700064927f8054927f0054927e80595670020837760060a1101956a782095ab000582b7f80082a8000682b9f00082bae800d49808d4a707d487075107ee053308600102838833070133090a0e2841178267f8008177561723ef053308600102838833070133090a0e282517956700113300b6023302160428b935956878108287a0007b6770828798007b6768828790007b6760828788007b67509567e0103300b80233022004280e3695687810828780007b67588287787b67488287707b67408287687b67789567c0103300ba023302260428e235956878108287607b67388287587b67308287507b67288287487b6720956700208377e0030a0a019567782082728003827b78037b6bb80082747003827a68037b6aa000682768b8958940db2709684768a8958840db470895878000d42b0adaa709d8870c94ac8ecb8897f000857a01daca0b88b7019570ff9ab39accc9ac0a9a99ef008e3c8e07da0c07889c000185cc018ea8dba80cdbb70c7b6498007b62b000d42407826ba0008268b800d4b808d48707887701d4c707947b5207e0068597ff00d43707d40a08d487075107cf065022bc027a305020be0222357b67a8007b68c8008267b8008268b0008269c0005020c0022e357b6790007b6888008267c0009579808267a000826898005020c20211357b6780007b68188269c000889780007b67108267a000826898005020c402f1347b68d0008268f0008269e800d489098268f800826ae000d4a808d49808826a1093a77b67d80051082e0664a98267c80082688800d4870764ac8268185022c602552f5020c80283347b67a8007b6880008267a000826898008269f8005020ca0269347b67187b6888008268f8009a8980008267b8008268b0005020cc0272345022ce027e328268185022d002ef335020d20237345022d40233305022d602e230d89002826b8800d8ab0cdb320c5022d8026c31d4870297b801826bd00098b33fd4380397b801826bd80098b43fd4480897bb018267b800d47b0b7b6bd8008267b000d478087b68d000d437087b68c000d427075022da02702dd89b02c99b0988ab01c9bc0c826be800c92b0b95aaff7b6cf0007b6be800d4bc027b6af800d49a0bd42b0a840b017b6bb8007b69e0004926b000520a67ff2822059567c0143300dc023302300428e33295677810827748047b67789567a0143300de0233022004284d3395677810827728047b677095670020837720040a0a01956778208272c003827bb8037b6bb8008274b003827aa8037b6aa000682768b8958940db2709684768a8958840db470895878000d42b0adaa709d8870c94ac8ecb8897f000857a01daca0b88b7019570ff9ab39accc9ac0a9a99ef008e3c8e07da0c07889c000185cc018ea8dba80cdbb70c7b6498007b62b000d42407826ba0008268b800d4b808d48707887701d4c70764b894787b68e8005207f4048597ff00d43707d40a08d487075107e3045022e002f02d5020e20298327b67a8007b68c8008267b8008268b0008269c0005020e402a4327b6790007b6888008267c0009579808267a000826898005020e60287327b6780007b68688269c000889780007b67608267a000826898005020e80267327b68d0008268f0008269e800d489098268f800826ae000d4a808d49808826a6093a77b67d80051083e0464a98267c80082688800d4870764ac8268685022ea02cb2c5020ec02f9317b67a8007b6880008267a000826898008269f8005020ee02df317b67687b6888008268f8009a8980008267b8008268b0005020f002e8315022f202f42f8268685022f40265315020f602ad315022f802a92d5022fa02582ed89002826b8800d8ab0cdb320c5022fc02e22ed4870297b801826bd00098b33fd4380397b801826bd80098b43fd4480897bb018267b800d47b0b7b6bd8008267b000d478087b68d000d437087b68c000d427075022fe02e62ad89b02c99b0988ab01c9bc0c826be800c92b0b95aaff7b6cf0007b6be800d4bc027b6af800d49a0bd42b0a840b017b6bb8007b69e0004926b000520a67ff28320352474a45080e6908956778184927e0054927d8054927d0054927c80595670020837740fe0a11956a78180195ab000582b7d80082b8e00082b9d00082bac800d49808d4a707d48707510772083308600102838833070133090a0e2868118267f800817756172373083308600102838833070133090a0e284c119567c017330000033302300428e02f95677810827748077b67e00033076001037b67e80083777b67d800330002030a048269e800330204032834298269e800502204032d2949294007959b00077bb8387bb7309568a0177bba283307502006037faa330208039568781001492820074928180749280807036489330720956880174929100750200a0356aa33075001027b67f800390750010256173f0c8268f800480840019517e08479e07b69d00064913307600102837783993308407b67f00033000c030a09826ad00033020e0328b12e826ad00050220e03aa2e7b67c8006f877b67c0006f977b67b8006fa77b67b0008267e00097772098792095677810492700074927f8064927f006956860177b69d0007b79e806330750201003c1a98267b00095687810958900067b97e0008267b8007b97d8008267c0007b97d000648a330720956840178269c8007ba9c806502012038aa98267f800817756173f0c8267f800480740019517e08477e07b67e00050221403492b0a09826ae00082a782a80882a91082aa186f776f8c6f996faa951be084b8e0648195aa0188ab01c8b909d49a0b88bb01c8cb0bd8cb0cc8c7077b89087b8a7b8b107b8718956720177b68e0005020160308aa956778108277a8065107bd07956878108288b0068489ff005109dd073302180395697810014929980649299006140700000000c884c1c17b97a006956800174929880633073300b20328c7a84926b800018267d800977701826bb800d47b0b01826778aeb797099567ff07957779826820957900077b98c8008268787b98e800956a78108268507ba8088268287b98d0008268407b98f0008268607ba8108268307b98d8008268487b98f8008268687ba8188268387b98e0008267587ba7956780109568601095694010826b707bab2050201a030e1533086001028388330733090a0e289b0e4926b800018267d8009777018268b800d487077b67e800018267e800826870ab783a0933076001037b67e00083777b67b80033001c030a048269e00033021e03287b268269e00050221e03742649290004959b00037bb8f8007bb7f000956860147bbae800330750202003c3a73302220395687810014928e0034928d8034928c803036489330720956840144929d003502024039aa733075001027b67f800390750010256173f0c8268f800480840019517e08479e07b69d80064913307600102837783993308407b67f000330026030a093302280328032a50222803002a826778977720987920956778104927c0034927b8034927b003956820147b69b0007b79a803330750202a0324a78267c00095687810958900037b97a0008267c8007b9798008267d0007b979000648a330720956800148269d8007ba9880350202c03eda68267f800817756173f0c8267f800480740019517e08477e07b67d80050222e03ac28330030030a0933023203288527502232038227958c00037bcac8007bc9d0007bcbd8007bc7e0009567e013956840245020340388a795677810827768038477ff51070208956778107c7770035207f6078268b000888700017b67a800838980330701330850203603342c7b67d8007b68d0008268b0008d898000330701330850203803f32b8269b000889a80007b6ac000826bd800daab0793977b67d8008267d000daa70893987b68d0008399330701330850203a03e62b8269c00093977b67c80093987b68c0008267b80033003c030a048269e00033023e03287c248269e00050223e03752449294003959b00037bb8387bb7309568a0137bba28330750204003c7a53302420395687810014928200349281803492808030564893307209568801349291003502044039ea58267f800817756173f0c8268f800480840018267c0008268a80093877b67c0008267c80093877b67c8008267d00093877b67d0008267d80093877b67d8009517e08477e07b67a800502246033127330048030a0933024a03284f2450224a034c24492900034929f8024929f002956860138267e8007b97e802330750204c031da58267880095687810958900027b97e000826790007b97d800826798007b97d000648a330720956840138269a0007ba9c80250204e03e6a48267f800817756173f0c8267f800480740019517e08477e07b67a00050225003a526330052030a09826aa00033025403280125826aa00050225403fa2483772003c86707502056038ea5956a781095ab000282b7b80082b8a80082b9c00082bab000502258036829510725068267b80033005a030a048269e00033025c0328f3228269e00050225c03ec224929a002959b00027bb898007bb79000956800137bba8800330750205e033ba43302600395687810014928800249287802492868020664893307209568e012492970025020620312a48267f800817756173f0c8268f800480840019517e08477e07b67a80050226403d125330066030a093302680328ef2250226803ec224929600249295802492950029568c0128267e8007b974802330750206a03bda38267880095687810958900027b9740826790007b9738826798007b9730648a3307209568a0128269a0007ba9280250206c0389a38267f800817756173f0c8267f800480740019517e08477e07b67a00050226e034825330070030a09826aa0003302720328a423826aa000502272039d2383778002c867075020740331a4956a781095ab000282b71882b80882b92082ba10502276030f28510715053302780395697810014929f8014929f001140700000000f08982c97b970002956860124929e80133073300b20328eea25247589c72401c0795677818492720074927180749271007492708079567002083778033007a030a1133027c0328ea2750227c03e72750227e033328510732073308600102838833070133090a0e280b098267f800817756172333073308600102838833070133090a0e28ef089567e01d330080033302160428832795687818958900058297787b67e0008297707b67f8008297687b67f0009568782049282006492818064928100649280806019567c01d956880265020820327a395687818958900058297607b67e8008297587b67c8008297507b67d8008297487b67d00033076001037b67c0008377330084030a048269c00033028603280c248269c0005022860305248269c800649b979920989920d398088269d000d39707d487078268d800d3a808d4870752077b078267e0009777209877208268f8008269f000d49808d478085108ad0798b820978820d4870795697820492940064929380649293006959a0006491a28018268f0007ba8488268f8007ba8508268e8007ba8607ba7589567a0269568c02650208803d4a233086001028388330733090a0e28bc0733028a03956978100149299805492990051407000000006d53a9a77b97a005956800164929880533073300b203281ea11409ffffffff000000007b69c800956a781082a9b80682aac006868801956b782095bc00047bc7487bc9587bc8507bca609568c0248267e00050208c0355a28267d80033008e030a048269e80033029003285b1f8269e80050229003541f49298006959b00067bb8787bb7709568e0167bba68330750209203a6a03302940395687810014928600649285806492848060264893307209568c01649295006502096037da09517e08477e07b67e00064718267f800817756173f0c8268f800480840019517e08477e07b67f80050229803302233009a030a09826af80033029c03287821826af80050229c0371218268e0007b8b7b8c087b89107b87189567a01650209e030da195677810827728068268c800c88707d287077b67f800956780168268e0005020a003e9a0956a781080a70c0697772095ab000682b82082b91882ba10826bf800d4b707956b782095bc00047bc880007bc9787bca707bc7689568e0248267e0005020a20328a18267d8003300a4030a048269e8003302a6032838218269e8005022a6033121d4780298aa206f99979820d4a808989920826ad000956778107b7aa8053a0a4000023a0b4800023a0c5000027b7a00067b7bf8054927c005957b00057bbcf0003a0a5800024927b8054927b0054927e0057bbae8007bb9d8007bb8d00095696016956a4016956b20167b72c805330733085020a8035ca1283d0395697810491938491930140700000000d94b11cf7b97409568a01049192833075020aa03f69e390850010256181f122003500102203308600102285ceb33086001022854eb3302ac0395697810014929180449291004140700000000635bb2d57b972004956880144929080433075020ae03a89e390850010256181f122003500102203308600102280eeb33086001022806eb3302b003956978100149295803492950031407000000006d53a9a77b9760039568c0134929480333073300b20328569e956978104929b8004929b000140700000000b6e2a4af7b97c000956820114929a80033075020b2032f9e8267f800817756171f0c8268f800480820013307013309048268f0000a0e018267b8003300b4030a048269e0003302b60328891c8269e0005022b603821c4929e001959b00017bb8d8007bb7d000956840127bbac80033075020b803d19d3302ba0395687810014928c0014928b8014928a801066489330720956820124929b0015020bc03a89d8267f800817756173f0c8268f800480840019517e08477e07b67a8005022be03671f3300c0030a093302c20328851c5022c203821c4929a0014929980149299001956800128267e8007b97880133075020c403539d8267880095687810958900017b978000826790007b9778826798007b9770648a3307209568e0118269a0007ba968015020c6031e9d8267f800817756173f0c8267f800480740019517e08477e07b67f8005022c803dd1e3300ca030a09826af8003302cc0328391d826af8005022cc03321d8377c001c867075020ce03c69d956a781095ab000182b74882b85082b95882ba60826bc800d4b707826bc000d4b808826bd800d4b909826bd000d4ba0a956b78207bba000495ba00037ba9f8007ba8f0007ba7e800956860248267a8005020d003f19d8267b8003300d2030a048269e0003302d40328a51e8269e0005022d4039e1e956c7810492ce000492cd800492cd000826ae8007bcac800826ab0007bcae8003a0a6000023a0b680002492c0001492cf8007bca40017bcb38013a0a7000023a0b780002492cf000492c20017bca300195ca00017bab287ba9187ba81064c89569a011956a8011956b6011956c40117b870801330733085020d603e29e33078268f00033090a0e2840025247628718682402956778204927a00249279802492790024927880295670020837700033300d8030a113302da0328231f5022da03201f5022dc03e41f51070f023308600102838833070133090a0e28ee018267f80081775617230f023308600102838833070133090a0e28d201956780013300de0333021604286620826780018268880180699001492678017b6970017b686801956860017b67600133075020e003309b4926580149265001492640010433072095684001492648015020e203129b33075001027b67f800390750010256173f0c8268f800480840019517e08479e07b69e800649133076001027b67f000837783993308403300e4030a09826ae8003302e60328941e826ae8005022e6038d1e83bb78f8c86b0b7bba000695ba00057ba9f8007ba8f0007ba7e800956720019568601e5020e8038a9b8067200149261801492610017b6700013307800095680001492608015020ea03769a8267f800817756279f00188268f8004808a0008267f00083788000287bbe8267f000837880002870be3302ec0395697818014929380549293005140700000000c583c45f7b9740059568a01d4929280533075020ee031e9a390850010256181f1220035001022033086001022884e63308600102287ce63302f00395697818014929180549291005140700000000c8f5bc147b9720059568801d4929080533075020f203d099390850010256181f1220035001022033086001022836e63308600102282ee68267f8008177015107123308600102838833070133090a0e0133086001028388330733090a0e28f38267f800817756176305023308600102838833070133090a0e28d8956780063300f40333021604286d1e826790067b67e800826788067b67f000826780067b67f800956878184928400749283807492830074928280701956760069568a01f5020f603169a826768067b67e000826760067b67d800806770067b67d00033076001037b67c80083773300f8030a048269c8003302fa0328071b8269c8005022fa03001b8269d000d398088269d800d39707d487078268e000d3a808d4870752076e028267e8009777209879208267f8008268f000d487077b69e800d49707510793021407ffffffff000000007b67e0009567781849276007492758074927500749274807956720069568c01f5020fc036999826830067b68c800826728067b67d800826720067b67d000826738069888209788208269e800d498089569781849298007492978074929700749296807826af000959b00077bba9000826af8007bba88007bb7a0007bb898009567e01f956800205020fe0383998267d0008477ff8269d8008498ff8269e000826ac800d2a9094926d805826ae800956b00057bbad000826af0007bbac800826af8007bbac0004926f8057bb9f0007bb8e8003a08d800023a09e000023a0ae800027bb7e000956c00067bc8187bc9107bca083a07f0000295690006956ae005956bc0057bc73307330850200004cb9933086001028388330733090a0e28e9fd9567ff0795776106330002043302160428791c9568ff07958879958900058297e8007b67f8008297f0007b67f0008297f8007b67e800828700067b67e0009567ff0795774106330004043302200428bf1c9568ff07958879958900058297c8007b67d8008297d0007b67d0008297d8007b67c8008297e0007b67c0009567ff0795772106330006043302260428811c956bff0795bb7995bc000582c7a80082c8b00082c9b80082cac0007bca607bc9587bc8507bc7488267c0007bc780008267c8007bc7788267d0007bc7708267d8007bc7688267e0007bc7a0008267e8007bc798008267f0007bc790009567ff07957701069568ff079588e1059569ff079599c105826af8007bca8800502008043b0333086001028388330733090a0e28c8fc492650064926480649264006140700000000c583c45f956840067b675806330750200a043796390850010256181f122003500102203308600102289de233086001022895e24926b0054926a8054926a005140700000000920575dd9568a0057b67b805330750200c04f295390850010256181f1220035001022033086001022858e233086001022850e29511c07b10387b15307b16289515408411f0828910828a18828b088288d4ba0ad4980bd4ab0b98bb20d4a909979920d4b90952091e6476641750200e045a9450221004e118510a0c502212044e1a320000330860010283883307013309330014040a0e3302160428771a50221604741a330018040a0233021a0428a61850221a04a318510a0b50221c04101a320033086001028388330701330933001e040a0e3302200428be1a50222004bb1a3308240a0201821718821810821908d4780a889b0194ab510b0d821a50222204dc173200330860010283883307013309330024040a0e33022604287b1a50222604781a330844330028040a0233022a0428fa1850222a04f718520b0b50222c049c17320033086001028388330701330933002e040a0e3302300428b71950223004b419330032040a023302340428bd1850223404ba18520b0b502236045f173200330860010283883307013309330038040a0e01951170ff7b1088007b1580007b1678951590008411f064728289827408828c088273959a1fd89a00c80c0984aae07b1308c8a303d8a30bc8490ac8ba0ad39a06d89a07da6b07822b18d8c90c828610822210828818da000cc86c0cd86c06c82c09c89707d8c90cd89709c8b808c86808c8c808c8980c8ec88e79dbc809d4c7088ea6db8906520657821808d88308d34a09d84a06da9806d82708d3bc09d8bc0bda980bd32708d49808da860b520b307b13507b1a587b17603307409518507b1c6850203a04ab93955170ff8210880082158000821678951190003200491140491138491130140700000000717b484e9518307b1748330750203c0475934911284911204911104133070495181049111850203e045c93390850010256183f0b2003500102400133086001028388330701330924330040040a0e01951108f8951a00077ba0f0007ba5e8007ba6e0009515f8079511f8fd8411e0641682997b69900082887b68688279827808807710956a0010492a18f87b679800956a00107ba710f87b68a000956700107b7808f89568ff079588017b69a800956700107b7900f8330750204204c9924926f8074926f0074926e007033307209568e0074926e80750204404ab923308500102390750010256173f0b200350010240019517e08479e07b698800649133076001027b6730837783997b68b0003308407b67b800330046040a09826a880033024804280417826a880050224804fd167b6788006f877b6780006f977b67786fa77b6760826790009777209877204926d8074926d0074926c8079568c0077b67707b67c007330750204a041b92826760956a00077ba7b8008267787ba7b000826780007ba7a8003307209568a007826988007ba9a00050204c04ec918268b000818756173f08480840019517e08477e07b67900050224e044f130a09826a900082a782a80882a91082aa186f776f886f996faa95aa0188ab01c8b909d49a0b88bb01c88b0bd88b08c88707956800107b8a20f8956800107b8928f89568ff079588317b8b7b8708956780079568ff07958821502050046292826780075107d70e826870888700017b676083898033070133085020520423177b6788007b6890008268708d898000330701330850205404e316826970889a80007b6a8000826b8800daab0793977b67880082679000daa70893987b6890008399330701330850205604d7168269800093977b677893987b688000492678078267a8007b6760078267a0007b67680795686007826798007b677007330750205804cd9049265807492650074926400705330720956840074926480750205a04af908268b000818756173f08480840018267800082686093877b67800082677893877b67788267900093877b6790008267880093877b6788009517e08477e07b676050225c04ea1133005e040a0933026004282d10502260042a108267688477ff492638074926300749262807956820077b67687b6720073307502062043190826740956a00077ba7188267487ba7108267507ba708330720956800078269587ba95020640409908268b000818756173f08480840019517e08477e07b6758502266046d11330068040a0933026a0428df0f50226a04dc0f9567e00650206c04c190956b000682b7f00082b8e00082b9f80082bae80050226e043e125107470d4926d8068267a8007b67c0068267a0007b67c8069568c006826798007b67d006330750207004898f4926b8064926b0064926a006073307209568a0064926a806502072046b8f8268b000818756173f08480840019517e08477e07b676050227404cf10330076040a093302780428120f502278040f0f492698064926900649268806956880068267687b678006330750207a041c8f826740956a00067ba7788267487ba7708267507ba768330720956860068269587ba96050207c04f38e8268b000818756173f08480840019517e08477e07b675850227e045710330080040a093302820428c90e50228204c60e9567400650208404ab8f956b000682b75082b84082b95882ba48502286042c1152075c0c492618068267a800956900067b978267a0007b970895680006826798007b9710330750208804778e4926f8054926f0054926e005073307209568e0054926e80550208a04598e8268b000818756173f08480840019517e08477e07b676050228c04bd0f33008e040a093302900428000e50229004fd0d4926d8054926d0054926c8059568c0058267687b67c0053307502092040a8e826740956a00057ba7b8008267487ba7b0008267507ba7a8003307209568a0058269587ba9a00050209404dd8d8268b000818756173f08480840019517e08477e07b675850229604410f330098040a0933029a0428b30d50229a04b00d9567800550209c04958e826780058268880582699005826a9805826b78d4b707826b8000d4b808826b8800d4b909826b9000d4ba0a956bff0795bb317bba287bb9207bb8187bb7109568ff0795884182676050209e04c88e49267805826798007b6770058267a0007b676805956860058267a8007b67600533075020a0042d8d4926580549265005492640050233072095684005492648055020a2040f8d8268b000818755174008480840019517e08477e07b67605022a404730e0a09826a6082a782a80882a91082aa186f726f8c6f996faa9517e08478e064817b6a1095a701887a017b6918c8a90bd4b709889901c8c9097b6c20d8c90a7b6228c82a0a7b8b087b877b89107b8a18956720057b68585020a604888d82623805956b000582b83082b9203a07f8000282ba28d4280b7b6760d8790c94ac94bc520c530a3a0b000102c89b0bd89b09c89a0c95ccffd3ac07d8ac0ada790a9587ffc87a0ad87a07888801c98208c887079568ff079588317b8b307b8c387b8a407b87489568ff079588618267585020a804938d4926180582679800956900057b97108267a0007b9708956800058267a8007b9733075020aa04f88b4926f8044926f0044926e004063307209568e0044926e8045020ac04da8b8268b000818756173f08480840019517e08477e07b67585022ae043e0d3300b0040a09826a583302b204284f10826a585022b20449107b67506f877b67486f977b67406fa77b67389517e08477e07b675864714926d8044926d0044926c8049568c0048267687b67c00433075020b404688b826738956a00047ba7b8008267407ba7b0008267487ba7a8003307209568a0048269507ba9a0005020b6043b8b8268b000818756173f08480840019517e08477e07b67505022b8049f0c3300ba040a09826a503302bc0428bf0f826a505022bc04b90f8268587b8a187b89107b8b087b87956780045020be04df8b956b000482b7900082b8800082b9980082ba88005022c0045c0d51070f031407ffffffff000000007b67b0009567ff079577314927e8004927e0004927d8004927d000956760049568ff07958801015020c2048a8b956a000482a76882a87082a9608477ff826bb000d2b8088499ffd49808d487075107a4059567ff0795773149272801492720014927180149271001956740049568ff07958841015020c4043d8b956a000482a74882a85082a9406f77977a206f88988820d4a80b9877206f98330a600103978920d497079888207b68583d087001037b67503e076801037b6b783e0b6001037b6a800083a70a050151070408956720043308405020c604b288956b000482b93882ba3082b72882b8207b67b0007b699000d497077b68b800d4a808d478089888207b6a8800d4a707977720d48707520721074926100449260804492600041407000000002e77c9ad956800047b6718048267b8005020c8048b898267900082698800d47909140700000000010000007b67401407fcffffff000000008268b800d878078268b00094877b694894975107c1068267b8008377044926f8038268a800956a00037ba8e0008268a0007ba8e8009568e003826998007ba9f0005020ca0422898267409577dc8268b800d878078268b00094878268489487510774068267b8008377244926d8034926d0034926c8039568c0038269607b69c0035020cc04e2880a0b826880008267507b87088267787b878267587a87109567ff079577314927480149274001492738018268607b7830013308448267b8005020ce04a68c7b67788267b80033085020d004978c9569ff0795993148295001959a0001492a8800ff492a8000ff491a78ff491a70ff8268800097882098882014090000000008000000d498029568ff07958861019788209888209569ff079599a101979920d4890a82687897882098882014090000000044000000d4980b9777209877209568ff0795888101978820d4780c3308ff3309ff64270a015207c304492678034926700349266803492660038267b800956a00037ba780008267b0007ba78800826788007ba790009567800395686003826990007ba998005020d2045bf3288e035020d40430863a088001037b6890003a089001037b6888003a078801037b6780000a0b826880006f88978920826a88006faa98aa20d4a909988a20826890006f8b330860010397bc20d4ca0a98bb203d0b7001033e0a6801033e09600103956aff0795aa31491a68491a60491a588269607ba950481a708e77fc089a797ba9a8007ba9a0007ba998007ba99000978820988820977723d487079568ff07958881009788209888209569ff079599c100979920d4890a826b3097bb2098bb209568ff079588a100978820d4b80c3308ff3309ff0a7b6790000a0d0151073c010a0d7b6758956760023308405020d6049a85826c78027b6c78826270027b6250826368027b638000826460027b64880082685895871fd887088477e0957920d87907c8780ad88a0bda770b492638027b692002956900027b9c587b6250027b6348027b6440027b9a2895674002956820027b9b305020d80400f28267880082687882698000d48909826a50d4a708d49808988820d4a909979920d498085208b303492618024926100249260802956800028269587b6900025020da0428860a0d01826a8800826878826950d498081409e0ffffff00000000d89a09826b800094b9948951096d0364789877205207640383a72064897b68800083887b68880064985020dc04e1899568ff07958831826980007a89b0008377956800108388e0f833090a0c019567ff079577318177b00082688800ac871c03826790005207bd039567c0013308405020de045f84956b000182b7d80082b8d00082b9c80082bac0005022e004e9065207e9024926b8014926b0014926a8019568a0018267607b67a00164a77b6ab8005020e20458854926380149263001492628018267687b6720014926580149265001492648018267707b67400149267801826798007b6770018267a0007b6768013a072801023a083001023a09380102826aa8007b6a60017b6798017b6890017b6988013a0740010233082095698001956a6001956b4001956c20017b6780018267b8003300ee0428d1879517e0847ce064c1826810958702d88708826a18c88a09d8a90ada880a826820c88a0ad88a08826b28c88b0b64c87b6cb8007bc9087bc77bca107bcb18956740035020e4047f85956b000382b74082b85882b94882ba50826b60c87b0bd87b07c8790cd89c09da7709c8a909d8a907c887079568ff079588317b8bf0007b8cf8007b8900017b8708019568ff07958821018267b8005020e604ac85956720033308405020e804f282956b000382b73882b83082b92882ba205022ea04800552078001492618034926100349260803956800038267607b67000364a77b6ab8005020ec04ef834926980249269002492688028267687b6780024926b8024926b0024926a8028267707b67a0024926d802826798007b67d0028267a0007b67c8023a070801023a081001023a09180102826aa8007b6ac0027b67f8027b68f0027b69e8023a072001023308209569e002956ac002956ba002956c80027b67e0028267b8005020ee046c86955100f8951100fe95110802951700078270f0008275e8008276e0009511f80732009567a0033308405020f0040382956800038287b8007b67b0008287b0007b67a8008287a8007b67a0008287a0007b67b8000a0d018268b0008269a000d49808826aa8008269b800d4a909d48909989920d4a808978820d4980852085b98782052085564787b67a80083777b67b0008267b8005020f204d4869568ff079588318269a8007a8990018377956800108388c0f933090a0c019567ff07957731817790018268b000ac870f0a0d0164789877205107f200004926d0004926c8004926c0001407000000006d53a9a79568c0007b67d80033073300f404286b824926f0004926e8004926e000140700000000b6e2a4af9568e0007b67f80033073300f40428448249263006492628064926200614070000000000f90f56956820067b67380633073300f404281d82492610014926080149260001140700000000b878d6f4956800017b67180133073300f40428f6813307018268b80033090a0e014926f0014926e8014926e00114070000000018ecb8909568e0017b67f80133075020f404c7818267b000817756171f0c8268b000480820013307013309048268b8000a0e018267b8007b68b0005020f6049c8583788169b0003307010a0e33073300f80428ba8533075020f804b5853307015020fa04ac8582970881981082996f77977a206f88988820d48a0a9877206f98978920d4970798882095697810320282970881981082996f77977a206f88988820d48a0a9877206f98978920d497079888209569ff07959979320282970881981082996f77977a206f88988820d48a0a9877206f98978920d49707988820956978183202826aa80082a71882a81082a90882aa6f777b67a0006f877b6798006f977b6790006fa77b6788009517e08477e07b67a800647133077810c8760932027b67c800c9a007d8c707d8a008826c9800c9c00bc98b0bc97b0b99b03f82679000d270078268a000c97804d87808c989039498c98a077b67a800d88a08c98c08826af800826cf000d4ca09889901826be0003202826ae00082a71882a81082a90882aa6f777b67d8006f877b67d0006f977b67c8006fa77b67c0009517e08477e07b67e00064713202826a6082a71882a81082a90882aa6f777b67586f877b67506f977b67486fa77b67409517e08477e07b676064713202826a5882a71882a81082a90882aa6f776f8b6f996faa8268607b8a187b89107b8b087b873202826af80082a71882a81082a90882aa6f776f8b6f996faa8268e0007b8a187b89107b8b087b87320282a71882a81082a90882aa6f776f8b6f996faa8268a8007b8a187b89107b8b087b87330700103202da98078269b000649a64988269c000db970a7b6ac8008267a800826a9000d4a707826a8000daca07826bb80064badb970a7b6ac0008267d00093c77b67d000492690008051018267f80095798064b73202826ad80082a782a80882a91082aa186f776f886f996faa95aa0188ab01c8b909d49a0b88bb01c88b0bd88b08c887079568782032029598017b68f800888701c8a7077b67f000d48707887701c837077b67e000d83707c807077b67e8009a98ff007b68c0009a8980008267a00082689800320282a782a80882a91082aa186f776f886f996faa95ab03d8ab0ac8a90cd89c09daaa09c88909d88908c887073202d49707d48a09d47909989920d48707977720d497073202647183793308408267b8003202647183793308408267e800320282970881981082996f7a97a7206f8898882032028264a000826398004926b8004926b00082698800939893977b67a800826a900095a9ff7b6988008ea99599ff7b6980003202647183793308408267f0003202826af00082a71882a81082a90882aa6f776f8b6f996faa8268f8007b8a187b89107b8b087b8733070020320282970882988199106f77987a206f88978b20d4ba0a9777206f99989920d49707988820320282970881981082996f7a97a7206f88988820d4870798aa206f99979820d4a808989920320298493f973a01d4a909974a018264c800984b3fd4ba0a7b6aa000826080006437d390033202826b8800d2b707826b78d2b808826b9000d2b909826b8000d2ba0ad4a909d48707d497073202826ad80082a71882a81082a90882aa6f777b67d8006f877b67d0006f977b67c8006fa77b67c00032027b6a7b69087b68107b67189551c0821038821530821628951140320233077820c8760a95ab00043202978801826ba80098ba3fd4a8087b689800987a3f97b701d47a0a974701826bc00098b83f320282ab7b1b1882ab087b1b2082ab107b1b2882aa187b1a308296829a087b1a829a107b1a088299187b1910320282171082181814090000000001000000d37909d48909987a2088aa01948a939a320233077818c8760a95ab0006320233077820c8760a95ab00023202826ac80082a71882a81082a90882aa6f777b67c0006f877b67b8006f9732027b6ac00093b87b68c800492698008051018267f00095798064c76438320282a71882a81082a90882aa6f776f886f996faa330b0020320282698800d498088269f800889a80007b6a8800826b8000daab08826b9800db980b7b6b980032028269880093989397826a980095a9ff7b6990008ea99599ff7b6988003202821718821810821908821ad4790bd48a0cd4bc0c98cc20d48b0b97bb20d4cb0b320282b7980082b8a00082b9900082ba8800d49808d4a707d487073202d49b0bd48709d4b909989920d4b808978820d49808320282c7a00082c8980082c9900082cb8800d49707d48b09d47909989920d48707977720d49707320282a71882a81082a90882aa6f77320282a71882a81082a90882aa6f776f8b6f996faa32028219821a087b697b6a087b67107b68189551c08210388215308216289511403202826bd800d2b707826bc800d2b808826bd000d2b909826bc000d2ba0ad4a909d48707d4970732029511c07b10387b15307b16289515408411e064768317330804320233077818c8760a95ab00073202826af80082a71882a81082a90882aa6f7c3202c88707d88708c8980895697820959a00023202d487078268a800daa8078268a000db97087b68a0008267b8008268b000320282b71882b82082b91082ba08d49808d4a707d4870732029511c07b10387b15307b16289515408411e0647683173202849a40520a195109148d9a40cfa80ad09808d09707d4a707320032009597c0d0780733083200849a40520a195109148d9a40d0a70acf9707cf9808d4a808320032009598c0cf870833073200490a21a11a4292d210a1925429a42449922449922449922449922449922449922449922449922449922449922449aa9294529294942454a5242549922449922449922449922449922449922449922449499294a4aa24254994a492a42a494992922425294955559292a4249524554a2949524a29492a2922228a88889424498284524949499122458a142952a428491111514444a42449529224090945458a142952a4489122458a142952a44851224544444992208484a134290d891011119188886844449208491289882211a25035440411112291484404111192248948241240222222114285104a495292444488089148448448921211922449920012491289848824892449922422444244449224c950124a92049014420443492b542542928410422a54a9d288888894181124228408918852a2c4082420020209082490400209082490402222221a11114992281291462449222a8948239224119544a4119124491291444444249210458a2442444444142211a1444448a2102298240a51894692aa2249898888482242242222924492482449922449922449242222222212111191921092281289444444442492188988442252488c0825228410c1240a15899484c48888884244444444898810452611521222244644444444244484242291484414918888484a42444492248a4492921011494924d22811914a2a892415495289a8444a22124952494492a444124922898828224444448888448448444484888844522425222222522488884892449188482422222222d288248948248924492491888888888248442811118410c1240a15892812449144918844221191824844229112111144914954228a04511445242922884422912292481249242222492222884444442488444444922449222222222222228288880410402a49248a888888082292284aa2442222228244502a11111151248888489244918834224992244912a2441189202222a220224289089228840826802451a8248a049120224992248988202222114992442449441021118d8888a8a4924852912495884aa42452244925114992441249228988288a2022228288484490444444101191488aa444444434222292245124222222228844229188481089240992482222222222221111118d88882449148948108988882009111111118988888822419044918822222222222241244990244a9428512249459254222a4524499254121149924824914422898888082222228888440449444404119188248aa4889444452222499488221029888888201111114422221289241289882022222a22516292441251124922892489249124924422128944924892482429914424912491442492444424908888882812249224491489481089442291082212459224490821129144a42011898888882241444492248a444422222222221111111111051121114108114ca2509188224144444441444444242282283289208a0411444444444482888808928888888888221211111151248888489244918888101141241289444482482449904412118944242211111151248888489244918848444444442422222222a22022242208218249142a12512488888828888888884444104526114491208288888888481011114112914824224590084a951a45222222a2481024218a2822114444444144a24482240a21829144a112512488049148241249141111118d8888884492249148922492249224499424892012442291484444444434225124499204111191245210514422484a121142085144444422222222225292242949924a8a4a444444140982248a4444222222220a22422282240a114ca250892241144511498a202222222292484492449248228288888888482249249188248908222222892411914422222249441011092249922449121111111145440411910002485492888888888888202222a9241111111111410490284a2249444404114151494a922429894810898888481249224922499224499224492422494482484444488a244922919288201249241249924422499024514404914822914892249248822489892051248a44118922454444444444141191249144124924c96824494482482449904424128944448a20a28844108948448410111142444444448988888888088a4a44922812118944098288880812111141242222914822912222a8206224492411454a24492249249244924812894422912492241249a424114924492411892451443249421451442288482252108908252282248510c1240a15892812548944225144118920228948412422948808a2c8248228221124491211412422a2884410111151108908252282283289208a045124512422221205118948a444448228328048228822124124294911419222894424912489249124924924498988882822112489484124498988208a4c22882241244a4424220a2222222222918808a2c82482281224492482888888444491542291144444a42022a2824844448a48a44811445454544522912449228a25898888248888888808959424492451489224499244924482244a9224451011222249922492444490449248221211898844242912894491544a529288882888088908a2c8248228221144511449141191288848249288045164124191a4aa4852824810499224492291888828222288880490a84824111111441491089292444422420821222222121111415189481245222249942088444490888808221191442289448a88a0828891249144444924492249249244924812894422912492241249a424114924492411892451443222414424a9944412892412499288484444109188244922114992480a22800012459188888888082292288a44444444902822114444441444442811418a4ca292282211445114491431129188444144442452222248910144129514492a8aa28824450411491211492282248a24924412495244109188082292444444444410114444442429228288888888444444440489221241444444414484121124898a4ca29228221144492288481211414492248944222222228248103192244992442249124911248a48044949420811111111211291884444444444222222824810114424924452448a8804918888888848922489888888888808222291244944222222226844248044a5244551101145d4888864242280888882104148482895502aa15442a94422028888280811848444220288882808118484845209a5124a25944a2895502aa15442a9845209a51231228088280811848444441440444144841211891811404414a44892942425944a2895502aa15442a9845209888888884624499208a5124a25944a2895502aa15442a9845209a5124a256244001151102208098988288088828811a14404514426d1502aa1542211014444148408426149232280888288082522489124a9248d4404101151241211404444914044444444238208a512101111115124489224114a254622232222411289440410115190229944a3104a250aa15402222222a21111114922944a1442a94444221289442222114992242212499224118d8888884a2a8924154952894aa42422114952449208828888082222114124221141442422491145a4044144440489888820481004412209924812492211894482248924229124222211918844442212d1888888a8a4924852912495a8444a22129124151149220822222288884404918844041191882445149112041111112422228220411004892448224924894424120992249288449288880444444444312222924428952884528988444488228a48041149a420624428114188109149142a11452482288a22928888882888888888281111441199445094a42a29499224251141444444448c0820228ac44864229288442489449248248914114910aa122391188910451491082222220a22468412118408119944a11251244812111111051111111125228228229308a24810111111414422222222298888484144448a48510aa228228a48041149a4206244281141149111451451449144104582888888828888888812114114914904514422880411111141441491082222220a2246841211441199441045828888888288482452222288223289208a48049120224982881811404414098888884814098208a51285502a11918844221111112282884422910851149108a224914412914424912422222212892422085589181140441409202222114912114414910822924841c488502282248a223289208a4804519208222289882022912412114922828822124152928808214444448888888888a82091049048418820242462440011511022080989181140441489880022a2208ac8241a514422888888288818114a44104564124114092222220a2222229112114114914904514422880411491289442211111111414411892022222222848888102222921411111514958088888888224110a154a2104a25221211111151101112118408119944212a514422884444444410111111411422221291881101444441882024246244001151102208098926941aaa8a422855442422222222224404111111218a22124124924822928844228088888888202222229248444444444444441089442422222222224208114942445441a84a444422111111111111914844444444444424121111491211894422222222222222825095880820a2204410121211014414840842429224495292244905418286521409a24890a0508a22419a242905855214091245820485521409a24890a0508a46442295942449922449922449922495942449922449922409222251920092822492042182a1241a111111a92825111111119188288808890842886012855424a28844104529914444240a129188484404516412415192aa24499288884889481091485210914841222245a42805518a8888888882889088208a8c1429514491248822411211912848244912298822930451248820222282888888882888088908a2c824411409222212058924492209a2c8244114092288240922228a44a4202224228822930451248888481424229148248228324910458208222292482412499248828888888882889088208a4c129492542525499224494a2241441292a4222449922449224912491011894454101112114491498228910429a52429222251908844229108a2c824419448822429828888082280884444444410491249129188888808224929492149424242d4880491241189249124222280880822124002884429221111111111249128452422221114494a2211914804898248440811910490882422491240928824e9888888888888888820418810218a1225894292104224499228222249229288244944928c468904914844449224492222119188049148922489888844d0481240a2a2448aa2201251448d4444442488888820222212451011898848444444082122224222222222494992244952a424824892244992442222222288049124414444248a20221211918888881042444484444444041111111145828888888868442292244952141144228aa89188b4c4880820a248440410512422028828121101441449d4880820a2208ac8241a1114a9484182a45292924449a524258994544a5292289254144591449122492449249294482292289254144591442549a59492a492a4aa24a948525524a924554592a2444522229128114520525192aa24499228914492482222222a49559224494992a44a5489924a2922222a2251a24a1449aa8a244529a5242529a994a42425492411a54812892429925414455149922445a244124912a92449524a92920092a48a4491289254141545205225a92a8a444424124545a244494a922445442429499214119124494a5225a9aa5292244991482492a424492a45a248522589289148449424494a92a44a9224a9a49224492a2900"},"methodIdentifiers":{"STAKE_PER_DAY()":"4a91f7ae","archiveHabit(uint32)":"b650673a","checkIn(uint32,uint64)":"a0145927","checked(address,uint64)":"a8389e0a","createHabit(bytes32)":"e9714e07","deposit()":"d0e30db0","epochNow()":"222ae786","forceSettle(address,uint64,uint32)":"68188762","funded(address,uint64)":"319bec54","habits(address,uint32)":"99626634","move(uint8,uint8,uint256)":"4f126f03","owner()":"8da5cb5b","prepareDay(uint64)":"48cc36b8","setStakingAdapter(address)":"40729c58","settle(address,uint64,uint32)":"9c14eb6e","settled(address,uint64)":"39c51515","stakingAdapter()":"4cbb98f4","transferOwnership(address)":"f2fde38b","treasury()":"61d027b3","userHabitCounters(address)":"0e08454a","userStates(address)":"0ecc535f"}},"hash":"e7eb44e1bee8a7f8f5f6ab75520fc1938a66f7f4296ee0c6052e1469fd500927","factoryDependencies":{}}}}