{"contracts/mocks/MockStakingRewards.sol":{"MockStakingRewards":{"abi":[{"inputs":[{"internalType":"uint256","name":"_ratePerSecond","type":"uint256"},{"internalType":"address","name":"_habitTracker","type":"address"}],"stateMutability":"nonpayable","type":"constructor"},{"inputs":[],"name":"InsufficientBalance","type":"error"},{"inputs":[],"name":"InvalidAmount","type":"error"},{"inputs":[],"name":"OnlyHabitTracker","type":"error"},{"inputs":[],"name":"TransferFailed","type":"error"},{"anonymous":false,"inputs":[{"indexed":true,"internalType":"address","name":"user","type":"address"},{"indexed":false,"internalType":"uint256","name":"amount","type":"uint256"}],"name":"RewardsClaimed","type":"event"},{"anonymous":false,"inputs":[{"indexed":true,"internalType":"address","name":"user","type":"address"},{"indexed":false,"internalType":"uint256","name":"amount","type":"uint256"}],"name":"Staked","type":"event"},{"anonymous":false,"inputs":[{"indexed":true,"internalType":"address","name":"user","type":"address"},{"indexed":false,"internalType":"uint256","name":"amount","type":"uint256"}],"name":"Unstaked","type":"event"},{"inputs":[],"name":"claimRewards","outputs":[{"internalType":"uint256","name":"claimed","type":"uint256"}],"stateMutability":"nonpayable","type":"function"},{"inputs":[{"internalType":"address","name":"","type":"address"}],"name":"deposits","outputs":[{"internalType":"uint256","name":"","type":"uint256"}],"stateMutability":"view","type":"function"},{"inputs":[],"name":"getContractBalance","outputs":[{"internalType":"uint256","name":"","type":"uint256"}],"stateMutability":"view","type":"function"},{"inputs":[{"internalType":"address","name":"who","type":"address"}],"name":"getPendingRewards","outputs":[{"internalType":"uint256","name":"","type":"uint256"}],"stateMutability":"view","type":"function"},{"inputs":[{"internalType":"address","name":"who","type":"address"}],"name":"getStakedAmount","outputs":[{"internalType":"uint256","name":"","type":"uint256"}],"stateMutability":"view","type":"function"},{"inputs":[],"name":"habitTracker","outputs":[{"internalType":"address","name":"","type":"address"}],"stateMutability":"view","type":"function"},{"inputs":[{"internalType":"address","name":"","type":"address"}],"name":"lastUpdateTime","outputs":[{"internalType":"uint256","name":"","type":"uint256"}],"stateMutability":"view","type":"function"},{"inputs":[],"name":"ratePerSecond","outputs":[{"internalType":"uint256","name":"","type":"uint256"}],"stateMutability":"view","type":"function"},{"inputs":[{"internalType":"address","name":"user","type":"address"},{"internalType":"uint256","name":"amount","type":"uint256"}],"name":"stake","outputs":[],"stateMutability":"payable","type":"function"},{"inputs":[{"internalType":"address","name":"user","type":"address"},{"internalType":"uint256","name":"amount","type":"uint256"}],"name":"unstake","outputs":[],"stateMutability":"nonpayable","type":"function"},{"stateMutability":"payable","type":"receive"}],"evm":{"assembly":"// RO data = 0/0 bytes\n// RW data = 100/65744 bytes\n// Stack size = 32768 bytes\n\n// Instructions = 4084\n// Code size = 13797 bytes\n\n      : @0 (gas: 7)\n     0: sp = sp + 0xffffffffffffffe8\n     3: u64 [sp + 0x10] = ra\n     6: u64 [sp + 0x8] = s0\n     9: u64 [sp] = s1\n    11: s1 = 0x20060\n    16: s0 = i32 [0x20060]\n    21: jump @3 if s0 == 0\n      : @1 (gas: 5)\n    24: a0 = 0x30090\n    29: i32 a0 = a0 + 0\n    31: i32 a1 = s1 + 0\n    33: ecalli 7 // 'get_immutable_data'\n    35: fallthrough\n      : @2 (gas: 3)\n    36: a0 = i32 [0x20060]\n    41: u32 [0x20060] = 0\n    46: jump @4 if a0 <u s0\n      : @3 (gas: 5)\n    49: ra = u64 [sp + 0x10]\n    52: s0 = u64 [sp + 0x8]\n    55: s1 = u64 [sp]\n    57: sp = sp + 0x18\n    60: ret\n      : @4 (gas: 1)\n    62: trap\n      : @5 (gas: 2)\n    63: a1 = i32 [0x20060]\n    68: jump @46 if a1 == 0\n      : @6 (gas: 4)\n    72: a0 = 0x30090\n    77: i32 a0 = a0 + 0\n    79: ecalli 15 // 'set_immutable_data'\n    81: jump @46\n      : @7 (gas: 8)\n    84: sp = sp + 0xfffffffffffffff0\n    87: u64 [sp + 0x8] = ra\n    90: u64 [sp] = s0\n    92: a2 = a1\n    94: s0 = a0\n    96: a1 = 0x20\n    99: a0 = a2\n   101: ra = 2, jump @15\n      : @8 [@dyn 1] (gas: 100)\n   106: a1 = u8 [a0 + 0x1]\n   109: a2 = u8 [a0]\n   111: a3 = u8 [a0 + 0x2]\n   114: a4 = u8 [a0 + 0x3]\n   117: a1 = a1 << 0x8\n   120: a1 = a1 | a2\n   123: a3 = a3 << 0x10\n   126: a4 = a4 << 0x18\n   129: a3 = a3 | a4\n   132: a1 = a1 | a3\n   135: a2 = u8 [a0 + 0x5]\n   138: a3 = u8 [a0 + 0x4]\n   141: a4 = u8 [a0 + 0x6]\n   144: a5 = u8 [a0 + 0x7]\n   147: a2 = a2 << 0x8\n   150: a2 = a2 | a3\n   153: a4 = a4 << 0x10\n   156: a5 = a5 << 0x18\n   159: a4 = a4 | a5\n   162: a2 = a2 | a4\n   165: a2 = a2 << 0x20\n   168: t0 = a2 | a1\n   171: a2 = u8 [a0 + 0x9]\n   174: a3 = u8 [a0 + 0x8]\n   177: a4 = u8 [a0 + 0xa]\n   180: a5 = u8 [a0 + 0xb]\n   183: a2 = a2 << 0x8\n   186: a2 = a2 | a3\n   189: a4 = a4 << 0x10\n   192: a5 = a5 << 0x18\n   195: a4 = a4 | a5\n   198: a2 = a2 | a4\n   201: a3 = u8 [a0 + 0xd]\n   204: a4 = u8 [a0 + 0xc]\n   207: a5 = u8 [a0 + 0xe]\n   210: a1 = u8 [a0 + 0xf]\n   213: a3 = a3 << 0x8\n   216: a3 = a3 | a4\n   219: a5 = a5 << 0x10\n   222: a1 = a1 << 0x18\n   225: a1 = a1 | a5\n   228: a1 = a1 | a3\n   231: a1 = a1 << 0x20\n   234: t1 = a1 | a2\n   237: a1 = u8 [a0 + 0x11]\n   240: a3 = u8 [a0 + 0x10]\n   243: a4 = u8 [a0 + 0x12]\n   246: a5 = u8 [a0 + 0x13]\n   249: a1 = a1 << 0x8\n   252: a1 = a1 | a3\n   255: a4 = a4 << 0x10\n   258: a5 = a5 << 0x18\n   261: a4 = a4 | a5\n   264: a1 = a1 | a4\n   267: a3 = u8 [a0 + 0x15]\n   270: a4 = u8 [a0 + 0x14]\n   273: a5 = u8 [a0 + 0x16]\n   276: a2 = u8 [a0 + 0x17]\n   279: a3 = a3 << 0x8\n   282: a3 = a3 | a4\n   285: a5 = a5 << 0x10\n   288: a2 = a2 << 0x18\n   291: a2 = a2 | a5\n   294: a2 = a2 | a3\n   297: a2 = a2 << 0x20\n   300: a3 = a2 | a1\n   303: a1 = u8 [a0 + 0x19]\n   306: a2 = u8 [a0 + 0x18]\n   309: a4 = u8 [a0 + 0x1a]\n   312: a5 = u8 [a0 + 0x1b]\n   315: a1 = a1 << 0x8\n   318: a1 = a1 | a2\n   321: a4 = a4 << 0x10\n   324: a5 = a5 << 0x18\n   327: a4 = a4 | a5\n   330: a1 = a1 | a4\n   333: a2 = u8 [a0 + 0x1d]\n   336: a4 = u8 [a0 + 0x1c]\n   339: a5 = u8 [a0 + 0x1e]\n   342: a0 = u8 [a0 + 0x1f]\n   345: a2 = a2 << 0x8\n   348: a2 = a2 | a4\n   351: a5 = a5 << 0x10\n   354: a0 = a0 << 0x18\n   357: a0 = a0 | a5\n   360: a0 = a0 | a2\n   363: a0 = a0 << 0x20\n   366: a0 = a0 | a1\n   369: a0 = reverse a0\n   371: a1 = reverse a3\n   373: a2 = reverse t1\n   375: a3 = reverse t0\n   377: u64 [s0 + 0x18] = a3\n   380: u64 [s0 + 0x10] = a2\n   383: u64 [s0 + 0x8] = a1\n   386: u64 [s0] = a0\n   388: ra = u64 [sp + 0x8]\n   391: s0 = u64 [sp]\n   393: sp = sp + 0x10\n   396: ret\n      : @9 (gas: 12)\n   398: sp = sp + 0xffffffffffffffd8\n   401: u64 [sp + 0x20] = ra\n   404: u64 [sp + 0x18] = s0\n   407: u64 [sp + 0x10] = s1\n   410: a2 = u64 [a1]\n   412: u64 [sp + 0x8] = a2\n   415: a2 = u64 [a1 + 0x8]\n   418: u64 [sp] = a2\n   420: s0 = u64 [a1 + 0x10]\n   423: s1 = u64 [a1 + 0x18]\n   426: a1 = 0x20\n   429: ra = 4, jump @15\n      : @10 [@dyn 2] (gas: 71)\n   434: a1 = reverse s1\n   436: a2 = reverse s0\n   438: a3 = u64 [sp]\n   440: a3 = reverse a3\n   442: a4 = u64 [sp + 0x8]\n   445: a4 = reverse a4\n   447: u8 [a0 + 0x18] = a4\n   450: u8 [a0 + 0x10] = a3\n   453: u8 [a0 + 0x8] = a2\n   456: u8 [a0] = a1\n   458: a5 = a4 >> 0x38\n   461: u8 [a0 + 0x1f] = a5\n   464: a5 = a4 >> 0x30\n   467: u8 [a0 + 0x1e] = a5\n   470: a5 = a4 >> 0x28\n   473: u8 [a0 + 0x1d] = a5\n   476: a5 = a4 >> 0x20\n   479: u8 [a0 + 0x1c] = a5\n   482: a5 = a4 >> 0x18\n   485: u8 [a0 + 0x1b] = a5\n   488: a5 = a4 >> 0x10\n   491: u8 [a0 + 0x1a] = a5\n   494: a4 = a4 >> 0x8\n   497: u8 [a0 + 0x19] = a4\n   500: a4 = a3 >> 0x38\n   503: u8 [a0 + 0x17] = a4\n   506: a4 = a3 >> 0x30\n   509: u8 [a0 + 0x16] = a4\n   512: a4 = a3 >> 0x28\n   515: u8 [a0 + 0x15] = a4\n   518: a4 = a3 >> 0x20\n   521: u8 [a0 + 0x14] = a4\n   524: a4 = a3 >> 0x18\n   527: u8 [a0 + 0x13] = a4\n   530: a4 = a3 >> 0x10\n   533: u8 [a0 + 0x12] = a4\n   536: a3 = a3 >> 0x8\n   539: u8 [a0 + 0x11] = a3\n   542: a3 = a2 >> 0x38\n   545: u8 [a0 + 0xf] = a3\n   548: a3 = a2 >> 0x30\n   551: u8 [a0 + 0xe] = a3\n   554: a3 = a2 >> 0x28\n   557: u8 [a0 + 0xd] = a3\n   560: a3 = a2 >> 0x20\n   563: u8 [a0 + 0xc] = a3\n   566: a3 = a2 >> 0x18\n   569: u8 [a0 + 0xb] = a3\n   572: a3 = a2 >> 0x10\n   575: u8 [a0 + 0xa] = a3\n   578: a2 = a2 >> 0x8\n   581: u8 [a0 + 0x9] = a2\n   584: a2 = a1 >> 0x38\n   587: u8 [a0 + 0x7] = a2\n   590: a2 = a1 >> 0x30\n   593: u8 [a0 + 0x6] = a2\n   596: a2 = a1 >> 0x28\n   599: u8 [a0 + 0x5] = a2\n   602: a2 = a1 >> 0x20\n   605: u8 [a0 + 0x4] = a2\n   608: a2 = a1 >> 0x18\n   611: u8 [a0 + 0x3] = a2\n   614: a2 = a1 >> 0x10\n   617: u8 [a0 + 0x2] = a2\n   620: a1 = a1 >> 0x8\n   623: u8 [a0 + 0x1] = a1\n   626: ra = u64 [sp + 0x20]\n   629: s0 = u64 [sp + 0x18]\n   632: s1 = u64 [sp + 0x10]\n   635: sp = sp + 0x28\n   638: ret\n      : @11 (gas: 48)\n   640: sp = sp + 0xffffffffffffffa0\n   643: u64 [sp + 0x58] = ra\n   646: u64 [sp + 0x50] = s0\n   649: u64 [sp + 0x48] = s1\n   652: s0 = sp + 0x60\n   655: sp = sp & 0xffffffffffffffe0\n   658: s1 = a0\n   660: a0 = u64 [a1 + 0x18]\n   663: a2 = u64 [a1 + 0x10]\n   666: a3 = u64 [a1 + 0x8]\n   669: a1 = u64 [a1]\n   671: a0 = reverse a0\n   673: a2 = reverse a2\n   675: a3 = reverse a3\n   677: a1 = reverse a1\n   679: u64 [sp + 0x18] = a1\n   682: u64 [sp + 0x10] = a3\n   685: u64 [sp + 0x8] = a2\n   688: u64 [sp] = a0\n   690: u64 [sp + 56] = 0\n   693: u64 [sp + 48] = 0\n   696: u64 [sp + 40] = 0\n   699: u64 [sp + 32] = 0\n   702: u32 [sp + 64] = 0x20\n   706: i32 a1 = sp + 0\n   708: i32 a3 = sp + 0x20\n   711: i32 a4 = sp + 0x40\n   714: a2 = 0xffffffffffffffff\n   717: a0 = 0\n   719: ecalli 8 // 'get_storage'\n   721: a0 = u64 [sp + 0x38]\n   724: a1 = u64 [sp + 0x30]\n   727: a2 = u64 [sp + 0x28]\n   730: a3 = u64 [sp + 0x20]\n   733: a0 = reverse a0\n   735: a1 = reverse a1\n   737: a2 = reverse a2\n   739: a3 = reverse a3\n   741: u64 [s1 + 0x18] = a3\n   744: u64 [s1 + 0x10] = a2\n   747: u64 [s1 + 0x8] = a1\n   750: u64 [s1] = a0\n   752: sp = s0 + 0xffffffffffffffa0\n   755: ra = u64 [sp + 0x58]\n   758: s0 = u64 [sp + 0x50]\n   761: s1 = u64 [sp + 0x48]\n   764: sp = sp + 0x60\n   767: ret\n      : @12 (gas: 40)\n   769: sp = sp + 0xffffffffffffffa0\n   772: u64 [sp + 0x58] = ra\n   775: u64 [sp + 0x50] = s0\n   778: s0 = sp + 0x60\n   781: sp = sp & 0xffffffffffffffe0\n   784: t0 = u64 [a0]\n   786: a3 = u64 [a0 + 0x8]\n   789: a4 = u64 [a0 + 0x10]\n   792: a0 = u64 [a0 + 0x18]\n   795: t1 = u64 [a1]\n   797: a2 = u64 [a1 + 0x8]\n   800: a5 = u64 [a1 + 0x10]\n   803: a1 = u64 [a1 + 0x18]\n   806: t2 = reverse a0\n   808: a4 = reverse a4\n   810: a3 = reverse a3\n   812: a0 = reverse t0\n   814: t0 = reverse a1\n   816: a5 = reverse a5\n   818: a2 = reverse a2\n   820: a1 = reverse t1\n   822: u64 [sp + 0x18] = a0\n   825: u64 [sp + 0x10] = a3\n   828: u64 [sp + 0x8] = a4\n   831: u64 [sp] = t2\n   833: u64 [sp + 0x38] = a1\n   836: u64 [sp + 0x30] = a2\n   839: u64 [sp + 0x28] = a5\n   842: u64 [sp + 0x20] = t0\n   845: i32 a1 = sp + 0\n   847: i32 a3 = sp + 0x20\n   850: a2 = 0xffffffffffffffff\n   853: a4 = 0x20\n   856: a0 = 0\n   858: ecalli 16 // 'set_storage'\n   860: sp = s0 + 0xffffffffffffffa0\n   863: ra = u64 [sp + 0x58]\n   866: s0 = u64 [sp + 0x50]\n   869: sp = sp + 0x60\n   872: ret\n      : @13 (gas: 24)\n   874: sp = sp + 0xffffffffffffff60\n   878: u64 [sp + 0x98] = ra\n   882: u64 [sp + 0x90] = s0\n   886: u64 [sp + 0x88] = s1\n   890: s0 = sp + 0xa0\n   894: sp = sp & 0xffffffffffffffe0\n   897: a4 = u64 [a3]\n   899: u64 [sp + 0x38] = a4\n   902: a4 = u64 [a3 + 0x8]\n   905: u64 [sp + 0x30] = a4\n   908: a4 = u64 [a3 + 0x10]\n   911: u64 [sp + 0x28] = a4\n   914: a3 = u64 [a3 + 0x18]\n   917: u64 [sp + 0x20] = a3\n   920: a3 = u64 [a2]\n   922: u64 [sp + 0x18] = a3\n   925: a3 = u64 [a2 + 0x8]\n   928: u64 [sp + 0x10] = a3\n   931: a3 = u64 [a2 + 0x10]\n   934: u64 [sp + 0x8] = a3\n   937: a2 = u64 [a2 + 0x18]\n   940: u64 [sp] = a2\n   942: s1 = a1\n   944: ra = 6, jump @15\n      : @14 [@dyn 3] (gas: 35)\n   948: a1 = u64 [sp]\n   950: a1 = reverse a1\n   952: a2 = u64 [sp + 0x8]\n   955: a2 = reverse a2\n   957: a3 = u64 [sp + 0x10]\n   960: a3 = reverse a3\n   962: a4 = u64 [sp + 0x18]\n   965: a4 = reverse a4\n   967: u64 [sp + 0x58] = a4\n   970: u64 [sp + 0x50] = a3\n   973: u64 [sp + 0x48] = a2\n   976: u64 [sp + 0x40] = a1\n   979: a1 = u64 [sp + 0x20]\n   982: a1 = reverse a1\n   984: a2 = u64 [sp + 0x28]\n   987: a2 = reverse a2\n   989: a3 = u64 [sp + 0x30]\n   992: a3 = reverse a3\n   994: a4 = u64 [sp + 0x38]\n   997: a4 = reverse a4\n   999: u64 [sp + 0x78] = a4\n  1002: u64 [sp + 0x70] = a3\n  1005: u64 [sp + 0x68] = a2\n  1008: u64 [sp + 0x60] = a1\n  1011: i32 a2 = a0 + 0\n  1013: i32 a3 = s1 + 0\n  1015: i32 a0 = sp + 0x40\n  1018: a1 = 0x2\n  1021: ecalli 6 // 'deposit_event'\n  1023: sp = s0 + 0xffffffffffffff60\n  1027: ra = u64 [sp + 0x98]\n  1031: s0 = u64 [sp + 0x90]\n  1035: s1 = u64 [sp + 0x88]\n  1039: sp = sp + 0xa0\n  1043: ret\n      : @15 (gas: 2)\n  1045: i32 a2 = a0 >> 0x10\n  1048: jump @20 if a2 != 0\n      : @16 (gas: 4)\n  1051: a1 = a1 + a0\n  1054: i32 a1 = a1 + 0x1f\n  1057: a1 = a1 & 0xffffffffffffffe0\n  1060: jump @20 if a1 >u 65536\n      : @17 (gas: 3)\n  1066: a2 = 0x20068\n  1071: a3 = i32 [0x20068]\n  1076: jump @19 if a3 >=u a1\n      : @18 (gas: 2)\n  1079: u32 [0x20068] = a1\n  1084: fallthrough\n      : @19 (gas: 4)\n  1085: a1 = 0x20070\n  1090: i32 a0 = a0 + 0\n  1092: a0 = a0 + a1\n  1095: ret\n      : @20 (gas: 1)\n  1097: trap\n      : @21 (gas: 6)\n  1098: sp = sp + 0xfffffffffffffff0\n  1101: u64 [sp + 0x8] = ra\n  1104: u64 [sp] = s0\n  1106: s0 = a0 & 0x1\n  1109: ecalli 4 // 'call_data_size'\n  1111: fallthrough\n      : @22 (gas: 2)\n  1112: u32 [0x20064] = a0\n  1117: jump @24 if s0 == 0\n      : @23 (gas: 1)\n  1120: ra = 8, jump @25\n      : @24 [@dyn 4] (gas: 1)\n  1124: ra = 10, jump @49\n      : @25 [@dyn 5] (gas: 13)\n  1129: sp = sp + 0xfffffffffffffe80\n  1133: u64 [sp + 0x178] = ra\n  1137: u64 [sp + 0x170] = s0\n  1141: u64 [sp + 0x168] = s1\n  1145: s0 = sp + 0x180\n  1149: sp = sp & 0xffffffffffffffe0\n  1152: u64 [sp + 344] = 0\n  1156: u64 [sp + 336] = 0\n  1160: u64 [sp + 328] = 0\n  1164: u64 [sp + 320] = 0\n  1168: i32 a0 = sp + 0x140\n  1172: ecalli 17 // 'value_transferred'\n  1174: fallthrough\n      : @26 (gas: 8)\n  1175: a0 = u64 [sp + 0x150]\n  1179: a1 = u64 [sp + 0x158]\n  1183: a2 = u64 [sp + 0x148]\n  1187: a3 = u64 [sp + 0x140]\n  1191: a1 = a1 | a2\n  1194: a0 = a0 | a3\n  1197: a0 = a0 | a1\n  1200: jump @39 if a0 != 0\n      : @27 (gas: 15)\n  1204: s1 = i32 [0x20064]\n  1209: a0 = s1 << 0x20\n  1212: a0 = a0 >> 0x20\n  1215: a0 = a0 + 0x1f\n  1218: a0 = a0 & 0xffffffffffffffe0\n  1221: a1 = a0 + 0xc0\n  1225: a0 = a1 <u a0\n  1228: u64 [sp + 312] = 0\n  1232: u64 [sp + 0x120] = a1\n  1236: u64 [sp + 0x128] = a0\n  1240: a0 = 0 if a0 != 0\n  1242: u64 [sp + 0x130] = a0\n  1246: a0 = 0x40\n  1249: a1 = sp + 0x120\n  1253: ra = 12, jump @9\n      : @28 [@dyn 6] (gas: 3)\n  1258: a0 = 0xc0\n  1262: a1 = s1\n  1264: ra = 14, jump @15\n      : @29 [@dyn 7] (gas: 5)\n  1269: i32 a0 = a0 + 0\n  1271: a1 = s1\n  1273: a2 = 0\n  1275: ecalli 2 // 'call_data_copy'\n  1277: fallthrough\n      : @30 (gas: 1)\n  1278: jump @40 if s1 <u 64\n      : @31 (gas: 3)\n  1283: a0 = sp + 0x100\n  1287: a1 = 0xc0\n  1291: ra = 16, jump @7\n      : @32 [@dyn 8] (gas: 11)\n  1296: a0 = u64 [sp + 0x118]\n  1300: u64 [sp + 0x38] = a0\n  1303: a0 = u64 [sp + 0x110]\n  1307: u64 [sp + 0x30] = a0\n  1310: a0 = u64 [sp + 0x108]\n  1314: u64 [sp + 0x20] = a0\n  1317: a0 = u64 [sp + 0x100]\n  1321: u64 [sp + 0x18] = a0\n  1324: a0 = sp + 0xe0\n  1328: a1 = 0xe0\n  1332: ra = 18, jump @7\n      : @33 [@dyn 9] (gas: 11)\n  1337: a1 = u64 [sp + 0xf0]\n  1341: s1 = u64 [sp + 0xf8]\n  1345: a0 = 0x100000000\n  1355: a0 = a0 ^ a1\n  1358: a0 = a0 | s1\n  1361: u64 [sp + 0x28] = a1\n  1364: a1 = a1 >> 0x20\n  1367: a1 = a1 <u 0x1\n  1370: a1 = 0 if s1 != 0\n  1372: a1 = 0 if a0 == 0\n  1374: jump @41 if a1 == 0\n      : @34 (gas: 15)\n  1378: a0 = u64 [sp + 0xe8]\n  1382: u64 [sp + 0x8] = a0\n  1385: a0 = u64 [sp + 0xe0]\n  1389: u64 [sp + 0x10] = a0\n  1392: a0 = u64 [sp + 0x18]\n  1395: u64 [sp + 0xc0] = a0\n  1399: a0 = u64 [sp + 0x20]\n  1402: u64 [sp + 0xc8] = a0\n  1406: a0 = u64 [sp + 0x30]\n  1409: u64 [sp + 0xd0] = a0\n  1413: a0 = 0x80\n  1417: a1 = sp + 0xc0\n  1421: a2 = u64 [sp + 0x38]\n  1424: u64 [sp + 0xd8] = a2\n  1428: ra = 20, jump @9\n      : @35 [@dyn 10] (gas: 10)\n  1433: u64 [sp + 0xb8] = s1\n  1437: a0 = u64 [sp + 0x28]\n  1440: u64 [sp + 0xb0] = a0\n  1444: a0 = u64 [sp + 0x8]\n  1447: u64 [sp + 0xa8] = a0\n  1451: a0 = 0xa0\n  1455: a1 = sp + a0\n  1458: a2 = u64 [sp + 0x10]\n  1461: u64 [sp + 0xa0] = a2\n  1465: ra = 22, jump @9\n      : @36 [@dyn 11] (gas: 3)\n  1470: a0 = sp + 0x80\n  1474: a1 = 0x40\n  1477: ra = 24, jump @7\n      : @37 [@dyn 12] (gas: 12)\n  1482: a0 = u64 [sp + 0x98]\n  1486: a1 = u64 [sp + 0x90]\n  1490: a2 = u64 [sp + 0x88]\n  1494: s1 = u64 [sp + 0x80]\n  1498: a0 = a0 | a2\n  1501: a2 = s1 | a1\n  1504: a2 = a2 | a0\n  1507: a2 = a2 >> 0x20\n  1510: a0 = a0 | a1\n  1513: a0 = a0 << 0x20\n  1516: a0 = a0 | a2\n  1519: jump @42 if a0 == 0\n      : @38 (gas: 1)\n  1522: trap\n      : @39 (gas: 4)\n  1523: a1 = 0x20070\n  1528: i32 a1 = a1 + 0\n  1530: a0 = 0x1\n  1533: jump @48\n      : @40 (gas: 4)\n  1536: a1 = 0x20070\n  1541: i32 a1 = a1 + 0\n  1543: a0 = 0x1\n  1546: jump @48\n      : @41 (gas: 4)\n  1549: a1 = 0x20070\n  1554: i32 a1 = a1 + 0\n  1556: a0 = 0x1\n  1559: jump @48\n      : @42 (gas: 3)\n  1562: a0 = s1\n  1564: a1 = 0\n  1566: ra = 26, jump @15\n      : @43 [@dyn 13] (gas: 7)\n  1571: i32 a0 = a0 + 0\n  1573: a1 = 0\n  1575: a2 = 0\n  1577: ecalli 2 // 'call_data_copy'\n  1579: a0 = sp + 0x60\n  1582: a1 = 0x80\n  1586: ra = 28, jump @7\n      : @44 [@dyn 14] (gas: 13)\n  1591: a0 = u64 [sp + 0x78]\n  1594: a4 = 0x30090\n  1599: u64 [sp + 0x38] = a4\n  1602: a1 = u64 [sp + 0x70]\n  1605: a2 = u64 [sp + 0x68]\n  1608: a3 = u64 [sp + 0x60]\n  1611: u64 [0x300a8] = a0\n  1616: u64 [0x300a0] = a1\n  1621: u64 [0x30098] = a2\n  1626: u64 [0x30090] = a3\n  1631: a0 = sp + 0x40\n  1634: a1 = 0xa0\n  1638: ra = 30, jump @7\n      : @45 [@dyn 15] (gas: 10)\n  1643: a0 = u64 [sp + 0x58]\n  1646: a1 = u64 [sp + 0x50]\n  1649: a2 = u64 [sp + 0x48]\n  1652: a3 = u64 [sp + 0x40]\n  1655: a4 = u64 [sp + 0x38]\n  1658: u64 [a4 + 0x38] = a0\n  1661: u64 [a4 + 0x30] = a1\n  1664: u64 [a4 + 0x28] = a2\n  1667: u64 [a4 + 0x20] = a3\n  1670: jump @5\n      : @46 (gas: 3)\n  1673: a0 = s1\n  1675: a1 = 0\n  1677: ra = 32, jump @15\n      : @47 [@dyn 16] (gas: 6)\n  1682: i32 a1 = a0 + 0\n  1684: a0 = 0\n  1686: a2 = 0\n  1688: ra = 0x22\n  1691: ecalli 14 // 'seal_return'\n  1693: jump @49\n      : @48 (gas: 4)\n  1695: a2 = 0\n  1697: ra = 0x22\n  1700: ecalli 14 // 'seal_return'\n  1702: fallthrough\n      : @49 [@dyn 17] (gas: 19)\n  1703: sp = sp + 0xfffffffffffff808\n  1707: a0 = sp + 0x700\n  1711: u64 [a0 + 0xf0] = ra\n  1715: u64 [a0 + 0xe8] = s0\n  1719: u64 [a0 + 0xe0] = s1\n  1723: s0 = sp + 0x7f8\n  1727: sp = sp + 0xfffffffffffffc18\n  1731: sp = sp & 0xffffffffffffffe0\n  1734: s1 = sp\n  1736: a2 = s1 + 0x7ff\n  1740: a2 = a2 + 0x11\n  1743: u64 [a2 + 232] = 0\n  1747: u64 [a2 + 224] = 0\n  1751: u64 [a2 + 208] = 0x80\n  1757: a0 = 0x40\n  1760: a1 = s1 + 0x7ff\n  1764: a1 = a1 + 0xe1\n  1768: u64 [a2 + 216] = 0\n  1772: ra = 36, jump @9\n      : @50 [@dyn 18] (gas: 4)\n  1777: a0 = 0x20064\n  1782: u64 [s1 + 0x98] = a0\n  1786: a0 = i32 [0x20064]\n  1791: jump @52 if a0 >=u 4\n      : @51 (gas: 1)\n  1795: jump @257\n      : @52 (gas: 6)\n  1798: a0 = s1 + 0x1000\n  1802: i32 a0 = a0 + 0xfffffffffffff900\n  1806: a1 = 0\n  1808: ra = 0x26\n  1811: ecalli 3 // 'call_data_load'\n  1813: fallthrough\n      : @53 [@dyn 19] (gas: 4)\n  1814: a2 = s1 + 0x7ff\n  1818: a2 = a2 + 0x11\n  1821: a0 = i32 [a2 + 0x10c]\n  1825: jump @189 if a0 == 2205082048\n      : @54 (gas: 1)\n  1833: jump @113 if a0 == 2399083160\n      : @55 (gas: 1)\n  1841: jump @164 if a0 == 2915661614\n      : @56 (gas: 1)\n  1849: jump @129 if a0 == 3265688288\n      : @57 (gas: 1)\n  1857: jump @77 if a0 == 4142735383\n      : @58 (gas: 1)\n  1865: jump @98 if a0 == 4236126317\n      : @59 (gas: 1)\n  1873: jump @86 if a0 == 925171883\n      : @60 (gas: 1)\n  1881: jump @120 if a0 != 1302766934\n      : @61 (gas: 9)\n  1889: u64 [a2 + 392] = 0\n  1893: u64 [a2 + 384] = 0\n  1897: u64 [a2 + 376] = 0\n  1901: u64 [a2 + 368] = 0\n  1905: a0 = s1 + 0x1000\n  1909: i32 a0 = a0 + 0xfffffffffffff980\n  1913: ra = 0x28\n  1916: ecalli 17 // 'value_transferred'\n  1918: fallthrough\n      : @62 [@dyn 20] (gas: 4)\n  1919: a3 = s1 + 0x7ff\n  1923: a3 = a3 + 0x11\n  1926: a4 = a3 + 0x100\n  1930: t0 = 42, jump @444\n      : @63 [@dyn 21] (gas: 1)\n  1935: jump @196 if a0 != 0\n      : @64 (gas: 3)\n  1939: a0 = u64 [s1 + 0x98]\n  1943: a0 = i32 [a0]\n  1945: jump @197 if a0 <=u 35\n      : @65 (gas: 2)\n  1950: a0 = s1 + 0x260\n  1954: ra = 44, jump @274\n      : @66 [@dyn 22] (gas: 11)\n  1959: a3 = s1 + 0x200\n  1963: a0 = u64 [a3 + 0x60]\n  1966: a1 = u64 [a3 + 0x68]\n  1969: a2 = u32 [s1 + 0x270]\n  1973: u64 [s1 + 600] = 0\n  1977: u64 [a3 + 0x50] = a2\n  1980: u64 [a3 + 0x48] = a1\n  1983: a1 = s1 + 0x240\n  1987: u64 [a3 + 0x40] = a0\n  1990: a0 = 0\n  1992: ra = 46, jump @9\n      : @67 [@dyn 23] (gas: 7)\n  1997: u64 [s1 + 568] = 0\n  2001: u64 [s1 + 560] = 0\n  2005: u64 [s1 + 552] = 0\n  2009: a0 = 0x20\n  2012: a1 = s1 + 0x220\n  2016: u64 [s1 + 544] = 0\n  2020: ra = 48, jump @9\n      : @68 [@dyn 24] (gas: 2)\n  2025: a1 = i32 [0x20068]\n  2030: jump @70 if a1 >u 63\n      : @69 (gas: 2)\n  2034: u32 [0x20068] = 0x40\n  2040: fallthrough\n      : @70 (gas: 13)\n  2041: a0 = sp + 0xffffffffffffffe0\n  2044: a2 = a0 & 0xffffffffffffffe0\n  2047: u64 [s1 + 0x98] = a2\n  2051: sp = a2\n  2053: a0 = 0x20070\n  2058: i32 a0 = a0 + 0\n  2060: i32 a2 = a2 + 0\n  2062: a1 = 0x40\n  2065: ra = 0x32\n  2068: ecalli 9 // 'hash_keccak_256'\n  2070: a3 = u64 [s1 + 0x98]\n  2074: t0 = 0x34\n  2077: jump @440\n      : @71 [@dyn 25] (gas: 2)\n  2080: a3 = u64 [s1 + 0x98]\n  2084: t0 = 52, jump @440\n      : @72 [@dyn 26] (gas: 8)\n  2089: u64 [a5 + 0xa8] = a3\n  2093: u64 [a5 + 0xa0] = a2\n  2097: u64 [a5 + 0x98] = a1\n  2101: u64 [a5 + 0x90] = a0\n  2105: a0 = s1 + 0x200\n  2109: a1 = s1 + 0x7ff\n  2113: a1 = a1 + 0x1a1\n  2117: ra = 54, jump @11\n      : @73 [@dyn 27] (gas: 12)\n  2122: a1 = s1 + 0x200\n  2126: a0 = u64 [a1 + 0x18]\n  2129: u64 [s1 + 0x98] = a0\n  2133: a0 = u64 [a1 + 0x10]\n  2136: u64 [s1 + 0x90] = a0\n  2140: a0 = u64 [a1 + 0x8]\n  2143: u64 [s1 + 0x88] = a0\n  2147: a0 = u64 [a1]\n  2149: u64 [s1 + 0x80] = a0\n  2153: a0 = s1 + 0x1e0\n  2157: a1 = 0x40\n  2160: ra = 56, jump @7\n      : @74 [@dyn 28] (gas: 6)\n  2165: a4 = s1 + 0x100\n  2169: a0 = u64 [a4 + 0xf8]\n  2173: a1 = u64 [a4 + 0xf0]\n  2177: a2 = u64 [a4 + 0xe8]\n  2181: a3 = u64 [a4 + 0xe0]\n  2185: t0 = 58, jump @437\n      : @75 [@dyn 29] (gas: 1)\n  2190: jump @195 if a0 != 0\n      : @76 (gas: 14)\n  2194: a0 = u64 [s1 + 0x80]\n  2198: a2 = s1 + 0x100\n  2202: u64 [a2 + 0xc0] = a0\n  2206: a0 = u64 [s1 + 0x88]\n  2210: u64 [a2 + 0xc8] = a0\n  2214: a0 = u64 [s1 + 0x90]\n  2218: u64 [a2 + 0xd0] = a0\n  2222: a1 = s1 + 0x1c0\n  2226: a0 = u64 [s1 + 0x98]\n  2230: u64 [a2 + 0xd8] = a0\n  2234: a0 = a3\n  2236: u64 [s1 + 0x98] = a3\n  2240: ra = 0x6a\n  2243: jump @9\n      : @77 (gas: 8)\n  2246: u64 [a2 + 872] = 0\n  2250: u64 [a2 + 864] = 0\n  2254: u64 [a2 + 856] = 0\n  2258: u64 [a2 + 848] = 0\n  2262: a0 = s1 + 0x1000\n  2266: i32 a0 = a0 + 0xfffffffffffffb60\n  2270: ecalli 17 // 'value_transferred'\n  2272: fallthrough\n      : @78 (gas: 11)\n  2273: a3 = s1 + 0x7ff\n  2277: a3 = a3 + 0x11\n  2280: a4 = a3 + 0x300\n  2284: a0 = u64 [a4 + 0x60]\n  2287: a1 = u64 [a4 + 0x68]\n  2290: a2 = u64 [a4 + 0x58]\n  2293: a3 = u64 [a4 + 0x50]\n  2296: a1 = a1 | a2\n  2299: a0 = a0 | a3\n  2302: a0 = a0 | a1\n  2305: jump @198 if a0 != 0\n      : @79 (gas: 3)\n  2309: a0 = u64 [s1 + 0x98]\n  2313: a0 = i32 [a0]\n  2315: jump @199 if a0 <=u 35\n      : @80 (gas: 3)\n  2320: a0 = s1 + 0x7ff\n  2324: a0 = a0 + 0x1\n  2327: ra = 60, jump @274\n      : @81 [@dyn 30] (gas: 15)\n  2332: a0 = s1 + 0x1000\n  2336: a2 = u64 [a0 + 0xfffffffffffff800]\n  2340: a0 = s1 + 0x1000\n  2344: a0 = u64 [a0 + 0xfffffffffffff808]\n  2348: a3 = s1 + 0x7ff\n  2352: a3 = a3 + 0x11\n  2355: a1 = u64 [a3]\n  2357: a3 = u64 [a3 + 0x8]\n  2360: u64 [s1 + 0x7d8] = a3\n  2364: u64 [s1 + 0x7d0] = a1\n  2368: u64 [s1 + 0x7c8] = a0\n  2372: a0 = s1 + 0x7e0\n  2376: a1 = s1 + 0x7c0\n  2380: u64 [s1 + 0x7c0] = a2\n  2384: ra = 62, jump @362\n      : @82 [@dyn 31] (gas: 11)\n  2389: a0 = u64 [s1 + 0x7f8]\n  2393: u64 [s1 + 0x98] = a0\n  2397: a0 = u64 [s1 + 0x7f0]\n  2401: u64 [s1 + 0x90] = a0\n  2405: a0 = u64 [s1 + 0x7e8]\n  2409: u64 [s1 + 0x88] = a0\n  2413: a0 = u64 [s1 + 0x7e0]\n  2417: u64 [s1 + 0x80] = a0\n  2421: a0 = s1 + 0x7a0\n  2425: a1 = 0x40\n  2428: ra = 64, jump @7\n      : @83 [@dyn 32] (gas: 6)\n  2433: a4 = s1 + 0x700\n  2437: a0 = u64 [a4 + 0xb8]\n  2441: a1 = u64 [a4 + 0xb0]\n  2445: a2 = u64 [a4 + 0xa8]\n  2449: a3 = u64 [a4 + 0xa0]\n  2453: t0 = 66, jump @437\n      : @84 [@dyn 33] (gas: 1)\n  2458: jump @195 if a0 != 0\n      : @85 (gas: 14)\n  2462: a0 = u64 [s1 + 0x80]\n  2466: a2 = s1 + 0x700\n  2470: u64 [a2 + 0x80] = a0\n  2474: a0 = u64 [s1 + 0x88]\n  2478: u64 [a2 + 0x88] = a0\n  2482: a0 = u64 [s1 + 0x90]\n  2486: u64 [a2 + 0x90] = a0\n  2490: a1 = s1 + 0x780\n  2494: a0 = u64 [s1 + 0x98]\n  2498: u64 [a2 + 0x98] = a0\n  2502: a0 = a3\n  2504: u64 [s1 + 0x98] = a3\n  2508: ra = 0x6a\n  2511: jump @9\n      : @86 (gas: 8)\n  2514: u64 [a2 + 360] = 0\n  2518: u64 [a2 + 352] = 0\n  2522: u64 [a2 + 344] = 0\n  2526: u64 [a2 + 336] = 0\n  2530: a0 = s1 + 0x1000\n  2534: i32 a0 = a0 + 0xfffffffffffff960\n  2538: ecalli 17 // 'value_transferred'\n  2540: fallthrough\n      : @87 (gas: 11)\n  2541: a3 = s1 + 0x7ff\n  2545: a3 = a3 + 0x11\n  2548: a4 = a3 + 0x100\n  2552: a0 = u64 [a4 + 0x60]\n  2555: a1 = u64 [a4 + 0x68]\n  2558: a2 = u64 [a4 + 0x58]\n  2561: a3 = u64 [a4 + 0x50]\n  2564: a1 = a1 | a2\n  2567: a0 = a0 | a3\n  2570: a0 = a0 | a1\n  2573: jump @200 if a0 != 0\n      : @88 (gas: 4)\n  2577: a0 = u64 [s1 + 0x98]\n  2581: a0 = i32 [a0]\n  2583: a1 = 0x3\n  2586: jump @201 if a1 >=u a0\n      : @89 (gas: 1)\n  2590: ra = 68, jump @0\n      : @90 [@dyn 34] (gas: 14)\n  2595: a1 = u64 [0x300b8]\n  2600: u64 [s1 + 0x98] = a1\n  2604: a1 = u64 [0x300b0]\n  2609: u64 [s1 + 0x90] = a1\n  2613: a0 = u32 [0x300c0]\n  2618: u64 [s1 + 0x88] = a0\n  2622: a0 = 0x30070\n  2627: u64 [s1 + 0x80] = a0\n  2631: i32 a0 = a0 + 0\n  2633: ra = 0x46\n  2636: ecalli 5 // 'caller'\n  2638: a2 = u64 [s1 + 0x80]\n  2642: t0 = 0x48\n  2645: jump @439\n      : @91 [@dyn 35] (gas: 2)\n  2648: a2 = u64 [s1 + 0x80]\n  2652: t0 = 72, jump @439\n      : @92 [@dyn 36] (gas: 9)\n  2657: a2 = u64 [s1 + 0x88]\n  2661: a1 = a1 ^ a2\n  2664: a2 = u64 [s1 + 0x90]\n  2668: a0 = a0 ^ a2\n  2671: a0 = a0 | a1\n  2674: a1 = u64 [s1 + 0x98]\n  2678: a1 = a1 ^ a3\n  2681: a0 = a0 | a1\n  2684: jump @202 if a0 != 0\n      : @93 (gas: 2)\n  2688: a0 = s1 + 0x180\n  2692: ra = 74, jump @300\n      : @94 [@dyn 37] (gas: 11)\n  2697: a0 = u64 [s1 + 0x198]\n  2701: u64 [s1 + 0x98] = a0\n  2705: a0 = u64 [s1 + 0x190]\n  2709: u64 [s1 + 0x90] = a0\n  2713: a0 = u64 [s1 + 0x188]\n  2717: u64 [s1 + 0x88] = a0\n  2721: a0 = u64 [s1 + 0x180]\n  2725: u64 [s1 + 0x80] = a0\n  2729: a0 = s1 + 0x160\n  2733: a1 = 0x40\n  2736: ra = 76, jump @7\n      : @95 [@dyn 38] (gas: 6)\n  2741: a4 = s1 + 0x100\n  2745: a0 = u64 [a4 + 0x78]\n  2748: a1 = u64 [a4 + 0x70]\n  2751: a2 = u64 [a4 + 0x68]\n  2754: a3 = u64 [a4 + 0x60]\n  2757: t0 = 78, jump @437\n      : @96 [@dyn 39] (gas: 1)\n  2762: jump @195 if a0 != 0\n      : @97 (gas: 14)\n  2766: a0 = u64 [s1 + 0x80]\n  2770: a2 = s1 + 0x100\n  2774: u64 [a2 + 0x40] = a0\n  2777: a0 = u64 [s1 + 0x88]\n  2781: u64 [a2 + 0x48] = a0\n  2784: a0 = u64 [s1 + 0x90]\n  2788: u64 [a2 + 0x50] = a0\n  2791: a1 = s1 + 0x140\n  2795: a0 = u64 [s1 + 0x98]\n  2799: u64 [a2 + 0x58] = a0\n  2802: a0 = a3\n  2804: u64 [s1 + 0x98] = a3\n  2808: ra = 0x6a\n  2811: jump @9\n      : @98 (gas: 9)\n  2814: u64 [a2 + 904] = 0\n  2818: u64 [a2 + 896] = 0\n  2822: u64 [a2 + 888] = 0\n  2826: u64 [a2 + 880] = 0\n  2830: a0 = s1 + 0x1000\n  2834: i32 a0 = a0 + 0xfffffffffffffb80\n  2838: ra = 0x50\n  2841: ecalli 17 // 'value_transferred'\n  2843: fallthrough\n      : @99 [@dyn 40] (gas: 4)\n  2844: a3 = s1 + 0x7ff\n  2848: a3 = a3 + 0x11\n  2851: a4 = a3 + 0x300\n  2855: t0 = 82, jump @444\n      : @100 [@dyn 41] (gas: 1)\n  2860: jump @206 if a0 != 0\n      : @101 (gas: 3)\n  2864: a0 = u64 [s1 + 0x98]\n  2868: a0 = i32 [a0]\n  2870: jump @207 if a0 <=u 35\n      : @102 (gas: 3)\n  2875: a0 = s1 + 0x7ff\n  2879: a0 = a0 + 0xc1\n  2883: ra = 84, jump @274\n      : @103 [@dyn 42] (gas: 13)\n  2888: a3 = s1 + 0x7ff\n  2892: a3 = a3 + 0x11\n  2895: a0 = u64 [a3 + 0xb0]\n  2899: a1 = u64 [a3 + 0xb8]\n  2903: a2 = u32 [a3 + 0xc0]\n  2907: u64 [a3 + 168] = 0\n  2911: u64 [a3 + 0xa0] = a2\n  2915: u64 [a3 + 0x98] = a1\n  2919: a1 = s1 + 0x7ff\n  2923: a1 = a1 + 0xa1\n  2927: u64 [a3 + 0x90] = a0\n  2931: a0 = 0\n  2933: ra = 86, jump @9\n      : @104 [@dyn 43] (gas: 11)\n  2938: a0 = s1 + 0x7ff\n  2942: a0 = a0 + 0x11\n  2945: u64 [a0 + 136] = 0\n  2949: u64 [a0 + 128] = 0\n  2953: u64 [a0 + 120] = 0\n  2956: a2 = a0\n  2958: a0 = 0x20\n  2961: a1 = s1 + 0x7ff\n  2965: a1 = a1 + 0x81\n  2969: u64 [a2 + 112] = 0\n  2972: ra = 88, jump @9\n      : @105 [@dyn 44] (gas: 2)\n  2977: a1 = i32 [0x20068]\n  2982: jump @107 if a1 >u 63\n      : @106 (gas: 2)\n  2986: u32 [0x20068] = 0x40\n  2992: fallthrough\n      : @107 (gas: 13)\n  2993: a0 = sp + 0xffffffffffffffe0\n  2996: a2 = a0 & 0xffffffffffffffe0\n  2999: u64 [s1 + 0x98] = a2\n  3003: sp = a2\n  3005: a0 = 0x20070\n  3010: i32 a0 = a0 + 0\n  3012: i32 a2 = a2 + 0\n  3014: a1 = 0x40\n  3017: ra = 0x5a\n  3020: ecalli 9 // 'hash_keccak_256'\n  3022: a3 = u64 [s1 + 0x98]\n  3026: t0 = 0x5c\n  3029: jump @441\n      : @108 [@dyn 45] (gas: 2)\n  3032: a3 = u64 [s1 + 0x98]\n  3036: t0 = 92, jump @441\n      : @109 [@dyn 46] (gas: 10)\n  3041: a5 = a4 + 0x300\n  3045: u64 [a5 + 0xa8] = a3\n  3049: u64 [a5 + 0xa0] = a2\n  3053: u64 [a5 + 0x98] = a1\n  3057: u64 [a5 + 0x90] = a0\n  3061: a0 = s1 + 0x7ff\n  3065: a0 = a0 + 0x61\n  3068: a1 = s1 + 0x7ff\n  3072: a1 = a1 + 0x3a1\n  3076: ra = 94, jump @11\n      : @110 [@dyn 47] (gas: 14)\n  3081: a1 = s1 + 0x7ff\n  3085: a1 = a1 + 0x11\n  3088: a0 = u64 [a1 + 0x68]\n  3091: u64 [s1 + 0x98] = a0\n  3095: a0 = u64 [a1 + 0x60]\n  3098: u64 [s1 + 0x90] = a0\n  3102: a0 = u64 [a1 + 0x58]\n  3105: u64 [s1 + 0x88] = a0\n  3109: a0 = u64 [a1 + 0x50]\n  3112: u64 [s1 + 0x80] = a0\n  3116: a0 = s1 + 0x7ff\n  3120: a0 = a0 + 0x41\n  3123: a1 = 0x40\n  3126: ra = 96, jump @7\n      : @111 [@dyn 48] (gas: 14)\n  3131: a3 = s1 + 0x7ff\n  3135: a3 = a3 + 0x11\n  3138: a0 = u64 [a3 + 0x48]\n  3141: a1 = u64 [a3 + 0x40]\n  3144: a2 = u64 [a3 + 0x38]\n  3147: a4 = u64 [a3 + 0x30]\n  3150: a0 = a0 | a2\n  3153: a2 = a4 | a1\n  3156: a2 = a2 | a0\n  3159: a2 = a2 >> 0x20\n  3162: a0 = a0 | a1\n  3165: a0 = a0 << 0x20\n  3168: a0 = a0 | a2\n  3171: jump @195 if a0 != 0\n      : @112 (gas: 14)\n  3175: a0 = u64 [s1 + 0x80]\n  3179: u64 [a3 + 0x10] = a0\n  3182: a0 = u64 [s1 + 0x88]\n  3186: u64 [a3 + 0x18] = a0\n  3189: a0 = u64 [s1 + 0x90]\n  3193: u64 [a3 + 0x20] = a0\n  3196: a1 = s1 + 0x7ff\n  3200: a1 = a1 + 0x21\n  3203: a0 = u64 [s1 + 0x98]\n  3207: u64 [a3 + 0x28] = a0\n  3210: a0 = a4\n  3212: u64 [s1 + 0x98] = a4\n  3216: ra = 0x6a\n  3219: jump @9\n      : @113 (gas: 8)\n  3222: u64 [a2 + 552] = 0\n  3226: u64 [a2 + 544] = 0\n  3230: u64 [a2 + 536] = 0\n  3234: u64 [a2 + 528] = 0\n  3238: a0 = s1 + 0x1000\n  3242: i32 a0 = a0 + 0xfffffffffffffa20\n  3246: ecalli 17 // 'value_transferred'\n  3248: fallthrough\n      : @114 (gas: 11)\n  3249: a3 = s1 + 0x7ff\n  3253: a3 = a3 + 0x11\n  3256: a4 = a3 + 0x200\n  3260: a0 = u64 [a4 + 0x20]\n  3263: a1 = u64 [a4 + 0x28]\n  3266: a2 = u64 [a4 + 0x18]\n  3269: a3 = u64 [a4 + 0x10]\n  3272: a1 = a1 | a2\n  3275: a0 = a0 | a3\n  3278: a0 = a0 | a1\n  3281: jump @208 if a0 != 0\n      : @115 (gas: 3)\n  3285: a0 = u64 [s1 + 0x98]\n  3289: a0 = i32 [a0]\n  3291: jump @209 if a0 <=u 3\n      : @116 (gas: 3)\n  3296: a0 = s1 + 0x320\n  3300: a1 = 0x40\n  3303: ra = 98, jump @7\n      : @117 [@dyn 49] (gas: 10)\n  3308: a1 = s1 + 0x300\n  3312: a0 = u64 [a1 + 0x38]\n  3315: u64 [s1 + 0x98] = a0\n  3319: a0 = u64 [a1 + 0x30]\n  3322: u64 [s1 + 0x90] = a0\n  3326: a0 = u64 [a1 + 0x28]\n  3329: u64 [s1 + 0x80] = a0\n  3333: a0 = u64 [a1 + 0x20]\n  3336: u64 [s1 + 0x88] = a0\n  3340: ra = 100, jump @0\n      : @118 [@dyn 50] (gas: 13)\n  3345: a0 = u64 [s1 + 0x98]\n  3349: a1 = u64 [s1 + 0x80]\n  3353: a0 = a0 | a1\n  3356: a1 = u64 [s1 + 0x88]\n  3360: a4 = a1\n  3362: a2 = u64 [s1 + 0x90]\n  3366: a1 = a1 | a2\n  3369: a1 = a1 | a0\n  3372: a1 = a1 >> 0x20\n  3375: a0 = a0 | a2\n  3378: a0 = a0 << 0x20\n  3381: a0 = a0 | a1\n  3384: jump @195 if a0 != 0\n      : @119 (gas: 13)\n  3388: a2 = u64 [0x30090]\n  3393: a1 = u64 [0x30098]\n  3398: a3 = u64 [0x300a0]\n  3403: a0 = u64 [0x300a8]\n  3408: a5 = s1 + 0x300\n  3412: u64 [a5 + 0x18] = a0\n  3415: u64 [a5 + 0x10] = a3\n  3418: u64 [a5 + 0x8] = a1\n  3421: a1 = s1 + 0x300\n  3425: u64 [a5] = a2\n  3427: a0 = a4\n  3429: ra = 0xcc\n  3433: jump @9\n      : @120 (gas: 1)\n  3436: jump @210 if a0 != 1872738698\n      : @121 (gas: 8)\n  3444: u64 [a2 + 456] = 0\n  3448: u64 [a2 + 448] = 0\n  3452: u64 [a2 + 440] = 0\n  3456: u64 [a2 + 432] = 0\n  3460: a0 = s1 + 0x1000\n  3464: i32 a0 = a0 + 0xfffffffffffff9c0\n  3468: ecalli 17 // 'value_transferred'\n  3470: fallthrough\n      : @122 (gas: 11)\n  3471: a3 = s1 + 0x7ff\n  3475: a3 = a3 + 0x11\n  3478: a4 = a3 + 0x100\n  3482: a0 = u64 [a4 + 0xc0]\n  3486: a1 = u64 [a4 + 0xc8]\n  3490: a2 = u64 [a4 + 0xb8]\n  3494: a3 = u64 [a4 + 0xb0]\n  3498: a1 = a1 | a2\n  3501: a0 = a0 | a3\n  3504: a0 = a0 | a1\n  3507: jump @214 if a0 != 0\n      : @123 (gas: 3)\n  3511: a0 = u64 [s1 + 0x98]\n  3515: a0 = i32 [a0]\n  3517: jump @215 if a0 <=u 3\n      : @124 (gas: 17)\n  3522: a0 = s1 + 0x1000\n  3526: i32 a0 = a0 + 0xfffffffffffff9e0\n  3530: ecalli 0 // 'balance'\n  3531: a0 = s1 + 0x7ff\n  3535: a0 = a0 + 0x11\n  3538: a2 = a0 + 0x100\n  3542: a1 = u64 [a2 + 0xe8]\n  3546: u64 [s1 + 0x98] = a1\n  3550: a1 = u64 [a2 + 0xe0]\n  3554: u64 [s1 + 0x90] = a1\n  3558: a1 = u64 [a2 + 0xd8]\n  3562: u64 [s1 + 0x88] = a1\n  3566: a0 = u64 [a2 + 0xd0]\n  3570: u64 [s1 + 0x80] = a0\n  3574: a0 = s1 + 0x2a0\n  3578: a1 = 0x40\n  3581: ra = 102, jump @7\n      : @125 [@dyn 51] (gas: 6)\n  3586: a4 = s1 + 0x200\n  3590: a0 = u64 [a4 + 0xb8]\n  3594: a1 = u64 [a4 + 0xb0]\n  3598: a2 = u64 [a4 + 0xa8]\n  3602: a3 = u64 [a4 + 0xa0]\n  3606: t0 = 104, jump @437\n      : @126 [@dyn 52] (gas: 1)\n  3611: jump @195 if a0 != 0\n      : @127 (gas: 13)\n  3615: a0 = u64 [s1 + 0x80]\n  3619: a2 = s1 + 0x200\n  3623: u64 [a2 + 0x80] = a0\n  3627: a0 = u64 [s1 + 0x88]\n  3631: u64 [a2 + 0x88] = a0\n  3635: a0 = u64 [s1 + 0x90]\n  3639: u64 [a2 + 0x90] = a0\n  3643: a1 = s1 + 0x280\n  3647: a0 = u64 [s1 + 0x98]\n  3651: u64 [a2 + 0x98] = a0\n  3655: a0 = a3\n  3657: u64 [s1 + 0x98] = a3\n  3661: ra = 106, jump @9\n      : @128 [@dyn 53] (gas: 4)\n  3666: a1 = 0x20\n  3669: a0 = u64 [s1 + 0x98]\n  3673: ra = 0xce\n  3677: jump @15\n      : @129 (gas: 9)\n  3680: u64 [a2 + 648] = 0\n  3684: u64 [a2 + 640] = 0\n  3688: u64 [a2 + 632] = 0\n  3692: u64 [a2 + 624] = 0\n  3696: a0 = s1 + 0x1000\n  3700: i32 a0 = a0 + 0xfffffffffffffa80\n  3704: ra = 0x6c\n  3707: ecalli 17 // 'value_transferred'\n  3709: fallthrough\n      : @130 [@dyn 54] (gas: 4)\n  3710: a3 = s1 + 0x7ff\n  3714: a3 = a3 + 0x11\n  3717: a4 = a3 + 0x200\n  3721: t0 = 110, jump @444\n      : @131 [@dyn 55] (gas: 1)\n  3726: jump @216 if a0 != 0\n      : @132 (gas: 3)\n  3730: a0 = u64 [s1 + 0x98]\n  3734: a0 = i32 [a0]\n  3736: jump @217 if a0 <=u 67\n      : @133 (gas: 2)\n  3741: a0 = s1 + 0x760\n  3745: ra = 112, jump @274\n      : @134 [@dyn 56] (gas: 25)\n  3750: a1 = s1 + 0x700\n  3754: a0 = u64 [a1 + 0x78]\n  3757: u64 [s1 + 0x20] = a0\n  3760: a0 = u64 [a1 + 0x70]\n  3763: u64 [s1 + 0x58] = a0\n  3766: a0 = u64 [a1 + 0x68]\n  3769: u64 [s1 + 0x70] = a0\n  3772: a0 = u64 [a1 + 0x60]\n  3775: u64 [s1 + 0x78] = a0\n  3778: a0 = s1 + 0x1000\n  3782: i32 a0 = a0 + 0xfffffffffffffaa0\n  3786: a1 = 0x24\n  3789: ecalli 3 // 'call_data_load'\n  3791: a0 = s1 + 0x7ff\n  3795: a0 = a0 + 0x11\n  3798: a2 = a0 + 0x200\n  3802: a1 = u64 [a2 + 0xa8]\n  3806: u64 [s1 + 0x98] = a1\n  3810: a1 = u64 [a2 + 0xa0]\n  3814: u64 [s1 + 0x90] = a1\n  3818: a1 = u64 [a2 + 0x98]\n  3822: u64 [s1 + 0x88] = a1\n  3826: a0 = u64 [a2 + 0x90]\n  3830: u64 [s1 + 0x80] = a0\n  3834: ra = 114, jump @0\n      : @135 [@dyn 57] (gas: 11)\n  3839: a1 = u64 [0x300b8]\n  3844: u64 [s1 + 0x68] = a1\n  3847: a1 = u64 [0x300b0]\n  3852: u64 [s1 + 0x50] = a1\n  3855: a0 = u32 [0x300c0]\n  3860: u64 [s1 + 0x48] = a0\n  3863: a0 = 0x30070\n  3868: u64 [s1 + 0x60] = a0\n  3871: i32 a0 = a0 + 0\n  3873: ecalli 5 // 'caller'\n  3875: fallthrough\n      : @136 (gas: 23)\n  3876: a0 = u64 [s1 + 0x60]\n  3879: t0 = u64 [a0 + 0x8]\n  3882: a4 = u64 [a0]\n  3884: a5 = u32 [a0 + 0x10]\n  3887: a0 = reverse t0\n  3889: a1 = a0 >> 0x20\n  3892: a2 = reverse a4\n  3894: a3 = a2 << 0x20\n  3897: a1 = a1 | a3\n  3900: a0 = a0 << 0x20\n  3903: a3 = reverse a5\n  3905: a3 = a3 >> 0x20\n  3908: a0 = a0 | a3\n  3911: a2 = a2 >> 0x20\n  3914: a3 = u64 [s1 + 0x48]\n  3917: a2 = a2 ^ a3\n  3920: a3 = u64 [s1 + 0x50]\n  3923: a0 = a0 ^ a3\n  3926: a0 = a0 | a2\n  3929: a2 = u64 [s1 + 0x68]\n  3932: a1 = a1 ^ a2\n  3935: a0 = a0 | a1\n  3938: jump @218 if a0 != 0\n      : @137 (gas: 11)\n  3942: u64 [s1 + 0x30] = a5\n  3945: u64 [s1 + 0x38] = t0\n  3948: u64 [s1 + 0x40] = a4\n  3951: a0 = u64 [s1 + 0x90]\n  3955: a1 = u64 [s1 + 0x80]\n  3959: a0 = a0 | a1\n  3962: a1 = u64 [s1 + 0x98]\n  3966: a2 = u64 [s1 + 0x88]\n  3970: a1 = a1 | a2\n  3973: a0 = a0 | a1\n  3976: jump @222 if a0 == 0\n      : @138 (gas: 14)\n  3980: a0 = u64 [s1 + 0x58]\n  3983: a0 = a0 << 0x20\n  3986: a2 = a0 >> 0x20\n  3989: u64 [s1 + 1848] = 0\n  3993: a0 = u64 [s1 + 0x78]\n  3996: a3 = s1 + 0x700\n  4000: u64 [a3 + 0x20] = a0\n  4003: a0 = u64 [s1 + 0x70]\n  4006: u64 [a3 + 0x28] = a0\n  4009: a1 = s1 + 0x720\n  4013: u64 [s1 + 0x48] = a2\n  4016: u64 [a3 + 0x30] = a2\n  4019: a0 = 0\n  4021: ra = 116, jump @9\n      : @139 [@dyn 58] (gas: 7)\n  4026: u64 [s1 + 1816] = 0\n  4030: u64 [s1 + 1808] = 0\n  4034: u64 [s1 + 1800] = 0\n  4038: a0 = 0x20\n  4041: a1 = s1 + 0x700\n  4045: u64 [s1 + 1792] = 0\n  4049: ra = 118, jump @9\n      : @140 [@dyn 59] (gas: 4)\n  4054: a0 = 0x20068\n  4059: u64 [s1 + 0x68] = a0\n  4062: a0 = i32 [0x20068]\n  4067: jump @142 if a0 >u 63\n      : @141 (gas: 3)\n  4071: a1 = u64 [s1 + 0x68]\n  4074: u32 [a1 + 0] = 0x40\n  4077: fallthrough\n      : @142 (gas: 15)\n  4078: a0 = sp + 0xffffffffffffffe0\n  4081: a2 = a0 & 0xffffffffffffffe0\n  4084: u64 [s1 + 0x18] = a2\n  4087: sp = a2\n  4089: a0 = 0x20070\n  4094: u64 [s1 + 0x28] = a0\n  4097: i32 a0 = a0 + 0\n  4099: i32 a2 = a2 + 0\n  4101: a1 = 0x40\n  4104: u64 [s1 + 0x50] = a0\n  4107: ra = 0x78\n  4110: ecalli 9 // 'hash_keccak_256'\n  4112: a3 = u64 [s1 + 0x18]\n  4115: t0 = 0x7a\n  4118: jump @441\n      : @143 [@dyn 60] (gas: 2)\n  4121: a3 = u64 [s1 + 0x18]\n  4124: t0 = 122, jump @441\n      : @144 [@dyn 61] (gas: 9)\n  4129: a5 = a4 + 0x200\n  4133: u64 [a5 + 0xc8] = a3\n  4137: u64 [a5 + 0xc0] = a2\n  4141: u64 [a5 + 0xb8] = a1\n  4145: u64 [a5 + 0xb0] = a0\n  4149: a0 = s1 + 0x6e0\n  4153: a1 = s1 + 0x7ff\n  4157: a1 = a1 + 0x2c1\n  4161: ra = 124, jump @11\n      : @145 [@dyn 62] (gas: 21)\n  4166: a1 = s1 + 0x600\n  4170: a0 = u64 [a1 + 0xf8]\n  4174: t0 = u64 [s1 + 0x6e0]\n  4178: a2 = u64 [a1 + 0xf0]\n  4182: a3 = u64 [a1 + 0xe8]\n  4186: a5 = u64 [s1 + 0x98]\n  4190: a4 = a0 ^ a5\n  4193: a1 = a0 <u a5\n  4196: a0 = u64 [s1 + 0x90]\n  4200: a5 = a2 <u a0\n  4203: a5 = a1 if a4 != 0\n  4206: a1 = u64 [s1 + 0x88]\n  4210: t1 = a3 ^ a1\n  4213: a3 = a3 <u a1\n  4216: a1 = u64 [s1 + 0x80]\n  4220: a1 = t0 <u a1\n  4223: a1 = a3 if t1 != 0\n  4226: a0 = a0 ^ a2\n  4229: a0 = a0 | a4\n  4232: a1 = a5 if a0 != 0\n  4235: jump @226 if a1 != 0\n      : @146 (gas: 10)\n  4239: a0 = u64 [s1 + 0x78]\n  4242: u64 [s1 + 0x6c0] = a0\n  4246: a0 = u64 [s1 + 0x70]\n  4249: u64 [s1 + 0x6c8] = a0\n  4253: a0 = u64 [s1 + 0x58]\n  4256: u64 [s1 + 0x6d0] = a0\n  4260: a0 = s1 + 0x6c0\n  4264: a1 = u64 [s1 + 0x20]\n  4267: u64 [s1 + 0x6d8] = a1\n  4271: ra = 126, jump @416\n      : @147 [@dyn 63] (gas: 11)\n  4276: u64 [s1 + 1720] = 0\n  4280: a0 = u64 [s1 + 0x48]\n  4283: a2 = s1 + 0x600\n  4287: u64 [a2 + 0xb0] = a0\n  4291: a0 = u64 [s1 + 0x70]\n  4294: u64 [a2 + 0xa8] = a0\n  4298: a1 = s1 + 0x6a0\n  4302: a0 = u64 [s1 + 0x78]\n  4305: u64 [a2 + 0xa0] = a0\n  4309: a0 = 0\n  4311: ra = 128, jump @9\n      : @148 [@dyn 64] (gas: 7)\n  4317: u64 [s1 + 1688] = 0\n  4321: u64 [s1 + 1680] = 0\n  4325: u64 [s1 + 1672] = 0\n  4329: a0 = 0x20\n  4332: a1 = s1 + 0x680\n  4336: u64 [s1 + 1664] = 0\n  4340: ra = 130, jump @9\n      : @149 [@dyn 65] (gas: 7)\n  4346: a0 = sp + 0xffffffffffffffe0\n  4349: a0 = a0 & 0xffffffffffffffe0\n  4352: u64 [s1 + 0x58] = a0\n  4355: sp = a0\n  4357: a0 = u64 [s1 + 0x68]\n  4360: a0 = i32 [a0]\n  4362: jump @151 if a0 >u 63\n      : @150 (gas: 3)\n  4366: a1 = u64 [s1 + 0x68]\n  4369: u32 [a1 + 0] = 0x40\n  4372: fallthrough\n      : @151 (gas: 12)\n  4373: a0 = sp + 0xffffffffffffffe0\n  4376: a0 = a0 & 0xffffffffffffffe0\n  4379: u64 [s1 + 0x20] = a0\n  4382: sp = a0\n  4384: i32 a2 = a0 + 0\n  4386: a1 = 0x40\n  4389: a0 = u64 [s1 + 0x50]\n  4392: ra = 0x84\n  4396: ecalli 9 // 'hash_keccak_256'\n  4398: a3 = u64 [s1 + 0x20]\n  4401: t0 = 0x86\n  4405: jump @442\n      : @152 [@dyn 66] (gas: 2)\n  4408: a3 = u64 [s1 + 0x20]\n  4411: t0 = 134, jump @442\n      : @153 [@dyn 67] (gas: 7)\n  4417: a1 = u64 [s1 + 0x58]\n  4420: u64 [a1 + 0x18] = a3\n  4423: u64 [a1 + 0x10] = a2\n  4426: u64 [a1 + 0x8] = a4\n  4429: u64 [a1] = a0\n  4431: a0 = s1 + 0x660\n  4435: ra = 136, jump @11\n      : @154 [@dyn 68] (gas: 20)\n  4441: a3 = u64 [s1 + 0x660]\n  4445: a0 = u64 [s1 + 0x668]\n  4449: a1 = u64 [s1 + 0x670]\n  4453: a2 = u64 [s1 + 0x678]\n  4457: a4 = u64 [s1 + 0x98]\n  4461: u64 [s1 + 0x618] = a4\n  4465: a4 = u64 [s1 + 0x90]\n  4469: u64 [s1 + 0x610] = a4\n  4473: a4 = u64 [s1 + 0x88]\n  4477: u64 [s1 + 0x608] = a4\n  4481: a4 = u64 [s1 + 0x80]\n  4485: u64 [s1 + 0x600] = a4\n  4489: u64 [s1 + 0x638] = a2\n  4493: u64 [s1 + 0x630] = a1\n  4497: u64 [s1 + 0x628] = a0\n  4501: a0 = s1 + 0x640\n  4505: a1 = s1 + 0x620\n  4509: a2 = s1 + 0x600\n  4513: u64 [s1 + 0x620] = a3\n  4517: ra = 138, jump @347\n      : @155 [@dyn 69] (gas: 16)\n  4523: a4 = s1 + 0x600\n  4527: a0 = u64 [a4 + 0x58]\n  4530: a1 = u64 [a4 + 0x50]\n  4533: a2 = u64 [a4 + 0x48]\n  4536: a3 = u64 [a4 + 0x40]\n  4539: a4 = s1 + 0x7ff\n  4543: a4 = a4 + 0x11\n  4546: a5 = a4 + 0x200\n  4550: u64 [a5 + 0xe8] = a0\n  4554: u64 [a5 + 0xe0] = a1\n  4558: u64 [a5 + 0xd8] = a2\n  4562: u64 [a5 + 0xd0] = a3\n  4566: a1 = s1 + 0x7ff\n  4570: a1 = a1 + 0x2e1\n  4574: a0 = u64 [s1 + 0x58]\n  4577: ra = 140, jump @12\n      : @156 [@dyn 70] (gas: 51)\n  4583: ecalli 11 // 'ref_time_left'\n  4585: a2 = u64 [s1 + 0x60]\n  4588: a1 = u64 [s1 + 0x38]\n  4591: u64 [a2 + 0x8] = a1\n  4594: a1 = u64 [s1 + 0x40]\n  4597: u64 [a2] = a1\n  4599: a1 = u64 [s1 + 0x30]\n  4602: u32 [a2 + 0x10] = a1\n  4605: a0 = a0 >u 0x8fc\n  4609: a1 = -a0\n  4611: a3 = s1 + 0x7ff\n  4615: a3 = a3 + 0x11\n  4618: a4 = a3 + 0x300\n  4622: u64 [a4 + 0x48] = a1\n  4625: u64 [a4 + 0x40] = a1\n  4628: u64 [a4 + 0x38] = a1\n  4631: u64 [a4 + 0x30] = a1\n  4634: a1 = u64 [s1 + 0x98]\n  4638: u64 [a4 + 0x8] = a1\n  4641: a1 = u64 [s1 + 0x90]\n  4645: u64 [a4] = a1\n  4647: a1 = u64 [s1 + 0x88]\n  4651: u64 [a3 + 0x2f8] = a1\n  4655: a1 = u64 [s1 + 0x80]\n  4659: u64 [a3 + 0x2f0] = a1\n  4663: u32 [a3 + 784] = 0\n  4667: a1 = a2 << 0x20\n  4670: a1 = a1 >> 0x20\n  4673: a0 = a0 << 0x23\n  4676: a0 = a0 | a1\n  4679: a1 = s1 + 0x7ff\n  4683: a1 = a1 + 0x301\n  4687: a1 = a1 << 0x20\n  4690: a1 = a1 >> 0x20\n  4693: a2 = s1 + 0x7ff\n  4697: a2 = a2 + 0x341\n  4701: a2 = a2 << 0x20\n  4704: a3 = a2 | a1\n  4707: a4 = u64 [s1 + 0x28]\n  4710: a4 = a4 << 0x20\n  4713: a4 = a4 >> 0x20\n  4716: a1 = s1 + 0x7ff\n  4720: a1 = a1 + 0x321\n  4724: a1 = a1 << 0x20\n  4727: a5 = a1 | a4\n  4730: a1 = 0xffffffffffffffff\n  4733: a2 = 0xffffffffffffffff\n  4736: ecalli 1 // 'call'\n  4738: u64 [s1 + 0x60] = a0\n  4741: a0 = s1 + 0x5e0\n  4745: ra = 142, jump @278\n      : @157 [@dyn 71] (gas: 2)\n  4751: a0 = u64 [s1 + 0x60]\n  4754: jump @227 if a0 != 0\n      : @158 (gas: 3)\n  4758: a0 = s1 + 0x5a0\n  4762: a1 = 0x40\n  4765: ra = 144, jump @7\n      : @159 [@dyn 72] (gas: 6)\n  4771: a4 = s1 + 0x500\n  4775: a0 = u64 [a4 + 0xb8]\n  4779: a1 = u64 [a4 + 0xb0]\n  4783: a2 = u64 [a4 + 0xa8]\n  4787: a3 = u64 [a4 + 0xa0]\n  4791: t0 = 146, jump @437\n      : @160 [@dyn 73] (gas: 1)\n  4797: jump @195 if a0 != 0\n      : @161 (gas: 12)\n  4801: a0 = u64 [s1 + 0x80]\n  4805: u64 [s1 + 0x580] = a0\n  4809: a0 = u64 [s1 + 0x88]\n  4813: u64 [s1 + 0x588] = a0\n  4817: a0 = u64 [s1 + 0x90]\n  4821: u64 [s1 + 0x590] = a0\n  4825: a1 = s1 + 0x580\n  4829: a0 = u64 [s1 + 0x98]\n  4833: u64 [s1 + 0x598] = a0\n  4837: a0 = a3\n  4839: u64 [s1 + 0x98] = a3\n  4843: ra = 148, jump @9\n      : @162 [@dyn 74] (gas: 21)\n  4849: u64 [s1 + 1368] = 0\n  4853: a0 = u64 [s1 + 0x48]\n  4856: a4 = s1 + 0x500\n  4860: u64 [a4 + 0x50] = a0\n  4863: a0 = u64 [s1 + 0x70]\n  4866: u64 [a4 + 0x48] = a0\n  4869: a0 = u64 [0x20000]\n  4874: a1 = u64 [0x20008]\n  4879: a2 = u64 [0x20010]\n  4884: a3 = u64 [s1 + 0x78]\n  4887: u64 [a4 + 0x40] = a3\n  4890: u64 [a4 + 0x78] = a0\n  4893: u64 [a4 + 0x70] = a1\n  4896: u64 [a4 + 0x68] = a2\n  4899: a0 = u64 [0x20018]\n  4904: a1 = 0x20\n  4907: a2 = s1 + 0x560\n  4911: a3 = s1 + 0x540\n  4915: u64 [a4 + 0x60] = a0\n  4918: a0 = u64 [s1 + 0x98]\n  4922: ra = 150, jump @13\n      : @163 [@dyn 75] (gas: 5)\n  4928: a0 = 0\n  4930: a1 = u64 [s1 + 0x50]\n  4933: a2 = 0\n  4935: ecalli 14 // 'seal_return'\n  4937: jump @259\n      : @164 (gas: 3)\n  4940: a0 = u64 [s1 + 0x98]\n  4944: a0 = i32 [a0]\n  4946: jump @231 if a0 <=u 67\n      : @165 (gas: 2)\n  4951: a0 = s1 + 0x4e0\n  4955: ra = 152, jump @274\n      : @166 [@dyn 76] (gas: 25)\n  4961: a1 = s1 + 0x400\n  4965: a0 = u64 [a1 + 0xf8]\n  4969: u64 [s1 + 0x60] = a0\n  4972: a0 = u64 [a1 + 0xf0]\n  4976: u64 [s1 + 0x68] = a0\n  4979: a0 = u64 [a1 + 0xe8]\n  4983: u64 [s1 + 0x90] = a0\n  4987: a0 = u64 [a1 + 0xe0]\n  4991: u64 [s1 + 0x98] = a0\n  4995: a0 = s1 + 0x1000\n  4999: i32 a0 = a0 + 0xfffffffffffffa40\n  5003: a1 = 0x24\n  5006: ecalli 3 // 'call_data_load'\n  5008: a1 = s1 + 0x7ff\n  5012: a1 = a1 + 0x11\n  5015: a2 = a1 + 0x200\n  5019: a0 = u64 [a2 + 0x48]\n  5022: u64 [s1 + 0x88] = a0\n  5026: a0 = u64 [a2 + 0x40]\n  5029: u64 [s1 + 0x80] = a0\n  5033: a0 = u64 [a2 + 0x38]\n  5036: u64 [s1 + 0x78] = a0\n  5039: a0 = u64 [a2 + 0x30]\n  5042: u64 [s1 + 0x70] = a0\n  5045: ra = 154, jump @0\n      : @167 [@dyn 77] (gas: 14)\n  5051: a1 = u64 [0x300b8]\n  5056: u64 [s1 + 0x58] = a1\n  5059: a1 = u64 [0x300b0]\n  5064: u64 [s1 + 0x50] = a1\n  5067: a0 = u32 [0x300c0]\n  5072: u64 [s1 + 0x48] = a0\n  5075: a0 = 0x30070\n  5080: u64 [s1 + 0x40] = a0\n  5083: i32 a0 = a0 + 0\n  5085: ra = 0x9c\n  5089: ecalli 5 // 'caller'\n  5091: a2 = u64 [s1 + 0x40]\n  5094: t0 = 0x9e\n  5098: jump @439\n      : @168 [@dyn 78] (gas: 2)\n  5101: a2 = u64 [s1 + 0x40]\n  5104: t0 = 158, jump @439\n      : @169 [@dyn 79] (gas: 9)\n  5110: a2 = u64 [s1 + 0x48]\n  5113: a1 = a1 ^ a2\n  5116: a2 = u64 [s1 + 0x50]\n  5119: a0 = a0 ^ a2\n  5122: a0 = a0 | a1\n  5125: a1 = u64 [s1 + 0x58]\n  5128: a1 = a1 ^ a3\n  5131: a0 = a0 | a1\n  5134: jump @232 if a0 != 0\n      : @170 (gas: 10)\n  5138: a0 = s1 + 0x7ff\n  5142: a0 = a0 + 0x11\n  5145: u64 [a0 + 616] = 0\n  5149: u64 [a0 + 608] = 0\n  5153: u64 [a0 + 600] = 0\n  5157: u64 [a0 + 592] = 0\n  5161: a0 = s1 + 0x1000\n  5165: i32 a0 = a0 + 0xfffffffffffffa60\n  5169: ecalli 17 // 'value_transferred'\n  5171: fallthrough\n      : @171 (gas: 19)\n  5172: a2 = s1 + 0x7ff\n  5176: a2 = a2 + 0x11\n  5179: a3 = a2 + 0x200\n  5183: a0 = u64 [a3 + 0x68]\n  5186: a1 = u64 [a3 + 0x58]\n  5189: t0 = u64 [a2 + 0x250]\n  5193: a2 = u64 [a3 + 0x60]\n  5196: t1 = u64 [s1 + 0x88]\n  5200: a0 = a0 ^ t1\n  5203: a3 = u64 [s1 + 0x78]\n  5206: a1 = a1 ^ a3\n  5209: a0 = a0 | a1\n  5212: a5 = u64 [s1 + 0x80]\n  5216: a1 = a2 ^ a5\n  5219: a4 = u64 [s1 + 0x70]\n  5222: a2 = t0 ^ a4\n  5225: a1 = a1 | a2\n  5228: a0 = a0 | a1\n  5231: jump @236 if a0 != 0\n      : @172 (gas: 4)\n  5235: a0 = a4 | a5\n  5238: a1 = a3 | t1\n  5241: a0 = a0 | a1\n  5244: jump @240 if a0 == 0\n      : @173 (gas: 10)\n  5248: a0 = u64 [s1 + 0x98]\n  5252: u64 [s1 + 0x480] = a0\n  5256: a0 = u64 [s1 + 0x90]\n  5260: u64 [s1 + 0x488] = a0\n  5264: a0 = u64 [s1 + 0x60]\n  5267: u64 [s1 + 0x498] = a0\n  5271: a0 = s1 + 0x480\n  5275: a1 = u64 [s1 + 0x68]\n  5278: u64 [s1 + 0x490] = a1\n  5282: ra = 160, jump @416\n      : @174 [@dyn 80] (gas: 14)\n  5288: a0 = u64 [s1 + 0x68]\n  5291: a0 = a0 << 0x20\n  5294: a0 = a0 >> 0x20\n  5297: u64 [s1 + 1144] = 0\n  5301: u64 [s1 + 0x50] = a0\n  5304: a2 = s1 + 0x400\n  5308: u64 [a2 + 0x70] = a0\n  5311: a0 = u64 [s1 + 0x90]\n  5315: u64 [a2 + 0x68] = a0\n  5318: a1 = s1 + 0x460\n  5322: a0 = u64 [s1 + 0x98]\n  5326: u64 [a2 + 0x60] = a0\n  5329: a0 = 0\n  5331: ra = 162, jump @9\n      : @175 [@dyn 81] (gas: 7)\n  5337: u64 [s1 + 1112] = 0\n  5341: u64 [s1 + 1104] = 0\n  5345: u64 [s1 + 1096] = 0\n  5349: a0 = 0x20\n  5352: a1 = s1 + 0x440\n  5356: u64 [s1 + 1088] = 0\n  5360: ra = 164, jump @9\n      : @176 [@dyn 82] (gas: 7)\n  5366: a0 = sp + 0xffffffffffffffe0\n  5369: a0 = a0 & 0xffffffffffffffe0\n  5372: u64 [s1 + 0x68] = a0\n  5375: sp = a0\n  5377: a2 = 0x20068\n  5382: a0 = i32 [0x20068]\n  5387: jump @178 if a0 >u 63\n      : @177 (gas: 2)\n  5391: u32 [0x20068] = 0x40\n  5397: fallthrough\n      : @178 (gas: 15)\n  5398: u64 [s1 + 0x48] = a2\n  5401: a0 = sp + 0xffffffffffffffe0\n  5404: a2 = a0 & 0xffffffffffffffe0\n  5407: u64 [s1 + 0x60] = a2\n  5410: sp = a2\n  5412: a0 = 0x20070\n  5417: i32 a0 = a0 + 0\n  5419: i32 a2 = a2 + 0\n  5421: a1 = 0x40\n  5424: u64 [s1 + 0x58] = a0\n  5427: ra = 0xa6\n  5431: ecalli 9 // 'hash_keccak_256'\n  5433: a3 = u64 [s1 + 0x60]\n  5436: t0 = 0xa8\n  5440: jump @442\n      : @179 [@dyn 83] (gas: 2)\n  5443: a3 = u64 [s1 + 0x60]\n  5446: t0 = 168, jump @442\n      : @180 [@dyn 84] (gas: 7)\n  5452: a1 = u64 [s1 + 0x68]\n  5455: u64 [a1 + 0x18] = a3\n  5458: u64 [a1 + 0x10] = a2\n  5461: u64 [a1 + 0x8] = a4\n  5464: u64 [a1] = a0\n  5466: a0 = s1 + 0x420\n  5470: ra = 170, jump @11\n      : @181 [@dyn 85] (gas: 38)\n  5476: t2 = u64 [s1 + 0x438]\n  5480: a1 = s1 + 0x400\n  5484: a0 = u64 [a1 + 0x30]\n  5487: a4 = u64 [a1 + 0x20]\n  5490: a5 = u64 [a1 + 0x28]\n  5493: a1 = sp + 0xffffffffffffffe0\n  5496: a1 = a1 & 0xffffffffffffffe0\n  5499: sp = a1\n  5501: a3 = u64 [s1 + 0x78]\n  5504: a3 = a3 + a5\n  5507: t0 = u64 [s1 + 0x70]\n  5510: t0 = t0 + a4\n  5513: a4 = t0 <u a4\n  5516: a3 = a3 + a4\n  5519: t1 = a3 ^ a5\n  5522: a2 = a3 <u a5\n  5525: a2 = a4 if t1 == 0\n  5528: a4 = u64 [s1 + 0x80]\n  5532: a4 = a4 + a0\n  5535: a5 = a4 + a2\n  5538: t1 = a5 <u a4\n  5541: ra = u64 [s1 + 0x88]\n  5545: ra = ra + t2\n  5548: a4 = a4 <u a0\n  5551: a4 = a4 + ra\n  5554: ra = a4 + t1\n  5557: t1 = a5 <u a0\n  5560: a4 = t2 ^ ra\n  5563: t2 = ra <u t2\n  5566: t2 = t1 if a4 == 0\n  5569: a0 = a0 ^ a5\n  5572: a0 = a0 | a4\n  5575: t2 = a2 if a0 == 0\n  5578: u64 [a1 + 0x10] = a5\n  5581: u64 [a1 + 0x8] = a3\n  5584: u64 [a1] = t0\n  5586: u64 [a1 + 0x18] = ra\n  5589: jump @245 if t2 != 0\n      : @182 (gas: 2)\n  5593: a0 = u64 [s1 + 0x68]\n  5596: ra = 172, jump @12\n      : @183 [@dyn 86] (gas: 3)\n  5602: a0 = s1 + 0x400\n  5606: a1 = 0x40\n  5609: ra = 174, jump @7\n      : @184 [@dyn 87] (gas: 6)\n  5615: a4 = s1 + 0x400\n  5619: a0 = u64 [a4 + 0x18]\n  5622: a1 = u64 [a4 + 0x10]\n  5625: a2 = u64 [a4 + 0x8]\n  5628: a3 = u64 [a4]\n  5630: t0 = 176, jump @437\n      : @185 [@dyn 88] (gas: 1)\n  5636: jump @195 if a0 != 0\n      : @186 (gas: 12)\n  5640: a0 = u64 [s1 + 0x70]\n  5643: u64 [s1 + 0x3e0] = a0\n  5647: a0 = u64 [s1 + 0x78]\n  5650: u64 [s1 + 0x3e8] = a0\n  5654: a0 = u64 [s1 + 0x80]\n  5658: u64 [s1 + 0x3f0] = a0\n  5662: a1 = s1 + 0x3e0\n  5666: a0 = u64 [s1 + 0x88]\n  5670: u64 [s1 + 0x3f8] = a0\n  5674: a0 = a3\n  5676: u64 [s1 + 0x88] = a3\n  5680: ra = 178, jump @9\n      : @187 [@dyn 89] (gas: 21)\n  5686: u64 [s1 + 952] = 0\n  5690: a0 = u64 [s1 + 0x50]\n  5693: a4 = s1 + 0x300\n  5697: u64 [a4 + 0xb0] = a0\n  5701: a0 = u64 [s1 + 0x90]\n  5705: u64 [a4 + 0xa8] = a0\n  5709: a0 = u64 [0x20020]\n  5714: a1 = u64 [0x20028]\n  5719: a2 = u64 [0x20030]\n  5724: a3 = u64 [s1 + 0x98]\n  5728: u64 [a4 + 0xa0] = a3\n  5732: u64 [a4 + 0xd8] = a0\n  5736: u64 [a4 + 0xd0] = a1\n  5740: u64 [a4 + 0xc8] = a2\n  5744: a0 = u64 [0x20038]\n  5749: a1 = 0x20\n  5752: a2 = s1 + 0x3c0\n  5756: a3 = s1 + 0x3a0\n  5760: u64 [a4 + 0xc0] = a0\n  5764: a0 = u64 [s1 + 0x88]\n  5768: ra = 180, jump @13\n      : @188 [@dyn 90] (gas: 5)\n  5774: a0 = 0\n  5776: a1 = u64 [s1 + 0x58]\n  5779: a2 = 0\n  5781: ecalli 14 // 'seal_return'\n  5783: jump @259\n      : @189 (gas: 8)\n  5786: u64 [a2 + 520] = 0\n  5790: u64 [a2 + 512] = 0\n  5794: u64 [a2 + 504] = 0\n  5798: u64 [a2 + 496] = 0\n  5802: a0 = s1 + 0x1000\n  5806: i32 a0 = a0 + 0xfffffffffffffa00\n  5810: ecalli 17 // 'value_transferred'\n  5812: fallthrough\n      : @190 (gas: 10)\n  5813: a3 = s1 + 0x7ff\n  5817: a3 = a3 + 0x11\n  5820: a0 = u64 [a3 + 0x200]\n  5824: a1 = u64 [a3 + 0x208]\n  5828: a2 = u64 [a3 + 0x1f8]\n  5832: a3 = u64 [a3 + 0x1f0]\n  5836: a1 = a1 | a2\n  5839: a0 = a0 | a3\n  5842: a0 = a0 | a1\n  5845: jump @250 if a0 != 0\n      : @191 (gas: 3)\n  5849: a0 = u64 [s1 + 0x98]\n  5853: a0 = i32 [a0]\n  5855: jump @251 if a0 <=u 3\n      : @192 (gas: 3)\n  5860: a0 = s1 + 0x2e0\n  5864: a1 = 0x40\n  5867: ra = 182, jump @7\n      : @193 [@dyn 91] (gas: 10)\n  5873: a1 = s1 + 0x200\n  5877: a0 = u64 [a1 + 0xf8]\n  5881: u64 [s1 + 0x98] = a0\n  5885: a0 = u64 [a1 + 0xf0]\n  5889: u64 [s1 + 0x90] = a0\n  5893: a0 = u64 [a1 + 0xe8]\n  5897: u64 [s1 + 0x80] = a0\n  5901: a0 = u64 [a1 + 0xe0]\n  5905: u64 [s1 + 0x88] = a0\n  5909: ra = 184, jump @0\n      : @194 [@dyn 92] (gas: 13)\n  5915: a0 = u64 [s1 + 0x98]\n  5919: a1 = u64 [s1 + 0x80]\n  5923: a0 = a0 | a1\n  5926: a1 = u64 [s1 + 0x88]\n  5930: a3 = a1\n  5932: a2 = u64 [s1 + 0x90]\n  5936: a1 = a1 | a2\n  5939: a1 = a1 | a0\n  5942: a1 = a1 >> 0x20\n  5945: a0 = a0 | a2\n  5948: a0 = a0 << 0x20\n  5951: a0 = a0 | a1\n  5954: jump @252 if a0 == 0\n      : @195 (gas: 1)\n  5958: trap\n      : @196 (gas: 6)\n  5959: a1 = 0x20070\n  5964: i32 a1 = a1 + 0\n  5966: a0 = 0x1\n  5969: a2 = 0\n  5971: ecalli 14 // 'seal_return'\n  5973: jump @259\n      : @197 (gas: 6)\n  5976: a1 = 0x20070\n  5981: i32 a1 = a1 + 0\n  5983: a0 = 0x1\n  5986: a2 = 0\n  5988: ecalli 14 // 'seal_return'\n  5990: jump @259\n      : @198 (gas: 6)\n  5993: a1 = 0x20070\n  5998: i32 a1 = a1 + 0\n  6000: a0 = 0x1\n  6003: a2 = 0\n  6005: ecalli 14 // 'seal_return'\n  6007: jump @259\n      : @199 (gas: 6)\n  6010: a1 = 0x20070\n  6015: i32 a1 = a1 + 0\n  6017: a0 = 0x1\n  6020: a2 = 0\n  6022: ecalli 14 // 'seal_return'\n  6024: jump @259\n      : @200 (gas: 6)\n  6027: a1 = 0x20070\n  6032: i32 a1 = a1 + 0\n  6034: a0 = 0x1\n  6037: a2 = 0\n  6039: ecalli 14 // 'seal_return'\n  6041: jump @259\n      : @201 (gas: 6)\n  6044: a1 = 0x20070\n  6049: i32 a1 = a1 + 0\n  6051: a0 = 0x1\n  6054: a2 = 0\n  6056: ecalli 14 // 'seal_return'\n  6058: jump @259\n      : @202 (gas: 8)\n  6061: u64 [s1 + 432] = 0\n  6065: u64 [s1 + 424] = 0\n  6069: u64 [s1 + 416] = 0\n  6073: a0 = 0xc39fa00400000000\n  6083: a1 = s1 + 0x1a0\n  6087: u64 [s1 + 0x1b8] = a0\n  6091: a0 = 0\n  6093: ra = 186, jump @9\n      : @203 [@dyn 93] (gas: 2)\n  6099: a1 = i32 [0x20068]\n  6104: jump @205 if a1 >u 31\n      : @204 (gas: 3)\n  6108: u32 [0x20068] = 0x20\n  6114: a1 = 0x20070\n  6119: jump @244\n      : @205 (gas: 2)\n  6122: a1 = 0x20070\n  6127: jump @244\n      : @206 (gas: 6)\n  6130: a1 = 0x20070\n  6135: i32 a1 = a1 + 0\n  6137: a0 = 0x1\n  6140: a2 = 0\n  6142: ecalli 14 // 'seal_return'\n  6144: jump @259\n      : @207 (gas: 6)\n  6147: a1 = 0x20070\n  6152: i32 a1 = a1 + 0\n  6154: a0 = 0x1\n  6157: a2 = 0\n  6159: ecalli 14 // 'seal_return'\n  6161: jump @259\n      : @208 (gas: 6)\n  6164: a1 = 0x20070\n  6169: i32 a1 = a1 + 0\n  6171: a0 = 0x1\n  6174: a2 = 0\n  6176: ecalli 14 // 'seal_return'\n  6178: jump @259\n      : @209 (gas: 6)\n  6181: a1 = 0x20070\n  6186: i32 a1 = a1 + 0\n  6188: a0 = 0x1\n  6191: a2 = 0\n  6193: ecalli 14 // 'seal_return'\n  6195: jump @259\n      : @210 (gas: 1)\n  6198: jump @256 if a0 != 753512109\n      : @211 (gas: 10)\n  6206: a0 = s1 + 0x7ff\n  6210: a0 = a0 + 0x11\n  6213: u64 [a0 + 296] = 0\n  6217: u64 [a0 + 288] = 0\n  6221: u64 [a0 + 280] = 0\n  6225: u64 [a0 + 272] = 0\n  6229: a0 = s1 + 0x1000\n  6233: i32 a0 = a0 + 0xfffffffffffff920\n  6237: ecalli 17 // 'value_transferred'\n  6239: fallthrough\n      : @212 (gas: 11)\n  6240: a3 = s1 + 0x7ff\n  6244: a3 = a3 + 0x11\n  6247: a4 = a3 + 0x100\n  6251: a0 = u64 [a4 + 0x20]\n  6254: a1 = u64 [a4 + 0x28]\n  6257: a2 = u64 [a4 + 0x18]\n  6260: a3 = u64 [a4 + 0x10]\n  6263: a1 = a1 | a2\n  6266: a0 = a0 | a3\n  6269: a0 = a0 | a1\n  6272: jump @260 if a0 == 0\n      : @213 (gas: 6)\n  6276: a1 = 0x20070\n  6281: i32 a1 = a1 + 0\n  6283: a0 = 0x1\n  6286: a2 = 0\n  6288: ecalli 14 // 'seal_return'\n  6290: jump @259\n      : @214 (gas: 6)\n  6293: a1 = 0x20070\n  6298: i32 a1 = a1 + 0\n  6300: a0 = 0x1\n  6303: a2 = 0\n  6305: ecalli 14 // 'seal_return'\n  6307: jump @259\n      : @215 (gas: 6)\n  6310: a1 = 0x20070\n  6315: i32 a1 = a1 + 0\n  6317: a0 = 0x1\n  6320: a2 = 0\n  6322: ecalli 14 // 'seal_return'\n  6324: jump @259\n      : @216 (gas: 6)\n  6327: a1 = 0x20070\n  6332: i32 a1 = a1 + 0\n  6334: a0 = 0x1\n  6337: a2 = 0\n  6339: ecalli 14 // 'seal_return'\n  6341: jump @259\n      : @217 (gas: 6)\n  6344: a1 = 0x20070\n  6349: i32 a1 = a1 + 0\n  6351: a0 = 0x1\n  6354: a2 = 0\n  6356: ecalli 14 // 'seal_return'\n  6358: jump @259\n      : @218 (gas: 8)\n  6361: u64 [s1 + 1872] = 0\n  6365: u64 [s1 + 1864] = 0\n  6369: u64 [s1 + 1856] = 0\n  6373: a0 = 0xc39fa00400000000\n  6383: a1 = s1 + 0x740\n  6387: u64 [s1 + 0x758] = a0\n  6391: a0 = 0\n  6393: ra = 188, jump @9\n      : @219 [@dyn 94] (gas: 2)\n  6399: a1 = i32 [0x20068]\n  6404: jump @221 if a1 >u 31\n      : @220 (gas: 3)\n  6408: u32 [0x20068] = 0x20\n  6414: a1 = 0x20070\n  6419: jump @244\n      : @221 (gas: 2)\n  6422: a1 = 0x20070\n  6427: jump @244\n      : @222 (gas: 8)\n  6430: u64 [s1 + 1296] = 0\n  6434: u64 [s1 + 1288] = 0\n  6438: u64 [s1 + 1280] = 0\n  6442: a0 = 0x2c5211c600000000\n  6452: a1 = s1 + 0x500\n  6456: u64 [s1 + 0x518] = a0\n  6460: a0 = 0\n  6462: ra = 190, jump @9\n      : @223 [@dyn 95] (gas: 2)\n  6468: a1 = i32 [0x20068]\n  6473: jump @225 if a1 >u 31\n      : @224 (gas: 3)\n  6477: u32 [0x20068] = 0x20\n  6483: a1 = 0x20070\n  6488: jump @244\n      : @225 (gas: 2)\n  6491: a1 = 0x20070\n  6496: jump @244\n      : @226 (gas: 9)\n  6499: u64 [s1 + 1328] = 0\n  6503: u64 [s1 + 1320] = 0\n  6507: u64 [s1 + 1312] = 0\n  6511: a0 = 0xf4d678b800000000\n  6521: a1 = s1 + 0x520\n  6525: u64 [s1 + 0x538] = a0\n  6529: a0 = 0\n  6531: ra = 0xc0\n  6535: jump @9\n      : @227 (gas: 8)\n  6538: u64 [s1 + 1488] = 0\n  6542: u64 [s1 + 1480] = 0\n  6546: u64 [s1 + 1472] = 0\n  6550: a0 = 0x90b8ec1800000000\n  6560: a1 = s1 + 0x5c0\n  6564: u64 [s1 + 0x5d8] = a0\n  6568: a0 = 0\n  6570: ra = 192, jump @9\n      : @228 [@dyn 96] (gas: 3)\n  6576: a0 = u64 [s1 + 0x68]\n  6579: a0 = i32 [a0]\n  6581: jump @230 if a0 >u 31\n      : @229 (gas: 3)\n  6585: a1 = u64 [s1 + 0x68]\n  6588: u32 [a1 + 0] = 0x20\n  6591: fallthrough\n      : @230 (gas: 5)\n  6592: a0 = 0x1\n  6595: a2 = 0x4\n  6598: a1 = u64 [s1 + 0x50]\n  6601: ecalli 14 // 'seal_return'\n  6603: fallthrough\n      : @231 (gas: 6)\n  6604: a1 = 0x20070\n  6609: i32 a1 = a1 + 0\n  6611: a0 = 0x1\n  6614: a2 = 0\n  6616: ecalli 14 // 'seal_return'\n  6618: jump @259\n      : @232 (gas: 8)\n  6621: u64 [s1 + 1232] = 0\n  6625: u64 [s1 + 1224] = 0\n  6629: u64 [s1 + 1216] = 0\n  6633: a0 = 0xc39fa00400000000\n  6643: a1 = s1 + 0x4c0\n  6647: u64 [s1 + 0x4d8] = a0\n  6651: a0 = 0\n  6653: ra = 194, jump @9\n      : @233 [@dyn 97] (gas: 2)\n  6659: a1 = i32 [0x20068]\n  6664: jump @235 if a1 >u 31\n      : @234 (gas: 3)\n  6668: u32 [0x20068] = 0x20\n  6674: a1 = 0x20070\n  6679: jump @244\n      : @235 (gas: 2)\n  6682: a1 = 0x20070\n  6687: jump @244\n      : @236 (gas: 8)\n  6690: u64 [s1 + 1200] = 0\n  6694: u64 [s1 + 1192] = 0\n  6698: u64 [s1 + 1184] = 0\n  6702: a0 = 0x2c5211c600000000\n  6712: a1 = s1 + 0x4a0\n  6716: u64 [s1 + 0x4b8] = a0\n  6720: a0 = 0\n  6722: ra = 196, jump @9\n      : @237 [@dyn 98] (gas: 2)\n  6728: a1 = i32 [0x20068]\n  6733: jump @239 if a1 >u 31\n      : @238 (gas: 3)\n  6737: u32 [0x20068] = 0x20\n  6743: a1 = 0x20070\n  6748: jump @244\n      : @239 (gas: 2)\n  6750: a1 = 0x20070\n  6755: jump @244\n      : @240 (gas: 8)\n  6757: u64 [s1 + 848] = 0\n  6761: u64 [s1 + 840] = 0\n  6765: u64 [s1 + 832] = 0\n  6769: a0 = 0x2c5211c600000000\n  6779: a1 = s1 + 0x340\n  6783: u64 [s1 + 0x358] = a0\n  6787: a0 = 0\n  6789: ra = 198, jump @9\n      : @241 [@dyn 99] (gas: 2)\n  6795: a1 = i32 [0x20068]\n  6800: jump @243 if a1 >u 31\n      : @242 (gas: 3)\n  6804: u32 [0x20068] = 0x20\n  6810: a1 = 0x20070\n  6815: jump @244\n      : @243 (gas: 2)\n  6817: a1 = 0x20070\n  6822: fallthrough\n      : @244 (gas: 5)\n  6823: i32 a1 = a1 + 0\n  6825: a0 = 0x1\n  6828: a2 = 0x4\n  6831: ecalli 14 // 'seal_return'\n  6833: fallthrough\n      : @245 (gas: 8)\n  6834: u64 [s1 + 912] = 0\n  6838: u64 [s1 + 904] = 0\n  6842: u64 [s1 + 896] = 0\n  6846: a0 = 0x4e487b7100000000\n  6856: a1 = s1 + 0x380\n  6860: u64 [s1 + 0x398] = a0\n  6864: a0 = 0\n  6866: ra = 200, jump @9\n      : @246 [@dyn 100] (gas: 7)\n  6872: u64 [s1 + 888] = 0\n  6876: u64 [s1 + 880] = 0\n  6880: u64 [s1 + 864] = 0x11\n  6885: a0 = 0x4\n  6888: a1 = s1 + 0x360\n  6892: u64 [s1 + 872] = 0\n  6896: ra = 202, jump @9\n      : @247 [@dyn 101] (gas: 3)\n  6902: a0 = u64 [s1 + 0x48]\n  6905: a0 = i32 [a0]\n  6907: jump @249 if a0 >u 63\n      : @248 (gas: 3)\n  6911: a1 = u64 [s1 + 0x48]\n  6914: u32 [a1 + 0] = 0x40\n  6917: fallthrough\n      : @249 (gas: 5)\n  6918: a0 = 0x1\n  6921: a2 = 0x24\n  6924: a1 = u64 [s1 + 0x58]\n  6927: ecalli 14 // 'seal_return'\n  6929: fallthrough\n      : @250 (gas: 6)\n  6930: a1 = 0x20070\n  6935: i32 a1 = a1 + 0\n  6937: a0 = 0x1\n  6940: a2 = 0\n  6942: ecalli 14 // 'seal_return'\n  6944: jump @259\n      : @251 (gas: 6)\n  6946: a1 = 0x20070\n  6951: i32 a1 = a1 + 0\n  6953: a0 = 0x1\n  6956: a2 = 0\n  6958: ecalli 14 // 'seal_return'\n  6960: jump @259\n      : @252 (gas: 11)\n  6962: a2 = u64 [0x300b0]\n  6967: a1 = u64 [0x300b8]\n  6972: a0 = u32 [0x300c0]\n  6977: u64 [s1 + 728] = 0\n  6981: a4 = s1 + 0x200\n  6985: u64 [a4 + 0xd0] = a0\n  6989: u64 [a4 + 0xc8] = a1\n  6993: a1 = s1 + 0x2c0\n  6997: u64 [a4 + 0xc0] = a2\n  7001: a0 = a3\n  7003: ra = 204, jump @9\n      : @253 [@dyn 102] (gas: 3)\n  7009: a1 = 0x20\n  7012: a0 = u64 [s1 + 0x88]\n  7016: ra = 206, jump @15\n      : @254 [@dyn 103] (gas: 2)\n  7022: i32 a1 = a0 + 0\n  7024: fallthrough\n      : @255 (gas: 6)\n  7025: a2 = 0x20\n  7028: a0 = 0\n  7030: ecalli 14 // 'seal_return'\n  7032: a0 = u64 [s1 + 0x98]\n  7036: a0 = i32 [a0]\n  7038: jump @257\n      : @256 (gas: 3)\n  7040: a0 = u64 [s1 + 0x98]\n  7044: a0 = i32 [a0]\n  7046: fallthrough\n      : @257 (gas: 1)\n  7047: jump @259 if a0 == 0\n      : @258 (gas: 6)\n  7050: a1 = 0x20070\n  7055: i32 a1 = a1 + 0\n  7057: a0 = 0x1\n  7060: a2 = 0\n  7062: ecalli 14 // 'seal_return'\n  7064: fallthrough\n      : @259 (gas: 6)\n  7065: a1 = 0x20070\n  7070: i32 a1 = a1 + 0\n  7072: a0 = 0\n  7074: a2 = 0\n  7076: ecalli 14 // 'seal_return'\n  7078: jump @259\n      : @260 (gas: 3)\n  7080: a0 = u64 [s1 + 0x98]\n  7084: a0 = i32 [a0]\n  7086: jump @262 if a0 >u 35\n      : @261 (gas: 6)\n  7090: a1 = 0x20070\n  7095: i32 a1 = a1 + 0\n  7097: a0 = 0x1\n  7100: a2 = 0\n  7102: ecalli 14 // 'seal_return'\n  7104: jump @259\n      : @262 (gas: 2)\n  7106: a0 = s1 + 0x120\n  7110: ra = 208, jump @274\n      : @263 [@dyn 104] (gas: 11)\n  7116: a3 = s1 + 0x100\n  7120: a0 = u64 [a3 + 0x20]\n  7123: a1 = u64 [a3 + 0x28]\n  7126: a2 = u32 [s1 + 0x130]\n  7130: u64 [s1 + 280] = 0\n  7134: u64 [a3 + 0x10] = a2\n  7137: u64 [a3 + 0x8] = a1\n  7140: a1 = s1 + 0x100\n  7144: u64 [a3] = a0\n  7146: a0 = 0\n  7148: ra = 210, jump @9\n      : @264 [@dyn 105] (gas: 7)\n  7154: u64 [s1 + 248] = 0\n  7158: u64 [s1 + 240] = 0\n  7162: u64 [s1 + 224] = 0x1\n  7167: a0 = 0x20\n  7170: a1 = s1 + 0xe0\n  7174: u64 [s1 + 232] = 0\n  7178: ra = 212, jump @9\n      : @265 [@dyn 106] (gas: 4)\n  7184: a0 = 0x20068\n  7189: u64 [s1 + 0x98] = a0\n  7193: a0 = i32 [0x20068]\n  7198: jump @267 if a0 >u 63\n      : @266 (gas: 3)\n  7202: a1 = u64 [s1 + 0x98]\n  7206: u32 [a1 + 0] = 0x40\n  7209: fallthrough\n      : @267 (gas: 14)\n  7210: a0 = sp + 0xffffffffffffffe0\n  7213: a2 = a0 & 0xffffffffffffffe0\n  7216: u64 [s1 + 0x88] = a2\n  7220: sp = a2\n  7222: a0 = 0x20070\n  7227: u64 [s1 + 0x90] = a0\n  7231: i32 a0 = a0 + 0\n  7233: i32 a2 = a2 + 0\n  7235: a1 = 0x40\n  7238: ra = 0xd6\n  7242: ecalli 9 // 'hash_keccak_256'\n  7244: a3 = u64 [s1 + 0x88]\n  7248: t0 = 0xd8\n  7252: jump @440\n      : @268 [@dyn 107] (gas: 2)\n  7255: a3 = u64 [s1 + 0x88]\n  7259: t0 = 216, jump @440\n      : @269 [@dyn 108] (gas: 8)\n  7265: u64 [a5 + 0x48] = a3\n  7268: u64 [a5 + 0x40] = a2\n  7271: u64 [a5 + 0x38] = a1\n  7274: u64 [a5 + 0x30] = a0\n  7277: a0 = s1 + 0xc0\n  7281: a1 = s1 + 0x7ff\n  7285: a1 = a1 + 0x141\n  7289: ra = 218, jump @11\n      : @270 [@dyn 109] (gas: 11)\n  7295: a2 = u64 [s1 + 0xc0]\n  7299: a0 = u64 [s1 + 0xc8]\n  7303: a1 = u64 [s1 + 0xd0]\n  7307: a3 = u64 [s1 + 0xd8]\n  7311: u64 [s1 + 0xb8] = a3\n  7315: u64 [s1 + 0xb0] = a1\n  7319: u64 [s1 + 0xa8] = a0\n  7323: a0 = 0x80\n  7327: a1 = s1 + 0xa0\n  7331: u64 [s1 + 0xa0] = a2\n  7335: ra = 220, jump @9\n      : @271 [@dyn 110] (gas: 3)\n  7341: a0 = u64 [s1 + 0x98]\n  7345: a0 = i32 [a0]\n  7347: jump @273 if a0 >u 159\n      : @272 (gas: 5)\n  7352: a1 = u64 [s1 + 0x98]\n  7356: u32 [a1 + 0] = 0xa0\n  7360: a0 = u64 [s1 + 0x90]\n  7364: i32 a1 = a0 + 0x80\n  7368: jump @255\n      : @273 (gas: 3)\n  7371: a0 = u64 [s1 + 0x90]\n  7375: i32 a1 = a0 + 0x80\n  7379: jump @255\n      : @274 (gas: 11)\n  7382: sp = sp + 0xffffffffffffffc0\n  7385: u64 [sp + 0x38] = ra\n  7388: u64 [sp + 0x30] = s0\n  7391: u64 [sp + 0x28] = s1\n  7394: s0 = sp + 0x40\n  7397: sp = sp & 0xffffffffffffffe0\n  7400: s1 = a0\n  7402: i32 a0 = sp + 0\n  7404: a1 = 0x4\n  7407: ecalli 3 // 'call_data_load'\n  7409: fallthrough\n      : @275 (gas: 10)\n  7410: a0 = u64 [sp + 0x10]\n  7413: a1 = u64 [sp + 0x18]\n  7416: a2 = 0x100000000\n  7426: a2 = a2 ^ a0\n  7429: a2 = a2 | a1\n  7432: a3 = a0 >> 0x20\n  7435: a3 = a3 <u 0x1\n  7438: a3 = 0 if a1 != 0\n  7440: a3 = 0 if a2 == 0\n  7442: jump @277 if a3 == 0\n      : @276 (gas: 12)\n  7445: a2 = u64 [sp]\n  7447: a3 = u64 [sp + 0x8]\n  7450: u64 [s1] = a2\n  7452: u64 [s1 + 0x8] = a3\n  7455: u64 [s1 + 0x10] = a0\n  7458: u64 [s1 + 0x18] = a1\n  7461: sp = s0 + 0xffffffffffffffc0\n  7464: ra = u64 [sp + 0x38]\n  7467: s0 = u64 [sp + 0x30]\n  7470: s1 = u64 [sp + 0x28]\n  7473: sp = sp + 0x40\n  7476: ret\n      : @277 (gas: 7)\n  7478: a1 = 0x20070\n  7483: i32 a1 = a1 + 0\n  7485: a0 = 0x1\n  7488: a2 = 0\n  7490: ra = 0xde\n  7494: ecalli 14 // 'seal_return'\n  7496: fallthrough\n      : @278 [@dyn 111] (gas: 9)\n  7497: sp = sp + 0xffffffffffffff00\n  7501: u64 [sp + 0xf8] = ra\n  7505: u64 [sp + 0xf0] = s0\n  7509: u64 [sp + 0xe8] = s1\n  7513: s0 = sp + 0x100\n  7517: sp = sp & 0xffffffffffffffe0\n  7520: s1 = a0\n  7522: ecalli 13 // 'return_data_size'\n  7524: fallthrough\n      : @279 (gas: 1)\n  7525: jump @293 if a0 == 0\n      : @280 (gas: 6)\n  7529: u64 [sp + 0x10] = s1\n  7532: ecalli 13 // 'return_data_size'\n  7534: s1 = a0\n  7536: a0 = sp + 0xc0\n  7540: a1 = 0x40\n  7543: ra = 224, jump @7\n      : @281 [@dyn 112] (gas: 30)\n  7549: t1 = u64 [sp + 0xd8]\n  7553: t2 = u64 [sp + 0xd0]\n  7557: ra = u64 [sp + 0xc8]\n  7561: t0 = u64 [sp + 0xc0]\n  7565: a0 = s1 + 0x1f\n  7568: u64 [sp + 0x18] = s1\n  7571: a1 = a0 <u s1\n  7574: a0 = a0 & 0xffffffffffffffe0\n  7577: a2 = a0 + 0x3f\n  7580: a0 = a2 <u a0\n  7583: a3 = a1 + a0\n  7586: a2 = a2 & 0xffffffffffffffe0\n  7589: a1 = a3 + ra\n  7592: u64 [sp + 0x38] = t0\n  7595: t0 = t0 + a2\n  7598: a2 = t0 <u a2\n  7601: a1 = a1 + a2\n  7604: a4 = a1 ^ a3\n  7607: a3 = a1 <u a3\n  7610: a3 = a2 if a4 == 0\n  7613: a3 = a3 + t2\n  7616: a4 = a3 <u t2\n  7619: a2 = t1 + a4\n  7622: a5 = a3 >u 0\n  7624: s1 = a2 >u 0\n  7626: s1 = a5 if a2 == 0\n  7629: a5 = a3 | a2\n  7632: a0 = a1 >u 0\n  7634: a0 = s1 if a5 != 0\n  7637: jump @295 if a0 != 0\n      : @282 (gas: 12)\n  7641: a0 = u64 [sp + 0x38]\n  7644: a0 = t0 <u a0\n  7647: a5 = a1 ^ ra\n  7650: s1 = a1 <u ra\n  7653: s1 = a0 if a5 == 0\n  7656: a0 = a2 ^ t1\n  7659: a5 = a2 <u t1\n  7662: a4 = a5 if a0 != 0\n  7665: a5 = a3 ^ t2\n  7668: a0 = a0 | a5\n  7671: a4 = s1 if a0 == 0\n  7674: jump @295 if a4 != 0\n      : @283 (gas: 10)\n  7678: u64 [sp + 0xa0] = t0\n  7682: u64 [sp + 0xa8] = a1\n  7686: u64 [sp + 0xb0] = a3\n  7690: a0 = 0x40\n  7693: a1 = sp + 0xa0\n  7697: u64 [sp + 0xb8] = a2\n  7701: u64 [sp + 0x30] = t1\n  7704: s1 = t2\n  7706: u64 [sp + 0x28] = ra\n  7709: ra = 226, jump @9\n      : @284 [@dyn 113] (gas: 12)\n  7715: a2 = u64 [sp + 0x38]\n  7718: a0 = a2 | s1\n  7721: a1 = u64 [sp + 0x30]\n  7724: a3 = u64 [sp + 0x28]\n  7727: a1 = a1 | a3\n  7730: a0 = a0 | a1\n  7733: a0 = a0 >> 0x20\n  7736: u64 [sp + 0x20] = s1\n  7739: a1 = a1 | s1\n  7742: a1 = a1 << 0x20\n  7745: a1 = a1 | a0\n  7748: jump @292 if a1 != 0\n      : @285 (gas: 8)\n  7752: a0 = a2\n  7754: u64 [sp + 152] = 0\n  7758: u64 [sp + 144] = 0\n  7762: u64 [sp + 136] = 0\n  7766: a1 = sp + 0x80\n  7770: a2 = u64 [sp + 0x18]\n  7773: u64 [sp + 0x80] = a2\n  7777: ra = 228, jump @9\n      : @286 [@dyn 114] (gas: 2)\n  7783: ecalli 13 // 'return_data_size'\n  7785: fallthrough\n      : @287 (gas: 10)\n  7786: a4 = u64 [sp + 0x38]\n  7789: a1 = u64 [sp + 0x20]\n  7792: a2 = u64 [sp + 0x30]\n  7795: a1 = a1 | a2\n  7798: a2 = 0xffffffe0\n  7808: a2 = a4 <u a2\n  7811: a3 = u64 [sp + 0x28]\n  7814: a2 = 0 if a3 != 0\n  7816: a2 = 0 if a1 != 0\n  7818: jump @292 if a2 == 0\n      : @288 (gas: 3)\n  7821: s1 = a0\n  7823: a0 = a0 >> 0x20\n  7826: jump @292 if a0 != 0\n      : @289 (gas: 5)\n  7829: i32 a0 = a4 + 0x20\n  7832: i32 a1 = s1 + 0\n  7834: u64 [sp + 0x18] = a1\n  7837: a1 = s1\n  7839: ra = 230, jump @15\n      : @290 [@dyn 115] (gas: 6)\n  7845: u32 [sp + 0xe0] = s1\n  7849: i32 a0 = a0 + 0\n  7851: i32 a1 = sp + 0xe0\n  7855: a2 = 0\n  7857: ecalli 12 // 'return_data_copy'\n  7859: fallthrough\n      : @291 (gas: 8)\n  7860: a4 = u64 [sp + 0x38]\n  7863: a0 = i32 [sp + 0xe0]\n  7867: s1 = u64 [sp + 0x10]\n  7870: a1 = u64 [sp + 0x30]\n  7873: a2 = u64 [sp + 0x20]\n  7876: a3 = u64 [sp + 0x28]\n  7879: a5 = u64 [sp + 0x18]\n  7882: jump @294 if a0 >=u a5\n      : @292 (gas: 1)\n  7885: trap\n      : @293 (gas: 5)\n  7886: a3 = 0\n  7888: a2 = 0\n  7890: a1 = 0\n  7892: a4 = 0x60\n  7895: fallthrough\n      : @294 (gas: 10)\n  7896: u64 [s1] = a4\n  7898: u64 [s1 + 0x8] = a3\n  7901: u64 [s1 + 0x10] = a2\n  7904: u64 [s1 + 0x18] = a1\n  7907: sp = s0 + 0xffffffffffffff00\n  7911: ra = u64 [sp + 0xf8]\n  7915: s0 = u64 [sp + 0xf0]\n  7919: s1 = u64 [sp + 0xe8]\n  7923: sp = sp + 0x100\n  7927: ret\n      : @295 (gas: 8)\n  7929: u64 [sp + 112] = 0\n  7932: u64 [sp + 104] = 0\n  7935: u64 [sp + 96] = 0\n  7938: a0 = 0x4e487b7100000000\n  7948: a1 = sp + 0x60\n  7951: u64 [sp + 0x78] = a0\n  7954: a0 = 0\n  7956: ra = 232, jump @9\n      : @296 [@dyn 116] (gas: 7)\n  7962: u64 [sp + 88] = 0\n  7965: u64 [sp + 80] = 0\n  7968: u64 [sp + 64] = 0x41\n  7972: a0 = 0x4\n  7975: a1 = sp + 0x40\n  7978: u64 [sp + 72] = 0\n  7981: ra = 234, jump @9\n      : @297 [@dyn 117] (gas: 2)\n  7987: a1 = i32 [0x20068]\n  7992: jump @299 if a1 >u 63\n      : @298 (gas: 2)\n  7996: u32 [0x20068] = 0x40\n  8002: fallthrough\n      : @299 (gas: 7)\n  8003: a1 = 0x20070\n  8008: i32 a1 = a1 + 0\n  8010: a0 = 0x1\n  8013: a2 = 0x24\n  8016: ra = 0xec\n  8020: ecalli 14 // 'seal_return'\n  8022: fallthrough\n      : @300 [@dyn 118] (gas: 17)\n  8023: sp = sp + 0xfffffffffffffce0\n  8027: a1 = sp + 0x300\n  8031: u64 [a1 + 0x18] = ra\n  8034: u64 [a1 + 0x10] = s0\n  8037: u64 [a1 + 0x8] = s1\n  8040: s0 = sp + 0x320\n  8044: sp = sp & 0xffffffffffffffe0\n  8047: s1 = sp\n  8049: u64 [s1 + 0x18] = a0\n  8052: a0 = 0x30070\n  8057: u64 [s1 + 0x38] = a0\n  8060: i32 a0 = a0 + 0\n  8062: u64 [s1 + 0x10] = a0\n  8065: ra = 0xee\n  8069: ecalli 5 // 'caller'\n  8071: t0 = 0xf0\n  8075: jump @438\n      : @301 [@dyn 119] (gas: 1)\n  8078: t0 = 240, jump @438\n      : @302 [@dyn 120] (gas: 8)\n  8084: u64 [s1 + 504] = 0\n  8088: a2 = s1 + 0x100\n  8092: u64 [a2 + 0xf0] = a1\n  8096: u64 [a2 + 0xe8] = a0\n  8100: a0 = s1 + 0x200\n  8104: a1 = s1 + 0x1e0\n  8108: u64 [a2 + 0xe0] = a3\n  8112: ra = 242, jump @362\n      : @303 [@dyn 121] (gas: 11)\n  8118: a0 = u64 [s1 + 0x218]\n  8122: u64 [s1 + 0x40] = a0\n  8125: a0 = u64 [s1 + 0x210]\n  8129: u64 [s1 + 0x48] = a0\n  8132: a0 = u64 [s1 + 0x208]\n  8136: u64 [s1 + 0x50] = a0\n  8139: a0 = u64 [s1 + 0x200]\n  8143: u64 [s1 + 0x58] = a0\n  8146: i32 a0 = s1 + 0x220\n  8150: ecalli 0 // 'balance'\n  8151: fallthrough\n      : @304 (gas: 8)\n  8152: a5 = u64 [s1 + 0x238]\n  8156: t1 = u64 [s1 + 0x230]\n  8160: t0 = u64 [s1 + 0x228]\n  8164: ra = u64 [s1 + 0x220]\n  8168: a0 = t0 | a5\n  8171: a1 = ra | t1\n  8174: a0 = a0 | a1\n  8177: jump @340 if a0 == 0\n      : @305 (gas: 51)\n  8181: a0 = a0 <u 0x1\n  8184: u64 [s1 + 0xd8] = a0\n  8188: a1 = clz t1\n  8190: a2 = a1 + 0x40\n  8193: a1 = clz a5\n  8195: a1 = a2 if a5 == 0\n  8198: a2 = clz ra\n  8200: a2 = a2 + 0x40\n  8203: a3 = clz t0\n  8205: a3 = a2 if t0 == 0\n  8208: a2 = a3 + 0x80\n  8212: a4 = t1 | a5\n  8215: a1 = a2 if a4 == 0\n  8218: u64 [s1 + 0x30] = t0\n  8221: u64 [s1 + 0x60] = a5\n  8224: a5 = a2 <u a3\n  8227: a5 = 0 if a4 != 0\n  8229: a3 = a5 >u 0\n  8231: a2 = a1 <u 0xfd\n  8235: a4 = a2 ^ 0x1\n  8238: a3 = a4 if a5 == 0\n  8241: a2 = a3 <u 0x1\n  8244: a2 = a2 + 0xffffffffffffffff\n  8247: t2 = -a3\n  8249: a5 = -a5\n  8251: t0 = a5 - a4\n  8254: a0 = 0xfc - a1\n  8258: u64 [s1 + 0xc0] = t2\n  8262: a1 = t2 >u 0\n  8264: a4 = a2 >u 0\n  8266: u64 [s1 + 0xc8] = a2\n  8270: a4 = a1 if a2 == 0\n  8273: a1 = t0 >u 0\n  8275: u64 [s1 + 0xd0] = a0\n  8279: a0 = a0 <u 0x100\n  8283: a0 = a0 ^ 0x1\n  8286: a0 = a1 if t0 != 0\n  8289: a0 = a4 if a3 != 0\n  8292: a2 = u64 [s1 + 0xd8]\n  8296: a2 = a2 | a0\n  8299: a4 = u64 [s1 + 0x60]\n  8302: a4 = 0 if a2 != 0\n  8304: u64 [s1 + 0x20] = t1\n  8307: a1 = t1\n  8309: a1 = 0 if a2 != 0\n  8311: a3 = u64 [s1 + 0x30]\n  8314: a3 = 0 if a2 != 0\n  8316: a5 = ra\n  8318: a5 = 0 if a2 != 0\n  8320: u64 [s1 + 0x28] = ra\n  8323: jump @321 if a2 != 0\n      : @306 (gas: 8)\n  8327: a0 = u64 [s1 + 0xd0]\n  8331: a2 = a0 ^ 0xff\n  8335: t1 = u64 [s1 + 0xc0]\n  8339: a0 = a2 | t1\n  8342: t2 = u64 [s1 + 0xc8]\n  8346: a2 = t0 | t2\n  8349: a2 = a2 | a0\n  8352: jump @321 if a2 == 0\n      : @307 (gas: 19)\n  8356: a2 = u64 [s1 + 0xd0]\n  8360: a1 = a2 + 0x1\n  8363: u64 [s1 + 0xd8] = a1\n  8367: a0 = a1 <u 0x1\n  8370: a0 = a0 + t0\n  8373: u64 [s1 + 0xb8] = a0\n  8377: a0 = a0 | a1\n  8380: a0 = a0 <u 0x1\n  8383: a0 = a0 + t1\n  8386: u64 [s1 + 0xa8] = a0\n  8390: a0 = a0 <u t1\n  8393: a0 = a0 + t2\n  8396: u64 [s1 + 0xb0] = a0\n  8400: a1 = 0xff - a2\n  8404: u64 [s1 + 0xc0] = a1\n  8408: a2 = 0x80 - a1\n  8412: a0 = u64 [s1 + 0x28]\n  8415: a1 = u64 [s1 + 0x30]\n  8418: ra = 244, jump @445\n      : @308 [@dyn 122] (gas: 6)\n  8424: u64 [s1 + 0xc8] = a0\n  8428: u64 [s1 + 0x98] = a1\n  8432: a0 = u64 [s1 + 0x20]\n  8435: a1 = u64 [s1 + 0x60]\n  8438: a2 = u64 [s1 + 0xc0]\n  8442: ra = 246, jump @450\n      : @309 [@dyn 123] (gas: 9)\n  8448: u64 [s1 + 0xa0] = a0\n  8452: a0 = u64 [s1 + 0x98]\n  8456: a0 = a0 | a1\n  8459: u64 [s1 + 0x98] = a0\n  8463: a1 = u64 [s1 + 0xd0]\n  8467: a2 = 0x7f - a1\n  8470: a0 = u64 [s1 + 0x28]\n  8473: a1 = u64 [s1 + 0x30]\n  8476: ra = 248, jump @450\n      : @310 [@dyn 124] (gas: 18)\n  8482: a2 = u64 [s1 + 0xc0]\n  8486: a3 = a2 <u 0x80\n  8490: u64 [s1 + 0xd0] = a3\n  8494: a4 = u64 [s1 + 0x98]\n  8498: a1 = a4 if a3 != 0\n  8501: a4 = u64 [s1 + 0x60]\n  8504: a1 = a4 if a2 == 0\n  8507: u64 [s1 + 0x90] = a1\n  8511: a1 = u64 [s1 + 0xc8]\n  8515: a4 = u64 [s1 + 0xa0]\n  8519: a1 = a1 | a4\n  8522: a1 = a0 if a3 == 0\n  8525: a0 = u64 [s1 + 0x20]\n  8528: a1 = a0 if a2 == 0\n  8531: u64 [s1 + 0xc8] = a1\n  8535: a0 = u64 [s1 + 0x28]\n  8538: a1 = u64 [s1 + 0x30]\n  8541: ra = 250, jump @450\n      : @311 [@dyn 125] (gas: 13)\n  8547: a4 = u64 [s1 + 0xa8]\n  8551: a5 = u64 [s1 + 0xb0]\n  8555: a2 = u64 [s1 + 0xb8]\n  8559: a5 = a5 | a2\n  8562: a3 = u64 [s1 + 0xd8]\n  8566: a3 = a3 | a4\n  8569: a3 = a3 | a5\n  8572: a2 = u64 [s1 + 0xd0]\n  8576: a1 = 0 if a2 == 0\n  8578: u64 [s1 + 0xc0] = a1\n  8582: a0 = 0 if a2 == 0\n  8584: u64 [s1 + 0xd0] = a0\n  8588: jump @319 if a3 == 0\n      : @312 (gas: 5)\n  8592: a0 = u64 [s1 + 0xd8]\n  8596: a2 = a0 + 0xffffffffffffff80\n  8599: a0 = u64 [s1 + 0x20]\n  8602: a1 = u64 [s1 + 0x60]\n  8605: ra = 252, jump @445\n      : @313 [@dyn 126] (gas: 6)\n  8611: u64 [s1 + 0x98] = a0\n  8615: u64 [s1 + 0xa0] = a1\n  8619: a0 = u64 [s1 + 0x28]\n  8622: a1 = u64 [s1 + 0x30]\n  8625: a2 = u64 [s1 + 0xd8]\n  8629: ra = 254, jump @445\n      : @314 [@dyn 127] (gas: 7)\n  8635: u64 [s1 + 0x80] = a0\n  8639: u64 [s1 + 0x88] = a1\n  8643: a1 = u64 [s1 + 0xd8]\n  8647: a2 = 0x80 - a1\n  8651: a0 = u64 [s1 + 0x20]\n  8654: a1 = u64 [s1 + 0x60]\n  8657: ra = 256, jump @450\n      : @315 [@dyn 128] (gas: 20)\n  8663: a2 = u64 [s1 + 0x88]\n  8667: a1 = a1 | a2\n  8670: a2 = u64 [s1 + 0xd8]\n  8674: a3 = a2 <u 0x80\n  8678: u64 [s1 + 0x88] = a3\n  8682: a4 = u64 [s1 + 0xa0]\n  8686: a1 = a4 if a3 == 0\n  8689: a4 = u64 [s1 + 0x30]\n  8692: a1 = a4 if a2 == 0\n  8695: u64 [s1 + 0xa0] = a1\n  8699: a1 = u64 [s1 + 0x80]\n  8703: a0 = a0 | a1\n  8706: a1 = u64 [s1 + 0x98]\n  8710: a0 = a1 if a3 == 0\n  8713: a1 = u64 [s1 + 0x28]\n  8716: a0 = a1 if a2 == 0\n  8719: u64 [s1 + 0x98] = a0\n  8723: a0 = u64 [s1 + 0x20]\n  8726: a1 = u64 [s1 + 0x60]\n  8729: ra = 258, jump @445\n      : @316 [@dyn 129] (gas: 8)\n  8735: a5 = 0\n  8737: a2 = u64 [s1 + 0x88]\n  8741: a1 = 0 if a2 == 0\n  8743: a0 = 0 if a2 == 0\n  8745: u64 [s1 + 112] = 0x9\n  8749: u64 [s1 + 104] = 0\n  8752: ra = u64 [s1 + 0x90]\n  8756: fallthrough\n      : @317 (gas: 91)\n  8757: u64 [s1 + 0x80] = a1\n  8761: u64 [s1 + 0x88] = a5\n  8765: u64 [s1 + 120] = 0\n  8768: a1 = u64 [s1 + 0x98]\n  8772: a2 = a1 >> 0x3f\n  8775: a5 = u64 [s1 + 0xa0]\n  8779: a3 = a5 << 0x1\n  8782: t1 = a3 | a2\n  8785: a2 = a1 << 0x1\n  8788: a4 = ra >> 0x3f\n  8791: a4 = a4 | a2\n  8794: u64 [s1 + 0x90] = a4\n  8798: a3 = u64 [s1 + 0x68]\n  8801: a1 = a3 ^ t1\n  8804: u64 [s1 + 0x98] = a1\n  8808: a1 = a3 <u t1\n  8811: a2 = u64 [s1 + 0x70]\n  8814: t0 = a2 <u a4\n  8817: a2 = u64 [s1 + 0x98]\n  8821: t0 = a1 if a2 != 0\n  8824: a1 = u64 [s1 + 0x80]\n  8828: a1 = a1 << 0x1\n  8831: a4 = a0 >> 0x3f\n  8834: a1 = a1 | a4\n  8837: u64 [s1 + 0x80] = a1\n  8841: a4 = a5 >> 0x3f\n  8844: a0 = a0 << 0x1\n  8847: a4 = a4 | a0\n  8850: a0 = ra << 0x1\n  8853: a1 = u64 [s1 + 0xc8]\n  8857: a5 = a1 >> 0x3f\n  8860: a0 = a0 | a5\n  8863: u64 [s1 + 0xa0] = a0\n  8867: a5 = a1 << 0x1\n  8870: a0 = u64 [s1 + 0xc0]\n  8874: a1 = a0 >> 0x3f\n  8877: a1 = a1 | a5\n  8880: a5 = a0 << 0x1\n  8883: a0 = u64 [s1 + 0xd0]\n  8887: ra = a0 >> 0x3f\n  8890: a5 = a5 | ra\n  8893: a0 = a0 << 0x1\n  8896: a2 = u64 [s1 + 0x88]\n  8900: a0 = a0 | a2\n  8903: u64 [s1 + 0xd0] = a0\n  8907: a0 = a5 | 0\n  8909: u64 [s1 + 0xc0] = a0\n  8913: a0 = a1 | 0\n  8915: u64 [s1 + 0xc8] = a0\n  8919: a0 = u64 [s1 + 0xa0]\n  8923: ra = a0 | 0\n  8925: a0 = a3 - a4\n  8928: a0 = a0 <u t0\n  8931: a1 = a3 <u a4\n  8934: t2 = u64 [s1 + 0x80]\n  8938: a5 = a3 - t2\n  8941: a5 = a5 - a1\n  8944: a5 = a5 - a0\n  8947: t0 = a5 >>a 0x3f\n  8950: a0 = t0 & 0xa\n  8953: a2 = u64 [s1 + 0x90]\n  8957: a1 = a2 - a0\n  8960: u64 [s1 + 0x98] = a1\n  8964: a1 = a2 <u a0\n  8967: a0 = t1 - a1\n  8970: u64 [s1 + 0xa0] = a0\n  8974: a1 = 0 if t1 != 0\n  8976: a0 = a4 - a1\n  8979: a1 = a4 <u a1\n  8982: a1 = t2 - a1\n  8985: a3 = u64 [s1 + 0xd8]\n  8989: a5 = u64 [s1 + 0xb8]\n  8993: a2 = a3 | a5\n  8996: a2 = a2 <u 0x1\n  8999: a4 = u64 [s1 + 0xa8]\n  9003: t1 = a4 <u a2\n  9006: a4 = a4 - a2\n  9009: a2 = a3 <u 0x1\n  9012: a5 = a5 - a2\n  9015: a2 = u64 [s1 + 0xb0]\n  9019: a2 = a2 - t1\n  9022: a3 = a3 + 0xffffffffffffffff\n  9025: u64 [s1 + 0xb8] = a5\n  9029: u64 [s1 + 0xb0] = a2\n  9033: a2 = a2 | a5\n  9036: u64 [s1 + 0xd8] = a3\n  9040: a3 = a3 | a4\n  9043: a2 = a2 | a3\n  9046: a5 = t0 & 0x1\n  9049: u64 [s1 + 0xa8] = a4\n  9053: jump @317 if a2 != 0\n      : @318 (gas: 1)\n  9057: jump @320\n      : @319 (gas: 4)\n  9059: a5 = 0\n  9061: u64 [s1 + 120] = 0\n  9064: ra = u64 [s1 + 0x90]\n  9068: fallthrough\n      : @320 (gas: 19)\n  9069: a2 = u64 [s1 + 0xc8]\n  9073: a0 = a2 >> 0x3f\n  9076: a1 = ra << 0x1\n  9079: a0 = a0 | a1\n  9082: a3 = u64 [s1 + 0xc0]\n  9086: a1 = a3 >> 0x3f\n  9089: a2 = a2 << 0x1\n  9092: a1 = a1 | a2\n  9095: a4 = u64 [s1 + 0xd0]\n  9099: a2 = a4 >> 0x3f\n  9102: a3 = a3 << 0x1\n  9105: a4 = a4 << 0x1\n  9108: a5 = a5 | a4\n  9111: a4 = u64 [s1 + 0x78]\n  9114: a2 = a2 | a4\n  9117: a3 = a3 | a2\n  9120: a1 = a1 | a4\n  9123: a4 = a4 | a0\n  9126: fallthrough\n      : @321 (gas: 31)\n  9127: u64 [s1 + 0xc8] = a1\n  9131: t2 = u64 [s1 + 0x58]\n  9134: u64 [s1 + 0xd8] = a5\n  9138: t0 = t2 <u a5\n  9141: a0 = u64 [s1 + 0x50]\n  9144: a5 = a0 ^ a3\n  9147: t1 = a0 <u a3\n  9150: t1 = t0 if a5 == 0\n  9153: a5 = u64 [s1 + 0x48]\n  9156: ra = a5 <u a1\n  9159: a2 = u64 [s1 + 0x40]\n  9162: t0 = a2 ^ a4\n  9165: u64 [s1 + 0xd0] = a4\n  9169: a4 = a2 <u a4\n  9172: a4 = ra if t0 == 0\n  9175: ra = a0\n  9177: a1 = a3\n  9179: a3 = u64 [s1 + 0xc8]\n  9183: a0 = a5 ^ a3\n  9186: a0 = a0 | t0\n  9189: a4 = t1 if a0 == 0\n  9192: a0 = u64 [s1 + 0xd8]\n  9196: t2 = a0 if a4 == 0\n  9199: ra = a1 if a4 == 0\n  9202: a5 = a3 if a4 == 0\n  9205: a0 = u64 [s1 + 0xd0]\n  9209: a2 = a0 if a4 == 0\n  9212: a0 = ra | a2\n  9215: a1 = t2 | a5\n  9218: a0 = a0 | a1\n  9221: jump @340 if a0 == 0\n      : @322 (gas: 33)\n  9225: a1 = u64 [s1 + 0x60]\n  9228: a0 = a2 ^ a1\n  9231: u64 [s1 + 0xd8] = a0\n  9235: a0 = a1\n  9237: t1 = u64 [s1 + 0x30]\n  9240: t0 = ra ^ t1\n  9243: a4 = ra <u t1\n  9246: a1 = u64 [s1 + 0x28]\n  9249: a3 = t2 <u a1\n  9252: a3 = a4 if t0 != 0\n  9255: a1 = a2 <u a0\n  9258: t0 = u64 [s1 + 0x20]\n  9261: a4 = a5 <u t0\n  9264: a0 = u64 [s1 + 0xd8]\n  9268: a4 = a1 if a0 != 0\n  9271: a1 = a5 ^ t0\n  9274: a0 = a0 | a1\n  9277: a3 = a4 if a0 != 0\n  9280: a0 = u64 [s1 + 0x60]\n  9283: a2 = a0 if a3 == 0\n  9286: u64 [s1 + 0x40] = a2\n  9289: a5 = t0 if a3 == 0\n  9292: u64 [s1 + 0x48] = a5\n  9295: ra = t1 if a3 == 0\n  9298: u64 [s1 + 0x50] = ra\n  9301: a0 = u64 [s1 + 0x28]\n  9304: t2 = a0 if a3 == 0\n  9307: u64 [s1 + 0x58] = t2\n  9310: a0 = u64 [s1 + 0x10]\n  9313: ra = 0x104\n  9317: ecalli 5 // 'caller'\n  9319: t0 = 0x106\n  9323: jump @438\n      : @323 [@dyn 130] (gas: 1)\n  9326: t0 = 262, jump @438\n      : @324 [@dyn 131] (gas: 7)\n  9332: u64 [s1 + 472] = 0\n  9336: u64 [s1 + 0x1d0] = a1\n  9340: u64 [s1 + 0x1c8] = a0\n  9344: a1 = s1 + 0x1c0\n  9348: u64 [s1 + 0x1c0] = a3\n  9352: a0 = 0\n  9354: ra = 264, jump @9\n      : @325 [@dyn 132] (gas: 7)\n  9360: u64 [s1 + 440] = 0\n  9364: u64 [s1 + 432] = 0\n  9368: u64 [s1 + 416] = 0x1\n  9373: a0 = 0x20\n  9376: a1 = s1 + 0x1a0\n  9380: u64 [s1 + 424] = 0\n  9384: ra = 266, jump @9\n      : @326 [@dyn 133] (gas: 3)\n  9390: i32 a0 = s1 + 0x240\n  9394: ecalli 10 // 'now'\n  9396: fallthrough\n      : @327 (gas: 12)\n  9397: a2 = 0x20068\n  9402: a3 = s1 + 0x200\n  9406: a0 = u64 [a3 + 0x58]\n  9409: u64 [s1 + 0xc0] = a0\n  9413: a0 = u64 [a3 + 0x50]\n  9416: u64 [s1 + 0xc8] = a0\n  9420: a0 = u64 [a3 + 0x48]\n  9423: u64 [s1 + 0xd0] = a0\n  9427: a0 = i32 [0x20068]\n  9432: a1 = u64 [a3 + 0x40]\n  9435: u64 [s1 + 0xb8] = a1\n  9439: jump @329 if a0 >u 63\n      : @328 (gas: 2)\n  9443: u32 [0x20068] = 0x40\n  9449: fallthrough\n      : @329 (gas: 16)\n  9450: u64 [s1 + 0xa8] = a2\n  9454: a0 = sp + 0xffffffffffffffe0\n  9457: a2 = a0 & 0xffffffffffffffe0\n  9460: u64 [s1 + 0xb0] = a2\n  9464: sp = a2\n  9466: a0 = 0x20070\n  9471: u64 [s1 + 0xd8] = a0\n  9475: i32 a0 = a0 + 0\n  9477: i32 a2 = a2 + 0\n  9479: a1 = 0x40\n  9482: u64 [s1 + 0xa0] = a0\n  9486: ra = 0x10c\n  9490: ecalli 9 // 'hash_keccak_256'\n  9492: a3 = u64 [s1 + 0xb0]\n  9496: t0 = 0x10e\n  9500: jump @435\n      : @330 [@dyn 134] (gas: 2)\n  9503: a3 = u64 [s1 + 0xb0]\n  9507: t0 = 270, jump @435\n      : @331 [@dyn 135] (gas: 15)\n  9513: u64 [s1 + 0x278] = a3\n  9517: u64 [s1 + 0x270] = a2\n  9521: u64 [s1 + 0x268] = a1\n  9525: u64 [s1 + 0x260] = a0\n  9529: a0 = u64 [s1 + 0xc0]\n  9533: u64 [s1 + 0x298] = a0\n  9537: a0 = u64 [s1 + 0xc8]\n  9541: u64 [s1 + 0x290] = a0\n  9545: a0 = u64 [s1 + 0xd0]\n  9549: u64 [s1 + 0x288] = a0\n  9553: a0 = u64 [s1 + 0xb8]\n  9557: u64 [s1 + 0x280] = a0\n  9561: a0 = s1 + 0x260\n  9565: a1 = s1 + 0x280\n  9569: ra = 272, jump @12\n      : @332 [@dyn 136] (gas: 1)\n  9575: ra = 274, jump @0\n      : @333 [@dyn 137] (gas: 62)\n  9581: a1 = u64 [0x300b0]\n  9586: u64 [s1 + 0xd0] = a1\n  9590: a1 = u64 [0x300c0]\n  9595: u64 [s1 + 0xc8] = a1\n  9599: a0 = u64 [0x300b8]\n  9604: u64 [s1 + 0xc0] = a0\n  9608: ecalli 11 // 'ref_time_left'\n  9610: a1 = u64 [s1 + 0xc0]\n  9614: a1 = reverse a1\n  9616: a2 = a1 << 0x20\n  9619: a3 = u64 [s1 + 0xc8]\n  9623: a3 = reverse a3\n  9625: a3 = a3 >> 0x20\n  9628: a2 = a2 | a3\n  9631: a1 = a1 >> 0x20\n  9634: a3 = u64 [s1 + 0xd0]\n  9638: a3 = reverse a3\n  9640: a4 = a3 << 0x20\n  9643: a1 = a1 | a4\n  9646: a3 = a3 >> 0x20\n  9649: a4 = u64 [s1 + 0x38]\n  9652: u32 [a4 + 0x10] = a3\n  9655: u64 [a4 + 0x8] = a1\n  9658: u64 [a4] = a2\n  9660: a1 = u64 [s1 + 0x40]\n  9663: a2 = s1 + 0x200\n  9667: u64 [a2 + 0xb8] = a1\n  9671: a1 = u64 [s1 + 0x48]\n  9674: u64 [a2 + 0xb0] = a1\n  9678: a1 = u64 [s1 + 0x50]\n  9681: u64 [a2 + 0xa8] = a1\n  9685: a1 = u64 [s1 + 0x58]\n  9688: u64 [a2 + 0xa0] = a1\n  9692: u32 [s1 + 704] = 0\n  9696: a0 = a0 >u 0x8fc\n  9700: a1 = -a0\n  9702: u64 [a2 + 0xf8] = a1\n  9706: u64 [a2 + 0xf0] = a1\n  9710: u64 [a2 + 0xe8] = a1\n  9714: u64 [a2 + 0xe0] = a1\n  9718: a1 = a4 << 0x20\n  9721: a1 = a1 >> 0x20\n  9724: a0 = a0 << 0x23\n  9727: a0 = a0 | a1\n  9730: a1 = s1 + 0x2a0\n  9734: a1 = a1 << 0x20\n  9737: a1 = a1 >> 0x20\n  9740: a2 = s1 + 0x2e0\n  9744: a2 = a2 << 0x20\n  9747: a3 = a2 | a1\n  9750: a4 = u64 [s1 + 0xd8]\n  9754: a4 = a4 << 0x20\n  9757: a4 = a4 >> 0x20\n  9760: a1 = s1 + 0x2c0\n  9764: a1 = a1 << 0x20\n  9767: a5 = a1 | a4\n  9770: a1 = 0xffffffffffffffff\n  9773: a2 = 0xffffffffffffffff\n  9776: ecalli 1 // 'call'\n  9778: u64 [s1 + 0xd8] = a0\n  9782: a0 = s1 + 0x180\n  9786: ra = 276, jump @278\n      : @334 [@dyn 138] (gas: 2)\n  9792: a0 = u64 [s1 + 0xd8]\n  9796: jump @343 if a0 != 0\n      : @335 (gas: 3)\n  9800: a0 = s1 + 0x140\n  9804: a1 = 0x40\n  9807: ra = 278, jump @7\n      : @336 [@dyn 139] (gas: 13)\n  9813: a4 = s1 + 0x100\n  9817: a3 = u64 [a4 + 0x58]\n  9820: a1 = u64 [a4 + 0x50]\n  9823: a2 = u64 [a4 + 0x48]\n  9826: a0 = u64 [a4 + 0x40]\n  9829: a3 = a3 | a2\n  9832: a2 = a0 | a1\n  9835: a2 = a2 | a3\n  9838: a2 = a2 >> 0x20\n  9841: a1 = a1 | a3\n  9844: a1 = a1 << 0x20\n  9847: a1 = a1 | a2\n  9850: jump @342 if a1 != 0\n      : @337 (gas: 11)\n  9854: a1 = u64 [s1 + 0x58]\n  9857: u64 [s1 + 0x120] = a1\n  9861: a1 = u64 [s1 + 0x50]\n  9864: u64 [s1 + 0x128] = a1\n  9868: a1 = u64 [s1 + 0x48]\n  9871: u64 [s1 + 0x130] = a1\n  9875: a1 = s1 + 0x120\n  9879: a2 = u64 [s1 + 0x40]\n  9882: u64 [s1 + 0x138] = a2\n  9886: u64 [s1 + 0xd8] = a0\n  9890: ra = 280, jump @9\n      : @338 [@dyn 140] (gas: 34)\n  9896: a0 = u64 [s1 + 0x10]\n  9899: ecalli 5 // 'caller'\n  9901: a2 = u64 [s1 + 0x38]\n  9904: a0 = u64 [a2 + 0x8]\n  9907: a1 = i32 [a2 + 0x10]\n  9910: a2 = u64 [a2]\n  9912: a3 = reverse a0\n  9914: a0 = a3 << 0x20\n  9917: a1 = reverse a1\n  9919: a1 = a1 >> 0x20\n  9922: t0 = a1 | a0\n  9925: a3 = a3 >> 0x20\n  9928: a2 = reverse a2\n  9930: a1 = a2 << 0x20\n  9933: a1 = a1 | a3\n  9936: a2 = a2 >> 0x20\n  9939: u64 [s1 + 248] = 0\n  9943: a3 = u64 [0x20040]\n  9948: a4 = u64 [0x20048]\n  9953: a5 = u64 [0x20050]\n  9958: a0 = u64 [0x20058]\n  9963: u64 [s1 + 0x118] = a3\n  9967: a3 = s1 + 0x100\n  9971: u64 [a3 + 0x10] = a4\n  9974: u64 [a3 + 0x8] = a5\n  9977: u64 [a3] = a0\n  9979: u64 [s1 + 0xf0] = a2\n  9983: u64 [s1 + 0xe8] = a1\n  9987: a1 = 0x20\n  9990: a2 = s1 + 0x100\n  9994: a3 = s1 + 0xe0\n  9998: u64 [s1 + 0xe0] = t0\n 10002: a0 = u64 [s1 + 0xd8]\n 10006: ra = 282, jump @13\n      : @339 [@dyn 141] (gas: 5)\n 10012: a4 = u64 [s1 + 0x40]\n 10015: a3 = u64 [s1 + 0x48]\n 10018: a2 = u64 [s1 + 0x50]\n 10021: a1 = u64 [s1 + 0x58]\n 10024: jump @341\n      : @340 (gas: 5)\n 10026: a1 = 0\n 10028: a2 = 0\n 10030: a3 = 0\n 10032: a4 = 0\n 10034: fallthrough\n      : @341 (gas: 12)\n 10035: a0 = u64 [s1 + 0x18]\n 10038: u64 [a0] = a1\n 10040: u64 [a0 + 0x8] = a2\n 10043: u64 [a0 + 0x10] = a3\n 10046: u64 [a0 + 0x18] = a4\n 10049: sp = s0 + 0xfffffffffffffce0\n 10053: a0 = sp + 0x300\n 10057: ra = u64 [a0 + 0x18]\n 10060: s0 = u64 [a0 + 0x10]\n 10063: s1 = u64 [a0 + 0x8]\n 10066: sp = sp + 0x320\n 10070: ret\n      : @342 (gas: 1)\n 10072: trap\n      : @343 (gas: 8)\n 10073: u64 [s1 + 368] = 0\n 10077: u64 [s1 + 360] = 0\n 10081: u64 [s1 + 352] = 0\n 10085: a0 = 0x90b8ec1800000000\n 10095: a1 = s1 + 0x160\n 10099: u64 [s1 + 0x178] = a0\n 10103: a0 = 0\n 10105: ra = 284, jump @9\n      : @344 [@dyn 142] (gas: 3)\n 10111: a0 = u64 [s1 + 0xa8]\n 10115: a0 = i32 [a0]\n 10117: jump @346 if a0 >u 31\n      : @345 (gas: 3)\n 10121: a1 = u64 [s1 + 0xa8]\n 10125: u32 [a1 + 0] = 0x20\n 10128: fallthrough\n      : @346 (gas: 6)\n 10129: a0 = 0x1\n 10132: a2 = 0x4\n 10135: a1 = u64 [s1 + 0xa0]\n 10139: ra = 0x11e\n 10143: ecalli 14 // 'seal_return'\n 10145: fallthrough\n      : @347 [@dyn 143] (gas: 30)\n 10146: sp = sp + 0xffffffffffffff80\n 10149: u64 [sp + 0x78] = ra\n 10152: u64 [sp + 0x70] = s0\n 10155: u64 [sp + 0x68] = s1\n 10158: s0 = sp + 0x80\n 10162: sp = sp & 0xfffffffffffffff0\n 10165: a4 = u64 [a2]\n 10167: a3 = u64 [a1]\n 10169: s1 = u64 [a2 + 0x8]\n 10172: t1 = u64 [a1 + 0x8]\n 10175: t2 = u64 [a2 + 0x10]\n 10178: a5 = u64 [a1 + 0x10]\n 10181: a2 = u64 [a2 + 0x18]\n 10184: a1 = u64 [a1 + 0x18]\n 10187: t0 = t1 ^ s1\n 10190: u64 [sp + 0x8] = s1\n 10193: s1 = t1 <u s1\n 10196: u64 [sp + 0x18] = a4\n 10199: u64 [sp + 0x10] = a3\n 10202: a3 = a3 <u a4\n 10205: u64 [sp] = a3\n 10207: s1 = a3 if t0 == 0\n 10210: a3 = a1 ^ a2\n 10213: ra = a1 <u a2\n 10216: t0 = a5 <u t2\n 10219: ra = t0 if a3 == 0\n 10222: a4 = a5 ^ t2\n 10225: a3 = a3 | a4\n 10228: ra = s1 if a3 == 0\n 10231: jump @349 if ra != 0\n      : @348 (gas: 23)\n 10234: a3 = a5 - t2\n 10237: a1 = a1 - a2\n 10240: a1 = a1 - t0\n 10243: a2 = a3 <u s1\n 10246: a1 = a1 - a2\n 10249: a3 = a3 - s1\n 10252: a2 = u64 [sp + 0x8]\n 10255: a2 = t1 - a2\n 10258: a4 = u64 [sp]\n 10260: a2 = a2 - a4\n 10263: a4 = u64 [sp + 0x18]\n 10266: a5 = u64 [sp + 0x10]\n 10269: a4 = a5 - a4\n 10272: u64 [a0] = a4\n 10274: u64 [a0 + 0x8] = a2\n 10277: u64 [a0 + 0x10] = a3\n 10280: u64 [a0 + 0x18] = a1\n 10283: sp = s0 + 0xffffffffffffff80\n 10286: ra = u64 [sp + 0x78]\n 10289: s0 = u64 [sp + 0x70]\n 10292: s1 = u64 [sp + 0x68]\n 10295: sp = sp + 0x80\n 10299: ret\n      : @349 (gas: 8)\n 10301: u64 [sp + 80] = 0\n 10304: u64 [sp + 72] = 0\n 10307: u64 [sp + 64] = 0\n 10310: a0 = 0x4e487b7100000000\n 10320: a1 = sp + 0x40\n 10323: u64 [sp + 0x58] = a0\n 10326: a0 = 0\n 10328: ra = 288, jump @9\n      : @350 [@dyn 144] (gas: 7)\n 10334: u64 [sp + 56] = 0\n 10337: u64 [sp + 48] = 0\n 10340: u64 [sp + 32] = 0x11\n 10344: a0 = 0x4\n 10347: a1 = sp + 0x20\n 10350: u64 [sp + 40] = 0\n 10353: ra = 290, jump @9\n      : @351 [@dyn 145] (gas: 2)\n 10359: a1 = i32 [0x20068]\n 10364: jump @353 if a1 >u 63\n      : @352 (gas: 2)\n 10368: u32 [0x20068] = 0x40\n 10374: fallthrough\n      : @353 (gas: 7)\n 10375: a1 = 0x20070\n 10380: i32 a1 = a1 + 0\n 10382: a0 = 0x1\n 10385: a2 = 0x24\n 10388: ra = 0x124\n 10392: ecalli 14 // 'seal_return'\n 10394: fallthrough\n      : @354 [@dyn 146] (gas: 70)\n 10395: sp = sp + 0xffffffffffffff40\n 10399: u64 [sp + 0xb8] = ra\n 10403: u64 [sp + 0xb0] = s0\n 10407: u64 [sp + 0xa8] = s1\n 10411: s0 = sp + 0xc0\n 10415: sp = sp & 0xfffffffffffffff0\n 10418: ra = u64 [a2]\n 10420: t0 = u64 [a1]\n 10422: a3 = u64 [a1 + 0x8]\n 10425: u64 [sp + 0x58] = a0\n 10428: a4 = u64 [a2 + 0x8]\n 10431: a0 = t0 mulhu ra\n 10434: s1 = a3 * ra\n 10437: a0 = a0 + s1\n 10440: s1 = a0 <u s1\n 10443: a5 = a3 mulhu ra\n 10446: a5 = a5 + s1\n 10449: s1 = t0 * a4\n 10452: a0 = a0 + s1\n 10455: u64 [sp + 0x50] = a0\n 10458: a0 = a0 <u s1\n 10461: s1 = t0 mulhu a4\n 10464: a0 = a0 + s1\n 10467: a0 = a0 + a5\n 10470: a5 = a0 <u a5\n 10473: s1 = a3 mulhu a4\n 10476: a5 = a5 + s1\n 10479: s1 = a3 * a4\n 10482: a0 = a0 + s1\n 10485: u64 [sp + 0x48] = a0\n 10488: s1 = a0 <u s1\n 10491: a5 = a5 + s1\n 10494: u64 [sp + 0x40] = a5\n 10497: t1 = u64 [a2 + 0x10]\n 10500: a2 = u64 [a2 + 0x18]\n 10503: t2 = u64 [a1 + 0x18]\n 10506: a0 = u64 [a1 + 0x10]\n 10509: a5 = a3 * t1\n 10512: u64 [sp + 0x20] = a2\n 10515: s1 = a2 * t0\n 10518: a1 = s1 + a5\n 10521: u64 [sp + 0x28] = a4\n 10524: s1 = a4 * a0\n 10527: a2 = t2 * ra\n 10530: a2 = a2 + s1\n 10533: s1 = t1 * t0\n 10536: a5 = a0 * ra\n 10539: s1 = s1 + a5\n 10542: u64 [sp + 0x30] = t1\n 10545: a4 = t1 mulhu t0\n 10548: u64 [sp + 0x10] = a4\n 10551: a4 = a4 + a1\n 10554: t1 = a0 mulhu ra\n 10557: a1 = t1 + a2\n 10560: a2 = s1 <u a5\n 10563: u64 [sp + 0x18] = a1\n 10566: u64 [sp + 0x8] = a4\n 10569: a5 = a1 + a4\n 10572: a2 = a2 + a5\n 10575: u64 [sp + 0x38] = t2\n 10578: a5 = a3 | t2\n 10581: a1 = t0 | a0\n 10584: a1 = a1 | a5\n 10587: a4 = u64 [sp + 0x40]\n 10590: a5 = u64 [sp + 0x48]\n 10593: s1 = s1 + a5\n 10596: t2 = s1 <u a5\n 10599: a2 = a2 + a4\n 10602: a2 = a2 + t2\n 10605: jump @356 if a1 == 0\n      : @355 (gas: 50)\n 10609: a1 = a2 ^ a4\n 10612: u64 [sp + 0x48] = a2\n 10615: a2 = u64 [sp + 0x48]\n 10618: a2 = a2 <u a4\n 10621: t2 = a2 if a1 != 0\n 10624: u64 [sp + 0x40] = s1\n 10627: a1 = u64 [sp + 0x10]\n 10630: a2 = u64 [sp + 0x8]\n 10633: s1 = a2 <u a1\n 10636: a2 = a3 >u 0\n 10638: a1 = u64 [sp + 0x20]\n 10641: a5 = a1 >u 0\n 10643: a2 = a2 & a5\n 10646: a5 = a1 mulhu t0\n 10649: a5 = a5 >u 0\n 10651: a2 = a2 | a5\n 10654: a4 = t1\n 10656: t1 = u64 [sp + 0x30]\n 10659: a3 = a3 mulhu t1\n 10662: a3 = a3 >u 0\n 10664: a2 = a2 | a3\n 10667: a2 = a2 | s1\n 10670: u64 [sp + 0x10] = a2\n 10673: a2 = u64 [sp + 0x18]\n 10676: a2 = a2 <u a4\n 10679: a4 = u64 [sp + 0x28]\n 10682: a3 = a4 >u 0\n 10684: s1 = u64 [sp + 0x38]\n 10687: a5 = s1 >u 0\n 10689: a3 = a3 & a5\n 10692: a5 = s1 mulhu ra\n 10695: a5 = a5 >u 0\n 10697: a3 = a3 | a5\n 10700: a5 = a4 mulhu a0\n 10703: a5 = a5 >u 0\n 10705: a3 = a3 | a5\n 10708: a2 = a2 | a3\n 10711: a3 = t1 | a1\n 10714: a5 = a0 | s1\n 10717: s1 = u64 [sp + 0x40]\n 10720: a3 = a3 >u 0\n 10722: a5 = a5 >u 0\n 10724: a3 = a3 & a5\n 10727: a2 = a2 | a3\n 10730: a1 = u64 [sp + 0x10]\n 10733: a1 = a1 | a2\n 10736: a2 = u64 [sp + 0x48]\n 10739: a0 = a1 | t2\n 10742: a0 = a0 & 0x1\n 10745: jump @357 if a0 != 0\n      : @356 (gas: 13)\n 10748: a0 = t0 * ra\n 10751: a1 = u64 [sp + 0x58]\n 10754: u64 [a1] = a0\n 10756: a0 = u64 [sp + 0x50]\n 10759: u64 [a1 + 0x8] = a0\n 10762: u64 [a1 + 0x10] = s1\n 10765: u64 [a1 + 0x18] = a2\n 10768: sp = s0 + 0xffffffffffffff40\n 10772: ra = u64 [sp + 0xb8]\n 10776: s0 = u64 [sp + 0xb0]\n 10780: s1 = u64 [sp + 0xa8]\n 10784: sp = sp + 0xc0\n 10788: ret\n      : @357 (gas: 8)\n 10790: u64 [sp + 144] = 0\n 10794: u64 [sp + 136] = 0\n 10798: u64 [sp + 128] = 0\n 10802: a0 = 0x4e487b7100000000\n 10812: a1 = sp + 0x80\n 10816: u64 [sp + 0x98] = a0\n 10820: a0 = 0\n 10822: ra = 294, jump @9\n      : @358 [@dyn 147] (gas: 7)\n 10828: u64 [sp + 120] = 0\n 10831: u64 [sp + 112] = 0\n 10834: u64 [sp + 96] = 0x11\n 10838: a0 = 0x4\n 10841: a1 = sp + 0x60\n 10844: u64 [sp + 104] = 0\n 10847: ra = 296, jump @9\n      : @359 [@dyn 148] (gas: 2)\n 10853: a1 = i32 [0x20068]\n 10858: jump @361 if a1 >u 63\n      : @360 (gas: 2)\n 10862: u32 [0x20068] = 0x40\n 10868: fallthrough\n      : @361 (gas: 7)\n 10869: a1 = 0x20070\n 10874: i32 a1 = a1 + 0\n 10876: a0 = 0x1\n 10879: a2 = 0x24\n 10882: ra = 0x12a\n 10886: ecalli 14 // 'seal_return'\n 10888: fallthrough\n      : @362 [@dyn 149] (gas: 22)\n 10889: sp = sp + 0xfffffffffffffc00\n 10893: a2 = sp + 0x300\n 10897: u64 [a2 + 0xf8] = ra\n 10901: u64 [a2 + 0xf0] = s0\n 10905: u64 [a2 + 0xe8] = s1\n 10909: s0 = sp + 0x400\n 10913: sp = sp & 0xffffffffffffffe0\n 10916: s1 = sp\n 10918: a2 = u64 [a1]\n 10920: a3 = u64 [a1 + 0x8]\n 10923: a1 = u32 [a1 + 0x10]\n 10926: u64 [s1 + 0x18] = a0\n 10929: u64 [s1 + 824] = 0\n 10933: u64 [s1 + 0x88] = a1\n 10937: u64 [s1 + 0x330] = a1\n 10941: u64 [s1 + 0x90] = a3\n 10945: u64 [s1 + 0x328] = a3\n 10949: a1 = s1 + 0x320\n 10953: u64 [s1 + 0x98] = a2\n 10957: u64 [s1 + 0x320] = a2\n 10961: a0 = 0\n 10963: ra = 300, jump @9\n      : @363 [@dyn 150] (gas: 7)\n 10969: u64 [s1 + 792] = 0\n 10973: u64 [s1 + 784] = 0\n 10977: u64 [s1 + 768] = 0x1\n 10982: a0 = 0x20\n 10985: a1 = s1 + 0x300\n 10989: u64 [s1 + 776] = 0\n 10993: ra = 302, jump @9\n      : @364 [@dyn 151] (gas: 3)\n 10999: a2 = 0x20068\n 11004: a0 = i32 [0x20068]\n 11009: jump @366 if a0 >u 63\n      : @365 (gas: 2)\n 11013: u32 [0x20068] = 0x40\n 11019: fallthrough\n      : @366 (gas: 15)\n 11020: u64 [s1 + 0x80] = a2\n 11024: a0 = sp + 0xffffffffffffffe0\n 11027: a2 = a0 & 0xffffffffffffffe0\n 11030: u64 [s1 + 0x70] = a2\n 11033: sp = a2\n 11035: a0 = 0x20070\n 11040: i32 a0 = a0 + 0\n 11042: i32 a2 = a2 + 0\n 11044: a1 = 0x40\n 11047: u64 [s1 + 0x78] = a0\n 11050: ra = 0x130\n 11054: ecalli 9 // 'hash_keccak_256'\n 11056: a3 = u64 [s1 + 0x70]\n 11059: t0 = 0x132\n 11063: jump @436\n      : @367 [@dyn 152] (gas: 2)\n 11066: a3 = u64 [s1 + 0x70]\n 11069: t0 = 306, jump @436\n      : @368 [@dyn 153] (gas: 7)\n 11075: u64 [a4 + 0x58] = a3\n 11078: u64 [a4 + 0x50] = a2\n 11081: u64 [a4 + 0x48] = a1\n 11084: u64 [a4 + 0x40] = a0\n 11087: a0 = s1 + 0x2e0\n 11091: a1 = s1 + 0x340\n 11095: ra = 308, jump @11\n      : @369 [@dyn 154] (gas: 9)\n 11101: a4 = s1 + 0x200\n 11105: a0 = u64 [a4 + 0xf0]\n 11109: a1 = u64 [a4 + 0xf8]\n 11113: a2 = u64 [a4 + 0xe8]\n 11117: a3 = u64 [a4 + 0xe0]\n 11121: a1 = a1 | a2\n 11124: a0 = a0 | a3\n 11127: a0 = a0 | a1\n 11130: jump @412 if a0 == 0\n      : @370 (gas: 11)\n 11134: u64 [s1 + 728] = 0\n 11138: a0 = u64 [s1 + 0x98]\n 11142: a2 = s1 + 0x200\n 11146: u64 [a2 + 0xc0] = a0\n 11150: a0 = u64 [s1 + 0x90]\n 11154: u64 [a2 + 0xc8] = a0\n 11158: a1 = s1 + 0x2c0\n 11162: a0 = u64 [s1 + 0x88]\n 11166: u64 [a2 + 0xd0] = a0\n 11170: a0 = 0\n 11172: ra = 310, jump @9\n      : @371 [@dyn 155] (gas: 7)\n 11178: u64 [s1 + 696] = 0\n 11182: u64 [s1 + 688] = 0\n 11186: u64 [s1 + 680] = 0\n 11190: a0 = 0x20\n 11193: a1 = s1 + 0x2a0\n 11197: u64 [s1 + 672] = 0\n 11201: ra = 312, jump @9\n      : @372 [@dyn 156] (gas: 3)\n 11207: a2 = u64 [s1 + 0x80]\n 11211: a0 = i32 [a2]\n 11213: jump @374 if a0 >u 63\n      : @373 (gas: 3)\n 11217: u32 [a2 + 0] = 0x40\n 11220: t0 = 0x13a\n 11224: jump @443\n      : @374 (gas: 1)\n 11227: t0 = 314, jump @443\n      : @375 [@dyn 157] (gas: 5)\n 11233: ra = 0x13c\n 11237: ecalli 9 // 'hash_keccak_256'\n 11239: a3 = u64 [s1 + 0x70]\n 11242: t0 = 0x13e\n 11246: jump @436\n      : @376 [@dyn 158] (gas: 2)\n 11249: a3 = u64 [s1 + 0x70]\n 11252: t0 = 318, jump @436\n      : @377 [@dyn 159] (gas: 7)\n 11258: u64 [a4 + 0x78] = a3\n 11261: u64 [a4 + 0x70] = a2\n 11264: u64 [a4 + 0x68] = a1\n 11267: u64 [a4 + 0x60] = a0\n 11270: a0 = s1 + 0x280\n 11274: a1 = s1 + 0x360\n 11278: ra = 320, jump @11\n      : @378 [@dyn 160] (gas: 9)\n 11284: a4 = s1 + 0x200\n 11288: a0 = u64 [a4 + 0x90]\n 11292: a1 = u64 [a4 + 0x98]\n 11296: a2 = u64 [a4 + 0x88]\n 11300: a3 = u64 [a4 + 0x80]\n 11304: a1 = a1 | a2\n 11307: a0 = a0 | a3\n 11310: a0 = a0 | a1\n 11313: jump @412 if a0 == 0\n      : @379 (gas: 10)\n 11317: u64 [s1 + 632] = 0\n 11321: a0 = u64 [s1 + 0x98]\n 11325: u64 [s1 + 0x260] = a0\n 11329: a0 = u64 [s1 + 0x90]\n 11333: u64 [s1 + 0x268] = a0\n 11337: a1 = s1 + 0x260\n 11341: a0 = u64 [s1 + 0x88]\n 11345: u64 [s1 + 0x270] = a0\n 11349: a0 = 0\n 11351: ra = 322, jump @9\n      : @380 [@dyn 161] (gas: 7)\n 11357: u64 [s1 + 600] = 0\n 11361: u64 [s1 + 592] = 0\n 11365: u64 [s1 + 576] = 0x1\n 11370: a0 = 0x20\n 11373: a1 = s1 + 0x240\n 11377: u64 [s1 + 584] = 0\n 11381: ra = 324, jump @9\n      : @381 [@dyn 162] (gas: 3)\n 11387: a1 = u64 [s1 + 0x80]\n 11391: a0 = i32 [a1]\n 11393: jump @383 if a0 >u 63\n      : @382 (gas: 3)\n 11397: u32 [a1 + 0] = 0x40\n 11400: t0 = 0x146\n 11404: jump @443\n      : @383 (gas: 1)\n 11407: t0 = 326, jump @443\n      : @384 [@dyn 163] (gas: 5)\n 11413: ra = 0x148\n 11417: ecalli 9 // 'hash_keccak_256'\n 11419: a3 = u64 [s1 + 0x70]\n 11422: t0 = 0x14a\n 11426: jump @435\n      : @385 [@dyn 164] (gas: 2)\n 11429: a3 = u64 [s1 + 0x70]\n 11432: t0 = 330, jump @435\n      : @386 [@dyn 165] (gas: 7)\n 11438: u64 [s1 + 0x398] = a3\n 11442: u64 [s1 + 0x390] = a2\n 11446: u64 [s1 + 0x388] = a1\n 11450: u64 [s1 + 0x380] = a0\n 11454: a0 = s1 + 0x220\n 11458: a1 = s1 + 0x380\n 11462: ra = 332, jump @11\n      : @387 [@dyn 166] (gas: 31)\n 11468: a0 = u64 [s1 + 0x220]\n 11472: u64 [s1 + 0x70] = a0\n 11475: a0 = u64 [s1 + 0x228]\n 11479: u64 [s1 + 0x68] = a0\n 11482: a0 = u64 [s1 + 0x230]\n 11486: u64 [s1 + 0x60] = a0\n 11489: a0 = u64 [s1 + 0x238]\n 11493: u64 [s1 + 0x58] = a0\n 11496: i32 a0 = s1 + 0x3a0\n 11500: ecalli 10 // 'now'\n 11502: a4 = s1 + 0x300\n 11506: a3 = u64 [a4 + 0xa0]\n 11510: a0 = u64 [a4 + 0xa8]\n 11514: a1 = u64 [a4 + 0xb0]\n 11518: a2 = u64 [a4 + 0xb8]\n 11522: a4 = u64 [s1 + 0x58]\n 11525: u64 [s1 + 0x1d8] = a4\n 11529: a4 = u64 [s1 + 0x60]\n 11532: u64 [s1 + 0x1d0] = a4\n 11536: a4 = u64 [s1 + 0x68]\n 11539: u64 [s1 + 0x1c8] = a4\n 11543: a4 = u64 [s1 + 0x70]\n 11546: u64 [s1 + 0x1c0] = a4\n 11550: u64 [s1 + 0x1f8] = a2\n 11554: u64 [s1 + 0x1f0] = a1\n 11558: u64 [s1 + 0x1e8] = a0\n 11562: a0 = s1 + 0x200\n 11566: a1 = s1 + 0x1e0\n 11570: a2 = s1 + 0x1c0\n 11574: u64 [s1 + 0x1e0] = a3\n 11578: ra = 334, jump @347\n      : @388 [@dyn 167] (gas: 20)\n 11584: a1 = s1 + 0x200\n 11588: a0 = u64 [a1 + 0x18]\n 11591: u64 [s1 + 0x58] = a0\n 11594: a0 = u64 [a1 + 0x10]\n 11597: u64 [s1 + 0x60] = a0\n 11600: a0 = u64 [a1 + 0x8]\n 11603: u64 [s1 + 0x68] = a0\n 11606: a0 = u64 [a1]\n 11608: u64 [s1 + 0x70] = a0\n 11611: u64 [s1 + 440] = 0\n 11615: a0 = u64 [s1 + 0x88]\n 11619: a2 = s1 + 0x100\n 11623: u64 [a2 + 0xb0] = a0\n 11627: a0 = u64 [s1 + 0x90]\n 11631: u64 [a2 + 0xa8] = a0\n 11635: a1 = s1 + 0x1a0\n 11639: a0 = u64 [s1 + 0x98]\n 11643: u64 [a2 + 0xa0] = a0\n 11647: a0 = 0\n 11649: ra = 336, jump @9\n      : @389 [@dyn 168] (gas: 7)\n 11655: u64 [s1 + 408] = 0\n 11659: u64 [s1 + 400] = 0\n 11663: u64 [s1 + 392] = 0\n 11667: a0 = 0x20\n 11670: a1 = s1 + 0x180\n 11674: u64 [s1 + 384] = 0\n 11678: ra = 338, jump @9\n      : @390 [@dyn 169] (gas: 3)\n 11684: a1 = u64 [s1 + 0x80]\n 11688: a0 = i32 [a1]\n 11690: jump @392 if a0 >u 63\n      : @391 (gas: 2)\n 11694: u32 [a1 + 0] = 0x40\n 11697: fallthrough\n      : @392 (gas: 12)\n 11698: a0 = sp + 0xffffffffffffffe0\n 11701: a0 = a0 & 0xffffffffffffffe0\n 11704: u64 [s1 + 0x98] = a0\n 11708: sp = a0\n 11710: i32 a2 = a0 + 0\n 11712: a1 = 0x40\n 11715: a0 = u64 [s1 + 0x78]\n 11718: ra = 0x154\n 11722: ecalli 9 // 'hash_keccak_256'\n 11724: a3 = u64 [s1 + 0x98]\n 11728: t0 = 0x156\n 11732: jump @436\n      : @393 [@dyn 170] (gas: 2)\n 11735: a3 = u64 [s1 + 0x98]\n 11739: t0 = 342, jump @436\n      : @394 [@dyn 171] (gas: 7)\n 11745: u64 [a4 + 0xd8] = a3\n 11749: u64 [a4 + 0xd0] = a2\n 11753: u64 [a4 + 0xc8] = a1\n 11757: u64 [a4 + 0xc0] = a0\n 11761: a0 = s1 + 0x160\n 11765: a1 = s1 + 0x3c0\n 11769: ra = 344, jump @11\n      : @395 [@dyn 172] (gas: 9)\n 11775: a0 = u64 [s1 + 0x160]\n 11779: u64 [s1 + 0x98] = a0\n 11783: a0 = u64 [s1 + 0x168]\n 11787: u64 [s1 + 0x90] = a0\n 11791: a0 = u64 [s1 + 0x170]\n 11795: u64 [s1 + 0x88] = a0\n 11799: a0 = u64 [s1 + 0x178]\n 11803: u64 [s1 + 0x80] = a0\n 11807: ra = 346, jump @0\n      : @396 [@dyn 173] (gas: 20)\n 11813: a1 = u64 [0x30090]\n 11818: a2 = u64 [0x30098]\n 11823: a3 = u64 [0x300a0]\n 11828: a0 = u64 [0x300a8]\n 11833: u64 [s1 + 0x118] = a0\n 11837: u64 [s1 + 0x110] = a3\n 11841: u64 [s1 + 0x108] = a2\n 11845: u64 [s1 + 0x100] = a1\n 11849: a0 = u64 [s1 + 0x80]\n 11853: u64 [s1 + 0x138] = a0\n 11857: a0 = u64 [s1 + 0x88]\n 11861: u64 [s1 + 0x130] = a0\n 11865: a0 = u64 [s1 + 0x90]\n 11869: u64 [s1 + 0x128] = a0\n 11873: a0 = s1 + 0x140\n 11877: a1 = s1 + 0x120\n 11881: a2 = s1 + 0x100\n 11885: a3 = u64 [s1 + 0x98]\n 11889: u64 [s1 + 0x120] = a3\n 11893: ra = 348, jump @354\n      : @397 [@dyn 174] (gas: 21)\n 11899: a4 = s1 + 0x100\n 11903: a3 = u64 [a4 + 0x40]\n 11906: a0 = u64 [a4 + 0x48]\n 11909: a1 = u64 [a4 + 0x50]\n 11912: a2 = u64 [a4 + 0x58]\n 11915: a4 = u64 [s1 + 0x58]\n 11918: u64 [s1 + 0xb8] = a4\n 11922: a4 = u64 [s1 + 0x60]\n 11925: u64 [s1 + 0xb0] = a4\n 11929: a4 = u64 [s1 + 0x68]\n 11932: u64 [s1 + 0xa8] = a4\n 11936: a4 = u64 [s1 + 0x70]\n 11939: u64 [s1 + 0xa0] = a4\n 11943: u64 [s1 + 0xd8] = a2\n 11947: u64 [s1 + 0xd0] = a1\n 11951: u64 [s1 + 0xc8] = a0\n 11955: a0 = s1 + 0xe0\n 11959: a1 = s1 + 0xc0\n 11963: a2 = s1 + 0xa0\n 11967: u64 [s1 + 0xc0] = a3\n 11971: ra = 350, jump @354\n      : @398 [@dyn 175] (gas: 55)\n 11977: t0 = u64 [s1 + 0xf8]\n 11981: t2 = u64 [s1 + 0xf0]\n 11985: t1 = u64 [s1 + 0xe8]\n 11989: a1 = u64 [s1 + 0xe0]\n 11993: u64 [s1 + 0x58] = a1\n 11996: a0 = clz t0\n 11998: a2 = clz t2\n 12000: a5 = a2 + 0x40\n 12003: a5 = a0 if t0 != 0\n 12006: a0 = clz t1\n 12008: a2 = clz a1\n 12010: a2 = a2 + 0x40\n 12013: a2 = a0 if t1 != 0\n 12016: a0 = a2 + 0x80\n 12020: a3 = t2 | t0\n 12023: a5 = a0 if a3 == 0\n 12026: a2 = a0 <u a2\n 12029: a2 = 0 if a3 != 0\n 12031: a3 = a2 >u 0\n 12033: a0 = a5 <u 0xc5\n 12037: a4 = a0 ^ 0x1\n 12040: a3 = a4 if a2 == 0\n 12043: a0 = a3 <u 0x1\n 12046: a0 = a0 + 0xffffffffffffffff\n 12049: ra = -a3\n 12051: a2 = -a2\n 12053: a1 = a2 - a4\n 12056: a2 = 0xc4 - a5\n 12060: u64 [s1 + 0x88] = ra\n 12064: a5 = ra >u 0\n 12066: a4 = a0 >u 0\n 12068: u64 [s1 + 0x80] = a0\n 12072: a4 = a5 if a0 == 0\n 12075: u64 [s1 + 0x90] = a2\n 12079: a0 = a2 <u 0x100\n 12083: a0 = a0 ^ 0x1\n 12086: a5 = a1 >u 0\n 12088: a0 = a5 if a1 != 0\n 12091: a0 = a4 if a3 != 0\n 12094: a3 = t1 | t0\n 12097: ra = u64 [s1 + 0x58]\n 12100: a4 = ra | t2\n 12103: a3 = a3 | a4\n 12106: a3 = a3 <u 0x1\n 12109: a0 = a0 | a3\n 12112: u64 [s1 + 0x50] = t0\n 12115: a2 = t0\n 12117: a2 = 0 if a0 != 0\n 12119: a5 = t2\n 12121: a5 = 0 if a0 != 0\n 12123: a4 = t1\n 12125: a4 = 0 if a0 != 0\n 12127: t0 = ra\n 12129: t0 = 0 if a0 != 0\n 12131: jump @415 if a0 != 0\n      : @399 (gas: 9)\n 12135: ra = t2\n 12137: a0 = u64 [s1 + 0x90]\n 12141: a0 = a0 ^ 0xff\n 12145: a3 = u64 [s1 + 0x88]\n 12149: t2 = a0 | a3\n 12152: a3 = u64 [s1 + 0x80]\n 12156: a0 = a1 | a3\n 12159: a0 = t2 | a0\n 12162: jump @415 if a0 == 0\n      : @400 (gas: 22)\n 12166: a4 = u64 [s1 + 0x90]\n 12170: a2 = a4 + 0x1\n 12173: u64 [s1 + 0x98] = a2\n 12177: a0 = a2 <u 0x1\n 12180: a0 = a0 + a1\n 12183: u64 [s1 + 0x70] = a0\n 12186: a0 = a0 | a2\n 12189: a0 = a0 <u 0x1\n 12192: a2 = u64 [s1 + 0x88]\n 12196: a0 = a0 + a2\n 12199: u64 [s1 + 0x60] = a0\n 12202: a0 = a0 <u a2\n 12205: a0 = a0 + a3\n 12208: u64 [s1 + 0x68] = a0\n 12211: a1 = 0xff - a4\n 12215: u64 [s1 + 0x78] = a1\n 12218: a2 = 0x80 - a1\n 12222: a0 = u64 [s1 + 0x58]\n 12225: a1 = t1\n 12227: u64 [s1 + 0x48] = t1\n 12230: u64 [s1 + 0x40] = ra\n 12233: ra = 352, jump @445\n      : @401 [@dyn 176] (gas: 6)\n 12239: u64 [s1 + 0x88] = a0\n 12243: u64 [s1 + 0x80] = a1\n 12247: a0 = u64 [s1 + 0x40]\n 12250: a1 = u64 [s1 + 0x50]\n 12253: a2 = u64 [s1 + 0x78]\n 12256: ra = 354, jump @450\n      : @402 [@dyn 177] (gas: 9)\n 12262: u64 [s1 + 0x38] = a0\n 12265: a0 = u64 [s1 + 0x80]\n 12269: a0 = a0 | a1\n 12272: u64 [s1 + 0x80] = a0\n 12276: a1 = u64 [s1 + 0x90]\n 12280: a2 = 0x7f - a1\n 12283: a0 = u64 [s1 + 0x58]\n 12286: a1 = u64 [s1 + 0x48]\n 12289: ra = 356, jump @450\n      : @403 [@dyn 178] (gas: 18)\n 12295: a2 = u64 [s1 + 0x78]\n 12298: a3 = a2 <u 0x80\n 12302: u64 [s1 + 0x90] = a3\n 12306: a4 = u64 [s1 + 0x80]\n 12310: a1 = a4 if a3 != 0\n 12313: a4 = u64 [s1 + 0x50]\n 12316: a1 = a4 if a2 == 0\n 12319: u64 [s1 + 0x80] = a1\n 12323: a1 = u64 [s1 + 0x88]\n 12327: a4 = u64 [s1 + 0x38]\n 12330: a1 = a1 | a4\n 12333: a1 = a0 if a3 == 0\n 12336: a0 = u64 [s1 + 0x40]\n 12339: a1 = a0 if a2 == 0\n 12342: u64 [s1 + 0x88] = a1\n 12346: a0 = u64 [s1 + 0x58]\n 12349: a1 = u64 [s1 + 0x48]\n 12352: ra = 358, jump @450\n      : @404 [@dyn 179] (gas: 13)\n 12358: a3 = u64 [s1 + 0x60]\n 12361: a4 = u64 [s1 + 0x68]\n 12364: a2 = u64 [s1 + 0x70]\n 12367: a2 = a2 | a4\n 12370: a5 = u64 [s1 + 0x98]\n 12374: a5 = a5 | a3\n 12377: a2 = a2 | a5\n 12380: a3 = u64 [s1 + 0x90]\n 12384: a1 = 0 if a3 == 0\n 12386: u64 [s1 + 0x78] = a1\n 12389: a0 = 0 if a3 == 0\n 12391: u64 [s1 + 0x90] = a0\n 12395: jump @413 if a2 == 0\n      : @405 (gas: 7)\n 12399: a0 = 0xde0b6b3a7640000\n 12409: u64 [s1 + 0x30] = a0\n 12412: a0 = u64 [s1 + 0x98]\n 12416: a2 = a0 + 0xffffffffffffff80\n 12419: a0 = u64 [s1 + 0x40]\n 12422: a1 = u64 [s1 + 0x50]\n 12425: ra = 360, jump @445\n      : @406 [@dyn 180] (gas: 6)\n 12431: u64 [s1 + 0x38] = a0\n 12434: u64 [s1 + 0x20] = a1\n 12437: a0 = u64 [s1 + 0x58]\n 12440: a1 = u64 [s1 + 0x48]\n 12443: a2 = u64 [s1 + 0x98]\n 12447: ra = 362, jump @445\n      : @407 [@dyn 181] (gas: 7)\n 12453: u64 [s1 + 0x10] = a0\n 12456: u64 [s1 + 0x28] = a1\n 12459: a1 = u64 [s1 + 0x98]\n 12463: a2 = 0x80 - a1\n 12467: a0 = u64 [s1 + 0x40]\n 12470: a1 = u64 [s1 + 0x50]\n 12473: ra = 364, jump @450\n      : @408 [@dyn 182] (gas: 21)\n 12479: a2 = u64 [s1 + 0x28]\n 12482: a1 = a1 | a2\n 12485: a3 = u64 [s1 + 0x98]\n 12489: a4 = a3 <u 0x80\n 12493: u64 [s1 + 0x28] = a4\n 12496: a2 = u64 [s1 + 0x20]\n 12499: a1 = a2 if a4 == 0\n 12502: a2 = u64 [s1 + 0x48]\n 12505: a2 = a1 if a3 != 0\n 12508: u64 [s1 + 0x48] = a2\n 12511: a1 = u64 [s1 + 0x10]\n 12514: a0 = a0 | a1\n 12517: a1 = u64 [s1 + 0x38]\n 12520: a0 = a1 if a4 == 0\n 12523: a1 = u64 [s1 + 0x58]\n 12526: a1 = a0 if a3 != 0\n 12529: a2 = a3\n 12531: u64 [s1 + 0x58] = a1\n 12534: a0 = u64 [s1 + 0x40]\n 12537: a1 = u64 [s1 + 0x50]\n 12540: ra = 366, jump @445\n      : @409 [@dyn 183] (gas: 13)\n 12546: a5 = 0\n 12548: a2 = u64 [s1 + 0x28]\n 12551: a1 = 0 if a2 == 0\n 12553: a0 = 0 if a2 == 0\n 12555: a4 = u64 [s1 + 0x30]\n 12558: a2 = a4 + 0xffffffffffffffff\n 12561: u64 [s1 + 0x28] = a2\n 12564: a2 = a4 >u 0\n 12566: a2 = a2 + 0xffffffffffffffff\n 12569: u64 [s1 + 0x20] = a2\n 12572: t2 = u64 [s1 + 0x48]\n 12575: t0 = u64 [s1 + 0x58]\n 12578: fallthrough\n      : @410 (gas: 90)\n 12579: u64 [s1 + 0x48] = a1\n 12582: u64 [s1 + 0x50] = a5\n 12585: u64 [s1 + 56] = 0\n 12588: a2 = t0 >> 0x3f\n 12591: a3 = t2 << 0x1\n 12594: a3 = a3 | a2\n 12597: a2 = t0 << 0x1\n 12600: ra = u64 [s1 + 0x80]\n 12604: a4 = ra >> 0x3f\n 12607: a4 = a4 | a2\n 12610: u64 [s1 + 0x58] = a4\n 12613: a2 = u64 [s1 + 0x20]\n 12616: a1 = a2 ^ a3\n 12619: u64 [s1 + 0x40] = a1\n 12622: a1 = a2 <u a3\n 12625: a5 = u64 [s1 + 0x28]\n 12628: t0 = a5 <u a4\n 12631: a4 = u64 [s1 + 0x40]\n 12634: t0 = a1 if a4 != 0\n 12637: a1 = u64 [s1 + 0x48]\n 12640: a1 = a1 << 0x1\n 12643: a4 = a0 >> 0x3f\n 12646: a1 = a1 | a4\n 12649: u64 [s1 + 0x48] = a1\n 12652: a4 = t2 >> 0x3f\n 12655: a0 = a0 << 0x1\n 12658: a4 = a4 | a0\n 12661: a0 = ra << 0x1\n 12664: a1 = u64 [s1 + 0x88]\n 12668: a5 = a1 >> 0x3f\n 12671: a0 = a0 | a5\n 12674: u64 [s1 + 0x80] = a0\n 12678: a5 = a1 << 0x1\n 12681: a0 = u64 [s1 + 0x78]\n 12684: a1 = a0 >> 0x3f\n 12687: t2 = a5 | a1\n 12690: a5 = a0 << 0x1\n 12693: a0 = u64 [s1 + 0x90]\n 12697: ra = a0 >> 0x3f\n 12700: a5 = a5 | ra\n 12703: a0 = a0 << 0x1\n 12706: a1 = u64 [s1 + 0x50]\n 12709: a0 = a0 | a1\n 12712: u64 [s1 + 0x90] = a0\n 12716: a0 = a5 | 0\n 12718: u64 [s1 + 0x78] = a0\n 12721: a0 = t2 | 0\n 12723: u64 [s1 + 0x88] = a0\n 12727: a0 = u64 [s1 + 0x80]\n 12731: a0 = a0 | 0\n 12733: u64 [s1 + 0x80] = a0\n 12737: a0 = a2 - a4\n 12740: a0 = a0 <u t0\n 12743: a1 = a2 <u a4\n 12746: t1 = u64 [s1 + 0x48]\n 12749: a5 = a2 - t1\n 12752: a5 = a5 - a1\n 12755: a5 = a5 - a0\n 12758: ra = a5 >>a 0x3f\n 12761: a0 = u64 [s1 + 0x30]\n 12764: a0 = ra & a0\n 12767: a1 = u64 [s1 + 0x58]\n 12770: t0 = a1 - a0\n 12773: a1 = a1 <u a0\n 12776: t2 = a3 - a1\n 12779: a1 = 0 if a3 != 0\n 12781: a0 = a4 - a1\n 12784: a1 = a4 <u a1\n 12787: a1 = t1 - a1\n 12790: a3 = u64 [s1 + 0x98]\n 12794: a5 = u64 [s1 + 0x70]\n 12797: a2 = a3 | a5\n 12800: a2 = a2 <u 0x1\n 12803: a4 = u64 [s1 + 0x60]\n 12806: t1 = a4 <u a2\n 12809: a4 = a4 - a2\n 12812: a2 = a3 <u 0x1\n 12815: a5 = a5 - a2\n 12818: a2 = u64 [s1 + 0x68]\n 12821: a2 = a2 - t1\n 12824: a3 = a3 + 0xffffffffffffffff\n 12827: u64 [s1 + 0x70] = a5\n 12830: u64 [s1 + 0x68] = a2\n 12833: a2 = a2 | a5\n 12836: u64 [s1 + 0x98] = a3\n 12840: a3 = a3 | a4\n 12843: a2 = a2 | a3\n 12846: a5 = ra & 0x1\n 12849: u64 [s1 + 0x60] = a4\n 12852: jump @410 if a2 != 0\n      : @411 (gas: 1)\n 12856: jump @414\n      : @412 (gas: 5)\n 12858: t0 = 0\n 12860: a4 = 0\n 12862: a5 = 0\n 12864: a2 = 0\n 12866: jump @415\n      : @413 (gas: 3)\n 12868: a5 = 0\n 12870: u64 [s1 + 56] = 0\n 12873: fallthrough\n      : @414 (gas: 20)\n 12874: a2 = u64 [s1 + 0x88]\n 12878: a0 = a2 >> 0x3f\n 12881: a1 = u64 [s1 + 0x80]\n 12885: a1 = a1 << 0x1\n 12888: t1 = a1 | a0\n 12891: a4 = u64 [s1 + 0x78]\n 12894: a1 = a4 >> 0x3f\n 12897: a2 = a2 << 0x1\n 12900: a1 = a1 | a2\n 12903: a3 = u64 [s1 + 0x90]\n 12907: a2 = a3 >> 0x3f\n 12910: a4 = a4 << 0x1\n 12913: a3 = a3 << 0x1\n 12916: t0 = a5 | a3\n 12919: a0 = u64 [s1 + 0x38]\n 12922: a2 = a2 | a0\n 12925: a4 = a4 | a2\n 12928: a5 = a0 | a1\n 12931: a2 = a0 | t1\n 12934: fallthrough\n      : @415 (gas: 12)\n 12935: a1 = u64 [s1 + 0x18]\n 12938: u64 [a1] = t0\n 12940: u64 [a1 + 0x8] = a4\n 12943: u64 [a1 + 0x10] = a5\n 12946: u64 [a1 + 0x18] = a2\n 12949: sp = s0 + 0xfffffffffffffc00\n 12953: a0 = sp + 0x300\n 12957: ra = u64 [a0 + 0xf8]\n 12961: s0 = u64 [a0 + 0xf0]\n 12965: s1 = u64 [a0 + 0xe8]\n 12969: sp = sp + 0x400\n 12973: ret\n      : @416 (gas: 20)\n 12975: sp = sp + 0xfffffffffffffe80\n 12979: u64 [sp + 0x178] = ra\n 12983: u64 [sp + 0x170] = s0\n 12987: u64 [sp + 0x168] = s1\n 12991: s0 = sp + 0x180\n 12995: sp = sp & 0xffffffffffffffe0\n 12998: s1 = sp\n 13000: a2 = u64 [a0]\n 13002: a1 = u64 [a0 + 0x8]\n 13005: a0 = u32 [a0 + 0x10]\n 13008: u64 [s1 + 216] = 0\n 13012: u64 [s1 + 0x28] = a0\n 13015: u64 [s1 + 0xd0] = a0\n 13019: u64 [s1 + 0x10] = a1\n 13022: u64 [s1 + 0xc8] = a1\n 13026: a1 = s1 + 0xc0\n 13030: u64 [s1 + 0x18] = a2\n 13033: u64 [s1 + 0xc0] = a2\n 13037: a0 = 0\n 13039: ra = 368, jump @9\n      : @417 [@dyn 184] (gas: 7)\n 13045: u64 [s1 + 184] = 0\n 13049: u64 [s1 + 176] = 0\n 13053: u64 [s1 + 160] = 0x1\n 13058: a0 = 0x20\n 13061: a1 = s1 + 0xa0\n 13065: u64 [s1 + 168] = 0\n 13069: ra = 370, jump @9\n      : @418 [@dyn 185] (gas: 3)\n 13075: a2 = 0x20068\n 13080: a0 = i32 [0x20068]\n 13085: jump @420 if a0 >u 63\n      : @419 (gas: 2)\n 13089: u32 [0x20068] = 0x40\n 13095: fallthrough\n      : @420 (gas: 15)\n 13096: u64 [s1 + 0x30] = a2\n 13099: a0 = sp + 0xffffffffffffffe0\n 13102: a2 = a0 & 0xffffffffffffffe0\n 13105: u64 [s1 + 0x38] = a2\n 13108: sp = a2\n 13110: a0 = 0x20070\n 13115: i32 a0 = a0 + 0\n 13117: i32 a2 = a2 + 0\n 13119: a1 = 0x40\n 13122: u64 [s1 + 0x20] = a0\n 13125: ra = 0x174\n 13129: ecalli 9 // 'hash_keccak_256'\n 13131: a3 = u64 [s1 + 0x38]\n 13134: t0 = 0x176\n 13138: jump @435\n      : @421 [@dyn 186] (gas: 2)\n 13141: a3 = u64 [s1 + 0x38]\n 13144: t0 = 374, jump @435\n      : @422 [@dyn 187] (gas: 7)\n 13150: u64 [s1 + 0xf8] = a3\n 13154: u64 [s1 + 0xf0] = a2\n 13158: u64 [s1 + 0xe8] = a1\n 13162: u64 [s1 + 0xe0] = a0\n 13166: a0 = s1 + 0x80\n 13170: a1 = s1 + 0xe0\n 13174: ra = 376, jump @11\n      : @423 [@dyn 188] (gas: 8)\n 13180: a0 = u64 [s1 + 0x90]\n 13184: a1 = u64 [s1 + 0x98]\n 13188: a2 = u64 [s1 + 0x88]\n 13192: a3 = u64 [s1 + 0x80]\n 13196: a1 = a1 | a2\n 13199: a0 = a0 | a3\n 13202: a0 = a0 | a1\n 13205: jump @432 if a0 != 0\n      : @424 (gas: 10)\n 13209: u64 [s1 + 120] = 0\n 13212: a0 = u64 [s1 + 0x18]\n 13215: u64 [s1 + 0x60] = a0\n 13218: a0 = u64 [s1 + 0x10]\n 13221: u64 [s1 + 0x68] = a0\n 13224: a1 = s1 + 0x60\n 13227: a0 = u64 [s1 + 0x28]\n 13230: u64 [s1 + 0x70] = a0\n 13233: a0 = 0\n 13235: ra = 378, jump @9\n      : @425 [@dyn 189] (gas: 7)\n 13241: u64 [s1 + 88] = 0\n 13244: u64 [s1 + 80] = 0\n 13247: u64 [s1 + 64] = 0x1\n 13251: a0 = 0x20\n 13254: a1 = s1 + 0x40\n 13257: u64 [s1 + 72] = 0\n 13260: ra = 380, jump @9\n      : @426 [@dyn 190] (gas: 3)\n 13266: i32 a0 = s1 + 0x100\n 13270: ecalli 10 // 'now'\n 13272: fallthrough\n      : @427 (gas: 12)\n 13273: a3 = s1 + 0x100\n 13277: a0 = u64 [a3 + 0x18]\n 13280: u64 [s1 + 0x18] = a0\n 13283: a0 = u64 [a3 + 0x10]\n 13286: u64 [s1 + 0x28] = a0\n 13289: a0 = u64 [a3 + 0x8]\n 13292: u64 [s1 + 0x38] = a0\n 13295: a2 = u64 [s1 + 0x30]\n 13298: a0 = i32 [a2]\n 13300: a1 = u64 [a3]\n 13302: u64 [s1 + 0x10] = a1\n 13305: jump @429 if a0 >u 63\n      : @428 (gas: 2)\n 13309: u32 [a2 + 0] = 0x40\n 13312: fallthrough\n      : @429 (gas: 12)\n 13313: a0 = sp + 0xffffffffffffffe0\n 13316: a0 = a0 & 0xffffffffffffffe0\n 13319: u64 [s1 + 0x30] = a0\n 13322: sp = a0\n 13324: i32 a2 = a0 + 0\n 13326: a1 = 0x40\n 13329: a0 = u64 [s1 + 0x20]\n 13332: ra = 0x17e\n 13336: ecalli 9 // 'hash_keccak_256'\n 13338: a3 = u64 [s1 + 0x30]\n 13341: t0 = 0x180\n 13345: jump @435\n      : @430 [@dyn 191] (gas: 2)\n 13347: a3 = u64 [s1 + 0x30]\n 13350: t0 = 384, jump @435\n      : @431 [@dyn 192] (gas: 16)\n 13355: a4 = s1 + 0x100\n 13359: u64 [a4 + 0x38] = a3\n 13362: u64 [a4 + 0x30] = a2\n 13365: u64 [a4 + 0x28] = a1\n 13368: u64 [a4 + 0x20] = a0\n 13371: a0 = u64 [s1 + 0x18]\n 13374: u64 [a4 + 0x58] = a0\n 13377: a0 = u64 [s1 + 0x28]\n 13380: u64 [a4 + 0x50] = a0\n 13383: a0 = u64 [s1 + 0x38]\n 13386: u64 [a4 + 0x48] = a0\n 13389: a0 = u64 [s1 + 0x10]\n 13392: u64 [a4 + 0x40] = a0\n 13395: a0 = s1 + 0x120\n 13399: a1 = s1 + 0x140\n 13403: ra = 386, jump @12\n      : @432 [@dyn 193] (gas: 6)\n 13409: sp = s0 + 0xfffffffffffffe80\n 13413: ra = u64 [sp + 0x178]\n 13417: s0 = u64 [sp + 0x170]\n 13421: s1 = u64 [sp + 0x168]\n 13425: sp = sp + 0x180\n 13429: ret\n      : @433 [export #0: 'call'] (gas: 2)\n 13431: a0 = 0\n 13433: ra = 388, jump @21\n      : @434 [@dyn 194] [export #1: 'deploy'] (gas: 2)\n 13439: a0 = 0x1\n 13442: ra = 390, jump @21\n      : @435 [@dyn 195] (gas: 9)\n 13448: a0 = u64 [a3 + 0x18]\n 13451: a1 = u64 [a3 + 0x10]\n 13454: a2 = u64 [a3 + 0x8]\n 13457: a3 = u64 [a3]\n 13459: a0 = reverse a0\n 13461: a1 = reverse a1\n 13463: a2 = reverse a2\n 13465: a3 = reverse a3\n 13467: jump [t0]\n      : @436 (gas: 10)\n 13469: a0 = u64 [a3 + 0x18]\n 13472: a1 = u64 [a3 + 0x10]\n 13475: a2 = u64 [a3 + 0x8]\n 13478: a3 = u64 [a3]\n 13480: a0 = reverse a0\n 13482: a1 = reverse a1\n 13484: a2 = reverse a2\n 13486: a3 = reverse a3\n 13488: a4 = s1 + 0x300\n 13492: jump [t0]\n      : @437 (gas: 8)\n 13494: a0 = a0 | a2\n 13497: a2 = a3 | a1\n 13500: a2 = a2 | a0\n 13503: a2 = a2 >> 0x20\n 13506: a0 = a0 | a1\n 13509: a0 = a0 << 0x20\n 13512: a0 = a0 | a2\n 13515: jump [t0]\n      : @438 (gas: 15)\n 13517: a2 = u64 [s1 + 0x38]\n 13520: a0 = u64 [a2 + 0x8]\n 13523: a1 = i32 [a2 + 0x10]\n 13526: a2 = u64 [a2]\n 13528: a0 = reverse a0\n 13530: a3 = a0 << 0x20\n 13533: a1 = reverse a1\n 13535: a1 = a1 >> 0x20\n 13538: a3 = a3 | a1\n 13541: a0 = a0 >> 0x20\n 13544: a1 = reverse a2\n 13546: a2 = a1 << 0x20\n 13549: a0 = a0 | a2\n 13552: a1 = a1 >> 0x20\n 13555: jump [t0]\n      : @439 (gas: 14)\n 13557: a0 = u64 [a2 + 0x8]\n 13560: a1 = u64 [a2]\n 13562: a2 = i32 [a2 + 0x10]\n 13565: a0 = reverse a0\n 13567: a3 = a0 >> 0x20\n 13570: a1 = reverse a1\n 13572: a4 = a1 << 0x20\n 13575: a3 = a3 | a4\n 13578: a0 = a0 << 0x20\n 13581: a2 = reverse a2\n 13583: a2 = a2 >> 0x20\n 13586: a0 = a0 | a2\n 13589: a1 = a1 >> 0x20\n 13592: jump [t0]\n      : @440 (gas: 12)\n 13594: a0 = u64 [a3 + 0x18]\n 13597: a1 = u64 [a3 + 0x10]\n 13600: a2 = u64 [a3 + 0x8]\n 13603: a3 = u64 [a3]\n 13605: a0 = reverse a0\n 13607: a1 = reverse a1\n 13609: a2 = reverse a2\n 13611: a3 = reverse a3\n 13613: a4 = s1 + 0x7ff\n 13617: a4 = a4 + 0x11\n 13620: a5 = a4 + 0x100\n 13624: jump [t0]\n      : @441 (gas: 11)\n 13626: a0 = u64 [a3 + 0x18]\n 13629: a1 = u64 [a3 + 0x10]\n 13632: a2 = u64 [a3 + 0x8]\n 13635: a3 = u64 [a3]\n 13637: a0 = reverse a0\n 13639: a1 = reverse a1\n 13641: a2 = reverse a2\n 13643: a3 = reverse a3\n 13645: a4 = s1 + 0x7ff\n 13649: a4 = a4 + 0x11\n 13652: jump [t0]\n      : @442 (gas: 9)\n 13654: a0 = u64 [a3 + 0x18]\n 13657: a1 = u64 [a3 + 0x10]\n 13660: a2 = u64 [a3 + 0x8]\n 13663: a3 = u64 [a3]\n 13665: a0 = reverse a0\n 13667: a4 = reverse a1\n 13669: a2 = reverse a2\n 13671: a3 = reverse a3\n 13673: jump [t0]\n      : @443 (gas: 8)\n 13675: a0 = sp + 0xffffffffffffffe0\n 13678: a0 = a0 & 0xffffffffffffffe0\n 13681: u64 [s1 + 0x70] = a0\n 13684: sp = a0\n 13686: i32 a2 = a0 + 0\n 13688: a1 = 0x40\n 13691: a0 = u64 [s1 + 0x78]\n 13694: jump [t0]\n      : @444 (gas: 8)\n 13696: a0 = u64 [a4 + 0x80]\n 13700: a1 = u64 [a4 + 0x88]\n 13704: a2 = u64 [a4 + 0x78]\n 13707: a3 = u64 [a4 + 0x70]\n 13710: a1 = a1 | a2\n 13713: a0 = a0 | a3\n 13716: a0 = a0 | a1\n 13719: jump [t0]\n      : @445 (gas: 2)\n 13721: a3 = a2 & 0x40\n 13724: jump @449 if a3 != 0\n      : @446 (gas: 1)\n 13727: jump @448 if a2 == 0\n      : @447 (gas: 6)\n 13730: i32 a3 = 0x40 - a2\n 13733: a3 = a1 << a3\n 13736: a1 = a1 >> a2\n 13739: a0 = a0 >> a2\n 13742: a0 = a0 | a3\n 13745: ret\n      : @448 (gas: 1)\n 13747: ret\n      : @449 (gas: 4)\n 13749: a0 = a2 + 0xffffffffffffffc0\n 13752: a0 = a1 >> a0\n 13755: a1 = 0\n 13757: ret\n      : @450 (gas: 2)\n 13759: a3 = a2 & 0x40\n 13762: jump @454 if a3 != 0\n      : @451 (gas: 1)\n 13765: jump @453 if a2 == 0\n      : @452 (gas: 6)\n 13768: i32 a3 = 0x40 - a2\n 13771: a3 = a0 >> a3\n 13774: a0 = a0 << a2\n 13777: a1 = a1 << a2\n 13780: a1 = a1 | a3\n 13783: ret\n      : @453 (gas: 1)\n 13785: ret\n      : @454 (gas: 4)\n 13787: a1 = a2 + 0xffffffffffffffc0\n 13790: a1 = a0 << a1\n 13793: a0 = 0\n 13795: ret\n","bytecode":{"object":"50564d0000e93f000000000000010700c1d000c000800364b5b1fe7621b85b0f1592aa7184e247e7f2459fabf3d9046a753fb93242702d8e39a602ea8ebc719eb9af2d8f8109f569dbf91943903245253d5f4ad37bb679daf42b8ea3decd30fcadb6d39e3f7dead6d83b96f41964177ffe73ee4a7a061813400000000481261200000000070000000b0000001900000027000000350000003b000000480000005a0000006500000074000000770000008400000094000000a4000000af000000c1000000cc00000062616c616e636563616c6c63616c6c5f646174615f636f707963616c6c5f646174615f6c6f616463616c6c5f646174615f73697a6563616c6c65726465706f7369745f6576656e746765745f696d6d757461626c655f646174616765745f73746f72616765686173685f6b656363616b5f3235366e6f777265665f74696d655f6c65667472657475726e5f646174615f636f707972657475726e5f646174615f73697a657365616c5f72657475726e7365745f696d6d757461626c655f646174617365745f73746f7261676576616c75655f7472616e73666572726564051102b4770463616c6cb47f066465706c6f7906be2d80c302b5e56a00b201b40364046904ea04f504100539059905be05ca05230637066b069206a706f10616077f078f07a707cd07e907200829084a0875088e081c09550981099a09230a580a610a890ab50aca0a1c0b2c0b480b7a0ba10bd80be10b090c3b0cec0c110d020e1b0e520e7e0e8e0ea60eff0eba0fd60f191021104610b410dd10fa10381141115911ab11e7118f12a312bd12f11240136113bb13ed13f613a814d914f61443154c156415e215ef15041636168e16f1161b17d317ff184419b019031a481a8b1ad81af61a611b6e1bcc1bf21b101c571c611c7f1cad1c491d7d1d231e671ea51e1a1f331f571f8e1f941fb61fe820002122216321a321bb21d7211f226e2474249024ae241f25292567256d2540265526a8261c277f27a2275e2877289b284c2a652a892ad92af72a3a2b432b5d2baa2bc72be12bf12bfa2b142c5d2c7b2c952ca52cae2ccc2c402d872da42dd72de12dff2d252e7b2ec92ecf2fe62f073046308f30a530bf300231f532133355335e337c33b933d23323342b3461347f3488349511e87b10107b15087b163306600002390560000251051c3307900003837783680a070139076000022003600002ac57108210108215088216951118320000390860000251084506330790000383770a0f2838069511f07b10087b15648964753308206497501002b0037c78017c797c7a027c7b03978808d4980897aa1097bb18d4ba0ad4a8087c79057c7a047c7b067c7c07979908d4a90997bb1097cc18d4cb0bd4b909979920d489027c79097c7a087c7b0a7c7c0b979908d4a90997bb1097cc18d4cb0bd4b9097c7a0d7c7b0c7c7c0e7c780f97aa08d4ba0a97cc10978818d4c808d4a808978820d498037c78117c7a107c7b127c7c13978808d4a80897bb1097cc18d4cb0bd4b8087c7a157c7b147c7c167c791797aa08d4ba0a97cc10979918d4c909d4a909979920d4890a7c78197c79187c7b1a7c7c1b978808d4980897bb1097cc18d4cb0bd4b8087c791d7c7b1c7c7c1e7c771f979908d4b90997cc10977718d4c707d49707977720d487076f776fa86f396f2a7b5a187b59107b58087b57821008821595111032009511d87b10207b15187b161082897b19088289087b1982851082861833082050100468026f686f59821a6faa821b086fbb787b18787a10787908787898bc38787c1f98bc30787c1e98bc28787c1d98bc20787c1c98bc18787c1b98bc10787c1a98bb08787b1998ab38787b1798ab30787b1698ab28787b1598ab20787b1498ab18787b1398ab10787b1298aa08787a11989a38787a0f989a30787a0e989a28787a0d989a20787a0c989a18787a0b989a10787a0a98990878790998893878790798893078790698892878790598892078790498891878790398891078790298880878780182102082151882161095112832009511a07b10587b15507b16489515608411e06476828718828910828a0882886f776f996faa6f887b18187b1a107b19087b17491138491130491128491120481140208318831a20831b403309ff33070a08821738821830821928821a206f776f886f996faa7b6a187b69107b68087b679551a082105882155082164895116032009511a07b10587b15509515608411e08272827a08827b108277188283828908828c108288186f746fbb6faa6f276f826fcc6f996f387b17187b1a107b1b087b147b18387b19307b1c287b12208318831a203309ff330b2033070a109551a08210588215509511603200951160ff7b1098007b1590007b1688009515a0008411e082ab7b1b3882ab087b1b3082ab107b1b2882aa187b1a20829a7b1a18829a087b1a10829a107b1a088299187b1964865010066582186f888219086f99821a106faa821b186fbb7b1b587b1a507b19487b18408218206f888219286f99821a306faa821b386fbb7b1b787b1a707b19687b18608379836a8317403308020a06955160ff8210980082159000821688009511a00032008b7910520931c8780883881f8488e05638000001253309680002390a680002ae8a093d086800020133087000028377c887073200009511f07b10087b158475010a04013d076400025105075010080950100a4302951180fe7b1078017b1570017b166801951580018411e049215801492150014921480149214001831740010a1101821750018218580182194801821a4001d49808d4a707d4870752074301390664000297672098772095771f8477e09578c000d87807492138017b1820017b17280194777b1730013307409518200150100ca9fc3307c000646850100e25ff8377646833090a02015316400201951700013308c00050101049fb821718017b1738821710017b1730821708017b1720821700017b17189517e0003308e00050101220fb8218f0008216f80014070000000001000000d38707d467077b1828988820888801946893785108af008217e8007b17088217e0007b17108217187b17c0008217207b17c8008217307b17d000330780009518c0008219387b19d800501014fafb7b16b8008217287b17b0008217087b17a8003307a000c871088219107b19a000501016d5fb951780003308405010188ffa82179800821890008219880082168000d49707d48609d47909989920d48707977720d4970751072b003308700002838833070128a20033087000028388330701289500330870000283883307012888006467330850101af7fd8377330833090a029517603308800050101c22fa821778330b9000037b1b38821870821968821a603e07a800033e08a000033e099800033e0a9000039517403308a00050101eeef9821758821850821948821a40821b387bb7387bb8307bb9287bba2028b9f96467330850102088fd8378330733093300220a0e280a33093300220a0e01951108f8951700077b70f0007b75e8007b76e0009515f807951118fc8411e064169569ff079599114929e8004929e0004929d00080003307409568ff079588e1004929d800501024a2fa33076400027b67980039076400025517040728841495670010837700f933083300260a03019569ff0795991181970c015147c0e16e83790f5147981aff8e6d0551472e77c9ad1b0c5147e072a6c2270751471720edf6850151476d287efcb5035147ab0025378102524756a5a64d13064929880149298001492978014929700195670010837780f93300280a1101956aff0795aa1195ab000150122af62d5207b80f826798008177541723bf0f9567600250102c3415956a000282a76082a86880697002492658027ba9507ba848956840027ba740330750102ec6f94926380249263002492628023307209568200249262002501030aaf9390868000256183f0b200368000240019517e08479e07b69980064913307700002837783993308403300320a09826a980033023428fd2c826a9800501234f62c7bcaa8007bc9a0007bc898007bc79000956700029568ff079588a1015010363bfa956800028287187b6798008287107b6790008287087b67880082877b6780009567e001330840501038e4f7956b000182b7f80082b8f00082b9e80082bae00050123a2d2c5207b80e82678000956900017b97c000826788007b97c800826790007b97d0009568c001826798007b97d80064a77b6a980033006a28cbf84929680349296003492958034929500395670010837760fb0a1101956aff0795aa1195ab000382b76082b86882b95882ba50d49808d4a707d487075207680e8267980081775417236f0e9567ff0795770150103cbf1395670010827900f895670010827708f8956aff0795aa1182a882aa087b6ad8077b68d0077b67c8079567e0079568c0077b69c00750103e39218267f8077b6798008267f0077b6790008267e8077b6788008267e0077b6780009567a007330840501040d8f6956b000782b7b80082b8b00082b9a80082baa000501242212b5207ac0d82678000956900077b978000826788007b978800826790007b97900095688007826798007b97980064a77b6a980033006a28bff74929680149296001492958014929500195670010837760f90a1101956aff0795aa1195ab000182b76082b86882b95882ba50d49808d4a707d4870752077e0d826798008177330803ae78820d501044e2f53a08b800037b6898003a08b000037b6890003807c000037b67880033077000037b67800083773300460a058269800033024828a02a82698000501248992a82698800d3980882699000d39707d4870782689800d3a808d487075207310d9567800150104ad314826798017b679800826790017b679000826788017b678800826780017b6780009567600133084050104ca4f5956b000182b77882b87082b96882ba6050124ef12952077c0c82678000956900017b9740826788007b9748826790007b975095684001826798007b975864a77b6a980033006a2893f64929880349298003492978034929700395670010837780fb3300500a1101956aff0795aa1195ab0003501252592a5207c60c826798008177541723cd0c9567ff079577c1005010549311956aff0795aa1182a7b00082a8b80080a9c000492aa8007ba9a0007ba898009568ff079588a1007ba79000330750105619f69567ff07957711492788004927800049177864793307209568ff0795888100491970501058f2f5390868000256183f0b200368000240019517e08479e07b699800649133077000028377839933084033005a0a09826a980033025c286529826a980050125c5e2995bc00037bcaa8007bc9a0007bc898007bc790009567ff079577619568ff079588a10350105e7cf69568ff079588118287687b6798008287607b6790008287587b6788008287507b6780009567ff079577413308405010601ef4956aff0795aa1182a74882a84082a93882ab30d49707d48b09d47909989920d48707977720d497075207e30a826780007ba710826788007ba718826790007ba7209568ff07958821826798007ba72864b77b6b980033006a28fbf44929280249292002492918024929100295670010837720fa0a1101956aff0795aa1195ab000282b72082b82882b91882ba10d49808d4a707d487075207430b8267980081775417034a0b956720033308405010626df3956800038287387b6798008287307b6790008287287b6780008287207b678800501064f4f28267980082688000d4870782688800648b82699000d49808d47808988820d49707977720d4870752070e0a3a099000033a089800033a0aa000033a07a80003956c00037bc7187bca107bc808956800037bc964b73300cc002825f452478ab99f6fca0a4929c8014929c0014929b8014929b001956700108377c0f90a1101956aff0795aa1195ab000182b7c00082b8c80082b9b80082bab000d49808d4a707d487075207e20a826798008177541703e90a956700108377e0f90a9567ff07957711957900018298e8007b6898008298e0007b6890008298d8007b6888008297d0007b6780009567a00233084050106657f2956b000282b7b80082b8b00082b9a80082baa000501268a02652072b0982678000956900027b978000826788007b978800826790007b97900095688002826798007b97980064a77b6a980050106a41f3330820826798003300ce0028b8f54929880249298002492978024929700295670010837780fa33006c0a1101956aff0795aa1195ab000250126ef7265207290a826798008177541743300a95676007501070350e956800078287787b67208287707b67588287687b67708287607b6778956700108377a0fa3308240a039567ff07957711957900028298a8007b6898008298a0007b689000829898007b688800829790007b67800050107206f13a08b800037b68683a08b000037b68503807c000037b674833077000037b676083770a0501826760827208827b807c106f279878206fb9979a20d4a8089777206fca98aa20d4a707989920826a48d3a909826a50d3a707d49707826968d39808d48707520777097b6c307b62387b6b408267900082688000d487078268980082698800d49808d487075107960982675897772098792049263807826778956a00077ba7208267707ba728956820077b69487ba9303307501074d9f14926180749261007492608073307209568000749260007501076bdf133076800027b6768390768000256173f0b826868480840019517e08479e07b6918649133077000027b6728837783993308407b67503300780a09826a1833027a282425826a1850127a1e2595bc00027bcac8007bc9c0007bc8b8007bc7b0009567e0069568ff079588c10250107c3ff2956800068287f8008262e0068289f000828ae800826c9800d3c70bd8c70882679000d8790cdbb80c82688800d38a03d88a0a82688000d88208db3a08d39707d4b707db7c085208d8088267787b67c0068267707b67c8068267587b67d0069567c0068268207b68d80650107e00224926b806826748956900067b97b0008267707b97a8009568a0068267787b97a000330750208000b7f04926980649269006492688063307209568800649268006502082009af09517e08477e07b67586471826768817756173f0b826868480840019517e08477e07b672064718379330840826750330084000a09826a2033028600282124826a20502286001b248268587b8a187b89107b8b087b8795676006502088002df1826a6006826768068268700682697806826b98007b6b1806826b90007b6b1006826b88007b6b0806826b80007b6b00067b6938067b6830067b6728069567400695682006956900067b6a200650208a00fd15956b000682b75882b85082b94882ba40956bff0795bb1195bc00027bc7e8007bc8e0007bc9d8007bcad0009568ff079588e10282675850208c0020f10a0b8269608268387b98088268407b988268307a98108e77fc089a78956aff0795aa1195ab00037bb8487bb8407bb8387bb830826898007bb808826890007bb8826888007ba8f802826880007ba8f002482a1003979820988820977723d487079568ff07958801039788209888209569ff0795994103979920d4890a826b2897bb2098bb209568ff0795882103978820d4b80c3308ff3309ff0a017b67609567e00550208e00c00a8267605207f8069567a00533084050209000b7ed956b000582b7b80082b8b00082b9a80082baa00050229200ff2152078904826780007b678005826788007b678805826790007b67900595688005826798007b67980564a77b6a980050209400a3ee49265805826748956b00057bb7508267707bb7483a070000023a080800023a09100002826a787bba407bb7787bb8707bb9683a0718000233082095696005956a40057bb760826798005020960030f0330782685033090a0e2850088267980081775417437a069567e004502098007b09956800048287f8007b67608287f0007b67688287e8007b6790008287e0007b67980095670010837740fa3308240a039568ff07958811958900028297487b6788008297407b6780008297387b67788297307b677050209a004bec3a08b800037b68583a08b000037b68503807c000037b674833077000037b6740837733009c000a0582694033029e00280b2182694050229e000521826948d39808826950d39707d48707826858d3a808d487075207cf059567ff079577114927680249276002492758024927500295670010837760fa0a11019569ff07959911959a000282a76882a8588292500282a96082638800d33707826a78d3a808d48707826c8000d3c908826b70d3b209d49808d487075207b305d4cb07d43a08d487075107e905826798007b678004826790007b6788048267607b679804956780048268687b6890045020a0000d1e826768977720987720492678047b6750956900047b9770826790007b976895686004826798007b976033075020a200bbec49265804492650044926480433072095684004492640045020a4009eec9517e08477e07b676864713309680002390768000256173f0b200368000240017b69489517e08479e07b696064913307700002837783993308407b67583300a6000a09826a603302a800281620826a605022a80010208268687b8a187b89107b8b087b87956720045020aa0022ed8264380495680004828730828b20828c289518e08488e06481826a78c8ca0a826270c8b202d8b20bc8ba0ad3ca03d8ca09da3b09826b8000c87b0bc89b0cd8bc0382608800c84000d87b0bc80b0bc83b00d87c03d3040bd84004dab304d3c707d4b707da79047b8c107b8a087b827b80185204dd048267685020ac0025ed956700043308405020ae006bea956b000482b71882b81082b90882ba5022b000b81e520742018267707b67e0038267787b67e803826780007b67f0039568e003826788007b67f80364a77b6a88005020b2005eeb4926b803826750956b00037bb7b000826790007bb7a8003a072000023a082800023a09300002826a98007bbaa0007bb7d8007bb8d0007bb9c8003a073800023308209569c003956aa0037bb7c000826788005020b400e2ec330782685833090a0e28020549290802492900024929f8014929f00195670010837700fa0a1101956aff0795aa1182a7000282a8080282a9f80182aaf001d49808d4a707d4870752073d0482679800817754170343049567e0023308405020b60069e9956800028287f8007b6798008287f0007b6790008287e8007b6780008287e0007b6788005020b800ebe88267980082688000d4870782688800648a82699000d49808d47808988820d49707977720d487075107f003003308700002838833070133090a0e2844043308700002838833070133090a0e2833043308700002838833070133090a0e2822043308700002838833070133090a0e2811043308700002838833070133090a0e2800043308700002838833070133090a0e28ef034926b0014926a8014926a00114070000000004a09fc39568a0017b67b80133075020ba00c1e9390868000256181f12200368000220330870000228c002330870000228b8023308700002838833070133090a0e2899033308700002838833070133090a0e2888033308700002838833070133090a0e2877033308700002838833070133090a0e2866035247adaee92c4a039567ff079577114927280149272001492718014927100195670010837720f90a1101956aff0795aa1195ab000182b72082b82882b91882ba10d49808d4a707d48707510728033308700002838833070133090a0e2807033308700002838833070133090a0e28f6023308700002838833070133090a0e28e5023308700002838833070133090a0e28d4023308700002838833070133090a0e28c30249265007492648074926400714070000000004a09fc3956840077b67580733075020bc0095e8390868000256181f1220036800022033087000022894013308700002288c01492610054926080549260005140700000000c611522c956800057b67180533075020be0050e8390868000256181f122003680002203308700002284f013308700002284701492630054926280549262005140700000000b878d6f4956820057b67380533073300c0002807e84926d0054926c8054926c00514070000000018ecb8909568c0057b67d80533075020c000e4e7826768817756171f0b826868480820013307013309048268500a0e013308700002838833070133090a0e28bf014926d0044926c8044926c00414070000000004a09fc39568c0047b67d80433075020c20091e7390868000256181f12200368000220330870000228900033087000022888004926b0044926a8044926a004140700000000c611522c9568a0047b67b80433075020c4004ce7390868000256181f112003680002203308700002284b33087000022844492650034926480349264003140700000000c611522c956840037b67580333075020c60009e7390868000256181f112003680002203308700002280833087000020183883307013309040a0e01492690034926880349268003140700000000717b484e956880037b67980333075020c800bce64926780349267003492660031133070495686003492668035020ca009ee6826748817756173f0b826848480840013307013309248268580a0e013308700002838833070133090a0e28793308700002838833070133090a0e28693a09b000033a08b800033807c000034926d802956b00027bb7d0007bb8c8009568c0027bb9c00064a75020cc0033e6330820826788005020ce00ade883780133092033070a0e8267980081772809826798008177015107123308700002838833070133090a0e0133087000028388330733090a0e28f3826798008177561723143308700002838833070133090a0e28d9956720015020d0001001956a000182a72082a82880693001492618017ba9107ba808956800017ba733075020d200a2e54926f8004926f0004926e000013307209568e0004926e8005020d40084e533076800027b679800390768000256173f0c82689800480840019517e08479e07b698800649133077000027b679000837783993308403300d6000a09826a88003302d80028c618826a88005022d800bf187bca487bc9407bc8387bc7309567c0009568ff07958841015020da0007e68269c0008267c8008268d000826ad8007b6ab8007b68b0007b67a800330780009568a0007b69a0005020dc00e7e482679800817756279f0018826898004808a000826790008378800028a9fe8267900083788000289efe9511c07b10387b15307b16289515408411e0647683173308040a030182171082181814090000000001000000d37909d48909987a2088aa01948a939a510a248219821a087b697b6a087b67107b68189551c082103882153082162895114032003308700002838833070133093300de000a0e01951100ff7b10f8007b15f0007b16e800951500018411e064760a0d01510769017b16100a0d64769517c0003308405020e000dde28213d8008214d0008210c8008212c00095671f7b1618d867088477e095793fd87907c8780a8499e0c80a087b1238c89202d89209c89808d3a80bd8a80adab90ac84a0ad84a0bc8b3098eac8e96da9c06d49a0c8e87dbc60752072401821738d87207d3080cd80806dac706d33907d8390cdb7c0bd34a0cd4c707da760b520bff007b12a0007b18a8007b1ab0003307409518a0007b19b8007b133064467b10285020e20071e3821938d46907821830821a28d4a808d487079877207b1620d46808978820d47808520889006497492198004921900049218800951880008219187b1980005020e4002de30a0d01821b38821820821930d498081409e0ffffff00000000d89b09821a2894a99489510943647698772052073b83b72083687b181864685020e60076e57a16e00083778318e00033090a0c01821b388117e000821610821830821920821a28821c18aec70e00330a33093308330b60017b6b7b6a087b69107b6818955100ff8210f8008215f0008216e800951100013200491170491168491160140700000000717b484e9518607b177833075020e8007ae2491158491150491140413307049518404911485020ea0061e2390868000256183f0b20036800024001330870000283883307013309243300ec000a0e019511e0fc951800037b80187b85107b8608951520038411e064167b671833077000037b673883777b67103300ee000a053302f0002842155022f0003f154926f801956900017b98f0007b97e800956700029568e0017b9ae0005020f200d90a826718027b6740826710027b6748826708027b6750826700027b6758836720020a01826c3802826330028262280282602002d4c207d43008d48707510739078877017b67d800683895894068c8dac9086809959940682ada290a95a98000d4c30bdab9087b62307b6c60d8a90c94bc8eca8889fd00859b01dacb0a88a9019599ff9aa49accc9bc029a87fc007b64c0008e488e9b7b69c800da980b8e287b67d00088770001857701db2807dbab078269d800d47909826b60949b7b632064389498826a30949a640c949c7b6028520924038267d0008579ff008263c000d439078264c800d44209d47909510907038269d0009598017b68d800888701c827077b67b800d48707887701c837077b67a800d83707c847077b67b0009a98ff007b68c0009a8980008267288268305020f400b7147b67c8007b6898008267208268608269c0005020f600c5147b67a00082679800d487077b6798008268d0009a897f8267288268305020f800a3148269c000889a80007b6ad000826b9800dbab08826b60da9b087b6890008268c800826ba000d4b808daa708826720da97087b68c8008267288268305020fa006214826ba800826cb0008269b800d49c0c826ad800d4ba0ad4ca0a8269d00093987b68c00093977b67d000510ad7018267d8009579808267208268605020fc00fc137b6798007b68a0008267288268308269d8005020fe00e4137b6780007b6888008268d8009a89800082672082686050200001ee1382698800d498088269d800889a80007b6a8800826ba000daab08826b30da9b087b68a00082688000d4870782689800daa807826828da98077b679800826720826860502002018013330c82698800939893974916700949166882609000017b6880007b6c88004916788268980098893f826ca00097ca01d49a03978901980b3fd49b0b7b6b9000826a68d33a087b689800d83a08826970d8b90282699800db980282688000978801987b3fd4b8087b68800098cb3f977701d47b0b9707018268c800988c3fd4c7077b67a000978c018267c00098783fd4c808977c018267d00098703fd40c0c97770182698800d497077b67d00086c77b67c00086877b67c8008267a0008670c9ba07d82707d8ba0882648000c94a0cc98c0cc97c0c99c23f84270a82699000c979087b689800d87908c983077b67a0009438c98b07d88b08c98408826ad800826cb800d4ca09889901826ba800d89b03c99b0b88a901c99c0c8269b000c9390995aaff7b6cb8007b69b000d4c9097b6ad800d4ba0ad4a909842c017b6ba8005209d8fe280c330c49167882609000018269c80098973f970801d48707826ac00098a83f979901d49808826bd00098b93f97aa0197bb01d4bc0c826b78d4b909d49a0ad4b808d47b0b017b68c8008264587b6cd800d8c402826750d3a70cd8a703dac203826c48d88c00826940d3b9027b6bd000d8b90bda200b647064a8826ac800d3ac07d42707da730b8267d800dab704dab800daba0c8267d000dab709d49007d4c408d4870751072503826860d389077b67d8006487826330d33002d8300b826828d8840adb2b0ad87908826220d82c0b8267d800db780bd32c08d48707db7b0a826760daa7097b6940daa20c7b6c48daa3007b6050826728daa7047b6458826710330004010a0533020601286210502206015f104926d8017b68d0017b67c8019568c0017b6ac00133075020080104dd4926b8014926b0014926a001013307209568a0014926a80150200a01e6dc836740020a0a013309680002956a000282a7587b67c00082a7507b67c80082a7487b67d000390768000282a8407b68b80056173f0b200368000240017b69a8009517e08479e07b69b000649133077000027b67d800837783993308407b67a00033000c010a09826ab00033020e01286c0f826ab00050220e01650f7b6a78027b6970027b6868027b6760028267c0007b6798028267c8007b6790028267d0007b6788028267b8007b678002956760029568800250201001a0dd5020120199da3a08b000037b68d0003a08c000037b68c8003a07b800037b67c0000a0b8268c0006f88978920826ac8006faa98aa20d4a909988820826ad0006faa97ab20d4b80898aa20826b387aba107bb8087bb9826840956900027b98b8008268487b98b0008268507b98a8008268587b98a0004826c0028e77fc089a787b98f8007b98f0007b98e8007b98e00097b820988820977723d487079568a0029788209888209569e002979920d4890a826bd80097bb2098bb209568c002978820d4b80c3308ff3309ff0a017b67d80095678001502014010ff78267d80052071501956740013308405020160105da956b000182ba5882b85082b94882b740d49a0ad48709d4a909989920d4a808978820d498085208de008268587b6820018268507b6828018268487b683001956820018269407b6938017b67d80050201801ecda8267100a0582693882970881981082996f7a97a7206f88988820d4780298aa206f99979820d4a8089899204926f8003a0a4000023a0b4800023a0c5000023a075800027b6a1801956a00017bab107bac087ba77b69f0007b68e80033082095690001956ae0007b62e0008267d80050201a0154dc826b40826a48826950826858280b33083309330a330b018267187b787b79087b7a107b7b189551e0fc951700038270188275108276089511200332000049267001492668014926600114070000000018ecb890956860017b677801330750201c0115da8267a800817756171f0c8268a800480820013307013309048268a00033001e010a0e019511807b10787b15707b1668951580008411f0829b828a829608828308829410828c10829918828818d363027b1608d863067b1b187b1a10d8ba0a7b1ada2a06d3980ad89800d84c02daa200d34c0bd4ba0adaa600520046c94c0ac99808c92808d86a09c99808c96a0a821908c99309821bc9b909821b18821c10c9bc0b7b7b7b79087b7a107b7818955180821078821570821668951180003200491150491148491140140700000000717b484e9518407b175833075020200136d949113849113049112011330704951820491128502022011dd9390868000256183f0b2003680002400133087000028388330701330924330024010a0e01951140ff7b10b8007b15b0007b16a8009515c0008411f082908282828a087b1758829b08d60207ca0a06c86707d86706d60a0cc86c0ccab206c867077b1750d86707d6b206c86707c8c707d8c70cd6ba06c86c0ccaba06c867077b1748d86706c86c0c7b1c40829310829918828418828710ca3a0c7b1920ca2906c8c6087b1b28ca7b06ca0409c86909ca2306ca070cc8c6067b1330d6230b7b1b10c88b0bd60703c89308d8c6097b18187b1b08c8b80cc8c9097b1438d44a0cd47208d4c808821b40821c48c8c606d8c604c8b909c8490951088f00d3b9087b1948821948d8b909db89047b1640821810821908d889068ea98218208e8cd2c909d6280c8eccd4c909643b821330d63a0a8eaad4a909d469097b1910821918d8b909821b288eba8216388e6cd2ca0ad6060c8eccd4ca0ad67b0c8eccd4ca0ad4a909d4830ad4670c8216408eaa8eccd2ca0ad4a909821810d49808821948d4480784770152072dca02078218587b878217507b87087b86107b8918955140ff8210b8008215b0008216a8009511c0003200492190004921880049218000140700000000717b484e951880007b17980033075020260148d749117849117049116011330704951860491168502028012fd7390868000256183f0b200368000240013308700002838833070133092433002a010a0e01951100fc951900037b90f8007b95f0007b96e800951500048411e064168289828a088088107b6718492638037b6888007b6830037b6a90007b6a2803956820037b6998007b692003330750202c01bbd649261803492610034926000301330720956800034926080350202e019dd63309680002390768000256173f0b200368000240017b6980009517e08479e07b697064913307700002837783993308407b6778330030010a09826a7033023201286609826a705022320160097bba587bb9507bb8487bb7409567e002956840035020340129d7956b000282b7f00082b8f80082b9e80082bae000d49808d4a707d487075107c0064926d80282679800956900027b97c000826790007b97c8009568c002826788007b97d000330750203601ead54926b8024926b0024926a8023307209568a0024926a00250203801cdd582698000819756173f0e48094033023a0128930950223a01900933003c010a09826a7033023e0128af08826a7050223e01a9087bba787bb9707bb8687bb76095678002956860035020400172d6956b000282b7900082b8980082b9880082ba8000d49808d4a707d487075107090649267802826798007b676002826790007b67680295686002826788007b67700233075020420137d54926580249265002492640020133072095684002492648025020440119d582688000818756173f0e4808403302460128df0850224601dc08330048010a09826a7033024a0128e607826a7050224a01e0077b6a98037b6990037b6888037b678003956720029568800350204c01bad5826720027b6770826728027b6768826730027b6760826738027b67588367a0030a0a956b000382baa00082b7a80082b8b00082b9b800826b587b6bd801826b607b6bd001826b687b6bc801826b707b6bc0017b69f8017b68f0017b67e801956700029568e0019569c0017b6ae00150204e0168fa956800028287187b67588287107b67608287087b676882877b67704926b80182678800956900017b97b000826790007b97a8009568a001826798007b97a0003307502050010dd4492698014926900149268801330720956880014926800150205201f0d382688000818756173f08480840019517e08477e07b67980064718379330840826778330054010a09826a98003302560128c906826a980050225601c2067bbad8007bb9d0007bb8c8007bb7c000956760019568c0035020580187d4826760017b679800826768017b679000826770017b678800826778017b67800050205a01e1d13a089000033a099800033a0aa000033a07a800037b6718017b6a10017b6908017b680001826780007b673801826788007b673001826790007b672801956740019568200195690001826a98007b6a200150205c0126fa956b000182ba4082b74882b85082b958826b587b6bb800826b607b6bb000826b687b6ba800826b707b6ba0007b69d8007b68d0007b67c8009567e0009568c0009569a0007b6ac00050205e01d8f98262f8008264f0008263e8008268e0007b685868276849959c40db270c68376889959940db370995978000d4240adaa70cd8970994a98e9a88c7c500857b01da9b0a88a7019577ff9aa09a99c9b9089ac9c4007b6088008e0c8e7b7b678000da7c0b7b699000889700018577018e8cdb8c07dbab07d4230a826058d4400bd4ba0a88aa01d4a7077b625064299479644c947c643b947b64029472520724036440826790008577ff00826a8800d4a704826a8000d4a807d4740751070503826b900095b9017b699800889701c887077b6770d4970788770182698800c897077b6760d89707c8a7077b67689ab8ff007b68789a89800082675864387b63487b604050206001d0057b6788007b68800082674082685082697850206201df057b673882678000d487077b678000826890009a897f82675882684850206401be05826978889a80007b6a9000826b8000dbab08826b50da9b087b68800082688800826b38d4b808daa708826740da97087b688800826758826848502066017f05826a60826b68826970d4b909826c9800d4ac0cd4c909826a900093a87b687893a77b6790005109d9011407000064a7b3b6e00d7b6730826798009579808267408268505020680110057b67387b68208267588268488269980050206a01fa047b67107b6828826898009a89800082674082685050206c010605826928d49808826a980088ab80007b6b28826920dab908826948dba8097b6948826810d48707826838dab807826858dba70864a97b685882674082685050206e019d04330c82692893989397826b3095b9ff7b69288eb99599ff7b6920826448826258017b68487b6c5049163898293f974a01d49a0a97290182608000980b3fd49b0b7b6b58826920d3a9087b6840d8a908826c28d8bc02826b40dbb802826848978801987b3fd4b8087b6848984b3f977701d47b0b97070182688800988c3fd4c7077b678000978c0182677898783fd48c04977c018267900098703fd40c0c977701826850d487077b67900086c77b677886477b6788008267800086777b678000c9b907d82707d8b908826348c9390cc98c0cc97c0c99c03f826730d27007826858c97802d87808c98a0494a8c98b07d88b08c98308826a9800826c70d4ca09889901826b60d89b03c99b0b88a901c99c0c826968c9390995aaff7b6c707b6968d4c9097b6a9800d4ba0ad4a909840c017b6b605209effe28123302330b330c33092845330c491638018269880098973f82688000978801d47803826b7898b83f979901d49808826a900098a93f97bb0197aa01d4ac02826738d47909d49b0bd4870cd43709018268187b827b8b087b8c107b8918955100fc951700038270f8008275f0008276e800951100043200951180fe7b1078017b1570017b166801951580018411e0641682798278088077104926d8007b67287b67d0007b68107b68c8009568c0007b69187b69c0003307502070019fce4926b8004926b0004926a000013307209568a0004926a8005020720181ce3309680002390768000256173f0b200368000240017b69309517e08479e07b693864913307700002837783993308407b6720330074010a09826a3833027601283601826a385022760130017b6af8007b69f0007b68e8007b67e000956780009568e000502078010acf826790008268980082698800826a8000d49808d4a707d487075207cc004916788267187b67608267107b67689568608267287b6770330750207a01dbcd4916584916504916400133072095684049164850207c01c2cd836700010a0a01956a000182a7187b671882a7107b672882a7087b6738826930819782a87b681056173f08480940019517e08477e07b67306471837933084082672033007e010a09826a30330280012867826a305022800162956b00017bba387bb9307bb8287bb7208267187bb7588267287bb7508267387bb7488267107bb740956720019568400150208201a6ce955180fe821078018215700182166801951180013200330750208401d1cf33070150208601c8cf82a71882a81082a90882aa6f776f886f996faa320282a71882a81082a90882aa6f776f886f996faa956b00033202d49707d48a09d47909989920d48707977720d49707320282693882970881981082996f77977a206f88988820d48a0a9877206f98978920d49707988820320282970882988199106f77987a206f88978b20d4ba0a9777206f99989920d49707988820320282a71882a81082a90882aa6f776f886f996faa956bff0795bb1195bc0001320282a71882a81082a90882aa6f776f886f996faa956bff0795bb11320282a71882a81082a90882aa6f776f8b6f996faa32029517e08477e07b677064718379330840826778320282b7800082b8880082b97882ba70d49808d4a707d487073202849a40520a195109148d9a40cfa80ad09808d09707d4a707320032009597c0d0780733083200849a40520a195109148d9a40d0a70acf9707cf9808d4a808320032009598c0cf870833073200490a21a11a4292d210a1925429a42449922449922449922449922449922449922449922449922449922449922449aa9294529294942454a5242549922449922449922449922449922449922449922449499294a4aa24254994a492a42a494992922425294955559292a42495244544444a92242549525129a5244929a524a9a488882849128490309426a521112222221111d18888241192241211452244a16a8808914824121122024892544422894422221122918824422444442449920c25a1249454a84a84842409218444489224492a54a9d28888884891882011114284484469240202020202020202222222d2488488428448229248212212114204932854522411222222224422912822212222424444444444144944444423912449220a9110111129111111212222222212222222444444444444914444443412499224a244081122448852241122914412112222222222219224444422918814494444441a891051880891888888882844225222124204932854522411222222121122894422114988244992248948241289144944444423912449220a911089442211221245922411420891242a12101111d1484444248928448c44444444442444444488888888888822242211111169244244214224499244a4484444444484909090909a9452929224499244928844249124124922294444224248886492422a49491222222222424444441249249124894422118910894844a22022121124294532492551220992a40822222222222222222222882489444444448292a4248a449244a28888489288242249129124258244248888882022222222a20822912484902409894804a5128508221289888848914824922408090909294a2441922449442222221a892412491249924812111189480449229148440a222211419242886092142a8912499024451091242949922491249224499224251244824852108944444414412422228410111121111141a94444443412119124a2100922222222228848144992c4502aa15442a9845209a5124a252202882808118484845209a5124a25944a40242222a291489224114a25944a2895502aa1542222808882104148484404105110220809898800228a44440011052992491a4a25220288280811848444440011052182502822028828081184c2924644001105112111418a64928652855285102222220a12415351d184524355518452451049441215448444042142442651884a149108922422828888888888200a1111894892249526012449a594244952284523222235529120222249922449922449252592244992444424222548922449124544248226490049a524a5208a9a48926495258988889204901424912408110c25d18824911252a2481011111141241289c411114922514a299124a948924a44458a481249a95489884824118924924412119104114904118948124444248988248924888844124511912488482288884882484444928844924882a22231229148924412492291249224924824892491288a28492449229144492292489248221249222a31924492489224c94824499224928a24912492249228499224912449922449a248101111051121114134442291088908461285a8441491082222222222222282204488104589924449929488442211514444924412492491244504119120922449924422918844042949a5242589104288488a4844449024554d492292442322808882282293882649a492244992a42449922449929424254992284900494112498210c150128d8888549224499224499224499224499224499224499224499224922449524a4a49499294929292249524499294241111514404105190449220443094442322225249222222220a22422282102218490a954489244892882022229244444444441444442282281209a244122449441011114922222222a220222422882291204a244144444410894422514444241289444444440491244989888888888288484410452651491491082222228288888888208410222222222222222288244924128988888808222252492591a422492a11158948499224a9aa8a22229144249224912489444a82882441221149824444928824492441924412a588001249822489208948822422499224494a12944a52924c92249124499224499224914492249224518a28922449922429492449922449124912555546224992489224c994242222a288884825914844a2202224220821824952a8244a2441444444101191249224490a924812442349925422935412254a882449922489082222a2820449aa2a49555192242949a5242529a594a42425a92a1225a92a5292aa4a52491149929224492aa92449924a0a00"},"methodIdentifiers":{"claimRewards()":"372500ab","deposits(address)":"fc7e286d","getContractBalance()":"6f9fb98a","getPendingRewards(address)":"f6ed2017","getStakedAmount(address)":"4da6a556","habitTracker()":"836ee1c0","lastUpdateTime(address)":"2ce9aead","ratePerSecond()":"8eff1a98","stake(address,uint256)":"adc9772e","unstake(address,uint256)":"c2a672e0"}},"hash":"c9b34f30cad06b8cd4a78aad9dad311933cccc3ff070f328deb867aa7b4cd811","factoryDependencies":{}}}}