{"contracts/adapters/MoonwellAdapter.sol":{"MoonwellAdapter":{"abi":[{"inputs":[{"internalType":"address","name":"_mToken","type":"address"},{"internalType":"address","name":"_comptroller","type":"address"},{"internalType":"address","name":"_habitTracker","type":"address"}],"stateMutability":"nonpayable","type":"constructor"},{"inputs":[],"name":"InvalidAmount","type":"error"},{"inputs":[],"name":"MintFailed","type":"error"},{"inputs":[],"name":"OnlyHabitTracker","type":"error"},{"inputs":[],"name":"RedeemFailed","type":"error"},{"anonymous":false,"inputs":[{"indexed":true,"internalType":"address","name":"user","type":"address"},{"indexed":false,"internalType":"uint256","name":"amount","type":"uint256"}],"name":"RewardsClaimed","type":"event"},{"anonymous":false,"inputs":[{"indexed":true,"internalType":"address","name":"user","type":"address"},{"indexed":false,"internalType":"uint256","name":"amount","type":"uint256"},{"indexed":false,"internalType":"uint256","name":"mTokens","type":"uint256"}],"name":"Staked","type":"event"},{"anonymous":false,"inputs":[{"indexed":true,"internalType":"address","name":"user","type":"address"},{"indexed":false,"internalType":"uint256","name":"amount","type":"uint256"},{"indexed":false,"internalType":"uint256","name":"mTokens","type":"uint256"}],"name":"Unstaked","type":"event"},{"inputs":[],"name":"claimRewards","outputs":[{"internalType":"uint256","name":"claimed","type":"uint256"}],"stateMutability":"nonpayable","type":"function"},{"inputs":[],"name":"comptroller","outputs":[{"internalType":"address","name":"","type":"address"}],"stateMutability":"view","type":"function"},{"inputs":[{"internalType":"address","name":"","type":"address"}],"name":"getPendingRewards","outputs":[{"internalType":"uint256","name":"pending","type":"uint256"}],"stateMutability":"pure","type":"function"},{"inputs":[{"internalType":"address","name":"who","type":"address"}],"name":"getStakedAmount","outputs":[{"internalType":"uint256","name":"staked","type":"uint256"}],"stateMutability":"view","type":"function"},{"inputs":[],"name":"habitTracker","outputs":[{"internalType":"address","name":"","type":"address"}],"stateMutability":"view","type":"function"},{"inputs":[],"name":"mToken","outputs":[{"internalType":"address","name":"","type":"address"}],"stateMutability":"view","type":"function"},{"inputs":[{"internalType":"address","name":"user","type":"address"},{"internalType":"uint256","name":"amount","type":"uint256"}],"name":"stake","outputs":[],"stateMutability":"payable","type":"function"},{"inputs":[{"internalType":"address","name":"user","type":"address"},{"internalType":"uint256","name":"amount","type":"uint256"}],"name":"unstake","outputs":[],"stateMutability":"nonpayable","type":"function"},{"inputs":[{"internalType":"address","name":"","type":"address"}],"name":"userStakes","outputs":[{"internalType":"uint256","name":"","type":"uint256"}],"stateMutability":"view","type":"function"},{"stateMutability":"payable","type":"receive"}],"evm":{"assembly":"// RO data = 0/0 bytes\n// RW data = 100/65776 bytes\n// Stack size = 32768 bytes\n\n// Instructions = 3789\n// Code size = 13115 bytes\n\n      : @0 (gas: 7)\n     0: sp = sp + 0xffffffffffffffe8\n     3: u64 [sp + 0x10] = ra\n     6: u64 [sp + 0x8] = s0\n     9: u64 [sp] = s1\n    11: s1 = 0x20060\n    16: s0 = i32 [0x20060]\n    21: jump @3 if s0 == 0\n      : @1 (gas: 5)\n    24: a0 = 0x30090\n    29: i32 a0 = a0 + 0\n    31: i32 a1 = s1 + 0\n    33: ecalli 8 // 'get_immutable_data'\n    35: fallthrough\n      : @2 (gas: 3)\n    36: a0 = i32 [0x20060]\n    41: u32 [0x20060] = 0\n    46: jump @4 if a0 <u s0\n      : @3 (gas: 5)\n    49: ra = u64 [sp + 0x10]\n    52: s0 = u64 [sp + 0x8]\n    55: s1 = u64 [sp]\n    57: sp = sp + 0x18\n    60: ret\n      : @4 (gas: 1)\n    62: trap\n      : @5 (gas: 2)\n    63: a1 = i32 [0x20060]\n    68: jump @47 if a1 == 0\n      : @6 (gas: 4)\n    72: a0 = 0x30090\n    77: i32 a0 = a0 + 0\n    79: ecalli 15 // 'set_immutable_data'\n    81: jump @47\n      : @7 (gas: 8)\n    84: sp = sp + 0xfffffffffffffff0\n    87: u64 [sp + 0x8] = ra\n    90: u64 [sp] = s0\n    92: a2 = a1\n    94: s0 = a0\n    96: a1 = 0x20\n    99: a0 = a2\n   101: ra = 2, jump @15\n      : @8 [@dyn 1] (gas: 100)\n   106: a1 = u8 [a0 + 0x1]\n   109: a2 = u8 [a0]\n   111: a3 = u8 [a0 + 0x2]\n   114: a4 = u8 [a0 + 0x3]\n   117: a1 = a1 << 0x8\n   120: a1 = a1 | a2\n   123: a3 = a3 << 0x10\n   126: a4 = a4 << 0x18\n   129: a3 = a3 | a4\n   132: a1 = a1 | a3\n   135: a2 = u8 [a0 + 0x5]\n   138: a3 = u8 [a0 + 0x4]\n   141: a4 = u8 [a0 + 0x6]\n   144: a5 = u8 [a0 + 0x7]\n   147: a2 = a2 << 0x8\n   150: a2 = a2 | a3\n   153: a4 = a4 << 0x10\n   156: a5 = a5 << 0x18\n   159: a4 = a4 | a5\n   162: a2 = a2 | a4\n   165: a2 = a2 << 0x20\n   168: t0 = a2 | a1\n   171: a2 = u8 [a0 + 0x9]\n   174: a3 = u8 [a0 + 0x8]\n   177: a4 = u8 [a0 + 0xa]\n   180: a5 = u8 [a0 + 0xb]\n   183: a2 = a2 << 0x8\n   186: a2 = a2 | a3\n   189: a4 = a4 << 0x10\n   192: a5 = a5 << 0x18\n   195: a4 = a4 | a5\n   198: a2 = a2 | a4\n   201: a3 = u8 [a0 + 0xd]\n   204: a4 = u8 [a0 + 0xc]\n   207: a5 = u8 [a0 + 0xe]\n   210: a1 = u8 [a0 + 0xf]\n   213: a3 = a3 << 0x8\n   216: a3 = a3 | a4\n   219: a5 = a5 << 0x10\n   222: a1 = a1 << 0x18\n   225: a1 = a1 | a5\n   228: a1 = a1 | a3\n   231: a1 = a1 << 0x20\n   234: t1 = a1 | a2\n   237: a1 = u8 [a0 + 0x11]\n   240: a3 = u8 [a0 + 0x10]\n   243: a4 = u8 [a0 + 0x12]\n   246: a5 = u8 [a0 + 0x13]\n   249: a1 = a1 << 0x8\n   252: a1 = a1 | a3\n   255: a4 = a4 << 0x10\n   258: a5 = a5 << 0x18\n   261: a4 = a4 | a5\n   264: a1 = a1 | a4\n   267: a3 = u8 [a0 + 0x15]\n   270: a4 = u8 [a0 + 0x14]\n   273: a5 = u8 [a0 + 0x16]\n   276: a2 = u8 [a0 + 0x17]\n   279: a3 = a3 << 0x8\n   282: a3 = a3 | a4\n   285: a5 = a5 << 0x10\n   288: a2 = a2 << 0x18\n   291: a2 = a2 | a5\n   294: a2 = a2 | a3\n   297: a2 = a2 << 0x20\n   300: a3 = a2 | a1\n   303: a1 = u8 [a0 + 0x19]\n   306: a2 = u8 [a0 + 0x18]\n   309: a4 = u8 [a0 + 0x1a]\n   312: a5 = u8 [a0 + 0x1b]\n   315: a1 = a1 << 0x8\n   318: a1 = a1 | a2\n   321: a4 = a4 << 0x10\n   324: a5 = a5 << 0x18\n   327: a4 = a4 | a5\n   330: a1 = a1 | a4\n   333: a2 = u8 [a0 + 0x1d]\n   336: a4 = u8 [a0 + 0x1c]\n   339: a5 = u8 [a0 + 0x1e]\n   342: a0 = u8 [a0 + 0x1f]\n   345: a2 = a2 << 0x8\n   348: a2 = a2 | a4\n   351: a5 = a5 << 0x10\n   354: a0 = a0 << 0x18\n   357: a0 = a0 | a5\n   360: a0 = a0 | a2\n   363: a0 = a0 << 0x20\n   366: a0 = a0 | a1\n   369: a0 = reverse a0\n   371: a1 = reverse a3\n   373: a2 = reverse t1\n   375: a3 = reverse t0\n   377: u64 [s0 + 0x18] = a3\n   380: u64 [s0 + 0x10] = a2\n   383: u64 [s0 + 0x8] = a1\n   386: u64 [s0] = a0\n   388: ra = u64 [sp + 0x8]\n   391: s0 = u64 [sp]\n   393: sp = sp + 0x10\n   396: ret\n      : @9 (gas: 12)\n   398: sp = sp + 0xffffffffffffffd8\n   401: u64 [sp + 0x20] = ra\n   404: u64 [sp + 0x18] = s0\n   407: u64 [sp + 0x10] = s1\n   410: a2 = u64 [a1]\n   412: u64 [sp + 0x8] = a2\n   415: a2 = u64 [a1 + 0x8]\n   418: u64 [sp] = a2\n   420: s0 = u64 [a1 + 0x10]\n   423: s1 = u64 [a1 + 0x18]\n   426: a1 = 0x20\n   429: ra = 4, jump @15\n      : @10 [@dyn 2] (gas: 71)\n   434: a1 = reverse s1\n   436: a2 = reverse s0\n   438: a3 = u64 [sp]\n   440: a3 = reverse a3\n   442: a4 = u64 [sp + 0x8]\n   445: a4 = reverse a4\n   447: u8 [a0 + 0x18] = a4\n   450: u8 [a0 + 0x10] = a3\n   453: u8 [a0 + 0x8] = a2\n   456: u8 [a0] = a1\n   458: a5 = a4 >> 0x38\n   461: u8 [a0 + 0x1f] = a5\n   464: a5 = a4 >> 0x30\n   467: u8 [a0 + 0x1e] = a5\n   470: a5 = a4 >> 0x28\n   473: u8 [a0 + 0x1d] = a5\n   476: a5 = a4 >> 0x20\n   479: u8 [a0 + 0x1c] = a5\n   482: a5 = a4 >> 0x18\n   485: u8 [a0 + 0x1b] = a5\n   488: a5 = a4 >> 0x10\n   491: u8 [a0 + 0x1a] = a5\n   494: a4 = a4 >> 0x8\n   497: u8 [a0 + 0x19] = a4\n   500: a4 = a3 >> 0x38\n   503: u8 [a0 + 0x17] = a4\n   506: a4 = a3 >> 0x30\n   509: u8 [a0 + 0x16] = a4\n   512: a4 = a3 >> 0x28\n   515: u8 [a0 + 0x15] = a4\n   518: a4 = a3 >> 0x20\n   521: u8 [a0 + 0x14] = a4\n   524: a4 = a3 >> 0x18\n   527: u8 [a0 + 0x13] = a4\n   530: a4 = a3 >> 0x10\n   533: u8 [a0 + 0x12] = a4\n   536: a3 = a3 >> 0x8\n   539: u8 [a0 + 0x11] = a3\n   542: a3 = a2 >> 0x38\n   545: u8 [a0 + 0xf] = a3\n   548: a3 = a2 >> 0x30\n   551: u8 [a0 + 0xe] = a3\n   554: a3 = a2 >> 0x28\n   557: u8 [a0 + 0xd] = a3\n   560: a3 = a2 >> 0x20\n   563: u8 [a0 + 0xc] = a3\n   566: a3 = a2 >> 0x18\n   569: u8 [a0 + 0xb] = a3\n   572: a3 = a2 >> 0x10\n   575: u8 [a0 + 0xa] = a3\n   578: a2 = a2 >> 0x8\n   581: u8 [a0 + 0x9] = a2\n   584: a2 = a1 >> 0x38\n   587: u8 [a0 + 0x7] = a2\n   590: a2 = a1 >> 0x30\n   593: u8 [a0 + 0x6] = a2\n   596: a2 = a1 >> 0x28\n   599: u8 [a0 + 0x5] = a2\n   602: a2 = a1 >> 0x20\n   605: u8 [a0 + 0x4] = a2\n   608: a2 = a1 >> 0x18\n   611: u8 [a0 + 0x3] = a2\n   614: a2 = a1 >> 0x10\n   617: u8 [a0 + 0x2] = a2\n   620: a1 = a1 >> 0x8\n   623: u8 [a0 + 0x1] = a1\n   626: ra = u64 [sp + 0x20]\n   629: s0 = u64 [sp + 0x18]\n   632: s1 = u64 [sp + 0x10]\n   635: sp = sp + 0x28\n   638: ret\n      : @11 (gas: 48)\n   640: sp = sp + 0xffffffffffffffa0\n   643: u64 [sp + 0x58] = ra\n   646: u64 [sp + 0x50] = s0\n   649: u64 [sp + 0x48] = s1\n   652: s0 = sp + 0x60\n   655: sp = sp & 0xffffffffffffffe0\n   658: s1 = a0\n   660: a0 = u64 [a1 + 0x18]\n   663: a2 = u64 [a1 + 0x10]\n   666: a3 = u64 [a1 + 0x8]\n   669: a1 = u64 [a1]\n   671: a0 = reverse a0\n   673: a2 = reverse a2\n   675: a3 = reverse a3\n   677: a1 = reverse a1\n   679: u64 [sp + 0x18] = a1\n   682: u64 [sp + 0x10] = a3\n   685: u64 [sp + 0x8] = a2\n   688: u64 [sp] = a0\n   690: u64 [sp + 56] = 0\n   693: u64 [sp + 48] = 0\n   696: u64 [sp + 40] = 0\n   699: u64 [sp + 32] = 0\n   702: u32 [sp + 64] = 0x20\n   706: i32 a1 = sp + 0\n   708: i32 a3 = sp + 0x20\n   711: i32 a4 = sp + 0x40\n   714: a2 = 0xffffffffffffffff\n   717: a0 = 0\n   719: ecalli 9 // 'get_storage'\n   721: a0 = u64 [sp + 0x38]\n   724: a1 = u64 [sp + 0x30]\n   727: a2 = u64 [sp + 0x28]\n   730: a3 = u64 [sp + 0x20]\n   733: a0 = reverse a0\n   735: a1 = reverse a1\n   737: a2 = reverse a2\n   739: a3 = reverse a3\n   741: u64 [s1 + 0x18] = a3\n   744: u64 [s1 + 0x10] = a2\n   747: u64 [s1 + 0x8] = a1\n   750: u64 [s1] = a0\n   752: sp = s0 + 0xffffffffffffffa0\n   755: ra = u64 [sp + 0x58]\n   758: s0 = u64 [sp + 0x50]\n   761: s1 = u64 [sp + 0x48]\n   764: sp = sp + 0x60\n   767: ret\n      : @12 (gas: 40)\n   769: sp = sp + 0xffffffffffffffa0\n   772: u64 [sp + 0x58] = ra\n   775: u64 [sp + 0x50] = s0\n   778: s0 = sp + 0x60\n   781: sp = sp & 0xffffffffffffffe0\n   784: t0 = u64 [a0]\n   786: a3 = u64 [a0 + 0x8]\n   789: a4 = u64 [a0 + 0x10]\n   792: a0 = u64 [a0 + 0x18]\n   795: t1 = u64 [a1]\n   797: a2 = u64 [a1 + 0x8]\n   800: a5 = u64 [a1 + 0x10]\n   803: a1 = u64 [a1 + 0x18]\n   806: t2 = reverse a0\n   808: a4 = reverse a4\n   810: a3 = reverse a3\n   812: a0 = reverse t0\n   814: t0 = reverse a1\n   816: a5 = reverse a5\n   818: a2 = reverse a2\n   820: a1 = reverse t1\n   822: u64 [sp + 0x18] = a0\n   825: u64 [sp + 0x10] = a3\n   828: u64 [sp + 0x8] = a4\n   831: u64 [sp] = t2\n   833: u64 [sp + 0x38] = a1\n   836: u64 [sp + 0x30] = a2\n   839: u64 [sp + 0x28] = a5\n   842: u64 [sp + 0x20] = t0\n   845: i32 a1 = sp + 0\n   847: i32 a3 = sp + 0x20\n   850: a2 = 0xffffffffffffffff\n   853: a4 = 0x20\n   856: a0 = 0\n   858: ecalli 16 // 'set_storage'\n   860: sp = s0 + 0xffffffffffffffa0\n   863: ra = u64 [sp + 0x58]\n   866: s0 = u64 [sp + 0x50]\n   869: sp = sp + 0x60\n   872: ret\n      : @13 (gas: 24)\n   874: sp = sp + 0xffffffffffffff60\n   878: u64 [sp + 0x98] = ra\n   882: u64 [sp + 0x90] = s0\n   886: u64 [sp + 0x88] = s1\n   890: s0 = sp + 0xa0\n   894: sp = sp & 0xffffffffffffffe0\n   897: a4 = u64 [a3]\n   899: u64 [sp + 0x38] = a4\n   902: a4 = u64 [a3 + 0x8]\n   905: u64 [sp + 0x30] = a4\n   908: a4 = u64 [a3 + 0x10]\n   911: u64 [sp + 0x28] = a4\n   914: a3 = u64 [a3 + 0x18]\n   917: u64 [sp + 0x20] = a3\n   920: a3 = u64 [a2]\n   922: u64 [sp + 0x18] = a3\n   925: a3 = u64 [a2 + 0x8]\n   928: u64 [sp + 0x10] = a3\n   931: a3 = u64 [a2 + 0x10]\n   934: u64 [sp + 0x8] = a3\n   937: a2 = u64 [a2 + 0x18]\n   940: u64 [sp] = a2\n   942: s1 = a1\n   944: ra = 6, jump @15\n      : @14 [@dyn 3] (gas: 35)\n   948: a1 = u64 [sp]\n   950: a1 = reverse a1\n   952: a2 = u64 [sp + 0x8]\n   955: a2 = reverse a2\n   957: a3 = u64 [sp + 0x10]\n   960: a3 = reverse a3\n   962: a4 = u64 [sp + 0x18]\n   965: a4 = reverse a4\n   967: u64 [sp + 0x58] = a4\n   970: u64 [sp + 0x50] = a3\n   973: u64 [sp + 0x48] = a2\n   976: u64 [sp + 0x40] = a1\n   979: a1 = u64 [sp + 0x20]\n   982: a1 = reverse a1\n   984: a2 = u64 [sp + 0x28]\n   987: a2 = reverse a2\n   989: a3 = u64 [sp + 0x30]\n   992: a3 = reverse a3\n   994: a4 = u64 [sp + 0x38]\n   997: a4 = reverse a4\n   999: u64 [sp + 0x78] = a4\n  1002: u64 [sp + 0x70] = a3\n  1005: u64 [sp + 0x68] = a2\n  1008: u64 [sp + 0x60] = a1\n  1011: i32 a2 = a0 + 0\n  1013: i32 a3 = s1 + 0\n  1015: i32 a0 = sp + 0x40\n  1018: a1 = 0x2\n  1021: ecalli 7 // 'deposit_event'\n  1023: sp = s0 + 0xffffffffffffff60\n  1027: ra = u64 [sp + 0x98]\n  1031: s0 = u64 [sp + 0x90]\n  1035: s1 = u64 [sp + 0x88]\n  1039: sp = sp + 0xa0\n  1043: ret\n      : @15 (gas: 2)\n  1045: i32 a2 = a0 >> 0x10\n  1048: jump @20 if a2 != 0\n      : @16 (gas: 4)\n  1051: a1 = a1 + a0\n  1054: i32 a1 = a1 + 0x1f\n  1057: a1 = a1 & 0xffffffffffffffe0\n  1060: jump @20 if a1 >u 65536\n      : @17 (gas: 3)\n  1066: a2 = 0x20068\n  1071: a3 = i32 [0x20068]\n  1076: jump @19 if a3 >=u a1\n      : @18 (gas: 2)\n  1079: u32 [0x20068] = a1\n  1084: fallthrough\n      : @19 (gas: 4)\n  1085: a1 = 0x20070\n  1090: i32 a0 = a0 + 0\n  1092: a0 = a0 + a1\n  1095: ret\n      : @20 (gas: 1)\n  1097: trap\n      : @21 (gas: 6)\n  1098: sp = sp + 0xfffffffffffffff0\n  1101: u64 [sp + 0x8] = ra\n  1104: u64 [sp] = s0\n  1106: s0 = a0 & 0x1\n  1109: ecalli 4 // 'call_data_size'\n  1111: fallthrough\n      : @22 (gas: 2)\n  1112: u32 [0x20064] = a0\n  1117: jump @24 if s0 == 0\n      : @23 (gas: 1)\n  1120: ra = 8, jump @25\n      : @24 [@dyn 4] (gas: 1)\n  1124: ra = 10, jump @50\n      : @25 [@dyn 5] (gas: 15)\n  1129: sp = sp + 0xfffffffffffffda0\n  1133: a0 = sp + 0x200\n  1137: u64 [a0 + 0x58] = ra\n  1140: u64 [a0 + 0x50] = s0\n  1143: u64 [a0 + 0x48] = s1\n  1146: s0 = sp + 0x260\n  1150: sp = sp & 0xffffffffffffffe0\n  1153: a0 = sp + 0x200\n  1157: u64 [a0 + 56] = 0\n  1160: u64 [a0 + 48] = 0\n  1163: u64 [a0 + 40] = 0\n  1166: u64 [a0 + 32] = 0\n  1169: i32 a0 = sp + 0x220\n  1173: ecalli 17 // 'value_transferred'\n  1175: fallthrough\n      : @26 (gas: 9)\n  1176: a4 = sp + 0x200\n  1180: a0 = u64 [a4 + 0x30]\n  1183: a1 = u64 [a4 + 0x38]\n  1186: a2 = u64 [a4 + 0x28]\n  1189: a3 = u64 [a4 + 0x20]\n  1192: a1 = a1 | a2\n  1195: a0 = a0 | a3\n  1198: a0 = a0 | a1\n  1201: jump @40 if a0 != 0\n      : @27 (gas: 16)\n  1205: s1 = i32 [0x20064]\n  1210: a0 = s1 << 0x20\n  1213: a0 = a0 >> 0x20\n  1216: a0 = a0 + 0x1f\n  1219: a0 = a0 & 0xffffffffffffffe0\n  1222: a1 = a0 + 0xe0\n  1226: a0 = a1 <u a0\n  1229: a2 = sp + 0x200\n  1233: u64 [a2] = a1\n  1235: u64 [a2 + 0x8] = a0\n  1238: a0 = 0 if a0 != 0\n  1240: u64 [a2 + 0x10] = a0\n  1243: a0 = 0x40\n  1246: a1 = sp + 0x200\n  1250: u64 [a2 + 24] = 0\n  1253: ra = 12, jump @9\n      : @28 [@dyn 6] (gas: 3)\n  1258: a0 = 0xe0\n  1262: a1 = s1\n  1264: ra = 14, jump @15\n      : @29 [@dyn 7] (gas: 5)\n  1269: i32 a0 = a0 + 0\n  1271: a1 = s1\n  1273: a2 = 0\n  1275: ecalli 2 // 'call_data_copy'\n  1277: fallthrough\n      : @30 (gas: 1)\n  1278: jump @41 if s1 <=u 95\n      : @31 (gas: 7)\n  1283: u64 [sp + 472] = 0\n  1287: u64 [sp + 464] = 0\n  1291: u64 [sp + 448] = 0xe0\n  1297: a0 = sp + 0x1e0\n  1301: a1 = sp + 0x1c0\n  1305: u64 [sp + 456] = 0\n  1309: ra = 16, jump @396\n      : @32 [@dyn 8] (gas: 15)\n  1314: a0 = u64 [sp + 0x1e0]\n  1318: u64 [sp + 0x58] = a0\n  1321: a0 = u64 [sp + 0x1e8]\n  1325: u64 [sp + 0x48] = a0\n  1328: a0 = u64 [sp + 0x1f0]\n  1332: u64 [sp + 0x40] = a0\n  1335: a0 = u64 [sp + 0x1f8]\n  1339: u64 [sp + 0x30] = a0\n  1342: u64 [sp + 408] = 0\n  1346: u64 [sp + 400] = 0\n  1350: u64 [sp + 384] = 0x100\n  1356: a0 = sp + 0x1a0\n  1360: a1 = sp + 0x180\n  1364: u64 [sp + 392] = 0\n  1368: ra = 18, jump @396\n      : @33 [@dyn 9] (gas: 15)\n  1373: a0 = u64 [sp + 0x1a0]\n  1377: u64 [sp + 0x50] = a0\n  1380: a0 = u64 [sp + 0x1a8]\n  1384: u64 [sp + 0x28] = a0\n  1387: a0 = u64 [sp + 0x1b0]\n  1391: u64 [sp + 0x20] = a0\n  1394: a0 = u64 [sp + 0x1b8]\n  1398: u64 [sp + 0x18] = a0\n  1401: u64 [sp + 344] = 0\n  1405: u64 [sp + 336] = 0\n  1409: u64 [sp + 320] = 0x120\n  1415: a0 = sp + 0x160\n  1419: a1 = sp + 0x140\n  1423: u64 [sp + 328] = 0\n  1427: ra = 20, jump @396\n      : @34 [@dyn 10] (gas: 18)\n  1432: a0 = u64 [sp + 0x160]\n  1436: u64 [sp + 0x38] = a0\n  1439: a0 = u64 [sp + 0x168]\n  1443: u64 [sp + 0x10] = a0\n  1446: a0 = u64 [sp + 0x170]\n  1450: u64 [sp + 0x8] = a0\n  1453: s1 = u64 [sp + 0x178]\n  1457: a0 = u64 [sp + 0x30]\n  1460: u64 [sp + 0x138] = a0\n  1464: a0 = u64 [sp + 0x40]\n  1467: u64 [sp + 0x130] = a0\n  1471: a0 = u64 [sp + 0x48]\n  1474: u64 [sp + 0x128] = a0\n  1478: a0 = 0x80\n  1482: a1 = sp + 0x120\n  1486: a2 = u64 [sp + 0x58]\n  1489: u64 [sp + 0x120] = a2\n  1493: ra = 22, jump @9\n      : @35 [@dyn 11] (gas: 11)\n  1498: a0 = u64 [sp + 0x18]\n  1501: u64 [sp + 0x118] = a0\n  1505: a0 = u64 [sp + 0x20]\n  1508: u64 [sp + 0x110] = a0\n  1512: a0 = u64 [sp + 0x28]\n  1515: u64 [sp + 0x108] = a0\n  1519: a0 = 0xa0\n  1523: a1 = sp + 0x100\n  1527: a2 = u64 [sp + 0x50]\n  1530: u64 [sp + 0x100] = a2\n  1534: ra = 24, jump @9\n      : @36 [@dyn 12] (gas: 10)\n  1539: u64 [sp + 0xf8] = s1\n  1543: a0 = u64 [sp + 0x8]\n  1546: u64 [sp + 0xf0] = a0\n  1550: a0 = u64 [sp + 0x10]\n  1553: u64 [sp + 0xe8] = a0\n  1557: a0 = 0xc0\n  1561: a1 = sp + 0xe0\n  1565: a2 = u64 [sp + 0x38]\n  1568: u64 [sp + 0xe0] = a2\n  1572: ra = 26, jump @9\n      : @37 [@dyn 13] (gas: 3)\n  1577: a0 = sp + 0xc0\n  1581: a1 = 0x40\n  1584: ra = 28, jump @7\n      : @38 [@dyn 14] (gas: 12)\n  1589: a0 = u64 [sp + 0xd8]\n  1593: a1 = u64 [sp + 0xd0]\n  1597: a2 = u64 [sp + 0xc8]\n  1601: s1 = u64 [sp + 0xc0]\n  1605: a0 = a0 | a2\n  1608: a2 = s1 | a1\n  1611: a2 = a2 | a0\n  1614: a2 = a2 >> 0x20\n  1617: a0 = a0 | a1\n  1620: a0 = a0 << 0x20\n  1623: a0 = a0 | a2\n  1626: jump @42 if a0 == 0\n      : @39 (gas: 1)\n  1629: trap\n      : @40 (gas: 4)\n  1630: a1 = 0x20070\n  1635: i32 a1 = a1 + 0\n  1637: a0 = 0x1\n  1640: jump @49\n      : @41 (gas: 4)\n  1643: a1 = 0x20070\n  1648: i32 a1 = a1 + 0\n  1650: a0 = 0x1\n  1653: jump @49\n      : @42 (gas: 3)\n  1656: a0 = s1\n  1658: a1 = 0\n  1660: ra = 30, jump @15\n      : @43 [@dyn 15] (gas: 7)\n  1665: i32 a0 = a0 + 0\n  1667: a1 = 0\n  1669: a2 = 0\n  1671: ecalli 2 // 'call_data_copy'\n  1673: a0 = sp + 0xa0\n  1677: a1 = 0x80\n  1681: ra = 32, jump @7\n      : @44 [@dyn 16] (gas: 13)\n  1686: a0 = u64 [sp + 0xb8]\n  1690: a4 = 0x30090\n  1695: u64 [sp + 0x58] = a4\n  1698: a1 = u64 [sp + 0xb0]\n  1702: a2 = u64 [sp + 0xa8]\n  1706: a3 = u64 [sp + 0xa0]\n  1710: u64 [0x300a8] = a0\n  1715: u64 [0x300a0] = a1\n  1720: u64 [0x30098] = a2\n  1725: u64 [0x30090] = a3\n  1730: a0 = sp + 0x80\n  1734: a1 = 0xa0\n  1738: ra = 34, jump @7\n      : @45 [@dyn 17] (gas: 12)\n  1743: a0 = u64 [sp + 0x98]\n  1747: a1 = u64 [sp + 0x90]\n  1751: a2 = u64 [sp + 0x88]\n  1755: a3 = u64 [sp + 0x80]\n  1759: a4 = u64 [sp + 0x58]\n  1762: u64 [a4 + 0x38] = a0\n  1765: u64 [a4 + 0x30] = a1\n  1768: u64 [a4 + 0x28] = a2\n  1771: u64 [a4 + 0x20] = a3\n  1774: a0 = sp + 0x60\n  1777: a1 = 0xc0\n  1781: ra = 36, jump @7\n      : @46 [@dyn 18] (gas: 10)\n  1786: a0 = u64 [sp + 0x78]\n  1789: a1 = u64 [sp + 0x70]\n  1792: a2 = u64 [sp + 0x68]\n  1795: a3 = u64 [sp + 0x60]\n  1798: a4 = u64 [sp + 0x58]\n  1801: u64 [a4 + 0x58] = a0\n  1804: u64 [a4 + 0x50] = a1\n  1807: u64 [a4 + 0x48] = a2\n  1810: u64 [a4 + 0x40] = a3\n  1813: jump @5\n      : @47 (gas: 3)\n  1816: a0 = s1\n  1818: a1 = 0\n  1820: ra = 38, jump @15\n      : @48 [@dyn 19] (gas: 6)\n  1825: i32 a1 = a0 + 0\n  1827: a0 = 0\n  1829: a2 = 0\n  1831: ra = 0x28\n  1834: ecalli 14 // 'seal_return'\n  1836: jump @50\n      : @49 (gas: 4)\n  1838: a2 = 0\n  1840: ra = 0x28\n  1843: ecalli 14 // 'seal_return'\n  1845: fallthrough\n      : @50 [@dyn 20] (gas: 19)\n  1846: sp = sp + 0xfffffffffffff808\n  1850: a0 = sp + 0x700\n  1854: u64 [a0 + 0xf0] = ra\n  1858: u64 [a0 + 0xe8] = s0\n  1862: u64 [a0 + 0xe0] = s1\n  1866: s0 = sp + 0x7f8\n  1870: sp = sp + 0xfffffffffffff838\n  1874: sp = sp & 0xffffffffffffffe0\n  1877: s1 = sp\n  1879: a2 = s1 + 0x7ff\n  1883: a2 = a2 + 0x31\n  1886: u64 [a2 + 808] = 0\n  1890: u64 [a2 + 800] = 0\n  1894: u64 [a2 + 784] = 0x80\n  1900: a0 = 0x40\n  1903: a1 = s1 + 0x7ff\n  1907: a1 = a1 + 0x341\n  1911: u64 [a2 + 792] = 0\n  1915: ra = 42, jump @9\n      : @51 [@dyn 21] (gas: 4)\n  1920: a0 = 0x20064\n  1925: u64 [s1 + 0xb8] = a0\n  1929: a0 = i32 [0x20064]\n  1934: jump @53 if a0 >=u 4\n      : @52 (gas: 1)\n  1938: jump @354\n      : @53 (gas: 6)\n  1941: a0 = s1 + 0x1000\n  1945: i32 a0 = a0 + 0xfffffffffffffb60\n  1949: a1 = 0\n  1951: ra = 0x2c\n  1954: ecalli 3 // 'call_data_load'\n  1956: fallthrough\n      : @54 [@dyn 22] (gas: 4)\n  1957: a2 = s1 + 0x7ff\n  1961: a2 = a2 + 0x31\n  1964: a0 = i32 [a2 + 0x34c]\n  1968: jump @56 if a0 != 2205082048\n      : @55 (gas: 1)\n  1975: jump @284\n      : @56 (gas: 1)\n  1978: jump @121 if a0 == 2376576291\n      : @57 (gas: 1)\n  1986: jump @59 if a0 != 2915661614\n      : @58 (gas: 1)\n  1993: jump @228\n      : @59 (gas: 1)\n  1996: jump @153 if a0 == 3265688288\n      : @60 (gas: 1)\n  2004: jump @82 if a0 == 3283548473\n      : @61 (gas: 1)\n  2012: jump @110 if a0 == 4142735383\n      : @62 (gas: 1)\n  2020: jump @93 if a0 == 925171883\n      : @63 (gas: 1)\n  2028: jump @139 if a0 != 1302766934\n      : @64 (gas: 10)\n  2036: u64 [a2 + 904] = 0\n  2040: u64 [a2 + 896] = 0\n  2044: u64 [a2 + 888] = 0\n  2048: u64 [a2 + 880] = 0\n  2052: a0 = s1 + 0x1000\n  2056: i32 a0 = a0 + 0xfffffffffffffba0\n  2060: ra = 0x2e\n  2063: ecalli 17 // 'value_transferred'\n  2065: t0 = 0x30\n  2068: jump @487\n      : @65 [@dyn 23] (gas: 1)\n  2071: t0 = 48, jump @487\n      : @66 [@dyn 24] (gas: 8)\n  2076: a0 = u64 [a4 + 0x80]\n  2080: a1 = u64 [a4 + 0x88]\n  2084: a2 = u64 [a4 + 0x78]\n  2087: a3 = u64 [a4 + 0x70]\n  2090: a1 = a1 | a2\n  2093: a0 = a0 | a3\n  2096: a0 = a0 | a1\n  2099: jump @68 if a0 == 0\n      : @67 (gas: 1)\n  2102: jump @343\n      : @68 (gas: 3)\n  2105: a0 = u64 [s1 + 0xb8]\n  2109: a0 = i32 [a0]\n  2111: jump @70 if a0 >u 35\n      : @69 (gas: 1)\n  2115: jump @344\n      : @70 (gas: 2)\n  2118: a0 = s1 + 0x1e0\n  2122: ra = 50, jump @404\n      : @71 [@dyn 25] (gas: 11)\n  2127: a3 = s1 + 0x100\n  2131: a0 = u64 [a3 + 0xe0]\n  2135: a1 = u64 [a3 + 0xe8]\n  2139: a2 = u32 [s1 + 0x1f0]\n  2143: u64 [s1 + 472] = 0\n  2147: u64 [a3 + 0xd0] = a2\n  2151: u64 [a3 + 0xc8] = a1\n  2155: a1 = s1 + 0x1c0\n  2159: u64 [a3 + 0xc0] = a0\n  2163: a0 = 0\n  2165: ra = 52, jump @9\n      : @72 [@dyn 26] (gas: 7)\n  2170: u64 [s1 + 440] = 0\n  2174: u64 [s1 + 432] = 0\n  2178: u64 [s1 + 424] = 0\n  2182: a0 = 0x20\n  2185: a1 = s1 + 0x1a0\n  2189: u64 [s1 + 416] = 0\n  2193: ra = 54, jump @9\n      : @73 [@dyn 27] (gas: 2)\n  2198: a1 = i32 [0x20068]\n  2203: jump @75 if a1 >u 63\n      : @74 (gas: 2)\n  2207: u32 [0x20068] = 0x40\n  2213: fallthrough\n      : @75 (gas: 12)\n  2214: a0 = sp + 0xffffffffffffffe0\n  2217: a2 = a0 & 0xffffffffffffffe0\n  2220: u64 [s1 + 0xb8] = a2\n  2224: sp = a2\n  2226: a0 = 0x20070\n  2231: i32 a0 = a0 + 0\n  2233: i32 a2 = a2 + 0\n  2235: a1 = 0x40\n  2238: ra = 0x38\n  2241: ecalli 10 // 'hash_keccak_256'\n  2243: t0 = 0x3a\n  2246: jump @479\n      : @76 [@dyn 28] (gas: 1)\n  2249: t0 = 58, jump @479\n      : @77 [@dyn 29] (gas: 9)\n  2254: a5 = a4 + 0x300\n  2258: u64 [a5 + 0xa8] = a3\n  2262: u64 [a5 + 0xa0] = a2\n  2266: u64 [a5 + 0x98] = a1\n  2270: u64 [a5 + 0x90] = a0\n  2274: a0 = s1 + 0x180\n  2278: a1 = s1 + 0x7ff\n  2282: a1 = a1 + 0x3c1\n  2286: ra = 60, jump @11\n      : @78 [@dyn 30] (gas: 11)\n  2291: a0 = u64 [s1 + 0x198]\n  2295: u64 [s1 + 0xb8] = a0\n  2299: a0 = u64 [s1 + 0x190]\n  2303: u64 [s1 + 0xb0] = a0\n  2307: a0 = u64 [s1 + 0x188]\n  2311: u64 [s1 + 0xa8] = a0\n  2315: a0 = u64 [s1 + 0x180]\n  2319: u64 [s1 + 0xa0] = a0\n  2323: a0 = s1 + 0x160\n  2327: a1 = 0x40\n  2330: ra = 62, jump @7\n      : @79 [@dyn 31] (gas: 13)\n  2335: a4 = s1 + 0x100\n  2339: a0 = u64 [a4 + 0x78]\n  2342: a1 = u64 [a4 + 0x70]\n  2345: a2 = u64 [a4 + 0x68]\n  2348: a3 = u64 [a4 + 0x60]\n  2351: a0 = a0 | a2\n  2354: a2 = a3 | a1\n  2357: a2 = a2 | a0\n  2360: a2 = a2 >> 0x20\n  2363: a0 = a0 | a1\n  2366: a0 = a0 << 0x20\n  2369: a0 = a0 | a2\n  2372: jump @81 if a0 == 0\n      : @80 (gas: 1)\n  2375: jump @292\n      : @81 (gas: 14)\n  2378: a0 = u64 [s1 + 0xa0]\n  2382: a2 = s1 + 0x100\n  2386: u64 [a2 + 0x40] = a0\n  2389: a0 = u64 [s1 + 0xa8]\n  2393: u64 [a2 + 0x48] = a0\n  2396: a0 = u64 [s1 + 0xb0]\n  2400: u64 [a2 + 0x50] = a0\n  2403: a1 = s1 + 0x140\n  2407: a0 = u64 [s1 + 0xb8]\n  2411: u64 [a2 + 0x58] = a0\n  2414: a0 = a3\n  2416: u64 [s1 + 0xb8] = a3\n  2420: ra = 0x6c\n  2423: jump @9\n      : @82 (gas: 8)\n  2426: u64 [a2 + 1864] = 0\n  2430: u64 [a2 + 1856] = 0\n  2434: u64 [a2 + 1848] = 0\n  2438: u64 [a2 + 1840] = 0\n  2442: a0 = s1 + 0x1000\n  2446: i32 a0 = a0 + 0xffffffffffffff60\n  2450: ecalli 17 // 'value_transferred'\n  2452: fallthrough\n      : @83 (gas: 11)\n  2453: a3 = s1 + 0x7ff\n  2457: a3 = a3 + 0x31\n  2460: a4 = a3 + 0x700\n  2464: a0 = u64 [a4 + 0x40]\n  2467: a1 = u64 [a4 + 0x48]\n  2470: a2 = u64 [a4 + 0x38]\n  2473: a3 = u64 [a4 + 0x30]\n  2476: a1 = a1 | a2\n  2479: a0 = a0 | a3\n  2482: a0 = a0 | a1\n  2485: jump @85 if a0 == 0\n      : @84 (gas: 1)\n  2488: jump @341\n      : @85 (gas: 3)\n  2491: a0 = u64 [s1 + 0xb8]\n  2495: a0 = i32 [a0]\n  2497: jump @87 if a0 >u 3\n      : @86 (gas: 1)\n  2501: jump @341\n      : @87 (gas: 4)\n  2504: a0 = s1 + 0x7ff\n  2508: a0 = a0 + 0x2c1\n  2512: a1 = 0x40\n  2515: ra = 64, jump @7\n      : @88 [@dyn 32] (gas: 12)\n  2520: a0 = s1 + 0x7ff\n  2524: a0 = a0 + 0x31\n  2527: a2 = a0 + 0x200\n  2531: a1 = u64 [a2 + 0xa8]\n  2535: u64 [s1 + 0xb8] = a1\n  2539: a1 = u64 [a2 + 0xa0]\n  2543: u64 [s1 + 0xb0] = a1\n  2547: a1 = u64 [a2 + 0x98]\n  2551: u64 [s1 + 0xa0] = a1\n  2555: a0 = u64 [a2 + 0x90]\n  2559: u64 [s1 + 0xa8] = a0\n  2563: ra = 66, jump @0\n      : @89 [@dyn 33] (gas: 1)\n  2568: t0 = 68, jump @477\n      : @90 [@dyn 34] (gas: 1)\n  2573: jump @92 if a0 == 0\n      : @91 (gas: 1)\n  2576: jump @292\n      : @92 (gas: 15)\n  2579: a2 = u64 [0x30090]\n  2584: a1 = u64 [0x30098]\n  2589: a0 = u32 [0x300a0]\n  2594: a4 = s1 + 0x7ff\n  2598: a4 = a4 + 0x31\n  2601: u64 [a4 + 648] = 0\n  2605: a5 = a4 + 0x200\n  2609: u64 [a5 + 0x80] = a0\n  2613: u64 [a5 + 0x78] = a1\n  2616: a1 = s1 + 0x7ff\n  2620: a1 = a1 + 0x2a1\n  2624: u64 [a5 + 0x70] = a2\n  2627: a0 = a3\n  2629: ra = 0x14c\n  2633: jump @9\n      : @93 (gas: 10)\n  2636: u64 [a2 + 872] = 0\n  2640: u64 [a2 + 864] = 0\n  2644: u64 [a2 + 856] = 0\n  2648: u64 [a2 + 848] = 0\n  2652: a0 = s1 + 0x1000\n  2656: i32 a0 = a0 + 0xfffffffffffffb80\n  2660: ra = 0x46\n  2663: ecalli 17 // 'value_transferred'\n  2665: t0 = 0x48\n  2668: jump @487\n      : @94 [@dyn 35] (gas: 1)\n  2671: t0 = 72, jump @487\n      : @95 [@dyn 36] (gas: 1)\n  2676: t0 = 74, jump @486\n      : @96 [@dyn 37] (gas: 1)\n  2681: jump @98 if a0 == 0\n      : @97 (gas: 1)\n  2684: jump @345\n      : @98 (gas: 4)\n  2687: a0 = u64 [s1 + 0xb8]\n  2691: a0 = i32 [a0]\n  2693: a1 = 0x3\n  2696: jump @100 if a1 <u a0\n      : @99 (gas: 1)\n  2699: jump @346\n      : @100 (gas: 1)\n  2702: ra = 76, jump @0\n      : @101 [@dyn 38] (gas: 14)\n  2707: a1 = u64 [0x300d8]\n  2712: u64 [s1 + 0xb8] = a1\n  2716: a1 = u64 [0x300d0]\n  2721: u64 [s1 + 0xb0] = a1\n  2725: a0 = u32 [0x300e0]\n  2730: u64 [s1 + 0xa8] = a0\n  2734: a0 = 0x30070\n  2739: u64 [s1 + 0xa0] = a0\n  2743: i32 a0 = a0 + 0\n  2745: ra = 0x4e\n  2748: ecalli 5 // 'caller'\n  2750: a2 = u64 [s1 + 0xa0]\n  2754: t0 = 0x50\n  2757: jump @478\n      : @102 [@dyn 39] (gas: 2)\n  2760: a2 = u64 [s1 + 0xa0]\n  2764: t0 = 80, jump @478\n      : @103 [@dyn 40] (gas: 9)\n  2769: a2 = u64 [s1 + 0xa8]\n  2773: a1 = a1 ^ a2\n  2776: a2 = u64 [s1 + 0xb0]\n  2780: a0 = a0 ^ a2\n  2783: a0 = a0 | a1\n  2786: a1 = u64 [s1 + 0xb8]\n  2790: a1 = a1 ^ a3\n  2793: a0 = a0 | a1\n  2796: jump @105 if a0 == 0\n      : @104 (gas: 1)\n  2799: jump @347\n      : @105 (gas: 2)\n  2802: a0 = s1 + 0x100\n  2806: ra = 82, jump @419\n      : @106 [@dyn 41] (gas: 3)\n  2811: a0 = s1 + 0xe0\n  2815: a1 = 0x40\n  2818: ra = 84, jump @7\n      : @107 [@dyn 42] (gas: 12)\n  2823: a3 = u64 [s1 + 0xf8]\n  2827: a1 = u64 [s1 + 0xf0]\n  2831: a2 = u64 [s1 + 0xe8]\n  2835: a0 = u64 [s1 + 0xe0]\n  2839: a3 = a3 | a2\n  2842: a2 = a0 | a1\n  2845: a2 = a2 | a3\n  2848: a2 = a2 >> 0x20\n  2851: a1 = a1 | a3\n  2854: a1 = a1 << 0x20\n  2857: a1 = a1 | a2\n  2860: jump @109 if a1 == 0\n      : @108 (gas: 1)\n  2863: jump @292\n      : @109 (gas: 8)\n  2866: u64 [s1 + 216] = 0\n  2870: u64 [s1 + 208] = 0\n  2874: u64 [s1 + 200] = 0\n  2878: a1 = s1 + 0xc0\n  2882: u64 [s1 + 192] = 0\n  2886: u64 [s1 + 0xb8] = a0\n  2890: ra = 0x6c\n  2893: jump @9\n      : @110 (gas: 9)\n  2896: u64 [a2 + 1896] = 0\n  2900: u64 [a2 + 1888] = 0\n  2904: u64 [a2 + 1880] = 0\n  2908: u64 [a2 + 1872] = 0\n  2912: a0 = s1 + 0x1000\n  2916: i32 a0 = a0 + 0xffffffffffffff80\n  2919: ra = 0x56\n  2922: ecalli 17 // 'value_transferred'\n  2924: fallthrough\n      : @111 [@dyn 43] (gas: 4)\n  2925: a3 = s1 + 0x7ff\n  2929: a3 = a3 + 0x31\n  2932: a4 = a3 + 0x700\n  2936: t0 = 88, jump @486\n      : @112 [@dyn 44] (gas: 1)\n  2941: jump @114 if a0 == 0\n      : @113 (gas: 1)\n  2944: jump @341\n      : @114 (gas: 3)\n  2947: a0 = u64 [s1 + 0xb8]\n  2951: a0 = i32 [a0]\n  2953: jump @116 if a0 >u 35\n      : @115 (gas: 1)\n  2957: jump @341\n      : @116 (gas: 3)\n  2960: a0 = s1 + 0x7ff\n  2964: a0 = a0 + 0x321\n  2968: ra = 90, jump @404\n      : @117 [@dyn 45] (gas: 4)\n  2973: a0 = s1 + 0x7ff\n  2977: a0 = a0 + 0x301\n  2981: a1 = 0x40\n  2984: ra = 92, jump @7\n      : @118 [@dyn 46] (gas: 15)\n  2989: a3 = s1 + 0x7ff\n  2993: a3 = a3 + 0x31\n  2996: a5 = a3 + 0x200\n  3000: a4 = u64 [a5 + 0xe8]\n  3004: a1 = u64 [a5 + 0xe0]\n  3008: a2 = u64 [a5 + 0xd8]\n  3012: a0 = u64 [a5 + 0xd0]\n  3016: a4 = a4 | a2\n  3019: a2 = a0 | a1\n  3022: a2 = a2 | a4\n  3025: a2 = a2 >> 0x20\n  3028: a1 = a1 | a4\n  3031: a1 = a1 << 0x20\n  3034: a1 = a1 | a2\n  3037: jump @120 if a1 == 0\n      : @119 (gas: 1)\n  3040: jump @292\n      : @120 (gas: 9)\n  3043: u64 [a3 + 712] = 0\n  3047: u64 [a3 + 704] = 0\n  3051: u64 [a3 + 696] = 0\n  3055: a1 = s1 + 0x7ff\n  3059: a1 = a1 + 0x2e1\n  3063: u64 [a3 + 688] = 0\n  3067: u64 [s1 + 0xb8] = a0\n  3071: ra = 0x6c\n  3074: jump @9\n      : @121 (gas: 8)\n  3077: u64 [a2 + 1032] = 0\n  3081: u64 [a2 + 1024] = 0\n  3085: u64 [a2 + 1016] = 0\n  3089: u64 [a2 + 1008] = 0\n  3093: a0 = s1 + 0x1000\n  3097: i32 a0 = a0 + 0xfffffffffffffc20\n  3101: ecalli 17 // 'value_transferred'\n  3103: fallthrough\n      : @122 (gas: 10)\n  3104: a3 = s1 + 0x7ff\n  3108: a3 = a3 + 0x31\n  3111: a0 = u64 [a3 + 0x400]\n  3115: a1 = u64 [a3 + 0x408]\n  3119: a2 = u64 [a3 + 0x3f8]\n  3123: a3 = u64 [a3 + 0x3f0]\n  3127: a1 = a1 | a2\n  3130: a0 = a0 | a3\n  3133: a0 = a0 | a1\n  3136: jump @124 if a0 == 0\n      : @123 (gas: 1)\n  3139: jump @351\n      : @124 (gas: 3)\n  3142: a0 = u64 [s1 + 0xb8]\n  3146: a0 = i32 [a0]\n  3148: jump @126 if a0 >u 35\n      : @125 (gas: 1)\n  3152: jump @352\n      : @126 (gas: 2)\n  3155: a0 = s1 + 0x320\n  3159: ra = 94, jump @404\n      : @127 [@dyn 47] (gas: 11)\n  3164: a3 = s1 + 0x300\n  3168: a0 = u64 [a3 + 0x20]\n  3171: a1 = u64 [a3 + 0x28]\n  3174: a2 = u32 [s1 + 0x330]\n  3178: u64 [s1 + 792] = 0\n  3182: u64 [a3 + 0x10] = a2\n  3185: u64 [a3 + 0x8] = a1\n  3188: a1 = s1 + 0x300\n  3192: u64 [a3] = a0\n  3194: a0 = 0\n  3196: ra = 96, jump @9\n      : @128 [@dyn 48] (gas: 7)\n  3201: u64 [s1 + 760] = 0\n  3205: u64 [s1 + 752] = 0\n  3209: u64 [s1 + 744] = 0\n  3213: a0 = 0x20\n  3216: a1 = s1 + 0x2e0\n  3220: u64 [s1 + 736] = 0\n  3224: ra = 98, jump @9\n      : @129 [@dyn 49] (gas: 2)\n  3229: a1 = i32 [0x20068]\n  3234: jump @131 if a1 >u 63\n      : @130 (gas: 2)\n  3238: u32 [0x20068] = 0x40\n  3244: fallthrough\n      : @131 (gas: 12)\n  3245: a0 = sp + 0xffffffffffffffe0\n  3248: a2 = a0 & 0xffffffffffffffe0\n  3251: u64 [s1 + 0xb8] = a2\n  3255: sp = a2\n  3257: a0 = 0x20070\n  3262: i32 a0 = a0 + 0\n  3264: i32 a2 = a2 + 0\n  3266: a1 = 0x40\n  3269: ra = 0x64\n  3272: ecalli 10 // 'hash_keccak_256'\n  3274: t0 = 0x66\n  3277: jump @479\n      : @132 [@dyn 50] (gas: 1)\n  3280: t0 = 102, jump @479\n      : @133 [@dyn 51] (gas: 9)\n  3285: a5 = a4 + 0x400\n  3289: u64 [a5 + 0x28] = a3\n  3292: u64 [a5 + 0x20] = a2\n  3295: u64 [a5 + 0x18] = a1\n  3298: u64 [a5 + 0x10] = a0\n  3301: a0 = s1 + 0x2c0\n  3305: a1 = s1 + 0x7ff\n  3309: a1 = a1 + 0x441\n  3313: ra = 104, jump @11\n      : @134 [@dyn 52] (gas: 11)\n  3318: a0 = u64 [s1 + 0x2d8]\n  3322: u64 [s1 + 0xb8] = a0\n  3326: a0 = u64 [s1 + 0x2d0]\n  3330: u64 [s1 + 0xb0] = a0\n  3334: a0 = u64 [s1 + 0x2c8]\n  3338: u64 [s1 + 0xa8] = a0\n  3342: a0 = u64 [s1 + 0x2c0]\n  3346: u64 [s1 + 0xa0] = a0\n  3350: a0 = s1 + 0x2a0\n  3354: a1 = 0x40\n  3357: ra = 106, jump @7\n      : @135 [@dyn 53] (gas: 13)\n  3362: a4 = s1 + 0x200\n  3366: a0 = u64 [a4 + 0xb8]\n  3370: a1 = u64 [a4 + 0xb0]\n  3374: a2 = u64 [a4 + 0xa8]\n  3378: a3 = u64 [a4 + 0xa0]\n  3382: a0 = a0 | a2\n  3385: a2 = a3 | a1\n  3388: a2 = a2 | a0\n  3391: a2 = a2 >> 0x20\n  3394: a0 = a0 | a1\n  3397: a0 = a0 << 0x20\n  3400: a0 = a0 | a2\n  3403: jump @137 if a0 == 0\n      : @136 (gas: 1)\n  3406: jump @292\n      : @137 (gas: 13)\n  3409: a0 = u64 [s1 + 0xa0]\n  3413: a2 = s1 + 0x200\n  3417: u64 [a2 + 0x80] = a0\n  3421: a0 = u64 [s1 + 0xa8]\n  3425: u64 [a2 + 0x88] = a0\n  3429: a0 = u64 [s1 + 0xb0]\n  3433: u64 [a2 + 0x90] = a0\n  3437: a1 = s1 + 0x280\n  3441: a0 = u64 [s1 + 0xb8]\n  3445: u64 [a2 + 0x98] = a0\n  3449: a0 = a3\n  3451: u64 [s1 + 0xb8] = a3\n  3455: ra = 108, jump @9\n      : @138 [@dyn 54] (gas: 4)\n  3460: a1 = 0x20\n  3463: a0 = u64 [s1 + 0xb8]\n  3467: ra = 0x14e\n  3471: jump @15\n      : @139 (gas: 1)\n  3474: jump @141 if a0 == 1608758631\n      : @140 (gas: 1)\n  3481: jump @353\n      : @141 (gas: 10)\n  3484: u64 [a2 + 968] = 0\n  3488: u64 [a2 + 960] = 0\n  3492: u64 [a2 + 952] = 0\n  3496: u64 [a2 + 944] = 0\n  3500: a0 = s1 + 0x1000\n  3504: i32 a0 = a0 + 0xfffffffffffffbe0\n  3508: ra = 0x6e\n  3511: ecalli 17 // 'value_transferred'\n  3513: t0 = 0x70\n  3516: jump @487\n      : @142 [@dyn 55] (gas: 1)\n  3519: t0 = 112, jump @487\n      : @143 [@dyn 56] (gas: 8)\n  3524: a0 = u64 [a4 + 0xc0]\n  3528: a1 = u64 [a4 + 0xc8]\n  3532: a2 = u64 [a4 + 0xb8]\n  3536: a3 = u64 [a4 + 0xb0]\n  3540: a1 = a1 | a2\n  3543: a0 = a0 | a3\n  3546: a0 = a0 | a1\n  3549: jump @145 if a0 == 0\n      : @144 (gas: 1)\n  3552: jump @358\n      : @145 (gas: 3)\n  3555: a0 = u64 [s1 + 0xb8]\n  3559: a0 = i32 [a0]\n  3561: jump @147 if a0 >u 3\n      : @146 (gas: 1)\n  3565: jump @359\n      : @147 (gas: 3)\n  3568: a0 = s1 + 0x220\n  3572: a1 = 0x40\n  3575: ra = 114, jump @7\n      : @148 [@dyn 57] (gas: 10)\n  3580: a1 = s1 + 0x200\n  3584: a0 = u64 [a1 + 0x38]\n  3587: u64 [s1 + 0xb8] = a0\n  3591: a0 = u64 [a1 + 0x30]\n  3594: u64 [s1 + 0xb0] = a0\n  3598: a0 = u64 [a1 + 0x28]\n  3601: u64 [s1 + 0xa0] = a0\n  3605: a0 = u64 [a1 + 0x20]\n  3608: u64 [s1 + 0xa8] = a0\n  3612: ra = 116, jump @0\n      : @149 [@dyn 58] (gas: 1)\n  3617: t0 = 118, jump @477\n      : @150 [@dyn 59] (gas: 1)\n  3622: jump @152 if a0 == 0\n      : @151 (gas: 1)\n  3625: jump @292\n      : @152 (gas: 12)\n  3628: a2 = u64 [0x300b0]\n  3633: a1 = u64 [0x300b8]\n  3638: a0 = u32 [0x300c0]\n  3643: u64 [s1 + 536] = 0\n  3647: a4 = s1 + 0x200\n  3651: u64 [a4 + 0x10] = a0\n  3654: u64 [a4 + 0x8] = a1\n  3657: a1 = s1 + 0x200\n  3661: u64 [a4] = a2\n  3663: a0 = a3\n  3665: ra = 0x14c\n  3669: jump @9\n      : @153 (gas: 8)\n  3672: u64 [a2 + 1416] = 0\n  3676: u64 [a2 + 1408] = 0\n  3680: u64 [a2 + 1400] = 0\n  3684: u64 [a2 + 1392] = 0\n  3688: a0 = s1 + 0x1000\n  3692: i32 a0 = a0 + 0xfffffffffffffda0\n  3696: ecalli 17 // 'value_transferred'\n  3698: fallthrough\n      : @154 (gas: 11)\n  3699: a3 = s1 + 0x7ff\n  3703: a3 = a3 + 0x31\n  3706: a4 = a3 + 0x500\n  3710: a0 = u64 [a4 + 0x80]\n  3714: a1 = u64 [a4 + 0x88]\n  3718: a2 = u64 [a4 + 0x78]\n  3721: a3 = u64 [a4 + 0x70]\n  3724: a1 = a1 | a2\n  3727: a0 = a0 | a3\n  3730: a0 = a0 | a1\n  3733: jump @156 if a0 == 0\n      : @155 (gas: 1)\n  3736: jump @341\n      : @156 (gas: 3)\n  3739: a0 = u64 [s1 + 0xb8]\n  3743: a0 = i32 [a0]\n  3745: jump @158 if a0 >u 67\n      : @157 (gas: 1)\n  3749: jump @341\n      : @158 (gas: 3)\n  3752: a0 = s1 + 0x7ff\n  3756: a0 = a0 + 0x281\n  3760: ra = 120, jump @404\n      : @159 [@dyn 60] (gas: 25)\n  3765: a1 = s1 + 0x7ff\n  3769: a1 = a1 + 0x31\n  3772: a2 = a1 + 0x200\n  3776: a0 = u64 [a2 + 0x60]\n  3779: u64 [s1 + 0x48] = a0\n  3782: a0 = u64 [a2 + 0x58]\n  3785: u64 [s1 + 0x68] = a0\n  3788: a0 = u64 [a2 + 0x50]\n  3791: u64 [s1 + 0x70] = a0\n  3794: a0 = s1 + 0x1000\n  3798: i32 a0 = a0 + 0xfffffffffffffdc0\n  3802: a1 = 0x24\n  3805: ecalli 3 // 'call_data_load'\n  3807: a1 = s1 + 0x7ff\n  3811: a1 = a1 + 0x31\n  3814: a2 = a1 + 0x500\n  3818: a0 = u64 [a2 + 0xa8]\n  3822: u64 [s1 + 0xa8] = a0\n  3826: a0 = u64 [a2 + 0xa0]\n  3830: u64 [s1 + 0xa0] = a0\n  3834: a0 = u64 [a2 + 0x98]\n  3838: u64 [s1 + 0x98] = a0\n  3842: a0 = u64 [a2 + 0x90]\n  3846: u64 [s1 + 0xb0] = a0\n  3850: ra = 122, jump @0\n      : @160 [@dyn 61] (gas: 14)\n  3855: a0 = 0x30090\n  3860: a1 = u64 [0x300d8]\n  3865: u64 [s1 + 0x88] = a1\n  3869: a1 = u64 [0x300d0]\n  3874: u64 [s1 + 0x80] = a1\n  3878: u64 [s1 + 0x90] = a0\n  3882: a0 = u32 [0x300e0]\n  3887: u64 [s1 + 0x78] = a0\n  3890: a0 = 0x30070\n  3895: u64 [s1 + 0xb8] = a0\n  3899: i32 a0 = a0 + 0\n  3901: u64 [s1 + 0x28] = a0\n  3904: ecalli 5 // 'caller'\n  3906: fallthrough\n      : @161 (gas: 23)\n  3907: a0 = u64 [s1 + 0xb8]\n  3911: t0 = u64 [a0 + 0x8]\n  3914: a4 = u64 [a0]\n  3916: a5 = u32 [a0 + 0x10]\n  3919: a0 = reverse t0\n  3921: a1 = a0 >> 0x20\n  3924: a2 = reverse a4\n  3926: a3 = a2 << 0x20\n  3929: a1 = a1 | a3\n  3932: a0 = a0 << 0x20\n  3935: a3 = reverse a5\n  3937: a3 = a3 >> 0x20\n  3940: a0 = a0 | a3\n  3943: a2 = a2 >> 0x20\n  3946: a3 = u64 [s1 + 0x78]\n  3949: a2 = a2 ^ a3\n  3952: a3 = u64 [s1 + 0x80]\n  3956: a0 = a0 ^ a3\n  3959: a0 = a0 | a2\n  3962: a2 = u64 [s1 + 0x88]\n  3966: a1 = a1 ^ a2\n  3969: a0 = a0 | a1\n  3972: jump @163 if a0 == 0\n      : @162 (gas: 1)\n  3975: jump @360\n      : @163 (gas: 11)\n  3978: u64 [s1 + 0x50] = a5\n  3981: u64 [s1 + 0x58] = t0\n  3984: u64 [s1 + 0x60] = a4\n  3987: a0 = u64 [s1 + 0xa0]\n  3991: a1 = u64 [s1 + 0xb0]\n  3995: a0 = a0 | a1\n  3998: a1 = u64 [s1 + 0xa8]\n  4002: a2 = u64 [s1 + 0x98]\n  4006: a1 = a1 | a2\n  4009: a0 = a0 | a1\n  4012: jump @165 if a0 != 0\n      : @164 (gas: 1)\n  4015: jump @361\n      : @165 (gas: 1)\n  4018: ra = 124, jump @0\n      : @166 [@dyn 62] (gas: 11)\n  4023: a1 = u64 [s1 + 0x90]\n  4027: a0 = u64 [a1 + 0x10]\n  4030: u64 [s1 + 0x80] = a0\n  4034: a0 = u64 [a1 + 0x8]\n  4037: u64 [s1 + 0x78] = a0\n  4040: a0 = u64 [a1]\n  4042: u64 [s1 + 0x88] = a0\n  4046: a0 = s1 + 0x7ff\n  4050: a0 = a0 + 0x241\n  4054: a1 = 0x40\n  4057: ra = 126, jump @7\n      : @167 [@dyn 63] (gas: 15)\n  4062: a2 = s1 + 0x7ff\n  4066: a2 = a2 + 0x31\n  4069: t0 = u64 [a2 + 0x228]\n  4073: a1 = a2 + 0x200\n  4077: a5 = u64 [a1 + 0x20]\n  4080: a4 = u64 [a1 + 0x18]\n  4083: a0 = u64 [a1 + 0x10]\n  4086: a3 = a4 | t0\n  4089: a1 = a0 | a5\n  4092: a1 = a1 | a3\n  4095: a1 = a1 >> 0x20\n  4098: a3 = a3 | a5\n  4101: a3 = a3 << 0x20\n  4104: a1 = a1 | a3\n  4107: jump @169 if a1 == 0\n      : @168 (gas: 1)\n  4110: jump @292\n      : @169 (gas: 12)\n  4113: u64 [a2 + 512] = 0\n  4117: u64 [a2 + 504] = 0\n  4121: u64 [a2 + 496] = 0\n  4125: a3 = 0x852a12e300000000\n  4135: a1 = s1 + 0x7ff\n  4139: a1 = a1 + 0x221\n  4143: u64 [a2 + 0x208] = a3\n  4147: u64 [s1 + 0x90] = a0\n  4151: u64 [s1 + 0x40] = t0\n  4154: u64 [s1 + 0x38] = a5\n  4157: u64 [s1 + 0x30] = a4\n  4160: ra = 128, jump @9\n      : @170 [@dyn 64] (gas: 10)\n  4166: a3 = u64 [s1 + 0x90]\n  4170: a0 = u64 [s1 + 0x40]\n  4173: a1 = u64 [s1 + 0x38]\n  4176: a0 = a0 | a1\n  4179: a1 = 0xfffffffc\n  4189: a1 = a3 <u a1\n  4192: a2 = u64 [s1 + 0x30]\n  4195: a1 = 0 if a2 != 0\n  4197: a1 = 0 if a0 != 0\n  4199: jump @292 if a1 == 0\n      : @171 (gas: 17)\n  4203: a0 = 0x2400000000\n  4213: u64 [s1 + 0x20] = a0\n  4216: i32 a0 = a3 + 0x4\n  4219: a1 = u64 [s1 + 0xb0]\n  4223: a4 = s1 + 0x7ff\n  4227: a4 = a4 + 0x31\n  4230: a3 = a4 + 0x100\n  4234: u64 [a3 + 0xd0] = a1\n  4238: a1 = u64 [s1 + 0x98]\n  4242: u64 [a3 + 0xd8] = a1\n  4246: a1 = u64 [s1 + 0xa0]\n  4250: u64 [a3 + 0xe0] = a1\n  4254: a1 = s1 + 0x7ff\n  4258: a1 = a1 + 0x201\n  4262: a2 = u64 [s1 + 0xa8]\n  4266: u64 [a3 + 0xe8] = a2\n  4270: ra = 130, jump @9\n      : @172 [@dyn 65] (gas: 30)\n  4276: ecalli 11 // 'ref_time_left'\n  4278: a0 = u64 [s1 + 0x78]\n  4281: a0 = reverse a0\n  4283: a1 = a0 << 0x20\n  4286: a2 = u64 [s1 + 0x80]\n  4290: a2 = reverse a2\n  4292: a2 = a2 >> 0x20\n  4295: a3 = a2 | a1\n  4298: a1 = u64 [s1 + 0x88]\n  4302: a1 = reverse a1\n  4304: a2 = a1 << 0x20\n  4307: a0 = a0 >> 0x20\n  4310: a0 = a0 | a2\n  4313: a1 = a1 >> 0x20\n  4316: a2 = u64 [s1 + 0xb8]\n  4320: u64 [s1 + 0x10] = a0\n  4323: u64 [a2 + 0x8] = a0\n  4326: u64 [s1 + 0x78] = a3\n  4329: u64 [a2] = a3\n  4331: u64 [s1 + 0x18] = a1\n  4334: u32 [a2 + 0x10] = a1\n  4337: a0 = s1 + 0x7ff\n  4341: a0 = a0 + 0x31\n  4344: u64 [a0 + 1480] = 0\n  4348: u64 [a0 + 1472] = 0\n  4352: u64 [a0 + 1464] = 0\n  4356: u64 [a0 + 1456] = 0\n  4360: a1 = 0x24\n  4363: a0 = u64 [s1 + 0x90]\n  4367: ra = 132, jump @15\n      : @173 [@dyn 66] (gas: 4)\n  4373: u64 [s1 + 0x88] = a0\n  4377: a1 = 0x20\n  4380: a0 = u64 [s1 + 0x90]\n  4384: ra = 134, jump @15\n      : @174 [@dyn 67] (gas: 37)\n  4390: a2 = s1 + 0x7ff\n  4394: a2 = a2 + 0x31\n  4397: u32 [a2 + 1488] = 0x20\n  4402: u64 [a2 + 1544] = 0xffffffffffffffff\n  4407: u64 [a2 + 1536] = 0xffffffffffffffff\n  4412: u64 [a2 + 1528] = 0xffffffffffffffff\n  4417: u64 [a2 + 1520] = 0xffffffffffffffff\n  4422: a1 = u64 [s1 + 0xb8]\n  4426: a1 = a1 << 0x20\n  4429: a2 = a1 >> 0x20\n  4432: a1 = 0x800000000\n  4442: u64 [s1 + 0x80] = a2\n  4446: t0 = a2 | a1\n  4449: a1 = s1 + 0x7ff\n  4453: a1 = a1 + 0x5e1\n  4457: a1 = a1 << 0x20\n  4460: a1 = a1 >> 0x20\n  4463: a2 = s1 + 0x7ff\n  4467: a2 = a2 + 0x621\n  4471: a2 = a2 << 0x20\n  4474: a3 = a2 | a1\n  4477: a1 = u64 [s1 + 0x88]\n  4481: a1 = a1 << 0x20\n  4484: a1 = a1 >> 0x20\n  4487: a4 = u64 [s1 + 0x20]\n  4490: a4 = a4 | a1\n  4493: a0 = a0 << 0x20\n  4496: a0 = a0 >> 0x20\n  4499: a1 = s1 + 0x7ff\n  4503: a1 = a1 + 0x601\n  4507: a1 = a1 << 0x20\n  4510: a5 = a1 | a0\n  4513: a1 = 0xffffffffffffffff\n  4516: a2 = 0xffffffffffffffff\n  4519: a0 = t0\n  4521: ecalli 1 // 'call'\n  4523: fallthrough\n      : @175 (gas: 1)\n  4524: jump @301 if a0 != 0\n      : @176 (gas: 2)\n  4528: ecalli 13 // 'return_data_size'\n  4530: fallthrough\n      : @177 (gas: 2)\n  4531: a5 = 0x20\n  4534: jump @179 if a0 >=u a5\n      : @178 (gas: 3)\n  4537: ecalli 13 // 'return_data_size'\n  4539: a5 = a0\n  4541: fallthrough\n      : @179 (gas: 22)\n  4542: a2 = s1 + 0x7ff\n  4546: a2 = a2 + 0x31\n  4549: a3 = u64 [s1 + 0x90]\n  4553: t0 = u64 [s1 + 0x40]\n  4556: a0 = u64 [s1 + 0x38]\n  4559: a1 = u64 [s1 + 0x30]\n  4562: u64 [s1 + 64] = 0\n  4565: u64 [s1 + 0x88] = a5\n  4569: a4 = a2 + 0x100\n  4573: u64 [a4 + 0x70] = a5\n  4576: u64 [a4 + 0x90] = a3\n  4580: u64 [a2 + 376] = 0\n  4584: u64 [a4 + 0x98] = a1\n  4588: u64 [a2 + 384] = 0\n  4592: u64 [a4 + 0xa0] = a0\n  4596: u64 [a2 + 392] = 0\n  4600: a0 = s1 + 0x7ff\n  4604: a0 = a0 + 0x1c1\n  4608: a1 = s1 + 0x7ff\n  4612: a1 = a1 + 0x1a1\n  4616: u64 [a2 + 0x1a8] = t0\n  4620: ra = 136, jump @410\n      : @180 [@dyn 68] (gas: 4)\n  4626: a3 = u64 [s1 + 0x40]\n  4629: a0 = a3 >u 0\n  4631: a1 = u64 [s1 + 0x88]\n  4635: t0 = 138, jump @474\n      : @181 [@dyn 69] (gas: 1)\n  4641: jump @183 if a2 != 0\n      : @182 (gas: 1)\n  4644: jump @386\n      : @183 (gas: 4)\n  4647: a0 = s1 + 0x7ff\n  4651: a0 = a0 + 0x181\n  4655: a1 = u64 [s1 + 0x90]\n  4659: ra = 140, jump @7\n      : @184 [@dyn 70] (gas: 4)\n  4665: a3 = s1 + 0x7ff\n  4669: a3 = a3 + 0x31\n  4672: a4 = a3 + 0x100\n  4676: t0 = 142, jump @486\n      : @185 [@dyn 71] (gas: 1)\n  4682: jump @187 if a0 == 0\n      : @186 (gas: 1)\n  4685: jump @387\n      : @187 (gas: 17)\n  4688: a0 = u64 [s1 + 0x48]\n  4691: a0 = a0 << 0x20\n  4694: a2 = a0 >> 0x20\n  4697: a3 = s1 + 0x7ff\n  4701: a3 = a3 + 0x31\n  4704: u64 [a3 + 296] = 0\n  4708: a0 = u64 [s1 + 0x70]\n  4711: a4 = a3 + 0x100\n  4715: u64 [a4 + 0x10] = a0\n  4718: a0 = u64 [s1 + 0x68]\n  4721: u64 [a4 + 0x18] = a0\n  4724: a1 = s1 + 0x7ff\n  4728: a1 = a1 + 0x141\n  4732: u64 [s1 + 0x8] = a2\n  4735: u64 [a4 + 0x20] = a2\n  4738: a0 = 0\n  4740: ra = 144, jump @9\n      : @188 [@dyn 72] (gas: 10)\n  4746: a2 = s1 + 0x7ff\n  4750: a2 = a2 + 0x31\n  4753: u64 [a2 + 264] = 0\n  4757: u64 [a2 + 256] = 0\n  4761: u64 [a2 + 248] = 0\n  4765: a0 = 0x20\n  4768: a1 = s1 + 0x7ff\n  4772: a1 = a1 + 0x121\n  4776: u64 [a2 + 240] = 0\n  4780: ra = 146, jump @9\n      : @189 [@dyn 73] (gas: 7)\n  4786: a0 = sp + 0xffffffffffffffe0\n  4789: a0 = a0 & 0xffffffffffffffe0\n  4792: u64 [s1 + 0x90] = a0\n  4796: sp = a0\n  4798: a1 = 0x40\n  4801: a0 = 0\n  4803: ra = 148, jump @15\n      : @190 [@dyn 74] (gas: 12)\n  4809: a1 = sp + 0xffffffffffffffe0\n  4812: a1 = a1 & 0xffffffffffffffe0\n  4815: u64 [s1 + 0x88] = a1\n  4819: sp = a1\n  4821: i32 a0 = a0 + 0\n  4823: i32 a2 = a1 + 0\n  4825: a1 = 0x40\n  4828: ra = 0x96\n  4832: ecalli 10 // 'hash_keccak_256'\n  4834: a3 = u64 [s1 + 0x88]\n  4838: t0 = 0x98\n  4842: jump @483\n      : @191 [@dyn 75] (gas: 2)\n  4845: a3 = u64 [s1 + 0x88]\n  4849: t0 = 152, jump @483\n      : @192 [@dyn 76] (gas: 8)\n  4855: a1 = u64 [s1 + 0x90]\n  4859: u64 [a1 + 0x18] = a3\n  4862: u64 [a1 + 0x10] = a2\n  4865: u64 [a1 + 0x8] = a4\n  4868: u64 [a1] = a0\n  4870: a0 = s1 + 0x7ff\n  4874: a0 = a0 + 0x101\n  4878: ra = 154, jump @11\n      : @193 [@dyn 77] (gas: 50)\n  4884: a0 = s1 + 0x7ff\n  4888: a0 = a0 + 0x31\n  4891: t0 = u64 [a0 + 0xe8]\n  4895: t1 = u64 [a0 + 0xe0]\n  4899: a3 = u64 [a0 + 0xd0]\n  4903: u64 [s1 + 0x88] = a3\n  4907: a0 = u64 [a0 + 0xd8]\n  4911: u64 [s1 + 0x48] = a0\n  4914: a1 = sp + 0xffffffffffffffe0\n  4917: t2 = a1 & 0xffffffffffffffe0\n  4920: sp = t2\n  4922: a5 = u64 [s1 + 0x98]\n  4926: a2 = a0 ^ a5\n  4929: a1 = a0 <u a5\n  4932: a0 = u64 [s1 + 0xb0]\n  4936: a0 = a3 <u a0\n  4939: u64 [s1 + 0x40] = a0\n  4942: a1 = a0 if a2 == 0\n  4945: a0 = u64 [s1 + 0xa0]\n  4949: a4 = t1 <u a0\n  4952: u64 [s1 + 0x30] = a4\n  4955: ra = u64 [s1 + 0xa8]\n  4959: u64 [s1 + 0x38] = t0\n  4962: a2 = t0 ^ ra\n  4965: a3 = t0 <u ra\n  4968: a3 = a4 if a2 == 0\n  4971: t0 = t1 ^ a0\n  4974: a2 = t0 | a2\n  4977: a4 = t1 - a0\n  4980: a3 = a1 if a2 == 0\n  4983: a2 = a4 - a1\n  4986: a0 = a4 <u a1\n  4989: a1 = u64 [s1 + 0x38]\n  4992: a4 = a1 - ra\n  4995: a1 = u64 [s1 + 0x30]\n  4998: a4 = a4 - a1\n  5001: a4 = a4 - a0\n  5004: a0 = u64 [s1 + 0x48]\n  5007: a0 = a0 - a5\n  5010: a1 = u64 [s1 + 0x40]\n  5013: a0 = a0 - a1\n  5016: a5 = t2\n  5018: u64 [a5 + 0x18] = a4\n  5021: u64 [a5 + 0x10] = a2\n  5024: u64 [a5 + 0x8] = a0\n  5027: a0 = u64 [s1 + 0x88]\n  5031: a1 = u64 [s1 + 0xb0]\n  5035: a0 = a0 - a1\n  5038: u64 [a5] = a0\n  5040: jump @195 if a3 == 0\n      : @194 (gas: 1)\n  5043: jump @388\n      : @195 (gas: 3)\n  5046: a0 = u64 [s1 + 0x90]\n  5050: a1 = t2\n  5052: ra = 156, jump @12\n      : @196 [@dyn 78] (gas: 23)\n  5058: ecalli 11 // 'ref_time_left'\n  5060: u64 [s1 + 0x90] = a0\n  5064: a0 = u64 [s1 + 0xb8]\n  5068: a1 = u64 [s1 + 0x58]\n  5071: u64 [a0 + 0x8] = a1\n  5074: a1 = u64 [s1 + 0x60]\n  5077: u64 [a0] = a1\n  5079: a1 = u64 [s1 + 0x50]\n  5082: u32 [a0 + 0x10] = a1\n  5085: a1 = s1 + 0x7ff\n  5089: a1 = a1 + 0x31\n  5092: a0 = u64 [s1 + 0xa8]\n  5096: a2 = a1 + 0x600\n  5100: u64 [a2 + 0x48] = a0\n  5103: a0 = u64 [s1 + 0xa0]\n  5107: u64 [a2 + 0x40] = a0\n  5110: a0 = u64 [s1 + 0x98]\n  5114: u64 [a2 + 0x38] = a0\n  5117: a0 = u64 [s1 + 0xb0]\n  5121: u64 [a2 + 0x30] = a0\n  5124: a0 = 0\n  5126: a1 = 0\n  5128: ra = 158, jump @15\n      : @197 [@dyn 79] (gas: 4)\n  5134: u64 [s1 + 0x88] = a0\n  5138: a0 = 0\n  5140: a1 = 0\n  5142: ra = 160, jump @15\n      : @198 [@dyn 80] (gas: 38)\n  5148: a3 = s1 + 0x7ff\n  5152: a3 = a3 + 0x31\n  5155: u32 [a3 + 1616] = 0\n  5159: a2 = u64 [s1 + 0x90]\n  5163: a1 = a2 >u 0x8fc\n  5167: a2 = -a1\n  5169: a4 = a3 + 0x600\n  5173: u64 [a4 + 0x88] = a2\n  5177: u64 [a4 + 0x80] = a2\n  5181: u64 [a4 + 0x78] = a2\n  5184: u64 [a4 + 0x70] = a2\n  5187: a1 = a1 << 0x23\n  5190: a2 = u64 [s1 + 0x80]\n  5194: t0 = a1 | a2\n  5197: a1 = s1 + 0x7ff\n  5201: a1 = a1 + 0x661\n  5205: a1 = a1 << 0x20\n  5208: a1 = a1 >> 0x20\n  5211: a2 = s1 + 0x7ff\n  5215: a2 = a2 + 0x6a1\n  5219: a2 = a2 << 0x20\n  5222: a3 = a2 | a1\n  5225: a4 = u64 [s1 + 0x88]\n  5229: a4 = a4 << 0x20\n  5232: a4 = a4 >> 0x20\n  5235: a0 = a0 << 0x20\n  5238: a0 = a0 >> 0x20\n  5241: a1 = s1 + 0x7ff\n  5245: a1 = a1 + 0x681\n  5249: a1 = a1 << 0x20\n  5252: a5 = a1 | a0\n  5255: a1 = 0xffffffffffffffff\n  5258: a2 = 0xffffffffffffffff\n  5261: a0 = t0\n  5263: ecalli 1 // 'call'\n  5265: u64 [s1 + 0x90] = a0\n  5269: ecalli 13 // 'return_data_size'\n  5271: fallthrough\n      : @199 (gas: 2)\n  5272: a2 = u64 [s1 + 0x90]\n  5276: jump @314 if a0 != 0\n      : @200 (gas: 1)\n  5280: jump @202 if a2 == 0\n      : @201 (gas: 1)\n  5283: jump @392\n      : @202 (gas: 4)\n  5286: a0 = s1 + 0x7ff\n  5290: a0 = a0 + 0x41\n  5293: a1 = 0x40\n  5296: ra = 162, jump @7\n      : @203 [@dyn 81] (gas: 14)\n  5302: a2 = s1 + 0x7ff\n  5306: a2 = a2 + 0x31\n  5309: t0 = u64 [a2 + 0x28]\n  5312: a5 = u64 [a2 + 0x20]\n  5315: a4 = u64 [a2 + 0x18]\n  5318: a0 = u64 [a2 + 0x10]\n  5321: a3 = a4 | t0\n  5324: a1 = a0 | a5\n  5327: a1 = a1 | a3\n  5330: a1 = a1 >> 0x20\n  5333: a3 = a3 | a5\n  5336: a3 = a3 << 0x20\n  5339: a1 = a1 | a3\n  5342: jump @292 if a1 != 0\n      : @204 (gas: 14)\n  5346: u64 [a2 + 0] = 0\n  5348: a1 = s1 + 0x1000\n  5352: u64 [a1 + 4294965288] = 0\n  5356: a1 = s1 + 0x1000\n  5360: u64 [a1 + 4294965280] = 0\n  5364: a3 = 0x70a0823100000000\n  5374: a1 = s1 + 0x7ff\n  5378: a1 = a1 + 0x21\n  5381: u64 [a2 + 0x8] = a3\n  5384: u64 [s1 + 0x90] = a0\n  5388: u64 [s1 + 0x88] = t0\n  5392: u64 [s1 + 0x60] = a5\n  5395: u64 [s1 + 0x58] = a4\n  5398: ra = 164, jump @9\n      : @205 [@dyn 82] (gas: 4)\n  5404: a0 = u64 [s1 + 0x28]\n  5407: ra = 0xa6\n  5411: ecalli 0 // 'address'\n  5412: fallthrough\n      : @206 [@dyn 83] (gas: 10)\n  5413: a4 = u64 [s1 + 0x90]\n  5417: a0 = u64 [s1 + 0x88]\n  5421: a1 = u64 [s1 + 0x60]\n  5424: a0 = a0 | a1\n  5427: a1 = 0xfffffffc\n  5437: a1 = a4 <u a1\n  5440: a2 = u64 [s1 + 0x58]\n  5443: a1 = 0 if a2 != 0\n  5445: a1 = 0 if a0 != 0\n  5447: jump @292 if a1 == 0\n      : @207 (gas: 1)\n  5451: t0 = 168, jump @476\n      : @208 [@dyn 84] (gas: 11)\n  5457: a4 = s1 + 0x1000\n  5461: u64 [a4 + 4294965272] = 0\n  5465: a4 = s1 + 0x1000\n  5469: u64 [a4 + 0xfffffffffffff810] = a1\n  5473: a1 = s1 + 0x1000\n  5477: u64 [a1 + 0xfffffffffffff808] = a2\n  5481: a1 = s1 + 0x7ff\n  5485: a1 = a1 + 0x1\n  5488: a2 = s1 + 0x1000\n  5492: u64 [a2 + 0xfffffffffffff800] = a3\n  5496: ra = 170, jump @9\n      : @209 [@dyn 85] (gas: 17)\n  5502: ecalli 11 // 'ref_time_left'\n  5504: a0 = u64 [s1 + 0x10]\n  5507: a1 = u64 [s1 + 0xb8]\n  5511: u64 [a1 + 0x8] = a0\n  5514: a0 = u64 [s1 + 0x78]\n  5517: u64 [a1] = a0\n  5519: a0 = u64 [s1 + 0x18]\n  5522: u32 [a1 + 0x10] = a0\n  5525: a0 = s1 + 0x7ff\n  5529: a0 = a0 + 0x31\n  5532: u64 [a0 + 1736] = 0\n  5536: u64 [a0 + 1728] = 0\n  5540: u64 [a0 + 1720] = 0\n  5544: u64 [a0 + 1712] = 0\n  5548: a1 = 0x24\n  5551: a0 = u64 [s1 + 0x90]\n  5555: ra = 172, jump @15\n      : @210 [@dyn 86] (gas: 4)\n  5561: u64 [s1 + 0xb8] = a0\n  5565: a1 = 0x20\n  5568: a0 = u64 [s1 + 0x90]\n  5572: ra = 174, jump @15\n      : @211 [@dyn 87] (gas: 34)\n  5578: a1 = s1 + 0x7ff\n  5582: a1 = a1 + 0x31\n  5585: u32 [a1 + 1744] = 0x20\n  5590: u64 [a1 + 1800] = 0\n  5594: u64 [a1 + 1792] = 0\n  5598: u64 [a1 + 1784] = 0\n  5602: u64 [a1 + 1776] = 0\n  5606: a1 = 0x1800000000\n  5616: a2 = u64 [s1 + 0x80]\n  5620: t0 = a2 | a1\n  5623: a1 = s1 + 0x7ff\n  5627: a1 = a1 + 0x6e1\n  5631: a1 = a1 << 0x20\n  5634: a1 = a1 >> 0x20\n  5637: a2 = s1 + 0x7ff\n  5641: a2 = a2 + 0x721\n  5645: a2 = a2 << 0x20\n  5648: a3 = a2 | a1\n  5651: a1 = u64 [s1 + 0xb8]\n  5655: a1 = a1 << 0x20\n  5658: a1 = a1 >> 0x20\n  5661: a4 = u64 [s1 + 0x20]\n  5664: a4 = a4 | a1\n  5667: a0 = a0 << 0x20\n  5670: a0 = a0 >> 0x20\n  5673: a1 = s1 + 0x7ff\n  5677: a1 = a1 + 0x701\n  5681: a1 = a1 << 0x20\n  5684: a5 = a1 | a0\n  5687: a1 = 0xffffffffffffffff\n  5690: a2 = 0xffffffffffffffff\n  5693: a0 = t0\n  5695: ecalli 1 // 'call'\n  5697: fallthrough\n      : @212 (gas: 1)\n  5698: jump @333 if a0 != 0\n      : @213 (gas: 2)\n  5702: ecalli 13 // 'return_data_size'\n  5704: fallthrough\n      : @214 (gas: 2)\n  5705: a4 = 0x20\n  5708: jump @216 if a0 >=u a4\n      : @215 (gas: 3)\n  5711: ecalli 13 // 'return_data_size'\n  5713: a4 = a0\n  5715: fallthrough\n      : @216 (gas: 18)\n  5716: a2 = u64 [s1 + 0x90]\n  5720: a3 = u64 [s1 + 0x88]\n  5724: a0 = u64 [s1 + 0x60]\n  5727: a1 = u64 [s1 + 0x58]\n  5730: u64 [s1 + 136] = 0\n  5734: u64 [s1 + 0xb8] = a4\n  5738: a5 = s1 + 0x700\n  5742: u64 [a5 + 0xa0] = a4\n  5746: u64 [a5 + 0xc0] = a2\n  5750: u64 [s1 + 1960] = 0\n  5754: u64 [a5 + 0xc8] = a1\n  5758: u64 [s1 + 1968] = 0\n  5762: u64 [a5 + 0xd0] = a0\n  5766: u64 [s1 + 1976] = 0\n  5770: a0 = s1 + 0x7c0\n  5774: a1 = s1 + 0x7a0\n  5778: u64 [a5 + 0xd8] = a3\n  5782: ra = 176, jump @410\n      : @217 [@dyn 88] (gas: 4)\n  5788: a3 = u64 [s1 + 0x88]\n  5792: a0 = a3 >u 0\n  5794: a1 = u64 [s1 + 0xb8]\n  5798: t0 = 178, jump @474\n      : @218 [@dyn 89] (gas: 1)\n  5804: jump @220 if a2 != 0\n      : @219 (gas: 1)\n  5807: jump @394\n      : @220 (gas: 3)\n  5810: a0 = s1 + 0x780\n  5814: a1 = u64 [s1 + 0x90]\n  5818: ra = 180, jump @7\n      : @221 [@dyn 90] (gas: 11)\n  5824: a0 = u64 [s1 + 0x798]\n  5828: u64 [s1 + 0x90] = a0\n  5832: a0 = u64 [s1 + 0x790]\n  5836: u64 [s1 + 0x88] = a0\n  5840: a0 = u64 [s1 + 0x788]\n  5844: u64 [s1 + 0x80] = a0\n  5848: a0 = u64 [s1 + 0x780]\n  5852: u64 [s1 + 0x78] = a0\n  5855: a0 = s1 + 0x760\n  5859: a1 = 0x40\n  5862: ra = 182, jump @7\n      : @222 [@dyn 91] (gas: 13)\n  5868: a0 = s1 + 0x700\n  5872: a4 = u64 [a0 + 0x78]\n  5875: a5 = u64 [a0 + 0x70]\n  5878: a3 = u64 [a0 + 0x68]\n  5881: a2 = u64 [a0 + 0x60]\n  5884: a0 = a3 | a4\n  5887: a1 = a2 | a5\n  5890: a1 = a1 | a0\n  5893: a1 = a1 >> 0x20\n  5896: a0 = a0 | a5\n  5899: a0 = a0 << 0x20\n  5902: a0 = a0 | a1\n  5905: jump @292 if a0 != 0\n      : @223 (gas: 15)\n  5909: a0 = u64 [s1 + 0xb0]\n  5913: u64 [s1 + 0x740] = a0\n  5917: a0 = u64 [s1 + 0x98]\n  5921: u64 [s1 + 0x748] = a0\n  5925: a0 = u64 [s1 + 0xa0]\n  5929: u64 [s1 + 0x750] = a0\n  5933: a1 = s1 + 0x740\n  5937: a0 = u64 [s1 + 0xa8]\n  5941: u64 [s1 + 0x758] = a0\n  5945: a0 = a2\n  5947: u64 [s1 + 0xb8] = a2\n  5951: u64 [s1 + 0xb0] = a3\n  5955: u64 [s1 + 0xa8] = a4\n  5959: u64 [s1 + 0xa0] = a5\n  5963: ra = 184, jump @9\n      : @224 [@dyn 92] (gas: 1)\n  5969: t0 = 186, jump @482\n      : @225 [@dyn 93] (gas: 1)\n  5975: jump @292 if a1 == 0\n      : @226 (gas: 11)\n  5979: i32 a0 = a2 + 0x20\n  5982: a1 = u64 [s1 + 0x78]\n  5985: u64 [s1 + 0x720] = a1\n  5989: a1 = u64 [s1 + 0x80]\n  5993: u64 [s1 + 0x728] = a1\n  5997: a1 = u64 [s1 + 0x88]\n  6001: u64 [s1 + 0x730] = a1\n  6005: a1 = s1 + 0x720\n  6009: a3 = u64 [s1 + 0x90]\n  6013: u64 [s1 + 0x738] = a3\n  6017: ra = 188, jump @9\n      : @227 [@dyn 94] (gas: 23)\n  6023: u64 [s1 + 1784] = 0\n  6027: a0 = u64 [s1 + 0x8]\n  6030: a4 = s1 + 0x600\n  6034: u64 [a4 + 0xf0] = a0\n  6038: a0 = u64 [s1 + 0x68]\n  6041: u64 [a4 + 0xe8] = a0\n  6045: a0 = u64 [0x20000]\n  6050: a1 = u64 [0x20008]\n  6055: a2 = u64 [0x20010]\n  6060: a3 = u64 [s1 + 0x70]\n  6063: u64 [a4 + 0xe0] = a3\n  6067: a4 = s1 + 0x700\n  6071: u64 [a4 + 0x18] = a0\n  6074: u64 [a4 + 0x10] = a1\n  6077: u64 [a4 + 0x8] = a2\n  6080: a0 = u64 [0x20018]\n  6085: a1 = 0x40\n  6088: a2 = s1 + 0x700\n  6092: a3 = s1 + 0x6e0\n  6096: u64 [a4] = a0\n  6098: a0 = u64 [s1 + 0xb8]\n  6102: ra = 0xfe\n  6106: jump @13\n      : @228 (gas: 3)\n  6109: a0 = u64 [s1 + 0xb8]\n  6113: a0 = i32 [a0]\n  6115: jump @364 if a0 <=u 67\n      : @229 (gas: 2)\n  6120: a0 = s1 + 0x660\n  6124: ra = 190, jump @404\n      : @230 [@dyn 95] (gas: 23)\n  6130: a1 = s1 + 0x600\n  6134: a0 = u64 [a1 + 0x70]\n  6137: u64 [s1 + 0x58] = a0\n  6140: a0 = u64 [a1 + 0x68]\n  6143: u64 [s1 + 0x60] = a0\n  6146: a0 = u64 [a1 + 0x60]\n  6149: u64 [s1 + 0x68] = a0\n  6152: a0 = s1 + 0x1000\n  6156: i32 a0 = a0 + 0xfffffffffffffc60\n  6160: a1 = 0x24\n  6163: ecalli 3 // 'call_data_load'\n  6165: a1 = s1 + 0x7ff\n  6169: a1 = a1 + 0x31\n  6172: a2 = a1 + 0x400\n  6176: a0 = u64 [a2 + 0x48]\n  6179: u64 [s1 + 0xb0] = a0\n  6183: a0 = u64 [a2 + 0x40]\n  6186: u64 [s1 + 0xa8] = a0\n  6190: a0 = u64 [a2 + 0x38]\n  6193: u64 [s1 + 0xa0] = a0\n  6197: a0 = u64 [a2 + 0x30]\n  6200: u64 [s1 + 0x98] = a0\n  6204: ra = 192, jump @0\n      : @231 [@dyn 96] (gas: 17)\n  6210: a0 = 0x30090\n  6215: a1 = u64 [0x300d8]\n  6220: u64 [s1 + 0x80] = a1\n  6224: a1 = u64 [0x300d0]\n  6229: u64 [s1 + 0x78] = a1\n  6232: u64 [s1 + 0x88] = a0\n  6236: a0 = u32 [0x300e0]\n  6241: u64 [s1 + 0x70] = a0\n  6244: a0 = 0x30070\n  6249: u64 [s1 + 0xb8] = a0\n  6253: i32 a0 = a0 + 0\n  6255: u64 [s1 + 0x90] = a0\n  6259: ra = 0xc2\n  6263: ecalli 5 // 'caller'\n  6265: a2 = u64 [s1 + 0xb8]\n  6269: t0 = 0xc4\n  6273: jump @478\n      : @232 [@dyn 97] (gas: 2)\n  6276: a2 = u64 [s1 + 0xb8]\n  6280: t0 = 196, jump @478\n      : @233 [@dyn 98] (gas: 9)\n  6286: a2 = u64 [s1 + 0x70]\n  6289: a1 = a1 ^ a2\n  6292: a2 = u64 [s1 + 0x78]\n  6295: a0 = a0 ^ a2\n  6298: a0 = a0 | a1\n  6301: a1 = u64 [s1 + 0x80]\n  6305: a1 = a1 ^ a3\n  6308: a0 = a0 | a1\n  6311: jump @365 if a0 != 0\n      : @234 (gas: 10)\n  6315: a0 = s1 + 0x7ff\n  6319: a0 = a0 + 0x31\n  6322: u64 [a0 + 1128] = 0\n  6326: u64 [a0 + 1120] = 0\n  6330: u64 [a0 + 1112] = 0\n  6334: u64 [a0 + 1104] = 0\n  6338: a0 = s1 + 0x1000\n  6342: i32 a0 = a0 + 0xfffffffffffffc80\n  6346: ecalli 17 // 'value_transferred'\n  6348: fallthrough\n      : @235 (gas: 19)\n  6349: a2 = s1 + 0x7ff\n  6353: a2 = a2 + 0x31\n  6356: a3 = a2 + 0x400\n  6360: a0 = u64 [a3 + 0x68]\n  6363: a1 = u64 [a3 + 0x58]\n  6366: t0 = u64 [a2 + 0x450]\n  6370: a2 = u64 [a3 + 0x60]\n  6373: t1 = u64 [s1 + 0xb0]\n  6377: a0 = a0 ^ t1\n  6380: a3 = u64 [s1 + 0xa0]\n  6384: a1 = a1 ^ a3\n  6387: a0 = a0 | a1\n  6390: a5 = u64 [s1 + 0xa8]\n  6394: a1 = a2 ^ a5\n  6397: a4 = u64 [s1 + 0x98]\n  6401: a2 = t0 ^ a4\n  6404: a1 = a1 | a2\n  6407: a0 = a0 | a1\n  6410: jump @369 if a0 != 0\n      : @236 (gas: 5)\n  6414: a2 = a5\n  6416: a0 = a4 | a5\n  6419: a1 = a3 | t1\n  6422: a0 = a0 | a1\n  6425: jump @373 if a0 == 0\n      : @237 (gas: 1)\n  6429: ra = 198, jump @0\n      : @238 [@dyn 99] (gas: 4)\n  6435: a2 = u64 [s1 + 0x88]\n  6439: a0 = u64 [a2 + 0x8]\n  6442: a1 = u64 [a2 + 0x10]\n  6445: t0 = 200, jump @480\n      : @239 [@dyn 100] (gas: 10)\n  6451: a0 = u64 [s1 + 0xb8]\n  6455: u64 [s1 + 0x78] = a1\n  6458: u32 [a0 + 0x10] = a1\n  6461: u64 [s1 + 0x70] = a2\n  6464: u64 [a0 + 0x8] = a2\n  6467: u64 [s1 + 0x80] = a3\n  6471: u64 [a0] = a3\n  6473: a0 = u64 [s1 + 0x90]\n  6477: ecalli 6 // 'code_size'\n  6479: fallthrough\n      : @240 (gas: 1)\n  6480: jump @378 if a0 == 0\n      : @241 (gas: 3)\n  6484: a0 = s1 + 0x600\n  6488: a1 = 0x40\n  6491: ra = 202, jump @7\n      : @242 [@dyn 101] (gas: 13)\n  6497: a1 = s1 + 0x600\n  6501: a2 = u64 [a1 + 0x18]\n  6504: a3 = u64 [a1 + 0x10]\n  6507: a4 = u64 [a1 + 0x8]\n  6510: a0 = u64 [a1]\n  6512: a5 = a4 | a2\n  6515: a1 = a0 | a3\n  6518: a1 = a1 | a5\n  6521: a1 = a1 >> 0x20\n  6524: a5 = a5 | a3\n  6527: a5 = a5 << 0x20\n  6530: a1 = a1 | a5\n  6533: jump @292 if a1 != 0\n      : @243 (gas: 11)\n  6537: u64 [s1 + 0x38] = a4\n  6540: u64 [s1 + 0x40] = a3\n  6543: u64 [s1 + 0x48] = a2\n  6546: u64 [s1 + 1520] = 0\n  6550: u64 [s1 + 1512] = 0\n  6554: u64 [s1 + 1504] = 0\n  6558: a2 = 0x1249c58b00000000\n  6568: a1 = s1 + 0x5e0\n  6572: u64 [s1 + 0x5f8] = a2\n  6576: u64 [s1 + 0x88] = a0\n  6580: ra = 204, jump @9\n      : @244 [@dyn 102] (gas: 22)\n  6586: ecalli 11 // 'ref_time_left'\n  6588: a1 = u64 [s1 + 0xb8]\n  6592: a0 = u64 [s1 + 0x70]\n  6595: u64 [a1 + 0x8] = a0\n  6598: a0 = u64 [s1 + 0x80]\n  6602: u64 [a1] = a0\n  6604: a0 = u64 [s1 + 0x78]\n  6607: u32 [a1 + 0x10] = a0\n  6610: a1 = s1 + 0x7ff\n  6614: a1 = a1 + 0x31\n  6617: a0 = u64 [s1 + 0xb0]\n  6621: a2 = a1 + 0x400\n  6625: u64 [a2 + 0x88] = a0\n  6629: a0 = u64 [s1 + 0xa8]\n  6633: u64 [a2 + 0x80] = a0\n  6637: a0 = u64 [s1 + 0xa0]\n  6641: u64 [a2 + 0x78] = a0\n  6644: a0 = u64 [s1 + 0x98]\n  6648: u64 [a2 + 0x70] = a0\n  6651: a1 = 0x4\n  6654: a0 = u64 [s1 + 0x88]\n  6658: ra = 206, jump @15\n      : @245 [@dyn 103] (gas: 4)\n  6664: u64 [s1 + 0x50] = a0\n  6667: a0 = u64 [s1 + 0x88]\n  6671: a1 = 0\n  6673: ra = 208, jump @15\n      : @246 [@dyn 104] (gas: 38)\n  6679: a2 = s1 + 0x7ff\n  6683: a2 = a2 + 0x31\n  6686: u32 [a2 + 1168] = 0\n  6690: a3 = a2 + 0x400\n  6694: u64 [a3 + 200] = 0xffffffffffffffff\n  6699: u64 [a3 + 192] = 0xffffffffffffffff\n  6704: u64 [a3 + 184] = 0xffffffffffffffff\n  6709: u64 [a3 + 176] = 0xffffffffffffffff\n  6714: a1 = u64 [s1 + 0xb8]\n  6718: a1 = a1 << 0x20\n  6721: a3 = a1 >> 0x20\n  6724: a2 = 0x800000000\n  6734: u64 [s1 + 0x30] = a3\n  6737: t0 = a3 | a2\n  6740: a2 = s1 + 0x7ff\n  6744: a2 = a2 + 0x4a1\n  6748: a2 = a2 << 0x20\n  6751: a2 = a2 >> 0x20\n  6754: a3 = s1 + 0x7ff\n  6758: a3 = a3 + 0x4e1\n  6762: a3 = a3 << 0x20\n  6765: a3 = a3 | a2\n  6768: a2 = u64 [s1 + 0x50]\n  6771: a2 = a2 << 0x20\n  6774: a2 = a2 >> 0x20\n  6777: a1 = 0x400000000\n  6787: a4 = a2 | a1\n  6790: a0 = a0 << 0x20\n  6793: a0 = a0 >> 0x20\n  6796: a1 = s1 + 0x7ff\n  6800: a1 = a1 + 0x4c1\n  6804: a1 = a1 << 0x20\n  6807: a5 = a1 | a0\n  6810: a1 = 0xffffffffffffffff\n  6813: a2 = 0xffffffffffffffff\n  6816: a0 = t0\n  6818: ecalli 1 // 'call'\n  6820: fallthrough\n      : @247 (gas: 1)\n  6821: jump @293 if a0 != 0\n      : @248 (gas: 15)\n  6825: u64 [s1 + 1432] = 0\n  6829: u64 [s1 + 1424] = 0\n  6833: u64 [s1 + 1416] = 0\n  6837: u64 [s1 + 1408] = 0\n  6841: a0 = u64 [s1 + 0x88]\n  6845: u64 [s1 + 0x5a0] = a0\n  6849: a0 = u64 [s1 + 0x38]\n  6852: u64 [s1 + 0x5a8] = a0\n  6856: a0 = u64 [s1 + 0x40]\n  6859: u64 [s1 + 0x5b0] = a0\n  6863: a0 = s1 + 0x5a0\n  6867: a1 = s1 + 0x580\n  6871: a2 = u64 [s1 + 0x48]\n  6874: u64 [s1 + 0x5b8] = a2\n  6878: ra = 210, jump @410\n      : @249 [@dyn 105] (gas: 13)\n  6884: a0 = u64 [s1 + 0x58]\n  6887: a0 = a0 << 0x20\n  6890: a0 = a0 >> 0x20\n  6893: u64 [s1 + 1400] = 0\n  6897: u64 [s1 + 0x40] = a0\n  6900: u64 [s1 + 0x570] = a0\n  6904: a0 = u64 [s1 + 0x60]\n  6907: u64 [s1 + 0x568] = a0\n  6911: a1 = s1 + 0x560\n  6915: a0 = u64 [s1 + 0x68]\n  6918: u64 [s1 + 0x560] = a0\n  6922: a0 = 0\n  6924: ra = 212, jump @9\n      : @250 [@dyn 106] (gas: 7)\n  6930: u64 [s1 + 1368] = 0\n  6934: u64 [s1 + 1360] = 0\n  6938: u64 [s1 + 1352] = 0\n  6942: a0 = 0x20\n  6945: a1 = s1 + 0x540\n  6949: u64 [s1 + 1344] = 0\n  6953: ra = 214, jump @9\n      : @251 [@dyn 107] (gas: 7)\n  6959: a0 = sp + 0xffffffffffffffe0\n  6962: a0 = a0 & 0xffffffffffffffe0\n  6965: u64 [s1 + 0x88] = a0\n  6969: sp = a0\n  6971: a1 = 0x40\n  6974: a0 = 0\n  6976: ra = 216, jump @15\n      : @252 [@dyn 108] (gas: 12)\n  6982: a1 = sp + 0xffffffffffffffe0\n  6985: a1 = a1 & 0xffffffffffffffe0\n  6988: u64 [s1 + 0x58] = a1\n  6991: sp = a1\n  6993: i32 a0 = a0 + 0\n  6995: i32 a2 = a1 + 0\n  6997: a1 = 0x40\n  7000: ra = 0xda\n  7004: ecalli 10 // 'hash_keccak_256'\n  7006: a3 = u64 [s1 + 0x58]\n  7009: t0 = 0xdc\n  7013: jump @483\n      : @253 [@dyn 109] (gas: 2)\n  7016: a3 = u64 [s1 + 0x58]\n  7019: t0 = 220, jump @483\n      : @254 [@dyn 110] (gas: 7)\n  7025: a1 = u64 [s1 + 0x88]\n  7029: u64 [a1 + 0x18] = a3\n  7032: u64 [a1 + 0x10] = a2\n  7035: u64 [a1 + 0x8] = a4\n  7038: u64 [a1] = a0\n  7040: a0 = s1 + 0x520\n  7044: ra = 222, jump @11\n      : @255 [@dyn 111] (gas: 38)\n  7050: t2 = u64 [s1 + 0x538]\n  7054: a1 = s1 + 0x500\n  7058: a0 = u64 [a1 + 0x30]\n  7061: a4 = u64 [a1 + 0x20]\n  7064: a5 = u64 [a1 + 0x28]\n  7067: a1 = sp + 0xffffffffffffffe0\n  7070: a1 = a1 & 0xffffffffffffffe0\n  7073: sp = a1\n  7075: a3 = u64 [s1 + 0xa0]\n  7079: a3 = a3 + a5\n  7082: t0 = u64 [s1 + 0x98]\n  7086: t0 = t0 + a4\n  7089: a4 = t0 <u a4\n  7092: a3 = a3 + a4\n  7095: t1 = a3 ^ a5\n  7098: a2 = a3 <u a5\n  7101: a2 = a4 if t1 == 0\n  7104: a4 = u64 [s1 + 0xa8]\n  7108: a4 = a4 + a0\n  7111: a5 = a4 + a2\n  7114: t1 = a5 <u a4\n  7117: ra = u64 [s1 + 0xb0]\n  7121: ra = ra + t2\n  7124: a4 = a4 <u a0\n  7127: a4 = a4 + ra\n  7130: ra = a4 + t1\n  7133: t1 = a5 <u a0\n  7136: a4 = t2 ^ ra\n  7139: t2 = ra <u t2\n  7142: t2 = t1 if a4 == 0\n  7145: a0 = a0 ^ a5\n  7148: a0 = a0 | a4\n  7151: t2 = a2 if a0 == 0\n  7154: u64 [a1 + 0x10] = a5\n  7157: u64 [a1 + 0x8] = a3\n  7160: u64 [a1] = t0\n  7162: u64 [a1 + 0x18] = ra\n  7165: jump @384 if t2 != 0\n      : @256 (gas: 2)\n  7169: a0 = u64 [s1 + 0x88]\n  7173: ra = 224, jump @12\n      : @257 [@dyn 112] (gas: 3)\n  7179: a0 = s1 + 0x500\n  7183: a1 = 0x40\n  7186: ra = 226, jump @7\n      : @258 [@dyn 113] (gas: 13)\n  7192: a1 = s1 + 0x500\n  7196: a3 = u64 [a1 + 0x18]\n  7199: a4 = u64 [a1 + 0x10]\n  7202: a5 = u64 [a1 + 0x8]\n  7205: a0 = u64 [a1]\n  7207: a2 = a5 | a3\n  7210: a1 = a0 | a4\n  7213: a1 = a1 | a2\n  7216: a1 = a1 >> 0x20\n  7219: a2 = a2 | a4\n  7222: a2 = a2 << 0x20\n  7225: a1 = a1 | a2\n  7228: jump @292 if a1 != 0\n      : @259 (gas: 11)\n  7232: u64 [s1 + 1264] = 0\n  7236: u64 [s1 + 1256] = 0\n  7240: u64 [s1 + 1248] = 0\n  7244: a2 = 0x70a0823100000000\n  7254: a1 = s1 + 0x4e0\n  7258: u64 [s1 + 0x4f8] = a2\n  7262: u64 [s1 + 0x88] = a0\n  7266: u64 [s1 + 0x58] = a3\n  7269: u64 [s1 + 0x50] = a4\n  7272: u64 [s1 + 0x48] = a5\n  7275: ra = 228, jump @9\n      : @260 [@dyn 114] (gas: 4)\n  7281: a0 = u64 [s1 + 0x90]\n  7285: ra = 0xe6\n  7289: ecalli 0 // 'address'\n  7290: fallthrough\n      : @261 [@dyn 115] (gas: 10)\n  7291: a4 = u64 [s1 + 0x88]\n  7295: a0 = u64 [s1 + 0x58]\n  7298: a1 = u64 [s1 + 0x50]\n  7301: a0 = a0 | a1\n  7304: a1 = 0xfffffffc\n  7314: a1 = a4 <u a1\n  7317: a2 = u64 [s1 + 0x48]\n  7320: a1 = 0 if a2 != 0\n  7322: a1 = 0 if a0 != 0\n  7324: jump @292 if a1 == 0\n      : @262 (gas: 1)\n  7328: t0 = 232, jump @476\n      : @263 [@dyn 116] (gas: 7)\n  7334: u64 [s1 + 1240] = 0\n  7338: a4 = s1 + 0x400\n  7342: u64 [a4 + 0xd0] = a1\n  7346: u64 [a4 + 0xc8] = a2\n  7350: a1 = s1 + 0x4c0\n  7354: u64 [a4 + 0xc0] = a3\n  7358: ra = 234, jump @9\n      : @264 [@dyn 117] (gas: 17)\n  7364: ecalli 11 // 'ref_time_left'\n  7366: a0 = u64 [s1 + 0x70]\n  7369: a1 = u64 [s1 + 0xb8]\n  7373: u64 [a1 + 0x8] = a0\n  7376: a0 = u64 [s1 + 0x80]\n  7380: u64 [a1] = a0\n  7382: a0 = u64 [s1 + 0x78]\n  7385: u32 [a1 + 0x10] = a0\n  7388: a0 = s1 + 0x7ff\n  7392: a0 = a0 + 0x31\n  7395: u64 [a0 + 1288] = 0\n  7399: u64 [a0 + 1280] = 0\n  7403: u64 [a0 + 1272] = 0\n  7407: u64 [a0 + 1264] = 0\n  7411: a1 = 0x24\n  7414: a0 = u64 [s1 + 0x88]\n  7418: ra = 236, jump @15\n      : @265 [@dyn 118] (gas: 4)\n  7424: u64 [s1 + 0xb8] = a0\n  7428: a1 = 0x20\n  7431: a0 = u64 [s1 + 0x88]\n  7435: ra = 238, jump @15\n      : @266 [@dyn 119] (gas: 34)\n  7441: a1 = a0\n  7443: a0 = s1 + 0x7ff\n  7447: a0 = a0 + 0x31\n  7450: u32 [a0 + 1296] = 0x20\n  7455: u64 [a0 + 1352] = 0\n  7459: u64 [a0 + 1344] = 0\n  7463: u64 [a0 + 1336] = 0\n  7467: u64 [a0 + 1328] = 0\n  7471: a0 = 0x1800000000\n  7481: a2 = u64 [s1 + 0x30]\n  7484: a0 = a0 | a2\n  7487: a2 = s1 + 0x7ff\n  7491: a2 = a2 + 0x521\n  7495: a2 = a2 << 0x20\n  7498: a2 = a2 >> 0x20\n  7501: a3 = s1 + 0x7ff\n  7505: a3 = a3 + 0x561\n  7509: a3 = a3 << 0x20\n  7512: a3 = a3 | a2\n  7515: a2 = u64 [s1 + 0xb8]\n  7519: a2 = a2 << 0x20\n  7522: a2 = a2 >> 0x20\n  7525: a4 = 0x2400000000\n  7535: a4 = a4 | a2\n  7538: a1 = a1 << 0x20\n  7541: a1 = a1 >> 0x20\n  7544: a2 = s1 + 0x7ff\n  7548: a2 = a2 + 0x541\n  7552: a2 = a2 << 0x20\n  7555: a5 = a2 | a1\n  7558: a1 = 0xffffffffffffffff\n  7561: a2 = 0xffffffffffffffff\n  7564: ecalli 1 // 'call'\n  7566: fallthrough\n      : @267 (gas: 1)\n  7567: jump @325 if a0 != 0\n      : @268 (gas: 2)\n  7571: ecalli 13 // 'return_data_size'\n  7573: fallthrough\n      : @269 (gas: 2)\n  7574: a4 = 0x20\n  7577: jump @271 if a0 >=u a4\n      : @270 (gas: 3)\n  7580: ecalli 13 // 'return_data_size'\n  7582: a4 = a0\n  7584: fallthrough\n      : @271 (gas: 18)\n  7585: a2 = u64 [s1 + 0x88]\n  7589: a3 = u64 [s1 + 0x58]\n  7592: a0 = u64 [s1 + 0x50]\n  7595: a1 = u64 [s1 + 0x48]\n  7598: u64 [s1 + 144] = 0\n  7602: u64 [s1 + 0xb8] = a4\n  7606: a5 = s1 + 0x400\n  7610: u64 [a5 + 0x60] = a4\n  7613: u64 [a5 + 0x80] = a2\n  7617: u64 [s1 + 1128] = 0\n  7621: u64 [a5 + 0x88] = a1\n  7625: u64 [s1 + 1136] = 0\n  7629: u64 [a5 + 0x90] = a0\n  7633: u64 [s1 + 1144] = 0\n  7637: a0 = s1 + 0x480\n  7641: a1 = s1 + 0x460\n  7645: u64 [a5 + 0x98] = a3\n  7649: ra = 240, jump @410\n      : @272 [@dyn 120] (gas: 4)\n  7655: a3 = u64 [s1 + 0x90]\n  7659: a0 = a3 >u 0\n  7661: a1 = u64 [s1 + 0xb8]\n  7665: t0 = 242, jump @474\n      : @273 [@dyn 121] (gas: 1)\n  7671: jump @393 if a2 == 0\n      : @274 (gas: 3)\n  7675: a0 = s1 + 0x440\n  7679: a1 = u64 [s1 + 0x88]\n  7683: ra = 244, jump @7\n      : @275 [@dyn 122] (gas: 11)\n  7689: a0 = u64 [s1 + 0x458]\n  7693: u64 [s1 + 0x90] = a0\n  7697: a0 = u64 [s1 + 0x450]\n  7701: u64 [s1 + 0x88] = a0\n  7705: a0 = u64 [s1 + 0x448]\n  7709: u64 [s1 + 0x80] = a0\n  7713: a0 = u64 [s1 + 0x440]\n  7717: u64 [s1 + 0x78] = a0\n  7720: a0 = s1 + 0x420\n  7724: a1 = 0x40\n  7727: ra = 246, jump @7\n      : @276 [@dyn 123] (gas: 13)\n  7733: a0 = s1 + 0x400\n  7737: a4 = u64 [a0 + 0x38]\n  7740: a5 = u64 [a0 + 0x30]\n  7743: a3 = u64 [a0 + 0x28]\n  7746: a2 = u64 [a0 + 0x20]\n  7749: a0 = a3 | a4\n  7752: a1 = a2 | a5\n  7755: a1 = a1 | a0\n  7758: a1 = a1 >> 0x20\n  7761: a0 = a0 | a5\n  7764: a0 = a0 << 0x20\n  7767: a0 = a0 | a1\n  7770: jump @292 if a0 != 0\n      : @277 (gas: 15)\n  7774: a0 = u64 [s1 + 0x98]\n  7778: u64 [s1 + 0x400] = a0\n  7782: a0 = u64 [s1 + 0xa0]\n  7786: u64 [s1 + 0x408] = a0\n  7790: a0 = u64 [s1 + 0xa8]\n  7794: u64 [s1 + 0x410] = a0\n  7798: a1 = s1 + 0x400\n  7802: a0 = u64 [s1 + 0xb0]\n  7806: u64 [s1 + 0x418] = a0\n  7810: a0 = a2\n  7812: u64 [s1 + 0xb8] = a2\n  7816: u64 [s1 + 0xb0] = a3\n  7820: u64 [s1 + 0xa8] = a4\n  7824: u64 [s1 + 0xa0] = a5\n  7828: ra = 248, jump @9\n      : @278 [@dyn 124] (gas: 1)\n  7834: t0 = 250, jump @482\n      : @279 [@dyn 125] (gas: 1)\n  7840: jump @292 if a1 == 0\n      : @280 (gas: 11)\n  7844: i32 a0 = a2 + 0x20\n  7847: a1 = u64 [s1 + 0x78]\n  7850: u64 [s1 + 0x3e0] = a1\n  7854: a1 = u64 [s1 + 0x80]\n  7858: u64 [s1 + 0x3e8] = a1\n  7862: a1 = u64 [s1 + 0x88]\n  7866: u64 [s1 + 0x3f0] = a1\n  7870: a1 = s1 + 0x3e0\n  7874: a3 = u64 [s1 + 0x90]\n  7878: u64 [s1 + 0x3f8] = a3\n  7882: ra = 252, jump @9\n      : @281 [@dyn 126] (gas: 21)\n  7888: u64 [s1 + 952] = 0\n  7892: a0 = u64 [s1 + 0x40]\n  7895: a4 = s1 + 0x300\n  7899: u64 [a4 + 0xb0] = a0\n  7903: a0 = u64 [s1 + 0x60]\n  7906: u64 [a4 + 0xa8] = a0\n  7910: a0 = u64 [0x20020]\n  7915: a1 = u64 [0x20028]\n  7920: a2 = u64 [0x20030]\n  7925: a3 = u64 [s1 + 0x68]\n  7928: u64 [a4 + 0xa0] = a3\n  7932: u64 [a4 + 0xd8] = a0\n  7936: u64 [a4 + 0xd0] = a1\n  7940: u64 [a4 + 0xc8] = a2\n  7944: a0 = u64 [0x20038]\n  7949: a1 = 0x40\n  7952: a2 = s1 + 0x3c0\n  7956: a3 = s1 + 0x3a0\n  7960: u64 [a4 + 0xc0] = a0\n  7964: a0 = u64 [s1 + 0xb8]\n  7968: ra = 254, jump @13\n      : @282 [@dyn 127] (gas: 3)\n  7974: a0 = 0\n  7976: a1 = 0\n  7978: ra = 256, jump @15\n      : @283 [@dyn 128] (gas: 5)\n  7984: i32 a1 = a0 + 0\n  7986: a0 = 0\n  7988: a2 = 0\n  7990: ecalli 14 // 'seal_return'\n  7992: jump @357\n      : @284 (gas: 10)\n  7995: u64 [a2 + 1000] = 0\n  7999: u64 [a2 + 992] = 0\n  8003: u64 [a2 + 984] = 0\n  8007: u64 [a2 + 976] = 0\n  8011: a0 = s1 + 0x1000\n  8015: i32 a0 = a0 + 0xfffffffffffffc00\n  8019: ra = 0x102\n  8023: ecalli 17 // 'value_transferred'\n  8025: t0 = 0x104\n  8029: jump @487\n      : @285 [@dyn 129] (gas: 1)\n  8032: t0 = 260, jump @487\n      : @286 [@dyn 130] (gas: 8)\n  8038: a0 = u64 [a4 + 0xe0]\n  8042: a1 = u64 [a4 + 0xe8]\n  8046: a2 = u64 [a4 + 0xd8]\n  8050: a3 = u64 [a4 + 0xd0]\n  8054: a1 = a1 | a2\n  8057: a0 = a0 | a3\n  8060: a0 = a0 | a1\n  8063: jump @379 if a0 != 0\n      : @287 (gas: 3)\n  8067: a0 = u64 [s1 + 0xb8]\n  8071: a0 = i32 [a0]\n  8073: jump @380 if a0 <=u 3\n      : @288 (gas: 3)\n  8078: a0 = s1 + 0x260\n  8082: a1 = 0x40\n  8085: ra = 262, jump @7\n      : @289 [@dyn 131] (gas: 10)\n  8091: a1 = s1 + 0x200\n  8095: a0 = u64 [a1 + 0x78]\n  8098: u64 [s1 + 0xb8] = a0\n  8102: a0 = u64 [a1 + 0x70]\n  8105: u64 [s1 + 0xb0] = a0\n  8109: a0 = u64 [a1 + 0x68]\n  8112: u64 [s1 + 0xa0] = a0\n  8116: a0 = u64 [a1 + 0x60]\n  8119: u64 [s1 + 0xa8] = a0\n  8123: ra = 264, jump @0\n      : @290 [@dyn 132] (gas: 1)\n  8129: t0 = 266, jump @477\n      : @291 [@dyn 133] (gas: 1)\n  8135: jump @381 if a0 == 0\n      : @292 (gas: 1)\n  8139: trap\n      : @293 (gas: 3)\n  8140: a0 = s1 + 0x5c0\n  8144: a1 = 0x40\n  8147: ra = 268, jump @7\n      : @294 [@dyn 134] (gas: 13)\n  8153: a1 = s1 + 0x500\n  8157: a0 = u64 [a1 + 0xd8]\n  8161: u64 [s1 + 0xb0] = a0\n  8165: a0 = u64 [a1 + 0xd0]\n  8169: u64 [s1 + 0xa8] = a0\n  8173: a0 = u64 [a1 + 0xc8]\n  8177: u64 [s1 + 0xa0] = a0\n  8181: a0 = u64 [a1 + 0xc0]\n  8185: u64 [s1 + 0xb8] = a0\n  8189: ra = 0x10e\n  8193: ecalli 13 // 'return_data_size'\n  8195: t0 = 0x110\n  8199: jump @475\n      : @295 [@dyn 135] (gas: 1)\n  8202: t0 = 272, jump @475\n      : @296 [@dyn 136] (gas: 1)\n  8208: jump @292 if a1 != 0\n      : @297 (gas: 3)\n  8211: a2 = a0\n  8213: a0 = a0 >> 0x20\n  8216: jump @292 if a0 != 0\n      : @298 (gas: 1)\n  8219: t0 = 274, jump @485\n      : @299 [@dyn 137] (gas: 1)\n  8225: ra = 276, jump @15\n      : @300 [@dyn 138] (gas: 13)\n  8231: a1 = s1 + 0x7ff\n  8235: a1 = a1 + 0x31\n  8238: a2 = u64 [s1 + 0xa8]\n  8242: u32 [a1 + 0x4d0] = a2\n  8246: i32 a0 = a0 + 0\n  8248: a1 = s1 + 0x1000\n  8252: i32 a1 = a1 + 0xfffffffffffffd00\n  8256: a2 = 0\n  8258: ecalli 12 // 'return_data_copy'\n  8260: a0 = s1 + 0x7ff\n  8264: a0 = a0 + 0x31\n  8267: a0 = i32 [a0 + 0x4d0]\n  8271: jump @309\n      : @301 (gas: 4)\n  8274: a0 = s1 + 0x7ff\n  8278: a0 = a0 + 0x1e1\n  8282: a1 = 0x40\n  8285: ra = 278, jump @7\n      : @302 [@dyn 139] (gas: 15)\n  8291: a0 = s1 + 0x7ff\n  8295: a0 = a0 + 0x31\n  8298: a2 = a0 + 0x100\n  8302: a1 = u64 [a2 + 0xc8]\n  8306: u64 [s1 + 0xb0] = a1\n  8310: a1 = u64 [a2 + 0xc0]\n  8314: u64 [s1 + 0xa8] = a1\n  8318: a1 = u64 [a2 + 0xb8]\n  8322: u64 [s1 + 0xa0] = a1\n  8326: a0 = u64 [a2 + 0xb0]\n  8330: u64 [s1 + 0xb8] = a0\n  8334: ra = 0x118\n  8338: ecalli 13 // 'return_data_size'\n  8340: t0 = 0x11a\n  8344: jump @475\n      : @303 [@dyn 140] (gas: 1)\n  8347: t0 = 282, jump @475\n      : @304 [@dyn 141] (gas: 1)\n  8353: jump @292 if a1 != 0\n      : @305 (gas: 3)\n  8357: a2 = a0\n  8359: a0 = a0 >> 0x20\n  8362: jump @292 if a0 != 0\n      : @306 (gas: 1)\n  8366: t0 = 284, jump @485\n      : @307 [@dyn 142] (gas: 1)\n  8372: ra = 286, jump @15\n      : @308 [@dyn 143] (gas: 13)\n  8378: a1 = s1 + 0x7ff\n  8382: a1 = a1 + 0x31\n  8385: a2 = u64 [s1 + 0xa8]\n  8389: u32 [a1 + 0x610] = a2\n  8393: i32 a0 = a0 + 0\n  8395: a1 = s1 + 0x1000\n  8399: i32 a1 = a1 + 0xfffffffffffffe40\n  8403: a2 = 0\n  8405: ecalli 12 // 'return_data_copy'\n  8407: a0 = s1 + 0x7ff\n  8411: a0 = a0 + 0x31\n  8414: a0 = i32 [a0 + 0x610]\n  8418: fallthrough\n      : @309 (gas: 2)\n  8419: a1 = u64 [s1 + 0xb0]\n  8423: jump @292 if a0 <u a1\n      : @310 (gas: 2)\n  8427: ecalli 13 // 'return_data_size'\n  8429: fallthrough\n      : @311 (gas: 3)\n  8430: a1 = a0\n  8432: a0 = a0 >> 0x20\n  8435: jump @292 if a0 != 0\n      : @312 (gas: 3)\n  8439: a0 = u64 [s1 + 0xb8]\n  8443: u64 [s1 + 0xb0] = a1\n  8447: ra = 288, jump @15\n      : @313 [@dyn 144] (gas: 6)\n  8453: i32 a1 = a0 + 0\n  8455: a2 = i32 [s1 + 0xb0]\n  8459: a0 = 0x1\n  8462: ra = 0x158\n  8466: ecalli 14 // 'seal_return'\n  8468: jump @396\n      : @314 (gas: 6)\n  8471: ecalli 13 // 'return_data_size'\n  8473: u64 [s1 + 0x50] = a0\n  8476: a0 = s1 + 0x7ff\n  8480: a0 = a0 + 0xe1\n  8484: a1 = 0x40\n  8487: ra = 290, jump @7\n      : @315 [@dyn 145] (gas: 32)\n  8493: a5 = s1 + 0x7ff\n  8497: a5 = a5 + 0x31\n  8500: t0 = u64 [a5 + 0xc8]\n  8504: u64 [s1 + 0x58] = t0\n  8507: t1 = u64 [a5 + 0xc0]\n  8511: u64 [s1 + 0x48] = t1\n  8514: t2 = u64 [a5 + 0xb8]\n  8518: u64 [s1 + 0x60] = t2\n  8521: ra = u64 [a5 + 0xb0]\n  8525: u64 [s1 + 0x88] = ra\n  8529: a1 = u64 [s1 + 0x50]\n  8532: a0 = a1 + 0x1f\n  8535: a1 = a0 <u a1\n  8538: a0 = a0 & 0xffffffffffffffe0\n  8541: a2 = a0 + 0x20\n  8544: a0 = a2 <u a0\n  8547: a3 = a1 + a0\n  8550: a4 = a3 <u a1\n  8553: a4 = a0 if a0 == 0\n  8556: u64 [a5 + 136] = 0\n  8560: u64 [a5 + 0x70] = a2\n  8563: u64 [a5 + 0xa8] = t0\n  8567: u64 [a5 + 0xa0] = t1\n  8571: u64 [a5 + 0x98] = t2\n  8575: u64 [a5 + 0x90] = ra\n  8579: u64 [a5 + 0x78] = a3\n  8582: a0 = s1 + 0x7ff\n  8586: a0 = a0 + 0xc1\n  8590: a1 = s1 + 0x7ff\n  8594: a1 = a1 + 0xa1\n  8598: u64 [a5 + 0x80] = a4\n  8602: ra = 292, jump @410\n      : @316 [@dyn 146] (gas: 12)\n  8608: a2 = u64 [s1 + 0x88]\n  8612: a0 = u64 [s1 + 0x58]\n  8615: a1 = u64 [s1 + 0x60]\n  8618: a0 = a0 | a1\n  8621: a3 = u64 [s1 + 0x48]\n  8624: a1 = a2 | a3\n  8627: a1 = a1 | a0\n  8630: a1 = a1 >> 0x20\n  8633: a0 = a0 | a3\n  8636: a0 = a0 << 0x20\n  8639: a0 = a0 | a1\n  8642: jump @292 if a0 != 0\n      : @317 (gas: 11)\n  8646: a0 = s1 + 0x7ff\n  8650: a0 = a0 + 0x31\n  8653: u64 [a0 + 104] = 0\n  8656: u64 [a0 + 96] = 0\n  8659: u64 [a0 + 88] = 0\n  8662: a1 = s1 + 0x7ff\n  8666: a1 = a1 + 0x81\n  8670: a3 = u64 [s1 + 0x50]\n  8673: u64 [a0 + 0x50] = a3\n  8676: a0 = a2\n  8678: ra = 294, jump @9\n      : @318 [@dyn 147] (gas: 2)\n  8684: ecalli 13 // 'return_data_size'\n  8686: fallthrough\n      : @319 (gas: 10)\n  8687: a3 = u64 [s1 + 0x88]\n  8691: a1 = u64 [s1 + 0x58]\n  8694: a2 = u64 [s1 + 0x48]\n  8697: a1 = a1 | a2\n  8700: a2 = 0xffffffe0\n  8710: a2 = a3 <u a2\n  8713: a4 = u64 [s1 + 0x60]\n  8716: a2 = 0 if a4 != 0\n  8718: a2 = 0 if a1 != 0\n  8720: jump @292 if a2 == 0\n      : @320 (gas: 3)\n  8724: a1 = a0\n  8726: a0 = a0 >> 0x20\n  8729: jump @292 if a0 != 0\n      : @321 (gas: 7)\n  8733: i32 a0 = a3 + 0x20\n  8736: a2 = a1\n  8738: u64 [s1 + 0x60] = a1\n  8741: i32 a1 = a1 + 0\n  8743: u64 [s1 + 0x88] = a1\n  8747: a1 = a2\n  8749: ra = 296, jump @15\n      : @322 [@dyn 148] (gas: 10)\n  8755: a1 = s1 + 0x7ff\n  8759: a1 = a1 + 0x31\n  8762: a2 = u64 [s1 + 0x60]\n  8765: u32 [a1 + 0x690] = a2\n  8769: i32 a0 = a0 + 0\n  8771: a1 = s1 + 0x1000\n  8775: i32 a1 = a1 + 0xfffffffffffffec0\n  8779: a2 = 0\n  8781: ecalli 12 // 'return_data_copy'\n  8783: fallthrough\n      : @323 (gas: 6)\n  8784: a0 = s1 + 0x7ff\n  8788: a0 = a0 + 0x31\n  8791: a0 = i32 [a0 + 0x690]\n  8795: a2 = u64 [s1 + 0x90]\n  8799: a1 = u64 [s1 + 0x88]\n  8803: jump @200 if a0 >=u a1\n      : @324 (gas: 1)\n  8807: jump @292\n      : @325 (gas: 3)\n  8810: a0 = s1 + 0x4a0\n  8814: a1 = 0x40\n  8817: ra = 298, jump @7\n      : @326 [@dyn 149] (gas: 13)\n  8823: a1 = s1 + 0x400\n  8827: a0 = u64 [a1 + 0xb8]\n  8831: u64 [s1 + 0xb0] = a0\n  8835: a0 = u64 [a1 + 0xb0]\n  8839: u64 [s1 + 0xa8] = a0\n  8843: a0 = u64 [a1 + 0xa8]\n  8847: u64 [s1 + 0xa0] = a0\n  8851: a0 = u64 [a1 + 0xa0]\n  8855: u64 [s1 + 0xb8] = a0\n  8859: ra = 0x12c\n  8863: ecalli 13 // 'return_data_size'\n  8865: t0 = 0x12e\n  8869: jump @475\n      : @327 [@dyn 150] (gas: 1)\n  8872: t0 = 302, jump @475\n      : @328 [@dyn 151] (gas: 1)\n  8878: jump @292 if a1 != 0\n      : @329 (gas: 3)\n  8882: a2 = a0\n  8884: a0 = a0 >> 0x20\n  8887: jump @292 if a0 != 0\n      : @330 (gas: 1)\n  8891: t0 = 304, jump @485\n      : @331 [@dyn 152] (gas: 1)\n  8897: ra = 306, jump @15\n      : @332 [@dyn 153] (gas: 13)\n  8903: a1 = s1 + 0x7ff\n  8907: a1 = a1 + 0x31\n  8910: a2 = u64 [s1 + 0xa8]\n  8914: u32 [a1 + 0x550] = a2\n  8918: i32 a0 = a0 + 0\n  8920: a1 = s1 + 0x1000\n  8924: i32 a1 = a1 + 0xfffffffffffffd80\n  8928: a2 = 0\n  8930: ecalli 12 // 'return_data_copy'\n  8932: a0 = s1 + 0x7ff\n  8936: a0 = a0 + 0x31\n  8939: a0 = i32 [a0 + 0x550]\n  8943: jump @309\n      : @333 (gas: 3)\n  8946: a0 = s1 + 0x7e0\n  8950: a1 = 0x40\n  8953: ra = 308, jump @7\n      : @334 [@dyn 154] (gas: 13)\n  8959: a1 = s1 + 0x700\n  8963: a0 = u64 [a1 + 0xf8]\n  8967: u64 [s1 + 0xb0] = a0\n  8971: a0 = u64 [a1 + 0xf0]\n  8975: u64 [s1 + 0xa8] = a0\n  8979: a0 = u64 [a1 + 0xe8]\n  8983: u64 [s1 + 0xa0] = a0\n  8987: a0 = u64 [a1 + 0xe0]\n  8991: u64 [s1 + 0xb8] = a0\n  8995: ra = 0x136\n  8999: ecalli 13 // 'return_data_size'\n  9001: t0 = 0x138\n  9005: jump @475\n      : @335 [@dyn 155] (gas: 1)\n  9008: t0 = 312, jump @475\n      : @336 [@dyn 156] (gas: 1)\n  9014: jump @292 if a1 != 0\n      : @337 (gas: 3)\n  9018: a2 = a0\n  9020: a0 = a0 >> 0x20\n  9023: jump @292 if a0 != 0\n      : @338 (gas: 1)\n  9027: t0 = 314, jump @485\n      : @339 [@dyn 157] (gas: 1)\n  9033: ra = 316, jump @15\n      : @340 [@dyn 158] (gas: 13)\n  9039: a1 = s1 + 0x7ff\n  9043: a1 = a1 + 0x31\n  9046: a2 = u64 [s1 + 0xa8]\n  9050: u32 [a1 + 0x710] = a2\n  9054: i32 a0 = a0 + 0\n  9056: a1 = s1 + 0x1000\n  9060: i32 a1 = a1 + 0xffffffffffffff40\n  9064: a2 = 0\n  9066: ecalli 12 // 'return_data_copy'\n  9068: a0 = s1 + 0x7ff\n  9072: a0 = a0 + 0x31\n  9075: a0 = i32 [a0 + 0x710]\n  9079: jump @309\n      : @341 (gas: 3)\n  9082: a0 = 0\n  9084: a1 = 0\n  9086: ra = 318, jump @15\n      : @342 [@dyn 159] (gas: 5)\n  9092: i32 a1 = a0 + 0\n  9094: a0 = 0x1\n  9097: a2 = 0\n  9099: ecalli 14 // 'seal_return'\n  9101: jump @357\n      : @343 (gas: 3)\n  9104: a1 = 0x20070\n  9109: i32 a1 = a1 + 0\n  9111: jump @356\n      : @344 (gas: 3)\n  9114: a1 = 0x20070\n  9119: i32 a1 = a1 + 0\n  9121: jump @356\n      : @345 (gas: 3)\n  9124: a1 = 0x20070\n  9129: i32 a1 = a1 + 0\n  9131: jump @356\n      : @346 (gas: 3)\n  9133: a1 = 0x20070\n  9138: i32 a1 = a1 + 0\n  9140: jump @356\n      : @347 (gas: 8)\n  9142: u64 [s1 + 304] = 0\n  9146: u64 [s1 + 296] = 0\n  9150: u64 [s1 + 288] = 0\n  9154: a0 = 0xc39fa00400000000\n  9164: a1 = s1 + 0x120\n  9168: u64 [s1 + 0x138] = a0\n  9172: a0 = 0\n  9174: ra = 320, jump @9\n      : @348 [@dyn 160] (gas: 2)\n  9180: a1 = i32 [0x20068]\n  9185: jump @350 if a1 >u 31\n      : @349 (gas: 4)\n  9189: u32 [0x20068] = 0x20\n  9195: a1 = 0x20070\n  9200: i32 a1 = a1 + 0\n  9202: jump @377\n      : @350 (gas: 3)\n  9205: a1 = 0x20070\n  9210: i32 a1 = a1 + 0\n  9212: jump @377\n      : @351 (gas: 3)\n  9215: a1 = 0x20070\n  9220: i32 a1 = a1 + 0\n  9222: jump @356\n      : @352 (gas: 3)\n  9224: a1 = 0x20070\n  9229: i32 a1 = a1 + 0\n  9231: jump @356\n      : @353 (gas: 3)\n  9233: a0 = u64 [s1 + 0xb8]\n  9237: a0 = i32 [a0]\n  9239: fallthrough\n      : @354 (gas: 1)\n  9240: jump @357 if a0 == 0\n      : @355 (gas: 3)\n  9243: a1 = 0x20070\n  9248: i32 a1 = a1 + 0\n  9250: fallthrough\n      : @356 (gas: 4)\n  9251: a0 = 0x1\n  9254: a2 = 0\n  9256: ecalli 14 // 'seal_return'\n  9258: fallthrough\n      : @357 (gas: 6)\n  9259: a1 = 0x20070\n  9264: i32 a1 = a1 + 0\n  9266: a0 = 0\n  9268: a2 = 0\n  9270: ecalli 14 // 'seal_return'\n  9272: jump @357\n      : @358 (gas: 6)\n  9274: a1 = 0x20070\n  9279: i32 a1 = a1 + 0\n  9281: a0 = 0x1\n  9284: a2 = 0\n  9286: ecalli 14 // 'seal_return'\n  9288: jump @357\n      : @359 (gas: 6)\n  9290: a1 = 0x20070\n  9295: i32 a1 = a1 + 0\n  9297: a0 = 0x1\n  9300: a2 = 0\n  9302: ecalli 14 // 'seal_return'\n  9304: jump @357\n      : @360 (gas: 12)\n  9306: a2 = s1 + 0x7ff\n  9310: a2 = a2 + 0x31\n  9313: u64 [a2 + 576] = 0\n  9317: u64 [a2 + 568] = 0\n  9321: a0 = 0xc39fa00400000000\n  9331: u64 [a2 + 0x248] = a0\n  9335: a1 = s1 + 0x7ff\n  9339: a1 = a1 + 0x261\n  9343: u64 [a2 + 560] = 0\n  9347: a0 = 0\n  9349: ra = 0x142\n  9353: jump @9\n      : @361 (gas: 8)\n  9356: u64 [s1 + 1680] = 0\n  9360: u64 [s1 + 1672] = 0\n  9364: u64 [s1 + 1664] = 0\n  9368: a0 = 0x2c5211c600000000\n  9378: a1 = s1 + 0x680\n  9382: u64 [s1 + 0x698] = a0\n  9386: a0 = 0\n  9388: ra = 322, jump @9\n      : @362 [@dyn 161] (gas: 3)\n  9394: a1 = 0x4\n  9397: a0 = 0\n  9399: ra = 324, jump @15\n      : @363 [@dyn 162] (gas: 2)\n  9405: i32 a1 = a0 + 0\n  9407: jump @377\n      : @364 (gas: 6)\n  9410: a1 = 0x20070\n  9415: i32 a1 = a1 + 0\n  9417: a0 = 0x1\n  9420: a2 = 0\n  9422: ecalli 14 // 'seal_return'\n  9424: jump @357\n      : @365 (gas: 8)\n  9427: u64 [s1 + 1616] = 0\n  9431: u64 [s1 + 1608] = 0\n  9435: u64 [s1 + 1600] = 0\n  9439: a0 = 0xc39fa00400000000\n  9449: a1 = s1 + 0x640\n  9453: u64 [s1 + 0x658] = a0\n  9457: a0 = 0\n  9459: ra = 326, jump @9\n      : @366 [@dyn 163] (gas: 2)\n  9465: a1 = i32 [0x20068]\n  9470: jump @368 if a1 >u 31\n      : @367 (gas: 4)\n  9474: u32 [0x20068] = 0x20\n  9480: a1 = 0x20070\n  9485: i32 a1 = a1 + 0\n  9487: jump @377\n      : @368 (gas: 3)\n  9490: a1 = 0x20070\n  9495: i32 a1 = a1 + 0\n  9497: jump @377\n      : @369 (gas: 8)\n  9500: u64 [s1 + 1584] = 0\n  9504: u64 [s1 + 1576] = 0\n  9508: u64 [s1 + 1568] = 0\n  9512: a0 = 0x2c5211c600000000\n  9522: a1 = s1 + 0x620\n  9526: u64 [s1 + 0x638] = a0\n  9530: a0 = 0\n  9532: ra = 328, jump @9\n      : @370 [@dyn 164] (gas: 2)\n  9538: a1 = i32 [0x20068]\n  9543: jump @372 if a1 >u 31\n      : @371 (gas: 4)\n  9547: u32 [0x20068] = 0x20\n  9553: a1 = 0x20070\n  9558: i32 a1 = a1 + 0\n  9560: jump @377\n      : @372 (gas: 3)\n  9562: a1 = 0x20070\n  9567: i32 a1 = a1 + 0\n  9569: jump @377\n      : @373 (gas: 8)\n  9571: u64 [s1 + 848] = 0\n  9575: u64 [s1 + 840] = 0\n  9579: u64 [s1 + 832] = 0\n  9583: a0 = 0x2c5211c600000000\n  9593: a1 = s1 + 0x340\n  9597: u64 [s1 + 0x358] = a0\n  9601: a0 = 0\n  9603: ra = 330, jump @9\n      : @374 [@dyn 165] (gas: 2)\n  9609: a1 = i32 [0x20068]\n  9614: jump @376 if a1 >u 31\n      : @375 (gas: 4)\n  9618: u32 [0x20068] = 0x20\n  9624: a1 = 0x20070\n  9629: i32 a1 = a1 + 0\n  9631: jump @377\n      : @376 (gas: 3)\n  9633: a1 = 0x20070\n  9638: i32 a1 = a1 + 0\n  9640: fallthrough\n      : @377 (gas: 4)\n  9641: a0 = 0x1\n  9644: a2 = 0x4\n  9647: ecalli 14 // 'seal_return'\n  9649: fallthrough\n      : @378 (gas: 6)\n  9650: a1 = 0x20070\n  9655: i32 a1 = a1 + 0\n  9657: a0 = 0x1\n  9660: a2 = 0\n  9662: ecalli 14 // 'seal_return'\n  9664: jump @357\n      : @379 (gas: 6)\n  9667: a1 = 0x20070\n  9672: i32 a1 = a1 + 0\n  9674: a0 = 0x1\n  9677: a2 = 0\n  9679: ecalli 14 // 'seal_return'\n  9681: jump @357\n      : @380 (gas: 6)\n  9684: a1 = 0x20070\n  9689: i32 a1 = a1 + 0\n  9691: a0 = 0x1\n  9694: a2 = 0\n  9696: ecalli 14 // 'seal_return'\n  9698: jump @357\n      : @381 (gas: 11)\n  9701: a2 = u64 [0x300d0]\n  9706: a1 = u64 [0x300d8]\n  9711: a0 = u32 [0x300e0]\n  9716: u64 [s1 + 600] = 0\n  9720: a4 = s1 + 0x200\n  9724: u64 [a4 + 0x50] = a0\n  9727: u64 [a4 + 0x48] = a1\n  9730: a1 = s1 + 0x240\n  9734: u64 [a4 + 0x40] = a2\n  9737: a0 = a3\n  9739: ra = 332, jump @9\n      : @382 [@dyn 166] (gas: 3)\n  9745: a1 = 0x20\n  9748: a0 = u64 [s1 + 0xa8]\n  9752: ra = 334, jump @15\n      : @383 [@dyn 167] (gas: 5)\n  9758: i32 a1 = a0 + 0\n  9760: a2 = 0x20\n  9763: a0 = 0\n  9765: ecalli 14 // 'seal_return'\n  9767: fallthrough\n      : @384 (gas: 8)\n  9768: u64 [s1 + 912] = 0\n  9772: u64 [s1 + 904] = 0\n  9776: u64 [s1 + 896] = 0\n  9780: a0 = 0x4e487b7100000000\n  9790: a1 = s1 + 0x380\n  9794: u64 [s1 + 0x398] = a0\n  9798: a0 = 0\n  9800: ra = 336, jump @9\n      : @385 [@dyn 168] (gas: 8)\n  9806: u64 [s1 + 888] = 0\n  9810: u64 [s1 + 880] = 0\n  9814: u64 [s1 + 864] = 0x11\n  9819: a0 = 0x4\n  9822: a1 = s1 + 0x360\n  9826: u64 [s1 + 872] = 0\n  9830: ra = 0x154\n  9834: jump @9\n      : @386 (gas: 3)\n  9837: a1 = 0x20070\n  9842: i32 a1 = a1 + 0\n  9844: jump @395\n      : @387 (gas: 12)\n  9847: a2 = s1 + 0x7ff\n  9851: a2 = a2 + 0x31\n  9854: u64 [a2 + 320] = 0\n  9858: u64 [a2 + 312] = 0\n  9862: a0 = 0xbb1205c200000000\n  9872: u64 [a2 + 0x148] = a0\n  9876: a1 = s1 + 0x7ff\n  9880: a1 = a1 + 0x161\n  9884: u64 [a2 + 304] = 0\n  9888: a0 = 0\n  9890: ra = 0x142\n  9894: jump @9\n      : @388 (gas: 8)\n  9897: u64 [s1 + 1744] = 0\n  9901: u64 [s1 + 1736] = 0\n  9905: u64 [s1 + 1728] = 0\n  9909: a0 = 0x4e487b7100000000\n  9919: a1 = s1 + 0x6c0\n  9923: u64 [s1 + 0x6d8] = a0\n  9927: a0 = 0\n  9929: ra = 338, jump @9\n      : @389 [@dyn 169] (gas: 7)\n  9935: u64 [s1 + 1720] = 0\n  9939: u64 [s1 + 1712] = 0\n  9943: u64 [s1 + 1696] = 0x11\n  9948: a0 = 0x4\n  9951: a1 = s1 + 0x6a0\n  9955: u64 [s1 + 1704] = 0\n  9959: ra = 340, jump @9\n      : @390 [@dyn 170] (gas: 3)\n  9965: a1 = 0x24\n  9968: a0 = 0\n  9970: ra = 342, jump @15\n      : @391 [@dyn 171] (gas: 5)\n  9976: i32 a1 = a0 + 0\n  9978: a0 = 0x1\n  9981: a2 = 0x24\n  9984: ecalli 14 // 'seal_return'\n  9986: fallthrough\n      : @392 (gas: 12)\n  9987: a2 = s1 + 0x7ff\n  9991: a2 = a2 + 0x31\n  9994: u64 [a2 + 64] = 0\n  9997: u64 [a2 + 56] = 0\n 10000: a0 = 0xbb1205c200000000\n 10010: u64 [a2 + 0x48] = a0\n 10013: a1 = s1 + 0x7ff\n 10017: a1 = a1 + 0x61\n 10020: u64 [a2 + 48] = 0\n 10023: a0 = 0\n 10025: ra = 0x142\n 10029: jump @9\n      : @393 (gas: 3)\n 10032: a1 = 0x20070\n 10037: i32 a1 = a1 + 0\n 10039: jump @395\n      : @394 (gas: 3)\n 10041: a1 = 0x20070\n 10046: i32 a1 = a1 + 0\n 10048: fallthrough\n      : @395 (gas: 4)\n 10049: a0 = 0x1\n 10052: ra = 0x158\n 10056: ecalli 14 // 'seal_return'\n 10058: fallthrough\n      : @396 [@dyn 172] (gas: 18)\n 10059: sp = sp + 0xffffffffffffffc0\n 10062: u64 [sp + 0x38] = ra\n 10065: u64 [sp + 0x30] = s0\n 10068: u64 [sp + 0x28] = s1\n 10071: s0 = sp + 0x40\n 10074: sp = sp & 0xfffffffffffffff0\n 10077: a2 = u64 [a1 + 0x10]\n 10080: a3 = u64 [a1 + 0x18]\n 10083: a4 = u64 [a1 + 0x8]\n 10086: a1 = u64 [a1]\n 10088: a3 = a3 | a4\n 10091: a4 = a1 | a2\n 10094: a4 = a4 | a3\n 10097: a4 = a4 >> 0x20\n 10100: a2 = a2 | a3\n 10103: a2 = a2 << 0x20\n 10106: a2 = a2 | a4\n 10109: jump @402 if a2 != 0\n      : @397 (gas: 3)\n 10112: s1 = a0\n 10114: a0 = sp\n 10116: ra = 346, jump @7\n      : @398 [@dyn 173] (gas: 1)\n 10122: t0 = 348, jump @481\n      : @399 [@dyn 174] (gas: 1)\n 10128: jump @403 if a3 == 0\n      : @400 (gas: 1)\n 10131: t0 = 350, jump @484\n      : @401 [@dyn 175] (gas: 1)\n 10137: ret\n      : @402 (gas: 1)\n 10139: trap\n      : @403 (gas: 7)\n 10140: a1 = 0x20070\n 10145: i32 a1 = a1 + 0\n 10147: a0 = 0x1\n 10150: a2 = 0\n 10152: ra = 0x160\n 10156: ecalli 14 // 'seal_return'\n 10158: fallthrough\n      : @404 [@dyn 176] (gas: 13)\n 10159: sp = sp + 0xffffffffffffffc0\n 10162: u64 [sp + 0x38] = ra\n 10165: u64 [sp + 0x30] = s0\n 10168: u64 [sp + 0x28] = s1\n 10171: s0 = sp + 0x40\n 10174: sp = sp & 0xffffffffffffffe0\n 10177: s1 = a0\n 10179: i32 a0 = sp + 0\n 10181: a1 = 0x4\n 10184: ra = 0x162\n 10188: ecalli 3 // 'call_data_load'\n 10190: t0 = 0x164\n 10194: jump @481\n      : @405 [@dyn 177] (gas: 1)\n 10197: t0 = 356, jump @481\n      : @406 [@dyn 178] (gas: 1)\n 10203: jump @409 if a3 == 0\n      : @407 (gas: 1)\n 10206: t0 = 358, jump @484\n      : @408 [@dyn 179] (gas: 1)\n 10212: ret\n      : @409 (gas: 7)\n 10214: a1 = 0x20070\n 10219: i32 a1 = a1 + 0\n 10221: a0 = 0x1\n 10224: a2 = 0\n 10226: ra = 0x168\n 10230: ecalli 14 // 'seal_return'\n 10232: fallthrough\n      : @410 [@dyn 180] (gas: 46)\n 10233: sp = sp + 0xffffffffffffff70\n 10237: u64 [sp + 0x88] = ra\n 10241: u64 [sp + 0x80] = s0\n 10245: u64 [sp + 0x78] = s1\n 10248: s0 = sp + 0x90\n 10252: sp = sp & 0xfffffffffffffff0\n 10255: t0 = a0\n 10257: a2 = u64 [a1]\n 10259: t2 = u64 [a0 + 0x8]\n 10262: a5 = u64 [a1 + 0x8]\n 10265: t1 = u64 [a0]\n 10267: a3 = a2 + 0x1f\n 10270: ra = a3 <u a2\n 10273: a2 = a5 + ra\n 10276: a3 = a3 & 0xffffffffffffffe0\n 10279: u64 [sp + 0x8] = t1\n 10282: t1 = t1 + a3\n 10285: a4 = t1 <u a3\n 10288: a3 = a2 + t2\n 10291: a3 = a3 + a4\n 10294: s1 = a3 ^ a2\n 10297: a0 = a3 <u a2\n 10300: a0 = a4 if s1 == 0\n 10303: a4 = u64 [t0 + 0x18]\n 10306: a5 = a2 <u a5\n 10309: s1 = u64 [a1 + 0x10]\n 10312: t0 = u64 [t0 + 0x10]\n 10315: a1 = u64 [a1 + 0x18]\n 10318: a5 = ra if ra == 0\n 10321: a5 = a5 + s1\n 10324: s1 = a5 <u s1\n 10327: a2 = a5 + t0\n 10330: a0 = a0 + a2\n 10333: a5 = a2 <u a5\n 10336: a2 = a0 <u a2\n 10339: a1 = a1 + a4\n 10342: a1 = a1 + s1\n 10345: a1 = a1 + a5\n 10348: a5 = a1 + a2\n 10351: a1 = a5 >u 0\n 10353: a2 = a0 >u 0\n 10355: a2 = a1 if a5 != 0\n 10358: a1 = a0 | a5\n 10361: s1 = a3 >u 0\n 10363: s1 = a2 if a1 != 0\n 10366: jump @414 if s1 != 0\n      : @411 (gas: 13)\n 10369: a1 = u64 [sp + 0x8]\n 10372: a1 = t1 <u a1\n 10375: a2 = a3 ^ t2\n 10378: s1 = a3 <u t2\n 10381: s1 = a1 if a2 == 0\n 10384: a1 = a0 <u t0\n 10387: a2 = a5 ^ a4\n 10390: a4 = a5 <u a4\n 10393: a4 = a1 if a2 == 0\n 10396: a1 = a0 ^ t0\n 10399: a1 = a1 | a2\n 10402: a4 = s1 if a1 == 0\n 10405: jump @414 if a4 != 0\n      : @412 (gas: 7)\n 10408: u64 [sp + 0x50] = t1\n 10411: u64 [sp + 0x58] = a3\n 10414: u64 [sp + 0x60] = a0\n 10417: a0 = 0x40\n 10420: a1 = sp + 0x50\n 10423: u64 [sp + 0x68] = a5\n 10426: ra = 362, jump @9\n      : @413 [@dyn 181] (gas: 6)\n 10432: sp = s0 + 0xffffffffffffff70\n 10436: ra = u64 [sp + 0x88]\n 10440: s0 = u64 [sp + 0x80]\n 10444: s1 = u64 [sp + 0x78]\n 10447: sp = sp + 0x90\n 10451: ret\n      : @414 (gas: 8)\n 10453: u64 [sp + 64] = 0\n 10456: u64 [sp + 56] = 0\n 10459: u64 [sp + 48] = 0\n 10462: a0 = 0x4e487b7100000000\n 10472: a1 = sp + 0x30\n 10475: u64 [sp + 0x48] = a0\n 10478: a0 = 0\n 10480: ra = 364, jump @9\n      : @415 [@dyn 182] (gas: 7)\n 10486: u64 [sp + 40] = 0\n 10489: u64 [sp + 32] = 0\n 10492: u64 [sp + 16] = 0x41\n 10496: a0 = 0x4\n 10499: a1 = sp + 0x10\n 10502: u64 [sp + 24] = 0\n 10505: ra = 366, jump @9\n      : @416 [@dyn 183] (gas: 2)\n 10511: a1 = i32 [0x20068]\n 10516: jump @418 if a1 >u 63\n      : @417 (gas: 2)\n 10520: u32 [0x20068] = 0x40\n 10526: fallthrough\n      : @418 (gas: 7)\n 10527: a1 = 0x20070\n 10532: i32 a1 = a1 + 0\n 10534: a0 = 0x1\n 10537: a2 = 0x24\n 10540: ra = 0x170\n 10544: ecalli 14 // 'seal_return'\n 10546: fallthrough\n      : @419 [@dyn 184] (gas: 11)\n 10547: sp = sp + 0xfffffffffffffbc0\n 10551: a1 = sp + 0x400\n 10555: u64 [a1 + 0x38] = ra\n 10558: u64 [a1 + 0x30] = s0\n 10561: u64 [a1 + 0x28] = s1\n 10564: s0 = sp + 0x440\n 10568: sp = sp & 0xffffffffffffffe0\n 10571: u64 [sp + 0x20] = a0\n 10574: a0 = sp + 0x3a0\n 10578: a1 = 0x40\n 10581: ra = 370, jump @7\n      : @420 [@dyn 185] (gas: 19)\n 10587: a4 = sp + 0x300\n 10591: a0 = u64 [a4 + 0xb8]\n 10595: u64 [sp + 0xc8] = a0\n 10599: s1 = u64 [a4 + 0xb0]\n 10603: a1 = u64 [a4 + 0xa8]\n 10607: u64 [sp + 0xc0] = a1\n 10611: a2 = u64 [a4 + 0xa0]\n 10615: u64 [sp + 0xd0] = a2\n 10619: u64 [a4 + 120] = 0\n 10622: u64 [a4 + 112] = 0\n 10625: u64 [a4 + 104] = 0\n 10628: u64 [a4 + 96] = 0x40\n 10632: u64 [a4 + 0x98] = a0\n 10636: u64 [a4 + 0x90] = s1\n 10640: u64 [a4 + 0x88] = a1\n 10644: a0 = sp + 0x380\n 10648: a1 = sp + 0x360\n 10652: u64 [a4 + 0x80] = a2\n 10656: ra = 372, jump @410\n      : @421 [@dyn 186] (gas: 12)\n 10662: a0 = u64 [sp + 0xd0]\n 10666: a2 = u64 [sp + 0xc8]\n 10670: a1 = u64 [sp + 0xc0]\n 10674: a2 = a2 | a1\n 10677: a1 = a0 | s1\n 10680: a1 = a1 | a2\n 10683: a1 = a1 >> 0x20\n 10686: u64 [sp + 0xa8] = s1\n 10690: a2 = a2 | s1\n 10693: a2 = a2 << 0x20\n 10696: a1 = a1 | a2\n 10699: jump @465 if a1 != 0\n      : @422 (gas: 8)\n 10703: a2 = sp + 0x300\n 10707: u64 [a2 + 88] = 0\n 10710: u64 [a2 + 80] = 0\n 10713: u64 [a2 + 72] = 0\n 10716: s1 = 0x1\n 10719: a1 = sp + 0x340\n 10723: u64 [a2 + 0x40] = s1\n 10726: ra = 374, jump @9\n      : @423 [@dyn 187] (gas: 11)\n 10732: a2 = u64 [sp + 0xd0]\n 10736: a1 = u64 [sp + 0xc8]\n 10740: a0 = u64 [sp + 0xa8]\n 10744: a0 = a0 | a1\n 10747: s1 = s1 << 0x20\n 10750: s1 = s1 + 0xffffffffffffffe0\n 10753: a1 = a2 <u s1\n 10756: a3 = u64 [sp + 0xc0]\n 10760: a1 = 0 if a3 != 0\n 10762: a1 = 0 if a0 != 0\n 10764: jump @465 if a1 == 0\n      : @424 (gas: 7)\n 10768: a0 = i32 [0x20064]\n 10773: u64 [sp + 0xb8] = a0\n 10777: a0 = a2 + 0x20\n 10780: a1 = 0x20\n 10783: u64 [sp + 0xd8] = a0\n 10787: s1 = a2\n 10789: ra = 376, jump @15\n      : @425 [@dyn 188] (gas: 7)\n 10795: i32 a0 = a0 + 0\n 10797: a1 = 0x20\n 10800: a2 = u64 [sp + 0xb8]\n 10804: ecalli 2 // 'call_data_copy'\n 10806: a0 = sp + 0x320\n 10810: a1 = s1\n 10812: ra = 378, jump @7\n      : @426 [@dyn 189] (gas: 9)\n 10818: a4 = sp + 0x300\n 10822: a0 = u64 [a4 + 0x30]\n 10825: a1 = u64 [a4 + 0x38]\n 10828: a2 = u64 [a4 + 0x28]\n 10831: a3 = u64 [a4 + 0x20]\n 10834: a1 = a1 | a2\n 10837: a0 = a0 | a3\n 10840: a0 = a0 | a1\n 10843: jump @466 if a0 == 0\n      : @427 (gas: 1)\n 10847: ra = 380, jump @0\n      : @428 [@dyn 190] (gas: 12)\n 10853: s1 = 0x30090\n 10858: a0 = u64 [0x30090]\n 10863: a1 = u64 [0x30098]\n 10868: a2 = u32 [0x300a0]\n 10873: a3 = sp + 0x300\n 10877: u64 [a3 + 24] = 0\n 10880: u64 [a3 + 0x10] = a2\n 10883: u64 [a3 + 0x8] = a1\n 10886: a1 = sp + 0x300\n 10890: u64 [a3] = a0\n 10892: a0 = u64 [sp + 0xd8]\n 10896: ra = 382, jump @9\n      : @429 [@dyn 191] (gas: 1)\n 10902: ra = 384, jump @0\n      : @430 [@dyn 192] (gas: 24)\n 10908: a0 = u64 [s1 + 0x28]\n 10911: a1 = u64 [s1 + 0x30]\n 10914: a2 = u64 [s1 + 0x20]\n 10917: a0 = reverse a0\n 10919: a3 = a0 << 0x20\n 10922: a1 = reverse a1\n 10924: a1 = a1 >> 0x20\n 10927: a3 = a3 | a1\n 10930: a0 = a0 >> 0x20\n 10933: a1 = reverse a2\n 10935: s1 = 0x30070\n 10940: a2 = a1 << 0x20\n 10943: a0 = a0 | a2\n 10946: a1 = a1 >> 0x20\n 10949: u64 [sp + 0x10] = a1\n 10952: u32 [0x30080] = a1\n 10957: u64 [sp + 0x8] = a0\n 10960: u64 [0x30078] = a0\n 10965: u64 [sp + 0x18] = a3\n 10968: u64 [0x30070] = a3\n 10973: i32 a0 = s1 + 0\n 10975: u64 [sp + 0x28] = a0\n 10978: ecalli 6 // 'code_size'\n 10980: fallthrough\n      : @431 (gas: 1)\n 10981: jump @471 if a0 == 0\n      : @432 (gas: 4)\n 10985: u64 [sp + 0x30] = s1\n 10988: a0 = sp + 0x2e0\n 10992: a1 = 0x40\n 10995: ra = 386, jump @7\n      : @433 [@dyn 193] (gas: 15)\n 11001: a3 = sp + 0x200\n 11005: a2 = u64 [a3 + 0xf8]\n 11009: s1 = u64 [a3 + 0xf0]\n 11013: a1 = u64 [a3 + 0xe8]\n 11017: a0 = u64 [a3 + 0xe0]\n 11021: u64 [sp + 0x40] = a1\n 11024: u64 [sp + 0x38] = a2\n 11027: a2 = a2 | a1\n 11030: a1 = a0 | s1\n 11033: a1 = a1 | a2\n 11036: a1 = a1 >> 0x20\n 11039: a2 = a2 | s1\n 11042: a2 = a2 << 0x20\n 11045: a1 = a1 | a2\n 11048: jump @465 if a1 != 0\n      : @434 (gas: 9)\n 11052: a3 = sp + 0x200\n 11056: u64 [a3 + 208] = 0\n 11060: u64 [a3 + 200] = 0\n 11064: u64 [a3 + 192] = 0\n 11068: a2 = 0x744532ae00000000\n 11078: a1 = sp + 0x2c0\n 11082: u64 [a3 + 0xd8] = a2\n 11086: u64 [sp + 0x48] = a0\n 11089: ra = 388, jump @9\n      : @435 [@dyn 194] (gas: 12)\n 11095: a1 = u64 [sp + 0x48]\n 11098: u64 [sp + 0x78] = s1\n 11101: a3 = u64 [sp + 0x38]\n 11104: a3 = a3 | s1\n 11107: s1 = 0x100000000\n 11117: a0 = 0xfffffffc\n 11127: a0 = a1 <u a0\n 11130: a2 = u64 [sp + 0x40]\n 11133: a0 = 0 if a2 != 0\n 11135: u64 [sp + 0xb8] = a3\n 11139: a0 = 0 if a3 != 0\n 11141: jump @465 if a0 == 0\n      : @436 (gas: 8)\n 11145: i32 a0 = a1 + 0x4\n 11148: a2 = sp + 0x200\n 11152: u64 [a2 + 184] = 0\n 11156: u64 [a2 + 176] = 0\n 11160: u64 [a2 + 168] = 0\n 11164: a1 = sp + 0x2a0\n 11168: u64 [a2 + 160] = 0\n 11172: ra = 390, jump @9\n      : @437 [@dyn 195] (gas: 4)\n 11178: a0 = u64 [sp + 0x28]\n 11181: ra = 0x188\n 11185: ecalli 0 // 'address'\n 11186: fallthrough\n      : @438 [@dyn 196] (gas: 8)\n 11187: a4 = u64 [sp + 0x48]\n 11190: a0 = s1 + 0xffffffffffffffdc\n 11193: a0 = a4 <u a0\n 11196: a1 = u64 [sp + 0x40]\n 11199: a0 = 0 if a1 != 0\n 11201: a1 = u64 [sp + 0xb8]\n 11205: a0 = 0 if a1 != 0\n 11207: jump @465 if a0 == 0\n      : @439 (gas: 4)\n 11211: a2 = u64 [sp + 0x30]\n 11214: a0 = u64 [a2 + 0x8]\n 11217: a1 = i32 [a2 + 0x10]\n 11220: t0 = 394, jump @480\n      : @440 [@dyn 197] (gas: 8)\n 11226: i32 a0 = a4 + 0x24\n 11229: a4 = sp + 0x200\n 11233: u64 [a4 + 152] = 0\n 11237: u64 [a4 + 0x90] = a1\n 11241: u64 [a4 + 0x88] = a2\n 11245: a1 = sp + 0x280\n 11249: u64 [a4 + 0x80] = a3\n 11253: ra = 396, jump @9\n      : @441 [@dyn 198] (gas: 10)\n 11259: a1 = u64 [sp + 0x48]\n 11262: s1 = 0x100000000\n 11272: u64 [sp + 0xb0] = s1\n 11276: a0 = 0xffffffbc\n 11286: a0 = a1 <u a0\n 11289: a2 = u64 [sp + 0x40]\n 11292: a0 = 0 if a2 != 0\n 11294: a2 = u64 [sp + 0xb8]\n 11298: a0 = 0 if a2 != 0\n 11300: jump @465 if a0 == 0\n      : @442 (gas: 8)\n 11304: i32 a0 = a1 + 0x44\n 11307: a2 = sp + 0x200\n 11311: u64 [a2 + 120] = 0\n 11314: u64 [a2 + 112] = 0\n 11317: u64 [a2 + 96] = 0x60\n 11321: a1 = sp + 0x260\n 11325: u64 [a2 + 104] = 0\n 11328: ra = 398, jump @9\n      : @443 [@dyn 199] (gas: 4)\n 11334: a0 = sp + 0x240\n 11338: s1 = u64 [sp + 0xd0]\n 11342: a1 = s1\n 11344: ra = 400, jump @7\n      : @444 [@dyn 200] (gas: 9)\n 11350: a2 = u64 [sp + 0x48]\n 11353: a0 = u64 [sp + 0xb0]\n 11357: a0 = a0 + 0xffffffffffffff9c\n 11360: a0 = a2 <u a0\n 11363: a1 = u64 [sp + 0x40]\n 11366: a0 = 0 if a1 != 0\n 11368: a3 = u64 [sp + 0xb8]\n 11372: a0 = 0 if a3 != 0\n 11374: jump @465 if a0 == 0\n      : @445 (gas: 31)\n 11378: a0 = u64 [sp + 0xd8]\n 11382: a0 = a0 <u s1\n 11385: a1 = u64 [sp + 0xc0]\n 11389: a3 = a1 + a0\n 11392: u64 [sp + 0xb0] = a3\n 11396: a1 = a3 <u a1\n 11399: a1 = a0 if a0 == 0\n 11402: a0 = u64 [sp + 0xa8]\n 11406: s1 = a0 + a1\n 11409: a0 = s1 <u a0\n 11412: a1 = u64 [sp + 0xc8]\n 11416: a0 = a0 + a1\n 11419: u64 [sp + 0xb8] = a0\n 11423: a3 = u64 [sp + 0x258]\n 11427: a1 = u64 [sp + 0x250]\n 11431: a4 = u64 [sp + 0x248]\n 11435: a5 = u64 [sp + 0x240]\n 11439: a0 = 0xffffffff\n 11449: u64 [sp + 0x50] = a0\n 11452: i32 a0 = a2 + 0x64\n 11455: u64 [sp + 0x58] = a5\n 11458: a2 = sp + 0x200\n 11462: u64 [a2 + 0x20] = a5\n 11465: u64 [sp + 0x60] = a4\n 11468: u64 [a2 + 0x28] = a4\n 11471: u64 [sp + 0x68] = a1\n 11474: u64 [a2 + 0x30] = a1\n 11477: a1 = sp + 0x220\n 11481: u64 [sp + 0x70] = a3\n 11484: u64 [a2 + 0x38] = a3\n 11487: ra = 402, jump @9\n      : @446 [@dyn 201] (gas: 23)\n 11493: a4 = s1\n 11495: ra = u64 [sp + 0xb0]\n 11499: a5 = 0\n 11501: a3 = 0\n 11503: t0 = 0\n 11505: t1 = 0\n 11507: a1 = u64 [sp + 0x48]\n 11510: a0 = a1 + 0x84\n 11514: u64 [sp + 0xd0] = a0\n 11518: a0 = a0 <u a1\n 11521: s1 = u64 [sp + 0x40]\n 11524: a1 = s1 + a0\n 11527: u64 [sp + 0xc0] = a1\n 11531: s1 = a1 <u s1\n 11534: s1 = a0 if a0 == 0\n 11537: t2 = u64 [sp + 0x78]\n 11540: s1 = s1 + t2\n 11543: u64 [sp + 0xa8] = s1\n 11547: a0 = s1 <u t2\n 11550: a1 = u64 [sp + 0x38]\n 11553: a0 = a0 + a1\n 11556: u64 [sp + 0xc8] = a0\n 11560: fallthrough\n      : @447 (gas: 18)\n 11561: a0 = u64 [sp + 0x58]\n 11564: a0 = a5 <u a0\n 11567: a2 = u64 [sp + 0x60]\n 11570: a1 = a3 ^ a2\n 11573: u64 [sp + 0xa0] = a3\n 11577: a2 = a3 <u a2\n 11580: a2 = a0 if a1 == 0\n 11583: s1 = u64 [sp + 0x68]\n 11586: a0 = t0 <u s1\n 11589: a3 = u64 [sp + 0x70]\n 11592: a1 = t1 ^ a3\n 11595: u64 [sp + 0x98] = t1\n 11599: a3 = t1 <u a3\n 11602: a3 = a0 if a1 == 0\n 11605: a0 = t0 ^ s1\n 11608: a0 = a0 | a1\n 11611: a3 = a2 if a0 == 0\n 11614: jump @453 if a3 == 0\n      : @448 (gas: 14)\n 11618: u64 [sp + 0x80] = t0\n 11622: u64 [sp + 0x88] = a5\n 11626: a2 = u64 [sp + 0xd8]\n 11630: a0 = a2 | a4\n 11633: u64 [sp + 0xb0] = ra\n 11637: a1 = u64 [sp + 0xb8]\n 11641: a1 = ra | a1\n 11644: a0 = a0 | a1\n 11647: a0 = a0 >> 0x20\n 11650: u64 [sp + 0x90] = a4\n 11654: a1 = a1 | a4\n 11657: a1 = a1 << 0x20\n 11660: a0 = a0 | a1\n 11663: jump @465 if a0 != 0\n      : @449 (gas: 4)\n 11667: a0 = sp + 0x140\n 11671: u64 [sp + 0xd8] = a2\n 11675: a1 = a2\n 11677: ra = 404, jump @7\n      : @450 [@dyn 202] (gas: 12)\n 11683: a0 = u64 [sp + 0xd0]\n 11687: s1 = u64 [sp + 0xa8]\n 11691: a2 = a0 | s1\n 11694: a1 = u64 [sp + 0xc8]\n 11698: a3 = u64 [sp + 0xc0]\n 11702: a1 = a1 | a3\n 11705: a2 = a2 | a1\n 11708: a2 = a2 >> 0x20\n 11711: a1 = a1 | s1\n 11714: a1 = a1 << 0x20\n 11717: a1 = a1 | a2\n 11720: jump @465 if a1 != 0\n      : @451 (gas: 14)\n 11724: a4 = u64 [sp + 0x150]\n 11728: a1 = u64 [sp + 0x148]\n 11732: a2 = u64 [sp + 0x140]\n 11736: a3 = u64 [sp + 0x50]\n 11739: a4 = a4 & a3\n 11742: a1 = a1 & 0xffffffffffffffff\n 11745: a2 = a2 & 0xffffffffffffffff\n 11748: u64 [sp + 312] = 0\n 11752: u64 [sp + 0x120] = a2\n 11756: u64 [sp + 0x128] = a1\n 11760: a1 = sp + 0x120\n 11764: u64 [sp + 0x130] = a4\n 11768: u64 [sp + 0xd0] = a0\n 11772: ra = 406, jump @9\n      : @452 [@dyn 203] (gas: 45)\n 11778: a0 = u64 [sp + 0xd0]\n 11782: t0 = a0 + 0x20\n 11785: a2 = t0 <u a0\n 11788: a0 = u64 [sp + 0xc0]\n 11792: t2 = a0 + a2\n 11795: a3 = t2 <u a0\n 11798: a3 = a2 if a2 == 0\n 11801: ra = s1 + a3\n 11804: a2 = ra <u s1\n 11807: a0 = u64 [sp + 0xc8]\n 11811: a0 = a0 + a2\n 11814: u64 [sp + 0xc8] = a0\n 11818: a0 = u64 [sp + 0xd8]\n 11822: a2 = a0 + 0x20\n 11825: a4 = a2 <u a0\n 11828: a0 = u64 [sp + 0xb0]\n 11832: a1 = a0 + a4\n 11835: s1 = a1 <u a0\n 11838: s1 = a4 if a4 == 0\n 11841: a0 = u64 [sp + 0x90]\n 11845: a4 = a0 + s1\n 11848: s1 = a4 <u a0\n 11851: a0 = u64 [sp + 0xb8]\n 11855: a0 = a0 + s1\n 11858: u64 [sp + 0xb8] = a0\n 11862: a5 = u64 [sp + 0x88]\n 11866: a5 = a5 + 0x1\n 11869: s1 = a5 <u 0x1\n 11872: a3 = u64 [sp + 0xa0]\n 11876: a3 = a3 + s1\n 11879: s1 = a5 | a3\n 11882: s1 = s1 <u 0x1\n 11885: a0 = u64 [sp + 0x80]\n 11889: s1 = s1 + a0\n 11892: a0 = s1 <u a0\n 11895: t1 = u64 [sp + 0x98]\n 11899: t1 = t1 + a0\n 11902: u64 [sp + 0xd0] = t0\n 11906: u64 [sp + 0xc0] = t2\n 11910: u64 [sp + 0xa8] = ra\n 11914: u64 [sp + 0xd8] = a2\n 11918: ra = a1\n 11920: t0 = s1\n 11922: t2 = u64 [sp + 0x78]\n 11925: jump @447\n      : @453 (gas: 26)\n 11928: a0 = u64 [sp + 0x48]\n 11931: t0 = u64 [sp + 0xd0]\n 11935: t1 = t0 <u a0\n 11938: s1 = u64 [sp + 0x40]\n 11941: a1 = u64 [sp + 0xc0]\n 11945: a3 = a1 ^ s1\n 11948: a2 = a1 <u s1\n 11951: a2 = t1 if a3 == 0\n 11954: a3 = u64 [sp + 0xa8]\n 11958: a5 = a3 - t2\n 11961: t2 = a3 <u t2\n 11964: a4 = u64 [sp + 0xc8]\n 11968: a3 = u64 [sp + 0x38]\n 11971: a4 = a4 - a3\n 11974: a4 = a4 - t2\n 11977: a3 = a5 <u a2\n 11980: a4 = a4 - a3\n 11983: u64 [sp + 0xd8] = a4\n 11987: a5 = a5 - a2\n 11990: u64 [sp + 0xc8] = a5\n 11994: a1 = a1 - s1\n 11997: a1 = a1 - t1\n 12000: u64 [sp + 0xc0] = a1\n 12004: s1 = t0 - a0\n 12007: ecalli 11 // 'ref_time_left'\n 12009: fallthrough\n      : @454 (gas: 25)\n 12010: u64 [sp + 0xd0] = a0\n 12014: a1 = u64 [sp + 0x30]\n 12017: a0 = u64 [sp + 0x8]\n 12020: u64 [a1 + 0x8] = a0\n 12023: a0 = u64 [sp + 0x18]\n 12026: u64 [a1] = a0\n 12028: a0 = u64 [sp + 0x10]\n 12031: u32 [a1 + 0x10] = a0\n 12034: a4 = sp + 0x300\n 12038: u64 [a4 + 216] = 0\n 12042: a5 = 0\n 12044: u64 [a4 + 208] = 0\n 12048: u64 [a4 + 200] = 0\n 12052: a2 = u64 [sp + 0xc8]\n 12056: a0 = s1 | a2\n 12059: a1 = u64 [sp + 0xd8]\n 12063: a3 = u64 [sp + 0xc0]\n 12067: a1 = a1 | a3\n 12070: a0 = a0 | a1\n 12073: a0 = a0 >> 0x20\n 12076: a1 = a1 | a2\n 12079: a1 = a1 << 0x20\n 12082: a0 = a0 | a1\n 12085: u64 [a4 + 192] = 0\n 12089: jump @465 if a0 != 0\n      : @455 (gas: 7)\n 12093: i32 a0 = s1 + 0\n 12095: u64 [sp + 0xc8] = a0\n 12099: a1 = s1\n 12101: u64 [sp + 0xb8] = s1\n 12105: s1 = u64 [sp + 0x48]\n 12108: a0 = s1\n 12110: ra = 408, jump @15\n      : @456 [@dyn 204] (gas: 4)\n 12116: u64 [sp + 0xd8] = a0\n 12120: a0 = s1\n 12122: a1 = 0\n 12124: ra = 410, jump @15\n      : @457 [@dyn 205] (gas: 39)\n 12130: u32 [sp + 992] = 0\n 12134: a1 = u64 [sp + 0xc8]\n 12138: a1 = a1 >u 0\n 12140: a3 = u64 [sp + 0xd0]\n 12144: a2 = a3 >u 0x8fc\n 12148: a1 = a1 | a2\n 12151: a2 = -a1\n 12153: a3 = sp + 0x400\n 12157: u64 [a3 + 0x18] = a2\n 12160: u64 [a3 + 0x10] = a2\n 12163: u64 [a3 + 0x8] = a2\n 12166: u64 [a3] = a2\n 12168: a2 = u64 [sp + 0x30]\n 12171: a2 = a2 << 0x20\n 12174: a2 = a2 >> 0x20\n 12177: a1 = a1 << 0x23\n 12180: t0 = a1 | a2\n 12183: a1 = sp + 0x3c0\n 12187: a1 = a1 << 0x20\n 12190: a1 = a1 >> 0x20\n 12193: a2 = sp + 0x400\n 12197: a2 = a2 << 0x20\n 12200: a3 = a2 | a1\n 12203: a1 = u64 [sp + 0xd8]\n 12207: a1 = a1 << 0x20\n 12210: a1 = a1 >> 0x20\n 12213: a4 = u64 [sp + 0xb8]\n 12217: a4 = a4 << 0x20\n 12220: a4 = a4 | a1\n 12223: a0 = a0 << 0x20\n 12226: a0 = a0 >> 0x20\n 12229: a1 = sp + 0x3e0\n 12233: a1 = a1 << 0x20\n 12236: a5 = a1 | a0\n 12239: a1 = 0xffffffffffffffff\n 12242: a2 = 0xffffffffffffffff\n 12245: a0 = t0\n 12247: ecalli 1 // 'call'\n 12249: fallthrough\n      : @458 (gas: 1)\n 12250: jump @464 if a0 != 0\n      : @459 (gas: 16)\n 12254: u64 [sp + 504] = 0\n 12258: u64 [sp + 496] = 0\n 12262: u64 [sp + 488] = 0\n 12266: u64 [sp + 480] = 0\n 12270: a0 = u64 [sp + 0x48]\n 12273: a3 = sp + 0x200\n 12277: u64 [a3] = a0\n 12279: a0 = u64 [sp + 0x40]\n 12282: u64 [a3 + 0x8] = a0\n 12285: a0 = u64 [sp + 0x78]\n 12288: u64 [a3 + 0x10] = a0\n 12291: a0 = sp + 0x200\n 12295: a1 = sp + 0x1e0\n 12299: a2 = u64 [sp + 0x38]\n 12302: u64 [a3 + 0x18] = a2\n 12305: ra = 412, jump @410\n      : @460 [@dyn 206] (gas: 3)\n 12311: a0 = sp + 0x1c0\n 12315: a1 = 0x40\n 12318: ra = 414, jump @7\n      : @461 [@dyn 207] (gas: 12)\n 12324: a0 = u64 [sp + 0x1d8]\n 12328: a1 = u64 [sp + 0x1d0]\n 12332: a2 = u64 [sp + 0x1c8]\n 12336: s1 = u64 [sp + 0x1c0]\n 12340: a0 = a0 | a2\n 12343: a2 = s1 | a1\n 12346: a2 = a2 | a0\n 12349: a2 = a2 >> 0x20\n 12352: a0 = a0 | a1\n 12355: a0 = a0 << 0x20\n 12358: a0 = a0 | a2\n 12361: jump @465 if a0 != 0\n      : @462 (gas: 7)\n 12365: u64 [sp + 440] = 0\n 12369: u64 [sp + 432] = 0\n 12373: u64 [sp + 424] = 0\n 12377: a1 = sp + 0x1a0\n 12381: u64 [sp + 416] = 0\n 12385: a0 = s1\n 12387: ra = 416, jump @9\n      : @463 [@dyn 208] (gas: 33)\n 12393: a0 = u64 [sp + 0x28]\n 12396: ecalli 5 // 'caller'\n 12398: a2 = u64 [sp + 0x30]\n 12401: a0 = u64 [a2 + 0x8]\n 12404: a1 = i32 [a2 + 0x10]\n 12407: a2 = u64 [a2]\n 12409: a3 = reverse a0\n 12411: a0 = a3 << 0x20\n 12414: a1 = reverse a1\n 12416: a1 = a1 >> 0x20\n 12419: t0 = a1 | a0\n 12422: a3 = a3 >> 0x20\n 12425: a1 = reverse a2\n 12427: a2 = a1 << 0x20\n 12430: a2 = a2 | a3\n 12433: a1 = a1 >> 0x20\n 12436: u64 [sp + 376] = 0\n 12440: a3 = u64 [0x20040]\n 12445: a4 = u64 [0x20048]\n 12450: a5 = u64 [0x20050]\n 12455: a0 = u64 [0x20058]\n 12460: u64 [sp + 0x198] = a3\n 12464: u64 [sp + 0x190] = a4\n 12468: u64 [sp + 0x188] = a5\n 12472: u64 [sp + 0x180] = a0\n 12476: u64 [sp + 0x170] = a1\n 12480: u64 [sp + 0x168] = a2\n 12484: a1 = 0x20\n 12487: a2 = sp + 0x180\n 12491: a3 = sp + 0x160\n 12495: u64 [sp + 0x160] = t0\n 12499: a0 = s1\n 12501: ra = 418, jump @13\n      : @464 [@dyn 209] (gas: 13)\n 12507: a0 = u64 [sp + 0x20]\n 12510: a1 = 0\n 12512: u64 [a0 + 24] = 0\n 12515: u64 [a0 + 16] = 0\n 12518: u64 [a0 + 8] = 0\n 12521: u64 [a0 + 0] = 0\n 12523: sp = s0 + 0xfffffffffffffbc0\n 12527: a0 = sp + 0x400\n 12531: ra = u64 [a0 + 0x38]\n 12534: s0 = u64 [a0 + 0x30]\n 12537: s1 = u64 [a0 + 0x28]\n 12540: sp = sp + 0x440\n 12544: ret\n      : @465 (gas: 1)\n 12546: trap\n      : @466 (gas: 8)\n 12547: u64 [sp + 272] = 0\n 12551: u64 [sp + 264] = 0\n 12555: u64 [sp + 256] = 0\n 12559: a0 = 0x4e487b7100000000\n 12569: a1 = sp + 0x100\n 12573: u64 [sp + 0x118] = a0\n 12577: a0 = 0\n 12579: ra = 420, jump @9\n      : @467 [@dyn 210] (gas: 7)\n 12585: u64 [sp + 248] = 0\n 12589: u64 [sp + 240] = 0\n 12593: u64 [sp + 224] = 0x32\n 12598: a0 = 0x4\n 12601: a1 = sp + 0xe0\n 12605: u64 [sp + 232] = 0\n 12609: ra = 422, jump @9\n      : @468 [@dyn 211] (gas: 2)\n 12615: a1 = i32 [0x20068]\n 12620: jump @470 if a1 >u 63\n      : @469 (gas: 2)\n 12624: u32 [0x20068] = 0x40\n 12630: fallthrough\n      : @470 (gas: 6)\n 12631: a1 = 0x20070\n 12636: i32 a1 = a1 + 0\n 12638: a0 = 0x1\n 12641: a2 = 0x24\n 12644: ecalli 14 // 'seal_return'\n 12646: fallthrough\n      : @471 (gas: 8)\n 12647: a1 = 0x20070\n 12652: i32 a1 = a1 + 0\n 12654: a0 = 0x1\n 12657: a2 = 0\n 12659: ecalli 14 // 'seal_return'\n 12661: a0 = 0\n 12663: ra = 0x1a8\n 12667: jump @21\n      : @472 [export #0: 'call'] (gas: 2)\n 12670: a0 = 0\n 12672: ra = 424, jump @21\n      : @473 [@dyn 212] [export #1: 'deploy'] (gas: 2)\n 12678: a0 = 0x1\n 12681: ra = 426, jump @21\n      : @474 [@dyn 213] (gas: 9)\n 12687: a1 = a1 <u 0x20\n 12690: a1 = a1 ^ 0x1\n 12693: a1 = a0 if a3 != 0\n 12696: a0 = a3 >u 0\n 12698: a2 = a3 >u 0\n 12700: a2 = a0 if a3 == 0\n 12703: a0 = a3 | a3\n 12706: a2 = a1 if a0 == 0\n 12709: jump [t0]\n      : @475 (gas: 12)\n 12711: a1 = u64 [s1 + 0xb0]\n 12715: a2 = u64 [s1 + 0xa0]\n 12719: a1 = a1 | a2\n 12722: a3 = u64 [s1 + 0xa8]\n 12726: a2 = u64 [s1 + 0xb8]\n 12730: a2 = a2 | a3\n 12733: a2 = a2 | a1\n 12736: a2 = a2 >> 0x20\n 12739: a1 = a1 | a3\n 12742: a1 = a1 << 0x20\n 12745: a1 = a1 | a2\n 12748: jump [t0]\n      : @476 (gas: 16)\n 12750: a2 = u64 [s1 + 0xb8]\n 12754: a0 = u64 [a2 + 0x8]\n 12757: a1 = i32 [a2 + 0x10]\n 12760: a2 = u64 [a2]\n 12762: a0 = reverse a0\n 12764: a3 = a0 << 0x20\n 12767: a1 = reverse a1\n 12769: a1 = a1 >> 0x20\n 12772: a3 = a3 | a1\n 12775: a0 = a0 >> 0x20\n 12778: a1 = reverse a2\n 12780: a2 = a1 << 0x20\n 12783: a2 = a2 | a0\n 12786: a1 = a1 >> 0x20\n 12789: i32 a0 = a4 + 0x4\n 12792: jump [t0]\n      : @477 (gas: 13)\n 12794: a0 = u64 [s1 + 0xb8]\n 12798: a1 = u64 [s1 + 0xa0]\n 12802: a0 = a0 | a1\n 12805: a1 = u64 [s1 + 0xa8]\n 12809: a3 = a1\n 12811: a2 = u64 [s1 + 0xb0]\n 12815: a1 = a1 | a2\n 12818: a1 = a1 | a0\n 12821: a1 = a1 >> 0x20\n 12824: a0 = a0 | a2\n 12827: a0 = a0 << 0x20\n 12830: a0 = a0 | a1\n 12833: jump [t0]\n      : @478 (gas: 14)\n 12835: a0 = u64 [a2 + 0x8]\n 12838: a1 = u64 [a2]\n 12840: a2 = i32 [a2 + 0x10]\n 12843: a0 = reverse a0\n 12845: a3 = a0 >> 0x20\n 12848: a1 = reverse a1\n 12850: a4 = a1 << 0x20\n 12853: a3 = a3 | a4\n 12856: a0 = a0 << 0x20\n 12859: a2 = reverse a2\n 12861: a2 = a2 >> 0x20\n 12864: a0 = a0 | a2\n 12867: a1 = a1 >> 0x20\n 12870: jump [t0]\n      : @479 (gas: 12)\n 12872: a3 = u64 [s1 + 0xb8]\n 12876: a0 = u64 [a3 + 0x18]\n 12879: a1 = u64 [a3 + 0x10]\n 12882: a2 = u64 [a3 + 0x8]\n 12885: a3 = u64 [a3]\n 12887: a0 = reverse a0\n 12889: a1 = reverse a1\n 12891: a2 = reverse a2\n 12893: a3 = reverse a3\n 12895: a4 = s1 + 0x7ff\n 12899: a4 = a4 + 0x31\n 12902: jump [t0]\n      : @480 (gas: 12)\n 12904: a2 = u64 [a2]\n 12906: a0 = reverse a0\n 12908: a3 = a0 << 0x20\n 12911: a1 = reverse a1\n 12913: a1 = a1 >> 0x20\n 12916: a3 = a3 | a1\n 12919: a0 = a0 >> 0x20\n 12922: a1 = reverse a2\n 12924: a2 = a1 << 0x20\n 12927: a2 = a2 | a0\n 12930: a1 = a1 >> 0x20\n 12933: jump [t0]\n      : @481 (gas: 10)\n 12935: a0 = u64 [sp + 0x10]\n 12938: a1 = u64 [sp + 0x18]\n 12941: a2 = 0x100000000\n 12951: a2 = a2 ^ a0\n 12954: a2 = a2 | a1\n 12957: a3 = a0 >> 0x20\n 12960: a3 = a3 <u 0x1\n 12963: a3 = 0 if a1 != 0\n 12965: a3 = 0 if a2 == 0\n 12967: jump [t0]\n      : @482 (gas: 10)\n 12969: a2 = u64 [s1 + 0xb8]\n 12973: a0 = u64 [s1 + 0xa8]\n 12977: a1 = u64 [s1 + 0xa0]\n 12981: a0 = a0 | a1\n 12984: a1 = 0xffffffe0\n 12994: a1 = a2 <u a1\n 12997: a3 = u64 [s1 + 0xb0]\n 13001: a1 = 0 if a3 != 0\n 13003: a1 = 0 if a0 != 0\n 13005: jump [t0]\n      : @483 (gas: 9)\n 13007: a0 = u64 [a3 + 0x18]\n 13010: a1 = u64 [a3 + 0x10]\n 13013: a2 = u64 [a3 + 0x8]\n 13016: a3 = u64 [a3]\n 13018: a0 = reverse a0\n 13020: a4 = reverse a1\n 13022: a2 = reverse a2\n 13024: a3 = reverse a3\n 13026: jump [t0]\n      : @484 (gas: 12)\n 13028: a2 = u64 [sp]\n 13030: a3 = u64 [sp + 0x8]\n 13033: u64 [s1] = a2\n 13035: u64 [s1 + 0x8] = a3\n 13038: u64 [s1 + 0x10] = a0\n 13041: u64 [s1 + 0x18] = a1\n 13044: sp = s0 + 0xffffffffffffffc0\n 13047: ra = u64 [sp + 0x38]\n 13050: s0 = u64 [sp + 0x30]\n 13053: s1 = u64 [sp + 0x28]\n 13056: sp = sp + 0x40\n 13059: jump [t0]\n      : @485 (gas: 6)\n 13061: i32 a0 = a2 + 0\n 13063: u64 [s1 + 0xb0] = a0\n 13067: a0 = u64 [s1 + 0xb8]\n 13071: a1 = a2\n 13073: u64 [s1 + 0xa8] = a2\n 13077: jump [t0]\n      : @486 (gas: 8)\n 13079: a0 = u64 [a4 + 0x60]\n 13082: a1 = u64 [a4 + 0x68]\n 13085: a2 = u64 [a4 + 0x58]\n 13088: a3 = u64 [a4 + 0x50]\n 13091: a1 = a1 | a2\n 13094: a0 = a0 | a3\n 13097: a0 = a0 | a1\n 13100: jump [t0]\n      : @487 (gas: 4)\n 13102: a3 = s1 + 0x7ff\n 13106: a3 = a3 + 0x31\n 13109: a4 = a3 + 0x300\n 13113: jump [t0]\n","bytecode":{"object":"50564d0000143d000000000000010700c1f000c00080036460332e067e72c47ff1f58e5982c2f2109581cf68deb3ac4f4eb7b254143ef2c2c3ab5178ddc6491492f41577f537bf0a2f65c27c1419050190eea6182c2038bcf42b8ea3decd30fcadb6d39e3f7dead6d83b96f41964177ffe73ee4a7a0618136000000004812c1200000000070000000b0000001900000027000000350000003b0000004400000051000000630000006e0000007d0000008a0000009a000000aa000000b5000000c7000000d20000006164647265737363616c6c63616c6c5f646174615f636f707963616c6c5f646174615f6c6f616463616c6c5f646174615f73697a6563616c6c6572636f64655f73697a656465706f7369745f6576656e746765745f696d6d757461626c655f646174616765745f73746f72616765686173685f6b656363616b5f3235367265665f74696d655f6c65667472657475726e5f646174615f636f707972657475726e5f646174615f73697a657365616c5f72657475726e7365745f696d6d757461626c655f646174617365745f73746f7261676576616c75655f7472616e73666572726564051102b17e0463616c6cb186066465706c6f7906bb5280d502b33b6a00b201b40364046904ea04f50422055d059805da0503062906350681069606cf06fa06210736078007a50717081c084f087a089608c908ce08f3081f09d809080a0d0a6f0a740a790a930ac80ad10afb0a070b6d0b7d0b9d0bad0b5c0c810c9d0cd00cd50cf60c220d840dbf0dc40dfc0d210e260eb50e0f0fb70fde0f4610b410151126111212211239124a128a12b212c912ed12f7121413c2130e141c14b6141c15251551157e15b915ca159c16ac16c016ec16511757178717f217421884188e18231933196119ba19081a171ae41a121b2f1b461b681b711b8a1b0b1c181c711c7b1ca61cc41c001d111de71df71d091e351e9a1ea01ed01e261f301f601f661f9b1fc11fc71fd91f0a2010202120272063209b20a120b420ba2005212d21a021ec2133227722a822ae22c122c722ff223023362349234f238423dc23b224bd24f9244225892511261e264e26cf26ed26f8264b278a2790279927af27d527db27e427f927c028f6280f2933295b29a629ec292b2a422a652a962a9c2af92a572baa2bb32bda2bfb2b462c562ce52ca32d022e542f622f173024306930db302931473186318f319511e87b10107b15087b163306600002390560000251051c3307900003837783680a080139076000022003600002ac5710821010821508821695111832000039086000025108d406330790000383770a0f28c7069511f07b10087b15648964753308206497501002b0037c78017c797c7a027c7b03978808d4980897aa1097bb18d4ba0ad4a8087c79057c7a047c7b067c7c07979908d4a90997bb1097cc18d4cb0bd4b909979920d489027c79097c7a087c7b0a7c7c0b979908d4a90997bb1097cc18d4cb0bd4b9097c7a0d7c7b0c7c7c0e7c780f97aa08d4ba0a97cc10978818d4c808d4a808978820d498037c78117c7a107c7b127c7c13978808d4a80897bb1097cc18d4cb0bd4b8087c7a157c7b147c7c167c791797aa08d4ba0a97cc10979918d4c909d4a909979920d4890a7c78197c79187c7b1a7c7c1b978808d4980897bb1097cc18d4cb0bd4b8087c791d7c7b1c7c7c1e7c771f979908d4b90997cc10977718d4c707d49707977720d487076f776fa86f396f2a7b5a187b59107b58087b57821008821595111032009511d87b10207b15187b161082897b19088289087b1982851082861833082050100468026f686f59821a6faa821b086fbb787b18787a10787908787898bc38787c1f98bc30787c1e98bc28787c1d98bc20787c1c98bc18787c1b98bc10787c1a98bb08787b1998ab38787b1798ab30787b1698ab28787b1598ab20787b1498ab18787b1398ab10787b1298aa08787a11989a38787a0f989a30787a0e989a28787a0d989a20787a0c989a18787a0b989a10787a0a98990878790998893878790798893078790698892878790598892078790498891878790398891078790298880878780182102082151882161095112832009511a07b10587b15507b16489515608411e06476828718828910828a0882886f776f996faa6f887b18187b1a107b19087b17491138491130491128491120481140208318831a20831b403309ff33070a09821738821830821928821a206f776f886f996faa7b6a187b69107b68087b679551a082105882155082164895116032009511a07b10587b15509515608411e08272827a08827b108277188283828908828c108288186f746fbb6faa6f276f826fcc6f996f387b17187b1a107b1b087b147b18387b19307b1c287b12208318831a203309ff330b2033070a109551a08210588215509511603200951160ff7b1098007b1590007b1688009515a0008411e082ab7b1b3882ab087b1b3082ab107b1b2882aa187b1a20829a7b1a18829a087b1a10829a107b1a088299187b1964865010066582186f888219086f99821a106faa821b186fbb7b1b587b1a507b19487b18408218206f888219286f99821a306faa821b386fbb7b1b787b1a707b19687b18608379836a8317403308020a07955160ff8210980082159000821688009511a00032008b7910520931c8780883881f8488e05638000001253309680002390a680002ae8a093d086800020133087000028377c887073200009511f07b10087b158475010a04013d076400025105075010080950100ad2029511a0fd951700027b70587b75507b7648951560028411e095170002491738491730491728491720831720020a1101951b000282b73082b83882b92882ba20d49808d4a707d487075207ad01390664000297672098772095771f8477e09578e000d87807951900027b987b970894777b97103307409518000249191850100ca9fc3307e000646850100e25ff8377646833090a020154165f6d014921d8014921d0014921c001e0009517e0019518c0014921c8015010102e228217e0017b17588217e8017b17488217f0017b17408217f8017b173049219801492190014921800100019517a0019518800149218801501012f3218217a0017b17508217a8017b17288217b0017b17208217b8017b17184921580149215001492140012001951760019518400149214801501014b821821760017b1738821768017b1710821770017b1708821678018217307b1738018217407b1730018217487b17280133078000951820018219587b192001501016b9fb8217187b1718018217207b1710018217287b1708013307a000951800018219507b19000150101890fb7b16f8008217087b17f0008217107b17e8003307c0009518e0008219387b19e00050101a6afb9517c00033084050101c24fa8217d8008218d0008219c8008216c000d49707d48609d47909989920d48707977720d4970751071e003308700002838833070128c6003308700002838833070128b9006467330850101e99fd8377330833090a029517a00033088000501020c3f98217b800330b9000037b1b588218b0008219a800821aa0003e07a800033e08a000033e099800033e0a900003951780003308a0005010228af9821798008218900082198800821a8000821b587bb7387bb8307bb9287bba209517603308c0005010245ff9821778821870821968821a60821b587bb7587bb8507bb9487bba40282af964673308501026f9fc8378330733093300280a0e280a33093300280a0e01951108f8951700077b70f0007b75e8007b76e0009515f807951138f88411e064169569ff0795993149292803492920034929100380003307409568ff07958841034929180350102a13fa33076400027b67b80039076400025517040728861c95670010837760fb330833002c0a03019569ff0795993181974c035247c0e16e830a288417514723ada78d4b0452472e77c9ad0a2814105147e072a6c28c06514739f9b6c3a60151471720edf674035147ab0025376802524756a5a64da60549298803492980034929780349297003956700108377a0fb33002e0a11330230281a2b501230172b82b7800082b8880082b97882ba70d49808d4a707d48707510706285a1b8267b80081775617230728571b9567e001501032651f956a000182a7e00082a8e8008069f0014926d8017ba9d0007ba8c8009568c0017ba7c000330750103419f94926b8014926b0014926a8013307209568a0014926a001501036fdf8390868000256183f0b200368000240019517e08479e07b69b80064913307700002837783993308403300380a0a33023a28822950123a7f2995bc00037bcaa8007bc9a0007bc898007bc79000956780019568ff079588c10350103c92f9826798017b67b800826790017b67b000826788017b67a800826780017b67a0009567600133084050103e3af7956b000182b77882b87082b96882ba60d49707d48a09d47909989920d48707977720d497075107062884168267a000956900017b97408267a8007b97488267b0007b9750956840018267b8007b975864a77b6ab80033006c2817f84929480749294007492938074929300795670010837760ff0a1101956aff0795aa3195ab000782b74082b84882b93882ba30d49808d4a707d4870751070628c2198267b80081775617030728b5199567ff079577c10233084050104081f69567ff07957731957900028298a8007b68b8008298a0007b68b000829898007b68a000829790007b67a800501042fdf5501244f22751070628bb153a099000033a089800033807a00003956bff0795bb31492b880295bc00027bc780007bc8789568ff079588a1027bc97064a733004c012845f74929680349296003492958034929500395670010837780fb3300460a1133024828c228501248bf2850124aa3285107062828198267b8008177330803ac780628221950104c72f53a08d800037b68b8003a08d000037b68b0003807e000037b67a80033077000037b67a000837733004e0a058269a000330250285e278269a00050125057278269a800d398088269b000d39707d487078268b800d3a808d4870751070628c718956700015010523d1e9567e00033084050105452f5826af8008268f0008269e8008267e000d49a0ad48709d4a909989920d4a808978820d49808510806289c144926d8004926d0004926c8009568c0004926c0007b67b80033006c2841f649296807492960074929580749295007956700108377803300560a1101956aff0795aa3195ab00075012589f2751070628fa178267b80081775617230728ed179567ff079577210350105a171c9567ff079577010333084050105cacf4956aff0795aa3195ac000282cbe80082c8e00082c9d80082c7d000d49b0bd48709d4b909989920d4b808978820d4980851080628eb13492ac802492ac002492ab8029568ff079588e102492ab0027b67b80033006c288cf549290804492900044929f8034929f00395670010837720fc0a1101956aff0795aa3182a7000482a8080482a9f80382aaf003d49808d4a707d4870751070628bc178267b80081775617230728b8179567200350105e581b956a000382a72082a82880693003492618037ba9107ba808956800037ba7330750106012f54926f8024926f0024926e8023307209568e0024926e002501062f6f4390868000256183f0b200368000240019517e08479e07b69b80064913307700002837783993308403300640a0a330266287b25501266782595bc00047bca287bc9207bc8187bc7109567c0029568ff07958841045010688ff58267d8027b67b8008267d0027b67b0008267c8027b67a8008267c0027b67a0009567a00233084050106a37f3956b000282b7b80082b8b00082b9a80082baa000d49707d48a09d47909989920d48707977720d49707510706287d128267a000956900027b9780008267a8007b9788008267b0007b979000956880028267b8007b97980064a77b6ab80050106c0ff43308208267b80033004e012886f6514767b5e35f0a2878164929c8034929c0034929b8034929b003956700108377e0fb33006e0a113302702872255012706f2582b7c00082b8c80082b9b80082bab000d49808d4a707d48707510706285a168267b800817756170307285d16956720023308405010725df2956800028287387b67b8008287307b67b0008287287b67a0008287207b67a800501074e4f1501276d92351070628a2113a09b000033a08b800033807c0000349261802956b00027bb7107bb808956800027bb964a733004c012839f349298805492980054929780549297005956700108377a0fd0a1101956aff0795aa3195ab000582b7800082b8880082b97882ba70d49808d4a707d4870751070628e2148267b80081775617430728d5149567ff0795778102501078ff189568ff07958831958900028297607b67488297587b67688297507b6770956700108377c0fd3308240a039568ff07958831958900058297a8007b67a8008297a0007b67a000829798007b679800829790007b67b00050107af6f033079000033a08d800037b6888003a08d000037b6880007b6790003807e000037b677833077000037b67b80083777b67280a05018267b800827208827b807c106f279878206fb9979a20d4a8089777206fca98aa20d4a707989920826a78d3a909826a8000d3a707d4970782698800d39808d4870751070628d3147b6c507b62587b6b608267a0008268b000d487078268a80082699800d49808d4870752070628dd1450107c4ef0826890008287107b6780008287087b677882877b6788009567ff079577410233084050107e7bf09569ff079599318292280295980002828c20828b18828710d42b0ad4c708d4a808988820d4ca0a97aa20d4a80851080628bd0f492900024929f8014929f001140a00000000e3122a859568ff07958821027b9a08027b6790007b62407b6c387b6b30502080004ef1826a9000826740826838d487071408fcffffff00000000d88a08826930949894785108640f140700000000240000007b672083a7048268b000956bff0795bb3195ba00017ba8d000826898007ba8d8008268a0007ba8e0009568ff07958801028269a8007ba9e80050208200e0f00a0b8267786f77977820826980006f99989920d4890a826888006f88978920987720d497079888208269b8007b67107b97087b6a787b9a7b68187a98109567ff079577314927c8054927c0054927b8054927b005330824826790005020840006f37b6788003308208267900050208600f5f29569ff079599314829d0052049290806ff49290006ff4929f805ff4929f005ff8268b800978820988920140800000000080000007b698000d489029568ff079588e1059788209888209569ff0795992106979920d4890a82688800978820988820826b20d48b0b9777209877209568ff0795880106978820d4780c3308ff3309ff64270a01015207a60e0a0d01330c20aec7080a0d647c019569ff07959931826a90008262408267388268304916407b6c8800959b00017bbc707bba9000492978017bb89800492980017bb7a000492988019567ff079577c1019568ff079588a1017b92a80150208800ed15826a408ea78268880050228a00741f5209062849149567ff07957781018268900050208c0021ee956aff0795aa3195ab000150228e00d320510706282a14826748977720987920956aff0795aa31492a280182677095ab00017bb7108267687bb7189568ff07958841017b69087bb9203307502090000aef9569ff0795993149290801492900014929f8003307209568ff07958821014929f00050209200e2ee9517e08477e07b679000647133084033075020940052f19518e08488e07b688800648183778389330840330096000a0a826a88003302980028e51f826a880050229800de1f826890007b8a187b89107b8b087b879567ff079577010150209a0072ef9567ff079577318272e8008273e000827ad0007b6a88008277d8007b67489518e08484e06441826c9800d3c709d8c7088267b000d87a077b6740da97088267a000d8730b7b6b308260a8007b6238d30209d8020ada9b0ad37302d49209c9730bda980ac98b09d88b07826838c9080b826830c98b0bc97b0b826748c9c707826840c98707644c7bcb187bc9107bc708826788008268b000c987077bc7510a0628f61282679000644850209c0045ef0a0b7b6790008267b8008268587b78088268607b788268507a78109568ff079588318267a800958900067b97488267a0007b9740826798007b97388267b0007b97303307330850209e000df07b678800330733085020a000ffef956aff0795aa31482a5006826990008e98fc089a8995ab00067bb988007bb980007bb9787bb97097882382698000d498029568ff07958861069788209888209569ff079599a106979920d4890a826b880097bb2098bb209777209877209568ff0795888106978820d4780c3308ff3309ff64270a017b6790000a0d018269900052077b0c5109062860129567ff079577413308405020a200a4eb9569ff07959931829228829c20829b18829710d42b0ad4c708d4a808988820d4ca0a97aa20d4a8085208ed0a490995680010492828f895680010492820f8140a000000003182a0709568ff079588217b9a087b6790007b6288007b6c607b6b585020a40078ec8267283300a6000a01826b900082678800826860d487071408fcffffff00000000d88b08826958949894785108840a5022a800831c956b0010492b18f8956b00107bb810f8956800107b8908f89568ff07958801956900107b9a00f85020aa0016ec0a0b8267108268b8007b87088267787b878267187a87109567ff079577314927c8064927c0064927b8064927b006330824826790005020ac0062ee7b67b800330820826790005020ae0051ee9568ff079588314828d0062049280807492800074928f8064928f0061408000000001800000082698000d489029568ff079588e1069788209888209569ff0795992107979920d4890a8268b800978820988820826b20d48b0b9777209877209568ff0795880107978820d4780c3308ff3309ff64270a01015207b00c0a0d01330b20aeb7080a0d647b0182699000826a8800826760826858492688007b6bb800956c00077bcba0007bc9c0004926a8077bc8c8004926b0077bc7d0004926b8079567c0079568a0077bcad8005020b0006311826a88008ea78268b8005022b200e91a520906288a1095678007826890005020b4009ae9826798077b679000826790077b678800826788077b678000826780077b6778956760073308405020b6006ee995670007827b78827c70827a68827960d4ba07d4c908d47808988820d4c707977720d487075207ba088267b0007b674007826798007b6748078267a0007b675007956840078267a8007b67580764977b69b8007b6ab0007b6ba8007b6ca0005020b80043ea5022ba00581b510874088397208268787b682007826880007b682807826888007b68300795682007826a90007b6a38075020bc000dea4926f806826708956b00067bb7f0008267687bb7e8003a070000023a080800023a09100002826a707bbae000956b00077bb7187bb8107bb9083a0718000233084095690007956ae0067bb78267b8003300fe002890eb8267b8008177541743df0c956760065020be00c30f956800068287707b67588287687b67608287607b676895670010837760fc3308240a039568ff07958831958900048297487b67b0008297407b67a8008297387b67a0008297307b6798005020c000c4e733079000033a08d800037b6880003a08d000037b68787b6788003807e000037b677033077000037b67b80083777b6790003300c2000a058269b8003302c40028a2198269b8005022c4009b19826970d39808826978d39707d4870782688000d3a808d4870752072c0c9567ff079577314927680449276004492758044927500495670010837780fc0a11019569ff07959931959a000482a76882a8588292500482a9608263b000d33707826aa000d3a808d48707826ca800d3c908826b9800d3b209d49808d487075207120c64c9d4cb07d43a08d4870751074a0c5020c600e3e6826988008297088298105022c8003b198267b8007b68787a78107b69707b79087b6a80007b7a826790000a06015107620c956700063308405020ca00f9e695680006828918828a10828b088287d49b0cd4a708d4c808988820d4ac0c97cc20d4c808520846067b6b387b6a407b69484926f0054926e8054926e0051409000000008bc549129568e0057b69f8057b6788005020cc00dae70a0b8268b8008267707b8708826780007b878267787a87109568ff079588318267b000958900047b9788008267a8007b9780008267a0007b9778826798007b9770330804826788005020ce0013ea7b67508267880033085020d00004ea9569ff0795993148299004959a0004492ac800ff492ac000ff492ab800ff492ab000ff8268b800978820988a20140900000000080000007b6a30d49a029569ff079599a104979920989920956aff0795aae10497aa20d49a0a82695097992098992014080000000004000000d4890b9777209877209568ff079588c104978820d4780c3308ff3309ff64270a01015207270549269805492690054926880549268005826788007b67a0058267387b67a8058267407b67b0059567a005956880058269487b69b8055020d2001b0d826758977720987720492678057b67407b6770058267607b676805956860058267687b67600533075020d40082e649265805492650054926480533072095684005492640055020d60065e69517e08477e07b678800647133084033075020d800d5e89518e08488e07b68586481837783893308403300da000a0a826a583302dc00286a17826a585022dc006417826888007b8a187b89107b8b087b87956720055020de00fce68264380595680005828730828b20828c289518e08488e06481826aa000c8ca0a82629800c8b202d8b20bc8ba0ad3ca03d8ca09da3b09826ba800c87b0bc89b0cd8bc038260b000c84000d87b0bc80b0bc83b00d87c03d3040bd84004dab304d3c707d4b707da79047b8c107b8a087b827b801852042b0a826788005020e000fce6956700053308405020e20042e495680005828a18828b10828c088287d4ac09d4b708d49808988820d4b909979920d4980852088f034926f0044926e8044926e0041409000000003182a0709568e0047b69f8047b6788007b6a587b6b507b6c485020e40023e5826790003300e6000a01826b8800826758826850d487071408fcffffff00000000d88b088269489498947851082f035022e8002e154926d804956b00047bb8d0007bb9c8009568c0047bbac0005020ea00d0e40a0b8267708268b8007b8708826780007b878267787a87109567ff0795773149270805492700054927f8044927f004330824826788005020ec001be77b67b800330820826788005020ee000ae764789567ff0795773148271005204927480549274005492738054927300514070000000018000000826930d497079569ff0795992105979920989920956aff0795aa610597aa20d49a0a8269b800979920989920140b0000000024000000d49b0b9788209888209569ff0795994105979920d4890c3308ff3309ff0a01015207db040a0d01330b20aeb7080a0d647b0182698800826a58826750826848492690007b6bb800956c00047bcb607bc98000492668047bc88800492670047bc790004926780495678004956860047bca98005020f000180a826a90008ea78268b8005022f2009e135109390995674004826888005020f40051e2826758047b679000826750047b678800826748047b678000826740047b6778956720043308405020f60025e295670004827b38827c30827a28827920d4ba07d4c908d47808988820d4c707977720d4870752077101826798007b6700048267a0007b6708048267a8007b671004956800048267b0007b67180464977b69b8007b6ab0007b6ba8007b6ca0005020f800fae25022fa000f1451082b018397208268787b68e003826880007b68e803826888007b68f0039568e003826a90007b6af8035020fc00c4e24926b803826740956b00037bb7b0008267607bb7a8003a072000023a082800023a09300002826a687bbaa0007bb7d8007bb8d0007bb9c8003a073800023308409569c003956aa0037bb7c0008267b8005020fe004ae43307330850200001ebe48378330733090a0e28f3044929e8034929e0034929d8034929d00395670010837700fc330002010a113302040128d11350220401ce1382b7e00082b8e80082b9d80082bad000d49808d4a707d48707520744068267b80081775417034b069567600233084050200601bfe0956800028287787b67b8008287707b67b0008287687b67a0008287607b67a8005020080145e050220a01391251071e06009567c00533084050200c0181e0956800058287d8007b67b0008287d0007b67a8008287c8007b67a0008287c0007b67b80033000e010a0d3302100128a011502210019d115208bb64799877205207b350221201ea1250201401f4e39568ff079588318269a8007a89d004837795680010838800fd33090a0c9567ff079577318177d0042894009567ff079577e10133084050201601f7df9567ff07957731957900018298c8007b68b0008298c0007b68a8008298b8007b68a0008297b0007b67b800330018010a0d33021a01280f1150221a010c1152082aff6479987720520721ff50221c01571250201e0161e39568ff079588318269a8007a891006837795680010838840fe33090a0c9567ff0795773181771006018268b000ac87e4fe0a0d0164789877205207d8fe8267b8007b68b0005020200116e383788169b000330701330058010a0e2837060a0d7b67509567ff079577e100330840502022012ddf956cff0795cc3182c2c8007b625882c3c0007b634882c4b8007b646082c0b0007b60880082685095871fd887088477e0957920d87907c8780ad88a0bda770b492c88007bc9707bc2a8007bc3a0007bc498007bc090007bca789567ff079577c1009568ff079588a1007bcb8000502024015f0682698800826758826860d48707826a48d4a908d47808988820d4a707977720d48707520709fe9567ff079577314917684917604917589568ff0795888100826a507b7a50649750202601a8df0a0d01826a8800826858826948d498081409e0ffffff00000000d89a09826b6094b994895109bbfd64789877205207b2fd83a72064897b686083887b688800649850202801e8e19568ff079588318269607a8990068377956800108388c0fe33090a0c019567ff07957731817790068269900082688800ae873df22864fd9567a00433084050202a01e3dd956800048287b8007b67b0008287b0007b67a8008287a8007b67a0008287a0007b67b80033002c010a0d33022e0128020f50222e01ff0e52081dfd6479987720520714fd502230014a105020320154e19568ff079588318269a8007a895005837795680010838880fd33090a0c9567ff079577318177500528f4fd9567e007330840502034015bdd956800078287f8007b67b0008287f0007b67a8008287e8007b67a0008287e0007b67b800330036010a0d33023801287a0e50223801770e520895fc647998772052078cfc50223a01c20f50203c01cce09568ff079588318269a8007a891007837795680010838840ff33090a0c9567ff0795773181771007286cfd3307330850203e0197e0837833070133090a0e289e0033087000028388288c003308700002838828820033087000028388287833087000028388286f49263001492628014926200114070000000004a09fc3956820017b673801330750204001b8dd390868000256181f142003680002203308700002838828b7013308700002838828ad0133087000028388281d3308700002838828148267b800817701510713330870000283880133070133090a0e0133087000028388330733090a0e28f33308700002838833070133090a0e28e33308700002838833070133090a0e28d39569ff07959931492940024929380214070000000004a09fc37b9748029568ff0795886102492930023307330042012805dd492690064926880649268006140700000000c611522c956880067b679806330750204201e2dc3308043307502044015edf837828ea003308700002838833070133090a0e285bff49265006492648064926400614070000000004a09fc3956840067b6758063307502046019bdc390868000256181f1420036800022033087000028388289a0033087000028388289000492630064926280649262006140700000000c611522c956820067b67380633075020480152dc390868000256181f13200368000220330870000283882851330870000283882848492650034926480349264003140700000000c611522c956840037b675803330750204a010bdc390868000256181f1320036800022033087000028388280a33087000028388013307013309040a0e013308700002838833070133090a0e286bfe3308700002838833070133090a0e285afe3308700002838833070133090a0e2849fe3a09d000033a08d800033807e0000349265802956b00027bb7507bb848956840027bb94064a750204c0183db3308208267a80050204e01fddd837833092033070a0e01492690034926880349268003140700000000717b484e956880037b67980333075020500146db492678034926700349266003113307049568600349266803330054012824db3308700002838828cd009569ff079599314929400149293801140700000000c20512bb7b9748019568ff07958861014929300133073300420128e8da4926d0064926c8064926c006140700000000717b484e9568c0067b67d806330750205201c5da4926b8064926b0064926a006113307049568a0064926a80650205401a7da33082433075020560123dd83783307013309240a0e019569ff07959931491940491938140700000000c20512bb7b97489568ff079588614919303307330042012861da33087000028388280a3308700002838801330701330058010a0e019511c07b10387b15307b16289515408411f0828910828a18828b088288d4ba0ad4980bd4ab0b98bb20d4a909979920d4b90952091e6476641750205a01d0d850225c01fd0a510a0c50225e01510b320000330870000283883307013309330060010a0e019511c07b10387b15307b16289515408411e064768317330804330062010a033302640128b50a50226401b20a510a0b50226601060b3200330870000283883307013309330068010a0e01951170ff7b1088007b1580007b1678951590008411f064728289827408828c088273959a1fd89a00c80c0984aae07b1308c8a303d8a30bc8490ac8ba0ad39a06d89a07da6b07822b18d8c90c828610822210828818da000cc86c0cd86c06c82c09c89707d8c90cd89709c8b808c86808c8c808c8980c8ec88e79dbc809d4c7088ea6db8906520657821808d88308d34a09d84a06da9806d82708d3bc09d8bc0bda980bd32708d49808da860b520b307b13507b1a587b17603307409518507b1c6850206a01d4d8955170ff8210880082158000821678951190003200491140491138491130140700000000717b484e9518307b1748330750206c019ed84911284911204911104133070495181049111850206e0185d8390868000256183f0b2003680002400133087000028388330701330924330070010a0e019511c0fb951800047b80387b85307b8628951540048411e07b17209517a00333084050207201ffd6951b000382b7b8007b17c80082b6b00082b8a8007b18c00082b9a0007b19d000491b78491b70491b68491b60407bb798007bb690007bb8880095178003951860037bb980005020740159fe8217d0008219c8008218c000d48909d46708d498089888207b16a800d46909979920d498085208370795190003491958491950491948330601951840037b964050207601a8d78219d0008218c8008217a800d487079766209566e0d86908821ac00094a894785108f60639076400027b17b8009597203308207b17d800649650207801f0d983773308208219b8000a0295172003646850207a0118d6951b000382b73082b83882b92882ba20d49808d4a707d487075107a80650207c01a1d533069000033a079000033a089800033809a00003951a0003491a187ba9107ba808951800037ba78217d80050207e01fed6502080016ad58267288268308269206f77977a206f88988820d48a0a9877206f983306700003978920d497079888207b18103d088000037b17083e077800037b1a183e0a70000383677b17280a0601510782067b16309517e0023308405020820161d5951a000282a9f80082a6f00082a8e80082a7e0007b18407b1938d48909d46708d49808988820d46909979920d498085208da05951a0002492ad000492ac800492ac000140900000000ae3245749518c0027ba9d8007b1748502084013dd68218487b1678821a38d46a0a140600000000010000001407fcffffff00000000d8780782194094977b1ab80094a751077d05838704951900024929b8004929b0004929a8009518a0024929a00050208601ead5821728330088010a01821b489567dcd87b0782184094878218b800948751073b0582193082970881981050228a01940683b724951b0002492b98007bb890007bb98800951880027bba800050208c0199d5821848140600000000010000007b16b0001407bcffffff00000000d8780782194094978219b80094975107de0483874495190002491978491970491960609518600249196850208e014ed5951740028216d00064685020900104d48219488217b00095779cd879078218409487821ab80094a7510794048217d800d867078218c000c8780a7b1ab000d88a08da77088217a800c88706d876078218c800c887077b17b800821a580282185002821b4802821c40021407ffffffff000000007b17508397647b1c58951900027b9c207b1b607b9b287b18687b9830951820027b1a707b9a3850209201afd4646b8210b000330c330a33023303821848958784007b17d000d88707821640c876087b18c000d86806da7706821478c846067b16a800d84607821838c887077b17c80001821758d87c07821960d39a087b1aa000d89a09da8709821668d86207821a70d3a3087b139800d8a30ada870ad36207d48707da790a510a3a017b1280007b1c88008219d800d4b9077b10b0008218b800d48008d487079877207b1b9000d4b808978820d4870752077303951740017b19d800649850209401b7d28217d0008216a800d467098218c800821ac000d4a808d48909989920d46808978820d4980852083a03821b50018218480182194001821a50d2ab0b8488ff8499ff492138017b1920017b182801951820017b1b30017b17d0005020960192d38217d000957220d872098217c000c89704d8740ada990ac8a600d860098217c800c897077b17c8008217d800957920d8790b8217b000c8b708d87806dabb0682179000c8670bd87b068217b800c867077b17b800821c880095cc0188c601821aa000c86a0ad4ac0688660182178000c87606d8760782139800c873037b12d0007b14c0007b10a8007b19d800648064628214782894fe8217488212d000d872038216408218c000d3680ad86809daa309821aa800c94a0cd84a04821bc800821a38c9ab0bc94b0bd89c0ac9ab0b7b1bd800c99c0c7b1cc800c96808c938087b18c000c972060a0b017b17d0008218308217087b87088217187b878217107a8710951b0003492bd800330c492bd000492bc8008219c800d496078218d800821ac000d4a808d48707987720d49808978820d48707492bc0005207c90183677b17c80064687b16b800821648646750209801c7d47b17d8006467330850209a01b9d44821e0038218c8008e88821ad0008ea9fc08d498089a89951a00047ba9187ba9107ba9087ba9821930979920989920978823d498029518c00397882098882095190004979920d4890a8218d800978820988820821bb80097bb20d48b0b9777209877209518e003978820d4780c3308ff3309ff64270a0101520701014921f8014921f0014921e8014921e001821748951a00027ba78217407ba7088217787ba710951700029518e0018219387ba91850209c01e8f79517c00133084050209e0136d08217d8018218d0018219c8018216c001d49707d48609d47909989920d48707977720d497075207b9004921b8014921b0014921a8019518a0014921a00164675020a0012bd18217280a0582193082970881981082996f7a97a7206f88988820d4780298aa206f98978920d4a909988820492178013a0a4000023a0b4800023a0c5000023a075800027b1a98017b1b90017b1c88017b1780017b1870017b19680133082095198001951a60017b12600164675020a20195d2821720330849171849171049170849079551c0fb9517000482703882753082762895114004320000492110014921080149210001140700000000717b484e951800017b17180133075020a4016bd04921f8004921f0004921e000323307049518e0004921e8005020a6014dd0390868000256183f0b20036800024001330870000283883307013309240a0e013308700002838833070133090a0e33073300a80128cfd233075020a801cad23307015020aa01c1d2888820858801dba7088ea78ea9daa709d4aa07da780932028268b0008269a000d49808826aa8008269b800d4a909d48909989920d4a808978820d4980832028269b80082970881981082996f77977a206f88988820d48a0a9877206f98978920d4790998882083b70432028267b8008268a000d487078268a800648a8269b000d49808d47808988820d49707977720d48707320282970882988199106f77987a206f88978b20d4ba0a9777206f99989920d497079888203202826ab80082a71882a81082a90882aa6f776f886f996faa956bff0795bb31320282996f77977a206f88988820d48a0a9877206f98978920d47909988820320282171082181814090000000001000000d37909d48909987a2088aa01948a939a32028269b8008267a8008268a000d487071408e0ffffff00000000d88908826ab00094a89478320282a71882a81082a90882aa6f776f8b6f996faa32028219821a087b697b6a087b67107b68189551c0821038821530821628951140320283977b67b0008267b80064987b69a800320282b76082b86882b95882ba50d49808d4a707d487073202956aff0795aa3195ab00033202490a21a11a4292d210a1925429a42449922449922449922449922449922449922449922449922449922449922449aa9294529294942454a5242549922449922449922449922449922449922449922449499294a4aa24254994a492a42a494992922425294955559292a42495244544444a92242549525129a5244929a524a9a488882849128490309426a521112292442249a2912449222449244a492444a16a880822224422914844101121128944228288089148241289444422241289884488442222112221222249926428092515aa22428444440821448488882449222449922415aa5469444444a44844908808214224a234128104041210101010101111919210912449a24884888888882844442242886012854a4a42444444448888888888844892244992442412894891444444341249922489221109918888888808210921442222112912111191921092284908112244885224112291449244888488882449924444442411119134122189221121222112111149922489888888242222a2918888244914891049441215222211214430894225252192242242444444442444444492244922222222228a90880412111191921011912489229110894422114212428848a2221111118d444492248922112112499244a44844444444841022448484288d9452929224914492248948449284482445444224224992244922228088882441240920a9082089484444444444504a94444912494a22111189201241248410422401442292882492248948921a4d6a24922422111111111111a40892880822112449229148129114442222111124510a92a812452482485244108988882445124922892449922449922425894849141491a424129148245241541089882222492422894822492292a4a2114924412449922449141111402411499038220920a90822222222114189a4241211910822114442444400918824228924492292a446931a914444444444444410459044041111119148104992244922222222228a88088248222222228248442284908824211145240a11449224112912894422118410211112a2882212419224928844444434124924124924924449228824882489a2110922494992249244440011111449944422222212490489824844082144124012914424490248129124352222221289884490241289481444442282244a41922a5122092249114424498a449224912492244992242522880491a4244912111140442409228e2401241541444444502251128988480491088a8488880092882422892480241149d26852234944242222222282288288082222222291209224499244444444441411110491444444440491884408211111211111410555898888882241444492884224884422910882180922222222228a04290982484411158944248844444444441409a2441044228aa8488c688988a048941291201289442292244912898848444404912449924424494452d0481240525122a52888248aa89188884482888888888822419408824844111589448288888888882241940882484411158954502aa184122a5444041051102208259450a1a2094d0d55855285524522028888281211014414a4a08452898800220a4204a1841211014414840842858a8800220a4204a14293865209a5124a25841091440a1241a91111404441444844249448440011114522228088828890882005258d2401249222a142134d9224494992241504091a4ad124492a5124485028452322914a4a922449922449922449924a4a92244992244992041191284900494112498210c150128d481249248888888848121111114144244924894892481011491215219228285114449224892084102249144190a494a490242121a134120922222249922411111140448224092080a42812111111244e92a24812242222224800114052148924224144412249514422914412898888009244922492a0a84a449248924812932492248924494444229244928828884844922411114912111111441249924844124922894424912492484444258924924412499248249146929444141189489224a2285210154414912249499248228924922492a4464444a2248948824810119124492222220a52924a494a12218410111191882848498a48128d8800220a2242228210c150d250aa4841822495a48844244952249592942445248a24494a2925294991a4aa48959294a4248024a922220124aa2455554a9224a988a2244952240200"},"methodIdentifiers":{"claimRewards()":"372500ab","comptroller()":"5fe3b567","getPendingRewards(address)":"f6ed2017","getStakedAmount(address)":"4da6a556","habitTracker()":"836ee1c0","mToken()":"c3b6f939","stake(address,uint256)":"adc9772e","unstake(address,uint256)":"c2a672e0","userStakes(address)":"8da7ad23"}},"hash":"0de16cbfc6f16f5806da9a88e3c8649e209b81673ecaf8746afee2e2c1afc9cf","factoryDependencies":{}}}}