{"contracts/adapters/MoonwellAdapter.sol":{"MoonwellAdapter":{"abi":[{"inputs":[{"internalType":"address","name":"_mToken","type":"address"},{"internalType":"address","name":"_comptroller","type":"address"},{"internalType":"address","name":"_habitTracker","type":"address"}],"stateMutability":"nonpayable","type":"constructor"},{"inputs":[],"name":"InvalidAmount","type":"error"},{"inputs":[],"name":"MintFailed","type":"error"},{"inputs":[],"name":"OnlyHabitTracker","type":"error"},{"inputs":[],"name":"RedeemFailed","type":"error"},{"anonymous":false,"inputs":[{"indexed":true,"internalType":"address","name":"user","type":"address"},{"indexed":false,"internalType":"uint256","name":"amount","type":"uint256"}],"name":"RewardsClaimed","type":"event"},{"anonymous":false,"inputs":[{"indexed":true,"internalType":"address","name":"user","type":"address"},{"indexed":false,"internalType":"uint256","name":"amount","type":"uint256"},{"indexed":false,"internalType":"uint256","name":"mTokens","type":"uint256"}],"name":"Staked","type":"event"},{"anonymous":false,"inputs":[{"indexed":true,"internalType":"address","name":"user","type":"address"},{"indexed":false,"internalType":"uint256","name":"amount","type":"uint256"},{"indexed":false,"internalType":"uint256","name":"mTokens","type":"uint256"}],"name":"Unstaked","type":"event"},{"inputs":[],"name":"claimRewards","outputs":[{"internalType":"uint256","name":"claimed","type":"uint256"}],"stateMutability":"nonpayable","type":"function"},{"inputs":[],"name":"comptroller","outputs":[{"internalType":"address","name":"","type":"address"}],"stateMutability":"view","type":"function"},{"inputs":[{"internalType":"address","name":"","type":"address"}],"name":"getPendingRewards","outputs":[{"internalType":"uint256","name":"pending","type":"uint256"}],"stateMutability":"pure","type":"function"},{"inputs":[{"internalType":"address","name":"who","type":"address"}],"name":"getStakedAmount","outputs":[{"internalType":"uint256","name":"staked","type":"uint256"}],"stateMutability":"view","type":"function"},{"inputs":[],"name":"habitTracker","outputs":[{"internalType":"address","name":"","type":"address"}],"stateMutability":"view","type":"function"},{"inputs":[],"name":"mToken","outputs":[{"internalType":"address","name":"","type":"address"}],"stateMutability":"view","type":"function"},{"inputs":[{"internalType":"uint256","name":"amount","type":"uint256"}],"name":"stake","outputs":[],"stateMutability":"payable","type":"function"},{"inputs":[{"internalType":"uint256","name":"amount","type":"uint256"}],"name":"unstake","outputs":[],"stateMutability":"nonpayable","type":"function"},{"inputs":[{"internalType":"address","name":"","type":"address"}],"name":"userStakes","outputs":[{"internalType":"uint256","name":"","type":"uint256"}],"stateMutability":"view","type":"function"},{"stateMutability":"payable","type":"receive"}],"evm":{"assembly":"// RO data = 0/0 bytes\n// RW data = 100/65776 bytes\n// Stack size = 32768 bytes\n\n// Instructions = 3834\n// Code size = 13224 bytes\n\n      : @0 (gas: 7)\n     0: sp = sp + 0xffffffffffffffe8\n     3: u64 [sp + 0x10] = ra\n     6: u64 [sp + 0x8] = s0\n     9: u64 [sp] = s1\n    11: s1 = 0x20060\n    16: s0 = i32 [0x20060]\n    21: jump @3 if s0 == 0\n      : @1 (gas: 5)\n    24: a0 = 0x30090\n    29: i32 a0 = a0 + 0\n    31: i32 a1 = s1 + 0\n    33: ecalli 8 // 'get_immutable_data'\n    35: fallthrough\n      : @2 (gas: 3)\n    36: a0 = i32 [0x20060]\n    41: u32 [0x20060] = 0\n    46: jump @4 if a0 <u s0\n      : @3 (gas: 5)\n    49: ra = u64 [sp + 0x10]\n    52: s0 = u64 [sp + 0x8]\n    55: s1 = u64 [sp]\n    57: sp = sp + 0x18\n    60: ret\n      : @4 (gas: 1)\n    62: trap\n      : @5 (gas: 2)\n    63: a1 = i32 [0x20060]\n    68: jump @47 if a1 == 0\n      : @6 (gas: 4)\n    72: a0 = 0x30090\n    77: i32 a0 = a0 + 0\n    79: ecalli 15 // 'set_immutable_data'\n    81: jump @47\n      : @7 (gas: 8)\n    84: sp = sp + 0xfffffffffffffff0\n    87: u64 [sp + 0x8] = ra\n    90: u64 [sp] = s0\n    92: a2 = a1\n    94: s0 = a0\n    96: a1 = 0x20\n    99: a0 = a2\n   101: ra = 2, jump @15\n      : @8 [@dyn 1] (gas: 100)\n   106: a1 = u8 [a0 + 0x1]\n   109: a2 = u8 [a0]\n   111: a3 = u8 [a0 + 0x2]\n   114: a4 = u8 [a0 + 0x3]\n   117: a1 = a1 << 0x8\n   120: a1 = a1 | a2\n   123: a3 = a3 << 0x10\n   126: a4 = a4 << 0x18\n   129: a3 = a3 | a4\n   132: a1 = a1 | a3\n   135: a2 = u8 [a0 + 0x5]\n   138: a3 = u8 [a0 + 0x4]\n   141: a4 = u8 [a0 + 0x6]\n   144: a5 = u8 [a0 + 0x7]\n   147: a2 = a2 << 0x8\n   150: a2 = a2 | a3\n   153: a4 = a4 << 0x10\n   156: a5 = a5 << 0x18\n   159: a4 = a4 | a5\n   162: a2 = a2 | a4\n   165: a2 = a2 << 0x20\n   168: t0 = a2 | a1\n   171: a2 = u8 [a0 + 0x9]\n   174: a3 = u8 [a0 + 0x8]\n   177: a4 = u8 [a0 + 0xa]\n   180: a5 = u8 [a0 + 0xb]\n   183: a2 = a2 << 0x8\n   186: a2 = a2 | a3\n   189: a4 = a4 << 0x10\n   192: a5 = a5 << 0x18\n   195: a4 = a4 | a5\n   198: a2 = a2 | a4\n   201: a3 = u8 [a0 + 0xd]\n   204: a4 = u8 [a0 + 0xc]\n   207: a5 = u8 [a0 + 0xe]\n   210: a1 = u8 [a0 + 0xf]\n   213: a3 = a3 << 0x8\n   216: a3 = a3 | a4\n   219: a5 = a5 << 0x10\n   222: a1 = a1 << 0x18\n   225: a1 = a1 | a5\n   228: a1 = a1 | a3\n   231: a1 = a1 << 0x20\n   234: t1 = a1 | a2\n   237: a1 = u8 [a0 + 0x11]\n   240: a3 = u8 [a0 + 0x10]\n   243: a4 = u8 [a0 + 0x12]\n   246: a5 = u8 [a0 + 0x13]\n   249: a1 = a1 << 0x8\n   252: a1 = a1 | a3\n   255: a4 = a4 << 0x10\n   258: a5 = a5 << 0x18\n   261: a4 = a4 | a5\n   264: a1 = a1 | a4\n   267: a3 = u8 [a0 + 0x15]\n   270: a4 = u8 [a0 + 0x14]\n   273: a5 = u8 [a0 + 0x16]\n   276: a2 = u8 [a0 + 0x17]\n   279: a3 = a3 << 0x8\n   282: a3 = a3 | a4\n   285: a5 = a5 << 0x10\n   288: a2 = a2 << 0x18\n   291: a2 = a2 | a5\n   294: a2 = a2 | a3\n   297: a2 = a2 << 0x20\n   300: a3 = a2 | a1\n   303: a1 = u8 [a0 + 0x19]\n   306: a2 = u8 [a0 + 0x18]\n   309: a4 = u8 [a0 + 0x1a]\n   312: a5 = u8 [a0 + 0x1b]\n   315: a1 = a1 << 0x8\n   318: a1 = a1 | a2\n   321: a4 = a4 << 0x10\n   324: a5 = a5 << 0x18\n   327: a4 = a4 | a5\n   330: a1 = a1 | a4\n   333: a2 = u8 [a0 + 0x1d]\n   336: a4 = u8 [a0 + 0x1c]\n   339: a5 = u8 [a0 + 0x1e]\n   342: a0 = u8 [a0 + 0x1f]\n   345: a2 = a2 << 0x8\n   348: a2 = a2 | a4\n   351: a5 = a5 << 0x10\n   354: a0 = a0 << 0x18\n   357: a0 = a0 | a5\n   360: a0 = a0 | a2\n   363: a0 = a0 << 0x20\n   366: a0 = a0 | a1\n   369: a0 = reverse a0\n   371: a1 = reverse a3\n   373: a2 = reverse t1\n   375: a3 = reverse t0\n   377: u64 [s0 + 0x18] = a3\n   380: u64 [s0 + 0x10] = a2\n   383: u64 [s0 + 0x8] = a1\n   386: u64 [s0] = a0\n   388: ra = u64 [sp + 0x8]\n   391: s0 = u64 [sp]\n   393: sp = sp + 0x10\n   396: ret\n      : @9 (gas: 12)\n   398: sp = sp + 0xffffffffffffffd8\n   401: u64 [sp + 0x20] = ra\n   404: u64 [sp + 0x18] = s0\n   407: u64 [sp + 0x10] = s1\n   410: a2 = u64 [a1]\n   412: u64 [sp + 0x8] = a2\n   415: a2 = u64 [a1 + 0x8]\n   418: u64 [sp] = a2\n   420: s0 = u64 [a1 + 0x10]\n   423: s1 = u64 [a1 + 0x18]\n   426: a1 = 0x20\n   429: ra = 4, jump @15\n      : @10 [@dyn 2] (gas: 71)\n   434: a1 = reverse s1\n   436: a2 = reverse s0\n   438: a3 = u64 [sp]\n   440: a3 = reverse a3\n   442: a4 = u64 [sp + 0x8]\n   445: a4 = reverse a4\n   447: u8 [a0 + 0x18] = a4\n   450: u8 [a0 + 0x10] = a3\n   453: u8 [a0 + 0x8] = a2\n   456: u8 [a0] = a1\n   458: a5 = a4 >> 0x38\n   461: u8 [a0 + 0x1f] = a5\n   464: a5 = a4 >> 0x30\n   467: u8 [a0 + 0x1e] = a5\n   470: a5 = a4 >> 0x28\n   473: u8 [a0 + 0x1d] = a5\n   476: a5 = a4 >> 0x20\n   479: u8 [a0 + 0x1c] = a5\n   482: a5 = a4 >> 0x18\n   485: u8 [a0 + 0x1b] = a5\n   488: a5 = a4 >> 0x10\n   491: u8 [a0 + 0x1a] = a5\n   494: a4 = a4 >> 0x8\n   497: u8 [a0 + 0x19] = a4\n   500: a4 = a3 >> 0x38\n   503: u8 [a0 + 0x17] = a4\n   506: a4 = a3 >> 0x30\n   509: u8 [a0 + 0x16] = a4\n   512: a4 = a3 >> 0x28\n   515: u8 [a0 + 0x15] = a4\n   518: a4 = a3 >> 0x20\n   521: u8 [a0 + 0x14] = a4\n   524: a4 = a3 >> 0x18\n   527: u8 [a0 + 0x13] = a4\n   530: a4 = a3 >> 0x10\n   533: u8 [a0 + 0x12] = a4\n   536: a3 = a3 >> 0x8\n   539: u8 [a0 + 0x11] = a3\n   542: a3 = a2 >> 0x38\n   545: u8 [a0 + 0xf] = a3\n   548: a3 = a2 >> 0x30\n   551: u8 [a0 + 0xe] = a3\n   554: a3 = a2 >> 0x28\n   557: u8 [a0 + 0xd] = a3\n   560: a3 = a2 >> 0x20\n   563: u8 [a0 + 0xc] = a3\n   566: a3 = a2 >> 0x18\n   569: u8 [a0 + 0xb] = a3\n   572: a3 = a2 >> 0x10\n   575: u8 [a0 + 0xa] = a3\n   578: a2 = a2 >> 0x8\n   581: u8 [a0 + 0x9] = a2\n   584: a2 = a1 >> 0x38\n   587: u8 [a0 + 0x7] = a2\n   590: a2 = a1 >> 0x30\n   593: u8 [a0 + 0x6] = a2\n   596: a2 = a1 >> 0x28\n   599: u8 [a0 + 0x5] = a2\n   602: a2 = a1 >> 0x20\n   605: u8 [a0 + 0x4] = a2\n   608: a2 = a1 >> 0x18\n   611: u8 [a0 + 0x3] = a2\n   614: a2 = a1 >> 0x10\n   617: u8 [a0 + 0x2] = a2\n   620: a1 = a1 >> 0x8\n   623: u8 [a0 + 0x1] = a1\n   626: ra = u64 [sp + 0x20]\n   629: s0 = u64 [sp + 0x18]\n   632: s1 = u64 [sp + 0x10]\n   635: sp = sp + 0x28\n   638: ret\n      : @11 (gas: 48)\n   640: sp = sp + 0xffffffffffffffa0\n   643: u64 [sp + 0x58] = ra\n   646: u64 [sp + 0x50] = s0\n   649: u64 [sp + 0x48] = s1\n   652: s0 = sp + 0x60\n   655: sp = sp & 0xffffffffffffffe0\n   658: s1 = a0\n   660: a0 = u64 [a1 + 0x18]\n   663: a2 = u64 [a1 + 0x10]\n   666: a3 = u64 [a1 + 0x8]\n   669: a1 = u64 [a1]\n   671: a0 = reverse a0\n   673: a2 = reverse a2\n   675: a3 = reverse a3\n   677: a1 = reverse a1\n   679: u64 [sp + 0x18] = a1\n   682: u64 [sp + 0x10] = a3\n   685: u64 [sp + 0x8] = a2\n   688: u64 [sp] = a0\n   690: u64 [sp + 56] = 0\n   693: u64 [sp + 48] = 0\n   696: u64 [sp + 40] = 0\n   699: u64 [sp + 32] = 0\n   702: u32 [sp + 64] = 0x20\n   706: i32 a1 = sp + 0\n   708: i32 a3 = sp + 0x20\n   711: i32 a4 = sp + 0x40\n   714: a2 = 0xffffffffffffffff\n   717: a0 = 0\n   719: ecalli 9 // 'get_storage'\n   721: a0 = u64 [sp + 0x38]\n   724: a1 = u64 [sp + 0x30]\n   727: a2 = u64 [sp + 0x28]\n   730: a3 = u64 [sp + 0x20]\n   733: a0 = reverse a0\n   735: a1 = reverse a1\n   737: a2 = reverse a2\n   739: a3 = reverse a3\n   741: u64 [s1 + 0x18] = a3\n   744: u64 [s1 + 0x10] = a2\n   747: u64 [s1 + 0x8] = a1\n   750: u64 [s1] = a0\n   752: sp = s0 + 0xffffffffffffffa0\n   755: ra = u64 [sp + 0x58]\n   758: s0 = u64 [sp + 0x50]\n   761: s1 = u64 [sp + 0x48]\n   764: sp = sp + 0x60\n   767: ret\n      : @12 (gas: 40)\n   769: sp = sp + 0xffffffffffffffa0\n   772: u64 [sp + 0x58] = ra\n   775: u64 [sp + 0x50] = s0\n   778: s0 = sp + 0x60\n   781: sp = sp & 0xffffffffffffffe0\n   784: t0 = u64 [a0]\n   786: a3 = u64 [a0 + 0x8]\n   789: a4 = u64 [a0 + 0x10]\n   792: a0 = u64 [a0 + 0x18]\n   795: t1 = u64 [a1]\n   797: a2 = u64 [a1 + 0x8]\n   800: a5 = u64 [a1 + 0x10]\n   803: a1 = u64 [a1 + 0x18]\n   806: t2 = reverse a0\n   808: a4 = reverse a4\n   810: a3 = reverse a3\n   812: a0 = reverse t0\n   814: t0 = reverse a1\n   816: a5 = reverse a5\n   818: a2 = reverse a2\n   820: a1 = reverse t1\n   822: u64 [sp + 0x18] = a0\n   825: u64 [sp + 0x10] = a3\n   828: u64 [sp + 0x8] = a4\n   831: u64 [sp] = t2\n   833: u64 [sp + 0x38] = a1\n   836: u64 [sp + 0x30] = a2\n   839: u64 [sp + 0x28] = a5\n   842: u64 [sp + 0x20] = t0\n   845: i32 a1 = sp + 0\n   847: i32 a3 = sp + 0x20\n   850: a2 = 0xffffffffffffffff\n   853: a4 = 0x20\n   856: a0 = 0\n   858: ecalli 16 // 'set_storage'\n   860: sp = s0 + 0xffffffffffffffa0\n   863: ra = u64 [sp + 0x58]\n   866: s0 = u64 [sp + 0x50]\n   869: sp = sp + 0x60\n   872: ret\n      : @13 (gas: 24)\n   874: sp = sp + 0xffffffffffffff60\n   878: u64 [sp + 0x98] = ra\n   882: u64 [sp + 0x90] = s0\n   886: u64 [sp + 0x88] = s1\n   890: s0 = sp + 0xa0\n   894: sp = sp & 0xffffffffffffffe0\n   897: a4 = u64 [a3]\n   899: u64 [sp + 0x38] = a4\n   902: a4 = u64 [a3 + 0x8]\n   905: u64 [sp + 0x30] = a4\n   908: a4 = u64 [a3 + 0x10]\n   911: u64 [sp + 0x28] = a4\n   914: a3 = u64 [a3 + 0x18]\n   917: u64 [sp + 0x20] = a3\n   920: a3 = u64 [a2]\n   922: u64 [sp + 0x18] = a3\n   925: a3 = u64 [a2 + 0x8]\n   928: u64 [sp + 0x10] = a3\n   931: a3 = u64 [a2 + 0x10]\n   934: u64 [sp + 0x8] = a3\n   937: a2 = u64 [a2 + 0x18]\n   940: u64 [sp] = a2\n   942: s1 = a1\n   944: ra = 6, jump @15\n      : @14 [@dyn 3] (gas: 35)\n   948: a1 = u64 [sp]\n   950: a1 = reverse a1\n   952: a2 = u64 [sp + 0x8]\n   955: a2 = reverse a2\n   957: a3 = u64 [sp + 0x10]\n   960: a3 = reverse a3\n   962: a4 = u64 [sp + 0x18]\n   965: a4 = reverse a4\n   967: u64 [sp + 0x58] = a4\n   970: u64 [sp + 0x50] = a3\n   973: u64 [sp + 0x48] = a2\n   976: u64 [sp + 0x40] = a1\n   979: a1 = u64 [sp + 0x20]\n   982: a1 = reverse a1\n   984: a2 = u64 [sp + 0x28]\n   987: a2 = reverse a2\n   989: a3 = u64 [sp + 0x30]\n   992: a3 = reverse a3\n   994: a4 = u64 [sp + 0x38]\n   997: a4 = reverse a4\n   999: u64 [sp + 0x78] = a4\n  1002: u64 [sp + 0x70] = a3\n  1005: u64 [sp + 0x68] = a2\n  1008: u64 [sp + 0x60] = a1\n  1011: i32 a2 = a0 + 0\n  1013: i32 a3 = s1 + 0\n  1015: i32 a0 = sp + 0x40\n  1018: a1 = 0x2\n  1021: ecalli 7 // 'deposit_event'\n  1023: sp = s0 + 0xffffffffffffff60\n  1027: ra = u64 [sp + 0x98]\n  1031: s0 = u64 [sp + 0x90]\n  1035: s1 = u64 [sp + 0x88]\n  1039: sp = sp + 0xa0\n  1043: ret\n      : @15 (gas: 2)\n  1045: i32 a2 = a0 >> 0x10\n  1048: jump @20 if a2 != 0\n      : @16 (gas: 4)\n  1051: a1 = a1 + a0\n  1054: i32 a1 = a1 + 0x1f\n  1057: a1 = a1 & 0xffffffffffffffe0\n  1060: jump @20 if a1 >u 65536\n      : @17 (gas: 3)\n  1066: a2 = 0x20068\n  1071: a3 = i32 [0x20068]\n  1076: jump @19 if a3 >=u a1\n      : @18 (gas: 2)\n  1079: u32 [0x20068] = a1\n  1084: fallthrough\n      : @19 (gas: 4)\n  1085: a1 = 0x20070\n  1090: i32 a0 = a0 + 0\n  1092: a0 = a0 + a1\n  1095: ret\n      : @20 (gas: 1)\n  1097: trap\n      : @21 (gas: 6)\n  1098: sp = sp + 0xfffffffffffffff0\n  1101: u64 [sp + 0x8] = ra\n  1104: u64 [sp] = s0\n  1106: s0 = a0 & 0x1\n  1109: ecalli 4 // 'call_data_size'\n  1111: fallthrough\n      : @22 (gas: 2)\n  1112: u32 [0x20064] = a0\n  1117: jump @24 if s0 == 0\n      : @23 (gas: 1)\n  1120: ra = 8, jump @25\n      : @24 [@dyn 4] (gas: 1)\n  1124: ra = 10, jump @50\n      : @25 [@dyn 5] (gas: 15)\n  1129: sp = sp + 0xfffffffffffffda0\n  1133: a0 = sp + 0x200\n  1137: u64 [a0 + 0x58] = ra\n  1140: u64 [a0 + 0x50] = s0\n  1143: u64 [a0 + 0x48] = s1\n  1146: s0 = sp + 0x260\n  1150: sp = sp & 0xffffffffffffffe0\n  1153: a0 = sp + 0x200\n  1157: u64 [a0 + 56] = 0\n  1160: u64 [a0 + 48] = 0\n  1163: u64 [a0 + 40] = 0\n  1166: u64 [a0 + 32] = 0\n  1169: i32 a0 = sp + 0x220\n  1173: ecalli 17 // 'value_transferred'\n  1175: fallthrough\n      : @26 (gas: 9)\n  1176: a4 = sp + 0x200\n  1180: a0 = u64 [a4 + 0x30]\n  1183: a1 = u64 [a4 + 0x38]\n  1186: a2 = u64 [a4 + 0x28]\n  1189: a3 = u64 [a4 + 0x20]\n  1192: a1 = a1 | a2\n  1195: a0 = a0 | a3\n  1198: a0 = a0 | a1\n  1201: jump @40 if a0 != 0\n      : @27 (gas: 16)\n  1205: s1 = i32 [0x20064]\n  1210: a0 = s1 << 0x20\n  1213: a0 = a0 >> 0x20\n  1216: a0 = a0 + 0x1f\n  1219: a0 = a0 & 0xffffffffffffffe0\n  1222: a1 = a0 + 0xe0\n  1226: a0 = a1 <u a0\n  1229: a2 = sp + 0x200\n  1233: u64 [a2] = a1\n  1235: u64 [a2 + 0x8] = a0\n  1238: a0 = 0 if a0 != 0\n  1240: u64 [a2 + 0x10] = a0\n  1243: a0 = 0x40\n  1246: a1 = sp + 0x200\n  1250: u64 [a2 + 24] = 0\n  1253: ra = 12, jump @9\n      : @28 [@dyn 6] (gas: 3)\n  1258: a0 = 0xe0\n  1262: a1 = s1\n  1264: ra = 14, jump @15\n      : @29 [@dyn 7] (gas: 5)\n  1269: i32 a0 = a0 + 0\n  1271: a1 = s1\n  1273: a2 = 0\n  1275: ecalli 2 // 'call_data_copy'\n  1277: fallthrough\n      : @30 (gas: 1)\n  1278: jump @41 if s1 <=u 95\n      : @31 (gas: 7)\n  1283: u64 [sp + 472] = 0\n  1287: u64 [sp + 464] = 0\n  1291: u64 [sp + 448] = 0xe0\n  1297: a0 = sp + 0x1e0\n  1301: a1 = sp + 0x1c0\n  1305: u64 [sp + 456] = 0\n  1309: ra = 16, jump @412\n      : @32 [@dyn 8] (gas: 15)\n  1314: a0 = u64 [sp + 0x1e0]\n  1318: u64 [sp + 0x58] = a0\n  1321: a0 = u64 [sp + 0x1e8]\n  1325: u64 [sp + 0x48] = a0\n  1328: a0 = u64 [sp + 0x1f0]\n  1332: u64 [sp + 0x40] = a0\n  1335: a0 = u64 [sp + 0x1f8]\n  1339: u64 [sp + 0x30] = a0\n  1342: u64 [sp + 408] = 0\n  1346: u64 [sp + 400] = 0\n  1350: u64 [sp + 384] = 0x100\n  1356: a0 = sp + 0x1a0\n  1360: a1 = sp + 0x180\n  1364: u64 [sp + 392] = 0\n  1368: ra = 18, jump @412\n      : @33 [@dyn 9] (gas: 15)\n  1373: a0 = u64 [sp + 0x1a0]\n  1377: u64 [sp + 0x50] = a0\n  1380: a0 = u64 [sp + 0x1a8]\n  1384: u64 [sp + 0x28] = a0\n  1387: a0 = u64 [sp + 0x1b0]\n  1391: u64 [sp + 0x20] = a0\n  1394: a0 = u64 [sp + 0x1b8]\n  1398: u64 [sp + 0x18] = a0\n  1401: u64 [sp + 344] = 0\n  1405: u64 [sp + 336] = 0\n  1409: u64 [sp + 320] = 0x120\n  1415: a0 = sp + 0x160\n  1419: a1 = sp + 0x140\n  1423: u64 [sp + 328] = 0\n  1427: ra = 20, jump @412\n      : @34 [@dyn 10] (gas: 18)\n  1432: a0 = u64 [sp + 0x160]\n  1436: u64 [sp + 0x38] = a0\n  1439: a0 = u64 [sp + 0x168]\n  1443: u64 [sp + 0x10] = a0\n  1446: a0 = u64 [sp + 0x170]\n  1450: u64 [sp + 0x8] = a0\n  1453: s1 = u64 [sp + 0x178]\n  1457: a0 = u64 [sp + 0x30]\n  1460: u64 [sp + 0x138] = a0\n  1464: a0 = u64 [sp + 0x40]\n  1467: u64 [sp + 0x130] = a0\n  1471: a0 = u64 [sp + 0x48]\n  1474: u64 [sp + 0x128] = a0\n  1478: a0 = 0x80\n  1482: a1 = sp + 0x120\n  1486: a2 = u64 [sp + 0x58]\n  1489: u64 [sp + 0x120] = a2\n  1493: ra = 22, jump @9\n      : @35 [@dyn 11] (gas: 11)\n  1498: a0 = u64 [sp + 0x18]\n  1501: u64 [sp + 0x118] = a0\n  1505: a0 = u64 [sp + 0x20]\n  1508: u64 [sp + 0x110] = a0\n  1512: a0 = u64 [sp + 0x28]\n  1515: u64 [sp + 0x108] = a0\n  1519: a0 = 0xa0\n  1523: a1 = sp + 0x100\n  1527: a2 = u64 [sp + 0x50]\n  1530: u64 [sp + 0x100] = a2\n  1534: ra = 24, jump @9\n      : @36 [@dyn 12] (gas: 10)\n  1539: u64 [sp + 0xf8] = s1\n  1543: a0 = u64 [sp + 0x8]\n  1546: u64 [sp + 0xf0] = a0\n  1550: a0 = u64 [sp + 0x10]\n  1553: u64 [sp + 0xe8] = a0\n  1557: a0 = 0xc0\n  1561: a1 = sp + 0xe0\n  1565: a2 = u64 [sp + 0x38]\n  1568: u64 [sp + 0xe0] = a2\n  1572: ra = 26, jump @9\n      : @37 [@dyn 13] (gas: 3)\n  1577: a0 = sp + 0xc0\n  1581: a1 = 0x40\n  1584: ra = 28, jump @7\n      : @38 [@dyn 14] (gas: 12)\n  1589: a0 = u64 [sp + 0xd8]\n  1593: a1 = u64 [sp + 0xd0]\n  1597: a2 = u64 [sp + 0xc8]\n  1601: s1 = u64 [sp + 0xc0]\n  1605: a0 = a0 | a2\n  1608: a2 = s1 | a1\n  1611: a2 = a2 | a0\n  1614: a2 = a2 >> 0x20\n  1617: a0 = a0 | a1\n  1620: a0 = a0 << 0x20\n  1623: a0 = a0 | a2\n  1626: jump @42 if a0 == 0\n      : @39 (gas: 1)\n  1629: trap\n      : @40 (gas: 4)\n  1630: a1 = 0x20070\n  1635: i32 a1 = a1 + 0\n  1637: a0 = 0x1\n  1640: jump @49\n      : @41 (gas: 4)\n  1643: a1 = 0x20070\n  1648: i32 a1 = a1 + 0\n  1650: a0 = 0x1\n  1653: jump @49\n      : @42 (gas: 3)\n  1656: a0 = s1\n  1658: a1 = 0\n  1660: ra = 30, jump @15\n      : @43 [@dyn 15] (gas: 7)\n  1665: i32 a0 = a0 + 0\n  1667: a1 = 0\n  1669: a2 = 0\n  1671: ecalli 2 // 'call_data_copy'\n  1673: a0 = sp + 0xa0\n  1677: a1 = 0x80\n  1681: ra = 32, jump @7\n      : @44 [@dyn 16] (gas: 13)\n  1686: a0 = u64 [sp + 0xb8]\n  1690: a4 = 0x30090\n  1695: u64 [sp + 0x58] = a4\n  1698: a1 = u64 [sp + 0xb0]\n  1702: a2 = u64 [sp + 0xa8]\n  1706: a3 = u64 [sp + 0xa0]\n  1710: u64 [0x300a8] = a0\n  1715: u64 [0x300a0] = a1\n  1720: u64 [0x30098] = a2\n  1725: u64 [0x30090] = a3\n  1730: a0 = sp + 0x80\n  1734: a1 = 0xa0\n  1738: ra = 34, jump @7\n      : @45 [@dyn 17] (gas: 12)\n  1743: a0 = u64 [sp + 0x98]\n  1747: a1 = u64 [sp + 0x90]\n  1751: a2 = u64 [sp + 0x88]\n  1755: a3 = u64 [sp + 0x80]\n  1759: a4 = u64 [sp + 0x58]\n  1762: u64 [a4 + 0x38] = a0\n  1765: u64 [a4 + 0x30] = a1\n  1768: u64 [a4 + 0x28] = a2\n  1771: u64 [a4 + 0x20] = a3\n  1774: a0 = sp + 0x60\n  1777: a1 = 0xc0\n  1781: ra = 36, jump @7\n      : @46 [@dyn 18] (gas: 10)\n  1786: a0 = u64 [sp + 0x78]\n  1789: a1 = u64 [sp + 0x70]\n  1792: a2 = u64 [sp + 0x68]\n  1795: a3 = u64 [sp + 0x60]\n  1798: a4 = u64 [sp + 0x58]\n  1801: u64 [a4 + 0x58] = a0\n  1804: u64 [a4 + 0x50] = a1\n  1807: u64 [a4 + 0x48] = a2\n  1810: u64 [a4 + 0x40] = a3\n  1813: jump @5\n      : @47 (gas: 3)\n  1816: a0 = s1\n  1818: a1 = 0\n  1820: ra = 38, jump @15\n      : @48 [@dyn 19] (gas: 6)\n  1825: i32 a1 = a0 + 0\n  1827: a0 = 0\n  1829: a2 = 0\n  1831: ra = 0x28\n  1834: ecalli 14 // 'seal_return'\n  1836: jump @50\n      : @49 (gas: 4)\n  1838: a2 = 0\n  1840: ra = 0x28\n  1843: ecalli 14 // 'seal_return'\n  1845: fallthrough\n      : @50 [@dyn 20] (gas: 19)\n  1846: sp = sp + 0xfffffffffffff808\n  1850: a0 = sp + 0x700\n  1854: u64 [a0 + 0xf0] = ra\n  1858: u64 [a0 + 0xe8] = s0\n  1862: u64 [a0 + 0xe0] = s1\n  1866: s0 = sp + 0x7f8\n  1870: sp = sp + 0xfffffffffffff898\n  1874: sp = sp & 0xffffffffffffffe0\n  1877: s1 = sp\n  1879: a2 = s1 + 0x7ff\n  1883: a2 = a2 + 0x31\n  1886: u64 [a2 + 616] = 0\n  1890: u64 [a2 + 608] = 0\n  1894: u64 [a2 + 592] = 0x80\n  1900: a0 = 0x40\n  1903: a1 = s1 + 0x7ff\n  1907: a1 = a1 + 0x281\n  1911: u64 [a2 + 600] = 0\n  1915: ra = 42, jump @9\n      : @51 [@dyn 21] (gas: 4)\n  1920: a0 = 0x20064\n  1925: u64 [s1 + 0xb8] = a0\n  1929: a0 = i32 [0x20064]\n  1934: jump @53 if a0 >=u 4\n      : @52 (gas: 1)\n  1938: jump @366\n      : @53 (gas: 6)\n  1941: a0 = s1 + 0x1000\n  1945: i32 a0 = a0 + 0xfffffffffffffaa0\n  1949: a1 = 0\n  1951: ra = 0x2c\n  1954: ecalli 3 // 'call_data_load'\n  1956: fallthrough\n      : @54 [@dyn 22] (gas: 4)\n  1957: a2 = s1 + 0x7ff\n  1961: a2 = a2 + 0x31\n  1964: a0 = i32 [a2 + 0x28c]\n  1968: jump @56 if a0 != 2205082048\n      : @55 (gas: 1)\n  1975: jump @284\n      : @56 (gas: 1)\n  1978: jump @188 if a0 == 2376576291\n      : @57 (gas: 1)\n  1986: jump @59 if a0 != 2794781754\n      : @58 (gas: 1)\n  1993: jump @225\n      : @59 (gas: 1)\n  1996: jump @217 if a0 == 3283548473\n      : @60 (gas: 1)\n  2004: jump @84 if a0 == 4142735383\n      : @61 (gas: 1)\n  2012: jump @111 if a0 == 773316216\n      : @62 (gas: 1)\n  2020: jump @96 if a0 == 925171883\n      : @63 (gas: 1)\n  2028: jump @208 if a0 != 1302766934\n      : @64 (gas: 8)\n  2036: u64 [a2 + 1160] = 0\n  2040: u64 [a2 + 1152] = 0\n  2044: u64 [a2 + 1144] = 0\n  2048: u64 [a2 + 1136] = 0\n  2052: a0 = s1 + 0x1000\n  2056: i32 a0 = a0 + 0xfffffffffffffca0\n  2060: ecalli 17 // 'value_transferred'\n  2062: fallthrough\n      : @65 (gas: 11)\n  2063: a3 = s1 + 0x7ff\n  2067: a3 = a3 + 0x31\n  2070: a4 = a3 + 0x400\n  2074: a0 = u64 [a4 + 0x80]\n  2078: a1 = u64 [a4 + 0x88]\n  2082: a2 = u64 [a4 + 0x78]\n  2085: a3 = u64 [a4 + 0x70]\n  2088: a1 = a1 | a2\n  2091: a0 = a0 | a3\n  2094: a0 = a0 | a1\n  2097: jump @67 if a0 == 0\n      : @66 (gas: 1)\n  2100: jump @343\n      : @67 (gas: 3)\n  2103: a0 = u64 [s1 + 0xb8]\n  2107: a0 = i32 [a0]\n  2109: jump @69 if a0 >u 35\n      : @68 (gas: 1)\n  2113: jump @344\n      : @69 (gas: 6)\n  2116: a0 = s1 + 0x1000\n  2120: i32 a0 = a0 + 0xfffffffffffffcc0\n  2124: a1 = 0x4\n  2127: ra = 0x2e\n  2130: ecalli 3 // 'call_data_load'\n  2132: fallthrough\n      : @70 [@dyn 23] (gas: 5)\n  2133: a4 = s1 + 0x7ff\n  2137: a4 = a4 + 0x31\n  2140: a1 = u64 [a4 + 0x4a0]\n  2144: a0 = u64 [a4 + 0x4a8]\n  2148: t0 = 48, jump @494\n      : @71 [@dyn 24] (gas: 1)\n  2153: jump @73 if a3 != 0\n      : @72 (gas: 1)\n  2156: jump @345\n      : @73 (gas: 10)\n  2159: a2 = u64 [a4 + 0x498]\n  2163: a3 = u64 [a4 + 0x490]\n  2167: a4 = s1 + 0x500\n  2171: u64 [a4 + 0xa0] = a3\n  2175: u64 [a4 + 0xa8] = a2\n  2179: u64 [a4 + 0xb0] = a1\n  2183: a1 = s1 + 0x5a0\n  2187: u64 [a4 + 0xb8] = a0\n  2191: a0 = 0\n  2193: ra = 50, jump @9\n      : @74 [@dyn 25] (gas: 7)\n  2198: u64 [s1 + 1432] = 0\n  2202: u64 [s1 + 1424] = 0\n  2206: u64 [s1 + 1416] = 0\n  2210: a0 = 0x20\n  2213: a1 = s1 + 0x580\n  2217: u64 [s1 + 1408] = 0\n  2221: ra = 52, jump @9\n      : @75 [@dyn 26] (gas: 2)\n  2226: a1 = i32 [0x20068]\n  2231: jump @77 if a1 >u 63\n      : @76 (gas: 2)\n  2235: u32 [0x20068] = 0x40\n  2241: fallthrough\n      : @77 (gas: 12)\n  2242: a0 = sp + 0xffffffffffffffe0\n  2245: a2 = a0 & 0xffffffffffffffe0\n  2248: u64 [s1 + 0xb8] = a2\n  2252: sp = a2\n  2254: a0 = 0x20070\n  2259: i32 a0 = a0 + 0\n  2261: i32 a2 = a2 + 0\n  2263: a1 = 0x40\n  2266: ra = 0x36\n  2269: ecalli 10 // 'hash_keccak_256'\n  2271: t0 = 0x38\n  2274: jump @490\n      : @78 [@dyn 27] (gas: 1)\n  2277: t0 = 56, jump @490\n      : @79 [@dyn 28] (gas: 9)\n  2282: a5 = a4 + 0x400\n  2286: u64 [a5 + 0xc8] = a3\n  2290: u64 [a5 + 0xc0] = a2\n  2294: u64 [a5 + 0xb8] = a1\n  2298: u64 [a5 + 0xb0] = a0\n  2302: a0 = s1 + 0x560\n  2306: a1 = s1 + 0x7ff\n  2310: a1 = a1 + 0x4e1\n  2314: ra = 58, jump @11\n      : @80 [@dyn 29] (gas: 11)\n  2319: a0 = u64 [s1 + 0x578]\n  2323: u64 [s1 + 0xb8] = a0\n  2327: a0 = u64 [s1 + 0x570]\n  2331: u64 [s1 + 0xb0] = a0\n  2335: a0 = u64 [s1 + 0x568]\n  2339: u64 [s1 + 0xa8] = a0\n  2343: a0 = u64 [s1 + 0x560]\n  2347: u64 [s1 + 0xa0] = a0\n  2351: a0 = s1 + 0x540\n  2355: a1 = 0x40\n  2358: ra = 60, jump @7\n      : @81 [@dyn 30] (gas: 13)\n  2363: a4 = s1 + 0x500\n  2367: a0 = u64 [a4 + 0x58]\n  2370: a1 = u64 [a4 + 0x50]\n  2373: a2 = u64 [a4 + 0x48]\n  2376: a3 = u64 [a4 + 0x40]\n  2379: a0 = a0 | a2\n  2382: a2 = a3 | a1\n  2385: a2 = a2 | a0\n  2388: a2 = a2 >> 0x20\n  2391: a0 = a0 | a1\n  2394: a0 = a0 << 0x20\n  2397: a0 = a0 | a2\n  2400: jump @83 if a0 == 0\n      : @82 (gas: 1)\n  2403: jump @291\n      : @83 (gas: 14)\n  2406: a0 = u64 [s1 + 0xa0]\n  2410: a2 = s1 + 0x500\n  2414: u64 [a2 + 0x20] = a0\n  2417: a0 = u64 [s1 + 0xa8]\n  2421: u64 [a2 + 0x28] = a0\n  2424: a0 = u64 [s1 + 0xb0]\n  2428: u64 [a2 + 0x30] = a0\n  2431: a1 = s1 + 0x520\n  2435: a0 = u64 [s1 + 0xb8]\n  2439: u64 [a2 + 0x38] = a0\n  2442: a0 = a3\n  2444: u64 [s1 + 0xb8] = a3\n  2448: ra = 0x9a\n  2452: jump @9\n      : @84 (gas: 8)\n  2455: u64 [a2 + 1768] = 0\n  2459: u64 [a2 + 1760] = 0\n  2463: u64 [a2 + 1752] = 0\n  2467: u64 [a2 + 1744] = 0\n  2471: a0 = s1 + 0x1000\n  2475: i32 a0 = a0 + 0xffffffffffffff00\n  2479: ecalli 17 // 'value_transferred'\n  2481: fallthrough\n      : @85 (gas: 11)\n  2482: a3 = s1 + 0x7ff\n  2486: a3 = a3 + 0x31\n  2489: a4 = a3 + 0x600\n  2493: a0 = u64 [a4 + 0xe0]\n  2497: a1 = u64 [a4 + 0xe8]\n  2501: a2 = u64 [a4 + 0xd8]\n  2505: a3 = u64 [a4 + 0xd0]\n  2509: a1 = a1 | a2\n  2512: a0 = a0 | a3\n  2515: a0 = a0 | a1\n  2518: jump @87 if a0 == 0\n      : @86 (gas: 1)\n  2521: jump @340\n      : @87 (gas: 3)\n  2524: a0 = u64 [s1 + 0xb8]\n  2528: a0 = i32 [a0]\n  2530: jump @89 if a0 >u 35\n      : @88 (gas: 1)\n  2534: jump @340\n      : @89 (gas: 5)\n  2537: a0 = s1 + 0x1000\n  2541: i32 a0 = a0 + 0xffffffffffffff20\n  2545: a1 = 0x4\n  2548: ecalli 3 // 'call_data_load'\n  2550: fallthrough\n      : @90 (gas: 12)\n  2551: a1 = s1 + 0x7ff\n  2555: a1 = a1 + 0x31\n  2558: a0 = u64 [a1 + 0x700]\n  2562: a1 = u64 [a1 + 0x708]\n  2566: a2 = 0x100000000\n  2576: a2 = a2 ^ a0\n  2579: a2 = a2 | a1\n  2582: a0 = a0 >> 0x20\n  2585: a0 = a0 <u 0x1\n  2588: a0 = 0 if a1 != 0\n  2590: a0 = 0 if a2 == 0\n  2592: jump @92 if a0 != 0\n      : @91 (gas: 1)\n  2595: jump @341\n      : @92 (gas: 4)\n  2598: a0 = s1 + 0x7ff\n  2602: a0 = a0 + 0x261\n  2606: a1 = 0x40\n  2609: ra = 62, jump @7\n      : @93 [@dyn 31] (gas: 15)\n  2614: a3 = s1 + 0x7ff\n  2618: a3 = a3 + 0x31\n  2621: a5 = a3 + 0x200\n  2625: a4 = u64 [a5 + 0x48]\n  2628: a1 = u64 [a5 + 0x40]\n  2631: a2 = u64 [a5 + 0x38]\n  2634: a0 = u64 [a5 + 0x30]\n  2637: a4 = a4 | a2\n  2640: a2 = a0 | a1\n  2643: a2 = a2 | a4\n  2646: a2 = a2 >> 0x20\n  2649: a1 = a1 | a4\n  2652: a1 = a1 << 0x20\n  2655: a1 = a1 | a2\n  2658: jump @95 if a1 == 0\n      : @94 (gas: 1)\n  2661: jump @291\n      : @95 (gas: 9)\n  2664: u64 [a3 + 552] = 0\n  2668: u64 [a3 + 544] = 0\n  2672: u64 [a3 + 536] = 0\n  2676: a1 = s1 + 0x7ff\n  2680: a1 = a1 + 0x241\n  2684: u64 [a3 + 528] = 0\n  2688: u64 [s1 + 0xb8] = a0\n  2692: ra = 0x9a\n  2696: jump @9\n      : @96 (gas: 8)\n  2699: u64 [a2 + 1128] = 0\n  2703: u64 [a2 + 1120] = 0\n  2707: u64 [a2 + 1112] = 0\n  2711: u64 [a2 + 1104] = 0\n  2715: a0 = s1 + 0x1000\n  2719: i32 a0 = a0 + 0xfffffffffffffc80\n  2723: ecalli 17 // 'value_transferred'\n  2725: fallthrough\n      : @97 (gas: 11)\n  2726: a3 = s1 + 0x7ff\n  2730: a3 = a3 + 0x31\n  2733: a4 = a3 + 0x400\n  2737: a0 = u64 [a4 + 0x60]\n  2740: a1 = u64 [a4 + 0x68]\n  2743: a2 = u64 [a4 + 0x58]\n  2746: a3 = u64 [a4 + 0x50]\n  2749: a1 = a1 | a2\n  2752: a0 = a0 | a3\n  2755: a0 = a0 | a1\n  2758: jump @99 if a0 == 0\n      : @98 (gas: 1)\n  2761: jump @346\n      : @99 (gas: 4)\n  2764: a0 = u64 [s1 + 0xb8]\n  2768: a0 = i32 [a0]\n  2770: a1 = 0x3\n  2773: jump @101 if a1 <u a0\n      : @100 (gas: 1)\n  2776: jump @347\n      : @101 (gas: 1)\n  2779: ra = 64, jump @0\n      : @102 [@dyn 32] (gas: 14)\n  2784: a1 = u64 [0x300d8]\n  2789: u64 [s1 + 0xb8] = a1\n  2793: a1 = u64 [0x300d0]\n  2798: u64 [s1 + 0xb0] = a1\n  2802: a0 = u32 [0x300e0]\n  2807: u64 [s1 + 0xa8] = a0\n  2811: a0 = 0x30070\n  2816: u64 [s1 + 0xa0] = a0\n  2820: i32 a0 = a0 + 0\n  2822: ra = 0x42\n  2825: ecalli 5 // 'caller'\n  2827: a2 = u64 [s1 + 0xa0]\n  2831: t0 = 0x44\n  2834: jump @489\n      : @103 [@dyn 33] (gas: 2)\n  2837: a2 = u64 [s1 + 0xa0]\n  2841: t0 = 68, jump @489\n      : @104 [@dyn 34] (gas: 9)\n  2846: a2 = u64 [s1 + 0xa8]\n  2850: a1 = a1 ^ a2\n  2853: a2 = u64 [s1 + 0xb0]\n  2857: a0 = a0 ^ a2\n  2860: a0 = a0 | a1\n  2863: a1 = u64 [s1 + 0xb8]\n  2867: a1 = a1 ^ a3\n  2870: a0 = a0 | a1\n  2873: jump @106 if a0 == 0\n      : @105 (gas: 1)\n  2876: jump @348\n      : @106 (gas: 2)\n  2879: a0 = s1 + 0x4e0\n  2883: ra = 70, jump @427\n      : @107 [@dyn 35] (gas: 3)\n  2888: a0 = s1 + 0x4c0\n  2892: a1 = 0x40\n  2895: ra = 72, jump @7\n      : @108 [@dyn 36] (gas: 13)\n  2900: a4 = s1 + 0x400\n  2904: a3 = u64 [a4 + 0xd8]\n  2908: a1 = u64 [a4 + 0xd0]\n  2912: a2 = u64 [a4 + 0xc8]\n  2916: a0 = u64 [a4 + 0xc0]\n  2920: a3 = a3 | a2\n  2923: a2 = a0 | a1\n  2926: a2 = a2 | a3\n  2929: a2 = a2 >> 0x20\n  2932: a1 = a1 | a3\n  2935: a1 = a1 << 0x20\n  2938: a1 = a1 | a2\n  2941: jump @110 if a1 == 0\n      : @109 (gas: 1)\n  2944: jump @291\n      : @110 (gas: 8)\n  2947: u64 [s1 + 1208] = 0\n  2951: u64 [s1 + 1200] = 0\n  2955: u64 [s1 + 1192] = 0\n  2959: a1 = s1 + 0x4a0\n  2963: u64 [s1 + 1184] = 0\n  2967: u64 [s1 + 0xb8] = a0\n  2971: ra = 0x9a\n  2975: jump @9\n      : @111 (gas: 8)\n  2978: u64 [a2 + 680] = 0\n  2982: u64 [a2 + 672] = 0\n  2986: u64 [a2 + 664] = 0\n  2990: u64 [a2 + 656] = 0\n  2994: a0 = s1 + 0x1000\n  2998: i32 a0 = a0 + 0xfffffffffffffac0\n  3002: ecalli 17 // 'value_transferred'\n  3004: fallthrough\n      : @112 (gas: 11)\n  3005: a3 = s1 + 0x7ff\n  3009: a3 = a3 + 0x31\n  3012: a4 = a3 + 0x200\n  3016: a0 = u64 [a4 + 0xa0]\n  3020: a1 = u64 [a4 + 0xa8]\n  3024: a2 = u64 [a4 + 0x98]\n  3028: a3 = u64 [a4 + 0x90]\n  3032: a1 = a1 | a2\n  3035: a0 = a0 | a3\n  3038: a0 = a0 | a1\n  3041: jump @114 if a0 == 0\n      : @113 (gas: 1)\n  3044: jump @352\n      : @114 (gas: 3)\n  3047: a0 = u64 [s1 + 0xb8]\n  3051: a0 = i32 [a0]\n  3053: jump @116 if a0 >u 35\n      : @115 (gas: 1)\n  3057: jump @353\n      : @116 (gas: 16)\n  3060: a0 = s1 + 0x1000\n  3064: i32 a0 = a0 + 0xfffffffffffffae0\n  3068: a1 = 0x4\n  3071: ecalli 3 // 'call_data_load'\n  3073: a0 = s1 + 0x7ff\n  3077: a0 = a0 + 0x31\n  3080: a2 = a0 + 0x200\n  3084: a1 = u64 [a2 + 0xc8]\n  3088: u64 [s1 + 0xa8] = a1\n  3092: a1 = u64 [a2 + 0xc0]\n  3096: u64 [s1 + 0xa0] = a1\n  3100: a1 = u64 [a2 + 0xb8]\n  3104: u64 [s1 + 0x98] = a1\n  3108: a0 = u64 [a2 + 0xb0]\n  3112: u64 [s1 + 0xb0] = a0\n  3116: ra = 74, jump @0\n      : @117 [@dyn 37] (gas: 14)\n  3121: a0 = 0x30090\n  3126: a1 = u64 [0x300d8]\n  3131: u64 [s1 + 0x88] = a1\n  3135: a1 = u64 [0x300d0]\n  3140: u64 [s1 + 0x80] = a1\n  3144: u64 [s1 + 0x90] = a0\n  3148: a0 = u32 [0x300e0]\n  3153: u64 [s1 + 0x78] = a0\n  3156: a0 = 0x30070\n  3161: u64 [s1 + 0xb8] = a0\n  3165: i32 a0 = a0 + 0\n  3167: u64 [s1 + 0x70] = a0\n  3170: ecalli 5 // 'caller'\n  3172: fallthrough\n      : @118 (gas: 23)\n  3173: a0 = u64 [s1 + 0xb8]\n  3177: t0 = u64 [a0 + 0x8]\n  3180: a4 = u64 [a0]\n  3182: a5 = u32 [a0 + 0x10]\n  3185: a0 = reverse t0\n  3187: a1 = a0 >> 0x20\n  3190: a2 = reverse a4\n  3192: a3 = a2 << 0x20\n  3195: a1 = a1 | a3\n  3198: a0 = a0 << 0x20\n  3201: a3 = reverse a5\n  3203: a3 = a3 >> 0x20\n  3206: a0 = a0 | a3\n  3209: a2 = a2 >> 0x20\n  3212: a3 = u64 [s1 + 0x78]\n  3215: a2 = a2 ^ a3\n  3218: a3 = u64 [s1 + 0x80]\n  3222: a0 = a0 ^ a3\n  3225: a0 = a0 | a2\n  3228: a2 = u64 [s1 + 0x88]\n  3232: a1 = a1 ^ a2\n  3235: a0 = a0 | a1\n  3238: jump @120 if a0 == 0\n      : @119 (gas: 1)\n  3241: jump @354\n      : @120 (gas: 11)\n  3244: u64 [s1 + 0x60] = a5\n  3247: u64 [s1 + 0x68] = t0\n  3250: u64 [s1 + 0x78] = a4\n  3253: a0 = u64 [s1 + 0xb0]\n  3257: a1 = u64 [s1 + 0xa0]\n  3261: a0 = a0 | a1\n  3264: a1 = u64 [s1 + 0xa8]\n  3268: a2 = u64 [s1 + 0x98]\n  3272: a1 = a1 | a2\n  3275: a0 = a0 | a1\n  3278: jump @122 if a0 != 0\n      : @121 (gas: 1)\n  3281: jump @358\n      : @122 (gas: 1)\n  3284: ra = 76, jump @0\n      : @123 [@dyn 38] (gas: 15)\n  3289: a0 = u64 [s1 + 0x90]\n  3293: a1 = u64 [a0]\n  3295: u64 [s1 + 0x88] = a1\n  3299: a1 = u64 [a0 + 0x10]\n  3302: u64 [s1 + 0x80] = a1\n  3306: a0 = u64 [a0 + 0x8]\n  3309: u64 [s1 + 0x90] = a0\n  3313: a0 = 0x852a12e300000000\n  3323: u64 [s1 + 0x478] = a0\n  3327: u64 [s1 + 1136] = 0\n  3331: u64 [s1 + 1128] = 0\n  3335: a0 = 0x80\n  3339: a1 = s1 + 0x460\n  3343: u64 [s1 + 1120] = 0\n  3347: ra = 78, jump @9\n      : @124 [@dyn 39] (gas: 12)\n  3352: a0 = u64 [s1 + 0xa8]\n  3356: a3 = s1 + 0x400\n  3360: u64 [a3 + 0x58] = a0\n  3363: a0 = u64 [s1 + 0xa0]\n  3367: u64 [a3 + 0x50] = a0\n  3370: a0 = u64 [s1 + 0x98]\n  3374: u64 [a3 + 0x48] = a0\n  3377: a0 = 0x84\n  3381: a1 = s1 + 0x440\n  3385: a2 = u64 [s1 + 0xb0]\n  3389: u64 [a3 + 0x40] = a2\n  3392: ra = 80, jump @9\n      : @125 [@dyn 40] (gas: 2)\n  3397: ecalli 11 // 'ref_time_left'\n  3399: fallthrough\n      : @126 (gas: 29)\n  3400: a0 = u64 [s1 + 0x90]\n  3404: a0 = reverse a0\n  3406: a1 = a0 << 0x20\n  3409: a2 = u64 [s1 + 0x80]\n  3413: a2 = reverse a2\n  3415: a2 = a2 >> 0x20\n  3418: a3 = a2 | a1\n  3421: a0 = a0 >> 0x20\n  3424: a1 = u64 [s1 + 0x88]\n  3428: a1 = reverse a1\n  3430: a2 = a1 << 0x20\n  3433: a0 = a0 | a2\n  3436: a2 = a1 >> 0x20\n  3439: a1 = u64 [s1 + 0xb8]\n  3443: u64 [s1 + 0x38] = a0\n  3446: u64 [a1 + 0x8] = a0\n  3449: a4 = 0x20068\n  3454: u64 [s1 + 0x48] = a3\n  3457: u64 [a1] = a3\n  3459: u64 [s1 + 0x40] = a2\n  3462: u32 [a1 + 0x10] = a2\n  3465: a2 = s1 + 0x7ff\n  3469: a2 = a2 + 0x31\n  3472: u64 [a2 + 744] = 0\n  3476: a0 = i32 [0x20068]\n  3481: u64 [a2 + 736] = 0\n  3485: u64 [a2 + 728] = 0\n  3489: u64 [a2 + 720] = 0\n  3493: jump @128 if a0 >u 191\n      : @127 (gas: 2)\n  3498: u32 [0x20068] = 0xc0\n  3505: fallthrough\n      : @128 (gas: 37)\n  3506: u64 [s1 + 0x80] = a4\n  3510: a4 = 0x2400000000\n  3520: u32 [a2 + 752] = 0x20\n  3525: a1 = a2 + 0x300\n  3529: u64 [a1 + 40] = 0xffffffffffffffff\n  3533: u64 [a1 + 32] = 0xffffffffffffffff\n  3537: u64 [a1 + 24] = 0xffffffffffffffff\n  3541: u64 [a1 + 16] = 0xffffffffffffffff\n  3545: a0 = u64 [s1 + 0xb8]\n  3549: a0 = a0 << 0x20\n  3552: a1 = a0 >> 0x20\n  3555: a0 = 0x800000000\n  3565: u64 [s1 + 0x88] = a1\n  3569: a0 = a0 | a1\n  3572: a1 = s1 + 0x7ff\n  3576: a1 = a1 + 0x301\n  3580: a1 = a1 << 0x20\n  3583: a1 = a1 >> 0x20\n  3586: a5 = 0x20070\n  3591: a2 = s1 + 0x7ff\n  3595: a2 = a2 + 0x341\n  3599: a2 = a2 << 0x20\n  3602: a3 = a2 | a1\n  3605: u64 [s1 + 0x90] = a5\n  3609: a1 = a5 + 0x80\n  3613: a1 = a1 << 0x20\n  3616: a1 = a1 >> 0x20\n  3619: a2 = s1 + 0x7ff\n  3623: a2 = a2 + 0x321\n  3627: a2 = a2 << 0x20\n  3630: a5 = a2 | a1\n  3633: u64 [s1 + 0x50] = a4\n  3636: a4 = a4 | a1\n  3639: a1 = 0xffffffffffffffff\n  3642: a2 = 0xffffffffffffffff\n  3645: ecalli 1 // 'call'\n  3647: fallthrough\n      : @129 (gas: 1)\n  3648: jump @131 if a0 == 0\n      : @130 (gas: 1)\n  3651: jump @292\n      : @131 (gas: 2)\n  3654: ecalli 13 // 'return_data_size'\n  3656: fallthrough\n      : @132 (gas: 2)\n  3657: a1 = 0x20\n  3660: jump @134 if a0 >=u a1\n      : @133 (gas: 3)\n  3663: ecalli 13 // 'return_data_size'\n  3665: a1 = a0\n  3667: fallthrough\n      : @134 (gas: 13)\n  3668: u64 [s1 + 48] = 0\n  3671: u64 [s1 + 0x58] = a1\n  3674: u64 [s1 + 0x3e0] = a1\n  3678: u64 [s1 + 1048] = 0\n  3682: u64 [s1 + 1040] = 0\n  3686: u64 [s1 + 1032] = 0\n  3690: u64 [s1 + 1024] = 0x80\n  3696: u64 [s1 + 1000] = 0\n  3700: u64 [s1 + 1008] = 0\n  3704: a0 = s1 + 0x400\n  3708: a1 = s1 + 0x3e0\n  3712: u64 [s1 + 1016] = 0\n  3716: ra = 82, jump @418\n      : @135 [@dyn 41] (gas: 4)\n  3721: a3 = u64 [s1 + 0x30]\n  3724: a0 = a3 >u 0\n  3726: a1 = u64 [s1 + 0x58]\n  3729: t0 = 84, jump @484\n      : @136 [@dyn 42] (gas: 1)\n  3734: jump @138 if a2 != 0\n      : @137 (gas: 1)\n  3737: jump @392\n      : @138 (gas: 3)\n  3740: a0 = s1 + 0x3c0\n  3744: a1 = 0x80\n  3748: ra = 86, jump @7\n      : @139 [@dyn 43] (gas: 9)\n  3753: a4 = s1 + 0x300\n  3757: a0 = u64 [a4 + 0xd0]\n  3761: a1 = u64 [a4 + 0xd8]\n  3765: a2 = u64 [a4 + 0xc8]\n  3769: a3 = u64 [a4 + 0xc0]\n  3773: a1 = a1 | a2\n  3776: a0 = a0 | a3\n  3779: a0 = a0 | a1\n  3782: jump @141 if a0 == 0\n      : @140 (gas: 1)\n  3785: jump @393\n      : @141 (gas: 5)\n  3788: a0 = u64 [s1 + 0x70]\n  3791: ra = 0x58\n  3794: ecalli 5 // 'caller'\n  3796: t0 = 0x5a\n  3799: jump @488\n      : @142 [@dyn 44] (gas: 1)\n  3802: t0 = 90, jump @488\n      : @143 [@dyn 45] (gas: 8)\n  3807: u64 [s1 + 920] = 0\n  3811: a2 = s1 + 0x300\n  3815: u64 [a2 + 0x90] = a1\n  3819: u64 [a2 + 0x88] = a0\n  3823: a1 = s1 + 0x380\n  3827: u64 [a2 + 0x80] = a3\n  3831: a0 = 0\n  3833: ra = 92, jump @9\n      : @144 [@dyn 46] (gas: 7)\n  3838: u64 [s1 + 888] = 0\n  3842: u64 [s1 + 880] = 0\n  3846: u64 [s1 + 872] = 0\n  3850: a0 = 0x20\n  3853: a1 = s1 + 0x360\n  3857: u64 [s1 + 864] = 0\n  3861: ra = 94, jump @9\n      : @145 [@dyn 47] (gas: 7)\n  3866: a0 = sp + 0xffffffffffffffe0\n  3869: a0 = a0 & 0xffffffffffffffe0\n  3872: u64 [s1 + 0x58] = a0\n  3875: sp = a0\n  3877: a2 = u64 [s1 + 0x80]\n  3881: a0 = i32 [a2]\n  3883: jump @147 if a0 >u 63\n      : @146 (gas: 2)\n  3887: u32 [a2 + 0] = 0x40\n  3890: fallthrough\n      : @147 (gas: 13)\n  3891: a0 = sp + 0xffffffffffffffe0\n  3894: a2 = a0 & 0xffffffffffffffe0\n  3897: u64 [s1 + 0x30] = a2\n  3900: sp = a2\n  3902: a0 = i32 [s1 + 0x90]\n  3906: i32 a2 = a2 + 0\n  3908: a1 = 0x40\n  3911: u64 [s1 + 0x8] = a0\n  3914: ra = 0x60\n  3917: ecalli 10 // 'hash_keccak_256'\n  3919: a3 = u64 [s1 + 0x30]\n  3922: t0 = 0x62\n  3925: jump @495\n      : @148 [@dyn 48] (gas: 2)\n  3928: a3 = u64 [s1 + 0x30]\n  3931: t0 = 98, jump @495\n      : @149 [@dyn 49] (gas: 7)\n  3936: a1 = u64 [s1 + 0x58]\n  3939: u64 [a1 + 0x18] = a3\n  3942: u64 [a1 + 0x10] = a2\n  3945: u64 [a1 + 0x8] = a4\n  3948: u64 [a1] = a0\n  3950: a0 = s1 + 0x340\n  3954: ra = 100, jump @11\n      : @150 [@dyn 50] (gas: 48)\n  3959: t0 = u64 [s1 + 0x358]\n  3963: t1 = u64 [s1 + 0x350]\n  3967: a0 = u64 [s1 + 0x340]\n  3971: u64 [s1 + 0x30] = a0\n  3974: a2 = u64 [s1 + 0x348]\n  3978: u64 [s1 + 0x28] = a2\n  3981: a1 = sp + 0xffffffffffffffe0\n  3984: t2 = a1 & 0xffffffffffffffe0\n  3987: sp = t2\n  3989: a5 = u64 [s1 + 0x98]\n  3993: a3 = a2 ^ a5\n  3996: a1 = a2 <u a5\n  3999: a2 = u64 [s1 + 0xb0]\n  4003: a0 = a0 <u a2\n  4006: u64 [s1 + 0x20] = a0\n  4009: a1 = a0 if a3 == 0\n  4012: a0 = u64 [s1 + 0xa0]\n  4016: a4 = t1 <u a0\n  4019: u64 [s1 + 0x10] = a4\n  4022: ra = u64 [s1 + 0xa8]\n  4026: u64 [s1 + 0x18] = t0\n  4029: a2 = t0 ^ ra\n  4032: a3 = t0 <u ra\n  4035: a3 = a4 if a2 == 0\n  4038: t0 = t1 ^ a0\n  4041: a2 = t0 | a2\n  4044: a4 = t1 - a0\n  4047: a3 = a1 if a2 == 0\n  4050: a2 = a4 - a1\n  4053: a0 = a4 <u a1\n  4056: a1 = u64 [s1 + 0x18]\n  4059: a4 = a1 - ra\n  4062: a1 = u64 [s1 + 0x10]\n  4065: a4 = a4 - a1\n  4068: a4 = a4 - a0\n  4071: a0 = u64 [s1 + 0x28]\n  4074: a0 = a0 - a5\n  4077: a1 = u64 [s1 + 0x20]\n  4080: a0 = a0 - a1\n  4083: a5 = t2\n  4085: u64 [a5 + 0x18] = a4\n  4088: u64 [a5 + 0x10] = a2\n  4091: u64 [a5 + 0x8] = a0\n  4094: a0 = u64 [s1 + 0x30]\n  4097: a1 = u64 [s1 + 0xb0]\n  4101: a0 = a0 - a1\n  4104: u64 [a5] = a0\n  4106: jump @152 if a3 == 0\n      : @151 (gas: 1)\n  4109: jump @397\n      : @152 (gas: 3)\n  4112: a0 = u64 [s1 + 0x58]\n  4115: a1 = t2\n  4117: ra = 102, jump @12\n      : @153 [@dyn 51] (gas: 50)\n  4122: ecalli 11 // 'ref_time_left'\n  4124: a1 = u64 [s1 + 0xb8]\n  4128: a2 = u64 [s1 + 0x68]\n  4131: u64 [a1 + 0x8] = a2\n  4134: a2 = u64 [s1 + 0x78]\n  4137: u64 [a1] = a2\n  4139: a2 = u64 [s1 + 0x60]\n  4142: u32 [a1 + 0x10] = a2\n  4145: a2 = s1 + 0x7ff\n  4149: a2 = a2 + 0x31\n  4152: a1 = u64 [s1 + 0xa8]\n  4156: a3 = a2 + 0x300\n  4160: u64 [a3 + 0x68] = a1\n  4163: a1 = u64 [s1 + 0xa0]\n  4167: u64 [a3 + 0x60] = a1\n  4170: a1 = u64 [s1 + 0x98]\n  4174: u64 [a3 + 0x58] = a1\n  4177: a1 = u64 [s1 + 0xb0]\n  4181: u64 [a3 + 0x50] = a1\n  4184: u32 [a2 + 880] = 0\n  4188: a0 = a0 >u 0x8fc\n  4192: a1 = -a0\n  4194: u64 [a3 + 0xa8] = a1\n  4198: u64 [a3 + 0xa0] = a1\n  4202: u64 [a3 + 0x98] = a1\n  4206: u64 [a3 + 0x90] = a1\n  4210: a0 = a0 << 0x23\n  4213: a1 = u64 [s1 + 0x88]\n  4217: a0 = a0 | a1\n  4220: a1 = s1 + 0x7ff\n  4224: a1 = a1 + 0x381\n  4228: a1 = a1 << 0x20\n  4231: a1 = a1 >> 0x20\n  4234: a2 = s1 + 0x7ff\n  4238: a2 = a2 + 0x3c1\n  4242: a2 = a2 << 0x20\n  4245: a3 = a2 | a1\n  4248: a4 = u64 [s1 + 0x90]\n  4252: a4 = a4 << 0x20\n  4255: a4 = a4 >> 0x20\n  4258: a1 = s1 + 0x7ff\n  4262: a1 = a1 + 0x3a1\n  4266: a1 = a1 << 0x20\n  4269: a5 = a1 | a4\n  4272: a1 = 0xffffffffffffffff\n  4275: a2 = 0xffffffffffffffff\n  4278: ecalli 1 // 'call'\n  4280: u64 [s1 + 0x90] = a0\n  4284: ecalli 13 // 'return_data_size'\n  4286: fallthrough\n      : @154 (gas: 2)\n  4287: a2 = u64 [s1 + 0x90]\n  4291: jump @156 if a0 == 0\n      : @155 (gas: 1)\n  4294: jump @300\n      : @156 (gas: 1)\n  4297: jump @158 if a2 == 0\n      : @157 (gas: 1)\n  4300: jump @402\n      : @158 (gas: 3)\n  4303: a0 = s1 + 0x280\n  4307: a1 = 0x40\n  4310: ra = 104, jump @7\n      : @159 [@dyn 52] (gas: 13)\n  4315: a1 = s1 + 0x200\n  4319: a3 = u64 [a1 + 0x98]\n  4323: a4 = u64 [a1 + 0x90]\n  4327: a5 = u64 [a1 + 0x88]\n  4331: a0 = u64 [a1 + 0x80]\n  4335: a2 = a5 | a3\n  4338: a1 = a0 | a4\n  4341: a1 = a1 | a2\n  4344: a1 = a1 >> 0x20\n  4347: a2 = a2 | a4\n  4350: a2 = a2 << 0x20\n  4353: a1 = a1 | a2\n  4356: jump @291 if a1 != 0\n      : @160 (gas: 11)\n  4360: u64 [s1 + 624] = 0\n  4364: u64 [s1 + 616] = 0\n  4368: u64 [s1 + 608] = 0\n  4372: a2 = 0x70a0823100000000\n  4382: a1 = s1 + 0x260\n  4386: u64 [s1 + 0x278] = a2\n  4390: u64 [s1 + 0x90] = a0\n  4394: u64 [s1 + 0x80] = a3\n  4398: u64 [s1 + 0x78] = a4\n  4401: u64 [s1 + 0x68] = a5\n  4404: ra = 106, jump @9\n      : @161 [@dyn 53] (gas: 4)\n  4409: a0 = u64 [s1 + 0x70]\n  4412: ra = 0x6c\n  4415: ecalli 0 // 'address'\n  4416: fallthrough\n      : @162 [@dyn 54] (gas: 10)\n  4417: a4 = u64 [s1 + 0x90]\n  4421: a0 = u64 [s1 + 0x80]\n  4425: a1 = u64 [s1 + 0x78]\n  4428: a0 = a0 | a1\n  4431: a1 = 0xfffffffc\n  4441: a1 = a4 <u a1\n  4444: a2 = u64 [s1 + 0x68]\n  4447: a1 = 0 if a2 != 0\n  4449: a1 = 0 if a0 != 0\n  4451: jump @291 if a1 == 0\n      : @163 (gas: 1)\n  4455: t0 = 110, jump @486\n      : @164 [@dyn 55] (gas: 7)\n  4460: u64 [s1 + 600] = 0\n  4464: a4 = s1 + 0x200\n  4468: u64 [a4 + 0x50] = a1\n  4471: u64 [a4 + 0x48] = a2\n  4474: a1 = s1 + 0x240\n  4478: u64 [a4 + 0x40] = a3\n  4481: ra = 112, jump @9\n      : @165 [@dyn 56] (gas: 17)\n  4486: ecalli 11 // 'ref_time_left'\n  4488: a0 = u64 [s1 + 0x38]\n  4491: a1 = u64 [s1 + 0xb8]\n  4495: u64 [a1 + 0x8] = a0\n  4498: a0 = u64 [s1 + 0x48]\n  4501: u64 [a1] = a0\n  4503: a0 = u64 [s1 + 0x40]\n  4506: u32 [a1 + 0x10] = a0\n  4509: a0 = s1 + 0x7ff\n  4513: a0 = a0 + 0x31\n  4516: u64 [a0 + 1000] = 0\n  4520: u64 [a0 + 992] = 0\n  4524: u64 [a0 + 984] = 0\n  4528: u64 [a0 + 976] = 0\n  4532: a1 = 0x24\n  4535: a0 = u64 [s1 + 0x90]\n  4539: ra = 114, jump @15\n      : @166 [@dyn 57] (gas: 4)\n  4544: u64 [s1 + 0x60] = a0\n  4547: a1 = 0x20\n  4550: a0 = u64 [s1 + 0x90]\n  4554: ra = 116, jump @15\n      : @167 [@dyn 58] (gas: 34)\n  4559: a1 = s1 + 0x7ff\n  4563: a1 = a1 + 0x31\n  4566: u32 [a1 + 1008] = 0x20\n  4571: u64 [a1 + 1064] = 0\n  4575: u64 [a1 + 1056] = 0\n  4579: u64 [a1 + 1048] = 0\n  4583: u64 [a1 + 1040] = 0\n  4587: a1 = 0x1800000000\n  4597: a2 = u64 [s1 + 0x88]\n  4601: t0 = a2 | a1\n  4604: a1 = s1 + 0x7ff\n  4608: a1 = a1 + 0x401\n  4612: a1 = a1 << 0x20\n  4615: a1 = a1 >> 0x20\n  4618: a2 = s1 + 0x7ff\n  4622: a2 = a2 + 0x441\n  4626: a2 = a2 << 0x20\n  4629: a3 = a2 | a1\n  4632: a1 = u64 [s1 + 0x60]\n  4635: a1 = a1 << 0x20\n  4638: a1 = a1 >> 0x20\n  4641: a4 = u64 [s1 + 0x50]\n  4644: a4 = a4 | a1\n  4647: a0 = a0 << 0x20\n  4650: a0 = a0 >> 0x20\n  4653: a1 = s1 + 0x7ff\n  4657: a1 = a1 + 0x421\n  4661: a1 = a1 << 0x20\n  4664: a5 = a1 | a0\n  4667: a1 = 0xffffffffffffffff\n  4670: a2 = 0xffffffffffffffff\n  4673: a0 = t0\n  4675: ecalli 1 // 'call'\n  4677: fallthrough\n      : @168 (gas: 1)\n  4678: jump @170 if a0 == 0\n      : @169 (gas: 1)\n  4681: jump @324\n      : @170 (gas: 2)\n  4684: ecalli 13 // 'return_data_size'\n  4686: fallthrough\n      : @171 (gas: 2)\n  4687: a4 = 0x20\n  4690: jump @173 if a0 >=u a4\n      : @172 (gas: 3)\n  4693: ecalli 13 // 'return_data_size'\n  4695: a4 = a0\n  4697: fallthrough\n      : @173 (gas: 18)\n  4698: a2 = u64 [s1 + 0x90]\n  4702: a3 = u64 [s1 + 0x80]\n  4706: a0 = u64 [s1 + 0x78]\n  4709: a1 = u64 [s1 + 0x68]\n  4712: u64 [s1 + 128] = 0\n  4716: u64 [s1 + 0x88] = a4\n  4720: u64 [s1 + 0x1e0] = a4\n  4724: a4 = s1 + 0x200\n  4728: u64 [a4] = a2\n  4730: u64 [s1 + 488] = 0\n  4734: u64 [a4 + 0x8] = a1\n  4737: u64 [s1 + 496] = 0\n  4741: u64 [a4 + 0x10] = a0\n  4744: u64 [s1 + 504] = 0\n  4748: a0 = s1 + 0x200\n  4752: a1 = s1 + 0x1e0\n  4756: u64 [a4 + 0x18] = a3\n  4759: ra = 118, jump @418\n      : @174 [@dyn 59] (gas: 4)\n  4764: a3 = u64 [s1 + 0x80]\n  4768: a0 = a3 >u 0\n  4770: a1 = u64 [s1 + 0x88]\n  4774: t0 = 120, jump @484\n      : @175 [@dyn 60] (gas: 1)\n  4779: jump @177 if a2 != 0\n      : @176 (gas: 1)\n  4782: jump @410\n      : @177 (gas: 3)\n  4785: a0 = s1 + 0x1c0\n  4789: a1 = u64 [s1 + 0x90]\n  4793: ra = 122, jump @7\n      : @178 [@dyn 61] (gas: 11)\n  4798: a0 = u64 [s1 + 0x1d8]\n  4802: u64 [s1 + 0x88] = a0\n  4806: a0 = u64 [s1 + 0x1d0]\n  4810: u64 [s1 + 0x80] = a0\n  4814: a0 = u64 [s1 + 0x1c8]\n  4818: u64 [s1 + 0x78] = a0\n  4821: a0 = u64 [s1 + 0x1c0]\n  4825: u64 [s1 + 0x68] = a0\n  4828: a0 = s1 + 0x1a0\n  4832: a1 = 0x40\n  4835: ra = 124, jump @7\n      : @179 [@dyn 62] (gas: 13)\n  4840: a0 = s1 + 0x100\n  4844: a4 = u64 [a0 + 0xb8]\n  4848: a5 = u64 [a0 + 0xb0]\n  4852: a3 = u64 [a0 + 0xa8]\n  4856: a2 = u64 [a0 + 0xa0]\n  4860: a0 = a3 | a4\n  4863: a1 = a2 | a5\n  4866: a1 = a1 | a0\n  4869: a1 = a1 >> 0x20\n  4872: a0 = a0 | a5\n  4875: a0 = a0 << 0x20\n  4878: a0 = a0 | a1\n  4881: jump @291 if a0 != 0\n      : @180 (gas: 15)\n  4885: a0 = u64 [s1 + 0xb0]\n  4889: u64 [s1 + 0x180] = a0\n  4893: a0 = u64 [s1 + 0x98]\n  4897: u64 [s1 + 0x188] = a0\n  4901: a0 = u64 [s1 + 0xa0]\n  4905: u64 [s1 + 0x190] = a0\n  4909: a1 = s1 + 0x180\n  4913: a0 = u64 [s1 + 0xa8]\n  4917: u64 [s1 + 0x198] = a0\n  4921: a0 = a2\n  4923: u64 [s1 + 0x90] = a2\n  4927: u64 [s1 + 0xb0] = a3\n  4931: u64 [s1 + 0xa8] = a4\n  4935: u64 [s1 + 0xa0] = a5\n  4939: ra = 126, jump @9\n      : @181 [@dyn 63] (gas: 2)\n  4944: a2 = u64 [s1 + 0x90]\n  4948: t0 = 128, jump @493\n      : @182 [@dyn 64] (gas: 1)\n  4954: jump @291 if a1 == 0\n      : @183 (gas: 11)\n  4958: i32 a0 = a2 + 0x20\n  4961: a1 = u64 [s1 + 0x68]\n  4964: u64 [s1 + 0x160] = a1\n  4968: a1 = u64 [s1 + 0x78]\n  4971: u64 [s1 + 0x168] = a1\n  4975: a1 = u64 [s1 + 0x80]\n  4979: u64 [s1 + 0x170] = a1\n  4983: a1 = s1 + 0x160\n  4987: a3 = u64 [s1 + 0x88]\n  4991: u64 [s1 + 0x178] = a3\n  4995: ra = 130, jump @9\n      : @184 [@dyn 65] (gas: 6)\n  5001: a0 = u64 [s1 + 0x70]\n  5004: ra = 0x84\n  5008: ecalli 5 // 'caller'\n  5010: a2 = u64 [s1 + 0xb8]\n  5014: t0 = 0x86\n  5018: jump @491\n      : @185 [@dyn 66] (gas: 2)\n  5021: a2 = u64 [s1 + 0xb8]\n  5025: t0 = 134, jump @491\n      : @186 [@dyn 67] (gas: 24)\n  5031: t0 = a1 | a0\n  5034: a3 = a3 >> 0x20\n  5037: a2 = reverse a2\n  5039: a1 = a2 << 0x20\n  5042: a1 = a1 | a3\n  5045: a2 = a2 >> 0x20\n  5048: u64 [s1 + 312] = 0\n  5052: a3 = u64 [0x20020]\n  5057: a4 = u64 [0x20028]\n  5062: a5 = u64 [0x20030]\n  5067: a0 = u64 [0x20038]\n  5072: u64 [s1 + 0x158] = a3\n  5076: a3 = s1 + 0x100\n  5080: u64 [a3 + 0x50] = a4\n  5083: u64 [a3 + 0x48] = a5\n  5086: u64 [a3 + 0x40] = a0\n  5089: u64 [a3 + 0x30] = a2\n  5092: u64 [a3 + 0x28] = a1\n  5095: a1 = 0x40\n  5098: a2 = s1 + 0x140\n  5102: a3 = s1 + 0x120\n  5106: u64 [s1 + 0x120] = t0\n  5110: a0 = u64 [s1 + 0x90]\n  5114: ra = 136, jump @13\n      : @187 [@dyn 68] (gas: 5)\n  5120: a0 = 0\n  5122: a1 = u64 [s1 + 0x8]\n  5125: a2 = 0\n  5127: ecalli 14 // 'seal_return'\n  5129: jump @369\n      : @188 (gas: 8)\n  5132: u64 [a2 + 1320] = 0\n  5136: u64 [a2 + 1312] = 0\n  5140: u64 [a2 + 1304] = 0\n  5144: u64 [a2 + 1296] = 0\n  5148: a0 = s1 + 0x1000\n  5152: i32 a0 = a0 + 0xfffffffffffffd40\n  5156: ecalli 17 // 'value_transferred'\n  5158: fallthrough\n      : @189 (gas: 11)\n  5159: a3 = s1 + 0x7ff\n  5163: a3 = a3 + 0x31\n  5166: a4 = a3 + 0x500\n  5170: a0 = u64 [a4 + 0x20]\n  5173: a1 = u64 [a4 + 0x28]\n  5176: a2 = u64 [a4 + 0x18]\n  5179: a3 = u64 [a4 + 0x10]\n  5182: a1 = a1 | a2\n  5185: a0 = a0 | a3\n  5188: a0 = a0 | a1\n  5191: jump @191 if a0 == 0\n      : @190 (gas: 1)\n  5194: jump @362\n      : @191 (gas: 3)\n  5197: a0 = u64 [s1 + 0xb8]\n  5201: a0 = i32 [a0]\n  5203: jump @193 if a0 >u 35\n      : @192 (gas: 1)\n  5207: jump @363\n      : @193 (gas: 6)\n  5210: a0 = s1 + 0x1000\n  5214: i32 a0 = a0 + 0xfffffffffffffd60\n  5218: a1 = 0x4\n  5221: ra = 0x8a\n  5225: ecalli 3 // 'call_data_load'\n  5227: fallthrough\n      : @194 [@dyn 69] (gas: 5)\n  5228: a4 = s1 + 0x7ff\n  5232: a4 = a4 + 0x31\n  5235: a1 = u64 [a4 + 0x540]\n  5239: a0 = u64 [a4 + 0x548]\n  5243: t0 = 140, jump @494\n      : @195 [@dyn 70] (gas: 1)\n  5249: jump @197 if a3 != 0\n      : @196 (gas: 1)\n  5252: jump @364\n      : @197 (gas: 10)\n  5255: a2 = u64 [a4 + 0x538]\n  5259: a3 = u64 [a4 + 0x530]\n  5263: a4 = s1 + 0x600\n  5267: u64 [a4 + 0xc0] = a3\n  5271: u64 [a4 + 0xc8] = a2\n  5275: u64 [a4 + 0xd0] = a1\n  5279: a1 = s1 + 0x6c0\n  5283: u64 [a4 + 0xd8] = a0\n  5287: a0 = 0\n  5289: ra = 142, jump @9\n      : @198 [@dyn 71] (gas: 7)\n  5295: u64 [s1 + 1720] = 0\n  5299: u64 [s1 + 1712] = 0\n  5303: u64 [s1 + 1704] = 0\n  5307: a0 = 0x20\n  5310: a1 = s1 + 0x6a0\n  5314: u64 [s1 + 1696] = 0\n  5318: ra = 144, jump @9\n      : @199 [@dyn 72] (gas: 2)\n  5324: a1 = i32 [0x20068]\n  5329: jump @201 if a1 >u 63\n      : @200 (gas: 2)\n  5333: u32 [0x20068] = 0x40\n  5339: fallthrough\n      : @201 (gas: 12)\n  5340: a0 = sp + 0xffffffffffffffe0\n  5343: a2 = a0 & 0xffffffffffffffe0\n  5346: u64 [s1 + 0xb8] = a2\n  5350: sp = a2\n  5352: a0 = 0x20070\n  5357: i32 a0 = a0 + 0\n  5359: i32 a2 = a2 + 0\n  5361: a1 = 0x40\n  5364: ra = 0x92\n  5368: ecalli 10 // 'hash_keccak_256'\n  5370: t0 = 0x94\n  5374: jump @490\n      : @202 [@dyn 73] (gas: 1)\n  5377: t0 = 148, jump @490\n      : @203 [@dyn 74] (gas: 9)\n  5383: a5 = a4 + 0x500\n  5387: u64 [a5 + 0x68] = a3\n  5390: u64 [a5 + 0x60] = a2\n  5393: u64 [a5 + 0x58] = a1\n  5396: u64 [a5 + 0x50] = a0\n  5399: a0 = s1 + 0x680\n  5403: a1 = s1 + 0x7ff\n  5407: a1 = a1 + 0x581\n  5411: ra = 150, jump @11\n      : @204 [@dyn 75] (gas: 11)\n  5417: a0 = u64 [s1 + 0x698]\n  5421: u64 [s1 + 0xb8] = a0\n  5425: a0 = u64 [s1 + 0x690]\n  5429: u64 [s1 + 0xb0] = a0\n  5433: a0 = u64 [s1 + 0x688]\n  5437: u64 [s1 + 0xa8] = a0\n  5441: a0 = u64 [s1 + 0x680]\n  5445: u64 [s1 + 0xa0] = a0\n  5449: a0 = s1 + 0x660\n  5453: a1 = 0x40\n  5456: ra = 152, jump @7\n      : @205 [@dyn 76] (gas: 13)\n  5462: a4 = s1 + 0x600\n  5466: a0 = u64 [a4 + 0x78]\n  5469: a1 = u64 [a4 + 0x70]\n  5472: a2 = u64 [a4 + 0x68]\n  5475: a3 = u64 [a4 + 0x60]\n  5478: a0 = a0 | a2\n  5481: a2 = a3 | a1\n  5484: a2 = a2 | a0\n  5487: a2 = a2 >> 0x20\n  5490: a0 = a0 | a1\n  5493: a0 = a0 << 0x20\n  5496: a0 = a0 | a2\n  5499: jump @291 if a0 != 0\n      : @206 (gas: 13)\n  5503: a0 = u64 [s1 + 0xa0]\n  5507: a2 = s1 + 0x600\n  5511: u64 [a2 + 0x40] = a0\n  5514: a0 = u64 [s1 + 0xa8]\n  5518: u64 [a2 + 0x48] = a0\n  5521: a0 = u64 [s1 + 0xb0]\n  5525: u64 [a2 + 0x50] = a0\n  5528: a1 = s1 + 0x640\n  5532: a0 = u64 [s1 + 0xb8]\n  5536: u64 [a2 + 0x58] = a0\n  5539: a0 = a3\n  5541: u64 [s1 + 0xb8] = a3\n  5545: ra = 154, jump @9\n      : @207 [@dyn 77] (gas: 4)\n  5551: a1 = 0x20\n  5554: a0 = u64 [s1 + 0xb8]\n  5558: ra = 0x13a\n  5562: jump @15\n      : @208 (gas: 1)\n  5565: jump @365 if a0 != 1608758631\n      : @209 (gas: 8)\n  5573: u64 [a2 + 1256] = 0\n  5577: u64 [a2 + 1248] = 0\n  5581: u64 [a2 + 1240] = 0\n  5585: u64 [a2 + 1232] = 0\n  5589: a0 = s1 + 0x1000\n  5593: i32 a0 = a0 + 0xfffffffffffffd00\n  5597: ecalli 17 // 'value_transferred'\n  5599: fallthrough\n      : @210 (gas: 11)\n  5600: a3 = s1 + 0x7ff\n  5604: a3 = a3 + 0x31\n  5607: a4 = a3 + 0x400\n  5611: a0 = u64 [a4 + 0xe0]\n  5615: a1 = u64 [a4 + 0xe8]\n  5619: a2 = u64 [a4 + 0xd8]\n  5623: a3 = u64 [a4 + 0xd0]\n  5627: a1 = a1 | a2\n  5630: a0 = a0 | a3\n  5633: a0 = a0 | a1\n  5636: jump @370 if a0 != 0\n      : @211 (gas: 3)\n  5640: a0 = u64 [s1 + 0xb8]\n  5644: a0 = i32 [a0]\n  5646: jump @371 if a0 <=u 3\n      : @212 (gas: 3)\n  5651: a0 = s1 + 0x5e0\n  5655: a1 = 0x40\n  5658: ra = 156, jump @7\n      : @213 [@dyn 78] (gas: 10)\n  5664: a1 = s1 + 0x500\n  5668: a0 = u64 [a1 + 0xf8]\n  5672: u64 [s1 + 0xb8] = a0\n  5676: a0 = u64 [a1 + 0xf0]\n  5680: u64 [s1 + 0xb0] = a0\n  5684: a0 = u64 [a1 + 0xe8]\n  5688: u64 [s1 + 0xa0] = a0\n  5692: a0 = u64 [a1 + 0xe0]\n  5696: u64 [s1 + 0xa8] = a0\n  5700: ra = 158, jump @0\n      : @214 [@dyn 79] (gas: 1)\n  5706: t0 = 160, jump @487\n      : @215 [@dyn 80] (gas: 1)\n  5712: jump @291 if a0 != 0\n      : @216 (gas: 12)\n  5716: a2 = u64 [0x300b0]\n  5721: a1 = u64 [0x300b8]\n  5726: a0 = u32 [0x300c0]\n  5731: u64 [s1 + 1496] = 0\n  5735: a4 = s1 + 0x500\n  5739: u64 [a4 + 0xd0] = a0\n  5743: u64 [a4 + 0xc8] = a1\n  5747: a1 = s1 + 0x5c0\n  5751: u64 [a4 + 0xc0] = a2\n  5755: a0 = a3\n  5757: ra = 0x138\n  5761: jump @9\n      : @217 (gas: 8)\n  5764: u64 [a2 + 1736] = 0\n  5768: u64 [a2 + 1728] = 0\n  5772: u64 [a2 + 1720] = 0\n  5776: u64 [a2 + 1712] = 0\n  5780: a0 = s1 + 0x1000\n  5784: i32 a0 = a0 + 0xfffffffffffffee0\n  5788: ecalli 17 // 'value_transferred'\n  5790: fallthrough\n      : @218 (gas: 11)\n  5791: a3 = s1 + 0x7ff\n  5795: a3 = a3 + 0x31\n  5798: a4 = a3 + 0x600\n  5802: a0 = u64 [a4 + 0xc0]\n  5806: a1 = u64 [a4 + 0xc8]\n  5810: a2 = u64 [a4 + 0xb8]\n  5814: a3 = u64 [a4 + 0xb0]\n  5818: a1 = a1 | a2\n  5821: a0 = a0 | a3\n  5824: a0 = a0 | a1\n  5827: jump @340 if a0 != 0\n      : @219 (gas: 3)\n  5831: a0 = u64 [s1 + 0xb8]\n  5835: a0 = i32 [a0]\n  5837: jump @340 if a0 <=u 3\n      : @220 (gas: 4)\n  5842: a0 = s1 + 0x7ff\n  5846: a0 = a0 + 0x221\n  5850: a1 = 0x40\n  5853: ra = 162, jump @7\n      : @221 [@dyn 81] (gas: 11)\n  5859: a0 = s1 + 0x7ff\n  5863: a0 = a0 + 0x31\n  5866: a1 = u64 [a0 + 0x208]\n  5870: u64 [s1 + 0xb8] = a1\n  5874: a1 = u64 [a0 + 0x200]\n  5878: u64 [s1 + 0xb0] = a1\n  5882: a1 = u64 [a0 + 0x1f8]\n  5886: u64 [s1 + 0xa0] = a1\n  5890: a0 = u64 [a0 + 0x1f0]\n  5894: u64 [s1 + 0xa8] = a0\n  5898: ra = 164, jump @0\n      : @222 [@dyn 82] (gas: 1)\n  5904: t0 = 166, jump @487\n      : @223 [@dyn 83] (gas: 1)\n  5910: jump @291 if a0 != 0\n      : @224 (gas: 15)\n  5914: a2 = u64 [0x30090]\n  5919: a1 = u64 [0x30098]\n  5924: a0 = u32 [0x300a0]\n  5929: a4 = s1 + 0x7ff\n  5933: a4 = a4 + 0x31\n  5936: u64 [a4 + 488] = 0\n  5940: a5 = a4 + 0x100\n  5944: u64 [a5 + 0xe0] = a0\n  5948: u64 [a5 + 0xd8] = a1\n  5952: a1 = s1 + 0x7ff\n  5956: a1 = a1 + 0x201\n  5960: u64 [a5 + 0xd0] = a2\n  5964: a0 = a3\n  5966: ra = 0x138\n  5970: jump @9\n      : @225 (gas: 3)\n  5973: a0 = u64 [s1 + 0xb8]\n  5977: a0 = i32 [a0]\n  5979: jump @372 if a0 <=u 35\n      : @226 (gas: 16)\n  5984: a0 = s1 + 0x1000\n  5988: i32 a0 = a0 + 0xfffffffffffffda0\n  5992: a1 = 0x4\n  5995: ecalli 3 // 'call_data_load'\n  5997: a0 = s1 + 0x7ff\n  6001: a0 = a0 + 0x31\n  6004: a2 = a0 + 0x500\n  6008: a1 = u64 [a2 + 0x88]\n  6012: u64 [s1 + 0xb0] = a1\n  6016: a1 = u64 [a2 + 0x80]\n  6020: u64 [s1 + 0xa8] = a1\n  6024: a1 = u64 [a2 + 0x78]\n  6027: u64 [s1 + 0xa0] = a1\n  6031: a0 = u64 [a2 + 0x70]\n  6034: u64 [s1 + 0x98] = a0\n  6038: ra = 168, jump @0\n      : @227 [@dyn 84] (gas: 17)\n  6044: a0 = 0x30090\n  6049: a1 = u64 [0x300d8]\n  6054: u64 [s1 + 0x80] = a1\n  6058: a1 = u64 [0x300d0]\n  6063: u64 [s1 + 0x78] = a1\n  6066: u64 [s1 + 0x88] = a0\n  6070: a0 = u32 [0x300e0]\n  6075: u64 [s1 + 0x70] = a0\n  6078: a0 = 0x30070\n  6083: u64 [s1 + 0xb8] = a0\n  6087: i32 a0 = a0 + 0\n  6089: u64 [s1 + 0x90] = a0\n  6093: ra = 0xaa\n  6097: ecalli 5 // 'caller'\n  6099: a2 = u64 [s1 + 0xb8]\n  6103: t0 = 0xac\n  6107: jump @489\n      : @228 [@dyn 85] (gas: 2)\n  6110: a2 = u64 [s1 + 0xb8]\n  6114: t0 = 172, jump @489\n      : @229 [@dyn 86] (gas: 9)\n  6120: a2 = u64 [s1 + 0x70]\n  6123: a1 = a1 ^ a2\n  6126: a2 = u64 [s1 + 0x78]\n  6129: a0 = a0 ^ a2\n  6132: a0 = a0 | a1\n  6135: a1 = u64 [s1 + 0x80]\n  6139: a1 = a1 ^ a3\n  6142: a0 = a0 | a1\n  6145: jump @373 if a0 != 0\n      : @230 (gas: 10)\n  6149: a0 = s1 + 0x7ff\n  6153: a0 = a0 + 0x31\n  6156: u64 [a0 + 1448] = 0\n  6160: u64 [a0 + 1440] = 0\n  6164: u64 [a0 + 1432] = 0\n  6168: u64 [a0 + 1424] = 0\n  6172: a0 = s1 + 0x1000\n  6176: i32 a0 = a0 + 0xfffffffffffffdc0\n  6180: ecalli 17 // 'value_transferred'\n  6182: fallthrough\n      : @231 (gas: 19)\n  6183: a2 = s1 + 0x7ff\n  6187: a2 = a2 + 0x31\n  6190: a3 = a2 + 0x500\n  6194: a0 = u64 [a3 + 0xa8]\n  6198: a1 = u64 [a3 + 0x98]\n  6202: t0 = u64 [a2 + 0x590]\n  6206: a2 = u64 [a3 + 0xa0]\n  6210: t1 = u64 [s1 + 0xb0]\n  6214: a0 = a0 ^ t1\n  6217: a3 = u64 [s1 + 0xa0]\n  6221: a1 = a1 ^ a3\n  6224: a0 = a0 | a1\n  6227: a5 = u64 [s1 + 0xa8]\n  6231: a1 = a2 ^ a5\n  6234: a4 = u64 [s1 + 0x98]\n  6238: a2 = t0 ^ a4\n  6241: a1 = a1 | a2\n  6244: a0 = a0 | a1\n  6247: jump @377 if a0 != 0\n      : @232 (gas: 5)\n  6251: a2 = a5\n  6253: a0 = a4 | a5\n  6256: a1 = a3 | t1\n  6259: a0 = a0 | a1\n  6262: jump @381 if a0 == 0\n      : @233 (gas: 1)\n  6266: ra = 174, jump @0\n      : @234 [@dyn 87] (gas: 4)\n  6272: a2 = u64 [s1 + 0x88]\n  6276: a0 = u64 [a2 + 0x8]\n  6279: a1 = u64 [a2 + 0x10]\n  6282: t0 = 176, jump @492\n      : @235 [@dyn 88] (gas: 10)\n  6288: a0 = u64 [s1 + 0xb8]\n  6292: u64 [s1 + 0x78] = a1\n  6295: u32 [a0 + 0x10] = a1\n  6298: u64 [s1 + 0x70] = a2\n  6301: u64 [a0 + 0x8] = a2\n  6304: u64 [s1 + 0x80] = a3\n  6308: u64 [a0] = a3\n  6310: a0 = u64 [s1 + 0x90]\n  6314: ecalli 6 // 'code_size'\n  6316: fallthrough\n      : @236 (gas: 1)\n  6317: jump @386 if a0 == 0\n      : @237 (gas: 4)\n  6321: a0 = s1 + 0x7ff\n  6325: a0 = a0 + 0x1a1\n  6329: a1 = 0x40\n  6332: ra = 178, jump @7\n      : @238 [@dyn 89] (gas: 15)\n  6338: a2 = s1 + 0x7ff\n  6342: a2 = a2 + 0x31\n  6345: t0 = u64 [a2 + 0x188]\n  6349: a1 = a2 + 0x100\n  6353: a4 = u64 [a1 + 0x80]\n  6357: a5 = u64 [a1 + 0x78]\n  6360: a0 = u64 [a1 + 0x70]\n  6363: a3 = a5 | t0\n  6366: a1 = a0 | a4\n  6369: a1 = a1 | a3\n  6372: a1 = a1 >> 0x20\n  6375: a3 = a3 | a4\n  6378: a3 = a3 << 0x20\n  6381: a1 = a1 | a3\n  6384: jump @291 if a1 != 0\n      : @239 (gas: 12)\n  6388: u64 [s1 + 0x50] = a5\n  6391: u64 [s1 + 0x58] = a4\n  6394: u64 [s1 + 0x60] = t0\n  6397: u64 [a2 + 352] = 0\n  6401: u64 [a2 + 344] = 0\n  6405: u64 [a2 + 336] = 0\n  6409: a3 = 0x1249c58b00000000\n  6419: a1 = s1 + 0x7ff\n  6423: a1 = a1 + 0x181\n  6427: u64 [a2 + 0x168] = a3\n  6431: u64 [s1 + 0x88] = a0\n  6435: ra = 180, jump @9\n      : @240 [@dyn 90] (gas: 22)\n  6441: ecalli 11 // 'ref_time_left'\n  6443: a1 = u64 [s1 + 0xb8]\n  6447: a0 = u64 [s1 + 0x70]\n  6450: u64 [a1 + 0x8] = a0\n  6453: a0 = u64 [s1 + 0x80]\n  6457: u64 [a1] = a0\n  6459: a0 = u64 [s1 + 0x78]\n  6462: u32 [a1 + 0x10] = a0\n  6465: a0 = u64 [s1 + 0xb0]\n  6469: a1 = s1 + 0x7ff\n  6473: a1 = a1 + 0x31\n  6476: a2 = a1 + 0x500\n  6480: u64 [a2 + 0xc8] = a0\n  6484: a0 = u64 [s1 + 0xa8]\n  6488: u64 [a2 + 0xc0] = a0\n  6492: a0 = u64 [s1 + 0xa0]\n  6496: u64 [a2 + 0xb8] = a0\n  6500: a0 = u64 [s1 + 0x98]\n  6504: u64 [a2 + 0xb0] = a0\n  6508: a1 = 0x4\n  6511: a0 = u64 [s1 + 0x88]\n  6515: ra = 182, jump @15\n      : @241 [@dyn 91] (gas: 4)\n  6521: u64 [s1 + 0x68] = a0\n  6524: a0 = u64 [s1 + 0x88]\n  6528: a1 = 0\n  6530: ra = 184, jump @15\n      : @242 [@dyn 92] (gas: 37)\n  6536: a2 = s1 + 0x7ff\n  6540: a2 = a2 + 0x31\n  6543: u32 [a2 + 1488] = 0\n  6547: u64 [a2 + 1544] = 0xffffffffffffffff\n  6552: u64 [a2 + 1536] = 0xffffffffffffffff\n  6557: u64 [a2 + 1528] = 0xffffffffffffffff\n  6562: u64 [a2 + 1520] = 0xffffffffffffffff\n  6567: a1 = u64 [s1 + 0xb8]\n  6571: a1 = a1 << 0x20\n  6574: a3 = a1 >> 0x20\n  6577: a2 = 0x800000000\n  6587: u64 [s1 + 0x48] = a3\n  6590: t0 = a3 | a2\n  6593: a2 = s1 + 0x7ff\n  6597: a2 = a2 + 0x5e1\n  6601: a2 = a2 << 0x20\n  6604: a2 = a2 >> 0x20\n  6607: a3 = s1 + 0x7ff\n  6611: a3 = a3 + 0x621\n  6615: a3 = a3 << 0x20\n  6618: a3 = a3 | a2\n  6621: a2 = u64 [s1 + 0x68]\n  6624: a2 = a2 << 0x20\n  6627: a2 = a2 >> 0x20\n  6630: a1 = 0x400000000\n  6640: a4 = a2 | a1\n  6643: a0 = a0 << 0x20\n  6646: a0 = a0 >> 0x20\n  6649: a1 = s1 + 0x7ff\n  6653: a1 = a1 + 0x601\n  6657: a1 = a1 << 0x20\n  6660: a5 = a1 | a0\n  6663: a1 = 0xffffffffffffffff\n  6666: a2 = 0xffffffffffffffff\n  6669: a0 = t0\n  6671: ecalli 1 // 'call'\n  6673: fallthrough\n      : @243 (gas: 1)\n  6674: jump @311 if a0 != 0\n      : @244 (gas: 21)\n  6678: a0 = s1 + 0x7ff\n  6682: a0 = a0 + 0x31\n  6685: u64 [a0 + 264] = 0\n  6689: u64 [a0 + 256] = 0\n  6693: u64 [a0 + 248] = 0\n  6697: u64 [a0 + 240] = 0\n  6701: a1 = u64 [s1 + 0x88]\n  6705: a2 = a0 + 0x100\n  6709: u64 [a2 + 0x10] = a1\n  6712: a1 = u64 [s1 + 0x50]\n  6715: u64 [a2 + 0x18] = a1\n  6718: a1 = u64 [s1 + 0x58]\n  6721: u64 [a2 + 0x20] = a1\n  6724: a3 = a0\n  6726: a0 = s1 + 0x7ff\n  6730: a0 = a0 + 0x141\n  6734: a1 = s1 + 0x7ff\n  6738: a1 = a1 + 0x121\n  6742: a2 = u64 [s1 + 0x60]\n  6745: u64 [a3 + 0x128] = a2\n  6749: ra = 186, jump @418\n      : @245 [@dyn 93] (gas: 5)\n  6755: a0 = u64 [s1 + 0x90]\n  6759: ra = 0xbc\n  6763: ecalli 5 // 'caller'\n  6765: t0 = 0xbe\n  6769: jump @488\n      : @246 [@dyn 94] (gas: 1)\n  6772: t0 = 190, jump @488\n      : @247 [@dyn 95] (gas: 10)\n  6778: a2 = s1 + 0x7ff\n  6782: a2 = a2 + 0x31\n  6785: u64 [a2 + 232] = 0\n  6789: u64 [a2 + 0xe0] = a1\n  6793: u64 [a2 + 0xd8] = a0\n  6797: a1 = s1 + 0x7ff\n  6801: a1 = a1 + 0x101\n  6805: u64 [a2 + 0xd0] = a3\n  6809: a0 = 0\n  6811: ra = 192, jump @9\n      : @248 [@dyn 96] (gas: 10)\n  6817: a2 = s1 + 0x7ff\n  6821: a2 = a2 + 0x31\n  6824: u64 [a2 + 200] = 0\n  6828: u64 [a2 + 192] = 0\n  6832: u64 [a2 + 184] = 0\n  6836: a0 = 0x20\n  6839: a1 = s1 + 0x7ff\n  6843: a1 = a1 + 0xe1\n  6847: u64 [a2 + 176] = 0\n  6851: ra = 194, jump @9\n      : @249 [@dyn 97] (gas: 7)\n  6857: a0 = sp + 0xffffffffffffffe0\n  6860: a0 = a0 & 0xffffffffffffffe0\n  6863: u64 [s1 + 0x88] = a0\n  6867: sp = a0\n  6869: a1 = 0x40\n  6872: a0 = 0\n  6874: ra = 196, jump @15\n      : @250 [@dyn 98] (gas: 12)\n  6880: a1 = sp + 0xffffffffffffffe0\n  6883: a1 = a1 & 0xffffffffffffffe0\n  6886: u64 [s1 + 0x68] = a1\n  6889: sp = a1\n  6891: i32 a0 = a0 + 0\n  6893: i32 a2 = a1 + 0\n  6895: a1 = 0x40\n  6898: ra = 0xc6\n  6902: ecalli 10 // 'hash_keccak_256'\n  6904: a3 = u64 [s1 + 0x68]\n  6907: t0 = 0xc8\n  6911: jump @495\n      : @251 [@dyn 99] (gas: 2)\n  6914: a3 = u64 [s1 + 0x68]\n  6917: t0 = 200, jump @495\n      : @252 [@dyn 100] (gas: 8)\n  6923: a1 = u64 [s1 + 0x88]\n  6927: u64 [a1 + 0x18] = a3\n  6930: u64 [a1 + 0x10] = a2\n  6933: u64 [a1 + 0x8] = a4\n  6936: u64 [a1] = a0\n  6938: a0 = s1 + 0x7ff\n  6942: a0 = a0 + 0xc1\n  6946: ra = 202, jump @11\n      : @253 [@dyn 101] (gas: 39)\n  6952: a1 = s1 + 0x7ff\n  6956: a1 = a1 + 0x31\n  6959: t2 = u64 [a1 + 0xa8]\n  6963: a0 = u64 [a1 + 0xa0]\n  6967: a4 = u64 [a1 + 0x90]\n  6971: a5 = u64 [a1 + 0x98]\n  6975: a1 = sp + 0xffffffffffffffe0\n  6978: a1 = a1 & 0xffffffffffffffe0\n  6981: sp = a1\n  6983: a3 = u64 [s1 + 0xa0]\n  6987: a3 = a3 + a5\n  6990: t0 = u64 [s1 + 0x98]\n  6994: t0 = t0 + a4\n  6997: a4 = t0 <u a4\n  7000: a3 = a3 + a4\n  7003: t1 = a3 ^ a5\n  7006: a2 = a3 <u a5\n  7009: a2 = a4 if t1 == 0\n  7012: a4 = u64 [s1 + 0xa8]\n  7016: a4 = a4 + a0\n  7019: a5 = a4 + a2\n  7022: t1 = a5 <u a4\n  7025: ra = u64 [s1 + 0xb0]\n  7029: ra = ra + t2\n  7032: a4 = a4 <u a0\n  7035: a4 = a4 + ra\n  7038: ra = a4 + t1\n  7041: t1 = a5 <u a0\n  7044: a4 = t2 ^ ra\n  7047: t2 = ra <u t2\n  7050: t2 = t1 if a4 == 0\n  7053: a0 = a0 ^ a5\n  7056: a0 = a0 | a4\n  7059: t2 = a2 if a0 == 0\n  7062: u64 [a1 + 0x10] = a5\n  7065: u64 [a1 + 0x8] = a3\n  7068: u64 [a1] = t0\n  7070: u64 [a1 + 0x18] = ra\n  7073: jump @406 if t2 != 0\n      : @254 (gas: 2)\n  7077: a0 = u64 [s1 + 0x88]\n  7081: ra = 204, jump @12\n      : @255 [@dyn 102] (gas: 4)\n  7087: a0 = s1 + 0x7ff\n  7091: a0 = a0 + 0xa1\n  7095: a1 = 0x40\n  7098: ra = 206, jump @7\n      : @256 [@dyn 103] (gas: 14)\n  7104: a2 = s1 + 0x7ff\n  7108: a2 = a2 + 0x31\n  7111: t0 = u64 [a2 + 0x88]\n  7115: a5 = u64 [a2 + 0x80]\n  7119: a4 = u64 [a2 + 0x78]\n  7122: a0 = u64 [a2 + 0x70]\n  7125: a3 = a4 | t0\n  7128: a1 = a0 | a5\n  7131: a1 = a1 | a3\n  7134: a1 = a1 >> 0x20\n  7137: a3 = a3 | a5\n  7140: a3 = a3 << 0x20\n  7143: a1 = a1 | a3\n  7146: jump @291 if a1 != 0\n      : @257 (gas: 12)\n  7150: u64 [a2 + 96] = 0\n  7153: u64 [a2 + 88] = 0\n  7156: u64 [a2 + 80] = 0\n  7159: a3 = 0x70a0823100000000\n  7169: a1 = s1 + 0x7ff\n  7173: a1 = a1 + 0x81\n  7177: u64 [a2 + 0x68] = a3\n  7180: u64 [s1 + 0x88] = a0\n  7184: u64 [s1 + 0x68] = t0\n  7187: u64 [s1 + 0x60] = a5\n  7190: u64 [s1 + 0x58] = a4\n  7193: ra = 208, jump @9\n      : @258 [@dyn 104] (gas: 4)\n  7199: a0 = u64 [s1 + 0x90]\n  7203: ra = 0xd2\n  7207: ecalli 0 // 'address'\n  7208: fallthrough\n      : @259 [@dyn 105] (gas: 10)\n  7209: a4 = u64 [s1 + 0x88]\n  7213: a0 = u64 [s1 + 0x68]\n  7216: a1 = u64 [s1 + 0x60]\n  7219: a0 = a0 | a1\n  7222: a1 = 0xfffffffc\n  7232: a1 = a4 <u a1\n  7235: a2 = u64 [s1 + 0x58]\n  7238: a1 = 0 if a2 != 0\n  7240: a1 = 0 if a0 != 0\n  7242: jump @291 if a1 == 0\n      : @260 (gas: 1)\n  7246: t0 = 212, jump @486\n      : @261 [@dyn 106] (gas: 9)\n  7252: a5 = s1 + 0x7ff\n  7256: a5 = a5 + 0x31\n  7259: u64 [a5 + 72] = 0\n  7262: u64 [a5 + 0x40] = a1\n  7265: u64 [a5 + 0x38] = a2\n  7268: a1 = s1 + 0x7ff\n  7272: a1 = a1 + 0x61\n  7275: u64 [a5 + 0x30] = a3\n  7278: ra = 214, jump @9\n      : @262 [@dyn 107] (gas: 17)\n  7284: ecalli 11 // 'ref_time_left'\n  7286: a0 = u64 [s1 + 0x70]\n  7289: a1 = u64 [s1 + 0xb8]\n  7293: u64 [a1 + 0x8] = a0\n  7296: a0 = u64 [s1 + 0x80]\n  7300: u64 [a1] = a0\n  7302: a0 = u64 [s1 + 0x78]\n  7305: u32 [a1 + 0x10] = a0\n  7308: a0 = s1 + 0x7ff\n  7312: a0 = a0 + 0x31\n  7315: u64 [a0 + 1608] = 0\n  7319: u64 [a0 + 1600] = 0\n  7323: u64 [a0 + 1592] = 0\n  7327: u64 [a0 + 1584] = 0\n  7331: a1 = 0x24\n  7334: a0 = u64 [s1 + 0x88]\n  7338: ra = 216, jump @15\n      : @263 [@dyn 108] (gas: 4)\n  7344: u64 [s1 + 0x80] = a0\n  7348: a1 = 0x20\n  7351: a0 = u64 [s1 + 0x88]\n  7355: ra = 218, jump @15\n      : @264 [@dyn 109] (gas: 34)\n  7361: a1 = a0\n  7363: a0 = s1 + 0x7ff\n  7367: a0 = a0 + 0x31\n  7370: u32 [a0 + 1616] = 0x20\n  7375: u64 [a0 + 1672] = 0\n  7379: u64 [a0 + 1664] = 0\n  7383: u64 [a0 + 1656] = 0\n  7387: u64 [a0 + 1648] = 0\n  7391: a0 = 0x1800000000\n  7401: a2 = u64 [s1 + 0x48]\n  7404: a0 = a0 | a2\n  7407: a2 = s1 + 0x7ff\n  7411: a2 = a2 + 0x661\n  7415: a2 = a2 << 0x20\n  7418: a2 = a2 >> 0x20\n  7421: a3 = s1 + 0x7ff\n  7425: a3 = a3 + 0x6a1\n  7429: a3 = a3 << 0x20\n  7432: a3 = a3 | a2\n  7435: a2 = u64 [s1 + 0x80]\n  7439: a2 = a2 << 0x20\n  7442: a2 = a2 >> 0x20\n  7445: a4 = 0x2400000000\n  7455: a4 = a4 | a2\n  7458: a1 = a1 << 0x20\n  7461: a1 = a1 >> 0x20\n  7464: a2 = s1 + 0x7ff\n  7468: a2 = a2 + 0x681\n  7472: a2 = a2 << 0x20\n  7475: a5 = a2 | a1\n  7478: a1 = 0xffffffffffffffff\n  7481: a2 = 0xffffffffffffffff\n  7484: ecalli 1 // 'call'\n  7486: fallthrough\n      : @265 (gas: 1)\n  7487: jump @332 if a0 != 0\n      : @266 (gas: 2)\n  7491: ecalli 13 // 'return_data_size'\n  7493: fallthrough\n      : @267 (gas: 2)\n  7494: a5 = 0x20\n  7497: jump @269 if a0 >=u a5\n      : @268 (gas: 3)\n  7500: ecalli 13 // 'return_data_size'\n  7502: a5 = a0\n  7504: fallthrough\n      : @269 (gas: 27)\n  7505: a2 = s1 + 0x7ff\n  7509: a2 = a2 + 0x31\n  7512: a3 = u64 [s1 + 0x88]\n  7516: t0 = u64 [s1 + 0x68]\n  7519: a0 = u64 [s1 + 0x60]\n  7522: a1 = u64 [s1 + 0x58]\n  7525: u64 [s1 + 120] = 0\n  7528: u64 [s1 + 0x80] = a5\n  7532: t1 = s1 + 0x1000\n  7536: u64 [t1 + 0xfffffffffffff800] = a5\n  7540: a5 = s1 + 0x1000\n  7544: u64 [a5 + 0xfffffffffffff820] = a3\n  7548: a3 = s1 + 0x1000\n  7552: u64 [a3 + 4294965256] = 0\n  7556: a3 = s1 + 0x1000\n  7560: u64 [a3 + 0xfffffffffffff828] = a1\n  7564: a1 = s1 + 0x1000\n  7568: u64 [a1 + 4294965264] = 0\n  7572: u64 [a2] = a0\n  7574: a0 = s1 + 0x1000\n  7578: u64 [a0 + 4294965272] = 0\n  7582: a0 = s1 + 0x7ff\n  7586: a0 = a0 + 0x21\n  7589: a1 = s1 + 0x7ff\n  7593: a1 = a1 + 0x1\n  7596: u64 [a2 + 0x8] = t0\n  7599: ra = 220, jump @418\n      : @270 [@dyn 110] (gas: 4)\n  7605: a3 = u64 [s1 + 0x78]\n  7608: a0 = a3 >u 0\n  7610: a1 = u64 [s1 + 0x80]\n  7614: t0 = 222, jump @484\n      : @271 [@dyn 111] (gas: 1)\n  7620: jump @411 if a2 == 0\n      : @272 (gas: 3)\n  7624: a0 = s1 + 0x7e0\n  7628: a1 = u64 [s1 + 0x88]\n  7632: ra = 224, jump @7\n      : @273 [@dyn 112] (gas: 11)\n  7638: a0 = u64 [s1 + 0x7f8]\n  7642: u64 [s1 + 0x80] = a0\n  7646: a0 = u64 [s1 + 0x7f0]\n  7650: u64 [s1 + 0x78] = a0\n  7653: a0 = u64 [s1 + 0x7e8]\n  7657: u64 [s1 + 0x70] = a0\n  7660: a0 = u64 [s1 + 0x7e0]\n  7664: u64 [s1 + 0x68] = a0\n  7667: a0 = s1 + 0x7c0\n  7671: a1 = 0x40\n  7674: ra = 226, jump @7\n      : @274 [@dyn 113] (gas: 13)\n  7680: a0 = s1 + 0x700\n  7684: a4 = u64 [a0 + 0xd8]\n  7688: a5 = u64 [a0 + 0xd0]\n  7692: a3 = u64 [a0 + 0xc8]\n  7696: a2 = u64 [a0 + 0xc0]\n  7700: a0 = a3 | a4\n  7703: a1 = a2 | a5\n  7706: a1 = a1 | a0\n  7709: a1 = a1 >> 0x20\n  7712: a0 = a0 | a5\n  7715: a0 = a0 << 0x20\n  7718: a0 = a0 | a1\n  7721: jump @291 if a0 != 0\n      : @275 (gas: 15)\n  7725: a0 = u64 [s1 + 0x98]\n  7729: u64 [s1 + 0x7a0] = a0\n  7733: a0 = u64 [s1 + 0xa0]\n  7737: u64 [s1 + 0x7a8] = a0\n  7741: a0 = u64 [s1 + 0xa8]\n  7745: u64 [s1 + 0x7b0] = a0\n  7749: a1 = s1 + 0x7a0\n  7753: a0 = u64 [s1 + 0xb0]\n  7757: u64 [s1 + 0x7b8] = a0\n  7761: a0 = a2\n  7763: u64 [s1 + 0x88] = a2\n  7767: u64 [s1 + 0xb0] = a3\n  7771: u64 [s1 + 0xa8] = a4\n  7775: u64 [s1 + 0xa0] = a5\n  7779: ra = 228, jump @9\n      : @276 [@dyn 114] (gas: 2)\n  7785: a2 = u64 [s1 + 0x88]\n  7789: t0 = 230, jump @493\n      : @277 [@dyn 115] (gas: 1)\n  7795: jump @291 if a1 == 0\n      : @278 (gas: 11)\n  7799: i32 a0 = a2 + 0x20\n  7802: a1 = u64 [s1 + 0x68]\n  7805: u64 [s1 + 0x780] = a1\n  7809: a1 = u64 [s1 + 0x70]\n  7812: u64 [s1 + 0x788] = a1\n  7816: a1 = u64 [s1 + 0x78]\n  7819: u64 [s1 + 0x790] = a1\n  7823: a1 = s1 + 0x780\n  7827: a3 = u64 [s1 + 0x80]\n  7831: u64 [s1 + 0x798] = a3\n  7835: ra = 232, jump @9\n      : @279 [@dyn 116] (gas: 6)\n  7841: a0 = u64 [s1 + 0x90]\n  7845: ra = 0xea\n  7849: ecalli 5 // 'caller'\n  7851: a2 = u64 [s1 + 0xb8]\n  7855: t0 = 0xec\n  7859: jump @491\n      : @280 [@dyn 117] (gas: 2)\n  7862: a2 = u64 [s1 + 0xb8]\n  7866: t0 = 236, jump @491\n      : @281 [@dyn 118] (gas: 24)\n  7872: t0 = a1 | a0\n  7875: a3 = a3 >> 0x20\n  7878: a2 = reverse a2\n  7880: a1 = a2 << 0x20\n  7883: a1 = a1 | a3\n  7886: a2 = a2 >> 0x20\n  7889: u64 [s1 + 1880] = 0\n  7893: a3 = u64 [0x20000]\n  7898: a4 = u64 [0x20008]\n  7903: a5 = u64 [0x20010]\n  7908: a0 = u64 [0x20018]\n  7913: u64 [s1 + 0x778] = a3\n  7917: a3 = s1 + 0x700\n  7921: u64 [a3 + 0x70] = a4\n  7924: u64 [a3 + 0x68] = a5\n  7927: u64 [a3 + 0x60] = a0\n  7930: u64 [a3 + 0x50] = a2\n  7933: u64 [a3 + 0x48] = a1\n  7936: a1 = 0x40\n  7939: a2 = s1 + 0x760\n  7943: a3 = s1 + 0x740\n  7947: u64 [s1 + 0x740] = t0\n  7951: a0 = u64 [s1 + 0x88]\n  7955: ra = 238, jump @13\n      : @282 [@dyn 119] (gas: 3)\n  7961: a0 = 0\n  7963: a1 = 0\n  7965: ra = 240, jump @15\n      : @283 [@dyn 120] (gas: 5)\n  7971: i32 a1 = a0 + 0\n  7973: a0 = 0\n  7975: a2 = 0\n  7977: ecalli 14 // 'seal_return'\n  7979: jump @369\n      : @284 (gas: 8)\n  7982: u64 [a2 + 1288] = 0\n  7986: u64 [a2 + 1280] = 0\n  7990: u64 [a2 + 1272] = 0\n  7994: u64 [a2 + 1264] = 0\n  7998: a0 = s1 + 0x1000\n  8002: i32 a0 = a0 + 0xfffffffffffffd20\n  8006: ecalli 17 // 'value_transferred'\n  8008: fallthrough\n      : @285 (gas: 10)\n  8009: a3 = s1 + 0x7ff\n  8013: a3 = a3 + 0x31\n  8016: a0 = u64 [a3 + 0x500]\n  8020: a1 = u64 [a3 + 0x508]\n  8024: a2 = u64 [a3 + 0x4f8]\n  8028: a3 = u64 [a3 + 0x4f0]\n  8032: a1 = a1 | a2\n  8035: a0 = a0 | a3\n  8038: a0 = a0 | a1\n  8041: jump @387 if a0 != 0\n      : @286 (gas: 3)\n  8045: a0 = u64 [s1 + 0xb8]\n  8049: a0 = i32 [a0]\n  8051: jump @388 if a0 <=u 3\n      : @287 (gas: 3)\n  8056: a0 = s1 + 0x620\n  8060: a1 = 0x40\n  8063: ra = 242, jump @7\n      : @288 [@dyn 121] (gas: 10)\n  8069: a1 = s1 + 0x600\n  8073: a0 = u64 [a1 + 0x38]\n  8076: u64 [s1 + 0xb8] = a0\n  8080: a0 = u64 [a1 + 0x30]\n  8083: u64 [s1 + 0xb0] = a0\n  8087: a0 = u64 [a1 + 0x28]\n  8090: u64 [s1 + 0xa0] = a0\n  8094: a0 = u64 [a1 + 0x20]\n  8097: u64 [s1 + 0xa8] = a0\n  8101: ra = 244, jump @0\n      : @289 [@dyn 122] (gas: 1)\n  8107: t0 = 246, jump @487\n      : @290 [@dyn 123] (gas: 1)\n  8113: jump @389 if a0 == 0\n      : @291 (gas: 1)\n  8117: trap\n      : @292 (gas: 3)\n  8118: a0 = s1 + 0x420\n  8122: a1 = 0x40\n  8125: ra = 248, jump @7\n      : @293 [@dyn 124] (gas: 13)\n  8131: a1 = s1 + 0x400\n  8135: a0 = u64 [a1 + 0x38]\n  8138: u64 [s1 + 0xb0] = a0\n  8142: a0 = u64 [a1 + 0x30]\n  8145: u64 [s1 + 0xa8] = a0\n  8149: a0 = u64 [a1 + 0x28]\n  8152: u64 [s1 + 0xa0] = a0\n  8156: a0 = u64 [a1 + 0x20]\n  8159: u64 [s1 + 0xb8] = a0\n  8163: ra = 0xfa\n  8167: ecalli 13 // 'return_data_size'\n  8169: t0 = 0xfc\n  8173: jump @485\n      : @294 [@dyn 125] (gas: 1)\n  8176: t0 = 252, jump @485\n      : @295 [@dyn 126] (gas: 1)\n  8182: jump @291 if a1 != 0\n      : @296 (gas: 3)\n  8185: a2 = a0\n  8187: a0 = a0 >> 0x20\n  8190: jump @291 if a0 != 0\n      : @297 (gas: 1)\n  8193: t0 = 254, jump @496\n      : @298 [@dyn 127] (gas: 1)\n  8199: ra = 256, jump @15\n      : @299 [@dyn 128] (gas: 13)\n  8205: a1 = s1 + 0x7ff\n  8209: a1 = a1 + 0x31\n  8212: a2 = u64 [s1 + 0xa8]\n  8216: u32 [a1 + 0x330] = a2\n  8220: i32 a0 = a0 + 0\n  8222: a1 = s1 + 0x1000\n  8226: i32 a1 = a1 + 0xfffffffffffffb60\n  8230: a2 = 0\n  8232: ecalli 12 // 'return_data_copy'\n  8234: a0 = s1 + 0x7ff\n  8238: a0 = a0 + 0x31\n  8241: a0 = i32 [a0 + 0x330]\n  8245: jump @319\n      : @300 (gas: 5)\n  8248: ecalli 13 // 'return_data_size'\n  8250: u64 [s1 + 0x58] = a0\n  8253: a0 = s1 + 0x320\n  8257: a1 = 0x40\n  8260: ra = 258, jump @7\n      : @301 [@dyn 129] (gas: 28)\n  8266: a5 = u64 [s1 + 0x338]\n  8270: u64 [s1 + 0x60] = a5\n  8273: t0 = u64 [s1 + 0x330]\n  8277: u64 [s1 + 0x30] = t0\n  8280: t1 = u64 [s1 + 0x328]\n  8284: u64 [s1 + 0x68] = t1\n  8287: t2 = u64 [s1 + 0x320]\n  8291: u64 [s1 + 0x78] = t2\n  8294: a1 = u64 [s1 + 0x58]\n  8297: a0 = a1 + 0x1f\n  8300: a1 = a0 <u a1\n  8303: a0 = a0 & 0xffffffffffffffe0\n  8306: a2 = a0 + 0x20\n  8309: a0 = a2 <u a0\n  8312: a3 = a1 + a0\n  8315: a4 = a3 <u a1\n  8318: a4 = a0 if a0 == 0\n  8321: u64 [s1 + 760] = 0\n  8325: u64 [s1 + 0x2e0] = a2\n  8329: u64 [s1 + 0x318] = a5\n  8333: u64 [s1 + 0x310] = t0\n  8337: u64 [s1 + 0x308] = t1\n  8341: u64 [s1 + 0x300] = t2\n  8345: u64 [s1 + 0x2e8] = a3\n  8349: a0 = s1 + 0x300\n  8353: a1 = s1 + 0x2e0\n  8357: u64 [s1 + 0x2f0] = a4\n  8361: ra = 260, jump @418\n      : @302 [@dyn 130] (gas: 12)\n  8367: a0 = u64 [s1 + 0x78]\n  8370: a1 = u64 [s1 + 0x60]\n  8373: a2 = u64 [s1 + 0x68]\n  8376: a2 = a2 | a1\n  8379: a3 = u64 [s1 + 0x30]\n  8382: a1 = a0 | a3\n  8385: a1 = a1 | a2\n  8388: a1 = a1 >> 0x20\n  8391: a2 = a2 | a3\n  8394: a2 = a2 << 0x20\n  8397: a1 = a1 | a2\n  8400: jump @291 if a1 != 0\n      : @303 (gas: 7)\n  8404: u64 [s1 + 728] = 0\n  8408: u64 [s1 + 720] = 0\n  8412: u64 [s1 + 712] = 0\n  8416: a1 = s1 + 0x2c0\n  8420: a2 = u64 [s1 + 0x58]\n  8423: u64 [s1 + 0x2c0] = a2\n  8427: ra = 262, jump @9\n      : @304 [@dyn 131] (gas: 2)\n  8433: ecalli 13 // 'return_data_size'\n  8435: fallthrough\n      : @305 (gas: 10)\n  8436: a3 = u64 [s1 + 0x78]\n  8439: a1 = u64 [s1 + 0x60]\n  8442: a2 = u64 [s1 + 0x30]\n  8445: a1 = a1 | a2\n  8448: a2 = 0xffffffe0\n  8458: a2 = a3 <u a2\n  8461: a4 = u64 [s1 + 0x68]\n  8464: a2 = 0 if a4 != 0\n  8466: a2 = 0 if a1 != 0\n  8468: jump @291 if a2 == 0\n      : @306 (gas: 3)\n  8472: a1 = a0\n  8474: a0 = a0 >> 0x20\n  8477: jump @291 if a0 != 0\n      : @307 (gas: 7)\n  8481: i32 a0 = a3 + 0x20\n  8484: a2 = a1\n  8486: u64 [s1 + 0x68] = a1\n  8489: i32 a1 = a1 + 0\n  8491: u64 [s1 + 0x78] = a1\n  8494: a1 = a2\n  8496: ra = 264, jump @15\n      : @308 [@dyn 132] (gas: 10)\n  8502: a1 = s1 + 0x7ff\n  8506: a1 = a1 + 0x31\n  8509: a2 = u64 [s1 + 0x68]\n  8512: u32 [a1 + 0x3b0] = a2\n  8516: i32 a0 = a0 + 0\n  8518: a1 = s1 + 0x1000\n  8522: i32 a1 = a1 + 0xfffffffffffffbe0\n  8526: a2 = 0\n  8528: ecalli 12 // 'return_data_copy'\n  8530: fallthrough\n      : @309 (gas: 6)\n  8531: a0 = s1 + 0x7ff\n  8535: a0 = a0 + 0x31\n  8538: a0 = i32 [a0 + 0x3b0]\n  8542: a2 = u64 [s1 + 0x90]\n  8546: a1 = u64 [s1 + 0x78]\n  8549: jump @291 if a0 <u a1\n      : @310 (gas: 1)\n  8553: jump @156\n      : @311 (gas: 4)\n  8556: a0 = s1 + 0x7ff\n  8560: a0 = a0 + 0x161\n  8564: a1 = 0x40\n  8567: ra = 266, jump @7\n      : @312 [@dyn 133] (gas: 15)\n  8573: a0 = s1 + 0x7ff\n  8577: a0 = a0 + 0x31\n  8580: a2 = a0 + 0x100\n  8584: a1 = u64 [a2 + 0x48]\n  8587: u64 [s1 + 0xb0] = a1\n  8591: a1 = u64 [a2 + 0x40]\n  8594: u64 [s1 + 0xa8] = a1\n  8598: a1 = u64 [a2 + 0x38]\n  8601: u64 [s1 + 0xa0] = a1\n  8605: a0 = u64 [a2 + 0x30]\n  8608: u64 [s1 + 0xb8] = a0\n  8612: ra = 0x10c\n  8616: ecalli 13 // 'return_data_size'\n  8618: t0 = 0x10e\n  8622: jump @485\n      : @313 [@dyn 134] (gas: 1)\n  8625: t0 = 270, jump @485\n      : @314 [@dyn 135] (gas: 1)\n  8631: jump @291 if a1 != 0\n      : @315 (gas: 3)\n  8635: a2 = a0\n  8637: a0 = a0 >> 0x20\n  8640: jump @291 if a0 != 0\n      : @316 (gas: 1)\n  8644: t0 = 272, jump @496\n      : @317 [@dyn 136] (gas: 1)\n  8650: ra = 274, jump @15\n      : @318 [@dyn 137] (gas: 13)\n  8656: a1 = s1 + 0x7ff\n  8660: a1 = a1 + 0x31\n  8663: a2 = u64 [s1 + 0xa8]\n  8667: u32 [a1 + 0x610] = a2\n  8671: i32 a0 = a0 + 0\n  8673: a1 = s1 + 0x1000\n  8677: i32 a1 = a1 + 0xfffffffffffffe40\n  8681: a2 = 0\n  8683: ecalli 12 // 'return_data_copy'\n  8685: a0 = s1 + 0x7ff\n  8689: a0 = a0 + 0x31\n  8692: a0 = i32 [a0 + 0x610]\n  8696: fallthrough\n      : @319 (gas: 2)\n  8697: a1 = u64 [s1 + 0xb0]\n  8701: jump @291 if a0 <u a1\n      : @320 (gas: 2)\n  8705: ecalli 13 // 'return_data_size'\n  8707: fallthrough\n      : @321 (gas: 3)\n  8708: a1 = a0\n  8710: a0 = a0 >> 0x20\n  8713: jump @291 if a0 != 0\n      : @322 (gas: 3)\n  8717: a0 = u64 [s1 + 0xb8]\n  8721: u64 [s1 + 0xb0] = a1\n  8725: ra = 276, jump @15\n      : @323 [@dyn 138] (gas: 5)\n  8731: i32 a1 = a0 + 0\n  8733: a2 = i32 [s1 + 0xb0]\n  8737: a0 = 0x1\n  8740: ecalli 14 // 'seal_return'\n  8742: jump @393\n      : @324 (gas: 3)\n  8745: a0 = s1 + 0x220\n  8749: a1 = 0x40\n  8752: ra = 278, jump @7\n      : @325 [@dyn 139] (gas: 13)\n  8758: a1 = s1 + 0x200\n  8762: a0 = u64 [a1 + 0x38]\n  8765: u64 [s1 + 0xb0] = a0\n  8769: a0 = u64 [a1 + 0x30]\n  8772: u64 [s1 + 0xa8] = a0\n  8776: a0 = u64 [a1 + 0x28]\n  8779: u64 [s1 + 0xa0] = a0\n  8783: a0 = u64 [a1 + 0x20]\n  8786: u64 [s1 + 0xb8] = a0\n  8790: ra = 0x118\n  8794: ecalli 13 // 'return_data_size'\n  8796: t0 = 0x11a\n  8800: jump @485\n      : @326 [@dyn 140] (gas: 1)\n  8803: t0 = 282, jump @485\n      : @327 [@dyn 141] (gas: 1)\n  8809: jump @291 if a1 != 0\n      : @328 (gas: 3)\n  8813: a2 = a0\n  8815: a0 = a0 >> 0x20\n  8818: jump @291 if a0 != 0\n      : @329 (gas: 1)\n  8822: t0 = 284, jump @496\n      : @330 [@dyn 142] (gas: 1)\n  8828: ra = 286, jump @15\n      : @331 [@dyn 143] (gas: 13)\n  8834: a1 = s1 + 0x7ff\n  8838: a1 = a1 + 0x31\n  8841: a2 = u64 [s1 + 0xa8]\n  8845: u32 [a1 + 0x430] = a2\n  8849: i32 a0 = a0 + 0\n  8851: a1 = s1 + 0x1000\n  8855: i32 a1 = a1 + 0xfffffffffffffc60\n  8859: a2 = 0\n  8861: ecalli 12 // 'return_data_copy'\n  8863: a0 = s1 + 0x7ff\n  8867: a0 = a0 + 0x31\n  8870: a0 = i32 [a0 + 0x430]\n  8874: jump @319\n      : @332 (gas: 4)\n  8877: a0 = s1 + 0x7ff\n  8881: a0 = a0 + 0x41\n  8884: a1 = 0x40\n  8887: ra = 288, jump @7\n      : @333 [@dyn 144] (gas: 14)\n  8893: a0 = s1 + 0x7ff\n  8897: a0 = a0 + 0x31\n  8900: a1 = u64 [a0 + 0x28]\n  8903: u64 [s1 + 0xb0] = a1\n  8907: a1 = u64 [a0 + 0x20]\n  8910: u64 [s1 + 0xa8] = a1\n  8914: a1 = u64 [a0 + 0x18]\n  8917: u64 [s1 + 0xa0] = a1\n  8921: a0 = u64 [a0 + 0x10]\n  8924: u64 [s1 + 0xb8] = a0\n  8928: ra = 0x122\n  8932: ecalli 13 // 'return_data_size'\n  8934: t0 = 0x124\n  8938: jump @485\n      : @334 [@dyn 145] (gas: 1)\n  8941: t0 = 292, jump @485\n      : @335 [@dyn 146] (gas: 1)\n  8947: jump @291 if a1 != 0\n      : @336 (gas: 3)\n  8951: a2 = a0\n  8953: a0 = a0 >> 0x20\n  8956: jump @291 if a0 != 0\n      : @337 (gas: 1)\n  8960: t0 = 294, jump @496\n      : @338 [@dyn 147] (gas: 1)\n  8966: ra = 296, jump @15\n      : @339 [@dyn 148] (gas: 13)\n  8972: a1 = s1 + 0x7ff\n  8976: a1 = a1 + 0x31\n  8979: a2 = u64 [s1 + 0xa8]\n  8983: u32 [a1 + 0x690] = a2\n  8987: i32 a0 = a0 + 0\n  8989: a1 = s1 + 0x1000\n  8993: i32 a1 = a1 + 0xfffffffffffffec0\n  8997: a2 = 0\n  8999: ecalli 12 // 'return_data_copy'\n  9001: a0 = s1 + 0x7ff\n  9005: a0 = a0 + 0x31\n  9008: a0 = i32 [a0 + 0x690]\n  9012: jump @319\n      : @340 (gas: 4)\n  9015: a0 = 0\n  9017: a1 = 0\n  9019: ra = 0x12a\n  9023: jump @15\n      : @341 (gas: 2)\n  9026: a1 = 0\n  9028: ra = 298, jump @15\n      : @342 [@dyn 149] (gas: 5)\n  9034: i32 a1 = a0 + 0\n  9036: a0 = 0x1\n  9039: a2 = 0\n  9041: ecalli 14 // 'seal_return'\n  9043: jump @369\n      : @343 (gas: 3)\n  9046: a1 = 0x20070\n  9051: i32 a1 = a1 + 0\n  9053: jump @368\n      : @344 (gas: 3)\n  9056: a1 = 0x20070\n  9061: i32 a1 = a1 + 0\n  9063: jump @368\n      : @345 (gas: 3)\n  9066: a1 = 0x20070\n  9071: i32 a1 = a1 + 0\n  9073: jump @368\n      : @346 (gas: 3)\n  9076: a1 = 0x20070\n  9081: i32 a1 = a1 + 0\n  9083: jump @368\n      : @347 (gas: 3)\n  9086: a1 = 0x20070\n  9091: i32 a1 = a1 + 0\n  9093: jump @368\n      : @348 (gas: 8)\n  9096: u64 [s1 + 1296] = 0\n  9100: u64 [s1 + 1288] = 0\n  9104: u64 [s1 + 1280] = 0\n  9108: a0 = 0xc39fa00400000000\n  9118: a1 = s1 + 0x500\n  9122: u64 [s1 + 0x518] = a0\n  9126: a0 = 0\n  9128: ra = 300, jump @9\n      : @349 [@dyn 150] (gas: 2)\n  9134: a1 = i32 [0x20068]\n  9139: jump @351 if a1 >u 31\n      : @350 (gas: 4)\n  9143: u32 [0x20068] = 0x20\n  9149: a1 = 0x20070\n  9154: i32 a1 = a1 + 0\n  9156: jump @385\n      : @351 (gas: 3)\n  9159: a1 = 0x20070\n  9164: i32 a1 = a1 + 0\n  9166: jump @385\n      : @352 (gas: 3)\n  9169: a1 = 0x20070\n  9174: i32 a1 = a1 + 0\n  9176: jump @368\n      : @353 (gas: 3)\n  9179: a1 = 0x20070\n  9184: i32 a1 = a1 + 0\n  9186: jump @368\n      : @354 (gas: 8)\n  9189: u64 [s1 + 1168] = 0\n  9193: u64 [s1 + 1160] = 0\n  9197: u64 [s1 + 1152] = 0\n  9201: a0 = 0xc39fa00400000000\n  9211: a1 = s1 + 0x480\n  9215: u64 [s1 + 0x498] = a0\n  9219: a0 = 0\n  9221: ra = 302, jump @9\n      : @355 [@dyn 151] (gas: 2)\n  9227: a1 = i32 [0x20068]\n  9232: jump @357 if a1 >u 31\n      : @356 (gas: 4)\n  9236: u32 [0x20068] = 0x20\n  9242: a1 = 0x20070\n  9247: i32 a1 = a1 + 0\n  9249: jump @385\n      : @357 (gas: 3)\n  9252: a1 = 0x20070\n  9257: i32 a1 = a1 + 0\n  9259: jump @385\n      : @358 (gas: 8)\n  9262: u64 [s1 + 208] = 0\n  9266: u64 [s1 + 200] = 0\n  9270: u64 [s1 + 192] = 0\n  9274: a0 = 0x2c5211c600000000\n  9284: a1 = s1 + 0xc0\n  9288: u64 [s1 + 0xd8] = a0\n  9292: a0 = 0\n  9294: ra = 304, jump @9\n      : @359 [@dyn 152] (gas: 2)\n  9300: a1 = i32 [0x20068]\n  9305: jump @361 if a1 >u 31\n      : @360 (gas: 4)\n  9309: u32 [0x20068] = 0x20\n  9315: a1 = 0x20070\n  9320: i32 a1 = a1 + 0\n  9322: jump @385\n      : @361 (gas: 3)\n  9325: a1 = 0x20070\n  9330: i32 a1 = a1 + 0\n  9332: jump @385\n      : @362 (gas: 3)\n  9335: a1 = 0x20070\n  9340: i32 a1 = a1 + 0\n  9342: jump @368\n      : @363 (gas: 3)\n  9344: a1 = 0x20070\n  9349: i32 a1 = a1 + 0\n  9351: jump @368\n      : @364 (gas: 3)\n  9353: a1 = 0x20070\n  9358: i32 a1 = a1 + 0\n  9360: jump @368\n      : @365 (gas: 3)\n  9362: a0 = u64 [s1 + 0xb8]\n  9366: a0 = i32 [a0]\n  9368: fallthrough\n      : @366 (gas: 1)\n  9369: jump @369 if a0 == 0\n      : @367 (gas: 3)\n  9372: a1 = 0x20070\n  9377: i32 a1 = a1 + 0\n  9379: fallthrough\n      : @368 (gas: 4)\n  9380: a0 = 0x1\n  9383: a2 = 0\n  9385: ecalli 14 // 'seal_return'\n  9387: fallthrough\n      : @369 (gas: 6)\n  9388: a1 = 0x20070\n  9393: i32 a1 = a1 + 0\n  9395: a0 = 0\n  9397: a2 = 0\n  9399: ecalli 14 // 'seal_return'\n  9401: jump @369\n      : @370 (gas: 6)\n  9403: a1 = 0x20070\n  9408: i32 a1 = a1 + 0\n  9410: a0 = 0x1\n  9413: a2 = 0\n  9415: ecalli 14 // 'seal_return'\n  9417: jump @369\n      : @371 (gas: 6)\n  9419: a1 = 0x20070\n  9424: i32 a1 = a1 + 0\n  9426: a0 = 0x1\n  9429: a2 = 0\n  9431: ecalli 14 // 'seal_return'\n  9433: jump @369\n      : @372 (gas: 6)\n  9435: a1 = 0x20070\n  9440: i32 a1 = a1 + 0\n  9442: a0 = 0x1\n  9445: a2 = 0\n  9447: ecalli 14 // 'seal_return'\n  9449: jump @369\n      : @373 (gas: 11)\n  9451: a2 = s1 + 0x7ff\n  9455: a2 = a2 + 0x31\n  9458: u64 [a2 + 448] = 0\n  9462: u64 [a2 + 440] = 0\n  9466: a0 = 0xc39fa00400000000\n  9476: u64 [a2 + 0x1c8] = a0\n  9480: a1 = s1 + 0x7ff\n  9484: a1 = a1 + 0x1e1\n  9488: u64 [a2 + 432] = 0\n  9492: a0 = 0\n  9494: ra = 306, jump @9\n      : @374 [@dyn 153] (gas: 2)\n  9500: a1 = i32 [0x20068]\n  9505: jump @376 if a1 >u 31\n      : @375 (gas: 4)\n  9509: u32 [0x20068] = 0x20\n  9515: a1 = 0x20070\n  9520: i32 a1 = a1 + 0\n  9522: jump @385\n      : @376 (gas: 3)\n  9525: a1 = 0x20070\n  9530: i32 a1 = a1 + 0\n  9532: jump @385\n      : @377 (gas: 11)\n  9535: a2 = s1 + 0x7ff\n  9539: a2 = a2 + 0x31\n  9542: u64 [a2 + 416] = 0\n  9546: u64 [a2 + 408] = 0\n  9550: a0 = 0x2c5211c600000000\n  9560: u64 [a2 + 0x1a8] = a0\n  9564: a1 = s1 + 0x7ff\n  9568: a1 = a1 + 0x1c1\n  9572: u64 [a2 + 400] = 0\n  9576: a0 = 0\n  9578: ra = 308, jump @9\n      : @378 [@dyn 154] (gas: 2)\n  9584: a1 = i32 [0x20068]\n  9589: jump @380 if a1 >u 31\n      : @379 (gas: 4)\n  9593: u32 [0x20068] = 0x20\n  9599: a1 = 0x20070\n  9604: i32 a1 = a1 + 0\n  9606: jump @385\n      : @380 (gas: 3)\n  9608: a1 = 0x20070\n  9613: i32 a1 = a1 + 0\n  9615: jump @385\n      : @381 (gas: 8)\n  9617: u64 [s1 + 1776] = 0\n  9621: u64 [s1 + 1768] = 0\n  9625: u64 [s1 + 1760] = 0\n  9629: a0 = 0x2c5211c600000000\n  9639: a1 = s1 + 0x6e0\n  9643: u64 [s1 + 0x6f8] = a0\n  9647: a0 = 0\n  9649: ra = 310, jump @9\n      : @382 [@dyn 155] (gas: 2)\n  9655: a1 = i32 [0x20068]\n  9660: jump @384 if a1 >u 31\n      : @383 (gas: 4)\n  9664: u32 [0x20068] = 0x20\n  9670: a1 = 0x20070\n  9675: i32 a1 = a1 + 0\n  9677: jump @385\n      : @384 (gas: 3)\n  9679: a1 = 0x20070\n  9684: i32 a1 = a1 + 0\n  9686: fallthrough\n      : @385 (gas: 4)\n  9687: a0 = 0x1\n  9690: a2 = 0x4\n  9693: ecalli 14 // 'seal_return'\n  9695: fallthrough\n      : @386 (gas: 6)\n  9696: a1 = 0x20070\n  9701: i32 a1 = a1 + 0\n  9703: a0 = 0x1\n  9706: a2 = 0\n  9708: ecalli 14 // 'seal_return'\n  9710: jump @369\n      : @387 (gas: 6)\n  9713: a1 = 0x20070\n  9718: i32 a1 = a1 + 0\n  9720: a0 = 0x1\n  9723: a2 = 0\n  9725: ecalli 14 // 'seal_return'\n  9727: jump @369\n      : @388 (gas: 6)\n  9730: a1 = 0x20070\n  9735: i32 a1 = a1 + 0\n  9737: a0 = 0x1\n  9740: a2 = 0\n  9742: ecalli 14 // 'seal_return'\n  9744: jump @369\n      : @389 (gas: 11)\n  9747: a2 = u64 [0x300d0]\n  9752: a1 = u64 [0x300d8]\n  9757: a0 = u32 [0x300e0]\n  9762: u64 [s1 + 1560] = 0\n  9766: a4 = s1 + 0x600\n  9770: u64 [a4 + 0x10] = a0\n  9773: u64 [a4 + 0x8] = a1\n  9776: a1 = s1 + 0x600\n  9780: u64 [a4] = a2\n  9782: a0 = a3\n  9784: ra = 312, jump @9\n      : @390 [@dyn 156] (gas: 3)\n  9790: a1 = 0x20\n  9793: a0 = u64 [s1 + 0xa8]\n  9797: ra = 314, jump @15\n      : @391 [@dyn 157] (gas: 5)\n  9803: i32 a1 = a0 + 0\n  9805: a2 = 0x20\n  9808: a0 = 0\n  9810: ecalli 14 // 'seal_return'\n  9812: fallthrough\n      : @392 (gas: 4)\n  9813: a1 = i32 [s1 + 0x90]\n  9817: a0 = 0x1\n  9820: ecalli 14 // 'seal_return'\n  9822: fallthrough\n      : @393 (gas: 8)\n  9823: u64 [s1 + 944] = 0\n  9827: u64 [s1 + 936] = 0\n  9831: u64 [s1 + 928] = 0\n  9835: a0 = 0xbb1205c200000000\n  9845: a1 = s1 + 0x3a0\n  9849: u64 [s1 + 0x3b8] = a0\n  9853: a0 = 0\n  9855: ra = 316, jump @9\n      : @394 [@dyn 158] (gas: 3)\n  9861: a0 = u64 [s1 + 0x80]\n  9865: a0 = i32 [a0]\n  9867: jump @396 if a0 >u 31\n      : @395 (gas: 4)\n  9871: a1 = u64 [s1 + 0x80]\n  9875: u32 [a1 + 0] = 0x20\n  9878: a1 = i32 [s1 + 0x90]\n  9882: jump @385\n      : @396 (gas: 2)\n  9885: a1 = i32 [s1 + 0x90]\n  9889: jump @385\n      : @397 (gas: 8)\n  9892: u64 [s1 + 272] = 0\n  9896: u64 [s1 + 264] = 0\n  9900: u64 [s1 + 256] = 0\n  9904: a0 = 0x4e487b7100000000\n  9914: a1 = s1 + 0x100\n  9918: u64 [s1 + 0x118] = a0\n  9922: a0 = 0\n  9924: ra = 318, jump @9\n      : @398 [@dyn 159] (gas: 7)\n  9930: u64 [s1 + 248] = 0\n  9934: u64 [s1 + 240] = 0\n  9938: u64 [s1 + 224] = 0x11\n  9943: a0 = 0x4\n  9946: a1 = s1 + 0xe0\n  9950: u64 [s1 + 232] = 0\n  9954: ra = 320, jump @9\n      : @399 [@dyn 160] (gas: 3)\n  9960: a0 = u64 [s1 + 0x80]\n  9964: a0 = i32 [a0]\n  9966: jump @401 if a0 >u 63\n      : @400 (gas: 7)\n  9970: a1 = u64 [s1 + 0x80]\n  9974: u32 [a1 + 0] = 0x40\n  9977: a0 = 0x1\n  9980: a2 = 0x24\n  9983: a1 = u64 [s1 + 0x8]\n  9986: ecalli 14 // 'seal_return'\n  9988: jump @406\n      : @401 (gas: 5)\n  9990: a0 = 0x1\n  9993: a2 = 0x24\n  9996: a1 = u64 [s1 + 0x8]\n  9999: ecalli 14 // 'seal_return'\n 10001: jump @406\n      : @402 (gas: 8)\n 10003: u64 [s1 + 688] = 0\n 10007: u64 [s1 + 680] = 0\n 10011: u64 [s1 + 672] = 0\n 10015: a0 = 0xbb1205c200000000\n 10025: a1 = s1 + 0x2a0\n 10029: u64 [s1 + 0x2b8] = a0\n 10033: a0 = 0\n 10035: ra = 322, jump @9\n      : @403 [@dyn 161] (gas: 3)\n 10041: a0 = u64 [s1 + 0x80]\n 10045: a0 = i32 [a0]\n 10047: jump @405 if a0 >u 31\n      : @404 (gas: 7)\n 10051: a1 = u64 [s1 + 0x80]\n 10055: u32 [a1 + 0] = 0x20\n 10058: a0 = 0x1\n 10061: a2 = 0x4\n 10064: a1 = u64 [s1 + 0x8]\n 10067: ecalli 14 // 'seal_return'\n 10069: jump @406\n      : @405 (gas: 5)\n 10071: a0 = 0x1\n 10074: a2 = 0x4\n 10077: a1 = u64 [s1 + 0x8]\n 10080: ecalli 14 // 'seal_return'\n 10082: fallthrough\n      : @406 (gas: 8)\n 10083: u64 [s1 + 1840] = 0\n 10087: u64 [s1 + 1832] = 0\n 10091: u64 [s1 + 1824] = 0\n 10095: a0 = 0x4e487b7100000000\n 10105: a1 = s1 + 0x720\n 10109: u64 [s1 + 0x738] = a0\n 10113: a0 = 0\n 10115: ra = 324, jump @9\n      : @407 [@dyn 162] (gas: 7)\n 10121: u64 [s1 + 1816] = 0\n 10125: u64 [s1 + 1808] = 0\n 10129: u64 [s1 + 1792] = 0x11\n 10134: a0 = 0x4\n 10137: a1 = s1 + 0x700\n 10141: u64 [s1 + 1800] = 0\n 10145: ra = 326, jump @9\n      : @408 [@dyn 163] (gas: 3)\n 10151: a1 = 0x24\n 10154: a0 = 0\n 10156: ra = 328, jump @15\n      : @409 [@dyn 164] (gas: 8)\n 10162: i32 a1 = a0 + 0\n 10164: a0 = 0x1\n 10167: a2 = 0x24\n 10170: ecalli 14 // 'seal_return'\n 10172: a0 = 0x1\n 10175: a1 = u64 [s1 + 0x8]\n 10178: ecalli 14 // 'seal_return'\n 10180: jump @406\n      : @410 (gas: 4)\n 10182: a0 = 0x1\n 10185: a1 = u64 [s1 + 0x8]\n 10188: ecalli 14 // 'seal_return'\n 10190: jump @406\n      : @411 (gas: 5)\n 10192: a1 = 0x20070\n 10197: i32 a1 = a1 + 0\n 10199: a0 = 0x1\n 10202: ecalli 14 // 'seal_return'\n 10204: jump @393\n      : @412 (gas: 18)\n 10207: sp = sp + 0xffffffffffffffc0\n 10210: u64 [sp + 0x38] = ra\n 10213: u64 [sp + 0x30] = s0\n 10216: u64 [sp + 0x28] = s1\n 10219: s0 = sp + 0x40\n 10222: sp = sp & 0xfffffffffffffff0\n 10225: a2 = u64 [a1 + 0x10]\n 10228: a3 = u64 [a1 + 0x18]\n 10231: a4 = u64 [a1 + 0x8]\n 10234: a1 = u64 [a1]\n 10236: a3 = a3 | a4\n 10239: a4 = a1 | a2\n 10242: a4 = a4 | a3\n 10245: a4 = a4 >> 0x20\n 10248: a2 = a2 | a3\n 10251: a2 = a2 << 0x20\n 10254: a2 = a2 | a4\n 10257: jump @416 if a2 != 0\n      : @413 (gas: 3)\n 10260: s1 = a0\n 10262: a0 = sp\n 10264: ra = 330, jump @7\n      : @414 [@dyn 165] (gas: 10)\n 10270: a0 = u64 [sp + 0x10]\n 10273: a1 = u64 [sp + 0x18]\n 10276: a2 = 0x100000000\n 10286: a2 = a2 ^ a0\n 10289: a2 = a2 | a1\n 10292: a3 = a0 >> 0x20\n 10295: a3 = a3 <u 0x1\n 10298: a3 = 0 if a1 != 0\n 10300: a3 = 0 if a2 == 0\n 10302: jump @417 if a3 == 0\n      : @415 (gas: 12)\n 10305: a2 = u64 [sp]\n 10307: a3 = u64 [sp + 0x8]\n 10310: u64 [s1] = a2\n 10312: u64 [s1 + 0x8] = a3\n 10315: u64 [s1 + 0x10] = a0\n 10318: u64 [s1 + 0x18] = a1\n 10321: sp = s0 + 0xffffffffffffffc0\n 10324: ra = u64 [sp + 0x38]\n 10327: s0 = u64 [sp + 0x30]\n 10330: s1 = u64 [sp + 0x28]\n 10333: sp = sp + 0x40\n 10336: ret\n      : @416 (gas: 1)\n 10338: trap\n      : @417 (gas: 7)\n 10339: a1 = 0x20070\n 10344: i32 a1 = a1 + 0\n 10346: a0 = 0x1\n 10349: a2 = 0\n 10351: ra = 0x14c\n 10355: ecalli 14 // 'seal_return'\n 10357: fallthrough\n      : @418 [@dyn 166] (gas: 46)\n 10358: sp = sp + 0xffffffffffffff70\n 10362: u64 [sp + 0x88] = ra\n 10366: u64 [sp + 0x80] = s0\n 10370: u64 [sp + 0x78] = s1\n 10373: s0 = sp + 0x90\n 10377: sp = sp & 0xfffffffffffffff0\n 10380: t0 = a0\n 10382: a2 = u64 [a1]\n 10384: t2 = u64 [a0 + 0x8]\n 10387: a5 = u64 [a1 + 0x8]\n 10390: t1 = u64 [a0]\n 10392: a3 = a2 + 0x1f\n 10395: ra = a3 <u a2\n 10398: a2 = a5 + ra\n 10401: a3 = a3 & 0xffffffffffffffe0\n 10404: u64 [sp + 0x8] = t1\n 10407: t1 = t1 + a3\n 10410: a4 = t1 <u a3\n 10413: a3 = a2 + t2\n 10416: a3 = a3 + a4\n 10419: s1 = a3 ^ a2\n 10422: a0 = a3 <u a2\n 10425: a0 = a4 if s1 == 0\n 10428: a4 = u64 [t0 + 0x18]\n 10431: a5 = a2 <u a5\n 10434: s1 = u64 [a1 + 0x10]\n 10437: t0 = u64 [t0 + 0x10]\n 10440: a1 = u64 [a1 + 0x18]\n 10443: a5 = ra if ra == 0\n 10446: a5 = a5 + s1\n 10449: s1 = a5 <u s1\n 10452: a2 = a5 + t0\n 10455: a0 = a0 + a2\n 10458: a5 = a2 <u a5\n 10461: a2 = a0 <u a2\n 10464: a1 = a1 + a4\n 10467: a1 = a1 + s1\n 10470: a1 = a1 + a5\n 10473: a5 = a1 + a2\n 10476: a1 = a5 >u 0\n 10478: a2 = a0 >u 0\n 10480: a2 = a1 if a5 != 0\n 10483: a1 = a0 | a5\n 10486: s1 = a3 >u 0\n 10488: s1 = a2 if a1 != 0\n 10491: jump @422 if s1 != 0\n      : @419 (gas: 13)\n 10494: a1 = u64 [sp + 0x8]\n 10497: a1 = t1 <u a1\n 10500: a2 = a3 ^ t2\n 10503: s1 = a3 <u t2\n 10506: s1 = a1 if a2 == 0\n 10509: a1 = a0 <u t0\n 10512: a2 = a5 ^ a4\n 10515: a4 = a5 <u a4\n 10518: a4 = a1 if a2 == 0\n 10521: a1 = a0 ^ t0\n 10524: a1 = a1 | a2\n 10527: a4 = s1 if a1 == 0\n 10530: jump @422 if a4 != 0\n      : @420 (gas: 7)\n 10533: u64 [sp + 0x50] = t1\n 10536: u64 [sp + 0x58] = a3\n 10539: u64 [sp + 0x60] = a0\n 10542: a0 = 0x40\n 10545: a1 = sp + 0x50\n 10548: u64 [sp + 0x68] = a5\n 10551: ra = 334, jump @9\n      : @421 [@dyn 167] (gas: 6)\n 10557: sp = s0 + 0xffffffffffffff70\n 10561: ra = u64 [sp + 0x88]\n 10565: s0 = u64 [sp + 0x80]\n 10569: s1 = u64 [sp + 0x78]\n 10572: sp = sp + 0x90\n 10576: ret\n      : @422 (gas: 8)\n 10578: u64 [sp + 64] = 0\n 10581: u64 [sp + 56] = 0\n 10584: u64 [sp + 48] = 0\n 10587: a0 = 0x4e487b7100000000\n 10597: a1 = sp + 0x30\n 10600: u64 [sp + 0x48] = a0\n 10603: a0 = 0\n 10605: ra = 336, jump @9\n      : @423 [@dyn 168] (gas: 7)\n 10611: u64 [sp + 40] = 0\n 10614: u64 [sp + 32] = 0\n 10617: u64 [sp + 16] = 0x41\n 10621: a0 = 0x4\n 10624: a1 = sp + 0x10\n 10627: u64 [sp + 24] = 0\n 10630: ra = 338, jump @9\n      : @424 [@dyn 169] (gas: 2)\n 10636: a1 = i32 [0x20068]\n 10641: jump @426 if a1 >u 63\n      : @425 (gas: 2)\n 10645: u32 [0x20068] = 0x40\n 10651: fallthrough\n      : @426 (gas: 7)\n 10652: a1 = 0x20070\n 10657: i32 a1 = a1 + 0\n 10659: a0 = 0x1\n 10662: a2 = 0x24\n 10665: ra = 0x154\n 10669: ecalli 14 // 'seal_return'\n 10671: fallthrough\n      : @427 [@dyn 170] (gas: 11)\n 10672: sp = sp + 0xfffffffffffffbc0\n 10676: a1 = sp + 0x400\n 10680: u64 [a1 + 0x38] = ra\n 10683: u64 [a1 + 0x30] = s0\n 10686: u64 [a1 + 0x28] = s1\n 10689: s0 = sp + 0x440\n 10693: sp = sp & 0xffffffffffffffe0\n 10696: u64 [sp + 0x20] = a0\n 10699: a0 = sp + 0x3a0\n 10703: a1 = 0x40\n 10706: ra = 342, jump @7\n      : @428 [@dyn 171] (gas: 19)\n 10712: a4 = sp + 0x300\n 10716: a0 = u64 [a4 + 0xb8]\n 10720: u64 [sp + 0xc8] = a0\n 10724: s1 = u64 [a4 + 0xb0]\n 10728: a1 = u64 [a4 + 0xa8]\n 10732: u64 [sp + 0xc0] = a1\n 10736: a2 = u64 [a4 + 0xa0]\n 10740: u64 [sp + 0xd0] = a2\n 10744: u64 [a4 + 120] = 0\n 10747: u64 [a4 + 112] = 0\n 10750: u64 [a4 + 104] = 0\n 10753: u64 [a4 + 96] = 0x40\n 10757: u64 [a4 + 0x98] = a0\n 10761: u64 [a4 + 0x90] = s1\n 10765: u64 [a4 + 0x88] = a1\n 10769: a0 = sp + 0x380\n 10773: a1 = sp + 0x360\n 10777: u64 [a4 + 0x80] = a2\n 10781: ra = 344, jump @418\n      : @429 [@dyn 172] (gas: 12)\n 10787: a0 = u64 [sp + 0xd0]\n 10791: a2 = u64 [sp + 0xc8]\n 10795: a1 = u64 [sp + 0xc0]\n 10799: a2 = a2 | a1\n 10802: a1 = a0 | s1\n 10805: a1 = a1 | a2\n 10808: a1 = a1 >> 0x20\n 10811: u64 [sp + 0xa8] = s1\n 10815: a2 = a2 | s1\n 10818: a2 = a2 << 0x20\n 10821: a1 = a1 | a2\n 10824: jump @475 if a1 != 0\n      : @430 (gas: 8)\n 10828: a2 = sp + 0x300\n 10832: u64 [a2 + 88] = 0\n 10835: u64 [a2 + 80] = 0\n 10838: u64 [a2 + 72] = 0\n 10841: s1 = 0x1\n 10844: a1 = sp + 0x340\n 10848: u64 [a2 + 0x40] = s1\n 10851: ra = 346, jump @9\n      : @431 [@dyn 173] (gas: 11)\n 10857: a2 = u64 [sp + 0xd0]\n 10861: a1 = u64 [sp + 0xc8]\n 10865: a0 = u64 [sp + 0xa8]\n 10869: a0 = a0 | a1\n 10872: s1 = s1 << 0x20\n 10875: s1 = s1 + 0xffffffffffffffe0\n 10878: a1 = a2 <u s1\n 10881: a3 = u64 [sp + 0xc0]\n 10885: a1 = 0 if a3 != 0\n 10887: a1 = 0 if a0 != 0\n 10889: jump @475 if a1 == 0\n      : @432 (gas: 7)\n 10893: a0 = i32 [0x20064]\n 10898: u64 [sp + 0xb8] = a0\n 10902: a0 = a2 + 0x20\n 10905: a1 = 0x20\n 10908: u64 [sp + 0xd8] = a0\n 10912: s1 = a2\n 10914: ra = 348, jump @15\n      : @433 [@dyn 174] (gas: 7)\n 10920: i32 a0 = a0 + 0\n 10922: a1 = 0x20\n 10925: a2 = u64 [sp + 0xb8]\n 10929: ecalli 2 // 'call_data_copy'\n 10931: a0 = sp + 0x320\n 10935: a1 = s1\n 10937: ra = 350, jump @7\n      : @434 [@dyn 175] (gas: 9)\n 10943: a4 = sp + 0x300\n 10947: a0 = u64 [a4 + 0x30]\n 10950: a1 = u64 [a4 + 0x38]\n 10953: a2 = u64 [a4 + 0x28]\n 10956: a3 = u64 [a4 + 0x20]\n 10959: a1 = a1 | a2\n 10962: a0 = a0 | a3\n 10965: a0 = a0 | a1\n 10968: jump @476 if a0 == 0\n      : @435 (gas: 1)\n 10972: ra = 352, jump @0\n      : @436 [@dyn 176] (gas: 12)\n 10978: s1 = 0x30090\n 10983: a0 = u64 [0x30090]\n 10988: a1 = u64 [0x30098]\n 10993: a2 = u32 [0x300a0]\n 10998: a3 = sp + 0x300\n 11002: u64 [a3 + 24] = 0\n 11005: u64 [a3 + 0x10] = a2\n 11008: u64 [a3 + 0x8] = a1\n 11011: a1 = sp + 0x300\n 11015: u64 [a3] = a0\n 11017: a0 = u64 [sp + 0xd8]\n 11021: ra = 354, jump @9\n      : @437 [@dyn 177] (gas: 1)\n 11027: ra = 356, jump @0\n      : @438 [@dyn 178] (gas: 24)\n 11033: a0 = u64 [s1 + 0x28]\n 11036: a1 = u64 [s1 + 0x30]\n 11039: a2 = u64 [s1 + 0x20]\n 11042: a0 = reverse a0\n 11044: a3 = a0 << 0x20\n 11047: a1 = reverse a1\n 11049: a1 = a1 >> 0x20\n 11052: a3 = a3 | a1\n 11055: a0 = a0 >> 0x20\n 11058: a1 = reverse a2\n 11060: s1 = 0x30070\n 11065: a2 = a1 << 0x20\n 11068: a0 = a0 | a2\n 11071: a1 = a1 >> 0x20\n 11074: u64 [sp + 0x10] = a1\n 11077: u32 [0x30080] = a1\n 11082: u64 [sp + 0x8] = a0\n 11085: u64 [0x30078] = a0\n 11090: u64 [sp + 0x18] = a3\n 11093: u64 [0x30070] = a3\n 11098: i32 a0 = s1 + 0\n 11100: u64 [sp + 0x28] = a0\n 11103: ecalli 6 // 'code_size'\n 11105: fallthrough\n      : @439 (gas: 1)\n 11106: jump @481 if a0 == 0\n      : @440 (gas: 4)\n 11110: u64 [sp + 0x30] = s1\n 11113: a0 = sp + 0x2e0\n 11117: a1 = 0x40\n 11120: ra = 358, jump @7\n      : @441 [@dyn 179] (gas: 15)\n 11126: a3 = sp + 0x200\n 11130: a2 = u64 [a3 + 0xf8]\n 11134: s1 = u64 [a3 + 0xf0]\n 11138: a1 = u64 [a3 + 0xe8]\n 11142: a0 = u64 [a3 + 0xe0]\n 11146: u64 [sp + 0x40] = a1\n 11149: u64 [sp + 0x38] = a2\n 11152: a2 = a2 | a1\n 11155: a1 = a0 | s1\n 11158: a1 = a1 | a2\n 11161: a1 = a1 >> 0x20\n 11164: a2 = a2 | s1\n 11167: a2 = a2 << 0x20\n 11170: a1 = a1 | a2\n 11173: jump @475 if a1 != 0\n      : @442 (gas: 9)\n 11177: a3 = sp + 0x200\n 11181: u64 [a3 + 208] = 0\n 11185: u64 [a3 + 200] = 0\n 11189: u64 [a3 + 192] = 0\n 11193: a2 = 0x744532ae00000000\n 11203: a1 = sp + 0x2c0\n 11207: u64 [a3 + 0xd8] = a2\n 11211: u64 [sp + 0x48] = a0\n 11214: ra = 360, jump @9\n      : @443 [@dyn 180] (gas: 12)\n 11220: a1 = u64 [sp + 0x48]\n 11223: u64 [sp + 0x78] = s1\n 11226: a3 = u64 [sp + 0x38]\n 11229: a3 = a3 | s1\n 11232: s1 = 0x100000000\n 11242: a0 = 0xfffffffc\n 11252: a0 = a1 <u a0\n 11255: a2 = u64 [sp + 0x40]\n 11258: a0 = 0 if a2 != 0\n 11260: u64 [sp + 0xb8] = a3\n 11264: a0 = 0 if a3 != 0\n 11266: jump @475 if a0 == 0\n      : @444 (gas: 8)\n 11270: i32 a0 = a1 + 0x4\n 11273: a2 = sp + 0x200\n 11277: u64 [a2 + 184] = 0\n 11281: u64 [a2 + 176] = 0\n 11285: u64 [a2 + 168] = 0\n 11289: a1 = sp + 0x2a0\n 11293: u64 [a2 + 160] = 0\n 11297: ra = 362, jump @9\n      : @445 [@dyn 181] (gas: 4)\n 11303: a0 = u64 [sp + 0x28]\n 11306: ra = 0x16c\n 11310: ecalli 0 // 'address'\n 11311: fallthrough\n      : @446 [@dyn 182] (gas: 8)\n 11312: a4 = u64 [sp + 0x48]\n 11315: a0 = s1 + 0xffffffffffffffdc\n 11318: a0 = a4 <u a0\n 11321: a1 = u64 [sp + 0x40]\n 11324: a0 = 0 if a1 != 0\n 11326: a1 = u64 [sp + 0xb8]\n 11330: a0 = 0 if a1 != 0\n 11332: jump @475 if a0 == 0\n      : @447 (gas: 4)\n 11336: a2 = u64 [sp + 0x30]\n 11339: a0 = u64 [a2 + 0x8]\n 11342: a1 = i32 [a2 + 0x10]\n 11345: t0 = 366, jump @492\n      : @448 [@dyn 183] (gas: 8)\n 11351: i32 a0 = a4 + 0x24\n 11354: a4 = sp + 0x200\n 11358: u64 [a4 + 152] = 0\n 11362: u64 [a4 + 0x90] = a1\n 11366: u64 [a4 + 0x88] = a2\n 11370: a1 = sp + 0x280\n 11374: u64 [a4 + 0x80] = a3\n 11378: ra = 368, jump @9\n      : @449 [@dyn 184] (gas: 10)\n 11384: a1 = u64 [sp + 0x48]\n 11387: s1 = 0x100000000\n 11397: u64 [sp + 0xb0] = s1\n 11401: a0 = 0xffffffbc\n 11411: a0 = a1 <u a0\n 11414: a2 = u64 [sp + 0x40]\n 11417: a0 = 0 if a2 != 0\n 11419: a2 = u64 [sp + 0xb8]\n 11423: a0 = 0 if a2 != 0\n 11425: jump @475 if a0 == 0\n      : @450 (gas: 8)\n 11429: i32 a0 = a1 + 0x44\n 11432: a2 = sp + 0x200\n 11436: u64 [a2 + 120] = 0\n 11439: u64 [a2 + 112] = 0\n 11442: u64 [a2 + 96] = 0x60\n 11446: a1 = sp + 0x260\n 11450: u64 [a2 + 104] = 0\n 11453: ra = 370, jump @9\n      : @451 [@dyn 185] (gas: 4)\n 11459: a0 = sp + 0x240\n 11463: s1 = u64 [sp + 0xd0]\n 11467: a1 = s1\n 11469: ra = 372, jump @7\n      : @452 [@dyn 186] (gas: 9)\n 11475: a2 = u64 [sp + 0x48]\n 11478: a0 = u64 [sp + 0xb0]\n 11482: a0 = a0 + 0xffffffffffffff9c\n 11485: a0 = a2 <u a0\n 11488: a1 = u64 [sp + 0x40]\n 11491: a0 = 0 if a1 != 0\n 11493: a3 = u64 [sp + 0xb8]\n 11497: a0 = 0 if a3 != 0\n 11499: jump @475 if a0 == 0\n      : @453 (gas: 31)\n 11503: a0 = u64 [sp + 0xd8]\n 11507: a0 = a0 <u s1\n 11510: a1 = u64 [sp + 0xc0]\n 11514: a3 = a1 + a0\n 11517: u64 [sp + 0xb0] = a3\n 11521: a1 = a3 <u a1\n 11524: a1 = a0 if a0 == 0\n 11527: a0 = u64 [sp + 0xa8]\n 11531: s1 = a0 + a1\n 11534: a0 = s1 <u a0\n 11537: a1 = u64 [sp + 0xc8]\n 11541: a0 = a0 + a1\n 11544: u64 [sp + 0xb8] = a0\n 11548: a3 = u64 [sp + 0x258]\n 11552: a1 = u64 [sp + 0x250]\n 11556: a4 = u64 [sp + 0x248]\n 11560: a5 = u64 [sp + 0x240]\n 11564: a0 = 0xffffffff\n 11574: u64 [sp + 0x50] = a0\n 11577: i32 a0 = a2 + 0x64\n 11580: u64 [sp + 0x58] = a5\n 11583: a2 = sp + 0x200\n 11587: u64 [a2 + 0x20] = a5\n 11590: u64 [sp + 0x60] = a4\n 11593: u64 [a2 + 0x28] = a4\n 11596: u64 [sp + 0x68] = a1\n 11599: u64 [a2 + 0x30] = a1\n 11602: a1 = sp + 0x220\n 11606: u64 [sp + 0x70] = a3\n 11609: u64 [a2 + 0x38] = a3\n 11612: ra = 374, jump @9\n      : @454 [@dyn 187] (gas: 23)\n 11618: a4 = s1\n 11620: ra = u64 [sp + 0xb0]\n 11624: a5 = 0\n 11626: a3 = 0\n 11628: t0 = 0\n 11630: t1 = 0\n 11632: a1 = u64 [sp + 0x48]\n 11635: a0 = a1 + 0x84\n 11639: u64 [sp + 0xd0] = a0\n 11643: a0 = a0 <u a1\n 11646: s1 = u64 [sp + 0x40]\n 11649: a1 = s1 + a0\n 11652: u64 [sp + 0xc0] = a1\n 11656: s1 = a1 <u s1\n 11659: s1 = a0 if a0 == 0\n 11662: t2 = u64 [sp + 0x78]\n 11665: s1 = s1 + t2\n 11668: u64 [sp + 0xa8] = s1\n 11672: a0 = s1 <u t2\n 11675: a1 = u64 [sp + 0x38]\n 11678: a0 = a0 + a1\n 11681: u64 [sp + 0xc8] = a0\n 11685: fallthrough\n      : @455 (gas: 18)\n 11686: a0 = u64 [sp + 0x58]\n 11689: a0 = a5 <u a0\n 11692: a2 = u64 [sp + 0x60]\n 11695: a1 = a3 ^ a2\n 11698: u64 [sp + 0xa0] = a3\n 11702: a2 = a3 <u a2\n 11705: a2 = a0 if a1 == 0\n 11708: s1 = u64 [sp + 0x68]\n 11711: a0 = t0 <u s1\n 11714: a3 = u64 [sp + 0x70]\n 11717: a1 = t1 ^ a3\n 11720: u64 [sp + 0x98] = t1\n 11724: a3 = t1 <u a3\n 11727: a3 = a0 if a1 == 0\n 11730: a0 = t0 ^ s1\n 11733: a0 = a0 | a1\n 11736: a3 = a2 if a0 == 0\n 11739: jump @461 if a3 == 0\n      : @456 (gas: 14)\n 11743: u64 [sp + 0x80] = t0\n 11747: u64 [sp + 0x88] = a5\n 11751: a2 = u64 [sp + 0xd8]\n 11755: a0 = a2 | a4\n 11758: u64 [sp + 0xb0] = ra\n 11762: a1 = u64 [sp + 0xb8]\n 11766: a1 = ra | a1\n 11769: a0 = a0 | a1\n 11772: a0 = a0 >> 0x20\n 11775: u64 [sp + 0x90] = a4\n 11779: a1 = a1 | a4\n 11782: a1 = a1 << 0x20\n 11785: a0 = a0 | a1\n 11788: jump @475 if a0 != 0\n      : @457 (gas: 4)\n 11792: a0 = sp + 0x140\n 11796: u64 [sp + 0xd8] = a2\n 11800: a1 = a2\n 11802: ra = 376, jump @7\n      : @458 [@dyn 188] (gas: 12)\n 11808: a0 = u64 [sp + 0xd0]\n 11812: s1 = u64 [sp + 0xa8]\n 11816: a2 = a0 | s1\n 11819: a1 = u64 [sp + 0xc8]\n 11823: a3 = u64 [sp + 0xc0]\n 11827: a1 = a1 | a3\n 11830: a2 = a2 | a1\n 11833: a2 = a2 >> 0x20\n 11836: a1 = a1 | s1\n 11839: a1 = a1 << 0x20\n 11842: a1 = a1 | a2\n 11845: jump @475 if a1 != 0\n      : @459 (gas: 14)\n 11849: a4 = u64 [sp + 0x150]\n 11853: a1 = u64 [sp + 0x148]\n 11857: a2 = u64 [sp + 0x140]\n 11861: a3 = u64 [sp + 0x50]\n 11864: a4 = a4 & a3\n 11867: a1 = a1 & 0xffffffffffffffff\n 11870: a2 = a2 & 0xffffffffffffffff\n 11873: u64 [sp + 312] = 0\n 11877: u64 [sp + 0x120] = a2\n 11881: u64 [sp + 0x128] = a1\n 11885: a1 = sp + 0x120\n 11889: u64 [sp + 0x130] = a4\n 11893: u64 [sp + 0xd0] = a0\n 11897: ra = 378, jump @9\n      : @460 [@dyn 189] (gas: 45)\n 11903: a0 = u64 [sp + 0xd0]\n 11907: t0 = a0 + 0x20\n 11910: a2 = t0 <u a0\n 11913: a0 = u64 [sp + 0xc0]\n 11917: t2 = a0 + a2\n 11920: a3 = t2 <u a0\n 11923: a3 = a2 if a2 == 0\n 11926: ra = s1 + a3\n 11929: a2 = ra <u s1\n 11932: a0 = u64 [sp + 0xc8]\n 11936: a0 = a0 + a2\n 11939: u64 [sp + 0xc8] = a0\n 11943: a0 = u64 [sp + 0xd8]\n 11947: a2 = a0 + 0x20\n 11950: a4 = a2 <u a0\n 11953: a0 = u64 [sp + 0xb0]\n 11957: a1 = a0 + a4\n 11960: s1 = a1 <u a0\n 11963: s1 = a4 if a4 == 0\n 11966: a0 = u64 [sp + 0x90]\n 11970: a4 = a0 + s1\n 11973: s1 = a4 <u a0\n 11976: a0 = u64 [sp + 0xb8]\n 11980: a0 = a0 + s1\n 11983: u64 [sp + 0xb8] = a0\n 11987: a5 = u64 [sp + 0x88]\n 11991: a5 = a5 + 0x1\n 11994: s1 = a5 <u 0x1\n 11997: a3 = u64 [sp + 0xa0]\n 12001: a3 = a3 + s1\n 12004: s1 = a5 | a3\n 12007: s1 = s1 <u 0x1\n 12010: a0 = u64 [sp + 0x80]\n 12014: s1 = s1 + a0\n 12017: a0 = s1 <u a0\n 12020: t1 = u64 [sp + 0x98]\n 12024: t1 = t1 + a0\n 12027: u64 [sp + 0xd0] = t0\n 12031: u64 [sp + 0xc0] = t2\n 12035: u64 [sp + 0xa8] = ra\n 12039: u64 [sp + 0xd8] = a2\n 12043: ra = a1\n 12045: t0 = s1\n 12047: t2 = u64 [sp + 0x78]\n 12050: jump @455\n      : @461 (gas: 26)\n 12053: a0 = u64 [sp + 0x48]\n 12056: t0 = u64 [sp + 0xd0]\n 12060: t1 = t0 <u a0\n 12063: s1 = u64 [sp + 0x40]\n 12066: a1 = u64 [sp + 0xc0]\n 12070: a3 = a1 ^ s1\n 12073: a2 = a1 <u s1\n 12076: a2 = t1 if a3 == 0\n 12079: a3 = u64 [sp + 0xa8]\n 12083: a5 = a3 - t2\n 12086: t2 = a3 <u t2\n 12089: a4 = u64 [sp + 0xc8]\n 12093: a3 = u64 [sp + 0x38]\n 12096: a4 = a4 - a3\n 12099: a4 = a4 - t2\n 12102: a3 = a5 <u a2\n 12105: a4 = a4 - a3\n 12108: u64 [sp + 0xd8] = a4\n 12112: a5 = a5 - a2\n 12115: u64 [sp + 0xc8] = a5\n 12119: a1 = a1 - s1\n 12122: a1 = a1 - t1\n 12125: u64 [sp + 0xc0] = a1\n 12129: s1 = t0 - a0\n 12132: ecalli 11 // 'ref_time_left'\n 12134: fallthrough\n      : @462 (gas: 25)\n 12135: u64 [sp + 0xd0] = a0\n 12139: a1 = u64 [sp + 0x30]\n 12142: a0 = u64 [sp + 0x8]\n 12145: u64 [a1 + 0x8] = a0\n 12148: a0 = u64 [sp + 0x18]\n 12151: u64 [a1] = a0\n 12153: a0 = u64 [sp + 0x10]\n 12156: u32 [a1 + 0x10] = a0\n 12159: a4 = sp + 0x300\n 12163: u64 [a4 + 216] = 0\n 12167: a5 = 0\n 12169: u64 [a4 + 208] = 0\n 12173: u64 [a4 + 200] = 0\n 12177: a2 = u64 [sp + 0xc8]\n 12181: a0 = s1 | a2\n 12184: a1 = u64 [sp + 0xd8]\n 12188: a3 = u64 [sp + 0xc0]\n 12192: a1 = a1 | a3\n 12195: a0 = a0 | a1\n 12198: a0 = a0 >> 0x20\n 12201: a1 = a1 | a2\n 12204: a1 = a1 << 0x20\n 12207: a0 = a0 | a1\n 12210: u64 [a4 + 192] = 0\n 12214: jump @475 if a0 != 0\n      : @463 (gas: 7)\n 12218: i32 a0 = s1 + 0\n 12220: u64 [sp + 0xc8] = a0\n 12224: a1 = s1\n 12226: u64 [sp + 0xb8] = s1\n 12230: s1 = u64 [sp + 0x48]\n 12233: a0 = s1\n 12235: ra = 380, jump @15\n      : @464 [@dyn 190] (gas: 4)\n 12241: u64 [sp + 0xd8] = a0\n 12245: a0 = s1\n 12247: a1 = 0\n 12249: ra = 382, jump @15\n      : @465 [@dyn 191] (gas: 39)\n 12255: u32 [sp + 992] = 0\n 12259: a1 = u64 [sp + 0xc8]\n 12263: a1 = a1 >u 0\n 12265: a3 = u64 [sp + 0xd0]\n 12269: a2 = a3 >u 0x8fc\n 12273: a1 = a1 | a2\n 12276: a2 = -a1\n 12278: a3 = sp + 0x400\n 12282: u64 [a3 + 0x18] = a2\n 12285: u64 [a3 + 0x10] = a2\n 12288: u64 [a3 + 0x8] = a2\n 12291: u64 [a3] = a2\n 12293: a2 = u64 [sp + 0x30]\n 12296: a2 = a2 << 0x20\n 12299: a2 = a2 >> 0x20\n 12302: a1 = a1 << 0x23\n 12305: t0 = a1 | a2\n 12308: a1 = sp + 0x3c0\n 12312: a1 = a1 << 0x20\n 12315: a1 = a1 >> 0x20\n 12318: a2 = sp + 0x400\n 12322: a2 = a2 << 0x20\n 12325: a3 = a2 | a1\n 12328: a1 = u64 [sp + 0xd8]\n 12332: a1 = a1 << 0x20\n 12335: a1 = a1 >> 0x20\n 12338: a4 = u64 [sp + 0xb8]\n 12342: a4 = a4 << 0x20\n 12345: a4 = a4 | a1\n 12348: a0 = a0 << 0x20\n 12351: a0 = a0 >> 0x20\n 12354: a1 = sp + 0x3e0\n 12358: a1 = a1 << 0x20\n 12361: a5 = a1 | a0\n 12364: a1 = 0xffffffffffffffff\n 12367: a2 = 0xffffffffffffffff\n 12370: a0 = t0\n 12372: ecalli 1 // 'call'\n 12374: fallthrough\n      : @466 (gas: 1)\n 12375: jump @474 if a0 != 0\n      : @467 (gas: 16)\n 12379: u64 [sp + 504] = 0\n 12383: u64 [sp + 496] = 0\n 12387: u64 [sp + 488] = 0\n 12391: u64 [sp + 480] = 0\n 12395: a0 = u64 [sp + 0x48]\n 12398: a3 = sp + 0x200\n 12402: u64 [a3] = a0\n 12404: a0 = u64 [sp + 0x40]\n 12407: u64 [a3 + 0x8] = a0\n 12410: a0 = u64 [sp + 0x78]\n 12413: u64 [a3 + 0x10] = a0\n 12416: a0 = sp + 0x200\n 12420: a1 = sp + 0x1e0\n 12424: a2 = u64 [sp + 0x38]\n 12427: u64 [a3 + 0x18] = a2\n 12430: ra = 384, jump @418\n      : @468 [@dyn 192] (gas: 3)\n 12436: a0 = sp + 0x1c0\n 12440: a1 = 0x40\n 12443: ra = 386, jump @7\n      : @469 [@dyn 193] (gas: 12)\n 12449: a0 = u64 [sp + 0x1d8]\n 12453: a1 = u64 [sp + 0x1d0]\n 12457: a2 = u64 [sp + 0x1c8]\n 12461: s1 = u64 [sp + 0x1c0]\n 12465: a0 = a0 | a2\n 12468: a2 = s1 | a1\n 12471: a2 = a2 | a0\n 12474: a2 = a2 >> 0x20\n 12477: a0 = a0 | a1\n 12480: a0 = a0 << 0x20\n 12483: a0 = a0 | a2\n 12486: jump @475 if a0 != 0\n      : @470 (gas: 7)\n 12490: u64 [sp + 440] = 0\n 12494: u64 [sp + 432] = 0\n 12498: u64 [sp + 424] = 0\n 12502: a1 = sp + 0x1a0\n 12506: u64 [sp + 416] = 0\n 12510: a0 = s1\n 12512: ra = 388, jump @9\n      : @471 [@dyn 194] (gas: 6)\n 12518: a0 = u64 [sp + 0x28]\n 12521: ra = 0x186\n 12525: ecalli 5 // 'caller'\n 12527: a2 = u64 [sp + 0x30]\n 12530: t0 = 0x188\n 12534: jump @491\n      : @472 [@dyn 195] (gas: 2)\n 12537: a2 = u64 [sp + 0x30]\n 12540: t0 = 392, jump @491\n      : @473 [@dyn 196] (gas: 23)\n 12546: t0 = a1 | a0\n 12549: a3 = a3 >> 0x20\n 12552: a1 = reverse a2\n 12554: a2 = a1 << 0x20\n 12557: a2 = a2 | a3\n 12560: a1 = a1 >> 0x20\n 12563: u64 [sp + 376] = 0\n 12567: a3 = u64 [0x20040]\n 12572: a4 = u64 [0x20048]\n 12577: a5 = u64 [0x20050]\n 12582: a0 = u64 [0x20058]\n 12587: u64 [sp + 0x198] = a3\n 12591: u64 [sp + 0x190] = a4\n 12595: u64 [sp + 0x188] = a5\n 12599: u64 [sp + 0x180] = a0\n 12603: u64 [sp + 0x170] = a1\n 12607: u64 [sp + 0x168] = a2\n 12611: a1 = 0x20\n 12614: a2 = sp + 0x180\n 12618: a3 = sp + 0x160\n 12622: u64 [sp + 0x160] = t0\n 12626: a0 = s1\n 12628: ra = 394, jump @13\n      : @474 [@dyn 197] (gas: 13)\n 12634: a0 = u64 [sp + 0x20]\n 12637: a1 = 0\n 12639: u64 [a0 + 24] = 0\n 12642: u64 [a0 + 16] = 0\n 12645: u64 [a0 + 8] = 0\n 12648: u64 [a0 + 0] = 0\n 12650: sp = s0 + 0xfffffffffffffbc0\n 12654: a0 = sp + 0x400\n 12658: ra = u64 [a0 + 0x38]\n 12661: s0 = u64 [a0 + 0x30]\n 12664: s1 = u64 [a0 + 0x28]\n 12667: sp = sp + 0x440\n 12671: ret\n      : @475 (gas: 1)\n 12673: trap\n      : @476 (gas: 8)\n 12674: u64 [sp + 272] = 0\n 12678: u64 [sp + 264] = 0\n 12682: u64 [sp + 256] = 0\n 12686: a0 = 0x4e487b7100000000\n 12696: a1 = sp + 0x100\n 12700: u64 [sp + 0x118] = a0\n 12704: a0 = 0\n 12706: ra = 396, jump @9\n      : @477 [@dyn 198] (gas: 7)\n 12712: u64 [sp + 248] = 0\n 12716: u64 [sp + 240] = 0\n 12720: u64 [sp + 224] = 0x32\n 12725: a0 = 0x4\n 12728: a1 = sp + 0xe0\n 12732: u64 [sp + 232] = 0\n 12736: ra = 398, jump @9\n      : @478 [@dyn 199] (gas: 2)\n 12742: a1 = i32 [0x20068]\n 12747: jump @480 if a1 >u 63\n      : @479 (gas: 2)\n 12751: u32 [0x20068] = 0x40\n 12757: fallthrough\n      : @480 (gas: 6)\n 12758: a1 = 0x20070\n 12763: i32 a1 = a1 + 0\n 12765: a0 = 0x1\n 12768: a2 = 0x24\n 12771: ecalli 14 // 'seal_return'\n 12773: fallthrough\n      : @481 (gas: 8)\n 12774: a1 = 0x20070\n 12779: i32 a1 = a1 + 0\n 12781: a0 = 0x1\n 12784: a2 = 0\n 12786: ecalli 14 // 'seal_return'\n 12788: a0 = 0\n 12790: ra = 0x190\n 12794: jump @21\n      : @482 [export #0: 'call'] (gas: 2)\n 12797: a0 = 0\n 12799: ra = 400, jump @21\n      : @483 [@dyn 200] [export #1: 'deploy'] (gas: 2)\n 12805: a0 = 0x1\n 12808: ra = 402, jump @21\n      : @484 [@dyn 201] (gas: 9)\n 12814: a1 = a1 <u 0x20\n 12817: a1 = a1 ^ 0x1\n 12820: a1 = a0 if a3 != 0\n 12823: a0 = a3 >u 0\n 12825: a2 = a3 >u 0\n 12827: a2 = a0 if a3 == 0\n 12830: a0 = a3 | a3\n 12833: a2 = a1 if a0 == 0\n 12836: jump [t0]\n      : @485 (gas: 12)\n 12838: a1 = u64 [s1 + 0xb0]\n 12842: a2 = u64 [s1 + 0xa0]\n 12846: a1 = a1 | a2\n 12849: a3 = u64 [s1 + 0xa8]\n 12853: a2 = u64 [s1 + 0xb8]\n 12857: a2 = a2 | a3\n 12860: a2 = a2 | a1\n 12863: a2 = a2 >> 0x20\n 12866: a1 = a1 | a3\n 12869: a1 = a1 << 0x20\n 12872: a1 = a1 | a2\n 12875: jump [t0]\n      : @486 (gas: 16)\n 12877: a2 = u64 [s1 + 0xb8]\n 12881: a0 = u64 [a2 + 0x8]\n 12884: a1 = i32 [a2 + 0x10]\n 12887: a2 = u64 [a2]\n 12889: a0 = reverse a0\n 12891: a3 = a0 << 0x20\n 12894: a1 = reverse a1\n 12896: a1 = a1 >> 0x20\n 12899: a3 = a3 | a1\n 12902: a0 = a0 >> 0x20\n 12905: a1 = reverse a2\n 12907: a2 = a1 << 0x20\n 12910: a2 = a2 | a0\n 12913: a1 = a1 >> 0x20\n 12916: i32 a0 = a4 + 0x4\n 12919: jump [t0]\n      : @487 (gas: 13)\n 12921: a0 = u64 [s1 + 0xb8]\n 12925: a1 = u64 [s1 + 0xa0]\n 12929: a0 = a0 | a1\n 12932: a1 = u64 [s1 + 0xa8]\n 12936: a3 = a1\n 12938: a2 = u64 [s1 + 0xb0]\n 12942: a1 = a1 | a2\n 12945: a1 = a1 | a0\n 12948: a1 = a1 >> 0x20\n 12951: a0 = a0 | a2\n 12954: a0 = a0 << 0x20\n 12957: a0 = a0 | a1\n 12960: jump [t0]\n      : @488 (gas: 15)\n 12962: a2 = u64 [s1 + 0xb8]\n 12966: a0 = u64 [a2 + 0x8]\n 12969: a1 = i32 [a2 + 0x10]\n 12972: a2 = u64 [a2]\n 12974: a0 = reverse a0\n 12976: a3 = a0 << 0x20\n 12979: a1 = reverse a1\n 12981: a1 = a1 >> 0x20\n 12984: a3 = a3 | a1\n 12987: a0 = a0 >> 0x20\n 12990: a1 = reverse a2\n 12992: a2 = a1 << 0x20\n 12995: a0 = a0 | a2\n 12998: a1 = a1 >> 0x20\n 13001: jump [t0]\n      : @489 (gas: 14)\n 13003: a0 = u64 [a2 + 0x8]\n 13006: a1 = u64 [a2]\n 13008: a2 = i32 [a2 + 0x10]\n 13011: a0 = reverse a0\n 13013: a3 = a0 >> 0x20\n 13016: a1 = reverse a1\n 13018: a4 = a1 << 0x20\n 13021: a3 = a3 | a4\n 13024: a0 = a0 << 0x20\n 13027: a2 = reverse a2\n 13029: a2 = a2 >> 0x20\n 13032: a0 = a0 | a2\n 13035: a1 = a1 >> 0x20\n 13038: jump [t0]\n      : @490 (gas: 12)\n 13040: a3 = u64 [s1 + 0xb8]\n 13044: a0 = u64 [a3 + 0x18]\n 13047: a1 = u64 [a3 + 0x10]\n 13050: a2 = u64 [a3 + 0x8]\n 13053: a3 = u64 [a3]\n 13055: a0 = reverse a0\n 13057: a1 = reverse a1\n 13059: a2 = reverse a2\n 13061: a3 = reverse a3\n 13063: a4 = s1 + 0x7ff\n 13067: a4 = a4 + 0x31\n 13070: jump [t0]\n      : @491 (gas: 8)\n 13072: a0 = u64 [a2 + 0x8]\n 13075: a1 = i32 [a2 + 0x10]\n 13078: a2 = u64 [a2]\n 13080: a3 = reverse a0\n 13082: a0 = a3 << 0x20\n 13085: a1 = reverse a1\n 13087: a1 = a1 >> 0x20\n 13090: jump [t0]\n      : @492 (gas: 12)\n 13092: a2 = u64 [a2]\n 13094: a0 = reverse a0\n 13096: a3 = a0 << 0x20\n 13099: a1 = reverse a1\n 13101: a1 = a1 >> 0x20\n 13104: a3 = a3 | a1\n 13107: a0 = a0 >> 0x20\n 13110: a1 = reverse a2\n 13112: a2 = a1 << 0x20\n 13115: a2 = a2 | a0\n 13118: a1 = a1 >> 0x20\n 13121: jump [t0]\n      : @493 (gas: 9)\n 13123: a0 = u64 [s1 + 0xa8]\n 13127: a1 = u64 [s1 + 0xa0]\n 13131: a0 = a0 | a1\n 13134: a1 = 0xffffffe0\n 13144: a1 = a2 <u a1\n 13147: a3 = u64 [s1 + 0xb0]\n 13151: a1 = 0 if a3 != 0\n 13153: a1 = 0 if a0 != 0\n 13155: jump [t0]\n      : @494 (gas: 8)\n 13157: a2 = 0x100000000\n 13167: a2 = a2 ^ a1\n 13170: a2 = a2 | a0\n 13173: a3 = a1 >> 0x20\n 13176: a3 = a3 <u 0x1\n 13179: a3 = 0 if a0 != 0\n 13181: a3 = 0 if a2 == 0\n 13183: jump [t0]\n      : @495 (gas: 9)\n 13185: a0 = u64 [a3 + 0x18]\n 13188: a1 = u64 [a3 + 0x10]\n 13191: a2 = u64 [a3 + 0x8]\n 13194: a3 = u64 [a3]\n 13196: a0 = reverse a0\n 13198: a4 = reverse a1\n 13200: a2 = reverse a2\n 13202: a3 = reverse a3\n 13204: jump [t0]\n      : @496 (gas: 6)\n 13206: i32 a0 = a2 + 0\n 13208: u64 [s1 + 0xb0] = a0\n 13212: a0 = u64 [s1 + 0xb8]\n 13216: a1 = a2\n 13218: u64 [s1 + 0xa8] = a2\n 13222: jump [t0]\n","bytecode":{"object":"50564d0000763d000000000000010700c1f000c000800364c3ab5178ddc6491492f41577f537bf0a2f65c27c1419050190eea6182c2038bc60332e067e72c47ff1f58e5982c2f2109581cf68deb3ac4f4eb7b254143ef2c2f42b8ea3decd30fcadb6d39e3f7dead6d83b96f41964177ffe73ee4a7a0618136000000004812c1200000000070000000b0000001900000027000000350000003b0000004400000051000000630000006e0000007d0000008a0000009a000000aa000000b5000000c7000000d20000006164647265737363616c6c63616c6c5f646174615f636f707963616c6c5f646174615f6c6f616463616c6c5f646174615f73697a6563616c6c6572636f64655f73697a656465706f7369745f6576656e746765745f696d6d757461626c655f646174616765745f73746f72616765686173685f6b656363616b5f3235367265665f74696d655f6c65667472657475726e5f646174615f636f707972657475726e5f646174615f73697a657365616c5f72657475726e7365745f696d6d757461626c655f646174617365745f73746f7261676576616c75655f7472616e73666572726564051102b1fd0463616c6cb205066465706c6f7906bbb480c902b3a86a00b201b40364046904ea04f50422055d059805da0503062906350681069606cf06fa06210736078007a507550869089608b208e508ea080f093b09360ae00a150b1e0b480b540b310cd90c180d450d890e960ea90eda0edf0efe0e1a0f580f600f770f1a10db10391141116c118611c011cf119c12ab12be12e81250135a1389139d13a71300146c148114af14cc140115071529155615af1520164a165016e316101716179c17de17e81780189018c218291979198819631a741a7a1aa11ac91ae01a021b0b1b281baf1bc01b1f1c291c541c741cb01cc11cb51dc41dd61d001e691e731ea11eb61ec01e191f231f851fab1fb11fc31ff01ff61f07200d204a20af20f12036217d21b121b721ca21d0211b223622632269227c228222bd22ed22f32206230c234a23ae230b2454241c257025b7253e264b268526ca26e82639278927a727b2271e2876283d2973298c29b029d829232a692aa82abf2ae22a132b192b762bd42b272c302c572c782cc32cd32c622d202e7f2ed12fdf2f9430a130e630f93002315a31a831c63105320e329511e87b10107b15087b163306600002390560000251051c3307900003837783680a080139076000022003600002ac5710821010821508821695111832000039086000025108d406330790000383770a0f28c7069511f07b10087b15648964753308206497501002b0037c78017c797c7a027c7b03978808d4980897aa1097bb18d4ba0ad4a8087c79057c7a047c7b067c7c07979908d4a90997bb1097cc18d4cb0bd4b909979920d489027c79097c7a087c7b0a7c7c0b979908d4a90997bb1097cc18d4cb0bd4b9097c7a0d7c7b0c7c7c0e7c780f97aa08d4ba0a97cc10978818d4c808d4a808978820d498037c78117c7a107c7b127c7c13978808d4a80897bb1097cc18d4cb0bd4b8087c7a157c7b147c7c167c791797aa08d4ba0a97cc10979918d4c909d4a909979920d4890a7c78197c79187c7b1a7c7c1b978808d4980897bb1097cc18d4cb0bd4b8087c791d7c7b1c7c7c1e7c771f979908d4b90997cc10977718d4c707d49707977720d487076f776fa86f396f2a7b5a187b59107b58087b57821008821595111032009511d87b10207b15187b161082897b19088289087b1982851082861833082050100468026f686f59821a6faa821b086fbb787b18787a10787908787898bc38787c1f98bc30787c1e98bc28787c1d98bc20787c1c98bc18787c1b98bc10787c1a98bb08787b1998ab38787b1798ab30787b1698ab28787b1598ab20787b1498ab18787b1398ab10787b1298aa08787a11989a38787a0f989a30787a0e989a28787a0d989a20787a0c989a18787a0b989a10787a0a98990878790998893878790798893078790698892878790598892078790498891878790398891078790298880878780182102082151882161095112832009511a07b10587b15507b16489515608411e06476828718828910828a0882886f776f996faa6f887b18187b1a107b19087b17491138491130491128491120481140208318831a20831b403309ff33070a09821738821830821928821a206f776f886f996faa7b6a187b69107b68087b679551a082105882155082164895116032009511a07b10587b15509515608411e08272827a08827b108277188283828908828c108288186f746fbb6faa6f276f826fcc6f996f387b17187b1a107b1b087b147b18387b19307b1c287b12208318831a203309ff330b2033070a109551a08210588215509511603200951160ff7b1098007b1590007b1688009515a0008411e082ab7b1b3882ab087b1b3082ab107b1b2882aa187b1a20829a7b1a18829a087b1a10829a107b1a088299187b1964865010066582186f888219086f99821a106faa821b186fbb7b1b587b1a507b19487b18408218206f888219286f99821a306faa821b386fbb7b1b787b1a707b19687b18608379836a8317403308020a07955160ff8210980082159000821688009511a00032008b7910520931c8780883881f8488e05638000001253309680002390a680002ae8a093d086800020133087000028377c887073200009511f07b10087b158475010a04013d076400025105075010080950100ad2029511a0fd951700027b70587b75507b7648951560028411e095170002491738491730491728491720831720020a1101951b000282b73082b83882b92882ba20d49808d4a707d487075207ad01390664000297672098772095771f8477e09578e000d87807951900027b987b970894777b97103307409518000249191850100ca9fc3307e000646850100e25ff8377646833090a020154165f6d014921d8014921d0014921c001e0009517e0019518c0014921c801501010c2228217e0017b17588217e8017b17488217f0017b17408217f8017b173049219801492190014921800100019517a001951880014921880150101287228217a0017b17508217a8017b17288217b0017b17208217b8017b171849215801492150014921400120019517600195184001492148015010144c22821760017b1738821768017b1710821770017b1708821678018217307b1738018217407b1730018217487b17280133078000951820018219587b192001501016b9fb8217187b1718018217207b1710018217287b1708013307a000951800018219507b19000150101890fb7b16f8008217087b17f0008217107b17e8003307c0009518e0008219387b19e00050101a6afb9517c00033084050101c24fa8217d8008218d0008219c8008216c000d49707d48609d47909989920d48707977720d4970751071e003308700002838833070128c6003308700002838833070128b9006467330850101e99fd8377330833090a029517a00033088000501020c3f98217b800330b9000037b1b588218b0008219a800821aa0003e07a800033e08a000033e099800033e0a900003951780003308a0005010228af9821798008218900082198800821a8000821b587bb7387bb8307bb9287bba209517603308c0005010245ff9821778821870821968821a60821b587bb7587bb8507bb9487bba40282af964673308501026f9fc8378330733093300280a0e280a33093300280a0e01951108f8951700077b70f0007b75e8007b76e0009515f807951198f88411e064169569ff0795993149296802492960024929500280003307409568ff07958881024929580250102a13fa33076400027b67b80039076400025517040728071d956700108377a0fa330833002c0a03019569ff0795993181978c025247c0e16e830a287717514723ada78d520c52473afc94a60a288c0f514739f9b6c3b80e51471720edf6c301514778de172ec6035147ab002537a702524756a5a64dd10d49298804492980044929780449297004956700108377a0fc0a1101956aff0795aa3195ab000482b7800082b8880082b97882ba70d49808d4a707d4870751070628221b8267b800817756172307281f1b956700108377c0fc33080433002e0a0301956bff0795bb3182b8a00482b7a804501230012b520a0628fe1a82b9980482ba9004956b00057bbaa0007bb9a8007bb8b0009568a0057bb7b8003307501032fdf84926980549269005492688053307209568800549268005501034e1f8390868000256183f0b200368000240019517e08479e07b69b80064913307700002837783993308403300360a0a330238280e2a5012380b2a95bc00047bcac8007bc9c0007bc8b8007bc7b000956760059568ff079588e10450103a76f9826778057b67b800826770057b67b000826768057b67a800826760057b67a0009567400533084050103c1ef7956b000582b75882b85082b94882ba40d49707d48a09d47909989920d48707977720d497075107062852168267a000956900057b97208267a8007b97288267b0007b9730956820058267b8007b973864a77b6ab80033009a0028faf74929e8064929e0064929d8064929d00695670010837700ff0a1101956aff0795aa3195ab000682b7e00082b8e80082b9d80082bad000d49808d4a707d48707510706285e198267b80081775617230728511995670010837720ff3308040a03019568ff07958831828700078288080714090000000001000000d37909d4890998772088770194879397520706281f199567ff079577610233084050103e23f6956aff0795aa3195ac000282cb4882c84082c93882c730d49b0bd48709d4b909989920d4b808978820d49808510806285015492a2802492a2002492a18029568ff0795884102492a10027b67b80033009a002806f74929680449296004492958044929500495670010837780fc0a1101956aff0795aa3195ab000482b76082b86882b95882ba50d49808d4a707d4870751070628ab188267b8008177330803ac780628a61850104025f53a08d800037b68b8003a08d000037b68b0003807e000037b67a80033077000037b67a00083773300420a058269a00033024428b9278269a000501244b2278269a800d398088269b000d39707d487078268b800d3a808d48707510706284c189567e0045010466d1e9567c00433084050104805f5956b000482bad80082b8d00082b9c80082b7c000d49a0ad48709d4a909989920d4a808978820d498085108062835144926b8044926b0044926a8049568a0044926a0047b67b80033009a0028eff54929a8024929a0024929980249299002956700108377c0fa0a1101956aff0795aa3195ab000282b7a00082b8a80082b9980082ba9000d49808d4a707d4870751070628ed178267b80081775617230728ea17956700108377e0fa3308040a039567ff07957731957900028298c8007b68a8008298c0007b68a0008298b8007b6898008297b0007b67b00050104ad4f333079000033a08d800037b6888003a08d000037b6880007b6790003807e000037b677833077000037b67b80083777b67700a05018267b800827208827b807c106f279878206fb9979a20d4a8089777206fca98aa20d4a707989920826a78d3a909826a8000d3a707d4970782698800d39808d48707510706283c177b6c607b62687b6b788267b0008268a000d487078268a80082699800d49808d48707520706285d1750104c2cf38267900082787b6888008278107b6880008277087b679000140700000000e3122a857b677804492670044926680433078000956860044926600450104e7bf48267a800956a00047ba7588267a0007ba750826798007ba74833078400956840048269b0007ba9405010504ef40a0b01826790006f77977820826980006f99989920d4890a987720826888006f88978920d497079889208268b8007b67387b8708330b6800027b6a487b8a7b69407a89109569ff079599314929e80239076800024929e0024929d8024929d0025627bf000d2003680002c000017b6b8000140b00000000240000004829f0022095980003491828ff491820ff491818ff491810ff8267b800977720987820140700000000080000007b688800d487079568ff0795880103978820988820330c7000029569ff0795994103979920d4890a7b6c900095c880009788209888209569ff0795992103979920d4890c7b6b50d48b0b3308ff3309ff0a01015107062873110a0d01330820ae87080a0d6478014916307b68587b68e0034926180449261004492608044926000480004926e8034926f003956700049568e0034926f803501052f219826a308ea78268585012547d2352090628bc179567c00333088000501056b0f1956b000382b7d00082b8d80082b9c80082bac000d49808d4a707d487075107062896178267703300580a0533025a28cb2350125ac82349269803956900037b9890007b978800956880037b9a8000330750105c95f2492678034926700349266803330720956860034926600350105e79f29517e08477e07b6758647182698000819756173f08480940019517e08479e07b693064918167900083993308407b67083300600a0a826a30330262282c24826a3050126226248268587b8a187b89107b8b087b87956740035010640ef38262580382635003826740037b6730826948037b69289518e08484e06441826c9800d3c90ad8c9088269b000d897077b6720daa7088267a000d8730b7b6b108260a8007b6218d30209d8020ada9b0ad37302d49209c9730bda980ac98b09d88b07826818c9080b826810c98b0bc97b0b826728c9c707826820c98707644c7bcb187bc9107bc7088267308268b000c987077bc7510a062897168267586448501066ecf20a0b8268b8008269687b89088269787b898269607a89109569ff079599318268a800959a00037ba8688268a0007ba860826898007ba8588268b0007ba850482970038e77fc089a787ba8a8007ba8a0007ba898007ba8900097772382688800d487079568ff07958881039788209888209569ff079599c103979920d4890a826b900097bb2098bb209568ff079588a103978820d4b80c3308ff3309ff0a017b6790000a0d018269900051070628720f510906284716956780023308405010687eef95680002828a9800828b9000828c880082878000d4ac09d4b708d49808988820d4b909979920d498085208b10e4926700249266802492660021409000000003182a070956860027b6978027b6790007b6a80007b6b787b6c6850106a5af082677033006c0a01826b900082678000826878d487071408fcffffff00000000d88b08826968949894785108520e50126ee62049265802956b00027bb8507bb948956840027bba405010700df00a0b8267388268b8007b87088267487b878267407a87109567ff079577314927e8034927e0034927d8034927d003330824826790005010725af27b6760330820826790005010744bf29568ff079588314828f00320492828044928200449281804492810041408000000001800000082698800d489029568ff07958801049788209888209569ff0795994104979920d4890a826860978820988820826b50d48b0b9777209877209568ff0795882104978820d4780c3308ff3309ff64270a010151070628e00f0a0d01330b20aeb7080a0d647b0182699000826a8000826778826868492680007b6b88007b6be001956b00027bb94926e8017bb8084926f0017bb7104926f801956700029568e0017bba18501076df15826a80008ea782688800501278681f5209062818159567c0018268900050107a9bed8267d8017b6788008267d0017b6780008267c8017b67788267c0017b67689567a00133084050107c71ed95670001827bb800827cb000827aa8008279a000d4ba07d4c908d47808988820d4c707977720d487075207a40c8267b0007b678001826798007b6788018267a0007b679001956880018267a8007b67980164977b6990007b6ab0007b6ba8007b6ca00050107e43ee8269900050228000ef1f51085b0c8397208268687b6860018268787b686801826880007b68700195686001826a88007b6a7801502082000bee826770330084000a058269b8003302860028761f8269b800502286006f1fd4780298aa206f99979820d4a808989920492638013a0a2000023a0b2800023a0c3000023a073800027b6a5801956a00017bab507bac487ba7407ba9307ba82833084095694001956a20017b622001826790005020880070ef330782680833090a0e28a3104929280549292005492918054929100595670010837740fd0a1101956aff0795aa3195ab000582b72082b82882b91882ba10d49808d4a707d48707510706282d108267b80081775617230728291095670010837760fd33080433008a000a0301956bff0795bb3182b8400582b7480550228c00ea1e520a0628051082b9380582ba3005956b00067bbac0007bb9c8007bb8d0009568c0067bb7d800330750208e00e5ec4926b8064926b0064926a8063307209568a0064926a00650209000c8ec390868000256183f0b200368000240019517e08479e07b69b8006491330770000283778399330840330092000a0a3302940028f21d50229400ef1d95bc00057bca687bc9607bc8587bc750956780069568ff0795888105502096005ded826798067b67b800826790067b67b000826788067b67a800826780067b67a000956760063308405020980004eb956b000682b77882b87082b96882ba60d49707d48a09d47909989920d48707977720d4970752073a0a8267a000956900067b97408267a8007b97488267b0007b9750956840068267b8007b975864a77b6ab80050209a00e5eb3308208267b80033003a01285bee524767b5e35fd50e4929e8044929e0044929d8044929d00495670010837700fd0a1101956aff0795aa3195ab000482b7e00082b8e80082b9d80082bad000d49808d4a707d487075207b70e8267b8008177541703bd0e9567e00533084050209c003aea956800058287f8007b67b8008287f0007b67b0008287e8007b67a0008287e0007b67a80050209e00bce95022a0002f1c520765093a09b000033a08b800033807c000034926d805956b00057bb7d0007bb8c8009568c0057bb9c00064a733003801280deb4929c8064929c0064929b8064929b006956700108377e0fe0a1101956aff0795aa3195ab000682b7c00082b8c80082b9b80082bab000d49808d4a707d487075207740c8267b80081775417036a0c9567ff07957721023308405020a20077e99567ff07957731827808027b68b800827800027b68b0008278f8017b68a0008277f0017b67a8005020a400f6e85022a600691b52079f083a099000033a089800033807a00003956bff0795bb31492be80195bc00017bc7e0007bc8d8009568ff07958801027bc9d00064a733003801283cea8267b8008177541723800d956700108377a0fd3308040a039567ff0795773195790005829888007b68b000829880007b68a8008298787b68a0008297707b6798005020a8006ae833079000033a08d800037b6880003a08d000037b68787b6788003807e000037b677033077000037b67b80083777b6790003300aa000a058269b8003302ac0028f01a8269b8005022ac00e91a826970d39808826978d39707d4870782688000d3a808d487075207ea0c9567ff079577314927a8054927a0054927980549279005956700108377c0fd0a11019569ff07959931959a000582a7a80082a898008292900582a9a0008263b000d33707826aa000d3a808d48707826ca800d3c908826b9800d3b209d49808d487075207d80c64c9d4cb07d43a08d4870751071b0d5020ae0086e7826988008297088298105022b0009a1a8267b8007b68787a78107b69707b79087b6a80007b7a826790000a06015107330d9567ff079577a1013308405020b20098e79569ff079599318292880195980001828b8000828c78828770d42c0ad4b708d4a808988820d4ba0a97aa20d4a8085208c5067b6c507b6b587b6260492960014929580149295001140a000000008bc549129568ff07958881017b9a68017b6788005020b4006be80a0b8268b8008267707b8708826780007b878267787a87108267b0009568ff07958831958900057b97c8008267a8007b97c0008267a0007b97b800826798007b97b000330804826788005020b600a2ea7b67688267880033085020b80093ea9569ff079599314829d00549290806ff49290006ff4929f805ff4929f005ff8268b800978820988a20140900000000080000007b6a48d49a029569ff079599e105979920989920956aff0795aa210697aa20d49a0a82696897992098992014080000000004000000d4890b9777209877209568ff0795880106978820d4780c3308ff3309ff64270a010152075a079567ff0795773149270801492700014927f8004927f00082688800957900017b98108268507b98188268587b9820647a9567ff07957741019568ff07958821018269607ba928015020ba00190e826790003300bc000a053302be002831185022be002e189569ff079599314929e8007b98e0007b97d8009568ff07958801017b9ad00033075020c000f3e69569ff079599314929c8004929c0004929b8003307209568ff079588e1004929b0005020c200cbe69517e08477e07b678800647133084033075020c4003be99518e08488e07b68686481837783893308403300c6000a0a826a683302c800288218826a685022c8007c18826888007b8a187b89107b8b087b879567ff079577c1005020ca005ee79568ff079588318284a8008287a000828b9000828c98009518e08488e06481826aa000c8ca0a82629800c8b202d8b20bc8ba0ad3ca03d8ca09da3b09826ba800c87b0bc89b0cd8bc038260b000c84000d87b0bc80b0bc83b00d87c03d3040bd84004dab304d3c707d4b707da79047b8c107b8a087b827b80185204c20b826788005020cc0058e79567ff079577a1003308405020ce009ae49569ff0795993182928800829c8000829b78829770d42b0ad4c708d4a808988820d4ca0a97aa20d4a8085208cb03491960491958491950140a000000003182a0709568ff07958881007b9a687b6788007b62687b6c607b6b585020d00075e5826790003300d2000a01826b8800826768826860d487071408fcffffff00000000d88b088269589498947851086b035022d400ff15956cff0795cc31491c487bc8407bc9389568ff079588617bca305020d60020e50a0b8267708268b8007b8708826780007b878267787a87109567ff0795773149274806492740064927380649273006330824826788005020d8006be77b678000330820826788005020da005ae764789567ff0795773148275006204927880649278006492778064927700614070000000018000000826948d497079569ff0795996106979920989920956aff0795aaa10697aa20d49a0a82698000979920989920140b0000000024000000d49b0b9788209888209569ff0795998106979920d4890c3308ff3309ff0a010152076e050a0d01330c20aec7080a0d647c019569ff07959931826a88008262688267608268584916787b6c8000956300107b3c00f8956c00107bca20f8956a0010492a08f8956a00107ba828f895680010492810f87b9795670010492718f89567ff079577219568ff079588017b92085020dc00c70a826a788ea7826880005022de00501451090c0a9567e007826888005020e00084e28267f8077b6780008267f0077b67788267e8077b67708267e0077b67689567c0073308405020e2005ae295670007827bd800827cd000827ac8008279c000d4ba07d4c908d47808988820d4c707977720d4870752078c01826798007b67a0078267a0007b67a8078267a8007b67b0079568a0078267b0007b67b80764977b6988007b6ab0007b6ba8007b6ca0005020e4002be3826988005022e600d614510842018397208268687b6880078268707b6888078268787b68900795688007826a80007b6a98075020e800f3e2826790003300ea000a058269b8003302ec00285d148269b8005022ec005614d4780298aa206f99979820d4a808989920492658073a0a0000023a0b0800023a0c1000023a071800027b6a7807956a00077bab707bac687ba7607ba9507ba84833084095696007956a40077b624007826788005020ee0057e4330733085020f000f8e48378330733090a0e28810549290805492900054929f8044929f00495670010837720fd0a1101956aff0795aa3182a7000582a8080582a9f80482aaf004d49808d4a707d48707520788068267b80081775417038f06956720063308405020f200d5e0956800068287387b67b8008287307b67b0008287287b67a0008287207b67a8005020f4005be05022f600ce125107620600956720043308405020f80097e0956800048287387b67b0008287307b67a8008287287b67a0008287207b67b8003300fa000a0d3302fc002839125022fc0036125208bf64799877205207b75022fe009513502000010ee49568ff079588318269a8007a893003837795680010838860fb33090a0c9567ff079577318177300328c4010a0d7b6758956720033308405020020110e0826c38037b6c60826230037b6230826328037b6368826420037b647882685895871fd887088477e0957920d87907c8780ad88a0bda770b4926f8027b69e0027b6c18037b6210037b6308037b6400037b6ae802956700039568e0027b6bf00250200401cd07826778826860826968d48909826a30d4a708d49808988820d4a909979920d498085208e5fe4926d8024926d0024926c8029568c0028269587b69c00250200601a3e00a0d01826a78826860826930d498081409e0ffffff00000000d89a09826b6894b994895109a1fe6478987720520798fe83a72064897b686883887b6878649850200801e5e29568ff079588318269687a89b0038377956800108388e0fb33090a0c019567ff079577318177b00382699000826878ac8750fe2860ef9567ff079577610133084050200a01ddde9567ff07957731957900018298487b68b0008298407b68a8008298387b68a0008297307b67b80033000c010a0d33020e0128781050220e0175105208fefd64799877205207f5fd50221001d211502012014be29568ff079588318269a8007a891006837795680010838840fe33090a0c9567ff0795773181771006018268b000ac87b8fd0a0d0164789877205207acfd8267b8007b68b0005020140100e283788169b0003307010a0e283904956720023308405020160124de956800028287387b67b0008287307b67a8008287287b67a0008287207b67b800330018010a0d33021a0128c60f50221a01c30f52084cfd6479987720520743fd50221c01201150201e0199e19568ff079588318269a8007a893004837795680010838860fc33090a0c9567ff0795773181773004284fff9567ff07957741330840502020019ddd9567ff079577318278287b68b0008278207b68a8008278187b68a0008277107b67b800330022010a0d33022401283c0f50222401390f5208c2fc64799877205207b9fc502226019610502028010fe19568ff079588318269a8007a8990068377956800108388c0fe33090a0c9567ff079577318177900628c5fe3307330833002a0128d6e0330850202a01d1e0837833070133090a0e2859013308700002838828470133087000028388283d01330870000283882833013308700002838828290133087000028388281f0149261005492608054926000514070000000004a09fc3956800057b671805330750202c01e6dd390868000256181f1420036800022033087000028388281302330870000283882809023308700002838828cc003308700002838828c20049269004492688044926800414070000000004a09fc3956880047b679804330750202e0189dd390868000256181f142003680002203308700002838828b6013308700002838828ac014926d0004926c8004926c000140700000000c611522c9568c0007b67d80033075020300140dd390868000256181f1420036800022033087000028388286d013308700002838828630133087000028388282633087000028388281d3308700002838828148267b800817701510713330870000283880133070133090a0e0133087000028388330733090a0e28f33308700002838833070133090a0e28e33308700002838833070133090a0e28d33308700002838833070133090a0e28c39569ff079599314929c0014929b80114070000000004a09fc37b97c8019568ff079588e1014929b00133075020320178dc390868000256181f142003680002203308700002838828a50033087000028388289b009569ff079599314929a00149299801140700000000c611522c7b97a8019568ff079588c1014929900133075020340124dc390868000256181f132003680002203308700002838828513308700002838828484926f0064926e8064926e006140700000000c611522c9568e0067b67f806330750203601dddb390868000256181f1320036800022033087000028388280a33087000028388013307013309040a0e013308700002838833070133090a0e28befe3308700002838833070133090a0e28adfe3308700002838833070133090a0e289cfe3a09d000033a08d800033807e0000349261806956b00067bb7107bb808956800067bb964a75020380156db3308208267a80050203a01d0dd837833092033070a0e01816890003307010a0e014926b0034926a8034926a003140700000000c20512bb9568a0037b67b803330750203c010fdb82678000817756171f128268800048082081689000283dff816890002836ff492610014926080149260001140700000000717b484e956800017b671801330750203e01cada4926f8004926f0004926e000113307049568e0004926e80050204001acda82678000817756173f18826880004808403307013309248268080a0e285f3307013309248268080a0e28524926b0024926a8024926a002140700000000c20512bb9568a0027b67b8023307502042015bda82678000817756171f18826880004808203307013309048268080a0e280e3307013309048268080a0e01492630074926280749262007140700000000717b484e956820077b6738073307502044010bda49261807492610074926000711330704956800074926080750204601edd933082433075020480169dc83783307013309240a0e3307018268080a0e289f3307018268080a0e2895330870000283883307010a0e2883fe9511c07b10387b15307b16289515408411f0828910828a18828b088288d4ba0ad4980bd4ab0b98bb20d4a909979920d4b9095209516476641750204a013cd882171082181814090000000001000000d37909d48909987a2088aa01948a939a510a258219821a087b697b6a087b67107b68189551c082103882153082162895114032000033087000028388330701330933004c010a0e01951170ff7b1088007b1580007b1678951590008411f064728289827408828c088273959a1fd89a00c80c0984aae07b1308c8a303d8a30bc8490ac8ba0ad39a06d89a07da6b07822b18d8c90c828610822210828818da000cc86c0cd86c06c82c09c89707d8c90cd89709c8b808c86808c8c808c8980c8ec88e79dbc809d4c7088ea6db8906520657821808d88308d34a09d84a06da9806d82708d3bc09d8bc0bda980bd32708d49808da860b520b307b13507b1a587b17603307409518507b1c6850204e0157d8955170ff8210880082158000821678951190003200491140491138491130140700000000717b484e9518307b174833075020500121d8491128491120491110413307049518104911185020520108d8390868000256183f0b2003680002400133087000028388330701330924330054010a0e019511c0fb951800047b80387b85307b8628951540048411e07b17209517a0033308405020560182d6951b000382b7b8007b17c80082b6b00082b8a8007b18c00082b9a0007b19d000491b78491b70491b68491b60407bb798007bb690007bb8880095178003951860037bb980005020580159fe8217d0008219c8008218c000d48909d46708d498089888207b16a800d46909979920d498085208390795190003491958491950491948330601951840037b964050205a012bd78219d0008218c8008217a800d487079766209566e0d86908821ac00094a894785108f80639076400027b17b8009597203308207b17d800649650205c0173d983773308208219b8000a0295172003646850205e019bd5951b000382b73082b83882b92882ba20d49808d4a707d487075107aa065020600124d533069000033a079000033a089800033809a00003951a0003491a187ba9107ba808951800037ba78217d8005020620181d650206401edd48267288268308269206f77977a206f88988820d48a0a9877206f983306700003978920d497079888207b18103d088000037b17083e077800037b1a183e0a70000383677b17280a0601510784067b16309517e00233084050206601e4d4951a000282a9f80082a6f00082a8e80082a7e0007b18407b1938d48909d46708d49808988820d46909979920d498085208dc05951a0002492ad000492ac800492ac000140900000000ae3245749518c0027ba9d8007b174850206801c0d58218487b1678821a38d46a0a140600000000010000001407fcffffff00000000d8780782194094977b1ab80094a751077f05838704951900024929b8004929b0004929a8009518a0024929a00050206a016dd582172833006c010a01821b489567dcd87b0782184094878218b800948751073d0582193082970881981050226e01d30683b724951b0002492b98007bb890007bb98800951880027bba8000502070011cd5821848140600000000010000007b16b0001407bcffffff00000000d8780782194094978219b80094975107e00483874495190002491978491970491960609518600249196850207201d1d4951740028216d00064685020740187d38219488217b00095779cd879078218409487821ab80094a7510796048217d800d867078218c000c8780a7b1ab000d88a08da77088217a800c88706d876078218c800c887077b17b800821a580282185002821b4802821c40021407ffffffff000000007b17508397647b1c58951900027b9c207b1b607b9b287b18687b9830951820027b1a707b9a385020760132d4646b8210b000330c330a33023303821848958784007b17d000d88707821640c876087b18c000d86806da7706821478c846067b16a800d84607821838c887077b17c80001821758d87c07821960d39a087b1aa000d89a09da8709821668d86207821a70d3a3087b139800d8a30ada870ad36207d48707da790a510a3a017b1280007b1c88008219d800d4b9077b10b0008218b800d48008d487079877207b1b9000d4b808978820d4870752077503951740017b19d8006498502078013ad28217d0008216a800d467098218c800821ac000d4a808d48909989920d46808978820d4980852083c03821b50018218480182194001821a50d2ab0b8488ff8499ff492138017b1920017b182801951820017b1b30017b17d00050207a0115d38217d000957220d872098217c000c89704d8740ada990ac8a600d860098217c800c897077b17c8008217d800957920d8790b8217b000c8b708d87806dabb0682179000c8670bd87b068217b800c867077b17b800821c880095cc0188c601821aa000c86a0ad4ac0688660182178000c87606d8760782139800c873037b12d0007b14c0007b10a8007b19d800648064628214782894fe8217488212d000d872038216408218c000d3680ad86809daa309821aa800c94a0cd84a04821bc800821a38c9ab0bc94b0bd89c0ac9ab0b7b1bd800c99c0c7b1cc800c96808c938087b18c000c972060a0b017b17d0008218308217087b87088217187b878217107a8710951b0003492bd800330c492bd000492bc8008219c800d496078218d800821ac000d4a808d48707987720d49808978820d48707492bc0005207cb0183677b17c80064687b16b800821648646750207c014ad47b17d8006467330850207e013cd44821e0038218c8008e88821ad0008ea9fc08d498089a89951a00047ba9187ba9107ba9087ba9821930979920989920978823d498029518c00397882098882095190004979920d4890a8218d800978820988820821bb80097bb20d48b0b9777209877209518e003978820d4780c3308ff3309ff64270a0101520703014921f8014921f0014921e8014921e001821748951a00027ba78217407ba7088217787ba710951700029518e0018219387ba91850208001e8f79517c00133084050208201b9cf8217d8018218d0018219c8018216c001d49707d48609d47909989920d48707977720d497075207bb004921b8014921b0014921a8019518a0014921a001646750208401aed0821728330086010a0582193033028801281a02821930502288011402d4780298aa206f98978920d4a909988820492178013a0a4000023a0b4800023a0c5000023a075800027b1a98017b1b90017b1c88017b1780017b1870017b19680133082095198001951a60017b126001646750208a0116d2821720330849171849171049170849079551c0fb9517000482703882753082762895114004320000492110014921080149210001140700000000717b484e951800017b171801330750208c01eccf4921f8004921f0004921e000323307049518e0004921e80050208e01cecf390868000256183f0b20036800024001330870000283883307013309240a0e013308700002838833070133090a0e3307330090012850d23307502090014bd23307015020920142d2888820858801dba7088ea78ea9daa709d4aa07da780932028268b0008269a000d49808826aa8008269b800d4a909d48909989920d4a808978820d4980832028269b80082970881981082996f77977a206f88988820d48a0a9877206f98978920d4790998882083b70432028267b8008268a000d487078268a800648a8269b000d49808d47808988820d49707977720d4870732028269b80082970881981082996f77977a206f88988820d48a0a9877206f98978920d49707988820320282970882988199106f77987a206f88978b20d4ba0a9777206f99989920d497079888203202826ab80082a71882a81082a90882aa6f776f886f996faa956bff0795bb31320282970881981082996f7a97a7206f88988820320282996f77977a206f88988820d48a0a9877206f98978920d4790998882032028267a8008268a000d487071408e0ffffff00000000d88908826ab00094a89478320214090000000001000000d38909d47909988a2088aa01947a939a320282a71882a81082a90882aa6f776f8b6f996faa320283977b67b0008267b80064987b69a8003202490a21a11a4292d210a1925429a42449922449922449922449922449922449922449922449922449922449922449aa9294529294942454a5242549922449922449922449922449922449922449922449499294a4aa24254994a492a42a494992922425294955559292a42495244544444a92242549525129a5244929a524a9a488882849128490309426a521112292442249a2912449222449244a492444a16a880822224422914844101121128944228288089148241289444422241289884488442222112221222249926428092515aa22428444440821448488882449222449922415aa5469444444a44844908808214224a234128104041210101010101111d1484424499228129134121192888888884244242284082651a8a424444444448488888888488824499224494422918814918888884622222249124522d2484400495249444224922449922411111111898888682492244912250921428408518a2442249248920891101111499224898888884444443412111149922812912211111111114288101112a234524a494a92441249922422114912a2482402888888081189442222a151a224519248424a22112222044600212222220920129184882422894892a449939a44440411111152421211222222499294848888884244242224298a4c5294a42409495284884824299248124924499224499224294922252914494a2211894422114544241291442491442449d148924888888824491211114044441292239200928a1091444289a42412119108498448888808201291442449922422496ad2a4462411114522119110454822424444241209111191244922222222228a88081144128988880812452482a424114208114992444404a5121111d148244992248a44241a890892888888888288484410229844a11245824892880822222222224124499224898844221129824424202222a29188884812518804111111111104114288888828121111d148444424892844248844444444044184102211111151240a11291211118944104284444888228a480449924822121111d148444444228944922849049104912451342212442222499224912422028888088a244a22121111119108120591082184480248229288244900492292a446242222224952444422882812442222220a221191880892280549aa44892488244504918888a448244912492249922449522282880491882449924492002212498288234900494510491249502251128988480491088a8488880092882422892480241149d2685223912411111111115144249220451011414424128904111191244922222222228a880822882412898808228a480449492284102292248988082aa84a44444423111149220a912012894422086224884422918822414a8220125144452225124422914892244922222222228224499224111191089a2401241525524a412451448d4424129120128944221145822811049188222a12235a222228522241241289441409a2441044228aa848249220924824125124881241108928a222918a14944a28a184124a2811114044418820945042092522028828081184124a44041051102208259450a14245139a1aaa0aa50aa50aa58a44041011511022082594484400111105218250a122228088821041a8d0a4a15442a98452092144245141222835d2880820a2208a482412110144144484440451449254928a8800220aa28824a9248d8800220a224222821494945452a1942449929424495241124092544a4992240da568442452494992244992244992244952494992244992244992202212250920294822491022184aa21149228904111111114922222222888824892411491209222249a222441205258a82489224118410422489220892949214922424249446224144442449922422220288489024010490144522222282c4495214498244444404092002488a2291442488284824298a48249248221111114092489244121455894812491249629244922491248988484492481211051189489224222249222222824822491289482249249188249244128988a824914492482249128924d24892928822221149924414450aa2828822522429491249249144924492d4888848942411491009222292244944444441a244122425891042888888484414a424452489464400110511211141886028692855a42041924a524422922429924a494a92221245922445522949494a2925294991a4aa4849a5542949498a4800892a8024a9925455114500"},"methodIdentifiers":{"claimRewards()":"372500ab","comptroller()":"5fe3b567","getPendingRewards(address)":"f6ed2017","getStakedAmount(address)":"4da6a556","habitTracker()":"836ee1c0","mToken()":"c3b6f939","stake(uint256)":"a694fc3a","unstake(uint256)":"2e17de78","userStakes(address)":"8da7ad23"}},"hash":"d07156ccde0f3f10c1a0c35002c7ef127a94864aa8c7385688c43994691883ca","factoryDependencies":{}}}}