{"contracts/HabitSettler.sol":{"HabitSettler":{"abi":[{"inputs":[{"internalType":"address","name":"_habitTracker","type":"address"}],"stateMutability":"nonpayable","type":"constructor"},{"inputs":[],"name":"CannotSettleCurrentDay","type":"error"},{"inputs":[],"name":"InvalidBatchSize","type":"error"},{"inputs":[{"internalType":"address","name":"user","type":"address"},{"internalType":"uint64","name":"startEpoch","type":"uint64"},{"internalType":"uint32","name":"maxSettlements","type":"uint32"}],"name":"forceSettleAllEpochs","outputs":[{"internalType":"uint32","name":"settledCount","type":"uint32"}],"stateMutability":"nonpayable","type":"function"},{"inputs":[{"internalType":"address","name":"user","type":"address"},{"internalType":"uint64","name":"epoch","type":"uint64"},{"internalType":"uint32","name":"maxCount","type":"uint32"}],"name":"forceSettleDay","outputs":[{"internalType":"uint32","name":"settledCount","type":"uint32"}],"stateMutability":"nonpayable","type":"function"},{"inputs":[],"name":"habitTracker","outputs":[{"internalType":"contract IHabitTracker","name":"","type":"address"}],"stateMutability":"view","type":"function"},{"inputs":[{"internalType":"address","name":"user","type":"address"},{"internalType":"uint64","name":"epoch","type":"uint64"},{"internalType":"uint32","name":"maxCount","type":"uint32"}],"name":"settleAll","outputs":[{"internalType":"uint32","name":"settledCount","type":"uint32"}],"stateMutability":"nonpayable","type":"function"},{"inputs":[{"internalType":"address","name":"user","type":"address"},{"internalType":"uint64[]","name":"epochs","type":"uint64[]"},{"internalType":"uint32[]","name":"habitIds","type":"uint32[]"}],"name":"settleBatch","outputs":[{"internalType":"uint32","name":"settledCount","type":"uint32"}],"stateMutability":"nonpayable","type":"function"}],"evm":{"assembly":"// RO data = 0/0 bytes\n// RW data = 4/65616 bytes\n// Stack size = 32768 bytes\n\n// Instructions = 6780\n// Code size = 23613 bytes\n\n      : @0 (gas: 7)\n     0: sp = sp + 0xffffffffffffffe8\n     3: u64 [sp + 0x10] = ra\n     6: u64 [sp + 0x8] = s0\n     9: u64 [sp] = s1\n    11: s1 = 0x20000\n    16: s0 = i32 [0x20000]\n    21: jump @3 if s0 == 0\n      : @1 (gas: 5)\n    24: a0 = 0x30030\n    29: i32 a0 = a0 + 0\n    31: i32 a1 = s1 + 0\n    33: ecalli 5 // 'get_immutable_data'\n    35: fallthrough\n      : @2 (gas: 3)\n    36: a0 = i32 [0x20000]\n    41: u32 [0x20000] = 0\n    46: jump @4 if a0 <u s0\n      : @3 (gas: 5)\n    49: ra = u64 [sp + 0x10]\n    52: s0 = u64 [sp + 0x8]\n    55: s1 = u64 [sp]\n    57: sp = sp + 0x18\n    60: ret\n      : @4 (gas: 1)\n    62: trap\n      : @5 (gas: 2)\n    63: a1 = i32 [0x20000]\n    68: jump @39 if a1 == 0\n      : @6 (gas: 4)\n    72: a0 = 0x30030\n    77: i32 a0 = a0 + 0\n    79: ecalli 10 // 'set_immutable_data'\n    81: jump @39\n      : @7 (gas: 8)\n    84: sp = sp + 0xfffffffffffffff0\n    87: u64 [sp + 0x8] = ra\n    90: u64 [sp] = s0\n    92: a2 = a1\n    94: s0 = a0\n    96: a1 = 0x20\n    99: a0 = a2\n   101: ra = 2, jump @11\n      : @8 [@dyn 1] (gas: 100)\n   106: a1 = u8 [a0 + 0x1]\n   109: a2 = u8 [a0]\n   111: a3 = u8 [a0 + 0x2]\n   114: a4 = u8 [a0 + 0x3]\n   117: a1 = a1 << 0x8\n   120: a1 = a1 | a2\n   123: a3 = a3 << 0x10\n   126: a4 = a4 << 0x18\n   129: a3 = a3 | a4\n   132: a1 = a1 | a3\n   135: a2 = u8 [a0 + 0x5]\n   138: a3 = u8 [a0 + 0x4]\n   141: a4 = u8 [a0 + 0x6]\n   144: a5 = u8 [a0 + 0x7]\n   147: a2 = a2 << 0x8\n   150: a2 = a2 | a3\n   153: a4 = a4 << 0x10\n   156: a5 = a5 << 0x18\n   159: a4 = a4 | a5\n   162: a2 = a2 | a4\n   165: a2 = a2 << 0x20\n   168: t0 = a2 | a1\n   171: a2 = u8 [a0 + 0x9]\n   174: a3 = u8 [a0 + 0x8]\n   177: a4 = u8 [a0 + 0xa]\n   180: a5 = u8 [a0 + 0xb]\n   183: a2 = a2 << 0x8\n   186: a2 = a2 | a3\n   189: a4 = a4 << 0x10\n   192: a5 = a5 << 0x18\n   195: a4 = a4 | a5\n   198: a2 = a2 | a4\n   201: a3 = u8 [a0 + 0xd]\n   204: a4 = u8 [a0 + 0xc]\n   207: a5 = u8 [a0 + 0xe]\n   210: a1 = u8 [a0 + 0xf]\n   213: a3 = a3 << 0x8\n   216: a3 = a3 | a4\n   219: a5 = a5 << 0x10\n   222: a1 = a1 << 0x18\n   225: a1 = a1 | a5\n   228: a1 = a1 | a3\n   231: a1 = a1 << 0x20\n   234: t1 = a1 | a2\n   237: a1 = u8 [a0 + 0x11]\n   240: a3 = u8 [a0 + 0x10]\n   243: a4 = u8 [a0 + 0x12]\n   246: a5 = u8 [a0 + 0x13]\n   249: a1 = a1 << 0x8\n   252: a1 = a1 | a3\n   255: a4 = a4 << 0x10\n   258: a5 = a5 << 0x18\n   261: a4 = a4 | a5\n   264: a1 = a1 | a4\n   267: a3 = u8 [a0 + 0x15]\n   270: a4 = u8 [a0 + 0x14]\n   273: a5 = u8 [a0 + 0x16]\n   276: a2 = u8 [a0 + 0x17]\n   279: a3 = a3 << 0x8\n   282: a3 = a3 | a4\n   285: a5 = a5 << 0x10\n   288: a2 = a2 << 0x18\n   291: a2 = a2 | a5\n   294: a2 = a2 | a3\n   297: a2 = a2 << 0x20\n   300: a3 = a2 | a1\n   303: a1 = u8 [a0 + 0x19]\n   306: a2 = u8 [a0 + 0x18]\n   309: a4 = u8 [a0 + 0x1a]\n   312: a5 = u8 [a0 + 0x1b]\n   315: a1 = a1 << 0x8\n   318: a1 = a1 | a2\n   321: a4 = a4 << 0x10\n   324: a5 = a5 << 0x18\n   327: a4 = a4 | a5\n   330: a1 = a1 | a4\n   333: a2 = u8 [a0 + 0x1d]\n   336: a4 = u8 [a0 + 0x1c]\n   339: a5 = u8 [a0 + 0x1e]\n   342: a0 = u8 [a0 + 0x1f]\n   345: a2 = a2 << 0x8\n   348: a2 = a2 | a4\n   351: a5 = a5 << 0x10\n   354: a0 = a0 << 0x18\n   357: a0 = a0 | a5\n   360: a0 = a0 | a2\n   363: a0 = a0 << 0x20\n   366: a0 = a0 | a1\n   369: a0 = reverse a0\n   371: a1 = reverse a3\n   373: a2 = reverse t1\n   375: a3 = reverse t0\n   377: u64 [s0 + 0x18] = a3\n   380: u64 [s0 + 0x10] = a2\n   383: u64 [s0 + 0x8] = a1\n   386: u64 [s0] = a0\n   388: ra = u64 [sp + 0x8]\n   391: s0 = u64 [sp]\n   393: sp = sp + 0x10\n   396: ret\n      : @9 (gas: 12)\n   398: sp = sp + 0xffffffffffffffd8\n   401: u64 [sp + 0x20] = ra\n   404: u64 [sp + 0x18] = s0\n   407: u64 [sp + 0x10] = s1\n   410: a2 = u64 [a1]\n   412: u64 [sp + 0x8] = a2\n   415: a2 = u64 [a1 + 0x8]\n   418: u64 [sp] = a2\n   420: s0 = u64 [a1 + 0x10]\n   423: s1 = u64 [a1 + 0x18]\n   426: a1 = 0x20\n   429: ra = 4, jump @11\n      : @10 [@dyn 2] (gas: 71)\n   434: a1 = reverse s1\n   436: a2 = reverse s0\n   438: a3 = u64 [sp]\n   440: a3 = reverse a3\n   442: a4 = u64 [sp + 0x8]\n   445: a4 = reverse a4\n   447: u8 [a0 + 0x18] = a4\n   450: u8 [a0 + 0x10] = a3\n   453: u8 [a0 + 0x8] = a2\n   456: u8 [a0] = a1\n   458: a5 = a4 >> 0x38\n   461: u8 [a0 + 0x1f] = a5\n   464: a5 = a4 >> 0x30\n   467: u8 [a0 + 0x1e] = a5\n   470: a5 = a4 >> 0x28\n   473: u8 [a0 + 0x1d] = a5\n   476: a5 = a4 >> 0x20\n   479: u8 [a0 + 0x1c] = a5\n   482: a5 = a4 >> 0x18\n   485: u8 [a0 + 0x1b] = a5\n   488: a5 = a4 >> 0x10\n   491: u8 [a0 + 0x1a] = a5\n   494: a4 = a4 >> 0x8\n   497: u8 [a0 + 0x19] = a4\n   500: a4 = a3 >> 0x38\n   503: u8 [a0 + 0x17] = a4\n   506: a4 = a3 >> 0x30\n   509: u8 [a0 + 0x16] = a4\n   512: a4 = a3 >> 0x28\n   515: u8 [a0 + 0x15] = a4\n   518: a4 = a3 >> 0x20\n   521: u8 [a0 + 0x14] = a4\n   524: a4 = a3 >> 0x18\n   527: u8 [a0 + 0x13] = a4\n   530: a4 = a3 >> 0x10\n   533: u8 [a0 + 0x12] = a4\n   536: a3 = a3 >> 0x8\n   539: u8 [a0 + 0x11] = a3\n   542: a3 = a2 >> 0x38\n   545: u8 [a0 + 0xf] = a3\n   548: a3 = a2 >> 0x30\n   551: u8 [a0 + 0xe] = a3\n   554: a3 = a2 >> 0x28\n   557: u8 [a0 + 0xd] = a3\n   560: a3 = a2 >> 0x20\n   563: u8 [a0 + 0xc] = a3\n   566: a3 = a2 >> 0x18\n   569: u8 [a0 + 0xb] = a3\n   572: a3 = a2 >> 0x10\n   575: u8 [a0 + 0xa] = a3\n   578: a2 = a2 >> 0x8\n   581: u8 [a0 + 0x9] = a2\n   584: a2 = a1 >> 0x38\n   587: u8 [a0 + 0x7] = a2\n   590: a2 = a1 >> 0x30\n   593: u8 [a0 + 0x6] = a2\n   596: a2 = a1 >> 0x28\n   599: u8 [a0 + 0x5] = a2\n   602: a2 = a1 >> 0x20\n   605: u8 [a0 + 0x4] = a2\n   608: a2 = a1 >> 0x18\n   611: u8 [a0 + 0x3] = a2\n   614: a2 = a1 >> 0x10\n   617: u8 [a0 + 0x2] = a2\n   620: a1 = a1 >> 0x8\n   623: u8 [a0 + 0x1] = a1\n   626: ra = u64 [sp + 0x20]\n   629: s0 = u64 [sp + 0x18]\n   632: s1 = u64 [sp + 0x10]\n   635: sp = sp + 0x28\n   638: ret\n      : @11 (gas: 2)\n   640: i32 a2 = a0 >> 0x10\n   643: jump @16 if a2 != 0\n      : @12 (gas: 4)\n   646: a1 = a1 + a0\n   649: i32 a1 = a1 + 0x1f\n   652: a1 = a1 & 0xffffffffffffffe0\n   655: jump @16 if a1 >u 65536\n      : @13 (gas: 3)\n   661: a2 = 0x20008\n   666: a3 = i32 [0x20008]\n   671: jump @15 if a3 >=u a1\n      : @14 (gas: 2)\n   674: u32 [0x20008] = a1\n   679: fallthrough\n      : @15 (gas: 4)\n   680: a1 = 0x20010\n   685: i32 a0 = a0 + 0\n   687: a0 = a0 + a1\n   690: ret\n      : @16 (gas: 1)\n   692: trap\n      : @17 (gas: 6)\n   693: sp = sp + 0xfffffffffffffff0\n   696: u64 [sp + 0x8] = ra\n   699: u64 [sp] = s0\n   701: s0 = a0 & 0x1\n   704: ecalli 3 // 'call_data_size'\n   706: fallthrough\n      : @18 (gas: 2)\n   707: u32 [0x20004] = a0\n   712: jump @20 if s0 == 0\n      : @19 (gas: 1)\n   715: ra = 6, jump @21\n      : @20 [@dyn 3] (gas: 1)\n   719: ra = 8, jump @42\n      : @21 [@dyn 4] (gas: 13)\n   724: sp = sp + 0xffffffffffffff20\n   728: u64 [sp + 0xd8] = ra\n   732: u64 [sp + 0xd0] = s0\n   736: u64 [sp + 0xc8] = s1\n   740: s0 = sp + 0xe0\n   744: sp = sp & 0xffffffffffffffe0\n   747: u64 [sp + 184] = 0\n   751: u64 [sp + 176] = 0\n   755: u64 [sp + 168] = 0\n   759: u64 [sp + 160] = 0\n   763: i32 a0 = sp + 0xa0\n   767: ecalli 11 // 'value_transferred'\n   769: fallthrough\n      : @22 (gas: 8)\n   770: a0 = u64 [sp + 0xb0]\n   774: a1 = u64 [sp + 0xb8]\n   778: a2 = u64 [sp + 0xa8]\n   782: a3 = u64 [sp + 0xa0]\n   786: a1 = a1 | a2\n   789: a0 = a0 | a3\n   792: a0 = a0 | a1\n   795: jump @33 if a0 != 0\n      : @23 (gas: 15)\n   799: s1 = i32 [0x20004]\n   804: a0 = s1 << 0x20\n   807: a0 = a0 >> 0x20\n   810: a0 = a0 + 0x1f\n   813: a0 = a0 & 0xffffffffffffffe0\n   816: a1 = a0 + 0xa0\n   820: a0 = a1 <u a0\n   823: u64 [sp + 0x80] = a1\n   827: u64 [sp + 0x88] = a0\n   831: a0 = 0 if a0 != 0\n   833: u64 [sp + 0x90] = a0\n   837: a0 = 0x40\n   840: a1 = sp + 0x80\n   844: u64 [sp + 152] = 0\n   848: ra = 10, jump @9\n      : @24 [@dyn 5] (gas: 3)\n   853: a0 = 0xa0\n   857: a1 = s1\n   859: ra = 12, jump @11\n      : @25 [@dyn 6] (gas: 5)\n   864: i32 a0 = a0 + 0\n   866: a1 = s1\n   868: a2 = 0\n   870: ecalli 1 // 'call_data_copy'\n   872: fallthrough\n      : @26 (gas: 1)\n   873: jump @34 if s1 <=u 31\n      : @27 (gas: 3)\n   878: a0 = sp + 0x60\n   881: a1 = 0xa0\n   885: ra = 14, jump @7\n      : @28 [@dyn 7] (gas: 10)\n   890: a0 = u64 [sp + 0x70]\n   893: a2 = u64 [sp + 0x78]\n   896: a1 = 0x100000000\n   906: a1 = a1 ^ a0\n   909: a1 = a1 | a2\n   912: a3 = a0 >> 0x20\n   915: a3 = a3 <u 0x1\n   918: a3 = 0 if a2 != 0\n   920: a3 = 0 if a1 == 0\n   922: jump @35 if a3 == 0\n      : @29 (gas: 9)\n   925: a1 = u64 [sp + 0x68]\n   928: a3 = u64 [sp + 0x60]\n   931: u64 [sp + 0x40] = a3\n   934: u64 [sp + 0x48] = a1\n   937: u64 [sp + 0x50] = a0\n   940: a0 = 0x80\n   944: a1 = sp + 0x40\n   947: u64 [sp + 0x58] = a2\n   950: ra = 16, jump @9\n      : @30 [@dyn 8] (gas: 3)\n   955: a0 = sp + 0x20\n   958: a1 = 0x40\n   961: ra = 18, jump @7\n      : @31 [@dyn 9] (gas: 12)\n   966: a0 = u64 [sp + 0x38]\n   969: a1 = u64 [sp + 0x30]\n   972: a2 = u64 [sp + 0x28]\n   975: s1 = u64 [sp + 0x20]\n   978: a0 = a0 | a2\n   981: a2 = s1 | a1\n   984: a2 = a2 | a0\n   987: a2 = a2 >> 0x20\n   990: a0 = a0 | a1\n   993: a0 = a0 << 0x20\n   996: a0 = a0 | a2\n   999: jump @36 if a0 == 0\n      : @32 (gas: 1)\n  1002: trap\n      : @33 (gas: 4)\n  1003: a1 = 0x20010\n  1008: i32 a1 = a1 + 0\n  1010: a0 = 0x1\n  1013: jump @41\n      : @34 (gas: 4)\n  1015: a1 = 0x20010\n  1020: i32 a1 = a1 + 0\n  1022: a0 = 0x1\n  1025: jump @41\n      : @35 (gas: 4)\n  1027: a1 = 0x20010\n  1032: i32 a1 = a1 + 0\n  1034: a0 = 0x1\n  1037: jump @41\n      : @36 (gas: 3)\n  1039: a0 = s1\n  1041: a1 = 0\n  1043: ra = 20, jump @11\n      : @37 [@dyn 10] (gas: 7)\n  1048: i32 a0 = a0 + 0\n  1050: a1 = 0\n  1052: a2 = 0\n  1054: ecalli 1 // 'call_data_copy'\n  1056: a0 = sp\n  1058: a1 = 0x80\n  1062: ra = 22, jump @7\n      : @38 [@dyn 11] (gas: 9)\n  1067: a0 = u64 [sp + 0x18]\n  1070: a2 = u64 [sp + 0x10]\n  1073: a3 = u64 [sp + 0x8]\n  1076: a4 = u64 [sp]\n  1078: u64 [0x30048] = a0\n  1083: u64 [0x30040] = a2\n  1088: u64 [0x30038] = a3\n  1093: u64 [0x30030] = a4\n  1098: jump @5\n      : @39 (gas: 3)\n  1101: a0 = s1\n  1103: a1 = 0\n  1105: ra = 24, jump @11\n      : @40 [@dyn 12] (gas: 6)\n  1110: i32 a1 = a0 + 0\n  1112: a0 = 0\n  1114: a2 = 0\n  1116: ra = 0x1a\n  1119: ecalli 9 // 'seal_return'\n  1121: jump @42\n      : @41 (gas: 4)\n  1123: a2 = 0\n  1125: ra = 0x1a\n  1128: ecalli 9 // 'seal_return'\n  1130: fallthrough\n      : @42 [@dyn 13] (gas: 15)\n  1131: sp = sp + 0xfffffffffffffe10\n  1135: u64 [sp + 0x1e8] = ra\n  1139: u64 [sp + 0x1e0] = s0\n  1143: u64 [sp + 0x1d8] = s1\n  1147: s0 = sp + 0x1f0\n  1151: sp = sp + 0xffffffffffffd9d0\n  1155: sp = sp & 0xffffffffffffffe0\n  1158: s1 = sp + 0x1918\n  1162: u64 [s1 + 1184] = 0\n  1166: u64 [s1 + 1176] = 0\n  1170: u64 [s1 + 1160] = 0x80\n  1176: a0 = 0x40\n  1179: a1 = sp + 0x1da0\n  1183: u64 [s1 + 1168] = 0\n  1187: ra = 28, jump @9\n      : @43 [@dyn 14] (gas: 4)\n  1192: a0 = 0x20004\n  1197: u64 [sp + 0x198] = a0\n  1201: a0 = i32 [0x20004]\n  1206: jump @45 if a0 >=u 4\n      : @44 (gas: 1)\n  1210: jump @778\n      : @45 (gas: 5)\n  1213: a0 = sp + 0x2000\n  1217: i32 a0 = a0 + 0xfffffffffffffdc0\n  1221: a1 = 0\n  1223: ecalli 2 // 'call_data_load'\n  1225: fallthrough\n      : @46 (gas: 2)\n  1226: a0 = i32 [s1 + 0x4c4]\n  1230: jump @48 if a0 != 2205082048\n      : @47 (gas: 1)\n  1237: jump @348\n      : @48 (gas: 1)\n  1240: jump @50 if a0 != 2245740952\n      : @49 (gas: 1)\n  1247: jump @223\n      : @50 (gas: 1)\n  1250: jump @52 if a0 != 1158823118\n      : @51 (gas: 1)\n  1257: jump @279\n      : @52 (gas: 1)\n  1260: jump @54 if a0 == 1229702701\n      : @53 (gas: 1)\n  1267: jump @361\n      : @54 (gas: 9)\n  1270: s1 = sp + 0x2118\n  1274: u64 [s1 + 0] = 0\n  1276: u64 [s1 + 4294967288] = 0\n  1279: u64 [s1 + 4294967280] = 0\n  1282: u64 [s1 + 4294967272] = 0\n  1285: a0 = sp + 0x2000\n  1289: i32 a0 = a0 + 0x100\n  1293: ecalli 11 // 'value_transferred'\n  1295: fallthrough\n      : @55 (gas: 9)\n  1296: a4 = s1 + 0xffffffffffffff00\n  1300: a0 = u64 [a4 + 0xf8]\n  1304: a1 = u64 [s1]\n  1306: a2 = u64 [a4 + 0xf0]\n  1310: a3 = u64 [a4 + 0xe8]\n  1314: a1 = a1 | a2\n  1317: a0 = a0 | a3\n  1320: a0 = a0 | a1\n  1323: jump @57 if a0 == 0\n      : @56 (gas: 1)\n  1326: jump @779\n      : @57 (gas: 10)\n  1329: a0 = u64 [sp + 0x198]\n  1333: a0 = u32 [a0]\n  1335: s1 = sp + 0x1110\n  1339: u64 [s1 + 200] = 0\n  1343: u64 [s1 + 192] = 0\n  1347: u64 [s1 + 0xb0] = a0\n  1351: a0 = sp + 0x11e0\n  1355: a1 = sp + 0x11c0\n  1359: u64 [s1 + 184] = 0\n  1363: ra = 30, jump @815\n      : @58 [@dyn 15] (gas: 2)\n  1368: a2 = u32 [s1 + 0x110]\n  1372: t0 = 32, jump @939\n      : @59 [@dyn 16] (gas: 3)\n  1377: u64 [sp + 0xc8] = a2\n  1381: a1 = a0 if a2 == 0\n  1384: jump @61 if a1 == 0\n      : @60 (gas: 1)\n  1387: jump @780\n      : @61 (gas: 17)\n  1390: a0 = u64 [s1 + 0xe8]\n  1394: u64 [sp + 0x100] = a0\n  1398: a0 = u64 [s1 + 0xe0]\n  1402: u64 [sp + 0x118] = a0\n  1406: a0 = u64 [s1 + 0xd8]\n  1410: u64 [sp + 0x110] = a0\n  1414: a0 = u64 [s1 + 0xd0]\n  1418: u64 [sp + 0x108] = a0\n  1422: a0 = u64 [s1 + 0x108]\n  1426: u64 [sp + 0x28] = a0\n  1429: a0 = u64 [s1 + 0x100]\n  1433: u64 [sp + 0x20] = a0\n  1436: a0 = u64 [s1 + 0xf8]\n  1440: u64 [sp + 0x18] = a0\n  1443: a0 = u64 [s1 + 0xf0]\n  1447: u64 [sp + 0x10] = a0\n  1450: ra = 34, jump @0\n      : @62 [@dyn 17] (gas: 9)\n  1455: a1 = u64 [0x30040]\n  1460: u64 [sp + 0x170] = a1\n  1464: a1 = u64 [0x30038]\n  1469: u64 [sp + 0x168] = a1\n  1473: a0 = u64 [0x30030]\n  1478: u64 [sp + 0x178] = a0\n  1482: a0 = sp + 0x1180\n  1486: a1 = 0x40\n  1489: ra = 36, jump @7\n      : @63 [@dyn 18] (gas: 6)\n  1494: a5 = u64 [s1 + 0x88]\n  1498: a4 = u64 [s1 + 0x80]\n  1502: a3 = u64 [s1 + 0x78]\n  1505: a0 = u64 [s1 + 0x70]\n  1508: a2 = a3 | a5\n  1511: t0 = 38, jump @922\n      : @64 [@dyn 19] (gas: 1)\n  1516: jump @66 if a1 == 0\n      : @65 (gas: 1)\n  1519: jump @770\n      : @66 (gas: 12)\n  1522: a2 = s1\n  1524: u64 [s1 + 96] = 0\n  1527: u64 [s1 + 88] = 0\n  1530: u64 [s1 + 80] = 0\n  1533: s1 = 0xe08454a00000000\n  1543: a1 = sp + 0x1160\n  1547: u64 [a2 + 0x68] = s1\n  1550: u64 [sp + 0x198] = a0\n  1554: u64 [sp + 0x190] = a3\n  1558: u64 [sp + 0x188] = a4\n  1562: u64 [sp + 0x180] = a5\n  1566: ra = 40, jump @9\n      : @67 [@dyn 20] (gas: 1)\n  1571: t0 = 42, jump @926\n      : @68 [@dyn 21] (gas: 1)\n  1576: jump @70 if a1 != 0\n      : @69 (gas: 1)\n  1579: jump @770\n      : @70 (gas: 13)\n  1582: a0 = u64 [sp + 0x118]\n  1586: a0 = a0 << 0x20\n  1589: a1 = a0 >> 0x20\n  1592: i32 a0 = a2 + 0x4\n  1595: a3 = sp + 0x1110\n  1599: u64 [a3 + 72] = 0\n  1602: a2 = u64 [sp + 0x108]\n  1606: u64 [a3 + 0x30] = a2\n  1609: u64 [a3 + 0x40] = a1\n  1612: a1 = sp + 0x1140\n  1616: a2 = u64 [sp + 0x110]\n  1620: u64 [a3 + 0x38] = a2\n  1623: ra = 44, jump @9\n      : @71 [@dyn 22] (gas: 4)\n  1628: ra = 0x2e\n  1631: ecalli 6 // 'ref_time_left'\n  1633: t0 = 0x30\n  1636: jump @921\n      : @72 [@dyn 23] (gas: 1)\n  1639: t0 = 48, jump @921\n      : @73 [@dyn 24] (gas: 2)\n  1644: s1 = 0x30010\n  1649: t0 = 50, jump @928\n      : @74 [@dyn 25] (gas: 7)\n  1654: u64 [a0 + 32] = 0\n  1657: u64 [a0 + 24] = 0\n  1660: u64 [a0 + 16] = 0\n  1663: u64 [a0 + 8] = 0\n  1666: a1 = 0x24\n  1669: a0 = u64 [sp + 0x198]\n  1673: ra = 52, jump @11\n      : @75 [@dyn 26] (gas: 4)\n  1678: u64 [sp + 0x178] = a0\n  1682: a1 = 0x20\n  1685: a0 = u64 [sp + 0x198]\n  1689: ra = 54, jump @11\n      : @76 [@dyn 27] (gas: 17)\n  1694: a1 = sp + 0x2118\n  1698: u32 [a1 + 40] = 0x20\n  1702: u64 [a1 + 96] = 0\n  1705: u64 [a1 + 88] = 0\n  1708: u64 [a1 + 80] = 0\n  1711: u64 [a1 + 72] = 0\n  1714: u64 [sp + 0x148] = s1\n  1718: a1 = s1 << 0x20\n  1721: a2 = a1 >> 0x20\n  1724: a1 = 0x1800000000\n  1734: u64 [sp + 0x70] = a2\n  1737: s1 = a2 | a1\n  1740: a1 = sp + 0x2120\n  1744: a1 = a1 << 0x20\n  1747: a1 = a1 >> 0x20\n  1750: a2 = 0x2160\n  1754: t0 = 56, jump @911\n      : @77 [@dyn 28] (gas: 10)\n  1759: i32 a1 = a1 + 0x140\n  1763: a1 = a1 + sp\n  1766: a1 = a1 << 0x20\n  1769: a5 = a1 | a0\n  1772: a1 = 0xffffffffffffffff\n  1775: a2 = 0xffffffffffffffff\n  1778: u64 [sp + 0xf0] = s1\n  1782: a0 = s1\n  1784: ecalli 0 // 'call'\n  1785: fallthrough\n      : @78 (gas: 1)\n  1786: jump @80 if a0 == 0\n      : @79 (gas: 1)\n  1789: jump @533\n      : @80 (gas: 2)\n  1792: ecalli 8 // 'return_data_size'\n  1794: fallthrough\n      : @81 (gas: 2)\n  1795: a2 = 0x20\n  1798: jump @83 if a0 >=u a2\n      : @82 (gas: 3)\n  1801: ecalli 8 // 'return_data_size'\n  1803: a2 = a0\n  1805: fallthrough\n      : @83 (gas: 20)\n  1806: s1 = 0\n  1808: a1 = u64 [sp + 0x198]\n  1812: t0 = u64 [sp + 0x190]\n  1816: a4 = u64 [sp + 0x188]\n  1820: a5 = u64 [sp + 0x180]\n  1824: u64 [sp + 0x178] = a2\n  1828: a3 = sp + 0x7ff\n  1832: a3 = a3 + 0x111\n  1836: u64 [a3 + 0x7d0] = a2\n  1840: u64 [a3 + 0x7f0] = a1\n  1844: u64 [a3 + 2008] = 0\n  1848: u64 [a3 + 0x7f8] = t0\n  1852: u64 [a3 + 2016] = 0\n  1856: a2 = sp + 0x1110\n  1860: u64 [a2] = a4\n  1862: u64 [a3 + 2024] = 0\n  1866: a0 = sp + 0x1100\n  1870: a1 = sp + 0x10e0\n  1874: u64 [a2 + 0x8] = a5\n  1877: ra = 58, jump @839\n      : @84 [@dyn 29] (gas: 33)\n  1882: t0 = u64 [sp + 0x198]\n  1886: a1 = u64 [sp + 0x178]\n  1890: a0 = a1 + t0\n  1893: a1 = a0 <u a1\n  1896: t1 = u64 [sp + 0x190]\n  1900: a2 = t1\n  1902: a2 = a2 + a1\n  1905: a3 = a2 ^ 0\n  1907: a4 = a2 <u 0\n  1909: a4 = a1 if a3 == 0\n  1912: a5 = u64 [sp + 0x188]\n  1916: a1 = a5\n  1918: a4 = a4 + a1\n  1921: t2 = a4 <u a1\n  1924: a1 = a1 <u 0\n  1926: a3 = u64 [sp + 0x180]\n  1930: s1 = a3\n  1932: a1 = a1 + s1\n  1935: s1 = sp + 0x7ff\n  1939: s1 = s1 + 0x111\n  1943: t2 = t2 + a1\n  1946: u64 [s1 + 0x780] = a4\n  1950: u64 [s1 + 0x778] = a2\n  1954: u64 [s1 + 0x770] = a0\n  1958: u64 [s1 + 0x7a8] = a3\n  1962: u64 [s1 + 0x7a0] = a5\n  1966: u64 [s1 + 0x798] = t1\n  1970: u64 [s1 + 0x790] = t0\n  1974: a0 = sp + 0x10c0\n  1978: a1 = sp + 0x10a0\n  1982: a2 = sp + 0x1080\n  1986: u64 [s1 + 0x788] = t2\n  1990: ra = 60, jump @855\n      : @85 [@dyn 30] (gas: 5)\n  1995: a0 = u64 [s1 + 0x7b0]\n  1999: u64 [sp + 0x190] = a0\n  2003: a0 = sp + 0x1060\n  2007: a1 = 0x40\n  2010: ra = 62, jump @7\n      : @86 [@dyn 31] (gas: 13)\n  2015: a1 = s1 + 0x700\n  2019: a2 = u64 [a1 + 0x68]\n  2022: a3 = u64 [a1 + 0x60]\n  2025: a4 = u64 [a1 + 0x58]\n  2028: a0 = u64 [a1 + 0x50]\n  2031: a5 = a4 | a2\n  2034: a1 = a0 | a3\n  2037: a1 = a1 | a5\n  2040: a1 = a1 >> 0x20\n  2043: a5 = a5 | a3\n  2046: a5 = a5 << 0x20\n  2049: a1 = a1 | a5\n  2052: jump @88 if a1 == 0\n      : @87 (gas: 1)\n  2055: jump @770\n      : @88 (gas: 11)\n  2058: u64 [sp + 0x178] = a4\n  2062: u64 [sp + 0x180] = a3\n  2066: u64 [sp + 0x188] = a2\n  2070: u64 [s1 + 1856] = 0\n  2074: u64 [s1 + 1848] = 0\n  2078: u64 [s1 + 1840] = 0\n  2082: a2 = 0x222ae78600000000\n  2092: a1 = sp + 0x1040\n  2096: u64 [s1 + 0x748] = a2\n  2100: u64 [sp + 0x198] = a0\n  2104: ra = 64, jump @9\n      : @89 [@dyn 32] (gas: 4)\n  2109: ra = 0x42\n  2112: ecalli 6 // 'ref_time_left'\n  2114: t0 = 0x44\n  2117: jump @907\n      : @90 [@dyn 33] (gas: 1)\n  2120: t0 = 68, jump @907\n      : @91 [@dyn 34] (gas: 7)\n  2125: u64 [s1 + 160] = 0\n  2129: u64 [s1 + 152] = 0\n  2133: u64 [s1 + 144] = 0\n  2137: u64 [s1 + 136] = 0\n  2141: a1 = 0x4\n  2144: a0 = u64 [sp + 0x198]\n  2148: ra = 70, jump @11\n      : @92 [@dyn 35] (gas: 4)\n  2153: u64 [sp + 0x170] = a0\n  2157: a1 = 0x20\n  2160: a0 = u64 [sp + 0x198]\n  2164: ra = 72, jump @11\n      : @93 [@dyn 36] (gas: 10)\n  2169: u32 [s1 + 168] = 0x20\n  2174: u64 [s1 + 224] = 0\n  2178: u64 [s1 + 216] = 0\n  2182: u64 [s1 + 208] = 0\n  2186: u64 [s1 + 200] = 0\n  2190: a1 = sp + 0x21a0\n  2194: a1 = a1 << 0x20\n  2197: a1 = a1 >> 0x20\n  2200: a2 = 0x21e0\n  2204: t0 = 74, jump @942\n      : @94 [@dyn 37] (gas: 12)\n  2209: a2 = 0x400000000\n  2219: a4 = a1 | a2\n  2222: a0 = a0 << 0x20\n  2225: a0 = a0 >> 0x20\n  2228: a1 = sp + 0x21c0\n  2232: a1 = a1 << 0x20\n  2235: a5 = a1 | a0\n  2238: a1 = 0xffffffffffffffff\n  2241: a2 = 0xffffffffffffffff\n  2244: a0 = u64 [sp + 0xf0]\n  2248: ecalli 0 // 'call'\n  2249: fallthrough\n      : @95 (gas: 1)\n  2250: jump @97 if a0 == 0\n      : @96 (gas: 1)\n  2253: jump @564\n      : @97 (gas: 2)\n  2256: ecalli 8 // 'return_data_size'\n  2258: fallthrough\n      : @98 (gas: 2)\n  2259: a1 = 0x20\n  2262: jump @100 if a0 >=u a1\n      : @99 (gas: 3)\n  2265: ecalli 8 // 'return_data_size'\n  2267: a1 = a0\n  2269: fallthrough\n      : @100 (gas: 21)\n  2270: s1 = 0\n  2272: a3 = u64 [sp + 0x180]\n  2276: a4 = u64 [sp + 0x178]\n  2280: a5 = u64 [sp + 0x198]\n  2284: u64 [sp + 0x170] = a1\n  2288: a2 = sp + 0x7ff\n  2292: a2 = a2 + 0x111\n  2296: a0 = a2 + 0x600\n  2300: u64 [a0 + 0xd0] = a1\n  2304: u64 [a0 + 0xf0] = a5\n  2308: u64 [a2 + 1752] = 0\n  2312: u64 [a0 + 0xf8] = a4\n  2316: u64 [a2 + 1760] = 0\n  2320: u64 [a2 + 0x700] = a3\n  2324: u64 [a2 + 1768] = 0\n  2328: a0 = sp + 0x1000\n  2332: a1 = sp + 0x7ff\n  2336: a1 = a1 + 0x7e1\n  2340: a3 = u64 [sp + 0x188]\n  2344: u64 [a2 + 0x708] = a3\n  2348: ra = 76, jump @839\n      : @101 [@dyn 38] (gas: 2)\n  2353: a1 = u64 [sp + 0x170]\n  2357: t0 = 78, jump @908\n      : @102 [@dyn 39] (gas: 1)\n  2362: jump @104 if a2 != 0\n      : @103 (gas: 1)\n  2365: jump @812\n      : @104 (gas: 17)\n  2368: s1 = 0xffffffff\n  2378: a2 = sp + 0x7ff\n  2382: a2 = a2 + 0x111\n  2386: a0 = u64 [sp + 0x198]\n  2390: a4 = a2 + 0x600\n  2394: u64 [a4 + 0x90] = a0\n  2398: a0 = u64 [sp + 0x178]\n  2402: u64 [a4 + 0x98] = a0\n  2406: a0 = u64 [sp + 0x180]\n  2410: u64 [a4 + 0xa0] = a0\n  2414: a0 = sp + 0x7ff\n  2418: a0 = a0 + 0x7c1\n  2422: a1 = sp + 0x7ff\n  2426: a1 = a1 + 0x7a1\n  2430: a3 = u64 [sp + 0x188]\n  2434: u64 [a4 + 0xa8] = a3\n  2438: ra = 80, jump @849\n      : @105 [@dyn 40] (gas: 62)\n  2443: a2 = s1\n  2445: u64 [sp + 208] = 0\n  2449: a3 = 0\n  2451: a0 = sp + 0x2220\n  2455: a0 = a0 << 0x20\n  2458: a0 = a0 >> 0x20\n  2461: a1 = sp + 0x2260\n  2465: a1 = a1 << 0x20\n  2468: a0 = a0 | a1\n  2471: u64 [sp + 0x38] = a0\n  2474: a0 = sp + 0x2240\n  2478: a0 = a0 << 0x20\n  2481: u64 [sp + 0x30] = a0\n  2484: a0 = sp + 0x22a0\n  2488: a0 = a0 << 0x20\n  2491: a0 = a0 >> 0x20\n  2494: a1 = sp + 0x22e0\n  2498: a1 = a1 << 0x20\n  2501: a0 = a0 | a1\n  2504: u64 [sp + 0xa8] = a0\n  2508: a0 = sp + 0x22c0\n  2512: a0 = a0 << 0x20\n  2515: u64 [sp + 0xa0] = a0\n  2519: a0 = sp + 0x2320\n  2523: a0 = a0 << 0x20\n  2526: a0 = a0 >> 0x20\n  2529: a1 = sp + 0x2360\n  2533: a1 = a1 << 0x20\n  2536: a0 = a0 | a1\n  2539: u64 [sp + 0x90] = a0\n  2543: a0 = sp + 0x2340\n  2547: a0 = a0 << 0x20\n  2550: u64 [sp + 0x88] = a0\n  2554: a0 = sp + 0x23a0\n  2558: a0 = a0 << 0x20\n  2561: a0 = a0 >> 0x20\n  2564: a1 = sp + 0x23e0\n  2568: a1 = a1 << 0x20\n  2571: a0 = a0 | a1\n  2574: u64 [sp + 0x60] = a0\n  2577: a1 = 0x1\n  2580: a0 = sp + 0x23c0\n  2584: a0 = a0 << 0x20\n  2587: u64 [sp + 0x58] = a0\n  2590: a0 = u64 [sp + 0x190]\n  2594: a0 = a0 & s1\n  2597: u64 [sp + 0x48] = a0\n  2600: a0 = 0x9962663400000000\n  2610: u64 [sp + 0x40] = a0\n  2613: a0 = 0x319bec5400000000\n  2623: u64 [sp + 0xb0] = a0\n  2627: a0 = 0x39c5151500000000\n  2637: u64 [sp + 0x98] = a0\n  2641: a0 = 0x6818876200000000\n  2651: u64 [sp + 0x68] = a0\n  2654: u64 [sp + 80] = 0x8fc\n  2659: a0 = sp + 0x7ff\n  2663: a0 = a0 + 0x111\n  2667: a0 = u64 [a0 + 0x6b0]\n  2671: u64 [sp + 0xb8] = a0\n  2675: u64 [sp + 0xc0] = s1\n  2679: fallthrough\n      : @106 (gas: 19)\n  2680: a4 = 0\n  2682: a4 = 0 if a3 == 0\n  2684: u64 [sp + 0x80] = a1\n  2688: a0 = u64 [sp + 0x48]\n  2691: s1 = a0 <u a1\n  2694: u64 [sp + 304] = 0\n  2698: s1 = 0 if a3 != 0\n  2700: u64 [sp + 120] = 0\n  2703: a3 = 0\n  2705: u64 [sp + 0x158] = a4\n  2709: u64 [sp + 296] = 0\n  2713: s1 = a4 if a3 != 0\n  2716: a0 = u64 [sp + 0xd0]\n  2720: a0 = a0 & a2\n  2723: u64 [sp + 0x178] = a0\n  2727: a0 = sp + 0x7ff\n  2731: a0 = a0 + 0x781\n  2735: a1 = 0x40\n  2738: ra = 82, jump @7\n      : @107 [@dyn 41] (gas: 13)\n  2743: a5 = u64 [sp + 0x178]\n  2747: a0 = sp + 0x7ff\n  2751: a0 = a0 + 0x111\n  2755: a1 = a0 + 0x600\n  2759: a2 = u64 [a1 + 0x88]\n  2763: a4 = u64 [a1 + 0x80]\n  2767: a3 = u64 [a1 + 0x70]\n  2770: a0 = u64 [a1 + 0x78]\n  2773: a1 = a3 | a4\n  2776: u64 [sp + 0x190] = a2\n  2780: u64 [sp + 0x188] = a0\n  2784: a0 = a0 | a2\n  2787: jump @109 if s1 == 0\n      : @108 (gas: 1)\n  2790: jump @720\n      : @109 (gas: 2)\n  2793: a2 = u64 [sp + 0xc8]\n  2797: jump @111 if a5 <u a2\n      : @110 (gas: 1)\n  2800: jump @720\n      : @111 (gas: 7)\n  2803: a1 = a1 | a0\n  2806: a1 = a1 >> 0x20\n  2809: a0 = a0 | a4\n  2812: a0 = a0 << 0x20\n  2815: a0 = a0 | a1\n  2818: u64 [sp + 0x180] = a4\n  2822: jump @113 if a0 == 0\n      : @112 (gas: 1)\n  2825: jump @770\n      : @113 (gas: 12)\n  2828: s1 = sp + 0x7ff\n  2832: s1 = s1 + 0x111\n  2836: u64 [s1 + 1600] = 0\n  2840: u64 [s1 + 1592] = 0\n  2844: u64 [s1 + 1584] = 0\n  2848: a1 = sp + 0x7ff\n  2852: a1 = a1 + 0x741\n  2856: a0 = u64 [sp + 0x40]\n  2859: u64 [s1 + 0x648] = a0\n  2863: a0 = a3\n  2865: u64 [sp + 0x198] = a3\n  2869: ra = 84, jump @9\n      : @114 [@dyn 42] (gas: 1)\n  2874: t0 = 86, jump @920\n      : @115 [@dyn 43] (gas: 30)\n  2879: a4 = u64 [sp + 0x190]\n  2883: a1 = a1 + a4\n  2886: a4 = u64 [sp + 0x78]\n  2889: a5 = s1 + 0x500\n  2893: u64 [a5 + 0xc8] = a4\n  2897: u64 [a5 + 0xc0] = a4\n  2901: u64 [a5 + 0xb8] = a4\n  2905: a4 = u64 [sp + 0x80]\n  2909: u64 [a5 + 0xb0] = a4\n  2913: a4 = u64 [sp + 0x100]\n  2917: u64 [a5 + 0xe8] = a4\n  2921: a4 = u64 [sp + 0x118]\n  2925: u64 [a5 + 0xe0] = a4\n  2929: a4 = u64 [sp + 0x110]\n  2933: u64 [a5 + 0xd8] = a4\n  2937: u64 [a5 + 0xf8] = a2\n  2941: u64 [a5 + 0xf0] = a0\n  2945: u64 [s1 + 0x600] = a3\n  2949: u64 [s1 + 0x608] = a1\n  2953: a0 = sp + 0x7ff\n  2957: a0 = a0 + 0x721\n  2961: a1 = sp + 0x7ff\n  2965: a1 = a1 + 0x701\n  2969: a2 = sp + 0x7ff\n  2973: a2 = a2 + 0x6e1\n  2977: a3 = sp + 0x7ff\n  2981: a3 = a3 + 0x6c1\n  2985: a4 = u64 [sp + 0x108]\n  2989: u64 [a5 + 0xd0] = a4\n  2993: ra = 88, jump @882\n      : @116 [@dyn 44] (gas: 31)\n  2998: a0 = u64 [s1 + 0x618]\n  3002: t2 = u64 [s1 + 0x628]\n  3006: t0 = u64 [s1 + 0x610]\n  3010: a3 = u64 [s1 + 0x620]\n  3014: a2 = u64 [sp + 0x188]\n  3018: a4 = a0 ^ a2\n  3021: a5 = a0 <u a2\n  3024: t1 = a2\n  3026: a2 = u64 [sp + 0x198]\n  3030: s1 = t0 <u a2\n  3033: a5 = s1 if a4 == 0\n  3036: a1 = u64 [sp + 0x180]\n  3040: a4 = a3 - a1\n  3043: a3 = a3 <u a1\n  3046: a1 = u64 [sp + 0x190]\n  3050: a1 = t2 - a1\n  3053: a1 = a1 - a3\n  3056: a3 = a4 <u a5\n  3059: a1 = a1 - a3\n  3062: u64 [sp + 0x170] = a1\n  3066: a4 = a4 - a5\n  3069: u64 [sp + 0x168] = a4\n  3073: a0 = a0 - t1\n  3076: a0 = a0 - s1\n  3079: u64 [sp + 0x160] = a0\n  3083: a0 = t0 - a2\n  3086: u64 [sp + 0x178] = a0\n  3090: ra = 0x5a\n  3093: ecalli 6 // 'ref_time_left'\n  3095: t0 = 0x5c\n  3098: jump @907\n      : @117 [@dyn 45] (gas: 1)\n  3101: t0 = 92, jump @907\n      : @118 [@dyn 46] (gas: 10)\n  3106: u64 [s1 + 288] = 0\n  3110: u64 [s1 + 280] = 0\n  3114: u64 [s1 + 272] = 0\n  3118: a0 = u64 [sp + 0x178]\n  3122: a2 = a0\n  3124: a3 = u64 [sp + 0x168]\n  3128: a0 = a0 | a3\n  3131: a1 = u64 [sp + 0x170]\n  3135: a4 = u64 [sp + 0x160]\n  3139: t0 = 94, jump @934\n      : @119 [@dyn 47] (gas: 2)\n  3144: u64 [s1 + 264] = 0\n  3148: jump @121 if a0 == 0\n      : @120 (gas: 1)\n  3151: jump @770\n      : @121 (gas: 4)\n  3154: s1 = u64 [sp + 0x198]\n  3158: a0 = s1\n  3160: a1 = a2\n  3162: ra = 96, jump @11\n      : @122 [@dyn 48] (gas: 4)\n  3167: u64 [sp + 0x170] = a0\n  3171: a1 = 0x60\n  3174: a0 = s1\n  3176: ra = 98, jump @11\n      : @123 [@dyn 49] (gas: 22)\n  3181: a2 = sp + 0x2118\n  3185: u32 [a2 + 296] = 0x60\n  3190: u64 [a2 + 352] = 0\n  3194: u64 [a2 + 344] = 0\n  3198: u64 [a2 + 336] = 0\n  3202: u64 [a2 + 328] = 0\n  3206: a1 = u64 [sp + 0x170]\n  3210: a1 = a1 << 0x20\n  3213: a1 = a1 >> 0x20\n  3216: a4 = u64 [sp + 0x178]\n  3220: a4 = a4 << 0x20\n  3223: a4 = a4 | a1\n  3226: a0 = a0 << 0x20\n  3229: a0 = a0 >> 0x20\n  3232: a5 = u64 [sp + 0x30]\n  3235: a5 = a5 | a0\n  3238: a1 = 0xffffffffffffffff\n  3241: a2 = 0xffffffffffffffff\n  3244: a0 = u64 [sp + 0xf0]\n  3248: a3 = u64 [sp + 0x38]\n  3251: ecalli 0 // 'call'\n  3252: fallthrough\n      : @124 (gas: 1)\n  3253: jump @126 if a0 == 0\n      : @125 (gas: 1)\n  3256: jump @722\n      : @126 (gas: 2)\n  3259: ecalli 8 // 'return_data_size'\n  3261: fallthrough\n      : @127 (gas: 2)\n  3262: a1 = 0x60\n  3265: jump @129 if a0 >=u a1\n      : @128 (gas: 3)\n  3268: ecalli 8 // 'return_data_size'\n  3270: a1 = a0\n  3272: fallthrough\n      : @129 (gas: 21)\n  3273: a2 = u64 [sp + 0x198]\n  3277: a3 = u64 [sp + 0x180]\n  3281: u64 [sp + 0x178] = a1\n  3285: a4 = sp + 0x7ff\n  3289: a4 = a4 + 0x111\n  3293: s1 = a4 + 0x500\n  3297: u64 [s1 + 0x50] = a1\n  3300: u64 [s1 + 0x70] = a2\n  3303: u64 [a4 + 1368] = 0\n  3307: a0 = u64 [sp + 0x188]\n  3311: u64 [s1 + 0x78] = a0\n  3314: u64 [a4 + 1376] = 0\n  3318: u64 [s1 + 0x80] = a3\n  3322: u64 [a4 + 1384] = 0\n  3326: a0 = sp + 0x7ff\n  3330: a0 = a0 + 0x681\n  3334: a1 = sp + 0x7ff\n  3338: a1 = a1 + 0x661\n  3342: a5 = u64 [sp + 0x190]\n  3346: u64 [s1 + 0x88] = a5\n  3350: ra = 100, jump @839\n      : @130 [@dyn 50] (gas: 37)\n  3355: t0 = u64 [sp + 0x198]\n  3359: a1 = u64 [sp + 0x178]\n  3363: a0 = a1 + t0\n  3366: a1 = a0 <u a1\n  3369: t1 = u64 [sp + 0x188]\n  3373: a2 = t1\n  3375: a2 = a2 + a1\n  3378: a3 = a2 ^ 0\n  3380: a4 = a2 <u 0\n  3382: a4 = a1 if a3 == 0\n  3385: a5 = u64 [sp + 0x180]\n  3389: a1 = a5\n  3391: a4 = a4 + a1\n  3394: t2 = a4 <u a1\n  3397: a1 = a1 <u 0\n  3399: a3 = u64 [sp + 0x190]\n  3403: s1 = a3\n  3405: a1 = a1 + s1\n  3408: s1 = sp + 0x7ff\n  3412: s1 = s1 + 0x111\n  3416: t2 = t2 + a1\n  3419: a1 = s1 + 0x400\n  3423: u64 [a1 + 0xc0] = a4\n  3427: u64 [a1 + 0xb8] = a2\n  3431: u64 [a1 + 0xb0] = a0\n  3435: u64 [a1 + 0xe8] = a3\n  3439: u64 [a1 + 0xe0] = a5\n  3443: u64 [s1 + 0x4d8] = t1\n  3447: u64 [s1 + 0x4d0] = t0\n  3451: a0 = sp + 0x7ff\n  3455: a0 = a0 + 0x601\n  3459: a1 = sp + 0x7ff\n  3463: a1 = a1 + 0x5e1\n  3467: a2 = sp + 0x7ff\n  3471: a2 = a2 + 0x5c1\n  3475: u64 [s1 + 0x4c8] = t2\n  3479: ra = 102, jump @870\n      : @131 [@dyn 51] (gas: 3)\n  3484: t0 = u64 [s1 + 0x510]\n  3488: a0 = t0 & 0xffffffffffffffff\n  3491: jump @221 if a0 == 0\n      : @132 (gas: 9)\n  3495: a5 = s1 + 0x500\n  3499: a1 = u64 [a5 + 0x48]\n  3502: a2 = u64 [a5 + 0x40]\n  3505: a3 = u64 [a5 + 0x30]\n  3508: a4 = u64 [a5 + 0x38]\n  3511: a2 = a2 | a3\n  3514: a1 = a1 | a4\n  3517: a1 = a1 | a2\n  3520: jump @221 if a1 != 0\n      : @133 (gas: 31)\n  3524: t1 = u64 [sp + 0x80]\n  3528: a1 = t1 <u 0x100\n  3532: a4 = a1 ^ 0x1\n  3535: a1 = u64 [sp + 0x78]\n  3538: a2 = u64 [sp + 0x130]\n  3542: a4 = a2 if a1 != 0\n  3545: a3 = u64 [s1 + 0x518]\n  3549: a1 = u64 [sp + 0x158]\n  3553: a2 = u64 [sp + 0x128]\n  3557: a4 = a1 if a2 != 0\n  3560: u64 [sp + 0x198] = a4\n  3564: a5 = u64 [s1 + 0x528]\n  3568: a4 = u64 [s1 + 0x520]\n  3572: a2 = u64 [sp + 0x10]\n  3575: a0 = a0 <u a2\n  3578: a1 = u64 [sp + 0x18]\n  3581: a3 = a1 if a0 != 0\n  3584: u64 [sp + 0x168] = a3\n  3588: t0 = a2 if a0 != 0\n  3591: u64 [sp + 0x178] = t0\n  3595: a1 = u64 [sp + 0x20]\n  3598: a4 = a1 if a0 != 0\n  3601: u64 [sp + 0x160] = a4\n  3605: a1 = u64 [sp + 0x28]\n  3608: a5 = a1 if a0 != 0\n  3611: u64 [sp + 0x158] = a5\n  3615: s1 = t1\n  3617: i32 a2 = t1 + 0xffffffffffffff80\n  3620: a0 = 0x1\n  3623: a1 = 0\n  3625: ra = 104, jump @948\n      : @134 [@dyn 52] (gas: 1)\n  3630: t0 = 106, jump @932\n      : @135 [@dyn 53] (gas: 1)\n  3635: ra = 108, jump @943\n      : @136 [@dyn 54] (gas: 7)\n  3640: u64 [sp + 0x130] = a0\n  3644: u64 [sp + 0x170] = a1\n  3648: i32 a2 = s1 + 0\n  3650: u64 [sp + 0x180] = a2\n  3654: a0 = 0\n  3656: a1 = 0\n  3658: ra = 110, jump @948\n      : @137 [@dyn 55] (gas: 18)\n  3663: a2 = u64 [sp + 0x130]\n  3667: a2 = a2 | a0\n  3670: a0 = s1\n  3672: a4 = s1 <u 0x80\n  3676: u64 [sp + 0x130] = a4\n  3680: a3 = u64 [sp + 0x188]\n  3684: a2 = a3 if a4 == 0\n  3687: a2 = 0 if s1 == 0\n  3689: u64 [sp + 0xf8] = a2\n  3693: s1 = u64 [sp + 0x170]\n  3697: s1 = s1 | a1\n  3700: a1 = u64 [sp + 0x190]\n  3704: s1 = a1 if a4 == 0\n  3707: s1 = 0 if a0 == 0\n  3709: a0 = 0x1\n  3712: a1 = 0\n  3714: a2 = u64 [sp + 0x180]\n  3718: ra = 112, jump @948\n      : @138 [@dyn 56] (gas: 16)\n  3723: a3 = u64 [sp + 0x178]\n  3727: a2 = u64 [sp + 0x130]\n  3731: a0 = 0 if a2 == 0\n  3733: a1 = 0 if a2 == 0\n  3735: a2 = u64 [sp + 0x198]\n  3739: s1 = 0 if a2 != 0\n  3741: u64 [sp + 0xe8] = s1\n  3745: a4 = u64 [sp + 0xf8]\n  3749: a4 = 0 if a2 != 0\n  3751: u64 [sp + 0xf8] = a4\n  3755: a1 = 0 if a2 != 0\n  3757: u64 [sp + 0xd8] = a1\n  3761: a0 = 0 if a2 != 0\n  3763: u64 [sp + 0xe0] = a0\n  3767: a2 = u64 [sp + 0xc0]\n  3771: fallthrough\n      : @139 (gas: 3)\n  3772: a0 = a3 & 0xffffffffffffffff\n  3775: a1 = u64 [sp + 0xb8]\n  3779: jump @222 if a0 >=u a1\n      : @140 (gas: 6)\n  3783: a0 = u64 [sp + 0xd0]\n  3787: a0 = a0 & a2\n  3790: s1 = sp + 0x7ff\n  3794: s1 = s1 + 0x111\n  3798: a1 = u64 [sp + 0xc8]\n  3802: jump @222 if a0 >=u a1\n      : @141 (gas: 5)\n  3806: u64 [sp + 0x178] = a3\n  3810: a0 = sp + 0x7ff\n  3814: a0 = a0 + 0x5a1\n  3818: a1 = 0x40\n  3821: ra = 114, jump @7\n      : @142 [@dyn 57] (gas: 7)\n  3826: a0 = s1 + 0x400\n  3830: a3 = u64 [a0 + 0xa8]\n  3834: a4 = u64 [a0 + 0xa0]\n  3838: a5 = u64 [a0 + 0x98]\n  3842: a2 = u64 [a0 + 0x90]\n  3846: a0 = a5 | a3\n  3849: t0 = 116, jump @927\n      : @143 [@dyn 58] (gas: 1)\n  3854: jump @145 if a0 == 0\n      : @144 (gas: 1)\n  3857: jump @770\n      : @145 (gas: 13)\n  3860: u64 [s1 + 1152] = 0\n  3864: u64 [s1 + 1144] = 0\n  3868: u64 [s1 + 1136] = 0\n  3872: a1 = sp + 0x7ff\n  3876: a1 = a1 + 0x581\n  3880: a0 = u64 [sp + 0xb0]\n  3884: u64 [s1 + 0x488] = a0\n  3888: a0 = a2\n  3890: u64 [sp + 0x198] = a2\n  3894: u64 [sp + 0x190] = a3\n  3898: u64 [sp + 0x188] = a4\n  3902: u64 [sp + 0x180] = a5\n  3906: ra = 118, jump @9\n      : @146 [@dyn 59] (gas: 1)\n  3911: t0 = 120, jump @916\n      : @147 [@dyn 60] (gas: 28)\n  3916: u64 [s1 + 0x408] = a4\n  3920: a4 = u64 [sp + 0x160]\n  3924: u64 [s1 + 0x400] = a4\n  3928: a4 = u64 [sp + 0x168]\n  3932: u64 [s1 + 0x3f8] = a4\n  3936: a4 = u64 [sp + 0x178]\n  3940: u64 [s1 + 0x3f0] = a4\n  3944: a4 = u64 [sp + 0x100]\n  3948: u64 [s1 + 0x428] = a4\n  3952: a4 = u64 [sp + 0x118]\n  3956: u64 [s1 + 0x420] = a4\n  3960: a4 = u64 [sp + 0x110]\n  3964: u64 [s1 + 0x418] = a4\n  3968: u64 [s1 + 0x438] = a2\n  3972: u64 [s1 + 0x430] = a0\n  3976: u64 [s1 + 0x440] = a3\n  3980: u64 [s1 + 0x448] = a1\n  3984: a0 = sp + 0x7ff\n  3988: a0 = a0 + 0x561\n  3992: a1 = sp + 0x7ff\n  3996: a1 = a1 + 0x541\n  4000: a2 = sp + 0x7ff\n  4004: a2 = a2 + 0x521\n  4008: a3 = sp + 0x7ff\n  4012: a3 = a3 + 0x501\n  4016: a4 = u64 [sp + 0x108]\n  4020: u64 [s1 + 0x410] = a4\n  4024: ra = 122, jump @864\n      : @148 [@dyn 61] (gas: 17)\n  4029: a0 = u64 [s1 + 0x458]\n  4033: t0 = u64 [s1 + 0x468]\n  4037: t1 = u64 [s1 + 0x450]\n  4041: a3 = u64 [s1 + 0x460]\n  4045: a4 = u64 [sp + 0x180]\n  4049: a1 = a0 ^ a4\n  4052: a5 = a0 <u a4\n  4055: a2 = a4\n  4057: t2 = u64 [sp + 0x198]\n  4061: s1 = t1 <u t2\n  4064: a5 = s1 if a1 == 0\n  4067: a1 = u64 [sp + 0x188]\n  4071: a4 = a3 - a1\n  4074: a3 = a3 <u a1\n  4077: a1 = u64 [sp + 0x190]\n  4081: a1 = t0 - a1\n  4084: t0 = 124, jump @930\n      : @149 [@dyn 62] (gas: 4)\n  4089: ra = 0x7e\n  4092: ecalli 6 // 'ref_time_left'\n  4094: t0 = 0x80\n  4098: jump @907\n      : @150 [@dyn 63] (gas: 1)\n  4101: t0 = 128, jump @907\n      : @151 [@dyn 64] (gas: 10)\n  4107: u64 [s1 + 416] = 0\n  4111: u64 [s1 + 408] = 0\n  4115: u64 [s1 + 400] = 0\n  4119: a0 = u64 [sp + 0x170]\n  4123: a2 = a0\n  4125: a4 = u64 [sp + 0x128]\n  4129: a0 = a0 | a4\n  4132: a1 = u64 [sp + 0x130]\n  4136: a5 = u64 [sp + 0x120]\n  4140: t0 = 130, jump @925\n      : @152 [@dyn 65] (gas: 2)\n  4146: u64 [s1 + 392] = 0\n  4150: jump @154 if a0 == 0\n      : @153 (gas: 1)\n  4153: jump @770\n      : @154 (gas: 4)\n  4156: s1 = u64 [sp + 0x198]\n  4160: a0 = s1\n  4162: a1 = a2\n  4164: ra = 132, jump @11\n      : @155 [@dyn 66] (gas: 4)\n  4170: u64 [sp + 0x130] = a0\n  4174: a1 = 0x20\n  4177: a0 = s1\n  4179: ra = 134, jump @11\n      : @156 [@dyn 67] (gas: 8)\n  4185: a2 = sp + 0x2118\n  4189: u32 [a2 + 424] = 0x20\n  4194: u64 [a2 + 480] = 0\n  4198: u64 [a2 + 472] = 0\n  4202: u64 [a2 + 464] = 0\n  4206: u64 [a2 + 456] = 0\n  4210: a1 = u64 [sp + 0x130]\n  4214: t0 = 136, jump @931\n      : @157 [@dyn 68] (gas: 8)\n  4220: a5 = u64 [sp + 0xa0]\n  4224: a5 = a5 | a0\n  4227: a1 = 0xffffffffffffffff\n  4230: a2 = 0xffffffffffffffff\n  4233: a0 = u64 [sp + 0xf0]\n  4237: a3 = u64 [sp + 0xa8]\n  4241: ecalli 0 // 'call'\n  4242: fallthrough\n      : @158 (gas: 1)\n  4243: jump @160 if a0 == 0\n      : @159 (gas: 1)\n  4246: jump @594\n      : @160 (gas: 2)\n  4249: ecalli 8 // 'return_data_size'\n  4251: fallthrough\n      : @161 (gas: 2)\n  4252: a3 = 0x20\n  4255: jump @163 if a0 >=u a3\n      : @162 (gas: 3)\n  4258: ecalli 8 // 'return_data_size'\n  4260: a3 = a0\n  4262: fallthrough\n      : @163 (gas: 22)\n  4263: s1 = 0\n  4265: a2 = u64 [sp + 0x198]\n  4269: t0 = u64 [sp + 0x190]\n  4273: a1 = u64 [sp + 0x188]\n  4277: a4 = u64 [sp + 0x180]\n  4281: u64 [sp + 0x190] = a3\n  4285: a5 = sp + 0x7ff\n  4289: a5 = a5 + 0x111\n  4293: a0 = a5 + 0x300\n  4297: u64 [a0 + 0x90] = a3\n  4301: u64 [a0 + 0xb0] = a2\n  4305: u64 [a5 + 920] = 0\n  4309: u64 [a0 + 0xb8] = a4\n  4313: u64 [a5 + 928] = 0\n  4317: u64 [a0 + 0xc0] = a1\n  4321: u64 [a5 + 936] = 0\n  4325: a0 = sp + 0x7ff\n  4329: a0 = a0 + 0x4c1\n  4333: a1 = sp + 0x7ff\n  4337: a1 = a1 + 0x4a1\n  4341: u64 [a5 + 0x3c8] = t0\n  4345: ra = 138, jump @839\n      : @164 [@dyn 69] (gas: 2)\n  4351: a1 = u64 [sp + 0x190]\n  4355: t0 = 140, jump @908\n      : @165 [@dyn 70] (gas: 1)\n  4361: jump @167 if a2 != 0\n      : @166 (gas: 1)\n  4364: jump @771\n      : @167 (gas: 4)\n  4367: a0 = sp + 0x7ff\n  4371: a0 = a0 + 0x481\n  4375: a1 = u64 [sp + 0x198]\n  4379: ra = 142, jump @7\n      : @168 [@dyn 71] (gas: 19)\n  4385: s1 = sp + 0x7ff\n  4389: s1 = s1 + 0x111\n  4393: a4 = s1 + 0x300\n  4397: a0 = u64 [a4 + 0x78]\n  4400: a1 = u64 [a4 + 0x88]\n  4404: a2 = u64 [a4 + 0x80]\n  4408: a3 = u64 [a4 + 0x70]\n  4411: a4 = u64 [sp + 0xd8]\n  4415: a0 = a0 & a4\n  4418: a4 = u64 [sp + 0xe8]\n  4422: a1 = a1 & a4\n  4425: a4 = u64 [sp + 0xf8]\n  4429: a2 = a2 & a4\n  4432: a4 = u64 [sp + 0xe0]\n  4436: a3 = a3 & a4\n  4439: a2 = a2 | a3\n  4442: a0 = a0 | a1\n  4445: a0 = a0 | a2\n  4448: jump @198 if a0 == 0\n      : @169 (gas: 4)\n  4452: a0 = sp + 0x7ff\n  4456: a0 = a0 + 0x461\n  4460: a1 = 0x40\n  4463: ra = 144, jump @7\n      : @170 [@dyn 72] (gas: 7)\n  4469: a0 = s1 + 0x300\n  4473: a3 = u64 [a0 + 0x68]\n  4476: a4 = u64 [a0 + 0x60]\n  4479: a5 = u64 [a0 + 0x58]\n  4482: a2 = u64 [a0 + 0x50]\n  4485: a0 = a5 | a3\n  4488: t0 = 146, jump @927\n      : @171 [@dyn 73] (gas: 1)\n  4494: jump @173 if a0 == 0\n      : @172 (gas: 1)\n  4497: jump @770\n      : @173 (gas: 13)\n  4500: u64 [s1 + 832] = 0\n  4504: u64 [s1 + 824] = 0\n  4508: u64 [s1 + 816] = 0\n  4512: a1 = sp + 0x7ff\n  4516: a1 = a1 + 0x441\n  4520: a0 = u64 [sp + 0x98]\n  4524: u64 [s1 + 0x348] = a0\n  4528: a0 = a2\n  4530: u64 [sp + 0x198] = a2\n  4534: u64 [sp + 0x190] = a3\n  4538: u64 [sp + 0x188] = a4\n  4542: u64 [sp + 0x180] = a5\n  4546: ra = 148, jump @9\n      : @174 [@dyn 74] (gas: 1)\n  4552: t0 = 150, jump @916\n      : @175 [@dyn 75] (gas: 29)\n  4558: a5 = s1 + 0x200\n  4562: u64 [a5 + 0xc8] = a4\n  4566: a4 = u64 [sp + 0x160]\n  4570: u64 [a5 + 0xc0] = a4\n  4574: a4 = u64 [sp + 0x168]\n  4578: u64 [a5 + 0xb8] = a4\n  4582: a4 = u64 [sp + 0x178]\n  4586: u64 [a5 + 0xb0] = a4\n  4590: a4 = u64 [sp + 0x100]\n  4594: u64 [a5 + 0xe8] = a4\n  4598: a4 = u64 [sp + 0x118]\n  4602: u64 [a5 + 0xe0] = a4\n  4606: a4 = u64 [sp + 0x110]\n  4610: u64 [a5 + 0xd8] = a4\n  4614: u64 [a5 + 0xf8] = a2\n  4618: u64 [a5 + 0xf0] = a0\n  4622: u64 [s1 + 0x300] = a3\n  4626: u64 [s1 + 0x308] = a1\n  4630: a0 = sp + 0x7ff\n  4634: a0 = a0 + 0x421\n  4638: a1 = sp + 0x7ff\n  4642: a1 = a1 + 0x401\n  4646: a2 = sp + 0x7ff\n  4650: a2 = a2 + 0x3e1\n  4654: a3 = sp + 0x7ff\n  4658: a3 = a3 + 0x3c1\n  4662: a4 = u64 [sp + 0x108]\n  4666: u64 [a5 + 0xd0] = a4\n  4670: ra = 152, jump @864\n      : @176 [@dyn 76] (gas: 17)\n  4676: a0 = u64 [s1 + 0x318]\n  4680: t0 = u64 [s1 + 0x328]\n  4684: t1 = u64 [s1 + 0x310]\n  4688: a3 = u64 [s1 + 0x320]\n  4692: a4 = u64 [sp + 0x180]\n  4696: a1 = a0 ^ a4\n  4699: a5 = a0 <u a4\n  4702: a2 = a4\n  4704: t2 = u64 [sp + 0x198]\n  4708: s1 = t1 <u t2\n  4711: a5 = s1 if a1 == 0\n  4714: a1 = u64 [sp + 0x188]\n  4718: a4 = a3 - a1\n  4721: a3 = a3 <u a1\n  4724: a1 = u64 [sp + 0x190]\n  4728: a1 = t0 - a1\n  4731: t0 = 154, jump @930\n      : @177 [@dyn 77] (gas: 4)\n  4737: ra = 0x9c\n  4741: ecalli 6 // 'ref_time_left'\n  4743: t0 = 0x9e\n  4747: jump @907\n      : @178 [@dyn 78] (gas: 1)\n  4750: t0 = 158, jump @907\n      : @179 [@dyn 79] (gas: 10)\n  4756: u64 [s1 + 544] = 0\n  4760: u64 [s1 + 536] = 0\n  4764: u64 [s1 + 528] = 0\n  4768: a0 = u64 [sp + 0x170]\n  4772: a2 = a0\n  4774: a4 = u64 [sp + 0x128]\n  4778: a0 = a0 | a4\n  4781: a1 = u64 [sp + 0x130]\n  4785: a5 = u64 [sp + 0x120]\n  4789: t0 = 160, jump @925\n      : @180 [@dyn 80] (gas: 2)\n  4795: u64 [s1 + 520] = 0\n  4799: jump @182 if a0 == 0\n      : @181 (gas: 1)\n  4802: jump @770\n      : @182 (gas: 4)\n  4805: s1 = u64 [sp + 0x198]\n  4809: a0 = s1\n  4811: a1 = a2\n  4813: ra = 162, jump @11\n      : @183 [@dyn 81] (gas: 4)\n  4819: u64 [sp + 0x130] = a0\n  4823: a1 = 0x20\n  4826: a0 = s1\n  4828: ra = 164, jump @11\n      : @184 [@dyn 82] (gas: 8)\n  4834: a2 = sp + 0x2118\n  4838: u32 [a2 + 552] = 0x20\n  4843: u64 [a2 + 608] = 0\n  4847: u64 [a2 + 600] = 0\n  4851: u64 [a2 + 592] = 0\n  4855: u64 [a2 + 584] = 0\n  4859: a1 = u64 [sp + 0x130]\n  4863: t0 = 166, jump @931\n      : @185 [@dyn 83] (gas: 8)\n  4869: a5 = u64 [sp + 0x88]\n  4873: a5 = a5 | a0\n  4876: a1 = 0xffffffffffffffff\n  4879: a2 = 0xffffffffffffffff\n  4882: a0 = u64 [sp + 0xf0]\n  4886: a3 = u64 [sp + 0x90]\n  4890: ecalli 0 // 'call'\n  4891: fallthrough\n      : @186 (gas: 1)\n  4892: jump @188 if a0 == 0\n      : @187 (gas: 1)\n  4895: jump @684\n      : @188 (gas: 2)\n  4898: ecalli 8 // 'return_data_size'\n  4900: fallthrough\n      : @189 (gas: 1)\n  4901: jump @191 if a0 >u 31\n      : @190 (gas: 4)\n  4905: ecalli 8 // 'return_data_size'\n  4907: a3 = a0\n  4909: s1 = 0\n  4911: jump @192\n      : @191 (gas: 3)\n  4913: s1 = 0\n  4915: a3 = 0x20\n  4918: fallthrough\n      : @192 (gas: 21)\n  4919: a2 = u64 [sp + 0x198]\n  4923: t0 = u64 [sp + 0x190]\n  4927: a1 = u64 [sp + 0x188]\n  4931: a4 = u64 [sp + 0x180]\n  4935: u64 [sp + 0x190] = a3\n  4939: a5 = sp + 0x7ff\n  4943: a5 = a5 + 0x111\n  4947: a0 = a5 + 0x200\n  4951: u64 [a0 + 0x50] = a3\n  4954: u64 [a0 + 0x70] = a2\n  4957: u64 [a0 + 88] = 0\n  4960: u64 [a0 + 0x78] = a4\n  4963: u64 [a0 + 96] = 0\n  4966: u64 [a0 + 0x80] = a1\n  4970: u64 [a0 + 104] = 0\n  4973: a0 = sp + 0x7ff\n  4977: a0 = a0 + 0x381\n  4981: a1 = sp + 0x7ff\n  4985: a1 = a1 + 0x361\n  4989: u64 [a5 + 0x288] = t0\n  4993: ra = 168, jump @839\n      : @193 [@dyn 84] (gas: 1)\n  4999: t0 = 170, jump @924\n      : @194 [@dyn 85] (gas: 3)\n  5005: s1 = s1 | s1\n  5008: a2 = a1 if s1 == 0\n  5011: jump @196 if a2 != 0\n      : @195 (gas: 1)\n  5014: jump @772\n      : @196 (gas: 4)\n  5017: a0 = sp + 0x7ff\n  5021: a0 = a0 + 0x341\n  5025: a1 = u64 [sp + 0x198]\n  5029: ra = 172, jump @7\n      : @197 [@dyn 86] (gas: 19)\n  5035: s1 = sp + 0x7ff\n  5039: s1 = s1 + 0x111\n  5043: a4 = s1 + 0x200\n  5047: a0 = u64 [a4 + 0x38]\n  5050: a1 = u64 [a4 + 0x48]\n  5053: a2 = u64 [a4 + 0x40]\n  5056: a3 = u64 [a4 + 0x30]\n  5059: a4 = u64 [sp + 0xd8]\n  5063: a0 = a0 & a4\n  5066: a4 = u64 [sp + 0xe8]\n  5070: a1 = a1 & a4\n  5073: a4 = u64 [sp + 0xf8]\n  5077: a2 = a2 & a4\n  5080: a4 = u64 [sp + 0xe0]\n  5084: a3 = a3 & a4\n  5087: a2 = a2 | a3\n  5090: a0 = a0 | a1\n  5093: a0 = a0 | a2\n  5096: jump @199 if a0 == 0\n      : @198 (gas: 2)\n  5099: a2 = u64 [sp + 0xc0]\n  5103: jump @220\n      : @199 (gas: 10)\n  5106: a0 = u64 [sp + 0x150]\n  5110: a1 = u64 [sp + 0x148]\n  5114: u64 [a1] = a0\n  5116: a0 = u64 [sp + 0x140]\n  5120: u64 [a1 + 0x8] = a0\n  5123: a0 = u64 [sp + 0x138]\n  5127: u32 [a1 + 0x10] = a0\n  5130: i32 a0 = a1 + 0\n  5132: ecalli 4 // 'code_size'\n  5134: fallthrough\n      : @200 (gas: 1)\n  5135: jump @202 if a0 != 0\n      : @201 (gas: 1)\n  5138: jump @775\n      : @202 (gas: 4)\n  5141: a0 = sp + 0x7ff\n  5145: a0 = a0 + 0x321\n  5149: a1 = 0x40\n  5152: ra = 174, jump @7\n      : @203 [@dyn 87] (gas: 14)\n  5158: a0 = s1 + 0x200\n  5162: a2 = u64 [a0 + 0x28]\n  5165: a3 = u64 [a0 + 0x20]\n  5168: a4 = u64 [a0 + 0x18]\n  5171: a1 = u64 [a0 + 0x10]\n  5174: a0 = a4 | a2\n  5177: u64 [sp + 0x198] = a1\n  5181: a1 = a1 | a3\n  5184: a1 = a1 | a0\n  5187: a1 = a1 >> 0x20\n  5190: a0 = a0 | a3\n  5193: a0 = a0 << 0x20\n  5196: a0 = a0 | a1\n  5199: jump @205 if a0 == 0\n      : @204 (gas: 1)\n  5202: jump @770\n      : @205 (gas: 12)\n  5205: u64 [s1 + 512] = 0\n  5209: u64 [s1 + 504] = 0\n  5213: u64 [s1 + 496] = 0\n  5217: a1 = sp + 0x7ff\n  5221: a1 = a1 + 0x301\n  5225: a0 = u64 [sp + 0x68]\n  5228: u64 [s1 + 0x208] = a0\n  5232: a0 = u64 [sp + 0x198]\n  5236: u64 [sp + 0x190] = a2\n  5240: u64 [sp + 0x188] = a3\n  5244: u64 [sp + 0x180] = a4\n  5248: ra = 176, jump @9\n      : @206 [@dyn 88] (gas: 49)\n  5254: a1 = u64 [sp + 0x198]\n  5258: a0 = a1 + 0x4\n  5261: a2 = a0 <u a1\n  5264: a3 = u64 [sp + 0x180]\n  5268: a1 = a3 + a2\n  5271: a3 = a1 <u a3\n  5274: a3 = a2 if a2 == 0\n  5277: a2 = u64 [sp + 0x188]\n  5281: a3 = a3 + a2\n  5284: a2 = a3 <u a2\n  5287: a4 = u64 [sp + 0x190]\n  5291: a2 = a2 + a4\n  5294: a4 = u64 [sp + 0x158]\n  5298: u64 [s1 + 0x188] = a4\n  5302: a4 = u64 [sp + 0x160]\n  5306: u64 [s1 + 0x180] = a4\n  5310: a4 = u64 [sp + 0x78]\n  5313: u64 [s1 + 0x168] = a4\n  5317: u64 [s1 + 0x160] = a4\n  5321: u64 [s1 + 0x158] = a4\n  5325: a4 = u64 [sp + 0x80]\n  5329: u64 [s1 + 0x150] = a4\n  5333: a4 = u64 [sp + 0x168]\n  5337: u64 [s1 + 0x178] = a4\n  5341: a4 = u64 [sp + 0x178]\n  5345: u64 [s1 + 0x170] = a4\n  5349: a4 = u64 [sp + 0x100]\n  5353: u64 [s1 + 0x1a8] = a4\n  5357: a4 = u64 [sp + 0x118]\n  5361: u64 [s1 + 0x1a0] = a4\n  5365: a4 = u64 [sp + 0x110]\n  5369: u64 [s1 + 0x198] = a4\n  5373: u64 [s1 + 0x1b8] = a1\n  5377: u64 [s1 + 0x1b0] = a0\n  5381: u64 [s1 + 0x1c0] = a3\n  5385: u64 [s1 + 0x1c8] = a2\n  5389: a0 = sp + 0x7ff\n  5393: a0 = a0 + 0x2e1\n  5397: a1 = sp + 0x7ff\n  5401: a1 = a1 + 0x2c1\n  5405: a2 = sp + 0x7ff\n  5409: a2 = a2 + 0x2a1\n  5413: a3 = sp + 0x7ff\n  5417: a3 = a3 + 0x281\n  5421: a4 = sp + 0x7ff\n  5425: a4 = a4 + 0x261\n  5429: a5 = u64 [sp + 0x108]\n  5433: u64 [s1 + 0x190] = a5\n  5437: ra = 178, jump @888\n      : @207 [@dyn 89] (gas: 32)\n  5443: a0 = u64 [s1 + 0x1d8]\n  5447: t0 = u64 [s1 + 0x1e8]\n  5451: t1 = u64 [s1 + 0x1d0]\n  5455: a3 = u64 [s1 + 0x1e0]\n  5459: a4 = u64 [sp + 0x180]\n  5463: a1 = a0 ^ a4\n  5466: a5 = a0 <u a4\n  5469: a2 = a4\n  5471: t2 = u64 [sp + 0x198]\n  5475: s1 = t1 <u t2\n  5478: a5 = s1 if a1 == 0\n  5481: a1 = u64 [sp + 0x188]\n  5485: a4 = a3 - a1\n  5488: a3 = a3 <u a1\n  5491: a1 = u64 [sp + 0x190]\n  5495: a1 = t0 - a1\n  5498: a1 = a1 - a3\n  5501: a3 = a4 <u a5\n  5504: a1 = a1 - a3\n  5507: u64 [sp + 0x168] = a1\n  5511: a4 = a4 - a5\n  5514: u64 [sp + 0x160] = a4\n  5518: a0 = a0 - a2\n  5521: a0 = a0 - s1\n  5524: u64 [sp + 0x158] = a0\n  5528: a0 = t1 - t2\n  5531: u64 [sp + 0x170] = a0\n  5535: ra = 0xb4\n  5539: ecalli 6 // 'ref_time_left'\n  5541: a3 = a0\n  5543: t0 = 0xb6\n  5547: jump @907\n      : @208 [@dyn 90] (gas: 2)\n  5550: a3 = a0\n  5552: t0 = 182, jump @907\n      : @209 [@dyn 91] (gas: 10)\n  5558: u64 [s1 + 672] = 0\n  5562: u64 [s1 + 664] = 0\n  5566: u64 [s1 + 656] = 0\n  5570: a0 = u64 [sp + 0x170]\n  5574: a2 = a0\n  5576: a4 = u64 [sp + 0x160]\n  5580: a0 = a0 | a4\n  5583: a1 = u64 [sp + 0x168]\n  5587: a5 = u64 [sp + 0x158]\n  5591: t0 = 184, jump @925\n      : @210 [@dyn 92] (gas: 2)\n  5597: u64 [s1 + 648] = 0\n  5601: jump @212 if a0 == 0\n      : @211 (gas: 1)\n  5604: jump @770\n      : @212 (gas: 6)\n  5607: a1 = a2\n  5609: i32 a0 = a2 + 0\n  5611: u64 [sp + 0x160] = a0\n  5615: a0 = u64 [sp + 0x198]\n  5619: u64 [sp + 0x158] = a3\n  5623: ra = 186, jump @11\n      : @213 [@dyn 93] (gas: 4)\n  5629: u64 [sp + 0x168] = a0\n  5633: a0 = u64 [sp + 0x198]\n  5637: a1 = 0\n  5639: ra = 188, jump @11\n      : @214 [@dyn 94] (gas: 18)\n  5645: u32 [s1 + 680] = 0\n  5649: a1 = u64 [sp + 0x160]\n  5653: a1 = a1 >u 0\n  5655: a2 = u64 [sp + 0x50]\n  5658: a3 = u64 [sp + 0x158]\n  5662: a2 = a2 <u a3\n  5665: a1 = a1 | a2\n  5668: a2 = -a1\n  5670: a3 = s1 + 0x200\n  5674: u64 [a3 + 0xe0] = a2\n  5678: u64 [a3 + 0xd8] = a2\n  5682: u64 [a3 + 0xd0] = a2\n  5686: u64 [a3 + 0xc8] = a2\n  5690: a1 = a1 << 0x23\n  5693: a3 = u64 [sp + 0x70]\n  5696: a3 = a3 | a1\n  5699: a1 = u64 [sp + 0x168]\n  5703: t0 = 190, jump @931\n      : @215 [@dyn 95] (gas: 8)\n  5709: a5 = u64 [sp + 0x58]\n  5712: a5 = a5 | a0\n  5715: a1 = 0xffffffffffffffff\n  5718: a2 = 0xffffffffffffffff\n  5721: a0 = a3\n  5723: a3 = u64 [sp + 0x60]\n  5726: ecalli 0 // 'call'\n  5727: fallthrough\n      : @216 (gas: 1)\n  5728: jump @218 if a0 == 0\n      : @217 (gas: 1)\n  5731: jump @701\n      : @218 (gas: 20)\n  5734: a2 = sp + 0x7ff\n  5738: a2 = a2 + 0x111\n  5742: u64 [a2 + 264] = 0\n  5746: u64 [a2 + 256] = 0\n  5750: u64 [a2 + 248] = 0\n  5754: u64 [a2 + 240] = 0\n  5758: a0 = u64 [sp + 0x198]\n  5762: a4 = a2 + 0x100\n  5766: u64 [a4 + 0x10] = a0\n  5769: a0 = u64 [sp + 0x180]\n  5773: u64 [a4 + 0x18] = a0\n  5776: a0 = u64 [sp + 0x188]\n  5780: u64 [a4 + 0x20] = a0\n  5783: a0 = sp + 0x7ff\n  5787: a0 = a0 + 0x221\n  5791: a1 = sp + 0x7ff\n  5795: a1 = a1 + 0x201\n  5799: a3 = u64 [sp + 0x190]\n  5803: u64 [a4 + 0x28] = a3\n  5806: ra = 192, jump @839\n      : @219 [@dyn 96] (gas: 6)\n  5812: a0 = u64 [sp + 0xd0]\n  5816: a0 = a0 + 0x1\n  5819: a2 = u64 [sp + 0xc0]\n  5823: a0 = a0 & a2\n  5826: u64 [sp + 0xd0] = a0\n  5830: fallthrough\n      : @220 (gas: 7)\n  5831: u64 [sp + 360] = 0\n  5835: u64 [sp + 352] = 0\n  5839: u64 [sp + 344] = 0\n  5843: a0 = u64 [sp + 0x178]\n  5847: a0 = a0 + 0x1\n  5850: a3 = a0 & 0xffffffffffffffff\n  5853: jump @139\n      : @221 (gas: 2)\n  5856: a2 = u64 [sp + 0xc0]\n  5860: fallthrough\n      : @222 (gas: 5)\n  5861: a3 = 0\n  5863: a0 = u64 [sp + 0x80]\n  5867: a0 = a0 + 0x1\n  5870: a1 = a0 & a2\n  5873: jump @106\n      : @223 (gas: 9)\n  5876: s1 = sp + 0x2118\n  5880: u64 [s1 + 1504] = 0\n  5884: u64 [s1 + 1496] = 0\n  5888: u64 [s1 + 1488] = 0\n  5892: u64 [s1 + 1480] = 0\n  5896: a0 = sp + 0x2000\n  5900: i32 a0 = a0 + 0x6e0\n  5904: ecalli 11 // 'value_transferred'\n  5906: fallthrough\n      : @224 (gas: 9)\n  5907: a4 = s1 + 0x500\n  5911: a0 = u64 [a4 + 0xd8]\n  5915: a1 = u64 [a4 + 0xe0]\n  5919: a2 = u64 [a4 + 0xd0]\n  5923: a3 = u64 [a4 + 0xc8]\n  5927: a1 = a1 | a2\n  5930: a0 = a0 | a3\n  5933: a0 = a0 | a1\n  5936: jump @226 if a0 == 0\n      : @225 (gas: 1)\n  5939: jump @784\n      : @226 (gas: 3)\n  5942: a0 = u64 [sp + 0x198]\n  5946: a0 = i32 [a0]\n  5948: jump @228 if a0 >u 99\n      : @227 (gas: 1)\n  5952: jump @785\n      : @228 (gas: 5)\n  5955: a0 = sp + 0x2000\n  5959: i32 a0 = a0 + 0x700\n  5963: a1 = 0x4\n  5966: ecalli 2 // 'call_data_load'\n  5968: fallthrough\n      : @229 (gas: 14)\n  5969: a0 = sp + 0x2118\n  5973: a1 = u64 [a0 + 0x5f8]\n  5977: a2 = u64 [a0 + 0x600]\n  5981: a0 = 0x100000000\n  5991: a0 = a0 ^ a1\n  5994: a0 = a0 | a2\n  5997: u64 [sp + 0x90] = a1\n  6001: a1 = a1 >> 0x20\n  6004: a1 = a1 <u 0x1\n  6007: u64 [sp + 0x88] = a2\n  6011: a1 = 0 if a2 != 0\n  6013: a1 = 0 if a0 == 0\n  6015: s1 = sp + 0x1918\n  6019: jump @231 if a1 != 0\n      : @230 (gas: 1)\n  6022: jump @786\n      : @231 (gas: 10)\n  6025: a1 = sp + 0x2118\n  6029: a0 = u64 [a1 + 0x5f0]\n  6033: u64 [sp + 0x80] = a0\n  6037: a0 = u64 [a1 + 0x5e8]\n  6041: u64 [sp + 0x78] = a0\n  6044: a0 = sp + 0x2000\n  6048: i32 a0 = a0 + 0x720\n  6052: a1 = 0x24\n  6055: ecalli 2 // 'call_data_load'\n  6057: fallthrough\n      : @232 (gas: 9)\n  6058: a2 = sp + 0x2118\n  6062: a3 = a2 + 0x600\n  6066: a0 = u64 [a3 + 0x20]\n  6069: a1 = u64 [a3 + 0x18]\n  6072: a2 = u64 [a3 + 0x10]\n  6075: a3 = a1 | a0\n  6078: a4 = a2 <u 0x1\n  6081: a4 = 0 if a3 != 0\n  6083: jump @234 if a4 != 0\n      : @233 (gas: 1)\n  6086: jump @787\n      : @234 (gas: 24)\n  6089: a3 = sp + 0x2118\n  6093: a3 = u64 [a3 + 0x608]\n  6097: a4 = u64 [sp + 0x198]\n  6101: t0 = u32 [a4]\n  6103: a5 = a3 + 0x4\n  6106: a3 = a5 <u a3\n  6109: a4 = a2 + a3\n  6112: a2 = a4 <u a2\n  6115: a2 = a3 if a3 == 0\n  6118: a2 = a2 + a1\n  6121: a1 = a2 <u a1\n  6124: a3 = a0 + a1\n  6127: u64 [s1 + 1056] = 0\n  6131: u64 [s1 + 1048] = 0\n  6135: u64 [s1 + 1040] = 0\n  6139: u64 [s1 + 0x408] = t0\n  6143: u64 [s1 + 0x428] = a5\n  6147: u64 [s1 + 0x430] = a4\n  6151: u64 [s1 + 0x438] = a2\n  6155: a0 = sp + 0x1d60\n  6159: a1 = sp + 0x1d40\n  6163: a2 = sp + 0x1d20\n  6167: u64 [s1 + 0x440] = a3\n  6171: ra = 194, jump @828\n      : @235 [@dyn 97] (gas: 22)\n  6177: a1 = s1 + 0x400\n  6181: a0 = u64 [a1 + 0x60]\n  6184: u64 [sp + 0xd8] = a0\n  6188: a0 = u64 [a1 + 0x58]\n  6191: u64 [sp + 0xd0] = a0\n  6195: a0 = u64 [a1 + 0x50]\n  6198: u64 [sp + 0xc8] = a0\n  6202: a0 = u64 [a1 + 0x48]\n  6205: u64 [sp + 0xc0] = a0\n  6209: a0 = u64 [a1 + 0x80]\n  6213: u64 [sp + 0x140] = a0\n  6217: a0 = u64 [a1 + 0x78]\n  6220: u64 [sp + 0x170] = a0\n  6224: a0 = u64 [a1 + 0x70]\n  6227: u64 [sp + 0x138] = a0\n  6231: a0 = u64 [a1 + 0x68]\n  6234: u64 [sp + 0x178] = a0\n  6238: a0 = sp + 0x2000\n  6242: i32 a0 = a0 + 0x740\n  6246: a1 = 0x44\n  6249: ecalli 2 // 'call_data_load'\n  6251: fallthrough\n      : @236 (gas: 9)\n  6252: a2 = sp + 0x2118\n  6256: a3 = a2 + 0x600\n  6260: a0 = u64 [a3 + 0x40]\n  6263: a1 = u64 [a3 + 0x38]\n  6266: a2 = u64 [a3 + 0x30]\n  6269: a3 = a1 | a0\n  6272: a4 = a2 <u 0x1\n  6275: a4 = 0 if a3 != 0\n  6277: jump @238 if a4 != 0\n      : @237 (gas: 1)\n  6280: jump @788\n      : @238 (gas: 25)\n  6283: a3 = sp + 0x2118\n  6287: a3 = u64 [a3 + 0x628]\n  6291: a4 = u64 [sp + 0x198]\n  6295: t0 = u32 [a4]\n  6297: a5 = a3 + 0x4\n  6300: a3 = a5 <u a3\n  6303: a4 = a2 + a3\n  6306: a2 = a4 <u a2\n  6309: a2 = a3 if a3 == 0\n  6312: a2 = a2 + a1\n  6315: a1 = a2 <u a1\n  6318: a3 = a0 + a1\n  6321: u64 [s1 + 928] = 0\n  6325: u64 [s1 + 920] = 0\n  6329: u64 [s1 + 912] = 0\n  6333: u64 [s1 + 0x388] = t0\n  6337: u64 [s1 + 0x3a8] = a5\n  6341: a5 = s1 + 0x300\n  6345: u64 [a5 + 0xb0] = a4\n  6349: u64 [a5 + 0xb8] = a2\n  6353: a0 = sp + 0x1ce0\n  6357: a1 = sp + 0x1cc0\n  6361: a2 = sp + 0x1ca0\n  6365: u64 [a5 + 0xc0] = a3\n  6369: ra = 196, jump @828\n      : @239 [@dyn 98] (gas: 23)\n  6375: s1 = u64 [sp + 0x178]\n  6379: a0 = s1 <u 0x1\n  6382: ra = u64 [sp + 0x138]\n  6386: t2 = ra - a0\n  6389: a1 = s1 | ra\n  6392: a1 = a1 <u 0x1\n  6395: a4 = u64 [sp + 0x170]\n  6399: a2 = a4 <u a1\n  6402: a0 = u64 [sp + 0x140]\n  6406: a2 = a0 - a2\n  6409: a1 = a4 - a1\n  6412: t0 = s1 + 0xffffffffffffffff\n  6415: a3 = a1 >u 0\n  6417: a5 = a2 >u 0\n  6419: a5 = a3 if a2 == 0\n  6422: t1 = t2 >u 0\n  6424: a3 = t0 <u 0x32\n  6427: a3 = a3 ^ 0x1\n  6430: a3 = t1 if t2 != 0\n  6433: a1 = a1 | a2\n  6436: a3 = a5 if a1 != 0\n  6439: t0 = sp + 0x1918\n  6443: jump @241 if a3 == 0\n      : @240 (gas: 1)\n  6446: jump @789\n      : @241 (gas: 16)\n  6449: a5 = a0\n  6451: a1 = a4\n  6453: a0 = s1\n  6455: a4 = t0 + 0x300\n  6459: a2 = u64 [a4 + 0xe8]\n  6463: s1 = u64 [a4 + 0xf8]\n  6467: t1 = u64 [t0 + 0x400]\n  6471: a3 = u64 [a4 + 0xf0]\n  6475: a0 = a0 ^ a2\n  6478: a1 = a1 ^ s1\n  6481: a0 = a0 | a1\n  6484: a1 = ra ^ a3\n  6487: a2 = a5 ^ t1\n  6490: a1 = a1 | a2\n  6493: a0 = a0 | a1\n  6496: jump @243 if a0 == 0\n      : @242 (gas: 1)\n  6499: jump @793\n      : @243 (gas: 12)\n  6502: a1 = t0 + 0x300\n  6506: a0 = u64 [a1 + 0xe0]\n  6510: u64 [sp + 0xb8] = a0\n  6514: a0 = u64 [a1 + 0xd8]\n  6518: u64 [sp + 0xb0] = a0\n  6522: a0 = u64 [a1 + 0xd0]\n  6526: u64 [sp + 0xa8] = a0\n  6530: a0 = u64 [a1 + 0xc8]\n  6534: u64 [sp + 0xa0] = a0\n  6538: a0 = 0xffffffff\n  6548: u64 [sp + 0x40] = a0\n  6551: ra = 198, jump @0\n      : @244 [@dyn 99] (gas: 43)\n  6557: a1 = u64 [0x30038]\n  6562: u64 [sp + 72] = 0\n  6565: ra = 0\n  6567: a5 = 0\n  6569: t1 = 0\n  6571: t0 = 0\n  6573: a2 = u64 [0x30030]\n  6578: a0 = u64 [0x30040]\n  6583: a1 = reverse a1\n  6585: a3 = a1 >> 0x20\n  6588: a2 = reverse a2\n  6590: a4 = a2 << 0x20\n  6593: a3 = a3 | a4\n  6596: u64 [sp + 0x130] = a3\n  6600: a1 = a1 << 0x20\n  6603: a0 = reverse a0\n  6605: a0 = a0 >> 0x20\n  6608: a0 = a0 | a1\n  6611: u64 [sp + 0x128] = a0\n  6615: a2 = a2 >> 0x20\n  6618: u64 [sp + 0x120] = a2\n  6622: a2 = 0x30010\n  6627: a0 = sp + 0x27a0\n  6631: a0 = a0 << 0x20\n  6634: a0 = a0 >> 0x20\n  6637: a1 = sp + 0x27e0\n  6641: a1 = a1 << 0x20\n  6644: a0 = a0 | a1\n  6647: u64 [sp + 0x68] = a0\n  6650: u64 [sp + 0x118] = a2\n  6654: a0 = a2 << 0x20\n  6657: a0 = a0 >> 0x20\n  6660: u64 [sp + 0x60] = a0\n  6663: a0 = sp + 0x27c0\n  6667: a0 = a0 << 0x20\n  6670: u64 [sp + 0x58] = a0\n  6673: a0 = 0x9c14eb6e00000000\n  6683: u64 [sp + 0x70] = a0\n  6686: u64 [sp + 80] = 0x8fc\n  6691: a0 = sp + 0x2000\n  6695: i32 a0 = a0 + 0x760\n  6699: u64 [sp + 0x98] = a0\n  6703: fallthrough\n      : @245 (gas: 19)\n  6704: s1 = u64 [sp + 0x140]\n  6708: a2 = u64 [sp + 0x138]\n  6712: a0 = u64 [sp + 0x178]\n  6716: a0 = ra <u a0\n  6719: a1 = a5 ^ a2\n  6722: t2 = a2\n  6724: a2 = a5 <u a2\n  6727: a2 = a0 if a1 == 0\n  6730: a0 = u64 [sp + 0x170]\n  6734: a1 = t1 <u a0\n  6737: u64 [sp + 0x198] = a1\n  6741: a1 = t0 ^ s1\n  6744: a3 = t0 <u s1\n  6747: a4 = u64 [sp + 0x198]\n  6751: a3 = a4 if a1 == 0\n  6754: a0 = t1 ^ a0\n  6757: a0 = a0 | a1\n  6760: a3 = a2 if a0 == 0\n  6763: jump @247 if a3 != 0\n      : @246 (gas: 1)\n  6766: jump @529\n      : @247 (gas: 30)\n  6769: a0 = sp + 0x1918\n  6773: a1 = s1\n  6775: s1 = a0\n  6777: u64 [sp + 0x168] = ra\n  6781: u64 [a0 + 0x288] = ra\n  6785: a0 = u64 [sp + 0x178]\n  6789: u64 [s1 + 0x2a8] = a0\n  6793: a0 = u64 [sp + 0xc0]\n  6797: u64 [s1 + 0x2c8] = a0\n  6801: u64 [sp + 0x160] = a5\n  6805: u64 [s1 + 0x290] = a5\n  6809: u64 [s1 + 0x2b0] = t2\n  6813: a0 = u64 [sp + 0xc8]\n  6817: u64 [s1 + 0x2d0] = a0\n  6821: u64 [sp + 0x150] = t1\n  6825: u64 [s1 + 0x298] = t1\n  6829: a0 = u64 [sp + 0x170]\n  6833: u64 [s1 + 0x2b8] = a0\n  6837: a0 = u64 [sp + 0xd0]\n  6841: u64 [s1 + 0x2d8] = a0\n  6845: u64 [sp + 0x158] = t0\n  6849: u64 [s1 + 0x2a0] = t0\n  6853: u64 [s1 + 0x2c0] = a1\n  6857: a0 = sp + 0x1c00\n  6861: a1 = sp + 0x1be0\n  6865: a2 = sp + 0x1bc0\n  6869: a3 = sp + 0x1ba0\n  6873: a4 = u64 [sp + 0xd8]\n  6877: u64 [s1 + 0x2e0] = a4\n  6881: ra = 200, jump @896\n      : @248 [@dyn 100] (gas: 13)\n  6887: a0 = u64 [s1 + 0x300]\n  6891: a4 = s1 + 0x200\n  6895: a2 = u64 [a4 + 0xf8]\n  6899: a3 = u64 [a4 + 0xf0]\n  6903: a1 = u64 [a4 + 0xe8]\n  6907: a0 = a0 | a3\n  6910: a3 = a1 | a2\n  6913: a3 = a3 | a0\n  6916: a3 = a3 >> 0x20\n  6919: a0 = a0 | a2\n  6922: a0 = a0 << 0x20\n  6925: a0 = a0 | a3\n  6928: jump @250 if a0 == 0\n      : @249 (gas: 1)\n  6931: jump @770\n      : @250 (gas: 4)\n  6934: i32 a1 = a1 + 0\n  6936: a0 = u64 [sp + 0x98]\n  6940: ecalli 2 // 'call_data_load'\n  6942: fallthrough\n      : @251 (gas: 15)\n  6943: a5 = sp + 0x2118\n  6947: a0 = a5 + 0x600\n  6951: a4 = u64 [a0 + 0x60]\n  6954: a3 = u64 [a0 + 0x58]\n  6957: a2 = u64 [a0 + 0x50]\n  6960: a0 = a4 >u 0\n  6962: a1 = a3 >u 0\n  6964: a1 = a0 if a4 != 0\n  6967: u64 [sp + 0x110] = a3\n  6971: u64 [sp + 0x108] = a4\n  6975: a0 = a3 | a4\n  6978: u64 [sp + 0x148] = a2\n  6982: a2 = a2 >u 0\n  6984: a2 = a1 if a0 != 0\n  6987: jump @253 if a2 == 0\n      : @252 (gas: 1)\n  6990: jump @758\n      : @253 (gas: 32)\n  6993: a0 = u64 [a5 + 0x648]\n  6997: u64 [sp + 0x100] = a0\n  7001: s1 = sp + 0x1918\n  7005: a0 = u64 [sp + 0x168]\n  7009: u64 [s1 + 0x208] = a0\n  7013: a0 = u64 [sp + 0x178]\n  7017: u64 [s1 + 0x228] = a0\n  7021: a0 = u64 [sp + 0xa0]\n  7025: u64 [s1 + 0x248] = a0\n  7029: a0 = u64 [sp + 0x160]\n  7033: u64 [s1 + 0x210] = a0\n  7037: a0 = u64 [sp + 0x138]\n  7041: u64 [s1 + 0x230] = a0\n  7045: a0 = u64 [sp + 0xa8]\n  7049: u64 [s1 + 0x250] = a0\n  7053: a0 = u64 [sp + 0x150]\n  7057: u64 [s1 + 0x218] = a0\n  7061: a0 = u64 [sp + 0x170]\n  7065: u64 [s1 + 0x238] = a0\n  7069: a0 = u64 [sp + 0xb0]\n  7073: u64 [s1 + 0x258] = a0\n  7077: a0 = u64 [sp + 0x158]\n  7081: u64 [s1 + 0x220] = a0\n  7085: a0 = u64 [sp + 0x140]\n  7089: u64 [s1 + 0x240] = a0\n  7093: a0 = sp + 0x1b80\n  7097: a1 = sp + 0x1b60\n  7101: a2 = sp + 0x1b40\n  7105: a3 = sp + 0x1b20\n  7109: a4 = u64 [sp + 0xb8]\n  7113: u64 [s1 + 0x260] = a4\n  7117: ra = 202, jump @896\n      : @254 [@dyn 101] (gas: 13)\n  7123: a4 = s1 + 0x200\n  7127: a0 = u64 [a4 + 0x80]\n  7131: a2 = u64 [a4 + 0x78]\n  7134: a3 = u64 [a4 + 0x70]\n  7137: a1 = u64 [a4 + 0x68]\n  7140: a0 = a0 | a3\n  7143: a3 = a1 | a2\n  7146: a3 = a3 | a0\n  7149: a3 = a3 >> 0x20\n  7152: a0 = a0 | a2\n  7155: a0 = a0 << 0x20\n  7158: a0 = a0 | a3\n  7161: jump @256 if a0 == 0\n      : @255 (gas: 1)\n  7164: jump @770\n      : @256 (gas: 6)\n  7167: i32 a1 = a1 + 0\n  7169: a0 = sp + 0x2000\n  7173: i32 a0 = a0 + 0x780\n  7177: ra = 0xcc\n  7181: ecalli 2 // 'call_data_load'\n  7183: fallthrough\n      : @257 [@dyn 102] (gas: 8)\n  7184: a0 = sp + 0x2118\n  7188: a1 = a0 + 0x600\n  7192: a5 = u64 [a1 + 0x80]\n  7196: a4 = u64 [a1 + 0x78]\n  7199: a3 = u64 [a1 + 0x70]\n  7202: a2 = u64 [a1 + 0x68]\n  7205: a0 = a3 | a5\n  7208: t0 = 206, jump @927\n      : @258 [@dyn 103] (gas: 1)\n  7214: jump @260 if a0 == 0\n      : @259 (gas: 1)\n  7217: jump @759\n      : @260 (gas: 14)\n  7220: u64 [sp + 0xe0] = a5\n  7224: u64 [sp + 0xe8] = a4\n  7228: u64 [sp + 0xf0] = a3\n  7232: u64 [sp + 0xf8] = a2\n  7236: a0 = u64 [sp + 0x128]\n  7240: a1 = u64 [sp + 0x118]\n  7244: u64 [a1] = a0\n  7246: a0 = u64 [sp + 0x130]\n  7250: u64 [a1 + 0x8] = a0\n  7253: a0 = u64 [sp + 0x120]\n  7257: u32 [a1 + 0x10] = a0\n  7260: i32 a0 = a1 + 0\n  7262: ecalli 4 // 'code_size'\n  7264: fallthrough\n      : @261 (gas: 1)\n  7265: jump @263 if a0 != 0\n      : @262 (gas: 1)\n  7268: jump @760\n      : @263 (gas: 3)\n  7271: a0 = sp + 0x1b00\n  7275: a1 = 0x40\n  7278: ra = 208, jump @7\n      : @264 [@dyn 104] (gas: 15)\n  7284: s1 = sp + 0x1918\n  7288: a2 = u64 [s1 + 0x200]\n  7292: a0 = s1 + 0x100\n  7296: a3 = u64 [a0 + 0xf8]\n  7300: a4 = u64 [a0 + 0xf0]\n  7304: a1 = u64 [a0 + 0xe8]\n  7308: a0 = a4 | a2\n  7311: u64 [sp + 0x198] = a1\n  7315: a1 = a1 | a3\n  7318: a1 = a1 | a0\n  7321: a1 = a1 >> 0x20\n  7324: a0 = a0 | a3\n  7327: a0 = a0 << 0x20\n  7330: a0 = a0 | a1\n  7333: jump @266 if a0 == 0\n      : @265 (gas: 1)\n  7336: jump @770\n      : @266 (gas: 11)\n  7339: u64 [s1 + 472] = 0\n  7343: u64 [s1 + 464] = 0\n  7347: u64 [s1 + 456] = 0\n  7351: a1 = sp + 0x1ae0\n  7355: a0 = u64 [sp + 0x70]\n  7358: u64 [s1 + 0x1e0] = a0\n  7362: a0 = u64 [sp + 0x198]\n  7366: u64 [sp + 0x190] = a2\n  7370: u64 [sp + 0x188] = a3\n  7374: u64 [sp + 0x180] = a4\n  7378: ra = 210, jump @9\n      : @267 [@dyn 105] (gas: 46)\n  7384: a1 = u64 [sp + 0x198]\n  7388: a0 = a1 + 0x4\n  7391: a1 = a0 <u a1\n  7394: a3 = u64 [sp + 0x180]\n  7398: a2 = a3 + a1\n  7401: a3 = a2 <u a3\n  7404: a3 = a1 if a1 == 0\n  7407: a1 = u64 [sp + 0x188]\n  7411: a3 = a3 + a1\n  7414: a1 = a3 <u a1\n  7417: a4 = u64 [sp + 0x190]\n  7421: a1 = a1 + a4\n  7424: a4 = u64 [sp + 0xe0]\n  7428: u64 [s1 + 0x140] = a4\n  7432: a4 = u64 [sp + 0xe8]\n  7436: u64 [s1 + 0x138] = a4\n  7440: a4 = u64 [sp + 0xf0]\n  7444: u64 [s1 + 0x130] = a4\n  7448: a4 = u64 [sp + 0xf8]\n  7452: u64 [s1 + 0x128] = a4\n  7456: a4 = u64 [sp + 0x108]\n  7460: u64 [s1 + 0x160] = a4\n  7464: a4 = u64 [sp + 0x110]\n  7468: u64 [s1 + 0x158] = a4\n  7472: a4 = u64 [sp + 0x148]\n  7476: u64 [s1 + 0x150] = a4\n  7480: a4 = u64 [sp + 0x100]\n  7484: u64 [s1 + 0x148] = a4\n  7488: a4 = u64 [sp + 0x88]\n  7492: u64 [s1 + 0x180] = a4\n  7496: a4 = u64 [sp + 0x90]\n  7500: u64 [s1 + 0x178] = a4\n  7504: a4 = u64 [sp + 0x80]\n  7508: u64 [s1 + 0x170] = a4\n  7512: u64 [s1 + 0x190] = a2\n  7516: u64 [s1 + 0x188] = a0\n  7520: u64 [s1 + 0x198] = a3\n  7524: u64 [s1 + 0x1a0] = a1\n  7528: a0 = sp + 0x1ac0\n  7532: a1 = sp + 0x1aa0\n  7536: a2 = sp + 0x1a80\n  7540: a3 = sp + 0x1a60\n  7544: a4 = sp + 0x1a40\n  7548: a5 = u64 [sp + 0x78]\n  7551: u64 [s1 + 0x168] = a5\n  7555: ra = 212, jump @888\n      : @268 [@dyn 106] (gas: 30)\n  7561: a0 = u64 [s1 + 0x1b0]\n  7565: t0 = u64 [s1 + 0x1c0]\n  7569: t1 = u64 [s1 + 0x1a8]\n  7573: a3 = u64 [s1 + 0x1b8]\n  7577: a4 = u64 [sp + 0x180]\n  7581: a1 = a0 ^ a4\n  7584: a5 = a0 <u a4\n  7587: a2 = a4\n  7589: t2 = u64 [sp + 0x198]\n  7593: s1 = t1 <u t2\n  7596: a5 = s1 if a1 == 0\n  7599: a1 = u64 [sp + 0x188]\n  7603: a4 = a3 - a1\n  7606: a3 = a3 <u a1\n  7609: a1 = u64 [sp + 0x190]\n  7613: a1 = t0 - a1\n  7616: a1 = a1 - a3\n  7619: a3 = a4 <u a5\n  7622: a1 = a1 - a3\n  7625: u64 [sp + 0x110] = a1\n  7629: a4 = a4 - a5\n  7632: u64 [sp + 0x108] = a4\n  7636: a0 = a0 - a2\n  7639: a0 = a0 - s1\n  7642: u64 [sp + 0x100] = a0\n  7646: a0 = t1 - t2\n  7649: u64 [sp + 0x148] = a0\n  7653: ra = 0xd6\n  7657: ecalli 6 // 'ref_time_left'\n  7659: fallthrough\n      : @269 [@dyn 107] (gas: 19)\n  7660: a3 = a0\n  7662: a0 = u64 [sp + 0x130]\n  7666: a1 = u64 [sp + 0x118]\n  7670: u64 [a1 + 0x8] = a0\n  7673: a0 = u64 [sp + 0x128]\n  7677: u64 [a1] = a0\n  7679: a0 = u64 [sp + 0x120]\n  7683: u32 [a1 + 0x10] = a0\n  7686: s1 = sp + 0x2118\n  7690: u64 [s1 + 1696] = 0\n  7694: u64 [s1 + 1688] = 0\n  7698: u64 [s1 + 1680] = 0\n  7702: a0 = u64 [sp + 0x148]\n  7706: a2 = a0\n  7708: a4 = u64 [sp + 0x108]\n  7712: a0 = a0 | a4\n  7715: a1 = u64 [sp + 0x110]\n  7719: a5 = u64 [sp + 0x100]\n  7723: t0 = 216, jump @925\n      : @270 [@dyn 108] (gas: 2)\n  7729: u64 [s1 + 1672] = 0\n  7733: jump @272 if a0 == 0\n      : @271 (gas: 1)\n  7736: jump @770\n      : @272 (gas: 6)\n  7739: a1 = a2\n  7741: i32 a0 = a2 + 0\n  7743: u64 [sp + 0x108] = a0\n  7747: a0 = u64 [sp + 0x198]\n  7751: u64 [sp + 0x100] = a3\n  7755: ra = 218, jump @11\n      : @273 [@dyn 109] (gas: 4)\n  7761: u64 [sp + 0x110] = a0\n  7765: a0 = u64 [sp + 0x198]\n  7769: a1 = 0\n  7771: ra = 220, jump @11\n      : @274 [@dyn 110] (gas: 32)\n  7777: u32 [s1 + 1704] = 0\n  7781: a1 = u64 [sp + 0x108]\n  7785: a1 = a1 >u 0\n  7787: a2 = u64 [sp + 0x50]\n  7790: a3 = u64 [sp + 0x100]\n  7794: a2 = a2 <u a3\n  7797: a1 = a1 | a2\n  7800: a2 = -a1\n  7802: a3 = s1 + 0x600\n  7806: u64 [a3 + 0xe0] = a2\n  7810: u64 [a3 + 0xd8] = a2\n  7814: u64 [a3 + 0xd0] = a2\n  7818: u64 [a3 + 0xc8] = a2\n  7822: a1 = a1 << 0x23\n  7825: a3 = u64 [sp + 0x60]\n  7828: a3 = a3 | a1\n  7831: a1 = u64 [sp + 0x110]\n  7835: a1 = a1 << 0x20\n  7838: a1 = a1 >> 0x20\n  7841: a4 = u64 [sp + 0x148]\n  7845: a4 = a4 << 0x20\n  7848: a4 = a4 | a1\n  7851: a0 = a0 << 0x20\n  7854: a0 = a0 >> 0x20\n  7857: a5 = u64 [sp + 0x58]\n  7860: a5 = a5 | a0\n  7863: a1 = 0xffffffffffffffff\n  7866: a2 = 0xffffffffffffffff\n  7869: a0 = a3\n  7871: a3 = u64 [sp + 0x68]\n  7874: ecalli 0 // 'call'\n  7875: fallthrough\n      : @275 (gas: 1)\n  7876: jump @278 if a0 != 0\n      : @276 (gas: 17)\n  7879: a2 = sp + 0x1918\n  7883: u64 [a2 + 256] = 0\n  7887: u64 [a2 + 248] = 0\n  7891: u64 [a2 + 240] = 0\n  7895: u64 [a2 + 232] = 0\n  7899: a0 = u64 [sp + 0x198]\n  7903: a4 = a2 + 0x100\n  7907: u64 [a4 + 0x8] = a0\n  7910: a0 = u64 [sp + 0x180]\n  7914: u64 [a4 + 0x10] = a0\n  7917: a0 = u64 [sp + 0x188]\n  7921: u64 [a4 + 0x18] = a0\n  7924: a0 = sp + 0x1a20\n  7928: a1 = sp + 0x1a00\n  7932: a3 = u64 [sp + 0x190]\n  7936: u64 [a4 + 0x20] = a3\n  7939: ra = 222, jump @839\n      : @277 [@dyn 111] (gas: 6)\n  7945: a0 = u64 [sp + 0x48]\n  7948: a0 = a0 + 0x1\n  7951: a1 = u64 [sp + 0x40]\n  7954: a0 = a0 & a1\n  7957: u64 [sp + 0x48] = a0\n  7960: fallthrough\n      : @278 (gas: 13)\n  7961: ra = u64 [sp + 0x168]\n  7965: ra = ra + 0x1\n  7968: a0 = ra <u 0x1\n  7971: a5 = u64 [sp + 0x160]\n  7975: a5 = a5 + a0\n  7978: a0 = ra | a5\n  7981: a0 = a0 <u 0x1\n  7984: a1 = u64 [sp + 0x150]\n  7988: t1 = a1 + a0\n  7991: a1 = t1 <u a1\n  7994: t0 = u64 [sp + 0x158]\n  7998: t0 = t0 + a1\n  8001: jump @245\n      : @279 (gas: 8)\n  8004: u64 [s1 + 1248] = 0\n  8008: u64 [s1 + 1240] = 0\n  8012: u64 [s1 + 1232] = 0\n  8016: u64 [s1 + 1224] = 0\n  8020: a0 = sp + 0x2000\n  8024: i32 a0 = a0 + 0xfffffffffffffde0\n  8028: ecalli 11 // 'value_transferred'\n  8030: fallthrough\n      : @280 (gas: 9)\n  8031: a4 = s1 + 0x400\n  8035: a0 = u64 [a4 + 0xd8]\n  8039: a1 = u64 [a4 + 0xe0]\n  8043: a2 = u64 [a4 + 0xd0]\n  8047: a3 = u64 [a4 + 0xc8]\n  8051: a1 = a1 | a2\n  8054: a0 = a0 | a3\n  8057: a0 = a0 | a1\n  8060: jump @282 if a0 == 0\n      : @281 (gas: 1)\n  8063: jump @797\n      : @282 (gas: 13)\n  8066: a0 = u64 [sp + 0x198]\n  8070: a0 = u32 [a0]\n  8072: s1 = sp + 0x7ff\n  8076: s1 = s1 + 0x111\n  8080: u64 [s1 + 136] = 0\n  8084: u64 [s1 + 128] = 0\n  8088: u64 [s1 + 0x70] = a0\n  8091: a0 = sp + 0x7ff\n  8095: a0 = a0 + 0x1a1\n  8099: a1 = sp + 0x7ff\n  8103: a1 = a1 + 0x181\n  8107: u64 [s1 + 120] = 0\n  8110: ra = 224, jump @815\n      : @283 [@dyn 112] (gas: 19)\n  8116: a0 = u64 [s1 + 0xa8]\n  8120: u64 [sp + 0xd0] = a0\n  8124: a0 = u64 [s1 + 0xa0]\n  8128: u64 [sp + 0xe8] = a0\n  8132: a0 = u64 [s1 + 0x98]\n  8136: u64 [sp + 0xe0] = a0\n  8140: a0 = u64 [s1 + 0x90]\n  8144: u64 [sp + 0xd8] = a0\n  8148: a0 = u64 [s1 + 0xc8]\n  8152: u64 [sp + 0x80] = a0\n  8156: a0 = u64 [s1 + 0xc0]\n  8160: u64 [sp + 0x78] = a0\n  8163: a0 = u64 [s1 + 0xb8]\n  8167: u64 [sp + 0x70] = a0\n  8170: a0 = u64 [s1 + 0xb0]\n  8174: u64 [sp + 0x88] = a0\n  8178: a0 = u64 [s1 + 0xd0]\n  8182: u64 [sp + 0x180] = a0\n  8186: ra = 226, jump @0\n      : @284 [@dyn 113] (gas: 15)\n  8192: a1 = u64 [0x30030]\n  8197: u64 [sp + 0x198] = a1\n  8201: a1 = u64 [0x30040]\n  8206: u64 [sp + 0x190] = a1\n  8210: a0 = u64 [0x30038]\n  8215: u64 [sp + 0x188] = a0\n  8219: a0 = 0x222ae78600000000\n  8229: u64 [s1 + 0x68] = a0\n  8232: u64 [s1 + 96] = 0\n  8235: u64 [s1 + 88] = 0\n  8238: a0 = 0x80\n  8242: a1 = sp + 0x7ff\n  8246: a1 = a1 + 0x161\n  8250: u64 [s1 + 80] = 0\n  8253: ra = 228, jump @9\n      : @285 [@dyn 114] (gas: 2)\n  8259: ecalli 6 // 'ref_time_left'\n  8261: fallthrough\n      : @286 (gas: 29)\n  8262: a0 = u64 [sp + 0x188]\n  8266: a0 = reverse a0\n  8268: a1 = a0 << 0x20\n  8271: a2 = u64 [sp + 0x190]\n  8275: a2 = reverse a2\n  8277: a2 = a2 >> 0x20\n  8280: a3 = a2 | a1\n  8283: a0 = a0 >> 0x20\n  8286: a1 = u64 [sp + 0x198]\n  8290: a1 = reverse a1\n  8292: a4 = 0x30010\n  8297: a2 = a1 << 0x20\n  8300: a0 = a0 | a2\n  8303: a1 = a1 >> 0x20\n  8306: u64 [sp + 0x148] = a0\n  8310: u64 [0x30018] = a0\n  8315: a5 = 0x20008\n  8320: u64 [sp + 0x150] = a3\n  8324: u64 [0x30010] = a3\n  8329: u64 [sp + 0x158] = a4\n  8333: u64 [sp + 0x140] = a1\n  8337: u32 [0x30020] = a1\n  8342: a2 = sp + 0x1918\n  8346: u64 [a2 + 1280] = 0\n  8350: a0 = i32 [0x20008]\n  8355: u64 [a2 + 1272] = 0\n  8359: u64 [a2 + 1264] = 0\n  8363: u64 [a2 + 1256] = 0\n  8367: jump @288 if a0 >u 159\n      : @287 (gas: 2)\n  8372: u32 [0x20008] = 0xa0\n  8379: fallthrough\n      : @288 (gas: 32)\n  8380: u64 [sp + 0x198] = a5\n  8384: u32 [a2 + 1288] = 0x20\n  8389: u64 [a2 + 1344] = 0\n  8393: u64 [a2 + 1336] = 0\n  8397: u64 [a2 + 1328] = 0\n  8401: u64 [a2 + 1320] = 0\n  8405: a0 = u64 [sp + 0x158]\n  8409: a0 = a0 << 0x20\n  8412: a1 = a0 >> 0x20\n  8415: a0 = 0x1800000000\n  8425: u64 [sp + 0x68] = a1\n  8428: a0 = a0 | a1\n  8431: a1 = sp + 0x1e00\n  8435: a1 = a1 << 0x20\n  8438: a3 = a1 >> 0x20\n  8441: s1 = 0x20010\n  8446: a1 = sp + 0x1e40\n  8450: a1 = a1 << 0x20\n  8453: a3 = a3 | a1\n  8456: a1 = s1 + 0x80\n  8460: a1 = a1 << 0x20\n  8463: a5 = a1 >> 0x20\n  8466: a1 = 0x400000000\n  8476: a4 = a5 | a1\n  8479: a1 = sp + 0x1e20\n  8483: a1 = a1 << 0x20\n  8486: a5 = a5 | a1\n  8489: a1 = 0xffffffffffffffff\n  8492: a2 = 0xffffffffffffffff\n  8495: u64 [sp + 0xa8] = a0\n  8499: ecalli 0 // 'call'\n  8500: fallthrough\n      : @289 (gas: 1)\n  8501: jump @291 if a0 == 0\n      : @290 (gas: 1)\n  8504: jump @512\n      : @291 (gas: 3)\n  8507: u64 [sp + 0x40] = s1\n  8510: ecalli 8 // 'return_data_size'\n  8512: fallthrough\n      : @292 (gas: 2)\n  8513: a1 = 0x20\n  8516: jump @294 if a0 >=u a1\n      : @293 (gas: 3)\n  8519: ecalli 8 // 'return_data_size'\n  8521: a1 = a0\n  8523: fallthrough\n      : @294 (gas: 19)\n  8524: s1 = 0\n  8526: u64 [sp + 0x190] = a1\n  8530: a0 = sp + 0x1000\n  8534: u64 [a0 + 0xfffffffffffff900] = a1\n  8538: a2 = sp + 0x7ff\n  8542: a2 = a2 + 0x111\n  8546: u64 [a2 + 40] = 0\n  8549: u64 [a2 + 32] = 0\n  8552: u64 [a2 + 24] = 0\n  8555: u64 [a2 + 16] = 0x80\n  8560: a0 = sp + 0x1000\n  8564: u64 [a0 + 4294965512] = 0\n  8568: u64 [a2 + 0] = 0\n  8570: a0 = sp + 0x7ff\n  8574: a0 = a0 + 0x121\n  8578: a1 = sp + 0x7ff\n  8582: a1 = a1 + 0x101\n  8586: u64 [a2 + 8] = 0\n  8589: ra = 230, jump @839\n      : @295 [@dyn 115] (gas: 2)\n  8595: a1 = u64 [sp + 0x190]\n  8599: t0 = 232, jump @908\n      : @296 [@dyn 116] (gas: 1)\n  8605: jump @298 if a2 != 0\n      : @297 (gas: 1)\n  8608: jump @811\n      : @298 (gas: 13)\n  8611: a0 = sp + 0x1000\n  8615: u64 [a0 + 4294965464] = 0\n  8619: a0 = sp + 0x1000\n  8623: u64 [a0 + 4294965456] = 0\n  8627: a1 = sp + 0x1000\n  8631: u64 [a1 + 4294965440] = 0x80\n  8637: a0 = sp + 0x7ff\n  8641: a0 = a0 + 0xe1\n  8645: a1 = sp + 0x7ff\n  8649: a1 = a1 + 0xc1\n  8653: a2 = sp + 0x1000\n  8657: u64 [a2 + 4294965448] = 0\n  8661: ra = 234, jump @849\n      : @299 [@dyn 117] (gas: 4)\n  8667: a0 = sp + 0x1000\n  8671: a0 = u64 [a0 + 0xfffffffffffff8e0]\n  8675: a1 = u64 [sp + 0x88]\n  8679: jump @301 if a1 <u a0\n      : @300 (gas: 1)\n  8682: jump @806\n      : @301 (gas: 9)\n  8685: a0 = u64 [sp + 0x180]\n  8689: a0 = a0 << 0x20\n  8692: a1 = a0 >> 0x20\n  8695: a0 = a1 + 0xffffffffffffffff\n  8698: a0 = a0 <u 0x32\n  8701: a0 = 0 if a1 == 0\n  8703: u64 [sp + 0x138] = a1\n  8707: a0 = 0 if a1 == 0\n  8709: jump @303 if a0 != 0\n      : @302 (gas: 1)\n  8712: jump @807\n      : @303 (gas: 4)\n  8715: a0 = sp + 0x7ff\n  8719: a0 = a0 + 0x61\n  8722: a1 = 0x40\n  8725: ra = 236, jump @7\n      : @304 [@dyn 118] (gas: 10)\n  8731: a0 = sp + 0x1000\n  8735: a5 = u64 [a0 + 0xfffffffffffff878]\n  8739: a0 = sp + 0x1000\n  8743: a4 = u64 [a0 + 0xfffffffffffff870]\n  8747: a0 = sp + 0x1000\n  8751: a3 = u64 [a0 + 0xfffffffffffff868]\n  8755: a0 = sp + 0x1000\n  8759: a0 = u64 [a0 + 0xfffffffffffff860]\n  8763: a2 = a3 | a5\n  8766: t0 = 238, jump @922\n      : @305 [@dyn 119] (gas: 1)\n  8772: jump @307 if a1 == 0\n      : @306 (gas: 1)\n  8775: jump @770\n      : @307 (gas: 16)\n  8778: a1 = sp + 0x1000\n  8782: u64 [a1 + 4294965328] = 0\n  8786: a1 = sp + 0x1000\n  8790: u64 [a1 + 4294965320] = 0\n  8794: a1 = sp + 0x1000\n  8798: u64 [a1 + 4294965312] = 0\n  8802: a2 = 0xe08454a00000000\n  8812: a1 = sp + 0x7ff\n  8816: a1 = a1 + 0x41\n  8819: t0 = sp + 0x1000\n  8823: u64 [t0 + 0xfffffffffffff858] = a2\n  8827: u64 [sp + 0x198] = a0\n  8831: u64 [sp + 0x190] = a3\n  8835: u64 [sp + 0x188] = a4\n  8839: u64 [sp + 0x180] = a5\n  8843: ra = 240, jump @9\n      : @308 [@dyn 120] (gas: 10)\n  8849: s1 = u64 [sp + 0x198]\n  8853: a0 = u64 [sp + 0x188]\n  8857: a1 = u64 [sp + 0x180]\n  8861: a0 = a0 | a1\n  8864: a1 = 0xfffffffc\n  8874: a1 = s1 <u a1\n  8877: a2 = u64 [sp + 0x190]\n  8881: a1 = 0 if a2 != 0\n  8883: a1 = 0 if a0 != 0\n  8885: jump @310 if a1 != 0\n      : @309 (gas: 1)\n  8888: jump @770\n      : @310 (gas: 17)\n  8891: a0 = u64 [sp + 0xe8]\n  8895: a0 = a0 << 0x20\n  8898: a1 = a0 >> 0x20\n  8901: i32 a0 = s1 + 0x4\n  8904: a2 = sp + 0x1000\n  8908: u64 [a2 + 4294965304] = 0\n  8912: a2 = u64 [sp + 0xd8]\n  8916: a3 = sp + 0x1000\n  8920: u64 [a3 + 0xfffffffffffff820] = a2\n  8924: a2 = sp + 0x1000\n  8928: u64 [a2 + 0xfffffffffffff830] = a1\n  8932: a1 = sp + 0x7ff\n  8936: a1 = a1 + 0x21\n  8939: a2 = u64 [sp + 0xe0]\n  8943: a3 = sp + 0x1000\n  8947: u64 [a3 + 0xfffffffffffff828] = a2\n  8951: ra = 242, jump @9\n      : @311 [@dyn 121] (gas: 4)\n  8957: ra = 0xf4\n  8961: ecalli 6 // 'ref_time_left'\n  8963: t0 = 0xf6\n  8967: jump @913\n      : @312 [@dyn 122] (gas: 1)\n  8970: t0 = 246, jump @913\n      : @313 [@dyn 123] (gas: 7)\n  8976: u64 [s1 + 1408] = 0\n  8980: u64 [s1 + 1400] = 0\n  8984: u64 [s1 + 1392] = 0\n  8988: u64 [s1 + 1384] = 0\n  8992: a1 = 0x24\n  8995: a0 = u64 [sp + 0x198]\n  8999: ra = 248, jump @11\n      : @314 [@dyn 124] (gas: 4)\n  9005: u64 [sp + 0x178] = a0\n  9009: a1 = 0x20\n  9012: a0 = u64 [sp + 0x198]\n  9016: ra = 250, jump @11\n      : @315 [@dyn 125] (gas: 10)\n  9022: u32 [s1 + 1416] = 0x20\n  9027: u64 [s1 + 1472] = 0\n  9031: u64 [s1 + 1464] = 0\n  9035: u64 [s1 + 1456] = 0\n  9039: u64 [s1 + 1448] = 0\n  9043: a1 = sp + 0x1e80\n  9047: a1 = a1 << 0x20\n  9050: a1 = a1 >> 0x20\n  9053: a2 = 0x1ec0\n  9057: t0 = 252, jump @911\n      : @316 [@dyn 126] (gas: 2)\n  9063: i32 a1 = a1 + 0xfffffffffffffea0\n  9067: t0 = 254, jump @919\n      : @317 [@dyn 127] (gas: 2)\n  9073: ecalli 0 // 'call'\n  9074: fallthrough\n      : @318 (gas: 1)\n  9075: jump @320 if a0 == 0\n      : @319 (gas: 1)\n  9078: jump @554\n      : @320 (gas: 2)\n  9081: ecalli 8 // 'return_data_size'\n  9083: fallthrough\n      : @321 (gas: 2)\n  9084: a1 = 0x20\n  9087: jump @323 if a0 >=u a1\n      : @322 (gas: 3)\n  9090: ecalli 8 // 'return_data_size'\n  9092: a1 = a0\n  9094: fallthrough\n      : @323 (gas: 18)\n  9095: s1 = 0\n  9097: a2 = u64 [sp + 0x198]\n  9101: a3 = u64 [sp + 0x190]\n  9105: a0 = u64 [sp + 0x188]\n  9109: a5 = u64 [sp + 0x180]\n  9113: u64 [sp + 0x178] = a1\n  9117: a4 = sp + 0x700\n  9121: u64 [a4 + 0xc0] = a1\n  9125: u64 [a4 + 0xe0] = a2\n  9129: u64 [a4 + 200] = 0\n  9133: u64 [a4 + 0xe8] = a3\n  9137: u64 [a4 + 208] = 0\n  9141: u64 [a4 + 0xf0] = a0\n  9145: u64 [a4 + 216] = 0\n  9149: a0 = sp + 0x7e0\n  9153: a1 = sp + 0x7c0\n  9157: u64 [a4 + 0xf8] = a5\n  9161: ra = 256, jump @839\n      : @324 [@dyn 128] (gas: 32)\n  9167: t0 = u64 [sp + 0x198]\n  9171: a1 = u64 [sp + 0x178]\n  9175: a0 = a1 + t0\n  9178: a1 = a0 <u a1\n  9181: t1 = u64 [sp + 0x190]\n  9185: a2 = t1\n  9187: a2 = a2 + a1\n  9190: a3 = a2 ^ 0\n  9192: a4 = a2 <u 0\n  9194: a4 = a1 if a3 == 0\n  9197: a5 = u64 [sp + 0x188]\n  9201: a1 = a5\n  9203: a4 = a4 + a1\n  9206: t2 = a4 <u a1\n  9209: a1 = a1 <u 0\n  9211: a3 = u64 [sp + 0x180]\n  9215: s1 = a3\n  9217: a1 = a1 + s1\n  9220: t2 = t2 + a1\n  9223: s1 = sp + 0x700\n  9227: u64 [s1 + 0x70] = a4\n  9230: u64 [s1 + 0x68] = a2\n  9233: u64 [s1 + 0x60] = a0\n  9236: u64 [s1 + 0x98] = a3\n  9240: u64 [s1 + 0x90] = a5\n  9244: u64 [s1 + 0x88] = t1\n  9248: u64 [s1 + 0x80] = t0\n  9252: a0 = sp + 0x7a0\n  9256: a1 = sp + 0x780\n  9260: a2 = sp + 0x760\n  9264: u64 [s1 + 0x78] = t2\n  9267: ra = 258, jump @855\n      : @325 [@dyn 129] (gas: 4)\n  9273: s1 = u64 [sp + 0x7a0]\n  9277: a0 = sp + 0x740\n  9281: a1 = 0x40\n  9284: ra = 260, jump @7\n      : @326 [@dyn 130] (gas: 7)\n  9290: a1 = sp + 0x700\n  9294: a3 = u64 [a1 + 0x58]\n  9297: a4 = u64 [a1 + 0x50]\n  9300: a5 = u64 [a1 + 0x48]\n  9303: a0 = u64 [a1 + 0x40]\n  9306: a2 = a5 | a3\n  9309: t0 = 262, jump @922\n      : @327 [@dyn 131] (gas: 1)\n  9315: jump @329 if a1 == 0\n      : @328 (gas: 1)\n  9318: jump @770\n      : @329 (gas: 13)\n  9321: u64 [sp + 0x110] = s1\n  9325: s1 = sp + 0x700\n  9329: u64 [s1 + 48] = 0\n  9332: u64 [s1 + 40] = 0\n  9335: u64 [s1 + 32] = 0\n  9338: a2 = 0x319bec5400000000\n  9348: a1 = sp + 0x720\n  9352: u64 [s1 + 0x38] = a2\n  9355: u64 [sp + 0x198] = a0\n  9359: u64 [sp + 0x190] = a3\n  9363: u64 [sp + 0x188] = a4\n  9367: s1 = a5\n  9369: ra = 264, jump @9\n      : @330 [@dyn 132] (gas: 1)\n  9375: t0 = 266, jump @917\n      : @331 [@dyn 133] (gas: 25)\n  9381: a5 = sp + 0x600\n  9385: u64 [a5 + 0xb8] = a1\n  9389: a1 = u64 [sp + 0x78]\n  9392: u64 [a5 + 0xb0] = a1\n  9396: a1 = u64 [sp + 0x70]\n  9399: u64 [a5 + 0xa8] = a1\n  9403: a1 = u64 [sp + 0x88]\n  9407: u64 [a5 + 0xa0] = a1\n  9411: a1 = u64 [sp + 0xd0]\n  9415: u64 [a5 + 0xd8] = a1\n  9419: a1 = u64 [sp + 0xe8]\n  9423: u64 [a5 + 0xd0] = a1\n  9427: a1 = u64 [sp + 0xe0]\n  9431: u64 [a5 + 0xc8] = a1\n  9435: a1 = u64 [sp + 0xd8]\n  9439: u64 [a5 + 0xc0] = a1\n  9443: u64 [a5 + 0xe8] = a2\n  9447: u64 [a5 + 0xe0] = a0\n  9451: u64 [a5 + 0xf0] = a3\n  9455: a0 = sp + 0x700\n  9459: a1 = sp + 0x6e0\n  9463: a2 = sp + 0x6c0\n  9467: a3 = sp + 0x6a0\n  9471: u64 [a5 + 0xf8] = a4\n  9475: ra = 268, jump @864\n      : @332 [@dyn 134] (gas: 30)\n  9481: a1 = sp + 0x700\n  9485: a0 = u64 [a1 + 0x8]\n  9488: t2 = u64 [a1 + 0x18]\n  9491: t0 = u64 [a1]\n  9493: a3 = u64 [a1 + 0x10]\n  9496: a4 = a0 ^ s1\n  9499: a5 = a0 <u s1\n  9502: t1 = u64 [sp + 0x198]\n  9506: a2 = t0 <u t1\n  9509: a5 = a2 if a4 == 0\n  9512: a1 = u64 [sp + 0x188]\n  9516: a4 = a3 - a1\n  9519: a3 = a3 <u a1\n  9522: a1 = u64 [sp + 0x190]\n  9526: a1 = t2 - a1\n  9529: a1 = a1 - a3\n  9532: a3 = a4 <u a5\n  9535: a1 = a1 - a3\n  9538: u64 [sp + 0x180] = a1\n  9542: a4 = a4 - a5\n  9545: u64 [sp + 0x178] = a4\n  9549: u64 [sp + 0x168] = s1\n  9553: a0 = a0 - s1\n  9556: a0 = a0 - a2\n  9559: u64 [sp + 0x170] = a0\n  9563: s1 = t0 - t1\n  9566: ra = 0x10e\n  9570: ecalli 6 // 'ref_time_left'\n  9572: t0 = 0x110\n  9576: jump @938\n      : @333 [@dyn 135] (gas: 1)\n  9579: t0 = 272, jump @938\n      : @334 [@dyn 136] (gas: 9)\n  9585: a2 = sp + a0\n  9588: u64 [a2 + 1536] = 0\n  9592: u64 [a2 + 1528] = 0\n  9596: u64 [a2 + 1520] = 0\n  9600: a4 = u64 [sp + 0x178]\n  9604: a0 = s1 | a4\n  9607: a1 = u64 [sp + 0x180]\n  9611: a5 = u64 [sp + 0x170]\n  9615: t0 = 274, jump @925\n      : @335 [@dyn 137] (gas: 2)\n  9621: u64 [a2 + 1512] = 0\n  9625: jump @337 if a0 == 0\n      : @336 (gas: 1)\n  9628: jump @770\n      : @337 (gas: 6)\n  9631: a3 = s1\n  9633: s1 = u64 [sp + 0x198]\n  9637: a0 = s1\n  9639: a1 = a3\n  9641: u64 [sp + 0x160] = a3\n  9645: ra = 276, jump @11\n      : @338 [@dyn 138] (gas: 5)\n  9651: u64 [sp + 0x180] = a0\n  9655: a1 = 0x20\n  9658: a0 = s1\n  9660: s1 = 0x20\n  9663: ra = 278, jump @11\n      : @339 [@dyn 139] (gas: 11)\n  9669: a1 = sp + 0x1918\n  9673: u32 [a1 + 0x608] = s1\n  9677: u64 [a1 + 1600] = 0\n  9681: u64 [a1 + 1592] = 0\n  9685: u64 [a1 + 1584] = 0\n  9689: u64 [a1 + 1576] = 0\n  9693: a1 = sp + 0x1f00\n  9697: a1 = a1 << 0x20\n  9700: a1 = a1 >> 0x20\n  9703: a2 = 0x1f40\n  9707: t0 = 280, jump @929\n      : @340 [@dyn 140] (gas: 2)\n  9713: i32 a1 = a1 + 0xffffffffffffff20\n  9717: t0 = 282, jump @919\n      : @341 [@dyn 141] (gas: 2)\n  9723: ecalli 0 // 'call'\n  9724: fallthrough\n      : @342 (gas: 1)\n  9725: jump @344 if a0 == 0\n      : @343 (gas: 1)\n  9728: jump @584\n      : @344 (gas: 2)\n  9731: ecalli 8 // 'return_data_size'\n  9733: fallthrough\n      : @345 (gas: 1)\n  9734: jump @347 if a0 <u s1\n      : @346 (gas: 1)\n  9737: jump @604\n      : @347 (gas: 3)\n  9740: ecalli 8 // 'return_data_size'\n  9742: s1 = 0\n  9744: jump @605\n      : @348 (gas: 9)\n  9747: s1 = sp + 0x2118\n  9751: u64 [s1 + 1472] = 0\n  9755: u64 [s1 + 1464] = 0\n  9759: u64 [s1 + 1456] = 0\n  9763: u64 [s1 + 1448] = 0\n  9767: a0 = sp + 0x2000\n  9771: i32 a0 = a0 + 0x6c0\n  9775: ecalli 11 // 'value_transferred'\n  9777: fallthrough\n      : @349 (gas: 9)\n  9778: a4 = s1 + 0x500\n  9782: a0 = u64 [a4 + 0xb8]\n  9786: a1 = u64 [a4 + 0xc0]\n  9790: a2 = u64 [a4 + 0xb0]\n  9794: a3 = u64 [a4 + 0xa8]\n  9798: a1 = a1 | a2\n  9801: a0 = a0 | a3\n  9804: a0 = a0 | a1\n  9807: jump @351 if a0 == 0\n      : @350 (gas: 1)\n  9810: jump @798\n      : @351 (gas: 4)\n  9813: a0 = u64 [sp + 0x198]\n  9817: a0 = i32 [a0]\n  9819: s1 = sp + 0x1918\n  9823: jump @353 if a0 >u 3\n      : @352 (gas: 1)\n  9827: jump @799\n      : @353 (gas: 3)\n  9830: a0 = sp + 0x19e0\n  9834: a1 = 0x40\n  9837: ra = 284, jump @7\n      : @354 [@dyn 142] (gas: 8)\n  9843: a0 = u64 [s1 + 0xe0]\n  9847: u64 [sp + 0x198] = a0\n  9851: a0 = u64 [s1 + 0xd8]\n  9855: u64 [sp + 0x190] = a0\n  9859: a0 = u64 [s1 + 0xd0]\n  9863: u64 [sp + 0x188] = a0\n  9867: s1 = u64 [s1 + 0xc8]\n  9871: ra = 286, jump @0\n      : @355 [@dyn 143] (gas: 11)\n  9877: a0 = u64 [sp + 0x198]\n  9881: a1 = u64 [sp + 0x188]\n  9885: a0 = a0 | a1\n  9888: a2 = u64 [sp + 0x190]\n  9892: a1 = s1 | a2\n  9895: a1 = a1 | a0\n  9898: a1 = a1 >> 0x20\n  9901: a0 = a0 | a2\n  9904: a0 = a0 << 0x20\n  9907: a0 = a0 | a1\n  9910: jump @357 if a0 == 0\n      : @356 (gas: 1)\n  9913: jump @770\n      : @357 (gas: 14)\n  9916: a3 = s1\n  9918: a2 = u64 [0x30030]\n  9923: a1 = u64 [0x30038]\n  9928: a0 = u32 [0x30040]\n  9933: a4 = sp + 0x1918\n  9937: u64 [a4 + 192] = 0\n  9941: u64 [a4 + 0xb8] = a0\n  9945: u64 [a4 + 0xb0] = a1\n  9949: a1 = sp + 0x19c0\n  9953: u64 [a4 + 0xa8] = a2\n  9957: s1 = a3\n  9959: a0 = a3\n  9961: ra = 0x120\n  9965: jump @9\n      : @358 (gas: 3)\n  9968: s1 = a3\n  9970: a0 = a3\n  9972: ra = 288, jump @9\n      : @359 [@dyn 144] (gas: 3)\n  9978: a1 = 0x20\n  9981: a0 = s1\n  9983: ra = 290, jump @11\n      : @360 [@dyn 145] (gas: 5)\n  9989: i32 a1 = a0 + 0\n  9991: a2 = 0x20\n  9994: a0 = 0\n  9996: ecalli 9 // 'seal_return'\n  9998: fallthrough\n      : @361 (gas: 1)\n  9999: jump @363 if a0 == 1637274245\n      : @362 (gas: 1)\n 10006: jump @778\n      : @363 (gas: 9)\n 10009: s1 = sp + 0x2118\n 10013: u64 [s1 + 800] = 0\n 10017: u64 [s1 + 792] = 0\n 10021: u64 [s1 + 784] = 0\n 10025: u64 [s1 + 776] = 0\n 10029: a0 = sp + 0x2000\n 10033: i32 a0 = a0 + 0x420\n 10037: ecalli 11 // 'value_transferred'\n 10039: fallthrough\n      : @364 (gas: 9)\n 10040: a4 = s1 + 0x300\n 10044: a0 = u64 [a4 + 0x18]\n 10047: a1 = u64 [a4 + 0x20]\n 10050: a2 = u64 [a4 + 0x10]\n 10053: a3 = u64 [a4 + 0x8]\n 10056: a1 = a1 | a2\n 10059: a0 = a0 | a3\n 10062: a0 = a0 | a1\n 10065: jump @366 if a0 == 0\n      : @365 (gas: 1)\n 10068: jump @800\n      : @366 (gas: 10)\n 10071: a0 = u64 [sp + 0x198]\n 10075: a0 = u32 [a0]\n 10077: s1 = sp + 0x1918\n 10081: u64 [s1 + 64] = 0\n 10084: u64 [s1 + 56] = 0\n 10087: u64 [s1 + 0x28] = a0\n 10090: a0 = sp + 0x1960\n 10094: a1 = sp + 0x1940\n 10098: u64 [s1 + 48] = 0\n 10101: ra = 292, jump @815\n      : @367 [@dyn 146] (gas: 2)\n 10107: a2 = u32 [s1 + 0x88]\n 10111: t0 = 294, jump @939\n      : @368 [@dyn 147] (gas: 3)\n 10117: u64 [sp + 0x158] = a2\n 10121: a1 = a0 if a2 == 0\n 10124: jump @370 if a1 == 0\n      : @369 (gas: 1)\n 10127: jump @801\n      : @370 (gas: 17)\n 10130: a0 = u64 [s1 + 0x60]\n 10133: u64 [sp + 0xd0] = a0\n 10137: a0 = u64 [s1 + 0x58]\n 10140: u64 [sp + 0xe8] = a0\n 10144: a0 = u64 [s1 + 0x50]\n 10147: u64 [sp + 0xe0] = a0\n 10151: a0 = u64 [s1 + 0x48]\n 10154: u64 [sp + 0xd8] = a0\n 10158: a0 = u64 [s1 + 0x80]\n 10162: u64 [sp + 0x88] = a0\n 10166: a0 = u64 [s1 + 0x78]\n 10169: u64 [sp + 0x80] = a0\n 10173: a0 = u64 [s1 + 0x70]\n 10176: u64 [sp + 0x78] = a0\n 10179: a0 = u64 [s1 + 0x68]\n 10182: u64 [sp + 0x70] = a0\n 10185: ra = 296, jump @0\n      : @371 [@dyn 148] (gas: 9)\n 10191: a1 = u64 [0x30040]\n 10196: u64 [sp + 0x170] = a1\n 10200: a1 = u64 [0x30038]\n 10205: u64 [sp + 0x168] = a1\n 10209: a0 = u64 [0x30030]\n 10214: u64 [sp + 0x178] = a0\n 10218: a0 = sp + 0x1900\n 10222: a1 = 0x40\n 10225: ra = 298, jump @7\n      : @372 [@dyn 149] (gas: 7)\n 10231: a5 = u64 [s1]\n 10233: a0 = s1 + 0xffffffffffffff00\n 10237: a4 = u64 [a0 + 0xf8]\n 10241: a3 = u64 [a0 + 0xf0]\n 10245: a2 = u64 [a0 + 0xe8]\n 10249: a0 = a3 | a5\n 10252: t0 = 300, jump @927\n      : @373 [@dyn 150] (gas: 1)\n 10258: jump @375 if a0 == 0\n      : @374 (gas: 1)\n 10261: jump @770\n      : @375 (gas: 13)\n 10264: s1 = sp + 0x1110\n 10268: u64 [s1 + 2016] = 0\n 10272: u64 [s1 + 2008] = 0\n 10276: u64 [s1 + 2000] = 0\n 10280: a0 = 0xe08454a00000000\n 10290: a1 = sp + 0x18e0\n 10294: u64 [s1 + 0x7e8] = a0\n 10298: a0 = a2\n 10300: u64 [sp + 0x198] = a2\n 10304: u64 [sp + 0x190] = a3\n 10308: u64 [sp + 0x188] = a4\n 10312: u64 [sp + 0x180] = a5\n 10316: ra = 302, jump @9\n      : @376 [@dyn 151] (gas: 1)\n 10322: t0 = 304, jump @926\n      : @377 [@dyn 152] (gas: 1)\n 10328: jump @379 if a1 != 0\n      : @378 (gas: 1)\n 10331: jump @770\n      : @379 (gas: 13)\n 10334: a0 = u64 [sp + 0xe8]\n 10338: a0 = a0 << 0x20\n 10341: a1 = a0 >> 0x20\n 10344: i32 a0 = a2 + 0x4\n 10347: u64 [s1 + 1992] = 0\n 10351: a2 = u64 [sp + 0xd8]\n 10355: a3 = s1 + 0x700\n 10359: u64 [a3 + 0xb0] = a2\n 10363: u64 [a3 + 0xc0] = a1\n 10367: a1 = sp + 0x18c0\n 10371: a2 = u64 [sp + 0xe0]\n 10375: u64 [a3 + 0xb8] = a2\n 10379: ra = 306, jump @9\n      : @380 [@dyn 153] (gas: 4)\n 10385: ra = 0x134\n 10389: ecalli 6 // 'ref_time_left'\n 10391: t0 = 0x136\n 10395: jump @921\n      : @381 [@dyn 154] (gas: 1)\n 10398: t0 = 310, jump @921\n      : @382 [@dyn 155] (gas: 2)\n 10404: s1 = 0x30010\n 10409: t0 = 312, jump @928\n      : @383 [@dyn 156] (gas: 7)\n 10415: u64 [a0 + 832] = 0\n 10419: u64 [a0 + 824] = 0\n 10423: u64 [a0 + 816] = 0\n 10427: u64 [a0 + 808] = 0\n 10431: a1 = 0x24\n 10434: a0 = u64 [sp + 0x198]\n 10438: ra = 314, jump @11\n      : @384 [@dyn 157] (gas: 4)\n 10444: u64 [sp + 0x178] = a0\n 10448: a1 = 0x20\n 10451: a0 = u64 [sp + 0x198]\n 10455: ra = 316, jump @11\n      : @385 [@dyn 158] (gas: 17)\n 10461: a1 = sp + 0x2118\n 10465: u32 [a1 + 840] = 0x20\n 10470: u64 [a1 + 896] = 0\n 10474: u64 [a1 + 888] = 0\n 10478: u64 [a1 + 880] = 0\n 10482: u64 [a1 + 872] = 0\n 10486: u64 [sp + 0x148] = s1\n 10490: a1 = s1 << 0x20\n 10493: a2 = a1 >> 0x20\n 10496: a1 = 0x1800000000\n 10506: u64 [sp + 0x68] = a2\n 10509: s1 = a2 | a1\n 10512: a1 = sp + 0x2440\n 10516: a1 = a1 << 0x20\n 10519: a1 = a1 >> 0x20\n 10522: a2 = 0x2480\n 10526: t0 = 318, jump @911\n      : @386 [@dyn 159] (gas: 10)\n 10532: i32 a1 = a1 + 0x460\n 10536: a1 = a1 + sp\n 10539: a1 = a1 << 0x20\n 10542: a5 = a1 | a0\n 10545: a1 = 0xffffffffffffffff\n 10548: a2 = 0xffffffffffffffff\n 10551: u64 [sp + 0xa8] = s1\n 10555: a0 = s1\n 10557: ecalli 0 // 'call'\n 10558: fallthrough\n      : @387 (gas: 1)\n 10559: jump @389 if a0 == 0\n      : @388 (gas: 1)\n 10562: jump @543\n      : @389 (gas: 2)\n 10565: ecalli 8 // 'return_data_size'\n 10567: fallthrough\n      : @390 (gas: 2)\n 10568: a1 = 0x20\n 10571: jump @392 if a0 >=u a1\n      : @391 (gas: 3)\n 10574: ecalli 8 // 'return_data_size'\n 10576: a1 = a0\n 10578: fallthrough\n      : @392 (gas: 19)\n 10579: a2 = u64 [sp + 0x198]\n 10583: a3 = u64 [sp + 0x190]\n 10587: a4 = u64 [sp + 0x188]\n 10591: a5 = u64 [sp + 0x180]\n 10595: u64 [sp + 0x178] = a1\n 10599: a0 = sp + 0x1110\n 10603: s1 = a0 + 0x700\n 10607: u64 [s1 + 0x50] = a1\n 10610: u64 [s1 + 0x70] = a2\n 10613: u64 [a0 + 1880] = 0\n 10617: u64 [s1 + 0x78] = a3\n 10620: u64 [a0 + 1888] = 0\n 10624: u64 [s1 + 0x80] = a4\n 10628: u64 [a0 + 1896] = 0\n 10632: t0 = a0\n 10634: a0 = sp + 0x1880\n 10638: a1 = sp + 0x1860\n 10642: u64 [t0 + 0x788] = a5\n 10646: ra = 320, jump @839\n      : @393 [@dyn 160] (gas: 32)\n 10652: t0 = u64 [sp + 0x198]\n 10656: a1 = u64 [sp + 0x178]\n 10660: a0 = a1 + t0\n 10663: a1 = a0 <u a1\n 10666: t1 = u64 [sp + 0x190]\n 10670: a2 = t1\n 10672: a2 = a2 + a1\n 10675: a3 = a2 ^ 0\n 10677: a4 = a2 <u 0\n 10679: a4 = a1 if a3 == 0\n 10682: a5 = u64 [sp + 0x188]\n 10686: a1 = a5\n 10688: a4 = a4 + a1\n 10691: t2 = a4 <u a1\n 10694: a1 = a1 <u 0\n 10696: a3 = u64 [sp + 0x180]\n 10700: s1 = a3\n 10702: a1 = a1 + s1\n 10705: s1 = sp + 0x1110\n 10709: t2 = t2 + a1\n 10712: u64 [s1 + 0x700] = a4\n 10716: u64 [s1 + 0x6f8] = a2\n 10720: u64 [s1 + 0x6f0] = a0\n 10724: u64 [s1 + 0x728] = a3\n 10728: u64 [s1 + 0x720] = a5\n 10732: u64 [s1 + 0x718] = t1\n 10736: u64 [s1 + 0x710] = t0\n 10740: a0 = sp + 0x1840\n 10744: a1 = sp + 0x1820\n 10748: a2 = sp + 0x1800\n 10752: u64 [s1 + 0x708] = t2\n 10756: ra = 322, jump @855\n      : @394 [@dyn 161] (gas: 5)\n 10762: a0 = u64 [s1 + 0x730]\n 10766: u64 [sp + 0x178] = a0\n 10770: a0 = sp + 0x17e0\n 10774: a1 = 0x40\n 10777: ra = 324, jump @7\n      : @395 [@dyn 162] (gas: 7)\n 10783: a1 = s1 + 0x600\n 10787: a3 = u64 [a1 + 0xe8]\n 10791: a4 = u64 [a1 + 0xe0]\n 10795: a5 = u64 [a1 + 0xd8]\n 10799: a0 = u64 [a1 + 0xd0]\n 10803: a2 = a5 | a3\n 10806: t0 = 326, jump @922\n      : @396 [@dyn 163] (gas: 1)\n 10812: jump @398 if a1 == 0\n      : @397 (gas: 1)\n 10815: jump @770\n      : @398 (gas: 11)\n 10818: u64 [s1 + 1728] = 0\n 10822: u64 [s1 + 1720] = 0\n 10826: u64 [s1 + 1712] = 0\n 10830: a2 = 0x319bec5400000000\n 10840: a1 = sp + 0x17c0\n 10844: u64 [s1 + 0x6c8] = a2\n 10848: u64 [sp + 0x198] = a0\n 10852: u64 [sp + 0x190] = a3\n 10856: u64 [sp + 0x188] = a4\n 10860: u64 [sp + 0x180] = a5\n 10864: ra = 328, jump @9\n      : @399 [@dyn 164] (gas: 1)\n 10870: t0 = 330, jump @915\n      : @400 [@dyn 165] (gas: 24)\n 10876: u64 [s1 + 0x648] = a4\n 10880: a4 = u64 [sp + 0x80]\n 10884: u64 [s1 + 0x640] = a4\n 10888: a4 = u64 [sp + 0x78]\n 10891: u64 [s1 + 0x638] = a4\n 10895: a4 = u64 [sp + 0x70]\n 10898: u64 [s1 + 0x630] = a4\n 10902: a4 = u64 [sp + 0xd0]\n 10906: u64 [s1 + 0x668] = a4\n 10910: a4 = u64 [sp + 0xe8]\n 10914: u64 [s1 + 0x660] = a4\n 10918: a4 = u64 [sp + 0xe0]\n 10922: u64 [s1 + 0x658] = a4\n 10926: u64 [s1 + 0x678] = a2\n 10930: u64 [s1 + 0x670] = a0\n 10934: u64 [s1 + 0x680] = a3\n 10938: u64 [s1 + 0x688] = a1\n 10942: a0 = sp + 0x17a0\n 10946: a1 = sp + 0x1780\n 10950: a2 = sp + 0x1760\n 10954: a3 = sp + 0x1740\n 10958: a4 = u64 [sp + 0xd8]\n 10962: u64 [s1 + 0x650] = a4\n 10966: ra = 332, jump @864\n      : @401 [@dyn 166] (gas: 17)\n 10972: a0 = u64 [s1 + 0x698]\n 10976: t0 = u64 [s1 + 0x6a8]\n 10980: t1 = u64 [s1 + 0x690]\n 10984: a3 = u64 [s1 + 0x6a0]\n 10988: a4 = u64 [sp + 0x180]\n 10992: a1 = a0 ^ a4\n 10995: a5 = a0 <u a4\n 10998: a2 = a4\n 11000: t2 = u64 [sp + 0x198]\n 11004: s1 = t1 <u t2\n 11007: a5 = s1 if a1 == 0\n 11010: a1 = u64 [sp + 0x188]\n 11014: a4 = a3 - a1\n 11017: a3 = a3 <u a1\n 11020: a1 = u64 [sp + 0x190]\n 11024: a1 = t0 - a1\n 11027: t0 = 334, jump @933\n      : @402 [@dyn 167] (gas: 4)\n 11033: ra = 0x150\n 11037: ecalli 6 // 'ref_time_left'\n 11039: t0 = 0x152\n 11043: jump @937\n      : @403 [@dyn 168] (gas: 1)\n 11046: t0 = 338, jump @937\n      : @404 [@dyn 169] (gas: 9)\n 11052: a2 = sp + a0\n 11055: u64 [a2 + 960] = 0\n 11059: u64 [a2 + 952] = 0\n 11063: u64 [a2 + 944] = 0\n 11067: a4 = u64 [sp + 0x168]\n 11071: a0 = s1 | a4\n 11074: a1 = u64 [sp + 0x170]\n 11078: a5 = u64 [sp + 0x160]\n 11082: t0 = 340, jump @925\n      : @405 [@dyn 170] (gas: 2)\n 11088: u64 [a2 + 936] = 0\n 11092: jump @407 if a0 == 0\n      : @406 (gas: 1)\n 11095: jump @770\n      : @407 (gas: 6)\n 11098: a3 = s1\n 11100: s1 = u64 [sp + 0x198]\n 11104: a0 = s1\n 11106: a1 = a3\n 11108: u64 [sp + 0x130] = a3\n 11112: ra = 342, jump @11\n      : @408 [@dyn 171] (gas: 4)\n 11118: u64 [sp + 0x170] = a0\n 11122: a1 = 0x20\n 11125: a0 = s1\n 11127: ra = 344, jump @11\n      : @409 [@dyn 172] (gas: 11)\n 11133: a1 = sp + 0x2118\n 11137: u32 [a1 + 968] = 0x20\n 11142: u64 [a1 + 1024] = 0\n 11146: u64 [a1 + 1016] = 0\n 11150: u64 [a1 + 1008] = 0\n 11154: u64 [a1 + 1000] = 0\n 11158: a1 = sp + 0x24c0\n 11162: a1 = a1 << 0x20\n 11165: a1 = a1 >> 0x20\n 11168: a2 = 0x2500\n 11172: t0 = 346, jump @942\n      : @410 [@dyn 173] (gas: 7)\n 11178: a4 = u64 [sp + 0x130]\n 11182: a4 = a4 << 0x20\n 11185: a4 = a4 | a1\n 11188: a0 = a0 << 0x20\n 11191: a0 = a0 >> 0x20\n 11194: a1 = 0x24e0\n 11198: t0 = 348, jump @919\n      : @411 [@dyn 174] (gas: 2)\n 11204: ecalli 0 // 'call'\n 11205: fallthrough\n      : @412 (gas: 1)\n 11206: jump @574 if a0 != 0\n      : @413 (gas: 2)\n 11210: ecalli 8 // 'return_data_size'\n 11212: fallthrough\n      : @414 (gas: 3)\n 11213: s1 = sp + 0x1110\n 11217: a4 = 0x20\n 11220: jump @416 if a0 >=u a4\n      : @415 (gas: 3)\n 11223: ecalli 8 // 'return_data_size'\n 11225: a4 = a0\n 11227: fallthrough\n      : @416 (gas: 18)\n 11228: a2 = u64 [sp + 0x198]\n 11232: a3 = u64 [sp + 0x190]\n 11236: a0 = u64 [sp + 0x188]\n 11240: a1 = u64 [sp + 0x180]\n 11244: u64 [sp + 0x190] = a4\n 11248: a5 = s1 + 0x500\n 11252: u64 [a5 + 0xd0] = a4\n 11256: u64 [a5 + 0xf0] = a2\n 11260: u64 [s1 + 1496] = 0\n 11264: u64 [a5 + 0xf8] = a1\n 11268: u64 [s1 + 1504] = 0\n 11272: u64 [s1 + 0x600] = a0\n 11276: u64 [s1 + 1512] = 0\n 11280: a0 = sp + 0x1700\n 11284: a1 = sp + 0x16e0\n 11288: u64 [s1 + 0x608] = a3\n 11292: s1 = 0\n 11294: ra = 350, jump @839\n      : @417 [@dyn 175] (gas: 2)\n 11300: a1 = u64 [sp + 0x190]\n 11304: t0 = 352, jump @909\n      : @418 [@dyn 176] (gas: 1)\n 11310: jump @420 if a2 != 0\n      : @419 (gas: 1)\n 11313: jump @813\n      : @420 (gas: 3)\n 11316: a0 = sp + 0x16c0\n 11320: a1 = u64 [sp + 0x198]\n 11324: ra = 354, jump @7\n      : @421 [@dyn 177] (gas: 12)\n 11330: s1 = sp + 0x1110\n 11334: a0 = u64 [s1 + 0x5c8]\n 11338: u64 [sp + 0x130] = a0\n 11342: a0 = u64 [s1 + 0x5c0]\n 11346: u64 [sp + 0x128] = a0\n 11350: a0 = u64 [s1 + 0x5b8]\n 11354: u64 [sp + 0x120] = a0\n 11358: a0 = u64 [s1 + 0x5b0]\n 11362: u64 [sp + 0x118] = a0\n 11366: a0 = sp + 0x16a0\n 11370: a1 = 0x40\n 11373: ra = 356, jump @7\n      : @422 [@dyn 178] (gas: 7)\n 11379: a1 = s1 + 0x500\n 11383: a3 = u64 [a1 + 0xa8]\n 11387: a4 = u64 [a1 + 0xa0]\n 11391: a5 = u64 [a1 + 0x98]\n 11395: a0 = u64 [a1 + 0x90]\n 11399: a2 = a5 | a3\n 11402: t0 = 358, jump @922\n      : @423 [@dyn 179] (gas: 1)\n 11408: jump @425 if a1 == 0\n      : @424 (gas: 1)\n 11411: jump @770\n      : @425 (gas: 11)\n 11414: u64 [s1 + 1408] = 0\n 11418: u64 [s1 + 1400] = 0\n 11422: u64 [s1 + 1392] = 0\n 11426: a2 = 0x39c5151500000000\n 11436: a1 = sp + 0x1680\n 11440: u64 [s1 + 0x588] = a2\n 11444: u64 [sp + 0x198] = a0\n 11448: u64 [sp + 0x190] = a3\n 11452: u64 [sp + 0x188] = a4\n 11456: u64 [sp + 0x180] = a5\n 11460: ra = 360, jump @9\n      : @426 [@dyn 180] (gas: 1)\n 11466: t0 = 362, jump @915\n      : @427 [@dyn 181] (gas: 24)\n 11472: u64 [s1 + 0x508] = a4\n 11476: a4 = u64 [sp + 0x80]\n 11480: u64 [s1 + 0x500] = a4\n 11484: a4 = u64 [sp + 0x78]\n 11487: u64 [s1 + 0x4f8] = a4\n 11491: a4 = u64 [sp + 0x70]\n 11494: u64 [s1 + 0x4f0] = a4\n 11498: a4 = u64 [sp + 0xd0]\n 11502: u64 [s1 + 0x528] = a4\n 11506: a4 = u64 [sp + 0xe8]\n 11510: u64 [s1 + 0x520] = a4\n 11514: a4 = u64 [sp + 0xe0]\n 11518: u64 [s1 + 0x518] = a4\n 11522: u64 [s1 + 0x538] = a2\n 11526: u64 [s1 + 0x530] = a0\n 11530: u64 [s1 + 0x540] = a3\n 11534: u64 [s1 + 0x548] = a1\n 11538: a0 = sp + 0x1660\n 11542: a1 = sp + 0x1640\n 11546: a2 = sp + 0x1620\n 11550: a3 = sp + 0x1600\n 11554: a4 = u64 [sp + 0xd8]\n 11558: u64 [s1 + 0x510] = a4\n 11562: ra = 364, jump @864\n      : @428 [@dyn 182] (gas: 17)\n 11568: a0 = u64 [s1 + 0x558]\n 11572: t0 = u64 [s1 + 0x568]\n 11576: t1 = u64 [s1 + 0x550]\n 11580: a3 = u64 [s1 + 0x560]\n 11584: a4 = u64 [sp + 0x180]\n 11588: a1 = a0 ^ a4\n 11591: a5 = a0 <u a4\n 11594: a2 = a4\n 11596: t2 = u64 [sp + 0x198]\n 11600: s1 = t1 <u t2\n 11603: a5 = s1 if a1 == 0\n 11606: a1 = u64 [sp + 0x188]\n 11610: a4 = a3 - a1\n 11613: a3 = a3 <u a1\n 11616: a1 = u64 [sp + 0x190]\n 11620: a1 = t0 - a1\n 11623: t0 = 366, jump @933\n      : @429 [@dyn 183] (gas: 4)\n 11629: ra = 0x170\n 11633: ecalli 6 // 'ref_time_left'\n 11635: t0 = 0x172\n 11639: jump @937\n      : @430 [@dyn 184] (gas: 1)\n 11642: t0 = 370, jump @937\n      : @431 [@dyn 185] (gas: 20)\n 11648: a0 = a0 + sp\n 11651: u64 [a0 + 1088] = 0\n 11655: a0 = sp + 0x2118\n 11659: u64 [a0 + 1080] = 0\n 11663: a0 = sp + 0x2118\n 11667: u64 [a0 + 1072] = 0\n 11671: a2 = s1\n 11673: a4 = u64 [sp + 0x168]\n 11677: a0 = s1 | a4\n 11680: a1 = u64 [sp + 0x170]\n 11684: a3 = u64 [sp + 0x160]\n 11688: a1 = a1 | a3\n 11691: s1 = sp + 0x2118\n 11695: a0 = a0 | a1\n 11698: a0 = a0 >> 0x20\n 11701: a1 = a1 | a4\n 11704: a1 = a1 << 0x20\n 11707: a0 = a0 | a1\n 11710: u64 [s1 + 1064] = 0\n 11714: jump @433 if a0 == 0\n      : @432 (gas: 1)\n 11717: jump @770\n      : @433 (gas: 5)\n 11720: s1 = u64 [sp + 0x198]\n 11724: a0 = s1\n 11726: a1 = a2\n 11728: u64 [sp + 0x110] = a2\n 11732: ra = 372, jump @11\n      : @434 [@dyn 186] (gas: 4)\n 11738: u64 [sp + 0x170] = a0\n 11742: a1 = 0x20\n 11745: a0 = s1\n 11747: ra = 374, jump @11\n      : @435 [@dyn 187] (gas: 11)\n 11753: a1 = sp + 0x2118\n 11757: u32 [a1 + 1096] = 0x20\n 11762: u64 [a1 + 1152] = 0\n 11766: u64 [a1 + 1144] = 0\n 11770: u64 [a1 + 1136] = 0\n 11774: u64 [a1 + 1128] = 0\n 11778: a1 = sp + 0x2540\n 11782: a1 = a1 << 0x20\n 11785: a1 = a1 >> 0x20\n 11788: a2 = 0x2580\n 11792: t0 = 376, jump @942\n      : @436 [@dyn 188] (gas: 7)\n 11798: a4 = u64 [sp + 0x110]\n 11802: a4 = a4 << 0x20\n 11805: a4 = a4 | a1\n 11808: a0 = a0 << 0x20\n 11811: a0 = a0 >> 0x20\n 11814: a1 = 0x2560\n 11818: t0 = 378, jump @919\n      : @437 [@dyn 189] (gas: 2)\n 11824: ecalli 0 // 'call'\n 11825: fallthrough\n      : @438 (gas: 1)\n 11826: jump @440 if a0 == 0\n      : @439 (gas: 1)\n 11829: jump @693\n      : @440 (gas: 2)\n 11832: ecalli 8 // 'return_data_size'\n 11834: fallthrough\n      : @441 (gas: 3)\n 11835: s1 = sp + 0x1110\n 11839: a4 = 0x20\n 11842: jump @443 if a0 >=u a4\n      : @442 (gas: 3)\n 11845: ecalli 8 // 'return_data_size'\n 11847: a4 = a0\n 11849: fallthrough\n      : @443 (gas: 18)\n 11850: a2 = u64 [sp + 0x198]\n 11854: a3 = u64 [sp + 0x190]\n 11858: a0 = u64 [sp + 0x188]\n 11862: a1 = u64 [sp + 0x180]\n 11866: u64 [sp + 0x190] = a4\n 11870: a5 = s1 + 0x400\n 11874: u64 [a5 + 0x90] = a4\n 11878: u64 [a5 + 0xb0] = a2\n 11882: u64 [s1 + 1176] = 0\n 11886: u64 [a5 + 0xb8] = a1\n 11890: u64 [s1 + 1184] = 0\n 11894: u64 [a5 + 0xc0] = a0\n 11898: u64 [s1 + 1192] = 0\n 11902: a0 = sp + 0x15c0\n 11906: a1 = sp + 0x15a0\n 11910: u64 [a5 + 0xc8] = a3\n 11914: s1 = 0\n 11916: ra = 380, jump @839\n      : @444 [@dyn 190] (gas: 2)\n 11922: a1 = u64 [sp + 0x190]\n 11926: t0 = 382, jump @909\n      : @445 [@dyn 191] (gas: 1)\n 11932: jump @447 if a2 != 0\n      : @446 (gas: 1)\n 11935: jump @814\n      : @447 (gas: 4)\n 11938: s1 = 0xffffffff\n 11948: a0 = sp + 0x1580\n 11952: a1 = u64 [sp + 0x198]\n 11956: ra = 384, jump @7\n      : @448 [@dyn 192] (gas: 44)\n 11962: a5 = 0x1\n 11965: t0 = s1\n 11967: u64 [sp + 352] = 0\n 11971: a4 = 0\n 11973: a2 = sp + 0x1110\n 11977: a3 = a2 + 0x400\n 11981: a0 = u64 [a3 + 0x88]\n 11985: u64 [sp + 0xc8] = a0\n 11989: a0 = u64 [a3 + 0x80]\n 11993: u64 [sp + 0xc0] = a0\n 11997: a0 = u64 [sp + 0x178]\n 12001: a0 = a0 & s1\n 12004: u64 [sp + 0x110] = a0\n 12008: a0 = sp + 0x25c0\n 12012: a0 = a0 << 0x20\n 12015: a0 = a0 >> 0x20\n 12018: a1 = sp + 0x2600\n 12022: a1 = a1 << 0x20\n 12025: a0 = a0 | a1\n 12028: u64 [sp + 0x98] = a0\n 12032: a0 = sp + 0x25e0\n 12036: a0 = a0 << 0x20\n 12039: u64 [sp + 0x90] = a0\n 12043: a0 = sp + 0x2640\n 12047: a0 = a0 << 0x20\n 12050: a0 = a0 >> 0x20\n 12053: a1 = sp + 0x2680\n 12057: a1 = a1 << 0x20\n 12060: a0 = a0 | a1\n 12063: u64 [sp + 0x58] = a0\n 12066: a0 = sp + 0x2660\n 12070: a0 = a0 << 0x20\n 12073: u64 [sp + 0x50] = a0\n 12076: a0 = 0x9962663400000000\n 12086: u64 [sp + 0xa0] = a0\n 12090: a0 = 0x6818876200000000\n 12100: u64 [sp + 0x60] = a0\n 12103: a0 = u64 [a3 + 0x78]\n 12106: u64 [sp + 0xb8] = a0\n 12110: a0 = u64 [a3 + 0x70]\n 12113: u64 [sp + 0xb0] = a0\n 12117: u64 [sp + 72] = 0x8fc\n 12122: u64 [sp + 0x108] = s1\n 12126: fallthrough\n      : @449 (gas: 10)\n 12127: a0 = 0\n 12129: a0 = 0 if a4 == 0\n 12131: a1 = u64 [sp + 0x110]\n 12135: a3 = a1 <u a5\n 12138: a3 = 0 if a4 != 0\n 12140: a2 = 0\n 12142: a3 = a0 if a2 != 0\n 12145: s1 = u64 [sp + 0x160]\n 12149: s1 = s1 & t0\n 12152: jump @451 if a3 == 0\n      : @450 (gas: 1)\n 12155: jump @717\n      : @451 (gas: 2)\n 12158: a3 = u64 [sp + 0x158]\n 12162: jump @453 if s1 <u a3\n      : @452 (gas: 1)\n 12165: jump @717\n      : @453 (gas: 1)\n 12168: t0 = 386, jump @923\n      : @454 [@dyn 193] (gas: 1)\n 12174: ra = 388, jump @948\n      : @455 [@dyn 194] (gas: 1)\n 12180: t0 = 390, jump @932\n      : @456 [@dyn 195] (gas: 1)\n 12186: ra = 392, jump @943\n      : @457 [@dyn 196] (gas: 7)\n 12192: u64 [sp + 0x170] = a0\n 12196: u64 [sp + 0x178] = a1\n 12200: i32 a2 = s1 + 0\n 12202: u64 [sp + 0x180] = a2\n 12206: a0 = 0\n 12208: a1 = 0\n 12210: ra = 394, jump @948\n      : @458 [@dyn 197] (gas: 1)\n 12216: t0 = 396, jump @912\n      : @459 [@dyn 198] (gas: 1)\n 12222: ra = 398, jump @948\n      : @460 [@dyn 199] (gas: 1)\n 12228: t0 = 400, jump @910\n      : @461 [@dyn 200] (gas: 1)\n 12234: jump @510 if a2 == 0\n      : @462 (gas: 1)\n 12238: t0 = 402, jump @935\n      : @463 [@dyn 201] (gas: 1)\n 12244: jump @510 if a0 != 0\n      : @464 (gas: 3)\n 12248: a0 = sp + 0x1520\n 12252: a1 = 0x40\n 12255: ra = 404, jump @7\n      : @465 [@dyn 202] (gas: 17)\n 12261: s1 = sp + 0x1110\n 12265: a4 = s1 + 0x400\n 12269: a1 = u64 [a4 + 0x28]\n 12272: a3 = u64 [a4 + 0x20]\n 12275: a0 = u64 [a4 + 0x18]\n 12278: a2 = u64 [a4 + 0x10]\n 12281: u64 [sp + 0x188] = a0\n 12285: u64 [sp + 0x178] = a1\n 12289: a0 = a0 | a1\n 12292: a1 = a2 | a3\n 12295: a1 = a1 | a0\n 12298: a1 = a1 >> 0x20\n 12301: u64 [sp + 0x180] = a3\n 12305: a0 = a0 | a3\n 12308: a0 = a0 << 0x20\n 12311: a0 = a0 | a1\n 12314: jump @467 if a0 == 0\n      : @466 (gas: 1)\n 12317: jump @770\n      : @467 (gas: 9)\n 12320: u64 [s1 + 1024] = 0\n 12324: u64 [s1 + 1016] = 0\n 12328: u64 [s1 + 1008] = 0\n 12332: a1 = sp + 0x1500\n 12336: a0 = u64 [sp + 0xa0]\n 12340: u64 [s1 + 0x408] = a0\n 12344: a0 = a2\n 12346: u64 [sp + 0x198] = a2\n 12350: ra = 406, jump @9\n      : @468 [@dyn 203] (gas: 1)\n 12356: t0 = 408, jump @920\n      : @469 [@dyn 204] (gas: 25)\n 12362: a4 = u64 [sp + 0x178]\n 12366: a1 = a1 + a4\n 12369: a4 = u64 [sp + 0x168]\n 12373: u64 [s1 + 0x388] = a4\n 12377: u64 [s1 + 0x380] = a4\n 12381: u64 [s1 + 0x378] = a4\n 12385: a4 = u64 [sp + 0x190]\n 12389: u64 [s1 + 0x370] = a4\n 12393: a4 = u64 [sp + 0xd0]\n 12397: u64 [s1 + 0x3a8] = a4\n 12401: a4 = u64 [sp + 0xe8]\n 12405: u64 [s1 + 0x3a0] = a4\n 12409: a4 = u64 [sp + 0xe0]\n 12413: u64 [s1 + 0x398] = a4\n 12417: u64 [s1 + 0x3b8] = a2\n 12421: u64 [s1 + 0x3b0] = a0\n 12425: u64 [s1 + 0x3c0] = a3\n 12429: u64 [s1 + 0x3c8] = a1\n 12433: a0 = sp + 0x14e0\n 12437: a1 = sp + 0x14c0\n 12441: a2 = sp + 0x14a0\n 12445: a3 = sp + 0x1480\n 12449: a4 = u64 [sp + 0xd8]\n 12453: u64 [s1 + 0x390] = a4\n 12457: ra = 410, jump @882\n      : @470 [@dyn 205] (gas: 31)\n 12463: a0 = u64 [s1 + 0x3d8]\n 12467: t2 = u64 [s1 + 0x3e8]\n 12471: t0 = u64 [s1 + 0x3d0]\n 12475: a3 = u64 [s1 + 0x3e0]\n 12479: a2 = u64 [sp + 0x188]\n 12483: a4 = a0 ^ a2\n 12486: a5 = a0 <u a2\n 12489: t1 = a2\n 12491: a2 = u64 [sp + 0x198]\n 12495: s1 = t0 <u a2\n 12498: a5 = s1 if a4 == 0\n 12501: a1 = u64 [sp + 0x180]\n 12505: a4 = a3 - a1\n 12508: a3 = a3 <u a1\n 12511: a1 = u64 [sp + 0x178]\n 12515: a1 = t2 - a1\n 12518: a1 = a1 - a3\n 12521: a3 = a4 <u a5\n 12524: a1 = a1 - a3\n 12527: u64 [sp + 0x100] = a1\n 12531: a4 = a4 - a5\n 12534: u64 [sp + 0xf8] = a4\n 12538: a0 = a0 - t1\n 12541: a0 = a0 - s1\n 12544: u64 [sp + 0xf0] = a0\n 12548: a0 = t0 - a2\n 12551: u64 [sp + 0x170] = a0\n 12555: ra = 0x19c\n 12559: ecalli 6 // 'ref_time_left'\n 12561: t0 = 0x19e\n 12565: jump @907\n      : @471 [@dyn 206] (gas: 1)\n 12568: t0 = 414, jump @907\n      : @472 [@dyn 207] (gas: 10)\n 12574: u64 [s1 + 1216] = 0\n 12578: u64 [s1 + 1208] = 0\n 12582: u64 [s1 + 1200] = 0\n 12586: a0 = u64 [sp + 0x170]\n 12590: a2 = a0\n 12592: a3 = u64 [sp + 0xf8]\n 12596: a0 = a0 | a3\n 12599: a1 = u64 [sp + 0x100]\n 12603: a4 = u64 [sp + 0xf0]\n 12607: t0 = 416, jump @934\n      : @473 [@dyn 208] (gas: 2)\n 12613: u64 [s1 + 1192] = 0\n 12617: jump @475 if a0 == 0\n      : @474 (gas: 1)\n 12620: jump @770\n      : @475 (gas: 4)\n 12623: s1 = u64 [sp + 0x198]\n 12627: a0 = s1\n 12629: a1 = a2\n 12631: ra = 418, jump @11\n      : @476 [@dyn 209] (gas: 4)\n 12637: u64 [sp + 0x100] = a0\n 12641: a1 = 0x60\n 12644: a0 = s1\n 12646: ra = 420, jump @11\n      : @477 [@dyn 210] (gas: 8)\n 12652: a2 = sp + 0x2118\n 12656: u32 [a2 + 1224] = 0x60\n 12661: u64 [a2 + 1280] = 0\n 12665: u64 [a2 + 1272] = 0\n 12669: u64 [a2 + 1264] = 0\n 12673: u64 [a2 + 1256] = 0\n 12677: a1 = u64 [sp + 0x100]\n 12681: t0 = 422, jump @931\n      : @478 [@dyn 211] (gas: 8)\n 12687: a5 = u64 [sp + 0x90]\n 12691: a5 = a5 | a0\n 12694: a1 = 0xffffffffffffffff\n 12697: a2 = 0xffffffffffffffff\n 12700: a0 = u64 [sp + 0xa8]\n 12704: a3 = u64 [sp + 0x98]\n 12708: ecalli 0 // 'call'\n 12709: fallthrough\n      : @479 (gas: 1)\n 12710: jump @481 if a0 == 0\n      : @480 (gas: 1)\n 12713: jump @734\n      : @481 (gas: 2)\n 12716: ecalli 8 // 'return_data_size'\n 12718: fallthrough\n      : @482 (gas: 2)\n 12719: a5 = 0x60\n 12722: jump @484 if a0 >=u a5\n      : @483 (gas: 3)\n 12725: ecalli 8 // 'return_data_size'\n 12727: a5 = a0\n 12729: fallthrough\n      : @484 (gas: 18)\n 12730: t0 = u64 [sp + 0x198]\n 12734: a3 = u64 [sp + 0x188]\n 12738: a1 = u64 [sp + 0x180]\n 12742: a4 = u64 [sp + 0x178]\n 12746: u64 [sp + 0x170] = a5\n 12750: a2 = sp + 0x1110\n 12754: s1 = a2 + 0x300\n 12758: u64 [s1 + 0x10] = a5\n 12761: u64 [a2 + 0x330] = t0\n 12765: u64 [a2 + 792] = 0\n 12769: u64 [s1 + 0x38] = a3\n 12772: u64 [a2 + 800] = 0\n 12776: u64 [s1 + 0x40] = a1\n 12779: u64 [a2 + 808] = 0\n 12783: a0 = sp + 0x1440\n 12787: a1 = sp + 0x1420\n 12791: u64 [s1 + 0x48] = a4\n 12794: ra = 424, jump @839\n      : @485 [@dyn 212] (gas: 32)\n 12800: t0 = u64 [sp + 0x198]\n 12804: a1 = u64 [sp + 0x170]\n 12808: a0 = a1 + t0\n 12811: a1 = a0 <u a1\n 12814: t1 = u64 [sp + 0x188]\n 12818: a2 = t1\n 12820: a2 = a2 + a1\n 12823: a3 = a2 ^ 0\n 12825: a4 = a2 <u 0\n 12827: a4 = a1 if a3 == 0\n 12830: a5 = u64 [sp + 0x180]\n 12834: a1 = a5\n 12836: a4 = a4 + a1\n 12839: t2 = a4 <u a1\n 12842: a1 = a1 <u 0\n 12844: a3 = u64 [sp + 0x178]\n 12848: s1 = a3\n 12850: a1 = a1 + s1\n 12853: s1 = sp + 0x1110\n 12857: t2 = t2 + a1\n 12860: u64 [s1 + 0x280] = a4\n 12864: u64 [s1 + 0x278] = a2\n 12868: u64 [s1 + 0x270] = a0\n 12872: u64 [s1 + 0x2a8] = a3\n 12876: u64 [s1 + 0x2a0] = a5\n 12880: u64 [s1 + 0x298] = t1\n 12884: u64 [s1 + 0x290] = t0\n 12888: a0 = sp + 0x13c0\n 12892: a1 = sp + 0x13a0\n 12896: a2 = sp + 0x1380\n 12900: u64 [s1 + 0x288] = t2\n 12904: ra = 426, jump @870\n      : @486 [@dyn 213] (gas: 3)\n 12910: a0 = u64 [s1 + 0x2d0]\n 12914: a0 = a0 & 0xffffffffffffffff\n 12917: jump @510 if a0 == 0\n      : @487 (gas: 8)\n 12921: a0 = u64 [s1 + 0x308]\n 12925: a1 = u64 [s1 + 0x300]\n 12929: a2 = u64 [s1 + 0x2f0]\n 12933: a3 = u64 [s1 + 0x2f8]\n 12937: a1 = a1 | a2\n 12940: a0 = a0 | a3\n 12943: a0 = a0 | a1\n 12946: jump @510 if a0 != 0\n      : @488 (gas: 10)\n 12950: a0 = u64 [sp + 0x150]\n 12954: a1 = u64 [sp + 0x148]\n 12958: u64 [a1] = a0\n 12960: a0 = u64 [sp + 0x140]\n 12964: u64 [a1 + 0x8] = a0\n 12967: a0 = u64 [sp + 0x138]\n 12971: u32 [a1 + 0x10] = a0\n 12974: i32 a0 = a1 + 0\n 12976: ecalli 4 // 'code_size'\n 12978: fallthrough\n      : @489 (gas: 1)\n 12979: jump @491 if a0 != 0\n      : @490 (gas: 1)\n 12982: jump @776\n      : @491 (gas: 3)\n 12985: a0 = sp + 0x1360\n 12989: a1 = 0x40\n 12992: ra = 428, jump @7\n      : @492 [@dyn 214] (gas: 17)\n 12998: a4 = s1 + 0x200\n 13002: a2 = u64 [a4 + 0x68]\n 13005: a3 = u64 [a4 + 0x60]\n 13008: a0 = u64 [a4 + 0x58]\n 13011: a1 = u64 [a4 + 0x50]\n 13014: u64 [sp + 0x178] = a0\n 13018: u64 [sp + 0x188] = a2\n 13022: a0 = a0 | a2\n 13025: u64 [sp + 0x198] = a1\n 13029: a1 = a1 | a3\n 13032: a1 = a1 | a0\n 13035: a1 = a1 >> 0x20\n 13038: u64 [sp + 0x180] = a3\n 13042: a0 = a0 | a3\n 13045: a0 = a0 << 0x20\n 13048: a0 = a0 | a1\n 13051: jump @494 if a0 == 0\n      : @493 (gas: 1)\n 13054: jump @770\n      : @494 (gas: 8)\n 13057: u64 [s1 + 576] = 0\n 13061: u64 [s1 + 568] = 0\n 13065: u64 [s1 + 560] = 0\n 13069: a1 = sp + 0x1340\n 13073: a0 = u64 [sp + 0x60]\n 13076: u64 [s1 + 0x248] = a0\n 13080: a0 = u64 [sp + 0x198]\n 13084: ra = 430, jump @9\n      : @495 [@dyn 215] (gas: 44)\n 13090: a1 = u64 [sp + 0x198]\n 13094: a0 = a1 + 0x4\n 13097: a1 = a0 <u a1\n 13100: a3 = u64 [sp + 0x178]\n 13104: a2 = a3 + a1\n 13107: a3 = a2 <u a3\n 13110: a3 = a1 if a1 == 0\n 13113: a1 = u64 [sp + 0x180]\n 13117: a3 = a3 + a1\n 13120: a1 = a3 <u a1\n 13123: a4 = u64 [sp + 0x188]\n 13127: a1 = a1 + a4\n 13130: a4 = u64 [sp + 0x168]\n 13134: u64 [s1 + 0x1a8] = a4\n 13138: u64 [s1 + 0x1a0] = a4\n 13142: u64 [s1 + 0x198] = a4\n 13146: a4 = u64 [sp + 0x190]\n 13150: u64 [s1 + 0x190] = a4\n 13154: a4 = u64 [sp + 0x88]\n 13158: u64 [s1 + 0x1c8] = a4\n 13162: a4 = u64 [sp + 0x80]\n 13166: u64 [s1 + 0x1c0] = a4\n 13170: a4 = u64 [sp + 0x78]\n 13173: u64 [s1 + 0x1b8] = a4\n 13177: a4 = u64 [sp + 0x70]\n 13180: u64 [s1 + 0x1b0] = a4\n 13184: a4 = u64 [sp + 0xd0]\n 13188: u64 [s1 + 0x1e8] = a4\n 13192: a4 = u64 [sp + 0xe8]\n 13196: u64 [s1 + 0x1e0] = a4\n 13200: a4 = u64 [sp + 0xe0]\n 13204: u64 [s1 + 0x1d8] = a4\n 13208: u64 [s1 + 0x1f8] = a2\n 13212: u64 [s1 + 0x1f0] = a0\n 13216: u64 [s1 + 0x200] = a3\n 13220: u64 [s1 + 0x208] = a1\n 13224: a0 = sp + 0x1320\n 13228: a1 = sp + 0x1300\n 13232: a2 = sp + 0x12e0\n 13236: a3 = sp + 0x12c0\n 13240: a4 = sp + 0x12a0\n 13244: a5 = u64 [sp + 0xd8]\n 13248: u64 [s1 + 0x1d0] = a5\n 13252: ra = 432, jump @888\n      : @496 [@dyn 216] (gas: 32)\n 13258: a0 = u64 [s1 + 0x218]\n 13262: t2 = u64 [s1 + 0x228]\n 13266: t0 = u64 [s1 + 0x210]\n 13270: a3 = u64 [s1 + 0x220]\n 13274: a2 = u64 [sp + 0x178]\n 13278: a4 = a0 ^ a2\n 13281: a5 = a0 <u a2\n 13284: t1 = a2\n 13286: a2 = u64 [sp + 0x198]\n 13290: s1 = t0 <u a2\n 13293: a5 = s1 if a4 == 0\n 13296: a1 = u64 [sp + 0x180]\n 13300: a4 = a3 - a1\n 13303: a3 = a3 <u a1\n 13306: a1 = u64 [sp + 0x188]\n 13310: a1 = t2 - a1\n 13313: a1 = a1 - a3\n 13316: a3 = a4 <u a5\n 13319: a1 = a1 - a3\n 13322: u64 [sp + 0x168] = a1\n 13326: a4 = a4 - a5\n 13329: u64 [sp + 0x100] = a4\n 13333: a0 = a0 - t1\n 13336: a0 = a0 - s1\n 13339: u64 [sp + 0xf8] = a0\n 13343: a0 = t0 - a2\n 13346: u64 [sp + 0x170] = a0\n 13350: ra = 0x1b2\n 13354: ecalli 6 // 'ref_time_left'\n 13356: u64 [sp + 0xf0] = a0\n 13360: t0 = 0x1b4\n 13364: jump @907\n      : @497 [@dyn 217] (gas: 2)\n 13367: u64 [sp + 0xf0] = a0\n 13371: t0 = 436, jump @907\n      : @498 [@dyn 218] (gas: 10)\n 13377: u64 [s1 + 1344] = 0\n 13381: u64 [s1 + 1336] = 0\n 13385: u64 [s1 + 1328] = 0\n 13389: a0 = u64 [sp + 0x170]\n 13393: a2 = a0\n 13395: a3 = u64 [sp + 0x100]\n 13399: a0 = a0 | a3\n 13402: a1 = u64 [sp + 0x168]\n 13406: a4 = u64 [sp + 0xf8]\n 13410: t0 = 438, jump @934\n      : @499 [@dyn 219] (gas: 2)\n 13416: u64 [s1 + 1320] = 0\n 13420: jump @501 if a0 == 0\n      : @500 (gas: 1)\n 13423: jump @770\n      : @501 (gas: 5)\n 13426: a1 = a2\n 13428: i32 a0 = a2 + 0\n 13430: u64 [sp + 0x100] = a0\n 13434: a0 = u64 [sp + 0x198]\n 13438: ra = 440, jump @11\n      : @502 [@dyn 220] (gas: 4)\n 13444: u64 [sp + 0x168] = a0\n 13448: a0 = u64 [sp + 0x198]\n 13452: a1 = 0\n 13454: ra = 442, jump @11\n      : @503 [@dyn 221] (gas: 2)\n 13460: u32 [s1 + 1352] = 0\n 13464: t0 = 444, jump @941\n      : @504 [@dyn 222] (gas: 6)\n 13470: a3 = s1 + 0x500\n 13474: u64 [a3 + 0x80] = a2\n 13478: u64 [a3 + 0x78] = a2\n 13481: u64 [a3 + 0x70] = a2\n 13484: u64 [a3 + 0x68] = a2\n 13487: t0 = 446, jump @918\n      : @505 [@dyn 223] (gas: 2)\n 13493: ecalli 0 // 'call'\n 13494: fallthrough\n      : @506 (gas: 1)\n 13495: jump @508 if a0 == 0\n      : @507 (gas: 1)\n 13498: jump @750\n      : @508 (gas: 17)\n 13501: a2 = sp + 0x1110\n 13505: u64 [a2 + 328] = 0\n 13509: u64 [a2 + 320] = 0\n 13513: u64 [a2 + 312] = 0\n 13517: u64 [a2 + 304] = 0\n 13521: a0 = u64 [sp + 0x198]\n 13525: a4 = a2 + 0x100\n 13529: u64 [a4 + 0x50] = a0\n 13532: a0 = u64 [sp + 0x178]\n 13536: u64 [a4 + 0x58] = a0\n 13539: a0 = u64 [sp + 0x180]\n 13543: u64 [a4 + 0x60] = a0\n 13546: a0 = sp + 0x1260\n 13550: a1 = sp + 0x1240\n 13554: a3 = u64 [sp + 0x188]\n 13558: u64 [a4 + 0x68] = a3\n 13561: ra = 448, jump @839\n      : @509 [@dyn 224] (gas: 6)\n 13567: a0 = u64 [sp + 0x160]\n 13571: a0 = a0 + 0x1\n 13574: t0 = u64 [sp + 0x108]\n 13578: a0 = a0 & t0\n 13581: u64 [sp + 0x160] = a0\n 13585: jump @511\n      : @510 (gas: 2)\n 13587: t0 = u64 [sp + 0x108]\n 13591: fallthrough\n      : @511 (gas: 5)\n 13592: a4 = 0\n 13594: a0 = u64 [sp + 0x190]\n 13598: a0 = a0 + 0x1\n 13601: a5 = a0 & t0\n 13604: jump @449\n      : @512 (gas: 4)\n 13607: a0 = sp + 0x7ff\n 13611: a0 = a0 + 0x141\n 13615: a1 = 0x40\n 13618: ra = 450, jump @7\n      : @513 [@dyn 225] (gas: 13)\n 13624: a0 = sp + 0x7ff\n 13628: a0 = a0 + 0x111\n 13632: a1 = u64 [a0 + 0x48]\n 13635: u64 [sp + 0x198] = a1\n 13639: a1 = u64 [a0 + 0x40]\n 13642: u64 [sp + 0x190] = a1\n 13646: a1 = u64 [a0 + 0x38]\n 13649: u64 [sp + 0x188] = a1\n 13653: s1 = u64 [a0 + 0x30]\n 13656: ra = 0x1c4\n 13660: ecalli 8 // 'return_data_size'\n 13662: t0 = 0x1c6\n 13666: jump @906\n      : @514 [@dyn 226] (gas: 1)\n 13669: t0 = 454, jump @906\n      : @515 [@dyn 227] (gas: 1)\n 13675: jump @517 if a1 == 0\n      : @516 (gas: 1)\n 13678: jump @770\n      : @517 (gas: 3)\n 13681: s1 = a0\n 13683: a0 = a0 >> 0x20\n 13686: jump @519 if a0 == 0\n      : @518 (gas: 1)\n 13689: jump @770\n      : @519 (gas: 1)\n 13692: t0 = 456, jump @914\n      : @520 [@dyn 228] (gas: 1)\n 13698: ra = 458, jump @11\n      : @521 [@dyn 229] (gas: 10)\n 13704: a1 = sp + 0x1918\n 13708: u32 [a1 + 0x548] = s1\n 13712: s1 = a1\n 13714: i32 a0 = a0 + 0\n 13716: a1 = sp + 0x2000\n 13720: i32 a1 = a1 + 0xfffffffffffffe60\n 13724: a2 = 0\n 13726: ecalli 7 // 'return_data_copy'\n 13728: a0 = i32 [s1 + 0x548]\n 13732: fallthrough\n      : @522 (gas: 2)\n 13733: a1 = u64 [sp + 0x190]\n 13737: jump @524 if a0 >=u a1\n      : @523 (gas: 1)\n 13740: jump @770\n      : @524 (gas: 2)\n 13743: ecalli 8 // 'return_data_size'\n 13745: fallthrough\n      : @525 (gas: 3)\n 13746: s1 = a0\n 13748: a0 = a0 >> 0x20\n 13751: jump @527 if a0 == 0\n      : @526 (gas: 1)\n 13754: jump @770\n      : @527 (gas: 3)\n 13757: a0 = u64 [sp + 0x198]\n 13761: a1 = s1\n 13763: ra = 460, jump @11\n      : @528 [@dyn 230] (gas: 7)\n 13769: i32 a1 = a0 + 0\n 13771: i32 a2 = s1 + 0\n 13773: a0 = 0x1\n 13776: ecalli 9 // 'seal_return'\n 13778: a1 = 0x20010\n 13783: i32 a1 = a1 + 0\n 13785: jump @761\n      : @529 (gas: 3)\n 13788: a0 = sp + 0x1c40\n 13792: a1 = 0x40\n 13795: ra = 462, jump @7\n      : @530 [@dyn 231] (gas: 14)\n 13801: a3 = sp + 0x1918\n 13805: a4 = a3 + 0x300\n 13809: a0 = u64 [a4 + 0x40]\n 13812: a1 = u64 [a4 + 0x38]\n 13815: a2 = u64 [a4 + 0x30]\n 13818: s1 = u64 [a4 + 0x28]\n 13821: a0 = a0 | a2\n 13824: a2 = s1 | a1\n 13827: a2 = a2 | a0\n 13830: a2 = a2 >> 0x20\n 13833: a0 = a0 | a1\n 13836: a0 = a0 << 0x20\n 13839: a0 = a0 | a2\n 13842: jump @532 if a0 == 0\n      : @531 (gas: 1)\n 13845: jump @770\n      : @532 (gas: 11)\n 13848: a0 = u64 [sp + 0x40]\n 13851: a1 = u64 [sp + 0x48]\n 13854: a0 = a0 & a1\n 13857: u64 [a3 + 800] = 0\n 13861: u64 [a3 + 792] = 0\n 13865: u64 [a3 + 0x308] = a0\n 13869: a1 = sp + 0x1c20\n 13873: u64 [a3 + 784] = 0\n 13877: a0 = s1\n 13879: ra = 0x120\n 13883: jump @9\n      : @533 (gas: 3)\n 13886: a0 = sp + 0x1120\n 13890: a1 = 0x40\n 13893: ra = 464, jump @7\n      : @534 [@dyn 232] (gas: 12)\n 13899: a0 = sp + 0x1110\n 13903: a1 = u64 [a0 + 0x28]\n 13906: u64 [sp + 0x198] = a1\n 13910: a1 = u64 [a0 + 0x20]\n 13913: u64 [sp + 0x190] = a1\n 13917: a1 = u64 [a0 + 0x18]\n 13920: u64 [sp + 0x188] = a1\n 13924: s1 = u64 [a0 + 0x10]\n 13927: ra = 0x1d2\n 13931: ecalli 8 // 'return_data_size'\n 13933: t0 = 0x1d4\n 13937: jump @906\n      : @535 [@dyn 233] (gas: 1)\n 13940: t0 = 468, jump @906\n      : @536 [@dyn 234] (gas: 1)\n 13946: jump @538 if a1 == 0\n      : @537 (gas: 1)\n 13949: jump @770\n      : @538 (gas: 3)\n 13952: s1 = a0\n 13954: a0 = a0 >> 0x20\n 13957: jump @540 if a0 == 0\n      : @539 (gas: 1)\n 13960: jump @770\n      : @540 (gas: 1)\n 13963: t0 = 470, jump @914\n      : @541 [@dyn 235] (gas: 1)\n 13969: ra = 472, jump @11\n      : @542 [@dyn 236] (gas: 10)\n 13975: a1 = sp + 0x2118\n 13979: u32 [a1 + 0x68] = s1\n 13982: s1 = a1\n 13984: i32 a0 = a0 + 0\n 13986: a1 = sp + 0x2000\n 13990: i32 a1 = a1 + 0x180\n 13994: a2 = 0\n 13996: ecalli 7 // 'return_data_copy'\n 13998: a0 = i32 [s1 + 0x68]\n 14001: jump @522\n      : @543 (gas: 3)\n 14004: a0 = sp + 0x18a0\n 14008: a1 = 0x40\n 14011: ra = 474, jump @7\n      : @544 [@dyn 237] (gas: 3)\n 14017: a0 = sp + 0x1110\n 14021: a2 = a0 + 0x700\n 14025: t0 = 476, jump @940\n      : @545 [@dyn 238] (gas: 4)\n 14031: ra = 0x1de\n 14035: ecalli 8 // 'return_data_size'\n 14037: t0 = 0x1e0\n 14041: jump @906\n      : @546 [@dyn 239] (gas: 1)\n 14044: t0 = 480, jump @906\n      : @547 [@dyn 240] (gas: 1)\n 14050: jump @549 if a1 == 0\n      : @548 (gas: 1)\n 14053: jump @770\n      : @549 (gas: 3)\n 14056: s1 = a0\n 14058: a0 = a0 >> 0x20\n 14061: jump @551 if a0 == 0\n      : @550 (gas: 1)\n 14064: jump @770\n      : @551 (gas: 1)\n 14067: t0 = 482, jump @914\n      : @552 [@dyn 241] (gas: 1)\n 14073: ra = 484, jump @11\n      : @553 [@dyn 242] (gas: 10)\n 14079: a1 = sp + 0x2118\n 14083: u32 [a1 + 0x388] = s1\n 14087: s1 = a1\n 14089: i32 a0 = a0 + 0\n 14091: a1 = sp + 0x2000\n 14095: i32 a1 = a1 + 0x4a0\n 14099: a2 = 0\n 14101: ecalli 7 // 'return_data_copy'\n 14103: a0 = i32 [s1 + 0x388]\n 14107: jump @522\n      : @554 (gas: 4)\n 14110: a0 = sp + 0x7ff\n 14114: a0 = a0 + 0x1\n 14117: a1 = 0x40\n 14120: ra = 486, jump @7\n      : @555 [@dyn 243] (gas: 15)\n 14126: a0 = sp + 0x1000\n 14130: a0 = u64 [a0 + 0xfffffffffffff818]\n 14134: u64 [sp + 0x198] = a0\n 14138: a0 = sp + 0x1000\n 14142: a0 = u64 [a0 + 0xfffffffffffff810]\n 14146: u64 [sp + 0x190] = a0\n 14150: a0 = sp + 0x1000\n 14154: a0 = u64 [a0 + 0xfffffffffffff808]\n 14158: u64 [sp + 0x188] = a0\n 14162: a0 = sp + 0x1000\n 14166: s1 = u64 [a0 + 0xfffffffffffff800]\n 14170: ra = 0x1e8\n 14174: ecalli 8 // 'return_data_size'\n 14176: t0 = 0x1ea\n 14180: jump @906\n      : @556 [@dyn 244] (gas: 1)\n 14183: t0 = 490, jump @906\n      : @557 [@dyn 245] (gas: 1)\n 14189: jump @559 if a1 == 0\n      : @558 (gas: 1)\n 14192: jump @770\n      : @559 (gas: 3)\n 14195: s1 = a0\n 14197: a0 = a0 >> 0x20\n 14200: jump @561 if a0 == 0\n      : @560 (gas: 1)\n 14203: jump @770\n      : @561 (gas: 1)\n 14206: t0 = 492, jump @914\n      : @562 [@dyn 246] (gas: 1)\n 14212: ra = 494, jump @11\n      : @563 [@dyn 247] (gas: 10)\n 14218: a1 = sp + 0x1918\n 14222: u32 [a1 + 0x5c8] = s1\n 14226: s1 = a1\n 14228: i32 a0 = a0 + 0\n 14230: a1 = sp + 0x2000\n 14234: i32 a1 = a1 + 0xfffffffffffffee0\n 14238: a2 = 0\n 14240: ecalli 7 // 'return_data_copy'\n 14242: a0 = i32 [s1 + 0x5c8]\n 14246: jump @522\n      : @564 (gas: 3)\n 14249: a0 = sp + 0x1020\n 14253: a1 = 0x40\n 14256: ra = 496, jump @7\n      : @565 [@dyn 248] (gas: 14)\n 14262: a0 = sp + 0x7ff\n 14266: a0 = a0 + 0x111\n 14270: a2 = a0 + 0x700\n 14274: a1 = u64 [a2 + 0x28]\n 14277: u64 [sp + 0x198] = a1\n 14281: a1 = u64 [a2 + 0x20]\n 14284: u64 [sp + 0x190] = a1\n 14288: a1 = u64 [a2 + 0x18]\n 14291: u64 [sp + 0x188] = a1\n 14295: s1 = u64 [a2 + 0x10]\n 14298: ra = 0x1f2\n 14302: ecalli 8 // 'return_data_size'\n 14304: t0 = 0x1f4\n 14308: jump @906\n      : @566 [@dyn 249] (gas: 1)\n 14311: t0 = 500, jump @906\n      : @567 [@dyn 250] (gas: 1)\n 14317: jump @569 if a1 == 0\n      : @568 (gas: 1)\n 14320: jump @770\n      : @569 (gas: 3)\n 14323: s1 = a0\n 14325: a0 = a0 >> 0x20\n 14328: jump @571 if a0 == 0\n      : @570 (gas: 1)\n 14331: jump @770\n      : @571 (gas: 1)\n 14334: t0 = 502, jump @914\n      : @572 [@dyn 251] (gas: 1)\n 14340: ra = 504, jump @11\n      : @573 [@dyn 252] (gas: 10)\n 14346: a1 = sp + 0x2118\n 14350: u32 [a1 + 0xe8] = s1\n 14354: s1 = a1\n 14356: i32 a0 = a0 + 0\n 14358: a1 = sp + 0x2000\n 14362: i32 a1 = a1 + 0x200\n 14366: a2 = 0\n 14368: ecalli 7 // 'return_data_copy'\n 14370: a0 = i32 [s1 + 0xe8]\n 14374: jump @522\n      : @574 (gas: 3)\n 14377: a0 = sp + 0x1720\n 14381: a1 = 0x40\n 14384: ra = 506, jump @7\n      : @575 [@dyn 253] (gas: 13)\n 14390: a0 = sp + 0x1110\n 14394: a2 = a0 + 0x600\n 14398: a1 = u64 [a2 + 0x28]\n 14401: u64 [sp + 0x198] = a1\n 14405: a1 = u64 [a2 + 0x20]\n 14408: u64 [sp + 0x190] = a1\n 14412: a1 = u64 [a2 + 0x18]\n 14415: u64 [sp + 0x188] = a1\n 14419: s1 = u64 [a2 + 0x10]\n 14422: ra = 0x1fc\n 14426: ecalli 8 // 'return_data_size'\n 14428: t0 = 0x1fe\n 14432: jump @906\n      : @576 [@dyn 254] (gas: 1)\n 14435: t0 = 510, jump @906\n      : @577 [@dyn 255] (gas: 1)\n 14441: jump @579 if a1 == 0\n      : @578 (gas: 1)\n 14444: jump @770\n      : @579 (gas: 3)\n 14447: s1 = a0\n 14449: a0 = a0 >> 0x20\n 14452: jump @581 if a0 == 0\n      : @580 (gas: 1)\n 14455: jump @770\n      : @581 (gas: 1)\n 14458: t0 = 512, jump @914\n      : @582 [@dyn 256] (gas: 1)\n 14464: ra = 514, jump @11\n      : @583 [@dyn 257] (gas: 10)\n 14470: a1 = sp + 0x2118\n 14474: u32 [a1 + 0x408] = s1\n 14478: s1 = a1\n 14480: i32 a0 = a0 + 0\n 14482: a1 = sp + 0x2000\n 14486: i32 a1 = a1 + 0x520\n 14490: a2 = 0\n 14492: ecalli 7 // 'return_data_copy'\n 14494: a0 = i32 [s1 + 0x408]\n 14498: jump @522\n      : @584 (gas: 3)\n 14501: a0 = sp + 0x680\n 14505: a1 = 0x40\n 14508: ra = 516, jump @7\n      : @585 [@dyn 258] (gas: 12)\n 14514: a1 = sp + 0x600\n 14518: a0 = u64 [a1 + 0x98]\n 14522: u64 [sp + 0x198] = a0\n 14526: a0 = u64 [a1 + 0x90]\n 14530: u64 [sp + 0x190] = a0\n 14534: a0 = u64 [a1 + 0x88]\n 14538: u64 [sp + 0x188] = a0\n 14542: s1 = u64 [a1 + 0x80]\n 14546: ra = 0x206\n 14550: ecalli 8 // 'return_data_size'\n 14552: t0 = 0x208\n 14556: jump @906\n      : @586 [@dyn 259] (gas: 1)\n 14559: t0 = 520, jump @906\n      : @587 [@dyn 260] (gas: 1)\n 14565: jump @589 if a1 == 0\n      : @588 (gas: 1)\n 14568: jump @770\n      : @589 (gas: 3)\n 14571: s1 = a0\n 14573: a0 = a0 >> 0x20\n 14576: jump @591 if a0 == 0\n      : @590 (gas: 1)\n 14579: jump @770\n      : @591 (gas: 1)\n 14582: t0 = 522, jump @914\n      : @592 [@dyn 261] (gas: 1)\n 14588: ra = 524, jump @11\n      : @593 [@dyn 262] (gas: 10)\n 14594: a1 = sp + 0x1918\n 14598: u32 [a1 + 0x648] = s1\n 14602: s1 = a1\n 14604: i32 a0 = a0 + 0\n 14606: a1 = sp + 0x2000\n 14610: i32 a1 = a1 + 0xffffffffffffff60\n 14614: a2 = 0\n 14616: ecalli 7 // 'return_data_copy'\n 14618: a0 = i32 [s1 + 0x648]\n 14622: jump @522\n      : @594 (gas: 4)\n 14625: a0 = sp + 0x7ff\n 14629: a0 = a0 + 0x4e1\n 14633: a1 = 0x40\n 14636: ra = 526, jump @7\n      : @595 [@dyn 263] (gas: 14)\n 14642: a0 = sp + 0x7ff\n 14646: a0 = a0 + 0x111\n 14650: a2 = a0 + 0x300\n 14654: a1 = u64 [a2 + 0xe8]\n 14658: u64 [sp + 0x198] = a1\n 14662: a1 = u64 [a2 + 0xe0]\n 14666: u64 [sp + 0x190] = a1\n 14670: a1 = u64 [a2 + 0xd8]\n 14674: u64 [sp + 0x188] = a1\n 14678: s1 = u64 [a2 + 0xd0]\n 14682: ra = 0x210\n 14686: ecalli 8 // 'return_data_size'\n 14688: t0 = 0x212\n 14692: jump @906\n      : @596 [@dyn 264] (gas: 1)\n 14695: t0 = 530, jump @906\n      : @597 [@dyn 265] (gas: 1)\n 14701: jump @599 if a1 == 0\n      : @598 (gas: 1)\n 14704: jump @770\n      : @599 (gas: 3)\n 14707: s1 = a0\n 14709: a0 = a0 >> 0x20\n 14712: jump @601 if a0 == 0\n      : @600 (gas: 1)\n 14715: jump @770\n      : @601 (gas: 1)\n 14718: t0 = 532, jump @914\n      : @602 [@dyn 266] (gas: 1)\n 14724: ra = 534, jump @11\n      : @603 [@dyn 267] (gas: 10)\n 14730: a1 = sp + 0x2118\n 14734: u32 [a1 + 0x1e8] = s1\n 14738: s1 = a1\n 14740: i32 a0 = a0 + 0\n 14742: a1 = sp + 0x2000\n 14746: i32 a1 = a1 + 0x300\n 14750: a2 = 0\n 14752: ecalli 7 // 'return_data_copy'\n 14754: a0 = i32 [s1 + 0x1e8]\n 14758: jump @522\n      : @604 (gas: 3)\n 14761: s1 = 0\n 14763: a0 = 0x20\n 14766: fallthrough\n      : @605 (gas: 17)\n 14767: a5 = u64 [sp + 0x198]\n 14771: a2 = u64 [sp + 0x190]\n 14775: a4 = u64 [sp + 0x188]\n 14779: a1 = u64 [sp + 0x168]\n 14783: u64 [sp + 0x190] = a0\n 14787: a3 = sp + 0x600\n 14791: u64 [a3 + 0x40] = a0\n 14794: u64 [a3 + 0x60] = a5\n 14797: u64 [a3 + 72] = 0\n 14800: u64 [a3 + 0x68] = a1\n 14803: u64 [a3 + 80] = 0\n 14806: u64 [a3 + 0x70] = a4\n 14809: u64 [a3 + 88] = 0\n 14812: a0 = sp + 0x660\n 14816: a1 = sp + 0x640\n 14820: u64 [a3 + 0x78] = a2\n 14823: ra = 536, jump @839\n      : @606 [@dyn 268] (gas: 1)\n 14829: t0 = 538, jump @924\n      : @607 [@dyn 269] (gas: 3)\n 14835: a0 = s1 | s1\n 14838: a2 = a1 if a0 == 0\n 14841: jump @609 if a2 != 0\n      : @608 (gas: 1)\n 14844: jump @811\n      : @609 (gas: 3)\n 14847: a0 = sp + 0x620\n 14851: a1 = u64 [sp + 0x198]\n 14855: ra = 540, jump @7\n      : @610 [@dyn 270] (gas: 12)\n 14861: a1 = sp + 0x600\n 14865: a0 = u64 [a1 + 0x38]\n 14868: u64 [sp + 0x130] = a0\n 14872: a0 = u64 [a1 + 0x30]\n 14875: u64 [sp + 0x128] = a0\n 14879: a0 = u64 [a1 + 0x28]\n 14882: u64 [sp + 0x120] = a0\n 14886: a0 = u64 [a1 + 0x20]\n 14889: u64 [sp + 0x118] = a0\n 14893: a0 = sp + 0x600\n 14897: a1 = 0x40\n 14900: ra = 542, jump @7\n      : @611 [@dyn 271] (gas: 13)\n 14906: a1 = sp + 0x600\n 14910: a2 = u64 [a1 + 0x18]\n 14913: a3 = u64 [a1 + 0x10]\n 14916: s1 = u64 [a1 + 0x8]\n 14919: a0 = u64 [a1]\n 14921: a4 = s1 | a2\n 14924: a1 = a0 | a3\n 14927: a1 = a1 | a4\n 14930: a1 = a1 >> 0x20\n 14933: a4 = a4 | a3\n 14936: a4 = a4 << 0x20\n 14939: a1 = a1 | a4\n 14942: jump @770 if a1 != 0\n      : @612 (gas: 11)\n 14946: a5 = sp + 0x500\n 14950: u64 [a5 + 240] = 0\n 14954: u64 [a5 + 232] = 0\n 14958: u64 [a5 + 224] = 0\n 14962: a4 = 0x39c5151500000000\n 14972: a1 = sp + 0x5e0\n 14976: u64 [a5 + 0xf8] = a4\n 14980: u64 [sp + 0x190] = a2\n 14984: u64 [sp + 0x188] = a3\n 14988: u64 [sp + 0x198] = a0\n 14992: ra = 544, jump @9\n      : @613 [@dyn 272] (gas: 1)\n 14998: t0 = 546, jump @917\n      : @614 [@dyn 273] (gas: 25)\n 15004: a5 = sp + 0x500\n 15008: u64 [a5 + 0x78] = a1\n 15011: a1 = u64 [sp + 0x78]\n 15014: u64 [a5 + 0x70] = a1\n 15017: a1 = u64 [sp + 0x70]\n 15020: u64 [a5 + 0x68] = a1\n 15023: a1 = u64 [sp + 0x88]\n 15027: u64 [a5 + 0x60] = a1\n 15030: a1 = u64 [sp + 0xd0]\n 15034: u64 [a5 + 0x98] = a1\n 15038: a1 = u64 [sp + 0xe8]\n 15042: u64 [a5 + 0x90] = a1\n 15046: a1 = u64 [sp + 0xe0]\n 15050: u64 [a5 + 0x88] = a1\n 15054: a1 = u64 [sp + 0xd8]\n 15058: u64 [a5 + 0x80] = a1\n 15062: u64 [a5 + 0xa8] = a2\n 15066: u64 [a5 + 0xa0] = a0\n 15070: u64 [a5 + 0xb0] = a3\n 15074: a0 = sp + 0x5c0\n 15078: a1 = sp + 0x5a0\n 15082: a2 = sp + 0x580\n 15086: a3 = sp + 0x560\n 15090: u64 [a5 + 0xb8] = a4\n 15094: ra = 548, jump @864\n      : @615 [@dyn 274] (gas: 30)\n 15100: a1 = sp + 0x500\n 15104: a0 = u64 [a1 + 0xc8]\n 15108: t1 = u64 [a1 + 0xd8]\n 15112: t0 = u64 [a1 + 0xc0]\n 15116: a3 = u64 [a1 + 0xd0]\n 15120: a4 = a0 ^ s1\n 15123: a5 = a0 <u s1\n 15126: a2 = u64 [sp + 0x198]\n 15130: t2 = t0 <u a2\n 15133: a5 = t2 if a4 == 0\n 15136: a1 = u64 [sp + 0x188]\n 15140: a4 = a3 - a1\n 15143: a3 = a3 <u a1\n 15146: a1 = u64 [sp + 0x190]\n 15150: a1 = t1 - a1\n 15153: a1 = a1 - a3\n 15156: a3 = a4 <u a5\n 15159: a1 = a1 - a3\n 15162: u64 [sp + 0x180] = a1\n 15166: a4 = a4 - a5\n 15169: u64 [sp + 0x178] = a4\n 15173: u64 [sp + 0x168] = s1\n 15177: a0 = a0 - s1\n 15180: a0 = a0 - t2\n 15183: u64 [sp + 0x170] = a0\n 15187: s1 = t0 - a2\n 15190: ra = 0x226\n 15194: ecalli 6 // 'ref_time_left'\n 15196: t0 = 0x228\n 15200: jump @938\n      : @616 [@dyn 275] (gas: 1)\n 15203: t0 = 552, jump @938\n      : @617 [@dyn 276] (gas: 20)\n 15209: a0 = a0 + sp\n 15212: u64 [a0 + 1664] = 0\n 15216: a0 = sp + 0x1918\n 15220: u64 [a0 + 1656] = 0\n 15224: a0 = sp + 0x1918\n 15228: u64 [a0 + 1648] = 0\n 15232: a2 = s1\n 15234: a4 = u64 [sp + 0x178]\n 15238: a0 = s1 | a4\n 15241: a1 = u64 [sp + 0x180]\n 15245: a3 = u64 [sp + 0x170]\n 15249: a1 = a1 | a3\n 15252: s1 = sp + 0x1918\n 15256: a0 = a0 | a1\n 15259: a0 = a0 >> 0x20\n 15262: a1 = a1 | a4\n 15265: a1 = a1 << 0x20\n 15268: a0 = a0 | a1\n 15271: u64 [s1 + 1640] = 0\n 15275: jump @770 if a0 != 0\n      : @618 (gas: 5)\n 15279: s1 = u64 [sp + 0x198]\n 15283: a0 = s1\n 15285: a1 = a2\n 15287: u64 [sp + 0x160] = a2\n 15291: ra = 554, jump @11\n      : @619 [@dyn 277] (gas: 4)\n 15297: u64 [sp + 0x180] = a0\n 15301: a1 = 0x20\n 15304: a0 = s1\n 15306: ra = 556, jump @11\n      : @620 [@dyn 278] (gas: 11)\n 15312: a1 = sp + 0x1918\n 15316: u32 [a1 + 1672] = 0x20\n 15321: u64 [a1 + 1728] = 0\n 15325: u64 [a1 + 1720] = 0\n 15329: u64 [a1 + 1712] = 0\n 15333: u64 [a1 + 1704] = 0\n 15337: a1 = sp + 0x1f80\n 15341: a1 = a1 << 0x20\n 15344: a1 = a1 >> 0x20\n 15347: a2 = 0x1fc0\n 15351: t0 = 558, jump @929\n      : @621 [@dyn 279] (gas: 2)\n 15357: i32 a1 = a1 + 0xffffffffffffffa0\n 15360: t0 = 560, jump @919\n      : @622 [@dyn 280] (gas: 2)\n 15366: ecalli 0 // 'call'\n 15367: fallthrough\n      : @623 (gas: 1)\n 15368: jump @709 if a0 != 0\n      : @624 (gas: 2)\n 15372: ecalli 8 // 'return_data_size'\n 15374: fallthrough\n      : @625 (gas: 2)\n 15375: a1 = 0x20\n 15378: jump @627 if a0 >=u a1\n      : @626 (gas: 3)\n 15381: ecalli 8 // 'return_data_size'\n 15383: a1 = a0\n 15385: fallthrough\n      : @627 (gas: 18)\n 15386: s1 = 0\n 15388: a0 = u64 [sp + 0x198]\n 15392: u64 [sp + 0x180] = a1\n 15396: a3 = sp + 0x500\n 15400: u64 [a3] = a1\n 15402: u64 [a3 + 0x20] = a0\n 15405: u64 [a3 + 8] = 0\n 15408: a0 = u64 [sp + 0x168]\n 15412: u64 [a3 + 0x28] = a0\n 15415: u64 [a3 + 16] = 0\n 15418: a0 = u64 [sp + 0x188]\n 15422: u64 [a3 + 0x30] = a0\n 15425: u64 [a3 + 24] = 0\n 15428: a0 = sp + 0x520\n 15432: a1 = sp + 0x500\n 15436: a2 = u64 [sp + 0x190]\n 15440: u64 [a3 + 0x38] = a2\n 15443: ra = 562, jump @839\n      : @628 [@dyn 281] (gas: 2)\n 15449: a1 = u64 [sp + 0x180]\n 15453: t0 = 564, jump @909\n      : @629 [@dyn 282] (gas: 2)\n 15459: a1 = u64 [sp + 0x198]\n 15463: jump @811 if a2 == 0\n      : @630 (gas: 3)\n 15467: s1 = 0xffffffff\n 15477: a0 = sp + 0x4e0\n 15481: ra = 566, jump @7\n      : @631 [@dyn 283] (gas: 43)\n 15487: a5 = 0x1\n 15490: t0 = s1\n 15492: u64 [sp + 352] = 0\n 15496: a4 = 0\n 15498: a2 = sp + 0x400\n 15502: a0 = u64 [a2 + 0xf8]\n 15506: u64 [sp + 0xc8] = a0\n 15510: a0 = u64 [a2 + 0xf0]\n 15514: u64 [sp + 0xc0] = a0\n 15518: a0 = u64 [sp + 0x110]\n 15522: a0 = a0 & s1\n 15525: u64 [sp + 0x110] = a0\n 15529: a0 = sp + 0x2000\n 15533: a0 = a0 << 0x20\n 15536: a0 = a0 >> 0x20\n 15539: a1 = sp + 0x2040\n 15543: a1 = a1 << 0x20\n 15546: a0 = a0 | a1\n 15549: u64 [sp + 0x98] = a0\n 15553: a0 = sp + 0x2020\n 15557: a0 = a0 << 0x20\n 15560: u64 [sp + 0x90] = a0\n 15564: a0 = sp + 0x2080\n 15568: a0 = a0 << 0x20\n 15571: a0 = a0 >> 0x20\n 15574: a1 = sp + 0x20c0\n 15578: a1 = a1 << 0x20\n 15581: a0 = a0 | a1\n 15584: u64 [sp + 0x58] = a0\n 15587: a0 = sp + 0x20a0\n 15591: a0 = a0 << 0x20\n 15594: u64 [sp + 0x50] = a0\n 15597: a0 = 0x9962663400000000\n 15607: u64 [sp + 0xa0] = a0\n 15611: a0 = 0x9c14eb6e00000000\n 15621: u64 [sp + 0x60] = a0\n 15624: a0 = u64 [a2 + 0xe8]\n 15628: u64 [sp + 0xb8] = a0\n 15632: a0 = u64 [a2 + 0xe0]\n 15636: u64 [sp + 0xb0] = a0\n 15640: u64 [sp + 72] = 0x8fc\n 15645: u64 [sp + 0x108] = s1\n 15649: fallthrough\n      : @632 (gas: 10)\n 15650: a0 = 0\n 15652: a0 = 0 if a4 == 0\n 15654: a1 = u64 [sp + 0x110]\n 15658: a3 = a1 <u a5\n 15661: a3 = 0 if a4 != 0\n 15663: a2 = 0\n 15665: a3 = a0 if a2 != 0\n 15668: s1 = u64 [sp + 0x160]\n 15672: s1 = s1 & t0\n 15675: jump @731 if a3 != 0\n      : @633 (gas: 2)\n 15679: a3 = u64 [sp + 0x138]\n 15683: jump @731 if s1 >=u a3\n      : @634 (gas: 1)\n 15687: t0 = 568, jump @923\n      : @635 [@dyn 284] (gas: 1)\n 15693: ra = 570, jump @948\n      : @636 [@dyn 285] (gas: 1)\n 15699: t0 = 572, jump @932\n      : @637 [@dyn 286] (gas: 1)\n 15705: ra = 574, jump @943\n      : @638 [@dyn 287] (gas: 7)\n 15711: u64 [sp + 0x170] = a0\n 15715: u64 [sp + 0x178] = a1\n 15719: i32 a2 = s1 + 0\n 15721: u64 [sp + 0x180] = a2\n 15725: a0 = 0\n 15727: a1 = 0\n 15729: ra = 576, jump @948\n      : @639 [@dyn 288] (gas: 1)\n 15735: t0 = 578, jump @912\n      : @640 [@dyn 289] (gas: 1)\n 15741: ra = 580, jump @948\n      : @641 [@dyn 290] (gas: 1)\n 15747: t0 = 582, jump @910\n      : @642 [@dyn 291] (gas: 1)\n 15753: jump @682 if a2 == 0\n      : @643 (gas: 1)\n 15757: t0 = 584, jump @935\n      : @644 [@dyn 292] (gas: 1)\n 15763: jump @682 if a0 != 0\n      : @645 (gas: 3)\n 15767: a0 = sp + 0x480\n 15771: a1 = 0x40\n 15774: ra = 586, jump @7\n      : @646 [@dyn 293] (gas: 15)\n 15780: a3 = sp + 0x400\n 15784: a1 = u64 [a3 + 0x98]\n 15788: s1 = u64 [a3 + 0x90]\n 15792: a0 = u64 [a3 + 0x88]\n 15796: a2 = u64 [a3 + 0x80]\n 15800: u64 [sp + 0x188] = a0\n 15804: u64 [sp + 0x180] = a1\n 15808: a0 = a0 | a1\n 15811: a1 = a2 | s1\n 15814: a1 = a1 | a0\n 15817: a1 = a1 >> 0x20\n 15820: a0 = a0 | s1\n 15823: a0 = a0 << 0x20\n 15826: a0 = a0 | a1\n 15829: jump @770 if a0 != 0\n      : @647 (gas: 10)\n 15833: a3 = sp + 0x400\n 15837: u64 [a3 + 112] = 0\n 15840: u64 [a3 + 104] = 0\n 15843: u64 [a3 + 96] = 0\n 15846: a1 = sp + 0x460\n 15850: a0 = u64 [sp + 0xa0]\n 15854: u64 [a3 + 0x78] = a0\n 15857: a0 = a2\n 15859: u64 [sp + 0x198] = a2\n 15863: ra = 588, jump @9\n      : @648 [@dyn 294] (gas: 36)\n 15869: a1 = u64 [sp + 0x198]\n 15873: a0 = a1 + 0x4\n 15876: a1 = a0 <u a1\n 15879: a3 = u64 [sp + 0x188]\n 15883: a2 = a3 + a1\n 15886: a3 = a2 <u a3\n 15889: a3 = a1 if a1 == 0\n 15892: a3 = a3 + s1\n 15895: a1 = a3 <u s1\n 15898: a4 = u64 [sp + 0x180]\n 15902: a4 = a4 + a1\n 15905: a1 = u64 [sp + 0x168]\n 15909: a5 = sp + 0x300\n 15913: u64 [a5 + 0xf8] = a1\n 15917: u64 [a5 + 0xf0] = a1\n 15921: u64 [a5 + 0xe8] = a1\n 15925: a1 = u64 [sp + 0x190]\n 15929: u64 [a5 + 0xe0] = a1\n 15933: a1 = u64 [sp + 0xd0]\n 15937: a5 = sp + 0x400\n 15941: u64 [a5 + 0x18] = a1\n 15944: a1 = u64 [sp + 0xe8]\n 15948: u64 [a5 + 0x10] = a1\n 15951: a1 = u64 [sp + 0xe0]\n 15955: u64 [a5 + 0x8] = a1\n 15958: a1 = u64 [sp + 0xd8]\n 15962: u64 [a5] = a1\n 15964: u64 [a5 + 0x28] = a2\n 15967: u64 [a5 + 0x20] = a0\n 15970: u64 [a5 + 0x30] = a3\n 15973: a0 = sp + 0x440\n 15977: a1 = sp + 0x420\n 15981: a2 = sp + 0x400\n 15985: a3 = sp + 0x3e0\n 15989: u64 [a5 + 0x38] = a4\n 15992: ra = 590, jump @882\n      : @649 [@dyn 295] (gas: 32)\n 15998: a2 = sp + 0x400\n 16002: a0 = u64 [a2 + 0x48]\n 16005: a1 = u64 [a2 + 0x58]\n 16008: t0 = u64 [a2 + 0x40]\n 16011: a3 = u64 [a2 + 0x50]\n 16014: a2 = u64 [sp + 0x188]\n 16018: a4 = a0 ^ a2\n 16021: a5 = a0 <u a2\n 16024: t1 = a2\n 16026: a2 = u64 [sp + 0x198]\n 16030: t2 = t0 <u a2\n 16033: a5 = t2 if a4 == 0\n 16036: a4 = a3 - s1\n 16039: u64 [sp + 0x170] = s1\n 16043: a3 = a3 <u s1\n 16046: s1 = u64 [sp + 0x180]\n 16050: a1 = a1 - s1\n 16053: a1 = a1 - a3\n 16056: a3 = a4 <u a5\n 16059: a1 = a1 - a3\n 16062: u64 [sp + 0x100] = a1\n 16066: a4 = a4 - a5\n 16069: u64 [sp + 0xf8] = a4\n 16073: a0 = a0 - t1\n 16076: a0 = a0 - t2\n 16079: u64 [sp + 0xf0] = a0\n 16083: a0 = t0 - a2\n 16086: u64 [sp + 0x178] = a0\n 16090: ra = 0x250\n 16094: ecalli 6 // 'ref_time_left'\n 16096: t0 = 0x252\n 16100: jump @913\n      : @650 [@dyn 296] (gas: 1)\n 16103: t0 = 594, jump @913\n      : @651 [@dyn 297] (gas: 10)\n 16109: u64 [s1 + 1792] = 0\n 16113: u64 [s1 + 1784] = 0\n 16117: u64 [s1 + 1776] = 0\n 16121: a0 = u64 [sp + 0x178]\n 16125: a2 = a0\n 16127: a3 = u64 [sp + 0xf8]\n 16131: a0 = a0 | a3\n 16134: a1 = u64 [sp + 0x100]\n 16138: a4 = u64 [sp + 0xf0]\n 16142: t0 = 596, jump @934\n      : @652 [@dyn 298] (gas: 2)\n 16148: u64 [s1 + 1768] = 0\n 16152: jump @770 if a0 != 0\n      : @653 (gas: 4)\n 16156: s1 = u64 [sp + 0x198]\n 16160: a0 = s1\n 16162: a1 = a2\n 16164: ra = 598, jump @11\n      : @654 [@dyn 299] (gas: 4)\n 16170: u64 [sp + 0x100] = a0\n 16174: a1 = 0x60\n 16177: a0 = s1\n 16179: ra = 600, jump @11\n      : @655 [@dyn 300] (gas: 22)\n 16185: a2 = sp + 0x1918\n 16189: u32 [a2 + 1800] = 0x60\n 16194: u64 [a2 + 1856] = 0\n 16198: u64 [a2 + 1848] = 0\n 16202: u64 [a2 + 1840] = 0\n 16206: u64 [a2 + 1832] = 0\n 16210: a1 = u64 [sp + 0x100]\n 16214: a1 = a1 << 0x20\n 16217: a1 = a1 >> 0x20\n 16220: a4 = u64 [sp + 0x178]\n 16224: a4 = a4 << 0x20\n 16227: a4 = a4 | a1\n 16230: a0 = a0 << 0x20\n 16233: a0 = a0 >> 0x20\n 16236: a5 = u64 [sp + 0x90]\n 16240: a5 = a5 | a0\n 16243: a1 = 0xffffffffffffffff\n 16246: a2 = 0xffffffffffffffff\n 16249: a0 = u64 [sp + 0xa8]\n 16253: a3 = u64 [sp + 0x98]\n 16257: ecalli 0 // 'call'\n 16258: fallthrough\n      : @656 (gas: 1)\n 16259: jump @742 if a0 != 0\n      : @657 (gas: 2)\n 16263: ecalli 8 // 'return_data_size'\n 16265: fallthrough\n      : @658 (gas: 2)\n 16266: a1 = 0x60\n 16269: jump @660 if a0 >=u a1\n      : @659 (gas: 3)\n 16272: ecalli 8 // 'return_data_size'\n 16274: a1 = a0\n 16276: fallthrough\n      : @660 (gas: 18)\n 16277: s1 = 0\n 16279: a2 = u64 [sp + 0x188]\n 16283: a0 = u64 [sp + 0x170]\n 16287: a3 = u64 [sp + 0x180]\n 16291: u64 [sp + 0x178] = a1\n 16295: a5 = sp + 0x300\n 16299: u64 [a5 + 0x80] = a1\n 16303: a4 = u64 [sp + 0x198]\n 16307: u64 [a5 + 0xa0] = a4\n 16311: u64 [a5 + 136] = 0\n 16315: u64 [a5 + 0xa8] = a2\n 16319: u64 [a5 + 144] = 0\n 16323: u64 [a5 + 0xb0] = a0\n 16327: u64 [a5 + 152] = 0\n 16331: a0 = sp + 0x3a0\n 16335: a1 = sp + 0x380\n 16339: u64 [a5 + 0xb8] = a3\n 16343: ra = 602, jump @839\n      : @661 [@dyn 301] (gas: 33)\n 16349: t0 = u64 [sp + 0x198]\n 16353: a1 = u64 [sp + 0x178]\n 16357: a0 = a1 + t0\n 16360: a1 = a0 <u a1\n 16363: t1 = u64 [sp + 0x188]\n 16367: a2 = t1\n 16369: a2 = a2 + a1\n 16372: a3 = a2 ^ 0\n 16374: a4 = a2 <u 0\n 16376: a4 = a1 if a3 == 0\n 16379: a5 = u64 [sp + 0x170]\n 16383: a1 = a5\n 16385: a4 = a4 + a1\n 16388: t2 = a4 <u a1\n 16391: a1 = a1 <u 0\n 16393: a3 = u64 [sp + 0x180]\n 16397: s1 = a3\n 16399: a1 = a1 + s1\n 16402: t2 = t2 + a1\n 16405: s1 = sp + 0x200\n 16409: u64 [s1 + 0xf0] = a4\n 16413: u64 [s1 + 0xe8] = a2\n 16417: u64 [s1 + 0xe0] = a0\n 16421: a0 = sp + 0x300\n 16425: u64 [a0 + 0x18] = a3\n 16428: u64 [a0 + 0x10] = a5\n 16431: u64 [a0 + 0x8] = t1\n 16434: u64 [a0] = t0\n 16436: a0 = sp + 0x320\n 16440: a1 = sp + 0x300\n 16444: a2 = sp + 0x2e0\n 16448: u64 [s1 + 0xf8] = t2\n 16452: ra = 604, jump @870\n      : @662 [@dyn 302] (gas: 3)\n 16458: a0 = u64 [sp + 0x340]\n 16462: a0 = a0 & 0xffffffffffffffff\n 16465: jump @682 if a0 == 0\n      : @663 (gas: 9)\n 16469: a4 = sp + 0x300\n 16473: a0 = u64 [a4 + 0x78]\n 16476: a1 = u64 [a4 + 0x70]\n 16479: a2 = u64 [a4 + 0x60]\n 16482: a3 = u64 [a4 + 0x68]\n 16485: a1 = a1 | a2\n 16488: a0 = a0 | a3\n 16491: a0 = a0 | a1\n 16494: jump @682 if a0 != 0\n      : @664 (gas: 10)\n 16498: a0 = u64 [sp + 0x150]\n 16502: a1 = u64 [sp + 0x158]\n 16506: u64 [a1] = a0\n 16508: a0 = u64 [sp + 0x148]\n 16512: u64 [a1 + 0x8] = a0\n 16515: a0 = u64 [sp + 0x140]\n 16519: u32 [a1 + 0x10] = a0\n 16522: i32 a0 = a1 + 0\n 16524: ecalli 4 // 'code_size'\n 16526: fallthrough\n      : @665 (gas: 1)\n 16527: jump @777 if a0 == 0\n      : @666 (gas: 3)\n 16531: a0 = sp + 0x2c0\n 16535: a1 = 0x40\n 16538: ra = 606, jump @7\n      : @667 [@dyn 303] (gas: 17)\n 16544: a4 = sp + 0x200\n 16548: a2 = u64 [a4 + 0xd8]\n 16552: a3 = u64 [a4 + 0xd0]\n 16556: a0 = u64 [a4 + 0xc8]\n 16560: a1 = u64 [a4 + 0xc0]\n 16564: u64 [sp + 0x180] = a0\n 16568: u64 [sp + 0x188] = a2\n 16572: a0 = a0 | a2\n 16575: u64 [sp + 0x198] = a1\n 16579: a1 = a1 | a3\n 16582: a1 = a1 | a0\n 16585: a1 = a1 >> 0x20\n 16588: u64 [sp + 0x178] = a3\n 16592: a0 = a0 | a3\n 16595: a0 = a0 << 0x20\n 16598: a0 = a0 | a1\n 16601: jump @770 if a0 != 0\n      : @668 (gas: 10)\n 16605: a2 = sp + 0x200\n 16609: u64 [a2 + 176] = 0\n 16613: u64 [a2 + 168] = 0\n 16617: u64 [a2 + 160] = 0\n 16621: a1 = sp + 0x2a0\n 16625: a0 = u64 [sp + 0x60]\n 16628: u64 [a2 + 0xb8] = a0\n 16632: s1 = u64 [sp + 0x198]\n 16636: a0 = s1\n 16638: ra = 608, jump @9\n      : @669 [@dyn 304] (gas: 43)\n 16644: a0 = s1 + 0x4\n 16647: a1 = a0 <u s1\n 16650: a3 = u64 [sp + 0x180]\n 16654: a2 = a3 + a1\n 16657: a3 = a2 <u a3\n 16660: a3 = a1 if a1 == 0\n 16663: s1 = u64 [sp + 0x178]\n 16667: a3 = a3 + s1\n 16670: a5 = a3 <u s1\n 16673: a1 = u64 [sp + 0x188]\n 16677: a5 = a5 + a1\n 16680: a1 = u64 [sp + 0x168]\n 16684: u64 [sp + 0x218] = a1\n 16688: u64 [sp + 0x210] = a1\n 16692: u64 [sp + 0x208] = a1\n 16696: a1 = u64 [sp + 0x190]\n 16700: u64 [sp + 0x200] = a1\n 16704: a1 = u64 [sp + 0x80]\n 16708: u64 [sp + 0x238] = a1\n 16712: a1 = u64 [sp + 0x78]\n 16715: u64 [sp + 0x230] = a1\n 16719: a1 = u64 [sp + 0x70]\n 16722: u64 [sp + 0x228] = a1\n 16726: a1 = u64 [sp + 0x88]\n 16730: u64 [sp + 0x220] = a1\n 16734: a1 = u64 [sp + 0xd0]\n 16738: u64 [sp + 0x258] = a1\n 16742: a1 = u64 [sp + 0xe8]\n 16746: u64 [sp + 0x250] = a1\n 16750: a1 = u64 [sp + 0xe0]\n 16754: u64 [sp + 0x248] = a1\n 16758: a1 = u64 [sp + 0xd8]\n 16762: u64 [sp + 0x240] = a1\n 16766: u64 [sp + 0x268] = a2\n 16770: u64 [sp + 0x260] = a0\n 16774: u64 [sp + 0x270] = a3\n 16778: a0 = sp + 0x280\n 16782: a1 = sp + 0x260\n 16786: a2 = sp + 0x240\n 16790: a3 = sp + 0x220\n 16794: a4 = sp + 0x200\n 16798: u64 [sp + 0x278] = a5\n 16802: ra = 610, jump @888\n      : @670 [@dyn 305] (gas: 32)\n 16808: a1 = sp + 0x200\n 16812: a0 = u64 [a1 + 0x88]\n 16816: t1 = u64 [a1 + 0x98]\n 16820: t0 = u64 [a1 + 0x80]\n 16824: a3 = u64 [a1 + 0x90]\n 16828: a1 = u64 [sp + 0x180]\n 16832: a4 = a0 ^ a1\n 16835: a5 = a0 <u a1\n 16838: ra = a1\n 16840: t2 = u64 [sp + 0x198]\n 16844: a2 = t0 <u t2\n 16847: a5 = a2 if a4 == 0\n 16850: a4 = a3 - s1\n 16853: a3 = a3 <u s1\n 16856: a1 = u64 [sp + 0x188]\n 16860: a1 = t1 - a1\n 16863: a1 = a1 - a3\n 16866: a3 = a4 <u a5\n 16869: a1 = a1 - a3\n 16872: u64 [sp + 0x168] = a1\n 16876: a4 = a4 - a5\n 16879: u64 [sp + 0x100] = a4\n 16883: a0 = a0 - ra\n 16886: a0 = a0 - a2\n 16889: u64 [sp + 0xf8] = a0\n 16893: a0 = t0 - t2\n 16896: u64 [sp + 0x170] = a0\n 16900: ra = 0x264\n 16904: ecalli 6 // 'ref_time_left'\n 16906: u64 [sp + 0xf0] = a0\n 16910: t0 = 0x266\n 16914: jump @913\n      : @671 [@dyn 306] (gas: 2)\n 16917: u64 [sp + 0xf0] = a0\n 16921: t0 = 614, jump @913\n      : @672 [@dyn 307] (gas: 10)\n 16927: u64 [s1 + 1920] = 0\n 16931: u64 [s1 + 1912] = 0\n 16935: u64 [s1 + 1904] = 0\n 16939: a0 = u64 [sp + 0x170]\n 16943: a2 = a0\n 16945: a3 = u64 [sp + 0x100]\n 16949: a0 = a0 | a3\n 16952: a1 = u64 [sp + 0x168]\n 16956: a4 = u64 [sp + 0xf8]\n 16960: t0 = 616, jump @934\n      : @673 [@dyn 308] (gas: 2)\n 16966: u64 [s1 + 1896] = 0\n 16970: jump @770 if a0 != 0\n      : @674 (gas: 5)\n 16974: a1 = a2\n 16976: i32 a0 = a2 + 0\n 16978: u64 [sp + 0x100] = a0\n 16982: a0 = u64 [sp + 0x198]\n 16986: ra = 618, jump @11\n      : @675 [@dyn 309] (gas: 4)\n 16992: u64 [sp + 0x168] = a0\n 16996: a0 = u64 [sp + 0x198]\n 17000: a1 = 0\n 17002: ra = 620, jump @11\n      : @676 [@dyn 310] (gas: 2)\n 17008: u32 [s1 + 1928] = 0\n 17012: t0 = 622, jump @941\n      : @677 [@dyn 311] (gas: 6)\n 17018: a3 = s1 + 0x700\n 17022: u64 [a3 + 0xc0] = a2\n 17026: u64 [a3 + 0xb8] = a2\n 17030: u64 [a3 + 0xb0] = a2\n 17034: u64 [a3 + 0xa8] = a2\n 17038: t0 = 624, jump @918\n      : @678 [@dyn 312] (gas: 2)\n 17044: ecalli 0 // 'call'\n 17045: fallthrough\n      : @679 (gas: 1)\n 17046: jump @762 if a0 != 0\n      : @680 (gas: 15)\n 17050: u64 [sp + 440] = 0\n 17054: u64 [sp + 432] = 0\n 17058: u64 [sp + 424] = 0\n 17062: u64 [sp + 416] = 0\n 17066: a0 = u64 [sp + 0x198]\n 17070: u64 [sp + 0x1c0] = a0\n 17074: a0 = u64 [sp + 0x180]\n 17078: u64 [sp + 0x1c8] = a0\n 17082: a0 = u64 [sp + 0x178]\n 17086: u64 [sp + 0x1d0] = a0\n 17090: a0 = sp + 0x1c0\n 17094: a1 = sp + 0x1a0\n 17098: a2 = u64 [sp + 0x188]\n 17102: u64 [sp + 0x1d8] = a2\n 17106: ra = 626, jump @839\n      : @681 [@dyn 313] (gas: 6)\n 17112: a0 = u64 [sp + 0x160]\n 17116: a0 = a0 + 0x1\n 17119: t0 = u64 [sp + 0x108]\n 17123: a0 = a0 & t0\n 17126: u64 [sp + 0x160] = a0\n 17130: jump @683\n      : @682 (gas: 2)\n 17132: t0 = u64 [sp + 0x108]\n 17136: fallthrough\n      : @683 (gas: 5)\n 17137: a4 = 0\n 17139: a0 = u64 [sp + 0x190]\n 17143: a0 = a0 + 0x1\n 17146: a5 = a0 & t0\n 17149: jump @632\n      : @684 (gas: 4)\n 17152: a0 = sp + 0x7ff\n 17156: a0 = a0 + 0x3a1\n 17160: a1 = 0x40\n 17163: ra = 628, jump @7\n      : @685 [@dyn 314] (gas: 4)\n 17169: a0 = sp + 0x7ff\n 17173: a0 = a0 + 0x111\n 17177: a2 = a0 + 0x200\n 17181: t0 = 630, jump @940\n      : @686 [@dyn 315] (gas: 4)\n 17187: ra = 0x278\n 17191: ecalli 8 // 'return_data_size'\n 17193: t0 = 0x27a\n 17197: jump @906\n      : @687 [@dyn 316] (gas: 1)\n 17200: t0 = 634, jump @906\n      : @688 [@dyn 317] (gas: 1)\n 17206: jump @770 if a1 != 0\n      : @689 (gas: 3)\n 17210: s1 = a0\n 17212: a0 = a0 >> 0x20\n 17215: jump @770 if a0 != 0\n      : @690 (gas: 1)\n 17219: t0 = 636, jump @914\n      : @691 [@dyn 318] (gas: 1)\n 17225: ra = 638, jump @11\n      : @692 [@dyn 319] (gas: 10)\n 17231: a1 = sp + 0x2118\n 17235: u32 [a1 + 0x268] = s1\n 17239: s1 = a1\n 17241: i32 a0 = a0 + 0\n 17243: a1 = sp + 0x2000\n 17247: i32 a1 = a1 + 0x380\n 17251: a2 = 0\n 17253: ecalli 7 // 'return_data_copy'\n 17255: a0 = i32 [s1 + 0x268]\n 17259: jump @522\n      : @693 (gas: 3)\n 17262: a0 = sp + 0x15e0\n 17266: a1 = 0x40\n 17269: ra = 640, jump @7\n      : @694 [@dyn 320] (gas: 13)\n 17275: a0 = sp + 0x1110\n 17279: a2 = a0 + 0x400\n 17283: a1 = u64 [a2 + 0xe8]\n 17287: u64 [sp + 0x198] = a1\n 17291: a1 = u64 [a2 + 0xe0]\n 17295: u64 [sp + 0x190] = a1\n 17299: a1 = u64 [a2 + 0xd8]\n 17303: u64 [sp + 0x188] = a1\n 17307: s1 = u64 [a2 + 0xd0]\n 17311: ra = 0x282\n 17315: ecalli 8 // 'return_data_size'\n 17317: t0 = 0x284\n 17321: jump @906\n      : @695 [@dyn 321] (gas: 1)\n 17324: t0 = 644, jump @906\n      : @696 [@dyn 322] (gas: 1)\n 17330: jump @770 if a1 != 0\n      : @697 (gas: 3)\n 17334: s1 = a0\n 17336: a0 = a0 >> 0x20\n 17339: jump @770 if a0 != 0\n      : @698 (gas: 1)\n 17343: t0 = 646, jump @914\n      : @699 [@dyn 323] (gas: 1)\n 17349: ra = 648, jump @11\n      : @700 [@dyn 324] (gas: 10)\n 17355: a1 = sp + 0x2118\n 17359: u32 [a1 + 0x488] = s1\n 17363: s1 = a1\n 17365: i32 a0 = a0 + 0\n 17367: a1 = sp + 0x2000\n 17371: i32 a1 = a1 + 0x5a0\n 17375: a2 = 0\n 17377: ecalli 7 // 'return_data_copy'\n 17379: a0 = i32 [s1 + 0x488]\n 17383: jump @522\n      : @701 (gas: 4)\n 17386: a0 = sp + 0x7ff\n 17390: a0 = a0 + 0x241\n 17394: a1 = 0x40\n 17397: ra = 650, jump @7\n      : @702 [@dyn 325] (gas: 14)\n 17403: a0 = sp + 0x7ff\n 17407: a0 = a0 + 0x111\n 17411: a2 = a0 + 0x100\n 17415: a1 = u64 [a2 + 0x48]\n 17418: u64 [sp + 0x198] = a1\n 17422: a1 = u64 [a2 + 0x40]\n 17425: u64 [sp + 0x190] = a1\n 17429: a1 = u64 [a2 + 0x38]\n 17432: u64 [sp + 0x188] = a1\n 17436: s1 = u64 [a2 + 0x30]\n 17439: ra = 0x28c\n 17443: ecalli 8 // 'return_data_size'\n 17445: t0 = 0x28e\n 17449: jump @906\n      : @703 [@dyn 326] (gas: 1)\n 17452: t0 = 654, jump @906\n      : @704 [@dyn 327] (gas: 1)\n 17458: jump @770 if a1 != 0\n      : @705 (gas: 3)\n 17462: s1 = a0\n 17464: a0 = a0 >> 0x20\n 17467: jump @770 if a0 != 0\n      : @706 (gas: 1)\n 17471: t0 = 656, jump @914\n      : @707 [@dyn 328] (gas: 1)\n 17477: ra = 658, jump @11\n      : @708 [@dyn 329] (gas: 10)\n 17483: a1 = sp + 0x2118\n 17487: u32 [a1 + 0x2e8] = s1\n 17491: s1 = a1\n 17493: i32 a0 = a0 + 0\n 17495: a1 = sp + 0x2000\n 17499: i32 a1 = a1 + 0x400\n 17503: a2 = 0\n 17505: ecalli 7 // 'return_data_copy'\n 17507: a0 = i32 [s1 + 0x2e8]\n 17511: jump @522\n      : @709 (gas: 3)\n 17514: a0 = sp + 0x540\n 17518: a1 = 0x40\n 17521: ra = 660, jump @7\n      : @710 [@dyn 330] (gas: 12)\n 17527: a1 = sp + 0x500\n 17531: a0 = u64 [a1 + 0x58]\n 17534: u64 [sp + 0x198] = a0\n 17538: a0 = u64 [a1 + 0x50]\n 17541: u64 [sp + 0x190] = a0\n 17545: a0 = u64 [a1 + 0x48]\n 17548: u64 [sp + 0x188] = a0\n 17552: s1 = u64 [a1 + 0x40]\n 17555: ra = 0x296\n 17559: ecalli 8 // 'return_data_size'\n 17561: t0 = 0x298\n 17565: jump @906\n      : @711 [@dyn 331] (gas: 1)\n 17568: t0 = 664, jump @906\n      : @712 [@dyn 332] (gas: 1)\n 17574: jump @770 if a1 != 0\n      : @713 (gas: 3)\n 17578: s1 = a0\n 17580: a0 = a0 >> 0x20\n 17583: jump @770 if a0 != 0\n      : @714 (gas: 1)\n 17587: t0 = 666, jump @914\n      : @715 [@dyn 333] (gas: 1)\n 17593: ra = 668, jump @11\n      : @716 [@dyn 334] (gas: 10)\n 17599: a1 = sp + 0x1918\n 17603: u32 [a1 + 0x6c8] = s1\n 17607: s1 = a1\n 17609: i32 a0 = a0 + 0\n 17611: a1 = sp + 0x2000\n 17615: i32 a1 = a1 + 0xffffffffffffffe0\n 17618: a2 = 0\n 17620: ecalli 7 // 'return_data_copy'\n 17622: a0 = i32 [s1 + 0x6c8]\n 17626: jump @522\n      : @717 (gas: 3)\n 17629: a0 = sp + 0x1560\n 17633: a1 = 0x40\n 17636: ra = 670, jump @7\n      : @718 [@dyn 335] (gas: 14)\n 17642: a3 = sp + 0x1110\n 17646: a5 = a3 + 0x400\n 17650: a0 = u64 [a5 + 0x68]\n 17653: a1 = u64 [a5 + 0x60]\n 17656: a2 = u64 [a5 + 0x58]\n 17659: a4 = u64 [a5 + 0x50]\n 17662: a0 = a0 | a2\n 17665: a2 = a4 | a1\n 17668: a2 = a2 | a0\n 17671: a2 = a2 >> 0x20\n 17674: a0 = a0 | a1\n 17677: a0 = a0 << 0x20\n 17680: a0 = a0 | a2\n 17683: jump @770 if a0 != 0\n      : @719 (gas: 8)\n 17687: a3 = a4\n 17689: a0 = sp + 0x1110\n 17693: u64 [a0 + 1096] = 0\n 17697: u64 [a0 + 1088] = 0\n 17701: u64 [a0 + 0x430] = s1\n 17705: a1 = sp + 0x1540\n 17709: u64 [a0 + 1080] = 0\n 17713: jump @358\n      : @720 (gas: 6)\n 17716: a1 = a1 | a0\n 17719: a1 = a1 >> 0x20\n 17722: a0 = a0 | a4\n 17725: a0 = a0 << 0x20\n 17728: a0 = a0 | a1\n 17731: jump @770 if a0 != 0\n      : @721 (gas: 9)\n 17735: a0 = sp + 0x7ff\n 17739: a0 = a0 + 0x111\n 17743: u64 [a0 + 1640] = 0\n 17747: u64 [a0 + 1632] = 0\n 17751: u64 [a0 + 0x650] = a5\n 17755: a1 = sp + 0x7ff\n 17759: a1 = a1 + 0x761\n 17763: u64 [a0 + 1624] = 0\n 17767: jump @358\n      : @722 (gas: 4)\n 17770: a0 = sp + 0x7ff\n 17774: a0 = a0 + 0x6a1\n 17778: a1 = 0x40\n 17781: ra = 672, jump @7\n      : @723 [@dyn 336] (gas: 4)\n 17787: a0 = sp + 0x7ff\n 17791: a0 = a0 + 0x111\n 17795: a2 = a0 + 0x500\n 17799: t0 = 674, jump @940\n      : @724 [@dyn 337] (gas: 4)\n 17805: ra = 0x2a4\n 17809: ecalli 8 // 'return_data_size'\n 17811: t0 = 0x2a6\n 17815: jump @906\n      : @725 [@dyn 338] (gas: 1)\n 17818: t0 = 678, jump @906\n      : @726 [@dyn 339] (gas: 1)\n 17824: jump @770 if a1 != 0\n      : @727 (gas: 3)\n 17828: s1 = a0\n 17830: a0 = a0 >> 0x20\n 17833: jump @770 if a0 != 0\n      : @728 (gas: 1)\n 17837: t0 = 680, jump @914\n      : @729 [@dyn 340] (gas: 1)\n 17843: ra = 682, jump @11\n      : @730 [@dyn 341] (gas: 10)\n 17849: a1 = sp + 0x2118\n 17853: u32 [a1 + 0x168] = s1\n 17857: s1 = a1\n 17859: i32 a0 = a0 + 0\n 17861: a1 = sp + 0x2000\n 17865: i32 a1 = a1 + 0x280\n 17869: a2 = 0\n 17871: ecalli 7 // 'return_data_copy'\n 17873: a0 = i32 [s1 + 0x168]\n 17877: jump @522\n      : @731 (gas: 3)\n 17880: a0 = sp + 0x4c0\n 17884: a1 = 0x40\n 17887: ra = 684, jump @7\n      : @732 [@dyn 342] (gas: 13)\n 17893: a3 = sp + 0x400\n 17897: a0 = u64 [a3 + 0xd8]\n 17901: a1 = u64 [a3 + 0xd0]\n 17905: a2 = u64 [a3 + 0xc8]\n 17909: a4 = u64 [a3 + 0xc0]\n 17913: a0 = a0 | a2\n 17916: a2 = a4 | a1\n 17919: a2 = a2 | a0\n 17922: a2 = a2 >> 0x20\n 17925: a0 = a0 | a1\n 17928: a0 = a0 << 0x20\n 17931: a0 = a0 | a2\n 17934: jump @770 if a0 != 0\n      : @733 (gas: 8)\n 17938: a3 = a4\n 17940: a0 = sp + 0x400\n 17944: u64 [a0 + 184] = 0\n 17948: u64 [a0 + 176] = 0\n 17952: u64 [a0 + 168] = 0\n 17956: a1 = sp + 0x4a0\n 17960: u64 [a0 + 0xa0] = s1\n 17964: jump @358\n      : @734 (gas: 3)\n 17967: a0 = sp + 0x1460\n 17971: a1 = 0x40\n 17974: ra = 686, jump @7\n      : @735 [@dyn 343] (gas: 13)\n 17980: a0 = sp + 0x1110\n 17984: a2 = a0 + 0x300\n 17988: a1 = u64 [a2 + 0x68]\n 17991: u64 [sp + 0x198] = a1\n 17995: a1 = u64 [a2 + 0x60]\n 17998: u64 [sp + 0x190] = a1\n 18002: a1 = u64 [a2 + 0x58]\n 18005: u64 [sp + 0x188] = a1\n 18009: s1 = u64 [a2 + 0x50]\n 18012: ra = 0x2b0\n 18016: ecalli 8 // 'return_data_size'\n 18018: t0 = 0x2b2\n 18022: jump @906\n      : @736 [@dyn 344] (gas: 1)\n 18025: t0 = 690, jump @906\n      : @737 [@dyn 345] (gas: 1)\n 18031: jump @770 if a1 != 0\n      : @738 (gas: 3)\n 18035: s1 = a0\n 18037: a0 = a0 >> 0x20\n 18040: jump @770 if a0 != 0\n      : @739 (gas: 1)\n 18044: t0 = 692, jump @914\n      : @740 [@dyn 346] (gas: 1)\n 18050: ra = 694, jump @11\n      : @741 [@dyn 347] (gas: 10)\n 18056: a1 = sp + 0x2118\n 18060: u32 [a1 + 0x508] = s1\n 18064: s1 = a1\n 18066: i32 a0 = a0 + 0\n 18068: a1 = sp + 0x2000\n 18072: i32 a1 = a1 + 0x620\n 18076: a2 = 0\n 18078: ecalli 7 // 'return_data_copy'\n 18080: a0 = i32 [s1 + 0x508]\n 18084: jump @522\n      : @742 (gas: 3)\n 18087: a0 = sp + 0x3c0\n 18091: a1 = 0x40\n 18094: ra = 696, jump @7\n      : @743 [@dyn 348] (gas: 12)\n 18100: a1 = sp + 0x300\n 18104: a0 = u64 [a1 + 0xd8]\n 18108: u64 [sp + 0x198] = a0\n 18112: a0 = u64 [a1 + 0xd0]\n 18116: u64 [sp + 0x190] = a0\n 18120: a0 = u64 [a1 + 0xc8]\n 18124: u64 [sp + 0x188] = a0\n 18128: s1 = u64 [a1 + 0xc0]\n 18132: ra = 0x2ba\n 18136: ecalli 8 // 'return_data_size'\n 18138: t0 = 0x2bc\n 18142: jump @906\n      : @744 [@dyn 349] (gas: 1)\n 18145: t0 = 700, jump @906\n      : @745 [@dyn 350] (gas: 1)\n 18151: jump @770 if a1 != 0\n      : @746 (gas: 3)\n 18155: s1 = a0\n 18157: a0 = a0 >> 0x20\n 18160: jump @770 if a0 != 0\n      : @747 (gas: 1)\n 18164: t0 = 702, jump @914\n      : @748 [@dyn 351] (gas: 1)\n 18170: ra = 704, jump @11\n      : @749 [@dyn 352] (gas: 10)\n 18176: a1 = sp + 0x1918\n 18180: u32 [a1 + 0x748] = s1\n 18184: s1 = a1\n 18186: i32 a0 = a0 + 0\n 18188: a1 = sp + 0x2000\n 18192: i32 a1 = a1 + 0x60\n 18195: a2 = 0\n 18197: ecalli 7 // 'return_data_copy'\n 18199: a0 = i32 [s1 + 0x748]\n 18203: jump @522\n      : @750 (gas: 3)\n 18206: a0 = sp + 0x1280\n 18210: a1 = 0x40\n 18213: ra = 706, jump @7\n      : @751 [@dyn 353] (gas: 13)\n 18219: a0 = sp + 0x1110\n 18223: a2 = a0 + 0x100\n 18227: a1 = u64 [a2 + 0x88]\n 18231: u64 [sp + 0x198] = a1\n 18235: a1 = u64 [a2 + 0x80]\n 18239: u64 [sp + 0x190] = a1\n 18243: a1 = u64 [a2 + 0x78]\n 18246: u64 [sp + 0x188] = a1\n 18250: s1 = u64 [a2 + 0x70]\n 18253: ra = 0x2c4\n 18257: ecalli 8 // 'return_data_size'\n 18259: t0 = 0x2c6\n 18263: jump @906\n      : @752 [@dyn 354] (gas: 1)\n 18266: t0 = 710, jump @906\n      : @753 [@dyn 355] (gas: 1)\n 18272: jump @770 if a1 != 0\n      : @754 (gas: 3)\n 18276: s1 = a0\n 18278: a0 = a0 >> 0x20\n 18281: jump @770 if a0 != 0\n      : @755 (gas: 1)\n 18285: t0 = 712, jump @914\n      : @756 [@dyn 356] (gas: 1)\n 18291: ra = 714, jump @11\n      : @757 [@dyn 357] (gas: 10)\n 18297: a1 = sp + 0x2118\n 18301: u32 [a1 + 0x588] = s1\n 18305: s1 = a1\n 18307: i32 a0 = a0 + 0\n 18309: a1 = sp + 0x2000\n 18313: i32 a1 = a1 + 0x6a0\n 18317: a2 = 0\n 18319: ecalli 7 // 'return_data_copy'\n 18321: a0 = i32 [s1 + 0x588]\n 18325: jump @522\n      : @758 (gas: 3)\n 18328: a1 = 0x20010\n 18333: i32 a1 = a1 + 0\n 18335: jump @761\n      : @759 (gas: 3)\n 18337: a1 = 0x20010\n 18342: i32 a1 = a1 + 0\n 18344: jump @761\n      : @760 (gas: 3)\n 18346: a1 = 0x20010\n 18351: i32 a1 = a1 + 0\n 18353: fallthrough\n      : @761 (gas: 4)\n 18354: a0 = 0x1\n 18357: a2 = 0\n 18359: ecalli 9 // 'seal_return'\n 18361: fallthrough\n      : @762 (gas: 3)\n 18362: a0 = sp + 0x1e0\n 18366: a1 = 0x40\n 18369: ra = 716, jump @7\n      : @763 [@dyn 358] (gas: 11)\n 18375: a0 = u64 [sp + 0x1f8]\n 18379: u64 [sp + 0x198] = a0\n 18383: a0 = u64 [sp + 0x1f0]\n 18387: u64 [sp + 0x190] = a0\n 18391: a0 = u64 [sp + 0x1e8]\n 18395: u64 [sp + 0x188] = a0\n 18399: s1 = u64 [sp + 0x1e0]\n 18403: ra = 0x2ce\n 18407: ecalli 8 // 'return_data_size'\n 18409: t0 = 0x2d0\n 18413: jump @906\n      : @764 [@dyn 359] (gas: 1)\n 18416: t0 = 720, jump @906\n      : @765 [@dyn 360] (gas: 1)\n 18422: jump @770 if a1 != 0\n      : @766 (gas: 3)\n 18425: s1 = a0\n 18427: a0 = a0 >> 0x20\n 18430: jump @770 if a0 != 0\n      : @767 (gas: 1)\n 18433: t0 = 722, jump @914\n      : @768 [@dyn 361] (gas: 1)\n 18439: ra = 724, jump @11\n      : @769 [@dyn 362] (gas: 10)\n 18445: a1 = sp + 0x1918\n 18449: u32 [a1 + 0x7c8] = s1\n 18453: s1 = a1\n 18455: i32 a0 = a0 + 0\n 18457: a1 = sp + 0x2000\n 18461: i32 a1 = a1 + 0xe0\n 18465: a2 = 0\n 18467: ecalli 7 // 'return_data_copy'\n 18469: a0 = i32 [s1 + 0x7c8]\n 18473: jump @522\n      : @770 (gas: 1)\n 18476: trap\n      : @771 (gas: 3)\n 18477: a1 = 0x20010\n 18482: i32 a1 = a1 + 0\n 18484: jump @774\n      : @772 (gas: 3)\n 18486: a1 = 0x20010\n 18491: i32 a1 = a1 + 0\n 18493: jump @774\n      : @773 (gas: 6)\n 18495: i32 a1 = a1 + 0\n 18497: a0 = 0x1\n 18500: ecalli 9 // 'seal_return'\n 18502: a1 = 0x20010\n 18507: i32 a1 = a1 + 0\n 18509: jump @761\n      : @774 (gas: 5)\n 18512: a0 = 0x1\n 18515: ecalli 9 // 'seal_return'\n 18517: a1 = 0x20010\n 18522: i32 a1 = a1 + 0\n 18524: jump @761\n      : @775 (gas: 3)\n 18527: a1 = 0x20010\n 18532: i32 a1 = a1 + 0\n 18534: jump @761\n      : @776 (gas: 3)\n 18537: a1 = 0x20010\n 18542: i32 a1 = a1 + 0\n 18544: jump @761\n      : @777 (gas: 2)\n 18547: a1 = i32 [sp + 0x40]\n 18550: jump @761\n      : @778 (gas: 3)\n 18553: a1 = 0x20010\n 18558: i32 a1 = a1 + 0\n 18560: jump @761\n      : @779 (gas: 3)\n 18563: a1 = 0x20010\n 18568: i32 a1 = a1 + 0\n 18570: jump @761\n      : @780 (gas: 8)\n 18573: u64 [s1 + 160] = 0\n 18577: u64 [s1 + 152] = 0\n 18581: a0 = 0x7862e95900000000\n 18591: u64 [s1 + 0xa8] = a0\n 18595: a1 = sp + 0x11a0\n 18599: u64 [s1 + 144] = 0\n 18603: a0 = 0\n 18605: ra = 726, jump @9\n      : @781 [@dyn 363] (gas: 2)\n 18611: a1 = i32 [0x20008]\n 18616: jump @783 if a1 >u 31\n      : @782 (gas: 4)\n 18620: u32 [0x20008] = 0x20\n 18626: a1 = 0x20010\n 18631: i32 a1 = a1 + 0\n 18633: jump @805\n      : @783 (gas: 3)\n 18636: a1 = 0x20010\n 18641: i32 a1 = a1 + 0\n 18643: jump @805\n      : @784 (gas: 3)\n 18646: a1 = 0x20010\n 18651: i32 a1 = a1 + 0\n 18653: jump @761\n      : @785 (gas: 3)\n 18656: a1 = 0x20010\n 18661: i32 a1 = a1 + 0\n 18663: jump @761\n      : @786 (gas: 3)\n 18666: a1 = 0x20010\n 18671: i32 a1 = a1 + 0\n 18673: jump @761\n      : @787 (gas: 3)\n 18676: a1 = 0x20010\n 18681: i32 a1 = a1 + 0\n 18683: jump @761\n      : @788 (gas: 3)\n 18686: a1 = 0x20010\n 18691: i32 a1 = a1 + 0\n 18693: jump @761\n      : @789 (gas: 8)\n 18696: u64 [t0 + 888] = 0\n 18700: u64 [t0 + 880] = 0\n 18704: a0 = 0x7862e95900000000\n 18714: u64 [t0 + 0x380] = a0\n 18718: a1 = sp + 0x1c80\n 18722: u64 [t0 + 872] = 0\n 18726: a0 = 0\n 18728: ra = 728, jump @9\n      : @790 [@dyn 364] (gas: 2)\n 18734: a1 = i32 [0x20008]\n 18739: jump @792 if a1 >u 31\n      : @791 (gas: 4)\n 18743: u32 [0x20008] = 0x20\n 18749: a1 = 0x20010\n 18754: i32 a1 = a1 + 0\n 18756: jump @805\n      : @792 (gas: 3)\n 18759: a1 = 0x20010\n 18764: i32 a1 = a1 + 0\n 18766: jump @805\n      : @793 (gas: 8)\n 18769: u64 [t0 + 856] = 0\n 18773: u64 [t0 + 848] = 0\n 18777: a0 = 0x7862e95900000000\n 18787: u64 [t0 + 0x360] = a0\n 18791: a1 = sp + 0x1c60\n 18795: u64 [t0 + 840] = 0\n 18799: a0 = 0\n 18801: ra = 730, jump @9\n      : @794 [@dyn 365] (gas: 2)\n 18807: a1 = i32 [0x20008]\n 18812: jump @796 if a1 >u 31\n      : @795 (gas: 4)\n 18816: u32 [0x20008] = 0x20\n 18822: a1 = 0x20010\n 18827: i32 a1 = a1 + 0\n 18829: jump @805\n      : @796 (gas: 3)\n 18831: a1 = 0x20010\n 18836: i32 a1 = a1 + 0\n 18838: jump @805\n      : @797 (gas: 3)\n 18840: a1 = 0x20010\n 18845: i32 a1 = a1 + 0\n 18847: jump @761\n      : @798 (gas: 3)\n 18850: a1 = 0x20010\n 18855: i32 a1 = a1 + 0\n 18857: jump @761\n      : @799 (gas: 3)\n 18860: a1 = 0x20010\n 18865: i32 a1 = a1 + 0\n 18867: jump @761\n      : @800 (gas: 3)\n 18870: a1 = 0x20010\n 18875: i32 a1 = a1 + 0\n 18877: jump @761\n      : @801 (gas: 8)\n 18880: u64 [s1 + 24] = 0\n 18883: u64 [s1 + 16] = 0\n 18886: a0 = 0x7862e95900000000\n 18896: u64 [s1 + 0x20] = a0\n 18899: a1 = sp + 0x1920\n 18903: u64 [s1 + 8] = 0\n 18906: a0 = 0\n 18908: ra = 732, jump @9\n      : @802 [@dyn 366] (gas: 2)\n 18914: a1 = i32 [0x20008]\n 18919: jump @804 if a1 >u 31\n      : @803 (gas: 4)\n 18923: u32 [0x20008] = 0x20\n 18929: a1 = 0x20010\n 18934: i32 a1 = a1 + 0\n 18936: jump @805\n      : @804 (gas: 3)\n 18938: a1 = 0x20010\n 18943: i32 a1 = a1 + 0\n 18945: fallthrough\n      : @805 (gas: 4)\n 18946: a0 = 0x1\n 18949: a2 = 0x4\n 18952: ecalli 9 // 'seal_return'\n 18954: fallthrough\n      : @806 (gas: 14)\n 18955: a0 = sp + 0x1000\n 18959: u64 [a0 + 4294965424] = 0\n 18963: a0 = sp + 0x1000\n 18967: u64 [a0 + 4294965416] = 0\n 18971: a0 = sp + 0x1000\n 18975: u64 [a0 + 4294965408] = 0\n 18979: a0 = 0xcf114bd900000000\n 18989: a1 = sp + 0x7ff\n 18993: a1 = a1 + 0xa1\n 18997: a2 = sp + 0x1000\n 19001: u64 [a2 + 0xfffffffffffff8b8] = a0\n 19005: a0 = 0\n 19007: ra = 0x2de\n 19011: jump @9\n      : @807 (gas: 13)\n 19014: a0 = sp + 0x1000\n 19018: u64 [a0 + 4294965392] = 0\n 19022: a0 = sp + 0x1000\n 19026: u64 [a0 + 4294965384] = 0\n 19030: a0 = sp + 0x1000\n 19034: u64 [a0 + 4294965376] = 0\n 19038: a0 = 0x7862e95900000000\n 19048: a1 = sp + 0x7ff\n 19052: a1 = a1 + 0x81\n 19056: a2 = sp + 0x1000\n 19060: u64 [a2 + 0xfffffffffffff898] = a0\n 19064: a0 = 0\n 19066: ra = 734, jump @9\n      : @808 [@dyn 367] (gas: 3)\n 19072: a0 = u64 [sp + 0x198]\n 19076: a0 = i32 [a0]\n 19078: jump @810 if a0 >u 31\n      : @809 (gas: 4)\n 19082: a1 = u64 [sp + 0x198]\n 19086: u32 [a1 + 0] = 0x20\n 19089: a1 = i32 [sp + 0x40]\n 19092: jump @805\n      : @810 (gas: 2)\n 19095: a1 = i32 [sp + 0x40]\n 19098: jump @805\n      : @811 (gas: 2)\n 19101: a1 = i32 [sp + 0x40]\n 19104: jump @774\n      : @812 (gas: 2)\n 19107: a1 = 0x20010\n 19112: jump @773\n      : @813 (gas: 2)\n 19115: a1 = 0x20010\n 19120: jump @773\n      : @814 (gas: 2)\n 19123: a1 = 0x20010\n 19128: jump @773\n      : @815 (gas: 33)\n 19131: sp = sp + 0xffffffffffffff40\n 19135: u64 [sp + 0xb8] = ra\n 19139: u64 [sp + 0xb0] = s0\n 19143: u64 [sp + 0xa8] = s1\n 19147: s0 = sp + 0xc0\n 19151: sp = sp & 0xffffffffffffffe0\n 19154: a2 = u64 [a1]\n 19156: t0 = u64 [a1 + 0x18]\n 19159: a4 = u64 [a1 + 0x8]\n 19162: a1 = u64 [a1 + 0x10]\n 19165: a5 = a2 + 0xfffffffffffffffc\n 19168: s1 = a5 <u a2\n 19171: a2 = a4 + s1\n 19174: a2 = a2 + 0xffffffffffffffff\n 19177: a3 = a2 ^ a4\n 19180: a4 = a2 <u a4\n 19183: a4 = s1 if a3 == 0\n 19186: a3 = a1 + 0xffffffffffffffff\n 19189: a4 = a4 + a3\n 19192: a3 = a4 <u a3\n 19195: a1 = a1 <u 0x1\n 19198: a1 = t0 - a1\n 19201: a1 = a1 + a3\n 19204: a3 = a1 >s 0\n 19206: s1 = a4 >u 0\n 19208: s1 = a3 if a1 != 0\n 19211: a1 = a1 | a4\n 19214: a3 = a2 >u 0\n 19216: a4 = a5 <u 0x60\n 19219: a4 = a4 ^ 0x1\n 19222: a4 = a3 if a2 != 0\n 19225: a4 = s1 if a1 != 0\n 19228: jump @823 if a4 == 0\n      : @816 (gas: 5)\n 19232: s1 = a0\n 19234: i32 a0 = sp + 0x40\n 19237: a1 = 0x4\n 19240: ecalli 2 // 'call_data_load'\n 19242: fallthrough\n      : @817 (gas: 12)\n 19243: a1 = u64 [sp + 0x50]\n 19246: a2 = u64 [sp + 0x58]\n 19249: a0 = 0x100000000\n 19259: a0 = a0 ^ a1\n 19262: a0 = a0 | a2\n 19265: u64 [sp + 0x30] = a1\n 19268: a1 = a1 >> 0x20\n 19271: a1 = a1 <u 0x1\n 19274: u64 [sp + 0x38] = a2\n 19277: a1 = 0 if a2 != 0\n 19279: a1 = 0 if a0 == 0\n 19281: jump @824 if a1 == 0\n      : @818 (gas: 8)\n 19285: a0 = u64 [sp + 0x48]\n 19288: u64 [sp + 0x28] = a0\n 19291: a0 = u64 [sp + 0x40]\n 19294: u64 [sp + 0x20] = a0\n 19297: i32 a0 = sp + 0x60\n 19300: a1 = 0x24\n 19303: ecalli 2 // 'call_data_load'\n 19305: fallthrough\n      : @819 (gas: 10)\n 19306: a0 = u64 [sp + 0x78]\n 19309: a1 = u64 [sp + 0x70]\n 19312: a2 = u64 [sp + 0x68]\n 19315: u64 [sp + 0x18] = a0\n 19318: u64 [sp + 0x10] = a1\n 19321: a0 = a0 | a1\n 19324: u64 [sp + 0x8] = a2\n 19327: a1 = a2 <u 0x1\n 19330: a1 = 0 if a0 != 0\n 19332: jump @825 if a1 == 0\n      : @820 (gas: 6)\n 19336: a0 = u64 [sp + 0x60]\n 19339: u64 [sp] = a0\n 19341: i32 a0 = sp + 0x80\n 19345: a1 = 0x44\n 19348: ecalli 2 // 'call_data_load'\n 19350: fallthrough\n      : @821 (gas: 12)\n 19351: a0 = u64 [sp + 0x98]\n 19355: a1 = u64 [sp + 0x90]\n 19359: a2 = u64 [sp + 0x88]\n 19363: a3 = u64 [sp + 0x80]\n 19367: a4 = a2 | a0\n 19370: a5 = a3 | a1\n 19373: a5 = a5 | a4\n 19376: a5 = a5 >> 0x20\n 19379: a4 = a4 | a1\n 19382: a4 = a4 << 0x20\n 19385: a4 = a4 | a5\n 19388: jump @826 if a4 != 0\n      : @822 (gas: 26)\n 19391: u64 [s1 + 0x40] = a3\n 19394: a3 = u64 [sp]\n 19396: u64 [s1 + 0x20] = a3\n 19399: a3 = u64 [sp + 0x20]\n 19402: u64 [s1] = a3\n 19404: u64 [s1 + 0x48] = a2\n 19407: a2 = u64 [sp + 0x8]\n 19410: u64 [s1 + 0x28] = a2\n 19413: a2 = u64 [sp + 0x28]\n 19416: u64 [s1 + 0x8] = a2\n 19419: u64 [s1 + 0x50] = a1\n 19422: a1 = u64 [sp + 0x10]\n 19425: u64 [s1 + 0x30] = a1\n 19428: a1 = u64 [sp + 0x30]\n 19431: u64 [s1 + 0x10] = a1\n 19434: u64 [s1 + 0x58] = a0\n 19437: a0 = u64 [sp + 0x18]\n 19440: u64 [s1 + 0x38] = a0\n 19443: a0 = u64 [sp + 0x38]\n 19446: u64 [s1 + 0x18] = a0\n 19449: sp = s0 + 0xffffffffffffff40\n 19453: ra = u64 [sp + 0xb8]\n 19457: s0 = u64 [sp + 0xb0]\n 19461: s1 = u64 [sp + 0xa8]\n 19465: sp = sp + 0xc0\n 19469: ret\n      : @823 (gas: 2)\n 19471: a1 = 0x20010\n 19476: jump @827\n      : @824 (gas: 2)\n 19478: a1 = 0x20010\n 19483: jump @827\n      : @825 (gas: 2)\n 19485: a1 = 0x20010\n 19490: jump @827\n      : @826 (gas: 2)\n 19492: a1 = 0x20010\n 19497: fallthrough\n      : @827 (gas: 6)\n 19498: i32 a1 = a1 + 0\n 19500: a0 = 0x1\n 19503: a2 = 0\n 19505: ra = 0x2e0\n 19509: ecalli 9 // 'seal_return'\n 19511: fallthrough\n      : @828 [@dyn 368] (gas: 37)\n 19512: sp = sp + 0xffffffffffffff60\n 19516: u64 [sp + 0x98] = ra\n 19520: u64 [sp + 0x90] = s0\n 19524: u64 [sp + 0x88] = s1\n 19528: s0 = sp + 0xa0\n 19532: sp = sp & 0xffffffffffffffe0\n 19535: a4 = u64 [a1]\n 19537: a3 = u64 [a2 + 0x8]\n 19540: ra = u64 [a1 + 0x8]\n 19543: t1 = u64 [a2]\n 19545: s1 = a4 + 0x1f\n 19548: u64 [sp + 0x58] = a4\n 19551: t0 = s1 <u a4\n 19554: a5 = ra + t0\n 19557: u64 [sp + 0x38] = t1\n 19560: t1 = s1 <u t1\n 19563: s1 = a5 ^ a3\n 19566: u64 [sp + 0x40] = a3\n 19569: a4 = a5 <u a3\n 19572: a4 = t1 if s1 == 0\n 19575: s1 = u64 [a1 + 0x10]\n 19578: a3 = a5 <u ra\n 19581: a3 = t0 if t0 == 0\n 19584: t0 = u64 [a2 + 0x18]\n 19587: t2 = u64 [a1 + 0x18]\n 19590: t1 = u64 [a2 + 0x10]\n 19593: a3 = a3 + s1\n 19596: a1 = a3 <u s1\n 19599: a1 = a1 + t2\n 19602: a2 = a1 ^ t0\n 19605: a1 = a1 <s t0\n 19608: a5 = a3 <u t1\n 19611: a1 = a5 if a2 == 0\n 19614: a3 = a3 ^ t1\n 19617: a2 = a2 | a3\n 19620: a4 = a1 if a2 != 0\n 19623: jump @835 if a4 == 0\n      : @829 (gas: 15)\n 19627: u64 [sp + 0x28] = t0\n 19630: u64 [sp + 0x30] = t1\n 19633: u64 [sp + 0x48] = a0\n 19636: a0 = u64 [sp + 0x58]\n 19639: a0 = a0 | s1\n 19642: u64 [sp + 0x50] = ra\n 19645: u64 [sp + 0x18] = t2\n 19648: a1 = ra | t2\n 19651: a0 = a0 | a1\n 19654: a0 = a0 >> 0x20\n 19657: u64 [sp + 0x20] = s1\n 19660: a1 = a1 | s1\n 19663: a1 = a1 << 0x20\n 19666: a0 = a0 | a1\n 19669: jump @834 if a0 != 0\n      : @830 (gas: 4)\n 19673: a1 = i32 [sp + 0x58]\n 19676: i32 a0 = sp + 0x60\n 19679: ecalli 2 // 'call_data_load'\n 19681: fallthrough\n      : @831 (gas: 7)\n 19682: t1 = u64 [sp + 0x78]\n 19685: a4 = u64 [sp + 0x70]\n 19688: s1 = u64 [sp + 0x68]\n 19691: a0 = a4 | t1\n 19694: a1 = s1 <u 0x1\n 19697: a1 = 0 if a0 != 0\n 19699: jump @836 if a1 == 0\n      : @832 (gas: 59)\n 19703: a3 = u64 [sp + 0x60]\n 19706: a0 = a3 >> 0x3b\n 19709: a1 = s1 << 0x5\n 19712: a0 = a0 | a1\n 19715: a1 = u64 [sp + 0x58]\n 19718: t2 = a1 + 0x20\n 19721: t0 = t2 <u a1\n 19724: u64 [sp + 0x8] = t0\n 19727: ra = u64 [sp + 0x50]\n 19730: t0 = t0 + ra\n 19733: a0 = a0 + t0\n 19736: u64 [sp + 0x10] = a3\n 19739: a1 = a3 << 0x5\n 19742: a1 = a1 + t2\n 19745: a3 = a1 <u t2\n 19748: a0 = a0 + a3\n 19751: a5 = a0 ^ t0\n 19754: a2 = a0 <u t0\n 19757: a2 = a3 if a5 == 0\n 19760: a3 = u64 [sp + 0x40]\n 19763: a5 = a0 ^ a3\n 19766: a0 = a3 <u a0\n 19769: a3 = u64 [sp + 0x38]\n 19772: a3 = a3 <u a1\n 19775: a3 = a0 if a5 != 0\n 19778: a0 = a4 >> 0x3b\n 19781: u64 [sp + 0x58] = t1\n 19784: a1 = t1 << 0x5\n 19787: a0 = a0 | a1\n 19790: u64 [sp + 0x38] = s1\n 19793: a1 = s1 >> 0x3b\n 19796: u64 [sp + 0x40] = a4\n 19799: a5 = a4 << 0x5\n 19802: a5 = a5 | a1\n 19805: a1 = t0 <u ra\n 19808: a4 = u64 [sp + 0x8]\n 19811: a1 = a4 if a4 == 0\n 19814: a4 = u64 [sp + 0x20]\n 19817: s1 = a4 + a1\n 19820: a1 = s1 <u a4\n 19823: ra = u64 [sp + 0x18]\n 19826: ra = ra + a1\n 19829: a5 = a5 + s1\n 19832: a0 = a0 + ra\n 19835: t1 = a5 <u s1\n 19838: a0 = a0 + t1\n 19841: a2 = a2 + a5\n 19844: a5 = a2 <u a5\n 19847: a0 = a0 + a5\n 19850: a1 = u64 [sp + 0x28]\n 19853: a5 = a0 ^ a1\n 19856: a1 = a1 <u a0\n 19859: a0 = u64 [sp + 0x30]\n 19862: a4 = a0 <u a2\n 19865: a4 = a1 if a5 != 0\n 19868: a0 = a0 ^ a2\n 19871: a0 = a0 | a5\n 19874: a3 = a4 if a0 != 0\n 19877: jump @837 if a3 != 0\n      : @833 (gas: 19)\n 19880: a0 = u64 [sp + 0x48]\n 19883: a1 = u64 [sp + 0x10]\n 19886: u64 [a0 + 0x20] = a1\n 19889: u64 [a0] = t2\n 19891: a1 = u64 [sp + 0x38]\n 19894: u64 [a0 + 0x28] = a1\n 19897: u64 [a0 + 0x8] = t0\n 19900: a1 = u64 [sp + 0x40]\n 19903: u64 [a0 + 0x30] = a1\n 19906: u64 [a0 + 0x10] = s1\n 19909: a1 = u64 [sp + 0x58]\n 19912: u64 [a0 + 0x38] = a1\n 19915: u64 [a0 + 0x18] = ra\n 19918: sp = s0 + 0xffffffffffffff60\n 19922: ra = u64 [sp + 0x98]\n 19926: s0 = u64 [sp + 0x90]\n 19930: s1 = u64 [sp + 0x88]\n 19934: sp = sp + 0xa0\n 19938: ret\n      : @834 (gas: 1)\n 19940: trap\n      : @835 (gas: 2)\n 19941: a1 = 0x20010\n 19946: jump @838\n      : @836 (gas: 2)\n 19948: a1 = 0x20010\n 19953: jump @838\n      : @837 (gas: 2)\n 19955: a1 = 0x20010\n 19960: fallthrough\n      : @838 (gas: 6)\n 19961: i32 a1 = a1 + 0\n 19963: a0 = 0x1\n 19966: a2 = 0\n 19968: ra = 0x2e2\n 19972: ecalli 9 // 'seal_return'\n 19974: fallthrough\n      : @839 [@dyn 369] (gas: 46)\n 19975: sp = sp + 0xffffffffffffff70\n 19979: u64 [sp + 0x88] = ra\n 19983: u64 [sp + 0x80] = s0\n 19987: u64 [sp + 0x78] = s1\n 19990: s0 = sp + 0x90\n 19994: sp = sp & 0xfffffffffffffff0\n 19997: t0 = a0\n 19999: a2 = u64 [a1]\n 20001: t2 = u64 [a0 + 0x8]\n 20004: a5 = u64 [a1 + 0x8]\n 20007: t1 = u64 [a0]\n 20009: a3 = a2 + 0x1f\n 20012: ra = a3 <u a2\n 20015: a2 = a5 + ra\n 20018: a3 = a3 & 0xffffffffffffffe0\n 20021: u64 [sp + 0x8] = t1\n 20024: t1 = t1 + a3\n 20027: a4 = t1 <u a3\n 20030: a3 = a2 + t2\n 20033: a3 = a3 + a4\n 20036: s1 = a3 ^ a2\n 20039: a0 = a3 <u a2\n 20042: a0 = a4 if s1 == 0\n 20045: a4 = u64 [t0 + 0x18]\n 20048: a5 = a2 <u a5\n 20051: s1 = u64 [a1 + 0x10]\n 20054: t0 = u64 [t0 + 0x10]\n 20057: a1 = u64 [a1 + 0x18]\n 20060: a5 = ra if ra == 0\n 20063: a5 = a5 + s1\n 20066: s1 = a5 <u s1\n 20069: a2 = a5 + t0\n 20072: a0 = a0 + a2\n 20075: a5 = a2 <u a5\n 20078: a2 = a0 <u a2\n 20081: a1 = a1 + a4\n 20084: a1 = a1 + s1\n 20087: a1 = a1 + a5\n 20090: a5 = a1 + a2\n 20093: a1 = a5 >u 0\n 20095: a2 = a0 >u 0\n 20097: a2 = a1 if a5 != 0\n 20100: a1 = a0 | a5\n 20103: s1 = a3 >u 0\n 20105: s1 = a2 if a1 != 0\n 20108: jump @843 if s1 != 0\n      : @840 (gas: 13)\n 20111: a1 = u64 [sp + 0x8]\n 20114: a1 = t1 <u a1\n 20117: a2 = a3 ^ t2\n 20120: s1 = a3 <u t2\n 20123: s1 = a1 if a2 == 0\n 20126: a1 = a0 <u t0\n 20129: a2 = a5 ^ a4\n 20132: a4 = a5 <u a4\n 20135: a4 = a1 if a2 == 0\n 20138: a1 = a0 ^ t0\n 20141: a1 = a1 | a2\n 20144: a4 = s1 if a1 == 0\n 20147: jump @843 if a4 != 0\n      : @841 (gas: 7)\n 20150: u64 [sp + 0x50] = t1\n 20153: u64 [sp + 0x58] = a3\n 20156: u64 [sp + 0x60] = a0\n 20159: a0 = 0x40\n 20162: a1 = sp + 0x50\n 20165: u64 [sp + 0x68] = a5\n 20168: ra = 740, jump @9\n      : @842 [@dyn 370] (gas: 6)\n 20174: sp = s0 + 0xffffffffffffff70\n 20178: ra = u64 [sp + 0x88]\n 20182: s0 = u64 [sp + 0x80]\n 20186: s1 = u64 [sp + 0x78]\n 20189: sp = sp + 0x90\n 20193: ret\n      : @843 (gas: 1)\n 20195: t0 = 742, jump @936\n      : @844 [@dyn 371] (gas: 1)\n 20201: ra = 744, jump @9\n      : @845 [@dyn 372] (gas: 7)\n 20207: u64 [sp + 40] = 0\n 20210: u64 [sp + 32] = 0\n 20213: u64 [sp + 16] = 0x41\n 20217: a0 = 0x4\n 20220: a1 = sp + 0x10\n 20223: u64 [sp + 24] = 0\n 20226: ra = 746, jump @9\n      : @846 [@dyn 373] (gas: 2)\n 20232: a1 = i32 [0x20008]\n 20237: jump @848 if a1 >u 63\n      : @847 (gas: 2)\n 20241: u32 [0x20008] = 0x40\n 20247: fallthrough\n      : @848 (gas: 7)\n 20248: a1 = 0x20010\n 20253: i32 a1 = a1 + 0\n 20255: a0 = 0x1\n 20258: a2 = 0x24\n 20261: ra = 0x2ec\n 20265: ecalli 9 // 'seal_return'\n 20267: fallthrough\n      : @849 [@dyn 374] (gas: 18)\n 20268: sp = sp + 0xffffffffffffffc0\n 20271: u64 [sp + 0x38] = ra\n 20274: u64 [sp + 0x30] = s0\n 20277: u64 [sp + 0x28] = s1\n 20280: s0 = sp + 0x40\n 20283: sp = sp & 0xfffffffffffffff0\n 20286: a2 = u64 [a1 + 0x10]\n 20289: a3 = u64 [a1 + 0x18]\n 20292: a4 = u64 [a1 + 0x8]\n 20295: a1 = u64 [a1]\n 20297: a3 = a3 | a4\n 20300: a4 = a1 | a2\n 20303: a4 = a4 | a3\n 20306: a4 = a4 >> 0x20\n 20309: a2 = a2 | a3\n 20312: a2 = a2 << 0x20\n 20315: a2 = a2 | a4\n 20318: jump @853 if a2 != 0\n      : @850 (gas: 3)\n 20321: s1 = a0\n 20323: a0 = sp\n 20325: ra = 750, jump @7\n      : @851 [@dyn 375] (gas: 7)\n 20331: a0 = u64 [sp + 0x18]\n 20334: a1 = u64 [sp + 0x10]\n 20337: a2 = u64 [sp + 0x8]\n 20340: a3 = a1 | a0\n 20343: a4 = a2 <u 0x1\n 20346: a4 = 0 if a3 != 0\n 20348: jump @854 if a4 == 0\n      : @852 (gas: 11)\n 20351: a3 = u64 [sp]\n 20353: u64 [s1] = a3\n 20355: u64 [s1 + 0x8] = a2\n 20358: u64 [s1 + 0x10] = a1\n 20361: u64 [s1 + 0x18] = a0\n 20364: sp = s0 + 0xffffffffffffffc0\n 20367: ra = u64 [sp + 0x38]\n 20370: s0 = u64 [sp + 0x30]\n 20373: s1 = u64 [sp + 0x28]\n 20376: sp = sp + 0x40\n 20379: ret\n      : @853 (gas: 1)\n 20381: trap\n      : @854 (gas: 7)\n 20382: a1 = 0x20010\n 20387: i32 a1 = a1 + 0\n 20389: a0 = 0x1\n 20392: a2 = 0\n 20394: ra = 0x2f0\n 20398: ecalli 9 // 'seal_return'\n 20400: fallthrough\n      : @855 [@dyn 376] (gas: 53)\n 20401: sp = sp + 0xffffffffffffff90\n 20404: u64 [sp + 0x68] = ra\n 20407: u64 [sp + 0x60] = s0\n 20410: u64 [sp + 0x58] = s1\n 20413: s0 = sp + 0x70\n 20416: sp = sp & 0xfffffffffffffff0\n 20419: a3 = a1\n 20421: t2 = u64 [a1 + 0x10]\n 20424: a1 = u64 [a1 + 0x8]\n 20427: t0 = u64 [a2 + 0x8]\n 20430: s1 = u64 [a3]\n 20432: u64 [sp] = s1\n 20434: a4 = u64 [a2]\n 20436: u64 [sp + 0x8] = a4\n 20439: ra = u64 [a2 + 0x10]\n 20442: a5 = t0 ^ a1\n 20445: u64 [sp + 0x28] = a5\n 20448: a5 = t0 <u a1\n 20451: a4 = a4 <u s1\n 20454: t1 = u64 [sp + 0x28]\n 20457: a5 = a4 if t1 == 0\n 20460: s1 = a4\n 20462: a3 = u64 [a3 + 0x18]\n 20465: u64 [sp + 0x18] = a3\n 20468: a2 = u64 [a2 + 0x18]\n 20471: u64 [sp + 0x10] = a2\n 20474: a3 = ra - t2\n 20477: a2 = a3 - a5\n 20480: u64 [sp + 0x20] = a2\n 20483: a2 = a3 <u a5\n 20486: u64 [sp + 0x28] = t2\n 20489: a4 = ra <u t2\n 20492: t2 = u64 [sp + 0x18]\n 20495: a3 = u64 [sp + 0x10]\n 20498: a3 = a3 - t2\n 20501: a3 = a3 - a4\n 20504: a3 = a3 - a2\n 20507: a2 = t0 - a1\n 20510: a2 = a2 - s1\n 20513: t0 = u64 [sp]\n 20515: a4 = u64 [sp + 0x8]\n 20518: a4 = a4 - t0\n 20521: a5 = a2 >u 0\n 20523: a4 = a4 <u 0x20\n 20526: a4 = a4 ^ 0x1\n 20529: a4 = a5 if a2 != 0\n 20532: s1 = a3 >s 0\n 20534: a2 = u64 [sp + 0x20]\n 20537: a5 = a2 >u 0\n 20539: a5 = s1 if a3 != 0\n 20542: a2 = a2 | a3\n 20545: a4 = a5 if a2 != 0\n 20548: jump @861 if a4 == 0\n      : @856 (gas: 10)\n 20551: s1 = a0\n 20553: a3 = u64 [sp + 0x28]\n 20556: a0 = t0 | a3\n 20559: a2 = a1 | t2\n 20562: a0 = a0 | a2\n 20565: a0 = a0 >> 0x20\n 20568: a2 = a2 | a3\n 20571: a2 = a2 << 0x20\n 20574: a0 = a0 | a2\n 20577: jump @860 if a0 != 0\n      : @857 (gas: 3)\n 20580: a0 = sp + 0x30\n 20583: a1 = t0\n 20585: ra = 754, jump @7\n      : @858 [@dyn 377] (gas: 12)\n 20591: a0 = u64 [sp + 0x48]\n 20594: a1 = u64 [sp + 0x40]\n 20597: a2 = u64 [sp + 0x38]\n 20600: a3 = u64 [sp + 0x30]\n 20603: a4 = a2 | a0\n 20606: a5 = a3 | a1\n 20609: a5 = a5 | a4\n 20612: a5 = a5 >> 0x20\n 20615: a4 = a4 | a1\n 20618: a4 = a4 << 0x20\n 20621: a4 = a4 | a5\n 20624: jump @862 if a4 != 0\n      : @859 (gas: 10)\n 20627: u64 [s1] = a3\n 20629: u64 [s1 + 0x8] = a2\n 20632: u64 [s1 + 0x10] = a1\n 20635: u64 [s1 + 0x18] = a0\n 20638: sp = s0 + 0xffffffffffffff90\n 20641: ra = u64 [sp + 0x68]\n 20644: s0 = u64 [sp + 0x60]\n 20647: s1 = u64 [sp + 0x58]\n 20650: sp = sp + 0x70\n 20653: ret\n      : @860 (gas: 1)\n 20655: trap\n      : @861 (gas: 2)\n 20656: a1 = 0x20010\n 20661: jump @863\n      : @862 (gas: 2)\n 20663: a1 = 0x20010\n 20668: fallthrough\n      : @863 (gas: 6)\n 20669: i32 a1 = a1 + 0\n 20671: a0 = 0x1\n 20674: a2 = 0\n 20676: ra = 0x2f4\n 20680: ecalli 9 // 'seal_return'\n 20682: fallthrough\n      : @864 [@dyn 378] (gas: 22)\n 20683: sp = sp + 0xffffffffffffff60\n 20687: u64 [sp + 0x98] = ra\n 20691: u64 [sp + 0x90] = s0\n 20695: u64 [sp + 0x88] = s1\n 20699: s0 = sp + 0xa0\n 20703: sp = sp & 0xfffffffffffffff0\n 20706: a5 = u64 [a1 + 0x10]\n 20709: a4 = u64 [a1 + 0x18]\n 20712: s1 = u64 [a1 + 0x8]\n 20715: t0 = u64 [a1]\n 20717: u64 [sp + 0x30] = a4\n 20720: u64 [sp + 0x28] = s1\n 20723: a1 = s1 | a4\n 20726: a4 = t0 | a5\n 20729: a4 = a4 | a1\n 20732: a4 = a4 >> 0x20\n 20735: u64 [sp + 0x38] = a5\n 20738: a1 = a1 | a5\n 20741: a1 = a1 << 0x20\n 20744: a1 = a1 | a4\n 20747: u64 [sp + 0x20] = a0\n 20750: jump @869 if a1 != 0\n      : @865 (gas: 15)\n 20754: s1 = t0\n 20756: a0 = u64 [a3]\n 20758: u64 [sp + 0x18] = a0\n 20761: a0 = u64 [a2 + 0x10]\n 20764: a1 = u64 [a2 + 0x8]\n 20767: a2 = u64 [a2]\n 20769: a0 = a0 << 0x20\n 20772: a0 = a0 >> 0x20\n 20775: u64 [sp + 120] = 0\n 20778: u64 [sp + 0x60] = a2\n 20781: u64 [sp + 0x68] = a1\n 20784: a1 = sp + 0x60\n 20787: u64 [sp + 0x70] = a0\n 20790: a0 = t0\n 20792: ra = 758, jump @9\n      : @866 [@dyn 379] (gas: 9)\n 20798: a2 = u64 [sp + 0x38]\n 20801: a3 = u64 [sp + 0x30]\n 20804: a0 = a2 | a3\n 20807: a1 = 0xffffffe0\n 20817: a1 = s1 <u a1\n 20820: a4 = u64 [sp + 0x28]\n 20823: a1 = 0 if a4 != 0\n 20825: a1 = 0 if a0 != 0\n 20827: jump @869 if a1 == 0\n      : @867 (gas: 20)\n 20830: a0 = s1 + 0x40\n 20833: u64 [sp + 0x10] = a0\n 20836: a0 = a0 <u s1\n 20839: a1 = a4 + a0\n 20842: u64 [sp + 0x8] = a1\n 20845: a1 = a1 <u a4\n 20848: a1 = a0 if a0 == 0\n 20851: a1 = a1 + a2\n 20854: u64 [sp + 0x28] = a1\n 20857: a0 = a1 <u a2\n 20860: a0 = a0 + a3\n 20863: u64 [sp + 0x38] = a0\n 20866: i32 a0 = s1 + 0x20\n 20869: u64 [sp + 88] = 0\n 20872: u64 [sp + 80] = 0\n 20875: a1 = u64 [sp + 0x18]\n 20878: u64 [sp + 0x40] = a1\n 20881: a1 = sp + 0x40\n 20884: u64 [sp + 72] = 0\n 20887: ra = 760, jump @9\n      : @868 [@dyn 380] (gas: 15)\n 20893: a0 = u64 [sp + 0x20]\n 20896: a1 = u64 [sp + 0x8]\n 20899: u64 [a0 + 0x8] = a1\n 20902: a1 = u64 [sp + 0x10]\n 20905: u64 [a0] = a1\n 20907: a1 = u64 [sp + 0x28]\n 20910: u64 [a0 + 0x10] = a1\n 20913: a1 = u64 [sp + 0x38]\n 20916: u64 [a0 + 0x18] = a1\n 20919: sp = s0 + 0xffffffffffffff60\n 20923: ra = u64 [sp + 0x98]\n 20927: s0 = u64 [sp + 0x90]\n 20931: s1 = u64 [sp + 0x88]\n 20935: sp = sp + 0xa0\n 20939: ret\n      : @869 (gas: 1)\n 20941: trap\n      : @870 (gas: 48)\n 20942: sp = sp + 0xffffffffffffff10\n 20946: u64 [sp + 0xe8] = ra\n 20950: u64 [sp + 0xe0] = s0\n 20954: u64 [sp + 0xd8] = s1\n 20958: s0 = sp + 0xf0\n 20962: sp = sp & 0xfffffffffffffff0\n 20965: t0 = u64 [a1 + 0x10]\n 20968: a5 = u64 [a1 + 0x8]\n 20971: a3 = u64 [a2 + 0x8]\n 20974: ra = u64 [a1]\n 20976: a4 = u64 [a2]\n 20978: u64 [sp + 0x28] = a4\n 20981: t2 = u64 [a2 + 0x10]\n 20984: t1 = a3 ^ a5\n 20987: s1 = a3 <u a5\n 20990: a4 = a4 <u ra\n 20993: u64 [sp + 0x20] = a4\n 20996: s1 = a4 if t1 == 0\n 20999: t1 = u64 [a1 + 0x18]\n 21002: a1 = u64 [a2 + 0x18]\n 21005: u64 [sp + 0x18] = a1\n 21008: a2 = t2 - t0\n 21011: a1 = a2 - s1\n 21014: u64 [sp + 0x38] = a1\n 21017: a1 = a2 <u s1\n 21020: u64 [sp + 0x48] = t0\n 21023: a4 = t2 <u t0\n 21026: u64 [sp + 0x40] = t1\n 21029: a2 = u64 [sp + 0x18]\n 21032: a2 = a2 - t1\n 21035: a2 = a2 - a4\n 21038: a2 = a2 - a1\n 21041: a1 = a3 - a5\n 21044: a3 = u64 [sp + 0x20]\n 21047: a1 = a1 - a3\n 21050: a3 = u64 [sp + 0x28]\n 21053: a3 = a3 - ra\n 21056: a4 = a1 >u 0\n 21058: a3 = a3 <u 0x60\n 21061: a3 = a3 ^ 0x1\n 21064: a3 = a4 if a1 != 0\n 21067: s1 = a2 >s 0\n 21069: a1 = u64 [sp + 0x38]\n 21072: a4 = a1 >u 0\n 21074: a4 = s1 if a2 != 0\n 21077: a1 = a1 | a2\n 21080: a3 = a4 if a1 != 0\n 21083: jump @879 if a3 == 0\n      : @871 (gas: 12)\n 21087: s1 = a0\n 21089: a2 = u64 [sp + 0x48]\n 21092: a0 = ra | a2\n 21095: u64 [sp + 0x30] = a5\n 21098: a1 = u64 [sp + 0x40]\n 21101: a1 = a1 | a5\n 21104: a0 = a0 | a1\n 21107: a0 = a0 >> 0x20\n 21110: a1 = a1 | a2\n 21113: a1 = a1 << 0x20\n 21116: a0 = a0 | a1\n 21119: jump @878 if a0 != 0\n      : @872 (gas: 4)\n 21123: a0 = sp + 0xb0\n 21127: a1 = ra\n 21129: u64 [sp + 0x38] = ra\n 21132: ra = 762, jump @7\n      : @873 [@dyn 381] (gas: 28)\n 21138: a0 = u64 [sp + 0xc8]\n 21142: u64 [sp + 0x28] = a0\n 21145: a0 = u64 [sp + 0xc0]\n 21149: u64 [sp + 0x20] = a0\n 21152: a0 = u64 [sp + 0xb8]\n 21156: u64 [sp + 0x18] = a0\n 21159: a0 = u64 [sp + 0xb0]\n 21163: u64 [sp + 0x10] = a0\n 21166: a0 = u64 [sp + 0x38]\n 21169: a0 = a0 + 0x20\n 21172: a1 = u64 [sp + 0x38]\n 21175: a1 = a0 <u a1\n 21178: a3 = u64 [sp + 0x30]\n 21181: a2 = a3 + a1\n 21184: a3 = a2 <u a3\n 21187: a3 = a1 if a1 == 0\n 21190: a1 = u64 [sp + 0x48]\n 21193: a3 = a3 + a1\n 21196: a1 = a3 <u a1\n 21199: a4 = u64 [sp + 0x40]\n 21202: a4 = a4 + a1\n 21205: u64 [sp + 0x78] = a2\n 21208: u64 [sp + 0x70] = a0\n 21211: u64 [sp + 0x80] = a3\n 21215: a0 = sp + 0x90\n 21219: a1 = sp + 0x70\n 21222: u64 [sp + 0x88] = a4\n 21226: ra = 764, jump @849\n      : @874 [@dyn 382] (gas: 10)\n 21232: a2 = u64 [sp + 0x38]\n 21235: a0 = u64 [sp + 0x48]\n 21238: a1 = u64 [sp + 0x40]\n 21241: a0 = a0 | a1\n 21244: a1 = 0xffffffc0\n 21254: a1 = a2 <u a1\n 21257: a3 = u64 [sp + 0x30]\n 21260: a1 = 0 if a3 != 0\n 21262: a1 = 0 if a0 != 0\n 21264: jump @878 if a1 == 0\n      : @875 (gas: 11)\n 21268: a0 = u64 [sp + 0xa8]\n 21272: u64 [sp + 0x48] = a0\n 21275: a0 = u64 [sp + 0xa0]\n 21279: u64 [sp + 0x40] = a0\n 21282: a0 = u64 [sp + 0x98]\n 21286: u64 [sp + 0x30] = a0\n 21289: a0 = u64 [sp + 0x90]\n 21293: u64 [sp + 0x8] = a0\n 21296: i32 a1 = a2 + 0x40\n 21299: a0 = sp + 0x50\n 21302: ra = 766, jump @7\n      : @876 [@dyn 383] (gas: 9)\n 21308: a0 = u64 [sp + 0x68]\n 21311: a1 = u64 [sp + 0x60]\n 21314: a3 = u64 [sp + 0x50]\n 21317: a2 = u64 [sp + 0x58]\n 21320: a4 = a1 | a0\n 21323: a5 = a3 <u 0x2\n 21326: a5 = 0 if a2 != 0\n 21328: a5 = 0 if a4 != 0\n 21330: jump @880 if a5 == 0\n      : @877 (gas: 26)\n 21333: u64 [s1 + 0x40] = a3\n 21336: a3 = u64 [sp + 0x8]\n 21339: u64 [s1 + 0x20] = a3\n 21342: a3 = u64 [sp + 0x10]\n 21345: u64 [s1] = a3\n 21347: u64 [s1 + 0x48] = a2\n 21350: a2 = u64 [sp + 0x30]\n 21353: u64 [s1 + 0x28] = a2\n 21356: a2 = u64 [sp + 0x18]\n 21359: u64 [s1 + 0x8] = a2\n 21362: u64 [s1 + 0x50] = a1\n 21365: a1 = u64 [sp + 0x40]\n 21368: u64 [s1 + 0x30] = a1\n 21371: a1 = u64 [sp + 0x20]\n 21374: u64 [s1 + 0x10] = a1\n 21377: u64 [s1 + 0x58] = a0\n 21380: a0 = u64 [sp + 0x48]\n 21383: u64 [s1 + 0x38] = a0\n 21386: a0 = u64 [sp + 0x28]\n 21389: u64 [s1 + 0x18] = a0\n 21392: sp = s0 + 0xffffffffffffff10\n 21396: ra = u64 [sp + 0xe8]\n 21400: s0 = u64 [sp + 0xe0]\n 21404: s1 = u64 [sp + 0xd8]\n 21408: sp = sp + 0xf0\n 21412: ret\n      : @878 (gas: 1)\n 21414: trap\n      : @879 (gas: 2)\n 21415: a1 = 0x20010\n 21420: jump @881\n      : @880 (gas: 2)\n 21422: a1 = 0x20010\n 21427: fallthrough\n      : @881 (gas: 6)\n 21428: i32 a1 = a1 + 0\n 21430: a0 = 0x1\n 21433: a2 = 0\n 21435: ra = 0x300\n 21439: ecalli 9 // 'seal_return'\n 21441: fallthrough\n      : @882 [@dyn 384] (gas: 22)\n 21442: sp = sp + 0xffffffffffffff70\n 21446: u64 [sp + 0x88] = ra\n 21450: u64 [sp + 0x80] = s0\n 21454: u64 [sp + 0x78] = s1\n 21457: s0 = sp + 0x90\n 21461: sp = sp & 0xfffffffffffffff0\n 21464: a5 = u64 [a1 + 0x10]\n 21467: a4 = u64 [a1 + 0x18]\n 21470: s1 = u64 [a1 + 0x8]\n 21473: t0 = u64 [a1]\n 21475: u64 [sp + 0x20] = a4\n 21478: u64 [sp + 0x18] = s1\n 21481: a1 = s1 | a4\n 21484: a4 = t0 | a5\n 21487: a4 = a4 | a1\n 21490: a4 = a4 >> 0x20\n 21493: u64 [sp + 0x28] = a5\n 21496: a1 = a1 | a5\n 21499: a1 = a1 << 0x20\n 21502: a1 = a1 | a4\n 21505: u64 [sp + 0x10] = a0\n 21508: jump @887 if a1 != 0\n      : @883 (gas: 15)\n 21512: s1 = t0\n 21514: a0 = u64 [a3]\n 21516: u64 [sp + 0x8] = a0\n 21519: a0 = u64 [a2 + 0x10]\n 21522: a1 = u64 [a2 + 0x8]\n 21525: a2 = u64 [a2]\n 21527: a0 = a0 << 0x20\n 21530: a0 = a0 >> 0x20\n 21533: u64 [sp + 104] = 0\n 21536: u64 [sp + 0x50] = a2\n 21539: u64 [sp + 0x58] = a1\n 21542: a1 = sp + 0x50\n 21545: u64 [sp + 0x60] = a0\n 21548: a0 = t0\n 21550: ra = 770, jump @9\n      : @884 [@dyn 385] (gas: 9)\n 21556: a3 = u64 [sp + 0x28]\n 21559: a4 = u64 [sp + 0x20]\n 21562: a0 = a3 | a4\n 21565: a1 = 0xffffffe0\n 21575: a1 = s1 <u a1\n 21578: a2 = u64 [sp + 0x18]\n 21581: a1 = 0 if a2 != 0\n 21583: a1 = 0 if a0 != 0\n 21585: jump @887 if a1 == 0\n      : @885 (gas: 22)\n 21588: a0 = u64 [sp + 0x8]\n 21591: a0 = a0 << 0x20\n 21594: a1 = a0 >> 0x20\n 21597: a0 = s1 + 0x40\n 21600: u64 [sp + 0x8] = a0\n 21603: a0 = a0 <u s1\n 21606: a5 = a2 + a0\n 21609: u64 [sp] = a5\n 21611: a2 = a5 <u a2\n 21614: a2 = a0 if a0 == 0\n 21617: a2 = a2 + a3\n 21620: u64 [sp + 0x18] = a2\n 21623: a0 = a2 <u a3\n 21626: a0 = a0 + a4\n 21629: u64 [sp + 0x28] = a0\n 21632: i32 a0 = s1 + 0x20\n 21635: u64 [sp + 72] = 0\n 21638: u64 [sp + 64] = 0\n 21641: u64 [sp + 0x30] = a1\n 21644: a1 = sp + 0x30\n 21647: u64 [sp + 56] = 0\n 21650: ra = 772, jump @9\n      : @886 [@dyn 386] (gas: 15)\n 21656: a0 = u64 [sp + 0x10]\n 21659: a1 = u64 [sp]\n 21661: u64 [a0 + 0x8] = a1\n 21664: a1 = u64 [sp + 0x8]\n 21667: u64 [a0] = a1\n 21669: a1 = u64 [sp + 0x18]\n 21672: u64 [a0 + 0x10] = a1\n 21675: a1 = u64 [sp + 0x28]\n 21678: u64 [a0 + 0x18] = a1\n 21681: sp = s0 + 0xffffffffffffff70\n 21685: ra = u64 [sp + 0x88]\n 21689: s0 = u64 [sp + 0x80]\n 21693: s1 = u64 [sp + 0x78]\n 21696: sp = sp + 0x90\n 21700: ret\n      : @887 (gas: 1)\n 21702: trap\n      : @888 (gas: 23)\n 21703: sp = sp + 0xffffffffffffff40\n 21707: u64 [sp + 0xb8] = ra\n 21711: u64 [sp + 0xb0] = s0\n 21715: u64 [sp + 0xa8] = s1\n 21719: s0 = sp + 0xc0\n 21723: sp = sp & 0xfffffffffffffff0\n 21726: s1 = u64 [a1 + 0x10]\n 21729: t0 = u64 [a1 + 0x18]\n 21732: a5 = u64 [a1 + 0x8]\n 21735: a1 = u64 [a1]\n 21737: u64 [sp + 0x38] = a5\n 21740: u64 [sp + 0x28] = t0\n 21743: t1 = a5 | t0\n 21746: t0 = a1\n 21748: a5 = a1 | s1\n 21751: a5 = a5 | t1\n 21754: a5 = a5 >> 0x20\n 21757: u64 [sp + 0x30] = s1\n 21760: a1 = t1 | s1\n 21763: a1 = a1 << 0x20\n 21766: a1 = a1 | a5\n 21769: u64 [sp + 0x20] = a0\n 21772: jump @895 if a1 != 0\n      : @889 (gas: 17)\n 21776: a0 = u64 [a4]\n 21778: u64 [sp] = a0\n 21780: a0 = u64 [a3]\n 21782: u64 [sp + 0x18] = a0\n 21785: a0 = u64 [a2 + 0x10]\n 21788: a1 = u64 [a2 + 0x8]\n 21791: a2 = u64 [a2]\n 21793: a0 = a0 << 0x20\n 21796: a0 = a0 >> 0x20\n 21799: u64 [sp + 152] = 0\n 21803: u64 [sp + 0x80] = a2\n 21807: u64 [sp + 0x88] = a1\n 21811: a1 = sp + 0x80\n 21815: u64 [sp + 0x90] = a0\n 21819: s1 = t0\n 21821: a0 = t0\n 21823: ra = 774, jump @9\n      : @890 [@dyn 387] (gas: 12)\n 21829: a0 = u64 [sp + 0x30]\n 21832: a1 = u64 [sp + 0x28]\n 21835: a2 = a0 | a1\n 21838: a0 = 0x100000000\n 21848: u64 [sp + 0x8] = a0\n 21851: a0 = 0xffffffe0\n 21861: a0 = s1 <u a0\n 21864: a1 = u64 [sp + 0x38]\n 21867: a0 = 0 if a1 != 0\n 21869: u64 [sp + 0x10] = a2\n 21872: a0 = 0 if a2 != 0\n 21874: jump @895 if a0 == 0\n      : @891 (gas: 8)\n 21878: i32 a0 = s1 + 0x20\n 21881: u64 [sp + 120] = 0\n 21884: u64 [sp + 112] = 0\n 21887: a1 = u64 [sp + 0x18]\n 21890: u64 [sp + 0x60] = a1\n 21893: a1 = sp + 0x60\n 21896: u64 [sp + 104] = 0\n 21899: ra = 776, jump @9\n      : @892 [@dyn 388] (gas: 8)\n 21905: a0 = u64 [sp + 0x8]\n 21908: a0 = a0 + 0xffffffffffffffc0\n 21911: a0 = s1 <u a0\n 21914: a1 = u64 [sp + 0x38]\n 21917: a0 = 0 if a1 != 0\n 21919: a1 = u64 [sp + 0x10]\n 21922: a0 = 0 if a1 != 0\n 21924: jump @895 if a0 == 0\n      : @893 (gas: 25)\n 21928: a0 = u64 [sp]\n 21930: a0 = a0 << 0x20\n 21933: a1 = a0 >> 0x20\n 21936: a0 = s1 + 0x60\n 21939: u64 [sp + 0x18] = a0\n 21942: a0 = a0 <u s1\n 21945: a2 = u64 [sp + 0x38]\n 21948: a3 = a2 + a0\n 21951: u64 [sp + 0x10] = a3\n 21954: a2 = a3 <u a2\n 21957: a2 = a0 if a0 == 0\n 21960: a0 = u64 [sp + 0x30]\n 21963: a2 = a2 + a0\n 21966: u64 [sp + 0x8] = a2\n 21969: a0 = a2 <u a0\n 21972: a2 = u64 [sp + 0x28]\n 21975: a0 = a0 + a2\n 21978: u64 [sp + 0x38] = a0\n 21981: i32 a0 = s1 + 0x40\n 21984: u64 [sp + 88] = 0\n 21987: u64 [sp + 80] = 0\n 21990: u64 [sp + 0x40] = a1\n 21993: a1 = sp + 0x40\n 21996: u64 [sp + 72] = 0\n 21999: ra = 778, jump @9\n      : @894 [@dyn 389] (gas: 15)\n 22005: a0 = u64 [sp + 0x20]\n 22008: a1 = u64 [sp + 0x10]\n 22011: u64 [a0 + 0x8] = a1\n 22014: a1 = u64 [sp + 0x18]\n 22017: u64 [a0] = a1\n 22019: a1 = u64 [sp + 0x8]\n 22022: u64 [a0 + 0x10] = a1\n 22025: a1 = u64 [sp + 0x38]\n 22028: u64 [a0 + 0x18] = a1\n 22031: sp = s0 + 0xffffffffffffff40\n 22035: ra = u64 [sp + 0xb8]\n 22039: s0 = u64 [sp + 0xb0]\n 22043: s1 = u64 [sp + 0xa8]\n 22047: sp = sp + 0xc0\n 22051: ret\n      : @895 (gas: 1)\n 22053: trap\n      : @896 (gas: 29)\n 22054: sp = sp + 0xffffffffffffff90\n 22057: u64 [sp + 0x68] = ra\n 22060: u64 [sp + 0x60] = s0\n 22063: u64 [sp + 0x58] = s1\n 22066: s0 = sp + 0x70\n 22069: sp = sp & 0xfffffffffffffff0\n 22072: s1 = u64 [a3]\n 22074: a4 = u64 [a2]\n 22076: u64 [sp] = a4\n 22078: t2 = u64 [a3 + 0x8]\n 22081: a5 = u64 [a2 + 0x8]\n 22084: a4 = u64 [a3 + 0x10]\n 22087: t0 = u64 [a2 + 0x10]\n 22090: t1 = u64 [a3 + 0x18]\n 22093: a2 = u64 [a2 + 0x18]\n 22096: ra = t2 ^ a5\n 22099: a5 = t2 <u a5\n 22102: u64 [sp + 0x8] = s1\n 22105: a3 = u64 [sp]\n 22107: a3 = s1 <u a3\n 22110: a3 = a5 if ra != 0\n 22113: a5 = t1 ^ a2\n 22116: a2 = t1 <u a2\n 22119: s1 = a4 <u t0\n 22122: s1 = a2 if a5 != 0\n 22125: a2 = a4 ^ t0\n 22128: a2 = a2 | a5\n 22131: a3 = s1 if a2 != 0\n 22134: jump @898 if a3 == 0\n      : @897 (gas: 39)\n 22137: t0 = u64 [a1 + 0x18]\n 22140: ra = u64 [a1 + 0x10]\n 22143: a5 = u64 [a1 + 0x8]\n 22146: a1 = u64 [a1]\n 22148: s1 = a4 >> 0x3b\n 22151: t1 = t1 << 0x5\n 22154: t1 = t1 | s1\n 22157: a2 = t2 >> 0x3b\n 22160: a4 = a4 << 0x5\n 22163: a2 = a2 | a4\n 22166: a3 = u64 [sp + 0x8]\n 22169: a4 = a3 >> 0x3b\n 22172: t2 = t2 << 0x5\n 22175: a4 = t2 | a4\n 22178: a3 = a3 << 0x5\n 22181: a1 = a1 + a3\n 22184: a3 = a1 <u a3\n 22187: a5 = a5 + a4\n 22190: a5 = a5 + a3\n 22193: s1 = a5 ^ a4\n 22196: a4 = a5 <u a4\n 22199: a4 = a3 if s1 == 0\n 22202: ra = ra + a2\n 22205: a4 = a4 + ra\n 22208: a3 = a4 <u ra\n 22211: a2 = ra <u a2\n 22214: t0 = t0 + t1\n 22217: a2 = a2 + t0\n 22220: a2 = a2 + a3\n 22223: u64 [a0] = a1\n 22225: u64 [a0 + 0x8] = a5\n 22228: u64 [a0 + 0x10] = a4\n 22231: u64 [a0 + 0x18] = a2\n 22234: sp = s0 + 0xffffffffffffff90\n 22237: ra = u64 [sp + 0x68]\n 22240: s0 = u64 [sp + 0x60]\n 22243: s1 = u64 [sp + 0x58]\n 22246: sp = sp + 0x70\n 22249: ret\n      : @898 (gas: 1)\n 22251: t0 = 780, jump @936\n      : @899 [@dyn 390] (gas: 1)\n 22257: ra = 782, jump @9\n      : @900 [@dyn 391] (gas: 7)\n 22263: u64 [sp + 40] = 0\n 22266: u64 [sp + 32] = 0\n 22269: u64 [sp + 16] = 0x32\n 22273: a0 = 0x4\n 22276: a1 = sp + 0x10\n 22279: u64 [sp + 24] = 0\n 22282: ra = 784, jump @9\n      : @901 [@dyn 392] (gas: 2)\n 22288: a1 = i32 [0x20008]\n 22293: jump @903 if a1 >u 63\n      : @902 (gas: 2)\n 22297: u32 [0x20008] = 0x40\n 22303: fallthrough\n      : @903 (gas: 8)\n 22304: a1 = 0x20010\n 22309: i32 a1 = a1 + 0\n 22311: a0 = 0x1\n 22314: a2 = 0x24\n 22317: ecalli 9 // 'seal_return'\n 22319: a0 = 0\n 22321: ra = 0x312\n 22325: jump @17\n      : @904 [export #0: 'call'] (gas: 2)\n 22328: a0 = 0\n 22330: ra = 786, jump @17\n      : @905 [@dyn 393] [export #1: 'deploy'] (gas: 2)\n 22336: a0 = 0x1\n 22339: ra = 788, jump @17\n      : @906 [@dyn 394] (gas: 12)\n 22345: a1 = u64 [sp + 0x198]\n 22349: a2 = u64 [sp + 0x188]\n 22353: a1 = a1 | a2\n 22356: u64 [sp + 0x198] = s1\n 22360: a3 = u64 [sp + 0x190]\n 22364: a2 = s1 | a3\n 22367: a2 = a2 | a1\n 22370: a2 = a2 >> 0x20\n 22373: a1 = a1 | a3\n 22376: a1 = a1 << 0x20\n 22379: a1 = a1 | a2\n 22382: jump [t0]\n      : @907 (gas: 10)\n 22384: a1 = u64 [sp + 0x148]\n 22388: a0 = u64 [sp + 0x140]\n 22392: u64 [a1 + 0x8] = a0\n 22395: a0 = u64 [sp + 0x150]\n 22399: u64 [a1] = a0\n 22401: a0 = u64 [sp + 0x138]\n 22405: u32 [a1 + 0x10] = a0\n 22408: a0 = 0x2118\n 22412: s1 = sp + a0\n 22415: jump [t0]\n      : @908 (gas: 7)\n 22417: a1 = a1 <u 0x20\n 22420: a1 = a1 ^ 0x1\n 22423: a0 = 0\n 22425: a2 = a0\n 22427: s1 = 0\n 22429: a2 = a1 if s1 == 0\n 22432: jump [t0]\n      : @909 (gas: 7)\n 22434: a1 = a1 <u 0x20\n 22437: a1 = a1 ^ 0x1\n 22440: a0 = 0\n 22442: a2 = a0\n 22444: a0 = 0\n 22446: a2 = a1 if a0 == 0\n 22449: jump [t0]\n      : @910 (gas: 22)\n 22451: a5 = s1\n 22453: s1 = u64 [sp + 0x188]\n 22457: a2 = u64 [sp + 0x170]\n 22461: a0 = 0 if a2 == 0\n 22463: a1 = 0 if a2 == 0\n 22465: a2 = u64 [sp + 0x198]\n 22469: a5 = 0 if a2 != 0\n 22471: s1 = 0 if a2 != 0\n 22473: a1 = 0 if a2 != 0\n 22475: a0 = 0 if a2 != 0\n 22477: a2 = u64 [sp + 0x128]\n 22481: a2 = a2 & s1\n 22484: a3 = u64 [sp + 0x130]\n 22488: a3 = a3 & a5\n 22491: a4 = u64 [sp + 0x120]\n 22495: a4 = a4 & a1\n 22498: a3 = a3 | a4\n 22501: a4 = u64 [sp + 0x118]\n 22505: a4 = a4 & a0\n 22508: a2 = a2 | a4\n 22511: a2 = a2 | a3\n 22514: jump [t0]\n      : @911 (gas: 12)\n 22516: a2 = a2 + sp\n 22519: a2 = a2 << 0x20\n 22522: a3 = a2 | a1\n 22525: a1 = u64 [sp + 0x178]\n 22529: a1 = a1 << 0x20\n 22532: a1 = a1 >> 0x20\n 22535: a2 = 0x2400000000\n 22545: a4 = a1 | a2\n 22548: a0 = a0 << 0x20\n 22551: a0 = a0 >> 0x20\n 22554: a1 = 0x2000\n 22558: jump [t0]\n      : @912 (gas: 19)\n 22560: a4 = u64 [sp + 0x170]\n 22564: a4 = a4 | a0\n 22567: a0 = s1\n 22569: a3 = s1 <u 0x80\n 22573: u64 [sp + 0x170] = a3\n 22577: a2 = u64 [sp + 0x188]\n 22581: a4 = a2 if a3 == 0\n 22584: a4 = 0 if s1 == 0\n 22586: u64 [sp + 0x188] = a4\n 22590: s1 = u64 [sp + 0x178]\n 22594: s1 = s1 | a1\n 22597: a1 = u64 [sp + 0x190]\n 22601: s1 = a1 if a3 == 0\n 22604: u64 [sp + 0x190] = a0\n 22608: s1 = 0 if a0 == 0\n 22610: a0 = 0x1\n 22613: a1 = 0\n 22615: a2 = u64 [sp + 0x180]\n 22619: jump [t0]\n      : @913 (gas: 10)\n 22621: a1 = u64 [sp + 0x158]\n 22625: a0 = u64 [sp + 0x148]\n 22629: u64 [a1 + 0x8] = a0\n 22632: a0 = u64 [sp + 0x150]\n 22636: u64 [a1] = a0\n 22638: a0 = u64 [sp + 0x140]\n 22642: u32 [a1 + 0x10] = a0\n 22645: a0 = 0x1918\n 22649: s1 = sp + a0\n 22652: jump [t0]\n      : @914 (gas: 5)\n 22654: i32 a0 = s1 + 0\n 22656: u64 [sp + 0x190] = a0\n 22660: a0 = u64 [sp + 0x198]\n 22664: a1 = s1\n 22666: jump [t0]\n      : @915 (gas: 14)\n 22668: a1 = u64 [sp + 0x198]\n 22672: a0 = a1 + 0x4\n 22675: a1 = a0 <u a1\n 22678: a3 = u64 [sp + 0x180]\n 22682: a2 = a3 + a1\n 22685: a3 = a2 <u a3\n 22688: a3 = a1 if a1 == 0\n 22691: a1 = u64 [sp + 0x188]\n 22695: a3 = a3 + a1\n 22698: a1 = a3 <u a1\n 22701: a4 = u64 [sp + 0x190]\n 22705: a1 = a1 + a4\n 22708: a4 = u64 [sp + 0x88]\n 22712: jump [t0]\n      : @916 (gas: 14)\n 22714: a1 = u64 [sp + 0x198]\n 22718: a0 = a1 + 0x4\n 22721: a1 = a0 <u a1\n 22724: a3 = u64 [sp + 0x180]\n 22728: a2 = a3 + a1\n 22731: a3 = a2 <u a3\n 22734: a3 = a1 if a1 == 0\n 22737: a1 = u64 [sp + 0x188]\n 22741: a3 = a3 + a1\n 22744: a1 = a3 <u a1\n 22747: a4 = u64 [sp + 0x190]\n 22751: a1 = a1 + a4\n 22754: a4 = u64 [sp + 0x158]\n 22758: jump [t0]\n      : @917 (gas: 13)\n 22760: a1 = u64 [sp + 0x198]\n 22764: a0 = a1 + 0x4\n 22767: a1 = a0 <u a1\n 22770: a2 = s1 + a1\n 22773: a3 = a2 <u s1\n 22776: a3 = a1 if a1 == 0\n 22779: a1 = u64 [sp + 0x188]\n 22783: a3 = a3 + a1\n 22786: a1 = a3 <u a1\n 22789: a4 = u64 [sp + 0x190]\n 22793: a4 = a4 + a1\n 22796: a1 = u64 [sp + 0x80]\n 22800: jump [t0]\n      : @918 (gas: 18)\n 22802: a1 = a1 << 0x23\n 22805: a3 = u64 [sp + 0x68]\n 22808: a3 = a3 | a1\n 22811: a1 = u64 [sp + 0x168]\n 22815: a1 = a1 << 0x20\n 22818: a1 = a1 >> 0x20\n 22821: a4 = u64 [sp + 0x170]\n 22825: a4 = a4 << 0x20\n 22828: a4 = a4 | a1\n 22831: a0 = a0 << 0x20\n 22834: a0 = a0 >> 0x20\n 22837: a5 = u64 [sp + 0x50]\n 22840: a5 = a5 | a0\n 22843: a1 = 0xffffffffffffffff\n 22846: a2 = 0xffffffffffffffff\n 22849: a0 = a3\n 22851: a3 = u64 [sp + 0x58]\n 22854: jump [t0]\n      : @919 (gas: 7)\n 22856: a1 = a1 + sp\n 22859: a1 = a1 << 0x20\n 22862: a5 = a1 | a0\n 22865: a1 = 0xffffffffffffffff\n 22868: a2 = 0xffffffffffffffff\n 22871: a0 = u64 [sp + 0xa8]\n 22875: jump [t0]\n      : @920 (gas: 11)\n 22877: a1 = u64 [sp + 0x198]\n 22881: a0 = a1 + 0x4\n 22884: a1 = a0 <u a1\n 22887: a3 = u64 [sp + 0x188]\n 22891: a2 = a3 + a1\n 22894: a3 = a2 <u a3\n 22897: a3 = a1 if a1 == 0\n 22900: a1 = u64 [sp + 0x180]\n 22904: a3 = a3 + a1\n 22907: a1 = a3 <u a1\n 22910: jump [t0]\n      : @921 (gas: 11)\n 22912: a0 = u64 [sp + 0x168]\n 22916: a0 = reverse a0\n 22918: a1 = a0 << 0x20\n 22921: a2 = u64 [sp + 0x170]\n 22925: a2 = reverse a2\n 22927: a2 = a2 >> 0x20\n 22930: a4 = a2 | a1\n 22933: a1 = u64 [sp + 0x178]\n 22937: a1 = reverse a1\n 22939: a2 = a1 << 0x20\n 22942: jump [t0]\n      : @922 (gas: 7)\n 22944: a1 = a0 | a4\n 22947: a1 = a1 | a2\n 22950: a1 = a1 >> 0x20\n 22953: a2 = a2 | a4\n 22956: a2 = a2 << 0x20\n 22959: a1 = a1 | a2\n 22962: jump [t0]\n      : @923 (gas: 11)\n 22964: a3 = a5 <u 0x100\n 22968: a3 = a3 ^ 0x1\n 22971: u64 [sp + 360] = 0\n 22975: a3 = 0 if a4 != 0\n 22977: a3 = a0 if a2 != 0\n 22980: u64 [sp + 0x198] = a3\n 22984: i32 a2 = a5 + 0xffffffffffffff80\n 22987: a0 = 0x1\n 22990: a1 = 0\n 22992: s1 = a5\n 22994: jump [t0]\n      : @924 (gas: 9)\n 22996: a0 = s1 >u 0\n 22998: a1 = u64 [sp + 0x190]\n 23002: a1 = a1 <u 0x20\n 23005: a1 = a1 ^ 0x1\n 23008: a1 = a0 if s1 != 0\n 23011: a0 = s1 >u 0\n 23013: a2 = s1 >u 0\n 23015: a2 = a0 if s1 == 0\n 23018: jump [t0]\n      : @925 (gas: 7)\n 23020: a1 = a1 | a5\n 23023: a0 = a0 | a1\n 23026: a0 = a0 >> 0x20\n 23029: a1 = a1 | a4\n 23032: a1 = a1 << 0x20\n 23035: a0 = a0 | a1\n 23038: jump [t0]\n      : @926 (gas: 10)\n 23040: a2 = u64 [sp + 0x198]\n 23044: a0 = u64 [sp + 0x188]\n 23048: a1 = u64 [sp + 0x180]\n 23052: a0 = a0 | a1\n 23055: a1 = 0xfffffffc\n 23065: a1 = a2 <u a1\n 23068: a3 = u64 [sp + 0x190]\n 23072: a1 = 0 if a3 != 0\n 23074: a1 = 0 if a0 != 0\n 23076: jump [t0]\n      : @927 (gas: 7)\n 23078: a1 = a2 | a4\n 23081: a1 = a1 | a0\n 23084: a1 = a1 >> 0x20\n 23087: a0 = a0 | a4\n 23090: a0 = a0 << 0x20\n 23093: a0 = a0 | a1\n 23096: jump [t0]\n      : @928 (gas: 11)\n 23098: a0 = a0 >> 0x20\n 23101: a0 = a0 | a2\n 23104: a1 = a1 >> 0x20\n 23107: u64 [sp + 0x140] = a0\n 23111: u64 [0x30018] = a0\n 23116: u64 [sp + 0x150] = a4\n 23120: u64 [0x30010] = a4\n 23125: u64 [sp + 0x138] = a1\n 23129: u32 [0x30020] = a1\n 23134: a0 = sp + 0x2118\n 23138: jump [t0]\n      : @929 (gas: 13)\n 23140: a2 = a2 + sp\n 23143: a2 = a2 << 0x20\n 23146: a3 = a2 | a1\n 23149: a1 = u64 [sp + 0x180]\n 23153: a1 = a1 << 0x20\n 23156: a1 = a1 >> 0x20\n 23159: a4 = u64 [sp + 0x160]\n 23163: a4 = a4 << 0x20\n 23166: a4 = a4 | a1\n 23169: a0 = a0 << 0x20\n 23172: a0 = a0 >> 0x20\n 23175: a1 = 0x2000\n 23179: jump [t0]\n      : @930 (gas: 12)\n 23181: a1 = a1 - a3\n 23184: a3 = a4 <u a5\n 23187: a1 = a1 - a3\n 23190: u64 [sp + 0x130] = a1\n 23194: a4 = a4 - a5\n 23197: u64 [sp + 0x128] = a4\n 23201: a0 = a0 - a2\n 23204: a0 = a0 - s1\n 23207: u64 [sp + 0x120] = a0\n 23211: a0 = t1 - t2\n 23214: u64 [sp + 0x170] = a0\n 23218: jump [t0]\n      : @931 (gas: 8)\n 23220: a1 = a1 << 0x20\n 23223: a1 = a1 >> 0x20\n 23226: a4 = u64 [sp + 0x170]\n 23230: a4 = a4 << 0x20\n 23233: a4 = a4 | a1\n 23236: a0 = a0 << 0x20\n 23239: a0 = a0 >> 0x20\n 23242: jump [t0]\n      : @932 (gas: 6)\n 23244: u64 [sp + 0x188] = a0\n 23248: u64 [sp + 0x190] = a1\n 23252: i32 a2 = 0x80 - s1\n 23256: a0 = 0x1\n 23259: a1 = 0\n 23261: jump [t0]\n      : @933 (gas: 11)\n 23263: a1 = a1 - a3\n 23266: a3 = a4 <u a5\n 23269: a1 = a1 - a3\n 23272: u64 [sp + 0x170] = a1\n 23276: a4 = a4 - a5\n 23279: u64 [sp + 0x168] = a4\n 23283: a0 = a0 - a2\n 23286: a0 = a0 - s1\n 23289: u64 [sp + 0x160] = a0\n 23293: s1 = t1 - t2\n 23296: jump [t0]\n      : @934 (gas: 7)\n 23298: a1 = a1 | a4\n 23301: a0 = a0 | a1\n 23304: a0 = a0 >> 0x20\n 23307: a1 = a1 | a3\n 23310: a1 = a1 << 0x20\n 23313: a0 = a0 | a1\n 23316: jump [t0]\n      : @935 (gas: 12)\n 23318: a2 = u64 [sp + 0xc8]\n 23322: a2 = a2 & a5\n 23325: a3 = u64 [sp + 0xc0]\n 23329: a3 = a3 & s1\n 23332: a4 = u64 [sp + 0xb8]\n 23336: a1 = a1 & a4\n 23339: a4 = u64 [sp + 0xb0]\n 23343: a0 = a0 & a4\n 23346: a0 = a0 | a3\n 23349: a1 = a1 | a2\n 23352: a0 = a0 | a1\n 23355: jump [t0]\n      : @936 (gas: 8)\n 23357: u64 [sp + 64] = 0\n 23360: u64 [sp + 56] = 0\n 23363: u64 [sp + 48] = 0\n 23366: a0 = 0x4e487b7100000000\n 23376: a1 = sp + 0x30\n 23379: u64 [sp + 0x48] = a0\n 23382: a0 = 0\n 23384: jump [t0]\n      : @937 (gas: 9)\n 23386: a1 = u64 [sp + 0x148]\n 23390: a0 = u64 [sp + 0x140]\n 23394: u64 [a1 + 0x8] = a0\n 23397: a0 = u64 [sp + 0x150]\n 23401: u64 [a1] = a0\n 23403: a0 = u64 [sp + 0x138]\n 23407: u32 [a1 + 0x10] = a0\n 23410: a0 = 0x2118\n 23414: jump [t0]\n      : @938 (gas: 9)\n 23416: a1 = u64 [sp + 0x158]\n 23420: a0 = u64 [sp + 0x148]\n 23424: u64 [a1 + 0x8] = a0\n 23427: a0 = u64 [sp + 0x150]\n 23431: u64 [a1] = a0\n 23433: a0 = u64 [sp + 0x140]\n 23437: u32 [a1 + 0x10] = a0\n 23440: a0 = 0x1918\n 23444: jump [t0]\n      : @939 (gas: 6)\n 23446: a0 = a2 <u 0x1\n 23449: a1 = a2 + 0xffffffffffffffff\n 23452: a1 = a1 <u 0x32\n 23455: a1 = a1 ^ 0x1\n 23458: a1 = a0 if a2 == 0\n 23461: jump [t0]\n      : @940 (gas: 8)\n 23463: a1 = u64 [a2 + 0xa8]\n 23467: u64 [sp + 0x198] = a1\n 23471: a1 = u64 [a2 + 0xa0]\n 23475: u64 [sp + 0x190] = a1\n 23479: a1 = u64 [a2 + 0x98]\n 23483: u64 [sp + 0x188] = a1\n 23487: s1 = u64 [a2 + 0x90]\n 23491: jump [t0]\n      : @941 (gas: 8)\n 23493: a1 = u64 [sp + 0x100]\n 23497: a1 = a1 >u 0\n 23499: a2 = u64 [sp + 0x48]\n 23502: a3 = u64 [sp + 0xf0]\n 23506: a2 = a2 <u a3\n 23509: a1 = a1 | a2\n 23512: a2 = -a1\n 23514: jump [t0]\n      : @942 (gas: 7)\n 23516: a2 = a2 + sp\n 23519: a2 = a2 << 0x20\n 23522: a3 = a2 | a1\n 23525: a1 = u64 [sp + 0x170]\n 23529: a1 = a1 << 0x20\n 23532: a1 = a1 >> 0x20\n 23535: jump [t0]\n      : @943 (gas: 2)\n 23537: a3 = a2 & 0x40\n 23540: jump @947 if a3 != 0\n      : @944 (gas: 1)\n 23543: jump @946 if a2 == 0\n      : @945 (gas: 6)\n 23546: i32 a3 = 0x40 - a2\n 23549: a3 = a1 << a3\n 23552: a1 = a1 >> a2\n 23555: a0 = a0 >> a2\n 23558: a0 = a0 | a3\n 23561: ret\n      : @946 (gas: 1)\n 23563: ret\n      : @947 (gas: 4)\n 23565: a0 = a2 + 0xffffffffffffffc0\n 23568: a0 = a1 >> a0\n 23571: a1 = 0\n 23573: ret\n      : @948 (gas: 2)\n 23575: a3 = a2 & 0x40\n 23578: jump @952 if a3 != 0\n      : @949 (gas: 1)\n 23581: jump @951 if a2 == 0\n      : @950 (gas: 6)\n 23584: i32 a3 = 0x40 - a2\n 23587: a3 = a0 >> a3\n 23590: a0 = a0 << a2\n 23593: a1 = a1 << a2\n 23596: a1 = a1 | a3\n 23599: ret\n      : @951 (gas: 1)\n 23601: ret\n      : @952 (gas: 4)\n 23603: a1 = a2 + 0xffffffffffffffc0\n 23606: a1 = a0 << a1\n 23609: a0 = 0\n 23611: ret\n","bytecode":{"object":"50564d0000ed6b000000000000010700c15000c000800304200000000480d50c000000000400000012000000200000002e0000003700000049000000560000006600000076000000810000009300000063616c6c63616c6c5f646174615f636f707963616c6c5f646174615f6c6f616463616c6c5f646174615f73697a65636f64655f73697a656765745f696d6d757461626c655f646174617265665f74696d655f6c65667472657475726e5f646174615f636f707972657475726e5f646174615f73697a657365616c5f72657475726e7365745f696d6d757461626c655f6461746176616c75655f7472616e73666572726564051302c038570463616c6cc04057066465706c6f7906c0df6a818a02c03d5c6a00b201cf02d402550360037a03bb03c60318042b0456046b04a80458056105af05d605ec05230628065c0667066c0676068e069e06df065a07cb07df073d0848084d0869087908a10831093a098b09b70a3a0b3f0bb60b1d0c220c480c5f0c6d0c1b0d9c0d2e0e330e380e4f0e8b0ef20e0e0f470f4c0fbd0ff90f05100b1032104a1059107c10ff100911211175118e11c811ce11441281128e129412bb12d312e212051387138d13ab13261486144315ae15b615dd15fd150d164d16b4162118e7189d19e71ad31b101c2e1c741cd81c891dec1d311e511e611e091fb41f0020432093219d21db211b2244229122fd220a2310232d233e2367237123cf2339244a2463249f24a52409256b2571259525b325c525f125fb2573269526fa2605277b278527cf27f72712285228582891289e28a428af28cc28dd2824299c290a2a1f2a3c2a762a7c2adc2a192b262b2c2b502b6e2b7d2baa2bc42b242c2e2c422c732c902cca2cd02c302d6d2d7a2d802dda2de92d162e302e922e9c2eba2e8e2f942f9a2fa02fb82fbe2fc42fca2fd42fe52f44304a30af3018311e3145315d316c318f3100326e32c6322233ca33373441346834843494349e34b534ff34383565356b3582358835c935e9354b3674367a3691369736c136cf36dc36e236f936ff362e3767376d3784378a37b637e737ed3704380a3836386338693880388638b238df38e538fc380239323967396d3984398a39ed39f3390d3a3a3a963a9c3afc3a633b693bc13bd03bfd3b063c593c633c7f3c4d3d533d593d5f3d773d7d3d833d893d933da43dfd3d7e3ee73eed3e143f2a3f393fdd3f4a40a0400441a84115421f424642604270427a429442d842114323433043364349434f437b43ac43b243c543cb43fb432c44324445444b447744a044a644b944bf44ea447b458d459a45a045b345b945e5453c4669466f4682468846b446e146e746fa4600472b475a47604773477947c747f047f64707480d48b3482e497749e249804a384c074ece4ee94eef4e084f2c4f6b4fb14f6f50cb503e519d519252f0523c53c2533454985445559155f555f156f7561057405749579511e87b10107b15087b163306000002390500000251051c3307300003837783680a050139070000022003000002ac57108210108215088216951118320000390800000251080904330730000383770a0a28fc039511f07b10087b156489647533082064975010021b027c78017c797c7a027c7b03978808d4980897aa1097bb18d4ba0ad4a8087c79057c7a047c7b067c7c07979908d4a90997bb1097cc18d4cb0bd4b909979920d489027c79097c7a087c7b0a7c7c0b979908d4a90997bb1097cc18d4cb0bd4b9097c7a0d7c7b0c7c7c0e7c780f97aa08d4ba0a97cc10978818d4c808d4a808978820d498037c78117c7a107c7b127c7c13978808d4a80897bb1097cc18d4cb0bd4b8087c7a157c7b147c7c167c791797aa08d4ba0a97cc10979918d4c909d4a909979920d4890a7c78197c79187c7b1a7c7c1b978808d4980897bb1097cc18d4cb0bd4b8087c791d7c7b1c7c7c1e7c771f979908d4b90997cc10977718d4c707d49707977720d487076f776fa86f396f2a7b5a187b59107b58087b57821008821595111032009511d87b10207b15187b161082897b19088289087b19828510828618330820501004d3006f686f59821a6faa821b086fbb787b18787a10787908787898bc38787c1f98bc30787c1e98bc28787c1d98bc20787c1c98bc18787c1b98bc10787c1a98bb08787b1998ab38787b1798ab30787b1698ab28787b1598ab20787b1498ab18787b1398ab10787b1298aa08787a11989a38787a0f989a30787a0e989a28787a0d989a20787a0c989a18787a0b989a10787a0a98990878790998893878790798893078790698892878790598892078790498891878790398891078790298880878780182102082151882161095112832008b7910520931c8780883881f8488e05638000001253309080002390a080002ae8a093d080800020133081000028377c887073200009511f07b10087b158475010a03013d07040002510507501006095010089c01951120ff7b10d8007b15d0007b16c8009515e0008411e04921b8004921b0004921a8004921a0008317a0000a0b018217b0008218b8008219a800821aa000d49808d4a707d487075207d000390604000297672098772095771f8477e09578a000d878077b1880007b17880094777b179000330740951880004921980050100a3efe3307a000646850100c25ff8377646833090a010154161f8e009517603308a00050100edffc82177082197814080000000001000000d37808d49808987a2088aa01949a938a510a69821868821a607b1a407b18487b1750330780009518407b1958501010d8fd95172033084050101293fc821738821830821928821620d49707d48609d47909989920d48707977720d497075107280033081000028388330701286e330810000283883307012862330810000283883307012856646733085010146dfe8377330833090a016417330880005010162efc821718821910821a08821b3e074800033e094000033e0a3800033e0b30000328f5fb646733085010182ffe83783307330933001a0a09280a330933001a0a0901951110fe7b10e8017b15e0017b16d8019515f0019511d0d98411e0951618194926a004492698044926880480003307409518a01d4926900450101cebfc33070400027b17980139070400025517040728bf43951700208377c0fd33080a02018167c4045247c0e16e830a283e2152479849db850a2815125247ce3c12450a285b1a51472dc64b490a281c229516182149064916f84916f04916e895170020837700010a0b01956b00ff82b7f800826882b9f00082bae800d49808d4a707d48707510706285543821798018077951610114926c8004926c0007b67b0009517e0119518c0114926b80050101e6845806910015012203a567b19c800da97085108062822438267e8007b1700018267e0007b1718018267d8007b1710018267d0007b170801826708017b1728826700017b17208267f8007b17188267f0007b171050102256fa3a084000037b1870013a083800037b1868013a073000037b1778019517801133084050102483fa826c8800826b8000826a78826770d4ca09501226b953510806283d4264694916604916584916501406000000004a45080e951860117b96687b1798017b1a90017b1b88017b1c800150102870fb50122add5352080628014282171801977720987820839704951a1011491a48821908017ba9307ba84095184011821910017ba93850102c37fb33002e0a06330230281c5350123019533306100003501232c95349172049171849171049170833082482179801501034f7fb7b17780133082082179801501036e7fb95181821481828204918604918584918504918487b164801976820988920140800000000180000007b1970d4890695182021978820988820330960215012381a5183884001c81808978820d4780c3308ff3309ff7b16f00064670a0151070628412f0a0801330920ae97080a0864790133068218980182129001821b8801821c80017b197801951aff0795aa11017ba9d0077ba8f007492ad8077ba2f807492ae007951910117b9b492ae807951700119518e0107b9c0850103ab2468212980182187801c82807d88708821390016439c88909859a889bdaa80b821c880164c8c88b0bd88b048888821a800164a6c868089516ff0795661101c884047b6b80077b6978077b6770077b6aa8077b6ca0077b6398077b6290079517c0109518a010951980107b64880750103ceb478267b0077b1790019517601033084050103e7af895680007828968828a60828b58828750d49b0cd4a708d4c808988820d4ac0c97cc20d4c8085108062825407b1b78017b1a80017b19880149264007492638074926300714090000000086e72a22951840107b6948077b17980150104056f93300420a06330244282b4f501244284f4926a000492698004926900049268800330804821798015010461cfa7b177001330820821798015010480cfa4826a800204926e0004926d8004926d0004926c8009518a0219788209888203309e02150124a405314090000000004000000d4980b9777209877209518c021978820d4780c3308ff3309ff8217f0000a0151070628dc2e0a0801330820ae87080a086478013306821a8001821b7801821c98017b1870019519ff0795991101959700067b78d0007b7cf0004929d8067b7bf8004929e0067b9a00074929e806951700109518ff079588e107821a88017b9a080750104cdb448218700150124e5c4e5209062866411406ffffffff000000009519ff079599110182179801959b00067bb79000821778017bb79800821780017bb7a0009517ff079577c1079518ff079588a107821a88017bbaa800501050a64564694921d000330a9517202297772098772095186022978820d487077b1738951740229777207b17309517a0229777209877209518e022978820d487077b17a8009517c0229777207b17a0009517202397772098772095186023978820d487077b179000951740239777207b1788009517a0239777209877209518e023978820d487077b17603308019517c0239777207b175882179001d267077b1748140700000000346662997b174014070000000054ec9b317b17b0001407000000001515c5397b179800140700000000628718687b1768491150fc089517ff07957711018277b0067b17b8007b16c00001330b93ab7b188000821748d887064921300194a6491178330a7b1b580149212801dbab068217d000d297077b1778019517ff0795778107330840501052a2f5821c78019517ff07957711019578000682898800828b8000828a70828778d4ba087b1990017b178801d49707510606284e3a8219c800ac9c0628443ad47808988820d4b707977720d487077b1b800151070628233d9516ff07956611014926400649263806492630069518ff07958841078217407b67480664a77b1a980150105459f6501256234e821b9001c8b808821b78956c00057bcbc8007bcbc0007bcbb800821b80007bcbb000821b00017bcbe800821b18017bcbe000821b10017bcbd8007bc9f8007bc7f0007b6a00067b6808069517ff07957721079518ff07958801079519ff079599e106951aff0795aac106821b08017bcbd0005010581148826718068264280682621006826a200682198801d3970bd8970c649382199801d89206dab60c82188001c98a0bd88a0a82189001c98408c9a808d8cb0ac9a8087b187001c9cb0b7b1b6801c93707c967077b176001c992077b17780133005a0a0633025c28564b50125c534b492620014926180149261001821778016479821a6801d4a70782187001821b600150125ebf4e4926080151070628dd3b821698016467649850106026f67b177001330860646750106218f69519182148292801604929600149295801492950014929480182187001978820988820821b780197bb20d48b0b977720987720821c30d47c0c3308ff3309ff8217f000821a380a0151070628b2380a0801330860ae87080a0864780182199801821a80017b187801951bff0795bb110195b600057b68507b6970492b5805821788017b6778492b60057b6a8000492b68059517ff07957781069518ff0795886106821c90017b6c8800501064f1408212980182187801c82807d88708821388016439c88909859a889bdaa80b821c800164c8c88b0bd88b048888821a900164a6c868089516ff0795661101c88404956800047b8bc0007b89b8007b87b0007b8ae8007b8ce0007b63d8047b62d0049517ff07957701069518ff079588e1059519ff079599c1057b64c8045010663744826210058427ff51073d09956c000582c84882c94082ca3082cb38d4a909d4b808d49808520820098213800088380001858b0182187882193001db890b826a18058218580182192801db980b7b1b9801826c2805826b2005821910d89707821818db780a7b1a6801db79027b127801821820db780b7b1b6001821828db780c7b1c580164368339803307013308501068ee4d50126a9e4c50106cbe4d7b1730017b18700183697b1980013307330850106ecd4d82193001d479096467886b80007b1b3001821a8801daba0993697b19f80082167001d4860682189001dab8069376330701330882198001501070914d821a780182193001939793988219980194967b16e800821bf800949b7b1bf80094987b18d80094977b17e0008219c0000184a7ff8218b800ae8722088217d000d297079516ff07956611018218c800ae870b087b1a78019517ff079577a10533084050107267f195670004827aa800827ba000827c980082799000d4ac075012741d4b510706281b394926800449267804492670049518ff07958881058217b0007b67880464977b1998017b1a90017b1b88017b1c80015010764cf250127873497b6b0804821b60017b6b0004821b68017b6bf803821b78017b6bf003821b00017b6b2804821b18017b6b2004821b10017b6b18047b6938047b6730047b6a40047b6848049517ff07957761059518ff07958841059519ff0795992105951aff0795aa0105821b08017b6b100450107a1341826758048262680482635004826a6004821b8001d3b708d8b70c64b982149801d84306da860c82188801c98a0bd88a0a82189001c9820850127c994a33007e0a0633028000286e47502280006b474926a0014926980149269001821770016479821b2801d4b70782183001821c200150228200c0494926880151070628f3378216980164676498502084003cf27b1730013308206467502086002df2951918214829a801204929e0014929d8014929d0014929c80182183001502288003e4a821ca000d47c0c3308ff3309ff8217f000821aa8000a01510706288b280a0801330a20aea7080a08647a013306821998018212900182188801821b80017b1a9001951cff0795cc110195c700037b7a90007b79b000492c98037b7bb800492ca0037b78c000492ca8039517ff079577c1049518ff079588a1047bc2c80350208a000e3d8218900150228c008e465209062821379517ff07957781048218980150208e0039ef9516ff0795661101956b000382b77882b8880082b9800082ba70821bd800d2b707821be800d2b808821bf800d2b909821be000d2ba0ad4a909d48707d4970751078b029517ff079577610433084050209000e5ee95670003827a68827b60827c58827950d4ac07502292009e48510706289b364926400349263803492630039518ff0795884104821798007b67480364977b1998017b1a90017b1b88017b1c800150209400ccef50229600f246956c00027bcbc800821b60017bcbc000821b68017bcbb800821b78017bcbb000821b00017bcbe800821b18017bcbe000821b10017bcbd8007bc9f8007bc7f0007b6a00037b6808039517ff07957721049518ff07958801049519ff079599e103951aff0795aac103821b08017bcbd000502098008d3e826718038262280382631003826a2003821b8001d3b708d8b70c64b982149801d84306da860c82188801c98a0bd88a0a82189001c9820850229a00124833009c000a0633029e0028e54450229e00e244492620024926180249261002821770016479821b2801d4b70782183001821c20015022a000374749260802510706286a3582169801646764985020a200b3ef7b17300133082064675020a400a4ef95191821482928022049296002492958024929500249294802821830015022a600b547821c8800d47c0c3308ff3309ff8217f000821a90000a0151070628e12f0a080156171f0c0a08647a330628083306330a2001821998018212900182188801821b80017b1a9001951cff0795cc110195c700027b7a507b79704917587b7b784917607b7880004917689517ff07957781039518ff07958861037bc288025020a800863a5022aa004d46d46606da680952090628a0349517ff0795774103821898015020ac00afec9516ff0795661101956b000282b73882b84882b94082ba30821bd800d2b707821be800d2b808821bf800d2b909821be000d2ba0ad4a909d48707d4970751070a8219c00028d80282175001821848017b87821740017b8708821738017a871083870a0401520706284d349517ff07957721033308405020ae0034ec95670002827928827a20827b18827810d49b077b189801d4a808d47808988820d4a707977720d4870751070628da33492600024926f8014926f0019518ff07958801038217687b670802821798017b1990017b1a88017b1b80015020b0000eed82189801958704d88709821a8001c89a08d8a80ada990a82198801c89a0ad89a09821b9001c8b909821b58017b6b8801821b60017b6b8001821b787b6b68017b6b60017b6b5801821b80007b6b5001821b68017b6b7801821b78017b6b7001821b00017b6ba801821b18017b6ba001821b10017b6b98017b68b8017b67b0017b6ac0017b69c8019517ff079577e1029518ff079588c1029519ff079599a102951aff0795aa8102951bff0795bb6102821c08017b6c90015020b2008a3f8267d8018262e8018263d001826ae001821b8001d3b708d8b70c64b982149801d84306da860c82188801c98a0bd88a0a82189001c98208c9a808d8cb0ac9a8087b186801c9cb0b7b1b6001c99707c967077b175801c943077b1770013300b4000a06647a3302b60028c541647a5022b600c0414926a0024926980249269002821770016479821b6001d4b70782186801821c58015022b800154449268802510706284832649883977b176001821798017b1a58015020ba0089ec7b1768018217980133085020bc0079ec4826a802821860018e88821950821a5801d8a909d498089a89956a00027ba9e0007ba9d8007ba9d0007ba9c800978823821a70d48a0a821868015022be006d44821c58d47c0c3308ff3309ff64a7821a600a0151070628872d9519ff079599110149290801492900014929f8004929f00082179801959b00017bb710821780017bb718821788017bb7209517ff07957721029518ff0795880102821a90017bba285020c00059378217d0009577018219c000d297077b17d0000149216801492160014921580182177801957701847aff28dff78219c00001330a82178000957701d297082887f3951618214926e0054926d8054926d0054926c805951700208377e0060a0b01956b000582b7d80082b8e00082b9d00082bac800d49808d4a707d4870751070628a3318217980181775617630728a03195170020837700073308040a0201951718218278f8058279000614070000000001000000d38707d497077b1890009888208888017b1988009498937895161819520806286431951818218287f0057b1780008287e8057b177895170020837720073308240a020195191821959a000682a72082a81882a910d4780a889b0194ab520b06282e31951a182182aa0806821b980180b295ac04d8ac0ac8a90bd89b09daaa09c88909d88908c8870a4926200449261804492610047b6208047b6c28047b6b30047b6938049517601d9518401d9519201d7b6a40045020c2001d34956800048287607b17d8008287587b17d0008287507b17c8008287487b17c000828780007b1740018287787b1770018287707b1738018287687b17780195170020837740073308440a020195191821959a000682a74082a83882a930d4780a889b0194ab520b06287630951a182182aa2806821b980180b295ac04d8ac0ac8a90bd89b09daaa09c88909d88908c8870a4926a00349269803492690037b6288037b6ca803956c00037bcbb0007bc9b8009517e01c9518c01c9519a01c7bcac0005020c40057338216780188670182103801c97004d40608888801821b7001d88b0982174001c99709c98b089562ff8e8a8e9cda9a0c8e43882a3285aa01db430ad49808db8c0a95121819510a0628da2f647c64b86467952b000382b9e80082b6f8008223000482baf000d39707d36808d48707d3a008d33c09d49808d4870751070628ee2f952800038287e0007b17b8008287d8007b17b0008287d0007b17a8008287c8007b17a0001407ffffffff000000007b17405020c60069e63a083800034911483300330c330333023a093000033a074000036f88988a206f99979b20d4ba0a7b1a30019788206f77987720d487077b1728019899207b19200133091000039517a0279777209877209518e027978820d487077b17687b1918019797209877207b17609517c0279777207b17581407000000006eeb149c7b1770491150fc0895170020837760077b17980001821640018219380182177801d87007d39c086494d89c09da870982177001d873087b189801d36208d8620a821b9801da8b0ad37307d48707da790a520a06286e1b95171819646864767b1068017b708802821778017b67a8028217c0007b67c8027b1c60017b6c90027b64b0028217c8007b67d0027b1350017b639802821770017b67b8028217d0007b67d8027b1258017b62a0027b68c0029517001c9518e01b9519c01b951aa01b821bd8007b6be0025020c800453b82670003956b000282b9f80082baf00082b8e800d4a707d4980ad47a0a98aa20d49707977720d4a70751070628192d8388821798000a0201951c182195c70006827b60827a588279508eb78ea8dbb7087b1a10017b1b0801d4ba077b1948018e99db7809510906284a2c82c748067b17000195161819821768017b670802821778017b6728028217a0007b674802821760017b671002821738017b6730028217a8007b675002821750017b671802821770017b6738028217b0007b675802821758017b672002821740017b6740029517801b9518601b9519401b951a201b821bb8007b6b60025020ca00593a956b000282b7800082b97882ba7082b868d4a707d4980ad47a0a98aa20d49707977720d4a70751070628302c838895170020837780073300cc000a02019517182195780006828c8000828b78828a70828968d4ca075022ce00fe3d51070628702b7b1ce0007b1be8007b1af0007b19f80082172801821818017b87821730017b8708821720017a871083870a040152070628462b9517001b3308405020d000e6e3951618198269000295670001827af800827bf0008278e800d49b077b189801d4a808d47808988820d4a707977720d4870751070628842b4926d8014926d0014926c8019518e01a8217707b67e001821798017b1990017b1a88017b1b80015020d200bce482189801958704d88708821a8001c88a09d8a90ada880a82188801c88a0ad88a08821b9001c8b808821be0007b6b4001821be8007b6b3801821bf0007b6b3001821bf8007b6b2801821b08017b6b6001821b10017b6b5801821b48017b6b5001821b00017b6b4801821b88007b6b8001821b90007b6b7801821b80007b6b70017b6990017b6788017b6a98017b68a0019517c01a9518a01a9519801a951a601a951b401a821c787b6c68015020d40044378267b0018262c0018263a801826ab801821b8001d3b708d8b70c64b982149801d84306da860c82188801c98a0bd88a0a82189001c98208c9a808d8cb0ac9a8087b181001c9cb0b7b1b0801c99707c967077b170001c943077b1748013300d6000a0601647a82173001821818017b8708821728017b87821720017a8710951618214926a0064926980649269006821748016479821b0801d4b70782181001821c00015022d800c13b4926880651070628f429649883977b170801821798017b1a00015020da0035e47b1710018217980133085020dc0025e44826a806821808018e88821950821a0001d8a909d498089a89956a00067ba9e0007ba9d8007ba9d0007ba9c800978823821a60d48a0a82181001978820988820821b480197bb20d48b0b977720987720821c58d47c0c3308ff3309ff64a7821a680a0152075595191819492900014929f8004929f0004929e80082179801959b00017bb708821780017bb710821788017bb7189517201a9518001a821a90017bba205020de00042f821748957701821840d287077b17480182106801950001880701821c6001c87c0cd4c00788770182185001c87803d8830882125801c8820228effa4926e0044926d8044926d0044926c804951700208377e0fd0a0b01956b000482b7d80082b8e00082b9d00082bac800d49808d4a707d4870751070628192a8217980180779516ff079566110149268800492680007b67709517ff079577a1019518ff07958881014916785020e0000d2b8267a8007b17d0008267a0007b17e800826798007b17e000826790007b17d8008267c8007b1780008267c0007b17788267b8007b17708267b0007b1788008267d0007b1780015020e20006e03a083000037b1898013a084000037b1890013a073800037b17880114070000000086e72a227b6768491660491658330780009518ff07958861014916505020e40051e10a0601821788016f77977820821990016f99989920d4890a987720821898016f88330b100003978920d497079888207b1748013e07180003330c0800027b1a50013e0a1000037b1b58017b1840013d08200003951918194929000539070800024929f8044929f0044929e80456279f000d2003080002a000017b1c980148290805204929400549293805492930054929280582175801977720987820140700000000180000007b1868d487079518001e978820988a2033061000029518401e978820d48a0a95688000978820988c2014080000000004000000d48c0b9518201e978820d48c0c3308ff3309ff7b17a8000a0151070628ef137b16400a0801330820ae87080a0864780133067b189001951700107b7800f99519ff0795991101491928491920491918491910800095170010492708f949099517ff07957721019518ff07958801014919085020e6007a2c821890015022e800fa3552090628fd28951700104927d8f8951700104927d0f8951800104928c0f880009517ff079577e1009518ff079588c100951900104929c8f85020ea00572d951700108277e0f882188800ac7806282128821780019777209878209587ff88773293877b1838019387520706283e289517ff079577613308405020ec003fde95170010827c78f895170010827b70f895170010827a68f895170010827760f8d4ca095022ee00623751080628e52595180010492850f895180010492848f895180010492840f81409000000004a45080e9518ff07958841951200107b2958f87b1798017b1a90017b1b88017b1c80015020f00003df821698018217880182188001d487071408fcffffff00000000d8860882199001949894785208062874258217e80097772098782083670495190010492938f88219d800951a00107ba920f8951900107b9830f89518ff079588218219e000951a00107ba928f85020f20097de3300f4000a063302f6002856355022f600533549268005492678054926700549266805330824821798015020f80059df7b177801330820821798015020fa0048df48268805204926c0054926b8054926b0054926a8059518801e9788209888203309c01e5022fc0093348388a0fe5022fe00dd350a0151070628a8130a0801330820ae87080a08647801330682199801821a900182178801821c80017b187801951b00077bb8c0007bb9e000492bc8007bbae800492bd0007bb7f000492bd8009517e0079518c0077bbcf800502000013e2a8212980182187801c82807d88708821390016439c88909859a889bdaa80b821c880164c8c88b0bd88b048888821a800164a6c86808c88404951600077b6b707b69687b67607b6a98007b6c90007b6388007b6280009517a00795188007951960077b6478502002017e2b8216a007951740073308405020040110dc95180007828a58828b50828c48828740d4ac0950220601433551080628c6237b1610019516000749163049162849162014090000000054ec9b31951820077b69387b1798017b1a90017b1b880164c650200801f5dc50220a014934951c00067bc8b8008218787bc8b0008218707bc8a800821888007bc8a0008218d0007bc8d8008218e8007bc8d0008218e0007bc8c8008218d8007bc8c0007bc9e8007bc7e0007bcaf000951700079518e0069519c006951aa0067bcbf80050200c01c82b951800078287088284188282828a10d3670bd8670c82139801d83209dab90c82188801c98a0bd88a0a82189001c98408c9a808d8cb0ac9a8087b188001c9cb0b7b1b78017b166801c96707c997077b177001c9320633000e010a0633021001281036502210010d36c87109492900064929f8054929f005821b7801d4b60782188001821c7001502212015d344929e805510706289022646a82169801646764a87b1a600150201401d3dc7b178001330820646733062050201601c1dc951818197a860806492840064928380649283006492828069518001f9788209888203309401f502218017934838820ff50221a0153330a0151070628a5120a0801ac670628a0130a083306289f13951618214926c0054926b8054926b0054926a805951700208377c0060a0b01956b000582b7b80082b8c00082b9b00082baa800d49808d4a707d4870751070628502382179801817795161819561703072849239517e01933084050201c01e7d98267e0007b1798018267d8007b1790018267d0007b1788018266c80050201e0171d98217980182188801d4870782199001d49608d47808988820d49707977720d48707510706287321646a3a093000033a083800033807400003951b1819492bc0007bb7b8007bb8b0009518c0197bb9a80064a664a73300200128a1da64a664a7502020019ada33082064675020220181db837833092033070a0901514785d296610a286321951618214926200349261803492610034926080395170020837720040a0b01956b000382b71882b82082b91082ba08d49808d4a707d48707510706286222821798018077951618194916404916387b67289517601995184019491630502024014623806988005022260117347b195801da97085108062831228267607b17d0008267587b17e8008267507b17e0008267487b17d800826780007b1788008267787b1780008267707b17788267687b17705020280137d83a084000037b1870013a083800037b1868013a073000037b1778019517001933084050202a0163d8826c956700ff827bf800827af0008279e800d4ca0750222c011a32510706281720951610114926e0074926d8074926d0071407000000004a45080e9518e0187b67e80764977b1998017b1a90017b1b88017b1c800150202e0142d950223001ae3152080628d11f8217e8009777209878208397044926c8078219d800956a00077ba9b0007ba8c0009518c0188219e0007ba9b8005020320103d9330034010a063302360128e53050223601e2303306100003502238019131492740034927380349273003492728033308248217980150203a01bad97b1778013308208217980150203c01a9d9951818214828480320492880034928780349287003492868037b164801976820988920140800000000180000007b1968d48906951840249788209888203309802450223e01d62e83886004c81808978820d4780c3308ff3309ff7b16a80064670a0151070628720d0a0801330820ae87080a0864780182199801821a9001821b8801821c80017b18780195171011957600077b68507b6970492758077b6a78492760077b6b800049276807647295178018951860187b2c88075020400171248212980182187801c82807d88708821390016439c88909859a889bdaa80b821c880164c8c88b0bd88b048888821a800164a6c8680895161011c884047b6b00077b69f8067b67f0067b6a28077b6c20077b6318077b6210079517401895182018951900187b64080750204201ad25826730077b1778019517e017330840502044013bd695680006828ae800828be000828cd8008287d000d4ac09502246016a2f51080628ed1d4926c0064926b8064926b00614090000000054ec9b319518c0177b69c8067b1798017b1a90017b1b88017b1c8001502048011ed750224a01162e7b6b4806821b80007b6b4006821b787b6b3806821b707b6b3006821bd0007b6b6806821be8007b6b6006821be0007b6b58067b6978067b6770067b6a80067b6888069517a0179518801795196017951a4017821bd8007b6b500650204c01f525826798068262a80682639006826aa006821b8001d3b708d8b70c64b982149801d84306da860c82188801c98a0bd88a0a82189001c9820850224e01cc2f330050010a0633025201283730502252013430c871094929c0034929b8034929b003821b6801d4b60782187001821c600150225401a22e4929a80351070628d51c646a82169801646764a87b1a30015020560118d77b17700133082064675020580109d7951818214828c80320492800044928f8034928f0034928e8039518c0249788209888203309002550225a013830821b300197bb20d48b0b9777209877203308e02450225c018a2d0a015207630c0a080195161011330b20aeb7080a08647b0182199801821a900182178801821880017b1b9001956c00057bcbd0007bc9f0004926d8057bc8f8004926e0057b6700064926e805951700179518e0167b6a0806330650205e01e92182189001502260017a2b520906287a1e9517c016821898015020620118d4951610118267c8057b1730018267c0057b1728018267b8057b1720018267b0057b1718019517a01633084050206401e7d395680005828aa800828ba000828c980082879000d4ac0950226601162d51080628991b4926800549267805492670051409000000001515c539951880167b6988057b1798017b1a90017b1b88017b1c800150206801cad450226a01c22b7b6b0805821b80007b6b0005821b787b6bf804821b707b6bf004821bd0007b6b2805821be8007b6b2005821be0007b6b18057b6938057b6730057b6a40057b684805951760169518401695192016951a0016821bd8007b6b100550206c01a123826758058262680582635005826a6005821b8001d3b708d8b70c64b982149801d84306da860c82188801c98a0bd88a0a82189001c9820850226e01782d330070010a063302720128e32d50227201e02dc8170749274004951718214927380495171821492730046469821b6801d4b60782187001821a6001d4a80895161821d48707987720d4b808978820d487074926280451070628671a82169801646764987b19100150207401acd47b1770013308206467502076019dd495181821482848042049288004492878044928700449286804951840259788209888203309802550227801cc2d821b100197bb20d48b0b9777209877203308602550227a011e2b0a015107062839150a080195161011330b20aeb7080a08647b0182199801821a900182178801821880017b1b9001956c00047bcb90007bc9b000492698047bc8b8004926a0047bc7c0004926a8049517c0159518a0157bcac800330650207c017b1f8218900150227e010c2952090628141c1406ffffffff00000000951780158218980150208001a0d1330c01646249216001330b95191011959a000482a788007b17c80082a780007b17c00082177801d267077b1710019517c02597772098772095180026978820d487077b1798009517e0259777207b1790009517402697772098772095188026978820d487077b1758951760269777207b1750140700000000346662997b17a000140700000000628718687b176082a7787b17b80082a7707b17b000491148fc087b16080101330793b782181001d8c80a94ba3309db970a82166001d22606510a06286215821a5801aca606285815502282012c2a50208401892c50228601382b50208801572c7b1770017b18780183697b1980013307330850208a01652c50228c01682850208e01592c50229001ef275109490550229201482b52073f05951720153308405020940175d095161011956b000482b82882ba2082b71882b9107b1788017b187801d48707d4a908d478089888207b1a8001d4a707977720d48707510706280f18492600044926f8034926f003951800158217a0007b67080464977b1998015020960150d1502298011929821b7801c8b808821b68017b6b88037b6b80037b6b7803821b90017b6b7003821bd0007b6ba803821be8007b6ba003821be0007b6b98037b69b8037b67b0037b6ac0037b68c8039517e0149518c0149519a014951a8014821bd8007b6b900350209a0119238267d8038264e8038262d003826ae00382198801d3970bd8970c649382199801d89206dab60c82188001c98a0bd88a0a82187801c98408c9a808d8cb0ac9a8087b180001c9cb0b7b1bf800c93707c967077b17f000c992077b17700133009c010a0633029e01285b2650229e0158264926c0044926b8044926b004821770016479821af800d4a70782180001821bf0005022a001c3294926a80451070628e01682169801646764985020a20129d17b17000133086064675020a4011ad1951918214829c80460492900054929f8044929f0044929e804821800015022a6012b29821c9000d47c0c3308ff3309ff8217a800821a98000a015107062886140a0801330c60aec7080a08647c0182129801821a880182188001821b78017b1c700195191011959600037b6c107b923003492918037b6a38492920037b68404929280395174014951820147b6b485020a8010d1c8212980182187001c82807d88708821388016439c88909859a889bdaa80b821c800164c8c88b0bd88b048888821a780164a6c8680895161011c884047b6b80027b6978027b6770027b6aa8027b6ca0027b6398027b6290029517c0139518a013951980137b6488025020aa01661f8267d0028477ff51079e0282670803826800038269f002826af802d49808d4a707d487075207810282175001821848017b87821740017b8708821738017a871083870a040152070628b315951760133308405020ac0194cd956b000282b96882ba6082b75882b8507b1778017b198801d497077b189801d4a808d478089888207b1a8001d4a707977720d48707510706282e15492640024926380249263002951840138217607b674802821798015020ae0172ce82189801958704d88708821a7801c88a09d8a90ada880a82188001c88a0ad88a08821b8801c8b808821b68017b6ba8017b6ba0017b6b9801821b90017b6b9001821b88007b6bc801821b80007b6bc001821b787b6bb801821b707b6bb001821bd0007b6be801821be8007b6be001821be0007b6bd8017b69f8017b67f0017b6a00027b68080295172013951800139519e012951ac012951ba012821cd8007b6cd0015020b0010321826718028264280282621002826a200282197801d3970bd8970c649382199801d89206dab60c82188001c98a0bd88a0a82188801c98408c9a808d8cb0ac9a8087b186801c9cb0b7b1b0001c93707c967077b17f800c992077b1770013300b2010a067b17f0003302b401283c237b17f0005022b4013523492640054926380549263005821770016479821a0001d4a70782186801821bf8005022b601a0264926280551070628bd13649883977b170001821798015020b80102ce7b1768018217980133085020ba01f2cd482648055022bc012d27956a00057ba980007ba9787ba9707ba9685022be0163240a01510706286412951910114929480149294001492938014929300182179801959b00017bb750821778017bb758821780017bb7609517601295184012821a88017bba685020c0010e198217600195770182120801d227077b17600128078212080101330b82179001957701d2270c283bfa9517ff07957741013308405020c20122cb9517ff07957711018278487b1898018278407b1890018278387b1888018276303300c4010a083302c60128e7215022c601e42151080628be12647698772051070628b3125022c80102235020ca01fecc951818197a8648056486837795180020838860fe33090a07816748050182189001ae87062880120a080164769877205107062872128217980164685020cc01bdcc837883693307010a093308100002838828d9119517401c3308405020ce0171ca951a181995ab000382b74082b83882b93082b628d49707d48609d47909989920d48707977720d49707510706281712821740821848d28707492a2003492a18037ba708039518201c492a10036467330020012853cb951720113308405020d0010fca951710118278287b1898018278207b1890018278187b1888018276103300d2010a083302d40128d8205022d401d52051080628af11647698772051070628a4115022d601f3215020d801efcb951818217a866864868377951800208388800133090a0781676828f4fe9517a0183308405020da0199c995171011957900075022dc01de243300de010a083302e0012870205022e0016d205108062847116476987720510706283c115022e2018b215020e40187cb951818217a86880364868377951800208388a00433090a0781678803288afe9517ff079577013308405020e6012cc995170010827718f87b17980195170010827710f87b17900195170010827708f87b17880195170010827600f83300e8010a083302ea0128e51f5022ea01e21f51080628bc10647698772051070628b1105022ec0100215020ee01fcca951818197a86c80564868377951800208388e0fe33090a078167c80528fffd951720103308405020f001a4c89517ff0795771101957900078298287b1898018298207b1890018298187b1888018296103300f2010a083302f40128651f5022f401621f510806283c1064769877205107062831105022f60180205020f8017cca951818217a86e80064868377951800208388000233090a078167e800287ffd951720173308405020fa0124c895171011957900068298287b1898018298207b1890018298187b1888018296103300fc010a083302fe0128e91e5022fe01e61e51080628c00f647698772051070628b50f5022000204205020020200ca951818217a86080464868377951800208388200533090a07816708042803fd9517800633084050200402a8c795180006828798007b179801828790007b179001828788007b17880182868000330006020a0833020802286d1e502208026a1e51080628440f647698772051070628390f50220a02881f50200c0284c9951818197a8648066486837795180020838860ff33090a07816748062887fc9517ff079577e10433084050200e0228c79517ff0795771101957900038298e8007b1898018298e0007b1890018298d8007b1888018296d000330010020a083302120228e51d50221202e21d51080628bc0e647698772051070628b10e50221402001f50201602fcc8951818217a86e80164868377951800208388000333090a078167e80128fffb330633072001821c980182199001821b8801821868017b179001951a00067ba7407bac60491a487ba868491a507bab70491a5895176006951840067ba97850201802201450221a02e71fd46607da780952090628a110951720068218980150201c024dc6951800068287387b1730018287307b1728018287287b1720018287207b1718019517000633084050201e0220c695180006828918828a108286088287d4960bd4a708d4b808988820d4ab0b97bb20d4b8085208ce0d951c0005492cf000492ce800492ce000140b000000001515c5399518e0057bcbf8007b1990017b1a88017b17980150202002fec650222202521e951c00057bc8788218787bc8708218707bc868821888007bc8608218d0007bc898008218e8007bc890008218e0007bc888008218d8007bc880007bc9a8007bc7a0007bcab0009517c0059518a00595198005951a60057bcbb80050202402d515951800058287c8008283d8008282c000828ad000d3670bd8670c82199801d89204dab40c82188801c98a0bd88a0a82189001c98308c9a808d8cb0ac9a8087b188001c9cb0b7b1b78017b166801c96707c947077b177001c99206330026020a0633022802281820502228021520c8170749278006951718194927780695171819492770066469821b7801d4b60782188001821a7001d4a80895161819d48707987720d4b808978820d48707492668065207810c82169801646764987b19600150202a02c5c67b178001330820646750202c02b6c69518181948288806204928c0064928b8064928b0064928a8069518801f9788209888203309c01f50222e026d1e8388a050223002481d0a01520762080a0801330820ae87080a086478013306821798017b188001951a00057ba87ba720491a08821768017ba728491a10821788017ba730491a189517200595180005821990017ba93850203202b4118218800150223402451b821898015109360e1406ffffffff000000009517e00450203602dbc3330c01646249216001330b951900048297f8007b17c8008297f0007b17c00082171001d267077b1710019517002097772098772095184020978820d487077b179800951720209777207b179000951780209777209877209518c020978820d487077b17589517a0209777207b1750140700000000346662997b17a0001407000000006eeb149c7b17608297e8007b17b8008297e0007b17b000491148fc087b16080101330793b782181001d8c80a94ba3309db970a82166001d22606520a9d08821a3801aea69508502238026d1c50203a02ca1e50223c02791d50203e02981e7b1770017b18780183697b1980013307330850204002a61e50224202a91a502044029a1e50224602301a5109630550224802891d520759059517800433084050204a02b6c2951a000482a8980082a6900082a7880082a980007b1788017b188001d48707d46908d47808988820d46707977720d487075207570a951a0004491a70491a68491a60951860048217a0007ba77864977b19980150204c0297c382189801958704d88708821a8801c88a09d8a90ada880ac86a0ad86a08821b8001c88b0b82186801951c00037bc8f8007bc8f0007bc8e800821890017bc8e0008218d000951c00047bc8188218e8007bc8108218e0007bc8088218d8007bc87bc9287bc7207bca30951740049518200495190004951ae0037bcb3850204e024a1595190004829748829858829240829a5082198801d3970bd8970c649382199801d89204dab40cc96a0b7b167001d86a0a82168001c96808c9a808d8cb0ac9a8087b180001c9cb0b7b1bf800c93707c947077b17f000c992077b177801330050020a0633025202287919502252027619492600074926f8064926f006821778016479821af800d4a70782180001821bf00050225402f41b4926e806520714098216980164676498502056025cc37b1700013308606467502058024dc39519181948290807604929400749293807492930074929280782180001978820988820821b780197bb20d48b0b977720987720821c9000d47c0c3308ff3309ff8217a800821a98000a01520724070a0801330860ae87080a0864780133068219880182177001821a80017b187801951c00037bc88000821b98017bcba000492c88007bc9a800492c90007bc7b000492c98009517a003951880037bcab80050205a02300e8212980182187801c82807d88708821388016439c88909859a889bdaa80b821c700164c8c88b0bd88b048888821a800164a6c86808c88404951600027b6bf0007b69e8007b67e000951700037b7a187b7c107b73087b7295172003951800039519e0027b64f80050205c028a11821740038477ff51079b02951b000382b77882b87082b96082ba68d49808d4a707d4870752077e0282175001821858017b87821748017b8708821740017a871083870a04015107e4079517c00233084050205e02babf951b000282b9d80082bad00082b7c80082b8c0007b1780017b198801d497077b189801d4a808d478089888207b1a7801d4a707977720d4870752075307951900024929b0004929a8004929a0009518a0028217607b97b8008216980164675020600290c0956704d86708821a8001c88a09d8a90ada880a82167801c86a0ad86a0c82188801c88c0c821868017b1818027b1810027b180802821890017b180002821880007b1838028218787b1830028218707b182802821888007b1820028218d0007b1858028218e8007b1850028218e0007b1848028218d8007b1840027b1968027b1760027b1a7002951780029518600295194002951a2002951b00027b1c780250206202251395180002828788008283980082828000828a900082188001d3870bd8870c648082149801d84209dab90cc96a0bd86a0a82188801c98308c9a808d8cb0ac9a8087b186801c9cb0b7b1b0001c90707c997077b17f800c942077b177001330064020a067b17f00033026602284b167b17f000502266024416492680074926780749267007821770016479821a0001d4a70782186801821bf80050226802c218492668075207e205649883977b1700018217980150206a0226c07b17680182179801330850206c0216c04826880750226e025119956a00077ba9c0007ba9b8007ba9b0007ba9a8005022700284160a01520724054921b8014921b0014921a8014921a001821798017b17c001821780017b17c801821778017b17d0019517c0019518a001821988017b19d80150207202350b8217600195770182120801d227077b17600128078212080101330b82179001957701d2270c2825fa9517ff079577a1033308405020740249bd9517ff079577110195790002502276028a18330078020a0833027a02281c1450227a0219145208f60464769877205207ed0450227c023b1550207e0237bf951818217a86680264868377951800208388800333090a0781676802283af29517e01533084050208002dfbc95171011957900048298e8007b1898018298e0007b1890018298d8007b1888018296d000330082020a083302840228a013502284029d1352087a0464769877205207710450228602bf1450208802bbbe951818217a86880464868377951800208388a00533090a078167880428bef19517ff079577410233084050208a025fbc9517ff0795771101957900018298487b1898018298407b1890018298387b18880182963033008c020a0833028e0228201350228e021d135208fa0364769877205207f103502290023f14502092023bbe951818217a86e80264868377951800208388000433090a078167e802283ef19517400533084050209402e3bb951800058287587b1798018287507b1790018287487b178801828640330096020a083302980228ac1250229802a91252088603647698772052077d0350229a02cb1350209c02c7bd951818197a86c80664868377951800208388e033090a078167c80628cbf09517601533084050209e0270bb951a101195ac000482c76882c86082c95882cb50d49707d48b09d47909989920d48707977720d497075207190364ba9517101149274804492740047b763004951840154927380428bfe1d47808988820d4b707977720d487075207e9029517ff079577110149276806492760067b7c50069518ff0795886107492758062889e19517ff079577a1063308405020a002dfba9517ff0795771101957900055022a20220163300a4020a083302a60228b2115022a602af1152088c026476987720520783025022a802d1125020aa02cdbc951818217a86680164868377951800208388800233090a078167680128d0ef9517c0043308405020ac0275ba951a000482a7d80082a8d00082a9c80082abc000d49707d48b09d47909989920d48707977720d4970752071e0264ba951700044927b8004927b0004927a8009518a0047b76a00028c4e0951760143308405020ae021eba95171011957900038298687b1898018298607b1890018298587b1888018296503300b0020a083302b20228e3105022b202e0105208bd0164769877205207b4015022b40202125020b602febb951818217a86080564868377951800208388200633090a07816708052801ef9517c0033308405020b802a6b9951800038287d8007b1798018287d0007b1790018287c8007b1788018286c0003300ba020a083302bc02286b105022bc02681052084501647698772052073c015022be028a115020c00286bb951818197a864807648683779518002083886033090a0781674807288aee951780123308405020c2022fb99517101195790001829888007b189801829880007b1890018298787b1888018296703300c4020a083302c60228f20f5022c602ef0f5208cc0064769877205207c3005022c80211115020ca020dbb951818217a86880564868377951800208388a00633090a07816788052810ee33081000028388281333081000028388280a330810000283880133070133090a09019517e0013308405020cc0293b88217f8017b1798018217f0017b1790018217e8017b1788018216e0013300ce020a083302d002285c0f5022d002590f520836647698772052072e5022d2027d105020d40279ba951818197a86c80764868377951800208388e00033090a078167c807287ced0033081000028388281c33081000028388281383883307010a09330810000283882865ff3307010a09330810000283882856ff33081000028388284cff330810000283882842ff811840283cff330810000283882832ff330810000283882828ff4926a0004926980014070000000059e962787b67a8009518a0114926900033075020d602e1b8390808000256181f142003080002203308100002838828390133081000028388282f013308100002838828d5fe3308100002838828cbfe3308100002838828c1fe3308100002838828b7fe3308100002838828adfe492278034922700314070000000059e962787b2780039518801c4922680333075020d80266b8390808000256181f142003080002203308100002838828be003308100002838828b400492258034922500314070000000059e962787b2760039518601c4922480333075020da021db8390808000256181f1320030800022033081000028388287533081000028388286c330810000283882813fe330810000283882809fe3308100002838828fffd3308100002838828f5fd49161849161014070000000059e962787b67209518201949160833075020dc02b2b7390808000256181f1320030800022033081000028388280a33081000028388013307013309040a0901951700104927b0f8951700104927a8f8951700104927a0f8140700000000d94b11cf9518ff079588a100951900107b97b8f833073300de02284bb795170010492790f895170010492788f895170010492780f814070000000059e962789518ff0795888100951900107b9798f833075020de0214b782179801817756171f1182189801480820811840286eff8118402868ff81184028b0fd33081000022897fd3308100002288ffd33081000022887fd951140ff7b10b8007b15b0007b16a8009515c0008411e08289828218828b08828810959cfcd89c06c86b099599ffd3b90ad8b90bdaa60b958affc8ab0bd8ab0a888801c98208c8a8088f8a8eb6db8a06d4b8088e9a88cb6085bb01db9a0bdb860b510bf30064768317403308040a020182185082195814070000000001000000d38707d497077b18309888208888017b1938949893785108c5008217487b17288217407b17208317603308240a02018217788218708219687b17187b1810d487077b19088898019478510899008217607b17831780003308440a0201821798008218900082198800821a8000d4790bd48a0cd4bc0c98cc20d48b0b97bb20d4cb0b520b687b6a40821a7b6a20821a207b6a7b69488219087b69288219287b69087b68508218107b68308218307b68107b67588217187b67388217387b6718955140ff8210b8008215b0008216a8009511c0003200330810000228163308100002280f33081000022808330810000201838833070133093300e0020a0901951160ff7b1098007b1590007b1688009515a0008411e0828b829a08828008829395b61f7b1b58d8b602c8200c7b1338d83603d3ac067b1a40d8ac0bda630b828610d80c0ada220a829218828418829310c86a0ad86a08c84808d32809d92808d83a0cda9c08d33a0ad4a909db980b510b3e017b12287b13307b1748821758d467077b10507b1418d44008d487079877207b1620d46808978820d4870752070f018118588317600a0201821378821b70821668d43b0788680194785108f900821a6098a73b976805d48707821858958420d884027b1208821050c80202c827077b1a1097a805c84808d8480ac8a707d3270cd82709daca09821a40d3a70cd87a07821a38d88a0adbc70a98b73b7b1358973805d487077b163898683b7b1b4097bc05d48c0cd80208821b08dabb08821b20c88b06d8b608821018c88000c86c0cc80707d86c03c83707c8c909d8c90cc8c707821828d3870cd87808821730d8970bdbc80bd39707d4c707db7b0a520a4e8217488218107b78207b748218387b78287b72088218407b78307b76108218587b78387b7018955160ff8210980082159000821688009511a0003200003308100002280f33081000022808330810000201838833070133093300e2020a0901951170ff7b1088007b1580007b1678951590008411f064728289827408828c088273959a1fd89a00c80c0984aae07b1308c8a303d8a30bc8490ac8ba0ad39a06d89a07da6b07822b18d8c90c828610822210828818da000cc86c0cd86c06c82c09c89707d8c90cd89709c8b808c86808c8c808c8980c8ec88e79dbc809d4c7088ea6db8906520657821808d88308d34a09d84a06da9806d82708d3bc09d8bc0bda980bd32708d49808da860b520b307b13507b1a587b17603307409518507b1c685020e402c6b2955170ff82108800821580008216789511900032005022e6025a0c5020e802a5b2491128491120491110413307049518104911185020ea028cb2390808000256183f0b20030800024001330810000283883307013309243300ec020a09019511c07b10387b15307b16289515408411f0828910828a18828b088288d4ba0ad4980bd4ab0b98bb20d4a909979920d4b90952093f647664175020ee02efb0821718821810821908d4780a889b0194ab510b22821a7b6a7b69087b68107b67189551c08210388215308216289511403200003308100002838833070133093300f0020a09019511907b10687b15607b16589515708411f0648a82841082880882920882a67b16829b7b1b08829010d3820c7b1c28d8820cd86b0b821328da3b0c64b682aa187b1a188299187b1910c9400ac9ca097b1920d8ca097b1428d8400b821418821a10c94a0ac9ba0ac99a0ac98209c969098212821b08c92b0b8e9c88bb2085bb01db9c0b8fa68219208e9cdba60cd4a909db9c0b510b6c6476821a28d4a207d44809d49707987720d4a909979920d4970752074e95173064285020f202ebaf821748821840821938821a30d4790bd48a0cd4bc0c98cc20d48b0b97bb20d4cb0b520b277b6a7b69087b68107b671895519082106882156082165895117032000033081000022808330810000201838833070133093300f4020a0901951160ff7b1098007b1590007b1688009515a0008411f0828c10828b1882860882827b1b307b1628d4b608d4c20bd48b0b98bb207b1c38d4c808978820d4b8087b17205208bf00642682a77b171882971082980882999777209877204911787b19607b18689518607b177064275020f60256b0821938821a30d4a9071408e0ffffff00000000d88608821b2894b894785108729567407b1710d86707c87b087b1808d8b808da7708c898087b1828d89807c8a7077b17388367204911584911508218187b18409518404911485020f802f7af8217208218087b78088218107b788218287b78108218387b7818955160ff8210980082159000821688009511a000320000951110ff7b10e8007b15e0007b16d8009515f0008411f0828210828c08829a088280829b7b1b28829410d3ca03d8ca06d80b0b7b1b20da3b068283188298187b1818c92409c969087b1838d869087b1248d8240b7b1340821918c93909c9b909c98909c9ca08821a20c9a808821a28c90a0a8e8b88aa6085aa01db8b0a8f968218388e8bdb960bd49808db8b0a510a4c016476821948d490077b1c30821840d4c808d48707987720d49808978820d48707520727019517b00064087b10385020fa02c8ad8217c8007b17288217c0007b17208217b8007b17188217b0007b1710821738957720821838d88708821a30c88a09d8a90ada880a821848c88a0ad88a08821b40c88b0b7b19787b17707b1a8000951790009518707b1b88005020fc0242fc821938821748821840d487071408c0ffffff00000000d88908821a3094a89478510896008217a8007b17488217a0007b1740821798007b1730821790007b17088398409517505020fe021ead821768821860821a50821958d4780b88ac02949c94bc510c5c7b6a40821a087b6a20821a107b6a7b69488219307b69288219187b69087b68508218407b68308218207b68107b67588217487b67388217287b6718955110ff8210e8008215e0008216d8009511f0003200003308100002280833081000020183883307013309330000030a0901951170ff7b1088007b1580007b1678951590008411f0828c10828b1882860882827b1b207b1618d4b608d4c20bd48b0b98bb207b1c28d4c808978820d4b8087b17105208c200642682a77b170882971082980882999777209877204911687b19507b18589518507b176064275020020360ad821a28821b20d4ba071408e0ffffff00000000d88608821918949894785108758217089777209878209567407b1708d86707c8790c7b1cd89c09da7709c8a9097b1918d8a907c8b7077b17288367204911484911407b183095183049113850200403fcac82171082187b78088218087b788218187b78108218287b7818955170ff821088008215800082167895119000320000951140ff7b10b8007b15b0007b16a8009515c0008411f0828610828218828c0882887b1c387b1228d42c036482d4680cd43c0c98cc207b1630d46308978820d4c8087b17205208190182b77b1782a77b17188297108298088299977720987720492198007b1980007b188800951880007b17900064266427502006034fac821730821828d48709140700000000010000007b17081407e0ffffff00000000d8760782183894877b191094975107b3008367204911784911708218187b18609518604911685020080303ac8217089577c0d87607821838948782181094875107810082179777209878209567607b1718d86707821938c8790a7b1a10d89a09da7709821730c879097b1908d87907821928c897077b17388367404911584911507b184095184049114850200a039fab8217208218107b78088218187b788218087b78108218387b7818955140ff8210b8008215b0008216a8009511c0003200009511907b10687b15607b16589515708411f082a6829b7b1b82a408829c0882ab1082921082a318829918d3c400d8c40c7b1608821ad8a60adb0c0ad3930cd89309d82b06dbc906d32b09d4c909db960a510a75828218828010828c08828898b63b973305d4630398493b97bb05d4b909821a0898ab3b974405d4b40b97aa05c8a808d8a80ac8bc0cc8ac0cd3bc06d8bc0bda6a0bc89000c80b0bd80b0ad89009c83202c82909c8a9097b787b7c087b7b107b7918955190821068821560821658951170320050220c03520450200e039daa491128491120491110323307049518104911185020100384aa390808000256183f0b20030800024001330810000283883307013309240a093307330012032880ab3307502012037bab3307015020140372ab8218980182198801d498087b169801821a9001d4a609d48909989920d4a808978820d49808320282184801821740017b8708821750017b87821738017a871033071821c871063202888820858801330764793306da68093202888820858801330764793307da78093202646c82168801821970019397939882199801949c94969498949782192801d26909821a3001d2ca0a821b2001d28b0bd4ba0a821b1801d27b0bd4b909d4a9093202c81909979920d4890a8218780197882098882014090000000024000000d4980b977720987720330800203202821b7001d47b0b6467886a80007b1a700182198801daa90b936b7b1b880182167801d4860682189001daa8067b1790019376330701330882198001320282185801821748017b8708821750017b87821740017a871033071819c87106320283677b179001821798016468320282189801958704d88708821a8001c88a09d8a90ada880a82188801c88a0ad88a08821b9001c8b808821b8800320282189801958704d88708821a8001c88a09d8a90ada880a82188801c88a0ad88a08821b9001c8b808821b5801320282189801958704d88708c88609d8690ada880a82188801c88a0ad88a08821b9001c88b0b821880003202978823821a68d48a0a82186801978820988820821b700197bb20d48b0b977720987720821c50d47c0c3308ff3309ff64a7821a583202c81808978820d4780c3308ff3309ff8217a800320282189801958704d88708821a8801c88a09d8a90ada880a82188001c88a0ad88a083202821768016f77977820821970016f99989920d4890b821878016f889789203202d4b708d49808988820d4b909979920d49808320288ca000185aa014921680194badb970a7b1a980183c980330701330864c632028e6782189001888820858801db67088e678e69da67093202d4c808d48707987720d4b808978820d487073202821998018217880182188001d487071408fcffffff00000000d88908821a900194a894783202d4b908d47808988820d4b707977720d487073202987720d497079888207b1740013e071800037b1b50013e0b1000037b1838013d08200003951718213202c81909979920d4890a82188001978820988820821b600197bb20d48b0b977720987720330800203202c9a808d8cb0ac9a8087b183001c9cb0b7b1b2801c99707c967077b172001c943077b1770013202978820988820821b700197bb20d48b0b97772098772032027b1788017b1890018d69800033070133083202c9a808d8cb0ac9a8087b187001c9cb0b7b1b6801c99707c967077b176001c943063202d4b808d48707987720d4a808978820d4870732028219c800d2c909821ac000d26a0a821bb800d2b808821bb000d2b707d4a707d49808d487073202491140491138491130140700000000717b484e9518307b17483307320282184801821740017b8708821750017b87821738017a871033071821320282185801821748017b8708821750017b87821740017a87103307181932028897019598ff888832858801da970832028298a8007b1898018298a0007b189001829898007b188801829690003202821800018e88821948821af000d8a909d498089a893202c81909979920d4890a821870019788209888203202849a40520a195109148d9a40cfa80ad09808d09707d4a707320032009597c0d0780733083200849a40520a195109148d9a40d0a70acf9707cf9808d4a808320032009598c0cf870833073200490a21a11a4292d210a1925429a42449922449922449922449922449922449922449922449922449922449922449aa9294529294942454a52425499224499224499224499224499224499224499224494992208484a134290d8910111189888846442489902491882211210a55432224012449254912494842922449920ca5500aa50a554548520821a442952a8d88884844048908214224a24620810412489424a211452449a28888880811224944444444241289841021424442449290942480484444084924894412919092104292244224424492441240124984489244274d6a1111111111115144244424512a515294884444444444448888844892244992444444041011212521222211221142444424110248124912274d6a111111111111111111112224014444444444444444288a24924412492411894822894844124912492401248008200248888888154994221289888488888824114922499244121111118922844822222222222222222222222222424444244512492449249248a424444414890891448548214244442491244912396952232222928844444444448848a254a2a42811898888888888888810894892241191442222119124914822899242081145854811912212294588a828a2288a9888484444442444444442121111114544841011111111111111111111111111212222922289241252248888281211441215440a224444441049224e9ad42222222222222222222282089288082222118944229124119120922441121111114544044144444444444444444444444444441011114991441209a248101151242288242a8814448888882092449c34aaca8888888824492422228220492222888824894422912489441489d42422412449224992242222121111412491249248444422222222222222222222222222222222888888a44822892489441289a848414444918820928a8820a220a24452444424892049ca494444444422918888481089c4888824b148121111118d888824491489482322802492a848222212914624494a22a22449928888888888082291482422128944441a91242989889224492222222222228248248944924a499248aa88884892244944444444049020a42a845212298944882492449248024888881191944422892449a22222222222222222222222222282888848922449d18824958844492222222222222222222222222222222288489224499222a211912441121111512452934810111191489224898848444404914492482211111111111111111111111111111191082222222992482249229144225a44a248444414890822a98808220a224a244544449248224992a49c888888482412110992242389249144121111d1888848924411118988481011111111118944440421428408204944246894284914924408112242448888101821222292009248422491049048923849935a444424091145442488208988882022222288882492a4288924888888884890444444041089888808222201242a8924111111118988208a041111892012418888882482084e9ad422222222222222228288244a254a8a92481211111109221244922448229204108988822022918888888888888888880822294924914492442292481409121191882092a2228894202222229208223869528988888846444492248a48248888888820229124495208212222a22215a4a0d440222222a291244992289244248820922412894444224982102142448222221224111101441411110449248988888808a24810828888441089204244442401249144104992e8a4498d8888882412114544109144a94449512211111111111144448288884890444400111111411011894444444444444444441011114991441209a248908888440491141541a42042444424114492447034921a11111111111111511041121144444444442488888804494404101111110411914844444444444444440411119114492491208a048988882211892449245111440a224444441241244904278da44644444444444444144490041011a428222222129144129188249244124004904422c48a54224924411004114505411044109120224922922492241111114510442222222222222222222222828888488a24924892482491882241444491882092a820521021222282481271d2a44644444422128988041149944a9414251211111111114124222292444491484d2241244944224924492222121144124922894444444444241211111111111111111144444452249144924422894414910822228a4404915444105110414492e024222222128944448248248a45928804118944225124484a1204111551319296240a2a851209229224499224492222a248248844229128122425098248455412092282281224250982888aa848244144444444444491202949104454444522414424128944912029491044544445224144229148140992920441444554241244444444449120294910445444452212444444444444912029491044544445ca88888824491291204892882012894422124492922449444404101111411049924844444444444444441011114924914492442292481409121111452212499288a8082205112222228920c1d1a416112591441211092288082082144544442422892422114924892480082011112156a412898820088288a2822008228848101111114992242249448a2092489244222222222291489424222241244924459248244924924844912022a24844101115440a2244444412491249228e26b58888888888888888202289528992a2242222921411114422922449441489d4880411111191481249222222125190449248221111111189444444444444444444440411111149912491249148221145248288882211414445041105114444447044444444444444049148148b2411092222882241940882888aa848248888888888281244892088a8888a44248888442291281244892088a8888a4482482412892241940882888a5424124424499224892222229224898888888844248888208a04512208222aa222912022229224491411119148109148241245822811041115519148101111111145822811041115a9482488888848248a04512208222aa222a14285a646828888888822414a8220a2222a3254a85228299450424942092522808828081184124a28a184124a2811014444418820945022028888821041a850a184124a284900891484084285268d8888082022a248444444001111055144922409090989888894244992244952494912254d024892a42249922649921429d28888244992949424499224492222a250281496a211119192922449922449922449924892244992249226498a24499224499224499224499224499224499224499224494a922449444434140a4bd18848a49292244992244992244992a49292244992244992244144240a822492042182a1249a2449929224492a4892944a922469284593242949952449529224499224494a4a524a92922449928224499224294992a4a1b0148d88882429499224495492922449419200924a9224499224499220494a9288886844442449254992244992244992242529258992244992881244229148922449922489480449124052118944224990244925494a92244992241111d150588a464422494a9224491295a4244952902480a49224494a92244992042929492222d18888489292942449125592928888a82049000920294592240992a41425499224499224499220494a928888689224559224494a92244992942449922449922449929224490a822492042182a1a4220509221291244911892291922a25552aa2a22a12892492942492009244912222452412a528225124521115492489241245124922894491248924122589249224494a4992289248124951a2244a4992148912495524a9942449119100125592242589102142942492489228492492489444921411a924914822254952241289242949004945248a441189225192a4888888284a249524929224492aa92449924a0a00"},"methodIdentifiers":{"forceSettleAllEpochs(address,uint64,uint32)":"494bc62d","forceSettleDay(address,uint64,uint32)":"6196d285","habitTracker()":"836ee1c0","settleAll(address,uint64,uint32)":"45123cce","settleBatch(address,uint64[],uint32[])":"85db4998"}},"hash":"7ea672dd8fee18f9234ba527bdeaf4103d209c092d1718efd8212fbd89b9cce0","factoryDependencies":{}}}}