{"contracts/mocks/MockStakingRewards.sol":{"MockStakingRewards":{"abi":[{"inputs":[{"internalType":"uint256","name":"_ratePerSecond","type":"uint256"},{"internalType":"address","name":"_habitTracker","type":"address"}],"stateMutability":"nonpayable","type":"constructor"},{"inputs":[],"name":"InsufficientBalance","type":"error"},{"inputs":[],"name":"InvalidAmount","type":"error"},{"inputs":[],"name":"OnlyHabitTracker","type":"error"},{"inputs":[],"name":"TransferFailed","type":"error"},{"anonymous":false,"inputs":[{"indexed":true,"internalType":"address","name":"user","type":"address"},{"indexed":false,"internalType":"uint256","name":"amount","type":"uint256"}],"name":"RewardsClaimed","type":"event"},{"anonymous":false,"inputs":[{"indexed":true,"internalType":"address","name":"user","type":"address"},{"indexed":false,"internalType":"uint256","name":"amount","type":"uint256"}],"name":"Staked","type":"event"},{"anonymous":false,"inputs":[{"indexed":true,"internalType":"address","name":"user","type":"address"},{"indexed":false,"internalType":"uint256","name":"amount","type":"uint256"}],"name":"Unstaked","type":"event"},{"inputs":[],"name":"claimRewards","outputs":[{"internalType":"uint256","name":"claimed","type":"uint256"}],"stateMutability":"nonpayable","type":"function"},{"inputs":[{"internalType":"address","name":"","type":"address"}],"name":"deposits","outputs":[{"internalType":"uint256","name":"","type":"uint256"}],"stateMutability":"view","type":"function"},{"inputs":[{"internalType":"address","name":"who","type":"address"}],"name":"getPendingRewards","outputs":[{"internalType":"uint256","name":"","type":"uint256"}],"stateMutability":"view","type":"function"},{"inputs":[{"internalType":"address","name":"who","type":"address"}],"name":"getStakedAmount","outputs":[{"internalType":"uint256","name":"","type":"uint256"}],"stateMutability":"view","type":"function"},{"inputs":[],"name":"habitTracker","outputs":[{"internalType":"address","name":"","type":"address"}],"stateMutability":"view","type":"function"},{"inputs":[{"internalType":"address","name":"","type":"address"}],"name":"lastUpdateTime","outputs":[{"internalType":"uint256","name":"","type":"uint256"}],"stateMutability":"view","type":"function"},{"inputs":[],"name":"ratePerSecond","outputs":[{"internalType":"uint256","name":"","type":"uint256"}],"stateMutability":"view","type":"function"},{"inputs":[{"internalType":"uint256","name":"amount","type":"uint256"}],"name":"stake","outputs":[],"stateMutability":"payable","type":"function"},{"inputs":[{"internalType":"uint256","name":"amount","type":"uint256"}],"name":"unstake","outputs":[],"stateMutability":"nonpayable","type":"function"},{"stateMutability":"payable","type":"receive"}],"evm":{"assembly":"// RO data = 0/0 bytes\n// RW data = 100/65744 bytes\n// Stack size = 32768 bytes\n\n// Instructions = 3686\n// Code size = 12449 bytes\n\n      : @0 (gas: 7)\n     0: sp = sp + 0xffffffffffffffe8\n     3: u64 [sp + 0x10] = ra\n     6: u64 [sp + 0x8] = s0\n     9: u64 [sp] = s1\n    11: s1 = 0x20060\n    16: s0 = i32 [0x20060]\n    21: jump @3 if s0 == 0\n      : @1 (gas: 5)\n    24: a0 = 0x30090\n    29: i32 a0 = a0 + 0\n    31: i32 a1 = s1 + 0\n    33: ecalli 6 // 'get_immutable_data'\n    35: fallthrough\n      : @2 (gas: 3)\n    36: a0 = i32 [0x20060]\n    41: u32 [0x20060] = 0\n    46: jump @4 if a0 <u s0\n      : @3 (gas: 5)\n    49: ra = u64 [sp + 0x10]\n    52: s0 = u64 [sp + 0x8]\n    55: s1 = u64 [sp]\n    57: sp = sp + 0x18\n    60: ret\n      : @4 (gas: 1)\n    62: trap\n      : @5 (gas: 2)\n    63: a1 = i32 [0x20060]\n    68: jump @46 if a1 == 0\n      : @6 (gas: 4)\n    72: a0 = 0x30090\n    77: i32 a0 = a0 + 0\n    79: ecalli 14 // 'set_immutable_data'\n    81: jump @46\n      : @7 (gas: 8)\n    84: sp = sp + 0xfffffffffffffff0\n    87: u64 [sp + 0x8] = ra\n    90: u64 [sp] = s0\n    92: a2 = a1\n    94: s0 = a0\n    96: a1 = 0x20\n    99: a0 = a2\n   101: ra = 2, jump @15\n      : @8 [@dyn 1] (gas: 100)\n   106: a1 = u8 [a0 + 0x1]\n   109: a2 = u8 [a0]\n   111: a3 = u8 [a0 + 0x2]\n   114: a4 = u8 [a0 + 0x3]\n   117: a1 = a1 << 0x8\n   120: a1 = a1 | a2\n   123: a3 = a3 << 0x10\n   126: a4 = a4 << 0x18\n   129: a3 = a3 | a4\n   132: a1 = a1 | a3\n   135: a2 = u8 [a0 + 0x5]\n   138: a3 = u8 [a0 + 0x4]\n   141: a4 = u8 [a0 + 0x6]\n   144: a5 = u8 [a0 + 0x7]\n   147: a2 = a2 << 0x8\n   150: a2 = a2 | a3\n   153: a4 = a4 << 0x10\n   156: a5 = a5 << 0x18\n   159: a4 = a4 | a5\n   162: a2 = a2 | a4\n   165: a2 = a2 << 0x20\n   168: t0 = a2 | a1\n   171: a2 = u8 [a0 + 0x9]\n   174: a3 = u8 [a0 + 0x8]\n   177: a4 = u8 [a0 + 0xa]\n   180: a5 = u8 [a0 + 0xb]\n   183: a2 = a2 << 0x8\n   186: a2 = a2 | a3\n   189: a4 = a4 << 0x10\n   192: a5 = a5 << 0x18\n   195: a4 = a4 | a5\n   198: a2 = a2 | a4\n   201: a3 = u8 [a0 + 0xd]\n   204: a4 = u8 [a0 + 0xc]\n   207: a5 = u8 [a0 + 0xe]\n   210: a1 = u8 [a0 + 0xf]\n   213: a3 = a3 << 0x8\n   216: a3 = a3 | a4\n   219: a5 = a5 << 0x10\n   222: a1 = a1 << 0x18\n   225: a1 = a1 | a5\n   228: a1 = a1 | a3\n   231: a1 = a1 << 0x20\n   234: t1 = a1 | a2\n   237: a1 = u8 [a0 + 0x11]\n   240: a3 = u8 [a0 + 0x10]\n   243: a4 = u8 [a0 + 0x12]\n   246: a5 = u8 [a0 + 0x13]\n   249: a1 = a1 << 0x8\n   252: a1 = a1 | a3\n   255: a4 = a4 << 0x10\n   258: a5 = a5 << 0x18\n   261: a4 = a4 | a5\n   264: a1 = a1 | a4\n   267: a3 = u8 [a0 + 0x15]\n   270: a4 = u8 [a0 + 0x14]\n   273: a5 = u8 [a0 + 0x16]\n   276: a2 = u8 [a0 + 0x17]\n   279: a3 = a3 << 0x8\n   282: a3 = a3 | a4\n   285: a5 = a5 << 0x10\n   288: a2 = a2 << 0x18\n   291: a2 = a2 | a5\n   294: a2 = a2 | a3\n   297: a2 = a2 << 0x20\n   300: a3 = a2 | a1\n   303: a1 = u8 [a0 + 0x19]\n   306: a2 = u8 [a0 + 0x18]\n   309: a4 = u8 [a0 + 0x1a]\n   312: a5 = u8 [a0 + 0x1b]\n   315: a1 = a1 << 0x8\n   318: a1 = a1 | a2\n   321: a4 = a4 << 0x10\n   324: a5 = a5 << 0x18\n   327: a4 = a4 | a5\n   330: a1 = a1 | a4\n   333: a2 = u8 [a0 + 0x1d]\n   336: a4 = u8 [a0 + 0x1c]\n   339: a5 = u8 [a0 + 0x1e]\n   342: a0 = u8 [a0 + 0x1f]\n   345: a2 = a2 << 0x8\n   348: a2 = a2 | a4\n   351: a5 = a5 << 0x10\n   354: a0 = a0 << 0x18\n   357: a0 = a0 | a5\n   360: a0 = a0 | a2\n   363: a0 = a0 << 0x20\n   366: a0 = a0 | a1\n   369: a0 = reverse a0\n   371: a1 = reverse a3\n   373: a2 = reverse t1\n   375: a3 = reverse t0\n   377: u64 [s0 + 0x18] = a3\n   380: u64 [s0 + 0x10] = a2\n   383: u64 [s0 + 0x8] = a1\n   386: u64 [s0] = a0\n   388: ra = u64 [sp + 0x8]\n   391: s0 = u64 [sp]\n   393: sp = sp + 0x10\n   396: ret\n      : @9 (gas: 12)\n   398: sp = sp + 0xffffffffffffffd8\n   401: u64 [sp + 0x20] = ra\n   404: u64 [sp + 0x18] = s0\n   407: u64 [sp + 0x10] = s1\n   410: a2 = u64 [a1]\n   412: u64 [sp + 0x8] = a2\n   415: a2 = u64 [a1 + 0x8]\n   418: u64 [sp] = a2\n   420: s0 = u64 [a1 + 0x10]\n   423: s1 = u64 [a1 + 0x18]\n   426: a1 = 0x20\n   429: ra = 4, jump @15\n      : @10 [@dyn 2] (gas: 71)\n   434: a1 = reverse s1\n   436: a2 = reverse s0\n   438: a3 = u64 [sp]\n   440: a3 = reverse a3\n   442: a4 = u64 [sp + 0x8]\n   445: a4 = reverse a4\n   447: u8 [a0 + 0x18] = a4\n   450: u8 [a0 + 0x10] = a3\n   453: u8 [a0 + 0x8] = a2\n   456: u8 [a0] = a1\n   458: a5 = a4 >> 0x38\n   461: u8 [a0 + 0x1f] = a5\n   464: a5 = a4 >> 0x30\n   467: u8 [a0 + 0x1e] = a5\n   470: a5 = a4 >> 0x28\n   473: u8 [a0 + 0x1d] = a5\n   476: a5 = a4 >> 0x20\n   479: u8 [a0 + 0x1c] = a5\n   482: a5 = a4 >> 0x18\n   485: u8 [a0 + 0x1b] = a5\n   488: a5 = a4 >> 0x10\n   491: u8 [a0 + 0x1a] = a5\n   494: a4 = a4 >> 0x8\n   497: u8 [a0 + 0x19] = a4\n   500: a4 = a3 >> 0x38\n   503: u8 [a0 + 0x17] = a4\n   506: a4 = a3 >> 0x30\n   509: u8 [a0 + 0x16] = a4\n   512: a4 = a3 >> 0x28\n   515: u8 [a0 + 0x15] = a4\n   518: a4 = a3 >> 0x20\n   521: u8 [a0 + 0x14] = a4\n   524: a4 = a3 >> 0x18\n   527: u8 [a0 + 0x13] = a4\n   530: a4 = a3 >> 0x10\n   533: u8 [a0 + 0x12] = a4\n   536: a3 = a3 >> 0x8\n   539: u8 [a0 + 0x11] = a3\n   542: a3 = a2 >> 0x38\n   545: u8 [a0 + 0xf] = a3\n   548: a3 = a2 >> 0x30\n   551: u8 [a0 + 0xe] = a3\n   554: a3 = a2 >> 0x28\n   557: u8 [a0 + 0xd] = a3\n   560: a3 = a2 >> 0x20\n   563: u8 [a0 + 0xc] = a3\n   566: a3 = a2 >> 0x18\n   569: u8 [a0 + 0xb] = a3\n   572: a3 = a2 >> 0x10\n   575: u8 [a0 + 0xa] = a3\n   578: a2 = a2 >> 0x8\n   581: u8 [a0 + 0x9] = a2\n   584: a2 = a1 >> 0x38\n   587: u8 [a0 + 0x7] = a2\n   590: a2 = a1 >> 0x30\n   593: u8 [a0 + 0x6] = a2\n   596: a2 = a1 >> 0x28\n   599: u8 [a0 + 0x5] = a2\n   602: a2 = a1 >> 0x20\n   605: u8 [a0 + 0x4] = a2\n   608: a2 = a1 >> 0x18\n   611: u8 [a0 + 0x3] = a2\n   614: a2 = a1 >> 0x10\n   617: u8 [a0 + 0x2] = a2\n   620: a1 = a1 >> 0x8\n   623: u8 [a0 + 0x1] = a1\n   626: ra = u64 [sp + 0x20]\n   629: s0 = u64 [sp + 0x18]\n   632: s1 = u64 [sp + 0x10]\n   635: sp = sp + 0x28\n   638: ret\n      : @11 (gas: 48)\n   640: sp = sp + 0xffffffffffffffa0\n   643: u64 [sp + 0x58] = ra\n   646: u64 [sp + 0x50] = s0\n   649: u64 [sp + 0x48] = s1\n   652: s0 = sp + 0x60\n   655: sp = sp & 0xffffffffffffffe0\n   658: s1 = a0\n   660: a0 = u64 [a1 + 0x18]\n   663: a2 = u64 [a1 + 0x10]\n   666: a3 = u64 [a1 + 0x8]\n   669: a1 = u64 [a1]\n   671: a0 = reverse a0\n   673: a2 = reverse a2\n   675: a3 = reverse a3\n   677: a1 = reverse a1\n   679: u64 [sp + 0x18] = a1\n   682: u64 [sp + 0x10] = a3\n   685: u64 [sp + 0x8] = a2\n   688: u64 [sp] = a0\n   690: u64 [sp + 56] = 0\n   693: u64 [sp + 48] = 0\n   696: u64 [sp + 40] = 0\n   699: u64 [sp + 32] = 0\n   702: u32 [sp + 64] = 0x20\n   706: i32 a1 = sp + 0\n   708: i32 a3 = sp + 0x20\n   711: i32 a4 = sp + 0x40\n   714: a2 = 0xffffffffffffffff\n   717: a0 = 0\n   719: ecalli 7 // 'get_storage'\n   721: a0 = u64 [sp + 0x38]\n   724: a1 = u64 [sp + 0x30]\n   727: a2 = u64 [sp + 0x28]\n   730: a3 = u64 [sp + 0x20]\n   733: a0 = reverse a0\n   735: a1 = reverse a1\n   737: a2 = reverse a2\n   739: a3 = reverse a3\n   741: u64 [s1 + 0x18] = a3\n   744: u64 [s1 + 0x10] = a2\n   747: u64 [s1 + 0x8] = a1\n   750: u64 [s1] = a0\n   752: sp = s0 + 0xffffffffffffffa0\n   755: ra = u64 [sp + 0x58]\n   758: s0 = u64 [sp + 0x50]\n   761: s1 = u64 [sp + 0x48]\n   764: sp = sp + 0x60\n   767: ret\n      : @12 (gas: 40)\n   769: sp = sp + 0xffffffffffffffa0\n   772: u64 [sp + 0x58] = ra\n   775: u64 [sp + 0x50] = s0\n   778: s0 = sp + 0x60\n   781: sp = sp & 0xffffffffffffffe0\n   784: t0 = u64 [a0]\n   786: a3 = u64 [a0 + 0x8]\n   789: a4 = u64 [a0 + 0x10]\n   792: a0 = u64 [a0 + 0x18]\n   795: t1 = u64 [a1]\n   797: a2 = u64 [a1 + 0x8]\n   800: a5 = u64 [a1 + 0x10]\n   803: a1 = u64 [a1 + 0x18]\n   806: t2 = reverse a0\n   808: a4 = reverse a4\n   810: a3 = reverse a3\n   812: a0 = reverse t0\n   814: t0 = reverse a1\n   816: a5 = reverse a5\n   818: a2 = reverse a2\n   820: a1 = reverse t1\n   822: u64 [sp + 0x18] = a0\n   825: u64 [sp + 0x10] = a3\n   828: u64 [sp + 0x8] = a4\n   831: u64 [sp] = t2\n   833: u64 [sp + 0x38] = a1\n   836: u64 [sp + 0x30] = a2\n   839: u64 [sp + 0x28] = a5\n   842: u64 [sp + 0x20] = t0\n   845: i32 a1 = sp + 0\n   847: i32 a3 = sp + 0x20\n   850: a2 = 0xffffffffffffffff\n   853: a4 = 0x20\n   856: a0 = 0\n   858: ecalli 15 // 'set_storage'\n   860: sp = s0 + 0xffffffffffffffa0\n   863: ra = u64 [sp + 0x58]\n   866: s0 = u64 [sp + 0x50]\n   869: sp = sp + 0x60\n   872: ret\n      : @13 (gas: 24)\n   874: sp = sp + 0xffffffffffffff60\n   878: u64 [sp + 0x98] = ra\n   882: u64 [sp + 0x90] = s0\n   886: u64 [sp + 0x88] = s1\n   890: s0 = sp + 0xa0\n   894: sp = sp & 0xffffffffffffffe0\n   897: a4 = u64 [a3]\n   899: u64 [sp + 0x38] = a4\n   902: a4 = u64 [a3 + 0x8]\n   905: u64 [sp + 0x30] = a4\n   908: a4 = u64 [a3 + 0x10]\n   911: u64 [sp + 0x28] = a4\n   914: a3 = u64 [a3 + 0x18]\n   917: u64 [sp + 0x20] = a3\n   920: a3 = u64 [a2]\n   922: u64 [sp + 0x18] = a3\n   925: a3 = u64 [a2 + 0x8]\n   928: u64 [sp + 0x10] = a3\n   931: a3 = u64 [a2 + 0x10]\n   934: u64 [sp + 0x8] = a3\n   937: a2 = u64 [a2 + 0x18]\n   940: u64 [sp] = a2\n   942: s1 = a1\n   944: ra = 6, jump @15\n      : @14 [@dyn 3] (gas: 35)\n   948: a1 = u64 [sp]\n   950: a1 = reverse a1\n   952: a2 = u64 [sp + 0x8]\n   955: a2 = reverse a2\n   957: a3 = u64 [sp + 0x10]\n   960: a3 = reverse a3\n   962: a4 = u64 [sp + 0x18]\n   965: a4 = reverse a4\n   967: u64 [sp + 0x58] = a4\n   970: u64 [sp + 0x50] = a3\n   973: u64 [sp + 0x48] = a2\n   976: u64 [sp + 0x40] = a1\n   979: a1 = u64 [sp + 0x20]\n   982: a1 = reverse a1\n   984: a2 = u64 [sp + 0x28]\n   987: a2 = reverse a2\n   989: a3 = u64 [sp + 0x30]\n   992: a3 = reverse a3\n   994: a4 = u64 [sp + 0x38]\n   997: a4 = reverse a4\n   999: u64 [sp + 0x78] = a4\n  1002: u64 [sp + 0x70] = a3\n  1005: u64 [sp + 0x68] = a2\n  1008: u64 [sp + 0x60] = a1\n  1011: i32 a2 = a0 + 0\n  1013: i32 a3 = s1 + 0\n  1015: i32 a0 = sp + 0x40\n  1018: a1 = 0x2\n  1021: ecalli 5 // 'deposit_event'\n  1023: sp = s0 + 0xffffffffffffff60\n  1027: ra = u64 [sp + 0x98]\n  1031: s0 = u64 [sp + 0x90]\n  1035: s1 = u64 [sp + 0x88]\n  1039: sp = sp + 0xa0\n  1043: ret\n      : @15 (gas: 2)\n  1045: i32 a2 = a0 >> 0x10\n  1048: jump @20 if a2 != 0\n      : @16 (gas: 4)\n  1051: a1 = a1 + a0\n  1054: i32 a1 = a1 + 0x1f\n  1057: a1 = a1 & 0xffffffffffffffe0\n  1060: jump @20 if a1 >u 65536\n      : @17 (gas: 3)\n  1066: a2 = 0x20068\n  1071: a3 = i32 [0x20068]\n  1076: jump @19 if a3 >=u a1\n      : @18 (gas: 2)\n  1079: u32 [0x20068] = a1\n  1084: fallthrough\n      : @19 (gas: 4)\n  1085: a1 = 0x20070\n  1090: i32 a0 = a0 + 0\n  1092: a0 = a0 + a1\n  1095: ret\n      : @20 (gas: 1)\n  1097: trap\n      : @21 (gas: 6)\n  1098: sp = sp + 0xfffffffffffffff0\n  1101: u64 [sp + 0x8] = ra\n  1104: u64 [sp] = s0\n  1106: s0 = a0 & 0x1\n  1109: ecalli 3 // 'call_data_size'\n  1111: fallthrough\n      : @22 (gas: 2)\n  1112: u32 [0x20064] = a0\n  1117: jump @24 if s0 == 0\n      : @23 (gas: 1)\n  1120: ra = 8, jump @25\n      : @24 [@dyn 4] (gas: 1)\n  1124: ra = 10, jump @49\n      : @25 [@dyn 5] (gas: 13)\n  1129: sp = sp + 0xfffffffffffffe80\n  1133: u64 [sp + 0x178] = ra\n  1137: u64 [sp + 0x170] = s0\n  1141: u64 [sp + 0x168] = s1\n  1145: s0 = sp + 0x180\n  1149: sp = sp & 0xffffffffffffffe0\n  1152: u64 [sp + 344] = 0\n  1156: u64 [sp + 336] = 0\n  1160: u64 [sp + 328] = 0\n  1164: u64 [sp + 320] = 0\n  1168: i32 a0 = sp + 0x140\n  1172: ecalli 16 // 'value_transferred'\n  1174: fallthrough\n      : @26 (gas: 8)\n  1175: a0 = u64 [sp + 0x150]\n  1179: a1 = u64 [sp + 0x158]\n  1183: a2 = u64 [sp + 0x148]\n  1187: a3 = u64 [sp + 0x140]\n  1191: a1 = a1 | a2\n  1194: a0 = a0 | a3\n  1197: a0 = a0 | a1\n  1200: jump @39 if a0 != 0\n      : @27 (gas: 15)\n  1204: s1 = i32 [0x20064]\n  1209: a0 = s1 << 0x20\n  1212: a0 = a0 >> 0x20\n  1215: a0 = a0 + 0x1f\n  1218: a0 = a0 & 0xffffffffffffffe0\n  1221: a1 = a0 + 0xc0\n  1225: a0 = a1 <u a0\n  1228: u64 [sp + 312] = 0\n  1232: u64 [sp + 0x120] = a1\n  1236: u64 [sp + 0x128] = a0\n  1240: a0 = 0 if a0 != 0\n  1242: u64 [sp + 0x130] = a0\n  1246: a0 = 0x40\n  1249: a1 = sp + 0x120\n  1253: ra = 12, jump @9\n      : @28 [@dyn 6] (gas: 3)\n  1258: a0 = 0xc0\n  1262: a1 = s1\n  1264: ra = 14, jump @15\n      : @29 [@dyn 7] (gas: 5)\n  1269: i32 a0 = a0 + 0\n  1271: a1 = s1\n  1273: a2 = 0\n  1275: ecalli 1 // 'call_data_copy'\n  1277: fallthrough\n      : @30 (gas: 1)\n  1278: jump @40 if s1 <u 64\n      : @31 (gas: 3)\n  1283: a0 = sp + 0x100\n  1287: a1 = 0xc0\n  1291: ra = 16, jump @7\n      : @32 [@dyn 8] (gas: 11)\n  1296: a0 = u64 [sp + 0x118]\n  1300: u64 [sp + 0x38] = a0\n  1303: a0 = u64 [sp + 0x110]\n  1307: u64 [sp + 0x30] = a0\n  1310: a0 = u64 [sp + 0x108]\n  1314: u64 [sp + 0x20] = a0\n  1317: a0 = u64 [sp + 0x100]\n  1321: u64 [sp + 0x18] = a0\n  1324: a0 = sp + 0xe0\n  1328: a1 = 0xe0\n  1332: ra = 18, jump @7\n      : @33 [@dyn 9] (gas: 11)\n  1337: a1 = u64 [sp + 0xf0]\n  1341: s1 = u64 [sp + 0xf8]\n  1345: a0 = 0x100000000\n  1355: a0 = a0 ^ a1\n  1358: a0 = a0 | s1\n  1361: u64 [sp + 0x28] = a1\n  1364: a1 = a1 >> 0x20\n  1367: a1 = a1 <u 0x1\n  1370: a1 = 0 if s1 != 0\n  1372: a1 = 0 if a0 == 0\n  1374: jump @41 if a1 == 0\n      : @34 (gas: 15)\n  1378: a0 = u64 [sp + 0xe8]\n  1382: u64 [sp + 0x8] = a0\n  1385: a0 = u64 [sp + 0xe0]\n  1389: u64 [sp + 0x10] = a0\n  1392: a0 = u64 [sp + 0x18]\n  1395: u64 [sp + 0xc0] = a0\n  1399: a0 = u64 [sp + 0x20]\n  1402: u64 [sp + 0xc8] = a0\n  1406: a0 = u64 [sp + 0x30]\n  1409: u64 [sp + 0xd0] = a0\n  1413: a0 = 0x80\n  1417: a1 = sp + 0xc0\n  1421: a2 = u64 [sp + 0x38]\n  1424: u64 [sp + 0xd8] = a2\n  1428: ra = 20, jump @9\n      : @35 [@dyn 10] (gas: 10)\n  1433: u64 [sp + 0xb8] = s1\n  1437: a0 = u64 [sp + 0x28]\n  1440: u64 [sp + 0xb0] = a0\n  1444: a0 = u64 [sp + 0x8]\n  1447: u64 [sp + 0xa8] = a0\n  1451: a0 = 0xa0\n  1455: a1 = sp + a0\n  1458: a2 = u64 [sp + 0x10]\n  1461: u64 [sp + 0xa0] = a2\n  1465: ra = 22, jump @9\n      : @36 [@dyn 11] (gas: 3)\n  1470: a0 = sp + 0x80\n  1474: a1 = 0x40\n  1477: ra = 24, jump @7\n      : @37 [@dyn 12] (gas: 12)\n  1482: a0 = u64 [sp + 0x98]\n  1486: a1 = u64 [sp + 0x90]\n  1490: a2 = u64 [sp + 0x88]\n  1494: s1 = u64 [sp + 0x80]\n  1498: a0 = a0 | a2\n  1501: a2 = s1 | a1\n  1504: a2 = a2 | a0\n  1507: a2 = a2 >> 0x20\n  1510: a0 = a0 | a1\n  1513: a0 = a0 << 0x20\n  1516: a0 = a0 | a2\n  1519: jump @42 if a0 == 0\n      : @38 (gas: 1)\n  1522: trap\n      : @39 (gas: 4)\n  1523: a1 = 0x20070\n  1528: i32 a1 = a1 + 0\n  1530: a0 = 0x1\n  1533: jump @48\n      : @40 (gas: 4)\n  1536: a1 = 0x20070\n  1541: i32 a1 = a1 + 0\n  1543: a0 = 0x1\n  1546: jump @48\n      : @41 (gas: 4)\n  1549: a1 = 0x20070\n  1554: i32 a1 = a1 + 0\n  1556: a0 = 0x1\n  1559: jump @48\n      : @42 (gas: 3)\n  1562: a0 = s1\n  1564: a1 = 0\n  1566: ra = 26, jump @15\n      : @43 [@dyn 13] (gas: 7)\n  1571: i32 a0 = a0 + 0\n  1573: a1 = 0\n  1575: a2 = 0\n  1577: ecalli 1 // 'call_data_copy'\n  1579: a0 = sp + 0x60\n  1582: a1 = 0x80\n  1586: ra = 28, jump @7\n      : @44 [@dyn 14] (gas: 13)\n  1591: a0 = u64 [sp + 0x78]\n  1594: a4 = 0x30090\n  1599: u64 [sp + 0x38] = a4\n  1602: a1 = u64 [sp + 0x70]\n  1605: a2 = u64 [sp + 0x68]\n  1608: a3 = u64 [sp + 0x60]\n  1611: u64 [0x300a8] = a0\n  1616: u64 [0x300a0] = a1\n  1621: u64 [0x30098] = a2\n  1626: u64 [0x30090] = a3\n  1631: a0 = sp + 0x40\n  1634: a1 = 0xa0\n  1638: ra = 30, jump @7\n      : @45 [@dyn 15] (gas: 10)\n  1643: a0 = u64 [sp + 0x58]\n  1646: a1 = u64 [sp + 0x50]\n  1649: a2 = u64 [sp + 0x48]\n  1652: a3 = u64 [sp + 0x40]\n  1655: a4 = u64 [sp + 0x38]\n  1658: u64 [a4 + 0x38] = a0\n  1661: u64 [a4 + 0x30] = a1\n  1664: u64 [a4 + 0x28] = a2\n  1667: u64 [a4 + 0x20] = a3\n  1670: jump @5\n      : @46 (gas: 3)\n  1673: a0 = s1\n  1675: a1 = 0\n  1677: ra = 32, jump @15\n      : @47 [@dyn 16] (gas: 6)\n  1682: i32 a1 = a0 + 0\n  1684: a0 = 0\n  1686: a2 = 0\n  1688: ra = 0x22\n  1691: ecalli 13 // 'seal_return'\n  1693: jump @49\n      : @48 (gas: 4)\n  1695: a2 = 0\n  1697: ra = 0x22\n  1700: ecalli 13 // 'seal_return'\n  1702: fallthrough\n      : @49 [@dyn 17] (gas: 19)\n  1703: sp = sp + 0xfffffffffffff808\n  1707: a0 = sp + 0x700\n  1711: u64 [a0 + 0xf0] = ra\n  1715: u64 [a0 + 0xe8] = s0\n  1719: u64 [a0 + 0xe0] = s1\n  1723: s0 = sp + 0x7f8\n  1727: sp = sp + 0xfffffffffffffaf8\n  1731: sp = sp & 0xffffffffffffffe0\n  1734: s1 = sp\n  1736: a2 = s1 + 0x7ff\n  1740: a2 = a2 + 0x19\n  1743: u64 [a2 + 256] = 0\n  1747: u64 [a2 + 248] = 0\n  1751: u64 [a2 + 232] = 0x80\n  1757: a0 = 0x40\n  1760: a1 = s1 + 0x7ff\n  1764: a1 = a1 + 0x101\n  1768: u64 [a2 + 240] = 0\n  1772: ra = 36, jump @9\n      : @50 [@dyn 18] (gas: 4)\n  1777: a0 = 0x20064\n  1782: u64 [s1 + 0x98] = a0\n  1786: a0 = i32 [0x20064]\n  1791: jump @52 if a0 >=u 4\n      : @51 (gas: 1)\n  1795: jump @290\n      : @52 (gas: 6)\n  1798: a0 = s1 + 0x1000\n  1802: i32 a0 = a0 + 0xfffffffffffff920\n  1806: a1 = 0\n  1808: ra = 0x26\n  1811: ecalli 2 // 'call_data_load'\n  1813: fallthrough\n      : @53 [@dyn 19] (gas: 4)\n  1814: a2 = s1 + 0x7ff\n  1818: a2 = a2 + 0x19\n  1821: a0 = i32 [a2 + 0x124]\n  1825: jump @166 if a0 == 2205082048\n      : @54 (gas: 1)\n  1833: jump @56 if a0 != 2399083160\n      : @55 (gas: 1)\n  1840: jump @221\n      : @56 (gas: 1)\n  1843: jump @192 if a0 == 2794781754\n      : @57 (gas: 1)\n  1851: jump @99 if a0 == 4142735383\n      : @58 (gas: 1)\n  1859: jump @150 if a0 == 4236126317\n      : @59 (gas: 1)\n  1867: jump @109 if a0 == 773316216\n      : @60 (gas: 1)\n  1875: jump @173 if a0 != 925171883\n      : @61 (gas: 8)\n  1883: u64 [a2 + 640] = 0\n  1887: u64 [a2 + 632] = 0\n  1891: u64 [a2 + 624] = 0\n  1895: u64 [a2 + 616] = 0\n  1899: a0 = s1 + 0x1000\n  1903: i32 a0 = a0 + 0xfffffffffffffa80\n  1907: ecalli 16 // 'value_transferred'\n  1909: fallthrough\n      : @62 (gas: 11)\n  1910: a3 = s1 + 0x7ff\n  1914: a3 = a3 + 0x19\n  1917: a4 = a3 + 0x200\n  1921: a0 = u64 [a4 + 0x78]\n  1924: a1 = u64 [a4 + 0x80]\n  1928: a2 = u64 [a4 + 0x70]\n  1931: a3 = u64 [a4 + 0x68]\n  1934: a1 = a1 | a2\n  1937: a0 = a0 | a3\n  1940: a0 = a0 | a1\n  1943: jump @64 if a0 == 0\n      : @63 (gas: 1)\n  1946: jump @228\n      : @64 (gas: 4)\n  1949: a0 = u64 [s1 + 0x98]\n  1953: a0 = i32 [a0]\n  1955: a1 = 0x3\n  1958: jump @66 if a1 <u a0\n      : @65 (gas: 1)\n  1961: jump @229\n      : @66 (gas: 1)\n  1964: ra = 40, jump @0\n      : @67 [@dyn 20] (gas: 12)\n  1969: a1 = u64 [0x300b8]\n  1974: u64 [s1 + 0x88] = a1\n  1978: a1 = u64 [0x300b0]\n  1983: u64 [s1 + 0x80] = a1\n  1987: a0 = u32 [0x300c0]\n  1992: u64 [s1 + 0x78] = a0\n  1995: a0 = 0x30070\n  2000: u64 [s1 + 0x98] = a0\n  2004: i32 a0 = a0 + 0\n  2006: u64 [s1 + 0x90] = a0\n  2010: ecalli 4 // 'caller'\n  2012: fallthrough\n      : @68 (gas: 26)\n  2013: a1 = u64 [s1 + 0x98]\n  2017: a0 = u64 [a1 + 0x8]\n  2020: a2 = u64 [a1]\n  2022: a4 = u32 [a1 + 0x10]\n  2025: u64 [s1 + 0x38] = a0\n  2028: a0 = reverse a0\n  2030: a1 = a0 >> 0x20\n  2033: u64 [s1 + 0x40] = a2\n  2036: a2 = reverse a2\n  2038: a3 = a2 << 0x20\n  2041: a1 = a1 | a3\n  2044: a0 = a0 << 0x20\n  2047: u64 [s1 + 0x30] = a4\n  2050: a3 = reverse a4\n  2052: a3 = a3 >> 0x20\n  2055: a0 = a0 | a3\n  2058: a2 = a2 >> 0x20\n  2061: a3 = u64 [s1 + 0x78]\n  2064: a2 = a2 ^ a3\n  2067: a3 = u64 [s1 + 0x80]\n  2071: a0 = a0 ^ a3\n  2074: a0 = a0 | a2\n  2077: a2 = u64 [s1 + 0x88]\n  2081: a1 = a1 ^ a2\n  2084: a0 = a0 | a1\n  2087: jump @70 if a0 == 0\n      : @69 (gas: 1)\n  2090: jump @256\n      : @70 (gas: 5)\n  2093: a0 = u64 [s1 + 0x90]\n  2097: ra = 0x2a\n  2100: ecalli 4 // 'caller'\n  2102: t0 = 0x2c\n  2105: jump @426\n      : @71 [@dyn 21] (gas: 1)\n  2108: t0 = 44, jump @426\n      : @72 [@dyn 22] (gas: 7)\n  2113: u64 [s1 + 1240] = 0\n  2117: u64 [s1 + 0x4d0] = a1\n  2121: u64 [s1 + 0x4c8] = a0\n  2125: a0 = s1 + 0x4e0\n  2129: a1 = s1 + 0x4c0\n  2133: u64 [s1 + 0x4c0] = a3\n  2137: ra = 46, jump @369\n      : @73 [@dyn 23] (gas: 13)\n  2142: a0 = u64 [s1 + 0x4f8]\n  2146: u64 [s1 + 0x88] = a0\n  2150: a0 = u64 [s1 + 0x4f0]\n  2154: u64 [s1 + 0x80] = a0\n  2158: a0 = u64 [s1 + 0x4e8]\n  2162: u64 [s1 + 0x78] = a0\n  2165: a0 = u64 [s1 + 0x4e0]\n  2169: u64 [s1 + 0x70] = a0\n  2172: a0 = u64 [s1 + 0x90]\n  2176: ra = 0x30\n  2179: ecalli 4 // 'caller'\n  2181: t0 = 0x32\n  2184: jump @426\n      : @74 [@dyn 24] (gas: 1)\n  2187: t0 = 50, jump @426\n      : @75 [@dyn 25] (gas: 7)\n  2192: u64 [s1 + 1208] = 0\n  2196: u64 [s1 + 0x4b0] = a1\n  2200: u64 [s1 + 0x4a8] = a0\n  2204: a1 = s1 + 0x4a0\n  2208: u64 [s1 + 0x4a0] = a3\n  2212: a0 = 0\n  2214: ra = 52, jump @9\n      : @76 [@dyn 26] (gas: 7)\n  2219: u64 [s1 + 1176] = 0\n  2223: u64 [s1 + 1168] = 0\n  2227: u64 [s1 + 1152] = 0x1\n  2232: a0 = 0x20\n  2235: a1 = s1 + 0x480\n  2239: u64 [s1 + 1160] = 0\n  2243: ra = 54, jump @9\n      : @77 [@dyn 27] (gas: 4)\n  2248: a0 = s1 + 0x1000\n  2252: i32 a0 = a0 + 0xfffffffffffffaa0\n  2256: ecalli 9 // 'now'\n  2258: fallthrough\n      : @78 (gas: 14)\n  2259: a2 = 0x20068\n  2264: a1 = s1 + 0x7ff\n  2268: a1 = a1 + 0x19\n  2271: a3 = a1 + 0x200\n  2275: a0 = u64 [a3 + 0xa0]\n  2279: u64 [s1 + 0x58] = a0\n  2282: a0 = u64 [a3 + 0x98]\n  2286: u64 [s1 + 0x60] = a0\n  2289: a0 = u64 [a3 + 0x90]\n  2293: u64 [s1 + 0x68] = a0\n  2296: a0 = i32 [0x20068]\n  2301: a1 = u64 [a3 + 0x88]\n  2305: u64 [s1 + 0x50] = a1\n  2308: jump @80 if a0 >u 63\n      : @79 (gas: 2)\n  2312: u32 [0x20068] = 0x40\n  2318: fallthrough\n      : @80 (gas: 16)\n  2319: u64 [s1 + 0x20] = a2\n  2322: a0 = sp + 0xffffffffffffffe0\n  2325: a2 = a0 & 0xffffffffffffffe0\n  2328: u64 [s1 + 0x48] = a2\n  2331: sp = a2\n  2333: a0 = 0x20070\n  2338: u64 [s1 + 0x28] = a0\n  2341: i32 a0 = a0 + 0\n  2343: i32 a2 = a2 + 0\n  2345: a1 = 0x40\n  2348: u64 [s1 + 0x18] = a0\n  2351: ra = 0x38\n  2354: ecalli 8 // 'hash_keccak_256'\n  2356: a3 = u64 [s1 + 0x48]\n  2359: t0 = 0x3a\n  2362: jump @427\n      : @81 [@dyn 28] (gas: 2)\n  2365: a3 = u64 [s1 + 0x48]\n  2368: t0 = 58, jump @427\n      : @82 [@dyn 29] (gas: 18)\n  2373: a5 = a4 + 0x200\n  2377: u64 [a5 + 0xc0] = a3\n  2381: u64 [a5 + 0xb8] = a2\n  2385: u64 [a5 + 0xb0] = a1\n  2389: u64 [a5 + 0xa8] = a0\n  2393: a0 = u64 [s1 + 0x58]\n  2396: u64 [a5 + 0xe0] = a0\n  2400: a0 = u64 [s1 + 0x60]\n  2403: u64 [a5 + 0xd8] = a0\n  2407: a0 = u64 [s1 + 0x68]\n  2410: u64 [a5 + 0xd0] = a0\n  2414: a0 = u64 [s1 + 0x50]\n  2417: u64 [a5 + 0xc8] = a0\n  2421: a0 = s1 + 0x7ff\n  2425: a0 = a0 + 0x2c1\n  2429: a1 = s1 + 0x7ff\n  2433: a1 = a1 + 0x2e1\n  2437: ra = 60, jump @12\n      : @83 [@dyn 30] (gas: 8)\n  2442: a3 = u64 [s1 + 0x80]\n  2446: a4 = u64 [s1 + 0x70]\n  2449: a0 = a4 | a3\n  2452: a2 = u64 [s1 + 0x88]\n  2456: a5 = u64 [s1 + 0x78]\n  2459: a1 = a5 | a2\n  2462: a0 = a0 | a1\n  2465: jump @95 if a0 == 0\n      : @84 (gas: 52)\n  2469: ecalli 10 // 'ref_time_left'\n  2471: a2 = u64 [s1 + 0x98]\n  2475: a1 = u64 [s1 + 0x38]\n  2478: u64 [a2 + 0x8] = a1\n  2481: a1 = u64 [s1 + 0x40]\n  2484: u64 [a2] = a1\n  2486: a1 = u64 [s1 + 0x30]\n  2489: u32 [a2 + 0x10] = a1\n  2492: a3 = s1 + 0x7ff\n  2496: a3 = a3 + 0x19\n  2499: a1 = u64 [s1 + 0x78]\n  2502: a4 = a3 + 0x200\n  2506: u64 [a4 + 0xf0] = a1\n  2510: a1 = u64 [s1 + 0x70]\n  2513: u64 [a4 + 0xe8] = a1\n  2517: a1 = u64 [s1 + 0x80]\n  2521: u64 [a4 + 0xf8] = a1\n  2525: a1 = u64 [s1 + 0x88]\n  2529: a4 = a3 + 0x300\n  2533: u64 [a4] = a1\n  2535: u32 [a3 + 776] = 0\n  2539: a0 = a0 >u 0x8fc\n  2543: a1 = -a0\n  2545: u64 [a4 + 0x40] = a1\n  2548: u64 [a4 + 0x38] = a1\n  2551: u64 [a4 + 0x30] = a1\n  2554: u64 [a4 + 0x28] = a1\n  2557: a1 = a2 << 0x20\n  2560: a1 = a1 >> 0x20\n  2563: a0 = a0 << 0x23\n  2566: a0 = a0 | a1\n  2569: a1 = s1 + 0x7ff\n  2573: a1 = a1 + 0x301\n  2577: a1 = a1 << 0x20\n  2580: a1 = a1 >> 0x20\n  2583: a2 = s1 + 0x7ff\n  2587: a2 = a2 + 0x341\n  2591: a2 = a2 << 0x20\n  2594: a3 = a2 | a1\n  2597: a4 = u64 [s1 + 0x28]\n  2600: a4 = a4 << 0x20\n  2603: a4 = a4 >> 0x20\n  2606: a1 = s1 + 0x7ff\n  2610: a1 = a1 + 0x321\n  2614: a1 = a1 << 0x20\n  2617: a5 = a1 | a4\n  2620: a1 = 0xffffffffffffffff\n  2623: a2 = 0xffffffffffffffff\n  2626: ecalli 0 // 'call'\n  2627: u64 [s1 + 0x68] = a0\n  2630: a0 = s1 + 0x460\n  2634: ra = 62, jump @322\n      : @85 [@dyn 31] (gas: 2)\n  2639: a0 = u64 [s1 + 0x68]\n  2642: jump @87 if a0 == 0\n      : @86 (gas: 1)\n  2645: jump @294\n      : @87 (gas: 3)\n  2648: a0 = s1 + 0x420\n  2652: a1 = 0x40\n  2655: ra = 64, jump @7\n      : @88 [@dyn 32] (gas: 6)\n  2660: a4 = s1 + 0x400\n  2664: a0 = u64 [a4 + 0x38]\n  2667: a1 = u64 [a4 + 0x30]\n  2670: a2 = u64 [a4 + 0x28]\n  2673: a3 = u64 [a4 + 0x20]\n  2676: t0 = 66, jump @429\n      : @89 [@dyn 33] (gas: 1)\n  2681: jump @91 if a0 == 0\n      : @90 (gas: 1)\n  2684: jump @227\n      : @91 (gas: 13)\n  2687: a0 = u64 [s1 + 0x70]\n  2690: a2 = s1 + 0x400\n  2694: u64 [a2] = a0\n  2696: a0 = u64 [s1 + 0x78]\n  2699: u64 [a2 + 0x8] = a0\n  2702: a0 = u64 [s1 + 0x80]\n  2706: u64 [a2 + 0x10] = a0\n  2709: a1 = s1 + 0x400\n  2713: a0 = u64 [s1 + 0x88]\n  2717: u64 [a2 + 0x18] = a0\n  2720: a0 = a3\n  2722: u64 [s1 + 0x68] = a3\n  2725: ra = 68, jump @9\n      : @92 [@dyn 34] (gas: 5)\n  2730: a0 = u64 [s1 + 0x90]\n  2734: ra = 0x46\n  2737: ecalli 4 // 'caller'\n  2739: t0 = 0x48\n  2742: jump @433\n      : @93 [@dyn 35] (gas: 1)\n  2745: t0 = 72, jump @433\n      : @94 [@dyn 36] (gas: 24)\n  2750: t0 = a1 | a0\n  2753: a3 = a3 >> 0x20\n  2756: a2 = reverse a2\n  2758: a1 = a2 << 0x20\n  2761: a1 = a1 | a3\n  2764: a2 = a2 >> 0x20\n  2767: u64 [s1 + 984] = 0\n  2771: a3 = u64 [0x20020]\n  2776: a4 = u64 [0x20028]\n  2781: a5 = u64 [0x20030]\n  2786: a0 = u64 [0x20038]\n  2791: u64 [s1 + 0x3f8] = a3\n  2795: a3 = s1 + 0x300\n  2799: u64 [a3 + 0xf0] = a4\n  2803: u64 [a3 + 0xe8] = a5\n  2807: u64 [a3 + 0xe0] = a0\n  2811: u64 [a3 + 0xd0] = a2\n  2815: u64 [a3 + 0xc8] = a1\n  2819: a1 = 0x20\n  2822: a2 = s1 + 0x3e0\n  2826: a3 = s1 + 0x3c0\n  2830: u64 [s1 + 0x3c0] = t0\n  2834: a0 = u64 [s1 + 0x68]\n  2837: ra = 74, jump @13\n      : @95 [@dyn 37] (gas: 3)\n  2842: a0 = s1 + 0x3a0\n  2846: a1 = 0x40\n  2849: ra = 76, jump @7\n      : @96 [@dyn 38] (gas: 6)\n  2854: a4 = s1 + 0x300\n  2858: a0 = u64 [a4 + 0xb8]\n  2862: a1 = u64 [a4 + 0xb0]\n  2866: a2 = u64 [a4 + 0xa8]\n  2870: a3 = u64 [a4 + 0xa0]\n  2874: t0 = 78, jump @429\n      : @97 [@dyn 39] (gas: 1)\n  2879: jump @227 if a0 != 0\n      : @98 (gas: 14)\n  2883: a0 = u64 [s1 + 0x70]\n  2886: a2 = s1 + 0x300\n  2890: u64 [a2 + 0x80] = a0\n  2894: a0 = u64 [s1 + 0x78]\n  2897: u64 [a2 + 0x88] = a0\n  2901: a0 = u64 [s1 + 0x80]\n  2905: u64 [a2 + 0x90] = a0\n  2909: a1 = s1 + 0x380\n  2913: a0 = u64 [s1 + 0x88]\n  2917: u64 [a2 + 0x98] = a0\n  2921: a0 = a3\n  2923: u64 [s1 + 0x98] = a3\n  2927: ra = 0xb2\n  2931: jump @9\n      : @99 (gas: 8)\n  2934: u64 [a2 + 1088] = 0\n  2938: u64 [a2 + 1080] = 0\n  2942: u64 [a2 + 1072] = 0\n  2946: u64 [a2 + 1064] = 0\n  2950: a0 = s1 + 0x1000\n  2954: i32 a0 = a0 + 0xfffffffffffffc40\n  2958: ecalli 16 // 'value_transferred'\n  2960: fallthrough\n      : @100 (gas: 11)\n  2961: a3 = s1 + 0x7ff\n  2965: a3 = a3 + 0x19\n  2968: a4 = a3 + 0x400\n  2972: a0 = u64 [a4 + 0x38]\n  2975: a1 = u64 [a4 + 0x40]\n  2978: a2 = u64 [a4 + 0x30]\n  2981: a3 = u64 [a4 + 0x28]\n  2984: a1 = a1 | a2\n  2987: a0 = a0 | a3\n  2990: a0 = a0 | a1\n  2993: jump @230 if a0 != 0\n      : @101 (gas: 3)\n  2997: a0 = u64 [s1 + 0x98]\n  3001: a0 = i32 [a0]\n  3003: jump @231 if a0 <=u 35\n      : @102 (gas: 5)\n  3008: a0 = s1 + 0x1000\n  3012: i32 a0 = a0 + 0xfffffffffffffc60\n  3016: a1 = 0x4\n  3019: ecalli 2 // 'call_data_load'\n  3021: fallthrough\n      : @103 (gas: 12)\n  3022: a4 = s1 + 0x7ff\n  3026: a4 = a4 + 0x19\n  3029: a0 = u64 [a4 + 0x458]\n  3033: a2 = u64 [a4 + 0x460]\n  3037: a1 = 0x100000000\n  3047: a1 = a1 ^ a0\n  3050: a1 = a1 | a2\n  3053: a3 = a0 >> 0x20\n  3056: a3 = a3 <u 0x1\n  3059: a3 = 0 if a2 != 0\n  3061: a3 = 0 if a1 == 0\n  3063: jump @232 if a3 == 0\n      : @104 (gas: 11)\n  3067: a1 = u64 [a4 + 0x450]\n  3071: a3 = u64 [a4 + 0x448]\n  3075: u64 [a4 + 0x8] = a3\n  3078: u64 [a4 + 0x10] = a1\n  3081: u64 [a4 + 0x18] = a0\n  3084: a0 = s1 + 0x7ff\n  3088: a0 = a0 + 0x41\n  3091: a1 = s1 + 0x7ff\n  3095: a1 = a1 + 0x21\n  3098: u64 [a4 + 0x20] = a2\n  3101: ra = 80, jump @369\n      : @105 [@dyn 40] (gas: 14)\n  3106: a1 = s1 + 0x7ff\n  3110: a1 = a1 + 0x19\n  3113: a0 = u64 [a1 + 0x40]\n  3116: u64 [s1 + 0x98] = a0\n  3120: a0 = u64 [a1 + 0x38]\n  3123: u64 [s1 + 0x90] = a0\n  3127: a0 = u64 [a1 + 0x30]\n  3130: u64 [s1 + 0x88] = a0\n  3134: a0 = u64 [a1 + 0x28]\n  3137: u64 [s1 + 0x80] = a0\n  3141: a0 = s1 + 0x7ff\n  3145: a0 = a0 + 0x1\n  3148: a1 = 0x40\n  3151: ra = 82, jump @7\n      : @106 [@dyn 41] (gas: 9)\n  3156: a1 = s1 + 0x7ff\n  3160: a1 = a1 + 0x19\n  3163: a0 = u64 [a1]\n  3165: a1 = u64 [a1 + 0xfffffffffffffff8]\n  3168: a2 = s1 + 0x1000\n  3172: a2 = u64 [a2 + 0xfffffffffffff808]\n  3176: a3 = s1 + 0x1000\n  3180: a3 = u64 [a3 + 0xfffffffffffff800]\n  3184: t0 = 84, jump @429\n      : @107 [@dyn 42] (gas: 1)\n  3189: jump @227 if a0 != 0\n      : @108 (gas: 14)\n  3193: a0 = u64 [s1 + 0x80]\n  3197: a2 = s1 + 0x700\n  3201: u64 [a2 + 0xe0] = a0\n  3205: a0 = u64 [s1 + 0x88]\n  3209: u64 [a2 + 0xe8] = a0\n  3213: a0 = u64 [s1 + 0x90]\n  3217: u64 [a2 + 0xf0] = a0\n  3221: a1 = s1 + 0x7e0\n  3225: a0 = u64 [s1 + 0x98]\n  3229: u64 [a2 + 0xf8] = a0\n  3233: a0 = a3\n  3235: u64 [s1 + 0x98] = a3\n  3239: ra = 0xb2\n  3243: jump @9\n      : @109 (gas: 8)\n  3246: u64 [a2 + 416] = 0\n  3250: u64 [a2 + 408] = 0\n  3254: u64 [a2 + 400] = 0\n  3258: u64 [a2 + 392] = 0\n  3262: a0 = s1 + 0x1000\n  3266: i32 a0 = a0 + 0xfffffffffffff9a0\n  3270: ecalli 16 // 'value_transferred'\n  3272: fallthrough\n      : @110 (gas: 11)\n  3273: a3 = s1 + 0x7ff\n  3277: a3 = a3 + 0x19\n  3280: a4 = a3 + 0x100\n  3284: a0 = u64 [a4 + 0x98]\n  3288: a1 = u64 [a4 + 0xa0]\n  3292: a2 = u64 [a4 + 0x90]\n  3296: a3 = u64 [a4 + 0x88]\n  3300: a1 = a1 | a2\n  3303: a0 = a0 | a3\n  3306: a0 = a0 | a1\n  3309: jump @233 if a0 != 0\n      : @111 (gas: 3)\n  3313: a0 = u64 [s1 + 0x98]\n  3317: a0 = i32 [a0]\n  3319: jump @234 if a0 <=u 35\n      : @112 (gas: 16)\n  3324: a0 = s1 + 0x1000\n  3328: i32 a0 = a0 + 0xfffffffffffff9c0\n  3332: a1 = 0x4\n  3335: ecalli 2 // 'call_data_load'\n  3337: a0 = s1 + 0x7ff\n  3341: a0 = a0 + 0x19\n  3344: a2 = a0 + 0x100\n  3348: a1 = u64 [a2 + 0xc0]\n  3352: u64 [s1 + 0x90] = a1\n  3356: a1 = u64 [a2 + 0xb8]\n  3360: u64 [s1 + 0x88] = a1\n  3364: a1 = u64 [a2 + 0xb0]\n  3368: u64 [s1 + 0x80] = a1\n  3372: a0 = u64 [a2 + 0xa8]\n  3376: u64 [s1 + 0x78] = a0\n  3379: ra = 86, jump @0\n      : @113 [@dyn 43] (gas: 12)\n  3384: a1 = u64 [0x300b8]\n  3389: u64 [s1 + 0x68] = a1\n  3392: a1 = u64 [0x300b0]\n  3397: u64 [s1 + 0x60] = a1\n  3400: a0 = u32 [0x300c0]\n  3405: u64 [s1 + 0x58] = a0\n  3408: a0 = 0x30070\n  3413: u64 [s1 + 0x98] = a0\n  3417: i32 a0 = a0 + 0\n  3419: u64 [s1 + 0x70] = a0\n  3422: ecalli 4 // 'caller'\n  3424: fallthrough\n      : @114 (gas: 23)\n  3425: a0 = u64 [s1 + 0x98]\n  3429: t0 = u64 [a0 + 0x8]\n  3432: a4 = u64 [a0]\n  3434: a5 = u32 [a0 + 0x10]\n  3437: a0 = reverse t0\n  3439: a1 = a0 >> 0x20\n  3442: a2 = reverse a4\n  3444: a3 = a2 << 0x20\n  3447: a1 = a1 | a3\n  3450: a0 = a0 << 0x20\n  3453: a3 = reverse a5\n  3455: a3 = a3 >> 0x20\n  3458: a0 = a0 | a3\n  3461: a2 = a2 >> 0x20\n  3464: a3 = u64 [s1 + 0x58]\n  3467: a2 = a2 ^ a3\n  3470: a3 = u64 [s1 + 0x60]\n  3473: a0 = a0 ^ a3\n  3476: a0 = a0 | a2\n  3479: a2 = u64 [s1 + 0x68]\n  3482: a1 = a1 ^ a2\n  3485: a0 = a0 | a1\n  3488: jump @235 if a0 != 0\n      : @115 (gas: 11)\n  3492: u64 [s1 + 0x40] = a5\n  3495: u64 [s1 + 0x48] = t0\n  3498: u64 [s1 + 0x50] = a4\n  3501: a0 = u64 [s1 + 0x88]\n  3505: a1 = u64 [s1 + 0x78]\n  3508: a0 = a0 | a1\n  3511: a1 = u64 [s1 + 0x90]\n  3515: a2 = u64 [s1 + 0x80]\n  3519: a1 = a1 | a2\n  3522: a0 = a0 | a1\n  3525: jump @239 if a0 == 0\n      : @116 (gas: 5)\n  3529: a0 = u64 [s1 + 0x70]\n  3532: ra = 0x58\n  3535: ecalli 4 // 'caller'\n  3537: t0 = 0x5a\n  3540: jump @426\n      : @117 [@dyn 44] (gas: 1)\n  3543: t0 = 90, jump @426\n      : @118 [@dyn 45] (gas: 8)\n  3548: u64 [s1 + 856] = 0\n  3552: a2 = s1 + 0x300\n  3556: u64 [a2 + 0x50] = a1\n  3559: u64 [a2 + 0x48] = a0\n  3562: a1 = s1 + 0x340\n  3566: u64 [a2 + 0x40] = a3\n  3569: a0 = 0\n  3571: ra = 92, jump @9\n      : @119 [@dyn 46] (gas: 7)\n  3576: u64 [s1 + 824] = 0\n  3580: u64 [s1 + 816] = 0\n  3584: u64 [s1 + 808] = 0\n  3588: a0 = 0x20\n  3591: a1 = s1 + 0x320\n  3595: u64 [s1 + 800] = 0\n  3599: ra = 94, jump @9\n      : @120 [@dyn 47] (gas: 4)\n  3604: a0 = 0x20068\n  3609: u64 [s1 + 0x68] = a0\n  3612: a0 = i32 [0x20068]\n  3617: jump @122 if a0 >u 63\n      : @121 (gas: 3)\n  3621: a1 = u64 [s1 + 0x68]\n  3624: u32 [a1 + 0] = 0x40\n  3627: fallthrough\n      : @122 (gas: 15)\n  3628: a0 = sp + 0xffffffffffffffe0\n  3631: a2 = a0 & 0xffffffffffffffe0\n  3634: u64 [s1 + 0x60] = a2\n  3637: sp = a2\n  3639: a0 = 0x20070\n  3644: u64 [s1 + 0x38] = a0\n  3647: i32 a0 = a0 + 0\n  3649: i32 a2 = a2 + 0\n  3651: a1 = 0x40\n  3654: u64 [s1 + 0x58] = a0\n  3657: ra = 0x60\n  3660: ecalli 8 // 'hash_keccak_256'\n  3662: a3 = u64 [s1 + 0x60]\n  3665: t0 = 0x62\n  3668: jump @434\n      : @123 [@dyn 48] (gas: 2)\n  3671: a3 = u64 [s1 + 0x60]\n  3674: t0 = 98, jump @434\n      : @124 [@dyn 49] (gas: 8)\n  3679: u64 [a5 + 0xe0] = a3\n  3683: u64 [a5 + 0xd8] = a2\n  3687: u64 [a5 + 0xd0] = a1\n  3691: u64 [a5 + 0xc8] = a0\n  3695: a0 = s1 + 0x300\n  3699: a1 = s1 + 0x7ff\n  3703: a1 = a1 + 0x1e1\n  3707: ra = 100, jump @11\n      : @125 [@dyn 50] (gas: 21)\n  3712: a1 = s1 + 0x300\n  3716: a0 = u64 [a1 + 0x18]\n  3719: t0 = u64 [s1 + 0x300]\n  3723: a2 = u64 [a1 + 0x10]\n  3726: a3 = u64 [a1 + 0x8]\n  3729: a5 = u64 [s1 + 0x90]\n  3733: a4 = a0 ^ a5\n  3736: a1 = a0 <u a5\n  3739: a0 = u64 [s1 + 0x88]\n  3743: a5 = a2 <u a0\n  3746: a5 = a1 if a4 != 0\n  3749: a1 = u64 [s1 + 0x80]\n  3753: t1 = a3 ^ a1\n  3756: a3 = a3 <u a1\n  3759: a1 = u64 [s1 + 0x78]\n  3762: a1 = t0 <u a1\n  3765: a1 = a3 if t1 != 0\n  3768: a0 = a0 ^ a2\n  3771: a0 = a0 | a4\n  3774: a1 = a5 if a0 != 0\n  3777: jump @243 if a1 != 0\n      : @126 (gas: 5)\n  3781: a0 = u64 [s1 + 0x70]\n  3784: ra = 0x66\n  3787: ecalli 4 // 'caller'\n  3789: t0 = 0x68\n  3792: jump @432\n      : @127 [@dyn 51] (gas: 1)\n  3795: t0 = 104, jump @432\n      : @128 [@dyn 52] (gas: 6)\n  3800: u64 [s1 + 760] = 0\n  3804: u64 [s1 + 0x2f0] = a2\n  3808: u64 [s1 + 0x2e8] = a0\n  3812: a0 = s1 + 0x2e0\n  3816: u64 [s1 + 0x2e0] = a1\n  3820: ra = 106, jump @344\n      : @129 [@dyn 53] (gas: 5)\n  3825: a0 = u64 [s1 + 0x70]\n  3828: ra = 0x6c\n  3831: ecalli 4 // 'caller'\n  3833: t0 = 0x6e\n  3836: jump @426\n      : @130 [@dyn 54] (gas: 1)\n  3839: t0 = 110, jump @426\n      : @131 [@dyn 55] (gas: 8)\n  3844: u64 [s1 + 728] = 0\n  3848: a2 = s1 + 0x200\n  3852: u64 [a2 + 0xd0] = a1\n  3856: u64 [a2 + 0xc8] = a0\n  3860: a1 = s1 + 0x2c0\n  3864: u64 [a2 + 0xc0] = a3\n  3868: a0 = 0\n  3870: ra = 112, jump @9\n      : @132 [@dyn 56] (gas: 1)\n  3875: t0 = 114, jump @436\n      : @133 [@dyn 57] (gas: 1)\n  3880: ra = 116, jump @9\n      : @134 [@dyn 58] (gas: 7)\n  3885: a0 = sp + 0xffffffffffffffe0\n  3888: a0 = a0 & 0xffffffffffffffe0\n  3891: u64 [s1 + 0x60] = a0\n  3894: sp = a0\n  3896: a0 = u64 [s1 + 0x68]\n  3899: a0 = i32 [a0]\n  3901: jump @136 if a0 >u 63\n      : @135 (gas: 3)\n  3905: a1 = u64 [s1 + 0x68]\n  3908: u32 [a1 + 0] = 0x40\n  3911: fallthrough\n      : @136 (gas: 12)\n  3912: a0 = sp + 0xffffffffffffffe0\n  3915: a0 = a0 & 0xffffffffffffffe0\n  3918: u64 [s1 + 0x30] = a0\n  3921: sp = a0\n  3923: i32 a2 = a0 + 0\n  3925: a1 = 0x40\n  3928: a0 = u64 [s1 + 0x58]\n  3931: ra = 0x76\n  3934: ecalli 8 // 'hash_keccak_256'\n  3936: a3 = u64 [s1 + 0x30]\n  3939: t0 = 0x78\n  3942: jump @435\n      : @137 [@dyn 59] (gas: 2)\n  3945: a3 = u64 [s1 + 0x30]\n  3948: t0 = 120, jump @435\n      : @138 [@dyn 60] (gas: 7)\n  3953: a1 = u64 [s1 + 0x60]\n  3956: u64 [a1 + 0x18] = a3\n  3959: u64 [a1 + 0x10] = a2\n  3962: u64 [a1 + 0x8] = a4\n  3965: u64 [a1] = a0\n  3967: a0 = s1 + 0x280\n  3971: ra = 122, jump @11\n      : @139 [@dyn 61] (gas: 20)\n  3976: a3 = u64 [s1 + 0x280]\n  3980: a0 = u64 [s1 + 0x288]\n  3984: a1 = u64 [s1 + 0x290]\n  3988: a2 = u64 [s1 + 0x298]\n  3992: a4 = u64 [s1 + 0x90]\n  3996: u64 [s1 + 0x238] = a4\n  4000: a4 = u64 [s1 + 0x88]\n  4004: u64 [s1 + 0x230] = a4\n  4008: a4 = u64 [s1 + 0x80]\n  4012: u64 [s1 + 0x228] = a4\n  4016: a4 = u64 [s1 + 0x78]\n  4019: u64 [s1 + 0x220] = a4\n  4023: u64 [s1 + 0x258] = a2\n  4027: u64 [s1 + 0x250] = a1\n  4031: u64 [s1 + 0x248] = a0\n  4035: a0 = s1 + 0x260\n  4039: a1 = s1 + 0x240\n  4043: a2 = s1 + 0x220\n  4047: u64 [s1 + 0x240] = a3\n  4051: ra = 124, jump @315\n      : @140 [@dyn 62] (gas: 16)\n  4056: a4 = s1 + 0x200\n  4060: a0 = u64 [a4 + 0x78]\n  4063: a1 = u64 [a4 + 0x70]\n  4066: a2 = u64 [a4 + 0x68]\n  4069: a3 = u64 [a4 + 0x60]\n  4072: a4 = s1 + 0x7ff\n  4076: a4 = a4 + 0x19\n  4079: u64 [a4 + 0x200] = a0\n  4083: a0 = a4 + 0x100\n  4087: u64 [a0 + 0xf8] = a1\n  4091: u64 [a0 + 0xf0] = a2\n  4095: u64 [a0 + 0xe8] = a3\n  4099: a1 = s1 + 0x7ff\n  4103: a1 = a1 + 0x201\n  4107: a0 = u64 [s1 + 0x60]\n  4110: ra = 126, jump @12\n      : @141 [@dyn 63] (gas: 51)\n  4115: ecalli 10 // 'ref_time_left'\n  4117: a2 = u64 [s1 + 0x98]\n  4121: a1 = u64 [s1 + 0x48]\n  4124: u64 [a2 + 0x8] = a1\n  4127: a1 = u64 [s1 + 0x50]\n  4130: u64 [a2] = a1\n  4132: a1 = u64 [s1 + 0x40]\n  4135: u32 [a2 + 0x10] = a1\n  4138: a1 = u64 [s1 + 0x90]\n  4142: a3 = s1 + 0x7ff\n  4146: a3 = a3 + 0x19\n  4149: a4 = a3 + 0x200\n  4153: u64 [a4 + 0x20] = a1\n  4156: a1 = u64 [s1 + 0x88]\n  4160: u64 [a4 + 0x18] = a1\n  4163: a1 = u64 [s1 + 0x80]\n  4167: u64 [a4 + 0x10] = a1\n  4170: a1 = u64 [s1 + 0x78]\n  4173: u64 [a4 + 0x8] = a1\n  4176: u32 [a3 + 552] = 0\n  4180: a0 = a0 >u 0x8fc\n  4184: a1 = -a0\n  4186: u64 [a4 + 0x60] = a1\n  4189: u64 [a4 + 0x58] = a1\n  4192: u64 [a4 + 0x50] = a1\n  4195: u64 [a4 + 0x48] = a1\n  4198: a1 = a2 << 0x20\n  4201: a1 = a1 >> 0x20\n  4204: a0 = a0 << 0x23\n  4207: a0 = a0 | a1\n  4210: a1 = s1 + 0x7ff\n  4214: a1 = a1 + 0x221\n  4218: a1 = a1 << 0x20\n  4221: a1 = a1 >> 0x20\n  4224: a2 = s1 + 0x7ff\n  4228: a2 = a2 + 0x261\n  4232: a2 = a2 << 0x20\n  4235: a3 = a2 | a1\n  4238: a4 = u64 [s1 + 0x38]\n  4241: a4 = a4 << 0x20\n  4244: a4 = a4 >> 0x20\n  4247: a1 = s1 + 0x7ff\n  4251: a1 = a1 + 0x241\n  4255: a1 = a1 << 0x20\n  4258: a5 = a1 | a4\n  4261: a1 = 0xffffffffffffffff\n  4264: a2 = 0xffffffffffffffff\n  4267: ecalli 0 // 'call'\n  4268: u64 [s1 + 0x60] = a0\n  4271: a0 = s1 + 0x200\n  4275: ra = 128, jump @322\n      : @142 [@dyn 64] (gas: 2)\n  4281: a0 = u64 [s1 + 0x60]\n  4284: jump @260 if a0 != 0\n      : @143 (gas: 3)\n  4288: a0 = s1 + 0x1c0\n  4292: a1 = 0x40\n  4295: ra = 130, jump @7\n      : @144 [@dyn 65] (gas: 6)\n  4301: a4 = s1 + 0x100\n  4305: a0 = u64 [a4 + 0xd8]\n  4309: a1 = u64 [a4 + 0xd0]\n  4313: a2 = u64 [a4 + 0xc8]\n  4317: a3 = u64 [a4 + 0xc0]\n  4321: t0 = 132, jump @429\n      : @145 [@dyn 66] (gas: 1)\n  4327: jump @227 if a0 != 0\n      : @146 (gas: 12)\n  4331: a0 = u64 [s1 + 0x78]\n  4334: u64 [s1 + 0x1a0] = a0\n  4338: a0 = u64 [s1 + 0x80]\n  4342: u64 [s1 + 0x1a8] = a0\n  4346: a0 = u64 [s1 + 0x88]\n  4350: u64 [s1 + 0x1b0] = a0\n  4354: a1 = s1 + 0x1a0\n  4358: a0 = u64 [s1 + 0x90]\n  4362: u64 [s1 + 0x1b8] = a0\n  4366: a0 = a3\n  4368: u64 [s1 + 0x90] = a3\n  4372: ra = 134, jump @9\n      : @147 [@dyn 67] (gas: 5)\n  4378: a0 = u64 [s1 + 0x70]\n  4381: ra = 0x88\n  4385: ecalli 4 // 'caller'\n  4387: t0 = 0x8a\n  4391: jump @433\n      : @148 [@dyn 68] (gas: 1)\n  4394: t0 = 138, jump @433\n      : @149 [@dyn 69] (gas: 25)\n  4400: t0 = a1 | a0\n  4403: a3 = a3 >> 0x20\n  4406: a2 = reverse a2\n  4408: a1 = a2 << 0x20\n  4411: a1 = a1 | a3\n  4414: a2 = a2 >> 0x20\n  4417: u64 [s1 + 376] = 0\n  4421: a3 = u64 [0x20040]\n  4426: a4 = u64 [0x20048]\n  4431: a5 = u64 [0x20050]\n  4436: a0 = u64 [0x20058]\n  4441: u64 [s1 + 0x198] = a3\n  4445: a3 = s1 + 0x100\n  4449: u64 [a3 + 0x90] = a4\n  4453: u64 [a3 + 0x88] = a5\n  4457: u64 [a3 + 0x80] = a0\n  4461: u64 [a3 + 0x70] = a2\n  4464: u64 [a3 + 0x68] = a1\n  4467: a1 = 0x20\n  4470: a2 = s1 + 0x180\n  4474: a3 = s1 + 0x160\n  4478: u64 [s1 + 0x160] = t0\n  4482: a0 = u64 [s1 + 0x90]\n  4486: ra = 0xd6\n  4490: jump @13\n      : @150 (gas: 8)\n  4493: u64 [a2 + 1152] = 0\n  4497: u64 [a2 + 1144] = 0\n  4501: u64 [a2 + 1136] = 0\n  4505: u64 [a2 + 1128] = 0\n  4509: a0 = s1 + 0x1000\n  4513: i32 a0 = a0 + 0xfffffffffffffc80\n  4517: ecalli 16 // 'value_transferred'\n  4519: fallthrough\n      : @151 (gas: 11)\n  4520: a3 = s1 + 0x7ff\n  4524: a3 = a3 + 0x19\n  4527: a4 = a3 + 0x400\n  4531: a0 = u64 [a4 + 0x78]\n  4534: a1 = u64 [a4 + 0x80]\n  4538: a2 = u64 [a4 + 0x70]\n  4541: a3 = u64 [a4 + 0x68]\n  4544: a1 = a1 | a2\n  4547: a0 = a0 | a3\n  4550: a0 = a0 | a1\n  4553: jump @244 if a0 != 0\n      : @152 (gas: 3)\n  4557: a0 = u64 [s1 + 0x98]\n  4561: a0 = i32 [a0]\n  4563: jump @245 if a0 <=u 35\n      : @153 (gas: 6)\n  4568: a0 = s1 + 0x1000\n  4572: i32 a0 = a0 + 0xfffffffffffffca0\n  4576: a1 = 0x4\n  4579: ra = 0x8c\n  4583: ecalli 2 // 'call_data_load'\n  4585: fallthrough\n      : @154 [@dyn 70] (gas: 5)\n  4586: a4 = s1 + 0x7ff\n  4590: a4 = a4 + 0x19\n  4593: a1 = u64 [a4 + 0x498]\n  4597: a0 = u64 [a4 + 0x4a0]\n  4601: t0 = 142, jump @431\n      : @155 [@dyn 71] (gas: 1)\n  4607: jump @246 if a3 == 0\n      : @156 (gas: 10)\n  4611: a2 = u64 [a4 + 0x490]\n  4615: a3 = u64 [a4 + 0x488]\n  4619: u64 [a4 + 0xc8] = a3\n  4623: u64 [a4 + 0xd0] = a2\n  4627: u64 [a4 + 0xd8] = a1\n  4631: a1 = s1 + 0x7ff\n  4635: a1 = a1 + 0xe1\n  4639: u64 [a4 + 0xe0] = a0\n  4643: a0 = 0\n  4645: ra = 144, jump @9\n      : @157 [@dyn 72] (gas: 11)\n  4651: a0 = s1 + 0x7ff\n  4655: a0 = a0 + 0x19\n  4658: u64 [a0 + 192] = 0\n  4662: u64 [a0 + 184] = 0\n  4666: u64 [a0 + 176] = 0\n  4670: a2 = a0\n  4672: a0 = 0x20\n  4675: a1 = s1 + 0x7ff\n  4679: a1 = a1 + 0xc1\n  4683: u64 [a2 + 168] = 0\n  4687: ra = 146, jump @9\n      : @158 [@dyn 73] (gas: 2)\n  4693: a1 = i32 [0x20068]\n  4698: jump @160 if a1 >u 63\n      : @159 (gas: 2)\n  4702: u32 [0x20068] = 0x40\n  4708: fallthrough\n      : @160 (gas: 13)\n  4709: a0 = sp + 0xffffffffffffffe0\n  4712: a2 = a0 & 0xffffffffffffffe0\n  4715: u64 [s1 + 0x98] = a2\n  4719: sp = a2\n  4721: a0 = 0x20070\n  4726: i32 a0 = a0 + 0\n  4728: i32 a2 = a2 + 0\n  4730: a1 = 0x40\n  4733: ra = 0x94\n  4737: ecalli 8 // 'hash_keccak_256'\n  4739: a3 = u64 [s1 + 0x98]\n  4743: t0 = 0x96\n  4747: jump @427\n      : @161 [@dyn 74] (gas: 2)\n  4750: a3 = u64 [s1 + 0x98]\n  4754: t0 = 150, jump @427\n      : @162 [@dyn 75] (gas: 10)\n  4760: a5 = a4 + 0x400\n  4764: u64 [a5 + 0xc0] = a3\n  4768: u64 [a5 + 0xb8] = a2\n  4772: u64 [a5 + 0xb0] = a1\n  4776: u64 [a5 + 0xa8] = a0\n  4780: a0 = s1 + 0x7ff\n  4784: a0 = a0 + 0xa1\n  4788: a1 = s1 + 0x7ff\n  4792: a1 = a1 + 0x4c1\n  4796: ra = 152, jump @11\n      : @163 [@dyn 76] (gas: 14)\n  4802: a1 = s1 + 0x7ff\n  4806: a1 = a1 + 0x19\n  4809: a0 = u64 [a1 + 0xa0]\n  4813: u64 [s1 + 0x98] = a0\n  4817: a0 = u64 [a1 + 0x98]\n  4821: u64 [s1 + 0x90] = a0\n  4825: a0 = u64 [a1 + 0x90]\n  4829: u64 [s1 + 0x88] = a0\n  4833: a0 = u64 [a1 + 0x88]\n  4837: u64 [s1 + 0x80] = a0\n  4841: a0 = s1 + 0x7ff\n  4845: a0 = a0 + 0x81\n  4849: a1 = 0x40\n  4852: ra = 154, jump @7\n      : @164 [@dyn 77] (gas: 14)\n  4858: a3 = s1 + 0x7ff\n  4862: a3 = a3 + 0x19\n  4865: a0 = u64 [a3 + 0x80]\n  4869: a1 = u64 [a3 + 0x78]\n  4872: a2 = u64 [a3 + 0x70]\n  4875: a4 = u64 [a3 + 0x68]\n  4878: a0 = a0 | a2\n  4881: a2 = a4 | a1\n  4884: a2 = a2 | a0\n  4887: a2 = a2 >> 0x20\n  4890: a0 = a0 | a1\n  4893: a0 = a0 << 0x20\n  4896: a0 = a0 | a2\n  4899: jump @227 if a0 != 0\n      : @165 (gas: 14)\n  4903: a0 = u64 [s1 + 0x80]\n  4907: u64 [a3 + 0x48] = a0\n  4910: a0 = u64 [s1 + 0x88]\n  4914: u64 [a3 + 0x50] = a0\n  4917: a0 = u64 [s1 + 0x90]\n  4921: u64 [a3 + 0x58] = a0\n  4924: a1 = s1 + 0x7ff\n  4928: a1 = a1 + 0x61\n  4931: a0 = u64 [s1 + 0x98]\n  4935: u64 [a3 + 0x60] = a0\n  4938: a0 = a4\n  4940: u64 [s1 + 0x98] = a4\n  4944: ra = 0xb2\n  4948: jump @9\n      : @166 (gas: 8)\n  4951: u64 [a2 + 960] = 0\n  4955: u64 [a2 + 952] = 0\n  4959: u64 [a2 + 944] = 0\n  4963: u64 [a2 + 936] = 0\n  4967: a0 = s1 + 0x1000\n  4971: i32 a0 = a0 + 0xfffffffffffffbc0\n  4975: ecalli 16 // 'value_transferred'\n  4977: fallthrough\n      : @167 (gas: 11)\n  4978: a3 = s1 + 0x7ff\n  4982: a3 = a3 + 0x19\n  4985: a4 = a3 + 0x300\n  4989: a0 = u64 [a4 + 0xb8]\n  4993: a1 = u64 [a4 + 0xc0]\n  4997: a2 = u64 [a4 + 0xb0]\n  5001: a3 = u64 [a4 + 0xa8]\n  5005: a1 = a1 | a2\n  5008: a0 = a0 | a3\n  5011: a0 = a0 | a1\n  5014: jump @247 if a0 != 0\n      : @168 (gas: 3)\n  5018: a0 = u64 [s1 + 0x98]\n  5022: a0 = i32 [a0]\n  5024: jump @248 if a0 <=u 3\n      : @169 (gas: 3)\n  5029: a0 = s1 + 0x5e0\n  5033: a1 = 0x40\n  5036: ra = 156, jump @7\n      : @170 [@dyn 78] (gas: 10)\n  5042: a1 = s1 + 0x500\n  5046: a0 = u64 [a1 + 0xf8]\n  5050: u64 [s1 + 0x98] = a0\n  5054: a0 = u64 [a1 + 0xf0]\n  5058: u64 [s1 + 0x90] = a0\n  5062: a0 = u64 [a1 + 0xe8]\n  5066: u64 [s1 + 0x80] = a0\n  5070: a0 = u64 [a1 + 0xe0]\n  5074: u64 [s1 + 0x88] = a0\n  5078: ra = 158, jump @0\n      : @171 [@dyn 79] (gas: 13)\n  5084: a0 = u64 [s1 + 0x98]\n  5088: a1 = u64 [s1 + 0x80]\n  5092: a0 = a0 | a1\n  5095: a1 = u64 [s1 + 0x88]\n  5099: a3 = a1\n  5101: a2 = u64 [s1 + 0x90]\n  5105: a1 = a1 | a2\n  5108: a1 = a1 | a0\n  5111: a1 = a1 >> 0x20\n  5114: a0 = a0 | a2\n  5117: a0 = a0 << 0x20\n  5120: a0 = a0 | a1\n  5123: jump @227 if a0 != 0\n      : @172 (gas: 12)\n  5127: a2 = u64 [0x300b0]\n  5132: a1 = u64 [0x300b8]\n  5137: a0 = u32 [0x300c0]\n  5142: u64 [s1 + 1496] = 0\n  5146: a4 = s1 + 0x500\n  5150: u64 [a4 + 0xd0] = a0\n  5154: u64 [a4 + 0xc8] = a1\n  5158: a1 = s1 + 0x5c0\n  5162: u64 [a4 + 0xc0] = a2\n  5166: a0 = a3\n  5168: ra = 0xee\n  5172: jump @9\n      : @173 (gas: 1)\n  5175: jump @249 if a0 != 1302766934\n      : @174 (gas: 8)\n  5183: u64 [a2 + 864] = 0\n  5187: u64 [a2 + 856] = 0\n  5191: u64 [a2 + 848] = 0\n  5195: u64 [a2 + 840] = 0\n  5199: a0 = s1 + 0x1000\n  5203: i32 a0 = a0 + 0xfffffffffffffb60\n  5207: ecalli 16 // 'value_transferred'\n  5209: fallthrough\n      : @175 (gas: 11)\n  5210: a3 = s1 + 0x7ff\n  5214: a3 = a3 + 0x19\n  5217: a4 = a3 + 0x300\n  5221: a0 = u64 [a4 + 0x58]\n  5224: a1 = u64 [a4 + 0x60]\n  5227: a2 = u64 [a4 + 0x50]\n  5230: a3 = u64 [a4 + 0x48]\n  5233: a1 = a1 | a2\n  5236: a0 = a0 | a3\n  5239: a0 = a0 | a1\n  5242: jump @264 if a0 != 0\n      : @176 (gas: 3)\n  5246: a0 = u64 [s1 + 0x98]\n  5250: a0 = i32 [a0]\n  5252: jump @253 if a0 <=u 35\n      : @177 (gas: 6)\n  5257: a0 = s1 + 0x1000\n  5261: i32 a0 = a0 + 0xfffffffffffffb80\n  5265: a1 = 0x4\n  5268: ra = 0xa0\n  5272: ecalli 2 // 'call_data_load'\n  5274: fallthrough\n      : @178 [@dyn 80] (gas: 5)\n  5275: a4 = s1 + 0x7ff\n  5279: a4 = a4 + 0x19\n  5282: a1 = u64 [a4 + 0x378]\n  5286: a0 = u64 [a4 + 0x380]\n  5290: t0 = 162, jump @431\n      : @179 [@dyn 81] (gas: 1)\n  5296: jump @265 if a3 == 0\n      : @180 (gas: 10)\n  5300: a2 = u64 [a4 + 0x370]\n  5304: a3 = u64 [a4 + 0x368]\n  5308: a4 = s1 + 0x500\n  5312: u64 [a4 + 0xa0] = a3\n  5316: u64 [a4 + 0xa8] = a2\n  5320: u64 [a4 + 0xb0] = a1\n  5324: a1 = s1 + 0x5a0\n  5328: u64 [a4 + 0xb8] = a0\n  5332: a0 = 0\n  5334: ra = 164, jump @9\n      : @181 [@dyn 82] (gas: 7)\n  5340: u64 [s1 + 1432] = 0\n  5344: u64 [s1 + 1424] = 0\n  5348: u64 [s1 + 1416] = 0\n  5352: a0 = 0x20\n  5355: a1 = s1 + 0x580\n  5359: u64 [s1 + 1408] = 0\n  5363: ra = 166, jump @9\n      : @182 [@dyn 83] (gas: 2)\n  5369: a1 = i32 [0x20068]\n  5374: jump @184 if a1 >u 63\n      : @183 (gas: 2)\n  5378: u32 [0x20068] = 0x40\n  5384: fallthrough\n      : @184 (gas: 13)\n  5385: a0 = sp + 0xffffffffffffffe0\n  5388: a2 = a0 & 0xffffffffffffffe0\n  5391: u64 [s1 + 0x98] = a2\n  5395: sp = a2\n  5397: a0 = 0x20070\n  5402: i32 a0 = a0 + 0\n  5404: i32 a2 = a2 + 0\n  5406: a1 = 0x40\n  5409: ra = 0xa8\n  5413: ecalli 8 // 'hash_keccak_256'\n  5415: a3 = u64 [s1 + 0x98]\n  5419: t0 = 0xaa\n  5423: jump @427\n      : @185 [@dyn 84] (gas: 2)\n  5426: a3 = u64 [s1 + 0x98]\n  5430: t0 = 170, jump @427\n      : @186 [@dyn 85] (gas: 9)\n  5436: a5 = a4 + 0x300\n  5440: u64 [a5 + 0xa0] = a3\n  5444: u64 [a5 + 0x98] = a2\n  5448: u64 [a5 + 0x90] = a1\n  5452: u64 [a5 + 0x88] = a0\n  5456: a0 = s1 + 0x560\n  5460: a1 = s1 + 0x7ff\n  5464: a1 = a1 + 0x3a1\n  5468: ra = 172, jump @11\n      : @187 [@dyn 86] (gas: 11)\n  5474: a0 = u64 [s1 + 0x578]\n  5478: u64 [s1 + 0x98] = a0\n  5482: a0 = u64 [s1 + 0x570]\n  5486: u64 [s1 + 0x90] = a0\n  5490: a0 = u64 [s1 + 0x568]\n  5494: u64 [s1 + 0x88] = a0\n  5498: a0 = u64 [s1 + 0x560]\n  5502: u64 [s1 + 0x80] = a0\n  5506: a0 = s1 + 0x540\n  5510: a1 = 0x40\n  5513: ra = 174, jump @7\n      : @188 [@dyn 87] (gas: 6)\n  5519: a4 = s1 + 0x500\n  5523: a0 = u64 [a4 + 0x58]\n  5526: a1 = u64 [a4 + 0x50]\n  5529: a2 = u64 [a4 + 0x48]\n  5532: a3 = u64 [a4 + 0x40]\n  5535: t0 = 176, jump @429\n      : @189 [@dyn 88] (gas: 1)\n  5541: jump @227 if a0 != 0\n      : @190 (gas: 13)\n  5545: a0 = u64 [s1 + 0x80]\n  5549: a2 = s1 + 0x500\n  5553: u64 [a2 + 0x20] = a0\n  5556: a0 = u64 [s1 + 0x88]\n  5560: u64 [a2 + 0x28] = a0\n  5563: a0 = u64 [s1 + 0x90]\n  5567: u64 [a2 + 0x30] = a0\n  5570: a1 = s1 + 0x520\n  5574: a0 = u64 [s1 + 0x98]\n  5578: u64 [a2 + 0x38] = a0\n  5581: a0 = a3\n  5583: u64 [s1 + 0x98] = a3\n  5587: ra = 178, jump @9\n      : @191 [@dyn 89] (gas: 4)\n  5593: a1 = 0x20\n  5596: a0 = u64 [s1 + 0x98]\n  5600: ra = 0xf0\n  5604: jump @15\n      : @192 (gas: 3)\n  5607: a0 = u64 [s1 + 0x98]\n  5611: a0 = i32 [a0]\n  5613: jump @254 if a0 <=u 35\n      : @193 (gas: 16)\n  5618: a0 = s1 + 0x1000\n  5622: i32 a0 = a0 + 0xfffffffffffffc00\n  5626: a1 = 0x4\n  5629: ecalli 2 // 'call_data_load'\n  5631: a1 = s1 + 0x7ff\n  5635: a1 = a1 + 0x19\n  5638: a0 = u64 [a1 + 0x400]\n  5642: u64 [s1 + 0x90] = a0\n  5646: a2 = a1 + 0x300\n  5650: a0 = u64 [a2 + 0xf8]\n  5654: u64 [s1 + 0x88] = a0\n  5658: a0 = u64 [a2 + 0xf0]\n  5662: u64 [s1 + 0x80] = a0\n  5666: a0 = u64 [a2 + 0xe8]\n  5670: u64 [s1 + 0x78] = a0\n  5673: ra = 180, jump @0\n      : @194 [@dyn 90] (gas: 12)\n  5679: a1 = u64 [0x300b8]\n  5684: u64 [s1 + 0x68] = a1\n  5687: a1 = u64 [0x300b0]\n  5692: u64 [s1 + 0x60] = a1\n  5695: a0 = u32 [0x300c0]\n  5700: u64 [s1 + 0x58] = a0\n  5703: a0 = 0x30070\n  5708: u64 [s1 + 0x98] = a0\n  5712: i32 a0 = a0 + 0\n  5714: u64 [s1 + 0x70] = a0\n  5717: ecalli 4 // 'caller'\n  5719: fallthrough\n      : @195 (gas: 23)\n  5720: a2 = u64 [s1 + 0x98]\n  5724: a0 = u64 [a2 + 0x8]\n  5727: a1 = u64 [a2]\n  5729: a2 = i32 [a2 + 0x10]\n  5732: a0 = reverse a0\n  5734: a3 = a0 >> 0x20\n  5737: a1 = reverse a1\n  5739: a4 = a1 << 0x20\n  5742: a3 = a3 | a4\n  5745: a0 = a0 << 0x20\n  5748: a2 = reverse a2\n  5750: a2 = a2 >> 0x20\n  5753: a0 = a0 | a2\n  5756: a1 = a1 >> 0x20\n  5759: a2 = u64 [s1 + 0x58]\n  5762: a1 = a1 ^ a2\n  5765: a2 = u64 [s1 + 0x60]\n  5768: a0 = a0 ^ a2\n  5771: a0 = a0 | a1\n  5774: a1 = u64 [s1 + 0x68]\n  5777: a1 = a1 ^ a3\n  5780: a0 = a0 | a1\n  5783: jump @266 if a0 != 0\n      : @196 (gas: 10)\n  5787: a0 = s1 + 0x7ff\n  5791: a0 = a0 + 0x19\n  5794: u64 [a0 + 1056] = 0\n  5798: u64 [a0 + 1048] = 0\n  5802: u64 [a0 + 1040] = 0\n  5806: u64 [a0 + 1032] = 0\n  5810: a0 = s1 + 0x1000\n  5814: i32 a0 = a0 + 0xfffffffffffffc20\n  5818: ecalli 16 // 'value_transferred'\n  5820: fallthrough\n      : @197 (gas: 19)\n  5821: a2 = s1 + 0x7ff\n  5825: a2 = a2 + 0x19\n  5828: a3 = a2 + 0x400\n  5832: a0 = u64 [a3 + 0x20]\n  5835: a1 = u64 [a3 + 0x10]\n  5838: t0 = u64 [a2 + 0x408]\n  5842: a2 = u64 [a3 + 0x18]\n  5845: t1 = u64 [s1 + 0x90]\n  5849: a0 = a0 ^ t1\n  5852: a3 = u64 [s1 + 0x80]\n  5856: a1 = a1 ^ a3\n  5859: a0 = a0 | a1\n  5862: a5 = u64 [s1 + 0x88]\n  5866: a1 = a2 ^ a5\n  5869: a4 = u64 [s1 + 0x78]\n  5872: a2 = t0 ^ a4\n  5875: a1 = a1 | a2\n  5878: a0 = a0 | a1\n  5881: jump @270 if a0 != 0\n      : @198 (gas: 4)\n  5885: a0 = a4 | a5\n  5888: a1 = a3 | t1\n  5891: a0 = a0 | a1\n  5894: jump @274 if a0 == 0\n      : @199 (gas: 5)\n  5898: a0 = u64 [s1 + 0x70]\n  5901: ra = 0xb6\n  5905: ecalli 4 // 'caller'\n  5907: t0 = 0xb8\n  5911: jump @432\n      : @200 [@dyn 91] (gas: 1)\n  5914: t0 = 184, jump @432\n      : @201 [@dyn 92] (gas: 6)\n  5920: u64 [s1 + 1944] = 0\n  5924: u64 [s1 + 0x790] = a2\n  5928: u64 [s1 + 0x788] = a0\n  5932: a0 = s1 + 0x780\n  5936: u64 [s1 + 0x780] = a1\n  5940: ra = 186, jump @344\n      : @202 [@dyn 93] (gas: 5)\n  5946: a0 = u64 [s1 + 0x70]\n  5949: ra = 0xbc\n  5953: ecalli 4 // 'caller'\n  5955: t0 = 0xbe\n  5959: jump @426\n      : @203 [@dyn 94] (gas: 1)\n  5962: t0 = 190, jump @426\n      : @204 [@dyn 95] (gas: 8)\n  5968: u64 [s1 + 1912] = 0\n  5972: a2 = s1 + 0x700\n  5976: u64 [a2 + 0x70] = a1\n  5979: u64 [a2 + 0x68] = a0\n  5982: a1 = s1 + 0x760\n  5986: u64 [a2 + 0x60] = a3\n  5989: a0 = 0\n  5991: ra = 192, jump @9\n      : @205 [@dyn 96] (gas: 7)\n  5997: u64 [s1 + 1880] = 0\n  6001: u64 [s1 + 1872] = 0\n  6005: u64 [s1 + 1864] = 0\n  6009: a0 = 0x20\n  6012: a1 = s1 + 0x740\n  6016: u64 [s1 + 1856] = 0\n  6020: ra = 194, jump @9\n      : @206 [@dyn 97] (gas: 7)\n  6026: a0 = sp + 0xffffffffffffffe0\n  6029: a0 = a0 & 0xffffffffffffffe0\n  6032: u64 [s1 + 0x68] = a0\n  6035: sp = a0\n  6037: a2 = 0x20068\n  6042: a0 = i32 [0x20068]\n  6047: jump @208 if a0 >u 63\n      : @207 (gas: 2)\n  6051: u32 [0x20068] = 0x40\n  6057: fallthrough\n      : @208 (gas: 15)\n  6058: u64 [s1 + 0x50] = a2\n  6061: a0 = sp + 0xffffffffffffffe0\n  6064: a2 = a0 & 0xffffffffffffffe0\n  6067: u64 [s1 + 0x60] = a2\n  6070: sp = a2\n  6072: a0 = 0x20070\n  6077: i32 a0 = a0 + 0\n  6079: i32 a2 = a2 + 0\n  6081: a1 = 0x40\n  6084: u64 [s1 + 0x58] = a0\n  6087: ra = 0xc4\n  6091: ecalli 8 // 'hash_keccak_256'\n  6093: a3 = u64 [s1 + 0x60]\n  6096: t0 = 0xc6\n  6100: jump @435\n      : @209 [@dyn 98] (gas: 2)\n  6103: a3 = u64 [s1 + 0x60]\n  6106: t0 = 198, jump @435\n      : @210 [@dyn 99] (gas: 7)\n  6112: a1 = u64 [s1 + 0x68]\n  6115: u64 [a1 + 0x18] = a3\n  6118: u64 [a1 + 0x10] = a2\n  6121: u64 [a1 + 0x8] = a4\n  6124: u64 [a1] = a0\n  6126: a0 = s1 + 0x720\n  6130: ra = 200, jump @11\n      : @211 [@dyn 100] (gas: 38)\n  6136: t2 = u64 [s1 + 0x738]\n  6140: a1 = s1 + 0x700\n  6144: a0 = u64 [a1 + 0x30]\n  6147: a4 = u64 [a1 + 0x20]\n  6150: a5 = u64 [a1 + 0x28]\n  6153: a1 = sp + 0xffffffffffffffe0\n  6156: a1 = a1 & 0xffffffffffffffe0\n  6159: sp = a1\n  6161: a3 = u64 [s1 + 0x80]\n  6165: a3 = a3 + a5\n  6168: t0 = u64 [s1 + 0x78]\n  6171: t0 = t0 + a4\n  6174: a4 = t0 <u a4\n  6177: a3 = a3 + a4\n  6180: t1 = a3 ^ a5\n  6183: a2 = a3 <u a5\n  6186: a2 = a4 if t1 == 0\n  6189: a4 = u64 [s1 + 0x88]\n  6193: a4 = a4 + a0\n  6196: a5 = a4 + a2\n  6199: t1 = a5 <u a4\n  6202: ra = u64 [s1 + 0x90]\n  6206: ra = ra + t2\n  6209: a4 = a4 <u a0\n  6212: a4 = a4 + ra\n  6215: ra = a4 + t1\n  6218: t1 = a5 <u a0\n  6221: a4 = t2 ^ ra\n  6224: t2 = ra <u t2\n  6227: t2 = t1 if a4 == 0\n  6230: a0 = a0 ^ a5\n  6233: a0 = a0 | a4\n  6236: t2 = a2 if a0 == 0\n  6239: u64 [a1 + 0x10] = a5\n  6242: u64 [a1 + 0x8] = a3\n  6245: u64 [a1] = t0\n  6247: u64 [a1 + 0x18] = ra\n  6250: jump @279 if t2 != 0\n      : @212 (gas: 2)\n  6254: a0 = u64 [s1 + 0x68]\n  6257: ra = 202, jump @12\n      : @213 [@dyn 101] (gas: 3)\n  6263: a0 = s1 + 0x700\n  6267: a1 = 0x40\n  6270: ra = 204, jump @7\n      : @214 [@dyn 102] (gas: 6)\n  6276: a4 = s1 + 0x700\n  6280: a0 = u64 [a4 + 0x18]\n  6283: a1 = u64 [a4 + 0x10]\n  6286: a2 = u64 [a4 + 0x8]\n  6289: a3 = u64 [a4]\n  6291: t0 = 206, jump @429\n      : @215 [@dyn 103] (gas: 1)\n  6297: jump @227 if a0 != 0\n      : @216 (gas: 12)\n  6301: a0 = u64 [s1 + 0x78]\n  6304: u64 [s1 + 0x6e0] = a0\n  6308: a0 = u64 [s1 + 0x80]\n  6312: u64 [s1 + 0x6e8] = a0\n  6316: a0 = u64 [s1 + 0x88]\n  6320: u64 [s1 + 0x6f0] = a0\n  6324: a1 = s1 + 0x6e0\n  6328: a0 = u64 [s1 + 0x90]\n  6332: u64 [s1 + 0x6f8] = a0\n  6336: a0 = a3\n  6338: u64 [s1 + 0x90] = a3\n  6342: ra = 208, jump @9\n      : @217 [@dyn 104] (gas: 5)\n  6348: a0 = u64 [s1 + 0x70]\n  6351: ra = 0xd2\n  6355: ecalli 4 // 'caller'\n  6357: t0 = 0xd4\n  6361: jump @433\n      : @218 [@dyn 105] (gas: 1)\n  6364: t0 = 212, jump @433\n      : @219 [@dyn 106] (gas: 24)\n  6370: t0 = a1 | a0\n  6373: a3 = a3 >> 0x20\n  6376: a2 = reverse a2\n  6378: a1 = a2 << 0x20\n  6381: a1 = a1 | a3\n  6384: a2 = a2 >> 0x20\n  6387: u64 [s1 + 1720] = 0\n  6391: a3 = u64 [0x20000]\n  6396: a4 = u64 [0x20008]\n  6401: a5 = u64 [0x20010]\n  6406: a0 = u64 [0x20018]\n  6411: u64 [s1 + 0x6d8] = a3\n  6415: a3 = s1 + 0x600\n  6419: u64 [a3 + 0xd0] = a4\n  6423: u64 [a3 + 0xc8] = a5\n  6427: u64 [a3 + 0xc0] = a0\n  6431: u64 [a3 + 0xb0] = a2\n  6435: u64 [a3 + 0xa8] = a1\n  6439: a1 = 0x20\n  6442: a2 = s1 + 0x6c0\n  6446: a3 = s1 + 0x6a0\n  6450: u64 [s1 + 0x6a0] = t0\n  6454: a0 = u64 [s1 + 0x90]\n  6458: ra = 214, jump @13\n      : @220 [@dyn 107] (gas: 5)\n  6464: a0 = 0\n  6466: a1 = u64 [s1 + 0x58]\n  6469: a2 = 0\n  6471: ecalli 13 // 'seal_return'\n  6473: jump @293\n      : @221 (gas: 8)\n  6476: u64 [a2 + 992] = 0\n  6480: u64 [a2 + 984] = 0\n  6484: u64 [a2 + 976] = 0\n  6488: u64 [a2 + 968] = 0\n  6492: a0 = s1 + 0x1000\n  6496: i32 a0 = a0 + 0xfffffffffffffbe0\n  6500: ecalli 16 // 'value_transferred'\n  6502: fallthrough\n      : @222 (gas: 11)\n  6503: a3 = s1 + 0x7ff\n  6507: a3 = a3 + 0x19\n  6510: a4 = a3 + 0x300\n  6514: a0 = u64 [a4 + 0xd8]\n  6518: a1 = u64 [a4 + 0xe0]\n  6522: a2 = u64 [a4 + 0xd0]\n  6526: a3 = u64 [a4 + 0xc8]\n  6530: a1 = a1 | a2\n  6533: a0 = a0 | a3\n  6536: a0 = a0 | a1\n  6539: jump @284 if a0 != 0\n      : @223 (gas: 3)\n  6543: a0 = u64 [s1 + 0x98]\n  6547: a0 = i32 [a0]\n  6549: jump @255 if a0 <=u 3\n      : @224 (gas: 3)\n  6554: a0 = s1 + 0x620\n  6558: a1 = 0x40\n  6561: ra = 216, jump @7\n      : @225 [@dyn 108] (gas: 10)\n  6567: a1 = s1 + 0x600\n  6571: a0 = u64 [a1 + 0x38]\n  6574: u64 [s1 + 0x98] = a0\n  6578: a0 = u64 [a1 + 0x30]\n  6581: u64 [s1 + 0x90] = a0\n  6585: a0 = u64 [a1 + 0x28]\n  6588: u64 [s1 + 0x80] = a0\n  6592: a0 = u64 [a1 + 0x20]\n  6595: u64 [s1 + 0x88] = a0\n  6599: ra = 218, jump @0\n      : @226 [@dyn 109] (gas: 13)\n  6605: a0 = u64 [s1 + 0x98]\n  6609: a1 = u64 [s1 + 0x80]\n  6613: a0 = a0 | a1\n  6616: a1 = u64 [s1 + 0x88]\n  6620: a4 = a1\n  6622: a2 = u64 [s1 + 0x90]\n  6626: a1 = a1 | a2\n  6629: a1 = a1 | a0\n  6632: a1 = a1 >> 0x20\n  6635: a0 = a0 | a2\n  6638: a0 = a0 << 0x20\n  6641: a0 = a0 | a1\n  6644: jump @285 if a0 == 0\n      : @227 (gas: 1)\n  6648: trap\n      : @228 (gas: 6)\n  6649: a1 = 0x20070\n  6654: i32 a1 = a1 + 0\n  6656: a0 = 0x1\n  6659: a2 = 0\n  6661: ecalli 13 // 'seal_return'\n  6663: jump @293\n      : @229 (gas: 6)\n  6666: a1 = 0x20070\n  6671: i32 a1 = a1 + 0\n  6673: a0 = 0x1\n  6676: a2 = 0\n  6678: ecalli 13 // 'seal_return'\n  6680: jump @293\n      : @230 (gas: 6)\n  6683: a1 = 0x20070\n  6688: i32 a1 = a1 + 0\n  6690: a0 = 0x1\n  6693: a2 = 0\n  6695: ecalli 13 // 'seal_return'\n  6697: jump @293\n      : @231 (gas: 6)\n  6700: a1 = 0x20070\n  6705: i32 a1 = a1 + 0\n  6707: a0 = 0x1\n  6710: a2 = 0\n  6712: ecalli 13 // 'seal_return'\n  6714: jump @293\n      : @232 (gas: 6)\n  6717: a1 = 0x20070\n  6722: i32 a1 = a1 + 0\n  6724: a0 = 0x1\n  6727: a2 = 0\n  6729: ecalli 13 // 'seal_return'\n  6731: jump @293\n      : @233 (gas: 6)\n  6734: a1 = 0x20070\n  6739: i32 a1 = a1 + 0\n  6741: a0 = 0x1\n  6744: a2 = 0\n  6746: ecalli 13 // 'seal_return'\n  6748: jump @293\n      : @234 (gas: 6)\n  6751: a1 = 0x20070\n  6756: i32 a1 = a1 + 0\n  6758: a0 = 0x1\n  6761: a2 = 0\n  6763: ecalli 13 // 'seal_return'\n  6765: jump @293\n      : @235 (gas: 8)\n  6768: u64 [s1 + 880] = 0\n  6772: u64 [s1 + 872] = 0\n  6776: u64 [s1 + 864] = 0\n  6780: a0 = 0xc39fa00400000000\n  6790: a1 = s1 + 0x360\n  6794: u64 [s1 + 0x378] = a0\n  6798: a0 = 0\n  6800: ra = 220, jump @9\n      : @236 [@dyn 110] (gas: 2)\n  6806: a1 = i32 [0x20068]\n  6811: jump @238 if a1 >u 31\n      : @237 (gas: 3)\n  6815: u32 [0x20068] = 0x20\n  6821: a1 = 0x20070\n  6826: jump @278\n      : @238 (gas: 2)\n  6829: a1 = 0x20070\n  6834: jump @278\n      : @239 (gas: 8)\n  6837: u64 [s1 + 304] = 0\n  6841: u64 [s1 + 296] = 0\n  6845: u64 [s1 + 288] = 0\n  6849: a0 = 0x2c5211c600000000\n  6859: a1 = s1 + 0x120\n  6863: u64 [s1 + 0x138] = a0\n  6867: a0 = 0\n  6869: ra = 222, jump @9\n      : @240 [@dyn 111] (gas: 2)\n  6875: a1 = i32 [0x20068]\n  6880: jump @242 if a1 >u 31\n      : @241 (gas: 3)\n  6884: u32 [0x20068] = 0x20\n  6890: a1 = 0x20070\n  6895: jump @278\n      : @242 (gas: 2)\n  6898: a1 = 0x20070\n  6903: jump @278\n      : @243 (gas: 9)\n  6906: u64 [s1 + 336] = 0\n  6910: u64 [s1 + 328] = 0\n  6914: u64 [s1 + 320] = 0\n  6918: a0 = 0xf4d678b800000000\n  6928: a1 = s1 + 0x140\n  6932: u64 [s1 + 0x158] = a0\n  6936: a0 = 0\n  6938: ra = 0xe2\n  6942: jump @9\n      : @244 (gas: 6)\n  6945: a1 = 0x20070\n  6950: i32 a1 = a1 + 0\n  6952: a0 = 0x1\n  6955: a2 = 0\n  6957: ecalli 13 // 'seal_return'\n  6959: jump @293\n      : @245 (gas: 6)\n  6962: a1 = 0x20070\n  6967: i32 a1 = a1 + 0\n  6969: a0 = 0x1\n  6972: a2 = 0\n  6974: ecalli 13 // 'seal_return'\n  6976: jump @293\n      : @246 (gas: 6)\n  6979: a1 = 0x20070\n  6984: i32 a1 = a1 + 0\n  6986: a0 = 0x1\n  6989: a2 = 0\n  6991: ecalli 13 // 'seal_return'\n  6993: jump @293\n      : @247 (gas: 6)\n  6996: a1 = 0x20070\n  7001: i32 a1 = a1 + 0\n  7003: a0 = 0x1\n  7006: a2 = 0\n  7008: ecalli 13 // 'seal_return'\n  7010: jump @293\n      : @248 (gas: 6)\n  7013: a1 = 0x20070\n  7018: i32 a1 = a1 + 0\n  7020: a0 = 0x1\n  7023: a2 = 0\n  7025: ecalli 13 // 'seal_return'\n  7027: jump @293\n      : @249 (gas: 1)\n  7030: jump @289 if a0 != 753512109\n      : @250 (gas: 10)\n  7038: a0 = s1 + 0x7ff\n  7042: a0 = a0 + 0x19\n  7045: u64 [a0 + 320] = 0\n  7049: u64 [a0 + 312] = 0\n  7053: u64 [a0 + 304] = 0\n  7057: u64 [a0 + 296] = 0\n  7061: a0 = s1 + 0x1000\n  7065: i32 a0 = a0 + 0xfffffffffffff940\n  7069: ecalli 16 // 'value_transferred'\n  7071: fallthrough\n      : @251 (gas: 11)\n  7072: a3 = s1 + 0x7ff\n  7076: a3 = a3 + 0x19\n  7079: a4 = a3 + 0x100\n  7083: a0 = u64 [a4 + 0x38]\n  7086: a1 = u64 [a4 + 0x40]\n  7089: a2 = u64 [a4 + 0x30]\n  7092: a3 = u64 [a4 + 0x28]\n  7095: a1 = a1 | a2\n  7098: a0 = a0 | a3\n  7101: a0 = a0 | a1\n  7104: jump @298 if a0 == 0\n      : @252 (gas: 6)\n  7108: a1 = 0x20070\n  7113: i32 a1 = a1 + 0\n  7115: a0 = 0x1\n  7118: a2 = 0\n  7120: ecalli 13 // 'seal_return'\n  7122: jump @293\n      : @253 (gas: 6)\n  7125: a1 = 0x20070\n  7130: i32 a1 = a1 + 0\n  7132: a0 = 0x1\n  7135: a2 = 0\n  7137: ecalli 13 // 'seal_return'\n  7139: jump @293\n      : @254 (gas: 6)\n  7142: a1 = 0x20070\n  7147: i32 a1 = a1 + 0\n  7149: a0 = 0x1\n  7152: a2 = 0\n  7154: ecalli 13 // 'seal_return'\n  7156: jump @293\n      : @255 (gas: 6)\n  7159: a1 = 0x20070\n  7164: i32 a1 = a1 + 0\n  7166: a0 = 0x1\n  7169: a2 = 0\n  7171: ecalli 13 // 'seal_return'\n  7173: jump @293\n      : @256 (gas: 8)\n  7176: u64 [s1 + 1296] = 0\n  7180: u64 [s1 + 1288] = 0\n  7184: u64 [s1 + 1280] = 0\n  7188: a0 = 0xc39fa00400000000\n  7198: a1 = s1 + 0x500\n  7202: u64 [s1 + 0x518] = a0\n  7206: a0 = 0\n  7208: ra = 224, jump @9\n      : @257 [@dyn 112] (gas: 2)\n  7214: a1 = i32 [0x20068]\n  7219: jump @259 if a1 >u 31\n      : @258 (gas: 3)\n  7223: u32 [0x20068] = 0x20\n  7229: a1 = 0x20070\n  7234: jump @278\n      : @259 (gas: 2)\n  7237: a1 = 0x20070\n  7242: jump @278\n      : @260 (gas: 8)\n  7245: u64 [s1 + 496] = 0\n  7249: u64 [s1 + 488] = 0\n  7253: u64 [s1 + 480] = 0\n  7257: a0 = 0x90b8ec1800000000\n  7267: a1 = s1 + 0x1e0\n  7271: u64 [s1 + 0x1f8] = a0\n  7275: a0 = 0\n  7277: ra = 226, jump @9\n      : @261 [@dyn 113] (gas: 3)\n  7283: a0 = u64 [s1 + 0x68]\n  7286: a0 = i32 [a0]\n  7288: jump @263 if a0 >u 31\n      : @262 (gas: 7)\n  7292: a1 = u64 [s1 + 0x68]\n  7295: u32 [a1 + 0] = 0x20\n  7298: a0 = 0x1\n  7301: a2 = 0x4\n  7304: a1 = u64 [s1 + 0x58]\n  7307: ecalli 13 // 'seal_return'\n  7309: jump @284\n      : @263 (gas: 5)\n  7312: a0 = 0x1\n  7315: a2 = 0x4\n  7318: a1 = u64 [s1 + 0x58]\n  7321: ecalli 13 // 'seal_return'\n  7323: jump @284\n      : @264 (gas: 6)\n  7326: a1 = 0x20070\n  7331: i32 a1 = a1 + 0\n  7333: a0 = 0x1\n  7336: a2 = 0\n  7338: ecalli 13 // 'seal_return'\n  7340: jump @293\n      : @265 (gas: 6)\n  7343: a1 = 0x20070\n  7348: i32 a1 = a1 + 0\n  7350: a0 = 0x1\n  7353: a2 = 0\n  7355: ecalli 13 // 'seal_return'\n  7357: jump @293\n      : @266 (gas: 8)\n  7360: u64 [s1 + 2000] = 0\n  7364: u64 [s1 + 1992] = 0\n  7368: u64 [s1 + 1984] = 0\n  7372: a0 = 0xc39fa00400000000\n  7382: a1 = s1 + 0x7c0\n  7386: u64 [s1 + 0x7d8] = a0\n  7390: a0 = 0\n  7392: ra = 228, jump @9\n      : @267 [@dyn 114] (gas: 2)\n  7398: a1 = i32 [0x20068]\n  7403: jump @269 if a1 >u 31\n      : @268 (gas: 3)\n  7407: u32 [0x20068] = 0x20\n  7413: a1 = 0x20070\n  7418: jump @278\n      : @269 (gas: 2)\n  7421: a1 = 0x20070\n  7426: jump @278\n      : @270 (gas: 8)\n  7429: u64 [s1 + 1968] = 0\n  7433: u64 [s1 + 1960] = 0\n  7437: u64 [s1 + 1952] = 0\n  7441: a0 = 0x2c5211c600000000\n  7451: a1 = s1 + 0x7a0\n  7455: u64 [s1 + 0x7b8] = a0\n  7459: a0 = 0\n  7461: ra = 230, jump @9\n      : @271 [@dyn 115] (gas: 2)\n  7467: a1 = i32 [0x20068]\n  7472: jump @273 if a1 >u 31\n      : @272 (gas: 3)\n  7476: u32 [0x20068] = 0x20\n  7482: a1 = 0x20070\n  7487: jump @278\n      : @273 (gas: 2)\n  7489: a1 = 0x20070\n  7494: jump @278\n      : @274 (gas: 8)\n  7496: u64 [s1 + 1616] = 0\n  7500: u64 [s1 + 1608] = 0\n  7504: u64 [s1 + 1600] = 0\n  7508: a0 = 0x2c5211c600000000\n  7518: a1 = s1 + 0x640\n  7522: u64 [s1 + 0x658] = a0\n  7526: a0 = 0\n  7528: ra = 232, jump @9\n      : @275 [@dyn 116] (gas: 2)\n  7534: a1 = i32 [0x20068]\n  7539: jump @277 if a1 >u 31\n      : @276 (gas: 3)\n  7543: u32 [0x20068] = 0x20\n  7549: a1 = 0x20070\n  7554: jump @278\n      : @277 (gas: 2)\n  7556: a1 = 0x20070\n  7561: fallthrough\n      : @278 (gas: 5)\n  7562: i32 a1 = a1 + 0\n  7564: a0 = 0x1\n  7567: a2 = 0x4\n  7570: ecalli 13 // 'seal_return'\n  7572: fallthrough\n      : @279 (gas: 8)\n  7573: u64 [s1 + 1680] = 0\n  7577: u64 [s1 + 1672] = 0\n  7581: u64 [s1 + 1664] = 0\n  7585: a0 = 0x4e487b7100000000\n  7595: a1 = s1 + 0x680\n  7599: u64 [s1 + 0x698] = a0\n  7603: a0 = 0\n  7605: ra = 234, jump @9\n      : @280 [@dyn 117] (gas: 7)\n  7611: u64 [s1 + 1656] = 0\n  7615: u64 [s1 + 1648] = 0\n  7619: u64 [s1 + 1632] = 0x11\n  7624: a0 = 0x4\n  7627: a1 = s1 + 0x660\n  7631: u64 [s1 + 1640] = 0\n  7635: ra = 236, jump @9\n      : @281 [@dyn 118] (gas: 3)\n  7641: a0 = u64 [s1 + 0x50]\n  7644: a0 = i32 [a0]\n  7646: jump @283 if a0 >u 63\n      : @282 (gas: 7)\n  7650: a1 = u64 [s1 + 0x50]\n  7653: u32 [a1 + 0] = 0x40\n  7656: a0 = 0x1\n  7659: a2 = 0x24\n  7662: a1 = u64 [s1 + 0x58]\n  7665: ecalli 13 // 'seal_return'\n  7667: jump @284\n      : @283 (gas: 5)\n  7669: a0 = 0x1\n  7672: a2 = 0x24\n  7675: a1 = u64 [s1 + 0x58]\n  7678: ecalli 13 // 'seal_return'\n  7680: fallthrough\n      : @284 (gas: 6)\n  7681: a1 = 0x20070\n  7686: i32 a1 = a1 + 0\n  7688: a0 = 0x1\n  7691: a2 = 0\n  7693: ecalli 13 // 'seal_return'\n  7695: jump @293\n      : @285 (gas: 12)\n  7697: a2 = u64 [0x30090]\n  7702: a1 = u64 [0x30098]\n  7707: a3 = u64 [0x300a0]\n  7712: a0 = u64 [0x300a8]\n  7717: a5 = s1 + 0x600\n  7721: u64 [a5 + 0x18] = a0\n  7724: u64 [a5 + 0x10] = a3\n  7727: u64 [a5 + 0x8] = a1\n  7730: a1 = s1 + 0x600\n  7734: u64 [a5] = a2\n  7736: a0 = a4\n  7738: ra = 238, jump @9\n      : @286 [@dyn 119] (gas: 3)\n  7744: a1 = 0x20\n  7747: a0 = u64 [s1 + 0x88]\n  7751: ra = 240, jump @15\n      : @287 [@dyn 120] (gas: 2)\n  7757: i32 a1 = a0 + 0\n  7759: fallthrough\n      : @288 (gas: 6)\n  7760: a2 = 0x20\n  7763: a0 = 0\n  7765: ecalli 13 // 'seal_return'\n  7767: a0 = u64 [s1 + 0x98]\n  7771: a0 = i32 [a0]\n  7773: jump @290\n      : @289 (gas: 3)\n  7775: a0 = u64 [s1 + 0x98]\n  7779: a0 = i32 [a0]\n  7781: fallthrough\n      : @290 (gas: 1)\n  7782: jump @293 if a0 == 0\n      : @291 (gas: 6)\n  7785: a1 = 0x20070\n  7790: i32 a1 = a1 + 0\n  7792: a0 = 0x1\n  7795: a2 = 0\n  7797: ecalli 13 // 'seal_return'\n  7799: jump @293\n      : @292 (gas: 5)\n  7801: i32 a1 = a1 + 0\n  7803: a0 = 0x1\n  7806: a2 = 0\n  7808: ecalli 13 // 'seal_return'\n  7810: fallthrough\n      : @293 (gas: 6)\n  7811: a1 = 0x20070\n  7816: i32 a1 = a1 + 0\n  7818: a0 = 0\n  7820: a2 = 0\n  7822: ecalli 13 // 'seal_return'\n  7824: jump @293\n      : @294 (gas: 8)\n  7826: u64 [s1 + 1104] = 0\n  7830: u64 [s1 + 1096] = 0\n  7834: u64 [s1 + 1088] = 0\n  7838: a0 = 0x90b8ec1800000000\n  7848: a1 = s1 + 0x440\n  7852: u64 [s1 + 0x458] = a0\n  7856: a0 = 0\n  7858: ra = 242, jump @9\n      : @295 [@dyn 121] (gas: 3)\n  7864: a0 = u64 [s1 + 0x20]\n  7867: a0 = i32 [a0]\n  7869: jump @297 if a0 >u 31\n      : @296 (gas: 3)\n  7873: a1 = u64 [s1 + 0x20]\n  7876: u32 [a1 + 0] = 0x20\n  7879: fallthrough\n      : @297 (gas: 5)\n  7880: a0 = 0x1\n  7883: a2 = 0x4\n  7886: a1 = u64 [s1 + 0x18]\n  7889: ecalli 13 // 'seal_return'\n  7891: fallthrough\n      : @298 (gas: 3)\n  7892: a0 = u64 [s1 + 0x98]\n  7896: a0 = i32 [a0]\n  7898: jump @300 if a0 >u 35\n      : @299 (gas: 2)\n  7902: a1 = 0x20070\n  7907: jump @292\n      : @300 (gas: 6)\n  7909: a0 = s1 + 0x1000\n  7913: i32 a0 = a0 + 0xfffffffffffff960\n  7917: a1 = 0x4\n  7920: ra = 0xf4\n  7924: ecalli 2 // 'call_data_load'\n  7926: fallthrough\n      : @301 [@dyn 122] (gas: 5)\n  7927: a0 = s1 + 0x7ff\n  7931: a0 = a0 + 0x19\n  7934: a1 = u64 [a0 + 0x158]\n  7938: a0 = u64 [a0 + 0x160]\n  7942: t0 = 246, jump @431\n      : @302 [@dyn 123] (gas: 1)\n  7948: jump @304 if a3 != 0\n      : @303 (gas: 2)\n  7951: a1 = 0x20070\n  7956: jump @292\n      : @304 (gas: 12)\n  7959: a3 = s1 + 0x7ff\n  7963: a3 = a3 + 0x19\n  7966: a2 = u64 [a3 + 0x150]\n  7970: a3 = u64 [a3 + 0x148]\n  7974: a4 = s1 + 0x100\n  7978: u64 [a4] = a3\n  7980: u64 [a4 + 0x8] = a2\n  7983: u64 [a4 + 0x10] = a1\n  7986: a1 = s1 + 0x100\n  7990: u64 [a4 + 0x18] = a0\n  7993: a0 = 0\n  7995: ra = 248, jump @9\n      : @305 [@dyn 124] (gas: 7)\n  8001: u64 [s1 + 248] = 0\n  8005: u64 [s1 + 240] = 0\n  8009: u64 [s1 + 224] = 0x1\n  8014: a0 = 0x20\n  8017: a1 = s1 + 0xe0\n  8021: u64 [s1 + 232] = 0\n  8025: ra = 250, jump @9\n      : @306 [@dyn 125] (gas: 4)\n  8031: a0 = 0x20068\n  8036: u64 [s1 + 0x98] = a0\n  8040: a0 = i32 [0x20068]\n  8045: jump @308 if a0 >u 63\n      : @307 (gas: 3)\n  8049: a1 = u64 [s1 + 0x98]\n  8053: u32 [a1 + 0] = 0x40\n  8056: fallthrough\n      : @308 (gas: 14)\n  8057: a0 = sp + 0xffffffffffffffe0\n  8060: a2 = a0 & 0xffffffffffffffe0\n  8063: u64 [s1 + 0x88] = a2\n  8067: sp = a2\n  8069: a0 = 0x20070\n  8074: u64 [s1 + 0x90] = a0\n  8078: i32 a0 = a0 + 0\n  8080: i32 a2 = a2 + 0\n  8082: a1 = 0x40\n  8085: ra = 0xfc\n  8089: ecalli 8 // 'hash_keccak_256'\n  8091: a3 = u64 [s1 + 0x88]\n  8095: t0 = 0xfe\n  8099: jump @434\n      : @309 [@dyn 126] (gas: 2)\n  8102: a3 = u64 [s1 + 0x88]\n  8106: t0 = 254, jump @434\n      : @310 [@dyn 127] (gas: 8)\n  8112: u64 [a5 + 0x80] = a3\n  8116: u64 [a5 + 0x78] = a2\n  8119: u64 [a5 + 0x70] = a1\n  8122: u64 [a5 + 0x68] = a0\n  8125: a0 = s1 + 0xc0\n  8129: a1 = s1 + 0x7ff\n  8133: a1 = a1 + 0x181\n  8137: ra = 256, jump @11\n      : @311 [@dyn 128] (gas: 11)\n  8143: a2 = u64 [s1 + 0xc0]\n  8147: a0 = u64 [s1 + 0xc8]\n  8151: a1 = u64 [s1 + 0xd0]\n  8155: a3 = u64 [s1 + 0xd8]\n  8159: u64 [s1 + 0xb8] = a3\n  8163: u64 [s1 + 0xb0] = a1\n  8167: u64 [s1 + 0xa8] = a0\n  8171: a0 = 0x80\n  8175: a1 = s1 + 0xa0\n  8179: u64 [s1 + 0xa0] = a2\n  8183: ra = 258, jump @9\n      : @312 [@dyn 129] (gas: 3)\n  8189: a0 = u64 [s1 + 0x98]\n  8193: a0 = i32 [a0]\n  8195: jump @314 if a0 >u 159\n      : @313 (gas: 5)\n  8200: a1 = u64 [s1 + 0x98]\n  8204: u32 [a1 + 0] = 0xa0\n  8208: a0 = u64 [s1 + 0x90]\n  8212: i32 a1 = a0 + 0x80\n  8216: jump @288\n      : @314 (gas: 3)\n  8219: a0 = u64 [s1 + 0x90]\n  8223: i32 a1 = a0 + 0x80\n  8227: jump @288\n      : @315 (gas: 30)\n  8230: sp = sp + 0xffffffffffffff80\n  8233: u64 [sp + 0x78] = ra\n  8236: u64 [sp + 0x70] = s0\n  8239: u64 [sp + 0x68] = s1\n  8242: s0 = sp + 0x80\n  8246: sp = sp & 0xfffffffffffffff0\n  8249: a4 = u64 [a2]\n  8251: a3 = u64 [a1]\n  8253: s1 = u64 [a2 + 0x8]\n  8256: t1 = u64 [a1 + 0x8]\n  8259: t2 = u64 [a2 + 0x10]\n  8262: a5 = u64 [a1 + 0x10]\n  8265: a2 = u64 [a2 + 0x18]\n  8268: a1 = u64 [a1 + 0x18]\n  8271: t0 = t1 ^ s1\n  8274: u64 [sp + 0x8] = s1\n  8277: s1 = t1 <u s1\n  8280: u64 [sp + 0x18] = a4\n  8283: u64 [sp + 0x10] = a3\n  8286: a3 = a3 <u a4\n  8289: u64 [sp] = a3\n  8291: s1 = a3 if t0 == 0\n  8294: a3 = a1 ^ a2\n  8297: ra = a1 <u a2\n  8300: t0 = a5 <u t2\n  8303: ra = t0 if a3 == 0\n  8306: a4 = a5 ^ t2\n  8309: a3 = a3 | a4\n  8312: ra = s1 if a3 == 0\n  8315: jump @317 if ra != 0\n      : @316 (gas: 23)\n  8318: a3 = a5 - t2\n  8321: a1 = a1 - a2\n  8324: a1 = a1 - t0\n  8327: a2 = a3 <u s1\n  8330: a1 = a1 - a2\n  8333: a3 = a3 - s1\n  8336: a2 = u64 [sp + 0x8]\n  8339: a2 = t1 - a2\n  8342: a4 = u64 [sp]\n  8344: a2 = a2 - a4\n  8347: a4 = u64 [sp + 0x18]\n  8350: a5 = u64 [sp + 0x10]\n  8353: a4 = a5 - a4\n  8356: u64 [a0] = a4\n  8358: u64 [a0 + 0x8] = a2\n  8361: u64 [a0 + 0x10] = a3\n  8364: u64 [a0 + 0x18] = a1\n  8367: sp = s0 + 0xffffffffffffff80\n  8370: ra = u64 [sp + 0x78]\n  8373: s0 = u64 [sp + 0x70]\n  8376: s1 = u64 [sp + 0x68]\n  8379: sp = sp + 0x80\n  8383: ret\n      : @317 (gas: 8)\n  8385: u64 [sp + 80] = 0\n  8388: u64 [sp + 72] = 0\n  8391: u64 [sp + 64] = 0\n  8394: a0 = 0x4e487b7100000000\n  8404: a1 = sp + 0x40\n  8407: u64 [sp + 0x58] = a0\n  8410: a0 = 0\n  8412: ra = 260, jump @9\n      : @318 [@dyn 130] (gas: 7)\n  8418: u64 [sp + 56] = 0\n  8421: u64 [sp + 48] = 0\n  8424: u64 [sp + 32] = 0x11\n  8428: a0 = 0x4\n  8431: a1 = sp + 0x20\n  8434: u64 [sp + 40] = 0\n  8437: ra = 262, jump @9\n      : @319 [@dyn 131] (gas: 2)\n  8443: a1 = i32 [0x20068]\n  8448: jump @321 if a1 >u 63\n      : @320 (gas: 2)\n  8452: u32 [0x20068] = 0x40\n  8458: fallthrough\n      : @321 (gas: 7)\n  8459: a1 = 0x20070\n  8464: i32 a1 = a1 + 0\n  8466: a0 = 0x1\n  8469: a2 = 0x24\n  8472: ra = 0x108\n  8476: ecalli 13 // 'seal_return'\n  8478: fallthrough\n      : @322 [@dyn 132] (gas: 9)\n  8479: sp = sp + 0xffffffffffffff00\n  8483: u64 [sp + 0xf8] = ra\n  8487: u64 [sp + 0xf0] = s0\n  8491: u64 [sp + 0xe8] = s1\n  8495: s0 = sp + 0x100\n  8499: sp = sp & 0xffffffffffffffe0\n  8502: s1 = a0\n  8504: ecalli 12 // 'return_data_size'\n  8506: fallthrough\n      : @323 (gas: 1)\n  8507: jump @337 if a0 == 0\n      : @324 (gas: 6)\n  8511: u64 [sp + 0x10] = s1\n  8514: ecalli 12 // 'return_data_size'\n  8516: s1 = a0\n  8518: a0 = sp + 0xc0\n  8522: a1 = 0x40\n  8525: ra = 266, jump @7\n      : @325 [@dyn 133] (gas: 30)\n  8531: t1 = u64 [sp + 0xd8]\n  8535: t2 = u64 [sp + 0xd0]\n  8539: ra = u64 [sp + 0xc8]\n  8543: t0 = u64 [sp + 0xc0]\n  8547: a0 = s1 + 0x1f\n  8550: u64 [sp + 0x18] = s1\n  8553: a1 = a0 <u s1\n  8556: a0 = a0 & 0xffffffffffffffe0\n  8559: a2 = a0 + 0x3f\n  8562: a0 = a2 <u a0\n  8565: a3 = a1 + a0\n  8568: a2 = a2 & 0xffffffffffffffe0\n  8571: a1 = a3 + ra\n  8574: u64 [sp + 0x38] = t0\n  8577: t0 = t0 + a2\n  8580: a2 = t0 <u a2\n  8583: a1 = a1 + a2\n  8586: a4 = a1 ^ a3\n  8589: a3 = a1 <u a3\n  8592: a3 = a2 if a4 == 0\n  8595: a3 = a3 + t2\n  8598: a4 = a3 <u t2\n  8601: a2 = t1 + a4\n  8604: a5 = a3 >u 0\n  8606: s1 = a2 >u 0\n  8608: s1 = a5 if a2 == 0\n  8611: a5 = a3 | a2\n  8614: a0 = a1 >u 0\n  8616: a0 = s1 if a5 != 0\n  8619: jump @339 if a0 != 0\n      : @326 (gas: 12)\n  8623: a0 = u64 [sp + 0x38]\n  8626: a0 = t0 <u a0\n  8629: a5 = a1 ^ ra\n  8632: s1 = a1 <u ra\n  8635: s1 = a0 if a5 == 0\n  8638: a0 = a2 ^ t1\n  8641: a5 = a2 <u t1\n  8644: a4 = a5 if a0 != 0\n  8647: a5 = a3 ^ t2\n  8650: a0 = a0 | a5\n  8653: a4 = s1 if a0 == 0\n  8656: jump @339 if a4 != 0\n      : @327 (gas: 10)\n  8660: u64 [sp + 0xa0] = t0\n  8664: u64 [sp + 0xa8] = a1\n  8668: u64 [sp + 0xb0] = a3\n  8672: a0 = 0x40\n  8675: a1 = sp + 0xa0\n  8679: u64 [sp + 0xb8] = a2\n  8683: u64 [sp + 0x30] = t1\n  8686: s1 = t2\n  8688: u64 [sp + 0x28] = ra\n  8691: ra = 268, jump @9\n      : @328 [@dyn 134] (gas: 12)\n  8697: a2 = u64 [sp + 0x38]\n  8700: a0 = a2 | s1\n  8703: a1 = u64 [sp + 0x30]\n  8706: a3 = u64 [sp + 0x28]\n  8709: a1 = a1 | a3\n  8712: a0 = a0 | a1\n  8715: a0 = a0 >> 0x20\n  8718: u64 [sp + 0x20] = s1\n  8721: a1 = a1 | s1\n  8724: a1 = a1 << 0x20\n  8727: a1 = a1 | a0\n  8730: jump @336 if a1 != 0\n      : @329 (gas: 8)\n  8734: a0 = a2\n  8736: u64 [sp + 152] = 0\n  8740: u64 [sp + 144] = 0\n  8744: u64 [sp + 136] = 0\n  8748: a1 = sp + 0x80\n  8752: a2 = u64 [sp + 0x18]\n  8755: u64 [sp + 0x80] = a2\n  8759: ra = 270, jump @9\n      : @330 [@dyn 135] (gas: 2)\n  8765: ecalli 12 // 'return_data_size'\n  8767: fallthrough\n      : @331 (gas: 10)\n  8768: a4 = u64 [sp + 0x38]\n  8771: a1 = u64 [sp + 0x20]\n  8774: a2 = u64 [sp + 0x30]\n  8777: a1 = a1 | a2\n  8780: a2 = 0xffffffe0\n  8790: a2 = a4 <u a2\n  8793: a3 = u64 [sp + 0x28]\n  8796: a2 = 0 if a3 != 0\n  8798: a2 = 0 if a1 != 0\n  8800: jump @336 if a2 == 0\n      : @332 (gas: 3)\n  8803: s1 = a0\n  8805: a0 = a0 >> 0x20\n  8808: jump @336 if a0 != 0\n      : @333 (gas: 5)\n  8811: i32 a0 = a4 + 0x20\n  8814: i32 a1 = s1 + 0\n  8816: u64 [sp + 0x18] = a1\n  8819: a1 = s1\n  8821: ra = 272, jump @15\n      : @334 [@dyn 136] (gas: 6)\n  8827: u32 [sp + 0xe0] = s1\n  8831: i32 a0 = a0 + 0\n  8833: i32 a1 = sp + 0xe0\n  8837: a2 = 0\n  8839: ecalli 11 // 'return_data_copy'\n  8841: fallthrough\n      : @335 (gas: 8)\n  8842: a4 = u64 [sp + 0x38]\n  8845: a0 = i32 [sp + 0xe0]\n  8849: s1 = u64 [sp + 0x10]\n  8852: a1 = u64 [sp + 0x30]\n  8855: a2 = u64 [sp + 0x20]\n  8858: a3 = u64 [sp + 0x28]\n  8861: a5 = u64 [sp + 0x18]\n  8864: jump @338 if a0 >=u a5\n      : @336 (gas: 1)\n  8867: trap\n      : @337 (gas: 5)\n  8868: a3 = 0\n  8870: a2 = 0\n  8872: a1 = 0\n  8874: a4 = 0x60\n  8877: fallthrough\n      : @338 (gas: 10)\n  8878: u64 [s1] = a4\n  8880: u64 [s1 + 0x8] = a3\n  8883: u64 [s1 + 0x10] = a2\n  8886: u64 [s1 + 0x18] = a1\n  8889: sp = s0 + 0xffffffffffffff00\n  8893: ra = u64 [sp + 0xf8]\n  8897: s0 = u64 [sp + 0xf0]\n  8901: s1 = u64 [sp + 0xe8]\n  8905: sp = sp + 0x100\n  8909: ret\n      : @339 (gas: 8)\n  8911: u64 [sp + 112] = 0\n  8914: u64 [sp + 104] = 0\n  8917: u64 [sp + 96] = 0\n  8920: a0 = 0x4e487b7100000000\n  8930: a1 = sp + 0x60\n  8933: u64 [sp + 0x78] = a0\n  8936: a0 = 0\n  8938: ra = 274, jump @9\n      : @340 [@dyn 137] (gas: 7)\n  8944: u64 [sp + 88] = 0\n  8947: u64 [sp + 80] = 0\n  8950: u64 [sp + 64] = 0x41\n  8954: a0 = 0x4\n  8957: a1 = sp + 0x40\n  8960: u64 [sp + 72] = 0\n  8963: ra = 276, jump @9\n      : @341 [@dyn 138] (gas: 2)\n  8969: a1 = i32 [0x20068]\n  8974: jump @343 if a1 >u 63\n      : @342 (gas: 2)\n  8978: u32 [0x20068] = 0x40\n  8984: fallthrough\n      : @343 (gas: 7)\n  8985: a1 = 0x20070\n  8990: i32 a1 = a1 + 0\n  8992: a0 = 0x1\n  8995: a2 = 0x24\n  8998: ra = 0x116\n  9002: ecalli 13 // 'seal_return'\n  9004: fallthrough\n      : @344 [@dyn 139] (gas: 20)\n  9005: sp = sp + 0xfffffffffffffe80\n  9009: u64 [sp + 0x178] = ra\n  9013: u64 [sp + 0x170] = s0\n  9017: u64 [sp + 0x168] = s1\n  9021: s0 = sp + 0x180\n  9025: sp = sp & 0xffffffffffffffe0\n  9028: s1 = sp\n  9030: a2 = u64 [a0]\n  9032: a1 = u64 [a0 + 0x8]\n  9035: a0 = u32 [a0 + 0x10]\n  9038: u64 [s1 + 216] = 0\n  9042: u64 [s1 + 0x28] = a0\n  9045: u64 [s1 + 0xd0] = a0\n  9049: u64 [s1 + 0x10] = a1\n  9052: u64 [s1 + 0xc8] = a1\n  9056: a1 = s1 + 0xc0\n  9060: u64 [s1 + 0x18] = a2\n  9063: u64 [s1 + 0xc0] = a2\n  9067: a0 = 0\n  9069: ra = 280, jump @9\n      : @345 [@dyn 140] (gas: 7)\n  9075: u64 [s1 + 184] = 0\n  9079: u64 [s1 + 176] = 0\n  9083: u64 [s1 + 160] = 0x1\n  9088: a0 = 0x20\n  9091: a1 = s1 + 0xa0\n  9095: u64 [s1 + 168] = 0\n  9099: ra = 282, jump @9\n      : @346 [@dyn 141] (gas: 3)\n  9105: a2 = 0x20068\n  9110: a0 = i32 [0x20068]\n  9115: jump @348 if a0 >u 63\n      : @347 (gas: 2)\n  9119: u32 [0x20068] = 0x40\n  9125: fallthrough\n      : @348 (gas: 15)\n  9126: u64 [s1 + 0x30] = a2\n  9129: a0 = sp + 0xffffffffffffffe0\n  9132: a2 = a0 & 0xffffffffffffffe0\n  9135: u64 [s1 + 0x38] = a2\n  9138: sp = a2\n  9140: a0 = 0x20070\n  9145: i32 a0 = a0 + 0\n  9147: i32 a2 = a2 + 0\n  9149: a1 = 0x40\n  9152: u64 [s1 + 0x20] = a0\n  9155: ra = 0x11c\n  9159: ecalli 8 // 'hash_keccak_256'\n  9161: a3 = u64 [s1 + 0x38]\n  9164: t0 = 0x11e\n  9168: jump @430\n      : @349 [@dyn 142] (gas: 2)\n  9171: a3 = u64 [s1 + 0x38]\n  9174: t0 = 286, jump @430\n      : @350 [@dyn 143] (gas: 7)\n  9180: u64 [s1 + 0xf8] = a3\n  9184: u64 [s1 + 0xf0] = a2\n  9188: u64 [s1 + 0xe8] = a1\n  9192: u64 [s1 + 0xe0] = a0\n  9196: a0 = s1 + 0x80\n  9200: a1 = s1 + 0xe0\n  9204: ra = 288, jump @11\n      : @351 [@dyn 144] (gas: 8)\n  9210: a0 = u64 [s1 + 0x90]\n  9214: a1 = u64 [s1 + 0x98]\n  9218: a2 = u64 [s1 + 0x88]\n  9222: a3 = u64 [s1 + 0x80]\n  9226: a1 = a1 | a2\n  9229: a0 = a0 | a3\n  9232: a0 = a0 | a1\n  9235: jump @360 if a0 != 0\n      : @352 (gas: 10)\n  9239: u64 [s1 + 120] = 0\n  9242: a0 = u64 [s1 + 0x18]\n  9245: u64 [s1 + 0x60] = a0\n  9248: a0 = u64 [s1 + 0x10]\n  9251: u64 [s1 + 0x68] = a0\n  9254: a1 = s1 + 0x60\n  9257: a0 = u64 [s1 + 0x28]\n  9260: u64 [s1 + 0x70] = a0\n  9263: a0 = 0\n  9265: ra = 290, jump @9\n      : @353 [@dyn 145] (gas: 7)\n  9271: u64 [s1 + 88] = 0\n  9274: u64 [s1 + 80] = 0\n  9277: u64 [s1 + 64] = 0x1\n  9281: a0 = 0x20\n  9284: a1 = s1 + 0x40\n  9287: u64 [s1 + 72] = 0\n  9290: ra = 292, jump @9\n      : @354 [@dyn 146] (gas: 3)\n  9296: i32 a0 = s1 + 0x100\n  9300: ecalli 9 // 'now'\n  9302: fallthrough\n      : @355 (gas: 12)\n  9303: a3 = s1 + 0x100\n  9307: a0 = u64 [a3 + 0x18]\n  9310: u64 [s1 + 0x18] = a0\n  9313: a0 = u64 [a3 + 0x10]\n  9316: u64 [s1 + 0x28] = a0\n  9319: a0 = u64 [a3 + 0x8]\n  9322: u64 [s1 + 0x38] = a0\n  9325: a2 = u64 [s1 + 0x30]\n  9328: a0 = i32 [a2]\n  9330: a1 = u64 [a3]\n  9332: u64 [s1 + 0x10] = a1\n  9335: jump @357 if a0 >u 63\n      : @356 (gas: 2)\n  9339: u32 [a2 + 0] = 0x40\n  9342: fallthrough\n      : @357 (gas: 12)\n  9343: a0 = sp + 0xffffffffffffffe0\n  9346: a0 = a0 & 0xffffffffffffffe0\n  9349: u64 [s1 + 0x30] = a0\n  9352: sp = a0\n  9354: i32 a2 = a0 + 0\n  9356: a1 = 0x40\n  9359: a0 = u64 [s1 + 0x20]\n  9362: ra = 0x126\n  9366: ecalli 8 // 'hash_keccak_256'\n  9368: a3 = u64 [s1 + 0x30]\n  9371: t0 = 0x128\n  9375: jump @430\n      : @358 [@dyn 147] (gas: 2)\n  9378: a3 = u64 [s1 + 0x30]\n  9381: t0 = 296, jump @430\n      : @359 [@dyn 148] (gas: 16)\n  9387: a4 = s1 + 0x100\n  9391: u64 [a4 + 0x38] = a3\n  9394: u64 [a4 + 0x30] = a2\n  9397: u64 [a4 + 0x28] = a1\n  9400: u64 [a4 + 0x20] = a0\n  9403: a0 = u64 [s1 + 0x18]\n  9406: u64 [a4 + 0x58] = a0\n  9409: a0 = u64 [s1 + 0x28]\n  9412: u64 [a4 + 0x50] = a0\n  9415: a0 = u64 [s1 + 0x38]\n  9418: u64 [a4 + 0x48] = a0\n  9421: a0 = u64 [s1 + 0x10]\n  9424: u64 [a4 + 0x40] = a0\n  9427: a0 = s1 + 0x120\n  9431: a1 = s1 + 0x140\n  9435: ra = 298, jump @12\n      : @360 [@dyn 149] (gas: 6)\n  9441: sp = s0 + 0xfffffffffffffe80\n  9445: ra = u64 [sp + 0x178]\n  9449: s0 = u64 [sp + 0x170]\n  9453: s1 = u64 [sp + 0x168]\n  9457: sp = sp + 0x180\n  9461: ret\n      : @361 (gas: 70)\n  9463: sp = sp + 0xffffffffffffff40\n  9467: u64 [sp + 0xb8] = ra\n  9471: u64 [sp + 0xb0] = s0\n  9475: u64 [sp + 0xa8] = s1\n  9479: s0 = sp + 0xc0\n  9483: sp = sp & 0xfffffffffffffff0\n  9486: ra = u64 [a2]\n  9488: t0 = u64 [a1]\n  9490: a3 = u64 [a1 + 0x8]\n  9493: u64 [sp + 0x58] = a0\n  9496: a4 = u64 [a2 + 0x8]\n  9499: a0 = t0 mulhu ra\n  9502: s1 = a3 * ra\n  9505: a0 = a0 + s1\n  9508: s1 = a0 <u s1\n  9511: a5 = a3 mulhu ra\n  9514: a5 = a5 + s1\n  9517: s1 = t0 * a4\n  9520: a0 = a0 + s1\n  9523: u64 [sp + 0x50] = a0\n  9526: a0 = a0 <u s1\n  9529: s1 = t0 mulhu a4\n  9532: a0 = a0 + s1\n  9535: a0 = a0 + a5\n  9538: a5 = a0 <u a5\n  9541: s1 = a3 mulhu a4\n  9544: a5 = a5 + s1\n  9547: s1 = a3 * a4\n  9550: a0 = a0 + s1\n  9553: u64 [sp + 0x48] = a0\n  9556: s1 = a0 <u s1\n  9559: a5 = a5 + s1\n  9562: u64 [sp + 0x40] = a5\n  9565: t1 = u64 [a2 + 0x10]\n  9568: a2 = u64 [a2 + 0x18]\n  9571: t2 = u64 [a1 + 0x18]\n  9574: a0 = u64 [a1 + 0x10]\n  9577: a5 = a3 * t1\n  9580: u64 [sp + 0x20] = a2\n  9583: s1 = a2 * t0\n  9586: a1 = s1 + a5\n  9589: u64 [sp + 0x28] = a4\n  9592: s1 = a4 * a0\n  9595: a2 = t2 * ra\n  9598: a2 = a2 + s1\n  9601: s1 = t1 * t0\n  9604: a5 = a0 * ra\n  9607: s1 = s1 + a5\n  9610: u64 [sp + 0x30] = t1\n  9613: a4 = t1 mulhu t0\n  9616: u64 [sp + 0x10] = a4\n  9619: a4 = a4 + a1\n  9622: t1 = a0 mulhu ra\n  9625: a1 = t1 + a2\n  9628: a2 = s1 <u a5\n  9631: u64 [sp + 0x18] = a1\n  9634: u64 [sp + 0x8] = a4\n  9637: a5 = a1 + a4\n  9640: a2 = a2 + a5\n  9643: u64 [sp + 0x38] = t2\n  9646: a5 = a3 | t2\n  9649: a1 = t0 | a0\n  9652: a1 = a1 | a5\n  9655: a4 = u64 [sp + 0x40]\n  9658: a5 = u64 [sp + 0x48]\n  9661: s1 = s1 + a5\n  9664: t2 = s1 <u a5\n  9667: a2 = a2 + a4\n  9670: a2 = a2 + t2\n  9673: jump @363 if a1 == 0\n      : @362 (gas: 50)\n  9677: a1 = a2 ^ a4\n  9680: u64 [sp + 0x48] = a2\n  9683: a2 = u64 [sp + 0x48]\n  9686: a2 = a2 <u a4\n  9689: t2 = a2 if a1 != 0\n  9692: u64 [sp + 0x40] = s1\n  9695: a1 = u64 [sp + 0x10]\n  9698: a2 = u64 [sp + 0x8]\n  9701: s1 = a2 <u a1\n  9704: a2 = a3 >u 0\n  9706: a1 = u64 [sp + 0x20]\n  9709: a5 = a1 >u 0\n  9711: a2 = a2 & a5\n  9714: a5 = a1 mulhu t0\n  9717: a5 = a5 >u 0\n  9719: a2 = a2 | a5\n  9722: a4 = t1\n  9724: t1 = u64 [sp + 0x30]\n  9727: a3 = a3 mulhu t1\n  9730: a3 = a3 >u 0\n  9732: a2 = a2 | a3\n  9735: a2 = a2 | s1\n  9738: u64 [sp + 0x10] = a2\n  9741: a2 = u64 [sp + 0x18]\n  9744: a2 = a2 <u a4\n  9747: a4 = u64 [sp + 0x28]\n  9750: a3 = a4 >u 0\n  9752: s1 = u64 [sp + 0x38]\n  9755: a5 = s1 >u 0\n  9757: a3 = a3 & a5\n  9760: a5 = s1 mulhu ra\n  9763: a5 = a5 >u 0\n  9765: a3 = a3 | a5\n  9768: a5 = a4 mulhu a0\n  9771: a5 = a5 >u 0\n  9773: a3 = a3 | a5\n  9776: a2 = a2 | a3\n  9779: a3 = t1 | a1\n  9782: a5 = a0 | s1\n  9785: s1 = u64 [sp + 0x40]\n  9788: a3 = a3 >u 0\n  9790: a5 = a5 >u 0\n  9792: a3 = a3 & a5\n  9795: a2 = a2 | a3\n  9798: a1 = u64 [sp + 0x10]\n  9801: a1 = a1 | a2\n  9804: a2 = u64 [sp + 0x48]\n  9807: a0 = a1 | t2\n  9810: a0 = a0 & 0x1\n  9813: jump @364 if a0 != 0\n      : @363 (gas: 13)\n  9816: a0 = t0 * ra\n  9819: a1 = u64 [sp + 0x58]\n  9822: u64 [a1] = a0\n  9824: a0 = u64 [sp + 0x50]\n  9827: u64 [a1 + 0x8] = a0\n  9830: u64 [a1 + 0x10] = s1\n  9833: u64 [a1 + 0x18] = a2\n  9836: sp = s0 + 0xffffffffffffff40\n  9840: ra = u64 [sp + 0xb8]\n  9844: s0 = u64 [sp + 0xb0]\n  9848: s1 = u64 [sp + 0xa8]\n  9852: sp = sp + 0xc0\n  9856: ret\n      : @364 (gas: 8)\n  9858: u64 [sp + 144] = 0\n  9862: u64 [sp + 136] = 0\n  9866: u64 [sp + 128] = 0\n  9870: a0 = 0x4e487b7100000000\n  9880: a1 = sp + 0x80\n  9884: u64 [sp + 0x98] = a0\n  9888: a0 = 0\n  9890: ra = 300, jump @9\n      : @365 [@dyn 150] (gas: 7)\n  9896: u64 [sp + 120] = 0\n  9899: u64 [sp + 112] = 0\n  9902: u64 [sp + 96] = 0x11\n  9906: a0 = 0x4\n  9909: a1 = sp + 0x60\n  9912: u64 [sp + 104] = 0\n  9915: ra = 302, jump @9\n      : @366 [@dyn 151] (gas: 2)\n  9921: a1 = i32 [0x20068]\n  9926: jump @368 if a1 >u 63\n      : @367 (gas: 2)\n  9930: u32 [0x20068] = 0x40\n  9936: fallthrough\n      : @368 (gas: 7)\n  9937: a1 = 0x20070\n  9942: i32 a1 = a1 + 0\n  9944: a0 = 0x1\n  9947: a2 = 0x24\n  9950: ra = 0x130\n  9954: ecalli 13 // 'seal_return'\n  9956: fallthrough\n      : @369 [@dyn 152] (gas: 22)\n  9957: sp = sp + 0xfffffffffffffc00\n  9961: a2 = sp + 0x300\n  9965: u64 [a2 + 0xf8] = ra\n  9969: u64 [a2 + 0xf0] = s0\n  9973: u64 [a2 + 0xe8] = s1\n  9977: s0 = sp + 0x400\n  9981: sp = sp & 0xffffffffffffffe0\n  9984: s1 = sp\n  9986: a2 = u64 [a1]\n  9988: a3 = u64 [a1 + 0x8]\n  9991: a1 = u32 [a1 + 0x10]\n  9994: u64 [s1 + 0x18] = a0\n  9997: u64 [s1 + 824] = 0\n 10001: u64 [s1 + 0x88] = a1\n 10005: u64 [s1 + 0x330] = a1\n 10009: u64 [s1 + 0x90] = a3\n 10013: u64 [s1 + 0x328] = a3\n 10017: a1 = s1 + 0x320\n 10021: u64 [s1 + 0x98] = a2\n 10025: u64 [s1 + 0x320] = a2\n 10029: a0 = 0\n 10031: ra = 306, jump @9\n      : @370 [@dyn 153] (gas: 7)\n 10037: u64 [s1 + 792] = 0\n 10041: u64 [s1 + 784] = 0\n 10045: u64 [s1 + 768] = 0x1\n 10050: a0 = 0x20\n 10053: a1 = s1 + 0x300\n 10057: u64 [s1 + 776] = 0\n 10061: ra = 308, jump @9\n      : @371 [@dyn 154] (gas: 3)\n 10067: a2 = 0x20068\n 10072: a0 = i32 [0x20068]\n 10077: jump @373 if a0 >u 63\n      : @372 (gas: 2)\n 10081: u32 [0x20068] = 0x40\n 10087: fallthrough\n      : @373 (gas: 15)\n 10088: u64 [s1 + 0x80] = a2\n 10092: a0 = sp + 0xffffffffffffffe0\n 10095: a2 = a0 & 0xffffffffffffffe0\n 10098: u64 [s1 + 0x70] = a2\n 10101: sp = a2\n 10103: a0 = 0x20070\n 10108: i32 a0 = a0 + 0\n 10110: i32 a2 = a2 + 0\n 10112: a1 = 0x40\n 10115: u64 [s1 + 0x78] = a0\n 10118: ra = 0x136\n 10122: ecalli 8 // 'hash_keccak_256'\n 10124: a3 = u64 [s1 + 0x70]\n 10127: t0 = 0x138\n 10131: jump @428\n      : @374 [@dyn 155] (gas: 2)\n 10134: a3 = u64 [s1 + 0x70]\n 10137: t0 = 312, jump @428\n      : @375 [@dyn 156] (gas: 7)\n 10143: u64 [a4 + 0x58] = a3\n 10146: u64 [a4 + 0x50] = a2\n 10149: u64 [a4 + 0x48] = a1\n 10152: u64 [a4 + 0x40] = a0\n 10155: a0 = s1 + 0x2e0\n 10159: a1 = s1 + 0x340\n 10163: ra = 314, jump @11\n      : @376 [@dyn 157] (gas: 9)\n 10169: a4 = s1 + 0x200\n 10173: a0 = u64 [a4 + 0xf0]\n 10177: a1 = u64 [a4 + 0xf8]\n 10181: a2 = u64 [a4 + 0xe8]\n 10185: a3 = u64 [a4 + 0xe0]\n 10189: a1 = a1 | a2\n 10192: a0 = a0 | a3\n 10195: a0 = a0 | a1\n 10198: jump @420 if a0 == 0\n      : @377 (gas: 11)\n 10202: u64 [s1 + 728] = 0\n 10206: a0 = u64 [s1 + 0x98]\n 10210: a2 = s1 + 0x200\n 10214: u64 [a2 + 0xc0] = a0\n 10218: a0 = u64 [s1 + 0x90]\n 10222: u64 [a2 + 0xc8] = a0\n 10226: a1 = s1 + 0x2c0\n 10230: a0 = u64 [s1 + 0x88]\n 10234: u64 [a2 + 0xd0] = a0\n 10238: a0 = 0\n 10240: ra = 316, jump @9\n      : @378 [@dyn 158] (gas: 1)\n 10246: t0 = 318, jump @436\n      : @379 [@dyn 159] (gas: 1)\n 10252: ra = 320, jump @9\n      : @380 [@dyn 160] (gas: 3)\n 10258: a2 = u64 [s1 + 0x80]\n 10262: a0 = i32 [a2]\n 10264: jump @382 if a0 >u 63\n      : @381 (gas: 3)\n 10268: u32 [a2 + 0] = 0x40\n 10271: t0 = 0x142\n 10275: jump @437\n      : @382 (gas: 1)\n 10278: t0 = 322, jump @437\n      : @383 [@dyn 161] (gas: 5)\n 10284: ra = 0x144\n 10288: ecalli 8 // 'hash_keccak_256'\n 10290: a3 = u64 [s1 + 0x70]\n 10293: t0 = 0x146\n 10297: jump @428\n      : @384 [@dyn 162] (gas: 2)\n 10300: a3 = u64 [s1 + 0x70]\n 10303: t0 = 326, jump @428\n      : @385 [@dyn 163] (gas: 7)\n 10309: u64 [a4 + 0x78] = a3\n 10312: u64 [a4 + 0x70] = a2\n 10315: u64 [a4 + 0x68] = a1\n 10318: u64 [a4 + 0x60] = a0\n 10321: a0 = s1 + 0x280\n 10325: a1 = s1 + 0x360\n 10329: ra = 328, jump @11\n      : @386 [@dyn 164] (gas: 9)\n 10335: a4 = s1 + 0x200\n 10339: a0 = u64 [a4 + 0x90]\n 10343: a1 = u64 [a4 + 0x98]\n 10347: a2 = u64 [a4 + 0x88]\n 10351: a3 = u64 [a4 + 0x80]\n 10355: a1 = a1 | a2\n 10358: a0 = a0 | a3\n 10361: a0 = a0 | a1\n 10364: jump @420 if a0 == 0\n      : @387 (gas: 10)\n 10368: u64 [s1 + 632] = 0\n 10372: a0 = u64 [s1 + 0x98]\n 10376: u64 [s1 + 0x260] = a0\n 10380: a0 = u64 [s1 + 0x90]\n 10384: u64 [s1 + 0x268] = a0\n 10388: a1 = s1 + 0x260\n 10392: a0 = u64 [s1 + 0x88]\n 10396: u64 [s1 + 0x270] = a0\n 10400: a0 = 0\n 10402: ra = 330, jump @9\n      : @388 [@dyn 165] (gas: 7)\n 10408: u64 [s1 + 600] = 0\n 10412: u64 [s1 + 592] = 0\n 10416: u64 [s1 + 576] = 0x1\n 10421: a0 = 0x20\n 10424: a1 = s1 + 0x240\n 10428: u64 [s1 + 584] = 0\n 10432: ra = 332, jump @9\n      : @389 [@dyn 166] (gas: 3)\n 10438: a1 = u64 [s1 + 0x80]\n 10442: a0 = i32 [a1]\n 10444: jump @391 if a0 >u 63\n      : @390 (gas: 3)\n 10448: u32 [a1 + 0] = 0x40\n 10451: t0 = 0x14e\n 10455: jump @437\n      : @391 (gas: 1)\n 10458: t0 = 334, jump @437\n      : @392 [@dyn 167] (gas: 5)\n 10464: ra = 0x150\n 10468: ecalli 8 // 'hash_keccak_256'\n 10470: a3 = u64 [s1 + 0x70]\n 10473: t0 = 0x152\n 10477: jump @430\n      : @393 [@dyn 168] (gas: 2)\n 10480: a3 = u64 [s1 + 0x70]\n 10483: t0 = 338, jump @430\n      : @394 [@dyn 169] (gas: 7)\n 10489: u64 [s1 + 0x398] = a3\n 10493: u64 [s1 + 0x390] = a2\n 10497: u64 [s1 + 0x388] = a1\n 10501: u64 [s1 + 0x380] = a0\n 10505: a0 = s1 + 0x220\n 10509: a1 = s1 + 0x380\n 10513: ra = 340, jump @11\n      : @395 [@dyn 170] (gas: 31)\n 10519: a0 = u64 [s1 + 0x220]\n 10523: u64 [s1 + 0x70] = a0\n 10526: a0 = u64 [s1 + 0x228]\n 10530: u64 [s1 + 0x68] = a0\n 10533: a0 = u64 [s1 + 0x230]\n 10537: u64 [s1 + 0x60] = a0\n 10540: a0 = u64 [s1 + 0x238]\n 10544: u64 [s1 + 0x58] = a0\n 10547: i32 a0 = s1 + 0x3a0\n 10551: ecalli 9 // 'now'\n 10553: a4 = s1 + 0x300\n 10557: a3 = u64 [a4 + 0xa0]\n 10561: a0 = u64 [a4 + 0xa8]\n 10565: a1 = u64 [a4 + 0xb0]\n 10569: a2 = u64 [a4 + 0xb8]\n 10573: a4 = u64 [s1 + 0x58]\n 10576: u64 [s1 + 0x1d8] = a4\n 10580: a4 = u64 [s1 + 0x60]\n 10583: u64 [s1 + 0x1d0] = a4\n 10587: a4 = u64 [s1 + 0x68]\n 10590: u64 [s1 + 0x1c8] = a4\n 10594: a4 = u64 [s1 + 0x70]\n 10597: u64 [s1 + 0x1c0] = a4\n 10601: u64 [s1 + 0x1f8] = a2\n 10605: u64 [s1 + 0x1f0] = a1\n 10609: u64 [s1 + 0x1e8] = a0\n 10613: a0 = s1 + 0x200\n 10617: a1 = s1 + 0x1e0\n 10621: a2 = s1 + 0x1c0\n 10625: u64 [s1 + 0x1e0] = a3\n 10629: ra = 342, jump @315\n      : @396 [@dyn 171] (gas: 20)\n 10635: a1 = s1 + 0x200\n 10639: a0 = u64 [a1 + 0x18]\n 10642: u64 [s1 + 0x58] = a0\n 10645: a0 = u64 [a1 + 0x10]\n 10648: u64 [s1 + 0x60] = a0\n 10651: a0 = u64 [a1 + 0x8]\n 10654: u64 [s1 + 0x68] = a0\n 10657: a0 = u64 [a1]\n 10659: u64 [s1 + 0x70] = a0\n 10662: u64 [s1 + 440] = 0\n 10666: a0 = u64 [s1 + 0x88]\n 10670: a2 = s1 + 0x100\n 10674: u64 [a2 + 0xb0] = a0\n 10678: a0 = u64 [s1 + 0x90]\n 10682: u64 [a2 + 0xa8] = a0\n 10686: a1 = s1 + 0x1a0\n 10690: a0 = u64 [s1 + 0x98]\n 10694: u64 [a2 + 0xa0] = a0\n 10698: a0 = 0\n 10700: ra = 344, jump @9\n      : @397 [@dyn 172] (gas: 7)\n 10706: u64 [s1 + 408] = 0\n 10710: u64 [s1 + 400] = 0\n 10714: u64 [s1 + 392] = 0\n 10718: a0 = 0x20\n 10721: a1 = s1 + 0x180\n 10725: u64 [s1 + 384] = 0\n 10729: ra = 346, jump @9\n      : @398 [@dyn 173] (gas: 3)\n 10735: a1 = u64 [s1 + 0x80]\n 10739: a0 = i32 [a1]\n 10741: jump @400 if a0 >u 63\n      : @399 (gas: 2)\n 10745: u32 [a1 + 0] = 0x40\n 10748: fallthrough\n      : @400 (gas: 12)\n 10749: a0 = sp + 0xffffffffffffffe0\n 10752: a0 = a0 & 0xffffffffffffffe0\n 10755: u64 [s1 + 0x98] = a0\n 10759: sp = a0\n 10761: i32 a2 = a0 + 0\n 10763: a1 = 0x40\n 10766: a0 = u64 [s1 + 0x78]\n 10769: ra = 0x15c\n 10773: ecalli 8 // 'hash_keccak_256'\n 10775: a3 = u64 [s1 + 0x98]\n 10779: t0 = 0x15e\n 10783: jump @428\n      : @401 [@dyn 174] (gas: 2)\n 10786: a3 = u64 [s1 + 0x98]\n 10790: t0 = 350, jump @428\n      : @402 [@dyn 175] (gas: 7)\n 10796: u64 [a4 + 0xd8] = a3\n 10800: u64 [a4 + 0xd0] = a2\n 10804: u64 [a4 + 0xc8] = a1\n 10808: u64 [a4 + 0xc0] = a0\n 10812: a0 = s1 + 0x160\n 10816: a1 = s1 + 0x3c0\n 10820: ra = 352, jump @11\n      : @403 [@dyn 176] (gas: 9)\n 10826: a0 = u64 [s1 + 0x160]\n 10830: u64 [s1 + 0x98] = a0\n 10834: a0 = u64 [s1 + 0x168]\n 10838: u64 [s1 + 0x90] = a0\n 10842: a0 = u64 [s1 + 0x170]\n 10846: u64 [s1 + 0x88] = a0\n 10850: a0 = u64 [s1 + 0x178]\n 10854: u64 [s1 + 0x80] = a0\n 10858: ra = 354, jump @0\n      : @404 [@dyn 177] (gas: 20)\n 10864: a1 = u64 [0x30090]\n 10869: a2 = u64 [0x30098]\n 10874: a3 = u64 [0x300a0]\n 10879: a0 = u64 [0x300a8]\n 10884: u64 [s1 + 0x118] = a0\n 10888: u64 [s1 + 0x110] = a3\n 10892: u64 [s1 + 0x108] = a2\n 10896: u64 [s1 + 0x100] = a1\n 10900: a0 = u64 [s1 + 0x80]\n 10904: u64 [s1 + 0x138] = a0\n 10908: a0 = u64 [s1 + 0x88]\n 10912: u64 [s1 + 0x130] = a0\n 10916: a0 = u64 [s1 + 0x90]\n 10920: u64 [s1 + 0x128] = a0\n 10924: a0 = s1 + 0x140\n 10928: a1 = s1 + 0x120\n 10932: a2 = s1 + 0x100\n 10936: a3 = u64 [s1 + 0x98]\n 10940: u64 [s1 + 0x120] = a3\n 10944: ra = 356, jump @361\n      : @405 [@dyn 178] (gas: 21)\n 10950: a4 = s1 + 0x100\n 10954: a3 = u64 [a4 + 0x40]\n 10957: a0 = u64 [a4 + 0x48]\n 10960: a1 = u64 [a4 + 0x50]\n 10963: a2 = u64 [a4 + 0x58]\n 10966: a4 = u64 [s1 + 0x58]\n 10969: u64 [s1 + 0xb8] = a4\n 10973: a4 = u64 [s1 + 0x60]\n 10976: u64 [s1 + 0xb0] = a4\n 10980: a4 = u64 [s1 + 0x68]\n 10983: u64 [s1 + 0xa8] = a4\n 10987: a4 = u64 [s1 + 0x70]\n 10990: u64 [s1 + 0xa0] = a4\n 10994: u64 [s1 + 0xd8] = a2\n 10998: u64 [s1 + 0xd0] = a1\n 11002: u64 [s1 + 0xc8] = a0\n 11006: a0 = s1 + 0xe0\n 11010: a1 = s1 + 0xc0\n 11014: a2 = s1 + 0xa0\n 11018: u64 [s1 + 0xc0] = a3\n 11022: ra = 358, jump @361\n      : @406 [@dyn 179] (gas: 55)\n 11028: t0 = u64 [s1 + 0xf8]\n 11032: t2 = u64 [s1 + 0xf0]\n 11036: t1 = u64 [s1 + 0xe8]\n 11040: a1 = u64 [s1 + 0xe0]\n 11044: u64 [s1 + 0x58] = a1\n 11047: a0 = clz t0\n 11049: a2 = clz t2\n 11051: a5 = a2 + 0x40\n 11054: a5 = a0 if t0 != 0\n 11057: a0 = clz t1\n 11059: a2 = clz a1\n 11061: a2 = a2 + 0x40\n 11064: a2 = a0 if t1 != 0\n 11067: a0 = a2 + 0x80\n 11071: a3 = t2 | t0\n 11074: a5 = a0 if a3 == 0\n 11077: a2 = a0 <u a2\n 11080: a2 = 0 if a3 != 0\n 11082: a3 = a2 >u 0\n 11084: a0 = a5 <u 0xc5\n 11088: a4 = a0 ^ 0x1\n 11091: a3 = a4 if a2 == 0\n 11094: a0 = a3 <u 0x1\n 11097: a0 = a0 + 0xffffffffffffffff\n 11100: ra = -a3\n 11102: a2 = -a2\n 11104: a1 = a2 - a4\n 11107: a2 = 0xc4 - a5\n 11111: u64 [s1 + 0x88] = ra\n 11115: a5 = ra >u 0\n 11117: a4 = a0 >u 0\n 11119: u64 [s1 + 0x80] = a0\n 11123: a4 = a5 if a0 == 0\n 11126: u64 [s1 + 0x90] = a2\n 11130: a0 = a2 <u 0x100\n 11134: a0 = a0 ^ 0x1\n 11137: a5 = a1 >u 0\n 11139: a0 = a5 if a1 != 0\n 11142: a0 = a4 if a3 != 0\n 11145: a3 = t1 | t0\n 11148: ra = u64 [s1 + 0x58]\n 11151: a4 = ra | t2\n 11154: a3 = a3 | a4\n 11157: a3 = a3 <u 0x1\n 11160: a0 = a0 | a3\n 11163: u64 [s1 + 0x50] = t0\n 11166: a2 = t0\n 11168: a2 = 0 if a0 != 0\n 11170: a5 = t2\n 11172: a5 = 0 if a0 != 0\n 11174: a4 = t1\n 11176: a4 = 0 if a0 != 0\n 11178: t0 = ra\n 11180: t0 = 0 if a0 != 0\n 11182: jump @423 if a0 != 0\n      : @407 (gas: 9)\n 11186: ra = t2\n 11188: a0 = u64 [s1 + 0x90]\n 11192: a0 = a0 ^ 0xff\n 11196: a3 = u64 [s1 + 0x88]\n 11200: t2 = a0 | a3\n 11203: a3 = u64 [s1 + 0x80]\n 11207: a0 = a1 | a3\n 11210: a0 = t2 | a0\n 11213: jump @423 if a0 == 0\n      : @408 (gas: 22)\n 11217: a4 = u64 [s1 + 0x90]\n 11221: a2 = a4 + 0x1\n 11224: u64 [s1 + 0x98] = a2\n 11228: a0 = a2 <u 0x1\n 11231: a0 = a0 + a1\n 11234: u64 [s1 + 0x70] = a0\n 11237: a0 = a0 | a2\n 11240: a0 = a0 <u 0x1\n 11243: a2 = u64 [s1 + 0x88]\n 11247: a0 = a0 + a2\n 11250: u64 [s1 + 0x60] = a0\n 11253: a0 = a0 <u a2\n 11256: a0 = a0 + a3\n 11259: u64 [s1 + 0x68] = a0\n 11262: a1 = 0xff - a4\n 11266: u64 [s1 + 0x78] = a1\n 11269: a2 = 0x80 - a1\n 11273: a0 = u64 [s1 + 0x58]\n 11276: a1 = t1\n 11278: u64 [s1 + 0x48] = t1\n 11281: u64 [s1 + 0x40] = ra\n 11284: ra = 360, jump @438\n      : @409 [@dyn 180] (gas: 6)\n 11290: u64 [s1 + 0x88] = a0\n 11294: u64 [s1 + 0x80] = a1\n 11298: a0 = u64 [s1 + 0x40]\n 11301: a1 = u64 [s1 + 0x50]\n 11304: a2 = u64 [s1 + 0x78]\n 11307: ra = 362, jump @443\n      : @410 [@dyn 181] (gas: 9)\n 11313: u64 [s1 + 0x38] = a0\n 11316: a0 = u64 [s1 + 0x80]\n 11320: a0 = a0 | a1\n 11323: u64 [s1 + 0x80] = a0\n 11327: a1 = u64 [s1 + 0x90]\n 11331: a2 = 0x7f - a1\n 11334: a0 = u64 [s1 + 0x58]\n 11337: a1 = u64 [s1 + 0x48]\n 11340: ra = 364, jump @443\n      : @411 [@dyn 182] (gas: 18)\n 11346: a2 = u64 [s1 + 0x78]\n 11349: a3 = a2 <u 0x80\n 11353: u64 [s1 + 0x90] = a3\n 11357: a4 = u64 [s1 + 0x80]\n 11361: a1 = a4 if a3 != 0\n 11364: a4 = u64 [s1 + 0x50]\n 11367: a1 = a4 if a2 == 0\n 11370: u64 [s1 + 0x80] = a1\n 11374: a1 = u64 [s1 + 0x88]\n 11378: a4 = u64 [s1 + 0x38]\n 11381: a1 = a1 | a4\n 11384: a1 = a0 if a3 == 0\n 11387: a0 = u64 [s1 + 0x40]\n 11390: a1 = a0 if a2 == 0\n 11393: u64 [s1 + 0x88] = a1\n 11397: a0 = u64 [s1 + 0x58]\n 11400: a1 = u64 [s1 + 0x48]\n 11403: ra = 366, jump @443\n      : @412 [@dyn 183] (gas: 13)\n 11409: a3 = u64 [s1 + 0x60]\n 11412: a4 = u64 [s1 + 0x68]\n 11415: a2 = u64 [s1 + 0x70]\n 11418: a2 = a2 | a4\n 11421: a5 = u64 [s1 + 0x98]\n 11425: a5 = a5 | a3\n 11428: a2 = a2 | a5\n 11431: a3 = u64 [s1 + 0x90]\n 11435: a1 = 0 if a3 == 0\n 11437: u64 [s1 + 0x78] = a1\n 11440: a0 = 0 if a3 == 0\n 11442: u64 [s1 + 0x90] = a0\n 11446: jump @421 if a2 == 0\n      : @413 (gas: 7)\n 11450: a0 = 0xde0b6b3a7640000\n 11460: u64 [s1 + 0x30] = a0\n 11463: a0 = u64 [s1 + 0x98]\n 11467: a2 = a0 + 0xffffffffffffff80\n 11470: a0 = u64 [s1 + 0x40]\n 11473: a1 = u64 [s1 + 0x50]\n 11476: ra = 368, jump @438\n      : @414 [@dyn 184] (gas: 6)\n 11482: u64 [s1 + 0x38] = a0\n 11485: u64 [s1 + 0x20] = a1\n 11488: a0 = u64 [s1 + 0x58]\n 11491: a1 = u64 [s1 + 0x48]\n 11494: a2 = u64 [s1 + 0x98]\n 11498: ra = 370, jump @438\n      : @415 [@dyn 185] (gas: 7)\n 11504: u64 [s1 + 0x10] = a0\n 11507: u64 [s1 + 0x28] = a1\n 11510: a1 = u64 [s1 + 0x98]\n 11514: a2 = 0x80 - a1\n 11518: a0 = u64 [s1 + 0x40]\n 11521: a1 = u64 [s1 + 0x50]\n 11524: ra = 372, jump @443\n      : @416 [@dyn 186] (gas: 21)\n 11530: a2 = u64 [s1 + 0x28]\n 11533: a1 = a1 | a2\n 11536: a3 = u64 [s1 + 0x98]\n 11540: a4 = a3 <u 0x80\n 11544: u64 [s1 + 0x28] = a4\n 11547: a2 = u64 [s1 + 0x20]\n 11550: a1 = a2 if a4 == 0\n 11553: a2 = u64 [s1 + 0x48]\n 11556: a2 = a1 if a3 != 0\n 11559: u64 [s1 + 0x48] = a2\n 11562: a1 = u64 [s1 + 0x10]\n 11565: a0 = a0 | a1\n 11568: a1 = u64 [s1 + 0x38]\n 11571: a0 = a1 if a4 == 0\n 11574: a1 = u64 [s1 + 0x58]\n 11577: a1 = a0 if a3 != 0\n 11580: a2 = a3\n 11582: u64 [s1 + 0x58] = a1\n 11585: a0 = u64 [s1 + 0x40]\n 11588: a1 = u64 [s1 + 0x50]\n 11591: ra = 374, jump @438\n      : @417 [@dyn 187] (gas: 13)\n 11597: a5 = 0\n 11599: a2 = u64 [s1 + 0x28]\n 11602: a1 = 0 if a2 == 0\n 11604: a0 = 0 if a2 == 0\n 11606: a4 = u64 [s1 + 0x30]\n 11609: a2 = a4 + 0xffffffffffffffff\n 11612: u64 [s1 + 0x28] = a2\n 11615: a2 = a4 >u 0\n 11617: a2 = a2 + 0xffffffffffffffff\n 11620: u64 [s1 + 0x20] = a2\n 11623: t2 = u64 [s1 + 0x48]\n 11626: t0 = u64 [s1 + 0x58]\n 11629: fallthrough\n      : @418 (gas: 90)\n 11630: u64 [s1 + 0x48] = a1\n 11633: u64 [s1 + 0x50] = a5\n 11636: u64 [s1 + 56] = 0\n 11639: a2 = t0 >> 0x3f\n 11642: a3 = t2 << 0x1\n 11645: a3 = a3 | a2\n 11648: a2 = t0 << 0x1\n 11651: ra = u64 [s1 + 0x80]\n 11655: a4 = ra >> 0x3f\n 11658: a4 = a4 | a2\n 11661: u64 [s1 + 0x58] = a4\n 11664: a2 = u64 [s1 + 0x20]\n 11667: a1 = a2 ^ a3\n 11670: u64 [s1 + 0x40] = a1\n 11673: a1 = a2 <u a3\n 11676: a5 = u64 [s1 + 0x28]\n 11679: t0 = a5 <u a4\n 11682: a4 = u64 [s1 + 0x40]\n 11685: t0 = a1 if a4 != 0\n 11688: a1 = u64 [s1 + 0x48]\n 11691: a1 = a1 << 0x1\n 11694: a4 = a0 >> 0x3f\n 11697: a1 = a1 | a4\n 11700: u64 [s1 + 0x48] = a1\n 11703: a4 = t2 >> 0x3f\n 11706: a0 = a0 << 0x1\n 11709: a4 = a4 | a0\n 11712: a0 = ra << 0x1\n 11715: a1 = u64 [s1 + 0x88]\n 11719: a5 = a1 >> 0x3f\n 11722: a0 = a0 | a5\n 11725: u64 [s1 + 0x80] = a0\n 11729: a5 = a1 << 0x1\n 11732: a0 = u64 [s1 + 0x78]\n 11735: a1 = a0 >> 0x3f\n 11738: t2 = a5 | a1\n 11741: a5 = a0 << 0x1\n 11744: a0 = u64 [s1 + 0x90]\n 11748: ra = a0 >> 0x3f\n 11751: a5 = a5 | ra\n 11754: a0 = a0 << 0x1\n 11757: a1 = u64 [s1 + 0x50]\n 11760: a0 = a0 | a1\n 11763: u64 [s1 + 0x90] = a0\n 11767: a0 = a5 | 0\n 11769: u64 [s1 + 0x78] = a0\n 11772: a0 = t2 | 0\n 11774: u64 [s1 + 0x88] = a0\n 11778: a0 = u64 [s1 + 0x80]\n 11782: a0 = a0 | 0\n 11784: u64 [s1 + 0x80] = a0\n 11788: a0 = a2 - a4\n 11791: a0 = a0 <u t0\n 11794: a1 = a2 <u a4\n 11797: t1 = u64 [s1 + 0x48]\n 11800: a5 = a2 - t1\n 11803: a5 = a5 - a1\n 11806: a5 = a5 - a0\n 11809: ra = a5 >>a 0x3f\n 11812: a0 = u64 [s1 + 0x30]\n 11815: a0 = ra & a0\n 11818: a1 = u64 [s1 + 0x58]\n 11821: t0 = a1 - a0\n 11824: a1 = a1 <u a0\n 11827: t2 = a3 - a1\n 11830: a1 = 0 if a3 != 0\n 11832: a0 = a4 - a1\n 11835: a1 = a4 <u a1\n 11838: a1 = t1 - a1\n 11841: a3 = u64 [s1 + 0x98]\n 11845: a5 = u64 [s1 + 0x70]\n 11848: a2 = a3 | a5\n 11851: a2 = a2 <u 0x1\n 11854: a4 = u64 [s1 + 0x60]\n 11857: t1 = a4 <u a2\n 11860: a4 = a4 - a2\n 11863: a2 = a3 <u 0x1\n 11866: a5 = a5 - a2\n 11869: a2 = u64 [s1 + 0x68]\n 11872: a2 = a2 - t1\n 11875: a3 = a3 + 0xffffffffffffffff\n 11878: u64 [s1 + 0x70] = a5\n 11881: u64 [s1 + 0x68] = a2\n 11884: a2 = a2 | a5\n 11887: u64 [s1 + 0x98] = a3\n 11891: a3 = a3 | a4\n 11894: a2 = a2 | a3\n 11897: a5 = ra & 0x1\n 11900: u64 [s1 + 0x60] = a4\n 11903: jump @418 if a2 != 0\n      : @419 (gas: 1)\n 11907: jump @422\n      : @420 (gas: 5)\n 11909: t0 = 0\n 11911: a4 = 0\n 11913: a5 = 0\n 11915: a2 = 0\n 11917: jump @423\n      : @421 (gas: 3)\n 11919: a5 = 0\n 11921: u64 [s1 + 56] = 0\n 11924: fallthrough\n      : @422 (gas: 20)\n 11925: a2 = u64 [s1 + 0x88]\n 11929: a0 = a2 >> 0x3f\n 11932: a1 = u64 [s1 + 0x80]\n 11936: a1 = a1 << 0x1\n 11939: t1 = a1 | a0\n 11942: a4 = u64 [s1 + 0x78]\n 11945: a1 = a4 >> 0x3f\n 11948: a2 = a2 << 0x1\n 11951: a1 = a1 | a2\n 11954: a3 = u64 [s1 + 0x90]\n 11958: a2 = a3 >> 0x3f\n 11961: a4 = a4 << 0x1\n 11964: a3 = a3 << 0x1\n 11967: t0 = a5 | a3\n 11970: a0 = u64 [s1 + 0x38]\n 11973: a2 = a2 | a0\n 11976: a4 = a4 | a2\n 11979: a5 = a0 | a1\n 11982: a2 = a0 | t1\n 11985: fallthrough\n      : @423 (gas: 12)\n 11986: a1 = u64 [s1 + 0x18]\n 11989: u64 [a1] = t0\n 11991: u64 [a1 + 0x8] = a4\n 11994: u64 [a1 + 0x10] = a5\n 11997: u64 [a1 + 0x18] = a2\n 12000: sp = s0 + 0xfffffffffffffc00\n 12004: a0 = sp + 0x300\n 12008: ra = u64 [a0 + 0xf8]\n 12012: s0 = u64 [a0 + 0xf0]\n 12016: s1 = u64 [a0 + 0xe8]\n 12020: sp = sp + 0x400\n 12024: ret\n      : @424 [export #0: 'call'] (gas: 2)\n 12026: a0 = 0\n 12028: ra = 376, jump @21\n      : @425 [@dyn 188] [export #1: 'deploy'] (gas: 2)\n 12034: a0 = 0x1\n 12037: ra = 378, jump @21\n      : @426 [@dyn 189] (gas: 15)\n 12043: a2 = u64 [s1 + 0x98]\n 12047: a0 = u64 [a2 + 0x8]\n 12050: a1 = i32 [a2 + 0x10]\n 12053: a2 = u64 [a2]\n 12055: a0 = reverse a0\n 12057: a3 = a0 << 0x20\n 12060: a1 = reverse a1\n 12062: a1 = a1 >> 0x20\n 12065: a3 = a3 | a1\n 12068: a0 = a0 >> 0x20\n 12071: a1 = reverse a2\n 12073: a2 = a1 << 0x20\n 12076: a0 = a0 | a2\n 12079: a1 = a1 >> 0x20\n 12082: jump [t0]\n      : @427 (gas: 11)\n 12084: a0 = u64 [a3 + 0x18]\n 12087: a1 = u64 [a3 + 0x10]\n 12090: a2 = u64 [a3 + 0x8]\n 12093: a3 = u64 [a3]\n 12095: a0 = reverse a0\n 12097: a1 = reverse a1\n 12099: a2 = reverse a2\n 12101: a3 = reverse a3\n 12103: a4 = s1 + 0x7ff\n 12107: a4 = a4 + 0x19\n 12110: jump [t0]\n      : @428 (gas: 10)\n 12112: a0 = u64 [a3 + 0x18]\n 12115: a1 = u64 [a3 + 0x10]\n 12118: a2 = u64 [a3 + 0x8]\n 12121: a3 = u64 [a3]\n 12123: a0 = reverse a0\n 12125: a1 = reverse a1\n 12127: a2 = reverse a2\n 12129: a3 = reverse a3\n 12131: a4 = s1 + 0x300\n 12135: jump [t0]\n      : @429 (gas: 8)\n 12137: a0 = a0 | a2\n 12140: a2 = a3 | a1\n 12143: a2 = a2 | a0\n 12146: a2 = a2 >> 0x20\n 12149: a0 = a0 | a1\n 12152: a0 = a0 << 0x20\n 12155: a0 = a0 | a2\n 12158: jump [t0]\n      : @430 (gas: 9)\n 12160: a0 = u64 [a3 + 0x18]\n 12163: a1 = u64 [a3 + 0x10]\n 12166: a2 = u64 [a3 + 0x8]\n 12169: a3 = u64 [a3]\n 12171: a0 = reverse a0\n 12173: a1 = reverse a1\n 12175: a2 = reverse a2\n 12177: a3 = reverse a3\n 12179: jump [t0]\n      : @431 (gas: 8)\n 12181: a2 = 0x100000000\n 12191: a2 = a2 ^ a1\n 12194: a2 = a2 | a0\n 12197: a3 = a1 >> 0x20\n 12200: a3 = a3 <u 0x1\n 12203: a3 = 0 if a0 != 0\n 12205: a3 = 0 if a2 == 0\n 12207: jump [t0]\n      : @432 (gas: 15)\n 12209: a2 = u64 [s1 + 0x98]\n 12213: a0 = u64 [a2 + 0x8]\n 12216: a1 = i32 [a2 + 0x10]\n 12219: a2 = u64 [a2]\n 12221: a0 = reverse a0\n 12223: a3 = a0 << 0x20\n 12226: a1 = reverse a1\n 12228: a1 = a1 >> 0x20\n 12231: a1 = a1 | a3\n 12234: a0 = a0 >> 0x20\n 12237: a2 = reverse a2\n 12239: a3 = a2 << 0x20\n 12242: a0 = a0 | a3\n 12245: a2 = a2 >> 0x20\n 12248: jump [t0]\n      : @433 (gas: 9)\n 12250: a2 = u64 [s1 + 0x98]\n 12254: a0 = u64 [a2 + 0x8]\n 12257: a1 = i32 [a2 + 0x10]\n 12260: a2 = u64 [a2]\n 12262: a3 = reverse a0\n 12264: a0 = a3 << 0x20\n 12267: a1 = reverse a1\n 12269: a1 = a1 >> 0x20\n 12272: jump [t0]\n      : @434 (gas: 12)\n 12274: a0 = u64 [a3 + 0x18]\n 12277: a1 = u64 [a3 + 0x10]\n 12280: a2 = u64 [a3 + 0x8]\n 12283: a3 = u64 [a3]\n 12285: a0 = reverse a0\n 12287: a1 = reverse a1\n 12289: a2 = reverse a2\n 12291: a3 = reverse a3\n 12293: a4 = s1 + 0x7ff\n 12297: a4 = a4 + 0x19\n 12300: a5 = a4 + 0x100\n 12304: jump [t0]\n      : @435 (gas: 9)\n 12306: a0 = u64 [a3 + 0x18]\n 12309: a1 = u64 [a3 + 0x10]\n 12312: a2 = u64 [a3 + 0x8]\n 12315: a3 = u64 [a3]\n 12317: a0 = reverse a0\n 12319: a4 = reverse a1\n 12321: a2 = reverse a2\n 12323: a3 = reverse a3\n 12325: jump [t0]\n      : @436 (gas: 7)\n 12327: u64 [s1 + 696] = 0\n 12331: u64 [s1 + 688] = 0\n 12335: u64 [s1 + 680] = 0\n 12339: a0 = 0x20\n 12342: a1 = s1 + 0x2a0\n 12346: u64 [s1 + 672] = 0\n 12350: jump [t0]\n      : @437 (gas: 8)\n 12352: a0 = sp + 0xffffffffffffffe0\n 12355: a0 = a0 & 0xffffffffffffffe0\n 12358: u64 [s1 + 0x70] = a0\n 12361: sp = a0\n 12363: i32 a2 = a0 + 0\n 12365: a1 = 0x40\n 12368: a0 = u64 [s1 + 0x78]\n 12371: jump [t0]\n      : @438 (gas: 2)\n 12373: a3 = a2 & 0x40\n 12376: jump @442 if a3 != 0\n      : @439 (gas: 1)\n 12379: jump @441 if a2 == 0\n      : @440 (gas: 6)\n 12382: i32 a3 = 0x40 - a2\n 12385: a3 = a1 << a3\n 12388: a1 = a1 >> a2\n 12391: a0 = a0 >> a2\n 12394: a0 = a0 | a3\n 12397: ret\n      : @441 (gas: 1)\n 12399: ret\n      : @442 (gas: 4)\n 12401: a0 = a2 + 0xffffffffffffffc0\n 12404: a0 = a1 >> a0\n 12407: a1 = 0\n 12409: ret\n      : @443 (gas: 2)\n 12411: a3 = a2 & 0x40\n 12414: jump @447 if a3 != 0\n      : @444 (gas: 1)\n 12417: jump @446 if a2 == 0\n      : @445 (gas: 6)\n 12420: i32 a3 = 0x40 - a2\n 12423: a3 = a0 >> a3\n 12426: a0 = a0 << a2\n 12429: a1 = a1 << a2\n 12432: a1 = a1 | a3\n 12435: ret\n      : @446 (gas: 1)\n 12437: ret\n      : @447 (gas: 4)\n 12439: a1 = a2 + 0xffffffffffffffc0\n 12442: a1 = a0 << a1\n 12445: a0 = 0\n 12447: ret\n","bytecode":{"object":"50564d0000e639000000000000010700c1d000c00080036439a602ea8ebc719eb9af2d8f8109f569dbf91943903245253d5f4ad37bb679daf42b8ea3decd30fcadb6d39e3f7dead6d83b96f41964177ffe73ee4a7a061813b5b1fe7621b85b0f1592aa7184e247e7f2459fabf3d9046a753fb93242702d8e4000000004811b11000000000400000012000000200000002e0000003400000041000000530000005e0000006d000000700000007d0000008d0000009d000000a8000000ba000000c500000063616c6c63616c6c5f646174615f636f707963616c6c5f646174615f6c6f616463616c6c5f646174615f73697a6563616c6c65726465706f7369745f6576656e746765745f696d6d757461626c655f646174616765745f73746f72616765686173685f6b656363616b5f3235366e6f777265665f74696d655f6c65667472657475726e5f646174615f636f707972657475726e5f646174615f73697a657365616c5f72657475726e7365745f696d6d757461626c655f646174617365745f73746f7261676576616c75655f7472616e73666572726564051102aefa0463616c6caf02066465706c6f7906b83580bd02b0a16a00b201b40364046904ea04f504100539059905be05ca05230637066b069206a706f1061607b1073c0841085e088b089008ab08c8083d0945098a094f0a640a790aaa0ab90abe0a1a0b260b3f0b220c540c750c380dd70ddc0df80d140e570e5f0e800ed30ed80ef10eff0e040f230f280f2d0f690f710f880fd80f1310b910cd10e7101a112a113011ea11ff112b1255128e129812c212fa12b213dc139b14b014dc14f91432153c1562158f15a515d9152f161a1720173a174a1750176d178a17d717e017f817771884189918cc18dc18e2184019a719cd19961adb1a2e1c731ce61c2b1d6e1dbb1dd91d401e4d1eb81ef71e0c1f411f5f1fa61fb01fcf1ffd1fe220fb201f215321f9213d227b22f02209232d2373239123d323dc23fa2337245024a224ab24e124a826c126e5263527532796279f27b92706280c2812282c283c2845285f28a828c628e028f028f92817298b29d229ef29222a2c2a4a2a702ac62a142b1a2c312c522c912cda2cf02c0a2d4d2d022f0b2f9511e87b10107b15087b163306600002390560000251051c3307900003837783680a060139076000022003600002ac57108210108215088216951118320000390860000251084506330790000383770a0e2838069511f07b10087b15648964753308206497501002b0037c78017c797c7a027c7b03978808d4980897aa1097bb18d4ba0ad4a8087c79057c7a047c7b067c7c07979908d4a90997bb1097cc18d4cb0bd4b909979920d489027c79097c7a087c7b0a7c7c0b979908d4a90997bb1097cc18d4cb0bd4b9097c7a0d7c7b0c7c7c0e7c780f97aa08d4ba0a97cc10978818d4c808d4a808978820d498037c78117c7a107c7b127c7c13978808d4a80897bb1097cc18d4cb0bd4b8087c7a157c7b147c7c167c791797aa08d4ba0a97cc10979918d4c909d4a909979920d4890a7c78197c79187c7b1a7c7c1b978808d4980897bb1097cc18d4cb0bd4b8087c791d7c7b1c7c7c1e7c771f979908d4b90997cc10977718d4c707d49707977720d487076f776fa86f396f2a7b5a187b59107b58087b57821008821595111032009511d87b10207b15187b161082897b19088289087b1982851082861833082050100468026f686f59821a6faa821b086fbb787b18787a10787908787898bc38787c1f98bc30787c1e98bc28787c1d98bc20787c1c98bc18787c1b98bc10787c1a98bb08787b1998ab38787b1798ab30787b1698ab28787b1598ab20787b1498ab18787b1398ab10787b1298aa08787a11989a38787a0f989a30787a0e989a28787a0d989a20787a0c989a18787a0b989a10787a0a98990878790998893878790798893078790698892878790598892078790498891878790398891078790298880878780182102082151882161095112832009511a07b10587b15507b16489515608411e06476828718828910828a0882886f776f996faa6f887b18187b1a107b19087b17491138491130491128491120481140208318831a20831b403309ff33070a07821738821830821928821a206f776f886f996faa7b6a187b69107b68087b679551a082105882155082164895116032009511a07b10587b15509515608411e08272827a08827b108277188283828908828c108288186f746fbb6faa6f276f826fcc6f996f387b17187b1a107b1b087b147b18387b19307b1c287b12208318831a203309ff330b2033070a0f9551a08210588215509511603200951160ff7b1098007b1590007b1688009515a0008411e082ab7b1b3882ab087b1b3082ab107b1b2882aa187b1a20829a7b1a18829a087b1a10829a107b1a088299187b1964865010066582186f888219086f99821a106faa821b186fbb7b1b587b1a507b19487b18408218206f888219286f99821a306faa821b386fbb7b1b787b1a707b19687b18608379836a8317403308020a05955160ff8210980082159000821688009511a00032008b7910520931c8780883881f8488e05638000001253309680002390a680002ae8a093d086800020133087000028377c887073200009511f07b10087b158475010a03013d076400025105075010080950100a4302951180fe7b1078017b1570017b166801951580018411e049215801492150014921480149214001831740010a1001821750018218580182194801821a4001d49808d4a707d4870752074301390664000297672098772095771f8477e09578c000d87807492138017b1820017b17280194777b1730013307409518200150100ca9fc3307c000646850100e25ff8377646833090a01015316400201951700013308c00050101049fb821718017b1738821710017b1730821708017b1720821700017b17189517e0003308e00050101220fb8218f0008216f80014070000000001000000d38707d467077b1828988820888801946893785108af008217e8007b17088217e0007b17108217187b17c0008217207b17c8008217307b17d000330780009518c0008219387b19d800501014fafb7b16b8008217287b17b0008217087b17a8003307a000c871088219107b19a000501016d5fb951780003308405010188ffa82179800821890008219880082168000d49707d48609d47909989920d48707977720d4970751072b003308700002838833070128a20033087000028388330701289500330870000283883307012888006467330850101af7fd8377330833090a019517603308800050101c22fa821778330b9000037b1b38821870821968821a603e07a800033e08a000033e099800033e0a9000039517403308a00050101eeef9821758821850821948821a40821b387bb7387bb8307bb9287bba2028b9f96467330850102088fd8378330733093300220a0d280a33093300220a0d01951108f8951700077b70f0007b75e8007b76e0009515f8079511f8fa8411e064169569ff07959919492900014929f8004929e80080003307409568ff07958801014929f000501024a2fa33076400027b67980039076400025517040728631795670010837720f933083300260a02019569ff07959919819724015147c0e16e83360c5247981aff8e0a281c1251473afc94a6b40e51471720edf63b0451476d287efc4a0a514778de172e63055247ab002537e40c4929800249297802492970024929680295670010837780fa0a1001956aff0795aa1995ab000282b77882b8800082b97082ba68d49808d4a707d48707510706285f12826798008177330803ac780628611250102854f83a08b800037b6888003a08b000037b6880003807c000037b677833077000037b67980083777b6790000a0401826898008287088289808b107b67386f779878207b69406f99979a20d4a8089777207b6b306fba98aa20d4a707989920826a78d3a909826a8000d3a707d4970782698800d39808d4870751070628de138267900033002a0a0433022c28d22650122ccf264926d8047b68d0047b67c8049567e0049568c0047b6ac00450102e8c1e8267f8047b6788008267f0047b6780008267e8047b67788267e0047b6770826790003300300a0433023228832650123280264926b8047b68b0047b67a8049568a0047b6aa0043307501034e8f8492698044926900449268004013307209568800449268804501036cbf8956700108377a0fa0a090133096800029568ff07958819958a000282a7a0007b675882a798007b676082a790007b6768390768000282a888007b685056173f0b200368000240017b69209517e08479e07b6948649133077000027b6728837783993308407b67183300380a08826a4833023a28fa25826a4850123af42595bc00027bcac0007bc9b8007bc8b0007bc7a8008267587bc7e0008267607bc7d8008267687bc7d0008267507bc7c8009567ff079577c1029568ff079588e10250103c7cf9826a8000826b70d4ab0782698800826c78d49c08d48707510779010a0a826998008268387b98088268407b988268307a9810956aff0795aa1982687895ab00027bb8f0008268707bb8e800826880007bb8f8008268880095ab00037bb8482a08038e77fc089a787bb8407bb8387bb8307bb828979820988820977723d487079568ff07958801039788209888209569ff0795994103979920d4890a826b2897bb2098bb209568ff0795882103978820d4b80c3308ff3309ff0a7b67689567600450103ed516826768510706283d1495672004330840501040f5f5956b000482b73882b83082b92882ba20501242f524510706287c0f826770956900047b978267787b9708826780007b971095680004826788007b971864a77b6a68501044e9f6826790003300460a043302482824255012482125d4780298aa206f99979820d4a8089899204926d8033a0a2000023a0b2800023a0c3000023a073800027b6af803956a00037babf0007bace8007ba7e0007ba9d0007ba8c8003308209569e003956ac0037b62c00382676850104a55f89567a00333084050104c33f5956b000382b7b80082b8b00082b9a80082baa00050124e2f245207b90e826770956900037b9780008267787b978800826780007b97900095688003826788007b97980064a77b6a98003300b200281bf64929400449293804492930044929280495670010837740fc0a1001956aff0795aa1995ab000482b73882b84082b93082ba28d49808d4a707d4870752076a0e826798008177541723710e95670010837760fc3308040a0201956bff0795bb1982b7580482b9600414080000000001000000d37808d49808987a2088aa01949a938a510a460e82b8500482ba48047bba087bb8107bb7189567ff079577419568ff079588217bb920501050c81a9568ff079588198287407b6798008287387b6790008287307b6788008287287b6780009567ff0795770133084050105205f49568ff0795881982878288f895690010829908f8956a001082aa00f8501254f9225207830d82678000956900077b97e000826788007b97e800826790007b97f0009568e007826798007b97f80064a77b6a98003300b20028e3f44929a001492998014929900149298801956700108377a0f90a1001956aff0795aa1995ab000182b7980082b8a00082b9900082ba8800d49808d4a707d487075207610d826798008177541723680d956700108377c0f93308040a029567ff07957719957900018298c0007b6890008298b8007b6888008298b0007b6880008297a8007b6778501056cdf23a08b800037b68683a08b000037b68603807c000037b675833077000037b67980083777b67700a040182679800827208827b807c106f279878206fb9979a20d4a8089777206fca98aa20d4a707989920826a58d3a909826a60d3a707d49707826968d39808d487075207d00c7b6c407b62487b6b5082678800826878d487078268900082698000d49808d487075107f00c8267703300580a0433025a28372150125a342149265803956900037b98507b9748956840037b9a40330750105c9bf3492638034926300349262803330720956820034926200350105e7ff333076800027b6768390768000256173f0b826868480840019517e08479e07b6960649133077000027b6738837783993308407b67583300600a08826a60330262289e21826a6050126298217bcae0007bc9d8007bc8d0007bc7c800956700039568ff079588e10150106405f49568000382871882620003828910828a08826c9000d3c70bd8c70882678800d8790cdbb80c82688000d38a03d88a0a826878d88208db3a08d39707d4b707db7c085208390c8267703300660a0433026828e120501268de204926f8027b69f0027b67e8029567e0027b68e00250106a411482677033006c0a0433026e280f2050126e0c204926d802956900027b98d0007b97c8009568c0027b9ac000330750107070f2501272042150107466f29517e08477e07b67606471826768817756173f0b826868480840019517e08477e07b6730647183793308408267583300760a08826a3033027828ac20826a30501278a6208268607b8a187b89107b8b087b879567800250107afdf2826a8002826788028268900282699802826b90007b6b3802826b88007b6b3002826b80007b6b2802826b787b6b20027b6958027b6850027b6748029567600295684002956920027b6a400250107c5310956b000282b77882b87082b96882ba60956bff0795bb197bb7000295b700017b78f8007b79f0007b7ae8009568ff079588010282676050107ef3f20a0a826998008268487b98088268507b988268407a981082689000956aff0795aa1995ab00027bb820826888007bb818826880007bb8108268787bb808482a28028e77fc089a787bb8607bb8587bb8507bb848979820988820977723d487079568ff07958821029788209888209569ff0795996102979920d4890a826b3897bb2098bb209568ff0795884102978820d4b80c3308ff3309ff0a7b676095670002502080006c108267605207910b9567c001330840502082008def956b000182b7d80082b8d00082b9c80082bac00050228400881e520711098267787b67a001826780007b67a801826788007b67b0019568a001826790007b67b80164a77b6a9000502086007af0826770330088000a0433028a0028b31e50228a00b01ed4780298aa206f99979820d4a808989920492678013a0a4000023a0b4800023a0c5000023a075800027b6a9801956a00017bab90007bac88007ba780007ba9707ba86833082095698001956a60017b626001826790003300d60028e0f14929800449297804492970044929680495670010837780fc0a1001956aff0795aa1995ab000482b77882b8800082b97082ba68d49808d4a707d48707520758098267980081775417235f09956700108377a0fc33080433008c000a0201956bff0795bb1982b8980482b7a00450228e009c1d510a440982b9900482ba88047bbac8007bb9d0007bb8d8009568ff079588e1007bb7e00033075020900069ef9567ff079577194927c0004927b8004927b00064793307209568ff079588c1004929a800502092003fef390868000256183f0b200368000240019517e08479e07b6998006491330770000283778399330840330094000a08826a98003302960028a91c826a980050229600a21c95bc00047bcac0007bc9b8007bc8b0007bc7a8009567ff079577a1009568ff079588c10450209800c4ef9568ff079588198287a0007b679800828798007b679000828790007b678800828788007b6780009567ff079577810033084050209a0060ed956aff0795aa1982a7800082a87882a97082ab68d49707d48b09d47909989920d48707977720d497075207d506826780007ba748826788007ba750826790007ba7589568ff07958861826798007ba76064b77b6b98003300b200283aee4929c0034929b8034929b0034929a803956700108377c0fb0a1001956aff0795aa1995ab000382b7b80082b8c00082b9b00082baa800d49808d4a707d487075207be07826798008177541703c5079567e00533084050209c00a8ec956800058287f8007b6798008287f0007b6790008287e8007b6780008287e0007b67880050209e002aec8267980082688000d4870782688800648a82699000d49808d47808988820d49707977720d487075207f5053a09b000033a08b800033807c000034926d805956b00057bb7d0007bb8c8009568c0057bb9c00064a73300ee00285aed524756a5a64d3f074929600349295803492950034929480395670010837760fb0a1001956aff0795aa1995ab000382b75882b86082b95082ba48d49808d4a707d4870752072408826798008177541723510795670010837780fb3308043300a0000a0201956bff0795bb1982b8780382b780035022a200eb1a510aff0782b9700382ba6803956b00057bbaa0007bb9a8007bb8b0009568a0057bb7b80033075020a400b8ec49269805492690054926880533072095688005492680055020a6009bec390868000256183f0b200368000240019517e08479e07b69980064913307700002837783993308403300a8000a08826a98003302aa0028051a826a98005022aa00fe1995bc00037bcaa0007bc998007bc890007bc78800956760059568ff079588a1035020ac0024ed826778057b679800826770057b679000826768057b678800826760057b678000956740053308405020ae00cbea956b000582b75882b85082b94882ba405022b000ca195207530482678000956900057b9720826788007b9728826790007b973095682005826798007b973864a77b6a98005020b200bbeb330820826798003300f0002831ee826798008177541723f90595670010837700fc3308040a029568ff07958819828700047b679000958900038297f8007b6788008297f0007b6780008297e8007b67785020b400d7e93a08b800037b68683a08b000037b68603807c000037b675833077000037b67980083777b67700a04018269980082970882988199106f77987a206f88978b20d4ba0a9777206f99989920d49707988820826958d39808826960d39707d48707826868d3a808d48707520729069567ff079577194927200449271804492710044927080495670010837720fc0a10019569ff07959919959a000482a72082a8108292080482a91882639000d33707826a8000d3a808d48707826c8800d3c908826b78d3b209d49808d4870752070c06d4cb07d43a08d48707510742068267703300b6000a043302b800289a185022b8009718492698077b6990077b678807956780077b6880075020ba00f90b8267703300bc000a043302be0028c4175022be00c11749267807956900077b98707b9768956860077b9a6033075020c00027ea49265807492650074926480733072095684007492640075020c2000aea9517e08477e07b676864713309680002390768000256173f0b200368000240017b69509517e08479e07b696064913307700002837783993308407b67583300c4000a08826a603302c600283e18826a605022c60038188268687b8a187b89107b8b087b87956720075020c8008eea8264380795680007828730828b20828c289518e08488e06481826a8000c8ca0a826278c8b202d8b20bc8ba0ad3ca03d8ca09da3b09826b8800c87b0bc89b0cd8bc0382609000c84000d87b0bc80b0bc83b00d87c03d3040bd84004dab304d3c707d4b707da79047b8c107b8a087b827b801852042b058267685020ca0090ea956700073308405020cc00d6e7956b000782b71882b81082b90882ba5022ce00d61652075f018267787b67e006826780007b67e806826788007b67f0069568e006826790007b67f80664a77b6a90005020d000c8e88267703300d2000a043302d4002801175022d400fe16d4780298aa206f99979820d4a8089899204926b8063a0a0000023a0b0800023a0c1000023a071800027b6ad806956a00067babd0007bacc8007ba7c0007ba9b0007ba8a8003308209569c006956aa0067b62a006826790005020d60030ea330782685833090a0d283a054929e0034929d8034929d0034929c803956700108377e0fb0a1001956aff0795aa1995ab000382b7d80082b8e00082b9d00082bac800d49808d4a707d48707520776048267980081775417036202956720063308405020d800b3e6956800068287387b6798008287307b6790008287287b6780008287207b6788005020da0039e68267980082688000d4870782688800648b82699000d49808d47808988820d49707977720d4870751071d04003308700002838833070133090a0d287c043308700002838833070133090a0d286b043308700002838833070133090a0d285a043308700002838833070133090a0d2849043308700002838833070133090a0d2838043308700002838833070133090a0d2827043308700002838833070133090a0d28160449267003492668034926600314070000000004a09fc3956860037b67780333075020dc00fee6390868000256181f12200368000220330870000228e002330870000228d802492630014926280149262001140700000000c611522c956820017b67380133075020de00b9e6390868000256181f122003680002203308700002289b023308700002289302492650014926480149264001140700000000b878d6f4956840017b67580133073300e2002870e63308700002838833070133090a0d2854033308700002838833070133090a0d2843033308700002838833070133090a0d2832033308700002838833070133090a0d2821033308700002838833070133090a0d2810035247adaee92ce9029567ff079577194927400149273801492730014927280195670010837740f90a1001956aff0795aa1995ab000182b73882b84082b93082ba28d49808d4a707d48707510714033308700002838833070133090a0d28b1023308700002838833070133090a0d28a0023308700002838833070133090a0d288f023308700002838833070133090a0d287e0249261005492608054926000514070000000004a09fc3956800057b67180533075020e00066e5390868000256181f12200368000220330870000228480133087000022840014926f0014926e8014926e00114070000000018ecb8909568e0017b67f80133075020e20021e5826768817756171f188268684808203307013309048268580a0d2874013307013309048268580a0d2866013308700002838833070133090a0d28d7013308700002838833070133090a0d28c6014926d0074926c8074926c00714070000000004a09fc39568c0077b67d80733075020e400aee4390868000256181f12200368000220330870000228900033087000022888004926b0074926a8074926a007140700000000c611522c9568a0077b67b80733075020e60069e4390868000256181f112003680002203308700002284b33087000022844492650064926480649264006140700000000c611522c956840067b67580633075020e80026e4390868000256181f112003680002203308700002280833087000020183883307013309040a0d01492690064926880649268006140700000000717b484e956880067b67980633075020ea00d9e34926780649267006492660061133070495686006492668065020ec00bbe3826750817756173f178268504808403307013309248268580a0d280e3307013309248268580a0d013308700002838833070133090a0d28743a099000033a089800033a0aa000033a07a80003956c00067bc7187bca107bc808956800067bc964b75020ee0054e3330820826788005020f000cee583780133092033070a0d82679800817728098267980081770151071d3308700002838833070133090a0d280c838833070133090a0d0133087000028388330733090a0d28f349265004492648044926400414070000000018ecb890956840047b67580433075020f200dce2826720817756171f0b826820480820013307013309048268180a0d018267980081775617230b3308700002289695670010837760f93308043300f4000a02019567ff0795771982785801827760015022f6008f10520a0b33087000022865ff956aff0795aa1982a9500182aa4801956b00017bba7bb9087bb810956800017bb71833075020f80053e24926f8004926f0004926e000013307209568e0004926e8005020fa0035e233076800027b679800390768000256173f0c82689800480840019517e08479e07b698800649133077000027b679000837783993308403300fc000a08826a88003302fe00284f10826a88005022fe0048107bca80007bc9787bc8707bc7689567c0009568ff079588810150200001b7e28269c0008267c8008268d000826ad8007b6ab8007b68b0007b67a800330780009568a0007b69a0005020020197e182679800817756279f0018826898004808a00082679000837880002838fe8267900083788000282dfe9511807b10787b15707b1668951580008411f0829b828a829608828308829410828c10829918828818d363027b1608d863067b1b187b1a10d8ba0a7b1ada2a06d3980ad89800d84c02daa200d34c0bd4ba0adaa600520046c94c0ac99808c92808d86a09c99808c96a0a821908c99309821bc9b909821b18821c10c9bc0b7b7b7b79087b7a107b7818955180821078821570821668951180003200491150491148491140140700000000717b484e9518407b1758330750200401b2e0491138491130491120113307049518204911285020060199e0390868000256183f0b2003680002400133087000028388330701330924330008010a0d01951100ff7b10f8007b15f0007b16e800951500018411e064760a0c01510769017b16100a0c64769517c00033084050200a0107df8213d8008214d0008210c8008212c00095671f7b1618d867088477e095793fd87907c8780a8499e0c80a087b1238c89202d89209c89808d3a80bd8a80adab90ac84a0ad84a0bc8b3098eac8e96da9c06d49a0c8e87dbc60752072401821738d87207d3080cd80806dac706d33907d8390cdb7c0bd34a0cd4c707da760b520bff007b12a0007b18a8007b1ab0003307409518a0007b19b8007b133064467b102850200c019bdf821938d46907821830821a28d4a808d487079877207b1620d46808978820d47808520889006497492198004921900049218800951880008219187b19800050200e0157df0a0c01821b38821820821930d498081409e0ffffff00000000d89b09821a2894a99489510943647698772052073b83b72083687b1818646850201001a0e17a16e00083778318e00033090a0b01821b388117e000821610821830821920821a28821c18aec70e00330a33093308330b60017b6b7b6a087b69107b6818955100ff8210f8008215f0008216e800951100013200491170491168491160140700000000717b484e9518607b1778330750201201a4de49115849115049114041330704951840491148502014018bde390868000256183f0b2003680002400133087000028388330701330924330016010a0d01951180fe7b1078017b1570017b166801951580018411e0641682798278088077104926d8007b67287b67d0007b68107b68c8009568c0007b69187b69c00033075020180121de4926b8004926b0004926a000013307209568a0004926a80050201a0103de3309680002390768000256173f0b200368000240017b69309517e08479e07b693864913307700002837783993308407b672033001c010a08826a3833021e0128b00b826a3850221e01aa0b7b6af8007b69f0007b68e8007b67e000956780009568e000502020018cde826790008268980082698800826a8000d49808d4a707d487075207ce004916788267187b67608267107b67689568608267287b67703307502022015ddd491658491650491640013307209568404916485020240144dd836700010a0901956a000182a7187b671882a7107b672882a7087b6738826930819782a87b681056173f08480940019517e08477e07b673064718379330840826720330026010a08826a303302280128e10a826a3050222801db0a956b00017bba387bb9307bb8287bb7208267187bb7588267287bb7508267387bb7488267107bb740956720019568400150202a0126de955180fe821078018215700182166801951180013200951140ff7b10b8007b15b0007b16a8009515c0008411f082908282828a087b1758829b08d60207ca0a06c86707d86706d60a0cc86c0ccab206c867077b1750d86707d6b206c86707c8c707d8c70cd6ba06c86c0ccaba06c867077b1748d86706c86c0c7b1c40829310829918828418828710ca3a0c7b1920ca2906c8c6087b1b28ca7b06ca0409c86909ca2306ca070cc8c6067b1330d6230b7b1b10c88b0bd60703c89308d8c6097b18187b1b08c8b80cc8c9097b1438d44a0cd47208d4c808821b40821c48c8c606d8c604c8b909c8490951088f00d3b9087b1948821948d8b909db89047b1640821810821908d889068ea98218208e8cd2c909d6280c8eccd4c909643b821330d63a0a8eaad4a909d469097b1910821918d8b909821b288eba8216388e6cd2ca0ad6060c8eccd4ca0ad67b0c8eccd4ca0ad4a909d4830ad4670c8216408eaa8eccd2ca0ad4a909821810d49808821948d4480784770152072dca02078218587b878217507b87087b86107b8918955140ff8210b8008215b0008216a8009511c0003200492190004921880049218000140700000000717b484e951880007b179800330750202c01ecda4911784911704911601133070495186049116850202e01d3da390868000256183f0b2003680002400133087000028388330701330924330030010a0d01951100fc951900037b90f8007b95f0007b96e800951500048411e064168289828a088088107b6718492638037b6888007b6830037b6a90007b6a2803956820037b6998007b6920033307502032015fda4926180349261003492600030133072095680003492608035020340141da3309680002390768000256173f0b200368000240017b6980009517e08479e07b697064913307700002837783993308407b6778330036010a08826a703302380128bd07826a7050223801b7077bba587bb9507bb8487bb7409567e0029568400350203a01cdda956b000282b7f00082b8f80082b9e80082bae000d49808d4a707d487075107af064926d80282679800956900027b97c000826790007b97c8009568c002826788007b97d000330750203c018ed950223e0121085020400182d982698000819756173f0e48094033024201281d08502242011a08330044010a08826a7033024601281707826a705022460111077bba787bb9707bb8687bb76095678002956860035020480127da956b000282b7900082b8980082b9880082ba8000d49808d4a707d487075107090649267802826798007b676002826790007b67680295686002826788007b677002330750204a01ecd849265802492650024926400201330720956840024926480250204c01ced882688000818756173f0e48084033024e0128690750224e016607330050010a08826a7033025201289306826a70502252018d067b6a98037b6990037b6888037b6780039567200295688003502054016fd9826720027b6770826728027b6768826730027b6760826738027b67588367a0030a09956b000382baa00082b7a80082b8b00082b9b800826b587b6bd801826b607b6bd001826b687b6bc801826b707b6bc0017b69f8017b68f0017b67e801956700029568e0019569c0017b6ae00150205601a1f6956800028287187b67588287107b67608287087b676882877b67704926b80182678800956900017b97b000826790007b97a8009568a001826798007b97a000330750205801c2d7492698014926900149268801330720956880014926800150205a01a5d782688000818756173f08480840019517e08477e07b6798006471837933084082677833005c010a08826a980033025e01283105826a980050225e012a057bbad8007bb9d0007bb8c8007bb7c000956760019568c003502060013cd8826760017b679800826768017b679000826770017b678800826778017b6780005020620196d53a089000033a099800033a0aa000033a07a800037b6718017b6a10017b6908017b680001826780007b673801826788007b673001826790007b672801956740019568200195690001826a98007b6a20015020640137fa956b000182ba4082b74882b85082b958826b587b6bb800826b607b6bb000826b687b6ba800826b707b6ba0007b69d8007b68d0007b67c8009567e0009568c0009569a0007b6ac00050206601e9f98262f8008264f0008263e8008268e0007b685868276849959c40db270c68376889959940db370995978000d4240adaa70cd8970994a98e9a88c7c500857b01da9b0a88a7019577ff9aa09a99c9b9089ac9c4007b6088008e0c8e7b7b678000da7c0b7b699000889700018577018e8cdb8c07dbab07d4230a826058d4400bd4ba0a88aa01d4a7077b625064299479644c947c643b947b64029472520724036440826790008577ff00826a8800d4a704826a8000d4a807d4740751070503826b900095b9017b699800889701c887077b6770d4970788770182698800c897077b6760d89707c8a7077b67689ab8ff007b68789a89800082675864387b63487b60405020680141047b6788007b68800082674082685082697850206a0150047b673882678000d487077b678000826890009a897f82675882684850206c012f04826978889a80007b6a9000826b8000dbab08826b50da9b087b68800082688800826b38d4b808daa708826740da97087b68880082675882684850206e01f003826a60826b68826970d4b909826c9800d4ac0cd4c909826a900093a87b687893a77b6790005109d9011407000064a7b3b6e00d7b6730826798009579808267408268505020700181037b67387b682082675882684882699800502072016b037b67107b6828826898009a898000826740826850502074017703826928d49808826a980088ab80007b6b28826920dab908826948dba8097b6948826810d48707826838dab807826858dba70864a97b6858826740826850502076010e03330c82692893989397826b3095b9ff7b69288eb99599ff7b6920826448826258017b68487b6c5049163898293f974a01d49a0a97290182608000980b3fd49b0b7b6b58826920d3a9087b6840d8a908826c28d8bc02826b40dbb802826848978801987b3fd4b8087b6848984b3f977701d47b0b97070182688800988c3fd4c7077b678000978c0182677898783fd48c04977c018267900098703fd40c0c977701826850d487077b67900086c77b677886477b6788008267800086777b678000c9b907d82707d8b908826348c9390cc98c0cc97c0c99c03f826730d27007826858c97802d87808c98a0494a8c98b07d88b08c98308826a9800826c70d4ca09889901826b60d89b03c99b0b88a901c99c0c826968c9390995aaff7b6c707b6968d4c9097b6a9800d4ba0ad4a909840c017b6b605209effe28123302330b330c33092845330c491638018269880098973f82688000978801d47803826b7898b83f979901d49808826a900098a93f97bb0197aa01d4ac02826738d47909d49b0bd4870cd43709018268187b827b8b087b8c107b8918955100fc951700038270f8008275f0008276e8009511000432003307502078014ed533070150207a0145d58269980082970881981082996f77977a206f88988820d48a0a9877206f98978920d49707988820320282a71882a81082a90882aa6f776f886f996faa956bff0795bb19320282a71882a81082a90882aa6f776f886f996faa956b00033202d49707d48a09d47909989920d48707977720d49707320282a71882a81082a90882aa6f776f886f996faa320214090000000001000000d38909d47909988a2088aa01947a939a32028269980082970881981082996f77977a206f88988820d4a8089877206f99979a20d4a70798992032028269980082970881981082996f7a97a7206f88988820320282a71882a81082a90882aa6f776f886f996faa956bff0795bb1995bc0001320282a71882a81082a90882aa6f776f8b6f996faa32024926b8024926b0024926a8023307209568a0024926a00232029517e08477e07b6770647183793308408267783202849a40520a195109148d9a40cfa80ad09808d09707d4a707320032009597c0d0780733083200849a40520a195109148d9a40d0a70acf9707cf9808d4a808320032009598c0cf870833073200490a21a11a4292d210a1925429a42449922449922449922449922449922449922449922449922449922449922449aa9294529294942454a5242549922449922449922449922449922449922449922449499294a4aa24254994a492a42a494992922425294955559292a42495244544444a92242549525129a5244929a524a9a488882849128490309426a521112222221111d18888241192241211452244a16a8808914824121122024892544422894422221122918824422444442449920c25a1249454a84a84842409218444489224492a54a9d2888888489188201111428448446924020209080808088888886824124992244a124284080951345252529294248924922452122222224244442412290911115188088908110d918844222112c12429a4929424212222128944222222441249a248521249442222a288922449229288244944924c842491104912924449242225444a425292082184888888484424444244448448442222228a4844444423912449220a116924228024a98848128924441289442292102911112122222222228a484444442311119124a21091221111111109212121214a23a594a424499224912492882492921091440a11918810122299a4904a5292848888880891482289249224492229091111119292101111510821492992492a49491292a4081111111111898888880891249188888848289294442412892411254992442411499288249908129120222282484444444411248a044949228410222222494444242222a291482449220a1189462282888888882888444489882044308942258a4804111111111144222222222212442249922489482412891491888888462222224944211244444444441091289224891042444444918088888846224992441422128d44041111111151101189084204932854a28844101111111144444444448248922022128944a40812912844a448444444448290909010a591524a52922449928844444434124924124924492249248a04111111248a041149a420221211242984082649a19228910449520411499222499224924492244992a444824810490a221111111145902812242589104288888888444404a5121111d148444424892844824824128920225124491243a9845209a5124a25944a2895502a1111404441882024242202882808118484444400114542a9845209a5124a25944a40242222a291489224114a25944a2895502a1111404441882024242202882848912429494a2895502a11114044418820242422028828081184421111404441882014963422028828880889085224492a4943a942082192440589a0a9a86842a94a0d5545440011052992491a452822d148449090484494440a22422282102122932844258a4804912422828888888888200a1111894892442a499224494a92244992244949529224899204901424912408110c25d18888488d54248888489224499224495249892449922411118948099224499244111189a04912405229492988a22692245965492222a224012405492409420443493422225249241291288808890842886092142a891249101111114444248924499282249204d148922495c82495448924882449922489082222a2888848254992244992244992244992244992244992244992244922499224a5a49494244929292949524992244949121111454400110549240942044349342222229524222222a22022242208218291a45049944882248908222222494444444444411044914810259220492282888848121111111105112111411489045122092222228248241289222222914824222222228824494a4444444414444422822832894aa2884410111111444444440421841011111111111111412449229148444444441011914a2a892415495289a848444a9224495555141189242291248924492452124424091289481224229244244922099224922845049048122449044944122411499224495292a05492926492248924499224499224892492249124895244912449922449492249922449924892a8aa3212499244922449a624111111152488a452929294a4aa4849aa8a92244949aa2a8024a922a994a42445522925a92a1225a9aa884844492a294992a4924a9224a9a40000"},"methodIdentifiers":{"claimRewards()":"372500ab","deposits(address)":"fc7e286d","getPendingRewards(address)":"f6ed2017","getStakedAmount(address)":"4da6a556","habitTracker()":"836ee1c0","lastUpdateTime(address)":"2ce9aead","ratePerSecond()":"8eff1a98","stake(uint256)":"a694fc3a","unstake(uint256)":"2e17de78"}},"hash":"8a7c356cf8daca1e4ac9f1371be8939c727e0634509c0e8e49f377fd84550c12","factoryDependencies":{}}}}