{
  "contracts/adapters/MoonwellAdapter.sol": {
    "MoonwellAdapter": {
      "abi": [
        {
          "inputs": [
            {
              "internalType": "address",
              "name": "_mToken",
              "type": "address"
            },
            {
              "internalType": "address",
              "name": "_comptroller",
              "type": "address"
            },
            {
              "internalType": "address",
              "name": "_habitTracker",
              "type": "address"
            }
          ],
          "stateMutability": "nonpayable",
          "type": "constructor"
        },
        {
          "inputs": [],
          "name": "InvalidAmount",
          "type": "error"
        },
        {
          "inputs": [],
          "name": "MintFailed",
          "type": "error"
        },
        {
          "inputs": [],
          "name": "OnlyHabitTracker",
          "type": "error"
        },
        {
          "inputs": [],
          "name": "RedeemFailed",
          "type": "error"
        },
        {
          "anonymous": false,
          "inputs": [
            {
              "indexed": true,
              "internalType": "address",
              "name": "user",
              "type": "address"
            },
            {
              "indexed": false,
              "internalType": "uint256",
              "name": "amount",
              "type": "uint256"
            }
          ],
          "name": "RewardsClaimed",
          "type": "event"
        },
        {
          "anonymous": false,
          "inputs": [
            {
              "indexed": true,
              "internalType": "address",
              "name": "user",
              "type": "address"
            },
            {
              "indexed": false,
              "internalType": "uint256",
              "name": "amount",
              "type": "uint256"
            },
            {
              "indexed": false,
              "internalType": "uint256",
              "name": "mTokens",
              "type": "uint256"
            }
          ],
          "name": "Staked",
          "type": "event"
        },
        {
          "anonymous": false,
          "inputs": [
            {
              "indexed": true,
              "internalType": "address",
              "name": "user",
              "type": "address"
            },
            {
              "indexed": false,
              "internalType": "uint256",
              "name": "amount",
              "type": "uint256"
            },
            {
              "indexed": false,
              "internalType": "uint256",
              "name": "mTokens",
              "type": "uint256"
            }
          ],
          "name": "Unstaked",
          "type": "event"
        },
        {
          "inputs": [
            {
              "internalType": "address",
              "name": "user",
              "type": "address"
            }
          ],
          "name": "claimRewards",
          "outputs": [
            {
              "internalType": "uint256",
              "name": "claimed",
              "type": "uint256"
            }
          ],
          "stateMutability": "nonpayable",
          "type": "function"
        },
        {
          "inputs": [],
          "name": "comptroller",
          "outputs": [
            {
              "internalType": "address",
              "name": "",
              "type": "address"
            }
          ],
          "stateMutability": "view",
          "type": "function"
        },
        {
          "inputs": [
            {
              "internalType": "address",
              "name": "",
              "type": "address"
            }
          ],
          "name": "getPendingRewards",
          "outputs": [
            {
              "internalType": "uint256",
              "name": "pending",
              "type": "uint256"
            }
          ],
          "stateMutability": "pure",
          "type": "function"
        },
        {
          "inputs": [
            {
              "internalType": "address",
              "name": "who",
              "type": "address"
            }
          ],
          "name": "getStakedAmount",
          "outputs": [
            {
              "internalType": "uint256",
              "name": "staked",
              "type": "uint256"
            }
          ],
          "stateMutability": "view",
          "type": "function"
        },
        {
          "inputs": [],
          "name": "habitTracker",
          "outputs": [
            {
              "internalType": "address",
              "name": "",
              "type": "address"
            }
          ],
          "stateMutability": "view",
          "type": "function"
        },
        {
          "inputs": [],
          "name": "mToken",
          "outputs": [
            {
              "internalType": "address",
              "name": "",
              "type": "address"
            }
          ],
          "stateMutability": "view",
          "type": "function"
        },
        {
          "inputs": [
            {
              "internalType": "address",
              "name": "user",
              "type": "address"
            },
            {
              "internalType": "uint256",
              "name": "amount",
              "type": "uint256"
            }
          ],
          "name": "stake",
          "outputs": [],
          "stateMutability": "payable",
          "type": "function"
        },
        {
          "inputs": [
            {
              "internalType": "address",
              "name": "user",
              "type": "address"
            },
            {
              "internalType": "uint256",
              "name": "amount",
              "type": "uint256"
            }
          ],
          "name": "unstake",
          "outputs": [],
          "stateMutability": "nonpayable",
          "type": "function"
        },
        {
          "inputs": [
            {
              "internalType": "address",
              "name": "",
              "type": "address"
            }
          ],
          "name": "userStakes",
          "outputs": [
            {
              "internalType": "uint256",
              "name": "",
              "type": "uint256"
            }
          ],
          "stateMutability": "view",
          "type": "function"
        },
        {
          "stateMutability": "payable",
          "type": "receive"
        }
      ],
      "evm": {
        "assembly": "// RO data = 0/0 bytes\n// RW data = 100/65776 bytes\n// Stack size = 32768 bytes\n\n// Instructions = 3772\n// Code size = 13111 bytes\n\n      : @0 (gas: 7)\n     0: sp = sp + 0xffffffffffffffe8\n     3: u64 [sp + 0x10] = ra\n     6: u64 [sp + 0x8] = s0\n     9: u64 [sp] = s1\n    11: s1 = 0x20060\n    16: s0 = i32 [0x20060]\n    21: jump @3 if s0 == 0\n      : @1 (gas: 5)\n    24: a0 = 0x30090\n    29: i32 a0 = a0 + 0\n    31: i32 a1 = s1 + 0\n    33: ecalli 8 // 'get_immutable_data'\n    35: fallthrough\n      : @2 (gas: 3)\n    36: a0 = i32 [0x20060]\n    41: u32 [0x20060] = 0\n    46: jump @4 if a0 <u s0\n      : @3 (gas: 5)\n    49: ra = u64 [sp + 0x10]\n    52: s0 = u64 [sp + 0x8]\n    55: s1 = u64 [sp]\n    57: sp = sp + 0x18\n    60: ret\n      : @4 (gas: 1)\n    62: trap\n      : @5 (gas: 2)\n    63: a1 = i32 [0x20060]\n    68: jump @47 if a1 == 0\n      : @6 (gas: 4)\n    72: a0 = 0x30090\n    77: i32 a0 = a0 + 0\n    79: ecalli 15 // 'set_immutable_data'\n    81: jump @47\n      : @7 (gas: 8)\n    84: sp = sp + 0xfffffffffffffff0\n    87: u64 [sp + 0x8] = ra\n    90: u64 [sp] = s0\n    92: a2 = a1\n    94: s0 = a0\n    96: a1 = 0x20\n    99: a0 = a2\n   101: ra = 2, jump @15\n      : @8 [@dyn 1] (gas: 100)\n   106: a1 = u8 [a0 + 0x1]\n   109: a2 = u8 [a0]\n   111: a3 = u8 [a0 + 0x2]\n   114: a4 = u8 [a0 + 0x3]\n   117: a1 = a1 << 0x8\n   120: a1 = a1 | a2\n   123: a3 = a3 << 0x10\n   126: a4 = a4 << 0x18\n   129: a3 = a3 | a4\n   132: a1 = a1 | a3\n   135: a2 = u8 [a0 + 0x5]\n   138: a3 = u8 [a0 + 0x4]\n   141: a4 = u8 [a0 + 0x6]\n   144: a5 = u8 [a0 + 0x7]\n   147: a2 = a2 << 0x8\n   150: a2 = a2 | a3\n   153: a4 = a4 << 0x10\n   156: a5 = a5 << 0x18\n   159: a4 = a4 | a5\n   162: a2 = a2 | a4\n   165: a2 = a2 << 0x20\n   168: t0 = a2 | a1\n   171: a2 = u8 [a0 + 0x9]\n   174: a3 = u8 [a0 + 0x8]\n   177: a4 = u8 [a0 + 0xa]\n   180: a5 = u8 [a0 + 0xb]\n   183: a2 = a2 << 0x8\n   186: a2 = a2 | a3\n   189: a4 = a4 << 0x10\n   192: a5 = a5 << 0x18\n   195: a4 = a4 | a5\n   198: a2 = a2 | a4\n   201: a3 = u8 [a0 + 0xd]\n   204: a4 = u8 [a0 + 0xc]\n   207: a5 = u8 [a0 + 0xe]\n   210: a1 = u8 [a0 + 0xf]\n   213: a3 = a3 << 0x8\n   216: a3 = a3 | a4\n   219: a5 = a5 << 0x10\n   222: a1 = a1 << 0x18\n   225: a1 = a1 | a5\n   228: a1 = a1 | a3\n   231: a1 = a1 << 0x20\n   234: t1 = a1 | a2\n   237: a1 = u8 [a0 + 0x11]\n   240: a3 = u8 [a0 + 0x10]\n   243: a4 = u8 [a0 + 0x12]\n   246: a5 = u8 [a0 + 0x13]\n   249: a1 = a1 << 0x8\n   252: a1 = a1 | a3\n   255: a4 = a4 << 0x10\n   258: a5 = a5 << 0x18\n   261: a4 = a4 | a5\n   264: a1 = a1 | a4\n   267: a3 = u8 [a0 + 0x15]\n   270: a4 = u8 [a0 + 0x14]\n   273: a5 = u8 [a0 + 0x16]\n   276: a2 = u8 [a0 + 0x17]\n   279: a3 = a3 << 0x8\n   282: a3 = a3 | a4\n   285: a5 = a5 << 0x10\n   288: a2 = a2 << 0x18\n   291: a2 = a2 | a5\n   294: a2 = a2 | a3\n   297: a2 = a2 << 0x20\n   300: a3 = a2 | a1\n   303: a1 = u8 [a0 + 0x19]\n   306: a2 = u8 [a0 + 0x18]\n   309: a4 = u8 [a0 + 0x1a]\n   312: a5 = u8 [a0 + 0x1b]\n   315: a1 = a1 << 0x8\n   318: a1 = a1 | a2\n   321: a4 = a4 << 0x10\n   324: a5 = a5 << 0x18\n   327: a4 = a4 | a5\n   330: a1 = a1 | a4\n   333: a2 = u8 [a0 + 0x1d]\n   336: a4 = u8 [a0 + 0x1c]\n   339: a5 = u8 [a0 + 0x1e]\n   342: a0 = u8 [a0 + 0x1f]\n   345: a2 = a2 << 0x8\n   348: a2 = a2 | a4\n   351: a5 = a5 << 0x10\n   354: a0 = a0 << 0x18\n   357: a0 = a0 | a5\n   360: a0 = a0 | a2\n   363: a0 = a0 << 0x20\n   366: a0 = a0 | a1\n   369: a0 = reverse a0\n   371: a1 = reverse a3\n   373: a2 = reverse t1\n   375: a3 = reverse t0\n   377: u64 [s0 + 0x18] = a3\n   380: u64 [s0 + 0x10] = a2\n   383: u64 [s0 + 0x8] = a1\n   386: u64 [s0] = a0\n   388: ra = u64 [sp + 0x8]\n   391: s0 = u64 [sp]\n   393: sp = sp + 0x10\n   396: ret\n      : @9 (gas: 12)\n   398: sp = sp + 0xffffffffffffffd8\n   401: u64 [sp + 0x20] = ra\n   404: u64 [sp + 0x18] = s0\n   407: u64 [sp + 0x10] = s1\n   410: a2 = u64 [a1]\n   412: u64 [sp + 0x8] = a2\n   415: a2 = u64 [a1 + 0x8]\n   418: u64 [sp] = a2\n   420: s0 = u64 [a1 + 0x10]\n   423: s1 = u64 [a1 + 0x18]\n   426: a1 = 0x20\n   429: ra = 4, jump @15\n      : @10 [@dyn 2] (gas: 71)\n   434: a1 = reverse s1\n   436: a2 = reverse s0\n   438: a3 = u64 [sp]\n   440: a3 = reverse a3\n   442: a4 = u64 [sp + 0x8]\n   445: a4 = reverse a4\n   447: u8 [a0 + 0x18] = a4\n   450: u8 [a0 + 0x10] = a3\n   453: u8 [a0 + 0x8] = a2\n   456: u8 [a0] = a1\n   458: a5 = a4 >> 0x38\n   461: u8 [a0 + 0x1f] = a5\n   464: a5 = a4 >> 0x30\n   467: u8 [a0 + 0x1e] = a5\n   470: a5 = a4 >> 0x28\n   473: u8 [a0 + 0x1d] = a5\n   476: a5 = a4 >> 0x20\n   479: u8 [a0 + 0x1c] = a5\n   482: a5 = a4 >> 0x18\n   485: u8 [a0 + 0x1b] = a5\n   488: a5 = a4 >> 0x10\n   491: u8 [a0 + 0x1a] = a5\n   494: a4 = a4 >> 0x8\n   497: u8 [a0 + 0x19] = a4\n   500: a4 = a3 >> 0x38\n   503: u8 [a0 + 0x17] = a4\n   506: a4 = a3 >> 0x30\n   509: u8 [a0 + 0x16] = a4\n   512: a4 = a3 >> 0x28\n   515: u8 [a0 + 0x15] = a4\n   518: a4 = a3 >> 0x20\n   521: u8 [a0 + 0x14] = a4\n   524: a4 = a3 >> 0x18\n   527: u8 [a0 + 0x13] = a4\n   530: a4 = a3 >> 0x10\n   533: u8 [a0 + 0x12] = a4\n   536: a3 = a3 >> 0x8\n   539: u8 [a0 + 0x11] = a3\n   542: a3 = a2 >> 0x38\n   545: u8 [a0 + 0xf] = a3\n   548: a3 = a2 >> 0x30\n   551: u8 [a0 + 0xe] = a3\n   554: a3 = a2 >> 0x28\n   557: u8 [a0 + 0xd] = a3\n   560: a3 = a2 >> 0x20\n   563: u8 [a0 + 0xc] = a3\n   566: a3 = a2 >> 0x18\n   569: u8 [a0 + 0xb] = a3\n   572: a3 = a2 >> 0x10\n   575: u8 [a0 + 0xa] = a3\n   578: a2 = a2 >> 0x8\n   581: u8 [a0 + 0x9] = a2\n   584: a2 = a1 >> 0x38\n   587: u8 [a0 + 0x7] = a2\n   590: a2 = a1 >> 0x30\n   593: u8 [a0 + 0x6] = a2\n   596: a2 = a1 >> 0x28\n   599: u8 [a0 + 0x5] = a2\n   602: a2 = a1 >> 0x20\n   605: u8 [a0 + 0x4] = a2\n   608: a2 = a1 >> 0x18\n   611: u8 [a0 + 0x3] = a2\n   614: a2 = a1 >> 0x10\n   617: u8 [a0 + 0x2] = a2\n   620: a1 = a1 >> 0x8\n   623: u8 [a0 + 0x1] = a1\n   626: ra = u64 [sp + 0x20]\n   629: s0 = u64 [sp + 0x18]\n   632: s1 = u64 [sp + 0x10]\n   635: sp = sp + 0x28\n   638: ret\n      : @11 (gas: 48)\n   640: sp = sp + 0xffffffffffffffa0\n   643: u64 [sp + 0x58] = ra\n   646: u64 [sp + 0x50] = s0\n   649: u64 [sp + 0x48] = s1\n   652: s0 = sp + 0x60\n   655: sp = sp & 0xffffffffffffffe0\n   658: s1 = a0\n   660: a0 = u64 [a1 + 0x18]\n   663: a2 = u64 [a1 + 0x10]\n   666: a3 = u64 [a1 + 0x8]\n   669: a1 = u64 [a1]\n   671: a0 = reverse a0\n   673: a2 = reverse a2\n   675: a3 = reverse a3\n   677: a1 = reverse a1\n   679: u64 [sp + 0x18] = a1\n   682: u64 [sp + 0x10] = a3\n   685: u64 [sp + 0x8] = a2\n   688: u64 [sp] = a0\n   690: u64 [sp + 56] = 0\n   693: u64 [sp + 48] = 0\n   696: u64 [sp + 40] = 0\n   699: u64 [sp + 32] = 0\n   702: u32 [sp + 64] = 0x20\n   706: i32 a1 = sp + 0\n   708: i32 a3 = sp + 0x20\n   711: i32 a4 = sp + 0x40\n   714: a2 = 0xffffffffffffffff\n   717: a0 = 0\n   719: ecalli 9 // 'get_storage'\n   721: a0 = u64 [sp + 0x38]\n   724: a1 = u64 [sp + 0x30]\n   727: a2 = u64 [sp + 0x28]\n   730: a3 = u64 [sp + 0x20]\n   733: a0 = reverse a0\n   735: a1 = reverse a1\n   737: a2 = reverse a2\n   739: a3 = reverse a3\n   741: u64 [s1 + 0x18] = a3\n   744: u64 [s1 + 0x10] = a2\n   747: u64 [s1 + 0x8] = a1\n   750: u64 [s1] = a0\n   752: sp = s0 + 0xffffffffffffffa0\n   755: ra = u64 [sp + 0x58]\n   758: s0 = u64 [sp + 0x50]\n   761: s1 = u64 [sp + 0x48]\n   764: sp = sp + 0x60\n   767: ret\n      : @12 (gas: 40)\n   769: sp = sp + 0xffffffffffffffa0\n   772: u64 [sp + 0x58] = ra\n   775: u64 [sp + 0x50] = s0\n   778: s0 = sp + 0x60\n   781: sp = sp & 0xffffffffffffffe0\n   784: t0 = u64 [a0]\n   786: a3 = u64 [a0 + 0x8]\n   789: a4 = u64 [a0 + 0x10]\n   792: a0 = u64 [a0 + 0x18]\n   795: t1 = u64 [a1]\n   797: a2 = u64 [a1 + 0x8]\n   800: a5 = u64 [a1 + 0x10]\n   803: a1 = u64 [a1 + 0x18]\n   806: t2 = reverse a0\n   808: a4 = reverse a4\n   810: a3 = reverse a3\n   812: a0 = reverse t0\n   814: t0 = reverse a1\n   816: a5 = reverse a5\n   818: a2 = reverse a2\n   820: a1 = reverse t1\n   822: u64 [sp + 0x18] = a0\n   825: u64 [sp + 0x10] = a3\n   828: u64 [sp + 0x8] = a4\n   831: u64 [sp] = t2\n   833: u64 [sp + 0x38] = a1\n   836: u64 [sp + 0x30] = a2\n   839: u64 [sp + 0x28] = a5\n   842: u64 [sp + 0x20] = t0\n   845: i32 a1 = sp + 0\n   847: i32 a3 = sp + 0x20\n   850: a2 = 0xffffffffffffffff\n   853: a4 = 0x20\n   856: a0 = 0\n   858: ecalli 16 // 'set_storage'\n   860: sp = s0 + 0xffffffffffffffa0\n   863: ra = u64 [sp + 0x58]\n   866: s0 = u64 [sp + 0x50]\n   869: sp = sp + 0x60\n   872: ret\n      : @13 (gas: 24)\n   874: sp = sp + 0xffffffffffffff60\n   878: u64 [sp + 0x98] = ra\n   882: u64 [sp + 0x90] = s0\n   886: u64 [sp + 0x88] = s1\n   890: s0 = sp + 0xa0\n   894: sp = sp & 0xffffffffffffffe0\n   897: a4 = u64 [a3]\n   899: u64 [sp + 0x38] = a4\n   902: a4 = u64 [a3 + 0x8]\n   905: u64 [sp + 0x30] = a4\n   908: a4 = u64 [a3 + 0x10]\n   911: u64 [sp + 0x28] = a4\n   914: a3 = u64 [a3 + 0x18]\n   917: u64 [sp + 0x20] = a3\n   920: a3 = u64 [a2]\n   922: u64 [sp + 0x18] = a3\n   925: a3 = u64 [a2 + 0x8]\n   928: u64 [sp + 0x10] = a3\n   931: a3 = u64 [a2 + 0x10]\n   934: u64 [sp + 0x8] = a3\n   937: a2 = u64 [a2 + 0x18]\n   940: u64 [sp] = a2\n   942: s1 = a1\n   944: ra = 6, jump @15\n      : @14 [@dyn 3] (gas: 35)\n   948: a1 = u64 [sp]\n   950: a1 = reverse a1\n   952: a2 = u64 [sp + 0x8]\n   955: a2 = reverse a2\n   957: a3 = u64 [sp + 0x10]\n   960: a3 = reverse a3\n   962: a4 = u64 [sp + 0x18]\n   965: a4 = reverse a4\n   967: u64 [sp + 0x58] = a4\n   970: u64 [sp + 0x50] = a3\n   973: u64 [sp + 0x48] = a2\n   976: u64 [sp + 0x40] = a1\n   979: a1 = u64 [sp + 0x20]\n   982: a1 = reverse a1\n   984: a2 = u64 [sp + 0x28]\n   987: a2 = reverse a2\n   989: a3 = u64 [sp + 0x30]\n   992: a3 = reverse a3\n   994: a4 = u64 [sp + 0x38]\n   997: a4 = reverse a4\n   999: u64 [sp + 0x78] = a4\n  1002: u64 [sp + 0x70] = a3\n  1005: u64 [sp + 0x68] = a2\n  1008: u64 [sp + 0x60] = a1\n  1011: i32 a2 = a0 + 0\n  1013: i32 a3 = s1 + 0\n  1015: i32 a0 = sp + 0x40\n  1018: a1 = 0x2\n  1021: ecalli 7 // 'deposit_event'\n  1023: sp = s0 + 0xffffffffffffff60\n  1027: ra = u64 [sp + 0x98]\n  1031: s0 = u64 [sp + 0x90]\n  1035: s1 = u64 [sp + 0x88]\n  1039: sp = sp + 0xa0\n  1043: ret\n      : @15 (gas: 2)\n  1045: i32 a2 = a0 >> 0x10\n  1048: jump @20 if a2 != 0\n      : @16 (gas: 4)\n  1051: a1 = a1 + a0\n  1054: i32 a1 = a1 + 0x1f\n  1057: a1 = a1 & 0xffffffffffffffe0\n  1060: jump @20 if a1 >u 65536\n      : @17 (gas: 3)\n  1066: a2 = 0x20068\n  1071: a3 = i32 [0x20068]\n  1076: jump @19 if a3 >=u a1\n      : @18 (gas: 2)\n  1079: u32 [0x20068] = a1\n  1084: fallthrough\n      : @19 (gas: 4)\n  1085: a1 = 0x20070\n  1090: i32 a0 = a0 + 0\n  1092: a0 = a0 + a1\n  1095: ret\n      : @20 (gas: 1)\n  1097: trap\n      : @21 (gas: 6)\n  1098: sp = sp + 0xfffffffffffffff0\n  1101: u64 [sp + 0x8] = ra\n  1104: u64 [sp] = s0\n  1106: s0 = a0 & 0x1\n  1109: ecalli 4 // 'call_data_size'\n  1111: fallthrough\n      : @22 (gas: 2)\n  1112: u32 [0x20064] = a0\n  1117: jump @24 if s0 == 0\n      : @23 (gas: 1)\n  1120: ra = 8, jump @25\n      : @24 [@dyn 4] (gas: 1)\n  1124: ra = 10, jump @50\n      : @25 [@dyn 5] (gas: 15)\n  1129: sp = sp + 0xfffffffffffffda0\n  1133: a0 = sp + 0x200\n  1137: u64 [a0 + 0x58] = ra\n  1140: u64 [a0 + 0x50] = s0\n  1143: u64 [a0 + 0x48] = s1\n  1146: s0 = sp + 0x260\n  1150: sp = sp & 0xffffffffffffffe0\n  1153: a0 = sp + 0x200\n  1157: u64 [a0 + 56] = 0\n  1160: u64 [a0 + 48] = 0\n  1163: u64 [a0 + 40] = 0\n  1166: u64 [a0 + 32] = 0\n  1169: i32 a0 = sp + 0x220\n  1173: ecalli 17 // 'value_transferred'\n  1175: fallthrough\n      : @26 (gas: 9)\n  1176: a4 = sp + 0x200\n  1180: a0 = u64 [a4 + 0x30]\n  1183: a1 = u64 [a4 + 0x38]\n  1186: a2 = u64 [a4 + 0x28]\n  1189: a3 = u64 [a4 + 0x20]\n  1192: a1 = a1 | a2\n  1195: a0 = a0 | a3\n  1198: a0 = a0 | a1\n  1201: jump @40 if a0 != 0\n      : @27 (gas: 16)\n  1205: s1 = i32 [0x20064]\n  1210: a0 = s1 << 0x20\n  1213: a0 = a0 >> 0x20\n  1216: a0 = a0 + 0x1f\n  1219: a0 = a0 & 0xffffffffffffffe0\n  1222: a1 = a0 + 0xe0\n  1226: a0 = a1 <u a0\n  1229: a2 = sp + 0x200\n  1233: u64 [a2] = a1\n  1235: u64 [a2 + 0x8] = a0\n  1238: a0 = 0 if a0 != 0\n  1240: u64 [a2 + 0x10] = a0\n  1243: a0 = 0x40\n  1246: a1 = sp + 0x200\n  1250: u64 [a2 + 24] = 0\n  1253: ra = 12, jump @9\n      : @28 [@dyn 6] (gas: 3)\n  1258: a0 = 0xe0\n  1262: a1 = s1\n  1264: ra = 14, jump @15\n      : @29 [@dyn 7] (gas: 5)\n  1269: i32 a0 = a0 + 0\n  1271: a1 = s1\n  1273: a2 = 0\n  1275: ecalli 2 // 'call_data_copy'\n  1277: fallthrough\n      : @30 (gas: 1)\n  1278: jump @41 if s1 <=u 95\n      : @31 (gas: 7)\n  1283: u64 [sp + 472] = 0\n  1287: u64 [sp + 464] = 0\n  1291: u64 [sp + 448] = 0xe0\n  1297: a0 = sp + 0x1e0\n  1301: a1 = sp + 0x1c0\n  1305: u64 [sp + 456] = 0\n  1309: ra = 16, jump @384\n      : @32 [@dyn 8] (gas: 15)\n  1314: a0 = u64 [sp + 0x1e0]\n  1318: u64 [sp + 0x58] = a0\n  1321: a0 = u64 [sp + 0x1e8]\n  1325: u64 [sp + 0x48] = a0\n  1328: a0 = u64 [sp + 0x1f0]\n  1332: u64 [sp + 0x40] = a0\n  1335: a0 = u64 [sp + 0x1f8]\n  1339: u64 [sp + 0x30] = a0\n  1342: u64 [sp + 408] = 0\n  1346: u64 [sp + 400] = 0\n  1350: u64 [sp + 384] = 0x100\n  1356: a0 = sp + 0x1a0\n  1360: a1 = sp + 0x180\n  1364: u64 [sp + 392] = 0\n  1368: ra = 18, jump @384\n      : @33 [@dyn 9] (gas: 15)\n  1373: a0 = u64 [sp + 0x1a0]\n  1377: u64 [sp + 0x50] = a0\n  1380: a0 = u64 [sp + 0x1a8]\n  1384: u64 [sp + 0x28] = a0\n  1387: a0 = u64 [sp + 0x1b0]\n  1391: u64 [sp + 0x20] = a0\n  1394: a0 = u64 [sp + 0x1b8]\n  1398: u64 [sp + 0x18] = a0\n  1401: u64 [sp + 344] = 0\n  1405: u64 [sp + 336] = 0\n  1409: u64 [sp + 320] = 0x120\n  1415: a0 = sp + 0x160\n  1419: a1 = sp + 0x140\n  1423: u64 [sp + 328] = 0\n  1427: ra = 20, jump @384\n      : @34 [@dyn 10] (gas: 18)\n  1432: a0 = u64 [sp + 0x160]\n  1436: u64 [sp + 0x38] = a0\n  1439: a0 = u64 [sp + 0x168]\n  1443: u64 [sp + 0x10] = a0\n  1446: a0 = u64 [sp + 0x170]\n  1450: u64 [sp + 0x8] = a0\n  1453: s1 = u64 [sp + 0x178]\n  1457: a0 = u64 [sp + 0x30]\n  1460: u64 [sp + 0x138] = a0\n  1464: a0 = u64 [sp + 0x40]\n  1467: u64 [sp + 0x130] = a0\n  1471: a0 = u64 [sp + 0x48]\n  1474: u64 [sp + 0x128] = a0\n  1478: a0 = 0x80\n  1482: a1 = sp + 0x120\n  1486: a2 = u64 [sp + 0x58]\n  1489: u64 [sp + 0x120] = a2\n  1493: ra = 22, jump @9\n      : @35 [@dyn 11] (gas: 11)\n  1498: a0 = u64 [sp + 0x18]\n  1501: u64 [sp + 0x118] = a0\n  1505: a0 = u64 [sp + 0x20]\n  1508: u64 [sp + 0x110] = a0\n  1512: a0 = u64 [sp + 0x28]\n  1515: u64 [sp + 0x108] = a0\n  1519: a0 = 0xa0\n  1523: a1 = sp + 0x100\n  1527: a2 = u64 [sp + 0x50]\n  1530: u64 [sp + 0x100] = a2\n  1534: ra = 24, jump @9\n      : @36 [@dyn 12] (gas: 10)\n  1539: u64 [sp + 0xf8] = s1\n  1543: a0 = u64 [sp + 0x8]\n  1546: u64 [sp + 0xf0] = a0\n  1550: a0 = u64 [sp + 0x10]\n  1553: u64 [sp + 0xe8] = a0\n  1557: a0 = 0xc0\n  1561: a1 = sp + 0xe0\n  1565: a2 = u64 [sp + 0x38]\n  1568: u64 [sp + 0xe0] = a2\n  1572: ra = 26, jump @9\n      : @37 [@dyn 13] (gas: 3)\n  1577: a0 = sp + 0xc0\n  1581: a1 = 0x40\n  1584: ra = 28, jump @7\n      : @38 [@dyn 14] (gas: 12)\n  1589: a0 = u64 [sp + 0xd8]\n  1593: a1 = u64 [sp + 0xd0]\n  1597: a2 = u64 [sp + 0xc8]\n  1601: s1 = u64 [sp + 0xc0]\n  1605: a0 = a0 | a2\n  1608: a2 = s1 | a1\n  1611: a2 = a2 | a0\n  1614: a2 = a2 >> 0x20\n  1617: a0 = a0 | a1\n  1620: a0 = a0 << 0x20\n  1623: a0 = a0 | a2\n  1626: jump @42 if a0 == 0\n      : @39 (gas: 1)\n  1629: trap\n      : @40 (gas: 4)\n  1630: a1 = 0x20070\n  1635: i32 a1 = a1 + 0\n  1637: a0 = 0x1\n  1640: jump @49\n      : @41 (gas: 4)\n  1643: a1 = 0x20070\n  1648: i32 a1 = a1 + 0\n  1650: a0 = 0x1\n  1653: jump @49\n      : @42 (gas: 3)\n  1656: a0 = s1\n  1658: a1 = 0\n  1660: ra = 30, jump @15\n      : @43 [@dyn 15] (gas: 7)\n  1665: i32 a0 = a0 + 0\n  1667: a1 = 0\n  1669: a2 = 0\n  1671: ecalli 2 // 'call_data_copy'\n  1673: a0 = sp + 0xa0\n  1677: a1 = 0x80\n  1681: ra = 32, jump @7\n      : @44 [@dyn 16] (gas: 13)\n  1686: a0 = u64 [sp + 0xb8]\n  1690: a4 = 0x30090\n  1695: u64 [sp + 0x58] = a4\n  1698: a1 = u64 [sp + 0xb0]\n  1702: a2 = u64 [sp + 0xa8]\n  1706: a3 = u64 [sp + 0xa0]\n  1710: u64 [0x300a8] = a0\n  1715: u64 [0x300a0] = a1\n  1720: u64 [0x30098] = a2\n  1725: u64 [0x30090] = a3\n  1730: a0 = sp + 0x80\n  1734: a1 = 0xa0\n  1738: ra = 34, jump @7\n      : @45 [@dyn 17] (gas: 12)\n  1743: a0 = u64 [sp + 0x98]\n  1747: a1 = u64 [sp + 0x90]\n  1751: a2 = u64 [sp + 0x88]\n  1755: a3 = u64 [sp + 0x80]\n  1759: a4 = u64 [sp + 0x58]\n  1762: u64 [a4 + 0x38] = a0\n  1765: u64 [a4 + 0x30] = a1\n  1768: u64 [a4 + 0x28] = a2\n  1771: u64 [a4 + 0x20] = a3\n  1774: a0 = sp + 0x60\n  1777: a1 = 0xc0\n  1781: ra = 36, jump @7\n      : @46 [@dyn 18] (gas: 10)\n  1786: a0 = u64 [sp + 0x78]\n  1789: a1 = u64 [sp + 0x70]\n  1792: a2 = u64 [sp + 0x68]\n  1795: a3 = u64 [sp + 0x60]\n  1798: a4 = u64 [sp + 0x58]\n  1801: u64 [a4 + 0x58] = a0\n  1804: u64 [a4 + 0x50] = a1\n  1807: u64 [a4 + 0x48] = a2\n  1810: u64 [a4 + 0x40] = a3\n  1813: jump @5\n      : @47 (gas: 3)\n  1816: a0 = s1\n  1818: a1 = 0\n  1820: ra = 38, jump @15\n      : @48 [@dyn 19] (gas: 6)\n  1825: i32 a1 = a0 + 0\n  1827: a0 = 0\n  1829: a2 = 0\n  1831: ra = 0x28\n  1834: ecalli 14 // 'seal_return'\n  1836: jump @50\n      : @49 (gas: 4)\n  1838: a2 = 0\n  1840: ra = 0x28\n  1843: ecalli 14 // 'seal_return'\n  1845: fallthrough\n      : @50 [@dyn 20] (gas: 19)\n  1846: sp = sp + 0xfffffffffffff808\n  1850: a0 = sp + 0x700\n  1854: u64 [a0 + 0xf0] = ra\n  1858: u64 [a0 + 0xe8] = s0\n  1862: u64 [a0 + 0xe0] = s1\n  1866: s0 = sp + 0x7f8\n  1870: sp = sp + 0xfffffffffffff818\n  1874: sp = sp & 0xffffffffffffffe0\n  1877: s1 = sp\n  1879: a2 = s1 + 0x7ff\n  1883: a2 = a2 + 0x39\n  1886: u64 [a2 + 832] = 0\n  1890: u64 [a2 + 824] = 0\n  1894: u64 [a2 + 808] = 0x80\n  1900: a0 = 0x40\n  1903: a1 = s1 + 0x7ff\n  1907: a1 = a1 + 0x361\n  1911: u64 [a2 + 816] = 0\n  1915: ra = 42, jump @9\n      : @51 [@dyn 21] (gas: 4)\n  1920: a0 = 0x20064\n  1925: u64 [s1 + 0xb8] = a0\n  1929: a0 = i32 [0x20064]\n  1934: jump @53 if a0 >=u 4\n      : @52 (gas: 1)\n  1938: jump @354\n      : @53 (gas: 6)\n  1941: a0 = s1 + 0x1000\n  1945: i32 a0 = a0 + 0xfffffffffffffb80\n  1949: a1 = 0\n  1951: ra = 0x2c\n  1954: ecalli 3 // 'call_data_load'\n  1956: fallthrough\n      : @54 [@dyn 22] (gas: 4)\n  1957: a2 = s1 + 0x7ff\n  1961: a2 = a2 + 0x39\n  1964: a0 = i32 [a2 + 0x364]\n  1968: jump @176 if a0 == 2205082048\n      : @55 (gas: 1)\n  1976: jump @57 if a0 != 2376576291\n      : @56 (gas: 1)\n  1983: jump @252\n      : @57 (gas: 1)\n  1986: jump @196 if a0 == 2915661614\n      : @58 (gas: 1)\n  1994: jump @73 if a0 == 3265688288\n      : @59 (gas: 1)\n  2002: jump @168 if a0 == 3283548473\n      : @60 (gas: 1)\n  2010: jump @153 if a0 == 4015848332\n      : @61 (gas: 1)\n  2018: jump @185 if a0 != 4142735383\n      : @62 (gas: 9)\n  2026: u64 [a2 + 1920] = 0\n  2030: u64 [a2 + 1912] = 0\n  2034: u64 [a2 + 1904] = 0\n  2038: u64 [a2 + 1896] = 0\n  2042: a0 = s1 + 0x1000\n  2046: i32 a0 = a0 + 0xffffffffffffffa0\n  2049: ra = 0x2e\n  2052: ecalli 17 // 'value_transferred'\n  2054: fallthrough\n      : @63 [@dyn 23] (gas: 4)\n  2055: a3 = s1 + 0x7ff\n  2059: a3 = a3 + 0x39\n  2062: a4 = a3 + 0x700\n  2066: t0 = 48, jump @474\n      : @64 [@dyn 24] (gas: 1)\n  2071: jump @66 if a0 == 0\n      : @65 (gas: 1)\n  2074: jump @315\n      : @66 (gas: 3)\n  2077: a0 = u64 [s1 + 0xb8]\n  2081: a0 = i32 [a0]\n  2083: jump @68 if a0 >u 35\n      : @67 (gas: 1)\n  2087: jump @315\n      : @68 (gas: 3)\n  2090: a0 = s1 + 0x7ff\n  2094: a0 = a0 + 0x341\n  2098: ra = 50, jump @392\n      : @69 [@dyn 25] (gas: 4)\n  2103: a0 = s1 + 0x7ff\n  2107: a0 = a0 + 0x321\n  2111: a1 = 0x40\n  2114: ra = 52, jump @7\n      : @70 [@dyn 26] (gas: 15)\n  2119: a3 = s1 + 0x7ff\n  2123: a3 = a3 + 0x39\n  2126: a4 = u64 [a3 + 0x300]\n  2130: a5 = a3 + 0x200\n  2134: a1 = u64 [a5 + 0xf8]\n  2138: a2 = u64 [a5 + 0xf0]\n  2142: a0 = u64 [a5 + 0xe8]\n  2146: a4 = a4 | a2\n  2149: a2 = a0 | a1\n  2152: a2 = a2 | a4\n  2155: a2 = a2 >> 0x20\n  2158: a1 = a1 | a4\n  2161: a1 = a1 << 0x20\n  2164: a1 = a1 | a2\n  2167: jump @72 if a1 == 0\n      : @71 (gas: 1)\n  2170: jump @266\n      : @72 (gas: 9)\n  2173: u64 [a3 + 736] = 0\n  2177: u64 [a3 + 728] = 0\n  2181: u64 [a3 + 720] = 0\n  2185: a1 = s1 + 0x7ff\n  2189: a1 = a1 + 0x301\n  2193: u64 [a3 + 712] = 0\n  2197: u64 [s1 + 0xb8] = a0\n  2201: ra = 0x140\n  2205: jump @9\n      : @73 (gas: 9)\n  2208: u64 [a2 + 1408] = 0\n  2212: u64 [a2 + 1400] = 0\n  2216: u64 [a2 + 1392] = 0\n  2220: u64 [a2 + 1384] = 0\n  2224: a0 = s1 + 0x1000\n  2228: i32 a0 = a0 + 0xfffffffffffffda0\n  2232: ra = 0x36\n  2235: ecalli 17 // 'value_transferred'\n  2237: fallthrough\n      : @74 [@dyn 27] (gas: 4)\n  2238: a3 = s1 + 0x7ff\n  2242: a3 = a3 + 0x39\n  2245: a4 = a3 + 0x500\n  2249: t0 = 56, jump @474\n      : @75 [@dyn 28] (gas: 1)\n  2254: jump @77 if a0 == 0\n      : @76 (gas: 1)\n  2257: jump @315\n      : @77 (gas: 3)\n  2260: a0 = u64 [s1 + 0xb8]\n  2264: a0 = i32 [a0]\n  2266: jump @79 if a0 >u 67\n      : @78 (gas: 1)\n  2270: jump @315\n      : @79 (gas: 3)\n  2273: a0 = s1 + 0x7ff\n  2277: a0 = a0 + 0x1e1\n  2281: ra = 58, jump @392\n      : @80 [@dyn 29] (gas: 25)\n  2286: a1 = s1 + 0x7ff\n  2290: a1 = a1 + 0x39\n  2293: a2 = a1 + 0x100\n  2297: a0 = u64 [a2 + 0xb8]\n  2301: u64 [s1 + 0x48] = a0\n  2304: a0 = u64 [a2 + 0xb0]\n  2308: u64 [s1 + 0x68] = a0\n  2311: a0 = u64 [a2 + 0xa8]\n  2315: u64 [s1 + 0x70] = a0\n  2318: a0 = s1 + 0x1000\n  2322: i32 a0 = a0 + 0xfffffffffffffdc0\n  2326: a1 = 0x24\n  2329: ecalli 3 // 'call_data_load'\n  2331: a1 = s1 + 0x7ff\n  2335: a1 = a1 + 0x39\n  2338: a2 = a1 + 0x500\n  2342: a0 = u64 [a2 + 0xa0]\n  2346: u64 [s1 + 0xa8] = a0\n  2350: a0 = u64 [a2 + 0x98]\n  2354: u64 [s1 + 0xa0] = a0\n  2358: a0 = u64 [a2 + 0x90]\n  2362: u64 [s1 + 0x98] = a0\n  2366: a0 = u64 [a2 + 0x88]\n  2370: u64 [s1 + 0xb0] = a0\n  2374: ra = 60, jump @0\n      : @81 [@dyn 30] (gas: 14)\n  2379: a0 = 0x30090\n  2384: a1 = u64 [0x300d8]\n  2389: u64 [s1 + 0x88] = a1\n  2393: a1 = u64 [0x300d0]\n  2398: u64 [s1 + 0x80] = a1\n  2402: u64 [s1 + 0x90] = a0\n  2406: a0 = u32 [0x300e0]\n  2411: u64 [s1 + 0x78] = a0\n  2414: a0 = 0x30070\n  2419: u64 [s1 + 0xb8] = a0\n  2423: i32 a0 = a0 + 0\n  2425: u64 [s1 + 0x28] = a0\n  2428: ecalli 5 // 'caller'\n  2430: fallthrough\n      : @82 (gas: 23)\n  2431: a0 = u64 [s1 + 0xb8]\n  2435: t0 = u64 [a0 + 0x8]\n  2438: a4 = u64 [a0]\n  2440: a5 = u32 [a0 + 0x10]\n  2443: a0 = reverse t0\n  2445: a1 = a0 >> 0x20\n  2448: a2 = reverse a4\n  2450: a3 = a2 << 0x20\n  2453: a1 = a1 | a3\n  2456: a0 = a0 << 0x20\n  2459: a3 = reverse a5\n  2461: a3 = a3 >> 0x20\n  2464: a0 = a0 | a3\n  2467: a2 = a2 >> 0x20\n  2470: a3 = u64 [s1 + 0x78]\n  2473: a2 = a2 ^ a3\n  2476: a3 = u64 [s1 + 0x80]\n  2480: a0 = a0 ^ a3\n  2483: a0 = a0 | a2\n  2486: a2 = u64 [s1 + 0x88]\n  2490: a1 = a1 ^ a2\n  2493: a0 = a0 | a1\n  2496: jump @84 if a0 == 0\n      : @83 (gas: 1)\n  2499: jump @317\n      : @84 (gas: 11)\n  2502: u64 [s1 + 0x50] = a5\n  2505: u64 [s1 + 0x58] = t0\n  2508: u64 [s1 + 0x60] = a4\n  2511: a0 = u64 [s1 + 0xa0]\n  2515: a1 = u64 [s1 + 0xb0]\n  2519: a0 = a0 | a1\n  2522: a1 = u64 [s1 + 0xa8]\n  2526: a2 = u64 [s1 + 0x98]\n  2530: a1 = a1 | a2\n  2533: a0 = a0 | a1\n  2536: jump @86 if a0 != 0\n      : @85 (gas: 1)\n  2539: jump @318\n      : @86 (gas: 1)\n  2542: ra = 62, jump @0\n      : @87 [@dyn 31] (gas: 11)\n  2547: a1 = u64 [s1 + 0x90]\n  2551: a0 = u64 [a1 + 0x10]\n  2554: u64 [s1 + 0x80] = a0\n  2558: a0 = u64 [a1 + 0x8]\n  2561: u64 [s1 + 0x78] = a0\n  2564: a0 = u64 [a1]\n  2566: u64 [s1 + 0x88] = a0\n  2570: a0 = s1 + 0x7ff\n  2574: a0 = a0 + 0x1a1\n  2578: a1 = 0x40\n  2581: ra = 64, jump @7\n      : @88 [@dyn 32] (gas: 15)\n  2586: a2 = s1 + 0x7ff\n  2590: a2 = a2 + 0x39\n  2593: t0 = u64 [a2 + 0x180]\n  2597: a1 = a2 + 0x100\n  2601: a5 = u64 [a1 + 0x78]\n  2604: a4 = u64 [a1 + 0x70]\n  2607: a0 = u64 [a1 + 0x68]\n  2610: a3 = a4 | t0\n  2613: a1 = a0 | a5\n  2616: a1 = a1 | a3\n  2619: a1 = a1 >> 0x20\n  2622: a3 = a3 | a5\n  2625: a3 = a3 << 0x20\n  2628: a1 = a1 | a3\n  2631: jump @90 if a1 == 0\n      : @89 (gas: 1)\n  2634: jump @266\n      : @90 (gas: 12)\n  2637: u64 [a2 + 344] = 0\n  2641: u64 [a2 + 336] = 0\n  2645: u64 [a2 + 328] = 0\n  2649: a3 = 0x852a12e300000000\n  2659: a1 = s1 + 0x7ff\n  2663: a1 = a1 + 0x181\n  2667: u64 [a2 + 0x160] = a3\n  2671: u64 [s1 + 0x90] = a0\n  2675: u64 [s1 + 0x40] = t0\n  2678: u64 [s1 + 0x38] = a5\n  2681: u64 [s1 + 0x30] = a4\n  2684: ra = 66, jump @9\n      : @91 [@dyn 33] (gas: 10)\n  2689: a3 = u64 [s1 + 0x90]\n  2693: a0 = u64 [s1 + 0x40]\n  2696: a1 = u64 [s1 + 0x38]\n  2699: a0 = a0 | a1\n  2702: a1 = 0xfffffffc\n  2712: a1 = a3 <u a1\n  2715: a2 = u64 [s1 + 0x30]\n  2718: a1 = 0 if a2 != 0\n  2720: a1 = 0 if a0 != 0\n  2722: jump @93 if a1 != 0\n      : @92 (gas: 1)\n  2725: jump @266\n      : @93 (gas: 17)\n  2728: a0 = 0x2400000000\n  2738: u64 [s1 + 0x20] = a0\n  2741: i32 a0 = a3 + 0x4\n  2744: a1 = u64 [s1 + 0xb0]\n  2748: a4 = s1 + 0x7ff\n  2752: a4 = a4 + 0x39\n  2755: a3 = a4 + 0x100\n  2759: u64 [a3 + 0x28] = a1\n  2762: a1 = u64 [s1 + 0x98]\n  2766: u64 [a3 + 0x30] = a1\n  2769: a1 = u64 [s1 + 0xa0]\n  2773: u64 [a3 + 0x38] = a1\n  2776: a1 = s1 + 0x7ff\n  2780: a1 = a1 + 0x161\n  2784: a2 = u64 [s1 + 0xa8]\n  2788: u64 [a3 + 0x40] = a2\n  2791: ra = 68, jump @9\n      : @94 [@dyn 34] (gas: 30)\n  2796: ecalli 11 // 'ref_time_left'\n  2798: a0 = u64 [s1 + 0x78]\n  2801: a0 = reverse a0\n  2803: a1 = a0 << 0x20\n  2806: a2 = u64 [s1 + 0x80]\n  2810: a2 = reverse a2\n  2812: a2 = a2 >> 0x20\n  2815: a3 = a2 | a1\n  2818: a1 = u64 [s1 + 0x88]\n  2822: a1 = reverse a1\n  2824: a2 = a1 << 0x20\n  2827: a0 = a0 >> 0x20\n  2830: a0 = a0 | a2\n  2833: a1 = a1 >> 0x20\n  2836: a2 = u64 [s1 + 0xb8]\n  2840: u64 [s1 + 0x10] = a0\n  2843: u64 [a2 + 0x8] = a0\n  2846: u64 [s1 + 0x78] = a3\n  2849: u64 [a2] = a3\n  2851: u64 [s1 + 0x18] = a1\n  2854: u32 [a2 + 0x10] = a1\n  2857: a0 = s1 + 0x7ff\n  2861: a0 = a0 + 0x39\n  2864: u64 [a0 + 1472] = 0\n  2868: u64 [a0 + 1464] = 0\n  2872: u64 [a0 + 1456] = 0\n  2876: u64 [a0 + 1448] = 0\n  2880: a1 = 0x24\n  2883: a0 = u64 [s1 + 0x90]\n  2887: ra = 70, jump @15\n      : @95 [@dyn 35] (gas: 4)\n  2892: u64 [s1 + 0x88] = a0\n  2896: a1 = 0x20\n  2899: a0 = u64 [s1 + 0x90]\n  2903: ra = 72, jump @15\n      : @96 [@dyn 36] (gas: 38)\n  2908: a2 = s1 + 0x7ff\n  2912: a2 = a2 + 0x39\n  2915: u32 [a2 + 1480] = 0x20\n  2920: u64 [a2 + 1536] = 0xffffffffffffffff\n  2925: a3 = a2 + 0x500\n  2929: u64 [a3 + 248] = 0xffffffffffffffff\n  2934: u64 [a3 + 240] = 0xffffffffffffffff\n  2939: u64 [a3 + 232] = 0xffffffffffffffff\n  2944: a1 = u64 [s1 + 0xb8]\n  2948: a1 = a1 << 0x20\n  2951: a2 = a1 >> 0x20\n  2954: a1 = 0x800000000\n  2964: u64 [s1 + 0x80] = a2\n  2968: t0 = a2 | a1\n  2971: a1 = s1 + 0x7ff\n  2975: a1 = a1 + 0x5e1\n  2979: a1 = a1 << 0x20\n  2982: a1 = a1 >> 0x20\n  2985: a2 = s1 + 0x7ff\n  2989: a2 = a2 + 0x621\n  2993: a2 = a2 << 0x20\n  2996: a3 = a2 | a1\n  2999: a1 = u64 [s1 + 0x88]\n  3003: a1 = a1 << 0x20\n  3006: a1 = a1 >> 0x20\n  3009: a4 = u64 [s1 + 0x20]\n  3012: a4 = a4 | a1\n  3015: a0 = a0 << 0x20\n  3018: a0 = a0 >> 0x20\n  3021: a1 = s1 + 0x7ff\n  3025: a1 = a1 + 0x601\n  3029: a1 = a1 << 0x20\n  3032: a5 = a1 | a0\n  3035: a1 = 0xffffffffffffffff\n  3038: a2 = 0xffffffffffffffff\n  3041: a0 = t0\n  3043: ecalli 1 // 'call'\n  3045: fallthrough\n      : @97 (gas: 1)\n  3046: jump @99 if a0 == 0\n      : @98 (gas: 1)\n  3049: jump @275\n      : @99 (gas: 2)\n  3052: ecalli 13 // 'return_data_size'\n  3054: fallthrough\n      : @100 (gas: 2)\n  3055: a5 = 0x20\n  3058: jump @102 if a0 >=u a5\n      : @101 (gas: 3)\n  3061: ecalli 13 // 'return_data_size'\n  3063: a5 = a0\n  3065: fallthrough\n      : @102 (gas: 21)\n  3066: a2 = s1 + 0x7ff\n  3070: a2 = a2 + 0x39\n  3073: a3 = u64 [s1 + 0x90]\n  3077: t0 = u64 [s1 + 0x40]\n  3080: a0 = u64 [s1 + 0x38]\n  3083: a1 = u64 [s1 + 0x30]\n  3086: u64 [s1 + 64] = 0\n  3089: u64 [s1 + 0x88] = a5\n  3093: u64 [a2 + 0xc8] = a5\n  3097: u64 [a2 + 0xe8] = a3\n  3101: u64 [a2 + 208] = 0\n  3105: u64 [a2 + 0xf0] = a1\n  3109: u64 [a2 + 216] = 0\n  3113: u64 [a2 + 0xf8] = a0\n  3117: u64 [a2 + 224] = 0\n  3121: a0 = s1 + 0x7ff\n  3125: a0 = a0 + 0x121\n  3129: a1 = s1 + 0x7ff\n  3133: a1 = a1 + 0x101\n  3137: u64 [a2 + 0x100] = t0\n  3141: ra = 74, jump @398\n      : @103 [@dyn 37] (gas: 4)\n  3146: a3 = u64 [s1 + 0x40]\n  3149: a0 = a3 >u 0\n  3151: a1 = u64 [s1 + 0x88]\n  3155: t0 = 76, jump @462\n      : @104 [@dyn 38] (gas: 1)\n  3160: jump @106 if a2 != 0\n      : @105 (gas: 1)\n  3163: jump @362\n      : @106 (gas: 4)\n  3166: a0 = s1 + 0x7ff\n  3170: a0 = a0 + 0xe1\n  3174: a1 = u64 [s1 + 0x90]\n  3178: ra = 78, jump @7\n      : @107 [@dyn 39] (gas: 10)\n  3183: a3 = s1 + 0x7ff\n  3187: a3 = a3 + 0x39\n  3190: a0 = u64 [a3 + 0xb8]\n  3194: a1 = u64 [a3 + 0xc0]\n  3198: a2 = u64 [a3 + 0xb0]\n  3202: a3 = u64 [a3 + 0xa8]\n  3206: a1 = a1 | a2\n  3209: a0 = a0 | a3\n  3212: a0 = a0 | a1\n  3215: jump @109 if a0 == 0\n      : @108 (gas: 1)\n  3218: jump @363\n      : @109 (gas: 16)\n  3221: a0 = u64 [s1 + 0x48]\n  3224: a0 = a0 << 0x20\n  3227: a2 = a0 >> 0x20\n  3230: a3 = s1 + 0x7ff\n  3234: a3 = a3 + 0x39\n  3237: u64 [a3 + 128] = 0\n  3241: a0 = u64 [s1 + 0x70]\n  3244: u64 [a3 + 0x68] = a0\n  3247: a0 = u64 [s1 + 0x68]\n  3250: u64 [a3 + 0x70] = a0\n  3253: a1 = s1 + 0x7ff\n  3257: a1 = a1 + 0xa1\n  3261: u64 [s1 + 0x8] = a2\n  3264: u64 [a3 + 0x78] = a2\n  3267: a0 = 0\n  3269: ra = 80, jump @9\n      : @110 [@dyn 40] (gas: 10)\n  3274: a2 = s1 + 0x7ff\n  3278: a2 = a2 + 0x39\n  3281: u64 [a2 + 96] = 0\n  3284: u64 [a2 + 88] = 0\n  3287: u64 [a2 + 80] = 0\n  3290: a0 = 0x20\n  3293: a1 = s1 + 0x7ff\n  3297: a1 = a1 + 0x81\n  3301: u64 [a2 + 72] = 0\n  3304: ra = 82, jump @9\n      : @111 [@dyn 41] (gas: 7)\n  3309: a0 = sp + 0xffffffffffffffe0\n  3312: a0 = a0 & 0xffffffffffffffe0\n  3315: u64 [s1 + 0x90] = a0\n  3319: sp = a0\n  3321: a1 = 0x40\n  3324: a0 = 0\n  3326: ra = 84, jump @15\n      : @112 [@dyn 42] (gas: 12)\n  3331: a1 = sp + 0xffffffffffffffe0\n  3334: a1 = a1 & 0xffffffffffffffe0\n  3337: u64 [s1 + 0x88] = a1\n  3341: sp = a1\n  3343: i32 a0 = a0 + 0\n  3345: i32 a2 = a1 + 0\n  3347: a1 = 0x40\n  3350: ra = 0x56\n  3353: ecalli 10 // 'hash_keccak_256'\n  3355: a3 = u64 [s1 + 0x88]\n  3359: t0 = 0x58\n  3362: jump @472\n      : @113 [@dyn 43] (gas: 2)\n  3365: a3 = u64 [s1 + 0x88]\n  3369: t0 = 88, jump @472\n      : @114 [@dyn 44] (gas: 8)\n  3374: a1 = u64 [s1 + 0x90]\n  3378: u64 [a1 + 0x18] = a3\n  3381: u64 [a1 + 0x10] = a2\n  3384: u64 [a1 + 0x8] = a4\n  3387: u64 [a1] = a0\n  3389: a0 = s1 + 0x7ff\n  3393: a0 = a0 + 0x61\n  3396: ra = 90, jump @11\n      : @115 [@dyn 45] (gas: 50)\n  3401: a0 = s1 + 0x7ff\n  3405: a0 = a0 + 0x39\n  3408: t0 = u64 [a0 + 0x40]\n  3411: t1 = u64 [a0 + 0x38]\n  3414: a3 = u64 [a0 + 0x28]\n  3417: u64 [s1 + 0x88] = a3\n  3421: a0 = u64 [a0 + 0x30]\n  3424: u64 [s1 + 0x48] = a0\n  3427: a1 = sp + 0xffffffffffffffe0\n  3430: t2 = a1 & 0xffffffffffffffe0\n  3433: sp = t2\n  3435: a5 = u64 [s1 + 0x98]\n  3439: a2 = a0 ^ a5\n  3442: a1 = a0 <u a5\n  3445: a0 = u64 [s1 + 0xb0]\n  3449: a0 = a3 <u a0\n  3452: u64 [s1 + 0x40] = a0\n  3455: a1 = a0 if a2 == 0\n  3458: a0 = u64 [s1 + 0xa0]\n  3462: a4 = t1 <u a0\n  3465: u64 [s1 + 0x30] = a4\n  3468: ra = u64 [s1 + 0xa8]\n  3472: u64 [s1 + 0x38] = t0\n  3475: a2 = t0 ^ ra\n  3478: a3 = t0 <u ra\n  3481: a3 = a4 if a2 == 0\n  3484: t0 = t1 ^ a0\n  3487: a2 = t0 | a2\n  3490: a4 = t1 - a0\n  3493: a3 = a1 if a2 == 0\n  3496: a2 = a4 - a1\n  3499: a0 = a4 <u a1\n  3502: a1 = u64 [s1 + 0x38]\n  3505: a4 = a1 - ra\n  3508: a1 = u64 [s1 + 0x30]\n  3511: a4 = a4 - a1\n  3514: a4 = a4 - a0\n  3517: a0 = u64 [s1 + 0x48]\n  3520: a0 = a0 - a5\n  3523: a1 = u64 [s1 + 0x40]\n  3526: a0 = a0 - a1\n  3529: a5 = t2\n  3531: u64 [a5 + 0x18] = a4\n  3534: u64 [a5 + 0x10] = a2\n  3537: u64 [a5 + 0x8] = a0\n  3540: a0 = u64 [s1 + 0x88]\n  3544: a1 = u64 [s1 + 0xb0]\n  3548: a0 = a0 - a1\n  3551: u64 [a5] = a0\n  3553: jump @117 if a3 == 0\n      : @116 (gas: 1)\n  3556: jump @364\n      : @117 (gas: 3)\n  3559: a0 = u64 [s1 + 0x90]\n  3563: a1 = t2\n  3565: ra = 92, jump @12\n      : @118 [@dyn 46] (gas: 23)\n  3570: ecalli 11 // 'ref_time_left'\n  3572: u64 [s1 + 0x90] = a0\n  3576: a0 = u64 [s1 + 0xb8]\n  3580: a1 = u64 [s1 + 0x58]\n  3583: u64 [a0 + 0x8] = a1\n  3586: a1 = u64 [s1 + 0x60]\n  3589: u64 [a0] = a1\n  3591: a1 = u64 [s1 + 0x50]\n  3594: u32 [a0 + 0x10] = a1\n  3597: a1 = s1 + 0x7ff\n  3601: a1 = a1 + 0x39\n  3604: a0 = u64 [s1 + 0xa8]\n  3608: a2 = a1 + 0x600\n  3612: u64 [a2 + 0x40] = a0\n  3615: a0 = u64 [s1 + 0xa0]\n  3619: u64 [a2 + 0x38] = a0\n  3622: a0 = u64 [s1 + 0x98]\n  3626: u64 [a2 + 0x30] = a0\n  3629: a0 = u64 [s1 + 0xb0]\n  3633: u64 [a2 + 0x28] = a0\n  3636: a0 = 0\n  3638: a1 = 0\n  3640: ra = 94, jump @15\n      : @119 [@dyn 47] (gas: 4)\n  3645: u64 [s1 + 0x88] = a0\n  3649: a0 = 0\n  3651: a1 = 0\n  3653: ra = 96, jump @15\n      : @120 [@dyn 48] (gas: 38)\n  3658: a3 = s1 + 0x7ff\n  3662: a3 = a3 + 0x39\n  3665: u32 [a3 + 1608] = 0\n  3669: a2 = u64 [s1 + 0x90]\n  3673: a1 = a2 >u 0x8fc\n  3677: a2 = -a1\n  3679: a4 = a3 + 0x600\n  3683: u64 [a4 + 0x80] = a2\n  3687: u64 [a4 + 0x78] = a2\n  3690: u64 [a4 + 0x70] = a2\n  3693: u64 [a4 + 0x68] = a2\n  3696: a1 = a1 << 0x23\n  3699: a2 = u64 [s1 + 0x80]\n  3703: t0 = a1 | a2\n  3706: a1 = s1 + 0x7ff\n  3710: a1 = a1 + 0x661\n  3714: a1 = a1 << 0x20\n  3717: a1 = a1 >> 0x20\n  3720: a2 = s1 + 0x7ff\n  3724: a2 = a2 + 0x6a1\n  3728: a2 = a2 << 0x20\n  3731: a3 = a2 | a1\n  3734: a4 = u64 [s1 + 0x88]\n  3738: a4 = a4 << 0x20\n  3741: a4 = a4 >> 0x20\n  3744: a0 = a0 << 0x20\n  3747: a0 = a0 >> 0x20\n  3750: a1 = s1 + 0x7ff\n  3754: a1 = a1 + 0x681\n  3758: a1 = a1 << 0x20\n  3761: a5 = a1 | a0\n  3764: a1 = 0xffffffffffffffff\n  3767: a2 = 0xffffffffffffffff\n  3770: a0 = t0\n  3772: ecalli 1 // 'call'\n  3774: u64 [s1 + 0x90] = a0\n  3778: ecalli 13 // 'return_data_size'\n  3780: fallthrough\n      : @121 (gas: 2)\n  3781: a2 = u64 [s1 + 0x90]\n  3785: jump @123 if a0 == 0\n      : @122 (gas: 1)\n  3788: jump @288\n      : @123 (gas: 1)\n  3791: jump @125 if a2 == 0\n      : @124 (gas: 1)\n  3794: jump @380\n      : @125 (gas: 3)\n  3797: a0 = s1 + 0x7a0\n  3801: a1 = 0x40\n  3804: ra = 98, jump @7\n      : @126 [@dyn 49] (gas: 13)\n  3809: a1 = s1 + 0x700\n  3813: a3 = u64 [a1 + 0xb8]\n  3817: a4 = u64 [a1 + 0xb0]\n  3821: a5 = u64 [a1 + 0xa8]\n  3825: a0 = u64 [a1 + 0xa0]\n  3829: a2 = a5 | a3\n  3832: a1 = a0 | a4\n  3835: a1 = a1 | a2\n  3838: a1 = a1 >> 0x20\n  3841: a2 = a2 | a4\n  3844: a2 = a2 << 0x20\n  3847: a1 = a1 | a2\n  3850: jump @128 if a1 == 0\n      : @127 (gas: 1)\n  3853: jump @266\n      : @128 (gas: 11)\n  3856: u64 [s1 + 1936] = 0\n  3860: u64 [s1 + 1928] = 0\n  3864: u64 [s1 + 1920] = 0\n  3868: a2 = 0x70a0823100000000\n  3878: a1 = s1 + 0x780\n  3882: u64 [s1 + 0x798] = a2\n  3886: u64 [s1 + 0x90] = a0\n  3890: u64 [s1 + 0x88] = a3\n  3894: u64 [s1 + 0x60] = a4\n  3897: u64 [s1 + 0x58] = a5\n  3900: ra = 100, jump @9\n      : @129 [@dyn 50] (gas: 4)\n  3905: a0 = u64 [s1 + 0x28]\n  3908: ra = 0x66\n  3911: ecalli 0 // 'address'\n  3912: fallthrough\n      : @130 [@dyn 51] (gas: 10)\n  3913: a4 = u64 [s1 + 0x90]\n  3917: a0 = u64 [s1 + 0x88]\n  3921: a1 = u64 [s1 + 0x60]\n  3924: a0 = a0 | a1\n  3927: a1 = 0xfffffffc\n  3937: a1 = a4 <u a1\n  3940: a2 = u64 [s1 + 0x58]\n  3943: a1 = 0 if a2 != 0\n  3945: a1 = 0 if a0 != 0\n  3947: jump @266 if a1 == 0\n      : @131 (gas: 1)\n  3951: t0 = 104, jump @464\n      : @132 [@dyn 52] (gas: 7)\n  3956: u64 [s1 + 1912] = 0\n  3960: a4 = s1 + 0x700\n  3964: u64 [a4 + 0x70] = a1\n  3967: u64 [a4 + 0x68] = a2\n  3970: a1 = s1 + 0x760\n  3974: u64 [a4 + 0x60] = a3\n  3977: ra = 106, jump @9\n      : @133 [@dyn 53] (gas: 17)\n  3982: ecalli 11 // 'ref_time_left'\n  3984: a0 = u64 [s1 + 0x10]\n  3987: a1 = u64 [s1 + 0xb8]\n  3991: u64 [a1 + 0x8] = a0\n  3994: a0 = u64 [s1 + 0x78]\n  3997: u64 [a1] = a0\n  3999: a0 = u64 [s1 + 0x18]\n  4002: u32 [a1 + 0x10] = a0\n  4005: a0 = s1 + 0x7ff\n  4009: a0 = a0 + 0x39\n  4012: u64 [a0 + 1728] = 0\n  4016: u64 [a0 + 1720] = 0\n  4020: u64 [a0 + 1712] = 0\n  4024: u64 [a0 + 1704] = 0\n  4028: a1 = 0x24\n  4031: a0 = u64 [s1 + 0x90]\n  4035: ra = 108, jump @15\n      : @134 [@dyn 54] (gas: 4)\n  4040: u64 [s1 + 0xb8] = a0\n  4044: a1 = 0x20\n  4047: a0 = u64 [s1 + 0x90]\n  4051: ra = 110, jump @15\n      : @135 [@dyn 55] (gas: 34)\n  4056: a1 = s1 + 0x7ff\n  4060: a1 = a1 + 0x39\n  4063: u32 [a1 + 1736] = 0x20\n  4068: u64 [a1 + 1792] = 0\n  4072: u64 [a1 + 1784] = 0\n  4076: u64 [a1 + 1776] = 0\n  4080: u64 [a1 + 1768] = 0\n  4084: a1 = 0x1800000000\n  4094: a2 = u64 [s1 + 0x80]\n  4098: t0 = a2 | a1\n  4101: a1 = s1 + 0x7ff\n  4105: a1 = a1 + 0x6e1\n  4109: a1 = a1 << 0x20\n  4112: a1 = a1 >> 0x20\n  4115: a2 = s1 + 0x7ff\n  4119: a2 = a2 + 0x721\n  4123: a2 = a2 << 0x20\n  4126: a3 = a2 | a1\n  4129: a1 = u64 [s1 + 0xb8]\n  4133: a1 = a1 << 0x20\n  4136: a1 = a1 >> 0x20\n  4139: a4 = u64 [s1 + 0x20]\n  4142: a4 = a4 | a1\n  4145: a0 = a0 << 0x20\n  4148: a0 = a0 >> 0x20\n  4151: a1 = s1 + 0x7ff\n  4155: a1 = a1 + 0x701\n  4159: a1 = a1 << 0x20\n  4162: a5 = a1 | a0\n  4165: a1 = 0xffffffffffffffff\n  4168: a2 = 0xffffffffffffffff\n  4171: a0 = t0\n  4173: ecalli 1 // 'call'\n  4175: fallthrough\n      : @136 (gas: 1)\n  4176: jump @138 if a0 == 0\n      : @137 (gas: 1)\n  4179: jump @307\n      : @138 (gas: 2)\n  4182: ecalli 13 // 'return_data_size'\n  4184: fallthrough\n      : @139 (gas: 2)\n  4185: a4 = 0x20\n  4188: jump @141 if a0 >=u a4\n      : @140 (gas: 3)\n  4191: ecalli 13 // 'return_data_size'\n  4193: a4 = a0\n  4195: fallthrough\n      : @141 (gas: 18)\n  4196: a2 = u64 [s1 + 0x90]\n  4200: a3 = u64 [s1 + 0x88]\n  4204: a0 = u64 [s1 + 0x60]\n  4207: a1 = u64 [s1 + 0x58]\n  4210: u64 [s1 + 136] = 0\n  4214: u64 [s1 + 0xb8] = a4\n  4218: a5 = s1 + 0x700\n  4222: u64 [a5] = a4\n  4224: u64 [a5 + 0x20] = a2\n  4227: u64 [s1 + 1800] = 0\n  4231: u64 [a5 + 0x28] = a1\n  4234: u64 [s1 + 1808] = 0\n  4238: u64 [a5 + 0x30] = a0\n  4241: u64 [s1 + 1816] = 0\n  4245: a0 = s1 + 0x720\n  4249: a1 = s1 + 0x700\n  4253: u64 [a5 + 0x38] = a3\n  4256: ra = 112, jump @398\n      : @142 [@dyn 56] (gas: 4)\n  4261: a3 = u64 [s1 + 0x88]\n  4265: a0 = a3 >u 0\n  4267: a1 = u64 [s1 + 0xb8]\n  4271: t0 = 114, jump @462\n      : @143 [@dyn 57] (gas: 1)\n  4276: jump @145 if a2 != 0\n      : @144 (gas: 1)\n  4279: jump @382\n      : @145 (gas: 3)\n  4282: a0 = s1 + 0x6e0\n  4286: a1 = u64 [s1 + 0x90]\n  4290: ra = 116, jump @7\n      : @146 [@dyn 58] (gas: 11)\n  4295: a0 = u64 [s1 + 0x6f8]\n  4299: u64 [s1 + 0x90] = a0\n  4303: a0 = u64 [s1 + 0x6f0]\n  4307: u64 [s1 + 0x88] = a0\n  4311: a0 = u64 [s1 + 0x6e8]\n  4315: u64 [s1 + 0x80] = a0\n  4319: a0 = u64 [s1 + 0x6e0]\n  4323: u64 [s1 + 0x78] = a0\n  4326: a0 = s1 + 0x6c0\n  4330: a1 = 0x40\n  4333: ra = 118, jump @7\n      : @147 [@dyn 59] (gas: 13)\n  4338: a0 = s1 + 0x600\n  4342: a4 = u64 [a0 + 0xd8]\n  4346: a5 = u64 [a0 + 0xd0]\n  4350: a3 = u64 [a0 + 0xc8]\n  4354: a2 = u64 [a0 + 0xc0]\n  4358: a0 = a3 | a4\n  4361: a1 = a2 | a5\n  4364: a1 = a1 | a0\n  4367: a1 = a1 >> 0x20\n  4370: a0 = a0 | a5\n  4373: a0 = a0 << 0x20\n  4376: a0 = a0 | a1\n  4379: jump @266 if a0 != 0\n      : @148 (gas: 15)\n  4383: a0 = u64 [s1 + 0xb0]\n  4387: u64 [s1 + 0x6a0] = a0\n  4391: a0 = u64 [s1 + 0x98]\n  4395: u64 [s1 + 0x6a8] = a0\n  4399: a0 = u64 [s1 + 0xa0]\n  4403: u64 [s1 + 0x6b0] = a0\n  4407: a1 = s1 + 0x6a0\n  4411: a0 = u64 [s1 + 0xa8]\n  4415: u64 [s1 + 0x6b8] = a0\n  4419: a0 = a2\n  4421: u64 [s1 + 0xb8] = a2\n  4425: u64 [s1 + 0xb0] = a3\n  4429: u64 [s1 + 0xa8] = a4\n  4433: u64 [s1 + 0xa0] = a5\n  4437: ra = 120, jump @9\n      : @149 [@dyn 60] (gas: 1)\n  4442: t0 = 122, jump @470\n      : @150 [@dyn 61] (gas: 1)\n  4447: jump @266 if a1 == 0\n      : @151 (gas: 11)\n  4451: i32 a0 = a2 + 0x20\n  4454: a1 = u64 [s1 + 0x78]\n  4457: u64 [s1 + 0x680] = a1\n  4461: a1 = u64 [s1 + 0x80]\n  4465: u64 [s1 + 0x688] = a1\n  4469: a1 = u64 [s1 + 0x88]\n  4473: u64 [s1 + 0x690] = a1\n  4477: a1 = s1 + 0x680\n  4481: a3 = u64 [s1 + 0x90]\n  4485: u64 [s1 + 0x698] = a3\n  4489: ra = 124, jump @9\n      : @152 [@dyn 62] (gas: 22)\n  4494: u64 [s1 + 1624] = 0\n  4498: a0 = u64 [s1 + 0x8]\n  4501: a4 = s1 + 0x600\n  4505: u64 [a4 + 0x50] = a0\n  4508: a0 = u64 [s1 + 0x68]\n  4511: u64 [a4 + 0x48] = a0\n  4514: a0 = u64 [0x20000]\n  4519: a1 = u64 [0x20008]\n  4524: a2 = u64 [0x20010]\n  4529: a3 = u64 [s1 + 0x70]\n  4532: u64 [a4 + 0x40] = a3\n  4535: u64 [a4 + 0x78] = a0\n  4538: u64 [a4 + 0x70] = a1\n  4541: u64 [a4 + 0x68] = a2\n  4544: a0 = u64 [0x20018]\n  4549: a1 = 0x40\n  4552: a2 = s1 + 0x660\n  4556: a3 = s1 + 0x640\n  4560: u64 [a4 + 0x60] = a0\n  4563: a0 = u64 [s1 + 0xb8]\n  4567: ra = 0xe6\n  4571: jump @13\n      : @153 (gas: 8)\n  4574: u64 [a2 + 1888] = 0\n  4578: u64 [a2 + 1880] = 0\n  4582: u64 [a2 + 1872] = 0\n  4586: u64 [a2 + 1864] = 0\n  4590: a0 = s1 + 0x1000\n  4594: i32 a0 = a0 + 0xffffffffffffff80\n  4597: ecalli 17 // 'value_transferred'\n  4599: fallthrough\n      : @154 (gas: 11)\n  4600: a3 = s1 + 0x7ff\n  4604: a3 = a3 + 0x39\n  4607: a4 = a3 + 0x700\n  4611: a0 = u64 [a4 + 0x58]\n  4614: a1 = u64 [a4 + 0x60]\n  4617: a2 = u64 [a4 + 0x50]\n  4620: a3 = u64 [a4 + 0x48]\n  4623: a1 = a1 | a2\n  4626: a0 = a0 | a3\n  4629: a0 = a0 | a1\n  4632: jump @156 if a0 == 0\n      : @155 (gas: 1)\n  4635: jump @315\n      : @156 (gas: 3)\n  4638: a0 = u64 [s1 + 0xb8]\n  4642: a0 = i32 [a0]\n  4644: jump @158 if a0 >u 35\n      : @157 (gas: 1)\n  4648: jump @315\n      : @158 (gas: 3)\n  4651: a0 = s1 + 0x7ff\n  4655: a0 = a0 + 0x2e1\n  4659: ra = 126, jump @392\n      : @159 [@dyn 63] (gas: 12)\n  4664: a0 = s1 + 0x7ff\n  4668: a0 = a0 + 0x39\n  4671: a2 = a0 + 0x200\n  4675: a1 = u64 [a2 + 0xc0]\n  4679: u64 [s1 + 0xb8] = a1\n  4683: a1 = u64 [a2 + 0xb8]\n  4687: u64 [s1 + 0xb0] = a1\n  4691: a1 = u64 [a2 + 0xb0]\n  4695: u64 [s1 + 0xa8] = a1\n  4699: a0 = u64 [a2 + 0xa8]\n  4703: u64 [s1 + 0xa0] = a0\n  4707: ra = 128, jump @0\n      : @160 [@dyn 64] (gas: 14)\n  4713: a1 = u64 [0x300d8]\n  4718: u64 [s1 + 0x98] = a1\n  4722: a1 = u64 [0x300d0]\n  4727: u64 [s1 + 0x90] = a1\n  4731: a0 = u32 [0x300e0]\n  4736: u64 [s1 + 0x88] = a0\n  4740: a0 = 0x30070\n  4745: u64 [s1 + 0x80] = a0\n  4749: i32 a0 = a0 + 0\n  4751: ra = 0x82\n  4755: ecalli 5 // 'caller'\n  4757: a2 = u64 [s1 + 0x80]\n  4761: t0 = 0x84\n  4765: jump @466\n      : @161 [@dyn 65] (gas: 2)\n  4768: a2 = u64 [s1 + 0x80]\n  4772: t0 = 132, jump @466\n      : @162 [@dyn 66] (gas: 9)\n  4778: a2 = u64 [s1 + 0x88]\n  4782: a1 = a1 ^ a2\n  4785: a2 = u64 [s1 + 0x90]\n  4789: a0 = a0 ^ a2\n  4792: a0 = a0 | a1\n  4795: a1 = u64 [s1 + 0x98]\n  4799: a1 = a1 ^ a3\n  4802: a0 = a0 | a1\n  4805: jump @164 if a0 == 0\n      : @163 (gas: 1)\n  4808: jump @319\n      : @164 (gas: 16)\n  4811: a3 = s1 + 0x7ff\n  4815: a3 = a3 + 0x39\n  4818: a0 = u64 [s1 + 0xa0]\n  4822: a4 = a3 + 0x200\n  4826: u64 [a4 + 0x48] = a0\n  4829: a0 = u64 [s1 + 0xa8]\n  4833: u64 [a4 + 0x50] = a0\n  4836: a0 = u64 [s1 + 0xb0]\n  4840: u64 [a4 + 0x58] = a0\n  4843: a0 = s1 + 0x7ff\n  4847: a0 = a0 + 0x2a1\n  4851: a1 = s1 + 0x7ff\n  4855: a1 = a1 + 0x281\n  4859: a2 = u64 [s1 + 0xb8]\n  4863: u64 [a4 + 0x60] = a2\n  4866: ra = 134, jump @407\n      : @165 [@dyn 67] (gas: 4)\n  4872: a0 = s1 + 0x7ff\n  4876: a0 = a0 + 0x261\n  4880: a1 = 0x40\n  4883: ra = 136, jump @7\n      : @166 [@dyn 68] (gas: 15)\n  4889: a3 = s1 + 0x7ff\n  4893: a3 = a3 + 0x39\n  4896: a5 = a3 + 0x200\n  4900: a4 = u64 [a5 + 0x40]\n  4903: a1 = u64 [a5 + 0x38]\n  4906: a2 = u64 [a5 + 0x30]\n  4909: a0 = u64 [a5 + 0x28]\n  4912: a4 = a4 | a2\n  4915: a2 = a0 | a1\n  4918: a2 = a2 | a4\n  4921: a2 = a2 >> 0x20\n  4924: a1 = a1 | a4\n  4927: a1 = a1 << 0x20\n  4930: a1 = a1 | a2\n  4933: jump @266 if a1 != 0\n      : @167 (gas: 9)\n  4937: u64 [a3 + 544] = 0\n  4941: u64 [a3 + 536] = 0\n  4945: u64 [a3 + 528] = 0\n  4949: a1 = s1 + 0x7ff\n  4953: a1 = a1 + 0x241\n  4957: u64 [a3 + 520] = 0\n  4961: u64 [s1 + 0xb8] = a0\n  4965: ra = 0x140\n  4969: jump @9\n      : @168 (gas: 8)\n  4972: u64 [a2 + 1856] = 0\n  4976: u64 [a2 + 1848] = 0\n  4980: u64 [a2 + 1840] = 0\n  4984: u64 [a2 + 1832] = 0\n  4988: a0 = s1 + 0x1000\n  4992: i32 a0 = a0 + 0xffffffffffffff60\n  4996: ecalli 17 // 'value_transferred'\n  4998: fallthrough\n      : @169 (gas: 11)\n  4999: a3 = s1 + 0x7ff\n  5003: a3 = a3 + 0x39\n  5006: a4 = a3 + 0x700\n  5010: a0 = u64 [a4 + 0x38]\n  5013: a1 = u64 [a4 + 0x40]\n  5016: a2 = u64 [a4 + 0x30]\n  5019: a3 = u64 [a4 + 0x28]\n  5022: a1 = a1 | a2\n  5025: a0 = a0 | a3\n  5028: a0 = a0 | a1\n  5031: jump @315 if a0 != 0\n      : @170 (gas: 3)\n  5035: a0 = u64 [s1 + 0xb8]\n  5039: a0 = i32 [a0]\n  5041: jump @315 if a0 <=u 3\n      : @171 (gas: 4)\n  5046: a0 = s1 + 0x7ff\n  5050: a0 = a0 + 0x221\n  5054: a1 = 0x40\n  5057: ra = 138, jump @7\n      : @172 [@dyn 69] (gas: 12)\n  5063: a0 = s1 + 0x7ff\n  5067: a0 = a0 + 0x39\n  5070: a1 = u64 [a0 + 0x200]\n  5074: u64 [s1 + 0xb8] = a1\n  5078: a2 = a0 + 0x100\n  5082: a1 = u64 [a2 + 0xf8]\n  5086: u64 [s1 + 0xb0] = a1\n  5090: a1 = u64 [a2 + 0xf0]\n  5094: u64 [s1 + 0xa0] = a1\n  5098: a0 = u64 [a2 + 0xe8]\n  5102: u64 [s1 + 0xa8] = a0\n  5106: ra = 140, jump @0\n      : @173 [@dyn 70] (gas: 1)\n  5112: t0 = 142, jump @465\n      : @174 [@dyn 71] (gas: 1)\n  5118: jump @266 if a0 != 0\n      : @175 (gas: 15)\n  5122: a2 = u64 [0x30090]\n  5127: a1 = u64 [0x30098]\n  5132: a0 = u32 [0x300a0]\n  5137: a4 = s1 + 0x7ff\n  5141: a4 = a4 + 0x39\n  5144: u64 [a4 + 480] = 0\n  5148: a5 = a4 + 0x100\n  5152: u64 [a5 + 0xd8] = a0\n  5156: u64 [a5 + 0xd0] = a1\n  5160: a1 = s1 + 0x7ff\n  5164: a1 = a1 + 0x201\n  5168: u64 [a5 + 0xc8] = a2\n  5172: a0 = a3\n  5174: ra = 0xa4\n  5178: jump @9\n      : @176 (gas: 10)\n  5181: u64 [a2 + 992] = 0\n  5185: u64 [a2 + 984] = 0\n  5189: u64 [a2 + 976] = 0\n  5193: u64 [a2 + 968] = 0\n  5197: a0 = s1 + 0x1000\n  5201: i32 a0 = a0 + 0xfffffffffffffc00\n  5205: ra = 0x90\n  5209: ecalli 17 // 'value_transferred'\n  5211: t0 = 0x92\n  5215: jump @475\n      : @177 [@dyn 72] (gas: 1)\n  5218: t0 = 146, jump @475\n      : @178 [@dyn 73] (gas: 8)\n  5224: a0 = u64 [a4 + 0xd8]\n  5228: a1 = u64 [a4 + 0xe0]\n  5232: a2 = u64 [a4 + 0xd0]\n  5236: a3 = u64 [a4 + 0xc8]\n  5240: a1 = a1 | a2\n  5243: a0 = a0 | a3\n  5246: a0 = a0 | a1\n  5249: jump @322 if a0 != 0\n      : @179 (gas: 3)\n  5253: a0 = u64 [s1 + 0xb8]\n  5257: a0 = i32 [a0]\n  5259: jump @323 if a0 <=u 3\n      : @180 (gas: 3)\n  5264: a0 = s1 + 0x1c0\n  5268: a1 = 0x40\n  5271: ra = 148, jump @7\n      : @181 [@dyn 74] (gas: 10)\n  5277: a1 = s1 + 0x100\n  5281: a0 = u64 [a1 + 0xd8]\n  5285: u64 [s1 + 0xb8] = a0\n  5289: a0 = u64 [a1 + 0xd0]\n  5293: u64 [s1 + 0xb0] = a0\n  5297: a0 = u64 [a1 + 0xc8]\n  5301: u64 [s1 + 0xa0] = a0\n  5305: a0 = u64 [a1 + 0xc0]\n  5309: u64 [s1 + 0xa8] = a0\n  5313: ra = 150, jump @0\n      : @182 [@dyn 75] (gas: 1)\n  5319: t0 = 152, jump @465\n      : @183 [@dyn 76] (gas: 1)\n  5325: jump @266 if a0 != 0\n      : @184 (gas: 12)\n  5329: a2 = u64 [0x300d0]\n  5334: a1 = u64 [0x300d8]\n  5339: a0 = u32 [0x300e0]\n  5344: u64 [s1 + 440] = 0\n  5348: a4 = s1 + 0x100\n  5352: u64 [a4 + 0xb0] = a0\n  5356: u64 [a4 + 0xa8] = a1\n  5360: a1 = s1 + 0x1a0\n  5364: u64 [a4 + 0xa0] = a2\n  5368: a0 = a3\n  5370: ra = 0xa4\n  5374: jump @9\n      : @185 (gas: 1)\n  5377: jump @324 if a0 != 1608758631\n      : @186 (gas: 10)\n  5385: u64 [a2 + 960] = 0\n  5389: u64 [a2 + 952] = 0\n  5393: u64 [a2 + 944] = 0\n  5397: u64 [a2 + 936] = 0\n  5401: a0 = s1 + 0x1000\n  5405: i32 a0 = a0 + 0xfffffffffffffbe0\n  5409: ra = 0x9a\n  5413: ecalli 17 // 'value_transferred'\n  5415: t0 = 0x9c\n  5419: jump @475\n      : @187 [@dyn 77] (gas: 1)\n  5422: t0 = 156, jump @475\n      : @188 [@dyn 78] (gas: 8)\n  5428: a0 = u64 [a4 + 0xb8]\n  5432: a1 = u64 [a4 + 0xc0]\n  5436: a2 = u64 [a4 + 0xb0]\n  5440: a3 = u64 [a4 + 0xa8]\n  5444: a1 = a1 | a2\n  5447: a0 = a0 | a3\n  5450: a0 = a0 | a1\n  5453: jump @333 if a0 != 0\n      : @189 (gas: 3)\n  5457: a0 = u64 [s1 + 0xb8]\n  5461: a0 = i32 [a0]\n  5463: jump @330 if a0 <=u 3\n      : @190 (gas: 3)\n  5468: a0 = s1 + 0x180\n  5472: a1 = 0x40\n  5475: ra = 158, jump @7\n      : @191 [@dyn 79] (gas: 10)\n  5481: a1 = s1 + 0x100\n  5485: a0 = u64 [a1 + 0x98]\n  5489: u64 [s1 + 0xb8] = a0\n  5493: a0 = u64 [a1 + 0x90]\n  5497: u64 [s1 + 0xb0] = a0\n  5501: a0 = u64 [a1 + 0x88]\n  5505: u64 [s1 + 0xa0] = a0\n  5509: a0 = u64 [a1 + 0x80]\n  5513: u64 [s1 + 0xa8] = a0\n  5517: ra = 160, jump @0\n      : @192 [@dyn 80] (gas: 1)\n  5523: t0 = 162, jump @465\n      : @193 [@dyn 81] (gas: 1)\n  5529: jump @266 if a0 != 0\n      : @194 (gas: 11)\n  5533: a2 = u64 [0x300b0]\n  5538: a1 = u64 [0x300b8]\n  5543: a0 = u32 [0x300c0]\n  5548: u64 [s1 + 376] = 0\n  5552: a4 = s1 + 0x100\n  5556: u64 [a4 + 0x70] = a0\n  5559: u64 [a4 + 0x68] = a1\n  5562: a1 = s1 + 0x160\n  5566: u64 [a4 + 0x60] = a2\n  5569: a0 = a3\n  5571: ra = 164, jump @9\n      : @195 [@dyn 82] (gas: 4)\n  5577: a1 = 0x20\n  5580: a0 = u64 [s1 + 0xa8]\n  5584: ra = 0x142\n  5588: jump @15\n      : @196 (gas: 3)\n  5591: a0 = u64 [s1 + 0xb8]\n  5595: a0 = i32 [a0]\n  5597: jump @331 if a0 <=u 67\n      : @197 (gas: 2)\n  5602: a0 = s1 + 0x5c0\n  5606: ra = 166, jump @392\n      : @198 [@dyn 83] (gas: 23)\n  5612: a1 = s1 + 0x500\n  5616: a0 = u64 [a1 + 0xd0]\n  5620: u64 [s1 + 0x58] = a0\n  5623: a0 = u64 [a1 + 0xc8]\n  5627: u64 [s1 + 0x60] = a0\n  5630: a0 = u64 [a1 + 0xc0]\n  5634: u64 [s1 + 0x68] = a0\n  5637: a0 = s1 + 0x1000\n  5641: i32 a0 = a0 + 0xfffffffffffffc60\n  5645: a1 = 0x24\n  5648: ecalli 3 // 'call_data_load'\n  5650: a1 = s1 + 0x7ff\n  5654: a1 = a1 + 0x39\n  5657: a2 = a1 + 0x400\n  5661: a0 = u64 [a2 + 0x40]\n  5664: u64 [s1 + 0xb0] = a0\n  5668: a0 = u64 [a2 + 0x38]\n  5671: u64 [s1 + 0xa8] = a0\n  5675: a0 = u64 [a2 + 0x30]\n  5678: u64 [s1 + 0xa0] = a0\n  5682: a0 = u64 [a2 + 0x28]\n  5685: u64 [s1 + 0x98] = a0\n  5689: ra = 168, jump @0\n      : @199 [@dyn 84] (gas: 17)\n  5695: a0 = 0x30090\n  5700: a1 = u64 [0x300d8]\n  5705: u64 [s1 + 0x80] = a1\n  5709: a1 = u64 [0x300d0]\n  5714: u64 [s1 + 0x78] = a1\n  5717: u64 [s1 + 0x88] = a0\n  5721: a0 = u32 [0x300e0]\n  5726: u64 [s1 + 0x70] = a0\n  5729: a0 = 0x30070\n  5734: u64 [s1 + 0xb8] = a0\n  5738: i32 a0 = a0 + 0\n  5740: u64 [s1 + 0x90] = a0\n  5744: ra = 0xaa\n  5748: ecalli 5 // 'caller'\n  5750: a2 = u64 [s1 + 0xb8]\n  5754: t0 = 0xac\n  5758: jump @466\n      : @200 [@dyn 85] (gas: 2)\n  5761: a2 = u64 [s1 + 0xb8]\n  5765: t0 = 172, jump @466\n      : @201 [@dyn 86] (gas: 9)\n  5771: a2 = u64 [s1 + 0x70]\n  5774: a1 = a1 ^ a2\n  5777: a2 = u64 [s1 + 0x78]\n  5780: a0 = a0 ^ a2\n  5783: a0 = a0 | a1\n  5786: a1 = u64 [s1 + 0x80]\n  5790: a1 = a1 ^ a3\n  5793: a0 = a0 | a1\n  5796: jump @334 if a0 != 0\n      : @202 (gas: 10)\n  5800: a0 = s1 + 0x7ff\n  5804: a0 = a0 + 0x39\n  5807: u64 [a0 + 1120] = 0\n  5811: u64 [a0 + 1112] = 0\n  5815: u64 [a0 + 1104] = 0\n  5819: u64 [a0 + 1096] = 0\n  5823: a0 = s1 + 0x1000\n  5827: i32 a0 = a0 + 0xfffffffffffffc80\n  5831: ecalli 17 // 'value_transferred'\n  5833: fallthrough\n      : @203 (gas: 19)\n  5834: a2 = s1 + 0x7ff\n  5838: a2 = a2 + 0x39\n  5841: a3 = a2 + 0x400\n  5845: a0 = u64 [a3 + 0x60]\n  5848: a1 = u64 [a3 + 0x50]\n  5851: t0 = u64 [a2 + 0x448]\n  5855: a2 = u64 [a3 + 0x58]\n  5858: t1 = u64 [s1 + 0xb0]\n  5862: a0 = a0 ^ t1\n  5865: a3 = u64 [s1 + 0xa0]\n  5869: a1 = a1 ^ a3\n  5872: a0 = a0 | a1\n  5875: a5 = u64 [s1 + 0xa8]\n  5879: a1 = a2 ^ a5\n  5882: a4 = u64 [s1 + 0x98]\n  5886: a2 = t0 ^ a4\n  5889: a1 = a1 | a2\n  5892: a0 = a0 | a1\n  5895: jump @338 if a0 != 0\n      : @204 (gas: 5)\n  5899: a2 = a5\n  5901: a0 = a4 | a5\n  5904: a1 = a3 | t1\n  5907: a0 = a0 | a1\n  5910: jump @342 if a0 == 0\n      : @205 (gas: 1)\n  5914: ra = 174, jump @0\n      : @206 [@dyn 87] (gas: 4)\n  5920: a2 = u64 [s1 + 0x88]\n  5924: a0 = u64 [a2 + 0x8]\n  5927: a1 = u64 [a2 + 0x10]\n  5930: t0 = 176, jump @467\n      : @207 [@dyn 88] (gas: 10)\n  5936: a0 = u64 [s1 + 0xb8]\n  5940: u64 [s1 + 0x78] = a1\n  5943: u32 [a0 + 0x10] = a1\n  5946: u64 [s1 + 0x70] = a2\n  5949: u64 [a0 + 0x8] = a2\n  5952: u64 [s1 + 0x80] = a3\n  5956: u64 [a0] = a3\n  5958: a0 = u64 [s1 + 0x90]\n  5962: ecalli 6 // 'code_size'\n  5964: fallthrough\n      : @208 (gas: 1)\n  5965: jump @347 if a0 == 0\n      : @209 (gas: 3)\n  5969: a0 = s1 + 0x560\n  5973: a1 = 0x40\n  5976: ra = 178, jump @7\n      : @210 [@dyn 89] (gas: 13)\n  5982: a1 = s1 + 0x500\n  5986: a2 = u64 [a1 + 0x78]\n  5989: a3 = u64 [a1 + 0x70]\n  5992: a4 = u64 [a1 + 0x68]\n  5995: a0 = u64 [a1 + 0x60]\n  5998: a5 = a4 | a2\n  6001: a1 = a0 | a3\n  6004: a1 = a1 | a5\n  6007: a1 = a1 >> 0x20\n  6010: a5 = a5 | a3\n  6013: a5 = a5 << 0x20\n  6016: a1 = a1 | a5\n  6019: jump @266 if a1 != 0\n      : @211 (gas: 11)\n  6023: u64 [s1 + 0x38] = a4\n  6026: u64 [s1 + 0x40] = a3\n  6029: u64 [s1 + 0x48] = a2\n  6032: u64 [s1 + 1360] = 0\n  6036: u64 [s1 + 1352] = 0\n  6040: u64 [s1 + 1344] = 0\n  6044: a2 = 0x1249c58b00000000\n  6054: a1 = s1 + 0x540\n  6058: u64 [s1 + 0x558] = a2\n  6062: u64 [s1 + 0x88] = a0\n  6066: ra = 180, jump @9\n      : @212 [@dyn 90] (gas: 22)\n  6072: ecalli 11 // 'ref_time_left'\n  6074: a1 = u64 [s1 + 0xb8]\n  6078: a0 = u64 [s1 + 0x70]\n  6081: u64 [a1 + 0x8] = a0\n  6084: a0 = u64 [s1 + 0x80]\n  6088: u64 [a1] = a0\n  6090: a0 = u64 [s1 + 0x78]\n  6093: u32 [a1 + 0x10] = a0\n  6096: a1 = s1 + 0x7ff\n  6100: a1 = a1 + 0x39\n  6103: a0 = u64 [s1 + 0xb0]\n  6107: a2 = a1 + 0x400\n  6111: u64 [a2 + 0x80] = a0\n  6115: a0 = u64 [s1 + 0xa8]\n  6119: u64 [a2 + 0x78] = a0\n  6122: a0 = u64 [s1 + 0xa0]\n  6126: u64 [a2 + 0x70] = a0\n  6129: a0 = u64 [s1 + 0x98]\n  6133: u64 [a2 + 0x68] = a0\n  6136: a1 = 0x4\n  6139: a0 = u64 [s1 + 0x88]\n  6143: ra = 182, jump @15\n      : @213 [@dyn 91] (gas: 4)\n  6149: u64 [s1 + 0x50] = a0\n  6152: a0 = u64 [s1 + 0x88]\n  6156: a1 = 0\n  6158: ra = 184, jump @15\n      : @214 [@dyn 92] (gas: 38)\n  6164: a2 = s1 + 0x7ff\n  6168: a2 = a2 + 0x39\n  6171: u32 [a2 + 1160] = 0\n  6175: a3 = a2 + 0x400\n  6179: u64 [a3 + 192] = 0xffffffffffffffff\n  6184: u64 [a3 + 184] = 0xffffffffffffffff\n  6189: u64 [a3 + 176] = 0xffffffffffffffff\n  6194: u64 [a3 + 168] = 0xffffffffffffffff\n  6199: a1 = u64 [s1 + 0xb8]\n  6203: a1 = a1 << 0x20\n  6206: a3 = a1 >> 0x20\n  6209: a2 = 0x800000000\n  6219: u64 [s1 + 0x30] = a3\n  6222: t0 = a3 | a2\n  6225: a2 = s1 + 0x7ff\n  6229: a2 = a2 + 0x4a1\n  6233: a2 = a2 << 0x20\n  6236: a2 = a2 >> 0x20\n  6239: a3 = s1 + 0x7ff\n  6243: a3 = a3 + 0x4e1\n  6247: a3 = a3 << 0x20\n  6250: a3 = a3 | a2\n  6253: a2 = u64 [s1 + 0x50]\n  6256: a2 = a2 << 0x20\n  6259: a2 = a2 >> 0x20\n  6262: a1 = 0x400000000\n  6272: a4 = a2 | a1\n  6275: a0 = a0 << 0x20\n  6278: a0 = a0 >> 0x20\n  6281: a1 = s1 + 0x7ff\n  6285: a1 = a1 + 0x4c1\n  6289: a1 = a1 << 0x20\n  6292: a5 = a1 | a0\n  6295: a1 = 0xffffffffffffffff\n  6298: a2 = 0xffffffffffffffff\n  6301: a0 = t0\n  6303: ecalli 1 // 'call'\n  6305: fallthrough\n      : @215 (gas: 1)\n  6306: jump @267 if a0 != 0\n      : @216 (gas: 16)\n  6310: u64 [s1 + 1272] = 0\n  6314: u64 [s1 + 1264] = 0\n  6318: u64 [s1 + 1256] = 0\n  6322: u64 [s1 + 1248] = 0\n  6326: a0 = u64 [s1 + 0x88]\n  6330: a3 = s1 + 0x500\n  6334: u64 [a3] = a0\n  6336: a0 = u64 [s1 + 0x38]\n  6339: u64 [a3 + 0x8] = a0\n  6342: a0 = u64 [s1 + 0x40]\n  6345: u64 [a3 + 0x10] = a0\n  6348: a0 = s1 + 0x500\n  6352: a1 = s1 + 0x4e0\n  6356: a2 = u64 [s1 + 0x48]\n  6359: u64 [a3 + 0x18] = a2\n  6362: ra = 186, jump @398\n      : @217 [@dyn 93] (gas: 13)\n  6368: a0 = u64 [s1 + 0x58]\n  6371: a0 = a0 << 0x20\n  6374: a0 = a0 >> 0x20\n  6377: u64 [s1 + 1240] = 0\n  6381: u64 [s1 + 0x40] = a0\n  6384: u64 [s1 + 0x4d0] = a0\n  6388: a0 = u64 [s1 + 0x60]\n  6391: u64 [s1 + 0x4c8] = a0\n  6395: a1 = s1 + 0x4c0\n  6399: a0 = u64 [s1 + 0x68]\n  6402: u64 [s1 + 0x4c0] = a0\n  6406: a0 = 0\n  6408: ra = 188, jump @9\n      : @218 [@dyn 94] (gas: 7)\n  6414: u64 [s1 + 1208] = 0\n  6418: u64 [s1 + 1200] = 0\n  6422: u64 [s1 + 1192] = 0\n  6426: a0 = 0x20\n  6429: a1 = s1 + 0x4a0\n  6433: u64 [s1 + 1184] = 0\n  6437: ra = 190, jump @9\n      : @219 [@dyn 95] (gas: 7)\n  6443: a0 = sp + 0xffffffffffffffe0\n  6446: a0 = a0 & 0xffffffffffffffe0\n  6449: u64 [s1 + 0x88] = a0\n  6453: sp = a0\n  6455: a1 = 0x40\n  6458: a0 = 0\n  6460: ra = 192, jump @15\n      : @220 [@dyn 96] (gas: 12)\n  6466: a1 = sp + 0xffffffffffffffe0\n  6469: a1 = a1 & 0xffffffffffffffe0\n  6472: u64 [s1 + 0x58] = a1\n  6475: sp = a1\n  6477: i32 a0 = a0 + 0\n  6479: i32 a2 = a1 + 0\n  6481: a1 = 0x40\n  6484: ra = 0xc2\n  6488: ecalli 10 // 'hash_keccak_256'\n  6490: a3 = u64 [s1 + 0x58]\n  6493: t0 = 0xc4\n  6497: jump @472\n      : @221 [@dyn 97] (gas: 2)\n  6500: a3 = u64 [s1 + 0x58]\n  6503: t0 = 196, jump @472\n      : @222 [@dyn 98] (gas: 7)\n  6509: a1 = u64 [s1 + 0x88]\n  6513: u64 [a1 + 0x18] = a3\n  6516: u64 [a1 + 0x10] = a2\n  6519: u64 [a1 + 0x8] = a4\n  6522: u64 [a1] = a0\n  6524: a0 = s1 + 0x480\n  6528: ra = 198, jump @11\n      : @223 [@dyn 99] (gas: 38)\n  6534: t2 = u64 [s1 + 0x498]\n  6538: a1 = s1 + 0x400\n  6542: a0 = u64 [a1 + 0x90]\n  6546: a4 = u64 [a1 + 0x80]\n  6550: a5 = u64 [a1 + 0x88]\n  6554: a1 = sp + 0xffffffffffffffe0\n  6557: a1 = a1 & 0xffffffffffffffe0\n  6560: sp = a1\n  6562: a3 = u64 [s1 + 0xa0]\n  6566: a3 = a3 + a5\n  6569: t0 = u64 [s1 + 0x98]\n  6573: t0 = t0 + a4\n  6576: a4 = t0 <u a4\n  6579: a3 = a3 + a4\n  6582: t1 = a3 ^ a5\n  6585: a2 = a3 <u a5\n  6588: a2 = a4 if t1 == 0\n  6591: a4 = u64 [s1 + 0xa8]\n  6595: a4 = a4 + a0\n  6598: a5 = a4 + a2\n  6601: t1 = a5 <u a4\n  6604: ra = u64 [s1 + 0xb0]\n  6608: ra = ra + t2\n  6611: a4 = a4 <u a0\n  6614: a4 = a4 + ra\n  6617: ra = a4 + t1\n  6620: t1 = a5 <u a0\n  6623: a4 = t2 ^ ra\n  6626: t2 = ra <u t2\n  6629: t2 = t1 if a4 == 0\n  6632: a0 = a0 ^ a5\n  6635: a0 = a0 | a4\n  6638: t2 = a2 if a0 == 0\n  6641: u64 [a1 + 0x10] = a5\n  6644: u64 [a1 + 0x8] = a3\n  6647: u64 [a1] = t0\n  6649: u64 [a1 + 0x18] = ra\n  6652: jump @358 if t2 != 0\n      : @224 (gas: 2)\n  6656: a0 = u64 [s1 + 0x88]\n  6660: ra = 200, jump @12\n      : @225 [@dyn 100] (gas: 3)\n  6666: a0 = s1 + 0x460\n  6670: a1 = 0x40\n  6673: ra = 202, jump @7\n      : @226 [@dyn 101] (gas: 13)\n  6679: a1 = s1 + 0x400\n  6683: a3 = u64 [a1 + 0x78]\n  6686: a4 = u64 [a1 + 0x70]\n  6689: a5 = u64 [a1 + 0x68]\n  6692: a0 = u64 [a1 + 0x60]\n  6695: a2 = a5 | a3\n  6698: a1 = a0 | a4\n  6701: a1 = a1 | a2\n  6704: a1 = a1 >> 0x20\n  6707: a2 = a2 | a4\n  6710: a2 = a2 << 0x20\n  6713: a1 = a1 | a2\n  6716: jump @266 if a1 != 0\n      : @227 (gas: 11)\n  6720: u64 [s1 + 1104] = 0\n  6724: u64 [s1 + 1096] = 0\n  6728: u64 [s1 + 1088] = 0\n  6732: a2 = 0x70a0823100000000\n  6742: a1 = s1 + 0x440\n  6746: u64 [s1 + 0x458] = a2\n  6750: u64 [s1 + 0x88] = a0\n  6754: u64 [s1 + 0x58] = a3\n  6757: u64 [s1 + 0x50] = a4\n  6760: u64 [s1 + 0x48] = a5\n  6763: ra = 204, jump @9\n      : @228 [@dyn 102] (gas: 4)\n  6769: a0 = u64 [s1 + 0x90]\n  6773: ra = 0xce\n  6777: ecalli 0 // 'address'\n  6778: fallthrough\n      : @229 [@dyn 103] (gas: 10)\n  6779: a4 = u64 [s1 + 0x88]\n  6783: a0 = u64 [s1 + 0x58]\n  6786: a1 = u64 [s1 + 0x50]\n  6789: a0 = a0 | a1\n  6792: a1 = 0xfffffffc\n  6802: a1 = a4 <u a1\n  6805: a2 = u64 [s1 + 0x48]\n  6808: a1 = 0 if a2 != 0\n  6810: a1 = 0 if a0 != 0\n  6812: jump @266 if a1 == 0\n      : @230 (gas: 1)\n  6816: t0 = 208, jump @464\n      : @231 [@dyn 104] (gas: 7)\n  6822: u64 [s1 + 1080] = 0\n  6826: a4 = s1 + 0x400\n  6830: u64 [a4 + 0x30] = a1\n  6833: u64 [a4 + 0x28] = a2\n  6836: a1 = s1 + 0x420\n  6840: u64 [a4 + 0x20] = a3\n  6843: ra = 210, jump @9\n      : @232 [@dyn 105] (gas: 17)\n  6849: ecalli 11 // 'ref_time_left'\n  6851: a0 = u64 [s1 + 0x70]\n  6854: a1 = u64 [s1 + 0xb8]\n  6858: u64 [a1 + 0x8] = a0\n  6861: a0 = u64 [s1 + 0x80]\n  6865: u64 [a1] = a0\n  6867: a0 = u64 [s1 + 0x78]\n  6870: u32 [a1 + 0x10] = a0\n  6873: a0 = s1 + 0x7ff\n  6877: a0 = a0 + 0x39\n  6880: u64 [a0 + 1280] = 0\n  6884: u64 [a0 + 1272] = 0\n  6888: u64 [a0 + 1264] = 0\n  6892: u64 [a0 + 1256] = 0\n  6896: a1 = 0x24\n  6899: a0 = u64 [s1 + 0x88]\n  6903: ra = 212, jump @15\n      : @233 [@dyn 106] (gas: 4)\n  6909: u64 [s1 + 0xb8] = a0\n  6913: a1 = 0x20\n  6916: a0 = u64 [s1 + 0x88]\n  6920: ra = 214, jump @15\n      : @234 [@dyn 107] (gas: 34)\n  6926: a1 = a0\n  6928: a0 = s1 + 0x7ff\n  6932: a0 = a0 + 0x39\n  6935: u32 [a0 + 1288] = 0x20\n  6940: u64 [a0 + 1344] = 0\n  6944: u64 [a0 + 1336] = 0\n  6948: u64 [a0 + 1328] = 0\n  6952: u64 [a0 + 1320] = 0\n  6956: a0 = 0x1800000000\n  6966: a2 = u64 [s1 + 0x30]\n  6969: a0 = a0 | a2\n  6972: a2 = s1 + 0x7ff\n  6976: a2 = a2 + 0x521\n  6980: a2 = a2 << 0x20\n  6983: a2 = a2 >> 0x20\n  6986: a3 = s1 + 0x7ff\n  6990: a3 = a3 + 0x561\n  6994: a3 = a3 << 0x20\n  6997: a3 = a3 | a2\n  7000: a2 = u64 [s1 + 0xb8]\n  7004: a2 = a2 << 0x20\n  7007: a2 = a2 >> 0x20\n  7010: a4 = 0x2400000000\n  7020: a4 = a4 | a2\n  7023: a1 = a1 << 0x20\n  7026: a1 = a1 >> 0x20\n  7029: a2 = s1 + 0x7ff\n  7033: a2 = a2 + 0x541\n  7037: a2 = a2 << 0x20\n  7040: a5 = a2 | a1\n  7043: a1 = 0xffffffffffffffff\n  7046: a2 = 0xffffffffffffffff\n  7049: ecalli 1 // 'call'\n  7051: fallthrough\n      : @235 (gas: 1)\n  7052: jump @299 if a0 != 0\n      : @236 (gas: 2)\n  7056: ecalli 13 // 'return_data_size'\n  7058: fallthrough\n      : @237 (gas: 2)\n  7059: a4 = 0x20\n  7062: jump @239 if a0 >=u a4\n      : @238 (gas: 3)\n  7065: ecalli 13 // 'return_data_size'\n  7067: a4 = a0\n  7069: fallthrough\n      : @239 (gas: 18)\n  7070: a2 = u64 [s1 + 0x88]\n  7074: a3 = u64 [s1 + 0x58]\n  7077: a0 = u64 [s1 + 0x50]\n  7080: a1 = u64 [s1 + 0x48]\n  7083: u64 [s1 + 144] = 0\n  7087: u64 [s1 + 0xb8] = a4\n  7091: a5 = s1 + 0x300\n  7095: u64 [a5 + 0xc0] = a4\n  7099: u64 [a5 + 0xe0] = a2\n  7103: u64 [s1 + 968] = 0\n  7107: u64 [a5 + 0xe8] = a1\n  7111: u64 [s1 + 976] = 0\n  7115: u64 [a5 + 0xf0] = a0\n  7119: u64 [s1 + 984] = 0\n  7123: a0 = s1 + 0x3e0\n  7127: a1 = s1 + 0x3c0\n  7131: u64 [a5 + 0xf8] = a3\n  7135: ra = 216, jump @398\n      : @240 [@dyn 108] (gas: 4)\n  7141: a3 = u64 [s1 + 0x90]\n  7145: a0 = a3 >u 0\n  7147: a1 = u64 [s1 + 0xb8]\n  7151: t0 = 218, jump @462\n      : @241 [@dyn 109] (gas: 1)\n  7157: jump @381 if a2 == 0\n      : @242 (gas: 3)\n  7161: a0 = s1 + 0x3a0\n  7165: a1 = u64 [s1 + 0x88]\n  7169: ra = 220, jump @7\n      : @243 [@dyn 110] (gas: 11)\n  7175: a0 = u64 [s1 + 0x3b8]\n  7179: u64 [s1 + 0x90] = a0\n  7183: a0 = u64 [s1 + 0x3b0]\n  7187: u64 [s1 + 0x88] = a0\n  7191: a0 = u64 [s1 + 0x3a8]\n  7195: u64 [s1 + 0x80] = a0\n  7199: a0 = u64 [s1 + 0x3a0]\n  7203: u64 [s1 + 0x78] = a0\n  7206: a0 = s1 + 0x380\n  7210: a1 = 0x40\n  7213: ra = 222, jump @7\n      : @244 [@dyn 111] (gas: 13)\n  7219: a0 = s1 + 0x300\n  7223: a4 = u64 [a0 + 0x98]\n  7227: a5 = u64 [a0 + 0x90]\n  7231: a3 = u64 [a0 + 0x88]\n  7235: a2 = u64 [a0 + 0x80]\n  7239: a0 = a3 | a4\n  7242: a1 = a2 | a5\n  7245: a1 = a1 | a0\n  7248: a1 = a1 >> 0x20\n  7251: a0 = a0 | a5\n  7254: a0 = a0 << 0x20\n  7257: a0 = a0 | a1\n  7260: jump @266 if a0 != 0\n      : @245 (gas: 15)\n  7264: a0 = u64 [s1 + 0x98]\n  7268: u64 [s1 + 0x360] = a0\n  7272: a0 = u64 [s1 + 0xa0]\n  7276: u64 [s1 + 0x368] = a0\n  7280: a0 = u64 [s1 + 0xa8]\n  7284: u64 [s1 + 0x370] = a0\n  7288: a1 = s1 + 0x360\n  7292: a0 = u64 [s1 + 0xb0]\n  7296: u64 [s1 + 0x378] = a0\n  7300: a0 = a2\n  7302: u64 [s1 + 0xb8] = a2\n  7306: u64 [s1 + 0xb0] = a3\n  7310: u64 [s1 + 0xa8] = a4\n  7314: u64 [s1 + 0xa0] = a5\n  7318: ra = 224, jump @9\n      : @246 [@dyn 112] (gas: 1)\n  7324: t0 = 226, jump @470\n      : @247 [@dyn 113] (gas: 1)\n  7330: jump @266 if a1 == 0\n      : @248 (gas: 11)\n  7334: i32 a0 = a2 + 0x20\n  7337: a1 = u64 [s1 + 0x78]\n  7340: u64 [s1 + 0x340] = a1\n  7344: a1 = u64 [s1 + 0x80]\n  7348: u64 [s1 + 0x348] = a1\n  7352: a1 = u64 [s1 + 0x88]\n  7356: u64 [s1 + 0x350] = a1\n  7360: a1 = s1 + 0x340\n  7364: a3 = u64 [s1 + 0x90]\n  7368: u64 [s1 + 0x358] = a3\n  7372: ra = 228, jump @9\n      : @249 [@dyn 114] (gas: 21)\n  7378: u64 [s1 + 792] = 0\n  7382: a0 = u64 [s1 + 0x40]\n  7385: a4 = s1 + 0x300\n  7389: u64 [a4 + 0x10] = a0\n  7392: a0 = u64 [s1 + 0x60]\n  7395: u64 [a4 + 0x8] = a0\n  7398: a0 = u64 [0x20020]\n  7403: a1 = u64 [0x20028]\n  7408: a2 = u64 [0x20030]\n  7413: a3 = u64 [s1 + 0x68]\n  7416: u64 [a4] = a3\n  7418: u64 [a4 + 0x38] = a0\n  7421: u64 [a4 + 0x30] = a1\n  7424: u64 [a4 + 0x28] = a2\n  7427: a0 = u64 [0x20038]\n  7432: a1 = 0x40\n  7435: a2 = s1 + 0x320\n  7439: a3 = s1 + 0x300\n  7443: u64 [a4 + 0x20] = a0\n  7446: a0 = u64 [s1 + 0xb8]\n  7450: ra = 230, jump @13\n      : @250 [@dyn 115] (gas: 3)\n  7456: a0 = 0\n  7458: a1 = 0\n  7460: ra = 232, jump @15\n      : @251 [@dyn 116] (gas: 5)\n  7466: i32 a1 = a0 + 0\n  7468: a0 = 0\n  7470: a2 = 0\n  7472: ecalli 14 // 'seal_return'\n  7474: jump @357\n      : @252 (gas: 10)\n  7477: u64 [a2 + 1024] = 0\n  7481: u64 [a2 + 1016] = 0\n  7485: u64 [a2 + 1008] = 0\n  7489: u64 [a2 + 1000] = 0\n  7493: a0 = s1 + 0x1000\n  7497: i32 a0 = a0 + 0xfffffffffffffc20\n  7501: ra = 0xea\n  7505: ecalli 17 // 'value_transferred'\n  7507: t0 = 0xec\n  7511: jump @475\n      : @253 [@dyn 117] (gas: 1)\n  7514: t0 = 236, jump @475\n      : @254 [@dyn 118] (gas: 8)\n  7520: a0 = u64 [a4 + 0xf8]\n  7524: a1 = u64 [a3 + 0x400]\n  7528: a2 = u64 [a4 + 0xf0]\n  7532: a3 = u64 [a4 + 0xe8]\n  7536: a1 = a1 | a2\n  7539: a0 = a0 | a3\n  7542: a0 = a0 | a1\n  7545: jump @348 if a0 != 0\n      : @255 (gas: 3)\n  7549: a0 = u64 [s1 + 0xb8]\n  7553: a0 = i32 [a0]\n  7555: jump @332 if a0 <=u 35\n      : @256 (gas: 2)\n  7560: a0 = s1 + 0x280\n  7564: ra = 238, jump @392\n      : @257 [@dyn 119] (gas: 11)\n  7570: a3 = s1 + 0x200\n  7574: a0 = u64 [a3 + 0x80]\n  7578: a1 = u64 [a3 + 0x88]\n  7582: a2 = u32 [s1 + 0x290]\n  7586: u64 [s1 + 632] = 0\n  7590: u64 [a3 + 0x70] = a2\n  7593: u64 [a3 + 0x68] = a1\n  7596: a1 = s1 + 0x260\n  7600: u64 [a3 + 0x60] = a0\n  7603: a0 = 0\n  7605: ra = 240, jump @9\n      : @258 [@dyn 120] (gas: 7)\n  7611: u64 [s1 + 600] = 0\n  7615: u64 [s1 + 592] = 0\n  7619: u64 [s1 + 584] = 0\n  7623: a0 = 0x20\n  7626: a1 = s1 + 0x240\n  7630: u64 [s1 + 576] = 0\n  7634: ra = 242, jump @9\n      : @259 [@dyn 121] (gas: 2)\n  7640: a1 = i32 [0x20068]\n  7645: jump @261 if a1 >u 63\n      : @260 (gas: 2)\n  7649: u32 [0x20068] = 0x40\n  7655: fallthrough\n      : @261 (gas: 13)\n  7656: a0 = sp + 0xffffffffffffffe0\n  7659: a2 = a0 & 0xffffffffffffffe0\n  7662: u64 [s1 + 0xb8] = a2\n  7666: sp = a2\n  7668: a0 = 0x20070\n  7673: i32 a0 = a0 + 0\n  7675: i32 a2 = a2 + 0\n  7677: a1 = 0x40\n  7680: ra = 0xf4\n  7684: ecalli 10 // 'hash_keccak_256'\n  7686: a3 = u64 [s1 + 0xb8]\n  7690: t0 = 0xf6\n  7694: jump @468\n      : @262 [@dyn 122] (gas: 2)\n  7697: a3 = u64 [s1 + 0xb8]\n  7701: t0 = 246, jump @468\n      : @263 [@dyn 123] (gas: 9)\n  7707: a5 = a4 + 0x400\n  7711: u64 [a5 + 0x20] = a3\n  7714: u64 [a5 + 0x18] = a2\n  7717: u64 [a5 + 0x10] = a1\n  7720: u64 [a5 + 0x8] = a0\n  7723: a0 = s1 + 0x220\n  7727: a1 = s1 + 0x7ff\n  7731: a1 = a1 + 0x441\n  7735: ra = 248, jump @11\n      : @264 [@dyn 124] (gas: 11)\n  7741: a0 = u64 [s1 + 0x238]\n  7745: u64 [s1 + 0xb8] = a0\n  7749: a0 = u64 [s1 + 0x230]\n  7753: u64 [s1 + 0xb0] = a0\n  7757: a0 = u64 [s1 + 0x228]\n  7761: u64 [s1 + 0xa8] = a0\n  7765: a0 = u64 [s1 + 0x220]\n  7769: u64 [s1 + 0xa0] = a0\n  7773: a0 = s1 + 0x200\n  7777: a1 = 0x40\n  7780: ra = 250, jump @7\n      : @265 [@dyn 125] (gas: 13)\n  7786: a4 = s1 + 0x200\n  7790: a0 = u64 [a4 + 0x18]\n  7793: a1 = u64 [a4 + 0x10]\n  7796: a2 = u64 [a4 + 0x8]\n  7799: a3 = u64 [a4]\n  7801: a0 = a0 | a2\n  7804: a2 = a3 | a1\n  7807: a2 = a2 | a0\n  7810: a2 = a2 >> 0x20\n  7813: a0 = a0 | a1\n  7816: a0 = a0 << 0x20\n  7819: a0 = a0 | a2\n  7822: jump @349 if a0 == 0\n      : @266 (gas: 1)\n  7826: trap\n      : @267 (gas: 3)\n  7827: a0 = s1 + 0x520\n  7831: a1 = 0x40\n  7834: ra = 252, jump @7\n      : @268 [@dyn 126] (gas: 13)\n  7840: a1 = s1 + 0x500\n  7844: a0 = u64 [a1 + 0x38]\n  7847: u64 [s1 + 0xb0] = a0\n  7851: a0 = u64 [a1 + 0x30]\n  7854: u64 [s1 + 0xa8] = a0\n  7858: a0 = u64 [a1 + 0x28]\n  7861: u64 [s1 + 0xa0] = a0\n  7865: a0 = u64 [a1 + 0x20]\n  7868: u64 [s1 + 0xb8] = a0\n  7872: ra = 0xfe\n  7876: ecalli 13 // 'return_data_size'\n  7878: t0 = 0x100\n  7882: jump @463\n      : @269 [@dyn 127] (gas: 1)\n  7885: t0 = 256, jump @463\n      : @270 [@dyn 128] (gas: 1)\n  7891: jump @266 if a1 != 0\n      : @271 (gas: 3)\n  7894: a2 = a0\n  7896: a0 = a0 >> 0x20\n  7899: jump @266 if a0 != 0\n      : @272 (gas: 1)\n  7902: t0 = 258, jump @473\n      : @273 [@dyn 129] (gas: 1)\n  7908: ra = 260, jump @15\n      : @274 [@dyn 130] (gas: 13)\n  7914: a1 = s1 + 0x7ff\n  7918: a1 = a1 + 0x39\n  7921: a2 = u64 [s1 + 0xa8]\n  7925: u32 [a1 + 0x4c8] = a2\n  7929: i32 a0 = a0 + 0\n  7931: a1 = s1 + 0x1000\n  7935: i32 a1 = a1 + 0xfffffffffffffd00\n  7939: a2 = 0\n  7941: ecalli 12 // 'return_data_copy'\n  7943: a0 = s1 + 0x7ff\n  7947: a0 = a0 + 0x39\n  7950: a0 = i32 [a0 + 0x4c8]\n  7954: jump @283\n      : @275 (gas: 4)\n  7957: a0 = s1 + 0x7ff\n  7961: a0 = a0 + 0x141\n  7965: a1 = 0x40\n  7968: ra = 262, jump @7\n      : @276 [@dyn 131] (gas: 15)\n  7974: a0 = s1 + 0x7ff\n  7978: a0 = a0 + 0x39\n  7981: a2 = a0 + 0x100\n  7985: a1 = u64 [a2 + 0x20]\n  7988: u64 [s1 + 0xb0] = a1\n  7992: a1 = u64 [a2 + 0x18]\n  7995: u64 [s1 + 0xa8] = a1\n  7999: a1 = u64 [a2 + 0x10]\n  8002: u64 [s1 + 0xa0] = a1\n  8006: a0 = u64 [a2 + 0x8]\n  8009: u64 [s1 + 0xb8] = a0\n  8013: ra = 0x108\n  8017: ecalli 13 // 'return_data_size'\n  8019: t0 = 0x10a\n  8023: jump @463\n      : @277 [@dyn 132] (gas: 1)\n  8026: t0 = 266, jump @463\n      : @278 [@dyn 133] (gas: 1)\n  8032: jump @266 if a1 != 0\n      : @279 (gas: 3)\n  8036: a2 = a0\n  8038: a0 = a0 >> 0x20\n  8041: jump @266 if a0 != 0\n      : @280 (gas: 1)\n  8045: t0 = 268, jump @473\n      : @281 [@dyn 134] (gas: 1)\n  8051: ra = 270, jump @15\n      : @282 [@dyn 135] (gas: 13)\n  8057: a1 = s1 + 0x7ff\n  8061: a1 = a1 + 0x39\n  8064: a2 = u64 [s1 + 0xa8]\n  8068: u32 [a1 + 0x608] = a2\n  8072: i32 a0 = a0 + 0\n  8074: a1 = s1 + 0x1000\n  8078: i32 a1 = a1 + 0xfffffffffffffe40\n  8082: a2 = 0\n  8084: ecalli 12 // 'return_data_copy'\n  8086: a0 = s1 + 0x7ff\n  8090: a0 = a0 + 0x39\n  8093: a0 = i32 [a0 + 0x608]\n  8097: fallthrough\n      : @283 (gas: 2)\n  8098: a1 = u64 [s1 + 0xb0]\n  8102: jump @266 if a0 <u a1\n      : @284 (gas: 2)\n  8106: ecalli 13 // 'return_data_size'\n  8108: fallthrough\n      : @285 (gas: 3)\n  8109: a1 = a0\n  8111: a0 = a0 >> 0x20\n  8114: jump @266 if a0 != 0\n      : @286 (gas: 3)\n  8118: a0 = u64 [s1 + 0xb8]\n  8122: u64 [s1 + 0xb0] = a1\n  8126: ra = 272, jump @15\n      : @287 [@dyn 136] (gas: 6)\n  8132: i32 a1 = a0 + 0\n  8134: a2 = i32 [s1 + 0xb0]\n  8138: a0 = 0x1\n  8141: ra = 0x15a\n  8145: ecalli 14 // 'seal_return'\n  8147: jump @384\n      : @288 (gas: 6)\n  8150: ecalli 13 // 'return_data_size'\n  8152: u64 [s1 + 0x50] = a0\n  8155: a0 = s1 + 0x7ff\n  8159: a0 = a0 + 0x41\n  8162: a1 = 0x40\n  8165: ra = 274, jump @7\n      : @289 [@dyn 137] (gas: 38)\n  8171: a5 = s1 + 0x7ff\n  8175: a5 = a5 + 0x39\n  8178: t0 = u64 [a5 + 0x20]\n  8181: u64 [s1 + 0x58] = t0\n  8184: t1 = u64 [a5 + 0x18]\n  8187: u64 [s1 + 0x48] = t1\n  8190: t2 = u64 [a5 + 0x10]\n  8193: u64 [s1 + 0x60] = t2\n  8196: ra = u64 [a5 + 0x8]\n  8199: u64 [s1 + 0x88] = ra\n  8203: a1 = u64 [s1 + 0x50]\n  8206: a0 = a1 + 0x1f\n  8209: a1 = a0 <u a1\n  8212: a0 = a0 & 0xffffffffffffffe0\n  8215: a2 = a0 + 0x20\n  8218: a0 = a2 <u a0\n  8221: a3 = a1 + a0\n  8224: a4 = a3 <u a1\n  8227: a4 = a0 if a0 == 0\n  8230: a0 = s1 + 0x1000\n  8234: u64 [a0 + 4294965272] = 0\n  8238: a0 = s1 + 0x1000\n  8242: u64 [a0 + 0xfffffffffffff800] = a2\n  8246: u64 [a5] = t0\n  8248: u64 [a5 + 0xfffffffffffffff8] = t1\n  8251: a0 = s1 + 0x1000\n  8255: u64 [a0 + 0xfffffffffffff828] = t2\n  8259: a0 = s1 + 0x1000\n  8263: u64 [a0 + 0xfffffffffffff820] = ra\n  8267: a0 = s1 + 0x1000\n  8271: u64 [a0 + 0xfffffffffffff808] = a3\n  8275: a0 = s1 + 0x7ff\n  8279: a0 = a0 + 0x21\n  8282: a1 = s1 + 0x7ff\n  8286: a1 = a1 + 0x1\n  8289: a2 = s1 + 0x1000\n  8293: u64 [a2 + 0xfffffffffffff810] = a4\n  8297: ra = 276, jump @398\n      : @290 [@dyn 138] (gas: 12)\n  8303: a0 = u64 [s1 + 0x88]\n  8307: a1 = u64 [s1 + 0x58]\n  8310: a2 = u64 [s1 + 0x60]\n  8313: a2 = a2 | a1\n  8316: a3 = u64 [s1 + 0x48]\n  8319: a1 = a0 | a3\n  8322: a1 = a1 | a2\n  8325: a1 = a1 >> 0x20\n  8328: a2 = a2 | a3\n  8331: a2 = a2 << 0x20\n  8334: a1 = a1 | a2\n  8337: jump @266 if a1 != 0\n      : @291 (gas: 7)\n  8341: u64 [s1 + 2040] = 0\n  8345: u64 [s1 + 2032] = 0\n  8349: u64 [s1 + 2024] = 0\n  8353: a1 = s1 + 0x7e0\n  8357: a2 = u64 [s1 + 0x50]\n  8360: u64 [s1 + 0x7e0] = a2\n  8364: ra = 278, jump @9\n      : @292 [@dyn 139] (gas: 2)\n  8370: ecalli 13 // 'return_data_size'\n  8372: fallthrough\n      : @293 (gas: 10)\n  8373: a3 = u64 [s1 + 0x88]\n  8377: a1 = u64 [s1 + 0x58]\n  8380: a2 = u64 [s1 + 0x48]\n  8383: a1 = a1 | a2\n  8386: a2 = 0xffffffe0\n  8396: a2 = a3 <u a2\n  8399: a4 = u64 [s1 + 0x60]\n  8402: a2 = 0 if a4 != 0\n  8404: a2 = 0 if a1 != 0\n  8406: jump @266 if a2 == 0\n      : @294 (gas: 3)\n  8410: a1 = a0\n  8412: a0 = a0 >> 0x20\n  8415: jump @266 if a0 != 0\n      : @295 (gas: 7)\n  8419: i32 a0 = a3 + 0x20\n  8422: a2 = a1\n  8424: u64 [s1 + 0x60] = a1\n  8427: i32 a1 = a1 + 0\n  8429: u64 [s1 + 0x88] = a1\n  8433: a1 = a2\n  8435: ra = 280, jump @15\n      : @296 [@dyn 140] (gas: 10)\n  8441: a1 = s1 + 0x7ff\n  8445: a1 = a1 + 0x39\n  8448: a2 = u64 [s1 + 0x60]\n  8451: u32 [a1 + 0x688] = a2\n  8455: i32 a0 = a0 + 0\n  8457: a1 = s1 + 0x1000\n  8461: i32 a1 = a1 + 0xfffffffffffffec0\n  8465: a2 = 0\n  8467: ecalli 12 // 'return_data_copy'\n  8469: fallthrough\n      : @297 (gas: 6)\n  8470: a0 = s1 + 0x7ff\n  8474: a0 = a0 + 0x39\n  8477: a0 = i32 [a0 + 0x688]\n  8481: a2 = u64 [s1 + 0x90]\n  8485: a1 = u64 [s1 + 0x88]\n  8489: jump @266 if a0 <u a1\n      : @298 (gas: 1)\n  8493: jump @123\n      : @299 (gas: 3)\n  8496: a0 = s1 + 0x400\n  8500: a1 = 0x40\n  8503: ra = 282, jump @7\n      : @300 [@dyn 141] (gas: 13)\n  8509: a1 = s1 + 0x400\n  8513: a0 = u64 [a1 + 0x18]\n  8516: u64 [s1 + 0xb0] = a0\n  8520: a0 = u64 [a1 + 0x10]\n  8523: u64 [s1 + 0xa8] = a0\n  8527: a0 = u64 [a1 + 0x8]\n  8530: u64 [s1 + 0xa0] = a0\n  8534: a0 = u64 [a1]\n  8536: u64 [s1 + 0xb8] = a0\n  8540: ra = 0x11c\n  8544: ecalli 13 // 'return_data_size'\n  8546: t0 = 0x11e\n  8550: jump @463\n      : @301 [@dyn 142] (gas: 1)\n  8553: t0 = 286, jump @463\n      : @302 [@dyn 143] (gas: 1)\n  8559: jump @266 if a1 != 0\n      : @303 (gas: 3)\n  8563: a2 = a0\n  8565: a0 = a0 >> 0x20\n  8568: jump @266 if a0 != 0\n      : @304 (gas: 1)\n  8572: t0 = 288, jump @473\n      : @305 [@dyn 144] (gas: 1)\n  8578: ra = 290, jump @15\n      : @306 [@dyn 145] (gas: 13)\n  8584: a1 = s1 + 0x7ff\n  8588: a1 = a1 + 0x39\n  8591: a2 = u64 [s1 + 0xa8]\n  8595: u32 [a1 + 0x548] = a2\n  8599: i32 a0 = a0 + 0\n  8601: a1 = s1 + 0x1000\n  8605: i32 a1 = a1 + 0xfffffffffffffd80\n  8609: a2 = 0\n  8611: ecalli 12 // 'return_data_copy'\n  8613: a0 = s1 + 0x7ff\n  8617: a0 = a0 + 0x39\n  8620: a0 = i32 [a0 + 0x548]\n  8624: jump @283\n      : @307 (gas: 3)\n  8627: a0 = s1 + 0x740\n  8631: a1 = 0x40\n  8634: ra = 292, jump @7\n      : @308 [@dyn 146] (gas: 13)\n  8640: a1 = s1 + 0x700\n  8644: a0 = u64 [a1 + 0x58]\n  8647: u64 [s1 + 0xb0] = a0\n  8651: a0 = u64 [a1 + 0x50]\n  8654: u64 [s1 + 0xa8] = a0\n  8658: a0 = u64 [a1 + 0x48]\n  8661: u64 [s1 + 0xa0] = a0\n  8665: a0 = u64 [a1 + 0x40]\n  8668: u64 [s1 + 0xb8] = a0\n  8672: ra = 0x126\n  8676: ecalli 13 // 'return_data_size'\n  8678: t0 = 0x128\n  8682: jump @463\n      : @309 [@dyn 147] (gas: 1)\n  8685: t0 = 296, jump @463\n      : @310 [@dyn 148] (gas: 1)\n  8691: jump @266 if a1 != 0\n      : @311 (gas: 3)\n  8695: a2 = a0\n  8697: a0 = a0 >> 0x20\n  8700: jump @266 if a0 != 0\n      : @312 (gas: 1)\n  8704: t0 = 298, jump @473\n      : @313 [@dyn 149] (gas: 1)\n  8710: ra = 300, jump @15\n      : @314 [@dyn 150] (gas: 13)\n  8716: a1 = s1 + 0x7ff\n  8720: a1 = a1 + 0x39\n  8723: a2 = u64 [s1 + 0xa8]\n  8727: u32 [a1 + 0x708] = a2\n  8731: i32 a0 = a0 + 0\n  8733: a1 = s1 + 0x1000\n  8737: i32 a1 = a1 + 0xffffffffffffff40\n  8741: a2 = 0\n  8743: ecalli 12 // 'return_data_copy'\n  8745: a0 = s1 + 0x7ff\n  8749: a0 = a0 + 0x39\n  8752: a0 = i32 [a0 + 0x708]\n  8756: jump @283\n      : @315 (gas: 3)\n  8759: a0 = 0\n  8761: a1 = 0\n  8763: ra = 302, jump @15\n      : @316 [@dyn 151] (gas: 5)\n  8769: i32 a1 = a0 + 0\n  8771: a0 = 0x1\n  8774: a2 = 0\n  8776: ecalli 14 // 'seal_return'\n  8778: jump @357\n      : @317 (gas: 12)\n  8781: a2 = s1 + 0x7ff\n  8785: a2 = a2 + 0x39\n  8788: u64 [a2 + 408] = 0\n  8792: u64 [a2 + 400] = 0\n  8796: a0 = 0xc39fa00400000000\n  8806: u64 [a2 + 0x1a0] = a0\n  8810: a1 = s1 + 0x7ff\n  8814: a1 = a1 + 0x1c1\n  8818: u64 [a2 + 392] = 0\n  8822: a0 = 0\n  8824: ra = 0x130\n  8828: jump @9\n      : @318 (gas: 9)\n  8831: u64 [s1 + 1520] = 0\n  8835: u64 [s1 + 1512] = 0\n  8839: u64 [s1 + 1504] = 0\n  8843: a0 = 0x2c5211c600000000\n  8853: a1 = s1 + 0x5e0\n  8857: u64 [s1 + 0x5f8] = a0\n  8861: a0 = 0\n  8863: ra = 0x130\n  8867: jump @9\n      : @319 (gas: 11)\n  8870: a2 = s1 + 0x7ff\n  8874: a2 = a2 + 0x39\n  8877: u64 [a2 + 664] = 0\n  8881: u64 [a2 + 656] = 0\n  8885: a0 = 0xc39fa00400000000\n  8895: u64 [a2 + 0x2a0] = a0\n  8899: a1 = s1 + 0x7ff\n  8903: a1 = a1 + 0x2c1\n  8907: u64 [a2 + 648] = 0\n  8911: a0 = 0\n  8913: ra = 304, jump @9\n      : @320 [@dyn 152] (gas: 3)\n  8919: a1 = 0x4\n  8922: a0 = 0\n  8924: ra = 306, jump @15\n      : @321 [@dyn 153] (gas: 2)\n  8930: i32 a1 = a0 + 0\n  8932: jump @346\n      : @322 (gas: 3)\n  8935: a1 = 0x20070\n  8940: i32 a1 = a1 + 0\n  8942: jump @356\n      : @323 (gas: 3)\n  8945: a1 = 0x20070\n  8950: i32 a1 = a1 + 0\n  8952: jump @356\n      : @324 (gas: 1)\n  8955: jump @353 if a0 != 1302766934\n      : @325 (gas: 12)\n  8963: a0 = s1 + 0x7ff\n  8967: a0 = a0 + 0x39\n  8970: u64 [a0 + 896] = 0\n  8974: u64 [a0 + 888] = 0\n  8978: u64 [a0 + 880] = 0\n  8982: u64 [a0 + 872] = 0\n  8986: a0 = s1 + 0x1000\n  8990: i32 a0 = a0 + 0xfffffffffffffba0\n  8994: ra = 0x134\n  8998: ecalli 17 // 'value_transferred'\n  9000: t0 = 0x136\n  9004: jump @475\n      : @326 [@dyn 154] (gas: 1)\n  9007: t0 = 310, jump @475\n      : @327 [@dyn 155] (gas: 1)\n  9013: t0 = 312, jump @474\n      : @328 [@dyn 156] (gas: 1)\n  9019: jump @360 if a0 == 0\n      : @329 (gas: 3)\n  9023: a1 = 0x20070\n  9028: i32 a1 = a1 + 0\n  9030: jump @356\n      : @330 (gas: 3)\n  9033: a1 = 0x20070\n  9038: i32 a1 = a1 + 0\n  9040: jump @356\n      : @331 (gas: 3)\n  9043: a1 = 0x20070\n  9048: i32 a1 = a1 + 0\n  9050: jump @356\n      : @332 (gas: 3)\n  9053: a1 = 0x20070\n  9058: i32 a1 = a1 + 0\n  9060: jump @356\n      : @333 (gas: 3)\n  9063: a1 = 0x20070\n  9068: i32 a1 = a1 + 0\n  9070: jump @356\n      : @334 (gas: 8)\n  9073: u64 [s1 + 1456] = 0\n  9077: u64 [s1 + 1448] = 0\n  9081: u64 [s1 + 1440] = 0\n  9085: a0 = 0xc39fa00400000000\n  9095: a1 = s1 + 0x5a0\n  9099: u64 [s1 + 0x5b8] = a0\n  9103: a0 = 0\n  9105: ra = 314, jump @9\n      : @335 [@dyn 157] (gas: 2)\n  9111: a1 = i32 [0x20068]\n  9116: jump @337 if a1 >u 31\n      : @336 (gas: 4)\n  9120: u32 [0x20068] = 0x20\n  9126: a1 = 0x20070\n  9131: i32 a1 = a1 + 0\n  9133: jump @346\n      : @337 (gas: 3)\n  9136: a1 = 0x20070\n  9141: i32 a1 = a1 + 0\n  9143: jump @346\n      : @338 (gas: 8)\n  9146: u64 [s1 + 1424] = 0\n  9150: u64 [s1 + 1416] = 0\n  9154: u64 [s1 + 1408] = 0\n  9158: a0 = 0x2c5211c600000000\n  9168: a1 = s1 + 0x580\n  9172: u64 [s1 + 0x598] = a0\n  9176: a0 = 0\n  9178: ra = 316, jump @9\n      : @339 [@dyn 158] (gas: 2)\n  9184: a1 = i32 [0x20068]\n  9189: jump @341 if a1 >u 31\n      : @340 (gas: 4)\n  9193: u32 [0x20068] = 0x20\n  9199: a1 = 0x20070\n  9204: i32 a1 = a1 + 0\n  9206: jump @346\n      : @341 (gas: 3)\n  9208: a1 = 0x20070\n  9213: i32 a1 = a1 + 0\n  9215: jump @346\n      : @342 (gas: 8)\n  9217: u64 [s1 + 688] = 0\n  9221: u64 [s1 + 680] = 0\n  9225: u64 [s1 + 672] = 0\n  9229: a0 = 0x2c5211c600000000\n  9239: a1 = s1 + 0x2a0\n  9243: u64 [s1 + 0x2b8] = a0\n  9247: a0 = 0\n  9249: ra = 318, jump @9\n      : @343 [@dyn 159] (gas: 2)\n  9255: a1 = i32 [0x20068]\n  9260: jump @345 if a1 >u 31\n      : @344 (gas: 4)\n  9264: u32 [0x20068] = 0x20\n  9270: a1 = 0x20070\n  9275: i32 a1 = a1 + 0\n  9277: jump @346\n      : @345 (gas: 3)\n  9279: a1 = 0x20070\n  9284: i32 a1 = a1 + 0\n  9286: fallthrough\n      : @346 (gas: 6)\n  9287: a0 = 0x1\n  9290: a2 = 0x4\n  9293: ecalli 14 // 'seal_return'\n  9295: a1 = 0x20070\n  9300: i32 a1 = a1 + 0\n  9302: jump @356\n      : @347 (gas: 3)\n  9304: a1 = 0x20070\n  9309: i32 a1 = a1 + 0\n  9311: jump @356\n      : @348 (gas: 3)\n  9313: a1 = 0x20070\n  9318: i32 a1 = a1 + 0\n  9320: jump @356\n      : @349 (gas: 13)\n  9322: a0 = u64 [s1 + 0xa0]\n  9326: a2 = s1 + 0x100\n  9330: u64 [a2 + 0xe0] = a0\n  9334: a0 = u64 [s1 + 0xa8]\n  9338: u64 [a2 + 0xe8] = a0\n  9342: a0 = u64 [s1 + 0xb0]\n  9346: u64 [a2 + 0xf0] = a0\n  9350: a1 = s1 + 0x1e0\n  9354: a0 = u64 [s1 + 0xb8]\n  9358: u64 [a2 + 0xf8] = a0\n  9362: a0 = a3\n  9364: u64 [s1 + 0xb8] = a3\n  9368: ra = 320, jump @9\n      : @350 [@dyn 160] (gas: 3)\n  9374: a1 = 0x20\n  9377: a0 = u64 [s1 + 0xb8]\n  9381: ra = 322, jump @15\n      : @351 [@dyn 161] (gas: 2)\n  9387: i32 a1 = a0 + 0\n  9389: fallthrough\n      : @352 (gas: 6)\n  9390: a2 = 0x20\n  9393: a0 = 0\n  9395: ecalli 14 // 'seal_return'\n  9397: a0 = u64 [s1 + 0xb8]\n  9401: a0 = i32 [a0]\n  9403: jump @354\n      : @353 (gas: 3)\n  9405: a0 = u64 [s1 + 0xb8]\n  9409: a0 = i32 [a0]\n  9411: fallthrough\n      : @354 (gas: 1)\n  9412: jump @357 if a0 == 0\n      : @355 (gas: 3)\n  9415: a1 = 0x20070\n  9420: i32 a1 = a1 + 0\n  9422: fallthrough\n      : @356 (gas: 4)\n  9423: a0 = 0x1\n  9426: a2 = 0\n  9428: ecalli 14 // 'seal_return'\n  9430: fallthrough\n      : @357 (gas: 6)\n  9431: a1 = 0x20070\n  9436: i32 a1 = a1 + 0\n  9438: a0 = 0\n  9440: a2 = 0\n  9442: ecalli 14 // 'seal_return'\n  9444: jump @357\n      : @358 (gas: 8)\n  9446: u64 [s1 + 752] = 0\n  9450: u64 [s1 + 744] = 0\n  9454: u64 [s1 + 736] = 0\n  9458: a0 = 0x4e487b7100000000\n  9468: a1 = s1 + 0x2e0\n  9472: u64 [s1 + 0x2f8] = a0\n  9476: a0 = 0\n  9478: ra = 324, jump @9\n      : @359 [@dyn 162] (gas: 8)\n  9484: u64 [s1 + 728] = 0\n  9488: u64 [s1 + 720] = 0\n  9492: u64 [s1 + 704] = 0x11\n  9497: a0 = 0x4\n  9500: a1 = s1 + 0x2c0\n  9504: u64 [s1 + 712] = 0\n  9508: ra = 0x148\n  9512: jump @9\n      : @360 (gas: 3)\n  9515: a0 = u64 [s1 + 0xb8]\n  9519: a0 = i32 [a0]\n  9521: jump @368 if a0 >u 35\n      : @361 (gas: 6)\n  9526: a1 = 0x20070\n  9531: i32 a1 = a1 + 0\n  9533: a0 = 0x1\n  9536: a2 = 0\n  9538: ecalli 14 // 'seal_return'\n  9540: jump @357\n      : @362 (gas: 3)\n  9542: a1 = 0x20070\n  9547: i32 a1 = a1 + 0\n  9549: jump @383\n      : @363 (gas: 12)\n  9552: a2 = s1 + 0x7ff\n  9556: a2 = a2 + 0x39\n  9559: u64 [a2 + 152] = 0\n  9563: u64 [a2 + 144] = 0\n  9567: a0 = 0xbb1205c200000000\n  9577: u64 [a2 + 0xa0] = a0\n  9581: a1 = s1 + 0x7ff\n  9585: a1 = a1 + 0xc1\n  9589: u64 [a2 + 136] = 0\n  9593: a0 = 0\n  9595: ra = 0x130\n  9599: jump @9\n      : @364 (gas: 8)\n  9602: u64 [s1 + 1584] = 0\n  9606: u64 [s1 + 1576] = 0\n  9610: u64 [s1 + 1568] = 0\n  9614: a0 = 0x4e487b7100000000\n  9624: a1 = s1 + 0x620\n  9628: u64 [s1 + 0x638] = a0\n  9632: a0 = 0\n  9634: ra = 326, jump @9\n      : @365 [@dyn 163] (gas: 7)\n  9640: u64 [s1 + 1560] = 0\n  9644: u64 [s1 + 1552] = 0\n  9648: u64 [s1 + 1536] = 0x11\n  9653: a0 = 0x4\n  9656: a1 = s1 + 0x600\n  9660: u64 [s1 + 1544] = 0\n  9664: ra = 328, jump @9\n      : @366 [@dyn 164] (gas: 3)\n  9670: a1 = 0x24\n  9673: a0 = 0\n  9675: ra = 330, jump @15\n      : @367 [@dyn 165] (gas: 7)\n  9681: i32 a1 = a0 + 0\n  9683: a0 = 0x1\n  9686: a2 = 0x24\n  9689: ecalli 14 // 'seal_return'\n  9691: a0 = s1 + 0x140\n  9695: ra = 0x14c\n  9699: jump @392\n      : @368 (gas: 2)\n  9702: a0 = s1 + 0x140\n  9706: ra = 332, jump @392\n      : @369 [@dyn 166] (gas: 11)\n  9712: a3 = s1 + 0x100\n  9716: a0 = u64 [a3 + 0x40]\n  9719: a1 = u64 [a3 + 0x48]\n  9722: a2 = u32 [s1 + 0x150]\n  9726: u64 [s1 + 312] = 0\n  9730: u64 [a3 + 0x30] = a2\n  9733: u64 [a3 + 0x28] = a1\n  9736: a1 = s1 + 0x120\n  9740: u64 [a3 + 0x20] = a0\n  9743: a0 = 0\n  9745: ra = 334, jump @9\n      : @370 [@dyn 167] (gas: 7)\n  9751: u64 [s1 + 280] = 0\n  9755: u64 [s1 + 272] = 0\n  9759: u64 [s1 + 264] = 0\n  9763: a0 = 0x20\n  9766: a1 = s1 + 0x100\n  9770: u64 [s1 + 256] = 0\n  9774: ra = 336, jump @9\n      : @371 [@dyn 168] (gas: 4)\n  9780: a0 = 0x20068\n  9785: u64 [s1 + 0xb8] = a0\n  9789: a0 = i32 [0x20068]\n  9794: jump @373 if a0 >u 63\n      : @372 (gas: 3)\n  9798: a1 = u64 [s1 + 0xb8]\n  9802: u32 [a1 + 0] = 0x40\n  9805: fallthrough\n      : @373 (gas: 14)\n  9806: a0 = sp + 0xffffffffffffffe0\n  9809: a2 = a0 & 0xffffffffffffffe0\n  9812: u64 [s1 + 0xa8] = a2\n  9816: sp = a2\n  9818: a0 = 0x20070\n  9823: u64 [s1 + 0xb0] = a0\n  9827: i32 a0 = a0 + 0\n  9829: i32 a2 = a2 + 0\n  9831: a1 = 0x40\n  9834: ra = 0x152\n  9838: ecalli 10 // 'hash_keccak_256'\n  9840: a3 = u64 [s1 + 0xa8]\n  9844: t0 = 0x154\n  9848: jump @468\n      : @374 [@dyn 169] (gas: 2)\n  9851: a3 = u64 [s1 + 0xa8]\n  9855: t0 = 340, jump @468\n      : @375 [@dyn 170] (gas: 9)\n  9861: a5 = a4 + 0x300\n  9865: u64 [a5 + 0xa0] = a3\n  9869: u64 [a5 + 0x98] = a2\n  9873: u64 [a5 + 0x90] = a1\n  9877: u64 [a5 + 0x88] = a0\n  9881: a0 = s1 + 0xe0\n  9885: a1 = s1 + 0x7ff\n  9889: a1 = a1 + 0x3c1\n  9893: ra = 342, jump @11\n      : @376 [@dyn 171] (gas: 11)\n  9899: a2 = u64 [s1 + 0xe0]\n  9903: a0 = u64 [s1 + 0xe8]\n  9907: a1 = u64 [s1 + 0xf0]\n  9911: a3 = u64 [s1 + 0xf8]\n  9915: u64 [s1 + 0xd8] = a3\n  9919: u64 [s1 + 0xd0] = a1\n  9923: u64 [s1 + 0xc8] = a0\n  9927: a0 = 0x80\n  9931: a1 = s1 + 0xc0\n  9935: u64 [s1 + 0xc0] = a2\n  9939: ra = 344, jump @9\n      : @377 [@dyn 172] (gas: 3)\n  9945: a0 = u64 [s1 + 0xb8]\n  9949: a0 = i32 [a0]\n  9951: jump @379 if a0 >u 159\n      : @378 (gas: 5)\n  9956: a1 = u64 [s1 + 0xb8]\n  9960: u32 [a1 + 0] = 0xa0\n  9964: a0 = u64 [s1 + 0xb0]\n  9968: i32 a1 = a0 + 0x80\n  9972: jump @352\n      : @379 (gas: 3)\n  9975: a0 = u64 [s1 + 0xb0]\n  9979: i32 a1 = a0 + 0x80\n  9983: jump @352\n      : @380 (gas: 9)\n  9986: u64 [s1 + 2000] = 0\n  9990: u64 [s1 + 1992] = 0\n  9994: u64 [s1 + 1984] = 0\n  9998: a0 = 0xbb1205c200000000\n 10008: a1 = s1 + 0x7c0\n 10012: u64 [s1 + 0x7d8] = a0\n 10016: a0 = 0\n 10018: ra = 0x130\n 10022: jump @9\n      : @381 (gas: 3)\n 10025: a1 = 0x20070\n 10030: i32 a1 = a1 + 0\n 10032: jump @383\n      : @382 (gas: 3)\n 10034: a1 = 0x20070\n 10039: i32 a1 = a1 + 0\n 10041: fallthrough\n      : @383 (gas: 4)\n 10042: a0 = 0x1\n 10045: ra = 0x15a\n 10049: ecalli 14 // 'seal_return'\n 10051: fallthrough\n      : @384 [@dyn 173] (gas: 18)\n 10052: sp = sp + 0xffffffffffffffc0\n 10055: u64 [sp + 0x38] = ra\n 10058: u64 [sp + 0x30] = s0\n 10061: u64 [sp + 0x28] = s1\n 10064: s0 = sp + 0x40\n 10067: sp = sp & 0xfffffffffffffff0\n 10070: a2 = u64 [a1 + 0x10]\n 10073: a3 = u64 [a1 + 0x18]\n 10076: a4 = u64 [a1 + 0x8]\n 10079: a1 = u64 [a1]\n 10081: a3 = a3 | a4\n 10084: a4 = a1 | a2\n 10087: a4 = a4 | a3\n 10090: a4 = a4 >> 0x20\n 10093: a2 = a2 | a3\n 10096: a2 = a2 << 0x20\n 10099: a2 = a2 | a4\n 10102: jump @390 if a2 != 0\n      : @385 (gas: 3)\n 10105: s1 = a0\n 10107: a0 = sp\n 10109: ra = 348, jump @7\n      : @386 [@dyn 174] (gas: 1)\n 10115: t0 = 350, jump @469\n      : @387 [@dyn 175] (gas: 1)\n 10121: jump @391 if a3 == 0\n      : @388 (gas: 1)\n 10124: t0 = 352, jump @471\n      : @389 [@dyn 176] (gas: 1)\n 10130: ret\n      : @390 (gas: 1)\n 10132: trap\n      : @391 (gas: 7)\n 10133: a1 = 0x20070\n 10138: i32 a1 = a1 + 0\n 10140: a0 = 0x1\n 10143: a2 = 0\n 10145: ra = 0x162\n 10149: ecalli 14 // 'seal_return'\n 10151: fallthrough\n      : @392 [@dyn 177] (gas: 13)\n 10152: sp = sp + 0xffffffffffffffc0\n 10155: u64 [sp + 0x38] = ra\n 10158: u64 [sp + 0x30] = s0\n 10161: u64 [sp + 0x28] = s1\n 10164: s0 = sp + 0x40\n 10167: sp = sp & 0xffffffffffffffe0\n 10170: s1 = a0\n 10172: i32 a0 = sp + 0\n 10174: a1 = 0x4\n 10177: ra = 0x164\n 10181: ecalli 3 // 'call_data_load'\n 10183: t0 = 0x166\n 10187: jump @469\n      : @393 [@dyn 178] (gas: 1)\n 10190: t0 = 358, jump @469\n      : @394 [@dyn 179] (gas: 1)\n 10196: jump @397 if a3 == 0\n      : @395 (gas: 1)\n 10199: t0 = 360, jump @471\n      : @396 [@dyn 180] (gas: 1)\n 10205: ret\n      : @397 (gas: 7)\n 10207: a1 = 0x20070\n 10212: i32 a1 = a1 + 0\n 10214: a0 = 0x1\n 10217: a2 = 0\n 10219: ra = 0x16a\n 10223: ecalli 14 // 'seal_return'\n 10225: fallthrough\n      : @398 [@dyn 181] (gas: 46)\n 10226: sp = sp + 0xffffffffffffff70\n 10230: u64 [sp + 0x88] = ra\n 10234: u64 [sp + 0x80] = s0\n 10238: u64 [sp + 0x78] = s1\n 10241: s0 = sp + 0x90\n 10245: sp = sp & 0xfffffffffffffff0\n 10248: t0 = a0\n 10250: a2 = u64 [a1]\n 10252: t2 = u64 [a0 + 0x8]\n 10255: a5 = u64 [a1 + 0x8]\n 10258: t1 = u64 [a0]\n 10260: a3 = a2 + 0x1f\n 10263: ra = a3 <u a2\n 10266: a2 = a5 + ra\n 10269: a3 = a3 & 0xffffffffffffffe0\n 10272: u64 [sp + 0x8] = t1\n 10275: t1 = t1 + a3\n 10278: a4 = t1 <u a3\n 10281: a3 = a2 + t2\n 10284: a3 = a3 + a4\n 10287: s1 = a3 ^ a2\n 10290: a0 = a3 <u a2\n 10293: a0 = a4 if s1 == 0\n 10296: a4 = u64 [t0 + 0x18]\n 10299: a5 = a2 <u a5\n 10302: s1 = u64 [a1 + 0x10]\n 10305: t0 = u64 [t0 + 0x10]\n 10308: a1 = u64 [a1 + 0x18]\n 10311: a5 = ra if ra == 0\n 10314: a5 = a5 + s1\n 10317: s1 = a5 <u s1\n 10320: a2 = a5 + t0\n 10323: a0 = a0 + a2\n 10326: a5 = a2 <u a5\n 10329: a2 = a0 <u a2\n 10332: a1 = a1 + a4\n 10335: a1 = a1 + s1\n 10338: a1 = a1 + a5\n 10341: a5 = a1 + a2\n 10344: a1 = a5 >u 0\n 10346: a2 = a0 >u 0\n 10348: a2 = a1 if a5 != 0\n 10351: a1 = a0 | a5\n 10354: s1 = a3 >u 0\n 10356: s1 = a2 if a1 != 0\n 10359: jump @402 if s1 != 0\n      : @399 (gas: 13)\n 10362: a1 = u64 [sp + 0x8]\n 10365: a1 = t1 <u a1\n 10368: a2 = a3 ^ t2\n 10371: s1 = a3 <u t2\n 10374: s1 = a1 if a2 == 0\n 10377: a1 = a0 <u t0\n 10380: a2 = a5 ^ a4\n 10383: a4 = a5 <u a4\n 10386: a4 = a1 if a2 == 0\n 10389: a1 = a0 ^ t0\n 10392: a1 = a1 | a2\n 10395: a4 = s1 if a1 == 0\n 10398: jump @402 if a4 != 0\n      : @400 (gas: 7)\n 10401: u64 [sp + 0x50] = t1\n 10404: u64 [sp + 0x58] = a3\n 10407: u64 [sp + 0x60] = a0\n 10410: a0 = 0x40\n 10413: a1 = sp + 0x50\n 10416: u64 [sp + 0x68] = a5\n 10419: ra = 364, jump @9\n      : @401 [@dyn 182] (gas: 6)\n 10425: sp = s0 + 0xffffffffffffff70\n 10429: ra = u64 [sp + 0x88]\n 10433: s0 = u64 [sp + 0x80]\n 10437: s1 = u64 [sp + 0x78]\n 10440: sp = sp + 0x90\n 10444: ret\n      : @402 (gas: 8)\n 10446: u64 [sp + 64] = 0\n 10449: u64 [sp + 56] = 0\n 10452: u64 [sp + 48] = 0\n 10455: a0 = 0x4e487b7100000000\n 10465: a1 = sp + 0x30\n 10468: u64 [sp + 0x48] = a0\n 10471: a0 = 0\n 10473: ra = 366, jump @9\n      : @403 [@dyn 183] (gas: 7)\n 10479: u64 [sp + 40] = 0\n 10482: u64 [sp + 32] = 0\n 10485: u64 [sp + 16] = 0x41\n 10489: a0 = 0x4\n 10492: a1 = sp + 0x10\n 10495: u64 [sp + 24] = 0\n 10498: ra = 368, jump @9\n      : @404 [@dyn 184] (gas: 2)\n 10504: a1 = i32 [0x20068]\n 10509: jump @406 if a1 >u 63\n      : @405 (gas: 2)\n 10513: u32 [0x20068] = 0x40\n 10519: fallthrough\n      : @406 (gas: 7)\n 10520: a1 = 0x20070\n 10525: i32 a1 = a1 + 0\n 10527: a0 = 0x1\n 10530: a2 = 0x24\n 10533: ra = 0x172\n 10537: ecalli 14 // 'seal_return'\n 10539: fallthrough\n      : @407 [@dyn 185] (gas: 17)\n 10540: sp = sp + 0xfffffffffffffba0\n 10544: a2 = sp + 0x400\n 10548: u64 [a2 + 0x58] = ra\n 10551: u64 [a2 + 0x50] = s0\n 10554: u64 [a2 + 0x48] = s1\n 10557: s0 = sp + 0x460\n 10561: sp = sp & 0xffffffffffffffe0\n 10564: a2 = u64 [a1 + 0x10]\n 10567: u64 [sp + 0x28] = a2\n 10570: a2 = u64 [a1 + 0x8]\n 10573: u64 [sp + 0x20] = a2\n 10576: a1 = u64 [a1]\n 10578: u64 [sp + 0x18] = a1\n 10581: u64 [sp + 0x48] = a0\n 10584: a0 = sp + 0x3c0\n 10588: a1 = 0x40\n 10591: ra = 372, jump @7\n      : @408 [@dyn 186] (gas: 19)\n 10597: a4 = sp + 0x300\n 10601: a0 = u64 [a4 + 0xd8]\n 10605: u64 [sp + 0xe8] = a0\n 10609: s1 = u64 [a4 + 0xd0]\n 10613: a1 = u64 [a4 + 0xc8]\n 10617: u64 [sp + 0xe0] = a1\n 10621: a2 = u64 [a4 + 0xc0]\n 10625: u64 [sp + 0xf0] = a2\n 10629: u64 [a4 + 152] = 0\n 10633: u64 [a4 + 144] = 0\n 10637: u64 [a4 + 136] = 0\n 10641: u64 [a4 + 128] = 0x40\n 10646: u64 [a4 + 0xb8] = a0\n 10650: u64 [a4 + 0xb0] = s1\n 10654: u64 [a4 + 0xa8] = a1\n 10658: a0 = sp + 0x3a0\n 10662: a1 = sp + 0x380\n 10666: u64 [a4 + 0xa0] = a2\n 10670: ra = 374, jump @398\n      : @409 [@dyn 187] (gas: 12)\n 10676: a0 = u64 [sp + 0xf0]\n 10680: a2 = u64 [sp + 0xe8]\n 10684: a1 = u64 [sp + 0xe0]\n 10688: a2 = a2 | a1\n 10691: a1 = a0 | s1\n 10694: a1 = a1 | a2\n 10697: a1 = a1 >> 0x20\n 10700: u64 [sp + 0xc8] = s1\n 10704: a2 = a2 | s1\n 10707: a2 = a2 << 0x20\n 10710: a1 = a1 | a2\n 10713: jump @453 if a1 != 0\n      : @410 (gas: 8)\n 10717: a2 = sp + 0x300\n 10721: u64 [a2 + 120] = 0\n 10724: u64 [a2 + 112] = 0\n 10727: u64 [a2 + 104] = 0\n 10730: s1 = 0x1\n 10733: a1 = sp + 0x360\n 10737: u64 [a2 + 0x60] = s1\n 10740: ra = 376, jump @9\n      : @411 [@dyn 188] (gas: 11)\n 10746: a2 = u64 [sp + 0xf0]\n 10750: a1 = u64 [sp + 0xe8]\n 10754: a0 = u64 [sp + 0xc8]\n 10758: a0 = a0 | a1\n 10761: s1 = s1 << 0x20\n 10764: s1 = s1 + 0xffffffffffffffe0\n 10767: a1 = a2 <u s1\n 10770: a3 = u64 [sp + 0xe0]\n 10774: a1 = 0 if a3 != 0\n 10776: a1 = 0 if a0 != 0\n 10778: jump @453 if a1 == 0\n      : @412 (gas: 7)\n 10782: a0 = i32 [0x20064]\n 10787: u64 [sp + 0xd8] = a0\n 10791: a0 = a2 + 0x20\n 10794: a1 = 0x20\n 10797: u64 [sp + 0xf8] = a0\n 10801: s1 = a2\n 10803: ra = 378, jump @15\n      : @413 [@dyn 189] (gas: 7)\n 10809: i32 a0 = a0 + 0\n 10811: a1 = 0x20\n 10814: a2 = u64 [sp + 0xd8]\n 10818: ecalli 2 // 'call_data_copy'\n 10820: a0 = sp + 0x340\n 10824: a1 = s1\n 10826: ra = 380, jump @7\n      : @414 [@dyn 190] (gas: 9)\n 10832: a4 = sp + 0x300\n 10836: a0 = u64 [a4 + 0x50]\n 10839: a1 = u64 [a4 + 0x58]\n 10842: a2 = u64 [a4 + 0x48]\n 10845: a3 = u64 [a4 + 0x40]\n 10848: a1 = a1 | a2\n 10851: a0 = a0 | a3\n 10854: a0 = a0 | a1\n 10857: jump @454 if a0 == 0\n      : @415 (gas: 1)\n 10861: ra = 382, jump @0\n      : @416 [@dyn 191] (gas: 12)\n 10867: s1 = 0x30090\n 10872: a0 = u64 [0x30090]\n 10877: a1 = u64 [0x30098]\n 10882: a2 = u32 [0x300a0]\n 10887: a3 = sp + 0x300\n 10891: u64 [a3 + 56] = 0\n 10894: u64 [a3 + 0x30] = a2\n 10897: u64 [a3 + 0x28] = a1\n 10900: a1 = sp + 0x320\n 10904: u64 [a3 + 0x20] = a0\n 10907: a0 = u64 [sp + 0xf8]\n 10911: ra = 384, jump @9\n      : @417 [@dyn 192] (gas: 1)\n 10917: ra = 386, jump @0\n      : @418 [@dyn 193] (gas: 25)\n 10923: a0 = u64 [s1 + 0x28]\n 10926: a1 = u64 [s1 + 0x30]\n 10929: a2 = u64 [s1 + 0x20]\n 10932: a0 = reverse a0\n 10934: a3 = a0 << 0x20\n 10937: a1 = reverse a1\n 10939: a1 = a1 >> 0x20\n 10942: a4 = a1 | a3\n 10945: a0 = a0 >> 0x20\n 10948: a1 = reverse a2\n 10950: a3 = 0x30070\n 10955: a2 = a1 << 0x20\n 10958: a0 = a0 | a2\n 10961: a1 = a1 >> 0x20\n 10964: u64 [sp + 0x38] = a1\n 10967: u32 [0x30080] = a1\n 10972: u64 [sp + 0x30] = a0\n 10975: u64 [0x30078] = a0\n 10980: u64 [sp + 0x40] = a4\n 10983: u64 [0x30070] = a4\n 10988: u64 [sp + 0x50] = a3\n 10991: i32 a0 = a3 + 0\n 10993: u64 [sp + 0xd0] = a0\n 10997: ecalli 6 // 'code_size'\n 10999: fallthrough\n      : @419 (gas: 1)\n 11000: jump @459 if a0 == 0\n      : @420 (gas: 3)\n 11004: a0 = sp + 0x300\n 11008: a1 = 0x40\n 11011: ra = 388, jump @7\n      : @421 [@dyn 194] (gas: 15)\n 11017: a3 = sp + 0x300\n 11021: a2 = u64 [a3 + 0x18]\n 11024: s1 = u64 [a3 + 0x10]\n 11027: a1 = u64 [a3 + 0x8]\n 11030: a0 = u64 [a3]\n 11032: u64 [sp + 0x60] = a1\n 11035: u64 [sp + 0x58] = a2\n 11038: a2 = a2 | a1\n 11041: a1 = a0 | s1\n 11044: a1 = a1 | a2\n 11047: a1 = a1 >> 0x20\n 11050: a2 = a2 | s1\n 11053: a2 = a2 << 0x20\n 11056: a1 = a1 | a2\n 11059: jump @453 if a1 != 0\n      : @422 (gas: 9)\n 11063: a3 = sp + 0x200\n 11067: u64 [a3 + 240] = 0\n 11071: u64 [a3 + 232] = 0\n 11075: u64 [a3 + 224] = 0\n 11079: a2 = 0x744532ae00000000\n 11089: a1 = sp + 0x2e0\n 11093: u64 [a3 + 0xf8] = a2\n 11097: u64 [sp + 0x68] = a0\n 11100: ra = 390, jump @9\n      : @423 [@dyn 195] (gas: 12)\n 11106: a1 = u64 [sp + 0x68]\n 11109: u64 [sp + 0x98] = s1\n 11113: a3 = u64 [sp + 0x58]\n 11116: a3 = a3 | s1\n 11119: s1 = 0x100000000\n 11129: a0 = 0xfffffffc\n 11139: a0 = a1 <u a0\n 11142: a2 = u64 [sp + 0x60]\n 11145: a0 = 0 if a2 != 0\n 11147: u64 [sp + 0xd8] = a3\n 11151: a0 = 0 if a3 != 0\n 11153: jump @453 if a0 == 0\n      : @424 (gas: 8)\n 11157: i32 a0 = a1 + 0x4\n 11160: a2 = sp + 0x200\n 11164: u64 [a2 + 216] = 0\n 11168: u64 [a2 + 208] = 0\n 11172: u64 [a2 + 200] = 0\n 11176: a1 = sp + 0x2c0\n 11180: u64 [a2 + 192] = 0\n 11184: ra = 392, jump @9\n      : @425 [@dyn 196] (gas: 4)\n 11190: a0 = u64 [sp + 0xd0]\n 11194: ra = 0x18a\n 11198: ecalli 0 // 'address'\n 11199: fallthrough\n      : @426 [@dyn 197] (gas: 8)\n 11200: a4 = u64 [sp + 0x68]\n 11203: a0 = s1 + 0xffffffffffffffdc\n 11206: a0 = a4 <u a0\n 11209: a1 = u64 [sp + 0x60]\n 11212: a0 = 0 if a1 != 0\n 11214: a1 = u64 [sp + 0xd8]\n 11218: a0 = 0 if a1 != 0\n 11220: jump @453 if a0 == 0\n      : @427 (gas: 4)\n 11224: a2 = u64 [sp + 0x50]\n 11227: a0 = u64 [a2 + 0x8]\n 11230: a1 = i32 [a2 + 0x10]\n 11233: t0 = 396, jump @467\n      : @428 [@dyn 198] (gas: 8)\n 11239: i32 a0 = a4 + 0x24\n 11242: a4 = sp + 0x200\n 11246: u64 [a4 + 184] = 0\n 11250: u64 [a4 + 0xb0] = a1\n 11254: u64 [a4 + 0xa8] = a2\n 11258: a1 = sp + 0x2a0\n 11262: u64 [a4 + 0xa0] = a3\n 11266: ra = 398, jump @9\n      : @429 [@dyn 199] (gas: 10)\n 11272: a1 = u64 [sp + 0x68]\n 11275: s1 = 0x100000000\n 11285: u64 [sp + 0xd0] = s1\n 11289: a0 = 0xffffffbc\n 11299: a0 = a1 <u a0\n 11302: a2 = u64 [sp + 0x60]\n 11305: a0 = 0 if a2 != 0\n 11307: a2 = u64 [sp + 0xd8]\n 11311: a0 = 0 if a2 != 0\n 11313: jump @453 if a0 == 0\n      : @430 (gas: 8)\n 11317: i32 a0 = a1 + 0x44\n 11320: a2 = sp + 0x200\n 11324: u64 [a2 + 152] = 0\n 11328: u64 [a2 + 144] = 0\n 11332: u64 [a2 + 128] = 0x60\n 11337: a1 = sp + 0x280\n 11341: u64 [a2 + 136] = 0\n 11345: ra = 400, jump @9\n      : @431 [@dyn 200] (gas: 4)\n 11351: a0 = sp + 0x260\n 11355: s1 = u64 [sp + 0xf0]\n 11359: a1 = s1\n 11361: ra = 402, jump @7\n      : @432 [@dyn 201] (gas: 9)\n 11367: a2 = u64 [sp + 0x68]\n 11370: a0 = u64 [sp + 0xd0]\n 11374: a0 = a0 + 0xffffffffffffff9c\n 11377: a0 = a2 <u a0\n 11380: a1 = u64 [sp + 0x60]\n 11383: a0 = 0 if a1 != 0\n 11385: a3 = u64 [sp + 0xd8]\n 11389: a0 = 0 if a3 != 0\n 11391: jump @453 if a0 == 0\n      : @433 (gas: 31)\n 11395: a0 = u64 [sp + 0xf8]\n 11399: a0 = a0 <u s1\n 11402: a1 = u64 [sp + 0xe0]\n 11406: a3 = a1 + a0\n 11409: u64 [sp + 0xd0] = a3\n 11413: a1 = a3 <u a1\n 11416: a1 = a0 if a0 == 0\n 11419: a0 = u64 [sp + 0xc8]\n 11423: s1 = a0 + a1\n 11426: a0 = s1 <u a0\n 11429: a1 = u64 [sp + 0xe8]\n 11433: a0 = a0 + a1\n 11436: u64 [sp + 0xd8] = a0\n 11440: a3 = u64 [sp + 0x278]\n 11444: a1 = u64 [sp + 0x270]\n 11448: a4 = u64 [sp + 0x268]\n 11452: a5 = u64 [sp + 0x260]\n 11456: a0 = 0xffffffff\n 11466: u64 [sp + 0x70] = a0\n 11469: i32 a0 = a2 + 0x64\n 11472: u64 [sp + 0x78] = a5\n 11475: a2 = sp + 0x200\n 11479: u64 [a2 + 0x40] = a5\n 11482: u64 [sp + 0x80] = a4\n 11486: u64 [a2 + 0x48] = a4\n 11489: u64 [sp + 0x88] = a1\n 11493: u64 [a2 + 0x50] = a1\n 11496: a1 = sp + 0x240\n 11500: u64 [sp + 0x90] = a3\n 11504: u64 [a2 + 0x58] = a3\n 11507: ra = 404, jump @9\n      : @434 [@dyn 202] (gas: 23)\n 11513: a4 = s1\n 11515: ra = u64 [sp + 0xd0]\n 11519: a5 = 0\n 11521: a3 = 0\n 11523: t0 = 0\n 11525: t1 = 0\n 11527: a1 = u64 [sp + 0x68]\n 11530: a0 = a1 + 0x84\n 11534: u64 [sp + 0xf0] = a0\n 11538: a0 = a0 <u a1\n 11541: s1 = u64 [sp + 0x60]\n 11544: a1 = s1 + a0\n 11547: u64 [sp + 0xe0] = a1\n 11551: s1 = a1 <u s1\n 11554: s1 = a0 if a0 == 0\n 11557: t2 = u64 [sp + 0x98]\n 11561: s1 = s1 + t2\n 11564: u64 [sp + 0xc8] = s1\n 11568: a0 = s1 <u t2\n 11571: a1 = u64 [sp + 0x58]\n 11574: a0 = a0 + a1\n 11577: u64 [sp + 0xe8] = a0\n 11581: fallthrough\n      : @435 (gas: 18)\n 11582: a0 = u64 [sp + 0x78]\n 11585: a0 = a5 <u a0\n 11588: a2 = u64 [sp + 0x80]\n 11592: a1 = a3 ^ a2\n 11595: u64 [sp + 0xc0] = a3\n 11599: a2 = a3 <u a2\n 11602: a2 = a0 if a1 == 0\n 11605: s1 = u64 [sp + 0x88]\n 11609: a0 = t0 <u s1\n 11612: a3 = u64 [sp + 0x90]\n 11616: a1 = t1 ^ a3\n 11619: u64 [sp + 0xb8] = t1\n 11623: a3 = t1 <u a3\n 11626: a3 = a0 if a1 == 0\n 11629: a0 = t0 ^ s1\n 11632: a0 = a0 | a1\n 11635: a3 = a2 if a0 == 0\n 11638: jump @441 if a3 == 0\n      : @436 (gas: 14)\n 11642: u64 [sp + 0xa0] = t0\n 11646: u64 [sp + 0xa8] = a5\n 11650: a2 = u64 [sp + 0xf8]\n 11654: a0 = a2 | a4\n 11657: u64 [sp + 0xd0] = ra\n 11661: a1 = u64 [sp + 0xd8]\n 11665: a1 = ra | a1\n 11668: a0 = a0 | a1\n 11671: a0 = a0 >> 0x20\n 11674: u64 [sp + 0xb0] = a4\n 11678: a1 = a1 | a4\n 11681: a1 = a1 << 0x20\n 11684: a0 = a0 | a1\n 11687: jump @453 if a0 != 0\n      : @437 (gas: 4)\n 11691: a0 = sp + 0x160\n 11695: u64 [sp + 0xf8] = a2\n 11699: a1 = a2\n 11701: ra = 406, jump @7\n      : @438 [@dyn 203] (gas: 12)\n 11707: a0 = u64 [sp + 0xf0]\n 11711: s1 = u64 [sp + 0xc8]\n 11715: a2 = a0 | s1\n 11718: a1 = u64 [sp + 0xe8]\n 11722: a3 = u64 [sp + 0xe0]\n 11726: a1 = a1 | a3\n 11729: a2 = a2 | a1\n 11732: a2 = a2 >> 0x20\n 11735: a1 = a1 | s1\n 11738: a1 = a1 << 0x20\n 11741: a1 = a1 | a2\n 11744: jump @453 if a1 != 0\n      : @439 (gas: 14)\n 11748: a4 = u64 [sp + 0x170]\n 11752: a1 = u64 [sp + 0x168]\n 11756: a2 = u64 [sp + 0x160]\n 11760: a3 = u64 [sp + 0x70]\n 11763: a4 = a4 & a3\n 11766: a1 = a1 & 0xffffffffffffffff\n 11769: a2 = a2 & 0xffffffffffffffff\n 11772: u64 [sp + 344] = 0\n 11776: u64 [sp + 0x140] = a2\n 11780: u64 [sp + 0x148] = a1\n 11784: a1 = sp + 0x140\n 11788: u64 [sp + 0x150] = a4\n 11792: u64 [sp + 0xf0] = a0\n 11796: ra = 408, jump @9\n      : @440 [@dyn 204] (gas: 45)\n 11802: a0 = u64 [sp + 0xf0]\n 11806: t0 = a0 + 0x20\n 11809: a2 = t0 <u a0\n 11812: a0 = u64 [sp + 0xe0]\n 11816: t2 = a0 + a2\n 11819: a3 = t2 <u a0\n 11822: a3 = a2 if a2 == 0\n 11825: ra = s1 + a3\n 11828: a2 = ra <u s1\n 11831: a0 = u64 [sp + 0xe8]\n 11835: a0 = a0 + a2\n 11838: u64 [sp + 0xe8] = a0\n 11842: a0 = u64 [sp + 0xf8]\n 11846: a2 = a0 + 0x20\n 11849: a4 = a2 <u a0\n 11852: a0 = u64 [sp + 0xd0]\n 11856: a1 = a0 + a4\n 11859: s1 = a1 <u a0\n 11862: s1 = a4 if a4 == 0\n 11865: a0 = u64 [sp + 0xb0]\n 11869: a4 = a0 + s1\n 11872: s1 = a4 <u a0\n 11875: a0 = u64 [sp + 0xd8]\n 11879: a0 = a0 + s1\n 11882: u64 [sp + 0xd8] = a0\n 11886: a5 = u64 [sp + 0xa8]\n 11890: a5 = a5 + 0x1\n 11893: s1 = a5 <u 0x1\n 11896: a3 = u64 [sp + 0xc0]\n 11900: a3 = a3 + s1\n 11903: s1 = a5 | a3\n 11906: s1 = s1 <u 0x1\n 11909: a0 = u64 [sp + 0xa0]\n 11913: s1 = s1 + a0\n 11916: a0 = s1 <u a0\n 11919: t1 = u64 [sp + 0xb8]\n 11923: t1 = t1 + a0\n 11926: u64 [sp + 0xf0] = t0\n 11930: u64 [sp + 0xe0] = t2\n 11934: u64 [sp + 0xc8] = ra\n 11938: u64 [sp + 0xf8] = a2\n 11942: ra = a1\n 11944: t0 = s1\n 11946: t2 = u64 [sp + 0x98]\n 11950: jump @435\n      : @441 (gas: 26)\n 11953: a0 = u64 [sp + 0x68]\n 11956: t0 = u64 [sp + 0xf0]\n 11960: t1 = t0 <u a0\n 11963: s1 = u64 [sp + 0x60]\n 11966: a1 = u64 [sp + 0xe0]\n 11970: a3 = a1 ^ s1\n 11973: a2 = a1 <u s1\n 11976: a2 = t1 if a3 == 0\n 11979: a3 = u64 [sp + 0xc8]\n 11983: a5 = a3 - t2\n 11986: t2 = a3 <u t2\n 11989: a4 = u64 [sp + 0xe8]\n 11993: a3 = u64 [sp + 0x58]\n 11996: a4 = a4 - a3\n 11999: a4 = a4 - t2\n 12002: a3 = a5 <u a2\n 12005: a4 = a4 - a3\n 12008: u64 [sp + 0xf8] = a4\n 12012: a5 = a5 - a2\n 12015: u64 [sp + 0xe8] = a5\n 12019: a1 = a1 - s1\n 12022: a1 = a1 - t1\n 12025: u64 [sp + 0xe0] = a1\n 12029: s1 = t0 - a0\n 12032: ecalli 11 // 'ref_time_left'\n 12034: fallthrough\n      : @442 (gas: 25)\n 12035: u64 [sp + 0xf0] = a0\n 12039: a1 = u64 [sp + 0x50]\n 12042: a0 = u64 [sp + 0x30]\n 12045: u64 [a1 + 0x8] = a0\n 12048: a0 = u64 [sp + 0x40]\n 12051: u64 [a1] = a0\n 12053: a0 = u64 [sp + 0x38]\n 12056: u32 [a1 + 0x10] = a0\n 12059: a4 = sp + 0x300\n 12063: u64 [a4 + 248] = 0\n 12067: a5 = 0\n 12069: u64 [a4 + 240] = 0\n 12073: u64 [a4 + 232] = 0\n 12077: a2 = u64 [sp + 0xe8]\n 12081: a0 = s1 | a2\n 12084: a1 = u64 [sp + 0xf8]\n 12088: a3 = u64 [sp + 0xe0]\n 12092: a1 = a1 | a3\n 12095: a0 = a0 | a1\n 12098: a0 = a0 >> 0x20\n 12101: a1 = a1 | a2\n 12104: a1 = a1 << 0x20\n 12107: a0 = a0 | a1\n 12110: u64 [a4 + 224] = 0\n 12114: jump @453 if a0 != 0\n      : @443 (gas: 7)\n 12118: i32 a0 = s1 + 0\n 12120: u64 [sp + 0xe8] = a0\n 12124: a1 = s1\n 12126: u64 [sp + 0xd8] = s1\n 12130: s1 = u64 [sp + 0x68]\n 12133: a0 = s1\n 12135: ra = 410, jump @15\n      : @444 [@dyn 205] (gas: 4)\n 12141: u64 [sp + 0xf8] = a0\n 12145: a0 = s1\n 12147: a1 = 0\n 12149: ra = 412, jump @15\n      : @445 [@dyn 206] (gas: 39)\n 12155: a4 = sp + 0x400\n 12159: u32 [a4 + 0] = 0\n 12161: a1 = u64 [sp + 0xe8]\n 12165: a1 = a1 >u 0\n 12167: a3 = u64 [sp + 0xf0]\n 12171: a2 = a3 >u 0x8fc\n 12175: a1 = a1 | a2\n 12178: a2 = -a1\n 12180: u64 [a4 + 0x38] = a2\n 12183: u64 [a4 + 0x30] = a2\n 12186: u64 [a4 + 0x28] = a2\n 12189: u64 [a4 + 0x20] = a2\n 12192: a2 = u64 [sp + 0x50]\n 12195: a2 = a2 << 0x20\n 12198: a2 = a2 >> 0x20\n 12201: a1 = a1 << 0x23\n 12204: t0 = a1 | a2\n 12207: a1 = sp + 0x3e0\n 12211: a1 = a1 << 0x20\n 12214: a1 = a1 >> 0x20\n 12217: a2 = sp + 0x420\n 12221: a2 = a2 << 0x20\n 12224: a3 = a2 | a1\n 12227: a1 = u64 [sp + 0xf8]\n 12231: a1 = a1 << 0x20\n 12234: a1 = a1 >> 0x20\n 12237: a4 = u64 [sp + 0xd8]\n 12241: a4 = a4 << 0x20\n 12244: a4 = a4 | a1\n 12247: a0 = a0 << 0x20\n 12250: a0 = a0 >> 0x20\n 12253: a1 = sp + 0x400\n 12257: a1 = a1 << 0x20\n 12260: a5 = a1 | a0\n 12263: a1 = 0xffffffffffffffff\n 12266: a2 = 0xffffffffffffffff\n 12269: a0 = t0\n 12271: ecalli 1 // 'call'\n 12273: fallthrough\n      : @446 (gas: 1)\n 12274: jump @452 if a0 != 0\n      : @447 (gas: 16)\n 12278: a3 = sp + 0x200\n 12282: u64 [a3 + 24] = 0\n 12285: u64 [a3 + 16] = 0\n 12288: u64 [a3 + 8] = 0\n 12291: u64 [a3 + 0] = 0\n 12293: a0 = u64 [sp + 0x68]\n 12296: u64 [a3 + 0x20] = a0\n 12299: a0 = u64 [sp + 0x60]\n 12302: u64 [a3 + 0x28] = a0\n 12305: a0 = u64 [sp + 0x98]\n 12309: u64 [a3 + 0x30] = a0\n 12312: a0 = sp + 0x220\n 12316: a1 = sp + 0x200\n 12320: a2 = u64 [sp + 0x58]\n 12323: u64 [a3 + 0x38] = a2\n 12326: ra = 414, jump @398\n      : @448 [@dyn 207] (gas: 3)\n 12332: a0 = sp + 0x1e0\n 12336: a1 = 0x40\n 12339: ra = 416, jump @7\n      : @449 [@dyn 208] (gas: 12)\n 12345: a0 = u64 [sp + 0x1f8]\n 12349: a1 = u64 [sp + 0x1f0]\n 12353: a2 = u64 [sp + 0x1e8]\n 12357: s1 = u64 [sp + 0x1e0]\n 12361: a0 = a0 | a2\n 12364: a2 = s1 | a1\n 12367: a2 = a2 | a0\n 12370: a2 = a2 >> 0x20\n 12373: a0 = a0 | a1\n 12376: a0 = a0 << 0x20\n 12379: a0 = a0 | a2\n 12382: jump @453 if a0 != 0\n      : @450 (gas: 7)\n 12386: u64 [sp + 472] = 0\n 12390: u64 [sp + 464] = 0\n 12394: u64 [sp + 456] = 0\n 12398: a1 = sp + 0x1c0\n 12402: u64 [sp + 448] = 0\n 12406: a0 = s1\n 12408: ra = 418, jump @9\n      : @451 [@dyn 209] (gas: 24)\n 12414: a0 = u64 [sp + 0x18]\n 12417: a0 = a0 & 0xffffffffffffffff\n 12420: a1 = u64 [sp + 0x20]\n 12423: a1 = a1 & 0xffffffffffffffff\n 12426: a2 = u64 [sp + 0x28]\n 12429: a3 = u64 [sp + 0x70]\n 12432: a2 = a2 & a3\n 12435: u64 [sp + 408] = 0\n 12439: u64 [sp + 0x190] = a2\n 12443: u64 [sp + 0x188] = a1\n 12447: a1 = u64 [0x20040]\n 12452: a2 = u64 [0x20048]\n 12457: a3 = u64 [0x20050]\n 12462: u64 [sp + 0x180] = a0\n 12466: u64 [sp + 0x1b8] = a1\n 12470: u64 [sp + 0x1b0] = a2\n 12474: u64 [sp + 0x1a8] = a3\n 12478: a0 = u64 [0x20058]\n 12483: a1 = 0x20\n 12486: a2 = sp + 0x1a0\n 12490: a3 = sp + 0x180\n 12494: u64 [sp + 0x1a0] = a0\n 12498: a0 = s1\n 12500: ra = 420, jump @13\n      : @452 [@dyn 210] (gas: 13)\n 12506: a0 = u64 [sp + 0x48]\n 12509: a1 = 0\n 12511: u64 [a0 + 24] = 0\n 12514: u64 [a0 + 16] = 0\n 12517: u64 [a0 + 8] = 0\n 12520: u64 [a0 + 0] = 0\n 12522: sp = s0 + 0xfffffffffffffba0\n 12526: a0 = sp + 0x400\n 12530: ra = u64 [a0 + 0x58]\n 12533: s0 = u64 [a0 + 0x50]\n 12536: s1 = u64 [a0 + 0x48]\n 12539: sp = sp + 0x460\n 12543: ret\n      : @453 (gas: 1)\n 12545: trap\n      : @454 (gas: 8)\n 12546: u64 [sp + 304] = 0\n 12550: u64 [sp + 296] = 0\n 12554: u64 [sp + 288] = 0\n 12558: a0 = 0x4e487b7100000000\n 12568: a1 = sp + 0x120\n 12572: u64 [sp + 0x138] = a0\n 12576: a0 = 0\n 12578: ra = 422, jump @9\n      : @455 [@dyn 211] (gas: 7)\n 12584: u64 [sp + 280] = 0\n 12588: u64 [sp + 272] = 0\n 12592: u64 [sp + 256] = 0x32\n 12597: a0 = 0x4\n 12600: a1 = sp + 0x100\n 12604: u64 [sp + 264] = 0\n 12608: ra = 424, jump @9\n      : @456 [@dyn 212] (gas: 2)\n 12614: a1 = i32 [0x20068]\n 12619: jump @458 if a1 >u 63\n      : @457 (gas: 2)\n 12623: u32 [0x20068] = 0x40\n 12629: fallthrough\n      : @458 (gas: 6)\n 12630: a1 = 0x20070\n 12635: i32 a1 = a1 + 0\n 12637: a0 = 0x1\n 12640: a2 = 0x24\n 12643: ecalli 14 // 'seal_return'\n 12645: fallthrough\n      : @459 (gas: 8)\n 12646: a1 = 0x20070\n 12651: i32 a1 = a1 + 0\n 12653: a0 = 0x1\n 12656: a2 = 0\n 12658: ecalli 14 // 'seal_return'\n 12660: a0 = 0\n 12662: ra = 0x1aa\n 12666: jump @21\n      : @460 [export #0: 'call'] (gas: 2)\n 12669: a0 = 0\n 12671: ra = 426, jump @21\n      : @461 [@dyn 213] [export #1: 'deploy'] (gas: 2)\n 12677: a0 = 0x1\n 12680: ra = 428, jump @21\n      : @462 [@dyn 214] (gas: 9)\n 12686: a1 = a1 <u 0x20\n 12689: a1 = a1 ^ 0x1\n 12692: a1 = a0 if a3 != 0\n 12695: a0 = a3 >u 0\n 12697: a2 = a3 >u 0\n 12699: a2 = a0 if a3 == 0\n 12702: a0 = a3 | a3\n 12705: a2 = a1 if a0 == 0\n 12708: jump [t0]\n      : @463 (gas: 12)\n 12710: a1 = u64 [s1 + 0xb0]\n 12714: a2 = u64 [s1 + 0xa0]\n 12718: a1 = a1 | a2\n 12721: a3 = u64 [s1 + 0xa8]\n 12725: a2 = u64 [s1 + 0xb8]\n 12729: a2 = a2 | a3\n 12732: a2 = a2 | a1\n 12735: a2 = a2 >> 0x20\n 12738: a1 = a1 | a3\n 12741: a1 = a1 << 0x20\n 12744: a1 = a1 | a2\n 12747: jump [t0]\n      : @464 (gas: 16)\n 12749: a2 = u64 [s1 + 0xb8]\n 12753: a0 = u64 [a2 + 0x8]\n 12756: a1 = i32 [a2 + 0x10]\n 12759: a2 = u64 [a2]\n 12761: a0 = reverse a0\n 12763: a3 = a0 << 0x20\n 12766: a1 = reverse a1\n 12768: a1 = a1 >> 0x20\n 12771: a3 = a3 | a1\n 12774: a0 = a0 >> 0x20\n 12777: a1 = reverse a2\n 12779: a2 = a1 << 0x20\n 12782: a2 = a2 | a0\n 12785: a1 = a1 >> 0x20\n 12788: i32 a0 = a4 + 0x4\n 12791: jump [t0]\n      : @465 (gas: 13)\n 12793: a0 = u64 [s1 + 0xb8]\n 12797: a1 = u64 [s1 + 0xa0]\n 12801: a0 = a0 | a1\n 12804: a1 = u64 [s1 + 0xa8]\n 12808: a3 = a1\n 12810: a2 = u64 [s1 + 0xb0]\n 12814: a1 = a1 | a2\n 12817: a1 = a1 | a0\n 12820: a1 = a1 >> 0x20\n 12823: a0 = a0 | a2\n 12826: a0 = a0 << 0x20\n 12829: a0 = a0 | a1\n 12832: jump [t0]\n      : @466 (gas: 14)\n 12834: a0 = u64 [a2 + 0x8]\n 12837: a1 = u64 [a2]\n 12839: a2 = i32 [a2 + 0x10]\n 12842: a0 = reverse a0\n 12844: a3 = a0 >> 0x20\n 12847: a1 = reverse a1\n 12849: a4 = a1 << 0x20\n 12852: a3 = a3 | a4\n 12855: a0 = a0 << 0x20\n 12858: a2 = reverse a2\n 12860: a2 = a2 >> 0x20\n 12863: a0 = a0 | a2\n 12866: a1 = a1 >> 0x20\n 12869: jump [t0]\n      : @467 (gas: 12)\n 12871: a2 = u64 [a2]\n 12873: a0 = reverse a0\n 12875: a3 = a0 << 0x20\n 12878: a1 = reverse a1\n 12880: a1 = a1 >> 0x20\n 12883: a3 = a3 | a1\n 12886: a0 = a0 >> 0x20\n 12889: a1 = reverse a2\n 12891: a2 = a1 << 0x20\n 12894: a2 = a2 | a0\n 12897: a1 = a1 >> 0x20\n 12900: jump [t0]\n      : @468 (gas: 11)\n 12902: a0 = u64 [a3 + 0x18]\n 12905: a1 = u64 [a3 + 0x10]\n 12908: a2 = u64 [a3 + 0x8]\n 12911: a3 = u64 [a3]\n 12913: a0 = reverse a0\n 12915: a1 = reverse a1\n 12917: a2 = reverse a2\n 12919: a3 = reverse a3\n 12921: a4 = s1 + 0x7ff\n 12925: a4 = a4 + 0x39\n 12928: jump [t0]\n      : @469 (gas: 10)\n 12930: a0 = u64 [sp + 0x10]\n 12933: a1 = u64 [sp + 0x18]\n 12936: a2 = 0x100000000\n 12946: a2 = a2 ^ a0\n 12949: a2 = a2 | a1\n 12952: a3 = a0 >> 0x20\n 12955: a3 = a3 <u 0x1\n 12958: a3 = 0 if a1 != 0\n 12960: a3 = 0 if a2 == 0\n 12962: jump [t0]\n      : @470 (gas: 10)\n 12964: a2 = u64 [s1 + 0xb8]\n 12968: a0 = u64 [s1 + 0xa8]\n 12972: a1 = u64 [s1 + 0xa0]\n 12976: a0 = a0 | a1\n 12979: a1 = 0xffffffe0\n 12989: a1 = a2 <u a1\n 12992: a3 = u64 [s1 + 0xb0]\n 12996: a1 = 0 if a3 != 0\n 12998: a1 = 0 if a0 != 0\n 13000: jump [t0]\n      : @471 (gas: 12)\n 13002: a2 = u64 [sp]\n 13004: a3 = u64 [sp + 0x8]\n 13007: u64 [s1] = a2\n 13009: u64 [s1 + 0x8] = a3\n 13012: u64 [s1 + 0x10] = a0\n 13015: u64 [s1 + 0x18] = a1\n 13018: sp = s0 + 0xffffffffffffffc0\n 13021: ra = u64 [sp + 0x38]\n 13024: s0 = u64 [sp + 0x30]\n 13027: s1 = u64 [sp + 0x28]\n 13030: sp = sp + 0x40\n 13033: jump [t0]\n      : @472 (gas: 9)\n 13035: a0 = u64 [a3 + 0x18]\n 13038: a1 = u64 [a3 + 0x10]\n 13041: a2 = u64 [a3 + 0x8]\n 13044: a3 = u64 [a3]\n 13046: a0 = reverse a0\n 13048: a4 = reverse a1\n 13050: a2 = reverse a2\n 13052: a3 = reverse a3\n 13054: jump [t0]\n      : @473 (gas: 6)\n 13056: i32 a0 = a2 + 0\n 13058: u64 [s1 + 0xb0] = a0\n 13062: a0 = u64 [s1 + 0xb8]\n 13066: a1 = a2\n 13068: u64 [s1 + 0xa8] = a2\n 13072: jump [t0]\n      : @474 (gas: 8)\n 13074: a0 = u64 [a4 + 0x78]\n 13077: a1 = u64 [a4 + 0x80]\n 13081: a2 = u64 [a4 + 0x70]\n 13084: a3 = u64 [a4 + 0x68]\n 13087: a1 = a1 | a2\n 13090: a0 = a0 | a3\n 13093: a0 = a0 | a1\n 13096: jump [t0]\n      : @475 (gas: 4)\n 13098: a3 = s1 + 0x7ff\n 13102: a3 = a3 + 0x39\n 13105: a4 = a3 + 0x300\n 13109: jump [t0]\n",
        "bytecode": {
          "object": "50564d0000113d000000000000010700c1f000c00080036460332e067e72c47ff1f58e5982c2f2109581cf68deb3ac4f4eb7b254143ef2c2c3ab5178ddc6491492f41577f537bf0a2f65c27c1419050190eea6182c2038bcf42b8ea3decd30fcadb6d39e3f7dead6d83b96f41964177ffe73ee4a7a0618136000000004812c1200000000070000000b0000001900000027000000350000003b0000004400000051000000630000006e0000007d0000008a0000009a000000aa000000b5000000c7000000d20000006164647265737363616c6c63616c6c5f646174615f636f707963616c6c5f646174615f6c6f616463616c6c5f646174615f73697a6563616c6c6572636f64655f73697a656465706f7369745f6576656e746765745f696d6d757461626c655f646174616765745f73746f72616765686173685f6b656363616b5f3235367265665f74696d655f6c65667472657475726e5f646174615f636f707972657475726e5f646174615f73697a657365616c5f72657475726e7365745f696d6d757461626c655f646174617365745f73746f7261676576616c75655f7472616e73666572726564051102b17d0463616c6cb185066465706c6f7906bb4f80d602b3376a00b201b40364046904ea04f50422055d059805da0503062906350681069606cf06fa06210736078007a5070708170837084708be08ce08ee084b09f3091a0a810aec0a4c0b5c0b4a0c580c6f0cca0ced0c030d250d2e0d490df20d3d0e4a0ee10e410f490f740f8e0fc80fd80fa510b410c710f2105a115f118e1138126912a012aa1208131913c713f813fe13621468149d14c714cd142e153415691593159915c915ec153f1681168b16201730175e17b81705181418e0180e192b19421964196d1986190a1a171a711a7b1aa61ac11afd1a0e1be51bf51b071c331c9c1ca21cd21c201d2a1d5a1d601d921dbb1dd81d111e1b1e3d1e6a1ea01ecd1ed31ee41eea1e261f5a1f601f731f791fc41feb1f6f20b220f9203d2169216f2182218821c021ed21f32106220c224122d722e2222f2335233b239723e02327249e24ab240c25a825c625d125f025172634267b268526ab26d9264427832789279227a827ce27d427dd27f227b928ef2808292c296529b429fa29392a502a732aa52aab2a092b622bb62bc02be72b082c572c672cf92cbb2d1a2e6d2f7b2f2c3039307e30da302831463185318e319511e87b10107b15087b163306600002390560000251051c3307900003837783680a080139076000022003600002ac5710821010821508821695111832000039086000025108d406330790000383770a0f28c7069511f07b10087b15648964753308206497501002b0037c78017c797c7a027c7b03978808d4980897aa1097bb18d4ba0ad4a8087c79057c7a047c7b067c7c07979908d4a90997bb1097cc18d4cb0bd4b909979920d489027c79097c7a087c7b0a7c7c0b979908d4a90997bb1097cc18d4cb0bd4b9097c7a0d7c7b0c7c7c0e7c780f97aa08d4ba0a97cc10978818d4c808d4a808978820d498037c78117c7a107c7b127c7c13978808d4a80897bb1097cc18d4cb0bd4b8087c7a157c7b147c7c167c791797aa08d4ba0a97cc10979918d4c909d4a909979920d4890a7c78197c79187c7b1a7c7c1b978808d4980897bb1097cc18d4cb0bd4b8087c791d7c7b1c7c7c1e7c771f979908d4b90997cc10977718d4c707d49707977720d487076f776fa86f396f2a7b5a187b59107b58087b57821008821595111032009511d87b10207b15187b161082897b19088289087b1982851082861833082050100468026f686f59821a6faa821b086fbb787b18787a10787908787898bc38787c1f98bc30787c1e98bc28787c1d98bc20787c1c98bc18787c1b98bc10787c1a98bb08787b1998ab38787b1798ab30787b1698ab28787b1598ab20787b1498ab18787b1398ab10787b1298aa08787a11989a38787a0f989a30787a0e989a28787a0d989a20787a0c989a18787a0b989a10787a0a98990878790998893878790798893078790698892878790598892078790498891878790398891078790298880878780182102082151882161095112832009511a07b10587b15507b16489515608411e06476828718828910828a0882886f776f996faa6f887b18187b1a107b19087b17491138491130491128491120481140208318831a20831b403309ff33070a09821738821830821928821a206f776f886f996faa7b6a187b69107b68087b679551a082105882155082164895116032009511a07b10587b15509515608411e08272827a08827b108277188283828908828c108288186f746fbb6faa6f276f826fcc6f996f387b17187b1a107b1b087b147b18387b19307b1c287b12208318831a203309ff330b2033070a109551a08210588215509511603200951160ff7b1098007b1590007b1688009515a0008411e082ab7b1b3882ab087b1b3082ab107b1b2882aa187b1a20829a7b1a18829a087b1a10829a107b1a088299187b1964865010066582186f888219086f99821a106faa821b186fbb7b1b587b1a507b19487b18408218206f888219286f99821a306faa821b386fbb7b1b787b1a707b19687b18608379836a8317403308020a07955160ff8210980082159000821688009511a00032008b7910520931c8780883881f8488e05638000001253309680002390a680002ae8a093d086800020133087000028377c887073200009511f07b10087b158475010a04013d076400025105075010080950100ad2029511a0fd951700027b70587b75507b7648951560028411e095170002491738491730491728491720831720020a1101951b000282b73082b83882b92882ba20d49808d4a707d487075207ad01390664000297672098772095771f8477e09578e000d87807951900027b987b970894777b97103307409518000249191850100ca9fc3307e000646850100e25ff8377646833090a020154165f6d014921d8014921d0014921c001e0009517e0019518c0014921c80150101027228217e0017b17588217e8017b17488217f0017b17408217f8017b173049219801492190014921800100019517a0019518800149218801501012ec218217a0017b17508217a8017b17288217b0017b17208217b8017b17184921580149215001492140012001951760019518400149214801501014b121821760017b1738821768017b1710821770017b1708821678018217307b1738018217407b1730018217487b17280133078000951820018219587b192001501016b9fb8217187b1718018217207b1710018217287b1708013307a000951800018219507b19000150101890fb7b16f8008217087b17f0008217107b17e8003307c0009518e0008219387b19e00050101a6afb9517c00033084050101c24fa8217d8008218d0008219c8008216c000d49707d48609d47909989920d48707977720d4970751071e003308700002838833070128c6003308700002838833070128b9006467330850101e99fd8377330833090a029517a00033088000501020c3f98217b800330b9000037b1b588218b0008219a800821aa0003e07a800033e08a000033e099800033e0a900003951780003308a0005010228af9821798008218900082198800821a8000821b587bb7387bb8307bb9287bba209517603308c0005010245ff9821778821870821968821a60821b587bb7587bb8507bb9487bba40282af964673308501026f9fc8378330733093300280a0e280a33093300280a0e01951108f8951700077b70f0007b75e8007b76e0009515f807951118f88411e064169569ff0795993949294003492938034929280380003307409568ff07958861034929300350102a13fa33076400027b67b80039076400025517040728321d95670010837780fb330833002c0a03019569ff07959939819764035147c0e16e838d0c524723ada78d0a28761551472e77c9ad150e5147e072a6c2d600514739f9b6c39a0b51478cfb5cef040a52471720edf61f0d49298007492978074929700749296807956700108377a033002e0a1101956aff0795aa3995ab0007501230002b510706281d1a8267b80081775617230728101a9567ff0795774103501032761f9567ff079577210333084050103412f8956aff0795aa3982ab000395ac000282c8f80082c9f00082c7e800d49b0bd48709d4b909989920d4b808978820d49808510806281816492ae002492ad802492ad0029568ff0795880103492ac8027b67b8003300400128f1f849298005492978054929700549296805956700108377a0fd3300360a1101956aff0795aa3995ab0005501238492a5107062866198267b8008177561743072859199567ff079577e10150103abf1e9568ff07958839958900018297b8007b67488297b0007b67688297a8007b6770956700108377c0fd3308240a039568ff07958839958900058297a0007b67a800829798007b67a000829790007b679800829788007b67b00050103cbaf633079000033a08d800037b6888003a08d000037b6880007b6790003807e000037b677833077000037b67b80083777b67280a05018267b800827208827b807c106f279878206fb9979a20d4a8089777206fca98aa20d4a707989920826a78d3a909826a8000d3a707d4970782698800d39808d48707510706288a187b6c507b62587b6b608267a0008268b000d487078268a80082699800d49808d4870752070628941850103e12f6826890008287107b6780008287087b677882877b6788009567ff079577a1013308405010403ff69569ff079599398292800195980001828c78828b70828768d42b0ad4c708d4a808988820d4ca0a97aa20d4a808510806284814492958014929500149294801140a00000000e3122a859568ff07958881017b9a60017b6790007b62407b6c387b6b3050104212f7826a9000826740826838d487071408fcffffff00000000d88a088269309498947852080628ed13140700000000240000007b672083a7048268b000956bff0795bb3995ba00017ba828826898007ba8308268a0007ba8389568ff07958861018269a8007ba940501044a7f60a0b8267786f77977820826980006f99989920d4890a826888006f88978920987720d497079888208269b8007b67107b97087b6a787b9a7b68187a98109567ff079577394927c0054927b8054927b0054927a80533082482679000501046cef87b67880033082082679000501048bef89569ff079599394829c8052049290006ff959a0005492af800ff492af000ff492ae800ff8268b800978820988920140800000000080000007b698000d489029568ff079588e1059788209888209569ff0795992106979920d4890a82688800978820988820826b20d48b0b9777209877209568ff0795880106978820d4780c3308ff3309ff64270a0101510706282c130a0d01330c20aec7080a0d647c019569ff07959939826a90008262408267388268304916407b6c88007b9cc8007b9ae8004929d0007b98f0004929d8007b97f8004929e0009567ff07957721019568ff07958801017b92000150104aad1b826a408ea78268880050124c3b2552090628eb189567ff079577e1008268900050104eeaf3956aff0795aa3982a7b80082a8c00082a9b00082aaa800d49808d4a707d4870751070628be18826748977720987920956aff0795aa39492a80008267707ba7688267687ba7709568ff079588a1007b69087ba9783307501050c9f49569ff079599394919604919584919503307209568ff0795888100491948501052a6f49517e08477e07b6790006471330840330750105417f79518e08488e07b6888006481837783893308403300560a0a826a880033025828c925826a8800501258c225826890007b8a187b89107b8b087b879567ff0795776150105a3cf59567ff07957739827240827338827a287b6a88008277307b67489518e08484e06441826c9800d3c709d8c7088267b000d87a077b6740da97088267a000d8730b7b6b308260a8007b6238d30209d8020ada9b0ad37302d49209c9730bda980ac98b09d88b07826838c9080b826830c98b0bc97b0b826748c9c707826840c98707644c7bcb187bc9107bc708826788008268b000c987077bc7510a06289e1782679000644850105c14f50a0b7b6790008267b8008268587b78088268607b788268507a78109568ff079588398267a800958900067b97408267a0007b9738826798007b97308267b0007b97283307330850105eddf57b67880033073308501060d0f5956aff0795aa39482a4806826990008e98fc089a8995ab00067bb980007bb9787bb9707bb96897882382698000d498029568ff07958861069788209888209569ff079599a106979920d4890a826b880097bb2098bb209777209877209568ff0795888106978820d4780c3308ff3309ff64270a017b6790000a0d0182699000510706280a115109062830189567a00733084050106278f195680007828ab800828bb000828ca8008287a000d4ac09d4b708d49808988820d4b909979920d4980851080628850f4926900749268807492680071409000000003182a070956880077b6998077b6790007b6a88007b6b607b6c5850106452f28267283300660a01826b900082678800826860d487071408fcffffff00000000d88b08826958949894785108270f5012685e2249267807956b00077bb8707bb968956860077bba6050106a05f20a0b8267108268b8007b87088267787b878267187a87109567ff079577394927c0064927b8064927b0064927a8063308248267900050106c52f47b67b8003308208267900050106e42f49568ff079588394828c80620492800074928f8064928f0064928e8061408000000001800000082698000d489029568ff079588e1069788209888209569ff0795992107979920d4890a8268b800978820988820826b20d48b0b9777209877209568ff0795880107978820d4780c3308ff3309ff64270a01015107062860110a0d01330b20aeb7080a0d647b0182699000826a8800826760826858492688007b6bb800956c00077bcb7bc920492608077bc828492610077bc7304926180795672007956800077bca385010705217826a88008ea78268b800501272df20520906287b169567e0068268900050107492ef8267f8067b6790008267f0067b6788008267e8067b6780008267e0067b67789567c00633084050107667ef95670006827bd800827cd000827ac8008279c000d4ba07d4c908d47808988820d4c707977720d487075207770d8267b0007b67a006826798007b67a8068267a0007b67b0069568a0068267a8007b67b80664977b69b8007b6ab0007b6ba8007b6ca00050107839f050127a4a215108330d8397208268787b688006826880007b688806826888007b68900695688006826a90007b6a980650107c05f049265806826708956b00067bb7508267687bb7483a070000023a080800023a09100002826a707bba407bb7787bb8707bb9683a0718000233084095696006956a40067bb7608267b8003300e600288ff149296007492958074929500749294807956700108377800a1101956aff0795aa3995ab000782b75882b86082b95082ba48d49808d4a707d48707510706281c108267b800817756172307280f109567ff079577e10250107e75159567ff07957739957900028298c0007b68b8008298b8007b68b0008298b0007b68a8008297a8007b67a000502080009ded3a08d800037b6898003a08d000037b6890003807e000037b67880033077000037b6780008377330082000a05826980003302840028851f82698000502284007e1f82698800d3980882699000d39707d4870782689800d3a808d4870751070628de0f956aff0795aa398267a00095ab00027bb7488267a8007bb7508267b0007bb7589567ff079577a1029568ff07958881028269b8007bb960502086002a169567ff07957761023308405020880041ed956aff0795aa3995ac000282cb4082c83882c93082c728d49b0bd48709d4b909989920d4b808978820d4980852084d0b492a2002492a1802492a10029568ff0795884102492a08027b67b800330040012825ee4929400749293807492930074929280795670010837760ff0a1101956aff0795aa3995ab000782b73882b84082b93082ba28d49808d4a707d487075207900e8267b8008177541703860e9567ff079577210233084050208a0093ec9567ff07957739827800027b68b800957900018298f8007b68b0008298f0007b68a0008297e8007b67a80050208c000eec50228e00011e5207940a3a099000033a089800033807a00003956bff0795bb39492be00195bc00017bc7d8007bc8d0009568ff07958801027bc9c80064a73300a4002854ed4929e0034929d8034929d0034929c80395670010837700fc330090000a113302920028cb1e50229200c81e82b7d80082b8e00082b9d00082bac800d49808d4a707d487075207660e8267b8008177541703660e9567c00133084050209400bdeb956800018287d8007b67b8008287d0007b67b0008287c8007b67a0008287c0007b67a800502096003feb50229800321d5207c5093a09d000033a08d800033807e000034926b801956b00017bb7b0007bb8a8009568a0017bb9a00064a73300a4002890ec524767b5e35ffa0d4929c0034929b8034929b0034929a803956700108377e0fb33009a000a1133029c0028ff1d50229c00fc1d82b7b80082b8c00082b9b00082baa800d49808d4a707d4870752071a0e8267b8008177541703f20d9567800133084050209e00f1ea95680001828798007b67b800828790007b67b000828788007b67a000828780007b67a8005020a00073ea5022a200661c5207f9083a09b000033a08b800033807c0000349267801956b00017bb7707bb868956860017bb96064a75020a400cbeb3308208267a800330042012841ee8267b8008177541743760d9567c0055020a600c211956800058287d0007b67588287c8007b67608287c0007b676895670010837760fc3308240a039568ff07958839958900048297407b67b0008297387b67a8008297307b67a0008297287b6798005020a800c7e933079000033a08d800037b6880003a08d000037b68787b6788003807e000037b677033077000037b67b80083777b6790003300aa000a058269b8003302ac0028a41b8269b8005022ac009d1b826970d39808826978d39707d4870782688000d3a808d487075207cd0c9567ff079577394927600449275804492750044927480495670010837780fc0a11019569ff07959939959a000482a76082a8508292480482a9588263b000d33707826aa000d3a808d48707826ca800d3c908826b9800d3b209d49808d487075207b30c64c9d4cb07d43a08d487075107eb0c5020ae00e6e8826988008297088298105022b0001d1b8267b8007b68787a78107b69707b79087b6a80007b7a826790000a060151070b0d956760053308405020b200fce895680005828978828a70828b68828760d49b0cd4a708d4c808988820d4ac0c97cc20d4c80852080f077b6b387b6a407b69484926500549264805492640051409000000008bc54912956840057b6958057b6788005020b400dce90a0b8268b8008267707b8708826780007b878267787a87109568ff079588398267b000958900047b9780008267a8007b97788267a0007b9770826798007b9768330804826788005020b60016ec7b67508267880033085020b80007ec9569ff0795993948298804959a0004492ac000ff492ab800ff492ab000ff492aa800ff8268b800978820988a20140900000000080000007b6a30d49a029569ff079599a104979920989920956aff0795aae10497aa20d49a0a82695097992098992014080000000004000000d4890b9777209877209568ff079588c104978820d4780c3308ff3309ff64270a01015207f1054926f8044926f0044926e8044926e00482678800956a00057ba78267387ba7088267407ba710956700059568e0048269487ba9185020ba00180f8267589777209877204926d8047b67407b67d0048267607b67c8049568c0048267687b67c00433075020bc0086e84926b8044926b0044926a8043307209568a0044926a0045020be0069e89517e08477e07b678800647133084033075020c000d9ea9518e08488e07b68586481837783893308403300c2000a0a826a583302c400288a19826a585022c4008419826888007b8a187b89107b8b087b87956780045020c60000e9826498049568000482879000828b8000828c88009518e08488e06481826aa000c8ca0a82629800c8b202d8b20bc8ba0ad3ca03d8ca09da3b09826ba800c87b0bc89b0cd8bc038260b000c84000d87b0bc80b0bc83b00d87c03d3040bd84004dab304d3c707d4b707da79047b8c107b8a087b827b80185204ea0a826788005020c800fde8956760043308405020ca0043e695680004828a78828b70828c68828760d4ac09d4b708d49808988820d4b909979920d49808520856044926500449264804492640041409000000003182a070956840047b6958047b6788007b6a587b6b507b6c485020cc0023e7826790003300ce000a01826b8800826758826850d487071408fcffffff00000000d88b08826948949894785108f6035022d0002d1749263804956b00047bb8307bb928956820047bba205020d200d3e60a0b8267708268b8007b8708826780007b878267787a87109567ff07957739492700054927f8044927f0044927e804330824826788005020d4001ee97b67b800330820826788005020d6000de964789567ff0795773948270805204927400549273805492730054927280514070000000018000000826930d497079569ff0795992105979920989920956aff0795aa610597aa20d49a0a8269b800979920989920140b0000000024000000d49b0b9788209888209569ff0795994105979920d4890c3308ff3309ff0a01015207a4050a0d01330b20aeb7080a0d647b0182698800826a58826750826848492690007b6bb800956c00037bcbc0007bc9e0004926c8037bc8e8004926d0037bc7f0004926d8039567e0039568c0037bcaf8005020d800130c826a90008ea78268b8005022da009f155109340b9567a003826888005020dc0053e48267b8037b6790008267b0037b6788008267a8037b6780008267a0037b6778956780033308405020de0027e495670003827b9800827c9000827a880082798000d4ba07d4c908d47808988820d4c707977720d4870752073602826798007b6760038267a0007b6768038267a8007b677003956860038267b0007b67780364977b69b8007b6ab0007b6ba8007b6ca0005020e000f8e45022e20008165108f0018397208268787b684003826880007b684803826888007b68500395684003826a90007b6a58035020e400c2e449261803826740956b00037bb7108267607bb7083a072000023a082800023a09300002826a687bba7bb7387bb8307bb9283a0738000233084095692003956a00037bb7208267b8005020e60050e6330733085020e800f1e68378330733090a0e28a507492900044929f8034929f0034929e80395670010837720fc3300ea000a113302ec0028d3155022ec00d01582b7f80082a8000482b9f00082bae800d49808d4a707d487075207e8068267b8008177541723da05956780025020ee001c0a956a000282a7800082a8880080699002492678027ba9707ba868956860027ba76033075020f000d9e349265802492650024926480233072095684002492640025020f200bce3390868000256183f0b200368000240019517e08479e07b69b80064913307700002837783993308403300f4000a0a826ab8003302f600285814826ab8005022f600511495bc00047bca207bc9187bc8107bc708956720029568ff07958841045020f80049e4826738027b67b800826730027b67b000826728027b67a800826720027b67a000956700023308405020fa00f0e1956b000282b71882b81082b90882bad49707d48a09d47909989920d48707977720d497075107dc0500956720053308405020fc00bae1956800058287387b67b0008287307b67a8008287287b67a0008287207b67b8003300fe000a0d3302000128dc1250220001d9125208bf64799877205207b75022020122145020040131e59568ff079588398269a8007a89c804837795680010838800fd33090a0c9567ff079577398177c8042890009567ff07957741013308405020060134e19567ff07957739957900018298207b68b0008298187b68a8008298107b68a0008297087b67b800330008010a0d33020a01284f1250220a014c12520832ff6479987720520729ff50220c01931350200e01a2e49568ff079588398269a8007a890806837795680010838840fe33090a0c9567ff0795773981770806018268b000ac87ecfe0a0d0164789877205207e0fe8267b8007b68b0005020100157e483788169b00033070133005a010a0e2871070a0d7b67509567ff07957741330840502012016fe0956cff0795cc3982c2207b625882c3187b634882c4107b646082c0087b60880082685095871fd887088477e0957920d87907c8780ad88a0bda770b95670010492718f8956700107b7900f87bc27bc3f8956700107b7428f8956700107b7020f8956700107b7a08f89567ff079577219568ff07958801956900107b9b10f850201401890782678800826858826960d48909826a48d4a708d49808988820d4a909979920d49808520801fe4926f8074926f0074926e8079568e0078269507b69e00750201601e2e00a0d01826a8800826858826948d498081409e0ffffff00000000d89a09826b6094b994895109bcfd64789877205207b3fd83a72064897b686083887b68880064985020180122e39568ff079588398269607a8988068377956800108388c0fe33090a0c019567ff07957739817788068269900082688800ac8769fd28a2ed9567000433084050201a011ddf956800048287187b67b0008287107b67a8008287087b67a00082877b67b80033001c010a0d33021e0128401050221e013d10520823fd647998772052071afd5022200184115020220193e29568ff079588398269a8007a894805837795680010838880fd33090a0c9567ff079577398177480528f2fd95674007330840502024019ade956800078287587b67b0008287507b67a8008287487b67a0008287407b67b800330026010a0d3302280128bc0f50222801b90f52089ffc6479987720520796fc50222a01001150202c010fe29568ff079588398269a8007a890807837795680010838840ff33090a0c9567ff0795773981770807286efd3307330850202e01dae1837833070133090a0e288d029569ff07959939492998014929900114070000000004a09fc37b97a0019568ff079588c101492988013307330030012812df4926f0054926e8054926e005140700000000c611522c9568e0057b67f80533073300300128ebde9569ff07959939492998024929900214070000000004a09fc37b97a0029568ff079588c10249298802330750203001bdde33080433075020320139e183782863013308700002838828e1013308700002838828d701524756a5a64dc2019567ff0795773949278003492778034927700349276803956700108377a0fb330034010a113302360128fe0f50223601fb0f50223801dd0f5107f0013308700002838828890133087000028388287f013308700002838828750133087000028388286b01330870000283882861014926b0054926a8054926a00514070000000004a09fc39568a0057b67b805330750203a01fddd390868000256181f1420036800022033087000028388289a0033087000028388289000492690054926880549268005140700000000c611522c956880057b679805330750203c01b4dd390868000256181f132003680002203308700002838828513308700002838828484926b0024926a8024926a002140700000000c611522c9568a0027b67b802330750203e016ddd390868000256181f1320036800022033087000028388280a33087000028388013307013309040a0e3308700002838828793308700002838828703308700002838828678267a000956900017b97e0008267a8007b97e8008267b0007b97f0009568e0018267b8007b97f80064a77b6ab80050204001f6dc3308208267b8005020420170df83780133092033070a0e8267b800817728098267b800817701510713330870000283880133070133090a0e0133087000028388330733090a0e28f34926f0024926e8024926e002140700000000717b484e9568e0027b67f80233075020440188dc4926d8024926d0024926c002113307049568c0024926c802330048012866dc8267b8008177561723b5003308700002838833070133090a0e28933308700002838828ed019569ff079599394929980049299000140700000000c20512bb7b97a0009568ff079588c10049298800330733003001280fdc492630064926280649262006140700000000717b484e956820067b673806330750204601ecdb49261806492610064926000611330704956800064926080650204801cedb330824330750204a014ade83783307013309240a0e9567400133004c0128c5019567400150204c01be01956a000182a74082a84880695001492638017ba9307ba828956820017ba720330750204e017ddb49261801492610014926080133072095680001492600015020500160db33076800027b67b800390768000256173f0c8268b800480840019517e08479e07b69a800649133077000027b67b00083778399330840330052010a0a826aa8003302540128ee0b826aa80050225401e70b95bc00037bcaa0007bc998007bc890007bc788009567e0009568ff079588c10350205601dbdb8269e0008267e8008268f000826af8007b6ad8007b68d0007b67c800330780009568c0007b69c00050205801bbda8267b800817756279f00188268b8004808a0008267b0008378800028bafd8267b0008378800028affd4926d0074926c8074926c007140700000000c20512bb9568c0077b67d8073307330030012868da33087000028388280a330870000283880133070133005a010a0e019511c07b10387b15307b16289515408411f0828910828a18828b088288d4ba0ad4980bd4ab0b98bb20d4a909979920d4b90952091e6476641750205c01d7d850225e01ff0a510a0c502260013e0b320000330870000283883307013309330062010a0e019511c07b10387b15307b16289515408411e064768317330804330064010a033302660128b70a50226601b40a510a0b50226801f30a320033087000028388330701330933006a010a0e01951170ff7b1088007b1580007b1678951590008411f064728289827408828c088273959a1fd89a00c80c0984aae07b1308c8a303d8a30bc8490ac8ba0ad39a06d89a07da6b07822b18d8c90c828610822210828818da000cc86c0cd86c06c82c09c89707d8c90cd89709c8b808c86808c8c808c8980c8ec88e79dbc809d4c7088ea6db8906520657821808d88308d34a09d84a06da9806d82708d3bc09d8bc0bda980bd32708d49808da860b520b307b13507b1a587b17603307409518507b1c6850206c01dbd8955170ff8210880082158000821678951190003200491140491138491130140700000000717b484e9518307b1748330750206e01a5d849112849112049111041330704951810491118502070018cd8390868000256183f0b2003680002400133087000028388330701330924330072010a0e019511a0fb951900047b90587b95507b9648951560048411e08289107b19288289087b192082887b18187b17489517c00333084050207401f5d6951b000382b7d8007b17e80082b6d00082b8c8007b18e00082b9c0007b19f000492b9800492b9000492b8800492b8000407bb7b8007bb6b0007bb8a8009517a003951880037bb9a0005020760144fe8217f0008219e8008218e000d48909d46708d498089888207b16c800d46909979920d498085208280795190003491978491970491968330601951860037b9660502078019ad78219f0008218e8008217c800d487079766209566e0d86908821ae00094a894785108e70639076400027b17d8009597203308207b17f800649650207a01e2d983773308208219d8000a0295174003646850207c010ad6951b000382b75082b85882b94882ba40d49808d4a707d487075107990650207e0193d533069000033a079000033a089800033809a00003951a0003491a387ba9307ba828951820037ba7208217f80050208001efd6502082015bd58267288268308269206f77977a206f88988820d4a80b9877206f98330a700003978920d497079888207b18383d088000037b17303e077800037b1b403e0b7000037b1a5083a77b17d0000a060151076e06951700033308405020840151d5951a000382a91882a61082a80882a77b18607b1958d48909d46708d49808988820d46909979920d498085208ce05951a0002492af000492ae800492ae000140900000000ae3245749518e0027ba9f8007b17685020860132d68218687b169800821a58d46a0a140600000000010000001407fcffffff00000000d8780782196094977b1ad80094a751077005838704951900024929d8004929d0004929c8009518c0024929c00050208801ded58217d00033008a010a01821b689567dcd87b0782186094878218d800948751072d0582195082970881981050228c01660683b724951b0002492bb8007bb8b0007bb9a8009518a0027bbaa00050208e018cd5821868140600000000010000007b16d0001407bcffffff00000000d8780782196094978219d80094975107d00483874495190002492998004929900049298000609518800249298800502090013dd5951760028216f000646850209201f3d38219688217d00095779cd879078218609487821ad80094a7510782048217f800d867078218e000c8780a7b1ad000d88a08da77088217c800c88706d876078218e800c887077b17d800821a780282187002821b6802821c60021407ffffffff000000007b17708397647b1c78951900027b9c407b1b80007b9b487b1888007b9850951840027b1a90007b9a58502094019bd4646b8210d000330c330a33023303821868958784007b17f000d88707821660c876087b18e000d86806da770682149800c846067b16c800d84607821858c887077b17e80001821778d87c0782198000d39a087b1ac000d89a09da870982168800d86207821a9000d3a3087b13b800d8a30ada870ad36207d48707da790a510a3b017b12a0007b1ca8008219f800d4b9077b10d0008218d800d48008d487079877207b1bb000d4b808978820d4870752075a03951760017b19f8006498502096019fd28217f0008216c800d467098218e800821ae000d4a808d48909989920d46808978820d4980852082103821b70018218680182196001821a70d2ab0b8488ff8499ff492158017b1940017b184801951840017b1b50017b17f000502098017ad38217f000957220d872098217e000c89704d8740ada990ac8a600d860098217e800c897077b17e8008217f800957920d8790b8217d000c8b708d87806dabb068217b000c8670bd87b068217d800c867077b17d800821ca80095cc0188c601821ac000c86a0ad4ac068866018217a000c87606d876078213b800c873037b12f0007b14e0007b10c8007b19f80064806462821498002890fe8217688212f000d872038216608218e000d3680ad86809daa309821ac800c94a0cd84a04821be800821a58c9ab0bc94b0bd89c0ac9ab0b7b1bf800c99c0c7b1ce800c96808c938087b18e000c972060a0b017b17f0008218508217307b87088217407b878217387a8710951b0003492bf800330c492bf000492be8008219e800d496078218f800821ae000d4a808d48707987720d49808978820d48707492be0005207af0183677b17e80064687b16d800821668646750209a01aed47b17f8006467330850209c01a0d4951b0004480b8218e8008e88821af0008ea9fc08d498089a897bb9387bb9307bb9287bb920821950979920989920978823d498029518e00397882098882095192004979920d4890a8218f800978820988820821bd80097bb20d48b0b97772098772095180004978820d4780c3308ff3309ff64270a01015207e800951a0002491a18491a10491a08490a8217687ba7208217607ba728821798007ba73095172002951800028219587ba93850209e01ccf79517e0013308405020a00121d08217f8018218f0018219e8018216e001d49707d48609d47909989920d48707977720d497075207a3004921d8014921d0014921c8019518c0014921c00164675020a20116d18217188477ff8218208488ff821928821a70d2a909492198017b1990017b1888013a084000023a094800023a0a5000027b1780017b18b8017b19b0017b1aa8013a075800023308209519a001951a80017b17a00164675020a40196d2821748330849171849171049170849079551a0fb9517000482705882755082764895116004320000492130014921280149212001140700000000717b484e951820017b17380133075020a6016cd04921180149211001492100013233070495180001492108015020a8014ed0390868000256183f0b20036800024001330870000283883307013309240a0e013308700002838833070133090a0e33073300aa0128d0d233075020aa01cbd23307015020ac01c2d2888820858801dba7088ea78ea9daa709d4aa07da780932028268b0008269a000d49808826aa8008269b800d4a909d48909989920d4a808978820d4980832028269b80082970881981082996f77977a206f88988820d48a0a9877206f98978920d4790998882083b70432028267b8008268a000d487078268a800648a8269b000d49808d47808988820d49707977720d48707320282970882988199106f77987a206f88978b20d4ba0a9777206f99989920d49707988820320282996f77977a206f88988820d48a0a9877206f98978920d47909988820320282a71882a81082a90882aa6f776f886f996faa956bff0795bb39320282171082181814090000000001000000d37909d48909987a2088aa01948a939a32028269b8008267a8008268a000d487071408e0ffffff00000000d88908826ab00094a8947832028219821a087b697b6a087b67107b68189551c0821038821530821628951140320282a71882a81082a90882aa6f776f8b6f996faa320283977b67b0008267b80064987b69a800320282b77882b8800082b97082ba68d49808d4a707d487073202956aff0795aa3995ab00033202490a21a11a4292d210a1925429a42449922449922449922449922449922449922449922449922449922449922449aa9294529294942454a5242549922449922449922449922449922449922449922449499294a4aa24254994a492a42a494992922425294955559292a42495244544444a92242549525129a5244929a524a9a488882849128490309426a521112292442249a2912449222449244a492444a16a880822224422914844101121128944228288089148241289444422241289884488442222112221222249926428092515aa22428444440821448488882449222449922415aa5469444444a44844908808214224a2341201810404040404444444d24884248a4484888448444424499224222222221111116924421245224224229148448a4444444444082142444888d2482925294912492449928844244988445244244422922449922422028888481222490049250124118944221191504a94444912494a22111189108910092142089104108948229248922422496ad2a446224922222222222222a40849448448444492244924922422294492242221895248a24a8a2442242912224922498a24924412499224499224494a129192281491a4241291482452212a4422a28824894424114924494492543492241222222249922411114044441292239200928a1091444289a4241211910891089110111140242289482249928824a949931a91444489442222218a90448488888848244444449224898888888828222284482222222242249284109224211189484444a4914892244914890891888888880842840811a2282211442289248944241289888804110922912449922422222222121111d148244992884244824844444444044184102211111151242222228a04111149220a912022222222822042081111114502222222a24810119124a2100922222222220822841091440a129128441091482422452291482482102224424214514422489244129188888846228944228944922849049104912451342241244992248924111140440445122591888844228920511089082184480248229288244900492292a4464444444912910449229188444144242248a21424a9122592209214414444244522499248124992244992121144824892244912111140442409228e24012415414412094a244a221111892012419110111140129144249104902422491a4d6a2489888888888888208a20228288888848248888882449121111111151444410441211111111442249082125098948041554252222228a04111149220a11444444122988884404218249142a5144228824898820222222221244929224498c0491482412512448491044228aa84824224124128944228a04512208221145542446b4444450244a89248824499248922449444489888888442282489224492222221134920490549448290a2289226a24222291201289441145822811049188222a128904914824125124881241108928a222910a4a25121140444491880820a248242280888882149450420988444444449120885042092594502222808882104128a14444001105218250a122228088821041a8d0a450a1424544444444144122682a2a9ad0d450554404105110111211894228552891880022228a4444001105112111410a4a8a48049144249182884844102244641285a84411892022222222888888888808a21011918844440011454285269a2449929224492a08123494a2499254a24890a0508a46442295942449922449922449922495942449922449922409222251920092822492042182a1241a91249224259120222222222242444444101149124922922412444492444588240a4a1405912449220821844812892048524a524892909090a21109224949922489888800221224920002488a2211111141c4495214498244444404092002488a221111228288824492a28844228924121111012489442211098aaa4424892412496212892412892449444422924492882888484492241111491211111144124992484412492289442491249248444445124924892492249148228d2429892822129124494451a4202a88a2889424499248228924922492a44624294922114910092222922449444444419224898810424444484414a424452489464400110511211141886028692855a42041924a524422922429924a494a922212459224a5949294a44a494a5292aa22250124491511092051959224494a52554514259224452200"
        },
        "methodIdentifiers": {
          "claimRewards(address)": "ef5cfb8c",
          "comptroller()": "5fe3b567",
          "getPendingRewards(address)": "f6ed2017",
          "getStakedAmount(address)": "4da6a556",
          "habitTracker()": "836ee1c0",
          "mToken()": "c3b6f939",
          "stake(address,uint256)": "adc9772e",
          "unstake(address,uint256)": "c2a672e0",
          "userStakes(address)": "8da7ad23"
        }
      },
      "hash": "fe66882e00cea02bb65103972b92fc058ae909c93129f5a4f5d48b0a82d1dfc7",
      "factoryDependencies": {}
    }
  }
}