{
  "contracts/mocks/MockStakingRewards.sol": {
    "MockStakingRewards": {
      "abi": [
        {
          "inputs": [
            {
              "internalType": "uint256",
              "name": "_ratePerSecond",
              "type": "uint256"
            },
            {
              "internalType": "address",
              "name": "_habitTracker",
              "type": "address"
            }
          ],
          "stateMutability": "nonpayable",
          "type": "constructor"
        },
        {
          "inputs": [],
          "name": "InsufficientBalance",
          "type": "error"
        },
        {
          "inputs": [],
          "name": "InvalidAmount",
          "type": "error"
        },
        {
          "inputs": [],
          "name": "OnlyHabitTracker",
          "type": "error"
        },
        {
          "inputs": [],
          "name": "TransferFailed",
          "type": "error"
        },
        {
          "anonymous": false,
          "inputs": [
            {
              "indexed": true,
              "internalType": "address",
              "name": "user",
              "type": "address"
            },
            {
              "indexed": false,
              "internalType": "uint256",
              "name": "amount",
              "type": "uint256"
            }
          ],
          "name": "RewardsClaimed",
          "type": "event"
        },
        {
          "anonymous": false,
          "inputs": [
            {
              "indexed": true,
              "internalType": "address",
              "name": "user",
              "type": "address"
            },
            {
              "indexed": false,
              "internalType": "uint256",
              "name": "amount",
              "type": "uint256"
            }
          ],
          "name": "Staked",
          "type": "event"
        },
        {
          "anonymous": false,
          "inputs": [
            {
              "indexed": true,
              "internalType": "address",
              "name": "user",
              "type": "address"
            },
            {
              "indexed": false,
              "internalType": "uint256",
              "name": "amount",
              "type": "uint256"
            }
          ],
          "name": "Unstaked",
          "type": "event"
        },
        {
          "inputs": [
            {
              "internalType": "address",
              "name": "user",
              "type": "address"
            }
          ],
          "name": "claimRewards",
          "outputs": [
            {
              "internalType": "uint256",
              "name": "claimed",
              "type": "uint256"
            }
          ],
          "stateMutability": "nonpayable",
          "type": "function"
        },
        {
          "inputs": [
            {
              "internalType": "address",
              "name": "",
              "type": "address"
            }
          ],
          "name": "deposits",
          "outputs": [
            {
              "internalType": "uint256",
              "name": "",
              "type": "uint256"
            }
          ],
          "stateMutability": "view",
          "type": "function"
        },
        {
          "inputs": [],
          "name": "getContractBalance",
          "outputs": [
            {
              "internalType": "uint256",
              "name": "",
              "type": "uint256"
            }
          ],
          "stateMutability": "view",
          "type": "function"
        },
        {
          "inputs": [
            {
              "internalType": "address",
              "name": "who",
              "type": "address"
            }
          ],
          "name": "getPendingRewards",
          "outputs": [
            {
              "internalType": "uint256",
              "name": "",
              "type": "uint256"
            }
          ],
          "stateMutability": "view",
          "type": "function"
        },
        {
          "inputs": [
            {
              "internalType": "address",
              "name": "who",
              "type": "address"
            }
          ],
          "name": "getStakedAmount",
          "outputs": [
            {
              "internalType": "uint256",
              "name": "",
              "type": "uint256"
            }
          ],
          "stateMutability": "view",
          "type": "function"
        },
        {
          "inputs": [],
          "name": "habitTracker",
          "outputs": [
            {
              "internalType": "address",
              "name": "",
              "type": "address"
            }
          ],
          "stateMutability": "view",
          "type": "function"
        },
        {
          "inputs": [
            {
              "internalType": "address",
              "name": "",
              "type": "address"
            }
          ],
          "name": "lastUpdateTime",
          "outputs": [
            {
              "internalType": "uint256",
              "name": "",
              "type": "uint256"
            }
          ],
          "stateMutability": "view",
          "type": "function"
        },
        {
          "inputs": [],
          "name": "ratePerSecond",
          "outputs": [
            {
              "internalType": "uint256",
              "name": "",
              "type": "uint256"
            }
          ],
          "stateMutability": "view",
          "type": "function"
        },
        {
          "inputs": [
            {
              "internalType": "address",
              "name": "user",
              "type": "address"
            },
            {
              "internalType": "uint256",
              "name": "amount",
              "type": "uint256"
            }
          ],
          "name": "stake",
          "outputs": [],
          "stateMutability": "payable",
          "type": "function"
        },
        {
          "inputs": [
            {
              "internalType": "address",
              "name": "user",
              "type": "address"
            },
            {
              "internalType": "uint256",
              "name": "amount",
              "type": "uint256"
            }
          ],
          "name": "unstake",
          "outputs": [],
          "stateMutability": "nonpayable",
          "type": "function"
        },
        {
          "stateMutability": "payable",
          "type": "receive"
        }
      ],
      "evm": {
        "assembly": "// RO data = 0/0 bytes\n// RW data = 100/65744 bytes\n// Stack size = 32768 bytes\n\n// Instructions = 4082\n// Code size = 13814 bytes\n\n      : @0 (gas: 7)\n     0: sp = sp + 0xffffffffffffffe8\n     3: u64 [sp + 0x10] = ra\n     6: u64 [sp + 0x8] = s0\n     9: u64 [sp] = s1\n    11: s1 = 0x20060\n    16: s0 = i32 [0x20060]\n    21: jump @3 if s0 == 0\n      : @1 (gas: 5)\n    24: a0 = 0x30090\n    29: i32 a0 = a0 + 0\n    31: i32 a1 = s1 + 0\n    33: ecalli 7 // 'get_immutable_data'\n    35: fallthrough\n      : @2 (gas: 3)\n    36: a0 = i32 [0x20060]\n    41: u32 [0x20060] = 0\n    46: jump @4 if a0 <u s0\n      : @3 (gas: 5)\n    49: ra = u64 [sp + 0x10]\n    52: s0 = u64 [sp + 0x8]\n    55: s1 = u64 [sp]\n    57: sp = sp + 0x18\n    60: ret\n      : @4 (gas: 1)\n    62: trap\n      : @5 (gas: 2)\n    63: a1 = i32 [0x20060]\n    68: jump @46 if a1 == 0\n      : @6 (gas: 4)\n    72: a0 = 0x30090\n    77: i32 a0 = a0 + 0\n    79: ecalli 15 // 'set_immutable_data'\n    81: jump @46\n      : @7 (gas: 8)\n    84: sp = sp + 0xfffffffffffffff0\n    87: u64 [sp + 0x8] = ra\n    90: u64 [sp] = s0\n    92: a2 = a1\n    94: s0 = a0\n    96: a1 = 0x20\n    99: a0 = a2\n   101: ra = 2, jump @15\n      : @8 [@dyn 1] (gas: 100)\n   106: a1 = u8 [a0 + 0x1]\n   109: a2 = u8 [a0]\n   111: a3 = u8 [a0 + 0x2]\n   114: a4 = u8 [a0 + 0x3]\n   117: a1 = a1 << 0x8\n   120: a1 = a1 | a2\n   123: a3 = a3 << 0x10\n   126: a4 = a4 << 0x18\n   129: a3 = a3 | a4\n   132: a1 = a1 | a3\n   135: a2 = u8 [a0 + 0x5]\n   138: a3 = u8 [a0 + 0x4]\n   141: a4 = u8 [a0 + 0x6]\n   144: a5 = u8 [a0 + 0x7]\n   147: a2 = a2 << 0x8\n   150: a2 = a2 | a3\n   153: a4 = a4 << 0x10\n   156: a5 = a5 << 0x18\n   159: a4 = a4 | a5\n   162: a2 = a2 | a4\n   165: a2 = a2 << 0x20\n   168: t0 = a2 | a1\n   171: a2 = u8 [a0 + 0x9]\n   174: a3 = u8 [a0 + 0x8]\n   177: a4 = u8 [a0 + 0xa]\n   180: a5 = u8 [a0 + 0xb]\n   183: a2 = a2 << 0x8\n   186: a2 = a2 | a3\n   189: a4 = a4 << 0x10\n   192: a5 = a5 << 0x18\n   195: a4 = a4 | a5\n   198: a2 = a2 | a4\n   201: a3 = u8 [a0 + 0xd]\n   204: a4 = u8 [a0 + 0xc]\n   207: a5 = u8 [a0 + 0xe]\n   210: a1 = u8 [a0 + 0xf]\n   213: a3 = a3 << 0x8\n   216: a3 = a3 | a4\n   219: a5 = a5 << 0x10\n   222: a1 = a1 << 0x18\n   225: a1 = a1 | a5\n   228: a1 = a1 | a3\n   231: a1 = a1 << 0x20\n   234: t1 = a1 | a2\n   237: a1 = u8 [a0 + 0x11]\n   240: a3 = u8 [a0 + 0x10]\n   243: a4 = u8 [a0 + 0x12]\n   246: a5 = u8 [a0 + 0x13]\n   249: a1 = a1 << 0x8\n   252: a1 = a1 | a3\n   255: a4 = a4 << 0x10\n   258: a5 = a5 << 0x18\n   261: a4 = a4 | a5\n   264: a1 = a1 | a4\n   267: a3 = u8 [a0 + 0x15]\n   270: a4 = u8 [a0 + 0x14]\n   273: a5 = u8 [a0 + 0x16]\n   276: a2 = u8 [a0 + 0x17]\n   279: a3 = a3 << 0x8\n   282: a3 = a3 | a4\n   285: a5 = a5 << 0x10\n   288: a2 = a2 << 0x18\n   291: a2 = a2 | a5\n   294: a2 = a2 | a3\n   297: a2 = a2 << 0x20\n   300: a3 = a2 | a1\n   303: a1 = u8 [a0 + 0x19]\n   306: a2 = u8 [a0 + 0x18]\n   309: a4 = u8 [a0 + 0x1a]\n   312: a5 = u8 [a0 + 0x1b]\n   315: a1 = a1 << 0x8\n   318: a1 = a1 | a2\n   321: a4 = a4 << 0x10\n   324: a5 = a5 << 0x18\n   327: a4 = a4 | a5\n   330: a1 = a1 | a4\n   333: a2 = u8 [a0 + 0x1d]\n   336: a4 = u8 [a0 + 0x1c]\n   339: a5 = u8 [a0 + 0x1e]\n   342: a0 = u8 [a0 + 0x1f]\n   345: a2 = a2 << 0x8\n   348: a2 = a2 | a4\n   351: a5 = a5 << 0x10\n   354: a0 = a0 << 0x18\n   357: a0 = a0 | a5\n   360: a0 = a0 | a2\n   363: a0 = a0 << 0x20\n   366: a0 = a0 | a1\n   369: a0 = reverse a0\n   371: a1 = reverse a3\n   373: a2 = reverse t1\n   375: a3 = reverse t0\n   377: u64 [s0 + 0x18] = a3\n   380: u64 [s0 + 0x10] = a2\n   383: u64 [s0 + 0x8] = a1\n   386: u64 [s0] = a0\n   388: ra = u64 [sp + 0x8]\n   391: s0 = u64 [sp]\n   393: sp = sp + 0x10\n   396: ret\n      : @9 (gas: 12)\n   398: sp = sp + 0xffffffffffffffd8\n   401: u64 [sp + 0x20] = ra\n   404: u64 [sp + 0x18] = s0\n   407: u64 [sp + 0x10] = s1\n   410: a2 = u64 [a1]\n   412: u64 [sp + 0x8] = a2\n   415: a2 = u64 [a1 + 0x8]\n   418: u64 [sp] = a2\n   420: s0 = u64 [a1 + 0x10]\n   423: s1 = u64 [a1 + 0x18]\n   426: a1 = 0x20\n   429: ra = 4, jump @15\n      : @10 [@dyn 2] (gas: 71)\n   434: a1 = reverse s1\n   436: a2 = reverse s0\n   438: a3 = u64 [sp]\n   440: a3 = reverse a3\n   442: a4 = u64 [sp + 0x8]\n   445: a4 = reverse a4\n   447: u8 [a0 + 0x18] = a4\n   450: u8 [a0 + 0x10] = a3\n   453: u8 [a0 + 0x8] = a2\n   456: u8 [a0] = a1\n   458: a5 = a4 >> 0x38\n   461: u8 [a0 + 0x1f] = a5\n   464: a5 = a4 >> 0x30\n   467: u8 [a0 + 0x1e] = a5\n   470: a5 = a4 >> 0x28\n   473: u8 [a0 + 0x1d] = a5\n   476: a5 = a4 >> 0x20\n   479: u8 [a0 + 0x1c] = a5\n   482: a5 = a4 >> 0x18\n   485: u8 [a0 + 0x1b] = a5\n   488: a5 = a4 >> 0x10\n   491: u8 [a0 + 0x1a] = a5\n   494: a4 = a4 >> 0x8\n   497: u8 [a0 + 0x19] = a4\n   500: a4 = a3 >> 0x38\n   503: u8 [a0 + 0x17] = a4\n   506: a4 = a3 >> 0x30\n   509: u8 [a0 + 0x16] = a4\n   512: a4 = a3 >> 0x28\n   515: u8 [a0 + 0x15] = a4\n   518: a4 = a3 >> 0x20\n   521: u8 [a0 + 0x14] = a4\n   524: a4 = a3 >> 0x18\n   527: u8 [a0 + 0x13] = a4\n   530: a4 = a3 >> 0x10\n   533: u8 [a0 + 0x12] = a4\n   536: a3 = a3 >> 0x8\n   539: u8 [a0 + 0x11] = a3\n   542: a3 = a2 >> 0x38\n   545: u8 [a0 + 0xf] = a3\n   548: a3 = a2 >> 0x30\n   551: u8 [a0 + 0xe] = a3\n   554: a3 = a2 >> 0x28\n   557: u8 [a0 + 0xd] = a3\n   560: a3 = a2 >> 0x20\n   563: u8 [a0 + 0xc] = a3\n   566: a3 = a2 >> 0x18\n   569: u8 [a0 + 0xb] = a3\n   572: a3 = a2 >> 0x10\n   575: u8 [a0 + 0xa] = a3\n   578: a2 = a2 >> 0x8\n   581: u8 [a0 + 0x9] = a2\n   584: a2 = a1 >> 0x38\n   587: u8 [a0 + 0x7] = a2\n   590: a2 = a1 >> 0x30\n   593: u8 [a0 + 0x6] = a2\n   596: a2 = a1 >> 0x28\n   599: u8 [a0 + 0x5] = a2\n   602: a2 = a1 >> 0x20\n   605: u8 [a0 + 0x4] = a2\n   608: a2 = a1 >> 0x18\n   611: u8 [a0 + 0x3] = a2\n   614: a2 = a1 >> 0x10\n   617: u8 [a0 + 0x2] = a2\n   620: a1 = a1 >> 0x8\n   623: u8 [a0 + 0x1] = a1\n   626: ra = u64 [sp + 0x20]\n   629: s0 = u64 [sp + 0x18]\n   632: s1 = u64 [sp + 0x10]\n   635: sp = sp + 0x28\n   638: ret\n      : @11 (gas: 48)\n   640: sp = sp + 0xffffffffffffffa0\n   643: u64 [sp + 0x58] = ra\n   646: u64 [sp + 0x50] = s0\n   649: u64 [sp + 0x48] = s1\n   652: s0 = sp + 0x60\n   655: sp = sp & 0xffffffffffffffe0\n   658: s1 = a0\n   660: a0 = u64 [a1 + 0x18]\n   663: a2 = u64 [a1 + 0x10]\n   666: a3 = u64 [a1 + 0x8]\n   669: a1 = u64 [a1]\n   671: a0 = reverse a0\n   673: a2 = reverse a2\n   675: a3 = reverse a3\n   677: a1 = reverse a1\n   679: u64 [sp + 0x18] = a1\n   682: u64 [sp + 0x10] = a3\n   685: u64 [sp + 0x8] = a2\n   688: u64 [sp] = a0\n   690: u64 [sp + 56] = 0\n   693: u64 [sp + 48] = 0\n   696: u64 [sp + 40] = 0\n   699: u64 [sp + 32] = 0\n   702: u32 [sp + 64] = 0x20\n   706: i32 a1 = sp + 0\n   708: i32 a3 = sp + 0x20\n   711: i32 a4 = sp + 0x40\n   714: a2 = 0xffffffffffffffff\n   717: a0 = 0\n   719: ecalli 8 // 'get_storage'\n   721: a0 = u64 [sp + 0x38]\n   724: a1 = u64 [sp + 0x30]\n   727: a2 = u64 [sp + 0x28]\n   730: a3 = u64 [sp + 0x20]\n   733: a0 = reverse a0\n   735: a1 = reverse a1\n   737: a2 = reverse a2\n   739: a3 = reverse a3\n   741: u64 [s1 + 0x18] = a3\n   744: u64 [s1 + 0x10] = a2\n   747: u64 [s1 + 0x8] = a1\n   750: u64 [s1] = a0\n   752: sp = s0 + 0xffffffffffffffa0\n   755: ra = u64 [sp + 0x58]\n   758: s0 = u64 [sp + 0x50]\n   761: s1 = u64 [sp + 0x48]\n   764: sp = sp + 0x60\n   767: ret\n      : @12 (gas: 40)\n   769: sp = sp + 0xffffffffffffffa0\n   772: u64 [sp + 0x58] = ra\n   775: u64 [sp + 0x50] = s0\n   778: s0 = sp + 0x60\n   781: sp = sp & 0xffffffffffffffe0\n   784: t0 = u64 [a0]\n   786: a3 = u64 [a0 + 0x8]\n   789: a4 = u64 [a0 + 0x10]\n   792: a0 = u64 [a0 + 0x18]\n   795: t1 = u64 [a1]\n   797: a2 = u64 [a1 + 0x8]\n   800: a5 = u64 [a1 + 0x10]\n   803: a1 = u64 [a1 + 0x18]\n   806: t2 = reverse a0\n   808: a4 = reverse a4\n   810: a3 = reverse a3\n   812: a0 = reverse t0\n   814: t0 = reverse a1\n   816: a5 = reverse a5\n   818: a2 = reverse a2\n   820: a1 = reverse t1\n   822: u64 [sp + 0x18] = a0\n   825: u64 [sp + 0x10] = a3\n   828: u64 [sp + 0x8] = a4\n   831: u64 [sp] = t2\n   833: u64 [sp + 0x38] = a1\n   836: u64 [sp + 0x30] = a2\n   839: u64 [sp + 0x28] = a5\n   842: u64 [sp + 0x20] = t0\n   845: i32 a1 = sp + 0\n   847: i32 a3 = sp + 0x20\n   850: a2 = 0xffffffffffffffff\n   853: a4 = 0x20\n   856: a0 = 0\n   858: ecalli 16 // 'set_storage'\n   860: sp = s0 + 0xffffffffffffffa0\n   863: ra = u64 [sp + 0x58]\n   866: s0 = u64 [sp + 0x50]\n   869: sp = sp + 0x60\n   872: ret\n      : @13 (gas: 24)\n   874: sp = sp + 0xffffffffffffff60\n   878: u64 [sp + 0x98] = ra\n   882: u64 [sp + 0x90] = s0\n   886: u64 [sp + 0x88] = s1\n   890: s0 = sp + 0xa0\n   894: sp = sp & 0xffffffffffffffe0\n   897: a4 = u64 [a3]\n   899: u64 [sp + 0x38] = a4\n   902: a4 = u64 [a3 + 0x8]\n   905: u64 [sp + 0x30] = a4\n   908: a4 = u64 [a3 + 0x10]\n   911: u64 [sp + 0x28] = a4\n   914: a3 = u64 [a3 + 0x18]\n   917: u64 [sp + 0x20] = a3\n   920: a3 = u64 [a2]\n   922: u64 [sp + 0x18] = a3\n   925: a3 = u64 [a2 + 0x8]\n   928: u64 [sp + 0x10] = a3\n   931: a3 = u64 [a2 + 0x10]\n   934: u64 [sp + 0x8] = a3\n   937: a2 = u64 [a2 + 0x18]\n   940: u64 [sp] = a2\n   942: s1 = a1\n   944: ra = 6, jump @15\n      : @14 [@dyn 3] (gas: 35)\n   948: a1 = u64 [sp]\n   950: a1 = reverse a1\n   952: a2 = u64 [sp + 0x8]\n   955: a2 = reverse a2\n   957: a3 = u64 [sp + 0x10]\n   960: a3 = reverse a3\n   962: a4 = u64 [sp + 0x18]\n   965: a4 = reverse a4\n   967: u64 [sp + 0x58] = a4\n   970: u64 [sp + 0x50] = a3\n   973: u64 [sp + 0x48] = a2\n   976: u64 [sp + 0x40] = a1\n   979: a1 = u64 [sp + 0x20]\n   982: a1 = reverse a1\n   984: a2 = u64 [sp + 0x28]\n   987: a2 = reverse a2\n   989: a3 = u64 [sp + 0x30]\n   992: a3 = reverse a3\n   994: a4 = u64 [sp + 0x38]\n   997: a4 = reverse a4\n   999: u64 [sp + 0x78] = a4\n  1002: u64 [sp + 0x70] = a3\n  1005: u64 [sp + 0x68] = a2\n  1008: u64 [sp + 0x60] = a1\n  1011: i32 a2 = a0 + 0\n  1013: i32 a3 = s1 + 0\n  1015: i32 a0 = sp + 0x40\n  1018: a1 = 0x2\n  1021: ecalli 6 // 'deposit_event'\n  1023: sp = s0 + 0xffffffffffffff60\n  1027: ra = u64 [sp + 0x98]\n  1031: s0 = u64 [sp + 0x90]\n  1035: s1 = u64 [sp + 0x88]\n  1039: sp = sp + 0xa0\n  1043: ret\n      : @15 (gas: 2)\n  1045: i32 a2 = a0 >> 0x10\n  1048: jump @20 if a2 != 0\n      : @16 (gas: 4)\n  1051: a1 = a1 + a0\n  1054: i32 a1 = a1 + 0x1f\n  1057: a1 = a1 & 0xffffffffffffffe0\n  1060: jump @20 if a1 >u 65536\n      : @17 (gas: 3)\n  1066: a2 = 0x20068\n  1071: a3 = i32 [0x20068]\n  1076: jump @19 if a3 >=u a1\n      : @18 (gas: 2)\n  1079: u32 [0x20068] = a1\n  1084: fallthrough\n      : @19 (gas: 4)\n  1085: a1 = 0x20070\n  1090: i32 a0 = a0 + 0\n  1092: a0 = a0 + a1\n  1095: ret\n      : @20 (gas: 1)\n  1097: trap\n      : @21 (gas: 6)\n  1098: sp = sp + 0xfffffffffffffff0\n  1101: u64 [sp + 0x8] = ra\n  1104: u64 [sp] = s0\n  1106: s0 = a0 & 0x1\n  1109: ecalli 4 // 'call_data_size'\n  1111: fallthrough\n      : @22 (gas: 2)\n  1112: u32 [0x20064] = a0\n  1117: jump @24 if s0 == 0\n      : @23 (gas: 1)\n  1120: ra = 8, jump @25\n      : @24 [@dyn 4] (gas: 1)\n  1124: ra = 10, jump @49\n      : @25 [@dyn 5] (gas: 13)\n  1129: sp = sp + 0xfffffffffffffe80\n  1133: u64 [sp + 0x178] = ra\n  1137: u64 [sp + 0x170] = s0\n  1141: u64 [sp + 0x168] = s1\n  1145: s0 = sp + 0x180\n  1149: sp = sp & 0xffffffffffffffe0\n  1152: u64 [sp + 344] = 0\n  1156: u64 [sp + 336] = 0\n  1160: u64 [sp + 328] = 0\n  1164: u64 [sp + 320] = 0\n  1168: i32 a0 = sp + 0x140\n  1172: ecalli 17 // 'value_transferred'\n  1174: fallthrough\n      : @26 (gas: 8)\n  1175: a0 = u64 [sp + 0x150]\n  1179: a1 = u64 [sp + 0x158]\n  1183: a2 = u64 [sp + 0x148]\n  1187: a3 = u64 [sp + 0x140]\n  1191: a1 = a1 | a2\n  1194: a0 = a0 | a3\n  1197: a0 = a0 | a1\n  1200: jump @39 if a0 != 0\n      : @27 (gas: 15)\n  1204: s1 = i32 [0x20064]\n  1209: a0 = s1 << 0x20\n  1212: a0 = a0 >> 0x20\n  1215: a0 = a0 + 0x1f\n  1218: a0 = a0 & 0xffffffffffffffe0\n  1221: a1 = a0 + 0xc0\n  1225: a0 = a1 <u a0\n  1228: u64 [sp + 312] = 0\n  1232: u64 [sp + 0x120] = a1\n  1236: u64 [sp + 0x128] = a0\n  1240: a0 = 0 if a0 != 0\n  1242: u64 [sp + 0x130] = a0\n  1246: a0 = 0x40\n  1249: a1 = sp + 0x120\n  1253: ra = 12, jump @9\n      : @28 [@dyn 6] (gas: 3)\n  1258: a0 = 0xc0\n  1262: a1 = s1\n  1264: ra = 14, jump @15\n      : @29 [@dyn 7] (gas: 5)\n  1269: i32 a0 = a0 + 0\n  1271: a1 = s1\n  1273: a2 = 0\n  1275: ecalli 2 // 'call_data_copy'\n  1277: fallthrough\n      : @30 (gas: 1)\n  1278: jump @40 if s1 <u 64\n      : @31 (gas: 3)\n  1283: a0 = sp + 0x100\n  1287: a1 = 0xc0\n  1291: ra = 16, jump @7\n      : @32 [@dyn 8] (gas: 11)\n  1296: a0 = u64 [sp + 0x118]\n  1300: u64 [sp + 0x38] = a0\n  1303: a0 = u64 [sp + 0x110]\n  1307: u64 [sp + 0x30] = a0\n  1310: a0 = u64 [sp + 0x108]\n  1314: u64 [sp + 0x20] = a0\n  1317: a0 = u64 [sp + 0x100]\n  1321: u64 [sp + 0x18] = a0\n  1324: a0 = sp + 0xe0\n  1328: a1 = 0xe0\n  1332: ra = 18, jump @7\n      : @33 [@dyn 9] (gas: 11)\n  1337: a1 = u64 [sp + 0xf0]\n  1341: s1 = u64 [sp + 0xf8]\n  1345: a0 = 0x100000000\n  1355: a0 = a0 ^ a1\n  1358: a0 = a0 | s1\n  1361: u64 [sp + 0x28] = a1\n  1364: a1 = a1 >> 0x20\n  1367: a1 = a1 <u 0x1\n  1370: a1 = 0 if s1 != 0\n  1372: a1 = 0 if a0 == 0\n  1374: jump @41 if a1 == 0\n      : @34 (gas: 15)\n  1378: a0 = u64 [sp + 0xe8]\n  1382: u64 [sp + 0x8] = a0\n  1385: a0 = u64 [sp + 0xe0]\n  1389: u64 [sp + 0x10] = a0\n  1392: a0 = u64 [sp + 0x18]\n  1395: u64 [sp + 0xc0] = a0\n  1399: a0 = u64 [sp + 0x20]\n  1402: u64 [sp + 0xc8] = a0\n  1406: a0 = u64 [sp + 0x30]\n  1409: u64 [sp + 0xd0] = a0\n  1413: a0 = 0x80\n  1417: a1 = sp + 0xc0\n  1421: a2 = u64 [sp + 0x38]\n  1424: u64 [sp + 0xd8] = a2\n  1428: ra = 20, jump @9\n      : @35 [@dyn 10] (gas: 10)\n  1433: u64 [sp + 0xb8] = s1\n  1437: a0 = u64 [sp + 0x28]\n  1440: u64 [sp + 0xb0] = a0\n  1444: a0 = u64 [sp + 0x8]\n  1447: u64 [sp + 0xa8] = a0\n  1451: a0 = 0xa0\n  1455: a1 = sp + a0\n  1458: a2 = u64 [sp + 0x10]\n  1461: u64 [sp + 0xa0] = a2\n  1465: ra = 22, jump @9\n      : @36 [@dyn 11] (gas: 3)\n  1470: a0 = sp + 0x80\n  1474: a1 = 0x40\n  1477: ra = 24, jump @7\n      : @37 [@dyn 12] (gas: 12)\n  1482: a0 = u64 [sp + 0x98]\n  1486: a1 = u64 [sp + 0x90]\n  1490: a2 = u64 [sp + 0x88]\n  1494: s1 = u64 [sp + 0x80]\n  1498: a0 = a0 | a2\n  1501: a2 = s1 | a1\n  1504: a2 = a2 | a0\n  1507: a2 = a2 >> 0x20\n  1510: a0 = a0 | a1\n  1513: a0 = a0 << 0x20\n  1516: a0 = a0 | a2\n  1519: jump @42 if a0 == 0\n      : @38 (gas: 1)\n  1522: trap\n      : @39 (gas: 4)\n  1523: a1 = 0x20070\n  1528: i32 a1 = a1 + 0\n  1530: a0 = 0x1\n  1533: jump @48\n      : @40 (gas: 4)\n  1536: a1 = 0x20070\n  1541: i32 a1 = a1 + 0\n  1543: a0 = 0x1\n  1546: jump @48\n      : @41 (gas: 4)\n  1549: a1 = 0x20070\n  1554: i32 a1 = a1 + 0\n  1556: a0 = 0x1\n  1559: jump @48\n      : @42 (gas: 3)\n  1562: a0 = s1\n  1564: a1 = 0\n  1566: ra = 26, jump @15\n      : @43 [@dyn 13] (gas: 7)\n  1571: i32 a0 = a0 + 0\n  1573: a1 = 0\n  1575: a2 = 0\n  1577: ecalli 2 // 'call_data_copy'\n  1579: a0 = sp + 0x60\n  1582: a1 = 0x80\n  1586: ra = 28, jump @7\n      : @44 [@dyn 14] (gas: 13)\n  1591: a0 = u64 [sp + 0x78]\n  1594: a4 = 0x30090\n  1599: u64 [sp + 0x38] = a4\n  1602: a1 = u64 [sp + 0x70]\n  1605: a2 = u64 [sp + 0x68]\n  1608: a3 = u64 [sp + 0x60]\n  1611: u64 [0x300a8] = a0\n  1616: u64 [0x300a0] = a1\n  1621: u64 [0x30098] = a2\n  1626: u64 [0x30090] = a3\n  1631: a0 = sp + 0x40\n  1634: a1 = 0xa0\n  1638: ra = 30, jump @7\n      : @45 [@dyn 15] (gas: 10)\n  1643: a0 = u64 [sp + 0x58]\n  1646: a1 = u64 [sp + 0x50]\n  1649: a2 = u64 [sp + 0x48]\n  1652: a3 = u64 [sp + 0x40]\n  1655: a4 = u64 [sp + 0x38]\n  1658: u64 [a4 + 0x38] = a0\n  1661: u64 [a4 + 0x30] = a1\n  1664: u64 [a4 + 0x28] = a2\n  1667: u64 [a4 + 0x20] = a3\n  1670: jump @5\n      : @46 (gas: 3)\n  1673: a0 = s1\n  1675: a1 = 0\n  1677: ra = 32, jump @15\n      : @47 [@dyn 16] (gas: 6)\n  1682: i32 a1 = a0 + 0\n  1684: a0 = 0\n  1686: a2 = 0\n  1688: ra = 0x22\n  1691: ecalli 14 // 'seal_return'\n  1693: jump @49\n      : @48 (gas: 4)\n  1695: a2 = 0\n  1697: ra = 0x22\n  1700: ecalli 14 // 'seal_return'\n  1702: fallthrough\n      : @49 [@dyn 17] (gas: 19)\n  1703: sp = sp + 0xfffffffffffff808\n  1707: a0 = sp + 0x700\n  1711: u64 [a0 + 0xf0] = ra\n  1715: u64 [a0 + 0xe8] = s0\n  1719: u64 [a0 + 0xe0] = s1\n  1723: s0 = sp + 0x7f8\n  1727: sp = sp + 0xfffffffffffffbd8\n  1731: sp = sp & 0xffffffffffffffe0\n  1734: s1 = sp\n  1736: a2 = s1 + 0x7ff\n  1740: a2 = a2 + 0x19\n  1743: u64 [a2 + 288] = 0\n  1747: u64 [a2 + 280] = 0\n  1751: u64 [a2 + 264] = 0x80\n  1757: a0 = 0x40\n  1760: a1 = s1 + 0x7ff\n  1764: a1 = a1 + 0x121\n  1768: u64 [a2 + 272] = 0\n  1772: ra = 36, jump @9\n      : @50 [@dyn 18] (gas: 4)\n  1777: a0 = 0x20064\n  1782: u64 [s1 + 0x98] = a0\n  1786: a0 = i32 [0x20064]\n  1791: jump @52 if a0 >=u 4\n      : @51 (gas: 1)\n  1795: jump @261\n      : @52 (gas: 6)\n  1798: a0 = s1 + 0x1000\n  1802: i32 a0 = a0 + 0xfffffffffffff940\n  1806: a1 = 0\n  1808: ra = 0x26\n  1811: ecalli 3 // 'call_data_load'\n  1813: fallthrough\n      : @53 [@dyn 19] (gas: 4)\n  1814: a2 = s1 + 0x7ff\n  1818: a2 = a2 + 0x19\n  1821: a0 = i32 [a2 + 0x144]\n  1825: jump @55 if a0 != 2205082048\n      : @54 (gas: 1)\n  1832: jump @193\n      : @55 (gas: 1)\n  1835: jump @117 if a0 == 2399083160\n      : @56 (gas: 1)\n  1843: jump @168 if a0 == 2915661614\n      : @57 (gas: 1)\n  1851: jump @133 if a0 == 3265688288\n      : @58 (gas: 1)\n  1859: jump @80 if a0 == 4015848332\n      : @59 (gas: 1)\n  1867: jump @107 if a0 == 4142735383\n      : @60 (gas: 1)\n  1875: jump @93 if a0 == 4236126317\n      : @61 (gas: 1)\n  1883: jump @124 if a0 != 1302766934\n      : @62 (gas: 9)\n  1891: u64 [a2 + 416] = 0\n  1895: u64 [a2 + 408] = 0\n  1899: u64 [a2 + 400] = 0\n  1903: u64 [a2 + 392] = 0\n  1907: a0 = s1 + 0x1000\n  1911: i32 a0 = a0 + 0xfffffffffffff9a0\n  1915: ra = 0x28\n  1918: ecalli 17 // 'value_transferred'\n  1920: fallthrough\n      : @63 [@dyn 20] (gas: 4)\n  1921: a3 = s1 + 0x7ff\n  1925: a3 = a3 + 0x19\n  1928: a4 = a3 + 0x100\n  1932: t0 = 42, jump @443\n      : @64 [@dyn 21] (gas: 1)\n  1937: jump @66 if a0 == 0\n      : @65 (gas: 1)\n  1940: jump @200\n      : @66 (gas: 3)\n  1943: a0 = u64 [s1 + 0x98]\n  1947: a0 = i32 [a0]\n  1949: jump @68 if a0 >u 35\n      : @67 (gas: 1)\n  1953: jump @201\n      : @68 (gas: 2)\n  1956: a0 = s1 + 0x1e0\n  1960: ra = 44, jump @278\n      : @69 [@dyn 22] (gas: 11)\n  1965: a3 = s1 + 0x100\n  1969: a0 = u64 [a3 + 0xe0]\n  1973: a1 = u64 [a3 + 0xe8]\n  1977: a2 = u32 [s1 + 0x1f0]\n  1981: u64 [s1 + 472] = 0\n  1985: u64 [a3 + 0xd0] = a2\n  1989: u64 [a3 + 0xc8] = a1\n  1993: a1 = s1 + 0x1c0\n  1997: u64 [a3 + 0xc0] = a0\n  2001: a0 = 0\n  2003: ra = 46, jump @9\n      : @70 [@dyn 23] (gas: 7)\n  2008: u64 [s1 + 440] = 0\n  2012: u64 [s1 + 432] = 0\n  2016: u64 [s1 + 424] = 0\n  2020: a0 = 0x20\n  2023: a1 = s1 + 0x1a0\n  2027: u64 [s1 + 416] = 0\n  2031: ra = 48, jump @9\n      : @71 [@dyn 24] (gas: 2)\n  2036: a1 = i32 [0x20068]\n  2041: jump @73 if a1 >u 63\n      : @72 (gas: 2)\n  2045: u32 [0x20068] = 0x40\n  2051: fallthrough\n      : @73 (gas: 13)\n  2052: a0 = sp + 0xffffffffffffffe0\n  2055: a2 = a0 & 0xffffffffffffffe0\n  2058: u64 [s1 + 0x98] = a2\n  2062: sp = a2\n  2064: a0 = 0x20070\n  2069: i32 a0 = a0 + 0\n  2071: i32 a2 = a2 + 0\n  2073: a1 = 0x40\n  2076: ra = 0x32\n  2079: ecalli 9 // 'hash_keccak_256'\n  2081: a3 = u64 [s1 + 0x98]\n  2085: t0 = 0x34\n  2088: jump @439\n      : @74 [@dyn 25] (gas: 2)\n  2091: a3 = u64 [s1 + 0x98]\n  2095: t0 = 52, jump @439\n      : @75 [@dyn 26] (gas: 8)\n  2100: u64 [a5 + 0xc0] = a3\n  2104: u64 [a5 + 0xb8] = a2\n  2108: u64 [a5 + 0xb0] = a1\n  2112: u64 [a5 + 0xa8] = a0\n  2116: a0 = s1 + 0x180\n  2120: a1 = s1 + 0x7ff\n  2124: a1 = a1 + 0x1c1\n  2128: ra = 54, jump @11\n      : @76 [@dyn 27] (gas: 11)\n  2133: a0 = u64 [s1 + 0x198]\n  2137: u64 [s1 + 0x98] = a0\n  2141: a0 = u64 [s1 + 0x190]\n  2145: u64 [s1 + 0x90] = a0\n  2149: a0 = u64 [s1 + 0x188]\n  2153: u64 [s1 + 0x88] = a0\n  2157: a0 = u64 [s1 + 0x180]\n  2161: u64 [s1 + 0x80] = a0\n  2165: a0 = s1 + 0x160\n  2169: a1 = 0x40\n  2172: ra = 56, jump @7\n      : @77 [@dyn 28] (gas: 6)\n  2177: a4 = s1 + 0x100\n  2181: a0 = u64 [a4 + 0x78]\n  2184: a1 = u64 [a4 + 0x70]\n  2187: a2 = u64 [a4 + 0x68]\n  2190: a3 = u64 [a4 + 0x60]\n  2193: t0 = 58, jump @437\n      : @78 [@dyn 29] (gas: 1)\n  2198: jump @199 if a0 != 0\n      : @79 (gas: 14)\n  2202: a0 = u64 [s1 + 0x80]\n  2206: a2 = s1 + 0x100\n  2210: u64 [a2 + 0x40] = a0\n  2213: a0 = u64 [s1 + 0x88]\n  2217: u64 [a2 + 0x48] = a0\n  2220: a0 = u64 [s1 + 0x90]\n  2224: u64 [a2 + 0x50] = a0\n  2227: a1 = s1 + 0x140\n  2231: a0 = u64 [s1 + 0x98]\n  2235: u64 [a2 + 0x58] = a0\n  2238: a0 = a3\n  2240: u64 [s1 + 0x98] = a3\n  2244: ra = 0x6c\n  2247: jump @9\n      : @80 (gas: 8)\n  2250: u64 [a2 + 896] = 0\n  2254: u64 [a2 + 888] = 0\n  2258: u64 [a2 + 880] = 0\n  2262: u64 [a2 + 872] = 0\n  2266: a0 = s1 + 0x1000\n  2270: i32 a0 = a0 + 0xfffffffffffffb80\n  2274: ecalli 17 // 'value_transferred'\n  2276: fallthrough\n      : @81 (gas: 11)\n  2277: a3 = s1 + 0x7ff\n  2281: a3 = a3 + 0x19\n  2284: a4 = a3 + 0x300\n  2288: a0 = u64 [a4 + 0x78]\n  2291: a1 = u64 [a4 + 0x80]\n  2295: a2 = u64 [a4 + 0x70]\n  2298: a3 = u64 [a4 + 0x68]\n  2301: a1 = a1 | a2\n  2304: a0 = a0 | a3\n  2307: a0 = a0 | a1\n  2310: jump @202 if a0 != 0\n      : @82 (gas: 3)\n  2314: a0 = u64 [s1 + 0x98]\n  2318: a0 = i32 [a0]\n  2320: jump @203 if a0 <=u 35\n      : @83 (gas: 2)\n  2325: a0 = s1 + 0x7a0\n  2329: ra = 60, jump @278\n      : @84 [@dyn 30] (gas: 10)\n  2334: a1 = s1 + 0x700\n  2338: a0 = u64 [a1 + 0xb8]\n  2342: u64 [s1 + 0x98] = a0\n  2346: a0 = u64 [a1 + 0xb0]\n  2350: u64 [s1 + 0x90] = a0\n  2354: a0 = u64 [a1 + 0xa8]\n  2358: u64 [s1 + 0x88] = a0\n  2362: a0 = u64 [a1 + 0xa0]\n  2366: u64 [s1 + 0x80] = a0\n  2370: ra = 62, jump @0\n      : @85 [@dyn 31] (gas: 14)\n  2375: a1 = u64 [0x300b8]\n  2380: u64 [s1 + 0x78] = a1\n  2383: a1 = u64 [0x300b0]\n  2388: u64 [s1 + 0x70] = a1\n  2391: a0 = u32 [0x300c0]\n  2396: u64 [s1 + 0x68] = a0\n  2399: a0 = 0x30070\n  2404: u64 [s1 + 0x60] = a0\n  2407: i32 a0 = a0 + 0\n  2409: ra = 0x40\n  2412: ecalli 5 // 'caller'\n  2414: a2 = u64 [s1 + 0x60]\n  2417: t0 = 0x42\n  2420: jump @438\n      : @86 [@dyn 32] (gas: 2)\n  2423: a2 = u64 [s1 + 0x60]\n  2426: t0 = 66, jump @438\n      : @87 [@dyn 33] (gas: 9)\n  2431: a2 = u64 [s1 + 0x68]\n  2434: a1 = a1 ^ a2\n  2437: a2 = u64 [s1 + 0x70]\n  2440: a0 = a0 ^ a2\n  2443: a0 = a0 | a1\n  2446: a1 = u64 [s1 + 0x78]\n  2449: a1 = a1 ^ a3\n  2452: a0 = a0 | a1\n  2455: jump @204 if a0 != 0\n      : @88 (gas: 11)\n  2459: a0 = u64 [s1 + 0x80]\n  2463: u64 [s1 + 0x740] = a0\n  2467: a0 = u64 [s1 + 0x88]\n  2471: u64 [s1 + 0x748] = a0\n  2475: a0 = u64 [s1 + 0x90]\n  2479: u64 [s1 + 0x750] = a0\n  2483: a0 = s1 + 0x760\n  2487: a1 = s1 + 0x740\n  2491: a2 = u64 [s1 + 0x98]\n  2495: u64 [s1 + 0x758] = a2\n  2499: ra = 68, jump @311\n      : @89 [@dyn 34] (gas: 11)\n  2504: a0 = u64 [s1 + 0x778]\n  2508: u64 [s1 + 0x98] = a0\n  2512: a0 = u64 [s1 + 0x770]\n  2516: u64 [s1 + 0x90] = a0\n  2520: a0 = u64 [s1 + 0x768]\n  2524: u64 [s1 + 0x88] = a0\n  2528: a0 = u64 [s1 + 0x760]\n  2532: u64 [s1 + 0x80] = a0\n  2536: a0 = s1 + 0x720\n  2540: a1 = 0x40\n  2543: ra = 70, jump @7\n      : @90 [@dyn 35] (gas: 6)\n  2548: a4 = s1 + 0x700\n  2552: a0 = u64 [a4 + 0x38]\n  2555: a1 = u64 [a4 + 0x30]\n  2558: a2 = u64 [a4 + 0x28]\n  2561: a3 = u64 [a4 + 0x20]\n  2564: t0 = 72, jump @437\n      : @91 [@dyn 36] (gas: 1)\n  2569: jump @199 if a0 != 0\n      : @92 (gas: 14)\n  2573: a0 = u64 [s1 + 0x80]\n  2577: a2 = s1 + 0x700\n  2581: u64 [a2] = a0\n  2583: a0 = u64 [s1 + 0x88]\n  2587: u64 [a2 + 0x8] = a0\n  2590: a0 = u64 [s1 + 0x90]\n  2594: u64 [a2 + 0x10] = a0\n  2597: a1 = s1 + 0x700\n  2601: a0 = u64 [s1 + 0x98]\n  2605: u64 [a2 + 0x18] = a0\n  2608: a0 = a3\n  2610: u64 [s1 + 0x98] = a3\n  2614: ra = 0x6c\n  2617: jump @9\n      : @93 (gas: 8)\n  2620: u64 [a2 + 960] = 0\n  2624: u64 [a2 + 952] = 0\n  2628: u64 [a2 + 944] = 0\n  2632: u64 [a2 + 936] = 0\n  2636: a0 = s1 + 0x1000\n  2640: i32 a0 = a0 + 0xfffffffffffffbc0\n  2644: ecalli 17 // 'value_transferred'\n  2646: fallthrough\n      : @94 (gas: 11)\n  2647: a3 = s1 + 0x7ff\n  2651: a3 = a3 + 0x19\n  2654: a4 = a3 + 0x300\n  2658: a0 = u64 [a4 + 0xb8]\n  2662: a1 = u64 [a4 + 0xc0]\n  2666: a2 = u64 [a4 + 0xb0]\n  2670: a3 = u64 [a4 + 0xa8]\n  2674: a1 = a1 | a2\n  2677: a0 = a0 | a3\n  2680: a0 = a0 | a1\n  2683: jump @208 if a0 != 0\n      : @95 (gas: 3)\n  2687: a0 = u64 [s1 + 0x98]\n  2691: a0 = i32 [a0]\n  2693: jump @209 if a0 <=u 35\n      : @96 (gas: 3)\n  2698: a0 = s1 + 0x7ff\n  2702: a0 = a0 + 0x101\n  2706: ra = 74, jump @278\n      : @97 [@dyn 37] (gas: 13)\n  2711: a3 = s1 + 0x7ff\n  2715: a3 = a3 + 0x19\n  2718: a0 = u64 [a3 + 0xe8]\n  2722: a1 = u64 [a3 + 0xf0]\n  2726: a2 = u32 [a3 + 0xf8]\n  2730: u64 [a3 + 224] = 0\n  2734: u64 [a3 + 0xd8] = a2\n  2738: u64 [a3 + 0xd0] = a1\n  2742: a1 = s1 + 0x7ff\n  2746: a1 = a1 + 0xe1\n  2750: u64 [a3 + 0xc8] = a0\n  2754: a0 = 0\n  2756: ra = 76, jump @9\n      : @98 [@dyn 38] (gas: 11)\n  2761: a0 = s1 + 0x7ff\n  2765: a0 = a0 + 0x19\n  2768: u64 [a0 + 192] = 0\n  2772: u64 [a0 + 184] = 0\n  2776: u64 [a0 + 176] = 0\n  2780: a2 = a0\n  2782: a0 = 0x20\n  2785: a1 = s1 + 0x7ff\n  2789: a1 = a1 + 0xc1\n  2793: u64 [a2 + 168] = 0\n  2797: ra = 78, jump @9\n      : @99 [@dyn 39] (gas: 2)\n  2802: a1 = i32 [0x20068]\n  2807: jump @101 if a1 >u 63\n      : @100 (gas: 2)\n  2811: u32 [0x20068] = 0x40\n  2817: fallthrough\n      : @101 (gas: 13)\n  2818: a0 = sp + 0xffffffffffffffe0\n  2821: a2 = a0 & 0xffffffffffffffe0\n  2824: u64 [s1 + 0x98] = a2\n  2828: sp = a2\n  2830: a0 = 0x20070\n  2835: i32 a0 = a0 + 0\n  2837: i32 a2 = a2 + 0\n  2839: a1 = 0x40\n  2842: ra = 0x50\n  2845: ecalli 9 // 'hash_keccak_256'\n  2847: a3 = u64 [s1 + 0x98]\n  2851: t0 = 0x52\n  2854: jump @440\n      : @102 [@dyn 40] (gas: 2)\n  2857: a3 = u64 [s1 + 0x98]\n  2861: t0 = 82, jump @440\n      : @103 [@dyn 41] (gas: 10)\n  2866: a5 = a4 + 0x300\n  2870: u64 [a5 + 0xe0] = a3\n  2874: u64 [a5 + 0xd8] = a2\n  2878: u64 [a5 + 0xd0] = a1\n  2882: u64 [a5 + 0xc8] = a0\n  2886: a0 = s1 + 0x7ff\n  2890: a0 = a0 + 0xa1\n  2894: a1 = s1 + 0x7ff\n  2898: a1 = a1 + 0x3e1\n  2902: ra = 84, jump @11\n      : @104 [@dyn 42] (gas: 14)\n  2907: a1 = s1 + 0x7ff\n  2911: a1 = a1 + 0x19\n  2914: a0 = u64 [a1 + 0xa0]\n  2918: u64 [s1 + 0x98] = a0\n  2922: a0 = u64 [a1 + 0x98]\n  2926: u64 [s1 + 0x90] = a0\n  2930: a0 = u64 [a1 + 0x90]\n  2934: u64 [s1 + 0x88] = a0\n  2938: a0 = u64 [a1 + 0x88]\n  2942: u64 [s1 + 0x80] = a0\n  2946: a0 = s1 + 0x7ff\n  2950: a0 = a0 + 0x81\n  2954: a1 = 0x40\n  2957: ra = 86, jump @7\n      : @105 [@dyn 43] (gas: 14)\n  2962: a3 = s1 + 0x7ff\n  2966: a3 = a3 + 0x19\n  2969: a0 = u64 [a3 + 0x80]\n  2973: a1 = u64 [a3 + 0x78]\n  2976: a2 = u64 [a3 + 0x70]\n  2979: a4 = u64 [a3 + 0x68]\n  2982: a0 = a0 | a2\n  2985: a2 = a4 | a1\n  2988: a2 = a2 | a0\n  2991: a2 = a2 >> 0x20\n  2994: a0 = a0 | a1\n  2997: a0 = a0 << 0x20\n  3000: a0 = a0 | a2\n  3003: jump @199 if a0 != 0\n      : @106 (gas: 14)\n  3007: a0 = u64 [s1 + 0x80]\n  3011: u64 [a3 + 0x48] = a0\n  3014: a0 = u64 [s1 + 0x88]\n  3018: u64 [a3 + 0x50] = a0\n  3021: a0 = u64 [s1 + 0x90]\n  3025: u64 [a3 + 0x58] = a0\n  3028: a1 = s1 + 0x7ff\n  3032: a1 = a1 + 0x61\n  3035: a0 = u64 [s1 + 0x98]\n  3039: u64 [a3 + 0x60] = a0\n  3042: a0 = a4\n  3044: u64 [s1 + 0x98] = a4\n  3048: ra = 0x6c\n  3051: jump @9\n      : @107 (gas: 9)\n  3054: u64 [a2 + 928] = 0\n  3058: u64 [a2 + 920] = 0\n  3062: u64 [a2 + 912] = 0\n  3066: u64 [a2 + 904] = 0\n  3070: a0 = s1 + 0x1000\n  3074: i32 a0 = a0 + 0xfffffffffffffba0\n  3078: ra = 0x58\n  3081: ecalli 17 // 'value_transferred'\n  3083: fallthrough\n      : @108 [@dyn 44] (gas: 4)\n  3084: a3 = s1 + 0x7ff\n  3088: a3 = a3 + 0x19\n  3091: a4 = a3 + 0x300\n  3095: t0 = 90, jump @443\n      : @109 [@dyn 45] (gas: 1)\n  3100: jump @210 if a0 != 0\n      : @110 (gas: 3)\n  3104: a0 = u64 [s1 + 0x98]\n  3108: a0 = i32 [a0]\n  3110: jump @211 if a0 <=u 35\n      : @111 (gas: 3)\n  3115: a0 = s1 + 0x7ff\n  3119: a0 = a0 + 0x41\n  3122: ra = 92, jump @278\n      : @112 [@dyn 46] (gas: 17)\n  3127: a4 = s1 + 0x7ff\n  3131: a4 = a4 + 0x19\n  3134: a2 = u64 [a4 + 0x28]\n  3137: a0 = u64 [a4 + 0x30]\n  3140: a1 = u64 [a4 + 0x38]\n  3143: a3 = u64 [a4 + 0x40]\n  3146: u64 [a4] = a3\n  3148: u64 [a4 + 0xfffffffffffffff8] = a1\n  3151: a1 = s1 + 0x1000\n  3155: u64 [a1 + 0xfffffffffffff808] = a0\n  3159: a0 = s1 + 0x7ff\n  3163: a0 = a0 + 0x21\n  3166: a1 = s1 + 0x7ff\n  3170: a1 = a1 + 0x1\n  3173: a3 = s1 + 0x1000\n  3177: u64 [a3 + 0xfffffffffffff800] = a2\n  3181: ra = 94, jump @379\n      : @113 [@dyn 47] (gas: 13)\n  3186: a1 = s1 + 0x7ff\n  3190: a1 = a1 + 0x19\n  3193: a0 = u64 [a1 + 0x20]\n  3196: u64 [s1 + 0x98] = a0\n  3200: a0 = u64 [a1 + 0x18]\n  3203: u64 [s1 + 0x90] = a0\n  3207: a0 = u64 [a1 + 0x10]\n  3210: u64 [s1 + 0x88] = a0\n  3214: a0 = u64 [a1 + 0x8]\n  3217: u64 [s1 + 0x80] = a0\n  3221: a0 = s1 + 0x7e0\n  3225: a1 = 0x40\n  3228: ra = 96, jump @7\n      : @114 [@dyn 48] (gas: 6)\n  3233: a4 = s1 + 0x700\n  3237: a0 = u64 [a4 + 0xf8]\n  3241: a1 = u64 [a4 + 0xf0]\n  3245: a2 = u64 [a4 + 0xe8]\n  3249: a3 = u64 [a4 + 0xe0]\n  3253: t0 = 98, jump @437\n      : @115 [@dyn 49] (gas: 1)\n  3258: jump @199 if a0 != 0\n      : @116 (gas: 14)\n  3262: a0 = u64 [s1 + 0x80]\n  3266: a2 = s1 + 0x700\n  3270: u64 [a2 + 0xc0] = a0\n  3274: a0 = u64 [s1 + 0x88]\n  3278: u64 [a2 + 0xc8] = a0\n  3282: a0 = u64 [s1 + 0x90]\n  3286: u64 [a2 + 0xd0] = a0\n  3290: a1 = s1 + 0x7c0\n  3294: a0 = u64 [s1 + 0x98]\n  3298: u64 [a2 + 0xd8] = a0\n  3302: a0 = a3\n  3304: u64 [s1 + 0x98] = a3\n  3308: ra = 0x6c\n  3311: jump @9\n      : @117 (gas: 8)\n  3314: u64 [a2 + 576] = 0\n  3318: u64 [a2 + 568] = 0\n  3322: u64 [a2 + 560] = 0\n  3326: u64 [a2 + 552] = 0\n  3330: a0 = s1 + 0x1000\n  3334: i32 a0 = a0 + 0xfffffffffffffa40\n  3338: ecalli 17 // 'value_transferred'\n  3340: fallthrough\n      : @118 (gas: 11)\n  3341: a3 = s1 + 0x7ff\n  3345: a3 = a3 + 0x19\n  3348: a4 = a3 + 0x200\n  3352: a0 = u64 [a4 + 0x38]\n  3355: a1 = u64 [a4 + 0x40]\n  3358: a2 = u64 [a4 + 0x30]\n  3361: a3 = u64 [a4 + 0x28]\n  3364: a1 = a1 | a2\n  3367: a0 = a0 | a3\n  3370: a0 = a0 | a1\n  3373: jump @212 if a0 != 0\n      : @119 (gas: 3)\n  3377: a0 = u64 [s1 + 0x98]\n  3381: a0 = i32 [a0]\n  3383: jump @213 if a0 <=u 3\n      : @120 (gas: 3)\n  3388: a0 = s1 + 0x2a0\n  3392: a1 = 0x40\n  3395: ra = 100, jump @7\n      : @121 [@dyn 50] (gas: 10)\n  3400: a1 = s1 + 0x200\n  3404: a0 = u64 [a1 + 0xb8]\n  3408: u64 [s1 + 0x98] = a0\n  3412: a0 = u64 [a1 + 0xb0]\n  3416: u64 [s1 + 0x90] = a0\n  3420: a0 = u64 [a1 + 0xa8]\n  3424: u64 [s1 + 0x80] = a0\n  3428: a0 = u64 [a1 + 0xa0]\n  3432: u64 [s1 + 0x88] = a0\n  3436: ra = 102, jump @0\n      : @122 [@dyn 51] (gas: 13)\n  3441: a0 = u64 [s1 + 0x98]\n  3445: a1 = u64 [s1 + 0x80]\n  3449: a0 = a0 | a1\n  3452: a1 = u64 [s1 + 0x88]\n  3456: a4 = a1\n  3458: a2 = u64 [s1 + 0x90]\n  3462: a1 = a1 | a2\n  3465: a1 = a1 | a0\n  3468: a1 = a1 >> 0x20\n  3471: a0 = a0 | a2\n  3474: a0 = a0 << 0x20\n  3477: a0 = a0 | a1\n  3480: jump @199 if a0 != 0\n      : @123 (gas: 13)\n  3484: a2 = u64 [0x30090]\n  3489: a1 = u64 [0x30098]\n  3494: a3 = u64 [0x300a0]\n  3499: a0 = u64 [0x300a8]\n  3504: a5 = s1 + 0x200\n  3508: u64 [a5 + 0x98] = a0\n  3512: u64 [a5 + 0x90] = a3\n  3516: u64 [a5 + 0x88] = a1\n  3520: a1 = s1 + 0x280\n  3524: u64 [a5 + 0x80] = a2\n  3528: a0 = a4\n  3530: ra = 0xce\n  3534: jump @9\n      : @124 (gas: 1)\n  3537: jump @214 if a0 != 1872738698\n      : @125 (gas: 8)\n  3545: u64 [a2 + 480] = 0\n  3549: u64 [a2 + 472] = 0\n  3553: u64 [a2 + 464] = 0\n  3557: u64 [a2 + 456] = 0\n  3561: a0 = s1 + 0x1000\n  3565: i32 a0 = a0 + 0xfffffffffffff9e0\n  3569: ecalli 17 // 'value_transferred'\n  3571: fallthrough\n      : @126 (gas: 11)\n  3572: a3 = s1 + 0x7ff\n  3576: a3 = a3 + 0x19\n  3579: a4 = a3 + 0x100\n  3583: a0 = u64 [a4 + 0xd8]\n  3587: a1 = u64 [a4 + 0xe0]\n  3591: a2 = u64 [a4 + 0xd0]\n  3595: a3 = u64 [a4 + 0xc8]\n  3599: a1 = a1 | a2\n  3602: a0 = a0 | a3\n  3605: a0 = a0 | a1\n  3608: jump @218 if a0 != 0\n      : @127 (gas: 3)\n  3612: a0 = u64 [s1 + 0x98]\n  3616: a0 = i32 [a0]\n  3618: jump @219 if a0 <=u 3\n      : @128 (gas: 17)\n  3623: a0 = s1 + 0x1000\n  3627: i32 a0 = a0 + 0xfffffffffffffa00\n  3631: ecalli 0 // 'balance'\n  3632: a0 = s1 + 0x7ff\n  3636: a0 = a0 + 0x19\n  3639: a1 = u64 [a0 + 0x200]\n  3643: u64 [s1 + 0x98] = a1\n  3647: a2 = a0 + 0x100\n  3651: a1 = u64 [a2 + 0xf8]\n  3655: u64 [s1 + 0x90] = a1\n  3659: a1 = u64 [a2 + 0xf0]\n  3663: u64 [s1 + 0x88] = a1\n  3667: a0 = u64 [a2 + 0xe8]\n  3671: u64 [s1 + 0x80] = a0\n  3675: a0 = s1 + 0x220\n  3679: a1 = 0x40\n  3682: ra = 104, jump @7\n      : @129 [@dyn 52] (gas: 6)\n  3687: a4 = s1 + 0x200\n  3691: a0 = u64 [a4 + 0x38]\n  3694: a1 = u64 [a4 + 0x30]\n  3697: a2 = u64 [a4 + 0x28]\n  3700: a3 = u64 [a4 + 0x20]\n  3703: t0 = 106, jump @437\n      : @130 [@dyn 53] (gas: 1)\n  3708: jump @199 if a0 != 0\n      : @131 (gas: 13)\n  3712: a0 = u64 [s1 + 0x80]\n  3716: a2 = s1 + 0x200\n  3720: u64 [a2] = a0\n  3722: a0 = u64 [s1 + 0x88]\n  3726: u64 [a2 + 0x8] = a0\n  3729: a0 = u64 [s1 + 0x90]\n  3733: u64 [a2 + 0x10] = a0\n  3736: a1 = s1 + 0x200\n  3740: a0 = u64 [s1 + 0x98]\n  3744: u64 [a2 + 0x18] = a0\n  3747: a0 = a3\n  3749: u64 [s1 + 0x98] = a3\n  3753: ra = 108, jump @9\n      : @132 [@dyn 54] (gas: 4)\n  3758: a1 = 0x20\n  3761: a0 = u64 [s1 + 0x98]\n  3765: ra = 0xd0\n  3769: jump @15\n      : @133 (gas: 9)\n  3772: u64 [a2 + 672] = 0\n  3776: u64 [a2 + 664] = 0\n  3780: u64 [a2 + 656] = 0\n  3784: u64 [a2 + 648] = 0\n  3788: a0 = s1 + 0x1000\n  3792: i32 a0 = a0 + 0xfffffffffffffaa0\n  3796: ra = 0x6e\n  3799: ecalli 17 // 'value_transferred'\n  3801: fallthrough\n      : @134 [@dyn 55] (gas: 4)\n  3802: a3 = s1 + 0x7ff\n  3806: a3 = a3 + 0x19\n  3809: a4 = a3 + 0x200\n  3813: t0 = 112, jump @443\n      : @135 [@dyn 56] (gas: 1)\n  3818: jump @220 if a0 != 0\n      : @136 (gas: 3)\n  3822: a0 = u64 [s1 + 0x98]\n  3826: a0 = i32 [a0]\n  3828: jump @221 if a0 <=u 67\n      : @137 (gas: 2)\n  3833: a0 = s1 + 0x6e0\n  3837: ra = 114, jump @278\n      : @138 [@dyn 57] (gas: 25)\n  3842: a1 = s1 + 0x600\n  3846: a0 = u64 [a1 + 0xf8]\n  3850: u64 [s1 + 0x20] = a0\n  3853: a0 = u64 [a1 + 0xf0]\n  3857: u64 [s1 + 0x58] = a0\n  3860: a0 = u64 [a1 + 0xe8]\n  3864: u64 [s1 + 0x70] = a0\n  3867: a0 = u64 [a1 + 0xe0]\n  3871: u64 [s1 + 0x78] = a0\n  3874: a0 = s1 + 0x1000\n  3878: i32 a0 = a0 + 0xfffffffffffffac0\n  3882: a1 = 0x24\n  3885: ecalli 3 // 'call_data_load'\n  3887: a0 = s1 + 0x7ff\n  3891: a0 = a0 + 0x19\n  3894: a2 = a0 + 0x200\n  3898: a1 = u64 [a2 + 0xc0]\n  3902: u64 [s1 + 0x98] = a1\n  3906: a1 = u64 [a2 + 0xb8]\n  3910: u64 [s1 + 0x90] = a1\n  3914: a1 = u64 [a2 + 0xb0]\n  3918: u64 [s1 + 0x88] = a1\n  3922: a0 = u64 [a2 + 0xa8]\n  3926: u64 [s1 + 0x80] = a0\n  3930: ra = 116, jump @0\n      : @139 [@dyn 58] (gas: 11)\n  3935: a1 = u64 [0x300b8]\n  3940: u64 [s1 + 0x68] = a1\n  3943: a1 = u64 [0x300b0]\n  3948: u64 [s1 + 0x50] = a1\n  3951: a0 = u32 [0x300c0]\n  3956: u64 [s1 + 0x48] = a0\n  3959: a0 = 0x30070\n  3964: u64 [s1 + 0x60] = a0\n  3967: i32 a0 = a0 + 0\n  3969: ecalli 5 // 'caller'\n  3971: fallthrough\n      : @140 (gas: 23)\n  3972: a0 = u64 [s1 + 0x60]\n  3975: t0 = u64 [a0 + 0x8]\n  3978: a4 = u64 [a0]\n  3980: a5 = u32 [a0 + 0x10]\n  3983: a0 = reverse t0\n  3985: a1 = a0 >> 0x20\n  3988: a2 = reverse a4\n  3990: a3 = a2 << 0x20\n  3993: a1 = a1 | a3\n  3996: a0 = a0 << 0x20\n  3999: a3 = reverse a5\n  4001: a3 = a3 >> 0x20\n  4004: a0 = a0 | a3\n  4007: a2 = a2 >> 0x20\n  4010: a3 = u64 [s1 + 0x48]\n  4013: a2 = a2 ^ a3\n  4016: a3 = u64 [s1 + 0x50]\n  4019: a0 = a0 ^ a3\n  4022: a0 = a0 | a2\n  4025: a2 = u64 [s1 + 0x68]\n  4028: a1 = a1 ^ a2\n  4031: a0 = a0 | a1\n  4034: jump @222 if a0 != 0\n      : @141 (gas: 11)\n  4038: u64 [s1 + 0x30] = a5\n  4041: u64 [s1 + 0x38] = t0\n  4044: u64 [s1 + 0x40] = a4\n  4047: a0 = u64 [s1 + 0x90]\n  4051: a1 = u64 [s1 + 0x80]\n  4055: a0 = a0 | a1\n  4058: a1 = u64 [s1 + 0x98]\n  4062: a2 = u64 [s1 + 0x88]\n  4066: a1 = a1 | a2\n  4069: a0 = a0 | a1\n  4072: jump @226 if a0 == 0\n      : @142 (gas: 14)\n  4076: a0 = u64 [s1 + 0x58]\n  4079: a0 = a0 << 0x20\n  4082: a2 = a0 >> 0x20\n  4085: u64 [s1 + 1720] = 0\n  4089: a0 = u64 [s1 + 0x78]\n  4092: a3 = s1 + 0x600\n  4096: u64 [a3 + 0xa0] = a0\n  4100: a0 = u64 [s1 + 0x70]\n  4103: u64 [a3 + 0xa8] = a0\n  4107: a1 = s1 + 0x6a0\n  4111: u64 [s1 + 0x48] = a2\n  4114: u64 [a3 + 0xb0] = a2\n  4118: a0 = 0\n  4120: ra = 118, jump @9\n      : @143 [@dyn 59] (gas: 7)\n  4125: u64 [s1 + 1688] = 0\n  4129: u64 [s1 + 1680] = 0\n  4133: u64 [s1 + 1672] = 0\n  4137: a0 = 0x20\n  4140: a1 = s1 + 0x680\n  4144: u64 [s1 + 1664] = 0\n  4148: ra = 120, jump @9\n      : @144 [@dyn 60] (gas: 4)\n  4153: a0 = 0x20068\n  4158: u64 [s1 + 0x68] = a0\n  4161: a0 = i32 [0x20068]\n  4166: jump @146 if a0 >u 63\n      : @145 (gas: 3)\n  4170: a1 = u64 [s1 + 0x68]\n  4173: u32 [a1 + 0] = 0x40\n  4176: fallthrough\n      : @146 (gas: 15)\n  4177: a0 = sp + 0xffffffffffffffe0\n  4180: a2 = a0 & 0xffffffffffffffe0\n  4183: u64 [s1 + 0x18] = a2\n  4186: sp = a2\n  4188: a0 = 0x20070\n  4193: u64 [s1 + 0x28] = a0\n  4196: i32 a0 = a0 + 0\n  4198: i32 a2 = a2 + 0\n  4200: a1 = 0x40\n  4203: u64 [s1 + 0x50] = a0\n  4206: ra = 0x7a\n  4209: ecalli 9 // 'hash_keccak_256'\n  4211: a3 = u64 [s1 + 0x18]\n  4214: t0 = 0x7c\n  4217: jump @440\n      : @147 [@dyn 61] (gas: 2)\n  4220: a3 = u64 [s1 + 0x18]\n  4223: t0 = 124, jump @440\n      : @148 [@dyn 62] (gas: 9)\n  4228: a5 = a4 + 0x200\n  4232: u64 [a5 + 0xe0] = a3\n  4236: u64 [a5 + 0xd8] = a2\n  4240: u64 [a5 + 0xd0] = a1\n  4244: u64 [a5 + 0xc8] = a0\n  4248: a0 = s1 + 0x660\n  4252: a1 = s1 + 0x7ff\n  4256: a1 = a1 + 0x2e1\n  4260: ra = 126, jump @11\n      : @149 [@dyn 63] (gas: 21)\n  4265: a1 = s1 + 0x600\n  4269: a0 = u64 [a1 + 0x78]\n  4272: t0 = u64 [s1 + 0x660]\n  4276: a2 = u64 [a1 + 0x70]\n  4279: a3 = u64 [a1 + 0x68]\n  4282: a5 = u64 [s1 + 0x98]\n  4286: a4 = a0 ^ a5\n  4289: a1 = a0 <u a5\n  4292: a0 = u64 [s1 + 0x90]\n  4296: a5 = a2 <u a0\n  4299: a5 = a1 if a4 != 0\n  4302: a1 = u64 [s1 + 0x88]\n  4306: t1 = a3 ^ a1\n  4309: a3 = a3 <u a1\n  4312: a1 = u64 [s1 + 0x80]\n  4316: a1 = t0 <u a1\n  4319: a1 = a3 if t1 != 0\n  4322: a0 = a0 ^ a2\n  4325: a0 = a0 | a4\n  4328: a1 = a5 if a0 != 0\n  4331: jump @230 if a1 != 0\n      : @150 (gas: 10)\n  4335: a0 = u64 [s1 + 0x78]\n  4338: u64 [s1 + 0x640] = a0\n  4342: a0 = u64 [s1 + 0x70]\n  4345: u64 [s1 + 0x648] = a0\n  4349: a0 = u64 [s1 + 0x58]\n  4352: u64 [s1 + 0x650] = a0\n  4356: a0 = s1 + 0x640\n  4360: a1 = u64 [s1 + 0x20]\n  4363: u64 [s1 + 0x658] = a1\n  4367: ra = 128, jump @354\n      : @151 [@dyn 64] (gas: 11)\n  4373: u64 [s1 + 1592] = 0\n  4377: a0 = u64 [s1 + 0x48]\n  4380: a2 = s1 + 0x600\n  4384: u64 [a2 + 0x30] = a0\n  4387: a0 = u64 [s1 + 0x70]\n  4390: u64 [a2 + 0x28] = a0\n  4393: a1 = s1 + 0x620\n  4397: a0 = u64 [s1 + 0x78]\n  4400: u64 [a2 + 0x20] = a0\n  4403: a0 = 0\n  4405: ra = 130, jump @9\n      : @152 [@dyn 65] (gas: 7)\n  4411: u64 [s1 + 1560] = 0\n  4415: u64 [s1 + 1552] = 0\n  4419: u64 [s1 + 1544] = 0\n  4423: a0 = 0x20\n  4426: a1 = s1 + 0x600\n  4430: u64 [s1 + 1536] = 0\n  4434: ra = 132, jump @9\n      : @153 [@dyn 66] (gas: 7)\n  4440: a0 = sp + 0xffffffffffffffe0\n  4443: a0 = a0 & 0xffffffffffffffe0\n  4446: u64 [s1 + 0x58] = a0\n  4449: sp = a0\n  4451: a0 = u64 [s1 + 0x68]\n  4454: a0 = i32 [a0]\n  4456: jump @155 if a0 >u 63\n      : @154 (gas: 3)\n  4460: a1 = u64 [s1 + 0x68]\n  4463: u32 [a1 + 0] = 0x40\n  4466: fallthrough\n      : @155 (gas: 12)\n  4467: a0 = sp + 0xffffffffffffffe0\n  4470: a0 = a0 & 0xffffffffffffffe0\n  4473: u64 [s1 + 0x20] = a0\n  4476: sp = a0\n  4478: i32 a2 = a0 + 0\n  4480: a1 = 0x40\n  4483: a0 = u64 [s1 + 0x50]\n  4486: ra = 0x86\n  4490: ecalli 9 // 'hash_keccak_256'\n  4492: a3 = u64 [s1 + 0x20]\n  4495: t0 = 0x88\n  4499: jump @441\n      : @156 [@dyn 67] (gas: 2)\n  4502: a3 = u64 [s1 + 0x20]\n  4505: t0 = 136, jump @441\n      : @157 [@dyn 68] (gas: 7)\n  4511: a1 = u64 [s1 + 0x58]\n  4514: u64 [a1 + 0x18] = a3\n  4517: u64 [a1 + 0x10] = a2\n  4520: u64 [a1 + 0x8] = a4\n  4523: u64 [a1] = a0\n  4525: a0 = s1 + 0x5e0\n  4529: ra = 138, jump @11\n      : @158 [@dyn 69] (gas: 20)\n  4535: a3 = u64 [s1 + 0x5e0]\n  4539: a0 = u64 [s1 + 0x5e8]\n  4543: a1 = u64 [s1 + 0x5f0]\n  4547: a2 = u64 [s1 + 0x5f8]\n  4551: a4 = u64 [s1 + 0x98]\n  4555: u64 [s1 + 0x598] = a4\n  4559: a4 = u64 [s1 + 0x90]\n  4563: u64 [s1 + 0x590] = a4\n  4567: a4 = u64 [s1 + 0x88]\n  4571: u64 [s1 + 0x588] = a4\n  4575: a4 = u64 [s1 + 0x80]\n  4579: u64 [s1 + 0x580] = a4\n  4583: u64 [s1 + 0x5b8] = a2\n  4587: u64 [s1 + 0x5b0] = a1\n  4591: u64 [s1 + 0x5a8] = a0\n  4595: a0 = s1 + 0x5c0\n  4599: a1 = s1 + 0x5a0\n  4603: a2 = s1 + 0x580\n  4607: u64 [s1 + 0x5a0] = a3\n  4611: ra = 140, jump @282\n      : @159 [@dyn 70] (gas: 16)\n  4617: a4 = s1 + 0x500\n  4621: a0 = u64 [a4 + 0xd8]\n  4625: a1 = u64 [a4 + 0xd0]\n  4629: a2 = u64 [a4 + 0xc8]\n  4633: a3 = u64 [a4 + 0xc0]\n  4637: a4 = s1 + 0x7ff\n  4641: a4 = a4 + 0x19\n  4644: u64 [a4 + 0x300] = a0\n  4648: a0 = a4 + 0x200\n  4652: u64 [a0 + 0xf8] = a1\n  4656: u64 [a0 + 0xf0] = a2\n  4660: u64 [a0 + 0xe8] = a3\n  4664: a1 = s1 + 0x7ff\n  4668: a1 = a1 + 0x301\n  4672: a0 = u64 [s1 + 0x58]\n  4675: ra = 142, jump @12\n      : @160 [@dyn 71] (gas: 51)\n  4681: ecalli 11 // 'ref_time_left'\n  4683: a2 = u64 [s1 + 0x60]\n  4686: a1 = u64 [s1 + 0x38]\n  4689: u64 [a2 + 0x8] = a1\n  4692: a1 = u64 [s1 + 0x40]\n  4695: u64 [a2] = a1\n  4697: a1 = u64 [s1 + 0x30]\n  4700: u32 [a2 + 0x10] = a1\n  4703: a0 = a0 >u 0x8fc\n  4707: a1 = -a0\n  4709: a3 = s1 + 0x7ff\n  4713: a3 = a3 + 0x19\n  4716: a4 = a3 + 0x300\n  4720: u64 [a4 + 0x60] = a1\n  4723: u64 [a4 + 0x58] = a1\n  4726: u64 [a4 + 0x50] = a1\n  4729: u64 [a4 + 0x48] = a1\n  4732: a1 = u64 [s1 + 0x98]\n  4736: u64 [a4 + 0x20] = a1\n  4739: a1 = u64 [s1 + 0x90]\n  4743: u64 [a4 + 0x18] = a1\n  4746: a1 = u64 [s1 + 0x88]\n  4750: u64 [a4 + 0x10] = a1\n  4753: a1 = u64 [s1 + 0x80]\n  4757: u64 [a4 + 0x8] = a1\n  4760: u32 [a3 + 808] = 0\n  4764: a1 = a2 << 0x20\n  4767: a1 = a1 >> 0x20\n  4770: a0 = a0 << 0x23\n  4773: a0 = a0 | a1\n  4776: a1 = s1 + 0x7ff\n  4780: a1 = a1 + 0x321\n  4784: a1 = a1 << 0x20\n  4787: a1 = a1 >> 0x20\n  4790: a2 = s1 + 0x7ff\n  4794: a2 = a2 + 0x361\n  4798: a2 = a2 << 0x20\n  4801: a3 = a2 | a1\n  4804: a4 = u64 [s1 + 0x28]\n  4807: a4 = a4 << 0x20\n  4810: a4 = a4 >> 0x20\n  4813: a1 = s1 + 0x7ff\n  4817: a1 = a1 + 0x341\n  4821: a1 = a1 << 0x20\n  4824: a5 = a1 | a4\n  4827: a1 = 0xffffffffffffffff\n  4830: a2 = 0xffffffffffffffff\n  4833: ecalli 1 // 'call'\n  4835: u64 [s1 + 0x60] = a0\n  4838: a0 = s1 + 0x560\n  4842: ra = 144, jump @289\n      : @161 [@dyn 72] (gas: 2)\n  4848: a0 = u64 [s1 + 0x60]\n  4851: jump @231 if a0 != 0\n      : @162 (gas: 3)\n  4855: a0 = s1 + 0x520\n  4859: a1 = 0x40\n  4862: ra = 146, jump @7\n      : @163 [@dyn 73] (gas: 6)\n  4868: a4 = s1 + 0x500\n  4872: a0 = u64 [a4 + 0x38]\n  4875: a1 = u64 [a4 + 0x30]\n  4878: a2 = u64 [a4 + 0x28]\n  4881: a3 = u64 [a4 + 0x20]\n  4884: t0 = 148, jump @437\n      : @164 [@dyn 74] (gas: 1)\n  4890: jump @199 if a0 != 0\n      : @165 (gas: 13)\n  4894: a0 = u64 [s1 + 0x80]\n  4898: a2 = s1 + 0x500\n  4902: u64 [a2] = a0\n  4904: a0 = u64 [s1 + 0x88]\n  4908: u64 [a2 + 0x8] = a0\n  4911: a0 = u64 [s1 + 0x90]\n  4915: u64 [a2 + 0x10] = a0\n  4918: a1 = s1 + 0x500\n  4922: a0 = u64 [s1 + 0x98]\n  4926: u64 [a2 + 0x18] = a0\n  4929: a0 = a3\n  4931: u64 [s1 + 0x98] = a3\n  4935: ra = 150, jump @9\n      : @166 [@dyn 75] (gas: 21)\n  4941: u64 [s1 + 1240] = 0\n  4945: a0 = u64 [s1 + 0x48]\n  4948: a4 = s1 + 0x400\n  4952: u64 [a4 + 0xd0] = a0\n  4956: a0 = u64 [s1 + 0x70]\n  4959: u64 [a4 + 0xc8] = a0\n  4963: a0 = u64 [0x20000]\n  4968: a1 = u64 [0x20008]\n  4973: a2 = u64 [0x20010]\n  4978: a3 = u64 [s1 + 0x78]\n  4981: u64 [a4 + 0xc0] = a3\n  4985: u64 [a4 + 0xf8] = a0\n  4989: u64 [a4 + 0xf0] = a1\n  4993: u64 [a4 + 0xe8] = a2\n  4997: a0 = u64 [0x20018]\n  5002: a1 = 0x20\n  5005: a2 = s1 + 0x4e0\n  5009: a3 = s1 + 0x4c0\n  5013: u64 [a4 + 0xe0] = a0\n  5017: a0 = u64 [s1 + 0x98]\n  5021: ra = 152, jump @13\n      : @167 [@dyn 76] (gas: 5)\n  5027: a0 = 0\n  5029: a1 = u64 [s1 + 0x50]\n  5032: a2 = 0\n  5034: ecalli 14 // 'seal_return'\n  5036: jump @263\n      : @168 (gas: 3)\n  5039: a0 = u64 [s1 + 0x98]\n  5043: a0 = i32 [a0]\n  5045: jump @235 if a0 <=u 67\n      : @169 (gas: 2)\n  5050: a0 = s1 + 0x460\n  5054: ra = 154, jump @278\n      : @170 [@dyn 77] (gas: 25)\n  5060: a1 = s1 + 0x400\n  5064: a0 = u64 [a1 + 0x78]\n  5067: u64 [s1 + 0x60] = a0\n  5070: a0 = u64 [a1 + 0x70]\n  5073: u64 [s1 + 0x68] = a0\n  5076: a0 = u64 [a1 + 0x68]\n  5079: u64 [s1 + 0x90] = a0\n  5083: a0 = u64 [a1 + 0x60]\n  5086: u64 [s1 + 0x98] = a0\n  5090: a0 = s1 + 0x1000\n  5094: i32 a0 = a0 + 0xfffffffffffffa60\n  5098: a1 = 0x24\n  5101: ecalli 3 // 'call_data_load'\n  5103: a1 = s1 + 0x7ff\n  5107: a1 = a1 + 0x19\n  5110: a2 = a1 + 0x200\n  5114: a0 = u64 [a2 + 0x60]\n  5117: u64 [s1 + 0x88] = a0\n  5121: a0 = u64 [a2 + 0x58]\n  5124: u64 [s1 + 0x80] = a0\n  5128: a0 = u64 [a2 + 0x50]\n  5131: u64 [s1 + 0x78] = a0\n  5134: a0 = u64 [a2 + 0x48]\n  5137: u64 [s1 + 0x70] = a0\n  5140: ra = 156, jump @0\n      : @171 [@dyn 78] (gas: 14)\n  5146: a1 = u64 [0x300b8]\n  5151: u64 [s1 + 0x58] = a1\n  5154: a1 = u64 [0x300b0]\n  5159: u64 [s1 + 0x50] = a1\n  5162: a0 = u32 [0x300c0]\n  5167: u64 [s1 + 0x48] = a0\n  5170: a0 = 0x30070\n  5175: u64 [s1 + 0x40] = a0\n  5178: i32 a0 = a0 + 0\n  5180: ra = 0x9e\n  5184: ecalli 5 // 'caller'\n  5186: a2 = u64 [s1 + 0x40]\n  5189: t0 = 0xa0\n  5193: jump @438\n      : @172 [@dyn 79] (gas: 2)\n  5196: a2 = u64 [s1 + 0x40]\n  5199: t0 = 160, jump @438\n      : @173 [@dyn 80] (gas: 9)\n  5205: a2 = u64 [s1 + 0x48]\n  5208: a1 = a1 ^ a2\n  5211: a2 = u64 [s1 + 0x50]\n  5214: a0 = a0 ^ a2\n  5217: a0 = a0 | a1\n  5220: a1 = u64 [s1 + 0x58]\n  5223: a1 = a1 ^ a3\n  5226: a0 = a0 | a1\n  5229: jump @236 if a0 != 0\n      : @174 (gas: 10)\n  5233: a0 = s1 + 0x7ff\n  5237: a0 = a0 + 0x19\n  5240: u64 [a0 + 640] = 0\n  5244: u64 [a0 + 632] = 0\n  5248: u64 [a0 + 624] = 0\n  5252: u64 [a0 + 616] = 0\n  5256: a0 = s1 + 0x1000\n  5260: i32 a0 = a0 + 0xfffffffffffffa80\n  5264: ecalli 17 // 'value_transferred'\n  5266: fallthrough\n      : @175 (gas: 19)\n  5267: a2 = s1 + 0x7ff\n  5271: a2 = a2 + 0x19\n  5274: a3 = a2 + 0x200\n  5278: a0 = u64 [a3 + 0x80]\n  5282: a1 = u64 [a3 + 0x70]\n  5285: t0 = u64 [a2 + 0x268]\n  5289: a2 = u64 [a3 + 0x78]\n  5292: t1 = u64 [s1 + 0x88]\n  5296: a0 = a0 ^ t1\n  5299: a3 = u64 [s1 + 0x78]\n  5302: a1 = a1 ^ a3\n  5305: a0 = a0 | a1\n  5308: a5 = u64 [s1 + 0x80]\n  5312: a1 = a2 ^ a5\n  5315: a4 = u64 [s1 + 0x70]\n  5318: a2 = t0 ^ a4\n  5321: a1 = a1 | a2\n  5324: a0 = a0 | a1\n  5327: jump @240 if a0 != 0\n      : @176 (gas: 4)\n  5331: a0 = a4 | a5\n  5334: a1 = a3 | t1\n  5337: a0 = a0 | a1\n  5340: jump @244 if a0 == 0\n      : @177 (gas: 11)\n  5344: a0 = u64 [s1 + 0x98]\n  5348: a2 = s1 + 0x400\n  5352: u64 [a2] = a0\n  5354: a0 = u64 [s1 + 0x90]\n  5358: u64 [a2 + 0x8] = a0\n  5361: a0 = u64 [s1 + 0x60]\n  5364: u64 [a2 + 0x18] = a0\n  5367: a0 = s1 + 0x400\n  5371: a1 = u64 [s1 + 0x68]\n  5374: u64 [a2 + 0x10] = a1\n  5377: ra = 162, jump @354\n      : @178 [@dyn 81] (gas: 14)\n  5383: a0 = u64 [s1 + 0x68]\n  5386: a0 = a0 << 0x20\n  5389: a0 = a0 >> 0x20\n  5392: u64 [s1 + 1016] = 0\n  5396: u64 [s1 + 0x50] = a0\n  5399: a2 = s1 + 0x300\n  5403: u64 [a2 + 0xf0] = a0\n  5407: a0 = u64 [s1 + 0x90]\n  5411: u64 [a2 + 0xe8] = a0\n  5415: a1 = s1 + 0x3e0\n  5419: a0 = u64 [s1 + 0x98]\n  5423: u64 [a2 + 0xe0] = a0\n  5427: a0 = 0\n  5429: ra = 164, jump @9\n      : @179 [@dyn 82] (gas: 7)\n  5435: u64 [s1 + 984] = 0\n  5439: u64 [s1 + 976] = 0\n  5443: u64 [s1 + 968] = 0\n  5447: a0 = 0x20\n  5450: a1 = s1 + 0x3c0\n  5454: u64 [s1 + 960] = 0\n  5458: ra = 166, jump @9\n      : @180 [@dyn 83] (gas: 7)\n  5464: a0 = sp + 0xffffffffffffffe0\n  5467: a0 = a0 & 0xffffffffffffffe0\n  5470: u64 [s1 + 0x68] = a0\n  5473: sp = a0\n  5475: a2 = 0x20068\n  5480: a0 = i32 [0x20068]\n  5485: jump @182 if a0 >u 63\n      : @181 (gas: 2)\n  5489: u32 [0x20068] = 0x40\n  5495: fallthrough\n      : @182 (gas: 15)\n  5496: u64 [s1 + 0x48] = a2\n  5499: a0 = sp + 0xffffffffffffffe0\n  5502: a2 = a0 & 0xffffffffffffffe0\n  5505: u64 [s1 + 0x60] = a2\n  5508: sp = a2\n  5510: a0 = 0x20070\n  5515: i32 a0 = a0 + 0\n  5517: i32 a2 = a2 + 0\n  5519: a1 = 0x40\n  5522: u64 [s1 + 0x58] = a0\n  5525: ra = 0xa8\n  5529: ecalli 9 // 'hash_keccak_256'\n  5531: a3 = u64 [s1 + 0x60]\n  5534: t0 = 0xaa\n  5538: jump @441\n      : @183 [@dyn 84] (gas: 2)\n  5541: a3 = u64 [s1 + 0x60]\n  5544: t0 = 170, jump @441\n      : @184 [@dyn 85] (gas: 7)\n  5550: a1 = u64 [s1 + 0x68]\n  5553: u64 [a1 + 0x18] = a3\n  5556: u64 [a1 + 0x10] = a2\n  5559: u64 [a1 + 0x8] = a4\n  5562: u64 [a1] = a0\n  5564: a0 = s1 + 0x3a0\n  5568: ra = 172, jump @11\n      : @185 [@dyn 86] (gas: 38)\n  5574: t2 = u64 [s1 + 0x3b8]\n  5578: a1 = s1 + 0x300\n  5582: a0 = u64 [a1 + 0xb0]\n  5586: a4 = u64 [a1 + 0xa0]\n  5590: a5 = u64 [a1 + 0xa8]\n  5594: a1 = sp + 0xffffffffffffffe0\n  5597: a1 = a1 & 0xffffffffffffffe0\n  5600: sp = a1\n  5602: a3 = u64 [s1 + 0x78]\n  5605: a3 = a3 + a5\n  5608: t0 = u64 [s1 + 0x70]\n  5611: t0 = t0 + a4\n  5614: a4 = t0 <u a4\n  5617: a3 = a3 + a4\n  5620: t1 = a3 ^ a5\n  5623: a2 = a3 <u a5\n  5626: a2 = a4 if t1 == 0\n  5629: a4 = u64 [s1 + 0x80]\n  5633: a4 = a4 + a0\n  5636: a5 = a4 + a2\n  5639: t1 = a5 <u a4\n  5642: ra = u64 [s1 + 0x88]\n  5646: ra = ra + t2\n  5649: a4 = a4 <u a0\n  5652: a4 = a4 + ra\n  5655: ra = a4 + t1\n  5658: t1 = a5 <u a0\n  5661: a4 = t2 ^ ra\n  5664: t2 = ra <u t2\n  5667: t2 = t1 if a4 == 0\n  5670: a0 = a0 ^ a5\n  5673: a0 = a0 | a4\n  5676: t2 = a2 if a0 == 0\n  5679: u64 [a1 + 0x10] = a5\n  5682: u64 [a1 + 0x8] = a3\n  5685: u64 [a1] = t0\n  5687: u64 [a1 + 0x18] = ra\n  5690: jump @249 if t2 != 0\n      : @186 (gas: 2)\n  5694: a0 = u64 [s1 + 0x68]\n  5697: ra = 174, jump @12\n      : @187 [@dyn 87] (gas: 3)\n  5703: a0 = s1 + 0x380\n  5707: a1 = 0x40\n  5710: ra = 176, jump @7\n      : @188 [@dyn 88] (gas: 6)\n  5716: a4 = s1 + 0x300\n  5720: a0 = u64 [a4 + 0x98]\n  5724: a1 = u64 [a4 + 0x90]\n  5728: a2 = u64 [a4 + 0x88]\n  5732: a3 = u64 [a4 + 0x80]\n  5736: t0 = 178, jump @437\n      : @189 [@dyn 89] (gas: 1)\n  5742: jump @199 if a0 != 0\n      : @190 (gas: 12)\n  5746: a0 = u64 [s1 + 0x70]\n  5749: u64 [s1 + 0x360] = a0\n  5753: a0 = u64 [s1 + 0x78]\n  5756: u64 [s1 + 0x368] = a0\n  5760: a0 = u64 [s1 + 0x80]\n  5764: u64 [s1 + 0x370] = a0\n  5768: a1 = s1 + 0x360\n  5772: a0 = u64 [s1 + 0x88]\n  5776: u64 [s1 + 0x378] = a0\n  5780: a0 = a3\n  5782: u64 [s1 + 0x88] = a3\n  5786: ra = 180, jump @9\n      : @191 [@dyn 90] (gas: 21)\n  5792: u64 [s1 + 824] = 0\n  5796: a0 = u64 [s1 + 0x50]\n  5799: a4 = s1 + 0x300\n  5803: u64 [a4 + 0x30] = a0\n  5806: a0 = u64 [s1 + 0x90]\n  5810: u64 [a4 + 0x28] = a0\n  5813: a0 = u64 [0x20020]\n  5818: a1 = u64 [0x20028]\n  5823: a2 = u64 [0x20030]\n  5828: a3 = u64 [s1 + 0x98]\n  5832: u64 [a4 + 0x20] = a3\n  5835: u64 [a4 + 0x58] = a0\n  5838: u64 [a4 + 0x50] = a1\n  5841: u64 [a4 + 0x48] = a2\n  5844: a0 = u64 [0x20038]\n  5849: a1 = 0x20\n  5852: a2 = s1 + 0x340\n  5856: a3 = s1 + 0x320\n  5860: u64 [a4 + 0x40] = a0\n  5863: a0 = u64 [s1 + 0x88]\n  5867: ra = 182, jump @13\n      : @192 [@dyn 91] (gas: 5)\n  5873: a0 = 0\n  5875: a1 = u64 [s1 + 0x58]\n  5878: a2 = 0\n  5880: ecalli 14 // 'seal_return'\n  5882: jump @263\n      : @193 (gas: 8)\n  5885: u64 [a2 + 544] = 0\n  5889: u64 [a2 + 536] = 0\n  5893: u64 [a2 + 528] = 0\n  5897: u64 [a2 + 520] = 0\n  5901: a0 = s1 + 0x1000\n  5905: i32 a0 = a0 + 0xfffffffffffffa20\n  5909: ecalli 17 // 'value_transferred'\n  5911: fallthrough\n      : @194 (gas: 11)\n  5912: a3 = s1 + 0x7ff\n  5916: a3 = a3 + 0x19\n  5919: a4 = a3 + 0x200\n  5923: a0 = u64 [a4 + 0x18]\n  5926: a1 = u64 [a4 + 0x20]\n  5929: a2 = u64 [a4 + 0x10]\n  5932: a3 = u64 [a4 + 0x8]\n  5935: a1 = a1 | a2\n  5938: a0 = a0 | a3\n  5941: a0 = a0 | a1\n  5944: jump @254 if a0 != 0\n      : @195 (gas: 3)\n  5948: a0 = u64 [s1 + 0x98]\n  5952: a0 = i32 [a0]\n  5954: jump @255 if a0 <=u 3\n      : @196 (gas: 3)\n  5959: a0 = s1 + 0x260\n  5963: a1 = 0x40\n  5966: ra = 184, jump @7\n      : @197 [@dyn 92] (gas: 10)\n  5972: a1 = s1 + 0x200\n  5976: a0 = u64 [a1 + 0x78]\n  5979: u64 [s1 + 0x98] = a0\n  5983: a0 = u64 [a1 + 0x70]\n  5986: u64 [s1 + 0x90] = a0\n  5990: a0 = u64 [a1 + 0x68]\n  5993: u64 [s1 + 0x80] = a0\n  5997: a0 = u64 [a1 + 0x60]\n  6000: u64 [s1 + 0x88] = a0\n  6004: ra = 186, jump @0\n      : @198 [@dyn 93] (gas: 13)\n  6010: a0 = u64 [s1 + 0x98]\n  6014: a1 = u64 [s1 + 0x80]\n  6018: a0 = a0 | a1\n  6021: a1 = u64 [s1 + 0x88]\n  6025: a3 = a1\n  6027: a2 = u64 [s1 + 0x90]\n  6031: a1 = a1 | a2\n  6034: a1 = a1 | a0\n  6037: a1 = a1 >> 0x20\n  6040: a0 = a0 | a2\n  6043: a0 = a0 << 0x20\n  6046: a0 = a0 | a1\n  6049: jump @256 if a0 == 0\n      : @199 (gas: 1)\n  6053: trap\n      : @200 (gas: 6)\n  6054: a1 = 0x20070\n  6059: i32 a1 = a1 + 0\n  6061: a0 = 0x1\n  6064: a2 = 0\n  6066: ecalli 14 // 'seal_return'\n  6068: jump @263\n      : @201 (gas: 6)\n  6071: a1 = 0x20070\n  6076: i32 a1 = a1 + 0\n  6078: a0 = 0x1\n  6081: a2 = 0\n  6083: ecalli 14 // 'seal_return'\n  6085: jump @263\n      : @202 (gas: 6)\n  6088: a1 = 0x20070\n  6093: i32 a1 = a1 + 0\n  6095: a0 = 0x1\n  6098: a2 = 0\n  6100: ecalli 14 // 'seal_return'\n  6102: jump @263\n      : @203 (gas: 6)\n  6105: a1 = 0x20070\n  6110: i32 a1 = a1 + 0\n  6112: a0 = 0x1\n  6115: a2 = 0\n  6117: ecalli 14 // 'seal_return'\n  6119: jump @263\n      : @204 (gas: 8)\n  6122: u64 [s1 + 1936] = 0\n  6126: u64 [s1 + 1928] = 0\n  6130: u64 [s1 + 1920] = 0\n  6134: a0 = 0xc39fa00400000000\n  6144: a1 = s1 + 0x780\n  6148: u64 [s1 + 0x798] = a0\n  6152: a0 = 0\n  6154: ra = 188, jump @9\n      : @205 [@dyn 94] (gas: 2)\n  6160: a1 = i32 [0x20068]\n  6165: jump @207 if a1 >u 31\n      : @206 (gas: 3)\n  6169: u32 [0x20068] = 0x20\n  6175: a1 = 0x20070\n  6180: jump @248\n      : @207 (gas: 2)\n  6183: a1 = 0x20070\n  6188: jump @248\n      : @208 (gas: 6)\n  6191: a1 = 0x20070\n  6196: i32 a1 = a1 + 0\n  6198: a0 = 0x1\n  6201: a2 = 0\n  6203: ecalli 14 // 'seal_return'\n  6205: jump @263\n      : @209 (gas: 6)\n  6208: a1 = 0x20070\n  6213: i32 a1 = a1 + 0\n  6215: a0 = 0x1\n  6218: a2 = 0\n  6220: ecalli 14 // 'seal_return'\n  6222: jump @263\n      : @210 (gas: 6)\n  6225: a1 = 0x20070\n  6230: i32 a1 = a1 + 0\n  6232: a0 = 0x1\n  6235: a2 = 0\n  6237: ecalli 14 // 'seal_return'\n  6239: jump @263\n      : @211 (gas: 6)\n  6242: a1 = 0x20070\n  6247: i32 a1 = a1 + 0\n  6249: a0 = 0x1\n  6252: a2 = 0\n  6254: ecalli 14 // 'seal_return'\n  6256: jump @263\n      : @212 (gas: 6)\n  6259: a1 = 0x20070\n  6264: i32 a1 = a1 + 0\n  6266: a0 = 0x1\n  6269: a2 = 0\n  6271: ecalli 14 // 'seal_return'\n  6273: jump @263\n      : @213 (gas: 6)\n  6276: a1 = 0x20070\n  6281: i32 a1 = a1 + 0\n  6283: a0 = 0x1\n  6286: a2 = 0\n  6288: ecalli 14 // 'seal_return'\n  6290: jump @263\n      : @214 (gas: 1)\n  6293: jump @260 if a0 != 753512109\n      : @215 (gas: 10)\n  6301: a0 = s1 + 0x7ff\n  6305: a0 = a0 + 0x19\n  6308: u64 [a0 + 352] = 0\n  6312: u64 [a0 + 344] = 0\n  6316: u64 [a0 + 336] = 0\n  6320: u64 [a0 + 328] = 0\n  6324: a0 = s1 + 0x1000\n  6328: i32 a0 = a0 + 0xfffffffffffff960\n  6332: ecalli 17 // 'value_transferred'\n  6334: fallthrough\n      : @216 (gas: 11)\n  6335: a3 = s1 + 0x7ff\n  6339: a3 = a3 + 0x19\n  6342: a4 = a3 + 0x100\n  6346: a0 = u64 [a4 + 0x58]\n  6349: a1 = u64 [a4 + 0x60]\n  6352: a2 = u64 [a4 + 0x50]\n  6355: a3 = u64 [a4 + 0x48]\n  6358: a1 = a1 | a2\n  6361: a0 = a0 | a3\n  6364: a0 = a0 | a1\n  6367: jump @264 if a0 == 0\n      : @217 (gas: 6)\n  6371: a1 = 0x20070\n  6376: i32 a1 = a1 + 0\n  6378: a0 = 0x1\n  6381: a2 = 0\n  6383: ecalli 14 // 'seal_return'\n  6385: jump @263\n      : @218 (gas: 6)\n  6388: a1 = 0x20070\n  6393: i32 a1 = a1 + 0\n  6395: a0 = 0x1\n  6398: a2 = 0\n  6400: ecalli 14 // 'seal_return'\n  6402: jump @263\n      : @219 (gas: 6)\n  6405: a1 = 0x20070\n  6410: i32 a1 = a1 + 0\n  6412: a0 = 0x1\n  6415: a2 = 0\n  6417: ecalli 14 // 'seal_return'\n  6419: jump @263\n      : @220 (gas: 6)\n  6422: a1 = 0x20070\n  6427: i32 a1 = a1 + 0\n  6429: a0 = 0x1\n  6432: a2 = 0\n  6434: ecalli 14 // 'seal_return'\n  6436: jump @263\n      : @221 (gas: 6)\n  6439: a1 = 0x20070\n  6444: i32 a1 = a1 + 0\n  6446: a0 = 0x1\n  6449: a2 = 0\n  6451: ecalli 14 // 'seal_return'\n  6453: jump @263\n      : @222 (gas: 8)\n  6456: u64 [s1 + 1744] = 0\n  6460: u64 [s1 + 1736] = 0\n  6464: u64 [s1 + 1728] = 0\n  6468: a0 = 0xc39fa00400000000\n  6478: a1 = s1 + 0x6c0\n  6482: u64 [s1 + 0x6d8] = a0\n  6486: a0 = 0\n  6488: ra = 190, jump @9\n      : @223 [@dyn 95] (gas: 2)\n  6494: a1 = i32 [0x20068]\n  6499: jump @225 if a1 >u 31\n      : @224 (gas: 3)\n  6503: u32 [0x20068] = 0x20\n  6509: a1 = 0x20070\n  6514: jump @248\n      : @225 (gas: 2)\n  6517: a1 = 0x20070\n  6522: jump @248\n      : @226 (gas: 8)\n  6525: u64 [s1 + 1168] = 0\n  6529: u64 [s1 + 1160] = 0\n  6533: u64 [s1 + 1152] = 0\n  6537: a0 = 0x2c5211c600000000\n  6547: a1 = s1 + 0x480\n  6551: u64 [s1 + 0x498] = a0\n  6555: a0 = 0\n  6557: ra = 192, jump @9\n      : @227 [@dyn 96] (gas: 2)\n  6563: a1 = i32 [0x20068]\n  6568: jump @229 if a1 >u 31\n      : @228 (gas: 3)\n  6572: u32 [0x20068] = 0x20\n  6578: a1 = 0x20070\n  6583: jump @248\n      : @229 (gas: 2)\n  6586: a1 = 0x20070\n  6591: jump @248\n      : @230 (gas: 9)\n  6594: u64 [s1 + 1200] = 0\n  6598: u64 [s1 + 1192] = 0\n  6602: u64 [s1 + 1184] = 0\n  6606: a0 = 0xf4d678b800000000\n  6616: a1 = s1 + 0x4a0\n  6620: u64 [s1 + 0x4b8] = a0\n  6624: a0 = 0\n  6626: ra = 0xc2\n  6630: jump @9\n      : @231 (gas: 8)\n  6633: u64 [s1 + 1360] = 0\n  6637: u64 [s1 + 1352] = 0\n  6641: u64 [s1 + 1344] = 0\n  6645: a0 = 0x90b8ec1800000000\n  6655: a1 = s1 + 0x540\n  6659: u64 [s1 + 0x558] = a0\n  6663: a0 = 0\n  6665: ra = 194, jump @9\n      : @232 [@dyn 97] (gas: 3)\n  6671: a0 = u64 [s1 + 0x68]\n  6674: a0 = i32 [a0]\n  6676: jump @234 if a0 >u 31\n      : @233 (gas: 3)\n  6680: a1 = u64 [s1 + 0x68]\n  6683: u32 [a1 + 0] = 0x20\n  6686: fallthrough\n      : @234 (gas: 5)\n  6687: a0 = 0x1\n  6690: a2 = 0x4\n  6693: a1 = u64 [s1 + 0x50]\n  6696: ecalli 14 // 'seal_return'\n  6698: fallthrough\n      : @235 (gas: 6)\n  6699: a1 = 0x20070\n  6704: i32 a1 = a1 + 0\n  6706: a0 = 0x1\n  6709: a2 = 0\n  6711: ecalli 14 // 'seal_return'\n  6713: jump @263\n      : @236 (gas: 8)\n  6716: u64 [s1 + 1104] = 0\n  6720: u64 [s1 + 1096] = 0\n  6724: u64 [s1 + 1088] = 0\n  6728: a0 = 0xc39fa00400000000\n  6738: a1 = s1 + 0x440\n  6742: u64 [s1 + 0x458] = a0\n  6746: a0 = 0\n  6748: ra = 196, jump @9\n      : @237 [@dyn 98] (gas: 2)\n  6754: a1 = i32 [0x20068]\n  6759: jump @239 if a1 >u 31\n      : @238 (gas: 3)\n  6763: u32 [0x20068] = 0x20\n  6769: a1 = 0x20070\n  6774: jump @248\n      : @239 (gas: 2)\n  6777: a1 = 0x20070\n  6782: jump @248\n      : @240 (gas: 8)\n  6785: u64 [s1 + 1072] = 0\n  6789: u64 [s1 + 1064] = 0\n  6793: u64 [s1 + 1056] = 0\n  6797: a0 = 0x2c5211c600000000\n  6807: a1 = s1 + 0x420\n  6811: u64 [s1 + 0x438] = a0\n  6815: a0 = 0\n  6817: ra = 198, jump @9\n      : @241 [@dyn 99] (gas: 2)\n  6823: a1 = i32 [0x20068]\n  6828: jump @243 if a1 >u 31\n      : @242 (gas: 3)\n  6832: u32 [0x20068] = 0x20\n  6838: a1 = 0x20070\n  6843: jump @248\n      : @243 (gas: 2)\n  6845: a1 = 0x20070\n  6850: jump @248\n      : @244 (gas: 8)\n  6852: u64 [s1 + 720] = 0\n  6856: u64 [s1 + 712] = 0\n  6860: u64 [s1 + 704] = 0\n  6864: a0 = 0x2c5211c600000000\n  6874: a1 = s1 + 0x2c0\n  6878: u64 [s1 + 0x2d8] = a0\n  6882: a0 = 0\n  6884: ra = 200, jump @9\n      : @245 [@dyn 100] (gas: 2)\n  6890: a1 = i32 [0x20068]\n  6895: jump @247 if a1 >u 31\n      : @246 (gas: 3)\n  6899: u32 [0x20068] = 0x20\n  6905: a1 = 0x20070\n  6910: jump @248\n      : @247 (gas: 2)\n  6912: a1 = 0x20070\n  6917: fallthrough\n      : @248 (gas: 5)\n  6918: i32 a1 = a1 + 0\n  6920: a0 = 0x1\n  6923: a2 = 0x4\n  6926: ecalli 14 // 'seal_return'\n  6928: fallthrough\n      : @249 (gas: 8)\n  6929: u64 [s1 + 784] = 0\n  6933: u64 [s1 + 776] = 0\n  6937: u64 [s1 + 768] = 0\n  6941: a0 = 0x4e487b7100000000\n  6951: a1 = s1 + 0x300\n  6955: u64 [s1 + 0x318] = a0\n  6959: a0 = 0\n  6961: ra = 202, jump @9\n      : @250 [@dyn 101] (gas: 7)\n  6967: u64 [s1 + 760] = 0\n  6971: u64 [s1 + 752] = 0\n  6975: u64 [s1 + 736] = 0x11\n  6980: a0 = 0x4\n  6983: a1 = s1 + 0x2e0\n  6987: u64 [s1 + 744] = 0\n  6991: ra = 204, jump @9\n      : @251 [@dyn 102] (gas: 3)\n  6997: a0 = u64 [s1 + 0x48]\n  7000: a0 = i32 [a0]\n  7002: jump @253 if a0 >u 63\n      : @252 (gas: 3)\n  7006: a1 = u64 [s1 + 0x48]\n  7009: u32 [a1 + 0] = 0x40\n  7012: fallthrough\n      : @253 (gas: 5)\n  7013: a0 = 0x1\n  7016: a2 = 0x24\n  7019: a1 = u64 [s1 + 0x58]\n  7022: ecalli 14 // 'seal_return'\n  7024: fallthrough\n      : @254 (gas: 6)\n  7025: a1 = 0x20070\n  7030: i32 a1 = a1 + 0\n  7032: a0 = 0x1\n  7035: a2 = 0\n  7037: ecalli 14 // 'seal_return'\n  7039: jump @263\n      : @255 (gas: 6)\n  7041: a1 = 0x20070\n  7046: i32 a1 = a1 + 0\n  7048: a0 = 0x1\n  7051: a2 = 0\n  7053: ecalli 14 // 'seal_return'\n  7055: jump @263\n      : @256 (gas: 11)\n  7057: a2 = u64 [0x300b0]\n  7062: a1 = u64 [0x300b8]\n  7067: a0 = u32 [0x300c0]\n  7072: u64 [s1 + 600] = 0\n  7076: a4 = s1 + 0x200\n  7080: u64 [a4 + 0x50] = a0\n  7083: u64 [a4 + 0x48] = a1\n  7086: a1 = s1 + 0x240\n  7090: u64 [a4 + 0x40] = a2\n  7093: a0 = a3\n  7095: ra = 206, jump @9\n      : @257 [@dyn 103] (gas: 3)\n  7101: a1 = 0x20\n  7104: a0 = u64 [s1 + 0x88]\n  7108: ra = 208, jump @15\n      : @258 [@dyn 104] (gas: 2)\n  7114: i32 a1 = a0 + 0\n  7116: fallthrough\n      : @259 (gas: 6)\n  7117: a2 = 0x20\n  7120: a0 = 0\n  7122: ecalli 14 // 'seal_return'\n  7124: a0 = u64 [s1 + 0x98]\n  7128: a0 = i32 [a0]\n  7130: jump @261\n      : @260 (gas: 3)\n  7132: a0 = u64 [s1 + 0x98]\n  7136: a0 = i32 [a0]\n  7138: fallthrough\n      : @261 (gas: 1)\n  7139: jump @263 if a0 == 0\n      : @262 (gas: 6)\n  7142: a1 = 0x20070\n  7147: i32 a1 = a1 + 0\n  7149: a0 = 0x1\n  7152: a2 = 0\n  7154: ecalli 14 // 'seal_return'\n  7156: fallthrough\n      : @263 (gas: 6)\n  7157: a1 = 0x20070\n  7162: i32 a1 = a1 + 0\n  7164: a0 = 0\n  7166: a2 = 0\n  7168: ecalli 14 // 'seal_return'\n  7170: jump @263\n      : @264 (gas: 3)\n  7172: a0 = u64 [s1 + 0x98]\n  7176: a0 = i32 [a0]\n  7178: jump @266 if a0 >u 35\n      : @265 (gas: 6)\n  7182: a1 = 0x20070\n  7187: i32 a1 = a1 + 0\n  7189: a0 = 0x1\n  7192: a2 = 0\n  7194: ecalli 14 // 'seal_return'\n  7196: jump @263\n      : @266 (gas: 2)\n  7198: a0 = s1 + 0x120\n  7202: ra = 210, jump @278\n      : @267 [@dyn 105] (gas: 11)\n  7208: a3 = s1 + 0x100\n  7212: a0 = u64 [a3 + 0x20]\n  7215: a1 = u64 [a3 + 0x28]\n  7218: a2 = u32 [s1 + 0x130]\n  7222: u64 [s1 + 280] = 0\n  7226: u64 [a3 + 0x10] = a2\n  7229: u64 [a3 + 0x8] = a1\n  7232: a1 = s1 + 0x100\n  7236: u64 [a3] = a0\n  7238: a0 = 0\n  7240: ra = 212, jump @9\n      : @268 [@dyn 106] (gas: 7)\n  7246: u64 [s1 + 248] = 0\n  7250: u64 [s1 + 240] = 0\n  7254: u64 [s1 + 224] = 0x1\n  7259: a0 = 0x20\n  7262: a1 = s1 + 0xe0\n  7266: u64 [s1 + 232] = 0\n  7270: ra = 214, jump @9\n      : @269 [@dyn 107] (gas: 4)\n  7276: a0 = 0x20068\n  7281: u64 [s1 + 0x98] = a0\n  7285: a0 = i32 [0x20068]\n  7290: jump @271 if a0 >u 63\n      : @270 (gas: 3)\n  7294: a1 = u64 [s1 + 0x98]\n  7298: u32 [a1 + 0] = 0x40\n  7301: fallthrough\n      : @271 (gas: 14)\n  7302: a0 = sp + 0xffffffffffffffe0\n  7305: a2 = a0 & 0xffffffffffffffe0\n  7308: u64 [s1 + 0x88] = a2\n  7312: sp = a2\n  7314: a0 = 0x20070\n  7319: u64 [s1 + 0x90] = a0\n  7323: i32 a0 = a0 + 0\n  7325: i32 a2 = a2 + 0\n  7327: a1 = 0x40\n  7330: ra = 0xd8\n  7334: ecalli 9 // 'hash_keccak_256'\n  7336: a3 = u64 [s1 + 0x88]\n  7340: t0 = 0xda\n  7344: jump @439\n      : @272 [@dyn 108] (gas: 2)\n  7347: a3 = u64 [s1 + 0x88]\n  7351: t0 = 218, jump @439\n      : @273 [@dyn 109] (gas: 8)\n  7357: u64 [a5 + 0x80] = a3\n  7361: u64 [a5 + 0x78] = a2\n  7364: u64 [a5 + 0x70] = a1\n  7367: u64 [a5 + 0x68] = a0\n  7370: a0 = s1 + 0xc0\n  7374: a1 = s1 + 0x7ff\n  7378: a1 = a1 + 0x181\n  7382: ra = 220, jump @11\n      : @274 [@dyn 110] (gas: 11)\n  7388: a2 = u64 [s1 + 0xc0]\n  7392: a0 = u64 [s1 + 0xc8]\n  7396: a1 = u64 [s1 + 0xd0]\n  7400: a3 = u64 [s1 + 0xd8]\n  7404: u64 [s1 + 0xb8] = a3\n  7408: u64 [s1 + 0xb0] = a1\n  7412: u64 [s1 + 0xa8] = a0\n  7416: a0 = 0x80\n  7420: a1 = s1 + 0xa0\n  7424: u64 [s1 + 0xa0] = a2\n  7428: ra = 222, jump @9\n      : @275 [@dyn 111] (gas: 3)\n  7434: a0 = u64 [s1 + 0x98]\n  7438: a0 = i32 [a0]\n  7440: jump @277 if a0 >u 159\n      : @276 (gas: 5)\n  7445: a1 = u64 [s1 + 0x98]\n  7449: u32 [a1 + 0] = 0xa0\n  7453: a0 = u64 [s1 + 0x90]\n  7457: i32 a1 = a0 + 0x80\n  7461: jump @259\n      : @277 (gas: 3)\n  7464: a0 = u64 [s1 + 0x90]\n  7468: i32 a1 = a0 + 0x80\n  7472: jump @259\n      : @278 (gas: 11)\n  7475: sp = sp + 0xffffffffffffffc0\n  7478: u64 [sp + 0x38] = ra\n  7481: u64 [sp + 0x30] = s0\n  7484: u64 [sp + 0x28] = s1\n  7487: s0 = sp + 0x40\n  7490: sp = sp & 0xffffffffffffffe0\n  7493: s1 = a0\n  7495: i32 a0 = sp + 0\n  7497: a1 = 0x4\n  7500: ecalli 3 // 'call_data_load'\n  7502: fallthrough\n      : @279 (gas: 10)\n  7503: a0 = u64 [sp + 0x10]\n  7506: a1 = u64 [sp + 0x18]\n  7509: a2 = 0x100000000\n  7519: a2 = a2 ^ a0\n  7522: a2 = a2 | a1\n  7525: a3 = a0 >> 0x20\n  7528: a3 = a3 <u 0x1\n  7531: a3 = 0 if a1 != 0\n  7533: a3 = 0 if a2 == 0\n  7535: jump @281 if a3 == 0\n      : @280 (gas: 12)\n  7538: a2 = u64 [sp]\n  7540: a3 = u64 [sp + 0x8]\n  7543: u64 [s1] = a2\n  7545: u64 [s1 + 0x8] = a3\n  7548: u64 [s1 + 0x10] = a0\n  7551: u64 [s1 + 0x18] = a1\n  7554: sp = s0 + 0xffffffffffffffc0\n  7557: ra = u64 [sp + 0x38]\n  7560: s0 = u64 [sp + 0x30]\n  7563: s1 = u64 [sp + 0x28]\n  7566: sp = sp + 0x40\n  7569: ret\n      : @281 (gas: 7)\n  7571: a1 = 0x20070\n  7576: i32 a1 = a1 + 0\n  7578: a0 = 0x1\n  7581: a2 = 0\n  7583: ra = 0xe0\n  7587: ecalli 14 // 'seal_return'\n  7589: fallthrough\n      : @282 [@dyn 112] (gas: 30)\n  7590: sp = sp + 0xffffffffffffff80\n  7593: u64 [sp + 0x78] = ra\n  7596: u64 [sp + 0x70] = s0\n  7599: u64 [sp + 0x68] = s1\n  7602: s0 = sp + 0x80\n  7606: sp = sp & 0xfffffffffffffff0\n  7609: a4 = u64 [a2]\n  7611: a3 = u64 [a1]\n  7613: s1 = u64 [a2 + 0x8]\n  7616: t1 = u64 [a1 + 0x8]\n  7619: t2 = u64 [a2 + 0x10]\n  7622: a5 = u64 [a1 + 0x10]\n  7625: a2 = u64 [a2 + 0x18]\n  7628: a1 = u64 [a1 + 0x18]\n  7631: t0 = t1 ^ s1\n  7634: u64 [sp + 0x8] = s1\n  7637: s1 = t1 <u s1\n  7640: u64 [sp + 0x18] = a4\n  7643: u64 [sp + 0x10] = a3\n  7646: a3 = a3 <u a4\n  7649: u64 [sp] = a3\n  7651: s1 = a3 if t0 == 0\n  7654: a3 = a1 ^ a2\n  7657: ra = a1 <u a2\n  7660: t0 = a5 <u t2\n  7663: ra = t0 if a3 == 0\n  7666: a4 = a5 ^ t2\n  7669: a3 = a3 | a4\n  7672: ra = s1 if a3 == 0\n  7675: jump @284 if ra != 0\n      : @283 (gas: 23)\n  7678: a3 = a5 - t2\n  7681: a1 = a1 - a2\n  7684: a1 = a1 - t0\n  7687: a2 = a3 <u s1\n  7690: a1 = a1 - a2\n  7693: a3 = a3 - s1\n  7696: a2 = u64 [sp + 0x8]\n  7699: a2 = t1 - a2\n  7702: a4 = u64 [sp]\n  7704: a2 = a2 - a4\n  7707: a4 = u64 [sp + 0x18]\n  7710: a5 = u64 [sp + 0x10]\n  7713: a4 = a5 - a4\n  7716: u64 [a0] = a4\n  7718: u64 [a0 + 0x8] = a2\n  7721: u64 [a0 + 0x10] = a3\n  7724: u64 [a0 + 0x18] = a1\n  7727: sp = s0 + 0xffffffffffffff80\n  7730: ra = u64 [sp + 0x78]\n  7733: s0 = u64 [sp + 0x70]\n  7736: s1 = u64 [sp + 0x68]\n  7739: sp = sp + 0x80\n  7743: ret\n      : @284 (gas: 8)\n  7745: u64 [sp + 80] = 0\n  7748: u64 [sp + 72] = 0\n  7751: u64 [sp + 64] = 0\n  7754: a0 = 0x4e487b7100000000\n  7764: a1 = sp + 0x40\n  7767: u64 [sp + 0x58] = a0\n  7770: a0 = 0\n  7772: ra = 226, jump @9\n      : @285 [@dyn 113] (gas: 7)\n  7778: u64 [sp + 56] = 0\n  7781: u64 [sp + 48] = 0\n  7784: u64 [sp + 32] = 0x11\n  7788: a0 = 0x4\n  7791: a1 = sp + 0x20\n  7794: u64 [sp + 40] = 0\n  7797: ra = 228, jump @9\n      : @286 [@dyn 114] (gas: 2)\n  7803: a1 = i32 [0x20068]\n  7808: jump @288 if a1 >u 63\n      : @287 (gas: 2)\n  7812: u32 [0x20068] = 0x40\n  7818: fallthrough\n      : @288 (gas: 7)\n  7819: a1 = 0x20070\n  7824: i32 a1 = a1 + 0\n  7826: a0 = 0x1\n  7829: a2 = 0x24\n  7832: ra = 0xe6\n  7836: ecalli 14 // 'seal_return'\n  7838: fallthrough\n      : @289 [@dyn 115] (gas: 9)\n  7839: sp = sp + 0xffffffffffffff00\n  7843: u64 [sp + 0xf8] = ra\n  7847: u64 [sp + 0xf0] = s0\n  7851: u64 [sp + 0xe8] = s1\n  7855: s0 = sp + 0x100\n  7859: sp = sp & 0xffffffffffffffe0\n  7862: s1 = a0\n  7864: ecalli 13 // 'return_data_size'\n  7866: fallthrough\n      : @290 (gas: 1)\n  7867: jump @304 if a0 == 0\n      : @291 (gas: 6)\n  7871: u64 [sp + 0x10] = s1\n  7874: ecalli 13 // 'return_data_size'\n  7876: s1 = a0\n  7878: a0 = sp + 0xc0\n  7882: a1 = 0x40\n  7885: ra = 232, jump @7\n      : @292 [@dyn 116] (gas: 30)\n  7891: t1 = u64 [sp + 0xd8]\n  7895: t2 = u64 [sp + 0xd0]\n  7899: ra = u64 [sp + 0xc8]\n  7903: t0 = u64 [sp + 0xc0]\n  7907: a0 = s1 + 0x1f\n  7910: u64 [sp + 0x18] = s1\n  7913: a1 = a0 <u s1\n  7916: a0 = a0 & 0xffffffffffffffe0\n  7919: a2 = a0 + 0x3f\n  7922: a0 = a2 <u a0\n  7925: a3 = a1 + a0\n  7928: a2 = a2 & 0xffffffffffffffe0\n  7931: a1 = a3 + ra\n  7934: u64 [sp + 0x38] = t0\n  7937: t0 = t0 + a2\n  7940: a2 = t0 <u a2\n  7943: a1 = a1 + a2\n  7946: a4 = a1 ^ a3\n  7949: a3 = a1 <u a3\n  7952: a3 = a2 if a4 == 0\n  7955: a3 = a3 + t2\n  7958: a4 = a3 <u t2\n  7961: a2 = t1 + a4\n  7964: a5 = a3 >u 0\n  7966: s1 = a2 >u 0\n  7968: s1 = a5 if a2 == 0\n  7971: a5 = a3 | a2\n  7974: a0 = a1 >u 0\n  7976: a0 = s1 if a5 != 0\n  7979: jump @306 if a0 != 0\n      : @293 (gas: 12)\n  7983: a0 = u64 [sp + 0x38]\n  7986: a0 = t0 <u a0\n  7989: a5 = a1 ^ ra\n  7992: s1 = a1 <u ra\n  7995: s1 = a0 if a5 == 0\n  7998: a0 = a2 ^ t1\n  8001: a5 = a2 <u t1\n  8004: a4 = a5 if a0 != 0\n  8007: a5 = a3 ^ t2\n  8010: a0 = a0 | a5\n  8013: a4 = s1 if a0 == 0\n  8016: jump @306 if a4 != 0\n      : @294 (gas: 10)\n  8020: u64 [sp + 0xa0] = t0\n  8024: u64 [sp + 0xa8] = a1\n  8028: u64 [sp + 0xb0] = a3\n  8032: a0 = 0x40\n  8035: a1 = sp + 0xa0\n  8039: u64 [sp + 0xb8] = a2\n  8043: u64 [sp + 0x30] = t1\n  8046: s1 = t2\n  8048: u64 [sp + 0x28] = ra\n  8051: ra = 234, jump @9\n      : @295 [@dyn 117] (gas: 12)\n  8057: a2 = u64 [sp + 0x38]\n  8060: a0 = a2 | s1\n  8063: a1 = u64 [sp + 0x30]\n  8066: a3 = u64 [sp + 0x28]\n  8069: a1 = a1 | a3\n  8072: a0 = a0 | a1\n  8075: a0 = a0 >> 0x20\n  8078: u64 [sp + 0x20] = s1\n  8081: a1 = a1 | s1\n  8084: a1 = a1 << 0x20\n  8087: a1 = a1 | a0\n  8090: jump @303 if a1 != 0\n      : @296 (gas: 8)\n  8094: a0 = a2\n  8096: u64 [sp + 152] = 0\n  8100: u64 [sp + 144] = 0\n  8104: u64 [sp + 136] = 0\n  8108: a1 = sp + 0x80\n  8112: a2 = u64 [sp + 0x18]\n  8115: u64 [sp + 0x80] = a2\n  8119: ra = 236, jump @9\n      : @297 [@dyn 118] (gas: 2)\n  8125: ecalli 13 // 'return_data_size'\n  8127: fallthrough\n      : @298 (gas: 10)\n  8128: a4 = u64 [sp + 0x38]\n  8131: a1 = u64 [sp + 0x20]\n  8134: a2 = u64 [sp + 0x30]\n  8137: a1 = a1 | a2\n  8140: a2 = 0xffffffe0\n  8150: a2 = a4 <u a2\n  8153: a3 = u64 [sp + 0x28]\n  8156: a2 = 0 if a3 != 0\n  8158: a2 = 0 if a1 != 0\n  8160: jump @303 if a2 == 0\n      : @299 (gas: 3)\n  8163: s1 = a0\n  8165: a0 = a0 >> 0x20\n  8168: jump @303 if a0 != 0\n      : @300 (gas: 5)\n  8171: i32 a0 = a4 + 0x20\n  8174: i32 a1 = s1 + 0\n  8176: u64 [sp + 0x18] = a1\n  8179: a1 = s1\n  8181: ra = 238, jump @15\n      : @301 [@dyn 119] (gas: 6)\n  8187: u32 [sp + 0xe0] = s1\n  8191: i32 a0 = a0 + 0\n  8193: i32 a1 = sp + 0xe0\n  8197: a2 = 0\n  8199: ecalli 12 // 'return_data_copy'\n  8201: fallthrough\n      : @302 (gas: 8)\n  8202: a4 = u64 [sp + 0x38]\n  8205: a0 = i32 [sp + 0xe0]\n  8209: s1 = u64 [sp + 0x10]\n  8212: a1 = u64 [sp + 0x30]\n  8215: a2 = u64 [sp + 0x20]\n  8218: a3 = u64 [sp + 0x28]\n  8221: a5 = u64 [sp + 0x18]\n  8224: jump @305 if a0 >=u a5\n      : @303 (gas: 1)\n  8227: trap\n      : @304 (gas: 5)\n  8228: a3 = 0\n  8230: a2 = 0\n  8232: a1 = 0\n  8234: a4 = 0x60\n  8237: fallthrough\n      : @305 (gas: 10)\n  8238: u64 [s1] = a4\n  8240: u64 [s1 + 0x8] = a3\n  8243: u64 [s1 + 0x10] = a2\n  8246: u64 [s1 + 0x18] = a1\n  8249: sp = s0 + 0xffffffffffffff00\n  8253: ra = u64 [sp + 0xf8]\n  8257: s0 = u64 [sp + 0xf0]\n  8261: s1 = u64 [sp + 0xe8]\n  8265: sp = sp + 0x100\n  8269: ret\n      : @306 (gas: 8)\n  8271: u64 [sp + 112] = 0\n  8274: u64 [sp + 104] = 0\n  8277: u64 [sp + 96] = 0\n  8280: a0 = 0x4e487b7100000000\n  8290: a1 = sp + 0x60\n  8293: u64 [sp + 0x78] = a0\n  8296: a0 = 0\n  8298: ra = 240, jump @9\n      : @307 [@dyn 120] (gas: 7)\n  8304: u64 [sp + 88] = 0\n  8307: u64 [sp + 80] = 0\n  8310: u64 [sp + 64] = 0x41\n  8314: a0 = 0x4\n  8317: a1 = sp + 0x40\n  8320: u64 [sp + 72] = 0\n  8323: ra = 242, jump @9\n      : @308 [@dyn 121] (gas: 2)\n  8329: a1 = i32 [0x20068]\n  8334: jump @310 if a1 >u 63\n      : @309 (gas: 2)\n  8338: u32 [0x20068] = 0x40\n  8344: fallthrough\n      : @310 (gas: 7)\n  8345: a1 = 0x20070\n  8350: i32 a1 = a1 + 0\n  8352: a0 = 0x1\n  8355: a2 = 0x24\n  8358: ra = 0xf4\n  8362: ecalli 14 // 'seal_return'\n  8364: fallthrough\n      : @311 [@dyn 122] (gas: 24)\n  8365: sp = sp + 0xfffffffffffffce0\n  8369: a2 = sp + 0x300\n  8373: u64 [a2 + 0x18] = ra\n  8376: u64 [a2 + 0x10] = s0\n  8379: u64 [a2 + 0x8] = s1\n  8382: s0 = sp + 0x320\n  8386: sp = sp & 0xffffffffffffffe0\n  8389: s1 = sp\n  8391: a2 = u64 [a1]\n  8393: a3 = u64 [a1 + 0x8]\n  8396: a4 = u64 [a1 + 0x10]\n  8399: a1 = u64 [a1 + 0x18]\n  8402: u64 [s1 + 0x20] = a0\n  8405: a5 = s1 + 0x100\n  8409: u64 [a5 + 0xf8] = a1\n  8413: u64 [s1 + 0x8] = a4\n  8416: u64 [a5 + 0xf0] = a4\n  8420: u64 [s1 + 0x10] = a3\n  8423: u64 [a5 + 0xe8] = a3\n  8427: a0 = s1 + 0x200\n  8431: a1 = s1 + 0x1e0\n  8435: u64 [s1 + 0x18] = a2\n  8438: u64 [a5 + 0xe0] = a2\n  8442: ra = 246, jump @379\n      : @312 [@dyn 123] (gas: 11)\n  8448: a0 = u64 [s1 + 0x218]\n  8452: u64 [s1 + 0x40] = a0\n  8455: a0 = u64 [s1 + 0x210]\n  8459: u64 [s1 + 0x48] = a0\n  8462: a0 = u64 [s1 + 0x208]\n  8466: u64 [s1 + 0x50] = a0\n  8469: a0 = u64 [s1 + 0x200]\n  8473: u64 [s1 + 0x58] = a0\n  8476: i32 a0 = s1 + 0x220\n  8480: ecalli 0 // 'balance'\n  8481: fallthrough\n      : @313 (gas: 8)\n  8482: a5 = u64 [s1 + 0x238]\n  8486: t1 = u64 [s1 + 0x230]\n  8490: t0 = u64 [s1 + 0x228]\n  8494: ra = u64 [s1 + 0x220]\n  8498: a0 = t0 | a5\n  8501: a1 = ra | t1\n  8504: a0 = a0 | a1\n  8507: jump @347 if a0 == 0\n      : @314 (gas: 51)\n  8511: a0 = a0 <u 0x1\n  8514: u64 [s1 + 0xd8] = a0\n  8518: a1 = clz t1\n  8520: a2 = a1 + 0x40\n  8523: a1 = clz a5\n  8525: a1 = a2 if a5 == 0\n  8528: a2 = clz ra\n  8530: a2 = a2 + 0x40\n  8533: a3 = clz t0\n  8535: a3 = a2 if t0 == 0\n  8538: a2 = a3 + 0x80\n  8542: a4 = t1 | a5\n  8545: a1 = a2 if a4 == 0\n  8548: u64 [s1 + 0x38] = t0\n  8551: u64 [s1 + 0x60] = a5\n  8554: a5 = a2 <u a3\n  8557: a5 = 0 if a4 != 0\n  8559: a3 = a5 >u 0\n  8561: a2 = a1 <u 0xfd\n  8565: a4 = a2 ^ 0x1\n  8568: a3 = a4 if a5 == 0\n  8571: a2 = a3 <u 0x1\n  8574: a2 = a2 + 0xffffffffffffffff\n  8577: t2 = -a3\n  8579: a5 = -a5\n  8581: t0 = a5 - a4\n  8584: a0 = 0xfc - a1\n  8588: u64 [s1 + 0xc0] = t2\n  8592: a1 = t2 >u 0\n  8594: a4 = a2 >u 0\n  8596: u64 [s1 + 0xc8] = a2\n  8600: a4 = a1 if a2 == 0\n  8603: a1 = t0 >u 0\n  8605: u64 [s1 + 0xd0] = a0\n  8609: a0 = a0 <u 0x100\n  8613: a0 = a0 ^ 0x1\n  8616: a0 = a1 if t0 != 0\n  8619: a0 = a4 if a3 != 0\n  8622: a2 = u64 [s1 + 0xd8]\n  8626: a2 = a2 | a0\n  8629: a4 = u64 [s1 + 0x60]\n  8632: a4 = 0 if a2 != 0\n  8634: u64 [s1 + 0x28] = t1\n  8637: a1 = t1\n  8639: a1 = 0 if a2 != 0\n  8641: a3 = u64 [s1 + 0x38]\n  8644: a3 = 0 if a2 != 0\n  8646: a5 = ra\n  8648: a5 = 0 if a2 != 0\n  8650: u64 [s1 + 0x30] = ra\n  8653: jump @330 if a2 != 0\n      : @315 (gas: 8)\n  8657: a0 = u64 [s1 + 0xd0]\n  8661: a2 = a0 ^ 0xff\n  8665: t1 = u64 [s1 + 0xc0]\n  8669: a0 = a2 | t1\n  8672: t2 = u64 [s1 + 0xc8]\n  8676: a2 = t0 | t2\n  8679: a2 = a2 | a0\n  8682: jump @330 if a2 == 0\n      : @316 (gas: 19)\n  8686: a2 = u64 [s1 + 0xd0]\n  8690: a1 = a2 + 0x1\n  8693: u64 [s1 + 0xd8] = a1\n  8697: a0 = a1 <u 0x1\n  8700: a0 = a0 + t0\n  8703: u64 [s1 + 0xb8] = a0\n  8707: a0 = a0 | a1\n  8710: a0 = a0 <u 0x1\n  8713: a0 = a0 + t1\n  8716: u64 [s1 + 0xa8] = a0\n  8720: a0 = a0 <u t1\n  8723: a0 = a0 + t2\n  8726: u64 [s1 + 0xb0] = a0\n  8730: a1 = 0xff - a2\n  8734: u64 [s1 + 0xc0] = a1\n  8738: a2 = 0x80 - a1\n  8742: a0 = u64 [s1 + 0x30]\n  8745: a1 = u64 [s1 + 0x38]\n  8748: ra = 248, jump @444\n      : @317 [@dyn 124] (gas: 6)\n  8754: u64 [s1 + 0xc8] = a0\n  8758: u64 [s1 + 0x98] = a1\n  8762: a0 = u64 [s1 + 0x28]\n  8765: a1 = u64 [s1 + 0x60]\n  8768: a2 = u64 [s1 + 0xc0]\n  8772: ra = 250, jump @449\n      : @318 [@dyn 125] (gas: 9)\n  8778: u64 [s1 + 0xa0] = a0\n  8782: a0 = u64 [s1 + 0x98]\n  8786: a0 = a0 | a1\n  8789: u64 [s1 + 0x98] = a0\n  8793: a1 = u64 [s1 + 0xd0]\n  8797: a2 = 0x7f - a1\n  8800: a0 = u64 [s1 + 0x30]\n  8803: a1 = u64 [s1 + 0x38]\n  8806: ra = 252, jump @449\n      : @319 [@dyn 126] (gas: 18)\n  8812: a2 = u64 [s1 + 0xc0]\n  8816: a3 = a2 <u 0x80\n  8820: u64 [s1 + 0xd0] = a3\n  8824: a4 = u64 [s1 + 0x98]\n  8828: a1 = a4 if a3 != 0\n  8831: a4 = u64 [s1 + 0x60]\n  8834: a1 = a4 if a2 == 0\n  8837: u64 [s1 + 0x90] = a1\n  8841: a1 = u64 [s1 + 0xc8]\n  8845: a4 = u64 [s1 + 0xa0]\n  8849: a1 = a1 | a4\n  8852: a1 = a0 if a3 == 0\n  8855: a0 = u64 [s1 + 0x28]\n  8858: a1 = a0 if a2 == 0\n  8861: u64 [s1 + 0xc8] = a1\n  8865: a0 = u64 [s1 + 0x30]\n  8868: a1 = u64 [s1 + 0x38]\n  8871: ra = 254, jump @449\n      : @320 [@dyn 127] (gas: 13)\n  8877: a4 = u64 [s1 + 0xa8]\n  8881: a5 = u64 [s1 + 0xb0]\n  8885: a2 = u64 [s1 + 0xb8]\n  8889: a5 = a5 | a2\n  8892: a3 = u64 [s1 + 0xd8]\n  8896: a3 = a3 | a4\n  8899: a3 = a3 | a5\n  8902: a2 = u64 [s1 + 0xd0]\n  8906: a1 = 0 if a2 == 0\n  8908: u64 [s1 + 0xc0] = a1\n  8912: a0 = 0 if a2 == 0\n  8914: u64 [s1 + 0xd0] = a0\n  8918: jump @328 if a3 == 0\n      : @321 (gas: 5)\n  8922: a0 = u64 [s1 + 0xd8]\n  8926: a2 = a0 + 0xffffffffffffff80\n  8929: a0 = u64 [s1 + 0x28]\n  8932: a1 = u64 [s1 + 0x60]\n  8935: ra = 256, jump @444\n      : @322 [@dyn 128] (gas: 6)\n  8941: u64 [s1 + 0x98] = a0\n  8945: u64 [s1 + 0xa0] = a1\n  8949: a0 = u64 [s1 + 0x30]\n  8952: a1 = u64 [s1 + 0x38]\n  8955: a2 = u64 [s1 + 0xd8]\n  8959: ra = 258, jump @444\n      : @323 [@dyn 129] (gas: 7)\n  8965: u64 [s1 + 0x80] = a0\n  8969: u64 [s1 + 0x88] = a1\n  8973: a1 = u64 [s1 + 0xd8]\n  8977: a2 = 0x80 - a1\n  8981: a0 = u64 [s1 + 0x28]\n  8984: a1 = u64 [s1 + 0x60]\n  8987: ra = 260, jump @449\n      : @324 [@dyn 130] (gas: 20)\n  8993: a2 = u64 [s1 + 0x88]\n  8997: a1 = a1 | a2\n  9000: a2 = u64 [s1 + 0xd8]\n  9004: a3 = a2 <u 0x80\n  9008: u64 [s1 + 0x88] = a3\n  9012: a4 = u64 [s1 + 0xa0]\n  9016: a1 = a4 if a3 == 0\n  9019: a4 = u64 [s1 + 0x38]\n  9022: a1 = a4 if a2 == 0\n  9025: u64 [s1 + 0xa0] = a1\n  9029: a1 = u64 [s1 + 0x80]\n  9033: a0 = a0 | a1\n  9036: a1 = u64 [s1 + 0x98]\n  9040: a0 = a1 if a3 == 0\n  9043: a1 = u64 [s1 + 0x30]\n  9046: a0 = a1 if a2 == 0\n  9049: u64 [s1 + 0x98] = a0\n  9053: a0 = u64 [s1 + 0x28]\n  9056: a1 = u64 [s1 + 0x60]\n  9059: ra = 262, jump @444\n      : @325 [@dyn 131] (gas: 8)\n  9065: a5 = 0\n  9067: a2 = u64 [s1 + 0x88]\n  9071: a1 = 0 if a2 == 0\n  9073: a0 = 0 if a2 == 0\n  9075: u64 [s1 + 112] = 0x9\n  9079: u64 [s1 + 104] = 0\n  9082: ra = u64 [s1 + 0x90]\n  9086: fallthrough\n      : @326 (gas: 91)\n  9087: u64 [s1 + 0x80] = a1\n  9091: u64 [s1 + 0x88] = a5\n  9095: u64 [s1 + 120] = 0\n  9098: a1 = u64 [s1 + 0x98]\n  9102: a2 = a1 >> 0x3f\n  9105: a5 = u64 [s1 + 0xa0]\n  9109: a3 = a5 << 0x1\n  9112: t1 = a3 | a2\n  9115: a2 = a1 << 0x1\n  9118: a4 = ra >> 0x3f\n  9121: a4 = a4 | a2\n  9124: u64 [s1 + 0x90] = a4\n  9128: a3 = u64 [s1 + 0x68]\n  9131: a1 = a3 ^ t1\n  9134: u64 [s1 + 0x98] = a1\n  9138: a1 = a3 <u t1\n  9141: a2 = u64 [s1 + 0x70]\n  9144: t0 = a2 <u a4\n  9147: a2 = u64 [s1 + 0x98]\n  9151: t0 = a1 if a2 != 0\n  9154: a1 = u64 [s1 + 0x80]\n  9158: a1 = a1 << 0x1\n  9161: a4 = a0 >> 0x3f\n  9164: a1 = a1 | a4\n  9167: u64 [s1 + 0x80] = a1\n  9171: a4 = a5 >> 0x3f\n  9174: a0 = a0 << 0x1\n  9177: a4 = a4 | a0\n  9180: a0 = ra << 0x1\n  9183: a1 = u64 [s1 + 0xc8]\n  9187: a5 = a1 >> 0x3f\n  9190: a0 = a0 | a5\n  9193: u64 [s1 + 0xa0] = a0\n  9197: a5 = a1 << 0x1\n  9200: a0 = u64 [s1 + 0xc0]\n  9204: a1 = a0 >> 0x3f\n  9207: a1 = a1 | a5\n  9210: a5 = a0 << 0x1\n  9213: a0 = u64 [s1 + 0xd0]\n  9217: ra = a0 >> 0x3f\n  9220: a5 = a5 | ra\n  9223: a0 = a0 << 0x1\n  9226: a2 = u64 [s1 + 0x88]\n  9230: a0 = a0 | a2\n  9233: u64 [s1 + 0xd0] = a0\n  9237: a0 = a5 | 0\n  9239: u64 [s1 + 0xc0] = a0\n  9243: a0 = a1 | 0\n  9245: u64 [s1 + 0xc8] = a0\n  9249: a0 = u64 [s1 + 0xa0]\n  9253: ra = a0 | 0\n  9255: a0 = a3 - a4\n  9258: a0 = a0 <u t0\n  9261: a1 = a3 <u a4\n  9264: t2 = u64 [s1 + 0x80]\n  9268: a5 = a3 - t2\n  9271: a5 = a5 - a1\n  9274: a5 = a5 - a0\n  9277: t0 = a5 >>a 0x3f\n  9280: a0 = t0 & 0xa\n  9283: a2 = u64 [s1 + 0x90]\n  9287: a1 = a2 - a0\n  9290: u64 [s1 + 0x98] = a1\n  9294: a1 = a2 <u a0\n  9297: a0 = t1 - a1\n  9300: u64 [s1 + 0xa0] = a0\n  9304: a1 = 0 if t1 != 0\n  9306: a0 = a4 - a1\n  9309: a1 = a4 <u a1\n  9312: a1 = t2 - a1\n  9315: a3 = u64 [s1 + 0xd8]\n  9319: a5 = u64 [s1 + 0xb8]\n  9323: a2 = a3 | a5\n  9326: a2 = a2 <u 0x1\n  9329: a4 = u64 [s1 + 0xa8]\n  9333: t1 = a4 <u a2\n  9336: a4 = a4 - a2\n  9339: a2 = a3 <u 0x1\n  9342: a5 = a5 - a2\n  9345: a2 = u64 [s1 + 0xb0]\n  9349: a2 = a2 - t1\n  9352: a3 = a3 + 0xffffffffffffffff\n  9355: u64 [s1 + 0xb8] = a5\n  9359: u64 [s1 + 0xb0] = a2\n  9363: a2 = a2 | a5\n  9366: u64 [s1 + 0xd8] = a3\n  9370: a3 = a3 | a4\n  9373: a2 = a2 | a3\n  9376: a5 = t0 & 0x1\n  9379: u64 [s1 + 0xa8] = a4\n  9383: jump @326 if a2 != 0\n      : @327 (gas: 1)\n  9387: jump @329\n      : @328 (gas: 4)\n  9389: a5 = 0\n  9391: u64 [s1 + 120] = 0\n  9394: ra = u64 [s1 + 0x90]\n  9398: fallthrough\n      : @329 (gas: 19)\n  9399: a2 = u64 [s1 + 0xc8]\n  9403: a0 = a2 >> 0x3f\n  9406: a1 = ra << 0x1\n  9409: a0 = a0 | a1\n  9412: a3 = u64 [s1 + 0xc0]\n  9416: a1 = a3 >> 0x3f\n  9419: a2 = a2 << 0x1\n  9422: a1 = a1 | a2\n  9425: a4 = u64 [s1 + 0xd0]\n  9429: a2 = a4 >> 0x3f\n  9432: a3 = a3 << 0x1\n  9435: a4 = a4 << 0x1\n  9438: a5 = a5 | a4\n  9441: a4 = u64 [s1 + 0x78]\n  9444: a2 = a2 | a4\n  9447: a3 = a3 | a2\n  9450: a1 = a1 | a4\n  9453: a4 = a4 | a0\n  9456: fallthrough\n      : @330 (gas: 31)\n  9457: u64 [s1 + 0xc8] = a1\n  9461: t2 = u64 [s1 + 0x58]\n  9464: u64 [s1 + 0xd8] = a5\n  9468: t0 = t2 <u a5\n  9471: a0 = u64 [s1 + 0x50]\n  9474: a5 = a0 ^ a3\n  9477: t1 = a0 <u a3\n  9480: t1 = t0 if a5 == 0\n  9483: a5 = u64 [s1 + 0x48]\n  9486: ra = a5 <u a1\n  9489: a2 = u64 [s1 + 0x40]\n  9492: t0 = a2 ^ a4\n  9495: u64 [s1 + 0xd0] = a4\n  9499: a4 = a2 <u a4\n  9502: a4 = ra if t0 == 0\n  9505: ra = a0\n  9507: a1 = a3\n  9509: a3 = u64 [s1 + 0xc8]\n  9513: a0 = a5 ^ a3\n  9516: a0 = a0 | t0\n  9519: a4 = t1 if a0 == 0\n  9522: a0 = u64 [s1 + 0xd8]\n  9526: t2 = a0 if a4 == 0\n  9529: ra = a1 if a4 == 0\n  9532: a5 = a3 if a4 == 0\n  9535: a0 = u64 [s1 + 0xd0]\n  9539: a2 = a0 if a4 == 0\n  9542: a0 = ra | a2\n  9545: a1 = t2 | a5\n  9548: a0 = a0 | a1\n  9551: jump @347 if a0 == 0\n      : @331 (gas: 41)\n  9555: a1 = u64 [s1 + 0x60]\n  9558: a0 = a2 ^ a1\n  9561: u64 [s1 + 0xd8] = a0\n  9565: a0 = a1\n  9567: t1 = u64 [s1 + 0x38]\n  9570: t0 = ra ^ t1\n  9573: a4 = ra <u t1\n  9576: a1 = u64 [s1 + 0x30]\n  9579: a3 = t2 <u a1\n  9582: a3 = a4 if t0 != 0\n  9585: a1 = a2 <u a0\n  9588: t0 = u64 [s1 + 0x28]\n  9591: a4 = a5 <u t0\n  9594: a0 = u64 [s1 + 0xd8]\n  9598: a4 = a1 if a0 != 0\n  9601: a1 = a5 ^ t0\n  9604: a0 = a0 | a1\n  9607: a3 = a4 if a0 != 0\n  9610: a0 = u64 [s1 + 0x60]\n  9613: a2 = a0 if a3 == 0\n  9616: u64 [s1 + 0x40] = a2\n  9619: a5 = t0 if a3 == 0\n  9622: u64 [s1 + 0x48] = a5\n  9625: ra = t1 if a3 == 0\n  9628: u64 [s1 + 0x50] = ra\n  9631: a0 = u64 [s1 + 0x30]\n  9634: t2 = a0 if a3 == 0\n  9637: u64 [s1 + 0x58] = t2\n  9640: a0 = u64 [s1 + 0x8]\n  9643: a0 = a0 << 0x20\n  9646: a2 = a0 >> 0x20\n  9649: u64 [s1 + 472] = 0\n  9653: a0 = u64 [s1 + 0x18]\n  9656: u64 [s1 + 0x1c0] = a0\n  9660: a0 = u64 [s1 + 0x10]\n  9663: u64 [s1 + 0x1c8] = a0\n  9667: a1 = s1 + 0x1c0\n  9671: u64 [s1 + 0xa8] = a2\n  9675: u64 [s1 + 0x1d0] = a2\n  9679: a0 = 0\n  9681: ra = 264, jump @9\n      : @332 [@dyn 132] (gas: 7)\n  9687: u64 [s1 + 440] = 0\n  9691: u64 [s1 + 432] = 0\n  9695: u64 [s1 + 416] = 0x1\n  9700: a0 = 0x20\n  9703: a1 = s1 + 0x1a0\n  9707: u64 [s1 + 424] = 0\n  9711: ra = 266, jump @9\n      : @333 [@dyn 133] (gas: 3)\n  9717: i32 a0 = s1 + 0x240\n  9721: ecalli 10 // 'now'\n  9723: fallthrough\n      : @334 (gas: 12)\n  9724: a2 = 0x20068\n  9729: a3 = s1 + 0x200\n  9733: a0 = u64 [a3 + 0x58]\n  9736: u64 [s1 + 0xc0] = a0\n  9740: a0 = u64 [a3 + 0x50]\n  9743: u64 [s1 + 0xc8] = a0\n  9747: a0 = u64 [a3 + 0x48]\n  9750: u64 [s1 + 0xd0] = a0\n  9754: a0 = i32 [0x20068]\n  9759: a1 = u64 [a3 + 0x40]\n  9762: u64 [s1 + 0xb8] = a1\n  9766: jump @336 if a0 >u 63\n      : @335 (gas: 2)\n  9770: u32 [0x20068] = 0x40\n  9776: fallthrough\n      : @336 (gas: 16)\n  9777: u64 [s1 + 0xa0] = a2\n  9781: a0 = sp + 0xffffffffffffffe0\n  9784: a2 = a0 & 0xffffffffffffffe0\n  9787: u64 [s1 + 0xb0] = a2\n  9791: sp = a2\n  9793: a0 = 0x20070\n  9798: u64 [s1 + 0xd8] = a0\n  9802: i32 a0 = a0 + 0\n  9804: i32 a2 = a2 + 0\n  9806: a1 = 0x40\n  9809: u64 [s1 + 0x98] = a0\n  9813: ra = 0x10c\n  9817: ecalli 9 // 'hash_keccak_256'\n  9819: a3 = u64 [s1 + 0xb0]\n  9823: t0 = 0x10e\n  9827: jump @435\n      : @337 [@dyn 134] (gas: 2)\n  9830: a3 = u64 [s1 + 0xb0]\n  9834: t0 = 270, jump @435\n      : @338 [@dyn 135] (gas: 15)\n  9840: u64 [s1 + 0x278] = a3\n  9844: u64 [s1 + 0x270] = a2\n  9848: u64 [s1 + 0x268] = a1\n  9852: u64 [s1 + 0x260] = a0\n  9856: a0 = u64 [s1 + 0xc0]\n  9860: u64 [s1 + 0x298] = a0\n  9864: a0 = u64 [s1 + 0xc8]\n  9868: u64 [s1 + 0x290] = a0\n  9872: a0 = u64 [s1 + 0xd0]\n  9876: u64 [s1 + 0x288] = a0\n  9880: a0 = u64 [s1 + 0xb8]\n  9884: u64 [s1 + 0x280] = a0\n  9888: a0 = s1 + 0x260\n  9892: a1 = s1 + 0x280\n  9896: ra = 272, jump @12\n      : @339 [@dyn 136] (gas: 1)\n  9902: ra = 274, jump @0\n      : @340 [@dyn 137] (gas: 62)\n  9908: a1 = u64 [0x300b0]\n  9913: u64 [s1 + 0xd0] = a1\n  9917: a1 = u64 [0x300c0]\n  9922: u64 [s1 + 0xc8] = a1\n  9926: a0 = u64 [0x300b8]\n  9931: u64 [s1 + 0xc0] = a0\n  9935: ecalli 11 // 'ref_time_left'\n  9937: a1 = u64 [s1 + 0xc0]\n  9941: a1 = reverse a1\n  9943: a2 = a1 << 0x20\n  9946: a3 = u64 [s1 + 0xc8]\n  9950: a3 = reverse a3\n  9952: a3 = a3 >> 0x20\n  9955: a2 = a2 | a3\n  9958: a3 = a1 >> 0x20\n  9961: a1 = u64 [s1 + 0xd0]\n  9965: a4 = reverse a1\n  9967: a1 = 0x30070\n  9972: a5 = a4 << 0x20\n  9975: a3 = a3 | a5\n  9978: a4 = a4 >> 0x20\n  9981: u32 [0x30080] = a4\n  9986: u64 [0x30078] = a3\n  9991: u64 [0x30070] = a2\n  9996: a2 = u64 [s1 + 0x40]\n  9999: a3 = s1 + 0x200\n 10003: u64 [a3 + 0xb8] = a2\n 10007: a2 = u64 [s1 + 0x48]\n 10010: u64 [a3 + 0xb0] = a2\n 10014: a2 = u64 [s1 + 0x50]\n 10017: u64 [a3 + 0xa8] = a2\n 10021: a2 = u64 [s1 + 0x58]\n 10024: u64 [a3 + 0xa0] = a2\n 10028: u32 [s1 + 704] = 0\n 10032: a0 = a0 >u 0x8fc\n 10036: a2 = -a0\n 10038: u64 [a3 + 0xf8] = a2\n 10042: u64 [a3 + 0xf0] = a2\n 10046: u64 [a3 + 0xe8] = a2\n 10050: u64 [a3 + 0xe0] = a2\n 10054: a1 = a1 << 0x20\n 10057: a1 = a1 >> 0x20\n 10060: a0 = a0 << 0x23\n 10063: a0 = a0 | a1\n 10066: a1 = s1 + 0x2a0\n 10070: a1 = a1 << 0x20\n 10073: a1 = a1 >> 0x20\n 10076: a2 = s1 + 0x2e0\n 10080: a2 = a2 << 0x20\n 10083: a3 = a2 | a1\n 10086: a4 = u64 [s1 + 0xd8]\n 10090: a4 = a4 << 0x20\n 10093: a4 = a4 >> 0x20\n 10096: a1 = s1 + 0x2c0\n 10100: a1 = a1 << 0x20\n 10103: a5 = a1 | a4\n 10106: a1 = 0xffffffffffffffff\n 10109: a2 = 0xffffffffffffffff\n 10112: ecalli 1 // 'call'\n 10114: u64 [s1 + 0xd8] = a0\n 10118: a0 = s1 + 0x180\n 10122: ra = 276, jump @289\n      : @341 [@dyn 138] (gas: 2)\n 10128: a0 = u64 [s1 + 0xd8]\n 10132: jump @350 if a0 != 0\n      : @342 (gas: 3)\n 10136: a0 = s1 + 0x140\n 10140: a1 = 0x40\n 10143: ra = 278, jump @7\n      : @343 [@dyn 139] (gas: 13)\n 10149: a4 = s1 + 0x100\n 10153: a3 = u64 [a4 + 0x58]\n 10156: a1 = u64 [a4 + 0x50]\n 10159: a2 = u64 [a4 + 0x48]\n 10162: a0 = u64 [a4 + 0x40]\n 10165: a3 = a3 | a2\n 10168: a2 = a0 | a1\n 10171: a2 = a2 | a3\n 10174: a2 = a2 >> 0x20\n 10177: a1 = a1 | a3\n 10180: a1 = a1 << 0x20\n 10183: a1 = a1 | a2\n 10186: jump @349 if a1 != 0\n      : @344 (gas: 11)\n 10190: a1 = u64 [s1 + 0x58]\n 10193: u64 [s1 + 0x120] = a1\n 10197: a1 = u64 [s1 + 0x50]\n 10200: u64 [s1 + 0x128] = a1\n 10204: a1 = u64 [s1 + 0x48]\n 10207: u64 [s1 + 0x130] = a1\n 10211: a1 = s1 + 0x120\n 10215: a2 = u64 [s1 + 0x40]\n 10218: u64 [s1 + 0x138] = a2\n 10222: u64 [s1 + 0xd8] = a0\n 10226: ra = 280, jump @9\n      : @345 [@dyn 140] (gas: 21)\n 10232: u64 [s1 + 248] = 0\n 10236: a0 = u64 [s1 + 0xa8]\n 10240: u64 [s1 + 0xf0] = a0\n 10244: a0 = u64 [s1 + 0x10]\n 10247: u64 [s1 + 0xe8] = a0\n 10251: a0 = u64 [0x20040]\n 10256: a1 = u64 [0x20048]\n 10261: a2 = u64 [0x20050]\n 10266: a3 = u64 [s1 + 0x18]\n 10269: u64 [s1 + 0xe0] = a3\n 10273: a4 = s1 + 0x100\n 10277: u64 [a4 + 0x18] = a0\n 10280: u64 [a4 + 0x10] = a1\n 10283: u64 [a4 + 0x8] = a2\n 10286: a0 = u64 [0x20058]\n 10291: a1 = 0x20\n 10294: a2 = s1 + 0x100\n 10298: a3 = s1 + 0xe0\n 10302: u64 [a4] = a0\n 10304: a0 = u64 [s1 + 0xd8]\n 10308: ra = 282, jump @13\n      : @346 [@dyn 141] (gas: 5)\n 10314: a4 = u64 [s1 + 0x40]\n 10317: a3 = u64 [s1 + 0x48]\n 10320: a2 = u64 [s1 + 0x50]\n 10323: a1 = u64 [s1 + 0x58]\n 10326: jump @348\n      : @347 (gas: 5)\n 10328: a1 = 0\n 10330: a2 = 0\n 10332: a3 = 0\n 10334: a4 = 0\n 10336: fallthrough\n      : @348 (gas: 12)\n 10337: a0 = u64 [s1 + 0x20]\n 10340: u64 [a0] = a1\n 10342: u64 [a0 + 0x8] = a2\n 10345: u64 [a0 + 0x10] = a3\n 10348: u64 [a0 + 0x18] = a4\n 10351: sp = s0 + 0xfffffffffffffce0\n 10355: a0 = sp + 0x300\n 10359: ra = u64 [a0 + 0x18]\n 10362: s0 = u64 [a0 + 0x10]\n 10365: s1 = u64 [a0 + 0x8]\n 10368: sp = sp + 0x320\n 10372: ret\n      : @349 (gas: 1)\n 10374: trap\n      : @350 (gas: 8)\n 10375: u64 [s1 + 368] = 0\n 10379: u64 [s1 + 360] = 0\n 10383: u64 [s1 + 352] = 0\n 10387: a0 = 0x90b8ec1800000000\n 10397: a1 = s1 + 0x160\n 10401: u64 [s1 + 0x178] = a0\n 10405: a0 = 0\n 10407: ra = 284, jump @9\n      : @351 [@dyn 142] (gas: 3)\n 10413: a0 = u64 [s1 + 0xa0]\n 10417: a0 = i32 [a0]\n 10419: jump @353 if a0 >u 31\n      : @352 (gas: 3)\n 10423: a1 = u64 [s1 + 0xa0]\n 10427: u32 [a1 + 0] = 0x20\n 10430: fallthrough\n      : @353 (gas: 6)\n 10431: a0 = 0x1\n 10434: a2 = 0x4\n 10437: a1 = u64 [s1 + 0x98]\n 10441: ra = 0x11e\n 10445: ecalli 14 // 'seal_return'\n 10447: fallthrough\n      : @354 [@dyn 143] (gas: 20)\n 10448: sp = sp + 0xfffffffffffffe80\n 10452: u64 [sp + 0x178] = ra\n 10456: u64 [sp + 0x170] = s0\n 10460: u64 [sp + 0x168] = s1\n 10464: s0 = sp + 0x180\n 10468: sp = sp & 0xffffffffffffffe0\n 10471: s1 = sp\n 10473: a2 = u64 [a0]\n 10475: a1 = u64 [a0 + 0x8]\n 10478: a0 = u32 [a0 + 0x10]\n 10481: u64 [s1 + 216] = 0\n 10485: u64 [s1 + 0x28] = a0\n 10488: u64 [s1 + 0xd0] = a0\n 10492: u64 [s1 + 0x10] = a1\n 10495: u64 [s1 + 0xc8] = a1\n 10499: a1 = s1 + 0xc0\n 10503: u64 [s1 + 0x18] = a2\n 10506: u64 [s1 + 0xc0] = a2\n 10510: a0 = 0\n 10512: ra = 288, jump @9\n      : @355 [@dyn 144] (gas: 7)\n 10518: u64 [s1 + 184] = 0\n 10522: u64 [s1 + 176] = 0\n 10526: u64 [s1 + 160] = 0x1\n 10531: a0 = 0x20\n 10534: a1 = s1 + 0xa0\n 10538: u64 [s1 + 168] = 0\n 10542: ra = 290, jump @9\n      : @356 [@dyn 145] (gas: 3)\n 10548: a2 = 0x20068\n 10553: a0 = i32 [0x20068]\n 10558: jump @358 if a0 >u 63\n      : @357 (gas: 2)\n 10562: u32 [0x20068] = 0x40\n 10568: fallthrough\n      : @358 (gas: 15)\n 10569: u64 [s1 + 0x30] = a2\n 10572: a0 = sp + 0xffffffffffffffe0\n 10575: a2 = a0 & 0xffffffffffffffe0\n 10578: u64 [s1 + 0x38] = a2\n 10581: sp = a2\n 10583: a0 = 0x20070\n 10588: i32 a0 = a0 + 0\n 10590: i32 a2 = a2 + 0\n 10592: a1 = 0x40\n 10595: u64 [s1 + 0x20] = a0\n 10598: ra = 0x124\n 10602: ecalli 9 // 'hash_keccak_256'\n 10604: a3 = u64 [s1 + 0x38]\n 10607: t0 = 0x126\n 10611: jump @435\n      : @359 [@dyn 146] (gas: 2)\n 10614: a3 = u64 [s1 + 0x38]\n 10617: t0 = 294, jump @435\n      : @360 [@dyn 147] (gas: 7)\n 10623: u64 [s1 + 0xf8] = a3\n 10627: u64 [s1 + 0xf0] = a2\n 10631: u64 [s1 + 0xe8] = a1\n 10635: u64 [s1 + 0xe0] = a0\n 10639: a0 = s1 + 0x80\n 10643: a1 = s1 + 0xe0\n 10647: ra = 296, jump @11\n      : @361 [@dyn 148] (gas: 8)\n 10653: a0 = u64 [s1 + 0x90]\n 10657: a1 = u64 [s1 + 0x98]\n 10661: a2 = u64 [s1 + 0x88]\n 10665: a3 = u64 [s1 + 0x80]\n 10669: a1 = a1 | a2\n 10672: a0 = a0 | a3\n 10675: a0 = a0 | a1\n 10678: jump @370 if a0 != 0\n      : @362 (gas: 10)\n 10682: u64 [s1 + 120] = 0\n 10685: a0 = u64 [s1 + 0x18]\n 10688: u64 [s1 + 0x60] = a0\n 10691: a0 = u64 [s1 + 0x10]\n 10694: u64 [s1 + 0x68] = a0\n 10697: a1 = s1 + 0x60\n 10700: a0 = u64 [s1 + 0x28]\n 10703: u64 [s1 + 0x70] = a0\n 10706: a0 = 0\n 10708: ra = 298, jump @9\n      : @363 [@dyn 149] (gas: 7)\n 10714: u64 [s1 + 88] = 0\n 10717: u64 [s1 + 80] = 0\n 10720: u64 [s1 + 64] = 0x1\n 10724: a0 = 0x20\n 10727: a1 = s1 + 0x40\n 10730: u64 [s1 + 72] = 0\n 10733: ra = 300, jump @9\n      : @364 [@dyn 150] (gas: 3)\n 10739: i32 a0 = s1 + 0x100\n 10743: ecalli 10 // 'now'\n 10745: fallthrough\n      : @365 (gas: 12)\n 10746: a3 = s1 + 0x100\n 10750: a0 = u64 [a3 + 0x18]\n 10753: u64 [s1 + 0x18] = a0\n 10756: a0 = u64 [a3 + 0x10]\n 10759: u64 [s1 + 0x28] = a0\n 10762: a0 = u64 [a3 + 0x8]\n 10765: u64 [s1 + 0x38] = a0\n 10768: a2 = u64 [s1 + 0x30]\n 10771: a0 = i32 [a2]\n 10773: a1 = u64 [a3]\n 10775: u64 [s1 + 0x10] = a1\n 10778: jump @367 if a0 >u 63\n      : @366 (gas: 2)\n 10782: u32 [a2 + 0] = 0x40\n 10785: fallthrough\n      : @367 (gas: 12)\n 10786: a0 = sp + 0xffffffffffffffe0\n 10789: a0 = a0 & 0xffffffffffffffe0\n 10792: u64 [s1 + 0x30] = a0\n 10795: sp = a0\n 10797: i32 a2 = a0 + 0\n 10799: a1 = 0x40\n 10802: a0 = u64 [s1 + 0x20]\n 10805: ra = 0x12e\n 10809: ecalli 9 // 'hash_keccak_256'\n 10811: a3 = u64 [s1 + 0x30]\n 10814: t0 = 0x130\n 10818: jump @435\n      : @368 [@dyn 151] (gas: 2)\n 10821: a3 = u64 [s1 + 0x30]\n 10824: t0 = 304, jump @435\n      : @369 [@dyn 152] (gas: 16)\n 10830: a4 = s1 + 0x100\n 10834: u64 [a4 + 0x38] = a3\n 10837: u64 [a4 + 0x30] = a2\n 10840: u64 [a4 + 0x28] = a1\n 10843: u64 [a4 + 0x20] = a0\n 10846: a0 = u64 [s1 + 0x18]\n 10849: u64 [a4 + 0x58] = a0\n 10852: a0 = u64 [s1 + 0x28]\n 10855: u64 [a4 + 0x50] = a0\n 10858: a0 = u64 [s1 + 0x38]\n 10861: u64 [a4 + 0x48] = a0\n 10864: a0 = u64 [s1 + 0x10]\n 10867: u64 [a4 + 0x40] = a0\n 10870: a0 = s1 + 0x120\n 10874: a1 = s1 + 0x140\n 10878: ra = 306, jump @12\n      : @370 [@dyn 153] (gas: 6)\n 10884: sp = s0 + 0xfffffffffffffe80\n 10888: ra = u64 [sp + 0x178]\n 10892: s0 = u64 [sp + 0x170]\n 10896: s1 = u64 [sp + 0x168]\n 10900: sp = sp + 0x180\n 10904: ret\n      : @371 (gas: 70)\n 10906: sp = sp + 0xffffffffffffff40\n 10910: u64 [sp + 0xb8] = ra\n 10914: u64 [sp + 0xb0] = s0\n 10918: u64 [sp + 0xa8] = s1\n 10922: s0 = sp + 0xc0\n 10926: sp = sp & 0xfffffffffffffff0\n 10929: ra = u64 [a2]\n 10931: t0 = u64 [a1]\n 10933: a3 = u64 [a1 + 0x8]\n 10936: u64 [sp + 0x58] = a0\n 10939: a4 = u64 [a2 + 0x8]\n 10942: a0 = t0 mulhu ra\n 10945: s1 = a3 * ra\n 10948: a0 = a0 + s1\n 10951: s1 = a0 <u s1\n 10954: a5 = a3 mulhu ra\n 10957: a5 = a5 + s1\n 10960: s1 = t0 * a4\n 10963: a0 = a0 + s1\n 10966: u64 [sp + 0x50] = a0\n 10969: a0 = a0 <u s1\n 10972: s1 = t0 mulhu a4\n 10975: a0 = a0 + s1\n 10978: a0 = a0 + a5\n 10981: a5 = a0 <u a5\n 10984: s1 = a3 mulhu a4\n 10987: a5 = a5 + s1\n 10990: s1 = a3 * a4\n 10993: a0 = a0 + s1\n 10996: u64 [sp + 0x48] = a0\n 10999: s1 = a0 <u s1\n 11002: a5 = a5 + s1\n 11005: u64 [sp + 0x40] = a5\n 11008: t1 = u64 [a2 + 0x10]\n 11011: a2 = u64 [a2 + 0x18]\n 11014: t2 = u64 [a1 + 0x18]\n 11017: a0 = u64 [a1 + 0x10]\n 11020: a5 = a3 * t1\n 11023: u64 [sp + 0x20] = a2\n 11026: s1 = a2 * t0\n 11029: a1 = s1 + a5\n 11032: u64 [sp + 0x28] = a4\n 11035: s1 = a4 * a0\n 11038: a2 = t2 * ra\n 11041: a2 = a2 + s1\n 11044: s1 = t1 * t0\n 11047: a5 = a0 * ra\n 11050: s1 = s1 + a5\n 11053: u64 [sp + 0x30] = t1\n 11056: a4 = t1 mulhu t0\n 11059: u64 [sp + 0x10] = a4\n 11062: a4 = a4 + a1\n 11065: t1 = a0 mulhu ra\n 11068: a1 = t1 + a2\n 11071: a2 = s1 <u a5\n 11074: u64 [sp + 0x18] = a1\n 11077: u64 [sp + 0x8] = a4\n 11080: a5 = a1 + a4\n 11083: a2 = a2 + a5\n 11086: u64 [sp + 0x38] = t2\n 11089: a5 = a3 | t2\n 11092: a1 = t0 | a0\n 11095: a1 = a1 | a5\n 11098: a4 = u64 [sp + 0x40]\n 11101: a5 = u64 [sp + 0x48]\n 11104: s1 = s1 + a5\n 11107: t2 = s1 <u a5\n 11110: a2 = a2 + a4\n 11113: a2 = a2 + t2\n 11116: jump @373 if a1 == 0\n      : @372 (gas: 50)\n 11120: a1 = a2 ^ a4\n 11123: u64 [sp + 0x48] = a2\n 11126: a2 = u64 [sp + 0x48]\n 11129: a2 = a2 <u a4\n 11132: t2 = a2 if a1 != 0\n 11135: u64 [sp + 0x40] = s1\n 11138: a1 = u64 [sp + 0x10]\n 11141: a2 = u64 [sp + 0x8]\n 11144: s1 = a2 <u a1\n 11147: a2 = a3 >u 0\n 11149: a1 = u64 [sp + 0x20]\n 11152: a5 = a1 >u 0\n 11154: a2 = a2 & a5\n 11157: a5 = a1 mulhu t0\n 11160: a5 = a5 >u 0\n 11162: a2 = a2 | a5\n 11165: a4 = t1\n 11167: t1 = u64 [sp + 0x30]\n 11170: a3 = a3 mulhu t1\n 11173: a3 = a3 >u 0\n 11175: a2 = a2 | a3\n 11178: a2 = a2 | s1\n 11181: u64 [sp + 0x10] = a2\n 11184: a2 = u64 [sp + 0x18]\n 11187: a2 = a2 <u a4\n 11190: a4 = u64 [sp + 0x28]\n 11193: a3 = a4 >u 0\n 11195: s1 = u64 [sp + 0x38]\n 11198: a5 = s1 >u 0\n 11200: a3 = a3 & a5\n 11203: a5 = s1 mulhu ra\n 11206: a5 = a5 >u 0\n 11208: a3 = a3 | a5\n 11211: a5 = a4 mulhu a0\n 11214: a5 = a5 >u 0\n 11216: a3 = a3 | a5\n 11219: a2 = a2 | a3\n 11222: a3 = t1 | a1\n 11225: a5 = a0 | s1\n 11228: s1 = u64 [sp + 0x40]\n 11231: a3 = a3 >u 0\n 11233: a5 = a5 >u 0\n 11235: a3 = a3 & a5\n 11238: a2 = a2 | a3\n 11241: a1 = u64 [sp + 0x10]\n 11244: a1 = a1 | a2\n 11247: a2 = u64 [sp + 0x48]\n 11250: a0 = a1 | t2\n 11253: a0 = a0 & 0x1\n 11256: jump @374 if a0 != 0\n      : @373 (gas: 13)\n 11259: a0 = t0 * ra\n 11262: a1 = u64 [sp + 0x58]\n 11265: u64 [a1] = a0\n 11267: a0 = u64 [sp + 0x50]\n 11270: u64 [a1 + 0x8] = a0\n 11273: u64 [a1 + 0x10] = s1\n 11276: u64 [a1 + 0x18] = a2\n 11279: sp = s0 + 0xffffffffffffff40\n 11283: ra = u64 [sp + 0xb8]\n 11287: s0 = u64 [sp + 0xb0]\n 11291: s1 = u64 [sp + 0xa8]\n 11295: sp = sp + 0xc0\n 11299: ret\n      : @374 (gas: 8)\n 11301: u64 [sp + 144] = 0\n 11305: u64 [sp + 136] = 0\n 11309: u64 [sp + 128] = 0\n 11313: a0 = 0x4e487b7100000000\n 11323: a1 = sp + 0x80\n 11327: u64 [sp + 0x98] = a0\n 11331: a0 = 0\n 11333: ra = 308, jump @9\n      : @375 [@dyn 154] (gas: 7)\n 11339: u64 [sp + 120] = 0\n 11342: u64 [sp + 112] = 0\n 11345: u64 [sp + 96] = 0x11\n 11349: a0 = 0x4\n 11352: a1 = sp + 0x60\n 11355: u64 [sp + 104] = 0\n 11358: ra = 310, jump @9\n      : @376 [@dyn 155] (gas: 2)\n 11364: a1 = i32 [0x20068]\n 11369: jump @378 if a1 >u 63\n      : @377 (gas: 2)\n 11373: u32 [0x20068] = 0x40\n 11379: fallthrough\n      : @378 (gas: 7)\n 11380: a1 = 0x20070\n 11385: i32 a1 = a1 + 0\n 11387: a0 = 0x1\n 11390: a2 = 0x24\n 11393: ra = 0x138\n 11397: ecalli 14 // 'seal_return'\n 11399: fallthrough\n      : @379 [@dyn 156] (gas: 22)\n 11400: sp = sp + 0xfffffffffffffc00\n 11404: a2 = sp + 0x300\n 11408: u64 [a2 + 0xf8] = ra\n 11412: u64 [a2 + 0xf0] = s0\n 11416: u64 [a2 + 0xe8] = s1\n 11420: s0 = sp + 0x400\n 11424: sp = sp & 0xffffffffffffffe0\n 11427: s1 = sp\n 11429: a2 = u64 [a1]\n 11431: a3 = u64 [a1 + 0x8]\n 11434: a1 = u32 [a1 + 0x10]\n 11437: u64 [s1 + 0x18] = a0\n 11440: u64 [s1 + 824] = 0\n 11444: u64 [s1 + 0x88] = a1\n 11448: u64 [s1 + 0x330] = a1\n 11452: u64 [s1 + 0x90] = a3\n 11456: u64 [s1 + 0x328] = a3\n 11460: a1 = s1 + 0x320\n 11464: u64 [s1 + 0x98] = a2\n 11468: u64 [s1 + 0x320] = a2\n 11472: a0 = 0\n 11474: ra = 314, jump @9\n      : @380 [@dyn 157] (gas: 7)\n 11480: u64 [s1 + 792] = 0\n 11484: u64 [s1 + 784] = 0\n 11488: u64 [s1 + 768] = 0x1\n 11493: a0 = 0x20\n 11496: a1 = s1 + 0x300\n 11500: u64 [s1 + 776] = 0\n 11504: ra = 316, jump @9\n      : @381 [@dyn 158] (gas: 3)\n 11510: a2 = 0x20068\n 11515: a0 = i32 [0x20068]\n 11520: jump @383 if a0 >u 63\n      : @382 (gas: 2)\n 11524: u32 [0x20068] = 0x40\n 11530: fallthrough\n      : @383 (gas: 15)\n 11531: u64 [s1 + 0x80] = a2\n 11535: a0 = sp + 0xffffffffffffffe0\n 11538: a2 = a0 & 0xffffffffffffffe0\n 11541: u64 [s1 + 0x70] = a2\n 11544: sp = a2\n 11546: a0 = 0x20070\n 11551: i32 a0 = a0 + 0\n 11553: i32 a2 = a2 + 0\n 11555: a1 = 0x40\n 11558: u64 [s1 + 0x78] = a0\n 11561: ra = 0x13e\n 11565: ecalli 9 // 'hash_keccak_256'\n 11567: a3 = u64 [s1 + 0x70]\n 11570: t0 = 0x140\n 11574: jump @436\n      : @384 [@dyn 159] (gas: 2)\n 11577: a3 = u64 [s1 + 0x70]\n 11580: t0 = 320, jump @436\n      : @385 [@dyn 160] (gas: 7)\n 11586: u64 [a4 + 0x58] = a3\n 11589: u64 [a4 + 0x50] = a2\n 11592: u64 [a4 + 0x48] = a1\n 11595: u64 [a4 + 0x40] = a0\n 11598: a0 = s1 + 0x2e0\n 11602: a1 = s1 + 0x340\n 11606: ra = 322, jump @11\n      : @386 [@dyn 161] (gas: 9)\n 11612: a4 = s1 + 0x200\n 11616: a0 = u64 [a4 + 0xf0]\n 11620: a1 = u64 [a4 + 0xf8]\n 11624: a2 = u64 [a4 + 0xe8]\n 11628: a3 = u64 [a4 + 0xe0]\n 11632: a1 = a1 | a2\n 11635: a0 = a0 | a3\n 11638: a0 = a0 | a1\n 11641: jump @429 if a0 == 0\n      : @387 (gas: 11)\n 11645: u64 [s1 + 728] = 0\n 11649: a0 = u64 [s1 + 0x98]\n 11653: a2 = s1 + 0x200\n 11657: u64 [a2 + 0xc0] = a0\n 11661: a0 = u64 [s1 + 0x90]\n 11665: u64 [a2 + 0xc8] = a0\n 11669: a1 = s1 + 0x2c0\n 11673: a0 = u64 [s1 + 0x88]\n 11677: u64 [a2 + 0xd0] = a0\n 11681: a0 = 0\n 11683: ra = 324, jump @9\n      : @388 [@dyn 162] (gas: 7)\n 11689: u64 [s1 + 696] = 0\n 11693: u64 [s1 + 688] = 0\n 11697: u64 [s1 + 680] = 0\n 11701: a0 = 0x20\n 11704: a1 = s1 + 0x2a0\n 11708: u64 [s1 + 672] = 0\n 11712: ra = 326, jump @9\n      : @389 [@dyn 163] (gas: 3)\n 11718: a2 = u64 [s1 + 0x80]\n 11722: a0 = i32 [a2]\n 11724: jump @391 if a0 >u 63\n      : @390 (gas: 3)\n 11728: u32 [a2 + 0] = 0x40\n 11731: t0 = 0x148\n 11735: jump @442\n      : @391 (gas: 1)\n 11738: t0 = 328, jump @442\n      : @392 [@dyn 164] (gas: 5)\n 11744: ra = 0x14a\n 11748: ecalli 9 // 'hash_keccak_256'\n 11750: a3 = u64 [s1 + 0x70]\n 11753: t0 = 0x14c\n 11757: jump @436\n      : @393 [@dyn 165] (gas: 2)\n 11760: a3 = u64 [s1 + 0x70]\n 11763: t0 = 332, jump @436\n      : @394 [@dyn 166] (gas: 7)\n 11769: u64 [a4 + 0x78] = a3\n 11772: u64 [a4 + 0x70] = a2\n 11775: u64 [a4 + 0x68] = a1\n 11778: u64 [a4 + 0x60] = a0\n 11781: a0 = s1 + 0x280\n 11785: a1 = s1 + 0x360\n 11789: ra = 334, jump @11\n      : @395 [@dyn 167] (gas: 9)\n 11795: a4 = s1 + 0x200\n 11799: a0 = u64 [a4 + 0x90]\n 11803: a1 = u64 [a4 + 0x98]\n 11807: a2 = u64 [a4 + 0x88]\n 11811: a3 = u64 [a4 + 0x80]\n 11815: a1 = a1 | a2\n 11818: a0 = a0 | a3\n 11821: a0 = a0 | a1\n 11824: jump @429 if a0 == 0\n      : @396 (gas: 10)\n 11828: u64 [s1 + 632] = 0\n 11832: a0 = u64 [s1 + 0x98]\n 11836: u64 [s1 + 0x260] = a0\n 11840: a0 = u64 [s1 + 0x90]\n 11844: u64 [s1 + 0x268] = a0\n 11848: a1 = s1 + 0x260\n 11852: a0 = u64 [s1 + 0x88]\n 11856: u64 [s1 + 0x270] = a0\n 11860: a0 = 0\n 11862: ra = 336, jump @9\n      : @397 [@dyn 168] (gas: 7)\n 11868: u64 [s1 + 600] = 0\n 11872: u64 [s1 + 592] = 0\n 11876: u64 [s1 + 576] = 0x1\n 11881: a0 = 0x20\n 11884: a1 = s1 + 0x240\n 11888: u64 [s1 + 584] = 0\n 11892: ra = 338, jump @9\n      : @398 [@dyn 169] (gas: 3)\n 11898: a1 = u64 [s1 + 0x80]\n 11902: a0 = i32 [a1]\n 11904: jump @400 if a0 >u 63\n      : @399 (gas: 3)\n 11908: u32 [a1 + 0] = 0x40\n 11911: t0 = 0x154\n 11915: jump @442\n      : @400 (gas: 1)\n 11918: t0 = 340, jump @442\n      : @401 [@dyn 170] (gas: 5)\n 11924: ra = 0x156\n 11928: ecalli 9 // 'hash_keccak_256'\n 11930: a3 = u64 [s1 + 0x70]\n 11933: t0 = 0x158\n 11937: jump @435\n      : @402 [@dyn 171] (gas: 2)\n 11940: a3 = u64 [s1 + 0x70]\n 11943: t0 = 344, jump @435\n      : @403 [@dyn 172] (gas: 7)\n 11949: u64 [s1 + 0x398] = a3\n 11953: u64 [s1 + 0x390] = a2\n 11957: u64 [s1 + 0x388] = a1\n 11961: u64 [s1 + 0x380] = a0\n 11965: a0 = s1 + 0x220\n 11969: a1 = s1 + 0x380\n 11973: ra = 346, jump @11\n      : @404 [@dyn 173] (gas: 31)\n 11979: a0 = u64 [s1 + 0x220]\n 11983: u64 [s1 + 0x70] = a0\n 11986: a0 = u64 [s1 + 0x228]\n 11990: u64 [s1 + 0x68] = a0\n 11993: a0 = u64 [s1 + 0x230]\n 11997: u64 [s1 + 0x60] = a0\n 12000: a0 = u64 [s1 + 0x238]\n 12004: u64 [s1 + 0x58] = a0\n 12007: i32 a0 = s1 + 0x3a0\n 12011: ecalli 10 // 'now'\n 12013: a4 = s1 + 0x300\n 12017: a3 = u64 [a4 + 0xa0]\n 12021: a0 = u64 [a4 + 0xa8]\n 12025: a1 = u64 [a4 + 0xb0]\n 12029: a2 = u64 [a4 + 0xb8]\n 12033: a4 = u64 [s1 + 0x58]\n 12036: u64 [s1 + 0x1d8] = a4\n 12040: a4 = u64 [s1 + 0x60]\n 12043: u64 [s1 + 0x1d0] = a4\n 12047: a4 = u64 [s1 + 0x68]\n 12050: u64 [s1 + 0x1c8] = a4\n 12054: a4 = u64 [s1 + 0x70]\n 12057: u64 [s1 + 0x1c0] = a4\n 12061: u64 [s1 + 0x1f8] = a2\n 12065: u64 [s1 + 0x1f0] = a1\n 12069: u64 [s1 + 0x1e8] = a0\n 12073: a0 = s1 + 0x200\n 12077: a1 = s1 + 0x1e0\n 12081: a2 = s1 + 0x1c0\n 12085: u64 [s1 + 0x1e0] = a3\n 12089: ra = 348, jump @282\n      : @405 [@dyn 174] (gas: 20)\n 12095: a1 = s1 + 0x200\n 12099: a0 = u64 [a1 + 0x18]\n 12102: u64 [s1 + 0x58] = a0\n 12105: a0 = u64 [a1 + 0x10]\n 12108: u64 [s1 + 0x60] = a0\n 12111: a0 = u64 [a1 + 0x8]\n 12114: u64 [s1 + 0x68] = a0\n 12117: a0 = u64 [a1]\n 12119: u64 [s1 + 0x70] = a0\n 12122: u64 [s1 + 440] = 0\n 12126: a0 = u64 [s1 + 0x88]\n 12130: a2 = s1 + 0x100\n 12134: u64 [a2 + 0xb0] = a0\n 12138: a0 = u64 [s1 + 0x90]\n 12142: u64 [a2 + 0xa8] = a0\n 12146: a1 = s1 + 0x1a0\n 12150: a0 = u64 [s1 + 0x98]\n 12154: u64 [a2 + 0xa0] = a0\n 12158: a0 = 0\n 12160: ra = 350, jump @9\n      : @406 [@dyn 175] (gas: 7)\n 12166: u64 [s1 + 408] = 0\n 12170: u64 [s1 + 400] = 0\n 12174: u64 [s1 + 392] = 0\n 12178: a0 = 0x20\n 12181: a1 = s1 + 0x180\n 12185: u64 [s1 + 384] = 0\n 12189: ra = 352, jump @9\n      : @407 [@dyn 176] (gas: 3)\n 12195: a1 = u64 [s1 + 0x80]\n 12199: a0 = i32 [a1]\n 12201: jump @409 if a0 >u 63\n      : @408 (gas: 2)\n 12205: u32 [a1 + 0] = 0x40\n 12208: fallthrough\n      : @409 (gas: 12)\n 12209: a0 = sp + 0xffffffffffffffe0\n 12212: a0 = a0 & 0xffffffffffffffe0\n 12215: u64 [s1 + 0x98] = a0\n 12219: sp = a0\n 12221: i32 a2 = a0 + 0\n 12223: a1 = 0x40\n 12226: a0 = u64 [s1 + 0x78]\n 12229: ra = 0x162\n 12233: ecalli 9 // 'hash_keccak_256'\n 12235: a3 = u64 [s1 + 0x98]\n 12239: t0 = 0x164\n 12243: jump @436\n      : @410 [@dyn 177] (gas: 2)\n 12246: a3 = u64 [s1 + 0x98]\n 12250: t0 = 356, jump @436\n      : @411 [@dyn 178] (gas: 7)\n 12256: u64 [a4 + 0xd8] = a3\n 12260: u64 [a4 + 0xd0] = a2\n 12264: u64 [a4 + 0xc8] = a1\n 12268: u64 [a4 + 0xc0] = a0\n 12272: a0 = s1 + 0x160\n 12276: a1 = s1 + 0x3c0\n 12280: ra = 358, jump @11\n      : @412 [@dyn 179] (gas: 9)\n 12286: a0 = u64 [s1 + 0x160]\n 12290: u64 [s1 + 0x98] = a0\n 12294: a0 = u64 [s1 + 0x168]\n 12298: u64 [s1 + 0x90] = a0\n 12302: a0 = u64 [s1 + 0x170]\n 12306: u64 [s1 + 0x88] = a0\n 12310: a0 = u64 [s1 + 0x178]\n 12314: u64 [s1 + 0x80] = a0\n 12318: ra = 360, jump @0\n      : @413 [@dyn 180] (gas: 20)\n 12324: a1 = u64 [0x30090]\n 12329: a2 = u64 [0x30098]\n 12334: a3 = u64 [0x300a0]\n 12339: a0 = u64 [0x300a8]\n 12344: u64 [s1 + 0x118] = a0\n 12348: u64 [s1 + 0x110] = a3\n 12352: u64 [s1 + 0x108] = a2\n 12356: u64 [s1 + 0x100] = a1\n 12360: a0 = u64 [s1 + 0x80]\n 12364: u64 [s1 + 0x138] = a0\n 12368: a0 = u64 [s1 + 0x88]\n 12372: u64 [s1 + 0x130] = a0\n 12376: a0 = u64 [s1 + 0x90]\n 12380: u64 [s1 + 0x128] = a0\n 12384: a0 = s1 + 0x140\n 12388: a1 = s1 + 0x120\n 12392: a2 = s1 + 0x100\n 12396: a3 = u64 [s1 + 0x98]\n 12400: u64 [s1 + 0x120] = a3\n 12404: ra = 362, jump @371\n      : @414 [@dyn 181] (gas: 21)\n 12410: a4 = s1 + 0x100\n 12414: a3 = u64 [a4 + 0x40]\n 12417: a0 = u64 [a4 + 0x48]\n 12420: a1 = u64 [a4 + 0x50]\n 12423: a2 = u64 [a4 + 0x58]\n 12426: a4 = u64 [s1 + 0x58]\n 12429: u64 [s1 + 0xb8] = a4\n 12433: a4 = u64 [s1 + 0x60]\n 12436: u64 [s1 + 0xb0] = a4\n 12440: a4 = u64 [s1 + 0x68]\n 12443: u64 [s1 + 0xa8] = a4\n 12447: a4 = u64 [s1 + 0x70]\n 12450: u64 [s1 + 0xa0] = a4\n 12454: u64 [s1 + 0xd8] = a2\n 12458: u64 [s1 + 0xd0] = a1\n 12462: u64 [s1 + 0xc8] = a0\n 12466: a0 = s1 + 0xe0\n 12470: a1 = s1 + 0xc0\n 12474: a2 = s1 + 0xa0\n 12478: u64 [s1 + 0xc0] = a3\n 12482: ra = 364, jump @371\n      : @415 [@dyn 182] (gas: 55)\n 12488: t0 = u64 [s1 + 0xf8]\n 12492: t2 = u64 [s1 + 0xf0]\n 12496: t1 = u64 [s1 + 0xe8]\n 12500: a1 = u64 [s1 + 0xe0]\n 12504: u64 [s1 + 0x58] = a1\n 12507: a0 = clz t0\n 12509: a2 = clz t2\n 12511: a5 = a2 + 0x40\n 12514: a5 = a0 if t0 != 0\n 12517: a0 = clz t1\n 12519: a2 = clz a1\n 12521: a2 = a2 + 0x40\n 12524: a2 = a0 if t1 != 0\n 12527: a0 = a2 + 0x80\n 12531: a3 = t2 | t0\n 12534: a5 = a0 if a3 == 0\n 12537: a2 = a0 <u a2\n 12540: a2 = 0 if a3 != 0\n 12542: a3 = a2 >u 0\n 12544: a0 = a5 <u 0xc5\n 12548: a4 = a0 ^ 0x1\n 12551: a3 = a4 if a2 == 0\n 12554: a0 = a3 <u 0x1\n 12557: a0 = a0 + 0xffffffffffffffff\n 12560: ra = -a3\n 12562: a2 = -a2\n 12564: a1 = a2 - a4\n 12567: a2 = 0xc4 - a5\n 12571: u64 [s1 + 0x88] = ra\n 12575: a5 = ra >u 0\n 12577: a4 = a0 >u 0\n 12579: u64 [s1 + 0x80] = a0\n 12583: a4 = a5 if a0 == 0\n 12586: u64 [s1 + 0x90] = a2\n 12590: a0 = a2 <u 0x100\n 12594: a0 = a0 ^ 0x1\n 12597: a5 = a1 >u 0\n 12599: a0 = a5 if a1 != 0\n 12602: a0 = a4 if a3 != 0\n 12605: a3 = t1 | t0\n 12608: ra = u64 [s1 + 0x58]\n 12611: a4 = ra | t2\n 12614: a3 = a3 | a4\n 12617: a3 = a3 <u 0x1\n 12620: a0 = a0 | a3\n 12623: u64 [s1 + 0x50] = t0\n 12626: a2 = t0\n 12628: a2 = 0 if a0 != 0\n 12630: a5 = t2\n 12632: a5 = 0 if a0 != 0\n 12634: a4 = t1\n 12636: a4 = 0 if a0 != 0\n 12638: t0 = ra\n 12640: t0 = 0 if a0 != 0\n 12642: jump @432 if a0 != 0\n      : @416 (gas: 9)\n 12646: ra = t2\n 12648: a0 = u64 [s1 + 0x90]\n 12652: a0 = a0 ^ 0xff\n 12656: a3 = u64 [s1 + 0x88]\n 12660: t2 = a0 | a3\n 12663: a3 = u64 [s1 + 0x80]\n 12667: a0 = a1 | a3\n 12670: a0 = t2 | a0\n 12673: jump @432 if a0 == 0\n      : @417 (gas: 22)\n 12677: a4 = u64 [s1 + 0x90]\n 12681: a2 = a4 + 0x1\n 12684: u64 [s1 + 0x98] = a2\n 12688: a0 = a2 <u 0x1\n 12691: a0 = a0 + a1\n 12694: u64 [s1 + 0x70] = a0\n 12697: a0 = a0 | a2\n 12700: a0 = a0 <u 0x1\n 12703: a2 = u64 [s1 + 0x88]\n 12707: a0 = a0 + a2\n 12710: u64 [s1 + 0x60] = a0\n 12713: a0 = a0 <u a2\n 12716: a0 = a0 + a3\n 12719: u64 [s1 + 0x68] = a0\n 12722: a1 = 0xff - a4\n 12726: u64 [s1 + 0x78] = a1\n 12729: a2 = 0x80 - a1\n 12733: a0 = u64 [s1 + 0x58]\n 12736: a1 = t1\n 12738: u64 [s1 + 0x48] = t1\n 12741: u64 [s1 + 0x40] = ra\n 12744: ra = 366, jump @444\n      : @418 [@dyn 183] (gas: 6)\n 12750: u64 [s1 + 0x88] = a0\n 12754: u64 [s1 + 0x80] = a1\n 12758: a0 = u64 [s1 + 0x40]\n 12761: a1 = u64 [s1 + 0x50]\n 12764: a2 = u64 [s1 + 0x78]\n 12767: ra = 368, jump @449\n      : @419 [@dyn 184] (gas: 9)\n 12773: u64 [s1 + 0x38] = a0\n 12776: a0 = u64 [s1 + 0x80]\n 12780: a0 = a0 | a1\n 12783: u64 [s1 + 0x80] = a0\n 12787: a1 = u64 [s1 + 0x90]\n 12791: a2 = 0x7f - a1\n 12794: a0 = u64 [s1 + 0x58]\n 12797: a1 = u64 [s1 + 0x48]\n 12800: ra = 370, jump @449\n      : @420 [@dyn 185] (gas: 18)\n 12806: a2 = u64 [s1 + 0x78]\n 12809: a3 = a2 <u 0x80\n 12813: u64 [s1 + 0x90] = a3\n 12817: a4 = u64 [s1 + 0x80]\n 12821: a1 = a4 if a3 != 0\n 12824: a4 = u64 [s1 + 0x50]\n 12827: a1 = a4 if a2 == 0\n 12830: u64 [s1 + 0x80] = a1\n 12834: a1 = u64 [s1 + 0x88]\n 12838: a4 = u64 [s1 + 0x38]\n 12841: a1 = a1 | a4\n 12844: a1 = a0 if a3 == 0\n 12847: a0 = u64 [s1 + 0x40]\n 12850: a1 = a0 if a2 == 0\n 12853: u64 [s1 + 0x88] = a1\n 12857: a0 = u64 [s1 + 0x58]\n 12860: a1 = u64 [s1 + 0x48]\n 12863: ra = 372, jump @449\n      : @421 [@dyn 186] (gas: 13)\n 12869: a3 = u64 [s1 + 0x60]\n 12872: a4 = u64 [s1 + 0x68]\n 12875: a2 = u64 [s1 + 0x70]\n 12878: a2 = a2 | a4\n 12881: a5 = u64 [s1 + 0x98]\n 12885: a5 = a5 | a3\n 12888: a2 = a2 | a5\n 12891: a3 = u64 [s1 + 0x90]\n 12895: a1 = 0 if a3 == 0\n 12897: u64 [s1 + 0x78] = a1\n 12900: a0 = 0 if a3 == 0\n 12902: u64 [s1 + 0x90] = a0\n 12906: jump @430 if a2 == 0\n      : @422 (gas: 7)\n 12910: a0 = 0xde0b6b3a7640000\n 12920: u64 [s1 + 0x30] = a0\n 12923: a0 = u64 [s1 + 0x98]\n 12927: a2 = a0 + 0xffffffffffffff80\n 12930: a0 = u64 [s1 + 0x40]\n 12933: a1 = u64 [s1 + 0x50]\n 12936: ra = 374, jump @444\n      : @423 [@dyn 187] (gas: 6)\n 12942: u64 [s1 + 0x38] = a0\n 12945: u64 [s1 + 0x20] = a1\n 12948: a0 = u64 [s1 + 0x58]\n 12951: a1 = u64 [s1 + 0x48]\n 12954: a2 = u64 [s1 + 0x98]\n 12958: ra = 376, jump @444\n      : @424 [@dyn 188] (gas: 7)\n 12964: u64 [s1 + 0x10] = a0\n 12967: u64 [s1 + 0x28] = a1\n 12970: a1 = u64 [s1 + 0x98]\n 12974: a2 = 0x80 - a1\n 12978: a0 = u64 [s1 + 0x40]\n 12981: a1 = u64 [s1 + 0x50]\n 12984: ra = 378, jump @449\n      : @425 [@dyn 189] (gas: 21)\n 12990: a2 = u64 [s1 + 0x28]\n 12993: a1 = a1 | a2\n 12996: a3 = u64 [s1 + 0x98]\n 13000: a4 = a3 <u 0x80\n 13004: u64 [s1 + 0x28] = a4\n 13007: a2 = u64 [s1 + 0x20]\n 13010: a1 = a2 if a4 == 0\n 13013: a2 = u64 [s1 + 0x48]\n 13016: a2 = a1 if a3 != 0\n 13019: u64 [s1 + 0x48] = a2\n 13022: a1 = u64 [s1 + 0x10]\n 13025: a0 = a0 | a1\n 13028: a1 = u64 [s1 + 0x38]\n 13031: a0 = a1 if a4 == 0\n 13034: a1 = u64 [s1 + 0x58]\n 13037: a1 = a0 if a3 != 0\n 13040: a2 = a3\n 13042: u64 [s1 + 0x58] = a1\n 13045: a0 = u64 [s1 + 0x40]\n 13048: a1 = u64 [s1 + 0x50]\n 13051: ra = 380, jump @444\n      : @426 [@dyn 190] (gas: 13)\n 13057: a5 = 0\n 13059: a2 = u64 [s1 + 0x28]\n 13062: a1 = 0 if a2 == 0\n 13064: a0 = 0 if a2 == 0\n 13066: a4 = u64 [s1 + 0x30]\n 13069: a2 = a4 + 0xffffffffffffffff\n 13072: u64 [s1 + 0x28] = a2\n 13075: a2 = a4 >u 0\n 13077: a2 = a2 + 0xffffffffffffffff\n 13080: u64 [s1 + 0x20] = a2\n 13083: t2 = u64 [s1 + 0x48]\n 13086: t0 = u64 [s1 + 0x58]\n 13089: fallthrough\n      : @427 (gas: 90)\n 13090: u64 [s1 + 0x48] = a1\n 13093: u64 [s1 + 0x50] = a5\n 13096: u64 [s1 + 56] = 0\n 13099: a2 = t0 >> 0x3f\n 13102: a3 = t2 << 0x1\n 13105: a3 = a3 | a2\n 13108: a2 = t0 << 0x1\n 13111: ra = u64 [s1 + 0x80]\n 13115: a4 = ra >> 0x3f\n 13118: a4 = a4 | a2\n 13121: u64 [s1 + 0x58] = a4\n 13124: a2 = u64 [s1 + 0x20]\n 13127: a1 = a2 ^ a3\n 13130: u64 [s1 + 0x40] = a1\n 13133: a1 = a2 <u a3\n 13136: a5 = u64 [s1 + 0x28]\n 13139: t0 = a5 <u a4\n 13142: a4 = u64 [s1 + 0x40]\n 13145: t0 = a1 if a4 != 0\n 13148: a1 = u64 [s1 + 0x48]\n 13151: a1 = a1 << 0x1\n 13154: a4 = a0 >> 0x3f\n 13157: a1 = a1 | a4\n 13160: u64 [s1 + 0x48] = a1\n 13163: a4 = t2 >> 0x3f\n 13166: a0 = a0 << 0x1\n 13169: a4 = a4 | a0\n 13172: a0 = ra << 0x1\n 13175: a1 = u64 [s1 + 0x88]\n 13179: a5 = a1 >> 0x3f\n 13182: a0 = a0 | a5\n 13185: u64 [s1 + 0x80] = a0\n 13189: a5 = a1 << 0x1\n 13192: a0 = u64 [s1 + 0x78]\n 13195: a1 = a0 >> 0x3f\n 13198: t2 = a5 | a1\n 13201: a5 = a0 << 0x1\n 13204: a0 = u64 [s1 + 0x90]\n 13208: ra = a0 >> 0x3f\n 13211: a5 = a5 | ra\n 13214: a0 = a0 << 0x1\n 13217: a1 = u64 [s1 + 0x50]\n 13220: a0 = a0 | a1\n 13223: u64 [s1 + 0x90] = a0\n 13227: a0 = a5 | 0\n 13229: u64 [s1 + 0x78] = a0\n 13232: a0 = t2 | 0\n 13234: u64 [s1 + 0x88] = a0\n 13238: a0 = u64 [s1 + 0x80]\n 13242: a0 = a0 | 0\n 13244: u64 [s1 + 0x80] = a0\n 13248: a0 = a2 - a4\n 13251: a0 = a0 <u t0\n 13254: a1 = a2 <u a4\n 13257: t1 = u64 [s1 + 0x48]\n 13260: a5 = a2 - t1\n 13263: a5 = a5 - a1\n 13266: a5 = a5 - a0\n 13269: ra = a5 >>a 0x3f\n 13272: a0 = u64 [s1 + 0x30]\n 13275: a0 = ra & a0\n 13278: a1 = u64 [s1 + 0x58]\n 13281: t0 = a1 - a0\n 13284: a1 = a1 <u a0\n 13287: t2 = a3 - a1\n 13290: a1 = 0 if a3 != 0\n 13292: a0 = a4 - a1\n 13295: a1 = a4 <u a1\n 13298: a1 = t1 - a1\n 13301: a3 = u64 [s1 + 0x98]\n 13305: a5 = u64 [s1 + 0x70]\n 13308: a2 = a3 | a5\n 13311: a2 = a2 <u 0x1\n 13314: a4 = u64 [s1 + 0x60]\n 13317: t1 = a4 <u a2\n 13320: a4 = a4 - a2\n 13323: a2 = a3 <u 0x1\n 13326: a5 = a5 - a2\n 13329: a2 = u64 [s1 + 0x68]\n 13332: a2 = a2 - t1\n 13335: a3 = a3 + 0xffffffffffffffff\n 13338: u64 [s1 + 0x70] = a5\n 13341: u64 [s1 + 0x68] = a2\n 13344: a2 = a2 | a5\n 13347: u64 [s1 + 0x98] = a3\n 13351: a3 = a3 | a4\n 13354: a2 = a2 | a3\n 13357: a5 = ra & 0x1\n 13360: u64 [s1 + 0x60] = a4\n 13363: jump @427 if a2 != 0\n      : @428 (gas: 1)\n 13367: jump @431\n      : @429 (gas: 5)\n 13369: t0 = 0\n 13371: a4 = 0\n 13373: a5 = 0\n 13375: a2 = 0\n 13377: jump @432\n      : @430 (gas: 3)\n 13379: a5 = 0\n 13381: u64 [s1 + 56] = 0\n 13384: fallthrough\n      : @431 (gas: 20)\n 13385: a2 = u64 [s1 + 0x88]\n 13389: a0 = a2 >> 0x3f\n 13392: a1 = u64 [s1 + 0x80]\n 13396: a1 = a1 << 0x1\n 13399: t1 = a1 | a0\n 13402: a4 = u64 [s1 + 0x78]\n 13405: a1 = a4 >> 0x3f\n 13408: a2 = a2 << 0x1\n 13411: a1 = a1 | a2\n 13414: a3 = u64 [s1 + 0x90]\n 13418: a2 = a3 >> 0x3f\n 13421: a4 = a4 << 0x1\n 13424: a3 = a3 << 0x1\n 13427: t0 = a5 | a3\n 13430: a0 = u64 [s1 + 0x38]\n 13433: a2 = a2 | a0\n 13436: a4 = a4 | a2\n 13439: a5 = a0 | a1\n 13442: a2 = a0 | t1\n 13445: fallthrough\n      : @432 (gas: 12)\n 13446: a1 = u64 [s1 + 0x18]\n 13449: u64 [a1] = t0\n 13451: u64 [a1 + 0x8] = a4\n 13454: u64 [a1 + 0x10] = a5\n 13457: u64 [a1 + 0x18] = a2\n 13460: sp = s0 + 0xfffffffffffffc00\n 13464: a0 = sp + 0x300\n 13468: ra = u64 [a0 + 0xf8]\n 13472: s0 = u64 [a0 + 0xf0]\n 13476: s1 = u64 [a0 + 0xe8]\n 13480: sp = sp + 0x400\n 13484: ret\n      : @433 [export #0: 'call'] (gas: 2)\n 13486: a0 = 0\n 13488: ra = 382, jump @21\n      : @434 [@dyn 191] [export #1: 'deploy'] (gas: 2)\n 13494: a0 = 0x1\n 13497: ra = 384, jump @21\n      : @435 [@dyn 192] (gas: 9)\n 13503: a0 = u64 [a3 + 0x18]\n 13506: a1 = u64 [a3 + 0x10]\n 13509: a2 = u64 [a3 + 0x8]\n 13512: a3 = u64 [a3]\n 13514: a0 = reverse a0\n 13516: a1 = reverse a1\n 13518: a2 = reverse a2\n 13520: a3 = reverse a3\n 13522: jump [t0]\n      : @436 (gas: 10)\n 13524: a0 = u64 [a3 + 0x18]\n 13527: a1 = u64 [a3 + 0x10]\n 13530: a2 = u64 [a3 + 0x8]\n 13533: a3 = u64 [a3]\n 13535: a0 = reverse a0\n 13537: a1 = reverse a1\n 13539: a2 = reverse a2\n 13541: a3 = reverse a3\n 13543: a4 = s1 + 0x300\n 13547: jump [t0]\n      : @437 (gas: 8)\n 13549: a0 = a0 | a2\n 13552: a2 = a3 | a1\n 13555: a2 = a2 | a0\n 13558: a2 = a2 >> 0x20\n 13561: a0 = a0 | a1\n 13564: a0 = a0 << 0x20\n 13567: a0 = a0 | a2\n 13570: jump [t0]\n      : @438 (gas: 14)\n 13572: a0 = u64 [a2 + 0x8]\n 13575: a1 = u64 [a2]\n 13577: a2 = i32 [a2 + 0x10]\n 13580: a0 = reverse a0\n 13582: a3 = a0 >> 0x20\n 13585: a1 = reverse a1\n 13587: a4 = a1 << 0x20\n 13590: a3 = a3 | a4\n 13593: a0 = a0 << 0x20\n 13596: a2 = reverse a2\n 13598: a2 = a2 >> 0x20\n 13601: a0 = a0 | a2\n 13604: a1 = a1 >> 0x20\n 13607: jump [t0]\n      : @439 (gas: 12)\n 13609: a0 = u64 [a3 + 0x18]\n 13612: a1 = u64 [a3 + 0x10]\n 13615: a2 = u64 [a3 + 0x8]\n 13618: a3 = u64 [a3]\n 13620: a0 = reverse a0\n 13622: a1 = reverse a1\n 13624: a2 = reverse a2\n 13626: a3 = reverse a3\n 13628: a4 = s1 + 0x7ff\n 13632: a4 = a4 + 0x19\n 13635: a5 = a4 + 0x100\n 13639: jump [t0]\n      : @440 (gas: 11)\n 13641: a0 = u64 [a3 + 0x18]\n 13644: a1 = u64 [a3 + 0x10]\n 13647: a2 = u64 [a3 + 0x8]\n 13650: a3 = u64 [a3]\n 13652: a0 = reverse a0\n 13654: a1 = reverse a1\n 13656: a2 = reverse a2\n 13658: a3 = reverse a3\n 13660: a4 = s1 + 0x7ff\n 13664: a4 = a4 + 0x19\n 13667: jump [t0]\n      : @441 (gas: 9)\n 13669: a0 = u64 [a3 + 0x18]\n 13672: a1 = u64 [a3 + 0x10]\n 13675: a2 = u64 [a3 + 0x8]\n 13678: a3 = u64 [a3]\n 13680: a0 = reverse a0\n 13682: a4 = reverse a1\n 13684: a2 = reverse a2\n 13686: a3 = reverse a3\n 13688: jump [t0]\n      : @442 (gas: 8)\n 13690: a0 = sp + 0xffffffffffffffe0\n 13693: a0 = a0 & 0xffffffffffffffe0\n 13696: u64 [s1 + 0x70] = a0\n 13699: sp = a0\n 13701: i32 a2 = a0 + 0\n 13703: a1 = 0x40\n 13706: a0 = u64 [s1 + 0x78]\n 13709: jump [t0]\n      : @443 (gas: 8)\n 13711: a0 = u64 [a4 + 0x98]\n 13715: a1 = u64 [a4 + 0xa0]\n 13719: a2 = u64 [a4 + 0x90]\n 13723: a3 = u64 [a4 + 0x88]\n 13727: a1 = a1 | a2\n 13730: a0 = a0 | a3\n 13733: a0 = a0 | a1\n 13736: jump [t0]\n      : @444 (gas: 2)\n 13738: a3 = a2 & 0x40\n 13741: jump @448 if a3 != 0\n      : @445 (gas: 1)\n 13744: jump @447 if a2 == 0\n      : @446 (gas: 6)\n 13747: i32 a3 = 0x40 - a2\n 13750: a3 = a1 << a3\n 13753: a1 = a1 >> a2\n 13756: a0 = a0 >> a2\n 13759: a0 = a0 | a3\n 13762: ret\n      : @447 (gas: 1)\n 13764: ret\n      : @448 (gas: 4)\n 13766: a0 = a2 + 0xffffffffffffffc0\n 13769: a0 = a1 >> a0\n 13772: a1 = 0\n 13774: ret\n      : @449 (gas: 2)\n 13776: a3 = a2 & 0x40\n 13779: jump @453 if a3 != 0\n      : @450 (gas: 1)\n 13782: jump @452 if a2 == 0\n      : @451 (gas: 6)\n 13785: i32 a3 = 0x40 - a2\n 13788: a3 = a0 >> a3\n 13791: a0 = a0 << a2\n 13794: a1 = a1 << a2\n 13797: a1 = a1 | a3\n 13800: ret\n      : @452 (gas: 1)\n 13802: ret\n      : @453 (gas: 4)\n 13804: a1 = a2 + 0xffffffffffffffc0\n 13807: a1 = a0 << a1\n 13810: a0 = 0\n 13812: ret\n",
        "bytecode": {
          "object": "50564d0000f63f000000000000010700c1d000c000800364b5b1fe7621b85b0f1592aa7184e247e7f2459fabf3d9046a753fb93242702d8e39a602ea8ebc719eb9af2d8f8109f569dbf91943903245253d5f4ad37bb679daf42b8ea3decd30fcadb6d39e3f7dead6d83b96f41964177ffe73ee4a7a061813400000000481261200000000070000000b0000001900000027000000350000003b000000480000005a0000006500000074000000770000008400000094000000a4000000af000000c1000000cc00000062616c616e636563616c6c63616c6c5f646174615f636f707963616c6c5f646174615f6c6f616463616c6c5f646174615f73697a6563616c6c65726465706f7369745f6576656e746765745f696d6d757461626c655f646174616765745f73746f72616765686173685f6b656363616b5f3235366e6f777265665f74696d655f6c65667472657475726e5f646174615f636f707972657475726e5f646174615f73697a657365616c5f72657475726e7365745f696d6d757461626c655f646174617365745f73746f7261676576616c75655f7472616e73666572726564051102b4ae0463616c6cb4b6066465706c6f7906be3a80c002b5f66a00b201b40364046904ea04f504100539059905be05ca05230637066b069206a706f106160781079107ad07d807f4072b0834085508810896081e09470977097f09c809f409090a970ac90af20a290b320b5b0b920b0c0c1c0c370c720ca10cba0c480d710d670e7c0eae0eda0eea0e020f5f0f1d1039107c108410a91015113b11581196119f11b71109124912f01204131a134d13a313c4131a144c14551407153b155815a515ae15c615471654166e16a016f11654177a1710185e19a3190f1a621aa71aea1a371b551bbd1bca1b281c4e1c6c1cb31cbd1cdc1c0a1da61d621e7b1e9f1ed31e791fbd1ffb1f70208920ad20002132224a226c22ad22ed22052321236923d725f52566267026ae26b4269027a527f8274a28ad28d0281629342976297f299d29da29f329452a4e2a842a4b2c642c882cd82cf62c392d422d5c2da92dc62de02df02df92d132e5c2e7a2e942ea42ead2ecb2e3f2f862fa32fd62fe02ffe2f24307a30c830ce31e531063245328e32a432be320133b634bf349511e87b10107b15087b163306600002390560000251051c3307900003837783680a070139076000022003600002ac57108210108215088216951118320000390860000251084506330790000383770a0f2838069511f07b10087b15648964753308206497501002b0037c78017c797c7a027c7b03978808d4980897aa1097bb18d4ba0ad4a8087c79057c7a047c7b067c7c07979908d4a90997bb1097cc18d4cb0bd4b909979920d489027c79097c7a087c7b0a7c7c0b979908d4a90997bb1097cc18d4cb0bd4b9097c7a0d7c7b0c7c7c0e7c780f97aa08d4ba0a97cc10978818d4c808d4a808978820d498037c78117c7a107c7b127c7c13978808d4a80897bb1097cc18d4cb0bd4b8087c7a157c7b147c7c167c791797aa08d4ba0a97cc10979918d4c909d4a909979920d4890a7c78197c79187c7b1a7c7c1b978808d4980897bb1097cc18d4cb0bd4b8087c791d7c7b1c7c7c1e7c771f979908d4b90997cc10977718d4c707d49707977720d487076f776fa86f396f2a7b5a187b59107b58087b57821008821595111032009511d87b10207b15187b161082897b19088289087b1982851082861833082050100468026f686f59821a6faa821b086fbb787b18787a10787908787898bc38787c1f98bc30787c1e98bc28787c1d98bc20787c1c98bc18787c1b98bc10787c1a98bb08787b1998ab38787b1798ab30787b1698ab28787b1598ab20787b1498ab18787b1398ab10787b1298aa08787a11989a38787a0f989a30787a0e989a28787a0d989a20787a0c989a18787a0b989a10787a0a98990878790998893878790798893078790698892878790598892078790498891878790398891078790298880878780182102082151882161095112832009511a07b10587b15507b16489515608411e06476828718828910828a0882886f776f996faa6f887b18187b1a107b19087b17491138491130491128491120481140208318831a20831b403309ff33070a08821738821830821928821a206f776f886f996faa7b6a187b69107b68087b679551a082105882155082164895116032009511a07b10587b15509515608411e08272827a08827b108277188283828908828c108288186f746fbb6faa6f276f826fcc6f996f387b17187b1a107b1b087b147b18387b19307b1c287b12208318831a203309ff330b2033070a109551a08210588215509511603200951160ff7b1098007b1590007b1688009515a0008411e082ab7b1b3882ab087b1b3082ab107b1b2882aa187b1a20829a7b1a18829a087b1a10829a107b1a088299187b1964865010066582186f888219086f99821a106faa821b186fbb7b1b587b1a507b19487b18408218206f888219286f99821a306faa821b386fbb7b1b787b1a707b19687b18608379836a8317403308020a06955160ff8210980082159000821688009511a00032008b7910520931c8780883881f8488e05638000001253309680002390a680002ae8a093d086800020133087000028377c887073200009511f07b10087b158475010a04013d076400025105075010080950100a4302951180fe7b1078017b1570017b166801951580018411e049215801492150014921480149214001831740010a1101821750018218580182194801821a4001d49808d4a707d4870752074301390664000297672098772095771f8477e09578c000d87807492138017b1820017b17280194777b1730013307409518200150100ca9fc3307c000646850100e25ff8377646833090a02015316400201951700013308c00050101049fb821718017b1738821710017b1730821708017b1720821700017b17189517e0003308e00050101220fb8218f0008216f80014070000000001000000d38707d467077b1828988820888801946893785108af008217e8007b17088217e0007b17108217187b17c0008217207b17c8008217307b17d000330780009518c0008219387b19d800501014fafb7b16b8008217287b17b0008217087b17a8003307a000c871088219107b19a000501016d5fb951780003308405010188ffa82179800821890008219880082168000d49707d48609d47909989920d48707977720d4970751072b003308700002838833070128a20033087000028388330701289500330870000283883307012888006467330850101af7fd8377330833090a029517603308800050101c22fa821778330b9000037b1b38821870821968821a603e07a800033e08a000033e099800033e0a9000039517403308a00050101eeef9821758821850821948821a40821b387bb7387bb8307bb9287bba2028b9f96467330850102088fd8378330733093300220a0e280a33093300220a0e01951108f8951700077b70f0007b75e8007b76e0009515f8079511d8fb8411e064169569ff0795991949292001492918014929080180003307409568ff079588210149291001501024a2fa33076400027b67980039076400025517040728e01495670010837740f933083300260a03019569ff07959919819744015247c0e16e830a28d50f5147981aff8ec70551472e77c9ad7c0c5147e072a6c2810751478cfb5cef870151471720edf6a30451476d287efce902524756a5a64d76064929a001492998014929900149298801956700108377a0f93300280a1101956aff0795aa1995ab000150122a032e510706281210826798008177561723072816109567e00150102c8b15956a000182a7e00082a8e8008069f0014926d8017ba9d0007ba8c8009568c0017ba7c000330750102ebbf94926b8014926b0014926a8013307209568a0014926a0015010309ff9390868000256183f0b200368000240019517e08479e07b69980064913307700002837783993308403300320a09826a980033023428012d826a9800501234fa2c7bcac0007bc9b8007bc8b0007bc7a800956780019568ff079588c10150103630fa826798017b679800826790017b679000826788017b678800826780017b67800095676001330840501038d8f7956b000182b77882b87082b96882ba6050123a5c2c52070f0f82678000956900017b9740826788007b9748826790007b975095684001826798007b975864a77b6a980033006c28c7f84929800349297803492970034929680395670010837780fb0a1101956aff0795aa1995ab000382b77882b8800082b97082ba68d49808d4a707d487075207c20e826798008177541723c90e9567a00750103c1a14956800078287b8007b6798008287b0007b6790008287a8007b6788008287a0007b67800050103ebef63a08b800037b68783a08b000037b68703807c000037b676833077000037b676083773300400a0582696033024228902b8269605012428a2b826968d39808826970d39707d48707826878d3a808d487075207530e826780007b674007826788007b674807826790007b6750079567600795684007826998007b695807501044ea16826778077b679800826770077b679000826768077b678800826760077b6780009567200733084050104665f6956b000782b73882b83082b92882ba20501248e92a52079c0d82678000956900077b97826788007b9708826790007b971095680007826798007b971864a77b6a980033006c2855f74929c0034929b8034929b0034929a803956700108377c0fb0a1101956aff0795aa1995ab000382b7b80082b8c00082b9b00082baa800d49808d4a707d487075207b40d826798008177541723bb0d9567ff079577010150104aa112956aff0795aa1982a7e80082a8f00080a9f800492ae0007ba9d8007ba8d0009568ff079588e1007ba7c800330750104ccaf69567ff079577194927c0004927b8004927b00064793307209568ff079588c1004929a80050104ea1f6390868000256183f0b200368000240019517e08479e07b69980064913307700002837783993308403300500a09826a980033025228232a826a98005012521c2a95bc00037bcae0007bc9d8007bc8d0007bc7c8009567ff079577a1009568ff079588e1035010542af79568ff079588198287a0007b679800828798007b679000828790007b678800828788007b6780009567ff0795778100330840501056c7f4956aff0795aa1982a7800082a87882a97082ab68d49707d48b09d47909989920d48707977720d497075207ea0b826780007ba748826788007ba750826790007ba7589568ff07958861826798007ba76064b77b6b980033006c28a3f54929a003492998034929900349298803956700108377a0fb3300580a1101956aff0795aa1995ab000350125a78295207350c8267980081775417233c0c9567ff0795774150105c0111956bff0795bb1982b92882b73082b83882ba407bba7bb8f8956800107b8708f89567ff079577219568ff07958801956a00107ba900f850105e1b209568ff079588198287207b6798008287187b6790008287107b6788008287087b6780009567e007330840501060b8f3956b000782b7f80082b8f00082b9e80082bae00050126238285207eb0a82678000956900077b97c000826788007b97c800826790007b97d0009568c007826798007b97d80064a77b6a980033006c289ff44929400249293802492930024929280295670010837740fa0a1101956aff0795aa1995ab000282b73882b84082b93082ba28d49808d4a707d487075207460b8267980081775417034d0b9567a00233084050106411f3956800028287b8007b6798008287b0007b6790008287a8007b6780008287a0007b67880050106694f28267980082688000d4870782688800648b82699000d49808d47808988820d49707977720d4870752070d0a3a099000033a089800033a0aa000033a07a80003956c00027bc798007bca90007bc88800956880027bc9800064b73300ce0028c0f352478ab99f6fc40a4929e0014929d8014929d0014929c801956700108377e0f90a1101956aff0795aa1995ab000182b7d80082b8e00082b9d00082bac800d49808d4a707d487075207dc0a826798008177541703e30a95670010837700fa0a9567ff07957719827800027b689800957900018298f8007b6890008298f0007b6888008297e8007b67800095672002330840501068f2f1956b000282b73882b83082b92882ba2050126a76265207290982678000956900027b97826788007b9708826790007b971095680002826798007b971864a77b6a980050106ce5f2330820826798003300d000285cf54929a002492998024929900249298802956700108377a0fa33006e0a1101956aff0795aa1995ab0002501270aa2652072c0a826798008177541743330a9567e006501072360e956800068287f8007b67208287f0007b67588287e8007b67708287e0007b6778956700108377c0fa3308240a039567ff07957719957900028298c0007b6898008298b8007b6890008298b0007b6888008297a8007b678000501074a6f03a08b800037b68683a08b000037b68503807c000037b674833077000037b676083770a0501826760827208827b807c106f279878206fb9979a20d4a8089777206fca98aa20d4a707989920826a48d3a909826a50d3a707d49707826968d39808d48707520776097b6c307b62387b6b408267900082688000d487078268980082698800d49808d48707510795098267589777209879204926b806826778956a00067ba7a0008267707ba7a8009568a0067b69487ba9b000330750107676f149269806492690064926880633072095688006492680065010785af133076800027b6768390768000256173f0b826868480840019517e08479e07b6918649133077000027b6728837783993308407b675033007a0a09826a1833027c28d024826a1850127cca2495bc00027bcae0007bc9d8007bc8d0007bc7c800956760069568ff079588e10250107edcf19568000682877882626006828970828a68826c9800d3c70bd8c70882679000d8790cdbb80c82688800d38a03d88a0a82688000d88208db3a08d39707d4b707db7c085208d7088267787b6740068267707b6748068267587b675006956740068268207b68580650208000c11749263806826748956900067b97308267707b9728956820068267787b972033075020820059f04926180649261006492608063307209568000649260006502084003cf09517e08477e07b67586471826768817756173f0b826868480840019517e08477e07b672064718379330840826750330086000a09826a203302880028d223826a2050228800cc238268587b8a187b89107b8b087b879567e00550208a00cff0826ae0058267e8058268f0058269f805826b98007b6b9805826b90007b6b9005826b88007b6b8805826b80007b6b80057b69b8057b68b0057b67a8059567c0059568a005956980057b6aa00550208c00a30b956b000582b7d80082b8d00082b9c80082bac000956bff0795bb197bb7000395b700027b78f8007b79f0007b7ae8009568ff079588010382675850208e00bef00a0b8269608268387b98088268407b988268307a98108e77fc089a78956aff0795aa1995ab00037bb8607bb8587bb8507bb848826898007bb820826890007bb818826888007bb810826880007bb808482a2803979820988820977723d487079568ff07958821039788209888209569ff0795996103979920d4890a826b2897bb2098bb209568ff0795884103978820d4b80c3308ff3309ff0a017b67609567600550209000b50b8267605207f606956720053308405020920056ed956b000582b73882b83082b92882ba2050229400d92152078b0482678000956900057b97826788007b9708826790007b971095680005826798007b971864a77b6a98005020960047ee4926d804826748956b00047bb7d0008267707bb7c8003a070000023a080800023a09100002826a787bbac0007bb7f8007bb8f0007bb9e8003a071800023308209569e004956ac0047bb7e0008267980050209800cdef330782685033090a0e28490882679800817754174376069567600450209a007509956800048287787b67608287707b67688287687b6790008287607b67980095670010837760fa3308240a039568ff07958819958900028297607b6788008297587b6780008297507b67788297487b677050209c00eceb3a08b800037b68583a08b000037b68503807c000037b674833077000037b6740837733009e000a058269403302a00028bb208269405022a000b520826948d39808826950d39707d48707826858d3a808d487075207cf059567ff079577194927800249277802492770024927680295670010837780fa0a11019569ff07959919959a000282a7800082a8708292680282a97882638800d33707826a78d3a808d48707826c8000d3c908826b70d3b209d49808d487075207b205d4cb07d43a08d487075107e80582679800956900047b97826790007b97088267607b9718956700048268687b98105020a200cf138267689777209877204926f8037b6750956900037b97f000826790007b97e8009568e003826798007b97e00033075020a40059ec4926d8034926d0034926c8033307209568c0034926c0035020a6003cec9517e08477e07b676864713309680002390768000256173f0b200368000240017b69489517e08479e07b696064913307700002837783993308407b67583300a8000a09826a603302aa0028c31f826a605022aa00bd1f8268687b8a187b89107b8b087b879567a0035020ac00c0ec8264b803956800038287b000828ba000828ca8009518e08488e06481826a78c8ca0a826270c8b202d8b20bc8ba0ad3ca03d8ca09da3b09826b8000c87b0bc89b0cd8bc0382608800c84000d87b0bc80b0bc83b00d87c03d3040bd84004dab304d3c707d4b707da79047b8c107b8a087b827b80185204d7048267685020ae00c0ec956780033308405020b00006ea956b000382b7980082b8900082b9880082ba80005022b200851e520737018267707b6760038267787b676803826780007b67700395686003826788007b67780364a77b6a88005020b400f4ea49263803826750956b00037bb730826790007bb7283a072000023a082800023a09300002826a98007bba207bb7587bb8507bb9483a0738000233082095694003956a20037bb740826788005020b6007fec330782685833090a0e28fb044929200249291802492910024929080295670010837720fa0a1101956aff0795aa1995ab000282b71882b82082b91082ba08d49808d4a707d48707520739048267980081775417033f04956760023308405020b80006e9956800028287787b6798008287707b6790008287687b6780008287607b6788005020ba008ce88267980082688000d4870782688800648a82699000d49808d47808988820d49707977720d487075107f003003308700002838833070133090a0e2841043308700002838833070133090a0e2830043308700002838833070133090a0e281f043308700002838833070133090a0e280e0449269007492688074926800714070000000004a09fc3956880077b67980733075020bc0084e9390868000256181f12200368000220330870000228e202330870000228da023308700002838833070133090a0e28b8033308700002838833070133090a0e28a7033308700002838833070133090a0e2896033308700002838833070133090a0e2885033308700002838833070133090a0e2874033308700002838833070133090a0e2863035247adaee92c47039567ff079577194927600149275801492750014927480195670010837760f90a1101956aff0795aa1995ab000182b75882b86082b95082ba48d49808d4a707d48707510725033308700002838833070133090a0e2804033308700002838833070133090a0e28f3023308700002838833070133090a0e28e2023308700002838833070133090a0e28d1023308700002838833070133090a0e28c0024926d0064926c8064926c00614070000000004a09fc39568c0067b67d80633075020be0036e8390868000256181f1220036800022033087000022894013308700002288c01492690044926880449268004140700000000c611522c956880047b67980433075020c000f1e7390868000256181f122003680002203308700002284f0133087000022847014926b0044926a8044926a004140700000000b878d6f49568a0047b67b80433073300c20028a8e749265005492648054926400514070000000018ecb890956840057b67580533075020c20085e7826768817756171f0b826868480820013307013309048268500a0e013308700002838833070133090a0e28bc0149265004492648044926400414070000000004a09fc3956840047b67580433075020c40032e7390868000256181f1220036800022033087000022890003308700002288800492630044926280449262004140700000000c611522c956820047b67380433075020c600ede6390868000256181f112003680002203308700002284b330870000228444926d0024926c8024926c002140700000000c611522c9568c0027b67d80233075020c800aae6390868000256181f112003680002203308700002280833087000020183883307013309040a0e01492610034926080349260003140700000000717b484e956800037b67180333075020ca005de64926f8024926f0024926e002113307049568e0024926e8025020cc003fe6826748817756173f0b826848480840013307013309248268580a0e013308700002838833070133090a0e28763308700002838833070133090a0e28663a09b000033a08b800033807c0000349265802956b00027bb7507bb848956840027bb94064a75020ce00d7e5330820826788005020d00051e883780133092033070a0e8267980081772809826798008177015107123308700002838833070133090a0e0133087000028388330733090a0e28f3826798008177561723143308700002838833070133090a0e28d9956720015020d2001101956a000182a72082a82880693001492618017ba9107ba808956800017ba733075020d40046e54926f8004926f0004926e000013307209568e0004926e8005020d60028e533076800027b679800390768000256173f0c82689800480840019517e08479e07b698800649133077000027b679000837783993308403300d8000a09826a88003302da00287918826a88005022da0072187bca80007bc9787bc8707bc7689567c0009568ff07958881015020dc00aae58269c0008267c8008268d000826ad8007b6ab8007b68b0007b67a800330780009568a0007b69a0005020de008ae482679800817756279f0018826898004808a000826790008378800028a8fe8267900083788000289dfe9511c07b10387b15307b16289515408411e0647683173308040a030182171082181814090000000001000000d37909d48909987a2088aa01948a939a510a248219821a087b697b6a087b67107b68189551c082103882153082162895114032003308700002838833070133093300e0000a0e019511807b10787b15707b1668951580008411f0829b828a829608828308829410828c10829918828818d363027b1608d863067b1b187b1a10d8ba0a7b1ada2a06d3980ad89800d84c02daa200d34c0bd4ba0adaa600520046c94c0ac99808c92808d86a09c99808c96a0a821908c99309821bc9b909821b18821c10c9bc0b7b7b7b79087b7a107b7818955180821078821570821668951180003200491150491148491140140700000000717b484e9518407b175833075020e20032e3491138491130491120113307049518204911285020e40019e3390868000256183f0b20036800024001330870000283883307013309243300e6000a0e01951100ff7b10f8007b15f0007b16e800951500018411e064760a0d01510769017b16100a0d64769517c0003308405020e80087e18213d8008214d0008210c8008212c00095671f7b1618d867088477e095793fd87907c8780a8499e0c80a087b1238c89202d89209c89808d3a80bd8a80adab90ac84a0ad84a0bc8b3098eac8e96da9c06d49a0c8e87dbc60752072401821738d87207d3080cd80806dac706d33907d8390cdb7c0bd34a0cd4c707da760b520bff007b12a0007b18a8007b1ab0003307409518a0007b19b8007b133064467b10285020ea001be2821938d46907821830821a28d4a808d487079877207b1620d46808978820d47808520889006497492198004921900049218800951880008219187b1980005020ec00d7e10a0d01821b38821820821930d498081409e0ffffff00000000d89b09821a2894a99489510943647698772052073b83b72083687b181864685020ee0020e47a16e00083778318e00033090a0c01821b388117e000821610821830821920821a28821c18aec70e00330a33093308330b60017b6b7b6a087b69107b6818955100ff8210f8008215f0008216e800951100013200491170491168491160140700000000717b484e9518607b177833075020f00024e1491158491150491140413307049518404911485020f2000be1390868000256183f0b20036800024001330870000283883307013309243300f4000a0e019511e0fc951900037b90187b95107b9608951520038411e064168289828a08828b108288187b6720956c00017bc8f8007b6b087bcbf0007b6a107bcae800956700029568e0017b69187bc9e0005020f6008e0b826718027b6740826710027b6748826708027b6750826700027b6758836720020a01826c3802826330028262280282602002d4c207d43008d4870751071d078877017b67d800683895894068c8dac9086809959940682ada290a95a98000d4c30bdab9087b62387b6c60d8a90c94bc8eca8889fd00859b01dacb0a88a9019599ff9aa49accc9bc029a87fc007b64c0008e488e9b7b69c800da980b8e287b67d00088770001857701db2807dbab078269d800d47909826b60949b7b632864389498826a38949a640c949c7b6030520924038267d0008579ff008263c000d439078264c800d44209d47909510907038269d0009598017b68d800888701c827077b67b800d48707887701c837077b67a800d83707c847077b67b0009a98ff007b68c0009a8980008267308268385020f8007e137b67c8007b6898008267288268608269c0005020fa008c137b67a00082679800d487077b6798008268d0009a897f8267308268385020fc006a138269c000889a80007b6ad000826b9800dbab08826b60da9b087b6890008268c800826ba000d4b808daa708826728da97087b68c8008267308268385020fe002913826ba800826cb0008269b800d49c0c826ad800d4ba0ad4ca0a8269d00093987b68c00093977b67d000510ad7018267d80095798082672882686050200001c3127b6798007b68a0008267308268388269d80050200201ab127b6780007b6888008268d8009a89800082672882686050200401b51282698800d498088269d800889a80007b6a8800826ba000daab08826b38da9b087b68a00082688000d4870782689800daa807826830da98077b679800826728826860502006014712330c82698800939893974916700949166882609000017b6880007b6c88004916788268980098893f826ca00097ca01d49a03978901980b3fd49b0b7b6b9000826a68d33a087b689800d83a08826970d8b90282699800db980282688000978801987b3fd4b8087b68800098cb3f977701d47b0b9707018268c800988c3fd4c7077b67a000978c018267c00098783fd4c808977c018267d00098703fd40c0c97770182698800d497077b67d00086c77b67c00086877b67c8008267a0008670c9ba07d82707d8ba0882648000c94a0cc98c0cc97c0c99c23f84270a82699000c979087b689800d87908c983077b67a0009438c98b07d88b08c98408826ad800826cb800d4ca09889901826ba800d89b03c99b0b88a901c99c0c8269b000c9390995aaff7b6cb8007b69b000d4c9097b6ad800d4ba0ad4a909842c017b6ba8005209d8fe280c330c49167882609000018269c80098973f970801d48707826ac00098a83f979901d49808826bd00098b93f97aa0197bb01d4bc0c826b78d4b909d49a0ad4b808d47b0b017b68c8008264587b6cd800d8c402826750d3a70cd8a703dac203826c48d88c00826940d3b9027b6bd000d8b90bda200b647064a8826ac800d3ac07d42707da730b8267d800dab704dab800daba0c8267d000dab709d49007d4c408d4870751070903826860d389077b67d8006487826338d33002d8300b826830d8840adb2b0ad87908826228d82c0b8267d800db780bd32c08d48707db7b0a826760daa7097b6940daa20c7b6c48daa3007b6050826730daa7047b64588267089777209879204926d8018267187b67c0018267107b67c8019568c0017b69a8007b69d001330750200801bddb4926b8014926b0014926a001013307209568a0014926a80150200a019fdb836740020a0a013309680002956a000282a7587b67c00082a7507b67c80082a7487b67d000390768000282a8407b68b80056173f0b200368000240017b69a0009517e08479e07b69b000649133077000027b67d800837783993308407b67980033000c010a09826ab00033020e01285c0e826ab00050220e01550e7b6a78027b6970027b6868027b6760028267c0007b6798028267c8007b6790028267d0007b6788028267b8007b67800295676002956880025020100159dc5020120152d93a08b000037b68d0003a08c000037b68c8003a07b800037b67c0000a0b8268c0006f88978920826ac8006faa98aa20d4a909988a208268d0006f8b330870000397bc20d4ca0a98bb203d0b8000033e0a7800033e09700003826940956a00027ba9b8008269487ba9b0008269507ba9a8008269587ba9a0004826c0028e77fc089a797ba9f8007ba9f0007ba9e8007ba9e000978820988820977723d487079568a0029788209888209569e002979920d4890a826bd80097bb2098bb209568c002978820d4b80c3308ff3309ff0a017b67d800956780015020140115f78267d8005207f3009567400133084050201601b5d8956b000182ba5882b85082b94882b740d49a0ad48709d4a909989920d4a808978820d498085208bc008268587b6820018268507b6828018268487b683001956820018269407b6938017b67d800502018019cd94926f8008267a8007b67f0008267107b67e8003a074000023a084800023a09500002826a187b6ae000956b00017bb7187bb8107bb9083a0758000233082095690001956ae0007bb78267d80050201a0126db826b40826a48826950826858280b33083309330a330b018267207b787b79087b7a107b7b189551e0fc951700038270188275108276089511200332000049267001492668014926600114070000000018ecb890956860017b677801330750201c01e7d88267a000817756171f0c8268a000480820013307013309048268980033001e010a0e01951180fe7b1078017b1570017b166801951580018411e0641682798278088077104926d8007b67287b67d0007b68107b68c8009568c0007b69187b69c0003307502020017ed84926b8004926b0004926a000013307209568a0004926a8005020220160d83309680002390768000256173f0b200368000240017b69309517e08479e07b693864913307700002837783993308407b6720330024010a09826a3833022601284c0b826a3850222601460b7b6af8007b69f0007b68e8007b67e000956780009568e00050202801e9d8826790008268980082698800826a8000d49808d4a707d487075207ce004916788267187b67608267107b67689568608267287b6770330750202a01bad74916584916504916400133072095684049164850202c01a1d7836700010a0a01956a000182a7187b671882a7107b672882a7087b6738826930819782a87b681056173f08480940019517e08477e07b67306471837933084082672033002e010a09826a3033023001287d0a826a3050223001770a956b00017bba387bb9307bb8287bb7208267187bb7588267287bb7508267387bb7488267107bb74095672001956840015020320183d8955180fe821078018215700182166801951180013200951140ff7b10b8007b15b0007b16a8009515c0008411f082908282828a087b1758829b08d60207ca0a06c86707d86706d60a0cc86c0ccab206c867077b1750d86707d6b206c86707c8c707d8c70cd6ba06c86c0ccaba06c867077b1748d86706c86c0c7b1c40829310829918828418828710ca3a0c7b1920ca2906c8c6087b1b28ca7b06ca0409c86909ca2306ca070cc8c6067b1330d6230b7b1b10c88b0bd60703c89308d8c6097b18187b1b08c8b80cc8c9097b1438d44a0cd47208d4c808821b40821c48c8c606d8c604c8b909c8490951088f00d3b9087b1948821948d8b909db89047b1640821810821908d889068ea98218208e8cd2c909d6280c8eccd4c909643b821330d63a0a8eaad4a909d469097b1910821918d8b909821b288eba8216388e6cd2ca0ad6060c8eccd4ca0ad67b0c8eccd4ca0ad4a909d4830ad4670c8216408eaa8eccd2ca0ad4a909821810d49808821948d4480784770152072dca02078218587b878217507b87087b86107b8918955140ff8210b8008215b0008216a8009511c0003200492190004921880049218000140700000000717b484e951880007b17980033075020340149d5491178491170491160113307049518604911685020360130d5390868000256183f0b2003680002400133087000028388330701330924330038010a0e01951100fc951900037b90f8007b95f0007b96e800951500048411e064168289828a088088107b6718492638037b6888007b6830037b6a90007b6a2803956820037b6998007b692003330750203a01bcd449261803492610034926000301330720956800034926080350203c019ed43309680002390768000256173f0b200368000240017b6980009517e08479e07b697064913307700002837783993308407b677833003e010a09826a7033024001289e07826a705022400198077bba587bb9507bb8487bb7409567e00295684003502042012ad5956b000282b7f00082b8f80082b9e80082bae000d49808d4a707d487075107c0064926d80282679800956900027b97c000826790007b97c8009568c002826788007b97d000330750204401ebd34926b8024926b0024926a8023307209568a0024926a00250204601ced382698000819756173f0e4809403302480128a30750224801a00733004a010a09826a7033024c0128e706826a7050224c01e1067bba787bb9707bb8687bb760956780029568600350204e0173d4956b000282b7900082b8980082b9880082ba8000d49808d4a707d487075107090649267802826798007b676002826790007b67680295686002826788007b67700233075020500138d3492658024926500249264002013307209568400249264802502052011ad382688000818756173f0e4808403302540128ef0650225401ec06330056010a09826a7033025801281e06826a705022580118067b6a98037b6990037b6888037b678003956720029568800350205a01bbd3826720027b6770826728027b6768826730027b6760826738027b67588367a0030a0a956b000382baa00082b7a80082b8b00082b9b800826b587b6bd801826b607b6bd001826b687b6bc801826b707b6bc0017b69f8017b68f0017b67e801956700029568e0019569c0017b6ae00150205c016dee956800028287187b67588287107b67608287087b676882877b67704926b80182678800956900017b97b000826790007b97a8009568a001826798007b97a000330750205e010ed2492698014926900149268801330720956880014926800150206001f1d182688000818756173f08480840019517e08477e07b67980064718379330840826778330062010a09826a980033026401280105826a980050226401fa047bbad8007bb9d0007bb8c8007bb7c000956760019568c0035020660188d2826760017b679800826768017b679000826770017b678800826778017b67800050206801e2cf3a089000033a099800033a0aa000033a07a800037b6718017b6a10017b6908017b680001826780007b673801826788007b673001826790007b672801956740019568200195690001826a98007b6a200150206a0126fa956b000182ba4082b74882b85082b958826b587b6bb800826b607b6bb000826b687b6ba800826b707b6ba0007b69d8007b68d0007b67c8009567e0009568c0009569a0007b6ac00050206c01d8f98262f8008264f0008263e8008268e0007b685868276849959c40db270c68376889959940db370995978000d4240adaa70cd8970994a98e9a88c7c500857b01da9b0a88a7019577ff9aa09a99c9b9089ac9c4007b6088008e0c8e7b7b678000da7c0b7b699000889700018577018e8cdb8c07dbab07d4230a826058d4400bd4ba0a88aa01d4a7077b625064299479644c947c643b947b64029472520724036440826790008577ff00826a8800d4a704826a8000d4a807d4740751070503826b900095b9017b699800889701c887077b6770d4970788770182698800c897077b6760d89707c8a7077b67689ab8ff007b68789a89800082675864387b63487b604050206e01e2037b6788007b68800082674082685082697850207001f1037b673882678000d487077b678000826890009a897f82675882684850207201d003826978889a80007b6a9000826b8000dbab08826b50da9b087b68800082688800826b38d4b808daa708826740da97087b688800826758826848502074019103826a60826b68826970d4b909826c9800d4ac0cd4c909826a900093a87b687893a77b6790005109d9011407000064a7b3b6e00d7b6730826798009579808267408268505020760122037b67387b682082675882684882699800502078010c037b67107b6828826898009a89800082674082685050207a011803826928d49808826a980088ab80007b6b28826920dab908826948dba8097b6948826810d48707826838dab807826858dba70864a97b685882674082685050207c01af02330c82692893989397826b3095b9ff7b69288eb99599ff7b6920826448826258017b68487b6c5049163898293f974a01d49a0a97290182608000980b3fd49b0b7b6b58826920d3a9087b6840d8a908826c28d8bc02826b40dbb802826848978801987b3fd4b8087b6848984b3f977701d47b0b97070182688800988c3fd4c7077b678000978c0182677898783fd48c04977c018267900098703fd40c0c977701826850d487077b67900086c77b677886477b6788008267800086777b678000c9b907d82707d8b908826348c9390cc98c0cc97c0c99c03f826730d27007826858c97802d87808c98a0494a8c98b07d88b08c98308826a9800826c70d4ca09889901826b60d89b03c99b0b88a901c99c0c826968c9390995aaff7b6c707b6968d4c9097b6a9800d4ba0ad4a909840c017b6b605209effe28123302330b330c33092845330c491638018269880098973f82688000978801d47803826b7898b83f979901d49808826a900098a93f97bb0197aa01d4ac02826738d47909d49b0bd4870cd43709018268187b827b8b087b8c107b8918955100fc951700038270f8008275f0008276e800951100043200330750207e019acf3307015020800191cf82a71882a81082a90882aa6f776f886f996faa320282a71882a81082a90882aa6f776f886f996faa956b00033202d49707d48a09d47909989920d48707977720d49707320282970882988199106f77987a206f88978b20d4ba0a9777206f99989920d49707988820320282a71882a81082a90882aa6f776f886f996faa956bff0795bb1995bc0001320282a71882a81082a90882aa6f776f886f996faa956bff0795bb19320282a71882a81082a90882aa6f776f8b6f996faa32029517e08477e07b677064718379330840826778320282b7980082b8a00082b9900082ba8800d49808d4a707d487073202849a40520a195109148d9a40cfa80ad09808d09707d4a707320032009597c0d0780733083200849a40520a195109148d9a40d0a70acf9707cf9808d4a808320032009598c0cf870833073200490a21a11a4292d210a1925429a42449922449922449922449922449922449922449922449922449922449922449aa9294529294942454a5242549922449922449922449922449922449922449922449499294a4aa24254994a492a42a494992922425294955559292a42495244544444a92242549525129a5244929a524a9a488882849128490309426a521112222221111d18888241192241211452244a16a8808914824121122024892544422894422221122918824422444442449920c25a1249454a84a84842409218444489224492a54a9d2888888489188201111428448446924020908080808080888888848231192281221222222220a11918810229844a1922289101111112122222222122249424424128948914444443412892449442142444444448490909090529284244992888888888808111111119110491222a248242245121111d14844442489284484484444444414221151222284082651a8a448224444444444884444444444244422499224894824128914494444441a891051888448929488482422441289442212222222444444444444914444443412499224a210091111111111221245922411420811111145022222221a8988882411858891888888888884489210114522112942221211119146224414224424128944a4484444444484909090909a94529292244992449288442491241291884421221211424224931452494a92101111111122914412492491248944221189201249222988884404494a914c52499448822429828888888888888888880822222212111111094a9292281249128944229124114944922422494a04894810491244449148448a2012910821242222242222289528441049924844a448241249128484848414259220499224221111118d442412491249924812114592488224918888882888884404490a21824952a8244a244192144144442425499224924492244992a444824810111141241211115104914824841049121291084a252222a291489224118548108944221144248a2449622895502aa15442a9444400110521829090502aa15442a9845209a5124a2520121111d14824499208a5124a25944a2895502a11114044418820242422028828081184844444001145222280888214c9240da512110144148408424222228088821041281411014414840842614923228088828890882045324943a942a942081149a420113415154d28355415452855049144245141444844102244641285a84411892092444410111111111144212222114992a4d2248024a9949224490aa56892442a499224494a92244992244949529224899204901424912408110c25d18888488d54248888489224499224495249892449922411118948099224499244111189a04912405229492988a22692245965492222a22401240549240942044349342249a49224229188480491482412474424894429a54492a422492a111529224924a552252222914424924812494444124424114424224910119124229224922022124914454492202289202222092211114922124922098a8ac4884422491249248944924892482291249244a228a224912489441225894822492289482489a8c4481249224992242391244992482a924492489248a2244992449224499224492291888882889088201a22914884440423894254228a4804111111111111114110224488a24449a29024849088442211514444924412492491244504119120922449924422918844041191082124224948441124495553928824d1880820a2208ac824a21111914a229188444144484410420493a45049944882888888202222492449921424912488469224a94426a9244a24412449922449441011114544442a49922449922449922449922449922449922449922449124992242925a5a424494a494949924a9224494a92888828220288284822491022184aa2111111a92411111111051121114108118c24854aa244122449441011114922222222220a2222114114890451220992242288888824111111115110111211449148102592202222228844229128222212894422222222824892a4444444444441442422882293a8248a480411111141444444441042081111111111111111449224128944444444041111a9a4924852912495888a44a42449925455451191482212499248924422254144922091882441222249449224922049228952440089244192449044244112912449922425094a2529492649924892244992244992482249124992284514499224499294249224499224892489aa2a23912449244992644a121111514182245595a4aa28499294524a52929254158992541529495525a9a48888242549925452499224951400"
        },
        "methodIdentifiers": {
          "claimRewards(address)": "ef5cfb8c",
          "deposits(address)": "fc7e286d",
          "getContractBalance()": "6f9fb98a",
          "getPendingRewards(address)": "f6ed2017",
          "getStakedAmount(address)": "4da6a556",
          "habitTracker()": "836ee1c0",
          "lastUpdateTime(address)": "2ce9aead",
          "ratePerSecond()": "8eff1a98",
          "stake(address,uint256)": "adc9772e",
          "unstake(address,uint256)": "c2a672e0"
        }
      },
      "hash": "658368076cd0566c8923baec17a91e37cdb65b94b86d621b2c8dbd66d15a2243",
      "factoryDependencies": {}
    }
  }
}